0139100465999992013061914504+54380+010145FM-15+003199999V0203601N005710146319N009999199+02101+01901999999ADDGA1071+014631991GA2071+030481991GE19MSL   +99999+99999MA1101501999990REMMET058METAR EDHK 191450Z 36011KT 9999 BKN048 BKN100 21/19 Q1015=
0072100465999992013061915204+54380+010145FM-15+003199999V0200101N006219999999Y999999999+02101+01801999999ADDMA1101501999990REMMET045METAR EDHK 191520Z 01012KT CAVOK 21/18 Q1015=
0125100465999992013062006204+54380+010145FM-15+003199999V0203601N003110009119N003900199+01901+01801999999ADDGA1071+000911991GE19MSL   +99999+99999MA1101401999990MW1101REMMET054METAR EDHK 200620Z 36006KT 3900 BR BKN003 19/18 Q1014=
0120100465999992013062006504+54380+010145FM-15+003199999V0200201N003119999999N006000199+02001+01801999999ADDGA1041+002441991GE19MSL   +99999+99999MA1101401999990REMMET055METAR COR EDHK 200650Z 02006KT 6000 SCT008 20/18 Q1014=
0124100465999992013062007204+54380+010145FM-15+003199999V0200201V003119999999N009999199+02101+01801999999ADDGA1041+002441991GE19MSL   +99999+99999MA1101401999990REMMET059METAR EDHK 200720Z 02006KT 350V050 9999 SCT008 21/18 Q1014=
0147100465999992013062007504+54380+010145FM-15+003199999V0200201V002610640119N009999199+02101+01801999999ADDGA1021+002441991GA2071+064011991GE19MSL   +99999+99999MA1101401999990REMMET066METAR EDHK 200750Z 02005KT 340V070 9999 FEW008 BKN210 21/18 Q1014=
0124100465999992013062008204+54380+010145FM-15+003199999V0200601V003619999999N009999199+02101+01801999999ADDGA1021+002441991GE19MSL   +99999+99999MA1101401999990REMMET059METAR EDHK 200820Z 06007KT 030V110 9999 FEW008 21/18 Q1014=
0109100465999992013062008504+54380+010145FM-15+003199999V0200401V003112200019N009999199+02201+01801999999ADDGF100991999999999999999999MA1101401999990REMMET056METAR EDHK 200850Z 04006KT 010V100 9999 NSC 22/18 Q1014=
0101100465999992013062009204+54380+010145FM-15+003199999V0200401N003112200019N009999199+02101+01701999999ADDGF100991999999999999999999MA1101401999990REMMET048METAR EDHK 200920Z 04006KT 9999 NSC 21/17 Q1014=
0101100465999992013062009504+54380+010145FM-15+003199999V0200401N003112200019N009999199+02201+01801999999ADDGF100991999999999999999999MA1101401999990REMMET048METAR EDHK 200950Z 04006KT 9999 NSC 22/18 Q1014=
0080100465999992013062010204+54380+010145FM-15+003199999V0200501V003119999999Y999999999+02201+01801999999ADDMA1101401999990REMMET053METAR EDHK 201020Z 05006KT 020V090 CAVOK 22/18 Q1014=
0080100465999992013062010504+54380+010145FM-15+003199999V0200301V003619999999Y999999999+02301+01801999999ADDMA1101401999990REMMET053METAR EDHK 201050Z 03007KT 350V060 CAVOK 23/18 Q1014=
0080100465999992013062011204+54380+010145FM-15+003199999V0200601V003619999999Y999999999+02301+01801999999ADDMA1101401999990REMMET053METAR EDHK 201120Z 06007KT 030V090 CAVOK 23/18 Q1014=
0072100465999992013062011504+54380+010145FM-15+003199999V0200601N004119999999Y999999999+02301+01901999999ADDMA1101401999990REMMET045METAR EDHK 201150Z 06008KT CAVOK 23/19 Q1014=
0080100465999992013062012204+54380+010145FM-15+003199999V0200501V003619999999Y999999999+02301+01901999999ADDMA1101401999990REMMET053METAR EDHK 201220Z 05007KT 020V080 CAVOK 23/19 Q1014=
0072100465999992013062012504+54380+010145FM-15+003199999V0200401N004619999999Y999999999+02201+01801999999ADDMA1101301999990REMMET045METAR EDHK 201250Z 04009KT CAVOK 22/18 Q1013=
0072100465999992013062013204+54380+010145FM-15+003199999V0200401N005119999999Y999999999+02201+01801999999ADDMA1101301999990REMMET045METAR EDHK 201320Z 04010KT CAVOK 22/18 Q1013=
0072100465999992013062013504+54380+010145FM-15+003199999V0200401N004619999999Y999999999+02201+01801999999ADDMA1101301999990REMMET045METAR EDHK 201350Z 04009KT CAVOK 22/18 Q1013=
0116100465999992013062014204+54380+010145FM-15+003199999V0200401N004619999999N009999199+02201+01801999999ADDGA1021+003661991GE19MSL   +99999+99999MA1101301999990REMMET051METAR EDHK 201420Z 04009KT 9999 FEW012 22/18 Q1013=
0124100465999992013062014504+54380+010145FM-15+003199999V0200401V004119999999N009999199+02201+01901999999ADDGA1021+003351991GE19MSL   +99999+99999MA1101301999990REMMET059METAR EDHK 201450Z 04008KT 010V070 9999 FEW011 22/19 Q1013=
0124100465999992013062015204+54380+010145FM-15+003199999V0200401V004119999999N009999199+02201+01901999999ADDGA1021+004271991GE19MSL   +99999+99999MA1101301999990REMMET059METAR EDHK 201520Z 04008KT 010V070 9999 FEW014 22/19 Q1013=
0116100465999992013062015504+54380+010145FM-15+003199999V0200501N004119999999N009999199+02101+01801999999ADDGA1021+005791991GE19MSL   +99999+99999MA1101301999990REMMET051METAR EDHK 201550Z 05008KT 9999 FEW019 21/18 Q1013=
0148100465999992013062104504+54380+010145FM-15+003199999V0200101N003610298719N003000199+01801+01701999999ADDGA1021+014331991GA2071+029871991GE19MSL   +99999+99999MA1100501999990MW1101REMMET061METAR EDHK 210450Z 01007KT 3000 BR FEW047 BKN098 18/17 Q1005=
0156100465999992013062105204+54380+010145FM-15+003199999V0200901V003610298719N003000199+01801+01701999999ADDGA1021+001221991GA2081+029871991GE19MSL   +99999+99999MA1100601999990MW1101REMMET069METAR EDHK 210520Z 09007KT 050V110 3000 BR FEW004 OVC098 18/17 Q1006=
0114100465999992013062105504+54380+010145FM-15+003199999V0200901N003112200019N003300199+01801+01701999999ADDGF100991999999999999999999MA1100501999990MW1101REMMET055METAR COR EDHK 210550Z 09006KT 3300 BR NSC 18/17 Q1005=
0110100465999992013062106204+54380+010145FM-15+003199999V0200601N002612200019N003400199+01801+01701999999ADDGF100991999999999999999999MA1100501999990MW1101REMMET051METAR EDHK 210620Z 06005KT 3400 BR NSC 18/17 Q1005=
0101100465999992013062106504+54380+010145FM-15+003199999V0201501N003112200019N006000199+01801+01801999999ADDGF100991999999999999999999MA1100501999990REMMET048METAR EDHK 210650Z 15006KT 6000 NSC 18/18 Q1005=
0072100465999992013062107204+54380+010145FM-15+003199999V0201701N003619999999Y999999999+01901+01801999999ADDMA1100501999990REMMET045METAR EDHK 210720Z 17007KT CAVOK 19/18 Q1005=
0162100465999992013062107504+54380+010145FM-15+003199999V0201601N00361007321CN009999199+02001+01801999999ADDGA1021+006401991GA2041+007321991GA3081+008531991GE19MSL   +99999+99999MA1100601999990REMMET065METAR EDHK 210750Z 16007KT 9999 FEW021 SCT024 OVC028 20/18 Q1006=
0147100465999992013062108204+54380+010145FM-15+003199999V0201401V003110048819N009999199+02001+01901999999ADDGA1041+002441991GA2081+004881991GE19MSL   +99999+99999MA1100501999990REMMET066METAR EDHK 210820Z 14006KT 110V180 9999 SCT008 OVC016 20/19 Q1005=
0153100465999992013062108504+54380+010145FM-15+003199999V0201601N003110024419N009999199+02001+01901999999ADDGA1071+002441991GA2081+015241991GE19MSL   +99999+99999MA1100501999990MW1611REMMET066METAR COR EDHK 210850Z 16006KT 9999 -RA BKN008 OVC050 20/19 Q1005=
0140100465999992013062109204+54380+010145FM-15+003199999V0202101V005710024419N009999199+01901+01801999999ADDGA1081+002441991GE19MSL   +99999+99999MA1100501999990OC101081REMMET067METAR EDHK 210920Z 21011G21KT 170V230 9999 OVC008 19/18 Q1005 RERA=
0175100465999992013062109504+54380+010145FM-15+003199999V0202401V005710021319N009999199+01901+01701999999ADDGA1071+002131991GA2071+004271991GA3081+030481991GE19MSL   +99999+99999MA1100601999990REMMET078METAR EDHK 210950Z 24011KT 200V270 9999 BKN007 BKN014 OVC100 19/17      Q1006=
0175100465999992013062110204+54380+010145FM-15+003199999V0202401V00511013411CN009999199+01801+01701999999ADDGA1021+003661991GA2041+013411991GA3071+030481991GE19MSL   +99999+99999MA1100501999990REMMET078METAR EDHK 211020Z 24010KT 210V270 9999 FEW012 SCT044 BKN100 18/17      Q1005=
0167100465999992013062110504+54380+010145FM-15+003199999V0202101N005110061019N009999199+01901+01701999999ADDGA1041+003051991GA2071+006101991GA3071+024381991GE19MSL   +99999+99999MA1100601999990REMMET070METAR EDHK 211050Z 21010KT 9999 SCT010 BKN020 BKN080 19/17 Q1006 RERA=
0162100465999992013062111204+54380+010145FM-15+003199999V0202101N007210042719N009999199+01901+01601999999ADDGA1041+003661991GA2071+004271991GA3081+006711991GE19MSL   +99999+99999MA1100601999990REMMET065METAR EDHK 211120Z 21014KT 9999 SCT012 BKN014 OVC022 19/16 Q1006=
0150100465999992013062111504+54380+010145FM-15+003199999V0202101N006210067119N009999199+01901+01601999999ADDGA1021+004881991GA2071+006711991GE19MSL   +99999+99999MA1100701999990OC101131REMMET061METAR EDHK 211150Z 21012G22KT 9999 FEW016 BKN022 19/16 Q1007=
0175100465999992013062112204+54380+010145FM-15+003199999V0202201V005110091419N009999199+02001+01601999999ADDGA1021+006401991GA2071+009141991GA3071+012501991GE19MSL   +99999+99999MA1100701999990REMMET078METAR EDHK 211220Z 22010KT 180V250 9999 FEW021 BKN030 BKN041 20/16      Q1007=
0175100465999992013062112504+54380+010145FM-15+003199999V0202001V005710079219N009999199+02001+01501999999ADDGA1021+006401991GA2071+007921991GA3071+010361991GE19MSL   +99999+99999MA1100701999990REMMET078METAR EDHK 211250Z 20011KT 170V240 9999 FEW021 BKN026 BKN034 20/15      Q1007=
0139100465999992013062113204+54380+010145FM-15+003199999V0202001N006710076219N009999199+02101+01501999999ADDGA1041+006101991GA2071+007621991GE19MSL   +99999+99999MA1100601999990REMMET058METAR EDHK 211320Z 20013KT 9999 SCT020 BKN025 21/15 Q1006=
0147100465999992013062113504+54380+010145FM-15+003199999V0202101V006710179819N009999199+02001+01501999999ADDGA1041+007321991GA2071+017981991GE19MSL   +99999+99999MA1100601999990REMMET066METAR EDHK 211350Z 21013KT 170V240 9999 SCT024 BKN059 20/15 Q1006=
0165100465999992013062114204+54380+010145FM-15+003199999V0202101V006710091419N009999199+02001+01501999999ADDGA1041+007321081GA2071+009141991GE19MSL   +99999+99999MA1100601999990MW1611REMMET078METAR EDHK 211420Z 21013KT 170V250 9999 -RA SCT024TCU BKN030 20/15      Q1006=
0161100465999992013062114504+54380+010145FM-15+003199999V0202201V009310106719N009999199+02001+01401999999ADDGA1041+007011991GA2071+010671081GE19MSL   +99999+99999MA1100701999990OC101541REMMET072METAR EDHK 211450Z 22018G30KT 190V250 9999 SCT023 BKN035TCU 20/14 Q1007=
0165100465999992013062115204+54380+010145FM-15+003199999V0202301N007710103619N009999199+01901+01401999999ADDGA1041+007011991GA2071+010361081GA3071+017681991GE19MSL   +99999+99999MA1100701999990REMMET068METAR EDHK 211520Z 23015KT 9999 SCT023 BKN034TCU BKN058 19/14 Q1007=
0147100465999992013062115504+54380+010145FM-15+003199999V0202301V006710091419N009999199+01801+01501999999ADDGA1041+007011991GA2071+009141991GE19MSL   +99999+99999MA1100701999990REMMET066METAR EDHK 211550Z 23013KT 170V260 9999 SCT023 BKN030 18/15 Q1007=
0139100465999992013062206204+54380+010145FM-15+003199999V0202101N005710054919N009999199+01601+01301999999ADDGA1021+002131991GA2071+005491991GE19MSL   +99999+99999MA1101101999990REMMET058METAR EDHK 220620Z 21011KT 9999 FEW007 BKN018 16/13 Q1011=
0147100465999992013062206504+54380+010145FM-15+003199999V0202201V005710073219N009999199+01701+01301999999ADDGA1021+004271991GA2071+007321991GE19MSL   +99999+99999MA1101101999990REMMET066METAR EDHK 220650Z 22011KT 170V250 9999 FEW014 BKN024 17/13 Q1011=
0139100465999992013062207204+54380+010145FM-15+003199999V0202301N006210051819N009999199+01601+01301999999ADDGA1071+005181991GA2081+009141991GE19MSL   +99999+99999MA1101101999990REMMET058METAR EDHK 220720Z 23012KT 9999 BKN017 OVC030 16/13 Q1011=
0139100465999992013062207504+54380+010145FM-15+003199999V0202101N003110091419N009999199+01601+01301999999ADDGA1041+005181991GA2071+009141991GE19MSL   +99999+99999MA1101101999990REMMET058METAR EDHK 220750Z 21006KT 9999 SCT017 BKN030 16/13 Q1011=
0147100465999992013062208204+54380+010145FM-15+003199999V0202101V005110088419N009999199+01701+01301999999ADDGA1021+004881991GA2071+008841991GE19MSL   +99999+99999MA1101101999990REMMET066METAR EDHK 220820Z 21010KT 190V250 9999 FEW016 BKN029 17/13 Q1011=
0139100465999992013062208504+54380+010145FM-15+003199999V0202201N005110118919N009999199+01701+01301999999ADDGA1041+005791991GA2071+011891991GE19MSL   +99999+99999MA1101101999990REMMET058METAR EDHK 220850Z 22010KT 9999 SCT019 BKN039 17/13 Q1011=
0147100465999992013062209204+54380+010145FM-15+003199999V0202101V006710115819N009999199+01701+01301999999ADDGA1041+005181991GA2081+011581991GE19MSL   +99999+99999MA1101101999990REMMET066METAR EDHK 220920Z 21013KT 190V250 9999 SCT017 OVC038 17/13 Q1011=
0175100465999992013062209504+54380+010145FM-15+003199999V0202201V005710088419N009999199+01701+01301999999ADDGA1021+005181991GA2071+008841991GA3081+011281991GE19MSL   +99999+99999MA1101101999990REMMET078METAR EDHK 220950Z 22011KT 180V240 9999 FEW017 BKN029 OVC037 17/13      Q1011=
0175100465999992013062210204+54380+010145FM-15+003199999V0202201V006210091419N009999199+01701+01301999999ADDGA1021+006101991GA2071+009141991GA3081+011581991GE19MSL   +99999+99999MA1101101999990REMMET078METAR EDHK 221020Z 22012KT 190V250 9999 FEW020 BKN030 OVC038 17/13      Q1011=
0175100465999992013062210504+54380+010145FM-15+003199999V0202301V00571008531CN009999199+01801+01301999999ADDGA1021+006711991GA2041+008531991GA3071+016151991GE19MSL   +99999+99999MA1101101999990REMMET078METAR EDHK 221050Z 23011KT 190V260 9999 FEW022 SCT028 BKN053 18/13      Q1011=
0147100465999992013062211204+54380+010145FM-15+003199999V0202201V004110067119N009999199+01801+01301999999ADDGA1071+006711991GA2081+009751991GE19MSL   +99999+99999MA1101101999990REMMET066METAR EDHK 221120Z 22008KT 190V250 9999 BKN022 OVC032 18/13 Q1011=
0139100465999992013062211504+54380+010145FM-15+003199999V0202201N00621011581CN009999199+01901+01301999999ADDGA1021+007321991GA2041+011581991GE19MSL   +99999+99999MA1101101999990REMMET058METAR EDHK 221150Z 22012KT 9999 FEW024 SCT038 19/13 Q1011=
0175100465999992013062212204+54380+010145FM-15+003199999V0202201V004610091419N009999199+02001+01301999999ADDGA1041+007921991GA2071+009141991GA3071+020421991GE19MSL   +99999+99999MA1101101999990REMMET078METAR EDHK 221220Z 22009KT 200V270 9999 SCT026 BKN030 BKN067 20/13      Q1011=
0124100465999992013062212504+54380+010145FM-15+003199999V0202201V005119999999N009999199+02001+01201999999ADDGA1021+009751991GE19MSL   +99999+99999MA1101001999990REMMET059METAR EDHK 221250Z 22010KT 190V260 9999 FEW032 20/12 Q1010=
0124100465999992013062213204+54380+010145FM-15+003199999V0202401V006719999999N009999199+02001+01201999999ADDGA1041+014631991GE19MSL   +99999+99999MA1101001999990REMMET059METAR EDHK 221320Z 24013KT 200V260 9999 SCT048 20/12 Q1010=
0124100465999992013062213504+54380+010145FM-15+003199999V0202301V005719999999N009999199+02201+01301999999ADDGA1041+013721991GE19MSL   +99999+99999MA1101001999990REMMET059METAR EDHK 221350Z 23011KT 170V270 9999 SCT045 22/13 Q1010=
0124100465999992013062214204+54380+010145FM-15+003199999V0202201V006210115819N009999199+02001+01201999999ADDGA1071+011581991GE19MSL   +99999+99999MA1101001999990REMMET059METAR EDHK 221420Z 22012KT 180V250 9999 BKN038 20/12 Q1010=
0147100465999992013062214504+54380+010145FM-15+003199999V0202101V00621014631CN009999199+02001+01201999999ADDGA1021+011891991GA2041+014631991GE19MSL   +99999+99999MA1101001999990REMMET066METAR EDHK 221450Z 21012KT 190V250 9999 FEW039 SCT048 20/12 Q1010=
0175100465999992013062215204+54380+010145FM-15+003199999V0202001V005110219519N009999199+02101+01301999999ADDGA1021+011581991GA2071+021951991GA3071+054861991GE19MSL   +99999+99999MA1100901999990REMMET078METAR EDHK 221520Z 20010KT 140V230 9999 FEW038 BKN072 BKN180 21/13      Q1009=
0175100465999992013062215504+54380+010145FM-15+003199999V0202001V005110204219N009999199+02001+01301999999ADDGA1021+011281991GA2071+020421991GA3071+030481991GE19MSL   +99999+99999MA1100901999990REMMET078METAR EDHK 221550Z 20010KT 160V220 9999 FEW037 BKN067 BKN100 20/13      Q1009=
0076100465999992013062216204+54380+010145FM-15+003199999V0202001N005119999999Y999999999+02001+01301999999ADDMA1100901999990REMMET049METAR COR EDHK 221620Z 20010KT CAVOK 20/13 Q1009=
0080100465999992013062216504+54380+010145FM-15+003199999V0201901V003619999999Y999999999+02101+01401999999ADDMA1100801999990REMMET053METAR EDHK 221650Z 19007KT 160V220 CAVOK 21/14 Q1008=
0080100465999992013062217204+54380+010145FM-15+003199999V0201901V004119999999Y999999999+02101+01301999999ADDMA1100801999990REMMET053METAR EDHK 221720Z 19008KT 130V240 CAVOK 21/13 Q1008=
0072100465999992013062217504+54380+010145FM-15+003199999V0201901N004619999999Y999999999+02101+01301999999ADDMA1100801999990REMMET045METAR EDHK 221750Z 19009KT CAVOK 21/13 Q1008=
0157100465999992013062305204+54380+010145FM-15+003199999V0202101V003110048819N009999199+01501+01401999999ADDGA1041+002741991GA2071+004881991GE19MSL   +99999+99999MA1100701999990MW1611REMMET070METAR EDHK 230520Z 21006KT 180V250 9999 -RA SCT009 BKN016 15/14 Q1007=
0185100465999992013062305504+54380+010145FM-15+003199999V0202301V004610048819N008000199+01401+01301999999ADDGA1041+002741991GA2071+004881991GA3081+007321991GE19MSL   +99999+99999MA1100701999990MW1611REMMET082METAR EDHK 230550Z 23009KT 200V260 8000 -RA SCT009 BKN016 OVC024 14/13      Q1007=
0183100465999992013062306204+54380+010145FM-15+003199999V0202201N004610094519N009999199+01401+01201999999ADDGA1021+003351991GA2071+009451991GA3081+011891991GE19MSL   +99999+99999MA1100701999990MW1611REMMET080METAR EDHK 230620Z 22009KT 9999 4600S -RA FEW011 BKN031 OVC039 14/12      Q1007=
0139100465999992013062306504+54380+010145FM-15+003199999V0202101N004610061019N009999199+01301+01201999999ADDGA1041+003351991GA2081+006101991GE19MSL   +99999+99999MA1100701999990REMMET058METAR EDHK 230650Z 21009KT 9999 SCT011 OVC020 13/12 Q1007=
0139100465999992013062307204+54380+010145FM-15+003199999V0202001N003610097519N009999199+01401+01301999999ADDGA1041+007011991GA2071+009751991GE19MSL   +99999+99999MA1100701999990REMMET058METAR EDHK 230720Z 20007KT 9999 SCT023 BKN032 14/13 Q1007=
0147100465999992013062307504+54380+010145FM-15+003199999V0202001V004610079219N009999199+01501+01301999999ADDGA1021+004571991GA2071+007921991GE19MSL   +99999+99999MA1100701999990REMMET066METAR EDHK 230750Z 20009KT 150V230 9999 FEW015 BKN026 15/13 Q1007=
0147100465999992013062308204+54380+010145FM-15+003199999V0202101V00571007921CN009999199+01601+01201999999ADDGA1021+004571991GA2041+007921991GE19MSL   +99999+99999MA1100701999990REMMET066METAR EDHK 230820Z 21011KT 150V250 9999 FEW015 SCT026 16/12 Q1007=
0158100465999992013062308504+54380+010145FM-15+003199999V0202101V005710158519N009999199+01601+01101999999ADDGA1021+006101991GA2071+015851991GE19MSL   +99999+99999MA1100801999990OC101081REMMET069METAR EDHK 230850Z 21011G21KT 170V250 9999 FEW020 BKN052 16/11 Q1008=
0175100465999992013062309204+54380+010145FM-15+003199999V0202101V006210070119N009999199+01601+01201999999ADDGA1021+004571991GA2071+007011991GA3071+014941991GE19MSL   +99999+99999MA1100801999990REMMET078METAR EDHK 230920Z 21012KT 160V240 9999 FEW015 BKN023 BKN049 16/12      Q1008=
0147100465999992013062309504+54380+010145FM-15+003199999V0202201V004610143319N009999199+01701+01101999999ADDGA1041+007621991GA2071+014331991GE19MSL   +99999+99999MA1100801999990REMMET066METAR EDHK 230950Z 22009KT 190V260 9999 SCT025 BKN047 17/11 Q1008=
0162100465999992013062310204+54380+010145FM-15+003199999V0202101N00571014941CN009999199+01601+01001999999ADDGA1021+007621991GA2041+014941991GA3081+017981991GE19MSL   +99999+99999MA1100801999990REMMET065METAR EDHK 231020Z 21011KT 9999 FEW025 SCT049 OVC059 16/10 Q1008=
0147100465999992013062310504+54380+010145FM-15+003199999V0202001V005110179819N009999199+01701+01001999999ADDGA1041+007921991GA2071+017981991GE19MSL   +99999+99999MA1100801999990REMMET066METAR EDHK 231050Z 20010KT 160V250 9999 SCT026 BKN059 17/10 Q1008=
0127100465999992013062311204+54380+010145FM-15+003199999V0202101N004610091419N009999199+01701+01101999999ADDGA1071+009141991GE19MSL   +99999+99999MA1100801999990OC100981REMMET054METAR EDHK 231120Z 21009G19KT 9999 BKN030 17/11 Q1008=
0135100465999992013062311504+54380+010145FM-15+003199999V0202001V005710106719N009999199+01701+01101999999ADDGA1071+010671991GE19MSL   +99999+99999MA1100801999990MW1161REMMET064METAR EDHK 231150Z 20011KT 170V230 9999 VCSH BKN035 17/11 Q1008=
0174100465999992013062312204+54380+010145FM-15+003199999V0201901V006710173719N009999199+01501+01201999999ADDGA1041+007921991GA2071+017371991GE19MSL   +99999+99999MA1100801999990MW1161OC101341REMMET079METAR EDHK 231220Z 19013G26KT 160V220 9999 VCSH SCT026 BKN057 15/12      Q1008=
0124100465999992013062312504+54380+010145FM-15+003199999V0202001V004110106719N009999199+01701+01401999999ADDGA1071+010671991GE19MSL   +99999+99999MA1100801999990REMMET059METAR EDHK 231250Z 20008KT 170V230 9999 BKN035 17/14 Q1008=
0127100465999992013062313204+54380+010145FM-15+003199999V0202001V004610106719N009999199+01801+01301999999ADDGA1071+010671991GE19MSL   +99999+99999MA1100801999990REMMET062METAR EDHK 231320Z 20009KT 170V240 9999 // BKN035 18/13 Q1008=
0127100465999992013062313504+54380+010145FM-15+003199999V0202201V005710106719N009999199+01901+01201999999ADDGA1071+010671991GE19MSL   +99999+99999MA1100801999990REMMET062METAR EDHK 231350Z 22011KT 180V250 9999 // BKN035 19/12 Q1008=
0147100465999992013062314504+54380+010145FM-15+003199999V0202201V006710121919N009999199+01801+01001999999ADDGA1041+010671991GA2071+012191991GE19MSL   +99999+99999MA1100901999990REMMET066METAR EDHK 231450Z 22013KT 190V260 9999 SCT035 BKN040 18/10 Q1009=
0147100465999992013062315204+54380+010145FM-15+003199999V0202301V00511027431CN009999199+01901+01101999999ADDGA1041+010671991GA2041+027431991GE19MSL   +99999+99999MA1100901999990REMMET066METAR EDHK 231520Z 23010KT 190V260 9999 SCT035 SCT090 19/11 Q1009=
0124100465999992013062315504+54380+010145FM-15+003199999V0202301V005719999999N009999199+01801+01101999999ADDGA1041+010671991GE19MSL   +99999+99999MA1100901999990REMMET059METAR EDHK 231550Z 23011KT 200V260 9999 SCT035 18/11 Q1009=
0151100465999992013062316204+54380+010145FM-15+003199999V0202801N007210091419N009999199+01501+01101999999ADDGA1071+009141991GA2041+012191991GE19MSL   +99999+99999MA1100901999990MW1801REMMET064METAR EDHK 231620Z 28014KT 9999 -SHRA BKN030 SCT040 15/11 Q1009=
0072100465999992013062316504+54380+010145FM-15+003199999V0202601N002619999999Y999999999+01601+01301999999ADDMA1100901999990REMMET045METAR EDHK 231650Z 26005KT CAVOK 16/13 Q1009=
0124100465999992013062317204+54380+010145FM-15+003199999V0202401V002119999999N009999199+01601+01301999999ADDGA1021+010671991GE19MSL   +99999+99999MA1100901999990REMMET059METAR EDHK 231720Z 24004KT 200V270 9999 FEW035 16/13 Q1009=
0124100465999992013062317504+54380+010145FM-15+003199999V0202201V003619999999N009999199+01601+01201999999ADDGA1021+009141991GE19MSL   +99999+99999MA1100901999990REMMET059METAR EDHK 231750Z 22007KT 170V250 9999 FEW030 16/12 Q1009=
0147100465999992013062406204+54380+010145FM-15+003199999V0202201V005710061019N009999199+01501+01201999999ADDGA1041+004571991GA2071+006101991GE19MSL   +99999+99999MA1101301999990REMMET066METAR EDHK 240620Z 22011KT 180V240 9999 SCT015 BKN020 15/12 Q1013=
0147100465999992013062406504+54380+010145FM-15+003199999V0202201V005710048819N009999199+01501+01201999999ADDGA1071+004881991GA2071+006101991GE19MSL   +99999+99999MA1101301999990REMMET066METAR EDHK 240650Z 22011KT 190V250 9999 BKN016 BKN020 15/12 Q1013=
0147100465999992013062407204+54380+010145FM-15+003199999V0202101V005710064019N009999199+01601+01201999999ADDGA1021+004271991GA2071+006401991GE19MSL   +99999+99999MA1101301999990REMMET066METAR EDHK 240720Z 21011KT 180V240 9999 FEW014 BKN021 16/12 Q1013=
0139100465999992013062407504+54380+010145FM-15+003199999V0202201N006210051819N009999199+01601+01201999999ADDGA1041+004571991GA2071+005181991GE19MSL   +99999+99999MA1101301999990REMMET058METAR EDHK 240750Z 22012KT 9999 SCT015 BKN017 16/12 Q1013=
0139100465999992013062408204+54380+010145FM-15+003199999V0202301N005710073219N009999199+01601+01201999999ADDGA1041+005181991GA2071+007321991GE19MSL   +99999+99999MA1101401999990REMMET058METAR EDHK 240820Z 23011KT 9999 SCT017 BKN024 16/12 Q1014=
0149100465999992013062408504+54380+010145FM-15+003199999V0202801N005710061019N009999199+01401+01101999999ADDGA1021+002441991GA2081+006101991GE19MSL   +99999+99999MA1101401999990MW1611REMMET062METAR EDHK 240850Z 28011KT 9999 -RA FEW008 OVC020 14/11 Q1014=
0139100465999992013062409204+54380+010145FM-15+003199999V0202501N004110109719N009999199+01301+01201999999ADDGA1041+007011991GA2071+010971991GE19MSL   +99999+99999MA1101501999990REMMET058METAR EDHK 240920Z 25008KT 9999 SCT023 BKN036 13/12 Q1015=
0147100465999992013062409504+54380+010145FM-15+003199999V0202401V004110085319N009999199+01501+01301999999ADDGA1021+003351991GA2071+008531991GE19MSL   +99999+99999MA1101501999990REMMET066METAR EDHK 240950Z 24008KT 210V270 9999 FEW011 BKN028 15/13 Q1015=
0139100465999992013062410204+54380+010145FM-15+003199999V0202501N004610228619N009999199+01501+01101999999ADDGA1041+004571991GA2081+022861991GE19MSL   +99999+99999MA1101501999990REMMET058METAR EDHK 241020Z 25009KT 9999 SCT015 OVC075 15/11 Q1015=
0147100465999992013062410504+54380+010145FM-15+003199999V0202201V003110076219N009999199+01601+01201999999ADDGA1021+003351991GA2071+007621991GE19MSL   +99999+99999MA1101501999990REMMET066METAR EDHK 241050Z 22006KT 190V260 9999 FEW011 BKN025 16/12 Q1015=
0175100465999992013062411204+54380+010145FM-15+003199999V0202401V005110082319N009999199+01501+01101999999ADDGA1041+005791991GA2071+008231991GA3071+019811991GE19MSL   +99999+99999MA1101601999990REMMET078METAR EDHK 241120Z 24010KT 210V270 9999 SCT019 BKN027 BKN065 15/11      Q1016=
0147100465999992013062411504+54380+010145FM-15+003199999V0202501V004610204219N009999199+01701+01101999999ADDGA1041+012801991GA2071+020421991GE19MSL   +99999+99999MA1101601999990REMMET066METAR EDHK 241150Z 25009KT 220V280 9999 SCT042 BKN067 17/11 Q1016=
0147100465999992013062412504+54380+010145FM-15+003199999V0202201V003110198119N009999199+01501+01301999999ADDGA1041+010671991GA2081+019811991GE19MSL   +99999+99999MA1101601999990REMMET066METAR EDHK 241250Z 22006KT 190V250 9999 SCT035 OVC065 15/13 Q1016=
0119100465999992013062413204+54380+010145FM-15+003199999V0202301N003610106719N009999199+01601+01301999999ADDGA1081+010671991GE19MSL   +99999+99999MA1101601999990REMMET054METAR EDHK 241320Z 23007KT 9999 // OVC035 16/13 Q1016=
0147100465999992013062413504+54380+010145FM-15+003199999V0202501V004110106719N009999199+01701+01301999999ADDGA1041+006101991GA2071+010671991GE19MSL   +99999+99999MA1101601999990REMMET066METAR EDHK 241350Z 25008KT 210V280 9999 SCT020 BKN035 17/13 Q1016=
0142100465999992013062414204+54380+010145FM-15+003199999V0202501N00411012191CN009999199+01701+01301999999ADDGA1041+006101991GA2041+012191991GE19MSL   +99999+99999MA1101701999990REMMET061METAR EDHK 241420Z 25008KT 9999 // SCT020 SCT040 17/13 Q1017=
0124100465999992013062414504+54380+010145FM-15+003199999V0202301V003619999999N009999199+01701+01201999999ADDGA1041+007621991GE19MSL   +99999+99999MA1101701999990REMMET059METAR EDHK 241450Z 23007KT 200V270 9999 SCT025 17/12 Q1017=
0124100465999992013062415204+54380+010145FM-15+003199999V0202401V005119999999N009999199+01701+01101999999ADDGA1041+007621991GE19MSL   +99999+99999MA1101701999990REMMET059METAR EDHK 241520Z 24010KT 220V280 9999 SCT025 17/11 Q1017=
0124100465999992013062415504+54380+010145FM-15+003199999V0202401V006219999999N009999199+01601+01101999999ADDGA1041+010671991GE19MSL   +99999+99999MA1101701999990REMMET059METAR EDHK 241550Z 24012KT 210V270 9999 SCT035 16/11 Q1017=
0139100465999992013062505204+54380+010145FM-15+003199999V0202901N004610128019N009999199+01301+01101999999ADDGA1021+003351991GA2081+012801991GE19MSL   +99999+99999MA1102101999990REMMET058METAR EDHK 250520Z 29009KT 9999 FEW011 OVC042 13/11 Q1021=
0139100465999992013062505504+54380+010145FM-15+003199999V0202901N005710134119N009999199+01301+01101999999ADDGA1021+004271991GA2081+013411991GE19MSL   +99999+99999MA1102101999990REMMET058METAR EDHK 250550Z 29011KT 9999 FEW014 OVC044 13/11 Q1021=
0139100465999992013062506204+54380+010145FM-15+003199999V0203001N005710140219N009999199+01301+01001999999ADDGA1021+003661991GA2081+014021991GE19MSL   +99999+99999MA1102101999990REMMET058METAR EDHK 250620Z 30011KT 9999 FEW012 OVC046 13/10 Q1021=
0139100465999992013062506504+54380+010145FM-15+003199999V0203001N004610149419N009999199+01401+01001999999ADDGA1021+004271991GA2081+014941991GE19MSL   +99999+99999MA1102101999990REMMET058METAR EDHK 250650Z 30009KT 9999 FEW014 OVC049 14/10 Q1021=
0139100465999992013062507204+54380+010145FM-15+003199999V0203001N005110137219N009999199+01401+00901999999ADDGA1021+004271991GA2081+013721991GE19MSL   +99999+99999MA1102201999990REMMET058METAR EDHK 250720Z 30010KT 9999 FEW014 OVC045 14/09 Q1022=
0139100465999992013062507504+54380+010145FM-15+003199999V0203001N004610167619N009999199+01401+00901999999ADDGA1021+006101991GA2081+016761991GE19MSL   +99999+99999MA1102201999990REMMET058METAR EDHK 250750Z 30009KT 9999 FEW020 OVC055 14/09 Q1022=
0139100465999992013062508204+54380+010145FM-15+003199999V0202901N005110167619N009999199+01401+00901999999ADDGA1021+007011991GA2081+016761991GE19MSL   +99999+99999MA1102201999990REMMET058METAR EDHK 250820Z 29010KT 9999 FEW023 OVC055 14/09 Q1022=
0139100465999992013062508504+54380+010145FM-15+003199999V0202901N005710161519N009999199+01401+00901999999ADDGA1021+006401991GA2081+016151991GE19MSL   +99999+99999MA1102201999990REMMET058METAR EDHK 250850Z 29011KT 9999 FEW021 OVC053 14/09 Q1022=
0139100465999992013062509204+54380+010145FM-15+003199999V0202901N005110170719N009999199+01501+01001999999ADDGA1041+014021991GA2081+017071991GE19MSL   +99999+99999MA1102201999990REMMET058METAR EDHK 250920Z 29010KT 9999 SCT046 OVC056 15/10 Q1022=
0139100465999992013062509504+54380+010145FM-15+003199999V0202901N005710164619N009999199+01501+01101999999ADDGA1021+006711991GA2081+016461991GE19MSL   +99999+99999MA1102101999990REMMET058METAR EDHK 250950Z 29011KT 9999 FEW022 OVC054 15/11 Q1021=
0139100465999992013062510204+54380+010145FM-15+003199999V0202901N005110167619N009999199+01501+01001999999ADDGA1041+007011991GA2081+016761991GE19MSL   +99999+99999MA1102201999990REMMET058METAR EDHK 251020Z 29010KT 9999 SCT023 OVC055 15/10 Q1022=
0162100465999992013062510504+54380+010145FM-15+003199999V0203101N00511009141CN009999199+01501+01001999999ADDGA1041+006711991GA2041+009141991GA3081+014631991GE19MSL   +99999+99999MA1102101999990REMMET065METAR EDHK 251050Z 31010KT 9999 SCT022 SCT030 OVC048 15/10 Q1021=
0162100465999992013062511204+54380+010145FM-15+003199999V0203101N004610100619N009999199+01401+01001999999ADDGA1021+007011991GA2071+010061991GA3081+014021991GE19MSL   +99999+99999MA1102201999990REMMET065METAR EDHK 251120Z 31009KT 9999 FEW023 BKN033 OVC046 14/10 Q1022=
0116100465999992013062511504+54380+010145FM-15+003199999V0203001N003110061019N009999199+01501+01101999999ADDGA1081+006101991GE19MSL   +99999+99999MA1102101999990REMMET051METAR EDHK 251150Z 30006KT 9999 OVC020 15/11 Q1021=
0116100465999992013062512204+54380+010145FM-15+003199999V0202901N003110137219N009999199+01401+01201999999ADDGA1081+013721991GE19MSL   +99999+99999MA1102101999990REMMET051METAR EDHK 251220Z 29006KT 9999 OVC045 14/12 Q1021=
0116100465999992013062512504+54380+010145FM-15+003199999V0203001N005710137219N009999199+01501+01201999999ADDGA1081+013721991GE19MSL   +99999+99999MA1102101999990REMMET051METAR EDHK 251250Z 30011KT 9999 OVC045 15/12 Q1021=
0139100465999992013062513504+54380+010145FM-15+003199999V0203001N004110198119N009999199+01501+01201999999ADDGA1041+006101991GA2081+019811991GE19MSL   +99999+99999MA1102101999990REMMET058METAR EDHK 251350Z 30008KT 9999 SCT020 OVC065 15/12 Q1021=
0139100465999992013062514204+54380+010145FM-15+003199999V0203001N005110152419N009999199+01501+01101999999ADDGA1041+010671991GA2081+015241991GE19MSL   +99999+99999MA1102101999990REMMET058METAR EDHK 251420Z 30010KT 9999 SCT035 OVC050 15/11 Q1021=
0147100465999992013062514504+54380+010145FM-15+003199999V0203001V004610176819N009999199+01601+01101999999ADDGA1021+009751991GA2081+017681991GE19MSL   +99999+99999MA1102101999990REMMET066METAR EDHK 251450Z 30009KT 280V340 9999 FEW032 OVC058 16/11 Q1021=
0072100465999992013062515504+54380+010145FM-15+003199999V0203001N006219999999Y999999999+01501+01101999999ADDMA1102101999990REMMET045METAR EDHK 251550Z 30012KT CAVOK 15/11 Q1021=
0116100465999992013062605204+54380+010145FM-15+003199999V0203001N006710140219N009999199+01201+00701999999ADDGA1071+014021991GE19MSL   +99999+99999MA1102101999990REMMET051METAR EDHK 260520Z 30013KT 9999 BKN046 12/07 Q1021=
0116100465999992013062605504+54380+010145FM-15+003199999V0202901N007210137219N009999199+01201+00801999999ADDGA1071+013721991GE19MSL   +99999+99999MA1102101999990REMMET051METAR EDHK 260550Z 29014KT 9999 BKN045 12/08 Q1021=
0139100465999992013062606204+54380+010145FM-15+003199999V0202901N007710146319N009999199+01201+00801999999ADDGA1021+006711991GA2081+014631991GE19MSL   +99999+99999MA1102101999990REMMET058METAR EDHK 260620Z 29015KT 9999 FEW022 OVC048 12/08 Q1021=
0162100465999992013062606504+54380+010145FM-15+003199999V0202901N007210064019N009999199+01201+00801999999ADDGA1071+006401991GA2071+008231991GA3071+014941991GE19MSL   +99999+99999MA1102101999990REMMET065METAR EDHK 260650Z 29014KT 9999 BKN021 BKN027 BKN049 12/08 Q1021=
0116100465999992013062607204+54380+010145FM-15+003199999V0202801N007210064019N009999199+01301+00901999999ADDGA1071+006401991GE19MSL   +99999+99999MA1102101999990REMMET051METAR EDHK 260720Z 28014KT 9999 BKN021 13/09 Q1021=
0162100465999992013062607504+54380+010145FM-15+003199999V0202801N00571011581CN009999199+01201+00901999999ADDGA1021+005791991GA2041+011581991GA3081+014631991GE19MSL   +99999+99999MA1102101999990REMMET065METAR EDHK 260750Z 28011KT 9999 FEW019 SCT038 OVC048 12/09 Q1021=
0162100465999992013062608204+54380+010145FM-15+003199999V0202901N00671012191CN009999199+01301+00901999999ADDGA1021+005791991GA2041+012191991GA3081+015851991GE19MSL   +99999+99999MA1102101999990REMMET065METAR EDHK 260820Z 29013KT 9999 FEW019 SCT040 OVC052 13/09 Q1021=
0162100465999992013062608504+54380+010145FM-15+003199999V0202901N006210131119N009999199+01301+01001999999ADDGA1041+005791991GA2071+013111991GA3081+015241991GE19MSL   +99999+99999MA1102101999990REMMET065METAR EDHK 260850Z 29012KT 9999 SCT019 BKN043 OVC050 13/10 Q1021=
0139100465999992013062609204+54380+010145FM-15+003199999V0202901N006210085319N009999199+01301+00901999999ADDGA1021+007011991GA2081+008531991GE19MSL   +99999+99999MA1102001999990REMMET058METAR EDHK 260920Z 29012KT 9999 FEW023 OVC028 13/09 Q1020=
0139100465999992013062609504+54380+010145FM-15+003199999V0202801N007210152419N009999199+01301+00801999999ADDGA1041+007011991GA2081+015241991GE19MSL   +99999+99999MA1102001999990REMMET058METAR EDHK 260950Z 28014KT 9999 SCT023 OVC050 13/08 Q1020=
0162100465999992013062610204+54380+010145FM-15+003199999V0202801N007210103619N009999199+01301+00901999999ADDGA1041+007621991GA2071+010361991GA3081+015241991GE19MSL   +99999+99999MA1102001999990REMMET065METAR EDHK 261020Z 28014KT 9999 SCT025 BKN034 OVC050 13/09 Q1020=
0162100465999992013062610504+54380+010145FM-15+003199999V0202801N00881008531CN009999199+01301+00901999999ADDGA1021+007321991GA2041+008531991GA3081+013111991GE19MSL   +99999+99999MA1102001999990REMMET065METAR EDHK 261050Z 28017KT 9999 FEW024 SCT028 OVC043 13/09 Q1020=
0139100465999992013062611504+54380+010145FM-15+003199999V0202801N009310182919N009999199+01401+00901999999ADDGA1041+006711991GA2071+018291991GE19MSL   +99999+99999MA1102001999990REMMET058METAR EDHK 261150Z 28018KT 9999 SCT022 BKN060 14/09 Q1020=
0139100465999992013062612204+54380+010145FM-15+003199999V0202801N008810161519N009999199+01501+00901999999ADDGA1041+006711991GA2081+016151991GE19MSL   +99999+99999MA1102001999990REMMET058METAR EDHK 261220Z 28017KT 9999 SCT022 OVC053 15/09 Q1020=
0150100465999992013062612504+54380+010145FM-15+003199999V0202801N009310167619N009999199+01401+00801999999ADDGA1041+008531991GA2071+016761991GE19MSL   +99999+99999MA1102001999990OC101601REMMET061METAR EDHK 261250Z 28018G31KT 9999 SCT028 BKN055 14/08 Q1020=
0139100465999992013062613204+54380+010145FM-15+003199999V0202801N009810167619N009999199+01401+00801999999ADDGA1041+010061991GA2071+016761991GE19MSL   +99999+99999MA1102001999990REMMET058METAR EDHK 261320Z 28019KT 9999 SCT033 BKN055 14/08 Q1020=
0172100465999992013062613504+54380+010145FM-15+003199999V0202901N007710109719N009999199+01401+00801999999ADDGA1021+009451991GA2071+010971991GA3081+016151991GE19MSL   +99999+99999MA1102001999990MW1611REMMET069METAR EDHK 261350Z 29015KT 9999 -RA FEW031 BKN036 OVC053 14/08 Q1020=
0139100465999992013062614204+54380+010145FM-15+003199999V0202801N008810170719N009999199+01401+00801999999ADDGA1041+009451991GA2071+017071991GE19MSL   +99999+99999MA1102001999990REMMET058METAR EDHK 261420Z 28017KT 9999 SCT031 BKN056 14/08 Q1020=
0162100465999992013062614504+54380+010145FM-15+003199999V0202801N00931009141CN009999199+01301+00801999999ADDGA1021+007921991GA2041+009141991GA3071+016761991GE19MSL   +99999+99999MA1102001999990REMMET065METAR EDHK 261450Z 28018KT 9999 FEW026 SCT030 BKN055 13/08 Q1020=
0150100465999992013062615204+54380+010145FM-15+003199999V0202701N008810103619N009999199+01401+00801999999ADDGA1041+007011991GA2071+010361991GE19MSL   +99999+99999MA1102001999990OC101391REMMET061METAR EDHK 261520Z 27017G27KT 9999 SCT023 BKN034 14/08 Q1020=
0147100465999992013062615504+54380+010145FM-15+003199999V0202801V008810076219N009999199+01401+00801999999ADDGA1071+007621991GA2071+017981991GE19MSL   +99999+99999MA1102001999990REMMET066METAR EDHK 261550Z 28017KT 250V310 9999 BKN025 BKN059 14/08 Q1020=
0162100465999992013062705204+54380+010145FM-15+003199999V0202301N004610112819N009999199+01101+00901999999ADDGA1021+009451991GA2071+011281991GA3081+016151991GE19MSL   +99999+99999MA1101801999990REMMET065METAR EDHK 270520Z 23009KT 9999 FEW031 BKN037 OVC053 11/09 Q1018=
0162100465999992013062705504+54380+010145FM-15+003199999V0202301N005110073219N009999199+01101+00901999999ADDGA1021+004571991GA2071+007321991GA3081+009451991GE19MSL   +99999+99999MA1101701999990REMMET065METAR EDHK 270550Z 23010KT 9999 FEW015 BKN024 OVC031 11/09 Q1017=
0172100465999992013062706204+54380+010145FM-15+003199999V0202401N005710048819N009999199+01101+00901999999ADDGA1021+003961991GA2071+004881991GA3071+007011991GE19MSL   +99999+99999MA1101701999990MW1611REMMET069METAR EDHK 270620Z 24011KT 9999 -RA FEW013 BKN016 BKN023 11/09 Q1017=
0167100465999992013062706504+54380+010145FM-15+003199999V0202301N006210057919N009999199+01201+01001999999ADDGA1041+003051991GA2071+005791991GA3071+008231991GE19MSL   +99999+99999MA1101701999990REMMET070METAR EDHK 270650Z 23012KT 9999 SCT010 BKN019 BKN027 12/10 Q1017 RERA=
0107100465999992013062707204+54380+010145FM-15+003199999V0202301N005119999999N005000199+01201+01001999999ADDMA1101801999990MW1105MW2615REMMET068METAR COR EDHK 270720Z 23010KT 5000 -RABR BKN009 OVC016 12/10 Q1018=
0161100465999992013062707504+54380+010145FM-15+003199999V0202301N005110018319N004700199+01101+01001999999ADDGA1071+001831991GA2081+003961991GE19MSL   +99999+99999MA1101801999990MW1101MW2631REMMET068METAR COR EDHK 270750Z 23010KT 4700 RA BR BKN006 OVC013 11/10 Q1018=
0121100465999992013062708204+54380+010145FM-15+003199999V0202301N004610021319N009999199+01201+01001999999ADDGA1081+002131991GE19MSL   +99999+99999MA1101801999990REMMET056METAR EDHK 270820Z 23009KT 9999 OVC007 12/10 Q1018 RERA=
0184100465999992013062708504+54380+010145FM-15+003199999V0202301V004610018319N004700199+01201+01101999999ADDGA1071+001831991GA2071+003351991GA3081+004571991GE19MSL   +99999+99999MA1101801999990MW1101REMMET081METAR EDHK 270850Z 23009KT 190V250 4700 BR BKN006 BKN011 OVC015 12/11      Q1018=
0147100465999992013062709204+54380+010145FM-15+003199999V0202301V004610057919N009999199+01401+01201999999ADDGA1021+002131991GA2071+005791991GE19MSL   +99999+99999MA1101801999990REMMET066METAR EDHK 270920Z 23009KT 200V260 9999 FEW007 BKN019 14/12 Q1018=
0162100465999992013062709504+54380+010145FM-15+003199999V0202501N006210134119N009999199+01301+01001999999ADDGA1041+003051991GA2071+013411991GA3071+025301991GE19MSL   +99999+99999MA1101801999990REMMET065METAR EDHK 270950Z 25012KT 9999 SCT010 BKN044 BKN083 13/10 Q1018=
0157100465999992013062710204+54380+010145FM-15+003199999V0202401V005710118919N009999199+01401+01101999999ADDGA1041+003961991GA2081+011891991GE19MSL   +99999+99999MA1101801999990MW1611REMMET070METAR EDHK 271020Z 24011KT 210V270 9999 -RA SCT013 OVC039 14/11 Q1018=
0167100465999992013062710504+54380+010145FM-15+003199999V0202501N006710042719N009999199+01301+01001999999ADDGA1021+003351991GA2071+004271991GA3081+014331991GE19MSL   +99999+99999MA1101801999990REMMET070METAR EDHK 271050Z 25013KT 9999 FEW011 BKN014 OVC047 13/10 Q1018 RERA=
0162100465999992013062711204+54380+010145FM-15+003199999V0202501N006210143319N009999199+01301+01001999999ADDGA1041+003661991GA2071+014331991GA3081+017981991GE19MSL   +99999+99999MA1101801999990REMMET065METAR EDHK 271120Z 25012KT 9999 SCT012 BKN047 OVC059 13/10 Q1018=
0185100465999992013062711504+54380+010145FM-15+003199999V0202401V005710039619N009999199+01201+01001999999ADDGA1021+003351991GA2071+003961991GA3081+013111991GE19MSL   +99999+99999MA1101901999990MW1611REMMET082METAR EDHK 271150Z 24011KT 210V280 9999 -RA FEW011 BKN013 OVC043 12/10      Q1019=
0172100465999992013062712204+54380+010145FM-15+003199999V0202301N00511014331CN009999199+01201+01001999999ADDGA1021+003351991GA2041+014331991GA3081+016761991GE19MSL   +99999+99999MA1101901999990MW1611REMMET069METAR EDHK 271220Z 23010KT 9999 -RA FEW011 SCT047 OVC055 12/10 Q1019=
0168100465999992013062712504+54380+010145FM-15+003199999V0202301V005110079219N009999199+01201+01001999999ADDGA1021+002441991GA2081+007921991GE19MSL   +99999+99999MA1101901999990MW1611REMMET081METAR EDHK 271250Z 23010KT 200V260 9999 4700W -RA FEW008 OVC026 12/10      Q1019=
0157100465999992013062713204+54380+010145FM-15+003199999V0202301V005110076219N009999199+01201+01001999999ADDGA1041+003051991GA2081+007621991GE19MSL   +99999+99999MA1101901999990MW1611REMMET070METAR EDHK 271320Z 23010KT 190V250 9999 -RA SCT010 OVC025 12/10 Q1019=
0149100465999992013062713504+54380+010145FM-15+003199999V0202201N005710030519N009999199+01201+01001999999ADDGA1071+003051991GA2081+006101991GE19MSL   +99999+99999MA1101901999990MW1611REMMET062METAR EDHK 271350Z 22011KT 9999 -RA BKN010 OVC020 12/10 Q1019=
0172100465999992013062714204+54380+010145FM-15+003199999V0202301N004610076219N009999199+01201+01001999999ADDGA1021+002741991GA2071+007621991GA3081+013411991GE19MSL   +99999+99999MA1101901999990MW1611REMMET069METAR EDHK 271420Z 23009KT 9999 -RA FEW009 BKN025 OVC044 12/10 Q1019=
0172100465999992013062714504+54380+010145FM-15+003199999V0202301N005710134119N009999199+01201+01001999999ADDGA1041+003351991GA2071+013411991GA3081+016461991GE19MSL   +99999+99999MA1101901999990MW1611REMMET069METAR EDHK 271450Z 23011KT 9999 -RA SCT011 BKN044 OVC054 12/10 Q1019=
0149100465999992013062715204+54380+010145FM-15+003199999V0202301N004110036619N009999199+01201+01001999999ADDGA1071+003661991GA2081+014021991GE19MSL   +99999+99999MA1101901999990MW1611REMMET062METAR EDHK 271520Z 23008KT 9999 -RA BKN012 OVC046 12/10 Q1019=
0174100465999992013062715504+54380+010145FM-15+003199999V0202501N005110125019N009999199+01101+01001999999ADDGA1021+002441991GA2071+012501991GA3081+019811991GE19MSL   +99999+99999MA1101901999990MW1581REMMET071METAR EDHK 271550Z 25010KT 9999 -RADZ FEW008 BKN041 OVC065 11/10 Q1019=
0129100465999992013062805204+54380+010145FM-15+003199999V0201701V003610121919N009999199+01001+00901999999ADDGA1071+012191991GE19MSL   +99999+99999MA1101701999990REMMET064METAR EDHK 280520Z 17007KT 140V200 9999 BKN040 10/09 Q1017 RERA=
0157100465999992013062806204+54380+010145FM-15+003199999V0201801V004110182919N009999199+01101+00801999999ADDGA1021+006401991GA2071+018291991GE19MSL   +99999+99999MA1101701999990MW1611REMMET070METAR EDHK 280620Z 18008KT 150V210 9999 -RA FEW021 BKN060 11/08 Q1017=
0157100465999992013062806504+54380+010145FM-15+003199999V0201801V004110137219N009999199+01101+00901999999ADDGA1021+006711991GA2071+013721991GE19MSL   +99999+99999MA1101701999990MW1611REMMET070METAR EDHK 280650Z 18008KT 150V210 9999 -RA FEW022 BKN045 11/09 Q1017=
0152100465999992013062807204+54380+010145FM-15+003199999V0201801V004610146319N009999199+01101+00901999999ADDGA1041+004271991GA2081+014631991GE19MSL   +99999+99999MA1101701999990REMMET071METAR EDHK 280720Z 18009KT 150V210 9999 SCT014 OVC048 11/09 Q1017 RERA=
0149100465999992013062807504+54380+010145FM-15+003199999V0201801N004610134119N008000199+01001+00901999999ADDGA1021+003351991GA2081+013411991GE19MSL   +99999+99999MA1101701999990MW1611REMMET062METAR EDHK 280750Z 18009KT 8000 -RA FEW011 OVC044 10/09 Q1017=
0157100465999992013062808204+54380+010145FM-15+003199999V0201701V004110158519N007000199+01001+00901999999ADDGA1021+002441991GA2081+015851991GE19MSL   +99999+99999MA1101701999990MW1611REMMET070METAR EDHK 280820Z 17008KT 150V210 7000 -RA FEW008 OVC052 10/09 Q1017=
0167100465999992013062808504+54380+010145FM-15+003199999V0201701N00511008231CN009999199+01101+00901999999ADDGA1021+002741991GA2041+008231991GA3071+011891991GE19MSL   +99999+99999MA1101701999990REMMET070METAR EDHK 280850Z 17010KT 9999 FEW009 SCT027 BKN039 11/09 Q1017 RERA=
0139100465999992013062809204+54380+010145FM-15+003199999V0201701N005110048819N009999199+01101+00901999999ADDGA1041+003051991GA2081+004881991GE19MSL   +99999+99999MA1101701999990REMMET058METAR EDHK 280920Z 17010KT 9999 SCT010 OVC016 11/09 Q1017=
0147100465999992013062809504+54380+010145FM-15+003199999V0201701V005110036619N009999199+01201+00901999999ADDGA1071+003661991GA2081+004881991GE19MSL   +99999+99999MA1101701999990REMMET066METAR EDHK 280950Z 17010KT 140V210 9999 BKN012 OVC016 12/09 Q1017=
0139100465999992013062810204+54380+010145FM-15+003199999V0201801N005110048819N009999199+01201+00901999999ADDGA1041+003961991GA2081+004881991GE19MSL   +99999+99999MA1101701999990REMMET058METAR EDHK 281020Z 18010KT 9999 SCT013 OVC016 12/09 Q1017=
0147100465999992013062810504+54380+010145FM-15+003199999V0201701V005110039619N009999199+01201+00901999999ADDGA1071+003961991GA2081+007011991GE19MSL   +99999+99999MA1101701999990REMMET066METAR EDHK 281050Z 17010KT 140V200 9999 BKN013 OVC023 12/09 Q1017=
0139100465999992013062811204+54380+010145FM-15+003199999V0201601N005110045719N009999199+01201+00901999999ADDGA1021+003961991GA2071+004571991GE19MSL   +99999+99999MA1101701999990REMMET058METAR EDHK 281120Z 16010KT 9999 FEW013 BKN015 12/09 Q1017=
0147100465999992013062811504+54380+010145FM-15+003199999V0201701V005710054919N009999199+01301+01001999999ADDGA1021+003661991GA2081+005491991GE19MSL   +99999+99999MA1101601999990REMMET066METAR EDHK 281150Z 17011KT 130V190 9999 FEW012 OVC018 13/10 Q1016=
0147100465999992013062812204+54380+010145FM-15+003199999V0201701V005110112819N009999199+01401+01101999999ADDGA1041+004571991GA2071+011281991GE19MSL   +99999+99999MA1101601999990REMMET066METAR EDHK 281220Z 17010KT 140V200 9999 SCT015 BKN037 14/11 Q1016=
0175100465999992013062812504+54380+010145FM-15+003199999V0201701V005710061019N009999199+01301+00901999999ADDGA1041+004571991GA2071+006101991GA3071+023771991GE19MSL   +99999+99999MA1101601999990REMMET078METAR EDHK 281250Z 17011KT 130V190 9999 SCT015 BKN020 BKN078 13/09      Q1016=
0147100465999992013062813204+54380+010145FM-15+003199999V0201701V005710167619N009999199+01401+00901999999ADDGA1021+005491991GA2071+016761991GE19MSL   +99999+99999MA1101601999990REMMET066METAR EDHK 281320Z 17011KT 140V210 9999 FEW018 BKN055 14/09 Q1016=
0147100465999992013062813504+54380+010145FM-15+003199999V0201801V005710070119N009999199+01301+00901999999ADDGA1071+007011991GA2081+009751991GE19MSL   +99999+99999MA1101601999990REMMET066METAR EDHK 281350Z 18011KT 150V210 9999 BKN023 OVC032 13/09 Q1016=
0175100465999992013062814204+54380+010145FM-15+003199999V0201901V005110073219N009999199+01301+00901999999ADDGA1021+006101991GA2071+007321991GA3081+009141991GE19MSL   +99999+99999MA1101601999990REMMET078METAR EDHK 281420Z 19010KT 160V230 9999 FEW020 BKN024 OVC030 13/09      Q1016=
0157100465999992013062814504+54380+010145FM-15+003199999V0201901V004110076219N009999199+01301+00901999999ADDGA1041+005181991GA2081+007621991GE19MSL   +99999+99999MA1101501999990MW1611REMMET070METAR EDHK 281450Z 19008KT 160V220 9999 -RA SCT017 OVC025 13/09 Q1015=
0175100465999992013062815204+54380+010145FM-15+003199999V0202101V00511008531CN009999199+01401+00901999999ADDGA1021+005491991GA2041+008531991GA3081+009751991GE19MSL   +99999+99999MA1101501999990REMMET078METAR EDHK 281520Z 21010KT 180V240 9999 FEW018 SCT028 OVC032 14/09      Q1015=
0151100465999992013062815504+54380+010145FM-15+003199999V0201901N004610112819N009999199+01301+00901999999ADDGA1041+004881991GA2081+011281991GE19MSL   +99999+99999MA1101501999990MW1581REMMET064METAR EDHK 281550Z 19009KT 9999 -RADZ SCT016 OVC037 13/09 Q1015=
0172100465999992013062816204+54380+010145FM-15+003199999V0202001N004610051819N009999199+01301+01001999999ADDGA1021+004571991GA2071+005181991GA3081+016761991GE19MSL   +99999+99999MA1101501999990MW1611REMMET069METAR EDHK 281620Z 20009KT 9999 -RA FEW015 BKN017 OVC055 13/10 Q1015=
0162100465999992013062816504+54380+010145FM-15+003199999V0201901N004110073219N009000199+01301+01001999999ADDGA1021+004881991GA2071+007321991GA3081+010361991GE19MSL   +99999+99999MA1101501999990REMMET065METAR EDHK 281650Z 19008KT 9000 FEW016 BKN024 OVC034 13/10 Q1015=
0147100465999992013062817204+54380+010145FM-15+003199999V0201801V004110094519N009999199+01301+01001999999ADDGA1021+004271991GA2071+009451991GE19MSL   +99999+99999MA1101501999990REMMET066METAR EDHK 281720Z 18008KT 150V240 9999 FEW014 BKN031 13/10 Q1015=
0125100465999992013062906504+54380+010145FM-15+003199999V0201801N002610015219N003800199+01301+01301999999ADDGA1081+001521991GE19MSL   +99999+99999MA1101001999990MW1101REMMET054METAR EDHK 290650Z 18005KT 3800 BR OVC005 13/13 Q1010=
0125100465999992013062907204+54380+010145FM-15+003199999V0201901N002610015219N002800199+01401+01301999999ADDGA1081+001521991GE19MSL   +99999+99999MA1101001999990MW1101REMMET054METAR EDHK 290720Z 19005KT 2800 BR OVC005 14/13 Q1010=
0125100465999992013062907504+54380+010145FM-15+003199999V0201801N002610012219N001900199+01401+01301999999ADDGA1081+001221991GE19MSL   +99999+99999MA1101001999990MW1101REMMET054METAR EDHK 290750Z 18005KT 1900 BR OVC004 14/13 Q1010=
0133100465999992013062908204+54380+010145FM-15+003199999V0201901V002610015219N002500199+01401+01301999999ADDGA1081+001521991GE19MSL   +99999+99999MA1101001999990MW1101REMMET062METAR EDHK 290820Z 19005KT 160V220 2500 BR OVC005 14/13 Q1010=
0167100465999992013062908504+54380+010145FM-15+003199999V0202201V003110021319N001900199+01401+01301999999ADDED126U20009GA1081+002131991GE19MSL   +99999+99999MA1101001999990MW1101REMMET085METAR EDHK 290850Z 22006KT 190V250 1900 1400SE R26/P2000D BR OVC007      14/13 Q1010=
0148100465999992013062909204+54380+010145FM-15+003199999V0202401N002610009119N002100199+01401+01401999999ADDGA1071+000911991GA2081+003051991GE19MSL   +99999+99999MA1101101999990MW1101REMMET061METAR EDHK 290920Z 24005KT 2100 BR BKN003 OVC010 14/14 Q1011=
0125100465999992013062909504+54380+010145FM-15+003199999V0202501N002610018319N002600199+01501+01401999999ADDGA1081+001831991GE19MSL   +99999+99999MA1101101999990MW1101REMMET054METAR EDHK 290950Z 25005KT 2600 BR OVC006 15/14 Q1011=
0184100465999992013062910204+54380+010145FM-15+003199999V0202701V003110009119N003600199+01501+01401999999ADDGA1071+000911991GA2071+002131991GA3081+003661991GE19MSL   +99999+99999MA1101101999990MW1101REMMET081METAR EDHK 291020Z 27006KT 230V290 3600 BR BKN003 BKN007 OVC012 15/14      Q1011=
0128100465999992013062910504+54380+010145FM-15+003199999V0203201N006710079219N009000199+01301+01201999999ADDGA1081+007921991GE19MSL   +99999+99999MA1101201999990REMMET063METAR EDHK 291050Z 32013KT 9000 3700SE OVC026 13/12 Q1012 RERA=
0165100465999992013062911204+54380+010145FM-15+003199999V0203101N00511005181CN009999199+01401+01201999999ADDGA1021+002131991GA2041+005181991GA3081+008531991GE19MSL   +99999+99999MA1101201999990REMMET068METAR EDHK 291120Z 31010KT 9999 // FEW007 SCT017 OVC028 14/12 Q1012=
0178100465999992013062911504+54380+010145FM-15+003199999V0203101V006210051819N009999199+01301+01201999999ADDGA1041+002741991GA2071+005181991GA3081+010361991GE19MSL   +99999+99999MA1101301999990REMMET081METAR EDHK 291150Z 31012KT 270V340 9999 // SCT009 BKN017 OVC034 13/12      Q1013=
0162100465999992013062912204+54380+010145FM-15+003199999V0203001N005110076219N009999199+01401+01201999999ADDGA1041+003661991GA2071+007621991GA3081+009451991GE19MSL   +99999+99999MA1101301999990REMMET065METAR EDHK 291220Z 30010KT 9999 SCT012 BKN025 OVC031 14/12 Q1013=
0139100465999992013062912504+54380+010145FM-15+003199999V0203001N006210115819N009999199+01601+01201999999ADDGA1021+004571991GA2081+011581991GE19MSL   +99999+99999MA1101301999990REMMET058METAR EDHK 291250Z 30012KT 9999 FEW015 OVC038 16/12 Q1013=
0116100465999992013062913204+54380+010145FM-15+003199999V0203101N007710106719N009999199+01401+00901999999ADDGA1071+010671991GE19MSL   +99999+99999MA1101401999990REMMET051METAR EDHK 291320Z 31015KT 9999 BKN035 14/09 Q1014=
0116100465999992013062913504+54380+010145FM-15+003199999V0202901N007719999999N009999199+01501+00901999999ADDGA1041+011281991GE19MSL   +99999+99999MA1101401999990REMMET051METAR EDHK 291350Z 29015KT 9999 SCT037 15/09 Q1014=
0124100465999992013062914204+54380+010145FM-15+003199999V0203001V007719999999N009999199+01501+00701999999ADDGA1041+011581991GE19MSL   +99999+99999MA1101401999990REMMET059METAR EDHK 291420Z 30015KT 270V330 9999 SCT038 15/07 Q1014=
0116100465999992013062914504+54380+010145FM-15+003199999V0203101N007719999999N009999199+01501+00701999999ADDGA1041+012501991GE19MSL   +99999+99999MA1101501999990REMMET051METAR EDHK 291450Z 31015KT 9999 SCT041 15/07 Q1015=
0135100465999992013062915204+54380+010145FM-15+003199999V0203001V007219999999N009999199+01501+00801999999ADDGA1041+011581991GE19MSL   +99999+99999MA1101501999990OC101241REMMET062METAR EDHK 291520Z 30014G24KT 270V330 9999 SCT038 15/08 Q1015=
0116100465999992013062915504+54380+010145FM-15+003199999V0203001N007719999999N009999199+01501+00701999999ADDGA1041+011581991GE19MSL   +99999+99999MA1101601999990REMMET051METAR EDHK 291550Z 30015KT 9999 SCT038 15/07 Q1016=
0116100465999992013062916204+54380+010145FM-15+003199999V0202901N007719999999N009999199+01501+00601999999ADDGA1041+013111991GE19MSL   +99999+99999MA1101601999990REMMET051METAR EDHK 291620Z 29015KT 9999 SCT043 15/06 Q1016=
0116100465999992013062916504+54380+010145FM-15+003199999V0203001N006719999999N009999199+01501+00601999999ADDGA1041+011281991GE19MSL   +99999+99999MA1101601999990REMMET051METAR EDHK 291650Z 30013KT 9999 SCT037 15/06 Q1016=
0139100465999992013062917204+54380+010145FM-15+003199999V0203001N00511015851CN009999199+01401+00701999999ADDGA1021+010361991GA2041+015851991GE19MSL   +99999+99999MA1101701999990REMMET058METAR EDHK 291720Z 30010KT 9999 FEW034 SCT052 14/07 Q1017=
0139100465999992013062917504+54380+010145FM-15+003199999V0202901N006710155419N009999199+01301+00701999999ADDGA1021+009751991GA2071+015541991GE19MSL   +99999+99999MA1101701999990REMMET058METAR EDHK 291750Z 29013KT 9999 FEW032 BKN051 13/07 Q1017=
0116100465999992013063006204+54380+010145FM-15+003199999V0202701N006719999999N009999199+01201+00701999999ADDGA1021+006711991GE19MSL   +99999+99999MA1101801999990REMMET051METAR EDHK 300620Z 27013KT 9999 FEW022 12/07 Q1018=
0139100465999992013063006504+54380+010145FM-15+003199999V0202801N00621009141CN009999199+01301+00801999999ADDGA1021+006711991GA2041+009141991GE19MSL   +99999+99999MA1101801999990REMMET058METAR EDHK 300650Z 28012KT 9999 FEW022 SCT030 13/08 Q1018=
0139100465999992013063007204+54380+010145FM-15+003199999V0202801N00721010361CN009999199+01301+00701999999ADDGA1021+009141991GA2041+010361991GE19MSL   +99999+99999MA1101801999990REMMET058METAR EDHK 300720Z 28014KT 9999 FEW030 SCT034 13/07 Q1018=
0124100465999992013063007504+54380+010145FM-15+003199999V0202901V006719999999N009999199+01401+00701999999ADDGA1021+009451991GE19MSL   +99999+99999MA1101801999990REMMET059METAR EDHK 300750Z 29013KT 240V310 9999 FEW031 14/07 Q1018=
0139100465999992013063008204+54380+010145FM-15+003199999V0202701N007210487719N009999199+01401+00601999999ADDGA1041+009451991GA2071+048771991GE19MSL   +99999+99999MA1101801999990REMMET058METAR EDHK 300820Z 27014KT 9999 SCT031 BKN160 14/06 Q1018=
0139100465999992013063008504+54380+010145FM-15+003199999V0202801N008210109719N009999199+01401+00601999999ADDGA1071+010971991GA2071+048771991GE19MSL   +99999+99999MA1101801999990REMMET058METAR EDHK 300850Z 28016KT 9999 BKN036 BKN160 14/06 Q1018=
0162100465999992013063009204+54380+010145FM-15+003199999V0202701N007710125019N009999199+01501+00701999999ADDGA1041+010671991GA2071+012501991GA3071+045721991GE19MSL   +99999+99999MA1101801999990REMMET065METAR EDHK 300920Z 27015KT 9999 SCT035 BKN041 BKN150 15/07 Q1018=
0162100465999992013063010504+54380+010145FM-15+003199999V0202701N008810125019N009999199+01501+00701999999ADDGA1021+010061991GA2071+012501991GA3071+014331991GE19MSL   +99999+99999MA1101801999990REMMET065METAR EDHK 301050Z 27017KT 9999 FEW033 BKN041 BKN047 15/07 Q1018=
0162100465999992013063011204+54380+010145FM-15+003199999V0202701N006710100619N009999199+01501+00801999999ADDGA1071+010061991GA2071+012501991GA3071+036581991GE19MSL   +99999+99999MA1101801999990REMMET065METAR EDHK 301120Z 27013KT 9999 BKN033 BKN041 BKN120 15/08 Q1018=
0139100465999992013063011504+54380+010145FM-15+003199999V0202701N006710286519N009999199+01501+00901999999ADDGA1041+007621991GA2071+028651991GE19MSL   +99999+99999MA1101801999990REMMET058METAR EDHK 301150Z 27013KT 9999 SCT025 BKN094 15/09 Q1018=
0172100465999992013063012204+54380+010145FM-15+003199999V0202601N00571007321CN009999199+01301+01101999999ADDGA1021+005181991GA2041+007321991GA3081+009451991GE19MSL   +99999+99999MA1101801999990MW1611REMMET069METAR EDHK 301220Z 26011KT 9999 -RA FEW017 SCT024 OVC031 13/11 Q1018=
0174100465999992013063012504+54380+010145FM-15+003199999V0202601N005710109719N007000199+01301+01101999999ADDGA1021+003051991GA2071+010971991GA3081+021341991GE19MSL   +99999+99999MA1101801999990MW1581REMMET071METAR EDHK 301250Z 26011KT 7000 -DZRA FEW010 BKN036 OVC070 13/11 Q1018=
0172100465999992013063013204+54380+010145FM-15+003199999V0202501N00511014631CN008000199+01201+01101999999ADDGA1021+002441991GA2041+014631991GA3081+017981991GE19MSL   +99999+99999MA1101801999990MW1611REMMET069METAR EDHK 301320Z 25010KT 8000 -RA FEW008 SCT048 OVC059 12/11 Q1018=
0181100465999992013063013504+54380+010145FM-15+003199999V0202401N004110054919N003400199+01201+01101999999ADDGA1041+001221991GA2071+005491991GA3081+008531991GE19MSL   +99999+99999MA1101801999990MW1101MW2511REMMET072METAR EDHK 301350Z 24008KT 3400 -DZ BR SCT004 BKN018 OVC028 12/11 Q1018=
0139100465999992013063014204+54380+010145FM-15+003199999V0202301N004610125019N009999199+01201+01101999999ADDGA1041+002131991GA2081+012501991GE19MSL   +99999+99999MA1101701999990REMMET058METAR EDHK 301420Z 23009KT 9999 SCT007 OVC041 12/11 Q1017=
0175100465999992013063014504+54380+010145FM-15+003199999V0202401V004110085319N009999199+01301+01201999999ADDGA1041+002441991GA2071+008531991GA3081+010671991GE19MSL   +99999+99999MA1101701999990REMMET078METAR EDHK 301450Z 24008KT 210V270 9999 SCT008 BKN028 OVC035 13/12      Q1017=
0172100465999992013063015204+54380+010145FM-15+003199999V0202301N004110039619N009999199+01301+01201999999ADDGA1041+001831991GA2071+003961991GA3081+010971991GE19MSL   +99999+99999MA1101701999990MW1611REMMET069METAR EDHK 301520Z 23008KT 9999 -RA SCT006 BKN013 OVC036 13/12 Q1017=
0148100465999992013063015504+54380+010145FM-15+003199999V0202301N003610030519N004600199+01301+01201999999ADDGA1041+001221991GA2071+003051991GE19MSL   +99999+99999MA1101601999990MW1101REMMET061METAR EDHK 301550Z 23007KT 4600 BR SCT004 BKN010 13/12 Q1016=
0139100465999992013063016204+54380+010145FM-15+003199999V0202501N004110039619N009999199+01301+01201999999ADDGA1041+001831991GA2081+003961991GE19MSL   +99999+99999MA1101601999990REMMET058METAR EDHK 301620Z 25008KT 9999 SCT006 OVC013 13/12 Q1016=
0139100465999992013063016504+54380+010145FM-15+003199999V0202501N004110039619N009999199+01401+01301999999ADDGA1021+003051991GA2081+003961991GE19MSL   +99999+99999MA1101601999990REMMET058METAR EDHK 301650Z 25008KT 9999 FEW010 OVC013 14/13 Q1016=
0147100465999992013063017204+54380+010145FM-15+003199999V0202501V003610039619N009999199+01401+01301999999ADDGA1041+002441991GA2081+003961991GE19MSL   +99999+99999MA1101601999990REMMET066METAR EDHK 301720Z 25007KT 220V280 9999 SCT008 OVC013 14/13 Q1016=
0162100465999992013063017504+54380+010145FM-15+003199999V0202501N004110039619N009999199+01401+01301999999ADDGA1041+002441991GA2071+003961991GA3081+017981991GE19MSL   +99999+99999MA1101601999990REMMET065METAR EDHK 301750Z 25008KT 9999 SCT008 BKN013 OVC059 14/13 Q1016=
0072100465999992013070105504+54380+010145FM-15+003199999V0202101N003119999999Y999999999+01501+01301999999ADDMA1101301999990REMMET045METAR EDHK 010550Z 21006KT CAVOK 15/13 Q1013=
0116100465999992013070106204+54380+010145FM-15+003199999V0202101N003610146319N009999199+01601+01401999999ADDGA1071+014631991GE19MSL   +99999+99999MA1101201999990REMMET051METAR EDHK 010620Z 21007KT 9999 BKN048 16/14 Q1012=
0139100465999992013070106504+54380+010145FM-15+003199999V0202101N004110149419N009999199+01601+01401999999ADDGA1021+002441991GA2071+014941991GE19MSL   +99999+99999MA1101201999990REMMET058METAR EDHK 010650Z 21008KT 9999 FEW008 BKN049 16/14 Q1012=
0179100465999992013070107204+54380+010145FM-15+003199999V0202301V004610030519N009999199+01701+01501999999ADDGA1071+003051991GA2071+013411991GA3071+020421991GE19MSL   +99999+99999MA1101201999990REMMET082METAR COR EDHK 010720Z 23009KT 190V260 9999 BKN010 BKN044 BKN067 17/15      Q1012=
0120100465999992013070107504+54380+010145FM-15+003199999V0202201N004610030519N009999199+01601+01401999999ADDGA1071+003051991GE19MSL   +99999+99999MA1101201999990REMMET055METAR COR EDHK 010750Z 22009KT 9999 BKN010 16/14 Q1012=
0124100465999992013070108204+54380+010145FM-15+003199999V0202101V004610027419N009999199+01601+01401999999ADDGA1081+002741991GE19MSL   +99999+99999MA1101201999990REMMET059METAR EDHK 010820Z 21009KT 180V240 9999 OVC009 16/14 Q1012=
0116100465999992013070109204+54380+010145FM-15+003199999V0202301N004610018319N007000199+01501+01401999999ADDGA1081+001831991GE19MSL   +99999+99999MA1101301999990REMMET051METAR EDHK 010920Z 23009KT 7000 OVC006 15/14 Q1013=
0124100465999992013070109504+54380+010145FM-15+003199999V0202401V005710018319N007000199+01501+01401999999ADDGA1081+001831991GE19MSL   +99999+99999MA1101301999990REMMET059METAR EDHK 010950Z 24011KT 200V260 7000 OVC006 15/14 Q1013=
0147100465999992013070110504+54380+010145FM-15+003199999V0202401V004610057919N009999199+01701+01401999999ADDGA1041+003351991GA2081+005791991GE19MSL   +99999+99999MA1101301999990REMMET066METAR EDHK 011050Z 24009KT 210V270 9999 SCT011 OVC019 17/14 Q1013=
0175100465999992013070111204+54380+010145FM-15+003199999V0202501V006210061019N009999199+01801+01401999999ADDGA1041+004571991GA2071+006101991GA3071+013111991GE19MSL   +99999+99999MA1101301999990REMMET078METAR EDHK 011120Z 25012KT 210V280 9999 SCT015 BKN020 BKN043 18/14      Q1013=
0139100465999992013070111504+54380+010145FM-15+003199999V0202401N007210131119N009999199+01901+01401999999ADDGA1041+005791991GA2071+013111991GE19MSL   +99999+99999MA1101301999990REMMET058METAR EDHK 011150Z 24014KT 9999 SCT019 BKN043 19/14 Q1013=
0147100465999992013070112204+54380+010145FM-15+003199999V0202701V006710137219N009999199+01901+01301999999ADDGA1041+006711991GA2071+013721991GE19MSL   +99999+99999MA1101301999990REMMET066METAR EDHK 011220Z 27013KT 230V290 9999 SCT022 BKN045 19/13 Q1013=
0139100465999992013070112504+54380+010145FM-15+003199999V0202701N007210170719N009999199+01901+01301999999ADDGA1041+007321991GA2071+017071991GE19MSL   +99999+99999MA1101301999990REMMET058METAR EDHK 011250Z 27014KT 9999 SCT024 BKN056 19/13 Q1013=
0139100465999992013070113204+54380+010145FM-15+003199999V0202701N00821010971CN009999199+01901+01201999999ADDGA1041+007321991GA2041+010971991GE19MSL   +99999+99999MA1101301999990REMMET058METAR EDHK 011320Z 27016KT 9999 SCT024 SCT036 19/12 Q1013=
0147100465999992013070113504+54380+010145FM-15+003199999V0202601V00721008841CN009999199+01901+01201999999ADDGA1021+007621991GA2041+008841991GE19MSL   +99999+99999MA1101301999990REMMET066METAR EDHK 011350Z 26014KT 220V290 9999 FEW025 SCT029 19/12 Q1013=
0116100465999992013070114204+54380+010145FM-15+003199999V0202601N006210088419N009999199+02001+01201999999ADDGA1071+008841991GE19MSL   +99999+99999MA1101301999990REMMET051METAR EDHK 011420Z 26012KT 9999 BKN029 20/12 Q1013=
0139100465999992013070114504+54380+010145FM-15+003199999V0202601N007210100619N009999199+01801+01201999999ADDGA1041+007621991GA2071+010061991GE19MSL   +99999+99999MA1101301999990REMMET058METAR EDHK 011450Z 26014KT 9999 SCT025 BKN033 18/12 Q1013=
0116100465999992013070115204+54380+010145FM-15+003199999V0202701N008219999999N009999199+01801+01201999999ADDGA1041+010061991GE19MSL   +99999+99999MA1101401999990REMMET051METAR EDHK 011520Z 27016KT 9999 SCT033 18/12 Q1014=
0116100465999992013070115504+54380+010145FM-15+003199999V0202801N006719999999N009999199+01801+01201999999ADDGA1041+007921991GE19MSL   +99999+99999MA1101401999990REMMET051METAR EDHK 011550Z 28013KT 9999 SCT026 18/12 Q1014=
0150100465999992013070206204+54380+010145FM-15+003199999V0202501V002610240819N009999199+01301+01101999999ADDGA1021+005181991GA2071+024081991GE19MSL   +99999+99999MA1101401999990REMMET069METAR EDHK 020620Z 25005KT 220V280 9999 // FEW017 BKN079 13/11 Q1014=
0142100465999992013070206504+54380+010145FM-15+003199999V0202601N003110237719N009999199+01301+01101999999ADDGA1021+003351991GA2071+023771991GE19MSL   +99999+99999MA1101401999990REMMET061METAR EDHK 020650Z 26006KT 9999 // FEW011 BKN078 13/11 Q1014=
0142100465999992013070207204+54380+010145FM-15+003199999V0202801N00361004881CN009999199+01501+01101999999ADDGA1021+003961991GA2041+004881991GE19MSL   +99999+99999MA1101501999990REMMET061METAR EDHK 020720Z 28007KT 9999 // FEW013 SCT016 15/11 Q1015=
0150100465999992013070207504+54380+010145FM-15+003199999V0202901V00261012801CN009999199+01501+01001999999ADDGA1021+007011991GA2041+012801991GE19MSL   +99999+99999MA1101501999990REMMET069METAR EDHK 020750Z 29005KT 260V320 9999 // FEW023 SCT042 15/10 Q1015=
0142100465999992013070208204+54380+010145FM-15+003199999V0202701N004110173719N009999199+01301+00901999999ADDGA1021+007321991GA2071+017371991GE19MSL   +99999+99999MA1101501999990REMMET061METAR EDHK 020820Z 27008KT 9999 // FEW024 BKN057 13/09 Q1015=
0150100465999992013070208504+54380+010145FM-15+003199999V0202701V00361015541CN009999199+01501+00901999999ADDGA1041+008531991GA2041+015541991GE19MSL   +99999+99999MA1101401999990REMMET069METAR EDHK 020850Z 27007KT 200V310 9999 // SCT028 SCT051 15/09 Q1014=
0127100465999992013070209204+54380+010145FM-15+003199999V0202401V004119999999N009999199+01601+00701999999ADDGA1021+010361991GE19MSL   +99999+99999MA1101501999990REMMET062METAR EDHK 020920Z 24008KT 210V290 9999 // FEW034 16/07 Q1015=
0127100465999992013070209504+54380+010145FM-15+003199999V0202601V004619999999N009999199+01601+00601999999ADDGA1021+010061991GE19MSL   +99999+99999MA1101501999990REMMET062METAR EDHK 020950Z 26009KT 220V290 9999 // FEW033 16/06 Q1015=
0119100465999992013070210204+54380+010145FM-15+003199999V0202801N004619999999N009999199+01501+00801999999ADDGA1041+010671991GE19MSL   +99999+99999MA1101501999990REMMET054METAR EDHK 021020Z 28009KT 9999 // SCT035 15/08 Q1015=
0124100465999992013070210504+54380+010145FM-15+003199999V0202601V004119999999N009999199+01801+00601999999ADDGA1021+013111991GE19MSL   +99999+99999MA1101501999990REMMET059METAR EDHK 021050Z 26008KT 210V320 9999 FEW043 18/06 Q1015=
0147100465999992013070211204+54380+010145FM-15+003199999V0202401V00411017371CN009999199+01801+00701999999ADDGA1021+013111991GA2041+017371991GE19MSL   +99999+99999MA1101501999990REMMET066METAR EDHK 021120Z 24008KT 190V290 9999 FEW043 SCT057 18/07 Q1015=
0124100465999992013070211504+54380+010145FM-15+003199999V0202601V004619999999N009999199+01701+00601999999ADDGA1021+012501991GE19MSL   +99999+99999MA1101501999990REMMET059METAR EDHK 021150Z 26009KT 230V310 9999 FEW041 17/06 Q1015=
0124100465999992013070212204+54380+010145FM-15+003199999V0202701V004619999999N009999199+01801+00701999999ADDGA1021+013111991GE19MSL   +99999+99999MA1101401999990REMMET059METAR EDHK 021220Z 27009KT 190V300 9999 FEW043 18/07 Q1014=
0124100465999992013070212504+54380+010145FM-15+003199999V0202601V004619999999N009999199+01801+00701999999ADDGA1021+013721991GE19MSL   +99999+99999MA1101401999990REMMET059METAR EDHK 021250Z 26009KT 220V280 9999 FEW045 18/07 Q1014=
0124100465999992013070213204+54380+010145FM-15+003199999V0202601V004619999999N009999199+01801+00701999999ADDGA1021+014021991GE19MSL   +99999+99999MA1101401999990REMMET059METAR EDHK 021320Z 26009KT 230V290 9999 FEW046 18/07 Q1014=
0124100465999992013070213504+54380+010145FM-15+003199999V0202801V004119999999N009999199+01801+00701999999ADDGA1041+014631991GE19MSL   +99999+99999MA1101401999990REMMET059METAR EDHK 021350Z 28008KT 240V300 9999 SCT048 18/07 Q1014=
0124100465999992013070214204+54380+010145FM-15+003199999V0202501V003619999999N009999199+01901+00701999999ADDGA1021+014941991GE19MSL   +99999+99999MA1101401999990REMMET059METAR EDHK 021420Z 25007KT 220V280 9999 FEW049 19/07 Q1014=
0080100465999992013070214504+54380+010145FM-15+003199999V0202601V003119999999Y999999999+01901+00601999999ADDMA1101401999990REMMET053METAR EDHK 021450Z 26006KT 210V300 CAVOK 19/06 Q1014=
0080100465999992013070215204+54380+010145FM-15+003199999V0202601V004119999999Y999999999+01901+00601999999ADDMA1101401999990REMMET053METAR EDHK 021520Z 26008KT 200V290 CAVOK 19/06 Q1014=
0149100465999992013070306204+54380+010145FM-15+003199999V0201501N004110249919N009999199+01601+01301999999ADDGA1041+014941991GA2081+024991991GE19MSL   +99999+99999MA1100801999990MW1611REMMET062METAR EDHK 030620Z 15008KT 9999 -RA SCT049 OVC082 16/13 Q1008=
0157100465999992013070306504+54380+010145FM-15+003199999V0201401V003610265219N009999199+01601+01301999999ADDGA1021+014941991GA2081+026521991GE19MSL   +99999+99999MA1100801999990MW1611REMMET070METAR EDHK 030650Z 14007KT 110V170 9999 -RA FEW049 OVC087 16/13 Q1008=
0149100465999992013070307204+54380+010145FM-15+003199999V0201401N003110243819N009999199+01601+01401999999ADDGA1021+014941991GA2081+024381991GE19MSL   +99999+99999MA1100801999990MW1511REMMET062METAR EDHK 030720Z 14006KT 9999 -DZ FEW049 OVC080 16/14 Q1008=
0147100465999992013070307504+54380+010145FM-15+003199999V0201301V003110228619N009999199+01601+01401999999ADDGA1021+012191991GA2081+022861991GE19MSL   +99999+99999MA1100801999990REMMET066METAR EDHK 030750Z 13006KT 110V170 9999 FEW040 OVC075 16/14 Q1008=
0072100465999992013070308204+54380+010145FM-15+003199999V0201301N003119999999Y999999999+01701+01401999999ADDMA1100801999990REMMET045METAR EDHK 030820Z 13006KT CAVOK 17/14 Q1008=
0080100465999992013070308504+54380+010145FM-15+003199999V0201201V002619999999Y999999999+01701+01401999999ADDMA1100801999990REMMET053METAR EDHK 030850Z 12005KT 100V160 CAVOK 17/14 Q1008=
0080100465999992013070309204+54380+010145FM-15+003199999V0201301V003119999999Y999999999+01801+01501999999ADDMA1100801999990REMMET053METAR EDHK 030920Z 13006KT 100V170 CAVOK 18/15 Q1008=
0072100465999992013070309504+54380+010145FM-15+003199999V0201401N002119999999Y999999999+01801+01501999999ADDMA1100801999990REMMET045METAR EDHK 030950Z 14004KT CAVOK 18/15 Q1008=
0072100465999992013070310204+54380+010145FM-15+003199999V0201601N003119999999Y999999999+01901+01601999999ADDMA1100801999990REMMET045METAR EDHK 031020Z 16006KT CAVOK 19/16 Q1008=
0072100465999992013070310504+54380+010145FM-15+003199999V0201601N003119999999Y999999999+01901+01401999999ADDMA1100801999990REMMET045METAR EDHK 031050Z 16006KT CAVOK 19/14 Q1008=
0072100465999992013070311204+54380+010145FM-15+003199999V0201401N003119999999Y999999999+02101+01501999999ADDMA1100801999990REMMET045METAR EDHK 031120Z 14006KT CAVOK 21/15 Q1008=
0080100465999992013070311504+54380+010145FM-15+003199999V0201501V003119999999Y999999999+02201+01601999999ADDMA1100801999990REMMET053METAR EDHK 031150Z 15006KT 120V180 CAVOK 22/16 Q1008=
0080100465999992013070312204+54380+010145FM-15+003199999V0201301V003119999999Y999999999+02301+01601999999ADDMA1100801999990REMMET053METAR EDHK 031220Z 13006KT 100V170 CAVOK 23/16 Q1008=
0147100465999992013070312504+54380+010145FM-15+003199999V0201801V003110335319N009999199+02301+01501999999ADDGA1021+009141991GA2071+033531991GE19MSL   +99999+99999MA1100801999990REMMET066METAR EDHK 031250Z 18006KT 120V230 9999 FEW030 BKN110 23/15 Q1008=
0175100465999992013070313204+54380+010145FM-15+003199999V0201501V002110115819N009999199+02301+01501999999ADDGA1041+010061991GA2071+011581991GA3071+022861991GE19MSL   +99999+99999MA1100801999990REMMET078METAR EDHK 031320Z 15004KT 110V190 9999 SCT033 BKN038 BKN075 23/15      Q1008=
0151100465999992013070313504+54380+010145FM-15+003199999V0202901V003610091419N009999199+02101+01701999999ADDGA1071+009141991GA2081+011891991GE19MSL   +99999+99999MA1100801999990REMMET070METAR COR EDHK 031350Z 29007KT 260V330 9999 BKN030 OVC039 21/17 Q1008=
0139100465999992013070314204+54380+010145FM-15+003199999V0203501N003610121919N009999199+02201+01801999999ADDGA1021+010061991GA2071+012191991GE19MSL   +99999+99999MA1100801999990REMMET058METAR EDHK 031420Z 35007KT 9999 FEW033 BKN040 22/18 Q1008=
0139100465999992013070314504+54380+010145FM-15+003199999V0203601N00361022251CN009999199+02301+01801999999ADDGA1021+012801991GA2041+022251991GE19MSL   +99999+99999MA1100801999990REMMET058METAR EDHK 031450Z 36007KT 9999 FEW042 SCT073 23/18 Q1008=
0147100465999992013070315204+54380+010145FM-15+003199999V0200201V002610246919N009999199+02101+01701999999ADDGA1021+011891991GA2071+024691991GE19MSL   +99999+99999MA1100801999990REMMET066METAR EDHK 031520Z 02005KT 350V080 9999 FEW039 BKN081 21/17 Q1008=
0173100465999992013070315504+54380+010145FM-15+003199999V0200101N003110176819N003000199+02001+01701999999ADDGA1041+011581991GA2071+017681991GA3081+021951991GE19MSL   +99999+99999MA1100901999990MW1811REMMET070METAR EDHK 031550Z 01006KT 3000 SHRA SCT038 BKN058 OVC072 20/17 Q1009=
0148100465999992013070406204+54380+010145FM-15+003199999V0202601N001510070119N004500199+01601+01501999999ADDGA1021+001521991GA2071+007011991GE19MSL   +99999+99999MA1101601999990MW1101REMMET061METAR EDHK 040620Z 26003KT 4500 BR FEW005 BKN023 16/15 Q1016=
0156100465999992013070406504+54380+010145FM-15+003199999V0202601V002110018319N004500199+01701+01501999999ADDGA1071+001831991GA2071+006401991GE19MSL   +99999+99999MA1101701999990MW1101REMMET069METAR EDHK 040650Z 26004KT 220V300 4500 BR BKN006 BKN021 17/15 Q1017=
0147100465999992013070407204+54380+010145FM-15+003199999V0202501V002110018319N007000199+01701+01501999999ADDGA1071+001831991GA2071+003961991GE19MSL   +99999+99999MA1101701999990REMMET066METAR EDHK 040720Z 25004KT 220V290 7000 BKN006 BKN013 17/15 Q1017=
0147100465999992013070407504+54380+010145FM-15+003199999V0202401V002610021319N008000199+01701+01501999999ADDGA1071+002131991GA2071+004881991GE19MSL   +99999+99999MA1101701999990REMMET066METAR EDHK 040750Z 24005KT 180V290 8000 BKN007 BKN016 17/15 Q1017=
0116100465999992013070408204+54380+010145FM-15+003199999V0202401N003110024419N008000199+01701+01501999999ADDGA1081+002441991GE19MSL   +99999+99999MA1101701999990REMMET051METAR EDHK 040820Z 24006KT 8000 OVC008 17/15 Q1017=
0116100465999992013070408504+54380+010145FM-15+003199999V0202301N002610027419N008000199+01801+01501999999ADDGA1081+002741991GE19MSL   +99999+99999MA1101701999990REMMET051METAR EDHK 040850Z 23005KT 8000 OVC009 18/15 Q1017=
0116100465999992013070409204+54380+010145FM-15+003199999V0202501N003610030519N009000199+01801+01501999999ADDGA1081+003051991GE19MSL   +99999+99999MA1101801999990REMMET051METAR EDHK 040920Z 25007KT 9000 OVC010 18/15 Q1018=
0139100465999992013070409504+54380+010145FM-15+003199999V0202301N003610048819N008000199+01801+01501999999ADDGA1041+003051991GA2081+004881991GE19MSL   +99999+99999MA1101801999990REMMET058METAR EDHK 040950Z 23007KT 8000 SCT010 OVC016 18/15 Q1018=
0147100465999992013070410204+54380+010145FM-15+003199999V0202301V003610036619N008000199+01801+01501999999ADDGA1071+003661991GA2071+007321991GE19MSL   +99999+99999MA1101801999990REMMET066METAR EDHK 041020Z 23007KT 200V260 8000 BKN012 BKN024 18/15 Q1018=
0139100465999992013070410504+54380+010145FM-15+003199999V0202301N003110036619N009999199+01801+01501999999ADDGA1071+003661991GA2071+004571991GE19MSL   +99999+99999MA1101801999990REMMET058METAR EDHK 041050Z 23006KT 9999 BKN012 BKN015 18/15 Q1018=
0147100465999992013070411204+54380+010145FM-15+003199999V0202301V004110061019N009999199+01801+01501999999ADDGA1071+006101991GA2081+008531991GE19MSL   +99999+99999MA1101901999990REMMET066METAR EDHK 041120Z 23008KT 190V250 9999 BKN020 OVC028 18/15 Q1019=
0175100465999992013070411504+54380+010145FM-15+003199999V0202301V003110070119N009999199+01901+01501999999ADDGA1021+004271991GA2071+007011991GA3081+014021991GE19MSL   +99999+99999MA1101901999990REMMET078METAR EDHK 041150Z 23006KT 190V260 9999 FEW014 BKN023 OVC046 19/15      Q1019=
0175100465999992013070412204+54380+010145FM-15+003199999V0202501V004610103619N009999199+01801+01401999999ADDGA1021+004881991GA2071+010361991GA3081+013411991GE19MSL   +99999+99999MA1101901999990REMMET078METAR EDHK 041220Z 25009KT 210V270 9999 FEW016 BKN034 OVC044 18/14      Q1019=
0116100465999992013070412504+54380+010145FM-15+003199999V0202401N003110103619N009999199+01901+01501999999ADDGA1081+010361991GE19MSL   +99999+99999MA1101901999990REMMET051METAR EDHK 041250Z 24006KT 9999 OVC034 19/15 Q1019=
0147100465999992013070413204+54380+010145FM-15+003199999V0202301V003110100619N009999199+01901+01501999999ADDGA1021+004881991GA2081+010061991GE19MSL   +99999+99999MA1101901999990REMMET066METAR EDHK 041320Z 23006KT 200V270 9999 FEW016 OVC033 19/15 Q1019=
0175100465999992013070413504+54380+010145FM-15+003199999V0202401V00311005491CN009999199+01901+01501999999ADDGA1021+004571991GA2041+005491991GA3081+009141991GE19MSL   +99999+99999MA1101901999990REMMET078METAR EDHK 041350Z 24006KT 210V270 9999 FEW015 SCT018 OVC030 19/15      Q1019=
0139100465999992013070414204+54380+010145FM-15+003199999V0202401N004110121919N009999199+01901+01401999999ADDGA1021+007011991GA2081+012191991GE19MSL   +99999+99999MA1101901999990REMMET058METAR EDHK 041420Z 24008KT 9999 FEW023 OVC040 19/14 Q1019=
0147100465999992013070414504+54380+010145FM-15+003199999V0202401V004110082319N009999199+01901+01501999999ADDGA1071+008231991GA2081+014631991GE19MSL   +99999+99999MA1101901999990REMMET066METAR EDHK 041450Z 24008KT 210V280 9999 BKN027 OVC048 19/15 Q1019=
0162100465999992013070415204+54380+010145FM-15+003199999V0202201N003610073219N009999199+01901+01501999999ADDGA1041+005791991GA2071+007321991GA3081+014631991GE19MSL   +99999+99999MA1101901999990REMMET065METAR EDHK 041520Z 22007KT 9999 SCT019 BKN024 OVC048 19/15 Q1019=
0162100465999992013070415504+54380+010145FM-15+003199999V0202601N00461009751CN009999199+01901+01501999999ADDGA1021+005491991GA2041+009751991GA3081+016761991GE19MSL   +99999+99999MA1101901999990REMMET065METAR EDHK 041550Z 26009KT 9999 FEW018 SCT032 OVC055 19/15 Q1019=
0071100465999992013070504504+54380+010145FM-15+003199999V0202401N003119999999N008000199+01501+01401999999ADDMA1102401999990REMMET044METAR EDHK 050450Z 24006KT 8000 15/14 Q1024=
0071100465999992013070505204+54380+010145FM-15+003199999V0202401N003119999999N009000199+01601+01401999999ADDMA1102401999990REMMET044METAR EDHK 050520Z 24006KT 9000 16/14 Q1024=
0116100465999992013070505504+54380+010145FM-15+003199999V0202501N005710024419N009999199+01601+01401999999ADDGA1071+002441991GE19MSL   +99999+99999MA1102401999990REMMET051METAR EDHK 050550Z 25011KT 9999 BKN008 16/14 Q1024=
0116100465999992013070506204+54380+010145FM-15+003199999V0202601N004610021319N009999199+01701+01501999999ADDGA1081+002131991GE19MSL   +99999+99999MA1102501999990REMMET051METAR EDHK 050620Z 26009KT 9999 OVC007 17/15 Q1025=
0116100465999992013070506504+54380+010145FM-15+003199999V0202501N004610021319N009999199+01701+01501999999ADDGA1081+002131991GE19MSL   +99999+99999MA1102501999990REMMET051METAR EDHK 050650Z 25009KT 9999 OVC007 17/15 Q1025=
0116100465999992013070507204+54380+010145FM-15+003199999V0202601N004610024419N009999199+01701+01501999999ADDGA1081+002441991GE19MSL   +99999+99999MA1102501999990REMMET051METAR EDHK 050720Z 26009KT 9999 OVC008 17/15 Q1025=
0116100465999992013070507504+54380+010145FM-15+003199999V0202501N003610027419N009999199+01701+01501999999ADDGA1081+002741991GE19MSL   +99999+99999MA1102501999990REMMET051METAR EDHK 050750Z 25007KT 9999 OVC009 17/15 Q1025=
0139100465999992013070508204+54380+010145FM-15+003199999V0202401N004610030519N009999199+01801+01501999999ADDGA1071+003051991GA2071+005181991GE19MSL   +99999+99999MA1102601999990REMMET058METAR EDHK 050820Z 24009KT 9999 BKN010 BKN017 18/15 Q1026=
0116100465999992013070508504+54380+010145FM-15+003199999V0202501N004110039619N009999199+01801+01501999999ADDGA1071+003961991GE19MSL   +99999+99999MA1102601999990REMMET051METAR EDHK 050850Z 25008KT 9999 BKN013 18/15 Q1026=
0139100465999992013070509204+54380+010145FM-15+003199999V0202601N005110030519N009000199+01801+01601999999ADDGA1071+003051991GA2071+004271991GE19MSL   +99999+99999MA1102601999990REMMET058METAR EDHK 050920Z 26010KT 9000 BKN010 BKN014 18/16 Q1026=
0162100465999992013070509504+54380+010145FM-15+003199999V0202701N005710042719N009000199+01801+01501999999ADDGA1041+003051991GA2071+004271991GA3081+008531991GE19MSL   +99999+99999MA1102601999990REMMET065METAR EDHK 050950Z 27011KT 9000 SCT010 BKN014 OVC028 18/15 Q1026=
0162100465999992013070510204+54380+010145FM-15+003199999V0202601N004110073219N009999199+01901+01501999999ADDGA1041+002741991GA2071+007321991GA3081+011281991GE19MSL   +99999+99999MA1102601999990REMMET065METAR EDHK 051020Z 26008KT 9999 SCT009 BKN024 OVC037 19/15 Q1026=
0147100465999992013070510504+54380+010145FM-15+003199999V0202501V003610094519N009999199+01901+01401999999ADDGA1021+004881991GA2071+009451991GE19MSL   +99999+99999MA1102601999990REMMET066METAR EDHK 051050Z 25007KT 200V290 9999 FEW016 BKN031 19/14 Q1026=
0124100465999992013070511204+54380+010145FM-15+003199999V0202601V004110054919N009999199+02001+01501999999ADDGA1071+005491991GE19MSL   +99999+99999MA1102701999990REMMET059METAR EDHK 051120Z 26008KT 200V290 9999 BKN018 20/15 Q1027=
0147100465999992013070511504+54380+010145FM-15+003199999V0202501V003610164619N009999199+02001+01501999999ADDGA1041+005791991GA2071+016461991GE19MSL   +99999+99999MA1102701999990REMMET066METAR EDHK 051150Z 25007KT 220V280 9999 SCT019 BKN054 20/15 Q1027=
0175100465999992013070512204+54380+010145FM-15+003199999V0202901V00571010671CN009999199+02101+01501999999ADDGA1021+006401991GA2041+010671991GA3071+012501991GE19MSL   +99999+99999MA1102701999990REMMET078METAR EDHK 051220Z 29011KT 260V320 9999 FEW021 SCT035 BKN041 21/15      Q1027=
0139100465999992013070512504+54380+010145FM-15+003199999V0202701N005110152419N009999199+02101+01201999999ADDGA1021+009141991GA2071+015241991GE19MSL   +99999+99999MA1102701999990REMMET058METAR EDHK 051250Z 27010KT 9999 FEW030 BKN050 21/12 Q1027=
0124100465999992013070513204+54380+010145FM-15+003199999V0202901V005119999999N009999199+02101+01201999999ADDGA1041+011581991GE19MSL   +99999+99999MA1102701999990REMMET059METAR EDHK 051320Z 29010KT 260V320 9999 SCT038 21/12 Q1027=
0116100465999992013070513504+54380+010145FM-15+003199999V0203101N005719999999N009999199+02101+01101999999ADDGA1041+012501991GE19MSL   +99999+99999MA1102701999990REMMET051METAR EDHK 051350Z 31011KT 9999 SCT041 21/11 Q1027=
0124100465999992013070514204+54380+010145FM-15+003199999V0203001V005719999999N009999199+02101+01101999999ADDGA1041+013111991GE19MSL   +99999+99999MA1102801999990REMMET059METAR EDHK 051420Z 30011KT 270V330 9999 SCT043 21/11 Q1028=
0116100465999992013070514504+54380+010145FM-15+003199999V0202901N005719999999N009999199+02001+01101999999ADDGA1021+014021991GE19MSL   +99999+99999MA1102801999990REMMET051METAR EDHK 051450Z 29011KT 9999 FEW046 20/11 Q1028=
0116100465999992013070515204+54380+010145FM-15+003199999V0202901N006719999999N009999199+02001+01001999999ADDGA1021+013111991GE19MSL   +99999+99999MA1102801999990REMMET051METAR EDHK 051520Z 29013KT 9999 FEW043 20/10 Q1028=
0116100465999992013070515504+54380+010145FM-15+003199999V0202901N005719999999N009999199+01901+01001999999ADDGA1021+013111991GE19MSL   +99999+99999MA1102801999990REMMET051METAR EDHK 051550Z 29011KT 9999 FEW043 19/10 Q1028=
0072100465999992013070516204+54380+010145FM-15+003199999V0202901N005719999999Y999999999+02001+01001999999ADDMA1102801999990REMMET045METAR EDHK 051620Z 29011KT CAVOK 20/10 Q1028=
0084100465999992013070606204+54380+010145FM-15+003199999V0203001V002119999999Y999999999+01401+01101999999ADDMA1103101999990REMMET057METAR COR EDHK 060620Z 30004KT 260V340 CAVOK 14/11 Q1031=
0084100465999992013070606504+54380+010145FM-15+003199999V0203001V002119999999Y999999999+01501+01201999999ADDMA1103101999990REMMET057METAR COR EDHK 060650Z 30004KT 270V330 CAVOK 15/12 Q1031=
0080100465999992013070607204+54380+010145FM-15+003199999V0203301V002119999999Y999999999+01501+01001999999ADDMA1103101999990REMMET053METAR EDHK 060720Z 33004KT 280V350 CAVOK 15/10 Q1031=
0080100465999992013070607504+54380+010145FM-15+003199999V0203301V002119999999Y999999999+01601+00901999999ADDMA1103201999990REMMET053METAR EDHK 060750Z 33004KT 280V010 CAVOK 16/09 Q1032=
0080100465999992013070608204+54380+010145FM-15+003199999V0203301V002119999999Y999999999+01701+00801999999ADDMA1103201999990REMMET053METAR EDHK 060820Z 33004KT 290V030 CAVOK 17/08 Q1032=
0080100465999992013070608504+54380+010145FM-15+003199999V0203501V002119999999Y999999999+01801+00901999999ADDMA1103201999990REMMET053METAR EDHK 060850Z 35004KT 300V070 CAVOK 18/09 Q1032=
0072100465999992013070609204+54380+010145FM-15+003199999V0209999V001519999999Y999999999+01701+00701999999ADDMA1103201999990REMMET045METAR EDHK 060920Z VRB03KT CAVOK 17/07 Q1032=
0072100465999992013070609504+54380+010145FM-15+003199999V0209999V002119999999Y999999999+01801+00701999999ADDMA1103201999990REMMET045METAR EDHK 060950Z VRB04KT CAVOK 18/07 Q1032=
0080100465999992013070610204+54380+010145FM-15+003199999V0200801V003119999999Y999999999+01901+01001999999ADDMA1103201999990REMMET053METAR EDHK 061020Z 08006KT 020V120 CAVOK 19/10 Q1032=
0072100465999992013070610504+54380+010145FM-15+003199999V0200801N004619999999Y999999999+01801+00801999999ADDMA1103201999990REMMET045METAR EDHK 061050Z 08009KT CAVOK 18/08 Q1032=
0072100465999992013070611204+54380+010145FM-15+003199999V0200901N003619999999Y999999999+01801+00801999999ADDMA1103201999990REMMET045METAR EDHK 061120Z 09007KT CAVOK 18/08 Q1032=
0072100465999992013070611504+54380+010145FM-15+003199999V0201001N004119999999Y999999999+01901+00901999999ADDMA1103201999990REMMET045METAR EDHK 061150Z 10008KT CAVOK 19/09 Q1032=
0080100465999992013070612204+54380+010145FM-15+003199999V0200901V003619999999Y999999999+01901+01001999999ADDMA1103201999990REMMET053METAR EDHK 061220Z 09007KT 060V120 CAVOK 19/10 Q1032=
0080100465999992013070613204+54380+010145FM-15+003199999V0200401V002119999999Y999999999+01901+00901999999ADDMA1103201999990REMMET053METAR EDHK 061320Z 04004KT 330V090 CAVOK 19/09 Q1032=
0080100465999992013070613504+54380+010145FM-15+003199999V0200301V002119999999Y999999999+02001+01001999999ADDMA1103101999990REMMET053METAR EDHK 061350Z 03004KT 330V080 CAVOK 20/10 Q1031=
0072100465999992013070614504+54380+010145FM-15+003199999V0200801N003119999999Y999999999+02001+01001999999ADDMA1103101999990REMMET045METAR EDHK 061450Z 08006KT CAVOK 20/10 Q1031=
0072100465999992013070615204+54380+010145FM-15+003199999V0200801N003619999999Y999999999+02001+01001999999ADDMA1103101999990REMMET045METAR EDHK 061520Z 08007KT CAVOK 20/10 Q1031=
0080100465999992013070615504+54380+010145FM-15+003199999V0200401V003619999999Y999999999+02001+01001999999ADDMA1103101999990REMMET053METAR EDHK 061550Z 04007KT 020V080 CAVOK 20/10 Q1031=
0072100465999992013070616204+54380+010145FM-15+003199999V0200601N003119999999Y999999999+01901+00901999999ADDMA1103101999990REMMET045METAR EDHK 061620Z 06006KT CAVOK 19/09 Q1031=
0080100465999992013070616504+54380+010145FM-15+003199999V0200501V003619999999Y999999999+01901+01101999999ADDMA1103101999990REMMET053METAR EDHK 061650Z 05007KT 020V090 CAVOK 19/11 Q1031=
0072100465999992013070617204+54380+010145FM-15+003199999V0200401N003619999999Y999999999+01901+01001999999ADDMA1103101999990REMMET045METAR EDHK 061720Z 04007KT CAVOK 19/10 Q1031=
0080100465999992013070617504+54380+010145FM-15+003199999V0200501V003119999999Y999999999+01901+00901999999ADDMA1103101999990REMMET053METAR EDHK 061750Z 05006KT 030V090 CAVOK 19/09 Q1031=
0072100465999992013070706204+54380+010145FM-15+003199999V0209999V000519999999Y999999999+01701+01501999999ADDMA1103201999990REMMET045METAR EDHK 070620Z VRB01KT CAVOK 17/15 Q1032=
0072100465999992013070706504+54380+010145FM-15+003199999V0209999V000519999999Y999999999+01901+01501999999ADDMA1103201999990REMMET045METAR EDHK 070650Z VRB01KT CAVOK 19/15 Q1032=
0072100465999992013070707204+54380+010145FM-15+003199999V0209999V001019999999Y999999999+01901+01501999999ADDMA1103201999990REMMET045METAR EDHK 070720Z VRB02KT CAVOK 19/15 Q1032=
0080100465999992013070710504+54380+010145FM-15+003199999V0200801V003119999999Y999999999+02101+01101999999ADDMA1103301999990REMMET053METAR EDHK 071050Z 08006KT 040V120 CAVOK 21/11 Q1033=
0080100465999992013070711204+54380+010145FM-15+003199999V0200401V003119999999Y999999999+02101+01101999999ADDMA1103301999990REMMET053METAR EDHK 071120Z 04006KT 010V070 CAVOK 21/11 Q1033=
0080100465999992013070711504+54380+010145FM-15+003199999V0200401V003119999999Y999999999+02101+01101999999ADDMA1103201999990REMMET053METAR EDHK 071150Z 04006KT 350V100 CAVOK 21/11 Q1032=
0080100465999992013070712204+54380+010145FM-15+003199999V0200301V003619999999Y999999999+02201+01101999999ADDMA1103201999990REMMET053METAR EDHK 071220Z 03007KT 350V070 CAVOK 22/11 Q1032=
0080100465999992013070712504+54380+010145FM-15+003199999V0200401V003119999999Y999999999+02301+01301999999ADDMA1103201999990REMMET053METAR EDHK 071250Z 04006KT 350V080 CAVOK 23/13 Q1032=
0080100465999992013070713204+54380+010145FM-15+003199999V0200401V003119999999Y999999999+02201+01101999999ADDMA1103201999990REMMET053METAR EDHK 071320Z 04006KT 360V080 CAVOK 22/11 Q1032=
0072100465999992013070713504+54380+010145FM-15+003199999V0200801N004119999999Y999999999+02101+01201999999ADDMA1103201999990REMMET045METAR EDHK 071350Z 08008KT CAVOK 21/12 Q1032=
0072100465999992013070714204+54380+010145FM-15+003199999V0200601N003619999999Y999999999+02201+01201999999ADDMA1103201999990REMMET045METAR EDHK 071420Z 06007KT CAVOK 22/12 Q1032=
0072100465999992013070714504+54380+010145FM-15+003199999V0200401N003119999999Y999999999+02101+01301999999ADDMA1103201999990REMMET045METAR EDHK 071450Z 04006KT CAVOK 21/13 Q1032=
0072100465999992013070715204+54380+010145FM-15+003199999V0200401N003619999999Y999999999+02201+01301999999ADDMA1103201999990REMMET045METAR EDHK 071520Z 04007KT CAVOK 22/13 Q1032=
0072100465999992013070715504+54380+010145FM-15+003199999V0200301N002619999999Y999999999+02201+01401999999ADDMA1103101999990REMMET045METAR EDHK 071550Z 03005KT CAVOK 22/14 Q1031=
0072100465999992013070716204+54380+010145FM-15+003199999V0200501N003119999999Y999999999+02101+01301999999ADDMA1103101999990REMMET045METAR EDHK 071620Z 05006KT CAVOK 21/13 Q1031=
0072100465999992013070716504+54380+010145FM-15+003199999V0200601N002119999999Y999999999+02201+01301999999ADDMA1103101999990REMMET045METAR EDHK 071650Z 06004KT CAVOK 22/13 Q1031=
0072100465999992013070717204+54380+010145FM-15+003199999V0200501N002119999999Y999999999+02101+01301999999ADDMA1103101999990REMMET045METAR EDHK 071720Z 05004KT CAVOK 21/13 Q1031=
0072100465999992013070804504+54380+010145FM-15+003199999V0202901N002119999999Y999999999+01301+01201999999ADDMA1103201999990REMMET045METAR EDHK 080450Z 29004KT CAVOK 13/12 Q1032=
0072100465999992013070805204+54380+010145FM-15+003199999V0203201N002119999999Y999999999+01401+01201999999ADDMA1103201999990REMMET045METAR EDHK 080520Z 32004KT CAVOK 14/12 Q1032=
0072100465999992013070805504+54380+010145FM-15+003199999V0209999V001519999999Y999999999+01601+01401999999ADDMA1103201999990REMMET045METAR EDHK 080550Z VRB03KT CAVOK 16/14 Q1032=
0072100465999992013070806204+54380+010145FM-15+003199999V0209999V001519999999Y999999999+01701+01301999999ADDMA1103201999990REMMET045METAR EDHK 080620Z VRB03KT CAVOK 17/13 Q1032=
0072100465999992013070806504+54380+010145FM-15+003199999V0209999V001519999999Y999999999+01801+01301999999ADDMA1103201999990REMMET045METAR EDHK 080650Z VRB03KT CAVOK 18/13 Q1032=
0080100465999992013070807204+54380+010145FM-15+003199999V0203101V002619999999Y999999999+01801+01001999999ADDMA1103201999990REMMET053METAR EDHK 080720Z 31005KT 260V330 CAVOK 18/10 Q1032=
0080100465999992013070807504+54380+010145FM-15+003199999V0202901V002119999999Y999999999+02001+01201999999ADDMA1103201999990REMMET053METAR EDHK 080750Z 29004KT 260V330 CAVOK 20/12 Q1032=
0080100465999992013070808204+54380+010145FM-15+003199999V0202801V002619999999Y999999999+02001+00901999999ADDMA1103201999990REMMET053METAR EDHK 080820Z 28005KT 250V320 CAVOK 20/09 Q1032=
0072100465999992013070808504+54380+010145FM-15+003199999V0202701N003119999999Y999999999+02001+00801999999ADDMA1103201999990REMMET045METAR EDHK 080850Z 27006KT CAVOK 20/08 Q1032=
0072100465999992013070809204+54380+010145FM-15+003199999V0202901N003619999999Y999999999+02001+00801999999ADDMA1103201999990REMMET045METAR EDHK 080920Z 29007KT CAVOK 20/08 Q1032=
0080100465999992013070809504+54380+010145FM-15+003199999V0202801V002119999999Y999999999+02101+01001999999ADDMA1103201999990REMMET053METAR EDHK 080950Z 28004KT 230V300 CAVOK 21/10 Q1032=
0072100465999992013070810204+54380+010145FM-15+003199999V0202701N004119999999Y999999999+02201+00801999999ADDMA1103201999990REMMET045METAR EDHK 081020Z 27008KT CAVOK 22/08 Q1032=
0080100465999992013070810504+54380+010145FM-15+003199999V0202901V004119999999Y999999999+02301+01101999999ADDMA1103201999990REMMET053METAR EDHK 081050Z 29008KT 250V330 CAVOK 23/11 Q1032=
0080100465999992013070811204+54380+010145FM-15+003199999V0203101V003619999999Y999999999+02401+01001999999ADDMA1103101999990REMMET053METAR EDHK 081120Z 31007KT 270V360 CAVOK 24/10 Q1031=
0080100465999992013070811504+54380+010145FM-15+003199999V0203101V004619999999Y999999999+02401+01001999999ADDMA1103101999990REMMET053METAR EDHK 081150Z 31009KT 280V340 CAVOK 24/10 Q1031=
0072100465999992013070812204+54380+010145FM-15+003199999V0203201N004119999999Y999999999+02401+00801999999ADDMA1103101999990REMMET045METAR EDHK 081220Z 32008KT CAVOK 24/08 Q1031=
0072100465999992013070812504+54380+010145FM-15+003199999V0203101N004119999999Y999999999+02401+00701999999ADDMA1103101999990REMMET045METAR EDHK 081250Z 31008KT CAVOK 24/07 Q1031=
0072100465999992013070813204+54380+010145FM-15+003199999V0203301N004119999999Y999999999+02401+00701999999ADDMA1103101999990REMMET045METAR EDHK 081320Z 33008KT CAVOK 24/07 Q1031=
0072100465999992013070813504+54380+010145FM-15+003199999V0203501N003619999999Y999999999+02401+00801999999ADDMA1103001999990REMMET045METAR EDHK 081350Z 35007KT CAVOK 24/08 Q1030=
0072100465999992013070814204+54380+010145FM-15+003199999V0200501N003619999999Y999999999+02401+00901999999ADDMA1103001999990REMMET045METAR EDHK 081420Z 05007KT CAVOK 24/09 Q1030=
0072100465999992013070814504+54380+010145FM-15+003199999V0200401N003619999999Y999999999+02401+01101999999ADDMA1103001999990REMMET045METAR EDHK 081450Z 04007KT CAVOK 24/11 Q1030=
0064100465999992013070815204+54380+010145FM-15+003199999V0209999N999999999999Y999999999+02301+01001999999ADDMA1103001999990REMMET037METAR EDHK 081520Z CAVOK 23/10 Q1030=
0072100465999992013070815504+54380+010145FM-15+003199999V0200301N003619999999Y999999999+02301+01001999999ADDMA1103001999990REMMET045METAR EDHK 081550Z 03007KT CAVOK 23/10 Q1030=
0072100465999992013070816204+54380+010145FM-15+003199999V0200201N002619999999Y999999999+02301+01101999999ADDMA1103001999990REMMET045METAR EDHK 081620Z 02005KT CAVOK 23/11 Q1030=
0072100465999992013070904504+54380+010145FM-15+003199999V0202801N002119999999Y999999999+01301+01201999999ADDMA1102801999990REMMET045METAR EDHK 090450Z 28004KT CAVOK 13/12 Q1028=
0072100465999992013070905204+54380+010145FM-15+003199999V0202701N002619999999Y999999999+01401+01201999999ADDMA1102701999990REMMET045METAR EDHK 090520Z 27005KT CAVOK 14/12 Q1027=
0072100465999992013070905504+54380+010145FM-15+003199999V0202801N001519999999Y999999999+01501+01301999999ADDMA1102701999990REMMET045METAR EDHK 090550Z 28003KT CAVOK 15/13 Q1027=
0072100465999992013070906204+54380+010145FM-15+003199999V0209999V001519999999Y999999999+01601+01401999999ADDMA1102701999990REMMET045METAR EDHK 090620Z VRB03KT CAVOK 16/14 Q1027=
0072100465999992013070906504+54380+010145FM-15+003199999V0209999V001519999999Y999999999+01801+01401999999ADDMA1102701999990REMMET045METAR EDHK 090650Z VRB03KT CAVOK 18/14 Q1027=
0072100465999992013070907204+54380+010145FM-15+003199999V0209999V001519999999Y999999999+01901+01401999999ADDMA1102701999990REMMET045METAR EDHK 090720Z VRB03KT CAVOK 19/14 Q1027=
0080100465999992013070907504+54380+010145FM-15+003199999V0203301V002119999999Y999999999+02001+01501999999ADDMA1102701999990REMMET053METAR EDHK 090750Z 33004KT 270V010 CAVOK 20/15 Q1027=
0072100465999992013070908204+54380+010145FM-15+003199999V0209999V001519999999Y999999999+02001+01401999999ADDMA1102601999990REMMET045METAR EDHK 090820Z VRB03KT CAVOK 20/14 Q1026=
0080100465999992013070908504+54380+010145FM-15+003199999V0203201V002119999999Y999999999+02101+01101999999ADDMA1102601999990REMMET053METAR EDHK 090850Z 32004KT 270V020 CAVOK 21/11 Q1026=
0072100465999992013070909204+54380+010145FM-15+003199999V0209999V001519999999Y999999999+02201+01201999999ADDMA1102601999990REMMET045METAR EDHK 090920Z VRB03KT CAVOK 22/12 Q1026=
0072100465999992013070909504+54380+010145FM-15+003199999V0209999V001519999999Y999999999+02201+01201999999ADDMA1102601999990REMMET045METAR EDHK 090950Z VRB03KT CAVOK 22/12 Q1026=
0072100465999992013070910204+54380+010145FM-15+003199999V0209999V001519999999Y999999999+02201+01201999999ADDMA1102601999990REMMET045METAR EDHK 091020Z VRB03KT CAVOK 22/12 Q1026=
0072100465999992013070910504+54380+010145FM-15+003199999V0209999V001519999999Y999999999+02201+01401999999ADDMA1102601999990REMMET045METAR EDHK 091050Z VRB03KT CAVOK 22/14 Q1026=
0080100465999992013070911204+54380+010145FM-15+003199999V0203101V003619999999Y999999999+02301+01101999999ADDMA1102501999990REMMET053METAR EDHK 091120Z 31007KT 260V360 CAVOK 23/11 Q1025=
0080100465999992013070911504+54380+010145FM-15+003199999V0202901V004119999999Y999999999+02301+01101999999ADDMA1102501999990REMMET053METAR EDHK 091150Z 29008KT 250V350 CAVOK 23/11 Q1025=
0080100465999992013070912204+54380+010145FM-15+003199999V0203001V003619999999Y999999999+02401+01201999999ADDMA1102501999990REMMET053METAR EDHK 091220Z 30007KT 250V350 CAVOK 24/12 Q1025=
0080100465999992013070912504+54380+010145FM-15+003199999V0202901V004119999999Y999999999+02401+00901999999ADDMA1102401999990REMMET053METAR EDHK 091250Z 29008KT 260V330 CAVOK 24/09 Q1024=
0080100465999992013070913204+54380+010145FM-15+003199999V0203101V004119999999Y999999999+02401+00801999999ADDMA1102401999990REMMET053METAR EDHK 091320Z 31008KT 260V350 CAVOK 24/08 Q1024=
0072100465999992013070913504+54380+010145FM-15+003199999V0203101N003619999999Y999999999+02401+00801999999ADDMA1102401999990REMMET045METAR EDHK 091350Z 31007KT CAVOK 24/08 Q1024=
0072100465999992013070914204+54380+010145FM-15+003199999V0203001N003619999999Y999999999+02401+00701999999ADDMA1102401999990REMMET045METAR EDHK 091420Z 30007KT CAVOK 24/07 Q1024=
0072100465999992013070914504+54380+010145FM-15+003199999V0203101N003619999999Y999999999+02401+00701999999ADDMA1102301999990REMMET045METAR EDHK 091450Z 31007KT CAVOK 24/07 Q1023=
