0135100465999992009010100204+54367+010133FM-15+0031EDHK V0202401N003110072019N0045001N1-00101-00301999999ADDGA1071+007201999GF107991999999999999999999MA1102401999999MW1101REMMET060METAR EDHK 010020Z 24006KT 4500 BR BKN024 M01/M03 Q1024 GRN;
0135100465999992009010101204+54367+010133FM-15+0031EDHK V0202401N004610075019N0050001N1-00201-00301999999ADDGA1071+007501999GF107991999999999999999999MA1102401999999MW1101REMMET060METAR EDHK 010120Z 24009KT 5000 BR BKN025 M02/M03 Q1024 WHT;
0135100465999992009010102204+54367+010133FM-15+0031EDHK V0202401N004610081019N0050001N1-00201-00301999999ADDGA1071+008101999GF107991999999999999999999MA1102401999999MW1101REMMET060METAR EDHK 010220Z 24009KT 5000 BR BKN027 M02/M03 Q1024 WHT;
0135100465999992009010103204+54367+010133FM-15+0031EDHK V0202401N004610075019N0050001N1-00201-00301999999ADDGA1071+007501999GF107991999999999999999999MA1102401999999MW1101REMMET060METAR EDHK 010320Z 24009KT 5000 BR BKN025 M02/M03 Q1024 WHT;
0135100465999992009010104134+54367+010133FM-16+0031EDHK V0202501N004612200019N0045001N1-00201-00301999999ADDGA1021+007501999GF102991999999999999999999MA1102401999999MW1101REMMET060SPECI EDHK 010413Z 25009KT 4500 BR FEW025 M02/M03 Q1024 GRN;
0135100465999992009010104204+54367+010133FM-15+0031EDHK V0202401N004612200019N0045001N1-00201-00301999999ADDGA1021+007501999GF102991999999999999999999MA1102401999999MW1101REMMET060METAR EDHK 010420Z 24009KT 4500 BR FEW025 M02/M03 Q1024 GRN;
0135100465999992009010105204+54367+010133FM-15+0031EDHK V0202601N003612200019N0045001N1-00301-00301999999ADDGA1021+069001999GF102991999999999999999999MA1102301999999MW1101REMMET060METAR EDHK 010520Z 26007KT 4500 BR FEW230 M03/M03 Q1023 GRN;
0086100465999992009010106204+54367+010133FM-15+0031EDHK V0202501N003112200019N0040001N1-00301-00401999999ADDMA1102301999999MW1101REMMET053METAR EDHK 010620Z 25006KT 4000 BR M03/M04 Q1023 GRN;
0135100465999992009010107004+54367+010133FM-15+0031EDHK V0202101N001512200019N0025001N1-00301-00301999999ADDGA1021+006001999GF102991999999999999999999MA1102401999999MW1101REMMET060SPECI EDHK 010655Z 21003KT 2500 BR FEW020 M03/M03 Q1024 YLO;
0135100465999992009010107204+54367+010133FM-15+0031EDHK V0202401N002112200019N0023001N1-00301-00401999999ADDGA1021+006001999GF102991999999999999999999MA1102401999999MW1101REMMET060METAR EDHK 010720Z 24004KT 2300 BR FEW020 M03/M04 Q1024 YLO;
0146100465999992009010108204+54367+010133FM-15+0031EDHK V0202601N001512200019N0030001N1-00401-00401999999ADDGA1021+006001999GF102991999999999999999999MA1102401999999MW1101MW2121REMMET065METAR EDHK 010820Z 26003KT 3000 MIFG BR FEW020 M04/M04 Q1024 YLO;
0146100465999992009010108364+54367+010133FM-16+0031EDHK V0209999V001010021019N0030001N1-00401-00401999999ADDGA1071+002101999GF107991999999999999999999MA1102511999999MW1101MW2121REMMET065SPECI EDHK 010836Z VRB02KT 3000 MIFG BR BKN007 M04/M04 Q1025 YLO;
0135100465999992009010109204+54367+010133FM-15+0031EDHK V0202401N001510015019N0050001N1-00201-00201999999ADDGA1071+001501999GF107991999999999999999999MA1102511999999MW1101REMMET060METAR EDHK 010920Z 24003KT 5000 BR BKN005 M02/M02 Q1025 YLO;
0158100465999992009010110204+54367+010133FM-15+0031EDHK V0202701N002110021019N0050001N1+00001+00001999999ADDGA1021+001501999GA2071+002101999GF107991999999999999999999MA1102511999999MW1101REMMET067METAR EDHK 011020Z 27004KT 5000 BR FEW005 BKN007 M00/M00 Q1025 GRN;
0124100465999992009010111204+54367+010133FM-15+0031EDHK V0203501N001510018019N0060001N1+00101+00101999999ADDGA1071+001801999GF107991999999999999999999MA1102511999999REMMET055METAR EDHK 011120Z 35003KT 6000 BKN006 01/01 Q1025 YLO;
0124100465999992009010112204+54367+010133FM-15+0031EDHK V0202801N001510021019N0080001N1+00101+00101999999ADDGA1071+002101999GF107991999999999999999999MA1102611999999REMMET055METAR EDHK 011220Z 28003KT 8000 BKN007 01/01 Q1026 GRN;
0124100465999992009010113204+54367+010133FM-15+0031EDHK V0202801N001510030019N0112651N1+00101+00101999999ADDGA1071+003001999GF107991999999999999999999MA1102611999999REMMET055METAR EDHK 011320Z 28003KT 9999 BKN010 01/01 Q1026 GRN;
0124100465999992009010114204+54367+010133FM-15+0031EDHK V0200701N001510036019N0112651N1+00101+00101999999ADDGA1071+003601999GF107991999999999999999999MA1102611999999REMMET055METAR EDHK 011420Z 07003KT 9999 BKN012 01/01 Q1026 GRN;
0125100465999992009010115204+54367+010133FM-15+0031EDHK V0200901N001010036019N0090001N1+00101+00001999999ADDGA1071+003601999GF107991999999999999999999MA1102611999999REMMET056METAR EDHK 011520Z 09002KT 9000 BKN012 01/M00 Q1026 GRN;
0148100465999992009010116204+54367+010133FM-15+0031EDHK V0201501N001510045019N0080001N1+00101-00101999999ADDGA1071+004501999GA2071+024001999GF107991999999999999999999MA1102711999999REMMET063METAR EDHK 011620Z 15003KT 8000 BKN015 BKN080 01/M01 Q1027 WHT;
0148100465999992009010117204+54367+010133FM-15+0031EDHK V0201601N001010240019N0080001N1+00001-00101999999ADDGA1021+006001999GA2071+024001999GF107991999999999999999999MA1102711999999REMMET063METAR EDHK 011720Z 16002KT 8000 FEW020 BKN080 00/M01 Q1027 BLU;
0157100465999992009010118204+54367+010133FM-15+0031EDHK V0201901N001010240019N0050001N1+00001-00101999999ADDGA1041+006001999GA2071+024001999GF107991999999999999999999MA1102711999999MW1101REMMET066METAR EDHK 011820Z 19002KT 5000 BR SCT020 BKN080 00/M01 Q1027 WHT;
0134100465999992009010118404+54367+010133FM-16+0031EDHK V0202301N001010039019N0040001N1+00001-00101999999ADDGA1071+003901999GF107991999999999999999999MA1102711999999MW1101REMMET059SPECI EDHK 011840Z 23002KT 4000 BR BKN013 00/M01 Q1027 GRN;
0135100465999992009010119204+54367+010133FM-15+0031EDHK V0202401N001510036019N0035001N1+00001-00101999999ADDGA1071+003601999GF107991999999999999999999MA1102711999999MW1101REMMET060METAR EDHK 011920Z 24003KT 3500 BR BKN012 M00/M01 Q1027 YLO;
0135100465999992009010120204+54367+010133FM-15+0031EDHK V0202201N001510030019N0035001N1+00001+00001999999ADDGA1071+003001999GF107991999999999999999999MA1102711999999MW1101REMMET060METAR EDHK 012020Z 22003KT 3500 BR BKN010 M00/M00 Q1027 YLO;
0135100465999992009010121204+54367+010133FM-15+0031EDHK V0202801N001510027019N0035001N1+00001-00101999999ADDGA1071+002701999GF107991999999999999999999MA1102711999999MW1101REMMET060METAR EDHK 012120Z 28003KT 3500 BR BKN009 M00/M01 Q1027 YLO;
0158100465999992009010122204+54367+010133FM-15+0031EDHK V0202801N001010060019N0035001N1-00101-00101999999ADDGA1041+002101999GA2071+006001999GF107991999999999999999999MA1102611999999MW1101REMMET067METAR EDHK 012220Z 28002KT 3500 BR SCT007 BKN020 M01/M01 Q1026 YLO;
0158100465999992009010123204+54367+010133FM-15+0031EDHK V0209999V001010240019N0035001N1-00101-00101999999ADDGA1041+007201999GA2071+024001999GF107991999999999999999999MA1102611999999MW1101REMMET067METAR EDHK 012320Z VRB02KT 3500 BR SCT024 BKN080 M01/M01 Q1026 YLO;
0181100465999992009010200204+54367+010133FM-15+0031EDHK V0202401N00151015001CN0035001N1-00101-00101999999ADDGA1041+006601999GA2041+015001999GA3071+024001999GF107991999999999999999999MA1102611999999MW1101REMMET074METAR EDHK 020020Z 24003KT 3500 BR SCT022 SCT050 BKN080 M01/M01 Q1026 YLO;
0158100465999992009010201204+54367+010133FM-15+0031EDHK V0202601N001010150019N0030001N1-00101-00101999999ADDGA1041+003001999GA2071+015001999GF107991999999999999999999MA1102611999999MW1101REMMET067METAR EDHK 020120Z 26002KT 3000 BR SCT010 BKN050 M01/M01 Q1026 YLO;
0158100465999992009010201434+54367+010133FM-16+0031EDHK V0209999V001010045019N0050001N1-00101-00101999999ADDGA1071+004501999GA2071+015001999GF107991999999999999999999MA1102611999999MW1101REMMET067SPECI EDHK 020143Z VRB02KT 5000 BR BKN015 BKN050 M01/M01 Q1026 WHT;
0148100465999992009010202204+54367+010133FM-15+0031EDHK V0200401N004110240019N0112651N1+00101-00101999999ADDGA1041+004501999GA2071+024001999GF107991999999999999999999MA1102611999999REMMET063METAR EDHK 020220Z 04008KT 9999 SCT015 BKN080 01/M01 Q1026 BLU;
0148100465999992009010203204+54367+010133FM-15+0031EDHK V0200401N004110240019N0112651N1+00101-00201999999ADDGA1041+006001999GA2071+024001999GF107991999999999999999999MA1102611999999REMMET063METAR EDHK 020320Z 04008KT 9999 SCT020 BKN080 01/M02 Q1026 BLU;
0148100465999992009010204204+54367+010133FM-15+0031EDHK V0200501N003610240019N0112651N1+00001-00301999999ADDGA1021+006001999GA2071+024001999GF107991999999999999999999MA1102611999999REMMET063METAR EDHK 020420Z 05007KT 9999 FEW020 BKN080 00/M03 Q1026 BLU;
0150100465999992009010205204+54367+010133FM-15+0031EDHK V0200401N003112200019N0112651N1+00001-00401999999ADDGA1021+024001999GA2041+066001999GF104991999999999999999999MA1102611999999REMMET065METAR EDHK 020520Z 04006KT 9999 FEW080 SCT220 M00/M04 Q1026 BLU/;
0150100465999992009010206204+54367+010133FM-15+0031EDHK V0200301N003612200019N0112651N1-00101-00601999999ADDGA1041+024001999GA2041+066001999GF104991999999999999999999MA1102711999999REMMET065METAR EDHK 020620Z 03007KT 9999 SCT080 SCT220 M01/M06 Q1027 BLU/;
0127100465999992009010207204+54367+010133FM-15+0031EDHK V0200301N003112200019N0112651N1-00101-00501999999ADDGA1021+024001999GF102991999999999999999999MA1102811999999REMMET058METAR EDHK 020720Z 03006KT 9999 FEW080 M01/M05 Q1028 BLU/;
0127100465999992009010208204+54367+010133FM-15+0031EDHK V0200301N002112200019N0112651N1-00301-00601999999ADDGA1021+006001999GF102991999999999999999999MA1102811999999REMMET058METAR EDHK 020820Z 03004KT 9999 FEW020 M03/M06 Q1028 BLU/;
0126100465999992009010209204+54367+010133FM-15+0031EDHK V0200201N004112200019N0112651N1+00001-00401999999ADDGA1021+006001999GF102991999999999999999999MA1102911999999REMMET057METAR EDHK 020920Z 02008KT 9999 FEW020 00/M04 Q1029 BLU/;
0126100465999992009010210204+54367+010133FM-15+0031EDHK V0200401N004112200019N0112651N1+00101-00401999999ADDGA1021+006001999GF102991999999999999999999MA1102911999999REMMET057METAR EDHK 021020Z 04008KT 9999 FEW020 01/M04 Q1029 BLU/;
0126100465999992009010211204+54367+010133FM-15+0031EDHK V0200201N003112200019N0112651N1+00101-00501999999ADDGA1021+006001999GF102991999999999999999999MA1103011999999REMMET057METAR EDHK 021120Z 02006KT 9999 FEW020 01/M05 Q1030 BLU/;
0126100465999992009010212204+54367+010133FM-15+0031EDHK V0200201N002612200019N0112651N1+00101-00501999999ADDGA1021+006601999GF102991999999999999999999MA1102911999999REMMET057METAR EDHK 021220Z 02005KT 9999 FEW022 01/M05 Q1029 BLU/;
0126100465999992009010213204+54367+010133FM-15+0031EDHK V0200201N002612200019N0112651N1+00101-00401999999ADDGA1021+006601999GF102991999999999999999999MA1102911999999REMMET057METAR EDHK 021320Z 02005KT 9999 FEW022 01/M04 Q1029 BLU/;
0127100465999992009010214204+54367+010133FM-15+0031EDHK V0203401N002112200019N0112651N1+00001-00401999999ADDGA1021+006601999GF102991999999999999999999MA1102911999999REMMET058METAR EDHK 021420Z 34004KT 9999 FEW022 M00/M04 Q1029 BLU/;
0127100465999992009010215204+54367+010133FM-15+0031EDHK V0203201N001512200019N0112651N1-00201-00501999999ADDGA1041+006601999GF104991999999999999999999MA1103011999999REMMET058METAR EDHK 021520Z 32003KT 9999 SCT022 M02/M05 Q1030 BLU/;
0127100465999992009010216204+54367+010133FM-15+0031EDHK V0202701N002112200019N0112651N1-00301-00501999999ADDGA1041+006001999GF104991999999999999999999MA1103011999999REMMET058METAR EDHK 021620Z 27004KT 9999 SCT020 M03/M05 Q1030 BLU/;
0127100465999992009010217204+54367+010133FM-15+0031EDHK V0202601N002612200019N0112651N1-00401-00501999999ADDGA1021+006001999GF102991999999999999999999MA1103011999999REMMET058METAR EDHK 021720Z 26005KT 9999 FEW020 M04/M05 Q1030 BLU/;
0127100465999992009010218204+54367+010133FM-15+0031EDHK V0202601N002112200019N0112651N1-00401-00501999999ADDGA1021+006001999GF102991999999999999999999MA1103011999999REMMET058METAR EDHK 021820Z 26004KT 9999 FEW020 M04/M05 Q1030 BLU/;
0078100465999992009010219204+54367+010133FM-15+0031EDHK V0202401N002112200019N0112651N1-00401-00501999999ADDMA1103011999999REMMET051METAR EDHK 021920Z 24004KT 9999 M04/M05 Q1030 BLU/;
0078100465999992009010220204+54367+010133FM-15+0031EDHK V0202401N002112200019N0112651N1-00501-00501999999ADDMA1103011999999REMMET051METAR EDHK 022020Z 24004KT 9999 M05/M05 Q1030 BLU/;
0078100465999992009010221204+54367+010133FM-15+0031EDHK V0202401N002612200019N0080001N1-00401-00501999999ADDMA1103011999999REMMET051METAR EDHK 022120Z 24005KT 8000 M04/M05 Q1030 BLU/;
0077100465999992009010222204+54367+010133FM-15+0031EDHK V0202401N002612200019N0070001N1-00401-00401999999ADDMA1103011999999REMMET050METAR EDHK 022220Z 24005KT 7000 M04/M04 Q1030 WHT;
0126100465999992009010223204+54367+010133FM-15+0031EDHK V0202401N003112200019N0070001N1-00401-00401999999ADDGA1021+012001999GF102991999999999999999999MA1102911999999REMMET057METAR EDHK 022320Z 24006KT 7000 FEW040 M04/M04 Q1029 WHT;
0149100465999992009010300204+54367+010133FM-15+0031EDHK V0202301N001512200019N0070001N1-00501-00501999999ADDGA1021+009001999GA2041+066001999GF104991999999999999999999MA1102811999999REMMET064METAR EDHK 030020Z 23003KT 7000 FEW030 SCT220 M05/M05 Q1028 WHT;
0149100465999992009010301204+54367+010133FM-15+0031EDHK V0202301N003612200019N0070001N1-00301-00301999999ADDGA1041+009001999GA2041+066001999GF104991999999999999999999MA1102711999999REMMET064METAR EDHK 030120Z 23007KT 7000 SCT030 SCT220 M03/M03 Q1027 WHT;
0127100465999992009010302204+54367+010133FM-15+0031EDHK V0202301N003612200019N0080001N1-00301-00301999999ADDGA1021+054001999GF102991999999999999999999MA1102711999999REMMET058METAR EDHK 030220Z 23007KT 8000 FEW180 M03/M03 Q1027 BLU/;
0126100465999992009010303204+54367+010133FM-15+0031EDHK V0202301N004610120019N0080001N1-00201-00201999999ADDGA1071+012001999GF107991999999999999999999MA1102711999999REMMET057METAR EDHK 030320Z 23009KT 8000 BKN040 M02/M02 Q1027 BLU;
0126100465999992009010304204+54367+010133FM-15+0031EDHK V0202201N003610120019N0080001N1-00201-00301999999ADDGA1071+012001999GF107991999999999999999999MA1102611999999REMMET057METAR EDHK 030420Z 22007KT 8000 BKN040 M02/M03 Q1026 BLU;
0149100465999992009010305204+54367+010133FM-15+0031EDHK V0202301N005110150019N0080001N1-00101-00201999999ADDGA1041+009001999GA2071+015001999GF107991999999999999999999MA1102511999999REMMET064METAR EDHK 030520Z 23010KT 8000 SCT030 BKN050 M01/M02 Q1025 BLU;
0149100465999992009010306204+54367+010133FM-15+0031EDHK V0202301N004610150019N0090001N1-00101-00201999999ADDGA1041+006001999GA2071+015001999GF107991999999999999999999MA1102301999999REMMET064METAR EDHK 030620Z 23009KT 9000 SCT020 BKN050 M01/M02 Q1023 BLU;
0171100465999992009010307204+54367+010133FM-15+0031EDHK V0202301N00461008401CN0090001N1+00001-00201999999ADDGA1021+003001999GA2041+008401999GA3071+015001999GF107991999999999999999999MA1102301999999REMMET070METAR EDHK 030720Z 23009KT 9000 FEW010 SCT028 BKN050 00/M02 Q1023 BLU;
0181100465999992009010307334+54367+010133FM-16+0031EDHK V0202301N00411008401CN0070001N1+00001-00101999999ADDGA1041+003001999GA2041+008401999GA3071+015001999GF107991999999999999999999MA1102301999999MW1711REMMET074SPECI EDHK 030733Z 23008KT 7000 -SN SCT010 SCT028 BKN050 00/M01 Q1023 WHT;
0171100465999992009010308204+54367+010133FM-15+0031EDHK V0202301N00461008401CN0090001N1+00001-00101999999ADDGA1021+003001999GA2041+008401999GA3071+015001999GF107991999999999999999999MA1102201999999REMMET070METAR EDHK 030820Z 23009KT 9000 FEW010 SCT028 BKN050 00/M01 Q1022 BLU;
0170100465999992009010309204+54367+010133FM-15+0031EDHK V0202301N00571015001CN0112651N1+00101+00001999999ADDGA1021+007801999GA2041+015001999GA3071+039001999GF107991999999999999999999MA1102101999999REMMET069METAR EDHK 030920Z 23011KT 9999 FEW026 SCT050 BKN130 01/00 Q1021 BLU;
0170100465999992009010310204+54367+010133FM-15+0031EDHK V0202401N00571013501CN0112651N1+00201+00101999999ADDGA1021+006601999GA2041+013501999GA3071+033001999GF107991999999999999999999MA1102001999999REMMET069METAR EDHK 031020Z 24011KT 9999 FEW022 SCT045 BKN110 02/01 Q1020 BLU;
0148100465999992009010311204+54367+010133FM-15+0031EDHK V0202401N006212200019N0112651N1+00201+00101999999ADDGA1021+003001999GA2041+013501999GF104991999999999999999999MA1101901999999REMMET063METAR EDHK 031120Z 24012KT 9999 FEW010 SCT045 02/01 Q1019 BLU/;
0147100465999992009010312204+54367+010133FM-15+0031EDHK V0202401N007210120019N0112651N1+00401+00201999999ADDGA1021+004501999GA2071+012001999GF107991999999999999999999MA1101801999999REMMET062METAR EDHK 031220Z 24014KT 9999 FEW015 BKN040 04/02 Q1018 BLU;
0180100465999992009010313204+54367+010133FM-15+0031EDHK V0202401N00771004501CN0112651N1+00301+00201999999ADDGA1041+003001999GA2041+004501999GA3071+009001999GF107991999999999999999999MA1101691999999MW1611REMMET073METAR EDHK 031320Z 24015KT 9999 -RA SCT010 SCT015 BKN030 03/02 Q1017 BLU;
0134100465999992009010314204+54367+010133FM-15+0031EDHK V0202401N008210048019N0112651N1+00301+00201999999ADDGA1071+004801999GF107991999999999999999999MA1101591999999MW1611REMMET059METAR EDHK 031420Z 24016KT 9999 -RA BKN016 03/02 Q1016 WHT;
0134100465999992009010315204+54367+010133FM-15+0031EDHK V0202401N006710048019N0112651N1+00301+00201999999ADDGA1071+004801999GF107991999999999999999999MA1101491999999MW1611REMMET059METAR EDHK 031520Z 24013KT 9999 -RA BKN016 03/02 Q1015 WHT;
0166100465999992009010316024+54367+010133FM-16+0031EDHK V0202501N008210027019N0045001N1+00301+00201999999ADDGA1071+002701999GA2071+004501999GF107991999999999999999999MA1101491999999MW1101MW2611REMMET069SPECI EDHK 031602Z 25016KT 4500 -RA BR BKN009 BKN015 03/02 Q1015 GRN;
0143100465999992009010316204+54367+010133FM-15+0031EDHK V0202501N008210027019N0045001N1+00301+00201999999ADDGA1071+002701999GF107991999999999999999999MA1101391999999MW1101MW2611REMMET062METAR EDHK 031620Z 25016KT 4500 -RA BR BKN009 03/02 Q1014 GRN;
0134100465999992009010316464+54367+010133FM-16+0031EDHK V0202501N007210027019N0060001N1+00301+00301999999ADDGA1071+002701999GF107991999999999999999999MA1101391999999MW1611REMMET059SPECI EDHK 031646Z 25014KT 6000 -RA BKN009 03/03 Q1014 GRN;
0134100465999992009010317204+54367+010133FM-15+0031EDHK V0202501N007710030019N0060001N1+00301+00301999999ADDGA1071+003001999GF107991999999999999999999MA1101391999999MW1611REMMET059METAR EDHK 031720Z 25015KT 6000 -RA BKN010 03/03 Q1014 GRN;
0157100465999992009010318204+54367+010133FM-15+0031EDHK V0202601N005710027019N0090001N1+00401+00401999999ADDGA1071+002701999GA2071+005401999GF107991999999999999999999MA1101291999999MW1511REMMET066METAR EDHK 031820Z 26011KT 9000 -DZ BKN009 BKN018 04/04 Q1013 GRN;
0165100465999992009010319204+54367+010133FM-15+0031EDHK V0202701N004110021019N0080001N1+00401+00401999999ADDGA1071+002101999GA2071+005101999GF107991999999999999999999MA1101291999999MW1511MW2611REMMET068METAR EDHK 031920Z 27008KT 8000 -RADZ BKN007 BKN017 04/04 Q1013 GRN;
0124100465999992009010320204+54367+010133FM-15+0031EDHK V0203201N004110015019N0060001N1+00401+00401999999ADDGA1071+001501999GF107991999999999999999999MA1101291999999REMMET055METAR EDHK 032020Z 32008KT 6000 BKN005 04/04 Q1013 YLO;
0180100465999992009010321204+54367+010133FM-15+0031EDHK V0202601N003610114019N0060001N1+00301+00201999999ADDGA1041+002101999GA2071+011401999GA3071+045001999GF107991999999999999999999MA1101391999999MW1611REMMET073METAR EDHK 032120Z 26007KT 6000 -RA SCT007 BKN038 BKN150 03/02 Q1014 WHT;
0170100465999992009010322204+54367+010133FM-15+0031EDHK V0202701N00361010201CN0070001N1+00201+00201999999ADDGA1021+002101999GA2041+010201999GA3071+042001999GF107991999999999999999999MA1101391999999REMMET069METAR EDHK 032220Z 27007KT 7000 FEW007 SCT034 BKN140 02/02 Q1014 WHT;
0147100465999992009010323204+54367+010133FM-15+0031EDHK V0202701N003610360019N0080001N1+00201+00201999999ADDGA1021+009901999GA2071+036001999GF107991999999999999999999MA1101291999999REMMET062METAR EDHK 032320Z 27007KT 8000 FEW033 BKN120 02/02 Q1013 BLU;
0147100465999992009010400204+54367+010133FM-15+0031EDHK V0202901N002610330019N0080001N1+00201+00201999999ADDGA1041+013501999GA2071+033001999GF107991999999999999999999MA1101291999999REMMET062METAR EDHK 040020Z 29005KT 8000 SCT045 BKN110 02/02 Q1013 BLU;
0147100465999992009010401204+54367+010133FM-15+0031EDHK V0202601N002610138019N0090001N1+00201+00201999999ADDGA1071+013801999GA2071+024001999GF107991999999999999999999MA1101291999999REMMET062METAR EDHK 040120Z 26005KT 9000 BKN046 BKN080 02/02 Q1013 BLU;
0170100465999992009010402204+54367+010133FM-15+0031EDHK V0202601N00311013501CN0090001N1+00101+00101999999ADDGA1021+005401999GA2041+013501999GA3071+030001999GF107991999999999999999999MA1101291999999REMMET069METAR EDHK 040220Z 26006KT 9000 FEW018 SCT045 BKN100 01/01 Q1013 BLU;
0147100465999992009010403204+54367+010133FM-15+0031EDHK V0202601N003110300019N0112651N1+00101+00101999999ADDGA1021+006001999GA2071+030001999GF107991999999999999999999MA1101291999999REMMET062METAR EDHK 040320Z 26006KT 9999 FEW020 BKN100 01/01 Q1013 BLU;
0147100465999992009010404204+54367+010133FM-15+0031EDHK V0202401N002610240019N0080001N1+00101+00101999999ADDGA1041+005401999GA2071+024001999GF107991999999999999999999MA1101191999999REMMET062METAR EDHK 040420Z 24005KT 8000 SCT018 BKN080 01/01 Q1012 BLU;
0170100465999992009010405204+54367+010133FM-15+0031EDHK V0202701N00151015001CN0080001N1+00101+00101999999ADDGA1021+006001999GA2041+015001999GA3071+030001999GF107991999999999999999999MA1101191999999REMMET069METAR EDHK 040520Z 27003KT 8000 FEW020 SCT050 BKN100 01/01 Q1012 BLU;
0170100465999992009010406204+54367+010133FM-15+0031EDHK V0202501N00101012001CN0112651N1+00001+00001999999ADDGA1041+003001999GA2041+012001999GA3071+033001999GF107991999999999999999999MA1101191999999REMMET069METAR EDHK 040620Z 25002KT 9999 SCT010 SCT040 BKN110 00/00 Q1012 BLU;
0181100465999992009010407204+54367+010133FM-15+0031EDHK V0201101N00051012001CN0090001N1+00101+00101999999ADDGA1041+003001999GA2041+012001999GA3071+048001999GF107991999999999999999999MA1101191999999MW1121REMMET074METAR EDHK 040720Z 11001KT 9000 MIFG SCT010 SCT040 BKN160 01/01 Q1012 BLU;
0124100465999992009010408044+54367+010133FM-16+0031EDHK V0201901N001010030019N0112651N1+00101+00001999999ADDGA1071+003001999GF107991999999999999999999MA1101191999999REMMET055SPECI EDHK 040804Z 19002KT 9999 BKN010 01/00 Q1012 GRN;
0124100465999992009010408204+54367+010133FM-15+0031EDHK V0202201N001010030019N0112651N1+00101+00001999999ADDGA1071+003001999GF107991999999999999999999MA1101191999999REMMET055METAR EDHK 040820Z 22002KT 9999 BKN010 01/00 Q1012 GRN;
0124100465999992009010409204+54367+010133FM-15+0031EDHK V0202101N001510021019N0112651N1+00201+00001999999ADDGA1071+002101999GF107991999999999999999999MA1101191999999REMMET055METAR EDHK 040920Z 21003KT 9999 BKN007 02/00 Q1012 GRN;
0124100465999992009010410064+54367+010133FM-16+0031EDHK V0202201N001510018019N0112651N1+00201+00001999999ADDGA1081+001801999GF108991999999999999999999MA1101191999999REMMET055SPECI EDHK 041006Z 22003KT 9999 OVC006 02/00 Q1012 YLO;
0124100465999992009010410204+54367+010133FM-15+0031EDHK V0202401N001510015019N0080001N1+00201+00001999999ADDGA1081+001501999GF108991999999999999999999MA1101191999999REMMET055METAR EDHK 041020Z 24003KT 8000 OVC005 02/00 Q1012 YLO;
0133100465999992009010410454+54367+010133FM-16+0031EDHK V0202701N002110009019N0038001N1+00201+00001999999ADDGA1081+000901999GF108991999999999999999999MA1101191999999MW1101REMMET058SPECI EDHK 041045Z 27004KT 3800 BR OVC003 02/00 Q1012 YLO;
0133100465999992009010411004+54367+010133FM-15+0031EDHK V0202901N002110006019N0022001N1+00201+00201999999ADDGA1081+000601999GF108991999999999999999999MA1101081999999MW1101REMMET058SPECI EDHK 041056Z 29004KT 2200 BR OVC002 02/02 Q1011 AMB;
0133100465999992009010411224+54367+010133FM-16+0031EDHK V0203501N001010006019N0018001N1+00201+00201999999ADDGA1081+000601999GF108991999999999999999999MA1101081999999MW1101REMMET058SPECI EDHK 041122Z 35002KT 1800 BR OVC002 02/02 Q1011 AMB;
0154100465999992009010411454+54367+010133FM-16+0031EDHK V0203401N001010003019N0012001N1+00201+00201999999ADDED199U11009GA1081+000301999GF108991999999999999999999MA1101081999999MW1101REMMET068SPECI EDHK 041145Z 34002KT 1200 R26/1100N BR OVC001 02/02 Q1011 RED;
0177100465999992009010412204+54367+010133FM-15+0031EDHK V0202501N001010003019N0009001N1+00201+00201999999ADDED199U09009GA1071+000301999GA2081+001201999GF108991999999999999999999MA1101081999999MW1441REMMET075METAR EDHK 041220Z 25002KT 0900 R26/0900D FG BKN001 OVC004 02/02 Q1011 RED;
0177100465999992009010412434+54367+010133FM-16+0031EDHK V0202601N001010012019N0009001N1+00201+00201999999ADDED199U14009GA1041+000301999GA2081+001201999GF108991999999999999999999MA1101081999999MW1441REMMET075SPECI EDHK 041243Z 26002KT 0900 R26/1400N FG SCT001 OVC004 02/02 Q1011 AMB;
0188100465999992009010413204+54367+010133FM-15+0031EDHK V0203101N001010012019N0014001N1+00201+00201999999ADDED199U49009GA1021+000301999GA2071+001201999GF107991999999999999999999MA1101021999999MW1101MW2401REMMET080METAR EDHK 041320Z 31002KT 1400 R26/4900N VCFG BR FEW001 BKN004 02/02 Q1010 AMB;
0167100465999992009010413304+54367+010133FM-16+0031EDHK V0209999V001010009019N0020001N1+00201+00201999999ADDGA1021+000301999GA2071+000901999GF107991999999999999999999MA1101021999999MW1101MW2401REMMET070SPECI EDHK 041330Z VRB02KT 2000 VCFG BR FEW001 BKN003 02/02 Q1010 YLO;
0156100465999992009010413404+54367+010133FM-16+0031EDHK V0202601N001510012019N0040001N1+00201+00201999999ADDGA1021+000301999GA2071+001201999GF107991999999999999999999MA1101021999999MW1101REMMET065SPECI EDHK 041340Z 26003KT 4000 BR FEW001 BKN004 02/02 Q1010 YLO;
0156100465999992009010413504+54367+010133FM-16+0031EDHK V0202801N002110012019N0050001N1+00201+00201999999ADDGA1021+000301999GA2071+001201999GF107991999999999999999999MA1101021999999MW1101REMMET065SPECI EDHK 041350Z 28004KT 5000 BR FEW001 BKN004 02/02 Q1010 YLO;
0124100465999992009010414204+54367+010133FM-15+0031EDHK V0203301N002110012019N0060001N1+00201+00201999999ADDGA1071+001201999GF107991999999999999999999MA1101021999999REMMET055METAR EDHK 041420Z 33004KT 6000 BKN004 02/02 Q1010 YLO;
0124100465999992009010415204+54367+010133FM-15+0031EDHK V0200101N003610015019N0112651N1+00101+00101999999ADDGA1071+001501999GF107991999999999999999999MA1101021999999REMMET055METAR EDHK 041520Z 01007KT 9999 BKN005 01/01 Q1010 YLO;
0124100465999992009010416204+54367+010133FM-15+0031EDHK V0200301N004610021019N0112651N1+00101+00101999999ADDGA1071+002101999GF107991999999999999999999MA1101081999999REMMET055METAR EDHK 041620Z 03009KT 9999 BKN007 01/01 Q1011 GRN;
0135100465999992009010417204+54367+010133FM-15+0031EDHK V0200601N005710030019N0080001N1+00101+00001999999ADDGA1071+003001999GF107991999999999999999999MA1101081999999MW1711REMMET060METAR EDHK 041720Z 06011KT 8000 -SN BKN010 01/M00 Q1011 GRN;
0144100465999992009010418084+54367+010133FM-16+0031EDHK V0200601N006210015019N0021001N1+00001+00001999999ADDGA1071+001501999GF107991999999999999999999MA1101081999999MW1101MW2731REMMET063SPECI EDHK 041808Z 06012KT 2100 SN BR BKN005 M00/M00 Q1011 YLO;
0144100465999992009010418124+54367+010133FM-16+0031EDHK V0200601N006210012019N0012001N1+00001+00001999999ADDGA1071+001201999GF107991999999999999999999MA1101081999999MW1101MW2731REMMET063SPECI EDHK 041812Z 06012KT 1200 SN BR BKN004 M00/M00 Q1011 AMB;
0164100465999992009010418204+54367+010133FM-15+0031EDHK V0200601N005710018019N0070001N1+00001+00001999999ADDGA1071+001801999GA2071+006001999GF107991999999999999999999MA1101081999999MW1711REMMET073METAR EDHK 041820Z 06011KT 7000 -SN BKN006 BKN020 M00/M00 Q1011 RESN YLO;
0167100465999992009010419084+54367+010133FM-16+0031EDHK V0200501N006710012019N0038001N1-00101-00101999999ADDGA1071+001201999GA2071+006601999GF107991999999999999999999MA1101081999999MW1101MW2731REMMET070SPECI EDHK 041908Z 05013KT 3800 SN BR BKN004 BKN022 M01/M01 Q1011 YLO;
0164100465999992009010419144+54367+010133FM-16+0031EDHK V0200601N007210015019N0060001N1+00001-00101999999ADDGA1071+001501999GA2071+006601999GF107991999999999999999999MA1101081999999MW1711REMMET073SPECI EDHK 041914Z 06014KT 6000 -SN BKN005 BKN022 M00/M01 Q1011 RESN YLO;
0164100465999992009010419204+54367+010133FM-15+0031EDHK V0200601N007710066019N0112651N1+00001-00101999999ADDGA1041+001501999GA2071+006601999GF107991999999999999999999MA1101191999999MW1711REMMET073METAR EDHK 041920Z 06015KT 9999 -SN SCT005 BKN022 M00/M01 Q1012 RESN WHT;
0172100465999992009010420204+54367+010133FM-15+0031EDHK V0200401N007210015019N0032001N1-00101-00201999999ADDGA1071+001501999GA2071+006601999GF107991999999999999999999MA1101291999999MW1101MW2731REMMET075METAR EDHK 042020Z 04014KT 3200 SN BR BKN005 BKN022 M01/M02 Q1013 RESN YLO;
0144100465999992009010420324+54367+010133FM-16+0031EDHK V0200301N007710015019N0015001N1-00201-00201999999ADDGA1071+001501999GF107991999999999999999999MA1101391999999MW1101MW2731REMMET063SPECI EDHK 042032Z 03015KT 1500 SN BR BKN005 M02/M02 Q1014 AMB;
0173100465999992009010421034+54367+010133FM-16+0031EDHK V0200401N006710060019N0050001N1-00101-00201999999ADDGA1041+001501999GA2071+006001999GF107991999999999999999999MA1101391999999MW1101MW2711REMMET076SPECI EDHK 042103Z 04013KT 5000 -SN BR SCT005 BKN020 M01/M02 Q1014 RESN WHT;
0173100465999992009010421204+54367+010133FM-15+0031EDHK V0200401N006710084019N0050001N1-00101-00201999999ADDGA1021+001501999GA2071+008401999GF107991999999999999999999MA1101391999999MW1101MW2711REMMET076METAR EDHK 042120Z 04013KT 5000 -SN BR FEW005 BKN028 M01/M02 Q1014 RESN WHT;
0168100465999992009010422204+54367+010133FM-15+0031EDHK V0200501N006210042019N0040001N1-00201-00401999999ADDGA1071+004201999GA2071+010201999GF107991999999999999999999MA1101591999999MW1101MW2711REMMET071METAR EDHK 042220Z 05012KT 4000 -SN BR BKN014 BKN034 M02/M04 Q1016 GRN;
0149100465999992009010423004+54367+010133FM-16+0031EDHK V0200501N004610150019N0090001N1-00101-00501999999ADDGA1041+005401999GA2071+015001999GF107991999999999999999999MA1101591999999REMMET064SPECI EDHK 042300Z 05009KT 9000 SCT018 BKN050 M01/M05 Q1016 BLU;
0150100465999992009010423204+54367+010133FM-15+0031EDHK V0200301N006212200019N0112651N1-00101-00401999999ADDGA1041+005401999GA2041+015001999GF104991999999999999999999MA1101591999999REMMET065METAR EDHK 042320Z 03012KT 9999 SCT018 SCT050 M01/M04 Q1016 BLU/;
0150100465999992009010500204+54367+010133FM-15+0031EDHK V0200301N006212200019N0112651N1-00201-00501999999ADDGA1041+006001999GA2041+033001999GF104991999999999999999999MA1101591999999REMMET065METAR EDHK 050020Z 03012KT 9999 SCT020 SCT110 M02/M05 Q1016 BLU/;
0127100465999992009010501204+54367+010133FM-15+0031EDHK V0200301N006212200019N0112651N1-00201-00501999999ADDGA1041+006001999GF104991999999999999999999MA1101691999999REMMET058METAR EDHK 050120Z 03012KT 9999 SCT020 M02/M05 Q1017 BLU/;
0127100465999992009010502204+54367+010133FM-15+0031EDHK V0200301N007212200019N0112651N1-00301-00601999999ADDGA1041+006001999GF104991999999999999999999MA1101801999999REMMET058METAR EDHK 050220Z 03014KT 9999 SCT020 M03/M06 Q1018 BLU/;
0127100465999992009010503204+54367+010133FM-15+0031EDHK V0200301N006212200019N0112651N1-00301-00601999999ADDGA1041+006001999GF104991999999999999999999MA1101801999999REMMET058METAR EDHK 050320Z 03012KT 9999 SCT020 M03/M06 Q1018 BLU/;
0131100465999992009010504204+54367+010133FM-15+0031EDHK V0200301N006712200019N0112651N1-00301-00701999999ADDGA1041+006001999GF104991999999999999999999MA1101901999999REMMET062METAR EDHK 050420Z 03013KT 9999 SCT020 M03/M07 Q1019 BLU/BLU/;
0131100465999992009010505204+54367+010133FM-15+0031EDHK V0200301N007712200019N0112651N1-00201-00601999999ADDGA1041+007501999GF104991999999999999999999MA1101901999999REMMET062METAR EDHK 050520Z 03015KT 9999 SCT025 M02/M06 Q1019 BLU/BLU/;
0131100465999992009010506204+54367+010133FM-15+0031EDHK V0200201N008212200019N0112651N1-00201-00601999999ADDGA1041+006601999GF104991999999999999999999MA1102001999999REMMET062METAR EDHK 050620Z 02016KT 9999 SCT022 M02/M06 Q1020 BLU/BLU/;
0154100465999992009010507204+54367+010133FM-15+0031EDHK V0200401N008210120019N0112651N1-00201-00501999999ADDGA1021+005701999GA2071+012001999GF107991999999999999999999MA1102101999999REMMET069METAR EDHK 050720Z 04016KT 9999 FEW019 BKN040 M02/M05 Q1021 BLU BLU/;
0164100465999992009010508204+54367+010133FM-15+0031EDHK V0200401N006712200019N0112651N1-00201-00401999999ADDGA1021+004501999GA2041+012001999GF104991999999999999999999MA1102201999999REMMET079METAR EDHK 050820Z 04013KT 9999 FEW015 SCT040 M02/M04 Q1022 BLU/BLU/ TEMPO WHT;
0164100465999992009010509204+54367+010133FM-15+0031EDHK V0200401N007212200019N0112651N1-00201-00401999999ADDGA1041+004501999GA2041+015001999GF104991999999999999999999MA1102301999999REMMET079METAR EDHK 050920Z 04014KT 9999 SCT015 SCT050 M02/M04 Q1023 BLU/BLU/ TEMPO WHT;
0175100465999992009010510204+54367+010133FM-15+0031EDHK V0200401N007210150019N0112651N1-00101-00401999999ADDGA1041+005101999GA2071+015001999GF107991999999999999999999MA1102401999999MW1161REMMET084METAR EDHK 051020Z 04014KT 9999 VCSH SCT017 BKN050 M01/M04 Q1024 BLU BLU/ TEMPO WHT;
0146100465999992009010511204+54367+010133FM-15+0031EDHK V0200501N008212200019N0112651N1-00101-00501999999ADDGA1021+005101999GF102991999999999999999999MA1102401999999REMMET077METAR EDHK 051120Z 05016KT 9999 FEW017 M01/M05 Q1024 RERA BLU/BLU/ TEMPO WHT;
0164100465999992009010512204+54367+010133FM-15+0031EDHK V0200501N006212200019N0112651N1-00101-00501999999ADDGA1021+006001999GA2041+015001999GF104991999999999999999999MA1102511999999REMMET079METAR EDHK 051220Z 05012KT 9999 FEW020 SCT050 M01/M05 Q1025 BLU/BLU/ TEMPO WHT;
0164100465999992009010513204+54367+010133FM-15+0031EDHK V0200501N006712200019N0112651N1-00101-00601999999ADDGA1021+006001999GA2041+015001999GF104991999999999999999999MA1102511999999REMMET079METAR EDHK 051320Z 05013KT 9999 FEW020 SCT050 M01/M06 Q1025 BLU/BLU/ TEMPO WHT;
0141100465999992009010514204+54367+010133FM-15+0031EDHK V0200501N005712200019N0112651N1-00101-00701999999ADDGA1021+012001999GF102991999999999999999999MA1102611999999REMMET072METAR EDHK 051420Z 05011KT 9999 FEW040 M01/M07 Q1026 BLU/BLU/ TEMPO WHT;
0141100465999992009010515204+54367+010133FM-15+0031EDHK V0200501N004112200019N0112651N1-00201-00801999999ADDGA1021+009001999GF102991999999999999999999MA1102611999999REMMET072METAR EDHK 051520Z 05008KT 9999 FEW030 M02/M08 Q1026 BLU/BLU/ TEMPO WHT;
0141100465999992009010516204+54367+010133FM-15+0031EDHK V0200601N003112200019N0112651N1-00301-00801999999ADDGA1021+009001999GF102991999999999999999999MA1102711999999REMMET072METAR EDHK 051620Z 06006KT 9999 FEW030 M03/M08 Q1027 BLU/BLU/ TEMPO WHT;
0138100465999992009010517204+54367+010133FM-15+0031EDHK V0200501N002612200019N0112651N1-00501-00901999999ADDGA1021+009001999GF102991999999999999999999MA1102811999999REMMET069METAR EDHK 051720Z 05005KT 9999 FEW030 M05/M09 Q1028 BLU/FCST CANCEL;
0078100465999992009010518204+54367+010133FM-15+0031EDHK V0200201N001012200019N0112651N1-00801-01101999999ADDMA1102811999999REMMET051METAR EDHK 051820Z 02002KT 9999 M08/M11 Q1028 BLU/;
0078100465999992009010519204+54367+010133FM-15+0031EDHK V0203401N001512200019N0112651N1-00901-01101999999ADDMA1102811999999REMMET051METAR EDHK 051920Z 34003KT 9999 M09/M11 Q1028 BLU/;
0078100465999992009010520204+54367+010133FM-15+0031EDHK V0203201N001012200019N0112651N1-00901-01101999999ADDMA1102811999999REMMET051METAR EDHK 052020Z 32002KT 9999 M09/M11 Q1028 BLU/;
0078100465999992009010521204+54367+010133FM-15+0031EDHK V0202701N002112200019N0112651N1-01001-01001999999ADDMA1102811999999REMMET051METAR EDHK 052120Z 27004KT 9999 M10/M10 Q1028 BLU/;
0078100465999992009010522204+54367+010133FM-15+0031EDHK V0202601N002112200019N0112651N1-01101-01101999999ADDMA1102811999999REMMET051METAR EDHK 052220Z 26004KT 9999 M11/M11 Q1028 BLU/;
0078100465999992009010523204+54367+010133FM-15+0031EDHK V0202501N002612200019N0112651N1-01201-01201999999ADDMA1102811999999REMMET051METAR EDHK 052320Z 25005KT 9999 M12/M12 Q1028 BLU/;
0078100465999992009010600204+54367+010133FM-15+0031EDHK V0202501N003112200019N0112651N1-01101-01101999999ADDMA1102811999999REMMET051METAR EDHK 060020Z 25006KT 9999 M11/M11 Q1028 BLU/;
0078100465999992009010601204+54367+010133FM-15+0031EDHK V0202301N002112200019N0112651N1-01001-01001999999ADDMA1102811999999REMMET051METAR EDHK 060120Z 23004KT 9999 M10/M10 Q1028 BLU/;
0078100465999992009010602204+54367+010133FM-15+0031EDHK V0202501N002112200019N0112651N1-01001-01001999999ADDMA1102811999999REMMET051METAR EDHK 060220Z 25004KT 9999 M10/M10 Q1028 BLU/;
0078100465999992009010603204+54367+010133FM-15+0031EDHK V0202201N001512200019N0112651N1-01101-01101999999ADDMA1102811999999REMMET051METAR EDHK 060320Z 22003KT 9999 M11/M11 Q1028 BLU/;
0131100465999992009010604204+54367+010133FM-15+0031EDHK V0202401N002612200019N0112651N1-00901-00901999999ADDGA1021+072001999GF102991999999999999999999MA1102711999999REMMET062METAR EDHK 060420Z 24005KT 9999 FEW240 M09/M09 Q1027 BLU/BLU/;
0154100465999992009010605204+54367+010133FM-15+0031EDHK V0202301N002612200019N0112651N1-00801-00801999999ADDGA1021+018001999GA2041+072001999GF104991999999999999999999MA1102711999999REMMET069METAR EDHK 060520Z 23005KT 9999 FEW060 SCT240 M08/M08 Q1027 BLU/BLU/;
0131100465999992009010606204+54367+010133FM-15+0031EDHK V0202301N003612200019N0112651N1-00701+99999999999ADDGA1041+018001999GF104991999999999999999999MA1102611999999REMMET062METAR EDHK 060620Z 23007KT 9999 SCT060 M07/M06 Q1026 BLU/BLU/;
0141100465999992009010607204+54367+010133FM-15+0031EDHK V0202301N003610180019N0112651N1-00601-00801999999ADDGA1071+018001999GF107991999999999999999999MA1102611999999REMMET072METAR EDHK 060720Z 23007KT 9999 BKN060 M06/M08 Q1026 BLU BLU/ TEMPO BLU;
0154100465999992009010608204+54367+010133FM-15+0031EDHK V0202201N004112200019N0112651N1-00501-00701999999ADDGA1021+003001999GA2041+011401999GF104991999999999999999999MA1102511999999REMMET069METAR EDHK 060820Z 22008KT 9999 FEW010 SCT038 M05/M07 Q1025 BLU/BLU/;
0141100465999992009010609204+54367+010133FM-15+0031EDHK V0202201N005112200019N0112651N1-00401-00501999999ADDGA1041+011401999GF104991999999999999999999MA1102511999999REMMET072METAR EDHK 060920Z 22010KT 9999 SCT038 M04/M05 Q1025 BLU/BLU/ TEMPO WHT;
0163100465999992009010610204+54367+010133FM-15+0031EDHK V0202101N003610180019N0112651N1-00301-00401999999ADDGA1021+003001999GA2071+018001999GF107991999999999999999999MA1102401999999REMMET078METAR EDHK 061020Z 21007KT 9999 FEW010 BKN060 M03/M04 Q1024 BLU BLU TEMPO WHT;
0186100465999992009010611204+54367+010133FM-15+0031EDHK V0202201N00461009001CN0080001N1-00201-00501999999ADDGA1021+003001999GA2041+009001999GA3071+018001999GF107991999999999999999999MA1102401999999REMMET085METAR EDHK 061120Z 22009KT 8000 FEW010 SCT030 BKN060 M02/M05 Q1024 BLU BLU TEMPO WHT;
0163100465999992009010612204+54367+010133FM-15+0031EDHK V0202201N005110180019N0080001N1-00201-00401999999ADDGA1041+009001999GA2071+018001999GF107991999999999999999999MA1102401999999REMMET078METAR EDHK 061220Z 22010KT 8000 SCT030 BKN060 M02/M04 Q1024 BLU BLU TEMPO WHT;
0163100465999992009010613204+54367+010133FM-15+0031EDHK V0202201N005110180019N0112651N1-00201-00501999999ADDGA1021+009001999GA2071+018001999GF107991999999999999999999MA1102301999999REMMET078METAR EDHK 061320Z 22010KT 9999 FEW030 BKN060 M02/M05 Q1023 BLU BLU TEMPO WHT;
0140100465999992009010614204+54367+010133FM-15+0031EDHK V0202201N004110180019N0112651N1-00201-00501999999ADDGA1071+018001999GF107991999999999999999999MA1102201999999REMMET071METAR EDHK 061420Z 22008KT 9999 BKN060 M02/M05 Q1022 BLU BLU TEMPO WHT;
0140100465999992009010615204+54367+010133FM-15+0031EDHK V0202201N005110150019N0112651N1-00201-00501999999ADDGA1071+015001999GF107991999999999999999999MA1102201999999REMMET071METAR EDHK 061520Z 22010KT 9999 BKN050 M02/M05 Q1022 BLU BLU TEMPO WHT;
0140100465999992009010616204+54367+010133FM-15+0031EDHK V0202101N004112200019N0112651N1-00201-00501999999ADDGA1041+015001999GF104991999999999999999999MA1102101999999REMMET071METAR EDHK 061620Z 21008KT 9999 SCT050 M02/M05 Q1021 BLU/BLU TEMPO WHT;
0161100465999992009010617204+54367+010133FM-15+0031EDHK V0202101N005110420019N0112651N1-00301-00501999999ADDGA1021+012001999GA2071+042001999GF107991999999999999999999MA1102001999999REMMET076METAR EDHK 061720Z 21010KT 9999 FEW040 BKN140 M03/M05 Q1020 BLU FCST CANCEL;
0149100465999992009010618204+54367+010133FM-15+0031EDHK V0202101N005110420019N0112651N1-00301-00501999999ADDGA1021+012001999GA2071+042001999GF107991999999999999999999MA1102001999999REMMET064METAR EDHK 061820Z 21010KT 9999 FEW040 BKN140 M03/M05 Q1020 BLU;
0149100465999992009010619204+54367+010133FM-15+0031EDHK V0202101N005110420019N0112651N1-00301-00501999999ADDGA1041+012001999GA2071+042001999GF107991999999999999999999MA1101901999999REMMET064METAR EDHK 061920Z 21010KT 9999 SCT040 BKN140 M03/M05 Q1019 BLU;
0126100465999992009010620204+54367+010133FM-15+0031EDHK V0202101N005710150019N0112651N1-00301-00501999999ADDGA1071+015001999GF107991999999999999999999MA1101801999999REMMET057METAR EDHK 062020Z 21011KT 9999 BKN050 M03/M05 Q1018 BLU;
0126100465999992009010621204+54367+010133FM-15+0031EDHK V0202101N005710120019N0112651N1-00201-00501999999ADDGA1071+012001999GF107991999999999999999999MA1101691999999REMMET057METAR EDHK 062120Z 21011KT 9999 BKN040 M02/M05 Q1017 BLU;
0126100465999992009010622204+54367+010133FM-15+0031EDHK V0202101N007210120019N0112651N1-00201-00501999999ADDGA1071+012001999GF107991999999999999999999MA1101591999999REMMET057METAR EDHK 062220Z 21014KT 9999 BKN040 M02/M05 Q1016 BLU;
0182100465999992009010623204+54367+010133FM-15+0031EDHK V0202201N00671006001CN0060001N1-00201-00501999999ADDGA1021+003001999GA2041+006001999GA3071+012001999GF107991999999999999999999MA1101591999999MW1711REMMET075METAR EDHK 062320Z 22013KT 6000 -SN FEW010 SCT020 BKN040 M02/M05 Q1016 WHT;
0149100465999992009010700204+54367+010133FM-15+0031EDHK V0202201N007710120019N0112651N1-00201-00501999999ADDGA1041+006001999GA2071+012001999GF107991999999999999999999MA1101391999999REMMET064METAR EDHK 070020Z 22015KT 9999 SCT020 BKN040 M02/M05 Q1014 BLU;
0181100465999992009010701124+54367+010133FM-16+0031EDHK V0202201N008210060019N0040001N1-00301-00401999999ADDGA1041+003001999GA2071+006001999GF107991999999999999999999MA1101391999999MW1361MW2711OC101391REMMET076SPECI EDHK 070112Z 22016G27KT 4000 -SN DRSN SCT010 BKN020 M03/M04 Q1014 GRN;
0170100465999992009010701204+54367+010133FM-15+0031EDHK V0202201N007710060019N0040001N1-00301-00401999999ADDGA1041+003001999GA2071+006001999GF107991999999999999999999MA1101391999999MW1361MW2711REMMET073METAR EDHK 070120Z 22015KT 4000 -SN DRSN SCT010 BKN020 M03/M04 Q1014 GRN;
0169100465999992009010702204+54367+010133FM-15+0031EDHK V0202201N008210060019N0030001N1-00201-00301999999ADDGA1041+003001999GA2071+006001999GF107991999999999999999999MA1101191999999MW1361MW2731REMMET072METAR EDHK 070220Z 22016KT 3000 SN DRSN SCT010 BKN020 M02/M03 Q1012 YLO;
0175100465999992009010703204+54367+010133FM-15+0031EDHK V0202301N007210060019N0040001N1-00201-00301999999ADDGA1041+003001999GA2071+006001999GF107991999999999999999999MA1101191999999MW1361MW2711REMMET078METAR EDHK 070320Z 23014KT 4000 -SN DRSN SCT010 BKN020 M02/M03 Q1012 RESN GRN;
0149100465999992009010703474+54367+010133FM-16+0031EDHK V0202201N006210060019N0080001N1-00201-00301999999ADDGA1071+006001999GA2071+015001999GF107991999999999999999999MA1101191999999REMMET064SPECI EDHK 070347Z 22012KT 8000 BKN020 BKN050 M02/M03 Q1012 WHT;
0172100465999992009010704204+54367+010133FM-15+0031EDHK V0202201N00571006001CN0080001N1-00201-00201999999ADDGA1021+001501999GA2041+006001999GA3071+015001999GF107991999999999999999999MA1101191999999REMMET071METAR EDHK 070420Z 22011KT 8000 FEW005 SCT020 BKN050 M02/M02 Q1012 BLU;
0163100465999992009010705204+54367+010133FM-15+0031EDHK V0202301N003610150019N0080001N1-00101-00101999999ADDGA1041+003001999GA2071+015001999GF107991999999999999999999MA1101191999999REMMET078METAR EDHK 070520Z 23007KT 8000 SCT010 BKN050 M01/M01 Q1012 BLU BLU TEMPO WHT;
0162100465999992009010706204+54367+010133FM-15+0031EDHK V0202601N003610150019N0080001N1+00001-00101999999ADDGA1041+002101999GA2071+015001999GF107991999999999999999999MA1101191999999REMMET077METAR EDHK 070620Z 26007KT 8000 SCT007 BKN050 00/M01 Q1012 BLU BLU TEMPO WHT;
0139100465999992009010707204+54367+010133FM-15+0031EDHK V0202901N004612200019N0112651N1+00101-00201999999ADDGA1041+012001999GF104991999999999999999999MA1101291999999REMMET070METAR EDHK 070720Z 29009KT 9999 SCT040 01/M02 Q1013 BLU/BLU TEMPO WHT;
0131100465999992009010708204+54367+010133FM-15+0031EDHK V0202701N003612200019N0112651N1-00101-00401999999ADDGA1021+012001999GF102991999999999999999999MA1101291999999REMMET062METAR EDHK 070820Z 27007KT 9999 FEW040 M01/M04 Q1013 BLU/BLU/;
0131100465999992009010709204+54367+010133FM-15+0031EDHK V0202801N004112200019N0112651N1+00001-00401999999ADDGA1021+004501999GF102991999999999999999999MA1101391999999REMMET062METAR EDHK 070920Z 28008KT 9999 FEW015 M00/M04 Q1014 BLU/BLU/;
0130100465999992009010710204+54367+010133FM-15+0031EDHK V0202801N004112200019N0112651N1+00101-00401999999ADDGA1021+004501999GF102991999999999999999999MA1101591999999REMMET061METAR EDHK 071020Z 28008KT 9999 FEW015 01/M04 Q1016 BLU/BLU/;
0130100465999992009010711204+54367+010133FM-15+0031EDHK V0202901N004112200019N0112651N1+00101-00401999999ADDGA1021+004501999GF102991999999999999999999MA1101491999999REMMET061METAR EDHK 071120Z 29008KT 9999 FEW015 01/M04 Q1015 BLU/BLU/;
0130100465999992009010712204+54367+010133FM-15+0031EDHK V0202901N004612200019N0112651N1+00101-00501999999ADDGA1021+006001999GF102991999999999999999999MA1101491999999REMMET061METAR EDHK 071220Z 29009KT 9999 FEW020 01/M05 Q1015 BLU/BLU/;
0130100465999992009010713204+54367+010133FM-15+0031EDHK V0202901N004112200019N0112651N1+00101-00501999999ADDGA1021+006001999GF102991999999999999999999MA1101591999999REMMET061METAR EDHK 071320Z 29008KT 9999 FEW020 01/M05 Q1016 BLU/BLU/;
0131100465999992009010714204+54367+010133FM-15+0031EDHK V0203001N003612200019N0112651N1+00001-00601999999ADDGA1021+006001999GF102991999999999999999999MA1101691999999REMMET062METAR EDHK 071420Z 30007KT 9999 FEW020 M00/M06 Q1017 BLU/BLU/;
0131100465999992009010715204+54367+010133FM-15+0031EDHK V0202901N003112200019N0112651N1-00201-00601999999ADDGA1021+006001999GF102991999999999999999999MA1101801999999REMMET062METAR EDHK 071520Z 29006KT 9999 FEW020 M02/M06 Q1018 BLU/BLU/;
0131100465999992009010716204+54367+010133FM-15+0031EDHK V0202801N003112200019N0112651N1-00401-00701999999ADDGA1021+004501999GF102991999999999999999999MA1101901999999REMMET062METAR EDHK 071620Z 28006KT 9999 FEW015 M04/M07 Q1019 BLU/BLU/;
0138100465999992009010717204+54367+010133FM-15+0031EDHK V0202901N003112200019N0112651N1-00501-00801999999ADDGA1021+009001999GF102991999999999999999999MA1102001999999REMMET069METAR EDHK 071720Z 29006KT 9999 FEW030 M05/M08 Q1020 BLU/FCST CANCEL;
0127100465999992009010718204+54367+010133FM-15+0031EDHK V0202801N003112200019N0112651N1-00601-00801999999ADDGA1021+007501999GF102991999999999999999999MA1102001999999REMMET058METAR EDHK 071820Z 28006KT 9999 FEW025 M06/M08 Q1020 BLU/;
0127100465999992009010719204+54367+010133FM-15+0031EDHK V0202901N002612200019N0112651N1-00501-00701999999ADDGA1021+007501999GF102991999999999999999999MA1102001999999REMMET058METAR EDHK 071920Z 29005KT 9999 FEW025 M05/M07 Q1020 BLU/;
0127100465999992009010720204+54367+010133FM-15+0031EDHK V0202601N003112200019N0112651N1-00701-00801999999ADDGA1021+007501999GF102991999999999999999999MA1102301999999REMMET058METAR EDHK 072020Z 26006KT 9999 FEW025 M07/M08 Q1023 BLU/;
0127100465999992009010721204+54367+010133FM-15+0031EDHK V0202601N003112200019N0112651N1-00801-00801999999ADDGA1021+007501999GF102991999999999999999999MA1102511999999REMMET058METAR EDHK 072120Z 26006KT 9999 FEW025 M08/M08 Q1025 BLU/;
0127100465999992009010722204+54367+010133FM-15+0031EDHK V0202501N003112200019N0112651N1-00601-00801999999ADDGA1021+007501999GF102991999999999999999999MA1102511999999REMMET058METAR EDHK 072220Z 25006KT 9999 FEW025 M06/M08 Q1025 BLU/;
0127100465999992009010723204+54367+010133FM-15+0031EDHK V0202501N003112200019N0112651N1-00801-00801999999ADDGA1021+060001999GF102991999999999999999999MA1102611999999REMMET058METAR EDHK 072320Z 25006KT 9999 FEW200 M08/M08 Q1026 BLU/;
0127100465999992009010800204+54367+010133FM-15+0031EDHK V0202501N003112200019N0112651N1-00801-00801999999ADDGA1021+060001999GF102991999999999999999999MA1102611999999REMMET058METAR EDHK 080020Z 25006KT 9999 FEW200 M08/M08 Q1026 BLU/;
0078100465999992009010801204+54367+010133FM-15+0031EDHK V0202301N002112200019N0112651N1-00801-00801999999ADDMA1102611999999REMMET051METAR EDHK 080120Z 23004KT 9999 M08/M08 Q1026 BLU/;
0127100465999992009010802204+54367+010133FM-15+0031EDHK V0202301N002112200019N0112651N1-00901-00901999999ADDGA1021+060001999GF102991999999999999999999MA1102711999999REMMET058METAR EDHK 080220Z 23004KT 9999 FEW200 M09/M09 Q1027 BLU/;
0127100465999992009010803204+54367+010133FM-15+0031EDHK V0202101N002112200019N0112651N1-00801-00901999999ADDGA1021+075001999GF102991999999999999999999MA1102811999999REMMET058METAR EDHK 080320Z 21004KT 9999 FEW250 M08/M09 Q1028 BLU/;
0127100465999992009010804204+54367+010133FM-15+0031EDHK V0202201N002112200019N0112651N1-01001-01001999999ADDGA1021+075001999GF102991999999999999999999MA1102811999999REMMET058METAR EDHK 080420Z 22004KT 9999 FEW250 M10/M10 Q1028 BLU/;
0131100465999992009010805204+54367+010133FM-15+0031EDHK V0202101N002612200019N0112651N1-00701-00901999999ADDGA1021+075001999GF102991999999999999999999MA1102711999999REMMET062METAR EDHK 080520Z 21005KT 9999 FEW250 M07/M09 Q1027 BLU/BLU/;
0131100465999992009010806204+54367+010133FM-15+0031EDHK V0202001N002612200019N0112651N1-00701-00701999999ADDGA1021+075001999GF102991999999999999999999MA1102711999999REMMET062METAR EDHK 080620Z 20005KT 9999 FEW250 M07/M07 Q1027 BLU/BLU/;
0131100465999992009010807204+54367+010133FM-15+0031EDHK V0202101N002612200019N0112651N1-00701-00701999999ADDGA1041+075001999GF104991999999999999999999MA1102711999999REMMET062METAR EDHK 080720Z 21005KT 9999 SCT250 M07/M07 Q1027 BLU/BLU/;
0131100465999992009010808204+54367+010133FM-15+0031EDHK V0202101N003112200019N0112651N1-00601-00601999999ADDGA1021+045001999GF102991999999999999999999MA1102711999999REMMET062METAR EDHK 080820Z 21006KT 9999 FEW150 M06/M06 Q1027 BLU/BLU/;
0164100465999992009010809204+54367+010133FM-15+0031EDHK V0202101N003112200019N0112651N1-00301-00501999999ADDGA1041+024001999GA2041+045001999GF104991999999999999999999MA1102711999999REMMET079METAR EDHK 080920Z 21006KT 9999 SCT080 SCT150 M03/M05 Q1027 BLU/BLU/ BECMG BLU;
0164100465999992009010810204+54367+010133FM-15+0031EDHK V0202101N004112200019N0112651N1-00101-00501999999ADDGA1021+018001999GA2041+075001999GF104991999999999999999999MA1102711999999REMMET079METAR EDHK 081020Z 21008KT 9999 FEW060 SCT250 M01/M05 Q1027 BLU/BLU/ BECMG BLU;
0129100465999992009010811204+54367+010133FM-15+0031EDHK V0202201N004110240019N0112651N1+00001-00501999999ADDGA1071+024001999GF107991999999999999999999MA1102711999999REMMET060METAR EDHK 081120Z 22008KT 9999 BKN080 00/M05 Q1027 BLU BLU;
0152100465999992009010812204+54367+010133FM-15+0031EDHK V0202201N004112200019N0112651N1+00101-00501999999ADDGA1021+015001999GA2041+024001999GF104991999999999999999999MA1102711999999REMMET067METAR EDHK 081220Z 22008KT 9999 FEW050 SCT080 01/M05 Q1027 BLU/BLU;
0153100465999992009010813204+54367+010133FM-15+0031EDHK V0202101N004612200019N0112651N1+00001-00501999999ADDGA1021+006901999GA2041+024001999GF104991999999999999999999MA1102711999999REMMET068METAR EDHK 081320Z 21009KT 9999 FEW023 SCT080 M00/M05 Q1027 BLU/BLU;
0163100465999992009010814204+54367+010133FM-15+0031EDHK V0202101N004612200019N0112651N1+00001-00501999999ADDGA1021+006901999GA2041+063001999GF104991999999999999999999MA1102611999999REMMET078METAR EDHK 081420Z 21009KT 9999 FEW023 SCT210 M00/M05 Q1026 BLU/BLU/BECMG BLU;
0164100465999992009010815204+54367+010133FM-15+0031EDHK V0202201N005110600019N0112651N1-00101-00401999999ADDGA1041+006301999GA2071+060001999GF107991999999999999999999MA1102611999999REMMET079METAR EDHK 081520Z 22010KT 9999 SCT021 BKN200 M01/M04 Q1026 BLU/BLU/ BECMG BLU;
0187100465999992009010816204+54367+010133FM-15+0031EDHK V0202201N00511009601CN0112651N1-00101-00401999999ADDGA1021+006301999GA2041+009601999GA3071+066001999GF107991999999999999999999MA1102611999999REMMET086METAR EDHK 081620Z 22010KT 9999 FEW021 SCT032 BKN220 M01/M04 Q1026 BLU/BLU/ BECMG BLU;
0163100465999992009010817204+54367+010133FM-15+0031EDHK V0202101N004610084019N0112651N1-00101-00401999999ADDGA1071+008401999GA2071+066001999GF107991999999999999999999MA1102611999999REMMET078METAR EDHK 081720Z 21009KT 9999 BKN028 BKN220 M01/M04 Q1026 BLU BLU TEMPO GRN;
0152100465999992009010818054+54367+010133FM-16+0031EDHK V0202101N004110075019N0080001N1-00101-00401999999ADDGA1071+007501999GF107991999999999999999999MA1102611999999MW1561REMMET077SPECI EDHK 081805Z 21008KT 8000 -FZDZ BKN025 M01/M04 Q1026 BLU BLU TEMPO GRN;
0147100465999992009010818204+54367+010133FM-15+0031EDHK V0202101N005110066019N0060001N1-00101-00401999999ADDGA1071+006601999GF107991999999999999999999MA1102611999999REMMET078METAR EDHK 081820Z 21010KT 6000 BKN022 M01/M04 Q1026 REFZDZ WHT BLU TEMPO GRN;
0147100465999992009010819204+54367+010133FM-15+0031EDHK V0202101N004110075019N0050001N1-00101-00301999999ADDGA1071+007501999GF107991999999999999999999MA1102611999999MW1101REMMET072METAR EDHK 081920Z 21008KT 5000 BR BKN025 M01/M03 Q1026 WHT FCST CANCEL;
0158100465999992009010820204+54367+010133FM-15+0031EDHK V0202101N005110084019N0045001N1-00101-00301999999ADDGA1021+003001999GA2071+008401999GF107991999999999999999999MA1102611999999MW1101REMMET067METAR EDHK 082020Z 21010KT 4500 BR FEW010 BKN028 M01/M03 Q1026 GRN;
0158100465999992009010821204+54367+010133FM-15+0031EDHK V0202201N004110030019N0045001N1-00101-00201999999ADDGA1071+003001999GA2071+010501999GF107991999999999999999999MA1102611999999MW1101REMMET067METAR EDHK 082120Z 22008KT 4500 BR BKN010 BKN035 M01/M02 Q1026 GRN;
0135100465999992009010822204+54367+010133FM-15+0031EDHK V0202201N005710027019N0040001N1+00001-00201999999ADDGA1071+002701999GF107991999999999999999999MA1102611999999MW1101REMMET060METAR EDHK 082220Z 22011KT 4000 BR BKN009 M00/M02 Q1026 GRN;
0135100465999992009010823204+54367+010133FM-15+0031EDHK V0202201N004610024019N0040001N1+00001-00101999999ADDGA1071+002401999GF107991999999999999999999MA1102511999999MW1101REMMET060METAR EDHK 082320Z 22009KT 4000 BR BKN008 M00/M01 Q1025 GRN;
0134100465999992009010900204+54367+010133FM-15+0031EDHK V0202301N005110021019N0040001N1+00001-00101999999ADDGA1071+002101999GF107991999999999999999999MA1102511999999MW1101REMMET059METAR EDHK 090020Z 23010KT 4000 BR BKN007 00/M01 Q1025 GRN;
0146100465999992009010901204+54367+010133FM-15+0031EDHK V0202201N006210018019N0035001N1+00001-00101999999ADDGA1071+001801999GF107991999999999999999999MA1102511999999MW1101MW2561REMMET065METAR EDHK 090120Z 22012KT 3500 -FZDZ BR BKN006 00/M01 Q1025 YLO;
0146100465999992009010902204+54367+010133FM-15+0031EDHK V0202201N006210015019N0030001N1+00001-00101999999ADDGA1071+001501999GF107991999999999999999999MA1102511999999MW1101MW2561REMMET065METAR EDHK 090220Z 22012KT 3000 -FZDZ BR BKN005 00/M01 Q1025 YLO;
0146100465999992009010903204+54367+010133FM-15+0031EDHK V0202201N005110012019N0022001N1+00001+00001999999ADDGA1071+001201999GF107991999999999999999999MA1102511999999MW1101MW2561REMMET065METAR EDHK 090320Z 22010KT 2200 -FZDZ BR BKN004 00/M00 Q1025 YLO;
0167100465999992009010904204+54367+010133FM-15+0031EDHK V0202201N005110012019N0020001N1+00001+00001999999ADDGA1071+001201999GF107991999999999999999999MA1102511999999MW1101MW2561REMMET086METAR EDHK 090420Z 22010KT 2000 -FZDZ BR BKN004 00/M00 Q1025 REFZRA YLO YLO TEMPO AMB;
0160100465999992009010905204+54367+010133FM-15+0031EDHK V0202301N004610012019N0020001N1+00101+00001999999ADDGA1071+001201999GF107991999999999999999999MA1102511999999MW1101MW2561REMMET079METAR EDHK 090520Z 23009KT 2000 -FZDZ BR BKN004 01/M00 Q1025 YLO YLO TEMPO AMB;
0164100465999992009010906204+54367+010133FM-15+0031EDHK V0202201N004610012019N0025001N1+00101+00101999999ADDGA1071+001201999GF107991999999999999999999MA1102511999999MW1101MW2511REMMET083METAR EDHK 090620Z 22009KT 2500 -DZ BR BKN004 01/01 Q1025 REFZDZ YLO YLO TEMPO AMB;
0168100465999992009010907204+54367+010133FM-15+0031EDHK V0202301N006210009019N0018001N1+00101+00101999999ADDED199U23009GA1071+000901999GF107991999999999999999999MA1102511999999MW1101REMMET082METAR EDHK 090720Z 23012KT 1800 R26/2300N BR BKN003 01/01 Q1025 YLO GRN TEMPO YLO;
0191100465999992009010908204+54367+010133FM-15+0031EDHK V0202201N005110009019N0020001N1+00101+00101999999ADDED199U16009GA1021+000601999GA2071+000901999GF107991999999999999999999MA1102511999999MW1101REMMET089METAR EDHK 090820Z 22010KT 2000 R26/1600N BR FEW002 BKN003 01/01 Q1025 YLO YLO TEMPO AMB;
0147100465999992009010909204+54367+010133FM-15+0031EDHK V0202301N005110009019N0025001N1+00201+00201999999ADDGA1071+000901999GF107991999999999999999999MA1102611999999MW1101REMMET072METAR EDHK 090920Z 23010KT 2500 BR BKN003 02/02 Q1026 YLO YLO TEMPO AMB;
0191100465999992009010910204+54367+010133FM-15+0031EDHK V0202301N005110009019N0020001N1+00201+00201999999ADDED199U14009GA1021+000601999GA2071+000901999GF107991999999999999999999MA1102611999999MW1101REMMET089METAR EDHK 091020Z 23010KT 2000 R26/1400N BR FEW002 BKN003 02/02 Q1026 YLO YLO TEMPO AMB;
0168100465999992009010910354+54367+010133FM-16+0031EDHK V0202301N004610006019N0015001N1+00201+00201999999ADDED199U11009GA1071+000601999GF107991999999999999999999MA1102611999999MW1101REMMET082SPECI EDHK 091035Z 23009KT 1500 R26/1100N BR BKN002 02/02 Q1026 AMB YLO TEMPO AMB;
0168100465999992009010911204+54367+010133FM-15+0031EDHK V0202401N005110009019N0015001N1+00201+00201999999ADDED199U15009GA1071+000901999GF107991999999999999999999MA1102611999999MW1101REMMET082METAR EDHK 091120Z 24010KT 1500 R26/1500N BR BKN003 02/02 Q1026 AMB YLO TEMPO AMB;
0147100465999992009010912034+54367+010133FM-16+0031EDHK V0202401N005110009019N0023001N1+00301+00301999999ADDGA1081+000901999GF108991999999999999999999MA1102611999999MW1101REMMET072SPECI EDHK 091203Z 24010KT 2300 BR OVC003 03/03 Q1026 YLO YLO TEMPO GRN;
0170100465999992009010912204+54367+010133FM-15+0031EDHK V0202401N004610012019N0028001N1+00301+00201999999ADDGA1071+001201999GA2071+006901999GF107991999999999999999999MA1102611999999MW1101REMMET079METAR EDHK 091220Z 24009KT 2800 BR BKN004 BKN023 03/02 Q1026 YLO YLO TEMPO GRN;
0170100465999992009010912444+54367+010133FM-16+0031EDHK V0202401N004610069019N0032001N1+00301+00201999999ADDGA1041+001501999GA2071+006901999GF107991999999999999999999MA1102611999999MW1101REMMET079SPECI EDHK 091244Z 24009KT 3200 BR SCT005 BKN023 03/02 Q1026 YLO YLO TEMPO GRN;
0168100465999992009010913204+54367+010133FM-15+0031EDHK V0202401N004610072019N0038001N1+00301+00201999999ADDGA1021+001501999GA2071+007201999GF107991999999999999999999MA1102611999999MW1101REMMET077METAR EDHK 091320Z 24009KT 3800 BR FEW005 BKN024 03/02 Q1026 GRN FCST CANCEL;
0133100465999992009010914204+54367+010133FM-15+0031EDHK V0202401N004110072019N0042001N1+00301+00201999999ADDGA1071+007201999GF107991999999999999999999MA1102611999999MW1101REMMET058METAR EDHK 091420Z 24008KT 4200 BR BKN024 03/02 Q1026 GRN;
0133100465999992009010915064+54367+010133FM-16+0031EDHK V0202301N003610072019N0050001N1+00301+00201999999ADDGA1071+007201999GF107991999999999999999999MA1102611999999MW1101REMMET058SPECI EDHK 091506Z 23007KT 5000 BR BKN024 03/02 Q1026 WHT;
0124100465999992009010915204+54367+010133FM-15+0031EDHK V0202301N003610072019N0060001N1+00301+00201999999ADDGA1071+007201999GF107991999999999999999999MA1102711999999REMMET055METAR EDHK 091520Z 23007KT 6000 BKN024 03/02 Q1027 WHT;
0124100465999992009010916204+54367+010133FM-15+0031EDHK V0202201N003610072019N0060001N1+00301+00201999999ADDGA1071+007201999GF107991999999999999999999MA1102711999999REMMET055METAR EDHK 091620Z 22007KT 6000 BKN024 03/02 Q1027 WHT;
0147100465999992009010917204+54367+010133FM-15+0031EDHK V0202401N003610075019N0060001N1+00301+00201999999ADDGA1041+001201999GA2071+007501999GF107991999999999999999999MA1102711999999REMMET062METAR EDHK 091720Z 24007KT 6000 SCT004 BKN025 03/02 Q1027 WHT;
0156100465999992009010918204+54367+010133FM-15+0031EDHK V0202401N004110072019N0050001N1+00201+00201999999ADDGA1041+001201999GA2071+007201999GF107991999999999999999999MA1102711999999MW1101REMMET065METAR EDHK 091820Z 24008KT 5000 BR SCT004 BKN024 02/02 Q1027 WHT;
0156100465999992009010919204+54367+010133FM-15+0031EDHK V0202401N003610012019N0045001N1+00201+00201999999ADDGA1071+001201999GA2071+007501999GF107991999999999999999999MA1102811999999MW1101REMMET065METAR EDHK 091920Z 24007KT 4500 BR BKN004 BKN025 02/02 Q1028 YLO;
0156100465999992009010920204+54367+010133FM-15+0031EDHK V0202401N003610012019N0040001N1+00201+00201999999ADDGA1071+001201999GA2071+007801999GF107991999999999999999999MA1102811999999MW1101REMMET065METAR EDHK 092020Z 24007KT 4000 BR BKN004 BKN026 02/02 Q1028 YLO;
0133100465999992009010921204+54367+010133FM-15+0031EDHK V0202401N002610009019N0035001N1+00201+00201999999ADDGA1071+000901999GF107991999999999999999999MA1102811999999MW1101REMMET058METAR EDHK 092120Z 24005KT 3500 BR BKN003 02/02 Q1028 YLO;
0156100465999992009010922204+54367+010133FM-15+0031EDHK V0202401N003610081019N0027001N1+00201+00201999999ADDGA1041+000901999GA2071+008101999GF107991999999999999999999MA1102811999999MW1101REMMET065METAR EDHK 092220Z 24007KT 2700 BR SCT003 BKN027 02/02 Q1028 YLO;
0133100465999992009010923204+54367+010133FM-15+0031EDHK V0202301N003110009019N0022001N1+00201+00201999999ADDGA1071+000901999GF107991999999999999999999MA1102811999999MW1101REMMET058METAR EDHK 092320Z 23006KT 2200 BR BKN003 02/02 Q1028 YLO;
0133100465999992009011000204+54367+010133FM-15+0031EDHK V0202301N002610009019N0020001N1+00201+00201999999ADDGA1071+000901999GF107991999999999999999999MA1102811999999MW1101REMMET058METAR EDHK 100020Z 23005KT 2000 BR BKN003 02/02 Q1028 YLO;
0133100465999992009011001204+54367+010133FM-15+0031EDHK V0202401N002610006019N0012001N1+00201+00201999999ADDGA1071+000601999GF107991999999999999999999MA1102911999999MW1101REMMET058METAR EDHK 100120Z 24005KT 1200 BR BKN002 02/02 Q1029 AMB;
0156100465999992009011002204+54367+010133FM-15+0031EDHK V0202201N003610009019N0017001N1+00201+00201999999ADDGA1021+000601999GA2071+000901999GF107991999999999999999999MA1102911999999MW1101REMMET065METAR EDHK 100220Z 22007KT 1700 BR FEW002 BKN003 02/02 Q1029 YLO;
0156100465999992009011003204+54367+010133FM-15+0031EDHK V0202301N003110009019N0017001N1+00201+00201999999ADDGA1071+000901999GA2071+008101999GF107991999999999999999999MA1102811999999MW1101REMMET065METAR EDHK 100320Z 23006KT 1700 BR BKN003 BKN027 02/02 Q1028 YLO;
0156100465999992009011004204+54367+010133FM-15+0031EDHK V0202301N002610009019N0020001N1+00201+00201999999ADDGA1071+000901999GA2071+008401999GF107991999999999999999999MA1102911999999MW1101REMMET065METAR EDHK 100420Z 23005KT 2000 BR BKN003 BKN028 02/02 Q1029 YLO;
0156100465999992009011005204+54367+010133FM-15+0031EDHK V0202201N002610009019N0023001N1+00201+00201999999ADDGA1071+000901999GA2071+009001999GF107991999999999999999999MA1102911999999MW1101REMMET065METAR EDHK 100520Z 22005KT 2300 BR BKN003 BKN030 02/02 Q1029 YLO;
0156100465999992009011006204+54367+010133FM-15+0031EDHK V0202201N002610015019N0028001N1+00201+00201999999ADDGA1071+001501999GA2071+008401999GF107991999999999999999999MA1102811999999MW1101REMMET065METAR EDHK 100620Z 22005KT 2800 BR BKN005 BKN028 02/02 Q1028 YLO;
0156100465999992009011007204+54367+010133FM-15+0031EDHK V0202101N002610084019N0030001N1+00101+00101999999ADDGA1041+001801999GA2071+008401999GF107991999999999999999999MA1102811999999MW1101REMMET065METAR EDHK 100720Z 21005KT 3000 BR SCT006 BKN028 01/01 Q1028 YLO;
0133100465999992009011008204+54367+010133FM-15+0031EDHK V0202101N002610084019N0034001N1+00101+00101999999ADDGA1071+008401999GF107991999999999999999999MA1102811999999MW1101REMMET058METAR EDHK 100820Z 21005KT 3400 BR BKN028 01/01 Q1028 YLO;
0133100465999992009011009204+54367+010133FM-15+0031EDHK V0202401N002610084019N0037001N1+00201+00101999999ADDGA1071+008401999GF107991999999999999999999MA1102811999999MW1101REMMET058METAR EDHK 100920Z 24005KT 3700 BR BKN028 02/01 Q1028 GRN;
0133100465999992009011010204+54367+010133FM-15+0031EDHK V0202101N002610084019N0045001N1+00201+00101999999ADDGA1071+008401999GF107991999999999999999999MA1102911999999MW1101REMMET058METAR EDHK 101020Z 21005KT 4500 BR BKN028 02/01 Q1029 GRN;
0133100465999992009011010464+54367+010133FM-16+0031EDHK V0202001N002110084019N0050001N1+00201+00101999999ADDGA1071+008401999GF107991999999999999999999MA1102911999999MW1101REMMET058SPECI EDHK 101046Z 20004KT 5000 BR BKN028 02/01 Q1029 WHT;
0124100465999992009011011204+54367+010133FM-15+0031EDHK V0202101N002610084019N0070001N1+00201+00001999999ADDGA1071+008401999GF107991999999999999999999MA1102911999999REMMET055METAR EDHK 101120Z 21005KT 7000 BKN028 02/00 Q1029 WHT;
0133100465999992009011012204+54367+010133FM-15+0031EDHK V0201501N002110072019N0050001N1+00301+00001999999ADDGA1071+007201999GF107991999999999999999999MA1102811999999MW1101REMMET058METAR EDHK 101220Z 15004KT 5000 BR BKN024 03/00 Q1028 WHT;
0124100465999992009011013204+54367+010133FM-15+0031EDHK V0201601N002110084019N0060001N1+00301+00001999999ADDGA1071+008401999GF107991999999999999999999MA1102711999999REMMET055METAR EDHK 101320Z 16004KT 6000 BKN028 03/00 Q1027 WHT;
0126100465999992009011014204+54367+010133FM-15+0031EDHK V0201701N002112200019N0080001N1+00301+00001999999ADDGA1021+008401999GF102991999999999999999999MA1102711999999REMMET057METAR EDHK 101420Z 17004KT 8000 FEW028 03/M00 Q1027 BLU/;
0077100465999992009011015204+54367+010133FM-15+0031EDHK V0201601N002112200019N0080001N1+00201-00101999999ADDMA1102711999999REMMET050METAR EDHK 101520Z 16004KT 8000 02/M01 Q1027 BLU/;
0076100465999992009011016204+54367+010133FM-15+0031EDHK V0201601N003112200019N0070001N1+00201-00101999999ADDMA1102611999999REMMET049METAR EDHK 101620Z 16006KT 7000 02/M01 Q1026 WHT;
0076100465999992009011017204+54367+010133FM-15+0031EDHK V0201601N003112200019N0070001N1+00101-00101999999ADDMA1102611999999REMMET049METAR EDHK 101720Z 16006KT 7000 01/M01 Q1026 WHT;
0076100465999992009011018204+54367+010133FM-15+0031EDHK V0201701N004112200019N0070001N1+00101-00101999999ADDMA1102611999999REMMET049METAR EDHK 101820Z 17008KT 7000 01/M01 Q1026 WHT;
0076100465999992009011019204+54367+010133FM-15+0031EDHK V0201801N003612200019N0070001N1+00001-00201999999ADDMA1102611999999REMMET049METAR EDHK 101920Z 18007KT 7000 00/M02 Q1026 WHT;
0076100465999992009011020204+54367+010133FM-15+0031EDHK V0201801N003612200019N0070001N1+00001-00201999999ADDMA1102611999999REMMET049METAR EDHK 102020Z 18007KT 7000 00/M02 Q1026 WHT;
0077100465999992009011021204+54367+010133FM-15+0031EDHK V0202001N003112200019N0070001N1-00101-00301999999ADDMA1102611999999REMMET050METAR EDHK 102120Z 20006KT 7000 M01/M03 Q1026 WHT;
0077100465999992009011022204+54367+010133FM-15+0031EDHK V0201801N003112200019N0070001N1-00101-00301999999ADDMA1102611999999REMMET050METAR EDHK 102220Z 18006KT 7000 M01/M03 Q1026 WHT;
0078100465999992009011023204+54367+010133FM-15+0031EDHK V0201701N002612200019N0080001N1-00101-00401999999ADDMA1102611999999REMMET051METAR EDHK 102320Z 17005KT 8000 M01/M04 Q1026 BLU/;
0078100465999992009011100204+54367+010133FM-15+0031EDHK V0201901N004112200019N0080001N1-00201-00501999999ADDMA1102511999999REMMET051METAR EDHK 110020Z 19008KT 8000 M02/M05 Q1025 BLU/;
0150100465999992009011101204+54367+010133FM-15+0031EDHK V0201801N004112200019N0080001N1-00201-00501999999ADDGA1021+048001999GA2041+084001999GF104991999999999999999999MA1102511999999REMMET065METAR EDHK 110120Z 18008KT 8000 FEW160 SCT280 M02/M05 Q1025 BLU/;
0127100465999992009011102204+54367+010133FM-15+0031EDHK V0202001N004112200019N0080001N1-00301-00601999999ADDGA1041+084001999GF104991999999999999999999MA1102511999999REMMET058METAR EDHK 110220Z 20008KT 8000 SCT280 M03/M06 Q1025 BLU/;
0127100465999992009011103204+54367+010133FM-15+0031EDHK V0202001N004112200019N0080001N1-00301-00601999999ADDGA1021+084001999GF102991999999999999999999MA1102511999999REMMET058METAR EDHK 110320Z 20008KT 8000 FEW280 M03/M06 Q1025 BLU/;
0127100465999992009011104204+54367+010133FM-15+0031EDHK V0202001N005112200019N0080001N1-00301-00701999999ADDGA1041+084001999GF104991999999999999999999MA1102511999999REMMET058METAR EDHK 110420Z 20010KT 8000 SCT280 M03/M07 Q1025 BLU/;
0127100465999992009011105204+54367+010133FM-15+0031EDHK V0202101N004612200019N0080001N1-00301-00601999999ADDGA1041+084001999GF104991999999999999999999MA1102511999999REMMET058METAR EDHK 110520Z 21009KT 8000 SCT280 M03/M06 Q1025 BLU/;
0127100465999992009011106204+54367+010133FM-15+0031EDHK V0201901N004110840019N0080001N1-00401-00601999999ADDGA1071+084001999GF107991999999999999999999MA1102511999999REMMET058METAR EDHK 110620Z 19008KT 8000 BKN280 M04/M06 Q1025 BLU/;
0126100465999992009011107204+54367+010133FM-15+0031EDHK V0202101N005110840019N0060001N1-00401-00601999999ADDGA1071+084001999GF107991999999999999999999MA1102511999999REMMET057METAR EDHK 110720Z 21010KT 6000 BKN280 M04/M06 Q1025 WHT;
0135100465999992009011108204+54367+010133FM-15+0031EDHK V0202001N005710018019N0030001N1-00401-00601999999ADDGA1071+001801999GF107991999999999999999999MA1102511999999MW1101REMMET060METAR EDHK 110820Z 20011KT 3000 BR BKN006 M04/M06 Q1025 YLO;
0135100465999992009011109204+54367+010133FM-15+0031EDHK V0202001N004610018019N0025001N1-00301-00401999999ADDGA1071+001801999GF107991999999999999999999MA1102511999999MW1101REMMET060METAR EDHK 110920Z 20009KT 2500 BR BKN006 M03/M04 Q1025 YLO;
0135100465999992009011110204+54367+010133FM-15+0031EDHK V0202001N005710018019N0025001N1-00201-00301999999ADDGA1071+001801999GF107991999999999999999999MA1102511999999MW1101REMMET060METAR EDHK 111020Z 20011KT 2500 BR BKN006 M02/M03 Q1025 YLO;
0158100465999992009011111014+54367+010133FM-16+0031EDHK V0202001N004610840019N0030001N1-00201-00301999999ADDGA1041+001801999GA2071+084001999GF107991999999999999999999MA1102401999999MW1101REMMET067SPECI EDHK 111101Z 20009KT 3000 BR SCT006 BKN280 M02/M03 Q1024 YLO;
0158100465999992009011111204+54367+010133FM-15+0031EDHK V0202001N006210900019N0030001N1-00101-00201999999ADDGA1021+001801999GA2071+090001999GF107991999999999999999999MA1102401999999MW1101REMMET067METAR EDHK 111120Z 20012KT 3000 BR FEW006 BKN300 M01/M02 Q1024 YLO;
0157100465999992009011112204+54367+010133FM-15+0031EDHK V0202001N005110900019N0038001N1+00001-00301999999ADDGA1021+045001999GA2071+090001999GF107991999999999999999999MA1102301999999MW1101REMMET066METAR EDHK 111220Z 20010KT 3800 BR FEW150 BKN300 00/M03 Q1023 GRN;
0157100465999992009011113204+54367+010133FM-15+0031EDHK V0201901N005110900019N0050001N1+00101-00301999999ADDGA1021+045001999GA2071+090001999GF107991999999999999999999MA1102301999999MW1051REMMET066METAR EDHK 111320Z 19010KT 5000 HZ FEW150 BKN300 01/M03 Q1023 WHT;
0148100465999992009011114204+54367+010133FM-15+0031EDHK V0202001N004610900019N0060001N1+00101-00301999999ADDGA1021+045001999GA2071+090001999GF107991999999999999999999MA1102301999999REMMET063METAR EDHK 111420Z 20009KT 6000 FEW150 BKN300 01/M03 Q1023 WHT;
0148100465999992009011115204+54367+010133FM-15+0031EDHK V0202001N006210900019N0060001N1+00201-00401999999ADDGA1021+036001999GA2071+090001999GF107991999999999999999999MA1102301999999REMMET063METAR EDHK 111520Z 20012KT 6000 FEW120 BKN300 02/M04 Q1023 WHT;
0148100465999992009011116204+54367+010133FM-15+0031EDHK V0202001N005110900019N0060001N1+00201-00401999999ADDGA1021+036001999GA2071+090001999GF107991999999999999999999MA1102301999999REMMET063METAR EDHK 111620Z 20010KT 6000 FEW120 BKN300 02/M04 Q1023 WHT;
0148100465999992009011117204+54367+010133FM-15+0031EDHK V0202001N005710750019N0060001N1+00201-00501999999ADDGA1021+036001999GA2071+075001999GF107991999999999999999999MA1102301999999REMMET063METAR EDHK 111720Z 20011KT 6000 FEW120 BKN250 02/M05 Q1023 WHT;
0149100465999992009011118204+54367+010133FM-15+0031EDHK V0202001N006210660019N0090001N1+00201-00601999999ADDGA1021+036001999GA2071+066001999GF107991999999999999999999MA1102201999999REMMET064METAR EDHK 111820Z 20012KT 9000 FEW120 BKN220 02/M06 Q1022 BLU/;
0126100465999992009011119204+54367+010133FM-15+0031EDHK V0202001N006212200019N0080001N1+00201-00601999999ADDGA1041+063001999GF104991999999999999999999MA1102201999999REMMET057METAR EDHK 111920Z 20012KT 8000 SCT210 02/M06 Q1022 BLU/;
0137100465999992009011120204+54367+010133FM-15+0031EDHK V0202001N006212200019N0080001N1+00201-00601999999ADDGA1041+063001999GF104991999999999999999999MA1102101999999OC101131REMMET060METAR EDHK 112020Z 20012G22KT 8000 SCT210 02/M06 Q1021 BLU/;
0126100465999992009011121204+54367+010133FM-15+0031EDHK V0201901N006712200019N0080001N1+00201-00601999999ADDGA1041+069001999GF104991999999999999999999MA1102101999999REMMET057METAR EDHK 112120Z 19013KT 8000 SCT230 02/M06 Q1021 BLU/;
0126100465999992009011122204+54367+010133FM-15+0031EDHK V0202001N006712200019N0080001N1+00201-00601999999ADDGA1041+069001999GF104991999999999999999999MA1102101999999REMMET057METAR EDHK 112220Z 20013KT 8000 SCT230 02/M06 Q1021 BLU/;
0126100465999992009011123204+54367+010133FM-15+0031EDHK V0202001N005712200019N0080001N1+00201-00601999999ADDGA1041+069001999GF104991999999999999999999MA1102001999999REMMET057METAR EDHK 112320Z 20011KT 8000 SCT230 02/M06 Q1020 BLU/;
0126100465999992009011200204+54367+010133FM-15+0031EDHK V0202001N006712200019N0080001N1+00201-00601999999ADDGA1041+069001999GF104991999999999999999999MA1101901999999REMMET057METAR EDHK 120020Z 20013KT 8000 SCT230 02/M06 Q1019 BLU/;
0126100465999992009011201204+54367+010133FM-15+0031EDHK V0201901N006212200019N0080001N1+00201-00601999999ADDGA1041+066001999GF104991999999999999999999MA1101801999999REMMET057METAR EDHK 120120Z 19012KT 8000 SCT220 02/M06 Q1018 BLU/;
0126100465999992009011202204+54367+010133FM-15+0031EDHK V0202001N006712200019N0080001N1+00201-00601999999ADDGA1041+060001999GF104991999999999999999999MA1101801999999REMMET057METAR EDHK 120220Z 20013KT 8000 SCT200 02/M06 Q1018 BLU/;
0148100465999992009011203204+54367+010133FM-15+0031EDHK V0201901N005710570019N0080001N1+00201-00601999999ADDGA1021+042001999GA2071+057001999GF107991999999999999999999MA1101801999999REMMET063METAR EDHK 120320Z 19011KT 8000 FEW140 BKN190 02/M06 Q1018 BLU;
0130100465999992009011204204+54367+010133FM-15+0031EDHK V0202001N006712200019N0080001N1+00301-00601999999ADDGA1041+060001999GF104991999999999999999999MA1101691999999REMMET061METAR EDHK 120420Z 20013KT 8000 SCT200 03/M06 Q1017 BLU/BLU/;
0140100465999992009011205204+54367+010133FM-15+0031EDHK V0202001N006212200019N0080001N1+00301-00501999999ADDGA1041+060001999GF104991999999999999999999MA1101691999999REMMET071METAR EDHK 120520Z 20012KT 8000 SCT200 03/M05 Q1017 BLU/BLU/ TEMPO BLU;
0163100465999992009011206204+54367+010133FM-15+0031EDHK V0202001N006710540019N0112651N1+00401-00501999999ADDGA1041+039001999GA2071+054001999GF107991999999999999999999MA1101691999999REMMET078METAR EDHK 120620Z 20013KT 9999 SCT130 BKN180 04/M05 Q1017 BLU BLU/ TEMPO BLU;
0174100465999992009011207204+54367+010133FM-15+0031EDHK V0202001N006710480019N0112651N1+00401-00401999999ADDGA1041+024001999GA2071+048001999GF107991999999999999999999MA1101591999999OC101291REMMET081METAR EDHK 120720Z 20013G25KT 9999 SCT080 BKN160 04/M04 Q1016 BLU BLU/ TEMPO BLU;
0197100465999992009011208204+54367+010133FM-15+0031EDHK V0202001N00771039001CN0112651N1+00401-00401999999ADDGA1021+024001999GA2041+039001999GA3071+054001999GF107991999999999999999999MA1101491999999OC101291REMMET088METAR EDHK 120820Z 20015G25KT 9999 FEW080 SCT130 BKN180 04/M04 Q1015 BLU BLU/ TEMPO BLU;
0197100465999992009011209204+54367+010133FM-15+0031EDHK V0202001N00621042001CN0112651N1+00501-00401999999ADDGA1021+027001999GA2041+042001999GA3071+054001999GF107991999999999999999999MA1101491999999OC101131REMMET088METAR EDHK 120920Z 20012G22KT 9999 FEW090 SCT140 BKN180 05/M04 Q1015 BLU BLU/ TEMPO BLU;
0163100465999992009011210204+54367+010133FM-15+0031EDHK V0202001N007210570019N0112651N1+00501-00401999999ADDGA1041+042001999GA2071+057001999GF107991999999999999999999MA1101491999999REMMET078METAR EDHK 121020Z 20014KT 9999 SCT140 BKN190 05/M04 Q1015 BLU BLU/ TEMPO BLU;
0152100465999992009011211204+54367+010133FM-15+0031EDHK V0202001N006710450019N0112651N1+00501-00401999999ADDGA1071+045001999GA2071+060001999GF107991999999999999999999MA1101391999999REMMET067METAR EDHK 121120Z 20013KT 9999 BKN150 BKN200 05/M04 Q1014 BLU BLU;
0152100465999992009011212204+54367+010133FM-15+0031EDHK V0202101N007210540019N0112651N1+00601-00401999999ADDGA1041+042001999GA2071+054001999GF107991999999999999999999MA1101391999999REMMET067METAR EDHK 121220Z 21014KT 9999 SCT140 BKN180 06/M04 Q1014 BLU BLU;
0152100465999992009011213204+54367+010133FM-15+0031EDHK V0202001N006710600019N0112651N1+00601-00301999999ADDGA1041+045001999GA2071+060001999GF107991999999999999999999MA1101391999999REMMET067METAR EDHK 121320Z 20013KT 9999 SCT150 BKN200 06/M03 Q1014 BLU/BLU;
0140100465999992009011214204+54367+010133FM-15+0031EDHK V0202001N007210390019N0112651N1+00601-00301999999ADDGA1071+039001999GF107991999999999999999999MA1101291999999OC101231REMMET063METAR EDHK 121420Z 20014G24KT 9999 BKN130 06/M03 Q1013 BLU BLU;
0152100465999992009011215204+54367+010133FM-15+0031EDHK V0202101N005710120019N0112651N1+00601-00301999999ADDGA1071+012001999GA2071+039001999GF107991999999999999999999MA1101191999999REMMET067METAR EDHK 121520Z 21011KT 9999 BKN040 BKN130 06/M03 Q1012 BLU BLU;
0140100465999992009011216204+54367+010133FM-15+0031EDHK V0202201N005110105019N0112651N1+00601-00301999999ADDGA1071+010501999GF107991999999999999999999MA1101191999999OC101081REMMET063METAR EDHK 121620Z 22010G21KT 9999 BKN035 06/M03 Q1012 BLU BLU;
0129100465999992009011217204+54367+010133FM-15+0031EDHK V0202101N006710075019N0112651N1+00601-00401999999ADDGA1071+007501999GF107991999999999999999999MA1101191999999REMMET060METAR EDHK 121720Z 21013KT 9999 BKN025 06/M04 Q1012 BLU BLU;
0139100465999992009011218204+54367+010133FM-15+0031EDHK V0202001N005110069019N0112651N1+00601-00401999999ADDGA1071+006901999GF107991999999999999999999MA1101191999999REMMET070METAR EDHK 121820Z 20010KT 9999 BKN023 06/M04 Q1012 WHT WHT TEMPO YLO;
0137100465999992009011219204+54367+010133FM-15+0031EDHK V0202001N004610075019N0112651N1+00601-00401999999ADDGA1071+007501999GF107991999999999999999999MA1101081999999REMMET068METAR EDHK 121920Z 20009KT 9999 BKN025 06/M04 Q1011 BLU FCST CANCEL;
0125100465999992009011220204+54367+010133FM-15+0031EDHK V0202001N005710066019N0112651N1+00501-00401999999ADDGA1071+006601999GF107991999999999999999999MA1101021999999REMMET056METAR EDHK 122020Z 20011KT 9999 BKN022 05/M04 Q1010 WHT;
0125100465999992009011221204+54367+010133FM-15+0031EDHK V0202001N005110072019N0112651N1+00501-00401999999ADDGA1071+007201999GF107991999999999999999999MA1101021999999REMMET056METAR EDHK 122120Z 20010KT 9999 BKN024 05/M04 Q1010 WHT;
0135100465999992009011222204+54367+010133FM-15+0031EDHK V0202001N004610069019N0112651N1+00501-00201999999ADDGA1071+006901999GF107991999999999999999999MA1100911999999MW1611REMMET060METAR EDHK 122220Z 20009KT 9999 -RA BKN023 05/M02 Q1009 WHT;
0158100465999992009011223204+54367+010133FM-15+0031EDHK V0202101N007210069019N0112651N1+00501-00201999999ADDGA1071+006901999GA2071+024001999GF107991999999999999999999MA1100911999999MW1611REMMET067METAR EDHK 122320Z 21014KT 9999 -RA BKN023 BKN080 05/M02 Q1009 WHT;
0135100465999992009011300204+54367+010133FM-15+0031EDHK V0202101N006210069019N0112651N1+00401+00101999999ADDGA1071+006901999GF107991999999999999999999MA1100911999999OC101131REMMET058METAR EDHK 130020Z 21012G22KT 9999 BKN023 04/01 Q1009 WHT;
0142100465999992009011301204+54367+010133FM-15+0031EDHK V0202001N006210048019N0080001N1+00301+00101999999ADDGA1071+004801999GF107991999999999999999999MA1100811999999MW1511MW2611REMMET061METAR EDHK 130120Z 20012KT 8000 -RADZ BKN016 03/01 Q1008 WHT;
0142100465999992009011302004+54367+010133FM-15+0031EDHK V0202001N006210039019N0060001N1+00301+00101999999ADDGA1071+003901999GF107991999999999999999999MA1100811999999MW1511MW2611REMMET061SPECI EDHK 130158Z 20012KT 6000 -RADZ BKN013 03/01 Q1008 GRN;
0133100465999992009011302204+54367+010133FM-15+0031EDHK V0202001N005710024019N0045001N1+00301+00201999999ADDGA1071+002401999GF107991999999999999999999MA1100811999999MW1101REMMET058METAR EDHK 130220Z 20011KT 4500 BR BKN008 03/02 Q1008 GRN;
0143100465999992009011303204+54367+010133FM-15+0031EDHK V0202001N005110021019N0035001N1+00301+00201999999ADDGA1071+002101999GF107991999999999999999999MA1100711999999MW1101MW2511REMMET062METAR EDHK 130320Z 20010KT 3500 -DZ BR BKN007 03/02 Q1007 YLO;
0147100465999992009011304204+54367+010133FM-15+0031EDHK V0202001N004610015019N0030001N1+00401+00301999999ADDGA1071+001501999GF107991999999999999999999MA1100711999999MW1101MW2511REMMET066METAR EDHK 130420Z 20009KT 3000 -DZ BR BKN005 04/03 Q1007 YLO YLO;
0157100465999992009011305204+54367+010133FM-15+0031EDHK V0202001N005110012019N0030001N1+00401+00301999999ADDGA1071+001201999GF107991999999999999999999MA1100711999999MW1101MW2511REMMET076METAR EDHK 130520Z 20010KT 3000 -DZ BR BKN004 04/03 Q1007 YLO GRN TEMPO YLO;
0157100465999992009011306204+54367+010133FM-15+0031EDHK V0202101N006210012019N0030001N1+00401+00301999999ADDGA1071+001201999GF107991999999999999999999MA1100811999999MW1101MW2511REMMET076METAR EDHK 130620Z 21012KT 3000 -DZ BR BKN004 04/03 Q1008 YLO GRN TEMPO YLO;
0157100465999992009011307204+54367+010133FM-15+0031EDHK V0202101N005710012019N0030001N1+00401+00301999999ADDGA1071+001201999GF107991999999999999999999MA1100911999999MW1101MW2511REMMET076METAR EDHK 130720Z 21011KT 3000 -DZ BR BKN004 04/03 Q1009 YLO GRN TEMPO YLO;
0157100465999992009011307304+54367+010133FM-16+0031EDHK V0202101N005710012019N0030001N1+00401+00401999999ADDGA1071+001201999GF107991999999999999999999MA1100911999999MW1101MW2511REMMET076SPECI EDHK 130730Z 21011KT 3000 -DZ BR BKN004 04/04 Q1009 YLO YLO TEMPO AMB;
0157100465999992009011308204+54367+010133FM-15+0031EDHK V0202101N005710012019N0030001N1+00501+00401999999ADDGA1071+001201999GF107991999999999999999999MA1100911999999MW1101MW2511REMMET076METAR EDHK 130820Z 21011KT 3000 -DZ BR BKN004 05/04 Q1009 YLO YLO TEMPO AMB;
0178100465999992009011309204+54367+010133FM-15+0031EDHK V0202101N005110009019N0015001N1+00501+00401999999ADDED199U13009GA1071+000901999GF107991999999999999999999MA1100911999999MW1101MW2511REMMET086METAR EDHK 130920Z 21010KT 1500 R26/1300N -DZ BR BKN003 05/04 Q1009 AMB YLO TEMPO AMB;
0157100465999992009011310204+54367+010133FM-15+0031EDHK V0202201N005710009019N0020001N1+00501+00401999999ADDGA1071+000901999GF107991999999999999999999MA1101021999999MW1101MW2511REMMET076METAR EDHK 131020Z 22011KT 2000 -DZ BR BKN003 05/04 Q1010 YLO YLO TEMPO AMB;
0157100465999992009011311204+54367+010133FM-15+0031EDHK V0202101N006210012019N0023001N1+00501+00401999999ADDGA1071+001201999GF107991999999999999999999MA1100911999999MW1101MW2511REMMET076METAR EDHK 131120Z 21012KT 2300 -DZ BR BKN004 05/04 Q1009 YLO YLO TEMPO AMB;
0147100465999992009011312204+54367+010133FM-15+0031EDHK V0202201N005710015019N0028001N1+00501+00401999999ADDGA1071+001501999GF107991999999999999999999MA1100911999999MW1101REMMET072METAR EDHK 131220Z 22011KT 2800 BR BKN005 05/04 Q1009 YLO YLO TEMPO AMB;
0147100465999992009011313204+54367+010133FM-15+0031EDHK V0202201N004610012019N0028001N1+00501+00401999999ADDGA1071+001201999GF107991999999999999999999MA1100911999999MW1101REMMET072METAR EDHK 131320Z 22009KT 2800 BR BKN004 05/04 Q1009 YLO YLO TEMPO AMB;
0147100465999992009011314204+54367+010133FM-15+0031EDHK V0202101N004110012019N0025001N1+00501+00401999999ADDGA1071+001201999GF107991999999999999999999MA1100911999999MW1101REMMET072METAR EDHK 131420Z 21008KT 2500 BR BKN004 05/04 Q1009 YLO YLO TEMPO RED;
0168100465999992009011315204+54367+010133FM-15+0031EDHK V0202101N004110009019N0015001N1+00501+00401999999ADDED199U25009GA1071+000901999GF107991999999999999999999MA1101021999999MW1101REMMET082METAR EDHK 131520Z 21008KT 1500 R26/2500N BR BKN003 05/04 Q1010 AMB YLO TEMPO RED;
0168100465999992009011316204+54367+010133FM-15+0031EDHK V0202001N004110009019N0018001N1+00501+00401999999ADDED199U40009GA1071+000901999GF107991999999999999999999MA1101021999999MW1101REMMET082METAR EDHK 131620Z 20008KT 1800 R26/4000N BR BKN003 05/04 Q1010 YLO YLO TEMPO RED;
0178100465999992009011316324+54367+010133FM-16+0031EDHK V0202001N003610009019N0012001N1+00501+00401999999ADDED199U33009GA1071+000901999GF107991999999999999999999MA1101021999999MW1101MW2511REMMET086SPECI EDHK 131632Z 20007KT 1200 R26/3300N -DZ BR BKN003 05/04 Q1010 AMB YLO TEMPO RED;
0178100465999992009011316574+54367+010133FM-16+0031EDHK V0202001N003610009019N0009001N1+00501+00401999999ADDED199U23009GA1071+000901999GF107991999999999999999999MA1101021999999MW1441MW2511REMMET086SPECI EDHK 131657Z 20007KT 0900 R26/2300N -DZ FG BKN003 05/04 Q1010 AMB YLO TEMPO RED;
0178100465999992009011317004+54367+010133FM-16+0031EDHK V0202001N003610006019N0009001N1+00501+00401999999ADDED199U22009GA1071+000601999GF107991999999999999999999MA1101021999999MW1441MW2511REMMET086SPECI EDHK 131700Z 20007KT 0900 R26/2200N -DZ FG BKN002 05/04 Q1010 AMB YLO TEMPO RED;
0155100465999992009011317204+54367+010133FM-15+0031EDHK V0202101N003610006019N0009001N1+00401+00401999999ADDGA1071+000601999GF107991999999999999999999MA1101021999999MW1441MW2511REMMET074METAR EDHK 131720Z 21007KT 0900 -DZ FG BKN002 04/04 Q1010 AMB FCST CANCEL;
0132100465999992009011318204+54367+010133FM-15+0031EDHK V0202001N003110003019N0008001N1+00401+00401999999ADDGA1091+000301999GF109991999999000251999999MA1101021999999MW1451REMMET057METAR EDHK 131820Z 20006KT 0800 FG VV001 04/04 Q1010 RED;
0133100465999992009011319004+54367+010133FM-15+0031EDHK V0202001N003110003019N0015001N1+00401+00401999999ADDGA1071+000301999GF107991999999999999999999MA1101021999999MW1101REMMET058SPECI EDHK 131858Z 20006KT 1500 BR BKN001 04/04 Q1010 RED;
0143100465999992009011319204+54367+010133FM-15+0031EDHK V0201901N003110003019N0012001N1+00401+00401999999ADDGA1071+000301999GF107991999999999999999999MA1101081999999MW1101MW2511REMMET062METAR EDHK 131920Z 19006KT 1200 -DZ BR BKN001 04/04 Q1011 RED;
0143100465999992009011320204+54367+010133FM-15+0031EDHK V0201901N003610009019N0025001N1+00401+00301999999ADDGA1071+000901999GF107991999999999999999999MA1101081999999MW1101MW2511REMMET062METAR EDHK 132020Z 19007KT 2500 -DZ BR BKN003 04/03 Q1011 YLO;
0143100465999992009011321204+54367+010133FM-15+0031EDHK V0202101N003110012019N0025001N1+00401+00301999999ADDGA1071+001201999GF107991999999999999999999MA1101081999999MW1101MW2511REMMET062METAR EDHK 132120Z 21006KT 2500 -DZ BR BKN004 04/03 Q1011 YLO;
0143100465999992009011322204+54367+010133FM-15+0031EDHK V0202001N002610009019N0025001N1+00401+00301999999ADDGA1071+000901999GF107991999999999999999999MA1101081999999MW1101MW2511REMMET062METAR EDHK 132220Z 20005KT 2500 -DZ BR BKN003 04/03 Q1011 YLO;
0143100465999992009011323204+54367+010133FM-15+0031EDHK V0202001N003110009019N0020001N1+00401+00301999999ADDGA1071+000901999GF107991999999999999999999MA1101081999999MW1101MW2511REMMET062METAR EDHK 132320Z 20006KT 2000 -DZ BR BKN003 04/03 Q1011 YLO;
0133100465999992009011323464+54367+010133FM-16+0031EDHK V0202101N002610003019N0020001N1+00401+00301999999ADDGA1071+000301999GF107991999999999999999999MA1101081999999MW1101REMMET058SPECI EDHK 132346Z 21005KT 2000 BR BKN001 04/03 Q1011 RED;
0132100465999992009011400204+54367+010133FM-15+0031EDHK V0202001N003110003019N0008001N1+00401+00301999999ADDGA1091+000301999GF109991999999000251999999MA1101021999999MW1451REMMET057METAR EDHK 140020Z 20006KT 0800 FG VV001 04/03 Q1010 RED;
0132100465999992009011401204+54367+010133FM-15+0031EDHK V0201901N002610001519N0004001N1+00301+00301999999ADDGA1091+000151999GF109991999999000251999999MA1101021999999MW1451REMMET057METAR EDHK 140120Z 19005KT 0400 FG VV000 03/03 Q1010 RED;
0132100465999992009011402204+54367+010133FM-15+0031EDHK V0201901N002110001519N0004001N1+00301+00301999999ADDGA1091+000151999GF109991999999000251999999MA1101021999999MW1451REMMET057METAR EDHK 140220Z 19004KT 0400 FG VV000 03/03 Q1010 RED;
0132100465999992009011403204+54367+010133FM-15+0031EDHK V0202001N002110001519N0003001N1+00301+00301999999ADDGA1091+000151999GF109991999999000251999999MA1101021999999MW1451REMMET057METAR EDHK 140320Z 20004KT 0300 FG VV000 03/03 Q1010 RED;
0136100465999992009011404204+54367+010133FM-15+0031EDHK V0201901N002610003019N0008001N1+00301+00301999999ADDGA1091+000301999GF109991999999000251999999MA1101021999999MW1451REMMET061METAR EDHK 140420Z 19005KT 0800 FG VV001 03/03 Q1010 RED RED;
0175100465999992009011405204+54367+010133FM-15+0031EDHK V0202101N002610003019N0008001N1+00301+00301999999ADDED199U23009GA1091+000301999GF109991999999000251999999MA1101021999999MW1451MW2511MW3611REMMET077METAR EDHK 140520Z 21005KT 0800 R26/2300N -DZRA FG VV001 03/03 Q1010 RED RED;
0157100465999992009011406204+54367+010133FM-15+0031EDHK V0201901N002610003019N0008001N1+00301+00301999999ADDED199U24009GA1091+000301999GF109991999999000251999999MA1101021999999MW1451REMMET071METAR EDHK 140620Z 19005KT 0800 R26/2400N FG VV001 03/03 Q1010 RED RED;
0157100465999992009011407204+54367+010133FM-15+0031EDHK V0202101N002110003019N0008001N1+00301+00301999999ADDED199U22009GA1091+000301999GF109991999999000251999999MA1101021999999MW1451REMMET071METAR EDHK 140720Z 21004KT 0800 R26/2200N FG VV001 03/03 Q1010 RED RED;
0157100465999992009011407534+54367+010133FM-16+0031EDHK V0202101N002110003019N0007001N1+00301+00301999999ADDED199U12009GA1091+000301999GF109991999999000251999999MA1101021999999MW1451REMMET071SPECI EDHK 140753Z 21004KT 0700 R26/1200N FG VV001 03/03 Q1010 RED RED;
0156100465999992009011408204+54367+010133FM-15+0031EDHK V0202201N002110003019N0008001N1+00301+00301999999ADDED199U13009GA1091+000301999GF109991999999000251999999MA1101021999999MW1451REMMET070METAR EDHK 140820Z 22004KT 0800 R26/1300 FG VV001 03/03 Q1010 RED RED;
0175100465999992009011409004+54367+010133FM-16+0031EDHK V0202101N002110003019N0006001N1+00301+00301999999ADDED199U10009GA1091+000301999GF109991999999000251999999MA1101021999999MW1451MW2511MW3611REMMET077SPECI EDHK 140900Z 21004KT 0600 R26/1000N -RADZ FG VV001 03/03 Q1010 RED RED;
0174100465999992009011409204+54367+010133FM-15+0031EDHK V0202001N002110003019N0005001N1+00301+00301999999ADDED199U08009GA1091+000301999GF109991999999000251999999MA1101081999999MW1451MW2511MW3611REMMET076METAR EDHK 140920Z 20004KT 0500 R26/0800 -RADZ FG VV001 03/03 Q1011 RED RED;
0175100465999992009011409414+54367+010133FM-16+0031EDHK V0202001N002110003019N0009001N1+00301+00301999999ADDED199U13009GA1091+000301999GF109991999999000251999999MA1101081999999MW1451MW2511MW3611REMMET077SPECI EDHK 140941Z 20004KT 0900 R26/1300N -RADZ FG VV001 03/03 Q1011 RED RED;
0185100465999992009011410204+54367+010133FM-15+0031EDHK V0202301N002610006019N0012001N1+00301+00301999999ADDED199U17009GA1071+000601999GF107991999999999999999999MA1101081999999MW1101MW2511MW3611REMMET087METAR EDHK 141020Z 23005KT 1200 R26/1700 -RADZ BR BKN002 03/03 Q1011 AMB RED TEMPO YLO;
0180100465999992009011411054+54367+010133FM-16+0031EDHK V0202101N002110018019N0025001N1+00401+00401999999ADDGA1041+000601999GA2071+001801999GF107991999999999999999999MA1101081999999MW1101MW2611REMMET083SPECI EDHK 141105Z 21004KT 2500 -RA BR SCT002 BKN006 04/04 Q1011 YLO AMB TEMPO YLO;
0180100465999992009011411204+54367+010133FM-15+0031EDHK V0202201N002110015019N0040001N1+00401+00401999999ADDGA1041+000901999GA2071+001501999GF107991999999999999999999MA1101081999999MW1101MW2611REMMET083METAR EDHK 141120Z 22004KT 4000 -RA BR SCT003 BKN005 04/04 Q1011 YLO AMB TEMPO YLO;
0147100465999992009011412204+54367+010133FM-15+0031EDHK V0202201N002110012019N0025001N1+00401+00401999999ADDGA1071+001201999GF107991999999999999999999MA1101081999999MW1101REMMET072METAR EDHK 141220Z 22004KT 2500 BR BKN004 04/04 Q1011 YLO AMB TEMPO YLO;
0168100465999992009011413044+54367+010133FM-16+0031EDHK V0202801N002610006019N0018001N1+00401+00401999999ADDED199U15009GA1081+000601999GF108991999999999999999999MA1101081999999MW1101REMMET082SPECI EDHK 141304Z 28005KT 1800 R26/1500N BR OVC002 04/04 Q1011 AMB AMB TEMPO YLO;
0168100465999992009011413204+54367+010133FM-15+0031EDHK V0202401N002610006019N0015001N1+00401+00301999999ADDED199U15009GA1081+000601999GF108991999999999999999999MA1101081999999MW1101REMMET082METAR EDHK 141320Z 24005KT 1500 R26/1500N BR OVC002 04/03 Q1011 AMB AMB TEMPO YLO;
0168100465999992009011413234+54367+010133FM-16+0031EDHK V0202401N002610006019N0015001N1+00401+00301999999ADDED199U15009GA1081+000601999GF108991999999999999999999MA1101081999999MW1101REMMET082SPECI EDHK 141323Z 24005KT 1500 R26/1500N BR OVC002 04/03 Q1011 AMB AMB TEMPO YLO;
0167100465999992009011413394+54367+010133FM-16+0031EDHK V0202401N002110003019N0007001N1+00401+00401999999ADDED199U12009GA1091+000301999GF109991999999000151999999MA1101081999999MW1451REMMET081SPECI EDHK 141339Z 24004KT 0700 R26/1200N FG VV001 04/04 Q1011 RED AMB TEMPO YLO;
0167100465999992009011414204+54367+010133FM-15+0031EDHK V0202201N002110003019N0006001N1+00401+00401999999ADDED199U10009GA1091+000301999GF109991999999000251999999MA1101081999999MW1451REMMET081METAR EDHK 141420Z 22004KT 0600 R26/1000N FG VV001 04/04 Q1011 RED RED TEMPO AMB;
0156100465999992009011415204+54367+010133FM-15+0031EDHK V0202301N002610001519N0002001N1+00401+00301999999ADDGA1091+000151999GF109991999999000251999999MA1101191999999MW1451REMMET081METAR EDHK 141520Z 23005KT 0200 R26////// FG VV000 04/03 Q1012 RED RED TEMPO AMB;
0166100465999992009011416204+54367+010133FM-15+0031EDHK V0202301N002610001519N0005001N1+00301+00301999999ADDED199U09009GA1091+000151999GF109991999999000251999999MA1101291999999MW1451REMMET080METAR EDHK 141620Z 23005KT 0500 R26/0900 FG VV000 03/03 Q1013 RED RED TEMPO AMB;
0146100465999992009011417204+54367+010133FM-15+0031EDHK V0202601N002610001519N0003001N1+00301+00301999999ADDGA1091+000151999GF109991999999000251999999MA1101291999999MW1451REMMET071METAR EDHK 141720Z 26005KT 0300 R26////// FG VV000 03/03 Q1013 RED RED;
0136100465999992009011418204+54367+010133FM-15+0031EDHK V0202101N001510001519N0003001N1+00301+00301999999ADDGA1091+000151999GF109991999999000251999999MA1101291999999MW1451REMMET061METAR EDHK 141820Z 21003KT 0300 FG VV000 03/03 Q1013 RED RED;
0144100465999992009011419204+54367+010133FM-15+0031EDHK V0202501N002610001519N0003001N1+00301+00301999999ADDGA1091+000151999GF109991999999000251999999MA1101291999999MW1451REMMET069METAR EDHK 141920Z 25005KT 0300 FG VV000 03/03 Q1013 RED FCST CANCEL;
0132100465999992009011420204+54367+010133FM-15+0031EDHK V0202301N002610001519N0004001N1+00301+00301999999ADDGA1091+000151999GF109991999999000251999999MA1101391999999MW1451REMMET057METAR EDHK 142020Z 23005KT 0400 FG VV000 03/03 Q1014 RED;
0132100465999992009011421204+54367+010133FM-15+0031EDHK V0202601N003110001519N0002001N1+00301+00301999999ADDGA1091+000151999GF109991999999000251999999MA1101391999999MW1451REMMET057METAR EDHK 142120Z 26006KT 0200 FG VV000 03/03 Q1014 RED;
0132100465999992009011422204+54367+010133FM-15+0031EDHK V0202601N002610001519N0002001N1+00301+00301999999ADDGA1091+000151999GF109991999999000251999999MA1101391999999MW1451REMMET057METAR EDHK 142220Z 26005KT 0200 FG VV000 03/03 Q1014 RED;
0132100465999992009011423204+54367+010133FM-15+0031EDHK V0202501N002110001519N0002001N1+00301+00301999999ADDGA1091+000151999GF109991999999000251999999MA1101491999999MW1451REMMET057METAR EDHK 142320Z 25004KT 0200 FG VV000 03/03 Q1015 RED;
0132100465999992009011500204+54367+010133FM-15+0031EDHK V0202501N001510001519N0001001N1+00301+00301999999ADDGA1091+000151999GF109991999999000251999999MA1101491999999MW1451REMMET057METAR EDHK 150020Z 25003KT 0100 FG VV000 03/03 Q1015 RED;
0132100465999992009011501204+54367+010133FM-15+0031EDHK V0202501N002110001519N0002001N1+00301+00301999999ADDGA1091+000151999GF109991999999000251999999MA1101591999999MW1451REMMET057METAR EDHK 150120Z 25004KT 0200 FG VV000 03/03 Q1016 RED;
0132100465999992009011502204+54367+010133FM-15+0031EDHK V0202601N002110001519N0001001N1+00301+00301999999ADDGA1091+000151999GF109991999999000251999999MA1101591999999MW1451REMMET057METAR EDHK 150220Z 26004KT 0100 FG VV000 03/03 Q1016 RED;
0132100465999992009011503204+54367+010133FM-15+0031EDHK V0202301N002110001519N0001001N1+00301+00301999999ADDGA1091+000151999GF109991999999000251999999MA1101691999999MW1451REMMET057METAR EDHK 150320Z 23004KT 0100 FG VV000 03/03 Q1017 RED;
0143100465999992009011504004+54367+010133FM-16+0031EDHK V0202601N00261220001CN0010001N1+00201+00201999999ADDGA1071+000151999GF107991999999999999999999MA1101691999999MW1101MW2611REMMET062SPECI EDHK 150400Z 26005KT 1000 -RA BR BKN000 02/02 Q1017 RED;
0155100465999992009011504204+54367+010133FM-15+0031EDHK V0202401N002610003019N0006001N1+00201+00201999999ADDGA1071+000301999GF107991999999999999999999MA1101691999999MW1441MW2511MW3611REMMET068METAR EDHK 150420Z 24005KT 0600 -DZRA FG BKN001 02/02 Q1017 RED RED;
0136100465999992009011504284+54367+010133FM-16+0031EDHK V0202401N003110001519N0002001N1+00201+00201999999ADDGA1091+000151999GF109991999999000251999999MA1101691999999MW1451REMMET061SPECI EDHK 150428Z 24006KT 0200 FG VV000 02/02 Q1017 RED RED;
0136100465999992009011505204+54367+010133FM-15+0031EDHK V0202601N003110001519N0002001N1+00201+00201999999ADDGA1091+000151999GF109991999999000251999999MA1101801999999MW1451REMMET061METAR EDHK 150520Z 26006KT 0200 FG VV000 02/02 Q1018 RED RED;
0158100465999992009011506204+54367+010133FM-15+0031EDHK V0202301N001510003019N0007001N1+00201+00201999999ADDED199U35009GA1071+000301999GF107991999999999999999999MA1101801999999MW1441REMMET072METAR EDHK 150620Z 23003KT 0700 R26/3500U FG BKN001 02/02 Q1018 RED RED;
0146100465999992009011507204+54367+010133FM-15+0031EDHK V0202401N002110001519N0002001N1+00201+00201999999ADDGA1091+000151999GF109991999999000251999999MA1101901999999MW1451REMMET071METAR EDHK 150720Z 24004KT 0200 R26////// FG VV000 02/02 Q1019 RED RED;
0146100465999992009011508204+54367+010133FM-15+0031EDHK V0202401N002610001519N0002001N1+00201+00201999999ADDGA1091+000151999GF109991999999000251999999MA1102001999999MW1451REMMET071METAR EDHK 150820Z 24005KT 0200 R26////// FG VV000 02/02 Q1020 RED RED;
0156100465999992009011509204+54367+010133FM-15+0031EDHK V0202501N003110001519N0004001N1+00301+00301999999ADDGA1091+000151999GF109991999999000251999999MA1102001999999MW1451REMMET081METAR EDHK 150920Z 25006KT 0400 R26////// FG VV000 03/03 Q1020 RED RED TEMPO YLO;
0191100465999992009011510204+54367+010133FM-15+0031EDHK V0202301N003110006019N0010001N1+00301+00301999999ADDED199U17009GA1071+000601999GA2071+009001999GF107991999999999999999999MA1102001999999MW1101REMMET089METAR EDHK 151020Z 23006KT 1000 R26/1700U BR BKN002 BKN030 03/03 Q1020 AMB RED TEMPO YLO;
0168100465999992009011510374+54367+010133FM-16+0031EDHK V0202401N003610600019N0018001N1+00301+00301999999ADDED199U25009GA1071+060001999GF107991999999999999999999MA1102101999999MW1101REMMET082SPECI EDHK 151037Z 24007KT 1800 R26/2500N BR BKN200 03/03 Q1021 YLO RED TEMPO YLO;
0168100465999992009011510414+54367+010133FM-16+0031EDHK V0202501N003610006019N0018001N1+00301+00301999999ADDED199U21009GA1071+000601999GF107991999999999999999999MA1102101999999MW1101REMMET082SPECI EDHK 151041Z 25007KT 1800 R26/2100D BR BKN002 03/03 Q1021 YLO RED TEMPO YLO;
0147100465999992009011511204+54367+010133FM-15+0031EDHK V0202501N002610006019N0024001N1+00301+00301999999ADDGA1071+000601999GF107991999999999999999999MA1102101999999MW1101REMMET072METAR EDHK 151120Z 25005KT 2400 BR BKN002 03/03 Q1021 AMB RED TEMPO YLO;
0168100465999992009011511464+54367+010133FM-16+0031EDHK V0202501N002610006019N0015001N1+00301+00301999999ADDED199U21009GA1081+000601999GF108991999999999999999999MA1102101999999MW1101REMMET082SPECI EDHK 151146Z 25005KT 1500 R26/2100N BR OVC002 03/03 Q1021 AMB RED TEMPO YLO;
0170100465999992009011512094+54367+010133FM-16+0031EDHK V0202601N002110006019N0028001N1+00301+00301999999ADDGA1071+000601999GA2071+013201999GF107991999999999999999999MA1102001999999MW1101REMMET079SPECI EDHK 151209Z 26004KT 2800 BR BKN002 BKN044 03/03 Q1020 AMB RED TEMPO YLO;
0170100465999992009011512204+54367+010133FM-15+0031EDHK V0202601N002110006019N0030001N1+00401+00401999999ADDGA1071+000601999GA2071+012001999GF107991999999999999999999MA1102001999999MW1101REMMET079METAR EDHK 151220Z 26004KT 3000 BR BKN002 BKN040 04/04 Q1020 AMB AMB TEMPO GRN;
