0172100465999992006010100204+54367+010133FM-15+0032EDHK V0202001N00261000601CN0011001N1+00301+00201999999ADDGA1075+000601999GF107991999999999999999999MA1099491999999MW1101MW2511REMMET056EDHK 010020Z 20005KT 1100 -DZ BR BKN002 03/02 Q0995 AMB;EQDQ01+000000PRSWM1Q02+000000PRSWM4
0183100465999992006010100504+54367+010133FM-15+0032EDHK V0202001N002610003019N0007001N1+00301+00201999999ADDGA1091+000301999GF109991999999000251999999MA1099491999999MW1451REMMET057SPECI EDHK 010050Z 20005KT 0700 FG VV001 03/02 Q0995 RED;EQDQ01+000000PRSWM1Q02+000000PRSWM3Q03+000000PRSWM4
0183100465999992006010101204+54367+010133FM-15+0032EDHK V0202001N003610003019N0011001N1+00301+00201999999ADDGA1091+000301999GF109991999999000251999999MA1099491999999MW1101REMMET057METAR EDHK 010120Z 20007KT 1100 BR VV001 03/02 Q0995 RED;EQDQ01+000000PRSWM1Q02+000000PRSWM3Q03+000000PRSWM4
0178100465999992006010101504+54367+010133FM-15+0032EDHK V0202001N00311000601CN0011001N1+00301+00201999999ADDGA1075+000601999GF107991999999999999999999MA1099491999999MW1101REMMET052EDHK 010150Z 20006KT 1100 BR BKN002 03/02 Q0995 AMB;EQDQ01+000000PRSWM1Q02+000000PRSWM3Q03+000000PRSWM4
0178100465999992006010102204+54367+010133FM-15+0032EDHK V0202001N00311000601CN0015001N1+00301+00201999999ADDGA1085+000601999GF108991999999999999999999MA1099491999999MW1101REMMET052EDHK 010220Z 20006KT 1500 BR OVC002 03/02 Q0995 AMB;EQDQ01+000000PRSWM1Q02+000000PRSWM3Q03+000000PRSWM4
0178100465999992006010103204+54367+010133FM-15+0032EDHK V0202001N00361000601CN0015001N1+00301+00201999999ADDGA1085+000601999GF108991999999999999999999MA1099491999999MW1101REMMET052EDHK 010320Z 20007KT 1500 BR OVC002 03/02 Q0995 AMB;EQDQ01+000000PRSWM1Q02+000000PRSWM3Q03+000000PRSWM4
0178100465999992006010104204+54367+010133FM-15+0032EDHK V0202101N00411000601CN0020001N1+00301+00201999999ADDGA1085+000601999GF108991999999999999999999MA1099491999999MW1101REMMET052EDHK 010420Z 21008KT 2000 BR OVC002 03/02 Q0995 AMB;EQDQ01+000000PRSWM1Q02+000000PRSWM3Q03+000000PRSWM4
0178100465999992006010105204+54367+010133FM-15+0032EDHK V0202101N00261000601CN0020001N1+00301+00201999999ADDGA1085+000601999GF108991999999999999999999MA1099701999999MW1101REMMET052EDHK 010520Z 21005KT 2000 BR OVC002 03/02 Q0997 AMB;EQDQ01+000000PRSWM1Q02+000000PRSWM3Q03+000000PRSWM4
0184100465999992006010106204+54367+010133FM-15+0032EDHK V0202001N00311000901CN0025001N1+00301+00201999999ADDGA1085+000901999GF108991999999999999999999MA1099801999999MW1101REMMET058METAR EDHK 010620Z 20006KT 2500 BR OVC003 03/02 Q0998 YLO;EQDQ01+000000PRSWM1Q02+000000PRSWM3Q03+000000PRSWM4
0178100465999992006010107204+54367+010133FM-15+0032EDHK V0202001N00261001501CN0025001N1+00301+00201999999ADDGA1075+001501999GF107991999999999999999999MA1099901999999MW1101REMMET052EDHK 010720Z 20005KT 2500 BR BKN005 03/02 Q0999 YLO;EQDQ01+000000PRSWM1Q02+000000PRSWM3Q03+000000PRSWM4
0184100465999992006010108204+54367+010133FM-15+0032EDHK V0201901N00311001501CN0030001N1+00301+00201999999ADDGA1075+001501999GF107991999999999999999999MA1100001999999MW1101REMMET058METAR EDHK 010820Z 19006KT 3000 BR BKN005 03/02 Q1000 YLO;EQDQ01+000000PRSWM1Q02+000000PRSWM3Q03+000000PRSWM4
0184100465999992006010109204+54367+010133FM-15+0032EDHK V0202001N00311000901CN0015001N1+00301+00201999999ADDGA1085+000901999GF108991999999999999999999MA1100101999999MW1101REMMET058METAR EDHK 010920Z 20006KT 1500 BR OVC003 03/02 Q1001 AMB;EQDQ01+000000PRSWM1Q02+000000PRSWM3Q03+000000PRSWM4
0178100465999992006010110204+54367+010133FM-15+0032EDHK V0202001N00311000901CN0020001N1+00301+00201999999ADDGA1085+000901999GF108991999999999999999999MA1100101999999MW1101REMMET052EDHK 011020Z 20006KT 2000 BR OVC003 03/02 Q1001 YLO;EQDQ01+000000PRSWM1Q02+000000PRSWM3Q03+000000PRSWM4
0184100465999992006010111204+54367+010133FM-15+0032EDHK V0202101N00311000901CN0025001N1+00301+00201999999ADDGA1085+000901999GF108991999999999999999999MA1100201999999MW1101REMMET058METAR EDHK 011120Z 21006KT 2500 BR OVC003 03/02 Q1002 YLO;EQDQ01+000000PRSWM1Q02+000000PRSWM3Q03+000000PRSWM4
0178100465999992006010112204+54367+010133FM-15+0032EDHK V0202001N00261000601CN0020001N1+00401+00201999999ADDGA1085+000601999GF108991999999999999999999MA1100201999999MW1101REMMET052EDHK 011220Z 20005KT 2000 BR OVC002 04/02 Q1002 AMB;EQDQ01+000000PRSWM1Q02+000000PRSWM3Q03+000000PRSWM4
0184100465999992006010113204+54367+010133FM-15+0032EDHK V0202201N00261000601CN0015001N1+00401+00201999999ADDGA1085+000601999GF108991999999999999999999MA1100311999999MW1101REMMET058METAR EDHK 011320Z 22005KT 1500 BR OVC002 04/02 Q1003 AMB;EQDQ01+000000PRSWM1Q02+000000PRSWM3Q03+000000PRSWM4
0126100465999992006010113444+54367+010133FM-16+0032EDHK V0202101N002610003019N0009001N1+00301+00201999999ADDGA1091+000301999GF109991999999000251999999MA1100311999999MW1451REMMET051EDHK 011344Z 21005KT 0900 FG VV001 03/02 Q1003 RED;
0183100465999992006010114204+54367+010133FM-15+0032EDHK V0201901N001510003019N0005001N1+00301+00201999999ADDGA1091+000301999GF109991999999000251999999MA1100311999999MW1451REMMET057METAR EDHK 011420Z 19003KT 0500 FG VV001 03/02 Q1003 RED;EQDQ01+000000PRSWM1Q02+000000PRSWM3Q03+000000PRSWM4
0177100465999992006010115204+54367+010133FM-15+0032EDHK V0201901N002110003019N0005001N1+00301+00201999999ADDGA1091+000301999GF109991999999000251999999MA1100411999999MW1451REMMET051EDHK 011520Z 19004KT 0500 FG VV001 03/02 Q1004 RED;EQDQ01+000000PRSWM1Q02+000000PRSWM3Q03+000000PRSWM4
0184100465999992006010116204+54367+010133FM-15+0032EDHK V0201901N00211000301CN0012001N1+00301+00201999999ADDGA1085+000301999GF108991999999999999999999MA1100611999999MW1101REMMET058METAR EDHK 011620Z 19004KT 1200 BR OVC001 03/02 Q1006 RED;EQDQ01+000000PRSWM1Q02+000000PRSWM3Q03+000000PRSWM4
0207100465999992006010117204+54367+010133FM-15+0032EDHK V0201701N00151000901CN0020001N1+00301+00201999999ADDGA1075+000901999GA2075+002401999GF107991999999999999999999MA1100711999999MW1101REMMET065METAR EDHK 011720Z 17003KT 2000 BR BKN003 BKN008 03/02 Q1007 YLO;EQDQ01+000000PRSWM1Q02+000000PRSWM3Q03+000000PRSWM4
0178100465999992006010119204+54367+010133FM-15+0032EDHK V0201601N00211000901CN0020001N1+00301+00201999999ADDGA1085+000901999GF108991999999999999999999MA1100911999999MW1101REMMET052EDHK 011920Z 16004KT 2000 BR OVC003 03/02 Q1009 YLO;EQDQ01+000000PRSWM1Q02+000000PRSWM3Q03+000000PRSWM4
0178100465999992006010120204+54367+010133FM-15+0032EDHK V0202001N00211000901CN0020001N1+00301+00201999999ADDGA1085+000901999GF108991999999999999999999MA1101021999999MW1101REMMET052EDHK 012020Z 20004KT 2000 BR OVC003 03/02 Q1010 YLO;EQDQ01+000000PRSWM1Q02+000000PRSWM3Q03+000000PRSWM4
0178100465999992006010121204+54367+010133FM-15+0032EDHK V0202201N00211000601CN0015001N1+00301+00201999999ADDGA1085+000601999GF108991999999999999999999MA1101021999999MW1101REMMET052EDHK 012120Z 22004KT 1500 BR OVC002 03/02 Q1010 AMB;EQDQ01+000000PRSWM1Q02+000000PRSWM3Q03+000000PRSWM4
0184100465999992006010122204+54367+010133FM-15+0032EDHK V0202101N00211000601CN0015001N1+00301+00201999999ADDGA1085+000601999GF108991999999999999999999MA1101081999999MW1101REMMET058METAR EDHK 012220Z 21004KT 1500 BR OVC002 03/02 Q1011 AMB;EQDQ01+000000PRSWM1Q02+000000PRSWM3Q03+000000PRSWM4
0184100465999992006010123204+54367+010133FM-15+0032EDHK V0202001N00211000301CN0010001N1+00301+00201999999ADDGA1085+000301999GF108991999999999999999999MA1101191999999MW1101REMMET058METAR EDHK 012320Z 20004KT 1000 BR OVC001 03/02 Q1012 RED;EQDQ01+000000PRSWM1Q02+000000PRSWM3Q03+000000PRSWM4
0172100465999992006010200204+54367+010133FM-15+0032EDHK V0201901N00211000301CN0012001N1+00301+00201999999ADDGA1085+000301999GF108991999999999999999999MA1101191999999MW1101MW2611REMMET056EDHK 020020Z 19004KT 1200 -RA BR OVC001 03/02 Q1012 RED;EQDQ01+000000PRSWM1Q02+000000PRSWM4
0172100465999992006010201204+54367+010133FM-15+0032EDHK V0202001N00151000301CN0015001N1+00301+00201999999ADDGA1085+000301999GF108991999999999999999999MA1101291999999MW1101MW2611REMMET056EDHK 020120Z 20003KT 1500 -RA BR OVC001 03/02 Q1013 RED;EQDQ01+000000PRSWM1Q02+000000PRSWM4
0178100465999992006010202204+54367+010133FM-15+0032EDHK V0202001N00151000301CN0010001N1+00301+00201999999ADDGA1085+000301999GF108991999999999999999999MA1101391999999MW1101REMMET052EDHK 020220Z 20003KT 1000 BR OVC001 03/02 Q1014 RED;EQDQ01+000000PRSWM1Q02+000000PRSWM3Q03+000000PRSWM4
0177100465999992006010203204+54367+010133FM-15+0032EDHK V0201901N001510001519N0006001N1+00301+00201999999ADDGA1091+000151999GF109991999999000251999999MA1101491999999MW1451REMMET051EDHK 020320Z 19003KT 0600 FG VV000 03/02 Q1015 RED;EQDQ01+000000PRSWM1Q02+000000PRSWM3Q03+000000PRSWM4
0187100465999992006010204204+54367+010133FM-15+0032EDHK V0202101N001010001519N0005001N1+00301+00201999999ADDGA1091+000151999GF109991999999000251999999MA1101491999999MW1451REMMET061METAR EDHK 020420Z 21002KT 0500 FG VV000 03/02 Q1015 RED RED;EQDQ01+000000PRSWM1Q02+000000PRSWM3Q03+000000PRSWM4
0197100465999992006010205204+54367+010133FM-15+0032EDHK V0202801N001510001519N0004001N1+00201+00101999999ADDGA1091+000151999GF109991999999000251999999MA1101591999999MW1451REMMET071METAR EDHK 020520Z 28003KT 0400 FG VV000 02/01 Q1016 RED RED BECMG YLO;EQDQ01+000000PRSWM1Q02+000000PRSWM3Q03+000000PRSWM4
0140100465999992006010205404+54367+010133FM-16+0032EDHK V0203101N002610003019N0008001N1+00201+00101999999ADDGA1091+000301999GF109991999999000251999999MA1101591999999MW1451REMMET065EDHK 020540Z 31005KT 0800 FG VV001 02/01 Q1016 RED RED BECMG YLO;
0147100465999992006010206054+54367+010133FM-16+0032EDHK V0200101N00411000301CN0018001N1+00201+00101999999ADDGA1085+000301999GF108991999999999999999999MA1101591999999MW1101REMMET072SPECI EDHK 020605Z 01008KT 1800 BR OVC001 02/01 Q1016 AMB AMB BECMG GRN;
0198100465999992006010206204+54367+010133FM-15+0032EDHK V0200201N00411000601CN0028001N1+00201+00101999999ADDGA1085+000601999GF108991999999999999999999MA1101691999999MW1101REMMET072METAR EDHK 020620Z 02008KT 2800 BR OVC002 02/01 Q1017 AMB AMB BECMG GRN;EQDQ01+000000PRSWM1Q02+000000PRSWM3Q03+000000PRSWM4
0198100465999992006010206504+54367+010133FM-15+0032EDHK V0200301N00461000901CN0030001N1+00201+00101999999ADDGA1085+000901999GF108991999999999999999999MA1101691999999MW1101REMMET072SPECI EDHK 020650Z 03009KT 3000 BR OVC003 02/01 Q1017 YLO YLO BECMG GRN;EQDQ01+000000PRSWM1Q02+000000PRSWM3Q03+000000PRSWM4
0192100465999992006010207204+54367+010133FM-15+0032EDHK V0200301N00461001201CN0040001N1+00201+00101999999ADDGA1085+001201999GF108991999999999999999999MA1101801999999MW1101REMMET066EDHK 020720Z 03009KT 4000 BR OVC004 02/01 Q1018 YLO YLO BECMG GRN;EQDQ01+000000PRSWM1Q02+000000PRSWM3Q03+000000PRSWM4
0199100465999992006010208204+54367+010133FM-15+0032EDHK V0203601N00361001201CN0060001N1+00201+00101999999ADDGA1075+001201999GF107991999999999999999999MA1101801999999REMMET063EDHK 020820Z 36007KT 6000 BKN004 02/01 Q1018 YLO YLO BECMG GRN;EQDQ01+000000PRSWM1Q02+000000PRSWM2Q03+000000PRSWM3Q04+000000PRSWM4
0189100465999992006010208504+54367+010133FM-15+0032EDHK V0200101N00361002101CN0080001N1+00201+00001999999ADDGA1075+002101999GF107991999999999999999999MA1101901999999REMMET053EDHK 020850Z 01007KT 8000 BKN007 02/00 Q1019 GRN GRN;EQDQ01+000000PRSWM1Q02+000000PRSWM2Q03+000000PRSWM3Q04+000000PRSWM4
0195100465999992006010209204+54367+010133FM-15+0032EDHK V0203501N00311003301CN0090001N1+00201+00001999999ADDGA1075+003301999GF107991999999999999999999MA1101901999999REMMET059METAR EDHK 020920Z 35006KT 9000 BKN011 02/00 Q1019 GRN GRN;EQDQ01+000000PRSWM1Q02+000000PRSWM2Q03+000000PRSWM3Q04+000000PRSWM4
0189100465999992006010210204+54367+010133FM-15+0032EDHK V0200201N00311002701CN0112651N1+00201+00001999999ADDGA1075+002701999GF107991999999999999999999MA1102001999999REMMET053EDHK 021020Z 02006KT 9999 BKN009 02/00 Q1020 GRN GRN;EQDQ01+000000PRSWM1Q02+000000PRSWM2Q03+000000PRSWM3Q04+000000PRSWM4
0205100465999992006010211204+54367+010133FM-15+0032EDHK V0203601N00261003001CN0112651N1+00201+00001999999ADDGA1075+003001999GF107991999999999999999999MA1102001999999REMMET069METAR EDHK 021120Z 36005KT 9999 BKN010 02/00 Q1020 GRN GRN TEMPO WHT;EQDQ01+000000PRSWM1Q02+000000PRSWM2Q03+000000PRSWM3Q04+000000PRSWM4
0206100465999992006010212204+54367+010133FM-15+0032EDHK V0203501N00411002701CN0112651N1+00201+00001999999ADDGA1075+002701999GF107991999999999999999999MA1102101999999REMMET070METAR EDHK 021220Z 35008KT 9999 BKN009 02/M00 Q1021 GRN GRN TEMPO BLU;EQDQ01+000000PRSWM1Q02+000000PRSWM2Q03+000000PRSWM3Q04+000000PRSWM4
0200100465999992006010213204+54367+010133FM-15+0032EDHK V0203201N00361003601CN0112651N1+00101-00101999999ADDGA1075+003601999GF107991999999999999999999MA1102101999999REMMET064EDHK 021320Z 32007KT 9999 BKN012 01/M01 Q1021 GRN GRN TEMPO BLU;EQDQ01+000000PRSWM1Q02+000000PRSWM2Q03+000000PRSWM3Q04+000000PRSWM4
0207100465999992006010214204+54367+010133FM-15+0032EDHK V0203301N00411004501CN0112651N1+00101-00101999999ADDGA1075+004501999GF107991999999999999999999MA1102201999999REMMET071METAR EDHK 021420Z 33008KT 9999 BKN015 01/M01 Q1022 WHT WHT BECMG BLU+;EQDQ01+000000PRSWM1Q02+000000PRSWM2Q03+000000PRSWM3Q04+000000PRSWM4
0171100465999992006010216204+54367+010133FM-15+0032EDHK V0202901N002612200019N0090001N1+00001-00201999999ADDGA1045+005405999MA1102301999999REMMET061METAR EDHK 021620Z 29005KT 9000 SCT018 00/M02 Q1023 BLU+BLU+;EQDQ01+000000PRSWM1Q02+000000PRSWM2Q03+000000PRSWM3Q04+000000PRSWM4
0192100465999992006010217204+54367+010133FM-15+0032EDHK V0203001N00311004801CN0080001N1-00101-00301999999ADDGA1075+004801999GF107991999999999999999999MA1102301999999REMMET056EDHK 021720Z 30006KT 8000 BKN016 M01/M03 Q1023 WHT BLU+;EQDQ01+000000PRSWM1Q02+000000PRSWM2Q03+000000PRSWM3Q04+000000PRSWM4
0166100465999992006010218204+54367+010133FM-15+0032EDHK V0202801N001512200019N0080001N1-00101-00301999999ADDGA1045+004505999MA1102401999999REMMET056EDHK 021820Z 28003KT 8000 SCT015 M01/M03 Q1024 BLU+BLU+;EQDQ01+000000PRSWM1Q02+000000PRSWM2Q03+000000PRSWM3Q04+000000PRSWM4
0205100465999992006010219004+54367+010133FM-15+0032EDHK V0202801N00261003901CN0060001N1-00101-00301999999ADDGA1075+003901999GF107991999999999999999999MA1102401999999REMMET069SPECI EDHK 021900Z 28005KT 6000 BKN013 M01/M03 Q1024 GRN FCST CANCEL;EQDQ01+000000PRSWM1Q02+000000PRSWM2Q03+000000PRSWM3Q04+000000PRSWM4
0168100465999992006010219204+54367+010133FM-15+0032EDHK V0202901N002612200019N0060001N1-00101-00301999999ADDGA1045+004205999MA1102401999999REMMET058METAR EDHK 021920Z 29005KT 6000 SCT014 M01/M03 Q1024 BLU+;EQDQ01+000000PRSWM1Q02+000000PRSWM2Q03+000000PRSWM3Q04+000000PRSWM4
0186100465999992006010219504+54367+010133FM-15+0032EDHK V0202901N00261003601CN0045001N1-00101-00301999999ADDGA1075+003601999GF107991999999999999999999MA1102511999999MW1101REMMET060SPECI EDHK 021950Z 29005KT 4500 BR BKN012 M01/M03 Q1025 GRN;EQDQ01+000000PRSWM1Q02+000000PRSWM3Q03+000000PRSWM4
0186100465999992006010220204+54367+010133FM-15+0032EDHK V0203001N00261003001CN0045001N1+00001-00201999999ADDGA1075+003001999GF107991999999999999999999MA1102511999999MW1101REMMET060METAR EDHK 022020Z 30005KT 4500 BR BKN010 M00/M02 Q1025 GRN;EQDQ01+000000PRSWM1Q02+000000PRSWM3Q03+000000PRSWM4
0186100465999992006010221204+54367+010133FM-15+0032EDHK V0203101N00151002701CN0045001N1-00101-00201999999ADDGA1075+002701999GF107991999999999999999999MA1102511999999MW1101REMMET060METAR EDHK 022120Z 31003KT 4500 BR BKN009 M01/M02 Q1025 GRN;EQDQ01+000000PRSWM1Q02+000000PRSWM3Q03+000000PRSWM4
0180100465999992006010222204+54367+010133FM-15+0032EDHK V0200201N00101001501CN0035001N1-00101-00201999999ADDGA1075+001501999GF107991999999999999999999MA1102511999999MW1101REMMET054EDHK 022220Z 02002KT 3500 BR BKN005 M01/M02 Q1025 YLO;EQDQ01+000000PRSWM1Q02+000000PRSWM3Q03+000000PRSWM4
0186100465999992006010223204+54367+010133FM-15+0032EDHK V0203501N00211000901CN0035001N1-00101-00201999999ADDGA1075+000901999GF107991999999999999999999MA1102611999999MW1101REMMET060METAR EDHK 022320Z 35004KT 3500 BR BKN003 M01/M02 Q1026 YLO;EQDQ01+000000PRSWM1Q02+000000PRSWM3Q03+000000PRSWM4
0186100465999992006010300204+54367+010133FM-15+0032EDHK V0202901N00151001201CN0035001N1-00101-00201999999ADDGA1085+001201999GF108991999999999999999999MA1102611999999MW1101REMMET060METAR EDHK 030020Z 29003KT 3500 BR OVC004 M01/M02 Q1026 YLO;EQDQ01+000000PRSWM1Q02+000000PRSWM3Q03+000000PRSWM4
0186100465999992006010301204+54367+010133FM-15+0032EDHK V0209999V00101001201CN0035001N1-00101-00201999999ADDGA1085+001201999GF108991999999999999999999MA1102611999999MW1101REMMET060METAR EDHK 030120Z VRB02KT 3500 BR OVC004 M01/M02 Q1026 YLO;EQDQ01+000000PRSWM1Q02+000000PRSWM3Q03+000000PRSWM4
0180100465999992006010302204+54367+010133FM-15+0032EDHK V0203001N00151000601CN0025001N1-00201-00301999999ADDGA1085+000601999GF108991999999999999999999MA1102711999999MW1101REMMET054EDHK 030220Z 30003KT 2500 BR OVC002 M02/M03 Q1027 AMB;EQDQ01+000000PRSWM1Q02+000000PRSWM3Q03+000000PRSWM4
0180100465999992006010303204+54367+010133FM-15+0032EDHK V0202101N00101000301CN0010001N1-00201-00301999999ADDGA1085+000301999GF108991999999999999999999MA1102711999999MW1101REMMET054EDHK 030320Z 21002KT 1000 BR OVC001 M02/M03 Q1027 RED;EQDQ01+000000PRSWM1Q02+000000PRSWM3Q03+000000PRSWM4
0184100465999992006010304204+54367+010133FM-15+0032EDHK V0202501N00151000301CN0014001N1-00201-00301999999ADDGA1085+000301999GF108991999999999999999999MA1102711999999MW1101REMMET058EDHK 030420Z 25003KT 1400 BR OVC001 M02/M03 Q1027 RED RED;EQDQ01+000000PRSWM1Q02+000000PRSWM3Q03+000000PRSWM4
0195100465999992006010305204+54367+010133FM-15+0032EDHK V0202201N001510003019N0007001N1-00201-00301999999ADDGA1091+000301999GF109991999999000251999999MA1102711999999MW1491REMMET069EDHK 030520Z 22003KT 0700 FZFG VV001 M02/M03 Q1027 RED AMB TEMPO RED;EQDQ01+000000PRSWM1Q02+000000PRSWM3Q03+000000PRSWM4
0216100465999992006010306204+54367+010133FM-15+0032EDHK V0202301N001510003019N0008001N1-00201-00301999999ADDED126U18009GA1091+000301999GF109991999999000251999999MA1102811999999MW1491REMMET079EDHK 030620Z 23003KT 0800 R26/1800N FZFG VV001 M02/M03 Q1028 RED AMB TEMPO RED;EQDQ01+000000PRSWM1Q02+000000PRSWM3Q03+000000PRSWM4
0222100465999992006010307204+54367+010133FM-15+0032EDHK V0202301N001510003019N0006001N1-00301-00301999999ADDED126U06009GA1091+000301999GF109991999999000251999999MA1102811999999MW1491REMMET085METAR EDHK 030720Z 23003KT 0600 R26/0600N FZFG VV001 M03/M03 Q1028 RED AMB TEMPO RED;EQDQ01+000000PRSWM1Q02+000000PRSWM3Q03+000000PRSWM4
0222100465999992006010308204+54367+010133FM-15+0032EDHK V0202401N001010001519N0005001N1-00201-00301999999ADDED126U03009GA1091+000151999GF109991999999000251999999MA1102811999999MW1491REMMET085METAR EDHK 030820Z 24002KT 0500 R26/0300N FZFG VV000 M02/M03 Q1028 RED AMB TEMPO RED;EQDQ01+000000PRSWM1Q02+000000PRSWM3Q03+000000PRSWM4
0212100465999992006010309204+54367+010133FM-15+0032EDHK V0202101N001510003019N0005001N1-00301-00301999999ADDED126U03009GA1091+000301999GF109991999999000251999999MA1102811999999MW1491REMMET075METAR EDHK 030920Z 21003KT 0500 R26/0300N FZFG VV001 M03/M03 Q1028 RED RED;EQDQ01+000000PRSWM1Q02+000000PRSWM3Q03+000000PRSWM4
0212100465999992006010310004+54367+010133FM-15+0032EDHK V0202001N001510003019N0009001N1-00201-00301999999ADDED126U05009GA1091+000301999GF109991999999000251999999MA1102911999999MW1491REMMET075SPECI EDHK 031000Z 20003KT 0900 R26/0500N FZFG VV001 M02/M03 Q1029 RED RED;EQDQ01+000000PRSWM1Q02+000000PRSWM3Q03+000000PRSWM4
0244100465999992006010310204+54367+010133FM-15+0032EDHK V0201601N00101000601CN0012001N1-00201-00201999999ADDED126U12009GA1045+000301999GA2075+000601999GF107991999999999999999999MA1102911999999MW1101REMMET091METAR EDHK 031020Z 16002KT 1200 R26/1200N BR SCT001 BKN002 M02/M02 Q1029 AMB RED TEMPO YLO;EQDQ01+000000PRSWM1Q02+000000PRSWM3Q03+000000PRSWM4
0238100465999992006010310454+54367+010133FM-15+0032EDHK V0201501N00151000601CN0017001N1-00201-00201999999ADDED126U12009GA1045+000301999GA2075+000601999GF107991999999999999999999MA1102911999999MW1101REMMET085EDHK 031045Z 15003KT 1700 R26/1200N BR SCT001 BKN002 M02/M02 Q1029 AMB RED TEMPO YLO;EQDQ01+000000PRSWM1Q02+000000PRSWM3Q03+000000PRSWM4
0244100465999992006010311204+54367+010133FM-15+0032EDHK V0201701N00151000601CN0020001N1-00101-00201999999ADDED126U16009GA1075+000601999GA2075+006601999GF107991999999999999999999MA1102911999999MW1101REMMET091METAR EDHK 031120Z 17003KT 2000 R26/1600N BR BKN002 BKN022 M01/M02 Q1029 AMB AMB TEMPO YLO;EQDQ01+000000PRSWM1Q02+000000PRSWM3Q03+000000PRSWM4
0210100465999992006010311274+54367+010133FM-16+0032EDHK V0201601N00151000901CN0022001N1-00101-00201999999ADDED126U17009GA1025+000601999GA2075+000901999GA3075+006601999GF107991999999999999999999MA1102911999999MW1101REMMET092EDHK 031127Z 16003KT 2200 R26/1700N BR FEW002 BKN003 BKN022 M01/M02 Q1029 YLO AMB TEMPO YLO;
0223100465999992006010311504+54367+010133FM-15+0032EDHK V0201301N00151006301CN0025001N1-00101-00101999999ADDGA1025+000601999GA2075+006301999GF107991999999999999999999MA1102911999999MW1101REMMET081SPECI EDHK 031150Z 13003KT 2500 BR FEW002 BKN021 M01/M01 Q1029 YLO AMB TEMPO YLO;EQDQ01+000000PRSWM1Q02+000000PRSWM3Q03+000000PRSWM4
0239100465999992006010312204+54367+010133FM-15+0032EDHK V0201601N00151999999CN0030001N1+00001-00101999999ADDGA1025+000901999GA2045+006601999GF104991999999999999999999MA1102911999999MW1101REMMET081METAR EDHK 031220Z 16003KT 3000 BR FEW003 SCT022 M00/M01 Q1029 YLO AMB TEMPO YLO;EQDQ01+000000PRSWM1Q02+000000PRSWM3Q03+000000PRSWM4P01 006603SCOCIG
0223100465999992006010313204+54367+010133FM-15+0032EDHK V0201901N00151003901CN0030001N1+00001-00201999999ADDGA1025+000901999GA2075+003901999GF107991999999999999999999MA1102811999999MW1101REMMET081METAR EDHK 031320Z 19003KT 3000 BR FEW003 BKN013 M00/M02 Q1028 YLO YLO BECMG AMB;EQDQ01+000000PRSWM1Q02+000000PRSWM3Q03+000000PRSWM4
0223100465999992006010314204+54367+010133FM-15+0032EDHK V0202001N00101005101CN0030001N1+00001-00201999999ADDGA1025+000901999GA2075+005101999GF107991999999999999999999MA1102911999999MW1101REMMET081METAR EDHK 031420Z 20002KT 3000 BR FEW003 BKN017 M00/M02 Q1029 YLO YLO BECMG AMB;EQDQ01+000000PRSWM1Q02+000000PRSWM3Q03+000000PRSWM4
0223100465999992006010315204+54367+010133FM-15+0032EDHK V0202301N00151004501CN0030001N1-00101-00301999999ADDGA1025+000901999GA2075+004501999GF107991999999999999999999MA1102911999999MW1101REMMET081METAR EDHK 031520Z 23003KT 3000 BR FEW003 BKN015 M01/M03 Q1029 YLO YLO BECMG AMB;EQDQ01+000000PRSWM1Q02+000000PRSWM3Q03+000000PRSWM4
0217100465999992006010316204+54367+010133FM-15+0032EDHK V0202101N00151001501CN0030001N1-00101-00201999999ADDGA1075+001501999GA2075+003601999GF107991999999999999999999MA1102911999999MW1101REMMET075EDHK 031620Z 21003KT 3000 BR BKN005 BKN012 M01/M02 Q1029 YLO YLO BECMG RED;EQDQ01+000000PRSWM1Q02+000000PRSWM3Q03+000000PRSWM4
0200100465999992006010317204+54367+010133FM-15+0032EDHK V0202501N00101001501CN0030001N1-00101-00201999999ADDGA1075+001501999GF107991999999999999999999MA1103011999999MW1101REMMET074METAR EDHK 031720Z 25002KT 3000 BR BKN005 M01/M02 Q1030 YLO YLO BECMG RED;EQDQ01+000000PRSWM1Q02+000000PRSWM3Q03+000000PRSWM4
0200100465999992006010318204+54367+010133FM-15+0032EDHK V0202701N00211000601CN0027001N1-00101-00201999999ADDGA1085+000601999GF108991999999999999999999MA1103011999999MW1101REMMET074METAR EDHK 031820Z 27004KT 2700 BR OVC002 M01/M02 Q1030 AMB YLO BECMG RED;EQDQ01+000000PRSWM1Q02+000000PRSWM3Q03+000000PRSWM4
0226100465999992006010319004+54367+010133FM-15+0032EDHK V0202401N00101000601CN0012001N1-00101-00201999999ADDED126U25009GA1085+000601999GF108991999999999999999999MA1103121999999REMMET079SPECI EDHK 031900Z 24002KT 1200 R26/2500N OVC002 M01/M02 Q1031 AMB FCST CANCEL;EQDQ01+000000PRSWM1Q02+000000PRSWM2Q03+000000PRSWM3Q04+000000PRSWM4
0201100465999992006010319204+54367+010133FM-15+0032EDHK V0202401N00051000301CN0010001N1-00101-00201999999ADDED126U24009GA1085+000301999GF108991999999999999999999MA1103121999999MW1101REMMET064EDHK 031920Z 24001KT 1000 R26/2400N BR OVC001 M01/M02 Q1031 RED;EQDQ01+000000PRSWM1Q02+000000PRSWM3Q03+000000PRSWM4
0208100465999992006010320004+54367+010133FM-15+0032EDHK V0201301N000510003019N0007001N1-00101-00201999999ADDED126U18009GA1091+000301999GF109991999999000251999999MA1103121999999MW1491REMMET071SPECI EDHK 032000Z 13001KT 0700 R26/1800N FZFG VV001 M01/M02 Q1031 RED;EQDQ01+000000PRSWM1Q02+000000PRSWM3Q03+000000PRSWM4
0180100465999992006010320204+54367+010133FM-15+0032EDHK V0201401N00101000301CN0015001N1-00101-00201999999ADDGA1085+000301999GF108991999999999999999999MA1103121999999MW1101REMMET054EDHK 032020Z 14002KT 1500 BR OVC001 M01/M02 Q1031 RED;EQDQ01+000000PRSWM1Q02+000000PRSWM3Q03+000000PRSWM4
0136100465999992006010320444+54367+010133FM-16+0032EDHK V0201501N001510003019N0007001N1-00101-00201999999ADDGA1091+000301999GF109991999999000251999999MA1103121999999MW1491REMMET061SPECI EDHK 032044Z 15003KT 0700 FZFG VV001 M01/M02 Q1031 RED;
0187100465999992006010321204+54367+010133FM-15+0032EDHK V0201701N001510003019N0006001N1-00101-00101999999ADDGA1091+000301999GF109991999999000251999999MA1103121999999MW1491REMMET061METAR EDHK 032120Z 17003KT 0600 FZFG VV001 M01/M01 Q1031 RED;EQDQ01+000000PRSWM1Q02+000000PRSWM3Q03+000000PRSWM4
0187100465999992006010322204+54367+010133FM-15+0032EDHK V0201101N001510001519N0005001N1-00101-00201999999ADDGA1091+000151999GF109991999999000251999999MA1103121999999MW1491REMMET061METAR EDHK 032220Z 11003KT 0500 FZFG VV000 M01/M02 Q1031 RED;EQDQ01+000000PRSWM1Q02+000000PRSWM3Q03+000000PRSWM4
0187100465999992006010323204+54367+010133FM-15+0032EDHK V0201001N001510006019N0009001N1-00101-00201999999ADDGA1091+000601999GF109991999999000251999999MA1103121999999MW1491REMMET061METAR EDHK 032320Z 10003KT 0900 FZFG VV002 M01/M02 Q1031 AMB;EQDQ01+000000PRSWM1Q02+000000PRSWM3Q03+000000PRSWM4
0129100465999992006010323334+54367+010133FM-16+0032EDHK V0201201N00101000601CN0015001N1-00101-00201999999ADDGA1085+000601999GF108991999999999999999999MA1103121999999MW1101REMMET054EDHK 032333Z 12002KT 1500 BR OVC002 M01/M02 Q1031 AMB;
0186100465999992006010400204+54367+010133FM-15+0032EDHK V0201301N00101000601CN0025001N1-00101-00201999999ADDGA1075+000601999GF107991999999999999999999MA1103181999999MW1101REMMET060METAR EDHK 040020Z 13002KT 2500 BR BKN002 M01/M02 Q1032 AMB;EQDQ01+000000PRSWM1Q02+000000PRSWM3Q03+000000PRSWM4
0186100465999992006010401204+54367+010133FM-15+0032EDHK V0200701N00151000601CN0027001N1-00101-00201999999ADDGA1075+000601999GF107991999999999999999999MA1103181999999MW1101REMMET060METAR EDHK 040120Z 07003KT 2700 BR BKN002 M01/M02 Q1032 AMB;EQDQ01+000000PRSWM1Q02+000000PRSWM3Q03+000000PRSWM4
0203100465999992006010402204+54367+010133FM-15+0032EDHK V0200801N00051001801CN0032001N1-00101-00201999999ADDGA1045+000601999GA2075+001801999GF107991999999999999999999MA1103181999999MW1101REMMET061EDHK 040220Z 08001KT 3200 BR SCT002 BKN006 M01/M02 Q1032 YLO;EQDQ01+000000PRSWM1Q02+000000PRSWM3Q03+000000PRSWM4
0180100465999992006010403204+54367+010133FM-15+0032EDHK V0200901N00151001501CN0040001N1-00101-00201999999ADDGA1075+001501999GF107991999999999999999999MA1103181999999MW1101REMMET054EDHK 040320Z 09003KT 4000 BR BKN005 M01/M02 Q1032 YLO;EQDQ01+000000PRSWM1Q02+000000PRSWM3Q03+000000PRSWM4
0206100465999992006010404204+54367+010133FM-15+0032EDHK V0200701N00151001201CN0040001N1+00001-00201999999ADDGA1025+000901999GA2075+001201999GF107991999999999999999999MA1103291999999MW1101REMMET064EDHK 040420Z 07003KT 4000 BR FEW003 BKN004 M00/02 Q1033 YLO YLO;EQDQ01+000000PRSWM1Q02+000000PRSWM3Q03+000000PRSWM4
0207100465999992006010405204+54367+010133FM-15+0032EDHK V0200501N00411001501CN0060001N1-00101-00201999999ADDGA1075+001501999GF107991999999999999999999MA1103291999999REMMET071METAR EDHK 040520Z 05008KT 6000 BKN005 M01/M02 Q1033 YLO YLO TEMPO GRN;EQDQ01+000000PRSWM1Q02+000000PRSWM2Q03+000000PRSWM3Q04+000000PRSWM4
0201100465999992006010406204+54367+010133FM-15+0032EDHK V0200701N00361001801CN0060001N1-00101-00201999999ADDGA1075+001801999GF107991999999999999999999MA1103391999999REMMET065EDHK 040620Z 07007KT 6000 BKN006 M01/M02 Q1034 YLO YLO TEMPO GRN;EQDQ01+000000PRSWM1Q02+000000PRSWM2Q03+000000PRSWM3Q04+000000PRSWM4
0230100465999992006010407204+54367+010133FM-15+0032EDHK V0200301N00101002101CN0060001N1-00101-00201999999ADDGA1075+002101999GA2075+006901999GF107991999999999999999999MA1103391999999REMMET078METAR EDHK 040720Z 03002KT 6000 BKN007 BKN023 M01/M02 Q1034 GRN YLO TEMPO GRN;EQDQ01+000000PRSWM1Q02+000000PRSWM2Q03+000000PRSWM3Q04+000000PRSWM4
0230100465999992006010408204+54367+010133FM-15+0032EDHK V0203601N00051002101CN0070001N1-00101-00201999999ADDGA1075+002101999GA2075+007501999GF107991999999999999999999MA1103491999999REMMET078METAR EDHK 040820Z 36001KT 7000 BKN007 BKN025 M01/M02 Q1035 GRN GRN TEMPO BLU;EQDQ01+000000PRSWM1Q02+000000PRSWM2Q03+000000PRSWM3Q04+000000PRSWM4
0206100465999992006010409204+54367+010133FM-15+0032EDHK V0200201N00101001801CN0060001N1+00101-00101999999ADDGA1075+001801999GF107991999999999999999999MA1103491999999REMMET070METAR EDHK 040920Z 02002KT 6000 BKN006 01/M01 Q1035 YLO YLO TEMPO GRN;EQDQ01+000000PRSWM1Q02+000000PRSWM2Q03+000000PRSWM3Q04+000000PRSWM4
0222100465999992006010410204+54367+010133FM-15+0032EDHK V0200701N00211002101CN0060001N1+00201+00001999999ADDGA1075+002101999GA2075+006001999GF107991999999999999999999MA1103491999999REMMET070EDHK 041020Z 07004KT 6000 BKN007 BKN020 02/00 Q1035 GRN GRN TEMPO BLU;EQDQ01+000000PRSWM1Q02+000000PRSWM2Q03+000000PRSWM3Q04+000000PRSWM4
0205100465999992006010411204+54367+010133FM-15+0032EDHK V0200601N00311002101CN0060001N1+00201+00001999999ADDGA1075+002101999GF107991999999999999999999MA1103491999999REMMET069METAR EDHK 041120Z 06006KT 6000 BKN007 02/00 Q1035 GRN GRN TEMPO BLU;EQDQ01+000000PRSWM1Q02+000000PRSWM2Q03+000000PRSWM3Q04+000000PRSWM4
0205100465999992006010412204+54367+010133FM-15+0032EDHK V0200801N00311002401CN0080001N1+00201+00001999999ADDGA1075+002401999GF107991999999999999999999MA1103491999999REMMET069METAR EDHK 041220Z 08006KT 8000 BKN008 02/00 Q1035 GRN GRN TEMPO BLU;EQDQ01+000000PRSWM1Q02+000000PRSWM2Q03+000000PRSWM3Q04+000000PRSWM4
0216100465999992006010413204+54367+010133FM-15+0032EDHK V0200801N00311004801CN0050001N1+00201-00101999999ADDGA1045+002101999GA2075+004801999GF107991999999999999999999MA1103391999999MW1101REMMET074EDHK 041320Z 08006KT 5000 BR SCT007 BKN016 02/M01 Q1034 WHT GRN TEMPO BLU;EQDQ01+000000PRSWM1Q02+000000PRSWM3Q03+000000PRSWM4
0185100465999992006010413254+54367+010133FM-15+0032EDHK V0200701N00361001801CN0040001N1+00101-00101999999ADDGA1075+001801999GF107991999999999999999999MA1103391999999MW1101MW2611MW3711REMMET079SPECI EDHK 041325Z 07007KT 4000 -RASN BR BKN006 01/M01 Q1034 YLO GRN TEMPO BLU;EQDQ01+000000PRSWM1
0199100465999992006010414204+54367+010133FM-15+0032EDHK V0200501N00211001201CN0050001N1+00101-00101999999ADDGA1075+001201999GF107991999999999999999999MA1103491999999MW1101REMMET073METAR EDHK 041420Z 05004KT 5000 BR BKN004 01/M01 Q1035 YLO YLO TEMPO GRN;EQDQ01+000000PRSWM1Q02+000000PRSWM3Q03+000000PRSWM4
0229100465999992006010415204+54367+010133FM-15+0032EDHK V0200601N00361002401CN0070001N1+00101+00001999999ADDGA1075+002401999GA2075+006001999GF107991999999999999999999MA1103491999999REMMET077METAR EDHK 041520Z 06007KT 7000 BKN008 BKN020 01/M00 Q1035 GRN YLO TEMPO GRN;EQDQ01+000000PRSWM1Q02+000000PRSWM2Q03+000000PRSWM3Q04+000000PRSWM4
0206100465999992006010416204+54367+010133FM-15+0032EDHK V0200501N00571003901CN0070001N1+00101-00201999999ADDGA1075+003901999GF107991999999999999999999MA1103491999999REMMET070METAR EDHK 041620Z 05011KT 7000 BKN013 01/M02 Q1035 GRN YLO TEMPO GRN;EQDQ01+000000PRSWM1Q02+000000PRSWM2Q03+000000PRSWM3Q04+000000PRSWM4
0223100465999992006010417204+54367+010133FM-15+0032EDHK V0200301N00621003001CN0080001N1+00001-00201999999ADDGA1075+003001999GA2075+005101999GF107991999999999999999999MA1103491999999REMMET071EDHK 041720Z 03012KT 8000 BKN010 BKN017 00/M02 Q1035 GRN YLO TEMPO GRN;EQDQ01+000000PRSWM1Q02+000000PRSWM2Q03+000000PRSWM3Q04+000000PRSWM4
0200100465999992006010418204+54367+010133FM-15+0032EDHK V0200601N00511003601CN0090001N1+00001-00201999999ADDGA1075+003601999GF107991999999999999999999MA1103491999999REMMET064EDHK 041820Z 06010KT 9000 BKN012 00/M02 Q1035 GRN YLO TEMPO GRN;EQDQ01+000000PRSWM1Q02+000000PRSWM2Q03+000000PRSWM3Q04+000000PRSWM4
0204100465999992006010419004+54367+010133FM-15+0032EDHK V0200501N00511002701CN0080001N1+00001-00201999999ADDGA1075+002701999GF107991999999999999999999MA1103491999999REMMET068SPECI EDHK 041900Z 05010KT 8000 BKN009 00/M02 Q1035 GRN FCST CANCEL;EQDQ01+000000PRSWM1Q02+000000PRSWM2Q03+000000PRSWM3Q04+000000PRSWM4
0192100465999992006010419204+54367+010133FM-15+0032EDHK V0200601N00511002401CN0070001N1+00101-00201999999ADDGA1075+002401999GF107991999999999999999999MA1103491999999REMMET056METAR EDHK 041920Z 06010KT 7000 BKN008 01/M02 Q1035 GRN;EQDQ01+000000PRSWM1Q02+000000PRSWM2Q03+000000PRSWM3Q04+000000PRSWM4
0186100465999992006010420204+54367+010133FM-15+0032EDHK V0200501N00461001801CN0070001N1+00101-00101999999ADDGA1075+001801999GF107991999999999999999999MA1103491999999REMMET050EDHK 042020Z 05009KT 7000 BKN006 01/M01 Q1035 YLO;EQDQ01+000000PRSWM1Q02+000000PRSWM2Q03+000000PRSWM3Q04+000000PRSWM4
0171100465999992006010421204+54367+010133FM-15+0032EDHK V0200401N00461001501CN0050001N1+00101-00101999999ADDGA1085+001501999GF108991999999999999999999MA1103391999999MW1101MW2611MW3711REMMET065METAR EDHK 042120Z 04009KT 5000 -RASN BR OVC005 01/M01 Q1034 YLO;EQDQ01+000000PRSWM1
0170100465999992006010422204+54367+010133FM-15+0032EDHK V0200601N00671001201CN0045001N1+00201+00001999999ADDGA1085+001201999GF108991999999999999999999MA1103391999999MW1101MW2511MW3611REMMET064METAR EDHK 042220Z 06013KT 4500 -RADZ BR OVC004 02/00 Q1034 YLO;EQDQ01+000000PRSWM1
0184100465999992006010423204+54367+010133FM-15+0032EDHK V0200601N00461001801CN0050001N1+00201+00101999999ADDGA1075+001801999GF107991999999999999999999MA1103391999999MW1101REMMET058METAR EDHK 042320Z 06009KT 5000 BR BKN006 02/01 Q1034 YLO;EQDQ01+000000PRSWM1Q02+000000PRSWM3Q03+000000PRSWM4
0183100465999992006010500204+54367+010133FM-15+0032EDHK V0200801N005110090059N0060001N1+00201+00001999999ADDGA1045+002105999GA2075+009005999MA1103301999999REMMET057EDHK 050020Z 08010KT 6000 SCT007 BKN030 02/M00 Q1033 WHT;EQDQ01+000000PRSWM1Q02+000000PRSWM2Q03+000000PRSWM3Q04+000000PRSWM4
0192100465999992006010501204+54367+010133FM-15+0032EDHK V0200801N00511009001CN0060001N1+00201-00101999999ADDGA1075+009001999GF107991999999999999999999MA1103391999999REMMET056METAR EDHK 050120Z 08010KT 6000 BKN030 02/M01 Q1034 WHT;EQDQ01+000000PRSWM1Q02+000000PRSWM2Q03+000000PRSWM3Q04+000000PRSWM4
0209100465999992006010502204+54367+010133FM-15+0032EDHK V0200801N00511009001CN0060001N1+00201-00101999999ADDGA1025+004501999GA2075+009001999GF107991999999999999999999MA1103391999999REMMET057EDHK 050220Z 08010KT 6000 FEW015 BKN030 02/M01 Q1034 WHT;EQDQ01+000000PRSWM1Q02+000000PRSWM2Q03+000000PRSWM3Q04+000000PRSWM4
0189100465999992006010503204+54367+010133FM-15+0032EDHK V0200801N005110120059N0070001N1+00201-00101999999ADDGA1045+004505999GA2075+012005999MA1103401999999REMMET063METAR EDHK 050320Z 08010KT 7000 SCT015 BKN040 02/M01 Q1034 WHT;EQDQ01+000000PRSWM1Q02+000000PRSWM2Q03+000000PRSWM3Q04+000000PRSWM4
0200100465999992006010504204+54367+010133FM-15+0032EDHK V0200801N00511003001CN0070001N1+00201-00101999999ADDGA1075+003001999GF107991999999999999999999MA1103291999999REMMET064EDHK 050420Z 08010KT 7000 BKN010 02/M01 Q1033 GRN GRN TEMPO WHT;EQDQ01+000000PRSWM1Q02+000000PRSWM2Q03+000000PRSWM3Q04+000000PRSWM4
0206100465999992006010505204+54367+010133FM-15+0032EDHK V0200801N00461003001CN0070001N1+00201-00101999999ADDGA1075+003001999GF107991999999999999999999MA1103181999999REMMET070METAR EDHK 050520Z 08009KT 7000 BKN010 02/M01 Q1032 GRN GRN TEMPO WHT;EQDQ01+000000PRSWM1Q02+000000PRSWM2Q03+000000PRSWM3Q04+000000PRSWM4
0229100465999992006010506204+54367+010133FM-15+0032EDHK V0200801N00461003001CN0070001N1+00201-00101999999ADDGA1075+003001999GA2075+004501999GF107991999999999999999999MA1103181999999REMMET077METAR EDHK 050620Z 08009KT 7000 BKN010 BKN015 02/M01 Q1032 GRN WHT TEMPO GRN;EQDQ01+000000PRSWM1Q02+000000PRSWM2Q03+000000PRSWM3Q04+000000PRSWM4
0206100465999992006010507204+54367+010133FM-15+0032EDHK V0200801N00511002701CN0070001N1+00201-00101999999ADDGA1075+002701999GF107991999999999999999999MA1103121999999REMMET070METAR EDHK 050720Z 08010KT 7000 BKN009 02/M01 Q1031 GRN WHT TEMPO GRN;EQDQ01+000000PRSWM1Q02+000000PRSWM2Q03+000000PRSWM3Q04+000000PRSWM4
0200100465999992006010508204+54367+010133FM-15+0032EDHK V0200701N00571002701CN0060001N1+00201+00001999999ADDGA1075+002701999GF107991999999999999999999MA1103121999999REMMET064EDHK 050820Z 07011KT 6000 BKN009 02/M00 Q1031 GRN GRN TEMPO WHT;EQDQ01+000000PRSWM1Q02+000000PRSWM2Q03+000000PRSWM3Q04+000000PRSWM4
0206100465999992006010509204+54367+010133FM-15+0032EDHK V0200801N00571002401CN0070001N1+00201+00001999999ADDGA1075+002401999GF107991999999999999999999MA1103121999999REMMET070METAR EDHK 050920Z 08011KT 7000 BKN008 02/M00 Q1031 GRN GRN TEMPO WHT;EQDQ01+000000PRSWM1Q02+000000PRSWM2Q03+000000PRSWM3Q04+000000PRSWM4
0206100465999992006010510204+54367+010133FM-15+0032EDHK V0200801N00621002401CN0080001N1+00201+00001999999ADDGA1075+002401999GF107991999999999999999999MA1103121999999REMMET070METAR EDHK 051020Z 08012KT 8000 BKN008 02/M00 Q1031 GRN GRN TEMPO WHT;EQDQ01+000000PRSWM1Q02+000000PRSWM2Q03+000000PRSWM3Q04+000000PRSWM4
0206100465999992006010511204+54367+010133FM-15+0032EDHK V0200801N00621002701CN0090001N1+00201+00001999999ADDGA1075+002701999GF107991999999999999999999MA1103011999999REMMET070METAR EDHK 051120Z 08012KT 9000 BKN009 02/M00 Q1030 GRN GRN TEMPO WHT;EQDQ01+000000PRSWM1Q02+000000PRSWM2Q03+000000PRSWM3Q04+000000PRSWM4
0190100465999992006010512204+54367+010133FM-15+0032EDHK V0200801N00621002701CN0090001N1+00201-00101999999ADDGA1075+002701999GF107991999999999999999999MA1103011999999REMMET054EDHK 051220Z 08012KT 9000 BKN009 02/M01 Q1030 GRN GRN;EQDQ01+000000PRSWM1Q02+000000PRSWM2Q03+000000PRSWM3Q04+000000PRSWM4
0190100465999992006010513204+54367+010133FM-15+0032EDHK V0200801N00621002701CN0090001N1+00201-00101999999ADDGA1075+002701999GF107991999999999999999999MA1102911999999REMMET054EDHK 051320Z 08012KT 9000 BKN009 02/M01 Q1029 GRN GRN;EQDQ01+000000PRSWM1Q02+000000PRSWM2Q03+000000PRSWM3Q04+000000PRSWM4
0190100465999992006010514204+54367+010133FM-15+0032EDHK V0200801N00571002401CN0080001N1+00201-00101999999ADDGA1075+002401999GF107991999999999999999999MA1102811999999REMMET054EDHK 051420Z 08011KT 8000 BKN008 02/M01 Q1028 GRN GRN;EQDQ01+000000PRSWM1Q02+000000PRSWM2Q03+000000PRSWM3Q04+000000PRSWM4
0196100465999992006010515204+54367+010133FM-15+0032EDHK V0200801N00621002401CN0060001N1+00101-00101999999ADDGA1075+002401999GF107991999999999999999999MA1102811999999REMMET060METAR EDHK 051520Z 08012KT 6000 BKN008 01/M01 Q1028 GRN GRN;EQDQ01+000000PRSWM1Q02+000000PRSWM2Q03+000000PRSWM3Q04+000000PRSWM4
0211100465999992006010516204+54367+010133FM-15+0032EDHK V0200801N00671001801CN0060001N1+00101-00101999999ADDGA1075+001801999GF107991999999999999999999MA1102911999999OC101231REMMET067EDHK 051620Z 08013G24KT 6000 BKN006 01/M01 Q1029 YLO GRN TEMPO YLO;EQDQ01+000000PRSWM1Q02+000000PRSWM2Q03+000000PRSWM3Q04+000000PRSWM4
0138100465999992006010517204+54367+010133FM-15+0032EDHK V0200801N00721001201CN0050001N1+00101-00101999999ADDGA1075+001201999GF107991999999999999999999MA1102811999999MW1101REMMET063METAR EDHK 051720Z 08014KT 5000 BR BKN004 01/M01 Q1028 YLO YLO;
0132100465999992006010518204+54367+010133FM-15+0032EDHK V0200801N00771001201CN0050001N1+00001-00101999999ADDGA1075+001201999GF107991999999999999999999MA1102811999999MW1101REMMET057EDHK 051820Z 08015KT 5000 BR BKN004 00/M01 Q1028 YLO YLO;
0134100465999992006010519204+54367+010133FM-15+0032EDHK V0200801N00621001201CN0050001N1+00001-00101999999ADDGA1075+001201999GF107991999999999999999999MA1102811999999MW1101REMMET059METAR EDHK 051920Z 08012KT 5000 BR BKN004 00/M01 Q1028 YLO;
0134100465999992006010520204+54367+010133FM-15+0032EDHK V0200801N00571001501CN0050001N1+00001-00101999999ADDGA1075+001501999GF107991999999999999999999MA1102811999999MW1101REMMET059METAR EDHK 052020Z 08011KT 5000 BR BKN005 00/M01 Q1028 YLO;
0119100465999992006010521204+54367+010133FM-15+0032EDHK V0200901N00461001501CN0060001N1+00001-00201999999ADDGA1075+001501999GF107991999999999999999999MA1102811999999REMMET050EDHK 052120Z 09009KT 6000 BKN005 00/M02 Q1028 YLO;
0125100465999992006010522204+54367+010133FM-15+0032EDHK V0200901N00571001801CN0060001N1+00001-00201999999ADDGA1075+001801999GF107991999999999999999999MA1102811999999REMMET056METAR EDHK 052220Z 09011KT 6000 BKN006 00/M02 Q1028 YLO;
0189100465999992006010523204+54367+010133FM-15+0032EDHK V0200901N00461001801CN0060001N1+00001-00201999999ADDGA1075+001801999GF107991999999999999999999MA1102811999999MW1561REMMET063METAR EDHK 052320Z 09009KT 6000 -FZDZ BKN006 M00/M02 Q1028 YLO;EQDQ01+000000PRSWM1Q02+000000PRSWM3Q03+000000PRSWM4
0127100465999992006010523374+54367+010133FM-16+0032EDHK V0200901N00511002101CN0060001N1+00001-00201999999ADDGA1075+002101999GF107991999999999999999999MA1102811999999REMMET058EDHK 052337Z 09010KT 6000 BKN007 M00/M02 Q1028 REFZDZ GRN;
0194100465999992006010600204+54367+010133FM-15+0032EDHK V0200901N00571002401CN0060001N1+00001-00301999999ADDGA1075+002401999GF107991999999999999999999MA1102811999999REMMET058EDHK 060020Z 09011KT 6000 BKN008 M00/M03 Q1028 REFZDZ GRN;EQDQ01+000000PRSWM1Q02+000000PRSWM2Q03+000000PRSWM3Q04+000000PRSWM4
0126100465999992006010601204+54367+010133FM-15+0032EDHK V0200901N00621002101CN0070001N1-00101-00301999999ADDGA1075+002101999GF107991999999999999999999MA1102811999999REMMET057METAR EDHK 060120Z 09012KT 7000 BKN007 M01/M03 Q1028 GRN;
0120100465999992006010602204+54367+010133FM-15+0032EDHK V0200901N00621002101CN0060001N1-00101-00301999999ADDGA1075+002101999GF107991999999999999999999MA1102811999999REMMET051EDHK 060220Z 09012KT 6000 BKN007 M01/M03 Q1028 GRN;
0126100465999992006010603204+54367+010133FM-15+0032EDHK V0200901N00571001801CN0060001N1-00101-00301999999ADDGA1075+001801999GF107991999999999999999999MA1102811999999REMMET057METAR EDHK 060320Z 09011KT 6000 BKN006 M01/M03 Q1028 YLO;
0134100465999992006010604204+54367+010133FM-15+0032EDHK V0200901N00621001801CN0060001N1-00101-00301999999ADDGA1075+001801999GF107991999999999999999999MA1102811999999REMMET065EDHK 060420Z 09012KT 6000 BKN006 M01/M03 Q1028 YLO YLO TEMPO GRN;
0140100465999992006010605204+54367+010133FM-15+0032EDHK V0200901N00571001501CN0060001N1-00101-00301999999ADDGA1075+001501999GF107991999999999999999999MA1102811999999REMMET071METAR EDHK 060520Z 09011KT 6000 BKN005 M01/M03 Q1028 YLO YLO TEMPO GRN;
0133100465999992006010606204+54367+010133FM-15+0032EDHK V0200901N00571001501CN0050001N1-00101-00301999999ADDGA1075+001501999GF107991999999999999999999MA1102811999999MW1101REMMET058EDHK 060620Z 09011KT 5000 BR BKN005 M01/M03 Q1028 YLO YLO;
0190100465999992006010607204+54367+010133FM-15+0032EDHK V0200901N00621001501CN0050001N1-00101-00301999999ADDGA1075+001501999GF107991999999999999999999MA1102811999999MW1101REMMET064METAR EDHK 060720Z 09012KT 5000 BR BKN005 M01/M03 Q1028 YLO YLO;EQDQ01+000000PRSWM1Q02+000000PRSWM3Q03+000000PRSWM4
0184100465999992006010608204+54367+010133FM-15+0032EDHK V0200901N00571001201CN0040001N1-00101-00301999999ADDGA1075+001201999GF107991999999999999999999MA1102911999999MW1101REMMET058EDHK 060820Z 09011KT 4000 BR BKN004 M01/M03 Q1029 YLO YLO;EQDQ01+000000PRSWM1Q02+000000PRSWM3Q03+000000PRSWM4
0184100465999992006010609204+54367+010133FM-15+0032EDHK V0200901N00511001201CN0045001N1-00101-00301999999ADDGA1075+001201999GF107991999999999999999999MA1103011999999MW1101REMMET058EDHK 060920Z 09010KT 4500 BR BKN004 M01/M03 Q1030 YLO YLO;EQDQ01+000000PRSWM1Q02+000000PRSWM3Q03+000000PRSWM4
0184100465999992006010610204+54367+010133FM-15+0032EDHK V0200901N00571000901CN0040001N1-00101-00301999999ADDGA1075+000901999GF107991999999999999999999MA1103011999999MW1101REMMET058EDHK 061020Z 09011KT 4000 BR BKN003 M01/M03 Q1030 YLO YLO;EQDQ01+000000PRSWM1Q02+000000PRSWM3Q03+000000PRSWM4
0184100465999992006010611204+54367+010133FM-15+0032EDHK V0200901N00511000901CN0040001N1-00101-00301999999ADDGA1075+000901999GF107991999999999999999999MA1102911999999MW1101REMMET058EDHK 061120Z 09010KT 4000 BR BKN003 M01/M03 Q1029 YLO YLO;EQDQ01+000000PRSWM1Q02+000000PRSWM3Q03+000000PRSWM4
0190100465999992006010612204+54367+010133FM-15+0032EDHK V0200801N00621001201CN0040001N1-00101-00301999999ADDGA1085+001201999GF108991999999999999999999MA1102911999999MW1101REMMET064METAR EDHK 061220Z 08012KT 4000 BR OVC004 M01/M03 Q1029 YLO YLO;EQDQ01+000000PRSWM1Q02+000000PRSWM3Q03+000000PRSWM4
0184100465999992006010613204+54367+010133FM-15+0032EDHK V0200801N00621001501CN0050001N1-00101-00301999999ADDGA1085+001501999GF108991999999999999999999MA1102911999999MW1101REMMET058EDHK 061320Z 08012KT 5000 BR OVC005 M01/M03 Q1029 YLO YLO;EQDQ01+000000PRSWM1Q02+000000PRSWM3Q03+000000PRSWM4
0198100465999992006010614004+54367+010133FM-15+0032EDHK V0200901N00511001801CN0050001N1-00101-00301999999ADDGA1085+001801999GF108991999999999999999999MA1102911999999MW1101REMMET072SPECI EDHK 061400Z 09010KT 5000 BR OVC006 M01/M03 Q1029 YLO FCST CANCEL;EQDQ01+000000PRSWM1Q02+000000PRSWM3Q03+000000PRSWM4
0186100465999992006010614204+54367+010133FM-15+0032EDHK V0200801N00621001501CN0050001N1-00101-00301999999ADDGA1085+001501999GF108991999999999999999999MA1102911999999MW1101REMMET060METAR EDHK 061420Z 08012KT 5000 BR OVC005 M01/M03 Q1029 YLO;EQDQ01+000000PRSWM1Q02+000000PRSWM3Q03+000000PRSWM4
0186100465999992006010615204+54367+010133FM-15+0032EDHK V0200901N00511001501CN0050001N1-00101-00301999999ADDGA1085+001501999GF108991999999999999999999MA1102911999999MW1101REMMET060METAR EDHK 061520Z 09010KT 5000 BR OVC005 M01/M03 Q1029 YLO;EQDQ01+000000PRSWM1Q02+000000PRSWM3Q03+000000PRSWM4
0186100465999992006010616204+54367+010133FM-15+0032EDHK V0200901N00511001501CN0050001N1-00101-00301999999ADDGA1085+001501999GF108991999999999999999999MA1103011999999MW1101REMMET060METAR EDHK 061620Z 09010KT 5000 BR OVC005 M01/M03 Q1030 YLO;EQDQ01+000000PRSWM1Q02+000000PRSWM3Q03+000000PRSWM4
0186100465999992006010617204+54367+010133FM-15+0032EDHK V0201001N00411001501CN0050001N1-00101-00301999999ADDGA1085+001501999GF108991999999999999999999MA1103011999999MW1101REMMET060METAR EDHK 061720Z 10008KT 5000 BR OVC005 M01/M03 Q1030 YLO;EQDQ01+000000PRSWM1Q02+000000PRSWM3Q03+000000PRSWM4
0186100465999992006010618204+54367+010133FM-15+0032EDHK V0201001N00571001501CN0045001N1-00201-00401999999ADDGA1085+001501999GF108991999999999999999999MA1103121999999MW1101REMMET060METAR EDHK 061820Z 10011KT 4500 BR OVC005 M02/M04 Q1031 YLO;EQDQ01+000000PRSWM1Q02+000000PRSWM3Q03+000000PRSWM4
0180100465999992006010619204+54367+010133FM-15+0032EDHK V0200901N00511001801CN0045001N1-00201-00401999999ADDGA1085+001801999GF108991999999999999999999MA1103121999999MW1101REMMET054EDHK 061920Z 09010KT 4500 BR OVC006 M02/M04 Q1031 YLO;EQDQ01+000000PRSWM1Q02+000000PRSWM3Q03+000000PRSWM4
0187100465999992006010620204+54367+010133FM-15+0032EDHK V0201101N00461002401CN0070001N1-00101-00401999999ADDGA1075+002401999GF107991999999999999999999MA1103121999999REMMET051EDHK 062020Z 11009KT 7000 BKN008 M01/M04 Q1031 GRN;EQDQ01+000000PRSWM1Q02+000000PRSWM2Q03+000000PRSWM3Q04+000000PRSWM4
0193100465999992006010621204+54367+010133FM-15+0032EDHK V0201001N00511003001CN0060001N1+00001-00301999999ADDGA1075+003001999GF107991999999999999999999MA1103181999999REMMET057METAR EDHK 062120Z 10010KT 6000 BKN010 M00/M03 Q1032 GRN;EQDQ01+000000PRSWM1Q02+000000PRSWM2Q03+000000PRSWM3Q04+000000PRSWM4
0193100465999992006010622204+54367+010133FM-15+0032EDHK V0200901N00311004201CN0060001N1+00001-00301999999ADDGA1075+004201999GF107991999999999999999999MA1103181999999REMMET057METAR EDHK 062220Z 09006KT 6000 BKN014 M00/M03 Q1032 GRN;EQDQ01+000000PRSWM1Q02+000000PRSWM2Q03+000000PRSWM3Q04+000000PRSWM4
0192100465999992006010623204+54367+010133FM-15+0032EDHK V0200901N00461004501CN0112651N1+00001-00301999999ADDGA1075+004501999GF107991999999999999999999MA1103181999999REMMET056METAR EDHK 062320Z 09009KT 9999 BKN015 00/M03 Q1032 WHT;EQDQ01+000000PRSWM1Q02+000000PRSWM2Q03+000000PRSWM3Q04+000000PRSWM4
0189100465999992006010700204+54367+010133FM-15+0032EDHK V0200901N003610075059N0112651N1+00001-00301999999ADDGA1045+003905999GA2075+007505999MA1103201999999REMMET063METAR EDHK 070020Z 09007KT 9999 SCT013 BKN025 00/M03 Q1032 BLU;EQDQ01+000000PRSWM1Q02+000000PRSWM2Q03+000000PRSWM3Q04+000000PRSWM4
0183100465999992006010701204+54367+010133FM-15+0032EDHK V0200801N004110084059N0112651N1+00101-00201999999ADDGA1045+003305999GA2075+008405999MA1103101999999REMMET057EDHK 070120Z 08008KT 9999 SCT011 BKN028 01/M02 Q1031 BLU;EQDQ01+000000PRSWM1Q02+000000PRSWM2Q03+000000PRSWM3Q04+000000PRSWM4
0209100465999992006010702204+54367+010133FM-15+0032EDHK V0200901N00411002701CN0112651N1+00101-00201999999ADDGA1075+002701999GA2075+009001999GF107991999999999999999999MA1103121999999REMMET057EDHK 070220Z 09008KT 9999 BKN009 BKN030 01/M02 Q1031 GRN;EQDQ01+000000PRSWM1Q02+000000PRSWM2Q03+000000PRSWM3Q04+000000PRSWM4
0209100465999992006010703204+54367+010133FM-15+0032EDHK V0200801N00411003001CN0112651N1+00101-00201999999ADDGA1075+003001999GA2075+009001999GF107991999999999999999999MA1103121999999REMMET057EDHK 070320Z 08008KT 9999 BKN010 BKN030 01/M02 Q1031 GRN;EQDQ01+000000PRSWM1Q02+000000PRSWM2Q03+000000PRSWM3Q04+000000PRSWM4
0215100465999992006010704204+54367+010133FM-15+0032EDHK V0200901N00461002401CN0112651N1+00101-00201999999ADDGA1075+002401999GA2075+009001999GF107991999999999999999999MA1103181999999REMMET063METAR EDHK 070420Z 09009KT 9999 BKN008 BKN030 01/M02 Q1032 GRN;EQDQ01+000000PRSWM1Q02+000000PRSWM2Q03+000000PRSWM3Q04+000000PRSWM4
0215100465999992006010705204+54367+010133FM-15+0032EDHK V0200901N00461002701CN0112651N1+00101-00201999999ADDGA1075+002701999GA2075+009001999GF107991999999999999999999MA1103181999999REMMET063METAR EDHK 070520Z 09009KT 9999 BKN009 BKN030 01/M02 Q1032 GRN;EQDQ01+000000PRSWM1Q02+000000PRSWM2Q03+000000PRSWM3Q04+000000PRSWM4
0192100465999992006010706204+54367+010133FM-15+0032EDHK V0201001N00461002701CN0080001N1+00101-00201999999ADDGA1075+002701999GF107991999999999999999999MA1103181999999REMMET056METAR EDHK 070620Z 10009KT 8000 BKN009 01/M02 Q1032 GRN;EQDQ01+000000PRSWM1Q02+000000PRSWM2Q03+000000PRSWM3Q04+000000PRSWM4
0186100465999992006010707204+54367+010133FM-15+0032EDHK V0201001N00511002101CN0060001N1+00001-00201999999ADDGA1075+002101999GF107991999999999999999999MA1103181999999REMMET050EDHK 070720Z 10010KT 6000 BKN007 00/M02 Q1032 GRN;EQDQ01+000000PRSWM1Q02+000000PRSWM2Q03+000000PRSWM3Q04+000000PRSWM4
0193100465999992006010708204+54367+010133FM-15+0032EDHK V0201001N00411001801CN0060001N1-00101-00301999999ADDGA1075+001801999GF107991999999999999999999MA1103181999999REMMET057METAR EDHK 070820Z 10008KT 6000 BKN006 M01/M03 Q1032 YLO;EQDQ01+000000PRSWM1Q02+000000PRSWM2Q03+000000PRSWM3Q04+000000PRSWM4
0193100465999992006010709204+54367+010133FM-15+0032EDHK V0200801N00461002101CN0070001N1-00101-00301999999ADDGA1075+002101999GF107991999999999999999999MA1103291999999REMMET057METAR EDHK 070920Z 08009KT 7000 BKN007 M01/M03 Q1033 GRN;EQDQ01+000000PRSWM1Q02+000000PRSWM2Q03+000000PRSWM3Q04+000000PRSWM4
0187100465999992006010710204+54367+010133FM-15+0032EDHK V0201201N00411004501CN0080001N1-00101-00401999999ADDGA1075+004501999GF107991999999999999999999MA1103291999999REMMET051EDHK 071020Z 12008KT 8000 BKN015 M01/M04 Q1033 WHT;EQDQ01+000000PRSWM1Q02+000000PRSWM2Q03+000000PRSWM3Q04+000000PRSWM4
0126100465999992006010711104+54367+010133FM-16+0032EDHK V0201001N00411003601CN0080001N1-00101-00401999999ADDGA1075+003601999GF107991999999999999999999MA1103291999999REMMET057SPECI EDHK 071110Z 10008KT 8000 BKN012 M01/M04 Q1033 GRN;
0193100465999992006010711204+54367+010133FM-15+0032EDHK V0201001N00361003001CN0060001N1-00101-00401999999ADDGA1075+003001999GF107991999999999999999999MA1103291999999REMMET057METAR EDHK 071120Z 10007KT 6000 BKN010 M01/M04 Q1033 GRN;EQDQ01+000000PRSWM1Q02+000000PRSWM2Q03+000000PRSWM3Q04+000000PRSWM4
0187100465999992006010712204+54367+010133FM-15+0032EDHK V0201001N00361003601CN0060001N1-00101-00401999999ADDGA1075+003601999GF107991999999999999999999MA1103291999999REMMET051EDHK 071220Z 10007KT 6000 BKN012 M01/M04 Q1033 GRN;EQDQ01+000000PRSWM1Q02+000000PRSWM2Q03+000000PRSWM3Q04+000000PRSWM4
0184100465999992006010713204+54367+010133FM-15+0032EDHK V0200901N003610060059N0060001N1-00101-00401999999ADDGA1045+003005999GA2075+006005999MA1103201999999REMMET058EDHK 071320Z 09007KT 6000 SCT010 BKN020 M01/M04 Q1032 WHT;EQDQ01+000000PRSWM1Q02+000000PRSWM2Q03+000000PRSWM3Q04+000000PRSWM4
0187100465999992006010714204+54367+010133FM-15+0032EDHK V0200901N00311002701CN0060001N1-00101-00401999999ADDGA1075+002701999GF107991999999999999999999MA1103181999999REMMET051EDHK 071420Z 09006KT 6000 BKN009 M01/M04 Q1032 GRN;EQDQ01+000000PRSWM1Q02+000000PRSWM2Q03+000000PRSWM3Q04+000000PRSWM4
0187100465999992006010715204+54367+010133FM-15+0032EDHK V0200901N00361002701CN0060001N1-00101-00401999999ADDGA1075+002701999GF107991999999999999999999MA1103291999999REMMET051EDHK 071520Z 09007KT 6000 BKN009 M01/M04 Q1033 GRN;EQDQ01+000000PRSWM1Q02+000000PRSWM2Q03+000000PRSWM3Q04+000000PRSWM4
0180100465999992006010716204+54367+010133FM-15+0032EDHK V0200901N00411002401CN0050001N1-00101-00301999999ADDGA1075+002401999GF107991999999999999999999MA1103291999999MW1101REMMET054EDHK 071620Z 09008KT 5000 BR BKN008 M01/M03 Q1033 GRN;EQDQ01+000000PRSWM1Q02+000000PRSWM3Q03+000000PRSWM4
0186100465999992006010717204+54367+010133FM-15+0032EDHK V0201001N00361002101CN0050001N1-00101-00301999999ADDGA1075+002101999GF107991999999999999999999MA1103011999999MW1101REMMET060METAR EDHK 071720Z 10007KT 5000 BR BKN007 M01/M03 Q1030 GRN;EQDQ01+000000PRSWM1Q02+000000PRSWM3Q03+000000PRSWM4
0180100465999992006010718204+54367+010133FM-15+0032EDHK V0201001N00361002401CN0050001N1-00101-00301999999ADDGA1075+002401999GF107991999999999999999999MA1103291999999MW1101REMMET054EDHK 071820Z 10007KT 5000 BR BKN008 M01/M03 Q1033 GRN;EQDQ01+000000PRSWM1Q02+000000PRSWM3Q03+000000PRSWM4
0180100465999992006010719204+54367+010133FM-15+0032EDHK V0200801N00411002401CN0050001N1-00101-00301999999ADDGA1075+002401999GF107991999999999999999999MA1103291999999MW1101REMMET054EDHK 071920Z 08008KT 5000 BR BKN008 M01/M03 Q1033 GRN;EQDQ01+000000PRSWM1Q02+000000PRSWM3Q03+000000PRSWM4
0186100465999992006010720204+54367+010133FM-15+0032EDHK V0200901N00361002101CN0050001N1-00101-00301999999ADDGA1075+002101999GF107991999999999999999999MA1103291999999MW1101REMMET060METAR EDHK 072020Z 09007KT 5000 BR BKN007 M01/M03 Q1033 GRN;EQDQ01+000000PRSWM1Q02+000000PRSWM3Q03+000000PRSWM4
0186100465999992006010721204+54367+010133FM-15+0032EDHK V0200901N00411001501CN0045001N1-00101-00301999999ADDGA1075+001501999GF107991999999999999999999MA1103291999999MW1101REMMET060METAR EDHK 072120Z 09008KT 4500 BR BKN005 M01/M03 Q1033 YLO;EQDQ01+000000PRSWM1Q02+000000PRSWM3Q03+000000PRSWM4
0180100465999992006010722204+54367+010133FM-15+0032EDHK V0200901N00411000901CN0040001N1-00101-00301999999ADDGA1075+000901999GF107991999999999999999999MA1103291999999MW1101REMMET054EDHK 072220Z 09008KT 4000 BR BKN003 M01/M03 Q1033 YLO;EQDQ01+000000PRSWM1Q02+000000PRSWM3Q03+000000PRSWM4
0186100465999992006010723204+54367+010133FM-15+0032EDHK V0201101N00461000601CN0035001N1-00201-00301999999ADDGA1075+000601999GF107991999999999999999999MA1103291999999MW1101REMMET060METAR EDHK 072320Z 11009KT 3500 BR BKN002 M02/M03 Q1033 AMB;EQDQ01+000000PRSWM1Q02+000000PRSWM3Q03+000000PRSWM4
0186100465999992006010800204+54367+010133FM-15+0032EDHK V0201201N00311000601CN0030001N1-00201-00301999999ADDGA1085+000601999GF108991999999999999999999MA1103291999999MW1101REMMET060METAR EDHK 080020Z 12006KT 3000 BR OVC002 M02/M03 Q1033 AMB;EQDQ01+000000PRSWM1Q02+000000PRSWM3Q03+000000PRSWM4
0180100465999992006010801204+54367+010133FM-15+0032EDHK V0201201N00311000901CN0035001N1-00201-00301999999ADDGA1085+000901999GF108991999999999999999999MA1103291999999MW1101REMMET054EDHK 080120Z 12006KT 3500 BR OVC003 M02/M03 Q1033 YLO;EQDQ01+000000PRSWM1Q02+000000PRSWM3Q03+000000PRSWM4
0186100465999992006010802204+54367+010133FM-15+0032EDHK V0201001N00411002101CN0045001N1-00201-00301999999ADDGA1075+002101999GF107991999999999999999999MA1103291999999MW1101REMMET060METAR EDHK 080220Z 10008KT 4500 BR BKN007 M02/M03 Q1033 GRN;EQDQ01+000000PRSWM1Q02+000000PRSWM3Q03+000000PRSWM4
0180100465999992006010803204+54367+010133FM-15+0032EDHK V0200901N00411002401CN0045001N1-00201-00401999999ADDGA1075+002401999GF107991999999999999999999MA1103291999999MW1101REMMET054EDHK 080320Z 09008KT 4500 BR BKN008 M02/M04 Q1033 GRN;EQDQ01+000000PRSWM1Q02+000000PRSWM3Q03+000000PRSWM4
0186100465999992006010804204+54367+010133FM-15+0032EDHK V0200801N00361002401CN0045001N1-00301-00501999999ADDGA1075+002401999GF107991999999999999999999MA1103291999999MW1101REMMET060METAR EDHK 080420Z 08007KT 4500 BR BKN008 M03/M05 Q1033 GRN;EQDQ01+000000PRSWM1Q02+000000PRSWM3Q03+000000PRSWM4
0186100465999992006010805204+54367+010133FM-15+0032EDHK V0200801N003612200019N0045001N1-00301-00501999999ADDGA1045+003001999GF104991999999999999999999MA1103291999999MW1101REMMET060METAR EDHK 080520Z 08007KT 4500 BR SCT010 M03/M05 Q1033 GRN;EQDQ01+000000PRSWM1Q02+000000PRSWM3Q03+000000PRSWM4
0186100465999992006010806204+54367+010133FM-15+0032EDHK V0200801N004112200019N0045001N1-00301-00601999999ADDGA1025+003001999GF102991999999999999999999MA1103391999999MW1101REMMET060METAR EDHK 080620Z 08008KT 4500 BR FEW010 M03/M06 Q1034 GRN;EQDQ01+000000PRSWM1Q02+000000PRSWM3Q03+000000PRSWM4
0131100465999992006010807204+54367+010133FM-15+0032EDHK V0200801N003112200019N0045001N1-00401-00601999999ADDMA1103391999999MW1101REMMET047EDHK 080720Z 08006KT 4500 BR M04/M06 Q1034 GRN;EQDQ01+000000PRSWM1Q02+000000PRSWM3Q03+000000PRSWM4
0186100465999992006010808204+54367+010133FM-15+0032EDHK V0201001N004112200019N0045001N1-00401-00601999999ADDGA1045+003001999GF104991999999999999999999MA1103291999999MW1101REMMET060METAR EDHK 080820Z 10008KT 4500 BR SCT010 M04/M06 Q1033 GRN;EQDQ01+000000PRSWM1Q02+000000PRSWM3Q03+000000PRSWM4
0186100465999992006010808454+54367+010133FM-15+0032EDHK V0201201N00361002701CN0045001N1-00401-00601999999ADDGA1075+002701999GF107991999999999999999999MA1103391999999MW1101REMMET060SPECI EDHK 080845Z 12007KT 4500 BR BKN009 M04/M06 Q1034 GRN;EQDQ01+000000PRSWM1Q02+000000PRSWM3Q03+000000PRSWM4
0180100465999992006010809204+54367+010133FM-15+0032EDHK V0201201N00361002701CN0045001N1-00401-00701999999ADDGA1075+002701999GF107991999999999999999999MA1103391999999MW1101REMMET054EDHK 080920Z 12007KT 4500 BR BKN009 M04/M07 Q1034 GRN;EQDQ01+000000PRSWM1Q02+000000PRSWM3Q03+000000PRSWM4
0186100465999992006010810204+54367+010133FM-15+0032EDHK V0201301N00411002401CN0040001N1-00401-00601999999ADDGA1085+002401999GF108991999999999999999999MA1103391999999MW1101REMMET060METAR EDHK 081020Z 13008KT 4000 BR OVC008 M04/M06 Q1034 GRN;EQDQ01+000000PRSWM1Q02+000000PRSWM3Q03+000000PRSWM4
0129100465999992006010810424+54367+010133FM-16+0032EDHK V0201501N00411001801CN0040001N1-00401-00601999999ADDGA1085+001801999GF108991999999999999999999MA1103391999999MW1101REMMET054EDHK 081042Z 15008KT 4000 BR OVC006 M04/M06 Q1034 YLO;
0180100465999992006010811204+54367+010133FM-15+0032EDHK V0201301N00311001501CN0040001N1-00301-00501999999ADDGA1085+001501999GF108991999999999999999999MA1103491999999MW1101REMMET054EDHK 081120Z 13006KT 4000 BR OVC005 M03/M05 Q1035 YLO;EQDQ01+000000PRSWM1Q02+000000PRSWM3Q03+000000PRSWM4
0186100465999992006010812204+54367+010133FM-15+0032EDHK V0200901N00261002101CN0040001N1-00201-00401999999ADDGA1075+002101999GF107991999999999999999999MA1103391999999MW1101REMMET060METAR EDHK 081220Z 09005KT 4000 BR BKN007 M02/M04 Q1034 GRN;EQDQ01+000000PRSWM1Q02+000000PRSWM3Q03+000000PRSWM4
0186100465999992006010813204+54367+010133FM-15+0032EDHK V0201101N00361002701CN0040001N1-00201-00401999999ADDGA1075+002701999GF107991999999999999999999MA1103391999999MW1101REMMET060METAR EDHK 081320Z 11007KT 4000 BR BKN009 M02/M04 Q1034 GRN;EQDQ01+000000PRSWM1Q02+000000PRSWM3Q03+000000PRSWM4
0180100465999992006010814204+54367+010133FM-15+0032EDHK V0201001N00411003001CN0050001N1-00201-00501999999ADDGA1075+003001999GF107991999999999999999999MA1103291999999MW1101REMMET054EDHK 081420Z 10008KT 5000 BR BKN010 M02/M05 Q1033 GRN;EQDQ01+000000PRSWM1Q02+000000PRSWM3Q03+000000PRSWM4
0186100465999992006010815204+54367+010133FM-15+0032EDHK V0201001N002612200019N0040001N1-00301-00501999999ADDGA1045+003001999GF104991999999999999999999MA1103291999999MW1101REMMET060METAR EDHK 081520Z 10005KT 4000 BR SCT010 M03/M05 Q1033 GRN;EQDQ01+000000PRSWM1Q02+000000PRSWM3Q03+000000PRSWM4
0180100465999992006010816204+54367+010133FM-15+0032EDHK V0200801N002612200019N0030001N1-00401-00601999999ADDGA1025+003001999GF102991999999999999999999MA1103291999999MW1101REMMET054EDHK 081620Z 08005KT 3000 BR FEW010 M04/M06 Q1033 YLO;EQDQ01+000000PRSWM1Q02+000000PRSWM3Q03+000000PRSWM4
0186100465999992006010817204+54367+010133FM-15+0032EDHK V0200901N003112200019N0030001N1-00301-00501999999ADDGA1025+003001999GF102991999999999999999999MA1103291999999MW1101REMMET060METAR EDHK 081720Z 09006KT 3000 BR FEW010 M03/M05 Q1033 YLO;EQDQ01+000000PRSWM1Q02+000000PRSWM3Q03+000000PRSWM4
0158100465999992006010818204+54367+010133FM-15+0032EDHK V0200901N00261003901CN0030001N1-00301-00501999999ADDGA1025+003001999GA2075+003901999GF107991999999999999999999MA1103291999999MW1101REMMET067METAR EDHK 081820Z 09005KT 3000 BR FEW010 BKN013 M03/M05 Q1033 YLO;
0158100465999992006010819204+54367+010133FM-15+0032EDHK V0201301N00361003901CN0040001N1-00301-00501999999ADDGA1045+003001999GA2075+003901999GF107991999999999999999999MA1103391999999MW1101REMMET067METAR EDHK 081920Z 13007KT 4000 BR SCT010 BKN013 M03/M05 Q1034 GRN;
0135100465999992006010820204+54367+010133FM-15+0032EDHK V0201501N00311002701CN0040001N1-00301-00501999999ADDGA1075+002701999GF107991999999999999999999MA1103391999999MW1101REMMET060METAR EDHK 082020Z 15006KT 4000 BR BKN009 M03/M05 Q1034 GRN;
0135100465999992006010821204+54367+010133FM-15+0032EDHK V0201301N00261002401CN0040001N1-00401-00601999999ADDGA1075+002401999GF107991999999999999999999MA1103391999999MW1101REMMET060METAR EDHK 082120Z 13005KT 4000 BR BKN008 M04/M06 Q1034 GRN;
0129100465999992006010822204+54367+010133FM-15+0032EDHK V0201201N002112200019N0040001N1-00401-00701999999ADDGA1045+002401999GF104991999999999999999999MA1103491999999MW1101REMMET054EDHK 082220Z 12004KT 4000 BR SCT008 M04/M07 Q1035 GRN;
0080100465999992006010823204+54367+010133FM-15+0032EDHK V0201101N001512200019N0040001N1-00501-00701999999ADDMA1103491999999MW1101REMMET047EDHK 082320Z 11003KT 4000 BR M05/M07 Q1035 GRN;
0086100465999992006010900204+54367+010133FM-15+0032EDHK V0201201N002112200019N0040001N1-00501-00701999999ADDMA1103491999999MW1101REMMET053METAR EDHK 090020Z 12004KT 4000 BR M05/M07 Q1035 GRN;
0086100465999992006010901204+54367+010133FM-15+0032EDHK V0201101N002612200019N0040001N1-00501-00701999999ADDMA1103391999999MW1101REMMET053METAR EDHK 090120Z 11005KT 4000 BR M05/M07 Q1034 GRN;
0086100465999992006010902204+54367+010133FM-15+0032EDHK V0201301N002112200019N0040001N1-00501-00701999999ADDMA1103391999999MW1101REMMET053METAR EDHK 090220Z 13004KT 4000 BR M05/M07 Q1034 GRN;
0086100465999992006010903204+54367+010133FM-15+0032EDHK V0201201N002112200019N0035001N1-00501-00701999999ADDMA1103291999999MW1101REMMET053METAR EDHK 090320Z 12004KT 3500 BR M05/M07 Q1033 YLO;
0090100465999992006010904204+54367+010133FM-15+0032EDHK V0201001N003112200019N0035001N1-00501-00701999999ADDMA1103291999999MW1101REMMET057METAR EDHK 090420Z 10006KT 3500 BR M05/M07 Q1033 YLO YLO;
0090100465999992006010905204+54367+010133FM-15+0032EDHK V0201201N002112200019N0035001N1-00501-00701999999ADDMA1103291999999MW1101REMMET057METAR EDHK 090520Z 12004KT 3500 BR M05/M07 Q1033 YLO YLO;
0090100465999992006010906204+54367+010133FM-15+0032EDHK V0201201N002612200019N0035001N1-00601-00701999999ADDMA1103291999999MW1101REMMET057METAR EDHK 090620Z 12005KT 3500 BR M06/M07 Q1033 YLO YLO;
0084100465999992006010907204+54367+010133FM-15+0032EDHK V0201201N003112200019N0030001N1-00601-00801999999ADDMA1103291999999MW1101REMMET051EDHK 090720Z 12006KT 3000 BR M06/M08 Q1033 YLO YLO;
0094100465999992006010908204+54367+010133FM-15+0032EDHK V0201201N002612200019N0035001N1-00601-00701999999ADDMA1103181999999MW1101REMMET061EDHK 090820Z 12005KT 3500 BR M06/M07 Q1032 YLO YLO BECMG GRN;
0084100465999992006010909204+54367+010133FM-15+0032EDHK V0201201N002112200019N0040001N1-00501-00701999999ADDMA1103181999999MW1101REMMET051EDHK 090920Z 12004KT 4000 BR M05/M07 Q1032 GRN GRN;
0090100465999992006010910204+54367+010133FM-15+0032EDHK V0201101N002612200019N0040001N1-00401-00701999999ADDMA1103181999999MW1101REMMET057METAR EDHK 091020Z 11005KT 4000 BR M04/M07 Q1032 GRN GRN;
0090100465999992006010911204+54367+010133FM-15+0032EDHK V0201201N002112200019N0050001N1-00201-00501999999ADDMA1103181999999MW1051REMMET057METAR EDHK 091120Z 12004KT 5000 HZ M02/M05 Q1032 WHT WHT;
0090100465999992006010912204+54367+010133FM-15+0032EDHK V0201401N003612200019N0060001N1-00201-00601999999ADDMA1103181999999MW1051REMMET057METAR EDHK 091220Z 14007KT 6000 HZ M02/M06 Q1032 WHT WHT;
0081100465999992006010913204+54367+010133FM-15+0032EDHK V0201601N002612200019N0060001N1-00201-00601999999ADDMA1103121999999REMMET054METAR EDHK 091320Z 16005KT 6000 M02/M06 Q1031 WHT WHT;
0075100465999992006010914204+54367+010133FM-15+0032EDHK V0200901N002112200019N0060001N1-00101-00701999999ADDMA1103011999999REMMET048EDHK 091420Z 09004KT 6000 M01/M07 Q1030 WHT WHT;
0099100465999992006010915204+54367+010133FM-15+0032EDHK V0201101N002112200019N0050001N1-00301-00801999999ADDMA1103011999999MW1051REMMET066METAR EDHK 091520Z 11004KT 5000 HZ M03/M08 Q1030 WHT WH TEMPO YLO;
0100100465999992006010916204+54367+010133FM-15+0032EDHK V0201001N002112200019N0050001N1-00301-00801999999ADDMA1103011999999MW1051REMMET067METAR EDHK 091620Z 10004KT 5000 HZ M03/M08 Q1030 WHT WHT TEMPO YLO;
0094100465999992006010917204+54367+010133FM-15+0032EDHK V0201101N002112200019N0045001N1-00301-00801999999ADDMA1102911999999MW1051REMMET061EDHK 091720Z 11004KT 4500 HZ M03/M08 Q1029 GRN WHT TEMPO YLO;
0100100465999992006010918204+54367+010133FM-15+0032EDHK V0201301N002112200019N0040001N1-00401-00801999999ADDMA1102911999999MW1051REMMET067METAR EDHK 091820Z 13004KT 4000 HZ M04/M08 Q1029 GRN WHT TEMPO YLO;
0098100465999992006010919004+54367+010133FM-15+0032EDHK V0201201N002112200019N0040001N1-00401-00801999999ADDMA1102911999999MW1051REMMET065SPECI EDHK 091900Z 12004KT 4000 HZ M04/M08 Q1029 GRN FCST CANCEL;
0086100465999992006010919204+54367+010133FM-15+0032EDHK V0201301N002612200019N0040001N1-00401-00801999999ADDMA1102911999999MW1051REMMET053METAR EDHK 091920Z 13005KT 4000 HZ M04/M08 Q1029 GRN;
0086100465999992006010920204+54367+010133FM-15+0032EDHK V0201701N004112200019N0050001N1-00301-00801999999ADDMA1102811999999MW1051REMMET053METAR EDHK 092020Z 17008KT 5000 HZ M03/M08 Q1028 WHT;
0080100465999992006010921204+54367+010133FM-15+0032EDHK V0201801N002612200019N0050001N1-00401-00801999999ADDMA1102811999999MW1051REMMET047EDHK 092120Z 18005KT 5000 HZ M04/M08 Q1028 WHT;
0080100465999992006010922204+54367+010133FM-15+0032EDHK V0201401N003612200019N0050001N1-00501-00801999999ADDMA1102811999999MW1051REMMET047EDHK 092220Z 14007KT 5000 HZ M05/M08 Q1028 WHT;
0086100465999992006010923204+54367+010133FM-15+0032EDHK V0201901N002612200019N0050001N1-00501-00801999999ADDMA1102711999999MW1051REMMET053METAR EDHK 092320Z 19005KT 5000 HZ M05/M08 Q1027 WHT;
0137100465999992006011000204+54367+010133FM-15+0032EDHK V0201601N002612200019N0050001N1-00501-00801999999ADDMA1102711999999MW1101REMMET053METAR EDHK 100020Z 16005KT 5000 BR M05/M08 Q1027 WHT;EQDQ01+000000PRSWM1Q02+000000PRSWM3Q03+000000PRSWM4
0186100465999992006011001204+54367+010133FM-15+0032EDHK V0201701N002612200019N0050001N1-00501-00801999999ADDGA1025+066001999GF102991999999999999999999MA1102711999999MW1101REMMET060METAR EDHK 100120Z 17005KT 5000 BR FEW220 M05/M08 Q1027 WHT;EQDQ01+000000PRSWM1Q02+000000PRSWM3Q03+000000PRSWM4
0186100465999992006011002204+54367+010133FM-15+0032EDHK V0201801N003112200019N0040001N1-00501-00701999999ADDGA1025+066001999GF102991999999999999999999MA1102611999999MW1101REMMET060METAR EDHK 100220Z 18006KT 4000 BR FEW220 M05/M07 Q1026 GRN;EQDQ01+000000PRSWM1Q02+000000PRSWM3Q03+000000PRSWM4
0186100465999992006011003204+54367+010133FM-15+0032EDHK V0201801N003112200019N0040001N1-00501-00701999999ADDGA1045+072001999GF104991999999999999999999MA1102611999999MW1101REMMET060METAR EDHK 100320Z 18006KT 4000 BR SCT240 M05/M07 Q1026 GRN;EQDQ01+000000PRSWM1Q02+000000PRSWM3Q03+000000PRSWM4
0200100465999992006011004204+54367+010133FM-15+0032EDHK V0202001N004612200019N0040001N1-00501-00601999999ADDGA1045+072001999GF104991999999999999999999MA1102611999999MW1101REMMET074METAR EDHK 100420Z 20009KT 4000 BR SCT240 M05/M06 Q1026 GRN GRN TEMPO YLO;EQDQ01+000000PRSWM1Q02+000000PRSWM3Q03+000000PRSWM4
0200100465999992006011005204+54367+010133FM-15+0032EDHK V0201901N003612200019N0040001N1-00401-00601999999ADDGA1045+072001999GF104991999999999999999999MA1102511999999MW1101REMMET074METAR EDHK 100520Z 19007KT 4000 BR SCT240 M04/M06 Q1025 GRN GRN TEMPO YLO;EQDQ01+000000PRSWM1Q02+000000PRSWM3Q03+000000PRSWM4
0184100465999992006011006204+54367+010133FM-15+0032EDHK V0202001N003612200019N0035001N1-00401-00601999999ADDGA1045+001501999GF104991999999999999999999MA1102511999999MW1101REMMET058EDHK 100620Z 20007KT 3500 BR SCT005 M04/M06 Q1025 YLO YLO;EQDQ01+000000PRSWM1Q02+000000PRSWM3Q03+000000PRSWM4
0184100465999992006011006304+54367+010133FM-15+0032EDHK V0202001N00411001501CN0035001N1-00401-00501999999ADDGA1075+001501999GF107991999999999999999999MA1102511999999MW1101REMMET058EDHK 100630Z 20008KT 3500 BR BKN005 M04/M05 Q1025 YLO YLO;EQDQ01+000000PRSWM1Q02+000000PRSWM3Q03+000000PRSWM4
0194100465999992006011007204+54367+010133FM-15+0032EDHK V0202001N00361000601CN0030001N1-00301-00501999999ADDGA1075+000601999GF107991999999999999999999MA1102511999999MW1101REMMET068EDHK 100720Z 20007KT 3000 BR BKN002 M03/M05 Q1025 AMB YLO TEMPO AMB;EQDQ01+000000PRSWM1Q02+000000PRSWM3Q03+000000PRSWM4
0215100465999992006011008204+54367+010133FM-15+0032EDHK V0202001N00361000601CN0015001N1-00301-00401999999ADDED126U10009GA1085+000601999GF108991999999999999999999MA1102511999999MW1101REMMET078EDHK 100820Z 20007KT 1500 R26/1000D BR OVC002 M03/M04 Q1025 AMB YLO TEMPO RED;EQDQ01+000000PRSWM1Q02+000000PRSWM3Q03+000000PRSWM4
0171100465999992006011009034+54367+010133FM-16+0032EDHK V0202001N004110003019N0007001N1-00201-00301999999ADDED126U08009GA1091+000301999GF109991999999000251999999MA1102511999999MW1491REMMET085SPECI EDHK 100903Z 20008KT 0700 R26/0800N FZFG VV001 M02/M03 Q1025 RED YLO TEMPO RED;
0222100465999992006011009204+54367+010133FM-15+0032EDHK V0202101N004110003019N0003001N1-00201-00301999999ADDED126U05009GA1091+000301999GF109991999999000251999999MA1102511999999MW1491REMMET085METAR EDHK 100920Z 21008KT 0300 R26/0500N FZFG VV001 M02/M03 Q1025 RED YLO TEMPO RED;EQDQ01+000000PRSWM1Q02+000000PRSWM3Q03+000000PRSWM4
0216100465999992006011010204+54367+010133FM-15+0032EDHK V0202101N004610003019N0003001N1-00101-00201999999ADDED126U06009GA1091+000301999GF109991999999000251999999MA1102611999999MW1491REMMET079EDHK 101020Z 21009KT 0300 R26/0600N FZFG VV001 M01/M02 Q1026 RED YLO TEMPO RED;EQDQ01+000000PRSWM1Q02+000000PRSWM3Q03+000000PRSWM4
0205100465999992006011011204+54367+010133FM-15+0032EDHK V0202001N004110003019N0007001N1-00101-00201999999ADDGA1091+000301999GF109991999999000251999999MA1102611999999MW1491REMMET079EDHK 101120Z 20008KT 0700 R26////// FZFG VV001 M01/M02 Q1026 RED YLO TEMPO RED;EQDQ01+000000PRSWM1Q02+000000PRSWM3Q03+000000PRSWM4
0165100465999992006011011324+54367+010133FM-16+0032EDHK V0202101N003610006019N0009001N1-00101-00201999999ADDED126U02509GA1091+000601999GF109991999999000251999999MA1102511999999MW1491REMMET079EDHK 101132Z 21007KT 0900 R26/0250N FZFG VV002 M01/M02 Q1025 AMB YLO TEMPO RED;
0199100465999992006011014204+54367+010133FM-15+0032EDHK V0202201N00511002101CN0025001N1+00101-00101999999ADDGA1075+002101999GF107991999999999999999999MA1102511999999MW1101REMMET073METAR EDHK 101420Z 22010KT 2500 BR BKN007 01/M01 Q1025 YLO YLO TEMPO AMB;EQDQ01+000000PRSWM1Q02+000000PRSWM3Q03+000000PRSWM4
0142100465999992006011014344+54367+010133FM-16+0032EDHK V0202201N00511001801CN0025001N1+00101-00101999999ADDGA1075+001801999GF107991999999999999999999MA1102511999999MW1101REMMET067EDHK 101434Z 22010KT 2500 BR BKN006 01/M01 Q1025 YLO YLO TEMPO AMB;
0199100465999992006011015204+54367+010133FM-15+0032EDHK V0202001N00411001201CN0020001N1+00101-00101999999ADDGA1075+001201999GF107991999999999999999999MA1102401999999MW1101REMMET073METAR EDHK 101520Z 20008KT 2000 BR BKN004 01/M01 Q1024 YLO YLO TEMPO AMB;EQDQ01+000000PRSWM1Q02+000000PRSWM3Q03+000000PRSWM4
0189100465999992006011016204+54367+010133FM-15+0032EDHK V0202001N00411002101CN0022001N1+00201+00001999999ADDGA1075+002101999GF107991999999999999999999MA1102401999999MW1101REMMET063METAR EDHK 101620Z 20008KT 2200 BR BKN007 02/M00 Q1024 YLO YLO;EQDQ01+000000PRSWM1Q02+000000PRSWM3Q03+000000PRSWM4
0194100465999992006011016454+54367+010133FM-15+0032EDHK V0202001N00511001501CN0025001N1+00201+00001999999ADDGA1075+001501999GF107991999999999999999999MA1102401999999MW1101OC101031REMMET060EDHK 101645Z 20010G20KT 2500 BR BKN005 02/M00 Q1024 YLO YLO;EQDQ01+000000PRSWM1Q02+000000PRSWM3Q03+000000PRSWM4
0188100465999992006011017204+54367+010133FM-15+0032EDHK V0202001N00461001501CN0030001N1+00201+00001999999ADDGA1075+001501999GF107991999999999999999999MA1102401999999MW1101REMMET062METAR EDHK 101720Z 20009KT 3000 BR BKN005 02/00 Q1024 YLO YLO;EQDQ01+000000PRSWM1Q02+000000PRSWM3Q03+000000PRSWM4
0184100465999992006011020204+54367+010133FM-15+0032EDHK V0202001N005712200019N0050001N1+00301+00001999999ADDGA1045+072001999GF104991999999999999999999MA1102201999999MW1101REMMET058METAR EDHK 102020Z 20011KT 5000 BR SCT240 03/00 Q1022 WHT;EQDQ01+000000PRSWM1Q02+000000PRSWM3Q03+000000PRSWM4
0185100465999992006011022204+54367+010133FM-15+0032EDHK V0202001N00571072001CN0050001N1+00301+00001999999ADDGA1075+072001999GF107991999999999999999999MA1102201999999MW1101REMMET059METAR EDHK 102220Z 20011KT 5000 BR BKN240 03/M00 Q1022 WHT;EQDQ01+000000PRSWM1Q02+000000PRSWM3Q03+000000PRSWM4
0215100465999992006011023204+54367+010133FM-15+0032EDHK V0202001N00571072001CN0060001N1+00301+00001999999ADDGA1025+030001999GA2075+072001999GF107991999999999999999999MA1102201999999REMMET063METAR EDHK 102320Z 20011KT 6000 FEW100 BKN240 03/M00 Q1022 WHT;EQDQ01+000000PRSWM1Q02+000000PRSWM2Q03+000000PRSWM3Q04+000000PRSWM4
0231100465999992006011100204+54367+010133FM-15+0032EDHK V0202101N00511999999CN0060001N1+00301-00101999999ADDGA1025+030001999GA2045+072001999GF104991999999999999999999MA1102101999999REMMET063METAR EDHK 110020Z 21010KT 6000 FEW100 SCT240 03/M01 Q1021 WHT;EQDQ01+000000PRSWM1Q02+000000PRSWM2Q03+000000PRSWM3Q04+000000PRSWM4P01 072003SCOCIG
0225100465999992006011101204+54367+010133FM-15+0032EDHK V0202001N00511999999CN0070001N1+00301-00101999999ADDGA1025+030001999GA2045+072001999GF104991999999999999999999MA1102101999999REMMET057EDHK 110120Z 20010KT 7000 FEW100 SCT240 03/M01 Q1021 WHT;EQDQ01+000000PRSWM1Q02+000000PRSWM2Q03+000000PRSWM3Q04+000000PRSWM4P01 072003SCOCIG
0192100465999992006011102204+54367+010133FM-15+0032EDHK V0202101N00511072001CN0070001N1+00301-00101999999ADDGA1075+072001999GF107991999999999999999999MA1102001999999REMMET056METAR EDHK 110220Z 21010KT 7000 BKN240 03/M01 Q1020 WHT;EQDQ01+000000PRSWM1Q02+000000PRSWM2Q03+000000PRSWM3Q04+000000PRSWM4
0215100465999992006011103204+54367+010133FM-15+0032EDHK V0202001N00511072001CN0070001N1+00301-00101999999ADDGA1025+030001999GA2075+072001999GF107991999999999999999999MA1102001999999REMMET063METAR EDHK 110320Z 20010KT 7000 FEW100 BKN240 03/M01 Q1020 WHT;EQDQ01+000000PRSWM1Q02+000000PRSWM2Q03+000000PRSWM3Q04+000000PRSWM4
0203100465999992006011104204+54367+010133FM-15+0032EDHK V0202001N006210720059N0070001N1+00301-00101999999ADDGA1045+030005999GA2075+072005999MA1102001999999REMMET077METAR EDHK 110420Z 20012KT 7000 SCT100 BKN240 03/M01 Q1020 WHT WHT TEMPO GRN;EQDQ01+000000PRSWM1Q02+000000PRSWM2Q03+000000PRSWM3Q04+000000PRSWM4
0206100465999992006011105204+54367+010133FM-15+0032EDHK V0202001N00621030001CN0060001N1+00301-00101999999ADDGA1075+030001999GF107991999999999999999999MA1101901999999REMMET070METAR EDHK 110520Z 20012KT 6000 BKN100 03/M01 Q1019 WHT WHT TEMPO GRN;EQDQ01+000000PRSWM1Q02+000000PRSWM2Q03+000000PRSWM3Q04+000000PRSWM4
0203100465999992006011106204+54367+010133FM-15+0032EDHK V0202101N005110720059N0070001N1+00301-00201999999ADDGA1045+030005999GA2075+072005999MA1101901999999REMMET077METAR EDHK 110620Z 21010KT 7000 SCT100 BKN240 03/M02 Q1019 WHT WHT TEMPO GRN;EQDQ01+000000PRSWM1Q02+000000PRSWM2Q03+000000PRSWM3Q04+000000PRSWM4
0252100465999992006011107204+54367+010133FM-15+0032EDHK V0202001N00621030001CN0060001N1+00201-00201999999ADDGA1025+009001999GA2045+030001999GA3075+072001999GF107991999999999999999999MA1101801999999REMMET084METAR EDHK 110720Z 20012KT 6000 FEW030 SCT100 BKN240 02/M02 Q1018 WHT WHT TEMPO GRN;EQDQ01+000000PRSWM1Q02+000000PRSWM2Q03+000000PRSWM3Q04+000000PRSWM4
0193100465999992006011108204+54367+010133FM-15+0032EDHK V0202001N005110300059N0070001N1+00301-00201999999ADDGA1045+011405999GA2075+030005999MA1101801999999REMMET067METAR EDHK 110820Z 20010KT 7000 SCT038 BKN100 03/M02 Q1018 WHT WHT;EQDQ01+000000PRSWM1Q02+000000PRSWM2Q03+000000PRSWM3Q04+000000PRSWM4
0197100465999992006011109204+54367+010133FM-15+0032EDHK V0202101N006210300059N0070001N1+00301-00201999999ADDGA1045+008705999GA2075+030005999MA1101801999999REMMET071EDHK 110920Z 21012KT 7000 SCT029 BKN100 03/M02 Q1018 WHT WHT BECMG GRN;EQDQ01+000000PRSWM1Q02+000000PRSWM2Q03+000000PRSWM3Q04+000000PRSWM4
0200100465999992006011110204+54367+010133FM-15+0032EDHK V0202101N00621004801CN0070001N1+00301-00201999999ADDGA1075+004801999GF107991999999999999999999MA1101801999999REMMET064EDHK 111020Z 21012KT 7000 BKN016 03/M02 Q1018 WHT WHT BECMG GRN;EQDQ01+000000PRSWM1Q02+000000PRSWM2Q03+000000PRSWM3Q04+000000PRSWM4
0206100465999992006011111204+54367+010133FM-15+0032EDHK V0202101N00571005101CN0070001N1+00401-00101999999ADDGA1075+005101999GF107991999999999999999999MA1101801999999REMMET070METAR EDHK 111120Z 21011KT 7000 BKN017 04/M01 Q1018 WHT GRN TEMPO WHT;EQDQ01+000000PRSWM1Q02+000000PRSWM2Q03+000000PRSWM3Q04+000000PRSWM4
0194100465999992006011112204+54367+010133FM-15+0032EDHK V0202101N00571003901CN0070001N1+00301-00101999999ADDGA1075+003901999GF107991999999999999999999MA1101801999999MW1611REMMET068EDHK 111220Z 21011KT 7000 -RA BKN013 03/M01 Q1018 GRN GRN TEMPO WHT;EQDQ01+000000PRSWM1Q02+000000PRSWM3Q03+000000PRSWM4
0178100465999992006011113204+54367+010133FM-15+0032EDHK V0202101N00571002701CN0045001N1+00301+00001999999ADDGA1075+002701999GF107991999999999999999999MA1101691999999MW1101MW2511MW3611REMMET072EDHK 111320Z 21011KT 4500 -RADZ BR BKN009 03/00 Q1017 GRN GRN TEMPO WHT;EQDQ01+000000PRSWM1
0205100465999992006011114204+54367+010133FM-15+0032EDHK V0202101N00571001801CN0035001N1+00301+00101999999ADDED126U19009GA1075+001801999GF107991999999999999999999MA1101691999999MW1101MW2511MW3611REMMET088METAR EDHK 111420Z 21011KT 3500 R26/1900D -RADZ BR BKN006 03/01 Q1017 YLO GRN TEMPO YLO;EQDQ01+000000PRSWM1
0199100465999992006011114304+54367+010133FM-15+0032EDHK V0202101N00571001501CN0028001N1+00301+00101999999ADDED126U17009GA1075+001501999GF107991999999999999999999MA1101691999999MW1101MW2511MW3611REMMET082EDHK 111430Z 21011KT 2800 R26/1700N -RADZ BR BKN005 03/01 Q1017 YLO GRN TEMPO YLO;EQDQ01+000000PRSWM1
0184100465999992006011115204+54367+010133FM-15+0032EDHK V0202201N00621001501CN0030001N1+00301+00101999999ADDGA1075+001501999GF107991999999999999999999MA1101691999999MW1101MW2511MW3611REMMET078METAR EDHK 111520Z 22012KT 3000 -RADZ BR BKN005 03/01 Q1017 YLO GRN TEMPO YLO;EQDQ01+000000PRSWM1
0192100465999992006011117204+54367+010133FM-15+0032EDHK V0202301N00571001201CN0040001N1+00401+00201999999ADDGA1075+001201999GF107991999999999999999999MA1101801999999MW1101REMMET066EDHK 111720Z 23011KT 4000 BR BKN004 04/02 Q1018 YLO GRN TEMPO YLO;EQDQ01+000000PRSWM1Q02+000000PRSWM3Q03+000000PRSWM4
0198100465999992006011118204+54367+010133FM-15+0032EDHK V0202301N00511001201CN0040001N1+00401+00301999999ADDGA1085+001201999GF108991999999999999999999MA1101901999999MW1101REMMET072METAR EDHK 111820Z 23010KT 4000 BR OVC004 04/03 Q1019 YLO GRN TEMPO YLO;EQDQ01+000000PRSWM1Q02+000000PRSWM3Q03+000000PRSWM4
0196100465999992006011119004+54367+010133FM-15+0032EDHK V0202301N00511000901CN0040001N1+00401+00301999999ADDGA1075+000901999GF107991999999999999999999MA1102001999999MW1101REMMET070SPECI EDHK 111900Z 23010KT 4000 BR BKN003 04/03 Q1020 YLO FCST CANCEL;EQDQ01+000000PRSWM1Q02+000000PRSWM3Q03+000000PRSWM4
0178100465999992006011119204+54367+010133FM-15+0032EDHK V0202201N00411000901CN0035001N1+00401+00301999999ADDGA1075+000901999GF107991999999999999999999MA1102101999999MW1101REMMET052EDHK 111920Z 22008KT 3500 BR BKN003 04/03 Q1021 YLO;EQDQ01+000000PRSWM1Q02+000000PRSWM3Q03+000000PRSWM4
0178100465999992006011120204+54367+010133FM-15+0032EDHK V0202201N00461001201CN0045001N1+00501+00301999999ADDGA1075+001201999GF107991999999999999999999MA1102201999999MW1101REMMET052EDHK 112020Z 22009KT 4500 BR BKN004 05/03 Q1022 YLO;EQDQ01+000000PRSWM1Q02+000000PRSWM3Q03+000000PRSWM4
0207100465999992006011121204+54367+010133FM-15+0032EDHK V0202301N00461001501CN0050001N1+00501+00301999999ADDGA1075+001501999GA2075+012001999GF107991999999999999999999MA1102301999999MW1101REMMET065METAR EDHK 112120Z 23009KT 5000 BR BKN005 BKN040 05/03 Q1023 YLO;EQDQ01+000000PRSWM1Q02+000000PRSWM3Q03+000000PRSWM4
0164100465999992006011121444+54367+010133FM-16+0032EDHK V0202301N00411006601CN0060001N1+00501+00301999999ADDGA1025+001801999GA2045+006601999GA3075+012001999GF107991999999999999999999MA1102301999999REMMET063EDHK 112144Z 23008KT 6000 FEW006 SCT022 BKN040 05/03 Q1023 WHT;
0224100465999992006011122204+54367+010133FM-15+0032EDHK V0202301N00411999999CN0060001N1+00401+00201999999ADDGA1025+006001999GA2045+072001999GF104991999999999999999999MA1102401999999REMMET056EDHK 112220Z 23008KT 6000 FEW020 SCT240 04/02 Q1024 WHT;EQDQ01+000000PRSWM1Q02+000000PRSWM2Q03+000000PRSWM3Q04+000000PRSWM4P01 072003SCOCIG
0224100465999992006011123204+54367+010133FM-15+0032EDHK V0202401N00361999999CN0060001N1+00301+00201999999ADDGA1025+001201999GA2045+069001999GF104991999999999999999999MA1102511999999REMMET056EDHK 112320Z 24007KT 6000 FEW004 SCT230 03/02 Q1025 WHT;EQDQ01+000000PRSWM1Q02+000000PRSWM2Q03+000000PRSWM3Q04+000000PRSWM4P01 069003SCOCIG
0201100465999992006011200204+54367+010133FM-15+0032EDHK V0202501N00411000901CN0045001N1+00301+00201999999ADDGA1075+000901999GA2075+069001999GF107991999999999999999999MA1102611999999MW1101REMMET059EDHK 120020Z 25008KT 4500 BR BKN003 BKN230 03/02 Q1026 YLO;EQDQ01+000000PRSWM1Q02+000000PRSWM3Q03+000000PRSWM4
0184100465999992006011201204+54367+010133FM-15+0032EDHK V0202401N00361000601CN0040001N1+00301+00201999999ADDGA1075+000601999GF107991999999999999999999MA1102711999999MW1101REMMET058METAR EDHK 120120Z 24007KT 4000 BR BKN002 03/02 Q1027 AMB;EQDQ01+000000PRSWM1Q02+000000PRSWM3Q03+000000PRSWM4
0127100465999992006011201524+54367+010133FM-16+0032EDHK V0202401N00361000301CN0020001N1+00301+00201999999ADDGA1075+000301999GF107991999999999999999999MA1102711999999MW1101REMMET052EDHK 120152Z 24007KT 2000 BR BKN001 03/02 Q1027 RED;
0183100465999992006011202204+54367+010133FM-15+0032EDHK V0202401N003610001519N0007001N1+00301+00201999999ADDGA1091+000151999GF109991999999000251999999MA1102711999999MW1451REMMET057METAR EDHK 120220Z 24007KT 0700 FG VV000 03/02 Q1027 RED;EQDQ01+000000PRSWM1Q02+000000PRSWM3Q03+000000PRSWM4
0126100465999992006011202374+54367+010133FM-16+0032EDHK V0202401N003610001519N0003001N1+00301+00201999999ADDGA1091+000151999GF109991999999000251999999MA1102711999999MW1451REMMET051EDHK 120237Z 24007KT 0300 FG VV000 03/02 Q1027 RED;
0177100465999992006011203204+54367+010133FM-15+0032EDHK V0202301N003610001519N0002001N1+00301+00201999999ADDGA1091+000151999GF109991999999000251999999MA1102811999999MW1451REMMET051EDHK 120320Z 23007KT 0200 FG VV000 03/02 Q1028 RED;EQDQ01+000000PRSWM1Q02+000000PRSWM3Q03+000000PRSWM4
0181100465999992006011204204+54367+010133FM-15+0032EDHK V0202401N002610001519N0001001N1+00301+00201999999ADDGA1091+000151999GF109991999999000251999999MA1102911999999MW1451REMMET055EDHK 120420Z 24005KT 0100 FG VV000 03/02 Q1029 RED RED;EQDQ01+000000PRSWM1Q02+000000PRSWM3Q03+000000PRSWM4
0208100465999992006011205204+54367+010133FM-15+0032EDHK V0202201N003110001519N0001001N1+00301+00201999999ADDED126U03009GA1091+000151999GF109991999999000251999999MA1103011999999MW1451REMMET071METAR EDHK 120520Z 22006KT 0100 R26/0300N FG VV000 03/02 Q1030 RED RED;EQDQ01+000000PRSWM1Q02+000000PRSWM3Q03+000000PRSWM4
0202100465999992006011205504+54367+010133FM-15+0032EDHK V0202201N002610001519N0004001N1+00301+00201999999ADDED126U03009GA1091+000151999GF109991999999000251999999MA1103011999999MW1451REMMET065EDHK 120550Z 22005KT 0400 R26/0300N FG VV000 03/02 Q1030 RED RED;EQDQ01+000000PRSWM1Q02+000000PRSWM3Q03+000000PRSWM4
0202100465999992006011206204+54367+010133FM-15+0032EDHK V0202201N002610001519N0004001N1+00301+00201999999ADDED126U03509GA1091+000151999GF109991999999000251999999MA1103011999999MW1451REMMET065EDHK 120620Z 22005KT 0400 R26/0350N FG VV000 03/02 Q1030 RED RED;EQDQ01+000000PRSWM1Q02+000000PRSWM3Q03+000000PRSWM4
0208100465999992006011207204+54367+010133FM-15+0032EDHK V0202201N003110001519N0003001N1+00201+00101999999ADDED126U02509GA1091+000151999GF109991999999000251999999MA1103121999999MW1451REMMET071METAR EDHK 120720Z 22006KT 0300 R26/0250N FG VV000 02/01 Q1031 RED RED;EQDQ01+000000PRSWM1Q02+000000PRSWM3Q03+000000PRSWM4
0208100465999992006011208204+54367+010133FM-15+0032EDHK V0202101N003110001519N0002001N1+00201+00101999999ADDED126U02009GA1091+000151999GF109991999999000251999999MA1103181999999MW1451REMMET071METAR EDHK 120820Z 21006KT 0200 R26/0200N FG VV000 02/01 Q1032 RED RED;EQDQ01+000000PRSWM1Q02+000000PRSWM3Q03+000000PRSWM4
0202100465999992006011209204+54367+010133FM-15+0032EDHK V0202201N003110001519N0002001N1+00101+00101999999ADDED126U01509GA1091+000151999GF109991999999000251999999MA1103181999999MW1451REMMET065EDHK 120920Z 22006KT 0200 R26/0150N FG VV000 01/01 Q1032 RED RED;EQDQ01+000000PRSWM1Q02+000000PRSWM3Q03+000000PRSWM4
0209100465999992006011210204+54367+010133FM-15+0032EDHK V0202001N003110001519N0003001N1+00101+00001999999ADDED126U01509GA1091+000151999GF109991999999000251999999MA1103181999999MW1451REMMET072METAR EDHK 121020Z 20006KT 0300 R26/0150N FG VV000 01/M00 Q1032 RED RED;EQDQ01+000000PRSWM1Q02+000000PRSWM3Q03+000000PRSWM4
0212100465999992006011211204+54367+010133FM-15+0032EDHK V0202101N003610001519N0003001N1+00101+00001999999ADDED126U02009GA1091+000151999GF109991999999000251999999MA1103291999999MW1451REMMET075EDHK 121120Z 21007KT 0300 R26/0200N FG VV000 01/00 Q1033 RED RED TEMPO AMB;EQDQ01+000000PRSWM1Q02+000000PRSWM3Q03+000000PRSWM4
0218100465999992006011212204+54367+010133FM-15+0032EDHK V0202201N003610003019N0003001N1+00201+00101999999ADDED126U03009GA1091+000301999GF109991999999000251999999MA1103291999999MW1451REMMET081METAR EDHK 121220Z 22007KT 0300 R26/0300N FG VV001 02/01 Q1033 RED RED TEMPO YLO;EQDQ01+000000PRSWM1Q02+000000PRSWM3Q03+000000PRSWM4
0218100465999992006011213204+54367+010133FM-15+0032EDHK V0202201N003110003019N0003001N1+00201+00101999999ADDED126U03009GA1091+000301999GF109991999999000251999999MA1103291999999MW1451REMMET081METAR EDHK 121320Z 22006KT 0300 R26/0300N FG VV001 02/01 Q1033 RED RED TEMPO YLO;EQDQ01+000000PRSWM1Q02+000000PRSWM3Q03+000000PRSWM4
0218100465999992006011214204+54367+010133FM-15+0032EDHK V0202001N003610003019N0005001N1+00201+00101999999ADDED126U03509GA1091+000301999GF109991999999000251999999MA1103291999999MW1451REMMET081METAR EDHK 121420Z 20007KT 0500 R26/0350N FG VV001 02/01 Q1033 RED RED TEMPO YLO;EQDQ01+000000PRSWM1Q02+000000PRSWM3Q03+000000PRSWM4
0202100465999992006011215204+54367+010133FM-15+0032EDHK V0201901N003610003019N0005001N1+00201+00101999999ADDED126U03509GA1091+000301999GF109991999999000251999999MA1103291999999MW1451REMMET065EDHK 121520Z 19007KT 0500 R26/0350N FG VV001 02/01 Q1033 RED RED;EQDQ01+000000PRSWM1Q02+000000PRSWM3Q03+000000PRSWM4
0202100465999992006011216204+54367+010133FM-15+0032EDHK V0202001N003110003019N0005001N1+00201+00101999999ADDED126U03509GA1091+000301999GF109991999999000251999999MA1103391999999MW1451REMMET065EDHK 121620Z 20006KT 0500 R26/0350N FG VV001 02/01 Q1034 RED RED;EQDQ01+000000PRSWM1Q02+000000PRSWM3Q03+000000PRSWM4
0202100465999992006011217204+54367+010133FM-15+0032EDHK V0202001N003610003019N0009001N1+00201+00101999999ADDED126U05009GA1091+000301999GF109991999999000251999999MA1103391999999MW1451REMMET065EDHK 121720Z 20007KT 0900 R26/0500N FG VV001 02/01 Q1034 RED RED;EQDQ01+000000PRSWM1Q02+000000PRSWM3Q03+000000PRSWM4
0208100465999992006011218204+54367+010133FM-15+0032EDHK V0202001N003110003019N0009001N1+00201+00101999999ADDED126U05009GA1091+000301999GF109991999999000251999999MA1103391999999MW1451REMMET071METAR EDHK 121820Z 20006KT 0900 R26/0500N FG VV001 02/01 Q1034 RED RED;EQDQ01+000000PRSWM1Q02+000000PRSWM3Q03+000000PRSWM4
0216100465999992006011219004+54367+010133FM-15+0032EDHK V0201901N003610003019N0009001N1+00201+00101999999ADDED126U05009GA1091+000301999GF109991999999000251999999MA1103491999999MW1451REMMET079SPECI EDHK 121900Z 19007KT 0900 R26/0500N FG VV001 02/01 Q1035 RED FCST CANCEL;EQDQ01+000000PRSWM1Q02+000000PRSWM3Q03+000000PRSWM4
0198100465999992006011219204+54367+010133FM-15+0032EDHK V0202001N003610003019N0008001N1+00101+00001999999ADDED126U04509GA1091+000301999GF109991999999000251999999MA1103491999999MW1451REMMET061EDHK 121920Z 20007KT 0800 R26/0450N FG VV001 01/00 Q1035 RED;EQDQ01+000000PRSWM1Q02+000000PRSWM3Q03+000000PRSWM4
0177100465999992006011220204+54367+010133FM-15+0032EDHK V0201901N004110003019N0008001N1+00101+00001999999ADDGA1091+000301999GF109991999999000251999999MA1103491999999MW1451REMMET051EDHK 122020Z 19008KT 0800 FG VV001 01/00 Q1035 RED;EQDQ01+000000PRSWM1Q02+000000PRSWM3Q03+000000PRSWM4
0184100465999992006011221204+54367+010133FM-15+0032EDHK V0202001N00461000601CN0020001N1+00101+00001999999ADDGA1085+000601999GF108991999999999999999999MA1103491999999MW1101REMMET058METAR EDHK 122120Z 20009KT 2000 BR OVC002 01/00 Q1035 AMB;EQDQ01+000000PRSWM1Q02+000000PRSWM3Q03+000000PRSWM4
0184100465999992006011222204+54367+010133FM-15+0032EDHK V0202001N00311001201CN0030001N1+00101+00001999999ADDGA1085+001201999GF108991999999999999999999MA1103491999999MW1101REMMET058METAR EDHK 122220Z 20006KT 3000 BR OVC004 01/00 Q1035 YLO;EQDQ01+000000PRSWM1Q02+000000PRSWM3Q03+000000PRSWM4
0184100465999992006011223204+54367+010133FM-15+0032EDHK V0201901N00261001501CN0030001N1+00101+00001999999ADDGA1085+001501999GF108991999999999999999999MA1103491999999MW1101REMMET058METAR EDHK 122320Z 19005KT 3000 BR OVC005 01/00 Q1035 YLO;EQDQ01+000000PRSWM1Q02+000000PRSWM3Q03+000000PRSWM4
0179100465999992006011300204+54367+010133FM-15+0032EDHK V0201601N00261001501CN0035001N1+00101-00101999999ADDGA1075+001501999GF107991999999999999999999MA1103491999999MW1101REMMET053EDHK 130020Z 16005KT 3500 BR BKN005 01/M01 Q1035 YLO;EQDQ01+000000PRSWM1Q02+000000PRSWM3Q03+000000PRSWM4
0185100465999992006011301204+54367+010133FM-15+0032EDHK V0201501N003112200019N0035001N1+00001-00101999999ADDGA1045+001201999GF104991999999999999999999MA1103491999999MW1101REMMET059METAR EDHK 130120Z 15006KT 3500 BR SCT004 00/M01 Q1035 YLO;EQDQ01+000000PRSWM1Q02+000000PRSWM3Q03+000000PRSWM4
0185100465999992006011302204+54367+010133FM-15+0032EDHK V0201501N002112200019N0035001N1+00001-00201999999ADDGA1025+001201999GF102991999999999999999999MA1103491999999MW1101REMMET059METAR EDHK 130220Z 15004KT 3500 BR FEW004 00/M02 Q1035 YLO;EQDQ01+000000PRSWM1Q02+000000PRSWM3Q03+000000PRSWM4
0180100465999992006011303204+54367+010133FM-15+0032EDHK V0201601N002612200019N0035001N1+00001-00201999999ADDGA1025+001201999GF102991999999999999999999MA1103491999999MW1101REMMET054EDHK 130320Z 16005KT 3500 BR FEW004 M00/M02 Q1035 YLO;EQDQ01+000000PRSWM1Q02+000000PRSWM3Q03+000000PRSWM4
0200100465999992006011304204+54367+010133FM-15+0032EDHK V0201701N002612200019N0035001N1+00001-00201999999ADDGA1025+001201999GF102991999999999999999999MA1103391999999MW1101REMMET074METAR EDHK 130420Z 17005KT 3500 BR FEW004 M00/M02 Q1034 YLO YLO TEMPO AMB;EQDQ01+000000PRSWM1Q02+000000PRSWM3Q03+000000PRSWM4
0194100465999992006011305204+54367+010133FM-15+0032EDHK V0201601N003112200019N0035001N1-00101-00201999999ADDGA1025+001501999GF102991999999999999999999MA1103391999999MW1101REMMET068EDHK 130520Z 16006KT 3500 BR FEW005 M01/M02 Q1034 YLO YLO TEMPO AMB;EQDQ01+000000PRSWM1Q02+000000PRSWM3Q03+000000PRSWM4
0233100465999992006011306204+54367+010133FM-15+0032EDHK V0201601N00261999999CN0035001N1-00101-00201999999ADDGA1025+001501999GA2045+072001999GF104991999999999999999999MA1103391999999MW1101REMMET075EDHK 130620Z 16005KT 3500 BR FEW005 SCT240 M01/M02 Q1034 YLO YLO TEMPO AMB;EQDQ01+000000PRSWM1Q02+000000PRSWM3Q03+000000PRSWM4P01 072003SCOCIG
0233100465999992006011307204+54367+010133FM-15+0032EDHK V0201601N00361999999CN0030001N1-00101-00301999999ADDGA1025+001501999GA2045+072001999GF104991999999999999999999MA1103391999999MW1101REMMET075EDHK 130720Z 16007KT 3000 BR FEW005 SCT240 M01/M03 Q1034 YLO YLO TEMPO AMB;EQDQ01+000000PRSWM1Q02+000000PRSWM3Q03+000000PRSWM4P01 072003SCOCIG
0200100465999992006011308204+54367+010133FM-15+0032EDHK V0201601N003612200019N0035001N1-00101-00201999999ADDGA1045+001501999GF104991999999999999999999MA1103291999999MW1101REMMET074METAR EDHK 130820Z 16007KT 3500 BR SCT005 M01/M02 Q1033 YLO YLO TEMPO AMB;EQDQ01+000000PRSWM1Q02+000000PRSWM3Q03+000000PRSWM4
0149100465999992006011308284+54367+010133FM-16+0032EDHK V0201501N00461001501CN0040001N1-00101-00201999999ADDGA1075+001501999GF107991999999999999999999MA1103291999999MW1101REMMET074SPECI EDHK 130828Z 15009KT 4000 BR BKN005 M01/M02 Q1033 YLO YLO TEMPO AMB;
0194100465999992006011309204+54367+010133FM-15+0032EDHK V0201601N00461000901CN0030001N1-00101-00201999999ADDGA1075+000901999GF107991999999999999999999MA1103391999999MW1101REMMET068EDHK 130920Z 16009KT 3000 BR BKN003 M01/M02 Q1034 YLO GRN TEMPO YLO;EQDQ01+000000PRSWM1Q02+000000PRSWM3Q03+000000PRSWM4
0200100465999992006011310204+54367+010133FM-15+0032EDHK V0201601N00461001501CN0045001N1-00101-00201999999ADDGA1075+001501999GF107991999999999999999999MA1103391999999MW1101REMMET074METAR EDHK 131020Z 16009KT 4500 BR BKN005 M01/M02 Q1034 YLO GRN TEMPO YLO;EQDQ01+000000PRSWM1Q02+000000PRSWM3Q03+000000PRSWM4
0199100465999992006011311204+54367+010133FM-15+0032EDHK V0201601N00411001501CN0050001N1+00001-00201999999ADDGA1075+001501999GF107991999999999999999999MA1103291999999MW1101REMMET073METAR EDHK 131120Z 16008KT 5000 BR BKN005 00/M02 Q1033 YLO GRN TEMPO YLO;EQDQ01+000000PRSWM1Q02+000000PRSWM3Q03+000000PRSWM4
0193100465999992006011312204+54367+010133FM-15+0032EDHK V0201401N00361001501CN0045001N1+00101-00101999999ADDGA1075+001501999GF107991999999999999999999MA1103291999999MW1101REMMET067EDHK 131220Z 14007KT 4500 BR BKN005 01/M01 Q1033 YLO GRN TEMPO YLO;EQDQ01+000000PRSWM1Q02+000000PRSWM3Q03+000000PRSWM4
0199100465999992006011313204+54367+010133FM-15+0032EDHK V0201601N00411001801CN0050001N1+00101-00101999999ADDGA1075+001801999GF107991999999999999999999MA1103181999999MW1101REMMET073METAR EDHK 131320Z 16008KT 5000 BR BKN006 01/M01 Q1032 YLO GRN TEMPO YLO;EQDQ01+000000PRSWM1Q02+000000PRSWM3Q03+000000PRSWM4
0191100465999992006011314004+54367+010133FM-15+0032EDHK V0201401N00461001501CN0045001N1+00001-00201999999ADDGA1075+001501999GF107991999999999999999999MA1103181999999MW1101REMMET065EDHK 131400Z 14009KT 4500 BR BKN005 00/M02 Q1032 YLO FCST CANCEL;EQDQ01+000000PRSWM1Q02+000000PRSWM3Q03+000000PRSWM4
0179100465999992006011314204+54367+010133FM-15+0032EDHK V0201401N00461001201CN0040001N1+00001-00201999999ADDGA1075+001201999GF107991999999999999999999MA1103181999999MW1101REMMET053EDHK 131420Z 14009KT 4000 BR BKN004 00/M02 Q1032 YLO;EQDQ01+000000PRSWM1Q02+000000PRSWM3Q03+000000PRSWM4
0186100465999992006011315204+54367+010133FM-15+0032EDHK V0201401N00511000901CN0040001N1+00001-00201999999ADDGA1085+000901999GF108991999999999999999999MA1103121999999MW1101REMMET060METAR EDHK 131520Z 14010KT 4000 BR OVC003 M00/M02 Q1031 YLO;EQDQ01+000000PRSWM1Q02+000000PRSWM3Q03+000000PRSWM4
0186100465999992006011316204+54367+010133FM-15+0032EDHK V0201501N00511000901CN0040001N1-00101-00201999999ADDGA1085+000901999GF108991999999999999999999MA1103121999999MW1101REMMET060METAR EDHK 131620Z 15010KT 4000 BR OVC003 M01/M02 Q1031 YLO;EQDQ01+000000PRSWM1Q02+000000PRSWM3Q03+000000PRSWM4
0179100465999992006011317204+54367+010133FM-15+0032EDHK V0201401N00461000901CN0045001N1+00001-00101999999ADDGA1085+000901999GF108991999999999999999999MA1103121999999MW1101REMMET053EDHK 131720Z 14009KT 4500 BR OVC003 00/M01 Q1031 YLO;EQDQ01+000000PRSWM1Q02+000000PRSWM3Q03+000000PRSWM4
0179100465999992006011318204+54367+010133FM-15+0032EDHK V0201601N00511001201CN0045001N1+00001-00101999999ADDGA1085+001201999GF108991999999999999999999MA1103121999999MW1101REMMET053EDHK 131820Z 16010KT 4500 BR OVC004 00/M01 Q1031 YLO;EQDQ01+000000PRSWM1Q02+000000PRSWM3Q03+000000PRSWM4
0185100465999992006011319204+54367+010133FM-15+0032EDHK V0201601N00461002101CN0050001N1+00001-00201999999ADDGA1085+002101999GF108991999999999999999999MA1103121999999MW1101REMMET059METAR EDHK 131920Z 16009KT 5000 BR OVC007 00/M02 Q1031 GRN;EQDQ01+000000PRSWM1Q02+000000PRSWM3Q03+000000PRSWM4
0185100465999992006011320204+54367+010133FM-15+0032EDHK V0201701N00461002101CN0050001N1+00001-00201999999ADDGA1085+002101999GF108991999999999999999999MA1103121999999MW1101REMMET059METAR EDHK 132020Z 17009KT 5000 BR OVC007 00/M02 Q1031 GRN;EQDQ01+000000PRSWM1Q02+000000PRSWM3Q03+000000PRSWM4
0185100465999992006011321204+54367+010133FM-15+0032EDHK V0201701N00511002401CN0050001N1+00101-00201999999ADDGA1085+002401999GF108991999999999999999999MA1103121999999MW1101REMMET059METAR EDHK 132120Z 17010KT 5000 BR OVC008 01/M02 Q1031 GRN;EQDQ01+000000PRSWM1Q02+000000PRSWM3Q03+000000PRSWM4
0192100465999992006011322204+54367+010133FM-15+0032EDHK V0201701N00361003001CN0060001N1+00101-00201999999ADDGA1075+003001999GF107991999999999999999999MA1103011999999REMMET056METAR EDHK 132220Z 17007KT 6000 BKN010 01/M02 Q1030 GRN;EQDQ01+000000PRSWM1Q02+000000PRSWM2Q03+000000PRSWM3Q04+000000PRSWM4
0192100465999992006011323204+54367+010133FM-15+0032EDHK V0201501N00361003001CN0060001N1+00101-00201999999ADDGA1075+003001999GF107991999999999999999999MA1103011999999REMMET056METAR EDHK 132320Z 15007KT 6000 BKN010 01/M02 Q1030 GRN;EQDQ01+000000PRSWM1Q02+000000PRSWM2Q03+000000PRSWM3Q04+000000PRSWM4
0192100465999992006011400204+54367+010133FM-15+0032EDHK V0201601N00411003001CN0060001N1+00101-00201999999ADDGA1075+003001999GF107991999999999999999999MA1103011999999REMMET056METAR EDHK 140020Z 16008KT 6000 BKN010 01/M02 Q1030 GRN;EQDQ01+000000PRSWM1Q02+000000PRSWM2Q03+000000PRSWM3Q04+000000PRSWM4
0179100465999992006011401204+54367+010133FM-15+0032EDHK V0201501N00361002701CN0050001N1+00001-00201999999ADDGA1075+002701999GF107991999999999999999999MA1103011999999MW1101REMMET053EDHK 140120Z 15007KT 5000 BR BKN009 00/M02 Q1030 GRN;EQDQ01+000000PRSWM1Q02+000000PRSWM3Q03+000000PRSWM4
0185100465999992006011402204+54367+010133FM-15+0032EDHK V0201701N00311002701CN0050001N1+00001-00301999999ADDGA1075+002701999GF107991999999999999999999MA1102911999999MW1101REMMET059METAR EDHK 140220Z 17006KT 5000 BR BKN009 00/M03 Q1029 GRN;EQDQ01+000000PRSWM1Q02+000000PRSWM3Q03+000000PRSWM4
0180100465999992006011403204+54367+010133FM-15+0032EDHK V0201601N003112200019N0050001N1-00101-00301999999ADDGA1045+002401999GF104991999999999999999999MA1102911999999MW1101REMMET054EDHK 140320Z 16006KT 5000 BR SCT008 M01/M03 Q1029 WHT;EQDQ01+000000PRSWM1Q02+000000PRSWM3Q03+000000PRSWM4
0219100465999992006011404204+54367+010133FM-15+0032EDHK V0201501N00261999999CN0040001N1-00101-00401999999ADDGA1045+002101999GA2045+006001999GF104991999999999999999999MA1102911999999MW1101REMMET061EDHK 140420Z 15005KT 4000 BR SCT007 SCT020 M01/M04 Q1029 GRN;EQDQ01+000000PRSWM1Q02+000000PRSWM3Q03+000000PRSWM4P01 006003SCOCIG
