0137101260999992006010100204+53550+007667FM-15+0012ETNT V0202101N00511001501CN0025001N1+00401+00301999999ADDGA1075+001501999GF107991999999999999999999MA1099491999999MW1101MW2611REMMET056ETNT 010020Z 21010KT 2500 -RA BR BKN005 04/03 Q0995 YLO;
0187101260999992006010101004+53550+007667FM-12+0012ETNT V0202101N005010012019N0030001N1+00351+00251099581ADDAY121999AY221999GA1071+001201071GF108991071061001501999999MA1999999099431MD1210091+9999MW1211REMSYN082AAXX  01011 10126 41230 82105 10035 20025 39943 49958 52009 72122 876// 333 87704;
0127101260999992006010101204+53550+007667FM-15+0012ETNT V0202101N00511001201CN0032001N1+00301+00301999999ADDGA1075+001201999GF107991999999999999999999MA1099491999999MW1101REMMET052ETNT 010120Z 21010KT 3200 BR BKN004 03/03 Q0995 YLO;
0187101260999992006010102004+53550+007667FM-12+0012ETNT V0202101N005010015019N0035001N1+00361+00261099621ADDAY121999AY221999GA1071+001501071GF108991071061001501999999MA1999999099471MD1210121+9999MW1101REMSYN082AAXX  01021 10126 41235 82105 10036 20026 39947 49962 52012 71022 876// 333 87705;
0127101260999992006010102204+53550+007667FM-15+0012ETNT V0202101N00461001801CN0040001N1+00401+00201999999ADDGA1075+001801999GF107991999999999999999999MA1099591999999MW1101REMMET052ETNT 010220Z 21009KT 4000 BR BKN006 04/02 Q0996 YLO;
0127101260999992006010103204+53550+007667FM-15+0012ETNT V0202101N00411001501CN0040001N1+00401+00301999999ADDGA1075+001501999GF107991999999999999999999MA1099591999999MW1101REMMET052ETNT 010320Z 21008KT 4000 BR BKN005 04/03 Q0996 YLO;
0187101260999992006010104004+53550+007667FM-12+0012ETNT V0202101N005010012019N0040001N1+00361+00241099691ADDAY121999AY221999GA1071+001201071GF108991071061001501999999MA1999999099541MD1210111+9999MW1211REMSYN082AAXX  01041 10126 41240 82105 10036 20024 39954 49969 52011 72122 876// 333 87704;
0127101260999992006010104204+53550+007667FM-15+0012ETNT V0202101N00461001201CN0036001N1+00401+00301999999ADDGA1075+001201999GF107991999999999999999999MA1099701999999MW1101REMMET052ETNT 010420Z 21009KT 3600 BR BKN004 04/03 Q0997 YLO;
0187101260999992006010105004+53550+007667FM-12+0012ETNT V0202101N005010009019N0035001N1+00371+00261099721ADDAY121999AY221999GA1071+000901071GF108991071061001501999999MA1999999099571MD1210101+9999MW1101REMSYN082AAXX  01051 10126 41235 82105 10037 20026 39957 49972 52010 71022 876// 333 87703;
0127101260999992006010105204+53550+007667FM-15+0012ETNT V0202101N00461000901CN0030001N1+00401+00301999999ADDGA1075+000901999GF107991999999999999999999MA1099701999999MW1101REMMET052ETNT 010520Z 21009KT 3000 BR BKN003 04/03 Q0997 YLO;
0137101260999992006010106204+53550+007667FM-15+0012ETNT V0202101N00411000901CN0030001N1+00401+00301999999ADDGA1075+000901999GF107991999999999999999999MA1099801999999MW1101MW2511REMMET056ETNT 010620Z 21008KT 3000 -DZ BR BKN003 04/03 Q0998 YLO;
0187101260999992006010107004+53550+007667FM-12+0012ETNT V0202201N004010012019N0030001N1+00381+00271099861ADDAY151999AY221999GA1071+001201071GF108991071061001501999999MA1999999099711MD1210171+9999MW1201REMSYN082AAXX  01071 10126 41230 82204 10038 20027 39971 49986 52017 72052 876// 333 87704;
0127101260999992006010107204+53550+007667FM-15+0012ETNT V0202201N00411001501CN0025001N1+00401+00301999999ADDGA1075+001501999GF107991999999999999999999MA1099901999999MW1101REMMET052ETNT 010720Z 22008KT 2500 BR BKN005 04/03 Q0999 YLO;
0187101260999992006010108004+53550+007667FM-12+0012ETNT V0202101N005010015019N0025001N1+00391+00281099951ADDAY121999AY221999GA1071+001501071GF108991071061001501999999MA1999999099801MD1210231+9999MW1101REMSYN082AAXX  01081 10126 41225 82105 10039 20028 39980 49995 52023 71022 876// 333 87705;
0127101260999992006010108204+53550+007667FM-15+0012ETNT V0202101N00411001201CN0025001N1+00401+00301999999ADDGA1075+001201999GF107991999999999999999999MA1100001999999MW1101REMMET052ETNT 010820Z 21008KT 2500 BR BKN004 04/03 Q1000 YLO;
0127101260999992006010109204+53550+007667FM-15+0012ETNT V0202101N00361001501CN0035001N1+00401+00301999999ADDGA1075+001501999GF107991999999999999999999MA1100101999999MW1101REMMET052ETNT 010920Z 21007KT 3500 BR BKN005 04/03 Q1001 YLO;
0187101260999992006010110004+53550+007667FM-12+0012ETNT V0202201N004010015019N0035001N1+00431+00311100141ADDAY121999AY221999GA1081+001501071GF108991081061001501999999MA1999999099991MD1210281+9999MW1101REMSYN082AAXX  01101 10126 41235 82204 10043 20031 39999 40014 52028 71022 886// 333 88705;
0127101260999992006010110204+53550+007667FM-15+0012ETNT V0202301N00311001801CN0040001N1+00401+00301999999ADDGA1085+001801999GF108991999999999999999999MA1100101999999MW1101REMMET052ETNT 011020Z 23006KT 4000 BR OVC006 04/03 Q1001 YLO;
0187101260999992006010111004+53550+007667FM-12+0012ETNT V0202301N004010018019N0040001N1+00451+00301100181ADDAY121999AY221999GA1081+001801071GF108991081061002501999999MA1999999100031MD1210231+9999MW1101REMSYN082AAXX  01111 10126 41340 82304 10045 20030 30003 40018 52023 71022 886// 333 88706;
0127101260999992006010111204+53550+007667FM-15+0012ETNT V0202401N00361001801CN0045001N1+00501+00301999999ADDGA1085+001801999GF108991999999999999999999MA1100201999999MW1101REMMET052ETNT 011120Z 24007KT 4500 BR OVC006 05/03 Q1002 YLO;
0127101260999992006010112204+53550+007667FM-15+0012ETNT V0202301N00361001801CN0040001N1+00501+00301999999ADDGA1085+001801999GF108991999999999999999999MA1100201999999MW1101REMMET052ETNT 011220Z 23007KT 4000 BR OVC006 05/03 Q1002 YLO;
0187101260999992006010113004+53550+007667FM-12+0012ETNT V0202401N004010018019N0040001N1+00481+00311100311ADDAY121999AY221999GA1081+001801071GF108991081061002501999999MA1999999100161MD1210171+9999MW1101REMSYN082AAXX  01131 10126 41340 82404 10048 20031 30016 40031 52017 71022 886// 333 88706;
0137101260999992006010113204+53550+007667FM-15+0012ETNT V0202401N00411001501CN0040001N1+00401+00301999999ADDGA1085+001501999GF108991999999999999999999MA1100311999999MW1101MW2611REMMET056ETNT 011320Z 24008KT 4000 -RA BR OVC005 04/03 Q1003 YLO;
0235101260999992006010114004+53550+007667FM-12+0012ETNT V0202301N004010015019N0040001N1+00411+00261100401ADDAY161999AY221999GA1081+001501071GF108991081061001501999999MA1999999100251MD1210221+9999MW1611REMSYN130AAXX  01141 10126 41240 82304 10041 20026 30025 40040 52022 76162 886// 333 88705 555 BOT 10036 20037 30029 40035 999 31/// 4////;
0137101260999992006010114204+53550+007667FM-15+0012ETNT V0202301N00361001501CN0040001N1+00401+00301999999ADDGA1085+001501999GF108991999999999999999999MA1100411999999MW1101MW2611REMMET056ETNT 011420Z 23007KT 4000 -RA BR OVC005 04/03 Q1004 YLO;
0137101260999992006010115204+53550+007667FM-15+0012ETNT V0202301N00311001501CN0040001N1+00401+00301999999ADDGA1085+001501999GF108991999999999999999999MA1100611999999MW1101MW2511REMMET056ETNT 011520Z 23006KT 4000 -DZ BR OVC005 04/03 Q1006 YLO;
0187101260999992006010116004+53550+007667FM-12+0012ETNT V0202401N003010015019N0038001N1+00381+00251100651ADDAY151999AY221999GA1081+001501071GF108991081061001501999999MA1999999100501MD1210341+9999MW1511REMSYN082AAXX  01161 10126 41238 82403 10038 20025 30050 40065 52034 75152 886// 333 88705;
0137101260999992006010116204+53550+007667FM-15+0012ETNT V0202501N00211001501CN0035001N1+00401+00301999999ADDGA1085+001501999GF108991999999999999999999MA1100711999999MW1101MW2511REMMET056ETNT 011620Z 25004KT 3500 -DZ BR OVC005 04/03 Q1007 YLO;
0187101260999992006010117004+53550+007667FM-12+0012ETNT V0202501N003010009019N0030001N1+00361+00251100721ADDAY151999AY221999GA1081+000901071GF108991081061001501999999MA1999999100571MD1210321+9999MW1201REMSYN082AAXX  01171 10126 41230 82503 10036 20025 30057 40072 52032 72052 886// 333 88703;
0137101260999992006010117104+53550+007667FM-16+0012ETNT V0202501N00311000601CN0025001N1+00401+00201999999ADDGA1085+000601999GF108991999999999999999999MA1100711999999MW1101MW2511REMMET056ETNT 011710Z 25006KT 2500 -DZ BR OVC002 04/02 Q1007 AMB;
0127101260999992006010117204+53550+007667FM-15+0012ETNT V0202401N00311000301CN0022001N1+00401+00201999999ADDGA1085+000301999GF108991999999999999999999MA1100811999999MW1101REMMET052ETNT 011720Z 24006KT 2200 BR OVC001 04/02 Q1008 RED;
0147101260999992006010117484+53550+007667FM-16+0012ETNT V0202601N00311000151CN0009001N1+00401+00301999999ADDED126U12009GA1085+000005999GF108991999999999999999999MA1100811999999MW1441REMMET061ETNT 011748Z 26006KT 0900 R26/1200 FG OVC000 04/03 Q1008 RED;
0187101260999992006010119004+53550+007667FM-12+0012ETNT V0202701N004010001519N0006001N1+00321+00231100911ADDAY141999AY241999GA1081+000151071GF108991081061000251999999MA1999999100761MD1310261+9999MW1461REMSYN082AAXX  01191 10126 41006 82704 10032 20023 30076 40091 53026 74644 886// 333 88700;
0148101260999992006010119204+53550+007667FM-15+0012ETNT V0202701N00311000151CN0009001N1+00301+00201999999ADDED126U13009GA1085+000005999GF108991999999999999999999MA1100911999999MW1441REMMET062ETNT 011920Z 27006KT 0900 R26/1300U FG OVC000 03/02 Q1009 RED;
0187101260999992006010120004+53550+007667FM-12+0012ETNT V0202601N003010001519N0009001N1+00281+00201101031ADDAY141999AY241999GA1081+000151071GF108991081061000251999999MA1999999100881MD1310311+9999MW1421REMSYN082AAXX  01201 10126 41009 82603 10028 20020 30088 40103 53031 74244 886// 333 88700;
0127101260999992006010120044+53550+007667FM-16+0012ETNT V0202601N00261000151CN0022001N1+00301+00201999999ADDGA1085+000005999GF108991999999999999999999MA1101021999999MW1101REMMET052ETNT 012004Z 26005KT 2200 BR OVC000 03/02 Q1010 RED;
0148101260999992006010120204+53550+007667FM-15+0012ETNT V0202501N00311000151CN0012001N1+00301+00201999999ADDED126U29009GA1085+000005999GF108991999999999999999999MA1101021999999MW1101REMMET062ETNT 012020Z 25006KT 1200 R26/2900D BR OVC000 03/02 Q1010 RED;
0127101260999992006010121204+53550+007667FM-15+0012ETNT V0202501N00361000301CN0022001N1+00301+00201999999ADDGA1085+000301999GF108991999999999999999999MA1101081999999MW1101REMMET052ETNT 012120Z 25007KT 2200 BR OVC001 03/02 Q1011 RED;
0187101260999992006010122004+53550+007667FM-12+0012ETNT V0202501N003010003019N0025001N1+00261+00191101211ADDAY121999AY221999GA1081+000301071GF108991081061000751999999MA1999999101061MD1210301+9999MW1101REMSYN082AAXX  01221 10126 41125 82503 10026 20019 30106 40121 52030 71022 886// 333 88701;
0127101260999992006010122204+53550+007667FM-15+0012ETNT V0202401N00311000301CN0025001N1+00301+00201999999ADDGA1085+000301999GF108991999999999999999999MA1101191999999MW1101REMMET052ETNT 012220Z 24006KT 2500 BR OVC001 03/02 Q1012 RED;
0127101260999992006010122494+53550+007667FM-16+0012ETNT V0202401N00261000601CN0030001N1+00301+00201999999ADDGA1085+000601999GF108991999999999999999999MA1101291999999MW1101REMMET052ETNT 012249Z 24005KT 3000 BR OVC002 03/02 Q1013 AMB;
0187101260999992006010123004+53550+007667FM-12+0012ETNT V0202501N003010006019N0030001N1+00291+00231101301ADDAY121999AY221999GA1081+000601071GF108991081061000751999999MA1999999101151MD1210271+9999MW1101REMSYN082AAXX  01231 10126 41130 82503 10029 20023 30115 40130 52027 71022 886// 333 88702;
0127101260999992006010123204+53550+007667FM-15+0012ETNT V0202401N00311000601CN0030001N1+00301+00201999999ADDGA1085+000601999GF108991999999999999999999MA1101291999999MW1101REMMET052ETNT 012320Z 24006KT 3000 BR OVC002 03/02 Q1013 AMB;
0127101260999992006010200204+53550+007667FM-15+0012ETNT V0202301N00211000601CN0030001N1+00301+00301999999ADDGA1085+000601999GF108991999999999999999999MA1101291999999MW1101REMMET052ETNT 020020Z 23004KT 3000 BR OVC002 03/03 Q1013 AMB;
0187101260999992006010201004+53550+007667FM-12+0012ETNT V0202501N002010006019N0030001N1+00331+00271101381ADDAY121999AY221999GA1081+000601071GF108991081061000751999999MA1999999101231MD1210171+9999MW1101REMSYN082AAXX  02011 10126 41130 82502 10033 20027 30123 40138 52017 71022 886// 333 88702;
0127101260999992006010201204+53550+007667FM-15+0012ETNT V0202601N00311000901CN0035001N1+00301+00301999999ADDGA1085+000901999GF108991999999999999999999MA1101391999999MW1101REMMET052ETNT 020120Z 26006KT 3500 BR OVC003 03/03 Q1014 YLO;
0187101260999992006010202004+53550+007667FM-12+0012ETNT V0202501N003010009019N0035001N1+00341+00251101481ADDAY121999AY221999GA1081+000901071GF108991081061001501999999MA1999999101331MD1310181+9999MW1101REMSYN082AAXX  02021 10126 41235 82503 10034 20025 30133 40148 53018 71022 886// 333 88703;
0127101260999992006010202204+53550+007667FM-15+0012ETNT V0202701N00311000901CN0035001N1+00401+00301999999ADDGA1085+000901999GF108991999999999999999999MA1101491999999MW1101REMMET052ETNT 020220Z 27006KT 3500 BR OVC003 04/03 Q1015 YLO;
0127101260999992006010203094+53550+007667FM-16+0012ETNT V0202801N00361000601CN0030001N1+00401+00301999999ADDGA1085+000601999GF108991999999999999999999MA1101491999999MW1101REMMET052ETNT 020309Z 28007KT 3000 BR OVC002 04/03 Q1015 AMB;
0127101260999992006010203204+53550+007667FM-15+0012ETNT V0203101N00311000301CN0025001N1+00401+00301999999ADDGA1085+000301999GF108991999999999999999999MA1101491999999MW1101REMMET052ETNT 020320Z 31006KT 2500 BR OVC001 04/03 Q1015 RED;
0127101260999992006010203484+53550+007667FM-16+0012ETNT V0203301N00361000601CN0025001N1+00401+00301999999ADDGA1085+000601999GF108991999999999999999999MA1101591999999MW1101REMMET052ETNT 020348Z 33007KT 2500 BR OVC002 04/03 Q1016 AMB;
0187101260999992006010204004+53550+007667FM-12+0012ETNT V0203301N004010006019N0025001N1+00411+00321101601ADDAY121011AY221011GA1081+000601071GF108991081061000751999999MA1999999101451MD1210221+9999MW1101REMSYN082AAXX  02041 10126 41125 83304 10041 20032 30145 40160 52022 71022 886// 333 88702;
0127101260999992006010204204+53550+007667FM-15+0012ETNT V0203601N00461000601CN0030001N1+00401+00301999999ADDGA1085+000601999GF108991999999999999999999MA1101591999999MW1101REMMET052ETNT 020420Z 36009KT 3000 BR OVC002 04/03 Q1016 AMB;
0131101260999992006010204474+53550+007667FM-16+0012ETNT V0200101N00461000901CN0040001N1+00401+00301999999ADDGA1085+000901999GF108991999999999999999999MA1101691999999MW1101REMMET056ETNT 020447Z 01009KT 4000 BR OVC003 04/03 Q1017 YLO YLO;
0187101260999992006010205004+53550+007667FM-12+0012ETNT V0200101N005010009019N0040001N1+00361+00261101701ADDAY121999AY221999GA1081+000901071GF108991081061001501999999MA1999999101551MD1210221+9999MW1101REMSYN082AAXX  02051 10126 41240 80105 10036 20026 30155 40170 52022 71022 886// 333 88703;
0131101260999992006010205204+53550+007667FM-15+0012ETNT V0200301N00461001501CN0045001N1+00301+00201999999ADDGA1075+001501999GF107991999999999999999999MA1101691999999MW1101REMMET056ETNT 020520Z 03009KT 4500 BR BKN005 03/02 Q1017 YLO YLO;
0131101260999992006010206204+53550+007667FM-15+0012ETNT V0200301N00311001501CN0040001N1+00301+00201999999ADDGA1075+001501999GF107991999999999999999999MA1101801999999MW1101REMMET056ETNT 020620Z 03006KT 4000 BR BKN005 03/02 Q1018 YLO YLO;
0187101260999992006010207004+53550+007667FM-12+0012ETNT V0200301N003010015019N0040001N1+00341+00201101941ADDAY121999AY221999GA1071+001501071GF108991071061001501999999MA1999999101791MD1210341+9999MW1101REMSYN082AAXX  02071 10126 41240 80303 10034 20020 30179 40194 52034 71022 876// 333 87705;
0164101260999992006010207204+53550+007667FM-15+0012ETNT V0200201N00361002701CN0045001N1+00301+00201999999ADDGA1045+001501999GA2075+002701999GF107991999999999999999999MA1101901999999MW1101REMMET073ETNT 020720Z 02007KT 4500 BR SCT005 BKN009 03/02 Q1019 GRN YLO TEMPO GRN;
0193101260999992006010208004+53550+007667FM-12+0012ETNT V0200401N00301001201CN0045001N1+00321+00171102031ADDAY121999AY221999GA1041+001501071GF108991071061001501999999MA1999999101881MD1210331+9999MW1101REMSYN088AAXX  02081 10126 41245 80403 10032 20017 30188 40203 52033 71022 876// 333 84705 87710;
0131101260999992006010208204+53550+007667FM-15+0012ETNT V0200401N00261002401CN0045001N1+00301+00201999999ADDGA1075+002401999GF107991999999999999999999MA1102001999999MW1101REMMET056ETNT 020820Z 04005KT 4500 BR BKN008 03/02 Q1020 GRN GRN;
0128101260999992006010209004+53550+007667FM-15+0012ETNT V0200101N00311003001CN0060001N1+00301+00201999999ADDGA1075+003001999GF107991999999999999999999MA1102101999999REMMET059SPECI ETNT 020855Z 01006KT 6000 BKN010 03/02 Q1021 GRN GRN;
0132101260999992006010209204+53550+007667FM-15+0012ETNT V0203601N00261004201CN0070001N1+00301+00201999999ADDGA1075+004201999GF107991999999999999999999MA1102101999999REMMET063ETNT 020920Z 36005KT 7000 BKN014 03/02 Q1021 GRN GRN BECMG WHT;
0128101260999992006010209484+53550+007667FM-16+0012ETNT V0200101N00311005401CN0112651N1+00301+00101999999ADDGA1075+005401999GF107991999999999999999999MA1102101999999REMMET059SPECI ETNT 020948Z 01006KT 9999 BKN018 03/01 Q1021 WHT WHT;
0159101260999992006010210004+53550+007667FM-12+0012ETNT V0203601N003010054019N0090001N1+00311+00091102171ADDGA1071+005401061GF107991071051004501999999MA1999999102021MD1210231+9999REMSYN076AAXX  02101 10126 42459 73603 10031 20009 30202 40217 52023 875// 333 87618;
0134101260999992006010210204+53550+007667FM-15+0012ETNT V0200201N00261006001CN0112651N1+00301+00001999999ADDGA1075+006001999GF107991999999999999999999MA1102201999999REMMET065ETNT 021020Z 02005KT 9999 BKN020 03/M00 Q1022 WHT WHT BECMG BLU+;
0159101260999992006010211004+53550+007667FM-12+0012ETNT V0200301N002010057019N0150001N1+00341+00031102241ADDGA1051+005701061GF105991051051004501001001MA1999999102091MD1210211+9999REMSYN076AAXX  02111 10126 42465 50302 10034 20003 30209 40224 52021 85500 333 85619;
0097101260999992006010211204+53550+007667FM-15+0012ETNT V0200201N003612200019N0112651N1+00301+00001999999ADDGA1045+006005999MA1102201999999REMMET054ETNT 021120Z 02007KT 9999 SCT020 03/00 Q1022 BLU+BLU+;
0123101260999992006010212204+53550+007667FM-15+0012ETNT V0200101N003612200019N0112651N1+00401+00101999999ADDGA1025+003301999GF102991999999999999999999MA1102201999999REMMET054ETNT 021220Z 01007KT 9999 FEW011 04/01 Q1022 BLU+BLU+;
0159101260999992006010213004+53550+007667FM-12+0012ETNT V0200101N004012200019N0180001N1+00371+00061102271ADDGA1011+003601081GF101991011011004501001001MA1999999102121MD1210101+9999REMSYN076AAXX  02131 10126 42468 10104 10037 20006 30212 40227 52010 81100 333 81812;
0123101260999992006010213204+53550+007667FM-15+0012ETNT V0203601N003112200019N0112651N1+00401+00101999999ADDGA1025+003601999GF102991999999999999999999MA1102301999999REMMET054ETNT 021320Z 36006KT 9999 FEW012 04/01 Q1023 BLU+BLU+;
0185101260999992006010214004+53550+007667FM-12+0012ETNT V0200101N003012200019N0200001N1+00401+00021102351ADDGA1001+999999999GF100991001001999999001001MA1999999102201MD1310111+9999REMSYN102AAXX  02141 10126 42970 00103 10040 20002 30220 40235 53011 555 BOT 10029 20036 30035 40041 999 31///;
0074101260999992006010214204+53550+007667FM-15+0012ETNT V0203601N002112200019N0112651N1+00401+00001999999ADDMA1102301999999REMMET047ETNT 021420Z 36004KT 9999 04/00 Q1023 BLU+BLU+;
0159101260999992006010216004+53550+007667FM-12+0012ETNT V0203501N002012200019N0200001N1+00091-00281102471ADDGA1031+009301061GF103991031051008001001011MA1999999102321MD1210201+9999REMSYN076AAXX  02161 10126 42570 33502 10009 21028 30232 40247 52020 83501 333 83631;
0113101260999992006010216204+53550+007667FM-15+0012ETNT V0203601N001512200019N0112651N1+00001-00201999999ADDGA1045+009005999MA1102401999999REMMET070ETNT 021620Z 36003KT 9999 SCT030 00/M02 Q1024 BLU+BLU+BECMG YLO A3024;
0159101260999992006010217004+53550+007667FM-12+0012ETNT V0203101N001010117019N0150001N1+00021-00241102501ADDGA1061+011701061GF106991061051012501001001MA1999999102351MD1210151+9999REMSYN076AAXX  02171 10126 42665 63101 10002 21024 30235 40250 52015 86500 333 86639;
0131101260999992006010217204+53550+007667FM-15+0012ETNT V0202901N00151011401CN0112651N1+00101-00201999999ADDGA1075+011401999GF107991999999999999999999MA1102511999999REMMET062ETNT 021720Z 29003KT 9999 BKN038 01/M02 Q1025 BLU FCST CANCEL;
0116101260999992006010218204+53550+007667FM-15+0012ETNT V0203201N001510114059N0112651N1+00101-00101999999ADDGA1045+007505999GA2075+011405999MA1102501999999REMMET057ETNT 021820Z 32003KT 9999 SCT025 BKN038 01/M01 Q1025 BLU;
0165101260999992006010219004+53550+007667FM-12+0012ETNT V0202601N00201007501CN0150001N1+00041-00121102561ADDGA1031+007501061GF107991071051008001999999MA1999999102411MD1210091+9999REMSYN082AAXX  02191 10126 42565 72602 10004 21012 30241 40256 52009 875// 333 83625 87639;
0116101260999992006010219204+53550+007667FM-15+0012ETNT V0202101N000510096059N0112651N1+00101-00101999999ADDGA1045+006005999GA2075+009605999MA1102501999999REMMET057ETNT 021920Z 21001KT 9999 SCT020 BKN032 01/M01 Q1025 BLU;
0165101260999992006010220004+53550+007667FM-12+0012ETNT V0202101N00101007501CN0120001N1+00051-00101102571ADDGA1041+006001061GF107991071051008001999999MA1999999102421MD1210071+9999REMSYN082AAXX  02201 10126 42562 72101 10005 21010 30242 40257 52007 875// 333 84620 87632;
0160101260999992006010220204+53550+007667FM-15+0012ETNT V0202101N00151006001CN0112651N1+00101-00101999999ADDGA1045+002701999GA2075+006001999GF107991999999999999999999MA1102611999999MW1511MW2611REMMET063ETNT 022020Z 21003KT 9999 -DZRA SCT009 BKN020 01/M01 Q1026 WHT;
0116101260999992006010221204+53550+007667FM-15+0012ETNT V0202201N001510057059N0112651N1+00101-00101999999ADDGA1045+002705999GA2075+005705999MA1102601999999REMMET057ETNT 022120Z 22003KT 9999 SCT009 BKN019 01/M01 Q1026 WHT;
0193101260999992006010222004+53550+007667FM-12+0012ETNT V0202101N00201002101CN0090001N1+00071-00071102651ADDAY161999AY221999GA1021+002701071GF107991071051002501999999MA1999999102501MD1210091+9999MW1211REMSYN088AAXX  02221 10126 41359 72102 10007 21007 30250 40265 52009 72162 875// 333 82709 87619;
0116101260999992006010222204+53550+007667FM-15+0012ETNT V0202201N001010150059N0090001N1+00101-00101999999ADDGA1045+009005999GA2075+015005999MA1102601999999REMMET057ETNT 022220Z 22002KT 9000 SCT030 BKN050 01/M01 Q1026 BLU;
0159101260999992006010223004+53550+007667FM-12+0012ETNT V0202601N001012200019N0080001N1+00021-00151102661ADDGA1031+009001061GF103991031051008001001001MA1999999102511MD1210091+9999REMSYN076AAXX  02231 10126 42558 32601 10002 21015 30251 40266 52009 83500 333 83630;
0129101260999992006010223204+53550+007667FM-15+0012ETNT V0202001N000512200019N0050001N1-00101-00201999999ADDGA1025+009001999GF102991999999999999999999MA1102611999999MW1101REMMET054ETNT 022320Z 20001KT 5000 BR FEW030 M01/M02 Q1026 WHT;
0080101260999992006010300204+53550+007667FM-15+0012ETNT V0202001N002112200019N0050001N1-00101-00301999999ADDMA1102611999999MW1101REMMET047ETNT 030020Z 20004KT 5000 BR M01/M03 Q1026 WHT;
0187101260999992006010301004+53550+007667FM-12+0012ETNT V0202201N002012200019N0050001N1-00081-00181102681ADDAY101999AY201999GA1031+011401061GF103991031051012501001001MA1999999102531MD1210031+9999MW1101REMSYN082AAXX  03011 10126 41650 32202 11008 21018 30253 40268 52003 71000 83500 333 83638;
0129101260999992006010301204+53550+007667FM-15+0012ETNT V0202301N001012200019N0050001N1-00101-00201999999ADDGA1045+009001999GF104991999999999999999999MA1102611999999MW1101REMMET054ETNT 030120Z 23002KT 5000 BR SCT030 M01/M02 Q1026 WHT;
0187101260999992006010302004+53550+007667FM-12+0012ETNT V0201601N001012200019N0050001N1-00031-00071102731ADDAY101999AY201999GA1041+012001061GF104991041051012501001001MA1999999102581MD1210071+9999MW1101REMSYN082AAXX  03021 10126 41650 41601 11003 21007 30258 40273 52007 71000 84500 333 84640;
0128101260999992006010302204+53550+007667FM-15+0012ETNT V0202301N00151012001CN0035001N1+00001-00101999999ADDGA1075+012001999GF107991999999999999999999MA1102611999999MW1101REMMET053ETNT 030220Z 23003KT 3500 BR BKN040 00/M01 Q1026 YLO;
0127101260999992006010303204+53550+007667FM-15+0012ETNT V0202101N00151009001CN0035001N1+00001+00001999999ADDGA1075+009001999GF107991999999999999999999MA1102711999999MW1101REMMET052ETNT 030320Z 21003KT 3500 BR BKN030 00/00 Q1027 YLO;
0187101260999992006010304004+53550+007667FM-12+0012ETNT V0201401N002010060019N0035001N1+00041+00011102761ADDAY121999AY221999GA1061+006001061GF106991061051008001001001MA1999999102611MD1210081+9999MW1101REMSYN082AAXX  03041 10126 41535 61402 10004 20001 30261 40276 52008 71022 86500 333 86620;
0127101260999992006010304204+53550+007667FM-15+0012ETNT V0201701N00151006001CN0035001N1+00101+00001999999ADDGA1075+006001999GF107991999999999999999999MA1102711999999MW1101REMMET052ETNT 030420Z 17003KT 3500 BR BKN020 01/00 Q1027 YLO;
0187101260999992006010305004+53550+007667FM-12+0012ETNT V0201701N002010060019N0035001N1+00061+00001102761ADDAY121999AY221999GA1061+006001061GF106991061051008001001001MA1999999102611MD1110031+9999MW1101REMSYN082AAXX  03051 10126 41535 61702 10006 20000 30261 40276 51003 71022 86500 333 86620;
0174101260999992006010305204+53550+007667FM-15+0012ETNT V0201401N00151015001CN0030001N1+00101+00001999999ADDGA1025+009001999GA2075+015001999GF107991999999999999999999MA1102711999999MW1101MW2611REMMET077ETNT 030520Z 14003KT 3000 -RA BR FEW030 BKN050 01/00 Q1027 YLO WHT TEMPO YLO;
0161101260999992006010305454+53550+007667FM-15+0012ETNT V0201601N00151012001CN0060001N1+00101+00001999999ADDGA1025+009001999GA2075+012001999GF107991999999999999999999MA1102711999999REMMET076SPECI ETNT 030545Z 16003KT 6000 FEW030 BKN040 01/00 Q1027 WHT WHT TEMPO YLO;
0173101260999992006010306204+53550+007667FM-15+0012ETNT V0209999V00101006601CN0060001N1+00101+00001999999ADDGA1025+004501999GA2075+006601999GF107991999999999999999999MA1102811999999MW1511MW2611REMMET076ETNT 030620Z VRB02KT 6000 -RADZ FEW015 BKN022 01/00 Q1028 WHT WHT TEMPO YLO;
0193101260999992006010307004+53550+007667FM-12+0012ETNT V0201701N00201004201CN0050001N1+00071+00021102851ADDAY161999AY221999GA1011+003001071GF107991071051004501999999MA1999999102701MD1310091+9999MW1211REMSYN088AAXX  03071 10126 41450 71702 10007 20002 30270 40285 53009 72162 875// 333 81710 87622;
0164101260999992006010307204+53550+007667FM-15+0012ETNT V0202101N00261012901CN0040001N1+00101+00001999999ADDGA1045+005401999GA2075+012901999GF107991999999999999999999MA1102811999999MW1101REMMET073ETNT 030720Z 21005KT 4000 BR SCT018 BKN043 01/00 Q1028 GRN WHT TEMPO YLO;
0187101260999992006010307334+53550+007667FM-16+0012ETNT V0202201N00211009001CN0030001N1+00101+00001999999ADDGA1025+005401999GA2045+009001999GA3075+012901999GF107991999999999999999999MA1102811999999MW1101REMMET080ETNT 030733Z 22004KT 3000 BR FEW018 SCT030 BKN043 01/00 Q1028 YLO WHT TEMPO YLO;
0193101260999992006010308004+53550+007667FM-12+0012ETNT V0202201N00201007501CN0030001N1+00101+00031102861ADDAY121999AY221999GA1011+006001061GF107991071051008001999999MA1999999102711MD1210101+9999MW1101REMSYN088AAXX  03081 10126 41530 72202 10010 20003 30271 40286 52010 71022 875// 333 81620 86642;
0170101260999992006010308064+53550+007667FM-16+0012ETNT V0202201N00261012901CN0025001N1+00101+00001999999ADDGA1025+006001999GA2075+012901999GF107991999999999999999999MA1102811999999MW1101REMMET079SPECI ETNT 030806Z 22005KT 2500 BR FEW020 BKN043 01/00 Q1028 YLO WHT TEMPO YLO;
0164101260999992006010308204+53550+007667FM-15+0012ETNT V0202101N00211012901CN0022001N1+00101+00001999999ADDGA1025+006001999GA2075+012901999GF107991999999999999999999MA1102811999999MW1101REMMET073ETNT 030820Z 21004KT 2200 BR FEW020 BKN043 01/00 Q1028 YLO WHT TEMPO YLO;
0210101260999992006010309204+53550+007667FM-15+0012ETNT V0202201N00151999999CN0012001N1+00201+00201999999ADDED126U18009GA1025+000005999GA2045+012001999GF104991999999999999999999MA1102911999999MW1101REMMET089ETNT 030920Z 22003KT 1200 R26/1800N BR FEW000 SCT040 02/02 Q1029 AMB WHT TEMPO AMB A3039;EQDP01 012003SCOCIG
0204101260999992006010309404+53550+007667FM-16+0012ETNT V0201701N00101999999CN0020001N1+00201+00201999999ADDED126U18009GA1045+000301999GA2045+012001999GF104991999999999999999999MA1102911999999MW1101REMMET083ETNT 030940Z 17002KT 2000 R26/1800N BR SCT001 SCT040 02/02 Q1029 YLO WHT TEMPO YLO;EQDP01 012003SCOCIG
0288101260999992006010310004+53550+007667SY-MT+0012ETNT V0202001N00101012005CN0025001N1+00291+00291102961ADDAY111999AY211999GA1025+000301999GA2045+012001999GF199999031051000751001011MA1102911102811MD1310111+9999MW1101REMSYN088AAXX  03101 10126 41125 32001 10029 20029 30281 40296 53011 71011 83501 333 82701 83640;MET073ETNT 031000Z 20002KT 3000 BR FEW001 SCT040 03/03 Q1029 YLO WHT TEMPO YLO;
0204101260999992006010310204+53550+007667FM-15+0012ETNT V0202101N00101999999CN0012001N1+00401+00401999999ADDED126U27009GA1025+000301999GA2045+075001999GF104991999999999999999999MA1102911999999MW1101REMMET083ETNT 031020Z 21002KT 1200 R26/2700D BR FEW001 SCT250 04/04 Q1029 AMB WHT TEMPO AMB;EQDP01 075003SCOCIG
0204101260999992006010310284+53550+007667FM-16+0012ETNT V0202201N00101999999CN0004001N1+00401+00401999999ADDED126U16009GA1025+000301999GA2045+075001999GF104991999999999999999999MA1102911999999MW1441REMMET083ETNT 031028Z 22002KT 0400 R26/1600N FG FEW001 SCT250 04/04 Q1029 RED WHT TEMPO RED;EQDP01 075003SCOCIG
0187101260999992006010311004+53550+007667FM-12+0012ETNT V0201801N001012200019N0002001N1+00411+00291102961ADDAY141999AY211999GA1031+000151071GF104991031061000251001011MA1999999102811MD1210101+9999MW1461REMSYN082AAXX  03111 10126 41002 41801 10041 20029 30281 40296 52010 74641 83601 333 83700;
0183101260999992006010311204+53550+007667FM-15+0012ETNT V0201801N00101999999CN0025001N1+00601+00301999999ADDGA1025+000005999GA2045+075001999GF104991999999999999999999MA1102911999999MW1101REMMET073ETNT 031120Z 18002KT 2500 BR FEW000 SCT250 06/03 Q1029 YLO RED TEMPO YLO;EQDP01 075003SCOCIG
0183101260999992006010311324+53550+007667FM-16+0012ETNT V0202601N00151999999CN0050001N1+00601+00301999999ADDGA1025+006001999GA2045+075001999GF104991999999999999999999MA1102911999999MW1101REMMET073ETNT 031132Z 26003KT 5000 BR FEW020 SCT250 06/03 Q1029 WHT RED TEMPO WHT;EQDP01 075003SCOCIG
0174101260999992006010312204+53550+007667FM-15+0012ETNT V0202701N00311999999CN0090001N1+00601+00301999999ADDGA1025+006001999GA2045+075001999GF104991999999999999999999MA1102911999999REMMET070ETNT 031220Z 27006KT 9000 FEW020 SCT250 06/03 Q1029 BLU+RED TEMPO WHT;EQDP01 075003SCOCIG
0165101260999992006010313004+53550+007667FM-12+0012ETNT V0202801N003012200019N0130001N1+00611+00291102941ADDGA1011+006001081GF108991011011008001001011MA1999999102791MD1810021+9999REMSYN082AAXX  03131 10126 42563 82803 10061 20029 30279 40294 58002 81101 333 81820 83075;
0174101260999992006010313204+53550+007667FM-15+0012ETNT V0202601N00311999999CN0112651N1+00601+00301999999ADDGA1025+006001999GA2045+075001999GF104991999999999999999999MA1102911999999REMMET070ETNT 031320Z 26006KT 9999 FEW020 SCT250 06/03 Q1029 BLU+RED TEMPO WHT;EQDP01 075003SCOCIG
0258101260999992006010314004+53550+007667FM-12+0012ETNT V0202501N002019999999N0180001N1+00581+00171102931ADDGA1011+006001081GA2041+075001001GF105991999999008001031011MA1999999102781MD1710031+9999REMSYN124AAXX  03141 10126 42568 52502 10058 20017 30278 40293 57003 80031 333 81820 84075 555 BOT 10030 20038 30029 40040 999 31///;EQDQ01+000002SCOTLCQ02+000002SCOLCG
0169101260999992006010314204+53550+007667FM-15+0012ETNT V0202701N00261030001CN0112651N1+00501+00001999999ADDGA1025+006001999GA2045+030001999GA3075+075001999GF107991999999999999999999MA1102911999999REMMET068ETNT 031420Z 27005KT 9999 FEW020 SCT100 BKN250 05/00 Q1029 BLU+BLU+;
0121101260999992006010315204+53550+007667FM-15+0012ETNT V0202201N001510750059N0112651N1+00301-00101999999ADDGA1045+036005999GA2075+075005999MA1102901999999REMMET062ETNT 031520Z 22003KT 9999 SCT120 BKN250 03/M01 Q1029 BLU+BLU+;
0165101260999992006010316004+53550+007667FM-12+0012ETNT V0202101N002019999999N0200001N1+00211-00081103001ADDGA1041+036001031GF107991041001999999031011MA1999999102851MD1210061+9999REMSYN082AAXX  03161 10126 42970 72102 10021 21008 30285 40300 52006 84031 333 84362 86075;
0130101260999992006010316204+53550+007667FM-15+0012ETNT V0202101N002110750059N0112651N1+00201-00101999999ADDGA1045+036005999GA2075+075005999MA1103001999999REMMET071ETNT 031620Z 21004KT 9999 SCT120 BKN250 02/M01 Q1030 BLU+BLU+BECMG GRN;
0165101260999992006010317004+53550+007667FM-12+0012ETNT V0202001N002010360019N0200001N1+00141-00111103041ADDGA1051+036001031GF107991051001999999031011MA1999999102891MD1210111+9999REMSYN082AAXX  03171 10126 42970 72002 10014 21011 30289 40304 52011 85031 333 85362 87075;
0177101260999992006010317204+53550+007667FM-15+0012ETNT V0201801N00101036001CN0112651N1+00101-00101999999ADDGA1025+013801999GA2075+036001999GA3075+075001999GF107991999999999999999999MA1103011999999REMMET076ETNT 031720Z 18002KT 9999 FEW046 BKN120 BKN250 01/M01 Q1030 BLU+FCST CANCEL;
0117101260999992006010318204+53550+007667FM-15+0012ETNT V0201801N002110360059N0112651N1+00201+00001999999ADDGA1045+014105999GA2075+036005999MA1103001999999REMMET058ETNT 031820Z 18004KT 9999 SCT047 BKN120 02/M00 Q1030 BLU+;
0165101260999992006010319004+53550+007667FM-12+0012ETNT V0201901N00301030001CN0150001N1+00161-00031103051ADDGA1041+015001061GF108991041051017501031999MA1999999102901MD1110051+9999REMSYN082AAXX  03191 10126 42765 81903 10016 21003 30290 40305 51005 8453/ 333 84650 87362;
0119101260999992006010319204+53550+007667FM-15+0012ETNT V0201901N00211015001CN0112651N1+00201+00001999999ADDGA1075+015001999GF107991999999999999999999MA1103011999999REMMET050ETNT 031920Z 19004KT 9999 BKN050 02/M00 Q1030 BLU;
0159101260999992006010320004+53550+007667FM-12+0012ETNT V0201901N003010150019N0120001N1+00181+00021103071ADDGA1071+015001061GF108991071051017501999999MA1999999102921MD1210031+9999REMSYN076AAXX  03201 10126 42762 81903 10018 20002 30292 40307 52003 875// 333 87650;
0118101260999992006010320204+53550+007667FM-15+0012ETNT V0202001N00211012601CN0112651N1+00201+00001999999ADDGA1075+012601999GF107991999999999999999999MA1103121999999REMMET049ETNT 032020Z 20004KT 9999 BKN042 02/00 Q1031 BLU;
0118101260999992006010321204+53550+007667FM-15+0012ETNT V0201801N00151013501CN0112651N1+00201+00101999999ADDGA1075+013501999GF107991999999999999999999MA1103121999999REMMET049ETNT 032120Z 18003KT 9999 BKN045 02/01 Q1031 BLU;
0159101260999992006010322004+53550+007667FM-12+0012ETNT V0201801N001010135019N0120001N1+00161+00051103151ADDGA1071+013501061GF108991071051012501999999MA1999999103001MD1210101+9999REMSYN076AAXX  03221 10126 42662 81801 10016 20005 30300 40315 52010 875// 333 87645;
0118101260999992006010322204+53550+007667FM-15+0012ETNT V0201901N00101015001CN0112651N1+00201+00001999999ADDGA1075+015001999GF107991999999999999999999MA1103121999999REMMET049ETNT 032220Z 19002KT 9999 BKN050 02/00 Q1031 BLU;
0159101260999992006010323004+53550+007667FM-12+0012ETNT V0201401N002010150019N0120001N1+00141+00021103161ADDGA1071+015001061GF108991071051017501999999MA1999999103011MD1210091+9999REMSYN076AAXX  03231 10126 42762 81402 10014 20002 30301 40316 52009 875// 333 87650;
0118101260999992006010323204+53550+007667FM-15+0012ETNT V0201501N00151015001CN0112651N1+00101+00001999999ADDGA1075+015001999GF107991999999999999999999MA1103121999999REMMET049ETNT 032320Z 15003KT 9999 BKN050 01/00 Q1031 BLU;
0118101260999992006010400204+53550+007667FM-15+0012ETNT V0201901N00151015001CN0080001N1+00101+00001999999ADDGA1075+015001999GF107991999999999999999999MA1103121999999REMMET049ETNT 040020Z 19003KT 8000 BKN050 01/00 Q1031 BLU;
0159101260999992006010401004+53550+007667FM-12+0012ETNT V0201801N001010150019N0080001N1+00101+00001103181ADDGA1071+015001061GF108991071051017501999999MA1999999103031MD1210031+9999REMSYN076AAXX  04011 10126 42758 81801 10010 20000 30303 40318 52003 875// 333 87650;
0118101260999992006010401204+53550+007667FM-15+0012ETNT V0201801N00101015001CN0080001N1+00101+00001999999ADDGA1075+015001999GF107991999999999999999999MA1103181999999REMMET049ETNT 040120Z 18002KT 8000 BKN050 01/00 Q1032 BLU;
0187101260999992006010402004+53550+007667FM-12+0012ETNT V0201501N001010150019N0080001N1+00101+00001103211ADDAY121999AY221999GA1071+015001061GF108991071051017501999999MA1999999103061MD1210051+9999MW1211REMSYN082AAXX  04021 10126 41758 81501 10010 20000 30306 40321 52005 72122 875// 333 87650;
0118101260999992006010402204+53550+007667FM-15+0012ETNT V0201801N00101015001CN0070001N1+00101+00001999999ADDGA1075+015001999GF107991999999999999999999MA1103181999999REMMET049ETNT 040220Z 18002KT 7000 BKN050 01/00 Q1032 WHT;
0128101260999992006010403204+53550+007667FM-15+0012ETNT V0201401N00151014101CN0050001N1+00101-00101999999ADDGA1075+014101999GF107991999999999999999999MA1103181999999MW1101REMMET053ETNT 040320Z 14003KT 5000 BR BKN047 01/M01 Q1032 WHT;
0187101260999992006010404004+53550+007667FM-12+0012ETNT V0201501N001010135019N0060001N1+00051-00051103251ADDAY121999AY221999GA1061+013501061GF106991061051012501001001MA1999999103101MD1110071+9999MW1111REMSYN082AAXX  04041 10126 41656 61501 10005 21005 30310 40325 51007 71122 86500 333 86645;
0139101260999992006010404204+53550+007667FM-15+0012ETNT V0201001N00151013201CN0045001N1+00101-00101999999ADDGA1075+013201999GF107991999999999999999999MA1103181999999MW1101MW2121REMMET058ETNT 040420Z 10003KT 4500 MIFG BR BKN044 01/M01 Q1032 GRN;
0187101260999992006010405004+53550+007667FM-12+0012ETNT V0201001N002010132019N0045001N1+00051-00051103271ADDAY121999AY221999GA1071+013201061GF107991071051012501001001MA1999999103121MD1210061+9999MW1111REMSYN082AAXX  04051 10126 41645 71002 10005 21005 30312 40327 52006 71122 87500 333 87644;
0152101260999992006010405204+53550+007667FM-15+0012ETNT V0209999C00001014701CN0040001N1+00101+00001999999ADDGA1075+014701999GF107991999999999999999999MA1103291999999MW1101MW2121REMMET071ETNT 040520Z 00000KT 4000 MIFG BR BKN049 01/00 Q1033 GRN GRN BECMG RED;
0144101260999992006010406204+53550+007667FM-15+0012ETNT V0209999C00001015001CN0060001N1+00101+00001999999ADDGA1075+015001999GF107991999999999999999999MA1103291999999MW1121REMMET069ETNT 040620Z 00000KT 6000 MIFG BKN050 01/M00 Q1033 WHT GRN BECMG RED;
0187101260999992006010407004+53550+007667FM-12+0012ETNT V0209999C000010150019N0060001N1+00071-00011103311ADDAY121999AY221999GA1071+015001061GF108991071051017501999999MA1999999103161MD1210061+9999MW1111REMSYN082AAXX  04071 10126 41756 80000 10007 21001 30316 40331 52006 71122 875// 333 87650;
0153101260999992006010407204+53550+007667FM-15+0012ETNT V0200101N00151012301CN0045001N1+00101+00001999999ADDGA1075+012301999GF107991999999999999999999MA1103291999999MW1101MW2121REMMET072ETNT 040720Z 01003KT 4500 MIFG BR BKN041 01/M00 Q1033 GRN GRN BECMG YLO;
0187101260999992006010408004+53550+007667FM-12+0012ETNT V0200201N002010120019N0045001N1+00081-00011103341ADDAY121999AY221999GA1071+012001061GF108991071051012501999999MA1999999103191MD1210071+9999MW1101REMSYN082AAXX  04081 10126 41645 80202 10008 21001 30319 40334 52007 71022 875// 333 87640;
0142101260999992006010408204+53550+007667FM-15+0012ETNT V0200201N00211011701CN0050001N1+00101+00001999999ADDGA1075+011701999GF107991999999999999999999MA1103291999999MW1101REMMET067ETNT 040820Z 02004KT 5000 BR BKN039 01/M00 Q1033 WHT GRN TEMPO WHT;
0141101260999992006010409204+53550+007667FM-15+0012ETNT V0200701N00211015001CN0040001N1+00201+00101999999ADDGA1075+015001999GF107991999999999999999999MA1103391999999MW1101REMMET066ETNT 040920Z 07004KT 4000 BR BKN050 02/01 Q1034 GRN GRN TEMPO AMB;
0187101260999992006010410004+53550+007667FM-12+0012ETNT V0200701N003010150019N0030001N1+00181+00091103401ADDAY121999AY221999GA1071+015001061GF107991071051017501999999MA1999999103251MD1210091+9999MW1101REMSYN082AAXX  04101 10126 41730 70703 10018 20009 30325 40340 52009 71022 875// 333 87650;
0141101260999992006010410204+53550+007667FM-15+0012ETNT V0200801N00411001201CN0025001N1+00201+00001999999ADDGA1075+001201999GF107991999999999999999999MA1103391999999MW1101REMMET066ETNT 041020Z 08008KT 2500 BR BKN004 02/00 Q1034 YLO YLO TEMPO AMB;
0187101260999992006010411004+53550+007667FM-12+0012ETNT V0200801N004010012019N0028001N1+00171+00051103431ADDAY121999AY221999GA1071+001201071GF108991071061001501999999MA1999999103281MD1210091+9999MW1101REMSYN082AAXX  04111 10126 41228 80804 10017 20005 30328 40343 52009 71022 876// 333 87704;
0141101260999992006010411204+53550+007667FM-15+0012ETNT V0200801N00411000601CN0022001N1+00101+00001999999ADDGA1075+000601999GF107991999999999999999999MA1103391999999MW1101REMMET066ETNT 041120Z 08008KT 2200 BR BKN002 01/00 Q1034 AMB YLO TEMPO AMB;
0141101260999992006010411454+53550+007667FM-15+0012ETNT V0200701N00311000901CN0025001N1+00101+00001999999ADDGA1075+000901999GF107991999999999999999999MA1103391999999MW1101REMMET066ETNT 041145Z 07006KT 2500 BR BKN003 01/00 Q1034 YLO YLO TEMPO AMB;
0141101260999992006010412064+53550+007667FM-16+0012ETNT V0200701N00411000901CN0035001N1+00101+00001999999ADDGA1075+000901999GF107991999999999999999999MA1103391999999MW1101REMMET066ETNT 041206Z 07008KT 3500 BR BKN003 01/00 Q1034 YLO YLO TEMPO AMB;
0162101260999992006010412204+53550+007667FM-15+0012ETNT V0200801N00411000601CN0018001N1+00101+00001999999ADDED108U26009GA1075+000601999GF107991999999999999999999MA1103391999999MW1101REMMET076ETNT 041220Z 08008KT 1800 R08/2600N BR BKN002 01/00 Q1034 AMB YLO TEMPO AMB;
0162101260999992006010412304+53550+007667FM-15+0012ETNT V0200701N00411000301CN0013001N1+00101+00001999999ADDED108U22009GA1075+000301999GF107991999999999999999999MA1103391999999MW1101REMMET076ETNT 041230Z 07008KT 1300 R08/2200 BR BKN001 01/M00 Q1034 RED YLO TEMPO AMB;
0162101260999992006010412434+53550+007667FM-16+0012ETNT V0200601N00461000151CN0008001N1+00101+00001999999ADDED108U15009GA1085+000005999GF108991999999999999999999MA1103391999999MW1441REMMET076ETNT 041243Z 06009KT 0800 R08/1500 FG OVC000 01/M00 Q1034 RED YLO TEMPO AMB;
0187101260999992006010413004+53550+007667FM-12+0012ETNT V0200601N005010001519N0008001N1+00051-00051103411ADDAY121999AY221999GA1081+000151071GF108991081061000251999999MA1999999103261MD1010011+9999MW1461REMSYN082AAXX  04131 10126 41008 80605 10005 21005 30326 40341 50001 74622 886// 333 88700;
0162101260999992006010413014+53550+007667FM-16+0012ETNT V0200701N00411000301CN0016001N1+00001-00101999999ADDED108U16009GA1085+000301999GF108991999999999999999999MA1103391999999MW1101REMMET076ETNT 041301Z 07008KT 1600 R08/1600 BR OVC001 00/M01 Q1034 RED YLO TEMPO AMB;
0143101260999992006010413204+53550+007667FM-15+0012ETNT V0200801N00461000901CN0022001N1+00001-00101999999ADDGA1075+000901999GF107991999999999999999999MA1103291999999MW1101REMMET068ETNT 041320Z 08009KT 2200 BR BKN003 M00/M01 Q1033 YLO YLO TEMPO AMB;
0133101260999992006010413474+53550+007667FM-16+0012ETNT V0200801N00411001201CN0030001N1-00101-00201999999ADDGA1075+001201999GF107991999999999999999999MA1103291999999MW1101REMMET058ETNT 041347Z 08008KT 3000 BR BKN004 M01/M02 Q1033 YLO YLO;
0229101260999992006010414004+53550+007667FM-12+0012ETNT V0200701N004010012019N0030001N1-00071-00181103391ADDAY141999AY221999GA1071+001201071GF108991071061001501999999MA1999999103241MD1810041+9999MW1281REMSYN124AAXX  04141 10126 41230 80704 11007 21018 30324 40339 58004 72842 876// 333 87704 555 BOT 10014 20019 30025 40039 999 31///;
0143101260999992006010414204+53550+007667FM-15+0012ETNT V0200701N00411001801CN0037001N1-00101-00201999999ADDGA1075+001801999GF107991999999999999999999MA1103291999999MW1101REMMET068ETNT 041420Z 07008KT 3700 BR BKN006 M01/M02 Q1033 YLO YLO TEMPO GRN;
0143101260999992006010415204+53550+007667FM-15+0012ETNT V0200801N00361001801CN0037001N1-00101-00301999999ADDGA1075+001801999GF107991999999999999999999MA1103391999999MW1101REMMET068ETNT 041520Z 08007KT 3700 BR BKN006 M01/M03 Q1034 YLO YLO TEMPO GRN;
0149101260999992006010415474+53550+007667FM-16+0012ETNT V0200901N00511002101CN0037001N1-00101-00301999999ADDGA1075+002101999GF107991999999999999999999MA1103391999999MW1101REMMET074SPECI ETNT 041547Z 09010KT 3700 BR BKN007 M01/M03 Q1034 GRN YLO TEMPO GRN;
0187101260999992006010416004+53550+007667FM-12+0012ETNT V0200801N005010021019N0037001N1-00091-00281103441ADDAY121011AY221011GA1071+002101071GF108991071061002501999999MA1999999103291MD1310031+9999MW1101REMSYN082AAXX  04161 10126 41337 80805 11009 21028 30329 40344 53003 71022 876// 333 87707;
0143101260999992006010416204+53550+007667FM-15+0012ETNT V0200801N00511002101CN0037001N1-00101-00301999999ADDGA1075+002101999GF107991999999999999999999MA1103391999999MW1101REMMET068ETNT 041620Z 08010KT 3700 BR BKN007 M01/M03 Q1034 GRN YLO TEMPO GRN;
0143101260999992006010416404+53550+007667FM-16+0012ETNT V0200901N00411002401CN0050001N1-00101-00301999999ADDGA1075+002401999GF107991999999999999999999MA1103391999999MW1101REMMET068ETNT 041640Z 09008KT 5000 BR BKN008 M01/M03 Q1034 GRN YLO TEMPO GRN;
0187101260999992006010417004+53550+007667FM-12+0012ETNT V0200901N004010021019N0050001N1-00061-00241103421ADDAY121999AY221999GA1071+002101071GF108991071061002501999999MA1999999103271MD1010031+9999MW1101REMSYN082AAXX  04171 10126 41350 80904 11006 21024 30327 40342 50003 71022 876// 333 87707;
0121101260999992006010417404+53550+007667FM-16+0012ETNT V0201001N003110042059N0060001N1+00001-00201999999ADDGA1045+002405999GA2075+004205999MA1103401999999REMMET062ETNT 041740Z 10006KT 6000 SCT008 BKN014 M00/M02 Q1034 GRN GRN;
0134101260999992006010418204+53550+007667FM-15+0012ETNT V0200901N00311001801CN0060001N1+00001-00201999999ADDGA1075+001801999GF107991999999999999999999MA1103391999999REMMET065ETNT 041820Z 09006KT 6000 BKN006 M00/M02 Q1034 YLO GRN TEMPO YLO;
0187101260999992006010419004+53550+007667FM-12+0012ETNT V0200801N003010018019N0060001N1+00021-00141103421ADDAY121999AY221999GA1071+001801071GF108991071061002501999999MA1999999103271MD1610021+9999MW1101REMSYN082AAXX  04191 10126 41356 80803 10002 21014 30327 40342 56002 71022 876// 333 87706;
0139101260999992006010419204+53550+007667FM-15+0012ETNT V0200901N00311001801CN0060001N1+00101-00101999999ADDGA1075+001801999GF107991999999999999999999MA1103391999999REMMET070METAR ETNT 041920Z 09006KT 6000 BKN006 01/M01 Q1034 YLO GRN TEMPO YLO;
0156101260999992006010419404+53550+007667FM-16+0012ETNT V0200901N00361002701CN0060001N1+00101-00101999999ADDGA1075+002701999GA2085+009001999GF108991999999999999999999MA1103391999999REMMET071ETNT 041940Z 09007KT 6000 BKN009 OVC030 01/M01 Q1034 GRN GRN TEMPO YLO;
0193101260999992006010420004+53550+007667FM-12+0012ETNT V0200901N004010027019N0060001N1+00051-00101103401ADDAY121999AY221999GA1051+002701071GF108991081051002501999999MA1999999103251MD1810021+9999MW1101REMSYN088AAXX  04201 10126 41356 80904 10005 21010 30325 40340 58002 71022 885// 333 85709 88631;
0128101260999992006010420204+53550+007667FM-15+0012ETNT V0200901N003610096059N0060001N1+00001-00101999999ADDGA1045+003005999GA2075+009605999MA1103401999999REMMET069ETNT 042020Z 09007KT 6000 SCT010 BKN032 00/M01 Q1034 WHT FCST CANCEL;
0151101260999992006010421204+53550+007667FM-15+0012ETNT V0200801N00261006901CN0050001N1+00001-00101999999ADDGA1045+003601999GA2075+006901999GF107991999999999999999999MA1103291999999MW1101REMMET060ETNT 042120Z 08005KT 5000 BR SCT012 BKN023 00/M01 Q1033 WHT;
0193101260999992006010422004+53550+007667FM-12+0012ETNT V0200701N003010048019N0050001N1+00021-00131103371ADDAY121999AY221999GA1051+004801061GF108991071051004501999999MA1999999103221MD1710051+9999MW1101REMSYN088AAXX  04221 10126 41450 80703 10002 21013 30322 40337 57005 71022 875// 333 85616 87626;
0151101260999992006010422204+53550+007667FM-15+0012ETNT V0200701N00311007201CN0045001N1+00001-00101999999ADDGA1045+004501999GA2075+007201999GF107991999999999999999999MA1103291999999MW1101REMMET060ETNT 042220Z 07006KT 4500 BR SCT015 BKN024 00/M01 Q1033 GRN;
0193101260999992006010423004+53550+007667FM-12+0012ETNT V0200601N00301004201CN0045001N1+00031-00101103341ADDAY121999AY221999GA1041+003301071GF108991071051004501999999MA1999999103191MD1710061+9999MW1101REMSYN088AAXX  04231 10126 41445 80603 10003 21010 30319 40334 57006 71022 875// 333 84711 87624;
0151101260999992006010423204+53550+007667FM-15+0012ETNT V0200601N00311007201CN0050001N1+00001-00101999999ADDGA1045+003001999GA2075+007201999GF107991999999999999999999MA1103291999999MW1101REMMET060ETNT 042320Z 06006KT 5000 BR SCT010 BKN024 00/M01 Q1033 GRN;
0116101260999992006010500204+53550+007667FM-15+0012ETNT V0200601N003610150059N0060001N1+00001-00101999999ADDGA1045+007205999GA2075+015005999MA1103201999999REMMET057ETNT 050020Z 06007KT 6000 SCT024 BKN050 00/M01 Q1032 WHT;
0187101260999992006010501004+53550+007667FM-12+0012ETNT V0200601N004010150019N0060001N1+00041-00131103231ADDAY121999AY221999GA1071+015001061GF108991071051017501999999MA1999999103081MD1710141+9999MW1101REMSYN082AAXX  05011 10126 41756 80604 10004 21013 30308 40323 57014 71022 875// 333 87650;
0151101260999992006010501204+53550+007667FM-15+0012ETNT V0200601N00361002701CN0050001N1+00001-00101999999ADDGA1075+002701999GA2075+015001999GF107991999999999999999999MA1103181999999MW1101REMMET060ETNT 050120Z 06007KT 5000 BR BKN009 BKN050 00/M01 Q1032 GRN;
0187101260999992006010502004+53550+007667FM-12+0012ETNT V0200501N004010024019N0050001N1+00051-00101103191ADDAY121999AY221999GA1071+002401071GF108991071061002501999999MA1999999103041MD1710151+9999MW1101REMSYN082AAXX  05021 10126 41350 80504 10005 21010 30304 40319 57015 71022 876// 333 87708;
0138101260999992006010502204+53550+007667FM-15+0012ETNT V0200601N00361001201CN0030001N1+00001-00101999999ADDGA1075+001201999GF107991999999999999999999MA1103121999999MW1101MW2771REMMET057ETNT 050220Z 06007KT 3000 -SG BR BKN004 00/M01 Q1031 YLO;
0138101260999992006010503204+53550+007667FM-15+0012ETNT V0200501N00261000901CN0035001N1+00101+00001999999ADDGA1075+000901999GF107991999999999999999999MA1103121999999MW1101MW2771REMMET057ETNT 050320Z 05005KT 3500 -SG BR BKN003 01/M00 Q1031 YLO;
0187101260999992006010504004+53550+007667FM-12+0012ETNT V0200601N003010009019N0032001N1+00081-00011103081ADDAY171999AY221999GA1071+000901071GF108991071071001501999999MA1999999102931MD1710151+9999MW1511REMSYN082AAXX  05041 10126 41232 80603 10008 21001 30293 40308 57015 75172 877// 333 87703;
0131101260999992006010504204+53550+007667FM-15+0012ETNT V0200801N00411000901CN0040001N1+00101+00001999999ADDGA1075+000901999GF107991999999999999999999MA1103011999999MW1101REMMET056ETNT 050420Z 08008KT 4000 BR BKN003 01/00 Q1030 YLO YLO;
0187101260999992006010505004+53550+007667FM-12+0012ETNT V0200901N005010009019N0045001N1+00091+00001103011ADDAY121999AY221999GA1071+000901071GF108991071071001501999999MA1999999102861MD1710181+9999MW1201REMSYN082AAXX  05051 10126 41245 80905 10009 20000 30286 40301 57018 72022 877// 333 87703;
0131101260999992006010505204+53550+007667FM-15+0012ETNT V0200901N00511000901CN0040001N1+00101+00001999999ADDGA1075+000901999GF107991999999999999999999MA1102911999999MW1101REMMET056ETNT 050520Z 09010KT 4000 BR BKN003 01/00 Q1029 YLO YLO;
0142101260999992006010505484+53550+007667FM-16+0012ETNT V0200901N00511001801CN0050001N1+00101+00001999999ADDGA1075+001801999GF107991999999999999999999MA1102911999999MW1101REMMET067ETNT 050548Z 09010KT 5000 BR BKN006 01/M00 Q1029 YLO YLO BECMG GRN;
0133101260999992006010506204+53550+007667FM-15+0012ETNT V0200901N00511001801CN0060001N1+00101+00001999999ADDGA1075+001801999GF107991999999999999999999MA1102911999999REMMET064ETNT 050620Z 09010KT 6000 BKN006 01/M00 Q1029 YLO YLO BECMG GRN;
0129101260999992006010506474+53550+007667FM-16+0012ETNT V0200901N00461002101CN0060001N1+00101+00001999999ADDGA1075+002101999GF107991999999999999999999MA1102911999999REMMET060SPECI ETNT 050647Z 09009KT 6000 BKN007 01/M00 Q1029 GRN GRN;
0187101260999992006010507004+53550+007667FM-12+0012ETNT V0200901N005010021019N0060001N1+00131-00021102921ADDAY121011AY221011GA1071+002101071GF108991071061002501999999MA1999999102771MD1610161+9999MW1101REMSYN082AAXX  05071 10126 41356 80905 10013 21002 30277 40292 56016 71022 876// 333 87707;
0123101260999992006010507204+53550+007667FM-15+0012ETNT V0200901N00571002401CN0060001N1+00101+00001999999ADDGA1075+002401999GF107991999999999999999999MA1102911999999REMMET054ETNT 050720Z 09011KT 6000 BKN008 01/M00 Q1029 GRN GRN;
0187101260999992006010508004+53550+007667FM-12+0012ETNT V0200901N006010024019N0060001N1+00131-00051102921ADDAY121999AY221999GA1071+002401071GF108991071061002501999999MA1999999102771MD1610091+9999MW1101REMSYN082AAXX  05081 10126 41356 80906 10013 21005 30277 40292 56009 71022 876// 333 87708;
0123101260999992006010508204+53550+007667FM-15+0012ETNT V0200901N00571002401CN0060001N1+00101+00001999999ADDGA1075+002401999GF107991999999999999999999MA1102911999999REMMET054ETNT 050820Z 09011KT 6000 BKN008 01/M00 Q1029 GRN GRN;
0133101260999992006010509204+53550+007667FM-15+0012ETNT V0201001N00511002401CN0060001N1+00101+00001999999ADDGA1075+002401999GF107991999999999999999999MA1102811999999REMMET064ETNT 050920Z 10010KT 6000 BKN008 01/M00 Q1028 GRN GRN TEMPO YLO;
0187101260999992006010510004+53550+007667FM-12+0012ETNT V0200901N006010024019N0050001N1+00141-00051102851ADDAY171999AY221999GA1071+002401071GF108991071061002501999999MA1999999102701MD1810071+9999MW1771REMSYN082AAXX  05101 10126 41350 80906 10014 21005 30270 40285 58007 77772 876// 333 87708;
0143101260999992006010510204+53550+007667FM-15+0012ETNT V0200901N00621002401CN0060001N1+00101+00001999999ADDGA1075+002401999GF107991999999999999999999MA1102811999999MW1771REMMET068ETNT 051020Z 09012KT 6000 -SG BKN008 01/M00 Q1028 GRN GRN TEMPO YLO;
0187101260999992006010511004+53550+007667FM-12+0012ETNT V0200901N006010024019N0060001N1+00151-00031102791ADDAY171999AY221999GA1071+002401071GF108991071061002501999999MA1999999102641MD1810131+9999MW1201REMSYN082AAXX  05111 10126 41356 80906 10015 21003 30264 40279 58013 72072 876// 333 87708;
0142101260999992006010511204+53550+007667FM-15+0012ETNT V0200901N00671002701CN0050001N1+00201+00001999999ADDGA1075+002701999GF107991999999999999999999MA1102711999999MW1101REMMET067ETNT 051120Z 09013KT 5000 BR BKN009 02/M00 Q1027 GRN GRN TEMPO YLO;
0142101260999992006010512204+53550+007667FM-15+0012ETNT V0200901N00511002701CN0050001N1+00201+00001999999ADDGA1075+002701999GF107991999999999999999999MA1102711999999MW1101REMMET067ETNT 051220Z 09010KT 5000 BR BKN009 02/M00 Q1027 GRN GRN TEMPO YLO;
0187101260999992006010513004+53550+007667FM-12+0012ETNT V0200801N005010024019N0050001N1+00151-00031102611ADDAY121999AY221999GA1071+002401071GF108991071061002501999999MA1999999102461MD1710241+9999MW1101REMSYN082AAXX  05131 10126 41350 80805 10015 21003 30246 40261 57024 71022 876// 333 87708;
0142101260999992006010513204+53550+007667FM-15+0012ETNT V0200801N00511002101CN0050001N1+00201+00001999999ADDGA1075+002101999GF107991999999999999999999MA1102611999999MW1101REMMET067ETNT 051320Z 08010KT 5000 BR BKN007 02/M00 Q1026 GRN GRN TEMPO YLO;
0187101260999992006010514004+53550+007667FM-12+0012ETNT V0200801N006010021019N0050001N1+00161-00021102571ADDAY121999AY221999GA1071+002101071GF108991071061002501999999MA1999999102421MD1710221+9999MW1511REMSYN082AAXX  05141 10126 41350 80806 10016 21002 30242 40257 57022 75122 876// 333 87707;
0152101260999992006010514094+53550+007667FM-16+0012ETNT V0200801N00511002101CN0042001N1+00201+00001999999ADDGA1075+002101999GF107991999999999999999999MA1102511999999MW1101MW2511REMMET071ETNT 051409Z 08010KT 4200 -DZ BR BKN007 02/M00 Q1025 GRN GRN TEMPO YLO;
0152101260999992006010514204+53550+007667FM-15+0012ETNT V0200901N00511002101CN0040001N1+00201+00001999999ADDGA1075+002101999GF107991999999999999999999MA1102511999999MW1101MW2511REMMET071ETNT 051420Z 09010KT 4000 -DZ BR BKN007 02/M00 Q1025 GRN GRN TEMPO YLO;
0151101260999992006010515204+53550+007667FM-15+0012ETNT V0200901N00621002401CN0040001N1+00201+00001999999ADDGA1075+002401999GF107991999999999999999999MA1102511999999MW1101MW2511REMMET070ETNT 051520Z 09012KT 4000 -DZ BR BKN008 02/00 Q1025 GRN GRN TEMPO YLO;
0187101260999992006010516004+53550+007667FM-12+0012ETNT V0201001N006010024019N0045001N1+00171-00041102551ADDAY151999AY221999GA1071+002401071GF108991071071002501999999MA1999999102401MD1610061+9999MW1101REMSYN082AAXX  05161 10126 41345 81006 10017 21004 30240 40255 56006 71052 877// 333 87708;
0165101260999992006010516204+53550+007667FM-15+0012ETNT V0200901N00621003001CN0050001N1+00201+00001999999ADDGA1075+003001999GA2075+006001999GF107991999999999999999999MA1102511999999MW1101REMMET074ETNT 051620Z 09012KT 5000 BR BKN010 BKN020 02/M00 Q1025 GRN GRN TEMPO YLO;
0193101260999992006010517004+53550+007667FM-12+0012ETNT V0201001N006010030019N0060001N1+00171-00061102551ADDAY121999AY221999GA1051+003001071GF108991071051004501999999MA1999999102401MD1610021+9999MW1101REMSYN088AAXX  05171 10126 41456 81006 10017 21006 30240 40255 56002 71022 875// 333 85710 87618;
0133101260999992006010517204+53550+007667FM-15+0012ETNT V0200901N00621003001CN0070001N1+00201-00101999999ADDGA1075+003001999GF107991999999999999999999MA1102511999999REMMET064ETNT 051720Z 09012KT 7000 BKN010 02/M01 Q1025 GRN GRN TEMPO YLO;
0174101260999992006010518204+53550+007667FM-15+0012ETNT V0201001N00721003001CN0070001N1+00201-00101999999ADDGA1075+003001999GA2075+004501999GF107991999999999999999999MA1102511999999MW1511MW2611REMMET077ETNT 051820Z 10014KT 7000 -RADZ BKN010 BKN015 02/M01 Q1025 GRN GRN TEMPO YLO;
0187101260999992006010519004+53550+007667FM-12+0012ETNT V0201001N007010033019N0070001N1+00171-00081102481ADDAY161999AY261999GA1071+003301071GF108991071071004501999999MA1999999102331MD1810071+9999MW1581REMSYN082AAXX  05191 10126 41457 81007 10017 21008 30233 40248 58007 75866 877// 333 87711;
0151101260999992006010519204+53550+007667FM-15+0012ETNT V0200901N00721003001CN0070001N1+00101-00101999999ADDGA1075+003001999GF107991999999999999999999MA1102401999999MW1511MW2611REMMET070ETNT 051920Z 09014KT 7000 -RADZ BKN010 01/M01 Q1024 GRN GRN TEMPO YLO;
0187101260999992006010520004+53550+007667FM-12+0012ETNT V0201001N007010027019N0070001N1+00131-00081102471ADDAY161999AY221999GA1071+002701071GF108991071071002501999999MA1999999102321MD1610081+9999MW1211REMSYN082AAXX  05201 10126 41357 81007 10013 21008 30232 40247 56008 72162 877// 333 87709;
0141101260999992006010520014+53550+007667FM-16+0012ETNT V0201001N00721002701CN0070001N1+00101-00101999999ADDGA1075+002701999GF107991999999999999999999MA1102401999999MW1771REMMET066ETNT 052001Z 10014KT 7000 -SG BKN009 01/M01 Q1024 GRN FCST CANCEL;
0129101260999992006010520204+53550+007667FM-15+0012ETNT V0200901N00721002401CN0070001N1+00101-00101999999ADDGA1075+002401999GF107991999999999999999999MA1102401999999MW1771REMMET054ETNT 052020Z 09014KT 7000 -SG BKN008 01/M01 Q1024 GRN;
0119101260999992006010521204+53550+007667FM-15+0012ETNT V0201001N00671002401CN0060001N1+00101-00101999999ADDGA1075+002401999GF107991999999999999999999MA1102401999999REMMET050ETNT 052120Z 10013KT 6000 BKN008 01/M01 Q1024 GRN;
0187101260999992006010522004+53550+007667FM-12+0012ETNT V0201001N006010021019N0050001N1+00091-00101102451ADDAY121999AY221999GA1081+002101071GF108991081061002501999999MA1999999102301MD1710031+9999MW1771REMSYN082AAXX  05221 10126 41350 81006 10009 21010 30230 40245 57003 77722 886// 333 88707;
0138101260999992006010522204+53550+007667FM-15+0012ETNT V0201001N00621001801CN0050001N1+00101-00101999999ADDGA1085+001801999GF108991999999999999999999MA1102401999999MW1101MW2771REMMET057ETNT 052220Z 10012KT 5000 -SG BR OVC006 01/M01 Q1024 YLO;
0187101260999992006010523004+53550+007667FM-12+0012ETNT V0201001N006010018019N0060001N1+00061-00091102461ADDAY171999AY221999GA1071+001801071GF108991071061002501999999MA1999999102311MD1510011+9999MW1201REMSYN082AAXX  05231 10126 41356 81006 10006 21009 30231 40246 55001 72072 876// 333 87706;
0119101260999992006010523204+53550+007667FM-15+0012ETNT V0201101N00621003001CN0070001N1+00101-00101999999ADDGA1075+003001999GF107991999999999999999999MA1102401999999REMMET050ETNT 052320Z 11012KT 7000 BKN010 01/M01 Q1024 GRN;
0119101260999992006010600204+53550+007667FM-15+0012ETNT V0201101N00621003901CN0112651N1+00101-00201999999ADDGA1075+003901999GF107991999999999999999999MA1102401999999REMMET050ETNT 060020Z 11012KT 9999 BKN013 01/M02 Q1024 GRN;
0159101260999992006010601004+53550+007667FM-12+0012ETNT V0201101N006010039019N0100001N1+00061-00201102471ADDGA1071+003901061GF108991071051004501999999MA1999999102321MD1010021+9999REMSYN076AAXX  06011 10126 42460 81106 10006 21020 30232 40247 50002 875// 333 87613;
0119101260999992006010601204+53550+007667FM-15+0012ETNT V0201001N00621003601CN0112651N1+00101-00201999999ADDGA1075+003601999GF107991999999999999999999MA1102401999999REMMET050ETNT 060120Z 10012KT 9999 BKN012 01/M02 Q1024 GRN;
0159101260999992006010602004+53550+007667FM-12+0012ETNT V0201001N005010033019N0100001N1+00051-00201102471ADDGA1071+003301071GF108991071061004501999999MA1999999102321MD1010011+9999REMSYN076AAXX  06021 10126 42460 81005 10005 21020 30232 40247 50001 876// 333 87711;
0119101260999992006010602204+53550+007667FM-15+0012ETNT V0201101N00511003301CN0112651N1+00001-00201999999ADDGA1075+003301999GF107991999999999999999999MA1102401999999REMMET050ETNT 060220Z 11010KT 9999 BKN011 00/M02 Q1024 GRN;
0129101260999992006010603204+53550+007667FM-15+0012ETNT V0201101N00621003001CN0112651N1+00001-00201999999ADDGA1075+003001999GF107991999999999999999999MA1102511999999MW1771REMMET054ETNT 060320Z 11012KT 9999 -SG BKN010 00/M02 Q1025 GRN;
0187101260999992006010604004+53550+007667FM-12+0012ETNT V0201101N006010030019N0100001N1+00031-00211102501ADDAY171999AY221999GA1071+003001071GF108991071061004501999999MA1999999102351MD1310031+9999MW1201REMSYN082AAXX  06041 10126 41460 81106 10003 21021 30235 40250 53003 72072 876// 333 87710;
0123101260999992006010604204+53550+007667FM-15+0012ETNT V0201101N00511003301CN0112651N1+00001-00201999999ADDGA1075+003301999GF107991999999999999999999MA1102511999999REMMET054ETNT 060420Z 11010KT 9999 BKN011 00/M02 Q1025 GRN GRN;
0159101260999992006010605004+53550+007667FM-12+0012ETNT V0201101N005010033019N0100001N1+00031-00221102511ADDGA1071+003301071GF108991071061004501999999MA1999999102361MD1210041+9999REMSYN076AAXX  06051 10126 42460 81105 10003 21022 30236 40251 52004 876// 333 87711;
0123101260999992006010605204+53550+007667FM-15+0012ETNT V0201001N00461002701CN0112651N1+00001-00201999999ADDGA1075+002701999GF107991999999999999999999MA1102511999999REMMET054ETNT 060520Z 10009KT 9999 BKN009 00/M02 Q1025 GRN GRN;
0123101260999992006010606204+53550+007667FM-15+0012ETNT V0201001N00571002701CN0112651N1+00001-00201999999ADDGA1075+002701999GF107991999999999999999999MA1102511999999REMMET054ETNT 060620Z 10011KT 9999 BKN009 00/M02 Q1025 GRN GRN;
0159101260999992006010607004+53550+007667FM-12+0012ETNT V0201001N005010021019N0100001N1+00031-00181102571ADDGA1071+002101071GF108991071061002501999999MA1999999102421MD1210071+9999REMSYN076AAXX  06071 10126 41360 81005 10003 21018 30242 40257 52007 876// 333 87707;
0123101260999992006010607204+53550+007667FM-15+0012ETNT V0201001N00511002401CN0070001N1+00001-00201999999ADDGA1075+002401999GF107991999999999999999999MA1102511999999REMMET054ETNT 060720Z 10010KT 7000 BKN008 00/M02 Q1025 GRN GRN;
0187101260999992006010608004+53550+007667FM-12+0012ETNT V0200901N004010024019N0070001N1+00011-00181102631ADDAY121999AY221999GA1071+002401071GF108991071061002501999999MA1999999102481MD1210121+9999MW1101REMSYN082AAXX  06081 10126 41357 80904 10001 21018 30248 40263 52012 71022 876// 333 87708;
0123101260999992006010608204+53550+007667FM-15+0012ETNT V0200901N00571002401CN0070001N1+00001-00201999999ADDGA1075+002401999GF107991999999999999999999MA1102611999999REMMET054ETNT 060820Z 09011KT 7000 BKN008 00/M02 Q1026 GRN GRN;
0123101260999992006010609204+53550+007667FM-15+0012ETNT V0200901N00461002701CN0070001N1+00001-00201999999ADDGA1075+002701999GF107991999999999999999999MA1102611999999REMMET054ETNT 060920Z 09009KT 7000 BKN009 00/M02 Q1026 GRN GRN;
0187101260999992006010610004+53550+007667FM-12+0012ETNT V0200901N006010027019N0060001N1+00021-00201102731ADDAY121999AY221999GA1081+002701071GF108991081061002501999999MA1999999102581MD1210161+9999MW1101REMSYN082AAXX  06101 10126 41356 80906 10002 21020 30258 40273 52016 71022 886// 333 88709;
0123101260999992006010610204+53550+007667FM-15+0012ETNT V0201001N00621002701CN0060001N1+00001-00201999999ADDGA1085+002701999GF108991999999999999999999MA1102711999999REMMET054ETNT 061020Z 10012KT 6000 OVC009 00/M02 Q1027 GRN GRN;
0187101260999992006010611004+53550+007667FM-12+0012ETNT V0201001N006010024019N0060001N1+00031-00171102751ADDAY121999AY221999GA1081+002401071GF108991081061002501999999MA1999999102601MD1210121+9999MW1101REMSYN082AAXX  06111 10126 41356 81006 10003 21017 30260 40275 52012 71022 886// 333 88708;
0123101260999992006010611204+53550+007667FM-15+0012ETNT V0201001N00461002101CN0060001N1+00001-00201999999ADDGA1085+002101999GF108991999999999999999999MA1102711999999REMMET054ETNT 061120Z 10009KT 6000 OVC007 00/M02 Q1027 GRN GRN;
0150101260999992006010612204+53550+007667FM-15+0012ETNT V0201001N00511002101CN0040001N1+00001-00101999999ADDGA1075+002101999GF107991999999999999999999MA1102711999999MW1101MW2511REMMET069ETNT 061220Z 10010KT 4000 -DZ BR BKN007 00/M01 Q1027 GRN FCST CANCEL;
0134101260999992006010612374+53550+007667FM-16+0012ETNT V0200901N00461001201CN0040001N1+00001-00101999999ADDGA1075+001201999GF107991999999999999999999MA1102711999999MW1101REMMET059SPECI ETNT 061237Z 09009KT 4000 BR BKN004 00/M01 Q1027 YLO;
0187101260999992006010613004+53550+007667FM-12+0012ETNT V0200801N006010012019N0040001N1-00021-00151102711ADDAY151999AY221999GA1071+001201071GF108991071061001501999999MA1999999102561MD1810021+9999MW1201REMSYN082AAXX  06131 10126 41240 80806 11002 21015 30256 40271 58002 72052 876// 333 87704;
0129101260999992006010613204+53550+007667FM-15+0012ETNT V0200901N00511001201CN0035001N1+00001-00101999999ADDGA1075+001201999GF107991999999999999999999MA1102711999999MW1101REMMET054ETNT 061320Z 09010KT 3500 BR BKN004 M00/M01 Q1027 YLO;
0187101260999992006010614004+53550+007667FM-12+0012ETNT V0200901N005010009019N0032001N1-00041-00141102711ADDAY121999AY221999GA1081+000901071GF108991081061001501999999MA1999999102561MD1610041+9999MW1101REMSYN082AAXX  06141 10126 41232 80905 11004 21014 30256 40271 56004 71022 886// 333 88703;
0129101260999992006010614204+53550+007667FM-15+0012ETNT V0201001N00511000901CN0035001N1+00001-00101999999ADDGA1075+000901999GF107991999999999999999999MA1102711999999MW1101REMMET054ETNT 061420Z 10010KT 3500 BR BKN003 M00/M01 Q1027 YLO;
0129101260999992006010615204+53550+007667FM-15+0012ETNT V0201001N00571001501CN0042001N1+00001-00201999999ADDGA1075+001501999GF107991999999999999999999MA1102711999999MW1101REMMET054ETNT 061520Z 10011KT 4200 BR BKN005 M00/M02 Q1027 YLO;
0187101260999992006010616004+53550+007667FM-12+0012ETNT V0200901N005010015019N0045001N1-00051-00171102761ADDAY121999AY221999GA1081+001501071GF108991081061001501999999MA1999999102611MD1310051+9999MW1101REMSYN082AAXX  06161 10126 41245 80905 11005 21017 30261 40276 53005 71022 886// 333 88705;
0129101260999992006010616204+53550+007667FM-15+0012ETNT V0201001N00511001201CN0045001N1-00101-00201999999ADDGA1075+001201999GF107991999999999999999999MA1102711999999MW1101REMMET054ETNT 061620Z 10010KT 4500 BR BKN004 M01/M02 Q1027 YLO;
0187101260999992006010617004+53550+007667FM-12+0012ETNT V0201001N006010009019N0045001N1-00061-00181102791ADDAY121999AY221999GA1081+000901071GF108991081061001501999999MA1999999102641MD1210081+9999MW1101REMSYN082AAXX  06171 10126 41245 81006 11006 21018 30264 40279 52008 71022 886// 333 88703;
0129101260999992006010617204+53550+007667FM-15+0012ETNT V0201001N00671000901CN0045001N1-00101-00201999999ADDGA1075+000901999GF107991999999999999999999MA1102811999999MW1101REMMET054ETNT 061720Z 10013KT 4500 BR BKN003 M01/M02 Q1028 YLO;
0129101260999992006010618204+53550+007667FM-15+0012ETNT V0201001N00571000601CN0040001N1-00101-00201999999ADDGA1075+000601999GF107991999999999999999999MA1102811999999MW1101REMMET054ETNT 061820Z 10011KT 4000 BR BKN002 M01/M02 Q1028 AMB;
0187101260999992006010619004+53550+007667FM-12+0012ETNT V0200901N006010006019N0040001N1-00101-00191102891ADDAY121999AY221999GA1081+000601071GF108991081061000751999999MA1999999102741MD1210131+9999MW1101REMSYN082AAXX  06191 10126 41140 80906 11010 21019 30274 40289 52013 71022 886// 333 88702;
0129101260999992006010619204+53550+007667FM-15+0012ETNT V0201001N00571000601CN0035001N1-00101-00201999999ADDGA1085+000601999GF108991999999999999999999MA1102811999999MW1101REMMET054ETNT 061920Z 10011KT 3500 BR OVC002 M01/M02 Q1028 AMB;
0187101260999992006010620004+53550+007667FM-12+0012ETNT V0201001N005010006019N0035001N1-00111-00191102861ADDAY121999AY221999GA1081+000601071GF108991081061000751999999MA1999999102711MD1010071+9999MW1101REMSYN082AAXX  06201 10126 41135 81005 11011 21019 30271 40286 50007 71022 886// 333 88702;
0129101260999992006010620204+53550+007667FM-15+0012ETNT V0201001N00461000601CN0040001N1-00101-00201999999ADDGA1085+000601999GF108991999999999999999999MA1102811999999MW1101REMMET054ETNT 062020Z 10009KT 4000 BR OVC002 M01/M02 Q1028 AMB;
0129101260999992006010621204+53550+007667FM-15+0012ETNT V0201001N00671000901CN0040001N1-00101-00201999999ADDGA1085+000901999GF108991999999999999999999MA1102811999999MW1101REMMET054ETNT 062120Z 10013KT 4000 BR OVC003 M01/M02 Q1028 YLO;
0187101260999992006010622004+53550+007667FM-12+0012ETNT V0201001N007010012019N0045001N1-00121-00241102901ADDAY121999AY221999GA1081+001201071GF108991081061001501999999MA1999999102751MD1310011+9999MW1101REMSYN082AAXX  06221 10126 41245 81007 11012 21024 30275 40290 53001 71022 886// 333 88704;
0129101260999992006010622204+53550+007667FM-15+0012ETNT V0201101N00671001201CN0050001N1-00101-00201999999ADDGA1085+001201999GF108991999999999999999999MA1102911999999MW1101REMMET054ETNT 062220Z 11013KT 5000 BR OVC004 M01/M02 Q1029 YLO;
0187101260999992006010623004+53550+007667FM-12+0012ETNT V0201101N006010012019N0050001N1-00121-00251102931ADDAY121999AY221999GA1081+001201071GF108991081061001501999999MA1999999102781MD1310071+9999MW1101REMSYN082AAXX  06231 10126 41250 81106 11012 21025 30278 40293 53007 71022 886// 333 88704;
0129101260999992006010623204+53550+007667FM-15+0012ETNT V0201101N00671001201CN0050001N1-00101-00201999999ADDGA1085+001201999GF108991999999999999999999MA1102911999999MW1101REMMET054ETNT 062320Z 11013KT 5000 BR OVC004 M01/M02 Q1029 YLO;
0129101260999992006010700204+53550+007667FM-15+0012ETNT V0201001N00621001201CN0050001N1-00201-00301999999ADDGA1085+001201999GF108991999999999999999999MA1102911999999MW1101REMMET054ETNT 070020Z 10012KT 5000 BR OVC004 M02/M03 Q1029 YLO;
0187101260999992006010701004+53550+007667FM-12+0012ETNT V0201101N005010012019N0050001N1-00151-00291102951ADDAY121999AY221999GA1081+001201071GF108991081061001501999999MA1999999102801MD1210051+9999MW1101REMSYN082AAXX  07011 10126 41250 81105 11015 21029 30280 40295 52005 71022 886// 333 88704;
0129101260999992006010701204+53550+007667FM-15+0012ETNT V0201201N00511001201CN0050001N1-00201-00301999999ADDGA1085+001201999GF108991999999999999999999MA1102911999999MW1101REMMET054ETNT 070120Z 12010KT 5000 BR OVC004 M02/M03 Q1029 YLO;
0187101260999992006010702004+53550+007667FM-12+0012ETNT V0201101N006010012019N0050001N1-00151-00281102951ADDAY121999AY221999GA1081+001201071GF108991081061001501999999MA1999999102801MD1110021+9999MW1101REMSYN082AAXX  07021 10126 41250 81106 11015 21028 30280 40295 51002 71022 886// 333 88704;
0129101260999992006010702204+53550+007667FM-15+0012ETNT V0201201N00461001201CN0050001N1-00101-00301999999ADDGA1085+001201999GF108991999999999999999999MA1102911999999MW1101REMMET054ETNT 070220Z 12009KT 5000 BR OVC004 M01/M03 Q1029 YLO;
0129101260999992006010703204+53550+007667FM-15+0012ETNT V0201101N00511000901CN0040001N1-00101-00201999999ADDGA1085+000901999GF108991999999999999999999MA1102911999999MW1101REMMET054ETNT 070320Z 11010KT 4000 BR OVC003 M01/M02 Q1029 YLO;
0187101260999992006010704004+53550+007667FM-12+0012ETNT V0201101N005010009019N0040001N1-00121-00211102951ADDAY121999AY221999GA1081+000901071GF108991081061001501999999MA1999999102801MD1410001+9999MW1101REMSYN082AAXX  07041 10126 41240 81105 11012 21021 30280 40295 54000 71022 886// 333 88703;
0129101260999992006010704204+53550+007667FM-15+0012ETNT V0201101N00571001501CN0040001N1-00101-00201999999ADDGA1085+001501999GF108991999999999999999999MA1102911999999MW1101REMMET054ETNT 070420Z 11011KT 4000 BR OVC005 M01/M02 Q1029 YLO;
0187101260999992006010705004+53550+007667FM-12+0012ETNT V0201101N006010015019N0050001N1-00091-00191102951ADDAY121999AY221999GA1081+001501071GF108991081061001501999999MA1999999102801MD1410001+9999MW1101REMSYN082AAXX  07051 10126 41250 81106 11009 21019 30280 40295 54000 71022 886// 333 88705;
0129101260999992006010705204+53550+007667FM-15+0012ETNT V0201101N00511001801CN0050001N1-00101-00201999999ADDGA1085+001801999GF108991999999999999999999MA1102911999999MW1101REMMET054ETNT 070520Z 11010KT 5000 BR OVC006 M01/M02 Q1029 YLO;
0147101260999992006010706004+53550+007667FM-15+0012ETNT V0201101N00511001801CN0045001N1+00001-00201999999ADDGA1085+001801999GF108991999999999999999999MA1102911999999MW1101MW2561REMMET066SPECI ETNT 070555Z 11010KT 4500 -FZDZ BR OVC006 M00/M02 Q1029 YLO;
0139101260999992006010706204+53550+007667FM-15+0012ETNT V0201101N00511001501CN0030001N1+00001-00201999999ADDGA1075+001501999GF107991999999999999999999MA1102911999999MW1101MW2711REMMET058ETNT 070620Z 11010KT 3000 -SN BR BKN005 M00/M02 Q1029 YLO;
0187101260999992006010707004+53550+007667FM-12+0012ETNT V0201001N005010015019N0030001N1-00051-00151102981ADDAY171999AY251999GA1071+001501071GF108991071061001501999999MA1999999102831MD1310031+9999MW1711REMSYN082AAXX  07071 10126 41230 81005 11005 21015 30283 40298 53003 77175 876// 333 87705;
0162101260999992006010707204+53550+007667FM-15+0012ETNT V0201001N00511002101CN0035001N1+00001-00201999999ADDGA1045+001501999GA2075+002101999GF107991999999999999999999MA1103011999999MW1101MW2711REMMET065ETNT 070720Z 10010KT 3500 -SN BR SCT005 BKN007 M00/M02 Q1030 YLO;
0193101260999992006010708004+53550+007667FM-12+0012ETNT V0201001N00501001201CN0035001N1-00051-00161103031ADDAY171999AY271999GA1031+001501071GF108991071061001501999999MA1999999102881MD1310081+9999MW1711REMSYN088AAXX  07081 10126 41235 81005 11005 21016 30288 40303 53008 77177 876// 333 83705 87707;
0183101260999992006010708204+53550+007667FM-15+0012ETNT V0201101N00461001501CN0025001N1+00001-00101999999ADDED108U17009GA1075+001501999GA2075+002401999GF107991999999999999999999MA1103011999999MW1101MW2711REMMET075ETNT 070820Z 11009KT 2500 R08/1700N -SN BR BKN005 BKN008 M00/M01 Q1030 YLO;
0129101260999992006010709204+53550+007667FM-15+0012ETNT V0201101N00461001501CN0040001N1+00001-00101999999ADDGA1075+001501999GF107991999999999999999999MA1103011999999MW1101REMMET054ETNT 070920Z 11009KT 4000 BR BKN005 M00/M01 Q1030 YLO;
0187101260999992006010710004+53550+007667FM-12+0012ETNT V0201101N005010012019N0042001N1-00021-00121103071ADDAY171999AY221999GA1071+001201071GF108991071061001501999999MA1999999102921MD1110091+9999MW1221REMSYN082AAXX  07101 10126 41242 81105 11002 21012 30292 40307 51009 72272 876// 333 87704;
0129101260999992006010710204+53550+007667FM-15+0012ETNT V0201101N00461001501CN0042001N1+00001-00101999999ADDGA1075+001501999GF107991999999999999999999MA1103011999999MW1101REMMET054ETNT 071020Z 11009KT 4200 BR BKN005 M00/M01 Q1030 YLO;
0187101260999992006010711004+53550+007667FM-12+0012ETNT V0201101N005010012019N0045001N1-00021-00121103061ADDAY121999AY221999GA1071+001201071GF108991071061001501999999MA1999999102911MD1010031+9999MW1101REMSYN082AAXX  07111 10126 41245 81105 11002 21012 30291 40306 50003 71022 876// 333 87704;
0141101260999992006010711204+53550+007667FM-15+0012ETNT V0201101N00511001501CN0040001N1+00001-00101999999ADDGA1075+001501999GF107991999999999999999999MA1103011999999MW1101MW2561REMMET060ETNT 071120Z 11010KT 4000 -FZDZ BR BKN005 M00/M01 Q1030 YLO;
0139101260999992006010712204+53550+007667FM-15+0012ETNT V0201001N00511001501CN0030001N1+00001-00101999999ADDGA1075+001501999GF107991999999999999999999MA1103011999999MW1101MW2711REMMET058ETNT 071220Z 10010KT 3000 -SN BR BKN005 M00/M01 Q1030 YLO;
0187101260999992006010713004+53550+007667FM-12+0012ETNT V0201001N006010015019N0035001N1-00021-00141103031ADDAY171999AY251999GA1071+001501071GF108991071061001501999999MA1999999102881MD1310041+9999MW1221REMSYN082AAXX  07131 10126 41235 81006 11002 21014 30288 40303 53004 72275 876// 333 87705;
0129101260999992006010713204+53550+007667FM-15+0012ETNT V0201001N00511001801CN0040001N1+00001-00201999999ADDGA1075+001801999GF107991999999999999999999MA1103011999999MW1101REMMET054ETNT 071320Z 10010KT 4000 BR BKN006 M00/M02 Q1030 YLO;
0229101260999992006010714004+53550+007667FM-12+0012ETNT V0201101N005010018019N0040001N1-00031-00161103001ADDAY121999AY221999GA1071+001801071GF108991071061002501999999MA1999999102851MD1710061+9999MW1101REMSYN124AAXX  07141 10126 41340 81105 11003 21016 30285 40300 57006 71022 876// 333 87706 555 BOT 10000 20006 30014 40033 999 46///;
0129101260999992006010714204+53550+007667FM-15+0012ETNT V0201101N00461001801CN0040001N1+00001-00201999999ADDGA1075+001801999GF107991999999999999999999MA1103011999999MW1101REMMET054ETNT 071420Z 11009KT 4000 BR BKN006 M00/M02 Q1030 YLO;
0129101260999992006010715204+53550+007667FM-15+0012ETNT V0201101N00511001801CN0045001N1+00001-00201999999ADDGA1075+001801999GF107991999999999999999999MA1103011999999MW1101REMMET054ETNT 071520Z 11010KT 4500 BR BKN006 M00/M02 Q1030 YLO;
0187101260999992006010716004+53550+007667FM-12+0012ETNT V0201101N005010018019N0045001N1-00031-00171103081ADDAY121999AY221999GA1071+001801071GF108991071061002501999999MA1999999102931MD1310051+9999MW1101REMSYN082AAXX  07161 10126 41345 81105 11003 21017 30293 40308 53005 71022 876// 333 87706;
0129101260999992006010716204+53550+007667FM-15+0012ETNT V0201101N00511001801CN0050001N1+00001-00201999999ADDGA1075+001801999GF107991999999999999999999MA1103011999999MW1101REMMET054ETNT 071620Z 11010KT 5000 BR BKN006 M00/M02 Q1030 YLO;
0187101260999992006010717004+53550+007667FM-12+0012ETNT V0201001N005010018019N0050001N1-00031-00161103081ADDAY121999AY221999GA1071+001801071GF108991071061002501999999MA1999999102931MD1110081+9999MW1101REMSYN082AAXX  07171 10126 41350 81005 11003 21016 30293 40308 51008 71022 876// 333 87706;
0129101260999992006010717204+53550+007667FM-15+0012ETNT V0201101N00511001801CN0050001N1+00001-00201999999ADDGA1075+001801999GF107991999999999999999999MA1103011999999MW1101REMMET054ETNT 071720Z 11010KT 5000 BR BKN006 M00/M02 Q1030 YLO;
0129101260999992006010718204+53550+007667FM-15+0012ETNT V0201101N00461001501CN0045001N1+00001-00201999999ADDGA1075+001501999GF107991999999999999999999MA1103121999999MW1101REMMET054ETNT 071820Z 11009KT 4500 BR BKN005 M00/M02 Q1031 YLO;
0187101260999992006010719004+53550+007667FM-12+0012ETNT V0201101N005010012019N0045001N1-00031-00141103121ADDAY121999AY221999GA1071+001201071GF108991071061001501999999MA1999999102971MD1310041+9999MW1101REMSYN082AAXX  07191 10126 41245 81105 11003 21014 30297 40312 53004 71022 876// 333 87704;
0129101260999992006010719204+53550+007667FM-15+0012ETNT V0201101N00511001201CN0045001N1+00001-00101999999ADDGA1075+001201999GF107991999999999999999999MA1103121999999MW1101REMMET054ETNT 071920Z 11010KT 4500 BR BKN004 M00/M01 Q1031 YLO;
0187101260999992006010720004+53550+007667FM-12+0012ETNT V0201101N005010015019N0048001N1-00031-00141103111ADDAY121999AY221999GA1071+001501071GF108991071061001501999999MA1999999102961MD1010031+9999MW1101REMSYN082AAXX  07201 10126 41248 81105 11003 21014 30296 40311 50003 71022 876// 333 87705;
0129101260999992006010720204+53550+007667FM-15+0012ETNT V0201101N00511001501CN0050001N1+00001-00101999999ADDGA1075+001501999GF107991999999999999999999MA1103121999999MW1101REMMET054ETNT 072020Z 11010KT 5000 BR BKN005 M00/M01 Q1031 YLO;
0129101260999992006010721204+53550+007667FM-15+0012ETNT V0201001N00511001201CN0045001N1+00001-00101999999ADDGA1075+001201999GF107991999999999999999999MA1103121999999MW1101REMMET054ETNT 072120Z 10010KT 4500 BR BKN004 M00/M01 Q1031 YLO;
0141101260999992006010721414+53550+007667FM-16+0012ETNT V0201001N00511001201CN0040001N1+00001-00101999999ADDGA1075+001201999GF107991999999999999999999MA1103121999999MW1101MW2561REMMET060ETNT 072141Z 10010KT 4000 -FZDZ BR BKN004 M00/M01 Q1031 YLO;
0187101260999992006010722004+53550+007667FM-12+0012ETNT V0201001N006010012019N0040001N1-00021-00131103131ADDAY121999AY221999GA1071+001201071GF108991071061001501999999MA1999999102981MD1310011+9999MW1561REMSYN082AAXX  07221 10126 41240 81006 11002 21013 30298 40313 53001 75622 876// 333 87704;
0141101260999992006010722204+53550+007667FM-15+0012ETNT V0201001N00511001501CN0040001N1+00001-00101999999ADDGA1075+001501999GF107991999999999999999999MA1103121999999MW1101MW2561REMMET060ETNT 072220Z 10010KT 4000 -FZDZ BR BKN005 M00/M01 Q1031 YLO;
0187101260999992006010723004+53550+007667FM-12+0012ETNT V0201001N005010015019N0040001N1-00021-00121103131ADDAY151999AY251999GA1071+001501071GF108991071061001501999999MA1999999102981MD1110021+9999MW1561REMSYN082AAXX  07231 10126 41240 81005 11002 21012 30298 40313 51002 75655 876// 333 87705;
0136101260999992006010723204+53550+007667FM-15+0012ETNT V0201101N00461001201CN0042001N1+00001-00101999999ADDGA1075+001201999GF107991999999999999999999MA1103121999999MW1101REMMET061ETNT 072320Z 11009KT 4200 BR BKN004 M00/M01 Q1031 REFZDZ YLO;
0129101260999992006010800204+53550+007667FM-15+0012ETNT V0201001N00621001201CN0040001N1+00001-00101999999ADDGA1075+001201999GF107991999999999999999999MA1103011999999MW1101REMMET054ETNT 080020Z 10012KT 4000 BR BKN004 M00/M01 Q1030 YLO;
0187101260999992006010801004+53550+007667FM-12+0012ETNT V0201001N006010012019N0040001N1-00031-00141103071ADDAY121999AY221999GA1071+001201071GF108991071061001501999999MA1999999102921MD1810061+9999MW1101REMSYN082AAXX  08011 10126 41240 81006 11003 21014 30292 40307 58006 71022 876// 333 87704;
0129101260999992006010801204+53550+007667FM-15+0012ETNT V0201101N00511001201CN0045001N1+00001-00101999999ADDGA1075+001201999GF107991999999999999999999MA1103011999999MW1101REMMET054ETNT 080120Z 11010KT 4500 BR BKN004 M00/M01 Q1030 YLO;
0187101260999992006010802004+53550+007667FM-12+0012ETNT V0201001N006010012019N0040001N1-00031-00131103081ADDAY121999AY221999GA1071+001201071GF108991071061001501999999MA1999999102931MD1510051+9999MW1101REMSYN082AAXX  08021 10126 41240 81006 11003 21013 30293 40308 55005 71022 876// 333 87704;
0129101260999992006010802204+53550+007667FM-15+0012ETNT V0201001N00571001501CN0050001N1+00001-00101999999ADDGA1075+001501999GF107991999999999999999999MA1103121999999MW1101REMMET054ETNT 080220Z 10011KT 5000 BR BKN005 M00/M01 Q1031 YLO;
0120101260999992006010803204+53550+007667FM-15+0012ETNT V0201101N00571001501CN0060001N1+00001-00201999999ADDGA1075+001501999GF107991999999999999999999MA1103121999999REMMET051ETNT 080320Z 11011KT 6000 BKN005 M00/M02 Q1031 YLO;
0187101260999992006010804004+53550+007667FM-12+0012ETNT V0201101N006010015019N0060001N1-00051-00171103061ADDAY121999AY221999GA1071+001501071GF108991071061001501999999MA1999999102911MD1810011+9999MW1101REMSYN082AAXX  08041 10126 41256 81106 11005 21017 30291 40306 58001 71022 876// 333 87705;
0120101260999992006010804204+53550+007667FM-15+0012ETNT V0201101N00511001201CN0060001N1-00101-00201999999ADDGA1075+001201999GF107991999999999999999999MA1103011999999REMMET051ETNT 080420Z 11010KT 6000 BKN004 M01/M02 Q1030 YLO;
0187101260999992006010805004+53550+007667FM-12+0012ETNT V0201001N006010015019N0050001N1-00091-00201103061ADDAY121999AY221999GA1071+001501071GF108991071061001501999999MA1999999102911MD1810021+9999MW1101REMSYN082AAXX  08051 10126 41250 81006 11009 21020 30291 40306 58002 71022 876// 333 87705;
0120101260999992006010805204+53550+007667FM-15+0012ETNT V0201101N00511001501CN0060001N1-00101-00201999999ADDGA1075+001501999GF107991999999999999999999MA1103011999999REMMET051ETNT 080520Z 11010KT 6000 BKN005 M01/M02 Q1030 YLO;
0129101260999992006010806204+53550+007667FM-15+0012ETNT V0201001N00511000901CN0040001N1-00101-00201999999ADDGA1075+000901999GF107991999999999999999999MA1103011999999MW1101REMMET054ETNT 080620Z 10010KT 4000 BR BKN003 M01/M02 Q1030 YLO;
0187101260999992006010807004+53550+007667FM-12+0012ETNT V0201101N005010012019N0040001N1-00121-00201103081ADDAY121999AY221999GA1071+001201071GF108991071061001501999999MA1999999102931MD1310021+9999MW1101REMSYN082AAXX  08071 10126 41240 81105 11012 21020 30293 40308 53002 71022 876// 333 87704;
0129101260999992006010807204+53550+007667FM-15+0012ETNT V0201301N00461001201CN0040001N1-00101-00201999999ADDGA1075+001201999GF107991999999999999999999MA1103011999999MW1101REMMET054ETNT 080720Z 13009KT 4000 BR BKN004 M01/M02 Q1030 YLO;
0187101260999992006010808004+53550+007667FM-12+0012ETNT V0201301N004010012019N0040001N1-00141-00231103091ADDAY121999AY221999GA1071+001201071GF108991071061001501999999MA1999999102941MD1310031+9999MW1101REMSYN082AAXX  08081 10126 41240 81304 11014 21023 30294 40309 53003 71022 876// 333 87704;
0129101260999992006010808204+53550+007667FM-15+0012ETNT V0201201N00411001201CN0035001N1-00101-00301999999ADDGA1075+001201999GF107991999999999999999999MA1103121999999MW1101REMMET054ETNT 080820Z 12008KT 3500 BR BKN004 M01/M03 Q1031 YLO;
0129101260999992006010809204+53550+007667FM-15+0012ETNT V0201301N00411001501CN0040001N1-00201-00301999999ADDGA1075+001501999GF107991999999999999999999MA1103121999999MW1101REMMET054ETNT 080920Z 13008KT 4000 BR BKN005 M02/M03 Q1031 YLO;
0129101260999992006010809404+53550+007667FM-16+0012ETNT V0201201N00461002101CN0040001N1-00201-00301999999ADDGA1075+002101999GF107991999999999999999999MA1103121999999MW1101REMMET054ETNT 080940Z 12009KT 4000 BR BKN007 M02/M03 Q1031 GRN;
0187101260999992006010810004+53550+007667FM-12+0012ETNT V0201201N005010021019N0040001N1-00171-00291103151ADDAY121999AY221999GA1071+002101071GF108991071061002501999999MA1999999103001MD1210071+9999MW1101REMSYN082AAXX  08101 10126 41340 81205 11017 21029 30300 40315 52007 71022 876// 333 87707;
0129101260999992006010810204+53550+007667FM-15+0012ETNT V0201101N00411002101CN0040001N1-00201-00301999999ADDGA1075+002101999GF107991999999999999999999MA1103121999999MW1101REMMET054ETNT 081020Z 11008KT 4000 BR BKN007 M02/M03 Q1031 GRN;
0187101260999992006010811004+53550+007667FM-12+0012ETNT V0201101N005010021019N0045001N1-00161-00321103141ADDAY121999AY221999GA1071+002101071GF108991071061002501999999MA1999999102991MD1010051+9999MW1101REMSYN082AAXX  08111 10126 41345 81105 11016 21032 30299 40314 50005 71022 876// 333 87707;
0152101260999992006010811204+53550+007667FM-15+0012ETNT V0201101N00511003001CN0050001N1-00201-00301999999ADDGA1075+003001999GA2085+005101999GF108991999999999999999999MA1103121999999MW1101REMMET061ETNT 081120Z 11010KT 5000 BR BKN010 OVC017 M02/M03 Q1031 GRN;
0152101260999992006010812204+53550+007667FM-15+0012ETNT V0201101N00511002401CN0050001N1-00101-00301999999ADDGA1075+002401999GA2075+005101999GF107991999999999999999999MA1103121999999MW1101REMMET061ETNT 081220Z 11010KT 5000 BR BKN008 BKN017 M01/M03 Q1031 GRN;
0193101260999992006010813004+53550+007667FM-12+0012ETNT V0201001N006010024019N0050001N1-00131-00311103081ADDAY121999AY221999GA1051+002401071GF108991071051002501999999MA1999999102931MD1810071+9999MW1101REMSYN088AAXX  08131 10126 41350 81006 11013 21031 30293 40308 58007 71022 875// 333 85708 87621;
0152101260999992006010813204+53550+007667FM-15+0012ETNT V0201101N00511002401CN0050001N1-00101-00301999999ADDGA1075+002401999GA2075+006301999GF107991999999999999999999MA1103011999999MW1101REMMET061ETNT 081320Z 11010KT 5000 BR BKN008 BKN021 M01/M03 Q1030 GRN;
0257101260999992006010814004+53550+007667FM-12+0012ETNT V0201101N005010024019N0050001N1-00121-00301103111ADDAY121999AY221999GA1051+002401071GA2071+006301061GF108991071051002501999999MA1999999102961MD1510031+9999MW1101REMSYN136AAXX  08141 10126 41350 81105 11012 21030 30296 40311 55003 71022 875// 333 85708 87621 555 BOT 10001 20004 30013 40032 999 3//// 46///;
0152101260999992006010814204+53550+007667FM-15+0012ETNT V0201001N00511002401CN0045001N1-00101-00301999999ADDGA1075+002401999GA2075+006301999GF107991999999999999999999MA1103121999999MW1101REMMET061ETNT 081420Z 10010KT 4500 BR BKN008 BKN021 M01/M03 Q1031 GRN;
0152101260999992006010815204+53550+007667FM-15+0012ETNT V0201101N00461006301CN0045001N1-00101-00301999999ADDGA1045+002401999GA2075+006301999GF107991999999999999999999MA1103121999999MW1101REMMET061ETNT 081520Z 11009KT 4500 BR SCT008 BKN021 M01/M03 Q1031 GRN;
0193101260999992006010816004+53550+007667FM-12+0012ETNT V0201101N00401002101CN0040001N1-00101-00281103111ADDAY121999AY221999GA1031+002401071GF108991071051002501999999MA1999999102961MD1110031+9999MW1101REMSYN088AAXX  08161 10126 41340 81104 11010 21028 30296 40311 51003 71022 875// 333 83708 87621;
0152101260999992006010816204+53550+007667FM-15+0012ETNT V0201101N00461006301CN0040001N1-00101-00301999999ADDGA1025+002401999GA2075+006301999GF107991999999999999999999MA1103121999999MW1101REMMET061ETNT 081620Z 11009KT 4000 BR FEW008 BKN021 M01/M03 Q1031 GRN;
0193101260999992006010817004+53550+007667FM-12+0012ETNT V0201101N00501002101CN0045001N1-00111-00311103151ADDAY121999AY221999GA1021+002401071GF108991071051002501999999MA1999999103001MD1310041+9999MW1101REMSYN088AAXX  08171 10126 41345 81105 11011 21031 30300 40315 53004 71022 875// 333 82708 87620;
0152101260999992006010817204+53550+007667FM-15+0012ETNT V0201101N00461006001CN0050001N1-00101-00301999999ADDGA1025+002401999GA2075+006001999GF107991999999999999999999MA1103121999999MW1101REMMET061ETNT 081720Z 11009KT 5000 BR FEW008 BKN020 M01/M03 Q1031 WHT;
0129101260999992006010818204+53550+007667FM-15+0012ETNT V0201201N00411006001CN0050001N1-00101-00301999999ADDGA1075+006001999GF107991999999999999999999MA1103121999999MW1101REMMET054ETNT 081820Z 12008KT 5000 BR BKN020 M01/M03 Q1031 WHT;
0187101260999992006010819004+53550+007667FM-12+0012ETNT V0201201N005010060019N0050001N1-00111-00331103171ADDAY121999AY221999GA1071+006001061GF108991071051008001999999MA1999999103021MD1110061+9999MW1101REMSYN082AAXX  08191 10126 41550 81205 11011 21033 30302 40317 51006 71022 875// 333 87620;
0129101260999992006010819204+53550+007667FM-15+0012ETNT V0201201N00361006001CN0050001N1-00101-00301999999ADDGA1075+006001999GF107991999999999999999999MA1103181999999MW1101REMMET054ETNT 081920Z 12007KT 5000 BR BKN020 M01/M03 Q1032 WHT;
0187101260999992006010820004+53550+007667FM-12+0012ETNT V0201101N004010054019N0050001N1-00131-00331103231ADDAY121999AY221999GA1071+005401061GF108991071051004501999999MA1999999103081MD1210081+9999MW1101REMSYN082AAXX  08201 10126 41450 81104 11013 21033 30308 40323 52008 71022 875// 333 87618;
0129101260999992006010820204+53550+007667FM-15+0012ETNT V0201101N00361005101CN0050001N1-00101-00301999999ADDGA1075+005101999GF107991999999999999999999MA1103181999999MW1101REMMET054ETNT 082020Z 11007KT 5000 BR BKN017 M01/M03 Q1032 WHT;
0129101260999992006010821204+53550+007667FM-15+0012ETNT V0201101N00361004801CN0050001N1-00101-00301999999ADDGA1075+004801999GF107991999999999999999999MA1103181999999MW1101REMMET054ETNT 082120Z 11007KT 5000 BR BKN016 M01/M03 Q1032 WHT;
0187101260999992006010822004+53550+007667FM-12+0012ETNT V0201101N004010048019N0050001N1-00131-00331103251ADDAY121999AY221999GA1071+004801061GF108991071051004501999999MA1999999103101MD1210081+9999MW1101REMSYN082AAXX  08221 10126 41450 81104 11013 21033 30310 40325 52008 71022 875// 333 87616;
0129101260999992006010822204+53550+007667FM-15+0012ETNT V0201101N00411003901CN0045001N1-00101-00301999999ADDGA1075+003901999GF107991999999999999999999MA1103181999999MW1101REMMET054ETNT 082220Z 11008KT 4500 BR BKN013 M01/M03 Q1032 GRN;
0187101260999992006010823004+53550+007667FM-12+0012ETNT V0201101N004010033019N0045001N1-00151-00341103251ADDAY121999AY221999GA1071+003301071GF108991071061004501999999MA1999999103101MD1110021+9999MW1101REMSYN082AAXX  08231 10126 41445 81104 11015 21034 30310 40325 51002 71022 876// 333 87711;
0129101260999992006010823204+53550+007667FM-15+0012ETNT V0201101N00411002401CN0040001N1-00201-00401999999ADDGA1075+002401999GF107991999999999999999999MA1103181999999MW1101REMMET054ETNT 082320Z 11008KT 4000 BR BKN008 M02/M04 Q1032 GRN;
0129101260999992006010900204+53550+007667FM-15+0012ETNT V0201101N00411002401CN0045001N1-00201-00401999999ADDGA1075+002401999GF107991999999999999999999MA1103181999999MW1101REMMET054ETNT 090020Z 11008KT 4500 BR BKN008 M02/M04 Q1032 GRN;
0187101260999992006010901004+53550+007667FM-12+0012ETNT V0201101N003010021019N0045001N1-00181-00351103221ADDAY121999AY221999GA1071+002101071GF108991071061002501999999MA1999999103071MD1810031+9999MW1101REMSYN082AAXX  09011 10126 41345 81103 11018 21035 30307 40322 58003 71022 876// 333 87707;
0129101260999992006010901204+53550+007667FM-15+0012ETNT V0201101N00311002101CN0045001N1-00201-00401999999ADDGA1075+002101999GF107991999999999999999999MA1103181999999MW1101REMMET054ETNT 090120Z 11006KT 4500 BR BKN007 M02/M04 Q1032 GRN;
0187101260999992006010902004+53550+007667FM-12+0012ETNT V0200901N004010021019N0045001N1-00221-00401103201ADDAY121999AY221999GA1071+002101071GF108991071061002501999999MA1999999103051MD1710051+9999MW1101REMSYN082AAXX  09021 10126 41345 80904 11022 21040 30305 40320 57005 71022 876// 333 87707;
0129101260999992006010902204+53550+007667FM-15+0012ETNT V0201001N00361002101CN0050001N1-00201-00401999999ADDGA1075+002101999GF107991999999999999999999MA1103181999999MW1101REMMET054ETNT 090220Z 10007KT 5000 BR BKN007 M02/M04 Q1032 GRN;
0129101260999992006010903204+53550+007667FM-15+0012ETNT V0200901N00311001801CN0040001N1-00201-00401999999ADDGA1075+001801999GF107991999999999999999999MA1103181999999MW1101REMMET054ETNT 090320Z 09006KT 4000 BR BKN006 M02/M04 Q1032 YLO;
0187101260999992006010904004+53550+007667FM-12+0012ETNT V0201001N003010018019N0040001N1-00251-00401103181ADDAY121999AY221999GA1071+001801071GF108991071061002501999999MA1999999103031MD1710041+9999MW1101REMSYN082AAXX  09041 10126 41340 81003 11025 21040 30303 40318 57004 71022 876// 333 87706;
0133101260999992006010904204+53550+007667FM-15+0012ETNT V0201101N00411001201CN0035001N1-00301-00401999999ADDGA1075+001201999GF107991999999999999999999MA1103121999999MW1101REMMET058ETNT 090420Z 11008KT 3500 BR BKN004 M03/M04 Q1031 YLO YLO;
0187101260999992006010905004+53550+007667FM-12+0012ETNT V0201101N004010012019N0035001N1-00281-00411103141ADDAY121999AY221999GA1071+001201071GF108991071061001501999999MA1999999102991MD1710061+9999MW1101REMSYN082AAXX  09051 10126 41235 81104 11028 21041 30299 40314 57006 71022 876// 333 87704;
0133101260999992006010905204+53550+007667FM-15+0012ETNT V0201101N00311001201CN0035001N1-00301-00401999999ADDGA1075+001201999GF107991999999999999999999MA1103121999999MW1101REMMET058ETNT 090520Z 11006KT 3500 BR BKN004 M03/M04 Q1031 YLO YLO;
0133101260999992006010906204+53550+007667FM-15+0012ETNT V0201201N00311000901CN0032001N1-00401-00501999999ADDGA1075+000901999GF107991999999999999999999MA1103121999999MW1101REMMET058ETNT 090620Z 12006KT 3200 BR BKN003 M04/M05 Q1031 YLO YLO;
0187101260999992006010907004+53550+007667FM-12+0012ETNT V0201201N004010009019N0030001N1-00421-00521103141ADDAY121999AY221999GA1071+000901071GF108991071061001501999999MA1999999102991MD1510041+9999MW1101REMSYN082AAXX  09071 10126 41230 81204 11042 21052 30299 40314 55004 71022 876// 333 87703;
0143101260999992006010907084+53550+007667FM-16+0012ETNT V0201001N00311000601CN0025001N1-00401-00501999999ADDGA1075+000601999GF107991999999999999999999MA1103121999999MW1101REMMET068ETNT 090708Z 10006KT 2500 BR BKN002 M04/M05 Q1031 AMB YLO TEMPO AMB;
0143101260999992006010907204+53550+007667FM-15+0012ETNT V0201001N00361000601CN0020001N1-00401-00501999999ADDGA1075+000601999GF107991999999999999999999MA1103121999999MW1101REMMET068ETNT 090720Z 10007KT 2000 BR BKN002 M04/M05 Q1031 AMB YLO TEMPO AMB;
0193101260999992006010907334+53550+007667FM-16+0012ETNT V0201201N00361000601CN0014001N1-00401-00501999999ADDED108U21009GA1045+000301999GA2075+000601999GF107991999999999999999999MA1103121999999MW1101REMMET091SPECI ETNT 090733Z 12007KT 1400 R08/2100D BR SCT001 BKN002 M04/M05 Q1031 AMB YLO TEMPO AMB;
0193101260999992006010908004+53550+007667FM-12+0012ETNT V0201001N003010006019N0015001N1-00451-00531103161ADDAY121999AY221999GA1041+000301071GF108991081061000751999999MA1999999103011MD1310021+9999MW1101REMSYN088AAXX  09081 10126 41115 81003 11045 21053 30301 40316 53002 71022 886// 333 84701 88702;
0164101260999992006010908204+53550+007667FM-15+0012ETNT V0201101N00311000601CN0016001N1-00501-00501999999ADDED108U19009GA1075+000601999GF107991999999999999999999MA1103121999999MW1101REMMET078ETNT 090820Z 11006KT 1600 R08/1900N BR BKN002 M05/M05 Q1031 AMB YLO TEMPO AMB;
0133101260999992006010909204+53550+007667FM-15+0012ETNT V0201201N00311000901CN0025001N1-00501-00501999999ADDGA1075+000901999GF107991999999999999999999MA1103121999999MW1101REMMET058ETNT 090920Z 12006KT 2500 BR BKN003 M05/M05 Q1031 YLO YLO;
0187101260999992006010910004+53550+007667FM-12+0012ETNT V0201101N004010012019N0030001N1-00451-00571103091ADDAY121999AY221999GA1071+001201071GF107991071061002501999999MA1999999102941MD1810051+9999MW1101REMSYN082AAXX  09101 10126 41330 71104 11045 21057 30294 40309 58005 71022 876// 333 87704;
0143101260999992006010910204+53550+007667FM-15+0012ETNT V0201201N003612200019N0032001N1-00401-00501999999ADDGA1045+001801999GF104991999999999999999999MA1103011999999MW1101REMMET068ETNT 091020Z 12007KT 3200 BR SCT006 M04/M05 Q1030 YLO YLO BECMG GRN;
0187101260999992006010911004+53550+007667FM-12+0012ETNT V0201401N003012200019N0035001N1-00321-00511103061ADDAY111999AY211999GA1021+002101071GF102991021061002501001001MA1999999102911MD1810101+9999MW1101REMSYN082AAXX  09111 10126 41335 21403 11032 21051 30291 40306 58010 71011 82600 333 82707;
0133101260999992006010911204+53550+007667FM-15+0012ETNT V0201301N002612200019N0037001N1-00201-00501999999ADDGA1025+002401999GF102991999999999999999999MA1103011999999MW1101REMMET058ETNT 091120Z 13005KT 3700 BR FEW008 M02/M05 Q1030 GRN GRN;
0084101260999992006010912204+53550+007667FM-15+0012ETNT V0201601N002112200019N0045001N1-00201-00501999999ADDMA1102911999999MW1101REMMET051ETNT 091220Z 16004KT 4500 BR M02/M05 Q1029 GRN GRN;
0171101260999992006010913004+53550+007667FM-12+0012ETNT V0201401N002012200019N0045001N1-00081-00401102971ADDAY101999AY201999GA1001+999999999GF100991001001999999001001MA1999999102821MD1710121+9999MW1101REMSYN066AAXX  09131 10126 41945 01402 11008 21040 30282 40297 57012 71000;
0084101260999992006010913204+53550+007667FM-15+0012ETNT V0201401N001512200019N0045001N1-00101-00401999999ADDMA1102911999999MW1101REMMET051ETNT 091320Z 14003KT 4500 BR M01/M04 Q1029 GRN GRN;
0219101260999992006010914004+53550+007667FM-12+0012ETNT V0209999V001012200019N0045001N1-00061-00431102951ADDAY101999AY201999GA1001+999999999GF100991001001999999001001MA1999999102801MD1710111+9999MW1101REMSYN114AAXX  09141 10126 41945 09901 11006 21043 30280 40295 57011 71000 555 BOT 11002 20003 30011 40029 999 34/// 45///;
0084101260999992006010914204+53550+007667FM-15+0012ETNT V0201901N000512200019N0050001N1-00101-00501999999ADDMA1102911999999MW1101REMMET051ETNT 091420Z 19001KT 5000 BR M01/M05 Q1029 WHT WHT;
0084101260999992006010915204+53550+007667FM-15+0012ETNT V0201101N001512200019N0045001N1-00301-00601999999ADDMA1102911999999MW1101REMMET051ETNT 091520Z 11003KT 4500 BR M03/M06 Q1029 GRN WHT;
0171101260999992006010916004+53550+007667FM-12+0012ETNT V0201101N001012200019N0045001N1-00351-00611102911ADDAY101999AY201999GA1001+999999999GF100991001001999999001001MA1999999102761MD1710061+9999MW1111REMSYN066AAXX  09161 10126 41945 01101 11035 21061 30276 40291 57006 71100;
0095101260999992006010916204+53550+007667FM-15+0012ETNT V0201201N001512200019N0040001N1-00401-00601999999ADDMA1102911999999MW1101MW2121REMMET056ETNT 091620Z 12003KT 4000 MIFG BR M04/M06 Q1029 GRN WHT;
0156101260999992006010917004+53550+007667FM-12+0012ETNT V0201201N002012200019N0040001N1-00491-00681102871ADDAY101999AY201999GA1001+999999999GF100991001001999999001001MD1710081+9999MW1111REMSYN066AAXX  09171 10126 41940 01202 11049 21068 30727 40287 57008 71100;
0084101260999992006010917204+53550+007667FM-15+0012ETNT V0201201N002612200019N0040001N1-00501-00601999999ADDMA1102811999999MW1101REMMET051ETNT 091720Z 12005KT 4000 BR M05/M06 Q1028 GRN WHT;
0090101260999992006010918204+53550+007667FM-15+0012ETNT V0201401N002612200019N0040001N1-00501-00601999999ADDMA1102811999999MW1101REMMET057METAR ETNT 091820Z 14005KT 4000 BR M05/M06 Q1028 GRN GRN;
0171101260999992006010919004+53550+007667FM-12+0012ETNT V0201401N003012200019N0040001N1-00461-00581102851ADDAY101999AY201999GA1001+999999999GF100991001001999999001001MA1999999102701MD1510061+9999MW1101REMSYN066AAXX  09191 10126 41940 01403 11046 21058 30270 40285 55006 71000;
