0145101260999992008010100204+53550+007667FM-15+0012ETNT V0209999V000510090019N0112651N1+00001+00001999999ADDED199U11009GA1071+009001999GF107991999999999999999999MA1102811999999REMMET065METAR ETNT 010020Z VRB01KT 9999 R26/1100N BKN030 00/00 Q1028 BLU;
0187101260999992008010101004+53550+007667FM-12+0012ETNT V0202801N001010090019N0100001N1-00021-00021102831ADDAY121999AY221999GA1071+009001061GF107991071051008001999999MA1999999102681MD1810021+9999MW1111REMSYN082AAXX  01011 10126 41560 72801 11002 21002 30268 40283 58002 71122 875// 333 87630;
0146101260999992008010101204+53550+007667FM-15+0012ETNT V0203101N001010090019N0112651N1+00101+00001999999ADDED199U10009GA1071+009001999GF107991999999999999999999MA1102811999999REMMET066METAR ETNT 010120Z 31002KT 9999 R26/1000N BKN030 01/M00 Q1028 BLU;
0187101260999992008010102004+53550+007667FM-12+0012ETNT V0209999C000010090019N0100001N1+00041+00001102831ADDAY121999AY221999GA1071+009001061GF107991071051008001999999MA1999999102681MD1610021+9999MW1111REMSYN082AAXX  01021 10126 41560 70000 10004 20000 30268 40283 56002 71122 875// 333 87630;
0147101260999992008010103204+53550+007667FM-15+0012ETNT V0209999C000010090019N0112651N1-00101-00101999999ADDED199U03509GA1071+009001999GF107991999999999999999999MA1102811999999REMMET067METAR ETNT 010320Z 00000KT 9999 R26/0350N BKN030 M01/M01 Q1028 BLU;
0187101260999992008010104004+53550+007667FM-12+0012ETNT V0200401N001010090019N0050001N1-00091-00201102791ADDAY121999AY221999GA1071+009001061GF107991071051008001999999MA1999999102641MD1610041+9999MW1111REMSYN082AAXX  01041 10126 41550 70401 11009 21020 30264 40279 56004 71122 875// 333 87630;
0190101260999992008010104204+53550+007667FM-15+0012ETNT V0200801N001012200019N0030001N1-00101-00101999999ADDED199U03009GA1041+001501999GA2041+009001999GF104991999999999999999999MA1102711999999MW1101MW2121REMMET082METAR ETNT 010420Z 08002KT 3000 R26/0300N MIFG BR SCT005 SCT030 M01/M01 Q1027 YLO;
0193101260999992008010105004+53550+007667FM-12+0012ETNT V0200601N00201220001CN0030001N1-00021-00191102791ADDAY121999AY221999GA1021+001501071GF105991021061001501001011MA1999999102641MD1610041+9999MW1111REMSYN088AAXX  01051 10126 41230 50602 11002 21019 30264 40279 56004 71122 82601 333 82705 85071;
0181101260999992008010105204+53550+007667FM-15+0012ETNT V0201001N002110630019N0006001N1-00101-00101999999ADDED199U11009GA1021+000301999GA2071+063001999GF107991999999999999999999MA1102711999999MW1481REMMET079METAR ETNT 010520Z 10004KT 0600 R26/1100N FZFG FEW001 BKN210 M01/M01 Q1027 RED;
0156101260999992008010106204+53550+007667FM-15+0012ETNT V0201101N001010060019N0020001N1-00101-00201999999ADDED199U12009GA1071+006001999GF107991999999999999999999MA1102711999999MW1101REMMET070METAR ETNT 010620Z 11002KT 2000 R26/1200N BR BKN020 M01/M02 Q1027 YLO;
0235101260999992008010107004+53550+007667FM-12+0012ETNT V0200301N002010060019N0025001N1+00001-00031102761ADDAY141999AY221999GA1071+006001061GF107991071051008001999999MA1999999102611MD1810031+9999MW1281REMSYN130AAXX  01071 10126 41525 70302 10000 21003 30261 40276 58003 72842 875// 333 87620 555 BOT 10002 20012 30023 40046 50064 999 34///;
0133101260999992008010107204+53550+007667FM-15+0012ETNT V0200701N001510066019N0037001N1+00101+00101999999ADDGA1071+006601999GF107991999999999999999999MA1102711999999MW1101REMMET058METAR ETNT 010720Z 07003KT 3700 BR BKN022 01/01 Q1027 GRN;
0187101260999992008010108004+53550+007667FM-12+0012ETNT V0200501N001010069019N0045001N1+00081+00071102761ADDAY121999AY221999GA1071+006901061GF107991071051008001999999MA1999999102611MD1610031+9999MW1101REMSYN082AAXX  01081 10126 41545 70501 10008 20007 30261 40276 56003 71022 875// 333 87623;
0135101260999992008010108204+53550+007667FM-15+0012ETNT V0200301N000510069019N0080001N1+00101+00101999999ADDGA1071+006901999GF107991999999999999999999MA1102711999999MW1121REMMET060METAR ETNT 010820Z 03001KT 8000 MIFG BKN023 01/01 Q1027 WHT;
0135101260999992008010109204+53550+007667FM-15+0012ETNT V0200901N001010069019N0080001N1+00101+00101999999ADDGA1071+006901999GF107991999999999999999999MA1102711999999MW1121REMMET060METAR ETNT 010920Z 09002KT 8000 MIFG BKN023 01/01 Q1027 WHT;
0187101260999992008010110004+53550+007667FM-12+0012ETNT V0200901N002010075019N0100001N1+00111+00091102791ADDAY121999AY221999GA1071+007501061GF107991071051008001999999MA1999999102641MD1310031+9999MW1111REMSYN082AAXX  01101 10126 41560 70902 10011 20009 30264 40279 53003 71122 875// 333 87625;
0157101260999992008010110204+53550+007667FM-15+0012ETNT V0200501N002110066019N0112651N1+00101+00001999999ADDGA1041+003001999GA2071+006601999GF107991999999999999999999MA1102711999999MW1611REMMET066METAR ETNT 011020Z 05004KT 9999 -RA SCT010 BKN022 01/00 Q1027 WHT;
0193101260999992008010111004+53550+007667FM-12+0012ETNT V0200801N00201004201CN0120001N1+00131+00021102791ADDAY121999AY221999GA1021+003001071GF107991071051004501999999MA1999999102641MD1110031+9999MW1211REMSYN088AAXX  01111 10126 41462 70802 10013 20002 30264 40279 51003 72122 875// 333 82710 87628;
0125101260999992008010111204+53550+007667FM-15+0012ETNT V0200801N002610081019N0112651N1+00101+00001999999ADDGA1071+008101999GF107991999999999999999999MA1102711999999REMMET056METAR ETNT 011120Z 08005KT 9999 BKN027 01/M00 Q1027 BLU;
0125101260999992008010112204+53550+007667FM-15+0012ETNT V0200701N001510060019N0112651N1+00201-00101999999ADDGA1071+006001999GF107991999999999999999999MA1102711999999REMMET056METAR ETNT 011220Z 07003KT 9999 BKN020 02/M01 Q1027 WHT;
0165101260999992008010113004+53550+007667FM-12+0012ETNT V0200401N00201009001CN0300001N1+00171-00251102731ADDGA1021+005401081GF107991071081004501999999MA1999999102581MD1810061+9999REMSYN082AAXX  01131 10126 42480 70402 10017 21025 30258 40273 58006 878// 333 82818 87624;
0148101260999992008010113204+53550+007667FM-15+0012ETNT V0200501N003110075019N0112651N1+00101-00301999999ADDGA1021+005401999GA2071+007501999GF107991999999999999999999MA1102711999999REMMET063METAR ETNT 011320Z 05006KT 9999 FEW018 BKN025 01/M03 Q1027 BLU;
0165101260999992008010114004+53550+007667FM-12+0012ETNT V0200601N00301009001CN0300001N1+00131-00321102661ADDGA1021+005401081GF107991071081004501999999MA1999999102511MD1710081+9999REMSYN082AAXX  01141 10126 42480 70603 10013 21032 30251 40266 57008 878// 333 82818 87625;
0148101260999992008010114204+53550+007667FM-15+0012ETNT V0201001N002610075019N0112651N1+00101-00401999999ADDGA1021+005401999GA2071+007501999GF107991999999999999999999MA1102711999999REMMET063METAR ETNT 011420Z 10005KT 9999 FEW018 BKN025 01/M04 Q1027 BLU;
0125101260999992008010115204+53550+007667FM-15+0012ETNT V0201301N001010078019N0112651N1+00101-00301999999ADDGA1071+007801999GF107991999999999999999999MA1102711999999REMMET056METAR ETNT 011520Z 13002KT 9999 BKN026 01/M03 Q1027 BLU;
0159101260999992008010116004+53550+007667FM-12+0012ETNT V0201401N001010078019N0300001N1+00051-00311102701ADDGA1071+007801061GF107991071051008001999999MA1999999102551MD1610031+9999REMSYN076AAXX  01161 10126 42580 71401 10005 21031 30255 40270 56003 875// 333 87626;
0125101260999992008010116204+53550+007667FM-15+0012ETNT V0200601N001010078019N0112651N1+00101-00301999999ADDGA1071+007801999GF107991999999999999999999MA1102711999999REMMET056METAR ETNT 011620Z 06002KT 9999 BKN026 01/M03 Q1027 BLU;
0159101260999992008010117004+53550+007667FM-12+0012ETNT V0200701N001010078019N0300001N1+00071-00321102721ADDGA1071+007801061GF107991071051008001999999MA1999999102571MD1310011+9999REMSYN076AAXX  01171 10126 42580 70701 10007 21032 30257 40272 53001 875// 333 87626;
0125101260999992008010117204+53550+007667FM-15+0012ETNT V0201001N001010084019N0112651N1+00101-00301999999ADDGA1071+008401999GF107991999999999999999999MA1102711999999REMMET056METAR ETNT 011720Z 10002KT 9999 BKN028 01/M03 Q1027 BLU;
0125101260999992008010118204+53550+007667FM-15+0012ETNT V0200501N001010081019N0112651N1+00001-00301999999ADDGA1071+008101999GF107991999999999999999999MA1102711999999REMMET056METAR ETNT 011820Z 05002KT 9999 BKN027 00/M03 Q1027 BLU;
0159101260999992008010119004+53550+007667FM-12+0012ETNT V0200501N001010081019N0300001N1+00031-00291102751ADDGA1071+008101061GF107991071051008001999999MA1999999102601MD1210051+9999REMSYN076AAXX  01191 10126 42580 70501 10003 21029 30260 40275 52005 875// 333 87627;
0125101260999992008010119204+53550+007667FM-15+0012ETNT V0201001N001010081019N0112651N1+00001-00301999999ADDGA1071+008101999GF107991999999999999999999MA1102711999999REMMET056METAR ETNT 011920Z 10002KT 9999 BKN027 00/M03 Q1027 BLU;
0159101260999992008010120004+53550+007667FM-12+0012ETNT V0200701N002010078019N0250001N1+00021-00271102751ADDGA1071+007801061GF107991071051008001999999MA1999999102601MD1110031+9999REMSYN076AAXX  01201 10126 42575 70702 10002 21027 30260 40275 51003 875// 333 87626;
0125101260999992008010120204+53550+007667FM-15+0012ETNT V0200801N001010081019N0112651N1+00101-00201999999ADDGA1071+008101999GF107991999999999999999999MA1102711999999REMMET056METAR ETNT 012020Z 08002KT 9999 BKN027 01/M02 Q1027 BLU;
0125101260999992008010121204+53550+007667FM-15+0012ETNT V0200701N001010078019N0112651N1+00101-00101999999ADDGA1071+007801999GF107991999999999999999999MA1102711999999REMMET056METAR ETNT 012120Z 07002KT 9999 BKN026 01/M01 Q1027 BLU;
0159101260999992008010122004+53550+007667FM-12+0012ETNT V0200701N002010075019N0150001N1+00061-00121102741ADDGA1071+007501061GF107991071051008001999999MA1999999102591MD1710011+9999REMSYN076AAXX  01221 10126 42565 70702 10006 21012 30259 40274 57001 875// 333 87625;
0125101260999992008010122204+53550+007667FM-15+0012ETNT V0201001N001510075019N0112651N1+00101-00101999999ADDGA1071+007501999GF107991999999999999999999MA1102711999999REMMET056METAR ETNT 012220Z 10003KT 9999 BKN025 01/M01 Q1027 BLU;
0159101260999992008010123004+53550+007667FM-12+0012ETNT V0200901N001010078019N0200001N1+00061-00091102741ADDGA1071+007801061GF108991071051008001999999MA1999999102591MD1610011+9999REMSYN076AAXX  01231 10126 42570 80901 10006 21009 30259 40274 56001 875// 333 87626;
0125101260999992008010123204+53550+007667FM-15+0012ETNT V0201001N001510075019N0112651N1+00101-00101999999ADDGA1071+007501999GF107991999999999999999999MA1102711999999REMMET056METAR ETNT 012320Z 10003KT 9999 BKN025 01/M01 Q1027 BLU;
0125101260999992008010200204+53550+007667FM-15+0012ETNT V0200801N002110075019N0112651N1+00101-00101999999ADDGA1071+007501999GF107991999999999999999999MA1102711999999REMMET056METAR ETNT 020020Z 08004KT 9999 BKN025 01/M01 Q1027 BLU;
0159101260999992008010201004+53550+007667FM-12+0012ETNT V0200901N002010075019N0200001N1+00091-00121102711ADDGA1071+007501061GF108991071051008001999999MA1999999102561MD1810031+9999REMSYN076AAXX  02011 10126 42570 80902 10009 21012 30256 40271 58003 875// 333 87625;
0125101260999992008010201204+53550+007667FM-15+0012ETNT V0200601N002110069019N0112651N1+00101-00101999999ADDGA1071+006901999GF107991999999999999999999MA1102711999999REMMET056METAR ETNT 020120Z 06004KT 9999 BKN023 01/M01 Q1027 WHT;
0159101260999992008010202004+53550+007667FM-12+0012ETNT V0200601N001010069019N0250001N1+00111-00131102711ADDGA1071+006901061GF108991071051008001999999MA1999999102561MD1610031+9999REMSYN076AAXX  02021 10126 42575 80601 10011 21013 30256 40271 56003 875// 333 87623;
0125101260999992008010202204+53550+007667FM-15+0012ETNT V0200501N001010063019N0112651N1+00101-00101999999ADDGA1071+006301999GF107991999999999999999999MA1102711999999REMMET056METAR ETNT 020220Z 05002KT 9999 BKN021 01/M01 Q1027 WHT;
0125101260999992008010203204+53550+007667FM-15+0012ETNT V0200301N001010045019N0112651N1+00101-00101999999ADDGA1071+004501999GF107991999999999999999999MA1102611999999REMMET056METAR ETNT 020320Z 03002KT 9999 BKN015 01/M01 Q1026 WHT;
0125101260999992008010203394+53550+007667FM-16+0012ETNT V0200701N002610039019N0112651N1+00101-00101999999ADDGA1071+003901999GF107991999999999999999999MA1102611999999REMMET056SPECI ETNT 020339Z 07005KT 9999 BKN013 01/M01 Q1026 GRN;
0159101260999992008010204004+53550+007667FM-12+0012ETNT V0200801N003010036019N0150001N1+00151-00031102641ADDGA1071+003601061GF108991071051004501999999MA1999999102491MD1810071+9999REMSYN076AAXX  02041 10126 42465 80803 10015 21003 30249 40264 58007 875// 333 87612;
0124101260999992008010204204+53550+007667FM-15+0012ETNT V0200601N002110024019N0112651N1+00201+00001999999ADDGA1071+002401999GF107991999999999999999999MA1102611999999REMMET055METAR ETNT 020420Z 06004KT 9999 BKN008 02/00 Q1026 GRN;
0165101260999992008010205004+53550+007667FM-12+0012ETNT V0200801N00301002101CN0150001N1+00171+00041102631ADDGA1021+002101071GF107991071051002501999999MA1999999102481MD1710081+9999REMSYN082AAXX  02051 10126 42365 70803 10017 20004 30248 40263 57008 875// 333 82707 87613;
0148101260999992008010205204+53550+007667FM-15+0012ETNT V0201001N004110048019N0112651N1+00101+00001999999ADDGA1041+002401999GA2071+004801999GF107991999999999999999999MA1102611999999REMMET063METAR ETNT 020520Z 10008KT 9999 SCT008 BKN016 01/M00 Q1026 WHT;
0159101260999992008010207004+53550+007667FM-12+0012ETNT V0200801N003010102019N0180001N1+00101-00141102651ADDGA1071+010201061GF107991071051012501999999MA1999999102501MD1110011+9999REMSYN076AAXX  02071 10126 42668 70803 10010 21014 30250 40265 51001 875// 333 87634;
0152101260999992008010207204+53550+007667FM-15+0012ETNT V0200901N003610102019N0112651N1+00101-00101999999ADDGA1041+004201999GA2071+010201999GF107991999999999999999999MA1102611999999REMMET067METAR ETNT 020720Z 09007KT 9999 SCT014 BKN034 01/M01 Q1026 BLU BLU;
0165101260999992008010208004+53550+007667FM-12+0012ETNT V0200901N00401004201CN0100001N1+00061-00121102651ADDGA1031+003301071GF107991071051004501999999MA1999999102501MD1110021+9999REMSYN082AAXX  02081 10126 42460 70904 10006 21012 30250 40265 51002 875// 333 83711 87640;
0162101260999992008010208204+53550+007667FM-15+0012ETNT V0200901N004610063019N0112651N1+00101-00101999999ADDGA1041+003301999GA2071+006301999GF107991999999999999999999MA1102611999999REMMET077METAR ETNT 020820Z 09009KT 9999 SCT011 BKN021 01/M01 Q1026 WHT BLU TEMPO GRN;
0162101260999992008010209204+53550+007667FM-15+0012ETNT V0200901N004610075019N0090001N1+00101-00101999999ADDGA1021+003601999GA2071+007501999GF107991999999999999999999MA1102611999999REMMET077METAR ETNT 020920Z 09009KT 9000 FEW012 BKN025 01/M01 Q1026 BLU BLU TEMPO GRN;
0165101260999992008010210004+53550+007667FM-12+0012ETNT V0201001N00501012001CN0100001N1+00111-00151102651ADDGA1011+006001081GF106991061081008001001001MA1999999102501MD1410001+9999REMSYN082AAXX  02101 10126 42560 61005 10011 21015 30250 40265 54000 86800 333 81820 86647;
0162101260999992008010210204+53550+007667FM-15+0012ETNT V0201001N005110048019N0112651N1+00101-00201999999ADDGA1071+004801999GA2071+013501999GF107991999999999999999999MA1102611999999REMMET077METAR ETNT 021020Z 10010KT 9999 BKN016 BKN045 01/M02 Q1026 WHT BLU TEMPO GRN;
0193101260999992008010211004+53550+007667FM-12+0012ETNT V0200901N00501004201CN0120001N1+00121-00121102601ADDAY121999AY221999GA1041+004201061GF107991071051004501999999MA1999999102451MD1810051+9999MW1201REMSYN088AAXX  02111 10126 41462 70905 10012 21012 30245 40260 58005 72022 875// 333 84614 87644;
0155101260999992008010211204+53550+007667FM-15+0012ETNT V0201001N00511220001CN0112651N1+00101-00101999999ADDGA1071+005401999GA2041+015001999MA1102511999999REMMET077METAR ETNT 021120Z 10010KT 9999 BKN018 SCT050 01/M01 Q1025 WHT BLU TEMPO GRN;EQDQ01+000042SCOTCV
0162101260999992008010212204+53550+007667FM-15+0012ETNT V0201001N006710054019N0112651N1+00201-00201999999ADDGA1021+004501999GA2071+005401999GF107991999999999999999999MA1102511999999REMMET077METAR ETNT 021220Z 10013KT 9999 FEW015 BKN018 02/M02 Q1025 WHT BLU TEMPO GRN;
0165101260999992008010213004+53550+007667FM-12+0012ETNT V0201101N00701009001CN0200001N1+00121-00161102481ADDGA1021+004501081GF106991061081004501001001MA1999999102331MD1710171+9999REMSYN082AAXX  02131 10126 42470 61107 10012 21016 30233 40248 57017 86800 333 82815 86636;
0162101260999992008010213204+53550+007667FM-15+0012ETNT V0201101N005110099019N0112651N1+00101-00101999999ADDGA1021+004201999GA2071+009901999GF107991999999999999999999MA1102401999999REMMET077METAR ETNT 021320Z 11010KT 9999 FEW014 BKN033 01/M01 Q1024 BLU BLU TEMPO GRN;
0159101260999992008010214004+53550+007667FM-12+0012ETNT V0201001N006010099019N0200001N1+00121-00161102431ADDGA1071+009901061GF107991071051012501999999MA1999999102281MD1710221+9999REMSYN076AAXX  02141 10126 42670 71006 10012 21016 30228 40243 57022 875// 333 87633;
0162101260999992008010214204+53550+007667FM-15+0012ETNT V0201001N004610081019N0112651N1+00101-00101999999ADDGA1041+003901999GA2071+008101999GF107991999999999999999999MA1102401999999REMMET077METAR ETNT 021420Z 10009KT 9999 SCT013 BKN027 01/M01 Q1024 BLU BLU TEMPO GRN;
0139101260999992008010214304+53550+007667FM-16+0012ETNT V0201001N006210039019N0090001N1+00101-00101999999ADDGA1071+003901999GF107991999999999999999999MA1102401999999REMMET070SPECI ETNT 021430Z 10012KT 9000 BKN013 01/M01 Q1024 GRN BLU TEMPO GRN;
0162101260999992008010215004+53550+007667FM-15+0012ETNT V0201001N005110096019N0112651N1+00101-00201999999ADDGA1041+003901999GA2071+009601999GF107991999999999999999999MA1102401999999REMMET077SPECI ETNT 021458Z 10010KT 9999 SCT013 BKN032 01/M02 Q1024 BLU BLU TEMPO GRN;
0162101260999992008010215204+53550+007667FM-15+0012ETNT V0201001N005710048019N0112651N1+00101-00201999999ADDGA1071+004801999GA2071+009601999GF107991999999999999999999MA1102401999999REMMET077METAR ETNT 021520Z 10011KT 9999 BKN016 BKN032 01/M02 Q1024 WHT BLU TEMPO GRN;
0165101260999992008010216004+53550+007667FM-12+0012ETNT V0201001N00601004201CN0150001N1+00071-00201102401ADDGA1041+004801061GF108991071051004501999999MA1999999102251MD1610081+9999REMSYN082AAXX  02161 10126 42465 81006 10007 21020 30225 40240 56008 875// 333 84616 87627;
0162101260999992008010216204+53550+007667FM-15+0012ETNT V0201001N006710087019N0112651N1+00101-00301999999ADDGA1021+004801999GA2071+008701999GF107991999999999999999999MA1102301999999REMMET077METAR ETNT 021620Z 10013KT 9999 FEW016 BKN029 01/M03 Q1023 BLU BLU TEMPO GRN;
0165101260999992008010217004+53550+007667FM-12+0012ETNT V0201001N005010300019N0200001N1+00001-00411102371ADDGA1021+004801061GF106991021051004501031001MA1999999102221MD1710061+9999REMSYN082AAXX  02171 10126 42470 61005 10000 21041 30222 40237 57006 82530 333 82616 86360;
0140101260999992008010217204+53550+007667FM-15+0012ETNT V0201001N004610108019N0112651N1+00001-00401999999ADDGA1071+010801999GF107991999999999999999999MA1102301999999REMMET071METAR ETNT 021720Z 10009KT 9999 BKN036 M00/M04 Q1023 BLU BLU TEMPO GRN;
0162101260999992008010218204+53550+007667FM-15+0012ETNT V0201001N005710090019N0112651N1+00001-00201999999ADDGA1041+004501999GA2071+009001999GF107991999999999999999999MA1102301999999REMMET077METAR ETNT 021820Z 10011KT 9999 SCT015 BKN030 00/M02 Q1023 BLU BLU TEMPO GRN;
0165101260999992008010219004+53550+007667FM-12+0012ETNT V0201001N00701004201CN0150001N1+00031-00251102271ADDGA1031+004501061GF107991071051004501999999MA1999999102121MD1710131+9999REMSYN082AAXX  02191 10126 42465 71007 10003 21025 30212 40227 57013 875// 333 83615 87630;
0139101260999992008010219204+53550+007667FM-15+0012ETNT V0201001N006210090019N0112651N1+00001-00301999999ADDGA1071+009001999GF107991999999999999999999MA1102201999999REMMET070METAR ETNT 021920Z 10012KT 9999 BKN030 00/M03 Q1022 BLU BLU TEMPO GRN;
0159101260999992008010220004+53550+007667FM-12+0012ETNT V0201001N006010099019N0150001N1+00011-00311102241ADDGA1071+009901061GF107991071051012501999999MA1999999102091MD1710131+9999REMSYN076AAXX  02201 10126 42665 71006 10001 21031 30209 40224 57013 875// 333 87633;
0137101260999992008010220204+53550+007667FM-15+0012ETNT V0201001N006210099019N0112651N1+00001-00301999999ADDGA1071+009901999GF107991999999999999999999MA1102201999999REMMET068METAR ETNT 022020Z 10012KT 9999 BKN033 00/M03 Q1022 BLU FCST CANCEL;
0125101260999992008010221204+53550+007667FM-15+0012ETNT V0201101N005710090019N0112651N1+00001-00301999999ADDGA1071+009001999GF107991999999999999999999MA1102101999999REMMET056METAR ETNT 022120Z 11011KT 9999 BKN030 00/M03 Q1021 BLU;
0159101260999992008010222004+53550+007667FM-12+0012ETNT V0200901N006010141019N0150001N1+00011-00331102091ADDGA1071+014101061GF107991071051012501999999MA1999999101941MD1710181+9999REMSYN076AAXX  02221 10126 42665 70906 10001 21033 30194 40209 57018 875// 333 87647;
0125101260999992008010222204+53550+007667FM-15+0012ETNT V0200901N005710048019N0112651N1+00001-00301999999ADDGA1071+004801999GF107991999999999999999999MA1102001999999REMMET056METAR ETNT 022220Z 09011KT 9999 BKN016 00/M03 Q1020 WHT;
0159101260999992008010223004+53550+007667FM-12+0012ETNT V0201001N006010048019N0150001N1+00021-00271102041ADDGA1071+004801061GF107991071051004501999999MA1999999101891MD1710211+9999REMSYN076AAXX  02231 10126 42465 71006 10002 21027 30189 40204 57021 875// 333 87616;
0125101260999992008010223204+53550+007667FM-15+0012ETNT V0200901N006210039019N0112651N1+00001-00201999999ADDGA1071+003901999GF107991999999999999999999MA1102001999999REMMET056METAR ETNT 022320Z 09012KT 9999 BKN013 00/M02 Q1020 GRN;
0125101260999992008010300204+53550+007667FM-15+0012ETNT V0201001N007210039019N0112651N1+00001-00201999999ADDGA1071+003901999GF107991999999999999999999MA1101801999999REMMET056METAR ETNT 030020Z 10014KT 9999 BKN013 00/M02 Q1018 GRN;
0165101260999992008010301004+53550+007667FM-12+0012ETNT V0200901N006010039019N0150001N1+00011-00241101891ADDGA1071+003901061GF107991071051004501999999MA1999999101741MD1710201+9999REMSYN082AAXX  03011 10126 42465 70906 10001 21024 30174 40189 57020 875// 333 87613 91113;
0125101260999992008010301204+53550+007667FM-15+0012ETNT V0201001N007210039019N0112651N1+00001-00301999999ADDGA1071+003901999GF107991999999999999999999MA1101801999999REMMET056METAR ETNT 030120Z 10014KT 9999 BKN013 00/M03 Q1018 GRN;
0159101260999992008010302004+53550+007667FM-12+0012ETNT V0201001N008010042019N0150001N1+00001-00311101841ADDGA1071+004201061GF107991071051004501999999MA1999999101691MD1710201+9999REMSYN076AAXX  03021 10126 42465 71008 10000 21031 30169 40184 57020 875// 333 87614;
0126101260999992008010302204+53550+007667FM-15+0012ETNT V0201001N008710057019N0112651N1+00001-00401999999ADDGA1071+005701999GF107991999999999999999999MA1101801999999REMMET057METAR ETNT 030220Z 10017KT 9999 BKN019 M00/M04 Q1018 WHT;
0126101260999992008010303204+53550+007667FM-15+0012ETNT V0201101N007210084019N0112651N1+00001-00401999999ADDGA1071+008401999GF107991999999999999999999MA1101691999999REMMET057METAR ETNT 030320Z 11014KT 9999 BKN028 M00/M04 Q1017 BLU;
0159101260999992008010304004+53550+007667FM-12+0012ETNT V0201001N008010075019N0150001N1-00081-00461101701ADDGA1071+007501061GF107991071051008001999999MA1999999101551MD1710201+9999REMSYN076AAXX  03041 10126 42565 71008 11008 21046 30155 40170 57020 875// 333 87625;
0126101260999992008010304204+53550+007667FM-15+0012ETNT V0201101N006710051019N0112651N1-00101-00501999999ADDGA1071+005101999GF107991999999999999999999MA1101591999999REMMET057METAR ETNT 030420Z 11013KT 9999 BKN017 M01/M05 Q1016 WHT;
0187101260999992008010305004+53550+007667FM-12+0012ETNT V0201101N007010048019N0120001N1-00101-00461101631ADDAY121999AY221999GA1071+004801061GF107991071051004501999999MA1999999101481MD1710211+9999MW1781REMSYN082AAXX  03051 10126 41462 71107 11010 21046 30148 40163 57021 77822 875// 333 87616;
0140101260999992008010305204+53550+007667FM-15+0012ETNT V0201201N007710045019N0112651N1-00101-00401999999ADDGA1071+004501999GF107991999999999999999999MA1101591999999MW1711REMMET065METAR ETNT 030520Z 12015KT 9999 -SN BKN015 M01/M04 Q1016 WHT WHT;
0130101260999992008010306204+53550+007667FM-15+0012ETNT V0201001N008210051019N0112651N1-00201-00501999999ADDGA1071+005101999GF107991999999999999999999MA1101491999999REMMET061METAR ETNT 030620Z 10016KT 9999 BKN017 M02/M05 Q1015 WHT WHT;
0277101260999992008010307004+53550+007667FM-12+0012ETNT V0201001N009010048019N0120001N1-00201-00551101561ADDAY171999AY221999GA1071+004801061GF108991071051004501999999MA1999999101411MD1710141+9999MW1221OA149999999REMSYN142AAXX  03071 10126 41462 81009 11020 21055 30141 40156 57014 72272 875// 333 87616 91014 91114 555 BOT 10001 20007 30017 40038 50062 999 34///;EQDQ01  00722WGOSPD
0140101260999992008010307204+53550+007667FM-15+0012ETNT V0201101N008210048019N0112651N1-00201-00501999999ADDGA1071+004801999GF107991999999999999999999MA1101491999999MW1771REMMET065METAR ETNT 030720Z 11016KT 9999 -SG BKN016 M02/M05 Q1015 WHT WHT;
0193101260999992008010308004+53550+007667FM-12+0012ETNT V0201101N009010045019N0080001N1-00221-00531101541ADDAY171999AY221999GA1071+004501061GF108991071051004501999999MA1999999101391MD1710091+9999MW1771REMSYN088AAXX  03081 10126 41458 81109 11022 21053 30139 40154 57009 77772 875// 333 87615 91113;
0130101260999992008010308204+53550+007667FM-15+0012ETNT V0201101N009310048019N0080001N1-00201-00501999999ADDGA1071+004801999GF107991999999999999999999MA1101491999999REMMET061METAR ETNT 030820Z 11018KT 8000 BKN016 M02/M05 Q1015 WHT WHT;
0149101260999992008010309204+53550+007667FM-15+0012ETNT V0201101N009310045019N0050001N1-00201-00501999999ADDGA1071+004501999GF107991999999999999999999MA1101491999999MW1101MW2771REMMET068METAR ETNT 030920Z 11018KT 5000 -SG BR BKN015 M02/M05 Q1015 WHT WHT;
0159101260999992008010309374+53550+007667FM-16+0012ETNT V0201101N008710045019N0045001N1-00201-00501999999ADDGA1071+004501999GF107991999999999999999999MA1101391999999MW1101MW2771REMMET078SPECI ETNT 030937Z 11017KT 4500 -SG BR BKN015 M02/M05 Q1014 GRN WHT TEMPO GRN;
0221101260999992008010310004+53550+007667FM-12+0012ETNT V0201001N008010045019N0040001N1-00241-00521101491ADDAY171999AY221999GA1031+002701071GA2071+004501061GF108991071051002501999999MA1999999101341MD1710071+9999MW1771REMSYN100AAXX  03101 10126 41340 81008 11024 21052 30134 40149 57007 77772 875// 333 83709 87615 91014 91114;
0181101260999992008010310204+53550+007667FM-15+0012ETNT V0201101N007710039019N0040001N1-00301-00501999999ADDGA1071+003901999GA2071+004801999GF107991999999999999999999MA1101391999999MW1101MW2771REMMET084METAR ETNT 031020Z 11015KT 4000 SG BR BKN013 BKN016 M03/M05 Q1014 GRN WHT TEMPO GRN;
0193101260999992008010311004+53550+007667FM-12+0012ETNT V0201001N008010033019N0040001N1-00261-00491101421ADDAY171999AY271999GA1051+003301071GF108991071051004501999999MA1999999101271MD1810121+9999MW1771REMSYN088AAXX  03111 10126 41440 81008 11026 21049 30127 40142 58012 77777 875// 333 85711 87618;
0182101260999992008010311204+53550+007667FM-15+0012ETNT V0201001N008710036019N0050001N1-00201-00501999999ADDGA1071+003601999GA2071+005401999GF107991999999999999999999MA1101291999999MW1101MW2771REMMET085METAR ETNT 031120Z 10017KT 5000 -SG BR BKN012 BKN018 M02/M05 Q1013 GRN WHT TEMPO GRN;
0182101260999992008010312204+53550+007667FM-15+0012ETNT V0201001N008710039019N0050001N1-00201-00501999999ADDGA1071+003901999GA2071+005101999GF107991999999999999999999MA1101291999999MW1101MW2771REMMET085METAR ETNT 031220Z 10017KT 5000 -SG BR BKN013 BKN017 M02/M05 Q1013 GRN WHT TEMPO GRN;
0163101260999992008010312444+53550+007667FM-16+0012ETNT V0201001N008210054019N0060001N1-00201-00501999999ADDGA1041+004201999GA2071+005401999GF107991999999999999999999MA1101291999999REMMET078SPECI ETNT 031244Z 10016KT 6000 SCT014 BKN018 M02/M05 Q1013 WHT WHT TEMPO GRN;
0215101260999992008010313004+53550+007667FM-12+0012ETNT V0201001N009010054019N0060001N1-00221-00511101331ADDAY171999AY221999GA1031+004201061GA2071+005401061GF108991071051004501999999MA1999999101181MD1710161+9999MW1201REMSYN094AAXX  03131 10126 41456 81009 11022 21051 30118 40133 57016 72072 875// 333 83614 87618 91113;
0163101260999992008010313204+53550+007667FM-15+0012ETNT V0201001N008210066019N0060001N1-00201-00501999999ADDGA1041+004501999GA2071+006601999GF107991999999999999999999MA1101191999999REMMET078METAR ETNT 031320Z 10016KT 6000 SCT015 BKN022 M02/M05 Q1012 WHT WHT TEMPO GRN;
0215101260999992008010314004+53550+007667FM-12+0012ETNT V0201001N009010063019N0070001N1-00191-00531101261ADDAY121999AY221999GA1031+004801061GA2071+006301061GF107991071051004501999999MA1999999101111MD1710161+9999MW1051REMSYN094AAXX  03141 10126 41457 71009 11019 21053 30111 40126 57016 70522 875// 333 83616 87621 91113;
0151101260999992008010314204+53550+007667FM-15+0012ETNT V0201101N009810048019N0080001N1-00201-00501999999ADDGA1071+004801999GF107991999999999999999999MA1101191999999OC101491REMMET074METAR ETNT 031420Z 11019G29KT 8000 BKN016 M02/M05 Q1012 WHT WHT TEMPO GRN;
0151101260999992008010315204+53550+007667FM-15+0012ETNT V0201101N008210057019N0080001N1-00201-00601999999ADDGA1071+005701999GF107991999999999999999999MA1101191999999OC101541REMMET074METAR ETNT 031520Z 11016G30KT 8000 BKN019 M02/M06 Q1012 WHT WHT TEMPO GRN;
0201101260999992008010316004+53550+007667FM-12+0012ETNT V0201101N009010057019N0080001N1-00181-00551101261ADDGA1071+005701061GF107991071051004501999999MA1999999101111MD1610071+9999OA149999999REMSYN088AAXX  03161 10126 42458 71109 11018 21055 30111 40126 56007 875// 333 87619 91115 91211;EQDQ01  00772WGOSPD
0140101260999992008010316204+53550+007667FM-15+0012ETNT V0201101N009310057019N0080001N1-00201-00501999999ADDGA1071+005701999GF107991999999999999999999MA1101191999999REMMET071METAR ETNT 031620Z 11018KT 8000 BKN019 M02/M05 Q1012 WHT WHT TEMPO GRN;
0165101260999992008010317004+53550+007667FM-12+0012ETNT V0201101N008010054019N0090001N1-00181-00531101331ADDGA1071+005401061GF107991071051004501999999MA1999999101181MD1310071+9999REMSYN082AAXX  03171 10126 42459 71108 11018 21053 30118 40133 53007 875// 333 87618 91114;
0140101260999992008010317204+53550+007667FM-15+0012ETNT V0201101N010310054019N0112651N1-00201-00501999999ADDGA1071+005401999GF107991999999999999999999MA1101291999999REMMET071METAR ETNT 031720Z 11020KT 9999 BKN018 M02/M05 Q1013 WHT WHT TEMPO GRN;
0140101260999992008010318204+53550+007667FM-15+0012ETNT V0201101N008210060019N0112651N1-00201-00501999999ADDGA1071+006001999GF107991999999999999999999MA1101291999999REMMET071METAR ETNT 031820Z 11016KT 9999 BKN020 M02/M05 Q1013 WHT WHT TEMPO GRN;
0165101260999992008010319004+53550+007667FM-12+0012ETNT V0201101N008010060019N0100001N1-00191-00521101311ADDGA1071+006001061GF107991071051008001999999MA1999999101161MD1210051+9999REMSYN082AAXX  03191 10126 42560 71108 11019 21052 30116 40131 52005 875// 333 87620 91114;
0151101260999992008010319204+53550+007667FM-15+0012ETNT V0201201N008210057019N0112651N1-00201-00501999999ADDGA1071+005701999GF107991999999999999999999MA1101291999999OC101341REMMET074METAR ETNT 031920Z 12016G26KT 9999 BKN019 M02/M05 Q1013 WHT WHT TEMPO GRN;
0165101260999992008010320004+53550+007667FM-12+0012ETNT V0201101N008010057019N0100001N1-00191-00521101331ADDGA1071+005701061GF107991071051004501999999MA1999999101181MD1510001+9999REMSYN082AAXX  03201 10126 42460 71108 11019 21052 30118 40133 55000 875// 333 87619 91113;
0161101260999992008010320204+53550+007667FM-15+0012ETNT V0201201N008210054019N0112651N1-00201-00501999999ADDGA1071+005401999GA2071+030001999GF107991999999999999999999MA1101291999999REMMET076METAR ETNT 032020Z 12016KT 9999 BKN018 BKN100 M02/M05 Q1013 WHT FCST CANCEL;
0149101260999992008010321204+53550+007667FM-15+0012ETNT V0201101N008710330019N0112651N1-00201-00501999999ADDGA1021+005101999GA2071+033001999GF107991999999999999999999MA1101291999999REMMET064METAR ETNT 032120Z 11017KT 9999 FEW017 BKN110 M02/M05 Q1013 BLU;
0187101260999992008010322004+53550+007667FM-12+0012ETNT V0201101N008010330019N0100001N1-00191-00511101351ADDGA1021+005101061GA2071+033001031GF107991021051004501031999MA1999999101201MD1210041+9999REMSYN088AAXX  03221 10126 42460 71108 11019 21051 30120 40135 52004 8253/ 333 82617 87361 91113;
0127101260999992008010322204+53550+007667FM-15+0012ETNT V0201101N007712200019N0112651N1-00201-00501999999ADDGA1041+033001999GF104991999999999999999999MA1101291999999REMMET058METAR ETNT 032220Z 11015KT 9999 SCT110 M02/M05 Q1013 BLU+;
0159101260999992008010323004+53550+007667FM-12+0012ETNT V0201101N009010150019N0100001N1-00181-00501101391ADDGA1071+015001061GF108991071051017501999999MA1999999101241MD1210061+9999REMSYN076AAXX  03231 10126 42760 81109 11018 21050 30124 40139 52006 875// 333 87650;
0126101260999992008010323204+53550+007667FM-15+0012ETNT V0201201N008210114019N0112651N1-00201-00501999999ADDGA1071+011401999GF107991999999999999999999MA1101291999999REMMET057METAR ETNT 032320Z 12016KT 9999 BKN038 M02/M05 Q1013 BLU;
0126101260999992008010400204+53550+007667FM-15+0012ETNT V0201101N008710120019N0112651N1-00101-00501999999ADDGA1071+012001999GF107991999999999999999999MA1101291999999REMMET057METAR ETNT 040020Z 11017KT 9999 BKN040 M01/M05 Q1013 BLU;
0165101260999992008010401004+53550+007667FM-12+0012ETNT V0201101N009010138019N0100001N1-00151-00491101351ADDGA1071+013801061GF108991071051012501999999MA1999999101201MD1010001+9999REMSYN082AAXX  04011 10126 42660 81109 11015 21049 30120 40135 50000 875// 333 87646 91113;
0126101260999992008010401204+53550+007667FM-15+0012ETNT V0201101N008710150019N0112651N1-00101-00501999999ADDGA1071+015001999GF107991999999999999999999MA1101291999999REMMET057METAR ETNT 040120Z 11017KT 9999 BKN050 M01/M05 Q1013 BLU;
0187101260999992008010402004+53550+007667FM-12+0012ETNT V0201101N009010270019N0100001N1-00161-00501101331ADDGA1021+015001061GA2071+027001031GF108991021051017501031999MA1999999101181MD1710061+9999REMSYN088AAXX  04021 10126 42760 81109 11016 21050 30118 40133 57006 8253/ 333 82650 87359 91113;
0149101260999992008010402204+53550+007667FM-15+0012ETNT V0201101N010310270019N0112651N1-00201-00501999999ADDGA1021+015001999GA2071+027001999GF107991999999999999999999MA1101291999999REMMET064METAR ETNT 040220Z 11020KT 9999 FEW050 BKN090 M02/M05 Q1013 BLU;
0126101260999992008010403204+53550+007667FM-15+0012ETNT V0201101N009310270019N0112651N1-00201-00501999999ADDGA1071+027001999GF107991999999999999999999MA1101291999999REMMET057METAR ETNT 040320Z 11018KT 9999 BKN090 M02/M05 Q1013 BLU;
0193101260999992008010404004+53550+007667FM-12+0012ETNT V0201101N009010270019N0100001N1-00181-00531101331ADDGA1041+015001061GA2071+027001031GF108991041051017501031999MA1999999101181MD1810021+9999REMSYN094AAXX  04041 10126 42760 81109 11018 21053 30118 40133 58002 8453/ 333 84650 87359 91014 91114;
0126101260999992008010404204+53550+007667FM-15+0012ETNT V0201201N008710270019N0112651N1-00201-00501999999ADDGA1071+027001999GF107991999999999999999999MA1101291999999REMMET057METAR ETNT 040420Z 12017KT 9999 BKN090 M02/M05 Q1013 BLU;
0187101260999992008010405004+53550+007667FM-12+0012ETNT V0201201N008010270019N0100001N1-00191-00531101401ADDGA1041+005401061GA2071+027001031GF108991041051004501031999MA1999999101251MD1310071+9999REMSYN088AAXX  04051 10126 42460 81208 11019 21053 30125 40140 53007 8453/ 333 84618 87359 91113;
0149101260999992008010405204+53550+007667FM-15+0012ETNT V0201101N008210270019N0112651N1-00201-00501999999ADDGA1041+005101999GA2071+027001999GF107991999999999999999999MA1101291999999REMMET064METAR ETNT 040520Z 11016KT 9999 SCT017 BKN090 M02/M05 Q1013 BLU;
0153101260999992008010406204+53550+007667FM-15+0012ETNT V0201201N008210300019N0112651N1-00201-00501999999ADDGA1041+005101999GA2071+030001999GF107991999999999999999999MA1101291999999REMMET068METAR ETNT 040620Z 12016KT 9999 SCT017 BKN100 M02/M05 Q1013 BLU BLU;
0229101260999992008010407004+53550+007667FM-12+0012ETNT V0201101N008010300019N0100001N1-00231-00561101381ADDGA1021+005101061GA2071+030001031GF108991021051004501031999MA1999999101231MD1010061+9999REMSYN130AAXX  04071 10126 42460 81108 11023 21056 30123 40138 50006 8253/ 333 82617 87360 555 BOT 11002 20003 30013 40035 50060 999 34///;
0130101260999992008010407204+53550+007667FM-15+0012ETNT V0201101N008210300019N0112651N1-00201-00601999999ADDGA1071+030001999GF107991999999999999999999MA1101291999999REMMET061METAR ETNT 040720Z 11016KT 9999 BKN100 M02/M06 Q1013 BLU BLU;
0165101260999992008010408004+53550+007667FM-12+0012ETNT V0201201N008010300019N0100001N1-00251-00571101361ADDGA1071+030001031GF108991071001999999031999MA1999999101211MD1810041+9999REMSYN082AAXX  04081 10126 42960 81208 11025 21057 30121 40136 58004 8703/ 333 87360 91113;
0140101260999992008010408204+53550+007667FM-15+0012ETNT V0201201N007210240019N0112651N1-00201-00601999999ADDGA1071+024001999GF107991999999999999999999MA1101291999999MW1791REMMET065METAR ETNT 040820Z 12014KT 9999 -PL BKN080 M02/M06 Q1013 BLU BLU;
0140101260999992008010409204+53550+007667FM-15+0012ETNT V0201201N009810270019N0070001N1-00201-00601999999ADDGA1071+027001999GF107991999999999999999999MA1101291999999REMMET071METAR ETNT 040920Z 12019KT 7000 BKN090 M02/M06 Q1013 WHT BLU TEMPO WHT;
0193101260999992008010410004+53550+007667FM-12+0012ETNT V0201201N009010270019N0070001N1-00251-00621101361ADDAY121999AY221999GA1071+027001031GF108991071001999999031999MA1999999101211MD1810021+9999MW1051REMSYN088AAXX  04101 10126 41957 81209 11025 21062 30121 40136 58002 70522 8703/ 333 87359 91114;
0153101260999992008010410204+53550+007667FM-15+0012ETNT V0201201N009310270019N0090001N1-00201-00601999999ADDGA1071+027001999GA2071+069001999GF107991999999999999999999MA1101291999999REMMET068METAR ETNT 041020Z 12018KT 9000 BKN090 BKN230 M02/M06 Q1013 BLU BLU;
0187101260999992008010411004+53550+007667FM-12+0012ETNT V0201301N008010270019N0090001N1-00201-00601101361ADDGA1051+027001031GA2071+069001001GF107991071001999999031021MA1999999101211MD1010001+9999REMSYN088AAXX  04111 10126 42959 71308 11020 21060 30121 40136 50000 87032 333 85359 87073 91113;
0153101260999992008010411204+53550+007667FM-15+0012ETNT V0201301N007710270019N0080001N1-00201-00601999999ADDGA1071+027001999GA2071+069001999GF107991999999999999999999MA1101291999999REMMET068METAR ETNT 041120Z 13015KT 8000 BKN090 BKN230 M02/M06 Q1013 BLU BLU;
0130101260999992008010412204+53550+007667FM-15+0012ETNT V0201301N006710270019N0080001N1-00201-00601999999ADDGA1071+027001999GF107991999999999999999999MA1101191999999REMMET061METAR ETNT 041220Z 13013KT 8000 BKN090 M02/M06 Q1012 BLU BLU;
0138101260999992008010412304+53550+007667FM-16+0012ETNT V0201301N006210270019N0080001N1-00201-00601999999ADDGA1071+027001999GF107991999999999999999999MA1101191999999REMMET069SPECI ETNT 041230Z 13012KT 8000 BKN090 M02/M06 Q1012 BLU FCST CANCEL;
0159101260999992008010413004+53550+007667FM-12+0012ETNT V0201401N005010270019N0090001N1-00181-00611101331ADDGA1071+027001031GF107991071001999999031999MA1999999101181MD1510031+9999REMSYN076AAXX  04131 10126 42959 71405 11018 21061 30118 40133 55003 8703/ 333 87359;
0126101260999992008010413204+53550+007667FM-15+0012ETNT V0201301N006210270019N0080001N1-00201-00601999999ADDGA1071+027001999GF107991999999999999999999MA1101291999999REMMET057METAR ETNT 041320Z 13012KT 8000 BKN090 M02/M06 Q1013 BLU;
0159101260999992008010414004+53550+007667FM-12+0012ETNT V0201301N007010270019N0090001N1-00171-00621101271ADDGA1071+027001031GF107991071001999999031999MA1999999101121MD1810091+9999REMSYN076AAXX  04141 10126 42959 71307 11017 21062 30112 40127 58009 8703/ 333 87359;
0126101260999992008010414204+53550+007667FM-15+0012ETNT V0201301N007210270019N0090001N1-00201-00601999999ADDGA1071+027001999GF107991999999999999999999MA1101191999999REMMET057METAR ETNT 041420Z 13014KT 9000 BKN090 M02/M06 Q1012 BLU;
0126101260999992008010415204+53550+007667FM-15+0012ETNT V0201301N007210270019N0090001N1-00201-00601999999ADDGA1071+027001999GF107991999999999999999999MA1101191999999REMMET057METAR ETNT 041520Z 13014KT 9000 BKN090 M02/M06 Q1012 BLU;
0165101260999992008010416004+53550+007667FM-12+0012ETNT V0201301N00701030001CN0090001N1-00161-00601101261ADDGA1021+008701061GF107991021051008001031999MA1999999101111MD1610071+9999REMSYN082AAXX  04161 10126 42559 71307 11016 21060 30111 40126 56007 8253/ 333 82629 87359;
0149101260999992008010416204+53550+007667FM-15+0012ETNT V0201301N006210270019N0090001N1-00201-00601999999ADDGA1041+008701999GA2071+027001999GF107991999999999999999999MA1101191999999REMMET064METAR ETNT 041620Z 13012KT 9000 SCT029 BKN090 M02/M06 Q1012 BLU;
0165101260999992008010417004+53550+007667FM-12+0012ETNT V0201201N00601030001CN0090001N1-00171-00601101231ADDGA1031+008701061GF107991031051008001031999MA1999999101081MD1710041+9999REMSYN082AAXX  04171 10126 42559 71206 11017 21060 30108 40123 57004 8353/ 333 83629 87359;
0149101260999992008010417204+53550+007667FM-15+0012ETNT V0201301N007210087019N0090001N1-00201-00601999999ADDGA1071+008701999GA2071+027001999GF107991999999999999999999MA1101191999999REMMET064METAR ETNT 041720Z 13014KT 9000 BKN029 BKN090 M02/M06 Q1012 BLU;
0149101260999992008010418204+53550+007667FM-15+0012ETNT V0201301N007210240019N0090001N1-00201-00601999999ADDGA1021+008701999GA2071+024001999GF107991999999999999999999MA1101081999999REMMET064METAR ETNT 041820Z 13014KT 9000 FEW029 BKN080 M02/M06 Q1011 BLU;
0159101260999992008010419004+53550+007667FM-12+0012ETNT V0201301N008010240019N0090001N1-00191-00611101061ADDGA1071+024001031GF107991071001022501031999MA1999999100911MD1710201+9999REMSYN076AAXX  04191 10126 42859 71308 11019 21061 30091 40106 57020 8703/ 333 87358;
0126101260999992008010419204+53550+007667FM-15+0012ETNT V0201301N007210240019N0080001N1-00201-00601999999ADDGA1071+024001999GF107991999999999999999999MA1101021999999REMMET057METAR ETNT 041920Z 13014KT 8000 BKN080 M02/M06 Q1010 BLU;
0187101260999992008010420004+53550+007667FM-12+0012ETNT V0201201N007010240019N0060001N1-00201-00601100961ADDAY121999AY221999GA1071+024001031GF107991071001022501031999MA1999999100811MD1710271+9999MW1051REMSYN082AAXX  04201 10126 41856 71207 11020 21060 30081 40096 57027 70522 8703/ 333 87358;
0149101260999992008010420204+53550+007667FM-15+0012ETNT V0201301N006710270019N0060001N1-00201-00601999999ADDGA1021+018001999GA2071+027001999GF107991999999999999999999MA1100911999999REMMET064METAR ETNT 042020Z 13013KT 6000 FEW060 BKN090 M02/M06 Q1009 WHT;
0161101260999992008010421074+53550+007667FM-16+0012ETNT V0201401N005710390019N0060001N1-00201-00601999999ADDGA1041+013501999GA2081+039001999GF108991999999999999999999MA1100911999999MW1661REMMET070SPECI ETNT 042107Z 14011KT 6000 -FZRA SCT045 OVC130 M02/M06 Q1009 WHT;
0161101260999992008010421204+53550+007667FM-15+0012ETNT V0201301N006210144019N0060001N1-00201-00601999999ADDGA1071+014401999GA2081+039001999GF108991999999999999999999MA1100811999999MW1661REMMET070METAR ETNT 042120Z 13012KT 6000 -FZRA BKN048 OVC130 M02/M06 Q1008 WHT;
0187101260999992008010422004+53550+007667FM-12+0012ETNT V0201301N008010138019N0050001N1-00221-00531100841ADDAY161999AY221999GA1071+013801061GF108991071051012501999999MA1999999100691MD1710221+9999MW1661REMSYN082AAXX  04221 10126 41650 81308 11022 21053 30069 40084 57022 76662 875// 333 87646;
0147101260999992008010422204+53550+007667FM-15+0012ETNT V0201301N006210138019N0050001N1-00201-00501999999ADDGA1071+013801999GF107991999999999999999999MA1100711999999MW1101MW2661REMMET066METAR ETNT 042220Z 13012KT 5000 -FZRA BR BKN046 M02/M05 Q1007 WHT;
0193101260999992008010423004+53550+007667FM-12+0012ETNT V0201201N006010144019N0050001N1-00251-00481100681ADDAY161999AY261999GA1051+014401061GF108991051051012501021999MA1999999100531MD1710281+9999MW1661REMSYN088AAXX  04231 10126 41650 81206 11025 21048 30053 40068 57028 76666 8552/ 333 85648 88459;
0156101260999992008010423204+53550+007667FM-15+0012ETNT V0201401N006710180019N0060001N1-00201-00501999999ADDGA1021+013801999GA2071+018001999GF107991999999999999999999MA1100711999999REMMET071METAR ETNT 042320Z 14013KT 6000 FEW046 BKN060 M02/M05 Q1007 REFZRA WHT;
0126101260999992008010500204+53550+007667FM-15+0012ETNT V0201401N005110180019N0060001N1-00201-00501999999ADDGA1071+018001999GF107991999999999999999999MA1100611999999REMMET057METAR ETNT 050020Z 14010KT 6000 BKN060 M02/M05 Q1006 WHT;
0187101260999992008010501004+53550+007667FM-12+0012ETNT V0201301N005012200019N0060001N1-00201-00471100601ADDAY111999AY211999GA1031+018001061GF103991031051017501001001MA1999999100451MD1710341+9999MW1101REMSYN082AAXX  05011 10126 41756 31305 11020 21047 30045 40060 57034 71011 83500 333 83656;
0158101260999992008010501204+53550+007667FM-15+0012ETNT V0201301N005110150019N0050001N1-00101-00401999999ADDGA1041+009601999GA2071+015001999GF107991999999999999999999MA1100511999999MW1101REMMET067METAR ETNT 050120Z 13010KT 5000 BR SCT032 BKN050 M01/M04 Q1005 WHT;
0193101260999992008010502004+53550+007667FM-12+0012ETNT V0201301N00601030001CN0070001N1-00081-00371100461ADDAY111999AY211999GA1031+011401061GF107991031051012501071999MA1999999100311MD1710221+9999MW1101REMSYN088AAXX  05021 10126 41657 71306 11008 21037 30031 40046 57022 71011 8357/ 333 83638 87359;
0126101260999992008010502204+53550+007667FM-15+0012ETNT V0201401N006210084019N0070001N1+00001-00301999999ADDGA1071+008401999GF107991999999999999999999MA1100411999999REMMET057METAR ETNT 050220Z 14012KT 7000 BKN028 M00/M03 Q1004 WHT;
0148101260999992008010503204+53550+007667FM-15+0012ETNT V0201401N006210150019N0112651N1+00101-00201999999ADDGA1041+008401999GA2071+015001999GF107991999999999999999999MA1100311999999REMMET063METAR ETNT 050320Z 14012KT 9999 SCT028 BKN050 01/M02 Q1003 BLU;
0165101260999992008010504004+53550+007667FM-12+0012ETNT V0201401N00601007501CN0120001N1+00191-00131100261ADDGA1031+007501061GF107991071051008001999999MA1999999100111MD1710341+9999REMSYN082AAXX  05041 10126 42562 71406 10019 21013 30011 40026 57034 875// 333 83625 87656;
0148101260999992008010504204+53550+007667FM-15+0012ETNT V0201501N007710180019N0112651N1+00301-00101999999ADDGA1041+007501999GA2071+018001999GF107991999999999999999999MA1100201999999REMMET063METAR ETNT 050420Z 15015KT 9999 SCT025 BKN060 03/M01 Q1002 BLU;
0193101260999992008010505004+53550+007667FM-12+0012ETNT V0201501N00701007501CN0100001N1+00291-00051100231ADDAY121999AY221999GA1031+007501061GF107991071051008001999999MA1999999100081MD1710231+9999MW1611REMSYN088AAXX  05051 10126 41560 71507 10029 21005 30008 40023 57023 76122 875// 333 83625 87645;
0157101260999992008010505204+53550+007667FM-15+0012ETNT V0201501N006710114019N0090001N1+00301+00001999999ADDGA1021+007801999GA2071+011401999GF107991999999999999999999MA1100101999999MW1611REMMET066METAR ETNT 050520Z 15013KT 9000 -RA FEW026 BKN038 03/00 Q1001 BLU;
0157101260999992008010506204+53550+007667FM-15+0012ETNT V0201601N007210120019N0060001N1+00401+00201999999ADDGA1021+006601999GA2071+012001999GF107991999999999999999999MA1100101999999MW1611REMMET066METAR ETNT 050620Z 16014KT 6000 -RA FEW022 BKN040 04/02 Q1001 WHT;
0257101260999992008010507004+53550+007667FM-12+0012ETNT V0201601N007010120019N0060001N1+00371+00181100131ADDAY161999AY261999GA1021+006601061GA2071+012001061GF107991071051008001999999MA1999999099981MD1710131+9999MW1611REMSYN136AAXX  05071 10126 41556 71607 10037 20018 39998 40013 57013 76166 875// 333 82622 87640 555 BOT 11002 20002 30010 40032 50057 999 34///;
0166101260999992008010507204+53550+007667FM-15+0012ETNT V0201601N007710132019N0050001N1+00401+00201999999ADDGA1021+009001999GA2071+013201999GF107991999999999999999999MA1100001999999MW1101MW2611REMMET069METAR ETNT 050720Z 16015KT 5000 -RA BR FEW030 BKN044 04/02 Q1000 WHT;
0193101260999992008010508004+53550+007667FM-12+0012ETNT V0201601N008010120019N0050001N1+00401+00241100051ADDAY161999AY261999GA1071+012001061GF107991071051012501999999MA1999999099901MD1710181+9999MW1611REMSYN088AAXX  05081 10126 41650 71608 10040 20024 39990 40005 57018 76166 875// 333 87640 91113;
0143101260999992008010508204+53550+007667FM-15+0012ETNT V0201601N008210072019N0050001N1+00401+00301999999ADDGA1071+007201999GF107991999999999999999999MA1100001999999MW1101MW2611REMMET062METAR ETNT 050820Z 16016KT 5000 -RA BR BKN024 04/03 Q1000 WHT;
0166101260999992008010509204+53550+007667FM-15+0012ETNT V0201601N006710054019N0040001N1+00401+00301999999ADDGA1021+002401999GA2071+005401999GF107991999999999999999999MA1100001999999MW1101MW2611REMMET069METAR ETNT 050920Z 16013KT 4000 -RA BR FEW008 BKN018 04/03 Q1000 GRN;
0193101260999992008010510004+53550+007667FM-12+0012ETNT V0201601N00701002101CN0040001N1+00491+00341100051ADDAY161999AY261999GA1021+002401071GF108991071051002501999999MA1999999099901MD1610081+9999MW1611REMSYN088AAXX  05101 10126 41340 81607 10049 20034 39990 40005 56008 76166 875// 333 82708 87616;
0187101260999992008010510204+53550+007667FM-15+0012ETNT V0201801N006210039019N0025001N1+00501+00401999999ADDED199U19009GA1041+002401999GA2071+003901999GF107991999999999999999999MA1100001999999MW1101MW2611REMMET079METAR ETNT 051020Z 18012KT 2500 R08/1900N -RA BR SCT008 BKN013 05/04 Q1000 YLO;
0193101260999992008010511004+53550+007667FM-12+0012ETNT V0201801N00601002101CN0035001N1+00511+00381100051ADDAY161999AY261999GA1041+002401071GF108991071051002501999999MA1999999099901MD1410001+9999MW1211REMSYN088AAXX  05111 10126 41335 81806 10051 20038 39990 40005 54000 72166 875// 333 84708 87613;
0166101260999992008010511204+53550+007667FM-15+0012ETNT V0201801N005110039019N0040001N1+00501+00401999999ADDGA1041+002401999GA2071+003901999GF107991999999999999999999MA1100001999999MW1101MW2611REMMET069METAR ETNT 051120Z 18010KT 4000 -RA BR SCT008 BKN013 05/04 Q1000 GRN;
0124101260999992008010512204+53550+007667FM-15+0012ETNT V0201901N005110024019N0070001N1+00601+00401999999ADDGA1071+002401999GF107991999999999999999999MA1100001999999REMMET055METAR ETNT 051220Z 19010KT 7000 BKN008 06/04 Q1000 GRN;
0187101260999992008010513004+53550+007667FM-12+0012ETNT V0201801N004010024019N0070001N1+00591+00451100041ADDAY121999AY221999GA1071+002401071GF108991071061002501999999MA1999999099901MD1410001+9999MW1101REMSYN082AAXX  05131 10126 41357 81804 10059 20045 39990 40004 54000 71022 876// 333 87708;
0124101260999992008010513204+53550+007667FM-15+0012ETNT V0201901N004110024019N0080001N1+00601+00501999999ADDGA1071+002401999GF107991999999999999999999MA1100001999999REMMET055METAR ETNT 051320Z 19008KT 8000 BKN008 06/05 Q1000 GRN;
0201101260999992008010514004+53550+007667FM-12+0012ETNT V0201801N004010024019N0080001N1+00641+00501100041ADDGA1071+002401071GF108991071061002501999999MA1999999099901MD1410001+9999REMSYN118AAXX  05141 10126 42358 81804 10064 20050 39990 40004 54000 876// 333 87708 555 BOT 10000 20005 30011 40032 999 31///;
0159101260999992008010514204+53550+007667FM-15+0012ETNT V0201901N003610024019N0080001N1+00601+00501999999ADDGA1071+002401999GA2071+003901999GF107991999999999999999999MA1100001999999MW1801REMMET068METAR ETNT 051420Z 19007KT 8000 -SHRA BKN008 BKN013 06/05 Q1000 GRN;
0147101260999992008010515204+53550+007667FM-15+0012ETNT V0201801N004610072019N0080001N1+00601+00401999999ADDGA1041+002401999GA2071+007201999GF107991999999999999999999MA1100001999999REMMET062METAR ETNT 051520Z 18009KT 8000 SCT008 BKN024 06/04 Q1000 WHT;
0193101260999992008010516004+53550+007667FM-12+0012ETNT V0201801N004010072019N0070001N1+00581+00431100041ADDAY121999AY221999GA1051+007201061GF108991071051008001999999MA1999999099901MD1410001+9999MW1101REMSYN088AAXX  05161 10126 41557 81804 10058 20043 39990 40004 54000 71022 875// 333 85624 87640;
0147101260999992008010516204+53550+007667FM-15+0012ETNT V0201801N003610024019N0060001N1+00601+00401999999ADDGA1071+002401999GA2071+006001999GF107991999999999999999999MA1100001999999REMMET062METAR ETNT 051620Z 18007KT 6000 BKN008 BKN020 06/04 Q1000 GRN;
0193101260999992008010517004+53550+007667FM-12+0012ETNT V0201901N004010024019N0050001N1+00581+00431100041ADDAY121999AY221999GA1051+002401071GF108991071051002501999999MA1999999099901MD1410001+9999MW1101REMSYN088AAXX  05171 10126 41350 81904 10058 20043 39990 40004 54000 71022 875// 333 85708 87620;
0156101260999992008010517204+53550+007667FM-15+0012ETNT V0202001N003610039019N0050001N1+00601+00401999999ADDGA1041+002401999GA2071+003901999GF107991999999999999999999MA1100001999999MW1101REMMET065METAR ETNT 051720Z 20007KT 5000 BR SCT008 BKN013 06/04 Q1000 GRN;
0159101260999992008010518204+53550+007667FM-15+0012ETNT V0202101N004110072019N0112651N1+00501+00401999999ADDGA1041+002701999GA2071+007201999GF107991999999999999999999MA1100001999999MW1801REMMET068METAR ETNT 051820Z 21008KT 9999 -SHRA SCT009 BKN024 05/04 Q1000 WHT;
0193101260999992008010519004+53550+007667FM-12+0012ETNT V0202001N00401004201CN0150001N1+00491+00361100091ADDAY121999AY221999GA1031+003001071GF107991071051004501999999MA1999999099941MD1310041+9999MW1251REMSYN088AAXX  05191 10126 41465 72004 10049 20036 39994 40009 53004 72522 875// 333 83710 87622;
0147101260999992008010519204+53550+007667FM-15+0012ETNT V0201901N003110030019N0112651N1+00501+00401999999ADDGA1071+003001999GA2071+006601999GF107991999999999999999999MA1100001999999REMMET062METAR ETNT 051920Z 19006KT 9999 BKN010 BKN022 05/04 Q1000 GRN;
0165101260999992008010520004+53550+007667FM-12+0012ETNT V0202001N003010030019N0150001N1+00461+00351100111ADDGA1051+003001071GF107991071051004501999999MA1999999099961MD1210061+9999REMSYN082AAXX  05201 10126 42465 72003 10046 20035 39996 40011 52006 875// 333 85710 87622;
0147101260999992008010520204+53550+007667FM-15+0012ETNT V0202101N004110066019N0112651N1+00501+00301999999ADDGA1041+003001999GA2071+006601999GF107991999999999999999999MA1100101999999REMMET062METAR ETNT 052020Z 21008KT 9999 SCT010 BKN022 05/03 Q1001 WHT;
0125101260999992008010521204+53550+007667FM-15+0012ETNT V0202201N003612200019N0112651N1+00401+00301999999ADDGA1041+006601999GF104991999999999999999999MA1100101999999REMMET056METAR ETNT 052120Z 22007KT 9999 SCT022 04/03 Q1001 BLU+;
0159101260999992008010522004+53550+007667FM-12+0012ETNT V0202001N004012200019N0150001N1+00371+00261100171ADDGA1021+006601061GF102991021051008001001001MA1999999100021MD1210081+9999REMSYN076AAXX  05221 10126 42565 22004 10037 20026 30002 40017 52008 82500 333 82622;
0125101260999992008010522204+53550+007667FM-15+0012ETNT V0202001N004112200019N0112651N1+00301+00201999999ADDGA1021+008401999GF102991999999999999999999MA1100101999999REMMET056METAR ETNT 052220Z 20008KT 9999 FEW028 03/02 Q1001 BLU+;
0159101260999992008010523004+53550+007667FM-12+0012ETNT V0202101N005012200019N0100001N1+00391+00261100171ADDGA1041+004801061GF104991041051004501001001MA1999999100021MD1110061+9999REMSYN076AAXX  05231 10126 42460 42105 10039 20026 30002 40017 51006 84500 333 84616;
0124101260999992008010523204+53550+007667FM-15+0012ETNT V0202101N004110048019N0112651N1+00401+00301999999ADDGA1071+004801999GF107991999999999999999999MA1100101999999REMMET055METAR ETNT 052320Z 21008KT 9999 BKN016 04/03 Q1001 WHT;
0124101260999992008010600204+53550+007667FM-15+0012ETNT V0202101N003110039019N0112651N1+00401+00301999999ADDGA1071+003901999GF107991999999999999999999MA1100101999999REMMET055METAR ETNT 060020Z 21006KT 9999 BKN013 04/03 Q1001 GRN;
0159101260999992008010601004+53550+007667FM-12+0012ETNT V0202101N004010039019N0100001N1+00401+00291100181ADDGA1051+003901061GF105991051051004501001001MA1999999100031MD1310021+9999REMSYN076AAXX  06011 10126 42460 52104 10040 20029 30003 40018 53002 85500 333 85613;
0124101260999992008010601204+53550+007667FM-15+0012ETNT V0202101N002610039019N0112651N1+00301+00201999999ADDGA1071+003901999GF107991999999999999999999MA1100101999999REMMET055METAR ETNT 060120Z 21005KT 9999 BKN013 03/02 Q1001 GRN;
0159101260999992008010602004+53550+007667FM-12+0012ETNT V0202001N003010042019N0080001N1+00291+00201100191ADDGA1051+004201061GF105991051051004501001001MA1999999100041MD1310021+9999REMSYN076AAXX  06021 10126 42458 52003 10029 20020 30004 40019 53002 85500 333 85614;
0124101260999992008010602204+53550+007667FM-15+0012ETNT V0202001N002610048019N0080001N1+00301+00201999999ADDGA1071+004801999GF107991999999999999999999MA1100201999999REMMET055METAR ETNT 060220Z 20005KT 8000 BKN016 03/02 Q1002 WHT;
0147101260999992008010603204+53550+007667FM-15+0012ETNT V0201901N002610060019N0060001N1+00301+00201999999ADDGA1041+003001999GA2071+006001999GF107991999999999999999999MA1100201999999REMMET062METAR ETNT 060320Z 19005KT 6000 SCT010 BKN020 03/02 Q1002 WHT;
0193101260999992008010604004+53550+007667FM-12+0012ETNT V0202201N00401004201CN0070001N1+00331+00231100271ADDAY121999AY221999GA1011+003001071GF105991051051004501001001MA1999999100121MD1310091+9999MW1101REMSYN088AAXX  06041 10126 41457 52204 10033 20023 30012 40027 53009 71022 85500 333 81710 85628;
0147101260999992008010604204+53550+007667FM-15+0012ETNT V0202201N002610084019N0070001N1+00301+00201999999ADDGA1021+003001999GA2071+008401999GF107991999999999999999999MA1100201999999REMMET062METAR ETNT 060420Z 22005KT 7000 FEW010 BKN028 03/02 Q1002 WHT;
0187101260999992008010605004+53550+007667FM-12+0012ETNT V0202301N003010090019N0070001N1+00321+00231100291ADDAY121999AY221999GA1051+009001061GF105991051051008001001001MA1999999100141MD1210101+9999MW1101REMSYN082AAXX  06051 10126 41557 52303 10032 20023 30014 40029 52010 71022 85500 333 85630;
0124101260999992008010605204+53550+007667FM-15+0012ETNT V0202301N003110078019N0080001N1+00301+00201999999ADDGA1071+007801999GF107991999999999999999999MA1100201999999REMMET055METAR ETNT 060520Z 23006KT 8000 BKN026 03/02 Q1002 BLU;
0124101260999992008010606204+53550+007667FM-15+0012ETNT V0202301N003110135019N0080001N1+00301+00201999999ADDGA1071+013501999GF107991999999999999999999MA1100311999999REMMET055METAR ETNT 060620Z 23006KT 8000 BKN045 03/02 Q1003 BLU;
0235101260999992008010607004+53550+007667FM-12+0012ETNT V0202301N003012200019N0070001N1+00241+00141100441ADDAY111999AY211999GA1031+013501061GF103991031051012501001001MA1999999100291MD1210171+9999MW1101REMSYN130AAXX  06071 10126 41657 32303 10024 20014 30029 40044 52017 71011 83500 333 83645 555 BOT 10015 20021 30022 40033 50056 999 31///;
0124101260999992008010607204+53550+007667FM-15+0012ETNT V0202301N002112200019N0060001N1+00201+00101999999ADDGA1021+015001999GF102991999999999999999999MA1100411999999REMMET055METAR ETNT 060720Z 23004KT 6000 FEW050 02/01 Q1004 WHT;
0187101260999992008010608004+53550+007667FM-12+0012ETNT V0202301N003012200019N0060001N1+00121+00031100531ADDAY101999AY201999GA1021+015001061GF102991021051017501031001MA1999999100381MD1210241+9999MW1101REMSYN082AAXX  06081 10126 41756 22303 10012 20003 30038 40053 52024 71000 82530 333 82650;
0133101260999992008010608204+53550+007667FM-15+0012ETNT V0202301N002612200019N0050001N1+00201+00101999999ADDGA1021+018001999GF102991999999999999999999MA1100511999999MW1101REMMET058METAR ETNT 060820Z 23005KT 5000 BR FEW060 02/01 Q1005 WHT;
0133101260999992008010609204+53550+007667FM-15+0012ETNT V0202301N002612200019N0050001N1+00201+00201999999ADDGA1021+003001999GF102991999999999999999999MA1100611999999MW1101REMMET058METAR ETNT 060920Z 23005KT 5000 BR FEW010 02/02 Q1006 WHT;
0187101260999992008010610004+53550+007667FM-12+0012ETNT V0202301N004012200019N0060001N1+00311+00281100701ADDAY101999AY201999GA1011+003001071GF101991011061004501001001MA1999999100551MD1210261+9999MW1101REMSYN082AAXX  06101 10126 41456 12304 10031 20028 30055 40070 52026 71000 81600 333 81710;
0125101260999992008010610204+53550+007667FM-15+0012ETNT V0202301N003612200019N0080001N1+00401+00301999999ADDGA1021+002401999GF102991999999999999999999MA1100711999999REMMET056METAR ETNT 061020Z 23007KT 8000 FEW008 04/03 Q1007 BLU+;
0187101260999992008010611004+53550+007667FM-12+0012ETNT V0202401N004012200019N0090001N1+00481+00351100771ADDAY101999AY201999GA1011+002401071GF101991011061002501001001MA1999999100621MD1210261+9999MW1011REMSYN082AAXX  06111 10126 41359 12404 10048 20035 30062 40077 52026 70100 81600 333 81708;
0125101260999992008010611204+53550+007667FM-15+0012ETNT V0202301N003612200019N0112651N1+00601+00401999999ADDGA1021+009001999GF102991999999999999999999MA1100711999999REMMET056METAR ETNT 061120Z 23007KT 9999 FEW030 06/04 Q1007 BLU+;
0124101260999992008010612204+53550+007667FM-15+0012ETNT V0202301N004110108019N0112651N1+00501+00301999999ADDGA1071+010801999GF107991999999999999999999MA1100811999999REMMET055METAR ETNT 061220Z 23008KT 9999 BKN036 05/03 Q1008 BLU;
0159101260999992008010613004+53550+007667FM-12+0012ETNT V0202401N005010108019N0120001N1+00541+00321100881ADDGA1071+010801061GF107991071051012501999999MA1999999100731MD1210181+9999REMSYN076AAXX  06131 10126 42662 72405 10054 20032 30073 40088 52018 875// 333 87636;
0124101260999992008010613204+53550+007667FM-15+0012ETNT V0202401N004610093019N0112651N1+00601+00401999999ADDGA1071+009301999GF107991999999999999999999MA1100911999999REMMET055METAR ETNT 061320Z 24009KT 9999 BKN031 06/04 Q1009 BLU;
0201101260999992008010614004+53550+007667FM-12+0012ETNT V0202401N005010090019N0120001N1+00571+00351100961ADDGA1071+009001061GF107991071051008001999999MA1999999100811MD1210191+9999REMSYN118AAXX  06141 10126 42562 72405 10057 20035 30081 40096 52019 875// 333 87630 555 BOT 10032 20032 30025 40035 999 31///;
0124101260999992008010614204+53550+007667FM-15+0012ETNT V0202301N004110090019N0112651N1+00601+00401999999ADDGA1071+009001999GF107991999999999999999999MA1101021999999REMMET055METAR ETNT 061420Z 23008KT 9999 BKN030 06/04 Q1010 BLU;
0124101260999992008010615204+53550+007667FM-15+0012ETNT V0202401N004610078019N0112651N1+00601+00301999999ADDGA1071+007801999GF107991999999999999999999MA1101021999999REMMET055METAR ETNT 061520Z 24009KT 9999 BKN026 06/03 Q1010 BLU;
0159101260999992008010616004+53550+007667FM-12+0012ETNT V0202401N005010078019N0150001N1+00561+00321101141ADDGA1071+007801061GF107991071051008001999999MA1999999100991MD1210221+9999REMSYN076AAXX  06161 10126 42565 72405 10056 20032 30099 40114 52022 875// 333 87626;
0124101260999992008010616204+53550+007667FM-15+0012ETNT V0202401N005710078019N0112651N1+00601+00301999999ADDGA1071+007801999GF107991999999999999999999MA1101081999999REMMET055METAR ETNT 061620Z 24011KT 9999 BKN026 06/03 Q1011 BLU;
0159101260999992008010617004+53550+007667FM-12+0012ETNT V0202401N005010084019N0200001N1+00551+00261101171ADDGA1071+008401061GF107991071051008001999999MA1999999101021MD1210211+9999REMSYN076AAXX  06171 10126 42570 72405 10055 20026 30102 40117 52021 875// 333 87628;
0124101260999992008010617204+53550+007667FM-15+0012ETNT V0202401N004110081019N0112651N1+00601+00301999999ADDGA1071+008101999GF107991999999999999999999MA1101081999999REMMET055METAR ETNT 061720Z 24008KT 9999 BKN027 06/03 Q1011 BLU;
0124101260999992008010618204+53550+007667FM-15+0012ETNT V0202401N004110081019N0112651N1+00501+00301999999ADDGA1071+008101999GF107991999999999999999999MA1101191999999REMMET055METAR ETNT 061820Z 24008KT 9999 BKN027 05/03 Q1012 BLU;
0159101260999992008010619004+53550+007667FM-12+0012ETNT V0202301N004010075019N0200001N1+00491+00271101251ADDGA1071+007501061GF107991071051008001999999MA1999999101101MD1210111+9999REMSYN076AAXX  06191 10126 42570 72304 10049 20027 30110 40125 52011 875// 333 87625;
0124101260999992008010619204+53550+007667FM-15+0012ETNT V0202201N003110060019N0112651N1+00501+00301999999ADDGA1071+006001999GF107991999999999999999999MA1101191999999REMMET055METAR ETNT 061920Z 22006KT 9999 BKN020 05/03 Q1012 WHT;
0159101260999992008010620004+53550+007667FM-12+0012ETNT V0202201N004010045019N0200001N1+00471+00271101261ADDGA1071+004501061GF107991071051004501999999MA1999999101111MD1210091+9999REMSYN076AAXX  06201 10126 42470 72204 10047 20027 30111 40126 52009 875// 333 87615;
0147101260999992008010620204+53550+007667FM-15+0012ETNT V0202101N004610045019N0112651N1+00301+00201999999ADDGA1021+002701999GA2071+004501999GF107991999999999999999999MA1101191999999REMMET062METAR ETNT 062020Z 21009KT 9999 FEW009 BKN015 03/02 Q1012 WHT;
0148101260999992008010621204+53550+007667FM-15+0012ETNT V0202101N004112200019N0112651N1+00201+00101999999ADDGA1021+002701999GA2041+004501999GF104991999999999999999999MA1101191999999REMMET063METAR ETNT 062120Z 21008KT 9999 FEW009 SCT015 02/01 Q1012 BLU+;
0143101260999992008010622004+53550+007667FM-12+0012ETNT V0202101N004012200019N0150001N1+00171+00061101261ADDGA1001+999999999GF100991001001999999001001MA1999999101111MD1110011+9999REMSYN060AAXX  06221 10126 42965 02104 10017 20006 30111 40126 51001;
0076101260999992008010622204+53550+007667FM-15+0012ETNT V0202001N003612200019N0112651N1+00201+00101999999ADDMA1101191999999REMMET049METAR ETNT 062220Z 20007KT 9999 02/01 Q1012 BLU+;
0143101260999992008010623004+53550+007667FM-12+0012ETNT V0202001N004012200019N0100001N1+00131+00031101231ADDGA1001+999999999GF100991001001999999001001MA1999999101081MD1810031+9999REMSYN060AAXX  06231 10126 42960 02004 10013 20003 30108 40123 58003;
0076101260999992008010623204+53550+007667FM-15+0012ETNT V0201801N002612200019N0080001N1+00101+00001999999ADDMA1101081999999REMMET049METAR ETNT 062320Z 18005KT 8000 01/00 Q1011 BLU+;
0076101260999992008010700204+53550+007667FM-15+0012ETNT V0201801N002612200019N0060001N1+00001+00001999999ADDMA1101081999999REMMET049METAR ETNT 070020Z 18005KT 6000 00/M00 Q1011 WHT;
0171101260999992008010701004+53550+007667FM-12+0012ETNT V0201801N003012200019N0050001N1+00041-00071101061ADDAY111999AY211999GA1001+999999999GF100991001001999999001001MA1999999100911MD1710201+9999MW1101REMSYN066AAXX  07011 10126 41950 01803 10004 21007 30091 40106 57020 71011;
0133101260999992008010701204+53550+007667FM-15+0012ETNT V0201701N004112200019N0050001N1+00101+00001999999ADDGA1041+030001999GF104991999999999999999999MA1101021999999MW1101REMMET058METAR ETNT 070120Z 17008KT 5000 BR SCT100 01/00 Q1010 WHT;
0187101260999992008010702004+53550+007667FM-12+0012ETNT V0201601N004012200019N0060001N1+00091+00021100951ADDAY101999AY201999GA1031+030001031GF103991031001999999031001MA1999999100801MD1710281+9999MW1101REMSYN082AAXX  07021 10126 41956 31604 10009 20002 30080 40095 57028 71000 83030 333 83360;
0124101260999992008010702204+53550+007667FM-15+0012ETNT V0201601N004612200019N0060001N1+00101+00001999999ADDGA1021+030001999GF102991999999999999999999MA1100811999999REMMET055METAR ETNT 070220Z 16009KT 6000 FEW100 01/00 Q1008 WHT;
0125101260999992008010703204+53550+007667FM-15+0012ETNT V0201501N004612200019N0080001N1+00101+00101999999ADDGA1041+030001999GF104991999999999999999999MA1100511999999REMMET056METAR ETNT 070320Z 15009KT 8000 SCT100 01/01 Q1005 BLU+;
0159101260999992008010704004+53550+007667FM-12+0012ETNT V0201401N005012200019N0080001N1+00181+00081100541ADDGA1041+018001061GF104991041051017501001001MA1999999100391MD1710521+9999REMSYN076AAXX  07041 10126 42758 41405 10018 20008 30039 40054 57052 84500 333 84656;
0125101260999992008010704204+53550+007667FM-15+0012ETNT V0201501N005112200019N0112651N1+00201+00101999999ADDGA1041+015001999GF104991999999999999999999MA1100411999999REMMET056METAR ETNT 070420Z 15010KT 9999 SCT050 02/01 Q1004 BLU+;
0187101260999992008010705004+53550+007667FM-12+0012ETNT V0201501N006010114019N0100001N1+00231+00051100371ADDAY111999AY211999GA1071+011401061GF107991071051012501999999MA1999999100221MD1710581+9999MW1601REMSYN082AAXX  07051 10126 41660 71506 10023 20005 30022 40037 57058 76011 875// 333 87638;
0146101260999992008010705204+53550+007667FM-15+0012ETNT V0201501N006210084019N0070001N1+00201+00101999999ADDGA1071+008401999GF107991999999999999999999MA1100311999999MW1511MW2611REMMET065METAR ETNT 070520Z 15012KT 7000 -RADZ BKN028 02/01 Q1003 WHT YLO;
0146101260999992008010706204+53550+007667FM-15+0012ETNT V0201601N005710027019N0060001N1+00201+00101999999ADDGA1071+002701999GF107991999999999999999999MA1100201999999MW1511MW2611REMMET065METAR ETNT 070620Z 16011KT 6000 -RADZ BKN009 02/01 Q1002 GRN YLO;
0138101260999992008010706404+53550+007667FM-16+0012ETNT V0201601N005110018019N0060001N1+00201+00101999999ADDGA1071+001801999GF107991999999999999999999MA1100101999999MW1511REMMET063SPECI ETNT 070640Z 16010KT 6000 -DZ BKN006 02/01 Q1001 YLO YLO;
0187101260999992008010707004+53550+007667FM-12+0012ETNT V0201601N006010015019N0060001N1+00251+00131100191ADDAY161999AY261999GA1071+001501071GF108991071071001501999999MA1999999100041MD1710351+9999MW1581REMSYN082AAXX  07071 10126 41256 81606 10025 20013 30004 40019 57035 75866 877// 333 87705;
0138101260999992008010707204+53550+007667FM-15+0012ETNT V0201801N005110012019N0070001N1+00301+00201999999ADDGA1071+001201999GF107991999999999999999999MA1100101999999MW1511REMMET063METAR ETNT 070720Z 18010KT 7000 -DZ BKN004 03/02 Q1001 YLO YLO;
0155101260999992008010707324+53550+007667FM-16+0012ETNT V0201801N005110012019N0040001N1+00401+00201999999ADDGA1071+001201999GF107991999999999999999999MA1100101999999MW1101MW2511MW3611REMMET068SPECI ETNT 070732Z 18010KT 4000 -RADZ BR BKN004 04/02 Q1001 YLO YLO;
0187101260999992008010708004+53550+007667FM-12+0012ETNT V0201901N005010012019N0050001N1+00371+00251100151ADDAY161999AY261999GA1071+001201071GF108991071071001501999999MA1999999100001MD1610221+9999MW1581REMSYN082AAXX  07081 10126 41250 81905 10037 20025 30000 40015 56022 75866 877// 333 87704;
0151101260999992008010708204+53550+007667FM-15+0012ETNT V0202101N006210024019N0070001N1+00501+00401999999ADDGA1071+002401999GA2071+004201999GF107991999999999999999999MA1100101999999REMMET066METAR ETNT 070820Z 21012KT 7000 BKN008 BKN014 05/04 Q1001 GRN YLO;
0161101260999992008010709204+53550+007667FM-15+0012ETNT V0202201N006210135019N0080001N1+00601+00501999999ADDGA1041+003001999GA2071+013501999GF107991999999999999999999MA1100101999999REMMET076METAR ETNT 070920Z 22012KT 8000 SCT010 BKN045 06/05 Q1001 BLU BLU TEMPO GRN;
0161101260999992008010709584+53550+007667FM-16+0012ETNT V0202201N005110036019N0090001N1+00701+00501999999ADDGA1071+003601999GA2071+013501999GF107991999999999999999999MA1100101999999REMMET076SPECI ETNT 070958Z 22010KT 9000 BKN012 BKN045 07/05 Q1001 GRN BLU TEMPO GRN;
0193101260999992008010710004+53550+007667FM-12+0012ETNT V0202301N00501004201CN0080001N1+00651+00501100181ADDAY121011AY221011GA1041+003001071GF106991061051004501031001MA1999999100041MD1510001+9999MW1011REMSYN088AAXX  07101 10126 41458 62305 10065 20050 30004 40018 55000 70122 86530 333 84710 85645;
0138101260999992008010710204+53550+007667FM-15+0012ETNT V0202301N006212200019N0090001N1+00701+00501999999ADDGA1041+005101999GF104991999999999999999999MA1100201999999REMMET069METAR ETNT 071020Z 23012KT 9000 SCT017 07/05 Q1002 BLU+BLU TEMPO GRN;
0193101260999992008010711004+53550+007667FM-12+0012ETNT V0202301N007010057019N0120001N1+00731+00491100201ADDGA1021+004201081GA2061+005701061GF107991071081004501999999MA1999999100061MD1310051+9999REMSYN094AAXX  07111 10126 42462 72307 10073 20049 30006 40020 53005 878// 333 82814 86619 91013 91113;
0162101260999992008010711204+53550+007667FM-15+0012ETNT V0202301N007212200019N0112651N1+00801+00501999999ADDGA1021+004501999GA2041+007201999GF104991999999999999999999MA1100101999999REMMET077METAR ETNT 071120Z 23014KT 9999 FEW015 SCT024 08/05 Q1001 BLU+BLU+ TEMPO GRN;
0183101260999992008010712204+53550+007667FM-15+0012ETNT V0202301N007710078019N0090001N1+00701+00301999999ADDGA1021+004801999GA2071+007801999GF107991999999999999999999MA1100101999999MW1611OC101291REMMET084METAR ETNT 071220Z 23015G25KT 9000 -RA FEW016 BKN026 07/03 Q1001 BLU BLU+ TEMPO GRN;
0221101260999992008010713004+53550+007667FM-12+0012ETNT V0202301N008010069019N0100001N1+00651+00351100151ADDAY161999AY221999GA1011+004201061GA2071+006901061GF108991071051004501999999MA1999999100011MD1010031+9999MW1611REMSYN100AAXX  07131 10126 41460 82308 10065 20035 30001 40015 50003 76162 875// 333 81614 87623 91013 91113;
0172101260999992008010713204+53550+007667FM-15+0012ETNT V0202201N008210078019N0112651N1+00601+00401999999ADDGA1021+004801999GA2071+007801999GF107991999999999999999999MA1100101999999MW1611REMMET081METAR ETNT 071320Z 22016KT 9999 -RA FEW016 BKN026 06/04 Q1001 BLU BLU+ TEMPO GRN;
0221101260999992008010714004+53550+007667FM-12+0012ETNT V0202301N008010078019N0100001N1+00611+00351100151ADDAY161999AY221999GA1011+004801061GA2071+007801061GF108991071051004501999999MA1999999100011MD1610031+9999MW1211REMSYN100AAXX  07141 10126 41460 82308 10061 20035 30001 40015 56003 72162 875// 333 81616 87626 91014 91114;
0173101260999992008010714204+53550+007667FM-15+0012ETNT V0202401N009310066019N0070001N1+00601+00301999999ADDGA1021+004801999GA2071+006601999GF107991999999999999999999MA1100101999999MW1801REMMET082METAR ETNT 071420Z 24018KT 7000 -SHRA FEW016 BKN022 06/03 Q1001 WHT BLU TEMPO GRN;
0195101260999992008010715204+53550+007667FM-15+0012ETNT V0202501N01031007501CN0112651N1+00601+00301999999ADDGA1021+004801999GA2041+007501999GA3071+015001999GF107991999999999999999999MA1100201999999OC101801REMMET086METAR ETNT 071520Z 25020G35KT 9999 FEW016 SCT025 BKN050 06/03 Q1002 BLU BLU TEMPO GRN;
0279101260999992008010716004+53550+007667FM-12+0012ETNT V0202501N010010090019N0150001N1+00641+00271100351ADDAY121999AY221999GA1021+006001081GA2031+009001061GA3051+015001061GF107991071081008001999999MA1999999100201MD1310191+9999MW1251OA149999999REMSYN112AAXX  07161 10126 41565 72510 10064 20027 30020 40035 53019 72522 878// 333 82820 83630 85650 91017 91118 91211;EQDQ01  00932WGOSPD
0195101260999992008010716204+53550+007667FM-15+0012ETNT V0202501N01031009001CN0112651N1+00601+00301999999ADDGA1021+006001999GA2041+009001999GA3071+015001999GF107991999999999999999999MA1100311999999OC101591REMMET086METAR ETNT 071620Z 25020G31KT 9999 FEW020 SCT030 BKN050 06/03 Q1003 BLU BLU TEMPO GRN;
0348101260999992008010717004+53550+007667SY-MT+0012ETNT V0202501N011010150019N0150001N1+00601+00281100441ADDAY121999AY221999GA1041+007501999GA2071+015001999GF107991071081008001999999MA1100411100291MD1310191+9999MW1251OA149999999OC101541REMSYN106AAXX  07171 10126 41565 72511 10060 20028 30029 40044 53019 72522 878// 333 83825 85650 91016 91120 91212;MET077SPECI ETNT 071700Z 25020G30KT 9999 SCT025 BKN050 06/03 Q1004 BLU FCST CANCEL;EQDQ01  01032WGOSPD
0158101260999992008010717204+53550+007667FM-15+0012ETNT V0202501N011810180019N0112651N1+00601+00201999999ADDGA1041+007501999GA2071+018001999GF107991999999999999999999MA1100411999999OC101751REMMET065METAR ETNT 071720Z 25023G34KT 9999 SCT025 BKN060 06/02 Q1004 BLU;
0147101260999992008010718204+53550+007667FM-15+0012ETNT V0202601N007210180019N0112651N1+00601+00301999999ADDGA1041+007501999GA2071+018001999GF107991999999999999999999MA1100511999999REMMET062METAR ETNT 071820Z 26014KT 9999 SCT025 BKN060 06/03 Q1005 BLU;
0257101260999992008010719004+53550+007667FM-12+0012ETNT V0202501N009010105019N0200001N1+00601+00261100551ADDAY121999AY221999GA1011+007501081GA2061+010501061GF106991061081008001001001MA1999999100401MD1210201+9999MW1251OA149999999REMSYN106AAXX  07191 10126 41570 62509 10060 20026 30040 40055 52020 72522 86800 333 81825 86635 91015 91117 91211;EQDQ01  00882WGOSPD
0136101260999992008010719204+53550+007667FM-15+0012ETNT V0202501N008712200019N0112651N1+00601+00201999999ADDGA1021+007501999GF102991999999999999999999MA1100511999999OC101391REMMET059METAR ETNT 071920Z 25017G27KT 9999 FEW025 06/02 Q1005 BLU+;
0165101260999992008010720004+53550+007667FM-12+0012ETNT V0202401N008012200019N0200001N1+00601+00191100611ADDGA1041+011101061GF104991041051012501001001MA1999999100461MD1210171+9999REMSYN082AAXX  07201 10126 42670 42408 10060 20019 30046 40061 52017 84500 333 84637 91115;
0125101260999992008010720204+53550+007667FM-15+0012ETNT V0202501N007212200019N0112651N1+00601+00201999999ADDGA1041+011101999GF104991999999999999999999MA1100611999999REMMET056METAR ETNT 072020Z 25014KT 9999 SCT037 06/02 Q1006 BLU+;
0125101260999992008010721204+53550+007667FM-15+0012ETNT V0202601N009312200019N0112651N1+00501+00301999999ADDGA1021+009901999GF102991999999999999999999MA1100711999999REMMET056METAR ETNT 072120Z 26018KT 9999 FEW033 05/03 Q1007 BLU+;
0171101260999992008010722004+53550+007667FM-12+0012ETNT V0202501N008012200019N0250001N1+00521+00261100761ADDGA1031+008101061GF104991031051008001031011MA1999999100611MD1210211+9999REMSYN088AAXX  07221 10126 42575 42508 10052 20026 30061 40076 52021 83531 333 83627 91014 91114;
0125101260999992008010722204+53550+007667FM-15+0012ETNT V0202501N007712200019N0112651N1+00501+00301999999ADDGA1041+007801999GF104991999999999999999999MA1100711999999REMMET056METAR ETNT 072220Z 25015KT 9999 SCT026 05/03 Q1007 BLU+;
0187101260999992008010723004+53550+007667FM-12+0012ETNT V0202601N008010300019N0250001N1+00531+00291100871ADDGA1011+005701081GA2031+007801061GF105991041081004501031001MA1999999100721MD1210261+9999REMSYN088AAXX  07231 10126 42475 52608 10053 20029 30072 40087 52026 84830 333 81819 83626 91113;
0147101260999992008010723204+53550+007667FM-15+0012ETNT V0202601N007710111019N0112651N1+00601+00301999999ADDGA1021+005701999GA2071+011101999GF107991999999999999999999MA1100911999999REMMET062METAR ETNT 072320Z 26015KT 9999 FEW019 BKN037 06/03 Q1009 BLU;
0125101260999992008010800204+53550+007667FM-15+0012ETNT V0202601N009812200019N0112651N1+00601+00301999999ADDGA1021+006001999GF102991999999999999999999MA1100911999999REMMET056METAR ETNT 080020Z 26019KT 9999 FEW020 06/03 Q1009 BLU+;
0165101260999992008010801004+53550+007667FM-12+0012ETNT V0202601N009012200019N0250001N1+00571+00271101031ADDGA1011+005101081GF105991031081004501001011MA1999999100881MD1210271+9999REMSYN082AAXX  08011 10126 42475 52609 10057 20027 30088 40103 52027 83801 333 81817 91114;
0125101260999992008010801204+53550+007667FM-15+0012ETNT V0202601N007212200019N0112651N1+00501+00301999999ADDGA1021+015001999GF102991999999999999999999MA1101021999999REMMET056METAR ETNT 080120Z 26014KT 9999 FEW050 05/03 Q1010 BLU+;
0171101260999992008010802004+53550+007667FM-12+0012ETNT V0202501N007012200019N0200001N1+00491+00251101141ADDGA1031+007501061GF103991031051008001001001MA1999999100991MD1210271+9999REMSYN088AAXX  08021 10126 42570 32507 10049 20025 30099 40114 52027 83500 333 83625 91012 91113;
0125101260999992008010802204+53550+007667FM-15+0012ETNT V0202501N006712200019N0112651N1+00501+00201999999ADDGA1021+006301999GF102991999999999999999999MA1101081999999REMMET056METAR ETNT 080220Z 25013KT 9999 FEW021 05/02 Q1011 BLU+;
0124101260999992008010803204+53550+007667FM-15+0012ETNT V0202601N007210072019N0112651N1+00501+00301999999ADDGA1071+007201999GF107991999999999999999999MA1101191999999REMMET055METAR ETNT 080320Z 26014KT 9999 BKN024 05/03 Q1012 WHT;
0143101260999992008010804004+53550+007667FM-12+0012ETNT V0202601N007012200019N0250001N1+00491+00241101311ADDGA1001+999999999GF100991001001999999001001MA1999999101161MD1210281+9999REMSYN060AAXX  08041 10126 42975 02607 10049 20024 30116 40131 52028;
0125101260999992008010804204+53550+007667FM-15+0012ETNT V0202501N006212200019N0112651N1+00401+00201999999ADDGA1021+036001999GF102991999999999999999999MA1101291999999REMMET056METAR ETNT 080420Z 25012KT 9999 FEW120 04/02 Q1013 BLU+;
0159101260999992008010805004+53550+007667FM-12+0012ETNT V0202501N007012200019N0250001N1+00431+00181101401ADDGA1011+036001031GF101991011001999999031001MA1999999101261MD1210271+9999REMSYN076AAXX  08051 10126 42975 12507 10043 20018 30126 40140 52027 81030 333 81362;
0139101260999992008010805204+53550+007667FM-15+0012ETNT V0202501N006712200019N0112651N1+00401+00201999999ADDGA1021+036001999GF102991999999999999999999MA1101391999999REMMET070METAR ETNT 080520Z 25013KT 9999 FEW120 04/02 Q1014 BLU+BLU+ TEMPO WHT;
0139101260999992008010806204+53550+007667FM-15+0012ETNT V0202401N006712200019N0112651N1+00401+00201999999ADDGA1021+036001999GF102991999999999999999999MA1101391999999REMMET070METAR ETNT 080620Z 24013KT 9999 FEW120 04/02 Q1014 BLU+BLU+ TEMPO WHT;
0229101260999992008010807004+53550+007667FM-12+0012ETNT V0202401N007012200019N0250001N1+00441+00191101461ADDGA1021+013501061GA2031+036001031GF104991021051012501031001MA1999999101311MD1110151+9999REMSYN130AAXX  08071 10126 42675 42407 10044 20019 30131 40146 51015 82530 333 82645 83362 555 BOT 10023 20027 30034 40042 50056 999 31///;
0162101260999992008010807204+53550+007667FM-15+0012ETNT V0202301N006212200019N0112651N1+00501+00201999999ADDGA1021+013501999GA2041+075001999GF104991999999999999999999MA1101391999999REMMET077METAR ETNT 080720Z 23012KT 9999 FEW045 SCT250 05/02 Q1014 BLU+BLU+ TEMPO WHT;
0165101260999992008010808004+53550+007667FM-12+0012ETNT V0202301N005010750019N0250001N1+00421+00211101491ADDGA1011+013501061GF105991011051012501031011MA1999999101341MD1210081+9999REMSYN082AAXX  08081 10126 42675 52305 10042 20021 30134 40149 52008 81531 333 81645 85075;
0162101260999992008010808204+53550+007667FM-15+0012ETNT V0202301N004610750019N0112651N1+00401+00201999999ADDGA1021+013501999GA2071+075001999GF107991999999999999999999MA1101491999999REMMET077METAR ETNT 080820Z 23009KT 9999 FEW045 BKN250 04/02 Q1015 BLU+BLU+ TEMPO WHT;
0162101260999992008010809204+53550+007667FM-15+0012ETNT V0202301N005112200019N0112651N1+00501+00301999999ADDGA1021+003301999GA2041+075001999GF104991999999999999999999MA1101391999999REMMET077METAR ETNT 080920Z 23010KT 9999 FEW011 SCT250 05/03 Q1014 BLU+BLU+ TEMPO WHT;
0165101260999992008010810004+53550+007667FM-12+0012ETNT V0202301N00601004201CN0250001N1+00541+00291101551ADDGA1011+003301071GF106991051051004501001011MA1999999101401MD1210091+9999REMSYN082AAXX  08101 10126 42475 62306 10054 20029 30140 40155 52009 85501 333 81711 85627;
0174101260999992008010810204+53550+007667FM-15+0012ETNT V0202201N00511008101CN0112651N1+00501+00301999999ADDGA1041+003301999GA2041+008101999GA3071+075001999GF107991999999999999999999MA1101491999999REMMET073METAR ETNT 081020Z 22010KT 9999 SCT011 SCT027 BKN250 05/03 Q1015 BLU+BLU;
0161101260999992008010810574+53550+007667FM-16+0012ETNT V0202301N005710036019N0112651N1+00601+00301999999ADDGA1071+003601999GA2071+075001999GF107991999999999999999999MA1101491999999REMMET076SPECI ETNT 081057Z 23011KT 9999 BKN012 BKN250 06/03 Q1015 GRN BLU TEMPO GRN;
0165101260999992008010811004+53550+007667FM-12+0012ETNT V0202301N00601220001CN0200001N1+00571+00311101571ADDGA1041+003301061GF106991041051004501001011MA1999999101421MD1210081+9999REMSYN082AAXX  08111 10126 42470 62306 10057 20031 30142 40157 52008 84501 333 84611 85075;
0138101260999992008010811204+53550+007667FM-15+0012ETNT V0202301N004610030019N0090001N1+00601+00401999999ADDGA1071+003001999GF107991999999999999999999MA1101591999999REMMET069METAR ETNT 081120Z 23009KT 9000 BKN010 06/04 Q1016 GRN BLU TEMPO GRN;
0138101260999992008010812204+53550+007667FM-15+0012ETNT V0202301N006210027019N0070001N1+00701+00401999999ADDGA1071+002701999GF107991999999999999999999MA1101491999999REMMET069METAR ETNT 081220Z 23012KT 7000 BKN009 07/04 Q1015 GRN BLU TEMPO GRN;
0187101260999992008010813004+53550+007667FM-12+0012ETNT V0202301N006010027019N0070001N1+00681+00441101541ADDAY121999AY221999GA1071+002701061GF107991071051002501999999MA1999999101401MD1010001+9999MW1101REMSYN082AAXX  08131 10126 41357 72306 10068 20044 30140 40154 50000 71022 875// 333 87609;
0138101260999992008010813204+53550+007667FM-15+0012ETNT V0202301N005710027019N0060001N1+00701+00501999999ADDGA1071+002701999GF107991999999999999999999MA1101491999999REMMET069METAR ETNT 081320Z 23011KT 6000 BKN009 07/05 Q1015 GRN WHT TEMPO GRN;
0158101260999992008010813584+53550+007667FM-16+0012ETNT V0202301N006210024019N0045001N1+00701+00401999999ADDGA1071+002401999GF107991999999999999999999MA1101491999999MW1101OC101231REMMET075SPECI ETNT 081358Z 23012G24KT 4500 BR BKN008 07/04 Q1015 GRN GRN TEMPO WHT;
0187101260999992008010814004+53550+007667FM-12+0012ETNT V0202201N007010024019N0050001N1+00661+00461101501ADDAY121999AY221999GA1071+002401061GF107991071051002501999999MA1999999101361MD1810061+9999MW1101REMSYN082AAXX  08141 10126 41350 72207 10066 20046 30136 40150 58006 71022 875// 333 87608;
0138101260999992008010814204+53550+007667FM-15+0012ETNT V0202201N005710024019N0060001N1+00601+00401999999ADDGA1071+002401999GF107991999999999999999999MA1101491999999REMMET069METAR ETNT 081420Z 22011KT 6000 BKN008 06/04 Q1015 GRN GRN TEMPO WHT;
0147101260999992008010815204+53550+007667FM-15+0012ETNT V0202101N005710030019N0050001N1+00601+00401999999ADDGA1071+003001999GF107991999999999999999999MA1101491999999MW1101REMMET072METAR ETNT 081520Z 21011KT 5000 BR BKN010 06/04 Q1015 GRN GRN TEMPO WHT;
0187101260999992008010816004+53550+007667FM-12+0012ETNT V0202101N006010030019N0050001N1+00621+00401101541ADDAY121999AY221999GA1071+003001071GF107991071061004501999999MA1999999101401MD1510001+9999MW1101REMSYN082AAXX  08161 10126 41450 72106 10062 20040 30140 40154 55000 71022 876// 333 87710;
0170101260999992008010816204+53550+007667FM-15+0012ETNT V0202101N005710033019N0050001N1+00601+00401999999ADDGA1071+003301999GA2071+004201999GF107991999999999999999999MA1101491999999MW1101REMMET079METAR ETNT 081620Z 21011KT 5000 BR BKN011 BKN014 06/04 Q1015 GRN GRN TEMPO WHT;
0193101260999992008010817004+53550+007667FM-12+0012ETNT V0202101N006010036019N0050001N1+00621+00391101481ADDAY121999AY221999GA1051+003601071GF107991071051004501999999MA1999999101341MD1810021+9999MW1101REMSYN088AAXX  08171 10126 41450 72106 10062 20039 30134 40148 58002 71022 875// 333 85712 87615;
0138101260999992008010817204+53550+007667FM-15+0012ETNT V0202001N005110030019N0060001N1+00601+00401999999ADDGA1071+003001999GF107991999999999999999999MA1101491999999REMMET069METAR ETNT 081720Z 20010KT 6000 BKN010 06/04 Q1015 GRN GRN TEMPO WHT;
0138101260999992008010818204+53550+007667FM-15+0012ETNT V0202001N005710030019N0090001N1+00701+00401999999ADDGA1071+003001999GF107991999999999999999999MA1101391999999REMMET069METAR ETNT 081820Z 20011KT 9000 BKN010 07/04 Q1014 GRN GRN TEMPO WHT;
0159101260999992008010819004+53550+007667FM-12+0012ETNT V0202001N005010033019N0090001N1+00661+00431101431ADDGA1071+003301071GF107991071061004501999999MA1999999101281MD1710121+9999REMSYN076AAXX  08191 10126 42459 72005 10066 20043 30128 40143 57012 876// 333 87711;
0138101260999992008010819204+53550+007667FM-15+0012ETNT V0202001N004610033019N0090001N1+00701+00401999999ADDGA1071+003301999GF107991999999999999999999MA1101391999999REMMET069METAR ETNT 081920Z 20009KT 9000 BKN011 07/04 Q1014 GRN GRN TEMPO WHT;
0165101260999992008010820004+53550+007667FM-12+0012ETNT V0201901N006010033019N0090001N1+00681+00441101391ADDGA1051+003301071GF107991071051004501999999MA1999999101241MD1710101+9999REMSYN082AAXX  08201 10126 42459 71906 10068 20044 30124 40139 57010 875// 333 85711 87622;
0184101260999992008010820204+53550+007667FM-15+0012ETNT V0201901N005110060019N0090001N1+00701+00501999999ADDGA1021+003301999GA2071+006001999GA3071+015001999GF107991999999999999999999MA1101291999999REMMET083METAR ETNT 082020Z 19010KT 9000 FEW011 BKN020 BKN050 07/05 Q1013 WHT GRN TEMPO WHT;
0182101260999992008010820354+53550+007667FM-16+0012ETNT V0201901N00571006001CN0090001N1+00701+00401999999ADDGA1021+003301999GA2041+006001999GA3071+015001999GF107991999999999999999999MA1101291999999REMMET081SPECI ETNT 082035Z 19011KT 9000 FEW011 SCT020 BKN050 07/04 Q1013 BLU FCST CANCEL;
0147101260999992008010821204+53550+007667FM-15+0012ETNT V0202001N005710150019N0112651N1+00701+00401999999ADDGA1021+003301999GA2071+015001999GF107991999999999999999999MA1101291999999REMMET062METAR ETNT 082120Z 20011KT 9999 FEW011 BKN050 07/04 Q1013 BLU;
0159101260999992008010822004+53550+007667FM-12+0012ETNT V0202001N006012200019N0150001N1+00611+00371101301ADDGA1031+015001061GF103991031051017501001001MA1999999101151MD1710131+9999REMSYN076AAXX  08221 10126 42765 32006 10061 20037 30115 40130 57013 83500 333 83650;
0124101260999992008010822204+53550+007667FM-15+0012ETNT V0202001N005710045019N0112651N1+00601+00401999999ADDGA1071+004501999GF107991999999999999999999MA1101191999999REMMET055METAR ETNT 082220Z 20011KT 9999 BKN015 06/04 Q1012 WHT;
0159101260999992008010823004+53550+007667FM-12+0012ETNT V0202001N007010045019N0150001N1+00631+00371101231ADDGA1071+004501061GF107991071051004501999999MA1999999101081MD1710161+9999REMSYN076AAXX  08231 10126 42465 72007 10063 20037 30108 40123 57016 875// 333 87615;
0124101260999992008010823204+53550+007667FM-15+0012ETNT V0202101N007210045019N0112651N1+00601+00301999999ADDGA1071+004501999GF107991999999999999999999MA1101191999999REMMET055METAR ETNT 082320Z 21014KT 9999 BKN015 06/03 Q1012 WHT;
0124101260999992008010900204+53550+007667FM-15+0012ETNT V0202001N007210060019N0112651N1+00601+00301999999ADDGA1071+006001999GF107991999999999999999999MA1101081999999REMMET055METAR ETNT 090020Z 20014KT 9999 BKN020 06/03 Q1011 WHT;
0159101260999992008010901004+53550+007667FM-12+0012ETNT V0202001N005010060019N0150001N1+00621+00301101101ADDGA1071+006001061GF107991071051008001999999MA1999999100951MD1710201+9999REMSYN076AAXX  09011 10126 42565 72005 10062 20030 30095 40110 57020 875// 333 87620;
0124101260999992008010901204+53550+007667FM-15+0012ETNT V0201901N005710054019N0112651N1+00601+00301999999ADDGA1071+005401999GF107991999999999999999999MA1101021999999REMMET055METAR ETNT 090120Z 19011KT 9999 BKN018 06/03 Q1010 WHT;
0165101260999992008010902004+53550+007667FM-12+0012ETNT V0201901N00501004201CN0150001N1+00511+00241101031ADDGA1031+005401061GF107991071051004501999999MA1999999100881MD1710201+9999REMSYN082AAXX  09021 10126 42465 71905 10051 20024 30088 40103 57020 875// 333 83618 87650;
0147101260999992008010902204+53550+007667FM-15+0012ETNT V0201801N005710180019N0112651N1+00501+00301999999ADDGA1021+005401999GA2071+018001999GF107991999999999999999999MA1100911999999REMMET062METAR ETNT 090220Z 18011KT 9999 FEW018 BKN060 05/03 Q1009 BLU;
0124101260999992008010903204+53550+007667FM-15+0012ETNT V0201901N007210150019N0112651N1+00601+00301999999ADDGA1071+015001999GF107991999999999999999999MA1100811999999REMMET055METAR ETNT 090320Z 19014KT 9999 BKN050 06/03 Q1008 BLU;
0165101260999992008010904004+53550+007667FM-12+0012ETNT V0201901N00701012001CN0200001N1+00601+00251100821ADDGA1031+013201061GF107991071051012501999999MA1999999100671MD1710281+9999REMSYN082AAXX  09041 10126 42670 71907 10060 20025 30067 40082 57028 875// 333 83644 87656;
0161101260999992008010904204+53550+007667FM-15+0012ETNT V0201901N006710180019N0112651N1+00601+00201999999ADDGA1041+013201999GA2071+018001999GF107991999999999999999999MA1100711999999REMMET076METAR ETNT 090420Z 19013KT 9999 SCT044 BKN060 06/02 Q1007 BLU BLU BECMG WHT;
0193101260999992008010905004+53550+007667FM-12+0012ETNT V0201901N006010108019N0200001N1+00601+00221100741ADDAY121999AY221999GA1071+010801061GF107991071051012501999999MA1999999100601MD1710281+9999MW1611REMSYN088AAXX  09051 10126 41670 71906 10060 20022 30060 40074 57028 76122 875// 333 87636 91011;
0138101260999992008010905204+53550+007667FM-15+0012ETNT V0201901N005710108019N0112651N1+00601+00201999999ADDGA1071+010801999GF107991999999999999999999MA1100711999999REMMET069METAR ETNT 090520Z 19011KT 9999 BKN036 06/02 Q1007 BLU BLU BECMG WHT;
0138101260999992008010906204+53550+007667FM-15+0012ETNT V0202001N006710069019N0112651N1+00601+00301999999ADDGA1071+006901999GF107991999999999999999999MA1100711999999REMMET069METAR ETNT 090620Z 20013KT 9999 BKN023 06/03 Q1007 WHT WHT TEMPO GRN;
0235101260999992008010907004+53550+007667FM-12+0012ETNT V0202001N007010057019N0150001N1+00551+00291100691ADDAY161999AY261999GA1071+005701061GF107991071051004501999999MA1999999100541MD1710131+9999MW1631REMSYN130AAXX  09071 10126 41465 72007 10055 20029 30054 40069 57013 76366 875// 333 87619 555 BOT 10040 20042 30043 40045 50056 999 31///;
0143101260999992008010907204+53550+007667FM-15+0012ETNT V0202001N005710054019N0112651N1+00601+00301999999ADDGA1071+005401999GF107991999999999999999999MA1100711999999REMMET074METAR ETNT 090720Z 20011KT 9999 BKN018 06/03 Q1007 RERA WHT WHT TEMPO GRN;
0215101260999992008010908004+53550+007667FM-12+0012ETNT V0202001N006010048019N0150001N1+00591+00361100681ADDAY121999AY221999GA1011+004201081GA2051+004801061GF108991071081004501999999MA1999999100541MD1610061+9999MW1211REMSYN094AAXX  09081 10126 41465 82006 10059 20036 30054 40068 56006 72122 878// 333 81814 85616 87644;
0166101260999992008010908064+53550+007667FM-16+0012ETNT V0202001N007210036019N0112651N1+00601+00401999999ADDGA1071+003601999GA2071+013201999GF107991999999999999999999MA1100711999999REMMET081SPECI ETNT 090806Z 20014KT 9999 BKN012 BKN044 06/04 Q1007 RERA GRN WHT TEMPO GRN;
0138101260999992008010908204+53550+007667FM-15+0012ETNT V0202101N007210030019N0112651N1+00601+00401999999ADDGA1071+003001999GF107991999999999999999999MA1100711999999REMMET069METAR ETNT 090820Z 21014KT 9999 BKN010 06/04 Q1007 GRN WHT TEMPO GRN;
0138101260999992008010909204+53550+007667FM-15+0012ETNT V0202101N007210024019N0112651N1+00601+00401999999ADDGA1071+002401999GF107991999999999999999999MA1100711999999REMMET069METAR ETNT 090920Z 21014KT 9999 BKN008 06/04 Q1007 GRN WHT TEMPO GRN;
0159101260999992008010910004+53550+007667FM-12+0012ETNT V0202201N006010024019N0100001N1+00641+00431100751ADDGA1071+002401071GF108991071061002501999999MA1999999100611MD1310051+9999REMSYN076AAXX  09101 10126 42360 82206 10064 20043 30061 40075 53005 876// 333 87708;
0138101260999992008010910204+53550+007667FM-15+0012ETNT V0202201N006210027019N0112651N1+00701+00501999999ADDGA1071+002701999GF107991999999999999999999MA1100711999999REMMET069METAR ETNT 091020Z 22012KT 9999 BKN009 07/05 Q1007 GRN WHT TEMPO GRN;
0159101260999992008010911004+53550+007667FM-12+0012ETNT V0202201N006010033019N0100001N1+00691+00441100761ADDGA1071+003301071GF107991071061004501999999MA1999999100611MD1110071+9999REMSYN076AAXX  09111 10126 42460 72206 10069 20044 30061 40076 51007 876// 333 87711;
0138101260999992008010911204+53550+007667FM-15+0012ETNT V0202201N006710039019N0112651N1+00701+00401999999ADDGA1071+003901999GF107991999999999999999999MA1100711999999REMMET069METAR ETNT 091120Z 22013KT 9999 BKN013 07/04 Q1007 GRN GRN BECMG BLU;
0161101260999992008010912204+53550+007667FM-15+0012ETNT V0202201N006210084019N0112651N1+00701+00501999999ADDGA1041+004501999GA2071+008401999GF107991999999999999999999MA1100711999999REMMET076METAR ETNT 091220Z 22012KT 9999 SCT015 BKN028 07/05 Q1007 BLU BLU TEMPO GRN;
0187101260999992008010913004+53550+007667FM-12+0012ETNT V0202201N006010090019N0100001N1+00721+00451100741ADDGA1021+006001061GA2041+009001061GF107991051051008001001011MA1999999100591MD1810021+9999REMSYN088AAXX  09131 10126 42560 72206 10072 20045 30059 40074 58002 85501 333 82620 84630 87073;
0185101260999992008010913204+53550+007667FM-15+0012ETNT V0202201N00511009001CN0112651N1+00801+00401999999ADDGA1021+006001999GA2041+009001999GA3071+069001999GF107991999999999999999999MA1100711999999REMMET084METAR ETNT 091320Z 22010KT 9999 FEW020 SCT030 BKN230 08/04 Q1007 BLU+BLU+ TEMPO GRN;
0165101260999992008010914004+53550+007667FM-12+0012ETNT V0202301N00601007501CN0150001N1+00741+00411100781ADDGA1041+009001061GF107991051051008001001011MA1999999100631MD1310021+9999REMSYN082AAXX  09141 10126 42565 72306 10074 20041 30063 40078 53002 85501 333 84630 87073;
0162101260999992008010914204+53550+007667FM-15+0012ETNT V0202301N005710690019N0112651N1+00801+00401999999ADDGA1041+012001999GA2071+069001999GF107991999999999999999999MA1100711999999REMMET077METAR ETNT 091420Z 23011KT 9999 SCT040 BKN230 08/04 Q1007 BLU+BLU+ TEMPO GRN;
0162101260999992008010915204+53550+007667FM-15+0012ETNT V0202401N006212200019N0112651N1+00701+00301999999ADDGA1041+012001999GA2041+069001999GF104991999999999999999999MA1100811999999REMMET077METAR ETNT 091520Z 24012KT 9999 SCT040 SCT230 07/03 Q1008 BLU+BLU+ TEMPO GRN;
0165101260999992008010916004+53550+007667FM-12+0012ETNT V0202401N00601030001CN0150001N1+00611+00201100921ADDGA1021+012001061GF105991041051012501031001MA1999999100771MD1210181+9999REMSYN082AAXX  09161 10126 42665 52406 10061 20020 30077 40092 52018 84530 333 82640 84361;
0162101260999992008010916204+53550+007667FM-15+0012ETNT V0202401N005112200019N0112651N1+00601+00201999999ADDGA1021+012001999GA2041+033001999GF104991999999999999999999MA1100911999999REMMET077METAR ETNT 091620Z 24010KT 9999 FEW040 SCT110 06/02 Q1009 BLU+BLU+ TEMPO GRN;
0165101260999992008010917004+53550+007667FM-12+0012ETNT V0202301N00501030001CN0150001N1+00511+00201100961ADDGA1011+012001061GF105991041051012501031011MA1999999100811MD1210221+9999REMSYN082AAXX  09171 10126 42665 52305 10051 20020 30081 40096 52022 84531 333 81640 83361;
0152101260999992008010917204+53550+007667FM-15+0012ETNT V0202201N004612200019N0112651N1+00501+00201999999ADDGA1021+007501999GA2041+045001999GF104991999999999999999999MA1100911999999REMMET067METAR ETNT 091720Z 22009KT 9999 FEW025 SCT150 05/02 Q1009 BLU+BLU+;
0152101260999992008010918204+53550+007667FM-15+0012ETNT V0202201N004612200019N0112651N1+00401+00201999999ADDGA1021+007501999GA2041+045001999GF104991999999999999999999MA1101021999999REMMET067METAR ETNT 091820Z 22009KT 9999 FEW025 SCT150 04/02 Q1010 BLU+BLU+;
0159101260999992008010919004+53550+007667FM-12+0012ETNT V0202201N005012200019N0150001N1+00431+00181101041ADDGA1011+045001031GF102991011001999999031011MA1999999100891MD1110121+9999REMSYN076AAXX  09191 10126 42965 22205 10043 20018 30089 40104 51012 81031 333 81365;
0152101260999992008010919204+53550+007667FM-15+0012ETNT V0202101N005712200019N0112651N1+00401+00201999999ADDGA1021+033001999GA2041+069001999GF104991999999999999999999MA1101021999999REMMET067METAR ETNT 091920Z 21011KT 9999 FEW110 SCT230 04/02 Q1010 BLU+BLU+;
0165101260999992008010920004+53550+007667FM-12+0012ETNT V0202201N006012200019N0150001N1+00441+00181100981ADDGA1021+033001031GF104991021001999999031011MA1999999100831MD1010021+9999REMSYN082AAXX  09201 10126 42965 42206 10044 20018 30083 40098 50002 82031 333 82361 83070;
0159101260999992008010920204+53550+007667FM-15+0012ETNT V0202201N006712200019N0112651N1+00401+00201999999ADDGA1021+033001999GA2041+060001999GF104991999999999999999999MA1101021999999REMMET074METAR ETNT 092020Z 22013KT 9999 FEW110 SCT200 04/02 Q1010 BLU+FCST CANCEL;
0147101260999992008010921204+53550+007667FM-15+0012ETNT V0202201N006710300019N0112651N1+00501+00201999999ADDGA1021+015001999GA2071+030001999GF107991999999999999999999MA1101021999999REMMET062METAR ETNT 092120Z 22013KT 9999 FEW050 BKN100 05/02 Q1010 BLU;
0165101260999992008010922004+53550+007667FM-12+0012ETNT V0202201N00701030001CN0150001N1+00461+00141101081ADDGA1011+015001061GF106991011051017501031011MA1999999100941MD1310051+9999REMSYN082AAXX  09221 10126 42765 62207 10046 20014 30094 40108 53005 81531 333 81650 86359;
0124101260999992008010922204+53550+007667FM-15+0012ETNT V0202201N006710090019N0112651N1+00501+00201999999ADDGA1071+009001999GF107991999999999999999999MA1101021999999REMMET055METAR ETNT 092220Z 22013KT 9999 BKN030 05/02 Q1010 BLU;
0159101260999992008010923004+53550+007667FM-12+0012ETNT V0202201N007010090019N0150001N1+00471+00141101071ADDGA1071+009001061GF107991071051008001999999MA1999999100921MD1010091+9999REMSYN076AAXX  09231 10126 42565 72207 10047 20014 30092 40107 50009 875// 333 87630;
0124101260999992008010923204+53550+007667FM-15+0012ETNT V0202201N006710150019N0112651N1+00501+00201999999ADDGA1071+015001999GF107991999999999999999999MA1101081999999REMMET055METAR ETNT 092320Z 22013KT 9999 BKN050 05/02 Q1011 BLU;
0147101260999992008011000204+53550+007667FM-15+0012ETNT V0202201N007710150019N0112651N1+00501+00201999999ADDGA1041+005101999GA2071+015001999GF107991999999999999999999MA1101081999999REMMET062METAR ETNT 100020Z 22015KT 9999 SCT017 BKN050 05/02 Q1011 BLU;
0159101260999992008011001004+53550+007667FM-12+0012ETNT V0202201N008010060019N0150001N1+00471+00211101081ADDGA1071+006001061GF107991071051008001999999MA1999999100931MD1810011+9999REMSYN076AAXX  10011 10126 42565 72208 10047 20021 30093 40108 58001 875// 333 87620;
0124101260999992008011001204+53550+007667FM-15+0012ETNT V0202201N006710054019N0112651N1+00501+00301999999ADDGA1071+005401999GF107991999999999999999999MA1101021999999REMMET055METAR ETNT 100120Z 22013KT 9999 BKN018 05/03 Q1010 WHT;
0165101260999992008011002004+53550+007667FM-12+0012ETNT V0202201N00601030001CN0150001N1+00541+00271101021ADDGA1031+005401061GF107991031051004501031999MA1999999100881MD1810041+9999REMSYN082AAXX  10021 10126 42465 72206 10054 20027 30088 40102 58004 8353/ 333 83618 87361;
0124101260999992008011002204+53550+007667FM-15+0012ETNT V0202101N007210048019N0112651N1+00601+00301999999ADDGA1071+004801999GF107991999999999999999999MA1101021999999REMMET055METAR ETNT 100220Z 21014KT 9999 BKN016 06/03 Q1010 WHT;
0124101260999992008011003204+53550+007667FM-15+0012ETNT V0202101N007210420019N0112651N1+00501+00301999999ADDGA1071+042001999GF107991999999999999999999MA1101021999999REMMET055METAR ETNT 100320Z 21014KT 9999 BKN140 05/03 Q1010 BLU;
0159101260999992008011004004+53550+007667FM-12+0012ETNT V0202101N007010420019N0150001N1+00461+00231100931ADDGA1061+042001031GF106991061001999999031001MA1999999100781MD1710151+9999REMSYN076AAXX  10041 10126 42965 62107 10046 20023 30078 40093 57015 86030 333 86364;
0125101260999992008011004204+53550+007667FM-15+0012ETNT V0202001N006712200019N0112651N1+00401+00201999999ADDGA1041+045001999GF104991999999999999999999MA1100911999999REMMET056METAR ETNT 100420Z 20013KT 9999 SCT150 04/02 Q1009 BLU+;
