0142101260999992013010100204+53550+007667FM-15+0012ETNT V0202301N009310024019N0060001N1+00901+00801999999ADDGA1071+002401999GF107991999999999999999999MA1099701999999MW1511MW2611REMMET061METAR ETNT 010020Z 23018KT 6000 -RADZ BKN008 09/08 Q0997 GRN;
0199101260999992013010101004+53550+007667FM-12+0012ETNT V0202301N007010021019N0050001N1+00881+00761099751ADDAY161999AY261999GA1071+002101061GF108991071051002501999999MA1999999099591MD1610111+9999MW1581REMSYN094AAXX  01011 10126 41350 82307 10088 20076 39959 49975 56011 75866 875// 333 87607 91012 91116;
0151101260999992013010101204+53550+007667FM-15+0012ETNT V0202201N006210018019N0050001N1+00901+00801999999ADDGA1071+001801999GF107991999999999999999999MA1099701999999MW1101MW2511MW3611REMMET064METAR ETNT 010120Z 22012KT 5000 -RADZ BR BKN006 09/08 Q0997 YLO;
0187101260999992013010102004+53550+007667FM-12+0012ETNT V0202201N007010018019N0050001N1+00861+00771099751ADDAY161999AY261999GA1071+001801061GF108991071051001501999999MA1999999099591MD1610051+9999MW1581REMSYN082AAXX  01021 10126 41250 82207 10086 20077 39959 49975 56005 75866 875// 333 87606;
0150101260999992013010102204+53550+007667FM-15+0012ETNT V0202201N007210018019N0035001N1+00901+00801999999ADDGA1071+001801999GF107991999999999999999999MA1099701999999MW1101MW2531MW3631REMMET063METAR ETNT 010220Z 22014KT 3500 DZRA BR BKN006 09/08 Q0997 YLO;
0150101260999992013010103204+53550+007667FM-15+0012ETNT V0202201N008210018019N0035001N1+00801+00801999999ADDGA1071+001801999GF107991999999999999999999MA1099591999999MW1101MW2531MW3631REMMET063METAR ETNT 010320Z 22016KT 3500 DZRA BR BKN006 08/08 Q0996 YLO;
0187101260999992013010104004+53550+007667FM-12+0012ETNT V0202201N007010018019N0035001N1+00841+00741099691ADDAY161999AY261999GA1071+001801071GF108991071071001501999999MA1999999099531MD1810061+9999MW1581REMSYN082AAXX  01041 10126 41235 82207 10084 20074 39953 49969 58006 75866 877// 333 87706;
0156101260999992013010104204+53550+007667FM-15+0012ETNT V0202201N006710018019N0035001N1+00801+00701999999ADDGA1071+001801999GF107991999999999999999999MA1099591999999MW1101MW2511MW3611REMMET069METAR ETNT 010420Z 22013KT 3500 -DZRA BR BKN006 08/07 Q0996 RERA YLO;
0187101260999992013010105004+53550+007667FM-12+0012ETNT V0202201N007010018019N0035001N1+00841+00731099691ADDAY161999AY261999GA1071+001801071GF108991071071001501999999MA1999999099531MD1610061+9999MW1581REMSYN082AAXX  01051 10126 41235 82207 10084 20073 39953 49969 56006 75866 877// 333 87706;
0151101260999992013010105204+53550+007667FM-15+0012ETNT V0202201N006710018019N0035001N1+00801+00701999999ADDGA1071+001801999GF107991999999999999999999MA1099591999999MW1101MW2511MW3611REMMET064METAR ETNT 010520Z 22013KT 3500 -DZRA BR BKN006 08/07 Q0996 YLO;
0151101260999992013010106204+53550+007667FM-15+0012ETNT V0202201N005710018019N0045001N1+00801+00701999999ADDGA1071+001801999GF107991999999999999999999MA1099591999999MW1101MW2511MW3611REMMET064METAR ETNT 010620Z 22011KT 4500 -DZRA BR BKN006 08/07 Q0996 YLO;
0187101260999992013010107004+53550+007667FM-12+0012ETNT V0202401N005010018019N0045001N1+00831+00751099731ADDAY161999AY261999GA1071+001801071GF108991071071001501999999MA1999999099571MD1310041+9999MW1581REMSYN082AAXX  01071 10126 41245 82405 10083 20075 39957 49973 53004 75866 877// 333 87706;
0174101260999992013010107204+53550+007667FM-15+0012ETNT V0203001N004110081019N0045001N1+00701+00701999999ADDGA1041+002101999GA2071+008101999GF107991999999999999999999MA1099701999999MW1101MW2511MW3611REMMET071METAR ETNT 010720Z 30008KT 4500 -DZRA BR SCT007 BKN027 07/07 Q0997 GRN;
0193101260999992013010108004+53550+007667FM-12+0012ETNT V0202801N00101002101CN0050001N1+00701+00631099811ADDAY161999AY261999GA1021+002101071GF108991071051002501999999MA1999999099651MD1210121+9999MW1211REMSYN088AAXX  01081 10126 41350 82801 10070 20063 39965 49981 52012 72166 875// 333 82707 87646;
0124101260999992013010108204+53550+007667FM-15+0012ETNT V0202501N001510114019N0090001N1+00701+00601999999ADDGA1071+011401999GF107991999999999999999999MA1099801999999REMMET055METAR ETNT 010820Z 25003KT 9000 BKN038 07/06 Q0998 BLU;
0147101260999992013010109204+53550+007667FM-15+0012ETNT V0202601N002610180019N0080001N1+00701+00601999999ADDGA1041+001501999GA2071+018001999GF107991999999999999999999MA1099901999999REMMET062METAR ETNT 010920Z 26005KT 8000 SCT005 BKN062 07/06 Q0999 BLU;
0165101260999992013010110004+53550+007667FM-12+0012ETNT V0202501N00201006001CN0100001N1+00711+00641099961ADDGA1021+001501081GF107991071081001501999999MA1999999099801MD1210231+9999REMSYN082AAXX  01101 10126 42260 72502 10071 20064 39980 49996 52023 878// 333 82805 87656;
0147101260999992013010110204+53550+007667FM-15+0012ETNT V0202701N003110180019N0112651N1+00701+00601999999ADDGA1021+003301999GA2071+018001999GF107991999999999999999999MA1099901999999REMMET062METAR ETNT 011020Z 27006KT 9999 FEW011 BKN060 07/06 Q0999 BLU;
0165101260999992013010111004+53550+007667FM-12+0012ETNT V0202601N00401006001CN0130001N1+00741+00631100011ADDGA1041+002401081GF107991071081002501999999MA1999999099851MD1210201+9999REMSYN082AAXX  01111 10126 42363 72604 10074 20063 39985 40001 52020 878// 333 84808 87644;
0147101260999992013010111204+53550+007667FM-15+0012ETNT V0202601N003610180019N0112651N1+00801+00601999999ADDGA1041+002401999GA2071+018001999GF107991999999999999999999MA1100001999999REMMET062METAR ETNT 011120Z 26007KT 9999 SCT008 BKN060 08/06 Q1000 BLU;
0147101260999992013010112204+53550+007667FM-15+0012ETNT V0202701N004110180019N0112651N1+00801+00601999999ADDGA1021+003601999GA2071+018001999GF107991999999999999999999MA1100001999999REMMET062METAR ETNT 011220Z 27008KT 9999 FEW012 BKN065 08/06 Q1000 BLU;
0165101260999992013010113004+53550+007667FM-12+0012ETNT V0202801N00501009001CN0200001N1+00741+00541100141ADDGA1021+004501081GF107991071081004501999999MA1999999099981MD1210171+9999REMSYN082AAXX  01131 10126 42470 72805 10074 20054 39998 40014 52017 878// 333 82815 87657;
0147101260999992013010113204+53550+007667FM-15+0012ETNT V0202801N005110240019N0112651N1+00701+00401999999ADDGA1021+005701999GA2071+024001999GF107991999999999999999999MA1100101999999REMMET062METAR ETNT 011320Z 28010KT 9999 FEW019 BKN080 07/04 Q1001 BLU;
0165101260999992013010114004+53550+007667FM-12+0012ETNT V0202801N00401030001CN0300001N1+00691+00401100231ADDGA1021+006301081GF107991031081008001031001MA1999999100071MD1210211+9999REMSYN082AAXX  01141 10126 42580 72804 10069 20040 30007 40023 52021 83830 333 82821 86359;
0147101260999992013010114214+53550+007667FM-16+0012ETNT V0202601N004610270019N0112651N1+00701+00301999999ADDGA1021+006001999GA2071+027001999GF107991999999999999999999MA1100201999999REMMET062SPECI ETNT 011421Z 26009KT 9999 FEW020 BKN090 07/03 Q1002 BLU;
0148101260999992013010115204+53550+007667FM-15+0012ETNT V0202501N004112200019N0112651N1+00601+00301999999ADDGA1021+012001999GA2041+063001999GF104991999999999999999999MA1100311999999REMMET063METAR ETNT 011520Z 25008KT 9999 FEW040 SCT210 06/03 Q1003 BLU/;
0159101260999992013010116004+53550+007667FM-12+0012ETNT V0202501N003012200019N0300001N1+00531+00271100361ADDGA1011+006601081GF104991011011008001031011MA1999999100201MD1210221+9999REMSYN076AAXX  01161 10126 42580 42503 10053 20027 30020 40036 52022 81131 333 81822;
0125101260999992013010116204+53550+007667FM-15+0012ETNT V0202401N002612200019N0112651N1+00501+00301999999ADDGA1021+007201999GF102991999999999999999999MA1100311999999REMMET056METAR ETNT 011620Z 24005KT 9999 FEW024 05/03 Q1003 BLU/;
0159101260999992013010117004+53550+007667FM-12+0012ETNT V0202401N004012200019N0250001N1+00441+00231100431ADDGA1031+012601061GF104991031051012501001011MA1999999100271MD1210211+9999REMSYN076AAXX  01171 10126 42675 42404 10044 20023 30027 40043 52021 83501 333 83642;
0125101260999992013010117204+53550+007667FM-15+0012ETNT V0202401N004612200019N0112651N1+00401+00301999999ADDGA1021+012001999GF102991999999999999999999MA1100411999999REMMET056METAR ETNT 011720Z 24009KT 9999 FEW040 04/03 Q1004 BLU/;
0148101260999992013010118204+53550+007667FM-15+0012ETNT V0202401N005112200019N0112651N1+00501+00201999999ADDGA1021+006001999GA2041+013501999GF104991999999999999999999MA1100511999999REMMET063METAR ETNT 011820Z 24010KT 9999 FEW020 SCT045 05/02 Q1005 BLU/;
0165101260999992013010119004+53550+007667FM-12+0012ETNT V0202401N005012200019N0250001N1+00421+00201100551ADDGA1011+006001081GF103991031081008001001001MA1999999100391MD1210191+9999REMSYN082AAXX  01191 10126 42575 32405 10042 20020 30039 40055 52019 83800 333 81820 83640;
0148101260999992013010119204+53550+007667FM-15+0012ETNT V0202401N005112200019N0112651N1+00501+00201999999ADDGA1021+006001999GA2041+014401999GF104991999999999999999999MA1100511999999REMMET063METAR ETNT 011920Z 24010KT 9999 FEW020 SCT048 05/02 Q1005 BLU/;
0165101260999992013010120004+53550+007667FM-12+0012ETNT V0202301N005012200019N0250001N1+00441+00251100601ADDGA1011+006001081GF104991041081008001001001MA1999999100441MD1210171+9999REMSYN082AAXX  01201 10126 42575 42305 10044 20025 30044 40060 52017 84800 333 81820 84645;
0147101260999992013010120204+53550+007667FM-15+0012ETNT V0202301N005110126019N0112651N1+00401+00301999999ADDGA1021+006001999GA2071+012601999GF107991999999999999999999MA1100611999999REMMET062METAR ETNT 012020Z 23010KT 9999 FEW020 BKN042 04/03 Q1006 BLU;
0159101260999992013010121204+53550+007667FM-15+0012ETNT V0202301N005710060019N0112651N1+00501+00301999999ADDGA1021+004201999GA2071+006001999GF107991999999999999999999MA1100611999999MW1801REMMET068METAR ETNT 012120Z 23011KT 9999 -SHRA FEW014 BKN020 05/03 Q1006 WHT;
0165101260999992013010122004+53550+007667FM-12+0012ETNT V0202401N00601009001CN0250001N1+00481+00291100681ADDGA1021+005401081GF107991061081004501031001MA1999999100521MD1210131+9999REMSYN082AAXX  01221 10126 42475 72406 10048 20029 30052 40068 52013 86830 333 82818 86624;
0147101260999992013010122204+53550+007667FM-15+0012ETNT V0202401N006210063019N0112651N1+00501+00301999999ADDGA1021+005401999GA2071+006301999GF107991999999999999999999MA1100711999999REMMET062METAR ETNT 012220Z 24012KT 9999 FEW018 BKN021 05/03 Q1007 WHT;
0193101260999992013010123004+53550+007667FM-12+0012ETNT V0202501N00701009001CN0100001N1+00521+00321100751ADDAY181999AY221999GA1021+003901081GF107991071081004501999999MA1999999100591MD1210151+9999MW1801REMSYN088AAXX  01231 10126 41460 72507 10052 20032 30059 40075 52015 78082 878// 333 82813 87616;
0150101260999992013010123204+53550+007667FM-15+0012ETNT V0202501N006710060019N0112651N1+00501+00301999999ADDGA1021+003901021GA2071+006001999GF107991999999999999999999MA1100711999999REMMET065METAR ETNT 012320Z 25013KT 9999 FEW013TCU BKN020 05/03 Q1007 WHT;
0150101260999992013010123214+53550+007667FM-16+0012ETNT V0202501N006710060019N0112651N1+00501+00301999999ADDGA1021+003901021GA2071+006001999GF107991999999999999999999MA1100711999999REMMET065SPECI ETNT 012321Z 25013KT 9999 FEW013TCU BKN020 05/03 Q1007 WHT;
0128101260999992013010200204+53550+007667FM-15+0012ETNT V0202401N006712200019N0112651N1+00501+00301999999ADDGA1041+005401021GF104991999999999999999999MA1100711999999REMMET059METAR ETNT 020020Z 24013KT 9999 SCT018TCU 05/03 Q1007 BLU/;
0187101260999992013010201004+53550+007667FM-12+0012ETNT V0202601N006012200019N0200001N1+00501+00351100821ADDAY181999AY211999GA1031+005401081GF104991041081004501001001MA1999999100661MD1210141+9999MW1251REMSYN082AAXX  02011 10126 41470 42606 10050 20035 30066 40082 52014 72581 84800 333 83818;
0151101260999992013010201204+53550+007667FM-15+0012ETNT V0202501N005712200019N0112651N1+00501+00401999999ADDGA1021+006001021GA2041+013801999GF104991999999999999999999MA1100811999999REMMET066METAR ETNT 020120Z 25011KT 9999 FEW020TCU SCT046 05/04 Q1008 BLU/;
0159101260999992013010202004+53550+007667FM-12+0012ETNT V0202601N005012200019N0200001N1+00531+00371100941ADDGA1021+006001081GF103991031081008001001001MA1999999100781MD1210191+9999REMSYN076AAXX  02021 10126 42570 32605 10053 20037 30078 40094 52019 83800 333 82820;
0151101260999992013010202204+53550+007667FM-15+0012ETNT V0202801N005112200019N0112651N1+00601+00401999999ADDGA1021+005701021GA2041+013501999GF104991999999999999999999MA1101021999999REMMET066METAR ETNT 020220Z 28010KT 9999 FEW019TCU SCT045 06/04 Q1010 BLU/;
0125101260999992013010203204+53550+007667FM-15+0012ETNT V0202701N004612200019N0112651N1+00601+00401999999ADDGA1021+006001999GF102991999999999999999999MA1101021999999REMMET056METAR ETNT 020320Z 27009KT 9999 FEW020 06/04 Q1010 BLU/;
0193101260999992013010204004+53550+007667FM-12+0012ETNT V0202801N00701009001CN0200001N1+00591+00351101091ADDAY181999AY211999GA1021+004801081GF107991061081004501071001MA1999999100931MD1210271+9999MW1251REMSYN088AAXX  02041 10126 41470 72807 10059 20035 30093 40109 52027 72581 86870 333 82816 85635;
0150101260999992013010204204+53550+007667FM-15+0012ETNT V0202801N005110105019N0112651N1+00601+00401999999ADDGA1021+004801021GA2071+010501999GF107991999999999999999999MA1101081999999REMMET065METAR ETNT 020420Z 28010KT 9999 FEW016TCU BKN035 06/04 Q1011 BLU;
0215101260999992013010205004+53550+007667FM-12+0012ETNT V0202801N005010105019N0200001N1+00611+00411101211ADDAY121999AY221999GA1031+004801081GA2051+010501061GF107991061081004501071999MA1999999101051MD1210271+9999MW1801REMSYN094AAXX  02051 10126 41470 72805 10061 20041 30105 40121 52027 78022 8687/ 333 83816 85635 87361;
0173101260999992013010205204+53550+007667FM-15+0012ETNT V0202801N00721010501CN0112651N1+00601+00401999999ADDGA1021+004801021GA2041+010501999GA3071+033001999GF107991999999999999999999MA1101191999999REMMET072METAR ETNT 020520Z 28014KT 9999 FEW016TCU SCT035 BKN110 06/04 Q1012 BLU;
0150101260999992013010206204+53550+007667FM-15+0012ETNT V0202701N004110090019N0112651N1+00501+00401999999ADDGA1021+006001021GA2071+009001999GF107991999999999999999999MA1101291999999REMMET065METAR ETNT 020620Z 27008KT 9999 FEW020TCU BKN030 05/04 Q1013 BLU;
0187101260999992013010207004+53550+007667FM-12+0012ETNT V0202701N005012200019N0300001N1+00531+00401101441ADDAY111999AY211999GA1031+009001081GF103991031021008001001001MA1999999101281MD1210351+9999MW1251REMSYN082AAXX  02071 10126 41580 32705 10053 20040 30128 40144 52035 72511 83200 333 83830;
0125101260999992013010207204+53550+007667FM-15+0012ETNT V0202701N004612200019N0112651N1+00601+00401999999ADDGA1041+009001999GF104991999999999999999999MA1101491999999REMMET056METAR ETNT 020720Z 27009KT 9999 SCT030 06/04 Q1015 BLU/;
0193101260999992013010208004+53550+007667FM-12+0012ETNT V0202801N004010120019N0300001N1+00601+00431101571ADDAY111999AY211999GA1021+006001081GF105991051081008001001001MA1999999101411MD1210361+9999MW1801REMSYN088AAXX  02081 10126 41580 52804 10060 20043 30141 40157 52036 78011 85800 333 82820 85640;
0147101260999992013010208204+53550+007667FM-15+0012ETNT V0202701N004110120019N0112651N1+00601+00401999999ADDGA1021+006001999GA2071+012001999GF107991999999999999999999MA1101591999999REMMET062METAR ETNT 020820Z 27008KT 9999 FEW020 BKN040 06/04 Q1016 BLU;
0173101260999992013010209204+53550+007667FM-15+0012ETNT V0202801N00461006001CN0112651N1+00601+00401999999ADDGA1021+003001999GA2041+006001021GA3071+012001999GF107991999999999999999999MA1101691999999REMMET072METAR ETNT 020920Z 28009KT 9999 FEW010 SCT020TCU BKN040 06/04 Q1017 BLU;
0165101260999992013010210004+53550+007667FM-12+0012ETNT V0202701N004012200019N0200001N1+00631+00461101801ADDGA1021+005401081GF104991041081004501001001MA1999999101641MD1210361+9999REMSYN082AAXX  02101 10126 42470 42704 10063 20046 30164 40180 52036 84800 333 82818 83640;
0151101260999992013010210204+53550+007667FM-15+0012ETNT V0202701N004612200019N0112651N1+00701+00501999999ADDGA1021+005401021GA2041+012001999GF104991999999999999999999MA1101801999999REMMET066METAR ETNT 021020Z 27009KT 9999 FEW018TCU SCT040 07/05 Q1018 BLU/;
0165101260999992013010211004+53550+007667FM-12+0012ETNT V0202701N005012200019N0150001N1+00711+00481101871ADDGA1011+004501081GF104991031081004501001011MA1999999101711MD1210301+9999REMSYN082AAXX  02111 10126 42465 42705 10071 20048 30171 40187 52030 83801 333 81815 83638;
0124101260999992013010211204+53550+007667FM-15+0012ETNT V0202701N006210039019N0112651N1+00801+00501999999ADDGA1071+003901999GF107991999999999999999999MA1101901999999REMMET055METAR ETNT 021120Z 27012KT 9999 BKN013 08/05 Q1019 GRN;
0148101260999992013010212204+53550+007667FM-15+0012ETNT V0202801N006712200019N0112651N1+00801+00501999999ADDGA1041+003601999GA2041+009601999GF104991999999999999999999MA1101901999999REMMET063METAR ETNT 021220Z 28013KT 9999 SCT012 SCT032 08/05 Q1019 BLU/;
0193101260999992013010213004+53550+007667FM-12+0012ETNT V0202701N007010090019N0120001N1+00771+00521101991ADDAY121999AY221999GA1041+003301081GF107991061081004501001011MA1999999101831MD1210191+9999MW1251REMSYN088AAXX  02131 10126 41462 72707 10077 20052 30183 40199 52019 72522 86801 333 84811 83630;
0148101260999992013010213204+53550+007667FM-15+0012ETNT V0202701N007212200019N0112651N1+00801+00501999999ADDGA1041+003601999GA2041+009001999GF104991999999999999999999MA1102001999999REMMET063METAR ETNT 021320Z 27014KT 9999 SCT012 SCT030 08/05 Q1020 BLU/;
0165101260999992013010214004+53550+007667FM-12+0012ETNT V0202701N00701009001CN0200001N1+00741+00511102041ADDGA1041+003301081GF107991071081004501999011MA1999999101881MD1210171+9999REMSYN082AAXX  02141 10126 42470 72707 10074 20051 30188 40204 52017 878/1 333 84811 85638;
0148101260999992013010214204+53550+007667FM-15+0012ETNT V0202701N006712200019N0112651N1+00701+00501999999ADDGA1021+003601999GA2041+010801999GF104991999999999999999999MA1102001999999REMMET063METAR ETNT 021420Z 27013KT 9999 FEW012 SCT036 07/05 Q1020 BLU/;
0147101260999992013010215204+53550+007667FM-15+0012ETNT V0202601N004610036019N0112651N1+00701+00501999999ADDGA1071+003601999GA2071+072001999GF107991999999999999999999MA1102101999999REMMET062METAR ETNT 021520Z 26009KT 9999 BKN012 BKN240 07/05 Q1021 GRN;
0165101260999992013010216004+53550+007667FM-12+0012ETNT V0202401N00401030001CN0200001N1+00651+00451102141ADDGA1031+003601081GF107991031011004501071011MA1999999101981MD1210151+9999REMSYN082AAXX  02161 10126 42470 72404 10065 20045 30198 40214 52015 83171 333 83812 85074;
0147101260999992013010216204+53550+007667FM-15+0012ETNT V0202401N004110300019N0112651N1+00601+00401999999ADDGA1041+003601999GA2071+030001999GF107991999999999999999999MA1102101999999REMMET062METAR ETNT 021620Z 24008KT 9999 SCT012 BKN100 06/04 Q1021 BLU;
0187101260999992013010217004+53550+007667FM-12+0012ETNT V0202401N005010090019N0200001N1+00591+00431102171ADDGA1031+004501081GA2031+009001061GF107991051081004501071001MA1999999102011MD1210131+9999REMSYN088AAXX  02171 10126 42470 72405 10059 20043 30201 40217 52013 85870 333 83815 83630 85363;
0147101260999992013010217204+53550+007667FM-15+0012ETNT V0202401N005110090019N0112651N1+00601+00401999999ADDGA1021+003601999GA2071+009001999GF107991999999999999999999MA1102201999999REMMET062METAR ETNT 021720Z 24010KT 9999 FEW012 BKN030 06/04 Q1022 BLU;
0147101260999992013010218204+53550+007667FM-15+0012ETNT V0202201N004610039019N0112651N1+00601+00401999999ADDGA1071+003901999GA2071+008101999GF107991999999999999999999MA1102201999999REMMET062METAR ETNT 021820Z 22009KT 9999 BKN013 BKN027 06/04 Q1022 GRN;
0159101260999992013010219004+53550+007667FM-12+0012ETNT V0202201N005010039019N0200001N1+00611+00441102201ADDGA1071+003901061GF107991071051004501999999MA1999999102041MD1110061+9999REMSYN076AAXX  02191 10126 42470 72205 10061 20044 30204 40220 51006 875// 333 87613;
0124101260999992013010219204+53550+007667FM-15+0012ETNT V0202401N005110036019N0112651N1+00601+00501999999ADDGA1071+003601999GF107991999999999999999999MA1102201999999REMMET055METAR ETNT 021920Z 24010KT 9999 BKN012 06/05 Q1022 GRN;
0159101260999992013010220004+53550+007667FM-12+0012ETNT V0202301N005010036019N0200001N1+00621+00461102221ADDGA1071+003601061GF107991071051004501999999MA1999999102061MD1210051+9999REMSYN076AAXX  02201 10126 42470 72305 10062 20046 30206 40222 52005 875// 333 87612;
0157101260999992013010220204+53550+007667FM-15+0012ETNT V0202201N004110030019N0112651N1+00601+00501999999ADDGA1071+003001999GA2071+008401999GF107991999999999999999999MA1102201999999MW1611REMMET066METAR ETNT 022020Z 22008KT 9999 -RA BKN010 BKN028 06/05 Q1022 GRN;
0151101260999992013010221204+53550+007667FM-15+0012ETNT V0202201N005110015019N0040001N1+00601+00501999999ADDGA1071+001501999GF107991999999999999999999MA1102201999999MW1101MW2511MW3611REMMET064METAR ETNT 022120Z 22010KT 4000 -DZRA BR BKN005 06/05 Q1022 YLO;
0187101260999992013010222004+53550+007667FM-12+0012ETNT V0202201N005010015019N0040001N1+00601+00521102181ADDAY161999AY261999GA1071+001501071GF108991071071001501999999MA1999999102021MD1810021+9999MW1581REMSYN082AAXX  02221 10126 41240 82205 10060 20052 30202 40218 58002 75866 877// 333 87705;
0151101260999992013010222204+53550+007667FM-15+0012ETNT V0202201N005110012019N0040001N1+00601+00501999999ADDGA1071+001201999GF107991999999999999999999MA1102101999999MW1101MW2511MW3611REMMET064METAR ETNT 022220Z 22010KT 4000 -DZRA BR BKN004 06/05 Q1021 YLO;
0187101260999992013010223004+53550+007667FM-12+0012ETNT V0202201N006010012019N0040001N1+00601+00541102141ADDAY161999AY261999GA1071+001201071GF108991071071001501999999MA1999999101981MD1810081+9999MW1581REMSYN082AAXX  02231 10126 41240 82206 10060 20054 30198 40214 58008 75866 877// 333 87704;
0151101260999992013010223204+53550+007667FM-15+0012ETNT V0202201N006710012019N0040001N1+00601+00601999999ADDGA1071+001201999GF107991999999999999999999MA1102101999999MW1101MW2511MW3611REMMET064METAR ETNT 022320Z 22013KT 4000 -DZRA BR BKN004 06/06 Q1021 YLO;
0142101260999992013010300204+53550+007667FM-15+0012ETNT V0202301N007210012019N0060001N1+00701+00601999999ADDGA1071+001201999GF107991999999999999999999MA1101901999999MW1511MW2611REMMET061METAR ETNT 030020Z 23014KT 6000 -DZRA BKN004 07/06 Q1019 YLO;
0193101260999992013010301004+53550+007667FM-12+0012ETNT V0202301N008010012019N0060001N1+00661+00581102011ADDAY161999AY251999GA1071+001201071GF108991071071001501999999MA1999999101851MD1710171+9999MW1511REMSYN088AAXX  03011 10126 41256 82308 10066 20058 30185 40201 57017 75165 877// 333 87704 91113;
0143101260999992013010301204+53550+007667FM-15+0012ETNT V0202301N007710012019N0050001N1+00701+00601999999ADDGA1071+001201999GF107991999999999999999999MA1102001999999MW1101MW2511REMMET062METAR ETNT 030120Z 23015KT 5000 -DZ BR BKN004 07/06 Q1020 YLO;
0187101260999992013010302004+53550+007667FM-12+0012ETNT V0202401N008010012019N0050001N1+00691+00631102031ADDAY151999AY251999GA1071+001201071GF108991071071001501999999MA1999999101871MD1510111+9999MW1511REMSYN082AAXX  03021 10126 41250 82408 10069 20063 30187 40203 55011 75155 877// 333 87704;
0153101260999992013010302204+53550+007667FM-15+0012ETNT V0202401N006710012019N0028001N1+00701+00701999999ADDGA1071+001201999GF107991999999999999999999MA1102001999999MW1101MW2531OC101231REMMET064METAR ETNT 030220Z 24013G24KT 2800 DZ BR BKN004 07/07 Q1020 YLO;
0143101260999992013010303204+53550+007667FM-15+0012ETNT V0202501N006710009019N0040001N1+00801+00701999999ADDGA1071+000901999GF107991999999999999999999MA1102001999999MW1101MW2511REMMET062METAR ETNT 030320Z 25013KT 4000 -DZ BR BKN003 08/07 Q1020 YLO;
0187101260999992013010304004+53550+007667FM-12+0012ETNT V0202601N008010009019N0040001N1+00831+00771102051ADDAY151999AY251999GA1071+000901071GF108991071071000751999999MA1999999101891MD1310041+9999MW1511REMSYN082AAXX  03041 10126 41140 82608 10083 20077 30189 40205 53004 75155 877// 333 87703;
0143101260999992013010304204+53550+007667FM-15+0012ETNT V0202601N007710012019N0040001N1+00901+00901999999ADDGA1071+001201999GF107991999999999999999999MA1102001999999MW1101MW2511REMMET062METAR ETNT 030420Z 26015KT 4000 -DZ BR BKN004 09/09 Q1020 YLO;
0193101260999992013010305004+53550+007667FM-12+0012ETNT V0202701N008010012019N0040001N1+00921+00861102061ADDAY151999AY251999GA1071+001201071GF108991071071001501999999MA1999999101901MD1310031+9999MW1511REMSYN088AAXX  03051 10126 41240 82708 10092 20086 30190 40206 53003 75155 877// 333 87704 91114;
0133101260999992013010305204+53550+007667FM-15+0012ETNT V0202701N008710015019N0040001N1+00901+00901999999ADDGA1071+001501999GF107991999999999999999999MA1102001999999MW1101REMMET058METAR ETNT 030520Z 27017KT 4000 BR BKN005 09/09 Q1020 YLO;
0133101260999992013010305214+53550+007667FM-16+0012ETNT V0202701N008710015019N0040001N1+00901+00901999999ADDGA1071+001501999GF107991999999999999999999MA1102001999999MW1101REMMET058SPECI ETNT 030521Z 27017KT 4000 BR BKN005 09/09 Q1020 YLO;
0143101260999992013010306204+53550+007667FM-15+0012ETNT V0202701N008710018019N0040001N1+01001+00901999999ADDGA1071+001801999GF107991999999999999999999MA1102101999999MW1101MW2511REMMET062METAR ETNT 030620Z 27017KT 4000 -DZ BR BKN006 10/09 Q1021 YLO;
0193101260999992013010308004+53550+007667FM-12+0012ETNT V0202801N010010021019N0050001N1+00951+00841102241ADDAY151999AY221999GA1071+002101071GF108991071061002501999999MA1999999102081MD1210181+9999MW1201REMSYN088AAXX  03081 10126 41350 82810 10095 20084 30208 40224 52018 72052 876// 333 87707 91114;
0124101260999992013010308204+53550+007667FM-15+0012ETNT V0202701N008710021019N0060001N1+00901+00801999999ADDGA1071+002101999GF107991999999999999999999MA1102201999999REMMET055METAR ETNT 030820Z 27017KT 6000 BKN007 09/08 Q1022 GRN;
0124101260999992013010309204+53550+007667FM-15+0012ETNT V0202801N009310015019N0060001N1+00901+00801999999ADDGA1071+001501999GF107991999999999999999999MA1102301999999REMMET055METAR ETNT 030920Z 28018KT 6000 BKN005 09/08 Q1023 YLO;
0215101260999992013010310004+53550+007667FM-12+0012ETNT V0202701N009010015019N0070001N1+00931+00821102371ADDAY121011AY221011GA1051+001501071GA2071+002401071GF107991071061001501999999MA1999999102211MD1210221+9999MW1101REMSYN094AAXX  03101 10126 41257 72709 10093 20082 30221 40237 52022 71022 876// 333 85705 87708 91114;
0147101260999992013010310204+53550+007667FM-15+0012ETNT V0202801N008710021019N0080001N1+01001+00801999999ADDGA1071+002101999GA2071+003001999GF107991999999999999999999MA1102401999999REMMET062METAR ETNT 031020Z 28017KT 8000 BKN007 BKN010 10/08 Q1024 GRN;
0187101260999992013010311004+53550+007667FM-12+0012ETNT V0202801N009010021019N0080001N1+00981+00831102421ADDGA1051+002101071GA2071+003601061GF107991071051002501999999MA1999999102261MD1210181+9999REMSYN088AAXX  03111 10126 42358 72809 10098 20083 30226 40242 52018 875// 333 85707 87612 91113;
0147101260999992013010311204+53550+007667FM-15+0012ETNT V0202701N008210075019N0080001N1+01001+00801999999ADDGA1041+002401999GA2071+007501999GF107991999999999999999999MA1102401999999REMMET062METAR ETNT 031120Z 27016KT 8000 SCT008 BKN025 10/08 Q1024 BLU;
0147101260999992013010312204+53550+007667FM-15+0012ETNT V0202801N008710027019N0090001N1+01001+00801999999ADDGA1071+002701999GA2071+004801999GF107991999999999999999999MA1102401999999REMMET062METAR ETNT 031220Z 28017KT 9000 BKN009 BKN016 10/08 Q1024 GRN;
0165101260999992013010313004+53550+007667FM-12+0012ETNT V0202701N008010027019N0080001N1+00981+00821102461ADDGA1051+002701071GF107991071051002501999999MA1999999102301MD1210091+9999REMSYN082AAXX  03131 10126 42358 72708 10098 20082 30230 40246 52009 875// 333 85709 87630;
0147101260999992013010313204+53550+007667FM-15+0012ETNT V0202801N008710027019N0080001N1+01001+00801999999ADDGA1071+002701999GA2071+009001999GF107991999999999999999999MA1102401999999REMMET062METAR ETNT 031320Z 28017KT 8000 BKN009 BKN030 10/08 Q1024 GRN;
0227101260999992013010314004+53550+007667FM-12+0012ETNT V0202801N007010033019N0080001N1+00961+00801102511ADDGA1071+003301071GF107991071061004501999999MA1999999102351MD1310091+9999OD149901309999REMSYN130AAXX  03141 10126 42458 72807 10096 20080 30235 40251 53009 876// 333 87711 91012 91113 555 BOT 10086 20081 30069 40061 999 31///;
0124101260999992013010314204+53550+007667FM-15+0012ETNT V0202901N007710033019N0080001N1+01001+00801999999ADDGA1071+003301999GF107991999999999999999999MA1102511999999REMMET055METAR ETNT 031420Z 29015KT 8000 BKN011 10/08 Q1025 GRN;
0157101260999992013010315204+53550+007667FM-15+0012ETNT V0202901N005110021019N0050001N1+00901+00801999999ADDGA1071+002101999GA2071+003001999GF107991999999999999999999MA1102711999999MW1511REMMET066METAR ETNT 031520Z 29010KT 5000 -DZ BKN007 BKN010 09/08 Q1027 GRN;
0187101260999992013010316004+53550+007667FM-12+0012ETNT V0202901N006010021019N0050001N1+00891+00791102731ADDAY151999AY251999GA1071+002101071GF108991071061002501999999MA1999999102571MD1210271+9999MW1501REMSYN082AAXX  03161 10126 41350 82906 10089 20079 30257 40273 52027 75055 876// 333 87707;
0147101260999992013010316204+53550+007667FM-15+0012ETNT V0202801N005710105019N0070001N1+00901+00801999999ADDGA1041+002101999GA2071+010501999GF107991999999999999999999MA1102711999999REMMET062METAR ETNT 031620Z 28011KT 7000 SCT007 BKN035 09/08 Q1027 WHT;
0193101260999992013010317004+53550+007667FM-12+0012ETNT V0202801N00501002101CN0070001N1+00881+00761102771ADDAY121999AY221999GA1031+002401071GF108991071051002501999999MA1999999102611MD1110261+9999MW1201REMSYN088AAXX  03171 10126 41357 82805 10088 20076 30261 40277 51026 72022 875// 333 83708 87637;
0147101260999992013010317204+53550+007667FM-15+0012ETNT V0202801N004110024019N0070001N1+00901+00801999999ADDGA1071+002401999GA2071+011101999GF107991999999999999999999MA1102811999999REMMET062METAR ETNT 031720Z 28008KT 7000 BKN008 BKN037 09/08 Q1028 GRN;
0147101260999992013010317324+53550+007667FM-16+0012ETNT V0202801N004610111019N0112651N1+00901+00801999999ADDGA1021+002401999GA2071+011101999GF107991999999999999999999MA1102811999999REMMET062SPECI ETNT 031732Z 28009KT 9999 FEW008 BKN037 09/08 Q1028 BLU;
0124101260999992013010318204+53550+007667FM-15+0012ETNT V0202901N005110108019N0112651N1+00901+00701999999ADDGA1071+010801999GF107991999999999999999999MA1102811999999REMMET055METAR ETNT 031820Z 29010KT 9999 BKN036 09/07 Q1028 BLU;
0159101260999992013010319004+53550+007667FM-12+0012ETNT V0202901N005010120019N0120001N1+00861+00711102921ADDGA1071+012001061GF108991071051012501999999MA1999999102761MD1210191+9999REMSYN076AAXX  03191 10126 42662 82905 10086 20071 30276 40292 52019 875// 333 87640;
0125101260999992013010319204+53550+007667FM-15+0012ETNT V0202901N005712200019N0112651N1+00801+00701999999ADDGA1041+012001999GF104991999999999999999999MA1102911999999REMMET056METAR ETNT 031920Z 29011KT 9999 SCT040 08/07 Q1029 BLU/;
0165101260999992013010320004+53550+007667FM-12+0012ETNT V0202801N00401030001CN0150001N1+00801+00651102951ADDGA1031+012001061GF105991031051012501031001MA1999999102791MD1210181+9999REMSYN082AAXX  03201 10126 42665 52804 10080 20065 30279 40295 52018 83530 333 83640 83365;
0125101260999992013010320204+53550+007667FM-15+0012ETNT V0202801N003612200019N0112651N1+00801+00601999999ADDGA1021+012001999GF102991999999999999999999MA1102911999999REMMET056METAR ETNT 032020Z 28007KT 9999 FEW040 08/06 Q1029 BLU/;
0125101260999992013010321204+53550+007667FM-15+0012ETNT V0202701N003112200019N0112651N1+00701+00601999999ADDGA1021+012601999GF102991999999999999999999MA1103011999999REMMET056METAR ETNT 032120Z 27006KT 9999 FEW042 07/06 Q1030 BLU/;
0159101260999992013010322004+53550+007667FM-12+0012ETNT V0202501N003012200019N0150001N1+00631+00531103081ADDGA1011+012601061GF101991011051012501031001MA1999999102911MD1210151+9999REMSYN076AAXX  03221 10126 42665 12503 10063 20053 30291 40308 52015 81530 333 81642;
0133101260999992013010322204+53550+007667FM-15+0012ETNT V0202601N003610009019N0040001N1+00601+00601999999ADDGA1071+000901999GF107991999999999999999999MA1103121999999MW1101REMMET058METAR ETNT 032220Z 26007KT 4000 BR BKN003 06/06 Q1031 YLO;
0153101260999992013010322434+53550+007667FM-16+0012ETNT V0202601N004610003019N0008001N1+00601+00601999999ADDED126U37009GA1091+000301999GF109991999999000251999999MA1103121999999MW1451REMMET067SPECI ETNT 032243Z 26009KT 0800 R26/3700D FG VV001 06/06 Q1031 RED;
0181101260999992013010323004+53550+007667FM-12+0012ETNT V0202701N005010003019N0008001N1+00651+00651103151ADDAY111999AY211999GA1091+000301999GF109991091999999999999999MA1999999102981MD1210191+9999MW1471REMSYN076AAXX  03231 10126 41/08 92705 10065 20065 30298 40315 52019 74711 333 89/01;
0133101260999992013010323204+53550+007667FM-15+0012ETNT V0202701N004610003019N0020001N1+00701+00701999999ADDGA1071+000301999GF107991999999999999999999MA1103121999999MW1101REMMET058METAR ETNT 032320Z 27009KT 2000 BR BKN001 07/07 Q1031 RED;
0133101260999992013010400204+53550+007667FM-15+0012ETNT V0202501N004110003019N0028001N1+00701+00701999999ADDGA1071+000301999GF107991999999999999999999MA1103011999999MW1101REMMET058METAR ETNT 040020Z 25008KT 2800 BR BKN001 07/07 Q1030 RED;
0187101260999992013010401004+53550+007667FM-12+0012ETNT V0202601N005010003019N0022001N1+00701+00661103111ADDAY121999AY221999GA1081+000301071GF108991081061000251999999MA1999999102951MD1310041+9999MW1101REMSYN082AAXX  04011 10126 41022 82605 10070 20066 30295 40311 53004 71022 886// 333 88701;
0156101260999992013010401204+53550+007667FM-15+0012ETNT V0202601N005710009019N0032001N1+00701+00701999999ADDGA1021+000301999GA2071+000901999GF107991999999999999999999MA1103121999999MW1101REMMET065METAR ETNT 040120Z 26011KT 3200 BR FEW001 BKN003 07/07 Q1031 YLO;
0193101260999992013010402004+53550+007667FM-12+0012ETNT V0202601N00501000301CN0035001N1+00751+00751103071ADDAY121999AY221999GA1021+000301071GF108991071061000251999999MA1999999102911MD1810071+9999MW1101REMSYN088AAXX  04021 10126 41035 82605 10075 20075 30291 40307 58007 71022 876// 333 82701 87703;
0133101260999992013010402204+53550+007667FM-15+0012ETNT V0202601N005110006019N0035001N1+00801+00701999999ADDGA1071+000601999GF107991999999999999999999MA1103011999999MW1101REMMET058METAR ETNT 040220Z 26010KT 3500 BR BKN002 08/07 Q1030 AMB;
0133101260999992013010403204+53550+007667FM-15+0012ETNT V0202601N005710006019N0035001N1+00801+00701999999ADDGA1071+000601999GF107991999999999999999999MA1103011999999MW1101REMMET058METAR ETNT 040320Z 26011KT 3500 BR BKN002 08/07 Q1030 AMB;
0187101260999992013010404004+53550+007667FM-12+0012ETNT V0202601N005010006019N0035001N1+00781+00781103051ADDAY121999AY221999GA1071+000601071GF108991071061000751999999MA1999999102891MD1810061+9999MW1101REMSYN082AAXX  04041 10126 41135 82605 10078 20078 30289 40305 58006 71022 876// 333 87702;
0133101260999992013010404204+53550+007667FM-15+0012ETNT V0202601N006210006019N0035001N1+00801+00801999999ADDGA1071+000601999GF107991999999999999999999MA1103011999999MW1101REMMET058METAR ETNT 040420Z 26012KT 3500 BR BKN002 08/08 Q1030 AMB;
0187101260999992013010405004+53550+007667FM-12+0012ETNT V0202601N005010006019N0035001N1+00841+00791103011ADDAY121999AY221999GA1071+000601071GF108991071061000751999999MA1999999102851MD1810061+9999MW1101REMSYN082AAXX  04051 10126 41135 82605 10084 20079 30285 40301 58006 71022 876// 333 87702;
0133101260999992013010405204+53550+007667FM-15+0012ETNT V0202601N005710006019N0035001N1+00901+00901999999ADDGA1071+000601999GF107991999999999999999999MA1103011999999MW1101REMMET058METAR ETNT 040520Z 26011KT 3500 BR BKN002 09/09 Q1030 AMB;
0133101260999992013010406204+53550+007667FM-15+0012ETNT V0202701N006710006019N0035001N1+00901+00901999999ADDGA1071+000601999GF107991999999999999999999MA1103011999999MW1101REMMET058METAR ETNT 040620Z 27013KT 3500 BR BKN002 09/09 Q1030 AMB;
0187101260999992013010407004+53550+007667FM-12+0012ETNT V0202701N007010006019N0030001N1+00851+00851103001ADDAY121999AY221999GA1071+000601071GF108991071061000751999999MA1999999102841MD1610051+9999MW1101REMSYN082AAXX  04071 10126 41130 82707 10085 20085 30284 40300 56005 71022 876// 333 87702;
0133101260999992013010407204+53550+007667FM-15+0012ETNT V0202701N007210009019N0030001N1+00801+00801999999ADDGA1071+000901999GF107991999999999999999999MA1103011999999MW1101REMMET058METAR ETNT 040720Z 27014KT 3000 BR BKN003 08/08 Q1030 YLO;
0187101260999992013010408004+53550+007667FM-12+0012ETNT V0202701N007010009019N0030001N1+00851+00791103001ADDAY121999AY221999GA1071+000901071GF108991071061000751999999MA1999999102841MD1610011+9999MW1101REMSYN082AAXX  04081 10126 41130 82707 10085 20079 30284 40300 56001 71022 876// 333 87703;
0143101260999992013010408204+53550+007667FM-15+0012ETNT V0202701N008710009019N0022001N1+00801+00801999999ADDGA1071+000901999GF107991999999999999999999MA1102911999999MW1101MW2511REMMET062METAR ETNT 040820Z 27017KT 2200 -DZ BR BKN003 08/08 Q1029 YLO;
0143101260999992013010409204+53550+007667FM-15+0012ETNT V0202701N009310009019N0030001N1+00801+00801999999ADDGA1071+000901999GF107991999999999999999999MA1102911999999MW1101MW2511REMMET062METAR ETNT 040920Z 27018KT 3000 -DZ BR BKN003 08/08 Q1029 YLO;
0193101260999992013010410004+53550+007667FM-12+0012ETNT V0202801N008010009019N0030001N1+00821+00771103051ADDAY161999AY251999GA1071+000901071GF108991071061000751999999MA1999999102891MD1310051+9999MW1511REMSYN088AAXX  04101 10126 41130 82808 10082 20077 30289 40305 53005 75165 876// 333 87703 91113;
0143101260999992013010410204+53550+007667FM-15+0012ETNT V0202801N009310012019N0040001N1+00801+00801999999ADDGA1071+001201999GF107991999999999999999999MA1103011999999MW1101MW2511REMMET062METAR ETNT 041020Z 28018KT 4000 -DZ BR BKN004 08/08 Q1030 YLO;
0193101260999992013010411004+53550+007667FM-12+0012ETNT V0202801N009010012019N0040001N1+00861+00801103041ADDAY151999AY251999GA1071+001201071GF108991071061001501999999MA1999999102881MD1110041+9999MW1581REMSYN088AAXX  04111 10126 41240 82809 10086 20080 30288 40304 51004 75855 876// 333 87704 91113;
0151101260999992013010411204+53550+007667FM-15+0012ETNT V0202801N009310012019N0050001N1+00901+00801999999ADDGA1071+001201999GF107991999999999999999999MA1103011999999MW1101MW2511MW3611REMMET064METAR ETNT 041120Z 28018KT 5000 -RADZ BR BKN004 09/08 Q1030 YLO;
0124101260999992013010412204+53550+007667FM-15+0012ETNT V0202701N009810015019N0060001N1+00901+00801999999ADDGA1071+001501999GF107991999999999999999999MA1102911999999REMMET055METAR ETNT 041220Z 27019KT 6000 BKN005 09/08 Q1029 YLO;
0193101260999992013010413004+53550+007667FM-12+0012ETNT V0202701N008010015019N0060001N1+00881+00781102961ADDAY121999AY221999GA1071+001501071GF108991071061001501999999MA1999999102801MD1710091+9999MW1101REMSYN088AAXX  04131 10126 41256 82708 10088 20078 30280 40296 57009 71022 876// 333 87705 91113;
0124101260999992013010413204+53550+007667FM-15+0012ETNT V0202801N008210015019N0060001N1+00901+00801999999ADDGA1071+001501999GF107991999999999999999999MA1103011999999REMMET055METAR ETNT 041320Z 28016KT 6000 BKN005 09/08 Q1030 YLO;
0124101260999992013010413214+53550+007667FM-16+0012ETNT V0202801N008210015019N0060001N1+00901+00801999999ADDGA1071+001501999GF107991999999999999999999MA1103011999999REMMET055SPECI ETNT 041321Z 28016KT 6000 BKN005 09/08 Q1030 YLO;
0193101260999992013010414004+53550+007667FM-12+0012ETNT V0202701N007010018019N0060001N1+00891+00791102981ADDAY121999AY221999GA1071+001801071GF108991071061001501999999MA1999999102821MD1710061+9999MW1101REMSYN088AAXX  04141 10126 41256 82707 10089 20079 30282 40298 57006 71022 876// 333 87706 91113;
0124101260999992013010414204+53550+007667FM-15+0012ETNT V0202701N006710021019N0080001N1+00901+00801999999ADDGA1071+002101999GF107991999999999999999999MA1102911999999REMMET055METAR ETNT 041420Z 27013KT 8000 BKN007 09/08 Q1029 GRN;
0124101260999992013010415204+53550+007667FM-15+0012ETNT V0202801N008710018019N0090001N1+00901+00801999999ADDGA1071+001801999GF107991999999999999999999MA1102911999999REMMET055METAR ETNT 041520Z 28017KT 9000 BKN006 09/08 Q1029 YLO;
0159101260999992013010416004+53550+007667FM-12+0012ETNT V0202901N007010018019N0090001N1+00881+00771103011ADDGA1071+001801071GF108991071061001501999999MA1999999102851MD1310051+9999REMSYN076AAXX  04161 10126 42259 82907 10088 20077 30285 40301 53005 876// 333 87706;
0124101260999992013010416204+53550+007667FM-15+0012ETNT V0202801N006210015019N0090001N1+00901+00801999999ADDGA1071+001501999GF107991999999999999999999MA1103011999999REMMET055METAR ETNT 041620Z 28012KT 9000 BKN005 09/08 Q1030 YLO;
0159101260999992013010417004+53550+007667FM-12+0012ETNT V0202801N007010018019N0100001N1+00881+00771102981ADDGA1071+001801071GF108991071061001501999999MA1999999102821MD1010001+9999REMSYN076AAXX  04171 10126 42260 82807 10088 20077 30282 40298 50000 876// 333 87706;
0124101260999992013010417204+53550+007667FM-15+0012ETNT V0202901N007210024019N0112651N1+00901+00801999999ADDGA1071+002401999GF107991999999999999999999MA1102911999999REMMET055METAR ETNT 041720Z 29014KT 9999 BKN008 09/08 Q1029 GRN;
0124101260999992013010418204+53550+007667FM-15+0012ETNT V0202901N006210018019N0112651N1+00901+00701999999ADDGA1071+001801999GF107991999999999999999999MA1102911999999REMMET055METAR ETNT 041820Z 29012KT 9999 BKN006 09/07 Q1029 YLO;
0159101260999992013010419004+53550+007667FM-12+0012ETNT V0202901N007010018019N0100001N1+00851+00731102981ADDGA1071+001801071GF108991071061001501999999MA1999999102821MD1710031+9999REMSYN076AAXX  04191 10126 42260 82907 10085 20073 30282 40298 57003 876// 333 87706;
0124101260999992013010419204+53550+007667FM-15+0012ETNT V0202901N007210018019N0112651N1+00801+00701999999ADDGA1071+001801999GF107991999999999999999999MA1102911999999REMMET055METAR ETNT 041920Z 29014KT 9999 BKN006 08/07 Q1029 YLO;
0159101260999992013010420004+53550+007667FM-12+0012ETNT V0202901N007010018019N0100001N1+00831+00721102981ADDGA1071+001801071GF108991071061001501999999MA1999999102821MD1010001+9999REMSYN076AAXX  04201 10126 42260 82907 10083 20072 30282 40298 50000 876// 333 87706;
0124101260999992013010420204+53550+007667FM-15+0012ETNT V0202901N007210018019N0112651N1+00801+00701999999ADDGA1071+001801999GF107991999999999999999999MA1102911999999REMMET055METAR ETNT 042020Z 29014KT 9999 BKN006 08/07 Q1029 YLO;
0147101260999992013010421204+53550+007667FM-15+0012ETNT V0202901N006710021019N0112651N1+00801+00701999999ADDGA1071+002101999GA2071+003301999GF107991999999999999999999MA1102911999999REMMET062METAR ETNT 042120Z 29013KT 9999 BKN007 BKN011 08/07 Q1029 GRN;
0165101260999992013010422004+53550+007667FM-12+0012ETNT V0202801N00601002101CN0100001N1+00821+00691102981ADDGA1021+002701071GF106991061051002501001001MA1999999102821MD1010001+9999REMSYN082AAXX  04221 10126 42360 62806 10082 20069 30282 40298 50000 86500 333 82709 85613;
0124101260999992013010422204+53550+007667FM-15+0012ETNT V0202801N006710021019N0112651N1+00801+00701999999ADDGA1071+002101999GF107991999999999999999999MA1102911999999REMMET055METAR ETNT 042220Z 28013KT 9999 BKN007 08/07 Q1029 GRN;
0159101260999992013010423004+53550+007667FM-12+0012ETNT V0202901N006010024019N0100001N1+00821+00701103021ADDGA1071+002401071GF107991071061002501999999MA1999999102861MD1210041+9999REMSYN076AAXX  04231 10126 42360 72906 10082 20070 30286 40302 52004 876// 333 87708;
0124101260999992013010423204+53550+007667FM-15+0012ETNT V0202901N006710024019N0112651N1+00801+00701999999ADDGA1071+002401999GF107991999999999999999999MA1103011999999REMMET055METAR ETNT 042320Z 29013KT 9999 BKN008 08/07 Q1030 GRN;
0147101260999992013010500204+53550+007667FM-15+0012ETNT V0202901N006210021019N0112651N1+00801+00701999999ADDGA1071+002101999GA2071+002701999GF107991999999999999999999MA1102911999999REMMET062METAR ETNT 050020Z 29012KT 9999 BKN007 BKN009 08/07 Q1029 GRN;
0159101260999992013010501004+53550+007667FM-12+0012ETNT V0202901N007010021019N0120001N1+00801+00681102961ADDGA1071+002101071GF108991071061002501999999MA1999999102801MD1810021+9999REMSYN076AAXX  05011 10126 42362 82907 10080 20068 30280 40296 58002 876// 333 87707;
0124101260999992013010501204+53550+007667FM-15+0012ETNT V0202901N005710021019N0112651N1+00801+00701999999ADDGA1071+002101999GF107991999999999999999999MA1102911999999REMMET055METAR ETNT 050120Z 29011KT 9999 BKN007 08/07 Q1029 GRN;
0159101260999992013010502004+53550+007667FM-12+0012ETNT V0203001N006010021019N0120001N1+00791+00671102981ADDGA1071+002101071GF108991071061002501999999MA1999999102821MD1510041+9999REMSYN076AAXX  05021 10126 42362 83006 10079 20067 30282 40298 55004 876// 333 87707;
0124101260999992013010502204+53550+007667FM-15+0012ETNT V0202901N004610018019N0112651N1+00801+00701999999ADDGA1071+001801999GF107991999999999999999999MA1103011999999REMMET055METAR ETNT 050220Z 29009KT 9999 BKN006 08/07 Q1030 YLO;
0124101260999992013010503204+53550+007667FM-15+0012ETNT V0203001N004110018019N0112651N1+00801+00701999999ADDGA1071+001801999GF107991999999999999999999MA1103011999999REMMET055METAR ETNT 050320Z 30008KT 9999 BKN006 08/07 Q1030 YLO;
0159101260999992013010504004+53550+007667FM-12+0012ETNT V0202901N004010018019N0100001N1+00781+00681103031ADDGA1071+001801071GF108991071061001501999999MA1999999102871MD1310071+9999REMSYN076AAXX  05041 10126 42260 82904 10078 20068 30287 40303 53007 876// 333 87706;
0134101260999992013010504204+53550+007667FM-15+0012ETNT V0203001N004110015019N0050001N1+00801+00701999999ADDGA1071+001501999GF107991999999999999999999MA1103011999999MW1511REMMET059METAR ETNT 050420Z 30008KT 5000 -DZ BKN005 08/07 Q1030 YLO;
0187101260999992013010505004+53550+007667FM-12+0012ETNT V0203001N005010015019N0050001N1+00781+00711103041ADDAY151999AY251999GA1071+001501071GF108991071061001501999999MA1999999102881MD1210061+9999MW1511REMSYN082AAXX  05051 10126 41250 83005 10078 20071 30288 40304 52006 75155 876// 333 87705;
0134101260999992013010505204+53550+007667FM-15+0012ETNT V0203001N005710015019N0060001N1+00801+00701999999ADDGA1071+001501999GF107991999999999999999999MA1103011999999MW1511REMMET059METAR ETNT 050520Z 30011KT 6000 -DZ BKN005 08/07 Q1030 YLO;
0134101260999992013010505374+53550+007667FM-16+0012ETNT V0203001N004110012019N0040001N1+00801+00701999999ADDGA1071+001201999GF107991999999999999999999MA1103011999999MW1511REMMET059SPECI ETNT 050537Z 30008KT 4000 -DZ BKN004 08/07 Q1030 YLO;
0143101260999992013010506204+53550+007667FM-15+0012ETNT V0203001N004610012019N0040001N1+00801+00701999999ADDGA1071+001201999GF107991999999999999999999MA1103011999999MW1101MW2511REMMET062METAR ETNT 050620Z 30009KT 4000 -DZ BR BKN004 08/07 Q1030 YLO;
0187101260999992013010507004+53550+007667FM-12+0012ETNT V0203001N004010012019N0040001N1+00791+00731103111ADDAY151999AY251999GA1071+001201071GF108991071071001501999999MA1999999102951MD1310081+9999MW1511REMSYN082AAXX  05071 10126 41240 83004 10079 20073 30295 40311 53008 75155 877// 333 87704;
0143101260999992013010507204+53550+007667FM-15+0012ETNT V0203001N004110009019N0035001N1+00801+00801999999ADDGA1071+000901999GF107991999999999999999999MA1103121999999MW1101MW2511REMMET062METAR ETNT 050720Z 30008KT 3500 -DZ BR BKN003 08/08 Q1031 YLO;
0187101260999992013010508004+53550+007667FM-12+0012ETNT V0203101N004010009019N0035001N1+00781+00781103131ADDAY151999AY251999GA1071+000901071GF108991071071000751999999MA1999999102971MD1210091+9999MW1511REMSYN082AAXX  05081 10126 41135 83104 10078 20078 30297 40313 52009 75155 877// 333 87703;
0143101260999992013010508204+53550+007667FM-15+0012ETNT V0203001N003610009019N0035001N1+00801+00701999999ADDGA1071+000901999GF107991999999999999999999MA1103121999999MW1101MW2511REMMET062METAR ETNT 050820Z 30007KT 3500 -DZ BR BKN003 08/07 Q1031 YLO;
0133101260999992013010509204+53550+007667FM-15+0012ETNT V0203001N004110012019N0045001N1+00801+00701999999ADDGA1071+001201999GF107991999999999999999999MA1103121999999MW1101REMMET058METAR ETNT 050920Z 30008KT 4500 BR BKN004 08/07 Q1031 YLO;
0187101260999992013010510004+53550+007667FM-12+0012ETNT V0203001N005010012019N0040001N1+00781+00721103191ADDAY151999AY221999GA1071+001201071GF108991071061001501999999MA1999999103031MD1310081+9999MW1201REMSYN082AAXX  05101 10126 41240 83005 10078 20072 30303 40319 53008 72052 876// 333 87704;
0143101260999992013010510204+53550+007667FM-15+0012ETNT V0203201N004610012019N0040001N1+00801+00701999999ADDGA1071+001201999GF107991999999999999999999MA1103181999999MW1101MW2511REMMET062METAR ETNT 051020Z 32009KT 4000 -DZ BR BKN004 08/07 Q1032 YLO;
0187101260999992013010511004+53550+007667FM-12+0012ETNT V0203101N004010012019N0035001N1+00761+00691103211ADDAY151999AY221999GA1071+001201071GF108991071071001501999999MA1999999103051MD1210081+9999MW1511REMSYN082AAXX  05111 10126 41235 83104 10076 20069 30305 40321 52008 75152 877// 333 87704;
0143101260999992013010511204+53550+007667FM-15+0012ETNT V0203101N003610009019N0040001N1+00801+00801999999ADDGA1071+000901999GF107991999999999999999999MA1103181999999MW1101MW2511REMMET062METAR ETNT 051120Z 31007KT 4000 -DZ BR BKN003 08/08 Q1032 YLO;
0166101260999992013010512204+53550+007667FM-15+0012ETNT V0202901N004110012019N0040001N1+00801+00701999999ADDGA1071+001201999GA2071+001801999GF107991999999999999999999MA1103121999999MW1101MW2511REMMET069METAR ETNT 051220Z 29008KT 4000 -DZ BR BKN004 BKN006 08/07 Q1031 YLO;
0193101260999992013010513004+53550+007667FM-12+0012ETNT V0203001N004010012019N0035001N1+00751+00691103161ADDAY151999AY221999GA1061+001201071GF108991081061001501999999MA1999999103001MD1810031+9999MW1201REMSYN088AAXX  05131 10126 41235 83004 10075 20069 30300 40316 58003 72052 886// 333 86704 87706;
0133101260999992013010513044+53550+007667FM-16+0012ETNT V0203101N003610009019N0028001N1+00801+00701999999ADDGA1071+000901999GF107991999999999999999999MA1103121999999MW1101REMMET058SPECI ETNT 051304Z 31007KT 2800 BR BKN003 08/07 Q1031 YLO;
0133101260999992013010513204+53550+007667FM-15+0012ETNT V0203101N002610009019N0025001N1+00801+00701999999ADDGA1071+000901999GF107991999999999999999999MA1103121999999MW1101REMMET058METAR ETNT 051320Z 31005KT 2500 BR BKN003 08/07 Q1031 YLO;
0187101260999992013010514004+53550+007667FM-12+0012ETNT V0202901N004010009019N0025001N1+00741+00691103171ADDAY121999AY221999GA1071+000901071GF108991071071000751999999MA1999999103011MD1510041+9999MW1511REMSYN082AAXX  05141 10126 41125 82904 10074 20069 30301 40317 55004 75122 877// 333 87703;
0143101260999992013010514204+53550+007667FM-15+0012ETNT V0202901N005110009019N0025001N1+00701+00701999999ADDGA1071+000901999GF107991999999999999999999MA1103121999999MW1101MW2511REMMET062METAR ETNT 051420Z 29010KT 2500 -DZ BR BKN003 07/07 Q1031 YLO;
0143101260999992013010515204+53550+007667FM-15+0012ETNT V0203001N004110009019N0028001N1+00701+00701999999ADDGA1071+000901999GF107991999999999999999999MA1103121999999MW1101MW2511REMMET062METAR ETNT 051520Z 30008KT 2800 -DZ BR BKN003 07/07 Q1031 YLO;
0187101260999992013010516004+53550+007667FM-12+0012ETNT V0202901N004010009019N0028001N1+00691+00691103141ADDAY151999AY251999GA1071+000901071GF108991071071000751999999MA1999999102981MD1810021+9999MW1511REMSYN082AAXX  05161 10126 41128 82904 10069 20069 30298 40314 58002 75155 877// 333 87703;
0166101260999992013010516204+53550+007667FM-15+0012ETNT V0203001N004110012019N0035001N1+00701+00701999999ADDGA1071+001201999GA2071+002101999GF107991999999999999999999MA1103121999999MW1101MW2511REMMET069METAR ETNT 051620Z 30008KT 3500 -DZ BR BKN004 BKN007 07/07 Q1031 YLO;
0193101260999992013010517004+53550+007667FM-12+0012ETNT V0203101N004010012019N0040001N1+00671+00611103141ADDAY151999AY251999GA1051+001201071GF108991081071001501999999MA1999999102981MD1710031+9999MW1511REMSYN088AAXX  05171 10126 41240 83104 10067 20061 30298 40314 57003 75155 887// 333 85704 87707;
0143101260999992013010517204+53550+007667FM-15+0012ETNT V0203001N003110012019N0045001N1+00701+00601999999ADDGA1071+001201999GF107991999999999999999999MA1103121999999MW1101MW2511REMMET062METAR ETNT 051720Z 30006KT 4500 -DZ BR BKN004 07/06 Q1031 YLO;
0143101260999992013010518204+53550+007667FM-15+0012ETNT V0202901N002610018019N0045001N1+00701+00701999999ADDGA1071+001801999GF107991999999999999999999MA1103121999999MW1101MW2511REMMET062METAR ETNT 051820Z 29005KT 4500 -DZ BR BKN006 07/07 Q1031 YLO;
0187101260999992013010519004+53550+007667FM-12+0012ETNT V0202701N004010018019N0045001N1+00691+00631103091ADDAY151999AY251999GA1071+001801071GF108991071071001501999999MA1999999102931MD1710051+9999MW1511REMSYN082AAXX  05191 10126 41245 82704 10069 20063 30293 40309 57005 75155 877// 333 87706;
0143101260999992013010519204+53550+007667FM-15+0012ETNT V0202801N003110018019N0045001N1+00701+00601999999ADDGA1071+001801999GF107991999999999999999999MA1103011999999MW1101MW2511REMMET062METAR ETNT 051920Z 28006KT 4500 -DZ BR BKN006 07/06 Q1030 YLO;
0187101260999992013010520004+53550+007667FM-12+0012ETNT V0202801N003010015019N0040001N1+00691+00631103061ADDAY151999AY251999GA1071+001501071GF108991071071001501999999MA1999999102901MD1710081+9999MW1511REMSYN082AAXX  05201 10126 41240 82803 10069 20063 30290 40306 57008 75155 877// 333 87705;
0143101260999992013010520204+53550+007667FM-15+0012ETNT V0202701N002610015019N0040001N1+00701+00601999999ADDGA1071+001501999GF107991999999999999999999MA1103011999999MW1101MW2511REMMET062METAR ETNT 052020Z 27005KT 4000 -DZ BR BKN005 07/06 Q1030 YLO;
0143101260999992013010521204+53550+007667FM-15+0012ETNT V0202701N003610015019N0040001N1+00701+00601999999ADDGA1071+001501999GF107991999999999999999999MA1103011999999MW1101MW2511REMMET062METAR ETNT 052120Z 27007KT 4000 -DZ BR BKN005 07/06 Q1030 YLO;
0187101260999992013010522004+53550+007667FM-12+0012ETNT V0202701N005010012019N0040001N1+00691+00631103031ADDAY151999AY251999GA1071+001201071GF108991071071001501999999MA1999999102871MD1710061+9999MW1511REMSYN082AAXX  05221 10126 41240 82705 10069 20063 30287 40303 57006 75155 877// 333 87704;
0143101260999992013010522204+53550+007667FM-15+0012ETNT V0202701N005110012019N0040001N1+00701+00601999999ADDGA1071+001201999GF107991999999999999999999MA1103011999999MW1101MW2511REMMET062METAR ETNT 052220Z 27010KT 4000 -DZ BR BKN004 07/06 Q1030 YLO;
0187101260999992013010523004+53550+007667FM-12+0012ETNT V0202601N004010012019N0035001N1+00681+00621103001ADDAY151999AY251999GA1071+001201071GF108991071071001501999999MA1999999102841MD1710061+9999MW1511REMSYN082AAXX  05231 10126 41235 82604 10068 20062 30284 40300 57006 75155 877// 333 87704;
0143101260999992013010523204+53550+007667FM-15+0012ETNT V0202401N002610015019N0035001N1+00701+00601999999ADDGA1071+001501999GF107991999999999999999999MA1102911999999MW1101MW2511REMMET062METAR ETNT 052320Z 24005KT 3500 -DZ BR BKN005 07/06 Q1029 YLO;
0151101260999992013010600204+53550+007667FM-15+0012ETNT V0202401N003110012019N0032001N1+00701+00701999999ADDGA1071+001201999GF107991999999999999999999MA1102811999999MW1101MW2511MW3611REMMET064METAR ETNT 060020Z 24006KT 3200 -DZRA BR BKN004 07/07 Q1028 YLO;
0187101260999992013010601004+53550+007667FM-12+0012ETNT V0202501N004010018019N0035001N1+00691+00651102851ADDAY161999AY261999GA1071+001801071GF108991071071001501999999MA1999999102691MD1710181+9999MW1511REMSYN082AAXX  06011 10126 41235 82504 10069 20065 30269 40285 57018 75166 877// 333 87706;
0143101260999992013010601204+53550+007667FM-15+0012ETNT V0202601N003610012019N0035001N1+00701+00701999999ADDGA1071+001201999GF107991999999999999999999MA1102811999999MW1101MW2511REMMET062METAR ETNT 060120Z 26007KT 3500 -DZ BR BKN004 07/07 Q1028 YLO;
0187101260999992013010602004+53550+007667FM-12+0012ETNT V0202501N003010018019N0040001N1+00731+00661102831ADDAY151999AY251999GA1071+001801071GF108991071071001501999999MA1999999102671MD1710171+9999MW1511REMSYN082AAXX  06021 10126 41240 82503 10073 20066 30267 40283 57017 75155 877// 333 87706;
0133101260999992013010602204+53550+007667FM-15+0012ETNT V0202501N003110015019N0045001N1+00701+00701999999ADDGA1071+001501999GF107991999999999999999999MA1102811999999MW1101REMMET058METAR ETNT 060220Z 25006KT 4500 BR BKN005 07/07 Q1028 YLO;
0133101260999992013010603204+53550+007667FM-15+0012ETNT V0202701N005110015019N0040001N1+00801+00701999999ADDGA1071+001501999GF107991999999999999999999MA1102711999999MW1101REMMET058METAR ETNT 060320Z 27010KT 4000 BR BKN005 08/07 Q1027 YLO;
0187101260999992013010604004+53550+007667FM-12+0012ETNT V0202801N006010015019N0040001N1+00781+00691102721ADDAY121999AY221999GA1071+001501071GF108991071061001501999999MA1999999102561MD1710131+9999MW1101REMSYN082AAXX  06041 10126 41240 82806 10078 20069 30256 40272 57013 71022 876// 333 87705;
0133101260999992013010604204+53550+007667FM-15+0012ETNT V0202801N004610018019N0040001N1+00801+00701999999ADDGA1071+001801999GF107991999999999999999999MA1102611999999MW1101REMMET058METAR ETNT 060420Z 28009KT 4000 BR BKN006 08/07 Q1026 YLO;
0187101260999992013010605004+53550+007667FM-12+0012ETNT V0202801N005010018019N0040001N1+00751+00651102691ADDAY121999AY221999GA1071+001801071GF108991071061001501999999MA1999999102531MD1710141+9999MW1101REMSYN082AAXX  06051 10126 41240 82805 10075 20065 30253 40269 57014 71022 876// 333 87706;
0133101260999992013010605204+53550+007667FM-15+0012ETNT V0202901N004110018019N0045001N1+00701+00701999999ADDGA1071+001801999GF107991999999999999999999MA1102611999999MW1101REMMET058METAR ETNT 060520Z 29008KT 4500 BR BKN006 07/07 Q1026 YLO;
0156101260999992013010606204+53550+007667FM-15+0012ETNT V0202801N004610018019N0045001N1+00801+00701999999ADDGA1071+001801999GA2071+003001999GF107991999999999999999999MA1102611999999MW1101REMMET065METAR ETNT 060620Z 28009KT 4500 BR BKN006 BKN010 08/07 Q1026 YLO;
0193101260999992013010607004+53550+007667FM-12+0012ETNT V0202801N005010018019N0045001N1+00761+00661102651ADDAY121999AY221999GA1061+001801071GF108991071051001501999999MA1999999102491MD1710071+9999MW1101REMSYN088AAXX  06071 10126 41245 82805 10076 20066 30249 40265 57007 71022 875// 333 86706 87650;
0133101260999992013010607204+53550+007667FM-15+0012ETNT V0202801N004610021019N0045001N1+00801+00701999999ADDGA1071+002101999GF107991999999999999999999MA1102611999999MW1101REMMET058METAR ETNT 060720Z 28009KT 4500 BR BKN007 08/07 Q1026 GRN;
0187101260999992013010608004+53550+007667FM-12+0012ETNT V0202701N005010021019N0045001N1+00781+00681102621ADDAY121999AY221999GA1071+002101071GF108991071061002501999999MA1999999102461MD1710071+9999MW1101REMSYN082AAXX  06081 10126 41345 82705 10078 20068 30246 40262 57007 71022 876// 333 87707;
0133101260999992013010608204+53550+007667FM-15+0012ETNT V0202701N004610018019N0045001N1+00801+00701999999ADDGA1071+001801999GF107991999999999999999999MA1102611999999MW1101REMMET058METAR ETNT 060820Z 27009KT 4500 BR BKN006 08/07 Q1026 YLO;
0133101260999992013010609204+53550+007667FM-15+0012ETNT V0202801N005710018019N0050001N1+00801+00701999999ADDGA1071+001801999GF107991999999999999999999MA1102611999999MW1101REMMET058METAR ETNT 060920Z 28011KT 5000 BR BKN006 08/07 Q1026 YLO;
0187101260999992013010610004+53550+007667FM-12+0012ETNT V0202901N006010018019N0050001N1+00811+00721102641ADDAY121999AY221999GA1071+001801071GF108991071061001501999999MA1999999102481MD1610011+9999MW1101REMSYN082AAXX  06101 10126 41250 82906 10081 20072 30248 40264 56001 71022 876// 333 87706;
0124101260999992013010610204+53550+007667FM-15+0012ETNT V0203001N006210018019N0060001N1+00801+00701999999ADDGA1071+001801999GF107991999999999999999999MA1102611999999REMMET055METAR ETNT 061020Z 30012KT 6000 BKN006 08/07 Q1026 YLO;
0187101260999992013010611004+53550+007667FM-12+0012ETNT V0203001N006010018019N0070001N1+00831+00731102671ADDAY121999AY221999GA1071+001801071GF108991071061001501999999MA1999999102511MD1310041+9999MW1101REMSYN082AAXX  06111 10126 41257 83006 10083 20073 30251 40267 53004 71022 876// 333 87706;
0124101260999992013010611204+53550+007667FM-15+0012ETNT V0203101N006210018019N0080001N1+00801+00701999999ADDGA1071+001801999GF107991999999999999999999MA1102611999999REMMET055METAR ETNT 061120Z 31012KT 8000 BKN006 08/07 Q1026 YLO;
0147101260999992013010612204+53550+007667FM-15+0012ETNT V0203101N006210018019N0090001N1+00801+00701999999ADDGA1021+001201999GA2071+001801999GF107991999999999999999999MA1102611999999REMMET062METAR ETNT 061220Z 31012KT 9000 FEW004 BKN006 08/07 Q1026 YLO;
0174101260999992013010612474+53550+007667FM-16+0012ETNT V0203101N005710018019N0040001N1+00801+00701999999ADDGA1041+001201999GA2071+001801999GF107991999999999999999999MA1102611999999MW1101MW2511MW3611REMMET071SPECI ETNT 061247Z 31011KT 4000 -DZRA BR SCT004 BKN006 08/07 Q1026 YLO;
0193101260999992013010613004+53550+007667FM-12+0012ETNT V0203101N00601001201CN0038001N1+00811+00711102691ADDAY121011AY221011GA1031+001201071GF108991071061001501999999MA1999999102531MD1210051+9999MW1581REMSYN088AAXX  06131 10126 41238 83106 10081 20071 30253 40269 52005 75822 876// 333 83704 87706;
0166101260999992013010613204+53550+007667FM-15+0012ETNT V0203101N006710018019N0045001N1+00801+00701999999ADDGA1041+001201999GA2071+001801999GF107991999999999999999999MA1102611999999MW1101MW2511REMMET069METAR ETNT 061320Z 31013KT 4500 -DZ BR SCT004 BKN006 08/07 Q1026 YLO;
0193101260999992013010614004+53550+007667FM-12+0012ETNT V0203201N00601001201CN0045001N1+00761+00681102681ADDAY161999AY251999GA1031+001201071GF108991071071001501999999MA1999999102521MD1010011+9999MW1511REMSYN088AAXX  06141 10126 41245 83206 10076 20068 30252 40268 50001 75165 877// 333 83704 87706;
0147101260999992013010614204+53550+007667FM-15+0012ETNT V0203201N005110012019N0080001N1+00801+00701999999ADDGA1071+001201999GA2071+001801999GF107991999999999999999999MA1102611999999REMMET062METAR ETNT 061420Z 32010KT 8000 BKN004 BKN006 08/07 Q1026 YLO;
0143101260999992013010615204+53550+007667FM-15+0012ETNT V0203101N005710012019N0040001N1+00701+00601999999ADDGA1071+001201999GF107991999999999999999999MA1102711999999MW1101MW2511REMMET062METAR ETNT 061520Z 31011KT 4000 -DZ BR BKN004 07/06 Q1027 YLO;
0187101260999992013010616004+53550+007667FM-12+0012ETNT V0203101N006010012019N0040001N1+00681+00621102741ADDAY151999AY221999GA1071+001201071GF108991071071001501999999MA1999999102581MD1310051+9999MW1511REMSYN082AAXX  06161 10126 41240 83106 10068 20062 30258 40274 53005 75152 877// 333 87704;
0143101260999992013010616204+53550+007667FM-15+0012ETNT V0203201N005110012019N0040001N1+00701+00701999999ADDGA1071+001201999GF107991999999999999999999MA1102711999999MW1101MW2511REMMET062METAR ETNT 061620Z 32010KT 4000 -DZ BR BKN004 07/07 Q1027 YLO;
0187101260999992013010617004+53550+007667FM-12+0012ETNT V0203101N005010012019N0040001N1+00651+00651102751ADDAY151999AY251999GA1071+001201071GF108991071071001501999999MA1999999102591MD1310071+9999MW1511REMSYN082AAXX  06171 10126 41240 83105 10065 20065 30259 40275 53007 75155 877// 333 87704;
0143101260999992013010617204+53550+007667FM-15+0012ETNT V0203101N003610009019N0040001N1+00701+00701999999ADDGA1071+000901999GF107991999999999999999999MA1102711999999MW1101MW2511REMMET062METAR ETNT 061720Z 31007KT 4000 -DZ BR BKN003 07/07 Q1027 YLO;
0143101260999992013010618204+53550+007667FM-15+0012ETNT V0203101N003110009019N0050001N1+00601+00601999999ADDGA1071+000901999GF107991999999999999999999MA1102711999999MW1101MW2511REMMET062METAR ETNT 061820Z 31006KT 5000 -DZ BR BKN003 06/06 Q1027 YLO;
0187101260999992013010619004+53550+007667FM-12+0012ETNT V0203201N005010009019N0050001N1+00621+00571102791ADDAY151999AY251999GA1071+000901071GF108991071071000751999999MA1999999102631MD1210051+9999MW1511REMSYN082AAXX  06191 10126 41150 83205 10062 20057 30263 40279 52005 75155 877// 333 87703;
0143101260999992013010619204+53550+007667FM-15+0012ETNT V0203101N004110012019N0050001N1+00601+00601999999ADDGA1071+001201999GF107991999999999999999999MA1102811999999MW1101MW2511REMMET062METAR ETNT 061920Z 31008KT 5000 -DZ BR BKN004 06/06 Q1028 YLO;
0193101260999992013010620004+53550+007667FM-12+0012ETNT V0203101N004010012019N0050001N1+00621+00551102811ADDAY151999AY251999GA1051+001201071GF108991081071001501999999MA1999999102651MD1210061+9999MW1511REMSYN088AAXX  06201 10126 41250 83104 10062 20055 30265 40281 52006 75155 887// 333 85704 87707;
0166101260999992013010620204+53550+007667FM-15+0012ETNT V0203001N003610012019N0050001N1+00601+00601999999ADDGA1071+001201999GA2071+002101999GF107991999999999999999999MA1102811999999MW1101MW2511REMMET069METAR ETNT 062020Z 30007KT 5000 -DZ BR BKN004 BKN007 06/06 Q1028 YLO;
0134101260999992013010621204+53550+007667FM-15+0012ETNT V0203201N003110012019N0060001N1+00601+00501999999ADDGA1071+001201999GF107991999999999999999999MA1102811999999MW1511REMMET059METAR ETNT 062120Z 32006KT 6000 -DZ BKN004 06/05 Q1028 YLO;
0124101260999992013010621384+53550+007667FM-16+0012ETNT V0203101N003610018019N0080001N1+00601+00501999999ADDGA1071+001801999GF107991999999999999999999MA1102811999999REMMET055SPECI ETNT 062138Z 31007KT 8000 BKN006 06/05 Q1028 YLO;
0187101260999992013010622004+53550+007667FM-12+0012ETNT V0203001N003010018019N0090001N1+00571+00501102861ADDAY151999AY221999GA1061+001801071GF106991061061001501001001MA1999999102691MD1210061+9999MW1201REMSYN082AAXX  06221 10126 41259 63003 10057 20050 30269 40286 52006 72052 86600 333 86706;
0134101260999992013010622204+53550+007667FM-15+0012ETNT V0203101N002610012019N0070001N1+00601+00501999999ADDGA1071+001201999GF107991999999999999999999MA1102811999999MW1511REMMET059METAR ETNT 062220Z 31005KT 7000 -DZ BKN004 06/05 Q1028 YLO;
0187101260999992013010623004+53550+007667FM-12+0012ETNT V0203101N002010012019N0060001N1+00571+00511102821ADDAY151999AY221999GA1071+001201071GF107991071071001501999999MA1999999102651MD1010001+9999MW1511REMSYN082AAXX  06231 10126 41256 73102 10057 20051 30265 40282 50000 75152 877// 333 87704;
0143101260999992013010623204+53550+007667FM-15+0012ETNT V0203001N002110009019N0050001N1+00601+00601999999ADDGA1071+000901999GF107991999999999999999999MA1102711999999MW1101MW2511REMMET062METAR ETNT 062320Z 30004KT 5000 -DZ BR BKN003 06/06 Q1027 YLO;
0124101260999992013010700204+53550+007667FM-15+0012ETNT V0202801N002610012019N0070001N1+00601+00501999999ADDGA1071+001201999GF107991999999999999999999MA1102811999999REMMET055METAR ETNT 070020Z 28005KT 7000 BKN004 06/05 Q1028 YLO;
0243101260999992013010701004+53550+007667SY-MT+0012ETNT V0202901N00201003001CN0080001N1+00581+00521102831ADDGA1041+001501999GA2071+003001999GF108991071061001501999999MA1102811102661MD1510031+9999REMSYN076AAXX  07011 10126 42258 82902 10058 20052 30266 40283 55003 876// 333 87704;MET062SPECI ETNT 070100Z 29004KT 9000 SCT005 BKN010 06/06 Q1028 GRN;
0147101260999992013010701204+53550+007667FM-15+0012ETNT V0202901N002610027019N0090001N1+00601+00501999999ADDGA1041+001801999GA2071+002701999GF107991999999999999999999MA1102811999999REMMET062METAR ETNT 070120Z 29005KT 9000 SCT006 BKN009 06/05 Q1028 GRN;
0165101260999992013010702004+53550+007667FM-12+0012ETNT V0202601N00201001201CN0100001N1+00601+00531102791ADDGA1021+001801071GF108991071061001501999999MA1999999102631MD1810021+9999REMSYN082AAXX  07021 10126 42260 82602 10060 20053 30263 40279 58002 876// 333 82706 87708;
0124101260999992013010702204+53550+007667FM-15+0012ETNT V0202801N002110024019N0112651N1+00601+00501999999ADDGA1071+002401999GF107991999999999999999999MA1102811999999REMMET055METAR ETNT 070220Z 28004KT 9999 BKN008 06/05 Q1028 GRN;
0157101260999992013010703204+53550+007667FM-15+0012ETNT V0202801N001510027019N0080001N1+00601+00601999999ADDGA1041+001501999GA2071+002701999GF107991999999999999999999MA1102811999999MW1511REMMET066METAR ETNT 070320Z 28003KT 8000 -DZ SCT005 BKN009 06/06 Q1028 GRN;
0187101260999992013010704004+53550+007667FM-12+0012ETNT V0202701N003010024019N0090001N1+00621+00551102791ADDAY151999AY221999GA1071+002401071GF108991071061002501999999MA1999999102631MD1510031+9999MW1201REMSYN082AAXX  07041 10126 41359 82703 10062 20055 30263 40279 55003 72052 876// 333 87708;
0124101260999992013010704044+53550+007667FM-16+0012ETNT V0202801N003110018019N0090001N1+00601+00601999999ADDGA1071+001801999GF107991999999999999999999MA1102711999999REMMET055SPECI ETNT 070404Z 28006KT 9000 BKN006 06/06 Q1027 YLO;
0124101260999992013010704204+53550+007667FM-15+0012ETNT V0202801N003110018019N0080001N1+00601+00501999999ADDGA1071+001801999GF107991999999999999999999MA1102711999999REMMET055METAR ETNT 070420Z 28006KT 8000 BKN006 06/05 Q1027 YLO;
0159101260999992013010705004+53550+007667FM-12+0012ETNT V0202701N003010018019N0080001N1+00621+00541102731ADDGA1071+001801071GF108991071061001501999999MA1999999102571MD1810061+9999REMSYN076AAXX  07051 10126 42258 82703 10062 20054 30257 40273 58006 876// 333 87706;
0147101260999992013010705204+53550+007667FM-15+0012ETNT V0202501N001510018019N0112651N1+00601+00501999999ADDGA1021+001201999GA2071+001801999GF107991999999999999999999MA1102711999999REMMET062METAR ETNT 070520Z 25003KT 9999 FEW004 BKN006 06/05 Q1027 YLO;
0147101260999992013010706204+53550+007667FM-15+0012ETNT V0202501N002110012019N0050001N1+00601+00501999999ADDGA1081+001201999GF108991999999999999999999MA1102711999999MW1101REMMET072METAR ETNT 070620Z 25004KT 5000 BR OVC004 06/05 Q1027 YLO YLO TEMPO AMB;
0187101260999992013010707004+53550+007667FM-12+0012ETNT V0202401N002010009019N0050001N1+00591+00511102731ADDAY121999AY221999GA1081+000901071GF108991081061000751999999MA1999999102571MD1510061+9999MW1101REMSYN082AAXX  07071 10126 41150 82402 10059 20051 30257 40273 55006 71022 886// 333 88703;
0168101260999992013010707204+53550+007667FM-15+0012ETNT V0202501N001510003019N0008001N1+00601+00501999999ADDED126U47009GA1081+000301999GF108991999999999999999999MA1102711999999MW1441REMMET082METAR ETNT 070720Z 25003KT 0800 R26/4700D FG OVC001 06/05 Q1027 RED YLO TEMPO RED;
0167101260999992013010707264+53550+007667FM-16+0012ETNT V0202301N001510001519N0004501N1+00601+00601999999ADDED126U32009GA1091+000151999GF109991999999000251999999MA1102711999999MW1451REMMET081SPECI ETNT 070726Z 23003KT 0450 R26/3200D FG VV000 06/06 Q1027 RED YLO TEMPO RED;
0181101260999992013010708004+53550+007667FM-12+0012ETNT V0202301N002010001519N0004001N1+00601+00561102731ADDAY141999AY221999GA1091+000151999GF109991091999999999999999MA1999999102571MD1510001+9999MW1471REMSYN076AAXX  07081 10126 41/04 92302 10060 20056 30257 40273 55000 74742 333 89/00;
0167101260999992013010708204+53550+007667FM-15+0012ETNT V0202301N002110001519N0004001N1+00601+00601999999ADDED126U12009GA1091+000151999GF109991999999000251999999MA1102711999999MW1451REMMET081METAR ETNT 070820Z 23004KT 0400 R26/1200N FG VV000 06/06 Q1027 RED YLO TEMPO RED;
0167101260999992013010709204+53550+007667FM-15+0012ETNT V0202101N002110001519N0004001N1+00701+00701999999ADDED126U13009GA1091+000151999GF109991999999000251999999MA1102711999999MW1451REMMET081METAR ETNT 070920Z 21004KT 0400 R26/1300N FG VV000 07/07 Q1027 RED YLO TEMPO RED;
0167101260999992013010709444+53550+007667FM-16+0012ETNT V0201801N001010003019N0006001N1+00701+00701999999ADDED126U18009GA1091+000301999GF109991999999000251999999MA1102711999999MW1451REMMET081SPECI ETNT 070944Z 18002KT 0600 R26/1800U FG VV001 07/07 Q1027 RED YLO TEMPO RED;
0181101260999992013010710004+53550+007667FM-12+0012ETNT V0201701N001010003019N0007001N1+00681+00651102731ADDAY141999AY241999GA1091+000301999GF109991091999999999999999MA1999999102571MD1410001+9999MW1431REMSYN076AAXX  07101 10126 41/07 91701 10068 20065 30257 40273 54000 74344 333 89/01;
0167101260999992013010710204+53550+007667FM-15+0012ETNT V0201801N002110003019N0007001N1+00701+00701999999ADDED126U23009GA1091+000301999GF109991999999000251999999MA1102711999999MW1451REMMET081METAR ETNT 071020Z 18004KT 0700 R26/2300N FG VV001 07/07 Q1027 RED YLO TEMPO RED;
0181101260999992013010711004+53550+007667FM-12+0012ETNT V0202001N003010003019N0007001N1+00701+00681102711ADDAY141999AY241999GA1091+000301999GF109991091999999999999999MA1999999102551MD1810021+9999MW1451REMSYN076AAXX  07111 10126 41/07 92003 10070 20068 30255 40271 58002 74544 333 89/01;
0177101260999992013010711204+53550+007667FM-15+0012ETNT V0202101N003110003019N0007001N1+00701+00701999999ADDED126U19009GA1091+000301999GF109991999999000251999999MA1102711999999MW1451MW2511REMMET085METAR ETNT 071120Z 21006KT 0700 R26/1900N -DZ FG VV001 07/07 Q1027 RED YLO TEMPO RED;
0178101260999992013010711514+53550+007667FM-16+0012ETNT V0202201N003110006019N0013001N1+00701+00701999999ADDED126U28009GA1081+000601999GF108991999999999999999999MA1102611999999MW1101MW2511REMMET086SPECI ETNT 071151Z 22006KT 1300 R26/2800U -DZ BR OVC002 07/07 Q1026 AMB YLO TEMPO RED;
0178101260999992013010712204+53550+007667FM-15+0012ETNT V0202301N003110006019N0011001N1+00801+00801999999ADDED126U21009GA1081+000601999GF108991999999999999999999MA1102611999999MW1101MW2511REMMET086METAR ETNT 071220Z 23006KT 1100 R26/2100D -DZ BR OVC002 08/08 Q1026 AMB YLO TEMPO RED;
0157101260999992013010712464+53550+007667FM-16+0012ETNT V0202401N003610009019N0020001N1+00801+00801999999ADDGA1071+000901999GF107991999999999999999999MA1102611999999MW1101MW2511REMMET076SPECI ETNT 071246Z 24007KT 2000 -DZ BR BKN003 08/08 Q1026 YLO YLO TEMPO RED;
0193101260999992013010713004+53550+007667FM-12+0012ETNT V0202401N003010012019N0030001N1+00751+00751102611ADDAY151999AY251999GA1051+001201071GF108991071051001501999999MA1999999102451MD1810121+9999MW1511REMSYN088AAXX  07131 10126 41230 82403 10075 20075 30245 40261 58012 75155 875// 333 85704 87614;
0170101260999992013010713084+53550+007667FM-16+0012ETNT V0202301N002610036019N0035001N1+00801+00801999999ADDGA1041+001201999GA2071+003601999GF107991999999999999999999MA1102611999999MW1101REMMET079SPECI ETNT 071308Z 23005KT 3500 BR SCT004 BKN012 08/08 Q1026 YLO YLO TEMPO GRN;
0170101260999992013010713204+53550+007667FM-15+0012ETNT V0202201N002610018019N0035001N1+00801+00801999999ADDGA1071+001801999GA2071+003601999GF107991999999999999999999MA1102511999999MW1101REMMET079METAR ETNT 071320Z 22005KT 3500 BR BKN006 BKN012 08/08 Q1025 YLO YLO TEMPO GRN;
0193101260999992013010714004+53550+007667FM-12+0012ETNT V0202301N004010018019N0030001N1+00781+00701102581ADDAY121999AY221999GA1051+001801071GF108991071051001501999999MA1999999102421MD1710131+9999MW1201REMSYN088AAXX  07141 10126 41230 82304 10078 20070 30242 40258 57013 72022 875// 333 85706 87612;
0157101260999992013010714054+53550+007667FM-16+0012ETNT V0202301N003110012019N0025001N1+00801+00701999999ADDGA1071+001201999GF107991999999999999999999MA1102511999999MW1101MW2511REMMET076SPECI ETNT 071405Z 23006KT 2500 -DZ BR BKN004 08/07 Q1025 YLO YLO TEMPO GRN;
0147101260999992013010714204+53550+007667FM-15+0012ETNT V0202301N003110012019N0025001N1+00801+00701999999ADDGA1071+001201999GF107991999999999999999999MA1102511999999MW1101MW2511REMMET066METAR ETNT 071420Z 23006KT 2500 -DZ BR BKN004 08/07 Q1025 YLO YLO;
0145101260999992013010715204+53550+007667FM-15+0012ETNT V0202301N003110012019N0025001N1+00801+00701999999ADDGA1071+001201999GF107991999999999999999999MA1102511999999MW1101REMMET070METAR ETNT 071520Z 23006KT 2500 BR BKN004 08/07 Q1025 YLO FCST CANCEL;
0187101260999992013010716004+53550+007667FM-12+0012ETNT V0202301N003010012019N0030001N1+00771+00771102581ADDAY121999AY221999GA1071+001201071GF108991071061001501999999MA1999999102421MD1510031+9999MW1101REMSYN082AAXX  07161 10126 41230 82303 10077 20077 30242 40258 55003 71022 876// 333 87704;
0133101260999992013010716204+53550+007667FM-15+0012ETNT V0202201N002610015019N0035001N1+00801+00801999999ADDGA1071+001501999GF107991999999999999999999MA1102511999999MW1101REMMET058METAR ETNT 071620Z 22005KT 3500 BR BKN005 08/08 Q1025 YLO;
0187101260999992013010717004+53550+007667FM-12+0012ETNT V0202201N002010012019N0030001N1+00761+00761102511ADDAY121999AY221999GA1071+001201071GF108991071071001501999999MA1999999102351MD1810071+9999MW1511REMSYN082AAXX  07171 10126 41230 82202 10076 20076 30235 40251 58007 75122 877// 333 87704;
0156101260999992013010717204+53550+007667FM-15+0012ETNT V0202301N003110021019N0040001N1+00801+00801999999ADDGA1041+001201999GA2071+002101999GF107991999999999999999999MA1102511999999MW1101REMMET065METAR ETNT 071720Z 23006KT 4000 BR SCT004 BKN007 08/08 Q1025 GRN;
0166101260999992013010718204+53550+007667FM-15+0012ETNT V0202301N003610018019N0035001N1+00801+00701999999ADDGA1041+001201999GA2071+001801999GF107991999999999999999999MA1102511999999MW1101MW2511REMMET069METAR ETNT 071820Z 23007KT 3500 -DZ BR SCT004 BKN006 08/07 Q1025 YLO;
0193101260999992013010719004+53550+007667FM-12+0012ETNT V0202401N00401001201CN0040001N1+00751+00691102511ADDAY151999AY251999GA1031+001201071GF108991071071001501999999MA1999999102351MD1610071+9999MW1511REMSYN088AAXX  07191 10126 41240 82404 10075 20069 30235 40251 56007 75155 877// 333 83704 87706;
0166101260999992013010719204+53550+007667FM-15+0012ETNT V0202301N003610018019N0040001N1+00701+00701999999ADDGA1041+001201999GA2071+001801999GF107991999999999999999999MA1102401999999MW1101MW2511REMMET069METAR ETNT 071920Z 23007KT 4000 -DZ BR SCT004 BKN006 07/07 Q1024 YLO;
0193101260999992013010720004+53550+007667FM-12+0012ETNT V0202301N00401001201CN0042001N1+00731+00661102461ADDAY151999AY251999GA1021+001201071GF108991071071001501999999MA1999999102301MD1810051+9999MW1511REMSYN088AAXX  07201 10126 41242 82304 10073 20066 30230 40246 58005 75155 877// 333 82704 87706;
0179101260999992013010720204+53550+007667FM-15+0012ETNT V0202301N003610018019N0042001N1+00701+00701999999ADDGA1021+001201999GA2071+001801999GA3071+003001999GF107991999999999999999999MA1102401999999MW1101REMMET072METAR ETNT 072020Z 23007KT 4200 BR FEW004 BKN006 BKN010 07/07 Q1024 YLO;
0189101260999992013010721204+53550+007667FM-15+0012ETNT V0202301N004610018019N0045001N1+00701+00601999999ADDGA1021+001201999GA2071+001801999GA3071+003001999GF107991999999999999999999MA1102401999999MW1101MW2511REMMET076METAR ETNT 072120Z 23009KT 4500 -DZ BR FEW004 BKN006 BKN010 07/06 Q1024 YLO;
0215101260999992013010722004+53550+007667FM-12+0012ETNT V0202401N004010018019N0045001N1+00711+00621102441ADDAY151999AY221999GA1021+001201071GA2061+001801071GF108991071051001501999999MA1999999102281MD1610071+9999MW1511REMSYN094AAXX  07221 10126 41245 82404 10071 20062 30228 40244 56007 75152 875// 333 82704 86706 87613;
0174101260999992013010722204+53550+007667FM-15+0012ETNT V0202301N004610018019N0040001N1+00701+00601999999ADDGA1041+001201999GA2071+001801999GF107991999999999999999999MA1102301999999MW1101MW2511MW3611REMMET071METAR ETNT 072220Z 23009KT 4000 -DZRA BR SCT004 BKN006 07/06 Q1023 YLO;
0174101260999992013010722414+53550+007667FM-16+0012ETNT V0202301N004110012019N0040001N1+00701+00601999999ADDGA1071+001201999GA2071+001801999GF107991999999999999999999MA1102301999999MW1101MW2511MW3611REMMET071SPECI ETNT 072241Z 23008KT 4000 -DZRA BR BKN004 BKN006 07/06 Q1023 YLO;
0193101260999992013010723004+53550+007667FM-12+0012ETNT V0202301N005010012019N0040001N1+00681+00621102371ADDAY161999AY251999GA1051+001201071GF108991071071001501999999MA1999999102211MD1710091+9999MW1581REMSYN088AAXX  07231 10126 41240 82305 10068 20062 30221 40237 57009 75865 877// 333 85704 87706;
0174101260999992013010723204+53550+007667FM-15+0012ETNT V0202301N005110012019N0040001N1+00701+00601999999ADDGA1071+001201999GA2071+001801999GF107991999999999999999999MA1102301999999MW1101MW2511MW3611REMMET071METAR ETNT 072320Z 23010KT 4000 -DZRA BR BKN004 BKN006 07/06 Q1023 YLO;
0174101260999992013010800204+53550+007667FM-15+0012ETNT V0202401N004610012019N0040001N1+00701+00601999999ADDGA1071+001201999GA2071+001801999GF107991999999999999999999MA1102301999999MW1101MW2511MW3611REMMET071METAR ETNT 080020Z 24009KT 4000 -DZRA BR BKN004 BKN006 07/06 Q1023 YLO;
0193101260999992013010801004+53550+007667FM-12+0012ETNT V0202401N004010012019N0040001N1+00671+00601102311ADDAY161999AY261999GA1051+001201071GF108991071071001501999999MA1999999102151MD1710131+9999MW1581REMSYN088AAXX  08011 10126 41240 82404 10067 20060 30215 40231 57013 75866 877// 333 85704 87706;
0151101260999992013010801204+53550+007667FM-15+0012ETNT V0202401N004610012019N0040001N1+00701+00601999999ADDGA1071+001201999GF107991999999999999999999MA1102301999999MW1101MW2511MW3611REMMET064METAR ETNT 080120Z 24009KT 4000 -DZRA BR BKN004 07/06 Q1023 YLO;
0187101260999992013010802004+53550+007667FM-12+0012ETNT V0202501N005010012019N0040001N1+00661+00591102321ADDAY161999AY261999GA1071+001201071GF108991071071001501999999MA1999999102161MD1510051+9999MW1581REMSYN082AAXX  08021 10126 41240 82505 10066 20059 30216 40232 55005 75866 877// 333 87704;
0151101260999992013010802204+53550+007667FM-15+0012ETNT V0202401N004110012019N0040001N1+00701+00601999999ADDGA1071+001201999GF107991999999999999999999MA1102301999999MW1101MW2511MW3611REMMET064METAR ETNT 080220Z 24008KT 4000 -DZRA BR BKN004 07/06 Q1023 YLO;
0151101260999992013010803204+53550+007667FM-15+0012ETNT V0202401N004110012019N0040001N1+00701+00601999999ADDGA1071+001201999GF107991999999999999999999MA1102201999999MW1101MW2511MW3611REMMET064METAR ETNT 080320Z 24008KT 4000 -RADZ BR BKN004 07/06 Q1022 YLO;
0187101260999992013010804004+53550+007667FM-12+0012ETNT V0202401N005010012019N0045001N1+00651+00651102251ADDAY161999AY261999GA1071+001201071GF108991071071001501999999MA1999999102091MD1810081+9999MW1581REMSYN082AAXX  08041 10126 41245 82405 10065 20065 30209 40225 58008 75866 877// 333 87704;
0151101260999992013010804204+53550+007667FM-15+0012ETNT V0202401N004610009019N0030001N1+00701+00601999999ADDGA1071+000901999GF107991999999999999999999MA1102201999999MW1101MW2511MW3611REMMET064METAR ETNT 080420Z 24009KT 3000 -DZRA BR BKN003 07/06 Q1022 YLO;
0187101260999992013010805004+53550+007667FM-12+0012ETNT V0202401N005010009019N0030001N1+00661+00661102221ADDAY161999AY261999GA1071+000901071GF108991071071000751999999MA1999999102061MD1810101+9999MW1581REMSYN082AAXX  08051 10126 41130 82405 10066 20066 30206 40222 58010 75866 877// 333 87703;
0151101260999992013010805204+53550+007667FM-15+0012ETNT V0202401N005110009019N0025001N1+00701+00701999999ADDGA1071+000901999GF107991999999999999999999MA1102101999999MW1101MW2511MW3611REMMET064METAR ETNT 080520Z 24010KT 2500 -DZRA BR BKN003 07/07 Q1021 YLO;
0177101260999992013010806204+53550+007667FM-15+0012ETNT V0202401N005110009019N0030001N1+00701+00701999999ADDGA1071+000901999GA2071+001501999GF107991999999999999999999MA1102101999999MW1101MW2531MW3631REMMET074METAR ETNT 080620Z 24010KT 3000 RADZ BR BKN003 BKN005 07/07 Q1021 YLO YLO;
0257101260999992013010807004+53550+007667FM-12+0012ETNT V0202401N005010009019N0035001N1+00701+00641102161ADDAY161999AY261999GA1051+000901071GA2071+001501071GF108991071071000751999999MA1999999102001MD1710091+9999MW1581REMSYN136AAXX  08071 10126 41135 82405 10070 20064 30200 40216 57009 75866 877// 333 85703 87705 555 BOT 10066 20066 30068 40070 50073 999 31///;
0160101260999992013010807204+53550+007667FM-15+0012ETNT V0202401N004610009019N0025001N1+00701+00601999999ADDGA1071+000901999GF107991999999999999999999MA1102101999999MW1101MW2511MW3611REMMET073METAR ETNT 080720Z 24009KT 2500 -RADZ BR BKN003 07/06 Q1021 RERA YLO YLO;
0187101260999992013010808004+53550+007667FM-12+0012ETNT V0202501N005010009019N0025001N1+00711+00651102181ADDAY161999AY261999GA1071+000901071GF108991071071000751999999MA1999999102021MD1510041+9999MW1581REMSYN082AAXX  08081 10126 41125 82505 10071 20065 30202 40218 55004 75866 877// 333 87703;
0155101260999992013010808204+53550+007667FM-15+0012ETNT V0202501N005110009019N0022001N1+00701+00701999999ADDGA1071+000901999GF107991999999999999999999MA1102101999999MW1101MW2511MW3611REMMET068METAR ETNT 080820Z 25010KT 2200 -DZRA BR BKN003 07/07 Q1021 YLO YLO;
0155101260999992013010809204+53550+007667FM-15+0012ETNT V0202501N004610009019N0030001N1+00701+00701999999ADDGA1071+000901999GF107991999999999999999999MA1102201999999MW1101MW2511MW3611REMMET068METAR ETNT 080920Z 25009KT 3000 -DZRA BR BKN003 07/07 Q1022 YLO YLO;
0187101260999992013010810004+53550+007667FM-12+0012ETNT V0202501N005010012019N0035001N1+00751+00681102211ADDAY161999AY261999GA1071+001201071GF108991071071001501999999MA1999999102051MD1210051+9999MW1581REMSYN082AAXX  08101 10126 41235 82505 10075 20068 30205 40221 52005 75866 877// 333 87704;
0155101260999992013010810084+53550+007667FM-16+0012ETNT V0202501N005110009019N0025001N1+00801+00701999999ADDGA1071+000901999GF107991999999999999999999MA1102201999999MW1101MW2511MW3611REMMET068SPECI ETNT 081008Z 25010KT 2500 -DZRA BR BKN003 08/07 Q1022 YLO YLO;
0155101260999992013010810204+53550+007667FM-15+0012ETNT V0202501N004610012019N0030001N1+00801+00701999999ADDGA1071+001201999GF107991999999999999999999MA1102201999999MW1101MW2511MW3611REMMET068METAR ETNT 081020Z 25009KT 3000 -DZRA BR BKN004 08/07 Q1022 YLO YLO;
0155101260999992013010810424+53550+007667FM-16+0012ETNT V0202501N005110009019N0028001N1+00801+00701999999ADDGA1071+000901999GF107991999999999999999999MA1102201999999MW1101MW2511MW3611REMMET068SPECI ETNT 081042Z 25010KT 2800 -DZRA BR BKN003 08/07 Q1022 YLO YLO;
0187101260999992013010811004+53550+007667FM-12+0012ETNT V0202501N005010009019N0028001N1+00761+00701102181ADDAY161999AY261999GA1071+000901071GF108991071071000751999999MA1999999102021MD1010001+9999MW1581REMSYN082AAXX  08111 10126 41128 82505 10076 20070 30202 40218 50000 75866 877// 333 87703;
0157101260999992013010811204+53550+007667FM-15+0012ETNT V0202501N004610006019N0023001N1+00801+00801999999ADDGA1071+000601999GF107991999999999999999999MA1102101999999MW1101MW2511REMMET076METAR ETNT 081120Z 25009KT 2300 -DZ BR BKN002 08/08 Q1021 AMB YLO TEMPO AMB;
0165101260999992013010812204+53550+007667FM-15+0012ETNT V0202601N004610009019N0025001N1+00801+00801999999ADDGA1071+000901999GF107991999999999999999999MA1102101999999MW1101MW2511MW3611REMMET078METAR ETNT 081220Z 26009KT 2500 -DZRA BR BKN003 08/08 Q1021 YLO YLO TEMPO AMB;
0187101260999992013010813004+53550+007667FM-12+0012ETNT V0202701N005010012019N0022001N1+00821+00761102181ADDAY161999AY261999GA1071+001201071GF108991071071001501999999MA1999999102021MD1610031+9999MW1581REMSYN082AAXX  08131 10126 41222 82705 10082 20076 30202 40218 56003 75866 877// 333 87704;
0165101260999992013010813204+53550+007667FM-15+0012ETNT V0202701N005710012019N0025001N1+00801+00801999999ADDGA1071+001201999GF107991999999999999999999MA1102101999999MW1101MW2511MW3611REMMET078METAR ETNT 081320Z 27011KT 2500 -DZRA BR BKN004 08/08 Q1021 YLO YLO TEMPO AMB;
0187101260999992013010814004+53550+007667FM-12+0012ETNT V0202701N006010009019N0025001N1+00811+00751102181ADDAY161999AY261999GA1071+000901071GF108991071071000751999999MA1999999102021MD1410001+9999MW1581REMSYN082AAXX  08141 10126 41125 82706 10081 20075 30202 40218 54000 75866 877// 333 87703;
0165101260999992013010814204+53550+007667FM-15+0012ETNT V0202701N005110009019N0025001N1+00801+00801999999ADDGA1071+000901999GF107991999999999999999999MA1102101999999MW1101MW2511MW3611REMMET078METAR ETNT 081420Z 27010KT 2500 -DZRA BR BKN003 08/08 Q1021 YLO YLO TEMPO AMB;
0163101260999992013010815204+53550+007667FM-15+0012ETNT V0202701N004110009019N0020001N1+00801+00801999999ADDGA1071+000901999GF107991999999999999999999MA1102101999999MW1101MW2511MW3611REMMET076METAR ETNT 081520Z 27008KT 2000 -DZRA BR BKN003 08/08 Q1021 YLO FCST CANCEL;
0187101260999992013010816004+53550+007667FM-12+0012ETNT V0202701N004010009019N0020001N1+00791+00791102191ADDAY161999AY261999GA1071+000901071GF108991071071000751999999MA1999999102031MD1310011+9999MW1581REMSYN082AAXX  08161 10126 41120 82704 10079 20079 30203 40219 53001 75866 877// 333 87703;
0151101260999992013010816204+53550+007667FM-15+0012ETNT V0202601N003610009019N0023001N1+00801+00801999999ADDGA1071+000901999GF107991999999999999999999MA1102101999999MW1101MW2511MW3611REMMET064METAR ETNT 081620Z 26007KT 2300 -DZRA BR BKN003 08/08 Q1021 YLO;
0187101260999992013010817004+53550+007667FM-12+0012ETNT V0202601N003010009019N0025001N1+00801+00751102181ADDAY161999AY261999GA1071+000901071GF108991071071000751999999MA1999999102021MD1010001+9999MW1581REMSYN082AAXX  08171 10126 41125 82603 10080 20075 30202 40218 50000 75866 877// 333 87703;
0151101260999992013010817204+53550+007667FM-15+0012ETNT V0202601N003610009019N0025001N1+00801+00801999999ADDGA1071+000901999GF107991999999999999999999MA1102101999999MW1101MW2511MW3611REMMET064METAR ETNT 081720Z 26007KT 2500 -DZRA BR BKN003 08/08 Q1021 YLO;
0151101260999992013010818204+53550+007667FM-15+0012ETNT V0202601N002610009019N0020001N1+00801+00801999999ADDGA1071+000901999GF107991999999999999999999MA1102101999999MW1101MW2511MW3611REMMET064METAR ETNT 081820Z 26005KT 2000 -DZRA BR BKN003 08/08 Q1021 YLO;
0187101260999992013010819004+53550+007667FM-12+0012ETNT V0202601N003010009019N0020001N1+00831+00781102191ADDAY161999AY261999GA1071+000901071GF108991071071000751999999MA1999999102031MD1510001+9999MW1631REMSYN082AAXX  08191 10126 41120 82603 10083 20078 30203 40219 55000 76366 877// 333 87703;
0142101260999992013010819204+53550+007667FM-15+0012ETNT V0202601N003610009019N0020001N1+00801+00801999999ADDGA1071+000901999GF107991999999999999999999MA1102101999999MW1101MW2631REMMET061METAR ETNT 081920Z 26007KT 2000 RA BR BKN003 08/08 Q1021 YLO;
0187101260999992013010820004+53550+007667FM-12+0012ETNT V0202601N004010009019N0020001N1+00821+00781102191ADDAY161999AY261999GA1071+000901071GF108991071071000751999999MA1999999102031MD1510001+9999MW1631REMSYN082AAXX  08201 10126 41120 82604 10082 20078 30203 40219 55000 76366 877// 333 87703;
0147101260999992013010820204+53550+007667FM-15+0012ETNT V0202501N002610009019N0020001N1+00801+00801999999ADDGA1071+000901999GF107991999999999999999999MA1102101999999MW1101MW2531REMMET066METAR ETNT 082020Z 25005KT 2000 DZ BR BKN003 08/08 Q1021 RERA YLO;
0176101260999992013010821204+53550+007667FM-15+0012ETNT V0202501N002610009019N0018001N1+00801+00801999999ADDED126U39009GA1071+000901999GF107991999999999999999999MA1102101999999MW1101MW2531MW3631REMMET078METAR ETNT 082120Z 25005KT 1800 R26/3900U DZRA BR BKN003 08/08 Q1021 RERA YLO;
0187101260999992013010822004+53550+007667FM-12+0012ETNT V0202401N003010009019N0018001N1+00821+00781102151ADDAY161999AY261999GA1071+000901071GF108991071071000751999999MA1999999101991MD1810041+9999MW1591REMSYN082AAXX  08221 10126 41118 82403 10082 20078 30199 40215 58004 75966 877// 333 87703;
0168101260999992013010822204+53550+007667FM-15+0012ETNT V0202401N003610006019N0018001N1+00801+00801999999ADDED126U32009GA1071+000601999GF107991999999999999999999MA1102101999999MW1101MW2531REMMET076METAR ETNT 082220Z 24007KT 1800 R26/3200D DZ BR BKN002 08/08 Q1021 RERA AMB;
0187101260999992013010823004+53550+007667FM-12+0012ETNT V0202401N004010006019N0018001N1+00821+00781102131ADDAY161999AY251999GA1071+000601071GF108991071071000751999999MA1999999101971MD1810061+9999MW1531REMSYN082AAXX  08231 10126 41118 82404 10082 20078 30197 40213 58006 75365 877// 333 87702;
0163101260999992013010823204+53550+007667FM-15+0012ETNT V0202401N004110006019N0018001N1+00801+00801999999ADDED126U46009GA1071+000601999GF107991999999999999999999MA1102101999999MW1101MW2531REMMET071METAR ETNT 082320Z 24008KT 1800 R26/4600U DZ BR BKN002 08/08 Q1021 AMB;
0148101260999992013010900204+53550+007667FM-15+0012ETNT V0202301N003610006019N0020001N1+00801+00801999999ADDGA1071+000601999GF107991999999999999999999MA1102001999999MW1101MW2511REMMET067METAR ETNT 090020Z 23007KT 2000 -DZ BR BKN002 08/08 Q1020 REDZ AMB;
0187101260999992013010901004+53550+007667FM-12+0012ETNT V0202301N004010006019N0020001N1+00801+00771102021ADDAY151999AY251999GA1071+000601071GF108991071071000751999999MA1999999101861MD1710131+9999MW1511REMSYN082AAXX  09011 10126 41120 82304 10080 20077 30186 40202 57013 75155 877// 333 87702;
0143101260999992013010901204+53550+007667FM-15+0012ETNT V0202201N003110006019N0020001N1+00801+00801999999ADDGA1071+000601999GF107991999999999999999999MA1101901999999MW1101MW2511REMMET062METAR ETNT 090120Z 22006KT 2000 -DZ BR BKN002 08/08 Q1019 AMB;
0187101260999992013010902004+53550+007667FM-12+0012ETNT V0202201N004010006019N0020001N1+00801+00761101991ADDAY151999AY251999GA1071+000601071GF108991071071000751999999MA1999999101831MD1710151+9999MW1511REMSYN082AAXX  09021 10126 41120 82204 10080 20076 30183 40199 57015 75155 877// 333 87702;
0143101260999992013010902204+53550+007667FM-15+0012ETNT V0202201N004110006019N0020001N1+00801+00801999999ADDGA1071+000601999GF107991999999999999999999MA1101901999999MW1101MW2511REMMET062METAR ETNT 090220Z 22008KT 2000 -DZ BR BKN002 08/08 Q1019 AMB;
0143101260999992013010903204+53550+007667FM-15+0012ETNT V0202301N005110006019N0020001N1+00801+00801999999ADDGA1071+000601999GF107991999999999999999999MA1101901999999MW1101MW2511REMMET062METAR ETNT 090320Z 23010KT 2000 -DZ BR BKN002 08/08 Q1019 AMB;
0187101260999992013010904004+53550+007667FM-12+0012ETNT V0202301N005010006019N0020001N1+00771+00771101871ADDAY151999AY251999GA1071+000601071GF108991071071000751999999MA1999999101711MD1710151+9999MW1531REMSYN082AAXX  09041 10126 41120 82305 10077 20077 30171 40187 57015 75355 877// 333 87702;
0148101260999992013010904204+53550+007667FM-15+0012ETNT V0202301N004610009019N0030001N1+00801+00801999999ADDGA1071+000901999GF107991999999999999999999MA1101801999999MW1101MW2511REMMET067METAR ETNT 090420Z 23009KT 3000 -DZ BR BKN003 08/08 Q1018 REDZ YLO;
0148101260999992013010904544+53550+007667FM-16+0012ETNT V0202301N005110006019N0025001N1+00801+00801999999ADDGA1071+000601999GF107991999999999999999999MA1101801999999MW1101MW2511REMMET067SPECI ETNT 090454Z 23010KT 2500 -DZ BR BKN002 08/08 Q1018 REDZ AMB;
0187101260999992013010905004+53550+007667FM-12+0012ETNT V0202301N006010009019N0025001N1+00761+00761101811ADDAY151999AY251999GA1071+000901071GF108991071071000751999999MA1999999101651MD1710171+9999MW1511REMSYN082AAXX  09051 10126 41125 82306 10076 20076 30165 40181 57017 75155 877// 333 87703;
0147101260999992013010905204+53550+007667FM-15+0012ETNT V0202301N005110006019N0025001N1+00801+00801999999ADDGA1071+000601999GF107991999999999999999999MA1101691999999MW1101REMMET072METAR ETNT 090520Z 23010KT 2500 BR BKN002 08/08 Q1017 AMB YLO TEMPO RED;
0157101260999992013010906204+53550+007667FM-15+0012ETNT V0202301N005110006019N0022001N1+00701+00701999999ADDGA1081+000601999GF108991999999999999999999MA1101691999999MW1101MW2511REMMET076METAR ETNT 090620Z 23010KT 2200 -DZ BR OVC002 07/07 Q1017 AMB YLO TEMPO RED;
0187101260999992013010907004+53550+007667FM-12+0012ETNT V0202301N005010006019N0020001N1+00741+00701101721ADDAY151999AY251999GA1081+000601071GF108991081071000751999999MA1999999101561MD1710151+9999MW1511REMSYN082AAXX  09071 10126 41120 82305 10074 20070 30156 40172 57015 75155 887// 333 88702;
0178101260999992013010907204+53550+007667FM-15+0012ETNT V0202301N005710006019N0018001N1+00701+00701999999ADDED126U46009GA1081+000601999GF108991999999999999999999MA1101691999999MW1101MW2511REMMET086METAR ETNT 090720Z 23011KT 1800 R26/4600U -DZ BR OVC002 07/07 Q1017 AMB YLO TEMPO RED;
0157101260999992013010907484+53550+007667FM-16+0012ETNT V0202301N005110009019N0022001N1+00701+00701999999ADDGA1081+000901999GF108991999999999999999999MA1101691999999MW1101MW2511REMMET076SPECI ETNT 090748Z 23010KT 2200 -DZ BR OVC003 07/07 Q1017 YLO YLO TEMPO RED;
0187101260999992013010908004+53550+007667FM-12+0012ETNT V0202301N005010009019N0022001N1+00731+00701101701ADDAY151999AY251999GA1081+000901071GF108991081071000751999999MA1999999101541MD1710111+9999MW1511REMSYN082AAXX  09081 10126 41122 82305 10073 20070 30154 40170 57011 75155 887// 333 88703;
0157101260999992013010908204+53550+007667FM-15+0012ETNT V0202301N005110009019N0028001N1+00701+00701999999ADDGA1081+000901999GF108991999999999999999999MA1101591999999MW1101MW2511REMMET076METAR ETNT 090820Z 23010KT 2800 -DZ BR OVC003 07/07 Q1016 YLO YLO TEMPO RED;
0180101260999992013010908464+53550+007667FM-16+0012ETNT V0202301N004610015019N0035001N1+00701+00701999999ADDGA1041+000901999GA2071+001501999GF107991999999999999999999MA1101591999999MW1101MW2511REMMET083SPECI ETNT 090846Z 23009KT 3500 -DZ BR SCT003 BKN005 07/07 Q1016 YLO YLO TEMPO RED;
0157101260999992013010909204+53550+007667FM-15+0012ETNT V0202301N004610009019N0050001N1+00701+00701999999ADDGA1071+000901999GF107991999999999999999999MA1101591999999MW1101MW2611REMMET076METAR ETNT 090920Z 23009KT 5000 -RA BR BKN003 07/07 Q1016 YLO YLO TEMPO RED;
0187101260999992013010910004+53550+007667FM-12+0012ETNT V0202301N005010009019N0050001N1+00751+00751101631ADDAY161999AY251999GA1071+000901071GF108991071071000751999999MA1999999101471MD1710091+9999MW1611REMSYN082AAXX  09101 10126 41150 82305 10075 20075 30147 40163 57009 76165 877// 333 87703;
0157101260999992013010910204+53550+007667FM-15+0012ETNT V0202501N004610009019N0035001N1+00801+00801999999ADDGA1071+000901999GF107991999999999999999999MA1101591999999MW1101MW2611REMMET076METAR ETNT 091020Z 25009KT 3500 -RA BR BKN003 08/08 Q1016 YLO YLO TEMPO RED;
0187101260999992013010911004+53550+007667FM-12+0012ETNT V0202801N005010009019N0035001N1+00791+00791101631ADDAY161999AY261999GA1071+000901071GF108991071071000751999999MA1999999101471MD1610071+9999MW1611REMSYN082AAXX  09111 10126 41135 82805 10079 20079 30147 40163 56007 76166 877// 333 87703;
0156101260999992013010911044+53550+007667FM-16+0012ETNT V0202901N005110006019N0028001N1+00801+00801999999ADDGA1071+000601999GF107991999999999999999999MA1101591999999MW1101MW2631REMMET075SPECI ETNT 091104Z 29010KT 2800 RA BR BKN002 08/08 Q1016 AMB YLO TEMPO RED;
0170101260999992013010911204+53550+007667FM-15+0012ETNT V0203201N004610006019N0028001N1+00801+00801999999ADDGA1071+000601999GF107991999999999999999999MA1101591999999MW1101MW2511MW3611REMMET083METAR ETNT 091120Z 32009KT 2800 -RADZ BR BKN002 08/08 Q1016 RERA AMB YLO TEMPO RED;
0157101260999992013010912004+53550+007667FM-15+0012ETNT V0203201N004610009019N0037001N1+00801+00801999999ADDGA1071+000901999GF107991999999999999999999MA1101491999999MW1101MW2611REMMET076SPECI ETNT 091157Z 32009KT 3700 -RA BR BKN003 08/08 Q1015 YLO YLO TEMPO RED;
0164101260999992013010912204+53550+007667FM-15+0012ETNT V0203301N004610009019N0028001N1+00801+00801999999ADDGA1071+000901999GF107991999999999999999999MA1101491999999MW1101MW2531MW3631REMMET077METAR ETNT 091220Z 33009KT 2800 DZRA BR BKN003 08/08 Q1015 YLO YLO TEMPO RED;
0143101260999992013010912484+53550+007667FM-16+0012ETNT V0203301N003610012019N0080001N1+00801+00801999999ADDGA1071+001201999GF107991999999999999999999MA1101491999999REMMET074SPECI ETNT 091248Z 33007KT 8000 BKN004 08/08 Q1015 REDZ YLO YLO TEMPO RED;
0187101260999992013010913004+53550+007667FM-12+0012ETNT V0203301N004010012019N0090001N1+00751+00751101561ADDAY161999AY221999GA1071+001201071GF108991071071001501999999MA1999999101401MD1810071+9999MW1211REMSYN082AAXX  09131 10126 41259 83304 10075 20075 30140 40156 58007 72162 877// 333 87704;
0166101260999992013010913204+53550+007667FM-15+0012ETNT V0203201N003610015019N0112651N1+00701+00701999999ADDGA1071+001501999GA2071+008401999GF107991999999999999999999MA1101491999999REMMET081METAR ETNT 091320Z 32007KT 9999 BKN005 BKN028 07/07 Q1015 REDZ YLO GRN TEMPO YLO;
0159101260999992013010914004+53550+007667FM-12+0012ETNT V0203201N005010012019N0120001N1+00741+00681101571ADDGA1071+001201071GF108991071071001501999999MA1999999101411MD1510061+9999REMSYN076AAXX  09141 10126 42262 83205 10074 20068 30141 40157 55006 877// 333 87704;
0138101260999992013010914204+53550+007667FM-15+0012ETNT V0203301N004110009019N0080001N1+00701+00701999999ADDGA1071+000901999GF107991999999999999999999MA1101491999999REMMET069METAR ETNT 091420Z 33008KT 8000 BKN003 07/07 Q1015 YLO GRN TEMPO YLO;
0184101260999992013010915004+53550+007667FM-15+0012ETNT V0203201N004110039019N0112651N1+00701+00701999999ADDGA1021+001501999GA2071+003901999GA3071+015001999GF107991999999999999999999MA1101491999999REMMET083SPECI ETNT 091457Z 32008KT 9999 FEW005 BKN013 BKN050 07/07 Q1015 GRN GRN TEMPO YLO;
0161101260999992013010915054+53550+007667FM-16+0012ETNT V0203201N003610012019N0112651N1+00701+00601999999ADDGA1071+001201999GA2071+015001999GF107991999999999999999999MA1101491999999REMMET076SPECI ETNT 091505Z 32007KT 9999 BKN004 BKN050 07/06 Q1015 YLO GRN TEMPO YLO;
0159101260999992013010915204+53550+007667FM-15+0012ETNT V0203201N004110012019N0112651N1+00701+00601999999ADDGA1071+001201999GA2071+015001999GF107991999999999999999999MA1101491999999REMMET074METAR ETNT 091520Z 32008KT 9999 BKN004 BKN050 07/06 Q1015 YLO FCST CANCEL;
0165101260999992013010916004+53550+007667FM-12+0012ETNT V0203101N005010012019N0120001N1+00681+00601101601ADDGA1061+001201071GF107991071051001501999999MA1999999101441MD1210041+9999REMSYN082AAXX  09161 10126 42262 73105 10068 20060 30144 40160 52004 875// 333 86704 87650;
0170101260999992013010916204+53550+007667FM-15+0012ETNT V0203101N003610021019N0112651N1+00701+00601999999ADDGA1021+001201999GA2071+002101999GA3071+015001999GF107991999999999999999999MA1101491999999REMMET069METAR ETNT 091620Z 31007KT 9999 FEW004 BKN007 BKN050 07/06 Q1015 GRN;
0165101260999992013010917004+53550+007667FM-12+0012ETNT V0203001N005010021019N0200001N1+00641+00531101561ADDGA1051+002101071GF106991061061002501001001MA1999999101401MD1010001+9999REMSYN082AAXX  09171 10126 42370 63005 10064 20053 30140 40156 50000 86600 333 85707 83650;
0125101260999992013010917204+53550+007667FM-15+0012ETNT V0202901N003112200019N0112651N1+00501+00401999999ADDGA1021+002101999GF102991999999999999999999MA1101491999999REMMET056METAR ETNT 091720Z 29006KT 9999 FEW007 05/04 Q1015 BLU/;
