0149101260999992010010100204+53550+007667FM-15+0012ETNT V0200501N005110240019N0112651N1+00001-00301999999ADDGA1041+018001999GA2071+024001999GF107991999999999999999999MA1100001999999REMMET064METAR ETNT 010020Z 05010KT 9999 SCT060 BKN080 M00/M03 Q1000 BLU;
0159101260999992010010101004+53550+007667FM-12+0012ETNT V0200501N005010240019N0300001N1-00011-00301100011ADDGA1071+024001031GF107991071001022501071999MA1999999099861MD1810021+9999REMSYN076AAXX  01011 10126 42880 70505 11001 21030 39986 40001 58002 8707/ 333 87358;
0126101260999992010010101204+53550+007667FM-15+0012ETNT V0200501N005110240019N0112651N1+00001-00301999999ADDGA1071+024001999GF107991999999999999999999MA1099901999999REMMET057METAR ETNT 010120Z 05010KT 9999 BKN080 M00/M03 Q0999 BLU;
0159101260999992010010102004+53550+007667FM-12+0012ETNT V0200501N005010270019N0300001N1-00041-00371100001ADDGA1071+027001031GF107991071001999999071999MA1999999099851MD1710051+9999REMSYN076AAXX  01021 10126 42980 70505 11004 21037 39985 40000 57005 8707/ 333 87359;
0126101260999992010010102204+53550+007667FM-15+0012ETNT V0200501N005710270019N0112651N1+00001-00401999999ADDGA1071+027001999GF107991999999999999999999MA1099901999999REMMET057METAR ETNT 010220Z 05011KT 9999 BKN090 M00/M04 Q0999 BLU;
0149101260999992010010103204+53550+007667FM-15+0012ETNT V0200601N005110300019N0112651N1-00101-00401999999ADDGA1041+018001999GA2071+030001999GF107991999999999999999999MA1099901999999REMMET064METAR ETNT 010320Z 06010KT 9999 SCT060 BKN100 M01/M04 Q0999 BLU;
0165101260999992010010104004+53550+007667FM-12+0012ETNT V0200501N005010300019N0300001N1-00071-00391099991ADDGA1021+015001061GF107991021051017501071999MA1999999099841MD1610021+9999REMSYN082AAXX  01041 10126 42780 70505 11007 21039 39984 49999 56002 8257/ 333 82650 87360;
0126101260999992010010104204+53550+007667FM-15+0012ETNT V0200501N004610300019N0112651N1-00101-00401999999ADDGA1071+030001999GF107991999999999999999999MA1099901999999REMMET057METAR ETNT 010420Z 05009KT 9999 BKN100 M01/M04 Q0999 BLU;
0159101260999992010010105004+53550+007667FM-12+0012ETNT V0200501N005010300019N0300001N1-00101-00371099991ADDGA1071+030001031GF107991071001999999071999MA1999999099841MD1610011+9999REMSYN076AAXX  01051 10126 42980 70505 11010 21037 39984 49999 56001 8707/ 333 87360;
0149101260999992010010105204+53550+007667FM-15+0012ETNT V0200601N005110300019N0112651N1-00101-00401999999ADDGA1021+021001999GA2071+030001999GF107991999999999999999999MA1099901999999REMMET064METAR ETNT 010520Z 06010KT 9999 FEW070 BKN100 M01/M04 Q0999 BLU;
0126101260999992010010106204+53550+007667FM-15+0012ETNT V0200501N004610330019N0112651N1-00101-00401999999ADDGA1071+033001999GF107991999999999999999999MA1100001999999REMMET057METAR ETNT 010620Z 05009KT 9999 BKN110 M01/M04 Q1000 BLU;
0207101260999992010010107004+53550+007667FM-12+0012ETNT V0200601N005010330019N0300001N1-00151-00391100031ADDGA1071+033001031GF107991071001999999071999MA1999999099881MD1310041+9999REMSYN124AAXX  01071 10126 42980 70605 11015 21039 39988 40003 53004 8707/ 333 87361 555 BOT 11001 20004 30011 40029 50054 999 48///;
0126101260999992010010107204+53550+007667FM-15+0012ETNT V0200501N004110330019N0112651N1-00101-00401999999ADDGA1071+033001999GF107991999999999999999999MA1100001999999REMMET057METAR ETNT 010720Z 05008KT 9999 BKN110 M01/M04 Q1000 BLU;
0159101260999992010010108004+53550+007667FM-12+0012ETNT V0200401N003010330019N0300001N1-00171-00381100081ADDGA1071+033001031GF107991071001999999071999MA1999999099931MD1210091+9999REMSYN076AAXX  01081 10126 42980 70403 11017 21038 39993 40008 52009 8707/ 333 87361;
0126101260999992010010108204+53550+007667FM-15+0012ETNT V0200401N003610330019N0112651N1-00201-00401999999ADDGA1071+033001999GF107991999999999999999999MA1100001999999REMMET057METAR ETNT 010820Z 04007KT 9999 BKN110 M02/M04 Q1000 BLU;
0149101260999992010010109204+53550+007667FM-15+0012ETNT V0200501N004110330019N0112651N1-00101-00401999999ADDGA1041+006601999GA2071+033001999GF107991999999999999999999MA1100101999999REMMET064METAR ETNT 010920Z 05008KT 9999 SCT022 BKN110 M01/M04 Q1001 BLU;
0159101260999992010010110004+53550+007667FM-12+0012ETNT V0200501N005010075019N0300001N1-00111-00361100161ADDGA1071+007501061GF107991071051008001999999MA1999999100011MD1210131+9999REMSYN076AAXX  01101 10126 42580 70505 11011 21036 30001 40016 52013 875// 333 87625;
0142101260999992010010110204+53550+007667FM-15+0012ETNT V0200501N00411007501CN0112651N1-00101-00301999999ADDGA1071+007501999GA2041+033001999MA1100101999999REMMET064METAR ETNT 011020Z 05008KT 9999 BKN025 SCT110 M01/M03 Q1001 BLU;EQDQ01+000042SCOTCV
0165101260999992010010111004+53550+007667FM-12+0012ETNT V0200501N00401007501CN0300001N1-00111-00371100181ADDGA1041+007501061GF107991071051008001071999MA1999999100031MD1210101+9999REMSYN082AAXX  01111 10126 42580 70504 11011 21037 30003 40018 52010 8757/ 333 84625 87361;
0149101260999992010010111204+53550+007667FM-15+0012ETNT V0200501N003610390019N0112651N1-00101-00401999999ADDGA1021+007501999GA2071+039001999GF107991999999999999999999MA1100101999999REMMET064METAR ETNT 011120Z 05007KT 9999 FEW025 BKN130 M01/M04 Q1001 BLU;
0126101260999992010010112204+53550+007667FM-15+0012ETNT V0200401N003110390019N0112651N1-00101-00401999999ADDGA1071+039001999GF107991999999999999999999MA1100101999999REMMET057METAR ETNT 011220Z 04006KT 9999 BKN130 M01/M04 Q1001 BLU;
0165101260999992010010113004+53550+007667FM-12+0012ETNT V0200401N004019999999N0300001N1-00151-00431100181ADDGA1041+039001031GF105991041001999999071011MA1999999100031MD1210021+9999REMSYN082AAXX  01131 10126 42980 50404 11015 21043 30003 40018 52002 84071 333 84363 84074;
0150101260999992010010113204+53550+007667FM-15+0012ETNT V0200401N003112200019N0112651N1-00101-00401999999ADDGA1041+039001999GA2041+072001999GF104991999999999999999999MA1100101999999REMMET065METAR ETNT 011320Z 04006KT 9999 SCT130 SCT240 M01/M04 Q1001 BLU/;
0159101260999992010010114004+53550+007667FM-12+0012ETNT V0200301N003012200019N0300001N1-00151-00441100231ADDGA1031+039001031GF103991031001999999031001MA1999999100081MD1310051+9999REMSYN076AAXX  01141 10126 42980 30303 11015 21044 30008 40023 53005 83030 333 83363;
0150101260999992010010114204+53550+007667FM-15+0012ETNT V0200401N003612200019N0112651N1-00101-00501999999ADDGA1021+005401999GA2041+039001999GF104991999999999999999999MA1100201999999REMMET065METAR ETNT 011420Z 04007KT 9999 FEW018 SCT130 M01/M05 Q1002 BLU/;
0126101260999992010010115204+53550+007667FM-15+0012ETNT V0200301N003610054019N0112651N1-00201-00501999999ADDGA1071+005401999GF107991999999999999999999MA1100311999999REMMET057METAR ETNT 011520Z 03007KT 9999 BKN018 M02/M05 Q1003 WHT;
0159101260999992010010116004+53550+007667FM-12+0012ETNT V0200301N003010060019N0300001N1-00171-00521100371ADDGA1061+006001061GF106991061051008001001001MA1999999100221MD1210191+9999REMSYN076AAXX  01161 10126 42580 60303 11017 21052 30022 40037 52019 86500 333 86620;
0126101260999992010010116204+53550+007667FM-15+0012ETNT V0200401N003110060019N0112651N1-00201-00501999999ADDGA1071+006001999GF107991999999999999999999MA1100311999999REMMET057METAR ETNT 011620Z 04006KT 9999 BKN020 M02/M05 Q1003 WHT;
0159101260999992010010117004+53550+007667FM-12+0012ETNT V0200301N003010060019N0300001N1-00211-00511100411ADDGA1071+006001061GF107991071051008001999999MA1999999100261MD1210181+9999REMSYN076AAXX  01171 10126 42580 70303 11021 21051 30026 40041 52018 875// 333 87620;
0126101260999992010010117204+53550+007667FM-15+0012ETNT V0200401N003110063019N0112651N1-00201-00501999999ADDGA1071+006301999GF107991999999999999999999MA1100411999999REMMET057METAR ETNT 011720Z 04006KT 9999 BKN021 M02/M05 Q1004 WHT;
0126101260999992010010118204+53550+007667FM-15+0012ETNT V0200401N003610057019N0112651N1-00201-00501999999ADDGA1071+005701999GF107991999999999999999999MA1100511999999REMMET057METAR ETNT 011820Z 04007KT 9999 BKN019 M02/M05 Q1005 WHT;
0159101260999992010010119004+53550+007667FM-12+0012ETNT V0200401N003010057019N0300001N1-00221-00561100551ADDGA1071+005701061GF107991071051004501999999MA1999999100401MD1210181+9999REMSYN076AAXX  01191 10126 42480 70403 11022 21056 30040 40055 52018 875// 333 87619;
0126101260999992010010119204+53550+007667FM-15+0012ETNT V0200301N004110057019N0112651N1-00201-00601999999ADDGA1071+005701999GF107991999999999999999999MA1100511999999REMMET057METAR ETNT 011920Z 03008KT 9999 BKN019 M02/M06 Q1005 WHT;
0159101260999992010010120004+53550+007667FM-12+0012ETNT V0200501N003010057019N0300001N1-00241-00551100611ADDGA1071+005701061GF107991071051004501999999MA1999999100461MD1210201+9999REMSYN076AAXX  01201 10126 42480 70503 11024 21055 30046 40061 52020 875// 333 87619;
0126101260999992010010120204+53550+007667FM-15+0012ETNT V0200601N003110054019N0112651N1-00201-00601999999ADDGA1071+005401999GF107991999999999999999999MA1100611999999REMMET057METAR ETNT 012020Z 06006KT 9999 BKN018 M02/M06 Q1006 WHT;
0126101260999992010010121204+53550+007667FM-15+0012ETNT V0200401N002110057019N0112651N1-00201-00501999999ADDGA1071+005701999GF107991999999999999999999MA1100711999999REMMET057METAR ETNT 012120Z 04004KT 9999 BKN019 M02/M05 Q1007 WHT;
0159101260999992010010122004+53550+007667FM-12+0012ETNT V0200501N002010057019N0300001N1-00251-00531100751ADDGA1071+005701061GF107991071051004501999999MA1999999100601MD1210201+9999REMSYN076AAXX  01221 10126 42480 70502 11025 21053 30060 40075 52020 875// 333 87619;
0126101260999992010010122204+53550+007667FM-15+0012ETNT V0200601N001510057019N0112651N1-00201-00501999999ADDGA1071+005701999GF107991999999999999999999MA1100711999999REMMET057METAR ETNT 012220Z 06003KT 9999 BKN019 M02/M05 Q1007 WHT;
0159101260999992010010123004+53550+007667FM-12+0012ETNT V0200401N001010054019N0300001N1-00241-00511100791ADDGA1071+005401061GF107991071051004501999999MA1999999100641MD1210181+9999REMSYN076AAXX  01231 10126 42480 70401 11024 21051 30064 40079 52018 875// 333 87618;
0126101260999992010010123204+53550+007667FM-15+0012ETNT V0200601N002110060019N0112651N1-00201-00501999999ADDGA1071+006001999GF107991999999999999999999MA1100811999999REMMET057METAR ETNT 012320Z 06004KT 9999 BKN020 M02/M05 Q1008 WHT;
0126101260999992010010200204+53550+007667FM-15+0012ETNT V0200501N003110060019N0112651N1-00201-00501999999ADDGA1071+006001999GF107991999999999999999999MA1100811999999REMMET057METAR ETNT 020020Z 05006KT 9999 BKN020 M02/M05 Q1008 WHT;
0159101260999992010010201004+53550+007667FM-12+0012ETNT V0200601N002010060019N0300001N1-00261-00551100891ADDGA1071+006001061GF107991071051008001999999MA1999999100741MD1210141+9999REMSYN076AAXX  02011 10126 42580 70602 11026 21055 30074 40089 52014 875// 333 87620;
0126101260999992010010201204+53550+007667FM-15+0012ETNT V0200301N001510063019N0112651N1-00301-00601999999ADDGA1071+006301999GF107991999999999999999999MA1100911999999REMMET057METAR ETNT 020120Z 03003KT 9999 BKN021 M03/M06 Q1009 WHT;
0159101260999992010010202004+53550+007667FM-12+0012ETNT V0200401N002010063019N0300001N1-00251-00561100951ADDGA1071+006301061GF107991071051008001999999MA1999999100801MD1210161+9999REMSYN076AAXX  02021 10126 42580 70402 11025 21056 30080 40095 52016 875// 333 87621;
0126101260999992010010202204+53550+007667FM-15+0012ETNT V0200801N003110066019N0112651N1-00301-00601999999ADDGA1071+006601999GF107991999999999999999999MA1100911999999REMMET057METAR ETNT 020220Z 08006KT 9999 BKN022 M03/M06 Q1009 WHT;
0126101260999992010010203204+53550+007667FM-15+0012ETNT V0201201N002110066019N0112651N1-00301-00501999999ADDGA1071+006601999GF107991999999999999999999MA1101021999999REMMET057METAR ETNT 020320Z 12004KT 9999 BKN022 M03/M05 Q1010 WHT;
0165101260999992010010204004+53550+007667FM-12+0012ETNT V0201301N00201007501CN0300001N1-00341-00551101051ADDGA1021+007801061GF107991071051008001999999MA1999999100901MD1210161+9999REMSYN082AAXX  02041 10126 42580 71302 11034 21055 30090 40105 52016 875// 333 82626 87650;
0149101260999992010010204204+53550+007667FM-15+0012ETNT V0201701N001510120019N0112651N1-00401-00601999999ADDGA1071+012001999GA2071+024001999GF107991999999999999999999MA1101021999999REMMET064METAR ETNT 020420Z 17003KT 9999 BKN040 BKN080 M04/M06 Q1010 BLU;
0165101260999992010010205004+53550+007667FM-12+0012ETNT V0202001N002010126019N0300001N1-00491-00591101111ADDGA1051+012601061GF106991051051012501031001MA1999999100961MD1210161+9999REMSYN082AAXX  02051 10126 42680 62002 11049 21059 30096 40111 52016 85530 333 85642 86358;
0149101260999992010010205204+53550+007667FM-15+0012ETNT V0202201N002110135019N0112651N1-00501-00601999999ADDGA1071+013501999GA2071+024001999GF107991999999999999999999MA1101081999999REMMET064METAR ETNT 020520Z 22004KT 9999 BKN045 BKN080 M05/M06 Q1011 BLU;
0136101260999992010010206204+53550+007667FM-15+0012ETNT V0202101N002610030019N0112651N1-00401-00501999999ADDGA1071+003001999GF107991999999999999999999MA1101081999999MW1711REMMET061METAR ETNT 020620Z 21005KT 9999 -SN BKN010 M04/M05 Q1011 GRN;
0235101260999992010010207004+53550+007667FM-12+0012ETNT V0202001N002010030019N0070001N1-00361-00481101241ADDAY171999AY271999GA1071+003001061GF108991071051004501999999MA1999999101091MD1210191+9999MW1711REMSYN130AAXX  02071 10126 41457 82002 11036 21048 30109 40124 52019 77177 875// 333 87610 555 BOT 11004 20000 30009 40023 50051 999 48///;
0145101260999992010010207204+53550+007667FM-15+0012ETNT V0202001N001510030019N0040001N1-00401-00501999999ADDGA1071+003001999GF107991999999999999999999MA1101191999999MW1101MW2711REMMET064METAR ETNT 020720Z 20003KT 4000 -SN BR BKN010 M04/M05 Q1012 GRN;
0144101260999992010010207294+53550+007667FM-16+0012ETNT V0202001N002110030019N0030001N1-00401-00501999999ADDGA1071+003001999GF107991999999999999999999MA1101191999999MW1101MW2731REMMET063SPECI ETNT 020729Z 20004KT 3000 SN BR BKN010 M04/M05 Q1012 YLO;
0187101260999992010010208004+53550+007667FM-12+0012ETNT V0201901N002010030019N0025001N1-00371-00421101321ADDAY171999AY271999GA1071+003001061GF108991071051004501999999MA1999999101171MD1210211+9999MW1711REMSYN082AAXX  02081 10126 41425 81902 11037 21042 30117 40132 52021 77177 875// 333 87610;
0150101260999992010010208204+53550+007667FM-15+0012ETNT V0201801N002110030019N0025001N1-00401-00401999999ADDGA1071+003001999GF107991999999999999999999MA1101291999999MW1101MW2711REMMET069METAR ETNT 020820Z 18004KT 2500 -SN BR BKN010 M04/M04 Q1013 RESN YLO;
0144101260999992010010209204+53550+007667FM-15+0012ETNT V0201601N002110030019N0025001N1-00401-00401999999ADDGA1071+003001999GF107991999999999999999999MA1101391999999MW1101MW2731REMMET063METAR ETNT 020920Z 16004KT 2500 SN BR BKN010 M04/M04 Q1014 YLO;
0187101260999992010010210004+53550+007667FM-12+0012ETNT V0201601N002010030019N0028001N1-00331-00331101441ADDAY171999AY271999GA1071+003001061GF108991071051004501999999MA1999999101291MD1210201+9999MW1711REMSYN082AAXX  02101 10126 41428 81602 11033 21033 30129 40144 52020 77177 875// 333 87610;
0150101260999992010010210204+53550+007667FM-15+0012ETNT V0201601N002110030019N0035001N1-00301-00301999999ADDGA1071+003001999GF107991999999999999999999MA1101391999999MW1101MW2711REMMET069METAR ETNT 021020Z 16004KT 3500 -SN BR BKN010 M03/M03 Q1014 RESN YLO;
0187101260999992010010211004+53550+007667FM-12+0012ETNT V0201801N002010030019N0030001N1-00291-00371101491ADDAY171999AY271999GA1071+003001061GF108991071051004501999999MA1999999101341MD1210171+9999MW1711REMSYN082AAXX  02111 10126 41430 81802 11029 21037 30134 40149 52017 77177 875// 333 87610;
0144101260999992010010211204+53550+007667FM-15+0012ETNT V0202101N001510030019N0020001N1-00301-00301999999ADDGA1071+003001999GF107991999999999999999999MA1101491999999MW1101MW2731REMMET063METAR ETNT 021120Z 21003KT 2000 SN BR BKN010 M03/M03 Q1015 YLO;
0144101260999992010010212204+53550+007667FM-15+0012ETNT V0201601N002110030019N0020001N1-00301-00301999999ADDGA1071+003001999GF107991999999999999999999MA1101491999999MW1101MW2731REMMET063METAR ETNT 021220Z 16004KT 2000 SN BR BKN010 M03/M03 Q1015 YLO;
0155101260999992010010212524+53550+007667FM-16+0012ETNT V0201601N001510024019N0037001N1-00301-00301999999ADDGA1071+002401999GF107991999999999999999999MA1101491999999MW1101MW2711REMMET074SPECI ETNT 021252Z 16003KT 3700 -SN BR BKN008 M03/M03 Q1015 RESN BLACKGRN;
0187101260999992010010213004+53550+007667FM-12+0012ETNT V0201601N002010024019N0037001N1-00281-00341101591ADDAY171999AY271999GA1071+002401071GF108991071061002501999999MA1999999101441MD1210151+9999MW1711REMSYN082AAXX  02131 10126 41337 81602 11028 21034 30144 40159 52015 77177 876// 333 87708;
0155101260999992010010213204+53550+007667FM-15+0012ETNT V0201001N001510021019N0030001N1-00301-00301999999ADDGA1071+002101999GF107991999999999999999999MA1101591999999MW1101MW2711REMMET074METAR ETNT 021320Z 10003KT 3000 -SN BR BKN007 M03/M03 Q1016 RESN BLACKYLO;
0187101260999992010010214004+53550+007667FM-12+0012ETNT V0201501N002010021019N0035001N1-00361-00491101611ADDAY171999AY271999GA1071+002101071GF108991071071002501999999MA1999999101461MD1210121+9999MW1711REMSYN082AAXX  02141 10126 41335 81502 11036 21049 30146 40161 52012 77177 877// 333 87707;
0186101260999992010010214034+53550+007667FM-16+0012ETNT V0201301N00101012001CN0050001N1-00301-00501999999ADDGA1021+002101999GA2041+012001999GA3071+027001999GF107991999999999999999999MA1101591999999MW1101REMMET079SPECI ETNT 021403Z 13002KT 5000 BR FEW007 SCT040 BKN090 M03/M05 Q1016 BLACKWHT;
0181101260999992010010214084+53550+007667FM-16+0012ETNT V0201101N00101012001CN0050001N1-00301-00401999999ADDGA1021+002101999GA2041+012001999GA3071+027001999GF107991999999999999999999MA1101591999999MW1101REMMET074SPECI ETNT 021408Z 11002KT 5000 BR FEW007 SCT040 BKN090 M03/M04 Q1016 WHT;
0181101260999992010010214204+53550+007667FM-15+0012ETNT V0200601N00151012001CN0050001N1-00301-00401999999ADDGA1021+002101999GA2041+012001999GA3071+027001999GF107991999999999999999999MA1101591999999MW1101REMMET074METAR ETNT 021420Z 06003KT 5000 BR FEW007 SCT040 BKN090 M03/M04 Q1016 WHT;
0149101260999992010010215204+53550+007667FM-15+0012ETNT V0201001N001512200019N0060001N1-00501-00501999999ADDGA1021+015001999GA2041+027001999GF104991999999999999999999MA1101591999999REMMET064METAR ETNT 021520Z 10003KT 6000 FEW050 SCT090 M05/M05 Q1016 WHT;
0170101260999992010010215484+53550+007667FM-16+0012ETNT V0201101N001512200019N0005001N1-00601-00601999999ADDGA1021+015001999GA2041+027001999GF104991999999999999999999MA1101591999999MW1481REMMET079SPECI ETNT 021548Z 11003KT 0500 R26////// FZFG FEW050 SCT090 M06/M06 Q1016 RED;
0193101260999992010010216004+53550+007667FM-12+0012ETNT V0201101N00201030001CN0005001N1-00591-00601101701ADDAY171999AY221999GA1031+015001061GF105991031051017501021001MA1999999101551MD1210111+9999MW1481REMSYN088AAXX  02161 10126 41705 51102 11059 21060 30155 40170 52011 74872 83520 333 83650 83459;
0147101260999992010010216204+53550+007667FM-15+0012ETNT V0200701N001012200019N0006001N1-00601-00601999999ADDGA1041+015001999GF104991999999999999999999MA1101691999999MW1481REMMET072METAR ETNT 021620Z 07002KT 0600 R26////// FZFG SCT050 M06/M06 Q1017 RED;
0187101260999992010010217004+53550+007667FM-12+0012ETNT V0200701N002010120019N0007001N1-00771-00771101761ADDAY141999AY241999GA1051+012001061GF105991051051012501001001MA1999999101601MD1210141+9999MW1481REMSYN082AAXX  02171 10126 41607 50702 11077 21077 30160 40176 52014 74844 85500 333 85640;
0146101260999992010010217204+53550+007667FM-15+0012ETNT V0200801N001510105019N0035001N1-00501-00501999999ADDGA1071+010501999GF107991999999999999999999MA1101691999999MW1101MW2121REMMET065METAR ETNT 021720Z 08003KT 3500 MIFG BR BKN035 M05/M05 Q1017 YLO;
0135101260999992010010218204+53550+007667FM-15+0012ETNT V0200601N001010129019N0035001N1-00501-00501999999ADDGA1071+012901999GF107991999999999999999999MA1101801999999MW1101REMMET060METAR ETNT 021820Z 06002KT 3500 BR BKN043 M05/M05 Q1018 YLO;
0187101260999992010010219004+53550+007667FM-12+0012ETNT V0200501N001010120019N0035001N1-00521-00541101851ADDAY121999AY221999GA1061+012001061GF106991061051012501001001MA1999999101701MD1210151+9999MW1101REMSYN082AAXX  02191 10126 41635 60501 11052 21054 30170 40185 52015 71022 86500 333 86640;
0145101260999992010010219204+53550+007667FM-15+0012ETNT V0200401N001510120019N0040001N1-00501-00501999999ADDGA1071+012001999GF107991999999999999999999MA1101801999999MW1101MW2711REMMET064METAR ETNT 021920Z 04003KT 4000 -SN BR BKN040 M05/M05 Q1018 GRN;
0187101260999992010010220004+53550+007667FM-12+0012ETNT V0200301N001010120019N0040001N1-00521-00541101881ADDAY171999AY221999GA1061+012001061GF106991061051012501001001MA1999999101731MD1210131+9999MW1711REMSYN082AAXX  02201 10126 41640 60301 11052 21054 30173 40188 52013 77172 86500 333 86640;
0146101260999992010010220204+53550+007667FM-15+0012ETNT V0200301N001512200019N0035001N1-00601-00601999999ADDGA1041+012001999GF104991999999999999999999MA1101801999999MW1101MW2121REMMET065METAR ETNT 022020Z 03003KT 3500 MIFG BR SCT040 M06/M06 Q1018 YLO;
0147101260999992010010220454+53550+007667FM-16+0012ETNT V0200901N001012200019N0006001N1-00601-00601999999ADDGA1021+012001999GF102991999999999999999999MA1101801999999MW1481REMMET072SPECI ETNT 022045Z 09002KT 0600 R26////// FZFG FEW040 M06/M06 Q1018 RED;
0147101260999992010010221074+53550+007667FM-16+0012ETNT V0200201N001012200019N0011001N1-00701-00701999999ADDGA1021+012001999GF102991999999999999999999MA1101801999999MW1411REMMET072SPECI ETNT 022107Z 02002KT 1100 R26////// BCFG FEW040 M07/M07 Q1018 AMB;
0146101260999992010010221204+53550+007667FM-15+0012ETNT V0200301N001012200019N0030001N1-00601-00601999999ADDGA1021+012001999GF102991999999999999999999MA1101901999999MW1101MW2121REMMET065METAR ETNT 022120Z 03002KT 3000 MIFG BR FEW040 M06/M06 Q1019 YLO;
0187101260999992010010222004+53550+007667FM-12+0012ETNT V0200201N001012200019N0030001N1-00721-00731101911ADDAY101999AY201999GA1021+012001061GF102991021051012501001001MA1999999101751MD1110051+9999MW1281REMSYN082AAXX  02221 10126 41630 20201 11072 21073 30175 40191 51005 72800 82500 333 82640;
0146101260999992010010222204+53550+007667FM-15+0012ETNT V0203501N001010066019N0035001N1-00901-00901999999ADDGA1071+006601999GF107991999999999999999999MA1101801999999MW1101MW2121REMMET065METAR ETNT 022220Z 35002KT 3500 MIFG BR BKN022 M09/M09 Q1018 YLO;
0187101260999992010010223004+53550+007667FM-12+0012ETNT V0200101N001012200019N0035001N1-00691-00701101891ADDAY101999AY201999GA1031+006601061GF103991031051008001001001MA1999999101741MD1010011+9999MW1111REMSYN082AAXX  02231 10126 41535 30101 11069 21070 30174 40189 50001 71100 83500 333 83622;
0146101260999992010010223204+53550+007667FM-15+0012ETNT V0203001N001010066019N0035001N1-00801-00801999999ADDGA1071+006601999GF107991999999999999999999MA1101801999999MW1101MW2121REMMET065METAR ETNT 022320Z 30002KT 3500 MIFG BR BKN022 M08/M08 Q1018 YLO;
0137101260999992010010300204+53550+007667FM-15+0012ETNT V0202901N000510048019N0070001N1-00601-00601999999ADDGA1071+004801999GF107991999999999999999999MA1101801999999MW1121REMMET062METAR ETNT 030020Z 29001KT 7000 MIFG BKN016 M06/M06 Q1018 WHT;
0159101260999992010010301004+53550+007667FM-12+0012ETNT V0202801N001010048019N0080001N1-00551-00561101881ADDGA1071+004801061GF107991071051004501999999MA1999999101731MD1710021+9999REMSYN076AAXX  03011 10126 42458 72801 11055 21056 30173 40188 57002 875// 333 87616;
0126101260999992010010301204+53550+007667FM-15+0012ETNT V0202701N001010066019N0080001N1-00501-00601999999ADDGA1071+006601999GF107991999999999999999999MA1101801999999REMMET057METAR ETNT 030120Z 27002KT 8000 BKN022 M05/M06 Q1018 WHT;
0159101260999992010010302004+53550+007667FM-12+0012ETNT V0202801N001010066019N0080001N1-00451-00461101911ADDGA1071+006601061GF107991071051008001999999MA1999999101761MD1210021+9999REMSYN076AAXX  03021 10126 42558 72801 11045 21046 30176 40191 52002 875// 333 87622;
0149101260999992010010302204+53550+007667FM-15+0012ETNT V0209999V000510111019N0080001N1-00401-00401999999ADDGA1041+006601999GA2071+011101999GF107991999999999999999999MA1101901999999REMMET064METAR ETNT 030220Z VRB01KT 8000 SCT022 BKN037 M04/M04 Q1019 BLU;
0149101260999992010010303204+53550+007667FM-15+0012ETNT V0200901N000510099019N0070001N1-00601-00601999999ADDGA1021+004801999GA2071+009901999GF107991999999999999999999MA1101901999999REMMET064METAR ETNT 030320Z 09001KT 7000 FEW016 BKN033 M06/M06 Q1019 WHT;
0187101260999992010010304004+53550+007667FM-12+0012ETNT V0200801N001012200019N0070001N1-00761-00791102001ADDAY111999AY211999GA1031+009901061GF103991031051012501001001MA1999999101841MD1210111+9999MW1101REMSYN082AAXX  03041 10126 41657 30801 11076 21079 30184 40200 52011 71011 83500 333 83633;
0135101260999992010010304204+53550+007667FM-15+0012ETNT V0209999V001010066019N0050001N1-00701-00701999999ADDGA1071+006601999GF107991999999999999999999MA1101901999999MW1101REMMET060METAR ETNT 030420Z VRB02KT 5000 BR BKN022 M07/M07 Q1019 WHT;
0187101260999992010010305004+53550+007667FM-12+0012ETNT V0201101N001010054019N0050001N1-00711-00731102031ADDAY111999AY211999GA1071+005401061GF107991071051004501999999MA1999999101871MD1210111+9999MW1101REMSYN082AAXX  03051 10126 41450 71101 11071 21073 30187 40203 52011 71011 875// 333 87618;
0158101260999992010010305204+53550+007667FM-15+0012ETNT V0201001N001010054019N0045001N1-00701-00701999999ADDGA1021+002701999GA2071+005401999GF107991999999999999999999MA1102001999999MW1101REMMET067METAR ETNT 030520Z 10002KT 4500 BR FEW009 BKN018 M07/M07 Q1020 GRN;
0168101260999992010010306204+53550+007667FM-15+0012ETNT V0203401N001010060019N0040001N1-00601-00601999999ADDGA1041+003601999GA2071+006001999GF107991999999999999999999MA1102001999999MW1101MW2711REMMET071METAR ETNT 030620Z 34002KT 4000 -SN BR SCT012 BKN020 M06/M06 Q1020 GRN;
0257101260999992010010307004+53550+007667FM-12+0012ETNT V0200101N002010060019N0045001N1-00631-00631102051ADDAY171999AY221999GA1041+002401071GA2071+006001061GF108991071051002501999999MA1999999101901MD1210061+9999MW1221REMSYN136AAXX  03071 10126 41345 80102 11063 21063 30190 40205 52006 72272 875// 333 84708 87620 555 BOT 11003 20003 30009 40027 50051 999 48///;
0150101260999992010010307204+53550+007667FM-15+0012ETNT V0200701N003612200019N0080001N1-00401-00401999999ADDGA1021+003001999GA2041+006001999GF104991999999999999999999MA1102001999999REMMET065METAR ETNT 030720Z 07007KT 8000 FEW010 SCT020 M04/M04 Q1020 BLU/;
0159101260999992010010308004+53550+007667FM-12+0012ETNT V0200501N003010111019N0100001N1-00361-00431102101ADDGA1061+011101061GF106991061051012501001001MA1999999101951MD1310081+9999REMSYN076AAXX  03081 10126 42660 60503 11036 21043 30195 40210 53008 86500 333 86637;
0126101260999992010010308204+53550+007667FM-15+0012ETNT V0200401N003110114019N0112651N1-00301-00401999999ADDGA1071+011401999GF107991999999999999999999MA1102101999999REMMET057METAR ETNT 030820Z 04006KT 9999 BKN038 M03/M04 Q1021 BLU;
0159101260999992010010309204+53550+007667FM-15+0012ETNT V0200401N003610036019N0090001N1-00301-00301999999ADDGA1071+003601999GA2071+013501999GF107991999999999999999999MA1102101999999MW1711REMMET068METAR ETNT 030920Z 04007KT 9000 -SN BKN012 BKN045 M03/M03 Q1021 GRN;
0187101260999992010010310004+53550+007667FM-12+0012ETNT V0200301N003010036019N0080001N1-00251-00361102221ADDAY171999AY271999GA1071+003601071GF107991071061004501999999MA1999999102071MD1210171+9999MW1711REMSYN082AAXX  03101 10126 41458 70303 11025 21036 30207 40222 52017 77177 876// 333 87712;
0159101260999992010010310204+53550+007667FM-15+0012ETNT V0200401N003610135019N0080001N1-00201-00401999999ADDGA1021+003001999GA2071+013501999GF107991999999999999999999MA1102201999999MW1711REMMET068METAR ETNT 031020Z 04007KT 8000 -SN FEW010 BKN045 M02/M04 Q1022 BLU;
0193101260999992010010311004+53550+007667FM-12+0012ETNT V0200401N004010060019N0120001N1-00211-00331102211ADDAY171999AY271999GA1021+002401081GF107991071081002501999999MA1999999102061MD1010111+9999MW1701REMSYN088AAXX  03111 10126 41362 70404 11021 21033 30206 40221 50011 77077 878// 333 82808 86620;
0159101260999992010010311204+53550+007667FM-15+0012ETNT V0200401N003110024019N0112651N1-00201-00301999999ADDGA1071+002401999GA2071+005401999GF107991999999999999999999MA1102101999999MW1711REMMET068METAR ETNT 031120Z 04006KT 9999 -SN BKN008 BKN018 M02/M03 Q1021 GRN;
0149101260999992010010311404+53550+007667FM-16+0012ETNT V0200501N002610066019N0112651N1-00201-00301999999ADDGA1021+002401999GA2071+006601999GF107991999999999999999999MA1102201999999REMMET064SPECI ETNT 031140Z 05005KT 9999 FEW008 BKN022 M02/M03 Q1022 WHT;
0149101260999992010010312204+53550+007667FM-15+0012ETNT V0200401N003110066019N0112651N1-00201-00401999999ADDGA1021+003001999GA2071+006601999GF107991999999999999999999MA1102201999999REMMET064METAR ETNT 031220Z 04006KT 9999 FEW010 BKN022 M02/M04 Q1022 WHT;
0165101260999992010010313004+53550+007667FM-12+0012ETNT V0200401N00301009001CN0120001N1-00181-00371102201ADDGA1011+003001081GF105991051081004501001001MA1999999102051MD1610021+9999REMSYN082AAXX  03131 10126 42462 50403 11018 21037 30205 40220 56002 85800 333 81810 84628;
0127101260999992010010313204+53550+007667FM-15+0012ETNT V0200401N002612200019N0112651N1-00201-00401999999ADDGA1021+002401999GF102991999999999999999999MA1102101999999REMMET058METAR ETNT 031320Z 04005KT 9999 FEW008 M02/M04 Q1021 BLU/;
0159101260999992010010314004+53550+007667FM-12+0012ETNT V0200701N00201002101CN0150001N1-00161-00401102201ADDGA1011+002401081GF105991051011002501001001MA1999999102051MD1610011+9999REMSYN076AAXX  03141 10126 42365 50702 11016 21040 30205 40220 56001 85100 333 81808;
0127101260999992010010314204+53550+007667FM-15+0012ETNT V0200801N001512200019N0112651N1-00201-00401999999ADDGA1021+012001999GF102991999999999999999999MA1102101999999REMMET058METAR ETNT 031420Z 08003KT 9999 FEW040 M02/M04 Q1021 BLU/;
0126101260999992010010315204+53550+007667FM-15+0012ETNT V0202201N001010090019N0112651N1-00501-00501999999ADDGA1071+009001999GF107991999999999999999999MA1102201999999REMMET057METAR ETNT 031520Z 22002KT 9999 BKN030 M05/M05 Q1022 BLU;
0193101260999992010010316004+53550+007667FM-12+0012ETNT V0202101N001012200019N0120001N1-00491-00561102211ADDAY111999AY211999GA1021+009001061GF104991021051008001001011MA1999999102061MD1010011+9999MW1111REMSYN088AAXX  03161 10126 41562 42101 11049 21056 30206 40221 50001 71111 82501 333 82630 83075;
0180101260999992010010316204+53550+007667FM-15+0012ETNT V0202501N001512200019N0005001N1-00501-00501999999ADDED199U07009GA1021+008401999GA2041+075001999GF104991999999999999999999MA1102201999999MW1481REMMET078METAR ETNT 031620Z 25003KT 0500 R08/0700 FZFG FEW028 SCT250 M05/M05 Q1022 RED;
0181101260999992010010316424+53550+007667FM-16+0012ETNT V0202601N002110750019N0112651N1-00701-00701999999ADDED199U04509GA1021+008401999GA2071+075001999GF107991999999999999999999MA1102201999999MW1121REMMET079SPECI ETNT 031642Z 26004KT 9999 R08/0450 MIFG FEW028 BKN250 M07/M07 Q1022 BLU/;
0193101260999992010010317004+53550+007667FM-12+0012ETNT V0202501N00201220001CN0120001N1-00701-00711102221ADDAY141999AY221999GA1011+008401061GF105991011051008001001011MA1999999102061MD1010011+9999MW1281REMSYN088AAXX  03171 10126 41562 52502 11070 21071 30206 40222 50001 72842 81501 333 81628 85075;
0158101260999992010010317204+53550+007667FM-15+0012ETNT V0202701N001510750019N0112651N1-00501-00501999999ADDED199U05009GA1071+075001999GF107991999999999999999999MA1102101999999MW1121REMMET072METAR ETNT 031720Z 27003KT 9999 R08/0500 MIFG BKN250 M05/M05 Q1021 BLU/;
0158101260999992010010318014+53550+007667FM-16+0012ETNT V0202201N001012200019N0004001N1-00901-00901999999ADDED199U15009GA1041+075001999GF104991999999999999999999MA1102201999999MW1481REMMET072SPECI ETNT 031801Z 22002KT 0400 R08/1500N FZFG SCT250 M09/M09 Q1022 RED;
0158101260999992010010318204+53550+007667FM-15+0012ETNT V0202501N001512200019N0003001N1-00901-00901999999ADDED199U03509GA1021+075001999GF102991999999999999999999MA1102101999999MW1481REMMET072METAR ETNT 031820Z 25003KT 0300 R08/0350N FZFG FEW250 M09/M09 Q1021 RED;
0171101260999992010010319004+53550+007667FM-12+0012ETNT V0202401N002012200019N0002001N1-00831-00841102211ADDAY141999AY201999GA1001+999999999GF100991001001999999001001MA1999999102051MD1810011+9999MW1481REMSYN066AAXX  03191 10126 41902 02402 11083 21084 30205 40221 58001 74840;
0098101260999992010010319204+53550+007667FM-15+0012ETNT V0202301N001012200019N0003001N1-00901-00901999999ADDMA1102101999999MW1481REMMET065METAR ETNT 031920Z 23002KT 0300 R26////// FZFG M09/M09 Q1021 RED;
0107101260999992010010319584+53550+007667FM-16+0012ETNT V0202201N001512200019N0016001N1-00901-00901999999ADDMA1102101999999MW1101MW2121REMMET068SPECI ETNT 031958Z 22003KT 1600 R26////// MIFG BR M09/M09 Q1021 YLO;
0171101260999992010010320004+53550+007667FM-12+0012ETNT V0202101N002012200019N0003001N1-00871-00881102201ADDAY141999AY241999GA1001+999999999GF100991001001999999001001MA1999999102041MD1810021+9999MW1481REMSYN066AAXX  03201 10126 41903 02102 11087 21088 30204 40220 58002 74844;
0135101260999992010010320204+53550+007667FM-15+0012ETNT V0202101N001512200019N0050001N1-00901-00901999999ADDGA1021+066001999GF102991999999999999999999MA1102101999999MW1101REMMET060METAR ETNT 032020Z 21003KT 5000 BR FEW220 M09/M09 Q1021 WHT;
0135101260999992010010321204+53550+007667FM-15+0012ETNT V0202001N001512200019N0040001N1-01001-01001999999ADDGA1041+066001999GF104991999999999999999999MA1102101999999MW1101REMMET060METAR ETNT 032120Z 20003KT 4000 BR SCT220 M10/M10 Q1021 GRN;
0187101260999992010010322004+53550+007667FM-12+0012ETNT V0202401N002012200019N0040001N1-00921-00941102181ADDAY141999AY211999GA1021+000151071GF102991021061000251001001MA1999999102021MD1710031+9999MW1281REMSYN082AAXX  03221 10126 41040 22402 11092 21094 30202 40218 57003 72841 82600 333 82700;
0146101260999992010010322204+53550+007667FM-15+0012ETNT V0202301N001510001519N0006001N1-00901-00901999999ADDGA1091+000151999GF109991999999000251999999MA1102101999999MW1491REMMET071METAR ETNT 032220Z 23003KT 0600 R26////// FZFG VV000 M09/M09 Q1021 RED;
0135101260999992010010322544+53550+007667FM-16+0012ETNT V0202101N001512200019N0020001N1-00901-00901999999ADDGA1021+000151999GF102991999999999999999999MA1102101999999MW1101REMMET060SPECI ETNT 032254Z 21003KT 2000 BR FEW000 M09/M09 Q1021 YLO;
0187101260999992010010323004+53550+007667FM-12+0012ETNT V0202201N002012200019N0020001N1-00871-00881102151ADDAY111999AY211999GA1021+000151071GF102991021061000251001001MA1999999101991MD1810051+9999MW1281REMSYN082AAXX  03231 10126 41020 22202 11087 21088 30199 40215 58005 72811 82600 333 82700;
0135101260999992010010323204+53550+007667FM-15+0012ETNT V0202101N001012200019N0040001N1-00901-00901999999ADDGA1021+000151999GF102991999999999999999999MA1102101999999MW1101REMMET060METAR ETNT 032320Z 21002KT 4000 BR FEW000 M09/M09 Q1021 GRN;
0126101260999992010010400204+53550+007667FM-15+0012ETNT V0202201N001510150019N0060001N1-00801-00801999999ADDGA1071+015001999GF107991999999999999999999MA1102001999999REMMET057METAR ETNT 040020Z 22003KT 6000 BKN050 M08/M08 Q1020 WHT;
0187101260999992010010401004+53550+007667FM-12+0012ETNT V0202101N002010150019N0050001N1-00761-00781102001ADDAY121999AY221999GA1071+015001061GF107991071051017501999999MA1999999101841MD1710181+9999MW1101REMSYN082AAXX  04011 10126 41750 72102 11076 21078 30184 40200 57018 71022 875// 333 87650;
0135101260999992010010401204+53550+007667FM-15+0012ETNT V0202301N001010150019N0050001N1-00701-00701999999ADDGA1071+015001999GF107991999999999999999999MA1101901999999MW1101REMMET060METAR ETNT 040120Z 23002KT 5000 BR BKN050 M07/M07 Q1019 WHT;
0187101260999992010010402004+53550+007667FM-12+0012ETNT V0202101N002010150019N0050001N1-00651-00681101951ADDAY121999AY221999GA1071+015001061GF108991071051017501999999MA1999999101801MD1710191+9999MW1711REMSYN082AAXX  04021 10126 41750 82102 11065 21068 30180 40195 57019 77122 875// 333 87650;
0145101260999992010010402204+53550+007667FM-15+0012ETNT V0202101N002110105019N0045001N1-00701-00701999999ADDGA1071+010501999GF107991999999999999999999MA1101901999999MW1101MW2711REMMET064METAR ETNT 040220Z 21004KT 4500 -SN BR BKN035 M07/M07 Q1019 GRN;
0135101260999992010010403204+53550+007667FM-15+0012ETNT V0202001N002110060019N0045001N1-00701-00701999999ADDGA1071+006001999GF107991999999999999999999MA1101801999999MW1101REMMET060METAR ETNT 040320Z 20004KT 4500 BR BKN020 M07/M07 Q1018 GRN;
0187101260999992010010404004+53550+007667FM-12+0012ETNT V0202001N003010060019N0045001N1-00691-00701101831ADDAY121999AY221999GA1071+006001061GF107991071051008001999999MA1999999101681MD1710161+9999MW1101REMSYN082AAXX  04041 10126 41545 72003 11069 21070 30168 40183 57016 71022 875// 333 87620;
0158101260999992010010404204+53550+007667FM-15+0012ETNT V0202001N002610210019N0050001N1-00601-00601999999ADDGA1041+006901999GA2071+021001999GF107991999999999999999999MA1101691999999MW1101REMMET067METAR ETNT 040420Z 20005KT 5000 BR SCT023 BKN070 M06/M06 Q1017 WHT;
0193101260999992010010405004+53550+007667FM-12+0012ETNT V0202201N00401030001CN0050001N1-00571-00571101741ADDAY121999AY221999GA1031+001801071GF107991031061001501031999MA1999999101591MD1710211+9999MW1101REMSYN088AAXX  04051 10126 41250 72204 11057 21057 30159 40174 57021 71022 8363/ 333 83706 87358;
0172101260999992010010405204+53550+007667FM-15+0012ETNT V0202201N003612200019N0050001N1-00601-00601999999ADDGA1021+001801999GA2041+024001999GF104991999999999999999999MA1101691999999MW1101REMMET081METAR ETNT 040520Z 22007KT 5000 BR FEW006 SCT080 M06/M06 Q1017 WHT WHT TEMPO YLO;
0140101260999992010010406204+53550+007667FM-15+0012ETNT V0202101N003612200019N0070001N1-00601-00601999999ADDGA1021+007501999GF102991999999999999999999MA1101591999999REMMET071METAR ETNT 040620Z 21007KT 7000 FEW025 M06/M06 Q1016 WHT WHT TEMPO YLO;
0257101260999992010010407004+53550+007667FM-12+0012ETNT V0202101N004010126019N0070001N1-00601-00601101621ADDAY111999AY211999GA1011+006901061GA2061+012601061GF106991061051008001001001MA1999999101471MD1610211+9999MW1101REMSYN136AAXX  04071 10126 41557 62104 11060 21060 30147 40162 56021 71011 86500 333 81623 86642 555 BOT 11008 20002 30009 40026 50049 999 48///;
0163101260999992010010407204+53550+007667FM-15+0012ETNT V0202101N004110060019N0060001N1-00501-00501999999ADDGA1021+001801999GA2071+006001999GF107991999999999999999999MA1101491999999REMMET078METAR ETNT 040720Z 21008KT 6000 FEW006 BKN020 M05/M05 Q1015 WHT WHT TEMPO YLO;
0193101260999992010010408004+53550+007667FM-12+0012ETNT V0202101N004010054019N0050001N1-00491-00511101531ADDAY121999AY221999GA1051+005401061GF107991071051004501999999MA1999999101381MD1810211+9999MW1101REMSYN088AAXX  04081 10126 41450 72104 11049 21051 30138 40153 58021 71022 875// 333 85618 87630;
0172101260999992010010408084+53550+007667FM-16+0012ETNT V0202101N004110015019N0050001N1-00501-00501999999ADDGA1071+001501999GA2071+005101999GF107991999999999999999999MA1101491999999MW1101REMMET081SPECI ETNT 040808Z 21008KT 5000 BR BKN005 BKN017 M05/M05 Q1015 YLO WHT TEMPO YLO;
0149101260999992010010408204+53550+007667FM-15+0012ETNT V0202101N004610015019N0045001N1-00501-00501999999ADDGA1071+001501999GF107991999999999999999999MA1101491999999MW1101REMMET074METAR ETNT 040820Z 21009KT 4500 BR BKN005 M05/M05 Q1015 YLO WHT TEMPO YLO;
0160101260999992010010409154+53550+007667FM-16+0012ETNT V0202201N005110018019N0025001N1-00401-00401999999ADDGA1071+001801999GF107991999999999999999999MA1101391999999MW1361MW2731REMMET079SPECI ETNT 040915Z 22010KT 2500 SN DRSN BKN006 M04/M04 Q1014 YLO WHT TEMPO YLO;
0150101260999992010010409204+53550+007667FM-15+0012ETNT V0202201N005110015019N0020001N1-00401-00401999999ADDGA1071+001501999GF107991999999999999999999MA1101391999999MW1361MW2731REMMET069METAR ETNT 040920Z 22010KT 2000 SN DRSN BKN005 M04/M04 Q1014 YLO YLO;
0170101260999992010010409264+53550+007667FM-16+0012ETNT V0202201N005110015019N0012001N1-00401-00401999999ADDGA1071+001501999GF107991999999999999999999MA1101391999999MW1361MW2731REMMET089SPECI ETNT 040926Z 22010KT 1200 R26////// SN DRSN BKN005 M04/M04 Q1014 AMB YLO TEMPO AMB;
0188101260999992010010409414+53550+007667FM-16+0012ETNT V0202101N005710021019N0030001N1-00401-00401999999ADDGA1071+002101999GA2071+006601999GF107991999999999999999999MA1101391999999MW1361MW2731REMMET091SPECI ETNT 040941Z 21011KT 3000 SN DRSN BKN007 BKN022 M04/M04 Q1014 BLACKYLO YLO TEMPO AMB;
0194101260999992010010409484+53550+007667FM-16+0012ETNT V0202101N005710018019N0040001N1-00401-00401999999ADDGA1071+001801999GA2071+006601999GF107991999999999999999999MA1101391999999MW1361MW2711REMMET097SPECI ETNT 040948Z 21011KT 4000 -SN DRSN BKN006 BKN022 M04/M04 Q1014 RESN BLACKYLO YLO TEMPO AMB;
0188101260999992010010409594+53550+007667FM-16+0012ETNT V0202101N005710018019N0025001N1-00401-00401999999ADDGA1071+001801999GA2071+006601999GF107991999999999999999999MA1101391999999MW1361MW2731REMMET091SPECI ETNT 040959Z 21011KT 2500 SN DRSN BKN006 BKN022 M04/M04 Q1014 BLACKYLO YLO TEMPO AMB;
0193101260999992010010410004+53550+007667FM-12+0012ETNT V0202101N006010018019N0040001N1-00401-00421101441ADDAY171011AY271011GA1051+001801071GF108991071051001501999999MA1999999101291MD1710181+9999MW1711REMSYN088AAXX  04101 10126 41240 82106 11040 21042 30129 40144 57018 77177 875// 333 85706 87622;
0188101260999992010010410204+53550+007667FM-15+0012ETNT V0202101N005710060019N0025001N1-00401-00401999999ADDGA1041+001801999GA2071+006001999GF107991999999999999999999MA1101291999999MW1361MW2731REMMET091METAR ETNT 041020Z 21011KT 2500 SN DRSN SCT006 BKN020 M04/M04 Q1013 BLACKYLO YLO TEMPO AMB;
0194101260999992010010410334+53550+007667FM-16+0012ETNT V0202101N005710018019N0040001N1-00401-00401999999ADDGA1071+001801999GA2071+005401999GF107991999999999999999999MA1101291999999MW1361MW2711REMMET097SPECI ETNT 041033Z 21011KT 4000 -SN DRSN BKN006 BKN018 M04/M04 Q1013 RESN BLACKYLO YLO TEMPO AMB;
0188101260999992010010410444+53550+007667FM-16+0012ETNT V0202101N005710054019N0035001N1-00401-00401999999ADDGA1041+001801999GA2071+005401999GF107991999999999999999999MA1101291999999MW1361MW2731REMMET091SPECI ETNT 041044Z 21011KT 3500 SN DRSN SCT006 BKN018 M04/M04 Q1013 RESN YLO YLO TEMPO AMB;
0193101260999992010010411004+53550+007667FM-12+0012ETNT V0202101N00501001201CN0035001N1-00361-00381101351ADDAY171999AY271999GA1031+001801071GF108991071051001501999999MA1999999101201MD1710181+9999MW1731REMSYN088AAXX  04111 10126 41235 82105 11036 21038 30120 40135 57018 77377 875// 333 83706 87618;
0183101260999992010010411034+53550+007667FM-16+0012ETNT V0202101N005710045019N0020001N1-00401-00401999999ADDGA1041+001501999GA2071+004501999GF107991999999999999999999MA1101291999999MW1361MW2731REMMET086SPECI ETNT 041103Z 21011KT 2000 SN DRSN SCT005 BKN015 M04/M04 Q1013 YLO YLO TEMPO AMB;
0183101260999992010010411204+53550+007667FM-15+0012ETNT V0202101N006210039019N0025001N1-00301-00301999999ADDGA1021+001501999GA2071+003901999GF107991999999999999999999MA1101291999999MW1361MW2731REMMET086METAR ETNT 041120Z 21012KT 2500 SN DRSN FEW005 BKN013 M03/M03 Q1013 YLO YLO TEMPO AMB;
0189101260999992010010411464+53550+007667FM-16+0012ETNT V0202201N004610030019N0045001N1-00301-00301999999ADDGA1021+001501999GA2071+003001999GF107991999999999999999999MA1101191999999MW1361MW2711REMMET092SPECI ETNT 041146Z 22009KT 4500 -SN DRSN FEW005 BKN010 M03/M03 Q1012 RESN GRN YLO TEMPO AMB;
0182101260999992010010412204+53550+007667FM-15+0012ETNT V0202201N004110030019N0035001N1-00301-00301999999ADDGA1041+001801999GA2071+003001999GF107991999999999999999999MA1101191999999MW1101MW2711REMMET085METAR ETNT 041220Z 22008KT 3500 -SN BR SCT006 BKN010 M03/M03 Q1012 YLO YLO TEMPO AMB;
0159101260999992010010412524+53550+007667FM-16+0012ETNT V0202301N003610021019N0045001N1-00301-00301999999ADDGA1071+002101999GF107991999999999999999999MA1101191999999MW1101MW2711REMMET078SPECI ETNT 041252Z 23007KT 4500 -SN BR BKN007 M03/M03 Q1012 GRN YLO TEMPO AMB;
0193101260999992010010413004+53550+007667FM-12+0012ETNT V0202201N00401001201CN0045001N1-00331-00331101211ADDAY171011AY271011GA1031+001801071GF108991071051001501999999MA1999999101061MD1710231+9999MW1701REMSYN088AAXX  04131 10126 41245 82204 11033 21033 30106 40121 57023 77077 875// 333 83706 87610;
0159101260999992010010413204+53550+007667FM-15+0012ETNT V0202201N003610015019N0045001N1-00201-00301999999ADDGA1071+001501999GF107991999999999999999999MA1101081999999MW1101MW2711REMMET078METAR ETNT 041320Z 22007KT 4500 -SN BR BKN005 M02/M03 Q1011 YLO YLO TEMPO AMB;
0187101260999992010010414004+53550+007667FM-12+0012ETNT V0202201N004010015019N0040001N1-00241-00301101151ADDAY171999AY221999GA1071+001501071GF108991071061001501999999MA1999999101001MD1710201+9999MW1221REMSYN082AAXX  04141 10126 41240 82204 11024 21030 30100 40115 57020 72272 876// 333 87705;
0149101260999992010010414204+53550+007667FM-15+0012ETNT V0202201N004110015019N0037001N1-00201-00201999999ADDGA1071+001501999GF107991999999999999999999MA1101081999999MW1101REMMET074METAR ETNT 041420Z 22008KT 3700 BR BKN005 M02/M02 Q1011 YLO YLO TEMPO AMB;
0158101260999992010010414344+53550+007667FM-16+0012ETNT V0202201N004110015019N0020001N1-00201-00201999999ADDGA1071+001501999GF107991999999999999999999MA1101081999999MW1101MW2731REMMET077SPECI ETNT 041434Z 22008KT 2000 SN BR BKN005 M02/M02 Q1011 YLO YLO TEMPO AMB;
0164101260999992010010414484+53550+007667FM-16+0012ETNT V0202201N004610015019N0035001N1-00201-00201999999ADDGA1071+001501999GF107991999999999999999999MA1101081999999MW1101MW2711REMMET083SPECI ETNT 041448Z 22009KT 3500 -SN BR BKN005 M02/M02 Q1011 RESN YLO YLO TEMPO AMB;
0154101260999992010010415204+53550+007667FM-15+0012ETNT V0202201N004110015019N0035001N1-00201-00201999999ADDGA1071+001501999GF107991999999999999999999MA1101081999999MW1101REMMET079METAR ETNT 041520Z 22008KT 3500 BR BKN005 M02/M02 Q1011 RESN YLO YLO TEMPO AMB;
0187101260999992010010416004+53550+007667FM-12+0012ETNT V0202201N005010015019N0035001N1-00231-00231101101ADDAY121999AY221999GA1071+001501071GF108991071061001501999999MA1999999100951MD1710111+9999MW1221REMSYN082AAXX  04161 10126 41235 82205 11023 21023 30095 40110 57011 72222 876// 333 87705;
0152101260999992010010416034+53550+007667FM-16+0012ETNT V0202201N004610012019N0035001N1-00201-00201999999ADDGA1071+001201999GF107991999999999999999999MA1101021999999MW1101REMMET077SPECI ETNT 041603Z 22009KT 3500 BR BKN004 M02/M02 Q1010 RESN YLO FCST CANCEL;
0135101260999992010010416204+53550+007667FM-15+0012ETNT V0202201N004110012019N0035001N1-00201-00201999999ADDGA1071+001201999GF107991999999999999999999MA1101021999999MW1101REMMET060METAR ETNT 041620Z 22008KT 3500 BR BKN004 M02/M02 Q1010 YLO;
0187101260999992010010417004+53550+007667FM-12+0012ETNT V0202201N004010012019N0035001N1-00191-00211101071ADDAY121999AY221999GA1071+001201071GF108991071061001501999999MA1999999100921MD1710081+9999MW1101REMSYN082AAXX  04171 10126 41235 82204 11019 21021 30092 40107 57008 71022 876// 333 87704;
0135101260999992010010417204+53550+007667FM-15+0012ETNT V0202101N004110009019N0035001N1-00201-00201999999ADDGA1071+000901999GF107991999999999999999999MA1101021999999MW1101REMMET060METAR ETNT 041720Z 21008KT 3500 BR BKN003 M02/M02 Q1010 YLO;
0135101260999992010010418204+53550+007667FM-15+0012ETNT V0202201N003610006019N0022001N1-00201-00201999999ADDGA1071+000601999GF107991999999999999999999MA1101021999999MW1101REMMET060METAR ETNT 041820Z 22007KT 2200 BR BKN002 M02/M02 Q1010 AMB;
0155101260999992010010418454+53550+007667FM-16+0012ETNT V0202101N004110006019N0015001N1-00201-00201999999ADDGA1071+000601999GF107991999999999999999999MA1101021999999MW1101MW2711REMMET074SPECI ETNT 041845Z 21008KT 1500 R26////// -SN BR BKN002 M02/M02 Q1010 AMB;
0187101260999992010010419004+53550+007667FM-12+0012ETNT V0202101N004010006019N0015001N1-00191-00191101011ADDAY171999AY221999GA1071+000601071GF108991071061000751999999MA1999999100861MD1710091+9999MW1711REMSYN082AAXX  04191 10126 41115 82104 11019 21019 30086 40101 57009 77172 876// 333 87702;
0147101260999992010010419204+53550+007667FM-15+0012ETNT V0202201N003610003019N0009001N1-00201-00201999999ADDGA1081+000301999GF108991999999999999999999MA1100911999999MW1481REMMET072METAR ETNT 041920Z 22007KT 0900 R26////// FZFG OVC001 M02/M02 Q1009 RED;
0181101260999992010010420004+53550+007667FM-12+0012ETNT V0202201N004010003019N0008001N1-00191-00191100981ADDAY171999AY241999GA1091+000301999GF109991091999999999999999MA1999999100831MD1710091+9999MW1471REMSYN076AAXX  04201 10126 41/08 92204 11019 21019 30083 40098 57009 74774 333 89/01;
0146101260999992010010420204+53550+007667FM-15+0012ETNT V0202201N004110003019N0005001N1-00201-00201999999ADDGA1091+000301999GF109991999999000251999999MA1100911999999MW1491REMMET071METAR ETNT 042020Z 22008KT 0500 R26////// FZFG VV001 M02/M02 Q1009 RED;
0146101260999992010010420424+53550+007667FM-16+0012ETNT V0202101N004610001519N0003001N1-00201-00201999999ADDGA1091+000151999GF109991999999000251999999MA1100911999999MW1491REMMET071SPECI ETNT 042042Z 21009KT 0300 R26////// FZFG VV000 M02/M02 Q1009 RED;
0146101260999992010010421204+53550+007667FM-15+0012ETNT V0202201N004110001519N0003001N1-00201-00201999999ADDGA1091+000151999GF109991999999000251999999MA1100911999999MW1491REMMET071METAR ETNT 042120Z 22008KT 0300 R26////// FZFG VV000 M02/M02 Q1009 RED;
0181101260999992010010422004+53550+007667FM-12+0012ETNT V0202201N005010001519N0003001N1-00171-00191100931ADDAY141999AY241999GA1091+000151999GF109991091999999999999999MA1999999100781MD1710081+9999MW1491REMSYN076AAXX  04221 10126 41/03 92205 11017 21019 30078 40093 57008 74944 333 89/00;
0146101260999992010010422204+53550+007667FM-15+0012ETNT V0202201N004110001519N0004001N1-00201-00201999999ADDGA1091+000151999GF109991999999000251999999MA1100911999999MW1491REMMET071METAR ETNT 042220Z 22008KT 0400 R26////// FZFG VV000 M02/M02 Q1009 RED;
0181101260999992010010423004+53550+007667FM-12+0012ETNT V0202201N004010001519N0004001N1-00211-00211100911ADDAY141999AY241999GA1091+000151999GF109991091999999999999999MA1999999100761MD1810071+9999MW1431REMSYN076AAXX  04231 10126 41/04 92204 11021 21021 30076 40091 58007 74344 333 89/00;
0146101260999992010010423204+53550+007667FM-15+0012ETNT V0202201N004110001519N0004001N1-00201-00201999999ADDGA1091+000151999GF109991999999000251999999MA1100811999999MW1491REMMET071METAR ETNT 042320Z 22008KT 0400 R26////// FZFG VV000 M02/M02 Q1008 RED;
0146101260999992010010500204+53550+007667FM-15+0012ETNT V0202201N003610001519N0003001N1-00201-00201999999ADDGA1091+000151999GF109991999999000251999999MA1100811999999MW1491REMMET071METAR ETNT 050020Z 22007KT 0300 R26////// FZFG VV000 M02/M02 Q1008 RED;
0181101260999992010010501004+53550+007667FM-12+0012ETNT V0202101N004010001519N0003001N1-00231-00231100801ADDAY141999AY241999GA1091+000151999GF109991091999999999999999MA1999999100651MD1710131+9999MW1471REMSYN076AAXX  05011 10126 41/03 92104 11023 21023 30065 40080 57013 74744 333 89/00;
0146101260999992010010501204+53550+007667FM-15+0012ETNT V0202101N004610001519N0003001N1-00201-00201999999ADDGA1091+000151999GF109991999999000251999999MA1100711999999MW1491REMMET071METAR ETNT 050120Z 21009KT 0300 R26////// FZFG VV000 M02/M02 Q1007 RED;
0181101260999992010010502004+53550+007667FM-12+0012ETNT V0202101N005010001519N0003001N1-00241-00241100761ADDAY141999AY241999GA1091+000151999GF109991091999999999999999MA1999999100611MD1610151+9999MW1451REMSYN076AAXX  05021 10126 41/03 92105 11024 21024 30061 40076 56015 74544 333 89/00;
0146101260999992010010502204+53550+007667FM-15+0012ETNT V0202101N005110001519N0003001N1-00201-00201999999ADDGA1091+000151999GF109991999999000251999999MA1100711999999MW1491REMMET071METAR ETNT 050220Z 21010KT 0300 R26////// FZFG VV000 M02/M02 Q1007 RED;
0146101260999992010010503014+53550+007667FM-16+0012ETNT V0202001N004110001519N0004001N1-00201-00201999999ADDGA1091+000151999GF109991999999000251999999MA1100611999999MW1491REMMET071SPECI ETNT 050301Z 20008KT 0400 R26////// FZFG VV000 M02/M02 Q1006 RED;
0146101260999992010010503204+53550+007667FM-15+0012ETNT V0202101N004110001519N0004001N1-00201-00201999999ADDGA1091+000151999GF109991999999000251999999MA1100611999999MW1491REMMET071METAR ETNT 050320Z 21008KT 0400 R26////// FZFG VV000 M02/M02 Q1006 RED;
0181101260999992010010504004+53550+007667FM-12+0012ETNT V0202001N004010003019N0004001N1-00241-00241100651ADDAY141999AY241999GA1091+000301999GF109991091999999999999999MA1999999100501MD1710151+9999MW1431REMSYN076AAXX  05041 10126 41/04 92004 11024 21024 30050 40065 57015 74344 333 89/01;
0160101260999992010010504034+53550+007667FM-16+0012ETNT V0202001N003610003019N0005001N1-00201-00201999999ADDGA1091+000301999GF109991999999000251999999MA1100611999999MW1491REMMET085SPECI ETNT 050403Z 20007KT 0500 R26////// FZFG VV001 M02/M02 Q1006 RED RED TEMPO AMB;
0169101260999992010010504204+53550+007667FM-15+0012ETNT V0202001N003610006019N0010001N1-00201-00201999999ADDGA1081+000601999GF108991999999999999999999MA1100611999999MW1101MW2711REMMET088METAR ETNT 050420Z 20007KT 1000 R26////// -SN BR OVC002 M02/M02 Q1006 AMB RED TEMPO AMB;
0170101260999992010010504594+53550+007667FM-16+0012ETNT V0202001N003610003019N0009001N1-00201-00201999999ADDGA1091+000301999GF109991999999000251999999MA1100511999999MW1491MW2711REMMET089SPECI ETNT 050459Z 20007KT 0900 R26////// -SN FZFG VV001 M02/M02 Q1005 RED RED TEMPO AMB;
0181101260999992010010505004+53550+007667FM-12+0012ETNT V0202001N004010003019N0009001N1-00231-00231100591ADDAY171999AY241999GA1091+000301999GF109991091999999999999999MA1999999100441MD1710171+9999MW1711REMSYN076AAXX  05051 10126 41/09 92004 11023 21023 30044 40059 57017 77174 333 89/01;
0168101260999992010010505204+53550+007667FM-15+0012ETNT V0202001N004110006019N0015001N1-00201-00201999999ADDGA1091+000601999GF109991999999000251999999MA1100511999999MW1101MW2711REMMET087METAR ETNT 050520Z 20008KT 1500 R26////// -SN BR VV002 M02/M02 Q1005 AMB RED TEMPO AMB;
0159101260999992010010506204+53550+007667FM-15+0012ETNT V0202001N003610006019N0020001N1-00201-00201999999ADDGA1071+000601999GF107991999999999999999999MA1100511999999MW1101MW2711REMMET078METAR ETNT 050620Z 20007KT 2000 -SN BR BKN002 M02/M02 Q1005 AMB RED TEMPO AMB;
0164101260999992010010506284+53550+007667FM-16+0012ETNT V0202001N003610006019N0020001N1-00201-00201999999ADDGA1071+000601999GF107991999999999999999999MA1100511999999MW1101MW2711REMMET083SPECI ETNT 050628Z 20007KT 2000 -SN BR BKN002 M02/M02 Q1005 BLACKAMB RED TEMPO AMB;
0235101260999992010010507004+53550+007667FM-12+0012ETNT V0202001N004010006019N0020001N1-00221-00221100491ADDAY171999AY271999GA1071+000601071GF108991071071000751999999MA1999999100341MD1710161+9999MW1711REMSYN130AAXX  05071 10126 41120 82004 11022 21022 30034 40049 57016 77177 877// 333 87702 555 BOT 11004 20002 30008 40025 50049 999 48///;
0164101260999992010010507204+53550+007667FM-15+0012ETNT V0202001N004110009019N0025001N1-00201-00201999999ADDGA1071+000901999GF107991999999999999999999MA1100411999999MW1101MW2711REMMET083METAR ETNT 050720Z 20008KT 2500 -SN BR BKN003 M02/M02 Q1004 BLACKYLO YLO TEMPO AMB;
0187101260999992010010508004+53550+007667FM-12+0012ETNT V0202101N005010009019N0028001N1-00181-00181100491ADDAY171999AY221999GA1071+000901071GF108991071061000751999999MA1999999100341MD1610101+9999MW1221REMSYN082AAXX  05081 10126 41128 82105 11018 21018 30034 40049 56010 72272 876// 333 87703;
0154101260999992010010508204+53550+007667FM-15+0012ETNT V0202001N004110009019N0028001N1-00201-00201999999ADDGA1071+000901999GF107991999999999999999999MA1100411999999MW1101REMMET079METAR ETNT 050820Z 20008KT 2800 BR BKN003 M02/M02 Q1004 BLACKYLO YLO TEMPO AMB;
0149101260999992010010509124+53550+007667FM-16+0012ETNT V0202001N004610009019N0025001N1-00101-00101999999ADDGA1071+000901999GF107991999999999999999999MA1100411999999MW1101REMMET074SPECI ETNT 050912Z 20009KT 2500 BR BKN003 M01/M01 Q1004 YLO YLO TEMPO AMB;
0149101260999992010010509204+53550+007667FM-15+0012ETNT V0202001N005110009019N0025001N1-00101-00101999999ADDGA1071+000901999GF107991999999999999999999MA1100411999999MW1101REMMET074METAR ETNT 050920Z 20010KT 2500 BR BKN003 M01/M01 Q1004 YLO YLO TEMPO AMB;
0267101260999992010010510004+53550+007667SY-MT+0012ETNT V0202101N00501000601CN0023001N1-00131-00131100461ADDAY121999AY221999GA1071+000601999GF108991071061000751999999MA1100411100311MD1610031+9999MW1101REMSYN082AAXX  05101 10126 41123 82105 11013 21013 30031 40046 56003 71022 876// 333 87703;MET074SPECI ETNT 051000Z 21009KT 2200 BR BKN002 M01/M01 Q1004 AMB YLO TEMPO AMB;
0149101260999992010010510204+53550+007667FM-15+0012ETNT V0202101N004610006019N0022001N1-00101-00101999999ADDGA1071+000601999GF107991999999999999999999MA1100411999999MW1101REMMET074METAR ETNT 051020Z 21009KT 2200 BR BKN002 M01/M01 Q1004 AMB YLO TEMPO AMB;
0187101260999992010010511004+53550+007667FM-12+0012ETNT V0202101N005010006019N0022001N1-00121-00121100431ADDAY121999AY221999GA1071+000601071GF108991071061000751999999MA1999999100281MD1610061+9999MW1101REMSYN082AAXX  05111 10126 41122 82105 11012 21012 30028 40043 56006 71022 876// 333 87702;
0149101260999992010010511204+53550+007667FM-15+0012ETNT V0202001N004610006019N0022001N1-00101-00101999999ADDGA1071+000601999GF107991999999999999999999MA1100311999999MW1101REMMET074METAR ETNT 051120Z 20009KT 2200 BR BKN002 M01/M01 Q1003 AMB YLO TEMPO AMB;
0149101260999992010010512204+53550+007667FM-15+0012ETNT V0202101N004610006019N0025001N1-00101-00101999999ADDGA1071+000601999GF107991999999999999999999MA1100311999999MW1101REMMET074METAR ETNT 051220Z 21009KT 2500 BR BKN002 M01/M01 Q1003 AMB YLO TEMPO AMB;
0187101260999992010010513004+53550+007667FM-12+0012ETNT V0202101N005010006019N0028001N1-00071-00071100341ADDAY121999AY221999GA1071+000601071GF108991071061000751999999MA1999999100191MD1710121+9999MW1101REMSYN082AAXX  05131 10126 41128 82105 11007 21007 30019 40034 57012 71022 876// 333 87702;
0149101260999992010010513204+53550+007667FM-15+0012ETNT V0202001N004610009019N0028001N1-00101-00101999999ADDGA1071+000901999GF107991999999999999999999MA1100311999999MW1101REMMET074METAR ETNT 051320Z 20009KT 2800 BR BKN003 M01/M01 Q1003 YLO YLO TEMPO AMB;
0187101260999992010010514004+53550+007667FM-12+0012ETNT V0202001N004010009019N0025001N1-00051-00051100321ADDAY171999AY221999GA1071+000901071GF108991071061000751999999MA1999999100171MD1710111+9999MW1711REMSYN082AAXX  05141 10126 41125 82004 11005 21005 30017 40032 57011 77172 876// 333 87703;
0159101260999992010010514204+53550+007667FM-15+0012ETNT V0202001N004110012019N0022001N1+00001+00001999999ADDGA1071+001201999GF107991999999999999999999MA1100201999999MW1101MW2711REMMET078METAR ETNT 051420Z 20008KT 2200 -SN BR BKN004 M00/M00 Q1002 YLO YLO TEMPO AMB;
0159101260999992010010515204+53550+007667FM-15+0012ETNT V0202001N004110009019N0022001N1+00001+00001999999ADDGA1071+000901999GF107991999999999999999999MA1100201999999MW1101MW2711REMMET078METAR ETNT 051520Z 20008KT 2200 -SN BR BKN003 M00/M00 Q1002 YLO YLO TEMPO AMB;
0187101260999992010010516004+53550+007667FM-12+0012ETNT V0202001N004010015019N0022001N1-00021-00031100301ADDAY171999AY271999GA1071+001501071GF108991071061001501999999MA1999999100151MD1610041+9999MW1711REMSYN082AAXX  05161 10126 41222 82004 11002 21003 30015 40030 56004 77177 876// 333 87705;
0157101260999992010010516204+53550+007667FM-15+0012ETNT V0201901N003110015019N0022001N1+00001+00001999999ADDGA1071+001501999GF107991999999999999999999MA1100201999999MW1101MW2711REMMET076METAR ETNT 051620Z 19006KT 2200 -SN BR BKN005 M00/M00 Q1002 YLO FCST CANCEL;
0187101260999992010010517004+53550+007667FM-12+0012ETNT V0202001N004010012019N0025001N1-00021-00031100271ADDAY171999AY271999GA1071+001201071GF108991071061001501999999MA1999999100121MD1710061+9999MW1711REMSYN082AAXX  05171 10126 41225 82004 11002 21003 30012 40027 57006 77177 876// 333 87704;
0145101260999992010010517204+53550+007667FM-15+0012ETNT V0202001N003610012019N0025001N1+00001+00001999999ADDGA1071+001201999GF107991999999999999999999MA1100201999999MW1101MW2711REMMET064METAR ETNT 051720Z 20007KT 2500 -SN BR BKN004 M00/M00 Q1002 YLO;
0135101260999992010010518204+53550+007667FM-15+0012ETNT V0202001N003110012019N0025001N1+00001+00001999999ADDGA1071+001201999GF107991999999999999999999MA1100201999999MW1101REMMET060METAR ETNT 051820Z 20006KT 2500 BR BKN004 M00/M00 Q1002 YLO;
0187101260999992010010519004+53550+007667FM-12+0012ETNT V0201901N004010012019N0025001N1-00011-00031100281ADDAY121999AY221999GA1071+001201071GF108991071061001501999999MA1999999100131MD1510021+9999MW1221REMSYN082AAXX  05191 10126 41225 81904 11001 21003 30013 40028 55002 72222 876// 333 87704;
0135101260999992010010519204+53550+007667FM-15+0012ETNT V0202001N003110012019N0030001N1+00001+00001999999ADDGA1071+001201999GF107991999999999999999999MA1100201999999MW1101REMMET060METAR ETNT 051920Z 20006KT 3000 BR BKN004 M00/M00 Q1002 YLO;
0135101260999992010010519364+53550+007667FM-16+0012ETNT V0202001N003610015019N0037001N1+00001+00001999999ADDGA1071+001501999GF107991999999999999999999MA1100201999999MW1101REMMET060SPECI ETNT 051936Z 20007KT 3700 BR BKN005 M00/M00 Q1002 YLO;
0187101260999992010010520004+53550+007667FM-12+0012ETNT V0202001N004010015019N0037001N1-00011-00031100281ADDAY121999AY221999GA1071+001501071GF108991071061001501999999MA1999999100131MD1310011+9999MW1101REMSYN082AAXX  05201 10126 41237 82004 11001 21003 30013 40028 53001 71022 876// 333 87705;
0135101260999992010010520204+53550+007667FM-15+0012ETNT V0202101N004110012019N0035001N1+00001+00001999999ADDGA1071+001201999GF107991999999999999999999MA1100201999999MW1101REMMET060METAR ETNT 052020Z 21008KT 3500 BR BKN004 M00/M00 Q1002 YLO;
0145101260999992010010521204+53550+007667FM-15+0012ETNT V0202101N004110012019N0025001N1+00001+00001999999ADDGA1071+001201999GF107991999999999999999999MA1100201999999MW1101MW2711REMMET064METAR ETNT 052120Z 21008KT 2500 -SN BR BKN004 M00/M00 Q1002 YLO;
0187101260999992010010522004+53550+007667FM-12+0012ETNT V0202101N004010012019N0025001N1-00071-00101100261ADDAY121999AY221999GA1071+001201071GF108991071061001501999999MA1999999100111MD1610021+9999MW1221REMSYN082AAXX  05221 10126 41225 82104 11007 21010 30011 40026 56002 72222 876// 333 87704;
0135101260999992010010522204+53550+007667FM-15+0012ETNT V0202101N004110012019N0025001N1-00101-00101999999ADDGA1071+001201999GF107991999999999999999999MA1100201999999MW1101REMMET060METAR ETNT 052220Z 21008KT 2500 BR BKN004 M01/M01 Q1002 YLO;
0187101260999992010010523004+53550+007667FM-12+0012ETNT V0202101N004010012019N0025001N1-00071-00111100241ADDAY121999AY221999GA1071+001201071GF108991071061001501999999MA1999999100091MD1810041+9999MW1101REMSYN082AAXX  05231 10126 41225 82104 11007 21011 30009 40024 58004 71022 876// 333 87704;
0135101260999992010010523204+53550+007667FM-15+0012ETNT V0202101N004110012019N0025001N1-00101-00101999999ADDGA1071+001201999GF107991999999999999999999MA1100201999999MW1101REMMET060METAR ETNT 052320Z 21008KT 2500 BR BKN004 M01/M01 Q1002 YLO;
0135101260999992010010600204+53550+007667FM-15+0012ETNT V0202101N003610015019N0030001N1-00101-00101999999ADDGA1071+001501999GF107991999999999999999999MA1100101999999MW1101REMMET060METAR ETNT 060020Z 21007KT 3000 BR BKN005 M01/M01 Q1001 YLO;
0187101260999992010010601004+53550+007667FM-12+0012ETNT V0202101N003010015019N0030001N1-00131-00131100201ADDAY121999AY221999GA1071+001501071GF108991071061001501999999MA1999999100051MD1610061+9999MW1101REMSYN082AAXX  06011 10126 41230 82103 11013 21013 30005 40020 56006 71022 876// 333 87705;
0135101260999992010010601204+53550+007667FM-15+0012ETNT V0202001N003110015019N0030001N1-00101-00101999999ADDGA1071+001501999GF107991999999999999999999MA1100101999999MW1101REMMET060METAR ETNT 060120Z 20006KT 3000 BR BKN005 M01/M01 Q1001 YLO;
0187101260999992010010602004+53550+007667FM-12+0012ETNT V0202001N004010015019N0030001N1-00141-00191100181ADDAY121999AY221999GA1071+001501071GF108991071061001501999999MA1999999100031MD1810061+9999MW1101REMSYN082AAXX  06021 10126 41230 82004 11014 21019 30003 40018 58006 71022 876// 333 87705;
0135101260999992010010602204+53550+007667FM-15+0012ETNT V0202001N003610012019N0025001N1-00201-00201999999ADDGA1071+001201999GF107991999999999999999999MA1100101999999MW1101REMMET060METAR ETNT 060220Z 20007KT 2500 BR BKN004 M02/M02 Q1001 YLO;
0135101260999992010010603204+53550+007667FM-15+0012ETNT V0202001N003610012019N0025001N1-00201-00201999999ADDGA1071+001201999GF107991999999999999999999MA1100101999999MW1101REMMET060METAR ETNT 060320Z 20007KT 2500 BR BKN004 M02/M02 Q1001 YLO;
0187101260999992010010604004+53550+007667FM-12+0012ETNT V0202001N004010012019N0025001N1-00211-00241100161ADDAY121999AY221999GA1071+001201071GF108991071061001501999999MA1999999100011MD1810041+9999MW1101REMSYN082AAXX  06041 10126 41225 82004 11021 21024 30001 40016 58004 71022 876// 333 87704;
0135101260999992010010604204+53550+007667FM-15+0012ETNT V0202001N003610009019N0020001N1-00201-00201999999ADDGA1071+000901999GF107991999999999999999999MA1100101999999MW1101REMMET060METAR ETNT 060420Z 20007KT 2000 BR BKN003 M02/M02 Q1001 YLO;
0187101260999992010010605004+53550+007667FM-12+0012ETNT V0202101N004010009019N0025001N1-00231-00231100181ADDAY121999AY221999GA1071+000901071GF108991071061000751999999MA1999999100031MD1510001+9999MW1101REMSYN082AAXX  06051 10126 41125 82104 11023 21023 30003 40018 55000 71022 876// 333 87703;
0149101260999992010010605204+53550+007667FM-15+0012ETNT V0202101N003110006019N0020001N1-00201-00201999999ADDGA1071+000601999GF107991999999999999999999MA1100101999999MW1101REMMET074METAR ETNT 060520Z 21006KT 2000 BR BKN002 M02/M02 Q1001 AMB YLO TEMPO AMB;
0159101260999992010010605294+53550+007667FM-16+0012ETNT V0202101N003110003019N0015001N1-00201-00201999999ADDGA1081+000301999GF108991999999999999999999MA1100101999999MW1101REMMET084SPECI ETNT 060529Z 21006KT 1500 R26////// BR OVC001 M02/M02 Q1001 RED YLO TEMPO RED;
0159101260999992010010606204+53550+007667FM-15+0012ETNT V0202001N003610003019N0015001N1-00201-00201999999ADDGA1071+000301999GF107991999999999999999999MA1100101999999MW1101REMMET084METAR ETNT 060620Z 20007KT 1500 R26////// BR BKN001 M02/M02 Q1001 RED YLO TEMPO RED;
0181101260999992010010607004+53550+007667FM-12+0012ETNT V0202001N004010001519N0009001N1-00231-00231100181ADDAY141999AY221999GA1091+000151999GF109991091999999999999999MA1999999100031MD1110021+9999MW1471REMSYN076AAXX  06071 10126 41/09 92004 11023 21023 30003 40018 51002 74742 333 89/00;
0160101260999992010010607064+53550+007667FM-16+0012ETNT V0202101N003610001519N0007001N1-00201-00201999999ADDGA1091+000151999GF109991999999000251999999MA1100101999999MW1491REMMET085SPECI ETNT 060706Z 21007KT 0700 R26////// FZFG VV000 M02/M02 Q1001 RED AMB TEMPO RED;
0150101260999992010010607204+53550+007667FM-15+0012ETNT V0201901N003610001519N0004001N1-00201-00201999999ADDGA1091+000151999GF109991999999000251999999MA1100201999999MW1491REMMET075METAR ETNT 060720Z 19007KT 0400 R26////// FZFG VV000 M02/M02 Q1002 RED RED;
0181101260999992010010608004+53550+007667FM-12+0012ETNT V0202001N004010001519N0004001N1-00291-00291100221ADDAY141999AY241999GA1091+000151999GF109991091999999999999999MA1999999100071MD1210041+9999MW1491REMSYN076AAXX  06081 10126 41/04 92004 11029 21029 30007 40022 52004 74944 333 89/00;
0150101260999992010010608204+53550+007667FM-15+0012ETNT V0202001N003610001519N0004001N1-00301-00301999999ADDGA1091+000151999GF109991999999000251999999MA1100201999999MW1491REMMET075METAR ETNT 060820Z 20007KT 0400 R26////// FZFG VV000 M03/M03 Q1002 RED RED;
0149101260999992010010609204+53550+007667FM-15+0012ETNT V0202001N003610003019N0012001N1-00201-00201999999ADDGA1071+000301999GF107991999999999999999999MA1100201999999MW1101REMMET074METAR ETNT 060920Z 20007KT 1200 R26////// BR BKN001 M02/M02 Q1002 RED RED;
0149101260999992010010609394+53550+007667FM-16+0012ETNT V0202001N003610006019N0018001N1-00201-00201999999ADDGA1071+000601999GF107991999999999999999999MA1100201999999MW1101REMMET074SPECI ETNT 060939Z 20007KT 1800 R26////// BR BKN002 M02/M02 Q1002 AMB AMB;
0149101260999992010010609554+53550+007667FM-16+0012ETNT V0202001N003110009019N0020001N1-00201-00201999999ADDGA1071+000901999GF107991999999999999999999MA1100201999999MW1101REMMET074SPECI ETNT 060955Z 20006KT 2000 BR BKN003 M02/M02 Q1002 YLO AMB TEMPO YLO;
0187101260999992010010610004+53550+007667FM-12+0012ETNT V0202001N003010006019N0020001N1-00221-00221100281ADDAY141011AY221011GA1071+000601071GF107991071061000751999999MA1999999100131MD1210101+9999MW1281REMSYN082AAXX  06101 10126 41120 72003 11022 21022 30013 40028 52010 72842 876// 333 87702;
0172101260999992010010610204+53550+007667FM-15+0012ETNT V0202001N002610009019N0025001N1-00201-00201999999ADDGA1071+000901999GA2071+003901999GF107991999999999999999999MA1100201999999MW1101REMMET081METAR ETNT 061020Z 20005KT 2500 BR BKN003 BKN013 M02/M02 Q1002 YLO AMB TEMPO YLO;
0182101260999992010010610544+53550+007667FM-16+0012ETNT V0202001N003110030019N0028001N1-00201-00201999999ADDGA1041+000901999GA2071+003001999GF107991999999999999999999MA1100201999999MW1101MW2711REMMET085SPECI ETNT 061054Z 20006KT 2800 -SN BR SCT003 BKN010 M02/M02 Q1002 YLO AMB TEMPO YLO;
0193101260999992010010611004+53550+007667FM-12+0012ETNT V0201901N00301000601CN0028001N1-00211-00221100251ADDAY121999AY221999GA1031+000901071GF107991071051000751999999MA1999999100101MD1010031+9999MW1711REMSYN088AAXX  06111 10126 41128 71903 11021 21022 30010 40025 50003 77122 875// 333 83703 87610;
0172101260999992010010611204+53550+007667FM-15+0012ETNT V0202001N003610027019N0035001N1-00201-00201999999ADDGA1021+001801999GA2071+002701999GF107991999999999999999999MA1100201999999MW1101REMMET081METAR ETNT 061120Z 20007KT 3500 BR FEW006 BKN009 M02/M02 Q1002 YLO YLO TEMPO AMB;
0172101260999992010010611314+53550+007667FM-16+0012ETNT V0202101N003610027019N0045001N1-00201-00201999999ADDGA1021+001801999GA2071+002701999GF107991999999999999999999MA1100201999999MW1101REMMET081SPECI ETNT 061131Z 21007KT 4500 BR FEW006 BKN009 M02/M02 Q1002 GRN YLO TEMPO GRN;
0163101260999992010010611484+53550+007667FM-16+0012ETNT V0202001N003110030019N0060001N1-00201-00201999999ADDGA1021+001801999GA2071+003001999GF107991999999999999999999MA1100201999999REMMET078SPECI ETNT 061148Z 20006KT 6000 FEW006 BKN010 M02/M02 Q1002 GRN YLO TEMPO GRN;
0172101260999992010010612204+53550+007667FM-15+0012ETNT V0202001N003610030019N0050001N1-00201-00201999999ADDGA1071+003001999GA2071+004201999GF107991999999999999999999MA1100101999999MW1101REMMET081METAR ETNT 061220Z 20007KT 5000 BR BKN010 BKN014 M02/M02 Q1001 GRN YLO TEMPO GRN;
0187101260999992010010613004+53550+007667FM-12+0012ETNT V0202101N004010027019N0060001N1-00131-00251100221ADDAY121999AY221999GA1071+002701071GF107991071061002501999999MA1999999100071MD1610061+9999MW1101REMSYN082AAXX  06131 10126 41356 72104 11013 21025 30007 40022 56006 71022 876// 333 87709;
0149101260999992010010613204+53550+007667FM-15+0012ETNT V0202001N003610024019N0050001N1-00101-00301999999ADDGA1071+002401999GF107991999999999999999999MA1100201999999MW1101REMMET074METAR ETNT 061320Z 20007KT 5000 BR BKN008 M01/M03 Q1002 GRN YLO TEMPO GRN;
0187101260999992010010614004+53550+007667FM-12+0012ETNT V0202001N004010021019N0050001N1-00121-00251100211ADDAY121999AY221999GA1071+002101071GF107991071061002501999999MA1999999100061MD1710041+9999MW1101REMSYN082AAXX  06141 10126 41350 72004 11012 21025 30006 40021 57004 71022 876// 333 87707;
0149101260999992010010614204+53550+007667FM-15+0012ETNT V0202101N003110021019N0050001N1-00101-00201999999ADDGA1071+002101999GF107991999999999999999999MA1100201999999MW1101REMMET074METAR ETNT 061420Z 21006KT 5000 BR BKN007 M01/M02 Q1002 GRN YLO TEMPO GRN;
0162101260999992010010615024+53550+007667FM-16+0012ETNT V0202001N003110015019N0045001N1-00101-00201999999ADDGA1071+001501999GA2071+002101999GF107991999999999999999999MA1100201999999MW1101REMMET071SPECI ETNT 061502Z 20006KT 4500 BR BKN005 BKN007 M01/M02 Q1002 YLO YLO;
0162101260999992010010615204+53550+007667FM-15+0012ETNT V0202001N002610015019N0045001N1-00101-00201999999ADDGA1071+001501999GA2071+002101999GF107991999999999999999999MA1100201999999MW1101REMMET071METAR ETNT 061520Z 20005KT 4500 BR BKN005 BKN007 M01/M02 Q1002 YLO YLO;
0170101260999992010010615584+53550+007667FM-16+0012ETNT V0201901N003110021019N0045001N1-00101-00201999999ADDGA1041+001501999GA2071+002101999GF107991999999999999999999MA1100201999999MW1101REMMET079SPECI ETNT 061558Z 19006KT 4500 BR SCT005 BKN007 M01/M02 Q1002 GRN FCST CANCEL;
0193101260999992010010616004+53550+007667FM-12+0012ETNT V0201901N00301001201CN0045001N1-00151-00241100281ADDAY121011AY221011GA1031+001501071GF107991071061001501999999MA1999999100131MD1310061+9999MW1101REMSYN088AAXX  06161 10126 41245 71903 11015 21024 30013 40028 53006 71022 876// 333 83705 87707;
0145101260999992010010616204+53550+007667FM-15+0012ETNT V0202001N002610024019N0045001N1-00201-00201999999ADDGA1071+002401999GF107991999999999999999999MA1100201999999MW1101MW2711REMMET064METAR ETNT 061620Z 20005KT 4500 -SN BR BKN008 M02/M02 Q1002 GRN;
0187101260999992010010617004+53550+007667FM-12+0012ETNT V0201801N003010024019N0045001N1-00191-00261100311ADDAY171999AY221999GA1071+002401071GF107991071061002501999999MA1999999100161MD1210101+9999MW1711REMSYN082AAXX  06171 10126 41345 71803 11019 21026 30016 40031 52010 77172 876// 333 87708;
0145101260999992010010617204+53550+007667FM-15+0012ETNT V0201701N002610024019N0045001N1-00201-00301999999ADDGA1071+002401999GF107991999999999999999999MA1100311999999MW1101MW2711REMMET064METAR ETNT 061720Z 17005KT 4500 -SN BR BKN008 M02/M03 Q1003 GRN;
0145101260999992010010618204+53550+007667FM-15+0012ETNT V0201701N003110021019N0035001N1-00201-00301999999ADDGA1071+002101999GF107991999999999999999999MA1100311999999MW1101MW2711REMMET064METAR ETNT 061820Z 17006KT 3500 -SN BR BKN007 M02/M03 Q1003 YLO;
0187101260999992010010619004+53550+007667FM-12+0012ETNT V0201801N003010021019N0035001N1-00231-00291100371ADDAY171999AY271999GA1071+002101071GF107991071061002501999999MA1999999100221MD1210091+9999MW1711REMSYN082AAXX  06191 10126 41335 71803 11023 21029 30022 40037 52009 77177 876// 333 87707;
0145101260999992010010619204+53550+007667FM-15+0012ETNT V0201801N003110021019N0035001N1-00201-00201999999ADDGA1071+002101999GF107991999999999999999999MA1100311999999MW1101MW2711REMMET064METAR ETNT 061920Z 18006KT 3500 -SN BR BKN007 M02/M02 Q1003 YLO;
0187101260999992010010620004+53550+007667FM-12+0012ETNT V0201801N003010021019N0035001N1-00241-00241100401ADDAY171999AY271999GA1071+002101071GF107991071061002501999999MA1999999100251MD1210091+9999MW1711REMSYN082AAXX  06201 10126 41335 71803 11024 21024 30025 40040 52009 77177 876// 333 87707;
0145101260999992010010620204+53550+007667FM-15+0012ETNT V0201801N002610021019N0040001N1-00201-00201999999ADDGA1071+002101999GF107991999999999999999999MA1100411999999MW1101MW2711REMMET064METAR ETNT 062020Z 18005KT 4000 -SN BR BKN007 M02/M02 Q1004 GRN;
0168101260999992010010621204+53550+007667FM-15+0012ETNT V0201401N002610021019N0040001N1-00201-00201999999ADDGA1071+002101999GA2071+003301999GF107991999999999999999999MA1100411999999MW1101MW2711REMMET071METAR ETNT 062120Z 14005KT 4000 -SN BR BKN007 BKN011 M02/M02 Q1004 GRN;
0187101260999992010010622004+53550+007667FM-12+0012ETNT V0201401N003010021019N0040001N1-00251-00261100461ADDAY171999AY271999GA1071+002101071GF107991071061002501999999MA1999999100311MD1210091+9999MW1711REMSYN082AAXX  06221 10126 41340 71403 11025 21026 30031 40046 52009 77177 876// 333 87707;
0168101260999992010010622204+53550+007667FM-15+0012ETNT V0201501N003110039019N0040001N1-00201-00201999999ADDGA1041+002101999GA2071+003901999GF107991999999999999999999MA1100411999999MW1101MW2711REMMET071METAR ETNT 062220Z 15006KT 4000 -SN BR SCT007 BKN013 M02/M02 Q1004 GRN;
0193101260999992010010623004+53550+007667FM-12+0012ETNT V0201601N00301002101CN0040001N1-00251-00281100501ADDAY171999AY271999GA1031+002101071GF107991071051002501999999MA1999999100351MD1210101+9999MW1711REMSYN088AAXX  06231 10126 41340 71603 11025 21028 30035 40050 52010 77177 875// 333 83707 87613;
0168101260999992010010623204+53550+007667FM-15+0012ETNT V0201401N002610018019N0025001N1-00201-00201999999ADDGA1071+001801999GA2071+003901999GF107991999999999999999999MA1100511999999MW1101MW2711REMMET071METAR ETNT 062320Z 14005KT 2500 -SN BR BKN006 BKN013 M02/M02 Q1005 YLO;
0145101260999992010010700204+53550+007667FM-15+0012ETNT V0201401N002610021019N0035001N1-00301-00301999999ADDGA1071+002101999GF107991999999999999999999MA1100511999999MW1101MW2711REMMET064METAR ETNT 070020Z 14005KT 3500 -SN BR BKN007 M03/M03 Q1005 YLO;
0187101260999992010010701004+53550+007667FM-12+0012ETNT V0201501N002010027019N0035001N1-00291-00301100551ADDAY171999AY271999GA1071+002701071GF107991071061002501999999MA1999999100401MD1210091+9999MW1731REMSYN082AAXX  07011 10126 41335 71502 11029 21030 30040 40055 52009 77377 876// 333 87709;
0144101260999992010010701204+53550+007667FM-15+0012ETNT V0201401N002110018019N0030001N1-00301-00301999999ADDGA1071+001801999GF107991999999999999999999MA1100511999999MW1101MW2731REMMET063METAR ETNT 070120Z 14004KT 3000 SN BR BKN006 M03/M03 Q1005 YLO;
0187101260999992010010702004+53550+007667FM-12+0012ETNT V0201301N002010015019N0018001N1-00291-00301100601ADDAY171999AY271999GA1071+001501071GF107991071061001501999999MA1999999100451MD1210101+9999MW1731REMSYN082AAXX  07021 10126 41218 71302 11029 21030 30045 40060 52010 77377 876// 333 87705;
0159101260999992010010702014+53550+007667FM-16+0012ETNT V0201501N002110015019N0010001N1-00301-00301999999ADDGA1071+001501999GF107991999999999999999999MA1100611999999MW1101MW2731REMMET078SPECI ETNT 070201Z 15004KT 1000 R26////// SN BR BKN005 M03/M03 Q1006 BLACKAMB;
0161101260999992010010702204+53550+007667FM-15+0012ETNT V0201601N002610012019N0008001N1-00301-00301999999ADDGA1071+001201999GF107991999999999999999999MA1100611999999MW1481MW2731REMMET080METAR ETNT 070220Z 16005KT 0800 R26////// SN FZFG BKN004 M03/M03 Q1006 BLACKAMB;
0161101260999992010010703204+53550+007667FM-15+0012ETNT V0201101N001510012019N0008001N1-00301-00301999999ADDGA1071+001201999GF107991999999999999999999MA1100611999999MW1481MW2731REMMET080METAR ETNT 070320Z 11003KT 0800 R26////// SN FZFG BKN004 M03/M03 Q1006 BLACKAMB;
0193101260999992010010704004+53550+007667FM-12+0012ETNT V0200901N002010015019N0008001N1-00351-00351100651ADDAY171999AY271999GA1051+001501071GF108991071051001501999999MA1999999100501MD1210101+9999MW1731REMSYN088AAXX  07041 10126 41208 80902 11035 21035 30050 40065 52010 77377 875// 333 85705 87621;
0182101260999992010010704134+53550+007667FM-16+0012ETNT V0201001N002110063019N0015001N1-00301-00301999999ADDGA1041+001501999GA2071+006301999GF107991999999999999999999MA1100611999999MW1101MW2731REMMET085SPECI ETNT 070413Z 10004KT 1500 R26////// SN BR SCT005 BKN021 M03/M03 Q1006 BLACKAMB;
0182101260999992010010704204+53550+007667FM-15+0012ETNT V0201001N002110063019N0015001N1-00301-00301999999ADDGA1041+001501999GA2071+006301999GF107991999999999999999999MA1100611999999MW1101MW2731REMMET085METAR ETNT 070420Z 10004KT 1500 R26////// SN BR SCT005 BKN021 M03/M03 Q1006 BLACKAMB;
0193101260999992010010705004+53550+007667FM-12+0012ETNT V0201001N00201001201CN0015001N1-00381-00391100721ADDAY171999AY271999GA1041+001801071GF108991071051001501999999MA1999999100571MD1210121+9999MW1731REMSYN088AAXX  07051 10126 41215 81002 11038 21039 30057 40072 52012 77377 875// 333 84706 87620;
0192101260999992010010705204+53550+007667FM-15+0012ETNT V0201101N002110045019N0020001N1-00401-00401999999ADDGA1041+001801999GA2071+004501999GF107991999999999999999999MA1100711999999MW1101MW2711REMMET095METAR ETNT 070520Z 11004KT 2000 -SN BR SCT006 BKN015 M04/M04 Q1007 RESN BLACKYLO YLO TEMPO AMB;
0186101260999992010010706204+53550+007667FM-15+0012ETNT V0201001N002610018019N0025001N1-00401-00401999999ADDGA1071+001801999GA2071+004801999GF107991999999999999999999MA1100711999999MW1101MW2731REMMET089METAR ETNT 070620Z 10005KT 2500 SN BR BKN006 BKN016 M04/M04 Q1007 BLACKYLO YLO TEMPO AMB;
0193101260999992010010707004+53550+007667FM-12+0012ETNT V0200901N00301001201CN0025001N1-00441-00441100821ADDAY171999AY271999GA1031+001801071GF108991071051001501999999MA1999999100671MD1210171+9999MW1711REMSYN088AAXX  07071 10126 41225 80903 11044 21044 30067 40082 52017 77177 875// 333 83706 87617;
0192101260999992010010707204+53550+007667FM-15+0012ETNT V0201001N002610018019N0025001N1-00401-00401999999ADDGA1071+001801999GA2071+004801999GF107991999999999999999999MA1100811999999MW1101MW2711REMMET095METAR ETNT 070720Z 10005KT 2500 -SN BR BKN006 BKN016 M04/M04 Q1008 RESN BLACKYLO YLO TEMPO AMB;
0193101260999992010010708004+53550+007667FM-12+0012ETNT V0201001N00201001201CN0028001N1-00431-00431100901ADDAY171999AY271999GA1031+001801071GF108991071051001501999999MA1999999100751MD1210181+9999MW1711REMSYN088AAXX  07081 10126 41228 81002 11043 21043 30075 40090 52018 77177 875// 333 83706 87615;
0215101260999992010010708204+53550+007667FM-15+0012ETNT V0200801N002610045019N0025001N1-00401-00401999999ADDGA1021+001801999GA2071+004501999GA3071+008701999GF107991999999999999999999MA1100911999999MW1101MW2711REMMET102METAR ETNT 070820Z 08005KT 2500 -SN BR FEW006 BKN015 BKN029 M04/M04 Q1009 RESN BLACKYLO YLO TEMPO AMB;
0164101260999992010010709104+53550+007667FM-16+0012ETNT V0201101N002110015019N0025001N1-00401-00401999999ADDGA1071+001501999GF107991999999999999999999MA1100911999999MW1101MW2711REMMET083SPECI ETNT 070910Z 11004KT 2500 -SN BR BKN005 M04/M04 Q1009 BLACKYLO YLO TEMPO AMB;
0164101260999992010010709204+53550+007667FM-15+0012ETNT V0201101N002610015019N0028001N1-00401-00401999999ADDGA1071+001501999GF107991999999999999999999MA1100911999999MW1101MW2711REMMET083METAR ETNT 070920Z 11005KT 2800 -SN BR BKN005 M04/M04 Q1009 BLACKYLO YLO TEMPO AMB;
0159101260999992010010709334+53550+007667FM-16+0012ETNT V0201101N002610015019N0028001N1-00401-00401999999ADDGA1071+001501999GF107991999999999999999999MA1101021999999MW1101MW2711REMMET078SPECI ETNT 070933Z 11005KT 2800 -SN BR BKN005 M04/M04 Q1010 YLO YLO TEMPO AMB;
0193101260999992010010710004+53550+007667FM-12+0012ETNT V0201201N002010015019N0025001N1-00361-00441101041ADDAY171999AY271999GA1061+001501071GF108991071051001501999999MA1999999100891MD1210221+9999MW1711REMSYN088AAXX  07101 10126 41225 81202 11036 21044 30089 40104 52022 77177 875// 333 86705 87629;
0172101260999992010010710204+53550+007667FM-15+0012ETNT V0201101N002110015019N0025001N1-00401-00401999999ADDGA1071+001501999GA2071+007201999GF107991999999999999999999MA1101021999999MW1101REMMET081METAR ETNT 071020Z 11004KT 2500 BR BKN005 BKN024 M04/M04 Q1010 YLO YLO TEMPO AMB;
0193101260999992010010711004+53550+007667FM-12+0012ETNT V0201001N002010015019N0028001N1-00361-00451101071ADDAY171999AY271999GA1051+001501071GF108991071051001501999999MA1999999100921MD1210171+9999MW1711REMSYN088AAXX  07111 10126 41228 81002 11036 21045 30092 40107 52017 77177 875// 333 85705 87625;
0182101260999992010010711204+53550+007667FM-15+0012ETNT V0200901N001510099019N0028001N1-00301-00401999999ADDGA1021+001501999GA2071+009901999GF107991999999999999999999MA1101021999999MW1101MW2711REMMET085METAR ETNT 071120Z 09003KT 2800 -SN BR FEW005 BKN033 M03/M04 Q1010 YLO YLO TEMPO AMB;
0149101260999992010010712204+53550+007667FM-15+0012ETNT V0201001N002110096019N0035001N1-00301-00401999999ADDGA1071+009601999GF107991999999999999999999MA1101081999999MW1101REMMET074METAR ETNT 071220Z 10004KT 3500 BR BKN032 M03/M04 Q1011 YLO YLO TEMPO AMB;
0187101260999992010010713004+53550+007667FM-12+0012ETNT V0200801N002010141019N0035001N1-00301-00451101141ADDAY121999AY221999GA1071+014101061GF107991071051012501999999MA1999999100991MD1210101+9999MW1101REMSYN082AAXX  07131 10126 41635 70802 11030 21045 30099 40114 52010 71022 875// 333 87647;
0149101260999992010010713204+53550+007667FM-15+0012ETNT V0200801N002610141019N0035001N1-00401-00501999999ADDGA1071+014101999GF107991999999999999999999MA1101081999999MW1101REMMET074METAR ETNT 071320Z 08005KT 3500 BR BKN047 M04/M05 Q1011 YLO YLO TEMPO AMB;
0187101260999992010010714004+53550+007667FM-12+0012ETNT V0200701N002010150019N0035001N1-00381-00491101171ADDAY121999AY221999GA1051+015001061GF105991051051017501001001MA1999999101021MD1210101+9999MW1101REMSYN082AAXX  07141 10126 41735 50702 11038 21049 30102 40117 52010 71022 85500 333 85650;
0149101260999992010010714204+53550+007667FM-15+0012ETNT V0200801N002610150019N0035001N1-00401-00501999999ADDGA1071+015001999GF107991999999999999999999MA1101191999999MW1101REMMET074METAR ETNT 071420Z 08005KT 3500 BR BKN050 M04/M05 Q1012 YLO YLO TEMPO AMB;
0180101260999992010010715204+53550+007667FM-15+0012ETNT V0200601N001512200019N0035001N1-00501-00501999999ADDED199U04009GA1041+015001999GF104991999999999999999999MA1101191999999MW1101MW2121REMMET088METAR ETNT 071520Z 06003KT 3500 R08/0400 MIFG BR SCT050 M05/M05 Q1012 YLO YLO TEMPO AMB;
0169101260999992010010715544+53550+007667FM-16+0012ETNT V0200401N001012200019N0004501N1-00601-00601999999ADDED199U02509GA1021+015001999GF102991999999999999999999MA1101291999999MW1411REMMET083SPECI ETNT 071554Z 04002KT 0450 R08/0250 BCFG FEW050 M06/M06 Q1013 RED FCST CANCEL;
0187101260999992010010716004+53550+007667FM-12+0012ETNT V0200501N002012200019N0032001N1-00521-00541101311ADDAY121011AY221011GA1021+015001061GF104991031051017501031011MA1999999101161MD1210171+9999MW1121REMSYN082AAXX  07161 10126 41732 40502 11052 21054 30116 40131 52017 71222 83531 333 82650;
0157101260999992010010716204+53550+007667FM-15+0012ETNT V0200401N001012200019N0004501N1-00801-00801999999ADDED199U07009GA1021+015001999GF102991999999999999999999MA1101291999999MW1411REMMET071METAR ETNT 071620Z 04002KT 0450 R08/0700 BCFG FEW050 M08/M08 Q1013 RED;
0187101260999992010010717004+53550+007667FM-12+0012ETNT V0200801N002012200019N0004001N1-00651-00651101371ADDAY121999AY221999GA1021+015001061GF102991021051017501001011MA1999999101221MD1210201+9999MW1411REMSYN082AAXX  07171 10126 41704 20802 11065 21065 30122 40137 52020 74122 82501 333 82650;
0157101260999992010010717204+53550+007667FM-15+0012ETNT V0201101N001012200019N0004001N1-01101-01101999999ADDED199U02009GA1021+015001999GF102991999999999999999999MA1101291999999MW1481REMMET071METAR ETNT 071720Z 11002KT 0400 R08/0200 FZFG FEW050 M11/M11 Q1013 RED;
0157101260999992010010718204+53550+007667FM-15+0012ETNT V0200801N001012200019N0004001N1-01101-01101999999ADDED199U03009GA1021+015001999GF102991999999999999999999MA1101391999999MW1411REMMET071METAR ETNT 071820Z 08002KT 0400 R08/0300 BCFG FEW050 M11/M11 Q1014 RED;
0171101260999992010010719004+53550+007667FM-12+0012ETNT V0201101N001012200019N0004001N1-01351-01351101501ADDAY141999AY241999GA1001+999999999GF100991001001999999001001MA1999999101341MD1210181+9999MW1441REMSYN066AAXX  07191 10126 41904 01101 11135 21135 30134 40150 52018 74444;
0157101260999992010010719204+53550+007667FM-15+0012ETNT V0201401N002612200019N0006001N1-01401-01401999999ADDED199U04009GA1041+015001999GF104991999999999999999999MA1101491999999MW1411REMMET071METAR ETNT 071920Z 14005KT 0600 R08/0400 BCFG SCT050 M14/M14 Q1015 RED;
0187101260999992010010720004+53550+007667FM-12+0012ETNT V0201401N001012200019N0007001N1-01101-01101101581ADDAY141999AY241999GA1031+012601061GF103991031051012501001001MA1999999101421MD1210201+9999MW1411REMSYN082AAXX  07201 10126 41607 31401 11110 21110 30142 40158 52020 74144 83500 333 83642;
0135101260999992010010720204+53550+007667FM-15+0012ETNT V0203001N000510132019N0025001N1-00901-01001999999ADDGA1071+013201999GF107991999999999999999999MA1101491999999MW1101REMMET060METAR ETNT 072020Z 30001KT 2500 BR BKN044 M09/M10 Q1015 YLO;
0135101260999992010010721204+53550+007667FM-15+0012ETNT V0203201N001010150019N0025001N1-00701-01001999999ADDGA1071+015001999GF107991999999999999999999MA1101591999999MW1101REMMET060METAR ETNT 072120Z 32002KT 2500 BR BKN050 M07/M10 Q1016 YLO;
0187101260999992010010722004+53550+007667FM-12+0012ETNT V0202701N001010150019N0028001N1-00841-00981101721ADDAY121999AY221999GA1071+015001061GF107991071051017501999999MA1999999101561MD1210231+9999MW1711REMSYN082AAXX  07221 10126 41728 72701 11084 21098 30156 40172 52023 77122 875// 333 87650;
0145101260999992010010722204+53550+007667FM-15+0012ETNT V0202701N000510150019N0028001N1-00801-01001999999ADDGA1071+015001999GF107991999999999999999999MA1101691999999MW1101MW2711REMMET064METAR ETNT 072220Z 27001KT 2800 -SN BR BKN050 M08/M10 Q1017 YLO;
0187101260999992010010723004+53550+007667FM-12+0012ETNT V0202701N001010150019N0028001N1-00841-00961101721ADDAY171999AY271999GA1071+015001061GF107991071051017501999999MA1999999101561MD1210141+9999MW1711REMSYN082AAXX  07231 10126 41728 72701 11084 21096 30156 40172 52014 77177 875// 333 87650;
0168101260999992010010723204+53550+007667FM-15+0012ETNT V0202701N000510150019N0030001N1-00801-01001999999ADDGA1021+011701999GA2071+015001999GF107991999999999999999999MA1101691999999MW1101MW2711REMMET071METAR ETNT 072320Z 27001KT 3000 -SN BR FEW039 BKN050 M08/M10 Q1017 YLO;
0168101260999992010010800204+53550+007667FM-15+0012ETNT V0202701N000510150019N0028001N1-00801-01001999999ADDGA1021+011701999GA2071+015001999GF107991999999999999999999MA1101691999999MW1101MW2711REMMET071METAR ETNT 080020Z 27001KT 2800 -SN BR FEW039 BKN050 M08/M10 Q1017 YLO;
0187101260999992010010801004+53550+007667FM-12+0012ETNT V0202701N001010150019N0028001N1-00841-00961101721ADDAY171999AY271999GA1071+015001061GF107991071051017501999999MA1999999101561MD1010001+9999MW1711REMSYN082AAXX  08011 10126 41728 72701 11084 21096 30156 40172 50000 77177 875// 333 87650;
0145101260999992010010801204+53550+007667FM-15+0012ETNT V0203301N001510150019N0028001N1-00601-01001999999ADDGA1071+015001999GF107991999999999999999999MA1101801999999MW1051MW2711REMMET064METAR ETNT 080120Z 33003KT 2800 -SN HZ BKN050 M06/M10 Q1018 YLO;
0187101260999992010010802004+53550+007667FM-12+0012ETNT V0203501N002010150019N0028001N1-00611-00611101921ADDAY171999AY271999GA1071+015001061GF107991071051017501999999MA1999999101771MD1310211+9999MW1221REMSYN082AAXX  08021 10126 41728 73502 11061 21061 30177 40192 53021 72277 875// 333 87650;
0135101260999992010010802204+53550+007667FM-15+0012ETNT V0203601N000510150019N0025001N1-00801-00801999999ADDGA1071+015001999GF107991999999999999999999MA1101901999999MW1101REMMET060METAR ETNT 080220Z 36001KT 2500 BR BKN050 M08/M08 Q1019 YLO;
0156101260999992010010803204+53550+007667FM-15+0012ETNT V0200101N000512200019N0012001N1-01001-01001999999ADDGA1021+015001999GF102991999999999999999999MA1101901999999MW1101MW2121REMMET075METAR ETNT 080320Z 01001KT 1200 R26////// MIFG BR FEW050 M10/M10 Q1019 AMB;
0147101260999992010010803484+53550+007667FM-16+0012ETNT V0201201N001012200019N0002001N1-01301-01301999999ADDGA1041+015001999GF104991999999999999999999MA1102001999999MW1481REMMET072SPECI ETNT 080348Z 12002KT 0200 R26////// FZFG SCT050 M13/M13 Q1020 RED;
0187101260999992010010804004+53550+007667FM-12+0012ETNT V0201101N001012200019N0002001N1-01261-01261102041ADDAY101999AY201999GA1041+015001061GF104991041051017501001001MA1999999101881MD1210321+9999MW1461REMSYN082AAXX  08041 10126 41702 41101 11126 21126 30188 40204 52032 74600 84500 333 84650;
0147101260999992010010804204+53550+007667FM-15+0012ETNT V0203201N000512200019N0004001N1-01001-01001999999ADDGA1041+015001999GF104991999999999999999999MA1102001999999MW1481REMMET072METAR ETNT 080420Z 32001KT 0400 R26////// FZFG SCT050 M10/M10 Q1020 RED;
0149101260999992010010804504+53550+007667FM-16+0012ETNT V0203301N000510150019N0030001N1-00901-00901999999ADDGA1071+015001999GF107991999999999999999999MA1102001999999MW1101REMMET074SPECI ETNT 080450Z 33001KT 3000 BR BKN050 M09/M09 Q1020 YLO RED TEMPO YLO;
0187101260999992010010805004+53550+007667FM-12+0012ETNT V0203301N001010150019N0030001N1-00951-00951102061ADDAY141999AY211999GA1051+015001061GF105991051051017501001001MA1999999101901MD1210131+9999MW1281REMSYN082AAXX  08051 10126 41730 53301 11095 21095 30190 40206 52013 72841 85500 333 85650;
0161101260999992010010805204+53550+007667FM-15+0012ETNT V0203401N001012200019N0005001N1-00901-00901999999ADDGA1021+015001999GF102991999999999999999999MA1102001999999MW1481REMMET086METAR ETNT 080520Z 34002KT 0500 R26////// FZFG FEW050 M09/M09 Q1020 RED RED TEMPO YLO;
0149101260999992010010806124+53550+007667FM-16+0012ETNT V0200101N001512200019N0030001N1-00901-00901999999ADDGA1021+015001999GF102991999999999999999999MA1102001999999MW1101REMMET074SPECI ETNT 080612Z 01003KT 3000 BR FEW050 M09/M09 Q1020 YLO RED TEMPO YLO;
0149101260999992010010806204+53550+007667FM-15+0012ETNT V0200201N001512200019N0030001N1-00901-00901999999ADDGA1021+015001999GF102991999999999999999999MA1102101999999MW1101REMMET074METAR ETNT 080620Z 02003KT 3000 BR FEW050 M09/M09 Q1021 YLO RED TEMPO YLO;
0235101260999992010010807004+53550+007667FM-12+0012ETNT V0209999V001012200019N0030001N1-01221-01221102171ADDAY141999AY211999GA1011+003001071GF103991031051004501001001MA1999999102011MD1210131+9999MW1281REMSYN130AAXX  08071 10126 41430 39901 11122 21122 30201 40217 52013 72841 83500 333 81710 555 BOT 11007 20003 30007 40023 50047 999 48///;
0160101260999992010010807204+53550+007667FM-15+0012ETNT V0209999V000510036019N0020001N1-01101-01101999999ADDGA1071+003601999GF107991999999999999999999MA1102201999999MW1101MW2401REMMET079METAR ETNT 080720Z VRB01KT 2000 VCFG BR BKN012 M11/M11 Q1022 YLO RED TEMPO YLO;
0160101260999992010010807404+53550+007667FM-16+0012ETNT V0200501N001010036019N0032001N1-00901-00901999999ADDGA1071+003601999GF107991999999999999999999MA1102201999999MW1101MW2121REMMET079SPECI ETNT 080740Z 05002KT 3200 MIFG BR BKN012 M09/M09 Q1022 YLO RED TEMPO YLO;
0187101260999992010010808004+53550+007667FM-12+0012ETNT V0200101N001010042019N0035001N1-00861-00881102251ADDAY111999AY211999GA1071+004201061GF107991071051004501999999MA1999999102091MD1210191+9999MW1111REMSYN082AAXX  08081 10126 41435 70101 11086 21088 30209 40225 52019 71111 875// 333 87614;
0149101260999992010010808204+53550+007667FM-15+0012ETNT V0200401N002110030019N0045001N1-00601-00601999999ADDGA1071+003001999GF107991999999999999999999MA1102201999999MW1101REMMET074METAR ETNT 080820Z 04004KT 4500 BR BKN010 M06/M06 Q1022 GRN YLO TEMPO GRN;
0149101260999992010010808314+53550+007667FM-16+0012ETNT V0200401N002112200019N0050001N1-00501-00501999999ADDGA1041+003001999GF104991999999999999999999MA1102201999999MW1101REMMET074SPECI ETNT 080831Z 04004KT 5000 BR SCT010 M05/M05 Q1022 WHT WHT TEMPO YLO;
0140101260999992010010809204+53550+007667FM-15+0012ETNT V0200701N002612200019N0080001N1-00401-00401999999ADDGA1021+004201999GF102991999999999999999999MA1102301999999REMMET071METAR ETNT 080920Z 07005KT 8000 FEW014 M04/M04 Q1023 BLU/BLU TEMPO WHT;
0159101260999992010010810004+53550+007667FM-12+0012ETNT V0200601N003012200019N0150001N1-00321-00441102341ADDGA1011+004201061GF101991011051004501001001MA1999999102191MD1210181+9999REMSYN076AAXX  08101 10126 42465 10603 11032 21044 30219 40234 52018 81500 333 81614;
0140101260999992010010810204+53550+007667FM-15+0012ETNT V0200601N003112200019N0112651N1-00201-00401999999ADDGA1021+015001999GF102991999999999999999999MA1102301999999REMMET071METAR ETNT 081020Z 06006KT 9999 FEW050 M02/M04 Q1023 BLU/BLU TEMPO WHT;
0159101260999992010010811004+53550+007667FM-12+0012ETNT V0200701N004012200019N0150001N1-00221-00421102351ADDGA1011+004501081GF101991011081004501001001MA1999999102201MD1210111+9999REMSYN076AAXX  08111 10126 42465 10704 11022 21042 30220 40235 52011 81800 333 81815;
0140101260999992010010811204+53550+007667FM-15+0012ETNT V0200501N004112200019N0112651N1-00201-00401999999ADDGA1041+003001999GF104991999999999999999999MA1102301999999REMMET071METAR ETNT 081120Z 05008KT 9999 SCT010 M02/M04 Q1023 BLU/BLU TEMPO WHT;
0140101260999992010010811384+53550+007667FM-16+0012ETNT V0200601N004110027019N0112651N1-00201-00401999999ADDGA1071+002701999GF107991999999999999999999MA1102301999999REMMET071SPECI ETNT 081138Z 06008KT 9999 BKN009 M02/M04 Q1023 GRN BLU TEMPO GRN;
0140101260999992010010812204+53550+007667FM-15+0012ETNT V0200601N004610030019N0112651N1-00201-00401999999ADDGA1071+003001999GF107991999999999999999999MA1102301999999REMMET071METAR ETNT 081220Z 06009KT 9999 BKN010 M02/M04 Q1023 GRN BLU TEMPO GRN;
0187101260999992010010813004+53550+007667FM-12+0012ETNT V0200601N006010030019N0120001N1-00261-00431102351ADDAY121999AY221999GA1071+003001081GF107991071021004501999999MA1999999102201MD1010011+9999MW1851REMSYN082AAXX  08131 10126 41462 70606 11026 21043 30220 40235 50001 78522 872// 333 87810;
0138101260999992010010813044+53550+007667FM-16+0012ETNT V0200601N005110030019N0112651N1-00301-00401999999ADDGA1071+003001999GF107991999999999999999999MA1102301999999REMMET069SPECI ETNT 081304Z 06010KT 9999 BKN010 M03/M04 Q1023 GRN FCST CANCEL;
0150101260999992010010813204+53550+007667FM-15+0012ETNT V0200501N004112200019N0112651N1-00301-00401999999ADDGA1021+003001999GA2041+007501999GF104991999999999999999999MA1102301999999REMMET065METAR ETNT 081320Z 05008KT 9999 FEW010 SCT025 M03/M04 Q1023 BLU/;
0193101260999992010010814004+53550+007667FM-12+0012ETNT V0200501N00401009001CN0100001N1-00271-00411102341ADDAY181999AY221999GA1031+003001081GF107991071081004501999999MA1999999102191MD1810011+9999MW1851REMSYN088AAXX  08141 10126 41460 70504 11027 21041 30219 40234 58001 78582 878// 333 83810 86656;
0135101260999992010010814204+53550+007667FM-15+0012ETNT V0200601N005110030019N0080001N1-00201-00401999999ADDGA1071+003001021GF107991999999999999999999MA1102301999999REMMET066METAR ETNT 081420Z 06010KT 8000 -SHSN BKN010TCU M02/M04 Q1023 GRN;
0134101260999992010010814454+53550+007667FM-16+0012ETNT V0200601N006210030019N0035001N1-00201-00401999999ADDGA1071+003001021GF107991999999999999999999MA1102301999999REMMET065SPECI ETNT 081445Z 06012KT 3500 SHSN BKN010TCU M02/M04 Q1023 YLO;
0157101260999992010010815204+53550+007667FM-15+0012ETNT V0200501N006210030019N0080001N1-00301-00401999999ADDGA1071+003001021GA2071+008401999GF107991999999999999999999MA1102301999999REMMET072METAR ETNT 081520Z 05012KT 8000 BKN010TCU BKN028 M03/M04 Q1023 RESN GRN;
0193101260999992010010816004+53550+007667FM-12+0012ETNT V0200601N00701009001CN0080001N1-00271-00361102421ADDAY121999AY221999GA1021+003001081GF107991071081004501999999MA1999999102271MD1210071+9999MW1261REMSYN088AAXX  08161 10126 41458 70607 11027 21036 30227 40242 52007 72622 878// 333 82810 87617;
0154101260999992010010816204+53550+007667FM-15+0012ETNT V0200601N006710051019N0112651N1-00201-00401999999ADDGA1041+003001999GA2071+005101999GF107991999999999999999999MA1102401999999REMMET069METAR ETNT 081620Z 06013KT 9999 SCT010 BKN017 M02/M04 Q1024 RESN WHT;
0165101260999992010010817004+53550+007667FM-12+0012ETNT V0200601N00701006001CN0150001N1-00241-00351102471ADDGA1031+002401081GF107991071081002501999999MA1999999102321MD1210131+9999REMSYN082AAXX  08171 10126 42365 70607 11024 21035 30232 40247 52013 878// 333 83808 87621;
0154101260999992010010817204+53550+007667FM-15+0012ETNT V0200601N006710069019N0112651N1-00201-00301999999ADDGA1041+002401999GA2071+006901999GF107991999999999999999999MA1102401999999REMMET069METAR ETNT 081720Z 06013KT 9999 SCT008 BKN023 M02/M03 Q1024 RESN WHT;
0131101260999992010010818204+53550+007667FM-15+0012ETNT V0200601N005710030019N0112651N1-00201-00401999999ADDGA1071+003001999GF107991999999999999999999MA1102511999999REMMET062METAR ETNT 081820Z 06011KT 9999 BKN010 M02/M04 Q1025 RESN GRN;
0187101260999992010010819004+53550+007667FM-12+0012ETNT V0200601N007010027019N0150001N1-00251-00381102571ADDAY171999AY221999GA1071+002701071GF107991071061002501999999MA1999999102421MD1210151+9999MW1221REMSYN082AAXX  08191 10126 41365 70607 11025 21038 30242 40257 52015 72272 876// 333 87709;
0131101260999992010010819204+53550+007667FM-15+0012ETNT V0200601N006210030019N0112651N1-00301-00401999999ADDGA1071+003001999GF107991999999999999999999MA1102511999999REMMET062METAR ETNT 081920Z 06012KT 9999 BKN010 M03/M04 Q1025 RESN GRN;
0159101260999992010010820004+53550+007667FM-12+0012ETNT V0200601N007010033019N0200001N1-00331-00481102611ADDGA1071+003301071GF107991071061004501999999MA1999999102461MD1210141+9999REMSYN076AAXX  08201 10126 42470 70607 11033 21048 30246 40261 52014 876// 333 87711;
0132101260999992010010820204+53550+007667FM-15+0012ETNT V0200501N005712200019N0112651N1-00401-00501999999ADDGA1041+003601999GF104991999999999999999999MA1102611999999REMMET063METAR ETNT 082020Z 05011KT 9999 SCT012 M04/M05 Q1026 RESN BLU/;
0132101260999992010010821204+53550+007667FM-15+0012ETNT V0200601N006212200019N0112651N1-00501-00601999999ADDGA1021+003601999GF102991999999999999999999MA1102611999999REMMET063METAR ETNT 082120Z 06012KT 9999 FEW012 M05/M06 Q1026 RESN BLU/;
