0173101360999992013010100204+53767+008667FM-15+0032ETMN V0202201N009310027019N0080001N1+00801+00701999999ADDGA1021+001501999GA2071+002701999GF107991999999999999999999MA1099591999999MW1611OC101541REMMET074METAR ETMN 010020Z 22018G30KT 8000 -RA FEW005 BKN009 08/07 Q0996 RERA GRN;
0193101360999992013010101004+53767+008667FM-12+0032ETMN V0202201N008010027019N0090001N1+00831+00721099711ADDAY161999AY261999GA1071+002701071GF108991071071002501999999MA1999999099331MD1710181+9999MW1611REMSYN088AAXX  01011 10136 41359 82208 10083 20072 39933 49971 57018 76166 877// 333 87709 91115;
0157101360999992013010101204+53767+008667FM-15+0032ETMN V0202301N008210027019N0112651N1+00801+00701999999ADDGA1071+002701999GA2071+004201999GF107991999999999999999999MA1099701999999MW1611REMMET066METAR ETMN 010120Z 23016KT 9999 -RA BKN009 BKN014 08/07 Q0997 GRN;
0221101360999992013010102004+53767+008667FM-12+0032ETMN V0202301N008010039019N0120001N1+00811+00721099751ADDAY161999AY261999GA1021+002101071GA2071+003901061GF108991071051002501999999MA1999999099371MD1510091+9999MW1601REMSYN100AAXX  01021 10136 41362 82308 10081 20072 39937 49975 55009 76066 875// 333 82707 87613 91013 91114;
0185101360999992013010102204+53767+008667FM-15+0032ETMN V0202301N007710021019N0050001N1+00801+00701999999ADDGA1071+002101999GA2071+003601999GF107991999999999999999999MA1099701999999MW1101MW2511MW3611OC101291REMMET074METAR ETMN 010220Z 23015G25KT 5000 -RADZ BR BKN007 BKN012 08/07 Q0997 GRN;
0142101360999992013010103204+53767+008667FM-15+0032ETMN V0202201N007210021019N0060001N1+00801+00801999999ADDGA1071+002101999GF107991999999999999999999MA1099591999999MW1511MW2611REMMET061METAR ETMN 010320Z 22014KT 6000 -RADZ BKN007 08/08 Q0996 GRN;
0187101360999992013010104004+53767+008667FM-12+0032ETMN V0202301N007010021019N0050001N1+00781+00781099691ADDAY161999AY261999GA1071+002101071GF108991071071002501999999MA1999999099311MD1810021+9999MW1581REMSYN082AAXX  01041 10136 41350 82307 10078 20078 39931 49969 58002 75866 877// 333 87707;
0142101360999992013010104204+53767+008667FM-15+0032ETMN V0202301N006210018019N0060001N1+00801+00701999999ADDGA1071+001801999GF107991999999999999999999MA1099591999999MW1511MW2611REMMET061METAR ETMN 010420Z 23012KT 6000 -RADZ BKN006 08/07 Q0996 YLO;
0187101360999992013010105004+53767+008667FM-12+0032ETMN V0202301N006010018019N0080001N1+00781+00721099671ADDAY161999AY261999GA1071+001801071GF108991071071001501999999MA1999999099291MD1710081+9999MW1581REMSYN082AAXX  01051 10136 41258 82306 10078 20072 39929 49967 57008 75866 877// 333 87706;
0134101360999992013010105204+53767+008667FM-15+0032ETMN V0202301N005710018019N0080001N1+00801+00701999999ADDGA1071+001801999GF107991999999999999999999MA1099591999999MW1511REMMET059METAR ETMN 010520Z 23011KT 8000 -DZ BKN006 08/07 Q0996 YLO;
0134101360999992013010106204+53767+008667FM-15+0032ETMN V0202301N005710015019N0060001N1+00801+00801999999ADDGA1071+001501999GF107991999999999999999999MA1099591999999MW1611REMMET059METAR ETMN 010620Z 23011KT 6000 -RA BKN005 08/08 Q0996 YLO;
0187101360999992013010107004+53767+008667FM-12+0032ETMN V0202301N006010015019N0060001N1+00751+00751099691ADDAY161999AY221999GA1071+001501071GF108991071061001501999999MA1999999099311MD1510001+9999MW1581REMSYN082AAXX  01071 10136 41256 82306 10075 20075 39931 49969 55000 75862 876// 333 87705;
0156101360999992013010107204+53767+008667FM-15+0032ETMN V0202301N005710015019N0045001N1+00801+00801999999ADDGA1071+001501999GF107991999999999999999999MA1099701999999MW1101MW2511MW3611REMMET069METAR ETMN 010720Z 23011KT 4500 -DZRA BR BKN005 08/08 Q0997 RERA YLO;
0150101360999992013010107494+53767+008667FM-16+0032ETMN V0202301N005110012019N0027001N1+00801+00801999999ADDGA1071+001201999GF107991999999999999999999MA1099701999999MW1101MW2531MW3631REMMET063SPECI ETMN 010749Z 23010KT 2700 DZRA BR BKN004 08/08 Q0997 YLO;
0187101360999992013010108004+53767+008667FM-12+0032ETMN V0202301N005010012019N0027001N1+00751+00751099731ADDAY161999AY261999GA1071+001201071GF108991071061001501999999MA1999999099351MD1310061+9999MW1591REMSYN082AAXX  01081 10136 41227 82305 10075 20075 39935 49973 53006 75966 876// 333 87704;
0150101360999992013010108204+53767+008667FM-15+0032ETMN V0202601N005710006019N0020001N1+00701+00701999999ADDGA1071+000601999GF107991999999999999999999MA1099701999999MW1101MW2531MW3631REMMET063METAR ETMN 010820Z 26011KT 2000 DZRA BR BKN002 07/07 Q0997 AMB;
0173101360999992013010108484+53767+008667FM-16+0032ETMN V0203001N003110009019N0032001N1+00601+00601999999ADDGA1071+000901999GA2071+009301999GF107991999999999999999999MA1099801999999MW1101MW2531MW3631REMMET070SPECI ETMN 010848Z 30006KT 3200 DZRA BR BKN003 BKN031 06/06 Q0998 YLO;
0161101360999992013010109204+53767+008667FM-15+0032ETMN V0202701N001510147019N0040001N1+00601+00601999999ADDGA1021+000901999GA2071+014701999GF107991999999999999999999MA1099801999999MW1101REMMET070METAR ETMN 010920Z 27003KT 4000 BR FEW003 BKN049 06/06 Q0998 RERA GRN;
0170101360999992013010109514+53767+008667FM-16+0032ETMN V0202901N003110048019N0112651N1+00601+00601999999ADDGA1021+000901999GA2071+004801999GA3071+015001999GF107991999999999999999999MA1099901999999REMMET069SPECI ETMN 010951Z 29006KT 9999 FEW003 BKN016 BKN055 06/06 Q0999 WHT;
0215101360999992013010110004+53767+008667FM-12+0032ETMN V0202901N003010048019N0100001N1+00611+00591099931ADDAY161011AY221011GA1021+000901071GA2051+004801061GF107991071051000751999999MA1999999099551MD1210241+9999MW1211REMSYN094AAXX  01101 10136 41160 72903 10061 20059 39955 49993 52024 72162 875// 333 82703 85616 87650;
0170101360999992013010110204+53767+008667FM-15+0032ETMN V0202701N002110090019N0112651N1+00601+00601999999ADDGA1021+002701999GA2071+009001999GA3071+066001999GF107991999999999999999999MA1099901999999REMMET069METAR ETMN 011020Z 27004KT 9999 FEW009 BKN030 BKN220 06/06 Q0999 BLU;
0187101360999992013010111004+53767+008667FM-12+0032ETMN V0202801N003010210019N0100001N1+00661+00661099951ADDGA1011+000901071GA2051+021001061GF107991051081000751001021MA1999999099571MD1210221+9999REMSYN088AAXX  01111 10136 42160 72803 10066 20066 39957 49995 52022 85802 333 81703 85657 87072;
0180101360999992013010111204+53767+008667FM-15+0032ETMN V0202601N00361003001CN0112651N1+00701+00601999999ADDGA1021+001201999GA2041+003001999GA3071+027001999GF107991999999999999999999MA1099901999999MW1611REMMET073METAR ETMN 011120Z 26007KT 9999 -RA FEW004 SCT010 BKN095 07/06 Q0999 BLU;
0170101360999992013010112204+53767+008667FM-15+0032ETMN V0202501N002610150019N0112651N1+00701+00601999999ADDGA1041+003001999GA2071+015001999GA3081+021001999GF108991999999999999999999MA1100001999999REMMET069METAR ETMN 011220Z 25005KT 9999 SCT010 BKN055 OVC070 07/06 Q1000 BLU;
0147101360999992013010112424+53767+008667FM-16+0032ETMN V0202501N003610024019N0112651N1+00701+00601999999ADDGA1071+002401999GA2081+005401999GF108991999999999999999999MA1100001999999REMMET062SPECI ETMN 011242Z 25007KT 9999 BKN008 OVC018 07/06 Q1000 GRN;
0165101360999992013010113004+53767+008667FM-12+0032ETMN V0202501N004010024019N0120001N1+00681+00611100041ADDGA1051+002401081GF108991081081002501999999MA1999999099661MD1110111+9999REMSYN082AAXX  01131 10136 42362 82504 10068 20061 39966 40004 51011 888// 333 85808 88620;
0147101360999992013010113204+53767+008667FM-15+0032ETMN V0202701N004110150019N0112651N1+00701+00601999999ADDGA1041+002101999GA2071+015001999GF107991999999999999999999MA1100001999999REMMET062METAR ETMN 011320Z 27008KT 9999 SCT007 BKN050 07/06 Q1000 BLU;
0187101360999992013010114004+53767+008667FM-12+0032ETMN V0202801N00601030001CN0200001N1+00641+00561100091ADDGA1011+001501081GA2031+005401061GF107991031081001501071999MA1999999099711MD1310141+9999REMSYN088AAXX  01141 10136 42270 72806 10064 20056 39971 40009 53014 8387/ 333 81805 83618 87357;
0170101360999992013010114204+53767+008667FM-15+0032ETMN V0202901N00571013501CN0112651N1+00601+00501999999ADDGA1021+003001999GA2041+013501999GA3071+021001999GF107991999999999999999999MA1100101999999REMMET069METAR ETMN 011420Z 29011KT 9999 FEW010 SCT045 BKN075 06/05 Q1001 BLU;
0147101360999992013010115204+53767+008667FM-15+0032ETMN V0202801N004610240019N0112651N1+00501+00401999999ADDGA1021+003001999GA2071+024001999GF107991999999999999999999MA1100201999999REMMET062METAR ETMN 011520Z 28009KT 9999 FEW010 BKN080 05/04 Q1002 BLU;
0193101360999992013010116004+53767+008667FM-12+0032ETMN V0202701N00501030001CN0300001N1+00541+00311100281ADDAY121999AY221999GA1011+003001081GF105991021081004501071001MA1999999099891MD1310231+9999MW1141REMSYN088AAXX  01161 10136 41480 52705 10054 20031 39989 40028 53023 71422 82870 333 81810 85359;
0148101360999992013010116204+53767+008667FM-15+0032ETMN V0202601N005112200019N0112651N1+00501+00301999999ADDGA1021+008101999GA2041+030001999GF104991999999999999999999MA1100201999999REMMET063METAR ETMN 011620Z 26010KT 9999 FEW027 SCT100 05/03 Q1002 BLU/;
0165101360999992013010117004+53767+008667FM-12+0032ETMN V0202601N005012200019N0350001N1+00521+00261100331ADDGA1011+006601061GF104991011051008001031021MA1999999099941MD1110231+9999REMSYN082AAXX  01171 10136 42581 42605 10052 20026 39994 40033 51023 81532 333 81622 83360;
0148101360999992013010117204+53767+008667FM-15+0032ETMN V0202501N004612200019N0112651N1+00501+00301999999ADDGA1021+006601999GA2041+030001999GF104991999999999999999999MA1100311999999REMMET063METAR ETMN 011720Z 25009KT 9999 FEW022 SCT100 05/03 Q1003 BLU/;
0147101360999992013010118204+53767+008667FM-15+0032ETMN V0202501N005710132019N0112651N1+00501+00301999999ADDGA1021+007501999GA2071+013201999GF107991999999999999999999MA1100411999999REMMET062METAR ETMN 011820Z 25011KT 9999 FEW025 BKN044 05/03 Q1004 BLU;
0165101360999992013010119004+53767+008667FM-12+0032ETMN V0202501N006010120019N0300001N1+00481+00271100481ADDGA1011+006601081GF106991061081008001001001MA1999999100091MD1310201+9999REMSYN082AAXX  01191 10136 42580 62506 10048 20027 30009 40048 53020 86800 333 81822 86640;
0147101360999992013010119204+53767+008667FM-15+0032ETMN V0202401N006210117019N0112651N1+00401+00201999999ADDGA1021+006601999GA2071+011701999GF107991999999999999999999MA1100411999999REMMET062METAR ETMN 011920Z 24012KT 9999 FEW022 BKN039 04/02 Q1004 BLU;
0165101360999992013010120004+53767+008667FM-12+0032ETMN V0202401N00601012001CN0250001N1+00411+00271100531ADDGA1011+006601081GF105991051081008001001001MA1999999100141MD1110201+9999REMSYN082AAXX  01201 10136 42575 52406 10041 20027 30014 40053 51020 85800 333 81822 85641;
0148101360999992013010120204+53767+008667FM-15+0032ETMN V0202401N006212200019N0112651N1+00401+00201999999ADDGA1021+006601999GA2041+012301999GF104991999999999999999999MA1100511999999REMMET063METAR ETMN 012020Z 24012KT 9999 FEW022 SCT041 04/02 Q1005 BLU/;
0147101360999992013010121204+53767+008667FM-15+0032ETMN V0202301N005110150019N0112651N1+00401+00301999999ADDGA1021+011701999GA2071+015001999GF107991999999999999999999MA1100511999999REMMET062METAR ETMN 012120Z 23010KT 9999 FEW039 BKN055 04/03 Q1005 BLU;
0187101360999992013010122004+53767+008667FM-12+0032ETMN V0202401N005010054019N0150001N1+00391+00281100621ADDAY111999AY211999GA1071+005401061GF107991071051004501999999MA1999999100231MD1210141+9999MW1581REMSYN082AAXX  01221 10136 41465 72405 10039 20028 30023 40062 52014 75811 875// 333 87618;
0157101360999992013010122204+53767+008667FM-15+0032ETMN V0202401N005710054019N0112651N1+00401+00301999999ADDGA1021+003001999GA2071+005401999GF107991999999999999999999MA1100611999999MW1611REMMET066METAR ETMN 012220Z 24011KT 9999 -RA FEW010 BKN018 04/03 Q1006 WHT;
0193101360999992013010123004+53767+008667FM-12+0032ETMN V0202401N007010045019N0150001N1+00441+00321100651ADDAY161999AY221999GA1051+004501061GF107991071051004501999999MA1999999100261MD1210121+9999MW1211REMSYN088AAXX  01231 10136 41465 72407 10044 20032 30026 40065 52012 72162 875// 333 85615 87640;
0161101360999992013010123204+53767+008667FM-15+0032ETMN V0202401N006710060019N0080001N1+00501+00301999999ADDGA1041+003601091GA2071+006001999GF107991999999999999999999MA1100611999999MW1801REMMET070METAR ETMN 012320Z 24013KT 8000 -SHRA SCT012CB BKN020 05/03 Q1006 WHT;
0147101360999992013010200204+53767+008667FM-15+0032ETMN V0202401N006710072019N0112651N1+00401+00301999999ADDGA1041+003001999GA2071+007201999GF107991999999999999999999MA1100611999999REMMET062METAR ETMN 020020Z 24013KT 9999 SCT010 BKN024 04/03 Q1006 WHT;
0193101360999992013010201004+53767+008667FM-12+0032ETMN V0202501N00701004201CN0120001N1+00441+00351100701ADDAY121999AY221999GA1031+003001091GF107991071091004501999999MA1999999100311MD1210081+9999MW1801REMSYN088AAXX  02011 10136 41462 72507 10044 20035 30031 40070 52008 78022 879// 333 83910 87619;
0159101360999992013010201204+53767+008667FM-15+0032ETMN V0202501N007210057019N0112651N1+00401+00301999999ADDGA1041+003001999GA2071+005701999GF107991999999999999999999MA1100711999999MW1801REMMET068METAR ETMN 020120Z 25014KT 9999 -SHRA SCT010 BKN019 04/03 Q1007 WHT;
0193101360999992013010202004+53767+008667FM-12+0032ETMN V0202601N00701009001CN0150001N1+00421+00291100781ADDAY121999AY221999GA1031+003001081GF107991071081004501999999MA1999999100391MD1210131+9999MW1251REMSYN088AAXX  02021 10136 41465 72607 10042 20029 30039 40078 52013 72522 878// 333 83810 87619;
0148101360999992013010202204+53767+008667FM-15+0032ETMN V0202701N006212200019N0112651N1+00501+00301999999ADDGA1041+004501999GA2041+012901999GF104991999999999999999999MA1100811999999REMMET063METAR ETMN 020220Z 27012KT 9999 SCT015 SCT043 05/03 Q1008 BLU/;
0159101360999992013010203204+53767+008667FM-15+0032ETMN V0203101N004110120019N0112651N1+00501+00401999999ADDGA1041+004501999GA2071+012001999GF107991999999999999999999MA1100911999999MW1801REMMET068METAR ETMN 020320Z 31008KT 9999 -SHRA SCT015 BKN040 05/04 Q1009 BLU;
0193101360999992013010204004+53767+008667FM-12+0032ETMN V0202701N005010090019N0150001N1+00531+00371100951ADDAY111999AY211999GA1021+004501081GF105991051081004501001001MA1999999100561MD1210251+9999MW1251REMSYN088AAXX  02041 10136 41465 52705 10053 20037 30056 40095 52025 72511 85800 333 82815 84630;
0148101360999992013010204204+53767+008667FM-15+0032ETMN V0202701N004612200019N0112651N1+00501+00301999999ADDGA1021+004501999GA2041+010501999GF104991999999999999999999MA1101021999999REMMET063METAR ETMN 020420Z 27009KT 9999 FEW015 SCT035 05/03 Q1010 BLU/;
0193101360999992013010205004+53767+008667FM-12+0032ETMN V0202801N00601009001CN0150001N1+00511+00351101061ADDAY111999AY211999GA1021+004501081GF105991051081004501031001MA1999999100671MD1210281+9999MW1251REMSYN088AAXX  02051 10136 41465 52806 10051 20035 30067 40106 52028 72511 85830 333 82815 83635;
0185101360999992013010205204+53767+008667FM-15+0032ETMN V0202701N005710057019N0112651N1+00501+00401999999ADDGA1041+004501999GA2071+005701999GA3071+036001999GF107991999999999999999999MA1101021999999REMMET084METAR ETMN 020520Z 27011KT 9999 SCT015 BKN019 BKN120 05/04 Q1010 WHT BLU/ TEMPO WHT;
0169101360999992013010206204+53767+008667FM-15+0032ETMN V0202801N005712200019N0112651N1+00501+00401999999ADDGA1021+004501091GA2041+015001999GF104991999999999999999999MA1101191999999REMMET084METAR ETMN 020620Z 28011KT 9999 FEW015CB SCT050 05/04 Q1012 RERA BLU/BLU/ TEMPO WHT;
0187101360999992013010207004+53767+008667FM-12+0032ETMN V0202801N007012200019N0300001N1+00471+00361101291ADDAY111999AY211999GA1011+004501081GF102991021081004501001001MA1999999100901MD1310341+9999MW1251REMSYN082AAXX  02071 10136 41480 22807 10047 20036 30090 40129 53034 72511 82800 333 81815;
0162101360999992013010207204+53767+008667FM-15+0032ETMN V0202801N005112200019N0112651N1+00501+00401999999ADDGA1021+004501999GA2041+006001999GF104991999999999999999999MA1101291999999REMMET077METAR ETMN 020720Z 28010KT 9999 FEW015 SCT020 05/04 Q1013 BLU/BLU/ TEMPO WHT;
0187101360999992013010208004+53767+008667FM-12+0032ETMN V0202801N005012200019N0250001N1+00431+00331101421ADDAY101999AY201999GA1011+004501091GF101991011091004501001001MA1999999101031MD1310361+9999MW1151REMSYN082AAXX  02081 10136 41475 12805 10043 20033 30103 40142 53036 71500 81900 333 81915;
0131101360999992013010208204+53767+008667FM-15+0032ETMN V0202801N005712200019N0112651N1+00401+00401999999ADDGA1021+004501091GF102991999999999999999999MA1101391999999REMMET062METAR ETMN 020820Z 28011KT 9999 FEW015CB 04/04 Q1014 BLU/BLU/;
0162101360999992013010209204+53767+008667FM-15+0032ETMN V0202801N004610114019N0112651N1+00601+00401999999ADDGA1021+005401999GA2071+011401999GF107991999999999999999999MA1101491999999REMMET077METAR ETMN 020920Z 28009KT 9999 FEW018 BKN038 06/04 Q1015 BLU BLU/ TEMPO WHT;
0193101360999992013010210004+53767+008667FM-12+0032ETMN V0202801N00701009001CN0150001N1+00601+00481101641ADDAY111999AY211999GA1011+005401081GF106991061081004501001001MA1999999101251MD1110351+9999MW1251REMSYN088AAXX  02101 10136 41465 62807 10060 20048 30125 40164 51035 72511 86800 333 81818 86640;
0174101360999992013010210204+53767+008667FM-15+0032ETMN V0202801N006210126019N0112651N1+00601+00501999999ADDGA1021+006001999GA2071+012601999GF107991999999999999999999MA1101591999999MW1801REMMET083METAR ETMN 021020Z 28012KT 9999 -SHRA FEW020 BKN042 06/05 Q1016 BLU BLU/ TEMPO WHT;
0193101360999992013010211004+53767+008667FM-12+0032ETMN V0202801N00701009001CN0120001N1+00631+00501101711ADDAY181999AY221999GA1031+004501081GF106991061081004501001001MA1999999101321MD1110291+9999MW1801REMSYN088AAXX  02111 10136 41462 62807 10063 20050 30132 40171 51029 78082 86800 333 83815 86632;
0155101360999992013010211204+53767+008667FM-15+0032ETMN V0202601N005110114019N0112651N1+00601+00501999999ADDGA1021+005401021GA2071+011401999GF107991999999999999999999MA1101691999999REMMET070METAR ETMN 021120Z 26010KT 9999 FEW018TCU BKN038 06/05 Q1017 BLU BLU/;
0178101360999992013010212204+53767+008667FM-15+0032ETMN V0202801N00671004501CN0112651N1+00601+00601999999ADDGA1021+002701999GA2041+004501021GA3071+011701999GF107991999999999999999999MA1101801999999REMMET077METAR ETMN 021220Z 28013KT 9999 FEW009 SCT015TCU BKN039 06/06 Q1018 BLU BLU/;
0193101360999992013010213004+53767+008667FM-12+0032ETMN V0202701N00701009001CN0100001N1+00641+00511101861ADDAY121999AY221999GA1031+005101081GF107991071081004501999999MA1999999101471MD1210211+9999MW1251REMSYN088AAXX  02131 10136 41460 72707 10064 20051 30147 40186 52021 72522 878// 333 83817 87639;
0155101360999992013010213204+53767+008667FM-15+0032ETMN V0202801N007210111019N0112651N1+00701+00501999999ADDGA1021+005101021GA2071+011101999GF107991999999999999999999MA1101801999999REMMET070METAR ETMN 021320Z 28014KT 9999 FEW017TCU BKN037 07/05 Q1018 BLU BLU/;
0165101360999992013010214004+53767+008667FM-12+0032ETMN V0202601N00601009001CN0150001N1+00631+00491101931ADDGA1011+005101081GF107991051081004501001011MA1999999101541MD1210211+9999REMSYN082AAXX  02141 10136 42465 72606 10063 20049 30154 40193 52021 85801 333 81817 85640;
0152101360999992013010214204+53767+008667FM-15+0032ETMN V0202701N006710126019N0112651N1+00601+00501999999ADDGA1021+005101999GA2071+012601999GF107991999999999999999999MA1101901999999REMMET067METAR ETMN 021420Z 27013KT 9999 FEW017 BKN042 06/05 Q1019 BLU BLU/;
0175101360999992013010215204+53767+008667FM-15+0032ETMN V0202601N00621011401CN0112651N1+00601+00501999999ADDGA1021+005101999GA2041+011401999GA3071+069001999GF107991999999999999999999MA1102001999999REMMET074METAR ETMN 021520Z 26012KT 9999 FEW017 SCT038 BKN230 06/05 Q1020 BLU/BLU/;
0187101360999992013010216004+53767+008667FM-12+0032ETMN V0202601N006010108019N0120001N1+00601+00471102061ADDGA1031+004201081GA2031+010801061GF107991051081004501001021MA1999999101671MD1210201+9999REMSYN088AAXX  02161 10136 42462 72606 10060 20047 30167 40206 52020 85802 333 83814 83636 85073;
0175101360999992013010216204+53767+008667FM-15+0032ETMN V0202601N00671011701CN0112651N1+00601+00501999999ADDGA1041+003901999GA2041+011701999GA3071+069001999GF107991999999999999999999MA1102001999999REMMET074METAR ETMN 021620Z 26013KT 9999 SCT013 SCT039 BKN230 06/05 Q1020 BLU/BLU/;
0187101360999992013010217004+53767+008667FM-12+0032ETMN V0202601N006010120019N0150001N1+00561+00441102111ADDGA1031+003901081GA2031+012001061GF107991051081004501001021MA1999999101721MD1210181+9999REMSYN088AAXX  02171 10136 42465 72606 10056 20044 30172 40211 52018 85802 333 83813 83640 85073;
0152101360999992013010217204+53767+008667FM-15+0032ETMN V0202501N005112200019N0112651N1+00601+00401999999ADDGA1041+003001999GA2041+069001999GF104991999999999999999999MA1102101999999REMMET067METAR ETMN 021720Z 25010KT 9999 SCT010 SCT230 06/04 Q1021 BLU/BLU/;
0151101360999992013010218204+53767+008667FM-15+0032ETMN V0202301N005110036019N0112651N1+00601+00401999999ADDGA1071+003601999GA2071+009001999GF107991999999999999999999MA1102101999999REMMET066METAR ETMN 021820Z 23010KT 9999 BKN012 BKN030 06/04 Q1021 GRN GRN;
0159101360999992013010218364+53767+008667FM-16+0032ETMN V0202401N005110036019N0112651N1+00601+00401999999ADDGA1071+003601999GA2071+009001999GF107991999999999999999999MA1102101999999REMMET074SPECI ETMN 021836Z 24010KT 9999 BKN012 BKN030 06/04 Q1021 GRN FCST CANCEL;
0159101360999992013010219004+53767+008667FM-12+0032ETMN V0202401N005010039019N0180001N1+00561+00451102181ADDGA1071+003901061GF107991071051004501999999MA1999999101791MD1210121+9999REMSYN076AAXX  02191 10136 42468 72405 10056 20045 30179 40218 52012 875// 333 87613;
0124101360999992013010219204+53767+008667FM-15+0032ETMN V0202301N004610036019N0112651N1+00601+00501999999ADDGA1071+003601999GF107991999999999999999999MA1102101999999REMMET055METAR ETMN 021920Z 23009KT 9999 BKN012 06/05 Q1021 GRN;
0159101360999992013010220004+53767+008667FM-12+0032ETMN V0202401N005010036019N0200001N1+00581+00451102211ADDGA1071+003601061GF108991071051004501999999MA1999999101821MD1210101+9999REMSYN076AAXX  02201 10136 42470 82405 10058 20045 30182 40221 52010 875// 333 87612;
0124101360999992013010220204+53767+008667FM-15+0032ETMN V0202301N005110036019N0112651N1+00601+00501999999ADDGA1081+003601999GF108991999999999999999999MA1102101999999REMMET055METAR ETMN 022020Z 23010KT 9999 OVC012 06/05 Q1021 GRN;
0180101360999992013010221204+53767+008667FM-15+0032ETMN V0202401N005110030019N0112651N1+00601+00501999999ADDGA1071+003001999GA2071+012001999GA3081+018001999GF108991999999999999999999MA1102101999999MW1611REMMET073METAR ETMN 022120Z 24010KT 9999 -RA BKN010 BKN040 OVC065 06/05 Q1021 GRN;
0193101360999992013010222004+53767+008667FM-12+0032ETMN V0202401N006010027019N0080001N1+00561+00491102151ADDAY161999AY261999GA1051+002701071GF108991081051002501999999MA1999999101761MD1810031+9999MW1601REMSYN088AAXX  02221 10136 41358 82406 10056 20049 30176 40215 58003 76066 885// 333 85709 88641;
0173101360999992013010222204+53767+008667FM-15+0032ETMN V0202301N005710015019N0040001N1+00601+00601999999ADDGA1071+001501999GA2081+006601999GF108991999999999999999999MA1102101999999MW1101MW2531MW3631REMMET070METAR ETMN 022220Z 23011KT 4000 RADZ BR BKN005 OVC022 06/06 Q1021 YLO;
0193101360999992013010223004+53767+008667FM-12+0032ETMN V0202301N006010015019N0032001N1+00551+00551102101ADDAY161999AY261999GA1071+001501071GF108991071071001501021999MA1999999101711MD1610111+9999MW1591REMSYN088AAXX  02231 10136 41232 82306 10055 20055 30171 40210 56011 75966 8772/ 333 87705 88515;
0173101360999992013010223134+53767+008667FM-16+0032ETMN V0202301N006210012019N0025001N1+00601+00601999999ADDGA1071+001201999GA2081+003001999GF108991999999999999999999MA1102001999999MW1101MW2531MW3631REMMET070SPECI ETMN 022313Z 23012KT 2500 RADZ BR BKN004 OVC010 06/06 Q1020 YLO;
0178101360999992013010223204+53767+008667FM-15+0032ETMN V0202301N006710009019N0020001N1+00601+00601999999ADDGA1071+000901999GA2081+002701999GF108991999999999999999999MA1102001999999MW1101MW2531MW3631REMMET075METAR ETMN 022320Z 23013KT 2000 DZRA BR BKN003 OVC009 06/06 Q1020 RERA YLO;
0184101360999992013010223464+53767+008667FM-16+0032ETMN V0202301N006210009019N0030001N1+00601+00601999999ADDGA1071+000901999GA2081+002701999GF108991999999999999999999MA1102001999999MW1101MW2531MW3631OC101131REMMET073SPECI ETMN 022346Z 23012G22KT 3000 DZRA BR BKN003 OVC009 06/06 Q1020 YLO;
0179101360999992013010300204+53767+008667FM-15+0032ETMN V0202401N007710009019N0035001N1+00601+00601999999ADDGA1071+000901999GA2081+002701999GF108991999999999999999999MA1101901999999MW1101MW2511MW3611REMMET076METAR ETMN 030020Z 24015KT 3500 -DZRA BR BKN003 OVC009 06/06 Q1019 REDZ YLO;
0174101360999992013010300564+53767+008667FM-16+0032ETMN V0202401N007710012019N0050001N1+00601+00601999999ADDGA1071+001201999GA2081+003001999GF108991999999999999999999MA1101901999999MW1101MW2511MW3611REMMET071SPECI ETMN 030056Z 24015KT 5000 -RADZ BR BKN004 OVC010 06/06 Q1019 YLO;
0193101360999992013010301004+53767+008667FM-12+0032ETMN V0202401N008010009019N0040001N1+00581+00551101911ADDAY161011AY261011GA1071+000901071GF108991071071000751021999MA1999999101521MD1810241+9999MW1591REMSYN088AAXX  03011 10136 41140 82408 10058 20055 30152 40191 58024 75966 8772/ 333 87703 88510;
0151101360999992013010301204+53767+008667FM-15+0032ETMN V0202401N007710012019N0050001N1+00601+00601999999ADDGA1071+001201999GF107991999999999999999999MA1101901999999MW1101MW2511MW3611REMMET064METAR ETMN 030120Z 24015KT 5000 -DZRA BR BKN004 06/06 Q1019 YLO;
0150101360999992013010301374+53767+008667FM-16+0032ETMN V0202401N007710012019N0030001N1+00601+00601999999ADDGA1071+001201999GF107991999999999999999999MA1101901999999MW1101MW2531MW3631REMMET063SPECI ETMN 030137Z 24015KT 3000 RADZ BR BKN004 06/06 Q1019 YLO;
0187101360999992013010302004+53767+008667FM-12+0032ETMN V0202401N008010012019N0030001N1+00601+00561101921ADDAY161999AY251999GA1071+001201071GF108991071071001501999999MA1999999101531MD1810191+9999MW1591REMSYN082AAXX  03021 10136 41230 82408 10060 20056 30153 40192 58019 75965 877// 333 87704;
0150101360999992013010302204+53767+008667FM-15+0032ETMN V0202401N007210009019N0020001N1+00601+00601999999ADDGA1071+000901999GF107991999999999999999999MA1101801999999MW1101MW2531MW3631REMMET063METAR ETMN 030220Z 24014KT 2000 DZRA BR BKN003 06/06 Q1018 YLO;
0148101360999992013010303204+53767+008667FM-15+0032ETMN V0202501N008210009019N0035001N1+00701+00701999999ADDGA1071+000901999GF107991999999999999999999MA1101801999999MW1101MW2511REMMET067METAR ETMN 030320Z 25016KT 3500 -DZ BR BKN003 07/07 Q1018 REDZ YLO;
0142101360999992013010303424+53767+008667FM-16+0032ETMN V0202501N008710009019N0025001N1+00701+00701999999ADDGA1071+000901999GF107991999999999999999999MA1101801999999MW1101MW2531REMMET061SPECI ETMN 030342Z 25017KT 2500 DZ BR BKN003 07/07 Q1018 YLO;
0193101360999992013010304004+53767+008667FM-12+0032ETMN V0202601N009010009019N0022001N1+00691+00671101901ADDAY151999AY251999GA1071+000901071GF108991071071000751999999MA1999999101511MD1610011+9999MW1531REMSYN088AAXX  03041 10136 41122 82609 10069 20067 30151 40190 56001 75355 877// 333 87703 91113;
0156101360999992013010304204+53767+008667FM-15+0032ETMN V0202601N009310006019N0025001N1+00701+00701999999ADDGA1071+000601999GF107991999999999999999999MA1101801999999MW1101MW2531REMMET075METAR ETMN 030420Z 26018KT 2500 DZ BR BKN002 07/07 Q1018 AMB YLO TEMPO AMB;
0193101360999992013010305004+53767+008667FM-12+0032ETMN V0202601N010010006019N0025001N1+00771+00751101881ADDAY151999AY251999GA1071+000601071GF108991071071000751999999MA1999999101491MD1710041+9999MW1531REMSYN088AAXX  03051 10136 41125 82610 10077 20075 30149 40188 57004 75355 877// 333 87702 91114;
0162101360999992013010305204+53767+008667FM-15+0032ETMN V0202601N008710006019N0040001N1+00801+00801999999ADDGA1071+000601999GF107991999999999999999999MA1101801999999MW1101MW2511REMMET081METAR ETMN 030520Z 26017KT 4000 -DZ BR BKN002 08/08 Q1018 REDZ AMB YLO TEMPO AMB;
0147101360999992013010305374+53767+008667FM-16+0032ETMN V0202701N008210009019N0050001N1+00801+00801999999ADDGA1071+000901999GF107991999999999999999999MA1101801999999MW1101REMMET072SPECI ETMN 030537Z 27016KT 5000 BR BKN003 08/08 Q1018 YLO YLO TEMPO AMB;
0165101360999992013010306204+53767+008667FM-15+0032ETMN V0202701N008710009019N0030001N1+00801+00801999999ADDGA1071+000901999GF107991999999999999999999MA1101901999999MW1101MW2511MW3611REMMET078METAR ETMN 030620Z 27017KT 3000 -DZRA BR BKN003 08/08 Q1019 YLO YLO TEMPO AMB;
0221101360999992013010308004+53767+008667FM-12+0032ETMN V0202701N010010015019N0060001N1+00861+00791102011ADDAY121999AY221999GA1051+001501071GA2071+002701071GF108991071061001501999999MA1999999101621MD1210131+9999MW1101REMSYN100AAXX  03081 10136 41256 82710 10086 20079 30162 40201 52013 71022 876// 333 85705 87709 91015 91115;
0161101360999992013010308204+53767+008667FM-15+0032ETMN V0202801N010310015019N0060001N1+00901+00801999999ADDGA1071+001501999GA2071+002701999GF107991999999999999999999MA1102001999999REMMET076METAR ETMN 030820Z 28020KT 6000 BKN005 BKN009 09/08 Q1020 YLO GRN TEMPO YLO;
0161101360999992013010309204+53767+008667FM-15+0032ETMN V0202801N009810015019N0070001N1+00901+00801999999ADDGA1071+001501999GA2071+002701999GF107991999999999999999999MA1102101999999REMMET076METAR ETMN 030920Z 28019KT 7000 BKN005 BKN009 09/08 Q1021 YLO GRN TEMPO YLO;
0235101360999992013010310004+53767+008667FM-12+0032ETMN V0202701N010010015019N0070001N1+00851+00781102161ADDAY121011AY221011GA1051+001501071GA2071+003001071GF108991071061001501999999MA1999999101771MD1210191+9999MW1101OD149901409999REMSYN100AAXX  03101 10136 41257 82710 10085 20078 30177 40216 52019 71022 876// 333 85705 87710 91114 91211;
0161101360999992013010310204+53767+008667FM-15+0032ETMN V0202801N010310015019N0080001N1+00901+00801999999ADDGA1071+001501999GA2071+003301999GF107991999999999999999999MA1102101999999REMMET076METAR ETMN 031020Z 28020KT 8000 BKN005 BKN011 09/08 Q1021 YLO GRN TEMPO YLO;
0149101360999992013010310494+53767+008667FM-16+0032ETMN V0202801N009310018019N0090001N1+00901+00801999999ADDGA1071+001801999GF107991999999999999999999MA1102201999999OC101441REMMET072SPECI ETMN 031049Z 28018G28KT 9000 BKN006 09/08 Q1022 YLO GRN TEMPO YLO;
0171101360999992013010311004+53767+008667FM-12+0032ETMN V0202801N009010018019N0090001N1+00861+00791102191ADDGA1071+001801071GF107991071061001501999999MA1999999101801MD1210181+9999REMSYN088AAXX  03111 10136 42259 72809 10086 20079 30180 40219 52018 876// 333 87706 91014 91114;
0151101360999992013010311204+53767+008667FM-15+0032ETMN V0202801N010310045019N0090001N1+00901+00801999999ADDGA1041+001801999GA2071+004501999GF107991999999999999999999MA1102201999999REMMET066METAR ETMN 031120Z 28020KT 9000 SCT006 BKN015 09/08 Q1022 WHT GRN;
0151101360999992013010311504+53767+008667FM-16+0032ETMN V0202901N009810021019N0080001N1+00901+00801999999ADDGA1071+002101999GA2071+004801999GF107991999999999999999999MA1102201999999REMMET066SPECI ETMN 031150Z 29019KT 8000 BKN007 BKN016 09/08 Q1022 GRN GRN;
0163101360999992013010312204+53767+008667FM-15+0032ETMN V0202801N011312200019N0090001N1+00901+00801999999ADDGA1041+001801999GA2041+084001999GF104991999999999999999999MA1102201999999OC101651REMMET070METAR ETMN 031220Z 28022G32KT 9000 SCT006 SCT280 09/08 Q1022 BLU/BLU/;
0207101360999992013010313004+53767+008667FM-12+0032ETMN V0202801N010010048019N0090001N1+00851+00751102251ADDGA1041+001801071GA2061+004801061GF107991071051001501999999MA1999999101861MD1010091+9999OD149901609999REMSYN094AAXX  03131 10136 42259 72810 10085 20075 30186 40225 50009 875// 333 84706 86616 91116 91211;
0151101360999992013010313204+53767+008667FM-15+0032ETMN V0202901N010810033019N0090001N1+00901+00801999999ADDGA1041+001801999GA2071+003301999GF107991999999999999999999MA1102201999999REMMET066METAR ETMN 031320Z 29021KT 9000 SCT006 BKN011 09/08 Q1022 GRN GRN;
0291101360999992013010314004+53767+008667FM-12+0032ETMN V0202801N009010021019N0070001N1+00821+00731102331ADDAY121021AY221021GA1051+002101071GA2071+003301061GF107991071051002501999999MA1999999101941MD1210141+9999MW1101OD149901509999OD259901109999REMSYN142AAXX  03141 10136 41357 72809 10082 20073 30194 40233 52014 71022 875// 333 85707 87611 91115 91211 555 BOT 10080 20078 30071 40056 999 31///;
0161101360999992013010314204+53767+008667FM-15+0032ETMN V0202901N009310015019N0070001N1+00801+00701999999ADDGA1071+001501999GA2071+002701999GF107991999999999999999999MA1102301999999MW1511REMMET070METAR ETMN 031420Z 29018KT 7000 -DZ BKN005 BKN009 08/07 Q1023 YLO GRN;
0161101360999992013010314394+53767+008667FM-16+0032ETMN V0202801N008210084019N0070001N1+00801+00701999999ADDGA1041+001201999GA2071+008401999GF107991999999999999999999MA1102401999999REMMET076SPECI ETMN 031439Z 28016KT 7000 SCT004 BKN028 08/07 Q1024 WHT GRN BECMG WHT;
0161101360999992013010315204+53767+008667FM-15+0032ETMN V0202801N007210099019N0070001N1+00701+00701999999ADDGA1041+001501999GA2071+009901999GF107991999999999999999999MA1102401999999REMMET076METAR ETMN 031520Z 28014KT 7000 SCT005 BKN033 07/07 Q1024 WHT GRN BECMG WHT;
0215101360999992013010316004+53767+008667FM-12+0032ETMN V0202901N009010102019N0070001N1+00751+00681102531ADDAY121999AY221999GA1021+001801071GA2031+010201061GF107991071051001501999999MA1999999102141MD1210291+9999MW1101REMSYN094AAXX  03161 10136 41257 72909 10075 20068 30214 40253 52029 71022 875// 333 82706 83634 87648;
0161101360999992013010316204+53767+008667FM-15+0032ETMN V0202901N008210150019N0070001N1+00701+00701999999ADDGA1021+001801999GA2071+015001999GF107991999999999999999999MA1102511999999REMMET076METAR ETMN 031620Z 29016KT 7000 FEW006 BKN050 07/07 Q1025 WHT GRN BECMG WHT;
0165101360999992013010317004+53767+008667FM-12+0032ETMN V0202801N00901001201CN0080001N1+00731+00671102581ADDGA1021+001201071GF107991071051001501999999MA1999999102191MD1110241+9999REMSYN082AAXX  03171 10136 42258 72809 10073 20067 30219 40258 51024 875// 333 82704 87648;
0151101360999992013010317204+53767+008667FM-15+0032ETMN V0202901N009810480019N0090001N1+00801+00701999999ADDGA1041+015001999GA2071+048001999GF107991999999999999999999MA1102511999999REMMET066METAR ETMN 031720Z 29019KT 9000 SCT050 BKN160 08/07 Q1025 BLU BLU;
0159101360999992013010318204+53767+008667FM-15+0032ETMN V0202801N007710480019N0112651N1+00701+00601999999ADDGA1021+015001999GA2071+048001999GF107991999999999999999999MA1102611999999REMMET074METAR ETMN 031820Z 28015KT 9999 FEW050 BKN160 07/06 Q1026 BLU FCST CANCEL;
0165101360999992013010319004+53767+008667FM-12+0032ETMN V0202901N00801075001CN0100001N1+00671+00601102751ADDGA1011+002101071GF105991011061002501031011MA1999999102361MD1310221+9999REMSYN082AAXX  03191 10136 42360 52908 10067 20060 30236 40275 53022 81631 333 81707 83366;
0147101360999992013010319204+53767+008667FM-15+0032ETMN V0202901N007710150019N0090001N1+00701+00701999999ADDGA1021+002101999GA2071+015001999GF107991999999999999999999MA1102711999999REMMET062METAR ETMN 031920Z 29015KT 9000 FEW007 BKN050 07/07 Q1027 BLU;
0159101360999992013010320004+53767+008667FM-12+0032ETMN V0202901N007012200019N0120001N1+00651+00581102801ADDGA1021+015001061GF103991021051017501001011MA1999999102411MD1210231+9999REMSYN076AAXX  03201 10136 42762 32907 10065 20058 30241 40280 52023 82501 333 82650;
0125101360999992013010320204+53767+008667FM-15+0032ETMN V0202901N006212200019N0112651N1+00601+00601999999ADDGA1021+013501999GF102991999999999999999999MA1102811999999REMMET056METAR ETMN 032020Z 29012KT 9999 FEW045 06/06 Q1028 BLU/;
0125101360999992013010321204+53767+008667FM-15+0032ETMN V0202901N005712200019N0112651N1+00601+00601999999ADDGA1021+013501999GF102991999999999999999999MA1102811999999REMMET056METAR ETMN 032120Z 29011KT 9999 FEW045 06/06 Q1028 BLU/;
0159101360999992013010322004+53767+008667FM-12+0032ETMN V0202801N006012200019N0120001N1+00591+00531102941ADDGA1011+013501061GF101991011051012501001011MA1999999102541MD1210181+9999REMSYN076AAXX  03221 10136 42662 12806 10059 20053 30254 40294 52018 81501 333 81645;
0125101360999992013010322204+53767+008667FM-15+0032ETMN V0202801N006212200019N0112651N1+00601+00501999999ADDGA1021+072001999GF102991999999999999999999MA1102911999999REMMET056METAR ETMN 032220Z 28012KT 9999 FEW240 06/05 Q1029 BLU/;
0159101360999992013010323004+53767+008667FM-12+0032ETMN V0202901N007012200019N0120001N1+00581+00521102981ADDGA1011+069001001GF101991001001999999001011MA1999999102581MD1210171+9999REMSYN076AAXX  03231 10136 42962 12907 10058 20052 30258 40298 52017 80001 333 81073;
0125101360999992013010323204+53767+008667FM-15+0032ETMN V0202901N006212200019N0112651N1+00601+00501999999ADDGA1021+069001999GF102991999999999999999999MA1102911999999REMMET056METAR ETMN 032320Z 29012KT 9999 FEW230 06/05 Q1029 BLU/;
0125101360999992013010400204+53767+008667FM-15+0032ETMN V0202701N005712200019N0112651N1+00601+00601999999ADDGA1041+001201999GF104991999999999999999999MA1102911999999REMMET056METAR ETMN 040020Z 27011KT 9999 SCT004 06/06 Q1029 BLU/;
0124101360999992013010400414+53767+008667FM-16+0032ETMN V0202601N005710009019N0080001N1+00601+00601999999ADDGA1071+000901999GF107991999999999999999999MA1102911999999REMMET055SPECI ETMN 040041Z 26011KT 8000 BKN003 06/06 Q1029 YLO;
0159101360999992013010401004+53767+008667FM-12+0032ETMN V0202601N005010009019N0080001N1+00571+00571103001ADDGA1071+000901071GF107991071061000751999999MA1999999102601MD1110061+9999REMSYN076AAXX  04011 10136 42158 72605 10057 20057 30260 40300 51006 876// 333 87703;
0132101360999992013010401144+53767+008667FM-16+0032ETMN V0202601N005710001519N0006001N1+00501+00501999999ADDGA1091+000151999GF109991999999000251999999MA1102911999999MW1451REMMET057SPECI ETMN 040114Z 26011KT 0600 FG VV000 05/05 Q1029 RED;
0132101360999992013010401204+53767+008667FM-15+0032ETMN V0202601N005110003019N0006001N1+00501+00501999999ADDGA1091+000301999GF109991999999000251999999MA1102911999999MW1451REMMET057METAR ETMN 040120Z 26010KT 0600 FG VV001 05/05 Q1029 RED;
0133101360999992013010401444+53767+008667FM-16+0032ETMN V0202601N006210003019N0010001N1+00601+00601999999ADDGA1081+000301999GF108991999999999999999999MA1102911999999MW1101REMMET058SPECI ETMN 040144Z 26012KT 1000 BR OVC001 06/06 Q1029 RED;
0187101360999992013010402004+53767+008667FM-12+0032ETMN V0202601N007010003019N0010001N1+00561+00551102971ADDAY141999AY221999GA1081+000301071GF108991081061000251999999MA1999999102571MD1810011+9999MW1281REMSYN082AAXX  04021 10136 41010 82607 10056 20055 30257 40297 58001 72842 886// 333 88701;
0132101360999992013010402204+53767+008667FM-15+0032ETMN V0202601N006710003019N0009001N1+00601+00601999999ADDGA1091+000301999GF109991999999000251999999MA1102911999999MW1451REMMET057METAR ETMN 040220Z 26013KT 0900 FG VV001 06/06 Q1029 RED;
0133101360999992013010403204+53767+008667FM-15+0032ETMN V0202601N006210006019N0030001N1+00701+00701999999ADDGA1081+000601999GF108991999999999999999999MA1102911999999MW1101REMMET058METAR ETMN 040320Z 26012KT 3000 BR OVC002 07/07 Q1029 AMB;
0133101360999992013010403504+53767+008667FM-16+0032ETMN V0202501N005110003019N0020001N1+00701+00701999999ADDGA1081+000301999GF108991999999999999999999MA1102911999999MW1101REMMET058SPECI ETMN 040350Z 25010KT 2000 BR OVC001 07/07 Q1029 RED;
0187101360999992013010404004+53767+008667FM-12+0032ETMN V0202501N005010003019N0020001N1+00661+00651102921ADDAY121999AY221999GA1081+000301071GF108991081061000251999999MA1999999102521MD1710081+9999MW1281REMSYN082AAXX  04041 10136 41020 82505 10066 20065 30252 40292 57008 72822 886// 333 88701;
0133101360999992013010404204+53767+008667FM-15+0032ETMN V0202601N005710003019N0018001N1+00701+00701999999ADDGA1081+000301999GF108991999999999999999999MA1102911999999MW1101REMMET058METAR ETMN 040420Z 26011KT 1800 BR OVC001 07/07 Q1029 RED;
0133101360999992013010404414+53767+008667FM-16+0032ETMN V0202701N006710003019N0011001N1+00701+00701999999ADDGA1081+000301999GF108991999999999999999999MA1102911999999MW1101REMMET058SPECI ETMN 040441Z 27013KT 1100 BR OVC001 07/07 Q1029 RED;
0181101360999992013010405004+53767+008667FM-12+0032ETMN V0202601N006010003019N0008001N1+00671+00661102881ADDAY121999AY221999GA1091+000301999GF109991091999999999999999MA1999999102491MD1810081+9999MW1471REMSYN076AAXX  04051 10136 41/08 92606 10067 20066 30249 40288 58008 74722 333 89/01;
0146101360999992013010405204+53767+008667FM-15+0032ETMN V0202701N007210003019N0004001N1+00701+00701999999ADDGA1091+000301999GF109991999999000251999999MA1102811999999MW1451REMMET071METAR ETMN 040520Z 27014KT 0400 FG VV001 07/07 Q1028 RED AMB TEMPO RED;
0167101360999992013010406204+53767+008667FM-15+0032ETMN V0202701N007210003019N0004001N1+00701+00701999999ADDED126U04009GA1091+000301999GF109991999999000251999999MA1102811999999MW1451REMMET081METAR ETMN 040620Z 27014KT 0400 R26/0400N FG VV001 07/07 Q1028 RED AMB TEMPO RED;
0181101360999992013010407004+53767+008667FM-12+0032ETMN V0202701N006010003019N0004001N1+00711+00701102861ADDAY141999AY241999GA1091+000301999GF109991091999999999999999MA1999999102471MD1710051+9999MW1451REMSYN076AAXX  04071 10136 41/04 92706 10071 20070 30247 40286 57005 74544 333 89/01;
0167101360999992013010407204+53767+008667FM-15+0032ETMN V0202701N006210003019N0004001N1+00701+00701999999ADDED126U04509GA1091+000301999GF109991999999000251999999MA1102811999999MW1451REMMET081METAR ETMN 040720Z 27012KT 0400 R26/0450N FG VV001 07/07 Q1028 RED AMB TEMPO RED;
0181101360999992013010408004+53767+008667FM-12+0032ETMN V0202701N007010003019N0004001N1+00711+00701102841ADDAY141999AY241999GA1091+000301999GF109991091999999999999999MA1999999102451MD1810041+9999MW1451REMSYN076AAXX  04081 10136 41/04 92707 10071 20070 30245 40284 58004 74544 333 89/01;
0158101360999992013010408084+53767+008667FM-16+0032ETMN V0202601N007710003019N0006001N1+00701+00701999999ADDED126U04009GA1081+000301999GF108991999999999999999999MA1102811999999MW1441REMMET072SPECI ETMN 040808Z 26015KT 0600 R26/0400N FG OVC001 07/07 Q1028 RED RED;
0168101360999992013010408204+53767+008667FM-15+0032ETMN V0202701N007210003019N0010001N1+00701+00701999999ADDED126U19009GA1081+000301999GF108991999999999999999999MA1102811999999MW1101REMMET082METAR ETMN 040820Z 27014KT 1000 R26/1900N BR OVC001 07/07 Q1028 RED RED TEMPO AMB;
0158101360999992013010409204+53767+008667FM-15+0032ETMN V0202701N007710003019N0011001N1+00701+00701999999ADDED126U16009GA1081+000301999GF108991999999999999999999MA1102811999999MW1101REMMET072METAR ETMN 040920Z 27015KT 1100 R26/1600N BR OVC001 07/07 Q1028 RED RED;
0168101360999992013010409384+53767+008667FM-16+0032ETMN V0202701N007710006019N0017001N1+00701+00701999999ADDED126U26009GA1081+000601999GF108991999999999999999999MA1102811999999MW1101REMMET082SPECI ETMN 040938Z 27015KT 1700 R26/2600N BR OVC002 07/07 Q1028 AMB AMB TEMPO RED;
0147101360999992013010409564+53767+008667FM-16+0032ETMN V0202701N006710009019N0032001N1+00801+00801999999ADDGA1081+000901999GF108991999999999999999999MA1102811999999MW1101REMMET072SPECI ETMN 040956Z 27013KT 3200 BR OVC003 08/08 Q1028 YLO YLO TEMPO AMB;
0187101360999992013010410004+53767+008667FM-12+0032ETMN V0202701N007010009019N0032001N1+00751+00751102861ADDAY121011AY221011GA1081+000901071GF108991081061000751999999MA1999999102471MD1510001+9999MW1281REMSYN082AAXX  04101 10136 41132 82707 10075 20075 30247 40286 55000 72822 886// 333 88703;
0147101360999992013010410204+53767+008667FM-15+0032ETMN V0202801N007710012019N0048001N1+00801+00801999999ADDGA1081+001201999GF108991999999999999999999MA1102811999999MW1101REMMET072METAR ETMN 041020Z 28015KT 4800 BR OVC004 08/08 Q1028 YLO YLO TEMPO AMB;
0187101360999992013010411004+53767+008667FM-12+0032ETMN V0202801N009010009019N0045001N1+00791+00781102861ADDAY121999AY221999GA1081+000901071GF108991081061000751999999MA1999999102471MD1310021+9999MW1101REMSYN082AAXX  04111 10136 41145 82809 10079 20078 30247 40286 53002 71022 886// 333 88703;
0158101360999992013010411204+53767+008667FM-15+0032ETMN V0202801N009310012019N0045001N1+00801+00801999999ADDGA1081+001201999GF108991999999999999999999MA1102811999999MW1101OC101441REMMET075METAR ETMN 041120Z 28018G28KT 4500 BR OVC004 08/08 Q1028 YLO YLO TEMPO AMB;
0155101360999992013010412204+53767+008667FM-15+0032ETMN V0202801N009810009019N0040001N1+00801+00801999999ADDGA1071+000901999GF107991999999999999999999MA1102811999999MW1101MW2511MW3611REMMET068METAR ETMN 041220Z 28019KT 4000 -RADZ BR BKN003 08/08 Q1028 YLO YLO;
0193101360999992013010413004+53767+008667FM-12+0032ETMN V0202801N009010009019N0045001N1+00791+00751102791ADDAY161999AY261999GA1071+000901071GF108991071061000751999999MA1999999102401MD1610061+9999MW1581REMSYN088AAXX  04131 10136 41145 82809 10079 20075 30240 40279 56006 75866 876// 333 87703 91114;
0137101360999992013010413204+53767+008667FM-15+0032ETMN V0202901N010310012019N0048001N1+00801+00801999999ADDGA1071+001201999GF107991999999999999999999MA1102811999999MW1101REMMET062METAR ETMN 041320Z 29020KT 4800 BR BKN004 08/08 Q1028 YLO YLO;
0213101360999992013010414004+53767+008667FM-12+0032ETMN V0202901N010010009019N0040001N1+00751+00751102821ADDAY121999AY221999GA1071+000901071GF108991071061000751999999MA1999999102431MD1610051+9999MW1211OD149901609999REMSYN094AAXX  04141 10136 41140 82910 10075 20075 30243 40282 56005 72122 876// 333 87703 91116 91211;
0145101360999992013010414204+53767+008667FM-15+0032ETMN V0202801N009810009019N0040001N1+00801+00801999999ADDGA1071+000901999GF107991999999999999999999MA1102711999999MW1101REMMET070METAR ETMN 041420Z 28019KT 4000 BR BKN003 08/08 Q1027 YLO FCST CANCEL;
0133101360999992013010414344+53767+008667FM-16+0032ETMN V0202801N009810009019N0028001N1+00701+00701999999ADDGA1071+000901999GF107991999999999999999999MA1102711999999MW1101REMMET058SPECI ETMN 041434Z 28019KT 2800 BR BKN003 07/07 Q1027 YLO;
0133101360999992013010415204+53767+008667FM-15+0032ETMN V0202901N009310009019N0030001N1+00701+00701999999ADDGA1071+000901999GF107991999999999999999999MA1102711999999MW1101REMMET058METAR ETMN 041520Z 29018KT 3000 BR BKN003 07/07 Q1027 YLO;
0193101360999992013010416004+53767+008667FM-12+0032ETMN V0202901N009010009019N0040001N1+00711+00691102801ADDAY121999AY221999GA1071+000901071GF108991071061000751999999MA1999999102411MD1210031+9999MW1101REMSYN088AAXX  04161 10136 41140 82909 10071 20069 30241 40280 52003 71022 876// 333 87703 91113;
0133101360999992013010416204+53767+008667FM-15+0032ETMN V0202901N008210009019N0040001N1+00701+00701999999ADDGA1071+000901999GF107991999999999999999999MA1102711999999MW1101REMMET058METAR ETMN 041620Z 29016KT 4000 BR BKN003 07/07 Q1027 YLO;
0187101360999992013010417004+53767+008667FM-12+0032ETMN V0202801N008010009019N0040001N1+00701+00681102791ADDAY121999AY221999GA1071+000901071GF108991071061000751999999MA1999999102401MD1710021+9999MW1101REMSYN082AAXX  04171 10136 41140 82808 10070 20068 30240 40279 57002 71022 876// 333 87703;
0133101360999992013010417204+53767+008667FM-15+0032ETMN V0202901N008210009019N0045001N1+00701+00701999999ADDGA1071+000901999GF107991999999999999999999MA1102711999999MW1101REMMET058METAR ETMN 041720Z 29016KT 4500 BR BKN003 07/07 Q1027 YLO;
0133101360999992013010418204+53767+008667FM-15+0032ETMN V0202801N008210009019N0050001N1+00701+00701999999ADDGA1071+000901999GF107991999999999999999999MA1102711999999MW1101REMMET058METAR ETMN 041820Z 28016KT 5000 BR BKN003 07/07 Q1027 YLO;
0187101360999992013010419004+53767+008667FM-12+0032ETMN V0202901N009010012019N0050001N1+00711+00681102771ADDAY121999AY221999GA1071+001201071GF108991071061001501999999MA1999999102381MD1610051+9999MW1101REMSYN082AAXX  04191 10136 41250 82909 10071 20068 30238 40277 56005 71022 876// 333 87704;
0143101360999992013010419204+53767+008667FM-15+0032ETMN V0202901N007710009019N0050001N1+00701+00701999999ADDGA1071+000901999GF107991999999999999999999MA1102711999999MW1101MW2611REMMET062METAR ETMN 041920Z 29015KT 5000 -RA BR BKN003 07/07 Q1027 YLO;
0187101360999992013010420004+53767+008667FM-12+0032ETMN V0202901N007010012019N0050001N1+00711+00681102771ADDAY161999AY221999GA1071+001201071GF108991071061001501999999MA1999999102381MD1610021+9999MW1611REMSYN082AAXX  04201 10136 41250 82907 10071 20068 30238 40277 56002 76162 876// 333 87704;
0138101360999992013010420204+53767+008667FM-15+0032ETMN V0202901N007710012019N0050001N1+00701+00701999999ADDGA1071+001201999GF107991999999999999999999MA1102711999999MW1101REMMET063METAR ETMN 042020Z 29015KT 5000 BR BKN004 07/07 Q1027 RERA YLO;
0133101360999992013010421204+53767+008667FM-15+0032ETMN V0202901N007210009019N0050001N1+00701+00701999999ADDGA1071+000901999GF107991999999999999999999MA1102711999999MW1101REMMET058METAR ETMN 042120Z 29014KT 5000 BR BKN003 07/07 Q1027 YLO;
0187101360999992013010422004+53767+008667FM-12+0032ETMN V0202901N007010009019N0050001N1+00681+00651102781ADDAY121999AY221999GA1071+000901071GF108991071061000751999999MA1999999102391MD1310011+9999MW1211REMSYN082AAXX  04221 10136 41150 82907 10068 20065 30239 40278 53001 72122 876// 333 87703;
0133101360999992013010422204+53767+008667FM-15+0032ETMN V0202801N007710009019N0045001N1+00701+00701999999ADDGA1071+000901999GF107991999999999999999999MA1102711999999MW1101REMMET058METAR ETMN 042220Z 28015KT 4500 BR BKN003 07/07 Q1027 YLO;
0187101360999992013010423004+53767+008667FM-12+0032ETMN V0202901N009010009019N0045001N1+00661+00661102761ADDAY121999AY221999GA1071+000901071GF108991071061000751999999MA1999999102371MD1510011+9999MW1611REMSYN082AAXX  04231 10136 41145 82909 10066 20066 30237 40276 55001 76122 876// 333 87703;
0143101360999992013010423204+53767+008667FM-15+0032ETMN V0202901N008210009019N0045001N1+00701+00701999999ADDGA1071+000901999GF107991999999999999999999MA1102711999999MW1101MW2611REMMET062METAR ETMN 042320Z 29016KT 4500 -RA BR BKN003 07/07 Q1027 YLO;
0143101360999992013010500204+53767+008667FM-15+0032ETMN V0202901N007710009019N0045001N1+00701+00701999999ADDGA1071+000901999GF107991999999999999999999MA1102711999999MW1101MW2611REMMET062METAR ETMN 050020Z 29015KT 4500 -RA BR BKN003 07/07 Q1027 YLO;
0187101360999992013010501004+53767+008667FM-12+0032ETMN V0202901N008010009019N0045001N1+00651+00651102771ADDAY161999AY221999GA1071+000901071GF108991071061000751999999MA1999999102381MD1810011+9999MW1211REMSYN082AAXX  05011 10136 41145 82908 10065 20065 30238 40277 58001 72162 876// 333 87703;
0133101360999992013010501204+53767+008667FM-15+0032ETMN V0202901N006710009019N0045001N1+00701+00701999999ADDGA1071+000901999GF107991999999999999999999MA1102711999999MW1101REMMET058METAR ETMN 050120Z 29013KT 4500 BR BKN003 07/07 Q1027 YLO;
0187101360999992013010502004+53767+008667FM-12+0032ETMN V0203001N007010009019N0045001N1+00661+00651102801ADDAY121999AY221999GA1071+000901071GF108991071061000751999999MA1999999102411MD1210041+9999MW1611REMSYN082AAXX  05021 10136 41145 83007 10066 20065 30241 40280 52004 76122 876// 333 87703;
0142101360999992013010502204+53767+008667FM-15+0032ETMN V0203001N005710009019N0045001N1+00701+00701999999ADDGA1071+000901999GF107991999999999999999999MA1102811999999MW1101MW2631REMMET061METAR ETMN 050220Z 30011KT 4500 RA BR BKN003 07/07 Q1028 YLO;
0148101360999992013010503004+53767+008667FM-15+0032ETMN V0203001N006210009019N0045001N1+00701+00701999999ADDGA1071+000901999GF107991999999999999999999MA1102811999999MW1101MW2511REMMET067SPECI ETMN 050258Z 30012KT 4500 -DZ BR BKN003 07/07 Q1028 RERA YLO;
0148101360999992013010503204+53767+008667FM-15+0032ETMN V0203001N005110006019N0011001N1+00701+00701999999ADDGA1071+000601999GF107991999999999999999999MA1102811999999MW1101MW2511REMMET067METAR ETMN 050320Z 30010KT 1100 -DZ BR BKN002 07/07 Q1028 RERA AMB;
0143101360999992013010503544+53767+008667FM-16+0032ETMN V0202901N004110003019N0007001N1+00701+00701999999ADDGA1071+000301999GF107991999999999999999999MA1102811999999MW1441MW2511REMMET062SPECI ETMN 050354Z 29008KT 0700 -DZ FG BKN001 07/07 Q1028 RED;
0187101360999992013010504004+53767+008667FM-12+0032ETMN V0202901N004010003019N0007001N1+00661+00661102861ADDAY151011AY241011GA1071+000301071GF108991071061000251999999MA1999999102471MD1210091+9999MW1511REMSYN082AAXX  05041 10136 41007 82904 10066 20066 30247 40286 52009 75154 876// 333 87701;
0142101360999992013010504204+53767+008667FM-15+0032ETMN V0202901N004110003019N0005001N1+00701+00701999999ADDGA1091+000301999GF109991999999000251999999MA1102811999999MW1451MW2511REMMET061METAR ETMN 050420Z 29008KT 0500 -DZ FG VV001 07/07 Q1028 RED;
0181101360999992013010505004+53767+008667FM-12+0032ETMN V0202801N005010003019N0005001N1+00641+00631102901ADDAY151999AY241999GA1091+000301999GF109991091999999999999999MA1999999102501MD1210091+9999MW1511REMSYN076AAXX  05051 10136 41/05 92805 10064 20063 30250 40290 52009 75154 333 89/01;
0142101360999992013010505204+53767+008667FM-15+0032ETMN V0202901N005110003019N0005001N1+00601+00601999999ADDGA1091+000301999GF109991999999000251999999MA1102811999999MW1451MW2511REMMET061METAR ETMN 050520Z 29010KT 0500 -DZ FG VV001 06/06 Q1028 RED;
0142101360999992013010506204+53767+008667FM-15+0032ETMN V0203001N005110001519N0004001N1+00701+00701999999ADDGA1091+000151999GF109991999999000251999999MA1102911999999MW1451MW2511REMMET061METAR ETMN 050620Z 30010KT 0400 -DZ FG VV000 07/07 Q1029 RED;
0181101360999992013010507004+53767+008667FM-12+0032ETMN V0203001N005010001519N0004001N1+00671+00671102971ADDAY151999AY251999GA1091+000151999GF109991091999999999999999MA1999999102571MD1310101+9999MW1511REMSYN076AAXX  05071 10136 41/04 93005 10067 20067 30257 40297 53010 75155 333 89/00;
0142101360999992013010507204+53767+008667FM-15+0032ETMN V0203001N005710001519N0003001N1+00701+00701999999ADDGA1091+000151999GF109991999999000251999999MA1102911999999MW1451MW2511REMMET061METAR ETMN 050720Z 30011KT 0300 -DZ FG VV000 07/07 Q1029 RED;
0181101360999992013010508004+53767+008667FM-12+0032ETMN V0203101N006010001519N0003001N1+00681+00671102981ADDAY151999AY251999GA1091+000151999GF109991091999999999999999MA1999999102581MD1110091+9999MW1511REMSYN076AAXX  05081 10136 41/03 93106 10068 20067 30258 40298 51009 75155 333 89/00;
0132101360999992013010508204+53767+008667FM-15+0032ETMN V0203101N005710003019N0004001N1+00701+00701999999ADDGA1091+000301999GF109991999999000251999999MA1102911999999MW1451REMMET057METAR ETMN 050820Z 31011KT 0400 FG VV001 07/07 Q1029 RED;
0142101360999992013010508544+53767+008667FM-16+0032ETMN V0203001N006210003019N0006001N1+00701+00701999999ADDGA1091+000301999GF109991999999000251999999MA1102911999999MW1451MW2511REMMET061SPECI ETMN 050854Z 30012KT 0600 -DZ FG VV001 07/07 Q1029 RED;
0132101360999992013010509204+53767+008667FM-15+0032ETMN V0203101N005710003019N0004001N1+00701+00701999999ADDGA1091+000301999GF109991999999000251999999MA1103011999999MW1451REMMET057METAR ETMN 050920Z 31011KT 0400 FG VV001 07/07 Q1030 RED;
0181101360999992013010510004+53767+008667FM-12+0032ETMN V0203101N006010001519N0004001N1+00691+00691103051ADDAY151999AY241999GA1091+000151999GF109991091999999999999999MA1999999102651MD1110081+9999MW1511REMSYN076AAXX  05101 10136 41/04 93106 10069 20069 30265 40305 51008 75154 333 89/00;
0142101360999992013010510204+53767+008667FM-15+0032ETMN V0203101N006210006019N0008001N1+00701+00701999999ADDGA1091+000601999GF109991999999000251999999MA1103011999999MW1451MW2511REMMET061METAR ETMN 051020Z 31012KT 0800 -DZ FG VV002 07/07 Q1030 AMB;
0187101360999992013010511004+53767+008667FM-12+0032ETMN V0203001N007010006019N0009001N1+00681+00671103041ADDAY151999AY251999GA1071+000601071GF108991071061000751999999MA1999999102641MD1010051+9999MW1511REMSYN082AAXX  05111 10136 41109 83007 10068 20067 30264 40304 50005 75155 876// 333 87702;
0143101360999992013010511204+53767+008667FM-15+0032ETMN V0203001N006710006019N0012001N1+00701+00701999999ADDGA1081+000601999GF108991999999999999999999MA1103011999999MW1101MW2511REMMET062METAR ETMN 051120Z 30013KT 1200 -DZ BR OVC002 07/07 Q1030 AMB;
0142101360999992013010512004+53767+008667FM-15+0032ETMN V0203001N007210003019N0010001N1+00701+00701999999ADDGA1081+000301999GF108991999999999999999999MA1103011999999MW1101MW2531REMMET061SPECI ETMN 051158Z 30014KT 1000 DZ BR OVC001 07/07 Q1030 RED;
0171101360999992013010512204+53767+008667FM-15+0032ETMN V0203001N006710006019N0011001N1+00701+00701999999ADDGA1041+000301999GA2081+000601999GF108991999999999999999999MA1103011999999MW1101MW2511REMMET074METAR ETMN 051220Z 30013KT 1100 -DZ BR SCT001 OVC002 07/07 Q1030 REDZ AMB;
0187101360999992013010512394+53767+008667FM-16+0032ETMN V0203001N007210006019N0016001N1+00701+00701999999ADDED126U14009GA1021+000301999GA2071+000601999GF107991999999999999999999MA1103011999999MW1101MW2511REMMET079SPECI ETMN 051239Z 30014KT 1600 R26/1400N -DZ BR FEW001 BKN002 07/07 Q1030 AMB;
0187101360999992013010513004+53767+008667FM-12+0032ETMN V0203001N007010006019N0020001N1+00661+00651103031ADDAY151999AY251999GA1071+000601071GF108991071061000751999999MA1999999102631MD1610021+9999MW1511REMSYN082AAXX  05131 10136 41120 83007 10066 20065 30263 40303 56002 75155 876// 333 87702;
0164101360999992013010513204+53767+008667FM-15+0032ETMN V0203001N006710009019N0030001N1+00701+00701999999ADDED126U19009GA1071+000901999GF107991999999999999999999MA1103011999999MW1101MW2511REMMET072METAR ETMN 051320Z 30013KT 3000 R26/1900N -DZ BR BKN003 07/07 Q1030 YLO;
0124101360999992013010513334+53767+008667FM-16+0032ETMN V0203001N006710009019N0080001N1+00701+00701999999ADDGA1071+000901999GF107991999999999999999999MA1103011999999REMMET055SPECI ETMN 051333Z 30013KT 8000 BKN003 07/07 Q1030 YLO;
0187101360999992013010514004+53767+008667FM-12+0032ETMN V0203001N007010012019N0080001N1+00661+00651103031ADDAY151999AY221999GA1071+001201071GF107991071061001501999999MA1999999102631MD1610011+9999MW1201REMSYN082AAXX  05141 10136 41258 73007 10066 20065 30263 40303 56001 72052 876// 333 87704;
0147101360999992013010514054+53767+008667FM-16+0032ETMN V0203001N007710030019N0080001N1+00701+00701999999ADDGA1041+001801999GA2071+003001999GF107991999999999999999999MA1103011999999REMMET062SPECI ETMN 051405Z 30015KT 8000 SCT006 BKN010 07/07 Q1030 GRN;
0147101360999992013010514204+53767+008667FM-15+0032ETMN V0203001N006710039019N0112651N1+00701+00701999999ADDGA1021+002101999GA2071+003901999GF107991999999999999999999MA1103011999999REMMET062METAR ETMN 051420Z 30013KT 9999 FEW007 BKN013 07/07 Q1030 GRN;
0135101360999992013010514444+53767+008667FM-16+0032ETMN V0203001N005710006019N0015001N1+00601+00601999999ADDGA1071+000601999GF107991999999999999999999MA1103011999999MW1401REMMET060SPECI ETMN 051444Z 30011KT 1500 VCFG BKN002 06/06 Q1030 AMB;
0132101360999992013010515034+53767+008667FM-16+0032ETMN V0203001N005710003019N0007001N1+00601+00601999999ADDGA1091+000301999GF109991999999000251999999MA1103011999999MW1451REMMET057SPECI ETMN 051503Z 30011KT 0700 FG VV001 06/06 Q1030 RED;
0133101360999992013010515204+53767+008667FM-15+0032ETMN V0203001N005110006019N0020001N1+00601+00601999999ADDGA1071+000601999GF107991999999999999999999MA1103011999999MW1101REMMET058METAR ETMN 051520Z 30010KT 2000 BR BKN002 06/06 Q1030 AMB;
0147101360999992013010515424+53767+008667FM-16+0032ETMN V0203001N005710036019N0080001N1+00601+00601999999ADDGA1041+001501999GA2071+003601999GF107991999999999999999999MA1103011999999REMMET062SPECI ETMN 051542Z 30011KT 8000 SCT005 BKN012 06/06 Q1030 GRN;
0193101360999992013010516004+53767+008667FM-12+0032ETMN V0203101N00501001201CN0100001N1+00621+00611103071ADDAY121999AY221999GA1041+001501071GF107991071051001501999999MA1999999102671MD1310041+9999MW1281REMSYN088AAXX  05161 10136 41260 73105 10062 20061 30267 40307 53004 72822 875// 333 84705 87613;
0147101360999992013010516204+53767+008667FM-15+0032ETMN V0203001N005110015019N0070001N1+00601+00601999999ADDGA1071+001501999GA2071+003901999GF107991999999999999999999MA1103011999999REMMET062METAR ETMN 051620Z 30010KT 7000 BKN005 BKN013 06/06 Q1030 YLO;
0193101360999992013010517004+53767+008667FM-12+0032ETMN V0203001N004010009019N0050001N1+00611+00601103081ADDAY121999AY221999GA1051+000901071GF107991071061000751999999MA1999999102681MD1210041+9999MW1501REMSYN088AAXX  05171 10136 41150 73004 10061 20060 30268 40308 52004 75022 876// 333 85703 87709;
0143101360999992013010517204+53767+008667FM-15+0032ETMN V0203001N004110009019N0025001N1+00601+00601999999ADDGA1071+000901999GF107991999999999999999999MA1103011999999MW1101MW2511REMMET062METAR ETMN 051720Z 30008KT 2500 -DZ BR BKN003 06/06 Q1030 YLO;
0143101360999992013010518204+53767+008667FM-15+0032ETMN V0203001N004110012019N0040001N1+00601+00601999999ADDGA1071+001201999GF107991999999999999999999MA1103011999999MW1101MW2511REMMET062METAR ETMN 051820Z 30008KT 4000 -DZ BR BKN004 06/06 Q1030 YLO;
0187101360999992013010519004+53767+008667FM-12+0032ETMN V0202901N004010009019N0040001N1+00581+00571103021ADDAY151999AY251999GA1071+000901071GF108991071061000751999999MA1999999102621MD1810051+9999MW1511REMSYN082AAXX  05191 10136 41140 82904 10058 20057 30262 40302 58005 75155 876// 333 87703;
0143101360999992013010519204+53767+008667FM-15+0032ETMN V0202801N003610006019N0025001N1+00601+00601999999ADDGA1071+000601999GF107991999999999999999999MA1103011999999MW1101MW2511REMMET062METAR ETMN 051920Z 28007KT 2500 -DZ BR BKN002 06/06 Q1030 AMB;
0156101360999992013010519374+53767+008667FM-16+0032ETMN V0202801N004610030019N0050001N1+00601+00601999999ADDGA1021+000901999GA2071+003001999GF107991999999999999999999MA1102911999999MW1101REMMET065SPECI ETMN 051937Z 28009KT 5000 BR FEW003 BKN010 06/06 Q1029 GRN;
0193101360999992013010520004+53767+008667FM-12+0032ETMN V0202901N00501001201CN0050001N1+00571+00561103001ADDAY151999AY251999GA1031+001201071GF108991071061001501999999MA1999999102601MD1710081+9999MW1501REMSYN088AAXX  05201 10136 41250 82905 10057 20056 30260 40300 57008 75055 876// 333 83704 87707;
0166101360999992013010520204+53767+008667FM-15+0032ETMN V0202901N003610021019N0045001N1+00601+00601999999ADDGA1041+001201999GA2071+002101999GF107991999999999999999999MA1102911999999MW1101MW2511REMMET069METAR ETMN 052020Z 29007KT 4500 -DZ BR SCT004 BKN007 06/06 Q1029 GRN;
0166101360999992013010521034+53767+008667FM-16+0032ETMN V0202801N003110006019N0028001N1+00601+00601999999ADDGA1041+000301999GA2071+000601999GF107991999999999999999999MA1102911999999MW1101MW2511REMMET069SPECI ETMN 052103Z 28006KT 2800 -DZ BR SCT001 BKN002 06/06 Q1029 AMB;
0143101360999992013010521204+53767+008667FM-15+0032ETMN V0202801N004110003019N0025001N1+00601+00601999999ADDGA1071+000301999GF107991999999999999999999MA1102911999999MW1101MW2511REMMET062METAR ETMN 052120Z 28008KT 2500 -DZ BR BKN001 06/06 Q1029 RED;
0143101360999992013010521564+53767+008667FM-16+0032ETMN V0202801N004110006019N0030001N1+00601+00601999999ADDGA1071+000601999GF107991999999999999999999MA1102911999999MW1101MW2511REMMET062SPECI ETMN 052156Z 28008KT 3000 -DZ BR BKN002 06/06 Q1029 AMB;
0187101360999992013010522004+53767+008667FM-12+0032ETMN V0202801N004010006019N0030001N1+00601+00591102981ADDAY151011AY251011GA1071+000601071GF108991071061000751999999MA1999999102581MD1510041+9999MW1511REMSYN082AAXX  05221 10136 41130 82804 10060 20059 30258 40298 55004 75155 876// 333 87702;
0143101360999992013010522204+53767+008667FM-15+0032ETMN V0202801N004110006019N0025001N1+00601+00601999999ADDGA1071+000601999GF107991999999999999999999MA1102911999999MW1101MW2511REMMET062METAR ETMN 052220Z 28008KT 2500 -DZ BR BKN002 06/06 Q1029 AMB;
0143101360999992013010522384+53767+008667FM-16+0032ETMN V0202801N004610003019N0020001N1+00601+00601999999ADDGA1071+000301999GF107991999999999999999999MA1102911999999MW1101MW2511REMMET062SPECI ETMN 052238Z 28009KT 2000 -DZ BR BKN001 06/06 Q1029 RED;
0187101360999992013010523004+53767+008667FM-12+0032ETMN V0202801N004010003019N0020001N1+00611+00601102961ADDAY151999AY251999GA1071+000301071GF108991071061000251999999MA1999999102561MD1710041+9999MW1511REMSYN082AAXX  05231 10136 41020 82804 10061 20060 30256 40296 57004 75155 876// 333 87701;
0143101360999992013010523204+53767+008667FM-15+0032ETMN V0202801N005110006019N0028001N1+00601+00601999999ADDGA1071+000601999GF107991999999999999999999MA1102911999999MW1101MW2511REMMET062METAR ETMN 052320Z 28010KT 2800 -DZ BR BKN002 06/06 Q1029 AMB;
0143101360999992013010600204+53767+008667FM-15+0032ETMN V0202601N004610006019N0030001N1+00601+00601999999ADDGA1071+000601999GF107991999999999999999999MA1102811999999MW1101MW2511REMMET062METAR ETMN 060020Z 26009KT 3000 -DZ BR BKN002 06/06 Q1028 AMB;
0187101360999992013010601004+53767+008667FM-12+0032ETMN V0202601N005010006019N0030001N1+00621+00611102791ADDAY151999AY251999GA1071+000601071GF108991071061000751999999MA1999999102391MD1810191+9999MW1511REMSYN082AAXX  06011 10136 41130 82605 10062 20061 30239 40279 58019 75155 876// 333 87702;
0156101360999992013010601204+53767+008667FM-15+0032ETMN V0202601N005110006019N0020001N1+00601+00601999999ADDGA1071+000601999GA2071+001501999GF107991999999999999999999MA1102711999999MW1101REMMET065METAR ETMN 060120Z 26010KT 2000 BR BKN002 BKN005 06/06 Q1027 AMB;
0187101360999992013010602004+53767+008667FM-12+0032ETMN V0202601N005010006019N0020001N1+00631+00621102761ADDAY161999AY251999GA1071+000601071GF108991071061000751999999MA1999999102361MD1610201+9999MW1581REMSYN082AAXX  06021 10136 41120 82605 10063 20062 30236 40276 56020 75865 876// 333 87702;
0151101360999992013010602204+53767+008667FM-15+0032ETMN V0202501N005110006019N0020001N1+00601+00601999999ADDGA1071+000601999GF107991999999999999999999MA1102711999999MW1101MW2511MW3611REMMET064METAR ETMN 060220Z 25010KT 2000 -RADZ BR BKN002 06/06 Q1027 AMB;
0174101360999992013010603204+53767+008667FM-15+0032ETMN V0202601N004610006019N0030001N1+00601+00601999999ADDGA1071+000601999GA2071+003901999GF107991999999999999999999MA1102611999999MW1101MW2511MW3611REMMET071METAR ETMN 060320Z 26009KT 3000 -RADZ BR BKN002 BKN013 06/06 Q1026 AMB;
0156101360999992013010603394+53767+008667FM-16+0032ETMN V0202601N005110021019N0037001N1+00701+00701999999ADDGA1041+000901999GA2071+002101999GF107991999999999999999999MA1102611999999MW1101REMMET065SPECI ETMN 060339Z 26010KT 3700 BR SCT003 BKN007 07/07 Q1026 GRN;
0193101360999992013010604004+53767+008667FM-12+0032ETMN V0202601N00601001201CN0040001N1+00671+00651102601ADDAY161999AY221999GA1031+001201071GF108991071061001501999999MA1999999102211MD1810181+9999MW1211REMSYN088AAXX  06041 10136 41240 82606 10067 20065 30221 40260 58018 72162 876// 333 83704 87707;
0133101360999992013010604204+53767+008667FM-15+0032ETMN V0202701N005710015019N0030001N1+00701+00701999999ADDGA1071+001501999GF107991999999999999999999MA1102511999999MW1101REMMET058METAR ETMN 060420Z 27011KT 3000 BR BKN005 07/07 Q1025 YLO;
0166101360999992013010604364+53767+008667FM-16+0032ETMN V0202801N007210009019N0028001N1+00701+00701999999ADDGA1071+000901999GA2071+002101999GF107991999999999999999999MA1102511999999MW1101MW2511REMMET069SPECI ETMN 060436Z 28014KT 2800 -DZ BR BKN003 BKN007 07/07 Q1025 YLO;
0187101360999992013010605004+53767+008667FM-12+0032ETMN V0202901N008010009019N0028001N1+00671+00651102561ADDAY151999AY221999GA1071+000901071GF108991071061000751999999MA1999999102171MD1610191+9999MW1511REMSYN082AAXX  06051 10136 41128 82908 10067 20065 30217 40256 56019 75152 876// 333 87703;
0133101360999992013010605204+53767+008667FM-15+0032ETMN V0202901N007710009019N0045001N1+00701+00701999999ADDGA1071+000901999GF107991999999999999999999MA1102511999999MW1101REMMET058METAR ETMN 060520Z 29015KT 4500 BR BKN003 07/07 Q1025 YLO;
0133101360999992013010606204+53767+008667FM-15+0032ETMN V0202901N007210009019N0045001N1+00701+00701999999ADDGA1071+000901999GF107991999999999999999999MA1102511999999MW1101REMMET058METAR ETMN 060620Z 29014KT 4500 BR BKN003 07/07 Q1025 YLO;
0187101360999992013010607004+53767+008667FM-12+0032ETMN V0202801N007010009019N0045001N1+00661+00661102521ADDAY121999AY221999GA1071+000901071GF108991071061000751999999MA1999999102131MD1710081+9999MW1101REMSYN082AAXX  06071 10136 41145 82807 10066 20066 30213 40252 57008 71022 876// 333 87703;
0133101360999992013010607204+53767+008667FM-15+0032ETMN V0202801N006710009019N0040001N1+00701+00701999999ADDGA1071+000901999GF107991999999999999999999MA1102511999999MW1101REMMET058METAR ETMN 060720Z 28013KT 4000 BR BKN003 07/07 Q1025 YLO;
0187101360999992013010608004+53767+008667FM-12+0032ETMN V0202901N007010009019N0040001N1+00661+00661102511ADDAY121999AY221999GA1071+000901071GF108991071061000751999999MA1999999102121MD1710051+9999MW1101REMSYN082AAXX  06081 10136 41140 82907 10066 20066 30212 40251 57005 71022 876// 333 87703;
0133101360999992013010608204+53767+008667FM-15+0032ETMN V0202901N006710012019N0045001N1+00701+00701999999ADDGA1071+001201999GF107991999999999999999999MA1102401999999MW1101REMMET058METAR ETMN 060820Z 29013KT 4500 BR BKN004 07/07 Q1024 YLO;
0143101360999992013010609204+53767+008667FM-15+0032ETMN V0202901N006210009019N0035001N1+00701+00701999999ADDGA1071+000901999GF107991999999999999999999MA1102401999999MW1101MW2511REMMET062METAR ETMN 060920Z 29012KT 3500 -DZ BR BKN003 07/07 Q1024 YLO;
0187101360999992013010610004+53767+008667FM-12+0032ETMN V0202901N007010009019N0040001N1+00681+00661102511ADDAY151999AY221999GA1081+000901071GF108991081061000751999999MA1999999102121MD1610021+9999MW1201REMSYN082AAXX  06101 10136 41140 82907 10068 20066 30212 40251 56002 72052 886// 333 88703;
0133101360999992013010610204+53767+008667FM-15+0032ETMN V0203001N006710009019N0045001N1+00701+00701999999ADDGA1081+000901999GF108991999999999999999999MA1102511999999MW1101REMMET058METAR ETMN 061020Z 30013KT 4500 BR OVC003 07/07 Q1025 YLO;
0187101360999992013010611004+53767+008667FM-12+0032ETMN V0203001N008010009019N0035001N1+00711+00691102501ADDAY121999AY221999GA1081+000901071GF108991081061000751999999MA1999999102111MD1610011+9999MW1581REMSYN082AAXX  06111 10136 41135 83008 10071 20069 30211 40250 56001 75822 886// 333 88703;
0150101360999992013010611204+53767+008667FM-15+0032ETMN V0203101N007710006019N0015001N1+00701+00701999999ADDGA1071+000601999GF107991999999999999999999MA1102511999999MW1101MW2531MW3631REMMET063METAR ETMN 061120Z 31015KT 1500 DZRA BR BKN002 07/07 Q1025 AMB;
0150101360999992013010612204+53767+008667FM-15+0032ETMN V0203201N007210003019N0007001N1+00701+00701999999ADDGA1081+000301999GF108991999999999999999999MA1102401999999MW1441MW2531MW3631REMMET063METAR ETMN 061220Z 32014KT 0700 DZRA FG OVC001 07/07 Q1024 RED;
0156101360999992013010612484+53767+008667FM-16+0032ETMN V0203101N008210006019N0025001N1+00701+00701999999ADDGA1081+000601999GF108991999999999999999999MA1102401999999MW1101MW2511MW3611REMMET069SPECI ETMN 061248Z 31016KT 2500 -DZRA BR OVC002 07/07 Q1024 RERA AMB;
0187101360999992013010613004+53767+008667FM-12+0032ETMN V0203101N008010006019N0025001N1+00711+00701102481ADDAY161999AY261999GA1071+000601071GF108991071071000751999999MA1999999102091MD1810021+9999MW1591REMSYN082AAXX  06131 10136 41125 83108 10071 20070 30209 40248 58002 75966 877// 333 87702;
0138101360999992013010613204+53767+008667FM-15+0032ETMN V0203001N007210009019N0045001N1+00701+00701999999ADDGA1071+000901999GF107991999999999999999999MA1102401999999MW1101REMMET063METAR ETMN 061320Z 30014KT 4500 BR BKN003 07/07 Q1024 RERA YLO;
0187101360999992013010614004+53767+008667FM-12+0032ETMN V0203101N007010009019N0045001N1+00701+00691102491ADDAY161999AY261999GA1071+000901071GF108991071071000751999999MA1999999102101MD1010001+9999MW1581REMSYN082AAXX  06141 10136 41145 83107 10070 20069 30210 40249 50000 75866 877// 333 87703;
0151101360999992013010614204+53767+008667FM-15+0032ETMN V0203101N007710009019N0040001N1+00701+00701999999ADDGA1071+000901999GF107991999999999999999999MA1102511999999MW1101MW2511MW3611REMMET064METAR ETMN 061420Z 31015KT 4000 -DZRA BR BKN003 07/07 Q1025 YLO;
0150101360999992013010615204+53767+008667FM-15+0032ETMN V0203201N007210006019N0025001N1+00701+00701999999ADDGA1071+000601999GF107991999999999999999999MA1102511999999MW1101MW2531MW3631REMMET063METAR ETMN 061520Z 32014KT 2500 DZRA BR BKN002 07/07 Q1025 AMB;
0187101360999992013010616004+53767+008667FM-12+0032ETMN V0203201N008010006019N0025001N1+00661+00661102561ADDAY161999AY261999GA1071+000601071GF108991071071000751999999MA1999999102171MD1310081+9999MW1581REMSYN082AAXX  06161 10136 41125 83208 10066 20066 30217 40256 53008 75866 877// 333 87702;
0150101360999992013010616204+53767+008667FM-15+0032ETMN V0203201N006710009019N0030001N1+00701+00701999999ADDGA1071+000901999GF107991999999999999999999MA1102511999999MW1101MW2531MW3631REMMET063METAR ETMN 061620Z 32013KT 3000 DZRA BR BKN003 07/07 Q1025 YLO;
0187101360999992013010617004+53767+008667FM-12+0032ETMN V0203201N006010009019N0030001N1+00641+00631102591ADDAY161999AY261999GA1071+000901071GF108991071071000751999999MA1999999102201MD1210091+9999MW1511REMSYN082AAXX  06171 10136 41130 83206 10064 20063 30220 40259 52009 75166 877// 333 87703;
0143101360999992013010617204+53767+008667FM-15+0032ETMN V0203201N006210009019N0025001N1+00601+00601999999ADDGA1071+000901999GF107991999999999999999999MA1102611999999MW1101MW2511REMMET062METAR ETMN 061720Z 32012KT 2500 -DZ BR BKN003 06/06 Q1026 YLO;
0142101360999992013010618204+53767+008667FM-15+0032ETMN V0203101N006210009019N0020001N1+00601+00601999999ADDGA1071+000901999GF107991999999999999999999MA1102611999999MW1101MW2531REMMET061METAR ETMN 061820Z 31012KT 2000 DZ BR BKN003 06/06 Q1026 YLO;
0187101360999992013010619004+53767+008667FM-12+0032ETMN V0203201N005010009019N0025001N1+00601+00601102681ADDAY151999AY251999GA1071+000901071GF108991071061000751999999MA1999999102281MD1210111+9999MW1511REMSYN082AAXX  06191 10136 41125 83205 10060 20060 30228 40268 52011 75155 876// 333 87703;
0142101360999992013010619204+53767+008667FM-15+0032ETMN V0203101N005710009019N0025001N1+00601+00601999999ADDGA1071+000901999GF107991999999999999999999MA1102611999999MW1101MW2531REMMET061METAR ETMN 061920Z 31011KT 2500 DZ BR BKN003 06/06 Q1026 YLO;
0187101360999992013010620004+53767+008667FM-12+0032ETMN V0203201N005010009019N0028001N1+00601+00591102711ADDAY151999AY251999GA1071+000901071GF108991071061000751999999MA1999999102311MD1210111+9999MW1511REMSYN082AAXX  06201 10136 41128 83205 10060 20059 30231 40271 52011 75155 876// 333 87703;
0148101360999992013010620204+53767+008667FM-15+0032ETMN V0203201N005110009019N0025001N1+00601+00601999999ADDGA1081+000901999GF108991999999999999999999MA1102611999999MW1101MW2511REMMET067METAR ETMN 062020Z 32010KT 2500 -DZ BR OVC003 06/06 Q1026 REDZ YLO;
0143101360999992013010621204+53767+008667FM-15+0032ETMN V0203201N004610009019N0030001N1+00601+00601999999ADDGA1071+000901999GF107991999999999999999999MA1102711999999MW1101MW2511REMMET062METAR ETMN 062120Z 32009KT 3000 -DZ BR BKN003 06/06 Q1027 YLO;
0187101360999992013010622004+53767+008667FM-12+0032ETMN V0203201N005010012019N0045001N1+00571+00551102751ADDAY151999AY251999GA1071+001201071GF108991071061001501999999MA1999999102351MD1210071+9999MW1511REMSYN082AAXX  06221 10136 41245 83205 10057 20055 30235 40275 52007 75155 876// 333 87704;
0143101360999992013010622204+53767+008667FM-15+0032ETMN V0203201N003110009019N0040001N1+00601+00601999999ADDGA1071+000901999GF107991999999999999999999MA1102711999999MW1101MW2511REMMET062METAR ETMN 062220Z 32006KT 4000 -DZ BR BKN003 06/06 Q1027 YLO;
0187101360999992013010623004+53767+008667FM-12+0032ETMN V0203101N004010009019N0045001N1+00541+00501102751ADDAY151999AY251999GA1071+000901071GF108991071061000751999999MA1999999102351MD1210041+9999MW1511REMSYN082AAXX  06231 10136 41145 83104 10054 20050 30235 40275 52004 75155 876// 333 87703;
0143101360999992013010623204+53767+008667FM-15+0032ETMN V0203101N003610015019N0050001N1+00501+00501999999ADDGA1071+001501999GF107991999999999999999999MA1102711999999MW1101MW2511REMMET062METAR ETMN 062320Z 31007KT 5000 -DZ BR BKN005 05/05 Q1027 YLO;
0143101360999992013010700204+53767+008667FM-15+0032ETMN V0203301N002110009019N0040001N1+00501+00501999999ADDGA1071+000901999GF107991999999999999999999MA1102711999999MW1101MW2511REMMET062METAR ETMN 070020Z 33004KT 4000 -DZ BR BKN003 05/05 Q1027 YLO;
0187101360999992013010701004+53767+008667FM-12+0032ETMN V0203101N002010009019N0045001N1+00511+00501102731ADDAY151999AY251999GA1071+000901071GF108991071061000751999999MA1999999102331MD1610021+9999MW1511REMSYN082AAXX  07011 10136 41145 83102 10051 20050 30233 40273 56002 75155 876// 333 87703;
0143101360999992013010701204+53767+008667FM-15+0032ETMN V0203101N002610012019N0040001N1+00501+00501999999ADDGA1071+001201999GF107991999999999999999999MA1102711999999MW1101MW2511REMMET062METAR ETMN 070120Z 31005KT 4000 -DZ BR BKN004 05/05 Q1027 YLO;
0193101360999992013010702004+53767+008667FM-12+0032ETMN V0203001N004010012019N0032001N1+00521+00511102771ADDAY151999AY251999GA1051+001201071GF108991071061001501999999MA1999999102371MD1310021+9999MW1511REMSYN088AAXX  07021 10136 41232 83004 10052 20051 30237 40277 53002 75155 876// 333 85704 87706;
0166101360999992013010702204+53767+008667FM-15+0032ETMN V0203101N003110012019N0038001N1+00501+00501999999ADDGA1071+001201999GA2071+002101999GF107991999999999999999999MA1102711999999MW1101MW2511REMMET069METAR ETMN 070220Z 31006KT 3800 -DZ BR BKN004 BKN007 05/05 Q1027 YLO;
0143101360999992013010702444+53767+008667FM-16+0032ETMN V0202901N002610009019N0035001N1+00501+00501999999ADDGA1071+000901999GF107991999999999999999999MA1102711999999MW1101MW2511REMMET062SPECI ETMN 070244Z 29005KT 3500 -DZ BR BKN003 05/05 Q1027 YLO;
0166101360999992013010703204+53767+008667FM-15+0032ETMN V0202901N003110018019N0042001N1+00501+00501999999ADDGA1041+000901999GA2071+001801999GF107991999999999999999999MA1102711999999MW1101MW2511REMMET069METAR ETMN 070320Z 29006KT 4200 -DZ BR SCT003 BKN006 05/05 Q1027 YLO;
0143101360999992013010703524+53767+008667FM-16+0032ETMN V0203001N003110015019N0045001N1+00501+00501999999ADDGA1071+001501999GF107991999999999999999999MA1102711999999MW1101MW2511REMMET062SPECI ETMN 070352Z 30006KT 4500 -DZ BR BKN005 05/05 Q1027 YLO;
0187101360999992013010704004+53767+008667FM-12+0032ETMN V0203001N003010015019N0045001N1+00531+00521102731ADDAY151011AY251011GA1071+001501071GF108991071061001501999999MA1999999102331MD1010001+9999MW1511REMSYN082AAXX  07041 10136 41245 83003 10053 20052 30233 40273 50000 75155 876// 333 87705;
0143101360999992013010704204+53767+008667FM-15+0032ETMN V0203001N003110012019N0045001N1+00501+00501999999ADDGA1071+001201999GF107991999999999999999999MA1102711999999MW1101MW2511REMMET062METAR ETMN 070420Z 30006KT 4500 -DZ BR BKN004 05/05 Q1027 YLO;
0193101360999992013010705004+53767+008667FM-12+0032ETMN V0203001N003010015019N0040001N1+00531+00501102731ADDAY151999AY251999GA1051+001501071GF108991071061001501999999MA1999999102331MD1610041+9999MW1511REMSYN088AAXX  07051 10136 41240 83003 10053 20050 30233 40273 56004 75155 876// 333 85705 87707;
0180101360999992013010705204+53767+008667FM-15+0032ETMN V0202801N002610018019N0045001N1+00501+00501999999ADDGA1021+000901999GA2071+001801999GF107991999999999999999999MA1102711999999MW1101MW2511REMMET083METAR ETMN 070520Z 28005KT 4500 -DZ BR FEW003 BKN006 05/05 Q1027 YLO YLO TEMPO GRN;
0138101360999992013010706204+53767+008667FM-15+0032ETMN V0202901N001010015019N0060001N1+00501+00501999999ADDGA1071+001501999GF107991999999999999999999MA1102611999999REMMET069METAR ETMN 070620Z 29002KT 6000 BKN005 05/05 Q1026 YLO YLO TEMPO GRN;
0193101360999992013010707004+53767+008667FM-12+0032ETMN V0202601N00201000601CN0060001N1+00521+00511102721ADDAY121999AY221999GA1021+000901071GF108991071061000751999999MA1999999102321MD1510011+9999MW1201REMSYN088AAXX  07071 10136 41156 82602 10052 20051 30232 40272 55001 72022 876// 333 82703 87705;
0157101360999992013010707204+53767+008667FM-15+0032ETMN V0202701N001510015019N0045001N1+00501+00501999999ADDGA1071+001501999GF107991999999999999999999MA1102711999999MW1101MW2511REMMET076METAR ETMN 070720Z 27003KT 4500 -DZ BR BKN005 05/05 Q1027 YLO YLO TEMPO GRN;
0193101360999992013010708004+53767+008667FM-12+0032ETMN V0202601N00301000601CN0040001N1+00521+00511102711ADDAY151999AY221999GA1021+000901071GF108991071061000751999999MA1999999102311MD1710021+9999MW1511REMSYN088AAXX  07081 10136 41140 82603 10052 20051 30231 40271 57002 75152 876// 333 82703 87705;
0170101360999992013010708204+53767+008667FM-15+0032ETMN V0202601N001510021019N0040001N1+00501+00501999999ADDGA1041+000901999GA2071+002101999GF107991999999999999999999MA1102611999999MW1101MW2511REMMET073METAR ETMN 070820Z 26003KT 4000 -DZ BR SCT003 BKN007 05/05 Q1026 GRN YLO;
0160101360999992013010709204+53767+008667FM-15+0032ETMN V0202501N001510021019N0050001N1+00601+00601999999ADDGA1021+000901999GA2071+002101999GF107991999999999999999999MA1102711999999MW1101REMMET069METAR ETMN 070920Z 25003KT 5000 BR FEW003 BKN007 06/06 Q1027 GRN YLO;
0180101360999992013010709544+53767+008667FM-16+0032ETMN V0202601N002610021019N0050001N1+00601+00601999999ADDGA1021+001201999GA2071+002101999GF107991999999999999999999MA1102711999999MW1101MW2511REMMET083SPECI ETMN 070954Z 26005KT 5000 -DZ BR FEW004 BKN007 06/06 Q1027 GRN GRN TEMPO YLO;
0193101360999992013010710004+53767+008667FM-12+0032ETMN V0202501N00201001201CN0050001N1+00581+00551102761ADDAY151011AY251011GA1021+001201071GF108991071061001501999999MA1999999102361MD1310041+9999MW1511REMSYN088AAXX  07101 10136 41250 82502 10058 20055 30236 40276 53004 75155 876// 333 82704 87707;
0138101360999992013010710204+53767+008667FM-15+0032ETMN V0202501N003110021019N0070001N1+00601+00501999999ADDGA1071+002101999GF107991999999999999999999MA1102711999999REMMET069METAR ETMN 071020Z 25006KT 7000 BKN007 06/05 Q1027 GRN GRN TEMPO YLO;
0147101360999992013010710444+53767+008667FM-16+0032ETMN V0202401N002110018019N0050001N1+00601+00601999999ADDGA1071+001801999GF107991999999999999999999MA1102711999999MW1101REMMET072SPECI ETMN 071044Z 24004KT 5000 BR BKN006 06/06 Q1027 YLO GRN TEMPO YLO;
0187101360999992013010711004+53767+008667FM-12+0032ETMN V0202401N002010018019N0050001N1+00581+00581102731ADDAY121999AY221999GA1071+001801071GF108991071061001501999999MA1999999102331MD1010021+9999MW1201REMSYN082AAXX  07111 10136 41250 82402 10058 20058 30233 40273 50002 72022 876// 333 87706;
0138101360999992013010711204+53767+008667FM-15+0032ETMN V0202301N002110012019N0060001N1+00601+00501999999ADDGA1081+001201999GF108991999999999999999999MA1102611999999REMMET069METAR ETMN 071120Z 23004KT 6000 OVC004 06/05 Q1026 YLO GRN TEMPO YLO;
0147101360999992013010712004+53767+008667FM-15+0032ETMN V0202101N002110012019N0050001N1+00601+00601999999ADDGA1081+001201999GF108991999999999999999999MA1102611999999MW1101REMMET072SPECI ETMN 071155Z 21004KT 5000 BR OVC004 06/06 Q1026 YLO YLO TEMPO AMB;
0147101360999992013010712054+53767+008667FM-16+0032ETMN V0202101N002110012019N0040001N1+00601+00601999999ADDGA1081+001201999GF108991999999999999999999MA1102611999999MW1101REMMET072SPECI ETMN 071205Z 21004KT 4000 BR OVC004 06/06 Q1026 YLO YLO TEMPO AMB;
0170101360999992013010712204+53767+008667FM-15+0032ETMN V0202001N001510009019N0032001N1+00601+00601999999ADDGA1071+000901999GA2081+002701999GF108991999999999999999999MA1102611999999MW1101REMMET079METAR ETMN 071220Z 20003KT 3200 BR BKN003 OVC009 06/06 Q1026 YLO YLO TEMPO AMB;
0201101360999992013010712354+53767+008667FM-16+0032ETMN V0202001N002610009019N0022001N1+00601+00601999999ADDED126U16009GA1071+000901999GA2081+002701999GF108991999999999999999999MA1102511999999MW1101MW2511REMMET093SPECI ETMN 071235Z 20005KT 2200 R26/1600N -DZ BR BKN003 OVC009 06/06 Q1025 YLO YLO TEMPO AMB;
0178101360999992013010712494+53767+008667FM-16+0032ETMN V0202001N003110006019N0015001N1+00601+00601999999ADDED126U15009GA1081+000601999GF108991999999999999999999MA1102511999999MW1101MW2511REMMET086SPECI ETMN 071249Z 20006KT 1500 R26/1500N -DZ BR OVC002 06/06 Q1025 AMB YLO TEMPO AMB;
0187101360999992013010713004+53767+008667FM-12+0032ETMN V0202001N003010006019N0015001N1+00621+00611102581ADDAY121999AY221999GA1081+000601071GF108991081061000751999999MA1999999102191MD1810171+9999MW1511REMSYN082AAXX  07131 10136 41115 82003 10062 20061 30219 40258 58017 75122 886// 333 88702;
0178101360999992013010713204+53767+008667FM-15+0032ETMN V0202101N003110006019N0015001N1+00601+00601999999ADDED126U16009GA1081+000601999GF108991999999999999999999MA1102511999999MW1101MW2511REMMET086METAR ETMN 071320Z 21006KT 1500 R26/1600N -DZ BR OVC002 06/06 Q1025 AMB YLO TEMPO AMB;
0187101360999992013010714004+53767+008667FM-12+0032ETMN V0202101N003010006019N0015001N1+00641+00631102581ADDAY151999AY251999GA1081+000601071GF108991081061000751999999MA1999999102191MD1610141+9999MW1511REMSYN082AAXX  07141 10136 41115 82103 10064 20063 30219 40258 56014 75155 886// 333 88702;
0178101360999992013010714204+53767+008667FM-15+0032ETMN V0202101N002610006019N0011001N1+00701+00701999999ADDED126U11009GA1081+000601999GF108991999999999999999999MA1102511999999MW1101MW2511REMMET086METAR ETMN 071420Z 21005KT 1100 R26/1100N -DZ BR OVC002 07/07 Q1025 AMB YLO TEMPO AMB;
0178101360999992013010714334+53767+008667FM-16+0032ETMN V0202201N002610003019N0011001N1+00701+00701999999ADDED126U12009GA1081+000301999GF108991999999999999999999MA1102511999999MW1101MW2511REMMET086SPECI ETMN 071433Z 22005KT 1100 R26/1200N -DZ BR OVC001 07/07 Q1025 RED YLO TEMPO RED;
0178101360999992013010715004+53767+008667FM-15+0032ETMN V0202101N003110003019N0006001N1+00701+00701999999ADDED126U07509GA1081+000301999GF108991999999999999999999MA1102511999999MW1441MW2511REMMET086SPECI ETMN 071458Z 21006KT 0600 R26/0750N -DZ FG OVC001 07/07 Q1025 RED YLO TEMPO RED;
0178101360999992013010715204+53767+008667FM-15+0032ETMN V0202201N002610003019N0011001N1+00701+00701999999ADDED126U16009GA1081+000301999GF108991999999999999999999MA1102511999999MW1101MW2511REMMET086METAR ETMN 071520Z 22005KT 1100 R26/1600U -DZ BR OVC001 07/07 Q1025 RED YLO TEMPO RED;
0170101360999992013010715354+53767+008667FM-16+0032ETMN V0202201N002610006019N0020001N1+00701+00701999999ADDGA1071+000601999GA2081+001201999GF108991999999999999999999MA1102511999999MW1101REMMET079SPECI ETMN 071535Z 22005KT 2000 BR BKN002 OVC004 07/07 Q1025 AMB YLO TEMPO RED;
0170101360999992013010715424+53767+008667FM-16+0032ETMN V0202201N002610009019N0035001N1+00701+00701999999ADDGA1071+000901999GA2081+002401999GF108991999999999999999999MA1102511999999MW1101REMMET079SPECI ETMN 071542Z 22005KT 3500 BR BKN003 OVC008 07/07 Q1025 YLO YLO TEMPO RED;
0201101360999992013010715574+53767+008667FM-16+0032ETMN V0202201N002610006019N0020001N1+00701+00701999999ADDED126U19009GA1071+000601999GA2081+001501999GF108991999999999999999999MA1102511999999MW1101MW2511REMMET093SPECI ETMN 071557Z 22005KT 2000 R26/1900N -DZ BR BKN002 OVC005 07/07 Q1025 AMB YLO TEMPO RED;
0193101360999992013010716004+53767+008667FM-12+0032ETMN V0202201N003010009019N0030001N1+00681+00671102531ADDAY151011AY251011GA1061+000901071GF108991081061000751999999MA1999999102141MD1810051+9999MW1281REMSYN088AAXX  07161 10136 41130 82203 10068 20067 30214 40253 58005 72855 886// 333 86703 88707;
0201101360999992013010716054+53767+008667FM-16+0032ETMN V0202301N002610006019N0015001N1+00701+00701999999ADDED126U13009GA1071+000601999GA2081+001201999GF108991999999999999999999MA1102511999999MW1101MW2511REMMET093SPECI ETMN 071605Z 23005KT 1500 R26/1300D -DZ BR BKN002 OVC004 07/07 Q1025 AMB YLO TEMPO RED;
0201101360999992013010716204+53767+008667FM-15+0032ETMN V0202401N003110003019N0015001N1+00701+00701999999ADDED126U13009GA1071+000301999GA2081+000901999GF108991999999999999999999MA1102511999999MW1101MW2511REMMET093METAR ETMN 071620Z 24006KT 1500 R26/1300N -DZ BR BKN001 OVC003 07/07 Q1025 RED YLO TEMPO RED;
0193101360999992013010717004+53767+008667FM-12+0032ETMN V0202301N003010003019N0015001N1+00681+00681102511ADDAY151999AY221999GA1071+000301071GF108991081061000251999999MA1999999102121MD1710071+9999MW1511REMSYN088AAXX  07171 10136 41015 82303 10068 20068 30212 40251 57007 75152 886// 333 87701 88703;
0180101360999992013010717204+53767+008667FM-15+0032ETMN V0202201N003110003019N0013001N1+00701+00701999999ADDGA1071+000301999GA2081+000901999GF108991999999999999999999MA1102401999999MW1101MW2511REMMET083METAR ETMN 071720Z 22006KT 1300 -DZ BR BKN001 OVC003 07/07 Q1024 RED YLO TEMPO RED;
0180101360999992013010717464+53767+008667FM-16+0032ETMN V0202301N003110006019N0025001N1+00701+00701999999ADDGA1071+000601999GA2081+000901999GF108991999999999999999999MA1102401999999MW1101MW2511REMMET083SPECI ETMN 071746Z 23006KT 2500 -DZ BR BKN002 OVC003 07/07 Q1024 AMB YLO TEMPO RED;
0178101360999992013010718204+53767+008667FM-15+0032ETMN V0202301N003110006019N0025001N1+00701+00701999999ADDGA1071+000601999GA2081+002101999GF108991999999999999999999MA1102401999999MW1101MW2511REMMET081METAR ETMN 071820Z 23006KT 2500 -DZ BR BKN002 OVC007 07/07 Q1024 AMB FCST CANCEL;
0166101360999992013010718474+53767+008667FM-16+0032ETMN V0202301N002610003019N0015001N1+00701+00701999999ADDGA1071+000301999GA2081+001201999GF108991999999999999999999MA1102401999999MW1101MW2511REMMET069SPECI ETMN 071847Z 23005KT 1500 -DZ BR BKN001 OVC004 07/07 Q1024 RED;
0193101360999992013010719004+53767+008667FM-12+0032ETMN V0202301N003010003019N0015001N1+00711+00701102481ADDAY151999AY221999GA1061+000301071GF108991081061000251999999MA1999999102091MD1710051+9999MW1511REMSYN088AAXX  07191 10136 41015 82303 10071 20070 30209 40248 57005 75152 886// 333 86701 88704;
0166101360999992013010719204+53767+008667FM-15+0032ETMN V0202401N003610006019N0015001N1+00701+00701999999ADDGA1071+000601999GA2081+001201999GF108991999999999999999999MA1102401999999MW1101MW2511REMMET069METAR ETMN 071920Z 24007KT 1500 -DZ BR BKN002 OVC004 07/07 Q1024 AMB;
0166101360999992013010719414+53767+008667FM-16+0032ETMN V0202401N003610006019N0020001N1+00701+00701999999ADDGA1071+000601999GA2081+001501999GF108991999999999999999999MA1102401999999MW1101MW2511REMMET069SPECI ETMN 071941Z 24007KT 2000 -DZ BR BKN002 OVC005 07/07 Q1024 AMB;
0193101360999992013010720004+53767+008667FM-12+0032ETMN V0202401N004010006019N0022001N1+00701+00701102421ADDAY151999AY251999GA1051+000601071GF108991081061000751999999MA1999999102031MD1810091+9999MW1511REMSYN088AAXX  07201 10136 41122 82404 10070 20070 30203 40242 58009 75155 886// 333 85702 88705;
0143101360999992013010720204+53767+008667FM-15+0032ETMN V0203201N005110006019N0025001N1+00601+00601999999ADDGA1071+000601999GF107991999999999999999999MA1102611999999MW1101MW2511REMMET062METAR ETMN 072020Z 32010KT 2500 -DZ BR BKN002 06/06 Q1026 AMB;
0156101360999992013010721204+53767+008667FM-15+0032ETMN V0202401N003610006019N0025001N1+00701+00701999999ADDGA1071+000601999GA2071+001201999GF107991999999999999999999MA1102301999999MW1101REMMET065METAR ETMN 072120Z 24007KT 2500 BR BKN002 BKN004 07/07 Q1023 AMB;
0193101360999992013010722004+53767+008667FM-12+0032ETMN V0202401N004010006019N0025001N1+00691+00671102381ADDAY121999AY221999GA1051+000601071GF108991071061000751999999MA1999999101991MD1610101+9999MW1201REMSYN088AAXX  07221 10136 41125 82404 10069 20067 30199 40238 56010 72022 876// 333 85702 87705;
0133101360999992013010722074+53767+008667FM-16+0032ETMN V0202401N004110012019N0035001N1+00701+00701999999ADDGA1071+001201999GF107991999999999999999999MA1102301999999MW1101REMMET058SPECI ETMN 072207Z 24008KT 3500 BR BKN004 07/07 Q1023 YLO;
0133101360999992013010722204+53767+008667FM-15+0032ETMN V0202401N004610015019N0035001N1+00701+00701999999ADDGA1071+001501999GF107991999999999999999999MA1102301999999MW1101REMMET058METAR ETMN 072220Z 24009KT 3500 BR BKN005 07/07 Q1023 YLO;
0187101360999992013010723004+53767+008667FM-12+0032ETMN V0202401N004010015019N0035001N1+00681+00681102341ADDAY121999AY221999GA1071+001501071GF108991071061001501999999MA1999999101951MD1710081+9999MW1101REMSYN082AAXX  07231 10136 41235 82404 10068 20068 30195 40234 57008 71022 876// 333 87705;
0156101360999992013010723204+53767+008667FM-15+0032ETMN V0202401N004110015019N0040001N1+00701+00701999999ADDGA1071+001501999GA2071+003601999GF107991999999999999999999MA1102201999999MW1101REMMET065METAR ETMN 072320Z 24008KT 4000 BR BKN005 BKN012 07/07 Q1022 YLO;
0151101360999992013010800204+53767+008667FM-15+0032ETMN V0202501N004610015019N0035001N1+00701+00701999999ADDGA1071+001501999GF107991999999999999999999MA1102201999999MW1101MW2511MW3611REMMET064METAR ETMN 080020Z 25009KT 3500 -DZRA BR BKN005 07/07 Q1022 YLO;
0187101360999992013010801004+53767+008667FM-12+0032ETMN V0202501N004010012019N0035001N1+00641+00621102271ADDAY151999AY221999GA1071+001201071GF108991071061001501999999MA1999999101881MD1710111+9999MW1581REMSYN082AAXX  08011 10136 41235 82504 10064 20062 30188 40227 57011 75852 876// 333 87704;
0151101360999992013010801204+53767+008667FM-15+0032ETMN V0202501N005710009019N0030001N1+00601+00601999999ADDGA1071+000901999GF107991999999999999999999MA1102201999999MW1101MW2511MW3611REMMET064METAR ETMN 080120Z 25011KT 3000 -RADZ BR BKN003 06/06 Q1022 YLO;
0187101360999992013010802004+53767+008667FM-12+0032ETMN V0202601N005010009019N0025001N1+00631+00611102281ADDAY161999AY261999GA1071+000901071GF108991071071000751999999MA1999999101891MD1510061+9999MW1581REMSYN082AAXX  08021 10136 41125 82605 10063 20061 30189 40228 55006 75866 877// 333 87703;
0151101360999992013010802204+53767+008667FM-15+0032ETMN V0202601N005110009019N0025001N1+00601+00601999999ADDGA1071+000901999GF107991999999999999999999MA1102201999999MW1101MW2511MW3611REMMET064METAR ETMN 080220Z 26010KT 2500 -RADZ BR BKN003 06/06 Q1022 YLO;
0143101360999992013010803204+53767+008667FM-15+0032ETMN V0202501N005110006019N0020001N1+00601+00601999999ADDGA1071+000601999GF107991999999999999999999MA1102201999999MW1101MW2511REMMET062METAR ETMN 080320Z 25010KT 2000 -DZ BR BKN002 06/06 Q1022 AMB;
0187101360999992013010804004+53767+008667FM-12+0032ETMN V0202501N005010006019N0028001N1+00621+00611102191ADDAY151999AY221999GA1071+000601071GF108991071071000751999999MA1999999101801MD1710081+9999MW1501REMSYN082AAXX  08041 10136 41128 82505 10062 20061 30180 40219 57008 75052 877// 333 87702;
0143101360999992013010804204+53767+008667FM-15+0032ETMN V0202501N004110009019N0028001N1+00601+00601999999ADDGA1071+000901999GF107991999999999999999999MA1102101999999MW1101MW2511REMMET062METAR ETMN 080420Z 25008KT 2800 -DZ BR BKN003 06/06 Q1021 YLO;
0142101360999992013010804524+53767+008667FM-16+0032ETMN V0202501N004610006019N0023001N1+00601+00601999999ADDGA1071+000601999GF107991999999999999999999MA1102101999999MW1101MW2531REMMET061SPECI ETMN 080452Z 25009KT 2300 DZ BR BKN002 06/06 Q1021 AMB;
0187101360999992013010805004+53767+008667FM-12+0032ETMN V0202501N005010006019N0023001N1+00611+00601102151ADDAY151999AY251999GA1071+000601071GF108991071071000751999999MA1999999101761MD1710131+9999MW1531REMSYN082AAXX  08051 10136 41123 82505 10061 20060 30176 40215 57013 75355 877// 333 87702;
0162101360999992013010805204+53767+008667FM-15+0032ETMN V0202501N005110006019N0028001N1+00601+00601999999ADDGA1071+000601999GF107991999999999999999999MA1102101999999MW1101MW2511REMMET081METAR ETMN 080520Z 25010KT 2800 -DZ BR BKN002 06/06 Q1021 REDZ AMB YLO TEMPO AMB;
0162101360999992013010806204+53767+008667FM-15+0032ETMN V0202501N005110009019N0023001N1+00601+00601999999ADDGA1081+000901999GF108991999999999999999999MA1102101999999MW1101MW2511REMMET081METAR ETMN 080620Z 25010KT 2300 -DZ BR OVC003 06/06 Q1021 REDZ YLO YLO TEMPO AMB;
0235101360999992013010807004+53767+008667FM-12+0032ETMN V0202501N005010009019N0020001N1+00621+00621102111ADDAY151999AY251999GA1081+000901071GF108991081071000751999999MA1999999101721MD1610081+9999MW1531REMSYN130AAXX  08071 10136 41120 82505 10062 20062 30172 40211 56008 75355 887// 333 88703 555 BOT 10061 20062 30063 40064 50065 999 31///;
0177101360999992013010807104+53767+008667FM-16+0032ETMN V0202501N005110006019N0015001N1+00601+00601999999ADDED126U14009GA1081+000601999GF108991999999999999999999MA1102101999999MW1101MW2531REMMET085SPECI ETMN 080710Z 25010KT 1500 R26/1400N DZ BR OVC002 06/06 Q1021 AMB YLO TEMPO AMB;
0177101360999992013010807204+53767+008667FM-15+0032ETMN V0202501N004610006019N0015001N1+00601+00601999999ADDED126U14009GA1081+000601999GF108991999999999999999999MA1102101999999MW1101MW2531REMMET085METAR ETMN 080720Z 25009KT 1500 R26/1400N DZ BR OVC002 06/06 Q1021 AMB YLO TEMPO AMB;
0187101360999992013010808004+53767+008667FM-12+0032ETMN V0202501N004010006019N0015001N1+00631+00621102121ADDAY151999AY251999GA1081+000601071GF108991081071000751999999MA1999999101731MD1510031+9999MW1531REMSYN082AAXX  08081 10136 41115 82504 10063 20062 30173 40212 55003 75355 887// 333 88702;
0177101360999992013010808204+53767+008667FM-15+0032ETMN V0202501N004610006019N0013001N1+00601+00601999999ADDED126U11009GA1081+000601999GF108991999999999999999999MA1102101999999MW1101MW2531REMMET085METAR ETMN 080820Z 25009KT 1300 R26/1100N DZ BR OVC002 06/06 Q1021 AMB YLO TEMPO RED;
0187101360999992013010810004+53767+008667FM-12+0032ETMN V0202501N006010006019N0015001N1+00671+00661102141ADDAY151999AY251999GA1081+000601071GF108991081071000751999999MA1999999101751MD1210031+9999MW1531REMSYN082AAXX  08101 10136 41115 82506 10067 20066 30175 40214 52003 75355 887// 333 88702;
0177101360999992013010810074+53767+008667FM-16+0032ETMN V0202501N005110006019N0016001N1+00701+00701999999ADDED126U17009GA1081+000601999GF108991999999999999999999MA1102101999999MW1101MW2531REMMET085SPECI ETMN 081007Z 25010KT 1600 R26/1700N DZ BR OVC002 07/07 Q1021 AMB YLO TEMPO RED;
0183101360999992013010810204+53767+008667FM-15+0032ETMN V0202501N005710006019N0018001N1+00701+00701999999ADDED126U17009GA1081+000601999GF108991999999999999999999MA1102101999999MW1101MW2511REMMET091METAR ETMN 081020Z 25011KT 1800 R26/1700N -DZ BR OVC002 07/07 Q1021 REDZ AMB YLO TEMPO RED;
0187101360999992013010811004+53767+008667FM-12+0032ETMN V0202601N006010006019N0018001N1+00691+00681102141ADDAY151999AY251999GA1081+000601071GF108991081071000751999999MA1999999101751MD1110021+9999MW1511REMSYN082AAXX  08111 10136 41118 82606 10069 20068 30175 40214 51002 75155 887// 333 88702;
0178101360999992013010811204+53767+008667FM-15+0032ETMN V0202601N005110006019N0014001N1+00701+00701999999ADDED126U16009GA1081+000601999GF108991999999999999999999MA1102101999999MW1101MW2511REMMET086METAR ETMN 081120Z 26010KT 1400 R26/1600N -DZ BR OVC002 07/07 Q1021 AMB YLO TEMPO RED;
0178101360999992013010812204+53767+008667FM-15+0032ETMN V0202601N005110006019N0011001N1+00701+00701999999ADDED126U10009GA1081+000601999GF108991999999999999999999MA1102101999999MW1101MW2511REMMET086METAR ETMN 081220Z 26010KT 1100 R26/1000N -DZ BR OVC002 07/07 Q1021 AMB YLO TEMPO RED;
0187101360999992013010813004+53767+008667FM-12+0032ETMN V0202701N005010006019N0014001N1+00721+00711102111ADDAY151999AY251999GA1081+000601071GF108991081071000751999999MA1999999101721MD1810031+9999MW1511REMSYN082AAXX  08131 10136 41114 82705 10072 20071 30172 40211 58003 75155 887// 333 88702;
0178101360999992013010813204+53767+008667FM-15+0032ETMN V0202701N005110006019N0014001N1+00701+00701999999ADDED126U15009GA1081+000601999GF108991999999999999999999MA1102101999999MW1101MW2511REMMET086METAR ETMN 081320Z 27010KT 1400 R26/1500N -DZ BR OVC002 07/07 Q1021 AMB YLO TEMPO RED;
0178101360999992013010813344+53767+008667FM-16+0032ETMN V0202801N005110003019N0011001N1+00701+00701999999ADDED126U14009GA1081+000301999GF108991999999999999999999MA1102101999999MW1101MW2511REMMET086SPECI ETMN 081334Z 28010KT 1100 R26/1400N -DZ BR OVC001 07/07 Q1021 RED YLO TEMPO RED;
0187101360999992013010814004+53767+008667FM-12+0032ETMN V0202801N005010003019N0011001N1+00711+00701102121ADDAY151999AY251999GA1081+000301071GF108991081061000251999999MA1999999101731MD1510021+9999MW1201REMSYN082AAXX  08141 10136 41011 82805 10071 20070 30173 40212 55002 72055 886// 333 88701;
0168101360999992013010814204+53767+008667FM-15+0032ETMN V0202801N005110003019N0011001N1+00701+00701999999ADDED126U14009GA1081+000301999GF108991999999999999999999MA1102101999999MW1101REMMET082METAR ETMN 081420Z 28010KT 1100 R26/1400N BR OVC001 07/07 Q1021 RED YLO TEMPO RED;
0178101360999992013010815204+53767+008667FM-15+0032ETMN V0202901N004610006019N0011001N1+00701+00701999999ADDED126U10009GA1071+000601999GF107991999999999999999999MA1102101999999MW1101MW2611REMMET086METAR ETMN 081520Z 29009KT 1100 R26/1000N -RA BR BKN002 07/07 Q1021 AMB YLO TEMPO RED;
0187101360999992013010816004+53767+008667FM-12+0032ETMN V0202901N005010006019N0011001N1+00691+00681102151ADDAY161999AY251999GA1071+000601071GF108991071071000751999999MA1999999101761MD1210041+9999MW1611REMSYN082AAXX  08161 10136 41111 82905 10069 20068 30176 40215 52004 76165 877// 333 87702;
0178101360999992013010816204+53767+008667FM-15+0032ETMN V0202801N004610003019N0011001N1+00701+00701999999ADDED126U13009GA1071+000301999GF107991999999999999999999MA1102101999999MW1101MW2511REMMET086METAR ETMN 081620Z 28009KT 1100 R26/1300N -DZ BR BKN001 07/07 Q1021 RED YLO TEMPO RED;
0187101360999992013010817004+53767+008667FM-12+0032ETMN V0202801N004010003019N0012001N1+00681+00671102151ADDAY161999AY251999GA1071+000301071GF108991071071000251999999MA1999999101761MD1110031+9999MW1611REMSYN082AAXX  08171 10136 41012 82804 10068 20067 30176 40215 51003 76165 877// 333 87701;
