0072101624999992014010204204+53427+011783FM-15+005199999V0201401N005719999999Y999999999+00301+00201999999ADDMA1100301999990REMMET045METAR EDOP 020420Z 14011KT CAVOK 03/02 Q1003=
0080101624999992014010204504+53427+011783FM-15+005199999V0201401V004619999999Y999999999+00401+00201999999ADDMA1100301999990REMMET053METAR EDOP 020450Z 14009KT 100V180 CAVOK 04/02 Q1003=
0072101624999992014010205204+53427+011783FM-15+005199999V0201501N005119999999Y999999999+00401+00201999999ADDMA1100301999990REMMET045METAR EDOP 020520Z 15010KT CAVOK 04/02 Q1003=
0072101624999992014010206204+53427+011783FM-15+005199999V0201401N006219999999Y999999999+00401+00201999999ADDMA1100201999990REMMET045METAR EDOP 020620Z 14012KT CAVOK 04/02 Q1002=
0080101624999992014010207204+53427+011783FM-15+005199999V0201501V006719999999Y999999999+00501+00201999999ADDMA1100201999990REMMET053METAR EDOP 020720Z 15013KT 120V190 CAVOK 05/02 Q1002=
0072101624999992014010207504+53427+011783FM-15+005199999V0201501N006719999999Y999999999+00501+00201999999ADDMA1100201999990REMMET045METAR EDOP 020750Z 15013KT CAVOK 05/02 Q1002=
0142101624999992014010208204+53427+011783FM-15+005199999V0201501N006710128019N009999199+00501+00201999999ADDGA1071+012801991GE19MSL   +99999+99999GF199999071990012801991991MA1100201999990REMMET051METAR EDOP 020820Z 15013KT 9999 BKN042 05/02 Q1002=
0142101624999992014010208504+53427+011783FM-15+005199999V0201601N007710137219N009999199+00501+00201999999ADDGA1071+013721991GE19MSL   +99999+99999GF199999071990013721991991MA1100201999990REMMET051METAR EDOP 020850Z 16015KT 9999 BKN045 05/02 Q1002=
0142101624999992014010209204+53427+011783FM-15+005199999V0201501N007210137219N009999199+00501+00201999999ADDGA1071+013721991GE19MSL   +99999+99999GF199999071990013721991991MA1100201999990REMMET051METAR EDOP 020920Z 15014KT 9999 BKN045 05/02 Q1002=
0142101624999992014010209504+53427+011783FM-15+005199999V0201501N007210134119N009999199+00501+00201999999ADDGA1071+013411991GE19MSL   +99999+99999GF199999071990013411991991MA1100201999990REMMET051METAR EDOP 020950Z 15014KT 9999 BKN044 05/02 Q1002=
0153101624999992014010210204+53427+011783FM-15+005199999V0201501N006710137219N009999199+00601+00201999999ADDGA1071+013721991GE19MSL   +99999+99999GF199999071990013721991991MA1100201999990OC101181REMMET054METAR EDOP 021020Z 15013G23KT 9999 BKN045 06/02 Q1002=
0162101624999992014010210504+53427+011783FM-15+005199999V0201601V005710137219N009999199+00501+00201999999ADDGA1071+013721991GE19MSL   +99999+99999GF199999071990013721991991MA1100201999990MW1801REMMET065METAR EDOP 021050Z 16011KT 130V190 9999 -SHRA BKN045 05/02 Q1002=
0152101624999992014010211204+53427+011783FM-15+005199999V0201601N006210112819N009999199+00501+00301999999ADDGA1071+011281991GE19MSL   +99999+99999GF199999071990011281991991MA1100201999990MW1611REMMET055METAR EDOP 021120Z 16012KT 9999 -RA BKN037 05/03 Q1002=
0160101624999992014010211504+53427+011783FM-15+005199999V0201601V005710121919N009999199+00501+00401999999ADDGA1071+012191991GE19MSL   +99999+99999GF199999071990012191991991MA1100201999990MW1611REMMET063METAR EDOP 021150Z 16011KT 130V190 9999 -RA BKN040 05/04 Q1002=
0152101624999992014010212204+53427+011783FM-15+005199999V0201601N006710091419N009999199+00501+00501999999ADDGA1071+009141991GE19MSL   +99999+99999GF199999071990009141991991MA1100101999990MW1611REMMET055METAR EDOP 021220Z 16013KT 9999 -RA BKN030 05/05 Q1001=
0072101624999992014010304204+53427+011783FM-15+005199999V0201601N004119999999Y999999999+00401+00401999999ADDMA1100701999990REMMET045METAR EDOP 030420Z 16008KT CAVOK 04/04 Q1007=
0072101624999992014010304504+53427+011783FM-15+005199999V0201701N004619999999Y999999999+00401+00401999999ADDMA1100701999990REMMET045METAR EDOP 030450Z 17009KT CAVOK 04/04 Q1007=
0072101624999992014010305204+53427+011783FM-15+005199999V0201801N004619999999Y999999999+00401+00401999999ADDMA1100701999990REMMET045METAR EDOP 030520Z 18009KT CAVOK 04/04 Q1007=
0072101624999992014010305504+53427+011783FM-15+005199999V0201701N004119999999Y999999999+00401+00401999999ADDMA1100701999990REMMET045METAR EDOP 030550Z 17008KT CAVOK 04/04 Q1007=
0072101624999992014010306204+53427+011783FM-15+005199999V0201701N004119999999Y999999999+00401+00401999999ADDMA1100701999990REMMET045METAR EDOP 030620Z 17008KT CAVOK 04/04 Q1007=
0072101624999992014010306504+53427+011783FM-15+005199999V0201601N003619999999Y999999999+00401+00401999999ADDMA1100701999990REMMET045METAR EDOP 030650Z 16007KT CAVOK 04/04 Q1007=
0080101624999992014010307204+53427+011783FM-15+005199999V0201401V003119999999Y999999999+00401+00401999999ADDMA1100701999990REMMET053METAR EDOP 030720Z 14006KT 080V180 CAVOK 04/04 Q1007=
0080101624999992014010307504+53427+011783FM-15+005199999V0201501V003619999999Y999999999+00401+00301999999ADDMA1100701999990REMMET053METAR EDOP 030750Z 15007KT 120V180 CAVOK 04/03 Q1007=
0072101624999992014010308204+53427+011783FM-15+005199999V0201601N005119999999Y999999999+00401+00401999999ADDMA1100701999990REMMET045METAR EDOP 030820Z 16010KT CAVOK 04/04 Q1007=
0072101624999992014010308504+53427+011783FM-15+005199999V0201601N004119999999Y999999999+00401+00401999999ADDMA1100701999990REMMET045METAR EDOP 030850Z 16008KT CAVOK 04/04 Q1007=
0072101624999992014010309204+53427+011783FM-15+005199999V0201701N004619999999Y999999999+00501+00401999999ADDMA1100601999990REMMET045METAR EDOP 030920Z 17009KT CAVOK 05/04 Q1006=
0072101624999992014010309504+53427+011783FM-15+005199999V0201701N006219999999Y999999999+00501+00501999999ADDMA1100601999990REMMET045METAR EDOP 030950Z 17012KT CAVOK 05/05 Q1006=
0072101624999992014010310204+53427+011783FM-15+005199999V0201601N005119999999Y999999999+00501+00501999999ADDMA1100601999990REMMET045METAR EDOP 031020Z 16010KT CAVOK 05/05 Q1006=
0072101624999992014010310504+53427+011783FM-15+005199999V0201601N005119999999Y999999999+00601+00501999999ADDMA1100501999990REMMET045METAR EDOP 031050Z 16010KT CAVOK 06/05 Q1005=
0072101624999992014010311204+53427+011783FM-15+005199999V0201601N006219999999Y999999999+00601+00501999999ADDMA1100501999990REMMET045METAR EDOP 031120Z 16012KT CAVOK 06/05 Q1005=
0080101624999992014010311504+53427+011783FM-15+005199999V0201601V006219999999Y999999999+00701+00501999999ADDMA1100401999990REMMET053METAR EDOP 031150Z 16012KT 140V210 CAVOK 07/05 Q1004=
0072101624999992014010404204+53427+011783FM-15+005199999V0202201N006219999999Y999999999+00601+00401999999ADDMA1100701999990REMMET045METAR EDOP 040420Z 22012KT CAVOK 06/04 Q1007=
0072101624999992014010404504+53427+011783FM-15+005199999V0202201N007219999999Y999999999+00601+00401999999ADDMA1100701999990REMMET045METAR EDOP 040450Z 22014KT CAVOK 06/04 Q1007=
0072101624999992014010405204+53427+011783FM-15+005199999V0202301N007219999999Y999999999+00701+00401999999ADDMA1100701999990REMMET045METAR EDOP 040520Z 23014KT CAVOK 07/04 Q1007=
0072101624999992014010405504+53427+011783FM-15+005199999V0202301N006719999999Y999999999+00601+00301999999ADDMA1100801999990REMMET045METAR EDOP 040550Z 23013KT CAVOK 06/03 Q1008=
0072101624999992014010406204+53427+011783FM-15+005199999V0202401N006219999999Y999999999+00601+00301999999ADDMA1100801999990REMMET045METAR EDOP 040620Z 24012KT CAVOK 06/03 Q1008=
0072101624999992014010406504+53427+011783FM-15+005199999V0202301N005119999999Y999999999+00601+00301999999ADDMA1100801999990REMMET045METAR EDOP 040650Z 23010KT CAVOK 06/03 Q1008=
0072101624999992014010407204+53427+011783FM-15+005199999V0202101N005719999999Y999999999+00601+00301999999ADDMA1100801999990REMMET045METAR EDOP 040720Z 21011KT CAVOK 06/03 Q1008=
0072101624999992014010407504+53427+011783FM-15+005199999V0202001N006219999999Y999999999+00501+00301999999ADDMA1100801999990REMMET045METAR EDOP 040750Z 20012KT CAVOK 05/03 Q1008=
0072101624999992014010408204+53427+011783FM-15+005199999V0201901N005119999999Y999999999+00501+00301999999ADDMA1100901999990REMMET045METAR EDOP 040820Z 19010KT CAVOK 05/03 Q1009=
0072101624999992014010408504+53427+011783FM-15+005199999V0201901N005719999999Y999999999+00601+00301999999ADDMA1100901999990REMMET045METAR EDOP 040850Z 19011KT CAVOK 06/03 Q1009=
0072101624999992014010409204+53427+011783FM-15+005199999V0201801N005719999999Y999999999+00601+00301999999ADDMA1100901999990REMMET045METAR EDOP 040920Z 18011KT CAVOK 06/03 Q1009=
0072101624999992014010409504+53427+011783FM-15+005199999V0201801N005119999999Y999999999+00601+00301999999ADDMA1100901999990REMMET045METAR EDOP 040950Z 18010KT CAVOK 06/03 Q1009=
0072101624999992014010410204+53427+011783FM-15+005199999V0201801N005719999999Y999999999+00601+00201999999ADDMA1100901999990REMMET045METAR EDOP 041020Z 18011KT CAVOK 06/02 Q1009=
0072101624999992014010410504+53427+011783FM-15+005199999V0201701N004619999999Y999999999+00601+00201999999ADDMA1100801999990REMMET045METAR EDOP 041050Z 17009KT CAVOK 06/02 Q1008=
0072101624999992014010411204+53427+011783FM-15+005199999V0201701N005119999999Y999999999+00701+00301999999ADDMA1100801999990REMMET045METAR EDOP 041120Z 17010KT CAVOK 07/03 Q1008=
0072101624999992014010504204+53427+011783FM-15+005199999V0209999V001019999999Y999999999+00401+00401999999ADDMA1099701999990REMMET045METAR EDOP 050420Z VRB02KT CAVOK 04/04 Q0997=
0072101624999992014010504504+53427+011783FM-15+005199999V0209999V001519999999Y999999999+00201+00201999999ADDMA1099701999990REMMET045METAR EDOP 050450Z VRB03KT CAVOK 02/02 Q0997=
0080101624999992014010505204+53427+011783FM-15+005199999V0202001V002119999999Y999999999+00401+00301999999ADDMA1099801999990REMMET053METAR EDOP 050520Z 20004KT 140V270 CAVOK 04/03 Q0998=
0072101624999992014010505504+53427+011783FM-15+005199999V0202101N002119999999Y999999999+00301+00301999999ADDMA1099801999990REMMET045METAR EDOP 050550Z 21004KT CAVOK 03/03 Q0998=
0142101624999992014010506204+53427+011783FM-15+005199999V0202101N002619999999N009999199+00301+00301999999ADDGA1021+006101991GE19MSL   +99999+99999GF199999021990006101991991MA1099801999990REMMET051METAR EDOP 050620Z 21005KT 9999 FEW020 03/03 Q0998=
0142101624999992014010506504+53427+011783FM-15+005199999V0202201N003110061019N009999199+00401+00401999999ADDGA1071+006101991GE19MSL   +99999+99999GF199999071990006101991991MA1099801999990REMMET051METAR EDOP 050650Z 22006KT 9999 BKN020 04/04 Q0998=
0142101624999992014010507204+53427+011783FM-15+005199999V0202601N002610064019N009999199+00401+00401999999ADDGA1071+006401991GE19MSL   +99999+99999GF199999071990006401991991MA1099901999990REMMET051METAR EDOP 050720Z 26005KT 9999 BKN021 04/04 Q0999=
0165101624999992014010507504+53427+011783FM-15+005199999V0202401N003610121919N009999199+00501+00501999999ADDGA1041+006101991GA2071+012191991GE19MSL   +99999+99999GF199999041990006101991991MA1100001999990REMMET058METAR EDOP 050750Z 24007KT 9999 SCT020 BKN040 05/05 Q1000=
0142101624999992014010508204+53427+011783FM-15+005199999V0202201N004110076219N009999199+00501+00501999999ADDGA1071+007621991GE19MSL   +99999+99999GF199999071990007621991991MA1100001999990REMMET051METAR EDOP 050820Z 22008KT 9999 BKN025 05/05 Q1000=
0142101624999992014010508504+53427+011783FM-15+005199999V0202401N004610045719N009999199+00501+00501999999ADDGA1071+004571991GE19MSL   +99999+99999GF199999071990004571991991MA1100101999990REMMET051METAR EDOP 050850Z 24009KT 9999 BKN015 05/05 Q1001=
0142101624999992014010509204+53427+011783FM-15+005199999V0202401N005110030519N009999199+00501+00501999999ADDGA1071+003051991GE19MSL   +99999+99999GF199999071990003051991991MA1100101999990REMMET051METAR EDOP 050920Z 24010KT 9999 BKN010 05/05 Q1001=
0161101624999992014010509354+53427+011783FM-16+005199999V0202501N004610021319N003000199+00501+00501999999ADDGA1071+002131991GE19MSL   +99999+99999GF199999071990002131991991MA1100201999990MW1101MW2511REMMET058SPECI EDOP 050935Z 25009KT 3000 -DZ BR BKN007 05/05 Q1002=
0161101624999992014010509504+53427+011783FM-15+005199999V0202501N004610015219N003000199+00501+00501999999ADDGA1071+001521991GE19MSL   +99999+99999GF199999071990001521991991MA1100201999990MW1101MW2511REMMET058METAR EDOP 050950Z 25009KT 3000 -DZ BR BKN005 05/05 Q1002=
0175101624999992014010510204+53427+011783FM-15+005199999V0202501N004110121919N006000199+00501+00501999999ADDGA1041+001521991GA2071+012191991GE19MSL   +99999+99999GF199999041990001521991991MA1100201999990MW1511REMMET062METAR EDOP 051020Z 25008KT 6000 -DZ SCT005 BKN040 05/05 Q1002=
0175101624999992014010510504+53427+011783FM-15+005199999V0202401N003110167619N006000199+00501+00501999999ADDGA1041+001831991GA2071+016761991GE19MSL   +99999+99999GF199999041990001831991991MA1100201999990MW1511REMMET062METAR EDOP 051050Z 24006KT 6000 -DZ SCT006 BKN055 05/05 Q1002=
0142101624999992014010511204+53427+011783FM-15+005199999V0202501N004110015219N006000199+00601+00601999999ADDGA1071+001521991GE19MSL   +99999+99999GF199999071990001521991991MA1100301999990REMMET051METAR EDOP 051120Z 25008KT 6000 BKN005 06/06 Q1003=
0072101624999992014010604204+53427+011783FM-15+005199999V0201401N003119999999Y999999999+00101+00101999999ADDMA1100801999990REMMET045METAR EDOP 060420Z 14006KT CAVOK 01/01 Q1008=
0072101624999992014010604504+53427+011783FM-15+005199999V0201401N003619999999Y999999999+00101+00101999999ADDMA1100801999990REMMET045METAR EDOP 060450Z 14007KT CAVOK 01/01 Q1008=
0072101624999992014010605204+53427+011783FM-15+005199999V0201401N003619999999Y999999999+00201+00101999999ADDMA1100701999990REMMET045METAR EDOP 060520Z 14007KT CAVOK 02/01 Q1007=
0072101624999992014010605504+53427+011783FM-15+005199999V0201401N003119999999Y999999999+00201+00101999999ADDMA1100701999990REMMET045METAR EDOP 060550Z 14006KT CAVOK 02/01 Q1007=
0072101624999992014010606504+53427+011783FM-15+005199999V0201601N005719999999Y999999999+00201+00101999999ADDMA1100701999990REMMET045METAR EDOP 060650Z 16011KT CAVOK 02/01 Q1007=
0197101624999992014010607204+53427+011783FM-15+005199999V0201601N00621009141CN008000199+00201+00201999999ADDGA1021+006711991GA2041+009141991GA3071+018291991GE19MSL   +99999+99999GF199999021990006711991991MA1100601999990MW1631REMMET068METAR EDOP 060720Z 16012KT 8000 RA FEW022 SCT030 BKN060 02/02 Q1006=
0180101624999992014010607504+53427+011783FM-15+005199999V0201601N00571021341CN009000199+00201+00201999999ADDGA1021+009141991GA2041+021341991GE19MSL   +99999+99999GF199999021990009141991991MA1100601999990MW1611REMMET067METAR EDOP 060750Z 16011KT 9000 -RA FEW030 SCT070 02/02 Q1006 RERA=
0199101624999992014010608204+53427+011783FM-15+005199999V0201801V005710182919N006000199+00301+00201999999ADDGA1021+003051991GA2071+018291991GE19MSL   +99999+99999GF199999021990003051991991MA1100601999990MW1611OC101081REMMET078METAR EDOP 060820Z 18011G21KT 140V200 6000 -RA FEW010 BKN060 03/02      Q1006=
0160101624999992014010608504+53427+011783FM-15+005199999V0201701V005110067119N006000199+00301+00201999999ADDGA1071+006711991GE19MSL   +99999+99999GF199999071990006711991991MA1100601999990MW1611REMMET063METAR EDOP 060850Z 17010KT 140V200 6000 -RA BKN022 03/02 Q1006=
0150101624999992014010609204+53427+011783FM-15+005199999V0201701V005710067119N009999199+00301+00301999999ADDGA1071+006711991GE19MSL   +99999+99999GF199999071990006711991991MA1100601999990REMMET059METAR EDOP 060920Z 17011KT 130V190 9999 BKN022 03/03 Q1006=
0173101624999992014010609504+53427+011783FM-15+005199999V0201601V005710070119N009999199+00301+00301999999ADDGA1021+002441991GA2071+007011991GE19MSL   +99999+99999GF199999021990002441991991MA1100601999990REMMET066METAR EDOP 060950Z 16011KT 110V180 9999 FEW008 BKN023 03/03 Q1006=
0150101624999992014010610204+53427+011783FM-15+005199999V0201701V005110067119N009999199+00401+00301999999ADDGA1071+006711991GE19MSL   +99999+99999GF199999071990006711991991MA1100601999990REMMET059METAR EDOP 061020Z 17010KT 120V200 9999 BKN022 04/03 Q1006=
0169101624999992014010610504+53427+011783FM-15+005199999V0201801V004110061019N004200199+00401+00401999999ADDGA1071+006101991GE19MSL   +99999+99999GF199999071990006101991991MA1100601999990MW1101MW2611REMMET066METAR EDOP 061050Z 18008KT 130V230 4200 -RA BR BKN020 04/04 Q1006=
0169101624999992014010611204+53427+011783FM-15+005199999V0201801V005110067119N004800199+00401+00401999999ADDGA1071+006711991GE19MSL   +99999+99999GF199999071990006711991991MA1100601999990MW1101MW2611REMMET066METAR EDOP 061120Z 18010KT 150V220 4800 -RA BR BKN022 04/04 Q1006=
0150101624999992014010612204+53427+011783FM-15+005199999V0201801V005710061019N009999199+00501+00501999999ADDGA1071+006101991GE19MSL   +99999+99999GF199999071990006101991991MA1100601999990REMMET059METAR EDOP 061220Z 18011KT 140V210 9999 BKN020 05/05 Q1006=
0150101624999992014010612504+53427+011783FM-15+005199999V0201801V005710061019N009999199+00501+00501999999ADDGA1071+006101991GE19MSL   +99999+99999GF199999071990006101991991MA1100601999990REMMET059METAR EDOP 061250Z 18011KT 150V220 9999 BKN020 05/05 Q1006=
0150101624999992014010613204+53427+011783FM-15+005199999V0201701V004610067119N009999199+00501+00501999999ADDGA1071+006711991GE19MSL   +99999+99999GF199999071990006711991991MA1100601999990REMMET059METAR EDOP 061320Z 17009KT 140V200 9999 BKN022 05/05 Q1006=
0150101624999992014010613504+53427+011783FM-15+005199999V0201601V005110067119N009999199+00601+00601999999ADDGA1071+006711991GE19MSL   +99999+99999GF199999071990006711991991MA1100601999990REMMET059METAR EDOP 061350Z 16010KT 130V210 9999 BKN022 06/06 Q1006=
0173101624999992014010614204+53427+011783FM-15+005199999V0201701V004610182919N009999199+00601+00601999999ADDGA1041+006101991GA2071+018291991GE19MSL   +99999+99999GF199999041990006101991991MA1100701999990REMMET066METAR EDOP 061420Z 17009KT 130V200 9999 SCT020 BKN060 06/06 Q1007=
0080101624999992014010614504+53427+011783FM-15+005199999V0201701V004119999999Y999999999+00601+00601999999ADDMA1100601999990REMMET053METAR EDOP 061450Z 17008KT 140V200 CAVOK 06/06 Q1006=
0080101624999992014010615204+53427+011783FM-15+005199999V0201801V006719999999Y999999999+00601+00601999999ADDMA1100701999990REMMET053METAR EDOP 061520Z 18013KT 150V210 CAVOK 06/06 Q1007=
0072101624999992014010615504+53427+011783FM-15+005199999V0201801N006219999999Y999999999+00601+00601999999ADDMA1100701999990REMMET045METAR EDOP 061550Z 18012KT CAVOK 06/06 Q1007=
0142101624999992014010616204+53427+011783FM-15+005199999V0201801N005719999999N009999199+00701+00601999999ADDGA1041+012801991GE19MSL   +99999+99999GF199999041990012801991991MA1100701999990REMMET051METAR EDOP 061620Z 18011KT 9999 SCT042 07/06 Q1007=
0142101624999992014010616504+53427+011783FM-15+005199999V0201701N006219999999N009999199+00601+00601999999ADDGA1041+013721991GE19MSL   +99999+99999GF199999041990013721991991MA1100701999990REMMET051METAR EDOP 061650Z 17012KT 9999 SCT045 06/06 Q1007=
0142101624999992014010704204+53427+011783FM-15+005199999V0202101N005719999999N009999199+00901+00901999999ADDGA1021+009141991GE19MSL   +99999+99999GF199999021990009141991991MA1100701999990REMMET051METAR EDOP 070420Z 21011KT 9999 FEW030 09/09 Q1007=
0072101624999992014010704504+53427+011783FM-15+005199999V0202101N006719999999Y999999999+00901+00901999999ADDMA1100801999990REMMET045METAR EDOP 070450Z 21013KT CAVOK 09/09 Q1008=
0072101624999992014010705204+53427+011783FM-15+005199999V0202101N004619999999Y999999999+00901+00901999999ADDMA1100801999990REMMET045METAR EDOP 070520Z 21009KT CAVOK 09/09 Q1008=
0072101624999992014010705504+53427+011783FM-15+005199999V0202101N004619999999Y999999999+00901+00801999999ADDMA1100801999990REMMET045METAR EDOP 070550Z 21009KT CAVOK 09/08 Q1008=
0142101624999992014010706504+53427+011783FM-15+005199999V0202001N005719999999N009999199+00801+00801999999ADDGA1021+009141991GE19MSL   +99999+99999GF199999021990009141991991MA1100901999990REMMET051METAR EDOP 070650Z 20011KT 9999 FEW030 08/08 Q1009=
0142101624999992014010707204+53427+011783FM-15+005199999V0202001N006219999999N009999199+00801+00801999999ADDGA1021+009751991GE19MSL   +99999+99999GF199999021990009751991991MA1101001999990REMMET051METAR EDOP 070720Z 20012KT 9999 FEW032 08/08 Q1010=
0142101624999992014010707504+53427+011783FM-15+005199999V0202001N006219999999N009999199+00801+00801999999ADDGA1021+009141991GE19MSL   +99999+99999GF199999021990009141991991MA1101001999990REMMET051METAR EDOP 070750Z 20012KT 9999 FEW030 08/08 Q1010=
0142101624999992014010708204+53427+011783FM-15+005199999V0202001N007219999999N009999199+00801+00801999999ADDGA1021+014021991GE19MSL   +99999+99999GF199999021990014021991991MA1101001999990REMMET051METAR EDOP 070820Z 20014KT 9999 FEW046 08/08 Q1010=
0142101624999992014010708504+53427+011783FM-15+005199999V0202101N007219999999N009999199+00901+00801999999ADDGA1021+013721991GE19MSL   +99999+99999GF199999021990013721991991MA1101101999990REMMET051METAR EDOP 070850Z 21014KT 9999 FEW045 09/08 Q1011=
0142101624999992014010709204+53427+011783FM-15+005199999V0202101N007719999999N009999199+00901+00901999999ADDGA1041+013721991GE19MSL   +99999+99999GF199999041990013721991991MA1101101999990REMMET051METAR EDOP 070920Z 21015KT 9999 SCT045 09/09 Q1011=
0142101624999992014010709504+53427+011783FM-15+005199999V0202101N007210134119N009999199+00901+00901999999ADDGA1071+013411991GE19MSL   +99999+99999GF199999071990013411991991MA1101101999990REMMET051METAR EDOP 070950Z 21014KT 9999 BKN044 09/09 Q1011=
0150101624999992014010710204+53427+011783FM-15+005199999V0201901V006210137219N009999199+00901+00901999999ADDGA1071+013721991GE19MSL   +99999+99999GF199999071990013721991991MA1101101999990REMMET059METAR EDOP 071020Z 19012KT 170V230 9999 BKN045 09/09 Q1011=
0142101624999992014010710504+53427+011783FM-15+005199999V0202001N007710146319N009999199+00901+00901999999ADDGA1071+014631991GE19MSL   +99999+99999GF199999071990014631991991MA1101101999990REMMET051METAR EDOP 071050Z 20015KT 9999 BKN048 09/09 Q1011=
0142101624999992014010711204+53427+011783FM-15+005199999V0202001N007719999999N009999199+01001+00801999999ADDGA1041+014331991GE19MSL   +99999+99999GF199999041990014331991991MA1101101999990REMMET051METAR EDOP 071120Z 20015KT 9999 SCT047 10/08 Q1011=
0142101624999992014010711504+53427+011783FM-15+005199999V0202001N007719999999N009999199+01001+00801999999ADDGA1041+012801991GE19MSL   +99999+99999GF199999041990012801991991MA1101101999990REMMET051METAR EDOP 071150Z 20015KT 9999 SCT042 10/08 Q1011=
0072101624999992014010712204+53427+011783FM-15+005199999V0202101N006719999999Y999999999+01001+00801999999ADDMA1101101999990REMMET045METAR EDOP 071220Z 21013KT CAVOK 10/08 Q1011=
0072101624999992014010712504+53427+011783FM-15+005199999V0202101N007219999999Y999999999+01101+00801999999ADDMA1101101999990REMMET045METAR EDOP 071250Z 21014KT CAVOK 11/08 Q1011=
0072101624999992014010713204+53427+011783FM-15+005199999V0202001N006719999999Y999999999+01101+00701999999ADDMA1101101999990REMMET045METAR EDOP 071320Z 20013KT CAVOK 11/07 Q1011=
0072101624999992014010713504+53427+011783FM-15+005199999V0202001N005719999999Y999999999+01101+00701999999ADDMA1101101999990REMMET045METAR EDOP 071350Z 20011KT CAVOK 11/07 Q1011=
0142101624999992014010714204+53427+011783FM-15+005199999V0202101N005719999999N009999199+01101+00701999999ADDGA1041+010671991GE19MSL   +99999+99999GF199999041990010671991991MA1101201999990REMMET051METAR EDOP 071420Z 21011KT 9999 SCT035 11/07 Q1012=
0142101624999992014010714504+53427+011783FM-15+005199999V0202001N005119999999N009999199+01001+00601999999ADDGA1041+010671991GE19MSL   +99999+99999GF199999041990010671991991MA1101101999990REMMET051METAR EDOP 071450Z 20010KT 9999 SCT035 10/06 Q1011=
0072101624999992014010715204+53427+011783FM-15+005199999V0201901N005719999999Y999999999+01001+00601999999ADDMA1101101999990REMMET045METAR EDOP 071520Z 19011KT CAVOK 10/06 Q1011=
0072101624999992014010716204+53427+011783FM-15+005199999V0201901N006719999999Y999999999+01001+00601999999ADDMA1101101999990REMMET045METAR EDOP 071620Z 19013KT CAVOK 10/06 Q1011=
0072101624999992014010716504+53427+011783FM-15+005199999V0201901N006219999999Y999999999+00901+00601999999ADDMA1101101999990REMMET045METAR EDOP 071650Z 19012KT CAVOK 09/06 Q1011=
0152101624999992014010809204+53427+011783FM-15+005199999V0202301N005110036619N009999199+00901+00801999999ADDGA1071+003661991GE19MSL   +99999+99999GF199999071990003661991991MA1101101999990MW1611REMMET055METAR EDOP 080920Z 23010KT 9999 -RA BKN012 09/08 Q1011=
0152101624999992014010809504+53427+011783FM-15+005199999V0202501N008810036619N009999199+00901+00801999999ADDGA1071+003661991GE19MSL   +99999+99999GF199999071990003661991991MA1101101999990MW1611REMMET055METAR EDOP 080950Z 25017KT 9999 -RA BKN012 09/08 Q1011=
0142101624999992014010810204+53427+011783FM-15+005199999V0202801N006719999999N009999199+00801+00801999999ADDGA1041+003961991GE19MSL   +99999+99999GF199999041990003961991991MA1101201999990REMMET051METAR EDOP 081020Z 28013KT 9999 SCT013 08/08 Q1012=
0165101624999992014010810504+53427+011783FM-15+005199999V0202701N00621009751CN009999199+00801+00801999999ADDGA1021+003961991GA2041+009751991GE19MSL   +99999+99999GF199999021990003961991991MA1101201999990REMMET058METAR EDOP 081050Z 27012KT 9999 FEW013 SCT032 08/08 Q1012=
0142101624999992014010811204+53427+011783FM-15+005199999V0202601N006210048819N009999199+00801+00801999999ADDGA1071+004881991GE19MSL   +99999+99999GF199999071990004881991991MA1101301999990REMMET051METAR EDOP 081120Z 26012KT 9999 BKN016 08/08 Q1013=
0153101624999992014010811404+53427+011783FM-16+005199999V0202601N009310048819N009999199+00801+00801999999ADDGA1071+004881991GE19MSL   +99999+99999GF199999071990004881991991MA1101301999990OC101541REMMET054SPECI EDOP 081140Z 26018G30KT 9999 BKN016 08/08 Q1013=
0153101624999992014010811504+53427+011783FM-15+005199999V0202601N009310048819N009999199+00801+00801999999ADDGA1071+004881991GE19MSL   +99999+99999GF199999071990004881991991MA1101301999990OC101541REMMET054METAR EDOP 081150Z 26018G30KT 9999 BKN016 08/08 Q1013=
0142101624999992014010812204+53427+011783FM-15+005199999V0202501N008210054919N009999199+00801+00801999999ADDGA1071+005491991GE19MSL   +99999+99999GF199999071990005491991991MA1101401999990REMMET051METAR EDOP 081220Z 25016KT 9999 BKN018 08/08 Q1014=
0142101624999992014010812504+53427+011783FM-15+005199999V0202501N007210067119N009999199+00901+00801999999ADDGA1071+006711991GE19MSL   +99999+99999GF199999071990006711991991MA1101301999990REMMET051METAR EDOP 081250Z 25014KT 9999 BKN022 09/08 Q1013=
0142101624999992014010813204+53427+011783FM-15+005199999V0202501N007710061019N009999199+00901+00801999999ADDGA1071+006101991GE19MSL   +99999+99999GF199999071990006101991991MA1101401999990REMMET051METAR EDOP 081320Z 25015KT 9999 BKN020 09/08 Q1014=
0142101624999992014010813504+53427+011783FM-15+005199999V0202401N006710070119N009999199+00901+00701999999ADDGA1071+007011991GE19MSL   +99999+99999GF199999071990007011991991MA1101401999990REMMET051METAR EDOP 081350Z 24013KT 9999 BKN023 09/07 Q1014=
0142101624999992014010814204+53427+011783FM-15+005199999V0202401N006710067119N009999199+00901+00701999999ADDGA1071+006711991GE19MSL   +99999+99999GF199999071990006711991991MA1101401999990REMMET051METAR EDOP 081420Z 24013KT 9999 BKN022 09/07 Q1014=
0142101624999992014010814504+53427+011783FM-15+005199999V0202401N006710076219N009999199+00901+00601999999ADDGA1071+007621991GE19MSL   +99999+99999GF199999071990007621991991MA1101401999990REMMET051METAR EDOP 081450Z 24013KT 9999 BKN025 09/06 Q1014=
0142101624999992014010815204+53427+011783FM-15+005199999V0202401N006710076219N009999199+00801+00601999999ADDGA1071+007621991GE19MSL   +99999+99999GF199999071990007621991991MA1101401999990REMMET051METAR EDOP 081520Z 24013KT 9999 BKN025 08/06 Q1014=
0142101624999992014010815504+53427+011783FM-15+005199999V0202401N006710073219N009999199+00801+00601999999ADDGA1071+007321991GE19MSL   +99999+99999GF199999071990007321991991MA1101501999990REMMET051METAR EDOP 081550Z 24013KT 9999 BKN024 08/06 Q1015=
0142101624999992014010816204+53427+011783FM-15+005199999V0202401N005710070119N009999199+00801+00601999999ADDGA1071+007011991GE19MSL   +99999+99999GF199999071990007011991991MA1101501999990REMMET051METAR EDOP 081620Z 24011KT 9999 BKN023 08/06 Q1015=
0142101624999992014010816504+53427+011783FM-15+005199999V0202301N005710091419N009999199+00801+00601999999ADDGA1071+009141991GE19MSL   +99999+99999GF199999071990009141991991MA1101501999990REMMET051METAR EDOP 081650Z 23011KT 9999 BKN030 08/06 Q1015=
0165101624999992014010909204+53427+011783FM-15+005199999V0201801N006710152419N008000199+00801+00801999999ADDGA1021+009141991GA2071+015241991GE19MSL   +99999+99999GF199999021990009141991991MA1100401999990REMMET058METAR EDOP 090920Z 18013KT 8000 FEW030 BKN050 08/08 Q1004=
0165101624999992014010909504+53427+011783FM-15+005199999V0201701N006710152419N009000199+00801+00801999999ADDGA1021+003051991GA2071+015241991GE19MSL   +99999+99999GF199999021990003051991991MA1100301999990REMMET058METAR EDOP 090950Z 17013KT 9000 FEW010 BKN050 08/08 Q1003=
0142101624999992014010910204+53427+011783FM-15+005199999V0201801N007219999999N009999199+00901+00801999999ADDGA1041+013721991GE19MSL   +99999+99999GF199999041990013721991991MA1100201999990REMMET051METAR EDOP 091020Z 18014KT 9999 SCT045 09/08 Q1002=
0072101624999992014010910504+53427+011783FM-15+005199999V0201801N007719999999Y999999999+00901+00901999999ADDMA1100101999990REMMET045METAR EDOP 091050Z 18015KT CAVOK 09/09 Q1001=
0072101624999992014010911204+53427+011783FM-15+005199999V0201901N008219999999Y999999999+01001+00901999999ADDMA1100101999990REMMET045METAR EDOP 091120Z 19016KT CAVOK 10/09 Q1001=
0142101624999992014010911504+53427+011783FM-15+005199999V0202001N007210091419N009999199+01001+01001999999ADDGA1071+009141991GE19MSL   +99999+99999GF199999071990009141991991MA1100001999990REMMET051METAR EDOP 091150Z 20014KT 9999 BKN030 10/10 Q1000=
0142101624999992014010912204+53427+011783FM-15+005199999V0202001N007710085319N009999199+01101+00901999999ADDGA1071+008531991GE19MSL   +99999+99999GF199999071990008531991991MA1100001999990REMMET051METAR EDOP 091220Z 20015KT 9999 BKN028 11/09 Q1000=
0142101624999992014010912504+53427+011783FM-15+005199999V0202001N007210091419N009999199+01101+00901999999ADDGA1071+009141991GE19MSL   +99999+99999GF199999071990009141991991MA1099901999990REMMET051METAR EDOP 091250Z 20014KT 9999 BKN030 11/09 Q0999=
0165101624999992014010913204+53427+011783FM-15+005199999V0202001N007710304819N009999199+01101+00901999999ADDGA1041+009141991GA2071+030481991GE19MSL   +99999+99999GF199999041990009141991991MA1099901999990REMMET058METAR EDOP 091320Z 20015KT 9999 SCT030 BKN100 11/09 Q0999=
0165101624999992014010913504+53427+011783FM-15+005199999V0202001N007210152419N009999199+01101+00901999999ADDGA1041+009141991GA2071+015241991GE19MSL   +99999+99999GF199999041990009141991991MA1099801999990REMMET058METAR EDOP 091350Z 20014KT 9999 SCT030 BKN050 11/09 Q0998=
0142101624999992014010914204+53427+011783FM-15+005199999V0202001N006710085319N009999199+01101+00901999999ADDGA1071+008531991GE19MSL   +99999+99999GF199999071990008531991991MA1099801999990REMMET051METAR EDOP 091420Z 20013KT 9999 BKN028 11/09 Q0998=
0142101624999992014010914504+53427+011783FM-15+005199999V0202001N007210091419N009999199+01101+00901999999ADDGA1071+009141991GE19MSL   +99999+99999GF199999071990009141991991MA1099701999990REMMET051METAR EDOP 091450Z 20014KT 9999 BKN030 11/09 Q0997=
0142101624999992014010915204+53427+011783FM-15+005199999V0202101N008210091419N009999199+01201+00801999999ADDGA1071+009141991GE19MSL   +99999+99999GF199999071990009141991991MA1099701999990REMMET051METAR EDOP 091520Z 21016KT 9999 BKN030 12/08 Q0997=
0152101624999992014010915504+53427+011783FM-15+005199999V0202101N009810091419N009999199+01201+00801999999ADDGA1071+009141991GE19MSL   +99999+99999GF199999071990009141991991MA1099601999990MW1511REMMET055METAR EDOP 091550Z 21019KT 9999 -DZ BKN030 12/08 Q0996=
0200101624999992014010916204+53427+011783FM-15+005199999V0202301V011810091419N004000199+00801+00701999999ADDGA1041+003051991GA2071+009141991GE19MSL   +99999+99999GF199999041990003051991991MA1099601999990MW1811OC102521REMMET079METAR EDOP 091620Z 23023G49KT 190V290 4000 SHRA SCT010 BKN030 08/07      Q0996=
0181101624999992014010916504+53427+011783FM-15+005199999V0202401N011310152419N009999199+01001+00801999999ADDGA1021+003051991GA2071+015241991GE19MSL   +99999+99999GF199999021990003051991991MA1099601999990OC101701REMMET066METAR EDOP 091650Z 24022G33KT 9999 FEW010 BKN050 10/08 Q0996 RERA=
0152101624999992014011010204+53427+011783FM-15+005199999V0202601N008810054919N009999199+00601+00501999999ADDGA1071+005491991GE19MSL   +99999+99999GF199999071990005491991991MA1100801999990MW1611REMMET055METAR EDOP 101020Z 26017KT 9999 -RA BKN018 06/05 Q1008=
0175101624999992014011010504+53427+011783FM-15+005199999V0202601N00821006101CN009999199+00601+00601999999ADDGA1021+003051991GA2041+006101991GE19MSL   +99999+99999GF199999021990003051991991MA1100801999990MW1611REMMET062METAR EDOP 101050Z 26016KT 9999 -RA FEW010 SCT020 06/06 Q1008=
0142101624999992014011011204+53427+011783FM-15+005199999V0202601N008210061019N009999199+00701+00501999999ADDGA1071+006101991GE19MSL   +99999+99999GF199999071990006101991991MA1100801999990REMMET051METAR EDOP 101120Z 26016KT 9999 BKN020 07/05 Q1008=
0154101624999992014011011504+53427+011783FM-15+005199999V0202601N008810067119N009999199+00701+00501999999ADDGA1071+006711991GE19MSL   +99999+99999GF199999071990006711991991MA1100901999990MW1801REMMET057METAR EDOP 101150Z 26017KT 9999 -SHRA BKN022 07/05 Q1009=
0153101624999992014011012204+53427+011783FM-15+005199999V0202601N009810070119N009999199+00701+00401999999ADDGA1071+007011991GE19MSL   +99999+99999GF199999071990007011991991MA1100901999990OC101491REMMET054METAR EDOP 101220Z 26019G29KT 9999 BKN023 07/04 Q1009=
0153101624999992014011012504+53427+011783FM-15+005199999V0202601N008810061019N008000199+00701+00501999999ADDGA1071+006101991GE19MSL   +99999+99999GF199999071990006101991991MA1100901999990OC101491REMMET054METAR EDOP 101250Z 26017G29KT 8000 BKN020 07/05 Q1009=
0142101624999992014011013204+53427+011783FM-15+005199999V0202601N009810061019N009999199+00601+00501999999ADDGA1071+006101991GE19MSL   +99999+99999GF199999071990006101991991MA1100901999990REMMET051METAR EDOP 101320Z 26019KT 9999 BKN020 06/05 Q1009=
0165101624999992014011013504+53427+011783FM-15+005199999V0202601N008210106719N009999199+00601+00501999999ADDGA1041+004881991GA2071+010671991GE19MSL   +99999+99999GF199999041990004881991991MA1101001999990REMMET058METAR EDOP 101350Z 26016KT 9999 SCT016 BKN035 06/05 Q1010=
0165101624999992014011014204+53427+011783FM-15+005199999V0202501N00881009141CN009999199+00601+00501999999ADDGA1041+006101991GA2041+009141991GE19MSL   +99999+99999GF199999041990006101991991MA1101001999990REMMET058METAR EDOP 101420Z 25017KT 9999 SCT020 SCT030 06/05 Q1010=
0165101624999992014011014504+53427+011783FM-15+005199999V0202501N006710076219N009999199+00601+00501999999ADDGA1021+005491991GA2071+007621991GE19MSL   +99999+99999GF199999021990005491991991MA1101001999990REMMET058METAR EDOP 101450Z 25013KT 9999 FEW018 BKN025 06/05 Q1010=
0142101624999992014011015204+53427+011783FM-15+005199999V0202501N007710061019N009999199+00601+00501999999ADDGA1071+006101991GE19MSL   +99999+99999GF199999071990006101991991MA1101001999990REMMET051METAR EDOP 101520Z 25015KT 9999 BKN020 06/05 Q1010=
0142101624999992014011015504+53427+011783FM-15+005199999V0202501N008810061019N009999199+00601+00401999999ADDGA1071+006101991GE19MSL   +99999+99999GF199999071990006101991991MA1101101999990REMMET051METAR EDOP 101550Z 25017KT 9999 BKN020 06/04 Q1011=
0165101624999992014011016204+53427+011783FM-15+005199999V0202601N008210137219N009999199+00601+00401999999ADDGA1041+006101991GA2071+013721991GE19MSL   +99999+99999GF199999041990006101991991MA1101101999990REMMET058METAR EDOP 101620Z 26016KT 9999 SCT020 BKN045 06/04 Q1011=
0165101624999992014011016504+53427+011783FM-15+005199999V0202501N008210091419N009999199+00601+00401999999ADDGA1021+006101991GA2071+009141991GE19MSL   +99999+99999GF199999021990006101991991MA1101101999990REMMET058METAR EDOP 101650Z 25016KT 9999 FEW020 BKN030 06/04 Q1011=
0165101624999992014011111204+53427+011783FM-15+005199999V0202201N00671024381CN009999199+00601+00401999999ADDGA1021+004571991GA2041+024381991GE19MSL   +99999+99999GF199999021990004571991991MA1101001999990REMMET058METAR EDOP 111120Z 22013KT 9999 FEW015 SCT080 06/04 Q1010=
0072101624999992014011111504+53427+011783FM-15+005199999V0202201N007219999999Y999999999+00601+00301999999ADDMA1100901999990REMMET045METAR EDOP 111150Z 22014KT CAVOK 06/03 Q1009=
0072101624999992014011112204+53427+011783FM-15+005199999V0202201N006719999999Y999999999+00601+00301999999ADDMA1100901999990REMMET045METAR EDOP 111220Z 22013KT CAVOK 06/03 Q1009=
0072101624999992014011112504+53427+011783FM-15+005199999V0202201N007219999999Y999999999+00601+00301999999ADDMA1100901999990REMMET045METAR EDOP 111250Z 22014KT CAVOK 06/03 Q1009=
0142101624999992014011113204+53427+011783FM-15+005199999V0202201N006219999999N009999199+00701+00301999999ADDGA1041+007621991GE19MSL   +99999+99999GF199999041990007621991991MA1100801999990REMMET051METAR EDOP 111320Z 22012KT 9999 SCT025 07/03 Q1008=
0142101624999992014011113504+53427+011783FM-15+005199999V0202201N006210076219N009999199+00701+00301999999ADDGA1071+007621991GE19MSL   +99999+99999GF199999071990007621991991MA1100801999990REMMET051METAR EDOP 111350Z 22012KT 9999 BKN025 07/03 Q1008=
0142101624999992014011114204+53427+011783FM-15+005199999V0202201N006710073219N009999199+00601+00301999999ADDGA1071+007321991GE19MSL   +99999+99999GF199999071990007321991991MA1100801999990REMMET051METAR EDOP 111420Z 22013KT 9999 BKN024 06/03 Q1008=
0152101624999992014011114504+53427+011783FM-15+005199999V0202201N006710067119N008000199+00601+00401999999ADDGA1071+006711991GE19MSL   +99999+99999GF199999071990006711991991MA1100701999990MW1611REMMET055METAR EDOP 111450Z 22013KT 8000 -RA BKN022 06/04 Q1007=
0152101624999992014011115204+53427+011783FM-15+005199999V0202201N006710054919N009000199+00501+00501999999ADDGA1071+005491991GE19MSL   +99999+99999GF199999071990005491991991MA1100701999990MW1611REMMET055METAR EDOP 111520Z 22013KT 9000 -RA BKN018 05/05 Q1007=
0152101624999992014011115504+53427+011783FM-15+005199999V0202301N006210045719N009000199+00501+00501999999ADDGA1071+004571991GE19MSL   +99999+99999GF199999071990004571991991MA1100701999990MW1611REMMET055METAR EDOP 111550Z 23012KT 9000 -RA BKN015 05/05 Q1007=
0152101624999992014011116204+53427+011783FM-15+005199999V0202401N008810036619N009000199+00601+00501999999ADDGA1071+003661991GE19MSL   +99999+99999GF199999071990003661991991MA1100601999990MW1611REMMET055METAR EDOP 111620Z 24017KT 9000 -RA BKN012 06/05 Q1006=
0152101624999992014011116504+53427+011783FM-15+005199999V0202501N007710024419N009000199+00501+00501999999ADDGA1071+002441991GE19MSL   +99999+99999GF199999071990002441991991MA1100701999990MW1611REMMET055METAR EDOP 111650Z 25015KT 9000 -RA BKN008 05/05 Q1007=
0142101624999992014011208504+53427+011783FM-15+005199999V0202601N005710033519N009999199+00301+00301999999ADDGA1071+003351991GE19MSL   +99999+99999GF199999071990003351991991MA1101901999990REMMET051METAR EDOP 120850Z 26011KT 9999 BKN011 03/03 Q1019=
0142101624999992014011209204+53427+011783FM-15+005199999V0202501N007210036619N009999199+00301+00301999999ADDGA1071+003661991GE19MSL   +99999+99999GF199999071990003661991991MA1101901999990REMMET051METAR EDOP 120920Z 25014KT 9999 BKN012 03/03 Q1019=
0142101624999992014011209504+53427+011783FM-15+005199999V0202601N007710033519N009999199+00401+00301999999ADDGA1071+003351991GE19MSL   +99999+99999GF199999071990003351991991MA1101901999990REMMET051METAR EDOP 120950Z 26015KT 9999 BKN011 04/03 Q1019=
0142101624999992014011210204+53427+011783FM-15+005199999V0202601N007710039619N009999199+00401+00401999999ADDGA1071+003961991GE19MSL   +99999+99999GF199999071990003961991991MA1101901999990REMMET051METAR EDOP 121020Z 26015KT 9999 BKN013 04/04 Q1019=
0154101624999992014011210504+53427+011783FM-15+005199999V0202601N007710054919N009999199+00401+00401999999ADDGA1071+005491991GE19MSL   +99999+99999GF199999071990005491991991MA1101901999990MW1801REMMET057METAR EDOP 121050Z 26015KT 9999 -SHRA BKN018 04/04 Q1019=
0142101624999992014011211204+53427+011783FM-15+005199999V0202601N007719999999N009999199+00501+00401999999ADDGA1041+004571991GE19MSL   +99999+99999GF199999041990004571991991MA1101901999990REMMET051METAR EDOP 121120Z 26015KT 9999 SCT015 05/04 Q1019=
0142101624999992014011211504+53427+011783FM-15+005199999V0202601N007719999999N009999199+00501+00401999999ADDGA1041+005491991GE19MSL   +99999+99999GF199999041990005491991991MA1101801999990REMMET051METAR EDOP 121150Z 26015KT 9999 SCT018 05/04 Q1018=
0142101624999992014011212204+53427+011783FM-15+005199999V0202601N006719999999N009999199+00501+00301999999ADDGA1041+006101991GE19MSL   +99999+99999GF199999041990006101991991MA1101801999990REMMET051METAR EDOP 121220Z 26013KT 9999 SCT020 05/03 Q1018=
0142101624999992014011212504+53427+011783FM-15+005199999V0202601N006219999999N009999199+00501+00401999999ADDGA1041+007011991GE19MSL   +99999+99999GF199999041990007011991991MA1101801999990REMMET051METAR EDOP 121250Z 26012KT 9999 SCT023 05/04 Q1018=
0142101624999992014011213204+53427+011783FM-15+005199999V0202701N007719999999N009999199+00501+00301999999ADDGA1041+006711991GE19MSL   +99999+99999GF199999041990006711991991MA1101801999990REMMET051METAR EDOP 121320Z 27015KT 9999 SCT022 05/03 Q1018=
0142101624999992014011213504+53427+011783FM-15+005199999V0202701N006719999999N009999199+00501+00301999999ADDGA1041+007321991GE19MSL   +99999+99999GF199999041990007321991991MA1101801999990REMMET051METAR EDOP 121350Z 27013KT 9999 SCT024 05/03 Q1018=
0153101624999992014011214204+53427+011783FM-15+005199999V0202701N006219999999N009999199+00501+00301999999ADDGA1021+007621991GE19MSL   +99999+99999GF199999021990007621991991MA1101801999990OC101181REMMET054METAR EDOP 121420Z 27012G23KT 9999 FEW025 05/03 Q1018=
0142101624999992014011214504+53427+011783FM-15+005199999V0202701N005719999999N009999199+00501+00201999999ADDGA1021+008231991GE19MSL   +99999+99999GF199999021990008231991991MA1101801999990REMMET051METAR EDOP 121450Z 27011KT 9999 FEW027 05/02 Q1018=
0072101624999992014011215204+53427+011783FM-15+005199999V0202701N005719999999Y999999999+00401+00201999999ADDMA1101801999990REMMET045METAR EDOP 121520Z 27011KT CAVOK 04/02 Q1018=
0072101624999992014011215504+53427+011783FM-15+005199999V0202701N004619999999Y999999999+00401+00201999999ADDMA1101801999990REMMET045METAR EDOP 121550Z 27009KT CAVOK 04/02 Q1018=
0142101624999992014011216204+53427+011783FM-15+005199999V0202601N005119999999N009999199+00301+00201999999ADDGA1041+010671991GE19MSL   +99999+99999GF199999041990010671991991MA1101801999990REMMET051METAR EDOP 121620Z 26010KT 9999 SCT035 03/02 Q1018=
0142101624999992014011216504+53427+011783FM-15+005199999V0202601N005719999999N009999199+00401+00301999999ADDGA1041+011281991GE19MSL   +99999+99999GF199999041990011281991991MA1101801999990REMMET051METAR EDOP 121650Z 26011KT 9999 SCT037 04/03 Q1018=
0112101624999992014011304204+53427+011783FM-15+005199999V0201001N002612200019N002500199+00001-00101999999ADDGF100991999999999999999999MA1101501999990MW1101REMMET053METAR EDOP 130420Z 10005KT 2500 BR NSC M00/M01 Q1015=
0112101624999992014011304504+53427+011783FM-15+005199999V0201001N002612200019N003500199+00001-00101999999ADDGF100991999999999999999999MA1101401999990MW1101REMMET053METAR EDOP 130450Z 10005KT 3500 BR NSC M00/M01 Q1014=
0112101624999992014011305204+53427+011783FM-15+005199999V0201001N003612200019N003000199+00001+00001999999ADDGF100991999999999999999999MA1101301999990MW1101REMMET053METAR EDOP 130520Z 10007KT 3000 BR NSC M00/M00 Q1013=
0111101624999992014011305504+53427+011783FM-15+005199999V0201001N004112200019N003000199+00001+00001999999ADDGF100991999999999999999999MA1101301999990MW1101REMMET052METAR EDOP 130550Z 10008KT 3000 BR NSC 00/M00 Q1013=
0151101624999992014011306504+53427+011783FM-15+005199999V0201101N005710009119N003000199+00101+00001999999ADDGA1071+000911991GE19MSL   +99999+99999GF199999071990000911991991MA1101301999990MW1101REMMET054METAR EDOP 130650Z 11011KT 3000 BR BKN003 01/00 Q1013=
0151101624999992014011307204+53427+011783FM-15+005199999V0201101N005110012219N003000199+00101+00101999999ADDGA1071+001221991GE19MSL   +99999+99999GF199999071990001221991991MA1101201999990MW1101REMMET054METAR EDOP 130720Z 11010KT 3000 BR BKN004 01/01 Q1012=
0151101624999992014011307504+53427+011783FM-15+005199999V0201101N005110015219N003500199+00101+00101999999ADDGA1071+001521991GE19MSL   +99999+99999GF199999071990001521991991MA1101201999990MW1101REMMET054METAR EDOP 130750Z 11010KT 3500 BR BKN005 01/01 Q1012=
0151101624999992014011308204+53427+011783FM-15+005199999V0201301N005110018319N004500199+00101+00101999999ADDGA1071+001831991GE19MSL   +99999+99999GF199999071990001831991991MA1101201999990MW1101REMMET054METAR EDOP 130820Z 13010KT 4500 BR BKN006 01/01 Q1012=
0142101624999992014011308504+53427+011783FM-15+005199999V0201301N005110021319N006000199+00201+00101999999ADDGA1071+002131991GE19MSL   +99999+99999GF199999071990002131991991MA1101201999990REMMET051METAR EDOP 130850Z 13010KT 6000 BKN007 02/01 Q1012=
0142101624999992014011309204+53427+011783FM-15+005199999V0201301N005710024419N008000199+00201+00201999999ADDGA1071+002441991GE19MSL   +99999+99999GF199999071990002441991991MA1101101999990REMMET051METAR EDOP 130920Z 13011KT 8000 BKN008 02/02 Q1011=
0173101624999992014011309504+53427+011783FM-15+005199999V0201401V005710152419N009999199+00201+00201999999ADDGA1041+002741991GA2071+015241991GE19MSL   +99999+99999GF199999041990002741991991MA1101101999990REMMET066METAR EDOP 130950Z 14011KT 100V170 9999 SCT009 BKN050 02/02 Q1011=
0173101624999992014011310204+53427+011783FM-15+005199999V0201401V005110121919N009999199+00201+00201999999ADDGA1021+003051991GA2071+012191991GE19MSL   +99999+99999GF199999021990003051991991MA1101101999990REMMET066METAR EDOP 131020Z 14010KT 110V170 9999 FEW010 BKN040 02/02 Q1011=
0150101624999992014011310504+53427+011783FM-15+005199999V0201601V005710112819N009999199+00201+00101999999ADDGA1071+011281991GE19MSL   +99999+99999GF199999071990011281991991MA1101101999990REMMET059METAR EDOP 131050Z 16011KT 130V190 9999 BKN037 02/01 Q1011=
0142101624999992014011311204+53427+011783FM-15+005199999V0201601N005110076219N009999199+00201+00001999999ADDGA1071+007621991GE19MSL   +99999+99999GF199999071990007621991991MA1101001999990REMMET051METAR EDOP 131120Z 16010KT 9999 BKN025 02/00 Q1010=
0162101624999992014011311504+53427+011783FM-15+005199999V0201701V004110057919N008000199+00201+00101999999ADDGA1071+005791991GE19MSL   +99999+99999GF199999071990005791991991MA1101001999990MW1801REMMET065METAR EDOP 131150Z 17008KT 120V220 8000 -SHRA BKN019 02/01 Q1010=
0184101624999992014011312204+53427+011783FM-15+005199999V0201601N004110048819N004500199+00101+00101999999ADDGA1021+003051991GA2071+004881991GE19MSL   +99999+99999GF199999021990003051991991MA1101001999990MW1101MW2611REMMET065METAR EDOP 131220Z 16008KT 4500 -RA BR FEW010 BKN016 01/01 Q1010=
0152101624999992014011312504+53427+011783FM-15+005199999V0201601N004610039619N006000199+00101+00101999999ADDGA1071+003961991GE19MSL   +99999+99999GF199999071990003961991991MA1101001999990MW1611REMMET055METAR EDOP 131250Z 16009KT 6000 -RA BKN013 01/01 Q1010=
0177101624999992014011313204+53427+011783FM-15+005199999V0201601N004110045719N006000199+00101+00101999999ADDGA1041+001521991GA2071+004571991GE19MSL   +99999+99999GF199999041990001521991991MA1100901999990MW1581REMMET064METAR EDOP 131320Z 16008KT 6000 -DZRA SCT005 BKN015 01/01 Q1009=
0165101624999992014011313504+53427+011783FM-15+005199999V0201701N003110048819N006000199+00201+00101999999ADDGA1021+002131991GA2071+004881991GE19MSL   +99999+99999GF199999021990002131991991MA1100901999990REMMET058METAR EDOP 131350Z 17006KT 6000 FEW007 BKN016 02/01 Q1009=
0173101624999992014011314204+53427+011783FM-15+005199999V0201701V004110045719N008000199+00201+00201999999ADDGA1021+002131991GA2071+004571991GE19MSL   +99999+99999GF199999021990002131991991MA1100901999990REMMET066METAR EDOP 131420Z 17008KT 130V200 8000 FEW007 BKN015 02/02 Q1009=
0150101624999992014011314504+53427+011783FM-15+005199999V0201701V003110039619N008000199+00301+00301999999ADDGA1071+003961991GE19MSL   +99999+99999GF199999071990003961991991MA1100901999990REMMET059METAR EDOP 131450Z 17006KT 150V210 8000 BKN013 03/03 Q1009=
0173101624999992014011315204+53427+011783FM-15+005199999V0201801V002610064019N008000199+00301+00201999999ADDGA1041+004271991GA2071+006401991GE19MSL   +99999+99999GF199999041990004271991991MA1100901999990REMMET066METAR EDOP 131520Z 18005KT 150V210 8000 SCT014 BKN021 03/02 Q1009=
0142101624999992014011315504+53427+011783FM-15+005199999V0201801N003110106719N009999199+00301+00201999999ADDGA1071+010671991GE19MSL   +99999+99999GF199999071990010671991991MA1100901999990REMMET051METAR EDOP 131550Z 18006KT 9999 BKN035 03/02 Q1009=
0150101624999992014011316204+53427+011783FM-15+005199999V0201801V002110106719N008000199+00301+00301999999ADDGA1071+010671991GE19MSL   +99999+99999GF199999071990010671991991MA1100901999990REMMET059METAR EDOP 131620Z 18004KT 140V210 8000 BKN035 03/03 Q1009=
0142101624999992014011316504+53427+011783FM-15+005199999V0201901N002610103619N008000199+00301+00201999999ADDGA1071+010361991GE19MSL   +99999+99999GF199999071990010361991991MA1100901999990REMMET051METAR EDOP 131650Z 19005KT 8000 BKN034 03/02 Q1009=
0174101624999992014011404204+53427+011783FM-15+005199999V0209999V001010091419N004500199+00401+00401999999ADDGA1021+005491991GA2071+009141991GE19MSL   +99999+99999GF199999021990005491991991MA1100901999990MW1101REMMET061METAR EDOP 140420Z VRB02KT 4500 BR FEW018 BKN030 04/04 Q1009=
0174101624999992014011404504+53427+011783FM-15+005199999V0209999V001510121919N004500199+00401+00301999999ADDGA1021+006711991GA2071+012191991GE19MSL   +99999+99999GF199999021990006711991991MA1100901999990MW1101REMMET061METAR EDOP 140450Z VRB03KT 4500 BR FEW022 BKN040 04/03 Q1009=
0174101624999992014011405204+53427+011783FM-15+005199999V0201101N001010125019N004000199+00301+00301999999ADDGA1021+007011991GA2071+012501991GE19MSL   +99999+99999GF199999021990007011991991MA1100901999990MW1101REMMET061METAR EDOP 140520Z 11002KT 4000 BR FEW023 BKN041 03/03 Q1009=
0174101624999992014011405504+53427+011783FM-15+005199999V0209999V001510106719N004000199+00301+00301999999ADDGA1021+006711991GA2071+010671991GE19MSL   +99999+99999GF199999021990006711991991MA1100901999990MW1101REMMET061METAR EDOP 140550Z VRB03KT 4000 BR FEW022 BKN035 03/03 Q1009=
0151101624999992014011406504+53427+011783FM-15+005199999V0201101N002610121919N003500199+00301+00301999999ADDGA1071+012191991GE19MSL   +99999+99999GF199999071990012191991991MA1100801999990MW1101REMMET054METAR EDOP 140650Z 11005KT 3500 BR BKN040 03/03 Q1008=
0174101624999992014011407204+53427+011783FM-15+005199999V0209999V001010121919N003000199+00301+00301999999ADDGA1021+009141991GA2071+012191991GE19MSL   +99999+99999GF199999021990009141991991MA1100901999990MW1101REMMET061METAR EDOP 140720Z VRB02KT 3000 BR FEW030 BKN040 03/03 Q1009=
0165101624999992014011407504+53427+011783FM-15+005199999V0201101N001510121919N005000199+00301+00301999999ADDGA1041+009141991GA2071+012191991GE19MSL   +99999+99999GF199999041990009141991991MA1100901999990REMMET058METAR EDOP 140750Z 11003KT 5000 SCT030 BKN040 03/03 Q1009=
0165101624999992014011408204+53427+011783FM-15+005199999V0201001N00211018291CN006000199+00301+00301999999ADDGA1021+009141991GA2041+018291991GE19MSL   +99999+99999GF199999021990009141991991MA1100901999990REMMET058METAR EDOP 140820Z 10004KT 6000 FEW030 SCT060 03/03 Q1009=
0101101624999992014011408504+53427+011783FM-15+005199999V0201001N002112200019N006000199+00301+00301999999ADDGF100991999999999999999999MA1100901999990REMMET048METAR EDOP 140850Z 10004KT 6000 NSC 03/03 Q1009=
0142101624999992014011409204+53427+011783FM-15+005199999V0201001N001519999999N006000199+00401+00301999999ADDGA1021+001831991GE19MSL   +99999+99999GF199999021990001831991991MA1100901999990REMMET051METAR EDOP 140920Z 10003KT 6000 FEW006 04/03 Q1009=
0101101624999992014011409504+53427+011783FM-15+005199999V0201201N002112200019N007000199+00401+00401999999ADDGF100991999999999999999999MA1100901999990REMMET048METAR EDOP 140950Z 12004KT 7000 NSC 04/04 Q1009=
0101101624999992014011410204+53427+011783FM-15+005199999V0201301N002612200019N007000199+00401+00401999999ADDGF100991999999999999999999MA1100801999990REMMET048METAR EDOP 141020Z 13005KT 7000 NSC 04/04 Q1008=
0101101624999992014011410504+53427+011783FM-15+005199999V0201101N002612200019N007000199+00501+00401999999ADDGF100991999999999999999999MA1100801999990REMMET048METAR EDOP 141050Z 11005KT 7000 NSC 05/04 Q1008=
0101101624999992014011411204+53427+011783FM-15+005199999V0200801N002112200019N007000199+00501+00501999999ADDGF100991999999999999999999MA1100801999990REMMET048METAR EDOP 141120Z 08004KT 7000 NSC 05/05 Q1008=
0101101624999992014011411504+53427+011783FM-15+005199999V0209999V001512200019N008000199+00501+00501999999ADDGF100991999999999999999999MA1100801999990REMMET048METAR EDOP 141150Z VRB03KT 8000 NSC 05/05 Q1008=
0101101624999992014011412204+53427+011783FM-15+005199999V0200801N001512200019N008000199+00501+00501999999ADDGF100991999999999999999999MA1100801999990REMMET048METAR EDOP 141220Z 08003KT 8000 NSC 05/05 Q1008=
0101101624999992014011412504+53427+011783FM-15+005199999V0200801N002112200019N008000199+00501+00501999999ADDGF100991999999999999999999MA1100801999990REMMET048METAR EDOP 141250Z 08004KT 8000 NSC 05/05 Q1008=
0101101624999992014011413204+53427+011783FM-15+005199999V0200801N002112200019N008000199+00501+00501999999ADDGF100991999999999999999999MA1100801999990REMMET048METAR EDOP 141320Z 08004KT 8000 NSC 05/05 Q1008=
0101101624999992014011413504+53427+011783FM-15+005199999V0200801N002112200019N008000199+00501+00501999999ADDGF100991999999999999999999MA1100801999990REMMET048METAR EDOP 141350Z 08004KT 8000 NSC 05/05 Q1008=
0101101624999992014011414204+53427+011783FM-15+005199999V0200901N002612200019N008000199+00501+00501999999ADDGF100991999999999999999999MA1100801999990REMMET048METAR EDOP 141420Z 09005KT 8000 NSC 05/05 Q1008=
0072101624999992014011414504+53427+011783FM-15+005199999V0200701N002119999999Y999999999+00401+00401999999ADDMA1100801999990REMMET045METAR EDOP 141450Z 07004KT CAVOK 04/04 Q1008=
0072101624999992014011415204+53427+011783FM-15+005199999V0200501N001519999999Y999999999+00301+00301999999ADDMA1100801999990REMMET045METAR EDOP 141520Z 05003KT CAVOK 03/03 Q1008=
0127101624999992014011416204+53427+011783FM-15+005199999V0209999V000512200019N008000199+00101+00101999999ADDGF100991999999999999999999MA1100801999990MW1121REMMET068METAR EDOP 141620Z VRB01KT 8000 R24/0400V1000N MIFG NSC 01/01 Q1008=
0151101624999992014011504204+53427+011783FM-15+005199999V0200901N003610006119N001500199+00201+00201999999ADDGA1081+000611991GE19MSL   +99999+99999GF199999081990000611991991MA1101001999990MW1101REMMET054METAR EDOP 150420Z 09007KT 1500 BR OVC002 02/02 Q1010=
0151101624999992014011504504+53427+011783FM-15+005199999V0201001N004110006119N001800199+00201+00101999999ADDGA1081+000611991GE19MSL   +99999+99999GF199999081990000611991991MA1101001999990MW1101REMMET054METAR EDOP 150450Z 10008KT 1800 BR OVC002 02/01 Q1010=
0151101624999992014011505204+53427+011783FM-15+005199999V0200901N003610006119N001500199+00201+00201999999ADDGA1081+000611991GE19MSL   +99999+99999GF199999081990000611991991MA1101001999990MW1101REMMET054METAR EDOP 150520Z 09007KT 1500 BR OVC002 02/02 Q1010=
0151101624999992014011506204+53427+011783FM-15+005199999V0201301N002610012219N002800199+00201+00201999999ADDGA1071+001221991GE19MSL   +99999+99999GF199999071990001221991991MA1101001999990MW1101REMMET054METAR EDOP 150620Z 13005KT 2800 BR BKN004 02/02 Q1010=
0151101624999992014011506504+53427+011783FM-15+005199999V0201501N002610012219N004500199+00201+00201999999ADDGA1071+001221991GE19MSL   +99999+99999GF199999071990001221991991MA1101001999990MW1101REMMET054METAR EDOP 150650Z 15005KT 4500 BR BKN004 02/02 Q1010=
0165101624999992014011507204+53427+011783FM-15+005199999V0209999V001510140219N006000199+00201+00201999999ADDGA1041+006711991GA2071+014021991GE19MSL   +99999+99999GF199999041990006711991991MA1101001999990REMMET058METAR EDOP 150720Z VRB03KT 6000 SCT022 BKN046 02/02 Q1010=
0165101624999992014011507504+53427+011783FM-15+005199999V0201001N002110143319N007000199+00201+00201999999ADDGA1021+006711991GA2071+014331991GE19MSL   +99999+99999GF199999021990006711991991MA1101001999990REMMET058METAR EDOP 150750Z 10004KT 7000 FEW022 BKN047 02/02 Q1010=
0165101624999992014011508204+53427+011783FM-15+005199999V0200901N002110137219N005000199+00201+00201999999ADDGA1021+006711991GA2071+013721991GE19MSL   +99999+99999GF199999021990006711991991MA1101001999990REMMET058METAR EDOP 150820Z 09004KT 5000 FEW022 BKN045 02/02 Q1010=
0142101624999992014011508504+53427+011783FM-15+005199999V0201101N002610128019N005000199+00201+00201999999ADDGA1071+012801991GE19MSL   +99999+99999GF199999071990012801991991MA1101001999990REMMET051METAR EDOP 150850Z 11005KT 5000 BKN042 02/02 Q1010=
0142101624999992014011509204+53427+011783FM-15+005199999V0201101N003110137219N009999199+00201+00201999999ADDGA1071+013721991GE19MSL   +99999+99999GF199999071990013721991991MA1101001999990REMMET051METAR EDOP 150920Z 11006KT 9999 BKN045 02/02 Q1010=
0150101624999992014011509504+53427+011783FM-15+005199999V0201401V002610128019N006000199+00301+00201999999ADDGA1071+012801991GE19MSL   +99999+99999GF199999071990012801991991MA1101101999990REMMET059METAR EDOP 150950Z 14005KT 110V180 6000 BKN042 03/02 Q1011=
0165101624999992014011510204+53427+011783FM-15+005199999V0201601N002610128019N006000199+00301+00301999999ADDGA1021+002131991GA2071+012801991GE19MSL   +99999+99999GF199999021990002131991991MA1101101999990REMMET058METAR EDOP 151020Z 16005KT 6000 FEW007 BKN042 03/03 Q1011=
0165101624999992014011510504+53427+011783FM-15+005199999V0201501N003110121919N008000199+00301+00301999999ADDGA1041+002441991GA2071+012191991GE19MSL   +99999+99999GF199999041990002441991991MA1101101999990REMMET058METAR EDOP 151050Z 15006KT 8000 SCT008 BKN040 03/03 Q1011=
0165101624999992014011511204+53427+011783FM-15+005199999V0201501N002610131119N009000199+00301+00301999999ADDGA1041+002741991GA2071+013111991GE19MSL   +99999+99999GF199999041990002741991991MA1101001999990REMMET058METAR EDOP 151120Z 15005KT 9000 SCT009 BKN043 03/03 Q1010=
0165101624999992014011511504+53427+011783FM-15+005199999V0201301N002610134119N009000199+00401+00301999999ADDGA1041+003351991GA2071+013411991GE19MSL   +99999+99999GF199999041990003351991991MA1101001999990REMMET058METAR EDOP 151150Z 13005KT 9000 SCT011 BKN044 04/03 Q1010=
0173101624999992014011512204+53427+011783FM-15+005199999V0201501V003110137219N009999199+00401+00401999999ADDGA1041+003051991GA2071+013721991GE19MSL   +99999+99999GF199999041990003051991991MA1101001999990REMMET066METAR EDOP 151220Z 15006KT 120V180 9999 SCT010 BKN045 04/04 Q1010=
0165101624999992014011512504+53427+011783FM-15+005199999V0201301N003110128019N009999199+00401+00401999999ADDGA1021+003051991GA2071+012801991GE19MSL   +99999+99999GF199999021990003051991991MA1101001999990REMMET058METAR EDOP 151250Z 13006KT 9999 FEW010 BKN042 04/04 Q1010=
0165101624999992014011513204+53427+011783FM-15+005199999V0201501N003110121919N009999199+00401+00401999999ADDGA1041+003351991GA2071+012191991GE19MSL   +99999+99999GF199999041990003351991991MA1101001999990REMMET058METAR EDOP 151320Z 15006KT 9999 SCT011 BKN040 04/04 Q1010=
0173101624999992014011513504+53427+011783FM-15+005199999V0201301V003110091419N009999199+00401+00401999999ADDGA1021+003051991GA2071+009141991GE19MSL   +99999+99999GF199999021990003051991991MA1101001999990REMMET066METAR EDOP 151350Z 13006KT 090V150 9999 FEW010 BKN030 04/04 Q1010=
0142101624999992014011514204+53427+011783FM-15+005199999V0201301N003110091419N009999199+00401+00401999999ADDGA1071+009141991GE19MSL   +99999+99999GF199999071990009141991991MA1101001999990REMMET051METAR EDOP 151420Z 13006KT 9999 BKN030 04/04 Q1010=
0142101624999992014011514504+53427+011783FM-15+005199999V0201301N003110061019N009999199+00401+00301999999ADDGA1071+006101991GE19MSL   +99999+99999GF199999071990006101991991MA1101001999990REMMET051METAR EDOP 151450Z 13006KT 9999 BKN020 04/03 Q1010=
0142101624999992014011515204+53427+011783FM-15+005199999V0201401N003110054919N009999199+00401+00301999999ADDGA1071+005491991GE19MSL   +99999+99999GF199999071990005491991991MA1101001999990REMMET051METAR EDOP 151520Z 14006KT 9999 BKN018 04/03 Q1010=
0142101624999992014011515504+53427+011783FM-15+005199999V0201401N003110048819N009999199+00301+00301999999ADDGA1071+004881991GE19MSL   +99999+99999GF199999071990004881991991MA1101001999990REMMET051METAR EDOP 151550Z 14006KT 9999 BKN016 03/03 Q1010=
0142101624999992014011516504+53427+011783FM-15+005199999V0201301N003610045719N009999199+00301+00301999999ADDGA1071+004571991GE19MSL   +99999+99999GF199999071990004571991991MA1101001999990REMMET051METAR EDOP 151650Z 13007KT 9999 BKN015 03/03 Q1010=
0152101624999992014011604204+53427+011783FM-15+005199999V0201201N004610021319N008000199+00301+00201999999ADDGA1071+002131991GE19MSL   +99999+99999GF199999071990002131991991MA1100601999990MW1611REMMET055METAR EDOP 160420Z 12009KT 8000 -RA BKN007 03/02 Q1006=
0152101624999992014011604504+53427+011783FM-15+005199999V0201301N005110021319N008000199+00201+00201999999ADDGA1071+002131991GE19MSL   +99999+99999GF199999071990002131991991MA1100601999990MW1611REMMET055METAR EDOP 160450Z 13010KT 8000 -RA BKN007 02/02 Q1006=
0152101624999992014011605204+53427+011783FM-15+005199999V0201201N005110021319N008000199+00201+00201999999ADDGA1071+002131991GE19MSL   +99999+99999GF199999071990002131991991MA1100601999990MW1611REMMET055METAR EDOP 160520Z 12010KT 8000 -RA BKN007 02/02 Q1006=
0152101624999992014011605504+53427+011783FM-15+005199999V0201201N005110018319N008000199+00201+00201999999ADDGA1071+001831991GE19MSL   +99999+99999GF199999071990001831991991MA1100601999990MW1611REMMET055METAR EDOP 160550Z 12010KT 8000 -RA BKN006 02/02 Q1006=
0152101624999992014011606504+53427+011783FM-15+005199999V0201201N004610018319N006000199+00201+00101999999ADDGA1071+001831991GE19MSL   +99999+99999GF199999071990001831991991MA1100601999990MW1611REMMET055METAR EDOP 160650Z 12009KT 6000 -RA BKN006 02/01 Q1006=
0161101624999992014011607204+53427+011783FM-15+005199999V0201201N004110015219N004500199+00101+00101999999ADDGA1071+001521991GE19MSL   +99999+99999GF199999071990001521991991MA1100601999990MW1101MW2611REMMET058METAR EDOP 160720Z 12008KT 4500 -RA BR BKN005 01/01 Q1006=
0161101624999992014011607504+53427+011783FM-15+005199999V0201101N005110015219N004500199+00101+00101999999ADDGA1071+001521991GE19MSL   +99999+99999GF199999071990001521991991MA1100601999990MW1101MW2611REMMET058METAR EDOP 160750Z 11010KT 4500 -RA BR BKN005 01/01 Q1006=
0161101624999992014011608204+53427+011783FM-15+005199999V0201201N004610018319N004800199+00201+00101999999ADDGA1071+001831991GE19MSL   +99999+99999GF199999071990001831991991MA1100601999990MW1101MW2611REMMET058METAR EDOP 160820Z 12009KT 4800 -RA BR BKN006 02/01 Q1006=
0152101624999992014011608504+53427+011783FM-15+005199999V0201201N006210018319N005000199+00201+00201999999ADDGA1071+001831991GE19MSL   +99999+99999GF199999071990001831991991MA1100601999990MW1611REMMET055METAR EDOP 160850Z 12012KT 5000 -RA BKN006 02/02 Q1006=
0152101624999992014011609204+53427+011783FM-15+005199999V0201201N005110015219N006000199+00201+00201999999ADDGA1071+001521991GE19MSL   +99999+99999GF199999071990001521991991MA1100501999990MW1611REMMET055METAR EDOP 160920Z 12010KT 6000 -RA BKN005 02/02 Q1005=
0142101624999992014011609504+53427+011783FM-15+005199999V0201201N006210018319N007000199+00201+00201999999ADDGA1071+001831991GE19MSL   +99999+99999GF199999071990001831991991MA1100501999990REMMET051METAR EDOP 160950Z 12012KT 7000 BKN006 02/02 Q1005=
0142101624999992014011610204+53427+011783FM-15+005199999V0201201N005110018319N008000199+00201+00201999999ADDGA1071+001831991GE19MSL   +99999+99999GF199999071990001831991991MA1100501999990REMMET051METAR EDOP 161020Z 12010KT 8000 BKN006 02/02 Q1005=
0142101624999992014011610504+53427+011783FM-15+005199999V0201201N005110015219N007000199+00201+00201999999ADDGA1071+001521991GE19MSL   +99999+99999GF199999071990001521991991MA1100501999990REMMET051METAR EDOP 161050Z 12010KT 7000 BKN005 02/02 Q1005=
0142101624999992014011611204+53427+011783FM-15+005199999V0201301N004610015219N006000199+00201+00201999999ADDGA1071+001521991GE19MSL   +99999+99999GF199999071990001521991991MA1100501999990REMMET051METAR EDOP 161120Z 13009KT 6000 BKN005 02/02 Q1005=
0142101624999992014011611504+53427+011783FM-15+005199999V0201201N005710015219N005000199+00201+00201999999ADDGA1071+001521991GE19MSL   +99999+99999GF199999071990001521991991MA1100401999990REMMET051METAR EDOP 161150Z 12011KT 5000 BKN005 02/02 Q1004=
0151101624999992014011612204+53427+011783FM-15+005199999V0201301N005110015219N004000199+00201+00201999999ADDGA1071+001521991GE19MSL   +99999+99999GF199999071990001521991991MA1100401999990MW1101REMMET054METAR EDOP 161220Z 13010KT 4000 BR BKN005 02/02 Q1004=
0151101624999992014011612504+53427+011783FM-15+005199999V0201201N005110012219N003000199+00201+00201999999ADDGA1071+001221991GE19MSL   +99999+99999GF199999071990001221991991MA1100401999990MW1101REMMET054METAR EDOP 161250Z 12010KT 3000 BR BKN004 02/02 Q1004=
0151101624999992014011613204+53427+011783FM-15+005199999V0201201N005710012219N002500199+00201+00201999999ADDGA1071+001221991GE19MSL   +99999+99999GF199999071990001221991991MA1100401999990MW1101REMMET054METAR EDOP 161320Z 12011KT 2500 BR BKN004 02/02 Q1004=
0152101624999992014011613504+53427+011783FM-15+005199999V0201301N005710012219N002500199+00201+00201999999ADDGA1071+001221991GE19MSL   +99999+99999GF199999071990001221991991MA1100401999990MW1511REMMET055METAR EDOP 161350Z 13011KT 2500 -DZ BKN004 02/02 Q1004=
0151101624999992014011614204+53427+011783FM-15+005199999V0201201N005710009119N002000199+00201+00201999999ADDGA1071+000911991GE19MSL   +99999+99999GF199999071990000911991991MA1100301999990MW1101REMMET054METAR EDOP 161420Z 12011KT 2000 BR BKN003 02/02 Q1003=
0151101624999992014011614504+53427+011783FM-15+005199999V0201201N005710009119N002000199+00201+00201999999ADDGA1081+000911991GE19MSL   +99999+99999GF199999081990000911991991MA1100301999990MW1531REMMET054METAR EDOP 161450Z 12011KT 2000 DZ OVC003 02/02 Q1003=
0151101624999992014011615204+53427+011783FM-15+005199999V0201101N006210009119N002000199+00201+00201999999ADDGA1081+000911991GE19MSL   +99999+99999GF199999081990000911991991MA1100301999990MW1531REMMET054METAR EDOP 161520Z 11012KT 2000 DZ OVC003 02/02 Q1003=
0151101624999992014011615504+53427+011783FM-15+005199999V0201201N005710009119N002000199+00201+00201999999ADDGA1081+000911991GE19MSL   +99999+99999GF199999081990000911991991MA1100301999990MW1531REMMET054METAR EDOP 161550Z 12011KT 2000 DZ OVC003 02/02 Q1003=
0151101624999992014011616204+53427+011783FM-15+005199999V0201201N004610009119N002000199+00201+00201999999ADDGA1081+000911991GE19MSL   +99999+99999GF199999081990000911991991MA1100301999990MW1531REMMET054METAR EDOP 161620Z 12009KT 2000 DZ OVC003 02/02 Q1003=
0151101624999992014011616504+53427+011783FM-15+005199999V0201101N005110012219N004000199+00201+00201999999ADDGA1071+001221991GE19MSL   +99999+99999GF199999071990001221991991MA1100301999990MW1531REMMET054METAR EDOP 161650Z 11010KT 4000 DZ BKN004 02/02 Q1003=
0142101624999992014011704204+53427+011783FM-15+005199999V0201701N003610018319N008000199+00501+00501999999ADDGA1071+001831991GE19MSL   +99999+99999GF199999071990001831991991MA1100101999990REMMET051METAR EDOP 170420Z 17007KT 8000 BKN006 05/05 Q1001=
0173101624999992014011704504+53427+011783FM-15+005199999V0201501V002110137219N008000199+00501+00501999999ADDGA1041+001831991GA2071+013721991GE19MSL   +99999+99999GF199999041990001831991991MA1100101999990REMMET066METAR EDOP 170450Z 15004KT 100V190 8000 SCT006 BKN045 05/05 Q1001=
0173101624999992014011705204+53427+011783FM-15+005199999V0201701V002610137219N008000199+00501+00501999999ADDGA1041+001521991GA2071+013721991GE19MSL   +99999+99999GF199999041990001521991991MA1100101999990REMMET066METAR EDOP 170520Z 17005KT 130V190 8000 SCT005 BKN045 05/05 Q1001=
0173101624999992014011705504+53427+011783FM-15+005199999V0201701V00311014021CN007000199+00601+00501999999ADDGA1021+001831991GA2041+014021991GE19MSL   +99999+99999GF199999021990001831991991MA1100101999990REMMET066METAR EDOP 170550Z 17006KT 140V200 7000 FEW006 SCT046 06/05 Q1001=
0101101624999992014011706504+53427+011783FM-15+005199999V0201401N002612200019N007000199+00501+00401999999ADDGF100991999999999999999999MA1100101999990REMMET048METAR EDOP 170650Z 14005KT 7000 NSC 05/04 Q1001=
0142101624999992014011707204+53427+011783FM-15+005199999V0201101N001519999999N006000199+00401+00301999999ADDGA1021+014631991GE19MSL   +99999+99999GF199999021990014631991991MA1100101999990REMMET051METAR EDOP 170720Z 11003KT 6000 FEW048 04/03 Q1001=
0150101624999992014011707504+53427+011783FM-15+005199999V0201301V002119999999N009000199+00501+00501999999ADDGA1041+010671991GE19MSL   +99999+99999GF199999041990010671991991MA1100201999990REMMET059METAR EDOP 170750Z 13004KT 090V160 9000 SCT035 05/05 Q1002=
0150101624999992014011708204+53427+011783FM-15+005199999V0201601V002619999999N009999199+00501+00501999999ADDGA1041+011581991GE19MSL   +99999+99999GF199999041990011581991991MA1100201999990REMMET059METAR EDOP 170820Z 16005KT 130V200 9999 SCT038 05/05 Q1002=
0142101624999992014011708504+53427+011783FM-15+005199999V0201601N003119999999N009999199+00601+00501999999ADDGA1041+012191991GE19MSL   +99999+99999GF199999041990012191991991MA1100201999990REMMET051METAR EDOP 170850Z 16006KT 9999 SCT040 06/05 Q1002=
0154101624999992014011709204+53427+011783FM-15+005199999V0201701N003610100619N008000199+00601+00601999999ADDGA1071+010061991GE19MSL   +99999+99999GF199999071990010061991991MA1100201999990MW1801REMMET057METAR EDOP 170920Z 17007KT 8000 -SHRA BKN033 06/06 Q1002=
0152101624999992014011709504+53427+011783FM-15+005199999V0201801N004110106719N007000199+00601+00601999999ADDGA1071+010671991GE19MSL   +99999+99999GF199999071990010671991991MA1100201999990MW1611REMMET055METAR EDOP 170950Z 18008KT 7000 -RA BKN035 06/06 Q1002=
0152101624999992014011710204+53427+011783FM-15+005199999V0201801N004110109719N006000199+00601+00601999999ADDGA1071+010971991GE19MSL   +99999+99999GF199999071990010971991991MA1100201999990MW1611REMMET055METAR EDOP 171020Z 18008KT 6000 -RA BKN036 06/06 Q1002=
0142101624999992014011710504+53427+011783FM-15+005199999V0201801N004619999999N008000199+00601+00601999999ADDGA1041+011581991GE19MSL   +99999+99999GF199999041990011581991991MA1100201999990REMMET051METAR EDOP 171050Z 18009KT 8000 SCT038 06/06 Q1002=
0150101624999992014011711204+53427+011783FM-15+005199999V0202001V003619999999N009000199+00701+00701999999ADDGA1041+011281991GE19MSL   +99999+99999GF199999041990011281991991MA1100201999990REMMET059METAR EDOP 171120Z 20007KT 170V250 9000 SCT037 07/07 Q1002=
0142101624999992014011711504+53427+011783FM-15+005199999V0201801N003119999999N009999199+00701+00701999999ADDGA1041+011281991GE19MSL   +99999+99999GF199999041990011281991991MA1100201999990REMMET051METAR EDOP 171150Z 18006KT 9999 SCT037 07/07 Q1002=
0142101624999992014011712204+53427+011783FM-15+005199999V0209999V001519999999N009999199+00801+00801999999ADDGA1021+012191991GE19MSL   +99999+99999GF199999021990012191991991MA1100201999990REMMET051METAR EDOP 171220Z VRB03KT 9999 FEW040 08/08 Q1002=
0080101624999992014011712504+53427+011783FM-15+005199999V0202001V002619999999Y999999999+00801+00701999999ADDMA1100201999990REMMET053METAR EDOP 171250Z 20005KT 170V230 CAVOK 08/07 Q1002=
0072101624999992014011713204+53427+011783FM-15+005199999V0201801N002119999999Y999999999+00801+00701999999ADDMA1100201999990REMMET045METAR EDOP 171320Z 18004KT CAVOK 08/07 Q1002=
0080101624999992014011713504+53427+011783FM-15+005199999V0201701V002119999999Y999999999+00801+00701999999ADDMA1100201999990REMMET053METAR EDOP 171350Z 17004KT 130V200 CAVOK 08/07 Q1002=
0072101624999992014011714204+53427+011783FM-15+005199999V0201701N003619999999Y999999999+00801+00701999999ADDMA1100201999990REMMET045METAR EDOP 171420Z 17007KT CAVOK 08/07 Q1002=
0072101624999992014011714504+53427+011783FM-15+005199999V0201601N003119999999Y999999999+00701+00701999999ADDMA1100201999990REMMET045METAR EDOP 171450Z 16006KT CAVOK 07/07 Q1002=
0072101624999992014011715204+53427+011783FM-15+005199999V0201501N002119999999Y999999999+00701+00701999999ADDMA1100201999990REMMET045METAR EDOP 171520Z 15004KT CAVOK 07/07 Q1002=
0072101624999992014011715504+53427+011783FM-15+005199999V0201301N002619999999Y999999999+00701+00601999999ADDMA1100201999990REMMET045METAR EDOP 171550Z 13005KT CAVOK 07/06 Q1002=
0072101624999992014011716204+53427+011783FM-15+005199999V0201301N002619999999Y999999999+00701+00601999999ADDMA1100201999990REMMET045METAR EDOP 171620Z 13005KT CAVOK 07/06 Q1002=
0080101624999992014011716504+53427+011783FM-15+005199999V0201701V002119999999Y999999999+00701+00701999999ADDMA1100201999990REMMET053METAR EDOP 171650Z 17004KT 130V190 CAVOK 07/07 Q1002=
0080101624999992014011804204+53427+011783FM-15+005199999V0200601V002119999999Y999999999+00501+00401999999ADDMA1100501999990REMMET053METAR EDOP 180420Z 06004KT 030V090 CAVOK 05/04 Q1005=
0150101624999992014011804504+53427+011783FM-15+005199999V0201201V002119999999N009999199+00501+00501999999ADDGA1041+010061991GE19MSL   +99999+99999GF199999041990010061991991MA1100501999990REMMET059METAR EDOP 180450Z 12004KT 070V170 9999 SCT033 05/05 Q1005=
0072101624999992014011805204+53427+011783FM-15+005199999V0209999V001519999999Y999999999+00501+00501999999ADDMA1100501999990REMMET045METAR EDOP 180520Z VRB03KT CAVOK 05/05 Q1005=
0072101624999992014011805504+53427+011783FM-15+005199999V0200801N003119999999Y999999999+00501+00401999999ADDMA1100501999990REMMET045METAR EDOP 180550Z 08006KT CAVOK 05/04 Q1005=
0072101624999992014011806204+53427+011783FM-15+005199999V0200901N002619999999Y999999999+00401+00401999999ADDMA1100601999990REMMET045METAR EDOP 180620Z 09005KT CAVOK 04/04 Q1006=
0072101624999992014011806504+53427+011783FM-15+005199999V0201101N002619999999Y999999999+00401+00401999999ADDMA1100601999990REMMET045METAR EDOP 180650Z 11005KT CAVOK 04/04 Q1006=
0072101624999992014011807204+53427+011783FM-15+005199999V0201201N003119999999Y999999999+00401+00401999999ADDMA1100601999990REMMET045METAR EDOP 180720Z 12006KT CAVOK 04/04 Q1006=
0072101624999992014011807504+53427+011783FM-15+005199999V0201201N004119999999Y999999999+00401+00401999999ADDMA1100601999990REMMET045METAR EDOP 180750Z 12008KT CAVOK 04/04 Q1006=
0072101624999992014011808204+53427+011783FM-15+005199999V0201301N003619999999Y999999999+00401+00401999999ADDMA1100601999990REMMET045METAR EDOP 180820Z 13007KT CAVOK 04/04 Q1006=
0072101624999992014011808504+53427+011783FM-15+005199999V0201201N004119999999Y999999999+00401+00401999999ADDMA1100701999990REMMET045METAR EDOP 180850Z 12008KT CAVOK 04/04 Q1007=
0072101624999992014011809204+53427+011783FM-15+005199999V0201301N004619999999Y999999999+00401+00401999999ADDMA1100701999990REMMET045METAR EDOP 180920Z 13009KT CAVOK 04/04 Q1007=
0165101624999992014011809504+53427+011783FM-15+005199999V0201301N00571027431CN009999199+00501+00401999999ADDGA1021+002131991GA2041+027431991GE19MSL   +99999+99999GF199999021990002131991991MA1100701999990REMMET058METAR EDOP 180950Z 13011KT 9999 FEW007 SCT090 05/04 Q1007=
0072101624999992014011810204+53427+011783FM-15+005199999V0201201N003619999999Y999999999+00501+00501999999ADDMA1100701999990REMMET045METAR EDOP 181020Z 12007KT CAVOK 05/05 Q1007=
0072101624999992014011810504+53427+011783FM-15+005199999V0201301N004119999999Y999999999+00501+00501999999ADDMA1100701999990REMMET045METAR EDOP 181050Z 13008KT CAVOK 05/05 Q1007=
0080101624999992014011811204+53427+011783FM-15+005199999V0201201V003119999999Y999999999+00601+00601999999ADDMA1100701999990REMMET053METAR EDOP 181120Z 12006KT 090V150 CAVOK 06/06 Q1007=
0072101624999992014011811504+53427+011783FM-15+005199999V0201201N004619999999Y999999999+00601+00501999999ADDMA1100701999990REMMET045METAR EDOP 181150Z 12009KT CAVOK 06/05 Q1007=
0072101624999992014011812204+53427+011783FM-15+005199999V0201201N003619999999Y999999999+00501+00501999999ADDMA1100601999990REMMET045METAR EDOP 181220Z 12007KT CAVOK 05/05 Q1006=
0165101624999992014011812504+53427+011783FM-15+005199999V0201201N00461030481CN009999199+00501+00501999999ADDGA1021+003051991GA2041+030481991GE19MSL   +99999+99999GF199999021990003051991991MA1100601999990REMMET058METAR EDOP 181250Z 12009KT 9999 FEW010 SCT100 05/05 Q1006=
0072101624999992014011813204+53427+011783FM-15+005199999V0201101N003619999999Y999999999+00501+00501999999ADDMA1100601999990REMMET045METAR EDOP 181320Z 11007KT CAVOK 05/05 Q1006=
0080101624999992014011813504+53427+011783FM-15+005199999V0201001V003119999999Y999999999+00601+00601999999ADDMA1100601999990REMMET053METAR EDOP 181350Z 10006KT 060V130 CAVOK 06/06 Q1006=
0072101624999992014011814204+53427+011783FM-15+005199999V0200901N003619999999Y999999999+00601+00601999999ADDMA1100601999990REMMET045METAR EDOP 181420Z 09007KT CAVOK 06/06 Q1006=
0072101624999992014011814504+53427+011783FM-15+005199999V0201001N003119999999Y999999999+00601+00501999999ADDMA1100601999990REMMET045METAR EDOP 181450Z 10006KT CAVOK 06/05 Q1006=
0072101624999992014011815204+53427+011783FM-15+005199999V0200901N004119999999Y999999999+00501+00501999999ADDMA1100601999990REMMET045METAR EDOP 181520Z 09008KT CAVOK 05/05 Q1006=
0072101624999992014011815504+53427+011783FM-15+005199999V0200901N005719999999Y999999999+00501+00501999999ADDMA1100601999990REMMET045METAR EDOP 181550Z 09011KT CAVOK 05/05 Q1006=
0072101624999992014011816204+53427+011783FM-15+005199999V0200901N004119999999Y999999999+00501+00501999999ADDMA1100701999990REMMET045METAR EDOP 181620Z 09008KT CAVOK 05/05 Q1007=
0072101624999992014011816504+53427+011783FM-15+005199999V0201001N004119999999Y999999999+00401+00401999999ADDMA1100701999990REMMET045METAR EDOP 181650Z 10008KT CAVOK 04/04 Q1007=
0142101624999992014011904204+53427+011783FM-15+005199999V0200901N007210021319N009999199+00301+00201999999ADDGA1071+002131991GE19MSL   +99999+99999GF199999071990002131991991MA1100701999990REMMET051METAR EDOP 190420Z 09014KT 9999 BKN007 03/02 Q1007=
0142101624999992014011904504+53427+011783FM-15+005199999V0200901N007710024419N009999199+00301+00301999999ADDGA1071+002441991GE19MSL   +99999+99999GF199999071990002441991991MA1100701999990REMMET051METAR EDOP 190450Z 09015KT 9999 BKN008 03/03 Q1007=
0142101624999992014011905204+53427+011783FM-15+005199999V0200801N007710018319N009999199+00301+00201999999ADDGA1071+001831991GE19MSL   +99999+99999GF199999071990001831991991MA1100701999990REMMET051METAR EDOP 190520Z 08015KT 9999 BKN006 03/02 Q1007=
0142101624999992014011905504+53427+011783FM-15+005199999V0200801N007710018319N009999199+00301+00201999999ADDGA1071+001831991GE19MSL   +99999+99999GF199999071990001831991991MA1100701999990REMMET051METAR EDOP 190550Z 08015KT 9999 BKN006 03/02 Q1007=
0142101624999992014011906204+53427+011783FM-15+005199999V0200801N008210018319N009999199+00301+00201999999ADDGA1071+001831991GE19MSL   +99999+99999GF199999071990001831991991MA1100701999990REMMET051METAR EDOP 190620Z 08016KT 9999 BKN006 03/02 Q1007=
0142101624999992014011906504+53427+011783FM-15+005199999V0200801N008210018319N008000199+00301+00201999999ADDGA1071+001831991GE19MSL   +99999+99999GF199999071990001831991991MA1100701999990REMMET051METAR EDOP 190650Z 08016KT 8000 BKN006 03/02 Q1007=
0142101624999992014011907204+53427+011783FM-15+005199999V0200801N008810018319N007000199+00201+00201999999ADDGA1071+001831991GE19MSL   +99999+99999GF199999071990001831991991MA1100801999990REMMET051METAR EDOP 190720Z 08017KT 7000 BKN006 02/02 Q1008=
0142101624999992014011907504+53427+011783FM-15+005199999V0200901N008210018319N006000199+00201+00201999999ADDGA1071+001831991GE19MSL   +99999+99999GF199999071990001831991991MA1100801999990REMMET051METAR EDOP 190750Z 09016KT 6000 BKN006 02/02 Q1008=
0151101624999992014011908204+53427+011783FM-15+005199999V0200801N007210018319N004800199+00201+00201999999ADDGA1071+001831991GE19MSL   +99999+99999GF199999071990001831991991MA1100801999990MW1101REMMET054METAR EDOP 190820Z 08014KT 4800 BR BKN006 02/02 Q1008=
0151101624999992014011908504+53427+011783FM-15+005199999V0200801N008210018319N004500199+00201+00201999999ADDGA1071+001831991GE19MSL   +99999+99999GF199999071990001831991991MA1100801999990MW1101REMMET054METAR EDOP 190850Z 08016KT 4500 BR BKN006 02/02 Q1008=
0151101624999992014011909204+53427+011783FM-15+005199999V0200901N009310018319N004500199+00101+00101999999ADDGA1071+001831991GE19MSL   +99999+99999GF199999071990001831991991MA1100701999990MW1101REMMET054METAR EDOP 190920Z 09018KT 4500 BR BKN006 01/01 Q1007=
0151101624999992014011909504+53427+011783FM-15+005199999V0200901N008810018319N004500199+00101+00101999999ADDGA1071+001831991GE19MSL   +99999+99999GF199999071990001831991991MA1100801999990MW1101REMMET054METAR EDOP 190950Z 09017KT 4500 BR BKN006 01/01 Q1008=
0151101624999992014011910204+53427+011783FM-15+005199999V0200801N007710018319N004200199+00101+00101999999ADDGA1071+001831991GE19MSL   +99999+99999GF199999071990001831991991MA1100801999990MW1101REMMET054METAR EDOP 191020Z 08015KT 4200 BR BKN006 01/01 Q1008=
0151101624999992014011910504+53427+011783FM-15+005199999V0200901N009310018319N004200199+00101+00101999999ADDGA1071+001831991GE19MSL   +99999+99999GF199999071990001831991991MA1100801999990MW1101REMMET054METAR EDOP 191050Z 09018KT 4200 BR BKN006 01/01 Q1008=
0151101624999992014011911204+53427+011783FM-15+005199999V0200801N008210018319N004500199+00101+00001999999ADDGA1071+001831991GE19MSL   +99999+99999GF199999071990001831991991MA1100701999990MW1101REMMET054METAR EDOP 191120Z 08016KT 4500 BR BKN006 01/00 Q1007=
0151101624999992014011911504+53427+011783FM-15+005199999V0200801N007210018319N004900199+00101+00001999999ADDGA1071+001831991GE19MSL   +99999+99999GF199999071990001831991991MA1100701999990MW1101REMMET054METAR EDOP 191150Z 08014KT 4900 BR BKN006 01/00 Q1007=
0142101624999992014011912504+53427+011783FM-15+005199999V0200801N007710024419N006000199+00101+00101999999ADDGA1071+002441991GE19MSL   +99999+99999GF199999071990002441991991MA1100701999990REMMET051METAR EDOP 191250Z 08015KT 6000 BKN008 01/01 Q1007=
0150101624999992014011913204+53427+011783FM-15+005199999V0200801V006210030519N006000199+00101+00101999999ADDGA1071+003051991GE19MSL   +99999+99999GF199999071990003051991991MA1100701999990REMMET059METAR EDOP 191320Z 08012KT 050V110 6000 BKN010 01/01 Q1007=
0142101624999992014011913504+53427+011783FM-15+005199999V0200701N007210027419N006000199+00101+00101999999ADDGA1071+002741991GE19MSL   +99999+99999GF199999071990002741991991MA1100701999990REMMET051METAR EDOP 191350Z 07014KT 6000 BKN009 01/01 Q1007=
0142101624999992014011914204+53427+011783FM-15+005199999V0200801N005710030519N006000199+00101+00101999999ADDGA1071+003051991GE19MSL   +99999+99999GF199999071990003051991991MA1100701999990REMMET051METAR EDOP 191420Z 08011KT 6000 BKN010 01/01 Q1007=
0142101624999992014011914504+53427+011783FM-15+005199999V0200801N007210030519N007000199+00101+00101999999ADDGA1071+003051991GE19MSL   +99999+99999GF199999071990003051991991MA1100701999990REMMET051METAR EDOP 191450Z 08014KT 7000 BKN010 01/01 Q1007=
0142101624999992014011915204+53427+011783FM-15+005199999V0200801N007710030519N006000199+00101+00101999999ADDGA1071+003051991GE19MSL   +99999+99999GF199999071990003051991991MA1100701999990REMMET051METAR EDOP 191520Z 08015KT 6000 BKN010 01/01 Q1007=
0142101624999992014011915504+53427+011783FM-15+005199999V0200901N006710030519N006000199+00101+00001999999ADDGA1071+003051991GE19MSL   +99999+99999GF199999071990003051991991MA1100701999990REMMET051METAR EDOP 191550Z 09013KT 6000 BKN010 01/00 Q1007=
0142101624999992014011916204+53427+011783FM-15+005199999V0200701N006710030519N006000199+00101+00001999999ADDGA1071+003051991GE19MSL   +99999+99999GF199999071990003051991991MA1100701999990REMMET051METAR EDOP 191620Z 07013KT 6000 BKN010 01/00 Q1007=
0142101624999992014011916504+53427+011783FM-15+005199999V0200801N006710030519N006000199+00101+00001999999ADDGA1071+003051991GE19MSL   +99999+99999GF199999071990003051991991MA1100701999990REMMET051METAR EDOP 191650Z 08013KT 6000 BKN010 01/00 Q1007=
0152101624999992014012004204+53427+011783FM-15+005199999V0200901V005110021319N006000199-00201-00201999999ADDGA1071+002131991GE19MSL   +99999+99999GF199999071990002131991991MA1100701999990REMMET061METAR EDOP 200420Z 09010KT 050V110 6000 BKN007 M02/M02 Q1007=
0144101624999992014012004504+53427+011783FM-15+005199999V0200801N005710018319N006000199-00201-00201999999ADDGA1081+001831991GE19MSL   +99999+99999GF199999081990001831991991MA1100701999990REMMET053METAR EDOP 200450Z 08011KT 6000 OVC006 M02/M02 Q1007=
0152101624999992014012005204+53427+011783FM-15+005199999V0200801V004610018319N006000199-00201-00201999999ADDGA1081+001831991GE19MSL   +99999+99999GF199999081990001831991991MA1100701999990REMMET061METAR EDOP 200520Z 08009KT 050V110 6000 OVC006 M02/M02 Q1007=
0152101624999992014012005504+53427+011783FM-15+005199999V0200801V005710018319N006000199-00201-00201999999ADDGA1081+001831991GE19MSL   +99999+99999GF199999081990001831991991MA1100701999990REMMET061METAR EDOP 200550Z 08011KT 040V100 6000 OVC006 M02/M02 Q1007=
0144101624999992014012006504+53427+011783FM-15+005199999V0200801N005710024419N006000199-00201-00201999999ADDGA1081+002441991GE19MSL   +99999+99999GF199999081990002441991991MA1100701999990REMMET053METAR EDOP 200650Z 08011KT 6000 OVC008 M02/M02 Q1007=
0153101624999992014012007204+53427+011783FM-15+005199999V0200901N006710027419N004800199-00201-00201999999ADDGA1081+002741991GE19MSL   +99999+99999GF199999081990002741991991MA1100801999990MW1101REMMET056METAR EDOP 200720Z 09013KT 4800 BR OVC009 M02/M02 Q1008=
0153101624999992014012007504+53427+011783FM-15+005199999V0200801N005110027419N004800199-00201-00201999999ADDGA1081+002741991GE19MSL   +99999+99999GF199999081990002741991991MA1100801999990MW1101REMMET056METAR EDOP 200750Z 08010KT 4800 BR OVC009 M02/M02 Q1008=
0153101624999992014012008204+53427+011783FM-15+005199999V0200901N005710027419N004900199-00201-00201999999ADDGA1081+002741991GE19MSL   +99999+99999GF199999081990002741991991MA1100801999990MW1101REMMET056METAR EDOP 200820Z 09011KT 4900 BR OVC009 M02/M02 Q1008=
0144101624999992014012008504+53427+011783FM-15+005199999V0200801N005110030519N005000199-00201-00201999999ADDGA1081+003051991GE19MSL   +99999+99999GF199999081990003051991991MA1100801999990REMMET053METAR EDOP 200850Z 08010KT 5000 OVC010 M02/M02 Q1008=
0144101624999992014012009204+53427+011783FM-15+005199999V0200801N006210024419N005000199-00201-00201999999ADDGA1081+002441991GE19MSL   +99999+99999GF199999081990002441991991MA1100801999990REMMET053METAR EDOP 200920Z 08012KT 5000 OVC008 M02/M02 Q1008=
0144101624999992014012009504+53427+011783FM-15+005199999V0200801N006210030519N005000199-00201-00201999999ADDGA1081+003051991GE19MSL   +99999+99999GF199999081990003051991991MA1100801999990REMMET053METAR EDOP 200950Z 08012KT 5000 OVC010 M02/M02 Q1008=
0152101624999992014012010204+53427+011783FM-15+005199999V0200801V005710030519N006000199-00201-00201999999ADDGA1071+003051991GE19MSL   +99999+99999GF199999071990003051991991MA1100901999990REMMET061METAR EDOP 201020Z 08011KT 050V110 6000 BKN010 M02/M02 Q1009=
0152101624999992014012010504+53427+011783FM-15+005199999V0200701V005110036619N007000199-00201-00301999999ADDGA1071+003661991GE19MSL   +99999+99999GF199999071990003661991991MA1100801999990REMMET061METAR EDOP 201050Z 07010KT 050V110 7000 BKN012 M02/M03 Q1008=
0152101624999992014012011204+53427+011783FM-15+005199999V0200801V006210033519N007000199-00101-00201999999ADDGA1071+003351991GE19MSL   +99999+99999GF199999071990003351991991MA1100801999990REMMET061METAR EDOP 201120Z 08012KT 050V110 7000 BKN011 M01/M02 Q1008=
0144101624999992014012011504+53427+011783FM-15+005199999V0200801N004610033519N007000199-00201-00301999999ADDGA1071+003351991GE19MSL   +99999+99999GF199999071990003351991991MA1100801999990REMMET053METAR EDOP 201150Z 08009KT 7000 BKN011 M02/M03 Q1008=
0152101624999992014012012204+53427+011783FM-15+005199999V0200801V005110033519N008000199-00201-00301999999ADDGA1071+003351991GE19MSL   +99999+99999GF199999071990003351991991MA1100801999990REMMET061METAR EDOP 201220Z 08010KT 050V110 8000 BKN011 M02/M03 Q1008=
0144101624999992014012012504+53427+011783FM-15+005199999V0200901N006210030519N008000199-00201-00301999999ADDGA1071+003051991GE19MSL   +99999+99999GF199999071990003051991991MA1100801999990REMMET053METAR EDOP 201250Z 09012KT 8000 BKN010 M02/M03 Q1008=
0144101624999992014012013204+53427+011783FM-15+005199999V0200701N004610027419N008000199-00201-00201999999ADDGA1071+002741991GE19MSL   +99999+99999GF199999071990002741991991MA1100801999990REMMET053METAR EDOP 201320Z 07009KT 8000 BKN009 M02/M02 Q1008=
0144101624999992014012013504+53427+011783FM-15+005199999V0200701N005110027419N008000199-00201-00201999999ADDGA1071+002741991GE19MSL   +99999+99999GF199999071990002741991991MA1100901999990REMMET053METAR EDOP 201350Z 07010KT 8000 BKN009 M02/M02 Q1009=
0144101624999992014012014204+53427+011783FM-15+005199999V0200701N004610027419N008000199-00201-00201999999ADDGA1071+002741991GE19MSL   +99999+99999GF199999071990002741991991MA1100901999990REMMET053METAR EDOP 201420Z 07009KT 8000 BKN009 M02/M02 Q1009=
0144101624999992014012014504+53427+011783FM-15+005199999V0200801N005110027419N008000199-00201-00201999999ADDGA1071+002741991GE19MSL   +99999+99999GF199999071990002741991991MA1100901999990REMMET053METAR EDOP 201450Z 08010KT 8000 BKN009 M02/M02 Q1009=
0144101624999992014012015204+53427+011783FM-15+005199999V0200601N004610024419N008000199-00201-00301999999ADDGA1071+002441991GE19MSL   +99999+99999GF199999071990002441991991MA1100901999990REMMET053METAR EDOP 201520Z 06009KT 8000 BKN008 M02/M03 Q1009=
0144101624999992014012015504+53427+011783FM-15+005199999V0200901N004610024419N008000199-00201-00301999999ADDGA1071+002441991GE19MSL   +99999+99999GF199999071990002441991991MA1100901999990REMMET053METAR EDOP 201550Z 09009KT 8000 BKN008 M02/M03 Q1009=
0144101624999992014012016204+53427+011783FM-15+005199999V0200701N004110024419N008000199-00201-00301999999ADDGA1071+002441991GE19MSL   +99999+99999GF199999071990002441991991MA1100901999990REMMET053METAR EDOP 201620Z 07008KT 8000 BKN008 M02/M03 Q1009=
0156101624999992014012016504+53427+011783FM-15+005199999V0200901N004610024419N008000199-00301-00301999999ADDGA1071+002441991GE19MSL   +99999+99999GF199999071990002441991991MA1100901999990MW1561REMMET059METAR EDOP 201650Z 09009KT 8000 -FZDZ BKN008 M03/M03 Q1009=
0152101624999992014012104204+53427+011783FM-15+005199999V0200601V002610024419N009999199-00301-00301999999ADDGA1071+002441991GE19MSL   +99999+99999GF199999071990002441991991MA1101101999990REMMET061METAR EDOP 210420Z 06005KT 030V090 9999 BKN008 M03/M03 Q1011=
0144101624999992014012104504+53427+011783FM-15+005199999V0200801N003610024419N009999199-00301-00301999999ADDGA1071+002441991GE19MSL   +99999+99999GF199999071990002441991991MA1101101999990REMMET053METAR EDOP 210450Z 08007KT 9999 BKN008 M03/M03 Q1011=
0144101624999992014012105204+53427+011783FM-15+005199999V0200701N003610024419N009999199-00301-00301999999ADDGA1071+002441991GE19MSL   +99999+99999GF199999071990002441991991MA1101101999990REMMET053METAR EDOP 210520Z 07007KT 9999 BKN008 M03/M03 Q1011=
0152101624999992014012105504+53427+011783FM-15+005199999V0200901V003110024419N009999199-00301-00301999999ADDGA1071+002441991GE19MSL   +99999+99999GF199999071990002441991991MA1101101999990REMMET061METAR EDOP 210550Z 09006KT 060V120 9999 BKN008 M03/M03 Q1011=
0144101624999992014012106204+53427+011783FM-15+005199999V0201001N003110024419N009999199-00301-00301999999ADDGA1071+002441991GE19MSL   +99999+99999GF199999071990002441991991MA1101101999990REMMET053METAR EDOP 210620Z 10006KT 9999 BKN008 M03/M03 Q1011=
0152101624999992014012106504+53427+011783FM-15+005199999V0201001V003110030519N009999199-00301-00301999999ADDGA1071+003051991GE19MSL   +99999+99999GF199999071990003051991991MA1101201999990REMMET061METAR EDOP 210650Z 10006KT 070V130 9999 BKN010 M03/M03 Q1012=
0152101624999992014012107204+53427+011783FM-15+005199999V0200601V002610030519N009000199-00301-00301999999ADDGA1071+003051991GE19MSL   +99999+99999GF199999071990003051991991MA1101201999990REMMET061METAR EDOP 210720Z 06005KT 030V090 9000 BKN010 M03/M03 Q1012=
0144101624999992014012107504+53427+011783FM-15+005199999V0200501N002610027419N009000199-00301-00301999999ADDGA1071+002741991GE19MSL   +99999+99999GF199999071990002741991991MA1101201999990REMMET053METAR EDOP 210750Z 05005KT 9000 BKN009 M03/M03 Q1012=
0144101624999992014012108204+53427+011783FM-15+005199999V0200601N002110024419N009000199-00301-00301999999ADDGA1071+002441991GE19MSL   +99999+99999GF199999071990002441991991MA1101201999990REMMET053METAR EDOP 210820Z 06004KT 9000 BKN008 M03/M03 Q1012=
0162101624999992014012108504+53427+011783FM-15+005199999V0200601V002610021319N004500199-00301-00301999999ADDGA1071+002131991GE19MSL   +99999+99999GF199999071990002131991991MA1101301999990MW1771REMMET065METAR EDOP 210850Z 06005KT 020V080 4500 -SG BKN007 M03/M03 Q1013=
0162101624999992014012109204+53427+011783FM-15+005199999V0200601V002110021319N003000199-00301-00301999999ADDGA1071+002131991GE19MSL   +99999+99999GF199999071990002131991991MA1101301999990MW1771REMMET065METAR EDOP 210920Z 06004KT 020V100 3000 -SG BKN007 M03/M03 Q1013=
0154101624999992014012109504+53427+011783FM-15+005199999V0200601N002110024419N003500199-00301-00301999999ADDGA1071+002441991GE19MSL   +99999+99999GF199999071990002441991991MA1101301999990MW1711REMMET057METAR EDOP 210950Z 06004KT 3500 -SN BKN008 M03/M03 Q1013=
0185101624999992014012110204+53427+011783FM-15+005199999V0200701V002110030519N004500199-00201-00301999999ADDGA1021+001831991GA2071+003051991GE19MSL   +99999+99999GF199999021990001831991991MA1101301999990MW1711REMMET072METAR EDOP 211020Z 07004KT 030V100 4500 -SN FEW006 BKN010 M02/M03 Q1013=
0185101624999992014012110504+53427+011783FM-15+005199999V0200601V002110030519N004000199-00201-00301999999ADDGA1021+001831991GA2071+003051991GE19MSL   +99999+99999GF199999021990001831991991MA1101301999990MW1711REMMET072METAR EDOP 211050Z 06004KT 020V090 4000 -SN FEW006 BKN010 M02/M03 Q1013=
0162101624999992014012111204+53427+011783FM-15+005199999V0200501V002610024419N004000199-00201-00201999999ADDGA1071+002441991GE19MSL   +99999+99999GF199999071990002441991991MA1101301999990MW1711REMMET065METAR EDOP 211120Z 05005KT 020V090 4000 -SN BKN008 M02/M02 Q1013=
0153101624999992014012111504+53427+011783FM-15+005199999V0200601N002610030519N004500199-00201-00201999999ADDGA1071+003051991GE19MSL   +99999+99999GF199999071990003051991991MA1101201999990MW1101REMMET056METAR EDOP 211150Z 06005KT 4500 BR BKN010 M02/M02 Q1012=
0152101624999992014012112204+53427+011783FM-15+005199999V0200601V003110036619N005000199-00201-00201999999ADDGA1071+003661991GE19MSL   +99999+99999GF199999071990003661991991MA1101201999990REMMET061METAR EDOP 211220Z 06006KT 040V100 5000 BKN012 M02/M02 Q1012=
0152101624999992014012113204+53427+011783FM-15+005199999V0200601V002610042719N007000199-00201-00301999999ADDGA1071+004271991GE19MSL   +99999+99999GF199999071990004271991991MA1101201999990REMMET061METAR EDOP 211320Z 06005KT 020V090 7000 BKN014 M02/M03 Q1012=
0152101624999992014012113504+53427+011783FM-15+005199999V0200701V003110042719N007000199-00201-00301999999ADDGA1071+004271991GE19MSL   +99999+99999GF199999071990004271991991MA1101201999990REMMET061METAR EDOP 211350Z 07006KT 040V100 7000 BKN014 M02/M03 Q1012=
0152101624999992014012114204+53427+011783FM-15+005199999V0200601V002610045719N008000199-00201-00301999999ADDGA1071+004571991GE19MSL   +99999+99999GF199999071990004571991991MA1101301999990REMMET061METAR EDOP 211420Z 06005KT 030V100 8000 BKN015 M02/M03 Q1013=
0152101624999992014012114504+53427+011783FM-15+005199999V0200601V002610042719N008000199-00201-00301999999ADDGA1071+004271991GE19MSL   +99999+99999GF199999071990004271991991MA1101301999990REMMET061METAR EDOP 211450Z 06005KT 040V100 8000 BKN014 M02/M03 Q1013=
0144101624999992014012115204+53427+011783FM-15+005199999V0200601N002110042719N009000199-00201-00301999999ADDGA1071+004271991GE19MSL   +99999+99999GF199999071990004271991991MA1101301999990REMMET053METAR EDOP 211520Z 06004KT 9000 BKN014 M02/M03 Q1013=
0144101624999992014012115504+53427+011783FM-15+005199999V0200601N002110042719N009000199-00201-00301999999ADDGA1071+004271991GE19MSL   +99999+99999GF199999071990004271991991MA1101301999990REMMET053METAR EDOP 211550Z 06004KT 9000 BKN014 M02/M03 Q1013=
0144101624999992014012116204+53427+011783FM-15+005199999V0200701N003610030519N008000199-00201-00301999999ADDGA1071+003051991GE19MSL   +99999+99999GF199999071990003051991991MA1101301999990REMMET053METAR EDOP 211620Z 07007KT 8000 BKN010 M02/M03 Q1013=
0154101624999992014012116504+53427+011783FM-15+005199999V0200901N002110018319N006000199-00301-00301999999ADDGA1071+001831991GE19MSL   +99999+99999GF199999071990001831991991MA1101401999990MW1711REMMET057METAR EDOP 211650Z 09004KT 6000 -SN BKN006 M03/M03 Q1014=
0144101624999992014012204204+53427+011783FM-15+005199999V0200901N004110030519N009999199-00401-00501999999ADDGA1071+003051991GE19MSL   +99999+99999GF199999071990003051991991MA1101601999990REMMET053METAR EDOP 220420Z 09008KT 9999 BKN010 M04/M05 Q1016=
0144101624999992014012204504+53427+011783FM-15+005199999V0200901N004610036619N009999199-00401-00501999999ADDGA1071+003661991GE19MSL   +99999+99999GF199999071990003661991991MA1101601999990REMMET053METAR EDOP 220450Z 09009KT 9999 BKN012 M04/M05 Q1016=
0144101624999992014012205204+53427+011783FM-15+005199999V0200901N004610036619N009999199-00401-00501999999ADDGA1071+003661991GE19MSL   +99999+99999GF199999071990003661991991MA1101601999990REMMET053METAR EDOP 220520Z 09009KT 9999 BKN012 M04/M05 Q1016=
0144101624999992014012205504+53427+011783FM-15+005199999V0201001N004610036619N009999199-00401-00601999999ADDGA1071+003661991GE19MSL   +99999+99999GF199999071990003661991991MA1101601999990REMMET053METAR EDOP 220550Z 10009KT 9999 BKN012 M04/M06 Q1016=
0144101624999992014012206504+53427+011783FM-15+005199999V0201001N004610036619N009999199-00401-00601999999ADDGA1071+003661991GE19MSL   +99999+99999GF199999071990003661991991MA1101601999990REMMET053METAR EDOP 220650Z 10009KT 9999 BKN012 M04/M06 Q1016=
0144101624999992014012207204+53427+011783FM-15+005199999V0200901N004610042719N009000199-00501-00601999999ADDGA1071+004271991GE19MSL   +99999+99999GF199999071990004271991991MA1101601999990REMMET053METAR EDOP 220720Z 09009KT 9000 BKN014 M05/M06 Q1016=
0144101624999992014012207504+53427+011783FM-15+005199999V0201001N006210045719N009000199-00501-00601999999ADDGA1071+004571991GE19MSL   +99999+99999GF199999071990004571991991MA1101601999990REMMET053METAR EDOP 220750Z 10012KT 9000 BKN015 M05/M06 Q1016=
0144101624999992014012208204+53427+011783FM-15+005199999V0201001N005710045719N009000199-00501-00601999999ADDGA1071+004571991GE19MSL   +99999+99999GF199999071990004571991991MA1101701999990REMMET053METAR EDOP 220820Z 10011KT 9000 BKN015 M05/M06 Q1017=
0144101624999992014012208504+53427+011783FM-15+005199999V0201001N004610042719N008000199-00501-00601999999ADDGA1071+004271991GE19MSL   +99999+99999GF199999071990004271991991MA1101701999990REMMET053METAR EDOP 220850Z 10009KT 8000 BKN014 M05/M06 Q1017=
0144101624999992014012209204+53427+011783FM-15+005199999V0201101N004610030519N007000199-00501-00601999999ADDGA1071+003051991GE19MSL   +99999+99999GF199999071990003051991991MA1101701999990REMMET053METAR EDOP 220920Z 11009KT 7000 BKN010 M05/M06 Q1017=
0144101624999992014012209504+53427+011783FM-15+005199999V0201001N004610033519N007000199-00501-00601999999ADDGA1071+003351991GE19MSL   +99999+99999GF199999071990003351991991MA1101701999990REMMET053METAR EDOP 220950Z 10009KT 7000 BKN011 M05/M06 Q1017=
0144101624999992014012210204+53427+011783FM-15+005199999V0200901N006710033519N007000199-00501-00601999999ADDGA1071+003351991GE19MSL   +99999+99999GF199999071990003351991991MA1101801999990REMMET053METAR EDOP 221020Z 09013KT 7000 BKN011 M05/M06 Q1018=
