0082101624999992010010113204+53417+011783FM-15+0051EDOP V0200301N003619999999Y0099001N1+00001-00501999999ADDMA1099901999999REMMET055METAR EDOP 011320Z 03007KT 350V060 CAVOK M00/M05 Q0999;
0082101624999992010010113504+53417+011783FM-15+0051EDOP V0200301N003619999999Y0099001N1+00001-00501999999ADDMA1100001999999REMMET055METAR EDOP 011350Z 03007KT 360V060 CAVOK M00/M05 Q1000;
0074101624999992010010114204+53417+011783FM-15+0051EDOP V0200301N003119999999Y0099001N1+00001-00501999999ADDMA1100001999999REMMET047METAR EDOP 011420Z 03006KT CAVOK M00/M05 Q1000;
0082101624999992010010114504+53417+011783FM-15+0051EDOP V0200301N002619999999Y0099001N1-00101-00501999999ADDMA1100001999999REMMET055METAR EDOP 011450Z 03005KT 350V060 CAVOK M01/M05 Q1000;
0082101624999992010010115204+53417+011783FM-15+0051EDOP V0200301N002619999999Y0099001N1-00101-00501999999ADDMA1100001999999REMMET055METAR EDOP 011520Z 03005KT 350V060 CAVOK M01/M05 Q1000;
0122101624999992010010206204+53417+011783FM-15+0051EDOP V0209999V001010012019N0112651N1-00201-00201999999ADDGA1071+001201999GF107991999999999999999999MA1100911999999REMMET053METAR EDOP 020620Z VRB02KT 9999 BKN004 M02/M02 Q1009;
0132101624999992010010206504+53417+011783FM-15+0051EDOP V0209999V001510018019N0070001N1-00301-00301999999ADDGA1071+001801999GF107991999999999999999999MA1101021999999MW1711REMMET057METAR EDOP 020650Z VRB03KT 7000 -SN BKN006 M03/M03 Q1010;
0132101624999992010010207204+53417+011783FM-15+0051EDOP V0209999V001010018019N0060001N1-00301-00301999999ADDGA1071+001801999GF107991999999999999999999MA1101021999999MW1711REMMET057METAR EDOP 020720Z VRB02KT 6000 -SN BKN006 M03/M03 Q1010;
0122101624999992010010207504+53417+011783FM-15+0051EDOP V0209999V001010015019N0080001N1-00301-00301999999ADDGA1071+001501999GF107991999999999999999999MA1101081999999REMMET053METAR EDOP 020750Z VRB02KT 8000 BKN005 M03/M03 Q1011;
0130101624999992010010208204+53417+011783FM-15+0051EDOP V0203301N002110015019N0090001N1-00201-00201999999ADDGA1071+001501999GF107991999999999999999999MA1101081999999REMMET061METAR EDOP 020820Z 33004KT 260V010 9000 BKN005 M02/M02 Q1011;
0122101624999992010010208504+53417+011783FM-15+0051EDOP V0209999V001010018019N0112651N1-00201-00201999999ADDGA1071+001801999GF107991999999999999999999MA1101191999999REMMET053METAR EDOP 020850Z VRB02KT 9999 BKN006 M02/M02 Q1012;
0130101624999992010010209204+53417+011783FM-15+0051EDOP V0203401N002110021019N0090001N1-00201-00201999999ADDGA1071+002101999GF107991999999999999999999MA1101191999999REMMET061METAR EDOP 020920Z 34004KT 290V020 9000 BKN007 M02/M02 Q1012;
0130101624999992010010209504+53417+011783FM-15+0051EDOP V0203101N002110018019N0112651N1-00201-00201999999ADDGA1071+001801999GF107991999999999999999999MA1101191999999REMMET061METAR EDOP 020950Z 31004KT 250V350 9999 BKN006 M02/M02 Q1012;
0130101624999992010010210204+53417+011783FM-15+0051EDOP V0203201N002110021019N0070001N1-00201-00201999999ADDGA1071+002101999GF107991999999999999999999MA1101291999999REMMET061METAR EDOP 021020Z 32004KT 280V350 7000 BKN007 M02/M02 Q1013;
0130101624999992010010210504+53417+011783FM-15+0051EDOP V0203001N002110021019N0070001N1-00201-00201999999ADDGA1071+002101999GF107991999999999999999999MA1101291999999REMMET061METAR EDOP 021050Z 30004KT 240V340 7000 BKN007 M02/M02 Q1013;
0130101624999992010010211204+53417+011783FM-15+0051EDOP V0202901N002110021019N0090001N1-00201-00301999999ADDGA1071+002101999GF107991999999999999999999MA1101291999999REMMET061METAR EDOP 021120Z 29004KT 250V330 9000 BKN007 M02/M03 Q1013;
0130101624999992010010211504+53417+011783FM-15+0051EDOP V0202901N002112200019N0112651N1-00201-00301999999ADDGA1041+003001999GF104991999999999999999999MA1101291999999REMMET061METAR EDOP 021150Z 29004KT 250V330 9999 SCT010 M02/M03 Q1013;
0130101624999992010010212204+53417+011783FM-15+0051EDOP V0203001N002612200019N0112651N1-00101-00301999999ADDGA1021+003301999GF102991999999999999999999MA1101391999999REMMET061METAR EDOP 021220Z 30005KT 270V330 9999 FEW011 M01/M03 Q1014;
0130101624999992010010212504+53417+011783FM-15+0051EDOP V0202901N002112200019N0112651N1-00101-00401999999ADDGA1021+003601999GF102991999999999999999999MA1101391999999REMMET061METAR EDOP 021250Z 29004KT 250V330 9999 FEW012 M01/M04 Q1014;
0082101624999992010010213204+53417+011783FM-15+0051EDOP V0203001N002619999999Y0099001N1-00201-00501999999ADDMA1101391999999REMMET055METAR EDOP 021320Z 30005KT 270V350 CAVOK M02/M05 Q1014;
0074101624999992010010213504+53417+011783FM-15+0051EDOP V0202801N001519999999Y0099001N1-00301-00501999999ADDMA1101491999999REMMET047METAR EDOP 021350Z 28003KT CAVOK M03/M05 Q1015;
0074101624999992010010214204+53417+011783FM-15+0051EDOP V0202801N002119999999Y0099001N1-00501-00701999999ADDMA1101491999999REMMET047METAR EDOP 021420Z 28004KT CAVOK M05/M07 Q1015;
0074101624999992010010214504+53417+011783FM-15+0051EDOP V0202701N001519999999Y0099001N1-00601-00801999999ADDMA1101591999999REMMET047METAR EDOP 021450Z 27003KT CAVOK M06/M08 Q1016;
0122101624999992010010215204+53417+011783FM-15+0051EDOP V0202701N002612200019N0112651N1-00801-00901999999ADDGA1041+003001999GF104991999999999999999999MA1101591999999REMMET053METAR EDOP 021520Z 27005KT 9999 SCT010 M08/M09 Q1016;
0122101624999992010010215504+53417+011783FM-15+0051EDOP V0202701N001512200019N0112651N1-00701-00701999999ADDGA1041+003001999GF104991999999999999999999MA1101591999999REMMET053METAR EDOP 021550Z 27003KT 9999 SCT010 M07/M07 Q1016;
0145101624999992010010216204+53417+011783FM-15+0051EDOP V0202501N002112200019N0112651N1-00901-01001999999ADDGA1021+003001999GA2041+010201999GF104991999999999999999999MA1101691999999REMMET060METAR EDOP 021620Z 25004KT 9999 FEW010 SCT034 M09/M10 Q1017;
0145101624999992010010216504+53417+011783FM-15+0051EDOP V0209999C000012200019N0112651N1-00701-00801999999ADDGA1021+003601999GA2041+009301999GF104991999999999999999999MA1101691999999REMMET060METAR EDOP 021650Z 00000KT 9999 FEW012 SCT031 M07/M08 Q1017;
0122101624999992010010303204+53417+011783FM-15+0051EDOP V0209999C000012200019N0080001N1-00901-01001999999ADDGA1041+001501999GF104991999999999999999999MA1101901999999REMMET053METAR EDOP 030320Z 00000KT 8000 SCT005 M09/M10 Q1019;
0122101624999992010010303504+53417+011783FM-15+0051EDOP V0209999C000010015019N0060001N1-00801-00901999999ADDGA1071+001501999GF107991999999999999999999MA1101901999999REMMET053METAR EDOP 030350Z 00000KT 6000 BKN005 M08/M09 Q1019;
0122101624999992010010304204+53417+011783FM-15+0051EDOP V0209999V001510012019N0060001N1-00501-00501999999ADDGA1071+001201999GF107991999999999999999999MA1101901999999REMMET053METAR EDOP 030420Z VRB03KT 6000 BKN004 M05/M05 Q1019;
0122101624999992010010304504+53417+011783FM-15+0051EDOP V0200801N002110012019N0060001N1-00401-00501999999ADDGA1071+001201999GF107991999999999999999999MA1101901999999REMMET053METAR EDOP 030450Z 08004KT 6000 BKN004 M04/M05 Q1019;
0132101624999992010010305204+53417+011783FM-15+0051EDOP V0200801N003610009019N0060001N1-00401-00501999999ADDGA1071+000901999GF107991999999999999999999MA1101901999999MW1711REMMET057METAR EDOP 030520Z 08007KT 6000 -SN BKN003 M04/M05 Q1019;
0073101624999992010010306504+53417+011783FM-15+0051EDOP V0200901N002112200019N0050001N1-00401-00501999999ADDMA1101901999999REMMET046METAR EDOP 030650Z 09004KT 5000 M04/M05 Q1019;
0131101624999992010010307204+53417+011783FM-15+0051EDOP V0200901N002610009019N0045001N1-00501-00501999999ADDGA1071+000901999GF107991999999999999999999MA1101901999999MW1101REMMET056METAR EDOP 030720Z 09005KT 4500 BR BKN003 M05/M05 Q1019;
0139101624999992010010307504+53417+011783FM-15+0051EDOP V0200701N002110006019N0040001N1-00501-00501999999ADDGA1081+000601999GF108991999999999999999999MA1101901999999MW1101REMMET064METAR EDOP 030750Z 07004KT 040V100 4000 BR OVC002 M05/M05 Q1019;
0131101624999992010010308504+53417+011783FM-15+0051EDOP V0209999V001510006019N0035001N1-00501-00501999999ADDGA1081+000601999GF108991999999999999999999MA1102001999999MW1101REMMET056METAR EDOP 030850Z VRB03KT 3500 BR OVC002 M05/M05 Q1020;
0131101624999992010010309204+53417+011783FM-15+0051EDOP V0200701N002110006019N0035001N1-00501-00501999999ADDGA1081+000601999GF108991999999999999999999MA1102001999999MW1101REMMET056METAR EDOP 030920Z 07004KT 3500 BR OVC002 M05/M05 Q1020;
0131101624999992010010309504+53417+011783FM-15+0051EDOP V0209999V001510006019N0040001N1-00401-00501999999ADDGA1081+000601999GF108991999999999999999999MA1102001999999MW1101REMMET056METAR EDOP 030950Z VRB03KT 4000 BR OVC002 M04/M05 Q1020;
0131101624999992010010310204+53417+011783FM-15+0051EDOP V0209999V001510009019N0045001N1-00401-00501999999ADDGA1071+000901999GF107991999999999999999999MA1102001999999MW1101REMMET056METAR EDOP 031020Z VRB03KT 4500 BR BKN003 M04/M05 Q1020;
0131101624999992010010310504+53417+011783FM-15+0051EDOP V0209999C000010009019N0045001N1-00401-00501999999ADDGA1071+000901999GF107991999999999999999999MA1102001999999MW1101REMMET056METAR EDOP 031050Z 00000KT 4500 BR BKN003 M04/M05 Q1020;
0131101624999992010010311504+53417+011783FM-15+0051EDOP V0209999V001010006019N0040001N1-00501-00501999999ADDGA1081+000601999GF108991999999999999999999MA1102001999999MW1101REMMET056METAR EDOP 031150Z VRB02KT 4000 BR OVC002 M05/M05 Q1020;
0131101624999992010010312204+53417+011783FM-15+0051EDOP V0209999C000010012019N0030001N1-00501-00501999999ADDGA1071+001201999GF107991999999999999999999MA1102001999999MW1101REMMET056METAR EDOP 031220Z 00000KT 3000 BR BKN004 M05/M05 Q1020;
0131101624999992010010312504+53417+011783FM-15+0051EDOP V0209999C000010012019N0045001N1-00401-00501999999ADDGA1071+001201999GF107991999999999999999999MA1102001999999MW1101REMMET056METAR EDOP 031250Z 00000KT 4500 BR BKN004 M04/M05 Q1020;
0122101624999992010010313504+53417+011783FM-15+0051EDOP V0209999V001510015019N0060001N1-00501-00501999999ADDGA1071+001501999GF107991999999999999999999MA1102001999999REMMET053METAR EDOP 031350Z VRB03KT 6000 BKN005 M05/M05 Q1020;
0122101624999992010010314204+53417+011783FM-15+0051EDOP V0209999V001010012019N0060001N1-00501-00501999999ADDGA1071+001201999GF107991999999999999999999MA1102001999999REMMET053METAR EDOP 031420Z VRB02KT 6000 BKN004 M05/M05 Q1020;
0122101624999992010010314504+53417+011783FM-15+0051EDOP V0209999C000010015019N0060001N1-00501-00501999999ADDGA1071+001501999GF107991999999999999999999MA1102001999999REMMET053METAR EDOP 031450Z 00000KT 6000 BKN005 M05/M05 Q1020;
0122101624999992010010315204+53417+011783FM-15+0051EDOP V0209999C000010024019N0070001N1-00501-00501999999ADDGA1071+002401999GF107991999999999999999999MA1102001999999REMMET053METAR EDOP 031520Z 00000KT 7000 BKN008 M05/M05 Q1020;
0122101624999992010010315504+53417+011783FM-15+0051EDOP V0209999C000010021019N0070001N1-00401-00501999999ADDGA1071+002101999GF107991999999999999999999MA1102001999999REMMET053METAR EDOP 031550Z 00000KT 7000 BKN007 M04/M05 Q1020;
0122101624999992010010316204+53417+011783FM-15+0051EDOP V0209999V001510015019N0070001N1-00401-00501999999ADDGA1071+001501999GF107991999999999999999999MA1102001999999REMMET053METAR EDOP 031620Z VRB03KT 7000 BKN005 M04/M05 Q1020;
0130101624999992010010316504+53417+011783FM-15+0051EDOP V0203601N002110018019N0060001N1-00501-00501999999ADDGA1071+001801999GF107991999999999999999999MA1102101999999REMMET061METAR EDOP 031650Z 36004KT 340V040 6000 BKN006 M05/M05 Q1021;
0122101624999992010010405504+53417+011783FM-15+0051EDOP V0202201N003610060019N0112651N1-00501-00801999999ADDGA1071+006001999GF107991999999999999999999MA1101691999999REMMET053METAR EDOP 040550Z 22007KT 9999 BKN020 M05/M08 Q1017;
0122101624999992010010406204+53417+011783FM-15+0051EDOP V0202201N004110060019N0112651N1-00601-00801999999ADDGA1071+006001999GF107991999999999999999999MA1101691999999REMMET053METAR EDOP 040620Z 22008KT 9999 BKN020 M06/M08 Q1017;
0122101624999992010010406504+53417+011783FM-15+0051EDOP V0202201N003610060019N0112651N1-00601-00801999999ADDGA1071+006001999GF107991999999999999999999MA1101691999999REMMET053METAR EDOP 040650Z 22007KT 9999 BKN020 M06/M08 Q1017;
0122101624999992010010407204+53417+011783FM-15+0051EDOP V0202101N004610054019N0112651N1-00601-00801999999ADDGA1071+005401999GF107991999999999999999999MA1101691999999REMMET053METAR EDOP 040720Z 21009KT 9999 BKN018 M06/M08 Q1017;
0122101624999992010010407504+53417+011783FM-15+0051EDOP V0202201N004612200019N0112651N1-00601-00901999999ADDGA1021+005401999GF102991999999999999999999MA1101591999999REMMET053METAR EDOP 040750Z 22009KT 9999 FEW018 M06/M09 Q1016;
0122101624999992010010408204+53417+011783FM-15+0051EDOP V0202201N004612200019N0112651N1-00601-00801999999ADDGA1041+003601999GF104991999999999999999999MA1101591999999REMMET053METAR EDOP 040820Z 22009KT 9999 SCT012 M06/M08 Q1016;
0122101624999992010010408504+53417+011783FM-15+0051EDOP V0202201N005712200019N0112651N1-00601-00801999999ADDGA1041+003901999GF104991999999999999999999MA1101591999999REMMET053METAR EDOP 040850Z 22011KT 9999 SCT013 M06/M08 Q1016;
0122101624999992010010409204+53417+011783FM-15+0051EDOP V0202101N005712200019N0112651N1-00501-00801999999ADDGA1041+003901999GF104991999999999999999999MA1101591999999REMMET053METAR EDOP 040920Z 21011KT 9999 SCT013 M05/M08 Q1016;
0122101624999992010010409504+53417+011783FM-15+0051EDOP V0202001N006712200019N0112651N1-00601-00801999999ADDGA1021+003901999GF102991999999999999999999MA1101491999999REMMET053METAR EDOP 040950Z 20013KT 9999 FEW013 M06/M08 Q1015;
0122101624999992010010410204+53417+011783FM-15+0051EDOP V0202201N005712200019N0112651N1-00501-00801999999ADDGA1021+004201999GF102991999999999999999999MA1101491999999REMMET053METAR EDOP 041020Z 22011KT 9999 FEW014 M05/M08 Q1015;
0122101624999992010010410504+53417+011783FM-15+0051EDOP V0202101N007212200019N0112651N1-00501-00801999999ADDGA1021+004201999GF102991999999999999999999MA1101391999999REMMET053METAR EDOP 041050Z 21014KT 9999 FEW014 M05/M08 Q1014;
0122101624999992010010411204+53417+011783FM-15+0051EDOP V0202201N006212200019N0112651N1-00401-00801999999ADDGA1021+003901999GF102991999999999999999999MA1101391999999REMMET053METAR EDOP 041120Z 22012KT 9999 FEW013 M04/M08 Q1014;
0122101624999992010010411504+53417+011783FM-15+0051EDOP V0202201N006712200019N0112651N1-00501-00801999999ADDGA1021+004501999GF102991999999999999999999MA1101391999999REMMET053METAR EDOP 041150Z 22013KT 9999 FEW015 M05/M08 Q1014;
0122101624999992010010412504+53417+011783FM-15+0051EDOP V0202101N006212200019N0112651N1-00401-00701999999ADDGA1041+004501999GF104991999999999999999999MA1101291999999REMMET053METAR EDOP 041250Z 21012KT 9999 SCT015 M04/M07 Q1013;
0145101624999992010010413204+53417+011783FM-15+0051EDOP V0202001N006712200019N0112651N1-00501-00801999999ADDGA1021+004501999GA2041+012001999GF104991999999999999999999MA1101191999999REMMET060METAR EDOP 041320Z 20013KT 9999 FEW015 SCT040 M05/M08 Q1012;
0122101624999992010010414204+53417+011783FM-15+0051EDOP V0202101N006712200019N0112651N1-00501-00801999999ADDGA1041+004501999GF104991999999999999999999MA1101191999999REMMET053METAR EDOP 041420Z 21013KT 9999 SCT015 M05/M08 Q1012;
0122101624999992010010414504+53417+011783FM-15+0051EDOP V0202001N006712200019N0112651N1-00501-00801999999ADDGA1041+004501999GF104991999999999999999999MA1101191999999REMMET053METAR EDOP 041450Z 20013KT 9999 SCT015 M05/M08 Q1012;
0122101624999992010010415204+53417+011783FM-15+0051EDOP V0202101N006212200019N0112651N1-00501-00801999999ADDGA1041+004501999GF104991999999999999999999MA1101081999999REMMET053METAR EDOP 041520Z 21012KT 9999 SCT015 M05/M08 Q1011;
0122101624999992010010415504+53417+011783FM-15+0051EDOP V0202101N005712200019N0112651N1-00501-00801999999ADDGA1041+004501999GF104991999999999999999999MA1101081999999REMMET053METAR EDOP 041550Z 21011KT 9999 SCT015 M05/M08 Q1011;
0155101624999992010010416204+53417+011783FM-15+0051EDOP V0202101N006712200019N0070001N1-00501-00701999999ADDGA1041+003001999GA2041+007501999GF104991999999999999999999MA1101081999999MW1711REMMET064METAR EDOP 041620Z 21013KT 7000 -SN SCT010 SCT025 M05/M07 Q1011;
0155101624999992010010416504+53417+011783FM-15+0051EDOP V0202301N005112200019N0060001N1-00501-00701999999ADDGA1041+003601999GA2041+006001999GF104991999999999999999999MA1101081999999MW1711REMMET064METAR EDOP 041650Z 23010KT 6000 -SN SCT012 SCT020 M05/M07 Q1011;
0122101624999992010010505504+53417+011783FM-15+0051EDOP V0202001N003610018019N0060001N1-00401-00501999999ADDGA1071+001801999GF107991999999999999999999MA1100811999999REMMET053METAR EDOP 050550Z 20007KT 6000 BKN006 M04/M05 Q1008;
0122101624999992010010506204+53417+011783FM-15+0051EDOP V0201701N003110015019N0060001N1-00401-00501999999ADDGA1071+001501999GF107991999999999999999999MA1100811999999REMMET053METAR EDOP 050620Z 17006KT 6000 BKN005 M04/M05 Q1008;
0131101624999992010010506504+53417+011783FM-15+0051EDOP V0201801N003610015019N0040001N1-00401-00501999999ADDGA1071+001501999GF107991999999999999999999MA1100811999999MW1101REMMET056METAR EDOP 050650Z 18007KT 4000 BR BKN005 M04/M05 Q1008;
0139101624999992010010507204+53417+011783FM-15+0051EDOP V0201801N002110015019N0040001N1-00401-00501999999ADDGA1071+001501999GF107991999999999999999999MA1100811999999MW1101REMMET064METAR EDOP 050720Z 18004KT 160V220 4000 BR BKN005 M04/M05 Q1008;
0130101624999992010010507504+53417+011783FM-15+0051EDOP V0201901N002610018019N0060001N1-00401-00501999999ADDGA1071+001801999GF107991999999999999999999MA1100811999999REMMET061METAR EDOP 050750Z 19005KT 160V220 6000 BKN006 M04/M05 Q1008;
0130101624999992010010508204+53417+011783FM-15+0051EDOP V0201701N002610027019N0060001N1-00401-00501999999ADDGA1071+002701999GF107991999999999999999999MA1100811999999REMMET061METAR EDOP 050820Z 17005KT 140V200 6000 BKN009 M04/M05 Q1008;
0130101624999992010010508504+53417+011783FM-15+0051EDOP V0201701N002610024019N0060001N1-00301-00501999999ADDGA1071+002401999GF107991999999999999999999MA1100811999999REMMET061METAR EDOP 050850Z 17005KT 140V200 6000 BKN008 M03/M05 Q1008;
0130101624999992010010509204+53417+011783FM-15+0051EDOP V0201801N002110027019N0070001N1-00301-00501999999ADDGA1071+002701999GF107991999999999999999999MA1100811999999REMMET061METAR EDOP 050920Z 18004KT 130V220 7000 BKN009 M03/M05 Q1008;
0130101624999992010010509504+53417+011783FM-15+0051EDOP V0201701N002610027019N0080001N1-00301-00501999999ADDGA1071+002701999GF107991999999999999999999MA1100811999999REMMET061METAR EDOP 050950Z 17005KT 140V210 8000 BKN009 M03/M05 Q1008;
0153101624999992010010510204+53417+011783FM-15+0051EDOP V0201901N002610105019N0112651N1-00301-00501999999ADDGA1021+003001999GA2071+010501999GF107991999999999999999999MA1100711999999REMMET068METAR EDOP 051020Z 19005KT 140V210 9999 FEW010 BKN035 M03/M05 Q1007;
0122101624999992010010511204+53417+011783FM-15+0051EDOP V0201901N003610114019N0112651N1-00201-00501999999ADDGA1071+011401999GF107991999999999999999999MA1100711999999REMMET053METAR EDOP 051120Z 19007KT 9999 BKN038 M02/M05 Q1007;
0145101624999992010010511504+53417+011783FM-15+0051EDOP V0201901N004110120019N0112651N1-00301-00501999999ADDGA1041+006001999GA2071+012001999GF107991999999999999999999MA1100711999999REMMET060METAR EDOP 051150Z 19008KT 9999 SCT020 BKN040 M03/M05 Q1007;
0145101624999992010010512204+53417+011783FM-15+0051EDOP V0201801N004110120019N0112651N1-00301-00501999999ADDGA1041+006001999GA2071+012001999GF107991999999999999999999MA1100611999999REMMET060METAR EDOP 051220Z 18008KT 9999 SCT020 BKN040 M03/M05 Q1006;
0130101624999992010010512504+53417+011783FM-15+0051EDOP V0201801N004610090019N0112651N1-00201-00501999999ADDGA1071+009001999GF107991999999999999999999MA1100611999999REMMET061METAR EDOP 051250Z 18009KT 160V220 9999 BKN030 M02/M05 Q1006;
0122101624999992010010513204+53417+011783FM-15+0051EDOP V0201701N004610135019N0112651N1-00301-00601999999ADDGA1071+013501999GF107991999999999999999999MA1100611999999REMMET053METAR EDOP 051320Z 17009KT 9999 BKN045 M03/M06 Q1006;
0122101624999992010010513504+53417+011783FM-15+0051EDOP V0201701N004610114019N0112651N1-00301-00601999999ADDGA1071+011401999GF107991999999999999999999MA1100611999999REMMET053METAR EDOP 051350Z 17009KT 9999 BKN038 M03/M06 Q1006;
0122101624999992010010514204+53417+011783FM-15+0051EDOP V0201701N005710105019N0112651N1-00301-00601999999ADDGA1071+010501999GF107991999999999999999999MA1100611999999REMMET053METAR EDOP 051420Z 17011KT 9999 BKN035 M03/M06 Q1006;
0145101624999992010010514504+53417+011783FM-15+0051EDOP V0201701N004112200019N0112651N1-00301-00601999999ADDGA1021+012001999GA2041+015001999GF104991999999999999999999MA1100611999999REMMET060METAR EDOP 051450Z 17008KT 9999 FEW040 SCT050 M03/M06 Q1006;
0074101624999992010010515204+53417+011783FM-15+0051EDOP V0201601N004619999999Y0099001N1-00401-00601999999ADDMA1100611999999REMMET047METAR EDOP 051520Z 16009KT CAVOK M04/M06 Q1006;
0074101624999992010010515504+53417+011783FM-15+0051EDOP V0201601N004619999999Y0099001N1-00401-00601999999ADDMA1100611999999REMMET047METAR EDOP 051550Z 16009KT CAVOK M04/M06 Q1006;
0074101624999992010010516204+53417+011783FM-15+0051EDOP V0201601N004619999999Y0099001N1-00401-00701999999ADDMA1100611999999REMMET047METAR EDOP 051620Z 16009KT CAVOK M04/M07 Q1006;
0074101624999992010010516504+53417+011783FM-15+0051EDOP V0201501N004619999999Y0099001N1-00401-00701999999ADDMA1100611999999REMMET047METAR EDOP 051650Z 15009KT CAVOK M04/M07 Q1006;
0074101624999992010010517204+53417+011783FM-15+0051EDOP V0201501N003619999999Y0099001N1-00501-00701999999ADDMA1100611999999REMMET047METAR EDOP 051720Z 15007KT CAVOK M05/M07 Q1006;
0082101624999992010010517504+53417+011783FM-15+0051EDOP V0201301N003119999999Y0099001N1-00501-00701999999ADDMA1100611999999REMMET055METAR EDOP 051750Z 13006KT 080V170 CAVOK M05/M07 Q1006;
0122101624999992010010605504+53417+011783FM-15+0051EDOP V0209999V001512200019N0080001N1-01401-01601999999ADDGF100991999999999999999999MA1100411999999REMMET050METAR EDOP 060550Z VRB03KT 8000 NSC M14/M16 Q1004;EQDQ01    003SCCGA1
0122101624999992010010606204+53417+011783FM-15+0051EDOP V0209999C000012200019N0060001N1-01401-01601999999ADDGF100991999999999999999999MA1100411999999REMMET050METAR EDOP 060620Z 00000KT 6000 NSC M14/M16 Q1004;EQDQ01    003SCCGA1
0131101624999992010010606504+53417+011783FM-15+0051EDOP V0200801N001512200019N0040001N1-01501-01701999999ADDGF100991999999999999999999MA1100411999999MW1101REMMET053METAR EDOP 060650Z 08003KT 4000 BR NSC M15/M17 Q1004;EQDQ01    003SCCGA1
0131101624999992010010607204+53417+011783FM-15+0051EDOP V0200901N001512200019N0040001N1-01401-01601999999ADDGF100991999999999999999999MA1100411999999MW1101REMMET053METAR EDOP 060720Z 09003KT 4000 BR NSC M14/M16 Q1004;EQDQ01    003SCCGA1
0131101624999992010010607504+53417+011783FM-15+0051EDOP V0200901N000512200019N0040001N1-01401-01601999999ADDGF100991999999999999999999MA1100411999999MW1101REMMET053METAR EDOP 060750Z 09001KT 4000 BR NSC M14/M16 Q1004;EQDQ01    003SCCGA1
0131101624999992010010608204+53417+011783FM-15+0051EDOP V0200701N002112200019N0040001N1-01301-01501999999ADDGF100991999999999999999999MA1100511999999MW1101REMMET053METAR EDOP 060820Z 07004KT 4000 BR NSC M13/M15 Q1005;EQDQ01    003SCCGA1
0131101624999992010010608504+53417+011783FM-15+0051EDOP V0200601N002112200019N0040001N1-01301-01401999999ADDGF100991999999999999999999MA1100511999999MW1101REMMET053METAR EDOP 060850Z 06004KT 4000 BR NSC M13/M14 Q1005;EQDQ01    003SCCGA1
0131101624999992010010609204+53417+011783FM-15+0051EDOP V0200601N002112200019N0040001N1-01101-01201999999ADDGF100991999999999999999999MA1100511999999MW1101REMMET053METAR EDOP 060920Z 06004KT 4000 BR NSC M11/M12 Q1005;EQDQ01    003SCCGA1
0131101624999992010010609504+53417+011783FM-15+0051EDOP V0200901N002112200019N0038001N1-01001-01101999999ADDGF100991999999999999999999MA1100511999999MW1101REMMET053METAR EDOP 060950Z 09004KT 3800 BR NSC M10/M11 Q1005;EQDQ01    003SCCGA1
0131101624999992010010610204+53417+011783FM-15+0051EDOP V0200701N002112200019N0038001N1-00901-01001999999ADDGF100991999999999999999999MA1100511999999MW1101REMMET053METAR EDOP 061020Z 07004KT 3800 BR NSC M09/M10 Q1005;EQDQ01    003SCCGA1
0122101624999992010010610504+53417+011783FM-15+0051EDOP V0200601N001512200019N0038001N1-00801-01001999999ADDGF100991999999999999999999MA1100511999999REMMET050METAR EDOP 061050Z 06003KT 3800 NSC M08/M10 Q1005;EQDQ01    003SCCGA1
0131101624999992010010611204+53417+011783FM-15+0051EDOP V0209999C000012200019N0036001N1-00801-01001999999ADDGF100991999999999999999999MA1100511999999MW1101REMMET053METAR EDOP 061120Z 00000KT 3600 BR NSC M08/M10 Q1005;EQDQ01    003SCCGA1
0131101624999992010010611504+53417+011783FM-15+0051EDOP V0209999C000012200019N0040001N1-00701-00901999999ADDGF100991999999999999999999MA1100411999999MW1101REMMET053METAR EDOP 061150Z 00000KT 4000 BR NSC M07/M09 Q1004;EQDQ01    003SCCGA1
0131101624999992010010612204+53417+011783FM-15+0051EDOP V0209999C000012200019N0036001N1-00601-00801999999ADDGF100991999999999999999999MA1100411999999MW1101REMMET053METAR EDOP 061220Z 00000KT 3600 BR NSC M06/M08 Q1004;EQDQ01    003SCCGA1
0131101624999992010010612504+53417+011783FM-15+0051EDOP V0209999C000012200019N0040001N1-00601-00801999999ADDGA1021+009001999GF102991999999999999999999MA1100411999999MW1101REMMET056METAR EDOP 061250Z 00000KT 4000 BR FEW030 M06/M08 Q1004;
0131101624999992010010613204+53417+011783FM-15+0051EDOP V0209999V001012200019N0044001N1-00701-00901999999ADDGA1021+009001999GF102991999999999999999999MA1100411999999MW1101REMMET056METAR EDOP 061320Z VRB02KT 4400 BR FEW030 M07/M09 Q1004;
0154101624999992010010613504+53417+011783FM-15+0051EDOP V0209999V001512200019N0046001N1-00801-01001999999ADDGA1021+003601999GA2041+007801999GF104991999999999999999999MA1100411999999MW1101REMMET063METAR EDOP 061350Z VRB03KT 4600 BR FEW012 SCT026 M08/M10 Q1004;
0154101624999992010010614204+53417+011783FM-15+0051EDOP V0209999C000012200019N0042001N1-00701-00901999999ADDGA1021+003601999GA2041+008401999GF104991999999999999999999MA1100411999999MW1101REMMET063METAR EDOP 061420Z 00000KT 4200 BR FEW012 SCT028 M07/M09 Q1004;
0154101624999992010010614504+53417+011783FM-15+0051EDOP V0209999V001510132019N0040001N1-00801-00901999999ADDGA1041+003001999GA2071+013201999GF107991999999999999999999MA1100411999999MW1101REMMET063METAR EDOP 061450Z VRB03KT 4000 BR SCT010 BKN044 M08/M09 Q1004;
0154101624999992010010615204+53417+011783FM-15+0051EDOP V0209999C000010090019N0036001N1-00801-00901999999ADDGA1041+003001999GA2071+009001999GF107991999999999999999999MA1100411999999MW1101REMMET063METAR EDOP 061520Z 00000KT 3600 BR SCT010 BKN030 M08/M09 Q1004;
0154101624999992010010615504+53417+011783FM-15+0051EDOP V0209999C000010120019N0028001N1-00701-00901999999ADDGA1041+003601999GA2071+012001999GF107991999999999999999999MA1100411999999MW1101REMMET063METAR EDOP 061550Z 00000KT 2800 BR SCT012 BKN040 M07/M09 Q1004;
0154101624999992010010616204+53417+011783FM-15+0051EDOP V0209999C000010114019N0024001N1-00701-00901999999ADDGA1041+003001999GA2071+011401999GF107991999999999999999999MA1100411999999MW1101REMMET063METAR EDOP 061620Z 00000KT 2400 BR SCT010 BKN038 M07/M09 Q1004;
0154101624999992010010616504+53417+011783FM-15+0051EDOP V0209999C000010120019N0022001N1-00701-00901999999ADDGA1041+003001999GA2071+012001999GF107991999999999999999999MA1100511999999MW1101REMMET063METAR EDOP 061650Z 00000KT 2200 BR SCT010 BKN040 M07/M09 Q1005;
0122101624999992010010705504+53417+011783FM-15+0051EDOP V0202601N002110060019N0070001N1-00901-01001999999ADDGA1071+006001999GF107991999999999999999999MA1100611999999REMMET053METAR EDOP 070550Z 26004KT 7000 BKN020 M09/M10 Q1006;
0122101624999992010010706204+53417+011783FM-15+0051EDOP V0202601N003110075019N0080001N1-00901-01001999999ADDGA1071+007501999GF107991999999999999999999MA1100711999999REMMET053METAR EDOP 070620Z 26006KT 8000 BKN025 M09/M10 Q1007;
0145101624999992010010706504+53417+011783FM-15+0051EDOP V0202601N003110150019N0070001N1-00901-01001999999ADDGA1041+009001999GA2071+015001999GF107991999999999999999999MA1100711999999REMMET060METAR EDOP 070650Z 26006KT 7000 SCT030 BKN050 M09/M10 Q1007;
0145101624999992010010707204+53417+011783FM-15+0051EDOP V0202601N003110120019N0050001N1-00901-01001999999ADDGA1041+003001999GA2071+012001999GF107991999999999999999999MA1100711999999REMMET060METAR EDOP 070720Z 26006KT 5000 SCT010 BKN040 M09/M10 Q1007;
0155101624999992010010707504+53417+011783FM-15+0051EDOP V0202701N002110135019N0050001N1-00901-01001999999ADDGA1041+003001999GA2071+013501999GF107991999999999999999999MA1100811999999MW1711REMMET064METAR EDOP 070750Z 27004KT 5000 -SN SCT010 BKN045 M09/M10 Q1008;
0153101624999992010010708204+53417+011783FM-15+0051EDOP V0202701N002110045019N0050001N1-00901-01001999999ADDED199U14009GA1071+004501999GF107991999999999999999999MA1100811999999MW1711REMMET067METAR EDOP 070820Z 27004KT 5000 R24/1400N -SN BKN015 M09/M10 Q1008;
0131101624999992010010709204+53417+011783FM-15+0051EDOP V0202501N002610036019N0035001N1-00801-00901999999ADDGA1071+003601999GF107991999999999999999999MA1100911999999MW1101REMMET056METAR EDOP 070920Z 25005KT 3500 BR BKN012 M08/M09 Q1009;
0139101624999992010010710504+53417+011783FM-15+0051EDOP V0202801N002610054019N0045001N1-00601-00801999999ADDGA1071+005401999GF107991999999999999999999MA1100911999999MW1101REMMET064METAR EDOP 071050Z 28005KT 260V320 4500 BR BKN018 M06/M08 Q1009;
0122101624999992010010711204+53417+011783FM-15+0051EDOP V0202401N003110051019N0045001N1-00601-00701999999ADDGA1071+005101999GF107991999999999999999999MA1100911999999REMMET053METAR EDOP 071120Z 24006KT 4500 BKN017 M06/M07 Q1009;
0154101624999992010010711504+53417+011783FM-15+0051EDOP V0202301N002610072019N0044001N1-00601-00701999999ADDGA1021+003001999GA2071+007201999GF107991999999999999999999MA1100911999999MW1101REMMET063METAR EDOP 071150Z 23005KT 4400 BR FEW010 BKN024 M06/M07 Q1009;
0131101624999992010010712204+53417+011783FM-15+0051EDOP V0202501N003610054019N0044001N1-00501-00701999999ADDGA1071+005401999GF107991999999999999999999MA1100911999999MW1101REMMET056METAR EDOP 071220Z 25007KT 4400 BR BKN018 M05/M07 Q1009;
0131101624999992010010712504+53417+011783FM-15+0051EDOP V0202501N003610033019N0046001N1-00501-00601999999ADDGA1071+003301999GF107991999999999999999999MA1100911999999MW1101REMMET056METAR EDOP 071250Z 25007KT 4600 BR BKN011 M05/M06 Q1009;
0131101624999992010010713204+53417+011783FM-15+0051EDOP V0202501N003610024019N0040001N1-00501-00601999999ADDGA1071+002401999GF107991999999999999999999MA1100911999999MW1101REMMET056METAR EDOP 071320Z 25007KT 4000 BR BKN008 M05/M06 Q1009;
0131101624999992010010713504+53417+011783FM-15+0051EDOP V0202501N003110024019N0045001N1-00501-00601999999ADDGA1071+002401999GF107991999999999999999999MA1101021999999MW1101REMMET056METAR EDOP 071350Z 25006KT 4500 BR BKN008 M05/M06 Q1010;
0131101624999992010010714204+53417+011783FM-15+0051EDOP V0202501N004610024019N0045001N1-00501-00601999999ADDGA1071+002401999GF107991999999999999999999MA1101021999999MW1101REMMET056METAR EDOP 071420Z 25009KT 4500 BR BKN008 M05/M06 Q1010;
0131101624999992010010714504+53417+011783FM-15+0051EDOP V0202501N004610024019N0042001N1-00501-00701999999ADDGA1071+002401999GF107991999999999999999999MA1101021999999MW1101REMMET056METAR EDOP 071450Z 25009KT 4200 BR BKN008 M05/M07 Q1010;
0141101624999992010010715204+53417+011783FM-15+0051EDOP V0202601N003610021019N0035001N1-00501-00701999999ADDGA1071+002101999GF107991999999999999999999MA1101021999999MW1101MW2711REMMET060METAR EDOP 071520Z 26007KT 3500 -SN BR BKN007 M05/M07 Q1010;
0141101624999992010010715504+53417+011783FM-15+0051EDOP V0202601N002610021019N0029001N1-00501-00701999999ADDGA1071+002101999GF107991999999999999999999MA1101081999999MW1101MW2711REMMET060METAR EDOP 071550Z 26005KT 2900 -SN BR BKN007 M05/M07 Q1011;
0141101624999992010010716204+53417+011783FM-15+0051EDOP V0202501N002610021019N0027001N1-00501-00601999999ADDGA1071+002101999GF107991999999999999999999MA1101081999999MW1101MW2711REMMET060METAR EDOP 071620Z 25005KT 2700 -SN BR BKN007 M05/M06 Q1011;
0153101624999992010010805504+53417+011783FM-15+0051EDOP V0209999C00001000151CN0004001N1-00501-00601999999ADDED199U06509GA1091+000151999GF109991999999000251999999MA1102001999999MW1491REMMET067METAR EDOP 080550Z 00000KT 0400 R24/0650N FZFG VV/// M05/M06 Q1020;
0148101624999992010010806504+53417+011783FM-15+0051EDOP V0209999C000010003019N0006001N1-00501-00601999999ADDGA1071+000301999GF107991999999999999999999MA1102001999999MW1481REMMET073METAR EDOP 080650Z 00000KT 0600 R24/0500V0750N FZFG BKN001 M05/M06 Q1020;
0154101624999992010010807204+53417+011783FM-15+0051EDOP V0200801N002110003019N0004001N1-00501-00601999999ADDED199U07009GA1081+000301999GF108991999999999999999999MA1102101999999MW1481REMMET068METAR EDOP 080720Z 08004KT 0400 R24/0700U FZFG OVC001 M05/M06 Q1021;
0154101624999992010010807504+53417+011783FM-15+0051EDOP V0201001N002110006019N0007001N1-00501-00601999999ADDED199U10009GA1081+000601999GF108991999999999999999999MA1102101999999MW1481REMMET068METAR EDOP 080750Z 10004KT 0700 R24/1000U FZFG OVC002 M05/M06 Q1021;
0154101624999992010010808204+53417+011783FM-15+0051EDOP V0200801N002110006019N0007001N1-00601-00601999999ADDED199U10009GA1081+000601999GF108991999999999999999999MA1102101999999MW1481REMMET068METAR EDOP 080820Z 08004KT 0700 R24/1000N FZFG OVC002 M06/M06 Q1021;
0154101624999992010010808504+53417+011783FM-15+0051EDOP V0200901N003610006019N0006001N1-00601-00601999999ADDED199U06509GA1081+000601999GF108991999999999999999999MA1102201999999MW1481REMMET068METAR EDOP 080850Z 09007KT 0600 R24/0650D FZFG OVC002 M06/M06 Q1022;
0144101624999992010010809204+53417+011783FM-15+0051EDOP V0200901N002612200019N0005001N1-00601-00701999999ADDMA1102201999999REMMET082METAR EDOP 080920Z 09005KT 050V120 0500 R24/M0350V0600N FZFG OVC002 M06/M07 Q1022;EQDQ01+000403ATOT  Q02-003503ATOD  
0154101624999992010010809504+53417+011783FM-15+0051EDOP V0209999V001510006019N0005001N1-00601-00701999999ADDED199U05009GA1081+000601999GF108991999999999999999999MA1102201999999MW1481REMMET068METAR EDOP 080950Z VRB03KT 0500 R24/0500N FZFG OVC002 M06/M07 Q1022;
0154101624999992010010810204+53417+011783FM-15+0051EDOP V0209999V001510006019N0005001N1-00601-00701999999ADDED199U05009GA1081+000601999GF108991999999999999999999MA1102201999999MW1481REMMET068METAR EDOP 081020Z VRB03KT 0500 R24/0500N FZFG OVC002 M06/M07 Q1022;
0154101624999992010010810504+53417+011783FM-15+0051EDOP V0209999V001510006019N0005001N1-00701-00701999999ADDED199U06009GA1081+000601999GF108991999999999999999999MA1102301999999MW1481REMMET068METAR EDOP 081050Z VRB03KT 0500 R24/0600N FZFG OVC002 M07/M07 Q1023;
0154101624999992010010811204+53417+011783FM-15+0051EDOP V0209999V001510009019N0009001N1-00601-00601999999ADDED199U10009GA1081+000901999GF108991999999999999999999MA1102301999999MW1481REMMET068METAR EDOP 081120Z VRB03KT 0900 R24/1000N FZFG OVC003 M06/M06 Q1023;
0139101624999992010010811504+53417+011783FM-15+0051EDOP V0200501N002110012019N0020001N1-00501-00601999999ADDGA1071+001201999GF107991999999999999999999MA1102201999999MW1101REMMET064METAR EDOP 081150Z 05004KT 010V080 2000 BR BKN004 M05/M06 Q1022;
0131101624999992010010812204+53417+011783FM-15+0051EDOP V0209999V001510012019N0025001N1-00501-00501999999ADDGA1071+001201999GF107991999999999999999999MA1102201999999MW1101REMMET056METAR EDOP 081220Z VRB03KT 2500 BR BKN004 M05/M05 Q1022;
0139101624999992010010812504+53417+011783FM-15+0051EDOP V0200501N002610021019N0028001N1-00401-00401999999ADDGA1071+002101999GF107991999999999999999999MA1102201999999MW1101REMMET064METAR EDOP 081250Z 05005KT 010V070 2800 BR BKN007 M04/M04 Q1022;
0131101624999992010010813204+53417+011783FM-15+0051EDOP V0200401N003610021019N0045001N1-00401-00401999999ADDGA1071+002101999GF107991999999999999999999MA1102201999999MW1101REMMET056METAR EDOP 081320Z 04007KT 4500 BR BKN007 M04/M04 Q1022;
0122101624999992010010813504+53417+011783FM-15+0051EDOP V0200501N004610021019N0050001N1-00401-00401999999ADDGA1071+002101999GF107991999999999999999999MA1102201999999REMMET053METAR EDOP 081350Z 05009KT 5000 BKN007 M04/M04 Q1022;
0122101624999992010010814204+53417+011783FM-15+0051EDOP V0200501N005110024019N0050001N1-00301-00401999999ADDGA1071+002401999GF107991999999999999999999MA1102201999999REMMET053METAR EDOP 081420Z 05010KT 5000 BKN008 M03/M04 Q1022;
0131101624999992010010814504+53417+011783FM-15+0051EDOP V0200601N004610021019N0048001N1-00301-00401999999ADDGA1071+002101999GF107991999999999999999999MA1102301999999MW1101REMMET056METAR EDOP 081450Z 06009KT 4800 BR BKN007 M03/M04 Q1023;
0131101624999992010010815204+53417+011783FM-15+0051EDOP V0200501N004110021019N0046001N1-00301-00401999999ADDGA1071+002101999GF107991999999999999999999MA1102301999999MW1101REMMET056METAR EDOP 081520Z 05008KT 4600 BR BKN007 M03/M04 Q1023;
0154101624999992010010815504+53417+011783FM-15+0051EDOP V0200501N004110045019N0046001N1-00301-00401999999ADDGA1041+003001999GA2071+004501999GF107991999999999999999999MA1102301999999MW1101REMMET063METAR EDOP 081550Z 05008KT 4600 BR SCT010 BKN015 M03/M04 Q1023;
0139101624999992010010816204+53417+011783FM-15+0051EDOP V0200401N004610030019N0048001N1-00301-00401999999ADDGA1071+003001999GF107991999999999999999999MA1102301999999MW1101REMMET064METAR EDOP 081620Z 04009KT 010V070 4800 BR BKN010 M03/M04 Q1023;
0139101624999992010010816504+53417+011783FM-15+0051EDOP V0200301N004110030019N0050001N1-00301-00401999999ADDGA1071+003001999GF107991999999999999999999MA1102301999999MW1101REMMET064METAR EDOP 081650Z 03008KT 360V060 5000 BR BKN010 M03/M04 Q1023;
0122101624999992010010905504+53417+011783FM-15+0051EDOP V0200501N008210057019N0112651N1-00101-00501999999ADDGA1071+005701999GF107991999999999999999999MA1102101999999REMMET053METAR EDOP 090550Z 05016KT 9999 BKN019 M01/M05 Q1021;
0122101624999992010010906204+53417+011783FM-15+0051EDOP V0200501N008210048019N0112651N1-00101-00401999999ADDGA1071+004801999GF107991999999999999999999MA1102101999999REMMET053METAR EDOP 090620Z 05016KT 9999 BKN016 M01/M04 Q1021;
0122101624999992010010906504+53417+011783FM-15+0051EDOP V0200501N007710048019N0112651N1-00101-00401999999ADDGA1071+004801999GF107991999999999999999999MA1102101999999REMMET053METAR EDOP 090650Z 05015KT 9999 BKN016 M01/M04 Q1021;
0122101624999992010010907204+53417+011783FM-15+0051EDOP V0200501N007210048019N0112651N1-00101-00401999999ADDGA1071+004801999GF107991999999999999999999MA1102101999999REMMET053METAR EDOP 090720Z 05014KT 9999 BKN016 M01/M04 Q1021;
0122101624999992010010907504+53417+011783FM-15+0051EDOP V0200601N008210054019N0112651N1+00001-00401999999ADDGA1071+005401999GF107991999999999999999999MA1102101999999REMMET053METAR EDOP 090750Z 06016KT 9999 BKN018 M00/M04 Q1021;
0133101624999992010010908204+53417+011783FM-15+0051EDOP V0200501N009810060019N0112651N1+00001-00401999999ADDGA1071+006001999GF107991999999999999999999MA1102101999999OC101491REMMET056METAR EDOP 090820Z 05019G29KT 9999 BKN020 M00/M04 Q1021;
0121101624999992010010908504+53417+011783FM-15+0051EDOP V0200601N010310060019N0112651N1+00001-00401999999ADDGA1071+006001999GF107991999999999999999999MA1102101999999REMMET052METAR EDOP 090850Z 06020KT 9999 BKN020 00/M04 Q1021;
0133101624999992010010909204+53417+011783FM-15+0051EDOP V0200601N011310060019N0112651N1+00001-00401999999ADDGA1071+006001999GF107991999999999999999999MA1102101999999OC101701REMMET056METAR EDOP 090920Z 06022G33KT 9999 BKN020 M00/M04 Q1021;
0122101624999992010010909504+53417+011783FM-15+0051EDOP V0200601N011810060019N0112651N1+00001-00401999999ADDGA1071+006001999GF107991999999999999999999MA1102101999999REMMET053METAR EDOP 090950Z 06023KT 9999 BKN020 M00/M04 Q1021;
0122101624999992010010910204+53417+011783FM-15+0051EDOP V0200601N011310060019N0112651N1+00001-00501999999ADDGA1071+006001999GF107991999999999999999999MA1102001999999REMMET053METAR EDOP 091020Z 06022KT 9999 BKN020 M00/M05 Q1020;
0133101624999992010010910504+53417+011783FM-15+0051EDOP V0200601N011310063019N0112651N1+00001-00501999999ADDGA1071+006301999GF107991999999999999999999MA1102001999999OC101751REMMET056METAR EDOP 091050Z 06022G34KT 9999 BKN021 M00/M05 Q1020;
0122101624999992010010911204+53417+011783FM-15+0051EDOP V0200601N012910066019N0112651N1+00001-00401999999ADDGA1071+006601999GF107991999999999999999999MA1102001999999REMMET053METAR EDOP 091120Z 06025KT 9999 BKN022 M00/M04 Q1020;
0132101624999992010010911504+53417+011783FM-15+0051EDOP V0200501N011310066019N0112651N1+00001-00401999999ADDGA1071+006601999GF107991999999999999999999MA1102001999999OC101751REMMET055METAR EDOP 091150Z 05022G34KT 9999 BKN022 00/M04 Q1020;
0177101624999992010010912204+53417+011783FM-15+0051EDOP V0200501N012910066019N0060001N1+00001-00401999999ADDGA1041+003601999GA2071+006601999GF107991999999999999999999MA1101901999999MW1361MW2711OC101951REMMET072METAR EDOP 091220Z 05025G38KT 6000 -SN DRSN SCT012 BKN022 M00/M04 Q1019;
0177101624999992010010912504+53417+011783FM-15+0051EDOP V0200501N009310045019N0045001N1+00001-00301999999ADDGA1041+003001999GA2071+004501999GF107991999999999999999999MA1101901999999MW1361MW2711OC101441REMMET072METAR EDOP 091250Z 05018G28KT 4500 -SN DRSN SCT010 BKN015 M00/M03 Q1019;
0143101624999992010010913204+53417+011783FM-15+0051EDOP V0200501N010310045019N0050001N1+00001-00301999999ADDGA1071+004501999GF107991999999999999999999MA1101801999999MW1361MW2711REMMET062METAR EDOP 091320Z 05020KT 5000 -SN DRSN BKN015 M00/M03 Q1018;
0154101624999992010010913504+53417+011783FM-15+0051EDOP V0200501N010310051019N0060001N1+00001-00301999999ADDGA1071+005101999GF107991999999999999999999MA1101801999999MW1361MW2711OC101701REMMET065METAR EDOP 091350Z 05020G33KT 6000 -SN DRSN BKN017 M00/M03 Q1018;
0133101624999992010010914204+53417+011783FM-15+0051EDOP V0200501N010810051019N0080001N1+00001-00301999999ADDGA1071+005101999GF107991999999999999999999MA1101801999999MW1361REMMET058METAR EDOP 091420Z 05021KT 8000 DRSN BKN017 M00/M03 Q1018;
0151101624999992010010914504+53417+011783FM-15+0051EDOP V0200501N010310054019N0070001N1+00001-00401999999ADDGA1071+005401999GF107991999999999999999999MA1101801999999MW1361OC101591REMMET068METAR EDOP 091450Z 05020G31KT 010V070 7000 DRSN BKN018 00/M04 Q1018;
0143101624999992010010915204+53417+011783FM-15+0051EDOP V0200501N009310042019N0045001N1+00001-00301999999ADDGA1071+004201999GF107991999999999999999999MA1101801999999MW1361MW2711REMMET062METAR EDOP 091520Z 05018KT 4500 -SN DRSN BKN014 M00/M03 Q1018;
0143101624999992010010915504+53417+011783FM-15+0051EDOP V0200501N009310039019N0040001N1+00001-00201999999ADDGA1071+003901999GF107991999999999999999999MA1101691999999MW1361MW2711REMMET062METAR EDOP 091550Z 05018KT 4000 -SN DRSN BKN013 M00/M02 Q1017;
0143101624999992010010916204+53417+011783FM-15+0051EDOP V0200601N010310039019N0036001N1+00001-00301999999ADDGA1071+003901999GF107991999999999999999999MA1101691999999MW1361MW2711REMMET062METAR EDOP 091620Z 06020KT 3600 -SN DRSN BKN013 M00/M03 Q1017;
0143101624999992010010916504+53417+011783FM-15+0051EDOP V0200501N009310039019N0045001N1+00001-00201999999ADDGA1071+003901999GF107991999999999999999999MA1101691999999MW1361MW2711REMMET062METAR EDOP 091650Z 05018KT 4500 -SN DRSN BKN013 M00/M02 Q1017;
0143101624999992010010917204+53417+011783FM-15+0051EDOP V0200601N011810039019N0045001N1+00001-00201999999ADDGA1071+003901999GF107991999999999999999999MA1101691999999MW1361MW2711REMMET062METAR EDOP 091720Z 06023KT 4500 -SN DRSN BKN013 M00/M02 Q1017;
0143101624999992010010917504+53417+011783FM-15+0051EDOP V0200601N009810030019N0040001N1-00101-00201999999ADDGA1071+003001999GF107991999999999999999999MA1101691999999MW1361MW2711REMMET062METAR EDOP 091750Z 06019KT 4000 -SN DRSN BKN010 M01/M02 Q1017;
0143101624999992010010918204+53417+011783FM-15+0051EDOP V0200601N009810030019N0040001N1-00101-00201999999ADDGA1071+003001999GF107991999999999999999999MA1101691999999MW1361MW2711REMMET062METAR EDOP 091820Z 06019KT 4000 -SN DRSN BKN010 M01/M02 Q1017;
0143101624999992010010918504+53417+011783FM-15+0051EDOP V0200601N008710030019N0035001N1-00101-00201999999ADDGA1071+003001999GF107991999999999999999999MA1101691999999MW1361MW2711REMMET062METAR EDOP 091850Z 06017KT 3500 -SN DRSN BKN010 M01/M02 Q1017;
0166101624999992010010919204+53417+011783FM-15+0051EDOP V0200601N008210060019N0035001N1-00101-00101999999ADDGA1041+002401999GA2071+006001999GF107991999999999999999999MA1101691999999MW1361MW2711REMMET069METAR EDOP 091920Z 06016KT 3500 -SN DRSN SCT008 BKN020 M01/M01 Q1017;
0165101624999992010010919504+53417+011783FM-15+0051EDOP V0200601N008710060019N0035001N1-00101-00201999999ADDGA1041+002401999GA2071+006001999GF107991999999999999999999MA1101691999999MW1361MW2731REMMET068METAR EDOP 091950Z 06017KT 3500 SN DRSN SCT008 BKN020 M01/M02 Q1017;
0142101624999992010010920204+53417+011783FM-15+0051EDOP V0200601N009810045019N0035001N1-00101-00201999999ADDGA1071+004501999GF107991999999999999999999MA1101691999999MW1361MW2731REMMET061METAR EDOP 092020Z 06019KT 3500 SN DRSN BKN015 M01/M02 Q1017;
0142101624999992010010920504+53417+011783FM-15+0051EDOP V0200601N008710036019N0035001N1-00101-00201999999ADDGA1071+003601999GF107991999999999999999999MA1101591999999MW1361MW2731REMMET061METAR EDOP 092050Z 06017KT 3500 SN DRSN BKN012 M01/M02 Q1016;
0143101624999992010010921204+53417+011783FM-15+0051EDOP V0200601N008210033019N0035001N1-00101-00101999999ADDGA1071+003301999GF107991999999999999999999MA1101591999999MW1361MW2711REMMET062METAR EDOP 092120Z 06016KT 3500 -SN DRSN BKN011 M01/M01 Q1016;
0143101624999992010010921504+53417+011783FM-15+0051EDOP V0200601N008210030019N0035001N1-00101-00101999999ADDGA1071+003001999GF107991999999999999999999MA1101591999999MW1361MW2711REMMET062METAR EDOP 092150Z 06016KT 3500 -SN DRSN BKN010 M01/M01 Q1016;
0143101624999992010010922204+53417+011783FM-15+0051EDOP V0200601N007710027019N0035001N1-00101-00101999999ADDGA1071+002701999GF107991999999999999999999MA1101591999999MW1361MW2711REMMET062METAR EDOP 092220Z 06015KT 3500 -SN DRSN BKN009 M01/M01 Q1016;
0164101624999992010010922504+53417+011783FM-15+0051EDOP V0200701N008210021019N0025001N1-00101-00101999999ADDED199U14009GA1071+002101999GF107991999999999999999999MA1101591999999MW1361MW2711REMMET072METAR EDOP 092250Z 07016KT 2500 R24/1400N -SN DRSN BKN007 M01/M01 Q1016;
0143101624999992010010923204+53417+011783FM-15+0051EDOP V0200701N008210021019N0025001N1-00101-00101999999ADDGA1071+002101999GF107991999999999999999999MA1101591999999MW1361MW2711REMMET062METAR EDOP 092320Z 07016KT 2500 -SN DRSN BKN007 M01/M01 Q1016;
0143101624999992010010923504+53417+011783FM-15+0051EDOP V0200601N007710021019N0030001N1-00101-00101999999ADDGA1071+002101999GF107991999999999999999999MA1101591999999MW1361MW2711REMMET062METAR EDOP 092350Z 06015KT 3000 -SN DRSN BKN007 M01/M01 Q1016;
0143101624999992010011000204+53417+011783FM-15+0051EDOP V0200601N007210030019N0035001N1-00101-00101999999ADDGA1071+003001999GF107991999999999999999999MA1101591999999MW1361MW2711REMMET062METAR EDOP 100020Z 06014KT 3500 -SN DRSN BKN010 M01/M01 Q1016;
0143101624999992010011000504+53417+011783FM-15+0051EDOP V0200601N009310030019N0040001N1+00001-00201999999ADDGA1071+003001999GF107991999999999999999999MA1101491999999MW1361MW2711REMMET062METAR EDOP 100050Z 06018KT 4000 -SN DRSN BKN010 M00/M02 Q1015;
0133101624999992010011001204+53417+011783FM-15+0051EDOP V0200701N009810033019N0060001N1+00001-00201999999ADDGA1071+003301999GF107991999999999999999999MA1101491999999MW1361REMMET058METAR EDOP 100120Z 07019KT 6000 DRSN BKN011 M00/M02 Q1015;
0156101624999992010011001504+53417+011783FM-15+0051EDOP V0200701N008710060019N0060001N1-00101-00201999999ADDGA1041+002701999GA2071+006001999GF107991999999999999999999MA1101491999999MW1361REMMET065METAR EDOP 100150Z 07017KT 6000 DRSN SCT009 BKN020 M01/M02 Q1015;
0156101624999992010011002204+53417+011783FM-15+0051EDOP V0200701N010310060019N0060001N1-00101-00301999999ADDGA1041+002701999GA2071+006001999GF107991999999999999999999MA1101491999999MW1361REMMET065METAR EDOP 100220Z 07020KT 6000 DRSN SCT009 BKN020 M01/M03 Q1015;
0156101624999992010011002504+53417+011783FM-15+0051EDOP V0200701N009310060019N0060001N1-00101-00301999999ADDGA1041+002701999GA2071+006001999GF107991999999999999999999MA1101491999999MW1361REMMET065METAR EDOP 100250Z 07018KT 6000 DRSN SCT009 BKN020 M01/M03 Q1015;
0156101624999992010011003204+53417+011783FM-15+0051EDOP V0200701N009810060019N0060001N1-00101-00301999999ADDGA1041+002701999GA2071+006001999GF107991999999999999999999MA1101491999999MW1361REMMET065METAR EDOP 100320Z 07019KT 6000 DRSN SCT009 BKN020 M01/M03 Q1015;
0143101624999992010011003504+53417+011783FM-15+0051EDOP V0200701N008710036019N0050001N1-00101-00301999999ADDGA1071+003601999GF107991999999999999999999MA1101491999999MW1361MW2711REMMET062METAR EDOP 100350Z 07017KT 5000 -SN DRSN BKN012 M01/M03 Q1015;
0143101624999992010011004204+53417+011783FM-15+0051EDOP V0200701N010810036019N0050001N1-00101-00401999999ADDGA1071+003601999GF107991999999999999999999MA1101491999999MW1361MW2711REMMET062METAR EDOP 100420Z 07021KT 5000 -SN DRSN BKN012 M01/M04 Q1015;
0143101624999992010011004504+53417+011783FM-15+0051EDOP V0200701N008710036019N0050001N1-00101-00301999999ADDGA1071+003601999GF107991999999999999999999MA1101491999999MW1361MW2711REMMET062METAR EDOP 100450Z 07017KT 5000 -SN DRSN BKN012 M01/M03 Q1015;
0143101624999992010011005204+53417+011783FM-15+0051EDOP V0200701N007710036019N0050001N1-00101-00301999999ADDGA1071+003601999GF107991999999999999999999MA1101491999999MW1361MW2711REMMET062METAR EDOP 100520Z 07015KT 5000 -SN DRSN BKN012 M01/M03 Q1015;
0133101624999992010011005504+53417+011783FM-15+0051EDOP V0200701N008710042019N0060001N1-00101-00301999999ADDGA1071+004201999GF107991999999999999999999MA1101491999999MW1361REMMET058METAR EDOP 100550Z 07017KT 6000 DRSN BKN014 M01/M03 Q1015;
0133101624999992010011006204+53417+011783FM-15+0051EDOP V0200701N008710042019N0060001N1-00101-00301999999ADDGA1071+004201999GF107991999999999999999999MA1101491999999MW1361REMMET058METAR EDOP 100620Z 07017KT 6000 DRSN BKN014 M01/M03 Q1015;
0122101624999992010011006504+53417+011783FM-15+0051EDOP V0200701N008210042019N0050001N1-00101-00301999999ADDGA1071+004201999GF107991999999999999999999MA1101491999999REMMET053METAR EDOP 100650Z 07016KT 5000 BKN014 M01/M03 Q1015;
0131101624999992010011007204+53417+011783FM-15+0051EDOP V0200701N007210015019N0015001N1-00101-00201999999ADDGA1071+001501999GF107991999999999999999999MA1101591999999MW1731REMMET056METAR EDOP 100720Z 07014KT 1500 SN BKN005 M01/M02 Q1016;
0131101624999992010011007504+53417+011783FM-15+0051EDOP V0200701N007210015019N0016001N1-00101-00201999999ADDGA1071+001501999GF107991999999999999999999MA1101591999999MW1731REMMET056METAR EDOP 100750Z 07014KT 1600 SN BKN005 M01/M02 Q1016;
0131101624999992010011008204+53417+011783FM-15+0051EDOP V0200701N006710015019N0025001N1-00101-00101999999ADDGA1071+001501999GF107991999999999999999999MA1101591999999MW1731REMMET056METAR EDOP 100820Z 07013KT 2500 SN BKN005 M01/M01 Q1016;
0160101624999992010011008504+53417+011783FM-15+0051EDOP V0200701N007210030019N0030001N1-00101-00201999999ADDGA1041+001501999GA2071+003001999GF107991999999999999999999MA1101591999999MW1711REMMET069METAR EDOP 100850Z 07014KT 3000 -SN SCT005 BKN010 M01/M02 Q1016 RESN;
0152101624999992010011009204+53417+011783FM-15+0051EDOP V0200801N009310024019N0015001N1-00101-00201999999ADDED199U11009GA1071+002401999GF107991999999999999999999MA1101591999999MW1731REMMET066METAR EDOP 100920Z 08018KT 1500 R24/1100N SN BKN008 M01/M02 Q1016;
0152101624999992010011009504+53417+011783FM-15+0051EDOP V0200701N007210018019N0015001N1+00001-00101999999ADDED199U13009GA1071+001801999GF107991999999999999999999MA1101691999999MW1731REMMET066METAR EDOP 100950Z 07014KT 1500 R06/1300N SN BKN006 M00/M01 Q1017;
0137101624999992010011010204+53417+011783FM-15+0051EDOP V0200701N007210030019N0025001N1+00001-00101999999ADDGA1071+003001999GF107991999999999999999999MA1101691999999MW1711REMMET062METAR EDOP 101020Z 07014KT 2500 -SN BKN010 M00/M01 Q1017 RESN;
0153101624999992010011010504+53417+011783FM-15+0051EDOP V0200701N007210024019N0024001N1+00001-00101999999ADDED199U14009GA1071+002401999GF107991999999999999999999MA1101691999999MW1711REMMET067METAR EDOP 101050Z 07014KT 2400 R06/1400N -SN BKN008 M00/M01 Q1017;
0131101624999992010011011204+53417+011783FM-15+0051EDOP V0200701N008210024019N0033001N1+00001-00101999999ADDGA1071+002401999GF107991999999999999999999MA1101691999999MW1711REMMET056METAR EDOP 101120Z 07016KT 3300 -SN BKN008 00/M01 Q1017;
0131101624999992010011011504+53417+011783FM-15+0051EDOP V0200701N008210030019N0040001N1+00001-00101999999ADDGA1071+003001999GF107991999999999999999999MA1101691999999MW1711REMMET056METAR EDOP 101150Z 07016KT 4000 -SN BKN010 00/M01 Q1017;
0121101624999992010011012204+53417+011783FM-15+0051EDOP V0200601N009810036019N0060001N1+00101-00101999999ADDGA1071+003601999GF107991999999999999999999MA1101591999999REMMET052METAR EDOP 101220Z 06019KT 6000 BKN012 01/M01 Q1016;
0121101624999992010011012504+53417+011783FM-15+0051EDOP V0200601N007710036019N0060001N1+00001-00101999999ADDGA1071+003601999GF107991999999999999999999MA1101591999999REMMET052METAR EDOP 101250Z 06015KT 6000 BKN012 00/M01 Q1016;
0131101624999992010011013204+53417+011783FM-15+0051EDOP V0200601N006210018019N0035001N1+00001-00101999999ADDGA1071+001801999GF107991999999999999999999MA1101591999999MW1711REMMET056METAR EDOP 101320Z 06012KT 3500 -SN BKN006 00/M01 Q1016;
0131101624999992010011013504+53417+011783FM-15+0051EDOP V0200601N006210024019N0045001N1+00001+00001999999ADDGA1071+002401999GF107991999999999999999999MA1101691999999MW1711REMMET056METAR EDOP 101350Z 06012KT 4500 -SN BKN008 00/M00 Q1017;
0139101624999992010011014204+53417+011783FM-15+0051EDOP V0200501N004610018019N0035001N1+00001+00001999999ADDGA1071+001801999GF107991999999999999999999MA1101691999999MW1711REMMET064METAR EDOP 101420Z 05009KT 010V070 3500 -SN BKN006 00/M00 Q1017;
0130101624999992010011014504+53417+011783FM-15+0051EDOP V0200501N005710021019N0035001N1+00001+00001999999ADDGA1071+002101999GF107991999999999999999999MA1101691999999MW1711REMMET055METAR EDOP 101450Z 05011KT 3500 -SN BKN007 00/00 Q1017;
0130101624999992010011015204+53417+011783FM-15+0051EDOP V0200501N005710024019N0045001N1+00001+00001999999ADDGA1071+002401999GF107991999999999999999999MA1101691999999MW1711REMMET055METAR EDOP 101520Z 05011KT 4500 -SN BKN008 00/00 Q1017;
0130101624999992010011015504+53417+011783FM-15+0051EDOP V0200501N005710024019N0040001N1+00001+00001999999ADDGA1071+002401999GF107991999999999999999999MA1101691999999MW1711REMMET055METAR EDOP 101550Z 05011KT 4000 -SN BKN008 00/00 Q1017;
0130101624999992010011016204+53417+011783FM-15+0051EDOP V0200501N005710021019N0040001N1+00001+00001999999ADDGA1071+002101999GF107991999999999999999999MA1101691999999MW1711REMMET055METAR EDOP 101620Z 05011KT 4000 -SN BKN007 00/00 Q1017;
0130101624999992010011016504+53417+011783FM-15+0051EDOP V0200501N005710021019N0040001N1+00001+00001999999ADDGA1071+002101999GF107991999999999999999999MA1101691999999MW1711REMMET055METAR EDOP 101650Z 05011KT 4000 -SN BKN007 00/00 Q1017;
0122101624999992010011105504+53417+011783FM-15+0051EDOP V0200701N004610036019N0112651N1-00201-00501999999ADDGA1071+003601999GF107991999999999999999999MA1101801999999REMMET053METAR EDOP 110550Z 07009KT 9999 BKN012 M02/M05 Q1018;
0145101624999992010011106204+53417+011783FM-15+0051EDOP V0200501N002110036019N0112651N1-00201-00401999999ADDGA1021+002401999GA2071+003601999GF107991999999999999999999MA1101801999999REMMET060METAR EDOP 110620Z 05004KT 9999 FEW008 BKN012 M02/M04 Q1018;
0122101624999992010011106504+53417+011783FM-15+0051EDOP V0200701N002610036019N0112651N1-00201-00401999999ADDGA1071+003601999GF107991999999999999999999MA1101801999999REMMET053METAR EDOP 110650Z 07005KT 9999 BKN012 M02/M04 Q1018;
0122101624999992010011107204+53417+011783FM-15+0051EDOP V0200501N001510024019N0112651N1-00201-00401999999ADDGA1071+002401999GF107991999999999999999999MA1101801999999REMMET053METAR EDOP 110720Z 05003KT 9999 BKN008 M02/M04 Q1018;
0122101624999992010011107504+53417+011783FM-15+0051EDOP V0200601N003110030019N0112651N1-00201-00401999999ADDGA1071+003001999GF107991999999999999999999MA1101801999999REMMET053METAR EDOP 110750Z 06006KT 9999 BKN010 M02/M04 Q1018;
0122101624999992010011108204+53417+011783FM-15+0051EDOP V0200701N003610030019N0112651N1-00201-00401999999ADDGA1071+003001999GF107991999999999999999999MA1101901999999REMMET053METAR EDOP 110820Z 07007KT 9999 BKN010 M02/M04 Q1019;
0155101624999992010011108504+53417+011783FM-15+0051EDOP V0200801N003110060019N0040001N1-00201-00401999999ADDGA1041+003001999GA2071+006001999GF107991999999999999999999MA1101901999999MW1711REMMET064METAR EDOP 110850Z 08006KT 4000 -SN SCT010 BKN020 M02/M04 Q1019;
0155101624999992010011109204+53417+011783FM-15+0051EDOP V0200701N004610054019N0060001N1-00201-00401999999ADDGA1021+003001999GA2071+005401999GF107991999999999999999999MA1101901999999MW1711REMMET064METAR EDOP 110920Z 07009KT 6000 -SN FEW010 BKN018 M02/M04 Q1019;
0155101624999992010011109504+53417+011783FM-15+0051EDOP V0200701N004110060019N0040001N1-00201-00401999999ADDGA1021+003001999GA2071+006001999GF107991999999999999999999MA1101901999999MW1711REMMET064METAR EDOP 110950Z 07008KT 4000 -SN FEW010 BKN020 M02/M04 Q1019;
0155101624999992010011110204+53417+011783FM-15+0051EDOP V0200701N003110039019N0080001N1-00201-00401999999ADDGA1021+002401999GA2071+003901999GF107991999999999999999999MA1101901999999MW1711REMMET064METAR EDOP 111020Z 07006KT 8000 -SN FEW008 BKN013 M02/M04 Q1019;
0140101624999992010011110504+53417+011783FM-15+0051EDOP V0200601N002110039019N0060001N1-00101-00401999999ADDGA1071+003901999GF107991999999999999999999MA1101801999999MW1711REMMET065METAR EDOP 111050Z 06004KT 020V080 6000 -SN BKN013 M01/M04 Q1018;
0154101624999992010011111204+53417+011783FM-15+0051EDOP V0200701N004110054019N0035001N1-00201-00401999999ADDGA1041+003001999GA2071+005401999GF107991999999999999999999MA1101801999999MW1731REMMET063METAR EDOP 111120Z 07008KT 3500 SN SCT010 BKN018 M02/M04 Q1018;
0132101624999992010011111504+53417+011783FM-15+0051EDOP V0200401N003610030019N0070001N1-00101-00301999999ADDGA1071+003001999GF107991999999999999999999MA1101801999999MW1711REMMET057METAR EDOP 111150Z 04007KT 7000 -SN BKN010 M01/M03 Q1018;
0132101624999992010011112204+53417+011783FM-15+0051EDOP V0200301N002610030019N0050001N1-00101-00301999999ADDGA1071+003001999GF107991999999999999999999MA1101801999999MW1711REMMET057METAR EDOP 111220Z 03005KT 5000 -SN BKN010 M01/M03 Q1018;
0139101624999992010011112504+53417+011783FM-15+0051EDOP V0200401N003110036019N0040001N1-00101-00301999999ADDGA1071+003601999GF107991999999999999999999MA1101801999999MW1101REMMET064METAR EDOP 111250Z 04006KT 360V060 4000 BR BKN012 M01/M03 Q1018;
0132101624999992010011113204+53417+011783FM-15+0051EDOP V0200301N003110030019N0025001N1-00101-00301999999ADDGA1071+003001999GF107991999999999999999999MA1101691999999MW1711REMMET057METAR EDOP 111320Z 03006KT 2500 -SN BKN010 M01/M03 Q1017;
0153101624999992010011113504+53417+011783FM-15+0051EDOP V0200201N002610090019N0060001N1-00101-00201999999ADDGA1041+003001999GA2071+009001999GF107991999999999999999999MA1101691999999REMMET068METAR EDOP 111350Z 02005KT 340V050 6000 SCT010 BKN030 M01/M02 Q1017;
0140101624999992010011114204+53417+011783FM-15+0051EDOP V0200201N002610030019N0030001N1-00101-00301999999ADDGA1071+003001999GF107991999999999999999999MA1101691999999MW1711REMMET065METAR EDOP 111420Z 02005KT 350V050 3000 -SN BKN010 M01/M03 Q1017;
0132101624999992010011114504+53417+011783FM-15+0051EDOP V0200401N002610036019N0030001N1-00201-00301999999ADDGA1071+003601999GF107991999999999999999999MA1101691999999MW1711REMMET057METAR EDOP 111450Z 04005KT 3000 -SN BKN012 M02/M03 Q1017;
0163101624999992010011115204+53417+011783FM-15+0051EDOP V0200201N002110090019N0040001N1-00201-00201999999ADDGA1041+003001999GA2071+009001999GF107991999999999999999999MA1101691999999MW1711REMMET072METAR EDOP 111520Z 02004KT 340V050 4000 -SN SCT010 BKN030 M02/M02 Q1017;
0131101624999992010011115504+53417+011783FM-15+0051EDOP V0200301N001012200019N0045001N1-00201-00201999999ADDGA1041+003001999GF104991999999999999999999MA1101691999999MW1101REMMET056METAR EDOP 111550Z 03002KT 4500 BR SCT010 M02/M02 Q1017;
0155101624999992010011116204+53417+011783FM-15+0051EDOP V0200401N001512200019N0040001N1-00201-00201999999ADDGA1041+003601999GA2041+012001999GF104991999999999999999999MA1101691999999MW1711REMMET064METAR EDOP 111620Z 04003KT 4000 -SN SCT012 SCT040 M02/M02 Q1017;
0155101624999992010011116504+53417+011783FM-15+0051EDOP V0209999C000010090019N0045001N1-00201-00301999999ADDGA1021+002701999GA2071+009001999GF107991999999999999999999MA1101691999999MW1711REMMET064METAR EDOP 111650Z 00000KT 4500 -SN FEW009 BKN030 M02/M03 Q1017;
0122101624999992010011205504+53417+011783FM-15+0051EDOP V0201001N002610015019N0080001N1-00401-00501999999ADDGA1071+001501999GF107991999999999999999999MA1102101999999REMMET053METAR EDOP 120550Z 10005KT 8000 BKN005 M04/M05 Q1021;
0131101624999992010011206504+53417+011783FM-15+0051EDOP V0201001N002610015019N0045001N1-00401-00501999999ADDGA1071+001501999GF107991999999999999999999MA1102101999999MW1101REMMET056METAR EDOP 120650Z 10005KT 4500 BR BKN005 M04/M05 Q1021;
0131101624999992010011207204+53417+011783FM-15+0051EDOP V0200801N002110015019N0035001N1-00401-00501999999ADDGA1071+001501999GF107991999999999999999999MA1102101999999MW1101REMMET056METAR EDOP 120720Z 08004KT 3500 BR BKN005 M04/M05 Q1021;
0131101624999992010011207504+53417+011783FM-15+0051EDOP V0201101N002610012019N0035001N1-00401-00501999999ADDGA1071+001201999GF107991999999999999999999MA1102101999999MW1101REMMET056METAR EDOP 120750Z 11005KT 3500 BR BKN004 M04/M05 Q1021;
0131101624999992010011208204+53417+011783FM-15+0051EDOP V0201001N002610012019N0026001N1-00401-00501999999ADDGA1071+001201999GF107991999999999999999999MA1102101999999MW1101REMMET056METAR EDOP 120820Z 10005KT 2600 BR BKN004 M04/M05 Q1021;
0131101624999992010011208504+53417+011783FM-15+0051EDOP V0200901N003610015019N0030001N1-00401-00501999999ADDGA1071+001501999GF107991999999999999999999MA1102101999999MW1101REMMET056METAR EDOP 120850Z 09007KT 3000 BR BKN005 M04/M05 Q1021;
0131101624999992010011209204+53417+011783FM-15+0051EDOP V0201001N003110018019N0035001N1-00401-00501999999ADDGA1071+001801999GF107991999999999999999999MA1102201999999MW1101REMMET056METAR EDOP 120920Z 10006KT 3500 BR BKN006 M04/M05 Q1022;
0131101624999992010011209504+53417+011783FM-15+0051EDOP V0201101N003110018019N0040001N1-00401-00501999999ADDGA1071+001801999GF107991999999999999999999MA1102101999999MW1101REMMET056METAR EDOP 120950Z 11006KT 4000 BR BKN006 M04/M05 Q1021;
0131101624999992010011210204+53417+011783FM-15+0051EDOP V0201201N002110018019N0045001N1-00401-00501999999ADDGA1071+001801999GF107991999999999999999999MA1102101999999MW1101REMMET056METAR EDOP 121020Z 12004KT 4500 BR BKN006 M04/M05 Q1021;
0131101624999992010011210504+53417+011783FM-15+0051EDOP V0201001N002610021019N0050001N1-00301-00501999999ADDGA1071+002101999GF107991999999999999999999MA1102101999999MW1101REMMET056METAR EDOP 121050Z 10005KT 5000 BR BKN007 M03/M05 Q1021;
0131101624999992010011211204+53417+011783FM-15+0051EDOP V0201001N003110021019N0050001N1-00301-00501999999ADDGA1071+002101999GF107991999999999999999999MA1102101999999MW1101REMMET056METAR EDOP 121120Z 10006KT 5000 BR BKN007 M03/M05 Q1021;
0131101624999992010011211504+53417+011783FM-15+0051EDOP V0200901N003110021019N0050001N1-00301-00501999999ADDGA1071+002101999GF107991999999999999999999MA1102101999999MW1101REMMET056METAR EDOP 121150Z 09006KT 5000 BR BKN007 M03/M05 Q1021;
0131101624999992010011212204+53417+011783FM-15+0051EDOP V0200801N003110021019N0050001N1-00301-00501999999ADDGA1071+002101999GF107991999999999999999999MA1102001999999MW1101REMMET056METAR EDOP 121220Z 08006KT 5000 BR BKN007 M03/M05 Q1020;
0131101624999992010011212504+53417+011783FM-15+0051EDOP V0201001N002610027019N0050001N1-00301-00501999999ADDGA1071+002701999GF107991999999999999999999MA1102001999999MW1101REMMET056METAR EDOP 121250Z 10005KT 5000 BR BKN009 M03/M05 Q1020;
0154101624999992010011213204+53417+011783FM-15+0051EDOP V0201001N003110075019N0045001N1-00301-00501999999ADDGA1041+002401999GA2071+007501999GF107991999999999999999999MA1102001999999MW1101REMMET063METAR EDOP 121320Z 10006KT 4500 BR SCT008 BKN025 M03/M05 Q1020;
0145101624999992010011213504+53417+011783FM-15+0051EDOP V0201001N003110075019N0060001N1-00301-00501999999ADDGA1021+002401999GA2071+007501999GF107991999999999999999999MA1102001999999REMMET060METAR EDOP 121350Z 10006KT 6000 FEW008 BKN025 M03/M05 Q1020;
0145101624999992010011214204+53417+011783FM-15+0051EDOP V0201001N002610075019N0060001N1-00301-00501999999ADDGA1021+002701999GA2071+007501999GF107991999999999999999999MA1102001999999REMMET060METAR EDOP 121420Z 10005KT 6000 FEW009 BKN025 M03/M05 Q1020;
0145101624999992010011214504+53417+011783FM-15+0051EDOP V0200901N002110075019N0070001N1-00301-00601999999ADDGA1021+002401999GA2071+007501999GF107991999999999999999999MA1101901999999REMMET060METAR EDOP 121450Z 09004KT 7000 FEW008 BKN025 M03/M06 Q1019;
0122101624999992010011215204+53417+011783FM-15+0051EDOP V0200701N003110063019N0060001N1-00401-00601999999ADDGA1071+006301999GF107991999999999999999999MA1101901999999REMMET053METAR EDOP 121520Z 07006KT 6000 BKN021 M04/M06 Q1019;
0122101624999992010011215504+53417+011783FM-15+0051EDOP V0201001N003110075019N0070001N1-00401-00601999999ADDGA1071+007501999GF107991999999999999999999MA1101901999999REMMET053METAR EDOP 121550Z 10006KT 7000 BKN025 M04/M06 Q1019;
0145101624999992010011216204+53417+011783FM-15+0051EDOP V0200901N002612200019N0060001N1-00401-00501999999ADDGA1041+003001999GA2041+006601999GF104991999999999999999999MA1101901999999REMMET060METAR EDOP 121620Z 09005KT 6000 SCT010 SCT022 M04/M05 Q1019;
0145101624999992010011216504+53417+011783FM-15+0051EDOP V0200901N003110069019N0090001N1-00401-00501999999ADDGA1021+002401999GA2071+006901999GF107991999999999999999999MA1101901999999REMMET060METAR EDOP 121650Z 09006KT 9000 FEW008 BKN023 M04/M05 Q1019;
0145101624999992010011217204+53417+011783FM-15+0051EDOP V0200901N003610072019N0090001N1-00401-00501999999ADDGA1021+002401999GA2071+007201999GF107991999999999999999999MA1101901999999REMMET060METAR EDOP 121720Z 09007KT 9000 FEW008 BKN024 M04/M05 Q1019;
0145101624999992010011217504+53417+011783FM-15+0051EDOP V0201001N003610069019N0090001N1-00401-00501999999ADDGA1021+002701999GA2071+006901999GF107991999999999999999999MA1101901999999REMMET060METAR EDOP 121750Z 10007KT 9000 FEW009 BKN023 M04/M05 Q1019;
0145101624999992010011218204+53417+011783FM-15+0051EDOP V0200901N003610069019N0090001N1-00401-00501999999ADDGA1021+002401999GA2071+006901999GF107991999999999999999999MA1101901999999REMMET060METAR EDOP 121820Z 09007KT 9000 FEW008 BKN023 M04/M05 Q1019;
0145101624999992010011218504+53417+011783FM-15+0051EDOP V0200901N003110066019N0090001N1-00401-00501999999ADDGA1021+002101999GA2071+006601999GF107991999999999999999999MA1101901999999REMMET060METAR EDOP 121850Z 09006KT 9000 FEW007 BKN022 M04/M05 Q1019;
0145101624999992010011219204+53417+011783FM-15+0051EDOP V0200901N003110063019N0090001N1-00401-00501999999ADDGA1021+002101999GA2071+006301999GF107991999999999999999999MA1101901999999REMMET060METAR EDOP 121920Z 09006KT 9000 FEW007 BKN021 M04/M05 Q1019;
0145101624999992010011219504+53417+011783FM-15+0051EDOP V0200901N003610063019N0090001N1-00401-00501999999ADDGA1021+001801999GA2071+006301999GF107991999999999999999999MA1101801999999REMMET060METAR EDOP 121950Z 09007KT 9000 FEW006 BKN021 M04/M05 Q1018;
0145101624999992010011220204+53417+011783FM-15+0051EDOP V0200901N003610060019N0090001N1-00301-00501999999ADDGA1041+002401999GA2071+006001999GF107991999999999999999999MA1101801999999REMMET060METAR EDOP 122020Z 09007KT 9000 SCT008 BKN020 M03/M05 Q1018;
0145101624999992010011220504+53417+011783FM-15+0051EDOP V0200901N003610057019N0090001N1-00301-00501999999ADDGA1021+002401999GA2071+005701999GF107991999999999999999999MA1101801999999REMMET060METAR EDOP 122050Z 09007KT 9000 FEW008 BKN019 M03/M05 Q1018;
0122101624999992010011221204+53417+011783FM-15+0051EDOP V0200901N003610054019N0090001N1-00301-00501999999ADDGA1071+005401999GF107991999999999999999999MA1101801999999REMMET053METAR EDOP 122120Z 09007KT 9000 BKN018 M03/M05 Q1018;
0122101624999992010011221504+53417+011783FM-15+0051EDOP V0200901N003610054019N0090001N1-00301-00501999999ADDGA1071+005401999GF107991999999999999999999MA1101801999999REMMET053METAR EDOP 122150Z 09007KT 9000 BKN018 M03/M05 Q1018;
0122101624999992010011222204+53417+011783FM-15+0051EDOP V0200901N003610057019N0090001N1-00301-00501999999ADDGA1071+005701999GF107991999999999999999999MA1101801999999REMMET053METAR EDOP 122220Z 09007KT 9000 BKN019 M03/M05 Q1018;
0145101624999992010011222504+53417+011783FM-15+0051EDOP V0200801N004610057019N0090001N1-00301-00501999999ADDGA1021+002101999GA2071+005701999GF107991999999999999999999MA1101691999999REMMET060METAR EDOP 122250Z 08009KT 9000 FEW007 BKN019 M03/M05 Q1017;
0122101624999992010011223204+53417+011783FM-15+0051EDOP V0200801N005110051019N0090001N1-00301-00501999999ADDGA1071+005101999GF107991999999999999999999MA1101691999999REMMET053METAR EDOP 122320Z 08010KT 9000 BKN017 M03/M05 Q1017;
0122101624999992010011223504+53417+011783FM-15+0051EDOP V0200801N004610051019N0080001N1-00301-00501999999ADDGA1071+005101999GF107991999999999999999999MA1101691999999REMMET053METAR EDOP 122350Z 08009KT 8000 BKN017 M03/M05 Q1017;
0122101624999992010011300204+53417+011783FM-15+0051EDOP V0201001N003110048019N0080001N1-00301-00501999999ADDGA1071+004801999GF107991999999999999999999MA1101691999999REMMET053METAR EDOP 130020Z 10006KT 8000 BKN016 M03/M05 Q1017;
0122101624999992010011300504+53417+011783FM-15+0051EDOP V0200901N002610054019N0080001N1-00401-00501999999ADDGA1071+005401999GF107991999999999999999999MA1101691999999REMMET053METAR EDOP 130050Z 09005KT 8000 BKN018 M04/M05 Q1017;
0145101624999992010011301204+53417+011783FM-15+0051EDOP V0200701N003110105019N0080001N1-00401-00501999999ADDGA1021+002701999GA2071+010501999GF107991999999999999999999MA1101691999999REMMET060METAR EDOP 130120Z 07006KT 8000 FEW009 BKN035 M04/M05 Q1017;
0145101624999992010011301504+53417+011783FM-15+0051EDOP V0200701N004610093019N0070001N1-00401-00501999999ADDGA1021+002401999GA2071+009301999GF107991999999999999999999MA1101591999999REMMET060METAR EDOP 130150Z 07009KT 7000 FEW008 BKN031 M04/M05 Q1016;
0154101624999992010011302204+53417+011783FM-15+0051EDOP V0200801N004610096019N0050001N1-00301-00501999999ADDGA1021+002401999GA2071+009601999GF107991999999999999999999MA1101591999999MW1101REMMET063METAR EDOP 130220Z 08009KT 5000 BR FEW008 BKN032 M03/M05 Q1016;
0154101624999992010011302504+53417+011783FM-15+0051EDOP V0200801N005110078019N0050001N1-00301-00501999999ADDGA1021+002401999GA2071+007801999GF107991999999999999999999MA1101591999999MW1101REMMET063METAR EDOP 130250Z 08010KT 5000 BR FEW008 BKN026 M03/M05 Q1016;
0122101624999992010011303204+53417+011783FM-15+0051EDOP V0200801N004610069019N0070001N1-00301-00601999999ADDGA1071+006901999GF107991999999999999999999MA1101591999999REMMET053METAR EDOP 130320Z 08009KT 7000 BKN023 M03/M06 Q1016;
0122101624999992010011303504+53417+011783FM-15+0051EDOP V0200901N004610066019N0090001N1-00301-00601999999ADDGA1071+006601999GF107991999999999999999999MA1101491999999REMMET053METAR EDOP 130350Z 09009KT 9000 BKN022 M03/M06 Q1015;
0145101624999992010011304204+53417+011783FM-15+0051EDOP V0200801N005710105019N0090001N1-00301-00601999999ADDGA1041+007201999GA2071+010501999GF107991999999999999999999MA1101491999999REMMET060METAR EDOP 130420Z 08011KT 9000 SCT024 BKN035 M03/M06 Q1015;
0122101624999992010011304504+53417+011783FM-15+0051EDOP V0200901N005710102019N0090001N1-00301-00601999999ADDGA1071+010201999GF107991999999999999999999MA1101491999999REMMET053METAR EDOP 130450Z 09011KT 9000 BKN034 M03/M06 Q1015;
0145101624999992010011305204+53417+011783FM-15+0051EDOP V0200901N005712200019N0090001N1-00301-00601999999ADDGA1041+003301999GA2041+010501999GF104991999999999999999999MA1101491999999REMMET060METAR EDOP 130520Z 09011KT 9000 SCT011 SCT035 M03/M06 Q1015;
0122101624999992010011305504+53417+011783FM-15+0051EDOP V0200901N005710027019N0090001N1-00301-00501999999ADDGA1071+002701999GF107991999999999999999999MA1101491999999REMMET053METAR EDOP 130550Z 09011KT 9000 BKN009 M03/M05 Q1015;
0122101624999992010011306504+53417+011783FM-15+0051EDOP V0201001N007210021019N0080001N1-00301-00501999999ADDGA1071+002101999GF107991999999999999999999MA1101491999999REMMET053METAR EDOP 130650Z 10014KT 8000 BKN007 M03/M05 Q1015;
0122101624999992010011307204+53417+011783FM-15+0051EDOP V0201001N006210021019N0080001N1-00301-00501999999ADDGA1071+002101999GF107991999999999999999999MA1101491999999REMMET053METAR EDOP 130720Z 10012KT 8000 BKN007 M03/M05 Q1015;
0122101624999992010011307504+53417+011783FM-15+0051EDOP V0201101N006210021019N0070001N1-00301-00501999999ADDGA1071+002101999GF107991999999999999999999MA1101491999999REMMET053METAR EDOP 130750Z 11012KT 7000 BKN007 M03/M05 Q1015;
0122101624999992010011308204+53417+011783FM-15+0051EDOP V0201101N006210024019N0080001N1-00301-00501999999ADDGA1071+002401999GF107991999999999999999999MA1101491999999REMMET053METAR EDOP 130820Z 11012KT 8000 BKN008 M03/M05 Q1015;
0122101624999992010011308504+53417+011783FM-15+0051EDOP V0201101N007210021019N0070001N1-00301-00501999999ADDGA1071+002101999GF107991999999999999999999MA1101491999999REMMET053METAR EDOP 130850Z 11014KT 7000 BKN007 M03/M05 Q1015;
0122101624999992010011309204+53417+011783FM-15+0051EDOP V0201001N006210021019N0070001N1-00301-00501999999ADDGA1071+002101999GF107991999999999999999999MA1101491999999REMMET053METAR EDOP 130920Z 10012KT 7000 BKN007 M03/M05 Q1015;
0122101624999992010011309504+53417+011783FM-15+0051EDOP V0201101N008210024019N0070001N1-00301-00501999999ADDGA1071+002401999GF107991999999999999999999MA1101491999999REMMET053METAR EDOP 130950Z 11016KT 7000 BKN008 M03/M05 Q1015;
0122101624999992010011310204+53417+011783FM-15+0051EDOP V0201001N006210027019N0080001N1-00301-00501999999ADDGA1071+002701999GF107991999999999999999999MA1101491999999REMMET053METAR EDOP 131020Z 10012KT 8000 BKN009 M03/M05 Q1015;
0122101624999992010011310504+53417+011783FM-15+0051EDOP V0201001N005710027019N0080001N1-00301-00501999999ADDGA1071+002701999GF107991999999999999999999MA1101491999999REMMET053METAR EDOP 131050Z 10011KT 8000 BKN009 M03/M05 Q1015;
0122101624999992010011311204+53417+011783FM-15+0051EDOP V0201001N006710030019N0080001N1-00301-00501999999ADDGA1071+003001999GF107991999999999999999999MA1101491999999REMMET053METAR EDOP 131120Z 10013KT 8000 BKN010 M03/M05 Q1015;
0122101624999992010011311504+53417+011783FM-15+0051EDOP V0201101N006210033019N0090001N1-00201-00501999999ADDGA1071+003301999GF107991999999999999999999MA1101391999999REMMET053METAR EDOP 131150Z 11012KT 9000 BKN011 M02/M05 Q1014;
0122101624999992010011312204+53417+011783FM-15+0051EDOP V0201101N005710033019N0090001N1-00201-00501999999ADDGA1071+003301999GF107991999999999999999999MA1101391999999REMMET053METAR EDOP 131220Z 11011KT 9000 BKN011 M02/M05 Q1014;
0122101624999992010011312504+53417+011783FM-15+0051EDOP V0201201N005710033019N0090001N1-00201-00501999999ADDGA1071+003301999GF107991999999999999999999MA1101391999999REMMET053METAR EDOP 131250Z 12011KT 9000 BKN011 M02/M05 Q1014;
0122101624999992010011313204+53417+011783FM-15+0051EDOP V0201101N006710033019N0080001N1-00201-00501999999ADDGA1071+003301999GF107991999999999999999999MA1101391999999REMMET053METAR EDOP 131320Z 11013KT 8000 BKN011 M02/M05 Q1014;
0130101624999992010011313504+53417+011783FM-15+0051EDOP V0201101N006710033019N0090001N1-00201-00501999999ADDGA1071+003301999GF107991999999999999999999MA1101391999999REMMET061METAR EDOP 131350Z 11013KT 080V140 9000 BKN011 M02/M05 Q1014;
0122101624999992010011314204+53417+011783FM-15+0051EDOP V0201101N006710033019N0080001N1-00201-00501999999ADDGA1071+003301999GF107991999999999999999999MA1101291999999REMMET053METAR EDOP 131420Z 11013KT 8000 BKN011 M02/M05 Q1013;
0122101624999992010011314504+53417+011783FM-15+0051EDOP V0201101N006710033019N0080001N1-00201-00501999999ADDGA1071+003301999GF107991999999999999999999MA1101291999999REMMET053METAR EDOP 131450Z 11013KT 8000 BKN011 M02/M05 Q1013;
0130101624999992010011315204+53417+011783FM-15+0051EDOP V0201201N006710033019N0080001N1-00201-00501999999ADDGA1071+003301999GF107991999999999999999999MA1101291999999REMMET061METAR EDOP 131520Z 12013KT 080V140 8000 BKN011 M02/M05 Q1013;
0122101624999992010011315504+53417+011783FM-15+0051EDOP V0201201N005710033019N0080001N1-00201-00401999999ADDGA1071+003301999GF107991999999999999999999MA1101291999999REMMET053METAR EDOP 131550Z 12011KT 8000 BKN011 M02/M04 Q1013;
0122101624999992010011316204+53417+011783FM-15+0051EDOP V0201101N006710030019N0112651N1-00201-00501999999ADDGA1071+003001999GF107991999999999999999999MA1101291999999REMMET053METAR EDOP 131620Z 11013KT 9999 BKN010 M02/M05 Q1013;
0122101624999992010011316504+53417+011783FM-15+0051EDOP V0201101N005710033019N0112651N1-00201-00401999999ADDGA1071+003301999GF107991999999999999999999MA1101291999999REMMET053METAR EDOP 131650Z 11011KT 9999 BKN011 M02/M04 Q1013;
0122101624999992010011405204+53417+011783FM-15+0051EDOP V0201001N005710024019N0080001N1-00301-00401999999ADDGA1071+002401999GF107991999999999999999999MA1101291999999REMMET053METAR EDOP 140520Z 10011KT 8000 BKN008 M03/M04 Q1013;
0122101624999992010011405504+53417+011783FM-15+0051EDOP V0201001N006210024019N0080001N1-00301-00401999999ADDGA1071+002401999GF107991999999999999999999MA1101291999999REMMET053METAR EDOP 140550Z 10012KT 8000 BKN008 M03/M04 Q1013;
0122101624999992010011406504+53417+011783FM-15+0051EDOP V0201001N005110021019N0080001N1-00301-00401999999ADDGA1071+002101999GF107991999999999999999999MA1101291999999REMMET053METAR EDOP 140650Z 10010KT 8000 BKN007 M03/M04 Q1013;
0122101624999992010011407204+53417+011783FM-15+0051EDOP V0201001N005110021019N0070001N1-00301-00401999999ADDGA1071+002101999GF107991999999999999999999MA1101291999999REMMET053METAR EDOP 140720Z 10010KT 7000 BKN007 M03/M04 Q1013;
0122101624999992010011407504+53417+011783FM-15+0051EDOP V0200901N005110021019N0070001N1-00301-00401999999ADDGA1071+002101999GF107991999999999999999999MA1101391999999REMMET053METAR EDOP 140750Z 09010KT 7000 BKN007 M03/M04 Q1014;
0130101624999992010011408204+53417+011783FM-15+0051EDOP V0200901N004610021019N0070001N1-00201-00401999999ADDGA1071+002101999GF107991999999999999999999MA1101391999999REMMET061METAR EDOP 140820Z 09009KT 060V160 7000 BKN007 M02/M04 Q1014;
0122101624999992010011408504+53417+011783FM-15+0051EDOP V0200901N005110024019N0070001N1-00201-00401999999ADDGA1071+002401999GF107991999999999999999999MA1101391999999REMMET053METAR EDOP 140850Z 09010KT 7000 BKN008 M02/M04 Q1014;
0122101624999992010011409204+53417+011783FM-15+0051EDOP V0200901N004610024019N0080001N1-00201-00401999999ADDGA1071+002401999GF107991999999999999999999MA1101391999999REMMET053METAR EDOP 140920Z 09009KT 8000 BKN008 M02/M04 Q1014;
0122101624999992010011409504+53417+011783FM-15+0051EDOP V0201001N004610024019N0080001N1-00201-00401999999ADDGA1071+002401999GF107991999999999999999999MA1101391999999REMMET053METAR EDOP 140950Z 10009KT 8000 BKN008 M02/M04 Q1014;
0122101624999992010011410204+53417+011783FM-15+0051EDOP V0201001N005110024019N0080001N1-00201-00401999999ADDGA1071+002401999GF107991999999999999999999MA1101391999999REMMET053METAR EDOP 141020Z 10010KT 8000 BKN008 M02/M04 Q1014;
0122101624999992010011410504+53417+011783FM-15+0051EDOP V0201001N004610024019N0080001N1-00201-00401999999ADDGA1071+002401999GF107991999999999999999999MA1101391999999REMMET053METAR EDOP 141050Z 10009KT 8000 BKN008 M02/M04 Q1014;
0122101624999992010011411204+53417+011783FM-15+0051EDOP V0201001N004110027019N0080001N1-00201-00401999999ADDGA1071+002701999GF107991999999999999999999MA1101391999999REMMET053METAR EDOP 141120Z 10008KT 8000 BKN009 M02/M04 Q1014;
0122101624999992010011411504+53417+011783FM-15+0051EDOP V0200901N004610027019N0080001N1-00201-00401999999ADDGA1071+002701999GF107991999999999999999999MA1101391999999REMMET053METAR EDOP 141150Z 09009KT 8000 BKN009 M02/M04 Q1014;
0122101624999992010011412204+53417+011783FM-15+0051EDOP V0200901N004610030019N0080001N1-00201-00401999999ADDGA1071+003001999GF107991999999999999999999MA1101391999999REMMET053METAR EDOP 141220Z 09009KT 8000 BKN010 M02/M04 Q1014;
0122101624999992010011412504+53417+011783FM-15+0051EDOP V0201101N005110030019N0080001N1-00201-00401999999ADDGA1071+003001999GF107991999999999999999999MA1101391999999REMMET053METAR EDOP 141250Z 11010KT 8000 BKN010 M02/M04 Q1014;
0122101624999992010011413204+53417+011783FM-15+0051EDOP V0201101N004610033019N0080001N1-00201-00401999999ADDGA1071+003301999GF107991999999999999999999MA1101391999999REMMET053METAR EDOP 141320Z 11009KT 8000 BKN011 M02/M04 Q1014;
0122101624999992010011413504+53417+011783FM-15+0051EDOP V0201101N005110033019N0080001N1-00201-00501999999ADDGA1071+003301999GF107991999999999999999999MA1101391999999REMMET053METAR EDOP 141350Z 11010KT 8000 BKN011 M02/M05 Q1014;
0122101624999992010011414204+53417+011783FM-15+0051EDOP V0201101N006210033019N0080001N1-00201-00501999999ADDGA1071+003301999GF107991999999999999999999MA1101391999999REMMET053METAR EDOP 141420Z 11012KT 8000 BKN011 M02/M05 Q1014;
0130101624999992010011414504+53417+011783FM-15+0051EDOP V0201301N004610030019N0080001N1-00201-00501999999ADDGA1071+003001999GF107991999999999999999999MA1101391999999REMMET061METAR EDOP 141450Z 13009KT 100V160 8000 BKN010 M02/M05 Q1014;
0130101624999992010011415204+53417+011783FM-15+0051EDOP V0201201N004110030019N0080001N1-00201-00501999999ADDGA1071+003001999GF107991999999999999999999MA1101491999999REMMET061METAR EDOP 141520Z 12008KT 100V160 8000 BKN010 M02/M05 Q1015;
0122101624999992010011415504+53417+011783FM-15+0051EDOP V0201001N003610027019N0070001N1-00201-00501999999ADDGA1071+002701999GF107991999999999999999999MA1101491999999REMMET053METAR EDOP 141550Z 10007KT 7000 BKN009 M02/M05 Q1015;
0122101624999992010011416204+53417+011783FM-15+0051EDOP V0200901N006210018019N0070001N1-00301-00501999999ADDGA1071+001801999GF107991999999999999999999MA1101491999999REMMET053METAR EDOP 141620Z 09012KT 7000 BKN006 M03/M05 Q1015;
0122101624999992010011416504+53417+011783FM-15+0051EDOP V0200901N004610021019N0070001N1-00301-00501999999ADDGA1071+002101999GF107991999999999999999999MA1101491999999REMMET053METAR EDOP 141650Z 09009KT 7000 BKN007 M03/M05 Q1015;
0122101624999992010011505504+53417+011783FM-15+0051EDOP V0201001N004610060019N0060001N1-00501-00801999999ADDGA1071+006001999GF107991999999999999999999MA1102201999999REMMET053METAR EDOP 150550Z 10009KT 6000 BKN020 M05/M08 Q1022;
0122101624999992010011506504+53417+011783FM-15+0051EDOP V0201001N004610060019N0060001N1-00501-00801999999ADDGA1071+006001999GF107991999999999999999999MA1102201999999REMMET053METAR EDOP 150650Z 10009KT 6000 BKN020 M05/M08 Q1022;
0122101624999992010011507204+53417+011783FM-15+0051EDOP V0201001N004610060019N0050001N1-00501-00801999999ADDGA1071+006001999GF107991999999999999999999MA1102301999999REMMET053METAR EDOP 150720Z 10009KT 5000 BKN020 M05/M08 Q1023;
0122101624999992010011507504+53417+011783FM-15+0051EDOP V0201001N004610063019N0050001N1-00501-00801999999ADDGA1071+006301999GF107991999999999999999999MA1102301999999REMMET053METAR EDOP 150750Z 10009KT 5000 BKN021 M05/M08 Q1023;
0122101624999992010011508204+53417+011783FM-15+0051EDOP V0201001N004610072019N0050001N1-00501-00701999999ADDGA1071+007201999GF107991999999999999999999MA1102301999999REMMET053METAR EDOP 150820Z 10009KT 5000 BKN024 M05/M07 Q1023;
0122101624999992010011508504+53417+011783FM-15+0051EDOP V0201001N004610075019N0050001N1-00501-00701999999ADDGA1071+007501999GF107991999999999999999999MA1102401999999REMMET053METAR EDOP 150850Z 10009KT 5000 BKN025 M05/M07 Q1024;
0122101624999992010011509204+53417+011783FM-15+0051EDOP V0201001N004610078019N0050001N1-00501-00701999999ADDGA1071+007801999GF107991999999999999999999MA1102401999999REMMET053METAR EDOP 150920Z 10009KT 5000 BKN026 M05/M07 Q1024;
0122101624999992010011509504+53417+011783FM-15+0051EDOP V0201001N004610081019N0050001N1-00401-00701999999ADDGA1071+008101999GF107991999999999999999999MA1102401999999REMMET053METAR EDOP 150950Z 10009KT 5000 BKN027 M04/M07 Q1024;
0122101624999992010011510204+53417+011783FM-15+0051EDOP V0201101N004110084019N0050001N1-00401-00701999999ADDGA1071+008401999GF107991999999999999999999MA1102511999999REMMET053METAR EDOP 151020Z 11008KT 5000 BKN028 M04/M07 Q1025;
0122101624999992010011510504+53417+011783FM-15+0051EDOP V0201101N003610090019N0050001N1-00401-00601999999ADDGA1071+009001999GF107991999999999999999999MA1102511999999REMMET053METAR EDOP 151050Z 11007KT 5000 BKN030 M04/M06 Q1025;
0131101624999992010011511204+53417+011783FM-15+0051EDOP V0201001N003610090019N0040001N1-00301-00601999999ADDGA1071+009001999GF107991999999999999999999MA1102511999999MW1101REMMET056METAR EDOP 151120Z 10007KT 4000 BR BKN030 M03/M06 Q1025;
0139101624999992010011511504+53417+011783FM-15+0051EDOP V0201101N003110090019N0036001N1-00301-00601999999ADDGA1071+009001999GF107991999999999999999999MA1102511999999MW1101REMMET064METAR EDOP 151150Z 11006KT 070V130 3600 BR BKN030 M03/M06 Q1025;
0162101624999992010011512204+53417+011783FM-15+0051EDOP V0201001N002110090019N0038001N1-00301-00601999999ADDGA1041+003301999GA2071+009001999GF107991999999999999999999MA1102511999999MW1101REMMET071METAR EDOP 151220Z 10004KT 060V130 3800 BR SCT011 BKN030 M03/M06 Q1025;
0154101624999992010011512504+53417+011783FM-15+0051EDOP V0201101N003110090019N0040001N1-00301-00501999999ADDGA1041+003001999GA2071+009001999GF107991999999999999999999MA1102511999999MW1101REMMET063METAR EDOP 151250Z 11006KT 4000 BR SCT010 BKN030 M03/M05 Q1025;
0131101624999992010011513204+53417+011783FM-15+0051EDOP V0201201N003610090019N0040001N1-00301-00501999999ADDGA1071+009001999GF107991999999999999999999MA1102611999999MW1101REMMET056METAR EDOP 151320Z 12007KT 4000 BR BKN030 M03/M05 Q1026;
0131101624999992010011513504+53417+011783FM-15+0051EDOP V0201101N003110084019N0036001N1-00301-00501999999ADDGA1071+008401999GF107991999999999999999999MA1102611999999MW1101REMMET056METAR EDOP 151350Z 11006KT 3600 BR BKN028 M03/M05 Q1026;
0154101624999992010011514204+53417+011783FM-15+0051EDOP V0201101N003110084019N0036001N1-00301-00501999999ADDGA1021+003601999GA2071+008401999GF107991999999999999999999MA1102611999999MW1101REMMET063METAR EDOP 151420Z 11006KT 3600 BR FEW012 BKN028 M03/M05 Q1026;
0131101624999992010011514504+53417+011783FM-15+0051EDOP V0201101N002610081019N0038001N1-00301-00501999999ADDGA1071+008101999GF107991999999999999999999MA1102611999999MW1101REMMET056METAR EDOP 151450Z 11005KT 3800 BR BKN027 M03/M05 Q1026;
0131101624999992010011515204+53417+011783FM-15+0051EDOP V0201201N002610081019N0036001N1-00301-00501999999ADDGA1071+008101999GF107991999999999999999999MA1102711999999MW1101REMMET056METAR EDOP 151520Z 12005KT 3600 BR BKN027 M03/M05 Q1027;
0131101624999992010011515504+53417+011783FM-15+0051EDOP V0201101N002610078019N0030001N1-00301-00501999999ADDGA1071+007801999GF107991999999999999999999MA1102711999999MW1101REMMET056METAR EDOP 151550Z 11005KT 3000 BR BKN026 M03/M05 Q1027;
0131101624999992010011516204+53417+011783FM-15+0051EDOP V0201001N003110039019N0025001N1-00301-00501999999ADDGA1071+003901999GF107991999999999999999999MA1102711999999MW1101REMMET056METAR EDOP 151620Z 10006KT 2500 BR BKN013 M03/M05 Q1027;
0131101624999992010011516504+53417+011783FM-15+0051EDOP V0201001N003610039019N0025001N1-00301-00501999999ADDGA1071+003901999GF107991999999999999999999MA1102711999999MW1101REMMET056METAR EDOP 151650Z 10007KT 2500 BR BKN013 M03/M05 Q1027;
0131101624999992010011606504+53417+011783FM-15+0051EDOP V0201101N004110027019N0045001N1-00301-00501999999ADDGA1071+002701999GF107991999999999999999999MA1102711999999MW1101REMMET056METAR EDOP 160650Z 11008KT 4500 BR BKN009 M03/M05 Q1027;
0162101624999992010011607204+53417+011783FM-15+0051EDOP V0201101N004110072019N0035001N1-00301-00501999999ADDGA1041+002701999GA2071+007201999GF107991999999999999999999MA1102711999999MW1101REMMET071METAR EDOP 160720Z 11008KT 080V140 3500 BR SCT009 BKN024 M03/M05 Q1027;
0154101624999992010011607504+53417+011783FM-15+0051EDOP V0201101N004610072019N0035001N1-00301-00501999999ADDGA1041+003001999GA2071+007201999GF107991999999999999999999MA1102711999999MW1101REMMET063METAR EDOP 160750Z 11009KT 3500 BR SCT010 BKN024 M03/M05 Q1027;
0154101624999992010011608204+53417+011783FM-15+0051EDOP V0201101N004610072019N0035001N1-00201-00501999999ADDGA1021+003001999GA2071+007201999GF107991999999999999999999MA1102711999999MW1101REMMET063METAR EDOP 160820Z 11009KT 3500 BR FEW010 BKN024 M02/M05 Q1027;
0131101624999992010011608504+53417+011783FM-15+0051EDOP V0201001N005110069019N0036001N1-00201-00501999999ADDGA1071+006901999GF107991999999999999999999MA1102711999999MW1101REMMET056METAR EDOP 160850Z 10010KT 3600 BR BKN023 M02/M05 Q1027;
0131101624999992010011609204+53417+011783FM-15+0051EDOP V0201101N005710108019N0036001N1-00201-00501999999ADDGA1071+010801999GF107991999999999999999999MA1102711999999MW1101REMMET056METAR EDOP 160920Z 11011KT 3600 BR BKN036 M02/M05 Q1027;
0131101624999992010011609504+53417+011783FM-15+0051EDOP V0201101N005710072019N0040001N1-00201-00501999999ADDGA1071+007201999GF107991999999999999999999MA1102711999999MW1101REMMET056METAR EDOP 160950Z 11011KT 4000 BR BKN024 M02/M05 Q1027;
0131101624999992010011610204+53417+011783FM-15+0051EDOP V0201001N005110072019N0040001N1-00201-00501999999ADDGA1071+007201999GF107991999999999999999999MA1102711999999MW1101REMMET056METAR EDOP 161020Z 10010KT 4000 BR BKN024 M02/M05 Q1027;
0131101624999992010011610504+53417+011783FM-15+0051EDOP V0200901N005110072019N0045001N1-00201-00501999999ADDGA1071+007201999GF107991999999999999999999MA1102611999999MW1101REMMET056METAR EDOP 161050Z 09010KT 4500 BR BKN024 M02/M05 Q1026;
0154101624999992010011611204+53417+011783FM-15+0051EDOP V0200901N006710069019N0050001N1-00201-00501999999ADDGA1021+003901999GA2071+006901999GF107991999999999999999999MA1102611999999MW1101REMMET063METAR EDOP 161120Z 09013KT 5000 BR FEW013 BKN023 M02/M05 Q1026;
0131101624999992010011611504+53417+011783FM-15+0051EDOP V0201001N006210069019N0050001N1-00201-00501999999ADDGA1071+006901999GF107991999999999999999999MA1102511999999MW1101REMMET056METAR EDOP 161150Z 10012KT 5000 BR BKN023 M02/M05 Q1025;
0131101624999992010011612204+53417+011783FM-15+0051EDOP V0201001N007210066019N0050001N1-00201-00501999999ADDGA1071+006601999GF107991999999999999999999MA1102511999999MW1101REMMET056METAR EDOP 161220Z 10014KT 5000 BR BKN022 M02/M05 Q1025;
0131101624999992010011612504+53417+011783FM-15+0051EDOP V0201101N006710063019N0050001N1-00201-00501999999ADDGA1071+006301999GF107991999999999999999999MA1102401999999MW1101REMMET056METAR EDOP 161250Z 11013KT 5000 BR BKN021 M02/M05 Q1024;
0131101624999992010011613204+53417+011783FM-15+0051EDOP V0201001N006210063019N0050001N1-00201-00501999999ADDGA1071+006301999GF107991999999999999999999MA1102401999999MW1101REMMET056METAR EDOP 161320Z 10012KT 5000 BR BKN021 M02/M05 Q1024;
0122101624999992010011613504+53417+011783FM-15+0051EDOP V0201101N005710054019N0060001N1-00201-00501999999ADDGA1071+005401999GF107991999999999999999999MA1102401999999REMMET053METAR EDOP 161350Z 11011KT 6000 BKN018 M02/M05 Q1024;
0122101624999992010011614204+53417+011783FM-15+0051EDOP V0201101N005712200019N0060001N1-00201-00601999999ADDGA1041+005401999GF104991999999999999999999MA1102301999999REMMET053METAR EDOP 161420Z 11011KT 6000 SCT018 M02/M06 Q1023;
0130101624999992010011614504+53417+011783FM-15+0051EDOP V0201101N005110051019N0060001N1-00201-00601999999ADDGA1071+005101999GF107991999999999999999999MA1102301999999REMMET061METAR EDOP 161450Z 11010KT 080V140 6000 BKN017 M02/M06 Q1023;
0122101624999992010011615204+53417+011783FM-15+0051EDOP V0201001N006710051019N0060001N1-00201-00601999999ADDGA1071+005101999GF107991999999999999999999MA1102201999999REMMET053METAR EDOP 161520Z 10013KT 6000 BKN017 M02/M06 Q1022;
0130101624999992010011615504+53417+011783FM-15+0051EDOP V0201101N005710051019N0060001N1-00201-00601999999ADDGA1071+005101999GF107991999999999999999999MA1102201999999REMMET061METAR EDOP 161550Z 11011KT 080V140 6000 BKN017 M02/M06 Q1022;
0122101624999992010011616204+53417+011783FM-15+0051EDOP V0201101N006210051019N0060001N1-00201-00601999999ADDGA1071+005101999GF107991999999999999999999MA1102101999999REMMET053METAR EDOP 161620Z 11012KT 6000 BKN017 M02/M06 Q1021;
0122101624999992010011616504+53417+011783FM-15+0051EDOP V0201101N007210048019N0060001N1-00201-00601999999ADDGA1071+004801999GF107991999999999999999999MA1102101999999REMMET053METAR EDOP 161650Z 11014KT 6000 BKN016 M02/M06 Q1021;
0122101624999992010011617204+53417+011783FM-15+0051EDOP V0201101N006710048019N0060001N1-00201-00601999999ADDGA1071+004801999GF107991999999999999999999MA1102101999999REMMET053METAR EDOP 161720Z 11013KT 6000 BKN016 M02/M06 Q1021;
0122101624999992010011617504+53417+011783FM-15+0051EDOP V0201101N006710042019N0060001N1-00301-00601999999ADDGA1071+004201999GF107991999999999999999999MA1102001999999REMMET053METAR EDOP 161750Z 11013KT 6000 BKN014 M03/M06 Q1020;
0122101624999992010011618204+53417+011783FM-15+0051EDOP V0201101N006710042019N0060001N1-00301-00601999999ADDGA1071+004201999GF107991999999999999999999MA1102001999999REMMET053METAR EDOP 161820Z 11013KT 6000 BKN014 M03/M06 Q1020;
0122101624999992010011618504+53417+011783FM-15+0051EDOP V0201101N006210039019N0060001N1-00301-00601999999ADDGA1071+003901999GF107991999999999999999999MA1102001999999REMMET053METAR EDOP 161850Z 11012KT 6000 BKN013 M03/M06 Q1020;
0122101624999992010011619204+53417+011783FM-15+0051EDOP V0201101N005710039019N0060001N1-00301-00601999999ADDGA1071+003901999GF107991999999999999999999MA1101901999999REMMET053METAR EDOP 161920Z 11011KT 6000 BKN013 M03/M06 Q1019;
0122101624999992010011619504+53417+011783FM-15+0051EDOP V0201101N005710039019N0060001N1-00301-00601999999ADDGA1071+003901999GF107991999999999999999999MA1101901999999REMMET053METAR EDOP 161950Z 11011KT 6000 BKN013 M03/M06 Q1019;
0122101624999992010011620204+53417+011783FM-15+0051EDOP V0201101N005710039019N0060001N1-00301-00601999999ADDGA1071+003901999GF107991999999999999999999MA1101801999999REMMET053METAR EDOP 162020Z 11011KT 6000 BKN013 M03/M06 Q1018;
0122101624999992010011620504+53417+011783FM-15+0051EDOP V0201201N005710039019N0060001N1-00301-00601999999ADDGA1071+003901999GF107991999999999999999999MA1101801999999REMMET053METAR EDOP 162050Z 12011KT 6000 BKN013 M03/M06 Q1018;
0122101624999992010011621204+53417+011783FM-15+0051EDOP V0201101N005710039019N0060001N1-00301-00601999999ADDGA1071+003901999GF107991999999999999999999MA1101691999999REMMET053METAR EDOP 162120Z 11011KT 6000 BKN013 M03/M06 Q1017;
0122101624999992010011621504+53417+011783FM-15+0051EDOP V0201001N006710039019N0060001N1-00301-00601999999ADDGA1071+003901999GF107991999999999999999999MA1101591999999REMMET053METAR EDOP 162150Z 10013KT 6000 BKN013 M03/M06 Q1016;
0122101624999992010011622204+53417+011783FM-15+0051EDOP V0201101N006210039019N0060001N1-00301-00601999999ADDGA1071+003901999GF107991999999999999999999MA1101591999999REMMET053METAR EDOP 162220Z 11012KT 6000 BKN013 M03/M06 Q1016;
0122101624999992010011622504+53417+011783FM-15+0051EDOP V0201201N005710039019N0060001N1-00301-00601999999ADDGA1071+003901999GF107991999999999999999999MA1101591999999REMMET053METAR EDOP 162250Z 12011KT 6000 BKN013 M03/M06 Q1016;
0122101624999992010011623204+53417+011783FM-15+0051EDOP V0201101N004610036019N0060001N1-00301-00601999999ADDGA1071+003601999GF107991999999999999999999MA1101591999999REMMET053METAR EDOP 162320Z 11009KT 6000 BKN012 M03/M06 Q1016;
0122101624999992010011623504+53417+011783FM-15+0051EDOP V0201101N005710036019N0060001N1-00301-00501999999ADDGA1071+003601999GF107991999999999999999999MA1101491999999REMMET053METAR EDOP 162350Z 11011KT 6000 BKN012 M03/M05 Q1015;
0122101624999992010011700204+53417+011783FM-15+0051EDOP V0201001N006710036019N0060001N1-00301-00501999999ADDGA1071+003601999GF107991999999999999999999MA1101391999999REMMET053METAR EDOP 170020Z 10013KT 6000 BKN012 M03/M05 Q1014;
0122101624999992010011700504+53417+011783FM-15+0051EDOP V0201101N005110036019N0060001N1-00301-00501999999ADDGA1071+003601999GF107991999999999999999999MA1101391999999REMMET053METAR EDOP 170050Z 11010KT 6000 BKN012 M03/M05 Q1014;
0122101624999992010011701204+53417+011783FM-15+0051EDOP V0201201N006210033019N0060001N1-00301-00501999999ADDGA1071+003301999GF107991999999999999999999MA1101391999999REMMET053METAR EDOP 170120Z 12012KT 6000 BKN011 M03/M05 Q1014;
0130101624999992010011701504+53417+011783FM-15+0051EDOP V0201201N005110033019N0060001N1-00301-00501999999ADDGA1071+003301999GF107991999999999999999999MA1101391999999REMMET061METAR EDOP 170150Z 12010KT 080V140 6000 BKN011 M03/M05 Q1014;
0130101624999992010011702204+53417+011783FM-15+0051EDOP V0201201N005110033019N0060001N1-00301-00501999999ADDGA1071+003301999GF107991999999999999999999MA1101391999999REMMET061METAR EDOP 170220Z 12010KT 080V140 6000 BKN011 M03/M05 Q1014;
0130101624999992010011702504+53417+011783FM-15+0051EDOP V0201101N005710033019N0060001N1-00301-00501999999ADDGA1071+003301999GF107991999999999999999999MA1101291999999REMMET061METAR EDOP 170250Z 11011KT 080V140 6000 BKN011 M03/M05 Q1013;
0130101624999992010011703204+53417+011783FM-15+0051EDOP V0201201N005710033019N0060001N1-00301-00601999999ADDGA1071+003301999GF107991999999999999999999MA1101291999999REMMET061METAR EDOP 170320Z 12011KT 070V140 6000 BKN011 M03/M06 Q1013;
0130101624999992010011703504+53417+011783FM-15+0051EDOP V0201201N005710036019N0060001N1-00301-00601999999ADDGA1071+003601999GF107991999999999999999999MA1101291999999REMMET061METAR EDOP 170350Z 12011KT 090V160 6000 BKN012 M03/M06 Q1013;
0130101624999992010011704204+53417+011783FM-15+0051EDOP V0201101N005710036019N0060001N1-00301-00601999999ADDGA1071+003601999GF107991999999999999999999MA1101191999999REMMET061METAR EDOP 170420Z 11011KT 080V140 6000 BKN012 M03/M06 Q1012;
0139101624999992010011704504+53417+011783FM-15+0051EDOP V0201201N005710036019N0050001N1-00301-00601999999ADDGA1071+003601999GF107991999999999999999999MA1101191999999MW1101REMMET064METAR EDOP 170450Z 12011KT 090V150 5000 BR BKN012 M03/M06 Q1012;
0139101624999992010011705204+53417+011783FM-15+0051EDOP V0201201N004610036019N0050001N1-00301-00601999999ADDGA1071+003601999GF107991999999999999999999MA1101191999999MW1101REMMET064METAR EDOP 170520Z 12009KT 090V160 5000 BR BKN012 M03/M06 Q1012;
0139101624999992010011705504+53417+011783FM-15+0051EDOP V0201101N004610036019N0050001N1-00301-00601999999ADDGA1071+003601999GF107991999999999999999999MA1101191999999MW1101REMMET064METAR EDOP 170550Z 11009KT 080V140 5000 BR BKN012 M03/M06 Q1012;
0122101624999992010011706204+53417+011783FM-15+0051EDOP V0201201N005110033019N0060001N1-00301-00601999999ADDGA1071+003301999GF107991999999999999999999MA1101081999999REMMET053METAR EDOP 170620Z 12010KT 6000 BKN011 M03/M06 Q1011;
0122101624999992010011706504+53417+011783FM-15+0051EDOP V0201101N005110033019N0050001N1-00301-00601999999ADDGA1071+003301999GF107991999999999999999999MA1101081999999REMMET053METAR EDOP 170650Z 11010KT 5000 BKN011 M03/M06 Q1011;
0130101624999992010011707204+53417+011783FM-15+0051EDOP V0201101N004610036019N0050001N1-00301-00601999999ADDGA1071+003601999GF107991999999999999999999MA1101191999999REMMET061METAR EDOP 170720Z 11009KT 080V140 5000 BKN012 M03/M06 Q1012;
0122101624999992010011707504+53417+011783FM-15+0051EDOP V0201101N005110036019N0060001N1-00301-00601999999ADDGA1071+003601999GF107991999999999999999999MA1101081999999REMMET053METAR EDOP 170750Z 11010KT 6000 BKN012 M03/M06 Q1011;
0122101624999992010011708204+53417+011783FM-15+0051EDOP V0201101N005710036019N0060001N1-00301-00601999999ADDGA1071+003601999GF107991999999999999999999MA1101081999999REMMET053METAR EDOP 170820Z 11011KT 6000 BKN012 M03/M06 Q1011;
0155101624999992010011708504+53417+011783FM-15+0051EDOP V0201101N005710033019N0040001N1-00301-00501999999ADDGA1021+001801999GA2071+003301999GF107991999999999999999999MA1101081999999MW1711REMMET064METAR EDOP 170850Z 11011KT 4000 -SN FEW006 BKN011 M03/M05 Q1011;
0132101624999992010011709204+53417+011783FM-15+0051EDOP V0201101N006210030019N0025001N1-00301-00501999999ADDGA1071+003001999GF107991999999999999999999MA1101081999999MW1711REMMET057METAR EDOP 170920Z 11012KT 2500 -SN BKN010 M03/M05 Q1011;
