0122101624999992008010206204+53417+011783FM-15+0051EDOP V0200901N004112200019N0112651N1+00001-00301999999ADDGA1041+007501999GF104991999999999999999999MA1102811999999REMMET053METAR EDOP 020620Z 09008KT 9999 SCT025 M00/M03 Q1028;
0122101624999992008010206504+53417+011783FM-15+0051EDOP V0200801N003112200019N0112651N1+00001-00301999999ADDGA1041+012001999GF104991999999999999999999MA1102811999999REMMET053METAR EDOP 020650Z 08006KT 9999 SCT040 M00/M03 Q1028;
0122101624999992008010207204+53417+011783FM-15+0051EDOP V0200901N003110126019N0112651N1+00001-00201999999ADDGA1071+012601999GF107991999999999999999999MA1102811999999REMMET053METAR EDOP 020720Z 09006KT 9999 BKN042 M00/M02 Q1028;
0145101624999992008010207504+53417+011783FM-15+0051EDOP V0200901N003110120019N0112651N1+00001-00201999999ADDGA1021+003601999GA2071+012001999GF107991999999999999999999MA1102811999999REMMET060METAR EDOP 020750Z 09006KT 9999 FEW012 BKN040 M00/M02 Q1028;
0121101624999992008010208204+53417+011783FM-15+0051EDOP V0200901N003610030019N0112651N1+00001-00201999999ADDGA1071+003001999GF107991999999999999999999MA1102811999999REMMET052METAR EDOP 020820Z 09007KT 9999 BKN010 00/M02 Q1028;
0121101624999992008010208504+53417+011783FM-15+0051EDOP V0200901N003110030019N0112651N1+00001-00201999999ADDGA1071+003001999GF107991999999999999999999MA1102811999999REMMET052METAR EDOP 020850Z 09006KT 9999 BKN010 00/M02 Q1028;
0131101624999992008010209504+53417+011783FM-15+0051EDOP V0200901N004610030019N0050001N1+00001-00101999999ADDGA1071+003001999GF107991999999999999999999MA1102811999999MW1711REMMET056METAR EDOP 020950Z 09009KT 5000 -SN BKN010 00/M01 Q1028;
0121101624999992008010210204+53417+011783FM-15+0051EDOP V0200901N006210036019N0080001N1+00001-00101999999ADDGA1071+003601999GF107991999999999999999999MA1102811999999REMMET052METAR EDOP 021020Z 09012KT 8000 BKN012 00/M01 Q1028;
0121101624999992008010210504+53417+011783FM-15+0051EDOP V0201001N004612200019N0090001N1+00001-00201999999ADDGA1041+003001999GF104991999999999999999999MA1102811999999REMMET052METAR EDOP 021050Z 10009KT 9000 SCT010 00/M02 Q1028;
0121101624999992008010211204+53417+011783FM-15+0051EDOP V0200901N004610060019N0090001N1+00001-00301999999ADDGA1071+006001999GF107991999999999999999999MA1102711999999REMMET052METAR EDOP 021120Z 09009KT 9000 BKN020 00/M03 Q1027;
0121101624999992008010211504+53417+011783FM-15+0051EDOP V0200901N004610048019N0112651N1+00001-00301999999ADDGA1071+004801999GF107991999999999999999999MA1102711999999REMMET052METAR EDOP 021150Z 09009KT 9999 BKN016 00/M03 Q1027;
0129101624999992008010212204+53417+011783FM-15+0051EDOP V0201001N003610060019N0090001N1+00101-00201999999ADDGA1071+006001999GF107991999999999999999999MA1102711999999REMMET060METAR EDOP 021220Z 10007KT 060V130 9000 BKN020 01/M02 Q1027;
0121101624999992008010212504+53417+011783FM-15+0051EDOP V0200901N004610054019N0090001N1+00101-00201999999ADDGA1071+005401999GF107991999999999999999999MA1102711999999REMMET052METAR EDOP 021250Z 09009KT 9000 BKN018 01/M02 Q1027;
0121101624999992008010213204+53417+011783FM-15+0051EDOP V0200901N004110060019N0090001N1+00101-00301999999ADDGA1071+006001999GF107991999999999999999999MA1102711999999REMMET052METAR EDOP 021320Z 09008KT 9000 BKN020 01/M03 Q1027;
0121101624999992008010213504+53417+011783FM-15+0051EDOP V0201001N005110048019N0090001N1+00001-00301999999ADDGA1071+004801999GF107991999999999999999999MA1102711999999REMMET052METAR EDOP 021350Z 10010KT 9000 BKN016 00/M03 Q1027;
0121101624999992008010214204+53417+011783FM-15+0051EDOP V0200801N004110072019N0080001N1+00001-00401999999ADDGA1071+007201999GF107991999999999999999999MA1102711999999REMMET052METAR EDOP 021420Z 08008KT 8000 BKN024 00/M04 Q1027;
0121101624999992008010214504+53417+011783FM-15+0051EDOP V0200801N002610081019N0080001N1+00001-00301999999ADDGA1071+008101999GF107991999999999999999999MA1102611999999REMMET052METAR EDOP 021450Z 08005KT 8000 BKN027 00/M03 Q1026;
0121101624999992008010215504+53417+011783FM-15+0051EDOP V0200701N003610036019N0070001N1+00001-00201999999ADDGA1071+003601999GF107991999999999999999999MA1102611999999REMMET052METAR EDOP 021550Z 07007KT 7000 BKN012 00/M02 Q1026;
0122101624999992008010216204+53417+011783FM-15+0051EDOP V0200801N005110024019N0060001N1+00001-00101999999ADDGA1071+002401999GF107991999999999999999999MA1102611999999REMMET053METAR EDOP 021620Z 08010KT 6000 BKN008 M00/M01 Q1026;
0122101624999992008010216504+53417+011783FM-15+0051EDOP V0200901N006210030019N0060001N1+00001-00101999999ADDGA1071+003001999GF107991999999999999999999MA1102611999999REMMET053METAR EDOP 021650Z 09012KT 6000 BKN010 M00/M01 Q1026;
0122101624999992008010217204+53417+011783FM-15+0051EDOP V0201001N005710036019N0060001N1+00001-00301999999ADDGA1071+003601999GF107991999999999999999999MA1102511999999REMMET053METAR EDOP 021720Z 10011KT 6000 BKN012 M00/M03 Q1025;
0122101624999992008010306204+53417+011783FM-15+0051EDOP V0201001N008210054019N0112651N1-00401-00801999999ADDGA1071+005401999GF107991999999999999999999MA1102001999999REMMET053METAR EDOP 030620Z 10016KT 9999 BKN018 M04/M08 Q1020;
0130101624999992008010306504+53417+011783FM-15+0051EDOP V0201001N008210048019N0112651N1-00401-00801999999ADDGA1071+004801999GF107991999999999999999999MA1102001999999REMMET061METAR EDOP 030650Z 10016KT 070V130 9999 BKN016 M04/M08 Q1020;
0122101624999992008010307204+53417+011783FM-15+0051EDOP V0201001N008210045019N0112651N1-00401-00801999999ADDGA1071+004501999GF107991999999999999999999MA1102001999999REMMET053METAR EDOP 030720Z 10016KT 9999 BKN015 M04/M08 Q1020;
0122101624999992008010307504+53417+011783FM-15+0051EDOP V0201001N008710045019N0112651N1-00401-00801999999ADDGA1071+004501999GF107991999999999999999999MA1102001999999REMMET053METAR EDOP 030750Z 10017KT 9999 BKN015 M04/M08 Q1020;
0122101624999992008010308204+53417+011783FM-15+0051EDOP V0201001N008710045019N0112651N1-00401-00801999999ADDGA1071+004501999GF107991999999999999999999MA1102001999999REMMET053METAR EDOP 030820Z 10017KT 9999 BKN015 M04/M08 Q1020;
0122101624999992008010309204+53417+011783FM-15+0051EDOP V0201001N008210045019N0090001N1-00401-00701999999ADDGA1071+004501999GF107991999999999999999999MA1102001999999REMMET053METAR EDOP 030920Z 10016KT 9000 BKN015 M04/M07 Q1020;
0130101624999992008010309504+53417+011783FM-15+0051EDOP V0201001N006710051019N0080001N1-00401-00701999999ADDGA1071+005101999GF107991999999999999999999MA1102001999999REMMET061METAR EDOP 030950Z 10013KT 070V130 8000 BKN017 M04/M07 Q1020;
0122101624999992008010310204+53417+011783FM-15+0051EDOP V0200901N007210045019N0070001N1-00401-00701999999ADDGA1071+004501999GF107991999999999999999999MA1102001999999REMMET053METAR EDOP 031020Z 09014KT 7000 BKN015 M04/M07 Q1020;
0122101624999992008010310504+53417+011783FM-15+0051EDOP V0200901N008210045019N0070001N1-00401-00801999999ADDGA1071+004501999GF107991999999999999999999MA1102001999999REMMET053METAR EDOP 031050Z 09016KT 7000 BKN015 M04/M08 Q1020;
0122101624999992008010311504+53417+011783FM-15+0051EDOP V0200901N009310045019N0070001N1-00401-00801999999ADDGA1071+004501999GF107991999999999999999999MA1101901999999REMMET053METAR EDOP 031150Z 09018KT 7000 BKN015 M04/M08 Q1019;
0122101624999992008010312204+53417+011783FM-15+0051EDOP V0200901N008710048019N0070001N1-00401-00801999999ADDGA1071+004801999GF107991999999999999999999MA1101901999999REMMET053METAR EDOP 031220Z 09017KT 7000 BKN016 M04/M08 Q1019;
0145101624999992008010312504+53417+011783FM-15+0051EDOP V0200901N009310090019N0070001N1-00401-00801999999ADDGA1041+005401999GA2071+009001999GF107991999999999999999999MA1101901999999REMMET060METAR EDOP 031250Z 09018KT 7000 SCT018 BKN030 M04/M08 Q1019;
0122101624999992008010313504+53417+011783FM-15+0051EDOP V0201001N008710090019N0080001N1-00401-00801999999ADDGA1071+009001999GF107991999999999999999999MA1101901999999REMMET053METAR EDOP 031350Z 10017KT 8000 BKN030 M04/M08 Q1019;
0122101624999992008010314204+53417+011783FM-15+0051EDOP V0200901N009310093019N0070001N1-00401-00801999999ADDGA1071+009301999GF107991999999999999999999MA1101901999999REMMET053METAR EDOP 031420Z 09018KT 7000 BKN031 M04/M08 Q1019;
0122101624999992008010314504+53417+011783FM-15+0051EDOP V0200901N008710099019N0070001N1-00401-00801999999ADDGA1071+009901999GF107991999999999999999999MA1101901999999REMMET053METAR EDOP 031450Z 09017KT 7000 BKN033 M04/M08 Q1019;
0122101624999992008010315204+53417+011783FM-15+0051EDOP V0200901N009310105019N0070001N1-00401-00801999999ADDGA1071+010501999GF107991999999999999999999MA1101901999999REMMET053METAR EDOP 031520Z 09018KT 7000 BKN035 M04/M08 Q1019;
0122101624999992008010315504+53417+011783FM-15+0051EDOP V0201001N009310108019N0070001N1-00401-00801999999ADDGA1071+010801999GF107991999999999999999999MA1101901999999REMMET053METAR EDOP 031550Z 10018KT 7000 BKN036 M04/M08 Q1019;
0122101624999992008010316204+53417+011783FM-15+0051EDOP V0201001N008210111019N0070001N1-00401-00801999999ADDGA1071+011101999GF107991999999999999999999MA1101901999999REMMET053METAR EDOP 031620Z 10016KT 7000 BKN037 M04/M08 Q1019;
0122101624999992008010316504+53417+011783FM-15+0051EDOP V0201001N008710114019N0070001N1-00401-00801999999ADDGA1071+011401999GF107991999999999999999999MA1101901999999REMMET053METAR EDOP 031650Z 10017KT 7000 BKN038 M04/M08 Q1019;
0122101624999992008010317204+53417+011783FM-15+0051EDOP V0200901N009810114019N0070001N1-00401-00801999999ADDGA1071+011401999GF107991999999999999999999MA1101901999999REMMET053METAR EDOP 031720Z 09019KT 7000 BKN038 M04/M08 Q1019;
0074101624999992008010406204+53417+011783FM-15+0051EDOP V0200901N00771220001CN0099001N1-00701-01101999999ADDMA1102101999999REMMET047METAR EDOP 040620Z 09015KT CAVOK M07/M11 Q1021;
0074101624999992008010406504+53417+011783FM-15+0051EDOP V0200901N00771220001CN0099001N1-00701-01201999999ADDMA1102001999999REMMET047METAR EDOP 040650Z 09015KT CAVOK M07/M12 Q1020;
0074101624999992008010407504+53417+011783FM-15+0051EDOP V0201001N00771220001CN0099001N1-00701-01201999999ADDMA1102101999999REMMET047METAR EDOP 040750Z 10015KT CAVOK M07/M12 Q1021;
0074101624999992008010408504+53417+011783FM-15+0051EDOP V0201001N00721220001CN0099001N1-00701-01101999999ADDMA1102101999999REMMET047METAR EDOP 040850Z 10014KT CAVOK M07/M11 Q1021;
0074101624999992008010409204+53417+011783FM-15+0051EDOP V0201001N00771220001CN0099001N1-00601-01101999999ADDMA1102101999999REMMET047METAR EDOP 040920Z 10015KT CAVOK M06/M11 Q1021;
0074101624999992008010409504+53417+011783FM-15+0051EDOP V0201001N00931220001CN0099001N1-00601-01101999999ADDMA1102101999999REMMET047METAR EDOP 040950Z 10018KT CAVOK M06/M11 Q1021;
0074101624999992008010410204+53417+011783FM-15+0051EDOP V0201001N00821220001CN0099001N1-00601-01101999999ADDMA1102101999999REMMET047METAR EDOP 041020Z 10016KT CAVOK M06/M11 Q1021;
0074101624999992008010410504+53417+011783FM-15+0051EDOP V0201001N00771220001CN0099001N1-00501-01101999999ADDMA1102001999999REMMET047METAR EDOP 041050Z 10015KT CAVOK M05/M11 Q1020;
0074101624999992008010411204+53417+011783FM-15+0051EDOP V0201001N00771220001CN0099001N1-00401-01001999999ADDMA1102001999999REMMET047METAR EDOP 041120Z 10015KT CAVOK M04/M10 Q1020;
0074101624999992008010411504+53417+011783FM-15+0051EDOP V0201101N00821220001CN0099001N1-00501-01101999999ADDMA1101901999999REMMET047METAR EDOP 041150Z 11016KT CAVOK M05/M11 Q1019;
0074101624999992008010412204+53417+011783FM-15+0051EDOP V0201101N00721220001CN0099001N1-00501-01101999999ADDMA1101901999999REMMET047METAR EDOP 041220Z 11014KT CAVOK M05/M11 Q1019;
0074101624999992008010412504+53417+011783FM-15+0051EDOP V0201101N00671220001CN0099001N1-00501-01101999999ADDMA1101901999999REMMET047METAR EDOP 041250Z 11013KT CAVOK M05/M11 Q1019;
0074101624999992008010413204+53417+011783FM-15+0051EDOP V0201001N00721220001CN0099001N1-00501-01101999999ADDMA1101901999999REMMET047METAR EDOP 041320Z 10014KT CAVOK M05/M11 Q1019;
0122101624999992008010413504+53417+011783FM-15+0051EDOP V0201001N006712200019N0112651N1-00501-01101999999ADDGA1021+008401999GF102991999999999999999999MA1101901999999REMMET053METAR EDOP 041350Z 10013KT 9999 FEW028 M05/M11 Q1019;
0074101624999992008010414204+53417+011783FM-15+0051EDOP V0201001N00721220001CN0099001N1-00501-01101999999ADDMA1101901999999REMMET047METAR EDOP 041420Z 10014KT CAVOK M05/M11 Q1019;
0074101624999992008010414504+53417+011783FM-15+0051EDOP V0201001N00671220001CN0099001N1-00501-01101999999ADDMA1101901999999REMMET047METAR EDOP 041450Z 10013KT CAVOK M05/M11 Q1019;
0074101624999992008010415204+53417+011783FM-15+0051EDOP V0201101N00771220001CN0099001N1-00601-01101999999ADDMA1101901999999REMMET047METAR EDOP 041520Z 11015KT CAVOK M06/M11 Q1019;
0074101624999992008010415504+53417+011783FM-15+0051EDOP V0201101N00721220001CN0099001N1-00601-01101999999ADDMA1101901999999REMMET047METAR EDOP 041550Z 11014KT CAVOK M06/M11 Q1019;
0074101624999992008010416204+53417+011783FM-15+0051EDOP V0201101N00721220001CN0099001N1-00601-01101999999ADDMA1101901999999REMMET047METAR EDOP 041620Z 11014KT CAVOK M06/M11 Q1019;
0074101624999992008010416504+53417+011783FM-15+0051EDOP V0201101N00771220001CN0099001N1-00601-01001999999ADDMA1101901999999REMMET047METAR EDOP 041650Z 11015KT CAVOK M06/M10 Q1019;
0082101624999992008010506204+53417+011783FM-15+0051EDOP V0201001N00461220001CN0099001N1-00301-00601999999ADDMA1101081999999REMMET055METAR EDOP 050620Z 10009KT 070V130 CAVOK M03/M06 Q1011;
0074101624999992008010506504+53417+011783FM-15+0051EDOP V0201101N00621220001CN0099001N1-00201-00601999999ADDMA1101021999999REMMET047METAR EDOP 050650Z 11012KT CAVOK M02/M06 Q1010;
0074101624999992008010507504+53417+011783FM-15+0051EDOP V0201401N00671220001CN0099001N1-00101-00501999999ADDMA1101021999999REMMET047METAR EDOP 050750Z 14013KT CAVOK M01/M05 Q1010;
0074101624999992008010508204+53417+011783FM-15+0051EDOP V0201301N00621220001CN0099001N1-00101-00501999999ADDMA1101021999999REMMET047METAR EDOP 050820Z 13012KT CAVOK M01/M05 Q1010;
0074101624999992008010508504+53417+011783FM-15+0051EDOP V0201301N00871220001CN0099001N1-00101-00501999999ADDMA1100911999999REMMET047METAR EDOP 050850Z 13017KT CAVOK M01/M05 Q1009;
0074101624999992008010509204+53417+011783FM-15+0051EDOP V0201301N00721220001CN0099001N1+00001-00501999999ADDMA1100911999999REMMET047METAR EDOP 050920Z 13014KT CAVOK M00/M05 Q1009;
0074101624999992008010509504+53417+011783FM-15+0051EDOP V0201301N00771220001CN0099001N1+00001-00501999999ADDMA1100911999999REMMET047METAR EDOP 050950Z 13015KT CAVOK M00/M05 Q1009;
0074101624999992008010510204+53417+011783FM-15+0051EDOP V0201301N00721220001CN0099001N1+00001-00501999999ADDMA1100911999999REMMET047METAR EDOP 051020Z 13014KT CAVOK M00/M05 Q1009;
0073101624999992008010510504+53417+011783FM-15+0051EDOP V0201301N00771220001CN0099001N1+00001-00501999999ADDMA1100811999999REMMET046METAR EDOP 051050Z 13015KT CAVOK 00/M05 Q1008;
0081101624999992008010511204+53417+011783FM-15+0051EDOP V0201301N00571220001CN0099001N1+00101-00501999999ADDMA1100811999999REMMET054METAR EDOP 051120Z 13011KT 100V160 CAVOK 01/M05 Q1008;
0073101624999992008010511504+53417+011783FM-15+0051EDOP V0201401N00771220001CN0099001N1+00101-00401999999ADDMA1100711999999REMMET046METAR EDOP 051150Z 14015KT CAVOK 01/M04 Q1007;
0073101624999992008010512204+53417+011783FM-15+0051EDOP V0201301N00721220001CN0099001N1+00101-00401999999ADDMA1100711999999REMMET046METAR EDOP 051220Z 13014KT CAVOK 01/M04 Q1007;
0154101624999992008010512504+53417+011783FM-15+0051EDOP V0201401N007210135019N0080001N1+00001-00401999999ADDGA1041+007501999GA2071+013501999GF107991999999999999999999MA1100711999999MW1611REMMET063METAR EDOP 051250Z 14014KT 8000 -RA SCT025 BKN045 00/M04 Q1007;
0157101624999992008010513204+53417+011783FM-15+0051EDOP V0201401N006210120019N0060001N1+00001-00301999999ADDGA1041+005401999GA2071+012001999GF107991999999999999999999MA1100711999999MW1661REMMET066METAR EDOP 051320Z 14012KT 6000 -FZRA SCT018 BKN040 M00/M03 Q1007;
0134101624999992008010513504+53417+011783FM-15+0051EDOP V0201401N007210105019N0070001N1+00001-00201999999ADDGA1071+010501999GF107991999999999999999999MA1100711999999MW1661REMMET059METAR EDOP 051350Z 14014KT 7000 -FZRA BKN035 M00/M02 Q1007;
0133101624999992008010514204+53417+011783FM-15+0051EDOP V0201401N006210108019N0070001N1+00001-00301999999ADDGA1071+010801999GF107991999999999999999999MA1100611999999MW1661REMMET058METAR EDOP 051420Z 14012KT 7000 -FZRA BKN036 00/M03 Q1006;
0133101624999992008010514504+53417+011783FM-15+0051EDOP V0201401N005710096019N0060001N1+00001-00201999999ADDGA1071+009601999GF107991999999999999999999MA1100611999999MW1661REMMET058METAR EDOP 051450Z 14011KT 6000 -FZRA BKN032 00/M02 Q1006;
0133101624999992008010515504+53417+011783FM-15+0051EDOP V0201501N006210084019N0050001N1+00101-00101999999ADDGA1071+008401999GF107991999999999999999999MA1100611999999MW1661REMMET058METAR EDOP 051550Z 15012KT 5000 -FZRA BKN028 01/M01 Q1006;
0133101624999992008010516204+53417+011783FM-15+0051EDOP V0201501N006710084019N0050001N1+00101+00001999999ADDGA1071+008401999GF107991999999999999999999MA1100611999999MW1661REMMET058METAR EDOP 051620Z 15013KT 5000 -FZRA BKN028 01/M00 Q1006;
0131101624999992008010516504+53417+011783FM-15+0051EDOP V0201501N006210069019N0060001N1+00101+00001999999ADDGA1071+006901999GF107991999999999999999999MA1100611999999MW1611REMMET056METAR EDOP 051650Z 15012KT 6000 -RA BKN023 01/M00 Q1006;
0138101624999992008010605504+53417+011783FM-15+0051EDOP V0200801N002110090019N0050001N1+00101+00101999999ADDGA1071+009001999GF107991999999999999999999MA1100411999999MW1611REMMET063METAR EDOP 060550Z 08004KT 050V130 5000 -RA BKN030 01/01 Q1004;
0130101624999992008010606204+53417+011783FM-15+0051EDOP V0200901N002110066019N0070001N1+00101+00101999999ADDGA1071+006601999GF107991999999999999999999MA1100411999999MW1611REMMET055METAR EDOP 060620Z 09004KT 7000 -RA BKN022 01/01 Q1004;
0129101624999992008010606504+53417+011783FM-15+0051EDOP V0200801N001010054019N0035001N1+00101+00101999999ADDGA1071+005401999GF107991999999999999999999MA1100411999999MW1631REMMET054METAR EDOP 060650Z 08002KT 3500 RA BKN018 01/01 Q1004;
0129101624999992008010607504+53417+011783FM-15+0051EDOP V0200701N001510066019N0015001N1+00101+00001999999ADDGA1071+006601999GF107991999999999999999999MA1100511999999MW1631REMMET054METAR EDOP 060750Z 07003KT 1500 RA BKN022 01/00 Q1005;
0129101624999992008010608504+53417+011783FM-15+0051EDOP V0209999C000010018019N0015001N1+00101+00101999999ADDGA1071+001801999GF107991999999999999999999MA1100511999999MW1631REMMET054METAR EDOP 060850Z 00000KT 1500 RA BKN006 01/01 Q1005;
0129101624999992008010609204+53417+011783FM-15+0051EDOP V0209999C000010045019N0018001N1+00101+00101999999ADDGA1071+004501999GF107991999999999999999999MA1100611999999MW1631REMMET054METAR EDOP 060920Z 00000KT 1800 RA BKN015 01/01 Q1006;
0129101624999992008010610204+53417+011783FM-15+0051EDOP V0209999C000010018019N0015001N1+00101+00101999999ADDGA1071+001801999GF107991999999999999999999MA1100611999999MW1631REMMET054METAR EDOP 061020Z 00000KT 1500 RA BKN006 01/01 Q1006;
0129101624999992008010610504+53417+011783FM-15+0051EDOP V0209999C000010006019N0015001N1+00201+00101999999ADDGA1071+000601999GF107991999999999999999999MA1100711999999MW1631REMMET054METAR EDOP 061050Z 00000KT 1500 RA BKN002 02/01 Q1007;
0138101624999992008010611504+53417+011783FM-15+0051EDOP V0202501N002110009019N0015001N1+00201+00201999999ADDGA1071+000901999GF107991999999999999999999MA1100711999999MW1101MW2631REMMET057METAR EDOP 061150Z 25004KT 1500 RA BR BKN003 02/02 Q1007;
0144101624999992008010612204+53417+011783FM-15+0051EDOP V0202701N002110009019N0015001N1+00201+00201999999ADDGA1071+000901999GF107991999999999999999999MA1100711999999MW1101MW2611REMMET063METAR EDOP 061220Z 27004KT 1500 -RA BR BKN003 02/02 Q1007 RERA;
0139101624999992008010612504+53417+011783FM-15+0051EDOP V0202701N002110006019N0015001N1+00201+00201999999ADDGA1071+000601999GF107991999999999999999999MA1100811999999MW1101MW2611REMMET058METAR EDOP 061250Z 27004KT 1500 -RA BR BKN002 02/02 Q1008;
0129101624999992008010613204+53417+011783FM-15+0051EDOP V0202701N002610006019N0015001N1+00301+00201999999ADDGA1071+000601999GF107991999999999999999999MA1100811999999MW1101REMMET054METAR EDOP 061320Z 27005KT 1500 BR BKN002 03/02 Q1008;
0129101624999992008010613504+53417+011783FM-15+0051EDOP V0202601N002610012019N0015001N1+00301+00301999999ADDGA1071+001201999GF107991999999999999999999MA1100911999999MW1101REMMET054METAR EDOP 061350Z 26005KT 1500 BR BKN004 03/03 Q1009;
0129101624999992008010614204+53417+011783FM-15+0051EDOP V0202601N003110012019N0018001N1+00301+00301999999ADDGA1071+001201999GF107991999999999999999999MA1100911999999MW1101REMMET054METAR EDOP 061420Z 26006KT 1800 BR BKN004 03/03 Q1009;
0129101624999992008010614504+53417+011783FM-15+0051EDOP V0202701N004110015019N0020001N1+00301+00301999999ADDGA1071+001501999GF107991999999999999999999MA1101021999999MW1101REMMET054METAR EDOP 061450Z 27008KT 2000 BR BKN005 03/03 Q1010;
0129101624999992008010615504+53417+011783FM-15+0051EDOP V0202701N003610024019N0025001N1+00301+00301999999ADDGA1071+002401999GF107991999999999999999999MA1101081999999MW1101REMMET054METAR EDOP 061550Z 27007KT 2500 BR BKN008 03/03 Q1011;
0129101624999992008010616204+53417+011783FM-15+0051EDOP V0202601N003610036019N0025001N1+00301+00301999999ADDGA1071+003601999GF107991999999999999999999MA1101191999999MW1101REMMET054METAR EDOP 061620Z 26007KT 2500 BR BKN012 03/03 Q1012;
0129101624999992008010616504+53417+011783FM-15+0051EDOP V0202601N002610048019N0028001N1+00301+00301999999ADDGA1071+004801999GF107991999999999999999999MA1101191999999MW1101REMMET054METAR EDOP 061650Z 26005KT 2800 BR BKN016 03/03 Q1012;
0129101624999992008010617204+53417+011783FM-15+0051EDOP V0202401N003110042019N0030001N1+00301+00301999999ADDGA1071+004201999GF107991999999999999999999MA1101191999999MW1101REMMET054METAR EDOP 061720Z 24006KT 3000 BR BKN014 03/03 Q1012;
0074101624999992008010706204+53417+011783FM-15+0051EDOP V0201201N00411220001CN0099001N1+00001-00101999999ADDMA1100911999999REMMET047METAR EDOP 070620Z 12008KT CAVOK M00/M01 Q1009;
0081101624999992008010706504+53417+011783FM-15+0051EDOP V0201401N00411220001CN0099001N1+00101+00001999999ADDMA1100811999999REMMET054METAR EDOP 070650Z 14008KT 100V160 CAVOK 01/M00 Q1008;
0073101624999992008010707204+53417+011783FM-15+0051EDOP V0201301N00461220001CN0099001N1+00101+00001999999ADDMA1100811999999REMMET046METAR EDOP 070720Z 13009KT CAVOK 01/M00 Q1008;
0073101624999992008010707504+53417+011783FM-15+0051EDOP V0201301N00511220001CN0099001N1+00101-00101999999ADDMA1100711999999REMMET046METAR EDOP 070750Z 13010KT CAVOK 01/M01 Q1007;
0073101624999992008010708504+53417+011783FM-15+0051EDOP V0201301N00511220001CN0099001N1+00201-00101999999ADDMA1100611999999REMMET046METAR EDOP 070850Z 13010KT CAVOK 02/M01 Q1006;
0139101624999992008010709204+53417+011783FM-15+0051EDOP V0201601N006210090019N0112651N1+00101-00101999999ADDGA1071+009001999GF107991999999999999999999MA1100611999999MW1711REMMET064METAR EDOP 070920Z 16012KT 130V190 9999 -SN BKN030 01/M01 Q1006;
0130101624999992008010709504+53417+011783FM-15+0051EDOP V0201601N005710030019N0045001N1+00101+00001999999ADDGA1071+003001999GF107991999999999999999999MA1100511999999MW1631REMMET055METAR EDOP 070950Z 16011KT 4500 RA BKN010 01/M00 Q1005;
0161101624999992008010710204+53417+011783FM-15+0051EDOP V0201701N006210015019N0010001N1+00101+00001999999ADDED199U15009GA1071+001501999GF107991999999999999999999MA1100611999999MW1651MW2751REMMET069METAR EDOP 071020Z 17012KT 1000 R24/P1500D +SNRA BKN005 01/M00 Q1006;
0129101624999992008010710504+53417+011783FM-15+0051EDOP V0201701N006210054019N0070001N1+00101+00001999999ADDGA1071+005401999GF107991999999999999999999MA1100511999999MW1631REMMET054METAR EDOP 071050Z 17012KT 7000 RA BKN018 01/00 Q1005;
0129101624999992008010711204+53417+011783FM-15+0051EDOP V0201601N005110027019N0112651N1+00101+00101999999ADDGA1071+002701999GF107991999999999999999999MA1100511999999MW1631REMMET054METAR EDOP 071120Z 16010KT 9999 RA BKN009 01/01 Q1005;
0120101624999992008010711504+53417+011783FM-15+0051EDOP V0201801N006210042019N0070001N1+00101+00101999999ADDGA1071+004201999GF107991999999999999999999MA1100511999999REMMET051METAR EDOP 071150Z 18012KT 7000 BKN014 01/01 Q1005;
0120101624999992008010712204+53417+011783FM-15+0051EDOP V0201801N006210039019N0060001N1+00201+00201999999ADDGA1071+003901999GF107991999999999999999999MA1100511999999REMMET051METAR EDOP 071220Z 18012KT 6000 BKN013 02/02 Q1005;
0120101624999992008010712504+53417+011783FM-15+0051EDOP V0201801N005710033019N0060001N1+00301+00201999999ADDGA1071+003301999GF107991999999999999999999MA1100511999999REMMET051METAR EDOP 071250Z 18011KT 6000 BKN011 03/02 Q1005;
0138101624999992008010713204+53417+011783FM-15+0051EDOP V0201901N005110036019N0060001N1+00301+00301999999ADDGA1071+003601999GF107991999999999999999999MA1100511999999MW1611REMMET063METAR EDOP 071320Z 19010KT 160V220 6000 -RA BKN012 03/03 Q1005;
0120101624999992008010713504+53417+011783FM-15+0051EDOP V0202001N005710036019N0070001N1+00301+00301999999ADDGA1071+003601999GF107991999999999999999999MA1100511999999REMMET051METAR EDOP 071350Z 20011KT 7000 BKN012 03/03 Q1005;
0143101624999992008010714204+53417+011783FM-15+0051EDOP V0202101N006210123019N0090001N1+00401+00401999999ADDGA1041+004501999GA2071+012301999GF107991999999999999999999MA1100511999999REMMET058METAR EDOP 071420Z 21012KT 9000 SCT015 BKN041 04/04 Q1005;
0143101624999992008010715204+53417+011783FM-15+0051EDOP V0201801N005110144019N0080001N1+00401+00301999999ADDGA1021+005401999GA2071+014401999GF107991999999999999999999MA1100511999999REMMET058METAR EDOP 071520Z 18010KT 8000 FEW018 BKN048 04/03 Q1005;
0120101624999992008010715504+53417+011783FM-15+0051EDOP V0201801N005112200019N0070001N1+00401+00401999999ADDGA1021+005401999GF102991999999999999999999MA1100511999999REMMET051METAR EDOP 071550Z 18010KT 7000 FEW018 04/04 Q1005;
0130101624999992008010716204+53417+011783FM-15+0051EDOP V0202001N007210060019N0060001N1+00501+00401999999ADDGA1071+006001999GF107991999999999999999999MA1100611999999MW1611REMMET055METAR EDOP 071620Z 20014KT 6000 -RA BKN020 05/04 Q1006;
0130101624999992008010717204+53417+011783FM-15+0051EDOP V0202101N006210075019N0060001N1+00501+00401999999ADDGA1071+007501999GF107991999999999999999999MA1100611999999MW1611REMMET055METAR EDOP 071720Z 21012KT 6000 -RA BKN025 05/04 Q1006;
0130101624999992008010717504+53417+011783FM-15+0051EDOP V0202201N008710066019N0060001N1+00501+00301999999ADDGA1071+006601999GF107991999999999999999999MA1100611999999MW1611REMMET055METAR EDOP 071750Z 22017KT 6000 -RA BKN022 05/03 Q1006;
0130101624999992008010718204+53417+011783FM-15+0051EDOP V0202301N008710054019N0060001N1+00501+00301999999ADDGA1071+005401999GF107991999999999999999999MA1100611999999MW1611REMMET055METAR EDOP 071820Z 23017KT 6000 -RA BKN018 05/03 Q1006;
0143101624999992008010806204+53417+011783FM-15+0051EDOP V0202501N006710060019N0112651N1+00501+00201999999ADDGA1021+002401999GA2071+006001999GF107991999999999999999999MA1101291999999REMMET058METAR EDOP 080620Z 25013KT 9999 FEW008 BKN020 05/02 Q1013;
0120101624999992008010806504+53417+011783FM-15+0051EDOP V0202201N006210060019N0112651N1+00401+00201999999ADDGA1071+006001999GF107991999999999999999999MA1101391999999REMMET051METAR EDOP 080650Z 22012KT 9999 BKN020 04/02 Q1014;
0120101624999992008010807204+53417+011783FM-15+0051EDOP V0202501N007210057019N0112651N1+00401+00301999999ADDGA1071+005701999GF107991999999999999999999MA1101391999999REMMET051METAR EDOP 080720Z 25014KT 9999 BKN019 04/03 Q1014;
0143101624999992008010807504+53417+011783FM-15+0051EDOP V0202401N007210126019N0112651N1+00401+00301999999ADDGA1021+006001999GA2071+012601999GF107991999999999999999999MA1101491999999REMMET058METAR EDOP 080750Z 24014KT 9999 FEW020 BKN042 04/03 Q1015;
0120101624999992008010808204+53417+011783FM-15+0051EDOP V0202401N006212200019N0112651N1+00401+00201999999ADDGA1041+006001999GF104991999999999999999999MA1101491999999REMMET051METAR EDOP 080820Z 24012KT 9999 SCT020 04/02 Q1015;
0120101624999992008010808504+53417+011783FM-15+0051EDOP V0202401N005110060019N0112651N1+00401+00201999999ADDGA1071+006001999GF107991999999999999999999MA1101591999999REMMET051METAR EDOP 080850Z 24010KT 9999 BKN020 04/02 Q1016;
0120101624999992008010809504+53417+011783FM-15+0051EDOP V0202301N005712200019N0112651N1+00501+00201999999ADDGA1021+005701999GF102991999999999999999999MA1101591999999REMMET051METAR EDOP 080950Z 23011KT 9999 FEW019 05/02 Q1016;
0120101624999992008010810204+53417+011783FM-15+0051EDOP V0202301N007212200019N0112651N1+00601+00201999999ADDGA1021+005401999GF102991999999999999999999MA1101591999999REMMET051METAR EDOP 081020Z 23014KT 9999 FEW018 06/02 Q1016;
0143101624999992008010810504+53417+011783FM-15+0051EDOP V0202401N007712200019N0112651N1+00501+00201999999ADDGA1021+006001999GA2041+009001999GF104991999999999999999999MA1101591999999REMMET058METAR EDOP 081050Z 24015KT 9999 FEW020 SCT030 05/02 Q1016;
0120101624999992008010811204+53417+011783FM-15+0051EDOP V0202301N007210060019N0112651N1+00501+00201999999ADDGA1071+006001999GF107991999999999999999999MA1101591999999REMMET051METAR EDOP 081120Z 23014KT 9999 BKN020 05/02 Q1016;
0120101624999992008010811504+53417+011783FM-15+0051EDOP V0202301N006710057019N0112651N1+00601+00201999999ADDGA1071+005701999GF107991999999999999999999MA1101691999999REMMET051METAR EDOP 081150Z 23013KT 9999 BKN019 06/02 Q1017;
0120101624999992008010812204+53417+011783FM-15+0051EDOP V0202401N008210057019N0112651N1+00501+00201999999ADDGA1071+005701999GF107991999999999999999999MA1101691999999REMMET051METAR EDOP 081220Z 24016KT 9999 BKN019 05/02 Q1017;
0120101624999992008010812504+53417+011783FM-15+0051EDOP V0202401N007210054019N0112651N1+00601+00201999999ADDGA1071+005401999GF107991999999999999999999MA1101691999999REMMET051METAR EDOP 081250Z 24014KT 9999 BKN018 06/02 Q1017;
0120101624999992008010813204+53417+011783FM-15+0051EDOP V0202401N007210054019N0112651N1+00601+00201999999ADDGA1071+005401999GF107991999999999999999999MA1101691999999REMMET051METAR EDOP 081320Z 24014KT 9999 BKN018 06/02 Q1017;
0120101624999992008010813504+53417+011783FM-15+0051EDOP V0202301N006210054019N0112651N1+00601+00201999999ADDGA1071+005401999GF107991999999999999999999MA1101691999999REMMET051METAR EDOP 081350Z 23012KT 9999 BKN018 06/02 Q1017;
0120101624999992008010814204+53417+011783FM-15+0051EDOP V0202301N006210051019N0112651N1+00601+00201999999ADDGA1071+005101999GF107991999999999999999999MA1101691999999REMMET051METAR EDOP 081420Z 23012KT 9999 BKN017 06/02 Q1017;
0120101624999992008010814504+53417+011783FM-15+0051EDOP V0202301N005110063019N0112651N1+00501+00201999999ADDGA1071+006301999GF107991999999999999999999MA1101691999999REMMET051METAR EDOP 081450Z 23010KT 9999 BKN021 05/02 Q1017;
0120101624999992008010815204+53417+011783FM-15+0051EDOP V0202201N005710081019N0112651N1+00501+00201999999ADDGA1071+008101999GF107991999999999999999999MA1101691999999REMMET051METAR EDOP 081520Z 22011KT 9999 BKN027 05/02 Q1017;
0120101624999992008010815504+53417+011783FM-15+0051EDOP V0202301N006210075019N0112651N1+00601+00301999999ADDGA1071+007501999GF107991999999999999999999MA1101801999999REMMET051METAR EDOP 081550Z 23012KT 9999 BKN025 06/03 Q1018;
0120101624999992008010816204+53417+011783FM-15+0051EDOP V0202301N004610081019N0112651N1+00601+00301999999ADDGA1071+008101999GF107991999999999999999999MA1101801999999REMMET051METAR EDOP 081620Z 23009KT 9999 BKN027 06/03 Q1018;
0120101624999992008010816504+53417+011783FM-15+0051EDOP V0202101N004610054019N0112651N1+00601+00301999999ADDGA1071+005401999GF107991999999999999999999MA1101801999999REMMET051METAR EDOP 081650Z 21009KT 9999 BKN018 06/03 Q1018;
0073101624999992008010906204+53417+011783FM-15+0051EDOP V0201701N00621220001CN0099001N1+00201+00001999999ADDMA1101291999999REMMET046METAR EDOP 090620Z 17012KT CAVOK 02/M00 Q1013;
0073101624999992008010906504+53417+011783FM-15+0051EDOP V0201701N00511220001CN0099001N1+00201+00001999999ADDMA1101191999999REMMET046METAR EDOP 090650Z 17010KT CAVOK 02/M00 Q1012;
0073101624999992008010907504+53417+011783FM-15+0051EDOP V0201701N00571220001CN0099001N1+00201+00001999999ADDMA1101191999999REMMET046METAR EDOP 090750Z 17011KT CAVOK 02/M00 Q1012;
0073101624999992008010908204+53417+011783FM-15+0051EDOP V0201601N00571220001CN0099001N1+00201+00001999999ADDMA1101191999999REMMET046METAR EDOP 090820Z 16011KT CAVOK 02/M00 Q1012;
0080101624999992008010908504+53417+011783FM-15+0051EDOP V0201701N00511220001CN0099001N1+00201+00001999999ADDMA1101081999999REMMET053METAR EDOP 090850Z 17010KT 130V200 CAVOK 02/00 Q1011;
0073101624999992008010909504+53417+011783FM-15+0051EDOP V0201701N00671220001CN0099001N1+00301+00001999999ADDMA1101081999999REMMET046METAR EDOP 090950Z 17013KT CAVOK 03/M00 Q1011;
0072101624999992008010910204+53417+011783FM-15+0051EDOP V0201701N00671220001CN0099001N1+00401+00001999999ADDMA1101081999999REMMET045METAR EDOP 091020Z 17013KT CAVOK 04/00 Q1011;
0072101624999992008010910504+53417+011783FM-15+0051EDOP V0201801N00621220001CN0099001N1+00401+00001999999ADDMA1101081999999REMMET045METAR EDOP 091050Z 18012KT CAVOK 04/00 Q1011;
0129101624999992008010911504+53417+011783FM-15+0051EDOP V0201801N004610075019N0112651N1+00401+00001999999ADDGA1071+007501999GF107991999999999999999999MA1101021999999REMMET060METAR EDOP 091150Z 18009KT 150V210 9999 BKN025 04/M00 Q1010;
0128101624999992008010912204+53417+011783FM-15+0051EDOP V0201801N004112200019N0112651N1+00501+00001999999ADDGA1021+007501999GF102991999999999999999999MA1101021999999REMMET059METAR EDOP 091220Z 18008KT 140V200 9999 FEW025 05/00 Q1010;
0128101624999992008010912504+53417+011783FM-15+0051EDOP V0201801N004112200019N0112651N1+00501+00001999999ADDGA1041+007501999GF104991999999999999999999MA1101021999999REMMET059METAR EDOP 091250Z 18008KT 140V210 9999 SCT025 05/00 Q1010;
0143101624999992008010913204+53417+011783FM-15+0051EDOP V0201701N004110135019N0112651N1+00401+00001999999ADDGA1021+007501999GA2071+013501999GF107991999999999999999999MA1100911999999REMMET058METAR EDOP 091320Z 17008KT 9999 FEW025 BKN045 04/00 Q1009;
0130101624999992008010914204+53417+011783FM-15+0051EDOP V0201801N004610072019N0045001N1+00401+00001999999ADDGA1071+007201999GF107991999999999999999999MA1101021999999MW1611REMMET055METAR EDOP 091420Z 18009KT 4500 -RA BKN024 04/00 Q1010;
0130101624999992008010914504+53417+011783FM-15+0051EDOP V0201901N004610060019N0045001N1+00401+00101999999ADDGA1071+006001999GF107991999999999999999999MA1101021999999MW1611REMMET055METAR EDOP 091450Z 19009KT 4500 -RA BKN020 04/01 Q1010;
0129101624999992008010915204+53417+011783FM-15+0051EDOP V0201901N005110060019N0045001N1+00401+00201999999ADDGA1071+006001999GF107991999999999999999999MA1101021999999MW1631REMMET054METAR EDOP 091520Z 19010KT 4500 RA BKN020 04/02 Q1010;
0138101624999992008010915504+53417+011783FM-15+0051EDOP V0202001N005710045019N0050001N1+00401+00301999999ADDGA1071+004501999GF107991999999999999999999MA1101021999999MW1611REMMET063METAR EDOP 091550Z 20011KT 170V230 5000 -RA BKN015 04/03 Q1010;
0120101624999992008010916504+53417+011783FM-15+0051EDOP V0202301N004612200019N0112651N1+00401+00401999999ADDGA1041+006001999GF104991999999999999999999MA1101081999999REMMET051METAR EDOP 091650Z 23009KT 9999 SCT020 04/04 Q1011;
0072101624999992008011004504+53417+011783FM-15+0051EDOP V0202101N00671220001CN0099001N1+00301+00101999999ADDMA1101291999999REMMET045METAR EDOP 100450Z 21013KT CAVOK 03/01 Q1013;
0072101624999992008011005204+53417+011783FM-15+0051EDOP V0202101N00721220001CN0099001N1+00301+00101999999ADDMA1101291999999REMMET045METAR EDOP 100520Z 21014KT CAVOK 03/01 Q1013;
0072101624999992008011006204+53417+011783FM-15+0051EDOP V0201901N00571220001CN0099001N1+00201+00101999999ADDMA1101291999999REMMET045METAR EDOP 100620Z 19011KT CAVOK 02/01 Q1013;
0072101624999992008011006504+53417+011783FM-15+0051EDOP V0202001N00571220001CN0099001N1+00301+00001999999ADDMA1101291999999REMMET045METAR EDOP 100650Z 20011KT CAVOK 03/00 Q1013;
0072101624999992008011007204+53417+011783FM-15+0051EDOP V0202001N00721220001CN0099001N1+00301+00001999999ADDMA1101291999999REMMET045METAR EDOP 100720Z 20014KT CAVOK 03/00 Q1013;
0072101624999992008011007504+53417+011783FM-15+0051EDOP V0202001N00671220001CN0099001N1+00301+00001999999ADDMA1101291999999REMMET045METAR EDOP 100750Z 20013KT CAVOK 03/00 Q1013;
0072101624999992008011008204+53417+011783FM-15+0051EDOP V0202001N00571220001CN0099001N1+00301+00001999999ADDMA1101291999999REMMET045METAR EDOP 100820Z 20011KT CAVOK 03/00 Q1013;
0080101624999992008011008504+53417+011783FM-15+0051EDOP V0201901N00511220001CN0099001N1+00301+00001999999ADDMA1101291999999REMMET053METAR EDOP 100850Z 19010KT 170V230 CAVOK 03/00 Q1013;
0072101624999992008011009204+53417+011783FM-15+0051EDOP V0201801N00571220001CN0099001N1+00301+00001999999ADDMA1101291999999REMMET045METAR EDOP 100920Z 18011KT CAVOK 03/00 Q1013;
0072101624999992008011009504+53417+011783FM-15+0051EDOP V0201801N00721220001CN0099001N1+00301+00001999999ADDMA1101291999999REMMET045METAR EDOP 100950Z 18014KT CAVOK 03/00 Q1013;
0072101624999992008011010204+53417+011783FM-15+0051EDOP V0201901N00671220001CN0099001N1+00401+00101999999ADDMA1101191999999REMMET045METAR EDOP 101020Z 19013KT CAVOK 04/01 Q1012;
0072101624999992008011011204+53417+011783FM-15+0051EDOP V0202101N00721220001CN0099001N1+00501+00101999999ADDMA1101191999999REMMET045METAR EDOP 101120Z 21014KT CAVOK 05/01 Q1012;
0072101624999992008011011504+53417+011783FM-15+0051EDOP V0202101N00771220001CN0099001N1+00601+00101999999ADDMA1101191999999REMMET045METAR EDOP 101150Z 21015KT CAVOK 06/01 Q1012;
0072101624999992008011012504+53417+011783FM-15+0051EDOP V0202001N00671220001CN0099001N1+00601+00101999999ADDMA1101081999999REMMET045METAR EDOP 101250Z 20013KT CAVOK 06/01 Q1011;
0072101624999992008011013204+53417+011783FM-15+0051EDOP V0201901N00511220001CN0099001N1+00601+00001999999ADDMA1101081999999REMMET045METAR EDOP 101320Z 19010KT CAVOK 06/00 Q1011;
0080101624999992008011014204+53417+011783FM-15+0051EDOP V0201801N00511220001CN0099001N1+00501+00001999999ADDMA1101081999999REMMET053METAR EDOP 101420Z 18010KT 150V220 CAVOK 05/00 Q1011;
0072101624999992008011015204+53417+011783FM-15+0051EDOP V0201801N00621220001CN0099001N1+00401+00001999999ADDMA1101021999999REMMET045METAR EDOP 101520Z 18012KT CAVOK 04/00 Q1010;
0072101624999992008011016204+53417+011783FM-15+0051EDOP V0201801N00771220001CN0099001N1+00401+00001999999ADDMA1101021999999REMMET045METAR EDOP 101620Z 18015KT CAVOK 04/00 Q1010;
0072101624999992008011016504+53417+011783FM-15+0051EDOP V0201801N00721220001CN0099001N1+00501+00001999999ADDMA1100911999999REMMET045METAR EDOP 101650Z 18014KT CAVOK 05/00 Q1009;
0130101624999992008011017204+53417+011783FM-15+0051EDOP V0201801N006712200019N0112651N1+00401+00001999999ADDGF100991999999999999999999MA1100911999999MW1711REMMET052METAR EDOP 101720Z 18013KT 9999 -SN NSC 04/00 Q1009;EQDQ01    003SCCGA1
0120101624999992008011106204+53417+011783FM-15+0051EDOP V0201901N007710123019N0112651N1+00701+00401999999ADDGA1071+012301999GF107991999999999999999999MA1100511999999REMMET051METAR EDOP 110620Z 19015KT 9999 BKN041 07/04 Q1005;
0120101624999992008011106504+53417+011783FM-15+0051EDOP V0201901N006210129019N0112651N1+00801+00401999999ADDGA1071+012901999GF107991999999999999999999MA1100511999999REMMET051METAR EDOP 110650Z 19012KT 9999 BKN043 08/04 Q1005;
0120101624999992008011107504+53417+011783FM-15+0051EDOP V0202001N005710123019N0112651N1+00801+00401999999ADDGA1071+012301999GF107991999999999999999999MA1100511999999REMMET051METAR EDOP 110750Z 20011KT 9999 BKN041 08/04 Q1005;
0120101624999992008011108204+53417+011783FM-15+0051EDOP V0201901N007210093019N0112651N1+00801+00401999999ADDGA1071+009301999GF107991999999999999999999MA1100511999999REMMET051METAR EDOP 110820Z 19014KT 9999 BKN031 08/04 Q1005;
0128101624999992008011109204+53417+011783FM-15+0051EDOP V0202001N006710111019N0112651N1+00901+00401999999ADDGA1071+011101999GF107991999999999999999999MA1100611999999REMMET059METAR EDOP 110920Z 20013KT 160V220 9999 BKN037 09/04 Q1006;
0072101624999992008011110204+53417+011783FM-15+0051EDOP V0201901N00621220001CN0099001N1+00901+00401999999ADDMA1100611999999REMMET045METAR EDOP 111020Z 19012KT CAVOK 09/04 Q1006;
0072101624999992008011110504+53417+011783FM-15+0051EDOP V0201901N00621220001CN0099001N1+00901+00401999999ADDMA1100511999999REMMET045METAR EDOP 111050Z 19012KT CAVOK 09/04 Q1005;
0120101624999992008011111204+53417+011783FM-15+0051EDOP V0201901N006212200019N0112651N1+01001+00501999999ADDGA1041+012601999GF104991999999999999999999MA1100511999999REMMET051METAR EDOP 111120Z 19012KT 9999 SCT042 10/05 Q1005;
0080101624999992008011112204+53417+011783FM-15+0051EDOP V0201901N00621220001CN0099001N1+01001+00501999999ADDMA1100411999999REMMET053METAR EDOP 111220Z 19012KT 160V220 CAVOK 10/05 Q1004;
0072101624999992008011112504+53417+011783FM-15+0051EDOP V0201901N00571220001CN0099001N1+01001+00501999999ADDMA1100511999999REMMET045METAR EDOP 111250Z 19011KT CAVOK 10/05 Q1005;
0072101624999992008011113504+53417+011783FM-15+0051EDOP V0201701N00511220001CN0099001N1+01001+00501999999ADDMA1100411999999REMMET045METAR EDOP 111350Z 17010KT CAVOK 10/05 Q1004;
0072101624999992008011114204+53417+011783FM-15+0051EDOP V0201701N00461220001CN0099001N1+01001+00501999999ADDMA1100411999999REMMET045METAR EDOP 111420Z 17009KT CAVOK 10/05 Q1004;
0072101624999992008011114504+53417+011783FM-15+0051EDOP V0201701N00411220001CN0099001N1+00901+00501999999ADDMA1100411999999REMMET045METAR EDOP 111450Z 17008KT CAVOK 09/05 Q1004;
0072101624999992008011115204+53417+011783FM-15+0051EDOP V0201701N00411220001CN0099001N1+01001+00501999999ADDMA1100311999999REMMET045METAR EDOP 111520Z 17008KT CAVOK 10/05 Q1003;
0080101624999992008011115504+53417+011783FM-15+0051EDOP V0201601N00411220001CN0099001N1+00901+00501999999ADDMA1100311999999REMMET053METAR EDOP 111550Z 16008KT 130V190 CAVOK 09/05 Q1003;
0080101624999992008011116504+53417+011783FM-15+0051EDOP V0201701N00621220001CN0099001N1+00901+00501999999ADDMA1100311999999REMMET053METAR EDOP 111650Z 17012KT 140V200 CAVOK 09/05 Q1003;
0073101624999992008011206204+53417+011783FM-15+0051EDOP V0201501N00621220001CN0099001N1+00501-00101999999ADDMA1099801999999REMMET046METAR EDOP 120620Z 15012KT CAVOK 05/M01 Q0998;
0073101624999992008011206504+53417+011783FM-15+0051EDOP V0201601N00671220001CN0099001N1+00501-00101999999ADDMA1099901999999REMMET046METAR EDOP 120650Z 16013KT CAVOK 05/M01 Q0999;
0073101624999992008011207204+53417+011783FM-15+0051EDOP V0201701N00621220001CN0099001N1+00401-00101999999ADDMA1099901999999REMMET046METAR EDOP 120720Z 17012KT CAVOK 04/M01 Q0999;
0081101624999992008011207504+53417+011783FM-15+0051EDOP V0201601N00511220001CN0099001N1+00401-00101999999ADDMA1099901999999REMMET054METAR EDOP 120750Z 16010KT 140V200 CAVOK 04/M01 Q0999;
0081101624999992008011208204+53417+011783FM-15+0051EDOP V0201601N00361220001CN0099001N1+00401-00101999999ADDMA1100001999999REMMET054METAR EDOP 120820Z 16007KT 140V200 CAVOK 04/M01 Q1000;
0073101624999992008011208504+53417+011783FM-15+0051EDOP V0201701N00511220001CN0099001N1+00501-00101999999ADDMA1100001999999REMMET046METAR EDOP 120850Z 17010KT CAVOK 05/M01 Q1000;
0073101624999992008011209204+53417+011783FM-15+0051EDOP V0201801N00621220001CN0099001N1+00501+00001999999ADDMA1100001999999REMMET046METAR EDOP 120920Z 18012KT CAVOK 05/M00 Q1000;
0072101624999992008011209504+53417+011783FM-15+0051EDOP V0201801N00571220001CN0099001N1+00601+00001999999ADDMA1100101999999REMMET045METAR EDOP 120950Z 18011KT CAVOK 06/00 Q1001;
0072101624999992008011210504+53417+011783FM-15+0051EDOP V0201801N00571220001CN0099001N1+00701+00101999999ADDMA1100001999999REMMET045METAR EDOP 121050Z 18011KT CAVOK 07/01 Q1000;
0072101624999992008011211504+53417+011783FM-15+0051EDOP V0201801N00621220001CN0099001N1+00801+00201999999ADDMA1100101999999REMMET045METAR EDOP 121150Z 18012KT CAVOK 08/02 Q1001;
0120101624999992008011212504+53417+011783FM-15+0051EDOP V0202001N005110099019N0112651N1+00801+00201999999ADDGA1071+009901999GF107991999999999999999999MA1100101999999REMMET051METAR EDOP 121250Z 20010KT 9999 BKN033 08/02 Q1001;
0131101624999992008011213504+53417+011783FM-15+0051EDOP V0202301N006710102019N0112651N1+00901+00201999999ADDGA1071+010201999GF107991999999999999999999MA1100201999999OC101181REMMET054METAR EDOP 121350Z 23013G23KT 9999 BKN034 09/02 Q1002;
0120101624999992008011214204+53417+011783FM-15+0051EDOP V0202301N008712200019N0112651N1+00901+00101999999ADDGA1041+011401999GF104991999999999999999999MA1100201999999REMMET051METAR EDOP 121420Z 23017KT 9999 SCT038 09/01 Q1002;
0120101624999992008011215204+53417+011783FM-15+0051EDOP V0202201N008210096019N0112651N1+00801+00201999999ADDGA1071+009601999GF107991999999999999999999MA1100311999999REMMET051METAR EDOP 121520Z 22016KT 9999 BKN032 08/02 Q1003;
0131101624999992008011215504+53417+011783FM-15+0051EDOP V0202301N009810093019N0112651N1+00801+00201999999ADDGA1071+009301999GF107991999999999999999999MA1100311999999OC101651REMMET054METAR EDOP 121550Z 23019G32KT 9999 BKN031 08/02 Q1003;
0120101624999992008011216204+53417+011783FM-15+0051EDOP V0202301N009810078019N0112651N1+00801+00201999999ADDGA1071+007801999GF107991999999999999999999MA1100311999999REMMET051METAR EDOP 121620Z 23019KT 9999 BKN026 08/02 Q1003;
0120101624999992008011216504+53417+011783FM-15+0051EDOP V0202401N011310060019N0112651N1+00701+00301999999ADDGA1071+006001999GF107991999999999999999999MA1100411999999REMMET051METAR EDOP 121650Z 24022KT 9999 BKN020 07/03 Q1004;
0120101624999992008011217204+53417+011783FM-15+0051EDOP V0202501N011310060019N0112651N1+00701+00201999999ADDGA1071+006001999GF107991999999999999999999MA1100511999999REMMET051METAR EDOP 121720Z 25022KT 9999 BKN020 07/02 Q1005;
0073101624999992008011305204+53417+011783FM-15+0051EDOP V0202001N00311220001CN0099001N1+00101-00101999999ADDMA1101591999999REMMET046METAR EDOP 130520Z 20006KT CAVOK 01/M01 Q1016;
0081101624999992008011305504+53417+011783FM-15+0051EDOP V0201901N00361220001CN0099001N1+00101-00101999999ADDMA1101691999999REMMET054METAR EDOP 130550Z 19007KT 160V220 CAVOK 01/M01 Q1017;
0081101624999992008011306204+53417+011783FM-15+0051EDOP V0202001N00461220001CN0099001N1+00101-00101999999ADDMA1101691999999REMMET054METAR EDOP 130620Z 20009KT 160V230 CAVOK 01/M01 Q1017;
0073101624999992008011307204+53417+011783FM-15+0051EDOP V0201901N00461220001CN0099001N1+00101-00101999999ADDMA1101691999999REMMET046METAR EDOP 130720Z 19009KT CAVOK 01/M01 Q1017;
0073101624999992008011307504+53417+011783FM-15+0051EDOP V0201901N00411220001CN0099001N1+00101-00101999999ADDMA1101801999999REMMET046METAR EDOP 130750Z 19008KT CAVOK 01/M01 Q1018;
0073101624999992008011308204+53417+011783FM-15+0051EDOP V0201801N00311220001CN0099001N1+00201-00101999999ADDMA1101801999999REMMET046METAR EDOP 130820Z 18006KT CAVOK 02/M01 Q1018;
0073101624999992008011308504+53417+011783FM-15+0051EDOP V0201801N00461220001CN0099001N1+00201-00101999999ADDMA1101801999999REMMET046METAR EDOP 130850Z 18009KT CAVOK 02/M01 Q1018;
0073101624999992008011309504+53417+011783FM-15+0051EDOP V0201801N00461220001CN0099001N1+00301+00001999999ADDMA1101801999999REMMET046METAR EDOP 130950Z 18009KT CAVOK 03/M00 Q1018;
0081101624999992008011310204+53417+011783FM-15+0051EDOP V0201901N00461220001CN0099001N1+00401+00001999999ADDMA1101801999999REMMET054METAR EDOP 131020Z 19009KT 160V220 CAVOK 04/M00 Q1018;
0081101624999992008011310504+53417+011783FM-15+0051EDOP V0201801N00411220001CN0099001N1+00501+00001999999ADDMA1101801999999REMMET054METAR EDOP 131050Z 18008KT 150V210 CAVOK 05/M00 Q1018;
0072101624999992008011311504+53417+011783FM-15+0051EDOP V0201801N00571220001CN0099001N1+00501+00001999999ADDMA1101691999999REMMET045METAR EDOP 131150Z 18011KT CAVOK 05/00 Q1017;
0072101624999992008011312204+53417+011783FM-15+0051EDOP V0201701N00571220001CN0099001N1+00601+00001999999ADDMA1101691999999REMMET045METAR EDOP 131220Z 17011KT CAVOK 06/00 Q1017;
0080101624999992008011313204+53417+011783FM-15+0051EDOP V0201801N00571220001CN0099001N1+00601+00001999999ADDMA1101691999999REMMET053METAR EDOP 131320Z 18011KT 140V200 CAVOK 06/00 Q1017;
0073101624999992008011313504+53417+011783FM-15+0051EDOP V0201801N00511220001CN0099001N1+00601+00001999999ADDMA1101691999999REMMET046METAR EDOP 131350Z 18010KT CAVOK 06/M00 Q1017;
0073101624999992008011314504+53417+011783FM-15+0051EDOP V0201701N00461220001CN0099001N1+00501+00001999999ADDMA1101691999999REMMET046METAR EDOP 131450Z 17009KT CAVOK 05/M00 Q1017;
0073101624999992008011315204+53417+011783FM-15+0051EDOP V0201701N00411220001CN0099001N1+00401-00101999999ADDMA1101691999999REMMET046METAR EDOP 131520Z 17008KT CAVOK 04/M01 Q1017;
0081101624999992008011315504+53417+011783FM-15+0051EDOP V0201701N00411220001CN0099001N1+00401+00001999999ADDMA1101691999999REMMET054METAR EDOP 131550Z 17008KT 140V200 CAVOK 04/M00 Q1017;
0073101624999992008011316204+53417+011783FM-15+0051EDOP V0201701N00411220001CN0099001N1+00401+00001999999ADDMA1101691999999REMMET046METAR EDOP 131620Z 17008KT CAVOK 04/M00 Q1017;
0073101624999992008011316504+53417+011783FM-15+0051EDOP V0201601N00361220001CN0099001N1+00301+00001999999ADDMA1101691999999REMMET046METAR EDOP 131650Z 16007KT CAVOK 03/M00 Q1017;
0081101624999992008011317204+53417+011783FM-15+0051EDOP V0201701N00311220001CN0099001N1+00301-00101999999ADDMA1101691999999REMMET054METAR EDOP 131720Z 17006KT 140V200 CAVOK 03/M01 Q1017;
0080101624999992008011406204+53417+011783FM-15+0051EDOP V0201101N002112200019N0090001N1+00001-00101999999ADDMA1100911999999REMMET053METAR EDOP 140620Z 11004KT 070V150 9000 00/M01 Q1009;
0129101624999992008011406504+53417+011783FM-15+0051EDOP V0201301N002112200019N0080001N1+00001-00101999999ADDGA1021+003601999GF102991999999999999999999MA1100811999999REMMET060METAR EDOP 140650Z 13004KT 080V180 8000 FEW012 00/M01 Q1008;
0129101624999992008011407504+53417+011783FM-15+0051EDOP V0201601N003612200019N0060001N1+00101-00101999999ADDGA1021+002401999GF102991999999999999999999MA1100811999999REMMET060METAR EDOP 140750Z 16007KT 130V210 6000 FEW008 01/M01 Q1008;
0121101624999992008011408504+53417+011783FM-15+0051EDOP V0201701N004612200019N0060001N1+00101+00001999999ADDGA1021+002401999GF102991999999999999999999MA1100811999999REMMET052METAR EDOP 140850Z 17009KT 6000 FEW008 01/M00 Q1008;
0121101624999992008011409504+53417+011783FM-15+0051EDOP V0201701N004612200019N0080001N1+00201+00001999999ADDGF100991999999999999999999MA1100911999999REMMET049METAR EDOP 140950Z 17009KT 8000 SKC 02/M00 Q1009;EQDQ01    003SCCGA1
0128101624999992008011410204+53417+011783FM-15+0051EDOP V0201701N004112200019N0080001N1+00301+00001999999ADDGF100991999999999999999999MA1100811999999REMMET056METAR EDOP 141020Z 17008KT 130V190 8000 SKC 03/00 Q1008;EQDQ01    003SCCGA1
0129101624999992008011410504+53417+011783FM-15+0051EDOP V0201701N003612200019N0080001N1+00301+00001999999ADDGF100991999999999999999999MA1100811999999REMMET057METAR EDOP 141050Z 17007KT 130V200 8000 NSC 03/M00 Q1008;EQDQ01    003SCCGA1
0121101624999992008011411204+53417+011783FM-15+0051EDOP V0201701N004112200019N0080001N1+00301+00001999999ADDGF100991999999999999999999MA1100811999999REMMET049METAR EDOP 141120Z 17008KT 8000 NSC 03/M00 Q1008;EQDQ01    003SCCGA1
0128101624999992008011411504+53417+011783FM-15+0051EDOP V0201601N003112200019N0090001N1+00401+00001999999ADDGF100991999999999999999999MA1100811999999REMMET056METAR EDOP 141150Z 16006KT 110V190 9000 NSC 04/00 Q1008;EQDQ01    003SCCGA1
0121101624999992008011412204+53417+011783FM-15+0051EDOP V0201601N004112200019N0090001N1+00301+00001999999ADDGF100991999999999999999999MA1100811999999REMMET049METAR EDOP 141220Z 16008KT 9000 NSC 03/M00 Q1008;EQDQ01    003SCCGA1
0081101624999992008011412504+53417+011783FM-15+0051EDOP V0201601N00411220001CN0099001N1+00301+00001999999ADDMA1100811999999REMMET054METAR EDOP 141250Z 16008KT 110V190 CAVOK 03/M00 Q1008;
0081101624999992008011413504+53417+011783FM-15+0051EDOP V0201501N00361220001CN0099001N1+00401+00001999999ADDMA1100811999999REMMET054METAR EDOP 141350Z 15007KT 120V190 CAVOK 04/M00 Q1008;
0081101624999992008011414204+53417+011783FM-15+0051EDOP V0201701N00461220001CN0099001N1+00401+00001999999ADDMA1100811999999REMMET054METAR EDOP 141420Z 17009KT 140V210 CAVOK 04/M00 Q1008;
0073101624999992008011414504+53417+011783FM-15+0051EDOP V0201701N00571220001CN0099001N1+00401+00001999999ADDMA1100811999999REMMET046METAR EDOP 141450Z 17011KT CAVOK 04/M00 Q1008;
0073101624999992008011415504+53417+011783FM-15+0051EDOP V0201601N00511220001CN0099001N1+00401+00001999999ADDMA1100811999999REMMET046METAR EDOP 141550Z 16010KT CAVOK 04/M00 Q1008;
0072101624999992008011416204+53417+011783FM-15+0051EDOP V0201601N00571220001CN0099001N1+00401+00001999999ADDMA1100811999999REMMET045METAR EDOP 141620Z 16011KT CAVOK 04/00 Q1008;
0072101624999992008011416504+53417+011783FM-15+0051EDOP V0201701N00571220001CN0099001N1+00401+00001999999ADDMA1100811999999REMMET045METAR EDOP 141650Z 17011KT CAVOK 04/00 Q1008;
0120101624999992008011506204+53417+011783FM-15+0051EDOP V0201801N006712200019N0112651N1+00501+00101999999ADDGA1021+009601999GF102991999999999999999999MA1100511999999REMMET051METAR EDOP 150620Z 18013KT 9999 FEW032 05/01 Q1005;
0120101624999992008011506504+53417+011783FM-15+0051EDOP V0201801N007212200019N0112651N1+00501+00101999999ADDGA1021+009601999GF102991999999999999999999MA1100511999999REMMET051METAR EDOP 150650Z 18014KT 9999 FEW032 05/01 Q1005;
0072101624999992008011507504+53417+011783FM-15+0051EDOP V0201801N00721220001CN0099001N1+00401+00101999999ADDMA1100511999999REMMET045METAR EDOP 150750Z 18014KT CAVOK 04/01 Q1005;
0072101624999992008011508504+53417+011783FM-15+0051EDOP V0201801N00771220001CN0099001N1+00601+00201999999ADDMA1100411999999REMMET045METAR EDOP 150850Z 18015KT CAVOK 06/02 Q1004;
0120101624999992008011509204+53417+011783FM-15+0051EDOP V0201901N006712200019N0112651N1+00601+00201999999ADDGA1021+011101999GF102991999999999999999999MA1100411999999REMMET051METAR EDOP 150920Z 19013KT 9999 FEW037 06/02 Q1004;
0120101624999992008011509504+53417+011783FM-15+0051EDOP V0201801N006212200019N0112651N1+00601+00201999999ADDGA1041+010501999GF104991999999999999999999MA1100411999999REMMET051METAR EDOP 150950Z 18012KT 9999 SCT035 06/02 Q1004;
0120101624999992008011510204+53417+011783FM-15+0051EDOP V0201801N006712200019N0112651N1+00701+00301999999ADDGA1041+010501999GF104991999999999999999999MA1100411999999REMMET051METAR EDOP 151020Z 18013KT 9999 SCT035 07/03 Q1004;
0120101624999992008011510504+53417+011783FM-15+0051EDOP V0201801N007212200019N0112651N1+00701+00201999999ADDGA1021+010501999GF102991999999999999999999MA1100311999999REMMET051METAR EDOP 151050Z 18014KT 9999 FEW035 07/02 Q1003;
0072101624999992008011511204+53417+011783FM-15+0051EDOP V0201801N00571220001CN0099001N1+00701+00301999999ADDMA1100311999999REMMET045METAR EDOP 151120Z 18011KT CAVOK 07/03 Q1003;
0072101624999992008011511504+53417+011783FM-15+0051EDOP V0201801N00621220001CN0099001N1+00801+00301999999ADDMA1100201999999REMMET045METAR EDOP 151150Z 18012KT CAVOK 08/03 Q1002;
0072101624999992008011512204+53417+011783FM-15+0051EDOP V0201801N00721220001CN0099001N1+00801+00301999999ADDMA1100201999999REMMET045METAR EDOP 151220Z 18014KT CAVOK 08/03 Q1002;
0072101624999992008011512504+53417+011783FM-15+0051EDOP V0201801N00671220001CN0099001N1+00701+00301999999ADDMA1100201999999REMMET045METAR EDOP 151250Z 18013KT CAVOK 07/03 Q1002;
0072101624999992008011513504+53417+011783FM-15+0051EDOP V0201701N00771220001CN0099001N1+00701+00301999999ADDMA1100101999999REMMET045METAR EDOP 151350Z 17015KT CAVOK 07/03 Q1001;
0120101624999992008011514204+53417+011783FM-15+0051EDOP V0201801N007212200019N0112651N1+00701+00301999999ADDGA1041+010501999GF104991999999999999999999MA1100001999999REMMET051METAR EDOP 151420Z 18014KT 9999 SCT035 07/03 Q1000;
0120101624999992008011514504+53417+011783FM-15+0051EDOP V0201701N007212200019N0112651N1+00701+00301999999ADDGA1041+010501999GF104991999999999999999999MA1100001999999REMMET051METAR EDOP 151450Z 17014KT 9999 SCT035 07/03 Q1000;
0072101624999992008011515504+53417+011783FM-15+0051EDOP V0201701N00771220001CN0099001N1+00701+00301999999ADDMA1099801999999REMMET045METAR EDOP 151550Z 17015KT CAVOK 07/03 Q0998;
0072101624999992008011516204+53417+011783FM-15+0051EDOP V0201701N00771220001CN0099001N1+00701+00201999999ADDMA1099801999999REMMET045METAR EDOP 151620Z 17015KT CAVOK 07/02 Q0998;
0072101624999992008011516504+53417+011783FM-15+0051EDOP V0201701N00871220001CN0099001N1+00701+00201999999ADDMA1099701999999REMMET045METAR EDOP 151650Z 17017KT CAVOK 07/02 Q0997;
0072101624999992008011606204+53417+011783FM-15+0051EDOP V0201801N00821220001CN0099001N1+00801+00201999999ADDMA1099191999999REMMET045METAR EDOP 160620Z 18016KT CAVOK 08/02 Q0992;
0128101624999992008011606504+53417+011783FM-15+0051EDOP V0201701N007712200019N0112651N1+00801+00201999999ADDGA1021+013501999GF102991999999999999999999MA1099191999999REMMET059METAR EDOP 160650Z 17015KT 140V200 9999 FEW045 08/02 Q0992;
0120101624999992008011607204+53417+011783FM-15+0051EDOP V0201701N007212200019N0112651N1+00801+00201999999ADDGA1041+012601999GF104991999999999999999999MA1099191999999REMMET051METAR EDOP 160720Z 17014KT 9999 SCT042 08/02 Q0992;
0072101624999992008011608204+53417+011783FM-15+0051EDOP V0201701N00721220001CN0099001N1+00801+00201999999ADDMA1099291999999REMMET045METAR EDOP 160820Z 17014KT CAVOK 08/02 Q0993;
0072101624999992008011608504+53417+011783FM-15+0051EDOP V0201701N00721220001CN0099001N1+00801+00301999999ADDMA1099291999999REMMET045METAR EDOP 160850Z 17014KT CAVOK 08/03 Q0993;
0120101624999992008011609204+53417+011783FM-15+0051EDOP V0201801N006712200019N0112651N1+00801+00301999999ADDGA1021+013501999GF102991999999999999999999MA1099291999999REMMET051METAR EDOP 160920Z 18013KT 9999 FEW045 08/03 Q0993;
0120101624999992008011609504+53417+011783FM-15+0051EDOP V0201801N007712200019N0112651N1+00801+00301999999ADDGA1041+014701999GF104991999999999999999999MA1099291999999REMMET051METAR EDOP 160950Z 18015KT 9999 SCT049 08/03 Q0993;
0128101624999992008011610204+53417+011783FM-15+0051EDOP V0201801N007712200019N0112651N1+00801+00401999999ADDGA1021+014401999GF102991999999999999999999MA1099291999999REMMET059METAR EDOP 161020Z 18015KT 150V210 9999 FEW048 08/04 Q0993;
0120101624999992008011610504+53417+011783FM-15+0051EDOP V0201801N006712200019N0112651N1+00901+00401999999ADDGA1021+009601999GF102991999999999999999999MA1099291999999REMMET051METAR EDOP 161050Z 18013KT 9999 FEW032 09/04 Q0993;
0120101624999992008011611504+53417+011783FM-15+0051EDOP V0201901N007212200019N0112651N1+00901+00401999999ADDGA1041+009601999GF104991999999999999999999MA1099391999999REMMET051METAR EDOP 161150Z 19014KT 9999 SCT032 09/04 Q0994;
0120101624999992008011612204+53417+011783FM-15+0051EDOP V0201901N007210096019N0112651N1+00901+00401999999ADDGA1071+009601999GF107991999999999999999999MA1099491999999REMMET051METAR EDOP 161220Z 19014KT 9999 BKN032 09/04 Q0995;
0120101624999992008011613204+53417+011783FM-15+0051EDOP V0201901N005710120019N0112651N1+00901+00401999999ADDGA1071+012001999GF107991999999999999999999MA1099491999999REMMET051METAR EDOP 161320Z 19011KT 9999 BKN040 09/04 Q0995;
0120101624999992008011614204+53417+011783FM-15+0051EDOP V0201801N004612200019N0112651N1+00901+00401999999ADDGA1041+009001999GF104991999999999999999999MA1099591999999REMMET051METAR EDOP 161420Z 18009KT 9999 SCT030 09/04 Q0996;
0120101624999992008011615204+53417+011783FM-15+0051EDOP V0202001N005112200019N0112651N1+00801+00301999999ADDGA1021+009001999GF102991999999999999999999MA1099701999999REMMET051METAR EDOP 161520Z 20010KT 9999 FEW030 08/03 Q0997;
0072101624999992008011616204+53417+011783FM-15+0051EDOP V0202101N00511220001CN0099001N1+00801+00401999999ADDMA1099801999999REMMET045METAR EDOP 161620Z 21010KT CAVOK 08/04 Q0998;
0072101624999992008011616504+53417+011783FM-15+0051EDOP V0202101N00461220001CN0099001N1+00801+00401999999ADDMA1099901999999REMMET045METAR EDOP 161650Z 21009KT CAVOK 08/04 Q0999;
0130101624999992008011706204+53417+011783FM-15+0051EDOP V0201701N002610075019N0112651N1+00401+00201999999ADDGA1071+007501999GF107991999999999999999999MA1100811999999MW1611REMMET055METAR EDOP 170620Z 17005KT 9999 -RA BKN025 04/02 Q1008;
0120101624999992008011706504+53417+011783FM-15+0051EDOP V0201501N001510063019N0090001N1+00401+00301999999ADDGA1071+006301999GF107991999999999999999999MA1100811999999REMMET051METAR EDOP 170650Z 15003KT 9000 BKN021 04/03 Q1008;
0153101624999992008011707204+53417+011783FM-15+0051EDOP V0201501N002110066019N0080001N1+00401+00301999999ADDGA1021+002401999GA2071+006601999GF107991999999999999999999MA1100911999999MW1611REMMET062METAR EDOP 170720Z 15004KT 8000 -RA FEW008 BKN022 04/03 Q1009;
0130101624999992008011707504+53417+011783FM-15+0051EDOP V0209999C000010054019N0070001N1+00401+00301999999ADDGA1071+005401999GF107991999999999999999999MA1100911999999MW1611REMMET055METAR EDOP 170750Z 00000KT 7000 -RA BKN018 04/03 Q1009;
0120101624999992008011708204+53417+011783FM-15+0051EDOP V0201401N002110054019N0080001N1+00401+00401999999ADDGA1071+005401999GF107991999999999999999999MA1100911999999REMMET051METAR EDOP 170820Z 14004KT 8000 BKN018 04/04 Q1009;
0120101624999992008011708504+53417+011783FM-15+0051EDOP V0209999V001510048019N0090001N1+00401+00401999999ADDGA1071+004801999GF107991999999999999999999MA1100911999999REMMET051METAR EDOP 170850Z VRB03KT 9000 BKN016 04/04 Q1009;
0143101624999992008011709504+53417+011783FM-15+0051EDOP V0201801N002610138019N0112651N1+00501+00401999999ADDGA1021+006001999GA2071+013801999GF107991999999999999999999MA1101021999999REMMET058METAR EDOP 170950Z 18005KT 9999 FEW020 BKN046 05/04 Q1010;
0143101624999992008011710504+53417+011783FM-15+0051EDOP V0202101N003110144019N0112651N1+00601+00501999999ADDGA1021+008101999GA2071+014401999GF107991999999999999999999MA1101021999999REMMET058METAR EDOP 171050Z 21006KT 9999 FEW027 BKN048 06/05 Q1010;
0143101624999992008011711204+53417+011783FM-15+0051EDOP V0202201N004110144019N0112651N1+00701+00501999999ADDGA1041+003001999GA2071+014401999GF107991999999999999999999MA1100911999999REMMET058METAR EDOP 171120Z 22008KT 9999 SCT010 BKN048 07/05 Q1009;
0143101624999992008011711504+53417+011783FM-15+0051EDOP V0202001N003612200019N0112651N1+00701+00501999999ADDGA1041+003001999GA2041+013501999GF104991999999999999999999MA1100911999999REMMET058METAR EDOP 171150Z 20007KT 9999 SCT010 SCT045 07/05 Q1009;
0120101624999992008011713504+53417+011783FM-15+0051EDOP V0201601N004112200019N0112651N1+00701+00401999999ADDGA1041+006001999GF104991999999999999999999MA1100811999999REMMET051METAR EDOP 171350Z 16008KT 9999 SCT020 07/04 Q1008;
0120101624999992008011714204+53417+011783FM-15+0051EDOP V0201901N003610060019N0112651N1+00701+00401999999ADDGA1071+006001999GF107991999999999999999999MA1100911999999REMMET051METAR EDOP 171420Z 19007KT 9999 BKN020 07/04 Q1009;
0120101624999992008011714504+53417+011783FM-15+0051EDOP V0201901N003612200019N0112651N1+00701+00401999999ADDGA1041+007501999GF104991999999999999999999MA1100811999999REMMET051METAR EDOP 171450Z 19007KT 9999 SCT025 07/04 Q1008;
0120101624999992008011715204+53417+011783FM-15+0051EDOP V0201701N002612200019N0112651N1+00601+00401999999ADDGA1041+007501999GF104991999999999999999999MA1100911999999REMMET051METAR EDOP 171520Z 17005KT 9999 SCT025 06/04 Q1009;
0120101624999992008011716204+53417+011783FM-15+0051EDOP V0201601N004112200019N0112651N1+00601+00401999999ADDGA1041+012601999GF104991999999999999999999MA1100811999999REMMET051METAR EDOP 171620Z 16008KT 9999 SCT042 06/04 Q1008;
0120101624999992008011806204+53417+011783FM-15+0051EDOP V0202201N006710060019N0112651N1+00601+00501999999ADDGA1071+006001999GF107991999999999999999999MA1100411999999REMMET051METAR EDOP 180620Z 22013KT 9999 BKN020 06/05 Q1004;
0143101624999992008011806504+53417+011783FM-15+0051EDOP V0202101N006210144019N0112651N1+00601+00501999999ADDGA1041+003601999GA2071+014401999GF107991999999999999999999MA1100411999999REMMET058METAR EDOP 180650Z 21012KT 9999 SCT012 BKN048 06/05 Q1004;
0143101624999992008011807204+53417+011783FM-15+0051EDOP V0202101N006710144019N0090001N1+00601+00501999999ADDGA1041+003601999GA2071+014401999GF107991999999999999999999MA1100511999999REMMET058METAR EDOP 180720Z 21013KT 9000 SCT012 BKN048 06/05 Q1005;
0120101624999992008011808204+53417+011783FM-15+0051EDOP V0202101N006212200019N0080001N1+00601+00501999999ADDGA1041+003001999GF104991999999999999999999MA1100611999999REMMET051METAR EDOP 180820Z 21012KT 8000 SCT010 06/05 Q1006;
0120101624999992008011809204+53417+011783FM-15+0051EDOP V0202401N006712200019N0080001N1+00701+00601999999ADDGA1041+003001999GF104991999999999999999999MA1100711999999REMMET051METAR EDOP 180920Z 24013KT 8000 SCT010 07/06 Q1007;
0143101624999992008011809504+53417+011783FM-15+0051EDOP V0202301N007210045019N0112651N1+00701+00501999999ADDGA1041+003001999GA2071+004501999GF107991999999999999999999MA1100811999999REMMET058METAR EDOP 180950Z 23014KT 9999 SCT010 BKN015 07/05 Q1008;
0143101624999992008011810204+53417+011783FM-15+0051EDOP V0202301N008210045019N0080001N1+00701+00501999999ADDGA1021+003001999GA2071+004501999GF107991999999999999999999MA1100811999999REMMET058METAR EDOP 181020Z 23016KT 8000 FEW010 BKN015 07/05 Q1008;
0120101624999992008011810504+53417+011783FM-15+0051EDOP V0202301N008210045019N0080001N1+00701+00501999999ADDGA1071+004501999GF107991999999999999999999MA1100911999999REMMET051METAR EDOP 181050Z 23016KT 8000 BKN015 07/05 Q1009;
0120101624999992008011811204+53417+011783FM-15+0051EDOP V0202301N008710045019N0080001N1+00701+00501999999ADDGA1071+004501999GF107991999999999999999999MA1100911999999REMMET051METAR EDOP 181120Z 23017KT 8000 BKN015 07/05 Q1009;
0120101624999992008011811504+53417+011783FM-15+0051EDOP V0202501N008210045019N0112651N1+00701+00501999999ADDGA1071+004501999GF107991999999999999999999MA1100911999999REMMET051METAR EDOP 181150Z 25016KT 9999 BKN015 07/05 Q1009;
0120101624999992008011812204+53417+011783FM-15+0051EDOP V0202401N007210051019N0112651N1+00801+00501999999ADDGA1071+005101999GF107991999999999999999999MA1101021999999REMMET051METAR EDOP 181220Z 24014KT 9999 BKN017 08/05 Q1010;
0120101624999992008011812504+53417+011783FM-15+0051EDOP V0202401N007210075019N0112651N1+00801+00501999999ADDGA1071+007501999GF107991999999999999999999MA1101021999999REMMET051METAR EDOP 181250Z 24014KT 9999 BKN025 08/05 Q1010;
0120101624999992008011813504+53417+011783FM-15+0051EDOP V0202401N006710051019N0112651N1+00801+00501999999ADDGA1071+005101999GF107991999999999999999999MA1101081999999REMMET051METAR EDOP 181350Z 24013KT 9999 BKN017 08/05 Q1011;
0120101624999992008011814204+53417+011783FM-15+0051EDOP V0202301N006710063019N0112651N1+00801+00401999999ADDGA1071+006301999GF107991999999999999999999MA1101081999999REMMET051METAR EDOP 181420Z 23013KT 9999 BKN021 08/04 Q1011;
0120101624999992008011814504+53417+011783FM-15+0051EDOP V0202201N006210114019N0112651N1+00801+00401999999ADDGA1071+011401999GF107991999999999999999999MA1101081999999REMMET051METAR EDOP 181450Z 22012KT 9999 BKN038 08/04 Q1011;
0120101624999992008011815504+53417+011783FM-15+0051EDOP V0202101N004610078019N0112651N1+00801+00401999999ADDGA1071+007801999GF107991999999999999999999MA1101191999999REMMET051METAR EDOP 181550Z 21009KT 9999 BKN026 08/04 Q1012;
0120101624999992008011816504+53417+011783FM-15+0051EDOP V0202001N006210069019N0112651N1+00801+00501999999ADDGA1071+006901999GF107991999999999999999999MA1101191999999REMMET051METAR EDOP 181650Z 20012KT 9999 BKN023 08/05 Q1012;
0143101624999992008011906204+53417+011783FM-15+0051EDOP V0202501N007710060019N0112651N1+01101+01101999999ADDGA1021+003001999GA2071+006001999GF107991999999999999999999MA1100711999999REMMET058METAR EDOP 190620Z 25015KT 9999 FEW010 BKN020 11/11 Q1007;
0148101624999992008011907204+53417+011783FM-15+0051EDOP V0202701N007210054019N0112651N1+01101+01101999999ADDGA1021+001501999GA2071+005401999GF107991999999999999999999MA1100811999999REMMET063METAR EDOP 190720Z 27014KT 9999 FEW005 BKN018 11/11 Q1008 RERA;
0120101624999992008011907504+53417+011783FM-15+0051EDOP V0202601N006210039019N0112651N1+01101+01001999999ADDGA1071+003901999GF107991999999999999999999MA1100811999999REMMET051METAR EDOP 190750Z 26012KT 9999 BKN013 11/10 Q1008;
0132101624999992008011908204+53417+011783FM-15+0051EDOP V0202701N004610030019N0080001N1+01101+01101999999ADDGA1071+003001999GF107991999999999999999999MA1100811999999MW1801REMMET057METAR EDOP 190820Z 27009KT 8000 -SHRA BKN010 11/11 Q1008;
0120101624999992008011908504+53417+011783FM-15+0051EDOP V0202601N005710030019N0080001N1+01101+01101999999ADDGA1071+003001999GF107991999999999999999999MA1100911999999REMMET051METAR EDOP 190850Z 26011KT 8000 BKN010 11/11 Q1009;
0130101624999992008011909204+53417+011783FM-15+0051EDOP V0202701N006710036019N0080001N1+01101+01001999999ADDGA1071+003601999GF107991999999999999999999MA1101021999999MW1611REMMET055METAR EDOP 190920Z 27013KT 8000 -RA BKN012 11/10 Q1010;
0153101624999992008011909504+53417+011783FM-15+0051EDOP V0202601N007712200019N0080001N1+01101+00901999999ADDGA1021+003001999GA2041+014401999GF104991999999999999999999MA1101021999999MW1611REMMET062METAR EDOP 190950Z 26015KT 8000 -RA FEW010 SCT048 11/09 Q1010;
0131101624999992008011910204+53417+011783FM-15+0051EDOP V0202701N008710045019N0070001N1+01001+00901999999ADDGA1071+004501999GF107991999999999999999999MA1101021999999MW1811REMMET056METAR EDOP 191020Z 27017KT 7000 SHRA BKN015 10/09 Q1010;
0135101624999992008011910504+53417+011783FM-15+0051EDOP V0202701N007212200019N0080001N1+01001+00901999999ADDGA1041+004501999GF104991999999999999999999MA1101081999999MW1611REMMET060METAR EDOP 191050Z 27014KT 8000 -RA SCT015 10/09 Q1011 RERA;
0120101624999992008011911504+53417+011783FM-15+0051EDOP V0202601N006712200019N0112651N1+01001+00801999999ADDGA1041+004501999GF104991999999999999999999MA1101081999999REMMET051METAR EDOP 191150Z 26013KT 9999 SCT015 10/08 Q1011;
0120101624999992008011912204+53417+011783FM-15+0051EDOP V0202801N004610042019N0112651N1+01001+00901999999ADDGA1071+004201999GF107991999999999999999999MA1101081999999REMMET051METAR EDOP 191220Z 28009KT 9999 BKN014 10/09 Q1011;
0120101624999992008011912504+53417+011783FM-15+0051EDOP V0202601N005710036019N0112651N1+01001+00901999999ADDGA1071+003601999GF107991999999999999999999MA1101081999999REMMET051METAR EDOP 191250Z 26011KT 9999 BKN012 10/09 Q1011;
0120101624999992008011913204+53417+011783FM-15+0051EDOP V0202601N006212200019N0112651N1+01001+00801999999ADDGA1021+004801999GF102991999999999999999999MA1101081999999REMMET051METAR EDOP 191320Z 26012KT 9999 FEW016 10/08 Q1011;
0120101624999992008011914204+53417+011783FM-15+0051EDOP V0202601N007212200019N0112651N1+00901+00701999999ADDGA1041+006001999GF104991999999999999999999MA1101191999999REMMET051METAR EDOP 191420Z 26014KT 9999 SCT020 09/07 Q1012;
0120101624999992008011915204+53417+011783FM-15+0051EDOP V0202701N005112200019N0112651N1+00801+00601999999ADDGA1041+006001999GF104991999999999999999999MA1101291999999REMMET051METAR EDOP 191520Z 27010KT 9999 SCT020 08/06 Q1013;
0120101624999992008011916204+53417+011783FM-15+0051EDOP V0202701N005112200019N0112651N1+00701+00501999999ADDGA1041+006001999GF104991999999999999999999MA1101391999999REMMET051METAR EDOP 191620Z 27010KT 9999 SCT020 07/05 Q1014;
0120101624999992008011916504+53417+011783FM-15+0051EDOP V0202701N004612200019N0112651N1+00601+00401999999ADDGA1021+006001999GF102991999999999999999999MA1101491999999REMMET051METAR EDOP 191650Z 27009KT 9999 FEW020 06/04 Q1015;
0130101624999992008012006204+53417+011783FM-15+0051EDOP V0201801N004612200019N0112651N1+00501+00401999999ADDGA1021+009001999GF102991999999999999999999MA1101591999999MW1611REMMET055METAR EDOP 200620Z 18009KT 9999 -RA FEW030 05/04 Q1016;
0143101624999992008012006504+53417+011783FM-15+0051EDOP V0201801N004612200019N0112651N1+00501+00401999999ADDGA1021+004501999GA2041+009001999GF104991999999999999999999MA1101591999999REMMET058METAR EDOP 200650Z 18009KT 9999 FEW015 SCT030 05/04 Q1016;
0143101624999992008012007204+53417+011783FM-15+0051EDOP V0201801N004612200019N0112651N1+00501+00401999999ADDGA1021+003001999GA2041+009001999GF104991999999999999999999MA1101591999999REMMET058METAR EDOP 200720Z 18009KT 9999 FEW010 SCT030 05/04 Q1016;
0129101624999992008012008204+53417+011783FM-15+0051EDOP V0201801N004610090019N0050001N1+00501+00501999999ADDGA1071+009001999GF107991999999999999999999MA1101591999999MW1631REMMET054METAR EDOP 200820Z 18009KT 5000 RA BKN030 05/05 Q1016;
0153101624999992008012008504+53417+011783FM-15+0051EDOP V0201701N004110075019N0050001N1+00501+00501999999ADDGA1021+003001999GA2071+007501999GF107991999999999999999999MA1101591999999MW1611REMMET062METAR EDOP 200850Z 17008KT 5000 -RA FEW010 BKN025 05/05 Q1016;
0153101624999992008012009204+53417+011783FM-15+0051EDOP V0201801N004110060019N0050001N1+00501+00501999999ADDGA1041+001501999GA2071+006001999GF107991999999999999999999MA1101591999999MW1511REMMET062METAR EDOP 200920Z 18008KT 5000 -DZ SCT005 BKN020 05/05 Q1016;
0161101624999992008012009504+53417+011783FM-15+0051EDOP V0201701N003110075019N0050001N1+00501+00501999999ADDGA1041+001501999GA2071+007501999GF107991999999999999999999MA1101491999999MW1511REMMET070METAR EDOP 200950Z 17006KT 140V200 5000 -DZ SCT005 BKN025 05/05 Q1015;
0153101624999992008012010204+53417+011783FM-15+0051EDOP V0201601N003110093019N0050001N1+00501+00501999999ADDGA1041+001501999GA2071+009301999GF107991999999999999999999MA1101491999999MW1511REMMET062METAR EDOP 201020Z 16006KT 5000 -DZ SCT005 BKN031 05/05 Q1015;
0129101624999992008012010504+53417+011783FM-15+0051EDOP V0201501N003110015019N0045001N1+00601+00501999999ADDGA1071+001501999GF107991999999999999999999MA1101391999999MW1101REMMET054METAR EDOP 201050Z 15006KT 4500 BR BKN005 06/05 Q1014;
0139101624999992008012011204+53417+011783FM-15+0051EDOP V0201501N003110015019N0032001N1+00601+00601999999ADDGA1071+001501999GF107991999999999999999999MA1101291999999MW1101MW2611REMMET058METAR EDOP 201120Z 15006KT 3200 -RA BR BKN005 06/06 Q1013;
0146101624999992008012012204+53417+011783FM-15+0051EDOP V0201401N003110015019N0035001N1+00601+00601999999ADDGA1071+001501999GF107991999999999999999999MA1101191999999MW1101MW2631REMMET065METAR EDOP 201220Z 14006KT 080V170 3500 RA BR BKN005 06/06 Q1012;
0138101624999992008012012504+53417+011783FM-15+0051EDOP V0209999V001510015019N0045001N1+00601+00601999999ADDGA1071+001501999GF107991999999999999999999MA1101191999999MW1101MW2631REMMET057METAR EDOP 201250Z VRB03KT 4500 RA BR BKN005 06/06 Q1012;
0129101624999992008012013204+53417+011783FM-15+0051EDOP V0201001N002110015019N0045001N1+00601+00601999999ADDGA1071+001501999GF107991999999999999999999MA1101081999999MW1101REMMET054METAR EDOP 201320Z 10004KT 4500 BR BKN005 06/06 Q1011;
0129101624999992008012013504+53417+011783FM-15+0051EDOP V0209999V001010015019N0050001N1+00601+00601999999ADDGA1071+001501999GF107991999999999999999999MA1101021999999MW1631REMMET054METAR EDOP 201350Z VRB02KT 5000 RA BKN005 06/06 Q1010;
0129101624999992008012014204+53417+011783FM-15+0051EDOP V0209999V001010012019N0060001N1+00701+00701999999ADDGA1071+001201999GF107991999999999999999999MA1101021999999MW1631REMMET054METAR EDOP 201420Z VRB02KT 6000 RA BKN004 07/07 Q1010;
0129101624999992008012014504+53417+011783FM-15+0051EDOP V0202601N003110015019N0040001N1+00901+00901999999ADDGA1071+001501999GF107991999999999999999999MA1101021999999MW1631REMMET054METAR EDOP 201450Z 26006KT 4000 RA BKN005 09/09 Q1010;
0120101624999992008012015204+53417+011783FM-15+0051EDOP V0202501N005710021019N0070001N1+01001+01001999999ADDGA1071+002101999GF107991999999999999999999MA1100911999999REMMET051METAR EDOP 201520Z 25011KT 7000 BKN007 10/10 Q1009;
0129101624999992008012016204+53417+011783FM-15+0051EDOP V0202601N007210018019N0080001N1+01101+01101999999ADDGA1071+001801999GF107991999999999999999999MA1100911999999MW1631REMMET054METAR EDOP 201620Z 26014KT 8000 RA BKN006 11/11 Q1009;
0129101624999992008012016504+53417+011783FM-15+0051EDOP V0202601N006210024019N0070001N1+01101+01101999999ADDGA1071+002401999GF107991999999999999999999MA1100911999999MW1631REMMET054METAR EDOP 201650Z 26012KT 7000 RA BKN008 11/11 Q1009;
0130101624999992008012106204+53417+011783FM-15+0051EDOP V0202801N004110030019N0112651N1+00701+00701999999ADDGA1071+003001999GF107991999999999999999999MA1100911999999MW1611REMMET055METAR EDOP 210620Z 28008KT 9999 -RA BKN010 07/07 Q1009;
0130101624999992008012107204+53417+011783FM-15+0051EDOP V0202901N005710045019N0112651N1+00601+00501999999ADDGA1071+004501999GF107991999999999999999999MA1100911999999MW1611REMMET055METAR EDOP 210720Z 29011KT 9999 -RA BKN015 06/05 Q1009;
0151101624999992008012107504+53417+011783FM-15+0051EDOP V0202701N005110114019N0112651N1+00601+00401999999ADDGA1041+005401999GA2071+011401999GF107991999999999999999999MA1100911999999REMMET066METAR EDOP 210750Z 27010KT 240V300 9999 SCT018 BKN038 06/04 Q1009;
0120101624999992008012108204+53417+011783FM-15+0051EDOP V0202801N004610117019N0112651N1+00601+00401999999ADDGA1071+011701999GF107991999999999999999999MA1100911999999REMMET051METAR EDOP 210820Z 28009KT 9999 BKN039 06/04 Q1009;
0143101624999992008012108504+53417+011783FM-15+0051EDOP V0202701N004610123019N0112651N1+00601+00501999999ADDGA1041+004501999GA2071+012301999GF107991999999999999999999MA1100911999999REMMET058METAR EDOP 210850Z 27009KT 9999 SCT015 BKN041 06/05 Q1009;
0120101624999992008012109504+53417+011783FM-15+0051EDOP V0202601N004110126019N0112651N1+00601+00501999999ADDGA1071+012601999GF107991999999999999999999MA1100911999999REMMET051METAR EDOP 210950Z 26008KT 9999 BKN042 06/05 Q1009;
0120101624999992008012110504+53417+011783FM-15+0051EDOP V0202501N005110138019N0112651N1+00701+00501999999ADDGA1071+013801999GF107991999999999999999999MA1100811999999REMMET051METAR EDOP 211050Z 25010KT 9999 BKN046 07/05 Q1008;
0120101624999992008012111204+53417+011783FM-15+0051EDOP V0202601N005710144019N0112651N1+00701+00501999999ADDGA1071+014401999GF107991999999999999999999MA1100711999999REMMET051METAR EDOP 211120Z 26011KT 9999 BKN048 07/05 Q1007;
0130101624999992008012111504+53417+011783FM-15+0051EDOP V0202501N005710114019N0112651N1+00701+00501999999ADDGA1071+011401999GF107991999999999999999999MA1100711999999MW1611REMMET055METAR EDOP 211150Z 25011KT 9999 -RA BKN038 07/05 Q1007;
0130101624999992008012112204+53417+011783FM-15+0051EDOP V0202601N006710135019N0112651N1+00701+00501999999ADDGA1071+013501999GF107991999999999999999999MA1100611999999MW1611REMMET055METAR EDOP 211220Z 26013KT 9999 -RA BKN045 07/05 Q1006;
0130101624999992008012112504+53417+011783FM-15+0051EDOP V0202601N005710075019N0112651N1+00601+00401999999ADDGA1071+007501999GF107991999999999999999999MA1100611999999MW1611REMMET055METAR EDOP 211250Z 26011KT 9999 -RA BKN025 06/04 Q1006;
0137101624999992008012113204+53417+011783FM-15+0051EDOP V0202701N004110063019N0112651N1+00601+00501999999ADDGA1071+006301999GF107991999999999999999999MA1100611999999MW1631REMMET062METAR EDOP 211320Z 27008KT 240V310 9999 RA BKN021 06/05 Q1006;
0135101624999992008012113504+53417+011783FM-15+0051EDOP V0202701N004110063019N0112651N1+00601+00501999999ADDGA1071+006301999GF107991999999999999999999MA1100511999999MW1611REMMET060METAR EDOP 211350Z 27008KT 9999 -RA BKN021 06/05 Q1005 RERA;
0129101624999992008012114504+53417+011783FM-15+0051EDOP V0202701N004110036019N0060001N1+00501+00401999999ADDGA1071+003601999GF107991999999999999999999MA1100511999999MW1631REMMET054METAR EDOP 211450Z 27008KT 6000 RA BKN012 05/04 Q1005;
0129101624999992008012115504+53417+011783FM-15+0051EDOP V0202701N003610060019N0070001N1+00401+00401999999ADDGA1071+006001999GF107991999999999999999999MA1100511999999MW1631REMMET054METAR EDOP 211550Z 27007KT 7000 RA BKN020 04/04 Q1005;
0129101624999992008012116204+53417+011783FM-15+0051EDOP V0202801N003110036019N0070001N1+00401+00401999999ADDGA1071+003601999GF107991999999999999999999MA1100411999999MW1631REMMET054METAR EDOP 211620Z 28006KT 7000 RA BKN012 04/04 Q1004;
0128101624999992008012206204+53417+011783FM-15+0051EDOP V0203101N003610045019N0112651N1+00201+00101999999ADDGA1071+004501999GF107991999999999999999999MA1100411999999REMMET059METAR EDOP 220620Z 31007KT 280V350 9999 BKN015 02/01 Q1004;
0128101624999992008012206504+53417+011783FM-15+0051EDOP V0203201N004110051019N0112651N1+00201+00101999999ADDGA1071+005101999GF107991999999999999999999MA1100511999999REMMET059METAR EDOP 220650Z 32008KT 280V360 9999 BKN017 02/01 Q1005;
0129101624999992008012207204+53417+011783FM-15+0051EDOP V0203201N005112200019N0112651N1+00101+00001999999ADDGA1041+004801999GF104991999999999999999999MA1100711999999REMMET060METAR EDOP 220720Z 32010KT 290V350 9999 SCT016 01/M00 Q1007;
0129101624999992008012207504+53417+011783FM-15+0051EDOP V0203201N004612200019N0112651N1+00101+00001999999ADDGA1041+006601999GF104991999999999999999999MA1100711999999REMMET060METAR EDOP 220750Z 32009KT 290V350 9999 SCT022 01/M00 Q1007;
0129101624999992008012208204+53417+011783FM-15+0051EDOP V0203301N005710081019N0112651N1+00201-00101999999ADDGA1071+008101999GF107991999999999999999999MA1100811999999REMMET060METAR EDOP 220820Z 33011KT 290V010 9999 BKN027 02/M01 Q1008;
0129101624999992008012208504+53417+011783FM-15+0051EDOP V0203401N004610090019N0112651N1+00201-00101999999ADDGA1071+009001999GF107991999999999999999999MA1101021999999REMMET060METAR EDOP 220850Z 34009KT 300V020 9999 BKN030 02/M01 Q1010;
0152101624999992008012209204+53417+011783FM-15+0051EDOP V0203301N004610102019N0112651N1+00201-00101999999ADDGA1021+006001999GA2071+010201999GF107991999999999999999999MA1101021999999REMMET067METAR EDOP 220920Z 33009KT 290V010 9999 FEW020 BKN034 02/M01 Q1010;
0129101624999992008012209504+53417+011783FM-15+0051EDOP V0203301N006212200019N0112651N1+00301-00101999999ADDGA1021+006901999GF102991999999999999999999MA1101081999999REMMET060METAR EDOP 220950Z 33012KT 300V010 9999 FEW023 03/M01 Q1011;
0129101624999992008012210504+53417+011783FM-15+0051EDOP V0203101N005710060019N0112651N1+00301-00101999999ADDGA1071+006001999GF107991999999999999999999MA1101291999999REMMET060METAR EDOP 221050Z 31011KT 270V340 9999 BKN020 03/M01 Q1013;
0129101624999992008012211204+53417+011783FM-15+0051EDOP V0203101N006210060019N0112651N1+00201-00201999999ADDGA1071+006001999GF107991999999999999999999MA1101391999999REMMET060METAR EDOP 221120Z 31012KT 280V340 9999 BKN020 02/M02 Q1014;
0152101624999992008012212204+53417+011783FM-15+0051EDOP V0203101N005712200019N0112651N1+00301-00201999999ADDGA1021+006001999GA2041+009601999GF104991999999999999999999MA1101491999999REMMET067METAR EDOP 221220Z 31011KT 280V350 9999 FEW020 SCT032 03/M02 Q1015;
0152101624999992008012212504+53417+011783FM-15+0051EDOP V0203201N005710105019N0112651N1+00301-00301999999ADDGA1041+007501999GA2071+010501999GF107991999999999999999999MA1101591999999REMMET067METAR EDOP 221250Z 32011KT 290V350 9999 SCT025 BKN035 03/M03 Q1016;
0121101624999992008012213504+53417+011783FM-15+0051EDOP V0203001N005110084019N0112651N1+00201-00301999999ADDGA1071+008401999GF107991999999999999999999MA1101691999999REMMET052METAR EDOP 221350Z 30010KT 9999 BKN028 02/M03 Q1017;
0121101624999992008012214204+53417+011783FM-15+0051EDOP V0203001N005110084019N0112651N1+00201-00301999999ADDGA1071+008401999GF107991999999999999999999MA1101801999999REMMET052METAR EDOP 221420Z 30010KT 9999 BKN028 02/M03 Q1018;
0129101624999992008012214504+53417+011783FM-15+0051EDOP V0202901N004112200019N0112651N1+00201-00201999999ADDGA1041+009001999GF104991999999999999999999MA1101801999999REMMET060METAR EDOP 221450Z 29008KT 260V320 9999 SCT030 02/M02 Q1018;
0121101624999992008012215204+53417+011783FM-15+0051EDOP V0202901N003612200019N0112651N1+00201-00201999999ADDGA1041+009001999GF104991999999999999999999MA1101901999999REMMET052METAR EDOP 221520Z 29007KT 9999 SCT030 02/M02 Q1019;
0121101624999992008012215504+53417+011783FM-15+0051EDOP V0202801N003112200019N0112651N1+00201-00201999999ADDGA1041+008401999GF104991999999999999999999MA1102001999999REMMET052METAR EDOP 221550Z 28006KT 9999 SCT028 02/M02 Q1020;
0121101624999992008012216204+53417+011783FM-15+0051EDOP V0202801N005112200019N0112651N1+00201-00201999999ADDGA1041+010801999GF104991999999999999999999MA1102001999999REMMET052METAR EDOP 221620Z 28010KT 9999 SCT036 02/M02 Q1020;
0121101624999992008012216504+53417+011783FM-15+0051EDOP V0202901N003612200019N0112651N1+00101-00201999999ADDGA1021+011401999GF102991999999999999999999MA1102101999999REMMET052METAR EDOP 221650Z 29007KT 9999 FEW038 01/M02 Q1021;
0122101624999992008012217204+53417+011783FM-15+0051EDOP V0202801N003612200019N0112651N1+00001-00301999999ADDGA1021+011401999GF102991999999999999999999MA1102101999999REMMET053METAR EDOP 221720Z 28007KT 9999 FEW038 M00/M03 Q1021;
0074101624999992008012306204+53417+011783FM-15+0051EDOP V0202501N00411220001CN0099001N1-00101-00101999999ADDMA1102811999999REMMET047METAR EDOP 230620Z 25008KT CAVOK M01/M01 Q1028;
0074101624999992008012306504+53417+011783FM-15+0051EDOP V0202501N00361220001CN0099001N1-00101-00101999999ADDMA1102811999999REMMET047METAR EDOP 230650Z 25007KT CAVOK M01/M01 Q1028;
0072101624999992008012307504+53417+011783FM-15+0051EDOP V0202401N00361220001CN0099001N1+00101+00101999999ADDMA1102811999999REMMET045METAR EDOP 230750Z 24007KT CAVOK 01/01 Q1028;
0072101624999992008012308204+53417+011783FM-15+0051EDOP V0202401N00261220001CN0099001N1+00101+00001999999ADDMA1102811999999REMMET045METAR EDOP 230820Z 24005KT CAVOK 01/00 Q1028;
0072101624999992008012308504+53417+011783FM-15+0051EDOP V0202101N00411220001CN0099001N1+00101+00001999999ADDMA1102811999999REMMET045METAR EDOP 230850Z 21008KT CAVOK 01/00 Q1028;
0072101624999992008012309204+53417+011783FM-15+0051EDOP V0202001N00311220001CN0099001N1+00201+00101999999ADDMA1102811999999REMMET045METAR EDOP 230920Z 20006KT CAVOK 02/01 Q1028;
0080101624999992008012310204+53417+011783FM-15+0051EDOP V0202001N00461220001CN0099001N1+00201+00101999999ADDMA1102811999999REMMET053METAR EDOP 231020Z 20009KT 170V230 CAVOK 02/01 Q1028;
0072101624999992008012310504+53417+011783FM-15+0051EDOP V0202101N00461220001CN0099001N1+00201+00101999999ADDMA1102811999999REMMET045METAR EDOP 231050Z 21009KT CAVOK 02/01 Q1028;
0072101624999992008012311204+53417+011783FM-15+0051EDOP V0202001N00411220001CN0099001N1+00301+00101999999ADDMA1102711999999REMMET045METAR EDOP 231120Z 20008KT CAVOK 03/01 Q1027;
0072101624999992008012312204+53417+011783FM-15+0051EDOP V0202001N00511220001CN0099001N1+00401+00101999999ADDMA1102611999999REMMET045METAR EDOP 231220Z 20010KT CAVOK 04/01 Q1026;
0072101624999992008012312504+53417+011783FM-15+0051EDOP V0202001N00621220001CN0099001N1+00401+00101999999ADDMA1102611999999REMMET045METAR EDOP 231250Z 20012KT CAVOK 04/01 Q1026;
0080101624999992008012313204+53417+011783FM-15+0051EDOP V0202001N00571220001CN0099001N1+00401+00101999999ADDMA1102511999999REMMET053METAR EDOP 231320Z 20011KT 160V230 CAVOK 04/01 Q1025;
0130101624999992008012313504+53417+011783FM-15+0051EDOP V0202101N005112200019N0112651N1+00501+00101999999ADDGA1041+014401999GF104991999999999999999999MA1102511999999MW1611REMMET055METAR EDOP 231350Z 21010KT 9999 -RA SCT048 05/01 Q1025;
0130101624999992008012314204+53417+011783FM-15+0051EDOP V0202001N005112200019N0112651N1+00501+00101999999ADDGA1041+012001999GF104991999999999999999999MA1102511999999MW1611REMMET055METAR EDOP 231420Z 20010KT 9999 -RA SCT040 05/01 Q1025;
0130101624999992008012314504+53417+011783FM-15+0051EDOP V0201901N005110090019N0080001N1+00501+00101999999ADDGA1071+009001999GF107991999999999999999999MA1102401999999MW1611REMMET055METAR EDOP 231450Z 19010KT 8000 -RA BKN030 05/01 Q1024;
0138101624999992008012315204+53417+011783FM-15+0051EDOP V0201901N003610060019N0070001N1+00401+00201999999ADDGA1071+006001999GF107991999999999999999999MA1102401999999MW1511REMMET063METAR EDOP 231520Z 19007KT 160V220 7000 -DZ BKN020 04/02 Q1024;
0138101624999992008012315504+53417+011783FM-15+0051EDOP V0201901N004110060019N0060001N1+00401+00201999999ADDGA1071+006001999GF107991999999999999999999MA1102401999999MW1611REMMET063METAR EDOP 231550Z 19008KT 160V220 6000 -RA BKN020 04/02 Q1024;
0129101624999992008012316204+53417+011783FM-15+0051EDOP V0202001N005110060019N0060001N1+00401+00301999999ADDGA1071+006001999GF107991999999999999999999MA1102401999999MW1531REMMET054METAR EDOP 231620Z 20010KT 6000 DZ BKN020 04/03 Q1024;
0129101624999992008012316504+53417+011783FM-15+0051EDOP V0201901N006210060019N0080001N1+00401+00301999999ADDGA1071+006001999GF107991999999999999999999MA1102401999999MW1531REMMET054METAR EDOP 231650Z 19012KT 8000 DZ BKN020 04/03 Q1024;
0137101624999992008012318504+53417+011783FM-15+0051EDOP V0202001N005710018019N0050001N1+00401+00401999999ADDGA1071+001801999GF107991999999999999999999MA1102301999999MW1531MW2631REMMET056METAR EDOP 231850Z 20011KT 5000 RADZ BKN006 04/04 Q1023;
0134101624999992008012319204+53417+011783FM-15+0051EDOP V0202101N006710015019N0030001N1+00401+00401999999ADDGA1071+001501999GF107991999999999999999999MA1102301999999MW1101REMMET059METAR EDOP 231920Z 21013KT 3000 BR BKN005 04/04 Q1023 RERA;
0129101624999992008012319504+53417+011783FM-15+0051EDOP V0202201N005710015019N0030001N1+00401+00401999999ADDGA1071+001501999GF107991999999999999999999MA1102201999999MW1101REMMET054METAR EDOP 231950Z 22011KT 3000 BR BKN005 04/04 Q1022;
0129101624999992008012320204+53417+011783FM-15+0051EDOP V0202201N005710015019N0030001N1+00401+00401999999ADDGA1071+001501999GF107991999999999999999999MA1102201999999MW1101REMMET054METAR EDOP 232020Z 22011KT 3000 BR BKN005 04/04 Q1022;
0129101624999992008012320504+53417+011783FM-15+0051EDOP V0202201N005710015019N0035001N1+00401+00401999999ADDGA1071+001501999GF107991999999999999999999MA1102201999999MW1101REMMET054METAR EDOP 232050Z 22011KT 3500 BR BKN005 04/04 Q1022;
0129101624999992008012321204+53417+011783FM-15+0051EDOP V0202301N006210012019N0028001N1+00501+00501999999ADDGA1071+001201999GF107991999999999999999999MA1102201999999MW1101REMMET054METAR EDOP 232120Z 23012KT 2800 BR BKN004 05/05 Q1022;
0129101624999992008012321504+53417+011783FM-15+0051EDOP V0202301N005710012019N0025001N1+00501+00501999999ADDGA1071+001201999GF107991999999999999999999MA1102201999999MW1101REMMET054METAR EDOP 232150Z 23011KT 2500 BR BKN004 05/05 Q1022;
0129101624999992008012322204+53417+011783FM-15+0051EDOP V0202301N005710012019N0023001N1+00501+00501999999ADDGA1071+001201999GF107991999999999999999999MA1102201999999MW1101REMMET054METAR EDOP 232220Z 23011KT 2300 BR BKN004 05/05 Q1022;
0129101624999992008012322504+53417+011783FM-15+0051EDOP V0202201N005710012019N0023001N1+00501+00501999999ADDGA1071+001201999GF107991999999999999999999MA1102201999999MW1101REMMET054METAR EDOP 232250Z 22011KT 2300 BR BKN004 05/05 Q1022;
0139101624999992008012323504+53417+011783FM-15+0051EDOP V0202101N005110012019N0022001N1+00501+00501999999ADDGA1071+001201999GF107991999999999999999999MA1102201999999MW1101MW2611REMMET058METAR EDOP 232350Z 21010KT 2200 -RA BR BKN004 05/05 Q1022;
0120101624999992008012405204+53417+011783FM-15+0051EDOP V0202301N007210024019N0070001N1+00701+00701999999ADDGA1071+002401999GF107991999999999999999999MA1102101999999REMMET051METAR EDOP 240520Z 23014KT 7000 BKN008 07/07 Q1021;
0120101624999992008012405504+53417+011783FM-15+0051EDOP V0202201N007210030019N0060001N1+00801+00801999999ADDGA1071+003001999GF107991999999999999999999MA1102001999999REMMET051METAR EDOP 240550Z 22014KT 6000 BKN010 08/08 Q1020;
0120101624999992008012406204+53417+011783FM-15+0051EDOP V0202301N007210021019N0060001N1+00801+00801999999ADDGA1071+002101999GF107991999999999999999999MA1102001999999REMMET051METAR EDOP 240620Z 23014KT 6000 BKN007 08/08 Q1020;
0129101624999992008012407204+53417+011783FM-15+0051EDOP V0202301N007210018019N0040001N1+00801+00801999999ADDGA1071+001801999GF107991999999999999999999MA1102001999999MW1531REMMET054METAR EDOP 240720Z 23014KT 4000 DZ BKN006 08/08 Q1020;
0129101624999992008012407504+53417+011783FM-15+0051EDOP V0202301N007710021019N0045001N1+00801+00801999999ADDGA1071+002101999GF107991999999999999999999MA1102101999999MW1531REMMET054METAR EDOP 240750Z 23015KT 4500 DZ BKN007 08/08 Q1021;
0129101624999992008012408204+53417+011783FM-15+0051EDOP V0202301N008210021019N0045001N1+00801+00801999999ADDGA1071+002101999GF107991999999999999999999MA1102101999999MW1531REMMET054METAR EDOP 240820Z 23016KT 4500 DZ BKN007 08/08 Q1021;
0129101624999992008012408504+53417+011783FM-15+0051EDOP V0202301N007710024019N0045001N1+00801+00801999999ADDGA1071+002401999GF107991999999999999999999MA1102101999999MW1531REMMET054METAR EDOP 240850Z 23015KT 4500 DZ BKN008 08/08 Q1021;
0120101624999992008012409204+53417+011783FM-15+0051EDOP V0202401N007710021019N0050001N1+00801+00801999999ADDGA1071+002101999GF107991999999999999999999MA1102101999999REMMET051METAR EDOP 240920Z 24015KT 5000 BKN007 08/08 Q1021;
0120101624999992008012410204+53417+011783FM-15+0051EDOP V0202301N007210024019N0060001N1+00801+00801999999ADDGA1071+002401999GF107991999999999999999999MA1102101999999REMMET051METAR EDOP 241020Z 23014KT 6000 BKN008 08/08 Q1021;
0120101624999992008012410504+53417+011783FM-15+0051EDOP V0202301N007710021019N0060001N1+00801+00801999999ADDGA1071+002101999GF107991999999999999999999MA1102101999999REMMET051METAR EDOP 241050Z 23015KT 6000 BKN007 08/08 Q1021;
0120101624999992008012411204+53417+011783FM-15+0051EDOP V0202401N008210021019N0060001N1+00801+00801999999ADDGA1071+002101999GF107991999999999999999999MA1102101999999REMMET051METAR EDOP 241120Z 24016KT 6000 BKN007 08/08 Q1021;
0120101624999992008012411504+53417+011783FM-15+0051EDOP V0202301N007210024019N0070001N1+00801+00801999999ADDGA1071+002401999GF107991999999999999999999MA1102101999999REMMET051METAR EDOP 241150Z 23014KT 7000 BKN008 08/08 Q1021;
0120101624999992008012412204+53417+011783FM-15+0051EDOP V0202301N008210024019N0070001N1+00901+00801999999ADDGA1071+002401999GF107991999999999999999999MA1102001999999REMMET051METAR EDOP 241220Z 23016KT 7000 BKN008 09/08 Q1020;
0120101624999992008012412504+53417+011783FM-15+0051EDOP V0202301N006710021019N0060001N1+00801+00801999999ADDGA1071+002101999GF107991999999999999999999MA1102001999999REMMET051METAR EDOP 241250Z 23013KT 6000 BKN007 08/08 Q1020;
0120101624999992008012413204+53417+011783FM-15+0051EDOP V0202301N007710024019N0070001N1+00901+00801999999ADDGA1071+002401999GF107991999999999999999999MA1102001999999REMMET051METAR EDOP 241320Z 23015KT 7000 BKN008 09/08 Q1020;
0120101624999992008012414204+53417+011783FM-15+0051EDOP V0202201N006710027019N0080001N1+00901+00701999999ADDGA1071+002701999GF107991999999999999999999MA1101901999999REMMET051METAR EDOP 241420Z 22013KT 8000 BKN009 09/07 Q1019;
0130101624999992008012414504+53417+011783FM-15+0051EDOP V0202301N007710021019N0050001N1+00901+00801999999ADDGA1071+002101999GF107991999999999999999999MA1101901999999MW1611REMMET055METAR EDOP 241450Z 23015KT 5000 -RA BKN007 09/08 Q1019;
0130101624999992008012415204+53417+011783FM-15+0051EDOP V0202301N007710018019N0050001N1+00801+00801999999ADDGA1071+001801999GF107991999999999999999999MA1101901999999MW1611REMMET055METAR EDOP 241520Z 23015KT 5000 -RA BKN006 08/08 Q1019;
0139101624999992008012415504+53417+011783FM-15+0051EDOP V0202401N008210021019N0045001N1+00801+00801999999ADDGA1071+002101999GF107991999999999999999999MA1101901999999MW1101MW2611REMMET058METAR EDOP 241550Z 24016KT 4500 -RA BR BKN007 08/08 Q1019;
0139101624999992008012416204+53417+011783FM-15+0051EDOP V0202401N008210021019N0045001N1+00801+00801999999ADDGA1071+002101999GF107991999999999999999999MA1101901999999MW1101MW2611REMMET058METAR EDOP 241620Z 24016KT 4500 -RA BR BKN007 08/08 Q1019;
0130101624999992008012416504+53417+011783FM-15+0051EDOP V0202401N008210018019N0050001N1+00801+00801999999ADDGA1071+001801999GF107991999999999999999999MA1101901999999MW1611REMMET055METAR EDOP 241650Z 24016KT 5000 -RA BKN006 08/08 Q1019;
0130101624999992008012417204+53417+011783FM-15+0051EDOP V0202501N006710015019N0050001N1+00801+00801999999ADDGA1071+001501999GF107991999999999999999999MA1101901999999MW1611REMMET055METAR EDOP 241720Z 25013KT 5000 -RA BKN005 08/08 Q1019;
0072101624999992008012506204+53417+011783FM-15+0051EDOP V0202301N00771220001CN0099001N1+00301+00001999999ADDMA1102911999999REMMET045METAR EDOP 250620Z 23015KT CAVOK 03/00 Q1029;
0072101624999992008012506504+53417+011783FM-15+0051EDOP V0202301N00821220001CN0099001N1+00301+00001999999ADDMA1102911999999REMMET045METAR EDOP 250650Z 23016KT CAVOK 03/00 Q1029;
0072101624999992008012507204+53417+011783FM-15+0051EDOP V0202301N00821220001CN0099001N1+00301+00001999999ADDMA1102911999999REMMET045METAR EDOP 250720Z 23016KT CAVOK 03/00 Q1029;
0072101624999992008012507504+53417+011783FM-15+0051EDOP V0202301N00871220001CN0099001N1+00301+00001999999ADDMA1102911999999REMMET045METAR EDOP 250750Z 23017KT CAVOK 03/00 Q1029;
0072101624999992008012508204+53417+011783FM-15+0051EDOP V0202301N00981220001CN0099001N1+00301+00001999999ADDMA1102911999999REMMET045METAR EDOP 250820Z 23019KT CAVOK 03/00 Q1029;
0073101624999992008012508504+53417+011783FM-15+0051EDOP V0202301N00931220001CN0099001N1+00401+00001999999ADDMA1102911999999REMMET046METAR EDOP 250850Z 23018KT CAVOK 04/M00 Q1029;
0073101624999992008012509204+53417+011783FM-15+0051EDOP V0202301N01081220001CN0099001N1+00501+00001999999ADDMA1102811999999REMMET046METAR EDOP 250920Z 23021KT CAVOK 05/M00 Q1028;
0083101624999992008012510204+53417+011783FM-15+0051EDOP V0202301N01131220001CN0099001N1+00601+00001999999ADDMA1102811999999OC101651REMMET048METAR EDOP 251020Z 23022G32KT CAVOK 06/00 Q1028;
0072101624999992008012510504+53417+011783FM-15+0051EDOP V0202401N01131220001CN0099001N1+00601+00001999999ADDMA1102811999999REMMET045METAR EDOP 251050Z 24022KT CAVOK 06/00 Q1028;
0072101624999992008012511204+53417+011783FM-15+0051EDOP V0202401N01131220001CN0099001N1+00601+00101999999ADDMA1102711999999REMMET045METAR EDOP 251120Z 24022KT CAVOK 06/01 Q1027;
0072101624999992008012511504+53417+011783FM-15+0051EDOP V0202401N01181220001CN0099001N1+00601+00001999999ADDMA1102711999999REMMET045METAR EDOP 251150Z 24023KT CAVOK 06/00 Q1027;
0084101624999992008012512204+53417+011783FM-15+0051EDOP V0202401N01341220001CN0099001N1+00701+00001999999ADDMA1102611999999OC101951REMMET049METAR EDOP 251220Z 24026G38KT CAVOK 07/M00 Q1026;
0120101624999992008012512504+53417+011783FM-15+0051EDOP V0202401N012312200019N0112651N1+00701+00001999999ADDGA1041+009901999GF104991999999999999999999MA1102611999999REMMET051METAR EDOP 251250Z 24024KT 9999 SCT033 07/00 Q1026;
0120101624999992008012513204+53417+011783FM-15+0051EDOP V0202501N010310087019N0112651N1+00701+00101999999ADDGA1071+008701999GF107991999999999999999999MA1102611999999REMMET051METAR EDOP 251320Z 25020KT 9999 BKN029 07/01 Q1026;
0120101624999992008012514204+53417+011783FM-15+0051EDOP V0202501N010310078019N0112651N1+00701+00101999999ADDGA1071+007801999GF107991999999999999999999MA1102611999999REMMET051METAR EDOP 251420Z 25020KT 9999 BKN026 07/01 Q1026;
0120101624999992008012514504+53417+011783FM-15+0051EDOP V0202401N010810075019N0112651N1+00701+00201999999ADDGA1071+007501999GF107991999999999999999999MA1102511999999REMMET051METAR EDOP 251450Z 24021KT 9999 BKN025 07/02 Q1025;
0120101624999992008012515204+53417+011783FM-15+0051EDOP V0202401N011310072019N0112651N1+00701+00201999999ADDGA1071+007201999GF107991999999999999999999MA1102511999999REMMET051METAR EDOP 251520Z 24022KT 9999 BKN024 07/02 Q1025;
0120101624999992008012516204+53417+011783FM-15+0051EDOP V0202501N010810069019N0112651N1+00701+00201999999ADDGA1071+006901999GF107991999999999999999999MA1102511999999REMMET051METAR EDOP 251620Z 25021KT 9999 BKN023 07/02 Q1025;
0120101624999992008012516504+53417+011783FM-15+0051EDOP V0202501N009310069019N0112651N1+00701+00301999999ADDGA1071+006901999GF107991999999999999999999MA1102511999999REMMET051METAR EDOP 251650Z 25018KT 9999 BKN023 07/03 Q1025;
0141101624999992008012517504+53417+011783FM-15+0051EDOP V0202501N011810060019N0112651N1+00701+00301999999ADDGA1071+006001999GF107991999999999999999999MA1102511999999MW1611OC101701REMMET058METAR EDOP 251750Z 25023G33KT 9999 -RA BKN020 07/03 Q1025;
0120101624999992008012606204+53417+011783FM-15+0051EDOP V0202501N010810054019N0112651N1+00801+00401999999ADDGA1071+005401999GF107991999999999999999999MA1102201999999REMMET051METAR EDOP 260620Z 25021KT 9999 BKN018 08/04 Q1022;
0120101624999992008012606504+53417+011783FM-15+0051EDOP V0202401N011810051019N0112651N1+00801+00401999999ADDGA1071+005101999GF107991999999999999999999MA1102101999999REMMET051METAR EDOP 260650Z 24023KT 9999 BKN017 08/04 Q1021;
