0149102340999992011071010524+53133+009350FM-16+0061ETGQ V0203501N001512200019N0112651N1+02401+00501999999ADDGA1021+015001999GF102991999999999999999999MA1101801999999REMMET080SPECI ETGQ 101052Z 35003KT 9999 FEW050 /A/NS2/ /A/NS3/ /A/NS4/ 24/05 Q1018 BLU/;
0203102340999992011082614124+53133+009350FM-16+0061ETGQ V0202201N004610120019N0090001N1+02701+01401999999ADDGA1021+007501999GA2071+012001091GA3071+075001999GF107991999999999999999999MA1100711999999MW1161MW2171OC102371REMMET082SPECI ETGQ 261412Z 22009G46KT 9000 TS VCSH FEW025 BKN040CB BKN250 27/14 Q1007 BLU;
