0126102340999992010010405204+53133+009350FM-15+0061ETGQ V0209999C000010090019N0112651N1-00401-00701999999ADDGA1071+009001999GF107991999999999999999999MA1101901999999REMMET057METAR ETGQ 040520Z 00000KT 9999 BKN030 M04/M07 Q1019 BLU;
