0171103380999992014032118204+52461+009685FM-15+005699999V0202401N00411010971CN009999199+00601+00401999999ADDGA1021+005491991GA2041+010971991GE19MSL   +99999+99999GF199999021990005491991991MA1101001999990REMMET064METAR EDDV 211820Z 24008KT 9999 FEW018 SCT036 06/04 Q1010 NOSIG=
0179103380999992014032118504+52461+009685FM-15+005699999V0202501V00261010971CN009999199+00601+00301999999ADDGA1021+005491991GA2041+010971991GE19MSL   +99999+99999GF199999021990005491991991MA1101101999990REMMET072METAR EDDV 211850Z 25005KT 220V280 9999 FEW018 SCT036 06/03 Q1011 NOSIG=
0171103380999992014032119204+52461+009685FM-15+005699999V0209999V00101010971CN009999199+00501+00301999999ADDGA1021+005491991GA2041+010971991GE19MSL   +99999+99999GF199999021990005491991991MA1101101999990REMMET064METAR EDDV 211920Z VRB02KT 9999 FEW018 SCT036 05/03 Q1011 NOSIG=
0148103380999992014032119504+52461+009685FM-15+005699999V0202201N002119999999N009999199+00501+00301999999ADDGA1041+012191991GE19MSL   +99999+99999GF199999041990012191991991MA1101101999990REMMET057METAR EDDV 211950Z 22004KT 9999 SCT040 05/03 Q1011 NOSIG=
0148103380999992014032120204+52461+009685FM-15+005699999V0209999V001019999999N009999199+00501+00201999999ADDGA1041+012191991GE19MSL   +99999+99999GF199999041990012191991991MA1101001999990REMMET057METAR EDDV 212020Z VRB02KT 9999 SCT040 05/02 Q1010 NOSIG=
0148103380999992014032120504+52461+009685FM-15+005699999V0203001N000519999999N009999199+00301+00301999999ADDGA1021+012191991GE19MSL   +99999+99999GF199999021990012191991991MA1101001999990REMMET057METAR EDDV 212050Z 30001KT 9999 FEW040 03/03 Q1010 NOSIG=
0142103380999992014032121204+52461+009685FM-15+005699999V0209999V001019999999N009999199+00401+00301999999ADDGA1021+012191991GE19MSL   +99999+99999GF199999021990012191991991MA1101001999990REMMET051METAR EDDV 212120Z VRB02KT 9999 FEW040 04/03 Q1010=
0072103380999992014032121504+52461+009685FM-15+005699999V0209999V000519999999Y999999999+00301+00301999999ADDMA1101001999990REMMET045METAR EDDV 212150Z VRB01KT CAVOK 03/03 Q1010=
0072103380999992014032122204+52461+009685FM-15+005699999V0209999V001019999999Y999999999+00401+00301999999ADDMA1101001999990REMMET045METAR EDDV 212220Z VRB02KT CAVOK 04/03 Q1010=
0072103380999992014032122504+52461+009685FM-15+005699999V0201601N001519999999Y999999999+00401+00301999999ADDMA1100901999990REMMET045METAR EDDV 212250Z 16003KT CAVOK 04/03 Q1009=
0072103380999992014032123204+52461+009685FM-15+005699999V0201601N001519999999Y999999999+00401+00301999999ADDMA1100901999990REMMET045METAR EDDV 212320Z 16003KT CAVOK 04/03 Q1009=
0072103380999992014032123504+52461+009685FM-15+005699999V0201801N003119999999Y999999999+00401+00201999999ADDMA1100901999990REMMET045METAR EDDV 212350Z 18006KT CAVOK 04/02 Q1009=
0173103380999992014032200204+52461+009685FM-15+005699999V0201601V00151076201CN009999199+00401+00201999999ADDGA1021+010671991GA2041+076201991GE19MSL   +99999+99999GF199999021990010671991991MA1100801999990REMMET066METAR EDDV 220020Z 16003KT 150V210 9999 FEW035 SCT250 04/02 Q1008=
0165103380999992014032200504+52461+009685FM-15+005699999V0201601N00361076201CN009999199+00401+00201999999ADDGA1021+010671991GA2041+076201991GE19MSL   +99999+99999GF199999021990010671991991MA1100801999990REMMET058METAR EDDV 220050Z 16007KT 9999 FEW035 SCT250 04/02 Q1008=
0165103380999992014032201204+52461+009685FM-15+005699999V0201701N00361076201CN009999199+00401+00201999999ADDGA1021+010671991GA2041+076201991GE19MSL   +99999+99999GF199999021990010671991991MA1100801999990REMMET058METAR EDDV 220120Z 17007KT 9999 FEW035 SCT250 04/02 Q1008=
0072103380999992014032201504+52461+009685FM-15+005699999V0201701N003119999999Y999999999+00401+00201999999ADDMA1100701999990REMMET045METAR EDDV 220150Z 17006KT CAVOK 04/02 Q1007=
0072103380999992014032202204+52461+009685FM-15+005699999V0201801N003119999999Y999999999+00401+00201999999ADDMA1100701999990REMMET045METAR EDDV 220220Z 18006KT CAVOK 04/02 Q1007=
0072103380999992014032202504+52461+009685FM-15+005699999V0201601N002619999999Y999999999+00401+00201999999ADDMA1100701999990REMMET045METAR EDDV 220250Z 16005KT CAVOK 04/02 Q1007=
0072103380999992014032203204+52461+009685FM-15+005699999V0201401N002119999999Y999999999+00401+00201999999ADDMA1100601999990REMMET045METAR EDDV 220320Z 14004KT CAVOK 04/02 Q1006=
0072103380999992014032203504+52461+009685FM-15+005699999V0209999V001019999999Y999999999+00301+00101999999ADDMA1100601999990REMMET045METAR EDDV 220350Z VRB02KT CAVOK 03/01 Q1006=
0078103380999992014032204204+52461+009685FM-15+005699999V0201301N002119999999Y999999999+00301+00201999999ADDMA1100501999990REMMET051METAR EDDV 220420Z 13004KT CAVOK 03/02 Q1005 NOSIG=
0078103380999992014032204504+52461+009685FM-15+005699999V0201401N003619999999Y999999999+00301+00201999999ADDMA1100501999990REMMET051METAR EDDV 220450Z 14007KT CAVOK 03/02 Q1005 NOSIG=
0086103380999992014032205204+52461+009685FM-15+005699999V0201201V002619999999Y999999999+00401+00201999999ADDMA1100401999990REMMET059METAR EDDV 220520Z 12005KT 080V150 CAVOK 04/02 Q1004 NOSIG=
0078103380999992014032205504+52461+009685FM-15+005699999V0201201N003119999999Y999999999+00401+00301999999ADDMA1100401999990REMMET051METAR EDDV 220550Z 12006KT CAVOK 04/03 Q1004 NOSIG=
0078103380999992014032206204+52461+009685FM-15+005699999V0201501N004119999999Y999999999+00501+00301999999ADDMA1100401999990REMMET051METAR EDDV 220620Z 15008KT CAVOK 05/03 Q1004 NOSIG=
0078103380999992014032206504+52461+009685FM-15+005699999V0201601N004119999999Y999999999+00601+00401999999ADDMA1100401999990REMMET051METAR EDDV 220650Z 16008KT CAVOK 06/04 Q1004 NOSIG=
0078103380999992014032207204+52461+009685FM-15+005699999V0201801N004619999999Y999999999+00601+00401999999ADDMA1100401999990REMMET051METAR EDDV 220720Z 18009KT CAVOK 06/04 Q1004 NOSIG=
0078103380999992014032207504+52461+009685FM-15+005699999V0201701N004619999999Y999999999+00701+00401999999ADDMA1100301999990REMMET051METAR EDDV 220750Z 17009KT CAVOK 07/04 Q1003 NOSIG=
0078103380999992014032208204+52461+009685FM-15+005699999V0201801N006219999999Y999999999+00801+00501999999ADDMA1100301999990REMMET051METAR EDDV 220820Z 18012KT CAVOK 08/05 Q1003 NOSIG=
0078103380999992014032208504+52461+009685FM-15+005699999V0201701N005119999999Y999999999+00901+00501999999ADDMA1100301999990REMMET051METAR EDDV 220850Z 17010KT CAVOK 09/05 Q1003 NOSIG=
0078103380999992014032209204+52461+009685FM-15+005699999V0201701N005119999999Y999999999+00901+00501999999ADDMA1100301999990REMMET051METAR EDDV 220920Z 17010KT CAVOK 09/05 Q1003 NOSIG=
0194103380999992014032209504+52461+009685FM-15+005699999V0201801N00511036581CN009999199+01001+00601999999ADDGA1021+010671991GA2041+036581991GA3071+085341991GE19MSL   +99999+99999GF199999021990010671991991MA1100301999990REMMET071METAR EDDV 220950Z 18010KT 9999 FEW035 SCT120 BKN280 10/06 Q1003 NOSIG=
0194103380999992014032210204+52461+009685FM-15+005699999V0201801N00461036581CN009999199+01001+00501999999ADDGA1021+010671991GA2041+036581991GA3071+085341991GE19MSL   +99999+99999GF199999021990010671991991MA1100201999990REMMET071METAR EDDV 221020Z 18009KT 9999 FEW035 SCT120 BKN280 10/05 Q1002 NOSIG=
0207103380999992014032210504+52461+009685FM-15+005699999V0202001V00461030481CN009999199+01101+00501999999ADDGA1021+010671991GA2041+030481991GA3071+085341991GE19MSL   +99999+99999GF199999021990010671991991MA1100201999990REMMET084METAR EDDV 221050Z 20009KT 160V230 9999 FEW035 SCT100 BKN280 11/05      Q1002 NOSIG=
0207103380999992014032211204+52461+009685FM-15+005699999V0202001V00571030481CN009999199+01101+00501999999ADDGA1041+009751991GA2041+030481991GA3071+085341991GE19MSL   +99999+99999GF199999041990009751991991MA1100201999990REMMET084METAR EDDV 221120Z 20011KT 170V230 9999 SCT032 SCT100 BKN280 11/05      Q1002 NOSIG=
0171103380999992014032211504+52461+009685FM-15+005699999V0202101N005110853419N009999199+01101+00501999999ADDGA1041+009451991GA2071+085341991GE19MSL   +99999+99999GF199999041990009451991991MA1100201999990REMMET064METAR EDDV 221150Z 21010KT 9999 SCT031 BKN280 11/05 Q1002 NOSIG=
0207103380999992014032212204+52461+009685FM-15+005699999V0202201V00511009141CN009999199+01201+00501999999ADDGA1021+004571991GA2041+009141991GA3071+085341991GE19MSL   +99999+99999GF199999021990004571991991MA1100101999990REMMET084METAR EDDV 221220Z 22010KT 180V260 9999 FEW015 SCT030 BKN280 12/05      Q1001 NOSIG=
0218103380999992014032212504+52461+009685FM-15+005699999V0202201V00671012191CN009999199+01201+00301999999ADDGA1021+006101991GA2041+012191991GA3071+085341991GE19MSL   +99999+99999GF199999021990006101991991MA1100101999990REMMET095METAR EDDV 221250Z 22013KT 180V270 9999 FEW020 SCT040 BKN280 12/03      Q1001 TEMPO 22015G25KT=
0218103380999992014032213204+52461+009685FM-15+005699999V0202201V00621012191CN009999199+01301+00301999999ADDGA1021+006101991GA2041+012191991GA3071+085341991GE19MSL   +99999+99999GF199999021990006101991991MA1100101999990REMMET095METAR EDDV 221320Z 22012KT 190V260 9999 FEW020 SCT040 BKN280 13/03      Q1001 TEMPO 22015G25KT=
0195103380999992014032213504+52461+009685FM-15+005699999V0202301V004610853419N009999199+01201+00201999999ADDGA1021+006101991GA2071+085341991GE19MSL   +99999+99999GF199999021990006101991991MA1100101999990REMMET088METAR EDDV 221350Z 23009KT 200V260 9999 FEW020 BKN280 12/02 Q1001 TEMPO      22015G25KT=
0218103380999992014032214204+52461+009685FM-15+005699999V0202401V00571016461CN009999199+01201+00201999999ADDGA1021+006101991GA2041+016461991GA3071+085341991GE19MSL   +99999+99999GF199999021990006101991991MA1100101999990REMMET095METAR EDDV 221420Z 24011KT 200V270 9999 FEW020 SCT054 BKN280 12/02      Q1001 TEMPO 22015G25KT=
0218103380999992014032214504+52461+009685FM-15+005699999V0202201V00461018291CN009999199+01201+00201999999ADDGA1021+007921991GA2041+018291991GA3071+085341991GE19MSL   +99999+99999GF199999021990007921991991MA1100101999990REMMET095METAR EDDV 221450Z 22009KT 190V250 9999 FEW026 SCT060 BKN280 12/02      Q1001 TEMPO 22015G25KT=
0218103380999992014032215204+52461+009685FM-15+005699999V0202201V00511021341CN009999199+01201+00201999999ADDGA1021+007921991GA2041+021341991GA3071+085341991GE19MSL   +99999+99999GF199999021990007921991991MA1100001999990REMMET095METAR EDDV 221520Z 22010KT 190V250 9999 FEW026 SCT070 BKN280 12/02      Q1000 TEMPO 22015G25KT=
0182103380999992014032215504+52461+009685FM-15+005699999V0202201N004110176819N009999199+01201+00201999999ADDGA1021+007921991GA2071+017681991GE19MSL   +99999+99999GF199999021990007921991991MA1100001999990REMMET075METAR EDDV 221550Z 22008KT 9999 FEW026 BKN058 12/02 Q1000 TEMPO 22015G25KT=
0182103380999992014032216204+52461+009685FM-15+005699999V0202101N003110152419N009999199+01101+00301999999ADDGA1021+007921991GA2071+015241991GE19MSL   +99999+99999GF199999021990007921991991MA1100001999990REMMET075METAR EDDV 221620Z 21006KT 9999 FEW026 BKN050 11/03 Q1000 TEMPO 22015G25KT=
0209103380999992014032216504+52461+009685FM-15+005699999V0202301V004110164619N009999199+01101+00201999999ADDGA1021+009751991GA2071+016461991GE19MSL   +99999+99999GF199999021990009751991991MA1100001999990REMMET102METAR EDDV 221650Z 23008KT 200V260 9999 FEW032 BKN054 11/02 Q1000 TEMPO      22015G25KT SHRA SCT015CB=
0223103380999992014032217204+52461+009685FM-15+005699999V0202701V005710140219N009999199+01001+00501999999ADDGA1021+007321991GA2071+014021991GE19MSL   +99999+99999GF199999021990007321991991MA1100101999990MW1611OC101131REMMET102METAR COR EDDV 221720Z 27011G22KT 230V300 9999 -RA FEW024 BKN046 10/05      Q1001 TEMPO SHRA SCT015CB=
0219103380999992014032217504+52461+009685FM-15+005699999V0202701V006710045719N009999199+00801+00601999999ADDGA1071+004571991GA2071+009751991GE19MSL   +99999+99999GF199999071990004571991991MA1100101999990MW1611REMMET106METAR EDDV 221750Z 27013KT 240V300 9999 -RA BKN015 BKN032 08/06 Q1001      TEMPO 22015G25KT SHRA SCT015CB=
0219103380999992014032218204+52461+009685FM-15+005699999V0202501V003610121919N009999199+00801+00501999999ADDGA1041+004571991GA2071+012191991GE19MSL   +99999+99999GF199999041990004571991991MA1100101999990MW1611REMMET106METAR EDDV 221820Z 25007KT 220V280 9999 -RA SCT015 BKN040 08/05 Q1001      TEMPO 22015G25KT SHRA SCT015CB=
0197103380999992014032218504+52461+009685FM-15+005699999V0202601V004610152419N009999199+00801+00501999999ADDGA1021+004881991GA2071+015241991GE19MSL   +99999+99999GF199999021990004881991991MA1100201999990MW1611REMMET084METAR EDDV 221850Z 26009KT 230V290 9999 -RA FEW016 BKN050 08/05 Q1002      TEMPO RA=
0193103380999992014032219204+52461+009685FM-15+005699999V0202601V005110106719N009999199+00701+00401999999ADDGA1041+007011991GA2071+010671991GE19MSL   +99999+99999GF199999041990007011991991MA1100201999990MW1631REMMET080METAR EDDV 221920Z 26010KT 220V290 9999 RA SCT023 BKN035 07/04 Q1002      NOSIG=
0199103380999992014032219504+52461+009685FM-15+005699999V0202401V005110106719N009999199+00701+00401999999ADDGA1041+006101991GA2071+010671991GE19MSL   +99999+99999GF199999041990006101991991MA1100201999990MW1611REMMET086METAR EDDV 221950Z 24010KT 220V280 9999 -RA SCT020 BKN035 07/04 Q1002      RERA NOSIG=
0171103380999992014032220204+52461+009685FM-15+005699999V0202501N003610762019N009999199+00601+00401999999ADDGA1041+010671991GA2071+076201991GE19MSL   +99999+99999GF199999041990010671991991MA1100201999990REMMET064METAR EDDV 222020Z 25007KT 9999 SCT035 BKN250 06/04 Q1002 NOSIG=
0086103380999992014032220504+52461+009685FM-15+005699999V0202401V003119999999Y999999999+00501+00301999999ADDMA1100201999990REMMET059METAR EDDV 222050Z 24006KT 220V280 CAVOK 05/03 Q1002 NOSIG=
0072103380999992014032221204+52461+009685FM-15+005699999V0202401N003619999999Y999999999+00501+00301999999ADDMA1100201999990REMMET045METAR EDDV 222120Z 24007KT CAVOK 05/03 Q1002=
0080103380999992014032221504+52461+009685FM-15+005699999V0202501V002619999999Y999999999+00501+00301999999ADDMA1100301999990REMMET053METAR EDDV 222150Z 25005KT 200V290 CAVOK 05/03 Q1003=
0080103380999992014032222204+52461+009685FM-15+005699999V0202501V002619999999Y999999999+00501+00301999999ADDMA1100301999990REMMET053METAR EDDV 222220Z 25005KT 220V280 CAVOK 05/03 Q1003=
0072103380999992014032222504+52461+009685FM-15+005699999V0202501N003119999999Y999999999+00501+00301999999ADDMA1100301999990REMMET045METAR EDDV 222250Z 25006KT CAVOK 05/03 Q1003=
0072103380999992014032223204+52461+009685FM-15+005699999V0202301N002119999999Y999999999+00401+00201999999ADDMA1100301999990REMMET045METAR EDDV 222320Z 23004KT CAVOK 04/02 Q1003=
0072103380999992014032223504+52461+009685FM-15+005699999V0202501N002619999999Y999999999+00401+00201999999ADDMA1100301999990REMMET045METAR EDDV 222350Z 25005KT CAVOK 04/02 Q1003=
0080103380999992014032300204+52461+009685FM-15+005699999V0202601V003619999999Y999999999+00401+00301999999ADDMA1100301999990REMMET053METAR EDDV 230020Z 26007KT 220V280 CAVOK 04/03 Q1003=
0072103380999992014032300504+52461+009685FM-15+005699999V0202501N003119999999Y999999999+00401+00301999999ADDMA1100301999990REMMET045METAR EDDV 230050Z 25006KT CAVOK 04/03 Q1003=
0072103380999992014032301204+52461+009685FM-15+005699999V0202201N002619999999Y999999999+00401+00201999999ADDMA1100301999990REMMET045METAR EDDV 230120Z 22005KT CAVOK 04/02 Q1003=
0072103380999992014032301504+52461+009685FM-15+005699999V0202301N001519999999Y999999999+00301+00201999999ADDMA1100301999990REMMET045METAR EDDV 230150Z 23003KT CAVOK 03/02 Q1003=
0072103380999992014032302204+52461+009685FM-15+005699999V0202201N002619999999Y999999999+00301+00201999999ADDMA1100301999990REMMET045METAR EDDV 230220Z 22005KT CAVOK 03/02 Q1003=
0072103380999992014032302504+52461+009685FM-15+005699999V0202201N003119999999Y999999999+00301+00201999999ADDMA1100301999990REMMET045METAR EDDV 230250Z 22006KT CAVOK 03/02 Q1003=
0072103380999992014032303204+52461+009685FM-15+005699999V0202201N003119999999Y999999999+00401+00101999999ADDMA1100301999990REMMET045METAR EDDV 230320Z 22006KT CAVOK 04/01 Q1003=
0072103380999992014032303504+52461+009685FM-15+005699999V0202001N003119999999Y999999999+00301+00101999999ADDMA1100301999990REMMET045METAR EDDV 230350Z 20006KT CAVOK 03/01 Q1003=
0078103380999992014032304204+52461+009685FM-15+005699999V0201601N002619999999Y999999999+00301+00101999999ADDMA1100301999990REMMET051METAR EDDV 230420Z 16005KT CAVOK 03/01 Q1003 NOSIG=
0078103380999992014032304504+52461+009685FM-15+005699999V0201801N002619999999Y999999999+00301+00101999999ADDMA1100301999990REMMET051METAR EDDV 230450Z 18005KT CAVOK 03/01 Q1003 NOSIG=
0078103380999992014032305204+52461+009685FM-15+005699999V0201901N002619999999Y999999999+00301+00101999999ADDMA1100401999990REMMET051METAR EDDV 230520Z 19005KT CAVOK 03/01 Q1004 NOSIG=
0148103380999992014032305504+52461+009685FM-15+005699999V0201801N003619999999N009999199+00301+00101999999ADDGA1041+014021991GE19MSL   +99999+99999GF199999041990014021991991MA1100401999990REMMET057METAR EDDV 230550Z 18007KT 9999 SCT046 03/01 Q1004 NOSIG=
0148103380999992014032306204+52461+009685FM-15+005699999V0201701N003119999999N009999199+00301+00101999999ADDGA1021+014021991GE19MSL   +99999+99999GF199999021990014021991991MA1100401999990REMMET057METAR EDDV 230620Z 17006KT 9999 FEW046 03/01 Q1004 NOSIG=
0078103380999992014032306504+52461+009685FM-15+005699999V0201901N003119999999Y999999999+00301+00201999999ADDMA1100401999990REMMET051METAR EDDV 230650Z 19006KT CAVOK 03/02 Q1004 NOSIG=
0078103380999992014032307204+52461+009685FM-15+005699999V0202001N003119999999Y999999999+00501+00201999999ADDMA1100501999990REMMET051METAR EDDV 230720Z 20006KT CAVOK 05/02 Q1005 NOSIG=
0156103380999992014032307504+52461+009685FM-15+005699999V0202001V003119999999N009999199+00601+00301999999ADDGA1021+006101991GE19MSL   +99999+99999GF199999021990006101991991MA1100501999990REMMET065METAR EDDV 230750Z 20006KT 180V240 9999 FEW020 06/03 Q1005 NOSIG=
0156103380999992014032308204+52461+009685FM-15+005699999V0202401V004119999999N009999199+00601+00301999999ADDGA1041+006101991GE19MSL   +99999+99999GF199999041990006101991991MA1100501999990REMMET065METAR EDDV 230820Z 24008KT 210V300 9999 SCT020 06/03 Q1005 NOSIG=
0156103380999992014032308504+52461+009685FM-15+005699999V0202401V004619999999N009999199+00701+00301999999ADDGA1041+006711991GE19MSL   +99999+99999GF199999041990006711991991MA1100501999990REMMET065METAR EDDV 230850Z 24009KT 210V290 9999 SCT022 07/03 Q1005 NOSIG=
0148103380999992014032309204+52461+009685FM-15+005699999V0202401N006719999999N009999199+00801+00301999999ADDGA1041+008231991GE19MSL   +99999+99999GF199999041990008231991991MA1100501999990REMMET057METAR EDDV 230920Z 24013KT 9999 SCT027 08/03 Q1005 NOSIG=
0148103380999992014032309504+52461+009685FM-15+005699999V0202601N005119999999N009999199+00701+00201999999ADDGA1041+007921991GE19MSL   +99999+99999GF199999041990007921991991MA1100501999990REMMET057METAR EDDV 230950Z 26010KT 9999 SCT026 07/02 Q1005 NOSIG=
0156103380999992014032310204+52461+009685FM-15+005699999V0202501V003619999999N009999199+00801+00201999999ADDGA1041+007921991GE19MSL   +99999+99999GF199999041990007921991991MA1100501999990REMMET065METAR EDDV 231020Z 25007KT 220V290 9999 SCT026 08/02 Q1005 NOSIG=
0207103380999992014032310504+52461+009685FM-15+005699999V0202501V00411012191CN009999199+00801+00101999999ADDGA1021+010671991GA2041+012191991GA3071+106681991GE19MSL   +99999+99999GF199999021990010671991991MA1100501999990REMMET084METAR EDDV 231050Z 25008KT 220V300 9999 FEW035 SCT040 BKN350 08/01      Q1005 NOSIG=
0171103380999992014032311204+52461+009685FM-15+005699999V0202701N005711066819N009999199+00901+00201999999ADDGA1041+010671991GA2071+106681991GE19MSL   +99999+99999GF199999041990010671991991MA1100501999990REMMET064METAR EDDV 231120Z 27011KT 9999 SCT035 BKN350 09/02 Q1005 NOSIG=
0207103380999992014032311504+52461+009685FM-15+005699999V0202701V00411010671CN009999199+00901+00201999999ADDGA1021+007621991GA2041+010671991GA3071+106681991GE19MSL   +99999+99999GF199999021990007621991991MA1100501999990REMMET084METAR EDDV 231150Z 27008KT 220V300 9999 FEW025 SCT035 BKN350 09/02      Q1005 NOSIG=
0207103380999992014032312204+52461+009685FM-15+005699999V0202601V00361011281CN009999199+00901+00101999999ADDGA1021+007621991GA2041+011281991GA3071+106681991GE19MSL   +99999+99999GF199999021990007621991991MA1100501999990REMMET084METAR EDDV 231220Z 26007KT 220V290 9999 FEW025 SCT037 BKN350 09/01      Q1005 NOSIG=
0207103380999992014032312504+52461+009685FM-15+005699999V0202801V00461010671CN009999199+00901+00101999999ADDGA1021+007321991GA2041+010671991GA3071+106681991GE19MSL   +99999+99999GF199999021990007321991991MA1100501999990REMMET084METAR EDDV 231250Z 28009KT 240V300 9999 FEW024 SCT035 BKN350 09/01      Q1005 NOSIG=
0208103380999992014032313204+52461+009685FM-15+005699999V0202801V00311012191CN009999199+00901+00001999999ADDGA1021+007321991GA2041+012191991GA3071+106681991GE19MSL   +99999+99999GF199999021990007321991991MA1100501999990REMMET085METAR EDDV 231320Z 28006KT 210V310 9999 FEW024 SCT040 BKN350 09/M00      Q1005 NOSIG=
0207103380999992014032313504+52461+009685FM-15+005699999V0202401V00311012191CN009999199+01001+00001999999ADDGA1021+009141991GA2041+012191991GA3071+106681991GE19MSL   +99999+99999GF199999021990009141991991MA1100501999990REMMET084METAR EDDV 231350Z 24006KT 180V280 9999 FEW030 SCT040 BKN350 10/00      Q1005 NOSIG=
0179103380999992014032314204+52461+009685FM-15+005699999V0202601V004111066819N009999199+01001+00001999999ADDGA1021+012191991GA2071+106681991GE19MSL   +99999+99999GF199999021990012191991991MA1100501999990REMMET072METAR EDDV 231420Z 26008KT 210V300 9999 FEW040 BKN350 10/00 Q1005 NOSIG=
0185103380999992014032314504+52461+009685FM-15+005699999V0202801V002611066819N009999199+01101-00101999999ADDGA1021+009141991GA2071+106681991GE19MSL   +99999+99999GF199999021990009141991991MA1100501999990REMMET078METAR EDDV 231450Z 28005KT 210V300 9999 FEW030 BKN350 11/M01 Q1005      NOSIG=
0179103380999992014032315204+52461+009685FM-15+005699999V0202501V003611066819N009999199+01001+00001999999ADDGA1021+014631991GA2071+106681991GE19MSL   +99999+99999GF199999021990014631991991MA1100501999990REMMET072METAR EDDV 231520Z 25007KT 220V280 9999 FEW048 BKN350 10/00 Q1005 NOSIG=
0086103380999992014032315504+52461+009685FM-15+005699999V0202401V002619999999Y999999999+01001+00001999999ADDMA1100501999990REMMET059METAR EDDV 231550Z 24005KT 190V270 CAVOK 10/00 Q1005 NOSIG=
0086103380999992014032316204+52461+009685FM-15+005699999V0202501V002619999999Y999999999+00901+00001999999ADDMA1100601999990REMMET059METAR EDDV 231620Z 25005KT 210V280 CAVOK 09/00 Q1006 NOSIG=
0197103380999992014032316504+52461+009685FM-15+005699999V0202501V00211024381CN009999199+00901+00001999999ADDGA1041+014631991GA2041+024381991GE19MSL   +99999+99999GF199999041990014631991991MA1100601999990MW1801REMMET084METAR EDDV 231650Z 25004KT 220V280 9999 -SHRA SCT048 SCT080 09/M00      Q1006 NOSIG=
0203103380999992014032317204+52461+009685FM-15+005699999V0202601V002610182919N009999199+00801-00101999999ADDGA1021+007621081GA2071+018291991GE19MSL   +99999+99999GF199999021990007621991991MA1100601999990MW1161REMMET090METAR COR EDDV 231720Z 26005KT 200V290 9999 VCSH FEW025TCU BKN060 08/M01      Q1006 NOSIG=
0214103380999992014032317504+52461+009685FM-15+005699999V0202301N00151018291CN009999199+00701+00001999999ADDGA1021+009141081GA2041+018291991GA3071+106681991GE19MSL   +99999+99999GF199999021990009141991991MA1100601999990MW1161REMMET085METAR EDDV 231750Z 23003KT 9999 VCSH FEW030TCU SCT060 BKN350 07/M00      Q1006 NOSIG=
0183103380999992014032318204+52461+009685FM-15+005699999V0203001N007710106719N009999199+00601+00301999999ADDGA1071+010671991GA2071+106681991GE19MSL   +99999+99999GF199999071990010671991991MA1100701999990MW1801REMMET070METAR EDDV 231820Z 30015KT 9999 -SHRA BKN035 BKN350 06/03 Q1007 NOSIG=
0181103380999992014032318504+52461+009685FM-15+005699999V0203101N004610137219N009999199+00501+00301999999ADDGA1041+008231991GA2071+013721991GE19MSL   +99999+99999GF199999041990008231991991MA1100701999990MW1611REMMET068METAR EDDV 231850Z 31009KT 9999 -RA SCT027 BKN045 05/03 Q1007 NOSIG=
0181103380999992014032319204+52461+009685FM-15+005699999V0203101N003110137219N009999199+00501+00301999999ADDGA1041+008231991GA2071+013721991GE19MSL   +99999+99999GF199999041990008231991991MA1100801999990MW1611REMMET068METAR EDDV 231920Z 31006KT 9999 -RA SCT027 BKN045 05/03 Q1008 NOSIG=
0171103380999992014032319504+52461+009685FM-15+005699999V0203101N00211027431CN009999199+00401+00301999999ADDGA1021+007621991GA2041+027431991GE19MSL   +99999+99999GF199999021990007621991991MA1100801999990REMMET064METAR EDDV 231950Z 31004KT 9999 FEW025 SCT090 04/03 Q1008 NOSIG=
0078103380999992014032320204+52461+009685FM-15+005699999V0203001N003119999999Y999999999+00301+00201999999ADDMA1100801999990REMMET051METAR EDDV 232020Z 30006KT CAVOK 03/02 Q1008 NOSIG=
0078103380999992014032320504+52461+009685FM-15+005699999V0203001N002119999999Y999999999+00301+00201999999ADDMA1100801999990REMMET051METAR EDDV 232050Z 30004KT CAVOK 03/02 Q1008 NOSIG=
0112103380999992014032321204+52461+009685FM-15+005699999V0203001N001512200019N009999199+00201+00201999999ADDGF100991999999999999999999MA1100801999990MW1121REMMET053METAR EDDV 232120Z 30003KT 9999 MIFG NSC 02/02 Q1008=
0112103380999992014032321504+52461+009685FM-15+005699999V0202501N001512200019N009999199+00201+00201999999ADDGF100991999999999999999999MA1100801999990MW1121REMMET053METAR EDDV 232150Z 25003KT 9999 MIFG NSC 02/02 Q1008=
0072103380999992014032322204+52461+009685FM-15+005699999V0202401N002619999999Y999999999+00201+00201999999ADDMA1100901999990REMMET045METAR EDDV 232220Z 24005KT CAVOK 02/02 Q1009=
0080103380999992014032322504+52461+009685FM-15+005699999V0202601V001519999999Y999999999+00101+00001999999ADDMA1100901999990REMMET053METAR EDDV 232250Z 26003KT 230V290 CAVOK 01/00 Q1009=
0072103380999992014032323204+52461+009685FM-15+005699999V0202801N002619999999Y999999999+00101+00101999999ADDMA1100901999990REMMET045METAR EDDV 232320Z 28005KT CAVOK 01/01 Q1009=
0112103380999992014032323504+52461+009685FM-15+005699999V0202601N001512200019N009999199+00101+00101999999ADDGF100991999999999999999999MA1100901999990MW1121REMMET053METAR EDDV 232350Z 26003KT 9999 MIFG NSC 01/01 Q1009=
0153103380999992014032400204+52461+009685FM-15+005699999V0202701N001519999999N009999199+00001+00001999999ADDGA1021+005491991GE19MSL   +99999+99999GF199999021990005491991991MA1100901999990MW1121REMMET056METAR EDDV 240020Z 27003KT 9999 MIFG FEW018 00/00 Q1009=
0153103380999992014032400504+52461+009685FM-15+005699999V0202701N001510054919N009999199+00101+00101999999ADDGA1071+005491991GE19MSL   +99999+99999GF199999071990005491991991MA1100901999990MW1121REMMET056METAR EDDV 240050Z 27003KT 9999 MIFG BKN018 01/01 Q1009=
0150103380999992014032401204+52461+009685FM-15+005699999V0202601V002110079219N009999199+00201+00201999999ADDGA1071+007921991GE19MSL   +99999+99999GF199999071990007921991991MA1100901999990REMMET059METAR EDDV 240120Z 26004KT 230V290 9999 BKN026 02/02 Q1009=
0142103380999992014032401504+52461+009685FM-15+005699999V0202601N001010091419N009999199+00201+00201999999ADDGA1071+009141991GE19MSL   +99999+99999GF199999071990009141991991MA1100901999990REMMET051METAR EDDV 240150Z 26002KT 9999 BKN030 02/02 Q1009=
0153103380999992014032402204+52461+009685FM-15+005699999V0203001N001510097519N009999199+00201+00101999999ADDGA1071+009751991GE19MSL   +99999+99999GF199999071990009751991991MA1100901999990MW1121REMMET056METAR EDDV 240220Z 30003KT 9999 MIFG BKN032 02/01 Q1009=
0153103380999992014032402504+52461+009685FM-15+005699999V0202701N001510097519N009999199+00201+00201999999ADDGA1071+009751991GE19MSL   +99999+99999GF199999071990009751991991MA1100901999990MW1121REMMET056METAR EDDV 240250Z 27003KT 9999 MIFG BKN032 02/02 Q1009=
0153103380999992014032403204+52461+009685FM-15+005699999V0202801N001510054919N009999199+00101+00101999999ADDGA1071+005491991GE19MSL   +99999+99999GF199999071990005491991991MA1101001999990MW1121REMMET056METAR EDDV 240320Z 28003KT 9999 MIFG BKN018 01/01 Q1010=
0153103380999992014032403504+52461+009685FM-15+005699999V0202801N002110048819N009999199+00101+00101999999ADDGA1071+004881991GE19MSL   +99999+99999GF199999071990004881991991MA1101001999990MW1121REMMET056METAR EDDV 240350Z 28004KT 9999 MIFG BKN016 01/01 Q1010=
0192103380999992014032404204+52461+009685FM-15+005699999V0202901N001510048819N008000199+00101+00101999999ADDGA1071+004881991GA2071+024991991GE19MSL   +99999+99999GF199999071990004881991991MA1101001999990MW1121REMMET079METAR EDDV 240420Z 29003KT 8000 MIFG BKN016 BKN082 01/01 Q1010 TEMPO      2000=
0201103380999992014032404504+52461+009685FM-15+005699999V0202801N00151012191CN003500199+00101+00101999999ADDGA1041+007921991GA2041+012191991GE19MSL   +99999+99999GF199999041990007921991991MA1101001999990MW1101MW2121REMMET082METAR EDDV 240450Z 28003KT 3500 MIFG BR SCT026 SCT040 01/01 Q1010 TEMPO      2000=
0201103380999992014032405204+52461+009685FM-15+005699999V0202701N002610106719N003000199+00101+00101999999ADDGA1041+003051991GA2071+010671991GE19MSL   +99999+99999GF199999041990003051991991MA1101101999990MW1101MW2121REMMET082METAR EDDV 240520Z 27005KT 3000 MIFG BR SCT010 BKN035 01/01 Q1011 TEMPO      2000=
0201103380999992014032405504+52461+009685FM-15+005699999V0202701N001510106719N003500199+00201+00201999999ADDGA1021+007621991GA2071+010671991GE19MSL   +99999+99999GF199999021990007621991991MA1101101999990MW1101MW2121REMMET082METAR EDDV 240550Z 27003KT 3500 MIFG BR FEW025 BKN035 02/02 Q1011 TEMPO      6000=
0190103380999992014032406204+52461+009685FM-15+005699999V0202801N001010097519N003500199+00201+00201999999ADDGA1021+005491991GA2071+009751991GE19MSL   +99999+99999GF199999021990005491991991MA1101101999990MW1101REMMET077METAR EDDV 240620Z 28002KT 3500 BR FEW018 BKN032 02/02 Q1011 BECMG      6000=
0162103380999992014032406504+52461+009685FM-15+005699999V0203001N001510054919N003500199+00301+00201999999ADDGA1071+005491991GE19MSL   +99999+99999GF199999071990005491991991MA1101101999990MW1101REMMET065METAR EDDV 240650Z 30003KT 3500 BR BKN018 03/02 Q1011 BECMG 6000=
0191103380999992014032407204+52461+009685FM-15+005699999V0202901N002110054919N004500199+00301+00301999999ADDGA1021+001831991GA2071+005491991GE19MSL   +99999+99999GF199999021990001831991991MA1101201999990MW1611REMMET078METAR EDDV 240720Z 29004KT 4500 -RA FEW006 BKN018 03/03 Q1012 BECMG      6000=
0180103380999992014032407504+52461+009685FM-15+005699999V0202901N002610054919N005000199+00401+00301999999ADDGA1021+002131991GA2071+005491991GE19MSL   +99999+99999GF199999021990002131991991MA1101201999990MW1101REMMET067METAR EDDV 240750Z 29005KT 5000 BR FEW007 BKN018 04/03 Q1012 NOSIG=
0171103380999992014032408204+52461+009685FM-15+005699999V0202801N003610054919N007000199+00501+00401999999ADDGA1021+002131991GA2071+005491991GE19MSL   +99999+99999GF199999021990002131991991MA1101201999990REMMET064METAR EDDV 240820Z 28007KT 7000 FEW007 BKN018 05/04 Q1012 NOSIG=
0171103380999992014032408504+52461+009685FM-15+005699999V0202901N003110106719N007000199+00501+00401999999ADDGA1021+002131991GA2071+010671991GE19MSL   +99999+99999GF199999021990002131991991MA1101201999990REMMET064METAR EDDV 240850Z 29006KT 7000 FEW007 BKN035 05/04 Q1012 NOSIG=
0179103380999992014032409204+52461+009685FM-15+005699999V0202801V002110106719N009999199+00601+00401999999ADDGA1041+003051991GA2071+010671991GE19MSL   +99999+99999GF199999041990003051991991MA1101201999990REMMET072METAR EDDV 240920Z 28004KT 230V350 9999 SCT010 BKN035 06/04 Q1012 NOSIG=
0179103380999992014032409504+52461+009685FM-15+005699999V0202801V002110045719N009999199+00701+00401999999ADDGA1021+003051991GA2071+004571991GE19MSL   +99999+99999GF199999021990003051991991MA1101201999990REMMET072METAR EDDV 240950Z 28004KT 200V340 9999 FEW010 BKN015 07/04 Q1012 NOSIG=
0179103380999992014032410204+52461+009685FM-15+005699999V0202801V003110076219N009999199+00701+00301999999ADDGA1021+004571991GA2071+007621991GE19MSL   +99999+99999GF199999021990004571991991MA1101201999990REMMET072METAR EDDV 241020Z 28006KT 240V310 9999 FEW015 BKN025 07/03 Q1012 NOSIG=
0210103380999992014032410504+52461+009685FM-15+005699999V0203201V002110076219N009999199+00701+00301999999ADDGA1021+004571991GA2021+006101081GA3071+007621991GE19MSL   +99999+99999GF199999021990004571991991MA1101201999990REMMET087METAR EDDV 241050Z 32004KT 290V350 9999 FEW015 FEW020TCU BKN025 07/03      Q1012 NOSIG=
0132103380999992014032411204+52461+009685FM-15+005699999V0209999V001019999999N009999199+99999+99999999999ADDMA1101201999990REMMET086METAR EDDV 241120Z VRB02KT 9999 -SHGSRA FEW018 FEW020CB BKN025 05/01      Q1012 NOSIG=EQDD01      0ADE693
0216103380999992014032411504+52461+009685FM-15+005699999V0201201N00101007621CN009999199+00601+00101999999ADDGA1021+005491991GA2021+006101091GA3041+007621081GE19MSL   +99999+99999GF199999021990005491991991MA1101201999990MW1801REMMET087METAR EDDV 241150Z 12002KT 9999 -SHRA FEW018 FEW020CB SCT025TCU 06/01      Q1012 NOSIG=
0248103380999992014032412204+52461+009685FM-15+005699999V0209999V00101008531CN009999199+00701+00301999999ADDGA1021+003961991GA2021+006101091GA3041+008531081GA4071+018291991GE19MSL   +99999+99999GF199999021990003961991991MA1101201999990MW1801REMMET103METAR COR EDDV 241220Z VRB02KT 9999 -SHRA FEW013 FEW020CB SCT028TCU      BKN060 07/03 Q1012 RERA NOSIG=
0216103380999992014032412504+52461+009685FM-15+005699999V0209999V001510109719N009999199+00701+00301999999ADDGA1021+003961991GA2021+006101091GA3071+010971991GE19MSL   +99999+99999GF199999021990003961991991MA1101201999990MW1811REMMET087METAR EDDV 241250Z VRB03KT 9999 SHRA FEW013 FEW020CB BKN036 07/03 Q1012      BECMG NSW=
0212103380999992014032413204+52461+009685FM-15+005699999V0209999V00101009751CN009999199+00701+00301999999ADDGA1021+003961991GA2021+006101091GA3041+009751991GE19MSL   +99999+99999GF199999021990003961991991MA1101201999990MW1161REMMET083METAR EDDV 241320Z VRB02KT 9999 VCSH FEW013 FEW020CB SCT032 07/03 Q1012      NOSIG=
0212103380999992014032413504+52461+009685FM-15+005699999V0209999V00051009751CN009999199+00801+00101999999ADDGA1021+003961991GA2021+006101091GA3041+009751991GE19MSL   +99999+99999GF199999021990003961991991MA1101101999990MW1161REMMET083METAR EDDV 241350Z VRB01KT 9999 VCSH FEW013 FEW020CB SCT032 08/01 Q1011      NOSIG=
0201103380999992014032414204+52461+009685FM-15+005699999V0203301N00211018291CN009999199+00801+00201999999ADDGA1021+006101991GA2021+007621091GA3041+018291991GE19MSL   +99999+99999GF199999021990006101991991MA1101101999990REMMET078METAR EDDV 241420Z 33004KT 9999 FEW020 FEW025CB SCT060 08/02 Q1011      NOSIG=
0220103380999992014032414504+52461+009685FM-15+005699999V0203601V00151018291CN009999199+00901+00301999999ADDGA1021+006101991GA2021+007621091GA3041+018291991GE19MSL   +99999+99999GF199999021990006101991991MA1101101999990MW1161REMMET091METAR EDDV 241450Z 36003KT 320V070 9999 VCSH FEW020 FEW025CB SCT060      09/03 Q1011 NOSIG=
0136103380999992014032415204+52461+009685FM-15+005699999V0202101V002119999999N009999199+99999+99999999999ADDMA1101101999990REMMET090METAR EDDV 241520Z 21004KT 180V250 9999 SHGSRA FEW019 SCT025CB 07/02      Q1011 BECMG NSW=EQDD01      0ADE693
0212103380999992014032415504+52461+009685FM-15+005699999V0209999V00151011581CN009999199+00701+00201999999ADDGA1021+006711991GA2021+007621091GA3041+011581991GE19MSL   +99999+99999GF199999021990006711991991MA1101101999990MW1161REMMET083METAR EDDV 241550Z VRB03KT 9999 VCSH FEW022 FEW025CB SCT038 07/02 Q1011      NOSIG=
0201103380999992014032416204+52461+009685FM-15+005699999V0209999V00261012191CN009999199+00601+00101999999ADDGA1021+006711991GA2021+007621091GA3041+012191991GE19MSL   +99999+99999GF199999021990006711991991MA1101101999990REMMET078METAR EDDV 241620Z VRB05KT 9999 FEW022 FEW025CB SCT040 06/01 Q1011      NOSIG=
0173103380999992014032416504+52461+009685FM-15+005699999V0203401N002119999999N009999199+00501+00101999999ADDGA1021+006711991GA2021+007621091GE19MSL   +99999+99999GF199999021990006711991991MA1101101999990REMMET066METAR EDDV 241650Z 34004KT 9999 FEW022 FEW025CB 05/01 Q1011 NOSIG=
0173103380999992014032417204+52461+009685FM-15+005699999V0203201N001019999999N009999199+00501+00101999999ADDGA1021+006711991GA2021+007621091GE19MSL   +99999+99999GF199999021990006711991991MA1101201999990REMMET066METAR EDDV 241720Z 32002KT 9999 FEW022 FEW025CB 05/01 Q1012 NOSIG=
0171103380999992014032417504+52461+009685FM-15+005699999V0209999V00051014021CN009999199+00501+00101999999ADDGA1021+007621991GA2041+014021991GE19MSL   +99999+99999GF199999021990007621991991MA1101201999990REMMET064METAR EDDV 241750Z VRB01KT 9999 FEW025 SCT046 05/01 Q1012 NOSIG=
0171103380999992014032418204+52461+009685FM-15+005699999V0209999V00101014021CN009999199+00301+00101999999ADDGA1021+007621991GA2041+014021991GE19MSL   +99999+99999GF199999021990007621991991MA1101201999990REMMET064METAR EDDV 241820Z VRB02KT 9999 FEW025 SCT046 03/01 Q1012 NOSIG=
0171103380999992014032418504+52461+009685FM-15+005699999V0209999V00051013411CN009999199+00301+00101999999ADDGA1021+007621991GA2041+013411991GE19MSL   +99999+99999GF199999021990007621991991MA1101201999990REMMET064METAR EDDV 241850Z VRB01KT 9999 FEW025 SCT044 03/01 Q1012 NOSIG=
0171103380999992014032419204+52461+009685FM-15+005699999V0200801N00101013721CN009999199+00301+00101999999ADDGA1021+007621991GA2041+013721991GE19MSL   +99999+99999GF199999021990007621991991MA1101301999990REMMET064METAR EDDV 241920Z 08002KT 9999 FEW025 SCT045 03/01 Q1013 NOSIG=
0171103380999992014032419504+52461+009685FM-15+005699999V0209999V00051013721CN009999199+00201+00101999999ADDGA1021+007621991GA2041+013721991GE19MSL   +99999+99999GF199999021990007621991991MA1101301999990REMMET064METAR EDDV 241950Z VRB01KT 9999 FEW025 SCT045 02/01 Q1013 NOSIG=
0148103380999992014032420204+52461+009685FM-15+005699999V0209999V001019999999N009999199+00201+00101999999ADDGA1021+012191991GE19MSL   +99999+99999GF199999021990012191991991MA1101301999990REMMET057METAR EDDV 242020Z VRB02KT 9999 FEW040 02/01 Q1013 NOSIG=
0149103380999992014032420504+52461+009685FM-15+005699999V0209999V001019999999N009999199+00001+00001999999ADDGA1021+012191991GE19MSL   +99999+99999GF199999021990012191991991MA1101301999990REMMET058METAR EDDV 242050Z VRB02KT 9999 FEW040 00/M00 Q1013 NOSIG=
0142103380999992014032421204+52461+009685FM-15+005699999V0202901N003119999999N009999199+00001+00001999999ADDGA1021+012191991GE19MSL   +99999+99999GF199999021990012191991991MA1101301999990REMMET051METAR EDDV 242120Z 29006KT 9999 FEW040 00/00 Q1013=
0143103380999992014032421504+52461+009685FM-15+005699999V0202901N003119999999N009999199+00001+00001999999ADDGA1021+012191991GE19MSL   +99999+99999GF199999021990012191991991MA1101301999990REMMET052METAR EDDV 242150Z 29006KT 9999 FEW040 00/M00 Q1013=
0143103380999992014032422204+52461+009685FM-15+005699999V0202901N002119999999N009999199+00001+00001999999ADDGA1021+012191991GE19MSL   +99999+99999GF199999021990012191991991MA1101301999990REMMET052METAR EDDV 242220Z 29004KT 9999 FEW040 00/M00 Q1013=
0074103380999992014032422504+52461+009685FM-15+005699999V0202901N003119999999Y999999999+00001+00001999999ADDMA1101301999990REMMET047METAR EDDV 242250Z 29006KT CAVOK M00/M00 Q1013=
0073103380999992014032423204+52461+009685FM-15+005699999V0203001N002119999999Y999999999+00001+00001999999ADDMA1101301999990REMMET046METAR EDDV 242320Z 30004KT CAVOK 00/M00 Q1013=
0073103380999992014032423504+52461+009685FM-15+005699999V0202901N003119999999Y999999999+00001+00001999999ADDMA1101301999990REMMET046METAR EDDV 242350Z 29006KT CAVOK 00/M00 Q1013=
0073103380999992014032500204+52461+009685FM-15+005699999V0202801N001519999999Y999999999+00001+00001999999ADDMA1101301999990REMMET046METAR EDDV 250020Z 28003KT CAVOK 00/M00 Q1013=
0074103380999992014032500504+52461+009685FM-15+005699999V0202701N001019999999Y999999999-00101-00101999999ADDMA1101201999990REMMET047METAR EDDV 250050Z 27002KT CAVOK M01/M01 Q1012=
0114103380999992014032501204+52461+009685FM-15+005699999V0209999V001012200019N009999199+00001-00101999999ADDGF100991999999999999999999MA1101201999990MW1121REMMET055METAR EDDV 250120Z VRB02KT 9999 MIFG NSC M00/M01 Q1012=
0150103380999992014032501504+52461+009685FM-15+005699999V0209999C000012200019N009999199-00101-00101999999ADDGF100991999999999999999999MA1101201999990MW1111REMMET091METAR EDDV 250150Z 00000KT 9999 0500NW R27R/P2000N R27L/P2000N BCFG      NSC M01/M01 Q1012=
0160103380999992014032502204+52461+009685FM-15+005699999V0203001N001512200019N009999199-00201-00201999999ADDGF100991999999999999999999MA1101201999990MW1111REMMET101METAR EDDV 250220Z 30003KT 9999 0200NW R27R/0450VP2000N R27L/1300VP2000U      BCFG NSC M02/M02 Q1012=
0164103380999992014032502504+52461+009685FM-15+005699999V0202601N001012200019N009999199-00201-00201999999ADDGF100991999999999999999999MA1101201999990MW1111REMMET105METAR COR EDDV 250250Z 26002KT 9999 1200NW R27R/0750VP2000U R27L/0750VP2000U      BCFG NSC M02/M02 Q1012=
0159103380999992014032503204+52461+009685FM-15+005699999V0202801N001012200019N009999199-00201-00201999999ADDGF100991999999999999999999MA1101201999990MW1111REMMET100METAR EDDV 250320Z 28002KT 9999 1000E R27R/0750VP2000N R27L/0800VP2000U      BCFG NSC M02/M02 Q1012=
0140103380999992014032503504+52461+009685FM-15+005699999V0202801N001512200019N009999199-00201-00201999999ADDGF100991999999999999999999MA1101201999990MW1111REMMET081METAR COR EDDV 250350Z 28003KT 9999 1500E BCFG NSC M02/M02 Q1012 TEMPO      1200=
0140103380999992014032504204+52461+009685FM-15+005699999V0203001N001512200019N009999199-00101-00101999999ADDGF100991999999999999999999MA1101201999990MW1111REMMET081METAR COR EDDV 250420Z 30003KT 9999 1800S BCFG NSC M01/M01 Q1012 TEMPO      1200=
0136103380999992014032504504+52461+009685FM-15+005699999V0203001N001512200019N008000199-00101-00101999999ADDGF100991999999999999999999MA1101201999990MW1121REMMET077METAR EDDV 250450Z 30003KT 8000 2500E MIFG NSC M01/M01 Q1012 TEMPO      1200=
0123103380999992014032505204+52461+009685FM-15+005699999V0202901N001512200019N004500199-00101-00101999999ADDGF100991999999999999999999MA1101201999990MW1101REMMET064METAR EDDV 250520Z 29003KT 4500 BR NSC M01/M01 Q1012 TEMPO 1200=
0134103380999992014032505504+52461+009685FM-15+005699999V0202901N002612200019N004500199-00101-00101999999ADDGF100991999999999999999999MA1101201999990MW1101MW2121REMMET069METAR EDDV 250550Z 29005KT 4500 MIFG BR NSC M01/M01 Q1012 TEMPO 1200=
0179103380999992014032506204+52461+009685FM-15+005699999V0202701N001512200019N004500199+00001+00001999999ADDGF100991999999999999999999MA1101201999990MW1101MW2111MW3121REMMET108METAR EDDV 250620Z 27003KT 4500 0500E R27R/P2000N R27L/P2000N BCFG      MIFG BR NSC 00/M00 Q1012 TEMPO 1200=
0162103380999992014032506504+52461+009685FM-15+005699999V0202801N002112200019N000200199+00001+00001999999ADDGF100991999999999999999999MA1101201999990MW1481REMMET103METAR EDDV 250650Z 28004KT 0200 R27R/0400V0800D R27L/P2000N FZFG NSC      M00/M00 Q1012 BECMG 1500 NSW=
0145103380999992014032507204+52461+009685FM-15+005699999V0202601V001512200019N003000199+00001+00001999999ADDGF100991999999999999999999MA1101201999990MW1101MW2121REMMET080METAR EDDV 250720Z 26003KT 230V290 3000 MIFG BR NSC 00/00 Q1012 BECMG      5000=
0201103380999992014032507504+52461+009685FM-15+005699999V0202801N00151025911CN003000199+00201+00201999999ADDGA1041+009751991GA2041+025911991GE19MSL   +99999+99999GF199999041990009751991991MA1101201999990MW1101MW2121REMMET082METAR EDDV 250750Z 28003KT 3000 MIFG BR SCT032 SCT085 02/02 Q1012 BECMG      5000=
0182103380999992014032508204+52461+009685FM-15+005699999V0209999V001010243819N007000199+00301+00201999999ADDGA1021+009141991GA2071+024381991GE19MSL   +99999+99999GF199999021990009141991991MA1101201999990MW1121REMMET069METAR EDDV 250820Z VRB02KT 7000 MIFG FEW030 BKN080 03/02 Q1012 NOSIG=
0207103380999992014032508504+52461+009685FM-15+005699999V0202901V00151013721CN008000199+00401+00301999999ADDGA1021+007621991GA2041+013721991GA3071+024381991GE19MSL   +99999+99999GF199999021990007621991991MA1101201999990REMMET084METAR EDDV 250850Z 29003KT 250V330 8000 FEW025 SCT045 BKN080 04/03      Q1012 NOSIG=
0171103380999992014032509204+52461+009685FM-15+005699999V0209999V001010243819N009000199+00601+00301999999ADDGA1021+004881991GA2071+024381991GE19MSL   +99999+99999GF199999021990004881991991MA1101201999990REMMET064METAR EDDV 250920Z VRB02KT 9000 FEW016 BKN080 06/03 Q1012 NOSIG=
0221103380999992014032509504+52461+009685FM-15+005699999V0200901V00211024381CN009999199+00701+00301999999ADDGA1021+004881991GA2021+007621081GA3041+024381991GE19MSL   +99999+99999GF199999021990004881991991MA1101201999990MW1161REMMET092METAR EDDV 250950Z 09004KT 030V150 9999 VCSH FEW016 FEW025TCU SCT080      07/03 Q1012 NOSIG=
0221103380999992014032510204+52461+009685FM-15+005699999V0200501V002610228619N009999199+00701+00201999999ADDGA1021+005491991GA2021+007621081GA3071+022861991GE19MSL   +99999+99999GF199999021990005491991991MA1101201999990MW1161REMMET092METAR EDDV 251020Z 05005KT 340V090 9999 VCSH FEW018 FEW025TCU BKN075      07/02 Q1012 NOSIG=
0187103380999992014032510504+52461+009685FM-15+005699999V0200501V002610228619N009999199+00701+00201999999ADDGA1021+006711081GA2071+022861991GE19MSL   +99999+99999GF199999021990006711991991MA1101101999990REMMET080METAR EDDV 251050Z 05005KT 020V100 9999 FEW022TCU BKN075 07/02 Q1011      NOSIG=
0191103380999992014032511204+52461+009685FM-15+005699999V0200501V002610243819N009999199+00701+00201999999ADDGA1021+007621091GA2071+024381991GE19MSL   +99999+99999GF199999021990007621991991MA1101101999990REMMET084METAR EDDV 251120Z 05005KT 360V100 9999 FEW025CB BKN080 07/02 Q1011      TEMPO SHRA=
0202103380999992014032511504+52461+009685FM-15+005699999V0200601V00211024381CN009999199+00801+00201999999ADDGA1021+007621091GA2041+024381991GE19MSL   +99999+99999GF199999021990007621991991MA1101101999990MW1161REMMET089METAR EDDV 251150Z 06004KT 030V100 9999 VCSH FEW025CB SCT080 08/02      Q1011 TEMPO SHRA=
0202103380999992014032512204+52461+009685FM-15+005699999V0200301V00361024381CN009999199+00801+00101999999ADDGA1021+007621091GA2041+024381991GE19MSL   +99999+99999GF199999021990007621991991MA1101101999990MW1161REMMET089METAR EDDV 251220Z 03007KT 330V080 9999 VCSH FEW025CB SCT080 08/01      Q1011 TEMPO SHRA=
0203103380999992014032512504+52461+009685FM-15+005699999V0203601V00411024381CN009999199+00901-00101999999ADDGA1041+010671091GA2041+024381991GE19MSL   +99999+99999GF199999041990010671991991MA1101001999990MW1161REMMET090METAR EDDV 251250Z 36008KT 310V030 9999 VCSH SCT035CB SCT080 09/M01      Q1010 TEMPO SHRA=
0229103380999992014032513204+52461+009685FM-15+005699999V0203501V00361024381CN009999199+00801-00201999999ADDGA1021+010671091GA2021+012191081GA3041+024381991GE19MSL   +99999+99999GF199999021990010671991991MA1101001999990MW1161REMMET100METAR EDDV 251320Z 35007KT 320V030 9999 VCSH FEW035CB FEW040TCU SCT080      08/M02 Q1010 TEMPO SHRA=
0178103380999992014032513504+52461+009685FM-15+005699999V0200101N00411085341CN009999199+00801+00001999999ADDGA1021+010671091GA2041+085341991GE19MSL   +99999+99999GF199999021990010671991991MA1101001999990REMMET071METAR EDDV 251350Z 01008KT 9999 FEW035CB SCT280 08/00 Q1010 TEMPO SHRA=
0192103380999992014032514204+52461+009685FM-15+005699999V0203601V00461085341CN009999199+00901-00201999999ADDGA1021+010671091GA2041+085341991GE19MSL   +99999+99999GF199999021990010671991991MA1101001999990REMMET085METAR EDDV 251420Z 36009KT 320V030 9999 FEW035CB SCT280 09/M02 Q1010      TEMPO SHRA=
0174103380999992014032514504+52461+009685FM-15+005699999V0203401N00461085341CN009999199+00901+00001999999ADDGA1021+012191091GA2041+085341991GE19MSL   +99999+99999GF199999021990012191991991MA1101001999990REMMET067METAR EDDV 251450Z 34009KT 9999 FEW040CB SCT280 09/M00 Q1010 NOSIG=
0173103380999992014032515204+52461+009685FM-15+005699999V0203201N00511024381CN009999199+00801+00101999999ADDGA1021+012191091GA2041+024381991GE19MSL   +99999+99999GF199999021990012191991991MA1101001999990REMMET066METAR EDDV 251520Z 32010KT 9999 FEW040CB SCT080 08/01 Q1010 NOSIG=
0171103380999992014032515504+52461+009685FM-15+005699999V0203001N00361024381CN009999199+00601+00101999999ADDGA1021+012191991GA2041+024381991GE19MSL   +99999+99999GF199999021990012191991991MA1101001999990REMMET064METAR EDDV 251550Z 30007KT 9999 FEW040 SCT080 06/01 Q1010 NOSIG=
0171103380999992014032516204+52461+009685FM-15+005699999V0203001N00361024381CN009999199+00601+00101999999ADDGA1021+012191991GA2041+024381991GE19MSL   +99999+99999GF199999021990012191991991MA1101001999990REMMET064METAR EDDV 251620Z 30007KT 9999 FEW040 SCT080 06/01 Q1010 NOSIG=
0171103380999992014032516504+52461+009685FM-15+005699999V0203001N00361024381CN009999199+00501+00101999999ADDGA1021+012191991GA2041+024381991GE19MSL   +99999+99999GF199999021990012191991991MA1101001999990REMMET064METAR EDDV 251650Z 30007KT 9999 FEW040 SCT080 05/01 Q1010 NOSIG=
0171103380999992014032517204+52461+009685FM-15+005699999V0203101N00261024381CN009999199+00501+00001999999ADDGA1021+012191991GA2041+024381991GE19MSL   +99999+99999GF199999021990012191991991MA1101101999990REMMET064METAR EDDV 251720Z 31005KT 9999 FEW040 SCT080 05/00 Q1011 NOSIG=
0148103380999992014032517504+52461+009685FM-15+005699999V0203101N003619999999N009999199+00501+00001999999ADDGA1021+012191991GE19MSL   +99999+99999GF199999021990012191991991MA1101101999990REMMET057METAR EDDV 251750Z 31007KT 9999 FEW040 05/00 Q1011 NOSIG=
0078103380999992014032518204+52461+009685FM-15+005699999V0203001N003619999999Y999999999+00401+00101999999ADDMA1101101999990REMMET051METAR EDDV 251820Z 30007KT CAVOK 04/01 Q1011 NOSIG=
0078103380999992014032518504+52461+009685FM-15+005699999V0202901N002619999999Y999999999+00401+00101999999ADDMA1101101999990REMMET051METAR EDDV 251850Z 29005KT CAVOK 04/01 Q1011 NOSIG=
0082103380999992014032519204+52461+009685FM-15+005699999V0202901N001519999999Y999999999+00401+00101999999ADDMA1101101999990REMMET055METAR COR EDDV 251920Z 29003KT CAVOK 04/01 Q1011 NOSIG=
0078103380999992014032519504+52461+009685FM-15+005699999V0203401N002619999999Y999999999+00401+00001999999ADDMA1101101999990REMMET051METAR EDDV 251950Z 34005KT CAVOK 04/00 Q1011 NOSIG=
0078103380999992014032520204+52461+009685FM-15+005699999V0203401N002619999999Y999999999+00401+00001999999ADDMA1101101999990REMMET051METAR EDDV 252020Z 34005KT CAVOK 04/00 Q1011 NOSIG=
0079103380999992014032520504+52461+009685FM-15+005699999V0203601N002119999999Y999999999+00301+00001999999ADDMA1101101999990REMMET052METAR EDDV 252050Z 36004KT CAVOK 03/M00 Q1011 NOSIG=
0073103380999992014032521204+52461+009685FM-15+005699999V0209999V001019999999Y999999999+00201+00001999999ADDMA1101101999990REMMET046METAR EDDV 252120Z VRB02KT CAVOK 02/M00 Q1011=
0073103380999992014032521504+52461+009685FM-15+005699999V0203001N002119999999Y999999999+00201+00001999999ADDMA1101101999990REMMET046METAR EDDV 252150Z 30004KT CAVOK 02/M00 Q1011=
0072103380999992014032522204+52461+009685FM-15+005699999V0202801N002119999999Y999999999+00201+00001999999ADDMA1101101999990REMMET045METAR EDDV 252220Z 28004KT CAVOK 02/00 Q1011=
0081103380999992014032522504+52461+009685FM-15+005699999V0202801V001519999999Y999999999+00101+00001999999ADDMA1101101999990REMMET054METAR EDDV 252250Z 28003KT 220V290 CAVOK 01/M00 Q1011=
0074103380999992014032523204+52461+009685FM-15+005699999V0209999V001019999999Y999999999+00001-00101999999ADDMA1101101999990REMMET047METAR EDDV 252320Z VRB02KT CAVOK M00/M01 Q1011=
0074103380999992014032523504+52461+009685FM-15+005699999V0202601N001519999999Y999999999-00101-00101999999ADDMA1101101999990REMMET047METAR EDDV 252350Z 26003KT CAVOK M01/M01 Q1011=
0074103380999992014032600204+52461+009685FM-15+005699999V0202701N002119999999Y999999999-00101-00201999999ADDMA1101101999990REMMET047METAR EDDV 260020Z 27004KT CAVOK M01/M02 Q1011=
0074103380999992014032600504+52461+009685FM-15+005699999V0202801N002619999999Y999999999+00001-00101999999ADDMA1101101999990REMMET047METAR EDDV 260050Z 28005KT CAVOK M00/M01 Q1011=
0073103380999992014032601204+52461+009685FM-15+005699999V0202701N001519999999Y999999999+00001-00101999999ADDMA1101101999990REMMET046METAR EDDV 260120Z 27003KT CAVOK 00/M01 Q1011=
0167103380999992014032601504+52461+009685FM-15+005699999V0202901N00211064011CN009999199+00001-00101999999ADDGA1041+012501991GA2041+064011991GE19MSL   +99999+99999GF199999041990012501991991MA1101101999990REMMET060METAR EDDV 260150Z 29004KT 9999 SCT041 SCT210 M00/M01 Q1011=
0166103380999992014032602204+52461+009685FM-15+005699999V0202801N00211064011CN009999199+00001-00101999999ADDGA1041+012801991GA2041+064011991GE19MSL   +99999+99999GF199999041990012801991991MA1101101999990REMMET059METAR EDDV 260220Z 28004KT 9999 SCT042 SCT210 00/M01 Q1011=
0173103380999992014032602504+52461+009685FM-15+005699999V0202501V00211064011CN009999199+00101+00001999999ADDGA1021+013411991GA2041+064011991GE19MSL   +99999+99999GF199999021990013411991991MA1101101999990REMMET066METAR EDDV 260250Z 25004KT 200V290 9999 FEW044 SCT210 01/00 Q1011=
0175103380999992014032603204+52461+009685FM-15+005699999V0202901V00151064011CN009999199+00001-00101999999ADDGA1021+013411991GA2041+064011991GE19MSL   +99999+99999GF199999021990013411991991MA1101201999990REMMET068METAR EDDV 260320Z 29003KT 240V320 9999 FEW044 SCT210 M00/M01 Q1012=
0166103380999992014032603504+52461+009685FM-15+005699999V0202801N00261064011CN009999199+00001+00001999999ADDGA1041+011281991GA2041+064011991GE19MSL   +99999+99999GF199999041990011281991991MA1101201999990REMMET059METAR EDDV 260350Z 28005KT 9999 SCT037 SCT210 00/M00 Q1012=
0174103380999992014032604204+52461+009685FM-15+005699999V0202701V00151042671CN009999199+00001+00001999999ADDGA1041+010671991GA2041+042671991GE19MSL   +99999+99999GF199999041990010671991991MA1101201999990REMMET067METAR EDDV 260420Z 27003KT 220V290 9999 SCT035 SCT140 00/M00 Q1012=
0184103380999992014032604504+52461+009685FM-15+005699999V0202601N00101010971CN009999199+00001-00101999999ADDGA1021+009451991GA2041+010971991GE19MSL   +99999+99999GF199999021990009451991991MA1101201999990MW1121REMMET071METAR EDDV 260450Z 26002KT 9999 MIFG FEW031 SCT036 M00/M01 Q1012 NOSIG=
0184103380999992014032605204+52461+009685FM-15+005699999V0202001N00101042671CN009999199+00001-00101999999ADDGA1021+009451991GA2041+042671991GE19MSL   +99999+99999GF199999021990009451991991MA1101201999990MW1121REMMET071METAR EDDV 260520Z 20002KT 9999 MIFG FEW031 SCT140 M00/M01 Q1012 NOSIG=
0183103380999992014032605504+52461+009685FM-15+005699999V0202001N00261076201CN009999199+00001+00001999999ADDGA1021+009451991GA2041+076201991GE19MSL   +99999+99999GF199999021990009451991991MA1101301999990MW1121REMMET070METAR EDDV 260550Z 20005KT 9999 MIFG FEW031 SCT250 00/M00 Q1013 NOSIG=
0183103380999992014032606204+52461+009685FM-15+005699999V0202801N00101076201CN009999199+00001-00101999999ADDGA1021+009451991GA2041+076201991GE19MSL   +99999+99999GF199999021990009451991991MA1101301999990MW1121REMMET070METAR EDDV 260620Z 28002KT 9999 MIFG FEW031 SCT250 00/M01 Q1013 NOSIG=
0118103380999992014032606504+52461+009685FM-15+005699999V0209999V000512200019N009999199+00201+00101999999ADDGF100991999999999999999999MA1101301999990MW1121REMMET059METAR EDDV 260650Z VRB01KT 9999 MIFG NSC 02/01 Q1013 NOSIG=
0126103380999992014032607204+52461+009685FM-15+005699999V0201901V001512200019N009999199+00401+00201999999ADDGF100991999999999999999999MA1101401999990MW1121REMMET067METAR EDDV 260720Z 19003KT 140V250 9999 MIFG NSC 04/02 Q1014 NOSIG=
0078103380999992014032607504+52461+009685FM-15+005699999V0209999V000519999999Y999999999+00501+00201999999ADDMA1101401999990REMMET051METAR EDDV 260750Z VRB01KT CAVOK 05/02 Q1014 NOSIG=
0078103380999992014032608204+52461+009685FM-15+005699999V0209999V001019999999Y999999999+00601+00201999999ADDMA1101401999990REMMET051METAR EDDV 260820Z VRB02KT CAVOK 06/02 Q1014 NOSIG=
0188103380999992014032608504+52461+009685FM-15+005699999V0201601V002110762019N009999199+00701+00301999999ADDGA1021+006711991GA2071+076201991GE19MSL   +99999+99999GF199999021990006711991991MA1101401999990REMMET081METAR COR EDDV 260850Z 16004KT 120V190 9999 FEW022 BKN250 07/03 Q1014      NOSIG=
0171103380999992014032609204+52461+009685FM-15+005699999V0209999V001510762019N009999199+00801+00101999999ADDGA1021+007321991GA2071+076201991GE19MSL   +99999+99999GF199999021990007321991991MA1101401999990REMMET064METAR EDDV 260920Z VRB03KT 9999 FEW024 BKN250 08/01 Q1014 NOSIG=
0179103380999992014032609504+52461+009685FM-15+005699999V0201601V002110762019N009999199+00901+00101999999ADDGA1021+008531991GA2071+076201991GE19MSL   +99999+99999GF199999021990008531991991MA1101501999990REMMET072METAR EDDV 260950Z 16004KT 100V230 9999 FEW028 BKN250 09/01 Q1015 NOSIG=
0171103380999992014032610204+52461+009685FM-15+005699999V0209999V00261076201CN009999199+00901+00001999999ADDGA1021+010061991GA2041+076201991GE19MSL   +99999+99999GF199999021990010061991991MA1101501999990REMMET064METAR EDDV 261020Z VRB05KT 9999 FEW033 SCT250 09/00 Q1015 NOSIG=
0185103380999992014032610504+52461+009685FM-15+005699999V0201601V00361076201CN009999199+01001+00001999999ADDGA1041+010061991GA2041+076201991GE19MSL   +99999+99999GF199999041990010061991991MA1101501999990REMMET078METAR EDDV 261050Z 16007KT 090V200 9999 SCT033 SCT250 10/M00 Q1015      NOSIG=
0185103380999992014032611204+52461+009685FM-15+005699999V0201501V00261076201CN009999199+00901+00001999999ADDGA1041+012191991GA2041+076201991GE19MSL   +99999+99999GF199999041990012191991991MA1101501999990REMMET078METAR EDDV 261120Z 15005KT 110V200 9999 SCT040 SCT250 09/M00 Q1015      NOSIG=
0157103380999992014032611504+52461+009685FM-15+005699999V0201501V003119999999N009999199+01001-00201999999ADDGA1041+013721991GE19MSL   +99999+99999GF199999041990013721991991MA1101501999990REMMET066METAR EDDV 261150Z 15006KT 100V240 9999 SCT045 10/M02 Q1015 NOSIG=
0157103380999992014032612204+52461+009685FM-15+005699999V0201401V003619999999N009999199+01001-00301999999ADDGA1041+014021991GE19MSL   +99999+99999GF199999041990014021991991MA1101501999990REMMET066METAR EDDV 261220Z 14007KT 090V170 9999 SCT046 10/M03 Q1015 NOSIG=
0185103380999992014032612504+52461+009685FM-15+005699999V0201501V00311024381CN009999199+01001-00101999999ADDGA1041+014021991GA2041+024381991GE19MSL   +99999+99999GF199999041990014021991991MA1101501999990REMMET078METAR EDDV 261250Z 15006KT 070V180 9999 SCT046 SCT080 10/M01 Q1015      NOSIG=
0185103380999992014032613204+52461+009685FM-15+005699999V0201101V00411024381CN009999199+01001-00201999999ADDGA1041+014021991GA2041+024381991GE19MSL   +99999+99999GF199999041990014021991991MA1101501999990REMMET078METAR EDDV 261320Z 11008KT 070V150 9999 SCT046 SCT080 10/M02 Q1015      NOSIG=
0172103380999992014032613504+52461+009685FM-15+005699999V0200701N00461024381CN009999199+01001-00201999999ADDGA1041+014021991GA2041+024381991GE19MSL   +99999+99999GF199999041990014021991991MA1101501999990REMMET065METAR EDDV 261350Z 07009KT 9999 SCT046 SCT080 10/M02 Q1015 NOSIG=
0172103380999992014032614204+52461+009685FM-15+005699999V0201201N00461024381CN009999199+01001-00301999999ADDGA1041+014021991GA2041+024381991GE19MSL   +99999+99999GF199999041990014021991991MA1101501999990REMMET065METAR EDDV 261420Z 12009KT 9999 SCT046 SCT080 10/M03 Q1015 NOSIG=
0185103380999992014032614504+52461+009685FM-15+005699999V0201101V00511030481CN009999199+01001-00301999999ADDGA1021+014631991GA2041+030481991GE19MSL   +99999+99999GF199999021990014631991991MA1101501999990REMMET078METAR EDDV 261450Z 11010KT 080V140 9999 FEW048 SCT100 10/M03 Q1015      NOSIG=
0172103380999992014032615204+52461+009685FM-15+005699999V0201301N00771030481CN009999199+01001-00201999999ADDGA1021+014631991GA2041+030481991GE19MSL   +99999+99999GF199999021990014631991991MA1101501999990REMMET065METAR EDDV 261520Z 13015KT 9999 FEW048 SCT100 10/M02 Q1015 NOSIG=
0196103380999992014032615504+52461+009685FM-15+005699999V0201201V00461021341CN009999199+00901+00201999999ADDGA1041+007011991GA2041+021341991GE19MSL   +99999+99999GF199999041990007011991991MA1101601999990MW1801REMMET083METAR EDDV 261550Z 12009KT 030V150 9999 -SHRA SCT023 SCT070 09/02 Q1016      NOSIG=
0207103380999992014032616204+52461+009685FM-15+005699999V0201101V00621021341CN009999199+00801+00101999999ADDGA1041+007011991GA2041+021341991GE19MSL   +99999+99999GF199999041990007011991991MA1101601999990MW1801OC101131REMMET086METAR EDDV 261620Z 11012G22KT 070V160 9999 -SHRA SCT023 SCT070 08/01      Q1016 NOSIG=
0174103380999992014032616504+52461+009685FM-15+005699999V0200201N00361021341CN009999199+00701+00201999999ADDGA1041+007011081GA2041+021341991GE19MSL   +99999+99999GF199999041990007011991991MA1101601999990REMMET067METAR EDDV 261650Z 02007KT 9999 SCT023TCU SCT070 07/02 Q1016 NOSIG=
0174103380999992014032617204+52461+009685FM-15+005699999V0200101N00261021341CN009999199+00701+00201999999ADDGA1041+007011081GA2041+021341991GE19MSL   +99999+99999GF199999041990007011991991MA1101701999990REMMET067METAR EDDV 261720Z 01005KT 9999 SCT023TCU SCT070 07/02 Q1017 NOSIG=
0171103380999992014032617504+52461+009685FM-15+005699999V0200401N00211085341CN009999199+00501+00201999999ADDGA1021+008531991GA2041+085341991GE19MSL   +99999+99999GF199999021990008531991991MA1101701999990REMMET064METAR EDDV 261750Z 04004KT 9999 FEW028 SCT280 05/02 Q1017 NOSIG=
0171103380999992014032618204+52461+009685FM-15+005699999V0200601N00261085341CN009999199+00501+00201999999ADDGA1021+008531991GA2041+085341991GE19MSL   +99999+99999GF199999021990008531991991MA1101701999990REMMET064METAR EDDV 261820Z 06005KT 9999 FEW028 SCT280 05/02 Q1017 NOSIG=
0078103380999992014032618504+52461+009685FM-15+005699999V0200601N003619999999Y999999999+00501+00201999999ADDMA1101701999990REMMET051METAR EDDV 261850Z 06007KT CAVOK 05/02 Q1017 NOSIG=
0078103380999992014032619204+52461+009685FM-15+005699999V0200601N003619999999Y999999999+00501+00101999999ADDMA1101801999990REMMET051METAR EDDV 261920Z 06007KT CAVOK 05/01 Q1018 NOSIG=
0078103380999992014032619504+52461+009685FM-15+005699999V0200801N004619999999Y999999999+00401+00001999999ADDMA1101801999990REMMET051METAR EDDV 261950Z 08009KT CAVOK 04/00 Q1018 NOSIG=
0078103380999992014032620204+52461+009685FM-15+005699999V0200701N003619999999Y999999999+00501+00001999999ADDMA1101801999990REMMET051METAR EDDV 262020Z 07007KT CAVOK 05/00 Q1018 NOSIG=
0078103380999992014032620504+52461+009685FM-15+005699999V0200701N003619999999Y999999999+00401+00001999999ADDMA1101801999990REMMET051METAR EDDV 262050Z 07007KT CAVOK 04/00 Q1018 NOSIG=
0078103380999992014032621204+52461+009685FM-15+005699999V0200901N005119999999Y999999999+00501+00101999999ADDMA1101801999990REMMET051METAR EDDV 262120Z 09010KT CAVOK 05/01 Q1018 NOSIG=
0078103380999992014032621504+52461+009685FM-15+005699999V0200901N005719999999Y999999999+00501+00101999999ADDMA1101801999990REMMET051METAR EDDV 262150Z 09011KT CAVOK 05/01 Q1018 NOSIG=
0072103380999992014032622204+52461+009685FM-15+005699999V0200801N004619999999Y999999999+00501+00101999999ADDMA1101801999990REMMET045METAR EDDV 262220Z 08009KT CAVOK 05/01 Q1018=
0072103380999992014032622504+52461+009685FM-15+005699999V0200801N004619999999Y999999999+00401+00101999999ADDMA1101801999990REMMET045METAR EDDV 262250Z 08009KT CAVOK 04/01 Q1018=
0072103380999992014032623204+52461+009685FM-15+005699999V0200801N004619999999Y999999999+00401+00101999999ADDMA1101801999990REMMET045METAR EDDV 262320Z 08009KT CAVOK 04/01 Q1018=
0072103380999992014032623504+52461+009685FM-15+005699999V0200801N004619999999Y999999999+00401+00101999999ADDMA1101801999990REMMET045METAR EDDV 262350Z 08009KT CAVOK 04/01 Q1018=
0072103380999992014032700204+52461+009685FM-15+005699999V0200801N005119999999Y999999999+00401+00101999999ADDMA1101801999990REMMET045METAR EDDV 270020Z 08010KT CAVOK 04/01 Q1018=
0072103380999992014032700504+52461+009685FM-15+005699999V0200701N005119999999Y999999999+00401+00101999999ADDMA1101801999990REMMET045METAR EDDV 270050Z 07010KT CAVOK 04/01 Q1018=
0072103380999992014032701204+52461+009685FM-15+005699999V0200601N005119999999Y999999999+00301+00101999999ADDMA1101801999990REMMET045METAR EDDV 270120Z 06010KT CAVOK 03/01 Q1018=
0072103380999992014032701504+52461+009685FM-15+005699999V0200701N004619999999Y999999999+00301+00101999999ADDMA1101801999990REMMET045METAR EDDV 270150Z 07009KT CAVOK 03/01 Q1018=
0072103380999992014032702204+52461+009685FM-15+005699999V0200801N004119999999Y999999999+00301+00101999999ADDMA1101801999990REMMET045METAR EDDV 270220Z 08008KT CAVOK 03/01 Q1018=
0072103380999992014032702504+52461+009685FM-15+005699999V0200801N004119999999Y999999999+00201+00101999999ADDMA1101801999990REMMET045METAR EDDV 270250Z 08008KT CAVOK 02/01 Q1018=
0072103380999992014032703204+52461+009685FM-15+005699999V0200801N005119999999Y999999999+00301+00101999999ADDMA1101801999990REMMET045METAR EDDV 270320Z 08010KT CAVOK 03/01 Q1018=
0078103380999992014032703504+52461+009685FM-15+005699999V0200801N005119999999Y999999999+00301+00101999999ADDMA1101801999990REMMET051METAR EDDV 270350Z 08010KT CAVOK 03/01 Q1018 NOSIG=
0078103380999992014032704204+52461+009685FM-15+005699999V0200801N004619999999Y999999999+00201+00101999999ADDMA1101801999990REMMET051METAR EDDV 270420Z 08009KT CAVOK 02/01 Q1018 NOSIG=
0078103380999992014032704504+52461+009685FM-15+005699999V0200801N005119999999Y999999999+00201+00101999999ADDMA1101801999990REMMET051METAR EDDV 270450Z 08010KT CAVOK 02/01 Q1018 NOSIG=
0078103380999992014032705204+52461+009685FM-15+005699999V0200801N005719999999Y999999999+00201+00101999999ADDMA1101801999990REMMET051METAR EDDV 270520Z 08011KT CAVOK 02/01 Q1018 NOSIG=
0078103380999992014032705504+52461+009685FM-15+005699999V0200801N006219999999Y999999999+00301+00101999999ADDMA1101801999990REMMET051METAR EDDV 270550Z 08012KT CAVOK 03/01 Q1018 NOSIG=
0078103380999992014032706204+52461+009685FM-15+005699999V0200801N007219999999Y999999999+00301+00201999999ADDMA1101801999990REMMET051METAR EDDV 270620Z 08014KT CAVOK 03/02 Q1018 NOSIG=
0078103380999992014032706504+52461+009685FM-15+005699999V0200901N006219999999Y999999999+00301+00201999999ADDMA1101801999990REMMET051METAR EDDV 270650Z 09012KT CAVOK 03/02 Q1018 NOSIG=
0078103380999992014032707204+52461+009685FM-15+005699999V0200901N005719999999Y999999999+00401+00201999999ADDMA1101801999990REMMET051METAR EDDV 270720Z 09011KT CAVOK 04/02 Q1018 NOSIG=
0078103380999992014032707504+52461+009685FM-15+005699999V0200901N006719999999Y999999999+00501+00201999999ADDMA1101801999990REMMET051METAR EDDV 270750Z 09013KT CAVOK 05/02 Q1018 NOSIG=
0078103380999992014032708204+52461+009685FM-15+005699999V0200901N005719999999Y999999999+00601+00301999999ADDMA1101801999990REMMET051METAR EDDV 270820Z 09011KT CAVOK 06/03 Q1018 NOSIG=
0171103380999992014032708504+52461+009685FM-15+005699999V0200901N00671076201CN009999199+00701+00201999999ADDGA1021+006101991GA2041+076201991GE19MSL   +99999+99999GF199999021990006101991991MA1101801999990REMMET064METAR EDDV 270850Z 09013KT 9999 FEW020 SCT250 07/02 Q1018 NOSIG=
0171103380999992014032709204+52461+009685FM-15+005699999V0200801N00671027431CN009999199+00801+00301999999ADDGA1021+006101991GA2041+027431991GE19MSL   +99999+99999GF199999021990006101991991MA1101801999990REMMET064METAR EDDV 270920Z 08013KT 9999 FEW020 SCT090 08/03 Q1018 NOSIG=
0156103380999992014032709504+52461+009685FM-15+005699999V0200901V007219999999N009999199+00901+00301999999ADDGA1021+007011991GE19MSL   +99999+99999GF199999021990007011991991MA1101801999990REMMET065METAR EDDV 270950Z 09014KT 070V130 9999 FEW023 09/03 Q1018 NOSIG=
0148103380999992014032710204+52461+009685FM-15+005699999V0200901N007719999999N009999199+01001+00301999999ADDGA1021+008531991GE19MSL   +99999+99999GF199999021990008531991991MA1101701999990REMMET057METAR EDDV 271020Z 09015KT 9999 FEW028 10/03 Q1017 NOSIG=
0163103380999992014032710504+52461+009685FM-15+005699999V0201001N008819999999N009999199+01101+00201999999ADDGA1021+008531991GE19MSL   +99999+99999GF199999021990008531991991MA1101701999990REMMET072METAR COR EDDV 271050Z 10017KT 9999 FEW028 11/02 Q1017 TEMPO 12020G30KT=
0167103380999992014032711204+52461+009685FM-15+005699999V0200901V008819999999N009999199+01101+00101999999ADDGA1021+011581991GE19MSL   +99999+99999GF199999021990011581991991MA1101701999990REMMET076METAR EDDV 271120Z 09017KT 050V120 9999 FEW038 11/01 Q1017 TEMPO 12020G30KT=
0159103380999992014032711504+52461+009685FM-15+005699999V0200901N008219999999N009999199+01101+00101999999ADDGA1021+012191991GE19MSL   +99999+99999GF199999021990012191991991MA1101701999990REMMET068METAR EDDV 271150Z 09016KT 9999 FEW040 11/01 Q1017 TEMPO 12020G30KT=
0167103380999992014032712204+52461+009685FM-15+005699999V0201001V007219999999N009999199+01201+00101999999ADDGA1021+013411991GE19MSL   +99999+99999GF199999021990013411991991MA1101601999990REMMET076METAR EDDV 271220Z 10014KT 070V130 9999 FEW044 12/01 Q1016 TEMPO 12020G30KT=
0159103380999992014032712504+52461+009685FM-15+005699999V0201001N007719999999N009999199+01201+00101999999ADDGA1021+014021991GE19MSL   +99999+99999GF199999021990014021991991MA1101601999990REMMET068METAR EDDV 271250Z 10015KT 9999 FEW046 12/01 Q1016 TEMPO 12020G30KT=
0168103380999992014032713204+52461+009685FM-15+005699999V0200901V007219999999N009999199+01201-00101999999ADDGA1021+014021991GE19MSL   +99999+99999GF199999021990014021991991MA1101601999990REMMET077METAR EDDV 271320Z 09014KT 060V140 9999 FEW046 12/M01 Q1016 TEMPO 12020G30KT=
0098103380999992014032713504+52461+009685FM-15+005699999V0201001V007219999999Y999999999+01201+00001999999ADDMA1101501999990REMMET071METAR EDDV 271350Z 10014KT 060V130 CAVOK 12/M00 Q1015 TEMPO 12015G25KT=
0097103380999992014032714204+52461+009685FM-15+005699999V0200901V006219999999Y999999999+01301+00001999999ADDMA1101501999990REMMET070METAR EDDV 271420Z 09012KT 070V140 CAVOK 13/00 Q1015 TEMPO 12015G25KT=
0097103380999992014032714504+52461+009685FM-15+005699999V0201001V006719999999Y999999999+01301+00101999999ADDMA1101501999990REMMET070METAR EDDV 271450Z 10013KT 050V140 CAVOK 13/01 Q1015 TEMPO 12015G25KT=
0089103380999992014032715204+52461+009685FM-15+005699999V0200801N007719999999Y999999999+01201+00101999999ADDMA1101501999990REMMET062METAR EDDV 271520Z 08015KT CAVOK 12/01 Q1015 TEMPO 12015G25KT=
0078103380999992014032715504+52461+009685FM-15+005699999V0200801N007219999999Y999999999+01201+00101999999ADDMA1101501999990REMMET051METAR EDDV 271550Z 08014KT CAVOK 12/01 Q1015 NOSIG=
0078103380999992014032716204+52461+009685FM-15+005699999V0200801N007219999999Y999999999+01201+00001999999ADDMA1101501999990REMMET051METAR EDDV 271620Z 08014KT CAVOK 12/00 Q1015 NOSIG=
0078103380999992014032716504+52461+009685FM-15+005699999V0200701N006219999999Y999999999+01101+00101999999ADDMA1101501999990REMMET051METAR EDDV 271650Z 07012KT CAVOK 11/01 Q1015 NOSIG=
0078103380999992014032717204+52461+009685FM-15+005699999V0200701N005119999999Y999999999+01001+00101999999ADDMA1101601999990REMMET051METAR EDDV 271720Z 07010KT CAVOK 10/01 Q1016 NOSIG=
0078103380999992014032717504+52461+009685FM-15+005699999V0200701N005119999999Y999999999+00901+00101999999ADDMA1101601999990REMMET051METAR EDDV 271750Z 07010KT CAVOK 09/01 Q1016 NOSIG=
0078103380999992014032718204+52461+009685FM-15+005699999V0200701N004119999999Y999999999+00801+00101999999ADDMA1101601999990REMMET051METAR EDDV 271820Z 07008KT CAVOK 08/01 Q1016 NOSIG=
0078103380999992014032718504+52461+009685FM-15+005699999V0200701N004119999999Y999999999+00801+00101999999ADDMA1101601999990REMMET051METAR EDDV 271850Z 07008KT CAVOK 08/01 Q1016 NOSIG=
0078103380999992014032719204+52461+009685FM-15+005699999V0200701N004619999999Y999999999+00701+00001999999ADDMA1101701999990REMMET051METAR EDDV 271920Z 07009KT CAVOK 07/00 Q1017 NOSIG=
0078103380999992014032719504+52461+009685FM-15+005699999V0200701N005119999999Y999999999+00701+00201999999ADDMA1101701999990REMMET051METAR EDDV 271950Z 07010KT CAVOK 07/02 Q1017 NOSIG=
0078103380999992014032720204+52461+009685FM-15+005699999V0200701N004619999999Y999999999+00701+00201999999ADDMA1101701999990REMMET051METAR EDDV 272020Z 07009KT CAVOK 07/02 Q1017 NOSIG=
0078103380999992014032720504+52461+009685FM-15+005699999V0200801N004619999999Y999999999+00601+00201999999ADDMA1101701999990REMMET051METAR EDDV 272050Z 08009KT CAVOK 06/02 Q1017 NOSIG=
0072103380999992014032721204+52461+009685FM-15+005699999V0200701N004619999999Y999999999+00601+00201999999ADDMA1101801999990REMMET045METAR EDDV 272120Z 07009KT CAVOK 06/02 Q1018=
0072103380999992014032721504+52461+009685FM-15+005699999V0200801N005119999999Y999999999+00601+00101999999ADDMA1101801999990REMMET045METAR EDDV 272150Z 08010KT CAVOK 06/01 Q1018=
0072103380999992014032722204+52461+009685FM-15+005699999V0200801N004619999999Y999999999+00501+00101999999ADDMA1101801999990REMMET045METAR EDDV 272220Z 08009KT CAVOK 05/01 Q1018=
0072103380999992014032722504+52461+009685FM-15+005699999V0200801N004119999999Y999999999+00501+00101999999ADDMA1101801999990REMMET045METAR EDDV 272250Z 08008KT CAVOK 05/01 Q1018=
0072103380999992014032723204+52461+009685FM-15+005699999V0200901N003119999999Y999999999+00401+00101999999ADDMA1101801999990REMMET045METAR EDDV 272320Z 09006KT CAVOK 04/01 Q1018=
0072103380999992014032723504+52461+009685FM-15+005699999V0200801N003119999999Y999999999+00401+00101999999ADDMA1101801999990REMMET045METAR EDDV 272350Z 08006KT CAVOK 04/01 Q1018=
0072103380999992014032800204+52461+009685FM-15+005699999V0200801N004119999999Y999999999+00301+00101999999ADDMA1101801999990REMMET045METAR EDDV 280020Z 08008KT CAVOK 03/01 Q1018=
0072103380999992014032800504+52461+009685FM-15+005699999V0200801N004119999999Y999999999+00301+00101999999ADDMA1101801999990REMMET045METAR EDDV 280050Z 08008KT CAVOK 03/01 Q1018=
0072103380999992014032801204+52461+009685FM-15+005699999V0200801N004119999999Y999999999+00301+00201999999ADDMA1101801999990REMMET045METAR EDDV 280120Z 08008KT CAVOK 03/02 Q1018=
0072103380999992014032801504+52461+009685FM-15+005699999V0200801N003619999999Y999999999+00301+00201999999ADDMA1101901999990REMMET045METAR EDDV 280150Z 08007KT CAVOK 03/02 Q1019=
0072103380999992014032802204+52461+009685FM-15+005699999V0200801N004619999999Y999999999+00301+00201999999ADDMA1101901999990REMMET045METAR EDDV 280220Z 08009KT CAVOK 03/02 Q1019=
0142103380999992014032802504+52461+009685FM-15+005699999V0200801N004119999999N009999199+00301+00201999999ADDGA1021+002131991GE19MSL   +99999+99999GF199999021990002131991991MA1101901999990REMMET051METAR EDDV 280250Z 08008KT 9999 FEW007 03/02 Q1019=
0142103380999992014032803204+52461+009685FM-15+005699999V0200901N005110021319N009999199+00301+00201999999ADDGA1071+002131991GE19MSL   +99999+99999GF199999071990002131991991MA1101901999990REMMET051METAR EDDV 280320Z 09010KT 9999 BKN007 03/02 Q1019=
0142103380999992014032803504+52461+009685FM-15+005699999V0200901N005710015219N009999199+00301+00201999999ADDGA1071+001521991GE19MSL   +99999+99999GF199999071990001521991991MA1101901999990REMMET051METAR EDDV 280350Z 09011KT 9999 BKN005 03/02 Q1019=
0156103380999992014032804204+52461+009685FM-15+005699999V0200901N006210012219N009000199+00301+00301999999ADDGA1071+001221991GE19MSL   +99999+99999GF199999071990001221991991MA1102001999990REMMET065METAR EDDV 280420Z 09012KT 9000 BKN004 03/03 Q1020 BECMG 4000 BR=
0156103380999992014032804504+52461+009685FM-15+005699999V0200901N004610012219N006000199+00301+00301999999ADDGA1071+001221991GE19MSL   +99999+99999GF199999071990001221991991MA1102001999990REMMET065METAR EDDV 280450Z 09009KT 6000 BKN004 03/03 Q1020 BECMG 4000 BR=
0156103380999992014032805204+52461+009685FM-15+005699999V0200801N004610012219N006000199+00301+00201999999ADDGA1071+001221991GE19MSL   +99999+99999GF199999071990001221991991MA1102001999990REMMET065METAR EDDV 280520Z 08009KT 6000 BKN004 03/02 Q1020 BECMG 4000 BR=
0162103380999992014032805504+52461+009685FM-15+005699999V0200901N005110012219N005000199+00301+00301999999ADDGA1071+001221991GE19MSL   +99999+99999GF199999071990001221991991MA1102001999990MW1101REMMET065METAR EDDV 280550Z 09010KT 5000 BR BKN004 03/03 Q1020 BECMG 4000=
0162103380999992014032806204+52461+009685FM-15+005699999V0200801N005710012219N005000199+00301+00301999999ADDGA1081+001221991GE19MSL   +99999+99999GF199999081990001221991991MA1102101999990MW1101REMMET065METAR EDDV 280620Z 08011KT 5000 BR OVC004 03/03 Q1021 BECMG 4000=
0162103380999992014032806504+52461+009685FM-15+005699999V0200901N005710009119N005000199+00301+00301999999ADDGA1081+000911991GE19MSL   +99999+99999GF199999081990000911991991MA1102101999990MW1101REMMET065METAR EDDV 280650Z 09011KT 5000 BR OVC003 03/03 Q1021 TEMPO 4000=
0162103380999992014032807204+52461+009685FM-15+005699999V0201001N005110009119N005000199+00301+00301999999ADDGA1081+000911991GE19MSL   +99999+99999GF199999081990000911991991MA1102101999990MW1101REMMET065METAR EDDV 280720Z 10010KT 5000 BR OVC003 03/03 Q1021 TEMPO 4000=
0157103380999992014032807504+52461+009685FM-15+005699999V0200901N004610009119N004500199+00401+00301999999ADDGA1081+000911991GE19MSL   +99999+99999GF199999081990000911991991MA1102201999990MW1101REMMET060METAR EDDV 280750Z 09009KT 4500 BR OVC003 04/03 Q1022 NOSIG=
0164103380999992014032808204+52461+009685FM-15+005699999V0201001N005110012219N005000199+00401+00301999999ADDGA1081+001221991GE19MSL   +99999+99999GF199999081990001221991991MA1102201999990MW1101REMMET067METAR EDDV 280820Z 10010KT 5000 BR OVC004 04/03 Q1022 BECMG BKN006=
0156103380999992014032808504+52461+009685FM-15+005699999V0201001V005110015219N006000199+00501+00301999999ADDGA1081+001521991GE19MSL   +99999+99999GF199999081990001521991991MA1102201999990REMMET065METAR EDDV 280850Z 10010KT 070V130 6000 OVC005 05/03 Q1022 NOSIG=
0148103380999992014032809204+52461+009685FM-15+005699999V0201001N005110018319N007000199+00501+00401999999ADDGA1071+001831991GE19MSL   +99999+99999GF199999071990001831991991MA1102201999990REMMET057METAR EDDV 280920Z 10010KT 7000 BKN006 05/04 Q1022 NOSIG=
0155103380999992014032809504+52461+009685FM-15+005699999V0200901N005710021319N008000199+00601+00401999999ADDGA1071+002131991GE19MSL   +99999+99999GF199999071990002131991991MA1102201999990REMMET064METAR EDDV 280950Z 09011KT 8000 BKN007 06/04 Q1022 BECMG BKN012=
0155103380999992014032810204+52461+009685FM-15+005699999V0200801N006210021319N008000199+00601+00401999999ADDGA1071+002131991GE19MSL   +99999+99999GF199999071990002131991991MA1102201999990REMMET064METAR EDDV 281020Z 08012KT 8000 BKN007 06/04 Q1022 BECMG BKN012=
0155103380999992014032810504+52461+009685FM-15+005699999V0200901N006210036619N008000199+00701+00401999999ADDGA1071+003661991GE19MSL   +99999+99999GF199999071990003661991991MA1102201999990REMMET064METAR EDDV 281050Z 09012KT 8000 BKN012 07/04 Q1022 BECMG SCT015=
0155103380999992014032811204+52461+009685FM-15+005699999V0200801N006210039619N008000199+00701+00401999999ADDGA1071+003961991GE19MSL   +99999+99999GF199999071990003961991991MA1102201999990REMMET064METAR EDDV 281120Z 08012KT 8000 BKN013 07/04 Q1022 BECMG SCT015=
0171103380999992014032811504+52461+009685FM-15+005699999V0200801N007210042719N008000199+00801+00401999999ADDGA1071+004271991GA2071+106681991GE19MSL   +99999+99999GF199999071990004271991991MA1102201999990REMMET064METAR EDDV 281150Z 08014KT 8000 BKN014 BKN350 08/04 Q1022 NOSIG=
0171103380999992014032812204+52461+009685FM-15+005699999V0200801N006710048819N008000199+00901+00501999999ADDGA1071+004881991GA2071+106681991GE19MSL   +99999+99999GF199999071990004881991991MA1102201999990REMMET064METAR EDDV 281220Z 08013KT 8000 BKN016 BKN350 09/05 Q1022 NOSIG=
0179103380999992014032812504+52461+009685FM-15+005699999V0200701V006211066819N009999199+00901+00501999999ADDGA1041+005491991GA2071+106681991GE19MSL   +99999+99999GF199999041990005491991991MA1102201999990REMMET072METAR EDDV 281250Z 07012KT 030V110 9999 SCT018 BKN350 09/05 Q1022 NOSIG=
0171103380999992014032813204+52461+009685FM-15+005699999V0200801N005110914419N009999199+00901+00501999999ADDGA1021+005491991GA2071+091441991GE19MSL   +99999+99999GF199999021990005491991991MA1102201999990REMMET064METAR EDDV 281320Z 08010KT 9999 FEW018 BKN300 09/05 Q1022 NOSIG=
0171103380999992014032813504+52461+009685FM-15+005699999V0200901N005110914419N009999199+01001+00401999999ADDGA1021+006101991GA2071+091441991GE19MSL   +99999+99999GF199999021990006101991991MA1102101999990REMMET064METAR EDDV 281350Z 09010KT 9999 FEW020 BKN300 10/04 Q1021 NOSIG=
0171103380999992014032814204+52461+009685FM-15+005699999V0201001N005110914419N009999199+01001+00401999999ADDGA1021+006401991GA2071+091441991GE19MSL   +99999+99999GF199999021990006401991991MA1102101999990REMMET064METAR EDDV 281420Z 10010KT 9999 FEW021 BKN300 10/04 Q1021 NOSIG=
0179103380999992014032814504+52461+009685FM-15+005699999V0200901V00461091441CN009999199+01001+00401999999ADDGA1021+006711991GA2041+091441991GE19MSL   +99999+99999GF199999021990006711991991MA1102101999990REMMET072METAR EDDV 281450Z 09009KT 060V140 9999 FEW022 SCT300 10/04 Q1021 NOSIG=
0179103380999992014032815204+52461+009685FM-15+005699999V0200901V00511091441CN009999199+01001+00501999999ADDGA1021+007621991GA2041+091441991GE19MSL   +99999+99999GF199999021990007621991991MA1102101999990REMMET072METAR EDDV 281520Z 09010KT 050V110 9999 FEW025 SCT300 10/05 Q1021 NOSIG=
0156103380999992014032815504+52461+009685FM-15+005699999V0200701V005719999999N009999199+01001+00401999999ADDGA1041+007621991GE19MSL   +99999+99999GF199999041990007621991991MA1102101999990REMMET065METAR EDDV 281550Z 07011KT 040V100 9999 SCT025 10/04 Q1021 NOSIG=
0148103380999992014032816204+52461+009685FM-15+005699999V0200801N004119999999N009999199+01001+00501999999ADDGA1041+008231991GE19MSL   +99999+99999GF199999041990008231991991MA1102101999990REMMET057METAR EDDV 281620Z 08008KT 9999 SCT027 10/05 Q1021 NOSIG=
0171103380999992014032816504+52461+009685FM-15+005699999V0200701N00671091441CN009999199+00901+00501999999ADDGA1021+008231991GA2041+091441991GE19MSL   +99999+99999GF199999021990008231991991MA1102101999990REMMET064METAR EDDV 281650Z 07013KT 9999 FEW027 SCT300 09/05 Q1021 NOSIG=
0171103380999992014032817204+52461+009685FM-15+005699999V0200701N00621091441CN009999199+00801+00501999999ADDGA1021+007921991GA2041+091441991GE19MSL   +99999+99999GF199999021990007921991991MA1102101999990REMMET064METAR EDDV 281720Z 07012KT 9999 FEW026 SCT300 08/05 Q1021 NOSIG=
0171103380999992014032817504+52461+009685FM-15+005699999V0200801N005710182919N009999199+00801+00501999999ADDGA1021+004571991GA2071+018291991GE19MSL   +99999+99999GF199999021990004571991991MA1102201999990REMMET064METAR EDDV 281750Z 08011KT 9999 FEW015 BKN060 08/05 Q1022 NOSIG=
0171103380999992014032818204+52461+009685FM-15+005699999V0200801N006210182919N009999199+00801+00501999999ADDGA1041+007321991GA2071+018291991GE19MSL   +99999+99999GF199999041990007321991991MA1102201999990REMMET064METAR EDDV 281820Z 08012KT 9999 SCT024 BKN060 08/05 Q1022 NOSIG=
0171103380999992014032818504+52461+009685FM-15+005699999V0200801N006210076219N009999199+00801+00501999999ADDGA1041+004571991GA2071+007621991GE19MSL   +99999+99999GF199999041990004571991991MA1102201999990REMMET064METAR EDDV 281850Z 08012KT 9999 SCT015 BKN025 08/05 Q1022 NOSIG=
0171103380999992014032819204+52461+009685FM-15+005699999V0200901N005710070119N009999199+00701+00501999999ADDGA1041+003961991GA2071+007011991GE19MSL   +99999+99999GF199999041990003961991991MA1102201999990REMMET064METAR EDDV 281920Z 09011KT 9999 SCT013 BKN023 07/05 Q1022 NOSIG=
0171103380999992014032819504+52461+009685FM-15+005699999V0200901N005110070119N009999199+00701+00501999999ADDGA1041+003661991GA2071+007011991GE19MSL   +99999+99999GF199999041990003661991991MA1102201999990REMMET064METAR EDDV 281950Z 09010KT 9999 SCT012 BKN023 07/05 Q1022 NOSIG=
0171103380999992014032820204+52461+009685FM-15+005699999V0200901N005710070119N009999199+00701+00501999999ADDGA1041+003661991GA2071+007011991GE19MSL   +99999+99999GF199999041990003661991991MA1102201999990REMMET064METAR EDDV 282020Z 09011KT 9999 SCT012 BKN023 07/05 Q1022 NOSIG=
0171103380999992014032820504+52461+009685FM-15+005699999V0200901N005110033519N009999199+00701+00501999999ADDGA1071+003351991GA2071+010971991GE19MSL   +99999+99999GF199999071990003351991991MA1102201999990REMMET064METAR EDDV 282050Z 09010KT 9999 BKN011 BKN036 07/05 Q1022 NOSIG=
0165103380999992014032821204+52461+009685FM-15+005699999V0200901N005710033519N009999199+00701+00501999999ADDGA1071+003351991GA2071+010061991GE19MSL   +99999+99999GF199999071990003351991991MA1102201999990REMMET058METAR EDDV 282120Z 09011KT 9999 BKN011 BKN033 07/05 Q1022=
0142103380999992014032821504+52461+009685FM-15+005699999V0200901N005110033519N008000199+00701+00501999999ADDGA1071+003351991GE19MSL   +99999+99999GF199999071990003351991991MA1102201999990REMMET051METAR EDDV 282150Z 09010KT 8000 BKN011 07/05 Q1022=
0142103380999992014032822204+52461+009685FM-15+005699999V0201001N004110030519N007000199+00701+00601999999ADDGA1071+003051991GE19MSL   +99999+99999GF199999071990003051991991MA1102201999990REMMET051METAR EDDV 282220Z 10008KT 7000 BKN010 07/06 Q1022=
0142103380999992014032822504+52461+009685FM-15+005699999V0200901N004610027419N006000199+00701+00601999999ADDGA1081+002741991GE19MSL   +99999+99999GF199999081990002741991991MA1102201999990REMMET051METAR EDDV 282250Z 09009KT 6000 OVC009 07/06 Q1022=
0142103380999992014032823204+52461+009685FM-15+005699999V0201001N004110027419N006000199+00701+00601999999ADDGA1081+002741991GE19MSL   +99999+99999GF199999081990002741991991MA1102201999990REMMET051METAR EDDV 282320Z 10008KT 6000 OVC009 07/06 Q1022=
0142103380999992014032823504+52461+009685FM-15+005699999V0200901N004610027419N006000199+00701+00501999999ADDGA1081+002741991GE19MSL   +99999+99999GF199999081990002741991991MA1102201999990REMMET051METAR EDDV 282350Z 09009KT 6000 OVC009 07/05 Q1022=
0165103380999992014032900204+52461+009685FM-15+005699999V0201001N004110027419N007000199+00701+00601999999ADDGA1071+002741991GA2071+008531991GE19MSL   +99999+99999GF199999071990002741991991MA1102201999990REMMET058METAR EDDV 290020Z 10008KT 7000 BKN009 BKN028 07/06 Q1022=
0142103380999992014032900504+52461+009685FM-15+005699999V0201101N004110027419N007000199+00701+00601999999ADDGA1081+002741991GE19MSL   +99999+99999GF199999081990002741991991MA1102201999990REMMET051METAR EDDV 290050Z 11008KT 7000 OVC009 07/06 Q1022=
0151103380999992014032901204+52461+009685FM-15+005699999V0201101N004110027419N005000199+00801+00601999999ADDGA1081+002741991GE19MSL   +99999+99999GF199999081990002741991991MA1102201999990MW1101REMMET054METAR EDDV 290120Z 11008KT 5000 BR OVC009 08/06 Q1022=
0151103380999992014032901504+52461+009685FM-15+005699999V0201201N004610027419N004700199+00801+00601999999ADDGA1081+002741991GE19MSL   +99999+99999GF199999081990002741991991MA1102201999990MW1101REMMET054METAR EDDV 290150Z 12009KT 4700 BR OVC009 08/06 Q1022=
0151103380999992014032902204+52461+009685FM-15+005699999V0201101N003610024419N004500199+00701+00601999999ADDGA1081+002441991GE19MSL   +99999+99999GF199999081990002441991991MA1102201999990MW1101REMMET054METAR EDDV 290220Z 11007KT 4500 BR OVC008 07/06 Q1022=
0151103380999992014032902504+52461+009685FM-15+005699999V0201201N005110024419N004500199+00701+00601999999ADDGA1081+002441991GE19MSL   +99999+99999GF199999081990002441991991MA1102201999990MW1101REMMET054METAR EDDV 290250Z 12010KT 4500 BR OVC008 07/06 Q1022=
0151103380999992014032903204+52461+009685FM-15+005699999V0201201N004610021319N003800199+00701+00601999999ADDGA1081+002131991GE19MSL   +99999+99999GF199999081990002131991991MA1102201999990MW1101REMMET054METAR EDDV 290320Z 12009KT 3800 BR OVC007 07/06 Q1022=
0165103380999992014032903504+52461+009685FM-15+005699999V0201001V003110021319N004200199+00601+00501999999ADDGA1071+002131991GE19MSL   +99999+99999GF199999071990002131991991MA1102201999990MW1101REMMET068METAR EDDV 290350Z 10006KT 080V140 4200 BR BKN007 06/05 Q1022 NOSIG=
0168103380999992014032904204+52461+009685FM-15+005699999V0201001N003619999999N003000199+00601+00501999999ADDGA1041+001831991GE19MSL   +99999+99999GF199999041990001831991991MA1102301999990MW1101MW2121REMMET065METAR EDDV 290420Z 10007KT 3000 MIFG BR SCT006 06/05 Q1023 NOSIG=
0191103380999992014032904504+52461+009685FM-15+005699999V0201001N00311076201CN001800199+00501+00501999999ADDGA1041+001521991GA2041+076201991GE19MSL   +99999+99999GF199999041990001521991991MA1102301999990MW1101MW2121REMMET072METAR EDDV 290450Z 10006KT 1800 MIFG BR SCT005 SCT250 05/05 Q1023 NOSIG=
0201103380999992014032905204+52461+009685FM-15+005699999V0201001N00311076201CN001800199+00501+00401999999ADDGA1021+001521991GA2041+076201991GE19MSL   +99999+99999GF199999021990001521991991MA1102301999990MW1101MW2121REMMET082METAR EDDV 290520Z 10006KT 1800 MIFG BR FEW005 SCT250 05/04 Q1023 TEMPO      1200=
0148103380999992014032905504+52461+009685FM-15+005699999V0201001N002612200019N001800199+00501+00401999999ADDGF100991999999999999999999MA1102301999990MW1101MW2121REMMET083METAR COR EDDV 290550Z 10005KT 1800 MIFG BR NSC 05/04 Q1023 TEMPO 1200      BKN003=
0157103380999992014032906204+52461+009685FM-15+005699999V0201101N003610009119N001800199+00601+00601999999ADDGA1071+000911991GE19MSL   +99999+99999GF199999071990000911991991MA1102301999990MW1101REMMET060METAR EDDV 290620Z 11007KT 1800 BR BKN003 06/06 Q1023 NOSIG=
0164103380999992014032906504+52461+009685FM-15+005699999V0201201N004110012219N001800199+00701+00601999999ADDGA1071+001221991GE19MSL   +99999+99999GF199999071990001221991991MA1102301999990MW1101REMMET067METAR EDDV 290650Z 12008KT 1800 BR BKN004 07/06 Q1023 BECMG BKN006=
0164103380999992014032907204+52461+009685FM-15+005699999V0201201N004610012219N001800199+00701+00601999999ADDGA1071+001221991GE19MSL   +99999+99999GF199999071990001221991991MA1102301999990MW1101REMMET067METAR EDDV 290720Z 12009KT 1800 BR BKN004 07/06 Q1023 BECMG BKN006=
0157103380999992014032907504+52461+009685FM-15+005699999V0201201N004610015219N002000199+00701+00601999999ADDGA1071+001521991GE19MSL   +99999+99999GF199999071990001521991991MA1102401999990MW1101REMMET060METAR EDDV 290750Z 12009KT 2000 BR BKN005 07/06 Q1024 NOSIG=
0164103380999992014032908204+52461+009685FM-15+005699999V0201201N004119999999N002000199+00801+00601999999ADDGA1041+001831991GE19MSL   +99999+99999GF199999041990001831991991MA1102401999990MW1101REMMET067METAR EDDV 290820Z 12008KT 2000 BR SCT006 08/06 Q1024 TEMPO BKN007=
0175103380999992014032908504+52461+009685FM-15+005699999V0200901V003619999999N002500199+00901+00701999999ADDGA1021+002131991GE19MSL   +99999+99999GF199999021990002131991991MA1102401999990MW1101REMMET078METAR EDDV 290850Z 09007KT 060V140 2500 BR FEW007 09/07 Q1024 BECMG      4000=
0129103380999992014032909204+52461+009685FM-15+005699999V0201001V003112200019N003000199+01001+00701999999ADDGF100991999999999999999999MA1102401999990MW1051REMMET070METAR EDDV 290920Z 10006KT 060V160 3000 HZ NSC 10/07 Q1024 BECMG 5000=
0129103380999992014032909504+52461+009685FM-15+005699999V0201201V003112200019N004000199+01201+00601999999ADDGF100991999999999999999999MA1102301999990MW1051REMMET070METAR EDDV 290950Z 12006KT 090V150 4000 HZ NSC 12/06 Q1023 BECMG 5000=
0129103380999992014032910204+52461+009685FM-15+005699999V0201201V003112200019N004000199+01301+00601999999ADDGF100991999999999999999999MA1102301999990MW1051REMMET070METAR EDDV 291020Z 12006KT 090V170 4000 HZ NSC 13/06 Q1023 BECMG 5000=
0129103380999992014032910504+52461+009685FM-15+005699999V0201201V003112200019N004000199+01401+00601999999ADDGF100991999999999999999999MA1102301999990MW1051REMMET070METAR EDDV 291050Z 12006KT 090V160 4000 HZ NSC 14/06 Q1023 BECMG 5000=
0129103380999992014032911204+52461+009685FM-15+005699999V0201301V003612200019N004000199+01501+00601999999ADDGF100991999999999999999999MA1102301999990MW1051REMMET070METAR EDDV 291120Z 13007KT 080V170 4000 HZ NSC 15/06 Q1023 BECMG 5000=
0129103380999992014032911504+52461+009685FM-15+005699999V0201001V004112200019N004000199+01501+00701999999ADDGF100991999999999999999999MA1102301999990MW1051REMMET070METAR EDDV 291150Z 10008KT 030V150 4000 HZ NSC 15/07 Q1023 BECMG 5000=
0129103380999992014032912204+52461+009685FM-15+005699999V0201001V003612200019N004000199+01701+00501999999ADDGF100991999999999999999999MA1102201999990MW1051REMMET070METAR EDDV 291220Z 10007KT 060V140 4000 HZ NSC 17/05 Q1022 BECMG 5000=
0115103380999992014032912504+52461+009685FM-15+005699999V0200701V004112200019N006000199+01701+00601999999ADDGF100991999999999999999999MA1102201999990REMMET062METAR EDDV 291250Z 07008KT 020V110 6000 NSC 17/06 Q1022 NOSIG=
0115103380999992014032913204+52461+009685FM-15+005699999V0200801V005112200019N009000199+01701+00501999999ADDGF100991999999999999999999MA1102201999990REMMET062METAR EDDV 291320Z 08010KT 050V120 9000 NSC 17/05 Q1022 NOSIG=
0078103380999992014032913504+52461+009685FM-15+005699999V0200801N005119999999Y999999999+01701+00501999999ADDMA1102201999990REMMET051METAR EDDV 291350Z 08010KT CAVOK 17/05 Q1022 NOSIG=
0086103380999992014032914204+52461+009685FM-15+005699999V0201001V004619999999Y999999999+01801+00501999999ADDMA1102101999990REMMET059METAR EDDV 291420Z 10009KT 060V120 CAVOK 18/05 Q1021 NOSIG=
0086103380999992014032914504+52461+009685FM-15+005699999V0200801V004619999999Y999999999+01801+00401999999ADDMA1102101999990REMMET059METAR EDDV 291450Z 08009KT 050V110 CAVOK 18/04 Q1021 NOSIG=
0078103380999992014032915204+52461+009685FM-15+005699999V0200801N005119999999Y999999999+01801+00501999999ADDMA1102001999990REMMET051METAR EDDV 291520Z 08010KT CAVOK 18/05 Q1020 NOSIG=
0078103380999992014032915504+52461+009685FM-15+005699999V0200901N005119999999Y999999999+01701+00501999999ADDMA1102001999990REMMET051METAR EDDV 291550Z 09010KT CAVOK 17/05 Q1020 NOSIG=
0078103380999992014032916204+52461+009685FM-15+005699999V0200901N004619999999Y999999999+01701+00501999999ADDMA1102001999990REMMET051METAR EDDV 291620Z 09009KT CAVOK 17/05 Q1020 NOSIG=
0078103380999992014032916504+52461+009685FM-15+005699999V0200801N005119999999Y999999999+01601+00601999999ADDMA1102001999990REMMET051METAR EDDV 291650Z 08010KT CAVOK 16/06 Q1020 NOSIG=
0078103380999992014032917204+52461+009685FM-15+005699999V0201001N005119999999Y999999999+01501+00401999999ADDMA1102001999990REMMET051METAR EDDV 291720Z 10010KT CAVOK 15/04 Q1020 NOSIG=
0078103380999992014032917504+52461+009685FM-15+005699999V0201001N004119999999Y999999999+01401+00401999999ADDMA1102001999990REMMET051METAR EDDV 291750Z 10008KT CAVOK 14/04 Q1020 NOSIG=
0078103380999992014032918204+52461+009685FM-15+005699999V0201001N003119999999Y999999999+01101+00401999999ADDMA1102001999990REMMET051METAR EDDV 291820Z 10006KT CAVOK 11/04 Q1020 NOSIG=
0078103380999992014032918504+52461+009685FM-15+005699999V0200901N004119999999Y999999999+01001+00301999999ADDMA1102001999990REMMET051METAR EDDV 291850Z 09008KT CAVOK 10/03 Q1020 NOSIG=
0078103380999992014032919204+52461+009685FM-15+005699999V0200801N004119999999Y999999999+01001+00301999999ADDMA1102001999990REMMET051METAR EDDV 291920Z 08008KT CAVOK 10/03 Q1020 NOSIG=
0078103380999992014032919504+52461+009685FM-15+005699999V0200701N003119999999Y999999999+01001+00401999999ADDMA1102001999990REMMET051METAR EDDV 291950Z 07006KT CAVOK 10/04 Q1020 NOSIG=
0078103380999992014032920204+52461+009685FM-15+005699999V0200801N003619999999Y999999999+00801+00501999999ADDMA1102001999990REMMET051METAR EDDV 292020Z 08007KT CAVOK 08/05 Q1020 NOSIG=
0078103380999992014032920504+52461+009685FM-15+005699999V0200901N003119999999Y999999999+00801+00601999999ADDMA1102001999990REMMET051METAR EDDV 292050Z 09006KT CAVOK 08/06 Q1020 NOSIG=
0072103380999992014032921204+52461+009685FM-15+005699999V0200801N003619999999Y999999999+00701+00501999999ADDMA1102001999990REMMET045METAR EDDV 292120Z 08007KT CAVOK 07/05 Q1020=
0072103380999992014032921504+52461+009685FM-15+005699999V0200901N003119999999Y999999999+00801+00501999999ADDMA1102001999990REMMET045METAR EDDV 292150Z 09006KT CAVOK 08/05 Q1020=
0072103380999992014032922204+52461+009685FM-15+005699999V0200701N003119999999Y999999999+00701+00601999999ADDMA1102001999990REMMET045METAR EDDV 292220Z 07006KT CAVOK 07/06 Q1020=
0072103380999992014032922504+52461+009685FM-15+005699999V0200901N003619999999Y999999999+00601+00401999999ADDMA1102001999990REMMET045METAR EDDV 292250Z 09007KT CAVOK 06/04 Q1020=
0072103380999992014032923204+52461+009685FM-15+005699999V0200701N002619999999Y999999999+00601+00501999999ADDMA1102001999990REMMET045METAR EDDV 292320Z 07005KT CAVOK 06/05 Q1020=
0101103380999992014032923504+52461+009685FM-15+005699999V0200701N002612200019N007000199+00601+00501999999ADDGF100991999999999999999999MA1102001999990REMMET048METAR EDDV 292350Z 07005KT 7000 NSC 06/05 Q1020=
0101103380999992014033000204+52461+009685FM-15+005699999V0200701N002112200019N007000199+00601+00501999999ADDGF100991999999999999999999MA1101901999990REMMET048METAR EDDV 300020Z 07004KT 7000 NSC 06/05 Q1019=
0110103380999992014033000504+52461+009685FM-15+005699999V0200701N001512200019N005000199+00601+00501999999ADDGF100991999999999999999999MA1101901999990MW1101REMMET051METAR EDDV 300050Z 07003KT 5000 BR NSC 06/05 Q1019=
0125103380999992014033001204+52461+009685FM-15+005699999V0200801N002112200019N005000199+00601+00501999999ADDGF100991999999999999999999MA1101901999990MW1101MW2121REMMET060METAR COR EDDV 300120Z 08004KT 5000 MIFG BR NSC 06/05 Q1019=
0156103380999992014033001504+52461+009685FM-15+005699999V0200701N002112200019N003000199+00601+00501999999ADDGF100991999999999999999999MA1101901999990MW1101MW2111REMMET091METAR EDDV 300150Z 07004KT 3000 1000E R09L/P2000N R09R/P2000N BCFG      BR NSC 06/05 Q1019=
0161103380999992014033002204+52461+009685FM-15+005699999V0200801N002112200019N003000199+00501+00501999999ADDGF100991999999999999999999MA1101901999990MW1101MW2111REMMET096METAR EDDV 300220Z 08004KT 3000 1000E R09L/0900VP2000U R09R/P2000N      BCFG BR NSC 05/05 Q1019=
0161103380999992014033002504+52461+009685FM-15+005699999V0200801N002112200019N003000199+00501+00401999999ADDGF100991999999999999999999MA1101801999990MW1101MW2111REMMET096METAR EDDV 300250Z 08004KT 3000 1000E R09L/0500VP2000U R09R/P2000N      BCFG BR NSC 05/04 Q1018=
0160103380999992014033003204+52461+009685FM-15+005699999V0200801N002112200019N000400199+00501+00401999999ADDGF100991999999999999999999MA1101801999990MW1101MW2111REMMET095METAR EDDV 300320Z 08004KT 0400 0100W R09L/0250V0400D R09R/P2000N BCFG      BR NSC 05/04 Q1018=
0153103380999992014033003504+52461+009685FM-15+005699999V0200801N002112200019N000500199+00401+00401999999ADDGF100991999999999999999999MA1101801999990MW1441REMMET094METAR COR EDDV 300350Z 08004KT 0500 R09L/0325V0900N R09R/P2000N FG      NSC 04/04 Q1018 NOSIG=
0154103380999992014033004204+52461+009685FM-15+005699999V0200801N002112200019N000500199+00401+00401999999ADDGF100991999999999999999999MA1101801999990MW1441REMMET095METAR EDDV 300420Z 08004KT 0500 R09L/0400V0600N R09R/P2000N FG NSC      04/04 Q1018 TEMPO 0200=
0154103380999992014033004504+52461+009685FM-15+005699999V0200801N001512200019N000600199+00401+00401999999ADDGF100991999999999999999999MA1101801999990MW1441REMMET095METAR EDDV 300450Z 08003KT 0600 R09L/0300V1100U R09R/P2000N FG NSC      04/04 Q1018 TEMPO 0400=
0154103380999992014033005204+52461+009685FM-15+005699999V0201101N001512200019N000200199+00401+00401999999ADDGF100991999999999999999999MA1101801999990MW1441REMMET095METAR EDDV 300520Z 11003KT 0200 R09L/0175V1100D R09R/P2000N FG NSC      04/04 Q1018 TEMPO 0400=
0154103380999992014033005504+52461+009685FM-15+005699999V0201001N001512200019N000200199+00401+00401999999ADDGF100991999999999999999999MA1101801999990MW1441REMMET095METAR EDDV 300550Z 10003KT 0200 R09L/0200V0400D R09R/P2000N FG NSC      04/04 Q1018 BECMG 0600=
0149103380999992014033006204+52461+009685FM-15+005699999V0200701N002112200019N000500199+00401+00401999999ADDGF100991999999999999999999MA1101801999990MW1441REMMET090METAR EDDV 300620Z 07004KT 0500 R09L/1800N R09R/P2000N FG NSC 04/04      Q1018 BECMG 0900=
0138103380999992014033006504+52461+009685FM-15+005699999V0200701N002112200019N000600199+00501+00501999999ADDGF100991999999999999999999MA1101801999990MW1441REMMET079METAR EDDV 300650Z 07004KT 0600 R09R/P2000N FG NSC 05/05 Q1018 BECMG      0900=
0167103380999992014033007204+52461+009685FM-15+005699999V0200701N002612200019N001800199+00701+00601999999ADDGF100991999999999999999999MA1101801999990MW1101MW2111REMMET102METAR EDDV 300720Z 07005KT 1800 0800E R09L/P2000N R09R/P2000N BCFG      BR NSC 07/06 Q1018 BECMG 3000=
