0128103480999992013010111504+52300+010450FM-15+0088EDVE V0202201N00571015001CN0090001N1+00701+00401999999ADDGF108991999999999999999999MA1100201999999MW1611REMMET069METAR EDVE 011150Z 22011KT 9000 -RA FEW030 SCT050 OVC061 07/04 Q1002;
0111103480999992013010205204+52300+010450FM-15+0088EDVE V0202601N007710054019N0112651N1+00501+00201999999ADDGF107991999999999999999999MA1101291999999REMMET058METAR EDVE 020520Z 26015KT 9999 BKN018 BKN027 05/02 Q1013;
0111103480999992013010205504+52300+010450FM-15+0088EDVE V0202601N007210075019N0112651N1+00501+00201999999ADDGF107991999999999999999999MA1101291999999REMMET058METAR EDVE 020550Z 26014KT 9999 FEW017 BKN025 05/02 Q1013;
0111103480999992013010206204+52300+010450FM-15+0088EDVE V0202601N007210063019N0112651N1+00501+00201999999ADDGF107991999999999999999999MA1101391999999REMMET058METAR EDVE 020620Z 26014KT 9999 SCT016 BKN021 05/02 Q1014;
0111103480999992013010206504+52300+010450FM-15+0088EDVE V0202601N007710120019N0112651N1+00501+00201999999ADDGF107991999999999999999999MA1101391999999REMMET058METAR EDVE 020650Z 26015KT 9999 SCT019 BKN040 05/02 Q1014;
0111103480999992013010207204+52300+010450FM-15+0088EDVE V0202501N008210057019N0112651N1+00501+00201999999ADDGF108991999999999999999999MA1101491999999REMMET058METAR EDVE 020720Z 25016KT 9999 SCT015 OVC019 05/02 Q1015;
0114103480999992013010207504+52300+010450FM-15+0088EDVE V0202501N007710045019N0112651N1+00501+00201999999ADDGF107991999999999999999999MA1101491999999MW1511REMMET055METAR EDVE 020750Z 25015KT 9999 -DZ BKN015 05/02 Q1015;
0104103480999992013010208204+52300+010450FM-15+0088EDVE V0202501N007210045019N0112651N1+00501+00301999999ADDGF107991999999999999999999MA1101591999999REMMET051METAR EDVE 020820Z 25014KT 9999 BKN015 05/03 Q1016;
0114103480999992013010208504+52300+010450FM-15+0088EDVE V0202601N006210039019N0112651N1+00501+00301999999ADDGF107991999999999999999999MA1101591999999MW1511REMMET055METAR EDVE 020850Z 26012KT 9999 -DZ BKN013 05/03 Q1016;
0121103480999992013010209204+52300+010450FM-15+0088EDVE V0202601N006710039019N0112651N1+00501+00301999999ADDGF108991999999999999999999MA1101691999999MW1511REMMET062METAR EDVE 020920Z 26013KT 9999 -DZ FEW011 OVC013 05/03 Q1017;
0111103480999992013010210204+52300+010450FM-15+0088EDVE V0202601N007210042019N0112651N1+00501+00301999999ADDGF107991999999999999999999MA1101801999999REMMET058METAR EDVE 021020Z 26014KT 9999 SCT012 BKN014 05/03 Q1018;
0111103480999992013010210504+52300+010450FM-15+0088EDVE V0202601N006710054019N0112651N1+00601+00401999999ADDGF108991999999999999999999MA1101901999999REMMET058METAR EDVE 021050Z 26013KT 9999 SCT012 OVC018 06/04 Q1019;
0111103480999992013010211204+52300+010450FM-15+0088EDVE V0202701N006210054019N0112651N1+00601+00401999999ADDGF108991999999999999999999MA1101901999999REMMET058METAR EDVE 021120Z 27012KT 9999 SCT012 OVC018 06/04 Q1019;
0111103480999992013010211504+52300+010450FM-15+0088EDVE V0202701N007210054019N0112651N1+00601+00401999999ADDGF107991999999999999999999MA1101901999999REMMET058METAR EDVE 021150Z 27014KT 9999 SCT013 BKN018 06/04 Q1019;
0111103480999992013010212204+52300+010450FM-15+0088EDVE V0202701N007710054019N0112651N1+00601+00301999999ADDGF107991999999999999999999MA1101901999999REMMET058METAR EDVE 021220Z 27015KT 9999 SCT015 BKN018 06/03 Q1019;
0118103480999992013010212504+52300+010450FM-15+0088EDVE V0202701N007210045019N0112651N1+00701+00401999999ADDGF108991999999999999999999MA1102001999999REMMET065METAR EDVE 021250Z 27014KT 9999 BKN015 BKN021 OVC039 07/04 Q1020;
0111103480999992013010213204+52300+010450FM-15+0088EDVE V0202701N007712200019N0112651N1+00601+00301999999ADDGF104991999999999999999999MA1102001999999REMMET058METAR EDVE 021320Z 27015KT 9999 SCT020 SCT040 06/03 Q1020;
0111103480999992013010213504+52300+010450FM-15+0088EDVE V0202701N006710120019N0112651N1+00601+00301999999ADDGF107991999999999999999999MA1102001999999REMMET058METAR EDVE 021350Z 27013KT 9999 SCT020 BKN040 06/03 Q1020;
0111103480999992013010214204+52300+010450FM-15+0088EDVE V0202701N006210120019N0112651N1+00601+00401999999ADDGF107991999999999999999999MA1102101999999REMMET058METAR EDVE 021420Z 27012KT 9999 SCT020 BKN040 06/04 Q1021;
0111103480999992013010214504+52300+010450FM-15+0088EDVE V0202601N006210120019N0112651N1+00601+00301999999ADDGF107991999999999999999999MA1102101999999REMMET058METAR EDVE 021450Z 26012KT 9999 SCT020 BKN040 06/03 Q1021;
0111103480999992013010215204+52300+010450FM-15+0088EDVE V0202701N006210087019N0112651N1+00601+00301999999ADDGF107991999999999999999999MA1102201999999REMMET058METAR EDVE 021520Z 27012KT 9999 FEW022 BKN029 06/03 Q1022;
0111103480999992013010215504+52300+010450FM-15+0088EDVE V0202701N005710120019N0112651N1+00601+00301999999ADDGF107991999999999999999999MA1102201999999REMMET058METAR EDVE 021550Z 27011KT 9999 FEW020 BKN040 06/03 Q1022;
0111103480999992013010216204+52300+010450FM-15+0088EDVE V0202601N006710120019N0112651N1+00601+00201999999ADDGF107991999999999999999999MA1102201999999REMMET058METAR EDVE 021620Z 26013KT 9999 FEW025 BKN040 06/02 Q1022;
0104103480999992013010216504+52300+010450FM-15+0088EDVE V0202501N005710120019N0112651N1+00601+00301999999ADDGF107991999999999999999999MA1102301999999REMMET051METAR EDVE 021650Z 25011KT 9999 BKN040 06/03 Q1023;
0111103480999992013010217204+52300+010450FM-15+0088EDVE V0202501N005710126019N0112651N1+00601+00301999999ADDGF108991999999999999999999MA1102301999999REMMET058METAR EDVE 021720Z 25011KT 9999 FEW037 OVC042 06/03 Q1023;
0104103480999992013010218204+52300+010450FM-15+0088EDVE V0202501N005110129019N0112651N1+00601+00201999999ADDGF108991999999999999999999MA1102401999999REMMET051METAR EDVE 021820Z 25010KT 9999 OVC043 06/02 Q1024;
0104103480999992013010218504+52300+010450FM-15+0088EDVE V0202501N005110138019N0112651N1+00601+00301999999ADDGF108991999999999999999999MA1102401999999REMMET051METAR EDVE 021850Z 25010KT 9999 OVC046 06/03 Q1024;
0104103480999992013010219204+52300+010450FM-15+0088EDVE V0202501N005710138019N0112651N1+00601+00301999999ADDGF108991999999999999999999MA1102401999999REMMET051METAR EDVE 021920Z 25011KT 9999 OVC046 06/03 Q1024;
0104103480999992013010220504+52300+010450FM-15+0088EDVE V0202501N005710117019N0112651N1+00601+00201999999ADDGF108991999999999999999999MA1102511999999REMMET051METAR EDVE 022050Z 25011KT 9999 OVC039 06/02 Q1025;
0122103480999992013010305504+52300+010450FM-15+0088EDVE V0202501N007710012019N0050001N1+00601+00501999999ADDGF108991999999999999999999MA1102201999999MW1101MW2631REMMET057METAR EDVE 030550Z 25015KT 5000 RA BR OVC004 06/05 Q1022;
0122103480999992013010306204+52300+010450FM-15+0088EDVE V0202601N008210015019N0050001N1+00701+00601999999ADDGF108991999999999999999999MA1102201999999MW1101MW2631REMMET057METAR EDVE 030620Z 26016KT 5000 RA BR OVC005 07/06 Q1022;
0104103480999992013010306504+52300+010450FM-15+0088EDVE V0202501N009310015019N0112651N1+00701+00601999999ADDGF108991999999999999999999MA1102201999999REMMET051METAR EDVE 030650Z 25018KT 9999 OVC005 07/06 Q1022;
0104103480999992013010307504+52300+010450FM-15+0088EDVE V0202601N009310024019N0112651N1+00801+00601999999ADDGF108991999999999999999999MA1102201999999REMMET051METAR EDVE 030750Z 26018KT 9999 OVC008 08/06 Q1022;
0122103480999992013010308204+52300+010450FM-15+0088EDVE V0202601N009310021019N0050001N1+00801+00601999999ADDGF108991999999999999999999MA1102201999999MW1101MW2531REMMET057METAR EDVE 030820Z 26018KT 5000 DZ BR OVC007 08/06 Q1022;
0122103480999992013010308504+52300+010450FM-15+0088EDVE V0202601N008210018019N0033001N1+00801+00701999999ADDGF108991999999999999999999MA1102301999999MW1101MW2531REMMET057METAR EDVE 030850Z 26016KT 3300 DZ BR OVC006 08/07 Q1023;
0123103480999992013010309204+52300+010450FM-15+0088EDVE V0202601N008710015019N0036001N1+00801+00701999999ADDGF108991999999999999999999MA1102301999999MW1101MW2511REMMET058METAR EDVE 030920Z 26017KT 3600 -DZ BR OVC005 08/07 Q1023;
0122103480999992013010309504+52300+010450FM-15+0088EDVE V0202601N008710012019N0028001N1+00801+00701999999ADDGF108991999999999999999999MA1102301999999MW1101MW2631REMMET057METAR EDVE 030950Z 26017KT 2800 RA BR OVC004 08/07 Q1023;
0122103480999992013010310204+52300+010450FM-15+0088EDVE V0202601N008210012019N0023001N1+00801+00701999999ADDGF108991999999999999999999MA1102301999999MW1101MW2631REMMET057METAR EDVE 031020Z 26016KT 2300 RA BR OVC004 08/07 Q1023;
0122103480999992013010310504+52300+010450FM-15+0088EDVE V0202601N008710012019N0035001N1+00801+00801999999ADDGF108991999999999999999999MA1102301999999MW1101MW2631REMMET057METAR EDVE 031050Z 26017KT 3500 RA BR OVC004 08/08 Q1023;
0122103480999992013010311204+52300+010450FM-15+0088EDVE V0202601N008210012019N0033001N1+00901+00801999999ADDGF108991999999999999999999MA1102401999999MW1101MW2631REMMET057METAR EDVE 031120Z 26016KT 3300 RA BR OVC004 09/08 Q1024;
0113103480999992013010311504+52300+010450FM-15+0088EDVE V0202601N008210015019N0060001N1+00901+00801999999ADDGF108991999999999999999999MA1102301999999MW1531REMMET054METAR EDVE 031150Z 26016KT 6000 DZ OVC005 09/08 Q1023;
0113103480999992013010312504+52300+010450FM-15+0088EDVE V0202601N007710018019N0090001N1+00901+00801999999ADDGF108991999999999999999999MA1102401999999MW1531REMMET054METAR EDVE 031250Z 26015KT 9000 DZ OVC006 09/08 Q1024;
0113103480999992013010313204+52300+010450FM-15+0088EDVE V0202601N007710018019N0090001N1+00901+00801999999ADDGF108991999999999999999999MA1102401999999MW1531REMMET054METAR EDVE 031320Z 26015KT 9000 DZ OVC006 09/08 Q1024;
0113103480999992013010314504+52300+010450FM-15+0088EDVE V0202601N007710015019N0112651N1+01001+00801999999ADDGF108991999999999999999999MA1102401999999MW1531REMMET054METAR EDVE 031450Z 26015KT 9999 DZ OVC005 10/08 Q1024;
0114103480999992013010315204+52300+010450FM-15+0088EDVE V0202701N007710015019N0050001N1+01001+00901999999ADDGF108991999999999999999999MA1102511999999MW1511REMMET055METAR EDVE 031520Z 27015KT 5000 -DZ OVC005 10/09 Q1025;
0113103480999992013010315504+52300+010450FM-15+0088EDVE V0202801N008210018019N0070001N1+01001+00901999999ADDGF108991999999999999999999MA1102511999999MW1531REMMET054METAR EDVE 031550Z 28016KT 7000 DZ OVC006 10/09 Q1025;
0113103480999992013010316204+52300+010450FM-15+0088EDVE V0202701N007210027019N0112651N1+01001+00901999999ADDGF108991999999999999999999MA1102511999999MW1531REMMET054METAR EDVE 031620Z 27014KT 9999 DZ OVC009 10/09 Q1025;
0113103480999992013010316504+52300+010450FM-15+0088EDVE V0202801N007710024019N0112651N1+01001+00901999999ADDGF108991999999999999999999MA1102611999999MW1531REMMET054METAR EDVE 031650Z 28015KT 9999 DZ OVC008 10/09 Q1026;
0104103480999992013010317204+52300+010450FM-15+0088EDVE V0202801N008210027019N0112651N1+01001+00901999999ADDGF108991999999999999999999MA1102611999999REMMET051METAR EDVE 031720Z 28016KT 9999 OVC009 10/09 Q1026;
0111103480999992013010317504+52300+010450FM-15+0088EDVE V0202801N007210027019N0090001N1+01001+00901999999ADDGF108991999999999999999999MA1102611999999REMMET058METAR EDVE 031750Z 28014KT 9000 BKN009 OVC016 10/09 Q1026;
0104103480999992013010318204+52300+010450FM-15+0088EDVE V0202801N007210027019N0080001N1+01001+00801999999ADDGF107991999999999999999999MA1102711999999REMMET051METAR EDVE 031820Z 28014KT 8000 BKN009 10/08 Q1027;
0104103480999992013010318504+52300+010450FM-15+0088EDVE V0202801N006210021019N0070001N1+01001+00801999999ADDGF107991999999999999999999MA1102711999999REMMET051METAR EDVE 031850Z 28012KT 7000 BKN007 10/08 Q1027;
0104103480999992013010319204+52300+010450FM-15+0088EDVE V0202801N006210027019N0080001N1+01001+00801999999ADDGF107991999999999999999999MA1102711999999REMMET051METAR EDVE 031920Z 28012KT 8000 BKN009 10/08 Q1027;
0111103480999992013010319504+52300+010450FM-15+0088EDVE V0202801N006210030019N0080001N1+01001+00801999999ADDGF107991999999999999999999MA1102811999999REMMET058METAR EDVE 031950Z 28012KT 8000 SCT007 BKN010 10/08 Q1028;
0111103480999992013010320204+52300+010450FM-15+0088EDVE V0202801N006710120019N0112651N1+01001+00801999999ADDGF107991999999999999999999MA1102811999999REMMET058METAR EDVE 032020Z 28013KT 9999 SCT010 BKN040 10/08 Q1028;
0111103480999992013010405504+52300+010450FM-15+0088EDVE V0202801N008210054019N0112651N1+00901+00701999999ADDGF107991999999999999999999MA1102911999999REMMET058METAR EDVE 040550Z 28016KT 9999 SCT012 BKN018 09/07 Q1029;
0111103480999992013010406204+52300+010450FM-15+0088EDVE V0202901N007710045019N0112651N1+00901+00701999999ADDGF107991999999999999999999MA1102911999999REMMET058METAR EDVE 040620Z 29015KT 9999 SCT012 BKN015 09/07 Q1029;
0104103480999992013010406504+52300+010450FM-15+0088EDVE V0202801N007710036019N0112651N1+00901+00701999999ADDGF108991999999999999999999MA1102911999999REMMET051METAR EDVE 040650Z 28015KT 9999 OVC012 09/07 Q1029;
0104103480999992013010407204+52300+010450FM-15+0088EDVE V0202801N007210033019N0112651N1+00901+00701999999ADDGF108991999999999999999999MA1103011999999REMMET051METAR EDVE 040720Z 28014KT 9999 OVC011 09/07 Q1030;
0104103480999992013010407504+52300+010450FM-15+0088EDVE V0202801N006210030019N0112651N1+00901+00701999999ADDGF108991999999999999999999MA1103011999999REMMET051METAR EDVE 040750Z 28012KT 9999 OVC010 09/07 Q1030;
0104103480999992013010408204+52300+010450FM-15+0088EDVE V0202801N006210027019N0112651N1+01001+00801999999ADDGF108991999999999999999999MA1102911999999REMMET051METAR EDVE 040820Z 28012KT 9999 OVC009 10/08 Q1029;
0104103480999992013010408504+52300+010450FM-15+0088EDVE V0202801N005110027019N0090001N1+01001+00801999999ADDGF108991999999999999999999MA1102911999999REMMET051METAR EDVE 040850Z 28010KT 9000 OVC009 10/08 Q1029;
0104103480999992013010409204+52300+010450FM-15+0088EDVE V0202801N006710024019N0090001N1+01001+00801999999ADDGF108991999999999999999999MA1102911999999REMMET051METAR EDVE 040920Z 28013KT 9000 OVC008 10/08 Q1029;
0104103480999992013010409504+52300+010450FM-15+0088EDVE V0202801N007710021019N0080001N1+01001+00801999999ADDGF108991999999999999999999MA1102911999999REMMET051METAR EDVE 040950Z 28015KT 8000 OVC007 10/08 Q1029;
0113103480999992013010410204+52300+010450FM-15+0088EDVE V0202801N007210015019N0060001N1+01001+00901999999ADDGF108991999999999999999999MA1102911999999MW1531REMMET054METAR EDVE 041020Z 28014KT 6000 DZ OVC005 10/09 Q1029;
0104103480999992013010410504+52300+010450FM-15+0088EDVE V0202701N007710012019N0060001N1+01001+00901999999ADDGF108991999999999999999999MA1102911999999REMMET051METAR EDVE 041050Z 27015KT 6000 OVC004 10/09 Q1029;
0114103480999992013010411204+52300+010450FM-15+0088EDVE V0202701N007710015019N0112651N1+01001+00901999999ADDGF108991999999999999999999MA1102811999999MW1511REMMET055METAR EDVE 041120Z 27015KT 9999 -DZ OVC005 10/09 Q1028;
0114103480999992013010411504+52300+010450FM-15+0088EDVE V0202801N007710018019N0060001N1+01001+00901999999ADDGF108991999999999999999999MA1102811999999MW1511REMMET055METAR EDVE 041150Z 28015KT 6000 -DZ OVC006 10/09 Q1028;
0104103480999992013010412204+52300+010450FM-15+0088EDVE V0202801N007710015019N0060001N1+01001+00801999999ADDGF108991999999999999999999MA1102811999999REMMET051METAR EDVE 041220Z 28015KT 6000 OVC005 10/08 Q1028;
0104103480999992013010412504+52300+010450FM-15+0088EDVE V0202801N008710018019N0060001N1+01001+00801999999ADDGF108991999999999999999999MA1102811999999REMMET051METAR EDVE 041250Z 28017KT 6000 OVC006 10/08 Q1028;
0113103480999992013010413204+52300+010450FM-15+0088EDVE V0202801N008210018019N0040001N1+01001+00801999999ADDGF107991999999999999999999MA1102811999999MW1531REMMET054METAR EDVE 041320Z 28016KT 4000 DZ BKN006 10/08 Q1028;
0114103480999992013010413504+52300+010450FM-15+0088EDVE V0202801N008710018019N0040001N1+00901+00801999999ADDGF107991999999999999999999MA1102811999999MW1511REMMET055METAR EDVE 041350Z 28017KT 4000 -DZ BKN006 09/08 Q1028;
0114103480999992013010414204+52300+010450FM-15+0088EDVE V0202801N008710015019N0045001N1+00901+00801999999ADDGF107991999999999999999999MA1102711999999MW1511REMMET055METAR EDVE 041420Z 28017KT 4500 -DZ BKN005 09/08 Q1027;
0114103480999992013010414504+52300+010450FM-15+0088EDVE V0202801N008210018019N0060001N1+00901+00801999999ADDGF107991999999999999999999MA1102711999999MW1611REMMET055METAR EDVE 041450Z 28016KT 6000 -RA BKN006 09/08 Q1027;
0111103480999992013010415204+52300+010450FM-15+0088EDVE V0202801N007710018019N0060001N1+00901+00801999999ADDGF108991999999999999999999MA1102711999999REMMET058METAR EDVE 041520Z 28015KT 6000 BKN006 OVC007 09/08 Q1027;
0104103480999992013010416204+52300+010450FM-15+0088EDVE V0202801N008210018019N0080001N1+00901+00801999999ADDGF107991999999999999999999MA1102711999999REMMET051METAR EDVE 041620Z 28016KT 8000 BKN006 09/08 Q1027;
0114103480999992013010416504+52300+010450FM-15+0088EDVE V0202801N008710015019N0080001N1+00901+00801999999ADDGF107991999999999999999999MA1102711999999MW1511REMMET055METAR EDVE 041650Z 28017KT 8000 -DZ BKN005 09/08 Q1027;
0122103480999992013010417504+52300+010450FM-15+0088EDVE V0202801N008210012019N0030001N1+00901+00801999999ADDGF107991999999999999999999MA1102711999999MW1101MW2531REMMET057METAR EDVE 041750Z 28016KT 3000 DZ BR BKN004 09/08 Q1027;
0122103480999992013010418504+52300+010450FM-15+0088EDVE V0202801N008210009019N0045001N1+00901+00801999999ADDGF108991999999999999999999MA1102711999999MW1101MW2631REMMET057METAR EDVE 041850Z 28016KT 4500 RA BR OVC003 09/08 Q1027;
0122103480999992013010419204+52300+010450FM-15+0088EDVE V0202801N007710009019N0044001N1+00901+00801999999ADDGF108991999999999999999999MA1102711999999MW1101MW2631REMMET057METAR EDVE 041920Z 28015KT 4400 RA BR OVC003 09/08 Q1027;
0123103480999992013010419504+52300+010450FM-15+0088EDVE V0202801N008210009019N0050001N1+00901+00801999999ADDGF108991999999999999999999MA1102711999999MW1101MW2511REMMET058METAR EDVE 041950Z 28016KT 5000 -DZ BR OVC003 09/08 Q1027;
0114103480999992013010420504+52300+010450FM-15+0088EDVE V0202801N009310012019N0060001N1+00901+00801999999ADDGF108991999999999999999999MA1102711999999MW1611REMMET055METAR EDVE 042050Z 28018KT 6000 -RA OVC004 09/08 Q1027;
0113103480999992013010506504+52300+010450FM-15+0088EDVE V0202901N005710018019N0045001N1+00801+00701999999ADDGF107991999999999999999999MA1102711999999MW1531REMMET054METAR EDVE 050650Z 29011KT 4500 DZ BKN006 08/07 Q1027;
0122103480999992013010507204+52300+010450FM-15+0088EDVE V0202901N006710015019N0035001N1+00801+00701999999ADDGF108991999999999999999999MA1102711999999MW1101MW2531REMMET057METAR EDVE 050720Z 29013KT 3500 DZ BR OVC005 08/07 Q1027;
0125103480999992013010507504+52300+010450FM-15+0088EDVE V0202901N006210018019N0060001N1+00801+00701999999ADDGF108991999999999999999999MA1102811999999MW1511OC101131REMMET058METAR EDVE 050750Z 29012G22KT 6000 -DZ OVC006 08/07 Q1028;
0130103480999992013010508204+52300+010450FM-15+0088EDVE V0203001N005710018019N0040001N1+00801+00701999999ADDGF107991999999999999999999MA1102811999999MW1101MW2531REMMET065METAR EDVE 050820Z 30011KT 270V330 4000 DZ BR BKN006 08/07 Q1028;
0121103480999992013010508504+52300+010450FM-15+0088EDVE V0203001N005110012019N0080001N1+00801+00701999999ADDGF107991999999999999999999MA1102811999999MW1511REMMET062METAR EDVE 050850Z 30010KT 8000 -DZ SCT003 BKN004 08/07 Q1028;
0104103480999992013010509204+52300+010450FM-15+0088EDVE V0203001N005110012019N0090001N1+00801+00701999999ADDGF107991999999999999999999MA1102811999999REMMET051METAR EDVE 050920Z 30010KT 9000 BKN004 08/07 Q1028;
0128103480999992013010509504+52300+010450FM-15+0088EDVE V0203101N005110015019N0070001N1+00801+00701999999ADDGF107991999999999999999999MA1102911999999MW1531REMMET069METAR EDVE 050950Z 31010KT 280V340 7000 DZ SCT004 BKN005 08/07 Q1029;
0122103480999992013010510204+52300+010450FM-15+0088EDVE V0203101N004110012019N0030001N1+00801+00701999999ADDGF108991999999999999999999MA1102911999999MW1101MW2531REMMET057METAR EDVE 051020Z 31008KT 3000 DZ BR OVC004 08/07 Q1029;
0129103480999992013010510504+52300+010450FM-15+0088EDVE V0203101N004610015019N0040001N1+00801+00701999999ADDGF107991999999999999999999MA1102911999999MW1101MW2531REMMET064METAR EDVE 051050Z 31009KT 4000 DZ BR SCT003 BKN005 08/07 Q1029;
0129103480999992013010511204+52300+010450FM-15+0088EDVE V0203101N004110018019N0037001N1+00801+00701999999ADDGF107991999999999999999999MA1102911999999MW1101MW2531REMMET064METAR EDVE 051120Z 31008KT 3700 DZ BR SCT004 BKN006 08/07 Q1029;
0129103480999992013010511504+52300+010450FM-15+0088EDVE V0203101N004110015019N0025001N1+00801+00701999999ADDGF107991999999999999999999MA1102911999999MW1101MW2531REMMET064METAR EDVE 051150Z 31008KT 2500 DZ BR SCT004 BKN005 08/07 Q1029;
0122103480999992013010512204+52300+010450FM-15+0088EDVE V0203001N004110015019N0035001N1+00801+00701999999ADDGF108991999999999999999999MA1102911999999MW1101MW2531REMMET057METAR EDVE 051220Z 30008KT 3500 DZ BR OVC005 08/07 Q1029;
0122103480999992013010512504+52300+010450FM-15+0088EDVE V0203101N003610015019N0035001N1+00801+00701999999ADDGF108991999999999999999999MA1102911999999MW1101MW2531REMMET057METAR EDVE 051250Z 31007KT 3500 DZ BR OVC005 08/07 Q1029;
0122103480999992013010513204+52300+010450FM-15+0088EDVE V0203101N004110015019N0030001N1+00801+00701999999ADDGF108991999999999999999999MA1102911999999MW1101MW2531REMMET057METAR EDVE 051320Z 31008KT 3000 DZ BR OVC005 08/07 Q1029;
0137103480999992013010513504+52300+010450FM-15+0088EDVE V0203101N004110012019N0025001N1+00801+00701999999ADDGF108991999999999999999999MA1102911999999MW1101MW2531REMMET072METAR EDVE 051350Z 31008KT 280V340 2500 DZ BR BKN004 OVC006 08/07 Q1029;
0129103480999992013010514204+52300+010450FM-15+0088EDVE V0203001N004110015019N0025001N1+00801+00701999999ADDGF108991999999999999999999MA1102911999999MW1101MW2531REMMET064METAR EDVE 051420Z 30008KT 2500 DZ BR SCT003 OVC005 08/07 Q1029;
0130103480999992013010514504+52300+010450FM-15+0088EDVE V0203001N005110012019N0030001N1+00801+00701999999ADDGF108991999999999999999999MA1102911999999MW1101MW2511REMMET065METAR EDVE 051450Z 30010KT 3000 -DZ BR SCT003 OVC004 08/07 Q1029;
0129103480999992013010515204+52300+010450FM-15+0088EDVE V0202901N004110012019N0028001N1+00801+00701999999ADDGF108991999999999999999999MA1103011999999MW1101MW2531REMMET064METAR EDVE 051520Z 29008KT 2800 DZ BR SCT003 OVC004 08/07 Q1030;
0130103480999992013010515504+52300+010450FM-15+0088EDVE V0202901N004610015019N0033001N1+00801+00701999999ADDGF108991999999999999999999MA1103011999999MW1101MW2511REMMET065METAR EDVE 051550Z 29009KT 3300 -DZ BR SCT003 OVC005 08/07 Q1030;
0122103480999992013010516204+52300+010450FM-15+0088EDVE V0202901N005110012019N0030001N1+00701+00701999999ADDGF108991999999999999999999MA1102911999999MW1101MW2531REMMET057METAR EDVE 051620Z 29010KT 3000 DZ BR OVC004 07/07 Q1029;
0129103480999992013010516504+52300+010450FM-15+0088EDVE V0203001N005110009019N0070001N1+00701+00701999999ADDGF108991999999999999999999MA1102911999999MW1511REMMET070METAR EDVE 051650Z 30010KT 270V330 7000 -DZ BKN003 OVC011 07/07 Q1029;
0111103480999992013010607204+52300+010450FM-15+0088EDVE V0202801N005710024019N0060001N1+00701+00601999999ADDGF107991999999999999999999MA1102511999999REMMET058METAR EDVE 060720Z 28011KT 6000 SCT006 BKN008 07/06 Q1025;
0104103480999992013010607504+52300+010450FM-15+0088EDVE V0202701N006210027019N0060001N1+00701+00601999999ADDGF107991999999999999999999MA1102511999999REMMET051METAR EDVE 060750Z 27012KT 6000 BKN009 07/06 Q1025;
0123103480999992013010608204+52300+010450FM-15+0088EDVE V0202801N006210024019N0049001N1+00701+00601999999ADDGF107991999999999999999999MA1102511999999MW1101MW2511REMMET058METAR EDVE 060820Z 28012KT 4900 -DZ BR BKN008 07/06 Q1025;
0082103480999992013010608504+52300+010450FM-15+0088EDVE V0202801N006212200019N0060001N1+00701+00601999999ADDMA1102511999999MW1511REMMET049METAR EDVE 060850Z 28012KT 6000 -DZ/ 07/06 Q1025;
0113103480999992013010609204+52300+010450FM-15+0088EDVE V0202801N006210024019N0040001N1+00701+00601999999ADDGF107991999999999999999999MA1102401999999MW1101REMMET054METAR EDVE 060920Z 28012KT 4000 BR BKN008 07/06 Q1024;
0113103480999992013010609504+52300+010450FM-15+0088EDVE V0202801N005710018019N0040001N1+00701+00601999999ADDGF107991999999999999999999MA1102401999999MW1101REMMET054METAR EDVE 060950Z 28011KT 4000 BR BKN006 07/06 Q1024;
0113103480999992013010610204+52300+010450FM-15+0088EDVE V0202801N006210018019N0040001N1+00701+00601999999ADDGF107991999999999999999999MA1102401999999MW1101REMMET054METAR EDVE 061020Z 28012KT 4000 BR BKN006 07/06 Q1024;
0104103480999992013010610504+52300+010450FM-15+0088EDVE V0202901N005110027019N0060001N1+00701+00601999999ADDGF107991999999999999999999MA1102401999999REMMET051METAR EDVE 061050Z 29010KT 6000 BKN009 07/06 Q1024;
0122103480999992013010611204+52300+010450FM-15+0088EDVE V0202801N006210024019N0040001N1+00701+00601999999ADDGF107991999999999999999999MA1102401999999MW1101MW2531REMMET057METAR EDVE 061120Z 28012KT 4000 DZ BR BKN008 07/06 Q1024;
0113103480999992013010611504+52300+010450FM-15+0088EDVE V0202801N007210021019N0050001N1+00801+00601999999ADDGF108991999999999999999999MA1102301999999MW1531REMMET054METAR EDVE 061150Z 28014KT 5000 DZ OVC007 08/06 Q1023;
0113103480999992013010612204+52300+010450FM-15+0088EDVE V0202901N006710018019N0050001N1+00801+00601999999ADDGF108991999999999999999999MA1102301999999MW1531REMMET054METAR EDVE 061220Z 29013KT 5000 DZ OVC006 08/06 Q1023;
0114103480999992013010612504+52300+010450FM-15+0088EDVE V0202901N006210021019N0060001N1+00801+00601999999ADDGF108991999999999999999999MA1102301999999MW1511REMMET055METAR EDVE 061250Z 29012KT 6000 -DZ OVC007 08/06 Q1023;
0104103480999992013010613204+52300+010450FM-15+0088EDVE V0202901N006210021019N0080001N1+00801+00701999999ADDGF108991999999999999999999MA1102301999999REMMET051METAR EDVE 061320Z 29012KT 8000 OVC007 08/07 Q1023;
0104103480999992013010613504+52300+010450FM-15+0088EDVE V0202901N006210018019N0080001N1+00801+00701999999ADDGF108991999999999999999999MA1102301999999REMMET051METAR EDVE 061350Z 29012KT 8000 OVC006 08/07 Q1023;
0104103480999992013010614204+52300+010450FM-15+0088EDVE V0202901N006710018019N0080001N1+00801+00701999999ADDGF108991999999999999999999MA1102301999999REMMET051METAR EDVE 061420Z 29013KT 8000 OVC006 08/07 Q1023;
0114103480999992013010614504+52300+010450FM-15+0088EDVE V0202901N006710015019N0060001N1+00801+00701999999ADDGF108991999999999999999999MA1102301999999MW1511REMMET055METAR EDVE 061450Z 29013KT 6000 -DZ OVC005 08/07 Q1023;
0104103480999992013010615204+52300+010450FM-15+0088EDVE V0203001N006210012019N0070001N1+00801+00701999999ADDGF108991999999999999999999MA1102301999999REMMET051METAR EDVE 061520Z 30012KT 7000 OVC004 08/07 Q1023;
0121103480999992013010615504+52300+010450FM-15+0088EDVE V0203001N006210012019N0040001N1+00801+00701999999ADDGF108991999999999999999999MA1102401999999MW1101REMMET062METAR EDVE 061550Z 30012KT 270V330 4000 BR OVC004 08/07 Q1024;
0113103480999992013010616204+52300+010450FM-15+0088EDVE V0203001N005710015019N0050001N1+00801+00701999999ADDGF108991999999999999999999MA1102401999999MW1531REMMET054METAR EDVE 061620Z 30011KT 5000 DZ OVC005 08/07 Q1024;
0114103480999992013010616504+52300+010450FM-15+0088EDVE V0203001N006210015019N0060001N1+00801+00701999999ADDGF108991999999999999999999MA1102401999999MW1511REMMET055METAR EDVE 061650Z 30012KT 6000 -DZ OVC005 08/07 Q1024;
0104103480999992013010617204+52300+010450FM-15+0088EDVE V0203001N006710018019N0080001N1+00801+00701999999ADDGF108991999999999999999999MA1102401999999REMMET051METAR EDVE 061720Z 30013KT 8000 OVC006 08/07 Q1024;
0104103480999992013010617504+52300+010450FM-15+0088EDVE V0203001N006210018019N0090001N1+00801+00701999999ADDGF108991999999999999999999MA1102401999999REMMET051METAR EDVE 061750Z 30012KT 9000 OVC006 08/07 Q1024;
0120103480999992013010705504+52300+010450FM-15+0088EDVE V0202901N003110012019N0112651N1+00501+00401999999ADDGF108991999999999999999999MA1102711999999MW1531REMMET061METAR EDVE 070550Z 29006KT 9999 DZ BKN004 OVC016 05/04 Q1027;
0111103480999992013010706204+52300+010450FM-15+0088EDVE V0202901N002610012019N0112651N1+00501+00401999999ADDGF108991999999999999999999MA1102711999999REMMET058METAR EDVE 070620Z 29005KT 9999 BKN004 OVC016 05/04 Q1027;
0118103480999992013010706504+52300+010450FM-15+0088EDVE V0202901N002610012019N0112651N1+00501+00401999999ADDGF108991999999999999999999MA1102711999999REMMET065METAR EDVE 070650Z 29005KT 9999 BKN004 BKN015 OVC018 05/04 Q1027;
0128103480999992013010707204+52300+010450FM-15+0088EDVE V0203001N002610012019N0040001N1+00501+00401999999ADDGF108991999999999999999999MA1102711999999MW1101REMMET069METAR EDVE 070720Z 30005KT 270V330 4000 BR BKN004 OVC015 05/04 Q1027;
0120103480999992013010707504+52300+010450FM-15+0088EDVE V0203201N002110012019N0040001N1+00501+00401999999ADDGF108991999999999999999999MA1102711999999MW1101REMMET061METAR EDVE 070750Z 32004KT 4000 BR BKN004 OVC011 05/04 Q1027;
0120103480999992013010708204+52300+010450FM-15+0088EDVE V0203101N002110009019N0038001N1+00501+00401999999ADDGF108991999999999999999999MA1102711999999MW1101REMMET061METAR EDVE 070820Z 31004KT 3800 BR BKN003 OVC006 05/04 Q1027;
0120103480999992013010708504+52300+010450FM-15+0088EDVE V0209999V001010012019N0028001N1+00501+00501999999ADDGF108991999999999999999999MA1102711999999MW1101REMMET061METAR EDVE 070850Z VRB02KT 2800 BR SCT002 OVC004 05/05 Q1027;
0120103480999992013010709204+52300+010450FM-15+0088EDVE V0209999V001510009019N0041001N1+00501+00501999999ADDGF108991999999999999999999MA1102811999999MW1531REMMET061METAR EDVE 070920Z VRB03KT 4100 DZ BKN003 OVC005 05/05 Q1028;
0113103480999992013010709504+52300+010450FM-15+0088EDVE V0209999V000510012019N0050001N1+00501+00501999999ADDGF108991999999999999999999MA1102811999999MW1531REMMET054METAR EDVE 070950Z VRB01KT 5000 DZ OVC004 05/05 Q1028;
0120103480999992013010710204+52300+010450FM-15+0088EDVE V0209999V001510012019N0047001N1+00501+00401999999ADDGF108991999999999999999999MA1102811999999MW1531REMMET061METAR EDVE 071020Z VRB03KT 4700 DZ BKN004 OVC010 05/04 Q1028;
0121103480999992013010710504+52300+010450FM-15+0088EDVE V0202701N002610024019N0070001N1+00601+00501999999ADDGF108991999999999999999999MA1102811999999MW1511REMMET062METAR EDVE 071050Z 27005KT 7000 -DZ BKN008 OVC012 06/05 Q1028;
0118103480999992013010711204+52300+010450FM-15+0088EDVE V0202701N003110018019N0112651N1+00601+00501999999ADDGF108991999999999999999999MA1102711999999REMMET065METAR EDVE 071120Z 27006KT 9999 BKN006 BKN010 OVC013 06/05 Q1027;
0112103480999992013010711504+52300+010450FM-15+0088EDVE V0202901N003610030019N0112651N1+00601+00401999999ADDGF108991999999999999999999MA1102711999999REMMET059METAR EDVE 071150Z 29007KT 260V320 9999 OVC010 06/04 Q1027;
0104103480999992013010712204+52300+010450FM-15+0088EDVE V0202901N002610042019N0112651N1+00601+00401999999ADDGF108991999999999999999999MA1102711999999REMMET051METAR EDVE 071220Z 29005KT 9999 OVC014 06/04 Q1027;
0111103480999992013010712504+52300+010450FM-15+0088EDVE V0202801N002610042019N0112651N1+00601+00401999999ADDGF108991999999999999999999MA1102711999999REMMET058METAR EDVE 071250Z 28005KT 9999 SCT010 OVC014 06/04 Q1027;
0111103480999992013010713204+52300+010450FM-15+0088EDVE V0202601N002610027019N0112651N1+00601+00401999999ADDGF108991999999999999999999MA1102711999999REMMET058METAR EDVE 071320Z 26005KT 9999 BKN009 OVC015 06/04 Q1027;
0118103480999992013010713504+52300+010450FM-15+0088EDVE V0202701N00261003301CN0112651N1+00601+00501999999ADDGF108991999999999999999999MA1102711999999REMMET065METAR EDVE 071350Z 27005KT 9999 FEW009 SCT011 OVC014 06/05 Q1027;
0104103480999992013010714204+52300+010450FM-15+0088EDVE V0202601N003110036019N0112651N1+00601+00401999999ADDGF108991999999999999999999MA1102711999999REMMET051METAR EDVE 071420Z 26006KT 9999 OVC012 06/04 Q1027;
0104103480999992013010714504+52300+010450FM-15+0088EDVE V0202501N003110039019N0112651N1+00601+00401999999ADDGF108991999999999999999999MA1102611999999REMMET051METAR EDVE 071450Z 25006KT 9999 OVC013 06/04 Q1026;
0111103480999992013010715204+52300+010450FM-15+0088EDVE V0202701N002610054019N0112651N1+00601+00401999999ADDGF108991999999999999999999MA1102711999999REMMET058METAR EDVE 071520Z 27005KT 9999 SCT013 OVC018 06/04 Q1027;
0111103480999992013010715504+52300+010450FM-15+0088EDVE V0202601N002110057019N0112651N1+00601+00401999999ADDGF108991999999999999999999MA1102711999999REMMET058METAR EDVE 071550Z 26004KT 9999 FEW015 OVC019 06/04 Q1027;
0111103480999992013010716204+52300+010450FM-15+0088EDVE V0209999V001010057019N0112651N1+00601+00501999999ADDGF108991999999999999999999MA1102611999999REMMET058METAR EDVE 071620Z VRB02KT 9999 SCT016 OVC019 06/05 Q1026;
0104103480999992013010716504+52300+010450FM-15+0088EDVE V0209999V001010051019N0090001N1+00601+00501999999ADDGF108991999999999999999999MA1102611999999REMMET051METAR EDVE 071650Z VRB02KT 9000 OVC017 06/05 Q1026;
0111103480999992013010717204+52300+010450FM-15+0088EDVE V0209999V001010048019N0090001N1+00601+00401999999ADDGF108991999999999999999999MA1102611999999REMMET058METAR EDVE 071720Z VRB02KT 9000 BKN016 OVC025 06/04 Q1026;
0111103480999992013010718204+52300+010450FM-15+0088EDVE V0209999C000010039019N0112651N1+00601+00501999999ADDGF108991999999999999999999MA1102611999999REMMET058METAR EDVE 071820Z 00000KT 9999 BKN013 OVC024 06/05 Q1026;
0118103480999992013010718504+52300+010450FM-15+0088EDVE V0201001N001510060019N0080001N1+00601+00501999999ADDGF108991999999999999999999MA1102611999999REMMET065METAR EDVE 071850Z 10003KT 8000 FEW012 BKN020 OVC023 06/05 Q1026;
0104103480999992013010720504+52300+010450FM-15+0088EDVE V0202101N002110042019N0112651N1+00701+00501999999ADDGF108991999999999999999999MA1102611999999REMMET051METAR EDVE 072050Z 21004KT 9999 OVC014 07/05 Q1026;
0129103480999992013010805504+52300+010450FM-15+0088EDVE V0202601N004610021019N0035001N1+00601+00501999999ADDGF108991999999999999999999MA1102301999999MW1101MW2531REMMET064METAR EDVE 080550Z 26009KT 3500 DZ BR BKN007 OVC010 06/05 Q1023;
0122103480999992013010806204+52300+010450FM-15+0088EDVE V0202601N004610018019N0035001N1+00601+00501999999ADDGF108991999999999999999999MA1102201999999MW1101MW2531REMMET057METAR EDVE 080620Z 26009KT 3500 DZ BR OVC006 06/05 Q1022;
0122103480999992013010806504+52300+010450FM-15+0088EDVE V0202601N004610015019N0025001N1+00601+00501999999ADDGF108991999999999999999999MA1102201999999MW1101MW2531REMMET057METAR EDVE 080650Z 26009KT 2500 DZ BR OVC005 06/05 Q1022;
0122103480999992013010807204+52300+010450FM-15+0088EDVE V0202601N004610015019N0025001N1+00601+00501999999ADDGF108991999999999999999999MA1102201999999MW1101MW2531REMMET057METAR EDVE 080720Z 26009KT 2500 DZ BR OVC005 06/05 Q1022;
0122103480999992013010807504+52300+010450FM-15+0088EDVE V0202601N004610015019N0025001N1+00601+00501999999ADDGF108991999999999999999999MA1102201999999MW1101MW2531REMMET057METAR EDVE 080750Z 26009KT 2500 DZ BR OVC005 06/05 Q1022;
0123103480999992013010808204+52300+010450FM-15+0088EDVE V0202601N004610012019N0020001N1+00601+00501999999ADDGF108991999999999999999999MA1102201999999MW1101MW2511REMMET058METAR EDVE 080820Z 26009KT 2000 -DZ BR OVC004 06/05 Q1022;
0123103480999992013010808504+52300+010450FM-15+0088EDVE V0202601N004610012019N0020001N1+00601+00501999999ADDGF108991999999999999999999MA1102201999999MW1101MW2511REMMET058METAR EDVE 080850Z 26009KT 2000 -DZ BR OVC004 06/05 Q1022;
0123103480999992013010809204+52300+010450FM-15+0088EDVE V0202601N004610012019N0023001N1+00601+00501999999ADDGF108991999999999999999999MA1102201999999MW1101MW2511REMMET058METAR EDVE 080920Z 26009KT 2300 -DZ BR OVC004 06/05 Q1022;
0122103480999992013010809504+52300+010450FM-15+0088EDVE V0202601N004610012019N0022001N1+00601+00501999999ADDGF108991999999999999999999MA1102301999999MW1101MW2531REMMET057METAR EDVE 080950Z 26009KT 2200 DZ BR OVC004 06/05 Q1023;
0122103480999992013010810204+52300+010450FM-15+0088EDVE V0202701N004610012019N0020001N1+00601+00501999999ADDGF108991999999999999999999MA1102301999999MW1101MW2531REMMET057METAR EDVE 081020Z 27009KT 2000 DZ BR OVC004 06/05 Q1023;
0122103480999992013010810504+52300+010450FM-15+0088EDVE V0202601N004610012019N0015001N1+00601+00501999999ADDGF108991999999999999999999MA1102201999999MW1101MW2531REMMET057METAR EDVE 081050Z 26009KT 1500 DZ BR OVC004 06/05 Q1022;
0122103480999992013010811204+52300+010450FM-15+0088EDVE V0202601N004610009019N0022001N1+00601+00501999999ADDGF108991999999999999999999MA1102201999999MW1101MW2531REMMET057METAR EDVE 081120Z 26009KT 2200 DZ BR OVC003 06/05 Q1022;
0122103480999992013010811504+52300+010450FM-15+0088EDVE V0202601N005110009019N0023001N1+00601+00601999999ADDGF108991999999999999999999MA1102201999999MW1101MW2531REMMET057METAR EDVE 081150Z 26010KT 2300 DZ BR OVC003 06/06 Q1022;
0122103480999992013010812204+52300+010450FM-15+0088EDVE V0202601N005710012019N0035001N1+00601+00501999999ADDGF108991999999999999999999MA1102201999999MW1101MW2531REMMET057METAR EDVE 081220Z 26011KT 3500 DZ BR OVC004 06/05 Q1022;
0122103480999992013010812504+52300+010450FM-15+0088EDVE V0202701N005110018019N0038001N1+00601+00501999999ADDGF108991999999999999999999MA1102201999999MW1101MW2531REMMET057METAR EDVE 081250Z 27010KT 3800 DZ BR OVC006 06/05 Q1022;
0122103480999992013010813204+52300+010450FM-15+0088EDVE V0202701N004610012019N0024001N1+00601+00601999999ADDGF108991999999999999999999MA1102201999999MW1101MW2531REMMET057METAR EDVE 081320Z 27009KT 2400 DZ BR OVC004 06/06 Q1022;
0122103480999992013010813504+52300+010450FM-15+0088EDVE V0202701N004610009019N0019001N1+00601+00601999999ADDGF108991999999999999999999MA1102201999999MW1101MW2531REMMET057METAR EDVE 081350Z 27009KT 1900 DZ BR OVC003 06/06 Q1022;
0129103480999992013010814204+52300+010450FM-15+0088EDVE V0202701N004610009019N0021001N1+00601+00601999999ADDGF108991999999999999999999MA1102201999999MW1101MW2531REMMET064METAR EDVE 081420Z 27009KT 2100 DZ BR BKN003 OVC006 06/06 Q1022;
0129103480999992013010814504+52300+010450FM-15+0088EDVE V0202601N005110009019N0021001N1+00601+00601999999ADDGF108991999999999999999999MA1102201999999MW1101MW2531REMMET064METAR EDVE 081450Z 26010KT 2100 DZ BR BKN003 OVC006 06/06 Q1022;
0129103480999992013010815204+52300+010450FM-15+0088EDVE V0202601N005110009019N0026001N1+00601+00601999999ADDGF108991999999999999999999MA1102201999999MW1101MW2531REMMET064METAR EDVE 081520Z 26010KT 2600 DZ BR BKN003 OVC006 06/06 Q1022;
0129103480999992013010815504+52300+010450FM-15+0088EDVE V0202601N004110009019N0035001N1+00601+00601999999ADDGF108991999999999999999999MA1102201999999MW1101MW2531REMMET064METAR EDVE 081550Z 26008KT 3500 DZ BR BKN003 OVC006 06/06 Q1022;
0129103480999992013010816204+52300+010450FM-15+0088EDVE V0202701N004110009019N0044001N1+00601+00601999999ADDGF108991999999999999999999MA1102201999999MW1101MW2531REMMET064METAR EDVE 081620Z 27008KT 4400 DZ BR BKN003 OVC006 06/06 Q1022;
0129103480999992013010816504+52300+010450FM-15+0088EDVE V0202701N004110009019N0038001N1+00701+00601999999ADDGF108991999999999999999999MA1102201999999MW1101MW2531REMMET064METAR EDVE 081650Z 27008KT 3800 DZ BR BKN003 OVC006 07/06 Q1022;
0129103480999992013010817204+52300+010450FM-15+0088EDVE V0202701N004110009019N0029001N1+00701+00601999999ADDGF108991999999999999999999MA1102201999999MW1101MW2531REMMET064METAR EDVE 081720Z 27008KT 2900 DZ BR BKN003 OVC006 07/06 Q1022;
0122103480999992013010817504+52300+010450FM-15+0088EDVE V0202701N004110009019N0032001N1+00701+00601999999ADDGF108991999999999999999999MA1102201999999MW1101MW2531REMMET057METAR EDVE 081750Z 27008KT 3200 DZ BR OVC003 07/06 Q1022;
0135103480999992013010818204+52300+010450FM-15+0088EDVE V0202701N003610009019N0031001N1+00701+00601999999ADDGF108991999999999999999999MA1102201999999MW1101MW2511REMMET070METAR EDVE 081820Z 27007KT 3100 -DZ BR BKN003 OVC004 07/06 Q1022 REDZ;
0130103480999992013010818504+52300+010450FM-15+0088EDVE V0202601N003610009019N0048001N1+00701+00601999999ADDGF108991999999999999999999MA1102201999999MW1101MW2511REMMET065METAR EDVE 081850Z 26007KT 4800 -DZ BR BKN003 OVC004 07/06 Q1022;
0130103480999992013010819204+52300+010450FM-15+0088EDVE V0202601N003610009019N0045001N1+00701+00601999999ADDGF108991999999999999999999MA1102201999999MW1101MW2511REMMET065METAR EDVE 081920Z 26007KT 4500 -DZ BR BKN003 OVC004 07/06 Q1022;
0130103480999992013010819504+52300+010450FM-15+0088EDVE V0202601N003610009019N0040001N1+00701+00601999999ADDGF108991999999999999999999MA1102201999999MW1101MW2511REMMET065METAR EDVE 081950Z 26007KT 4000 -DZ BR BKN003 OVC004 07/06 Q1022;
0123103480999992013010820204+52300+010450FM-15+0088EDVE V0202601N004110009019N0028001N1+00701+00601999999ADDGF108991999999999999999999MA1102201999999MW1101MW2511REMMET058METAR EDVE 082020Z 26008KT 2800 -DZ BR OVC003 07/06 Q1022;
0123103480999992013010820504+52300+010450FM-15+0088EDVE V0202601N003610009019N0027001N1+00701+00601999999ADDGF108991999999999999999999MA1102201999999MW1101MW2511REMMET058METAR EDVE 082050Z 26007KT 2700 -DZ BR OVC003 07/06 Q1022;
0123103480999992013010821204+52300+010450FM-15+0088EDVE V0202701N004110009019N0025001N1+00701+00601999999ADDGF108991999999999999999999MA1102201999999MW1101MW2511REMMET058METAR EDVE 082120Z 27008KT 2500 -DZ BR OVC003 07/06 Q1022;
0104103480999992013010905504+52300+010450FM-15+0088EDVE V0202401N003610018019N0060001N1+00701+00601999999ADDGF108991999999999999999999MA1101901999999REMMET051METAR EDVE 090550Z 24007KT 6000 OVC006 07/06 Q1019;
0104103480999992013010906204+52300+010450FM-15+0088EDVE V0202401N003610018019N0060001N1+00701+00601999999ADDGF108991999999999999999999MA1101901999999REMMET051METAR EDVE 090620Z 24007KT 6000 OVC006 07/06 Q1019;
0104103480999992013010906504+52300+010450FM-15+0088EDVE V0202401N003110018019N0060001N1+00701+00601999999ADDGF108991999999999999999999MA1101901999999REMMET051METAR EDVE 090650Z 24006KT 6000 OVC006 07/06 Q1019;
0111103480999992013010907204+52300+010450FM-15+0088EDVE V0202201N002610021019N0050001N1+00701+00601999999ADDGF108991999999999999999999MA1101901999999REMMET058METAR EDVE 090720Z 22005KT 5000 FEW005 OVC007 07/06 Q1019;
0113103480999992013010907504+52300+010450FM-15+0088EDVE V0202301N002610018019N0048001N1+00701+00601999999ADDGF108991999999999999999999MA1101901999999MW1101REMMET054METAR EDVE 090750Z 23005KT 4800 BR OVC006 07/06 Q1019;
0111103480999992013010908204+52300+010450FM-15+0088EDVE V0202401N003110033019N0050001N1+00701+00501999999ADDGF108991999999999999999999MA1101901999999REMMET058METAR EDVE 090820Z 24006KT 5000 SCT008 OVC011 07/05 Q1019;
0104103480999992013010908504+52300+010450FM-15+0088EDVE V0202501N004610024019N0034001N1+00701+00501999999ADDGF108991999999999999999999MA1101801999999REMMET051METAR EDVE 090850Z 25009KT 3400 OVC008 07/05 Q1018;
0120103480999992013010909204+52300+010450FM-15+0088EDVE V0202501N004610018019N0028001N1+00701+00601999999ADDGF108991999999999999999999MA1101801999999MW1101REMMET061METAR EDVE 090920Z 25009KT 2800 BR BKN006 OVC011 07/06 Q1018;
0113103480999992013010909504+52300+010450FM-15+0088EDVE V0202501N004110015019N0045001N1+00701+00601999999ADDGF108991999999999999999999MA1101801999999MW1101REMMET054METAR EDVE 090950Z 25008KT 4500 BR OVC005 07/06 Q1018;
0111103480999992013010910204+52300+010450FM-15+0088EDVE V0202501N003610039019N0050001N1+00701+00601999999ADDGF108991999999999999999999MA1101801999999REMMET058METAR EDVE 091020Z 25007KT 5000 SCT005 OVC013 07/06 Q1018;
0111103480999992013010910504+52300+010450FM-15+0088EDVE V0202501N004110027019N0060001N1+00701+00601999999ADDGF108991999999999999999999MA1101691999999REMMET058METAR EDVE 091050Z 25008KT 6000 SCT006 OVC009 07/06 Q1017;
0111103480999992013010911204+52300+010450FM-15+0088EDVE V0202501N005710021019N0060001N1+00701+00601999999ADDGF108991999999999999999999MA1101691999999REMMET058METAR EDVE 091120Z 25011KT 6000 BKN007 OVC014 07/06 Q1017;
0111103480999992013010911504+52300+010450FM-15+0088EDVE V0202501N004610021019N0060001N1+00701+00601999999ADDGF108991999999999999999999MA1101591999999REMMET058METAR EDVE 091150Z 25009KT 6000 BKN007 OVC013 07/06 Q1016;
0122103480999992013010912204+52300+010450FM-15+0088EDVE V0202501N005110018019N0045001N1+00701+00601999999ADDGF108991999999999999999999MA1101591999999MW1101MW2531REMMET057METAR EDVE 091220Z 25010KT 4500 DZ BR OVC006 07/06 Q1016;
0113103480999992013010912504+52300+010450FM-15+0088EDVE V0202501N005710021019N0070001N1+00701+00501999999ADDGF108991999999999999999999MA1101491999999MW1631REMMET054METAR EDVE 091250Z 25011KT 7000 RA OVC007 07/05 Q1015;
0113103480999992013010913204+52300+010450FM-15+0088EDVE V0202501N004610024019N0112651N1+00701+00501999999ADDGF108991999999999999999999MA1101491999999MW1631REMMET054METAR EDVE 091320Z 25009KT 9999 RA OVC008 07/05 Q1015;
0127103480999992013010913504+52300+010450FM-15+0088EDVE V0202501N005110024019N0112651N1+00701+00501999999ADDGF108991999999999999999999MA1101491999999MW1631REMMET068METAR EDVE 091350Z 25010KT 9999 RA BKN008 BKN014 OVC016 07/05 Q1015;
0120103480999992013010914204+52300+010450FM-15+0088EDVE V0202501N005710027019N0112651N1+00601+00501999999ADDGF108991999999999999999999MA1101491999999MW1631REMMET061METAR EDVE 091420Z 25011KT 9999 RA BKN009 OVC013 06/05 Q1015;
0113103480999992013010914504+52300+010450FM-15+0088EDVE V0202501N005710024019N0112651N1+00601+00501999999ADDGF108991999999999999999999MA1101491999999MW1631REMMET054METAR EDVE 091450Z 25011KT 9999 RA OVC008 06/05 Q1015;
0113103480999992013010915204+52300+010450FM-15+0088EDVE V0202501N006210024019N0112651N1+00601+00501999999ADDGF108991999999999999999999MA1101391999999MW1631REMMET054METAR EDVE 091520Z 25012KT 9999 RA OVC008 06/05 Q1014;
0121103480999992013010915504+52300+010450FM-15+0088EDVE V0202501N006210021019N0112651N1+00601+00501999999ADDGF108991999999999999999999MA1101391999999MW1611REMMET062METAR EDVE 091550Z 25012KT 9999 -RA BKN007 OVC013 06/05 Q1014;
0113103480999992013010916504+52300+010450FM-15+0088EDVE V0202601N006210018019N0070001N1+00601+00501999999ADDGF108991999999999999999999MA1101391999999MW1631REMMET054METAR EDVE 091650Z 26012KT 7000 RA OVC006 06/05 Q1014;
0113103480999992013010917504+52300+010450FM-15+0088EDVE V0202701N006210012019N0090001N1+00601+00501999999ADDGF108991999999999999999999MA1101291999999MW1631REMMET054METAR EDVE 091750Z 27012KT 9000 RA OVC004 06/05 Q1013;
0114103480999992013010918204+52300+010450FM-15+0088EDVE V0202701N005710012019N0112651N1+00601+00501999999ADDGF108991999999999999999999MA1101291999999MW1511REMMET055METAR EDVE 091820Z 27011KT 9999 -DZ OVC004 06/05 Q1013;
0114103480999992013010918504+52300+010450FM-15+0088EDVE V0202701N005110012019N0080001N1+00601+00501999999ADDGF108991999999999999999999MA1101291999999MW1511REMMET055METAR EDVE 091850Z 27010KT 8000 -DZ OVC004 06/05 Q1013;
0123103480999992013010919204+52300+010450FM-15+0088EDVE V0202701N005110012019N0045001N1+00601+00501999999ADDGF108991999999999999999999MA1101291999999MW1101MW2511REMMET058METAR EDVE 091920Z 27010KT 4500 -DZ BR OVC004 06/05 Q1013;
0123103480999992013010919504+52300+010450FM-15+0088EDVE V0202801N005110009019N0033001N1+00601+00501999999ADDGF108991999999999999999999MA1101291999999MW1101MW2511REMMET058METAR EDVE 091950Z 28010KT 3300 -DZ BR OVC003 06/05 Q1013;
0104103480999992013010920204+52300+010450FM-15+0088EDVE V0202901N004610009019N0090001N1+00601+00501999999ADDGF107991999999999999999999MA1101291999999REMMET051METAR EDVE 092020Z 29009KT 9000 BKN003 06/05 Q1013;
0111103480999992013010920504+52300+010450FM-15+0088EDVE V0203001N004610036019N0112651N1+00601+00501999999ADDGF107991999999999999999999MA1101291999999REMMET058METAR EDVE 092050Z 30009KT 9999 SCT003 BKN012 06/05 Q1013;
0128103480999992013011005504+52300+010450FM-15+0088EDVE V0202801N004610024019N0060001N1+00401+00301999999ADDGF108991999999999999999999MA1101021999999MW1611REMMET069METAR EDVE 100550Z 28009KT 6000 -RA BKN008 BKN013 OVC016 04/03 Q1010;
0121103480999992013011006204+52300+010450FM-15+0088EDVE V0202801N006210024019N0112651N1+00401+00201999999ADDGF107991999999999999999999MA1101021999999MW1611REMMET062METAR EDVE 100620Z 28012KT 9999 -RA BKN008 BKN040 04/02 Q1010;
0128103480999992013011006504+52300+010450FM-15+0088EDVE V0202701N00721003601CN0112651N1+00401+00301999999ADDGF107991999999999999999999MA1101021999999MW1611REMMET069METAR EDVE 100650Z 27014KT 9999 -RA FEW010 SCT012 BKN043 04/03 Q1010;
0121103480999992013011007204+52300+010450FM-15+0088EDVE V0202701N005110135019N0112651N1+00401+00301999999ADDGF107991999999999999999999MA1101021999999MW1611REMMET062METAR EDVE 100720Z 27010KT 9999 -RA SCT012 BKN045 04/03 Q1010;
0118103480999992013011007504+52300+010450FM-15+0088EDVE V0202701N005710048019N0112651N1+00401+00301999999ADDGF108991999999999999999999MA1101021999999REMMET065METAR EDVE 100750Z 27011KT 9999 SCT011 BKN016 OVC045 04/03 Q1010;
0118103480999992013011008204+52300+010450FM-15+0088EDVE V0202701N006710045019N0112651N1+00501+00301999999ADDGF108991999999999999999999MA1100911999999REMMET065METAR EDVE 100820Z 27013KT 9999 SCT011 BKN015 OVC019 05/03 Q1009;
0118103480999992013011008504+52300+010450FM-15+0088EDVE V0202701N007210039019N0112651N1+00501+00301999999ADDGF107991999999999999999999MA1100911999999REMMET065METAR EDVE 100850Z 27014KT 9999 SCT011 BKN013 BKN021 05/03 Q1009;
0111103480999992013011009204+52300+010450FM-15+0088EDVE V0202701N006710126019N0112651N1+00501+00301999999ADDGF107991999999999999999999MA1100911999999REMMET058METAR EDVE 100920Z 27013KT 9999 SCT012 BKN042 05/03 Q1009;
0111103480999992013011009504+52300+010450FM-15+0088EDVE V0202701N007210126019N0112651N1+00501+00301999999ADDGF108991999999999999999999MA1100911999999REMMET058METAR EDVE 100950Z 27014KT 9999 SCT012 OVC042 05/03 Q1009;
0118103480999992013011010204+52300+010450FM-15+0088EDVE V0202701N009310036019N0112651N1+00501+00301999999ADDGF108991999999999999999999MA1100811999999REMMET065METAR EDVE 101020Z 27018KT 9999 BKN012 BKN033 OVC040 05/03 Q1008;
0128103480999992013011010504+52300+010450FM-15+0088EDVE V0202701N007710054019N0112651N1+00501+00301999999ADDGF108991999999999999999999MA1100811999999MW1611REMMET069METAR EDVE 101050Z 27015KT 9999 -RA SCT013 BKN018 OVC044 05/03 Q1008;
0121103480999992013011011204+52300+010450FM-15+0088EDVE V0202701N008710051019N0112651N1+00501+00301999999ADDGF108991999999999999999999MA1100811999999MW1611REMMET062METAR EDVE 101120Z 27017KT 9999 -RA BKN017 OVC045 05/03 Q1008;
0121103480999992013011011504+52300+010450FM-15+0088EDVE V0202801N007210045019N0112651N1+00501+00301999999ADDGF108991999999999999999999MA1100711999999MW1611REMMET062METAR EDVE 101150Z 28014KT 9999 -RA BKN015 OVC020 05/03 Q1007;
0121103480999992013011012504+52300+010450FM-15+0088EDVE V0202901N007210051019N0080001N1+00401+00201999999ADDGF107991999999999999999999MA1100711999999MW1611REMMET062METAR EDVE 101250Z 29014KT 8000 -RA SCT011 BKN017 04/02 Q1007;
0121103480999992013011013204+52300+010450FM-15+0088EDVE V0202801N007710054019N0090001N1+00401+00301999999ADDGF108991999999999999999999MA1100711999999MW1611REMMET062METAR EDVE 101320Z 28015KT 9000 -RA SCT012 OVC018 04/03 Q1007;
0129103480999992013011013504+52300+010450FM-15+0088EDVE V0202801N006210036019N0090001N1+00401+00301999999ADDGF107991999999999999999999MA1100711999999MW1511MW2611REMMET064METAR EDVE 101350Z 28012KT 9000 -RADZ SCT008 BKN012 04/03 Q1007;
0123103480999992013011014204+52300+010450FM-15+0088EDVE V0202901N005710021019N0045001N1+00401+00301999999ADDGF107991999999999999999999MA1100711999999MW1101MW2511REMMET058METAR EDVE 101420Z 29011KT 4500 -DZ BR BKN007 04/03 Q1007;
0145103480999992013011014504+52300+010450FM-15+0088EDVE V0200101N002110024019N0040001N1+00101+00001999999ADDGF108991999999999999999999MA1100711999999MW1101MW2711REMMET080METAR EDVE 101450Z 01004KT 320V070 4000 -SN BR FEW003 BKN008 OVC020 01/00 Q1007;
0139103480999992013011015204+52300+010450FM-15+0088EDVE V0203601N002110009019N0040001N1+00101+00001999999ADDGF108991999999999999999999MA1100711999999MW1101MW2711REMMET074METAR EDVE 101520Z 36004KT 300V050 4000 -SN BR BKN003 OVC020 01/M00 Q1007;
0121103480999992013011015504+52300+010450FM-15+0088EDVE V0209999V002110009019N0045001N1+00101+00001999999ADDGF107991999999999999999999MA1100811999999MW1731REMMET062METAR EDVE 101550Z VRB04KT 4500 SN SCT002 BKN003 01/M00 Q1008;
0124103480999992013011016204+52300+010450FM-15+0088EDVE V0209999V002110021019N0050001N1+00101+00001999999ADDGF107991999999999999999999MA1100811999999MW1101MW2711REMMET059METAR EDVE 101620Z VRB04KT 5000 -SN BR BKN007 01/M00 Q1008;
0137103480999992013011016504+52300+010450FM-15+0088EDVE V0203501N002110060019N0112651N1+00101+00001999999ADDGF108991999999999999999999MA1100811999999MW1711REMMET078METAR EDVE 101650Z 35004KT 320V030 9999 -SN SCT006 BKN020 OVC033 01/M00 Q1008;
0120103480999992013011017504+52300+010450FM-15+0088EDVE V0203401N002610078019N0112651N1+00101-00201999999ADDGF107991999999999999999999MA1100911999999REMMET067METAR EDVE 101750Z 34005KT 310V030 9999 FEW019 BKN026 01/M02 Q1009;
0120103480999992013011018204+52300+010450FM-15+0088EDVE V0200201N002110072019N0112651N1+00001-00301999999ADDGF107991999999999999999999MA1100911999999REMMET067METAR EDVE 101820Z 02004KT 270V080 9999 FEW019 BKN024 00/M03 Q1009;
0113103480999992013011018504+52300+010450FM-15+0088EDVE V0203501N003110081019N0112651N1+00001-00401999999ADDGF108991999999999999999999MA1100911999999REMMET060METAR EDVE 101850Z 35006KT 320V050 9999 OVC027 00/M04 Q1009;
0105103480999992013011019204+52300+010450FM-15+0088EDVE V0203201N002110099019N0112651N1+00001-00301999999ADDGF108991999999999999999999MA1100911999999REMMET052METAR EDVE 101920Z 32004KT 9999 OVC033 00/M03 Q1009;
0106103480999992013011020204+52300+010450FM-15+0088EDVE V0202901N002110081019N0112651N1+00001-00301999999ADDGF108991999999999999999999MA1100911999999REMMET053METAR EDVE 102020Z 29004KT 9999 OVC027 M00/M03 Q1009;
0112103480999992013011020504+52300+010450FM-15+0088EDVE V0202801N002110084019N0112651N1+00001-00301999999ADDGF108991999999999999999999MA1101021999999REMMET059METAR EDVE 102050Z 28004KT 9999 BKN028 OVC033 00/M03 Q1010;
0106103480999992013011105504+52300+010450FM-15+0088EDVE V0203101N003610132019N0112651N1-00101-00301999999ADDGF107991999999999999999999MA1101291999999REMMET053METAR EDVE 110550Z 31007KT 9999 BKN044 M01/M03 Q1013;
0113103480999992013011106204+52300+010450FM-15+0088EDVE V0203101N004110135019N0112651N1-00101-00301999999ADDGF107991999999999999999999MA1101291999999REMMET060METAR EDVE 110620Z 31008KT 9999 FEW012 BKN045 M01/M03 Q1013;
0113103480999992013011106504+52300+010450FM-15+0088EDVE V0203001N004110135019N0112651N1-00101-00301999999ADDGF108991999999999999999999MA1101291999999REMMET060METAR EDVE 110650Z 30008KT 9999 SCT011 OVC045 M01/M03 Q1013;
0113103480999992013011107204+52300+010450FM-15+0088EDVE V0203101N003110132019N0112651N1-00101-00301999999ADDGF107991999999999999999999MA1101391999999REMMET060METAR EDVE 110720Z 31006KT 9999 SCT011 BKN044 M01/M03 Q1014;
0113103480999992013011107504+52300+010450FM-15+0088EDVE V0203001N004110129019N0112651N1-00101-00301999999ADDGF108991999999999999999999MA1101391999999REMMET060METAR EDVE 110750Z 30008KT 9999 SCT009 OVC043 M01/M03 Q1014;
0113103480999992013011108204+52300+010450FM-15+0088EDVE V0203001N004110117019N0112651N1-00101-00301999999ADDGF107991999999999999999999MA1101391999999REMMET060METAR EDVE 110820Z 30008KT 9999 FEW009 BKN039 M01/M03 Q1014;
0113103480999992013011108504+52300+010450FM-15+0088EDVE V0203101N003610114019N0112651N1-00101-00301999999ADDGF107991999999999999999999MA1101391999999REMMET060METAR EDVE 110850Z 31007KT 9999 FEW009 BKN038 M01/M03 Q1014;
0113103480999992013011109204+52300+010450FM-15+0088EDVE V0203001N003610111019N0112651N1-00101-00301999999ADDGF108991999999999999999999MA1101491999999REMMET060METAR EDVE 110920Z 30007KT 9999 FEW010 OVC037 M01/M03 Q1015;
0130103480999992013011109504+52300+010450FM-15+0088EDVE V0203101N003610120019N0080001N1-00101-00301999999ADDGF108991999999999999999999MA1101491999999MW1711REMMET071METAR EDVE 110950Z 31007KT 8000 -SN SCT010 BKN040 OVC048 M01/M03 Q1015;
0123103480999992013011110204+52300+010450FM-15+0088EDVE V0203001N003110147019N0112651N1-00101-00301999999ADDGF107991999999999999999999MA1101491999999MW1711REMMET064METAR EDVE 111020Z 30006KT 9999 -SN SCT008 BKN049 M01/M03 Q1015;
0123103480999992013011110504+52300+010450FM-15+0088EDVE V0202901N004110141019N0112651N1-00101-00301999999ADDGF108991999999999999999999MA1101491999999MW1711REMMET064METAR EDVE 111050Z 29008KT 9999 -SN SCT009 OVC047 M01/M03 Q1015;
0113103480999992013011111204+52300+010450FM-15+0088EDVE V0202801N004110147019N0112651N1-00101-00301999999ADDGF108991999999999999999999MA1101491999999REMMET060METAR EDVE 111120Z 28008KT 9999 FEW010 OVC049 M01/M03 Q1015;
0113103480999992013011111504+52300+010450FM-15+0088EDVE V0202901N004610150019N0112651N1+00001-00301999999ADDGF108991999999999999999999MA1101491999999REMMET060METAR EDVE 111150Z 29009KT 9999 SCT010 OVC050 M00/M03 Q1015;
0123103480999992013011112204+52300+010450FM-15+0088EDVE V0202901N004610141019N0112651N1+00001-00301999999ADDGF108991999999999999999999MA1101491999999MW1711REMMET064METAR EDVE 111220Z 29009KT 9999 -SN SCT011 OVC047 M00/M03 Q1015;
0113103480999992013011112504+52300+010450FM-15+0088EDVE V0202901N004610141019N0112651N1+00001-00301999999ADDGF108991999999999999999999MA1101491999999REMMET060METAR EDVE 111250Z 29009KT 9999 FEW011 OVC047 M00/M03 Q1015;
0120103480999992013011113204+52300+010450FM-15+0088EDVE V0202801N00411004201CN0112651N1+00001-00301999999ADDGF108991999999999999999999MA1101491999999REMMET067METAR EDVE 111320Z 28008KT 9999 FEW012 SCT014 OVC033 M00/M03 Q1015;
0130103480999992013011113504+52300+010450FM-15+0088EDVE V0202801N00411010201CN0112651N1+00001-00301999999ADDGF108991999999999999999999MA1101591999999MW1711REMMET071METAR EDVE 111350Z 28008KT 9999 -SN FEW011 SCT034 OVC040 M00/M03 Q1016;
0123103480999992013011114204+52300+010450FM-15+0088EDVE V0202901N003610144019N0112651N1+00001-00301999999ADDGF108991999999999999999999MA1101591999999MW1711REMMET064METAR EDVE 111420Z 29007KT 9999 -SN FEW031 OVC048 M00/M03 Q1016;
0111103480999992013011114504+52300+010450FM-15+0088EDVE V0202901N003610147019N0112651N1+00001-00301999999ADDGF108991999999999999999999MA1101591999999REMMET058METAR EDVE 111450Z 29007KT 9999 OVC049 M00/M03 Q1016 RESN;
0106103480999992013011115204+52300+010450FM-15+0088EDVE V0202901N003610147019N0112651N1+00001-00401999999ADDGF108991999999999999999999MA1101591999999REMMET053METAR EDVE 111520Z 29007KT 9999 OVC049 M00/M04 Q1016;
0113103480999992013011116204+52300+010450FM-15+0088EDVE V0202901N003612200019N0112651N1+00001-00401999999ADDGF100991999999999999999999MA1101591999999MW1711REMMET054METAR EDVE 111620Z 29007KT 9999 -SN NSC M00/M04 Q1016;
0118103480999992013011116504+52300+010450FM-15+0088EDVE V0202901N003110180019N0112651N1+00001-00401999999ADDGF108991999999999999999999MA1101591999999REMMET065METAR EDVE 111650Z 29006KT 9999 FEW028 OVC063 M00/M04 Q1016 RESN;
0074103480999992013011117204+52300+010450FM-15+0088EDVE V0202901N003619999999Y0099001N1+00001-00401999999ADDMA1101591999999REMMET047METAR EDVE 111720Z 29007KT CAVOK M00/M04 Q1016;
0074103480999992013011117504+52300+010450FM-15+0088EDVE V0203101N002619999999Y0099001N1-00101-00401999999ADDMA1101591999999REMMET047METAR EDVE 111750Z 31005KT CAVOK M01/M04 Q1016;
0074103480999992013011118204+52300+010450FM-15+0088EDVE V0202801N003119999999Y0099001N1-00101-00401999999ADDMA1101591999999REMMET047METAR EDVE 111820Z 28006KT CAVOK M01/M04 Q1016;
0074103480999992013011118504+52300+010450FM-15+0088EDVE V0202701N003119999999Y0099001N1-00101-00301999999ADDMA1101591999999REMMET047METAR EDVE 111850Z 27006KT CAVOK M01/M03 Q1016;
0074103480999992013011119204+52300+010450FM-15+0088EDVE V0202701N002619999999Y0099001N1-00201-00401999999ADDMA1101591999999REMMET047METAR EDVE 111920Z 27005KT CAVOK M02/M04 Q1016;
0074103480999992013011119504+52300+010450FM-15+0088EDVE V0202901N002119999999Y0099001N1-00201-00401999999ADDMA1101691999999REMMET047METAR EDVE 111950Z 29004KT CAVOK M02/M04 Q1017;
0106103480999992013011120204+52300+010450FM-15+0088EDVE V0202801N002112200019N0112651N1-00201-00401999999ADDGF102991999999999999999999MA1101691999999REMMET053METAR EDVE 112020Z 28004KT 9999 FEW040 M02/M04 Q1017;
0106103480999992013011206504+52300+010450FM-15+0088EDVE V0202601N001512200019N0039001N1-00501-00601999999ADDGF104991999999999999999999MA1101801999999REMMET053METAR EDVE 120650Z 26003KT 3900 SCT001 M05/M06 Q1018;
0106103480999992013011207204+52300+010450FM-15+0088EDVE V0202701N001512200019N0060001N1-00501-00601999999ADDGF102991999999999999999999MA1101801999999REMMET053METAR EDVE 120720Z 27003KT 6000 FEW001 M05/M06 Q1018;
0106103480999992013011207504+52300+010450FM-15+0088EDVE V0202701N001012200019N0080001N1-00401-00501999999ADDGF104991999999999999999999MA1101801999999REMMET053METAR EDVE 120750Z 27002KT 8000 SCT001 M04/M05 Q1018;
0106103480999992013011208204+52300+010450FM-15+0088EDVE V0202901N001012200019N0060001N1-00401-00501999999ADDGF104991999999999999999999MA1101901999999REMMET053METAR EDVE 120820Z 29002KT 6000 SCT001 M04/M05 Q1019;
0106103480999992013011208504+52300+010450FM-15+0088EDVE V0209999C000012200019N0112651N1-00401-00501999999ADDGF102991999999999999999999MA1101901999999REMMET053METAR EDVE 120850Z 00000KT 9999 FEW002 M04/M05 Q1019;
0106103480999992013011209204+52300+010450FM-15+0088EDVE V0209999V001012200019N0112651N1-00301-00401999999ADDGF104991999999999999999999MA1101901999999REMMET053METAR EDVE 120920Z VRB02KT 9999 SCT003 M03/M04 Q1019;
0106103480999992013011209504+52300+010450FM-15+0088EDVE V0202701N001512200019N0090001N1-00301-00401999999ADDGF104991999999999999999999MA1101901999999REMMET053METAR EDVE 120950Z 27003KT 9000 SCT003 M03/M04 Q1019;
0106103480999992013011210204+52300+010450FM-15+0088EDVE V0209999V001512200019N0112651N1-00201-00301999999ADDGF104991999999999999999999MA1101901999999REMMET053METAR EDVE 121020Z VRB03KT 9999 SCT003 M02/M03 Q1019;
0106103480999992013011210504+52300+010450FM-15+0088EDVE V0209999V001510015019N0112651N1-00201-00301999999ADDGF107991999999999999999999MA1101901999999REMMET053METAR EDVE 121050Z VRB03KT 9999 BKN005 M02/M03 Q1019;
0121103480999992013011211204+52300+010450FM-15+0088EDVE V0203101N002110018019N0112651N1-00201-00401999999ADDGF107991999999999999999999MA1101901999999REMMET068METAR EDVE 121120Z 31004KT 280V340 9999 BKN006 BKN018 M02/M04 Q1019;
0114103480999992013011211504+52300+010450FM-15+0088EDVE V0202501N002110021019N0112651N1-00101-00401999999ADDGF107991999999999999999999MA1101901999999REMMET061METAR EDVE 121150Z 25004KT 220V290 9999 BKN007 M01/M04 Q1019;
0106103480999992013011212204+52300+010450FM-15+0088EDVE V0209999V001512200019N0112651N1-00101-00301999999ADDGF104991999999999999999999MA1101901999999REMMET053METAR EDVE 121220Z VRB03KT 9999 SCT014 M01/M03 Q1019;
0106103480999992013011212504+52300+010450FM-15+0088EDVE V0209999V001512200019N0112651N1-00101-00401999999ADDGF104991999999999999999999MA1101901999999REMMET053METAR EDVE 121250Z VRB03KT 9999 SCT013 M01/M04 Q1019;
0106103480999992013011213204+52300+010450FM-15+0088EDVE V0209999V001512200019N0112651N1-00101-00401999999ADDGF104991999999999999999999MA1101901999999REMMET053METAR EDVE 121320Z VRB03KT 9999 SCT012 M01/M04 Q1019;
0106103480999992013011213504+52300+010450FM-15+0088EDVE V0209999V001012200019N0112651N1+00001-00401999999ADDGF102991999999999999999999MA1101901999999REMMET053METAR EDVE 121350Z VRB02KT 9999 FEW015 M00/M04 Q1019;
0106103480999992013011214204+52300+010450FM-15+0088EDVE V0202601N001512200019N0112651N1-00101-00401999999ADDGF102991999999999999999999MA1101901999999REMMET053METAR EDVE 121420Z 26003KT 9999 FEW015 M01/M04 Q1019;
0106103480999992013011214504+52300+010450FM-15+0088EDVE V0209999V000512200019N0112651N1+00001-00401999999ADDGF102991999999999999999999MA1101901999999REMMET053METAR EDVE 121450Z VRB01KT 9999 FEW018 M00/M04 Q1019;
0106103480999992013011215204+52300+010450FM-15+0088EDVE V0209999V000512200019N0112651N1-00101-00501999999ADDGF102991999999999999999999MA1101901999999REMMET053METAR EDVE 121520Z VRB01KT 9999 FEW018 M01/M05 Q1019;
0106103480999992013011215504+52300+010450FM-15+0088EDVE V0202301N001012200019N0112651N1-00201-00501999999ADDGF102991999999999999999999MA1101901999999REMMET053METAR EDVE 121550Z 23002KT 9999 FEW026 M02/M05 Q1019;
0106103480999992013011216204+52300+010450FM-15+0088EDVE V0202601N000512200019N0112651N1-00301-00501999999ADDGF104991999999999999999999MA1101901999999REMMET053METAR EDVE 121620Z 26001KT 9999 SCT023 M03/M05 Q1019;
0113103480999992013011306504+52300+010450FM-15+0088EDVE V0209999V001510150019N0112651N1-00201-00301999999ADDGF108991999999999999999999MA1101901999999REMMET060METAR EDVE 130650Z VRB03KT 9999 FEW017 OVC057 M02/M03 Q1019;
0113103480999992013011307204+52300+010450FM-15+0088EDVE V0209999V001010150019N0112651N1-00201-00401999999ADDGF108991999999999999999999MA1101901999999REMMET060METAR EDVE 130720Z VRB02KT 9999 FEW021 OVC057 M02/M04 Q1019;
0113103480999992013011307504+52300+010450FM-15+0088EDVE V0209999V001010048019N0112651N1-00201-00301999999ADDGF108991999999999999999999MA1101901999999REMMET060METAR EDVE 130750Z VRB02KT 9999 SCT010 OVC016 M02/M03 Q1019;
0115103480999992013011308504+52300+010450FM-15+0088EDVE V0209999V001010036019N0021001N1-00201-00301999999ADDGF108991999999999999999999MA1101901999999MW1731REMMET056METAR EDVE 130850Z VRB02KT 2100 SN OVC012 M02/M03 Q1019;
0122103480999992013011309204+52300+010450FM-15+0088EDVE V0209999V001510039019N0036001N1-00201-00301999999ADDGF108991999999999999999999MA1101901999999MW1731REMMET063METAR EDVE 130920Z VRB03KT 3600 SN SCT004 OVC013 M02/M03 Q1019;
0130103480999992013011309504+52300+010450FM-15+0088EDVE V0209999V001510015019N0024001N1-00201-00301999999ADDGF108991999999999999999999MA1101901999999MW1711REMMET071METAR EDVE 130950Z VRB03KT 2400 -SN BKN005 BKN008 OVC014 M02/M03 Q1019;
0131103480999992013011310204+52300+010450FM-15+0088EDVE V0200801N002610018019N0046001N1-00101-00301999999ADDGF108991999999999999999999MA1102001999999MW1711REMMET072METAR EDVE 131020Z 08005KT 040V110 4600 -SN BKN006 OVC027 M01/M03 Q1020;
0130103480999992013011310504+52300+010450FM-15+0088EDVE V0200701N003110045019N0039001N1-00201-00301999999ADDGF108991999999999999999999MA1101901999999MW1711REMMET071METAR EDVE 131050Z 07006KT 3900 -SN SCT006 BKN015 OVC027 M02/M03 Q1019;
0130103480999992013011311204+52300+010450FM-15+0088EDVE V0200701N003610024019N0041001N1-00201-00401999999ADDGF108991999999999999999999MA1101901999999MW1711REMMET071METAR EDVE 131120Z 07007KT 4100 -SN BKN008 BKN015 OVC019 M02/M04 Q1019;
0138103480999992013011311504+52300+010450FM-15+0088EDVE V0200801N004110024019N0034001N1-00201-00401999999ADDGF108991999999999999999999MA1101901999999MW1711REMMET079METAR EDVE 131150Z 08008KT 050V110 3400 -SN BKN008 BKN011 OVC019 M02/M04 Q1019;
0124103480999992013011312204+52300+010450FM-15+0088EDVE V0200801N004110030019N0040001N1-00201-00401999999ADDGF107991999999999999999999MA1101901999999MW1711REMMET065METAR EDVE 131220Z 08008KT 040V110 4000 -SN BKN010 M02/M04 Q1019;
0125103480999992013011312504+52300+010450FM-15+0088EDVE V0200801N004110030019N0040001N1-00201-00401999999ADDGF107991999999999999999999MA1101901999999MW1101MW2711REMMET060METAR EDVE 131250Z 08008KT 4000 -SN BR BKN010 M02/M04 Q1019;
0125103480999992013011313204+52300+010450FM-15+0088EDVE V0200801N004110030019N0050001N1-00201-00401999999ADDGF107991999999999999999999MA1101901999999MW1101MW2711REMMET060METAR EDVE 131320Z 08008KT 5000 -SN BR BKN010 M02/M04 Q1019;
0132103480999992013011313504+52300+010450FM-15+0088EDVE V0200801N004110045019N0050001N1-00201-00501999999ADDGF107991999999999999999999MA1101901999999MW1101MW2711REMMET067METAR EDVE 131350Z 08008KT 5000 -SN BR FEW009 BKN015 M02/M05 Q1019;
0138103480999992013011314204+52300+010450FM-15+0088EDVE V0200801N003110048019N0060001N1-00301-00501999999ADDGF108991999999999999999999MA1101901999999MW1711REMMET079METAR EDVE 131420Z 08006KT 050V110 6000 -SN FEW013 BKN016 OVC022 M03/M05 Q1019;
0130103480999992013011314504+52300+010450FM-15+0088EDVE V0200801N003610060019N0060001N1-00301-00501999999ADDGF108991999999999999999999MA1101901999999MW1711REMMET071METAR EDVE 131450Z 08007KT 6000 -SN FEW013 BKN020 OVC025 M03/M05 Q1019;
0113103480999992013011315204+52300+010450FM-15+0088EDVE V0200901N003610072019N0080001N1-00301-00501999999ADDGF108991999999999999999999MA1101901999999REMMET060METAR EDVE 131520Z 09007KT 8000 FEW010 OVC024 M03/M05 Q1019;
0113103480999992013011315504+52300+010450FM-15+0088EDVE V0200801N003110069019N0112651N1-00301-00501999999ADDGF108991999999999999999999MA1101901999999REMMET060METAR EDVE 131550Z 08006KT 9999 FEW013 OVC023 M03/M05 Q1019;
0113103480999992013011316204+52300+010450FM-15+0088EDVE V0200801N003110072019N0112651N1-00301-00501999999ADDGF108991999999999999999999MA1101901999999REMMET060METAR EDVE 131620Z 08006KT 9999 FEW020 OVC024 M03/M05 Q1019;
0120103480999992013011318204+52300+010450FM-15+0088EDVE V0200901N002610060019N0112651N1-00301-00501999999ADDGF108991999999999999999999MA1101901999999REMMET067METAR EDVE 131820Z 09005KT 9999 FEW015 BKN020 OVC027 M03/M05 Q1019;
0113103480999992013011318504+52300+010450FM-15+0088EDVE V0200801N002610093019N0112651N1-00301-00501999999ADDGF108991999999999999999999MA1101901999999REMMET060METAR EDVE 131850Z 08005KT 9999 FEW022 OVC031 M03/M05 Q1019;
0116103480999992013011320204+52300+010450FM-15+0088EDVE V0200801N001010105019N0090001N1-00401-00501999999ADDGF107991999999999999999999MA1101801999999MW1711REMMET057METAR EDVE 132020Z 08002KT 9000 -SN BKN035 M04/M05 Q1018;
0106103480999992013011320504+52300+010450FM-15+0088EDVE V0201001N001010111019N0112651N1-00401-00501999999ADDGF107991999999999999999999MA1101901999999REMMET053METAR EDVE 132050Z 10002KT 9999 BKN037 M04/M05 Q1019;
0113103480999992013011321204+52300+010450FM-15+0088EDVE V0200801N001510150019N0112651N1-00401-00501999999ADDGF107991999999999999999999MA1101801999999REMMET060METAR EDVE 132120Z 08003KT 9999 FEW032 BKN050 M04/M05 Q1018;
0074103480999992013011405504+52300+010450FM-15+0088EDVE V0201201N004119999999Y0099001N1-00501-00701999999ADDMA1101591999999REMMET047METAR EDVE 140550Z 12008KT CAVOK M05/M07 Q1016;
0074103480999992013011406504+52300+010450FM-15+0088EDVE V0201101N005119999999Y0099001N1-00501-00701999999ADDMA1101591999999REMMET047METAR EDVE 140650Z 11010KT CAVOK M05/M07 Q1016;
0074103480999992013011407204+52300+010450FM-15+0088EDVE V0201201N003619999999Y0099001N1-00501-00701999999ADDMA1101591999999REMMET047METAR EDVE 140720Z 12007KT CAVOK M05/M07 Q1016;
0116103480999992013011407504+52300+010450FM-15+0088EDVE V0201101N004110150019N0080001N1-00501-00701999999ADDGF107991999999999999999999MA1101491999999MW1711REMMET057METAR EDVE 140750Z 11008KT 8000 -SN BKN053 M05/M07 Q1015;
0074103480999992013011408204+52300+010450FM-15+0088EDVE V0201101N004119999999Y0099001N1-00501-00701999999ADDMA1101491999999REMMET047METAR EDVE 140820Z 11008KT CAVOK M05/M07 Q1015;
0113103480999992013011408504+52300+010450FM-15+0088EDVE V0201101N004110150019N0112651N1-00401-00701999999ADDGF108991999999999999999999MA1101491999999REMMET060METAR EDVE 140850Z 11008KT 9999 FEW011 OVC056 M04/M07 Q1015;
0123103480999992013011409204+52300+010450FM-15+0088EDVE V0201101N004110150019N0090001N1-00401-00701999999ADDGF108991999999999999999999MA1101491999999MW1711REMMET064METAR EDVE 140920Z 11008KT 9000 -SN FEW028 OVC055 M04/M07 Q1015;
0106103480999992013011410504+52300+010450FM-15+0088EDVE V0201101N003612200019N0112651N1-00301-00601999999ADDGF102991999999999999999999MA1101391999999REMMET053METAR EDVE 141050Z 11007KT 9999 FEW011 M03/M06 Q1014;
0106103480999992013011411204+52300+010450FM-15+0088EDVE V0201101N003112200019N0080001N1-00401-00701999999ADDGF102991999999999999999999MA1101391999999REMMET053METAR EDVE 141120Z 11006KT 8000 FEW013 M04/M07 Q1014;
0106103480999992013011411504+52300+010450FM-15+0088EDVE V0201101N003612200019N0112651N1-00401-00601999999ADDGF102991999999999999999999MA1101291999999REMMET053METAR EDVE 141150Z 11007KT 9999 FEW013 M04/M06 Q1013;
0103103480999992013011412204+52300+010450FM-15+0088EDVE V0201101N002612200019N0090001N1-00301-00701999999ADDGF100991999999999999999999MA1101291999999REMMET050METAR EDVE 141220Z 11005KT 9000 NSC M03/M07 Q1013;
0106103480999992013011412504+52300+010450FM-15+0088EDVE V0200901N002112200019N0090001N1-00401-00701999999ADDGF102991999999999999999999MA1101291999999REMMET053METAR EDVE 141250Z 09004KT 9000 FEW013 M04/M07 Q1013;
0106103480999992013011413204+52300+010450FM-15+0088EDVE V0201101N002112200019N0080001N1-00301-00601999999ADDGF102991999999999999999999MA1101191999999REMMET053METAR EDVE 141320Z 11004KT 8000 FEW013 M03/M06 Q1012;
0106103480999992013011413504+52300+010450FM-15+0088EDVE V0201001N002112200019N0080001N1-00301-00601999999ADDGF102991999999999999999999MA1101191999999REMMET053METAR EDVE 141350Z 10004KT 8000 FEW013 M03/M06 Q1012;
0106103480999992013011414204+52300+010450FM-15+0088EDVE V0201201N002110039019N0080001N1-00301-00601999999ADDGF107991999999999999999999MA1101191999999REMMET053METAR EDVE 141420Z 12004KT 8000 BKN013 M03/M06 Q1012;
0106103480999992013011414504+52300+010450FM-15+0088EDVE V0200901N002610039019N0070001N1-00301-00601999999ADDGF107991999999999999999999MA1101191999999REMMET053METAR EDVE 141450Z 09005KT 7000 BKN013 M03/M06 Q1012;
0106103480999992013011415204+52300+010450FM-15+0088EDVE V0200801N002110039019N0060001N1-00301-00601999999ADDGF107991999999999999999999MA1101191999999REMMET053METAR EDVE 141520Z 08004KT 6000 BKN013 M03/M06 Q1012;
0113103480999992013011415504+52300+010450FM-15+0088EDVE V0209999C000010147019N0060001N1-00401-00701999999ADDGF107991999999999999999999MA1101191999999REMMET060METAR EDVE 141550Z 00000KT 6000 SCT013 BKN049 M04/M07 Q1012;
0113103480999992013011416204+52300+010450FM-15+0088EDVE V0209999V000510147019N0060001N1-00401-00601999999ADDGF107991999999999999999999MA1101191999999REMMET060METAR EDVE 141620Z VRB01KT 6000 FEW011 BKN049 M04/M06 Q1012;
0120103480999992013011416504+52300+010450FM-15+0088EDVE V0209999V00101012901CN0070001N1-00401-00601999999ADDGF108991999999999999999999MA1101191999999REMMET067METAR EDVE 141650Z VRB02KT 7000 FEW028 SCT043 OVC050 M04/M06 Q1012;
0113103480999992013011417204+52300+010450FM-15+0088EDVE V0209999V001010135019N0070001N1-00401-00601999999ADDGF108991999999999999999999MA1101191999999REMMET060METAR EDVE 141720Z VRB02KT 7000 FEW039 OVC045 M04/M06 Q1012;
0116103480999992013011417504+52300+010450FM-15+0088EDVE V0209999V001010135019N0060001N1-00401-00601999999ADDGF108991999999999999999999MA1101191999999MW1711REMMET057METAR EDVE 141750Z VRB02KT 6000 -SN OVC045 M04/M06 Q1012;
0123103480999992013011418204+52300+010450FM-15+0088EDVE V0201401N001010141019N0060001N1-00401-00601999999ADDGF108991999999999999999999MA1101191999999MW1711REMMET064METAR EDVE 141820Z 14002KT 6000 -SN FEW026 OVC047 M04/M06 Q1012;
0123103480999992013011418504+52300+010450FM-15+0088EDVE V0201301N001010144019N0060001N1-00401-00601999999ADDGF107991999999999999999999MA1101191999999MW1711REMMET064METAR EDVE 141850Z 13002KT 6000 -SN FEW040 BKN048 M04/M06 Q1012;
0123103480999992013011419204+52300+010450FM-15+0088EDVE V0201601N001010180019N0060001N1-00401-00601999999ADDGF107991999999999999999999MA1101191999999MW1711REMMET064METAR EDVE 141920Z 16002KT 6000 -SN FEW040 BKN066 M04/M06 Q1012;
0123103480999992013011419504+52300+010450FM-15+0088EDVE V0201501N001510150019N0060001N1-00401-00601999999ADDGF107991999999999999999999MA1101081999999MW1711REMMET064METAR EDVE 141950Z 15003KT 6000 -SN FEW036 BKN055 M04/M06 Q1011;
0123103480999992013011420204+52300+010450FM-15+0088EDVE V0201701N002110180019N0060001N1-00401-00601999999ADDGF107991999999999999999999MA1101081999999MW1711REMMET064METAR EDVE 142020Z 17004KT 6000 -SN SCT024 BKN060 M04/M06 Q1011;
0140103480999992013011420504+52300+010450FM-15+0088EDVE V0201701N002110072019N0045001N1-00401-00601999999ADDGF107991999999999999999999MA1101081999999MW1101MW2711REMMET075METAR EDVE 142050Z 17004KT 140V210 4500 -SN BR FEW011 BKN024 M04/M06 Q1011;
0112103480999992013011505504+52300+010450FM-15+0088EDVE V0200801N002112200019N0050001N1-00901-01001999999ADDGF100991999999999999999999MA1100911999999MW1101REMMET053METAR EDVE 150550Z 08004KT 5000 BR NSC M09/M10 Q1009;
0112103480999992013011506204+52300+010450FM-15+0088EDVE V0201101N001512200019N0050001N1-01001-01201999999ADDGF100991999999999999999999MA1100911999999MW1101REMMET053METAR EDVE 150620Z 11003KT 5000 BR NSC M10/M12 Q1009;
0112103480999992013011506504+52300+010450FM-15+0088EDVE V0201201N001012200019N0050001N1-00901-01101999999ADDGF100991999999999999999999MA1100911999999MW1101REMMET053METAR EDVE 150650Z 12002KT 5000 BR NSC M09/M11 Q1009;
0103103480999992013011507204+52300+010450FM-15+0088EDVE V0209999C000012200019N0070001N1-01001-01201999999ADDGF100991999999999999999999MA1100911999999REMMET050METAR EDVE 150720Z 00000KT 7000 NSC M10/M12 Q1009;
0112103480999992013011507504+52300+010450FM-15+0088EDVE V0200801N001012200019N0050001N1-01001-01101999999ADDGF100991999999999999999999MA1100911999999MW1101REMMET053METAR EDVE 150750Z 08002KT 5000 BR NSC M10/M11 Q1009;
0103103480999992013011508204+52300+010450FM-15+0088EDVE V0209999V000512200019N0070001N1-00901-01101999999ADDGF100991999999999999999999MA1100911999999REMMET050METAR EDVE 150820Z VRB01KT 7000 NSC M09/M11 Q1009;
0112103480999992013011508504+52300+010450FM-15+0088EDVE V0203001N001012200019N0050001N1-00901-01001999999ADDGF100991999999999999999999MA1100911999999MW1101REMMET053METAR EDVE 150850Z 30002KT 5000 BR NSC M09/M10 Q1009;
0103103480999992013011509204+52300+010450FM-15+0088EDVE V0201001N001012200019N0070001N1-00701-00901999999ADDGF100991999999999999999999MA1100911999999REMMET050METAR EDVE 150920Z 10002KT 7000 NSC M07/M09 Q1009;
0103103480999992013011509504+52300+010450FM-15+0088EDVE V0201101N001512200019N0060001N1-00601-00801999999ADDGF100991999999999999999999MA1100911999999REMMET050METAR EDVE 150950Z 11003KT 6000 NSC M06/M08 Q1009;
0074103480999992013011510504+52300+010450FM-15+0088EDVE V0209999V001519999999Y0099001N1-00301-00601999999ADDMA1100911999999REMMET047METAR EDVE 151050Z VRB03KT CAVOK M03/M06 Q1009;
0082103480999992013011511204+52300+010450FM-15+0088EDVE V0200801N002619999999Y0099001N1-00301-00701999999ADDMA1100911999999REMMET055METAR EDVE 151120Z 08005KT 040V110 CAVOK M03/M07 Q1009;
0074103480999992013011511504+52300+010450FM-15+0088EDVE V0200901N002619999999Y0099001N1-00301-00701999999ADDMA1100911999999REMMET047METAR EDVE 151150Z 09005KT CAVOK M03/M07 Q1009;
0074103480999992013011512204+52300+010450FM-15+0088EDVE V0201001N002619999999Y0099001N1-00201-00701999999ADDMA1100811999999REMMET047METAR EDVE 151220Z 10005KT CAVOK M02/M07 Q1008;
0073103480999992013011512504+52300+010450FM-15+0088EDVE V0200901N003612200019N0112651N1-00201-00701999999ADDMA1100811999999REMMET046METAR EDVE 151250Z 09007KT 9999 M02/M07 Q1008;
0074103480999992013011514504+52300+010450FM-15+0088EDVE V0200901N003619999999Y0099001N1-00301-00701999999ADDMA1100811999999REMMET047METAR EDVE 151450Z 09007KT CAVOK M03/M07 Q1008;
0074103480999992013011515204+52300+010450FM-15+0088EDVE V0200901N004619999999Y0099001N1-00301-00701999999ADDMA1100811999999REMMET047METAR EDVE 151520Z 09009KT CAVOK M03/M07 Q1008;
0074103480999992013011515504+52300+010450FM-15+0088EDVE V0200901N004119999999Y0099001N1-00401-00701999999ADDMA1100811999999REMMET047METAR EDVE 151550Z 09008KT CAVOK M04/M07 Q1008;
0103103480999992013011516204+52300+010450FM-15+0088EDVE V0200901N003612200019N0080001N1-00501-00701999999ADDGF100991999999999999999999MA1100811999999REMMET050METAR EDVE 151620Z 09007KT 8000 NSC M05/M07 Q1008;
0120103480999992013011516504+52300+010450FM-15+0088EDVE V0201001N003610480019N0070001N1-00601-00701999999ADDGF107991999999999999999999MA1100811999999REMMET067METAR EDVE 151650Z 10007KT 7000 FEW006 BKN160 BKN190 M06/M07 Q1008;
0122103480999992013011517204+52300+010450FM-15+0088EDVE V0201001N005110015019N0050001N1-00501-00601999999ADDGF107991999999999999999999MA1100811999999MW1101REMMET063METAR EDVE 151720Z 10010KT 5000 BR BKN005 BKN160 M05/M06 Q1008;
0115103480999992013011517504+52300+010450FM-15+0088EDVE V0201001N005110015019N0050001N1-00501-00601999999ADDGF108991999999999999999999MA1100811999999MW1101REMMET056METAR EDVE 151750Z 10010KT 5000 BR OVC005 M05/M06 Q1008;
0115103480999992013011518504+52300+010450FM-15+0088EDVE V0200901N006710015019N0050001N1-00501-00601999999ADDGF108991999999999999999999MA1100811999999MW1101REMMET056METAR EDVE 151850Z 09013KT 5000 BR OVC005 M05/M06 Q1008;
0115103480999992013011519204+52300+010450FM-15+0088EDVE V0200801N004110015019N0050001N1-00501-00601999999ADDGF108991999999999999999999MA1100811999999MW1101REMMET056METAR EDVE 151920Z 08008KT 5000 BR OVC005 M05/M06 Q1008;
0115103480999992013011519504+52300+010450FM-15+0088EDVE V0200901N004610018019N0050001N1-00501-00601999999ADDGF108991999999999999999999MA1100811999999MW1101REMMET056METAR EDVE 151950Z 09009KT 5000 BR OVC006 M05/M06 Q1008;
0106103480999992013011520204+52300+010450FM-15+0088EDVE V0200801N004610018019N0060001N1-00501-00601999999ADDGF108991999999999999999999MA1100811999999REMMET053METAR EDVE 152020Z 08009KT 6000 OVC006 M05/M06 Q1008;
0106103480999992013011520504+52300+010450FM-15+0088EDVE V0200901N003610018019N0070001N1-00501-00601999999ADDGF108991999999999999999999MA1100811999999REMMET053METAR EDVE 152050Z 09007KT 7000 OVC006 M05/M06 Q1008;
0106103480999992013011521204+52300+010450FM-15+0088EDVE V0200901N004110018019N0060001N1-00501-00601999999ADDGF108991999999999999999999MA1100911999999REMMET053METAR EDVE 152120Z 09008KT 6000 OVC006 M05/M06 Q1009;
0106103480999992013011521504+52300+010450FM-15+0088EDVE V0200901N003610018019N0060001N1-00501-00601999999ADDGF108991999999999999999999MA1100911999999REMMET053METAR EDVE 152150Z 09007KT 6000 OVC006 M05/M06 Q1009;
0106103480999992013011522204+52300+010450FM-15+0088EDVE V0200801N003610018019N0060001N1-00501-00601999999ADDGF108991999999999999999999MA1100911999999REMMET053METAR EDVE 152220Z 08007KT 6000 OVC006 M05/M06 Q1009;
0106103480999992013011522504+52300+010450FM-15+0088EDVE V0200801N003110015019N0060001N1-00501-00601999999ADDGF108991999999999999999999MA1100911999999REMMET053METAR EDVE 152250Z 08006KT 6000 OVC005 M05/M06 Q1009;
0115103480999992013011605504+52300+010450FM-15+0088EDVE V0200901N003610018019N0050001N1-00401-00501999999ADDGF107991999999999999999999MA1100911999999MW1101REMMET056METAR EDVE 160550Z 09007KT 5000 BR BKN006 M04/M05 Q1009;
0115103480999992013011606204+52300+010450FM-15+0088EDVE V0201001N003110021019N0050001N1-00401-00501999999ADDGF107991999999999999999999MA1100911999999MW1101REMMET056METAR EDVE 160620Z 10006KT 5000 BR BKN007 M04/M05 Q1009;
0115103480999992013011606504+52300+010450FM-15+0088EDVE V0201001N003110021019N0050001N1-00401-00501999999ADDGF107991999999999999999999MA1100911999999MW1101REMMET056METAR EDVE 160650Z 10006KT 5000 BR BKN007 M04/M05 Q1009;
0115103480999992013011607204+52300+010450FM-15+0088EDVE V0200801N001510018019N0040001N1-00401-00501999999ADDGF107991999999999999999999MA1100911999999MW1101REMMET056METAR EDVE 160720Z 08003KT 4000 BR BKN006 M04/M05 Q1009;
0115103480999992013011607504+52300+010450FM-15+0088EDVE V0200801N002610015019N0033001N1-00401-00501999999ADDGF107991999999999999999999MA1100911999999MW1101REMMET056METAR EDVE 160750Z 08005KT 3300 BR BKN005 M04/M05 Q1009;
0115103480999992013011608204+52300+010450FM-15+0088EDVE V0200801N002610015019N0036001N1-00401-00501999999ADDGF108991999999999999999999MA1101021999999MW1101REMMET056METAR EDVE 160820Z 08005KT 3600 BR OVC005 M04/M05 Q1010;
0123103480999992013011608504+52300+010450FM-15+0088EDVE V0200801N002610015019N0040001N1-00401-00501999999ADDGF107991999999999999999999MA1101021999999MW1101REMMET064METAR EDVE 160850Z 08005KT 020V100 4000 BR BKN005 M04/M05 Q1010;
0123103480999992013011609204+52300+010450FM-15+0088EDVE V0200801N003110015019N0047001N1-00401-00501999999ADDGF108991999999999999999999MA1101021999999MW1101REMMET064METAR EDVE 160920Z 08006KT 050V110 4700 BR OVC005 M04/M05 Q1010;
0114103480999992013011609504+52300+010450FM-15+0088EDVE V0200801N002610018019N0060001N1-00301-00501999999ADDGF107991999999999999999999MA1101021999999REMMET061METAR EDVE 160950Z 08005KT 050V110 6000 BKN006 M03/M05 Q1010;
0106103480999992013011610204+52300+010450FM-15+0088EDVE V0200901N003610021019N0060001N1-00301-00501999999ADDGF107991999999999999999999MA1101021999999REMMET053METAR EDVE 161020Z 09007KT 6000 BKN007 M03/M05 Q1010;
0106103480999992013011610504+52300+010450FM-15+0088EDVE V0200901N003110021019N0060001N1-00301-00501999999ADDGF107991999999999999999999MA1101021999999REMMET053METAR EDVE 161050Z 09006KT 6000 BKN007 M03/M05 Q1010;
0115103480999992013011611204+52300+010450FM-15+0088EDVE V0201001N004110018019N0050001N1-00301-00501999999ADDGF107991999999999999999999MA1101021999999MW1101REMMET056METAR EDVE 161120Z 10008KT 5000 BR BKN006 M03/M05 Q1010;
0123103480999992013011611504+52300+010450FM-15+0088EDVE V0200901N003110018019N0050001N1-00301-00501999999ADDGF108991999999999999999999MA1101021999999MW1101REMMET064METAR EDVE 161150Z 09006KT 050V110 5000 BR OVC006 M03/M05 Q1010;
0115103480999992013011612204+52300+010450FM-15+0088EDVE V0200901N003110021019N0050001N1-00301-00501999999ADDGF108991999999999999999999MA1101021999999MW1101REMMET056METAR EDVE 161220Z 09006KT 5000 BR OVC007 M03/M05 Q1010;
0115103480999992013011612504+52300+010450FM-15+0088EDVE V0200801N003110030019N0050001N1-00301-00501999999ADDGF108991999999999999999999MA1101021999999MW1101REMMET056METAR EDVE 161250Z 08006KT 5000 BR OVC010 M03/M05 Q1010;
0114103480999992013011613204+52300+010450FM-15+0088EDVE V0200801N002110027019N0060001N1-00301-00501999999ADDGF108991999999999999999999MA1101021999999REMMET061METAR EDVE 161320Z 08004KT 050V110 6000 OVC009 M03/M05 Q1010;
0114103480999992013011613504+52300+010450FM-15+0088EDVE V0200601N002610033019N0060001N1-00301-00501999999ADDGF108991999999999999999999MA1101021999999REMMET061METAR EDVE 161350Z 06005KT 010V100 6000 OVC011 M03/M05 Q1010;
0121103480999992013011614204+52300+010450FM-15+0088EDVE V0200701N002110030019N0070001N1-00301-00501999999ADDGF107991999999999999999999MA1101021999999REMMET068METAR EDVE 161420Z 07004KT 030V100 7000 BKN010 BKN027 M03/M05 Q1010;
0121103480999992013011614504+52300+010450FM-15+0088EDVE V0200701N003110030019N0070001N1-00301-00501999999ADDGF108991999999999999999999MA1101081999999REMMET068METAR EDVE 161450Z 07006KT 040V110 7000 BKN010 OVC027 M03/M05 Q1011;
0113103480999992013011615204+52300+010450FM-15+0088EDVE V0209999V001510033019N0070001N1-00301-00501999999ADDGF108991999999999999999999MA1101081999999REMMET060METAR EDVE 161520Z VRB03KT 7000 BKN011 OVC027 M03/M05 Q1011;
0123103480999992013011615504+52300+010450FM-15+0088EDVE V0200401N002110027019N0045001N1-00301-00501999999ADDGF108991999999999999999999MA1101081999999MW1101REMMET064METAR EDVE 161550Z 04004KT 360V090 4500 BR OVC009 M03/M05 Q1011;
0124103480999992013011616204+52300+010450FM-15+0088EDVE V0209999V00211002401CN9999999N1-00301-00501999999ADDGF108991999999999999999999MA1101101999999REMMET071METAR EDVE 161620Z VRB04KT 4O00 -SN FEW006 BKN008 OVC030 M03/M05 Q1011;
0147103480999992013011617204+52300+010450FM-15+0088EDVE V0200501N002110105019N0040001N1-00401-00501999999ADDGF108991999999999999999999MA1101081999999MW1101MW2711REMMET082METAR EDVE 161720Z 05004KT 340V080 4000 -SN BR SCT006 BKN035 OVC046 M04/M05 Q1011;
0140103480999992013011617504+52300+010450FM-15+0088EDVE V0200501N002610021019N0038001N1-00401-00501999999ADDGF108991999999999999999999MA1101191999999MW1101MW2711REMMET075METAR EDVE 161750Z 05005KT 350V090 3800 -SN BR BKN007 OVC011 M04/M05 Q1012;
0147103480999992013011618204+52300+010450FM-15+0088EDVE V0200401N002610036019N0034001N1-00401-00501999999ADDGF108991999999999999999999MA1101191999999MW1101MW2711REMMET082METAR EDVE 161820Z 04005KT 330V110 3400 -SN BR SCT007 BKN012 OVC029 M04/M05 Q1012;
0132103480999992013011618504+52300+010450FM-15+0088EDVE V0209999V001512200019N0037001N1-00401-00501999999ADDGF104991999999999999999999MA1101191999999MW1101MW2711REMMET067METAR EDVE 161850Z VRB03KT 3700 -SN BR FEW005 SCT015 M04/M05 Q1012;
0132103480999992013011619204+52300+010450FM-15+0088EDVE V0209999V001512200019N0030001N1-00401-00501999999ADDGF104991999999999999999999MA1101191999999MW1101MW2711REMMET067METAR EDVE 161920Z VRB03KT 3000 -SN BR FEW006 SCT015 M04/M05 Q1012;
0132103480999992013011619504+52300+010450FM-15+0088EDVE V0209999V001512200019N0030001N1-00401-00501999999ADDGF104991999999999999999999MA1101191999999MW1101MW2711REMMET067METAR EDVE 161950Z VRB03KT 3000 -SN BR FEW006 SCT015 M04/M05 Q1012;
0133103480999992013011620204+52300+010450FM-15+0088EDVE V0200101N002112200019N0030001N1-00401-00501999999ADDGF104991999999999999999999MA1101191999999MW1101MW2711REMMET068METAR EDVE 162020Z 01004KT 290V080 3000 -SN BR SCT008 M04/M05 Q1012;
0125103480999992013011620504+52300+010450FM-15+0088EDVE V0209999V001510024019N0030001N1-00401-00501999999ADDGF107991999999999999999999MA1101191999999MW1101MW2711REMMET060METAR EDVE 162050Z VRB03KT 3000 -SN BR BKN008 M04/M05 Q1012;
0114103480999992013011705504+52300+010450FM-15+0088EDVE V0203601N002610015019N0060001N1-00201-00301999999ADDGF108991999999999999999999MA1101391999999REMMET061METAR EDVE 170550Z 36005KT 320V040 6000 OVC005 M02/M03 Q1014;
0124103480999992013011706204+52300+010450FM-15+0088EDVE V0203601N002110015019N0050001N1-00201-00301999999ADDGF107991999999999999999999MA1101391999999MW1711REMMET065METAR EDVE 170620Z 36004KT 320V050 5000 -SN BKN005 M02/M03 Q1014;
0124103480999992013011706504+52300+010450FM-15+0088EDVE V0203601N002110015019N0050001N1-00201-00301999999ADDGF107991999999999999999999MA1101391999999MW1711REMMET065METAR EDVE 170650Z 36004KT 310V050 5000 -SN BKN005 M02/M03 Q1014;
0124103480999992013011707204+52300+010450FM-15+0088EDVE V0203601N002110015019N0060001N1-00201-00301999999ADDGF107991999999999999999999MA1101491999999MW1711REMMET065METAR EDVE 170720Z 36004KT 320V060 6000 -SN BKN005 M02/M03 Q1015;
0124103480999992013011707504+52300+010450FM-15+0088EDVE V0203601N002110018019N0070001N1-00201-00301999999ADDGF107991999999999999999999MA1101491999999MW1711REMMET065METAR EDVE 170750Z 36004KT 310V070 7000 -SN BKN006 M02/M03 Q1015;
0124103480999992013011708204+52300+010450FM-15+0088EDVE V0203601N002110018019N0050001N1-00201-00301999999ADDGF107991999999999999999999MA1101591999999MW1711REMMET065METAR EDVE 170820Z 36004KT 320V090 5000 -SN BKN006 M02/M03 Q1016;
0133103480999992013011708504+52300+010450FM-15+0088EDVE V0203601N002110018019N0048001N1-00101-00201999999ADDGF108991999999999999999999MA1101591999999MW1101MW2711REMMET068METAR EDVE 170850Z 36004KT 310V050 4800 -SN BR OVC006 M01/M02 Q1016;
0133103480999992013011709204+52300+010450FM-15+0088EDVE V0200101N002110021019N0050001N1-00101-00201999999ADDGF108991999999999999999999MA1101591999999MW1101MW2711REMMET068METAR EDVE 170920Z 01004KT 320V050 5000 -SN BR OVC007 M01/M02 Q1016;
0124103480999992013011710204+52300+010450FM-15+0088EDVE V0200201N002610021019N0060001N1-00101-00301999999ADDGF108991999999999999999999MA1101591999999MW1711REMMET065METAR EDVE 171020Z 02005KT 310V080 6000 -SN OVC007 M01/M03 Q1016;
0124103480999992013011710504+52300+010450FM-15+0088EDVE V0200201N002110021019N0080001N1-00101-00301999999ADDGF108991999999999999999999MA1101591999999MW1711REMMET065METAR EDVE 171050Z 02004KT 290V090 8000 -SN OVC007 M01/M03 Q1016;
0116103480999992013011711204+52300+010450FM-15+0088EDVE V0209999V001510024019N0080001N1-00101-00301999999ADDGF108991999999999999999999MA1101591999999MW1711REMMET057METAR EDVE 171120Z VRB03KT 8000 -SN OVC008 M01/M03 Q1016;
0124103480999992013011711504+52300+010450FM-15+0088EDVE V0200301N002110024019N0060001N1-00101-00301999999ADDGF108991999999999999999999MA1101591999999MW1711REMMET065METAR EDVE 171150Z 03004KT 350V090 6000 -SN OVC008 M01/M03 Q1016;
0124103480999992013011712204+52300+010450FM-15+0088EDVE V0200301N002110021019N0043001N1-00101-00201999999ADDGF108991999999999999999999MA1101591999999MW1711REMMET065METAR EDVE 171220Z 03004KT 350V100 4300 -SN OVC007 M01/M02 Q1016;
0131103480999992013011712504+52300+010450FM-15+0088EDVE V0200301N002610021019N0112651N1-00101-00301999999ADDGF108991999999999999999999MA1101591999999REMMET078METAR EDVE 171250Z 03005KT 350V070 9999 // BKN007 BKN009 OVC017 M01/M03 Q1016;
0124103480999992013011713414+52300+010450FM-16+0088EDVE V0200401N002110024019N0060001N1-00101-00201999999ADDGF108991999999999999999999MA1101591999999MW1711REMMET065SPECI EDVE 171341Z 04004KT 340V080 6000 -SN OVC008 M01/M02 Q1016;
0124103480999992013011714204+52300+010450FM-15+0088EDVE V0200401N002110024019N0060001N1-00101-00201999999ADDGF108991999999999999999999MA1101591999999MW1711REMMET065METAR EDVE 171420Z 04004KT 350V090 6000 -SN OVC008 M01/M02 Q1016;
0138103480999992013011714504+52300+010450FM-15+0088EDVE V0200301N002110057019N0060001N1-00101-00201999999ADDGF108991999999999999999999MA1101691999999MW1711REMMET079METAR EDVE 171450Z 03004KT 340V080 6000 -SN SCT007 BKN019 OVC050 M01/M02 Q1017;
0128103480999992013011715204+52300+010450FM-15+0088EDVE V0200501N00211015001CN0112651N1-00101-00201999999ADDGF108991999999999999999999MA1101691999999REMMET075METAR EDVE 171520Z 05004KT 020V100 9999 FEW015 SCT055 OVC070 M01/M02 Q1017;
0082103480999992013011715504+52300+010450FM-15+0088EDVE V0200701N002119999999Y0099001N1-00101-00301999999ADDMA1101691999999REMMET055METAR EDVE 171550Z 07004KT 040V100 CAVOK M01/M03 Q1017;
0074103480999992013011716204+52300+010450FM-15+0088EDVE V0209999V001519999999Y0099001N1-00101-00401999999ADDMA1101691999999REMMET047METAR EDVE 171620Z VRB03KT CAVOK M01/M04 Q1017;
0074103480999992013011716504+52300+010450FM-15+0088EDVE V0209999V000519999999Y0099001N1-00101-00401999999ADDMA1101691999999REMMET047METAR EDVE 171650Z VRB01KT CAVOK M01/M04 Q1017;
0074103480999992013011717204+52300+010450FM-15+0088EDVE V0209999V000519999999Y0099001N1-00201-00401999999ADDMA1101801999999REMMET047METAR EDVE 171720Z VRB01KT CAVOK M02/M04 Q1018;
0113103480999992013011717504+52300+010450FM-15+0088EDVE V0209999V001010210019N0112651N1-00201-00401999999ADDGF107991999999999999999999MA1101801999999REMMET060METAR EDVE 171750Z VRB02KT 9999 SCT032 BKN075 M02/M04 Q1018;
0106103480999992013011718204+52300+010450FM-15+0088EDVE V0209999V000510093019N0112651N1-00201-00401999999ADDGF107991999999999999999999MA1101801999999REMMET053METAR EDVE 171820Z VRB01KT 9999 BKN031 M02/M04 Q1018;
0120103480999992013011719504+52300+010450FM-15+0088EDVE V0209999V00151011401CN0112651N1-00201-00401999999ADDGF108991999999999999999999MA1101801999999REMMET067METAR EDVE 171950Z VRB03KT 9999 FEW028 SCT038 OVC043 M02/M04 Q1018;
0113103480999992013011720204+52300+010450FM-15+0088EDVE V0209999V001510096019N0112651N1-00201-00401999999ADDGF108991999999999999999999MA1101801999999REMMET060METAR EDVE 172020Z VRB03KT 9999 BKN032 OVC044 M02/M04 Q1018;
0113103480999992013011720504+52300+010450FM-15+0088EDVE V0209999V001010102019N0112651N1-00201-00401999999ADDGF108991999999999999999999MA1101801999999REMMET060METAR EDVE 172050Z VRB02KT 9999 BKN034 OVC040 M02/M04 Q1018;
0114103480999992013011805504+52300+010450FM-15+0088EDVE V0200801N003610030019N0080001N1-00201-00301999999ADDGF107991999999999999999999MA1101391999999REMMET061METAR EDVE 180550Z 08007KT 040V120 8000 BKN010 M02/M03 Q1014;
0113103480999992013011806204+52300+010450FM-15+0088EDVE V0200901N004610111019N0080001N1-00201-00301999999ADDGF108991999999999999999999MA1101391999999REMMET060METAR EDVE 180620Z 09009KT 8000 SCT008 OVC037 M02/M03 Q1014;
0113103480999992013011806504+52300+010450FM-15+0088EDVE V0200801N004110102019N0112651N1-00201-00401999999ADDGF107991999999999999999999MA1101391999999REMMET060METAR EDVE 180650Z 08008KT 9999 SCT009 BKN034 M02/M04 Q1014;
0113103480999992013011807204+52300+010450FM-15+0088EDVE V0200801N003610096019N0112651N1-00201-00401999999ADDGF108991999999999999999999MA1101391999999REMMET060METAR EDVE 180720Z 08007KT 9999 SCT009 OVC032 M02/M04 Q1014;
0113103480999992013011807504+52300+010450FM-15+0088EDVE V0200801N003610093019N0112651N1-00201-00401999999ADDGF107991999999999999999999MA1101391999999REMMET060METAR EDVE 180750Z 08007KT 9999 FEW009 BKN031 M02/M04 Q1014;
0121103480999992013011808204+52300+010450FM-15+0088EDVE V0200801N004610084019N0112651N1-00201-00501999999ADDGF107991999999999999999999MA1101391999999REMMET068METAR EDVE 180820Z 08009KT 050V110 9999 FEW015 BKN028 M02/M05 Q1014;
0114103480999992013011808504+52300+010450FM-15+0088EDVE V0200701N004110060019N0112651N1-00201-00501999999ADDGF107991999999999999999999MA1101391999999REMMET061METAR EDVE 180850Z 07008KT 020V100 9999 BKN020 M02/M05 Q1014;
0106103480999992013011809204+52300+010450FM-15+0088EDVE V0200901N005110051019N0112651N1-00201-00501999999ADDGF107991999999999999999999MA1101391999999REMMET053METAR EDVE 180920Z 09010KT 9999 BKN017 M02/M05 Q1014;
0113103480999992013011809504+52300+010450FM-15+0088EDVE V0201001N004610069019N0112651N1-00201-00601999999ADDGF107991999999999999999999MA1101391999999REMMET060METAR EDVE 180950Z 10009KT 9999 SCT016 BKN023 M02/M06 Q1014;
0113103480999992013011810204+52300+010450FM-15+0088EDVE V0200901N004610060019N0112651N1-00201-00601999999ADDGF108991999999999999999999MA1101291999999REMMET060METAR EDVE 181020Z 09009KT 9999 BKN020 OVC025 M02/M06 Q1013;
0106103480999992013011810504+52300+010450FM-15+0088EDVE V0201001N005710066019N0112651N1-00201-00601999999ADDGF107991999999999999999999MA1101291999999REMMET053METAR EDVE 181050Z 10011KT 9999 BKN022 M02/M06 Q1013;
0106103480999992013011811204+52300+010450FM-15+0088EDVE V0201001N005110066019N0112651N1-00301-00601999999ADDGF107991999999999999999999MA1101291999999REMMET053METAR EDVE 181120Z 10010KT 9999 BKN022 M03/M06 Q1013;
0106103480999992013011811504+52300+010450FM-15+0088EDVE V0201001N004110072019N0112651N1-00301-00701999999ADDGF107991999999999999999999MA1101291999999REMMET053METAR EDVE 181150Z 10008KT 9999 BKN024 M03/M07 Q1013;
0106103480999992013011812204+52300+010450FM-15+0088EDVE V0200901N005110060019N0112651N1-00301-00701999999ADDGF107991999999999999999999MA1101191999999REMMET053METAR EDVE 181220Z 09010KT 9999 BKN020 M03/M07 Q1012;
0106103480999992013011812504+52300+010450FM-15+0088EDVE V0200901N004610057019N0112651N1-00301-00701999999ADDGF107991999999999999999999MA1101191999999REMMET053METAR EDVE 181250Z 09009KT 9999 BKN019 M03/M07 Q1012;
0106103480999992013011813204+52300+010450FM-15+0088EDVE V0201101N005110054019N0112651N1-00301-00701999999ADDGF108991999999999999999999MA1101081999999REMMET053METAR EDVE 181320Z 11010KT 9999 OVC018 M03/M07 Q1011;
0106103480999992013011813504+52300+010450FM-15+0088EDVE V0201001N004610051019N0112651N1-00301-00701999999ADDGF108991999999999999999999MA1101081999999REMMET053METAR EDVE 181350Z 10009KT 9999 OVC017 M03/M07 Q1011;
0113103480999992013011814504+52300+010450FM-15+0088EDVE V0201101N004610051019N0112651N1-00301-00601999999ADDGF108991999999999999999999MA1101081999999REMMET060METAR EDVE 181450Z 11009KT 9999 SCT014 OVC017 M03/M06 Q1011;
0106103480999992013011815204+52300+010450FM-15+0088EDVE V0201101N005110045019N0112651N1-00301-00601999999ADDGF108991999999999999999999MA1101081999999REMMET053METAR EDVE 181520Z 11010KT 9999 OVC015 M03/M06 Q1011;
0106103480999992013011815504+52300+010450FM-15+0088EDVE V0201101N005110045019N0112651N1-00401-00601999999ADDGF108991999999999999999999MA1101081999999REMMET053METAR EDVE 181550Z 11010KT 9999 OVC015 M04/M06 Q1011;
0106103480999992013011816204+52300+010450FM-15+0088EDVE V0200901N003610045019N0112651N1-00401-00601999999ADDGF108991999999999999999999MA1101021999999REMMET053METAR EDVE 181620Z 09007KT 9999 OVC015 M04/M06 Q1010;
0113103480999992013011816504+52300+010450FM-15+0088EDVE V0200901N004610048019N0112651N1-00401-00601999999ADDGF108991999999999999999999MA1101021999999REMMET060METAR EDVE 181650Z 09009KT 9999 FEW014 OVC016 M04/M06 Q1010;
0113103480999992013011817504+52300+010450FM-15+0088EDVE V0201001N004610045019N0112651N1-00401-00601999999ADDGF108991999999999999999999MA1101021999999REMMET060METAR EDVE 181750Z 10009KT 9999 SCT013 OVC015 M04/M06 Q1010;
0120103480999992013011818204+52300+010450FM-15+0088EDVE V0200901N004610054019N0112651N1-00401-00701999999ADDGF108991999999999999999999MA1101021999999REMMET067METAR EDVE 181820Z 09009KT 9999 FEW015 BKN018 OVC028 M04/M07 Q1010;
0113103480999992013011818504+52300+010450FM-15+0088EDVE V0200901N003610069019N0112651N1-00401-00701999999ADDGF108991999999999999999999MA1101021999999REMMET060METAR EDVE 181850Z 09007KT 9999 SCT017 OVC023 M04/M07 Q1010;
