0121104160999992008010104204+51517+007617FM-15+0148EDLW V0201101N000519999999N0001001N1-00201-00201999999ADDED199U02259MA1102711999999MW1481REMMET077METAR EDLW 010420Z 11001KT 0100 R24/0225N FZFG V/// M02/M02 Q1027 RMK ATIS A;
0121104160999992008010104504+51517+007617FM-15+0148EDLW V0201401N001019999999N0001001N1-00201-00201999999ADDED199U02259MA1102711999999MW1481REMMET077METAR EDLW 010450Z 14002KT 0100 R24/0225N FZFG V/// M02/M02 Q1027 RMK ATIS B;
0115104160999992008010105204+51517+007617FM-15+0148EDLW V0201101N001512200019N0002001N1-00201-00201999999ADDMA1102611999999MW1481REMMET082METAR EDLW 010520Z 11003KT 0200 R06/0350V0500N FZFG V/// M02/M02 Q1026 RMK ATIS C;
0115104160999992008010105504+51517+007617FM-15+0148EDLW V0201501N003112200019N0005001N1-00201-00201999999ADDMA1102611999999MW1481REMMET082METAR EDLW 010550Z 15006KT 0500 R06/0800V1400U FZFG V/// M02/M02 Q1026 RMK ATIS D;
0137104160999992008010106204+51517+007617FM-15+0148EDLW V0201801N003110066019N0015001N1-00201-00201999999ADDGA1071+006601999GF107991999999999999999999MA1102611999999MW1101REMMET062METAR EDLW 010620Z 18006KT 1500 BR BKN022 M02/M02 Q1026 RMK E;
0165104160999992008010106504+51517+007617FM-15+0148EDLW V0201601N002112200019N0020001N1-00201-00201999999ADDGA1021+005101999GA2041+006601999GF104991999999999999999999MA1102611999999MW1101REMMET074METAR EDLW 010650Z 16004KT 2000 BR FEW017 SCT022 M02/M02 Q1026 RMK ATIS F;
0165104160999992008010107204+51517+007617FM-15+0148EDLW V0201501N001512200019N0020001N1-00201-00201999999ADDGA1021+005101999GA2041+006601999GF104991999999999999999999MA1102611999999MW1101REMMET074METAR EDLW 010720Z 15003KT 2000 BR FEW017 SCT022 M02/M02 Q1026 RMK ATIS G;
0165104160999992008010107504+51517+007617FM-15+0148EDLW V0201301N001012200019N0025001N1-00201-00201999999ADDGA1021+006601999GA2041+009001999GF104991999999999999999999MA1102611999999MW1101REMMET074METAR EDLW 010750Z 13002KT 2500 BR FEW022 SCT030 M02/M02 Q1026 RMK ATIS H;
0165104160999992008010108204+51517+007617FM-15+0148EDLW V0201101N001512200019N0025001N1-00301-00301999999ADDGA1021+000301999GA2041+009001999GF104991999999999999999999MA1102611999999MW1101REMMET074METAR EDLW 010820Z 11003KT 2500 BR FEW001 SCT030 M03/M03 Q1026 RMK ATIS I;
0165104160999992008010108504+51517+007617FM-15+0148EDLW V0209999V000512200019N0025001N1-00201-00201999999ADDGA1021+000301999GA2041+009001999GF104991999999999999999999MA1102611999999MW1101REMMET074METAR EDLW 010850Z VRB01KT 2500 BR FEW001 SCT030 M02/M02 Q1026 RMK ATIS J;
0165104160999992008010109204+51517+007617FM-15+0148EDLW V0200801N001512200019N0025001N1-00201-00201999999ADDGA1021+000301999GA2041+010501999GF104991999999999999999999MA1102611999999MW1101REMMET074METAR EDLW 010920Z 08003KT 2500 BR FEW001 SCT035 M02/M02 Q1026 RMK ATIS K;
0165104160999992008010109504+51517+007617FM-15+0148EDLW V0200701N001512200019N0025001N1-00101-00101999999ADDGA1021+000301999GA2041+010501999GF104991999999999999999999MA1102611999999MW1101REMMET074METAR EDLW 010950Z 07003KT 2500 BR FEW001 SCT035 M01/M01 Q1026 RMK ATIS L;
0186104160999992008010110204+51517+007617FM-15+0148EDLW V0200501N001012200019N0020001N1-00101-00101999999ADDED199U13009GA1021+000301999GA2041+010501999GF104991999999999999999999MA1102611999999MW1101REMMET084METAR EDLW 011020Z 05002KT 2000 R06/1300N BR FEW001 SCT035 M01/M01 Q1026 RMK ATIS M;
0184104160999992008010110504+51517+007617FM-15+0148EDLW V0200601N000512200019N0018001N1+00001+00001999999ADDED199U11009GA1021+000301999GA2041+010501999GF104991999999999999999999MA1102611999999MW1101REMMET082METAR EDLW 011050Z 06001KT 1800 R06/1100N BR FEW001 SCT035 00/00 Q1026 RMK ATIS N;
0161104160999992008010111204+51517+007617FM-15+0148EDLW V0200401N001512200019N0018001N1+00101+00101999999ADDED199U11009GA1041+010501999GF104991999999999999999999MA1102511999999MW1101REMMET075METAR EDLW 011120Z 04003KT 1800 R06/1100N BR SCT035 01/01 Q1025 RMK ATIS O;
0140104160999992008010111504+51517+007617FM-15+0148EDLW V0200301N001512200019N0025001N1+00101+00101999999ADDGA1021+010501999GF102991999999999999999999MA1102511999999MW1101REMMET065METAR EDLW 011150Z 03003KT 2500 BR FEW035 01/01 Q1025 RMK ATIS P;
0140104160999992008010112204+51517+007617FM-15+0148EDLW V0203501N002612200019N0020001N1+00001+00001999999ADDGA1021+010501999GF102991999999999999999999MA1102511999999MW1101REMMET065METAR EDLW 011220Z 35005KT 2000 BR FEW035 00/00 Q1025 RMK ATIS Q;
0140104160999992008010112504+51517+007617FM-15+0148EDLW V0200401N002112200019N0025001N1+00101+00101999999ADDGA1021+004201999GF102991999999999999999999MA1102511999999MW1101REMMET065METAR EDLW 011250Z 04004KT 2500 BR FEW014 01/01 Q1025 RMK ATIS R;
0140104160999992008010113204+51517+007617FM-15+0148EDLW V0200701N003112200019N0030001N1+00101+00101999999ADDGA1041+011401999GF104991999999999999999999MA1102511999999MW1101REMMET065METAR EDLW 011320Z 07006KT 3000 BR SCT038 01/01 Q1025 RMK ATIS S;
0163104160999992008010113504+51517+007617FM-15+0148EDLW V0200601N002610114019N0035001N1+00201+00201999999ADDGA1021+001501999GA2071+011401999GF107991999999999999999999MA1102511999999MW1101REMMET072METAR EDLW 011350Z 06005KT 3500 BR FEW005 BKN038 02/02 Q1025 RMK ATIS T;
0163104160999992008010114204+51517+007617FM-15+0148EDLW V0200701N003610108019N0030001N1+00101+00101999999ADDGA1041+001501999GA2071+010801999GF107991999999999999999999MA1102511999999MW1101REMMET072METAR EDLW 011420Z 07007KT 3000 BR SCT005 BKN036 01/01 Q1025 RMK ATIS U;
0171104160999992008010114504+51517+007617FM-15+0148EDLW V0200601N003110150019N0030001N1+00001+00001999999ADDGA1041+001201999GA2071+015001999GF107991999999999999999999MA1102511999999MW1101REMMET080METAR EDLW 011450Z 06006KT 040V100 3000 BR SCT004 BKN056 00/00 Q1025 RMK ATIS V;
0140104160999992008010115204+51517+007617FM-15+0148EDLW V0200601N003110009019N0030001N1+00001+00001999999ADDGA1071+000901999GF107991999999999999999999MA1102511999999MW1101REMMET065METAR EDLW 011520Z 06006KT 3000 BR BKN003 00/00 Q1025 RMK ATIS W;
0142104160999992008010115504+51517+007617FM-15+0148EDLW V0200601N003610012019N0025001N1+00001+00001999999ADDGA1071+001201999GF107991999999999999999999MA1102511999999MW1101REMMET067METAR EDLW 011550Z 06007KT 2500 BR BKN004 M00/M00 Q1025 RMK ATIS X;
0142104160999992008010116204+51517+007617FM-15+0148EDLW V0200801N003610015019N0030001N1+00001+00001999999ADDGA1071+001501999GF107991999999999999999999MA1102511999999MW1101REMMET067METAR EDLW 011620Z 08007KT 3000 BR BKN005 M00/M00 Q1025 RMK ATIS Y;
0156104160999992008010116504+51517+007617FM-15+0148EDLW V0200601N002112200019N0060001N1+00001+00001999999ADDGA1041+002101999GA2041+011401999GF104991999999999999999999MA1102511999999REMMET071METAR EDLW 011650Z 06004KT 6000 SCT007 SCT038 M00/M00 Q1025 RMK ATIS Z;
0133104160999992008010117204+51517+007617FM-15+0148EDLW V0200701N002112200019N0080001N1-00101-00101999999ADDGA1041+010801999GF104991999999999999999999MA1102511999999REMMET064METAR EDLW 011720Z 07004KT 8000 SCT036 M01/M01 Q1025 RMK ATIS A;
0133104160999992008010117504+51517+007617FM-15+0148EDLW V0200701N001512200019N0080001N1-00101-00101999999ADDGA1041+011401999GF104991999999999999999999MA1102511999999REMMET064METAR EDLW 011750Z 07003KT 8000 SCT038 M01/M01 Q1025 RMK ATIS B;
0156104160999992008010118204+51517+007617FM-15+0148EDLW V0200901N002110117019N0080001N1-00101-00101999999ADDGA1021+001201999GA2071+011701999GF107991999999999999999999MA1102511999999REMMET071METAR EDLW 011820Z 09004KT 8000 FEW004 BKN039 M01/M01 Q1025 RMK ATIS C;
0165104160999992008010118504+51517+007617FM-15+0148EDLW V0201001N001510111019N0050001N1-00101-00101999999ADDGA1021+001501999GA2071+011101999GF107991999999999999999999MA1102511999999MW1101REMMET074METAR EDLW 011850Z 10003KT 5000 BR FEW005 BKN037 M01/M01 Q1025 RMK ATIS D;
0142104160999992008010119204+51517+007617FM-15+0148EDLW V0200901N002110111019N0040001N1-00101-00101999999ADDGA1071+011101999GF107991999999999999999999MA1102511999999MW1101REMMET067METAR EDLW 011920Z 09004KT 4000 BR BKN037 M01/M01 Q1025 RMK ATIS E;
0167104160999992008010119504+51517+007617FM-15+0148EDLW V0200801N002110111019N0035001N1-00101-00101999999ADDGA1041+002701999GA2071+011101999GF107991999999999999999999MA1102511999999MW1481REMMET076METAR EDLW 011950Z 08004KT 3500 FZBR SCT009 BKN037 M01/M01 Q1025 RMK ATIS F;
0142104160999992008010120204+51517+007617FM-15+0148EDLW V0200701N002110111019N0035001N1-00101-00101999999ADDGA1071+011101999GF107991999999999999999999MA1102401999999MW1101REMMET067METAR EDLW 012020Z 07004KT 3500 BR BKN037 M01/M01 Q1024 RMK ATIS G;
0139104160999992008010120504+51517+007617FM-15+0148EDLW V0200701N001510024019N0035001N1-00201-00201999999ADDGA1071+002401999GF107991999999999999999999MA1102401999999MW1101REMMET064METAR EDLW 012050Z 07003KT 040V100 3500 BR BKN008 M02/M02 Q1024;
0085104160999992008010204204+51517+007617FM-15+0148EDLW V0200901N00211220001CN0099001N1-00101-00201999999ADDMA1102301999999REMMET058METAR EDLW 020420Z 09004KT CAVOK M01/M02 Q1023 RMK ATIS A;
0093104160999992008010204504+51517+007617FM-15+0148EDLW V0200801N00211220001CN0099001N1-00201-00301999999ADDMA1102301999999REMMET066METAR EDLW 020450Z 08004KT 050V110 CAVOK M02/M03 Q1023 RMK ATIS B;
0085104160999992008010205204+51517+007617FM-15+0148EDLW V0200801N00361220001CN0099001N1-00301-00301999999ADDMA1102301999999REMMET058METAR EDLW 020520Z 08007KT CAVOK M03/M03 Q1023 RMK ATIS C;
0133104160999992008010205504+51517+007617FM-15+0148EDLW V0200801N003110120019N0112651N1-00201-00301999999ADDGA1071+012001999GF107991999999999999999999MA1102301999999REMMET064METAR EDLW 020550Z 08006KT 9999 BKN040 M02/M03 Q1023 RMK ATIS D;
0133104160999992008010206204+51517+007617FM-15+0148EDLW V0200901N002610120019N0112651N1-00201-00301999999ADDGA1071+012001999GF107991999999999999999999MA1102301999999REMMET064METAR EDLW 020620Z 09005KT 9999 BKN040 M02/M03 Q1023 RMK ATIS E;
0133104160999992008010206504+51517+007617FM-15+0148EDLW V0200601N002612200019N0112651N1-00301-00401999999ADDGA1041+012001999GF104991999999999999999999MA1102301999999REMMET064METAR EDLW 020650Z 06005KT 9999 SCT040 M03/M04 Q1023 RMK ATIS F;
0133104160999992008010207204+51517+007617FM-15+0148EDLW V0200701N003112200019N0080001N1-00401-00501999999ADDGF100991999999999999999999MA1102301999999REMMET061METAR EDLW 020720Z 07006KT 8000 NSC M04/M05 Q1023 RMK ATIS G;EQDQ01    003SCCGA1
0133104160999992008010207504+51517+007617FM-15+0148EDLW V0200801N002612200019N0080001N1-00301-00401999999ADDGF100991999999999999999999MA1102301999999REMMET061METAR EDLW 020750Z 08005KT 8000 NSC M03/M04 Q1023 RMK ATIS H;EQDQ01    003SCCGA1
0085104160999992008010208204+51517+007617FM-15+0148EDLW V0200801N00261220001CN0099001N1-00201-00301999999ADDMA1102301999999REMMET058METAR EDLW 020820Z 08005KT CAVOK M02/M03 Q1023 RMK ATIS I;
0085104160999992008010208504+51517+007617FM-15+0148EDLW V0201101N00211220001CN0099001N1-00201-00301999999ADDMA1102301999999REMMET058METAR EDLW 020850Z 11004KT CAVOK M02/M03 Q1023 RMK ATIS J;
0085104160999992008010209204+51517+007617FM-15+0148EDLW V0200701N00211220001CN0099001N1-00201-00301999999ADDMA1102301999999REMMET058METAR EDLW 020920Z 07004KT CAVOK M02/M03 Q1023 RMK ATIS K;
0093104160999992008010209504+51517+007617FM-15+0148EDLW V0201001N00211220001CN0099001N1+00001-00201999999ADDMA1102301999999REMMET066METAR EDLW 020950Z 10004KT 040V140 CAVOK M00/M02 Q1023 RMK ATIS L;
0085104160999992008010210204+51517+007617FM-15+0148EDLW V0200401N00211220001CN0099001N1+00001-00201999999ADDMA1102201999999REMMET058METAR EDLW 021020Z 04004KT CAVOK M00/M02 Q1022 RMK ATIS M;
0085104160999992008010210504+51517+007617FM-15+0148EDLW V0200401N00261220001CN0099001N1+00001-00201999999ADDMA1102201999999REMMET058METAR EDLW 021050Z 04005KT CAVOK M00/M02 Q1022 RMK ATIS N;
0085104160999992008010211204+51517+007617FM-15+0148EDLW V0200601N00311220001CN0099001N1+00001-00201999999ADDMA1102101999999REMMET058METAR EDLW 021120Z 06006KT CAVOK M00/M02 Q1021 RMK ATIS O;
0084104160999992008010211504+51517+007617FM-15+0148EDLW V0200601N00361220001CN0099001N1+00001-00201999999ADDMA1102101999999REMMET057METAR EDLW 021150Z 06007KT CAVOK 00/M02 Q1021 RMK ATIS P;
0084104160999992008010212204+51517+007617FM-15+0148EDLW V0200601N00361220001CN0099001N1+00001-00201999999ADDMA1102001999999REMMET057METAR EDLW 021220Z 06007KT CAVOK 00/M02 Q1020 RMK ATIS Q;
0084104160999992008010212504+51517+007617FM-15+0148EDLW V0200701N00361220001CN0099001N1+00101-00301999999ADDMA1102001999999REMMET057METAR EDLW 021250Z 07007KT CAVOK 01/M03 Q1020 RMK ATIS R;
0156104160999992008010213204+51517+007617FM-15+0148EDLW V0200701N004612200019N0112651N1+00001-00301999999ADDGA1021+009901999GA2041+012001999GF104991999999999999999999MA1102001999999REMMET071METAR EDLW 021320Z 07009KT 9999 FEW033 SCT040 M00/M03 Q1020 RMK ATIS S;
0156104160999992008010213504+51517+007617FM-15+0148EDLW V0200601N005112200019N0112651N1+00001-00301999999ADDGA1021+009901999GA2041+012001999GF104991999999999999999999MA1101901999999REMMET071METAR EDLW 021350Z 06010KT 9999 FEW033 SCT040 M00/M03 Q1019 RMK ATIS T;
0156104160999992008010214204+51517+007617FM-15+0148EDLW V0200801N006210114019N0112651N1+00001-00301999999ADDGA1021+009901999GA2071+011401999GF107991999999999999999999MA1101901999999REMMET071METAR EDLW 021420Z 08012KT 9999 FEW033 BKN038 M00/M03 Q1019 RMK ATIS U;
0122104160999992008010214504+51517+007617FM-15+0148EDLW V0200801N005710114019N0112651N1+00001-00301999999ADDGA1071+011401999GF107991999999999999999999MA1101901999999REMMET053METAR EDLW 021450Z 08011KT 9999 BKN038 M00/M03 Q1019;
0133104160999992008010215204+51517+007617FM-15+0148EDLW V0200801N006210114019N0112651N1-00101-00301999999ADDGA1071+011401999GF107991999999999999999999MA1101901999999REMMET064METAR EDLW 021520Z 08012KT 9999 BKN038 M01/M03 Q1019 RMK ATIS W;
0122104160999992008010215504+51517+007617FM-15+0148EDLW V0200801N006210114019N0112651N1-00101-00301999999ADDGA1071+011401999GF107991999999999999999999MA1101801999999REMMET053METAR EDLW 021550Z 08012KT 9999 BKN038 M01/M03 Q1018;
0133104160999992008010216204+51517+007617FM-15+0148EDLW V0200801N005110114019N0112651N1-00101-00301999999ADDGA1071+011401999GF107991999999999999999999MA1101801999999REMMET064METAR EDLW 021620Z 08010KT 9999 BKN038 M01/M03 Q1018 RMK ATIS Y;
0133104160999992008010216504+51517+007617FM-15+0148EDLW V0200801N005110108019N0112651N1-00101-00401999999ADDGA1071+010801999GF107991999999999999999999MA1101801999999REMMET064METAR EDLW 021650Z 08010KT 9999 BKN036 M01/M04 Q1018 RMK ATIS Z;
0133104160999992008010217204+51517+007617FM-15+0148EDLW V0200701N005712200019N0112651N1-00201-00401999999ADDGA1041+010801999GF104991999999999999999999MA1101801999999REMMET064METAR EDLW 021720Z 07011KT 9999 SCT036 M02/M04 Q1018 RMK ATIS A;
0133104160999992008010217504+51517+007617FM-15+0148EDLW V0200701N005712200019N0112651N1-00201-00401999999ADDGA1041+010801999GF104991999999999999999999MA1101691999999REMMET064METAR EDLW 021750Z 07011KT 9999 SCT036 M02/M04 Q1017 RMK ATIS B;
0133104160999992008010218204+51517+007617FM-15+0148EDLW V0200701N005712200019N0112651N1-00201-00401999999ADDGA1041+010801999GF104991999999999999999999MA1101691999999REMMET064METAR EDLW 021820Z 07011KT 9999 SCT036 M02/M04 Q1017 RMK ATIS C;
0133104160999992008010218504+51517+007617FM-15+0148EDLW V0200701N005712200019N0112651N1-00201-00401999999ADDGA1041+009601999GF104991999999999999999999MA1101691999999REMMET064METAR EDLW 021850Z 07011KT 9999 SCT032 M02/M04 Q1017 RMK ATIS D;
0133104160999992008010219204+51517+007617FM-15+0148EDLW V0200801N005112200019N0112651N1-00201-00501999999ADDGA1041+009601999GF104991999999999999999999MA1101591999999REMMET064METAR EDLW 021920Z 08010KT 9999 SCT032 M02/M05 Q1016 RMK ATIS E;
0133104160999992008010219504+51517+007617FM-15+0148EDLW V0200801N006212200019N0112651N1-00201-00601999999ADDGA1041+009601999GF104991999999999999999999MA1101591999999REMMET064METAR EDLW 021950Z 08012KT 9999 SCT032 M02/M06 Q1016 RMK ATIS F;
0133104160999992008010220204+51517+007617FM-15+0148EDLW V0200901N005712200019N0112651N1-00201-00601999999ADDGA1041+009601999GF104991999999999999999999MA1101591999999REMMET064METAR EDLW 022020Z 09011KT 9999 SCT032 M02/M06 Q1016 RMK ATIS G;
0122104160999992008010220504+51517+007617FM-15+0148EDLW V0201001N005110096019N0112651N1-00101-00601999999ADDGA1071+009601999GF107991999999999999999999MA1101491999999REMMET053METAR EDLW 022050Z 10010KT 9999 BKN032 M01/M06 Q1015;
0133104160999992008010304204+51517+007617FM-15+0148EDLW V0200901N005110099019N0112651N1-00101-00701999999ADDGA1071+009901999GF107991999999999999999999MA1101021999999REMMET064METAR EDLW 030420Z 09010KT 9999 BKN033 M01/M07 Q1010 RMK ATIS A;
0133104160999992008010304504+51517+007617FM-15+0148EDLW V0201001N005710099019N0112651N1-00101-00701999999ADDGA1071+009901999GF107991999999999999999999MA1101021999999REMMET064METAR EDLW 030450Z 10011KT 9999 BKN033 M01/M07 Q1010 RMK ATIS B;
0133104160999992008010305204+51517+007617FM-15+0148EDLW V0200901N007210099019N0112651N1-00101-00701999999ADDGA1071+009901999GF107991999999999999999999MA1100911999999REMMET064METAR EDLW 030520Z 09014KT 9999 BKN033 M01/M07 Q1009 RMK ATIS C;
0133104160999992008010305504+51517+007617FM-15+0148EDLW V0201001N005710099019N0112651N1-00101-00701999999ADDGA1071+009901999GF107991999999999999999999MA1100911999999REMMET064METAR EDLW 030550Z 10011KT 9999 BKN033 M01/M07 Q1009 RMK ATIS D;
0156104160999992008010306204+51517+007617FM-15+0148EDLW V0200901N005112200019N0112651N1-00201-00701999999ADDGA1041+009901999GA2041+018001999GF104991999999999999999999MA1100911999999REMMET071METAR EDLW 030620Z 09010KT 9999 SCT033 SCT061 M02/M07 Q1009 RMK ATIS E;
0085104160999992008010306504+51517+007617FM-15+0148EDLW V0200901N00511220001CN0099001N1-00101-00701999999ADDMA1100911999999REMMET058METAR EDLW 030650Z 09010KT CAVOK M01/M07 Q1009 RMK ATIS F;
0085104160999992008010307204+51517+007617FM-15+0148EDLW V0200901N00511220001CN0099001N1-00101-00601999999ADDMA1100811999999REMMET058METAR EDLW 030720Z 09010KT CAVOK M01/M06 Q1008 RMK ATIS G;
0085104160999992008010307504+51517+007617FM-15+0148EDLW V0200901N00571220001CN0099001N1-00101-00701999999ADDMA1100811999999REMMET058METAR EDLW 030750Z 09011KT CAVOK M01/M07 Q1008 RMK ATIS H;
0085104160999992008010308204+51517+007617FM-15+0148EDLW V0200901N00511220001CN0099001N1-00101-00701999999ADDMA1100811999999REMMET058METAR EDLW 030820Z 09010KT CAVOK M01/M07 Q1008 RMK ATIS I;
0093104160999992008010308504+51517+007617FM-15+0148EDLW V0201001N00411220001CN0099001N1+00001-00601999999ADDMA1100811999999REMMET066METAR EDLW 030850Z 10008KT 060V130 CAVOK M00/M06 Q1008 RMK ATIS J;
0085104160999992008010309204+51517+007617FM-15+0148EDLW V0201001N00511220001CN0099001N1+00001-00701999999ADDMA1100811999999REMMET058METAR EDLW 030920Z 10010KT CAVOK M00/M07 Q1008 RMK ATIS K;
0092104160999992008010309504+51517+007617FM-15+0148EDLW V0201101N00621220001CN0099001N1+00001-00701999999ADDMA1100811999999REMMET065METAR EDLW 030950Z 11012KT 080V140 CAVOK 00/M07 Q1008 RMK ATIS L;
0085104160999992008010310204+51517+007617FM-15+0148EDLW V0201001N00461220001CN0099001N1+00001-00701999999ADDMA1100811999999REMMET058METAR EDLW 031020Z 10009KT CAVOK M00/M07 Q1008 RMK ATIS M;
0084104160999992008010310504+51517+007617FM-15+0148EDLW V0201001N00571220001CN0099001N1+00001-00701999999ADDMA1100711999999REMMET057METAR EDLW 031050Z 10011KT CAVOK 00/M07 Q1007 RMK ATIS N;
0092104160999992008010311204+51517+007617FM-15+0148EDLW V0200901N00461220001CN0099001N1+00101-00601999999ADDMA1100711999999REMMET065METAR EDLW 031120Z 09009KT 070V130 CAVOK 01/M06 Q1007 RMK ATIS O;
0092104160999992008010311504+51517+007617FM-15+0148EDLW V0201001N00461220001CN0099001N1+00101-00601999999ADDMA1100711999999REMMET065METAR EDLW 031150Z 10009KT 060V150 CAVOK 01/M06 Q1007 RMK ATIS P;
0084104160999992008010312204+51517+007617FM-15+0148EDLW V0200901N00411220001CN0099001N1+00101-00601999999ADDMA1100711999999REMMET057METAR EDLW 031220Z 09008KT CAVOK 01/M06 Q1007 RMK ATIS Q;
0084104160999992008010312504+51517+007617FM-15+0148EDLW V0200901N00411220001CN0099001N1+00101-00601999999ADDMA1100611999999REMMET057METAR EDLW 031250Z 09008KT CAVOK 01/M06 Q1006 RMK ATIS R;
0084104160999992008010313204+51517+007617FM-15+0148EDLW V0201001N00511220001CN0099001N1+00101-00601999999ADDMA1100611999999REMMET057METAR EDLW 031320Z 10010KT CAVOK 01/M06 Q1006 RMK ATIS S;
0084104160999992008010313504+51517+007617FM-15+0148EDLW V0201001N00511220001CN0099001N1+00101-00601999999ADDMA1100611999999REMMET057METAR EDLW 031350Z 10010KT CAVOK 01/M06 Q1006 RMK ATIS T;
0084104160999992008010314204+51517+007617FM-15+0148EDLW V0200901N00461220001CN0099001N1+00101-00601999999ADDMA1100711999999REMMET057METAR EDLW 031420Z 09009KT CAVOK 01/M06 Q1007 RMK ATIS U;
0084104160999992008010314504+51517+007617FM-15+0148EDLW V0200701N00361220001CN0099001N1+00001-00501999999ADDMA1100711999999REMMET057METAR EDLW 031450Z 07007KT CAVOK 00/M05 Q1007 RMK ATIS V;
0085104160999992008010315204+51517+007617FM-15+0148EDLW V0200701N00361220001CN0099001N1+00001-00501999999ADDMA1100711999999REMMET058METAR EDLW 031520Z 07007KT CAVOK M00/M05 Q1007 RMK ATIS W;
0133104160999992008010315504+51517+007617FM-15+0148EDLW V0200801N004612200019N0112651N1+00001-00501999999ADDGA1021+014101999GF102991999999999999999999MA1100711999999REMMET064METAR EDLW 031550Z 08009KT 9999 FEW047 M00/M05 Q1007 RMK ATIS X;
0133104160999992008010316204+51517+007617FM-15+0148EDLW V0200701N004112200019N0112651N1+00001-00501999999ADDGA1021+011101999GF102991999999999999999999MA1100711999999REMMET064METAR EDLW 031620Z 07008KT 9999 FEW037 M00/M05 Q1007 RMK ATIS Y;
0165104160999992008010316504+51517+007617FM-15+0148EDLW V0200701N004112200019N0112651N1+00001-00401999999ADDGA1021+006301999GA2041+010501999GF104991999999999999999999MA1100711999999MW1771REMMET074METAR EDLW 031650Z 07008KT 9999 -SG FEW021 SCT035 00/M04 Q1007 RMK ATIS Z;
0156104160999992008010317204+51517+007617FM-15+0148EDLW V0200701N003612200019N0112651N1+00001-00401999999ADDGA1021+006301999GA2041+010501999GF104991999999999999999999MA1100711999999REMMET071METAR EDLW 031720Z 07007KT 9999 FEW021 SCT035 M00/M04 Q1007 RMK ATIS A;
0155104160999992008010317504+51517+007617FM-15+0148EDLW V0200701N004110117019N0112651N1+00001-00401999999ADDGA1021+006301999GA2071+011701999GF107991999999999999999999MA1100711999999REMMET070METAR EDLW 031750Z 07008KT 9999 FEW021 BKN039 00/M04 Q1007 RMK ATIS B;
0156104160999992008010318204+51517+007617FM-15+0148EDLW V0200701N004110117019N0112651N1+00001-00401999999ADDGA1021+006301999GA2071+011701999GF107991999999999999999999MA1100711999999REMMET071METAR EDLW 031820Z 07008KT 9999 FEW021 BKN039 M00/M04 Q1007 RMK ATIS C;
0156104160999992008010318504+51517+007617FM-15+0148EDLW V0200701N002610150019N0112651N1+00001-00401999999ADDGA1021+010501999GA2071+015001999GF107991999999999999999999MA1100811999999REMMET071METAR EDLW 031850Z 07005KT 9999 FEW035 BKN050 M00/M04 Q1008 RMK ATIS D;
0155104160999992008010319204+51517+007617FM-15+0148EDLW V0200601N003610150019N0112651N1+00001-00401999999ADDGA1021+010501999GA2071+015001999GF107991999999999999999999MA1100811999999REMMET070METAR EDLW 031920Z 06007KT 9999 FEW035 BKN050 00/M04 Q1008 RMK ATIS E;
0155104160999992008010319504+51517+007617FM-15+0148EDLW V0200701N004110144019N0112651N1+00001-00401999999ADDGA1021+003301999GA2071+014401999GF107991999999999999999999MA1100811999999REMMET070METAR EDLW 031950Z 07008KT 9999 FEW011 BKN048 00/M04 Q1008 RMK ATIS F;
0155104160999992008010320204+51517+007617FM-15+0148EDLW V0200601N003610144019N0112651N1+00001-00401999999ADDGA1021+003301999GA2071+014401999GF107991999999999999999999MA1100811999999REMMET070METAR EDLW 032020Z 06007KT 9999 FEW011 BKN048 00/M04 Q1008 RMK ATIS G;
0144104160999992008010320504+51517+007617FM-15+0148EDLW V0200801N004610144019N0112651N1+00001-00401999999ADDGA1021+003901999GA2071+014401999GF107991999999999999999999MA1100811999999REMMET059METAR EDLW 032050Z 08009KT 9999 FEW013 BKN048 00/M04 Q1008;
0093104160999992008010404204+51517+007617FM-15+0148EDLW V0200401N00151220001CN0099001N1+00001-00301999999ADDMA1100911999999REMMET066METAR EDLW 040420Z 04003KT 360V070 CAVOK M00/M03 Q1009 RMK ATIS A;
0085104160999992008010404504+51517+007617FM-15+0148EDLW V0201401N00101220001CN0099001N1+00001-00301999999ADDMA1101021999999REMMET058METAR EDLW 040450Z 14002KT CAVOK M00/M03 Q1010 RMK ATIS B;
0085104160999992008010405204+51517+007617FM-15+0148EDLW V0200601N00211220001CN0099001N1-00101-00401999999ADDMA1101021999999REMMET058METAR EDLW 040520Z 06004KT CAVOK M01/M04 Q1010 RMK ATIS C;
0085104160999992008010405504+51517+007617FM-15+0148EDLW V0200801N00151220001CN0099001N1+00001-00401999999ADDMA1101021999999REMMET058METAR EDLW 040550Z 08003KT CAVOK M00/M04 Q1010 RMK ATIS D;
0084104160999992008010406204+51517+007617FM-15+0148EDLW V0201001N00211220001CN0099001N1+00001-00301999999ADDMA1101021999999REMMET057METAR EDLW 040620Z 10004KT CAVOK 00/M03 Q1010 RMK ATIS E;
0085104160999992008010406504+51517+007617FM-15+0148EDLW V0200901N00261220001CN0099001N1+00001-00401999999ADDMA1101021999999REMMET058METAR EDLW 040650Z 09005KT CAVOK M00/M04 Q1010 RMK ATIS F;
0085104160999992008010407204+51517+007617FM-15+0148EDLW V0200801N00261220001CN0099001N1+00001-00301999999ADDMA1101021999999REMMET058METAR EDLW 040720Z 08005KT CAVOK M00/M03 Q1010 RMK ATIS G;
0084104160999992008010407504+51517+007617FM-15+0148EDLW V0200801N00261220001CN0099001N1+00001-00401999999ADDMA1101021999999REMMET057METAR EDLW 040750Z 08005KT CAVOK 00/M04 Q1010 RMK ATIS H;
0084104160999992008010408204+51517+007617FM-15+0148EDLW V0201201N00211220001CN0099001N1+00101-00501999999ADDMA1101021999999REMMET057METAR EDLW 040820Z 12004KT CAVOK 01/M05 Q1010 RMK ATIS I;
0084104160999992008010408504+51517+007617FM-15+0148EDLW V0200701N00151220001CN0099001N1+00101-00301999999ADDMA1101021999999REMMET057METAR EDLW 040850Z 07003KT CAVOK 01/M03 Q1010 RMK ATIS J;
0084104160999992008010409204+51517+007617FM-15+0148EDLW V0200301N00151220001CN0099001N1+00101-00201999999ADDMA1101021999999REMMET057METAR EDLW 040920Z 03003KT CAVOK 01/M02 Q1010 RMK ATIS K;
0084104160999992008010409504+51517+007617FM-15+0148EDLW V0203601N00101220001CN0099001N1+00201-00201999999ADDMA1101081999999REMMET057METAR EDLW 040950Z 36002KT CAVOK 02/M02 Q1011 RMK ATIS L;
0084104160999992008010410204+51517+007617FM-15+0148EDLW V0200301N00101220001CN0099001N1+00301-00201999999ADDMA1101081999999REMMET057METAR EDLW 041020Z 03002KT CAVOK 03/M02 Q1011 RMK ATIS M;
0084104160999992008010410504+51517+007617FM-15+0148EDLW V0201401N00151220001CN0099001N1+00401-00301999999ADDMA1101081999999REMMET057METAR EDLW 041050Z 14003KT CAVOK 04/M03 Q1011 RMK ATIS N;
0084104160999992008010411204+51517+007617FM-15+0148EDLW V0201501N00151220001CN0099001N1+00501-00301999999ADDMA1101021999999REMMET057METAR EDLW 041120Z 15003KT CAVOK 05/M03 Q1010 RMK ATIS O;
0092104160999992008010411504+51517+007617FM-15+0148EDLW V0201401N00151220001CN0099001N1+00501-00401999999ADDMA1101021999999REMMET065METAR EDLW 041150Z 14003KT 110V170 CAVOK 05/M04 Q1010 RMK ATIS P;
0092104160999992008010412204+51517+007617FM-15+0148EDLW V0201301N00211220001CN0099001N1+00601-00301999999ADDMA1101021999999REMMET065METAR EDLW 041220Z 13004KT 080V170 CAVOK 06/M03 Q1010 RMK ATIS Q;
0092104160999992008010412504+51517+007617FM-15+0148EDLW V0201501N00211220001CN0099001N1+00501-00401999999ADDMA1101021999999REMMET065METAR EDLW 041250Z 15004KT 120V190 CAVOK 05/M04 Q1010 RMK ATIS R;
0084104160999992008010413204+51517+007617FM-15+0148EDLW V0201301N00211220001CN0099001N1+00501-00301999999ADDMA1101021999999REMMET057METAR EDLW 041320Z 13004KT CAVOK 05/M03 Q1010 RMK ATIS S;
0092104160999992008010413504+51517+007617FM-15+0148EDLW V0201501N00261220001CN0099001N1+00501-00401999999ADDMA1101021999999REMMET065METAR EDLW 041350Z 15005KT 110V180 CAVOK 05/M04 Q1010 RMK ATIS T;
0084104160999992008010414204+51517+007617FM-15+0148EDLW V0209999V00101220001CN0099001N1+00401-00301999999ADDMA1101021999999REMMET057METAR EDLW 041420Z VRB02KT CAVOK 04/M03 Q1010 RMK ATIS U;
0084104160999992008010414504+51517+007617FM-15+0148EDLW V0200401N00151220001CN0099001N1+00301-00201999999ADDMA1101021999999REMMET057METAR EDLW 041450Z 04003KT CAVOK 03/M02 Q1010 RMK ATIS V;
0084104160999992008010415204+51517+007617FM-15+0148EDLW V0200801N00051220001CN0099001N1+00201-00201999999ADDMA1101021999999REMMET057METAR EDLW 041520Z 08001KT CAVOK 02/M02 Q1010 RMK ATIS W;
0084104160999992008010415504+51517+007617FM-15+0148EDLW V0201201N00211220001CN0099001N1+00301-00101999999ADDMA1101021999999REMMET057METAR EDLW 041550Z 12004KT CAVOK 03/M01 Q1010 RMK ATIS Y;
0092104160999992008010416204+51517+007617FM-15+0148EDLW V0201501N00461220001CN0099001N1+00401-00401999999ADDMA1101021999999REMMET065METAR EDLW 041620Z 15009KT 120V180 CAVOK 04/M04 Q1010 RMK ATIS Z;
0092104160999992008010416504+51517+007617FM-15+0148EDLW V0201401N00361220001CN0099001N1+00401-00401999999ADDMA1100911999999REMMET065METAR EDLW 041650Z 14007KT 100V200 CAVOK 04/M04 Q1009 RMK ATIS A;
0084104160999992008010417204+51517+007617FM-15+0148EDLW V0201501N00411220001CN0099001N1+00401-00401999999ADDMA1100911999999REMMET057METAR EDLW 041720Z 15008KT CAVOK 04/M04 Q1009 RMK ATIS B;
0084104160999992008010417504+51517+007617FM-15+0148EDLW V0201501N00621220001CN0099001N1+00401-00401999999ADDMA1100911999999REMMET057METAR EDLW 041750Z 15012KT CAVOK 04/M04 Q1009 RMK ATIS C;
0092104160999992008010418204+51517+007617FM-15+0148EDLW V0201901N00211220001CN0099001N1+00401-00401999999ADDMA1100911999999REMMET065METAR EDLW 041820Z 19004KT 140V220 CAVOK 04/M04 Q1009 RMK ATIS D;
0163104160999992008010418504+51517+007617FM-15+0148EDLW V0201301N002610150019N0112651N1+00401-00401999999ADDGA1021+006601999GA2071+015001999GF107991999999999999999999MA1100911999999REMMET078METAR EDLW 041850Z 13005KT 100V160 9999 FEW022 BKN058 04/M04 Q1009 RMK ATIS E;
0163104160999992008010419204+51517+007617FM-15+0148EDLW V0201801N002610150019N0112651N1+00401-00401999999ADDGA1021+006601999GA2071+015001999GF107991999999999999999999MA1100911999999REMMET078METAR EDLW 041920Z 18005KT 140V210 9999 FEW022 BKN058 04/M04 Q1009 RMK ATIS F;
0155104160999992008010419504+51517+007617FM-15+0148EDLW V0201601N003610150019N0112651N1+00401-00301999999ADDGA1021+006601999GA2071+015001999GF107991999999999999999999MA1100911999999REMMET070METAR EDLW 041950Z 16007KT 9999 FEW022 BKN058 04/M03 Q1009 RMK ATIS G;
0155104160999992008010420204+51517+007617FM-15+0148EDLW V0201701N005110150019N0112651N1+00401-00201999999ADDGA1021+006001999GA2071+015001999GF107991999999999999999999MA1100911999999REMMET070METAR EDLW 042020Z 17010KT 9999 FEW020 BKN050 04/M02 Q1009 RMK ATIS I;
0144104160999992008010420504+51517+007617FM-15+0148EDLW V0201601N004610150019N0112651N1+00501-00201999999ADDGA1021+006001999GA2071+015001999GF107991999999999999999999MA1100811999999REMMET059METAR EDLW 042050Z 16009KT 9999 FEW020 BKN050 05/M02 Q1008;
0142104160999992008010504204+51517+007617FM-15+0148EDLW V0201701N008212200019N0112651N1+00601+00201999999ADDGA1021+006901999GF102991999999999999999999MA1100411999999OC101391REMMET065METAR EDLW 050420Z 17016G27KT 9999 FEW023 06/02 Q1004 RMK ATIS A;
0152104160999992008010504504+51517+007617FM-15+0148EDLW V0201801N009812200019N0112651N1+00701+00201999999ADDGF100991999999999999999999MA1100311999999MW1611OC101651REMMET066METAR EDLW 050450Z 18019G32KT 9999 -RA NSC 07/02 Q1003 RMK ATIS B;EQDQ01    003SCCGA1
0175104160999992008010505204+51517+007617FM-15+0148EDLW V0201901N008210129019N0112651N1+00601+00301999999ADDGA1021+007201999GA2071+012901999GF107991999999999999999999MA1100311999999MW1611OC101491REMMET076METAR EDLW 050520Z 19016G29KT 9999 -RA FEW024 BKN043 06/03 Q1003 RMK ATIS C;
0164104160999992008010505504+51517+007617FM-15+0148EDLW V0201901N009310138019N0112651N1+00601+00301999999ADDGA1021+008701999GA2071+013801999GF107991999999999999999999MA1100311999999MW1611REMMET073METAR EDLW 050550Z 19018KT 9999 -RA FEW029 BKN046 06/03 Q1003 RMK ATIS D;
0164104160999992008010506204+51517+007617FM-15+0148EDLW V0201901N008710114019N0112651N1+00601+00301999999ADDGA1021+008701999GA2071+011401999GF107991999999999999999999MA1100311999999MW1611REMMET073METAR EDLW 050620Z 19017KT 9999 -RA FEW029 BKN038 06/03 Q1003 RMK ATIS E;
0140104160999992008010506504+51517+007617FM-15+0148EDLW V0201901N008710114019N0112651N1+00601+00401999999ADDGA1071+011401999GF107991999999999999999999MA1100311999999MW1631REMMET065METAR EDLW 050650Z 19017KT 9999 RA BKN038 06/04 Q1003 RMK ATIS F;
0174104160999992008010507204+51517+007617FM-15+0148EDLW V0201801N010310114019N0112651N1+00601+00401999999ADDGA1021+006601999GA2071+011401999GF107991999999999999999999MA1100201999999MW1631OC101541REMMET075METAR EDLW 050720Z 18020G30KT 9999 RA FEW022 BKN038 06/04 Q1002 RMK ATIS G;
0163104160999992008010507504+51517+007617FM-15+0148EDLW V0201801N008710111019N0112651N1+00601+00301999999ADDGA1021+006001999GA2071+011101999GF107991999999999999999999MA1100201999999MW1631REMMET072METAR EDLW 050750Z 18017KT 9999 RA FEW020 BKN037 06/03 Q1002 RMK ATIS H;
0159104160999992008010508204+51517+007617FM-15+0148EDLW V0201801N008710111019N0112651N1+00601+00301999999ADDGA1021+006001999GA2071+011101999GF107991999999999999999999MA1100201999999REMMET074METAR EDLW 050820Z 18017KT 9999 FEW020 BKN037 06/03 Q1002 RERA RMK ATIS I;
0154104160999992008010508504+51517+007617FM-15+0148EDLW V0201901N008210180019N0112651N1+00601+00301999999ADDGA1021+006601999GA2071+018001999GF107991999999999999999999MA1100201999999REMMET069METAR EDLW 050850Z 19016KT 9999 FEW022 BKN061 06/03 Q1002 RMK ATIS J;
0172104160999992008010509204+51517+007617FM-15+0148EDLW V0201901N008210102019N0112651N1+00601+00401999999ADDGA1021+006901999GA2071+010201999GF107991999999999999999999MA1100311999999MW1611REMMET081METAR EDLW 050920Z 19016KT 150V220 9999 -RA FEW023 BKN034 06/04 Q1003 RMK ATIS K;
0164104160999992008010509504+51517+007617FM-15+0148EDLW V0201901N007210180019N0112651N1+00601+00301999999ADDGA1041+011101999GA2071+018001999GF107991999999999999999999MA1100311999999MW1611REMMET073METAR EDLW 050950Z 19014KT 9999 -RA SCT037 BKN069 06/03 Q1003 RMK ATIS L;
0154104160999992008010510204+51517+007617FM-15+0148EDLW V0201901N007710114019N0112651N1+00601+00401999999ADDGA1041+008701999GA2071+011401999GF107991999999999999999999MA1100311999999REMMET069METAR EDLW 051020Z 19015KT 9999 SCT029 BKN038 06/04 Q1003 RMK ATIS M;
0154104160999992008010510504+51517+007617FM-15+0148EDLW V0201901N006710114019N0112651N1+00601+00401999999ADDGA1041+008701999GA2071+011401999GF107991999999999999999999MA1100311999999REMMET069METAR EDLW 051050Z 19013KT 9999 SCT029 BKN038 06/04 Q1003 RMK ATIS N;
0154104160999992008010511204+51517+007617FM-15+0148EDLW V0201901N007210117019N0112651N1+00601+00401999999ADDGA1041+006601999GA2071+011701999GF107991999999999999999999MA1100311999999REMMET069METAR EDLW 051120Z 19014KT 9999 SCT022 BKN039 06/04 Q1003 RMK ATIS O;
0154104160999992008010511504+51517+007617FM-15+0148EDLW V0201901N006210180019N0112651N1+00601+00401999999ADDGA1021+006901999GA2071+018001999GF107991999999999999999999MA1100311999999REMMET069METAR EDLW 051150Z 19012KT 9999 FEW023 BKN064 06/04 Q1003 RMK ATIS P;
0154104160999992008010512204+51517+007617FM-15+0148EDLW V0202001N005710180019N0112651N1+00701+00401999999ADDGA1021+006901999GA2071+018001999GF107991999999999999999999MA1100201999999REMMET069METAR EDLW 051220Z 20011KT 9999 FEW023 BKN064 07/04 Q1002 RMK ATIS Q;
0154104160999992008010512504+51517+007617FM-15+0148EDLW V0202101N007210087019N0112651N1+00801+00501999999ADDGA1021+005401999GA2071+008701999GF107991999999999999999999MA1100311999999REMMET069METAR EDLW 051250Z 21014KT 9999 FEW018 BKN029 08/05 Q1003 RMK ATIS R;
0162104160999992008010513204+51517+007617FM-15+0148EDLW V0202101N006710180019N0112651N1+00701+00401999999ADDGA1021+006001999GA2071+018001999GF107991999999999999999999MA1100311999999REMMET077METAR EDLW 051320Z 21013KT 180V240 9999 FEW020 BKN067 07/04 Q1003 RMK ATIS S;
0131104160999992008010513504+51517+007617FM-15+0148EDLW V0202001N006210108019N0112651N1+00701+00401999999ADDGA1071+010801999GF107991999999999999999999MA1100311999999REMMET062METAR EDLW 051350Z 20012KT 9999 BKN036 07/04 Q1003 RMK ATIS T;
0131104160999992008010514204+51517+007617FM-15+0148EDLW V0202001N006210099019N0112651N1+00701+00401999999ADDGA1071+009901999GF107991999999999999999999MA1100311999999REMMET062METAR EDLW 051420Z 20012KT 9999 BKN033 07/04 Q1003 RMK ATIS U;
0165104160999992008010514504+51517+007617FM-15+0148EDLW V0202201N006710081019N0080001N1+00601+00401999999ADDGA1041+005701999GA2071+008101999GF107991999999999999999999MA1100311999999MW1811REMMET074METAR EDLW 051450Z 22013KT 8000 SHRA SCT019 BKN027 06/04 Q1003 RMK ATIS V;
0175104160999992008010515204+51517+007617FM-15+0148EDLW V0202201N010310087019N0090001N1+00501+00301999999ADDGA1041+005101999GA2071+008701999GF107991999999999999999999MA1100311999999MW1611OC101591REMMET076METAR EDLW 051520Z 22020G31KT 9000 -RA SCT017 BKN029 05/03 Q1003 RMK ATIS W;
0154104160999992008010515504+51517+007617FM-15+0148EDLW V0202101N006210108019N0112651N1+00501+00301999999ADDGA1041+006301999GA2071+010801999GF107991999999999999999999MA1100311999999REMMET069METAR EDLW 051550Z 21012KT 9999 SCT021 BKN036 05/03 Q1003 RMK ATIS X;
0154104160999992008010516204+51517+007617FM-15+0148EDLW V0202101N006210150019N0112651N1+00501+00301999999ADDGA1041+009901999GA2071+015001999GF107991999999999999999999MA1100411999999REMMET069METAR EDLW 051620Z 21012KT 9999 SCT033 BKN051 05/03 Q1004 RMK ATIS Y;
0083104160999992008010516504+51517+007617FM-15+0148EDLW V0202101N00511220001CN0099001N1+00401+00201999999ADDMA1100411999999REMMET056METAR EDLW 051650Z 21010KT CAVOK 04/02 Q1004 RMK ATIS Z;
0083104160999992008010517204+51517+007617FM-15+0148EDLW V0202101N00571220001CN0099001N1+00401+00301999999ADDMA1100411999999REMMET056METAR EDLW 051720Z 21011KT CAVOK 04/03 Q1004 RMK ATIS A;
0131104160999992008010517504+51517+007617FM-15+0148EDLW V0202001N005112200019N0112651N1+00401+00201999999ADDGA1041+007501999GF104991999999999999999999MA1100411999999REMMET062METAR EDLW 051750Z 20010KT 9999 SCT025 04/02 Q1004 RMK ATIS B;
0131104160999992008010518204+51517+007617FM-15+0148EDLW V0202001N004112200019N0112651N1+00501+00301999999ADDGA1041+009001999GF104991999999999999999999MA1100411999999REMMET062METAR EDLW 051820Z 20008KT 9999 SCT030 05/03 Q1004 RMK ATIS C;
0131104160999992008010518504+51517+007617FM-15+0148EDLW V0201901N004612200019N0112651N1+00501+00301999999ADDGA1041+008101999GF104991999999999999999999MA1100411999999REMMET062METAR EDLW 051850Z 19009KT 9999 SCT027 05/03 Q1004 RMK ATIS D;
0131104160999992008010519204+51517+007617FM-15+0148EDLW V0201901N004612200019N0112651N1+00501+00301999999ADDGA1041+008401999GF104991999999999999999999MA1100411999999REMMET062METAR EDLW 051920Z 19009KT 9999 SCT028 05/03 Q1004 RMK ATIS E;
0083104160999992008010519504+51517+007617FM-15+0148EDLW V0201901N00461220001CN0099001N1+00501+00301999999ADDMA1100411999999REMMET056METAR EDLW 051950Z 19009KT CAVOK 05/03 Q1004 RMK ATIS F;
0083104160999992008010520204+51517+007617FM-15+0148EDLW V0201901N00511220001CN0099001N1+00501+00301999999ADDMA1100311999999REMMET056METAR EDLW 052020Z 19010KT CAVOK 05/03 Q1003 RMK ATIS G;
0072104160999992008010520504+51517+007617FM-15+0148EDLW V0201901N00511220001CN0099001N1+00501+00301999999ADDMA1100311999999REMMET045METAR EDLW 052050Z 19010KT CAVOK 05/03 Q1003;
0154104160999992008010604204+51517+007617FM-15+0148EDLW V0202501N005110081019N0112651N1+00501+00401999999ADDGA1041+003001999GA2071+008101999GF107991999999999999999999MA1100311999999REMMET069METAR EDLW 060420Z 25010KT 9999 SCT010 BKN027 05/04 Q1003 RMK ATIS A;
0154104160999992008010604504+51517+007617FM-15+0148EDLW V0202601N004610051019N0112651N1+00501+00301999999ADDGA1041+003301999GA2071+005101999GF107991999999999999999999MA1100311999999REMMET069METAR EDLW 060450Z 26009KT 9999 SCT011 BKN017 05/03 Q1003 RMK ATIS B;
0162104160999992008010605204+51517+007617FM-15+0148EDLW V0202701N005110069019N0112651N1+00401+00301999999ADDGA1041+003301999GA2071+006901999GF107991999999999999999999MA1100411999999REMMET077METAR EDLW 060520Z 27010KT 240V300 9999 SCT011 BKN023 04/03 Q1004 RMK ATIS C;
0154104160999992008010605504+51517+007617FM-15+0148EDLW V0202501N005710051019N0112651N1+00401+00201999999ADDGA1041+002701999GA2071+005101999GF107991999999999999999999MA1100511999999REMMET069METAR EDLW 060550Z 25011KT 9999 SCT009 BKN017 04/02 Q1005 RMK ATIS D;
0154104160999992008010606204+51517+007617FM-15+0148EDLW V0202501N005110051019N0112651N1+00401+00201999999ADDGA1041+002701999GA2071+005101999GF107991999999999999999999MA1100511999999REMMET069METAR EDLW 060620Z 25010KT 9999 SCT009 BKN017 04/02 Q1005 RMK ATIS E;
0154104160999992008010606504+51517+007617FM-15+0148EDLW V0202701N004110042019N0112651N1+00401+00201999999ADDGA1041+002701999GA2071+004201999GF107991999999999999999999MA1100611999999REMMET069METAR EDLW 060650Z 27008KT 9999 SCT009 BKN014 04/02 Q1006 RMK ATIS F;
0162104160999992008010607204+51517+007617FM-15+0148EDLW V0202601N003110036019N0112651N1+00401+00201999999ADDGA1041+002701999GA2071+003601999GF107991999999999999999999MA1100611999999REMMET077METAR EDLW 060720Z 26006KT 230V290 9999 SCT009 BKN012 04/02 Q1006 RMK ATIS G;
0162104160999992008010607504+51517+007617FM-15+0148EDLW V0202701N003610036019N0070001N1+00401+00301999999ADDGA1041+002701999GA2071+003601999GF107991999999999999999999MA1100711999999REMMET077METAR EDLW 060750Z 27007KT 230V290 7000 SCT009 BKN012 04/03 Q1007 RMK ATIS H;
0162104160999992008010608204+51517+007617FM-15+0148EDLW V0202601N003610036019N0070001N1+00401+00301999999ADDGA1041+002701999GA2071+003601999GF107991999999999999999999MA1100811999999REMMET077METAR EDLW 060820Z 26007KT 230V310 7000 SCT009 BKN012 04/03 Q1008 RMK ATIS I;
0154104160999992008010608504+51517+007617FM-15+0148EDLW V0202501N003110042019N0070001N1+00501+00301999999ADDGA1041+003301999GA2071+004201999GF107991999999999999999999MA1100811999999REMMET069METAR EDLW 060850Z 25006KT 7000 SCT011 BKN014 05/03 Q1008 RMK ATIS J;
0154104160999992008010609204+51517+007617FM-15+0148EDLW V0202501N003610048019N0090001N1+00501+00301999999ADDGA1041+003301999GA2071+004801999GF107991999999999999999999MA1100911999999REMMET069METAR EDLW 060920Z 25007KT 9000 SCT011 BKN016 05/03 Q1009 RMK ATIS K;
0154104160999992008010609504+51517+007617FM-15+0148EDLW V0202501N005710060019N0112651N1+00501+00201999999ADDGA1041+003901999GA2071+006001999GF107991999999999999999999MA1100911999999REMMET069METAR EDLW 060950Z 25011KT 9999 SCT013 BKN020 05/02 Q1009 RMK ATIS L;
0154104160999992008010610204+51517+007617FM-15+0148EDLW V0202501N005710057019N0112651N1+00501+00301999999ADDGA1041+004201999GA2071+005701999GF107991999999999999999999MA1101021999999REMMET069METAR EDLW 061020Z 25011KT 9999 SCT014 BKN019 05/03 Q1010 RMK ATIS M;
0154104160999992008010610504+51517+007617FM-15+0148EDLW V0202501N004610051019N0112651N1+00501+00301999999ADDGA1041+003601999GA2071+005101999GF107991999999999999999999MA1101021999999REMMET069METAR EDLW 061050Z 25009KT 9999 SCT012 BKN017 05/03 Q1010 RMK ATIS N;
0154104160999992008010611204+51517+007617FM-15+0148EDLW V0202501N005710051019N0112651N1+00501+00301999999ADDGA1041+003601999GA2071+005101999GF107991999999999999999999MA1101081999999REMMET069METAR EDLW 061120Z 25011KT 9999 SCT012 BKN017 05/03 Q1011 RMK ATIS O;
0154104160999992008010611504+51517+007617FM-15+0148EDLW V0202501N006210051019N0112651N1+00601+00301999999ADDGA1041+003601999GA2071+005101999GF107991999999999999999999MA1101081999999REMMET069METAR EDLW 061150Z 25012KT 9999 SCT012 BKN017 06/03 Q1011 RMK ATIS P;
0154104160999992008010612204+51517+007617FM-15+0148EDLW V0202401N007210051019N0112651N1+00501+00201999999ADDGA1041+003601999GA2071+005101999GF107991999999999999999999MA1101081999999REMMET069METAR EDLW 061220Z 24014KT 9999 SCT012 BKN017 05/02 Q1011 RMK ATIS Q;
0131104160999992008010612504+51517+007617FM-15+0148EDLW V0202401N007212200019N0112651N1+00601+00201999999ADDGA1041+005101999GF104991999999999999999999MA1101191999999REMMET062METAR EDLW 061250Z 24014KT 9999 SCT017 06/02 Q1012 RMK ATIS R;
0131104160999992008010613204+51517+007617FM-15+0148EDLW V0202401N006212200019N0112651N1+00501+00201999999ADDGA1041+005401999GF104991999999999999999999MA1101191999999REMMET062METAR EDLW 061320Z 24012KT 9999 SCT018 05/02 Q1012 RMK ATIS S;
0131104160999992008010613504+51517+007617FM-15+0148EDLW V0202401N006212200019N0112651N1+00601+00201999999ADDGA1041+006901999GF104991999999999999999999MA1101291999999REMMET062METAR EDLW 061350Z 24012KT 9999 SCT023 06/02 Q1013 RMK ATIS T;
0131104160999992008010614204+51517+007617FM-15+0148EDLW V0202401N007212200019N0112651N1+00501+00101999999ADDGA1041+006001999GF104991999999999999999999MA1101291999999REMMET062METAR EDLW 061420Z 24014KT 9999 SCT020 05/01 Q1013 RMK ATIS U;
0131104160999992008010614504+51517+007617FM-15+0148EDLW V0202401N005712200019N0112651N1+00501+00201999999ADDGA1041+007201999GF104991999999999999999999MA1101291999999REMMET062METAR EDLW 061450Z 24011KT 9999 SCT024 05/02 Q1013 RMK ATIS V;
0131104160999992008010615204+51517+007617FM-15+0148EDLW V0202301N005112200019N0112651N1+00401+00101999999ADDGA1041+006601999GF104991999999999999999999MA1101391999999REMMET062METAR EDLW 061520Z 23010KT 9999 SCT022 04/01 Q1014 RMK ATIS W;
0131104160999992008010615504+51517+007617FM-15+0148EDLW V0202301N004612200019N0112651N1+00401+00101999999ADDGA1021+006601999GF102991999999999999999999MA1101391999999REMMET062METAR EDLW 061550Z 23009KT 9999 FEW022 04/01 Q1014 RMK ATIS X;
0131104160999992008010616204+51517+007617FM-15+0148EDLW V0202201N004612200019N0112651N1+00301+00101999999ADDGA1041+006601999GF104991999999999999999999MA1101391999999REMMET062METAR EDLW 061620Z 22009KT 9999 SCT022 03/01 Q1014 RMK ATIS Y;
0083104160999992008010616504+51517+007617FM-15+0148EDLW V0202201N00461220001CN0099001N1+00301+00101999999ADDMA1101391999999REMMET056METAR EDLW 061650Z 22009KT CAVOK 03/01 Q1014 RMK ATIS Z;
0083104160999992008010617204+51517+007617FM-15+0148EDLW V0202201N00511220001CN0099001N1+00301+00101999999ADDMA1101491999999REMMET056METAR EDLW 061720Z 22010KT CAVOK 03/01 Q1015 RMK ATIS A;
0083104160999992008010617504+51517+007617FM-15+0148EDLW V0202001N00411220001CN0099001N1+00301+00001999999ADDMA1101491999999REMMET056METAR EDLW 061750Z 20008KT CAVOK 03/00 Q1015 RMK ATIS B;
0083104160999992008010618204+51517+007617FM-15+0148EDLW V0202001N00411220001CN0099001N1+00201+00001999999ADDMA1101491999999REMMET056METAR EDLW 061820Z 20008KT CAVOK 02/00 Q1015 RMK ATIS C;
0083104160999992008010618504+51517+007617FM-15+0148EDLW V0202001N00511220001CN0099001N1+00201+00001999999ADDMA1101491999999REMMET056METAR EDLW 061850Z 20010KT CAVOK 02/00 Q1015 RMK ATIS D;
0083104160999992008010619204+51517+007617FM-15+0148EDLW V0201901N00461220001CN0099001N1+00201+00001999999ADDMA1101491999999REMMET056METAR EDLW 061920Z 19009KT CAVOK 02/00 Q1015 RMK ATIS E;
0083104160999992008010619504+51517+007617FM-15+0148EDLW V0201901N00411220001CN0099001N1+00201+00001999999ADDMA1101491999999REMMET056METAR EDLW 061950Z 19008KT CAVOK 02/00 Q1015 RMK ATIS F;
0084104160999992008010620204+51517+007617FM-15+0148EDLW V0201901N00511220001CN0099001N1+00201+00001999999ADDMA1101491999999REMMET057METAR EDLW 062020Z 19010KT CAVOK 02/M00 Q1015 RMK ATIS G;
0073104160999992008010620504+51517+007617FM-15+0148EDLW V0201901N00411220001CN0099001N1+00201+00001999999ADDMA1101491999999REMMET046METAR EDLW 062050Z 19008KT CAVOK 02/M00 Q1015;
0154104160999992008010704204+51517+007617FM-15+0148EDLW V0201701N007210087019N0112651N1+00601+00301999999ADDGA1021+003601999GA2071+008701999GF107991999999999999999999MA1100511999999REMMET069METAR EDLW 070420Z 17014KT 9999 FEW012 BKN029 06/03 Q1005 RMK ATIS A;
0164104160999992008010704504+51517+007617FM-15+0148EDLW V0201801N009310084019N0080001N1+00601+00401999999ADDGA1021+003601999GA2071+008401999GF107991999999999999999999MA1100411999999MW1611REMMET073METAR EDLW 070450Z 18018KT 8000 -RA FEW012 BKN028 06/04 Q1004 RMK ATIS B;
0164104160999992008010705204+51517+007617FM-15+0148EDLW V0201901N008710084019N0080001N1+00501+00401999999ADDGA1021+004501999GA2071+008401999GF107991999999999999999999MA1100511999999MW1611REMMET073METAR EDLW 070520Z 19017KT 8000 -RA FEW015 BKN028 05/04 Q1005 RMK ATIS C;
0164104160999992008010705504+51517+007617FM-15+0148EDLW V0202001N008710075019N0112651N1+00501+00401999999ADDGA1021+003001999GA2071+007501999GF107991999999999999999999MA1100411999999MW1611REMMET073METAR EDLW 070550Z 20017KT 9999 -RA FEW010 BKN025 05/04 Q1004 RMK ATIS D;
0154104160999992008010706204+51517+007617FM-15+0148EDLW V0202001N007710060019N0112651N1+00601+00401999999ADDGA1021+004201999GA2071+006001999GF107991999999999999999999MA1100511999999REMMET069METAR EDLW 070620Z 20015KT 9999 FEW014 BKN020 06/04 Q1005 RMK ATIS E;
0154104160999992008010706504+51517+007617FM-15+0148EDLW V0202101N007710060019N0112651N1+00601+00501999999ADDGA1021+004201999GA2071+006001999GF107991999999999999999999MA1100511999999REMMET069METAR EDLW 070650Z 21015KT 9999 FEW014 BKN020 06/05 Q1005 RMK ATIS F;
0154104160999992008010707204+51517+007617FM-15+0148EDLW V0202301N008210054019N0112651N1+00701+00501999999ADDGA1021+004201999GA2071+005401999GF107991999999999999999999MA1100511999999REMMET069METAR EDLW 070720Z 23016KT 9999 FEW014 BKN018 07/05 Q1005 RMK ATIS G;
0154104160999992008010707504+51517+007617FM-15+0148EDLW V0202301N008712200019N0112651N1+00701+00501999999ADDGA1021+005101999GA2041+007501999GF104991999999999999999999MA1100511999999REMMET069METAR EDLW 070750Z 23017KT 9999 FEW017 SCT025 07/05 Q1005 RMK ATIS H;
0154104160999992008010708204+51517+007617FM-15+0148EDLW V0202301N007710057019N0112651N1+00701+00501999999ADDGA1021+004201999GA2071+005701999GF107991999999999999999999MA1100611999999REMMET069METAR EDLW 070820Z 23015KT 9999 FEW014 BKN019 07/05 Q1006 RMK ATIS I;
0166104160999992008010708504+51517+007617FM-15+0148EDLW V0202301N008710057019N0112651N1+00701+00501999999ADDGA1021+004201999GA2071+005701999GF107991999999999999999999MA1100611999999MW1801REMMET075METAR EDLW 070850Z 23017KT 9999 -SHRA FEW014 BKN019 07/05 Q1006 RMK ATIS J;
0154104160999992008010709204+51517+007617FM-15+0148EDLW V0202401N009812200019N0112651N1+00701+00301999999ADDGA1041+006901999GA2041+015001999GF104991999999999999999999MA1100711999999REMMET069METAR EDLW 070920Z 24019KT 9999 SCT023 SCT057 07/03 Q1007 RMK ATIS K;
0154104160999992008010709504+51517+007617FM-15+0148EDLW V0202401N010812200019N0112651N1+00701+00301999999ADDGA1021+006001999GA2041+008701999GF104991999999999999999999MA1100711999999REMMET069METAR EDLW 070950Z 24021KT 9999 FEW020 SCT029 07/03 Q1007 RMK ATIS L;
0165104160999992008010710204+51517+007617FM-15+0148EDLW V0202401N009812200019N0112651N1+00701+00301999999ADDGA1021+006001999GA2041+008701999GF104991999999999999999999MA1100811999999OC101651REMMET072METAR EDLW 071020Z 24019G32KT 9999 FEW020 SCT029 07/03 Q1008 RMK ATIS M;
0165104160999992008010710504+51517+007617FM-15+0148EDLW V0202401N009812200019N0112651N1+00801+00301999999ADDGA1021+006001999GA2041+008701999GF104991999999999999999999MA1100811999999OC101901REMMET072METAR EDLW 071050Z 24019G37KT 9999 FEW020 SCT029 08/03 Q1008 RMK ATIS N;
0154104160999992008010711204+51517+007617FM-15+0148EDLW V0202401N012312200019N0112651N1+00801+00301999999ADDGA1021+006001999GA2041+008701999GF104991999999999999999999MA1100811999999REMMET069METAR EDLW 071120Z 24024KT 9999 FEW020 SCT029 08/03 Q1008 RMK ATIS O;
0165104160999992008010711504+51517+007617FM-15+0148EDLW V0202501N011810108019N0112651N1+00801+00201999999ADDGA1021+008701999GA2071+010801999GF107991999999999999999999MA1100811999999OC101801REMMET072METAR EDLW 071150Z 25023G35KT 9999 FEW029 BKN036 08/02 Q1008 RMK ATIS P;
0177104160999992008010712204+51517+007617FM-15+0148EDLW V0202401N011310108019N0112651N1+00801+00201999999ADDGA1021+008701999GA2071+010801999GF107991999999999999999999MA1100811999999MW1801OC101801REMMET078METAR EDLW 071220Z 24022G35KT 9999 -SHRA FEW029 BKN036 08/02 Q1008 RMK ATIS Q;
0177104160999992008010712504+51517+007617FM-15+0148EDLW V0202501N010810096019N0112651N1+00701+00201999999ADDGA1021+008401999GA2071+009601999GF107991999999999999999999MA1100911999999MW1801OC101591REMMET078METAR EDLW 071250Z 25021G31KT 9999 -SHRA FEW028 BKN032 07/02 Q1009 RMK ATIS R;
0185104160999992008010713204+51517+007617FM-15+0148EDLW V0202401N009810099019N0112651N1+00701+00101999999ADDGA1021+008401999GA2071+009901999GF107991999999999999999999MA1100911999999MW1801OC101651REMMET086METAR EDLW 071320Z 24019G32KT 220V280 9999 -SHRA FEW028 BKN033 07/01 Q1009 RMK ATIS S;
0166104160999992008010713504+51517+007617FM-15+0148EDLW V0202401N009310126019N0112651N1+00701+00101999999ADDGA1021+009601999GA2071+012601999GF107991999999999999999999MA1100911999999MW1801REMMET075METAR EDLW 071350Z 24018KT 9999 -SHRA FEW032 BKN042 07/01 Q1009 RMK ATIS T;
0154104160999992008010714204+51517+007617FM-15+0148EDLW V0202401N011810150019N0112651N1+00701+00101999999ADDGA1041+011101999GA2071+015001999GF107991999999999999999999MA1100911999999REMMET069METAR EDLW 071420Z 24023KT 9999 SCT037 BKN054 07/01 Q1009 RMK ATIS U;
0154104160999992008010714504+51517+007617FM-15+0148EDLW V0202401N009310150019N0112651N1+00701+00101999999ADDGA1041+011101999GA2071+015001999GF107991999999999999999999MA1101021999999REMMET069METAR EDLW 071450Z 24018KT 9999 SCT037 BKN052 07/01 Q1010 RMK ATIS V;
0165104160999992008010715204+51517+007617FM-15+0148EDLW V0202401N010310150019N0112651N1+00701+00101999999ADDGA1041+011101999GA2071+015001999GF107991999999999999999999MA1101021999999OC101901REMMET072METAR EDLW 071520Z 24020G37KT 9999 SCT037 BKN052 07/01 Q1010 RMK ATIS W;
0165104160999992008010715504+51517+007617FM-15+0148EDLW V0202501N010810150019N0112651N1+00701+00001999999ADDGA1041+011101999GA2071+015001999GF107991999999999999999999MA1101081999999OC101651REMMET072METAR EDLW 071550Z 25021G32KT 9999 SCT037 BKN052 07/00 Q1011 RMK ATIS X;
0154104160999992008010716204+51517+007617FM-15+0148EDLW V0202401N009812200019N0112651N1+00701+00001999999ADDGA1021+011101999GA2041+015001999GF104991999999999999999999MA1101081999999REMMET069METAR EDLW 071620Z 24019KT 9999 FEW037 SCT050 07/00 Q1011 RMK ATIS Y;
0154104160999992008010716504+51517+007617FM-15+0148EDLW V0202301N008712200019N0112651N1+00701+00001999999ADDGA1021+011101999GA2041+015001999GF104991999999999999999999MA1101081999999REMMET069METAR EDLW 071650Z 23017KT 9999 FEW037 SCT050 07/00 Q1011 RMK ATIS Z;
0154104160999992008010717204+51517+007617FM-15+0148EDLW V0202301N010312200019N0112651N1+00701+00101999999ADDGA1021+008101999GA2041+015001999GF104991999999999999999999MA1101191999999REMMET069METAR EDLW 071720Z 23020KT 9999 FEW027 SCT052 07/01 Q1012 RMK ATIS A;
0166104160999992008010717504+51517+007617FM-15+0148EDLW V0202401N009812200019N0112651N1+00701+00201999999ADDGA1021+004201999GA2041+008101999GF104991999999999999999999MA1101081999999MW1801REMMET075METAR EDLW 071750Z 24019KT 9999 -SHRA FEW014 SCT027 07/02 Q1011 RMK ATIS B;
0167104160999992008010718204+51517+007617FM-15+0148EDLW V0202301N009810081019N0112651N1+00601+00301999999ADDGA1021+004201999GA2071+008101091GF107991999999999999999999MA1101081999999MW1811REMMET076METAR EDLW 071820Z 23019KT 9999 SHRA FEW014 BKN027CB 06/03 Q1011 RMK ATIS C;
0178104160999992008010718504+51517+007617FM-15+0148EDLW V0202301N012910078019N0112651N1+00601+00301999999ADDGA1021+005101999GA2071+007801091GF107991999999999999999999MA1101081999999MW1811OC101851REMMET079METAR EDLW 071850Z 23025G36KT 9999 SHRA FEW017 BKN026CB 06/03 Q1011 RMK ATIS D;
0167104160999992008010719204+51517+007617FM-15+0148EDLW V0202401N009810066019N0080001N1+00601+00301999999ADDGA1021+003901999GA2071+006601091GF107991999999999999999999MA1101191999999MW1811REMMET076METAR EDLW 071920Z 24019KT 8000 SHRA FEW013 BKN022CB 06/03 Q1012 RMK ATIS E;
0182104160999992008010719504+51517+007617FM-15+0148EDLW V0202301N011310060019N0112651N1+00601+00301999999ADDGA1021+003901999GA2071+006001999GF107991999999999999999999MA1101081999999MW1801OC101901REMMET083METAR EDLW 071950Z 23022G37KT 9999 -SHRA FEW013 BKN020 06/03 Q1011 RERA RMK ATIS F;
0165104160999992008010720204+51517+007617FM-15+0148EDLW V0202301N011310060019N0112651N1+00601+00301999999ADDGA1021+003901999GA2071+006001999GF107991999999999999999999MA1101191999999OC101751REMMET072METAR EDLW 072020Z 23022G34KT 9999 FEW013 BKN020 06/03 Q1012 RMK ATIS G;
0171104160999992008010720504+51517+007617FM-15+0148EDLW V0202501N009310069019N0112651N1+00601+00301999999ADDGA1021+003901999GA2071+006901999GF107991999999999999999999MA1101191999999MW1811MW2951OC101651REMMET066METAR EDLW 072050Z 25018G32KT 9999 TSRA FEW013 BKN023 06/03 Q1012;
0131104160999992008010804204+51517+007617FM-15+0148EDLW V0202301N006712200019N0112651N1+00401+00001999999ADDGA1021+007201999GF102991999999999999999999MA1101901999999REMMET062METAR EDLW 080420Z 23013KT 9999 FEW024 04/00 Q1019 RMK ATIS A;
0131104160999992008010804504+51517+007617FM-15+0148EDLW V0202201N006712200019N0112651N1+00301+00001999999ADDGA1021+007801999GF102991999999999999999999MA1101901999999REMMET062METAR EDLW 080450Z 22013KT 9999 FEW026 03/00 Q1019 RMK ATIS B;
0083104160999992008010805204+51517+007617FM-15+0148EDLW V0202201N00621220001CN0099001N1+00401+00001999999ADDMA1101901999999REMMET056METAR EDLW 080520Z 22012KT CAVOK 04/00 Q1019 RMK ATIS C;
0083104160999992008010805504+51517+007617FM-15+0148EDLW V0202101N00621220001CN0099001N1+00301+00001999999ADDMA1101901999999REMMET056METAR EDLW 080550Z 21012KT CAVOK 03/00 Q1019 RMK ATIS D;
0083104160999992008010806204+51517+007617FM-15+0148EDLW V0202101N00621220001CN0099001N1+00301+00101999999ADDMA1101901999999REMMET056METAR EDLW 080620Z 21012KT CAVOK 03/01 Q1019 RMK ATIS E;
0083104160999992008010806504+51517+007617FM-15+0148EDLW V0202001N00571220001CN0099001N1+00301+00101999999ADDMA1101901999999REMMET056METAR EDLW 080650Z 20011KT CAVOK 03/01 Q1019 RMK ATIS F;
0083104160999992008010807204+51517+007617FM-15+0148EDLW V0202101N00621220001CN0099001N1+00401+00101999999ADDMA1101901999999REMMET056METAR EDLW 080720Z 21012KT CAVOK 04/01 Q1019 RMK ATIS G;
0083104160999992008010807504+51517+007617FM-15+0148EDLW V0202101N00671220001CN0099001N1+00401+00101999999ADDMA1101901999999REMMET056METAR EDLW 080750Z 21013KT CAVOK 04/01 Q1019 RMK ATIS H;
0083104160999992008010808204+51517+007617FM-15+0148EDLW V0202001N00621220001CN0099001N1+00401+00201999999ADDMA1102001999999REMMET056METAR EDLW 080820Z 20012KT CAVOK 04/02 Q1020 RMK ATIS I;
0083104160999992008010808504+51517+007617FM-15+0148EDLW V0201901N00511220001CN0099001N1+00501+00201999999ADDMA1102001999999REMMET056METAR EDLW 080850Z 19010KT CAVOK 05/02 Q1020 RMK ATIS J;
0083104160999992008010809204+51517+007617FM-15+0148EDLW V0201901N00571220001CN0099001N1+00501+00201999999ADDMA1102001999999REMMET056METAR EDLW 080920Z 19011KT CAVOK 05/02 Q1020 RMK ATIS K;
0083104160999992008010809504+51517+007617FM-15+0148EDLW V0201901N00511220001CN0099001N1+00501+00201999999ADDMA1102001999999REMMET056METAR EDLW 080950Z 19010KT CAVOK 05/02 Q1020 RMK ATIS L;
0083104160999992008010810204+51517+007617FM-15+0148EDLW V0201901N00571220001CN0099001N1+00501+00201999999ADDMA1102001999999REMMET056METAR EDLW 081020Z 19011KT CAVOK 05/02 Q1020 RMK ATIS M;
0083104160999992008010810504+51517+007617FM-15+0148EDLW V0202001N00621220001CN0099001N1+00601+00201999999ADDMA1102001999999REMMET056METAR EDLW 081050Z 20012KT CAVOK 06/02 Q1020 RMK ATIS N;
0083104160999992008010811204+51517+007617FM-15+0148EDLW V0202001N00621220001CN0099001N1+00601+00201999999ADDMA1102001999999REMMET056METAR EDLW 081120Z 20012KT CAVOK 06/02 Q1020 RMK ATIS O;
0139104160999992008010811504+51517+007617FM-15+0148EDLW V0202001N006712200019N0112651N1+00601+00201999999ADDGA1041+006301999GF104991999999999999999999MA1101901999999REMMET070METAR EDLW 081150Z 20013KT 170V230 9999 SCT021 06/02 Q1019 RMK ATIS P;
0131104160999992008010812204+51517+007617FM-15+0148EDLW V0202001N007212200019N0112651N1+00601+00201999999ADDGA1021+006301999GF102991999999999999999999MA1101901999999REMMET062METAR EDLW 081220Z 20014KT 9999 FEW021 06/02 Q1019 RMK ATIS Q;
0131104160999992008010812504+51517+007617FM-15+0148EDLW V0202101N006712200019N0112651N1+00601+00201999999ADDGA1021+006301999GF102991999999999999999999MA1101901999999REMMET062METAR EDLW 081250Z 21013KT 9999 FEW021 06/02 Q1019 RMK ATIS R;
0083104160999992008010813204+51517+007617FM-15+0148EDLW V0202001N00671220001CN0099001N1+00601+00201999999ADDMA1101901999999REMMET056METAR EDLW 081320Z 20013KT CAVOK 06/02 Q1019 RMK ATIS S;
0083104160999992008010813504+51517+007617FM-15+0148EDLW V0202001N00621220001CN0099001N1+00601+00201999999ADDMA1101801999999REMMET056METAR EDLW 081350Z 20012KT CAVOK 06/02 Q1018 RMK ATIS T;
0083104160999992008010814204+51517+007617FM-15+0148EDLW V0201901N00571220001CN0099001N1+00601+00301999999ADDMA1101801999999REMMET056METAR EDLW 081420Z 19011KT CAVOK 06/03 Q1018 RMK ATIS U;
0083104160999992008010814504+51517+007617FM-15+0148EDLW V0201901N00511220001CN0099001N1+00601+00201999999ADDMA1101801999999REMMET056METAR EDLW 081450Z 19010KT CAVOK 06/02 Q1018 RMK ATIS V;
0154104160999992008010815204+51517+007617FM-15+0148EDLW V0202001N004610180019N0112651N1+00601+00301999999ADDGA1041+007201999GA2071+018001999GF107991999999999999999999MA1101801999999REMMET069METAR EDLW 081520Z 20009KT 9999 SCT024 BKN067 06/03 Q1018 RMK ATIS W;
0166104160999992008010815504+51517+007617FM-15+0148EDLW V0201901N005110075019N0112651N1+00601+00301999999ADDGA1021+003601999GA2071+007501999GF107991999999999999999999MA1101801999999MW1801REMMET075METAR EDLW 081550Z 19010KT 9999 -SHRA FEW012 BKN025 06/03 Q1018 RMK ATIS X;
0154104160999992008010816204+51517+007617FM-15+0148EDLW V0201901N006212200019N0112651N1+00601+00301999999ADDGA1021+003601999GA2041+007501999GF104991999999999999999999MA1101801999999REMMET069METAR EDLW 081620Z 19012KT 9999 FEW012 SCT025 06/03 Q1018 RMK ATIS Y;
0166104160999992008010816504+51517+007617FM-15+0148EDLW V0201901N005112200019N0112651N1+00601+00301999999ADDGA1021+004801999GA2041+010501999GF104991999999999999999999MA1101801999999MW1801REMMET075METAR EDLW 081650Z 19010KT 9999 -SHRA FEW016 SCT035 06/03 Q1018 RMK ATIS Z;
0154104160999992008010817204+51517+007617FM-15+0148EDLW V0201901N005710135019N0112651N1+00601+00301999999ADDGA1021+004801999GA2071+013501999GF107991999999999999999999MA1101801999999REMMET069METAR EDLW 081720Z 19011KT 9999 FEW016 BKN045 06/03 Q1018 RMK ATIS A;
0154104160999992008010817504+51517+007617FM-15+0148EDLW V0201901N005712200019N0112651N1+00601+00301999999ADDGA1021+004801999GA2041+012601999GF104991999999999999999999MA1101691999999REMMET069METAR EDLW 081750Z 19011KT 9999 FEW016 SCT042 06/03 Q1017 RMK ATIS B;
0154104160999992008010818204+51517+007617FM-15+0148EDLW V0201901N005112200019N0112651N1+00601+00301999999ADDGA1021+004801999GA2041+012901999GF104991999999999999999999MA1101691999999REMMET069METAR EDLW 081820Z 19010KT 9999 FEW016 SCT043 06/03 Q1017 RMK ATIS C;
0131104160999992008010818504+51517+007617FM-15+0148EDLW V0201901N006212200019N0112651N1+00501+00201999999ADDGA1021+012901999GF102991999999999999999999MA1101691999999REMMET062METAR EDLW 081850Z 19012KT 9999 FEW043 05/02 Q1017 RMK ATIS D;
0083104160999992008010819204+51517+007617FM-15+0148EDLW V0201801N00671220001CN0099001N1+00501+00201999999ADDMA1101691999999REMMET056METAR EDLW 081920Z 18013KT CAVOK 05/02 Q1017 RMK ATIS E;
0083104160999992008010819504+51517+007617FM-15+0148EDLW V0201801N00411220001CN0099001N1+00501+00201999999ADDMA1101691999999REMMET056METAR EDLW 081950Z 18008KT CAVOK 05/02 Q1017 RMK ATIS F;
0083104160999992008010820204+51517+007617FM-15+0148EDLW V0201901N00571220001CN0099001N1+00501+00201999999ADDMA1101691999999REMMET056METAR EDLW 082020Z 19011KT CAVOK 05/02 Q1017 RMK ATIS G;
0072104160999992008010820504+51517+007617FM-15+0148EDLW V0201801N00621220001CN0099001N1+00501+00201999999ADDMA1101591999999REMMET045METAR EDLW 082050Z 18012KT CAVOK 05/02 Q1016;
0083104160999992008010904204+51517+007617FM-15+0148EDLW V0201901N00771220001CN0099001N1+00501+00101999999ADDMA1101081999999REMMET056METAR EDLW 090420Z 19015KT CAVOK 05/01 Q1011 RMK ATIS A;
0083104160999992008010904504+51517+007617FM-15+0148EDLW V0201901N00771220001CN0099001N1+00501+00001999999ADDMA1101081999999REMMET056METAR EDLW 090450Z 19015KT CAVOK 05/00 Q1011 RMK ATIS B;
0083104160999992008010905204+51517+007617FM-15+0148EDLW V0201901N00721220001CN0099001N1+00501+00001999999ADDMA1101081999999REMMET056METAR EDLW 090520Z 19014KT CAVOK 05/00 Q1011 RMK ATIS C;
0083104160999992008010905504+51517+007617FM-15+0148EDLW V0201801N00771220001CN0099001N1+00501+00001999999ADDMA1101021999999REMMET056METAR EDLW 090550Z 18015KT CAVOK 05/00 Q1010 RMK ATIS D;
0084104160999992008010906204+51517+007617FM-15+0148EDLW V0201901N00621220001CN0099001N1+00501+00001999999ADDMA1101021999999REMMET057METAR EDLW 090620Z 19012KT CAVOK 05/M00 Q1010 RMK ATIS E;
0084104160999992008010906504+51517+007617FM-15+0148EDLW V0201901N00771220001CN0099001N1+00501+00001999999ADDMA1101021999999REMMET057METAR EDLW 090650Z 19015KT CAVOK 05/M00 Q1010 RMK ATIS F;
0083104160999992008010907204+51517+007617FM-15+0148EDLW V0202001N00721220001CN0099001N1+00501+00001999999ADDMA1101021999999REMMET056METAR EDLW 090720Z 20014KT CAVOK 05/00 Q1010 RMK ATIS G;
0131104160999992008010907504+51517+007617FM-15+0148EDLW V0202001N007212200019N0112651N1+00501+00001999999ADDGA1041+008401999GF104991999999999999999999MA1101021999999REMMET062METAR EDLW 090750Z 20014KT 9999 SCT028 05/00 Q1010 RMK ATIS H;
0131104160999992008010908204+51517+007617FM-15+0148EDLW V0202001N006712200019N0112651N1+00601+00101999999ADDGA1041+008101999GF104991999999999999999999MA1101081999999REMMET062METAR EDLW 090820Z 20013KT 9999 SCT027 06/01 Q1011 RMK ATIS I;
0143104160999992008010908504+51517+007617FM-15+0148EDLW V0202001N006712200019N0112651N1+00601+00101999999ADDGA1041+007201999GF104991999999999999999999MA1101081999999MW1801REMMET068METAR EDLW 090850Z 20013KT 9999 -SHRA SCT024 06/01 Q1011 RMK ATIS J;
0143104160999992008010909204+51517+007617FM-15+0148EDLW V0202001N007710066019N0112651N1+00601+00201999999ADDGA1071+006601999GF107991999999999999999999MA1101081999999MW1801REMMET068METAR EDLW 090920Z 20015KT 9999 -SHRA BKN022 06/02 Q1011 RMK ATIS K;
0166104160999992008010909504+51517+007617FM-15+0148EDLW V0202101N007710072019N0090001N1+00501+00301999999ADDGA1041+005401999GA2071+007201999GF107991999999999999999999MA1101081999999MW1801REMMET075METAR EDLW 090950Z 21015KT 9000 -SHRA SCT018 BKN024 05/03 Q1011 RMK ATIS L;
0131104160999992008010910204+51517+007617FM-15+0148EDLW V0202101N006710054019N0112651N1+00501+00301999999ADDGA1071+005401999GF107991999999999999999999MA1101081999999REMMET062METAR EDLW 091020Z 21013KT 9999 BKN018 05/03 Q1011 RMK ATIS M;
0166104160999992008010910504+51517+007617FM-15+0148EDLW V0202101N006710066019N0090001N1+00501+00401999999ADDGA1041+004201999GA2071+006601999GF107991999999999999999999MA1101081999999MW1801REMMET075METAR EDLW 091050Z 21013KT 9000 -SHRA SCT014 BKN022 05/04 Q1011 RMK ATIS N;
0177104160999992008010911204+51517+007617FM-15+0148EDLW V0202001N00771005101CN0090001N1+00501+00301999999ADDGA1021+004201999GA2041+005101999GA3071+007801999GF107991999999999999999999MA1101081999999REMMET076METAR EDLW 091120Z 20015KT 9000 FEW014 SCT017 BKN026 05/03 Q1011 RMK ATIS O;
0189104160999992008010911504+51517+007617FM-15+0148EDLW V0202101N00671005401CN0080001N1+00501+00401999999ADDGA1021+003601999GA2041+005401999GA3071+007501999GF107991999999999999999999MA1101081999999MW1801REMMET082METAR EDLW 091150Z 21013KT 8000 -SHRA FEW012 SCT018 BKN025 05/04 Q1011 RMK ATIS P;
0189104160999992008010912204+51517+007617FM-15+0148EDLW V0202101N00621005401CN0080001N1+00501+00401999999ADDGA1021+003601999GA2041+005401999GA3071+006601999GF107991999999999999999999MA1101081999999MW1801REMMET082METAR EDLW 091220Z 21012KT 8000 -SHRA FEW012 SCT018 BKN022 05/04 Q1011 RMK ATIS Q;
0189104160999992008010912504+51517+007617FM-15+0148EDLW V0202301N00571003901CN0080001N1+00501+00401999999ADDGA1021+003001999GA2041+003901999GA3071+006601999GF107991999999999999999999MA1101191999999MW1801REMMET082METAR EDLW 091250Z 23011KT 8000 -SHRA FEW010 SCT013 BKN022 05/04 Q1012 RMK ATIS R;
0172104160999992008010913204+51517+007617FM-15+0148EDLW V0202601N006210078019N0112651N1+00401+00301999999ADDGA1021+003001999GA2071+007801999GF107991999999999999999999MA1101191999999MW1611REMMET081METAR EDLW 091320Z 26012KT 230V300 9999 -RA FEW010 BKN026 04/03 Q1012 RMK ATIS S;
0154104160999992008010913504+51517+007617FM-15+0148EDLW V0202101N005710099019N0112651N1+00501+00301999999ADDGA1021+006301999GA2071+009901999GF107991999999999999999999MA1101081999999REMMET069METAR EDLW 091350Z 21011KT 9999 FEW021 BKN033 05/03 Q1011 RMK ATIS T;
0154104160999992008010914204+51517+007617FM-15+0148EDLW V0202001N006710108019N0112651N1+00501+00301999999ADDGA1021+006301999GA2071+010801999GF107991999999999999999999MA1101191999999REMMET069METAR EDLW 091420Z 20013KT 9999 FEW021 BKN036 05/03 Q1012 RMK ATIS U;
0154104160999992008010914504+51517+007617FM-15+0148EDLW V0202101N006210180019N0112651N1+00501+00201999999ADDGA1021+006301999GA2071+018001999GF107991999999999999999999MA1101191999999REMMET069METAR EDLW 091450Z 21012KT 9999 FEW021 BKN062 05/02 Q1012 RMK ATIS V;
0154104160999992008010915204+51517+007617FM-15+0148EDLW V0202201N005710180019N0112651N1+00501+00301999999ADDGA1021+006301999GA2071+018001999GF107991999999999999999999MA1101191999999REMMET069METAR EDLW 091520Z 22011KT 9999 FEW021 BKN062 05/03 Q1012 RMK ATIS W;
0154104160999992008010915504+51517+007617FM-15+0148EDLW V0202101N005110210019N0112651N1+00501+00201999999ADDGA1021+012001999GA2071+021001999GF107991999999999999999999MA1101191999999REMMET069METAR EDLW 091550Z 21010KT 9999 FEW040 BKN072 05/02 Q1012 RMK ATIS X;
0154104160999992008010916204+51517+007617FM-15+0148EDLW V0202101N007210240019N0112651N1+00501+00301999999ADDGA1021+012001999GA2071+024001999GF107991999999999999999999MA1101191999999REMMET069METAR EDLW 091620Z 21014KT 9999 FEW040 BKN082 05/03 Q1012 RMK ATIS Y;
0083104160999992008010916504+51517+007617FM-15+0148EDLW V0202101N00671220001CN0099001N1+00501+00301999999ADDMA1101291999999REMMET056METAR EDLW 091650Z 21013KT CAVOK 05/03 Q1013 RMK ATIS Z;
0083104160999992008010917204+51517+007617FM-15+0148EDLW V0202201N00621220001CN0099001N1+00501+00301999999ADDMA1101291999999REMMET056METAR EDLW 091720Z 22012KT CAVOK 05/03 Q1013 RMK ATIS A;
0083104160999992008010917504+51517+007617FM-15+0148EDLW V0202301N00671220001CN0099001N1+00501+00301999999ADDMA1101391999999REMMET056METAR EDLW 091750Z 23013KT CAVOK 05/03 Q1014 RMK ATIS B;
0083104160999992008010918204+51517+007617FM-15+0148EDLW V0202301N00621220001CN0099001N1+00501+00301999999ADDMA1101391999999REMMET056METAR EDLW 091820Z 23012KT CAVOK 05/03 Q1014 RMK ATIS C;
0131104160999992008010918504+51517+007617FM-15+0148EDLW V0202301N006712200019N0112651N1+00501+00201999999ADDGA1041+009001999GF104991999999999999999999MA1101391999999REMMET062METAR EDLW 091850Z 23013KT 9999 SCT030 05/02 Q1014 RMK ATIS D;
0131104160999992008010919204+51517+007617FM-15+0148EDLW V0202201N006712200019N0112651N1+00501+00201999999ADDGA1041+009001999GF104991999999999999999999MA1101491999999REMMET062METAR EDLW 091920Z 22013KT 9999 SCT030 05/02 Q1015 RMK ATIS E;
0083104160999992008010919504+51517+007617FM-15+0148EDLW V0202301N00621220001CN0099001N1+00401+00201999999ADDMA1101491999999REMMET056METAR EDLW 091950Z 23012KT CAVOK 04/02 Q1015 RMK ATIS F;
0083104160999992008010920204+51517+007617FM-15+0148EDLW V0202201N00671220001CN0099001N1+00401+00201999999ADDMA1101491999999REMMET056METAR EDLW 092020Z 22013KT CAVOK 04/02 Q1015 RMK ATIS G;
0072104160999992008010920504+51517+007617FM-15+0148EDLW V0202201N00621220001CN0099001N1+00401+00201999999ADDMA1101491999999REMMET045METAR EDLW 092050Z 22012KT CAVOK 04/02 Q1015;
0083104160999992008011004204+51517+007617FM-15+0148EDLW V0201901N00771220001CN0099001N1+00401+00101999999ADDMA1101391999999REMMET056METAR EDLW 100420Z 19015KT CAVOK 04/01 Q1014 RMK ATIS A;
0083104160999992008011004504+51517+007617FM-15+0148EDLW V0201901N00771220001CN0099001N1+00401+00101999999ADDMA1101391999999REMMET056METAR EDLW 100450Z 19015KT CAVOK 04/01 Q1014 RMK ATIS B;
0083104160999992008011005204+51517+007617FM-15+0148EDLW V0201901N00721220001CN0099001N1+00401+00101999999ADDMA1101391999999REMMET056METAR EDLW 100520Z 19014KT CAVOK 04/01 Q1014 RMK ATIS C;
0083104160999992008011005504+51517+007617FM-15+0148EDLW V0201901N00771220001CN0099001N1+00301+00101999999ADDMA1101391999999REMMET056METAR EDLW 100550Z 19015KT CAVOK 03/01 Q1014 RMK ATIS D;
0083104160999992008011006204+51517+007617FM-15+0148EDLW V0201901N00771220001CN0099001N1+00401+00101999999ADDMA1101391999999REMMET056METAR EDLW 100620Z 19015KT CAVOK 04/01 Q1014 RMK ATIS E;
0083104160999992008011006504+51517+007617FM-15+0148EDLW V0201901N00671220001CN0099001N1+00401+00101999999ADDMA1101391999999REMMET056METAR EDLW 100650Z 19013KT CAVOK 04/01 Q1014 RMK ATIS F;
0083104160999992008011007204+51517+007617FM-15+0148EDLW V0202001N00721220001CN0099001N1+00401+00101999999ADDMA1101391999999REMMET056METAR EDLW 100720Z 20014KT CAVOK 04/01 Q1014 RMK ATIS G;
0083104160999992008011007504+51517+007617FM-15+0148EDLW V0201901N00771220001CN0099001N1+00401+00101999999ADDMA1101291999999REMMET056METAR EDLW 100750Z 19015KT CAVOK 04/01 Q1013 RMK ATIS H;
0083104160999992008011008204+51517+007617FM-15+0148EDLW V0201901N00671220001CN0099001N1+00401+00101999999ADDMA1101291999999REMMET056METAR EDLW 100820Z 19013KT CAVOK 04/01 Q1013 RMK ATIS I;
0083104160999992008011008504+51517+007617FM-15+0148EDLW V0202001N00671220001CN0099001N1+00401+00101999999ADDMA1101291999999REMMET056METAR EDLW 100850Z 20013KT CAVOK 04/01 Q1013 RMK ATIS J;
0083104160999992008011009204+51517+007617FM-15+0148EDLW V0201901N00821220001CN0099001N1+00501+00101999999ADDMA1101291999999REMMET056METAR EDLW 100920Z 19016KT CAVOK 05/01 Q1013 RMK ATIS K;
0083104160999992008011009504+51517+007617FM-15+0148EDLW V0201901N00771220001CN0099001N1+00501+00101999999ADDMA1101291999999REMMET056METAR EDLW 100950Z 19015KT CAVOK 05/01 Q1013 RMK ATIS L;
0083104160999992008011010204+51517+007617FM-15+0148EDLW V0202001N00771220001CN0099001N1+00601+00201999999ADDMA1101291999999REMMET056METAR EDLW 101020Z 20015KT CAVOK 06/02 Q1013 RMK ATIS M;
0083104160999992008011010504+51517+007617FM-15+0148EDLW V0202001N00771220001CN0099001N1+00601+00201999999ADDMA1101291999999REMMET056METAR EDLW 101050Z 20015KT CAVOK 06/02 Q1013 RMK ATIS N;
0131104160999992008011011204+51517+007617FM-15+0148EDLW V0202001N008212200019N0112651N1+00601+00201999999ADDGA1021+011701999GF102991999999999999999999MA1101191999999REMMET062METAR EDLW 101120Z 20016KT 9999 FEW039 06/02 Q1012 RMK ATIS O;
0131104160999992008011011504+51517+007617FM-15+0148EDLW V0202001N008212200019N0112651N1+00701+00201999999ADDGA1021+012001999GF102991999999999999999999MA1101191999999REMMET062METAR EDLW 101150Z 20016KT 9999 FEW040 07/02 Q1012 RMK ATIS P;
0083104160999992008011012204+51517+007617FM-15+0148EDLW V0201901N00821220001CN0099001N1+00801+00201999999ADDMA1101081999999REMMET056METAR EDLW 101220Z 19016KT CAVOK 08/02 Q1011 RMK ATIS Q;
0083104160999992008011012504+51517+007617FM-15+0148EDLW V0202001N00771220001CN0099001N1+00801+00201999999ADDMA1101081999999REMMET056METAR EDLW 101250Z 20015KT CAVOK 08/02 Q1011 RMK ATIS R;
0091104160999992008011013204+51517+007617FM-15+0148EDLW V0202001N00931220001CN0099001N1+00701+00201999999ADDMA1101021999999REMMET064METAR EDLW 101320Z 20018KT 170V230 CAVOK 07/02 Q1010 RMK ATIS S;
0083104160999992008011013504+51517+007617FM-15+0148EDLW V0201901N00821220001CN0099001N1+00801+00201999999ADDMA1101021999999REMMET056METAR EDLW 101350Z 19016KT CAVOK 08/02 Q1010 RMK ATIS T;
0083104160999992008011014204+51517+007617FM-15+0148EDLW V0202001N00871220001CN0099001N1+00801+00201999999ADDMA1101021999999REMMET056METAR EDLW 101420Z 20017KT CAVOK 08/02 Q1010 RMK ATIS U;
0131104160999992008011014504+51517+007617FM-15+0148EDLW V0202001N009810123019N0112651N1+00701+00201999999ADDGA1071+012301999GF107991999999999999999999MA1101021999999REMMET062METAR EDLW 101450Z 20019KT 9999 BKN041 07/02 Q1010 RMK ATIS V;
0131104160999992008011015204+51517+007617FM-15+0148EDLW V0202001N010310096019N0112651N1+00701+00301999999ADDGA1071+009601999GF107991999999999999999999MA1100911999999REMMET062METAR EDLW 101520Z 20020KT 9999 BKN032 07/03 Q1009 RMK ATIS W;
0131104160999992008011015504+51517+007617FM-15+0148EDLW V0202001N009310078019N0112651N1+00701+00301999999ADDGA1071+007801999GF107991999999999999999999MA1100911999999REMMET062METAR EDLW 101550Z 20018KT 9999 BKN026 07/03 Q1009 RMK ATIS X;
0131104160999992008011016204+51517+007617FM-15+0148EDLW V0202001N008710084019N0112651N1+00701+00301999999ADDGA1071+008401999GF107991999999999999999999MA1100911999999REMMET062METAR EDLW 101620Z 20017KT 9999 BKN028 07/03 Q1009 RMK ATIS Y;
0165104160999992008011016504+51517+007617FM-15+0148EDLW V0202001N009310081019N0112651N1+00801+00301999999ADDGA1021+006001999GA2071+008101999GF107991999999999999999999MA1100911999999OC101541REMMET072METAR EDLW 101650Z 20018G30KT 9999 FEW020 BKN027 08/03 Q1009 RMK ATIS Z;
0154104160999992008011017204+51517+007617FM-15+0148EDLW V0202001N008710081019N0112651N1+00801+00401999999ADDGA1021+006001999GA2071+008101999GF107991999999999999999999MA1100911999999REMMET069METAR EDLW 101720Z 20017KT 9999 FEW020 BKN027 08/04 Q1009 RMK ATIS A;
0154104160999992008011017504+51517+007617FM-15+0148EDLW V0202001N008210144019N0112651N1+00901+00501999999ADDGA1021+007201999GA2071+014401999GF107991999999999999999999MA1100911999999REMMET069METAR EDLW 101750Z 20016KT 9999 FEW024 BKN048 09/05 Q1009 RMK ATIS B;
0154104160999992008011018204+51517+007617FM-15+0148EDLW V0202101N008710180019N0112651N1+00901+00401999999ADDGA1041+010201999GA2071+018001999GF107991999999999999999999MA1100911999999REMMET069METAR EDLW 101820Z 21017KT 9999 SCT034 BKN067 09/04 Q1009 RMK ATIS C;
0154104160999992008011018504+51517+007617FM-15+0148EDLW V0202101N007712200019N0112651N1+00801+00501999999ADDGA1021+009601999GA2041+015001999GF104991999999999999999999MA1100811999999REMMET069METAR EDLW 101850Z 21015KT 9999 FEW032 SCT058 08/05 Q1008 RMK ATIS D;
0083104160999992008011019204+51517+007617FM-15+0148EDLW V0202001N00721220001CN0099001N1+00801+00501999999ADDMA1100811999999REMMET056METAR EDLW 101920Z 20014KT CAVOK 08/05 Q1008 RMK ATIS E;
0083104160999992008011019504+51517+007617FM-15+0148EDLW V0202101N00821220001CN0099001N1+00901+00501999999ADDMA1100811999999REMMET056METAR EDLW 101950Z 21016KT CAVOK 09/05 Q1008 RMK ATIS F;
0083104160999992008011020204+51517+007617FM-15+0148EDLW V0202001N00821220001CN0099001N1+00901+00401999999ADDMA1100711999999REMMET056METAR EDLW 102020Z 20016KT CAVOK 09/04 Q1007 RMK ATIS G;
0083104160999992008011020504+51517+007617FM-15+0148EDLW V0202001N00771220001CN0099001N1+00901+00501999999ADDMA1100811999999REMMET056METAR EDLW 102050Z 20015KT CAVOK 09/05 Q1008 RMK ATIS H;
0131104160999992008011021204+51517+007617FM-15+0148EDLW V0202001N008710108019N0112651N1+00901+00501999999ADDGA1071+010801999GF107991999999999999999999MA1100711999999REMMET062METAR EDLW 102120Z 20017KT 9999 BKN036 09/05 Q1007 RMK ATIS I;
0083104160999992008011104204+51517+007617FM-15+0148EDLW V0202001N00821220001CN0099001N1+00901+00401999999ADDMA1100511999999REMMET056METAR EDLW 110420Z 20016KT CAVOK 09/04 Q1005 RMK ATIS A;
0083104160999992008011104504+51517+007617FM-15+0148EDLW V0202001N00821220001CN0099001N1+00801+00401999999ADDMA1100511999999REMMET056METAR EDLW 110450Z 20016KT CAVOK 08/04 Q1005 RMK ATIS B;
0083104160999992008011105204+51517+007617FM-15+0148EDLW V0202101N00721220001CN0099001N1+00801+00401999999ADDMA1100511999999REMMET056METAR EDLW 110520Z 21014KT CAVOK 08/04 Q1005 RMK ATIS C;
0083104160999992008011105504+51517+007617FM-15+0148EDLW V0202001N00771220001CN0099001N1+00901+00401999999ADDMA1100411999999REMMET056METAR EDLW 110550Z 20015KT CAVOK 09/04 Q1004 RMK ATIS D;
0083104160999992008011106204+51517+007617FM-15+0148EDLW V0202001N00721220001CN0099001N1+00901+00401999999ADDMA1100411999999REMMET056METAR EDLW 110620Z 20014KT CAVOK 09/04 Q1004 RMK ATIS E;
0083104160999992008011106504+51517+007617FM-15+0148EDLW V0201901N00771220001CN0099001N1+00901+00501999999ADDMA1100411999999REMMET056METAR EDLW 110650Z 19015KT CAVOK 09/05 Q1004 RMK ATIS F;
0083104160999992008011107204+51517+007617FM-15+0148EDLW V0201901N00821220001CN0099001N1+00901+00501999999ADDMA1100411999999REMMET056METAR EDLW 110720Z 19016KT CAVOK 09/05 Q1004 RMK ATIS G;
0091104160999992008011107504+51517+007617FM-15+0148EDLW V0202001N00871220001CN0099001N1+00901+00501999999ADDMA1100411999999REMMET064METAR EDLW 110750Z 20017KT 170V230 CAVOK 09/05 Q1004 RMK ATIS H;
0094104160999992008011108204+51517+007617FM-15+0148EDLW V0202001N00821220001CN0099001N1+00901+00501999999ADDMA1100411999999OC101341REMMET059METAR EDLW 110820Z 20016G26KT CAVOK 09/05 Q1004 RMK ATIS I;
0091104160999992008011108504+51517+007617FM-15+0148EDLW V0201901N00721220001CN0099001N1+00901+00501999999ADDMA1100411999999REMMET064METAR EDLW 110850Z 19014KT 160V220 CAVOK 09/05 Q1004 RMK ATIS J;
0083104160999992008011109204+51517+007617FM-15+0148EDLW V0201901N00721220001CN0099001N1+01001+00501999999ADDMA1100411999999REMMET056METAR EDLW 110920Z 19014KT CAVOK 10/05 Q1004 RMK ATIS K;
0083104160999992008011109504+51517+007617FM-15+0148EDLW V0201901N00821220001CN0099001N1+01001+00501999999ADDMA1100411999999REMMET056METAR EDLW 110950Z 19016KT CAVOK 10/05 Q1004 RMK ATIS L;
0102104160999992008011110204+51517+007617FM-15+0148EDLW V0201901N00771220001CN0099001N1+01001+00501999999ADDMA1100311999999OC101341REMMET067METAR EDLW 111020Z 19015G26KT 160V220 CAVOK 10/05 Q1003 RMK ATIS M;
0083104160999992008011110504+51517+007617FM-15+0148EDLW V0201901N00871220001CN0099001N1+01101+00501999999ADDMA1100311999999REMMET056METAR EDLW 111050Z 19017KT CAVOK 11/05 Q1003 RMK ATIS N;
0083104160999992008011111204+51517+007617FM-15+0148EDLW V0201901N00771220001CN0099001N1+01101+00501999999ADDMA1100311999999REMMET056METAR EDLW 111120Z 19015KT CAVOK 11/05 Q1003 RMK ATIS O;
0083104160999992008011111504+51517+007617FM-15+0148EDLW V0201801N00671220001CN0099001N1+01101+00501999999ADDMA1100201999999REMMET056METAR EDLW 111150Z 18013KT CAVOK 11/05 Q1002 RMK ATIS P;
0083104160999992008011112204+51517+007617FM-15+0148EDLW V0201801N00821220001CN0099001N1+01101+00501999999ADDMA1100201999999REMMET056METAR EDLW 111220Z 18016KT CAVOK 11/05 Q1002 RMK ATIS Q;
0094104160999992008011112504+51517+007617FM-15+0148EDLW V0201801N00821220001CN0099001N1+01201+00601999999ADDMA1100101999999OC101441REMMET059METAR EDLW 111250Z 18016G28KT CAVOK 12/06 Q1001 RMK ATIS R;
0083104160999992008011113204+51517+007617FM-15+0148EDLW V0201801N00721220001CN0099001N1+01201+00601999999ADDMA1100101999999REMMET056METAR EDLW 111320Z 18014KT CAVOK 12/06 Q1001 RMK ATIS S;
0083104160999992008011113504+51517+007617FM-15+0148EDLW V0201801N00671220001CN0099001N1+01101+00601999999ADDMA1100101999999REMMET056METAR EDLW 111350Z 18013KT CAVOK 11/06 Q1001 RMK ATIS T;
0083104160999992008011114204+51517+007617FM-15+0148EDLW V0201701N00671220001CN0099001N1+01201+00601999999ADDMA1100001999999REMMET056METAR EDLW 111420Z 17013KT CAVOK 12/06 Q1000 RMK ATIS U;
0091104160999992008011114504+51517+007617FM-15+0148EDLW V0201701N00671220001CN0099001N1+01101+00601999999ADDMA1100001999999REMMET064METAR EDLW 111450Z 17013KT 130V190 CAVOK 11/06 Q1000 RMK ATIS V;
0083104160999992008011115204+51517+007617FM-15+0148EDLW V0201801N00511220001CN0099001N1+01101+00601999999ADDMA1100001999999REMMET056METAR EDLW 111520Z 18010KT CAVOK 11/06 Q1000 RMK ATIS W;
0177104160999992008011115504+51517+007617FM-15+0148EDLW V0201701N00511014401CN0112651N1+01101+00601999999ADDGA1021+012601999GA2041+014401999GA3071+033001999GF107991999999999999999999MA1099901999999REMMET076METAR EDLW 111550Z 17010KT 9999 FEW042 SCT048 BKN110 11/06 Q0999 RMK ATIS X;
0154104160999992008011116204+51517+007617FM-15+0148EDLW V0201701N004610300019N0112651N1+01101+00601999999ADDGA1021+014401999GA2071+030001999GF107991999999999999999999MA1099901999999REMMET069METAR EDLW 111620Z 17009KT 9999 FEW048 BKN100 11/06 Q0999 RMK ATIS Y;
0083104160999992008011116504+51517+007617FM-15+0148EDLW V0201701N00571220001CN0099001N1+01201+00501999999ADDMA1099901999999REMMET056METAR EDLW 111650Z 17011KT CAVOK 12/05 Q0999 RMK ATIS Z;
0154104160999992008011117204+51517+007617FM-15+0148EDLW V0201801N006712200019N0112651N1+01201+00501999999ADDGA1021+009001999GA2041+015001999GF104991999999999999999999MA1099901999999REMMET069METAR EDLW 111720Z 18013KT 9999 FEW030 SCT055 12/05 Q0999 RMK ATIS A;
0154104160999992008011117504+51517+007617FM-15+0148EDLW V0201801N006212200019N0112651N1+01201+00501999999ADDGA1021+010501999GA2041+021001999GF104991999999999999999999MA1099801999999REMMET069METAR EDLW 111750Z 18012KT 9999 FEW035 SCT076 12/05 Q0998 RMK ATIS B;
0154104160999992008011118204+51517+007617FM-15+0148EDLW V0201701N005712200019N0112651N1+01201+00501999999ADDGA1021+007501999GA2041+015001999GF104991999999999999999999MA1099801999999REMMET069METAR EDLW 111820Z 17011KT 9999 FEW025 SCT054 12/05 Q0998 RMK ATIS C;
0083104160999992008011118504+51517+007617FM-15+0148EDLW V0201701N00671220001CN0099001N1+01201+00501999999ADDMA1099801999999REMMET056METAR EDLW 111850Z 17013KT CAVOK 12/05 Q0998 RMK ATIS D;
0083104160999992008011119204+51517+007617FM-15+0148EDLW V0201701N00511220001CN0099001N1+01201+00401999999ADDMA1099801999999REMMET056METAR EDLW 111920Z 17010KT CAVOK 12/04 Q0998 RMK ATIS E;
0083104160999992008011119504+51517+007617FM-15+0148EDLW V0201701N00461220001CN0099001N1+01201+00401999999ADDMA1099701999999REMMET056METAR EDLW 111950Z 17009KT CAVOK 12/04 Q0997 RMK ATIS F;
0083104160999992008011120204+51517+007617FM-15+0148EDLW V0201801N00621220001CN0099001N1+01201+00401999999ADDMA1099701999999REMMET056METAR EDLW 112020Z 18012KT CAVOK 12/04 Q0997 RMK ATIS G;
0091104160999992008011120504+51517+007617FM-15+0148EDLW V0201801N00771220001CN0099001N1+01201+00301999999ADDMA1099701999999OC101341REMMET056METAR EDLW 112050Z 18015G26KT 150V210 CAVOK 12/03 Q0997;
0126104160999992008011204204+51517+007617FM-15+0148EDLW V0202101N006710111019N0112651N1+00701+00301999999ADDGA1071+011101999GF107991999999999999999999MA1099701999999REMMET057METAR EDLW 120420Z 21013KT 9999 BKN037 07/03 Q0997 RMK A;
0131104160999992008011204504+51517+007617FM-15+0148EDLW V0202001N007210114019N0112651N1+00801+00301999999ADDGA1071+011401999GF107991999999999999999999MA1099701999999REMMET062METAR EDLW 120450Z 20014KT 9999 BKN038 08/03 Q0997 RMK ATIS B;
0139104160999992008011205204+51517+007617FM-15+0148EDLW V0202101N007210114019N0112651N1+00801+00301999999ADDGA1071+011401999GF107991999999999999999999MA1099701999999REMMET070METAR EDLW 120520Z 21014KT 170V230 9999 BKN038 08/03 Q0997 RMK ATIS C;
0131104160999992008011205504+51517+007617FM-15+0148EDLW V0202101N007710120019N0112651N1+00801+00301999999ADDGA1071+012001999GF107991999999999999999999MA1099801999999REMMET062METAR EDLW 120550Z 21015KT 9999 BKN040 08/03 Q0998 RMK ATIS D;
0149104160999992008011206204+51517+007617FM-15+0148EDLW V0202301N008210072019N0112651N1+00601+00301999999ADDGA1071+007201999GF107991999999999999999999MA1099801999999MW1611REMMET074METAR EDLW 120620Z 23016KT 210V270 9999 -RA BKN024 06/03 Q0998 RMK ATIS E;
0131104160999992008011206504+51517+007617FM-15+0148EDLW V0202301N009810117019N0112651N1+00601+00201999999ADDGA1071+011701999GF107991999999999999999999MA1099901999999REMMET062METAR EDLW 120650Z 23019KT 9999 BKN039 06/02 Q0999 RMK ATIS F;
0131104160999992008011207204+51517+007617FM-15+0148EDLW V0202301N010810117019N0112651N1+00601+00101999999ADDGA1071+011701999GF107991999999999999999999MA1099901999999REMMET062METAR EDLW 120720Z 23021KT 9999 BKN039 06/01 Q0999 RMK ATIS G;
0131104160999992008011207504+51517+007617FM-15+0148EDLW V0202201N009310132019N0112651N1+00601+00101999999ADDGA1071+013201999GF107991999999999999999999MA1100001999999REMMET062METAR EDLW 120750Z 22018KT 9999 BKN044 06/01 Q1000 RMK ATIS H;
0131104160999992008011208204+51517+007617FM-15+0148EDLW V0202201N009810084019N0112651N1+00601+00201999999ADDGA1071+008401999GF107991999999999999999999MA1100101999999REMMET062METAR EDLW 120820Z 22019KT 9999 BKN028 06/02 Q1001 RMK ATIS I;
0131104160999992008011208504+51517+007617FM-15+0148EDLW V0202201N010310084019N0112651N1+00601+00201999999ADDGA1071+008401999GF107991999999999999999999MA1100101999999REMMET062METAR EDLW 120850Z 22020KT 9999 BKN028 06/02 Q1001 RMK ATIS J;
0131104160999992008011209204+51517+007617FM-15+0148EDLW V0202201N009810060019N0112651N1+00601+00301999999ADDGA1071+006001999GF107991999999999999999999MA1100201999999REMMET062METAR EDLW 120920Z 22019KT 9999 BKN020 06/03 Q1002 RMK ATIS K;
0131104160999992008011209504+51517+007617FM-15+0148EDLW V0202201N009810060019N0112651N1+00501+00301999999ADDGA1071+006001999GF107991999999999999999999MA1100201999999REMMET062METAR EDLW 120950Z 22019KT 9999 BKN020 05/03 Q1002 RMK ATIS L;
0131104160999992008011210204+51517+007617FM-15+0148EDLW V0202301N010310057019N0112651N1+00601+00301999999ADDGA1071+005701999GF107991999999999999999999MA1100311999999REMMET062METAR EDLW 121020Z 23020KT 9999 BKN019 06/03 Q1003 RMK ATIS M;
0131104160999992008011210504+51517+007617FM-15+0148EDLW V0202301N009810069019N0112651N1+00601+00301999999ADDGA1071+006901999GF107991999999999999999999MA1100411999999REMMET062METAR EDLW 121050Z 23019KT 9999 BKN023 06/03 Q1004 RMK ATIS N;
0131104160999992008011211204+51517+007617FM-15+0148EDLW V0202401N008210069019N0112651N1+00501+00301999999ADDGA1071+006901999GF107991999999999999999999MA1100411999999REMMET062METAR EDLW 121120Z 24016KT 9999 BKN023 05/03 Q1004 RMK ATIS O;
0154104160999992008011211504+51517+007617FM-15+0148EDLW V0202401N006710054019N0112651N1+00501+00401999999ADDGA1021+004201999GA2071+005401999GF107991999999999999999999MA1100511999999REMMET069METAR EDLW 121150Z 24013KT 9999 FEW014 BKN018 05/04 Q1005 RMK ATIS O;
0141104160999992008011212204+51517+007617FM-15+0148EDLW V0202501N007210042019N0112651N1+00501+00401999999ADDGA1071+004201999GF107991999999999999999999MA1100611999999MW1611REMMET066METAR EDLW 121220Z 25014KT 9999 -RA BKN014 05/04 Q1006 RMK ATIS P;
0162104160999992008011212504+51517+007617FM-15+0148EDLW V0202601N006210063019N0112651N1+00601+00301999999ADDGA1041+004201999GA2071+006301999GF107991999999999999999999MA1100611999999REMMET077METAR EDLW 121250Z 26012KT 230V290 9999 SCT014 BKN021 06/03 Q1006 RMK ATIS Q;
0154104160999992008011213204+51517+007617FM-15+0148EDLW V0202501N006210102019N0112651N1+00601+00301999999ADDGA1041+006601999GA2071+010201999GF107991999999999999999999MA1100711999999REMMET069METAR EDLW 121320Z 25012KT 9999 SCT022 BKN034 06/03 Q1007 RMK ATIS R;
0154104160999992008011213504+51517+007617FM-15+0148EDLW V0202501N006710180019N0112651N1+00601+00301999999ADDGA1041+010501999GA2071+018001999GF107991999999999999999999MA1100711999999REMMET069METAR EDLW 121350Z 25013KT 9999 SCT035 BKN065 06/03 Q1007 RMK ATIS S;
0177104160999992008011214204+51517+007617FM-15+0148EDLW V0202401N00671010201CN0112651N1+00601+00301999999ADDGA1021+005101999GA2041+010201999GA3071+018001999GF107991999999999999999999MA1100811999999REMMET076METAR EDLW 121420Z 24013KT 9999 FEW017 SCT034 BKN065 06/03 Q1008 RMK ATIS T;
0154104160999992008011214504+51517+007617FM-15+0148EDLW V0202501N005710102019N0112651N1+00601+00301999999ADDGA1041+005701999GA2071+010201999GF107991999999999999999999MA1100911999999REMMET069METAR EDLW 121450Z 25011KT 9999 SCT019 BKN034 06/03 Q1009 RMK ATIS U;
0154104160999992008011215204+51517+007617FM-15+0148EDLW V0202401N006212200019N0112651N1+00601+00301999999ADDGA1041+006601999GA2041+010501999GF104991999999999999999999MA1100911999999REMMET069METAR EDLW 121520Z 24012KT 9999 SCT022 SCT035 06/03 Q1009 RMK ATIS V;
0154104160999992008011215504+51517+007617FM-15+0148EDLW V0202501N005712200019N0112651N1+00501+00201999999ADDGA1021+007801999GA2041+012001999GF104991999999999999999999MA1101021999999REMMET069METAR EDLW 121550Z 25011KT 9999 FEW026 SCT040 05/02 Q1010 RMK ATIS W;
0154104160999992008011216204+51517+007617FM-15+0148EDLW V0202301N006212200019N0112651N1+00501+00201999999ADDGA1021+007201999GA2041+011701999GF104991999999999999999999MA1101081999999REMMET069METAR EDLW 121620Z 23012KT 9999 FEW024 SCT039 05/02 Q1011 RMK ATIS X;
0131104160999992008011216504+51517+007617FM-15+0148EDLW V0202401N007212200019N0112651N1+00401+00101999999ADDGA1041+007801999GF104991999999999999999999MA1101081999999REMMET062METAR EDLW 121650Z 24014KT 9999 SCT026 04/01 Q1011 RMK ATIS Y;
0131104160999992008011217204+51517+007617FM-15+0148EDLW V0202301N005712200019N0112651N1+00401+00101999999ADDGA1041+008101999GF104991999999999999999999MA1101191999999REMMET062METAR EDLW 121720Z 23011KT 9999 SCT027 04/01 Q1012 RMK ATIS Z;
0131104160999992008011217504+51517+007617FM-15+0148EDLW V0202301N007212200019N0112651N1+00401+00001999999ADDGA1041+008101999GF104991999999999999999999MA1101191999999REMMET062METAR EDLW 121750Z 23014KT 9999 SCT027 04/00 Q1012 RMK ATIS A;
0083104160999992008011218204+51517+007617FM-15+0148EDLW V0202301N00571220001CN0099001N1+00301+00001999999ADDMA1101291999999REMMET056METAR EDLW 121820Z 23011KT CAVOK 03/00 Q1013 RMK ATIS B;
0083104160999992008011218504+51517+007617FM-15+0148EDLW V0202301N00671220001CN0099001N1+00301+00001999999ADDMA1101291999999REMMET056METAR EDLW 121850Z 23013KT CAVOK 03/00 Q1013 RMK ATIS C;
0084104160999992008011219204+51517+007617FM-15+0148EDLW V0202201N00621220001CN0099001N1+00301+00001999999ADDMA1101291999999REMMET057METAR EDLW 121920Z 22012KT CAVOK 03/M00 Q1013 RMK ATIS D;
0084104160999992008011219504+51517+007617FM-15+0148EDLW V0202201N00621220001CN0099001N1+00301+00001999999ADDMA1101391999999REMMET057METAR EDLW 121950Z 22012KT CAVOK 03/M00 Q1014 RMK ATIS E;
0084104160999992008011220204+51517+007617FM-15+0148EDLW V0202101N00571220001CN0099001N1+00301+00001999999ADDMA1101391999999REMMET057METAR EDLW 122020Z 21011KT CAVOK 03/M00 Q1014 RMK ATIS F;
0073104160999992008011220504+51517+007617FM-15+0148EDLW V0202001N00571220001CN0099001N1+00301+00001999999ADDMA1101391999999REMMET046METAR EDLW 122050Z 20011KT CAVOK 03/M00 Q1014;
0084104160999992008011304204+51517+007617FM-15+0148EDLW V0201901N00571220001CN0099001N1+00301+00001999999ADDMA1101491999999REMMET057METAR EDLW 130420Z 19011KT CAVOK 03/M00 Q1015 RMK ATIS A;
0084104160999992008011304504+51517+007617FM-15+0148EDLW V0201901N00511220001CN0099001N1+00301+00001999999ADDMA1101591999999REMMET057METAR EDLW 130450Z 19010KT CAVOK 03/M00 Q1016 RMK ATIS B;
0084104160999992008011305204+51517+007617FM-15+0148EDLW V0201801N00511220001CN0099001N1+00301+00001999999ADDMA1101591999999REMMET057METAR EDLW 130520Z 18010KT CAVOK 03/M00 Q1016 RMK ATIS C;
0084104160999992008011305504+51517+007617FM-15+0148EDLW V0201801N00571220001CN0099001N1+00301+00001999999ADDMA1101591999999REMMET057METAR EDLW 130550Z 18011KT CAVOK 03/M00 Q1016 RMK ATIS D;
0084104160999992008011306204+51517+007617FM-15+0148EDLW V0201701N00511220001CN0099001N1+00301+00001999999ADDMA1101591999999REMMET057METAR EDLW 130620Z 17010KT CAVOK 03/M00 Q1016 RMK ATIS E;
0084104160999992008011306504+51517+007617FM-15+0148EDLW V0201801N00511220001CN0099001N1+00301+00001999999ADDMA1101591999999REMMET057METAR EDLW 130650Z 18010KT CAVOK 03/M00 Q1016 RMK ATIS F;
0084104160999992008011307204+51517+007617FM-15+0148EDLW V0201801N00511220001CN0099001N1+00301+00001999999ADDMA1101591999999REMMET057METAR EDLW 130720Z 18010KT CAVOK 03/M00 Q1016 RMK ATIS G;
0084104160999992008011307504+51517+007617FM-15+0148EDLW V0201801N00511220001CN0099001N1+00301+00001999999ADDMA1101591999999REMMET057METAR EDLW 130750Z 18010KT CAVOK 03/M00 Q1016 RMK ATIS H;
0083104160999992008011308204+51517+007617FM-15+0148EDLW V0201801N00511220001CN0099001N1+00301+00001999999ADDMA1101591999999REMMET056METAR EDLW 130820Z 18010KT CAVOK 03/00 Q1016 RMK ATIS I;
0083104160999992008011308504+51517+007617FM-15+0148EDLW V0201801N00461220001CN0099001N1+00401+00001999999ADDMA1101591999999REMMET056METAR EDLW 130850Z 18009KT CAVOK 04/00 Q1016 RMK ATIS J;
0083104160999992008011309204+51517+007617FM-15+0148EDLW V0201801N00511220001CN0099001N1+00501+00001999999ADDMA1101591999999REMMET056METAR EDLW 130920Z 18010KT CAVOK 05/00 Q1016 RMK ATIS K;
0083104160999992008011309504+51517+007617FM-15+0148EDLW V0201901N00671220001CN0099001N1+00501+00101999999ADDMA1101591999999REMMET056METAR EDLW 130950Z 19013KT CAVOK 05/01 Q1016 RMK ATIS L;
0083104160999992008011310204+51517+007617FM-15+0148EDLW V0201801N00671220001CN0099001N1+00601+00001999999ADDMA1101591999999REMMET056METAR EDLW 131020Z 18013KT CAVOK 06/00 Q1016 RMK ATIS M;
0083104160999992008011310504+51517+007617FM-15+0148EDLW V0201901N00721220001CN0099001N1+00601+00001999999ADDMA1101591999999REMMET056METAR EDLW 131050Z 19014KT CAVOK 06/00 Q1016 RMK ATIS N;
0083104160999992008011311204+51517+007617FM-15+0148EDLW V0201801N00671220001CN0099001N1+00601+00001999999ADDMA1101591999999REMMET056METAR EDLW 131120Z 18013KT CAVOK 06/00 Q1016 RMK ATIS O;
0083104160999992008011311504+51517+007617FM-15+0148EDLW V0201901N00621220001CN0099001N1+00701+00101999999ADDMA1101491999999REMMET056METAR EDLW 131150Z 19012KT CAVOK 07/01 Q1015 RMK ATIS P;
0083104160999992008011312204+51517+007617FM-15+0148EDLW V0201901N00621220001CN0099001N1+00701+00001999999ADDMA1101491999999REMMET056METAR EDLW 131220Z 19012KT CAVOK 07/00 Q1015 RMK ATIS Q;
0083104160999992008011312504+51517+007617FM-15+0148EDLW V0201901N00621220001CN0099001N1+00701+00001999999ADDMA1101491999999REMMET056METAR EDLW 131250Z 19012KT CAVOK 07/00 Q1015 RMK ATIS R;
0083104160999992008011313204+51517+007617FM-15+0148EDLW V0201901N00621220001CN0099001N1+00801+00001999999ADDMA1101491999999REMMET056METAR EDLW 131320Z 19012KT CAVOK 08/00 Q1015 RMK ATIS S;
0092104160999992008011313504+51517+007617FM-15+0148EDLW V0201901N00411220001CN0099001N1+00801+00001999999ADDMA1101491999999REMMET065METAR EDLW 131350Z 19008KT 150V220 CAVOK 08/M00 Q1015 RMK ATIS T;
0092104160999992008011314204+51517+007617FM-15+0148EDLW V0201801N00461220001CN0099001N1+00701-00101999999ADDMA1101391999999REMMET065METAR EDLW 131420Z 18009KT 150V210 CAVOK 07/M01 Q1014 RMK ATIS U;
0092104160999992008011314504+51517+007617FM-15+0148EDLW V0201801N00461220001CN0099001N1+00701-00201999999ADDMA1101391999999REMMET065METAR EDLW 131450Z 18009KT 150V220 CAVOK 07/M02 Q1014 RMK ATIS V;
0084104160999992008011315204+51517+007617FM-15+0148EDLW V0201701N00511220001CN0099001N1+00601-00301999999ADDMA1101391999999REMMET057METAR EDLW 131520Z 17010KT CAVOK 06/M03 Q1014 RMK ATIS W;
0084104160999992008011315504+51517+007617FM-15+0148EDLW V0201601N00621220001CN0099001N1+00501-00301999999ADDMA1101391999999REMMET057METAR EDLW 131550Z 16012KT CAVOK 05/M03 Q1014 RMK ATIS X;
0084104160999992008011316204+51517+007617FM-15+0148EDLW V0201601N00511220001CN0099001N1+00501-00301999999ADDMA1101391999999REMMET057METAR EDLW 131620Z 16010KT CAVOK 05/M03 Q1014 RMK ATIS Y;
0084104160999992008011316504+51517+007617FM-15+0148EDLW V0201501N00461220001CN0099001N1+00401-00201999999ADDMA1101391999999REMMET057METAR EDLW 131650Z 15009KT CAVOK 04/M02 Q1014 RMK ATIS Z;
0084104160999992008011317204+51517+007617FM-15+0148EDLW V0201701N00571220001CN0099001N1+00401-00201999999ADDMA1101291999999REMMET057METAR EDLW 131720Z 17011KT CAVOK 04/M02 Q1013 RMK ATIS A;
0084104160999992008011317504+51517+007617FM-15+0148EDLW V0201801N00411220001CN0099001N1+00401-00201999999ADDMA1101291999999REMMET057METAR EDLW 131750Z 18008KT CAVOK 04/M02 Q1013 RMK ATIS B;
0092104160999992008011318204+51517+007617FM-15+0148EDLW V0209999V00101220001CN0099001N1+00401-00301999999ADDMA1101291999999REMMET065METAR EDLW 131820Z VRB02KT 170V170 CAVOK 04/M03 Q1013 RMK ATIS C;
0084104160999992008011318504+51517+007617FM-15+0148EDLW V0201301N00261220001CN0099001N1+00201-00401999999ADDMA1101291999999REMMET057METAR EDLW 131850Z 13005KT CAVOK 02/M04 Q1013 RMK ATIS D;
0084104160999992008011319204+51517+007617FM-15+0148EDLW V0201601N00211220001CN0099001N1+00301-00401999999ADDMA1101191999999REMMET057METAR EDLW 131920Z 16004KT CAVOK 03/M04 Q1012 RMK ATIS E;
0084104160999992008011319504+51517+007617FM-15+0148EDLW V0201301N00151220001CN0099001N1+00301-00401999999ADDMA1101191999999REMMET057METAR EDLW 131950Z 13003KT CAVOK 03/M04 Q1012 RMK ATIS F;
0084104160999992008011320204+51517+007617FM-15+0148EDLW V0209999V00151220001CN0099001N1+00301-00401999999ADDMA1101191999999REMMET057METAR EDLW 132020Z VRB03KT CAVOK 03/M04 Q1012 RMK ATIS G;
