0072104880999992013010100204+51133+013750FM-15+0232EDDC V0201801N005719999999Y0099001N1+00401+00101999999ADDMA1100911999999REMMET045METAR EDDC 010020Z 18011KT CAVOK 04/01 Q1009;
0072104880999992013010100504+51133+013750FM-15+0232EDDC V0201701N004619999999Y0099001N1+00301+00001999999ADDMA1100911999999REMMET045METAR EDDC 010050Z 17009KT CAVOK 03/00 Q1009;
0072104880999992013010101204+51133+013750FM-15+0232EDDC V0201701N004119999999Y0099001N1+00301+00001999999ADDMA1100911999999REMMET045METAR EDDC 010120Z 17008KT CAVOK 03/00 Q1009;
0072104880999992013010101504+51133+013750FM-15+0232EDDC V0201601N004119999999Y0099001N1+00401+00001999999ADDMA1100811999999REMMET045METAR EDDC 010150Z 16008KT CAVOK 04/00 Q1008;
0072104880999992013010102204+51133+013750FM-15+0232EDDC V0201601N004119999999Y0099001N1+00401+00001999999ADDMA1100811999999REMMET045METAR EDDC 010220Z 16008KT CAVOK 04/00 Q1008;
0073104880999992013010102504+51133+013750FM-15+0232EDDC V0201601N004619999999Y0099001N1+00401+00001999999ADDMA1100711999999REMMET046METAR EDDC 010250Z 16009KT CAVOK 04/M00 Q1007;
0073104880999992013010103204+51133+013750FM-15+0232EDDC V0201601N005719999999Y0099001N1+00401-00101999999ADDMA1100711999999REMMET046METAR EDDC 010320Z 16011KT CAVOK 04/M01 Q1007;
0073104880999992013010103504+51133+013750FM-15+0232EDDC V0201701N006219999999Y0099001N1+00401-00101999999ADDMA1100711999999REMMET046METAR EDDC 010350Z 17012KT CAVOK 04/M01 Q1007;
0073104880999992013010104204+51133+013750FM-15+0232EDDC V0201701N005119999999Y0099001N1+00401-00101999999ADDMA1100611999999REMMET046METAR EDDC 010420Z 17010KT CAVOK 04/M01 Q1006;
0079104880999992013010104504+51133+013750FM-15+0232EDDC V0201601N006719999999Y0099001N1+00401-00101999999ADDMA1100611999999REMMET052METAR EDDC 010450Z 16013KT CAVOK 04/M01 Q1006 NOSIG;
0079104880999992013010105204+51133+013750FM-15+0232EDDC V0201701N005719999999Y0099001N1+00401-00101999999ADDMA1100611999999REMMET052METAR EDDC 010520Z 17011KT CAVOK 04/M01 Q1006 NOSIG;
0079104880999992013010105504+51133+013750FM-15+0232EDDC V0201601N005719999999Y0099001N1+00401-00101999999ADDMA1100611999999REMMET052METAR EDDC 010550Z 16011KT CAVOK 04/M01 Q1006 NOSIG;
0079104880999992013010106204+51133+013750FM-15+0232EDDC V0201501N004619999999Y0099001N1+00301-00101999999ADDMA1100611999999REMMET052METAR EDDC 010620Z 15009KT CAVOK 03/M01 Q1006 NOSIG;
0079104880999992013010106504+51133+013750FM-15+0232EDDC V0201601N004619999999Y0099001N1+00401-00101999999ADDMA1100611999999REMMET052METAR EDDC 010650Z 16009KT CAVOK 04/M01 Q1006 NOSIG;
0079104880999992013010107204+51133+013750FM-15+0232EDDC V0201501N004119999999Y0099001N1+00401-00101999999ADDMA1100611999999REMMET052METAR EDDC 010720Z 15008KT CAVOK 04/M01 Q1006 NOSIG;
0079104880999992013010107504+51133+013750FM-15+0232EDDC V0201501N004119999999Y0099001N1+00401-00101999999ADDMA1100611999999REMMET052METAR EDDC 010750Z 15008KT CAVOK 04/M01 Q1006 NOSIG;
0079104880999992013010108204+51133+013750FM-15+0232EDDC V0201501N003619999999Y0099001N1+00501-00101999999ADDMA1100611999999REMMET052METAR EDDC 010820Z 15007KT CAVOK 05/M01 Q1006 NOSIG;
0079104880999992013010108504+51133+013750FM-15+0232EDDC V0201501N003619999999Y0099001N1+00501-00101999999ADDMA1100611999999REMMET052METAR EDDC 010850Z 15007KT CAVOK 05/M01 Q1006 NOSIG;
0079104880999992013010109204+51133+013750FM-15+0232EDDC V0201601N004619999999Y0099001N1+00501-00101999999ADDMA1100611999999REMMET052METAR EDDC 010920Z 16009KT CAVOK 05/M01 Q1006 NOSIG;
0079104880999992013010109504+51133+013750FM-15+0232EDDC V0201601N005719999999Y0099001N1+00501-00101999999ADDMA1100611999999REMMET052METAR EDDC 010950Z 16011KT CAVOK 05/M01 Q1006 NOSIG;
0079104880999992013010110204+51133+013750FM-15+0232EDDC V0201701N005719999999Y0099001N1+00601-00101999999ADDMA1100611999999REMMET052METAR EDDC 011020Z 17011KT CAVOK 06/M01 Q1006 NOSIG;
0079104880999992013010110504+51133+013750FM-15+0232EDDC V0201701N005719999999Y0099001N1+00601-00101999999ADDMA1100511999999REMMET052METAR EDDC 011050Z 17011KT CAVOK 06/M01 Q1005 NOSIG;
0079104880999992013010111204+51133+013750FM-15+0232EDDC V0201801N005119999999Y0099001N1+00601-00101999999ADDMA1100511999999REMMET052METAR EDDC 011120Z 18010KT CAVOK 06/M01 Q1005 NOSIG;
0079104880999992013010111504+51133+013750FM-15+0232EDDC V0201901N004619999999Y0099001N1+00601-00101999999ADDMA1100511999999REMMET052METAR EDDC 011150Z 19009KT CAVOK 06/M01 Q1005 NOSIG;
0079104880999992013010112204+51133+013750FM-15+0232EDDC V0201601N003119999999Y0099001N1+00601-00101999999ADDMA1100511999999REMMET052METAR EDDC 011220Z 16006KT CAVOK 06/M01 Q1005 NOSIG;
0079104880999992013010112504+51133+013750FM-15+0232EDDC V0201701N004119999999Y0099001N1+00701-00101999999ADDMA1100511999999REMMET052METAR EDDC 011250Z 17008KT CAVOK 07/M01 Q1005 NOSIG;
0118104880999992013010113204+51133+013750FM-15+0232EDDC V0201701N003610300019N0112651N1+00701-00101999999ADDGF107991999999999999999999MA1100511999999REMMET065METAR EDDC 011320Z 17007KT 9999 FEW042 BKN100 07/M01 Q1005 NOSIG;
0120104880999992013010113504+51133+013750FM-15+0232EDDC V0201901N003610114019N0112651N1+00701+00101999999ADDGF107991999999999999999999MA1100511999999MW1611REMMET061METAR EDDC 011350Z 19007KT 9999 -RA BKN038 07/01 Q1005 NOSIG;
0120104880999992013010114204+51133+013750FM-15+0232EDDC V0202301N004610102019N0112651N1+00701+00201999999ADDGF107991999999999999999999MA1100611999999MW1611REMMET061METAR EDDC 011420Z 23009KT 9999 -RA BKN034 07/02 Q1006 NOSIG;
0127104880999992013010114504+51133+013750FM-15+0232EDDC V0202101N004610105019N0112651N1+00601+00101999999ADDGF107991999999999999999999MA1100611999999MW1611REMMET068METAR EDDC 011450Z 21009KT 9999 -RA FEW025 BKN035 06/01 Q1006 NOSIG;
0127104880999992013010115204+51133+013750FM-15+0232EDDC V0202001N004110105019N0112651N1+00601+00101999999ADDGF107991999999999999999999MA1100611999999MW1611REMMET068METAR EDDC 011520Z 20008KT 9999 -RA FEW020 BKN035 06/01 Q1006 NOSIG;
0110104880999992013010115504+51133+013750FM-15+0232EDDC V0201801N004610105019N0112651N1+00501+00001999999ADDGF107991999999999999999999MA1100611999999REMMET057METAR EDDC 011550Z 18009KT 9999 BKN035 05/00 Q1006 NOSIG;
0110104880999992013010116204+51133+013750FM-15+0232EDDC V0201801N004610105019N0112651N1+00501+00001999999ADDGF107991999999999999999999MA1100611999999REMMET057METAR EDDC 011620Z 18009KT 9999 BKN035 05/00 Q1006 NOSIG;
0110104880999992013010116504+51133+013750FM-15+0232EDDC V0201801N004610099019N0112651N1+00501+00001999999ADDGF107991999999999999999999MA1100611999999REMMET057METAR EDDC 011650Z 18009KT 9999 BKN033 05/00 Q1006 NOSIG;
0110104880999992013010117204+51133+013750FM-15+0232EDDC V0201901N004110096019N0112651N1+00501+00101999999ADDGF107991999999999999999999MA1100611999999REMMET057METAR EDDC 011720Z 19008KT 9999 BKN032 05/01 Q1006 NOSIG;
0110104880999992013010117504+51133+013750FM-15+0232EDDC V0202001N004610090019N0112651N1+00601+00101999999ADDGF107991999999999999999999MA1100711999999REMMET057METAR EDDC 011750Z 20009KT 9999 BKN030 06/01 Q1007 NOSIG;
0110104880999992013010118204+51133+013750FM-15+0232EDDC V0202101N004110093019N0112651N1+00601+00101999999ADDGF107991999999999999999999MA1100711999999REMMET057METAR EDDC 011820Z 21008KT 9999 BKN031 06/01 Q1007 NOSIG;
0110104880999992013010118504+51133+013750FM-15+0232EDDC V0202301N005110084019N0112651N1+00701+00201999999ADDGF107991999999999999999999MA1100711999999REMMET057METAR EDDC 011850Z 23010KT 9999 BKN028 07/02 Q1007 NOSIG;
0110104880999992013010119204+51133+013750FM-15+0232EDDC V0202301N005110084019N0112651N1+00701+00201999999ADDGF108991999999999999999999MA1100711999999REMMET057METAR EDDC 011920Z 23010KT 9999 OVC028 07/02 Q1007 NOSIG;
0110104880999992013010119504+51133+013750FM-15+0232EDDC V0202301N005110078019N0112651N1+00701+00301999999ADDGF107991999999999999999999MA1100711999999REMMET057METAR EDDC 011950Z 23010KT 9999 BKN026 07/03 Q1007 NOSIG;
0120104880999992013010120204+51133+013750FM-15+0232EDDC V0202301N004610081019N0112651N1+00701+00301999999ADDGF107991999999999999999999MA1100811999999MW1611REMMET061METAR EDDC 012020Z 23009KT 9999 -RA BKN027 07/03 Q1008 NOSIG;
0110104880999992013010120504+51133+013750FM-15+0232EDDC V0202301N005110075019N0112651N1+00701+00301999999ADDGF108991999999999999999999MA1100811999999REMMET057METAR EDDC 012050Z 23010KT 9999 OVC025 07/03 Q1008 NOSIG;
0104104880999992013010121204+51133+013750FM-15+0232EDDC V0202401N004610075019N0112651N1+00701+00301999999ADDGF107991999999999999999999MA1100811999999REMMET051METAR EDDC 012120Z 24009KT 9999 BKN025 07/03 Q1008;
0114104880999992013010121504+51133+013750FM-15+0232EDDC V0202401N004610075019N0112651N1+00701+00301999999ADDGF108991999999999999999999MA1100911999999MW1611REMMET055METAR EDDC 012150Z 24009KT 9999 -RA OVC025 07/03 Q1009;
0114104880999992013010122204+51133+013750FM-15+0232EDDC V0202401N004610060019N0112651N1+00701+00401999999ADDGF107991999999999999999999MA1100911999999MW1611REMMET055METAR EDDC 012220Z 24009KT 9999 -RA BKN020 07/04 Q1009;
0121104880999992013010122504+51133+013750FM-15+0232EDDC V0202501N004110060019N0112651N1+00701+00401999999ADDGF107991999999999999999999MA1100911999999MW1611REMMET062METAR EDDC 012250Z 25008KT 9999 -RA FEW016 BKN020 07/04 Q1009;
0133104880999992013010123204+51133+013750FM-15+0232EDDC V0203001N005110036019N0112651N1+00501+00301999999ADDGF107991999999999999999999MA1101021999999MW1611REMMET074METAR EDDC 012320Z 30010KT 9999 -RA FEW009 BKN012 BKN030 05/03 Q1010 RERA;
0127104880999992013010123504+51133+013750FM-15+0232EDDC V0202901N005110027019N0112651N1+00401+00301999999ADDGF108991999999999999999999MA1101081999999MW1631REMMET068METAR EDDC 012350Z 29010KT 9999 RA BKN009 SCT017 OVC030 04/03 Q1011;
0119104880999992013010200204+51133+013750FM-15+0232EDDC V0202701N004110027019N0112651N1+00401+00301999999ADDGF107991999999999999999999MA1101081999999MW1611REMMET060METAR EDDC 020020Z 27008KT 9999 -RA BKN009 04/03 Q1011 RERA;
0121104880999992013010200504+51133+013750FM-15+0232EDDC V0202701N002610099019N0112651N1+00401+00201999999ADDGF107991999999999999999999MA1101191999999MW1611REMMET062METAR EDDC 020050Z 27005KT 9999 -RA FEW011 BKN033 04/02 Q1012;
0121104880999992013010201204+51133+013750FM-15+0232EDDC V0202501N003110045019N0112651N1+00401+00301999999ADDGF107991999999999999999999MA1101191999999MW1611REMMET062METAR EDDC 020120Z 25006KT 9999 -RA BKN015 BKN022 04/03 Q1012;
0111104880999992013010201504+51133+013750FM-15+0232EDDC V0202301N003610042019N0112651N1+00401+00201999999ADDGF107991999999999999999999MA1101291999999REMMET058METAR EDDC 020150Z 23007KT 9999 BKN014 BKN040 04/02 Q1013;
0111104880999992013010202204+51133+013750FM-15+0232EDDC V0202501N003610126019N0112651N1+00401+00201999999ADDGF107991999999999999999999MA1101291999999REMMET058METAR EDDC 020220Z 25007KT 9999 SCT031 BKN042 04/02 Q1013;
0104104880999992013010202504+51133+013750FM-15+0232EDDC V0202501N003610138019N0112651N1+00401+00201999999ADDGF107991999999999999999999MA1101291999999REMMET051METAR EDDC 020250Z 25007KT 9999 BKN046 04/02 Q1013;
0072104880999992013010203204+51133+013750FM-15+0232EDDC V0202501N003619999999Y0099001N1+00301+00101999999ADDMA1101391999999REMMET045METAR EDDC 020320Z 25007KT CAVOK 03/01 Q1014;
0104104880999992013010203504+51133+013750FM-15+0232EDDC V0202401N003110132019N0112651N1+00301+00101999999ADDGF107991999999999999999999MA1101391999999REMMET051METAR EDDC 020350Z 24006KT 9999 BKN044 03/01 Q1014;
0104104880999992013010204204+51133+013750FM-15+0232EDDC V0202401N003610132019N0112651N1+00301+00101999999ADDGF107991999999999999999999MA1101391999999REMMET051METAR EDDC 020420Z 24007KT 9999 BKN044 03/01 Q1014;
0110104880999992013010204504+51133+013750FM-15+0232EDDC V0202401N004110132019N0112651N1+00301+00101999999ADDGF107991999999999999999999MA1101391999999REMMET057METAR EDDC 020450Z 24008KT 9999 BKN044 03/01 Q1014 NOSIG;
0110104880999992013010205204+51133+013750FM-15+0232EDDC V0202401N004110138019N0112651N1+00301+00101999999ADDGF107991999999999999999999MA1101491999999REMMET057METAR EDDC 020520Z 24008KT 9999 BKN046 03/01 Q1015 NOSIG;
0110104880999992013010205504+51133+013750FM-15+0232EDDC V0202301N004110138019N0112651N1+00301+00101999999ADDGF107991999999999999999999MA1101491999999REMMET057METAR EDDC 020550Z 23008KT 9999 BKN046 03/01 Q1015 NOSIG;
0110104880999992013010206204+51133+013750FM-15+0232EDDC V0202301N004110132019N0112651N1+00301+00101999999ADDGF107991999999999999999999MA1101491999999REMMET057METAR EDDC 020620Z 23008KT 9999 BKN044 03/01 Q1015 NOSIG;
0110104880999992013010206504+51133+013750FM-15+0232EDDC V0202301N004610126019N0112651N1+00301+00001999999ADDGF107991999999999999999999MA1101591999999REMMET057METAR EDDC 020650Z 23009KT 9999 BKN042 03/00 Q1016 NOSIG;
0111104880999992013010207204+51133+013750FM-15+0232EDDC V0202401N004610120019N0112651N1+00301+00001999999ADDGF107991999999999999999999MA1101591999999REMMET058METAR EDDC 020720Z 24009KT 9999 BKN040 03/M00 Q1016 NOSIG;
0111104880999992013010207504+51133+013750FM-15+0232EDDC V0202401N004110120019N0112651N1+00301+00001999999ADDGF107991999999999999999999MA1101691999999REMMET058METAR EDDC 020750Z 24008KT 9999 BKN040 03/M00 Q1017 NOSIG;
0118104880999992013010208204+51133+013750FM-15+0232EDDC V0202401N004110150019N0112651N1+00401+00001999999ADDGF107991999999999999999999MA1101691999999REMMET065METAR EDDC 020820Z 24008KT 9999 SCT035 BKN050 04/M00 Q1017 NOSIG;
0118104880999992013010208504+51133+013750FM-15+0232EDDC V0202401N004610180019N0112651N1+00401+00001999999ADDGF107991999999999999999999MA1101801999999REMMET065METAR EDDC 020850Z 24009KT 9999 FEW035 BKN060 04/M00 Q1018 NOSIG;
0117104880999992013010209204+51133+013750FM-15+0232EDDC V0202501N005110180019N0112651N1+00401+00001999999ADDGF107991999999999999999999MA1101801999999REMMET064METAR EDDC 020920Z 25010KT 9999 FEW040 BKN060 04/00 Q1018 NOSIG;
0145104880999992013010209504+51133+013750FM-15+0232EDDC V0202501N00511012001CN0112651N1+00401+00001999999ADDGF107991999999999999999999MA1101801999999MW1611OC101081REMMET078METAR EDDC 020950Z 25010G21KT 9999 -RA FEW028 SCT040 BKN058 04/00 Q1018 NOSIG;
0124104880999992013010210204+51133+013750FM-15+0232EDDC V0202601N00571012001CN0112651N1+00501+00001999999ADDGF107991999999999999999999MA1101801999999REMMET071METAR EDDC 021020Z 26011KT 9999 FEW012 SCT040 BKN060 05/00 Q1018 NOSIG;
0117104880999992013010210504+51133+013750FM-15+0232EDDC V0202601N004610150019N0112651N1+00501+00001999999ADDGF107991999999999999999999MA1101901999999REMMET064METAR EDDC 021050Z 26009KT 9999 FEW040 BKN052 05/00 Q1019 NOSIG;
0117104880999992013010211204+51133+013750FM-15+0232EDDC V0202601N006210150019N0112651N1+00501+00101999999ADDGF107991999999999999999999MA1101901999999REMMET064METAR EDDC 021120Z 26012KT 9999 FEW022 BKN050 05/01 Q1019 NOSIG;
0138104880999992013010211504+51133+013750FM-15+0232EDDC V0202601N00621011401CN0112651N1+00501+00101999999ADDGF107991999999999999999999MA1101901999999MW1801REMMET079METAR EDDC 021150Z 26012KT 9999 -SHRA FEW019 SCT038CB BKN050 05/01 Q1019 NOSIG;
0124104880999992013010212204+51133+013750FM-15+0232EDDC V0202501N005710099019N0112651N1+00501+00101999999ADDGF107991999999999999999999MA1101901999999REMMET071METAR EDDC 021220Z 25011KT 9999 FEW010 BKN033CB 05/01 Q1019 RERA NOSIG;
0119104880999992013010212504+51133+013750FM-15+0232EDDC V0202501N006210120019N0112651N1+00501+00101999999ADDGF107991999999999999999999MA1102001999999REMMET066METAR EDDC 021250Z 25012KT 9999 FEW024 BKN040CB 05/01 Q1020 NOSIG;
0117104880999992013010213204+51133+013750FM-15+0232EDDC V0202501N006210114019N0112651N1+00501+00101999999ADDGF107991999999999999999999MA1102001999999REMMET064METAR EDDC 021320Z 25012KT 9999 FEW022 BKN038 05/01 Q1020 NOSIG;
0117104880999992013010213504+51133+013750FM-15+0232EDDC V0202601N005710117019N0112651N1+00501+00101999999ADDGF107991999999999999999999MA1102001999999REMMET064METAR EDDC 021350Z 26011KT 9999 FEW024 BKN039 05/01 Q1020 NOSIG;
0129104880999992013010214204+51133+013750FM-15+0232EDDC V0202601N005710105019N0112651N1+00501+00101999999ADDGF107991999999999999999999MA1102101999999MW1801REMMET070METAR EDDC 021420Z 26011KT 9999 -SHRA FEW017 BKN035 05/01 Q1021 NOSIG;
0128104880999992013010214504+51133+013750FM-15+0232EDDC V0202501N005110144019N0112651N1+00501+00101999999ADDGF107991999999999999999999MA1102101999999OC101131REMMET067METAR EDDC 021450Z 25010G22KT 9999 FEW025 BKN048 05/01 Q1021 NOSIG;
0136104880999992013010215204+51133+013750FM-15+0232EDDC V0202701N00671010801CN0112651N1+00501+00101999999ADDGF107991999999999999999999MA1102201999999MW1801REMMET077METAR EDDC 021520Z 27013KT 9999 -SHRA FEW008 SCT036 BKN045 05/01 Q1022 NOSIG;
0117104880999992013010215504+51133+013750FM-15+0232EDDC V0202601N005710132019N0112651N1+00501+00101999999ADDGF107991999999999999999999MA1102201999999REMMET064METAR EDDC 021550Z 26011KT 9999 FEW009 BKN044 05/01 Q1022 NOSIG;
0117104880999992013010216204+51133+013750FM-15+0232EDDC V0202501N004610126019N0112651N1+00501+00101999999ADDGF107991999999999999999999MA1102301999999REMMET064METAR EDDC 021620Z 25009KT 9999 FEW017 BKN042 05/01 Q1023 NOSIG;
0117104880999992013010216504+51133+013750FM-15+0232EDDC V0202601N004610138019N0112651N1+00501+00101999999ADDGF107991999999999999999999MA1102301999999REMMET064METAR EDDC 021650Z 26009KT 9999 FEW022 BKN046 05/01 Q1023 NOSIG;
0124104880999992013010217204+51133+013750FM-15+0232EDDC V0202501N00461009901CN0112651N1+00501+00101999999ADDGF107991999999999999999999MA1102401999999REMMET071METAR EDDC 021720Z 25009KT 9999 FEW015 SCT033 BKN043 05/01 Q1024 NOSIG;
0124104880999992013010217504+51133+013750FM-15+0232EDDC V0202601N00411011401CN0112651N1+00501+00101999999ADDGF107991999999999999999999MA1102401999999REMMET071METAR EDDC 021750Z 26008KT 9999 FEW018 SCT038 BKN047 05/01 Q1024 NOSIG;
0124104880999992013010218204+51133+013750FM-15+0232EDDC V0202601N00461012601CN0112651N1+00501+00101999999ADDGF107991999999999999999999MA1102401999999REMMET071METAR EDDC 021820Z 26009KT 9999 FEW018 SCT042 BKN050 05/01 Q1024 NOSIG;
0110104880999992013010218504+51133+013750FM-15+0232EDDC V0202601N004610126019N0112651N1+00501+00101999999ADDGF107991999999999999999999MA1102511999999REMMET057METAR EDDC 021850Z 26009KT 9999 BKN042 05/01 Q1025 NOSIG;
0110104880999992013010219204+51133+013750FM-15+0232EDDC V0202501N005110138019N0112651N1+00501+00101999999ADDGF107991999999999999999999MA1102511999999REMMET057METAR EDDC 021920Z 25010KT 9999 BKN046 05/01 Q1025 NOSIG;
0110104880999992013010219504+51133+013750FM-15+0232EDDC V0202501N004110141019N0112651N1+00401+00101999999ADDGF107991999999999999999999MA1102611999999REMMET057METAR EDDC 021950Z 25008KT 9999 BKN047 04/01 Q1026 NOSIG;
0110104880999992013010220204+51133+013750FM-15+0232EDDC V0202401N004610138019N0112651N1+00401+00101999999ADDGF107991999999999999999999MA1102611999999REMMET057METAR EDDC 022020Z 24009KT 9999 BKN046 04/01 Q1026 NOSIG;
0110104880999992013010220504+51133+013750FM-15+0232EDDC V0202401N004610126019N0112651N1+00401+00101999999ADDGF108991999999999999999999MA1102611999999REMMET057METAR EDDC 022050Z 24009KT 9999 OVC042 04/01 Q1026 NOSIG;
0104104880999992013010221204+51133+013750FM-15+0232EDDC V0202401N004110132019N0112651N1+00401+00101999999ADDGF108991999999999999999999MA1102611999999REMMET051METAR EDDC 022120Z 24008KT 9999 OVC044 04/01 Q1026;
0111104880999992013010221504+51133+013750FM-15+0232EDDC V0202401N004110141019N0112651N1+00501+00001999999ADDGF108991999999999999999999MA1102611999999REMMET058METAR EDDC 022150Z 24008KT 9999 SCT028 OVC047 05/00 Q1026;
0111104880999992013010222204+51133+013750FM-15+0232EDDC V0202501N003610144019N0112651N1+00401+00101999999ADDGF108991999999999999999999MA1102611999999REMMET058METAR EDDC 022220Z 25007KT 9999 FEW030 OVC048 04/01 Q1026;
0104104880999992013010222504+51133+013750FM-15+0232EDDC V0202301N004110132019N0112651N1+00501+00001999999ADDGF108991999999999999999999MA1102611999999REMMET051METAR EDDC 022250Z 23008KT 9999 OVC044 05/00 Q1026;
0104104880999992013010223204+51133+013750FM-15+0232EDDC V0202301N004110132019N0112651N1+00501+00001999999ADDGF108991999999999999999999MA1102611999999REMMET051METAR EDDC 022320Z 23008KT 9999 OVC044 05/00 Q1026;
0104104880999992013010223504+51133+013750FM-15+0232EDDC V0202401N004110135019N0112651N1+00501+00001999999ADDGF107991999999999999999999MA1102611999999REMMET051METAR EDDC 022350Z 24008KT 9999 BKN045 05/00 Q1026;
0104104880999992013010300204+51133+013750FM-15+0232EDDC V0202401N004610129019N0112651N1+00501+00001999999ADDGF107991999999999999999999MA1102611999999REMMET051METAR EDDC 030020Z 24009KT 9999 BKN043 05/00 Q1026;
0104104880999992013010300504+51133+013750FM-15+0232EDDC V0202301N005112200019N0112651N1+00401+00001999999ADDGF104991999999999999999999MA1102611999999REMMET051METAR EDDC 030050Z 23010KT 9999 SCT042 04/00 Q1026;
0104104880999992013010301204+51133+013750FM-15+0232EDDC V0202401N005110120019N0112651N1+00401+00001999999ADDGF107991999999999999999999MA1102611999999REMMET051METAR EDDC 030120Z 24010KT 9999 BKN040 04/00 Q1026;
0112104880999992013010301504+51133+013750FM-15+0232EDDC V0202401N005112200019N0112651N1+00401-00101999999ADDGF104991999999999999999999MA1102611999999REMMET059METAR EDDC 030150Z 24010KT 9999 SCT040 SCT110 04/M01 Q1026;
0073104880999992013010302204+51133+013750FM-15+0232EDDC V0202301N005119999999Y0099001N1+00401+00001999999ADDMA1102611999999REMMET046METAR EDDC 030220Z 23010KT CAVOK 04/M00 Q1026;
0073104880999992013010302504+51133+013750FM-15+0232EDDC V0202301N005719999999Y0099001N1+00401-00101999999ADDMA1102611999999REMMET046METAR EDDC 030250Z 23011KT CAVOK 04/M01 Q1026;
0073104880999992013010303204+51133+013750FM-15+0232EDDC V0202301N005719999999Y0099001N1+00401-00101999999ADDMA1102511999999REMMET046METAR EDDC 030320Z 23011KT CAVOK 04/M01 Q1025;
0073104880999992013010303504+51133+013750FM-15+0232EDDC V0202301N006219999999Y0099001N1+00401-00101999999ADDMA1102511999999REMMET046METAR EDDC 030350Z 23012KT CAVOK 04/M01 Q1025;
0073104880999992013010304204+51133+013750FM-15+0232EDDC V0202301N005719999999Y0099001N1+00401+00001999999ADDMA1102511999999REMMET046METAR EDDC 030420Z 23011KT CAVOK 04/M00 Q1025;
0114104880999992013010304504+51133+013750FM-15+0232EDDC V0202301N005710138019N0112651N1+00401+00001999999ADDGF107991999999999999999999MA1102401999999REMMET061METAR EDDC 030450Z 23011KT 9999 BKN046 04/M00 Q1024 TEMPO RA;
0135104880999992013010305204+51133+013750FM-15+0232EDDC V0202301N006210102019N0112651N1+00501+00001999999ADDGF107991999999999999999999MA1102401999999MW1611REMMET076METAR EDDC 030520Z 23012KT 9999 -RA BKN034 05/M00 Q1024 TEMPO 24015G25KT RA;
0141104880999992013010305504+51133+013750FM-15+0232EDDC V0202401N005710066019N0112651N1+00401+00101999999ADDGF107991999999999999999999MA1102401999999MW1611REMMET082METAR EDDC 030550Z 24011KT 9999 -RA FEW006 BKN022 04/01 Q1024 TEMPO 24015G25KT RA;
0156104880999992013010306204+51133+013750FM-15+0232EDDC V0202401N006210054019N0112651N1+00401+00201999999ADDGF107991999999999999999999MA1102401999999MW1611OC101131REMMET089METAR EDDC 030620Z 24012G22KT 9999 -RA FEW012 BKN018 04/02 Q1024 TEMPO 24015G25KT BKN012;
0156104880999992013010306504+51133+013750FM-15+0232EDDC V0202401N006210042019N0112651N1+00401+00201999999ADDGF107991999999999999999999MA1102401999999MW1511MW2611REMMET091METAR EDDC 030650Z 24012KT 9999 -RADZ SCT012 BKN014 04/02 Q1024 TEMPO 24015G25KT RA BKN009;
0130104880999992013010307504+51133+013750FM-15+0232EDDC V0202401N005710033019N0090001N1+00401+00301999999ADDGF107991999999999999999999MA1102401999999MW1631REMMET071METAR EDDC 030750Z 24011KT 9000 RA BKN011 BKN014 04/03 Q1024 TEMPO NSW;
0141104880999992013010308204+51133+013750FM-15+0232EDDC V0202401N006710030019N0080001N1+00501+00301999999ADDGF107991999999999999999999MA1102301999999MW1631OC101181REMMET074METAR EDDC 030820Z 24013G23KT 8000 RA BKN010 BKN014 05/03 Q1023 TEMPO NSW;
0141104880999992013010308504+51133+013750FM-15+0232EDDC V0202501N006710030019N0112651N1+00501+00301999999ADDGF107991999999999999999999MA1102401999999MW1631OC101231REMMET074METAR EDDC 030850Z 25013G24KT 9999 RA FEW007 BKN010 05/03 Q1024 TEMPO NSW;
0139104880999992013010309204+51133+013750FM-15+0232EDDC V0202501N005710045019N0112651N1+00501+00301999999ADDGF107991999999999999999999MA1102401999999MW1611REMMET080METAR EDDC 030920Z 25011KT 9999 -RA SCT013 BKN015 05/03 Q1024 RERA TEMPO BKN012;
0117104880999992013010309504+51133+013750FM-15+0232EDDC V0202501N007210033019N0112651N1+00501+00401999999ADDGF107991999999999999999999MA1102401999999REMMET064METAR EDDC 030950Z 25014KT 9999 FEW006 BKN011 05/04 Q1024 NOSIG;
0138104880999992013010310204+51133+013750FM-15+0232EDDC V0202601N006710033019N0112651N1+00601+00401999999ADDGF107991999999999999999999MA1102401999999MW1611OC101231REMMET071METAR EDDC 031020Z 26013G24KT 9999 -RA FEW003 BKN011 06/04 Q1024 NOSIG;
0153104880999992013010310504+51133+013750FM-15+0232EDDC V0202501N006710033019N0112651N1+00601+00401999999ADDGF107991999999999999999999MA1102401999999MW1511MW2611OC101291REMMET080METAR EDDC 031050Z 25013G25KT 9999 -RADZ FEW003 BKN011 06/04 Q1024 TEMPO BKN015;
0117104880999992013010311204+51133+013750FM-15+0232EDDC V0202601N006210036019N0112651N1+00601+00401999999ADDGF107991999999999999999999MA1102301999999REMMET064METAR EDDC 031120Z 26012KT 9999 BKN012 06/04 Q1023 TEMPO BKN015;
0128104880999992013010311504+51133+013750FM-15+0232EDDC V0202601N006710042019N0112651N1+00701+00401999999ADDGF107991999999999999999999MA1102401999999OC101341REMMET067METAR EDDC 031150Z 26013G26KT 9999 BKN014 07/04 Q1024 TEMPO BKN015;
0121104880999992013010312204+51133+013750FM-15+0232EDDC V0202601N007710045019N0112651N1+00701+00401999999ADDGF107991999999999999999999MA1102401999999OC101291REMMET060METAR EDDC 031220Z 26015G25KT 9999 BKN015 07/04 Q1024 NOSIG;
0142104880999992013010312504+51133+013750FM-15+0232EDDC V0202601N00671003601CN0112651N1+00701+00401999999ADDGF107991999999999999999999MA1102401999999OC101341REMMET081METAR EDDC 031250Z 26013G26KT 9999 FEW007 SCT012 BKN016 07/04 Q1024 TEMPO BKN014;
0124104880999992013010313204+51133+013750FM-15+0232EDDC V0202601N008210033019N0112651N1+00701+00501999999ADDGF107991999999999999999999MA1102401999999REMMET071METAR EDDC 031320Z 26016KT 9999 FEW006 BKN011 07/05 Q1024 TEMPO BKN009;
0124104880999992013010313504+51133+013750FM-15+0232EDDC V0202601N007210027019N0112651N1+00701+00501999999ADDGF107991999999999999999999MA1102401999999REMMET071METAR EDDC 031350Z 26014KT 9999 FEW004 BKN009 07/05 Q1024 TEMPO BKN012;
0128104880999992013010314204+51133+013750FM-15+0232EDDC V0202501N007210033019N0112651N1+00701+00501999999ADDGF107991999999999999999999MA1102511999999OC101231REMMET067METAR EDDC 031420Z 25014G24KT 9999 BKN011 BKN016 07/05 Q1025 NOSIG;
0091104880999992013010314504+51133+013750FM-15+0232EDDC V0202501N00671004201CN0112651N1+00701+00501999999ADDMA1102511999999REMMET064METAR EDDC 031450Z 25013KT 9999 BKN014 SCT018 07/05 Q1025 NOSIG;
0117104880999992013010315204+51133+013750FM-15+0232EDDC V0202501N006210045019N0112651N1+00701+00501999999ADDGF107991999999999999999999MA1102511999999REMMET064METAR EDDC 031520Z 25012KT 9999 BKN015 07/05 Q1025 TEMPO BKN014;
0121104880999992013010315504+51133+013750FM-15+0232EDDC V0202501N006710045019N0112651N1+00701+00501999999ADDGF107991999999999999999999MA1102511999999OC101181REMMET060METAR EDDC 031550Z 25013G23KT 9999 BKN015 07/05 Q1025 NOSIG;
0128104880999992013010316204+51133+013750FM-15+0232EDDC V0202501N005710045019N0112651N1+00801+00501999999ADDGF107991999999999999999999MA1102511999999OC101081REMMET067METAR EDDC 031620Z 25011G21KT 9999 BKN015 BKN042 08/05 Q1025 NOSIG;
0135104880999992013010316504+51133+013750FM-15+0232EDDC V0202501N006210045019N0112651N1+00801+00501999999ADDGF107991999999999999999999MA1102511999999OC101131REMMET074METAR EDDC 031650Z 25012G22KT 9999 BKN015 SCT026 BKN040 08/05 Q1025 NOSIG;
0134104880999992013010317204+51133+013750FM-15+0232EDDC V0202601N007210042019N0112651N1+00801+00501999999ADDGF107991999999999999999999MA1102611999999MW1611REMMET075METAR EDDC 031720Z 26014KT 9999 -RA SCT006 BKN014 08/05 Q1026 TEMPO BKN006;
0134104880999992013010317504+51133+013750FM-15+0232EDDC V0202601N006210039019N0112651N1+00801+00501999999ADDGF107991999999999999999999MA1102611999999MW1611REMMET075METAR EDDC 031750Z 26012KT 9999 -RA FEW005 BKN013 08/05 Q1026 TEMPO BKN006;
0135104880999992013010318204+51133+013750FM-15+0232EDDC V0202601N006710039019N0112651N1+00701+00501999999ADDGF107991999999999999999999MA1102611999999OC101341REMMET074METAR EDDC 031820Z 26013G26KT 9999 FEW006 BKN013 BKN050 07/05 Q1026 NOSIG;
0128104880999992013010318504+51133+013750FM-15+0232EDDC V0202501N006210036019N0112651N1+00701+00601999999ADDGF107991999999999999999999MA1102611999999OC101131REMMET067METAR EDDC 031850Z 25012G22KT 9999 BKN012 BKN050 07/06 Q1026 NOSIG;
0135104880999992013010319204+51133+013750FM-15+0232EDDC V0202601N007210036019N0112651N1+00801+00601999999ADDGF107991999999999999999999MA1102611999999OC101291REMMET074METAR EDDC 031920Z 26014G25KT 9999 FEW006 BKN012 BKN024 08/06 Q1026 NOSIG;
0127104880999992013010319504+51133+013750FM-15+0232EDDC V0202601N007210036019N0112651N1+00801+00601999999ADDGF107991999999999999999999MA1102511999999MW1611REMMET068METAR EDDC 031950Z 26014KT 9999 -RA BKN012 BKN023 08/06 Q1025 NOSIG;
0128104880999992013010320204+51133+013750FM-15+0232EDDC V0202701N007710057019N0112651N1+00801+00601999999ADDGF107991999999999999999999MA1102511999999OC101291REMMET067METAR EDDC 032020Z 27015G25KT 9999 SCT013 BKN019 08/06 Q1025 NOSIG;
0134104880999992013010320504+51133+013750FM-15+0232EDDC V0202601N007710045019N0112651N1+00801+00601999999ADDGF107991999999999999999999MA1102611999999REMMET081METAR EDDC 032050Z 26015KT 9999 BKN015 BKN021 08/06 Q1026 TEMPO 4000 RADZ BKN014;
0121104880999992013010321204+51133+013750FM-15+0232EDDC V0202701N007210036019N0112651N1+00801+00601999999ADDGF107991999999999999999999MA1102611999999MW1611REMMET062METAR EDDC 032120Z 27014KT 9999 -RA FEW006 BKN012 08/06 Q1026;
0126104880999992013010321504+51133+013750FM-15+0232EDDC V0202801N006210024019N0112651N1+00801+00601999999ADDGF107991999999999999999999MA1102711999999MW1611REMMET067METAR EDDC 032150Z 28012KT 9999 -RA BKN008 BKN013 08/06 Q1027 RERA;
0133104880999992013010322204+51133+013750FM-15+0232EDDC V0202901N004610024019N0112651N1+00801+00701999999ADDGF107991999999999999999999MA1102711999999MW1611REMMET074METAR EDDC 032220Z 29009KT 9999 -RA FEW004 BKN008 BKN017 08/07 Q1027 RERA;
0118104880999992013010322504+51133+013750FM-15+0232EDDC V0202901N005110039019N0112651N1+00801+00701999999ADDGF107991999999999999999999MA1102711999999REMMET065METAR EDDC 032250Z 29010KT 9999 SCT008 BKN013 BKN027 08/07 Q1027;
0118104880999992013010323204+51133+013750FM-15+0232EDDC V0202801N005110066019N0112651N1+00801+00701999999ADDGF107991999999999999999999MA1102711999999REMMET065METAR EDDC 032320Z 28010KT 9999 SCT009 BKN022 BKN048 08/07 Q1027;
0111104880999992013010323504+51133+013750FM-15+0232EDDC V0202901N004610030019N0112651N1+00801+00701999999ADDGF107991999999999999999999MA1102711999999REMMET058METAR EDDC 032350Z 29009KT 9999 BKN010 BKN054 08/07 Q1027;
0111104880999992013010400204+51133+013750FM-15+0232EDDC V0202801N005710150019N0112651N1+00801+00601999999ADDGF107991999999999999999999MA1102711999999REMMET058METAR EDDC 040020Z 28011KT 9999 SCT010 BKN054 08/06 Q1027;
0111104880999992013010400504+51133+013750FM-15+0232EDDC V0202901N005110024019N0112651N1+00801+00701999999ADDGF107991999999999999999999MA1102811999999REMMET058METAR EDDC 040050Z 29010KT 9999 BKN008 BKN052 08/07 Q1028;
0111104880999992013010401204+51133+013750FM-15+0232EDDC V0202901N005110030019N0112651N1+00801+00601999999ADDGF107991999999999999999999MA1102811999999REMMET058METAR EDDC 040120Z 29010KT 9999 BKN010 BKN050 08/06 Q1028;
0104104880999992013010401504+51133+013750FM-15+0232EDDC V0202901N005112200019N0112651N1+00701+00601999999ADDGF102991999999999999999999MA1102811999999REMMET051METAR EDDC 040150Z 29010KT 9999 FEW010 07/06 Q1028;
0104104880999992013010402204+51133+013750FM-15+0232EDDC V0203001N005712200019N0112651N1+00701+00501999999ADDGF102991999999999999999999MA1102811999999REMMET051METAR EDDC 040220Z 30011KT 9999 FEW013 07/05 Q1028;
0104104880999992013010402504+51133+013750FM-15+0232EDDC V0202901N005712200019N0112651N1+00701+00501999999ADDGF102991999999999999999999MA1102811999999REMMET051METAR EDDC 040250Z 29011KT 9999 FEW011 07/05 Q1028;
0115104880999992013010403204+51133+013750FM-15+0232EDDC V0203001N006710033019N0112651N1+00701+00501999999ADDGF107991999999999999999999MA1102811999999OC101181REMMET054METAR EDDC 040320Z 30013G23KT 9999 BKN011 07/05 Q1028;
0104104880999992013010403504+51133+013750FM-15+0232EDDC V0202901N005712200019N0112651N1+00701+00501999999ADDGF104991999999999999999999MA1102811999999REMMET051METAR EDDC 040350Z 29011KT 9999 SCT012 07/05 Q1028;
0104104880999992013010404204+51133+013750FM-15+0232EDDC V0202901N006712200019N0112651N1+00701+00501999999ADDGF104991999999999999999999MA1102811999999REMMET051METAR EDDC 040420Z 29013KT 9999 SCT013 07/05 Q1028;
0117104880999992013010404504+51133+013750FM-15+0232EDDC V0202901N005712200019N0112651N1+00701+00501999999ADDGF104991999999999999999999MA1102811999999REMMET064METAR EDDC 040450Z 29011KT 9999 FEW013 SCT240 07/05 Q1028 NOSIG;
0128104880999992013010405204+51133+013750FM-15+0232EDDC V0202901N007712200019N0112651N1+00701+00401999999ADDGF104991999999999999999999MA1102811999999OC101291REMMET067METAR EDDC 040520Z 29015G25KT 9999 FEW013 SCT240 07/04 Q1028 NOSIG;
0089104880999992013010405504+51133+013750FM-15+0232EDDC V0202901N008219999999Y0099001N1+00701+00401999999ADDMA1102811999999OC101391REMMET054METAR EDDC 040550Z 29016G27KT CAVOK 07/04 Q1028 NOSIG;
0089104880999992013010406204+51133+013750FM-15+0232EDDC V0202901N007219999999Y0099001N1+00701+00501999999ADDMA1102811999999OC101291REMMET054METAR EDDC 040620Z 29014G25KT CAVOK 07/05 Q1028 NOSIG;
0124104880999992013010406504+51133+013750FM-15+0232EDDC V0202901N00721045001CN0112651N1+00701+00501999999ADDGF107991999999999999999999MA1102811999999REMMET071METAR EDDC 040650Z 29014KT 9999 FEW014 SCT150 BKN230 07/05 Q1028 NOSIG;
0124104880999992013010407204+51133+013750FM-15+0232EDDC V0202901N00771045001CN0112651N1+00701+00401999999ADDGF107991999999999999999999MA1102811999999REMMET071METAR EDDC 040720Z 29015KT 9999 FEW014 SCT150 BKN230 07/04 Q1028 NOSIG;
0117104880999992013010407504+51133+013750FM-15+0232EDDC V0203001N007212200019N0112651N1+00701+00501999999ADDGF104991999999999999999999MA1102811999999REMMET064METAR EDDC 040750Z 30014KT 9999 FEW016 SCT230 07/05 Q1028 NOSIG;
0091104880999992013010408204+51133+013750FM-15+0232EDDC V0202901N00621006301CN0112651N1+00701+00501999999ADDMA1102811999999REMMET064METAR EDDC 040820Z 29012KT 9999 BKN021 SCT230 07/05 Q1028 NOSIG;
0110104880999992013010408504+51133+013750FM-15+0232EDDC V0202801N005112200019N0112651N1+00701+00501999999ADDGF104991999999999999999999MA1102811999999REMMET057METAR EDDC 040850Z 28010KT 9999 SCT021 07/05 Q1028 NOSIG;
0110104880999992013010409204+51133+013750FM-15+0232EDDC V0202801N005110054019N0112651N1+00801+00501999999ADDGF107991999999999999999999MA1102811999999REMMET057METAR EDDC 040920Z 28010KT 9999 BKN018 08/05 Q1028 NOSIG;
0135104880999992013010409504+51133+013750FM-15+0232EDDC V0202901N00621006001CN0112651N1+00801+00601999999ADDGF107991999999999999999999MA1102811999999OC101131REMMET074METAR EDDC 040950Z 29012G22KT 9999 FEW016 SCT020 BKN250 08/06 Q1028 NOSIG;
0124104880999992013010410204+51133+013750FM-15+0232EDDC V0202901N006210057019N0112651N1+00901+00601999999ADDGF108991999999999999999999MA1102811999999REMMET071METAR EDDC 041020Z 29012KT 9999 FEW016 BKN019 OVC200 09/06 Q1028 NOSIG;
0117104880999992013010410504+51133+013750FM-15+0232EDDC V0202901N006210060019N0112651N1+00901+00601999999ADDGF107991999999999999999999MA1102811999999REMMET064METAR EDDC 041050Z 29012KT 9999 FEW017 BKN020 09/06 Q1028 NOSIG;
0110104880999992013010411204+51133+013750FM-15+0232EDDC V0202901N005110054019N0112651N1+00901+00601999999ADDGF107991999999999999999999MA1102811999999REMMET057METAR EDDC 041120Z 29010KT 9999 BKN018 09/06 Q1028 NOSIG;
0134104880999992013010411504+51133+013750FM-15+0232EDDC V0202801N00621006601CN0112651N1+00801+00601999999ADDGF107991999999999999999999MA1102711999999MW1611REMMET075METAR EDDC 041150Z 28012KT 9999 -RA SCT015 SCT022 BKN035 08/06 Q1027 NOSIG;
0126104880999992013010412204+51133+013750FM-15+0232EDDC V0202701N003110054019N0080001N1+00801+00601999999ADDGF107991999999999999999999MA1102711999999MW1631REMMET067METAR EDDC 041220Z 27006KT 8000 RA BKN018 BKN036 08/06 Q1027 NOSIG;
0147104880999992013010412504+51133+013750FM-15+0232EDDC V0202601N003610036019N0080001N1+00801+00701999999ADDGF107991999999999999999999MA1102611999999MW1611REMMET088METAR EDDC 041250Z 26007KT 8000 -RA BKN012 BKN023 08/07 Q1026 RERA TEMPO 4000 RA BKN008;
0140104880999992013010413204+51133+013750FM-15+0232EDDC V0202601N003610030019N0060001N1+00801+00701999999ADDGF107991999999999999999999MA1102511999999MW1611REMMET081METAR EDDC 041320Z 26007KT 6000 -RA BKN010 08/07 Q1025 RERA TEMPO 4000 RA BKN008;
0137104880999992013010413504+51133+013750FM-15+0232EDDC V0202601N004110036019N0060001N1+00801+00701999999ADDGF107991999999999999999999MA1102511999999MW1611REMMET078METAR EDDC 041350Z 26008KT 6000 -RA SCT009 BKN012 08/07 Q1025 RERA TEMPO 4000;
0148104880999992013010414204+51133+013750FM-15+0232EDDC V0202701N005110018019N0030001N1+00801+00801999999ADDGF107991999999999999999999MA1102401999999MW1101MW2531MW3631REMMET077METAR EDDC 041420Z 27010KT 3000 RADZ BR FEW004 BKN006 08/08 Q1024 TEMPO 5000;
0141104880999992013010414504+51133+013750FM-15+0232EDDC V0202701N006210015019N0060001N1+00901+00801999999ADDGF107991999999999999999999MA1102401999999MW1511MW2611REMMET076METAR EDDC 041450Z 27012KT 6000 -RADZ BKN005 09/08 Q1024 RERA TEMPO 4000 RA;
0155104880999992013010415204+51133+013750FM-15+0232EDDC V0202801N006210018019N0070001N1+00901+00801999999ADDGF107991999999999999999999MA1102301999999MW1511MW2611REMMET090METAR EDDC 041520Z 28012KT 7000 -RADZ BKN006 BKN010 09/08 Q1023 RERA TEMPO 4000 RA BKN004;
0125104880999992013010415504+51133+013750FM-15+0232EDDC V0202801N006210021019N0112651N1+00901+00801999999ADDGF107991999999999999999999MA1102301999999REMMET072METAR EDDC 041550Z 28012KT 9999 BKN007 09/08 Q1023 TEMPO 4000 RA BKN004;
0155104880999992013010416204+51133+013750FM-15+0232EDDC V0202901N007710018019N0050001N1+00901+00801999999ADDGF107991999999999999999999MA1102301999999MW1101MW2611OC101291REMMET082METAR EDDC 041620Z 29015G25KT 5000 -RA BR BKN006 09/08 Q1023 TEMPO 4000 RA BKN004;
0149104880999992013010416504+51133+013750FM-15+0232EDDC V0202901N007210018019N0070001N1+00901+00801999999ADDGF107991999999999999999999MA1102301999999MW1611REMMET090METAR EDDC 041650Z 29014KT 7000 -RA SCT003 BKN006 BKN012 09/08 Q1023 TEMPO 4000 RA BKN004;
0145104880999992013010417204+51133+013750FM-15+0232EDDC V0203001N007710018019N0112651N1+00901+00801999999ADDGF107991999999999999999999MA1102301999999MW1611OC101291REMMET078METAR EDDC 041720Z 30015G25KT 9999 -RA BKN006 BKN009 09/08 Q1023 TEMPO BKN004;
0152104880999992013010417504+51133+013750FM-15+0232EDDC V0203001N008210018019N0112651N1+00901+00801999999ADDGF107991999999999999999999MA1102301999999MW1611OC101341REMMET085METAR EDDC 041750Z 30016G26KT 9999 -RA FEW003 BKN006 BKN009 09/08 Q1023 TEMPO BKN004;
0138104880999992013010418204+51133+013750FM-15+0232EDDC V0203001N008210024019N0112651N1+00901+00801999999ADDGF107991999999999999999999MA1102301999999MW1611OC101491REMMET071METAR EDDC 041820Z 30016G29KT 9999 -RA FEW003 BKN008 09/08 Q1023 NOSIG;
0120104880999992013010418504+51133+013750FM-15+0232EDDC V0203001N009310024019N0112651N1+00901+00801999999ADDGF107991999999999999999999MA1102301999999MW1611REMMET061METAR EDDC 041850Z 30018KT 9999 -RA BKN008 09/08 Q1023 NOSIG;
0121104880999992013010419204+51133+013750FM-15+0232EDDC V0203001N009310027019N0112651N1+00901+00801999999ADDGF107991999999999999999999MA1102201999999OC101441REMMET060METAR EDDC 041920Z 30018G28KT 9999 BKN009 09/08 Q1022 NOSIG;
0141104880999992013010419504+51133+013750FM-15+0232EDDC V0203001N009810021019N0080001N1+00901+00801999999ADDGF107991999999999999999999MA1102201999999MW1631OC101591REMMET074METAR EDDC 041950Z 30019G31KT 8000 RA SCT003 BKN007 09/08 Q1022 BECMG NSW;
0141104880999992013010420204+51133+013750FM-15+0232EDDC V0203001N008710024019N0090001N1+00901+00801999999ADDGF107991999999999999999999MA1102201999999MW1631OC101391REMMET074METAR EDDC 042020Z 30017G27KT 9000 RA SCT003 BKN008 09/08 Q1022 BECMG NSW;
0151104880999992013010420504+51133+013750FM-15+0232EDDC V0203001N010310024019N0080001N1+00901+00801999999ADDGF107991999999999999999999MA1102201999999MW1511MW2611OC101541REMMET078METAR EDDC 042050Z 30020G30KT 8000 -RADZ SCT003 BKN008 09/08 Q1022 RERA NOSIG;
0140104880999992013010421204+51133+013750FM-15+0232EDDC V0203001N009310021019N0080001N1+00901+00701999999ADDGF107991999999999999999999MA1102201999999MW1511MW2611OC101701REMMET067METAR EDDC 042120Z 30018G33KT 8000 -RADZ SCT003 BKN007 09/07 Q1022;
0148104880999992013010421504+51133+013750FM-15+0232EDDC V0203001N009310018019N0050001N1+00801+00701999999ADDGF107991999999999999999999MA1102201999999MW1101MW2531MW3631OC101541REMMET069METAR EDDC 042150Z 30018G30KT 5000 RADZ BR SCT003 BKN006 08/07 Q1022;
0136104880999992013010422204+51133+013750FM-15+0232EDDC V0203001N009310012019N0050001N1+00801+00701999999ADDGF107991999999999999999999MA1102201999999MW1101MW2531REMMET071METAR EDDC 042220Z 30018KT 5000 DZ BR FEW003 BKN004 BKN007 08/07 Q1022;
0140104880999992013010422504+51133+013750FM-15+0232EDDC V0203101N008710012019N0042001N1+00801+00701999999ADDGF107991999999999999999999MA1102201999999MW1101MW2531OC101391REMMET067METAR EDDC 042250Z 31017G27KT 4200 DZ BR BKN004 BKN008 08/07 Q1022;
0133104880999992013010423204+51133+013750FM-15+0232EDDC V0203001N008710012019N0040001N1+00801+00701999999ADDGF107991999999999999999999MA1102201999999MW1101MW2531OC101491REMMET060METAR EDDC 042320Z 30017G29KT 4000 DZ BR BKN004 08/07 Q1022;
0130104880999992013010423504+51133+013750FM-15+0232EDDC V0203001N008210012019N0060001N1+00801+00701999999ADDGF107991999999999999999999MA1102201999999MW1511OC101441REMMET063METAR EDDC 042350Z 30016G28KT 6000 -DZ BKN004 08/07 Q1022 REDZ;
0114104880999992013010500204+51133+013750FM-15+0232EDDC V0203001N008710012019N0060001N1+00801+00701999999ADDGF107991999999999999999999MA1102201999999MW1511REMMET055METAR EDDC 050020Z 30017KT 6000 -DZ BKN004 08/07 Q1022;
0129104880999992013010500504+51133+013750FM-15+0232EDDC V0203101N008210012019N0041001N1+00801+00701999999ADDGF107991999999999999999999MA1102201999999MW1101MW2531REMMET064METAR EDDC 050050Z 31016KT 4100 DZ BR FEW003 BKN004 08/07 Q1022;
0135104880999992013010501204+51133+013750FM-15+0232EDDC V0203001N007210012019N0040001N1+00801+00701999999ADDGF107991999999999999999999MA1102201999999MW1101MW2511REMMET070METAR EDDC 050120Z 30014KT 4000 -DZ BR FEW003 BKN004 08/07 Q1022 REDZ;
0130104880999992013010501504+51133+013750FM-15+0232EDDC V0203101N008210012019N0040001N1+00801+00701999999ADDGF107991999999999999999999MA1102201999999MW1101MW2511REMMET065METAR EDDC 050150Z 31016KT 4000 -DZ BR SCT003 BKN004 08/07 Q1022;
0130104880999992013010502204+51133+013750FM-15+0232EDDC V0203001N006710012019N0040001N1+00801+00701999999ADDGF107991999999999999999999MA1102301999999MW1101MW2511REMMET065METAR EDDC 050220Z 30013KT 4000 -DZ BR SCT003 BKN004 08/07 Q1023;
0123104880999992013010502504+51133+013750FM-15+0232EDDC V0203001N006210009019N0037001N1+00801+00701999999ADDGF107991999999999999999999MA1102301999999MW1101MW2511REMMET058METAR EDDC 050250Z 30012KT 3700 -DZ BR BKN003 08/07 Q1023;
0141104880999992013010503204+51133+013750FM-15+0232EDDC V0203101N006710012019N0037001N1+00801+00701999999ADDGF107991999999999999999999MA1102301999999MW1101MW2511OC101181REMMET068METAR EDDC 050320Z 31013G23KT 3700 -DZ BR FEW002 BKN004 08/07 Q1023;
0121104880999992013010503504+51133+013750FM-15+0232EDDC V0203101N006710012019N0060001N1+00801+00701999999ADDGF107991999999999999999999MA1102301999999MW1511REMMET062METAR EDDC 050350Z 31013KT 6000 -DZ FEW002 BKN004 08/07 Q1023;
0121104880999992013010504204+51133+013750FM-15+0232EDDC V0203101N007210018019N0070001N1+00801+00701999999ADDGF107991999999999999999999MA1102301999999MW1511REMMET062METAR EDDC 050420Z 31014KT 7000 -DZ SCT004 BKN006 08/07 Q1023;
0134104880999992013010504504+51133+013750FM-15+0232EDDC V0203101N006710015019N0112651N1+00801+00701999999ADDGF107991999999999999999999MA1102301999999MW1611REMMET075METAR EDDC 050450Z 31013KT 9999 -RA BKN005 BKN009 08/07 Q1023 TEMPO BKN010;
0149104880999992013010505204+51133+013750FM-15+0232EDDC V0203101N007210030019N0090001N1+00701+00701999999ADDGF107991999999999999999999MA1102301999999MW1511MW2611REMMET084METAR EDDC 050520Z 31014KT 9000 -RADZ FEW004 BKN010 BKN030 07/07 Q1023 TEMPO BKN008;
0142104880999992013010505504+51133+013750FM-15+0232EDDC V0203101N006210024019N0080001N1+00701+00701999999ADDGF107991999999999999999999MA1102301999999MW1511MW2611REMMET077METAR EDDC 050550Z 31012KT 8000 -RADZ FEW004 BKN008 07/07 Q1023 TEMPO BKN004;
0142104880999992013010506204+51133+013750FM-15+0232EDDC V0203201N005110021019N0070001N1+00701+00701999999ADDGF107991999999999999999999MA1102401999999MW1511MW2611REMMET077METAR EDDC 050620Z 32010KT 7000 -RADZ SCT004 BKN007 07/07 Q1024 TEMPO BKN004;
0142104880999992013010506504+51133+013750FM-15+0232EDDC V0203201N004610024019N0070001N1+00701+00701999999ADDGF107991999999999999999999MA1102301999999MW1511MW2611REMMET077METAR EDDC 050650Z 32009KT 7000 -RADZ SCT004 BKN008 07/07 Q1023 TEMPO BKN004;
0142104880999992013010507204+51133+013750FM-15+0232EDDC V0203201N005110018019N0070001N1+00701+00601999999ADDGF107991999999999999999999MA1102401999999MW1511MW2611REMMET077METAR EDDC 050720Z 32010KT 7000 -RADZ SCT004 BKN006 07/06 Q1024 TEMPO BKN004;
0134104880999992013010507504+51133+013750FM-15+0232EDDC V0203201N005110021019N0070001N1+00701+00601999999ADDGF107991999999999999999999MA1102401999999MW1511REMMET075METAR EDDC 050750Z 32010KT 7000 -DZ SCT004 BKN007 07/06 Q1024 TEMPO BKN004;
0117104880999992013010508204+51133+013750FM-15+0232EDDC V0203301N005710024019N0080001N1+00701+00601999999ADDGF107991999999999999999999MA1102401999999REMMET064METAR EDDC 050820Z 33011KT 8000 FEW005 BKN008 07/06 Q1024 NOSIG;
0117104880999992013010508504+51133+013750FM-15+0232EDDC V0203201N006710027019N0090001N1+00701+00601999999ADDGF107991999999999999999999MA1102401999999REMMET064METAR EDDC 050850Z 32013KT 9000 FEW005 BKN009 07/06 Q1024 NOSIG;
0127104880999992013010509204+51133+013750FM-15+0232EDDC V0203301N006210027019N0080001N1+00701+00601999999ADDGF107991999999999999999999MA1102511999999MW1511REMMET068METAR EDDC 050920Z 33012KT 8000 -DZ SCT005 BKN009 07/06 Q1025 NOSIG;
0127104880999992013010509504+51133+013750FM-15+0232EDDC V0203301N006210024019N0080001N1+00701+00601999999ADDGF107991999999999999999999MA1102511999999MW1511REMMET068METAR EDDC 050950Z 33012KT 8000 -DZ SCT005 BKN008 07/06 Q1025 NOSIG;
0135104880999992013010510204+51133+013750FM-15+0232EDDC V0203601N005710024019N0080001N1+00601+00501999999ADDGF107991999999999999999999MA1102511999999MW1511MW2611REMMET070METAR EDDC 051020Z 36011KT 8000 -RADZ SCT005 BKN008 06/05 Q1025 NOSIG;
0146104880999992013010510504+51133+013750FM-15+0232EDDC V0203501N004610021019N0060001N1+00601+00601999999ADDGF107991999999999999999999MA1102511999999MW1531MW2631REMMET081METAR EDDC 051050Z 35009KT 6000 RADZ SCT004 BKN007 06/06 Q1025 TEMPO 4000 BKN004;
0142104880999992013010511204+51133+013750FM-15+0232EDDC V0203501N005110027019N0070001N1+00601+00501999999ADDGF107991999999999999999999MA1102511999999MW1511MW2611REMMET077METAR EDDC 051120Z 35010KT 7000 -RADZ SCT005 BKN009 06/05 Q1025 TEMPO BKN010;
0134104880999992013010511504+51133+013750FM-15+0232EDDC V0203501N005110027019N0080001N1+00601+00601999999ADDGF107991999999999999999999MA1102511999999MW1511REMMET075METAR EDDC 051150Z 35010KT 8000 -DZ FEW005 BKN009 06/06 Q1025 TEMPO BKN010;
0127104880999992013010512204+51133+013750FM-15+0232EDDC V0203501N004610027019N0090001N1+00601+00501999999ADDGF107991999999999999999999MA1102511999999MW1511REMMET068METAR EDDC 051220Z 35009KT 9000 -DZ BKN009 06/05 Q1025 TEMPO BKN010;
0127104880999992013010512504+51133+013750FM-15+0232EDDC V0203501N005710027019N0080001N1+00601+00501999999ADDGF107991999999999999999999MA1102511999999MW1511REMMET068METAR EDDC 051250Z 35011KT 8000 -DZ BKN009 06/05 Q1025 TEMPO BKN010;
0124104880999992013010513204+51133+013750FM-15+0232EDDC V0203401N005110051019N0090001N1+00601+00501999999ADDGF108991999999999999999999MA1102511999999REMMET071METAR EDDC 051320Z 34010KT 9000 SCT009 OVC017 06/05 Q1025 TEMPO BKN010;
0120104880999992013010513504+51133+013750FM-15+0232EDDC V0203401N005110027019N0080001N1+00601+00501999999ADDGF107991999999999999999999MA1102611999999MW1511REMMET061METAR EDDC 051350Z 34010KT 8000 -DZ BKN009 06/05 Q1026 NOSIG;
0120104880999992013010514204+51133+013750FM-15+0232EDDC V0203401N005110021019N0070001N1+00601+00501999999ADDGF107991999999999999999999MA1102611999999MW1511REMMET061METAR EDDC 051420Z 34010KT 7000 -DZ BKN007 06/05 Q1026 NOSIG;
0120104880999992013010514504+51133+013750FM-15+0232EDDC V0203401N005110024019N0070001N1+00601+00501999999ADDGF107991999999999999999999MA1102611999999MW1511REMMET061METAR EDDC 051450Z 34010KT 7000 -DZ BKN008 06/05 Q1026 NOSIG;
0132104880999992013010515204+51133+013750FM-15+0232EDDC V0203601N004610015019N0060001N1+00601+00501999999ADDGF107991999999999999999999MA1102611999999MW1511REMMET073METAR EDDC 051520Z 36009KT 6000 -DZ BKN005 06/05 Q1026 TEMPO 4000 -DZ BR;
0120104880999992013010515504+51133+013750FM-15+0232EDDC V0203501N003110018019N0070001N1+00601+00501999999ADDGF107991999999999999999999MA1102611999999MW1511REMMET061METAR EDDC 051550Z 35006KT 7000 -DZ BKN006 06/05 Q1026 NOSIG;
0120104880999992013010516204+51133+013750FM-15+0232EDDC V0203501N004110015019N0070001N1+00501+00501999999ADDGF107991999999999999999999MA1102611999999MW1511REMMET061METAR EDDC 051620Z 35008KT 7000 -DZ BKN005 05/05 Q1026 NOSIG;
0117104880999992013010516504+51133+013750FM-15+0232EDDC V0203401N003610015019N0080001N1+00501+00501999999ADDGF108991999999999999999999MA1102611999999REMMET064METAR EDDC 051650Z 34007KT 8000 BKN005 OVC014 05/05 Q1026 NOSIG;
0127104880999992013010517204+51133+013750FM-15+0232EDDC V0203401N003610015019N0070001N1+00501+00501999999ADDGF108991999999999999999999MA1102711999999MW1511REMMET068METAR EDDC 051720Z 34007KT 7000 -DZ BKN005 OVC015 05/05 Q1027 NOSIG;
0146104880999992013010517504+51133+013750FM-15+0232EDDC V0203401N003610015019N0060001N1+00501+00501999999ADDGF107991999999999999999999MA1102711999999MW1511REMMET087METAR EDDC 051750Z 34007KT 6000 -DZ SCT002 BKN005 05/05 Q1027 TEMPO 4000 -DZ BR BKN004;
0153104880999992013010518204+51133+013750FM-15+0232EDDC V0203301N00361000901CN0060001N1+00501+00501999999ADDGF107991999999999999999999MA1102711999999MW1511REMMET094METAR EDDC 051820Z 33007KT 6000 -DZ FEW002 SCT003 BKN006 05/05 Q1027 TEMPO 4000 -DZ BR BKN004;
0131104880999992013010518504+51133+013750FM-15+0232EDDC V0203301N003610009019N0080001N1+00501+00501999999ADDGF107991999999999999999999MA1102711999999REMMET078METAR EDDC 051850Z 33007KT 8000 BKN003 BKN021 05/05 Q1027 TEMPO SCT003 BKN012;
0139104880999992013010519204+51133+013750FM-15+0232EDDC V0203301N003110009019N0060001N1+00501+00501999999ADDGF107991999999999999999999MA1102711999999MW1511REMMET080METAR EDDC 051920Z 33006KT 6000 -DZ FEW002 BKN003 05/05 Q1027 TEMPO 4000 -DZ BR;
0139104880999992013010519504+51133+013750FM-15+0232EDDC V0203401N003110009019N0060001N1+00501+00501999999ADDGF107991999999999999999999MA1102711999999MW1511REMMET080METAR EDDC 051950Z 34006KT 6000 -DZ FEW002 BKN003 05/05 Q1027 TEMPO 4000 -DZ BR;
0139104880999992013010520204+51133+013750FM-15+0232EDDC V0203401N002610009019N0060001N1+00501+00501999999ADDGF107991999999999999999999MA1102711999999MW1511REMMET080METAR EDDC 052020Z 34005KT 6000 -DZ FEW002 BKN003 05/05 Q1027 TEMPO 4000 -DZ BR;
0148104880999992013010520504+51133+013750FM-15+0232EDDC V0203301N002610012019N0050001N1+00501+00501999999ADDGF107991999999999999999999MA1102711999999MW1101MW2511REMMET083METAR EDDC 052050Z 33005KT 5000 -DZ BR SCT002 BKN004 05/05 Q1027 TEMPO 4000 -DZ BR;
0130104880999992013010521204+51133+013750FM-15+0232EDDC V0203201N002610009019N0050001N1+00501+00501999999ADDGF107991999999999999999999MA1102711999999MW1101MW2511REMMET065METAR EDDC 052120Z 32005KT 5000 -DZ BR SCT002 BKN003 05/05 Q1027;
0130104880999992013010521504+51133+013750FM-15+0232EDDC V0203301N002110009019N0040001N1+00501+00501999999ADDGF107991999999999999999999MA1102711999999MW1101MW2511REMMET065METAR EDDC 052150Z 33004KT 4000 -DZ BR SCT002 BKN003 05/05 Q1027;
0127104880999992013010522204+51133+013750FM-15+0232EDDC V0203301N002610009019N0037001N1+00501+00501999999ADDGF107991999999999999999999MA1102711999999MW1101REMMET068METAR EDDC 052220Z 33005KT 3700 BR FEW002 BKN003 BKN011 05/05 Q1027;
0130104880999992013010522504+51133+013750FM-15+0232EDDC V0203101N002110009019N0042001N1+00501+00501999999ADDGF107991999999999999999999MA1102611999999MW1101MW2511REMMET065METAR EDDC 052250Z 31004KT 4200 -DZ BR BKN003 BKN009 05/05 Q1026;
0137104880999992013010523204+51133+013750FM-15+0232EDDC V0203101N002610006019N0030001N1+00501+00501999999ADDGF107991999999999999999999MA1102611999999MW1101MW2511REMMET072METAR EDDC 052320Z 31005KT 3000 -DZ BR FEW001 BKN002 BKN004 05/05 Q1026;
0131104880999992013010523504+51133+013750FM-15+0232EDDC V0203101N002610006019N0025001N1+00501+00501999999ADDGF107991999999999999999999MA1102611999999MW1101MW2511MW3611REMMET060METAR EDDC 052350Z 31005KT 2500 -RADZ BR BKN002 05/05 Q1026;
0149104880999992013010600204+51133+013750FM-15+0232EDDC V0203201N002610003019N0012001N1+00501+00501999999ADDGF107991999999999999999999MA1102611999999MW1101MW2511MW3611REMMET078METAR EDDC 060020Z 32005KT 1200 R22/P2000N -RADZ BR BKN001 BKN003 05/05 Q1026;
0138104880999992013010600504+51133+013750FM-15+0232EDDC V0203001N002110003019N0020001N1+00501+00501999999ADDGF107991999999999999999999MA1102611999999MW1101MW2511MW3611REMMET067METAR EDDC 060050Z 30004KT 2000 -RADZ BR BKN001 BKN003 05/05 Q1026;
0138104880999992013010601204+51133+013750FM-15+0232EDDC V0203001N002110003019N0026001N1+00501+00501999999ADDGF107991999999999999999999MA1102611999999MW1101MW2511MW3611REMMET067METAR EDDC 060120Z 30004KT 2600 -RADZ BR BKN001 BKN003 05/05 Q1026;
0129104880999992013010601504+51133+013750FM-15+0232EDDC V0203001N002110003019N0025001N1+00501+00501999999ADDGF107991999999999999999999MA1102611999999MW1101MW2531REMMET064METAR EDDC 060150Z 30004KT 2500 DZ BR BKN001 BKN003 05/05 Q1026;
0129104880999992013010602204+51133+013750FM-15+0232EDDC V0202901N002110009019N0032001N1+00501+00501999999ADDGF107991999999999999999999MA1102611999999MW1101MW2531REMMET064METAR EDDC 060220Z 29004KT 3200 DZ BR SCT001 BKN003 05/05 Q1026;
0129104880999992013010602504+51133+013750FM-15+0232EDDC V0202901N002110009019N0030001N1+00501+00501999999ADDGF107991999999999999999999MA1102511999999MW1101MW2531REMMET064METAR EDDC 060250Z 29004KT 3000 DZ BR SCT001 BKN003 05/05 Q1025;
0129104880999992013010603204+51133+013750FM-15+0232EDDC V0203001N004110003019N0017001N1+00601+00601999999ADDGF107991999999999999999999MA1102511999999MW1101MW2531REMMET064METAR EDDC 060320Z 30008KT 1700 DZ BR BKN001 BKN003 06/06 Q1025;
0129104880999992013010603504+51133+013750FM-15+0232EDDC V0203001N004610009019N0019001N1+00601+00601999999ADDGF107991999999999999999999MA1102401999999MW1101MW2531REMMET064METAR EDDC 060350Z 30009KT 1900 DZ BR SCT001 BKN003 06/06 Q1024;
0129104880999992013010604204+51133+013750FM-15+0232EDDC V0203001N003610009019N0028001N1+00601+00601999999ADDGF107991999999999999999999MA1102401999999MW1101MW2531REMMET064METAR EDDC 060420Z 30007KT 2800 DZ BR BKN003 BKN005 06/06 Q1024;
0141104880999992013010604504+51133+013750FM-15+0232EDDC V0202901N004110009019N0028001N1+00501+00501999999ADDGF107991999999999999999999MA1102401999999MW1101MW2511REMMET076METAR EDDC 060450Z 29008KT 2800 -DZ BR BKN003 05/05 Q1024 REDZ TEMPO BKN005;
0144104880999992013010605204+51133+013750FM-15+0232EDDC V0203001N005710012019N0050001N1+00501+00501999999ADDGF107991999999999999999999MA1102401999999MW1101MW2511REMMET079METAR EDDC 060520Z 30011KT 5000 -DZ BR SCT002 BKN004 05/05 Q1024 TEMPO 2000 DZ;
0137104880999992013010605504+51133+013750FM-15+0232EDDC V0203001N005710009019N0042001N1+00501+00501999999ADDGF107991999999999999999999MA1102401999999MW1101MW2511REMMET072METAR EDDC 060550Z 30011KT 4200 -DZ BR BKN003 05/05 Q1024 TEMPO 2000 DZ;
0127104880999992013010606204+51133+013750FM-15+0232EDDC V0203001N005710021019N0080001N1+00501+00501999999ADDGF107991999999999999999999MA1102401999999MW1511REMMET068METAR EDDC 060620Z 30011KT 8000 -DZ SCT004 BKN007 05/05 Q1024 NOSIG;
0129104880999992013010606504+51133+013750FM-15+0232EDDC V0202901N005710009019N0035001N1+00501+00501999999ADDGF107991999999999999999999MA1102401999999MW1101MW2511REMMET064METAR EDDC 060650Z 29011KT 3500 -DZ BR BKN003 05/05 Q1024 NOSIG;
0144104880999992013010607204+51133+013750FM-15+0232EDDC V0202901N005710012019N0050001N1+00501+00501999999ADDGF107991999999999999999999MA1102401999999MW1101MW2511REMMET079METAR EDDC 060720Z 29011KT 5000 -DZ BR BKN004 BKN006 05/05 Q1024 TEMPO 4000 DZ;
0129104880999992013010607504+51133+013750FM-15+0232EDDC V0203001N005710009019N0038001N1+00501+00401999999ADDGF107991999999999999999999MA1102401999999MW1101MW2511REMMET064METAR EDDC 060750Z 30011KT 3800 -DZ BR BKN003 05/04 Q1024 NOSIG;
0129104880999992013010608204+51133+013750FM-15+0232EDDC V0202901N004110009019N0032001N1+00501+00501999999ADDGF107991999999999999999999MA1102401999999MW1101MW2511REMMET064METAR EDDC 060820Z 29008KT 3200 -DZ BR BKN003 05/05 Q1024 NOSIG;
0146104880999992013010608504+51133+013750FM-15+0232EDDC V0202901N004110009019N0046001N1+00501+00501999999ADDGF107991999999999999999999MA1102301999999MW1101MW2511REMMET081METAR EDDC 060850Z 29008KT 4600 -DZ BR BKN003 BKN005 05/05 Q1023 REDZ TEMPO 5000;
0117104880999992013010609204+51133+013750FM-15+0232EDDC V0203001N006210021019N0112651N1+00501+00501999999ADDGF107991999999999999999999MA1102301999999REMMET064METAR EDDC 060920Z 30012KT 9999 FEW005 BKN007 05/05 Q1023 NOSIG;
0117104880999992013010609504+51133+013750FM-15+0232EDDC V0202801N004610027019N0090001N1+00501+00501999999ADDGF107991999999999999999999MA1102301999999REMMET064METAR EDDC 060950Z 28009KT 9000 FEW007 BKN009 05/05 Q1023 NOSIG;
0125104880999992013010610204+51133+013750FM-15+0232EDDC V0202901N005110027019N0090001N1+00501+00501999999ADDGF107991999999999999999999MA1102201999999REMMET072METAR EDDC 061020Z 29010KT 9000 FEW006 BKN009 05/05 Q1022 TEMPO 4000 DZ;
0148104880999992013010610504+51133+013750FM-15+0232EDDC V0202901N005110018019N0042001N1+00501+00501999999ADDGF107991999999999999999999MA1102201999999MW1101MW2511REMMET083METAR EDDC 061050Z 29010KT 4200 -DZ BR SCT003 BKN006 05/05 Q1022 REDZ TEMPO BKN004;
0149104880999992013010611204+51133+013750FM-15+0232EDDC V0203001N006210024019N0050001N1+00601+00501999999ADDGF107991999999999999999999MA1102101999999MW1101MW2511REMMET084METAR EDDC 061120Z 30012KT 5000 -DZ BR SCT005 BKN008 06/05 Q1021 REDZ TEMPO 4000 DZ;
0135104880999992013010611504+51133+013750FM-15+0232EDDC V0202901N005110021019N0042001N1+00501+00501999999ADDGF107991999999999999999999MA1102101999999MW1101MW2531REMMET070METAR EDDC 061150Z 29010KT 4200 DZ BR SCT005 BKN007 05/05 Q1021 NOSIG;
0135104880999992013010612204+51133+013750FM-15+0232EDDC V0202901N004610024019N0035001N1+00601+00501999999ADDGF107991999999999999999999MA1102101999999MW1101MW2531REMMET070METAR EDDC 061220Z 29009KT 3500 DZ BR SCT004 BKN008 06/05 Q1021 NOSIG;
0135104880999992013010612504+51133+013750FM-15+0232EDDC V0202901N004110009019N0032001N1+00601+00601999999ADDGF107991999999999999999999MA1102101999999MW1101MW2531REMMET070METAR EDDC 061250Z 29008KT 3200 DZ BR BKN003 BKN007 06/06 Q1021 NOSIG;
0143104880999992013010613204+51133+013750FM-15+0232EDDC V0203001N004610009019N0030001N1+00601+00501999999ADDGF107991999999999999999999MA1102001999999MW1101MW2531MW3631REMMET072METAR EDDC 061320Z 30009KT 3000 RADZ BR BKN003 BKN006 06/05 Q1020 NOSIG;
0152104880999992013010613504+51133+013750FM-15+0232EDDC V0203001N008210024019N0070001N1+00601+00501999999ADDGF107991999999999999999999MA1102001999999MW1511MW2611REMMET087METAR EDDC 061350Z 30016KT 7000 -RADZ SCT005 BKN008 06/05 Q1020 RERA TEMPO 4000 BKN004;
0154104880999992013010614204+51133+013750FM-15+0232EDDC V0203101N006710024019N0070001N1+00601+00501999999ADDGF107991999999999999999999MA1102001999999MW1511MW2611REMMET089METAR EDDC 061420Z 31013KT 7000 -RADZ FEW004 BKN008 BKN023 06/05 Q1020 TEMPO 4000 BKN004;
0168104880999992013010614504+51133+013750FM-15+0232EDDC V0203201N005710012019N0070001N1+00601+00501999999ADDGF107991999999999999999999MA1102001999999MW1511MW2611OC101081REMMET095METAR EDDC 061450Z 32011G21KT 7000 -DZRA BKN004 BKN008 06/05 Q1020 TEMPO 4000 BR SCT004 BKN006;
0166104880999992013010615204+51133+013750FM-15+0232EDDC V0203101N007210012019N0050001N1+00601+00501999999ADDGF107991999999999999999999MA1102001999999MW1101MW2511MW3611REMMET095METAR EDDC 061520Z 31014KT 5000 -DZRA BR BKN004 BKN007 06/05 Q1020 TEMPO 4000 BR SCT004 BKN006;
0159104880999992013010615504+51133+013750FM-15+0232EDDC V0203101N006710018019N0050001N1+00601+00501999999ADDGF107991999999999999999999MA1102101999999MW1101MW2511MW3611REMMET088METAR EDDC 061550Z 31013KT 5000 -DZRA BR SCT003 BKN006 06/05 Q1021 TEMPO 4000 BR BKN004;
0150104880999992013010616204+51133+013750FM-15+0232EDDC V0203201N005110024019N0060001N1+00601+00501999999ADDGF107991999999999999999999MA1102101999999MW1511MW2611REMMET085METAR EDDC 061620Z 32010KT 6000 -RADZ SCT004 BKN008 06/05 Q1021 TEMPO 4000 BR BKN004;
0155104880999992013010616504+51133+013750FM-15+0232EDDC V0203201N004610009019N0044001N1+00601+00601999999ADDGF107991999999999999999999MA1102101999999MW1101MW2511REMMET090METAR EDDC 061650Z 32009KT 4400 -DZ BR BKN003 BKN006 06/06 Q1021 RERA TEMPO SCT003 BKN008;
0143104880999992013010617204+51133+013750FM-15+0232EDDC V0203101N005110009019N0046001N1+00601+00601999999ADDGF107991999999999999999999MA1102101999999MW1101MW2511REMMET078METAR EDDC 061720Z 31010KT 4600 -DZ BR BKN003 06/06 Q1021 TEMPO SCT003 BKN008;
0144104880999992013010617504+51133+013750FM-15+0232EDDC V0203201N005110009019N0042001N1+00601+00601999999ADDGF107991999999999999999999MA1102101999999MW1101MW2511REMMET079METAR EDDC 061750Z 32010KT 4200 -DZ BR SCT002 BKN003 06/06 Q1021 REDZ TEMPO DZ;
0139104880999992013010618204+51133+013750FM-15+0232EDDC V0203201N005710009019N0042001N1+00601+00601999999ADDGF107991999999999999999999MA1102101999999MW1101MW2511REMMET074METAR EDDC 061820Z 32011KT 4200 -DZ BR SCT002 BKN003 06/06 Q1021 TEMPO DZ;
0139104880999992013010618504+51133+013750FM-15+0232EDDC V0203201N004610009019N0040001N1+00601+00601999999ADDGF107991999999999999999999MA1102101999999MW1101MW2531REMMET074METAR EDDC 061850Z 32009KT 4000 DZ BR FEW002 BKN003 06/06 Q1021 TEMPO NSW;
0149104880999992013010619204+51133+013750FM-15+0232EDDC V0203201N004110009019N0048001N1+00601+00601999999ADDGF107991999999999999999999MA1102201999999MW1101MW2511MW3611REMMET078METAR EDDC 061920Z 32008KT 4800 -RADZ BR FEW002 BKN003 06/06 Q1022 REDZ NOSIG;
0152104880999992013010619504+51133+013750FM-15+0232EDDC V0203201N005110009019N0048001N1+00601+00601999999ADDGF107991999999999999999999MA1102201999999MW1101MW2531MW3631REMMET081METAR EDDC 061950Z 32010KT 4800 RADZ BR SCT002 BKN003 06/06 Q1022 TEMPO 5000 -RA;
0152104880999992013010620204+51133+013750FM-15+0232EDDC V0203201N004610009019N0048001N1+00701+00701999999ADDGF107991999999999999999999MA1102201999999MW1101MW2531MW3631REMMET081METAR EDDC 062020Z 32009KT 4800 RADZ BR SCT002 BKN003 07/07 Q1022 TEMPO 5000 -RA;
0141104880999992013010620504+51133+013750FM-15+0232EDDC V0203201N004110009019N0042001N1+00701+00701999999ADDGF107991999999999999999999MA1102201999999MW1101MW2511REMMET076METAR EDDC 062050Z 32008KT 4200 -DZ BR SCT002 BKN003 07/07 Q1022 RERA NOSIG;
0122104880999992013010621204+51133+013750FM-15+0232EDDC V0203301N003610006019N0033001N1+00601+00601999999ADDGF107991999999999999999999MA1102201999999MW1101MW2531REMMET057METAR EDDC 062120Z 33007KT 3300 DZ BR BKN002 06/06 Q1022;
0129104880999992013010621504+51133+013750FM-15+0232EDDC V0203101N004110006019N0035001N1+00701+00701999999ADDGF107991999999999999999999MA1102201999999MW1101MW2531REMMET064METAR EDDC 062150Z 31008KT 3500 DZ BR BKN002 BKN003 07/07 Q1022;
0129104880999992013010622204+51133+013750FM-15+0232EDDC V0203201N004610009019N0031001N1+00701+00701999999ADDGF107991999999999999999999MA1102201999999MW1101MW2531REMMET064METAR EDDC 062220Z 32009KT 3100 DZ BR SCT002 BKN003 07/07 Q1022;
0135104880999992013010622504+51133+013750FM-15+0232EDDC V0203201N005110009019N0038001N1+00701+00701999999ADDGF107991999999999999999999MA1102201999999MW1101MW2511REMMET070METAR EDDC 062250Z 32010KT 3800 -DZ BR SCT002 BKN003 07/07 Q1022 REDZ;
0130104880999992013010623204+51133+013750FM-15+0232EDDC V0203201N005710009019N0043001N1+00701+00601999999ADDGF107991999999999999999999MA1102301999999MW1101MW2511REMMET065METAR EDDC 062320Z 32011KT 4300 -DZ BR BKN003 BKN008 07/06 Q1023;
0111104880999992013010623504+51133+013750FM-15+0232EDDC V0203301N004110012019N0112651N1+00701+00601999999ADDGF107991999999999999999999MA1102301999999REMMET058METAR EDDC 062350Z 33008KT 9999 BKN004 BKN010 07/06 Q1023;
0121104880999992013010700204+51133+013750FM-15+0232EDDC V0203201N004110015019N0090001N1+00601+00601999999ADDGF107991999999999999999999MA1102301999999MW1511REMMET062METAR EDDC 070020Z 32008KT 9000 -DZ SCT003 BKN005 06/06 Q1023;
0111104880999992013010700504+51133+013750FM-15+0232EDDC V0203201N004610009019N0070001N1+00601+00601999999ADDGF107991999999999999999999MA1102301999999REMMET058METAR EDDC 070050Z 32009KT 7000 BKN003 BKN008 06/06 Q1023;
0111104880999992013010701204+51133+013750FM-15+0232EDDC V0203301N004110009019N0080001N1+00601+00601999999ADDGF107991999999999999999999MA1102301999999REMMET058METAR EDDC 070120Z 33008KT 8000 BKN003 BKN008 06/06 Q1023;
0129104880999992013010701504+51133+013750FM-15+0232EDDC V0200201N004110009019N0080001N1+00601+00501999999ADDGF107991999999999999999999MA1102401999999MW1511MW2611REMMET064METAR EDDC 070150Z 02008KT 8000 -DZRA BKN003 BKN009 06/05 Q1024;
0121104880999992013010702204+51133+013750FM-15+0232EDDC V0200101N002610009019N0060001N1+00501+00501999999ADDGF107991999999999999999999MA1102401999999MW1511REMMET062METAR EDDC 070220Z 01005KT 6000 -DZ BKN003 BKN009 05/05 Q1024;
0120104880999992013010702504+51133+013750FM-15+0232EDDC V0200101N002110009019N0060001N1+00501+00501999999ADDGF107991999999999999999999MA1102401999999MW1531REMMET061METAR EDDC 070250Z 01004KT 6000 DZ SCT002 BKN003 05/05 Q1024;
0123104880999992013010703204+51133+013750FM-15+0232EDDC V0200201N002610009019N0070001N1+00501+00501999999ADDGF107991999999999999999999MA1102401999999REMMET070METAR EDDC 070320Z 02005KT 7000 FEW002 BKN003 BKN006 05/05 Q1024 REDZ;
0129104880999992013010703504+51133+013750FM-15+0232EDDC V0200101N002610006019N0040001N1+00501+00501999999ADDGF107991999999999999999999MA1102401999999MW1101MW2531REMMET064METAR EDDC 070350Z 01005KT 4000 DZ BR FEW001 BKN002 05/05 Q1024;
0143104880999992013010704204+51133+013750FM-15+0232EDDC V0200201N003110009019N0045001N1+00501+00501999999ADDGF107991999999999999999999MA1102401999999MW1101MW2511MW3611REMMET072METAR EDDC 070420Z 02006KT 4500 -RADZ BR SCT002 BKN003 05/05 Q1024 REDZ;
0160104880999992013010704504+51133+013750FM-15+0232EDDC V0200201N003110027019N0050001N1+00401+00401999999ADDGF107991999999999999999999MA1102511999999MW1101MW2511MW3611REMMET089METAR EDDC 070450Z 02006KT 5000 -RADZ BR SCT003 BKN009 04/04 Q1025 TEMPO 4000 -DZ BKN003;
0149104880999992013010705204+51133+013750FM-15+0232EDDC V0200201N002610009019N0050001N1+00401+00401999999ADDGF107991999999999999999999MA1102511999999MW1101MW2511MW3611REMMET078METAR EDDC 070520Z 02005KT 5000 -DZRA BR BKN003 BKN005 04/04 Q1025 TEMPO 3000;
0155104880999992013010705504+51133+013750FM-15+0232EDDC V0203601N00261003001CN0050001N1+00401+00401999999ADDGF107991999999999999999999MA1102511999999MW1101MW2511REMMET090METAR EDDC 070550Z 36005KT 5000 -DZ BR FEW004 SCT010 BKN020 04/04 Q1025 TEMPO 3000 BKN006;
0135104880999992013010706204+51133+013750FM-15+0232EDDC V0203501N002110009019N0050001N1+00401+00401999999ADDGF107991999999999999999999MA1102511999999MW1101REMMET076METAR EDDC 070620Z 35004KT 5000 BR BKN003 BKN008 04/04 Q1025 TEMPO 3000 -DZ;
0145104880999992013010706504+51133+013750FM-15+0232EDDC V0200201N001510009019N0050001N1+00401+00401999999ADDGF107991999999999999999999MA1102511999999MW1101MW2511REMMET080METAR EDDC 070650Z 02003KT 5000 -DZ BR SCT002 BKN003 04/04 Q1025 TEMPO 3000 -DZ;
0141104880999992013010707204+51133+013750FM-15+0232EDDC V0200301N002110009019N0050001N1+00401+00401999999ADDGF107991999999999999999999MA1102511999999MW1101MW2511REMMET076METAR EDDC 070720Z 03004KT 5000 -DZ BR BKN003 BKN005 04/04 Q1025 TEMPO 3000;
0136104880999992013010707504+51133+013750FM-15+0232EDDC V0200301N001510009019N0035001N1+00401+00401999999ADDGF107991999999999999999999MA1102511999999MW1101MW2511REMMET071METAR EDDC 070750Z 03003KT 3500 -DZ BR SCT001 BKN003 04/04 Q1025 NOSIG;
0154104880999992013010708204+51133+013750FM-15+0232EDDC V0200501N002610006019N0010001N1+00401+00401999999ADDGF107991999999999999999999MA1102611999999MW1101MW2511REMMET089METAR EDDC 070820Z 05005KT 1000 R04/P2000N -DZ BR SCT001 BKN002 BKN007 04/04 Q1026 NOSIG;
0136104880999992013010708504+51133+013750FM-15+0232EDDC V0200601N002610003019N0018001N1+00401+00401999999ADDGF107991999999999999999999MA1102611999999MW1101MW2511REMMET071METAR EDDC 070850Z 06005KT 1800 -DZ BR BKN001 BKN002 04/04 Q1026 NOSIG;
0151104880999992013010709204+51133+013750FM-15+0232EDDC V0200801N002610009019N0030001N1+00401+00401999999ADDGF107991999999999999999999MA1102611999999MW1101MW2511MW3611REMMET080METAR EDDC 070920Z 08005KT 3000 -RADZ BR SCT002 BKN003 BKN011 04/04 Q1026 NOSIG;
0135104880999992013010709504+51133+013750FM-15+0232EDDC V0201001N002610009019N0060001N1+00401+00401999999ADDGF107991999999999999999999MA1102611999999MW1511MW2611REMMET070METAR EDDC 070950Z 10005KT 6000 -RADZ BKN003 BKN005 04/04 Q1026 NOSIG;
0141104880999992013010710204+51133+013750FM-15+0232EDDC V0201001N00211001501CN0070001N1+00401+00401999999ADDGF107991999999999999999999MA1102611999999MW1511REMMET082METAR EDDC 071020Z 10004KT 7000 -DZ SCT003 SCT005 BKN026 04/04 Q1026 TEMPO BKN004;
0127104880999992013010710504+51133+013750FM-15+0232EDDC V0201201N001510015019N0070001N1+00401+00301999999ADDGF107991999999999999999999MA1102611999999MW1611REMMET068METAR EDDC 071050Z 12003KT 7000 -RA BKN005 BKN023 04/03 Q1026 NOSIG;
0149104880999992013010711204+51133+013750FM-15+0232EDDC V0200901N001010015019N0070001N1+00401+00301999999ADDGF107991999999999999999999MA1102611999999MW1511MW2611REMMET084METAR EDDC 071120Z 09002KT 7000 -RADZ BKN005 SCT009 BKN023 04/03 Q1026 TEMPO BKN004;
0134104880999992013010711504+51133+013750FM-15+0232EDDC V0200901N002110027019N0070001N1+00401+00301999999ADDGF107991999999999999999999MA1102611999999MW1611REMMET075METAR EDDC 071150Z 09004KT 7000 -RA SCT006 BKN009 BKN021 04/03 Q1026 NOSIG;
0134104880999992013010712204+51133+013750FM-15+0232EDDC V0201101N001510024019N0080001N1+00401+00301999999ADDGF107991999999999999999999MA1102611999999MW1611REMMET075METAR EDDC 071220Z 11003KT 8000 -RA SCT005 BKN008 BKN024 04/03 Q1026 NOSIG;
0127104880999992013010712504+51133+013750FM-15+0232EDDC V0201001N001010018019N0090001N1+00401+00301999999ADDGF107991999999999999999999MA1102611999999MW1611REMMET068METAR EDDC 071250Z 10002KT 9000 -RA SCT003 BKN006 04/03 Q1026 NOSIG;
0127104880999992013010713204+51133+013750FM-15+0232EDDC V0201101N001510021019N0112651N1+00401+00301999999ADDGF107991999999999999999999MA1102611999999MW1611REMMET068METAR EDDC 071320Z 11003KT 9999 -RA SCT005 BKN007 04/03 Q1026 NOSIG;
0127104880999992013010713504+51133+013750FM-15+0232EDDC V0201301N001510015019N0112651N1+00401+00301999999ADDGF107991999999999999999999MA1102611999999MW1611REMMET068METAR EDDC 071350Z 13003KT 9999 -RA SCT003 BKN005 04/03 Q1026 NOSIG;
0150104880999992013010714204+51133+013750FM-15+0232EDDC V0201201N001010018019N0030001N1+00401+00301999999ADDGF107991999999999999999999MA1102611999999MW1101MW2511REMMET085METAR EDDC 071420Z 12002KT 3000 -DZ BR SCT003 BKN006 BKN011 04/03 Q1026 TEMPO BKN003;
0140104880999992013010714504+51133+013750FM-15+0232EDDC V0201901N000510009019N0035001N1+00401+00301999999ADDGF107991999999999999999999MA1102611999999MW1101REMMET081METAR EDDC 071450Z 19001KT 3500 BR FEW001 BKN003 BKN006 04/03 Q1026 BECMG BKN007;
0133104880999992013010715204+51133+013750FM-15+0232EDDC V0201501N001010009019N0050001N1+00401+00401999999ADDGF107991999999999999999999MA1102611999999MW1101REMMET074METAR EDDC 071520Z 15002KT 5000 BR BKN003 BKN007 04/04 Q1026 BECMG BKN007;
0144104880999992013010715504+51133+013750FM-15+0232EDDC V0201701N001010015019N0035001N1+00401+00401999999ADDGF107991999999999999999999MA1102611999999MW1101MW2511REMMET079METAR EDDC 071550Z 17002KT 3500 -DZ BR SCT003 BKN005 04/04 Q1026 TEMPO 2500 DZ;
0136104880999992013010716204+51133+013750FM-15+0232EDDC V0201201N001510006019N0035001N1+00401+00401999999ADDGF107991999999999999999999MA1102611999999MW1101MW2511REMMET071METAR EDDC 071620Z 12003KT 3500 -DZ BR BKN002 BKN006 04/04 Q1026 NOSIG;
0138104880999992013010716504+51133+013750FM-15+0232EDDC V0201501N002610006019N0045001N1+00401+00401999999ADDGF107991999999999999999999MA1102611999999MW1101REMMET079METAR EDDC 071650Z 15005KT 4500 BR BKN002 BKN003 04/04 Q1026 TEMPO 5000 BKN005;
0126104880999992013010717204+51133+013750FM-15+0232EDDC V0201601N001010021019N0050001N1+00401+00401999999ADDGF107991999999999999999999MA1102611999999MW1101REMMET067METAR EDDC 071720Z 16002KT 5000 BR SCT002 BKN007 04/04 Q1026 NOSIG;
0124104880999992013010717504+51133+013750FM-15+0232EDDC V0201601N001010021019N0060001N1+00401+00401999999ADDGF107991999999999999999999MA1102611999999REMMET071METAR EDDC 071750Z 16002KT 6000 FEW003 BKN007 BKN019 04/04 Q1026 NOSIG;
0143104880999992013010718204+51133+013750FM-15+0232EDDC V0201701N002110018019N0046001N1+00401+00301999999ADDGF107991999999999999999999MA1102611999999MW1101MW2511REMMET078METAR EDDC 071820Z 17004KT 4600 -DZ BR SCT003 BKN006 04/03 Q1026 TEMPO BKN003;
0138104880999992013010718504+51133+013750FM-15+0232EDDC V0201901N002610015019N0035001N1+00401+00401999999ADDGF107991999999999999999999MA1102611999999MW1101REMMET079METAR EDDC 071850Z 19005KT 3500 BR SCT002 BKN005 04/04 Q1026 TEMPO 5000 BKN003;
0145104880999992013010719204+51133+013750FM-15+0232EDDC V0201901N002610021019N0025001N1+00401+00401999999ADDGF107991999999999999999999MA1102611999999MW1101REMMET086METAR EDDC 071920Z 19005KT 2500 BR SCT001 BKN007 BKN016 04/04 Q1026 TEMPO 1400 BKN003;
0141104880999992013010719504+51133+013750FM-15+0232EDDC V0202401N001510009019N0028001N1+00401+00401999999ADDGF107991999999999999999999MA1102611999999MW1101MW2611REMMET076METAR EDDC 071950Z 24003KT 2800 -RA BR BKN003 BKN006 04/04 Q1026 TEMPO 1400;
0138104880999992013010720204+51133+013750FM-15+0232EDDC V0202401N001510024019N0050001N1+00401+00401999999ADDGF107991999999999999999999MA1102611999999MW1101REMMET079METAR EDDC 072020Z 24003KT 5000 BR FEW003 BKN008 04/04 Q1026 TEMPO 4000 BKN003;
0138104880999992013010720504+51133+013750FM-15+0232EDDC V0202201N001510024019N0050001N1+00401+00401999999ADDGF107991999999999999999999MA1102611999999MW1101REMMET079METAR EDDC 072050Z 22003KT 5000 BR SCT003 BKN008 04/04 Q1026 TEMPO 4000 BKN003;
0127104880999992013010721204+51133+013750FM-15+0232EDDC V0202101N00261000901CN0028001N1+00401+00401999999ADDGF107991999999999999999999MA1102611999999MW1101REMMET068METAR EDDC 072120Z 21005KT 2800 BR SCT001 SCT003 BKN019 04/04 Q1026;
0120104880999992013010721504+51133+013750FM-15+0232EDDC V0202101N002610009019N0015001N1+00401+00401999999ADDGF107991999999999999999999MA1102611999999MW1101REMMET061METAR EDDC 072150Z 21005KT 1500 BR SCT001 BKN003 04/04 Q1026;
0127104880999992013010722204+51133+013750FM-15+0232EDDC V0202201N002110009019N0032001N1+00401+00401999999ADDGF107991999999999999999999MA1102511999999MW1101REMMET068METAR EDDC 072220Z 22004KT 3200 BR BKN003 BKN008 BKN017 04/04 Q1025;
0120104880999992013010722504+51133+013750FM-15+0232EDDC V0202201N002110018019N0038001N1+00401+00401999999ADDGF107991999999999999999999MA1102511999999MW1101REMMET061METAR EDDC 072250Z 22004KT 3800 BR SCT002 BKN006 04/04 Q1025;
0126104880999992013010723204+51133+013750FM-15+0232EDDC V0202101N002110075019N0046001N1+00401+00401999999ADDGF107991999999999999999999MA1102511999999MW1101REMMET067METAR EDDC 072320Z 21004KT 4600 2500S BR FEW001 BKN025 04/04 Q1025;
0138104880999992013010723504+51133+013750FM-15+0232EDDC V0202101N00211001201CN0011001N1+00401+00401999999ADDGF107991999999999999999999MA1102511999999MW1101REMMET079METAR EDDC 072350Z 21004KT 1100 R22/P2000N BR FEW001 SCT004 BKN023 04/04 Q1025;
0127104880999992013010800204+51133+013750FM-15+0232EDDC V0202101N00211001501CN0018001N1+00401+00401999999ADDGF107991999999999999999999MA1102401999999MW1101REMMET068METAR EDDC 080020Z 21004KT 1800 BR FEW001 SCT005 BKN019 04/04 Q1024;
0118104880999992013010800504+51133+013750FM-15+0232EDDC V0202101N00211001501CN0060001N1+00401+00401999999ADDGF107991999999999999999999MA1102401999999REMMET065METAR EDDC 080050Z 21004KT 6000 FEW001 SCT005 BKN021 04/04 Q1024;
0111104880999992013010801204+51133+013750FM-15+0232EDDC V0202201N001510051019N0080001N1+00401+00401999999ADDGF107991999999999999999999MA1102511999999REMMET058METAR EDDC 080120Z 22003KT 8000 SCT005 BKN017 04/04 Q1025;
0118104880999992013010801504+51133+013750FM-15+0232EDDC V0202101N00211006001CN0090001N1+00401+00401999999ADDGF107991999999999999999999MA1102401999999REMMET065METAR EDDC 080150Z 21004KT 9000 FEW005 SCT020 BKN025 04/04 Q1024;
0118104880999992013010802204+51133+013750FM-15+0232EDDC V0201901N00261006301CN0090001N1+00401+00401999999ADDGF107991999999999999999999MA1102401999999REMMET065METAR EDDC 080220Z 19005KT 9000 FEW006 SCT021 BKN026 04/04 Q1024;
0111104880999992013010802504+51133+013750FM-15+0232EDDC V0202001N003110072019N0112651N1+00401+00401999999ADDGF107991999999999999999999MA1102301999999REMMET058METAR EDDC 080250Z 20006KT 9999 BKN024 BKN076 04/04 Q1023;
0104104880999992013010803204+51133+013750FM-15+0232EDDC V0201901N002610072019N0112651N1+00401+00401999999ADDGF107991999999999999999999MA1102301999999REMMET051METAR EDDC 080320Z 19005KT 9999 BKN024 04/04 Q1023;
0104104880999992013010803504+51133+013750FM-15+0232EDDC V0201901N003110066019N0112651N1+00401+00401999999ADDGF107991999999999999999999MA1102301999999REMMET051METAR EDDC 080350Z 19006KT 9999 BKN022 04/04 Q1023;
0104104880999992013010804204+51133+013750FM-15+0232EDDC V0202001N002610066019N0080001N1+00401+00401999999ADDGF107991999999999999999999MA1102301999999REMMET051METAR EDDC 080420Z 20005KT 8000 BKN022 04/04 Q1023;
0120104880999992013010804504+51133+013750FM-15+0232EDDC V0202001N002610066019N0060001N1+00401+00401999999ADDGF107991999999999999999999MA1102301999999MW1611REMMET061METAR EDDC 080450Z 20005KT 6000 -RA BKN022 04/04 Q1023 NOSIG;
0146104880999992013010805204+51133+013750FM-15+0232EDDC V0201901N002110093019N0050001N1+00401+00401999999ADDGF108991999999999999999999MA1102301999999MW1101MW2611REMMET081METAR EDDC 080520Z 19004KT 5000 -RA BR BKN031 OVC110 04/04 Q1023 TEMPO 3500 RADZ;
0142104880999992013010805504+51133+013750FM-15+0232EDDC V0202101N002110072019N0048001N1+00401+00401999999ADDGF107991999999999999999999MA1102301999999MW1101MW2631REMMET077METAR EDDC 080550Z 21004KT 4800 RA BR SCT018 BKN024 04/04 Q1023 TEMPO BKN012;
0139104880999992013010806204+51133+013750FM-15+0232EDDC V0201801N003110060019N0040001N1+00401+00401999999ADDGF107991999999999999999999MA1102301999999MW1101MW2631REMMET074METAR EDDC 080620Z 18006KT 4000 RA BR BKN020 04/04 Q1023 TEMPO NSW BKN012;
0155104880999992013010806504+51133+013750FM-15+0232EDDC V0201901N003110069019N0030001N1+00401+00401999999ADDGF108991999999999999999999MA1102301999999MW1101MW2611REMMET090METAR EDDC 080650Z 19006KT 3000 -RA BR SCT013 BKN023 OVC130 04/04 Q1023 RERA TEMPO BKN013;
0153104880999992013010807204+51133+013750FM-15+0232EDDC V0201901N003610060019N0032001N1+00401+00401999999ADDGF107991999999999999999999MA1102301999999MW1101MW2611REMMET088METAR EDDC 080720Z 19007KT 3200 -RA BR SCT015 BKN020 04/04 Q1023 TEMPO 2000 RADZ BKN010;
0143104880999992013010807504+51133+013750FM-15+0232EDDC V0202001N003610060019N0027001N1+00401+00401999999ADDGF108991999999999999999999MA1102201999999MW1101MW2531MW3631REMMET072METAR EDDC 080750Z 20007KT 2700 RADZ BR BKN020 OVC130 04/04 Q1022 NOSIG;
0152104880999992013010808204+51133+013750FM-15+0232EDDC V0202001N003610066019N0029001N1+00401+00401999999ADDGF108991999999999999999999MA1102201999999MW1101MW2511MW3611REMMET081METAR EDDC 080820Z 20007KT 2900 -RADZ BR BKN022 OVC130 04/04 Q1022 RERA TEMPO RA;
0143104880999992013010808504+51133+013750FM-15+0232EDDC V0202101N003610090019N0030001N1+00401+00401999999ADDGF108991999999999999999999MA1102201999999MW1101MW2511REMMET078METAR EDDC 080850Z 21007KT 3000 -DZ BR SCT021 BKN030 OVC130 04/04 Q1022 NOSIG;
0136104880999992013010809204+51133+013750FM-15+0232EDDC V0202101N002610045019N0028001N1+00501+00501999999ADDGF107991999999999999999999MA1102201999999MW1101MW2511REMMET071METAR EDDC 080920Z 21005KT 2800 -DZ BR BKN015 05/05 Q1022 TEMPO BKN011;
0158104880999992013010809504+51133+013750FM-15+0232EDDC V0202201N00261004201CN0028001N1+00501+00501999999ADDGF107991999999999999999999MA1102201999999MW1101MW2511MW3611REMMET087METAR EDDC 080950Z 22005KT 2800 -RADZ BR FEW008 SCT014 BKN022 05/05 Q1022 TEMPO BKN012;
0144104880999992013010810204+51133+013750FM-15+0232EDDC V0202301N002610045019N0028001N1+00501+00501999999ADDGF107991999999999999999999MA1102101999999MW1101MW2511MW3611REMMET073METAR EDDC 081020Z 23005KT 2800 -RADZ BR BKN015 05/05 Q1021 TEMPO BKN012;
0143104880999992013010810504+51133+013750FM-15+0232EDDC V0202501N003110012019N0028001N1+00501+00501999999ADDGF107991999999999999999999MA1102101999999MW1101MW2511REMMET078METAR EDDC 081050Z 25006KT 2800 -DZ BR BKN004 BKN013 05/05 Q1021 TEMPO BKN005;
0136104880999992013010811204+51133+013750FM-15+0232EDDC V0202601N003610015019N0023001N1+00601+00501999999ADDGF107991999999999999999999MA1102101999999MW1101MW2511REMMET071METAR EDDC 081120Z 26007KT 2300 -DZ BR SCT003 BKN005 06/05 Q1021 NOSIG;
0140104880999992013010811504+51133+013750FM-15+0232EDDC V0202801N003110015019N0030001N1+00601+00501999999ADDGF107991999999999999999999MA1102101999999MW1101REMMET081METAR EDDC 081150Z 28006KT 3000 BR SCT003 BKN005 BKN010 06/05 Q1021 TEMPO BKN004;
0147104880999992013010812204+51133+013750FM-15+0232EDDC V0202901N003610009019N0013001N1+00501+00501999999ADDGF107991999999999999999999MA1102101999999MW1101MW2511REMMET082METAR EDDC 081220Z 29007KT 1300 R22/P2000N -DZ BR BKN003 BKN005 05/05 Q1021 NOSIG;
0144104880999992013010812504+51133+013750FM-15+0232EDDC V0203001N004110006019N0012001N1+00501+00501999999ADDGF107991999999999999999999MA1102101999999MW1101MW2531REMMET079METAR EDDC 081250Z 30008KT 1200 R22/P2000N DZ BR BKN002 05/05 Q1021 BECMG 2000;
0157104880999992013010813204+51133+013750FM-15+0232EDDC V0203001N003610006019N0013001N1+00501+00501999999ADDGF107991999999999999999999MA1102101999999MW1101MW2511REMMET092METAR EDDC 081320Z 30007KT 1300 R22/P2000N -DZ BR BKN002 BKN003 05/05 Q1021 REDZ BECMG 2000;
0148104880999992013010813504+51133+013750FM-15+0232EDDC V0202901N003610006019N0018001N1+00501+00501999999ADDGF107991999999999999999999MA1102101999999MW1101MW2511REMMET083METAR EDDC 081350Z 29007KT 1800 -DZ BR BKN002 BKN003 05/05 Q1021 TEMPO 3000 BKN006;
0140104880999992013010814204+51133+013750FM-15+0232EDDC V0203001N003610009019N0030001N1+00501+00501999999ADDGF107991999999999999999999MA1102101999999MW1101REMMET081METAR EDDC 081420Z 30007KT 3000 BR BKN003 BKN006 05/05 Q1021 TEMPO SCT003 BKN006;
0150104880999992013010814504+51133+013750FM-15+0232EDDC V0202901N003610009019N0035001N1+00501+00501999999ADDGF107991999999999999999999MA1102101999999MW1101MW2511REMMET085METAR EDDC 081450Z 29007KT 3500 -DZ BR BKN003 BKN006 05/05 Q1021 TEMPO SCT003 BKN006;
0138104880999992013010815204+51133+013750FM-15+0232EDDC V0203001N004610009019N0030001N1+00601+00501999999ADDGF107991999999999999999999MA1102101999999MW1101MW2511REMMET073METAR EDDC 081520Z 30009KT 3000 -DZ BR BKN003 06/05 Q1021 TEMPO 2000 -DZ;
0129104880999992013010815504+51133+013750FM-15+0232EDDC V0203001N004610009019N0030001N1+00601+00501999999ADDGF107991999999999999999999MA1102101999999MW1101MW2511REMMET064METAR EDDC 081550Z 30009KT 3000 -DZ BR BKN003 06/05 Q1021 NOSIG;
0136104880999992013010816204+51133+013750FM-15+0232EDDC V0203001N003110006019N0025001N1+00501+00501999999ADDGF107991999999999999999999MA1102101999999MW1101MW2511REMMET071METAR EDDC 081620Z 30006KT 2500 -DZ BR BKN002 BKN003 05/05 Q1021 NOSIG;
0136104880999992013010816504+51133+013750FM-15+0232EDDC V0202901N003610006019N0030001N1+00501+00501999999ADDGF107991999999999999999999MA1102101999999MW1101MW2511REMMET071METAR EDDC 081650Z 29007KT 3000 -DZ BR BKN002 BKN003 05/05 Q1021 NOSIG;
0136104880999992013010817204+51133+013750FM-15+0232EDDC V0202901N004110006019N0033001N1+00501+00501999999ADDGF107991999999999999999999MA1102101999999MW1101MW2511REMMET071METAR EDDC 081720Z 29008KT 3300 -DZ BR BKN002 BKN003 05/05 Q1021 NOSIG;
0129104880999992013010817504+51133+013750FM-15+0232EDDC V0202901N003610009019N0032001N1+00501+00501999999ADDGF107991999999999999999999MA1102101999999MW1101MW2511REMMET064METAR EDDC 081750Z 29007KT 3200 -DZ BR BKN003 05/05 Q1021 NOSIG;
0129104880999992013010818204+51133+013750FM-15+0232EDDC V0202901N003610009019N0035001N1+00501+00501999999ADDGF107991999999999999999999MA1102101999999MW1101MW2511REMMET064METAR EDDC 081820Z 29007KT 3500 -DZ BR BKN003 05/05 Q1021 NOSIG;
0129104880999992013010818504+51133+013750FM-15+0232EDDC V0202801N003110009019N0042001N1+00501+00501999999ADDGF107991999999999999999999MA1102101999999MW1101MW2511REMMET064METAR EDDC 081850Z 28006KT 4200 -DZ BR BKN003 05/05 Q1021 NOSIG;
0136104880999992013010819204+51133+013750FM-15+0232EDDC V0202801N003610006019N0040001N1+00501+00501999999ADDGF107991999999999999999999MA1102101999999MW1101MW2511REMMET071METAR EDDC 081920Z 28007KT 4000 -DZ BR BKN002 BKN004 05/05 Q1021 NOSIG;
0136104880999992013010819504+51133+013750FM-15+0232EDDC V0202901N003610006019N0036001N1+00501+00501999999ADDGF107991999999999999999999MA1102101999999MW1101MW2511REMMET071METAR EDDC 081950Z 29007KT 3600 -DZ BR BKN002 BKN004 05/05 Q1021 NOSIG;
0129104880999992013010820204+51133+013750FM-15+0232EDDC V0202801N003610006019N0036001N1+00501+00501999999ADDGF107991999999999999999999MA1102101999999MW1101MW2511REMMET064METAR EDDC 082020Z 28007KT 3600 -DZ BR BKN002 05/05 Q1021 NOSIG;
0129104880999992013010820504+51133+013750FM-15+0232EDDC V0202901N003110009019N0038001N1+00501+00501999999ADDGF107991999999999999999999MA1102101999999MW1101MW2511REMMET064METAR EDDC 082050Z 29006KT 3800 -DZ BR BKN003 05/05 Q1021 NOSIG;
0130104880999992013010821204+51133+013750FM-15+0232EDDC V0202901N003110009019N0040001N1+00501+00501999999ADDGF107991999999999999999999MA1102101999999MW1101MW2511REMMET065METAR EDDC 082120Z 29006KT 4000 -DZ BR BKN003 BKN005 05/05 Q1021;
0123104880999992013010821504+51133+013750FM-15+0232EDDC V0202801N003110009019N0044001N1+00501+00501999999ADDGF107991999999999999999999MA1102101999999MW1101MW2511REMMET058METAR EDDC 082150Z 28006KT 4400 -DZ BR BKN003 05/05 Q1021;
0123104880999992013010822204+51133+013750FM-15+0232EDDC V0202901N003110009019N0046001N1+00501+00501999999ADDGF107991999999999999999999MA1102101999999MW1101MW2511REMMET058METAR EDDC 082220Z 29006KT 4600 -DZ BR BKN003 05/05 Q1021;
0123104880999992013010822504+51133+013750FM-15+0232EDDC V0202901N003110009019N0050001N1+00501+00501999999ADDGF107991999999999999999999MA1102101999999MW1101MW2511REMMET058METAR EDDC 082250Z 29006KT 5000 -DZ BR BKN003 05/05 Q1021;
0123104880999992013010823204+51133+013750FM-15+0232EDDC V0202901N003110006019N0050001N1+00501+00501999999ADDGF107991999999999999999999MA1102101999999MW1101MW2511REMMET058METAR EDDC 082320Z 29006KT 5000 -DZ BR BKN002 05/05 Q1021;
0123104880999992013010823504+51133+013750FM-15+0232EDDC V0202901N002610006019N0046001N1+00501+00501999999ADDGF107991999999999999999999MA1102201999999MW1101MW2511REMMET058METAR EDDC 082350Z 29005KT 4600 -DZ BR BKN002 05/05 Q1022;
0123104880999992013010900204+51133+013750FM-15+0232EDDC V0202901N002610006019N0044001N1+00501+00501999999ADDGF107991999999999999999999MA1102101999999MW1101MW2511REMMET058METAR EDDC 090020Z 29005KT 4400 -DZ BR BKN002 05/05 Q1021;
0123104880999992013010900504+51133+013750FM-15+0232EDDC V0202901N002610006019N0044001N1+00501+00501999999ADDGF107991999999999999999999MA1102101999999MW1101MW2511REMMET058METAR EDDC 090050Z 29005KT 4400 -DZ BR BKN002 05/05 Q1021;
0123104880999992013010901204+51133+013750FM-15+0232EDDC V0202901N002610009019N0044001N1+00501+00501999999ADDGF107991999999999999999999MA1102101999999MW1101MW2511REMMET058METAR EDDC 090120Z 29005KT 4400 -DZ BR BKN003 05/05 Q1021;
0123104880999992013010901504+51133+013750FM-15+0232EDDC V0202901N002110006019N0042001N1+00501+00501999999ADDGF107991999999999999999999MA1102101999999MW1101MW2511REMMET058METAR EDDC 090150Z 29004KT 4200 -DZ BR BKN002 05/05 Q1021;
0123104880999992013010902204+51133+013750FM-15+0232EDDC V0202901N002110006019N0042001N1+00501+00501999999ADDGF107991999999999999999999MA1102101999999MW1101MW2511REMMET058METAR EDDC 090220Z 29004KT 4200 -DZ BR BKN002 05/05 Q1021;
0130104880999992013010902504+51133+013750FM-15+0232EDDC V0202801N002110006019N0040001N1+00501+00501999999ADDGF107991999999999999999999MA1102101999999MW1101MW2511REMMET065METAR EDDC 090250Z 28004KT 4000 -DZ BR BKN002 BKN004 05/05 Q1021;
0123104880999992013010903204+51133+013750FM-15+0232EDDC V0202901N002110009019N0038001N1+00501+00501999999ADDGF107991999999999999999999MA1102101999999MW1101MW2511REMMET058METAR EDDC 090320Z 29004KT 3800 -DZ BR BKN003 05/05 Q1021;
0123104880999992013010903504+51133+013750FM-15+0232EDDC V0202901N001510006019N0036001N1+00501+00501999999ADDGF107991999999999999999999MA1102101999999MW1101MW2511REMMET058METAR EDDC 090350Z 29003KT 3600 -DZ BR BKN002 05/05 Q1021;
0123104880999992013010904204+51133+013750FM-15+0232EDDC V0202801N001510006019N0028001N1+00501+00501999999ADDGF107991999999999999999999MA1102101999999MW1101MW2511REMMET058METAR EDDC 090420Z 28003KT 2800 -DZ BR BKN002 05/05 Q1021;
0144104880999992013010904504+51133+013750FM-15+0232EDDC V0202601N001510006019N0022001N1+00501+00501999999ADDGF107991999999999999999999MA1102101999999MW1101MW2511REMMET079METAR EDDC 090450Z 26003KT 2200 -DZ BR BKN002 05/05 Q1021 TEMPO 1200 DZ BKN001;
0144104880999992013010905204+51133+013750FM-15+0232EDDC V0202701N001510006019N0030001N1+00501+00501999999ADDGF107991999999999999999999MA1102001999999MW1101MW2511REMMET079METAR EDDC 090520Z 27003KT 3000 -DZ BR BKN002 05/05 Q1020 TEMPO 1200 DZ BKN001;
0144104880999992013010905504+51133+013750FM-15+0232EDDC V0202601N001510006019N0033001N1+00501+00501999999ADDGF107991999999999999999999MA1102001999999MW1101MW2511REMMET079METAR EDDC 090550Z 26003KT 3300 -DZ BR BKN002 05/05 Q1020 TEMPO 1200 DZ BKN001;
0129104880999992013010906204+51133+013750FM-15+0232EDDC V0202401N001510009019N0035001N1+00501+00501999999ADDGF107991999999999999999999MA1102001999999MW1101MW2511REMMET064METAR EDDC 090620Z 24003KT 3500 -DZ BR BKN003 05/05 Q1020 NOSIG;
0129104880999992013010906504+51133+013750FM-15+0232EDDC V0202201N001510009019N0035001N1+00501+00501999999ADDGF107991999999999999999999MA1102001999999MW1101MW2511REMMET064METAR EDDC 090650Z 22003KT 3500 -DZ BR BKN003 05/05 Q1020 NOSIG;
0134104880999992013010907204+51133+013750FM-15+0232EDDC V0202201N002110009019N0032001N1+00501+00501999999ADDGF107991999999999999999999MA1102001999999MW1101MW2511REMMET069METAR EDDC 090720Z 22004KT 3200 -DZ BR BKN003 05/05 Q1020 TEMPO 2500;
0129104880999992013010907504+51133+013750FM-15+0232EDDC V0202201N002110006019N0028001N1+00601+00601999999ADDGF107991999999999999999999MA1102001999999MW1101MW2511REMMET064METAR EDDC 090750Z 22004KT 2800 -DZ BR BKN002 06/06 Q1020 NOSIG;
0129104880999992013010908204+51133+013750FM-15+0232EDDC V0202101N002610006019N0028001N1+00601+00601999999ADDGF107991999999999999999999MA1102001999999MW1101MW2511REMMET064METAR EDDC 090820Z 21005KT 2800 -DZ BR BKN002 06/06 Q1020 NOSIG;
0134104880999992013010908504+51133+013750FM-15+0232EDDC V0202201N003110009019N0029001N1+00601+00501999999ADDGF107991999999999999999999MA1102001999999MW1101MW2511REMMET069METAR EDDC 090850Z 22006KT 2900 -DZ BR BKN003 06/05 Q1020 TEMPO 3000;
0129104880999992013010909204+51133+013750FM-15+0232EDDC V0202301N003110009019N0030001N1+00601+00501999999ADDGF107991999999999999999999MA1102001999999MW1101REMMET070METAR EDDC 090920Z 23006KT 3000 BR BKN003 06/05 Q1020 TEMPO 2000 DZRA;
0129104880999992013010909504+51133+013750FM-15+0232EDDC V0202201N003110012019N0038001N1+00601+00501999999ADDGF107991999999999999999999MA1101901999999MW1101REMMET070METAR EDDC 090950Z 22006KT 3800 BR BKN004 06/05 Q1019 TEMPO 2000 RADZ;
0136104880999992013010910204+51133+013750FM-15+0232EDDC V0202201N003110015019N0050001N1+00601+00601999999ADDGF107991999999999999999999MA1101901999999MW1101REMMET077METAR EDDC 091020Z 22006KT 5000 BR BKN005 06/06 Q1019 TEMPO 2000 RADZ BKN004;
0127104880999992013010910504+51133+013750FM-15+0232EDDC V0202201N003110021019N0070001N1+00601+00601999999ADDGF107991999999999999999999MA1101901999999MW1611REMMET068METAR EDDC 091050Z 22006KT 7000 -RA BKN007 06/06 Q1019 TEMPO BKN010;
0127104880999992013010911204+51133+013750FM-15+0232EDDC V0202101N003610027019N0090001N1+00601+00501999999ADDGF107991999999999999999999MA1101801999999MW1611REMMET068METAR EDDC 091120Z 21007KT 9000 -RA BKN009 06/05 Q1018 TEMPO BKN010;
0110104880999992013010911504+51133+013750FM-15+0232EDDC V0202201N003610033019N0112651N1+00601+00501999999ADDGF107991999999999999999999MA1101801999999REMMET057METAR EDDC 091150Z 22007KT 9999 BKN011 06/05 Q1018 NOSIG;
0110104880999992013010912204+51133+013750FM-15+0232EDDC V0202201N003110033019N0112651N1+00601+00501999999ADDGF107991999999999999999999MA1101691999999REMMET057METAR EDDC 091220Z 22006KT 9999 BKN011 06/05 Q1017 NOSIG;
0128104880999992013010912504+51133+013750FM-15+0232EDDC V0202301N003610033019N0090001N1+00601+00501999999ADDGF107991999999999999999999MA1101691999999MW1511MW2611REMMET063METAR EDDC 091250Z 23007KT 9000 -RADZ BKN011 06/05 Q1017 NOSIG;
0120104880999992013010913204+51133+013750FM-15+0232EDDC V0202301N002610030019N0080001N1+00601+00501999999ADDGF107991999999999999999999MA1101591999999MW1511REMMET061METAR EDDC 091320Z 23005KT 8000 -DZ BKN010 06/05 Q1016 NOSIG;
0127104880999992013010913504+51133+013750FM-15+0232EDDC V0202301N003610030019N0080001N1+00601+00501999999ADDGF107991999999999999999999MA1101591999999MW1511REMMET068METAR EDDC 091350Z 23007KT 8000 -DZ FEW004 BKN010 06/05 Q1016 NOSIG;
0117104880999992013010914204+51133+013750FM-15+0232EDDC V0202301N003610036019N0112651N1+00601+00501999999ADDGF107991999999999999999999MA1101591999999REMMET064METAR EDDC 091420Z 23007KT 9999 FEW008 BKN012 06/05 Q1016 NOSIG;
0117104880999992013010914504+51133+013750FM-15+0232EDDC V0202301N003610084019N0112651N1+00601+00501999999ADDGF107991999999999999999999MA1101591999999REMMET064METAR EDDC 091450Z 23007KT 9999 SCT012 BKN028 06/05 Q1016 NOSIG;
0110104880999992013010915204+51133+013750FM-15+0232EDDC V0202301N003110069019N0112651N1+00601+00401999999ADDGF107991999999999999999999MA1101491999999REMMET057METAR EDDC 091520Z 23006KT 9999 BKN023 06/04 Q1015 NOSIG;
0117104880999992013010915504+51133+013750FM-15+0232EDDC V0202501N002610072019N0112651N1+00601+00401999999ADDGF107991999999999999999999MA1101491999999REMMET064METAR EDDC 091550Z 25005KT 9999 FEW017 BKN024 06/04 Q1015 NOSIG;
0110104880999992013010916204+51133+013750FM-15+0232EDDC V0202301N003610084019N0112651N1+00601+00401999999ADDGF107991999999999999999999MA1101491999999REMMET057METAR EDDC 091620Z 23007KT 9999 BKN028 06/04 Q1015 NOSIG;
0110104880999992013010916504+51133+013750FM-15+0232EDDC V0202401N004610120019N0112651N1+00601+00301999999ADDGF107991999999999999999999MA1101391999999REMMET057METAR EDDC 091650Z 24009KT 9999 BKN040 06/03 Q1014 NOSIG;
0110104880999992013010917204+51133+013750FM-15+0232EDDC V0202401N004110132019N0112651N1+00601+00301999999ADDGF107991999999999999999999MA1101391999999REMMET057METAR EDDC 091720Z 24008KT 9999 BKN044 06/03 Q1014 NOSIG;
0110104880999992013010917504+51133+013750FM-15+0232EDDC V0202301N003610120019N0112651N1+00601+00301999999ADDGF108991999999999999999999MA1101291999999REMMET057METAR EDDC 091750Z 23007KT 9999 OVC040 06/03 Q1013 NOSIG;
0117104880999992013010918204+51133+013750FM-15+0232EDDC V0202301N003610108019N0112651N1+00501+00301999999ADDGF107991999999999999999999MA1101291999999REMMET064METAR EDDC 091820Z 23007KT 9999 FEW019 BKN036 05/03 Q1013 NOSIG;
0127104880999992013010918504+51133+013750FM-15+0232EDDC V0202301N003610042019N0112651N1+00501+00301999999ADDGF107991999999999999999999MA1101291999999REMMET074METAR EDDC 091850Z 23007KT 9999 FEW008 BKN014 05/03 Q1013 TEMPO 4000 RADZ;
0152104880999992013010919204+51133+013750FM-15+0232EDDC V0202401N003610033019N0080001N1+00501+00301999999ADDGF107991999999999999999999MA1101191999999MW1511MW2611REMMET087METAR EDDC 091920Z 24007KT 8000 -RADZ BKN011 BKN020 05/03 Q1012 TEMPO 4000 RADZ BKN009;
0144104880999992013010919504+51133+013750FM-15+0232EDDC V0202401N003610051019N0080001N1+00501+00401999999ADDGF107991999999999999999999MA1101191999999MW1611REMMET085METAR EDDC 091950Z 24007KT 8000 -RA SCT008 BKN017 05/04 Q1012 TEMPO 4000 RADZ BKN009;
0161104880999992013010920204+51133+013750FM-15+0232EDDC V0202401N003610009019N0050001N1+00501+00401999999ADDGF107991999999999999999999MA1101191999999MW1101MW2511MW3611REMMET090METAR EDDC 092020Z 24007KT 5000 -RADZ BR BKN003 BKN006 05/04 Q1012 TEMPO 4000 RADZ BKN006;
0137104880999992013010920504+51133+013750FM-15+0232EDDC V0202501N004110027019N0060001N1+00501+00401999999ADDGF107991999999999999999999MA1101081999999MW1611REMMET078METAR EDDC 092050Z 25008KT 6000 -RA SCT003 BKN009 05/04 Q1011 TEMPO 4000 RADZ;
0121104880999992013010921204+51133+013750FM-15+0232EDDC V0202601N003610027019N0080001N1+00501+00401999999ADDGF107991999999999999999999MA1101081999999MW1611REMMET062METAR EDDC 092120Z 26007KT 8000 -RA BKN009 BKN011 05/04 Q1011;
0144104880999992013010921504+51133+013750FM-15+0232EDDC V0202601N004610018019N0050001N1+00501+00401999999ADDGF107991999999999999999999MA1101081999999MW1101MW2531MW3631REMMET073METAR EDDC 092150Z 26009KT 5000 RADZ BR SCT003 BKN006 BKN012 05/04 Q1011;
0126104880999992013010922204+51133+013750FM-15+0232EDDC V0202701N004610018019N0070001N1+00501+00401999999ADDGF107991999999999999999999MA1101081999999MW1611REMMET067METAR EDDC 092220Z 27009KT 7000 -RA BKN006 BKN010 05/04 Q1011 RERA;
0120104880999992013010922504+51133+013750FM-15+0232EDDC V0202701N005110036019N0070001N1+00401+00301999999ADDGF107991999999999999999999MA1101021999999MW1631REMMET061METAR EDDC 092250Z 27010KT 7000 RA SCT007 BKN012 04/03 Q1010;
0126104880999992013010923204+51133+013750FM-15+0232EDDC V0202701N005110030019N0112651N1+00401+00301999999ADDGF107991999999999999999999MA1101021999999MW1611REMMET067METAR EDDC 092320Z 27010KT 9999 -RA SCT006 BKN010 04/03 Q1010 RERA;
0121104880999992013010923504+51133+013750FM-15+0232EDDC V0202701N005110021019N0080001N1+00401+00301999999ADDGF107991999999999999999999MA1101021999999MW1611REMMET062METAR EDDC 092350Z 27010KT 8000 -RA FEW004 BKN007 04/03 Q1010;
0114104880999992013011000204+51133+013750FM-15+0232EDDC V0202601N004610015019N0090001N1+00401+00301999999ADDGF107991999999999999999999MA1101021999999MW1611REMMET055METAR EDDC 100020Z 26009KT 9000 -RA BKN005 04/03 Q1010;
0121104880999992013011000504+51133+013750FM-15+0232EDDC V0202801N004110015019N0090001N1+00401+00301999999ADDGF107991999999999999999999MA1101021999999MW1611REMMET062METAR EDDC 100050Z 28008KT 9000 -RA BKN005 BKN011 04/03 Q1010;
