0190104880999992015010100204+51133+013767FM-15+023099999V0202701N002610003019N000500199+00201+00201999999ADDGA1081+000301999GE19MSL   +99999+99999GF199999081999000301999999MA1103301999999MW1441MW2581REMMET087METAR EDDC 010020Z 27005KT 0500 R22/P2000N -DZRA FG OVC001 02/02 Q1033      R04/29//95=
0190104880999992015010100504+51133+013767FM-15+023099999V0202701N002610003019N000700199+00201+00201999999ADDGA1081+000301999GE19MSL   +99999+99999GF199999081999000301999999MA1103301999999MW1441MW2581REMMET087METAR EDDC 010050Z 27005KT 0700 R22/P2000N -DZRA FG OVC001 02/02 Q1033      R04/29//95=
0173104880999992015010101204+51133+013767FM-15+023099999V0202601N002610003019N000600199+00201+00201999999ADDGA1081+000301999GE19MSL   +99999+99999GF199999081999000301999999MA1103301999999MW1441REMMET076METAR EDDC 010120Z 26005KT 0600 R22/P2000N FG OVC001 02/02 Q1033 R04/29//95=
0211104880999992015010101504+51133+013767FM-15+023099999V0202401N002610006119N001400199+00201+00201999999ADDGA1041+000301999GA2081+000611999GE19MSL   +99999+99999GF199999041999000301999999MA1103301999999MW1101MW2611REMMET092METAR EDDC 010150Z 24005KT 1400 R22/P2000N -RA BR SCT001 OVC002 02/02      Q1033 R04/29//95=
0185104880999992015010102204+51133+013767FM-15+023099999V0202401N003110079219N001500199+00201+00201999999ADDGA1041+001221999GA2081+007921999GE19MSL   +99999+99999GF199999041999001221999999MA1103301999999MW1101REMMET072METAR EDDC 010220Z 24006KT 1500 BR SCT004 OVC026 02/02 Q1033 R04/29//95=
0185104880999992015010102504+51133+013767FM-15+023099999V0202301N003110082319N002200199+00201+00201999999ADDGA1021+001221999GA2081+008231999GE19MSL   +99999+99999GF199999021999001221999999MA1103301999999MW1101REMMET072METAR EDDC 010250Z 23006KT 2200 BR FEW004 OVC027 02/02 Q1033 R04/29//95=
0162104880999992015010103204+51133+013767FM-15+023099999V0202501N003110088419N002800199+00301+00301999999ADDGA1081+008841999GE19MSL   +99999+99999GF199999081999008841999999MA1103301999999MW1101REMMET065METAR EDDC 010320Z 25006KT 2800 BR OVC029 03/03 Q1033 R04/29//95=
0162104880999992015010103504+51133+013767FM-15+023099999V0202601N002610091419N004500199+00201+00201999999ADDGA1081+009141999GE19MSL   +99999+99999GF199999081999009141999999MA1103301999999MW1101REMMET065METAR EDDC 010350Z 26005KT 4500 BR OVC030 02/02 Q1033 R04/29//95=
0185104880999992015010104204+51133+013767FM-15+023099999V0202501N002610100619N004700199+00201+00201999999ADDGA1021+002131999GA2081+010061999GE19MSL   +99999+99999GF199999021999002131999999MA1103301999999MW1101REMMET072METAR EDDC 010420Z 25005KT 4700 BR FEW007 OVC033 02/02 Q1033 R04/29//95=
0204104880999992015010104504+51133+013767FM-15+023099999V0202601N002610103619N004700199+00201+00201999999ADDGA1021+002131999GA2081+010361999GE19MSL   +99999+99999GF199999021999002131999999MA1103301999999MW1101REMMET091METAR EDDC 010450Z 26005KT 4700 BR FEW007 OVC034 02/02 Q1033 R04/29//95      TEMPO 5000 BR=
0204104880999992015010105204+51133+013767FM-15+023099999V0202601N002610134119N004700199+00201+00201999999ADDGA1021+009751999GA2081+013411999GE19MSL   +99999+99999GF199999021999009751999999MA1103301999999MW1101REMMET091METAR EDDC 010520Z 26005KT 4700 BR FEW032 OVC044 02/02 Q1033 R04/29//95      TEMPO 5000 BR=
0204104880999992015010105504+51133+013767FM-15+023099999V0202601N002110140219N004700199+00201+00201999999ADDGA1041+009451999GA2071+014021999GE19MSL   +99999+99999GF199999041999009451999999MA1103301999999MW1101REMMET091METAR EDDC 010550Z 26004KT 4700 BR SCT031 BKN046 02/02 Q1033 R04/29//95      TEMPO 5000 BR=
0196104880999992015010106204+51133+013767FM-15+023099999V0202701N002610106719N004500199+00201+00201999999ADDGA1071+010671999GA2071+013411999GE19MSL   +99999+99999GF199999071999010671999999MA1103301999999MW1101REMMET083METAR EDDC 010620Z 27005KT 4500 BR BKN035 BKN044 02/02 Q1033 R04/29//95      NOSIG=
0203104880999992015010106504+51133+013767FM-15+023099999V0202501N002610048819N004800199+00201+00201999999ADDGA1071+004881999GA2071+015851999GE19MSL   +99999+99999GF199999071999004881999999MA1103401999999MW1101REMMET090METAR EDDC 010650Z 25005KT 4800 BR BKN016 BKN052 02/02 Q1034 R04/29//95      TEMPO BKN014=
0196104880999992015010107204+51133+013767FM-15+023099999V0202401N002110048819N005000199+00201+00201999999ADDGA1021+003051999GA2071+004881999GE19MSL   +99999+99999GF199999021999003051999999MA1103401999999MW1101REMMET083METAR EDDC 010720Z 24004KT 5000 BR FEW010 BKN016 02/02 Q1034 R04/29//95      NOSIG=
0196104880999992015010107504+51133+013767FM-15+023099999V0202501N003110128019N005000199+00201+00201999999ADDGA1041+002131999GA2071+012801999GE19MSL   +99999+99999GF199999041999002131999999MA1103401999999MW1101REMMET083METAR EDDC 010750Z 25006KT 5000 BR SCT007 BKN042 02/02 Q1034 R04/29//95      NOSIG=
0187104880999992015010108204+51133+013767FM-15+023099999V0202601N002610118919N006000199+00201+00201999999ADDGA1021+002131999GA2071+011891999GE19MSL   +99999+99999GF199999021999002131999999MA1103501999999REMMET080METAR EDDC 010820Z 26005KT 6000 FEW007 BKN039 02/02 Q1035 R04/29//95      NOSIG=
0159104880999992015010108504+51133+013767FM-15+023099999V0202501N002610121919N007000199+00301+00201999999ADDGA1071+012191999GE19MSL   +99999+99999GF199999071999012191999999MA1103501999999REMMET068METAR EDDC 010850Z 25005KT 7000 BKN040 03/02 Q1035 R04/29//95 NOSIG=
0159104880999992015010109204+51133+013767FM-15+023099999V0202501N002610121919N008000199+00201+00101999999ADDGA1071+012191999GE19MSL   +99999+99999GF199999071999012191999999MA1103501999999REMMET068METAR EDDC 010920Z 25005KT 8000 BKN040 02/01 Q1035 R04/29//95 NOSIG=
0187104880999992015010109504+51133+013767FM-15+023099999V0202201N00361015851CN009000199+00301+00201999999ADDGA1021+012191999GA2041+015851999GE19MSL   +99999+99999GF199999021999012191999999MA1103401999999REMMET080METAR EDDC 010950Z 22007KT 9000 FEW040 SCT052 03/02 Q1034 R04/29//95      NOSIG=
0089104880999992015010110204+51133+013767FM-15+023099999V0202301N003619999999Y999999999+00301+00101999999ADDMA1103301999999REMMET062METAR EDDC 011020Z 23007KT CAVOK 03/01 Q1033 R04/29//95 NOSIG=
0089104880999992015010110504+51133+013767FM-15+023099999V0202301N003619999999Y999999999+00401+00201999999ADDMA1103301999999REMMET062METAR EDDC 011050Z 23007KT CAVOK 04/02 Q1033 R04/29//95 NOSIG=
0084104880999992015010111204+51133+013767FM-15+023099999V0202501N003119999999Y999999999+00401+00101999999ADDMA1103301999999REMMET057METAR EDDC 011120Z 25006KT CAVOK 04/01 Q1033 R04/D NOSIG=
0084104880999992015010111504+51133+013767FM-15+023099999V0202601N003619999999Y999999999+00501+00101999999ADDMA1103301999999REMMET057METAR EDDC 011150Z 26007KT CAVOK 05/01 Q1033 R04/D NOSIG=
0084104880999992015010112204+51133+013767FM-15+023099999V0202501N003619999999Y999999999+00501+00101999999ADDMA1103201999999REMMET057METAR EDDC 011220Z 25007KT CAVOK 05/01 Q1032 R04/D NOSIG=
0084104880999992015010112504+51133+013767FM-15+023099999V0202501N003619999999Y999999999+00501+00101999999ADDMA1103201999999REMMET057METAR EDDC 011250Z 25007KT CAVOK 05/01 Q1032 R04/D NOSIG=
0078104880999992015010113204+51133+013767FM-15+023099999V0202501N003119999999Y999999999+00501+00101999999ADDMA1103201999999REMMET051METAR EDDC 011320Z 25006KT CAVOK 05/01 Q1032 NOSIG=
0078104880999992015010113504+51133+013767FM-15+023099999V0202401N004119999999Y999999999+00501+00101999999ADDMA1103201999999REMMET051METAR EDDC 011350Z 24008KT CAVOK 05/01 Q1032 NOSIG=
0078104880999992015010114204+51133+013767FM-15+023099999V0202401N003619999999Y999999999+00501+00101999999ADDMA1103201999999REMMET051METAR EDDC 011420Z 24007KT CAVOK 05/01 Q1032 NOSIG=
0078104880999992015010114504+51133+013767FM-15+023099999V0202201N003619999999Y999999999+00401+00101999999ADDMA1103101999999REMMET051METAR EDDC 011450Z 22007KT CAVOK 04/01 Q1031 NOSIG=
0078104880999992015010115204+51133+013767FM-15+023099999V0202401N002619999999Y999999999+00401+00101999999ADDMA1103201999999REMMET051METAR EDDC 011520Z 24005KT CAVOK 04/01 Q1032 NOSIG=
0078104880999992015010115504+51133+013767FM-15+023099999V0202301N002619999999Y999999999+00301+00101999999ADDMA1103201999999REMMET051METAR EDDC 011550Z 23005KT CAVOK 03/01 Q1032 NOSIG=
0078104880999992015010116204+51133+013767FM-15+023099999V0202301N004119999999Y999999999+00301+00101999999ADDMA1103201999999REMMET051METAR EDDC 011620Z 23008KT CAVOK 03/01 Q1032 NOSIG=
0078104880999992015010116504+51133+013767FM-15+023099999V0202301N004119999999Y999999999+00301+00101999999ADDMA1103201999999REMMET051METAR EDDC 011650Z 23008KT CAVOK 03/01 Q1032 NOSIG=
0078104880999992015010117204+51133+013767FM-15+023099999V0202301N003619999999Y999999999+00201+00101999999ADDMA1103101999999REMMET051METAR EDDC 011720Z 23007KT CAVOK 02/01 Q1031 NOSIG=
0078104880999992015010117504+51133+013767FM-15+023099999V0202301N003119999999Y999999999+00201+00101999999ADDMA1103101999999REMMET051METAR EDDC 011750Z 23006KT CAVOK 02/01 Q1031 NOSIG=
0078104880999992015010118204+51133+013767FM-15+023099999V0202301N003619999999Y999999999+00201+00001999999ADDMA1103101999999REMMET051METAR EDDC 011820Z 23007KT CAVOK 02/00 Q1031 NOSIG=
0078104880999992015010118504+51133+013767FM-15+023099999V0202301N003619999999Y999999999+00201+00001999999ADDMA1103101999999REMMET051METAR EDDC 011850Z 23007KT CAVOK 02/00 Q1031 NOSIG=
0078104880999992015010119204+51133+013767FM-15+023099999V0202101N004119999999Y999999999+00201+00101999999ADDMA1103001999999REMMET051METAR EDDC 011920Z 21008KT CAVOK 02/01 Q1030 NOSIG=
0078104880999992015010119504+51133+013767FM-15+023099999V0202101N003119999999Y999999999+00101+00001999999ADDMA1103001999999REMMET051METAR EDDC 011950Z 21006KT CAVOK 01/00 Q1030 NOSIG=
0078104880999992015010120204+51133+013767FM-15+023099999V0202201N003619999999Y999999999+00201+00001999999ADDMA1103001999999REMMET051METAR EDDC 012020Z 22007KT CAVOK 02/00 Q1030 NOSIG=
0079104880999992015010120504+51133+013767FM-15+023099999V0202101N004619999999Y999999999+00101+00001999999ADDMA1102901999999REMMET052METAR EDDC 012050Z 21009KT CAVOK 01/M00 Q1029 NOSIG=
0073104880999992015010121204+51133+013767FM-15+023099999V0202201N002119999999Y999999999+00101+00001999999ADDMA1102901999999REMMET046METAR EDDC 012120Z 22004KT CAVOK 01/M00 Q1029=
0073104880999992015010121504+51133+013767FM-15+023099999V0202101N002619999999Y999999999+00101+00001999999ADDMA1102901999999REMMET046METAR EDDC 012150Z 21005KT CAVOK 01/M00 Q1029=
0074104880999992015010122204+51133+013767FM-15+023099999V0202101N002119999999Y999999999+00001-00101999999ADDMA1102801999999REMMET047METAR EDDC 012220Z 21004KT CAVOK M00/M01 Q1028=
0073104880999992015010122504+51133+013767FM-15+023099999V0201601N001019999999Y999999999+00001-00101999999ADDMA1102701999999REMMET046METAR EDDC 012250Z 16002KT CAVOK 00/M01 Q1027=
0074104880999992015010123204+51133+013767FM-15+023099999V0201901N002119999999Y999999999+00001-00101999999ADDMA1102701999999REMMET047METAR EDDC 012320Z 19004KT CAVOK M00/M01 Q1027=
0073104880999992015010123504+51133+013767FM-15+023099999V0202101N002619999999Y999999999+00001+00001999999ADDMA1102601999999REMMET046METAR EDDC 012350Z 21005KT CAVOK 00/M00 Q1026=
0073104880999992015010200204+51133+013767FM-15+023099999V0201901N002119999999Y999999999+00001+00001999999ADDMA1102601999999REMMET046METAR EDDC 020020Z 19004KT CAVOK 00/M00 Q1026=
0073104880999992015010200504+51133+013767FM-15+023099999V0201501N002119999999Y999999999+00001-00101999999ADDMA1102601999999REMMET046METAR EDDC 020050Z 15004KT CAVOK 00/M01 Q1026=
0072104880999992015010201204+51133+013767FM-15+023099999V0201601N002619999999Y999999999+00101+00001999999ADDMA1102501999999REMMET045METAR EDDC 020120Z 16005KT CAVOK 01/00 Q1025=
0073104880999992015010201504+51133+013767FM-15+023099999V0202001N003119999999Y999999999+00101+00001999999ADDMA1102501999999REMMET046METAR EDDC 020150Z 20006KT CAVOK 01/M00 Q1025=
0073104880999992015010202204+51133+013767FM-15+023099999V0202001N004119999999Y999999999+00101+00001999999ADDMA1102401999999REMMET046METAR EDDC 020220Z 20008KT CAVOK 01/M00 Q1024=
0073104880999992015010202504+51133+013767FM-15+023099999V0201901N004119999999Y999999999+00101+00001999999ADDMA1102301999999REMMET046METAR EDDC 020250Z 19008KT CAVOK 01/M00 Q1023=
0073104880999992015010203204+51133+013767FM-15+023099999V0202001N004119999999Y999999999+00101+00001999999ADDMA1102201999999REMMET046METAR EDDC 020320Z 20008KT CAVOK 01/M00 Q1022=
0072104880999992015010203504+51133+013767FM-15+023099999V0202201N004619999999Y999999999+00401+00001999999ADDMA1102201999999REMMET045METAR EDDC 020350Z 22009KT CAVOK 04/00 Q1022=
0084104880999992015010204204+51133+013767FM-15+023099999V0202201N006719999999Y999999999+00501-00101999999ADDMA1102101999999OC101181REMMET049METAR EDDC 020420Z 22013G23KT CAVOK 05/M01 Q1021=
0090104880999992015010204504+51133+013767FM-15+023099999V0202201N005119999999Y999999999+00501-00101999999ADDMA1102101999999REMMET063METAR EDDC 020450Z 22010KT CAVOK 05/M01 Q1021 TEMPO 22015G25KT=
0101104880999992015010205204+51133+013767FM-15+023099999V0202201N006219999999Y999999999+00601-00201999999ADDMA1102101999999REMMET074METAR EDDC 020520Z 22012KT CAVOK 06/M02 Q1021 R04/19//95 TEMPO 22015G25KT=
0101104880999992015010205504+51133+013767FM-15+023099999V0202201N006719999999Y999999999+00601-00201999999ADDMA1102101999999REMMET074METAR EDDC 020550Z 22013KT CAVOK 06/M02 Q1021 R04/19//95 TEMPO 22015G25KT=
0101104880999992015010206204+51133+013767FM-15+023099999V0202301N007219999999Y999999999+00701-00201999999ADDMA1102001999999REMMET074METAR EDDC 020620Z 23014KT CAVOK 07/M02 Q1020 R04/19//95 TEMPO 22015G25KT=
0101104880999992015010206504+51133+013767FM-15+023099999V0202301N006219999999Y999999999+00801-00301999999ADDMA1101901999999REMMET074METAR EDDC 020650Z 23012KT CAVOK 08/M03 Q1019 R04/19//95 TEMPO 23015G25KT=
0186104880999992015010207204+51133+013767FM-15+023099999V0202401N009310112819N009999199+00701+00001999999ADDGA1071+011281999GE19MSL   +99999+99999GF199999071999011281999999MA1101901999999MW1611OC101541REMMET081METAR EDDC 020720Z 24018G30KT 9999 -RA BKN037 07/M00 Q1019 R04/19//95      NOSIG=
0175104880999992015010207504+51133+013767FM-15+023099999V0202301N008210109719N009999199+00501+00201999999ADDGA1071+010971999GE19MSL   +99999+99999GF199999071999010971999999MA1101901999999MW1611OC101441REMMET070METAR EDDC 020750Z 23016G28KT 9999 -RA BKN036 05/02 Q1019 R04/D NOSIG=
0180104880999992015010208204+51133+013767FM-15+023099999V0202401N007210076219N009999199+00501+00201999999ADDGA1071+007621999GE19MSL   +99999+99999GF199999071999007621999999MA1101901999999MW1611REMMET083METAR EDDC 020820Z 24014KT 9999 -RA BKN025 05/02 Q1019 R04/D TEMPO      24015G25KT=
0180104880999992015010208504+51133+013767FM-15+023099999V0202501N005710073219N009999199+00501+00301999999ADDGA1071+007321999GE19MSL   +99999+99999GF199999071999007321999999MA1102001999999MW1611REMMET083METAR EDDC 020850Z 25011KT 9999 -RA BKN024 05/03 Q1020 R04/D TEMPO      24015G25KT=
0180104880999992015010209204+51133+013767FM-15+023099999V0202401N006710085319N009999199+00501+00301999999ADDGA1071+008531999GE19MSL   +99999+99999GF199999071999008531999999MA1102001999999MW1611REMMET083METAR EDDC 020920Z 24013KT 9999 -RA BKN028 05/03 Q1020 R04/D TEMPO      24015G25KT=
0192104880999992015010209504+51133+013767FM-15+023099999V0202401N007210097519N009999199+00501+00301999999ADDGA1021+006101999GA2071+009751999GE19MSL   +99999+99999GF199999021999006101999999MA1102001999999MW1611OC101341REMMET071METAR EDDC 020950Z 24014G26KT 9999 -RA FEW020 BKN032 05/03 Q1020 NOSIG=
0182104880999992015010210204+51133+013767FM-15+023099999V0202501N008210082319N009999199+00501+00301999999ADDGA1021+005491999GA2071+008231999GE19MSL   +99999+99999GF199999021999005491999999MA1102001999999OC101541REMMET067METAR EDDC 021020Z 25016G30KT 9999 FEW018 BKN027 05/03 Q1020 NOSIG=
0182104880999992015010210504+51133+013767FM-15+023099999V0202501N007710082319N009999199+00601+00301999999ADDGA1021+005491999GA2071+008231999GE19MSL   +99999+99999GF199999021999005491999999MA1102001999999OC101291REMMET067METAR EDDC 021050Z 25015G25KT 9999 FEW018 BKN027 06/03 Q1020 NOSIG=
0182104880999992015010211204+51133+013767FM-15+023099999V0202601N008210082319N009999199+00601+00301999999ADDGA1041+006101999GA2071+008231999GE19MSL   +99999+99999GF199999041999006101999999MA1102001999999OC101341REMMET067METAR EDDC 021120Z 26016G26KT 9999 SCT020 BKN027 06/03 Q1020 NOSIG=
0159104880999992015010211504+51133+013767FM-15+023099999V0202501N006710064019N009999199+00501+00301999999ADDGA1071+006401999GE19MSL   +99999+99999GF199999071999006401999999MA1102001999999REMMET068METAR EDDC 021150Z 25013KT 9999 BKN021 05/03 Q1020 TEMPO 25015G25KT=
0182104880999992015010212204+51133+013767FM-15+023099999V0202501N007210134119N009999199+00601+00201999999ADDGA1041+006101999GA2071+013411999GE19MSL   +99999+99999GF199999041999006101999999MA1102001999999OC101441REMMET067METAR EDDC 021220Z 25014G28KT 9999 SCT020 BKN044 06/02 Q1020 NOSIG=
0182104880999992015010212504+51133+013767FM-15+023099999V0202501N006710143319N009999199+00501+00301999999ADDGA1041+006101999GA2071+014331999GE19MSL   +99999+99999GF199999041999006101999999MA1102001999999OC101291REMMET067METAR EDDC 021250Z 25013G25KT 9999 SCT020 BKN047 05/03 Q1020 NOSIG=
0182104880999992015010213204+51133+013767FM-15+023099999V0202601N007710152419N009999199+00601+00201999999ADDGA1041+006101999GA2071+015241999GE19MSL   +99999+99999GF199999041999006101999999MA1102101999999OC101441REMMET067METAR EDDC 021320Z 26015G28KT 9999 SCT020 BKN050 06/02 Q1021 NOSIG=
0182104880999992015010213504+51133+013767FM-15+023099999V0202601N008210164619N009999199+00601+00201999999ADDGA1021+006711999GA2071+016461999GE19MSL   +99999+99999GF199999021999006711999999MA1102101999999OC101341REMMET067METAR EDDC 021350Z 26016G26KT 9999 FEW022 BKN054 06/02 Q1021 NOSIG=
0182104880999992015010214204+51133+013767FM-15+023099999V0202501N006710164619N009999199+00601+00201999999ADDGA1041+006711999GA2071+016461999GE19MSL   +99999+99999GF199999041999006711999999MA1102101999999REMMET075METAR EDDC 021420Z 25013KT 9999 SCT022 BKN054 06/02 Q1021 TEMPO 25015G25KT=
0198104880999992015010214504+51133+013767FM-15+023099999V0202501N006710054919N009999199+00501+00201999999ADDGA1071+005491999GA2071+015851999GE19MSL   +99999+99999GF199999071999005491999999MA1102101999999OC101181REMMET083METAR EDDC 021450Z 25013G23KT 9999 BKN018 BKN052 05/02 Q1021 TEMPO      25015G25KT=
0198104880999992015010215204+51133+013767FM-15+023099999V0202501N006210152419N009999199+00501+00201999999ADDGA1041+006101999GA2071+015241999GE19MSL   +99999+99999GF199999041999006101999999MA1102201999999OC101241REMMET083METAR EDDC 021520Z 25012G24KT 9999 SCT020 BKN050 05/02 Q1022 TEMPO      25015G25KT=
0089104880999992015010215504+51133+013767FM-15+023099999V0202501N006719999999Y999999999+00501+00101999999ADDMA1102201999999REMMET062METAR EDDC 021550Z 25013KT CAVOK 05/01 Q1022 TEMPO 25015G25KT=
0089104880999992015010216204+51133+013767FM-15+023099999V0202501N006219999999Y999999999+00401+00101999999ADDMA1102201999999REMMET062METAR EDDC 021620Z 25012KT CAVOK 04/01 Q1022 TEMPO 25015G25KT=
0159104880999992015010216504+51133+013767FM-15+023099999V0202601N007219999999N009999199+00401+00101999999ADDGA1021+013721999GE19MSL   +99999+99999GF199999021999013721999999MA1102201999999OC101291REMMET060METAR EDDC 021650Z 26014G25KT 9999 FEW045 04/01 Q1022 NOSIG=
0170104880999992015010217204+51133+013767FM-15+023099999V0202601N006710109719N009999199+00401+00101999999ADDGA1071+010971999GE19MSL   +99999+99999GF199999071999010971999999MA1102301999999OC101241REMMET071METAR EDDC 021720Z 26013G24KT 9999 BKN036 04/01 Q1023 TEMPO 26015G25KT=
0182104880999992015010217504+51133+013767FM-15+023099999V0202601N00721011581CN009999199+00401+00101999999ADDGA1021+006101999GA2041+011581999GE19MSL   +99999+99999GF199999021999006101999999MA1102401999999OC101341REMMET067METAR EDDC 021750Z 26014G26KT 9999 FEW020 SCT038 04/01 Q1024 NOSIG=
0182104880999992015010218204+51133+013767FM-15+023099999V0202601N007210152419N009999199+00401+00101999999ADDGA1021+006101999GA2071+015241999GE19MSL   +99999+99999GF199999021999006101999999MA1102401999999REMMET075METAR EDDC 021820Z 26014KT 9999 FEW020 BKN050 04/01 Q1024 TEMPO 26015G25KT=
0170104880999992015010218504+51133+013767FM-15+023099999V0202601N006210134119N009999199+00401+00101999999ADDGA1071+013411999GE19MSL   +99999+99999GF199999071999013411999999MA1102401999999OC101131REMMET071METAR EDDC 021850Z 26012G22KT 9999 BKN044 04/01 Q1024 TEMPO 26015G25KT=
0182104880999992015010219204+51133+013767FM-15+023099999V0202601N007710176819N009999199+00401+00101999999ADDGA1021+012191999GA2071+017681999GE19MSL   +99999+99999GF199999021999012191999999MA1102401999999OC101441REMMET067METAR EDDC 021920Z 26015G28KT 9999 FEW040 BKN058 04/01 Q1024 NOSIG=
0089104880999992015010219504+51133+013767FM-15+023099999V0202601N006719999999Y999999999+00401+00101999999ADDMA1102401999999REMMET062METAR EDDC 021950Z 26013KT CAVOK 04/01 Q1024 TEMPO 26015G25KT=
0182104880999992015010220204+51133+013767FM-15+023099999V0202601N007710176819N009999199+00401+00101999999ADDGA1021+012801999GA2071+017681999GE19MSL   +99999+99999GF199999021999012801999999MA1102501999999REMMET075METAR EDDC 022020Z 26015KT 9999 FEW042 BKN058 04/01 Q1025 TEMPO 26015G26KT=
0089104880999992015010220504+51133+013767FM-15+023099999V0202701N007719999999Y999999999+00401+00101999999ADDMA1102501999999OC101291REMMET054METAR EDDC 022050Z 27015G25KT CAVOK 04/01 Q1025 NOSIG=
0083104880999992015010221204+51133+013767FM-15+023099999V0202601N007219999999Y999999999+00401+00001999999ADDMA1102501999999OC101291REMMET048METAR EDDC 022120Z 26014G25KT CAVOK 04/00 Q1025=
0073104880999992015010221504+51133+013767FM-15+023099999V0202601N007219999999Y999999999+00401+00001999999ADDMA1102501999999REMMET046METAR EDDC 022150Z 26014KT CAVOK 04/M00 Q1025=
0073104880999992015010222204+51133+013767FM-15+023099999V0202601N006719999999Y999999999+00401+00001999999ADDMA1102501999999REMMET046METAR EDDC 022220Z 26013KT CAVOK 04/M00 Q1025=
0143104880999992015010222504+51133+013767FM-15+023099999V0202601N006210137219N009999199+00401+00001999999ADDGA1071+013721999GE19MSL   +99999+99999GF199999071999013721999999MA1102501999999REMMET052METAR EDDC 022250Z 26012KT 9999 BKN045 04/M00 Q1025=
0143104880999992015010223204+51133+013767FM-15+023099999V0202601N006710131119N009999199+00401-00101999999ADDGA1071+013111999GE19MSL   +99999+99999GF199999071999013111999999MA1102501999999REMMET052METAR EDDC 022320Z 26013KT 9999 BKN043 04/M01 Q1025=
0143104880999992015010223504+51133+013767FM-15+023099999V0202601N006710146319N009999199+00401-00101999999ADDGA1071+014631999GE19MSL   +99999+99999GF199999071999014631999999MA1102501999999REMMET052METAR EDDC 022350Z 26013KT 9999 BKN048 04/M01 Q1025=
0143104880999992015010300204+51133+013767FM-15+023099999V0202601N007210146319N009999199+00401-00101999999ADDGA1071+014631999GE19MSL   +99999+99999GF199999071999014631999999MA1102501999999REMMET052METAR EDDC 030020Z 26014KT 9999 BKN048 04/M01 Q1025=
0073104880999992015010300504+51133+013767FM-15+023099999V0202601N007219999999Y999999999+00401-00101999999ADDMA1102501999999REMMET046METAR EDDC 030050Z 26014KT CAVOK 04/M01 Q1025=
0166104880999992015010301204+51133+013767FM-15+023099999V0202601N006710146319N009999199+00401-00101999999ADDGA1021+010671999GA2071+014631999GE19MSL   +99999+99999GF199999021999010671999999MA1102601999999REMMET059METAR EDDC 030120Z 26013KT 9999 FEW035 BKN048 04/M01 Q1026=
0073104880999992015010301504+51133+013767FM-15+023099999V0202601N007219999999Y999999999+00401-00101999999ADDMA1102601999999REMMET046METAR EDDC 030150Z 26014KT CAVOK 04/M01 Q1026=
0177104880999992015010302204+51133+013767FM-15+023099999V0202701N007210167619N009999199+00401-00101999999ADDGA1021+010671999GA2071+016761999GE19MSL   +99999+99999GF199999021999010671999999MA1102601999999OC101291REMMET062METAR EDDC 030220Z 27014G25KT 9999 FEW035 BKN055 04/M01 Q1026=
0177104880999992015010302504+51133+013767FM-15+023099999V0202701N007710158519N009999199+00401-00101999999ADDGA1021+012191999GA2071+015851999GE19MSL   +99999+99999GF199999021999012191999999MA1102601999999OC101291REMMET062METAR EDDC 030250Z 27015G25KT 9999 FEW040 BKN052 04/M01 Q1026=
0177104880999992015010303204+51133+013767FM-15+023099999V0202701N007710170719N009999199+00401-00101999999ADDGA1021+012191999GA2071+017071999GE19MSL   +99999+99999GF199999021999012191999999MA1102601999999OC101341REMMET062METAR EDDC 030320Z 27015G26KT 9999 FEW040 BKN056 04/M01 Q1026=
0200104880999992015010303504+51133+013767FM-15+023099999V0202701N00621017071CN009999199+00401-00101999999ADDGA1021+012191999GA2041+017071999GA3071+048771999GE19MSL   +99999+99999GF199999021999012191999999MA1102501999999OC101131REMMET069METAR EDDC 030350Z 27012G22KT 9999 FEW040 SCT056 BKN160 04/M01 Q1025=
0200104880999992015010304204+51133+013767FM-15+023099999V0202701N00671048771CN009999199+00301-00101999999ADDGA1021+012191999GA2041+048771999GA3071+091441999GE19MSL   +99999+99999GF199999021999012191999999MA1102601999999OC101181REMMET069METAR EDDC 030420Z 27013G23KT 9999 FEW040 SCT160 BKN300 03/M01 Q1026=
0183104880999992015010304504+51133+013767FM-15+023099999V0202601N00621091441CN009999199+00301-00101999999ADDGA1021+011581999GA2041+091441999GE19MSL   +99999+99999GF199999021999011581999999MA1102501999999REMMET076METAR EDDC 030450Z 26012KT 9999 FEW038 SCT300 03/M01 Q1025 TEMPO 26015G25KT=
0183104880999992015010305204+51133+013767FM-15+023099999V0202601N00511091441CN009999199+00301-00101999999ADDGA1021+011581999GA2041+091441999GE19MSL   +99999+99999GF199999021999011581999999MA1102501999999REMMET076METAR EDDC 030520Z 26010KT 9999 FEW038 SCT300 03/M01 Q1025 TEMPO 26015G25KT=
0090104880999992015010305504+51133+013767FM-15+023099999V0202601N005119999999Y999999999+00301-00101999999ADDMA1102501999999REMMET063METAR EDDC 030550Z 26010KT CAVOK 03/M01 Q1025 TEMPO 26015G25KT=
0090104880999992015010306204+51133+013767FM-15+023099999V0202601N005119999999Y999999999+00301-00101999999ADDMA1102401999999REMMET063METAR EDDC 030620Z 26010KT CAVOK 03/M01 Q1024 TEMPO 26015G25KT=
0101104880999992015010306504+51133+013767FM-15+023099999V0202501N005119999999Y999999999+00301-00101999999ADDMA1102401999999OC101081REMMET066METAR EDDC 030650Z 25010G21KT CAVOK 03/M01 Q1024 TEMPO 26015G25KT=
0090104880999992015010307204+51133+013767FM-15+023099999V0202501N005119999999Y999999999+00301-00101999999ADDMA1102401999999REMMET063METAR EDDC 030720Z 25010KT CAVOK 03/M01 Q1024 TEMPO 26015G25KT=
0090104880999992015010307504+51133+013767FM-15+023099999V0202401N004619999999Y999999999+00301-00101999999ADDMA1102401999999REMMET063METAR EDDC 030750Z 24009KT CAVOK 03/M01 Q1024 TEMPO 26015G25KT=
0090104880999992015010308204+51133+013767FM-15+023099999V0202401N005119999999Y999999999+00301-00101999999ADDMA1102401999999REMMET063METAR EDDC 030820Z 24010KT CAVOK 03/M01 Q1024 TEMPO 26015G25KT=
0090104880999992015010308504+51133+013767FM-15+023099999V0202401N005119999999Y999999999+00301-00201999999ADDMA1102301999999REMMET063METAR EDDC 030850Z 24010KT CAVOK 03/M02 Q1023 TEMPO 26015G25KT=
0101104880999992015010309204+51133+013767FM-15+023099999V0202501N005719999999Y999999999+00301-00201999999ADDMA1102301999999OC101081REMMET066METAR EDDC 030920Z 25011G21KT CAVOK 03/M02 Q1023 TEMPO 26015G25KT=
0090104880999992015010309504+51133+013767FM-15+023099999V0202301N006719999999Y999999999+00301-00201999999ADDMA1102201999999REMMET063METAR EDDC 030950Z 23013KT CAVOK 03/M02 Q1022 TEMPO 26015G25KT=
0090104880999992015010310204+51133+013767FM-15+023099999V0202401N007219999999Y999999999+00401-00301999999ADDMA1102201999999REMMET063METAR EDDC 031020Z 24014KT CAVOK 04/M03 Q1022 TEMPO 26015G25KT=
0101104880999992015010310504+51133+013767FM-15+023099999V0202401N007219999999Y999999999+00401-00301999999ADDMA1102101999999OC101241REMMET066METAR EDDC 031050Z 24014G24KT CAVOK 04/M03 Q1021 TEMPO 26015G25KT=
0101104880999992015010311204+51133+013767FM-15+023099999V0202401N007219999999Y999999999+00401-00201999999ADDMA1102101999999OC101241REMMET066METAR EDDC 031120Z 24014G24KT CAVOK 04/M02 Q1021 TEMPO 26015G25KT=
0090104880999992015010311504+51133+013767FM-15+023099999V0202401N007219999999Y999999999+00401-00201999999ADDMA1102001999999REMMET063METAR EDDC 031150Z 24014KT CAVOK 04/M02 Q1020 TEMPO 26015G25KT=
0090104880999992015010312204+51133+013767FM-15+023099999V0202401N006719999999Y999999999+00401-00201999999ADDMA1101901999999OC101181REMMET055METAR EDDC 031220Z 24013G23KT CAVOK 04/M02 Q1019 NOSIG=
0094104880999992015010312504+51133+013767FM-15+023099999V0202501N007219999999Y999999999+00401-00101999999ADDMA1101901999999REMMET067METAR COR EDDC 031250Z 25014KT CAVOK 04/M01 Q1019 TEMPO 26015G25KT=
0090104880999992015010313204+51133+013767FM-15+023099999V0202501N006719999999Y999999999+00401-00101999999ADDMA1101801999999OC101341REMMET055METAR EDDC 031320Z 25013G26KT CAVOK 04/M01 Q1018 NOSIG=
0209104880999992015010313504+51133+013767FM-15+023099999V0202601N006210048819N009999199+00301+00001999999ADDGA1071+004881999GA2071+045721999GE19MSL   +99999+99999GF199999071999004881999999MA1101801999999MW1611OC101131REMMET088METAR EDDC 031350Z 26012G22KT 9999 -RA BKN016 BKN150 03/M00 Q1018 TEMPO      26015G25KT=
0193104880999992015010314204+51133+013767FM-15+023099999V0202601N005110045719N009999199+00201+00001999999ADDGA1041+003661999GA2071+004571999GE19MSL   +99999+99999GF199999041999003661999999MA1101801999999MW1611REMMET080METAR EDDC 031420Z 26010KT 9999 -RA SCT012 BKN015 02/00 Q1018 TEMPO      BKN012=
0148104880999992015010314504+51133+013767FM-15+023099999V0202501N004610033519N009999199+00201+00001999999ADDGA1071+003351999GE19MSL   +99999+99999GF199999071999003351999999MA1101701999999REMMET057METAR EDDC 031450Z 25009KT 9999 BKN011 02/00 Q1017 NOSIG=
0168104880999992015010315204+51133+013767FM-15+023099999V0202601N004610024419N008000199+00101+00001999999ADDGA1071+002441999GE19MSL   +99999+99999GF199999071999002441999999MA1101701999999MW1611REMMET071METAR EDDC 031520Z 26009KT 8000 -RA BKN008 01/00 Q1017 TEMPO 4000 RASN=
0181104880999992015010315504+51133+013767FM-15+023099999V0202401N003610018319N009999199+00101+00001999999ADDGA1071+001831999GA2071+003051999GE19MSL   +99999+99999GF199999071999001831999999MA1101601999999MW1611REMMET068METAR EDDC 031550Z 24007KT 9999 -RA BKN006 BKN010 01/00 Q1016 NOSIG=
0216104880999992015010316204+51133+013767FM-15+023099999V0202401N004610067119N009999199+00101+00001999999ADDGA1041+002441999GA2071+006711999GA3071+012191999GE19MSL   +99999+99999GF199999041999002441999999MA1101601999999MW1611REMMET087METAR EDDC 031620Z 24009KT 9999 -RA SCT008 BKN022 BKN040 01/00 Q1016      TEMPO BKN008=
0209104880999992015010316504+51133+013767FM-15+023099999V0202301N00571010971CN009999199+00101+00001999999ADDGA1041+002441999GA2041+010971999GA3071+039621999GE19MSL   +99999+99999GF199999041999002441999999MA1101501999999MW1711REMMET080METAR EDDC 031650Z 23011KT 9999 -SN SCT008 SCT036 BKN130 01/00 Q1015      NOSIG=
0195104880999992015010317204+51133+013767FM-15+023099999V0202401N00511018291CN009999199+00101+00001999999ADDGA1021+002741999GA2041+018291999GA3071+024381999GE19MSL   +99999+99999GF199999021999002741999999MA1101401999999REMMET072METAR EDDC 031720Z 24010KT 9999 FEW009 SCT060 BKN080 01/M00 Q1014 NOSIG=
0195104880999992015010317504+51133+013767FM-15+023099999V0202401N00461024381CN009999199+00101+00001999999ADDGA1021+003661999GA2041+024381999GA3071+039621999GE19MSL   +99999+99999GF199999021999003661999999MA1101401999999REMMET072METAR EDDC 031750Z 24009KT 9999 FEW012 SCT080 BKN130 01/M00 Q1014 NOSIG=
0079104880999992015010318204+51133+013767FM-15+023099999V0202501N004619999999Y999999999+00201+00001999999ADDMA1101401999999REMMET052METAR EDDC 031820Z 25009KT CAVOK 02/M00 Q1014 NOSIG=
0079104880999992015010318504+51133+013767FM-15+023099999V0202501N005119999999Y999999999+00201-00101999999ADDMA1101301999999REMMET052METAR EDDC 031850Z 25010KT CAVOK 02/M01 Q1013 NOSIG=
0079104880999992015010319204+51133+013767FM-15+023099999V0202601N004619999999Y999999999+00201-00101999999ADDMA1101301999999REMMET052METAR EDDC 031920Z 26009KT CAVOK 02/M01 Q1013 NOSIG=
0079104880999992015010319504+51133+013767FM-15+023099999V0202601N004119999999Y999999999+00201-00101999999ADDMA1101301999999REMMET052METAR EDDC 031950Z 26008KT CAVOK 02/M01 Q1013 NOSIG=
0079104880999992015010320204+51133+013767FM-15+023099999V0202601N004619999999Y999999999+00201-00101999999ADDMA1101301999999REMMET052METAR EDDC 032020Z 26009KT CAVOK 02/M01 Q1013 NOSIG=
0079104880999992015010320504+51133+013767FM-15+023099999V0202701N004619999999Y999999999+00201+00001999999ADDMA1101301999999REMMET052METAR EDDC 032050Z 27009KT CAVOK 02/M00 Q1013 NOSIG=
0189104880999992015010321204+51133+013767FM-15+023099999V0202601N00571006401CN009999199+00201+00001999999ADDGA1021+004571999GA2041+006401999GA3071+022561999GE19MSL   +99999+99999GF199999021999004571999999MA1101301999999REMMET066METAR EDDC 032120Z 26011KT 9999 FEW015 SCT021 BKN074 02/M00 Q1013=
0189104880999992015010321504+51133+013767FM-15+023099999V0202801N00461004571CN009999199+00201+00001999999ADDGA1021+001831999GA2041+004571999GA3071+006401999GE19MSL   +99999+99999GF199999021999001831999999MA1101301999999REMMET066METAR EDDC 032150Z 28009KT 9999 FEW006 SCT015 BKN021 02/M00 Q1013=
0176104880999992015010322204+51133+013767FM-15+023099999V0202801N003610042719N009999199+00201+00001999999ADDGA1021+001521999GA2071+004271999GE19MSL   +99999+99999GF199999021999001521999999MA1101301999999MW1711REMMET063METAR EDDC 032220Z 28007KT 9999 -SN FEW005 BKN014 02/M00 Q1013=
0198104880999992015010322504+51133+013767FM-15+023099999V0202701N00461002741CN009000199+00201+00001999999ADDGA1021+000911999GA2041+002741999GA3071+003961999GE19MSL   +99999+99999GF199999021999000911999999MA1101301999999MW1611REMMET069METAR EDDC 032250Z 27009KT 9000 -RA FEW003 SCT009 BKN013 02/00 Q1013=
0175104880999992015010323204+51133+013767FM-15+023099999V0202901N006210021319N009999199+00201+00001999999ADDGA1071+002131999GA2071+003661999GE19MSL   +99999+99999GF199999071999002131999999MA1101401999999MW1611REMMET062METAR EDDC 032320Z 29012KT 9999 -RA BKN007 BKN012 02/00 Q1014=
0142104880999992015010323504+51133+013767FM-15+023099999V0202801N006210021319N009999199+00201+00001999999ADDGA1071+002131999GE19MSL   +99999+99999GF199999071999002131999999MA1101401999999REMMET051METAR EDDC 032350Z 28012KT 9999 BKN007 02/00 Q1014=
0142104880999992015010400204+51133+013767FM-15+023099999V0203001N006710024419N009999199+00201+00101999999ADDGA1071+002441999GE19MSL   +99999+99999GF199999071999002441999999MA1101501999999REMMET051METAR EDDC 040020Z 30013KT 9999 BKN008 02/01 Q1015=
0165104880999992015010400504+51133+013767FM-15+023099999V0202901N00571007621CN009999199+00201+00001999999ADDGA1041+002741999GA2041+007621999GE19MSL   +99999+99999GF199999041999002741999999MA1101501999999REMMET058METAR EDDC 040050Z 29011KT 9999 SCT009 SCT025 02/00 Q1015=
0165104880999992015010401204+51133+013767FM-15+023099999V0202901N006210030519N009999199+00201+00001999999ADDGA1071+003051999GA2071+012191999GE19MSL   +99999+99999GF199999071999003051999999MA1101601999999REMMET058METAR EDDC 040120Z 29012KT 9999 BKN010 BKN040 02/00 Q1016=
0175104880999992015010401504+51133+013767FM-15+023099999V0202901N006210030519N009999199+00201+00101999999ADDGA1021+001521999GA2071+003051999GE19MSL   +99999+99999GF199999021999001521999999MA1101601999999MW1611REMMET062METAR EDDC 040150Z 29012KT 9999 -RA FEW005 BKN010 02/01 Q1016=
0175104880999992015010402204+51133+013767FM-15+023099999V0202901N005710030519N009999199+00201+00101999999ADDGA1021+001521999GA2071+003051999GE19MSL   +99999+99999GF199999021999001521999999MA1101701999999MW1611REMMET062METAR EDDC 040220Z 29011KT 9999 -RA FEW005 BKN010 02/01 Q1017=
0186104880999992015010402504+51133+013767FM-15+023099999V0202801N006210030519N009999199+00201+00101999999ADDGA1021+001831999GA2071+003051999GE19MSL   +99999+99999GF199999021999001831999999MA1101701999999MW1611OC101131REMMET065METAR EDDC 040250Z 28012G22KT 9999 -RA FEW006 BKN010 02/01 Q1017=
0188104880999992015010403204+51133+013767FM-15+023099999V0202801N006210030519N009999199+00201+00101999999ADDGA1021+002131999GA2071+003051999GE19MSL   +99999+99999GF199999021999002131999999MA1101701999999MW1581OC101181REMMET067METAR EDDC 040320Z 28012G23KT 9999 -RADZ FEW007 BKN010 02/01 Q1017=
0177104880999992015010403504+51133+013767FM-15+023099999V0202901N007210030519N009999199+00201+00101999999ADDGA1021+001831999GA2071+003051999GE19MSL   +99999+99999GF199999021999001831999999MA1101701999999MW1581REMMET064METAR EDDC 040350Z 29014KT 9999 -RADZ FEW006 BKN010 02/01 Q1017=
0165104880999992015010404204+51133+013767FM-15+023099999V0202901N006210036619N009999199+00201+00101999999ADDGA1021+001831999GA2071+003661999GE19MSL   +99999+99999GF199999021999001831999999MA1101801999999REMMET058METAR EDDC 040420Z 29012KT 9999 FEW006 BKN012 02/01 Q1018=
0192104880999992015010404504+51133+013767FM-15+023099999V0202901N007210033519N009999199+00201+00101999999ADDGA1021+001521999GA2071+003351999GE19MSL   +99999+99999GF199999021999001521999999MA1101801999999MW1611OC101291REMMET071METAR EDDC 040450Z 29014G25KT 9999 -RA FEW005 BKN011 02/01 Q1018 NOSIG=
0182104880999992015010405204+51133+013767FM-15+023099999V0202901N007210033519N009999199+00201+00101999999ADDGA1021+001521999GA2071+003351999GE19MSL   +99999+99999GF199999021999001521999999MA1101801999999OC101241REMMET067METAR EDDC 040520Z 29014G24KT 9999 FEW005 BKN011 02/01 Q1018 NOSIG=
0148104880999992015010405504+51133+013767FM-15+023099999V0202901N007210033519N009999199+00201+00101999999ADDGA1071+003351999GE19MSL   +99999+99999GF199999071999003351999999MA1101801999999REMMET057METAR EDDC 040550Z 29014KT 9999 BKN011 02/01 Q1018 NOSIG=
0192104880999992015010406204+51133+013767FM-15+023099999V0202901N006710033519N009999199+00201+00101999999ADDGA1021+001831999GA2071+003351999GE19MSL   +99999+99999GF199999021999001831999999MA1101901999999MW1611OC101341REMMET071METAR EDDC 040620Z 29013G26KT 9999 -RA FEW006 BKN011 02/01 Q1019 NOSIG=
0190104880999992015010406504+51133+013767FM-15+023099999V0203001N006210033519N005000199+00201+00101999999ADDGA1041+001831999GA2071+003351999GE19MSL   +99999+99999GF199999041999001831999999MA1101901999999MW1101MW2611REMMET071METAR EDDC 040650Z 30012KT 5000 -RA BR SCT006 BKN011 02/01 Q1019 NOSIG=
0193104880999992015010407204+51133+013767FM-15+023099999V0202901N005710039619N009999199+00201+00101999999ADDGA1041+002131999GA2071+003961999GE19MSL   +99999+99999GF199999041999002131999999MA1102001999999MW1611REMMET080METAR EDDC 040720Z 29011KT 9999 -RA SCT007 BKN013 02/01 Q1020 BECMG      BKN015=
0178104880999992015010407504+51133+013767FM-15+023099999V0202901N005710033519N009999199+00201+00101999999ADDGA1071+003351999GA2071+006101999GE19MSL   +99999+99999GF199999071999003351999999MA1102001999999REMMET071METAR EDDC 040750Z 29011KT 9999 BKN011 BKN020 02/01 Q1020 BECMG BKN015=
0178104880999992015010408204+51133+013767FM-15+023099999V0202901N005710039619N009999199+00201+00001999999ADDGA1071+003961999GA2071+007011999GE19MSL   +99999+99999GF199999071999003961999999MA1102101999999REMMET071METAR EDDC 040820Z 29011KT 9999 BKN013 BKN023 02/00 Q1021 BECMG BKN015=
0178104880999992015010408504+51133+013767FM-15+023099999V0202901N007210039619N009999199+00201+00001999999ADDGA1071+003961999GA2071+005791999GE19MSL   +99999+99999GF199999071999003961999999MA1102101999999REMMET071METAR EDDC 040850Z 29014KT 9999 BKN013 BKN019 02/00 Q1021 BECMG BKN015=
0171104880999992015010409204+51133+013767FM-15+023099999V0203001N007210051819N009999199+00201+00001999999ADDGA1041+004271999GA2071+005181999GE19MSL   +99999+99999GF199999041999004271999999MA1102201999999REMMET064METAR EDDC 040920Z 30014KT 9999 SCT014 BKN017 02/00 Q1022 NOSIG=
0171104880999992015010409504+51133+013767FM-15+023099999V0203001N007210091419N009999199+00301+00001999999ADDGA1041+004571999GA2071+009141999GE19MSL   +99999+99999GF199999041999004571999999MA1102201999999REMMET064METAR EDDC 040950Z 30014KT 9999 SCT015 BKN030 03/00 Q1022 NOSIG=
0194104880999992015010410204+51133+013767FM-15+023099999V0203001N00721009141CN009999199+00301+00101999999ADDGA1041+004571999GA2041+009141999GA3071+048771999GE19MSL   +99999+99999GF199999041999004571999999MA1102201999999REMMET071METAR EDDC 041020Z 30014KT 9999 SCT015 SCT030 BKN160 03/01 Q1022 NOSIG=
0171104880999992015010410504+51133+013767FM-15+023099999V0203001N006710045719N009999199+00301+00001999999ADDGA1071+004571999GA2071+008231999GE19MSL   +99999+99999GF199999071999004571999999MA1102201999999REMMET064METAR EDDC 041050Z 30013KT 9999 BKN015 BKN027 03/00 Q1022 NOSIG=
0210104880999992015010411204+51133+013767FM-15+023099999V0203001N006710045719N009999199+00301+00001999999ADDGA1041+004271999GA2071+004571999GA3071+006711999GE19MSL   +99999+99999GF199999041999004271999999MA1102201999999REMMET087METAR EDDC 041120Z 30013KT 9999 SCT014 BKN015 BKN022 03/00 Q1022 TEMPO      30015G25KT=
0182104880999992015010411504+51133+013767FM-15+023099999V0202901N006710073219N009999199+00301+00001999999ADDGA1041+004571999GA2071+007321999GE19MSL   +99999+99999GF199999041999004571999999MA1102201999999REMMET075METAR EDDC 041150Z 29013KT 9999 SCT015 BKN024 03/00 Q1022 TEMPO 30015G25KT=
0182104880999992015010412204+51133+013767FM-15+023099999V0202901N00771008231CN009999199+00301+00001999999ADDGA1041+004571999GA2041+008231999GE19MSL   +99999+99999GF199999041999004571999999MA1102201999999REMMET075METAR EDDC 041220Z 29015KT 9999 SCT015 SCT027 03/00 Q1022 TEMPO 30015G25KT=
0182104880999992015010412504+51133+013767FM-15+023099999V0203101N00771008231CN009999199+00401+00101999999ADDGA1041+004571999GA2041+008231999GE19MSL   +99999+99999GF199999041999004571999999MA1102301999999OC101391REMMET067METAR EDDC 041250Z 31015G27KT 9999 SCT015 SCT027 04/01 Q1023 NOSIG=
0182104880999992015010413204+51133+013767FM-15+023099999V0203101N00771008231CN009999199+00401+00001999999ADDGA1041+004881999GA2041+008231999GE19MSL   +99999+99999GF199999041999004881999999MA1102301999999REMMET075METAR EDDC 041320Z 31015KT 9999 SCT016 SCT027 04/00 Q1023 TEMPO 30015G25KT=
0182104880999992015010413504+51133+013767FM-15+023099999V0203001N007710061019N009999199+00401+00001999999ADDGA1041+004881999GA2071+006101999GE19MSL   +99999+99999GF199999041999004881999999MA1102401999999OC101291REMMET067METAR EDDC 041350Z 30015G25KT 9999 SCT016 BKN020 04/00 Q1024 NOSIG=
0183104880999992015010414204+51133+013767FM-15+023099999V0203001N008210064019N009999199+00301+00001999999ADDGA1021+004881999GA2071+006401999GE19MSL   +99999+99999GF199999021999004881999999MA1102401999999OC101391REMMET068METAR EDDC 041420Z 30016G27KT 9999 FEW016 BKN021 03/M00 Q1024 NOSIG=
0182104880999992015010414504+51133+013767FM-15+023099999V0203001N006710073219N009999199+00301+00001999999ADDGA1041+005181999GA2071+007321999GE19MSL   +99999+99999GF199999041999005181999999MA1102401999999REMMET075METAR EDDC 041450Z 30013KT 9999 SCT017 BKN024 03/00 Q1024 TEMPO 30015G25KT=
0182104880999992015010415204+51133+013767FM-15+023099999V0203001N007210064019N009999199+00301+00001999999ADDGA1041+004571999GA2071+006401999GE19MSL   +99999+99999GF199999041999004571999999MA1102401999999REMMET075METAR EDDC 041520Z 30014KT 9999 SCT015 BKN021 03/00 Q1024 TEMPO 30015G25KT=
0182104880999992015010415504+51133+013767FM-15+023099999V0203001N006210061019N009999199+00301+00001999999ADDGA1021+004271999GA2071+006101999GE19MSL   +99999+99999GF199999021999004271999999MA1102501999999REMMET075METAR EDDC 041550Z 30012KT 9999 FEW014 BKN020 03/00 Q1025 TEMPO 30015G25KT=
0210104880999992015010416204+51133+013767FM-15+023099999V0202901N005710091419N009999199+00201+00001999999ADDGA1021+003661999GA2071+009141999GA3071+033531999GE19MSL   +99999+99999GF199999021999003661999999MA1102501999999REMMET087METAR EDDC 041620Z 29011KT 9999 FEW012 BKN030 BKN110 02/00 Q1025 TEMPO      30015G25KT=
0211104880999992015010416504+51133+013767FM-15+023099999V0203101N006710082319N009999199+00201+00001999999ADDGA1021+004571999GA2071+008231999GA3071+039621999GE19MSL   +99999+99999GF199999021999004571999999MA1102501999999REMMET088METAR EDDC 041650Z 31013KT 9999 FEW015 BKN027 BKN130 02/M00 Q1025 TEMPO      30015G25KT=
0208104880999992015010417204+51133+013767FM-15+023099999V0203101N006710064019N009999199+00201+00001999999ADDGA1041+002131999GA2071+006401999GE19MSL   +99999+99999GF199999041999002131999999MA1102501999999MW1831REMMET095METAR EDDC 041720Z 31013KT 9999 -SHRASN SCT007 BKN021 02/00 Q1025 TEMPO      30015G25KT SHRASN=
0204104880999992015010417504+51133+013767FM-15+023099999V0203201N00571003661CN009999199+00101+00001999999ADDGA1041+001831999GA2041+003661999GE19MSL   +99999+99999GF199999041999001831999999MA1102501999999OC101081REMMET089METAR EDDC 041750Z 32011G21KT 9999 SCT006 SCT012 01/M00 Q1025 TEMPO      32015G25KT SHSN=
0192104880999992015010418204+51133+013767FM-15+023099999V0203101N005110045719N009999199+00201+00001999999ADDGA1041+001831999GA2071+004571999GE19MSL   +99999+99999GF199999041999001831999999MA1102601999999REMMET085METAR EDDC 041820Z 31010KT 9999 SCT006 BKN015 02/00 Q1026 TEMPO 32015G25KT      SHSN=
0194104880999992015010418504+51133+013767FM-15+023099999V0203001N006210045719N009999199+00201+00001999999ADDGA1021+002741999GA2071+004571999GA3071+009141999GE19MSL   +99999+99999GF199999021999002741999999MA1102601999999REMMET071METAR EDDC 041850Z 30012KT 9999 FEW009 BKN015 BKN030 02/00 Q1026 NOSIG=
0172104880999992015010419204+51133+013767FM-15+023099999V0203101N00571004571CN009999199+00101+00001999999ADDGA1021+002741999GA2041+004571999GE19MSL   +99999+99999GF199999021999002741999999MA1102601999999REMMET065METAR EDDC 041920Z 31011KT 9999 FEW009 SCT015 01/M00 Q1026 NOSIG=
0149104880999992015010419504+51133+013767FM-15+023099999V0203101N006219999999N009999199+00101+00001999999ADDGA1041+006711999GE19MSL   +99999+99999GF199999041999006711999999MA1102701999999REMMET058METAR EDDC 041950Z 31012KT 9999 SCT022 01/M00 Q1027 NOSIG=
0149104880999992015010420204+51133+013767FM-15+023099999V0203101N005119999999N009999199+00101-00101999999ADDGA1041+008231999GE19MSL   +99999+99999GF199999041999008231999999MA1102701999999REMMET058METAR EDDC 042020Z 31010KT 9999 SCT027 01/M01 Q1027 NOSIG=
0172104880999992015010420504+51133+013767FM-15+023099999V0203101N00571009141CN009999199+00101+00001999999ADDGA1021+003961999GA2041+009141999GE19MSL   +99999+99999GF199999021999003961999999MA1102801999999REMMET065METAR EDDC 042050Z 31011KT 9999 FEW013 SCT030 01/M00 Q1028 NOSIG=
0143104880999992015010421204+51133+013767FM-15+023099999V0203001N005710070119N009999199+00101+00001999999ADDGA1071+007011999GE19MSL   +99999+99999GF199999071999007011999999MA1102801999999REMMET052METAR EDDC 042120Z 30011KT 9999 BKN023 01/M00 Q1028=
0143104880999992015010421504+51133+013767FM-15+023099999V0203001N005710054919N009999199+00101-00101999999ADDGA1071+005491999GE19MSL   +99999+99999GF199999071999005491999999MA1102801999999REMMET052METAR EDDC 042150Z 30011KT 9999 BKN018 01/M01 Q1028=
0166104880999992015010422204+51133+013767FM-15+023099999V0203101N00511008841CN009999199+00101-00101999999ADDGA1041+005491999GA2041+008841999GE19MSL   +99999+99999GF199999041999005491999999MA1102801999999REMMET059METAR EDDC 042220Z 31010KT 9999 SCT018 SCT029 01/M01 Q1028=
0143104880999992015010422504+51133+013767FM-15+023099999V0203001N004110045719N009999199+00101+00001999999ADDGA1071+004571999GE19MSL   +99999+99999GF199999071999004571999999MA1102901999999REMMET052METAR EDDC 042250Z 30008KT 9999 BKN015 01/M00 Q1029=
0166104880999992015010423204+51133+013767FM-15+023099999V0202901N003610039619N009999199+00101+00001999999ADDGA1041+002131999GA2071+003961999GE19MSL   +99999+99999GF199999041999002131999999MA1102901999999REMMET059METAR EDDC 042320Z 29007KT 9999 SCT007 BKN013 01/M00 Q1029=
0165104880999992015010423504+51133+013767FM-15+023099999V0203001N004110024419N009999199+00101+00001999999ADDGA1071+002441999GA2071+003961999GE19MSL   +99999+99999GF199999071999002441999999MA1102901999999REMMET058METAR EDDC 042350Z 30008KT 9999 BKN008 BKN013 01/00 Q1029=
0142104880999992015010500204+51133+013767FM-15+023099999V0202901N004610021319N009999199+00201+00001999999ADDGA1071+002131999GE19MSL   +99999+99999GF199999071999002131999999MA1102901999999REMMET051METAR EDDC 050020Z 29009KT 9999 BKN007 02/00 Q1029=
0165104880999992015010500504+51133+013767FM-15+023099999V0202901N005110024419N009999199+00201+00101999999ADDGA1071+002441999GA2071+004271999GE19MSL   +99999+99999GF199999071999002441999999MA1102901999999REMMET058METAR EDDC 050050Z 29010KT 9999 BKN008 BKN014 02/01 Q1029=
0165104880999992015010501204+51133+013767FM-15+023099999V0203001N004610027419N009999199+00201+00101999999ADDGA1071+002741999GA2071+004271999GE19MSL   +99999+99999GF199999071999002741999999MA1102901999999REMMET058METAR EDDC 050120Z 30009KT 9999 BKN009 BKN014 02/01 Q1029=
0154104880999992015010501504+51133+013767FM-15+023099999V0203001N005110021319N009999199+00201+00101999999ADDGA1071+002131999GE19MSL   +99999+99999GF199999071999002131999999MA1102901999999MW1681REMMET057METAR EDDC 050150Z 30010KT 9999 -RASN BKN007 02/01 Q1029=
0175104880999992015010502204+51133+013767FM-15+023099999V0203001N006210018319N009999199+00201+00101999999ADDGA1021+001221999GA2071+001831999GE19MSL   +99999+99999GF199999021999001221999999MA1102901999999MW1611REMMET062METAR EDDC 050220Z 30012KT 9999 -RA FEW004 BKN006 02/01 Q1029=
0177104880999992015010502504+51133+013767FM-15+023099999V0202801N004110015219N009000199+00101+00001999999ADDGA1041+000911999GA2071+001521999GE19MSL   +99999+99999GF199999041999000911999999MA1102801999999MW1681REMMET064METAR EDDC 050250Z 28008KT 9000 -RASN SCT003 BKN005 01/00 Q1028=
0184104880999992015010503204+51133+013767FM-15+023099999V0202901N005110012219N004500199+00101+00001999999ADDGA1041+000911999GA2071+001221999GE19MSL   +99999+99999GF199999041999000911999999MA1102801999999MW1101MW2711REMMET065METAR EDDC 050320Z 29010KT 4500 -SN BR SCT003 BKN004 01/00 Q1028=
0177104880999992015010503504+51133+013767FM-15+023099999V0202901N005110012219N007000199+00201+00101999999ADDGA1071+001221999GA2071+002441999GE19MSL   +99999+99999GF199999071999001221999999MA1102801999999MW1681REMMET064METAR EDDC 050350Z 29010KT 7000 -RASN BKN004 BKN008 02/01 Q1028=
0165104880999992015010504204+51133+013767FM-15+023099999V0202901N005710018319N009000199+00201+00101999999ADDGA1071+001831999GE19MSL   +99999+99999GF199999071999001831999999MA1102801999999MW1681OC101081REMMET060METAR EDDC 050420Z 29011G21KT 9000 -RASN BKN006 02/01 Q1028=
0202104880999992015010504504+51133+013767FM-15+023099999V0202901N005710030519N009999199+00201+00101999999ADDGA1041+002131999GA2071+003051999GE19MSL   +99999+99999GF199999041999002131999999MA1102801999999MW1681REMMET089METAR EDDC 050450Z 29011KT 9999 -RASN SCT007 BKN010 02/01 Q1028 BECMG      SCT010 BKN020=
0178104880999992015010505204+51133+013767FM-15+023099999V0202801N005710106719N009999199+00201+00101999999ADDGA1041+003661999GA2071+010671999GE19MSL   +99999+99999GF199999041999003661999999MA1102701999999REMMET071METAR EDDC 050520Z 28011KT 9999 SCT012 BKN035 02/01 Q1027 TEMPO BKN012=
0178104880999992015010505504+51133+013767FM-15+023099999V0202801N006210118919N009999199+00201+00101999999ADDGA1041+003661999GA2071+011891999GE19MSL   +99999+99999GF199999041999003661999999MA1102701999999REMMET071METAR EDDC 050550Z 28012KT 9999 SCT012 BKN039 02/01 Q1027 TEMPO BKN012=
0166104880999992015010506204+51133+013767FM-15+023099999V0202801N005710061019N009999199+00201+00001999999ADDGA1071+006101999GE19MSL   +99999+99999GF199999071999006101999999MA1102701999999OC101131REMMET067METAR EDDC 050620Z 28011G22KT 9999 BKN020 02/00 Q1027 TEMPO BKN012=
0178104880999992015010506504+51133+013767FM-15+023099999V0202801N005710076219N009999199+00201+00001999999ADDGA1041+004571999GA2071+007621999GE19MSL   +99999+99999GF199999041999004571999999MA1102701999999REMMET071METAR EDDC 050650Z 28011KT 9999 SCT015 BKN025 02/00 Q1027 TEMPO BKN014=
0193104880999992015010507204+51133+013767FM-15+023099999V0202801N005710045719N009999199+00201+00001999999ADDGA1071+004571999GA2071+006711999GE19MSL   +99999+99999GF199999071999004571999999MA1102701999999MW1611REMMET080METAR EDDC 050720Z 28011KT 9999 -RA BKN015 BKN022 02/00 Q1027 TEMPO      BKN014=
0205104880999992015010507504+51133+013767FM-15+023099999V0202701N005710045719N009999199+00201+00001999999ADDGA1071+004571999GA2071+007621999GE19MSL   +99999+99999GF199999071999004571999999MA1102701999999MW1711OC101241REMMET084METAR EDDC 050750Z 27011G24KT 9999 -SN BKN015 BKN025 02/M00 Q1027 TEMPO      BKN012=
0205104880999992015010508204+51133+013767FM-15+023099999V0202801N006710045719N009999199+00201+00001999999ADDGA1071+004571999GA2071+006711999GE19MSL   +99999+99999GF199999071999004571999999MA1102701999999MW1711OC101181REMMET084METAR EDDC 050820Z 28013G23KT 9999 -SN BKN015 BKN022 02/M00 Q1027 TEMPO      BKN014=
0205104880999992015010508504+51133+013767FM-15+023099999V0202801N006710061019N009999199+00201+00001999999ADDGA1041+005181999GA2071+006101999GE19MSL   +99999+99999GF199999041999005181999999MA1102601999999MW1711OC101241REMMET084METAR EDDC 050850Z 28013G24KT 9999 -SN SCT017 BKN020 02/M00 Q1026 TEMPO      BKN014=
0218104880999992015010509204+51133+013767FM-15+023099999V0202801N006710045719N009999199+00201+00001999999ADDGA1071+004571999GA2071+006401999GE19MSL   +99999+99999GF199999071999004571999999MA1102601999999MW1681OC101181REMMET097METAR EDDC 050920Z 28013G23KT 9999 -RASN BKN015 BKN021 02/M00 Q1026      TEMPO 28015G25KT BKN014=
0218104880999992015010509504+51133+013767FM-15+023099999V0202701N005710045719N008000199+00101+00001999999ADDGA1071+004571999GA2071+005791999GE19MSL   +99999+99999GF199999071999004571999999MA1102601999999MW1681OC101131REMMET097METAR EDDC 050950Z 27011G22KT 8000 -RASN BKN015 BKN019 01/M00 Q1026      TEMPO 28015G25KT BKN014=
0216104880999992015010510204+51133+013767FM-15+023099999V0202801N005710042719N005000199+00101+00001999999ADDGA1071+004271999GA2071+005791999GE19MSL   +99999+99999GF199999071999004271999999MA1102601999999MW1101MW2711REMMET097METAR EDDC 051020Z 28011KT 5000 -SN BR BKN014 BKN019 01/M00 Q1026 TEMPO      28015G25KT 3500 -SN=
0205104880999992015010510504+51133+013767FM-15+023099999V0202901N006210064019N007000199+00101-00101999999ADDGA1041+004271999GA2071+006401999GE19MSL   +99999+99999GF199999041999004271999999MA1102601999999MW1711REMMET092METAR EDDC 051050Z 29012KT 7000 -SN SCT014 BKN021 01/M01 Q1026 TEMPO      28015G25KT BKN014=
0179104880999992015010511204+51133+013767FM-15+023099999V0202901N007210054919N003300199+00101-00101999999ADDGA1071+005491999GE19MSL   +99999+99999GF199999071999005491999999MA1102601999999MW1101MW2711OC101241REMMET068METAR EDDC 051120Z 29014G24KT 3300 -SN BR BKN018 01/M01 Q1026 NOSIG=
0214104880999992015010511504+51133+013767FM-15+023099999V0202901N007210054919N004000199+00101-00101999999ADDGA1021+004271999GA2071+005491999GE19MSL   +99999+99999GF199999021999004271999999MA1102601999999MW1101MW2711OC101341REMMET087METAR EDDC 051150Z 29014G26KT 4000 -SN BR FEW014 BKN018 01/M01 Q1026      TEMPO BKN012=
0208104880999992015010512204+51133+013767FM-15+023099999V0202901N007210045719N006000199+00101-00101999999ADDGA1071+004571999GE19MSL   +99999+99999GF199999071999004571999999MA1102601999999MW1681OC101241REMMET103METAR COR EDDC 051220Z 29014G24KT 6000 -SNRA BKN015 01/M01 Q1026 TEMPO      29015G25KT 4500 -SN BKN012=
0227104880999992015010512504+51133+013767FM-15+023099999V0202901N006710045719N006000199+00101-00101999999ADDGA1041+003351999GA2071+004571999GE19MSL   +99999+99999GF199999041999003351999999MA1102601999999MW1681OC101181REMMET106METAR EDDC 051250Z 29013G23KT 6000 -SNRA SCT011 BKN015 01/M01 Q1026      TEMPO 29015G25KT 4500 -SN BKN012=
0214104880999992015010513204+51133+013767FM-15+023099999V0202901N007210024419N003000199+00101+00001999999ADDGA1071+002441999GA2071+003051999GE19MSL   +99999+99999GF199999071999002441999999MA1102601999999MW1101MW2711OC101241REMMET087METAR EDDC 051320Z 29014G24KT 3000 -SN BR BKN008 BKN010 01/M00 Q1026      TEMPO BKN010=
0203104880999992015010513504+51133+013767FM-15+023099999V0203001N006710030519N002300199+00101+00001999999ADDGA1041+002441999GA2071+003051999GE19MSL   +99999+99999GF199999041999002441999999MA1102601999999MW1101MW2711REMMET084METAR EDDC 051350Z 30013KT 2300 -SN BR SCT008 BKN010 01/M00 Q1026 TEMPO      BKN008=
0169104880999992015010514204+51133+013767FM-15+023099999V0203001N006710024419N003000199+00101+00001999999ADDGA1071+002441999GE19MSL   +99999+99999GF199999071999002441999999MA1102601999999MW1101MW2681REMMET066METAR EDDC 051420Z 30013KT 3000 -RASN BR BKN008 01/00 Q1026 NOSIG=
0197104880999992015010514504+51133+013767FM-15+023099999V0203001N007210027419N003000199+00101+00001999999ADDGA1041+001521999GA2071+002741999GE19MSL   +99999+99999GF199999041999001521999999MA1102601999999MW1101MW2681REMMET078METAR EDDC 051450Z 30014KT 3000 -RASN BR SCT005 BKN009 01/00 Q1026      NOSIG=
0169104880999992015010515204+51133+013767FM-15+023099999V0203001N007210015219N003000199+00101+00101999999ADDGA1071+001521999GE19MSL   +99999+99999GF199999071999001521999999MA1102601999999MW1101MW2681REMMET066METAR EDDC 051520Z 30014KT 3000 -RASN BR BKN005 01/01 Q1026 NOSIG=
0169104880999992015010515504+51133+013767FM-15+023099999V0203001N006710015219N003200199+00101+00101999999ADDGA1071+001521999GE19MSL   +99999+99999GF199999071999001521999999MA1102601999999MW1101MW2681REMMET066METAR EDDC 051550Z 30013KT 3200 -RASN BR BKN005 01/01 Q1026 NOSIG=
0185104880999992015010516204+51133+013767FM-15+023099999V0203001N006710015219N005000199+00101+00101999999ADDGA1071+001521999GE19MSL   +99999+99999GF199999071999001521999999MA1102601999999MW1101MW2681REMMET082METAR EDDC 051620Z 30013KT 5000 -RASN BR BKN005 01/01 Q1026 TEMPO 4000      -RASN=
0169104880999992015010516504+51133+013767FM-15+023099999V0203001N006210015219N004500199+00101+00101999999ADDGA1071+001521999GE19MSL   +99999+99999GF199999071999001521999999MA1102601999999MW1101MW2681REMMET066METAR EDDC 051650Z 30012KT 4500 -RASN BR BKN005 01/01 Q1026 NOSIG=
0208104880999992015010517204+51133+013767FM-15+023099999V0203001N005110018319N005000199+00101+00101999999ADDGA1021+000911999GA2071+001831999GE19MSL   +99999+99999GF199999021999000911999999MA1102601999999MW1101MW2681REMMET089METAR EDDC 051720Z 30010KT 5000 -RASN BR FEW003 BKN006 01/01 Q1026      TEMPO 4000 -RASN=
0167104880999992015010517504+51133+013767FM-15+023099999V0203001N004610018319N005000199+00201+00101999999ADDGA1071+001831999GE19MSL   +99999+99999GF199999071999001831999999MA1102701999999MW1101MW2611REMMET064METAR EDDC 051750Z 30009KT 5000 -RA BR BKN006 02/01 Q1027 NOSIG=
0169104880999992015010518204+51133+013767FM-15+023099999V0203101N004110015219N005000199+00201+00101999999ADDGA1071+001521999GE19MSL   +99999+99999GF199999071999001521999999MA1102701999999MW1101MW2581REMMET066METAR EDDC 051820Z 31008KT 5000 -RADZ BR BKN005 02/01 Q1027 NOSIG=
0167104880999992015010518504+51133+013767FM-15+023099999V0203001N004110015219N005000199+00101+00101999999ADDGA1071+001521999GE19MSL   +99999+99999GF199999071999001521999999MA1102701999999MW1101MW2511REMMET064METAR EDDC 051850Z 30008KT 5000 -DZ BR BKN005 01/01 Q1027 NOSIG=
0167104880999992015010519204+51133+013767FM-15+023099999V0203001N005110015219N005000199+00201+00101999999ADDGA1071+001521999GE19MSL   +99999+99999GF199999071999001521999999MA1102701999999MW1101MW2511REMMET064METAR EDDC 051920Z 30010KT 5000 -DZ BR BKN005 02/01 Q1027 NOSIG=
0167104880999992015010519504+51133+013767FM-15+023099999V0203001N004110015219N005000199+00101+00101999999ADDGA1071+001521999GE19MSL   +99999+99999GF199999071999001521999999MA1102701999999MW1101MW2511REMMET064METAR EDDC 051950Z 30008KT 5000 -DZ BR BKN005 01/01 Q1027 NOSIG=
0167104880999992015010520204+51133+013767FM-15+023099999V0203101N004110012219N004500199+00101+00101999999ADDGA1071+001221999GE19MSL   +99999+99999GF199999071999001221999999MA1102701999999MW1101MW2511REMMET064METAR EDDC 052020Z 31008KT 4500 -DZ BR BKN004 01/01 Q1027 NOSIG=
0167104880999992015010520504+51133+013767FM-15+023099999V0203101N004610009119N003700199+00101+00101999999ADDGA1071+000911999GE19MSL   +99999+99999GF199999071999000911999999MA1102701999999MW1101MW2511REMMET064METAR EDDC 052050Z 31009KT 3700 -DZ BR BKN003 01/01 Q1027 NOSIG=
0161104880999992015010521204+51133+013767FM-15+023099999V0203001N004110009119N003400199+00101+00101999999ADDGA1071+000911999GE19MSL   +99999+99999GF199999071999000911999999MA1102701999999MW1101MW2511REMMET058METAR EDDC 052120Z 30008KT 3400 -DZ BR BKN003 01/01 Q1027=
0161104880999992015010521504+51133+013767FM-15+023099999V0202901N003610009119N003200199+00101+00101999999ADDGA1071+000911999GE19MSL   +99999+99999GF199999071999000911999999MA1102701999999MW1101MW2511REMMET058METAR EDDC 052150Z 29007KT 3200 -DZ BR BKN003 01/01 Q1027=
0161104880999992015010522204+51133+013767FM-15+023099999V0203001N003610009119N003200199+00101+00101999999ADDGA1071+000911999GE19MSL   +99999+99999GF199999071999000911999999MA1102701999999MW1101MW2511REMMET058METAR EDDC 052220Z 30007KT 3200 -DZ BR BKN003 01/01 Q1027=
0161104880999992015010522504+51133+013767FM-15+023099999V0202901N003610009119N002800199+00101+00101999999ADDGA1071+000911999GE19MSL   +99999+99999GF199999071999000911999999MA1102701999999MW1101MW2511REMMET058METAR EDDC 052250Z 29007KT 2800 -DZ BR BKN003 01/01 Q1027=
0161104880999992015010523204+51133+013767FM-15+023099999V0202901N003110006119N002500199+00101+00101999999ADDGA1071+000611999GE19MSL   +99999+99999GF199999071999000611999999MA1102701999999MW1101MW2511REMMET058METAR EDDC 052320Z 29006KT 2500 -DZ BR BKN002 01/01 Q1027=
0161104880999992015010523504+51133+013767FM-15+023099999V0202801N003110006119N002200199+00101+00101999999ADDGA1071+000611999GE19MSL   +99999+99999GF199999071999000611999999MA1102701999999MW1101MW2511REMMET058METAR EDDC 052350Z 28006KT 2200 -DZ BR BKN002 01/01 Q1027=
0161104880999992015010600204+51133+013767FM-15+023099999V0202801N002610006119N002300199+00101+00101999999ADDGA1071+000611999GE19MSL   +99999+99999GF199999071999000611999999MA1102701999999MW1101MW2511REMMET058METAR EDDC 060020Z 28005KT 2300 -DZ BR BKN002 01/01 Q1027=
0161104880999992015010600504+51133+013767FM-15+023099999V0202801N002610009119N002400199+00101+00101999999ADDGA1071+000911999GE19MSL   +99999+99999GF199999071999000911999999MA1102701999999MW1101MW2511REMMET058METAR EDDC 060050Z 28005KT 2400 -DZ BR BKN003 01/01 Q1027=
0161104880999992015010601204+51133+013767FM-15+023099999V0202801N002610009119N002400199+00101+00101999999ADDGA1071+000911999GE19MSL   +99999+99999GF199999071999000911999999MA1102701999999MW1101MW2511REMMET058METAR EDDC 060120Z 28005KT 2400 -DZ BR BKN003 01/01 Q1027=
0161104880999992015010601504+51133+013767FM-15+023099999V0202801N002110009119N002500199+00101+00101999999ADDGA1071+000911999GE19MSL   +99999+99999GF199999071999000911999999MA1102701999999MW1101MW2511REMMET058METAR EDDC 060150Z 28004KT 2500 -DZ BR BKN003 01/01 Q1027=
0163104880999992015010602204+51133+013767FM-15+023099999V0202801N002110009119N002300199+00101+00101999999ADDGA1071+000911999GE19MSL   +99999+99999GF199999071999000911999999MA1102701999999MW1101MW2581REMMET060METAR EDDC 060220Z 28004KT 2300 -RADZ BR BKN003 01/01 Q1027=
0163104880999992015010602504+51133+013767FM-15+023099999V0202401N001510006119N002200199+00001+00001999999ADDGA1071+000611999GE19MSL   +99999+99999GF199999071999000611999999MA1102701999999MW1101MW2681REMMET060METAR EDDC 060250Z 24003KT 2200 -RASN BR BKN002 00/00 Q1027=
0163104880999992015010603204+51133+013767FM-15+023099999V0202501N001510006119N002300199+00001+00001999999ADDGA1071+000611999GE19MSL   +99999+99999GF199999071999000611999999MA1102701999999MW1101MW2681REMMET060METAR EDDC 060320Z 25003KT 2300 -RASN BR BKN002 00/00 Q1027=
0163104880999992015010603504+51133+013767FM-15+023099999V0202501N001510006119N002700199+00001+00001999999ADDGA1071+000611999GE19MSL   +99999+99999GF199999071999000611999999MA1102701999999MW1101MW2681REMMET060METAR EDDC 060350Z 25003KT 2700 -RASN BR BKN002 00/00 Q1027=
0163104880999992015010604204+51133+013767FM-15+023099999V0202401N001010009119N002800199+00001+00001999999ADDGA1071+000911999GE19MSL   +99999+99999GF199999071999000911999999MA1102701999999MW1101MW2681REMMET060METAR EDDC 060420Z 24002KT 2800 -RASN BR BKN003 00/00 Q1027=
0169104880999992015010604504+51133+013767FM-15+023099999V0202201N001510012219N002800199+00001+00001999999ADDGA1071+001221999GE19MSL   +99999+99999GF199999071999001221999999MA1102701999999MW1101MW2681REMMET066METAR EDDC 060450Z 22003KT 2800 -RASN BR BKN004 00/00 Q1027 NOSIG=
0169104880999992015010605204+51133+013767FM-15+023099999V0202201N002110009119N002500199+00001+00001999999ADDGA1071+000911999GE19MSL   +99999+99999GF199999071999000911999999MA1102701999999MW1101MW2681REMMET066METAR EDDC 060520Z 22004KT 2500 -RASN BR BKN003 00/00 Q1027 NOSIG=
0206104880999992015010605504+51133+013767FM-15+023099999V0201801N001510015219N002500199+00001+00001999999ADDGA1041+000301999GA2071+001521999GE19MSL   +99999+99999GF199999041999000301999999MA1102701999999MW1101MW2681REMMET087METAR COR EDDC 060550Z 18003KT 2500 -RASN BR SCT001 BKN005 00/00 Q1027      BECMG 3000=
0181104880999992015010606204+51133+013767FM-15+023099999V0201601N001510018319N003000199+00001+00001999999ADDGA1071+001831999GE19MSL   +99999+99999GF199999071999001831999999MA1102701999999MW1101MW2711REMMET078METAR EDDC 060620Z 16003KT 3000 -SN BR BKN006 00/00 Q1027 TEMPO 2500      -SN=
0177104880999992015010606504+51133+013767FM-15+023099999V0201301N001010024419N002800199+00101+00101999999ADDGA1071+002441999GE19MSL   +99999+99999GF199999071999002441999999MA1102601999999MW1101REMMET080METAR EDDC 060650Z 13002KT 2800 BR BKN008 01/01 Q1026 BECMG 3000 BR      BKN010=
0177104880999992015010607204+51133+013767FM-15+023099999V0201401N001510027419N002800199+00101+00101999999ADDGA1071+002741999GE19MSL   +99999+99999GF199999071999002741999999MA1102601999999MW1101REMMET080METAR EDDC 060720Z 14003KT 2800 BR BKN009 01/01 Q1026 BECMG 3000 BR      BKN010=
0157104880999992015010607504+51133+013767FM-15+023099999V0201101N002110030519N003000199+00101+00101999999ADDGA1071+003051999GE19MSL   +99999+99999GF199999071999003051999999MA1102701999999MW1101REMMET060METAR EDDC 060750Z 11004KT 3000 BR BKN010 01/01 Q1027 NOSIG=
0169104880999992015010608204+51133+013767FM-15+023099999V0201101N002110033519N003000199+00101+00001999999ADDGA1071+003351999GE19MSL   +99999+99999GF199999071999003351999999MA1102701999999MW1101REMMET072METAR EDDC 060820Z 11004KT 3000 BR BKN011 01/00 Q1027 BECMG 5000 SCT012=
0197104880999992015010608504+51133+013767FM-15+023099999V0201301N002110030519N004000199+00101+00001999999ADDGA1021+000911999GA2071+003051999GE19MSL   +99999+99999GF199999021999000911999999MA1102701999999MW1101REMMET084METAR EDDC 060850Z 13004KT 4000 BR FEW003 BKN010 01/00 Q1027 BECMG      5000 SCT012=
0178104880999992015010609204+51133+013767FM-15+023099999V0201201N003610030519N006000199+00101+00001999999ADDGA1021+001831999GA2071+003051999GE19MSL   +99999+99999GF199999021999001831999999MA1102701999999REMMET071METAR EDDC 060920Z 12007KT 6000 FEW006 BKN010 01/00 Q1027 BECMG SCT012=
0148104880999992015010609504+51133+013767FM-15+023099999V0201201N002619999999N008000199+00201+00101999999ADDGA1041+003961999GE19MSL   +99999+99999GF199999041999003961999999MA1102701999999REMMET057METAR EDDC 060950Z 12005KT 8000 SCT013 02/01 Q1027 NOSIG=
0171104880999992015010610204+51133+013767FM-15+023099999V0201301N00311003661CN009999199+00201+00101999999ADDGA1041+002441999GA2041+003661999GE19MSL   +99999+99999GF199999041999002441999999MA1102701999999REMMET064METAR EDDC 061020Z 13006KT 9999 SCT008 SCT012 02/01 Q1027 NOSIG=
0171104880999992015010610504+51133+013767FM-15+023099999V0201301N00411003661CN009999199+00201+00101999999ADDGA1041+002441999GA2041+003661999GE19MSL   +99999+99999GF199999041999002441999999MA1102601999999REMMET064METAR EDDC 061050Z 13008KT 9999 SCT008 SCT012 02/01 Q1026 NOSIG=
0171104880999992015010611204+51133+013767FM-15+023099999V0201401N00411003961CN009999199+00301+00101999999ADDGA1041+002741999GA2041+003961999GE19MSL   +99999+99999GF199999041999002741999999MA1102601999999REMMET064METAR EDDC 061120Z 14008KT 9999 SCT009 SCT013 03/01 Q1026 NOSIG=
0171104880999992015010611504+51133+013767FM-15+023099999V0201301N00461091441CN009999199+00301+00101999999ADDGA1021+002441999GA2041+091441999GE19MSL   +99999+99999GF199999021999002441999999MA1102501999999REMMET064METAR EDDC 061150Z 13009KT 9999 FEW008 SCT300 03/01 Q1025 NOSIG=
0148104880999992015010612204+51133+013767FM-15+023099999V0201501N004619999999N009999199+00301+00101999999ADDGA1021+003661999GE19MSL   +99999+99999GF199999021999003661999999MA1102501999999REMMET057METAR EDDC 061220Z 15009KT 9999 FEW012 03/01 Q1025 NOSIG=
0148104880999992015010612504+51133+013767FM-15+023099999V0201401N005119999999N009999199+00301+00101999999ADDGA1021+003961999GE19MSL   +99999+99999GF199999021999003961999999MA1102501999999REMMET057METAR EDDC 061250Z 14010KT 9999 FEW013 03/01 Q1025 NOSIG=
0171104880999992015010613204+51133+013767FM-15+023099999V0201401N004610914419N009999199+00301+00101999999ADDGA1021+004571999GA2071+091441999GE19MSL   +99999+99999GF199999021999004571999999MA1102501999999REMMET064METAR EDDC 061320Z 14009KT 9999 FEW015 BKN300 03/01 Q1025 NOSIG=
0171104880999992015010613504+51133+013767FM-15+023099999V0201401N004110914419N009999199+00301+00001999999ADDGA1021+004571999GA2071+091441999GE19MSL   +99999+99999GF199999021999004571999999MA1102501999999REMMET064METAR EDDC 061350Z 14008KT 9999 FEW015 BKN300 03/00 Q1025 NOSIG=
0171104880999992015010614204+51133+013767FM-15+023099999V0201301N004110914419N009999199+00201+00001999999ADDGA1021+004571999GA2071+091441999GE19MSL   +99999+99999GF199999021999004571999999MA1102401999999REMMET064METAR EDDC 061420Z 13008KT 9999 FEW015 BKN300 02/00 Q1024 NOSIG=
0079104880999992015010614504+51133+013767FM-15+023099999V0201401N004619999999Y999999999+00201+00001999999ADDMA1102401999999REMMET052METAR EDDC 061450Z 14009KT CAVOK 02/M00 Q1024 NOSIG=
0079104880999992015010615204+51133+013767FM-15+023099999V0201301N004119999999Y999999999+00201+00001999999ADDMA1102401999999REMMET052METAR EDDC 061520Z 13008KT CAVOK 02/M00 Q1024 NOSIG=
0079104880999992015010615504+51133+013767FM-15+023099999V0201401N003119999999Y999999999+00101+00001999999ADDMA1102401999999REMMET052METAR EDDC 061550Z 14006KT CAVOK 01/M00 Q1024 NOSIG=
0079104880999992015010616204+51133+013767FM-15+023099999V0201401N003619999999Y999999999+00101+00001999999ADDMA1102401999999REMMET052METAR EDDC 061620Z 14007KT CAVOK 01/M00 Q1024 NOSIG=
0079104880999992015010616504+51133+013767FM-15+023099999V0201401N003619999999Y999999999+00101-00101999999ADDMA1102401999999REMMET052METAR EDDC 061650Z 14007KT CAVOK 01/M01 Q1024 NOSIG=
0079104880999992015010617204+51133+013767FM-15+023099999V0201501N005119999999Y999999999+00101-00101999999ADDMA1102401999999REMMET052METAR EDDC 061720Z 15010KT CAVOK 01/M01 Q1024 NOSIG=
0079104880999992015010617504+51133+013767FM-15+023099999V0201501N004619999999Y999999999+00101-00101999999ADDMA1102401999999REMMET052METAR EDDC 061750Z 15009KT CAVOK 01/M01 Q1024 NOSIG=
0079104880999992015010618204+51133+013767FM-15+023099999V0201501N005119999999Y999999999+00101-00101999999ADDMA1102401999999REMMET052METAR EDDC 061820Z 15010KT CAVOK 01/M01 Q1024 NOSIG=
0079104880999992015010618504+51133+013767FM-15+023099999V0201601N006219999999Y999999999+00101-00101999999ADDMA1102401999999REMMET052METAR EDDC 061850Z 16012KT CAVOK 01/M01 Q1024 NOSIG=
0079104880999992015010619204+51133+013767FM-15+023099999V0201601N006219999999Y999999999+00101-00101999999ADDMA1102401999999REMMET052METAR EDDC 061920Z 16012KT CAVOK 01/M01 Q1024 NOSIG=
0079104880999992015010619504+51133+013767FM-15+023099999V0201601N006219999999Y999999999+00101-00101999999ADDMA1102401999999REMMET052METAR EDDC 061950Z 16012KT CAVOK 01/M01 Q1024 NOSIG=
0079104880999992015010620204+51133+013767FM-15+023099999V0201601N005719999999Y999999999+00101-00201999999ADDMA1102301999999REMMET052METAR EDDC 062020Z 16011KT CAVOK 01/M02 Q1023 NOSIG=
0079104880999992015010620504+51133+013767FM-15+023099999V0201501N006219999999Y999999999+00101-00201999999ADDMA1102301999999REMMET052METAR EDDC 062050Z 15012KT CAVOK 01/M02 Q1023 NOSIG=
0073104880999992015010621204+51133+013767FM-15+023099999V0201501N006219999999Y999999999+00101-00301999999ADDMA1102301999999REMMET046METAR EDDC 062120Z 15012KT CAVOK 01/M03 Q1023=
0073104880999992015010621504+51133+013767FM-15+023099999V0201501N006219999999Y999999999+00101-00201999999ADDMA1102301999999REMMET046METAR EDDC 062150Z 15012KT CAVOK 01/M02 Q1023=
0073104880999992015010622204+51133+013767FM-15+023099999V0201501N007719999999Y999999999+00101-00201999999ADDMA1102301999999REMMET046METAR EDDC 062220Z 15015KT CAVOK 01/M02 Q1023=
0073104880999992015010622504+51133+013767FM-15+023099999V0201601N007719999999Y999999999+00101-00201999999ADDMA1102301999999REMMET046METAR EDDC 062250Z 16015KT CAVOK 01/M02 Q1023=
0073104880999992015010623204+51133+013767FM-15+023099999V0201601N008219999999Y999999999+00101-00201999999ADDMA1102201999999REMMET046METAR EDDC 062320Z 16016KT CAVOK 01/M02 Q1022=
0073104880999992015010623504+51133+013767FM-15+023099999V0201601N008219999999Y999999999+00101-00201999999ADDMA1102201999999REMMET046METAR EDDC 062350Z 16016KT CAVOK 01/M02 Q1022=
0073104880999992015010700204+51133+013767FM-15+023099999V0201601N007719999999Y999999999+00101-00201999999ADDMA1102201999999REMMET046METAR EDDC 070020Z 16015KT CAVOK 01/M02 Q1022=
0073104880999992015010700504+51133+013767FM-15+023099999V0201601N005719999999Y999999999+00101-00201999999ADDMA1102201999999REMMET046METAR EDDC 070050Z 16011KT CAVOK 01/M02 Q1022=
0073104880999992015010701204+51133+013767FM-15+023099999V0201601N004119999999Y999999999+00101-00201999999ADDMA1102301999999REMMET046METAR EDDC 070120Z 16008KT CAVOK 01/M02 Q1023=
0073104880999992015010701504+51133+013767FM-15+023099999V0201701N004119999999Y999999999+00101-00201999999ADDMA1102301999999REMMET046METAR EDDC 070150Z 17008KT CAVOK 01/M02 Q1023=
0073104880999992015010702204+51133+013767FM-15+023099999V0201601N004119999999Y999999999+00101-00201999999ADDMA1102301999999REMMET046METAR EDDC 070220Z 16008KT CAVOK 01/M02 Q1023=
0073104880999992015010702504+51133+013767FM-15+023099999V0201601N003619999999Y999999999+00101-00201999999ADDMA1102301999999REMMET046METAR EDDC 070250Z 16007KT CAVOK 01/M02 Q1023=
0073104880999992015010703204+51133+013767FM-15+023099999V0201601N004619999999Y999999999+00101-00201999999ADDMA1102301999999REMMET046METAR EDDC 070320Z 16009KT CAVOK 01/M02 Q1023=
0073104880999992015010703504+51133+013767FM-15+023099999V0201501N004619999999Y999999999+00001-00301999999ADDMA1102301999999REMMET046METAR EDDC 070350Z 15009KT CAVOK 00/M03 Q1023=
0073104880999992015010704204+51133+013767FM-15+023099999V0201601N004119999999Y999999999+00001-00301999999ADDMA1102301999999REMMET046METAR EDDC 070420Z 16008KT CAVOK 00/M03 Q1023=
0080104880999992015010704504+51133+013767FM-15+023099999V0201601N003619999999Y999999999+00001-00301999999ADDMA1102301999999REMMET053METAR EDDC 070450Z 16007KT CAVOK M00/M03 Q1023 NOSIG=
0190104880999992015010705204+51133+013767FM-15+023099999V0201501N003110762019N009999199+00001-00301999999ADDGA1041+008531999GA2071+076201999GE19MSL   +99999+99999GF199999041999008531999999MA1102301999999REMMET083METAR EDDC 070520Z 15006KT 9999 SCT028 BKN250 00/M03 Q1023 TEMPO -FZDZ      BKN012=
0190104880999992015010705504+51133+013767FM-15+023099999V0201701N004110064019N009999199+00001-00301999999ADDGA1021+003961999GA2071+006401999GE19MSL   +99999+99999GF199999021999003961999999MA1102301999999REMMET083METAR EDDC 070550Z 17008KT 9999 FEW013 BKN021 00/M03 Q1023 TEMPO -FZDZ      BKN012=
0156104880999992015010706204+51133+013767FM-15+023099999V0201701N003610048819N009999199+00001-00201999999ADDGA1071+004881999GE19MSL   +99999+99999GF199999071999004881999999MA1102301999999REMMET065METAR EDDC 070620Z 17007KT 9999 BKN016 00/M02 Q1023 TEMPO BKN012=
0172104880999992015010706504+51133+013767FM-15+023099999V0201701N003610045719N009999199+00001-00201999999ADDGA1071+004571999GE19MSL   +99999+99999GF199999071999004571999999MA1102401999999REMMET081METAR EDDC 070650Z 17007KT 9999 BKN015 00/M02 Q1024 TEMPO 4000 -SNRA      BKN012=
0160104880999992015010707204+51133+013767FM-15+023099999V0202001N003610039619N009999199+00001-00201999999ADDGA1071+003961999GE19MSL   +99999+99999GF199999071999003961999999MA1102401999999REMMET069METAR EDDC 070720Z 20007KT 9999 BKN013 00/M02 Q1024 TEMPO 4000 -SNRA=
0205104880999992015010707504+51133+013767FM-15+023099999V0201901N003610033519N007000199+00001-00201999999ADDGA1021+002131999GA2071+003351999GE19MSL   +99999+99999GF199999021999002131999999MA1102401999999MW1611REMMET092METAR EDDC 070750Z 19007KT 7000 -RA FEW007 BKN011 00/M02 Q1024 TEMPO      4000 -SNRA BKN008=
0174104880999992015010708204+51133+013767FM-15+023099999V0201901N003610021319N002500199+00001-00101999999ADDGA1071+002131999GE19MSL   +99999+99999GF199999071999002131999999MA1102501999999MW1101MW2711REMMET071METAR EDDC 070820Z 19007KT 2500 -SN BR BKN007 M00/M01 Q1025 TEMPO 5000=
0209104880999992015010708504+51133+013767FM-15+023099999V0202001N003110021319N002500199+00001-00101999999ADDGA1071+002131999GA2071+003051999GE19MSL   +99999+99999GF199999071999002131999999MA1102501999999MW1101MW2711REMMET090METAR EDDC 070850Z 20006KT 2500 -SN BR BKN007 BKN010 M00/M01 Q1025      TEMPO 5000 BKN010=
0201104880999992015010709204+51133+013767FM-15+023099999V0201901N004110012219N001200199+00001+00001999999ADDGA1071+001221999GE19MSL   +99999+99999GF199999071999001221999999MA1102501999999MW1101MW2581REMMET098METAR EDDC 070920Z 19008KT 1200 R22/P2000N -RADZ BR BKN004 00/00 Q1025      TEMPO 2000 -DZ BKN006=
0224104880999992015010709504+51133+013767FM-15+023099999V0202101N004110012219N000900199+00001+00001999999ADDGA1041+000301999GA2071+001221999GE19MSL   +99999+99999GF199999041999000301999999MA1102501999999MW1441MW2681REMMET105METAR EDDC 070950Z 21008KT 0900 R22/P2000N -SNRA FG SCT001 BKN004 00/00      Q1025 BECMG 3000 -DZ BKN005=
0201104880999992015010710204+51133+013767FM-15+023099999V0202201N003610009119N001300199+00101+00101999999ADDGA1071+000911999GE19MSL   +99999+99999GF199999071999000911999999MA1102501999999MW1101MW2681REMMET098METAR EDDC 071020Z 22007KT 1300 R22/P2000N -SNRA BR BKN003 01/01 Q1025      BECMG 3000 -DZ BKN005=
0210104880999992015010710504+51133+013767FM-15+023099999V0202301N003610009119N002600199+00101+00101999999ADDGA1071+000911999GA2071+002131999GE19MSL   +99999+99999GF199999071999000911999999MA1102501999999MW1101MW2511REMMET091METAR EDDC 071050Z 23007KT 2600 -DZ BR BKN003 BKN007 01/01 Q1025 BECMG      4000 BR BKN007=
0210104880999992015010711204+51133+013767FM-15+023099999V0202301N003610009119N002600199+00101+00101999999ADDGA1071+000911999GA2071+002131999GE19MSL   +99999+99999GF199999071999000911999999MA1102501999999MW1101MW2511REMMET091METAR EDDC 071120Z 23007KT 2600 -DZ BR BKN003 BKN007 01/01 Q1025 BECMG      4000 BR BKN007=
0207104880999992015010711504+51133+013767FM-15+023099999V0202401N003610015219N001700199+00101+00101999999ADDGA1041+001221999GA2071+001521999GE19MSL   +99999+99999GF199999041999001221999999MA1102601999999MW1101MW2511REMMET088METAR COR EDDC 071150Z 24007KT 1700 -DZ BR SCT004 BKN005 01/01 Q1026      BECMG 4000 BR=
0210104880999992015010712204+51133+013767FM-15+023099999V0202501N003110006119N001700199+00101+00101999999ADDGA1071+000611999GA2071+001521999GE19MSL   +99999+99999GF199999071999000611999999MA1102501999999MW1101MW2511REMMET091METAR EDDC 071220Z 25006KT 1700 -DZ BR BKN002 BKN005 01/01 Q1025 BECMG      4000 BR BKN006=
0202104880999992015010712504+51133+013767FM-15+023099999V0202501N003610009119N003000199+00201+00201999999ADDGA1071+000911999GA2071+001831999GE19MSL   +99999+99999GF199999071999000911999999MA1102601999999MW1101MW2511REMMET083METAR EDDC 071250Z 25007KT 3000 -DZ BR BKN003 BKN006 02/02 Q1026 BECMG      BKN006=
0207104880999992015010713204+51133+013767FM-15+023099999V0202601N003610027419N004000199+00201+00201999999ADDGA1041+001221999GA2071+002741999GE19MSL   +99999+99999GF199999041999001221999999MA1102601999999MW1101MW2511REMMET088METAR EDDC 071320Z 26007KT 4000 -DZ BR SCT004 BKN009 02/02 Q1026 BECMG      6000 SCT010=
0202104880999992015010713504+51133+013767FM-15+023099999V0202601N003110015219N005000199+00201+00201999999ADDGA1071+001521999GA2071+003051999GE19MSL   +99999+99999GF199999071999001521999999MA1102601999999MW1101MW2611REMMET083METAR EDDC 071350Z 26006KT 5000 -RA BR BKN005 BKN010 02/02 Q1026 BECMG      BKN012=
0193104880999992015010714204+51133+013767FM-15+023099999V0202601N003610036619N007000199+00201+00201999999ADDGA1041+001221999GA2071+003661999GE19MSL   +99999+99999GF199999041999001221999999MA1102601999999MW1611REMMET080METAR EDDC 071420Z 26007KT 7000 -RA SCT004 BKN012 02/02 Q1026 BECMG      SCT012=
0209104880999992015010714504+51133+013767FM-15+023099999V0202501N00311003961CN007000199+00301+00201999999ADDGA1041+001221999GA2041+003961999GA3071+006101999GE19MSL   +99999+99999GF199999041999001221999999MA1102701999999MW1611REMMET080METAR EDDC 071450Z 25006KT 7000 -RA SCT004 SCT013 BKN020 03/02 Q1027      NOSIG=
0209104880999992015010715204+51133+013767FM-15+023099999V0202501N00311003051CN007000199+00301+00201999999ADDGA1021+001831999GA2041+003051999GA3071+004571999GE19MSL   +99999+99999GF199999021999001831999999MA1102701999999MW1611REMMET080METAR EDDC 071520Z 25006KT 7000 -RA FEW006 SCT010 BKN015 03/02 Q1027      NOSIG=
0209104880999992015010715504+51133+013767FM-15+023099999V0202501N00311004881CN007000199+00301+00201999999ADDGA1021+003661999GA2041+004881999GA3071+012191999GE19MSL   +99999+99999GF199999021999003661999999MA1102701999999MW1611REMMET080METAR EDDC 071550Z 25006KT 7000 -RA FEW012 SCT016 BKN040 03/02 Q1027      NOSIG=
0181104880999992015010716204+51133+013767FM-15+023099999V0202401N003110115819N009000199+00301+00201999999ADDGA1041+003351999GA2071+011581999GE19MSL   +99999+99999GF199999041999003351999999MA1102701999999MW1611REMMET068METAR EDDC 071620Z 24006KT 9000 -RA SCT011 BKN038 03/02 Q1027 NOSIG=
0209104880999992015010716504+51133+013767FM-15+023099999V0202401N00361008231CN009000199+00301+00201999999ADDGA1021+003051999GA2041+008231999GA3071+012191999GE19MSL   +99999+99999GF199999021999003051999999MA1102701999999MW1611REMMET080METAR EDDC 071650Z 24007KT 9000 -RA FEW010 SCT027 BKN040 03/02 Q1027      NOSIG=
0148104880999992015010717204+51133+013767FM-15+023099999V0202201N004110118919N009999199+00201+00201999999ADDGA1071+011891999GE19MSL   +99999+99999GF199999071999011891999999MA1102701999999REMMET057METAR EDDC 071720Z 22008KT 9999 BKN039 02/02 Q1027 NOSIG=
0171104880999992015010717504+51133+013767FM-15+023099999V0202101N004610115819N009999199+00301+00101999999ADDGA1021+004571999GA2071+011581999GE19MSL   +99999+99999GF199999021999004571999999MA1102801999999REMMET064METAR EDDC 071750Z 21009KT 9999 FEW015 BKN038 03/01 Q1028 NOSIG=
0171104880999992015010718204+51133+013767FM-15+023099999V0202301N003110115819N009999199+00301+00101999999ADDGA1021+004571999GA2071+011581999GE19MSL   +99999+99999GF199999021999004571999999MA1102801999999REMMET064METAR EDDC 071820Z 23006KT 9999 FEW015 BKN038 03/01 Q1028 NOSIG=
0148104880999992015010718504+51133+013767FM-15+023099999V0202101N003610118919N009999199+00201+00101999999ADDGA1071+011891999GE19MSL   +99999+99999GF199999071999011891999999MA1102801999999REMMET057METAR EDDC 071850Z 21007KT 9999 BKN039 02/01 Q1028 NOSIG=
0171104880999992015010719204+51133+013767FM-15+023099999V0202201N003110121919N009999199+00201+00101999999ADDGA1021+009751999GA2071+012191999GE19MSL   +99999+99999GF199999021999009751999999MA1102801999999REMMET064METAR EDDC 071920Z 22006KT 9999 FEW032 BKN040 02/01 Q1028 NOSIG=
0148104880999992015010719504+51133+013767FM-15+023099999V0202401N002610121919N009999199+00301+00101999999ADDGA1071+012191999GE19MSL   +99999+99999GF199999071999012191999999MA1102801999999REMMET057METAR EDDC 071950Z 24005KT 9999 BKN040 03/01 Q1028 NOSIG=
0148104880999992015010720204+51133+013767FM-15+023099999V0202201N003610121919N009999199+00201+00101999999ADDGA1071+012191999GE19MSL   +99999+99999GF199999071999012191999999MA1102801999999REMMET057METAR EDDC 072020Z 22007KT 9999 BKN040 02/01 Q1028 NOSIG=
0148104880999992015010720504+51133+013767FM-15+023099999V0202201N003110121919N009999199+00201+00001999999ADDGA1071+012191999GE19MSL   +99999+99999GF199999071999012191999999MA1102801999999REMMET057METAR EDDC 072050Z 22006KT 9999 BKN040 02/00 Q1028 NOSIG=
0143104880999992015010721204+51133+013767FM-15+023099999V0202201N003610121919N009999199+00101+00001999999ADDGA1071+012191999GE19MSL   +99999+99999GF199999071999012191999999MA1102801999999REMMET052METAR EDDC 072120Z 22007KT 9999 BKN040 01/M00 Q1028=
0143104880999992015010721504+51133+013767FM-15+023099999V0202001N003610121919N009999199+00101-00101999999ADDGA1071+012191999GE19MSL   +99999+99999GF199999071999012191999999MA1102701999999REMMET052METAR EDDC 072150Z 20007KT 9999 BKN040 01/M01 Q1027=
0166104880999992015010722204+51133+013767FM-15+023099999V0202101N00311073151CN009999199+00001-00101999999ADDGA1021+012191999GA2041+073151999GE19MSL   +99999+99999GF199999021999012191999999MA1102701999999REMMET059METAR EDDC 072220Z 21006KT 9999 FEW040 SCT240 00/M01 Q1027=
0167104880999992015010722504+51133+013767FM-15+023099999V0202001N002610731519N009999199+00001-00101999999ADDGA1021+012191999GA2071+073151999GE19MSL   +99999+99999GF199999021999012191999999MA1102701999999REMMET060METAR EDDC 072250Z 20005KT 9999 FEW040 BKN240 M00/M01 Q1027=
0074104880999992015010723204+51133+013767FM-15+023099999V0202001N002119999999Y999999999-00101-00201999999ADDMA1102801999999REMMET047METAR EDDC 072320Z 20004KT CAVOK M01/M02 Q1028=
0074104880999992015010723504+51133+013767FM-15+023099999V0201901N002619999999Y999999999-00101-00201999999ADDMA1102701999999REMMET047METAR EDDC 072350Z 19005KT CAVOK M01/M02 Q1027=
0074104880999992015010800204+51133+013767FM-15+023099999V0201901N003619999999Y999999999-00101-00201999999ADDMA1102701999999REMMET047METAR EDDC 080020Z 19007KT CAVOK M01/M02 Q1027=
0074104880999992015010800504+51133+013767FM-15+023099999V0201801N003619999999Y999999999-00101-00201999999ADDMA1102701999999REMMET047METAR EDDC 080050Z 18007KT CAVOK M01/M02 Q1027=
0073104880999992015010801204+51133+013767FM-15+023099999V0202001N004119999999Y999999999+00001-00201999999ADDMA1102701999999REMMET046METAR EDDC 080120Z 20008KT CAVOK 00/M02 Q1027=
0074104880999992015010801504+51133+013767FM-15+023099999V0201901N003619999999Y999999999-00101-00201999999ADDMA1102601999999REMMET047METAR EDDC 080150Z 19007KT CAVOK M01/M02 Q1026=
0074104880999992015010802204+51133+013767FM-15+023099999V0201601N002619999999Y999999999+00001-00201999999ADDMA1102601999999REMMET047METAR EDDC 080220Z 16005KT CAVOK M00/M02 Q1026=
0074104880999992015010802504+51133+013767FM-15+023099999V0201301N001519999999Y999999999+00001-00201999999ADDMA1102601999999REMMET047METAR EDDC 080250Z 13003KT CAVOK M00/M02 Q1026=
0073104880999992015010803204+51133+013767FM-15+023099999V0201401N002619999999Y999999999+00001-00201999999ADDMA1102501999999REMMET046METAR EDDC 080320Z 14005KT CAVOK 00/M02 Q1025=
0073104880999992015010803504+51133+013767FM-15+023099999V0201801N002619999999Y999999999+00001-00201999999ADDMA1102501999999REMMET046METAR EDDC 080350Z 18005KT CAVOK 00/M02 Q1025=
0074104880999992015010804204+51133+013767FM-15+023099999V0201801N002619999999Y999999999+00001-00201999999ADDMA1102501999999REMMET047METAR EDDC 080420Z 18005KT CAVOK M00/M02 Q1025=
0079104880999992015010804504+51133+013767FM-15+023099999V0201901N004119999999Y999999999+00001-00201999999ADDMA1102501999999REMMET052METAR EDDC 080450Z 19008KT CAVOK 00/M02 Q1025 NOSIG=
0079104880999992015010805204+51133+013767FM-15+023099999V0201801N004119999999Y999999999+00001-00201999999ADDMA1102401999999REMMET052METAR EDDC 080520Z 18008KT CAVOK 00/M02 Q1024 NOSIG=
0079104880999992015010805504+51133+013767FM-15+023099999V0201901N003619999999Y999999999+00001-00101999999ADDMA1102401999999REMMET052METAR EDDC 080550Z 19007KT CAVOK 00/M01 Q1024 NOSIG=
0079104880999992015010806204+51133+013767FM-15+023099999V0201801N003619999999Y999999999+00101-00201999999ADDMA1102401999999REMMET052METAR EDDC 080620Z 18007KT CAVOK 01/M02 Q1024 NOSIG=
0079104880999992015010806504+51133+013767FM-15+023099999V0201901N004119999999Y999999999+00101-00101999999ADDMA1102401999999REMMET052METAR EDDC 080650Z 19008KT CAVOK 01/M01 Q1024 NOSIG=
0079104880999992015010807204+51133+013767FM-15+023099999V0202001N004619999999Y999999999+00201-00101999999ADDMA1102401999999REMMET052METAR EDDC 080720Z 20009KT CAVOK 02/M01 Q1024 NOSIG=
0079104880999992015010807504+51133+013767FM-15+023099999V0202001N004119999999Y999999999+00201+00001999999ADDMA1102401999999REMMET052METAR EDDC 080750Z 20008KT CAVOK 02/M00 Q1024 NOSIG=
0078104880999992015010808204+51133+013767FM-15+023099999V0202101N004119999999Y999999999+00301+00001999999ADDMA1102401999999REMMET051METAR EDDC 080820Z 21008KT CAVOK 03/00 Q1024 NOSIG=
0181104880999992015010808504+51133+013767FM-15+023099999V0202101N004610189019N009999199+00301+00101999999ADDGA1041+012191999GA2081+018901999GE19MSL   +99999+99999GF199999041999012191999999MA1102401999999MW1611REMMET068METAR EDDC 080850Z 21009KT 9999 -RA SCT040 OVC062 03/01 Q1024 NOSIG=
0181104880999992015010809204+51133+013767FM-15+023099999V0202001N004610152419N009999199+00301+00101999999ADDGA1041+009751999GA2071+015241999GE19MSL   +99999+99999GF199999041999009751999999MA1102401999999MW1611REMMET068METAR EDDC 080920Z 20009KT 9999 -RA SCT032 BKN050 03/01 Q1024 NOSIG=
0158104880999992015010809504+51133+013767FM-15+023099999V0202001N004110067119N009999199+00301+00101999999ADDGA1071+006711999GE19MSL   +99999+99999GF199999071999006711999999MA1102301999999MW1611REMMET061METAR EDDC 080950Z 20008KT 9999 -RA BKN022 03/01 Q1023 NOSIG=
0158104880999992015010810204+51133+013767FM-15+023099999V0202001N004110070119N009999199+00301+00101999999ADDGA1071+007011999GE19MSL   +99999+99999GF199999071999007011999999MA1102301999999MW1611REMMET061METAR EDDC 081020Z 20008KT 9999 -RA BKN023 03/01 Q1023 NOSIG=
0158104880999992015010810504+51133+013767FM-15+023099999V0201901N004610061019N009999199+00301+00101999999ADDGA1071+006101999GE19MSL   +99999+99999GF199999071999006101999999MA1102301999999MW1611REMMET061METAR EDDC 081050Z 19009KT 9999 -RA BKN020 03/01 Q1023 NOSIG=
0158104880999992015010811204+51133+013767FM-15+023099999V0202001N004110054919N009999199+00301+00201999999ADDGA1071+005491999GE19MSL   +99999+99999GF199999071999005491999999MA1102201999999MW1611REMMET061METAR EDDC 081120Z 20008KT 9999 -RA BKN018 03/02 Q1022 NOSIG=
0148104880999992015010811504+51133+013767FM-15+023099999V0202101N004110048819N009999199+00401+00301999999ADDGA1071+004881999GE19MSL   +99999+99999GF199999071999004881999999MA1102101999999REMMET057METAR EDDC 081150Z 21008KT 9999 BKN016 04/03 Q1021 NOSIG=
0148104880999992015010812204+51133+013767FM-15+023099999V0202201N004110054919N009999199+00501+00301999999ADDGA1071+005491999GE19MSL   +99999+99999GF199999071999005491999999MA1102101999999REMMET057METAR EDDC 081220Z 22008KT 9999 BKN018 05/03 Q1021 NOSIG=
0158104880999992015010812504+51133+013767FM-15+023099999V0202301N004110048819N009999199+00501+00301999999ADDGA1071+004881999GE19MSL   +99999+99999GF199999071999004881999999MA1102101999999MW1611REMMET061METAR EDDC 081250Z 23008KT 9999 -RA BKN016 05/03 Q1021 NOSIG=
0148104880999992015010813204+51133+013767FM-15+023099999V0202301N006210045719N009999199+00601+00301999999ADDGA1071+004571999GE19MSL   +99999+99999GF199999071999004571999999MA1102101999999REMMET057METAR EDDC 081320Z 23012KT 9999 BKN015 06/03 Q1021 NOSIG=
0148104880999992015010813504+51133+013767FM-15+023099999V0202201N005710048819N009999199+00601+00401999999ADDGA1071+004881999GE19MSL   +99999+99999GF199999071999004881999999MA1102001999999REMMET057METAR EDDC 081350Z 22011KT 9999 BKN016 06/04 Q1020 NOSIG=
0171104880999992015010814204+51133+013767FM-15+023099999V0202201N005710070119N009999199+00601+00301999999ADDGA1021+004881999GA2071+007011999GE19MSL   +99999+99999GF199999021999004881999999MA1102001999999REMMET064METAR EDDC 081420Z 22011KT 9999 FEW016 BKN023 06/03 Q1020 NOSIG=
0171104880999992015010814504+51133+013767FM-15+023099999V0202201N004610082319N009999199+00601+00301999999ADDGA1021+005491999GA2071+008231999GE19MSL   +99999+99999GF199999021999005491999999MA1102001999999REMMET064METAR EDDC 081450Z 22009KT 9999 FEW018 BKN027 06/03 Q1020 NOSIG=
0171104880999992015010815204+51133+013767FM-15+023099999V0202201N006210091419N009999199+00601+00301999999ADDGA1021+006101999GA2071+009141999GE19MSL   +99999+99999GF199999021999006101999999MA1101901999999REMMET064METAR EDDC 081520Z 22012KT 9999 FEW020 BKN030 06/03 Q1019 NOSIG=
0171104880999992015010815504+51133+013767FM-15+023099999V0202201N004610082319N009999199+00601+00301999999ADDGA1021+006101999GA2071+008231999GE19MSL   +99999+99999GF199999021999006101999999MA1101901999999REMMET064METAR EDDC 081550Z 22009KT 9999 FEW020 BKN027 06/03 Q1019 NOSIG=
0158104880999992015010816204+51133+013767FM-15+023099999V0201801N004110079219N009999199+00601+00401999999ADDGA1071+007921999GE19MSL   +99999+99999GF199999071999007921999999MA1101901999999MW1611REMMET061METAR EDDC 081620Z 18008KT 9999 -RA BKN026 06/04 Q1019 NOSIG=
0158104880999992015010816504+51133+013767FM-15+023099999V0201901N004110067119N009999199+00601+00401999999ADDGA1071+006711999GE19MSL   +99999+99999GF199999071999006711999999MA1101801999999MW1611REMMET061METAR EDDC 081650Z 19008KT 9999 -RA BKN022 06/04 Q1018 NOSIG=
0181104880999992015010817204+51133+013767FM-15+023099999V0202101N006210097519N009999199+00601+00501999999ADDGA1021+006401999GA2071+009751999GE19MSL   +99999+99999GF199999021999006401999999MA1101701999999MW1611REMMET068METAR EDDC 081720Z 21012KT 9999 -RA FEW021 BKN032 06/05 Q1017 NOSIG=
0181104880999992015010817504+51133+013767FM-15+023099999V0202201N007710100619N009999199+00701+00501999999ADDGA1041+005181999GA2071+010061999GE19MSL   +99999+99999GF199999041999005181999999MA1101701999999MW1611REMMET068METAR EDDC 081750Z 22015KT 9999 -RA SCT017 BKN033 07/05 Q1017 NOSIG=
0181104880999992015010818204+51133+013767FM-15+023099999V0202201N007710076219N009999199+00701+00501999999ADDGA1041+004571999GA2071+007621999GE19MSL   +99999+99999GF199999041999004571999999MA1101701999999MW1611REMMET068METAR EDDC 081820Z 22015KT 9999 -RA SCT015 BKN025 07/05 Q1017 NOSIG=
0181104880999992015010818504+51133+013767FM-15+023099999V0202201N006710091419N009999199+00701+00601999999ADDGA1041+006101999GA2071+009141999GE19MSL   +99999+99999GF199999041999006101999999MA1101601999999MW1611REMMET068METAR EDDC 081850Z 22013KT 9999 -RA SCT020 BKN030 07/06 Q1016 NOSIG=
0192104880999992015010819204+51133+013767FM-15+023099999V0202301N007210091419N009999199+00701+00501999999ADDGA1041+006101999GA2071+009141999GE19MSL   +99999+99999GF199999041999006101999999MA1101601999999MW1611OC101491REMMET071METAR EDDC 081920Z 23014G29KT 9999 -RA SCT020 BKN030 07/05 Q1016 NOSIG=
0192104880999992015010819504+51133+013767FM-15+023099999V0202401N007710106719N009999199+00701+00501999999ADDGA1041+006401999GA2071+010671999GE19MSL   +99999+99999GF199999041999006401999999MA1101601999999MW1611OC101391REMMET071METAR EDDC 081950Z 24015G27KT 9999 -RA SCT021 BKN035 07/05 Q1016 NOSIG=
0181104880999992015010820204+51133+013767FM-15+023099999V0202301N006710103619N009999199+00701+00501999999ADDGA1021+006401999GA2071+010361999GE19MSL   +99999+99999GF199999021999006401999999MA1101601999999MW1611REMMET068METAR EDDC 082020Z 23013KT 9999 -RA FEW021 BKN034 07/05 Q1016 NOSIG=
0192104880999992015010820504+51133+013767FM-15+023099999V0202401N008210091419N009999199+00701+00501999999ADDGA1021+005791999GA2071+009141999GE19MSL   +99999+99999GF199999021999005791999999MA1101501999999MW1611OC101341REMMET071METAR EDDC 082050Z 24016G26KT 9999 -RA FEW019 BKN030 07/05 Q1015 NOSIG=
0198104880999992015010821204+51133+013767FM-15+023099999V0202501N00721006101CN009999199+00701+00501999999ADDGA1021+004571999GA2041+006101999GA3071+009141999GE19MSL   +99999+99999GF199999021999004571999999MA1101501999999MW1611REMMET069METAR EDDC 082120Z 25014KT 9999 -RA FEW015 SCT020 BKN030 07/05 Q1015=
0175104880999992015010821504+51133+013767FM-15+023099999V0202501N006710067119N009999199+00701+00501999999ADDGA1041+005181999GA2071+006711999GE19MSL   +99999+99999GF199999041999005181999999MA1101601999999MW1611REMMET062METAR EDDC 082150Z 25013KT 9999 -RA SCT017 BKN022 07/05 Q1016=
0185104880999992015010822204+51133+013767FM-15+023099999V0202701N007210045719N007000199+00701+00501999999ADDGA1021+003051999GA2071+004571999GE19MSL   +99999+99999GF199999021999003051999999MA1101701999999MW1631OC101241REMMET064METAR EDDC 082220Z 27014G24KT 7000 RA FEW010 BKN015 07/05 Q1017=
0157104880999992015010822504+51133+013767FM-15+023099999V0203001N009810033519N009999199+00501+00401999999ADDGA1071+003351999GE19MSL   +99999+99999GF199999071999003351999999MA1101901999999MW1611REMMET060METAR EDDC 082250Z 30019KT 9999 -RA BKN011 05/04 Q1019 RERA=
0186104880999992015010823204+51133+013767FM-15+023099999V0203101N009810033519N009999199+00501+00301999999ADDGA1021+002441999GA2071+003351999GE19MSL   +99999+99999GF199999021999002441999999MA1102001999999MW1611OC101491REMMET065METAR EDDC 082320Z 31019G29KT 9999 -RA FEW008 BKN011 05/03 Q1020=
0188104880999992015010823504+51133+013767FM-15+023099999V0203001N007710036619N009999199+00401+00301999999ADDGA1021+002741999GA2071+003661999GA3071+006711999GE19MSL   +99999+99999GF199999021999002741999999MA1102101999999REMMET065METAR EDDC 082350Z 30015KT 9999 FEW009 BKN012 BKN022 04/03 Q1021=
0188104880999992015010900204+51133+013767FM-15+023099999V0202801N006210042719N009999199+00401+00301999999ADDGA1021+003051999GA2071+004271999GA3071+006711999GE19MSL   +99999+99999GF199999021999003051999999MA1102201999999REMMET065METAR EDDC 090020Z 28012KT 9999 FEW010 BKN014 BKN022 04/03 Q1022=
0165104880999992015010900504+51133+013767FM-15+023099999V0202701N007210045719N009999199+00401+00201999999ADDGA1071+004571999GA2071+009141999GE19MSL   +99999+99999GF199999071999004571999999MA1102301999999REMMET058METAR EDDC 090050Z 27014KT 9999 BKN015 BKN030 04/02 Q1023=
0176104880999992015010901204+51133+013767FM-15+023099999V0202701N007210100619N009999199+00401+00201999999ADDGA1021+005181999GA2071+010061999GE19MSL   +99999+99999GF199999021999005181999999MA1102401999999OC101341REMMET061METAR EDDC 090120Z 27014G26KT 9999 FEW017 BKN033 04/02 Q1024=
0165104880999992015010901504+51133+013767FM-15+023099999V0202601N005710064019N009999199+00501+00201999999ADDGA1071+006401999GA2071+010671999GE19MSL   +99999+99999GF199999071999006401999999MA1102401999999REMMET058METAR EDDC 090150Z 26011KT 9999 BKN021 BKN035 05/02 Q1024=
0142104880999992015010902204+51133+013767FM-15+023099999V0202601N006210073219N009999199+00401+00201999999ADDGA1071+007321999GE19MSL   +99999+99999GF199999071999007321999999MA1102401999999REMMET051METAR EDDC 090220Z 26012KT 9999 BKN024 04/02 Q1024=
0165104880999992015010902504+51133+013767FM-15+023099999V0202501N00461076201CN009999199+00401+00101999999ADDGA1021+009141999GA2041+076201999GE19MSL   +99999+99999GF199999021999009141999999MA1102301999999REMMET058METAR EDDC 090250Z 25009KT 9999 FEW030 SCT250 04/01 Q1023=
0072104880999992015010903204+51133+013767FM-15+023099999V0202501N005719999999Y999999999+00401+00101999999ADDMA1102301999999REMMET045METAR EDDC 090320Z 25011KT CAVOK 04/01 Q1023=
0072104880999992015010903504+51133+013767FM-15+023099999V0202501N005719999999Y999999999+00401+00101999999ADDMA1102301999999REMMET045METAR EDDC 090350Z 25011KT CAVOK 04/01 Q1023=
0072104880999992015010904204+51133+013767FM-15+023099999V0202501N005719999999Y999999999+00501+00101999999ADDMA1102201999999REMMET045METAR EDDC 090420Z 25011KT CAVOK 05/01 Q1022=
0089104880999992015010904504+51133+013767FM-15+023099999V0202501N006219999999Y999999999+00501+00101999999ADDMA1102201999999REMMET062METAR EDDC 090450Z 25012KT CAVOK 05/01 Q1022 TEMPO 25015G25KT=
0089104880999992015010905204+51133+013767FM-15+023099999V0202401N006719999999Y999999999+00501+00101999999ADDMA1102201999999REMMET062METAR EDDC 090520Z 24013KT CAVOK 05/01 Q1022 TEMPO 25015G25KT=
