0101108520999992013010100204+48433+010933AUTO +0477EDMA V0201501N002612200019N0021001N1+00001-00301999999ADDMA1101191999999REMMET074METAR EDMA 010020Z AUTO 15005KT 2100NDV ////// M00/M03 Q1012 RMK ATIS ALF;
0101108520999992013010100504+48433+010933AUTO +0477EDMA V0201501N002112200019N0021001N1+00001-00301999999ADDMA1101191999999REMMET074METAR EDMA 010050Z AUTO 15004KT 2100NDV ////// M00/M03 Q1012 RMK ATIS BRA;
0101108520999992013010101204+48433+010933AUTO +0477EDMA V0201501N002612200019N0021001N1+00001-00401999999ADDMA1101081999999REMMET074METAR EDMA 010120Z AUTO 15005KT 2100NDV ////// M00/M04 Q1011 RMK ATIS CHA;
0101108520999992013010101504+48433+010933AUTO +0477EDMA V0201601N003112200019N0021001N1-00101-00301999999ADDMA1101081999999REMMET074METAR EDMA 010150Z AUTO 16006KT 2100NDV ////// M01/M03 Q1011 RMK ATIS DEL;
0101108520999992013010102204+48433+010933AUTO +0477EDMA V0201401N002612200019N0021001N1-00101-00401999999ADDMA1101081999999REMMET074METAR EDMA 010220Z AUTO 14005KT 2100NDV ////// M01/M04 Q1011 RMK ATIS ECH;
0101108520999992013010102504+48433+010933AUTO +0477EDMA V0201301N002112200019N0021001N1-00201-00301999999ADDMA1101081999999REMMET074METAR EDMA 010250Z AUTO 13004KT 2100NDV ////// M02/M03 Q1011 RMK ATIS FOX;
0101108520999992013010103204+48433+010933AUTO +0477EDMA V0201501N002112200019N0021001N1-00201-00301999999ADDMA1101081999999REMMET074METAR EDMA 010320Z AUTO 15004KT 2100NDV ////// M02/M03 Q1011 RMK ATIS GOL;
0101108520999992013010103504+48433+010933AUTO +0477EDMA V0201401N002112200019N0021001N1-00201-00301999999ADDMA1101021999999REMMET074METAR EDMA 010350Z AUTO 14004KT 2100NDV ////// M02/M03 Q1010 RMK ATIS HOT;
0101108520999992013010104204+48433+010933AUTO +0477EDMA V0209999V001012200019N0021001N1-00201-00301999999ADDMA1101021999999REMMET074METAR EDMA 010420Z AUTO VRB02KT 2100NDV ////// M02/M03 Q1010 RMK ATIS IND;
0101108520999992013010104504+48433+010933AUTO +0477EDMA V0201501N002112200019N0021001N1-00201-00301999999ADDMA1101021999999REMMET074METAR EDMA 010450Z AUTO 15004KT 2100NDV ////// M02/M03 Q1010 RMK ATIS JUL;
0101108520999992013010105204+48433+010933AUTO +0477EDMA V0201501N002112200019N0021001N1-00201-00401999999ADDMA1101021999999REMMET074METAR EDMA 010520Z AUTO 15004KT 2100NDV ////// M02/M04 Q1010 RMK ATIS KIL;
0101108520999992013010105504+48433+010933AUTO +0477EDMA V0201501N002612200019N0021001N1-00201-00401999999ADDMA1101021999999REMMET074METAR EDMA 010550Z AUTO 15005KT 2100NDV ////// M02/M04 Q1010 RMK ATIS LIM;
0101108520999992013010106204+48433+010933AUTO +0477EDMA V0201501N003112200019N0021001N1-00201-00401999999ADDMA1101021999999REMMET074METAR EDMA 010620Z AUTO 15006KT 2100NDV ////// M02/M04 Q1010 RMK ATIS MIK;
0101108520999992013010106504+48433+010933AUTO +0477EDMA V0201601N003112200019N0021001N1-00101-00401999999ADDMA1101021999999REMMET074METAR EDMA 010650Z AUTO 16006KT 2100NDV ////// M01/M04 Q1010 RMK ATIS NOV;
0101108520999992013010107204+48433+010933AUTO +0477EDMA V0201601N003112200019N0021001N1-00101-00401999999ADDMA1101021999999REMMET074METAR EDMA 010720Z AUTO 16006KT 2100NDV ////// M01/M04 Q1010 RMK ATIS OSC;
0101108520999992013010107504+48433+010933AUTO +0477EDMA V0201501N002612200019N0021001N1-00101-00401999999ADDMA1101021999999REMMET074METAR EDMA 010750Z AUTO 15005KT 2100NDV ////// M01/M04 Q1010 RMK ATIS PAP;
0101108520999992013010108204+48433+010933AUTO +0477EDMA V0201601N002112200019N0021001N1-00101-00401999999ADDMA1101021999999REMMET074METAR EDMA 010820Z AUTO 16004KT 2100NDV ////// M01/M04 Q1010 RMK ATIS QUE;
0100108520999992013010108504+48433+010933AUTO +0477EDMA V0201601N003112200019N0021001N1+00001-00301999999ADDMA1101021999999REMMET073METAR EDMA 010850Z AUTO 16006KT 2100NDV ////// 00/M03 Q1010 RMK ATIS ROM;
0100108520999992013010109204+48433+010933AUTO +0477EDMA V0201501N003112200019N0021001N1+00101-00301999999ADDMA1101021999999REMMET073METAR EDMA 010920Z AUTO 15006KT 2100NDV ////// 01/M03 Q1010 RMK ATIS SIE;
0100108520999992013010109504+48433+010933AUTO +0477EDMA V0201501N003112200019N0021001N1+00201-00301999999ADDMA1101021999999REMMET073METAR EDMA 010950Z AUTO 15006KT 2100NDV ////// 02/M03 Q1010 RMK ATIS TAN;
0100108520999992013010110204+48433+010933AUTO +0477EDMA V0201701N003112200019N0021001N1+00301-00201999999ADDMA1101021999999REMMET073METAR EDMA 011020Z AUTO 17006KT 2100NDV ////// 03/M02 Q1010 RMK ATIS UNI;
0100108520999992013010110504+48433+010933AUTO +0477EDMA V0201601N002612200019N0021001N1+00401-00201999999ADDMA1101021999999REMMET073METAR EDMA 011050Z AUTO 16005KT 2100NDV ////// 04/M02 Q1010 RMK ATIS VIC;
0100108520999992013010111204+48433+010933AUTO +0477EDMA V0201701N002112200019N0021001N1+00401-00101999999ADDMA1101021999999REMMET073METAR EDMA 011120Z AUTO 17004KT 2100NDV ////// 04/M01 Q1010 RMK ATIS WHI;
0100108520999992013010111504+48433+010933AUTO +0477EDMA V0201701N001512200019N0021001N1+00501-00101999999ADDMA1101021999999REMMET073METAR EDMA 011150Z AUTO 17003KT 2100NDV ////// 05/M01 Q1010 RMK ATIS X-R;
0108108520999992013010112204+48433+010933AUTO +0477EDMA V0202401N002612200019N0021001N1+00601-00101999999ADDMA1100911999999REMMET081METAR EDMA 011220Z AUTO 24005KT 200V270 2100NDV ////// 06/M01 Q1009 RMK ATIS YAN;
0100108520999992013010112504+48433+010933AUTO +0477EDMA V0202301N004112200019N0021001N1+00601+00001999999ADDMA1100911999999REMMET073METAR EDMA 011250Z AUTO 23008KT 2100NDV ////// 06/M00 Q1009 RMK ATIS ZUL;
0099108520999992013010113204+48433+010933AUTO +0477EDMA V0202401N004612200019N0021001N1+00701+00001999999ADDMA1100911999999REMMET072METAR EDMA 011320Z AUTO 24009KT 2100NDV ////// 07/00 Q1009 RMK ATIS ALF;
0099108520999992013010113504+48433+010933AUTO +0477EDMA V0202401N005112200019N0021001N1+00701+00101999999ADDMA1101021999999REMMET072METAR EDMA 011350Z AUTO 24010KT 2100NDV ////// 07/01 Q1010 RMK ATIS BRA;
0109108520999992013010114204+48433+010933AUTO +0477EDMA V0202301N004612200019N0021001N1+00701+00201999999ADDAW1511MA1101021999999REMMET076METAR EDMA 011420Z AUTO 23009KT 2100NDV -DZ ////// 07/02 Q1010 RMK ATIS CHA;
0099108520999992013010114504+48433+010933AUTO +0477EDMA V0202401N006212200019N0021001N1+00701+00201999999ADDMA1101021999999REMMET072METAR EDMA 011450Z AUTO 24012KT 2100NDV ////// 07/02 Q1010 RMK ATIS DEL;
0109108520999992013010115204+48433+010933AUTO +0477EDMA V0202401N005112200019N0021001N1+00701+00201999999ADDAW1611MA1101021999999REMMET076METAR EDMA 011520Z AUTO 24010KT 2100NDV -RA ////// 07/02 Q1010 RMK ATIS ECH;
0109108520999992013010115504+48433+010933AUTO +0477EDMA V0202401N006212200019N0021001N1+00601+00201999999ADDAW1511MA1101021999999REMMET076METAR EDMA 011550Z AUTO 24012KT 2100NDV -DZ ////// 06/02 Q1010 RMK ATIS FOX;
0109108520999992013010116204+48433+010933AUTO +0477EDMA V0202401N006712200019N0021001N1+00601+00201999999ADDAW1511MA1101081999999REMMET076METAR EDMA 011620Z AUTO 24013KT 2100NDV -DZ ////// 06/02 Q1011 RMK ATIS GOL;
0109108520999992013010116504+48433+010933AUTO +0477EDMA V0202401N007212200019N0021001N1+00601+00301999999ADDAW1511MA1101081999999REMMET076METAR EDMA 011650Z AUTO 24014KT 2100NDV -DZ ////// 06/03 Q1011 RMK ATIS HOT;
0099108520999992013010117204+48433+010933AUTO +0477EDMA V0202401N006712200019N0021001N1+00601+00301999999ADDMA1101081999999REMMET072METAR EDMA 011720Z AUTO 24013KT 2100NDV ////// 06/03 Q1011 RMK ATIS IND;
0099108520999992013010117504+48433+010933AUTO +0477EDMA V0202401N006212200019N0021001N1+00501+00401999999ADDMA1101081999999REMMET072METAR EDMA 011750Z AUTO 24012KT 2100NDV ////// 05/04 Q1011 RMK ATIS JUL;
0099108520999992013010118204+48433+010933AUTO +0477EDMA V0202401N005712200019N0021001N1+00501+00401999999ADDMA1101081999999REMMET072METAR EDMA 011820Z AUTO 24011KT 2100NDV ////// 05/04 Q1011 RMK ATIS KIL;
0109108520999992013010118504+48433+010933AUTO +0477EDMA V0202301N004612200019N0021001N1+00501+00401999999ADDAW1511MA1101191999999REMMET076METAR EDMA 011850Z AUTO 23009KT 2100NDV -DZ ////// 05/04 Q1012 RMK ATIS LIM;
0109108520999992013010119204+48433+010933AUTO +0477EDMA V0202301N006212200019N0021001N1+00501+00401999999ADDAW1611MA1101191999999REMMET076METAR EDMA 011920Z AUTO 23012KT 2100NDV -RA ////// 05/04 Q1012 RMK ATIS MIK;
0109108520999992013010119504+48433+010933AUTO +0477EDMA V0202301N004612200019N0021001N1+00501+00401999999ADDAW1511MA1101191999999REMMET076METAR EDMA 011950Z AUTO 23009KT 2100NDV -DZ ////// 05/04 Q1012 RMK ATIS NOV;
0109108520999992013010120204+48433+010933AUTO +0477EDMA V0202401N004612200019N0021001N1+00501+00401999999ADDAW1511MA1101191999999REMMET076METAR EDMA 012020Z AUTO 24009KT 2100NDV -DZ ////// 05/04 Q1012 RMK ATIS OSC;
0099108520999992013010120504+48433+010933AUTO +0477EDMA V0202401N004612200019N0021001N1+00501+00401999999ADDMA1101291999999REMMET072METAR EDMA 012050Z AUTO 24009KT 2100NDV ////// 05/04 Q1013 RMK ATIS PAP;
0109108520999992013010121204+48433+010933AUTO +0477EDMA V0202301N005112200019N0021001N1+00401+00401999999ADDAW1611MA1101291999999REMMET076METAR EDMA 012120Z AUTO 23010KT 2100NDV -RA ////// 04/04 Q1013 RMK ATIS QUE;
0109108520999992013010121504+48433+010933AUTO +0477EDMA V0202301N003612200019N0021001N1+00401+00401999999ADDAW1511MA1101291999999REMMET076METAR EDMA 012150Z AUTO 23007KT 2100NDV -DZ ////// 04/04 Q1013 RMK ATIS ROM;
0109108520999992013010122204+48433+010933AUTO +0477EDMA V0202401N004112200019N0021001N1+00401+00401999999ADDAW1511MA1101391999999REMMET076METAR EDMA 012220Z AUTO 24008KT 2100NDV -DZ ////// 04/04 Q1014 RMK ATIS SIE;
0099108520999992013010122504+48433+010933AUTO +0477EDMA V0202401N004112200019N0021001N1+00501+00401999999ADDMA1101391999999REMMET072METAR EDMA 012250Z AUTO 24008KT 2100NDV ////// 05/04 Q1014 RMK ATIS TAN;
0109108520999992013010123204+48433+010933AUTO +0477EDMA V0202401N003612200019N0021001N1+00401+00401999999ADDAW1511MA1101391999999REMMET076METAR EDMA 012320Z AUTO 24007KT 2100NDV -DZ ////// 04/04 Q1014 RMK ATIS UNI;
0109108520999992013010123504+48433+010933AUTO +0477EDMA V0202501N003612200019N0021001N1+00401+00401999999ADDAW1511MA1101391999999REMMET076METAR EDMA 012350Z AUTO 25007KT 2100NDV -DZ ////// 04/04 Q1014 RMK ATIS VIC;
0109108520999992013010200204+48433+010933AUTO +0477EDMA V0202601N003112200019N0021001N1+00401+00401999999ADDAW1511MA1101491999999REMMET076METAR EDMA 020020Z AUTO 26006KT 2100NDV -DZ ////// 04/04 Q1015 RMK ATIS WHI;
0099108520999992013010200504+48433+010933AUTO +0477EDMA V0202501N002112200019N0021001N1+00401+00401999999ADDMA1101491999999REMMET072METAR EDMA 020050Z AUTO 25004KT 2100NDV ////// 04/04 Q1015 RMK ATIS X-R;
0099108520999992013010201204+48433+010933AUTO +0477EDMA V0202601N003112200019N0021001N1+00401+00401999999ADDMA1101591999999REMMET072METAR EDMA 020120Z AUTO 26006KT 2100NDV ////// 04/04 Q1016 RMK ATIS YAN;
0109108520999992013010201504+48433+010933AUTO +0477EDMA V0202801N003612200019N0021001N1+00401+00301999999ADDAW1611MA1101591999999REMMET076METAR EDMA 020150Z AUTO 28007KT 2100NDV -RA ////// 04/03 Q1016 RMK ATIS ZUL;
0109108520999992013010202204+48433+010933AUTO +0477EDMA V0203001N003112200019N0021001N1+00401+00301999999ADDAW1611MA1101591999999REMMET076METAR EDMA 020220Z AUTO 30006KT 2100NDV -RA ////// 04/03 Q1016 RMK ATIS ALF;
0099108520999992013010202504+48433+010933AUTO +0477EDMA V0203001N004112200019N0021001N1+00301+00201999999ADDMA1101691999999REMMET072METAR EDMA 020250Z AUTO 30008KT 2100NDV ////// 03/02 Q1017 RMK ATIS BRA;
0099108520999992013010203204+48433+010933AUTO +0477EDMA V0203101N003612200019N0021001N1+00301+00001999999ADDMA1101801999999REMMET072METAR EDMA 020320Z AUTO 31007KT 2100NDV ////// 03/00 Q1018 RMK ATIS CHA;
0099108520999992013010203504+48433+010933AUTO +0477EDMA V0203001N002612200019N0021001N1+00301+00001999999ADDMA1101801999999REMMET072METAR EDMA 020350Z AUTO 30005KT 2100NDV ////// 03/00 Q1018 RMK ATIS DEL;
0099108520999992013010204204+48433+010933AUTO +0477EDMA V0202901N001512200019N0021001N1+00201+00001999999ADDMA1101901999999REMMET072METAR EDMA 020420Z AUTO 29003KT 2100NDV ////// 02/00 Q1019 RMK ATIS ECH;
0107108520999992013010204504+48433+010933AUTO +0477EDMA V0202701N001512200019N0021001N1+00201+00101999999ADDMA1101901999999REMMET080METAR EDMA 020450Z AUTO 27003KT 250V330 2100NDV ////// 02/01 Q1019 RMK ATIS FOX;
0126108520999992013010205204+48433+010933FM-15+0477EDMA V0202601N001512200019N0112651N1+00101+00001999999ADDGF104991999999999999999999MA1101901999999REMMET073METAR EDMA 020520Z 26003KT 230V290 9999 SCT035 01/M00 Q1019 RMK ATIS GOL;
0118108520999992013010205504+48433+010933FM-15+0477EDMA V0209999V001012200019N0112651N1+00101+00001999999ADDGF104991999999999999999999MA1102001999999REMMET065METAR EDMA 020550Z VRB02KT 9999 SCT039 01/M00 Q1020 RMK ATIS HOT;
0117108520999992013010206204+48433+010933FM-15+0477EDMA V0202301N001512200019N0112651N1+00101+00101999999ADDGF104991999999999999999999MA1102001999999REMMET064METAR EDMA 020620Z 23003KT 9999 SCT039 01/01 Q1020 RMK ATIS IND;
0118108520999992013010206504+48433+010933FM-15+0477EDMA V0202201N002112200019N0112651N1+00001+00001999999ADDGF104991999999999999999999MA1102101999999REMMET065METAR EDMA 020650Z 22004KT 9999 SCT036 00/M00 Q1021 RMK ATIS JUL;
0118108520999992013010207204+48433+010933FM-15+0477EDMA V0201901N002112200019N0112651N1+00001+00001999999ADDGF102991999999999999999999MA1102101999999REMMET065METAR EDMA 020720Z 19004KT 9999 FEW044 00/M00 Q1021 RMK ATIS KIL;
0118108520999992013010207504+48433+010933FM-15+0477EDMA V0201701N001512200019N0112651N1+00001+00001999999ADDGF104991999999999999999999MA1102201999999REMMET065METAR EDMA 020750Z 17003KT 9999 SCT044 00/M00 Q1022 RMK ATIS LIM;
0118108520999992013010208204+48433+010933FM-15+0477EDMA V0202401N001012200019N0112651N1+00001+00001999999ADDGF104991999999999999999999MA1102301999999REMMET065METAR EDMA 020820Z 24002KT 9999 SCT035 00/M00 Q1023 RMK ATIS MIK;
0117108520999992013010208504+48433+010933FM-15+0477EDMA V0201501N001512200019N0021001N1+00001+00001999999ADDGF104991999999999999999999MA1102301999999REMMET064METAR EDMA 020850Z 15003KT 2100 SCT027 00/00 Q1023 RMK ATIS NOV;
0117108520999992013010209204+48433+010933FM-15+0477EDMA V0202201N001512200019N0112651N1+00101+00101999999ADDGF102991999999999999999999MA1102401999999REMMET064METAR EDMA 020920Z 22003KT 9999 FEW030 01/01 Q1024 RMK ATIS OSC;
0117108520999992013010209504+48433+010933FM-15+0477EDMA V0202501N003112200019N0112651N1+00301+00101999999ADDGF102991999999999999999999MA1102401999999REMMET064METAR EDMA 020950Z 25006KT 9999 FEW027 03/01 Q1024 RMK ATIS PAP;
0124108520999992013010210204+48433+010933FM-15+0477EDMA V0202501N003112200019N0112651N1+00301+00201999999ADDGF104991999999999999999999MA1102401999999REMMET071METAR EDMA 021020Z 25006KT 9999 FEW027 SCT033 03/02 Q1024 RMK ATIS QUE;
0124108520999992013010210504+48433+010933FM-15+0477EDMA V0202501N003612200019N0112651N1+00301+00101999999ADDGF104991999999999999999999MA1102401999999REMMET071METAR EDMA 021050Z 25007KT 9999 FEW020 SCT030 03/01 Q1024 RMK ATIS ROM;
0124108520999992013010211204+48433+010933FM-15+0477EDMA V0202601N003612200019N0112651N1+00401+00001999999ADDGF104991999999999999999999MA1102401999999REMMET071METAR EDMA 021120Z 26007KT 9999 FEW017 SCT044 04/00 Q1024 RMK ATIS SIE;
0125108520999992013010211504+48433+010933FM-15+0477EDMA V0202701N004612200019N0112651N1+00401-00101999999ADDGF104991999999999999999999MA1102401999999REMMET072METAR EDMA 021150Z 27009KT 9999 FEW020 SCT043 04/M01 Q1024 RMK ATIS TAN;
0133108520999992013010212204+48433+010933FM-15+0477EDMA V0202701N004612200019N0112651N1+00401-00101999999ADDGF104991999999999999999999MA1102511999999REMMET080METAR EDMA 021220Z 27009KT 230V300 9999 FEW024 SCT043 04/M01 Q1025 RMK ATIS UNI;
0124108520999992013010212504+48433+010933FM-15+0477EDMA V0202601N004112200019N0112651N1+00501+00001999999ADDGF104991999999999999999999MA1102511999999REMMET071METAR EDMA 021250Z 26008KT 9999 FEW021 SCT033 05/00 Q1025 RMK ATIS VIC;
0133108520999992013010213204+48433+010933FM-15+0477EDMA V0202601N003612200019N0112651N1+00501-00101999999ADDGF104991999999999999999999MA1102511999999REMMET080METAR EDMA 021320Z 26007KT 220V290 9999 FEW025 SCT040 05/M01 Q1025 RMK ATIS WHI;
0125108520999992013010213504+48433+010933FM-15+0477EDMA V0202801N004112200019N0112651N1+00401-00201999999ADDGF104991999999999999999999MA1102611999999REMMET072METAR EDMA 021350Z 28008KT 9999 FEW029 SCT045 04/M02 Q1026 RMK ATIS X-R;
0125108520999992013010214204+48433+010933FM-15+0477EDMA V0202701N003112200019N0112651N1+00401-00201999999ADDGF104991999999999999999999MA1102611999999REMMET072METAR EDMA 021420Z 27006KT 9999 FEW029 SCT048 04/M02 Q1026 RMK ATIS YAN;
0118108520999992013010214504+48433+010933FM-15+0477EDMA V0202601N003112200019N0112651N1+00401-00201999999ADDGF102991999999999999999999MA1102611999999REMMET065METAR EDMA 021450Z 26006KT 9999 FEW048 04/M02 Q1026 RMK ATIS ZUL;
0086108520999992013010215204+48433+010933FM-15+0477EDMA V0202501N002119999999Y0099001N1+00301-00301999999ADDMA1102711999999REMMET059METAR EDMA 021520Z 25004KT CAVOK 03/M03 Q1027 RMK ATIS ALF;
0086108520999992013010215504+48433+010933FM-15+0477EDMA V0202201N001519999999Y0099001N1+00201-00301999999ADDMA1102711999999REMMET059METAR EDMA 021550Z 22003KT CAVOK 02/M03 Q1027 RMK ATIS BRA;
0086108520999992013010216204+48433+010933FM-15+0477EDMA V0209999V001019999999Y0099001N1+00001-00201999999ADDMA1102811999999REMMET059METAR EDMA 021620Z VRB02KT CAVOK 00/M02 Q1028 RMK ATIS CHA;
0095108520999992013010216504+48433+010933FM-15+0477EDMA V0202201N001519999999Y0099001N1+00001-00101999999ADDMA1102811999999REMMET068METAR EDMA 021650Z 22003KT 170V260 CAVOK M00/M01 Q1028 RMK ATIS DEL;
0086108520999992013010217204+48433+010933FM-15+0477EDMA V0202301N002119999999Y0099001N1+00001-00201999999ADDMA1102811999999REMMET059METAR EDMA 021720Z 23004KT CAVOK 00/M02 Q1028 RMK ATIS ECH;
0087108520999992013010217504+48433+010933FM-15+0477EDMA V0209999V000519999999Y0099001N1-00101-00201999999ADDMA1102911999999REMMET060METAR EDMA 021750Z VRB01KT CAVOK M01/M02 Q1029 RMK ATIS FOX;
0087108520999992013010218204+48433+010933FM-15+0477EDMA V0200901N001519999999Y0099001N1-00101-00201999999ADDMA1102911999999REMMET060METAR EDMA 021820Z 09003KT CAVOK M01/M02 Q1029 RMK ATIS GOL;
0087108520999992013010218504+48433+010933FM-15+0477EDMA V0201401N001019999999Y0099001N1-00201-00201999999ADDMA1103011999999REMMET060METAR EDMA 021850Z 14002KT CAVOK M02/M02 Q1030 RMK ATIS HOT;
0087108520999992013010219204+48433+010933FM-15+0477EDMA V0201201N001019999999Y0099001N1-00201-00301999999ADDMA1103011999999REMMET060METAR EDMA 021920Z 12002KT CAVOK M02/M03 Q1030 RMK ATIS IND;
0087108520999992013010219504+48433+010933FM-15+0477EDMA V0201501N001519999999Y0099001N1-00201-00201999999ADDMA1103011999999REMMET060METAR EDMA 021950Z 15003KT CAVOK M02/M02 Q1030 RMK ATIS JUL;
0101108520999992013010220204+48433+010933AUTO +0477EDMA V0201501N002112200019N0021001N1-00101-00101999999ADDMA1103011999999REMMET074METAR EDMA 022020Z AUTO 15004KT 2100NDV ////// M01/M01 Q1030 RMK ATIS KIL;
0101108520999992013010220504+48433+010933AUTO +0477EDMA V0201501N002112200019N0021001N1-00101-00101999999ADDMA1103011999999REMMET074METAR EDMA 022050Z AUTO 15004KT 2100NDV ////// M01/M01 Q1030 RMK ATIS LIM;
0101108520999992013010221204+48433+010933AUTO +0477EDMA V0209999V000512200019N0021001N1-00101-00101999999ADDMA1103121999999REMMET074METAR EDMA 022120Z AUTO VRB01KT 2100NDV ////// M01/M01 Q1031 RMK ATIS MIK;
0101108520999992013010221504+48433+010933AUTO +0477EDMA V0201601N001012200019N0021001N1-00201-00201999999ADDMA1103121999999REMMET074METAR EDMA 022150Z AUTO 16002KT 2100NDV ////// M02/M02 Q1031 RMK ATIS NOV;
0109108520999992013010222204+48433+010933AUTO +0477EDMA V0201901N001512200019N0021001N1-00201-00201999999ADDMA1103121999999REMMET082METAR EDMA 022220Z AUTO 19003KT 150V210 2100NDV ////// M02/M02 Q1031 RMK ATIS OSC;
0101108520999992013010222504+48433+010933AUTO +0477EDMA V0201501N002112200019N0021001N1-00201-00201999999ADDMA1103121999999REMMET074METAR EDMA 022250Z AUTO 15004KT 2100NDV ////// M02/M02 Q1031 RMK ATIS PAP;
0101108520999992013010223204+48433+010933AUTO +0477EDMA V0201601N002612200019N0021001N1-00201-00201999999ADDMA1103121999999REMMET074METAR EDMA 022320Z AUTO 16005KT 2100NDV ////// M02/M02 Q1031 RMK ATIS QUE;
0101108520999992013010223504+48433+010933AUTO +0477EDMA V0201601N001512200019N0021001N1-00301-00301999999ADDMA1103121999999REMMET074METAR EDMA 022350Z AUTO 16003KT 2100NDV ////// M03/M03 Q1031 RMK ATIS ROM;
0101108520999992013010300204+48433+010933AUTO +0477EDMA V0201501N002112200019N0021001N1-00201-00201999999ADDMA1103121999999REMMET074METAR EDMA 030020Z AUTO 15004KT 2100NDV ////// M02/M02 Q1031 RMK ATIS SIE;
0101108520999992013010300504+48433+010933AUTO +0477EDMA V0201601N002112200019N0021001N1-00201-00201999999ADDMA1103121999999REMMET074METAR EDMA 030050Z AUTO 16004KT 2100NDV ////// M02/M02 Q1031 RMK ATIS TAN;
0101108520999992013010301204+48433+010933AUTO +0477EDMA V0201501N001512200019N0021001N1-00201-00201999999ADDMA1103181999999REMMET074METAR EDMA 030120Z AUTO 15003KT 2100NDV ////// M02/M02 Q1032 RMK ATIS UNI;
0101108520999992013010301504+48433+010933AUTO +0477EDMA V0201601N002612200019N0021001N1-00301-00301999999ADDMA1103181999999REMMET074METAR EDMA 030150Z AUTO 16005KT 2100NDV ////// M03/M03 Q1032 RMK ATIS VIC;
0101108520999992013010302204+48433+010933AUTO +0477EDMA V0201401N002112200019N0021001N1-00301-00301999999ADDMA1103181999999REMMET074METAR EDMA 030220Z AUTO 14004KT 2100NDV ////// M03/M03 Q1032 RMK ATIS WHI;
0101108520999992013010302504+48433+010933AUTO +0477EDMA V0201401N001512200019N0021001N1-00301-00301999999ADDMA1103181999999REMMET074METAR EDMA 030250Z AUTO 14003KT 2100NDV ////// M03/M03 Q1032 RMK ATIS X-R;
0101108520999992013010303204+48433+010933AUTO +0477EDMA V0201601N001012200019N0021001N1-00301-00301999999ADDMA1103181999999REMMET074METAR EDMA 030320Z AUTO 16002KT 2100NDV ////// M03/M03 Q1032 RMK ATIS YAN;
0101108520999992013010303504+48433+010933AUTO +0477EDMA V0201501N002112200019N0021001N1-00201-00301999999ADDMA1103181999999REMMET074METAR EDMA 030350Z AUTO 15004KT 2100NDV ////// M02/M03 Q1032 RMK ATIS ZUL;
0101108520999992013010304204+48433+010933AUTO +0477EDMA V0201701N002112200019N0021001N1-00201-00201999999ADDMA1103291999999REMMET074METAR EDMA 030420Z AUTO 17004KT 2100NDV ////// M02/M02 Q1033 RMK ATIS ALF;
0101108520999992013010304504+48433+010933AUTO +0477EDMA V0201801N002112200019N0021001N1-00101-00101999999ADDMA1103291999999REMMET074METAR EDMA 030450Z AUTO 18004KT 2100NDV ////// M01/M01 Q1033 RMK ATIS BRA;
0095108520999992013010305204+48433+010933FM-15+0477EDMA V0201801N002619999999Y0099001N1-00101-00101999999ADDMA1103181999999REMMET068METAR EDMA 030520Z 18005KT 140V220 CAVOK M01/M01 Q1032 RMK ATIS CHA;
0087108520999992013010305504+48433+010933FM-15+0477EDMA V0201801N002119999999Y0099001N1+00001-00101999999ADDMA1103181999999REMMET060METAR EDMA 030550Z 18004KT CAVOK M00/M01 Q1032 RMK ATIS DEL;
0086108520999992013010306204+48433+010933FM-15+0477EDMA V0202201N001519999999Y0099001N1+00001-00101999999ADDMA1103291999999REMMET059METAR EDMA 030620Z 22003KT CAVOK 00/M01 Q1033 RMK ATIS ECH;
0073108520999992013010306504+48433+010933FM-15+0477EDMA V0202301N003119999999Y0099001N1+00101-00101999999ADDMA1103291999999REMMET046METAR EDMA 030650Z 23006KT CAVOK 01/M01 Q1033;
0125108520999992013010307204+48433+010933FM-15+0477EDMA V0202201N004610180019N0112651N1+00101-00101999999ADDGF107991999999999999999999MA1103291999999REMMET072METAR EDMA 030720Z 22009KT 9999 FEW041 BKN064 01/M01 Q1033 RMK ATIS GOL;
0118108520999992013010307504+48433+010933FM-15+0477EDMA V0202401N004110138019N0112651N1+00101+00001999999ADDGF107991999999999999999999MA1103291999999REMMET065METAR EDMA 030750Z 24008KT 9999 BKN046 01/M00 Q1033 RMK ATIS HOT;
0125108520999992013010308204+48433+010933FM-15+0477EDMA V0202401N005110210019N0112651N1+00101+00001999999ADDGF107991999999999999999999MA1103291999999REMMET072METAR EDMA 030820Z 24010KT 9999 SCT047 BKN071 01/M00 Q1033 RMK ATIS IND;
0124108520999992013010308504+48433+010933FM-15+0477EDMA V0202301N007210240019N0112651N1+00201+00001999999ADDGF107991999999999999999999MA1103291999999REMMET071METAR EDMA 030850Z 23014KT 9999 SCT047 BKN080 02/00 Q1033 RMK ATIS JUL;
0134108520999992013010309204+48433+010933FM-15+0477EDMA V0202501N004610141019N0112651N1+00201+00001999999ADDGF107991999999999999999999MA1103391999999MW1611REMMET075METAR EDMA 030920Z 25009KT 9999 -RA FEW031 BKN047 02/00 Q1034 RMK ATIS KIL;
0135108520999992013010309504+48433+010933FM-15+0477EDMA V0202501N005110135019N0112651N1+00201+00001999999ADDGF107991999999999999999999MA1103391999999MW1511REMMET076METAR EDMA 030950Z 25010KT 9999 -DZ FEW026 BKN045 02/M00 Q1034 RMK ATIS LIM;
0127108520999992013010310204+48433+010933FM-15+0477EDMA V0202501N004610084019N0112651N1+00201+00001999999ADDGF107991999999999999999999MA1103391999999MW1511REMMET068METAR EDMA 031020Z 25009KT 9999 -DZ BKN028 02/00 Q1034 RMK ATIS MIK;
0134108520999992013010310504+48433+010933FM-15+0477EDMA V0202301N005110087019N0112651N1+00201+00001999999ADDGF107991999999999999999999MA1103391999999MW1611REMMET075METAR EDMA 031050Z 23010KT 9999 -RA FEW021 BKN029 02/00 Q1034 RMK ATIS NOV;
0134108520999992013010311204+48433+010933FM-15+0477EDMA V0202401N005710090019N0112651N1+00201+00001999999ADDGF107991999999999999999999MA1103391999999MW1611REMMET075METAR EDMA 031120Z 24011KT 9999 -RA FEW024 BKN030 02/00 Q1034 RMK ATIS OSC;
0134108520999992013010311504+48433+010933FM-15+0477EDMA V0202501N005110090019N0112651N1+00201+00101999999ADDGF107991999999999999999999MA1103391999999MW1511REMMET075METAR EDMA 031150Z 25010KT 9999 -DZ SCT020 BKN030 02/01 Q1034 RMK ATIS PAP;
0129108520999992013010312204+48433+010933FM-15+0477EDMA V0202501N005110075019N0112651N1+00201+00101999999ADDGF107991999999999999999999MA1103391999999REMMET076METAR EDMA 031220Z 25010KT 9999 FEW018 BKN025 02/01 Q1034 RERA RMK ATIS QUE;
0124108520999992013010312504+48433+010933FM-15+0477EDMA V0202401N006210066019N0112651N1+00201+00101999999ADDGF107991999999999999999999MA1103291999999REMMET071METAR EDMA 031250Z 24012KT 9999 FEW018 BKN022 02/01 Q1033 RMK ATIS ROM;
0124108520999992013010313204+48433+010933FM-15+0477EDMA V0202401N005710066019N0112651N1+00301+00101999999ADDGF107991999999999999999999MA1103391999999REMMET071METAR EDMA 031320Z 24011KT 9999 FEW018 BKN022 03/01 Q1034 RMK ATIS SIE;
0124108520999992013010313504+48433+010933FM-15+0477EDMA V0202301N006210054019N0112651N1+00301+00201999999ADDGF108991999999999999999999MA1103291999999REMMET071METAR EDMA 031350Z 23012KT 9999 SCT014 OVC018 03/02 Q1033 RMK ATIS TAN;
0117108520999992013010314204+48433+010933FM-15+0477EDMA V0202301N005710042019N0112651N1+00301+00201999999ADDGF108991999999999999999999MA1103391999999REMMET064METAR EDMA 031420Z 23011KT 9999 OVC014 03/02 Q1034 RMK ATIS UNI;
0124108520999992013010314504+48433+010933FM-15+0477EDMA V0202401N004610030019N0112651N1+00301+00201999999ADDGF108991999999999999999999MA1103391999999REMMET071METAR EDMA 031450Z 24009KT 9999 BKN010 OVC011 03/02 Q1034 RMK ATIS VIC;
0133108520999992013010315204+48433+010933FM-15+0477EDMA V0202401N004110024019N0112651N1+00301+00201999999ADDGF108991999999999999999999MA1103391999999MW1631REMMET074METAR EDMA 031520Z 24008KT 9999 RA BKN008 OVC011 03/02 Q1034 RMK ATIS WHI;
0126108520999992013010315504+48433+010933FM-15+0477EDMA V0202401N004610024019N0070001N1+00301+00301999999ADDGF108991999999999999999999MA1103491999999MW1631REMMET067METAR EDMA 031550Z 24009KT 7000 RA OVC008 03/03 Q1035 RMK ATIS X-R;
0132108520999992013010316204+48433+010933FM-15+0477EDMA V0202101N003610024019N0060001N1+00301+00301999999ADDGF108991999999999999999999MA1103391999999MW1511REMMET073METAR EDMA 031620Z 21007KT 6000 -DZ OVC008 03/03 Q1034 RERA RMK ATIS YAN;
0124108520999992013010316504+48433+010933FM-15+0477EDMA V0202301N004110024019N0060001N1+00301+00301999999ADDGF108991999999999999999999MA1103391999999REMMET071METAR EDMA 031650Z 23008KT 6000 BKN008 OVC012 03/03 Q1034 RMK ATIS ZUL;
0124108520999992013010317204+48433+010933FM-15+0477EDMA V0202301N004610024019N0060001N1+00301+00301999999ADDGF108991999999999999999999MA1103391999999REMMET071METAR EDMA 031720Z 23009KT 6000 BKN008 OVC012 03/03 Q1034 RMK ATIS ALF;
0117108520999992013010317504+48433+010933FM-15+0477EDMA V0202501N004610036019N0112651N1+00401+00301999999ADDGF108991999999999999999999MA1103491999999REMMET064METAR EDMA 031750Z 25009KT 9999 OVC012 04/03 Q1035 RMK ATIS BRA;
0125108520999992013010318204+48433+010933FM-15+0477EDMA V0202401N005110036019N0112651N1+00401+00301999999ADDGF108991999999999999999999MA1103491999999REMMET072METAR EDMA 031820Z 24010KT 200V270 9999 OVC012 04/03 Q1035 RMK ATIS CHA;
0125108520999992013010318504+48433+010933FM-15+0477EDMA V0202301N005110039019N0112651N1+00401+00301999999ADDGF108991999999999999999999MA1103491999999REMMET072METAR EDMA 031850Z 23010KT 200V260 9999 OVC013 04/03 Q1035 RMK ATIS DEL;
0117108520999992013010319204+48433+010933FM-15+0477EDMA V0202501N006210039019N0112651N1+00401+00301999999ADDGF108991999999999999999999MA1103491999999REMMET064METAR EDMA 031920Z 25012KT 9999 OVC013 04/03 Q1035 RMK ATIS ECH;
0125108520999992013010319504+48433+010933FM-15+0477EDMA V0202501N004610042019N0112651N1+00401+00301999999ADDGF108991999999999999999999MA1103491999999REMMET072METAR EDMA 031950Z 25009KT 220V290 9999 OVC014 04/03 Q1035 RMK ATIS FOX;
0127108520999992013010320204+48433+010933FM-15+0477EDMA V0202501N006210042019N0112651N1+00501+00301999999ADDGF108991999999999999999999MA1103491999999MW1611REMMET068METAR EDMA 032020Z 25012KT 9999 -RA OVC014 05/03 Q1035 RMK ATIS GOL;
0104108520999992013010320504+48433+010933AUTO +0477EDMA V0202601N005712200019N0021001N1+00501+00301999999ADDMA1103491999999REMMET077METAR EDMA 032050Z AUTO 26011KT 2100NDV ////// 05/03 Q1035 RERA RMK ATIS HOT;
0104108520999992013010321204+48433+010933AUTO +0477EDMA V0202601N004612200019N0021001N1+00501+00401999999ADDMA1103491999999REMMET077METAR EDMA 032120Z AUTO 26009KT 2100NDV ////// 05/04 Q1035 REDZ RMK ATIS IND;
0099108520999992013010321504+48433+010933AUTO +0477EDMA V0202601N004112200019N0021001N1+00501+00401999999ADDMA1103491999999REMMET072METAR EDMA 032150Z AUTO 26008KT 2100NDV ////// 05/04 Q1035 RMK ATIS JUL;
0099108520999992013010322204+48433+010933AUTO +0477EDMA V0202601N004112200019N0021001N1+00501+00401999999ADDMA1103491999999REMMET072METAR EDMA 032220Z AUTO 26008KT 2100NDV ////// 05/04 Q1035 RMK ATIS KIL;
0099108520999992013010322504+48433+010933AUTO +0477EDMA V0202601N004112200019N0021001N1+00501+00401999999ADDMA1103491999999REMMET072METAR EDMA 032250Z AUTO 26008KT 2100NDV ////// 05/04 Q1035 RMK ATIS LIM;
0099108520999992013010323204+48433+010933AUTO +0477EDMA V0202601N004112200019N0021001N1+00501+00401999999ADDMA1103491999999REMMET072METAR EDMA 032320Z AUTO 26008KT 2100NDV ////// 05/04 Q1035 RMK ATIS MIK;
0109108520999992013010323504+48433+010933AUTO +0477EDMA V0202601N004112200019N0021001N1+00501+00401999999ADDAW1531MA1103491999999REMMET076METAR EDMA 032350Z AUTO 26008KT 2100NDV +DZ ////// 05/04 Q1035 RMK ATIS NOV;
0091108520999992013010400204+48433+010933AUTO +0477EDMA V0202601N004112200019N0021001N1+00401+00401999999ADDMA1103491999999REMMET064METAR EDMA 040020Z AUTO 26008KT 2100NDV ////// 04/04 Q1035 REDZ;
0099108520999992013010400504+48433+010933AUTO +0477EDMA V0202501N004112200019N0021001N1+00401+00401999999ADDMA1103491999999REMMET072METAR EDMA 040050Z AUTO 25008KT 2100NDV ////// 04/04 Q1035 RMK ATIS PAP;
0099108520999992013010401204+48433+010933AUTO +0477EDMA V0202501N005712200019N0021001N1+00501+00401999999ADDMA1103491999999REMMET072METAR EDMA 040120Z AUTO 25011KT 2100NDV ////// 05/04 Q1035 RMK ATIS QUE;
0108108520999992013010401504+48433+010933AUTO +0477EDMA V0202501N006212200019N0021001N1+00401+00401999999ADDAW1521MA1103491999999REMMET075METAR EDMA 040150Z AUTO 25012KT 2100NDV DZ ////// 04/04 Q1035 RMK ATIS ROM;
0104108520999992013010402204+48433+010933AUTO +0477EDMA V0202501N006212200019N0021001N1+00401+00401999999ADDMA1103491999999REMMET077METAR EDMA 040220Z AUTO 25012KT 2100NDV ////// 04/04 Q1035 REDZ RMK ATIS SIE;
0099108520999992013010402504+48433+010933AUTO +0477EDMA V0202501N005112200019N0021001N1+00401+00401999999ADDMA1103491999999REMMET072METAR EDMA 040250Z AUTO 25010KT 2100NDV ////// 04/04 Q1035 RMK ATIS TAN;
0099108520999992013010403204+48433+010933AUTO +0477EDMA V0202501N005112200019N0021001N1+00501+00401999999ADDMA1103491999999REMMET072METAR EDMA 040320Z AUTO 25010KT 2100NDV ////// 05/04 Q1035 RMK ATIS UNI;
0099108520999992013010403504+48433+010933AUTO +0477EDMA V0202501N005112200019N0021001N1+00501+00401999999ADDMA1103491999999REMMET072METAR EDMA 040350Z AUTO 25010KT 2100NDV ////// 05/04 Q1035 RMK ATIS VIC;
0109108520999992013010404204+48433+010933AUTO +0477EDMA V0202501N004112200019N0021001N1+00501+00401999999ADDAW1611MA1103491999999REMMET076METAR EDMA 040420Z AUTO 25008KT 2100NDV -RA ////// 05/04 Q1035 RMK ATIS WHI;
0099108520999992013010404504+48433+010933AUTO +0477EDMA V0202301N003612200019N0021001N1+00501+00401999999ADDMA1103491999999REMMET072METAR EDMA 040450Z AUTO 23007KT 2100NDV ////// 05/04 Q1035 RMK ATIS X-R;
0099108520999992013010405204+48433+010933AUTO +0477EDMA V0202401N003612200019N0021001N1+00501+00401999999ADDMA1103491999999REMMET072METAR EDMA 040520Z AUTO 24007KT 2100NDV ////// 05/04 Q1035 RMK ATIS YAN;
0117108520999992013010405504+48433+010933FM-15+0477EDMA V0202401N003610033019N0112651N1+00501+00501999999ADDGF108991999999999999999999MA1103491999999REMMET064METAR EDMA 040550Z 24007KT 9999 OVC011 05/05 Q1035 RMK ATIS ZUL;
0117108520999992013010406204+48433+010933FM-15+0477EDMA V0202301N003110033019N0112651N1+00501+00501999999ADDGF108991999999999999999999MA1103491999999REMMET064METAR EDMA 040620Z 23006KT 9999 OVC011 05/05 Q1035 RMK ATIS ALF;
0117108520999992013010406504+48433+010933FM-15+0477EDMA V0202401N005110036019N0112651N1+00501+00501999999ADDGF108991999999999999999999MA1103491999999REMMET064METAR EDMA 040650Z 24010KT 9999 OVC012 05/05 Q1035 RMK ATIS BRA;
0117108520999992013010407204+48433+010933FM-15+0477EDMA V0202501N004610036019N0112651N1+00501+00501999999ADDGF108991999999999999999999MA1103591999999REMMET064METAR EDMA 040720Z 25009KT 9999 OVC012 05/05 Q1036 RMK ATIS CHA;
0124108520999992013010407504+48433+010933FM-15+0477EDMA V0202501N004610036019N0112651N1+00601+00501999999ADDGF108991999999999999999999MA1103591999999REMMET071METAR EDMA 040750Z 25009KT 9999 BKN012 OVC019 06/05 Q1036 RMK ATIS DEL;
0124108520999992013010408204+48433+010933FM-15+0477EDMA V0202401N005710042019N0112651N1+00501+00501999999ADDGF108991999999999999999999MA1103491999999REMMET071METAR EDMA 040820Z 24011KT 9999 BKN014 OVC030 05/05 Q1035 RMK ATIS ECH;
0124108520999992013010408504+48433+010933FM-15+0477EDMA V0202501N004610042019N0112651N1+00601+00501999999ADDGF108991999999999999999999MA1103591999999REMMET071METAR EDMA 040850Z 25009KT 9999 BKN014 OVC027 06/05 Q1036 RMK ATIS FOX;
0127108520999992013010409204+48433+010933FM-15+0477EDMA V0202501N004610039019N0060001N1+00601+00501999999ADDGF108991999999999999999999MA1103591999999MW1611REMMET068METAR EDMA 040920Z 25009KT 6000 -RA OVC013 06/05 Q1036 RMK ATIS GOL;
0127108520999992013010409504+48433+010933FM-15+0477EDMA V0202601N004110042019N0045001N1+00501+00501999999ADDGF108991999999999999999999MA1103591999999MW1611REMMET068METAR EDMA 040950Z 26008KT 4500 -RA OVC014 05/05 Q1036 RMK ATIS HOT;
0127108520999992013010410204+48433+010933FM-15+0477EDMA V0202501N003110042019N0045001N1+00501+00501999999ADDGF108991999999999999999999MA1103591999999MW1611REMMET068METAR EDMA 041020Z 25006KT 4500 -RA OVC014 05/05 Q1036 RMK ATIS IND;
0127108520999992013010410504+48433+010933FM-15+0477EDMA V0202401N004610057019N0045001N1+00601+00601999999ADDGF108991999999999999999999MA1103491999999MW1611REMMET068METAR EDMA 041050Z 24009KT 4500 -RA OVC019 06/06 Q1035 RMK ATIS JUL;
0133108520999992013010411204+48433+010933FM-15+0477EDMA V0202401N005110057019N0060001N1+00601+00601999999ADDGF108991999999999999999999MA1103491999999MW1531REMMET074METAR EDMA 041120Z 24010KT 6000 DZ FEW008 OVC019 06/06 Q1035 RMK ATIS KIL;
0133108520999992013010411504+48433+010933FM-15+0477EDMA V0202401N004610057019N0060001N1+00601+00601999999ADDGF108991999999999999999999MA1103491999999MW1531REMMET074METAR EDMA 041150Z 24009KT 6000 DZ SCT007 OVC019 06/06 Q1035 RMK ATIS LIM;
0134108520999992013010412204+48433+010933FM-15+0477EDMA V0202501N004610060019N0060001N1+00601+00601999999ADDGF108991999999999999999999MA1103391999999MW1511REMMET075METAR EDMA 041220Z 25009KT 6000 -DZ SCT005 OVC020 06/06 Q1034 RMK ATIS MIK;
0134108520999992013010412404+48433+010933FM-16+0477EDMA V0202501N005110015019N0060001N1+00701+00701999999ADDGF108991999999999999999999MA1103391999999MW1511REMMET075SPECI EDMA 041240Z 25010KT 6000 -DZ BKN005 OVC020 07/07 Q1034 RMK ATIS NOV;
0134108520999992013010412504+48433+010933FM-15+0477EDMA V0202501N005110018019N0060001N1+00701+00701999999ADDGF108991999999999999999999MA1103391999999MW1511REMMET075METAR EDMA 041250Z 25010KT 6000 -DZ BKN006 OVC020 07/07 Q1034 RMK ATIS OSC;
0133108520999992013010412594+48433+010933FM-16+0477EDMA V0202501N004610015019N0035001N1+00701+00701999999ADDGF108991999999999999999999MA1103391999999MW1531REMMET074SPECI EDMA 041259Z 25009KT 3500 DZ BKN005 OVC014 07/07 Q1034 RMK ATIS PAP;
0134108520999992013010413204+48433+010933FM-15+0477EDMA V0202501N005110018019N0035001N1+00701+00701999999ADDGF108991999999999999999999MA1103391999999MW1511REMMET075METAR EDMA 041320Z 25010KT 3500 -DZ BKN006 OVC014 07/07 Q1034 RMK ATIS QUE;
0127108520999992013010413504+48433+010933FM-15+0477EDMA V0202501N005110018019N0030001N1+00701+00701999999ADDGF108991999999999999999999MA1103391999999MW1511REMMET068METAR EDMA 041350Z 25010KT 3000 -DZ OVC006 07/07 Q1034 RMK ATIS ROM;
0133108520999992013010414204+48433+010933FM-15+0477EDMA V0202601N004110018019N0025001N1+00701+00701999999ADDGF108991999999999999999999MA1103391999999MW1531REMMET074METAR EDMA 041420Z 26008KT 2500 DZ BKN006 OVC007 07/07 Q1034 RMK ATIS SIE;
0138108520999992013010414504+48433+010933FM-15+0477EDMA V0202601N004610021019N0070001N1+00701+00701999999ADDGF108991999999999999999999MA1103291999999MW1631REMMET079METAR EDMA 041450Z 26009KT 7000 RA BKN007 OVC026 07/07 Q1033 REDZ RMK ATIS TAN;
0127108520999992013010415204+48433+010933FM-15+0477EDMA V0202501N005710024019N0090001N1+00701+00701999999ADDGF108991999999999999999999MA1103291999999MW1511REMMET068METAR EDMA 041520Z 25011KT 9000 -DZ OVC008 07/07 Q1033 RMK ATIS UNI;
0117108520999992013010415504+48433+010933FM-15+0477EDMA V0202601N004610024019N0090001N1+00701+00701999999ADDGF108991999999999999999999MA1103291999999REMMET064METAR EDMA 041550Z 26009KT 9000 OVC008 07/07 Q1033 RMK ATIS VIC;
0117108520999992013010416204+48433+010933FM-15+0477EDMA V0202701N004610030019N0090001N1+00701+00701999999ADDGF108991999999999999999999MA1103291999999REMMET064METAR EDMA 041620Z 27009KT 9000 OVC010 07/07 Q1033 RMK ATIS WHI;
0117108520999992013010416504+48433+010933FM-15+0477EDMA V0202701N005710030019N0090001N1+00701+00701999999ADDGF108991999999999999999999MA1103291999999REMMET064METAR EDMA 041650Z 27011KT 9000 OVC010 07/07 Q1033 RMK ATIS X-R;
0117108520999992013010417204+48433+010933FM-15+0477EDMA V0202801N005110030019N0090001N1+00701+00701999999ADDGF108991999999999999999999MA1103291999999REMMET064METAR EDMA 041720Z 28010KT 9000 OVC010 07/07 Q1033 RMK ATIS YAN;
0117108520999992013010417504+48433+010933FM-15+0477EDMA V0202801N004110018019N0090001N1+00701+00701999999ADDGF108991999999999999999999MA1103291999999REMMET064METAR EDMA 041750Z 28008KT 9000 OVC006 07/07 Q1033 RMK ATIS ZUL;
0117108520999992013010418204+48433+010933FM-15+0477EDMA V0202601N003610018019N0090001N1+00701+00701999999ADDGF108991999999999999999999MA1103291999999REMMET064METAR EDMA 041820Z 26007KT 9000 OVC006 07/07 Q1033 RMK ATIS ALF;
0126108520999992013010418504+48433+010933FM-15+0477EDMA V0202701N003610018019N0070001N1+00701+00701999999ADDGF108991999999999999999999MA1103181999999MW1531REMMET067METAR EDMA 041850Z 27007KT 7000 DZ OVC006 07/07 Q1032 RMK ATIS BRA;
0127108520999992013010419204+48433+010933FM-15+0477EDMA V0202601N004110018019N0070001N1+00701+00701999999ADDGF108991999999999999999999MA1103181999999MW1611REMMET068METAR EDMA 041920Z 26008KT 7000 -RA OVC006 07/07 Q1032 RMK ATIS CHA;
0127108520999992013010419504+48433+010933FM-15+0477EDMA V0202701N004610018019N0070001N1+00701+00701999999ADDGF108991999999999999999999MA1103181999999MW1611REMMET068METAR EDMA 041950Z 27009KT 7000 -RA OVC006 07/07 Q1032 RMK ATIS DEL;
0132108520999992013010420204+48433+010933FM-15+0477EDMA V0202701N003610018019N0070001N1+00701+00701999999ADDGF108991999999999999999999MA1103181999999MW1611REMMET073METAR EDMA 042020Z 27007KT 7000 -RA OVC006 07/07 Q1032 REDZ RMK ATIS ECH;
0109108520999992013010420504+48433+010933AUTO +0477EDMA V0202801N004612200019N0021001N1+00701+00701999999ADDAW1611MA1103181999999REMMET076METAR EDMA 042050Z AUTO 28009KT 2100NDV -RA ////// 07/07 Q1032 RMK ATIS FOX;
0114108520999992013010421204+48433+010933AUTO +0477EDMA V0202701N006212200019N0021001N1+00701+00701999999ADDAW1611MA1103181999999REMMET081METAR EDMA 042120Z AUTO 27012KT 2100NDV -RA ////// 07/07 Q1032 RERA RMK ATIS GOL;
0099108520999992013010421504+48433+010933AUTO +0477EDMA V0202701N006712200019N0021001N1+00701+00701999999ADDMA1103121999999REMMET072METAR EDMA 042150Z AUTO 27013KT 2100NDV ////// 07/07 Q1031 RMK ATIS HOT;
0099108520999992013010422204+48433+010933AUTO +0477EDMA V0202701N005712200019N0021001N1+00701+00701999999ADDMA1103121999999REMMET072METAR EDMA 042220Z AUTO 27011KT 2100NDV ////// 07/07 Q1031 RMK ATIS IND;
0099108520999992013010422504+48433+010933AUTO +0477EDMA V0202701N005712200019N0021001N1+00701+00701999999ADDMA1103121999999REMMET072METAR EDMA 042250Z AUTO 27011KT 2100NDV ////// 07/07 Q1031 RMK ATIS JUL;
0109108520999992013010423204+48433+010933AUTO +0477EDMA V0202701N007212200019N0021001N1+00801+00701999999ADDAW1511MA1103011999999REMMET076METAR EDMA 042320Z AUTO 27014KT 2100NDV -DZ ////// 08/07 Q1030 RMK ATIS KIL;
0109108520999992013010423504+48433+010933AUTO +0477EDMA V0202801N007212200019N0021001N1+00801+00701999999ADDAW1611MA1103011999999REMMET076METAR EDMA 042350Z AUTO 28014KT 2100NDV -RA ////// 08/07 Q1030 RMK ATIS LIM;
0108108520999992013010500204+48433+010933AUTO +0477EDMA V0202801N006712200019N0021001N1+00701+00701999999ADDAW1621MA1103011999999REMMET075METAR EDMA 050020Z AUTO 28013KT 2100NDV RA ////// 07/07 Q1030 RMK ATIS MIK;
0108108520999992013010500504+48433+010933AUTO +0477EDMA V0202901N006712200019N0021001N1+00701+00701999999ADDAW1621MA1103011999999REMMET075METAR EDMA 050050Z AUTO 29013KT 2100NDV RA ////// 07/07 Q1030 RMK ATIS NOV;
0109108520999992013010501204+48433+010933AUTO +0477EDMA V0202801N007212200019N0021001N1+00701+00701999999ADDAW1611MA1103011999999REMMET076METAR EDMA 050120Z AUTO 28014KT 2100NDV -RA ////// 07/07 Q1030 RMK ATIS OSC;
0109108520999992013010501504+48433+010933AUTO +0477EDMA V0202801N006212200019N0021001N1+00701+00701999999ADDAW1611MA1103011999999REMMET076METAR EDMA 050150Z AUTO 28012KT 2100NDV -RA ////// 07/07 Q1030 RMK ATIS PAP;
0099108520999992013010502204+48433+010933AUTO +0477EDMA V0202701N005712200019N0021001N1+00701+00701999999ADDMA1103011999999REMMET072METAR EDMA 050220Z AUTO 27011KT 2100NDV ////// 07/07 Q1030 RMK ATIS QUE;
0109108520999992013010502504+48433+010933AUTO +0477EDMA V0202701N005712200019N0021001N1+00701+00701999999ADDAW1611MA1103011999999REMMET076METAR EDMA 050250Z AUTO 27011KT 2100NDV -RA ////// 07/07 Q1030 RMK ATIS ROM;
0099108520999992013010503204+48433+010933AUTO +0477EDMA V0202801N005712200019N0021001N1+00701+00701999999ADDMA1103011999999REMMET072METAR EDMA 050320Z AUTO 28011KT 2100NDV ////// 07/07 Q1030 RMK ATIS SIE;
0108108520999992013010503504+48433+010933AUTO +0477EDMA V0202801N005712200019N0021001N1+00701+00601999999ADDAW1621MA1102911999999REMMET075METAR EDMA 050350Z AUTO 28011KT 2100NDV RA ////// 07/06 Q1029 RMK ATIS TAN;
0109108520999992013010504204+48433+010933AUTO +0477EDMA V0202801N006712200019N0021001N1+00701+00601999999ADDAW1611MA1102911999999REMMET076METAR EDMA 050420Z AUTO 28013KT 2100NDV -RA ////// 07/06 Q1029 RMK ATIS UNI;
0109108520999992013010504504+48433+010933AUTO +0477EDMA V0202801N005112200019N0021001N1+00701+00601999999ADDAW1611MA1102911999999REMMET076METAR EDMA 050450Z AUTO 28010KT 2100NDV -RA ////// 07/06 Q1029 RMK ATIS VIC;
0108108520999992013010505204+48433+010933AUTO +0477EDMA V0202901N006212200019N0021001N1+00701+00601999999ADDAW1621MA1102911999999REMMET075METAR EDMA 050520Z AUTO 29012KT 2100NDV RA ////// 07/06 Q1029 RMK ATIS WHI;
0109108520999992013010505504+48433+010933AUTO +0477EDMA V0202901N006712200019N0021001N1+00701+00601999999ADDAW1611MA1103011999999REMMET076METAR EDMA 050550Z AUTO 29013KT 2100NDV -RA ////// 07/06 Q1030 RMK ATIS X-R;
0134108520999992013010506204+48433+010933FM-15+0477EDMA V0202801N007210030019N0112651N1+00701+00601999999ADDGF108991999999999999999999MA1103011999999MW1611REMMET075METAR EDMA 050620Z 28014KT 9999 -RA BKN010 OVC014 07/06 Q1030 RMK ATIS YAN;
0133108520999992013010506504+48433+010933FM-15+0477EDMA V0202801N007210024019N0080001N1+00601+00601999999ADDGF108991999999999999999999MA1103011999999MW1631REMMET074METAR EDMA 050650Z 28014KT 8000 RA BKN008 OVC013 06/06 Q1030 RMK ATIS ZUL;
0139108520999992013010507204+48433+010933FM-15+0477EDMA V0202801N006210024019N0080001N1+00601+00601999999ADDGF108991999999999999999999MA1103011999999MW1611REMMET080METAR EDMA 050720Z 28012KT 8000 -RA BKN008 OVC010 06/06 Q1030 RERA RMK ATIS ALF;
0134108520999992013010507504+48433+010933FM-15+0477EDMA V0202801N006210027019N0112651N1+00601+00601999999ADDGF108991999999999999999999MA1103011999999MW1611REMMET075METAR EDMA 050750Z 28012KT 9999 -RA BKN009 OVC012 06/06 Q1030 RMK ATIS BRA;
0134108520999992013010508204+48433+010933FM-15+0477EDMA V0202801N005710024019N0080001N1+00601+00601999999ADDGF108991999999999999999999MA1103011999999MW1611REMMET075METAR EDMA 050820Z 28011KT 8000 -RA BKN008 OVC010 06/06 Q1030 RMK ATIS CHA;
0138108520999992013010508504+48433+010933FM-15+0477EDMA V0202801N005710021019N0070001N1+00601+00601999999ADDGF108991999999999999999999MA1103011999999MW1631REMMET079METAR EDMA 050850Z 28011KT 7000 RA BKN007 OVC010 06/06 Q1030 REDZ RMK ATIS DEL;
0134108520999992013010509204+48433+010933FM-15+0477EDMA V0202801N006710027019N0112651N1+00601+00601999999ADDGF108991999999999999999999MA1103011999999MW1611REMMET075METAR EDMA 050920Z 28013KT 9999 -RA BKN009 OVC013 06/06 Q1030 RMK ATIS ECH;
0134108520999992013010509504+48433+010933FM-15+0477EDMA V0202801N005710024019N0112651N1+00601+00601999999ADDGF108991999999999999999999MA1103011999999MW1511REMMET075METAR EDMA 050950Z 28011KT 9999 -DZ BKN008 OVC012 06/06 Q1030 RMK ATIS FOX;
0134108520999992013010510204+48433+010933FM-15+0477EDMA V0202801N005710030019N0090001N1+00601+00601999999ADDGF108991999999999999999999MA1103121999999MW1511REMMET075METAR EDMA 051020Z 28011KT 9000 -DZ BKN010 OVC012 06/06 Q1031 RMK ATIS GOL;
0134108520999992013010510504+48433+010933FM-15+0477EDMA V0202801N006210027019N0090001N1+00601+00601999999ADDGF108991999999999999999999MA1103011999999MW1511REMMET075METAR EDMA 051050Z 28012KT 9000 -DZ BKN009 OVC013 06/06 Q1030 RMK ATIS HOT;
0124108520999992013010511204+48433+010933FM-15+0477EDMA V0202801N006710024019N0090001N1+00601+00601999999ADDGF108991999999999999999999MA1103011999999REMMET071METAR EDMA 051120Z 28013KT 9000 BKN008 OVC012 06/06 Q1030 RMK ATIS IND;
0124108520999992013010511504+48433+010933FM-15+0477EDMA V0202801N00621003001CN0112651N1+00601+00601999999ADDGF108991999999999999999999MA1103001999999REMMET071METAR EDMA 051150Z 28012KT 9999 BKO007 OVC010 06/06 Q1030 RMK ATIS JUL;
0117108520999992013010512204+48433+010933FM-15+0477EDMA V0202801N006210021019N0112651N1+00601+00601999999ADDGF108991999999999999999999MA1103011999999REMMET064METAR EDMA 051220Z 28012KT 9999 OVC007 06/06 Q1030 RMK ATIS KIL;
0126108520999992013010512504+48433+010933FM-15+0477EDMA V0202901N006210024019N0090001N1+00601+00601999999ADDGF108991999999999999999999MA1103011999999MW1631REMMET067METAR EDMA 051250Z 29012KT 9000 RA OVC008 06/06 Q1030 RMK ATIS LIM;
0126108520999992013010513204+48433+010933FM-15+0477EDMA V0202901N005710018019N0090001N1+00601+00501999999ADDGF108991999999999999999999MA1103011999999MW1631REMMET067METAR EDMA 051320Z 29011KT 9000 RA OVC006 06/05 Q1030 RMK ATIS MIK;
0126108520999992013010513504+48433+010933FM-15+0477EDMA V0202801N005710024019N0080001N1+00601+00501999999ADDGF108991999999999999999999MA1103011999999MW1631REMMET067METAR EDMA 051350Z 28011KT 8000 RA OVC008 06/05 Q1030 RMK ATIS NOV;
0126108520999992013010514204+48433+010933FM-15+0477EDMA V0202801N005110024019N0080001N1+00601+00501999999ADDGF108991999999999999999999MA1103011999999MW1631REMMET067METAR EDMA 051420Z 28010KT 8000 RA OVC008 06/05 Q1030 RMK ATIS OSC;
0131108520999992013010514504+48433+010933FM-15+0477EDMA V0202701N004610024019N0080001N1+00501+00501999999ADDGF108991999999999999999999MA1103011999999MW1631REMMET072METAR EDMA 051450Z 27009KT 8000 RA OVC008 05/05 Q1030 RERA RMK ATIS PAP;
0126108520999992013010515204+48433+010933FM-15+0477EDMA V0202701N004110024019N0070001N1+00501+00501999999ADDGF108991999999999999999999MA1103121999999MW1631REMMET067METAR EDMA 051520Z 27008KT 7000 RA OVC008 05/05 Q1031 RMK ATIS QUE;
0126108520999992013010515504+48433+010933FM-15+0477EDMA V0202601N004110024019N0070001N1+00501+00501999999ADDGF108991999999999999999999MA1103121999999MW1631REMMET067METAR EDMA 051550Z 26008KT 7000 RA OVC008 05/05 Q1031 RMK ATIS ROM;
0126108520999992013010516204+48433+010933FM-15+0477EDMA V0202501N004110030019N0090001N1+00501+00501999999ADDGF108991999999999999999999MA1103121999999MW1631REMMET067METAR EDMA 051620Z 25008KT 9000 RA OVC010 05/05 Q1031 RMK ATIS SIE;
0126108520999992013010516504+48433+010933FM-15+0477EDMA V0202501N004110021019N0080001N1+00501+00501999999ADDGF108991999999999999999999MA1103121999999MW1631REMMET067METAR EDMA 051650Z 25008KT 8000 RA OVC007 05/05 Q1031 RMK ATIS TAN;
0126108520999992013010517204+48433+010933FM-15+0477EDMA V0202501N004110021019N0080001N1+00501+00501999999ADDGF108991999999999999999999MA1103121999999MW1631REMMET067METAR EDMA 051720Z 25008KT 8000 RA OVC007 05/05 Q1031 RMK ATIS UNI;
0124108520999992013010517504+48433+010933FM-15+0477EDMA V0202501N004610063019N0112651N1+00501+00501999999ADDGF108991999999999999999999MA1103121999999REMMET071METAR EDMA 051750Z 25009KT 9999 SCT014 OVC021 05/05 Q1031 RMK ATIS VIC;
0126108520999992013010518204+48433+010933FM-15+0477EDMA V0202501N004110030019N0112651N1+00501+00501999999ADDGF108991999999999999999999MA1103121999999MW1631REMMET067METAR EDMA 051820Z 25008KT 9999 RA OVC010 05/05 Q1031 RMK ATIS WHI;
0126108520999992013010518504+48433+010933FM-15+0477EDMA V0202501N003610030019N0112651N1+00501+00501999999ADDGF108991999999999999999999MA1103121999999MW1631REMMET067METAR EDMA 051850Z 25007KT 9999 RA OVC010 05/05 Q1031 RMK ATIS X-R;
0126108520999992013010519204+48433+010933FM-15+0477EDMA V0202501N004110042019N0112651N1+00501+00501999999ADDGF108991999999999999999999MA1103121999999MW1631REMMET067METAR EDMA 051920Z 25008KT 9999 RA OVC014 05/05 Q1031 RMK ATIS YAN;
0133108520999992013010519504+48433+010933FM-15+0477EDMA V0202501N004110042019N0112651N1+00501+00501999999ADDGF108991999999999999999999MA1103121999999MW1631REMMET074METAR EDMA 051950Z 25008KT 9999 RA SCT006 OVC014 05/05 Q1031 RMK ATIS ZUL;
0108108520999992013010520204+48433+010933AUTO +0477EDMA V0202501N004112200019N0021001N1+00501+00501999999ADDAW1621MA1103121999999REMMET075METAR EDMA 052020Z AUTO 25008KT 2100NDV RA ////// 05/05 Q1031 RMK ATIS ALF;
0108108520999992013010520504+48433+010933AUTO +0477EDMA V0202601N004112200019N0021001N1+00501+00501999999ADDAW1621MA1103121999999REMMET075METAR EDMA 052050Z AUTO 26008KT 2100NDV RA ////// 05/05 Q1031 RMK ATIS BRA;
0108108520999992013010521204+48433+010933AUTO +0477EDMA V0202601N004612200019N0021001N1+00501+00501999999ADDAW1621MA1103121999999REMMET075METAR EDMA 052120Z AUTO 26009KT 2100NDV RA ////// 05/05 Q1031 RMK ATIS CHA;
0108108520999992013010521504+48433+010933AUTO +0477EDMA V0202501N003612200019N0021001N1+00501+00501999999ADDAW1621MA1103121999999REMMET075METAR EDMA 052150Z AUTO 25007KT 2100NDV RA ////// 05/05 Q1031 RMK ATIS DEL;
0108108520999992013010522204+48433+010933AUTO +0477EDMA V0202601N004112200019N0021001N1+00501+00501999999ADDAW1621MA1103121999999REMMET075METAR EDMA 052220Z AUTO 26008KT 2100NDV RA ////// 05/05 Q1031 RMK ATIS ECH;
0104108520999992013010522504+48433+010933AUTO +0477EDMA V0202601N003612200019N0021001N1+00501+00501999999ADDMA1103121999999REMMET077METAR EDMA 052250Z AUTO 26007KT 2100NDV ////// 05/05 Q1031 RERA RMK ATIS FOX;
0099108520999992013010523204+48433+010933AUTO +0477EDMA V0202601N004112200019N0021001N1+00501+00501999999ADDMA1103121999999REMMET072METAR EDMA 052320Z AUTO 26008KT 2100NDV ////// 05/05 Q1031 RMK ATIS GOL;
0099108520999992013010523504+48433+010933AUTO +0477EDMA V0202601N004612200019N0021001N1+00501+00501999999ADDMA1103011999999REMMET072METAR EDMA 052350Z AUTO 26009KT 2100NDV ////// 05/05 Q1030 RMK ATIS HOT;
0109108520999992013010600204+48433+010933AUTO +0477EDMA V0202601N004612200019N0021001N1+00501+00501999999ADDAW1511MA1103011999999REMMET076METAR EDMA 060020Z AUTO 26009KT 2100NDV -DZ ////// 05/05 Q1030 RMK ATIS IND;
0109108520999992013010600504+48433+010933AUTO +0477EDMA V0202601N003612200019N0021001N1+00501+00501999999ADDAW1511MA1103011999999REMMET076METAR EDMA 060050Z AUTO 26007KT 2100NDV -DZ ////// 05/05 Q1030 RMK ATIS JUL;
0104108520999992013010601204+48433+010933AUTO +0477EDMA V0202601N003612200019N0021001N1+00501+00501999999ADDMA1103121999999REMMET077METAR EDMA 060120Z AUTO 26007KT 2100NDV ////// 05/05 Q1031 RERA RMK ATIS KIL;
0113108520999992013010601504+48433+010933AUTO +0477EDMA V0202701N003612200019N0021001N1+00501+00501999999ADDAW1521MA1103121999999REMMET080METAR EDMA 060150Z AUTO 27007KT 2100NDV DZ ////// 05/05 Q1031 REDZ RMK ATIS LIM;
0108108520999992013010602204+48433+010933AUTO +0477EDMA V0202601N003612200019N0021001N1+00501+00501999999ADDAW1521MA1103121999999REMMET075METAR EDMA 060220Z AUTO 26007KT 2100NDV DZ ////// 05/05 Q1031 RMK ATIS MIK;
0109108520999992013010602504+48433+010933AUTO +0477EDMA V0202601N004112200019N0021001N1+00501+00501999999ADDAW1531MA1103011999999REMMET076METAR EDMA 060250Z AUTO 26008KT 2100NDV +DZ ////// 05/05 Q1030 RMK ATIS NOV;
0109108520999992013010603204+48433+010933AUTO +0477EDMA V0202601N004612200019N0021001N1+00501+00501999999ADDAW1511MA1103011999999REMMET076METAR EDMA 060320Z AUTO 26009KT 2100NDV -DZ ////// 05/05 Q1030 RMK ATIS OSC;
0109108520999992013010603504+48433+010933AUTO +0477EDMA V0202701N005112200019N0021001N1+00501+00501999999ADDAW1511MA1103011999999REMMET076METAR EDMA 060350Z AUTO 27010KT 2100NDV -DZ ////// 05/05 Q1030 RMK ATIS PAP;
0109108520999992013010604204+48433+010933AUTO +0477EDMA V0202701N005112200019N0021001N1+00501+00501999999ADDAW1511MA1103011999999REMMET076METAR EDMA 060420Z AUTO 27010KT 2100NDV -DZ ////// 05/05 Q1030 RMK ATIS QUE;
0109108520999992013010604504+48433+010933AUTO +0477EDMA V0202701N005112200019N0021001N1+00501+00501999999ADDAW1511MA1102911999999REMMET076METAR EDMA 060450Z AUTO 27010KT 2100NDV -DZ ////// 05/05 Q1029 RMK ATIS ROM;
0109108520999992013010605204+48433+010933AUTO +0477EDMA V0202701N004112200019N0021001N1+00501+00501999999ADDAW1511MA1103011999999REMMET076METAR EDMA 060520Z AUTO 27008KT 2100NDV -DZ ////// 05/05 Q1030 RMK ATIS SIE;
0099108520999992013010605504+48433+010933AUTO +0477EDMA V0202701N004112200019N0021001N1+00501+00501999999ADDMA1103011999999REMMET072METAR EDMA 060550Z AUTO 27008KT 2100NDV ////// 05/05 Q1030 RMK ATIS TAN;
0099108520999992013010606204+48433+010933AUTO +0477EDMA V0202601N003612200019N0021001N1+00501+00501999999ADDMA1102911999999REMMET072METAR EDMA 060620Z AUTO 26007KT 2100NDV ////// 05/05 Q1029 RMK ATIS UNI;
0099108520999992013010606504+48433+010933AUTO +0477EDMA V0202701N004112200019N0021001N1+00501+00501999999ADDMA1102911999999REMMET072METAR EDMA 060650Z AUTO 27008KT 2100NDV ////// 05/05 Q1029 RMK ATIS VIC;
0099108520999992013010607204+48433+010933AUTO +0477EDMA V0202701N003612200019N0021001N1+00501+00401999999ADDMA1102911999999REMMET072METAR EDMA 060720Z AUTO 27007KT 2100NDV ////// 05/04 Q1029 RMK ATIS WHI;
0124108520999992013010607504+48433+010933FM-15+0477EDMA V0202601N004110042019N0112651N1+00501+00401999999ADDGF108991999999999999999999MA1102911999999REMMET071METAR EDMA 060750Z 26008KT 9999 BKN014 OVC016 05/04 Q1029 RMK ATIS X-R;
0124108520999992013010608204+48433+010933FM-15+0477EDMA V0202701N005110036019N0112651N1+00501+00401999999ADDGF108991999999999999999999MA1102911999999REMMET071METAR EDMA 060820Z 27010KT 9999 BKN012 OVC015 05/04 Q1029 RMK ATIS YAN;
0124108520999992013010608504+48433+010933FM-15+0477EDMA V0202701N007710045019N0112651N1+00501+00401999999ADDGF107991999999999999999999MA1102811999999REMMET071METAR EDMA 060850Z 27015KT 9999 SCT012 BKN015 05/04 Q1028 RMK ATIS ZUL;
0124108520999992013010609204+48433+010933FM-15+0477EDMA V0202601N005710045019N0112651N1+00501+00401999999ADDGF108991999999999999999999MA1102811999999REMMET071METAR EDMA 060920Z 26011KT 9999 SCT012 OVC015 05/04 Q1028 RMK ATIS ALF;
0124108520999992013010609504+48433+010933FM-15+0477EDMA V0202601N005110030019N0112651N1+00501+00401999999ADDGF108991999999999999999999MA1102811999999REMMET071METAR EDMA 060950Z 26010KT 9999 BKN010 OVC012 05/04 Q1028 RMK ATIS BRA;
0124108520999992013010610204+48433+010933FM-15+0477EDMA V0202701N007210030019N0112651N1+00501+00401999999ADDGF108991999999999999999999MA1102811999999REMMET071METAR EDMA 061020Z 27014KT 9999 BKN010 OVC012 05/04 Q1028 RMK ATIS CHA;
0134108520999992013010610504+48433+010933FM-15+0477EDMA V0202701N005110024019N0112651N1+00501+00401999999ADDGF108991999999999999999999MA1102811999999MW1511REMMET075METAR EDMA 061050Z 27010KT 9999 -DZ BKN008 OVC010 05/04 Q1028 RMK ATIS DEL;
0134108520999992013010611204+48433+010933FM-15+0477EDMA V0202801N006210018019N0112651N1+00501+00401999999ADDGF108991999999999999999999MA1102811999999MW1511REMMET075METAR EDMA 061120Z 28012KT 9999 -DZ BKN006 OVC008 05/04 Q1028 RMK ATIS ECH;
0134108520999992013010611504+48433+010933FM-15+0477EDMA V0202901N006710030019N0112651N1+00501+00401999999ADDGF108991999999999999999999MA1102811999999MW1511REMMET075METAR EDMA 061150Z 29013KT 9999 -DZ BKN010 OVC012 05/04 Q1028 RMK ATIS FOX;
0134108520999992013010612204+48433+010933FM-15+0477EDMA V0202801N006210042019N0112651N1+00501+00401999999ADDGF108991999999999999999999MA1102711999999MW1511REMMET075METAR EDMA 061220Z 28012KT 9999 -DZ BKN014 OVC016 05/04 Q1027 RMK ATIS GOL;
0124108520999992013010612504+48433+010933FM-15+0477EDMA V0202901N005710036019N0112651N1+00501+00401999999ADDGF108991999999999999999999MA1102811999999REMMET071METAR EDMA 061250Z 29011KT 9999 BKN012 OVC014 05/04 Q1028 RMK ATIS HOT;
0124108520999992013010613204+48433+010933FM-15+0477EDMA V0202701N006210036019N0112651N1+00501+00401999999ADDGF108991999999999999999999MA1102711999999REMMET071METAR EDMA 061320Z 27012KT 9999 BKN012 OVC014 05/04 Q1027 RMK ATIS IND;
0124108520999992013010613504+48433+010933FM-15+0477EDMA V0202701N005710045019N0112651N1+00501+00401999999ADDGF108991999999999999999999MA1102711999999REMMET071METAR EDMA 061350Z 27011KT 9999 BKN015 OVC019 05/04 Q1027 RMK ATIS JUL;
0124108520999992013010614204+48433+010933FM-15+0477EDMA V0202701N005710051019N0112651N1+00501+00401999999ADDGF108991999999999999999999MA1102711999999REMMET071METAR EDMA 061420Z 27011KT 9999 SCT012 OVC017 05/04 Q1027 RMK ATIS KIL;
0117108520999992013010614504+48433+010933FM-15+0477EDMA V0202601N005710036019N0112651N1+00501+00401999999ADDGF108991999999999999999999MA1102711999999REMMET064METAR EDMA 061450Z 26011KT 9999 OVC012 05/04 Q1027 RMK ATIS LIM;
0117108520999992013010615204+48433+010933FM-15+0477EDMA V0202601N004610036019N0112651N1+00501+00401999999ADDGF108991999999999999999999MA1102711999999REMMET064METAR EDMA 061520Z 26009KT 9999 OVC012 05/04 Q1027 RMK ATIS MIK;
0127108520999992013010615504+48433+010933FM-15+0477EDMA V0202701N005110039019N0112651N1+00501+00401999999ADDGF108991999999999999999999MA1102711999999MW1611REMMET068METAR EDMA 061550Z 27010KT 9999 -RA OVC013 05/04 Q1027 RMK ATIS NOV;
0131108520999992013010616204+48433+010933FM-15+0477EDMA V0202701N005710039019N0060001N1+00501+00401999999ADDGF108991999999999999999999MA1102811999999MW1631REMMET072METAR EDMA 061620Z 27011KT 6000 RA OVC013 05/04 Q1028 RERA RMK ATIS OSC;
0131108520999992013010616504+48433+010933FM-15+0477EDMA V0202701N005110039019N0060001N1+00501+00501999999ADDGF108991999999999999999999MA1102811999999MW1631REMMET072METAR EDMA 061650Z 27010KT 6000 RA OVC013 05/05 Q1028 RERA RMK ATIS PAP;
0127108520999992013010617204+48433+010933FM-15+0477EDMA V0202601N004610030019N0112651N1+00501+00501999999ADDGF108991999999999999999999MA1102811999999MW1611REMMET068METAR EDMA 061720Z 26009KT 9999 -RA OVC010 05/05 Q1028 RMK ATIS QUE;
0127108520999992013010617504+48433+010933FM-15+0477EDMA V0202601N005110030019N0112651N1+00501+00501999999ADDGF107991999999999999999999MA1102711999999MW1611REMMET068METAR EDMA 061750Z 26010KT 9999 -RA BKN010 05/05 Q1027 RMK ATIS ROM;
0117108520999992013010618204+48433+010933FM-15+0477EDMA V0202601N005110024019N0112651N1+00501+00501999999ADDGF107991999999999999999999MA1102711999999REMMET064METAR EDMA 061820Z 26010KT 9999 BKN008 05/05 Q1027 RMK ATIS SIE;
0124108520999992013010618504+48433+010933FM-15+0477EDMA V0202601N005710117019N0112651N1+00501+00501999999ADDGF108991999999999999999999MA1102711999999REMMET071METAR EDMA 061850Z 26011KT 9999 SCT008 OVC039 05/05 Q1027 RMK ATIS TAN;
0124108520999992013010619204+48433+010933FM-15+0477EDMA V0202601N005110078019N0112651N1+00501+00501999999ADDGF108991999999999999999999MA1102711999999REMMET071METAR EDMA 061920Z 26010KT 9999 FEW006 OVC026 05/05 Q1027 RMK ATIS UNI;
0127108520999992013010619504+48433+010933FM-15+0477EDMA V0202501N005110033019N0112651N1+00501+00501999999ADDGF107991999999999999999999MA1102711999999MW1511REMMET068METAR EDMA 061950Z 25010KT 9999 -DZ BKN011 05/05 Q1027 RMK ATIS VIC;
0109108520999992013010620204+48433+010933AUTO +0477EDMA V0202501N004612200019N0021001N1+00501+00501999999ADDAW1611MA1102811999999REMMET076METAR EDMA 062020Z AUTO 25009KT 2100NDV -RA ////// 05/05 Q1028 RMK ATIS WHI;
0109108520999992013010620504+48433+010933AUTO +0477EDMA V0202501N005712200019N0021001N1+00501+00501999999ADDAW1611MA1102811999999REMMET076METAR EDMA 062050Z AUTO 25011KT 2100NDV -RA ////// 05/05 Q1028 RMK ATIS X-R;
0099108520999992013010621204+48433+010933AUTO +0477EDMA V0202501N005112200019N0021001N1+00501+00501999999ADDMA1102811999999REMMET072METAR EDMA 062120Z AUTO 25010KT 2100NDV ////// 05/05 Q1028 RMK ATIS YAN;
0109108520999992013010621504+48433+010933AUTO +0477EDMA V0202501N005112200019N0021001N1+00501+00501999999ADDMA1102811999999REMMET082METAR EDMA 062150Z AUTO 25010KT 2100NDV ////// 05/05 Q1028 RERA REDZ RMK ATIS ZUL;
0104108520999992013010622204+48433+010933AUTO +0477EDMA V0202501N005112200019N0021001N1+00501+00501999999ADDMA1102811999999REMMET077METAR EDMA 062220Z AUTO 25010KT 2100NDV ////// 05/05 Q1028 RERA RMK ATIS ALF;
0109108520999992013010622504+48433+010933AUTO +0477EDMA V0202501N004612200019N0021001N1+00501+00501999999ADDMA1102811999999REMMET082METAR EDMA 062250Z AUTO 25009KT 2100NDV ////// 05/05 Q1028 RERA REDZ RMK ATIS BRA;
0109108520999992013010623204+48433+010933AUTO +0477EDMA V0202601N004112200019N0021001N1+00501+00501999999ADDAW1511MA1102811999999REMMET076METAR EDMA 062320Z AUTO 26008KT 2100NDV -DZ ////// 05/05 Q1028 RMK ATIS CHA;
0109108520999992013010623504+48433+010933AUTO +0477EDMA V0202601N004612200019N0021001N1+00501+00501999999ADDAW1511MA1102811999999REMMET076METAR EDMA 062350Z AUTO 26009KT 2100NDV -DZ ////// 05/05 Q1028 RMK ATIS DEL;
0109108520999992013010700204+48433+010933AUTO +0477EDMA V0202501N004112200019N0021001N1+00501+00501999999ADDAW1511MA1102811999999REMMET076METAR EDMA 070020Z AUTO 25008KT 2100NDV -DZ ////// 05/05 Q1028 RMK ATIS ECH;
0109108520999992013010700504+48433+010933AUTO +0477EDMA V0202501N004612200019N0021001N1+00501+00501999999ADDAW1511MA1102811999999REMMET076METAR EDMA 070050Z AUTO 25009KT 2100NDV -DZ ////// 05/05 Q1028 RMK ATIS FOX;
0109108520999992013010701204+48433+010933AUTO +0477EDMA V0202601N004612200019N0021001N1+00501+00501999999ADDAW1511MA1102811999999REMMET076METAR EDMA 070120Z AUTO 26009KT 2100NDV -DZ ////// 05/05 Q1028 RMK ATIS GOL;
0109108520999992013010701504+48433+010933AUTO +0477EDMA V0202601N004612200019N0021001N1+00501+00501999999ADDAW1511MA1102811999999REMMET076METAR EDMA 070150Z AUTO 26009KT 2100NDV -DZ ////// 05/05 Q1028 RMK ATIS HOT;
0109108520999992013010702204+48433+010933AUTO +0477EDMA V0202601N004112200019N0021001N1+00501+00501999999ADDAW1511MA1102811999999REMMET076METAR EDMA 070220Z AUTO 26008KT 2100NDV -DZ ////// 05/05 Q1028 RMK ATIS IND;
0099108520999992013010702504+48433+010933AUTO +0477EDMA V0202601N003612200019N0021001N1+00501+00501999999ADDMA1102811999999REMMET072METAR EDMA 070250Z AUTO 26007KT 2100NDV ////// 05/05 Q1028 RMK ATIS JUL;
0099108520999992013010703204+48433+010933AUTO +0477EDMA V0202601N003112200019N0021001N1+00501+00501999999ADDMA1102811999999REMMET072METAR EDMA 070320Z AUTO 26006KT 2100NDV ////// 05/05 Q1028 RMK ATIS KIL;
0099108520999992013010703504+48433+010933AUTO +0477EDMA V0202501N002612200019N0021001N1+00501+00501999999ADDMA1102711999999REMMET072METAR EDMA 070350Z AUTO 25005KT 2100NDV ////// 05/05 Q1027 RMK ATIS LIM;
0099108520999992013010704204+48433+010933AUTO +0477EDMA V0202601N004112200019N0021001N1+00501+00501999999ADDMA1102711999999REMMET072METAR EDMA 070420Z AUTO 26008KT 2100NDV ////// 05/05 Q1027 RMK ATIS MIK;
0109108520999992013010704504+48433+010933AUTO +0477EDMA V0202601N003612200019N0021001N1+00501+00501999999ADDAW1511MA1102711999999REMMET076METAR EDMA 070450Z AUTO 26007KT 2100NDV -DZ ////// 05/05 Q1027 RMK ATIS NOV;
0134108520999992013010705204+48433+010933FM-15+0477EDMA V0202801N004110018019N0112651N1+00501+00501999999ADDGF108991999999999999999999MA1102711999999MW1511REMMET075METAR EDMA 070520Z 28008KT 9999 -DZ BKN006 OVC008 05/05 Q1027 RMK ATIS OSC;
0131108520999992013010705504+48433+010933FM-15+0477EDMA V0202801N004610030019N0112651N1+00501+00501999999ADDGF108991999999999999999999MA1102711999999REMMET078METAR EDMA 070550Z 28009KT 9999 SCT007 BKN010 OVC027 05/05 Q1027 RMK ATIS PAP;
0131108520999992013010706204+48433+010933FM-15+0477EDMA V0202901N002610024019N0112651N1+00501+00501999999ADDGF108991999999999999999999MA1102811999999REMMET078METAR EDMA 070620Z 29005KT 9999 SCT006 BKN008 OVC023 05/05 Q1028 RMK ATIS QUE;
0131108520999992013010706504+48433+010933FM-15+0477EDMA V0202701N002110036019N0090001N1+00501+00501999999ADDGF108991999999999999999999MA1102811999999REMMET078METAR EDMA 070650Z 27004KT 9000 SCT008 BKN012 OVC036 05/05 Q1028 RMK ATIS ROM;
0124108520999992013010707204+48433+010933FM-15+0477EDMA V0202601N002110030019N0080001N1+00501+00501999999ADDGF108991999999999999999999MA1102811999999REMMET071METAR EDMA 070720Z 26004KT 8000 BKN010 OVC012 05/05 Q1028 RMK ATIS SIE;
0124108520999992013010707504+48433+010933FM-15+0477EDMA V0202601N002610048019N0080001N1+00501+00501999999ADDGF107991999999999999999999MA1102811999999REMMET071METAR EDMA 070750Z 26005KT 8000 SCT010 BKN016 05/05 Q1028 RMK ATIS TAN;
0117108520999992013010708204+48433+010933FM-15+0477EDMA V0202701N002610045019N0080001N1+00501+00501999999ADDGF107991999999999999999999MA1102811999999REMMET064METAR EDMA 070820Z 27005KT 8000 BKN015 05/05 Q1028 RMK ATIS UNI;
0124108520999992013010708504+48433+010933FM-15+0477EDMA V0202701N002610111019N0080001N1+00501+00501999999ADDGF107991999999999999999999MA1102811999999REMMET071METAR EDMA 070850Z 27005KT 8000 SCT009 BKN037 05/05 Q1028 RMK ATIS VIC;
0124108520999992013010709204+48433+010933FM-15+0477EDMA V0202801N002610027019N0090001N1+00501+00501999999ADDGF108991999999999999999999MA1102911999999REMMET071METAR EDMA 070920Z 28005KT 9000 SCT007 OVC009 05/05 Q1029 RMK ATIS WHI;
0124108520999992013010709504+48433+010933FM-15+0477EDMA V0202701N002110105019N0090001N1+00601+00501999999ADDGF108991999999999999999999MA1102911999999REMMET071METAR EDMA 070950Z 27004KT 9000 SCT010 OVC035 06/05 Q1029 RMK ATIS X-R;
0124108520999992013010710204+48433+010933FM-15+0477EDMA V0202801N002110105019N0112651N1+00601+00501999999ADDGF108991999999999999999999MA1102911999999REMMET071METAR EDMA 071020Z 28004KT 9999 SCT011 OVC035 06/05 Q1029 RMK ATIS YAN;
0117108520999992013010710504+48433+010933FM-15+0477EDMA V0202701N003110099019N0112651N1+00501+00501999999ADDGF107991999999999999999999MA1102811999999REMMET064METAR EDMA 071050Z 27006KT 9999 BKN033 05/05 Q1028 RMK ATIS ZUL;
0117108520999992013010711204+48433+010933FM-15+0477EDMA V0202701N002610105019N0112651N1+00601+00501999999ADDGF107991999999999999999999MA1102811999999REMMET064METAR EDMA 071120Z 27005KT 9999 BKN035 06/05 Q1028 RMK ATIS ALF;
0117108520999992013010711504+48433+010933FM-15+0477EDMA V0202601N003610114019N0112651N1+00601+00401999999ADDGF107991999999999999999999MA1102811999999REMMET064METAR EDMA 071150Z 26007KT 9999 BKN038 06/04 Q1028 RMK ATIS BRA;
0124108520999992013010712204+48433+010933FM-15+0477EDMA V0202801N003112200019N0112651N1+00601+00401999999ADDGF104991999999999999999999MA1102711999999REMMET071METAR EDMA 071220Z 28006KT 9999 FEW013 SCT038 06/04 Q1027 RMK ATIS CHA;
0124108520999992013010712504+48433+010933FM-15+0477EDMA V0202801N003112200019N0112651N1+00601+00401999999ADDGF104991999999999999999999MA1102711999999REMMET071METAR EDMA 071250Z 28006KT 9999 FEW014 SCT038 06/04 Q1027 RMK ATIS DEL;
0124108520999992013010713204+48433+010933FM-15+0477EDMA V0203101N003110105019N0112651N1+00601+00401999999ADDGF107991999999999999999999MA1102811999999REMMET071METAR EDMA 071320Z 31006KT 9999 FEW012 BKN035 06/04 Q1028 RMK ATIS ECH;
0124108520999992013010713504+48433+010933FM-15+0477EDMA V0202801N002610111019N0112651N1+00601+00501999999ADDGF107991999999999999999999MA1102811999999REMMET071METAR EDMA 071350Z 28005KT 9999 FEW012 BKN037 06/05 Q1028 RMK ATIS FOX;
0132108520999992013010714204+48433+010933FM-15+0477EDMA V0202901N002610102019N0112651N1+00601+00401999999ADDGF107991999999999999999999MA1102711999999REMMET079METAR EDMA 071420Z 29005KT 250V310 9999 FEW014 BKN034 06/04 Q1027 RMK ATIS GOL;
0132108520999992013010714504+48433+010933FM-15+0477EDMA V0202701N002112200019N0112651N1+00601+00401999999ADDGF104991999999999999999999MA1102711999999REMMET079METAR EDMA 071450Z 27004KT 240V310 9999 FEW013 SCT034 06/04 Q1027 RMK ATIS HOT;
0124108520999992013010715204+48433+010933FM-15+0477EDMA V0202601N001512200019N0112651N1+00501+00401999999ADDGF104991999999999999999999MA1102711999999REMMET071METAR EDMA 071520Z 26003KT 9999 FEW013 SCT035 05/04 Q1027 RMK ATIS IND;
0117108520999992013010715504+48433+010933FM-15+0477EDMA V0203001N001512200019N0112651N1+00501+00401999999ADDGF102991999999999999999999MA1102711999999REMMET064METAR EDMA 071550Z 30003KT 9999 FEW014 05/04 Q1027 RMK ATIS JUL;
0117108520999992013010716204+48433+010933FM-15+0477EDMA V0209999V001012200019N0112651N1+00401+00401999999ADDGF102991999999999999999999MA1102711999999REMMET064METAR EDMA 071620Z VRB02KT 9999 FEW014 04/04 Q1027 RMK ATIS KIL;
0117108520999992013010716504+48433+010933FM-15+0477EDMA V0209999V001012200019N0112651N1+00201+00201999999ADDGF102991999999999999999999MA1102711999999REMMET064METAR EDMA 071650Z VRB02KT 9999 FEW015 02/02 Q1027 RMK ATIS LIM;
0117108520999992013010717204+48433+010933FM-15+0477EDMA V0209999V000512200019N0112651N1+00201+00201999999ADDGF102991999999999999999999MA1102711999999REMMET064METAR EDMA 071720Z VRB01KT 9999 FEW015 02/02 Q1027 RMK ATIS MIK;
0117108520999992013010717504+48433+010933FM-15+0477EDMA V0209999V000512200019N0112651N1+00101+00101999999ADDGF102991999999999999999999MA1102711999999REMMET064METAR EDMA 071750Z VRB01KT 9999 FEW025 01/01 Q1027 RMK ATIS NOV;
0117108520999992013010718204+48433+010933FM-15+0477EDMA V0209999V000512200019N0112651N1+00301+00301999999ADDGF102991999999999999999999MA1102711999999REMMET064METAR EDMA 071820Z VRB01KT 9999 FEW026 03/03 Q1027 RMK ATIS OSC;
0114108520999992013010718504+48433+010933FM-15+0477EDMA V0209999V000512200019N0080001N1+00301+00301999999ADDGF100991999999999999999999MA1102711999999REMMET061METAR EDMA 071850Z VRB01KT 8000 NSC 03/03 Q1027 RMK ATIS PAP;
0117108520999992013010719204+48433+010933FM-15+0477EDMA V0209999V000512200019N0080001N1+00201+00201999999ADDGF102991999999999999999999MA1102811999999REMMET064METAR EDMA 071920Z VRB01KT 8000 FEW026 02/02 Q1028 RMK ATIS QUE;
0117108520999992013010719504+48433+010933FM-15+0477EDMA V0209999V001012200019N0080001N1+00201+00201999999ADDGF102991999999999999999999MA1102711999999REMMET064METAR EDMA 071950Z VRB02KT 8000 FEW026 02/02 Q1027 RMK ATIS ROM;
0099108520999992013010720204+48433+010933AUTO +0477EDMA V0201401N001012200019N0021001N1+00201+00201999999ADDMA1102711999999REMMET072METAR EDMA 072020Z AUTO 14002KT 2100NDV ////// 02/02 Q1027 RMK ATIS SIE;
0099108520999992013010720504+48433+010933AUTO +0477EDMA V0209999V001012200019N0021001N1+00201+00201999999ADDMA1102711999999REMMET072METAR EDMA 072050Z AUTO VRB02KT 2100NDV ////// 02/02 Q1027 RMK ATIS TAN;
0096108520999992013010721204+48433+010933AUTO +0477EDMA V0201701N001012200019N9999999N1+00201+00201999999ADDMA1102711999999REMMET069METAR EDMA 072120Z AUTO 17002KT //// ////// 02/02 Q1027 RMK ATIS UNI;
0115108520999992013010721504+48433+010933AUTO +0477EDMA V0200901N001012200019N0006001N1+00201+00201999999ADDMA1102711999999REMMET088METAR EDMA 072150Z AUTO 09002KT 0600NDV R25/0800VP2000D ////// 02/02 Q1027 RMK ATIS VIC;
0099108520999992013010722204+48433+010933AUTO +0477EDMA V0209999V001012200019N0017001N1+00201+00201999999ADDMA1102711999999REMMET072METAR EDMA 072220Z AUTO VRB02KT 1700NDV ////// 02/02 Q1027 RMK ATIS WHI;
0099108520999992013010722504+48433+010933AUTO +0477EDMA V0201201N001512200019N0020001N1+00201+00201999999ADDMA1102711999999REMMET072METAR EDMA 072250Z AUTO 12003KT 2000NDV ////// 02/02 Q1027 RMK ATIS X-R;
0099108520999992013010723204+48433+010933AUTO +0477EDMA V0201601N001512200019N0021001N1+00201+00201999999ADDMA1102711999999REMMET072METAR EDMA 072320Z AUTO 16003KT 2100NDV ////// 02/02 Q1027 RMK ATIS YAN;
0099108520999992013010723504+48433+010933AUTO +0477EDMA V0201701N002112200019N0021001N1+00201+00201999999ADDMA1102711999999REMMET072METAR EDMA 072350Z AUTO 17004KT 2100NDV ////// 02/02 Q1027 RMK ATIS ZUL;
0099108520999992013010800204+48433+010933AUTO +0477EDMA V0201601N002112200019N0021001N1+00201+00201999999ADDMA1102611999999REMMET072METAR EDMA 080020Z AUTO 16004KT 2100NDV ////// 02/02 Q1026 RMK ATIS ALF;
0099108520999992013010800504+48433+010933AUTO +0477EDMA V0201601N001512200019N0021001N1+00201+00201999999ADDMA1102611999999REMMET072METAR EDMA 080050Z AUTO 16003KT 2100NDV ////// 02/02 Q1026 RMK ATIS BRA;
0099108520999992013010801204+48433+010933AUTO +0477EDMA V0201601N002112200019N0021001N1+00201+00201999999ADDMA1102611999999REMMET072METAR EDMA 080120Z AUTO 16004KT 2100NDV ////// 02/02 Q1026 RMK ATIS CHA;
0099108520999992013010801504+48433+010933AUTO +0477EDMA V0201701N002112200019N0021001N1+00201+00201999999ADDMA1102611999999REMMET072METAR EDMA 080150Z AUTO 17004KT 2100NDV ////// 02/02 Q1026 RMK ATIS DEL;
0099108520999992013010802204+48433+010933AUTO +0477EDMA V0201401N002112200019N0021001N1+00201+00201999999ADDMA1102611999999REMMET072METAR EDMA 080220Z AUTO 14004KT 2100NDV ////// 02/02 Q1026 RMK ATIS ECH;
0099108520999992013010802504+48433+010933AUTO +0477EDMA V0209999V001012200019N0021001N1+00201+00201999999ADDMA1102611999999REMMET072METAR EDMA 080250Z AUTO VRB02KT 2100NDV ////// 02/02 Q1026 RMK ATIS FOX;
0099108520999992013010803204+48433+010933AUTO +0477EDMA V0201301N001512200019N0021001N1+00201+00201999999ADDMA1102611999999REMMET072METAR EDMA 080320Z AUTO 13003KT 2100NDV ////// 02/02 Q1026 RMK ATIS GOL;
0099108520999992013010803504+48433+010933AUTO +0477EDMA V0201701N002112200019N0021001N1+00201+00201999999ADDMA1102511999999REMMET072METAR EDMA 080350Z AUTO 17004KT 2100NDV ////// 02/02 Q1025 RMK ATIS HOT;
0099108520999992013010804204+48433+010933AUTO +0477EDMA V0201701N001512200019N0021001N1+00101+00101999999ADDMA1102511999999REMMET072METAR EDMA 080420Z AUTO 17003KT 2100NDV ////// 01/01 Q1025 RMK ATIS IND;
0099108520999992013010804504+48433+010933AUTO +0477EDMA V0201501N001512200019N0021001N1+00201+00201999999ADDMA1102511999999REMMET072METAR EDMA 080450Z AUTO 15003KT 2100NDV ////// 02/02 Q1025 RMK ATIS JUL;
0085108520999992013010805204+48433+010933FM-15+0477EDMA V0201601N001519999999Y0099001N1+00101+00101999999ADDMA1102401999999REMMET058METAR EDMA 080520Z 16003KT CAVOK 01/01 Q1024 RMK ATIS KIL;
0085108520999992013010805504+48433+010933FM-15+0477EDMA V0201601N002619999999Y0099001N1+00101+00101999999ADDMA1102401999999REMMET058METAR EDMA 080550Z 16005KT CAVOK 01/01 Q1024 RMK ATIS LIM;
0085108520999992013010806204+48433+010933FM-15+0477EDMA V0201201N001019999999Y0099001N1+00201+00201999999ADDMA1102511999999REMMET058METAR EDMA 080620Z 12002KT CAVOK 02/02 Q1025 RMK ATIS MIK;
0117108520999992013010806504+48433+010933FM-15+0477EDMA V0209999V001010015019N0080001N1+00101+00101999999ADDGF108991999999999999999999MA1102511999999REMMET064METAR EDMA 080650Z VRB02KT 8000 OVC005 01/01 Q1025 RMK ATIS NOV;
0134108520999992013010807204+48433+010933FM-15+0477EDMA V0202701N002610012019N0040001N1+00201+00201999999ADDGF108991999999999999999999MA1102511999999MW1101REMMET075METAR EDMA 080720Z 27005KT 240V330 4000 BR OVC004 02/02 Q1025 RMK ATIS OSC;
0126108520999992013010807504+48433+010933FM-15+0477EDMA V0202401N002110009019N0025001N1+00201+00201999999ADDGF108991999999999999999999MA1102511999999MW1101REMMET067METAR EDMA 080750Z 24004KT 2500 BR OVC003 02/02 Q1025 RMK ATIS PAP;
0134108520999992013010808204+48433+010933FM-15+0477EDMA V0202601N002110006019N0025001N1+00301+00301999999ADDGF108991999999999999999999MA1102511999999MW1101REMMET075METAR EDMA 080820Z 26004KT 230V290 2500 BR OVC002 03/03 Q1025 RMK ATIS QUE;
0126108520999992013010808504+48433+010933FM-15+0477EDMA V0202501N002610012019N0030001N1+00301+00301999999ADDGF108991999999999999999999MA1102511999999MW1101REMMET067METAR EDMA 080850Z 25005KT 3000 BR OVC004 03/03 Q1025 RMK ATIS ROM;
0117108520999992013010809204+48433+010933FM-15+0477EDMA V0202301N003110015019N0050001N1+00301+00301999999ADDGF108991999999999999999999MA1102511999999REMMET064METAR EDMA 080920Z 23006KT 5000 OVC005 03/03 Q1025 RMK ATIS SIE;
0117108520999992013010809504+48433+010933FM-15+0477EDMA V0202501N003110018019N0060001N1+00401+00401999999ADDGF108991999999999999999999MA1102511999999REMMET064METAR EDMA 080950Z 25006KT 6000 OVC006 04/04 Q1025 RMK ATIS TAN;
0117108520999992013010810204+48433+010933FM-15+0477EDMA V0202501N003110021019N0060001N1+00401+00401999999ADDGF107991999999999999999999MA1102511999999REMMET064METAR EDMA 081020Z 25006KT 6000 BKN007 04/04 Q1025 RMK ATIS UNI;
0117108520999992013010810504+48433+010933FM-15+0477EDMA V0202601N003110024019N0060001N1+00401+00301999999ADDGF107991999999999999999999MA1102511999999REMMET064METAR EDMA 081050Z 26006KT 6000 BKN008 04/03 Q1025 RMK ATIS VIC;
0117108520999992013010811204+48433+010933FM-15+0477EDMA V0202501N003112200019N0080001N1+00501+00401999999ADDGF102991999999999999999999MA1102511999999REMMET064METAR EDMA 081120Z 25006KT 8000 FEW008 05/04 Q1025 RMK ATIS WHI;
0117108520999992013010811504+48433+010933FM-15+0477EDMA V0202501N003612200019N0080001N1+00501+00401999999ADDGF102991999999999999999999MA1102401999999REMMET064METAR EDMA 081150Z 25007KT 8000 FEW009 05/04 Q1024 RMK ATIS X-R;
0124108520999992013010812204+48433+010933FM-15+0477EDMA V0202401N004110300019N0080001N1+00501+00301999999ADDGF107991999999999999999999MA1102401999999REMMET071METAR EDMA 081220Z 24008KT 8000 SCT010 BKN100 05/03 Q1024 RMK ATIS YAN;
0124108520999992013010812504+48433+010933FM-15+0477EDMA V0202701N004110300019N0080001N1+00501+00401999999ADDGF107991999999999999999999MA1102401999999REMMET071METAR EDMA 081250Z 27008KT 8000 SCT010 BKN100 05/04 Q1024 RMK ATIS ZUL;
0124108520999992013010813204+48433+010933FM-15+0477EDMA V0202801N003610300019N0112651N1+00501+00401999999ADDGF107991999999999999999999MA1102401999999REMMET071METAR EDMA 081320Z 28007KT 9999 SCT010 BKN100 05/04 Q1024 RMK ATIS ALF;
0117108520999992013010813504+48433+010933FM-15+0477EDMA V0202901N003612200019N0112651N1+00501+00301999999ADDGF104991999999999999999999MA1102401999999REMMET064METAR EDMA 081350Z 29007KT 9999 SCT013 05/03 Q1024 RMK ATIS BRA;
0117108520999992013010814204+48433+010933FM-15+0477EDMA V0202801N004112200019N0112651N1+00501+00301999999ADDGF102991999999999999999999MA1102401999999REMMET064METAR EDMA 081420Z 28008KT 9999 FEW012 05/03 Q1024 RMK ATIS CHA;
0124108520999992013010814504+48433+010933FM-15+0477EDMA V0203001N003110270019N0112651N1+00501+00301999999ADDGF107991999999999999999999MA1102401999999REMMET071METAR EDMA 081450Z 30006KT 9999 FEW011 BKN098 05/03 Q1024 RMK ATIS DEL;
0124108520999992013010815204+48433+010933FM-15+0477EDMA V0202801N003110270019N0112651N1+00401+00301999999ADDGF107991999999999999999999MA1102401999999REMMET071METAR EDMA 081520Z 28006KT 9999 FEW011 BKN095 04/03 Q1024 RMK ATIS ECH;
0124108520999992013010815504+48433+010933FM-15+0477EDMA V0202701N002610270019N0112651N1+00401+00301999999ADDGF107991999999999999999999MA1102511999999REMMET071METAR EDMA 081550Z 27005KT 9999 FEW012 BKN095 04/03 Q1025 RMK ATIS FOX;
0124108520999992013010816204+48433+010933FM-15+0477EDMA V0202801N002610240019N0112651N1+00401+00301999999ADDGF107991999999999999999999MA1102511999999REMMET071METAR EDMA 081620Z 28005KT 9999 FEW011 BKN085 04/03 Q1025 RMK ATIS GOL;
0124108520999992013010816504+48433+010933FM-15+0477EDMA V0202801N002110210019N0112651N1+00401+00301999999ADDGF107991999999999999999999MA1102511999999REMMET071METAR EDMA 081650Z 28004KT 9999 FEW011 BKN074 04/03 Q1025 RMK ATIS HOT;
0124108520999992013010817204+48433+010933FM-15+0477EDMA V0203401N002610210019N0112651N1+00401+00301999999ADDGF107991999999999999999999MA1102511999999REMMET071METAR EDMA 081720Z 34005KT 9999 SCT010 BKN078 04/03 Q1025 RMK ATIS JUL;
0117108520999992013010817504+48433+010933FM-15+0477EDMA V0203301N003110033019N0112651N1+00401+00301999999ADDGF107991999999999999999999MA1102511999999REMMET064METAR EDMA 081750Z 33006KT 9999 BKN011 04/03 Q1025 RMK ATIS KIL;
0111108520999992013010818204+48433+010933FM-15+0477EDMA V0203201N002610210019N0112651N1+00401+00301999999ADDGF107991999999999999999999MA1102511999999REMMET058METAR EDMA 081820Z 32005KT 9999 SCT011 BKN072 04/03 Q1025;
0118108520999992013010818504+48433+010933FM-15+0477EDMA V0203201N00261006001CN0112651N1+00301+00201999999ADDGF107991999999999999999999MA1102511999999REMMET065METAR EDMA 081850Z 32005KT 9999 FEW009 SCT020 BKN067 03/02 Q1025;
0124108520999992013010819204+48433+010933FM-15+0477EDMA V0203201N002610048019N0112651N1+00301+00301999999ADDGF107991999999999999999999MA1102511999999REMMET071METAR EDMA 081920Z 32005KT 9999 SCT007 BKN016 03/03 Q1025 RMK ATIS NOV;
0134108520999992013010819504+48433+010933FM-15+0477EDMA V0203201N002110048019N0112651N1+00301+00301999999ADDGF107991999999999999999999MA1102511999999MW1611REMMET075METAR EDMA 081950Z 32004KT 9999 -RA SCT008 BKN016 03/03 Q1025 RMK ATIS OSC;
0109108520999992013010820204+48433+010933AUTO +0477EDMA V0203301N002112200019N0021001N1+00301+00301999999ADDAW1611MA1102511999999REMMET076METAR EDMA 082020Z AUTO 33004KT 2100NDV -RA ////// 03/03 Q1025 RMK ATIS PAP;
0104108520999992013010820504+48433+010933AUTO +0477EDMA V0203101N002112200019N0021001N1+00301+00201999999ADDMA1102511999999REMMET077METAR EDMA 082050Z AUTO 31004KT 2100NDV ////// 03/02 Q1025 RERA RMK ATIS QUE;
0099108520999992013010821204+48433+010933AUTO +0477EDMA V0202801N002612200019N0021001N1+00301+00301999999ADDMA1102511999999REMMET072METAR EDMA 082120Z AUTO 28005KT 2100NDV ////// 03/03 Q1025 RMK ATIS ROM;
0099108520999992013010821504+48433+010933AUTO +0477EDMA V0202801N003112200019N0021001N1+00301+00201999999ADDMA1102511999999REMMET072METAR EDMA 082150Z AUTO 28006KT 2100NDV ////// 03/02 Q1025 RMK ATIS SIE;
0099108520999992013010822204+48433+010933AUTO +0477EDMA V0202801N002612200019N0021001N1+00301+00201999999ADDMA1102511999999REMMET072METAR EDMA 082220Z AUTO 28005KT 2100NDV ////// 03/02 Q1025 RMK ATIS TAN;
0099108520999992013010822504+48433+010933AUTO +0477EDMA V0202801N002112200019N0021001N1+00301+00201999999ADDMA1102511999999REMMET072METAR EDMA 082250Z AUTO 28004KT 2100NDV ////// 03/02 Q1025 RMK ATIS UNI;
0099108520999992013010823204+48433+010933AUTO +0477EDMA V0202701N002612200019N0021001N1+00301+00201999999ADDMA1102511999999REMMET072METAR EDMA 082320Z AUTO 27005KT 2100NDV ////// 03/02 Q1025 RMK ATIS VIC;
0099108520999992013010823504+48433+010933AUTO +0477EDMA V0202801N002612200019N0021001N1+00301+00201999999ADDMA1102511999999REMMET072METAR EDMA 082350Z AUTO 28005KT 2100NDV ////// 03/02 Q1025 RMK ATIS WHI;
0099108520999992013010900204+48433+010933AUTO +0477EDMA V0202801N002112200019N0021001N1+00301+00201999999ADDMA1102401999999REMMET072METAR EDMA 090020Z AUTO 28004KT 2100NDV ////// 03/02 Q1024 RMK ATIS X-R;
0099108520999992013010900504+48433+010933AUTO +0477EDMA V0202801N002112200019N0021001N1+00301+00301999999ADDMA1102401999999REMMET072METAR EDMA 090050Z AUTO 28004KT 2100NDV ////// 03/03 Q1024 RMK ATIS YAN;
0099108520999992013010901204+48433+010933AUTO +0477EDMA V0202701N002112200019N0021001N1+00301+00201999999ADDMA1102401999999REMMET072METAR EDMA 090120Z AUTO 27004KT 2100NDV ////// 03/02 Q1024 RMK ATIS ZUL;
0099108520999992013010901504+48433+010933AUTO +0477EDMA V0202601N002612200019N0021001N1+00301+00201999999ADDMA1102401999999REMMET072METAR EDMA 090150Z AUTO 26005KT 2100NDV ////// 03/02 Q1024 RMK ATIS ALF;
0099108520999992013010902204+48433+010933AUTO +0477EDMA V0202601N002612200019N0021001N1+00301+00201999999ADDMA1102401999999REMMET072METAR EDMA 090220Z AUTO 26005KT 2100NDV ////// 03/02 Q1024 RMK ATIS BRA;
0099108520999992013010902504+48433+010933AUTO +0477EDMA V0202701N002112200019N0021001N1+00301+00201999999ADDMA1102401999999REMMET072METAR EDMA 090250Z AUTO 27004KT 2100NDV ////// 03/02 Q1024 RMK ATIS CHA;
0099108520999992013010903204+48433+010933AUTO +0477EDMA V0202601N002112200019N0021001N1+00301+00201999999ADDMA1102401999999REMMET072METAR EDMA 090320Z AUTO 26004KT 2100NDV ////// 03/02 Q1024 RMK ATIS DEL;
0099108520999992013010903504+48433+010933AUTO +0477EDMA V0202701N002112200019N0021001N1+00301+00201999999ADDMA1102301999999REMMET072METAR EDMA 090350Z AUTO 27004KT 2100NDV ////// 03/02 Q1023 RMK ATIS ECH;
0099108520999992013010904204+48433+010933AUTO +0477EDMA V0202501N001512200019N0021001N1+00301+00201999999ADDMA1102301999999REMMET072METAR EDMA 090420Z AUTO 25003KT 2100NDV ////// 03/02 Q1023 RMK ATIS FOX;
0117108520999992013010904504+48433+010933FM-15+0477EDMA V0202501N001510018019N0090001N1+00301+00201999999ADDGF108991999999999999999999MA1102301999999REMMET064METAR EDMA 090450Z 25003KT 9000 OVC006 03/02 Q1023 RMK ATIS GOL;
0117108520999992013010905204+48433+010933FM-15+0477EDMA V0202501N001510018019N0090001N1+00301+00201999999ADDGF108991999999999999999999MA1102301999999REMMET064METAR EDMA 090520Z 25003KT 9000 OVC006 03/02 Q1023 RMK ATIS HOT;
0124108520999992013010905504+48433+010933FM-15+0477EDMA V0202201N001510018019N0112651N1+00301+00201999999ADDGF108991999999999999999999MA1102301999999REMMET071METAR EDMA 090550Z 22003KT 9999 BKN006 OVC018 03/02 Q1023 RMK ATIS IND;
0124108520999992013010906204+48433+010933FM-15+0477EDMA V0201901N001510018019N0112651N1+00301+00201999999ADDGF108991999999999999999999MA1102301999999REMMET071METAR EDMA 090620Z 19003KT 9999 BKN006 OVC018 03/02 Q1023 RMK ATIS JUL;
0124108520999992013010906504+48433+010933FM-15+0477EDMA V0202101N001510018019N0112651N1+00301+00201999999ADDGF108991999999999999999999MA1102301999999REMMET071METAR EDMA 090650Z 21003KT 9999 BKN006 OVC018 03/02 Q1023 RMK ATIS KIL;
0124108520999992013010907204+48433+010933FM-15+0477EDMA V0209999V001010054019N0080001N1+00301+00201999999ADDGF108991999999999999999999MA1102201999999REMMET071METAR EDMA 090720Z VRB02KT 8000 SCT009 OVC018 03/02 Q1022 RMK ATIS LIM;
0124108520999992013010907504+48433+010933FM-15+0477EDMA V0201701N001510024019N0080001N1+00301+00201999999ADDGF107991999999999999999999MA1102201999999REMMET071METAR EDMA 090750Z 17003KT 8000 BKN008 BKN018 03/02 Q1022 RMK ATIS MIK;
0124108520999992013010908204+48433+010933FM-15+0477EDMA V0201801N002110051019N0080001N1+00301+00201999999ADDGF107991999999999999999999MA1102201999999REMMET071METAR EDMA 090820Z 18004KT 8000 SCT010 BKN017 03/02 Q1022 RMK ATIS NOV;
0124108520999992013010908504+48433+010933FM-15+0477EDMA V0202001N002110051019N0080001N1+00301+00201999999ADDGF107991999999999999999999MA1102201999999REMMET071METAR EDMA 090850Z 20004KT 8000 SCT010 BKN017 03/02 Q1022 RMK ATIS OSC;
0124108520999992013010909204+48433+010933FM-15+0477EDMA V0201901N001510048019N0080001N1+00301+00201999999ADDGF107991999999999999999999MA1102201999999REMMET071METAR EDMA 090920Z 19003KT 8000 FEW008 BKN016 03/02 Q1022 RMK ATIS PAP;
0124108520999992013010909504+48433+010933FM-15+0477EDMA V0202101N001510048019N0080001N1+00301+00101999999ADDGF107991999999999999999999MA1102201999999REMMET071METAR EDMA 090950Z 21003KT 8000 FEW008 BKN016 03/01 Q1022 RMK ATIS QUE;
0125108520999992013010910204+48433+010933FM-15+0477EDMA V0201801N002110048019N0070001N1+00301+00201999999ADDGF107991999999999999999999MA1102201999999REMMET072METAR EDMA 091020Z 18004KT 140V210 7000 BKN016 03/02 Q1022 RMK ATIS ROM;
0125108520999992013010910504+48433+010933FM-15+0477EDMA V0202101N001512200019N0080001N1+00401+00101999999ADDGF104991999999999999999999MA1102101999999REMMET072METAR EDMA 091050Z 21003KT 190V250 8000 SCT016 04/01 Q1021 RMK ATIS SIE;
0125108520999992013010911204+48433+010933FM-15+0477EDMA V0201801N002112200019N0080001N1+00401+00101999999ADDGF104991999999999999999999MA1102101999999REMMET072METAR EDMA 091120Z 18004KT 140V200 8000 SCT012 04/01 Q1021 RMK ATIS TAN;
0125108520999992013010911504+48433+010933FM-15+0477EDMA V0201601N002110039019N0080001N1+00401+00101999999ADDGF107991999999999999999999MA1102001999999REMMET072METAR EDMA 091150Z 16004KT 110V190 8000 BKN013 04/01 Q1020 RMK ATIS UNI;
0125108520999992013010912204+48433+010933FM-15+0477EDMA V0201801N002112200019N0080001N1+00401+00101999999ADDGF104991999999999999999999MA1101901999999REMMET072METAR EDMA 091220Z 18004KT 110V220 8000 SCT014 04/01 Q1019 RMK ATIS VIC;
0125108520999992013010912504+48433+010933FM-15+0477EDMA V0201501N002612200019N0112651N1+00401+00201999999ADDGF104991999999999999999999MA1101901999999REMMET072METAR EDMA 091250Z 15005KT 110V190 9999 SCT014 04/02 Q1019 RMK ATIS WHI;
0117108520999992013010913504+48433+010933FM-15+0477EDMA V0209999V001012200019N0112651N1+00501+00101999999ADDGF102991999999999999999999MA1101801999999REMMET064METAR EDMA 091350Z VRB02KT 9999 FEW016 05/01 Q1018 RMK ATIS ALF;
0125108520999992013010914204+48433+010933FM-15+0477EDMA V0202401N002112200019N0080001N1+00501+00101999999ADDGF102991999999999999999999MA1101801999999REMMET072METAR EDMA 091420Z 24004KT 120V290 8000 FEW015 05/01 Q1018 RMK ATIS BRA;
0117108520999992013010914504+48433+010933FM-15+0477EDMA V0202701N003112200019N0080001N1+00401+00201999999ADDGF102991999999999999999999MA1101801999999REMMET064METAR EDMA 091450Z 27006KT 8000 FEW015 04/02 Q1018 RMK ATIS CHA;
0114108520999992013010915204+48433+010933FM-15+0477EDMA V0202701N002612200019N0080001N1+00301+00201999999ADDGF100991999999999999999999MA1101801999999REMMET061METAR EDMA 091520Z 27005KT 8000 NSC 03/02 Q1018 RMK ATIS DEL;
0114108520999992013010915504+48433+010933FM-15+0477EDMA V0203001N003112200019N0060001N1+00201+00201999999ADDGF100991999999999999999999MA1101801999999REMMET061METAR EDMA 091550Z 30006KT 6000 NSC 02/02 Q1018 RMK ATIS ECH;
0117108520999992013010916204+48433+010933FM-15+0477EDMA V0202901N002112200019N0060001N1+00201+00101999999ADDGF102991999999999999999999MA1101801999999REMMET064METAR EDMA 091620Z 29004KT 6000 FEW008 02/01 Q1018 RMK ATIS FOX;
0125108520999992013010916504+48433+010933FM-15+0477EDMA V0202901N002112200019N0080001N1+00201+00101999999ADDGF104991999999999999999999MA1101691999999REMMET072METAR EDMA 091650Z 29004KT 260V320 8000 SCT007 02/01 Q1017 RMK ATIS GOL;
0117108520999992013010917204+48433+010933FM-15+0477EDMA V0202901N003112200019N0060001N1+00101+00101999999ADDGF104991999999999999999999MA1101691999999REMMET064METAR EDMA 091720Z 29006KT 6000 SCT005 01/01 Q1017 RMK ATIS HOT;
0117108520999992013010917504+48433+010933FM-15+0477EDMA V0202601N002612200019N0060001N1+00101+00101999999ADDGF104991999999999999999999MA1101691999999REMMET064METAR EDMA 091750Z 26005KT 6000 SCT005 01/01 Q1017 RMK ATIS IND;
0114108520999992013010918204+48433+010933FM-15+0477EDMA V0209999V001012200019N0060001N1+00001+00001999999ADDGF100991999999999999999999MA1101691999999REMMET061METAR EDMA 091820Z VRB02KT 6000 NSC 00/00 Q1017 RMK ATIS JUL;
0117108520999992013010918504+48433+010933FM-15+0477EDMA V0200401N000512200019N0070001N1+00001+00001999999ADDGF104991999999999999999999MA1101691999999REMMET064METAR EDMA 091850Z 04001KT 7000 SCT012 00/00 Q1017 RMK ATIS KIL;
0117108520999992013010919204+48433+010933FM-15+0477EDMA V0209999V000510036019N0070001N1+00101+00101999999ADDGF107991999999999999999999MA1101591999999REMMET064METAR EDMA 091920Z VRB01KT 7000 BKN012 01/01 Q1016 RMK ATIS LIM;
0117108520999992013010919504+48433+010933FM-15+0477EDMA V0200201N000510036019N0060001N1+00101+00101999999ADDGF108991999999999999999999MA1101591999999REMMET064METAR EDMA 091950Z 02001KT 6000 OVC012 01/01 Q1016 RMK ATIS MIK;
0125108520999992013010920204+48433+010933FM-15+0477EDMA V0202401N001510036019N0060001N1+00101+00101999999ADDGF108991999999999999999999MA1101591999999REMMET072METAR EDMA 092020Z 24003KT 190V270 6000 OVC012 01/01 Q1016 RMK ATIS NOV;
0117108520999992013010920504+48433+010933FM-15+0477EDMA V0202501N003610030019N0060001N1+00201+00101999999ADDGF108991999999999999999999MA1101591999999REMMET064METAR EDMA 092050Z 25007KT 6000 OVC010 02/01 Q1016 RMK ATIS OSC;
0109108520999992013010921204+48433+010933AUTO +0477EDMA V0202601N003112200019N0021001N1+00201+00101999999ADDAW1611MA1101591999999REMMET076METAR EDMA 092120Z AUTO 26006KT 2100NDV -RA ////// 02/01 Q1016 RMK ATIS PAP;
0099108520999992013010921504+48433+010933AUTO +0477EDMA V0202801N004112200019N0021001N1+00201+00101999999ADDMA1101591999999REMMET072METAR EDMA 092150Z AUTO 28008KT 2100NDV ////// 02/01 Q1016 RMK ATIS QUE;
0121108520999992013010922204+48433+010933AUTO +0477EDMA V0202901N004612200019N0021001N1+00101+00101999999ADDAW1711MA1101591999999REMMET088METAR EDMA 092220Z AUTO 29009KT 2100NDV -SN ////// 01/01 Q1016 RERASN REDZ RMK ATIS ROM;
0108108520999992013010922504+48433+010933AUTO +0477EDMA V0202701N003612200019N0021001N1+00101+00101999999ADDAW1721MA1101591999999REMMET075METAR EDMA 092250Z AUTO 27007KT 2100NDV SN ////// 01/01 Q1016 RMK ATIS SIE;
0109108520999992013010923204+48433+010933AUTO +0477EDMA V0202501N002612200019N0021001N1+00101+00101999999ADDAW1711MA1101591999999REMMET076METAR EDMA 092320Z AUTO 25005KT 2100NDV -SN ////// 01/01 Q1016 RMK ATIS TAN;
0114108520999992013010923504+48433+010933AUTO +0477EDMA V0202801N002612200019N0021001N1+00101+00101999999ADDAW1741MA1101591999999REMMET081METAR EDMA 092350Z AUTO 28005KT 2100NDV -PL ////// 01/01 Q1016 RESN RMK ATIS UNI;
0099108520999992013011000204+48433+010933AUTO +0477EDMA V0202201N001512200019N0021001N1+00101+00101999999ADDMA1101491999999REMMET072METAR EDMA 100020Z AUTO 22003KT 2100NDV ////// 01/01 Q1015 RMK ATIS VIC;
0109108520999992013011000504+48433+010933AUTO +0477EDMA V0202401N002112200019N0021001N1+00101+00101999999ADDAW1511MA1101591999999REMMET076METAR EDMA 100050Z AUTO 24004KT 2100NDV -DZ ////// 01/01 Q1016 RMK ATIS WHI;
0109108520999992013011001204+48433+010933AUTO +0477EDMA V0202501N002612200019N0021001N1+00101+00101999999ADDAW1511MA1101591999999REMMET076METAR EDMA 100120Z AUTO 25005KT 2100NDV -DZ ////// 01/01 Q1016 RMK ATIS X-R;
0107108520999992013011001504+48433+010933AUTO +0477EDMA V0202501N002112200019N0021001N1+00101+00101999999ADDMA1101491999999REMMET080METAR EDMA 100150Z AUTO 25004KT 210V280 2100NDV ////// 01/01 Q1015 RMK ATIS YAN;
0099108520999992013011002204+48433+010933AUTO +0477EDMA V0202601N002612200019N0021001N1+00101+00101999999ADDMA1101491999999REMMET072METAR EDMA 100220Z AUTO 26005KT 2100NDV ////// 01/01 Q1015 RMK ATIS ZUL;
0099108520999992013011002504+48433+010933AUTO +0477EDMA V0202501N002112200019N0021001N1+00101+00101999999ADDMA1101491999999REMMET072METAR EDMA 100250Z AUTO 25004KT 2100NDV ////// 01/01 Q1015 RMK ATIS ALF;
0099108520999992013011003204+48433+010933AUTO +0477EDMA V0202401N002612200019N0021001N1+00101+00101999999ADDMA1101491999999REMMET072METAR EDMA 100320Z AUTO 24005KT 2100NDV ////// 01/01 Q1015 RMK ATIS BRA;
0099108520999992013011003504+48433+010933AUTO +0477EDMA V0202501N002612200019N0021001N1+00101+00101999999ADDMA1101491999999REMMET072METAR EDMA 100350Z AUTO 25005KT 2100NDV ////// 01/01 Q1015 RMK ATIS CHA;
0099108520999992013011004204+48433+010933AUTO +0477EDMA V0202601N003612200019N0021001N1+00101+00101999999ADDMA1101491999999REMMET072METAR EDMA 100420Z AUTO 26007KT 2100NDV ////// 01/01 Q1015 RMK ATIS DEL;
0117108520999992013011004504+48433+010933FM-15+0477EDMA V0202601N004110012019N0070001N1+00101+00101999999ADDGF108991999999999999999999MA1101391999999REMMET064METAR EDMA 100450Z 26008KT 7000 OVC004 01/01 Q1014 RMK ATIS ECH;
0117108520999992013011005204+48433+010933FM-15+0477EDMA V0202601N004110012019N0070001N1+00101+00101999999ADDGF108991999999999999999999MA1101391999999REMMET064METAR EDMA 100520Z 26008KT 7000 OVC004 01/01 Q1014 RMK ATIS FOX;
0117108520999992013011005504+48433+010933FM-15+0477EDMA V0202501N003610012019N0070001N1+00101+00101999999ADDGF108991999999999999999999MA1101391999999REMMET064METAR EDMA 100550Z 25007KT 7000 OVC004 01/01 Q1014 RMK ATIS GOL;
0117108520999992013011006204+48433+010933FM-15+0477EDMA V0202601N003610012019N0060001N1+00101+00101999999ADDGF108991999999999999999999MA1101391999999REMMET064METAR EDMA 100620Z 26007KT 6000 OVC004 01/01 Q1014 RMK ATIS HOT;
0126108520999992013011006504+48433+010933FM-15+0477EDMA V0202601N003110018019N0050001N1+00101+00101999999ADDGF108991999999999999999999MA1101391999999MW1101REMMET067METAR EDMA 100650Z 26006KT 5000 BR OVC006 01/01 Q1014 RMK ATIS IND;
0126108520999992013011007204+48433+010933FM-15+0477EDMA V0202701N003110012019N0050001N1+00101+00101999999ADDGF108991999999999999999999MA1101391999999MW1101REMMET067METAR EDMA 100720Z 27006KT 5000 BR OVC004 01/01 Q1014 RMK ATIS JUL;
0126108520999992013011007504+48433+010933FM-15+0477EDMA V0202801N003110012019N0050001N1+00201+00201999999ADDGF108991999999999999999999MA1101391999999MW1101REMMET067METAR EDMA 100750Z 28006KT 5000 BR OVC004 02/02 Q1014 RMK ATIS KIL;
0117108520999992013011008204+48433+010933FM-15+0477EDMA V0202701N002610018019N0070001N1+00201+00201999999ADDGF108991999999999999999999MA1101391999999REMMET064METAR EDMA 100820Z 27005KT 7000 OVC006 02/02 Q1014 RMK ATIS LIM;
0125108520999992013011008504+48433+010933FM-15+0477EDMA V0202801N003110015019N0060001N1+00201+00201999999ADDGF108991999999999999999999MA1101391999999REMMET072METAR EDMA 100850Z 28006KT 250V310 6000 OVC005 02/02 Q1014 RMK ATIS MIK;
0125108520999992013011009204+48433+010933FM-15+0477EDMA V0202401N003610015019N0060001N1+00201+00201999999ADDGF108991999999999999999999MA1101391999999REMMET072METAR EDMA 100920Z 24007KT 220V280 6000 OVC005 02/02 Q1014 RMK ATIS NOV;
0117108520999992013011009504+48433+010933FM-15+0477EDMA V0202501N003110015019N0060001N1+00201+00201999999ADDGF108991999999999999999999MA1101391999999REMMET064METAR EDMA 100950Z 25006KT 6000 OVC005 02/02 Q1014 RMK ATIS OSC;
0117108520999992013011010204+48433+010933FM-15+0477EDMA V0202501N003110021019N0080001N1+00301+00201999999ADDGF108991999999999999999999MA1101291999999REMMET064METAR EDMA 101020Z 25006KT 8000 OVC007 03/02 Q1013 RMK ATIS PAP;
0117108520999992013011010504+48433+010933FM-15+0477EDMA V0202601N003610024019N0080001N1+00301+00201999999ADDGF108991999999999999999999MA1101291999999REMMET064METAR EDMA 101050Z 26007KT 8000 OVC008 03/02 Q1013 RMK ATIS QUE;
0117108520999992013011011204+48433+010933FM-15+0477EDMA V0202701N005110024019N0090001N1+00301+00201999999ADDGF108991999999999999999999MA1101291999999REMMET064METAR EDMA 101120Z 27010KT 9000 OVC008 03/02 Q1013 RMK ATIS ROM;
