0092108600999992015010100204+48716+011534FM-15+036699999V0202601N001519999999N999999999+00001-00101999999ADDMA1103501999999REMMET065METAR ETSI 010020Z AUTO 26003KT //// // ////// M00/M01 Q1035 ///=
0092108600999992015010101204+48716+011534FM-15+036699999V0202401N001519999999N999999999-00101-00101999999ADDMA1103501999999REMMET065METAR ETSI 010120Z AUTO 24003KT //// // ////// M01/M01 Q1035 ///=
0092108600999992015010102204+48716+011534FM-15+036699999V0202201N001519999999N999999999+00001-00101999999ADDMA1103501999999REMMET065METAR ETSI 010220Z AUTO 22003KT //// // ////// M00/M01 Q1035 ///=
0092108600999992015010103204+48716+011534FM-15+036699999V0202801N001519999999N999999999-00101-00101999999ADDMA1103501999999REMMET065METAR ETSI 010320Z AUTO 28003KT //// // ////// M01/M01 Q1035 ///=
0092108600999992015010104204+48716+011534FM-15+036699999V0202101N001019999999N999999999-00101-00201999999ADDMA1103501999999REMMET065METAR ETSI 010420Z AUTO 21002KT //// // ////// M01/M02 Q1035 ///=
0092108600999992015010105204+48716+011534FM-15+036699999V0201901N001519999999N999999999-00101-00201999999ADDMA1103501999999REMMET065METAR ETSI 010520Z AUTO 19003KT //// // ////// M01/M02 Q1035 ///=
0092108600999992015010106204+48716+011534FM-15+036699999V0202501N002119999999N999999999-00101-00201999999ADDMA1103501999999REMMET065METAR ETSI 010620Z AUTO 25004KT //// // ////// M01/M02 Q1035 ///=
0092108600999992015010107204+48716+011534FM-15+036699999V0209999V000519999999N999999999-00101-00101999999ADDMA1103601999999REMMET065METAR ETSI 010720Z AUTO VRB01KT //// // ////// M01/M01 Q1036 ///=
0092108600999992015010108204+48716+011534FM-15+036699999V0202401N000519999999N999999999-00101-00101999999ADDMA1103601999999REMMET065METAR ETSI 010820Z AUTO 24001KT //// // ////// M01/M01 Q1036 ///=
0092108600999992015010109204+48716+011534FM-15+036699999V0203101N002119999999N999999999+00001-00101999999ADDMA1103701999999REMMET065METAR ETSI 010920Z AUTO 31004KT //// // ////// M00/M01 Q1037 ///=
0092108600999992015010110204+48716+011534FM-15+036699999V0203001N001519999999N999999999+00001+00001999999ADDMA1103701999999REMMET065METAR ETSI 011020Z AUTO 30003KT //// // ////// M00/M00 Q1037 ///=
0092108600999992015010111204+48716+011534FM-15+036699999V0202501N002619999999N999999999+00001+00001999999ADDMA1103601999999REMMET065METAR ETSI 011120Z AUTO 25005KT //// // ////// M00/M00 Q1036 ///=
0091108600999992015010112204+48716+011534FM-15+036699999V0202501N001519999999N999999999+00001+00001999999ADDMA1103501999999REMMET064METAR ETSI 011220Z AUTO 25003KT //// // ////// 00/M00 Q1035 ///=
0091108600999992015010113204+48716+011534FM-15+036699999V0202501N002619999999N999999999+00001+00001999999ADDMA1103501999999REMMET064METAR ETSI 011320Z AUTO 25005KT //// // ////// 00/M00 Q1035 ///=
0091108600999992015010114204+48716+011534FM-15+036699999V0202701N001519999999N999999999+00001+00001999999ADDMA1103501999999REMMET064METAR ETSI 011420Z AUTO 27003KT //// // ////// 00/M00 Q1035 ///=
0091108600999992015010115204+48716+011534FM-15+036699999V0202901N001519999999N999999999+00001-00101999999ADDMA1103601999999REMMET064METAR ETSI 011520Z AUTO 29003KT //// // ////// 00/M01 Q1036 ///=
0092108600999992015010116204+48716+011534FM-15+036699999V0202601N002119999999N999999999+00001-00101999999ADDMA1103501999999REMMET065METAR ETSI 011620Z AUTO 26004KT //// // ////// M00/M01 Q1035 ///=
0092108600999992015010117204+48716+011534FM-15+036699999V0203001N001519999999N999999999+00001-00101999999ADDMA1103601999999REMMET065METAR ETSI 011720Z AUTO 30003KT //// // ////// M00/M01 Q1036 ///=
0092108600999992015010118204+48716+011534FM-15+036699999V0202301N001519999999N999999999-00101-00201999999ADDMA1103601999999REMMET065METAR ETSI 011820Z AUTO 23003KT //// // ////// M01/M02 Q1036 ///=
0092108600999992015010119204+48716+011534FM-15+036699999V0202301N001519999999N999999999-00101-00201999999ADDMA1103501999999REMMET065METAR ETSI 011920Z AUTO 23003KT //// // ////// M01/M02 Q1035 ///=
0092108600999992015010120204+48716+011534FM-15+036699999V0202401N002119999999N999999999-00101-00201999999ADDMA1103501999999REMMET065METAR ETSI 012020Z AUTO 24004KT //// // ////// M01/M02 Q1035 ///=
0092108600999992015010121204+48716+011534FM-15+036699999V0202101N002619999999N999999999-00201-00201999999ADDMA1103501999999REMMET065METAR ETSI 012120Z AUTO 21005KT //// // ////// M02/M02 Q1035 ///=
0092108600999992015010122204+48716+011534FM-15+036699999V0202101N003119999999N999999999-00201-00301999999ADDMA1103401999999REMMET065METAR ETSI 012220Z AUTO 21006KT //// // ////// M02/M03 Q1034 ///=
0092108600999992015010123204+48716+011534FM-15+036699999V0202501N003119999999N999999999-00301-00301999999ADDMA1103401999999REMMET065METAR ETSI 012320Z AUTO 25006KT //// // ////// M03/M03 Q1034 ///=
0092108600999992015010200204+48716+011534FM-15+036699999V0202001N002619999999N999999999-00301-00401999999ADDMA1103301999999REMMET065METAR ETSI 020020Z AUTO 20005KT //// // ////// M03/M04 Q1033 ///=
0092108600999992015010201204+48716+011534FM-15+036699999V0202201N002619999999N999999999-00301-00401999999ADDMA1103301999999REMMET065METAR ETSI 020120Z AUTO 22005KT //// // ////// M03/M04 Q1033 ///=
0092108600999992015010202204+48716+011534FM-15+036699999V0202401N004119999999N999999999-00301-00401999999ADDMA1103201999999REMMET065METAR ETSI 020220Z AUTO 24008KT //// // ////// M03/M04 Q1032 ///=
0092108600999992015010203204+48716+011534FM-15+036699999V0202401N003619999999N999999999-00401-00501999999ADDMA1103201999999REMMET065METAR ETSI 020320Z AUTO 24007KT //// // ////// M04/M05 Q1032 ///=
0092108600999992015010204204+48716+011534FM-15+036699999V0202401N002619999999N999999999-00401-00501999999ADDMA1103201999999REMMET065METAR ETSI 020420Z AUTO 24005KT //// // ////// M04/M05 Q1032 ///=
0092108600999992015010205204+48716+011534FM-15+036699999V0201901N003619999999N999999999-00401-00501999999ADDMA1103101999999REMMET065METAR ETSI 020520Z AUTO 19007KT //// // ////// M04/M05 Q1031 ///=
0092108600999992015010206204+48716+011534FM-15+036699999V0202301N001019999999N999999999-00501-00601999999ADDMA1103101999999REMMET065METAR ETSI 020620Z AUTO 23002KT //// // ////// M05/M06 Q1031 ///=
0092108600999992015010207204+48716+011534FM-15+036699999V0209999V001019999999N999999999-00601-00701999999ADDMA1103101999999REMMET065METAR ETSI 020720Z AUTO VRB02KT //// // ////// M06/M07 Q1031 ///=
0092108600999992015010208204+48716+011534FM-15+036699999V0209999V001019999999N999999999-00501-00601999999ADDMA1103101999999REMMET065METAR ETSI 020820Z AUTO VRB02KT //// // ////// M05/M06 Q1031 ///=
0092108600999992015010209204+48716+011534FM-15+036699999V0202601N000519999999N999999999-00301-00501999999ADDMA1103101999999REMMET065METAR ETSI 020920Z AUTO 26001KT //// // ////// M03/M05 Q1031 ///=
0092108600999992015010210204+48716+011534FM-15+036699999V0202401N002119999999N999999999-00101-00301999999ADDMA1103001999999REMMET065METAR ETSI 021020Z AUTO 24004KT //// // ////// M01/M03 Q1030 ///=
0091108600999992015010211204+48716+011534FM-15+036699999V0202801N002619999999N999999999+00101+00001999999ADDMA1102901999999REMMET064METAR ETSI 021120Z AUTO 28005KT //// // ////// 01/M00 Q1029 ///=
0090108600999992015010212204+48716+011534FM-15+036699999V0202501N003619999999N999999999+00101+00001999999ADDMA1102901999999REMMET063METAR ETSI 021220Z AUTO 25007KT //// // ////// 01/00 Q1029 ///=
0090108600999992015010213204+48716+011534FM-15+036699999V0202601N005119999999N999999999+00201+00101999999ADDMA1102901999999REMMET063METAR ETSI 021320Z AUTO 26010KT //// // ////// 02/01 Q1029 ///=
0090108600999992015010214204+48716+011534FM-15+036699999V0202601N004119999999N999999999+00201+00101999999ADDMA1102901999999REMMET063METAR ETSI 021420Z AUTO 26008KT //// // ////// 02/01 Q1029 ///=
0090108600999992015010215204+48716+011534FM-15+036699999V0202601N004619999999N999999999+00201+00101999999ADDMA1103001999999REMMET063METAR ETSI 021520Z AUTO 26009KT //// // ////// 02/01 Q1030 ///=
0090108600999992015010216204+48716+011534FM-15+036699999V0202601N005719999999N999999999+00201+00201999999ADDMA1103001999999REMMET063METAR ETSI 021620Z AUTO 26011KT //// // ////// 02/02 Q1030 ///=
0090108600999992015010217204+48716+011534FM-15+036699999V0202601N005119999999N999999999+00201+00101999999ADDMA1103101999999REMMET063METAR ETSI 021720Z AUTO 26010KT //// // ////// 02/01 Q1031 ///=
0090108600999992015010218204+48716+011534FM-15+036699999V0202501N006219999999N999999999+00201+00101999999ADDMA1103101999999REMMET063METAR ETSI 021820Z AUTO 25012KT //// // ////// 02/01 Q1031 ///=
0090108600999992015010219204+48716+011534FM-15+036699999V0202601N005119999999N999999999+00201+00101999999ADDMA1103201999999REMMET063METAR ETSI 021920Z AUTO 26010KT //// // ////// 02/01 Q1032 ///=
0090108600999992015010220204+48716+011534FM-15+036699999V0202701N004119999999N999999999+00201+00201999999ADDMA1103301999999REMMET063METAR ETSI 022020Z AUTO 27008KT //// // ////// 02/02 Q1033 ///=
0090108600999992015010221204+48716+011534FM-15+036699999V0202601N004619999999N999999999+00201+00101999999ADDMA1103301999999REMMET063METAR ETSI 022120Z AUTO 26009KT //// // ////// 02/01 Q1033 ///=
0090108600999992015010222204+48716+011534FM-15+036699999V0202601N004619999999N999999999+00201+00201999999ADDMA1103301999999REMMET063METAR ETSI 022220Z AUTO 26009KT //// // ////// 02/02 Q1033 ///=
0090108600999992015010223204+48716+011534FM-15+036699999V0202801N004119999999N999999999+00201+00101999999ADDMA1103301999999REMMET063METAR ETSI 022320Z AUTO 28008KT //// // ////// 02/01 Q1033 ///=
0091108600999992015010300204+48716+011534FM-15+036699999V0202701N004119999999N999999999+00201-00101999999ADDMA1103301999999REMMET064METAR ETSI 030020Z AUTO 27008KT //// // ////// 02/M01 Q1033 ///=
0091108600999992015010301204+48716+011534FM-15+036699999V0202501N003119999999N999999999+00101-00101999999ADDMA1103301999999REMMET064METAR ETSI 030120Z AUTO 25006KT //// // ////// 01/M01 Q1033 ///=
0091108600999992015010302204+48716+011534FM-15+036699999V0202501N003619999999N999999999+00101-00101999999ADDMA1103301999999REMMET064METAR ETSI 030220Z AUTO 25007KT //// // ////// 01/M01 Q1033 ///=
0091108600999992015010303204+48716+011534FM-15+036699999V0202401N003619999999N999999999+00001-00101999999ADDMA1103301999999REMMET064METAR ETSI 030320Z AUTO 24007KT //// // ////// 00/M01 Q1033 ///=
0091108600999992015010304204+48716+011534FM-15+036699999V0202501N003119999999N999999999+00001-00101999999ADDMA1103301999999REMMET064METAR ETSI 030420Z AUTO 25006KT //// // ////// 00/M01 Q1033 ///=
0092108600999992015010305204+48716+011534FM-15+036699999V0202501N003119999999N999999999+00001-00101999999ADDMA1103201999999REMMET065METAR ETSI 030520Z AUTO 25006KT //// // ////// M00/M01 Q1032 ///=
0091108600999992015010306204+48716+011534FM-15+036699999V0202401N002119999999N999999999+00001+00001999999ADDMA1103101999999REMMET064METAR ETSI 030620Z AUTO 24004KT //// // ////// 00/M00 Q1031 ///=
0091108600999992015010307204+48716+011534FM-15+036699999V0202501N002119999999N999999999+00001+00001999999ADDMA1103101999999REMMET064METAR ETSI 030720Z AUTO 25004KT //// // ////// 00/M00 Q1031 ///=
0091108600999992015010308204+48716+011534FM-15+036699999V0202801N001519999999N999999999+00101+00001999999ADDMA1103001999999REMMET064METAR ETSI 030820Z AUTO 28003KT //// // ////// 01/M00 Q1030 ///=
0091108600999992015010309204+48716+011534FM-15+036699999V0209999V000519999999N999999999+00101+00001999999ADDMA1102901999999REMMET064METAR ETSI 030920Z AUTO VRB01KT //// // ////// 01/M00 Q1029 ///=
0090108600999992015010310204+48716+011534FM-15+036699999V0202301N001519999999N999999999+00201+00001999999ADDMA1102701999999REMMET063METAR ETSI 031020Z AUTO 23003KT //// // ////// 02/00 Q1027 ///=
0090108600999992015010311204+48716+011534FM-15+036699999V0203101N001019999999N999999999+00301+00001999999ADDMA1102601999999REMMET063METAR ETSI 031120Z AUTO 31002KT //// // ////// 03/00 Q1026 ///=
0090108600999992015010312204+48716+011534FM-15+036699999V0202401N002119999999N999999999+00201+00001999999ADDMA1102401999999REMMET063METAR ETSI 031220Z AUTO 24004KT //// // ////// 02/00 Q1024 ///=
0090108600999992015010313204+48716+011534FM-15+036699999V0202401N004119999999N999999999+00101+00001999999ADDMA1102301999999REMMET063METAR ETSI 031320Z AUTO 24008KT //// // ////// 01/00 Q1023 ///=
0091108600999992015010314204+48716+011534FM-15+036699999V0202301N001519999999N999999999+00001+00001999999ADDMA1102101999999REMMET064METAR ETSI 031420Z AUTO 23003KT //// // ////// 00/M00 Q1021 ///=
0091108600999992015010315204+48716+011534FM-15+036699999V0201501N000519999999N999999999+00001+00001999999ADDMA1101901999999REMMET064METAR ETSI 031520Z AUTO 15001KT //// // ////// 00/M00 Q1019 ///=
0090108600999992015010316204+48716+011534FM-15+036699999V0202601N000519999999N999999999+00001+00001999999ADDMA1101801999999REMMET063METAR ETSI 031620Z AUTO 26001KT //// // ////// 00/00 Q1018 ///=
0090108600999992015010317204+48716+011534FM-15+036699999V0202101N001019999999N999999999+00001+00001999999ADDMA1101701999999REMMET063METAR ETSI 031720Z AUTO 21002KT //// // ////// 00/00 Q1017 ///=
0090108600999992015010318204+48716+011534FM-15+036699999V0201801N001019999999N999999999+00001+00001999999ADDMA1101601999999REMMET063METAR ETSI 031820Z AUTO 18002KT //// // ////// 00/00 Q1016 ///=
0090108600999992015010319204+48716+011534FM-15+036699999V0201001N001519999999N999999999+00001+00001999999ADDMA1101401999999REMMET063METAR ETSI 031920Z AUTO 10003KT //// // ////// 00/00 Q1014 ///=
0090108600999992015010320204+48716+011534FM-15+036699999V0209999V001019999999N999999999+00001+00001999999ADDMA1101401999999REMMET063METAR ETSI 032020Z AUTO VRB02KT //// // ////// 00/00 Q1014 ///=
0090108600999992015010321204+48716+011534FM-15+036699999V0202601N001519999999N999999999+00101+00001999999ADDMA1101401999999REMMET063METAR ETSI 032120Z AUTO 26003KT //// // ////// 01/00 Q1014 ///=
0090108600999992015010322204+48716+011534FM-15+036699999V0202801N002119999999N999999999+00101+00101999999ADDMA1101601999999REMMET063METAR ETSI 032220Z AUTO 28004KT //// // ////// 01/01 Q1016 ///=
0090108600999992015010323204+48716+011534FM-15+036699999V0203001N003619999999N999999999+00101+00101999999ADDMA1101901999999REMMET063METAR ETSI 032320Z AUTO 30007KT //// // ////// 01/01 Q1019 ///=
0090108600999992015010400204+48716+011534FM-15+036699999V0202401N002619999999N999999999+00101+00001999999ADDMA1102001999999REMMET063METAR ETSI 040020Z AUTO 24005KT //// // ////// 01/00 Q1020 ///=
0090108600999992015010401204+48716+011534FM-15+036699999V0202601N004119999999N999999999+00101+00001999999ADDMA1102201999999REMMET063METAR ETSI 040120Z AUTO 26008KT //// // ////// 01/00 Q1022 ///=
0090108600999992015010402204+48716+011534FM-15+036699999V0202701N004619999999N999999999+00101+00001999999ADDMA1102301999999REMMET063METAR ETSI 040220Z AUTO 27009KT //// // ////// 01/00 Q1023 ///=
0090108600999992015010403204+48716+011534FM-15+036699999V0203001N006719999999N999999999+00101+00001999999ADDMA1102401999999REMMET063METAR ETSI 040320Z AUTO 30013KT //// // ////// 01/00 Q1024 ///=
0091108600999992015010404204+48716+011534FM-15+036699999V0202901N004119999999N999999999+00101+00001999999ADDMA1102501999999REMMET064METAR ETSI 040420Z AUTO 29008KT //// // ////// 01/M00 Q1025 ///=
0091108600999992015010405204+48716+011534FM-15+036699999V0203001N004619999999N999999999+00201+00001999999ADDMA1102501999999REMMET064METAR ETSI 040520Z AUTO 30009KT //// // ////// 02/M00 Q1025 ///=
0091108600999992015010406204+48716+011534FM-15+036699999V0203001N006719999999N999999999+00201-00101999999ADDMA1102601999999REMMET064METAR ETSI 040620Z AUTO 30013KT //// // ////// 02/M01 Q1026 ///=
0091108600999992015010407204+48716+011534FM-15+036699999V0202801N002619999999N999999999+00101-00101999999ADDMA1102701999999REMMET064METAR ETSI 040720Z AUTO 28005KT //// // ////// 01/M01 Q1027 ///=
0091108600999992015010408204+48716+011534FM-15+036699999V0202601N003619999999N999999999+00101-00101999999ADDMA1102801999999REMMET064METAR ETSI 040820Z AUTO 26007KT //// // ////// 01/M01 Q1028 ///=
0091108600999992015010409204+48716+011534FM-15+036699999V0202701N004619999999N999999999+00101-00101999999ADDMA1102901999999REMMET064METAR ETSI 040920Z AUTO 27009KT //// // ////// 01/M01 Q1029 ///=
0091108600999992015010410204+48716+011534FM-15+036699999V0202701N005719999999N999999999+00201-00101999999ADDMA1103001999999REMMET064METAR ETSI 041020Z AUTO 27011KT //// // ////// 02/M01 Q1030 ///=
0091108600999992015010411204+48716+011534FM-15+036699999V0202601N005719999999N999999999+00201-00101999999ADDMA1103001999999REMMET064METAR ETSI 041120Z AUTO 26011KT //// // ////// 02/M01 Q1030 ///=
0091108600999992015010412204+48716+011534FM-15+036699999V0202701N005119999999N999999999+00201-00101999999ADDMA1103001999999REMMET064METAR ETSI 041220Z AUTO 27010KT //// // ////// 02/M01 Q1030 ///=
0193108600999992015010412564+48716+011534FM-16+036699999V0202701N005710054919N009999199+00201-00101999999ADDGA1021+003661999GA2071+005491999GA3081+016761999GE19MSL   +99999+99999GF199999021999003661999999MA1103001999999REMMET070SPECI ETSI 041256Z 27011KT 9999 FEW012 BKN018 OVC055 02/M01 Q1030 WHT=
0193108600999992015010413204+48716+011534FM-15+036699999V0202801N00511009141CN009999199+00201-00101999999ADDGA1021+003661999GA2041+009141999GA3071+014631999GE19MSL   +99999+99999GF199999021999003661999999MA1103001999999REMMET070METAR ETSI 041320Z 28010KT 9999 FEW012 SCT030 BKN048 02/M01 Q1030 BLU=
0170108600999992015010414204+48716+011534FM-15+036699999V0202701N004610167619N009999199+00201-00101999999ADDGA1021+004571999GA2071+016761999GE19MSL   +99999+99999GF199999021999004571999999MA1103001999999REMMET063METAR ETSI 041420Z 27009KT 9999 FEW015 BKN055 02/M01 Q1030 BLU=
0091108600999992015010415204+48716+011534FM-15+036699999V0202901N006219999999N999999999+00201-00101999999ADDMA1103101999999REMMET064METAR ETSI 041520Z AUTO 29012KT //// // ////// 02/M01 Q1031 ///=
0091108600999992015010416204+48716+011534FM-15+036699999V0202901N004619999999N999999999+00201-00101999999ADDMA1103201999999REMMET064METAR ETSI 041620Z AUTO 29009KT //// // ////// 02/M01 Q1032 ///=
0091108600999992015010417204+48716+011534FM-15+036699999V0202801N003619999999N999999999+00201-00101999999ADDMA1103201999999REMMET064METAR ETSI 041720Z AUTO 28007KT //// // ////// 02/M01 Q1032 ///=
0091108600999992015010418204+48716+011534FM-15+036699999V0202801N004119999999N999999999+00201-00101999999ADDMA1103201999999REMMET064METAR ETSI 041820Z AUTO 28008KT //// // ////// 02/M01 Q1032 ///=
0091108600999992015010419204+48716+011534FM-15+036699999V0202801N004619999999N999999999+00201-00101999999ADDMA1103301999999REMMET064METAR ETSI 041920Z AUTO 28009KT //// // ////// 02/M01 Q1033 ///=
0091108600999992015010420204+48716+011534FM-15+036699999V0202801N004119999999N999999999+00201-00101999999ADDMA1103301999999REMMET064METAR ETSI 042020Z AUTO 28008KT //// // ////// 02/M01 Q1033 ///=
0091108600999992015010421204+48716+011534FM-15+036699999V0202801N004619999999N999999999+00201-00101999999ADDMA1103301999999REMMET064METAR ETSI 042120Z AUTO 28009KT //// // ////// 02/M01 Q1033 ///=
0091108600999992015010422204+48716+011534FM-15+036699999V0202701N004119999999N999999999+00201-00101999999ADDMA1103401999999REMMET064METAR ETSI 042220Z AUTO 27008KT //// // ////// 02/M01 Q1034 ///=
0091108600999992015010423204+48716+011534FM-15+036699999V0202701N003119999999N999999999+00201-00101999999ADDMA1103401999999REMMET064METAR ETSI 042320Z AUTO 27006KT //// // ////// 02/M01 Q1034 ///=
0091108600999992015010500204+48716+011534FM-15+036699999V0202501N004619999999N999999999+00101-00101999999ADDMA1103401999999REMMET064METAR ETSI 050020Z AUTO 25009KT //// // ////// 01/M01 Q1034 ///=
0091108600999992015010501204+48716+011534FM-15+036699999V0202601N004119999999N999999999+00101-00101999999ADDMA1103401999999REMMET064METAR ETSI 050120Z AUTO 26008KT //// // ////// 01/M01 Q1034 ///=
0091108600999992015010502204+48716+011534FM-15+036699999V0202801N004619999999N999999999+00201-00101999999ADDMA1103401999999REMMET064METAR ETSI 050220Z AUTO 28009KT //// // ////// 02/M01 Q1034 ///=
0091108600999992015010503204+48716+011534FM-15+036699999V0202801N004619999999N999999999+00101-00101999999ADDMA1103401999999REMMET064METAR ETSI 050320Z AUTO 28009KT //// // ////// 01/M01 Q1034 ///=
0091108600999992015010504204+48716+011534FM-15+036699999V0202601N004119999999N999999999+00101-00101999999ADDMA1103301999999REMMET064METAR ETSI 050420Z AUTO 26008KT //// // ////// 01/M01 Q1033 ///=
0091108600999992015010505204+48716+011534FM-15+036699999V0202701N003619999999N999999999+00101-00101999999ADDMA1103401999999REMMET064METAR ETSI 050520Z AUTO 27007KT //// // ////// 01/M01 Q1034 ///=
0091108600999992015010506204+48716+011534FM-15+036699999V0202701N002619999999N999999999+00101-00101999999ADDMA1103401999999REMMET064METAR ETSI 050620Z AUTO 27005KT //// // ////// 01/M01 Q1034 ///=
0091108600999992015010507204+48716+011534FM-15+036699999V0202701N003119999999N999999999+00101-00101999999ADDMA1103401999999REMMET064METAR ETSI 050720Z AUTO 27006KT //// // ////// 01/M01 Q1034 ///=
0091108600999992015010508204+48716+011534FM-15+036699999V0202701N003119999999N999999999+00001-00101999999ADDMA1103301999999REMMET064METAR ETSI 050820Z AUTO 27006KT //// // ////// 00/M01 Q1033 ///=
0091108600999992015010509204+48716+011534FM-15+036699999V0202601N004119999999N999999999+00101-00101999999ADDMA1103201999999REMMET064METAR ETSI 050920Z AUTO 26008KT //// // ////// 01/M01 Q1032 ///=
0091108600999992015010510204+48716+011534FM-15+036699999V0202501N005119999999N999999999+00101-00201999999ADDMA1103201999999REMMET064METAR ETSI 051020Z AUTO 25010KT //// // ////// 01/M02 Q1032 ///=
0091108600999992015010511204+48716+011534FM-15+036699999V0202601N004619999999N999999999+00101-00201999999ADDMA1103101999999REMMET064METAR ETSI 051120Z AUTO 26009KT //// // ////// 01/M02 Q1031 ///=
0091108600999992015010512204+48716+011534FM-15+036699999V0202601N004119999999N999999999+00201-00301999999ADDMA1103101999999REMMET064METAR ETSI 051220Z AUTO 26008KT //// // ////// 02/M03 Q1031 ///=
0091108600999992015010513204+48716+011534FM-15+036699999V0202601N004119999999N999999999+00201-00301999999ADDMA1103001999999REMMET064METAR ETSI 051320Z AUTO 26008KT //// // ////// 02/M03 Q1030 ///=
0091108600999992015010514204+48716+011534FM-15+036699999V0202701N004119999999N999999999+00301-00301999999ADDMA1103001999999REMMET064METAR ETSI 051420Z AUTO 27008KT //// // ////// 03/M03 Q1030 ///=
0091108600999992015010515204+48716+011534FM-15+036699999V0202601N004119999999N999999999+00201-00301999999ADDMA1102901999999REMMET064METAR ETSI 051520Z AUTO 26008KT //// // ////// 02/M03 Q1029 ///=
0092108600999992015010516204+48716+011534FM-15+036699999V0202601N002119999999N999999999+00001-00301999999ADDMA1102901999999REMMET065METAR ETSI 051620Z AUTO 26004KT //// // ////// M00/M03 Q1029 ///=
0092108600999992015010517204+48716+011534FM-15+036699999V0202001N000519999999N999999999-00201-00401999999ADDMA1103001999999REMMET065METAR ETSI 051720Z AUTO 20001KT //// // ////// M02/M04 Q1030 ///=
0092108600999992015010518204+48716+011534FM-15+036699999V0202401N001519999999N999999999-00401-00401999999ADDMA1103001999999REMMET065METAR ETSI 051820Z AUTO 24003KT //// // ////// M04/M04 Q1030 ///=
0092108600999992015010519204+48716+011534FM-15+036699999V0202301N001519999999N999999999-00301-00401999999ADDMA1103001999999REMMET065METAR ETSI 051920Z AUTO 23003KT //// // ////// M03/M04 Q1030 ///=
0092108600999992015010520204+48716+011534FM-15+036699999V0202501N001019999999N999999999-00101-00301999999ADDMA1102901999999REMMET065METAR ETSI 052020Z AUTO 25002KT //// // ////// M01/M03 Q1029 ///=
0092108600999992015010521204+48716+011534FM-15+036699999V0202401N001519999999N999999999-00101-00301999999ADDMA1102901999999REMMET065METAR ETSI 052120Z AUTO 24003KT //// // ////// M01/M03 Q1029 ///=
0092108600999992015010522204+48716+011534FM-15+036699999V0202601N001519999999N999999999-00101-00301999999ADDMA1102801999999REMMET065METAR ETSI 052220Z AUTO 26003KT //// // ////// M01/M03 Q1028 ///=
0092108600999992015010523204+48716+011534FM-15+036699999V0209999C000019999999N999999999-00101-00301999999ADDMA1102801999999REMMET065METAR ETSI 052320Z AUTO 00000KT //// // ////// M01/M03 Q1028 ///=
0092108600999992015010600204+48716+011534FM-15+036699999V0200701N000519999999N999999999-00201-00301999999ADDMA1102801999999REMMET065METAR ETSI 060020Z AUTO 07001KT //// // ////// M02/M03 Q1028 ///=
0092108600999992015010601204+48716+011534FM-15+036699999V0202801N001519999999N999999999-00101-00301999999ADDMA1102701999999REMMET065METAR ETSI 060120Z AUTO 28003KT //// // ////// M01/M03 Q1027 ///=
0092108600999992015010602204+48716+011534FM-15+036699999V0202901N000519999999N999999999-00101-00301999999ADDMA1102701999999REMMET065METAR ETSI 060220Z AUTO 29001KT //// // ////// M01/M03 Q1027 ///=
0092108600999992015010603204+48716+011534FM-15+036699999V0209999V000519999999N999999999-00201-00301999999ADDMA1102601999999REMMET065METAR ETSI 060320Z AUTO VRB01KT //// // ////// M02/M03 Q1026 ///=
0092108600999992015010604204+48716+011534FM-15+036699999V0200601N001019999999N999999999-00101-00201999999ADDMA1102601999999REMMET065METAR ETSI 060420Z AUTO 06002KT //// // ////// M01/M02 Q1026 ///=
0092108600999992015010605204+48716+011534FM-15+036699999V0200801N001019999999N999999999-00201-00301999999ADDMA1102601999999REMMET065METAR ETSI 060520Z AUTO 08002KT //// // ////// M02/M03 Q1026 ///=
0092108600999992015010606204+48716+011534FM-15+036699999V0203001N000519999999N999999999-00201-00201999999ADDMA1102601999999REMMET065METAR ETSI 060620Z AUTO 30001KT //// // ////// M02/M02 Q1026 ///=
0092108600999992015010607204+48716+011534FM-15+036699999V0200701N001019999999N999999999-00201-00301999999ADDMA1102601999999REMMET065METAR ETSI 060720Z AUTO 07002KT //// // ////// M02/M03 Q1026 ///=
0092108600999992015010608204+48716+011534FM-15+036699999V0200701N001019999999N999999999-00201-00301999999ADDMA1102601999999REMMET065METAR ETSI 060820Z AUTO 07002KT //// // ////// M02/M03 Q1026 ///=
0092108600999992015010609204+48716+011534FM-15+036699999V0200401N001019999999N999999999+00001-00201999999ADDMA1102601999999REMMET065METAR ETSI 060920Z AUTO 04002KT //// // ////// M00/M02 Q1026 ///=
0091108600999992015010610204+48716+011534FM-15+036699999V0200301N001019999999N999999999+00201-00301999999ADDMA1102501999999REMMET064METAR ETSI 061020Z AUTO 03002KT //// // ////// 02/M03 Q1025 ///=
0091108600999992015010611204+48716+011534FM-15+036699999V0200301N001519999999N999999999+00201-00201999999ADDMA1102501999999REMMET064METAR ETSI 061120Z AUTO 03003KT //// // ////// 02/M02 Q1025 ///=
0091108600999992015010612204+48716+011534FM-15+036699999V0200301N001519999999N999999999+00301-00201999999ADDMA1102401999999REMMET064METAR ETSI 061220Z AUTO 03003KT //// // ////// 03/M02 Q1024 ///=
0091108600999992015010613204+48716+011534FM-15+036699999V0200301N002119999999N999999999+00301-00201999999ADDMA1102401999999REMMET064METAR ETSI 061320Z AUTO 03004KT //// // ////// 03/M02 Q1024 ///=
0091108600999992015010614204+48716+011534FM-15+036699999V0200601N001519999999N999999999+00301-00101999999ADDMA1102401999999REMMET064METAR ETSI 061420Z AUTO 06003KT //// // ////// 03/M01 Q1024 ///=
0148108600999992015010615204+48716+011534FM-15+036699999V0200901N001510914419N009999199+00201-00201999999ADDGA1071+091441999GE19MSL   +99999+99999GF199999071999091441999999MA1102401999999REMMET057METAR ETSI 061520Z 09003KT 9999 BKN300 02/M02 Q1024 BLU+=
0148108600999992015010616204+48716+011534FM-15+036699999V0200701N001510853419N009999199+00101-00301999999ADDGA1071+085341999GE19MSL   +99999+99999GF199999071999085341999999MA1102401999999REMMET057METAR ETSI 061620Z 07003KT 9999 BKN280 01/M03 Q1024 BLU+=
0092108600999992015010617204+48716+011534FM-15+036699999V0200701N002619999999N999999999-00101-00301999999ADDMA1102401999999REMMET065METAR ETSI 061720Z AUTO 07005KT //// // ////// M01/M03 Q1024 ///=
0092108600999992015010618204+48716+011534FM-15+036699999V0200601N002119999999N999999999-00201-00201999999ADDMA1102501999999REMMET065METAR ETSI 061820Z AUTO 06004KT //// // ////// M02/M02 Q1025 ///=
0092108600999992015010619204+48716+011534FM-15+036699999V0200701N002619999999N999999999-00201-00301999999ADDMA1102401999999REMMET065METAR ETSI 061920Z AUTO 07005KT //// // ////// M02/M03 Q1024 ///=
0092108600999992015010620204+48716+011534FM-15+036699999V0200601N001019999999N999999999-00301-00401999999ADDMA1102501999999REMMET065METAR ETSI 062020Z AUTO 06002KT //// // ////// M03/M04 Q1025 ///=
0092108600999992015010621204+48716+011534FM-15+036699999V0200401N001019999999N999999999-00301-00301999999ADDMA1102501999999REMMET065METAR ETSI 062120Z AUTO 04002KT //// // ////// M03/M03 Q1025 ///=
0092108600999992015010622204+48716+011534FM-15+036699999V0200701N000519999999N999999999-00301-00401999999ADDMA1102501999999REMMET065METAR ETSI 062220Z AUTO 07001KT //// // ////// M03/M04 Q1025 ///=
0092108600999992015010623204+48716+011534FM-15+036699999V0200801N000519999999N999999999-00401-00401999999ADDMA1102501999999REMMET065METAR ETSI 062320Z AUTO 08001KT //// // ////// M04/M04 Q1025 ///=
0092108600999992015010700204+48716+011534FM-15+036699999V0201301N000519999999N999999999-00501-00501999999ADDMA1102501999999REMMET065METAR ETSI 070020Z AUTO 13001KT //// // ////// M05/M05 Q1025 ///=
0092108600999992015010701204+48716+011534FM-15+036699999V0202501N001019999999N999999999-00401-00401999999ADDMA1102601999999REMMET065METAR ETSI 070120Z AUTO 25002KT //// // ////// M04/M04 Q1026 ///=
0092108600999992015010702204+48716+011534FM-15+036699999V0202801N001519999999N999999999-00401-00401999999ADDMA1102601999999REMMET065METAR ETSI 070220Z AUTO 28003KT //// // ////// M04/M04 Q1026 ///=
0092108600999992015010703204+48716+011534FM-15+036699999V0202601N001519999999N999999999-00401-00501999999ADDMA1102601999999REMMET065METAR ETSI 070320Z AUTO 26003KT //// // ////// M04/M05 Q1026 ///=
0167108600999992015010704494+48716+011534FM-16+036699999V0202501N001510039619N005000199-00301-00301999999ADDGA1081+003961999GE19MSL   +99999+99999GF199999081999003961999999MA1102701999999MW1101MW2711REMMET064SPECI ETSI 070449Z 25003KT 5000 -SN BR OVC013 M03/M03 Q1027 GRN=
0186108600999992015010705204+48716+011534FM-15+036699999V0202601N000510039619N003000199-00301-00301999999ADDGA1081+003961999GE19MSL   +99999+99999GF199999081999003961999999MA1102701999999MW1101MW2711REMMET083METAR ETSI 070520Z 26001KT 3000 -SN BR OVC013 M03/M03 Q1027 YLO WHT      TEMPO YLO=
0186108600999992015010706204+48716+011534FM-15+036699999V0209999C000010039619N005000199-00201-00301999999ADDGA1081+003961999GE19MSL   +99999+99999GF199999081999003961999999MA1102701999999MW1101MW2711REMMET083METAR ETSI 070620Z 00000KT 5000 -SN BR OVC013 M02/M03 Q1027 GRN WHT      TEMPO YLO=
0142108600999992015010707204+48716+011534FM-15+036699999V0209999C000019999999N006000199+99999+99999999999ADDMA1102805999999MW1585MW2665REMMET084METAR ETSI 070720Z 00000KT 6000 -FZDZRA OVC014 M01/M02 Q1028 GRN WHT      TEMPO YLO=EQDD01      0ADE735
0186108600999992015010707394+48716+011534FM-16+036699999V0203501N001510042719N003000199-00101-00201999999ADDGA1081+004271999GE19MSL   +99999+99999GF199999081999004271999999MA1102801999999MW1101MW2711REMMET083SPECI ETSI 070739Z 35003KT 3000 -SN BR OVC014 M01/M02 Q1028 YLO WHT      TEMPO YLO=
0193108600999992015010707404+48716+011534FM-16+036699999V0203501N001510042719N003000199-00101-00201999999ADDGA1081+004271999GE19MSL   +99999+99999GF199999081999004271999999MA1102801999999MW1101MW2711REMMET090SPECI ETSI 070740Z 35003KT 3000 -SN BR OVC014 M01/M02 Q1028 REFZRA      YLO WHT TEMPO YLO=
0163108600999992015010708014+48716+011534FM-16+036699999V0203001N000519999999N002000199+99999+99999999999ADDMA1102905999999MW1105MW2715MW3775REMMET099SPECI ETSI 070801Z 30001KT 2000 -SNSG BR FEW006 OVC014 M01/M02 Q1029      REFZRA YLO WHT TEMPO YLO=EQDD01      0ADE735
0216108600999992015010708204+48716+011534FM-15+036699999V0202301N000510036619N002000199-00101-00101999999ADDGA1021+001521999GA2081+003661999GE19MSL   +99999+99999GF199999021999001521999999MA1102901999999MW1101MW2711REMMET097METAR ETSI 070820Z 23001KT 2000 -SN BR FEW005 OVC012 M01/M01 Q1029      REFZRA YLO WHT TEMPO YLO=
0169108600999992015010709204+48716+011534FM-15+036699999V0202401N001519999999N001800199+99999+99999999999ADDED125U99999MA1102905999999MW1105MW2715REMMET100METAR ETSI 070920Z 24003KT 1800 R25////// -SN BR SCT005 OVC013 M00/M01      Q1029 YLO WHT TEMPO YLO=EQDD01      0ADE735
0197108600999992015010710204+48716+011534FM-15+036699999V0202501N002610039619N004000199+00101+00001999999ADDGA1021+001521999GA2081+003961999GE19MSL   +99999+99999GF199999021999001521999999MA1102901999999MW1101REMMET084METAR ETSI 071020Z 25005KT 4000 BR FEW005 OVC013 01/00 Q1029 GRN WHT      TEMPO YLO=
0174108600999992015010711204+48716+011534FM-15+036699999V0202401N003610033519N005000199+00101+00001999999ADDGA1081+003351999GE19MSL   +99999+99999GF199999081999003351999999MA1102901999999MW1101REMMET077METAR ETSI 071120Z 24007KT 5000 BR OVC011 01/00 Q1029 GRN WHT TEMPO      YLO=
0188108600999992015010712204+48716+011534FM-15+036699999V0202501N003110030519N009000199+00101+00001999999ADDGA1071+003051999GA2081+004571999GE19MSL   +99999+99999GF199999071999003051999999MA1102901999999REMMET081METAR ETSI 071220Z 25006KT 9000 BKN010 OVC015 01/00 Q1029 GRN GRN BECMG      WHT=
0188108600999992015010713204+48716+011534FM-15+036699999V0202601N002610036619N009999199+00201+00001999999ADDGA1071+003661999GA2081+006101999GE19MSL   +99999+99999GF199999071999003661999999MA1102901999999REMMET081METAR ETSI 071320Z 26005KT 9999 BKN012 OVC020 02/00 Q1029 GRN GRN BECMG      WHT=
0201108600999992015010713494+48716+011534FM-16+036699999V0202801N003110048819N009999199+00201+00001999999ADDGA1041+003961999GA2071+004881999GA3071+007011999GE19MSL   +99999+99999GF199999041999003961999999MA1102901999999REMMET078SPECI ETSI 071349Z 28006KT 9999 SCT013 BKN016 BKN023 02/00 Q1029 WHT      WHT=
0174108600999992015010714204+48716+011534FM-15+036699999V0202701N002610051819N009999199+00201+00001999999ADDGA1041+003661999GA2071+005181999GE19MSL   +99999+99999GF199999041999003661999999MA1103001999999REMMET067METAR ETSI 071420Z 27005KT 9999 SCT012 BKN017 02/M00 Q1030 WHT WHT=
0189108600999992015010715204+48716+011534FM-15+036699999V0202501N002610070119N009999199+00101+00001999999ADDGA1021+004881999GA2071+007011999GE19MSL   +99999+99999GF199999021999004881999999MA1103001999999REMMET082METAR ETSI 071520Z 25005KT 9999 FEW016 BKN023 01/M00 Q1030 WHT WHT      TEMPO BLU=
0189108600999992015010716204+48716+011534FM-15+036699999V0202601N002110064019N009999199+00101+00001999999ADDGA1021+005181999GA2071+006401999GE19MSL   +99999+99999GF199999021999005181999999MA1103001999999REMMET082METAR ETSI 071620Z 26004KT 9999 FEW017 BKN021 01/M00 Q1030 WHT WHT      TEMPO BLU=
0159108600999992015010717004+48716+011534FM-16+036699999V0202301N001510051819N009999199+00101-00101999999ADDGA1071+005181999GE19MSL   +99999+99999GF199999071999005181999999MA1103001999999REMMET068SPECI ETSI 071700Z 23003KT 9999 BKN017 01/M01 Q1030 WHT FCST CANCEL=
0147108600999992015010717204+48716+011534FM-15+036699999V0202401N001510045719N009999199+00001-00101999999ADDGA1071+004571999GE19MSL   +99999+99999GF199999071999004571999999MA1103001999999REMMET056METAR ETSI 071720Z 24003KT 9999 BKN015 00/M01 Q1030 WHT=
0092108600999992015010718204+48716+011534FM-15+036699999V0202201N001519999999N999999999-00201-00201999999ADDMA1103101999999REMMET065METAR ETSI 071820Z AUTO 22003KT //// // ////// M02/M02 Q1031 ///=
0092108600999992015010719204+48716+011534FM-15+036699999V0201701N001019999999N999999999-00201-00201999999ADDMA1103101999999REMMET065METAR ETSI 071920Z AUTO 17002KT //// // ////// M02/M02 Q1031 ///=
0092108600999992015010720204+48716+011534FM-15+036699999V0202201N001019999999N999999999-00201-00201999999ADDMA1103101999999REMMET065METAR ETSI 072020Z AUTO 22002KT //// // ////// M02/M02 Q1031 ///=
0092108600999992015010721204+48716+011534FM-15+036699999V0200801N000519999999N999999999-00301-00301999999ADDMA1103101999999REMMET065METAR ETSI 072120Z AUTO 08001KT //// // ////// M03/M03 Q1031 ///=
0092108600999992015010722204+48716+011534FM-15+036699999V0201001N000519999999N999999999-00401-00401999999ADDMA1103001999999REMMET065METAR ETSI 072220Z AUTO 10001KT //// // ////// M04/M04 Q1030 ///=
0092108600999992015010723204+48716+011534FM-15+036699999V0200801N001019999999N999999999-00401-00401999999ADDMA1103001999999REMMET065METAR ETSI 072320Z AUTO 08002KT //// // ////// M04/M04 Q1030 ///=
0092108600999992015010800204+48716+011534FM-15+036699999V0209999C000019999999N999999999-00301-00301999999ADDMA1103001999999REMMET065METAR ETSI 080020Z AUTO 00000KT //// // ////// M03/M03 Q1030 ///=
0092108600999992015010801204+48716+011534FM-15+036699999V0202901N000519999999N999999999-00201-00201999999ADDMA1103001999999REMMET065METAR ETSI 080120Z AUTO 29001KT //// // ////// M02/M02 Q1030 ///=
0092108600999992015010802204+48716+011534FM-15+036699999V0202401N000519999999N999999999-00201-00201999999ADDMA1103001999999REMMET065METAR ETSI 080220Z AUTO 24001KT //// // ////// M02/M02 Q1030 ///=
0092108600999992015010803204+48716+011534FM-15+036699999V0202401N001019999999N999999999+00001-00101999999ADDMA1103001999999REMMET065METAR ETSI 080320Z AUTO 24002KT //// // ////// M00/M01 Q1030 ///=
0092108600999992015010804204+48716+011534FM-15+036699999V0209999V000519999999N002200199+00001+00001999999ADDMA1102901999999REMMET065METAR ETSI 080420Z AUTO VRB01KT 2200 // ////// M00/M00 Q1029 ///=
0199108600999992015010805204+48716+011534FM-15+036699999V0200901N000510121919N004000199+00001+00001999999ADDGA1041+002131999GA2071+012191999GE19MSL   +99999+99999GF199999041999002131999999MA1102901999999MW1101REMMET086METAR ETSI 080520Z 09001KT 4000 BR SCT007 BKN040 M00/M00 Q1029 GRN      GRN TEMPO YLO=
0231108600999992015010806204+48716+011534FM-15+036699999V0201001N001010121919N004000199+00001+00001999999ADDGA1021+002131999GA2071+012191999GA3071+018291999GE19MSL   +99999+99999GF199999021999002131999999MA1102901999999MW1101MW2611REMMET096METAR ETSI 080620Z 10002KT 4000 -RA BR FEW007 BKN040 BKN060 00/M00      Q1029 GRN GRN TEMPO YLO=
0197108600999992015010807204+48716+011534FM-15+036699999V0200201N000510213419N004500199+00101+00101999999ADDGA1041+009141999GA2071+021341999GE19MSL   +99999+99999GF199999041999009141999999MA1102901999999MW1101REMMET084METAR ETSI 080720Z 02001KT 4500 BR SCT030 BKN070 01/01 Q1029 GRN GRN      BECMG WHT=
0182108600999992015010807414+48716+011534FM-16+036699999V0209999V000510243819N005000199+00101+00101999999ADDGA1041+009141999GA2071+024381999GE19MSL   +99999+99999GF199999041999009141999999MA1102901999999MW1101REMMET069SPECI ETSI 080741Z VRB01KT 5000 BR SCT030 BKN080 01/01 Q1029 WHT WHT=
0188108600999992015010808204+48716+011534FM-15+036699999V0202601N000510243819N007000199+00101+00101999999ADDGA1021+009141999GA2071+024381999GE19MSL   +99999+99999GF199999021999009141999999MA1102901999999REMMET081METAR ETSI 080820Z 26001KT 7000 FEW030 BKN080 01/01 Q1029 WHT WHT BECMG      BLU=
0188108600999992015010809204+48716+011534FM-15+036699999V0203001N001010198119N008000199+00301+00101999999ADDGA1021+009141999GA2071+019811999GE19MSL   +99999+99999GF199999021999009141999999MA1102901999999REMMET081METAR ETSI 080920Z 30002KT 8000 FEW030 BKN065 03/01 Q1029 BLU BLU TEMPO      WHT=
0198108600999992015010810204+48716+011534FM-15+036699999V0202601N001510182919N009999199+00301+00201999999ADDGA1021+009141999GA2071+018291999GE19MSL   +99999+99999GF199999021999009141999999MA1102801999999MW1611REMMET085METAR ETSI 081020Z 26003KT 9999 -RA FEW030 BKN060 03/02 Q1028 BLU BLU      TEMPO WHT=
0188108600999992015010811204+48716+011534FM-15+036699999V0202501N001010121919N009999199+00401+00201999999ADDGA1071+012191999GA2071+019811999GE19MSL   +99999+99999GF199999071999012191999999MA1102701999999REMMET081METAR ETSI 081120Z 25002KT 9999 BKN040 BKN065 04/02 Q1027 BLU BLU TEMPO      WHT=
0173108600999992015010812204+48716+011534FM-15+036699999V0202601N003610137219N009999199+00501+00201999999ADDGA1021+009141999GA2071+013721999GE19MSL   +99999+99999GF199999021999009141999999MA1102701999999REMMET066METAR ETSI 081220Z 26007KT 9999 FEW030 BKN045 05/02 Q1027 BLU BLU=
0201108600999992015010813204+48716+011534FM-15+036699999V0202501N003610121919N009999199+00501+00201999999ADDGA1021+010671999GA2071+012191999GA3071+027431999GE19MSL   +99999+99999GF199999021999010671999999MA1102601999999REMMET078METAR ETSI 081320Z 25007KT 9999 FEW035 BKN040 BKN090 05/02 Q1026 BLU      BLU=
0150108600999992015010814204+48716+011534FM-15+036699999V0202601N002110128019N009999199+00401+00201999999ADDGA1071+012801999GE19MSL   +99999+99999GF199999071999012801999999MA1102601999999REMMET059METAR ETSI 081420Z 26004KT 9999 BKN042 04/02 Q1026 BLU BLU=
0173108600999992015010815204+48716+011534FM-15+036699999V0202301N000510152419N009999199+00401+00301999999ADDGA1071+015241999GA2071+018291999GE19MSL   +99999+99999GF199999071999015241999999MA1102601999999REMMET066METAR ETSI 081520Z 23001KT 9999 BKN050 BKN060 04/03 Q1026 BLU BLU=
0158108600999992015010816004+48716+011534FM-16+036699999V0202301N003110182919N009999199+00601+00201999999ADDGA1071+018291999GE19MSL   +99999+99999GF199999071999018291999999MA1102601999999REMMET067SPECI ETSI 081600Z 23006KT 9999 BKN060 06/02 Q1026 BLU FCST CANCEL=
0169108600999992015010816204+48716+011534FM-15+036699999V0202401N004110182919N009999199+00601+00201999999ADDGA1071+018291999GA2071+024381999GE19MSL   +99999+99999GF199999071999018291999999MA1102501999999REMMET062METAR ETSI 081620Z 24008KT 9999 BKN060 BKN080 06/02 Q1025 BLU=
0169108600999992015010817204+48716+011534FM-15+036699999V0202501N005110304819N009999199+00601+00201999999ADDGA1041+021341999GA2071+030481999GE19MSL   +99999+99999GF199999041999021341999999MA1102501999999REMMET062METAR ETSI 081720Z 25010KT 9999 SCT070 BKN100 06/02 Q1025 BLU=
0090108600999992015010818204+48716+011534FM-15+036699999V0202401N006219999999N999999999+00701+00201999999ADDMA1102401999999REMMET063METAR ETSI 081820Z AUTO 24012KT //// // ////// 07/02 Q1024 ///=
0090108600999992015010819204+48716+011534FM-15+036699999V0202501N007219999999N999999999+00701+00301999999ADDMA1102501999999REMMET063METAR ETSI 081920Z AUTO 25014KT //// // ////// 07/03 Q1025 ///=
0090108600999992015010820204+48716+011534FM-15+036699999V0202501N008219999999N999999999+00701+00301999999ADDMA1102501999999REMMET063METAR ETSI 082020Z AUTO 25016KT //// // ////// 07/03 Q1025 ///=
0101108600999992015010821204+48716+011534FM-15+036699999V0202601N008819999999N999999999+00701+00301999999ADDMA1102601999999OC101391REMMET066METAR ETSI 082120Z AUTO 26017G27KT //// // ////// 07/03 Q1026 ///=
0090108600999992015010822204+48716+011534FM-15+036699999V0202601N009319999999N999999999+00701+00401999999ADDMA1102801999999REMMET063METAR ETSI 082220Z AUTO 26018KT //// // ////// 07/04 Q1028 ///=
0090108600999992015010823204+48716+011534FM-15+036699999V0202701N005719999999N999999999+00601+00301999999ADDMA1103001999999REMMET063METAR ETSI 082320Z AUTO 27011KT //// // ////// 06/03 Q1030 ///=
0090108600999992015010900204+48716+011534FM-15+036699999V0202901N004119999999N999999999+00501+00401999999ADDMA1103101999999REMMET063METAR ETSI 090020Z AUTO 29008KT //// // ////// 05/04 Q1031 ///=
0090108600999992015010901204+48716+011534FM-15+036699999V0202601N003619999999N999999999+00501+00301999999ADDMA1103101999999REMMET063METAR ETSI 090120Z AUTO 26007KT //// // ////// 05/03 Q1031 ///=
0090108600999992015010902204+48716+011534FM-15+036699999V0202601N003119999999N999999999+00401+00101999999ADDMA1103201999999REMMET063METAR ETSI 090220Z AUTO 26006KT //// // ////// 04/01 Q1032 ///=
0090108600999992015010903204+48716+011534FM-15+036699999V0202501N003119999999N999999999+00301+00101999999ADDMA1103101999999REMMET063METAR ETSI 090320Z AUTO 25006KT //// // ////// 03/01 Q1031 ///=
0170108600999992015010904204+48716+011534FM-15+036699999V0202501N00461091441CN009999199+00301+00101999999ADDGA1021+015241999GA2041+091441999GE19MSL   +99999+99999GF199999021999015241999999MA1103101999999REMMET063METAR ETSI 090420Z 25009KT 9999 FEW050 SCT300 03/01 Q1031 BLU+=
0173108600999992015010905204+48716+011534FM-15+036699999V0202601N003610365819N009999199+00301+00101999999ADDGA1021+015241999GA2071+036581999GE19MSL   +99999+99999GF199999021999015241999999MA1103001999999REMMET066METAR ETSI 090520Z 26007KT 9999 FEW050 BKN120 03/01 Q1030 BLU BLU=
0173108600999992015010906204+48716+011534FM-15+036699999V0202301N004110365819N009999199+00501+00301999999ADDGA1021+005491999GA2071+036581999GE19MSL   +99999+99999GF199999021999005491999999MA1102901999999REMMET066METAR ETSI 090620Z 23008KT 9999 FEW018 BKN120 05/03 Q1029 BLU BLU=
0173108600999992015010907204+48716+011534FM-15+036699999V0202501N004110274319N009999199+00501+00201999999ADDGA1021+004571999GA2071+027431999GE19MSL   +99999+99999GF199999021999004571999999MA1102801999999REMMET066METAR ETSI 090720Z 25008KT 9999 FEW015 BKN090 05/02 Q1028 BLU BLU=
0173108600999992015010908204+48716+011534FM-15+036699999V0202401N005710304819N009999199+00601+00301999999ADDGA1021+018291999GA2071+030481999GE19MSL   +99999+99999GF199999021999018291999999MA1102701999999REMMET066METAR ETSI 090820Z 24011KT 9999 FEW060 BKN100 06/03 Q1027 BLU BLU=
0201108600999992015010909204+48716+011534FM-15+036699999V0202501N00461015241CN009999199+00601+00301999999ADDGA1021+006101999GA2041+015241999GA3071+024381999GE19MSL   +99999+99999GF199999021999006101999999MA1102601999999REMMET078METAR ETSI 090920Z 25009KT 9999 FEW020 SCT050 BKN080 06/03 Q1026 BLU      BLU=
0173108600999992015010910204+48716+011534FM-15+036699999V0202501N004110243819N009999199+00701+00301999999ADDGA1041+015241999GA2071+024381999GE19MSL   +99999+99999GF199999041999015241999999MA1102501999999REMMET066METAR ETSI 091020Z 25008KT 9999 SCT050 BKN080 07/03 Q1025 BLU BLU=
0173108600999992015010911204+48716+011534FM-15+036699999V0202601N007710182919N009999199+00801+00201999999ADDGA1071+018291999GA2071+025911999GE19MSL   +99999+99999GF199999071999018291999999MA1102301999999REMMET066METAR ETSI 091120Z 26015KT 9999 BKN060 BKN085 08/02 Q1023 BLU BLU=
0184108600999992015010912204+48716+011534FM-15+036699999V0202601N009810548619N009999199+00801+00201999999ADDGA1041+015241999GA2081+054861999GE19MSL   +99999+99999GF199999041999015241999999MA1102101999999OC101491REMMET069METAR ETSI 091220Z 26019G29KT 9999 SCT050 OVC180 08/02 Q1021 BLU BLU=
0169108600999992015010913004+48716+011534FM-16+036699999V0202601N008810121919N009999199+00801+00201999999ADDGA1071+012191999GE19MSL   +99999+99999GF199999071999012191999999MA1102001999999OC101441REMMET070SPECI ETSI 091300Z 26017G28KT 9999 BKN040 08/02 Q1020 BLU FCST CANCEL=
0157108600999992015010913204+48716+011534FM-15+036699999V0202701N007710106719N009999199+00801+00101999999ADDGA1071+010671999GE19MSL   +99999+99999GF199999071999010671999999MA1102101999999OC101341REMMET058METAR ETSI 091320Z 27015G26KT 9999 BKN035 08/01 Q1021 BLU=
0146108600999992015010914204+48716+011534FM-15+036699999V0202601N009310097519N009999199+00901+00301999999ADDGA1081+009751999GE19MSL   +99999+99999GF199999081999009751999999MA1102101999999REMMET055METAR ETSI 091420Z 26018KT 9999 OVC032 09/03 Q1021 BLU=
0157108600999992015010915204+48716+011534FM-15+036699999V0202601N008810088419N009999199+00901+00301999999ADDGA1081+008841999GE19MSL   +99999+99999GF199999081999008841999999MA1102001999999OC101391REMMET058METAR ETSI 091520Z 26017G27KT 9999 OVC029 09/03 Q1020 BLU=
0157108600999992015010916204+48716+011534FM-15+036699999V0202601N010810064019N009999199+00801+00501999999ADDGA1081+006401999GE19MSL   +99999+99999GF199999081999006401999999MA1102001999999OC101651REMMET058METAR ETSI 091620Z 26021G32KT 9999 OVC021 08/05 Q1020 WHT=
0146108600999992015010917204+48716+011534FM-15+036699999V0202601N009810064019N009999199+00801+00501999999ADDGA1081+006401999GE19MSL   +99999+99999GF199999081999006401999999MA1102001999999REMMET055METAR ETSI 091720Z 26019KT 9999 OVC021 08/05 Q1020 WHT=
0101108600999992015010918204+48716+011534FM-15+036699999V0202601N008819999999N999999999+00801+00601999999ADDMA1102101999999OC101491REMMET066METAR ETSI 091820Z AUTO 26017G29KT //// // ////// 08/06 Q1021 ///=
0090108600999992015010919204+48716+011534FM-15+036699999V0202601N006719999999N999999999+00801+00601999999ADDMA1102001999999REMMET063METAR ETSI 091920Z AUTO 26013KT //// // ////// 08/06 Q1020 ///=
0178108600999992015010920204+48716+011534FM-15+036699999V0202501N008210106719N009999199+00801+00701999999ADDGA1041+003661999GA2071+010671999GE19MSL   +99999+99999GF199999041999003661999999MA1101901999999MW1631REMMET065METAR ETSI 092020Z 25016KT 9999 RA SCT012 BKN035 08/07 Q1019 BLU=
0090108600999992015010921204+48716+011534FM-15+036699999V0202601N008219999999N999999999+00801+00701999999ADDMA1101801999999REMMET063METAR ETSI 092120Z AUTO 26016KT //// // ////// 08/07 Q1018 ///=
0090108600999992015010922204+48716+011534FM-15+036699999V0202601N006219999999N999999999+00801+00701999999ADDMA1101701999999REMMET063METAR ETSI 092220Z AUTO 26012KT //// // ////// 08/07 Q1017 ///=
0101108600999992015010923204+48716+011534FM-15+036699999V0202601N007719999999N999999999+00901+00801999999ADDMA1101601999999OC101291REMMET066METAR ETSI 092320Z AUTO 26015G25KT //// // ////// 09/08 Q1016 ///=
0101108600999992015011000204+48716+011534FM-15+036699999V0202701N008819999999N999999999+01001+00901999999ADDMA1101601999999OC101391REMMET066METAR ETSI 100020Z AUTO 27017G27KT //// // ////// 10/09 Q1016 ///=
0101108600999992015011001204+48716+011534FM-15+036699999V0202601N010319999999N999999999+01101+00901999999ADDMA1101601999999OC101701REMMET066METAR ETSI 100120Z AUTO 26020G33KT //// // ////// 11/09 Q1016 ///=
0101108600999992015011002204+48716+011534FM-15+036699999V0202601N010319999999N999999999+01101+00901999999ADDMA1101701999999OC101601REMMET066METAR ETSI 100220Z AUTO 26020G31KT //// // ////// 11/09 Q1017 ///=
0101108600999992015011003204+48716+011534FM-15+036699999V0202601N009319999999N999999999+01101+00901999999ADDMA1101701999999OC101491REMMET066METAR ETSI 100320Z AUTO 26018G29KT //// // ////// 11/09 Q1017 ///=
0101108600999992015011004204+48716+011534FM-15+036699999V0202601N008819999999N999999999+01101+00901999999ADDMA1101701999999OC101441REMMET066METAR ETSI 100420Z AUTO 26017G28KT //// // ////// 11/09 Q1017 ///=
0101108600999992015011005204+48716+011534FM-15+036699999V0202601N007719999999N999999999+01201+00901999999ADDMA1101701999999OC101341REMMET066METAR ETSI 100520Z AUTO 26015G26KT //// // ////// 12/09 Q1017 ///=
0101108600999992015011006204+48716+011534FM-15+036699999V0202601N007719999999N999999999+01201+00901999999ADDMA1101701999999OC101441REMMET066METAR ETSI 100620Z AUTO 26015G28KT //// // ////// 12/09 Q1017 ///=
0101108600999992015011007204+48716+011534FM-15+036699999V0202601N009319999999N999999999+01201+00901999999ADDMA1101801999999OC101541REMMET066METAR ETSI 100720Z AUTO 26018G30KT //// // ////// 12/09 Q1018 ///=
0090108600999992015011008204+48716+011534FM-15+036699999V0202501N010819999999N999999999+01201+01001999999ADDMA1101801999999REMMET063METAR ETSI 100820Z AUTO 25021KT //// // ////// 12/10 Q1018 ///=
0101108600999992015011009204+48716+011534FM-15+036699999V0202601N009319999999N999999999+01301+00901999999ADDMA1101701999999OC101541REMMET066METAR ETSI 100920Z AUTO 26018G30KT //// // ////// 13/09 Q1017 ///=
0101108600999992015011010204+48716+011534FM-15+036699999V0202601N009819999999N999999999+01401+00901999999ADDMA1101601999999OC101651REMMET066METAR ETSI 101020Z AUTO 26019G32KT //// // ////// 14/09 Q1016 ///=
0101108600999992015011011204+48716+011534FM-15+036699999V0202601N011819999999N999999999+01501+00901999999ADDMA1101401999999OC101751REMMET066METAR ETSI 101120Z AUTO 26023G34KT //// // ////// 15/09 Q1014 ///=
0101108600999992015011012204+48716+011534FM-15+036699999V0202601N009819999999N999999999+01501+00901999999ADDMA1101401999999OC101541REMMET066METAR ETSI 101220Z AUTO 26019G30KT //// // ////// 15/09 Q1014 ///=
0158108600999992015011013044+48716+011534FM-16+036699999V0202701N010819999999N009999199+01501+00901999999ADDGA1041+011581999GE19MSL   +99999+99999GF199999041999011581999999MA1101401999999OC101651REMMET059SPECI ETSI 101304Z 27021G32KT 9999 SCT038 15/09 Q1014 BLU+=
0157108600999992015011013204+48716+011534FM-15+036699999V0202701N009310121919N009999199+01501+00801999999ADDGA1071+012191999GE19MSL   +99999+99999GF199999071999012191999999MA1101401999999OC101651REMMET058METAR ETSI 101320Z 27018G32KT 9999 BKN040 15/08 Q1014 BLU=
0101108600999992015011014204+48716+011534FM-15+036699999V0202701N007719999999N999999999+01501+00801999999ADDMA1101401999999OC101391REMMET066METAR ETSI 101420Z AUTO 27015G27KT //// // ////// 15/08 Q1014 ///=
0101108600999992015011015204+48716+011534FM-15+036699999V0202601N007719999999N999999999+01401+00701999999ADDMA1101301999999OC101291REMMET066METAR ETSI 101520Z AUTO 26015G25KT //// // ////// 14/07 Q1013 ///=
0101108600999992015011016204+48716+011534FM-15+036699999V0202701N006719999999N999999999+01401+00801999999ADDMA1101401999999OC101341REMMET066METAR ETSI 101620Z AUTO 27013G26KT //// // ////// 14/08 Q1014 ///=
0090108600999992015011017204+48716+011534FM-15+036699999V0202601N009819999999N999999999+01401+00801999999ADDMA1101301999999REMMET063METAR ETSI 101720Z AUTO 26019KT //// // ////// 14/08 Q1013 ///=
0090108600999992015011018204+48716+011534FM-15+036699999V0202601N007719999999N999999999+01401+00701999999ADDMA1101401999999REMMET063METAR ETSI 101820Z AUTO 26015KT //// // ////// 14/07 Q1014 ///=
0101108600999992015011019204+48716+011534FM-15+036699999V0202601N008219999999N999999999+01301+00701999999ADDMA1101301999999OC101391REMMET066METAR ETSI 101920Z AUTO 26016G27KT //// // ////// 13/07 Q1013 ///=
0090108600999992015011020204+48716+011534FM-15+036699999V0202601N008219999999N999999999+01301+00701999999ADDMA1101301999999REMMET063METAR ETSI 102020Z AUTO 26016KT //// // ////// 13/07 Q1013 ///=
0101108600999992015011021204+48716+011534FM-15+036699999V0202601N009319999999N999999999+01201+00701999999ADDMA1101301999999OC101441REMMET066METAR ETSI 102120Z AUTO 26018G28KT //// // ////// 12/07 Q1013 ///=
0090108600999992015011022204+48716+011534FM-15+036699999V0202601N008219999999N999999999+01201+00601999999ADDMA1101301999999REMMET063METAR ETSI 102220Z AUTO 26016KT //// // ////// 12/06 Q1013 ///=
0090108600999992015011023204+48716+011534FM-15+036699999V0203001N007219999999N999999999+00801+00701999999ADDMA1101401999999REMMET063METAR ETSI 102320Z AUTO 30014KT //// // ////// 08/07 Q1014 ///=
0090108600999992015011100204+48716+011534FM-15+036699999V0203101N005719999999N999999999+00701+00601999999ADDMA1101401999999REMMET063METAR ETSI 110020Z AUTO 31011KT //// // ////// 07/06 Q1014 ///=
0090108600999992015011101204+48716+011534FM-15+036699999V0203101N003119999999N999999999+00601+00501999999ADDMA1101401999999REMMET063METAR ETSI 110120Z AUTO 31006KT //// // ////// 06/05 Q1014 ///=
0090108600999992015011102204+48716+011534FM-15+036699999V0203101N004619999999N999999999+00501+00301999999ADDMA1101401999999REMMET063METAR ETSI 110220Z AUTO 31009KT //// // ////// 05/03 Q1014 ///=
0090108600999992015011103204+48716+011534FM-15+036699999V0203101N005119999999N999999999+00401+00301999999ADDMA1101401999999REMMET063METAR ETSI 110320Z AUTO 31010KT //// // ////// 04/03 Q1014 ///=
0090108600999992015011104204+48716+011534FM-15+036699999V0203001N004619999999N999999999+00301+00201999999ADDMA1101401999999REMMET063METAR ETSI 110420Z AUTO 30009KT //// // ////// 03/02 Q1014 ///=
0090108600999992015011105204+48716+011534FM-15+036699999V0203101N007219999999N999999999+00301+00101999999ADDMA1101401999999REMMET063METAR ETSI 110520Z AUTO 31014KT //// // ////// 03/01 Q1014 ///=
0090108600999992015011106204+48716+011534FM-15+036699999V0202701N004619999999N999999999+00201+00001999999ADDMA1101501999999REMMET063METAR ETSI 110620Z AUTO 27009KT //// // ////// 02/00 Q1015 ///=
0192108600999992015011107204+48716+011534FM-15+036699999V0202601N003110182919N009999199+00201+00101999999ADDGA1021+003661999GA2071+018291999GA3071+033531999GE19MSL   +99999+99999GF199999021999003661999999MA1101601999999REMMET069METAR ETSI 110720Z 26006KT 9999 FEW012 BKN060 BKN110 02/01 Q1016 BLU=
0192108600999992015011108204+48716+011534FM-15+036699999V0202401N00571010671CN009999199+00301+00101999999ADDGA1021+004571999GA2041+010671999GA3071+018291999GE19MSL   +99999+99999GF199999021999004571999999MA1101701999999REMMET069METAR ETSI 110820Z 24011KT 9999 FEW015 SCT035 BKN060 03/01 Q1017 BLU=
0209108600999992015011108534+48716+011534FM-16+036699999V0202401N005710091419N009999199+00301+00201999999ADDGA1041+003051999GA2071+009141999GA3071+013721999GE19MSL   +99999+99999GF199999041999003051999999MA1101701999999MW1681REMMET080SPECI ETSI 110853Z 24011KT 9999 -SNRA SCT010 BKN030 BKN045 03/02 Q1017      BLU=
0090108600999992015011109204+48716+011534FM-15+036699999V0202601N006719999999N999999999+00301+00101999999ADDMA1101801999999REMMET063METAR ETSI 110920Z AUTO 26013KT //// // ////// 03/01 Q1018 ///=
0102108600999992015011110204+48716+011534FM-15+036699999V0202701N007719999999N999999999+00301-00101999999ADDMA1102001999999OC101291REMMET067METAR ETSI 111020Z AUTO 27015G25KT //// // ////// 03/M01 Q1020 ///=
0102108600999992015011111204+48716+011534FM-15+036699999V0202701N009319999999N999999999+00301-00101999999ADDMA1102101999999OC101601REMMET067METAR ETSI 111120Z AUTO 27018G31KT //// // ////// 03/M01 Q1021 ///=
0090108600999992015011112204+48716+011534FM-15+036699999V0202601N006719999999N999999999+00301+00001999999ADDMA1102001999999REMMET063METAR ETSI 111220Z AUTO 26013KT //// // ////// 03/00 Q1020 ///=
0101108600999992015011113204+48716+011534FM-15+036699999V0202701N006219999999N999999999+00201+00001999999ADDMA1102001999999OC101291REMMET066METAR ETSI 111320Z AUTO 27012G25KT //// // ////// 02/00 Q1020 ///=
0101108600999992015011114204+48716+011534FM-15+036699999V0202701N007219999999N999999999+00301+00001999999ADDMA1102001999999OC101241REMMET066METAR ETSI 111420Z AUTO 27014G24KT //// // ////// 03/00 Q1020 ///=
0102108600999992015011115204+48716+011534FM-15+036699999V0202701N007719999999N999999999+00301-00101999999ADDMA1102001999999OC101541REMMET067METAR ETSI 111520Z AUTO 27015G30KT //// // ////// 03/M01 Q1020 ///=
0091108600999992015011116204+48716+011534FM-15+036699999V0202701N007219999999N999999999+00201-00101999999ADDMA1102201999999REMMET064METAR ETSI 111620Z AUTO 27014KT //// // ////// 02/M01 Q1022 ///=
0091108600999992015011117204+48716+011534FM-15+036699999V0202701N007219999999N999999999+00301-00101999999ADDMA1102201999999REMMET064METAR ETSI 111720Z AUTO 27014KT //// // ////// 03/M01 Q1022 ///=
0091108600999992015011118204+48716+011534FM-15+036699999V0202601N006219999999N999999999+00301-00101999999ADDMA1102301999999REMMET064METAR ETSI 111820Z AUTO 26012KT //// // ////// 03/M01 Q1023 ///=
0091108600999992015011119204+48716+011534FM-15+036699999V0202601N007219999999N999999999+00301-00101999999ADDMA1102301999999REMMET064METAR ETSI 111920Z AUTO 26014KT //// // ////// 03/M01 Q1023 ///=
0091108600999992015011120204+48716+011534FM-15+036699999V0202701N007219999999N999999999+00301-00201999999ADDMA1102401999999REMMET064METAR ETSI 112020Z AUTO 27014KT //// // ////// 03/M02 Q1024 ///=
0091108600999992015011121204+48716+011534FM-15+036699999V0202601N007219999999N999999999+00301-00201999999ADDMA1102401999999REMMET064METAR ETSI 112120Z AUTO 26014KT //// // ////// 03/M02 Q1024 ///=
0091108600999992015011122204+48716+011534FM-15+036699999V0202601N007719999999N999999999+00301-00101999999ADDMA1102501999999REMMET064METAR ETSI 112220Z AUTO 26015KT //// // ////// 03/M01 Q1025 ///=
0102108600999992015011123204+48716+011534FM-15+036699999V0202701N006719999999N999999999+00301-00101999999ADDMA1102501999999OC101441REMMET067METAR ETSI 112320Z AUTO 27013G28KT //// // ////// 03/M01 Q1025 ///=
0102108600999992015011200204+48716+011534FM-15+036699999V0202701N006719999999N999999999+00301+00001999999ADDMA1102501999999OC101291REMMET067METAR ETSI 120020Z AUTO 27013G25KT //// // ////// 03/M00 Q1025 ///=
0101108600999992015011201204+48716+011534FM-15+036699999V0202601N007219999999N999999999+00201+00001999999ADDMA1102501999999OC101241REMMET066METAR ETSI 120120Z AUTO 26014G24KT //// // ////// 02/00 Q1025 ///=
0091108600999992015011202204+48716+011534FM-15+036699999V0202601N005719999999N999999999+00301+00001999999ADDMA1102501999999REMMET064METAR ETSI 120220Z AUTO 26011KT //// // ////// 03/M00 Q1025 ///=
0091108600999992015011203204+48716+011534FM-15+036699999V0202601N006719999999N999999999+00301-00101999999ADDMA1102501999999REMMET064METAR ETSI 120320Z AUTO 26013KT //// // ////// 03/M01 Q1025 ///=
0157108600999992015011204204+48716+011534FM-15+036699999V0202601N007210091419N009999199+00401-00101999999ADDGA1081+009141999GE19MSL   +99999+99999GF199999081999009141999999MA1102501999999MW1611REMMET060METAR ETSI 120420Z 26014KT 9999 -RA OVC030 04/M01 Q1025 BLU=
0210108600999992015011205204+48716+011534FM-15+036699999V0202501N008210091419N009999199+00401+00001999999ADDGA1071+009141999GA2071+013721999GE19MSL   +99999+99999GF199999071999009141999999MA1102501999999MW1611OC101341REMMET089METAR ETSI 120520Z 25016G26KT 9999 -RA BKN030 BKN045 04/M00 Q1025 BLU      BLU TEMPO WHT=
0189108600999992015011206244+48716+011534FM-16+036699999V0202601N007710137219N009999199+00401-00101999999ADDGA1041+009141999GA2071+013721999GE19MSL   +99999+99999GF199999041999009141999999MA1102501999999REMMET082SPECI ETSI 120624Z 26015KT 9999 SCT030 BKN045 04/M01 Q1025 BLU BLU      TEMPO WHT=
0189108600999992015011207204+48716+011534FM-15+036699999V0202501N008210182919N009999199+00401-00201999999ADDGA1021+009141999GA2071+018291999GE19MSL   +99999+99999GF199999021999009141999999MA1102501999999REMMET082METAR ETSI 120720Z 25016KT 9999 FEW030 BKN060 04/M02 Q1025 BLU BLU      TEMPO WHT=
0174108600999992015011208204+48716+011534FM-15+036699999V0202501N008810152419N009999199+00401-00201999999ADDGA1021+009141999GA2071+015241999GE19MSL   +99999+99999GF199999021999009141999999MA1102501999999REMMET067METAR ETSI 120820Z 25017KT 9999 FEW030 BKN050 04/M02 Q1025 BLU BLU=
0151108600999992015011209204+48716+011534FM-15+036699999V0202501N008810121919N009999199+00501-00101999999ADDGA1071+012191999GE19MSL   +99999+99999GF199999071999012191999999MA1102501999999REMMET060METAR ETSI 120920Z 25017KT 9999 BKN040 05/M01 Q1025 BLU BLU=
0162108600999992015011210204+48716+011534FM-15+036699999V0202601N007210146319N009999199+00501-00101999999ADDGA1071+014631999GE19MSL   +99999+99999GF199999071999014631999999MA1102401999999OC101291REMMET063METAR ETSI 121020Z 26014G25KT 9999 BKN048 05/M01 Q1024 BLU BLU=
0174108600999992015011211204+48716+011534FM-15+036699999V0202401N008810137219N009999199+00501-00101999999ADDGA1071+013721999GA2071+036581999GE19MSL   +99999+99999GF199999071999013721999999MA1102401999999REMMET067METAR ETSI 121120Z 24017KT 9999 BKN045 BKN120 05/M01 Q1024 BLU BLU=
0190108600999992015011212204+48716+011534FM-15+036699999V0202501N006710609619N009999199+00501-00101999999ADDGA1021+013721999GA2071+060961999GE19MSL   +99999+99999GF199999021999013721999999MA1102301999999REMMET083METAR ETSI 121220Z 25013KT 9999 FEW045 BKN200 05/M01 Q1023 BLU+BLU      TEMPO BLU+=
0213108600999992015011213204+48716+011534FM-15+036699999V0202501N005110487719N009999199+00401-00101999999ADDGA1021+013721999GA2071+048771999GA3071+054861999GE19MSL   +99999+99999GF199999021999013721999999MA1102301999999REMMET090METAR ETSI 121320Z 25010KT 9999 FEW045 BKN160 BKN180 04/M01 Q1023 BLU      BLU TEMPO BLU+=
0213108600999992015011214204+48716+011534FM-15+036699999V0202501N004110487719N009999199+00401-00101999999ADDGA1021+013721999GA2071+048771999GA3071+054861999GE19MSL   +99999+99999GF199999021999013721999999MA1102201999999REMMET090METAR ETSI 121420Z 25008KT 9999 FEW045 BKN160 BKN180 04/M01 Q1022 BLU      BLU TEMPO BLU+=
0190108600999992015011215204+48716+011534FM-15+036699999V0202101N002110609619N009999199+00401-00101999999ADDGA1041+048771999GA2071+060961999GE19MSL   +99999+99999GF199999041999048771999999MA1102201999999REMMET083METAR ETSI 121520Z 21004KT 9999 SCT160 BKN200 04/M01 Q1022 BLU+BLU      TEMPO BLU+=
0187108600999992015011216004+48716+011534FM-16+036699999V0202101N001010579119N009999199+00301-00101999999ADDGA1021+048771999GA2071+057911999GE19MSL   +99999+99999GF199999021999048771999999MA1102201999999REMMET080SPECI ETSI 121600Z 21002KT 9999 FEW160 BKN190 03/M01 Q1022 BLU FCST      CANCEL=
0170108600999992015011216204+48716+011534FM-15+036699999V0202001N000510579119N009999199+00301-00101999999ADDGA1021+048771999GA2071+057911999GE19MSL   +99999+99999GF199999021999048771999999MA1102201999999REMMET063METAR ETSI 121620Z 20001KT 9999 FEW160 BKN190 03/M01 Q1022 BLU=
0170108600999992015011217204+48716+011534FM-15+036699999V0201801N001010579119N009999199+00101-00101999999ADDGA1021+048771999GA2071+057911999GE19MSL   +99999+99999GF199999021999048771999999MA1102201999999REMMET063METAR ETSI 121720Z 18002KT 9999 FEW160 BKN190 01/M01 Q1022 BLU=
0170108600999992015011218204+48716+011534FM-15+036699999V0209999C000010548619N009999199+00101-00101999999ADDGA1021+048771999GA2071+054861999GE19MSL   +99999+99999GF199999021999048771999999MA1102201999999REMMET063METAR ETSI 121820Z 00000KT 9999 FEW160 BKN180 01/M01 Q1022 BLU=
0147108600999992015011219204+48716+011534FM-15+036699999V0202501N002610579119N009999199+00301-00101999999ADDGA1071+057911999GE19MSL   +99999+99999GF199999071999057911999999MA1102201999999REMMET056METAR ETSI 121920Z 25005KT 9999 BKN190 03/M01 Q1022 BLU=
0091108600999992015011220204+48716+011534FM-15+036699999V0202401N002119999999N999999999+00201-00201999999ADDMA1102201999999REMMET064METAR ETSI 122020Z AUTO 24004KT //// // ////// 02/M02 Q1022 ///=
0091108600999992015011221204+48716+011534FM-15+036699999V0209999C000019999999N999999999+00001-00201999999ADDMA1102201999999REMMET064METAR ETSI 122120Z AUTO 00000KT //// // ////// 00/M02 Q1022 ///=
0092108600999992015011222204+48716+011534FM-15+036699999V0202601N001519999999N999999999+00001-00201999999ADDMA1102201999999REMMET065METAR ETSI 122220Z AUTO 26003KT //// // ////// M00/M02 Q1022 ///=
0091108600999992015011223204+48716+011534FM-15+036699999V0202301N002619999999N999999999+00201-00401999999ADDMA1102201999999REMMET064METAR ETSI 122320Z AUTO 23005KT //// // ////// 02/M04 Q1022 ///=
0092108600999992015011300204+48716+011534FM-15+036699999V0201301N001019999999N999999999-00101-00401999999ADDMA1102101999999REMMET065METAR ETSI 130020Z AUTO 13002KT //// // ////// M01/M04 Q1021 ///=
0092108600999992015011301204+48716+011534FM-15+036699999V0200801N001019999999N999999999-00201-00401999999ADDMA1102101999999REMMET065METAR ETSI 130120Z AUTO 08002KT //// // ////// M02/M04 Q1021 ///=
0092108600999992015011302204+48716+011534FM-15+036699999V0209999V000519999999N999999999-00201-00301999999ADDMA1102001999999REMMET065METAR ETSI 130220Z AUTO VRB01KT //// // ////// M02/M03 Q1020 ///=
0092108600999992015011303204+48716+011534FM-15+036699999V0200901N001019999999N999999999-00301-00401999999ADDMA1102001999999REMMET065METAR ETSI 130320Z AUTO 09002KT //// // ////// M03/M04 Q1020 ///=
0078108600999992015011304204+48716+011534FM-15+036699999V0209999V000519999999N009999199-00301-00401999999ADDMA1102001999999REMMET051METAR ETSI 130420Z VRB01KT 9999 M03/M04 Q1020 BLU+=
0082108600999992015011305204+48716+011534FM-15+036699999V0201201N001019999999N009999199-00401-00501999999ADDMA1101901999999REMMET055METAR ETSI 130520Z 12002KT 9999 M04/M05 Q1019 BLU+BLU+=
0153108600999992015011306204+48716+011534FM-15+036699999V0209999C000019999999N009999199-00401-00401999999ADDGA1021+060961999GE19MSL   +99999+99999GF199999021999060961999999MA1101901999999REMMET062METAR ETSI 130620Z 00000KT 9999 FEW200 M04/M04 Q1019 BLU+BLU+=
0153108600999992015011307204+48716+011534FM-15+036699999V0209999V000519999999N009999199-00401-00401999999ADDGA1021+060961999GE19MSL   +99999+99999GF199999021999060961999999MA1101901999999REMMET062METAR ETSI 130720Z VRB01KT 9999 FEW200 M04/M04 Q1019 BLU+BLU+=
0153108600999992015011308204+48716+011534FM-15+036699999V0200601N001019999999N009999199-00101-00401999999ADDGA1021+060961999GE19MSL   +99999+99999GF199999021999060961999999MA1101801999999REMMET062METAR ETSI 130820Z 06002KT 9999 FEW200 M01/M04 Q1018 BLU+BLU+=
0152108600999992015011309204+48716+011534FM-15+036699999V0200501N001019999999N009999199+00201-00301999999ADDGA1021+060961999GE19MSL   +99999+99999GF199999021999060961999999MA1101801999999REMMET061METAR ETSI 130920Z 05002KT 9999 FEW200 02/M03 Q1018 BLU+BLU+=
0152108600999992015011310204+48716+011534FM-15+036699999V0200701N000519999999N009999199+00401-00201999999ADDGA1021+060961999GE19MSL   +99999+99999GF199999021999060961999999MA1101701999999REMMET061METAR ETSI 131020Z 07001KT 9999 FEW200 04/M02 Q1017 BLU+BLU+=
0152108600999992015011311204+48716+011534FM-15+036699999V0200101N000519999999N009999199+00701-00301999999ADDGA1021+060961999GE19MSL   +99999+99999GF199999021999060961999999MA1101601999999REMMET061METAR ETSI 131120Z 01001KT 9999 FEW200 07/M03 Q1016 BLU+BLU+=
0152108600999992015011312204+48716+011534FM-15+036699999V0200301N001519999999N009999199+00801-00201999999ADDGA1021+060961999GE19MSL   +99999+99999GF199999021999060961999999MA1101501999999REMMET061METAR ETSI 131220Z 03003KT 9999 FEW200 08/M02 Q1015 BLU+BLU+=
0152108600999992015011313204+48716+011534FM-15+036699999V0200601N001519999999N009999199+00801-00201999999ADDGA1021+060961999GE19MSL   +99999+99999GF199999021999060961999999MA1101501999999REMMET061METAR ETSI 131320Z 06003KT 9999 FEW200 08/M02 Q1015 BLU+BLU+=
0152108600999992015011314204+48716+011534FM-15+036699999V0200701N001519999999N009999199+00801-00101999999ADDGA1021+042671999GE19MSL   +99999+99999GF199999021999042671999999MA1101401999999REMMET061METAR ETSI 131420Z 07003KT 9999 FEW140 08/M01 Q1014 BLU+BLU+=
0152108600999992015011315204+48716+011534FM-15+036699999V0201001N001019999999N009999199+00701+00001999999ADDGA1021+042671999GE19MSL   +99999+99999GF199999021999042671999999MA1101401999999REMMET061METAR ETSI 131520Z 10002KT 9999 FEW140 07/M00 Q1014 BLU+BLU+=
0159108600999992015011316204+48716+011534FM-15+036699999V0202301N000519999999N009999199+00201-00101999999ADDGA1021+042671999GE19MSL   +99999+99999GF199999021999042671999999MA1101401999999REMMET068METAR ETSI 131620Z 23001KT 9999 FEW140 02/M01 Q1014 BLU+FCST CANCEL=
0148108600999992015011317204+48716+011534FM-15+036699999V0201501N001019999999N009999199+00101-00101999999ADDGA1021+042671999GE19MSL   +99999+99999GF199999021999042671999999MA1101401999999REMMET057METAR ETSI 131720Z 15002KT 9999 FEW140 01/M01 Q1014 BLU+=
0148108600999992015011318204+48716+011534FM-15+036699999V0201701N001019999999N009999199+00001-00101999999ADDGA1021+042671999GE19MSL   +99999+99999GF199999021999042671999999MA1101401999999REMMET057METAR ETSI 131820Z 17002KT 9999 FEW140 00/M01 Q1014 BLU+=
0091108600999992015011319204+48716+011534FM-15+036699999V0200801N000519999999N999999999+00001-00201999999ADDMA1101401999999REMMET064METAR ETSI 131920Z AUTO 08001KT //// // ////// 00/M02 Q1014 ///=
0091108600999992015011320204+48716+011534FM-15+036699999V0203001N000519999999N999999999+00101-00201999999ADDMA1101301999999REMMET064METAR ETSI 132020Z AUTO 30001KT //// // ////// 01/M02 Q1013 ///=
0091108600999992015011321204+48716+011534FM-15+036699999V0201101N001019999999N999999999+00001-00201999999ADDMA1101301999999REMMET064METAR ETSI 132120Z AUTO 11002KT //// // ////// 00/M02 Q1013 ///=
0091108600999992015011322204+48716+011534FM-15+036699999V0200201N000519999999N999999999+00101-00201999999ADDMA1101301999999REMMET064METAR ETSI 132220Z AUTO 02001KT //// // ////// 01/M02 Q1013 ///=
0091108600999992015011323204+48716+011534FM-15+036699999V0201201N001019999999N999999999+00201-00101999999ADDMA1101301999999REMMET064METAR ETSI 132320Z AUTO 12002KT //// // ////// 02/M01 Q1013 ///=
0090108600999992015011400204+48716+011534FM-15+036699999V0200101N001019999999N999999999+00801+00101999999ADDMA1101301999999REMMET063METAR ETSI 140020Z AUTO 01002KT //// // ////// 08/01 Q1013 ///=
0090108600999992015011401204+48716+011534FM-15+036699999V0202801N001519999999N999999999+00901+00101999999ADDMA1101301999999REMMET063METAR ETSI 140120Z AUTO 28003KT //// // ////// 09/01 Q1013 ///=
0090108600999992015011402204+48716+011534FM-15+036699999V0202301N005119999999N999999999+01001+00001999999ADDMA1101301999999REMMET063METAR ETSI 140220Z AUTO 23010KT //// // ////// 10/00 Q1013 ///=
0090108600999992015011403204+48716+011534FM-15+036699999V0202501N007219999999N999999999+01001+00201999999ADDMA1101301999999REMMET063METAR ETSI 140320Z AUTO 25014KT //// // ////// 10/02 Q1013 ///=
0192108600999992015011404204+48716+011534FM-15+036699999V0202501N00771012191CN009999199+01001+00301999999ADDGA1021+006101999GA2041+012191999GA3071+030481999GE19MSL   +99999+99999GF199999021999006101999999MA1101301999999REMMET069METAR ETSI 140420Z 25015KT 9999 FEW020 SCT040 BKN100 10/03 Q1013 BLU=
0183108600999992015011405204+48716+011534FM-15+036699999V0202901N005110091419N009999199+00801+00501999999ADDGA1021+007621999GA2071+009141999GE19MSL   +99999+99999GF199999021999007621999999MA1101401999999MW1611REMMET070METAR ETSI 140520Z 29010KT 9999 -RA FEW025 BKN030 08/05 Q1014 BLU BLU=
0189108600999992015011406204+48716+011534FM-15+036699999V0202401N00361030481CN009999199+00801+00401999999ADDGA1021+009141999GA2041+030481999GE19MSL   +99999+99999GF199999021999009141999999MA1101401999999REMMET082METAR ETSI 140620Z 24007KT 9999 FEW030 SCT100 08/04 Q1014 BLU+BLU TEMPO      BLU+=
0212108600999992015011407204+48716+011534FM-15+036699999V0202501N00361024381CN009999199+00801+00401999999ADDGA1021+009141999GA2041+024381999GA3071+036581999GE19MSL   +99999+99999GF199999021999009141999999MA1101401999999REMMET089METAR ETSI 140720Z 25007KT 9999 FEW030 SCT080 BKN120 08/04 Q1014 BLU      BLU TEMPO BLU+=
0226108600999992015011408204+48716+011534FM-15+036699999V0202501N00671012191CN009999199+00801+00401999999ADDGA1021+009141081GA2041+012191999GA3071+024381999GE19MSL   +99999+99999GF199999021999009141999999MA1101401999999MW1161REMMET097METAR ETSI 140820Z 25013KT 9999 VCSH FEW030TCU SCT040 BKN080 08/04      Q1014 BLU BLU TEMPO BLU+=
0203108600999992015011408384+48716+011534FM-16+036699999V0202501N004610091419N007000199+00801+00401999999ADDGA1021+006101081GA2071+009141999GE19MSL   +99999+99999GF199999021999006101999999MA1101401999999MW1801REMMET090SPECI ETSI 140838Z 25009KT 7000 -SHRA FEW020TCU BKN030 08/04 Q1014      WHT BLU TEMPO WHT=
0213108600999992015011408444+48716+011534FM-16+036699999V0202601N005110091419N004000199+00801+00401999999ADDGA1041+005491081GA2071+009141999GE19MSL   +99999+99999GF199999041999005491999999MA1101501999999MW1811OC101751REMMET092SPECI ETSI 140844Z 26010G34KT 4000 SHRA SCT018TCU BKN030 08/04 Q1015      GRN BLU TEMPO GRN=
0228108600999992015011408464+48716+011534FM-16+036699999V0202701N006710091419N002500199+00801+00401999999ADDGA1041+004571081GA2071+009141999GE19MSL   +99999+99999GF199999041999004571999999MA1101601999999OC101751REMMET094SPECI ETSI 140846Z 27013G34KT 2500 SHSNRA SCT015TCU BKN030 08/04 Q1016      YLO YLO BECMG BLU=EQDQ0184    2PRSWM 
0244108600999992015011408554+48716+011534FM-16+036699999V0202901N007710091419N004000199+00401+00301999999ADDGA1021+004571081GA2071+009141999GA3071+021341999GE19MSL   +99999+99999GF199999021999004571999999MA1101601999999MW1801OC101291REMMET107SPECI ETSI 140855Z 29015G25KT 4000 -SHRA FEW015TCU BKN030 BKN070 04/03      Q1016 RESNRA GRN GRN BECMG BLU=
0232108600999992015011408594+48716+011534FM-16+036699999V0202901N00571009141CN008000199+00401+00301999999ADDGA1021+004571081GA2041+009141999GA3071+021341999GE19MSL   +99999+99999GF199999021999004571999999MA1101501999999OC101081REMMET101SPECI ETSI 140859Z 29011G21KT 8000 FEW015TCU SCT030 BKN070 04/03 Q1015      RERASN BLU BLU TEMPO WHT=
0244108600999992015011409204+48716+011534FM-15+036699999V0202101N00211018291CN009999199+00501+00401999999ADDGA1021+003661999GA2021+004571081GA3041+018291999GA4071+024381999GE19MSL   +99999+99999GF199999021999003661999999MA1101501999999REMMET105METAR ETSI 140920Z 21004KT 9999 FEW012 FEW015TCU SCT060 BKN080 05/04      Q1015 RERASN BLU BLU TEMPO WHT=
0211108600999992015011410204+48716+011534FM-15+036699999V0202501N003610182919N009999199+00601+00401999999ADDGA1021+003661999GA2071+018291999GA3071+027431999GE19MSL   +99999+99999GF199999021999003661999999MA1101501999999REMMET088METAR ETSI 141020Z 25007KT 9999 FEW012 BKN060 BKN090 06/04 Q1015 BLU      BLU TEMPO WHT=
0211108600999992015011411204+48716+011534FM-15+036699999V0202501N00621018291CN009999199+00601+00301999999ADDGA1021+003661999GA2041+018291999GA3071+027431999GE19MSL   +99999+99999GF199999021999003661999999MA1101501999999REMMET088METAR ETSI 141120Z 25012KT 9999 FEW012 SCT060 BKN090 06/03 Q1015 BLU      BLU TEMPO WHT=
0211108600999992015011412204+48716+011534FM-15+036699999V0202601N00411018291CN009999199+00601+00201999999ADDGA1021+003661999GA2041+018291999GA3071+024381999GE19MSL   +99999+99999GF199999021999003661999999MA1101501999999REMMET088METAR ETSI 141220Z 26008KT 9999 FEW012 SCT060 BKN080 06/02 Q1015 BLU      BLU TEMPO WHT=
0211108600999992015011413204+48716+011534FM-15+036699999V0202501N00411018291CN009999199+00601+00201999999ADDGA1021+005491999GA2041+018291999GA3071+024381999GE19MSL   +99999+99999GF199999021999005491999999MA1101501999999REMMET088METAR ETSI 141320Z 25008KT 9999 FEW018 SCT060 BKN080 06/02 Q1015 BLU      BLU TEMPO WHT=
0211108600999992015011414204+48716+011534FM-15+036699999V0202301N00621033531CN009999199+00601+00201999999ADDGA1021+005491999GA2041+033531999GA3071+067061999GE19MSL   +99999+99999GF199999021999005491999999MA1101401999999REMMET088METAR ETSI 141420Z 23012KT 9999 FEW018 SCT110 BKN220 06/02 Q1014 BLU+BLU      TEMPO WHT=
0188108600999992015011415204+48716+011534FM-15+036699999V0202201N005710091419N009999199+00601+00201999999ADDGA1021+005491999GA2071+009141999GE19MSL   +99999+99999GF199999021999005491999999MA1101401999999REMMET081METAR ETSI 141520Z 22011KT 9999 FEW018 BKN030 06/02 Q1014 BLU BLU TEMPO      WHT=
0209108600999992015011416004+48716+011534FM-16+036699999V0202401N00771033531CN009999199+00601+00201999999ADDGA1041+008531999GA2041+033531999GA3071+060961999GE19MSL   +99999+99999GF199999041999008531999999MA1101401999999REMMET086SPECI ETSI 141600Z 24015KT 9999 SCT028 SCT110 BKN200 06/02 Q1014 BLU+FCST      CANCEL=
0207108600999992015011416204+48716+011534FM-15+036699999V0202401N007210070119N009999199+00601+00201999999ADDGA1021+003661999GA2071+007011999GA3071+013721999GE19MSL   +99999+99999GF199999021999003661999999MA1101401999999MW1611REMMET078METAR ETSI 141620Z 24014KT 9999 -RA FEW012 BKN023 BKN045 06/02 Q1014      WHT=
0198108600999992015011416364+48716+011534FM-16+036699999V0202801N006710054919N004000199+00601+00301999999ADDGA1041+003661999GA2071+005491091GE19MSL   +99999+99999GF199999041999003661999999MA1101601999999MW1951OC102111REMMET077SPECI ETSI 141636Z 28013G41KT 4000 TSRA SCT012 BKN018CB 06/03 Q1016      GRN=
0204108600999992015011416464+48716+011534FM-16+036699999V0203001N012910054919N005000199+00301+00101999999ADDGA1041+003661999GA2071+005491081GE19MSL   +99999+99999GF199999041999003661999999MA1101601999999MW1811OC102061REMMET083SPECI ETSI 141646Z 30025G40KT 5000 SHRA SCT012 BKN018TCU 03/01 Q1016      RETS WHT=
0228108600999992015011416554+48716+011534FM-16+036699999V0203001N00771007621CN009999199+00201+00101999999ADDGA1021+003661999GA2041+007621081GA3071+013721999GE19MSL   +99999+99999GF199999021999003661999999MA1101601999999MW1801OC101491REMMET091SPECI ETSI 141655Z 30015G29KT 9999 -SHRA FEW012 SCT025TCU BKN045 02/01      Q1016 RETS BLU=
0202108600999992015011417204+48716+011534FM-15+036699999V0202601N005110100619N009999199+00301+00101999999ADDGA1021+004571999GA2071+010061999GA3071+019811999GE19MSL   +99999+99999GF199999021999004571999999MA1101601999999REMMET079METAR ETSI 141720Z 26010KT 9999 FEW015 BKN033 BKN065 03/01 Q1016 RETS      BLU=
0147108600999992015011418204+48716+011534FM-15+036699999V0202601N005719999999N009999199+00301+00101999999ADDGA1021+010671999GE19MSL   +99999+99999GF199999021999010671999999MA1101601999999REMMET056METAR ETSI 141820Z 26011KT 9999 FEW035 03/01 Q1016 BLU+=
0147108600999992015011419204+48716+011534FM-15+036699999V0202601N003619999999N009999199+00301+00101999999ADDGA1021+006711999GE19MSL   +99999+99999GF199999021999006711999999MA1101801999999REMMET056METAR ETSI 141920Z 26007KT 9999 FEW022 03/01 Q1018 BLU+=
0091108600999992015011420204+48716+011534FM-15+036699999V0202901N005119999999N999999999+00301-00101999999ADDMA1101901999999REMMET064METAR ETSI 142020Z AUTO 29010KT //// // ////// 03/M01 Q1019 ///=
0090108600999992015011421204+48716+011534FM-15+036699999V0202401N003619999999N999999999+00201+00001999999ADDMA1102001999999REMMET063METAR ETSI 142120Z AUTO 24007KT //// // ////// 02/00 Q1020 ///=
0090108600999992015011422204+48716+011534FM-15+036699999V0201801N001019999999N999999999+00101+00001999999ADDMA1102001999999REMMET063METAR ETSI 142220Z AUTO 18002KT //// // ////// 01/00 Q1020 ///=
0091108600999992015011423204+48716+011534FM-15+036699999V0202001N001019999999N999999999+00001+00001999999ADDMA1102001999999REMMET064METAR ETSI 142320Z AUTO 20002KT //// // ////// 00/M00 Q1020 ///=
0092108600999992015011500204+48716+011534FM-15+036699999V0201001N001019999999N999999999+00001+00001999999ADDMA1101901999999REMMET065METAR ETSI 150020Z AUTO 10002KT //// // ////// M00/M00 Q1019 ///=
0092108600999992015011501204+48716+011534FM-15+036699999V0201201N001019999999N999999999-00201-00201999999ADDMA1101801999999REMMET065METAR ETSI 150120Z AUTO 12002KT //// // ////// M02/M02 Q1018 ///=
0092108600999992015011502204+48716+011534FM-15+036699999V0201501N002119999999N999999999-00101-00101999999ADDMA1101801999999REMMET065METAR ETSI 150220Z AUTO 15004KT //// // ////// M01/M01 Q1018 ///=
0092108600999992015011503204+48716+011534FM-15+036699999V0200801N001019999999N999999999-00101-00101999999ADDMA1101701999999REMMET065METAR ETSI 150320Z AUTO 08002KT //// // ////// M01/M01 Q1017 ///=
0182108600999992015011504204+48716+011534FM-15+036699999V0200601N00151042671CN009999199+00001+00001999999ADDGA1021+030481999GA2041+042671999GE19MSL   +99999+99999GF199999021999030481999999MA1101601999999MW1121REMMET069METAR ETSI 150420Z 06003KT 9999 MIFG FEW100 SCT140 00/M00 Q1016 BLU+=
0178108600999992015011505204+48716+011534FM-15+036699999V0200701N001510396219N009999199-00101-00201999999ADDGA1071+039621999GE19MSL   +99999+99999GF199999071999039621999999MA1101501999999MW1121REMMET081METAR ETSI 150520Z 07003KT 9999 MIFG BKN130 M01/M02 Q1015 BLU BLU TEMPO      WHT=
0201108600999992015011506204+48716+011534FM-15+036699999V0201001N00211060961CN009999199-00201-00201999999ADDGA1041+042671999GA2041+060961999GE19MSL   +99999+99999GF199999041999042671999999MA1101401999999MW1121REMMET088METAR ETSI 150620Z 10004KT 9999 MIFG SCT140 SCT200 M02/M02 Q1014 BLU+BLU      TEMPO WHT=
0190108600999992015011507204+48716+011534FM-15+036699999V0200401N001010579119N009999199+00001-00101999999ADDGA1041+030481999GA2071+057911999GE19MSL   +99999+99999GF199999041999030481999999MA1101501999999REMMET083METAR ETSI 150720Z 04002KT 9999 SCT100 BKN190 M00/M01 Q1015 BLU BLU      TEMPO WHT=
0206108600999992015011508204+48716+011534FM-15+036699999V0201101N002110304819N009999199+00001+00001999999ADDGA1041+019811999GA2071+030481999GA3071+057911999GE19MSL   +99999+99999GF199999041999019811999999MA1101401999999REMMET083METAR COR ETSI 150820Z 11004KT 9999 SCT065 BKN100 BKN190 00/M00 Q1014      BLU BLU=
0201108600999992015011509204+48716+011534FM-15+036699999V0200701N001510304819N009999199+00201+00101999999ADDGA1021+018291999GA2071+030481999GA3071+076201999GE19MSL   +99999+99999GF199999021999018291999999MA1101301999999REMMET078METAR ETSI 150920Z 07003KT 9999 FEW060 BKN100 BKN250 02/01 Q1013 BLU      BLU=
0201108600999992015011510204+48716+011534FM-15+036699999V0200401N002110365819N009999199+00301+00101999999ADDGA1041+027431999GA2071+036581999GA3071+079251999GE19MSL   +99999+99999GF199999041999027431999999MA1101301999999REMMET078METAR ETSI 151020Z 04004KT 9999 SCT090 BKN120 BKN260 03/01 Q1013 BLU      BLU=
0201108600999992015011511204+48716+011534FM-15+036699999V0200501N00101027431CN009999199+00601+00101999999ADDGA1041+015241999GA2041+027431999GA3071+033531999GE19MSL   +99999+99999GF199999041999015241999999MA1101301999999REMMET078METAR ETSI 151120Z 05002KT 9999 SCT050 SCT090 BKN110 06/01 Q1013 BLU      BLU=
0201108600999992015011512204+48716+011534FM-15+036699999V0209999V001010274319N009999199+00601+00101999999ADDGA1021+012191999GA2071+027431999GA3071+033531999GE19MSL   +99999+99999GF199999021999012191999999MA1101101999999REMMET078METAR ETSI 151220Z VRB02KT 9999 FEW040 BKN090 BKN110 06/01 Q1011 BLU      BLU=
0173108600999992015011513204+48716+011534FM-15+036699999V0201201N001510213419N009999199+00701+00201999999ADDGA1021+015241999GA2071+021341999GE19MSL   +99999+99999GF199999021999015241999999MA1101101999999REMMET066METAR ETSI 151320Z 12003KT 9999 FEW050 BKN070 07/02 Q1011 BLU BLU=
0201108600999992015011514204+48716+011534FM-15+036699999V0200601N002110243819N009999199+00601+00301999999ADDGA1021+018291999GA2071+024381999GA3071+030481999GE19MSL   +99999+99999GF199999021999018291999999MA1101001999999REMMET078METAR ETSI 151420Z 06004KT 9999 FEW060 BKN080 BKN100 06/03 Q1010 BLU      BLU=
0173108600999992015011515204+48716+011534FM-15+036699999V0200701N001510335319N009999199+00501+00201999999ADDGA1021+027431999GA2071+033531999GE19MSL   +99999+99999GF199999021999027431999999MA1101001999999REMMET066METAR ETSI 151520Z 07003KT 9999 FEW090 BKN110 05/02 Q1010 BLU BLU=
0189108600999992015011516204+48716+011534FM-15+036699999V0200501N001510609619N009999199+00601+00101999999ADDGA1041+027431999GA2071+060961999GE19MSL   +99999+99999GF199999041999027431999999MA1101001999999REMMET082METAR ETSI 151620Z 05003KT 9999 SCT090 BKN200 06/01 Q1010 BLU+BLU+      TEMPO BLU=
0212108600999992015011517204+48716+011534FM-15+036699999V0200701N001510335319N009999199+00301+00101999999ADDGA1021+024381999GA2071+033531999GA3071+060961999GE19MSL   +99999+99999GF199999021999024381999999MA1100901999999REMMET089METAR ETSI 151720Z 07003KT 9999 FEW080 BKN110 BKN200 03/01 Q1009 BLU      BLU+ TEMPO BLU=
0186108600999992015011518204+48716+011534FM-15+036699999V0200801N001510304819N009999199+00201+00101999999ADDGA1021+024381999GA2071+030481999GE19MSL   +99999+99999GF199999021999024381999999MA1100901999999REMMET079METAR ETSI 151820Z 08003KT 9999 FEW080 BKN100 02/01 Q1009 BLU FCST      CANCEL=
0090108600999992015011519204+48716+011534FM-15+036699999V0200101N001519999999N999999999+00201+00101999999ADDMA1100801999999REMMET063METAR ETSI 151920Z AUTO 01003KT //// // ////// 02/01 Q1008 ///=
0090108600999992015011520204+48716+011534FM-15+036699999V0200601N001519999999N999999999+00101+00001999999ADDMA1100901999999REMMET063METAR ETSI 152020Z AUTO 06003KT //// // ////// 01/00 Q1009 ///=
0091108600999992015011521204+48716+011534FM-15+036699999V0201101N002119999999N999999999+00001+00001999999ADDMA1100901999999REMMET064METAR ETSI 152120Z AUTO 11004KT //// // ////// 00/M00 Q1009 ///=
0092108600999992015011522204+48716+011534FM-15+036699999V0200801N001519999999N999999999+00001-00101999999ADDMA1100901999999REMMET065METAR ETSI 152220Z AUTO 08003KT //// // ////// M00/M01 Q1009 ///=
0092108600999992015011523204+48716+011534FM-15+036699999V0200801N001519999999N999999999-00101-00101999999ADDMA1100901999999REMMET065METAR ETSI 152320Z AUTO 08003KT //// // ////// M01/M01 Q1009 ///=
0092108600999992015011600204+48716+011534FM-15+036699999V0201001N001519999999N999999999-00101-00101999999ADDMA1100901999999REMMET065METAR ETSI 160020Z AUTO 10003KT //// // ////// M01/M01 Q1009 ///=
0092108600999992015011601204+48716+011534FM-15+036699999V0200901N002119999999N999999999-00201-00201999999ADDMA1101001999999REMMET065METAR ETSI 160120Z AUTO 09004KT //// // ////// M02/M02 Q1010 ///=
0092108600999992015011602204+48716+011534FM-15+036699999V0200801N001519999999N999999999-00201-00201999999ADDMA1100901999999REMMET065METAR ETSI 160220Z AUTO 08003KT //// // ////// M02/M02 Q1009 ///=
0092108600999992015011603204+48716+011534FM-15+036699999V0200801N002119999999N999999999-00101-00201999999ADDMA1100901999999REMMET065METAR ETSI 160320Z AUTO 08004KT //// // ////// M01/M02 Q1009 ///=
0149108600999992015011604204+48716+011534FM-15+036699999V0200701N002119999999N009999199-00201-00201999999ADDGA1021+076201999GE19MSL   +99999+99999GF199999021999076201999999MA1100901999999REMMET058METAR ETSI 160420Z 07004KT 9999 FEW250 M02/M02 Q1009 BLU+=
0153108600999992015011605204+48716+011534FM-15+036699999V0200701N001019999999N009999199-00101-00201999999ADDGA1021+076201999GE19MSL   +99999+99999GF199999021999076201999999MA1100901999999REMMET062METAR ETSI 160520Z 07002KT 9999 FEW250 M01/M02 Q1009 BLU+BLU+=
0152108600999992015011606204+48716+011534FM-15+036699999V0201001N002610396219N009999199-00101-00101999999ADDGA1071+039621999GE19MSL   +99999+99999GF199999071999039621999999MA1100901999999REMMET061METAR ETSI 160620Z 10005KT 9999 BKN130 M01/M01 Q1009 BLU BLU=
0175108600999992015011607204+48716+011534FM-15+036699999V0200601N001010396219N009999199-00101-00201999999ADDGA1071+039621999GA2041+070101999GE19MSL   +99999+99999GF199999071999039621999999MA1100901999999REMMET068METAR ETSI 160720Z 06002KT 9999 BKN130 SCT230 M01/M02 Q1009 BLU BLU=
0175108600999992015011608204+48716+011534FM-15+036699999V0200801N002110396219N009999199+00001-00101999999ADDGA1041+030481999GA2071+039621999GE19MSL   +99999+99999GF199999041999030481999999MA1100901999999REMMET068METAR ETSI 160820Z 08004KT 9999 SCT100 BKN130 M00/M01 Q1009 BLU BLU=
0151108600999992015011609204+48716+011534FM-15+036699999V0200801N001510396219N009999199+00101+00001999999ADDGA1071+039621999GE19MSL   +99999+99999GF199999071999039621999999MA1100901999999REMMET060METAR ETSI 160920Z 08003KT 9999 BKN130 01/M00 Q1009 BLU BLU=
0173108600999992015011610204+48716+011534FM-15+036699999V0200601N001510396219N009999199+00201+00001999999ADDGA1071+039621999GA2071+057911999GE19MSL   +99999+99999GF199999071999039621999999MA1100801999999REMMET066METAR ETSI 161020Z 06003KT 9999 BKN130 BKN190 02/00 Q1008 BLU BLU=
0201108600999992015011611204+48716+011534FM-15+036699999V0200701N001510365819N009999199+00301+00001999999ADDGA1021+015241999GA2071+036581999GA3071+060961999GE19MSL   +99999+99999GF199999021999015241999999MA1100801999999REMMET078METAR ETSI 161120Z 07003KT 9999 FEW050 BKN120 BKN200 03/00 Q1008 BLU      BLU=
0209108600999992015011612004+48716+011534FM-16+036699999V0200701N002110365819N009999199+00301+00101999999ADDGA1021+018291999GA2071+036581999GA3071+060961999GE19MSL   +99999+99999GF199999021999018291999999MA1100801999999REMMET086SPECI ETSI 161200Z 07004KT 9999 FEW060 BKN120 BKN200 03/01 Q1008 BLU      FCST CANCEL=
0169108600999992015011612204+48716+011534FM-15+036699999V0200701N002110365819N009999199+00401+00001999999ADDGA1021+018291999GA2071+036581999GE19MSL   +99999+99999GF199999021999018291999999MA1100701999999REMMET062METAR ETSI 161220Z 07004KT 9999 FEW060 BKN120 04/00 Q1007 BLU=
0169108600999992015011613004+48716+011534FM-16+036699999V0200701N002110396219N009999199+00401+00101999999ADDGA1071+039621999GA2071+060961999GE19MSL   +99999+99999GF199999071999039621999999MA1100701999999REMMET062SPECI ETSI 161300Z 07004KT 9999 BKN130 BKN200 04/01 Q1007 BLU=
0169108600999992015011613204+48716+011534FM-15+036699999V0200601N002610396219N009999199+00401+00101999999ADDGA1071+039621999GA2071+060961999GE19MSL   +99999+99999GF199999071999039621999999MA1100601999999REMMET062METAR ETSI 161320Z 06005KT 9999 BKN130 BKN200 04/01 Q1006 BLU=
0169108600999992015011614204+48716+011534FM-15+036699999V0200701N002610365819N009999199+00401+00201999999ADDGA1071+036581999GA2071+054861999GE19MSL   +99999+99999GF199999071999036581999999MA1100601999999REMMET062METAR ETSI 161420Z 07005KT 9999 BKN120 BKN180 04/02 Q1006 BLU=
0169108600999992015011615204+48716+011534FM-15+036699999V0200601N003110335319N009999199+00401+00101999999ADDGA1071+033531999GA2071+051821999GE19MSL   +99999+99999GF199999071999033531999999MA1100601999999REMMET062METAR ETSI 161520Z 06006KT 9999 BKN110 BKN170 04/01 Q1006 BLU=
0193108600999992015011616204+48716+011534FM-15+036699999V0200601N00211039621CN009999199+00301+00101999999ADDGA1021+027431999GA2041+039621999GA3071+060961999GE19MSL   +99999+99999GF199999021999027431999999MA1100501999999REMMET070METAR ETSI 161620Z 06004KT 9999 FEW090 SCT130 BKN200 03/01 Q1005 BLU+=
0169108600999992015011617204+48716+011534FM-15+036699999V0200501N001510579119N009999199+00301+00101999999ADDGA1021+042671999GA2071+057911999GE19MSL   +99999+99999GF199999021999042671999999MA1100501999999REMMET062METAR ETSI 161720Z 05003KT 9999 FEW140 BKN190 03/01 Q1005 BLU=
0169108600999992015011618204+48716+011534FM-15+036699999V0200701N002110365819N009999199+00201+00101999999ADDGA1071+036581999GA2071+054861999GE19MSL   +99999+99999GF199999071999036581999999MA1100501999999REMMET062METAR ETSI 161820Z 07004KT 9999 BKN120 BKN180 02/01 Q1005 BLU=
0090108600999992015011619204+48716+011534FM-15+036699999V0203601N001019999999N999999999+00201+00101999999ADDMA1100501999999REMMET063METAR ETSI 161920Z AUTO 36002KT //// // ////// 02/01 Q1005 ///=
0091108600999992015011620204+48716+011534FM-15+036699999V0209999V000519999999N999999999+00101+00001999999ADDMA1100501999999REMMET064METAR ETSI 162020Z AUTO VRB01KT //// // ////// 01/M00 Q1005 ///=
0091108600999992015011621204+48716+011534FM-15+036699999V0202401N001519999999N999999999+00001+00001999999ADDMA1100501999999REMMET064METAR ETSI 162120Z AUTO 24003KT //// // ////// 00/M00 Q1005 ///=
0091108600999992015011622204+48716+011534FM-15+036699999V0202601N002119999999N999999999+00001+00001999999ADDMA1100601999999REMMET064METAR ETSI 162220Z AUTO 26004KT //// // ////// 00/M00 Q1006 ///=
0091108600999992015011623204+48716+011534FM-15+036699999V0202401N002619999999N999999999+00001+00001999999ADDMA1100601999999REMMET064METAR ETSI 162320Z AUTO 24005KT //// // ////// 00/M00 Q1006 ///=
0090108600999992015011700204+48716+011534FM-15+036699999V0202601N001519999999N999999999+00101+00001999999ADDMA1100701999999REMMET063METAR ETSI 170020Z AUTO 26003KT //// // ////// 01/00 Q1007 ///=
0090108600999992015011701204+48716+011534FM-15+036699999V0202501N002119999999N999999999+00201+00101999999ADDMA1100801999999REMMET063METAR ETSI 170120Z AUTO 25004KT //// // ////// 02/01 Q1008 ///=
0090108600999992015011702204+48716+011534FM-15+036699999V0202501N002619999999N999999999+00201+00101999999ADDMA1100801999999REMMET063METAR ETSI 170220Z AUTO 25005KT //// // ////// 02/01 Q1008 ///=
0090108600999992015011703204+48716+011534FM-15+036699999V0202501N002119999999N999999999+00301+00301999999ADDMA1100901999999REMMET063METAR ETSI 170320Z AUTO 25004KT //// // ////// 03/03 Q1009 ///=
0090108600999992015011704204+48716+011534FM-15+036699999V0202701N002619999999N999999999+00401+00301999999ADDMA1101001999999REMMET063METAR ETSI 170420Z AUTO 27005KT //// // ////// 04/03 Q1010 ///=
0090108600999992015011705204+48716+011534FM-15+036699999V0202701N004119999999N999999999+00301+00201999999ADDMA1101101999999REMMET063METAR ETSI 170520Z AUTO 27008KT //// // ////// 03/02 Q1011 ///=
0090108600999992015011706204+48716+011534FM-15+036699999V0202701N003619999999N999999999+00301+00201999999ADDMA1101101999999REMMET063METAR ETSI 170620Z AUTO 27007KT //// // ////// 03/02 Q1011 ///=
0090108600999992015011707204+48716+011534FM-15+036699999V0202901N003119999999N999999999+00201+00101999999ADDMA1101201999999REMMET063METAR ETSI 170720Z AUTO 29006KT //// // ////// 02/01 Q1012 ///=
0090108600999992015011708204+48716+011534FM-15+036699999V0202601N002619999999N999999999+00101+00101999999ADDMA1101301999999REMMET063METAR ETSI 170820Z AUTO 26005KT //// // ////// 01/01 Q1013 ///=
0090108600999992015011709204+48716+011534FM-15+036699999V0202601N002119999999N999999999+00101+00101999999ADDMA1101401999999REMMET063METAR ETSI 170920Z AUTO 26004KT //// // ////// 01/01 Q1014 ///=
0090108600999992015011710204+48716+011534FM-15+036699999V0202601N002119999999N999999999+00101+00101999999ADDMA1101401999999REMMET063METAR ETSI 171020Z AUTO 26004KT //// // ////// 01/01 Q1014 ///=
0090108600999992015011711204+48716+011534FM-15+036699999V0202501N003119999999N999999999+00101+00101999999ADDMA1101501999999REMMET063METAR ETSI 171120Z AUTO 25006KT //// // ////// 01/01 Q1015 ///=
0090108600999992015011712204+48716+011534FM-15+036699999V0202601N002619999999N999999999+00201+00201999999ADDMA1101401999999REMMET063METAR ETSI 171220Z AUTO 26005KT //// // ////// 02/02 Q1014 ///=
0090108600999992015011713204+48716+011534FM-15+036699999V0202601N002619999999N999999999+00201+00201999999ADDMA1101401999999REMMET063METAR ETSI 171320Z AUTO 26005KT //// // ////// 02/02 Q1014 ///=
0090108600999992015011714204+48716+011534FM-15+036699999V0202501N002119999999N999999999+00301+00201999999ADDMA1101501999999REMMET063METAR ETSI 171420Z AUTO 25004KT //// // ////// 03/02 Q1015 ///=
0090108600999992015011715204+48716+011534FM-15+036699999V0202501N002119999999N999999999+00301+00201999999ADDMA1101501999999REMMET063METAR ETSI 171520Z AUTO 25004KT //// // ////// 03/02 Q1015 ///=
0218108600999992015011716204+48716+011534FM-15+036699999V0202401N001510061019N004500199+00201+00201999999ADDGA1041+001521999GA2071+006101999GA3071+010671999GE19MSL   +99999+99999GF199999041999001521999999MA1101601999999MW1101MW2581REMMET083METAR ETSI 171620Z 24003KT 4500 -RADZ BR SCT005 BKN020 BKN035 02/02      Q1016 GRN=
0090108600999992015011717204+48716+011534FM-15+036699999V0202501N002119999999N999999999+00201+00101999999ADDMA1101601999999REMMET063METAR ETSI 171720Z AUTO 25004KT //// // ////// 02/01 Q1016 ///=
0090108600999992015011718204+48716+011534FM-15+036699999V0202501N002119999999N999999999+00201+00201999999ADDMA1101601999999REMMET063METAR ETSI 171820Z AUTO 25004KT //// // ////// 02/02 Q1016 ///=
0090108600999992015011719204+48716+011534FM-15+036699999V0202501N002119999999N999999999+00201+00201999999ADDMA1101701999999REMMET063METAR ETSI 171920Z AUTO 25004KT //// // ////// 02/02 Q1017 ///=
0090108600999992015011720204+48716+011534FM-15+036699999V0202501N002119999999N999999999+00201+00201999999ADDMA1101701999999REMMET063METAR ETSI 172020Z AUTO 25004KT //// // ////// 02/02 Q1017 ///=
0090108600999992015011721204+48716+011534FM-15+036699999V0202501N001519999999N999999999+00201+00101999999ADDMA1101701999999REMMET063METAR ETSI 172120Z AUTO 25003KT //// // ////// 02/01 Q1017 ///=
0090108600999992015011722204+48716+011534FM-15+036699999V0202201N002119999999N999999999+00201+00101999999ADDMA1101801999999REMMET063METAR ETSI 172220Z AUTO 22004KT //// // ////// 02/01 Q1018 ///=
0090108600999992015011723204+48716+011534FM-15+036699999V0202101N000519999999N999999999+00101+00101999999ADDMA1101801999999REMMET063METAR ETSI 172320Z AUTO 21001KT //// // ////// 01/01 Q1018 ///=
0090108600999992015011800204+48716+011534FM-15+036699999V0202101N001019999999N999999999+00101+00101999999ADDMA1101801999999REMMET063METAR ETSI 180020Z AUTO 21002KT //// // ////// 01/01 Q1018 ///=
0090108600999992015011801204+48716+011534FM-15+036699999V0202101N001019999999N999999999+00101+00101999999ADDMA1101801999999REMMET063METAR ETSI 180120Z AUTO 21002KT //// // ////// 01/01 Q1018 ///=
0090108600999992015011802204+48716+011534FM-15+036699999V0202201N001019999999N999999999+00101+00101999999ADDMA1101801999999REMMET063METAR ETSI 180220Z AUTO 22002KT //// // ////// 01/01 Q1018 ///=
0090108600999992015011803204+48716+011534FM-15+036699999V0202301N001519999999N999999999+00101+00101999999ADDMA1101801999999REMMET063METAR ETSI 180320Z AUTO 23003KT //// // ////// 01/01 Q1018 ///=
0090108600999992015011804204+48716+011534FM-15+036699999V0202401N001019999999N999999999+00101+00101999999ADDMA1101701999999REMMET063METAR ETSI 180420Z AUTO 24002KT //// // ////// 01/01 Q1017 ///=
0155108600999992015011805204+48716+011534FM-15+036699999V0201901N001010012219N004000199+00101+00101999999ADDGA1081+001221999GE19MSL   +99999+99999GF199999081999001221999999MA1101701999999MW1101REMMET058METAR ETSI 180520Z 19002KT 4000 BR OVC004 01/01 Q1017 YLO=
0090108600999992015011806204+48716+011534FM-15+036699999V0202401N000519999999N999999999+00101+00101999999ADDMA1101801999999REMMET063METAR ETSI 180620Z AUTO 24001KT //// // ////// 01/01 Q1018 ///=
