0127108600999992010010415004+48717+011533FM-15+0365ETSI V0200401N002112200019N0112651N1-00101-00601999999ADDGA1021+006001999GF102991999999999999999999MA1101191999999REMMET058SPECI ETSI 041456Z 04004KT 9999 FEW020 M01/M06 Q1012 BLU/;
0126108600999992010010505504+48717+011533FM-16+0365ETSI V0200501N002110036019N0112651N1-00501-00601999999ADDGA1081+003601999GF108991999999999999999999MA1100811999999REMMET057SPECI ETSI 050550Z 05004KT 9999 OVC012 M05/M06 Q1008 GRN;
0126108600999992010010506204+48717+011533FM-15+0365ETSI V0200601N001510039019N0080001N1-00501-00501999999ADDGA1081+003901999GF108991999999999999999999MA1100811999999REMMET057METAR ETSI 050620Z 06003KT 8000 OVC013 M05/M05 Q1008 GRN;
0149108600999992010010615204+48717+011533FM-15+0365ETSI V0202401N001510096019N0070001N1-00301-00501999999ADDGA1041+004501999GA2081+009601999GF108991999999999999999999MA1100201999999REMMET064METAR ETSI 061520Z 24003KT 7000 SCT015 OVC032 M03/M05 Q1002 WHT;
0172108600999992010010616204+48717+011533FM-15+0365ETSI V0202601N00151012001CN0070001N1-00301-00401999999ADDGA1021+004501999GA2041+012001999GA3071+015001999GF107991999999999999999999MA1100201999999REMMET071METAR ETSI 061620Z 26003KT 7000 FEW015 SCT040 BKN050 M03/M04 Q1002 WHT;
0126108600999992010010617204+48717+011533FM-15+0365ETSI V0202501N001510054019N0070001N1-00301-00401999999ADDGA1071+005401999GF107991999999999999999999MA1100201999999REMMET057METAR ETSI 061720Z 25003KT 7000 BKN018 M03/M04 Q1002 WHT;
0126108600999992010010618204+48717+011533FM-15+0365ETSI V0202201N001010054019N0070001N1-00301-00501999999ADDGA1081+005401999GF108991999999999999999999MA1100311999999REMMET057METAR ETSI 061820Z 22002KT 7000 OVC018 M03/M05 Q1003 WHT;
0191108600999992010010704524+48717+011533FM-16+0365ETSI V0202201N00101006001CN0025001N1-00401-00401999999ADDGA1021+003601999GA2041+006001999GA3071+009001999GF107991999999999999999999MA1100611999999MW1101MW2711REMMET078SPECI ETSI 070452Z 22002KT 2500 -SN BR FEW012 SCT020 BKN030 M04/M04 Q1006 YLO;
0149108600999992010010713364+48717+011533FM-16+0365ETSI V0209999V000512200019N0112651N1+00101-00601999999ADDGA1021+006001999GA2041+060001999GF104991999999999999999999MA1100811999999REMMET064SPECI ETSI 071336Z VRB01KT 9999 FEW020 SCT200 01/M06 Q1008 BLU/;
0150108600999992010010714204+48717+011533FM-15+0365ETSI V0200701N002112200019N0112651N1+00001-00601999999ADDGA1021+006001999GA2041+060001999GF104991999999999999999999MA1100811999999REMMET065METAR ETSI 071420Z 07004KT 9999 FEW020 SCT200 M00/M06 Q1008 BLU/;
0149108600999992010010715204+48717+011533FM-15+0365ETSI V0200801N001510300019N0112651N1-00101-00501999999ADDGA1021+006001999GA2071+030001999GF107991999999999999999999MA1100911999999REMMET064METAR ETSI 071520Z 08003KT 9999 FEW020 BKN100 M01/M05 Q1009 BLU;
0126108600999992010010716204+48717+011533FM-15+0365ETSI V0200601N001510300019N0080001N1-00201-00501999999ADDGA1071+030001999GF107991999999999999999999MA1101021999999REMMET057METAR ETSI 071620Z 06003KT 8000 BKN100 M02/M05 Q1010 BLU;
0149108600999992010010813294+48717+011533FM-16+0365ETSI V0200501N004110081019N0112651N1-00201-00401999999ADDGA1021+004501999GA2081+008101999GF108991999999999999999999MA1100611999999REMMET064SPECI ETSI 081329Z 05008KT 9999 FEW015 OVC027 M02/M04 Q1006 BLU;
0149108600999992010010814204+48717+011533FM-15+0365ETSI V0200401N005710051019N0112651N1-00201-00501999999ADDGA1071+005101999GA2081+007501999GF108991999999999999999999MA1100611999999REMMET064METAR ETSI 081420Z 04011KT 9999 BKN017 OVC025 M02/M05 Q1006 WHT;
0149108600999992010010815204+48717+011533FM-15+0365ETSI V0200401N004610045019N0090001N1-00201-00501999999ADDGA1071+004501999GA2081+006901999GF108991999999999999999999MA1100611999999REMMET064METAR ETSI 081520Z 04009KT 9000 BKN015 OVC023 M02/M05 Q1006 WHT;
0126108600999992010010816204+48717+011533FM-15+0365ETSI V0200401N004610042019N0080001N1-00301-00401999999ADDGA1081+004201999GF108991999999999999999999MA1100611999999REMMET057METAR ETSI 081620Z 04009KT 8000 OVC014 M03/M04 Q1006 GRN;
0126108600999992010010817204+48717+011533FM-15+0365ETSI V0200401N004610039019N0090001N1-00301-00501999999ADDGA1081+003901999GF108991999999999999999999MA1100511999999REMMET057METAR ETSI 081720Z 04009KT 9000 OVC013 M03/M05 Q1005 GRN;
0149108600999992010010913204+48717+011533FM-15+0365ETSI V0200501N003610048019N0080001N1-00301-00501999999ADDGA1071+004801999GA2071+007501999GF107991999999999999999999MA1100311999999REMMET064METAR ETSI 091320Z 05007KT 8000 BKN016 BKN025 M03/M05 Q1003 WHT;
0135108600999992010011007394+48717+011533FM-16+0365ETSI V0202601N002610030019N0040001N1-00401-00501999999ADDGA1081+003001999GF108991999999999999999999MA1100811999999MW1101REMMET060SPECI ETSI 100739Z 26005KT 4000 BR OVC010 M04/M05 Q1008 GRN;
0158108600999992010011008204+48717+011533FM-15+0365ETSI V0202501N002610024019N0040001N1-00401-00401999999ADDGA1071+002401999GA2081+004201999GF108991999999999999999999MA1100911999999MW1101REMMET067METAR ETSI 100820Z 25005KT 4000 BR BKN008 OVC014 M04/M04 Q1009 GRN;
0158108600999992010011009064+48717+011533FM-16+0365ETSI V0202601N003610057019N0040001N1-00401-00501999999ADDGA1041+002401999GA2081+005701999GF108991999999999999999999MA1100911999999MW1101REMMET067SPECI ETSI 100906Z 26007KT 4000 BR SCT008 OVC019 M04/M05 Q1009 GRN;
0158108600999992010011009204+48717+011533FM-15+0365ETSI V0202601N004110057019N0045001N1-00401-00501999999ADDGA1041+002401999GA2081+005701999GF108991999999999999999999MA1101021999999MW1101REMMET067METAR ETSI 100920Z 26008KT 4500 BR SCT008 OVC019 M04/M05 Q1010 GRN;
0158108600999992010011009334+48717+011533FM-16+0365ETSI V0202601N004110054019N0050001N1-00401-00501999999ADDGA1021+002401999GA2081+005401999GF108991999999999999999999MA1101021999999MW1101REMMET067SPECI ETSI 100933Z 26008KT 5000 BR FEW008 OVC018 M04/M05 Q1010 WHT;
0181108600999992010011010204+48717+011533FM-15+0365ETSI V0202601N004110045019N0050001N1-00401-00501999999ADDGA1021+002401999GA2071+004501999GA3081+006301999GF108991999999999999999999MA1101021999999MW1101REMMET074METAR ETSI 101020Z 26008KT 5000 BR FEW008 BKN015 OVC021 M04/M05 Q1010 WHT;
0145108600999992010011014204+48717+011533FM-15+0365ETSI V0202601N003610039019N0038001N1-00301-00401999999ADDGA1081+003901999GF108991999999999999999999MA1101081999999MW1101MW2711REMMET064METAR ETSI 101420Z 26007KT 3800 -SN BR OVC013 M03/M04 Q1011 GRN;
0145108600999992010011015204+48717+011533FM-15+0365ETSI V0202801N003610039019N0040001N1-00301-00501999999ADDGA1081+003901999GF108991999999999999999999MA1101191999999MW1101MW2711REMMET064METAR ETSI 101520Z 28007KT 4000 -SN BR OVC013 M03/M05 Q1012 GRN;
0145108600999992010011015284+48717+011533FM-16+0365ETSI V0202801N003110036019N0035001N1-00301-00501999999ADDGA1081+003601999GF108991999999999999999999MA1101191999999MW1101MW2711REMMET064SPECI ETSI 101528Z 28006KT 3500 -SN BR OVC012 M03/M05 Q1012 YLO;
0168108600999992010011104204+48717+011533FM-15+0365ETSI V0202501N003110105019N0028001N1-00401-00501999999ADDGA1041+004501999GA2081+010501999GF108991999999999999999999MA1101391999999MW1101MW2711REMMET071METAR ETSI 110420Z 25006KT 2800 -SN BR SCT015 OVC035 M04/M05 Q1014 YLO;
0185108600999992010011105004+48717+011533FM-12+0365ETSI V0202501N00301004201CN0028001N1-00411-00471101681ADDAY171999GA1021+004501061GF108991081051004501999999MA1999999097101MD1010021+9999MW1711REMSYN088AAXX  11051 10860 41428 82503 11041 21047 39710 40168 50002 7717/ 885// 333 82615 88642;
0182108600999992010011105204+48717+011533FM-15+0365ETSI V0202501N003110090019N0028001N1-00401-00501999999ADDGA1021+004501999GA2081+009001999GF108991999999999999999999MA1101391999999MW1101MW2711REMMET085METAR ETSI 110520Z 25006KT 2800 -SN BR FEW015 OVC030 M04/M05 Q1014 YLO YLO TEMPO WHT;
0182108600999992010011106204+48717+011533FM-15+0365ETSI V0202501N002610111019N0023001N1-00401-00501999999ADDGA1041+003001999GA2081+011101999GF108991999999999999999999MA1101391999999MW1101MW2711REMMET085METAR ETSI 110620Z 25005KT 2300 -SN BR SCT010 OVC037 M04/M05 Q1014 YLO YLO TEMPO WHT;
0193108600999992010011107004+48717+011533FM-12+0365ETSI V0202501N00301004201CN0023001N1-00431-00481101691ADDAY171999AY271999GA1031+003001071GF108991081051004501999999MA1999999097101MD1510001+9999MW1711REMSYN088AAXX  11071 10860 41423 82503 11043 21048 39710 40169 55000 77177 885// 333 83710 88640;
0205108600999992010011107204+48717+011533FM-15+0365ETSI V0202501N002610075019N0023001N1-00401-00401999999ADDGA1041+003001999GA2071+007501999GA3081+012001999GF108991999999999999999999MA1101391999999MW1101MW2711REMMET092METAR ETSI 110720Z 25005KT 2300 -SN BR SCT010 BKN025 OVC040 M04/M04 Q1014 YLO YLO TEMPO WHT;
0193108600999992010011108004+48717+011533FM-12+0365ETSI V0202401N00201004201CN0016001N1-00411-00441101681ADDAY171999AY271999GA1031+003001071GF108991071051004501999999MA1999999097101MD1510001+9999MW1711REMSYN088AAXX  11081 10860 41416 82402 11041 21044 39710 40168 55000 77177 875// 333 83710 87625;
0210108600999992010011108134+48717+011533FM-16+0365ETSI V0202501N00261007501CN0020001N1-00401-00501999999ADDGA1041+003001999GA2041+007501999GA3071+012001999GF107991999999999999999999MA1101391999999MW1101MW2711REMMET097SPECI ETSI 110813Z 25005KT 2000 -SN BR SCT010 SCT025 BKN040 M04/M05 Q1014 BLACKYLO YLO TEMPO WHT;
0210108600999992010011108204+48717+011533FM-15+0365ETSI V0202501N00261007501CN0022001N1-00401-00501999999ADDGA1021+003001999GA2041+007501999GA3071+015001999GF107991999999999999999999MA1101391999999MW1101MW2711REMMET097METAR ETSI 110820Z 25005KT 2200 -SN BR FEW010 SCT025 BKN050 M04/M05 Q1014 BLACKYLO YLO TEMPO WHT;
0205108600999992010011109204+48717+011533FM-15+0365ETSI V0202501N002610054019N0023001N1-00301-00401999999ADDGA1021+003001999GA2071+005401999GA3081+012001999GF108991999999999999999999MA1101391999999MW1101MW2711REMMET092METAR ETSI 110920Z 25005KT 2300 -SN BR FEW010 BKN018 OVC040 M03/M04 Q1014 YLO YLO TEMPO WHT;
0215108600999992010011110004+48717+011533FM-12+0365ETSI V0202601N004010075019N0023001N1-00341-00431101691ADDAY171999AY271999GA1021+003001071GA2051+007501061GF108991081051004501999999MA1999999097121MD1110021+9999MW1711REMSYN094AAXX  11101 10860 41423 82604 11034 21043 39712 40169 51002 77177 885// 333 82710 85625 88640;
0203108600999992010011110204+48717+011533FM-15+0365ETSI V0202601N004110030019N0022001N1-00301-00301999999ADDED199U13009GA1071+003001999GA2071+007501999GF107991999999999999999999MA1101391999999MW1101MW2711REMMET095METAR ETSI 111020Z 26008KT 2200 R25/1300N -SN BR BKN010 BKN025 M03/M03 Q1014 YLO YLO TEMPO WHT;
0215108600999992010011111004+48717+011533FM-12+0365ETSI V0202601N00401007501CN0029001N1-00331-00391101671ADDAY171999AY271999GA1021+003001071GA2031+007501061GF107991041051004501011999MA1999999097101MD1010001+9999MW1711REMSYN094AAXX  11111 10860 41429 72604 11033 21039 39710 40167 50000 77177 8451/ 333 82710 83625 87458;
0182108600999992010011111204+48717+011533FM-15+0365ETSI V0202601N003610060019N0028001N1-00301-00401999999ADDGA1021+003001999GA2071+006001999GF107991999999999999999999MA1101391999999MW1101MW2711REMMET085METAR ETSI 111120Z 26007KT 2800 -SN BR FEW010 BKN020 M03/M04 Q1014 YLO YLO TEMPO WHT;
0203108600999992010011112204+48717+011533FM-15+0365ETSI V0202501N003110054019N0025001N1-00301-00401999999ADDED199U19009GA1041+003001999GA2071+005401999GF107991999999999999999999MA1101291999999MW1101MW2711REMMET095METAR ETSI 111220Z 25006KT 2500 R25/1900N -SN BR SCT010 BKN018 M03/M04 Q1013 YLO YLO TEMPO WHT;
0193108600999992010011113004+48717+011533FM-12+0365ETSI V0202601N00301002101CN0017001N1-00311-00371101611ADDAY171999AY271999GA1031+002401071GF108991081051002501999999MA1999999097051MD1710071+9999MW1731REMSYN088AAXX  11131 10860 41317 82603 11031 21037 39705 40161 57007 77377 885// 333 83708 87616;
0191108600999992010011113204+48717+011533FM-15+0365ETSI V0202601N003110042019N0012001N1-00301-00401999999ADDED199U13009GA1041+001801999GA2071+004201999GF107991999999999999999999MA1101291999999MW1101MW2731REMMET083METAR ETSI 111320Z 26006KT 1200 R25/1300 SN BR SCT006 BKN014 M03/M04 Q1013 AMB AMB;
0196108600999992010011113474+48717+011533FM-16+0365ETSI V0202601N002610054019N0014001N1-00301-00301999999ADDED199U11009GA1041+001801999GA2071+005401999GF107991999999999999999999MA1101291999999MW1101MW2731REMMET088SPECI ETSI 111347Z 26005KT 1400 R25/1100 SN BR SCT006 BKN018 M03/M03 Q1013 BLACKAMB AMB;
0193108600999992010011114004+48717+011533FM-12+0365ETSI V0202701N00301001201CN0014001N1-00311-00361101641ADDAY171999AY271999GA1041+001801071GF108991081051001501999999MA1999999097071MD1510031+9999MW1731REMSYN088AAXX  11141 10860 41214 82703 11031 21036 39707 40164 55003 77377 885// 333 84706 87618;
0230108600999992010011114204+48717+011533FM-15+0365ETSI V0202601N002610042019N0012001N1-00301-00301999999ADDED199U14009GA1041+001801999GA2071+004201999GA3071+006601999GF107991999999999999999999MA1101391999999MW1101MW2731REMMET106METAR ETSI 111420Z 26005KT 1200 R25/1400N SN BR SCT006 BKN014 BKN022 M03/M03 Q1014 BLACKAMB AMB TEMPO GRN;
0235108600999992010011115004+48717+011533FM-16+0365ETSI V0202601N003110039019N0018001N1-00301-00401999999ADDED199U22009GA1041+002401999GA2071+003901999GA3071+006601999GF107991999999999999999999MA1101391999999MW1101MW2711REMMET111SPECI ETSI 111500Z 26006KT 1800 R25/2200 -SN BR SCT008 BKN013 BKN022 M03/M04 Q1014 RESN BLACKYLO AMB TEMPO GRN;
0230108600999992010011115204+48717+011533FM-15+0365ETSI V0202601N002610039019N0015001N1-00301-00401999999ADDED199U17009GA1041+002401999GA2071+003901999GA3071+006601999GF107991999999999999999999MA1101391999999MW1101MW2731REMMET106METAR ETSI 111520Z 26005KT 1500 R25/1700D SN BR SCT008 BKN013 BKN022 M03/M04 Q1014 BLACKAMB AMB TEMPO GRN;
0193108600999992010011116004+48717+011533FM-12+0365ETSI V0202501N00201001201CN0010001N1-00331-00331101701ADDAY171999AY271999GA1031+001801071GF108991081051001501999999MA1999999097131MD1210081+9999MW1731REMSYN088AAXX  11161 10860 41210 82502 11033 21033 39713 40170 52008 77377 885// 333 83706 87612;
0184108600999992010011116204+48717+011533FM-15+0365ETSI V0202401N001010036019N0010001N1-00301-00301999999ADDGA1041+001801999GA2071+003601999GF107991999999999999999999MA1101391999999MW1101MW2731REMMET087METAR ETSI 111620Z 24002KT 1000 SN BR SCT006 BKN012 M03/M03 Q1014 BLACKAMB FCST CANCEL;
0201108600999992010011116484+48717+011533FM-16+0365ETSI V0202601N001510039019N0025001N1-00301-00301999999ADDGA1041+002101999GA2071+003901999GA3071+009001999GF107991999999999999999999MA1101391999999MW1101MW2711REMMET088SPECI ETSI 111648Z 26003KT 2500 -SN BR SCT007 BKN013 BKN030 M03/M03 Q1014 RESN BLACKYLO;
0215108600999992010011117004+48717+011533FM-12+0365ETSI V0202601N002010039019N0025001N1-00351-00351101731ADDAY171999AY271999GA1031+002101071GA2051+003901061GF108991081051002501999999MA1999999097151MD1210081+9999MW1711REMSYN094AAXX  11171 10860 41325 82602 11035 21035 39715 40173 52008 77177 885// 333 83707 85613 87630;
0201108600999992010011117204+48717+011533FM-15+0365ETSI V0202301N001510042019N0025001N1-00401-00401999999ADDGA1041+002401999GA2071+004201999GA3071+010501999GF107991999999999999999999MA1101391999999MW1101MW2711REMMET088METAR ETSI 111720Z 23003KT 2500 -SN BR SCT008 BKN014 BKN035 M04/M04 Q1014 RESN BLACKYLO;
0172108600999992010011204204+48717+011533FM-15+0365ETSI V0201701N000510054019N0020001N1-00401-00401999999ADDGA1021+002401999GA2081+005401999GF108991999999999999999999MA1101591999999MW1101MW2731REMMET075METAR ETSI 120420Z 17001KT 2000 SN BR FEW008 OVC018 M04/M04 Q1016 BLACKYLO;
0207108600999992010011205004+48717+011533FM-12+0365ETSI V0201901N001010051019N0023001N1-00391-00401101961ADDAY171999GA1021+003001071GA2051+005101061GF108991081051004501999999MA1999999097371MD1210041+9999MW1711REMSYN094AAXX  12051 10860 41423 81901 11039 21040 39737 40196 52004 7717/ 885// 333 82710 85617 88628;
0215108600999992010011205204+48717+011533FM-15+0365ETSI V0202201N001010051019N0023001N1-00401-00401999999ADDGA1021+003001999GA2071+005101999GA3081+009001999GF108991999999999999999999MA1101591999999MW1101MW2711REMMET102METAR ETSI 120520Z 22002KT 2300 -SN BR FEW010 BKN017 OVC030 M04/M04 Q1016 RESN BLACKYLO YLO TEMPO AMB;
0164108600999992010011206204+48717+011533FM-15+0365ETSI V0201301N000510021019N0025001N1-00401-00401999999ADDGA1081+002101999GF108991999999999999999999MA1101591999999MW1101MW2711REMMET083METAR ETSI 120620Z 13001KT 2500 -SN BR OVC007 M04/M04 Q1016 BLACKYLO AMB TEMPO GRN;
0185108600999992010011206554+48717+011533FM-16+0365ETSI V0201301N001010027019N0014001N1-00401-00401999999ADDED199U33009GA1081+002701999GF108991999999999999999999MA1101591999999MW1101MW2711REMMET093SPECI ETSI 120655Z 13002KT 1400 R25/3300U -SN BR OVC009 M04/M04 Q1016 BLACKAMB YLO TEMPO AMB;
0187108600999992010011207004+48717+011533FM-12+0365ETSI V0201301N001010027019N0016001N1-00401-00401101971ADDAY171011AY271011GA1081+002701061GF108991081051002501999999MA1999999097371MD1210011+9999MW1711REMSYN082AAXX  12071 10860 41316 81301 11040 21040 39737 40197 52001 77177 885// 333 88609;
0187108600999992010011207204+48717+011533FM-15+0365ETSI V0201301N001010030019N0020001N1-00401-00401999999ADDGA1071+003001999GA2081+005401999GF108991999999999999999999MA1101591999999MW1101MW2711REMMET090METAR ETSI 120720Z 13002KT 2000 -SN BR BKN010 OVC018 M04/M04 Q1016 BLACKYLO YLO TEMPO AMB;
0193108600999992010011208004+48717+011533FM-12+0365ETSI V0201401N001010030019N0018001N1-00391-00411101951ADDAY171999AY271999GA1061+003001061GF108991071051004501999999MA1999999097361MD1710011+9999MW1711REMSYN088AAXX  12081 10860 41418 81401 11039 21041 39736 40195 57001 77177 875// 333 86610 87618;
0187108600999992010011208204+48717+011533FM-15+0365ETSI V0201301N001010066019N0025001N1-00401-00401999999ADDGA1041+003001999GA2071+006601999GF107991999999999999999999MA1101591999999MW1101MW2711REMMET090METAR ETSI 120820Z 13002KT 2500 -SN BR SCT010 BKN022 M04/M04 Q1016 BLACKYLO YLO TEMPO AMB;
0210108600999992010011209204+48717+011533FM-15+0365ETSI V0201401N001510066019N0028001N1-00301-00301999999ADDGA1021+003001999GA2071+006601999GA3071+013801999GF107991999999999999999999MA1101591999999MW1101MW2711REMMET097METAR ETSI 120920Z 14003KT 2800 -SN BR FEW010 BKN022 BKN046 M03/M03 Q1016 BLACKYLO YLO TEMPO AMB;
0215108600999992010011210004+48717+011533FM-12+0365ETSI V0201001N002010072019N0028001N1-00291-00351101881ADDAY171999AY271999GA1011+003001071GA2051+007201061GF107991071051004501999999MA1999999097311MD1710061+9999MW1781REMSYN094AAXX  12101 10860 41428 71002 11029 21035 39731 40188 57006 77877 875// 333 81710 85624 87645;
0205108600999992010011210054+48717+011533FM-16+0365ETSI V0200801N00151007201CN0030001N1-00301-00401999999ADDGA1021+003001999GA2041+007201999GA3071+012601999GF107991999999999999999999MA1101591999999MW1101MW2711REMMET092SPECI ETSI 121005Z 08003KT 3000 -SN BR FEW010 SCT024 BKN042 M03/M04 Q1016 YLO GRN TEMPO YLO;
0205108600999992010011210204+48717+011533FM-15+0365ETSI V0200901N00151007501CN0030001N1-00301-00401999999ADDGA1021+003001999GA2041+007501999GA3071+012601999GF107991999999999999999999MA1101491999999MW1101MW2711REMMET092METAR ETSI 121020Z 09003KT 3000 -SN BR FEW010 SCT025 BKN042 M03/M04 Q1015 YLO GRN TEMPO YLO;
0215108600999992010011211004+48717+011533FM-12+0365ETSI V0201001N002010066019N0030001N1-00251-00371101781ADDAY171999AY271999GA1011+002401071GA2041+006601061GF107991071051002501999999MA1999999097221MD1710141+9999MW1781REMSYN094AAXX  12111 10860 41330 71002 11025 21037 39722 40178 57014 77877 875// 333 81708 84622 87640;
0195108600999992010011211204+48717+011533FM-15+0365ETSI V0201001N002110060019N0038001N1-00201-00401999999ADDGA1021+002401999GA2071+006001999GA3071+012001999GF107991999999999999999999MA1101391999999MW1101REMMET088METAR ETSI 121120Z 10004KT 3800 BR FEW008 BKN020 BKN040 M02/M04 Q1014 GRN GRN TEMPO YLO;
0185108600999992010011211294+48717+011533FM-16+0365ETSI V0201201N00211006001CN0050001N1-00201-00301999999ADDGA1021+002401999GA2041+006001999GA3071+013501999GF107991999999999999999999MA1101391999999MW1101REMMET078SPECI ETSI 121129Z 12004KT 5000 BR FEW008 SCT020 BKN045 M02/M03 Q1014 WHT WHT;
0185108600999992010011212204+48717+011533FM-15+0365ETSI V0201001N00211004501CN0050001N1-00201-00401999999ADDGA1021+003001999GA2041+004501999GA3071+012001999GF107991999999999999999999MA1101391999999MW1101REMMET078METAR ETSI 121220Z 10004KT 5000 BR FEW010 SCT015 BKN040 M02/M04 Q1014 WHT WHT;
0195108600999992010011212484+48717+011533FM-16+0365ETSI V0200901N002110036019N0050001N1-00201-00401999999ADDGA1021+003001999GA2071+003601999GA3071+012001999GF107991999999999999999999MA1101291999999MW1101REMMET088SPECI ETSI 121248Z 09004KT 5000 BR FEW010 BKN012 BKN040 M02/M04 Q1013 GRN WHT TEMPO GRN;
0215108600999992010011213004+48717+011533FM-12+0365ETSI V0200901N003010036019N0050001N1-00191-00411101601ADDAY121999AY221999GA1011+003001071GA2051+003601061GF107991071051004501999999MA1999999097061MD1710251+9999MW1101REMSYN094AAXX  12131 10860 41450 70903 11019 21041 39706 40160 57025 71022 875// 333 81710 85612 87640;
0149108600999992010011213204+48717+011533FM-15+0365ETSI V0200801N003610036019N0050001N1-00201-00401999999ADDGA1071+003601999GF107991999999999999999999MA1101291999999MW1101REMMET074METAR ETSI 121320Z 08007KT 5000 BR BKN012 M02/M04 Q1013 GRN WHT TEMPO GRN;
0187108600999992010011214004+48717+011533FM-12+0365ETSI V0200901N003010036019N0050001N1-00251-00401101571ADDAY121999AY221999GA1071+003601061GF107991071051004501999999MA1999999097021MD1710201+9999MW1101REMSYN082AAXX  12141 10860 41450 70903 11025 21040 39702 40157 57020 71022 875// 333 87612;
0149108600999992010011214204+48717+011533FM-15+0365ETSI V0200801N003110036019N0050001N1-00201-00401999999ADDGA1071+003601999GF107991999999999999999999MA1101191999999MW1101REMMET074METAR ETSI 121420Z 08006KT 5000 BR BKN012 M02/M04 Q1012 GRN WHT TEMPO GRN;
0149108600999992010011215204+48717+011533FM-15+0365ETSI V0200901N003610036019N0050001N1-00201-00301999999ADDGA1071+003601999GF107991999999999999999999MA1101191999999MW1101REMMET074METAR ETSI 121520Z 09007KT 5000 BR BKN012 M02/M03 Q1012 GRN GRN TEMPO WHT;
0265108600999992010011216004+48717+011533SY-MT+0365ETSI V0201001N003010036019N0050001N1-00281-00421101531ADDAY121999AY221999GA1071+003601999GF107991071051004501999999MA1101191096971MD1710091+9999MW1101REMSYN082AAXX  12161 10860 41450 71003 11028 21042 39697 40153 57009 71022 875// 333 87612;MET072SPECI ETSI 121600Z 09006KT 5000 BR BKN012 M03/M04 Q1012 GRN FCST CANCEL;
0158108600999992010011216204+48717+011533FM-15+0365ETSI V0200901N002612200019N0050001N1-00401-00501999999ADDGA1041+003601999GA2041+060001999GF104991999999999999999999MA1101191999999MW1101REMMET067METAR ETSI 121620Z 09005KT 5000 BR SCT012 SCT200 M04/M05 Q1012 WHT;
0193108600999992010011217004+48717+011533FM-12+0365ETSI V0200601N00201220001CN0050001N1-00411-00531101481ADDAY121999AY221999GA1031+003601061GF105991031051004501001011MA1999999096901MD1710121+9999MW1101REMSYN088AAXX  12171 10860 41450 50602 11041 21053 39690 40148 57012 71022 83501 333 83612 83070;
0158108600999992010011217204+48717+011533FM-15+0365ETSI V0200601N003112200019N0040001N1-00501-00501999999ADDGA1021+003601999GA2041+060001999GF104991999999999999999999MA1101081999999MW1101REMMET067METAR ETSI 121720Z 06006KT 4000 BR FEW012 SCT200 M05/M05 Q1011 GRN;
0135108600999992010011304204+48717+011533FM-15+0365ETSI V0200601N001510018019N0045001N1-00701-00801999999ADDGA1081+001801999GF108991999999999999999999MA1100711999999MW1101REMMET060METAR ETSI 130420Z 06003KT 4500 BR OVC006 M07/M08 Q1007 YLO;
0179108600999992010011305004+48717+011533FM-12+0365ETSI V0201001N002010018019N0040001N1-00721-00721101091ADDAY121999GA1081+001801061GF108991081051001501999999MA1999999096481MD1510031+9999MW1101REMSYN082AAXX  13051 10860 41240 81002 11072 21072 39648 40109 55003 7102/ 885// 333 88606;
0139108600999992010011305204+48717+011533FM-15+0365ETSI V0200701N003110015019N0035001N1-00801-00801999999ADDGA1081+001501999GF108991999999999999999999MA1100711999999MW1101REMMET064METAR ETSI 130520Z 07006KT 3500 BR OVC005 M08/M08 Q1007 YLO YLO;
0139108600999992010011306204+48717+011533FM-15+0365ETSI V0200701N002610015019N0030001N1-00801-00801999999ADDGA1081+001501999GF108991999999999999999999MA1100711999999MW1101REMMET064METAR ETSI 130620Z 07005KT 3000 BR OVC005 M08/M08 Q1007 YLO YLO;
0235108600999992010011307004+48717+011533FM-12+0365ETSI V0200801N003010015019N0030001N1-00741-00741101071ADDAY121999AY221999GA1081+001501061GF108991081051001501999999MA1999999096461MD1810011+9999MW1101REMSYN130AAXX  13071 10860 41230 80803 11074 21074 39646 40107 58001 71022 885// 333 88605 555 BOT 1//// 2//// 3//// 4//// 5//// 999 47///;
0139108600999992010011307204+48717+011533FM-15+0365ETSI V0200701N002610015019N0025001N1-00701-00701999999ADDGA1081+001501999GF108991999999999999999999MA1100711999999MW1101REMMET064METAR ETSI 130720Z 07005KT 2500 BR OVC005 M07/M07 Q1007 YLO YLO;
0187108600999992010011308004+48717+011533FM-12+0365ETSI V0200801N002010015019N0025001N1-00711-00731101141ADDAY121999AY221999GA1081+001501061GF108991081051001501999999MA1999999096531MD1310051+9999MW1101REMSYN082AAXX  13081 10860 41225 80802 11071 21073 39653 40114 53005 71022 885// 333 88605;
0149108600999992010011308204+48717+011533FM-15+0365ETSI V0200701N001510018019N0025001N1-00701-00701999999ADDGA1081+001801999GF108991999999999999999999MA1100811999999MW1101REMMET074METAR ETSI 130820Z 07003KT 2500 BR OVC006 M07/M07 Q1008 YLO YLO BECMG GRN;
0149108600999992010011308334+48717+011533FM-16+0365ETSI V0200701N002110018019N0025001N1-00701-00701999999ADDGA1081+001801999GF108991999999999999999999MA1100811999999MW1101REMMET074SPECI ETSI 130833Z 07004KT 2500 BR OVC006 M07/M07 Q1008 YLO YLO TEMPO GRN;
0149108600999992010011309204+48717+011533FM-15+0365ETSI V0200501N002610018019N0025001N1-00701-00701999999ADDGA1081+001801999GF108991999999999999999999MA1100811999999MW1101REMMET074METAR ETSI 130920Z 05005KT 2500 BR OVC006 M07/M07 Q1008 YLO YLO TEMPO GRN;
0187108600999992010011310004+48717+011533FM-12+0365ETSI V0200601N003010018019N0025001N1-00631-00631101171ADDAY121999AY221999GA1081+001801061GF108991081051001501999999MA1999999096571MD1110111+9999MW1101REMSYN082AAXX  13101 10860 41225 80603 11063 21063 39657 40117 51011 71022 885// 333 88606;
0149108600999992010011310204+48717+011533FM-15+0365ETSI V0200601N002610021019N0030001N1-00601-00701999999ADDGA1081+002101999GF108991999999999999999999MA1100811999999MW1101REMMET074METAR ETSI 131020Z 06005KT 3000 BR OVC007 M06/M07 Q1008 YLO YLO TEMPO GRN;
0187108600999992010011311004+48717+011533FM-12+0365ETSI V0200701N003010021019N0030001N1-00581-00671101151ADDAY121999AY221999GA1081+002101061GF108991081051002501999999MA1999999096561MD1010031+9999MW1101REMSYN082AAXX  13111 10860 41330 80703 11058 21067 39656 40115 50003 71022 885// 333 88607;
0149108600999992010011311204+48717+011533FM-15+0365ETSI V0200601N002610021019N0030001N1-00501-00501999999ADDGA1081+002101999GF108991999999999999999999MA1100811999999MW1101REMMET074METAR ETSI 131120Z 06005KT 3000 BR OVC007 M05/M05 Q1008 YLO YLO TEMPO GRN;
0149108600999992010011312204+48717+011533FM-15+0365ETSI V0200401N002110021019N0037001N1-00501-00601999999ADDGA1081+002101999GF108991999999999999999999MA1100811999999MW1101REMMET074METAR ETSI 131220Z 04004KT 3700 BR OVC007 M05/M06 Q1008 GRN YLO TEMPO GRN;
0187108600999992010011313004+48717+011533FM-12+0365ETSI V0200601N002010021019N0037001N1-00521-00581101141ADDAY121999AY221999GA1081+002101061GF108991081051002501999999MA1999999096561MD1510011+9999MW1101REMSYN082AAXX  13131 10860 41337 80602 11052 21058 39656 40114 55001 71022 885// 333 88607;
0149108600999992010011313204+48717+011533FM-15+0365ETSI V0200501N003110021019N0037001N1-00501-00601999999ADDGA1081+002101999GF108991999999999999999999MA1100811999999MW1101REMMET074METAR ETSI 131320Z 05006KT 3700 BR OVC007 M05/M06 Q1008 GRN YLO TEMPO GRN;
0229108600999992010011314004+48717+011533FM-12+0365ETSI V0200601N003010021019N0037001N1-00501-00581101171ADDAY121999AY221999GA1081+002101061GF108991081051002501999999MA1999999096591MD1310031+9999MW1101REMSYN124AAXX  13141 10860 41337 80603 11050 21058 39659 40117 53003 71022 885// 333 88607 555 BOT 1//// 2//// 3//// 4//// 999 47///;
0149108600999992010011314204+48717+011533FM-15+0365ETSI V0200701N002610021019N0037001N1-00501-00501999999ADDGA1081+002101999GF108991999999999999999999MA1100811999999MW1101REMMET074METAR ETSI 131420Z 07005KT 3700 BR OVC007 M05/M05 Q1008 GRN YLO TEMPO GRN;
0139108600999992010011315204+48717+011533FM-15+0365ETSI V0200601N002610021019N0035001N1-00501-00501999999ADDGA1081+002101999GF108991999999999999999999MA1100911999999MW1101REMMET064METAR ETSI 131520Z 06005KT 3500 BR OVC007 M05/M05 Q1009 YLO YLO;
0265108600999992010011316004+48717+011533SY-MT+0365ETSI V0200801N003010021019N0030001N1-00481-00501101221ADDAY121999AY221999GA1081+002101999GF108991081051002501999999MA1100911096641MD1210081+9999MW1101REMSYN082AAXX  13161 10860 41330 80803 11048 21050 39664 40122 52008 71022 885// 333 88607;MET072SPECI ETSI 131600Z 09003KT 3000 BR OVC007 M05/M05 Q1009 YLO FCST CANCEL;
0135108600999992010011316204+48717+011533FM-15+0365ETSI V0200801N002110021019N0030001N1-00501-00501999999ADDGA1081+002101999GF108991999999999999999999MA1100911999999MW1101REMMET060METAR ETSI 131620Z 08004KT 3000 BR OVC007 M05/M05 Q1009 YLO;
0187108600999992010011317004+48717+011533FM-12+0365ETSI V0201001N001010021019N0035001N1-00471-00491101271ADDAY121999AY221999GA1081+002101061GF108991081051002501999999MA1999999096691MD1210101+9999MW1101REMSYN082AAXX  13171 10860 41335 81001 11047 21049 39669 40127 52010 71022 885// 333 88607;
0135108600999992010011317204+48717+011533FM-15+0365ETSI V0201401N001510018019N0035001N1-00401-00401999999ADDGA1081+001801999GF108991999999999999999999MA1100911999999MW1101REMMET060METAR ETSI 131720Z 14003KT 3500 BR OVC006 M04/M04 Q1009 YLO;
0135108600999992010011318204+48717+011533FM-15+0365ETSI V0201301N002110018019N0045001N1-00501-00501999999ADDGA1081+001801999GF108991999999999999999999MA1101021999999MW1101REMMET060METAR ETSI 131820Z 13004KT 4500 BR OVC006 M05/M05 Q1010 YLO;
0158108600999992010011404204+48717+011533FM-15+0365ETSI V0200701N002610030019N0035001N1-00301-00401999999ADDGA1071+003001999GA2081+004501999GF108991999999999999999999MA1100811999999MW1101REMMET067METAR ETSI 140420Z 07005KT 3500 BR BKN010 OVC015 M03/M04 Q1008 YLO;
0185108600999992010011405004+48717+011533FM-12+0365ETSI V0200701N002010027019N0035001N1-00341-00391101141ADDAY121999GA1051+002701071GF108991081051002501999999MA1999999096591MD1710071+9999MW1101REMSYN088AAXX  14051 10860 41335 80702 11034 21039 39659 40114 57007 7102/ 885// 333 85709 88615;
0162108600999992010011405204+48717+011533FM-15+0365ETSI V0200701N002110027019N0035001N1-00301-00301999999ADDGA1071+002701999GA2081+004501999GF108991999999999999999999MA1100811999999MW1101REMMET071METAR ETSI 140520Z 07004KT 3500 BR BKN009 OVC015 M03/M03 Q1008 YLO YLO;
0139108600999992010011406204+48717+011533FM-15+0365ETSI V0200501N001510027019N0030001N1-00301-00301999999ADDGA1081+002701999GF108991999999999999999999MA1100911999999MW1101REMMET064METAR ETSI 140620Z 05003KT 3000 BR OVC009 M03/M03 Q1009 YLO YLO;
0187108600999992010011407004+48717+011533FM-12+0365ETSI V0200601N002010027019N0030001N1-00291-00351101161ADDAY121999AY221999GA1081+002701071GF108991081061002501999999MA1999999096621MD1310021+9999MW1101REMSYN082AAXX  14071 10860 41330 80602 11029 21035 39662 40116 53002 71022 886// 333 88709;
0139108600999992010011407204+48717+011533FM-15+0365ETSI V0200601N002610027019N0025001N1-00301-00301999999ADDGA1081+002701999GF108991999999999999999999MA1100911999999MW1101REMMET064METAR ETSI 140720Z 06005KT 2500 BR OVC009 M03/M03 Q1009 YLO YLO;
0187108600999992010011408004+48717+011533FM-12+0365ETSI V0200701N003010027019N0025001N1-00281-00321101171ADDAY121999AY221999GA1081+002701071GF108991081061002501999999MA1999999096631MD1210041+9999MW1101REMSYN082AAXX  14081 10860 41325 80703 11028 21032 39663 40117 52004 71022 886// 333 88709;
0139108600999992010011408204+48717+011533FM-15+0365ETSI V0200701N003110024019N0028001N1-00301-00301999999ADDGA1081+002401999GF108991999999999999999999MA1100911999999MW1101REMMET064METAR ETSI 140820Z 07006KT 2800 BR OVC008 M03/M03 Q1009 YLO YLO;
0162108600999992010011409204+48717+011533FM-15+0365ETSI V0200801N003610024019N0028001N1-00201-00201999999ADDGA1021+001801999GA2081+002401999GF108991999999999999999999MA1100911999999MW1101REMMET071METAR ETSI 140920Z 08007KT 2800 BR FEW006 OVC008 M02/M02 Q1009 YLO YLO;
0193108600999992010011410004+48717+011533FM-12+0365ETSI V0200701N00401001201CN0028001N1-00211-00261101161ADDAY121999AY221999GA1011+001801071GF108991081061001501999999MA1999999096631MD1210011+9999MW1101REMSYN088AAXX  14101 10860 41228 80704 11021 21026 39663 40116 52001 71022 886// 333 81706 88708;
0162108600999992010011410204+48717+011533FM-15+0365ETSI V0200601N003110024019N0035001N1-00201-00201999999ADDGA1021+001801999GA2081+002401999GF108991999999999999999999MA1100911999999MW1101REMMET071METAR ETSI 141020Z 06006KT 3500 BR FEW006 OVC008 M02/M02 Q1009 YLO YLO;
0162108600999992010011410304+48717+011533FM-16+0365ETSI V0200601N003110024019N0040001N1-00201-00201999999ADDGA1021+001801999GA2081+002401999GF108991999999999999999999MA1100911999999MW1101REMMET071SPECI ETSI 141030Z 06006KT 4000 BR FEW006 OVC008 M02/M02 Q1009 GRN GRN;
0193108600999992010011411004+48717+011533FM-12+0365ETSI V0200701N00301001201CN0040001N1-00151-00231101121ADDAY121999AY221999GA1011+001801071GF108991081061001501999999MA1999999096601MD1710031+9999MW1101REMSYN088AAXX  14111 10860 41240 80703 11015 21023 39660 40112 57003 71022 886// 333 81706 88708;
0185108600999992010011411204+48717+011533FM-15+0365ETSI V0200601N003110024019N0045001N1-00101-00201999999ADDGA1071+002401999GA2071+004201999GA3071+006001999GF107991999999999999999999MA1100811999999MW1101REMMET078METAR ETSI 141120Z 06006KT 4500 BR BKN008 BKN014 BKN020 M01/M02 Q1008 GRN GRN;
0195108600999992010011411374+48717+011533FM-16+0365ETSI V0200601N003110042019N0050001N1-00101-00201999999ADDGA1041+002401999GA2071+004201999GA3071+006001999GF107991999999999999999999MA1100811999999MW1101REMMET088SPECI ETSI 141137Z 06006KT 5000 BR SCT008 BKN014 BKN020 M01/M02 Q1008 GRN GRN TEMPO WHT;
0195108600999992010011412014+48717+011533FM-16+0365ETSI V0200501N00311004201CN0050001N1-00101-00201999999ADDGA1021+002701999GA2041+004201999GA3081+006001999GF108991999999999999999999MA1100811999999MW1101REMMET088SPECI ETSI 141201Z 05006KT 5000 BR FEW009 SCT014 OVC020 M01/M02 Q1008 WHT GRN TEMPO WHT;
0172108600999992010011412204+48717+011533FM-15+0365ETSI V0200601N003110063019N0050001N1-00101-00201999999ADDGA1041+002401999GA2081+006301999GF108991999999999999999999MA1100811999999MW1101REMMET081METAR ETSI 141220Z 06006KT 5000 BR SCT008 OVC021 M01/M02 Q1008 WHT GRN TEMPO WHT;
0172108600999992010011412304+48717+011533FM-16+0365ETSI V0200501N003110024019N0050001N1-00101-00201999999ADDGA1071+002401999GA2081+006301999GF108991999999999999999999MA1100811999999MW1101REMMET081SPECI ETSI 141230Z 05006KT 5000 BR BKN008 OVC021 M01/M02 Q1008 GRN GRN TEMPO WHT;
0193108600999992010011413004+48717+011533FM-12+0365ETSI V0200601N003010024019N0050001N1-00101-00201101031ADDAY121999AY221999GA1051+002401071GF107991071051002501999999MA1999999096531MD1710101+9999MW1101REMSYN088AAXX  14131 10860 41350 70603 11010 21020 39653 40103 57010 71022 875// 333 85708 87620;
0172108600999992010011413204+48717+011533FM-15+0365ETSI V0200701N003610024019N0050001N1-00101-00201999999ADDGA1071+002401999GA2071+006301999GF107991999999999999999999MA1100811999999MW1101REMMET081METAR ETSI 141320Z 07007KT 5000 BR BKN008 BKN021 M01/M02 Q1008 GRN GRN TEMPO WHT;
0193108600999992010011414004+48717+011533FM-12+0365ETSI V0200701N004010024019N0050001N1-00081-00191101021ADDAY121999AY221999GA1051+002401071GF107991071051002501999999MA1999999096521MD1710081+9999MW1101REMSYN088AAXX  14141 10860 41350 70704 11008 21019 39652 40102 57008 71022 875// 333 85708 87620;
0140108600999992010011414204+48717+011533FM-15+0365ETSI V0200601N004110024019N0060001N1-00101-00201999999ADDGA1071+002401999GF107991999999999999999999MA1100811999999REMMET071METAR ETSI 141420Z 06008KT 6000 BKN008 M01/M02 Q1008 GRN GRN TEMPO WHT;
0140108600999992010011415204+48717+011533FM-15+0365ETSI V0200701N004110027019N0060001N1-00101-00201999999ADDGA1081+002701999GF108991999999999999999999MA1100811999999REMMET071METAR ETSI 141520Z 07008KT 6000 OVC009 M01/M02 Q1008 GRN GRN TEMPO WHT;
0187108600999992010011416004+48717+011533FM-12+0365ETSI V0200801N004010027019N0060001N1-00141-00241101061ADDAY121999AY221999GA1081+002701071GF108991081061002501999999MA1999999096551MD1110021+9999MW1101REMSYN082AAXX  14161 10860 41356 80804 11014 21024 39655 40106 51002 71022 886// 333 88709;
0140108600999992010011416204+48717+011533FM-15+0365ETSI V0200801N003610033019N0060001N1-00201-00301999999ADDGA1071+003301999GF107991999999999999999999MA1100811999999REMMET071METAR ETSI 141620Z 08007KT 6000 BKN011 M02/M03 Q1008 GRN GRN TEMPO WHT;
0187108600999992010011417004+48717+011533FM-12+0365ETSI V0200701N005010036019N0050001N1-00201-00291101131ADDAY121999AY221999GA1071+003601061GF107991071051004501999999MA1999999096611MD1210091+9999MW1101REMSYN082AAXX  14171 10860 41450 70705 11020 21029 39661 40113 52009 71022 875// 333 87612;
0147108600999992010011417024+48717+011533FM-16+0365ETSI V0200701N004610036019N0050001N1-00201-00301999999ADDGA1071+003601999GF107991999999999999999999MA1100911999999MW1101REMMET072SPECI ETSI 141702Z 07009KT 5000 BR BKN012 M02/M03 Q1009 GRN FCST CANCEL;
0135108600999992010011417204+48717+011533FM-15+0365ETSI V0200801N004110030019N0050001N1-00201-00301999999ADDGA1071+003001999GF107991999999999999999999MA1100911999999MW1101REMMET060METAR ETSI 141720Z 08008KT 5000 BR BKN010 M02/M03 Q1009 GRN;
0135108600999992010011419074+48717+011533FM-16+0365ETSI V0200701N003110030019N0050001N1-00401-00401999999ADDGA1071+003001999GF107991999999999999999999MA1101021999999MW1101REMMET060SPECI ETSI 141907Z 07006KT 5000 BR BKN010 M04/M04 Q1010 GRN;
0135108600999992010011419204+48717+011533FM-15+0365ETSI V0200701N002610027019N0050001N1-00301-00401999999ADDGA1081+002701999GF108991999999999999999999MA1101081999999MW1101REMMET060METAR ETSI 141920Z 07005KT 5000 BR OVC009 M03/M04 Q1011 GRN;
0135108600999992010011420204+48717+011533FM-15+0365ETSI V0200601N003610030019N0050001N1-00301-00401999999ADDGA1081+003001999GF108991999999999999999999MA1101081999999MW1101REMMET060METAR ETSI 142020Z 06007KT 5000 BR OVC010 M03/M04 Q1011 GRN;
0135108600999992010011421204+48717+011533FM-15+0365ETSI V0200701N002610030019N0050001N1-00301-00401999999ADDGA1081+003001999GF108991999999999999999999MA1101191999999MW1101REMMET060METAR ETSI 142120Z 07005KT 5000 BR OVC010 M03/M04 Q1012 GRN;
0126108600999992010011504204+48717+011533FM-15+0365ETSI V0200801N001510036019N0080001N1-00301-00401999999ADDGA1081+003601999GF108991999999999999999999MA1101591999999REMMET057METAR ETSI 150420Z 08003KT 8000 OVC012 M03/M04 Q1016 GRN;
0159108600999992010011505004+48717+011533FM-12+0365ETSI V0200901N002010036019N0080001N1-00251-00361101981ADDGA1081+003601061GF108991081051004501999999MA1999999097411MD1210241+9999REMSYN076AAXX  15051 10860 43458 80902 11025 21036 39741 40198 52024 885// 333 88612;
0126108600999992010011505204+48717+011533FM-15+0365ETSI V0200901N001510036019N0080001N1-00301-00401999999ADDGA1081+003601999GF108991999999999999999999MA1101691999999REMMET057METAR ETSI 150520Z 09003KT 8000 OVC012 M03/M04 Q1017 GRN;
0130108600999992010011506204+48717+011533FM-15+0365ETSI V0201001N001510036019N0080001N1-00201-00401999999ADDGA1081+003601999GF108991999999999999999999MA1101801999999REMMET061METAR ETSI 150620Z 10003KT 8000 OVC012 M02/M04 Q1018 GRN GRN;
0159108600999992010011507004+48717+011533FM-12+0365ETSI V0201101N001010036019N0080001N1-00221-00351102171ADDGA1081+003601061GF108991081051004501999999MA1999999097601MD1210281+9999REMSYN076AAXX  15071 10860 42458 81101 11022 21035 39760 40217 52028 885// 333 88612;
0130108600999992010011507204+48717+011533FM-15+0365ETSI V0200901N001010036019N0080001N1-00201-00301999999ADDGA1081+003601999GF108991999999999999999999MA1101901999999REMMET061METAR ETSI 150720Z 09002KT 8000 OVC012 M02/M03 Q1019 GRN GRN;
0159108600999992010011508004+48717+011533FM-12+0365ETSI V0200901N001010036019N0090001N1-00221-00301102211ADDGA1081+003601061GF108991081051004501999999MA1999999097631MD1210191+9999REMSYN076AAXX  15081 10860 42459 80901 11022 21030 39763 40221 52019 885// 333 88612;
0130108600999992010011508204+48717+011533FM-15+0365ETSI V0209999V001010036019N0090001N1-00201-00401999999ADDGA1081+003601999GF108991999999999999999999MA1102001999999REMMET061METAR ETSI 150820Z VRB02KT 9000 OVC012 M02/M04 Q1020 GRN GRN;
0130108600999992010011509204+48717+011533FM-15+0365ETSI V0201301N000510036019N0090001N1-00201-00401999999ADDGA1081+003601999GF108991999999999999999999MA1102101999999REMMET061METAR ETSI 150920Z 13001KT 9000 OVC012 M02/M04 Q1021 GRN GRN;
0159108600999992010011510004+48717+011533FM-12+0365ETSI V0201701N002010036019N0090001N1-00171-00371102391ADDGA1081+003601061GF108991081051004501999999MA1999999097811MD1210211+9999REMSYN076AAXX  15101 10860 42459 81702 11017 21037 39781 40239 52021 885// 333 88612;
0130108600999992010011510204+48717+011533FM-15+0365ETSI V0201701N001510036019N0090001N1-00201-00301999999ADDGA1081+003601999GF108991999999999999999999MA1102101999999REMMET061METAR ETSI 151020Z 17003KT 9000 OVC012 M02/M03 Q1021 GRN GRN;
0159108600999992010011511004+48717+011533FM-12+0365ETSI V0201801N002010036019N0090001N1-00161-00371102441ADDGA1081+003601061GF108991081051004501999999MA1999999097861MD1210231+9999REMSYN076AAXX  15111 10860 42459 81802 11016 21037 39786 40244 52023 885// 333 88612;
0138108600999992010011512204+48717+011533FM-15+0365ETSI V0209999V001010030019N0090001N1-00201-00301999999ADDGA1081+003001999GF108991999999999999999999MA1102201999999REMMET069METAR ETSI 151220Z VRB02KT 9000 OVC010 M02/M03 Q1022 GRN FCST CANCEL;
0159108600999992010011513004+48717+011533FM-12+0365ETSI V0209999V001010030019N0090001N1-00161-00361102481ADDGA1081+003001061GF108991081051004501999999MA1999999097901MD1210091+9999REMSYN076AAXX  15131 10860 42459 89901 11016 21036 39790 40248 52009 885// 333 88610;
0126108600999992010011513204+48717+011533FM-15+0365ETSI V0200401N001010030019N0080001N1-00201-00301999999ADDGA1081+003001999GF108991999999999999999999MA1102201999999REMMET057METAR ETSI 151320Z 04002KT 8000 OVC010 M02/M03 Q1022 GRN;
0201108600999992010011514004+48717+011533FM-12+0365ETSI V0201901N001010030019N0080001N1-00161-00281102561ADDGA1081+003001061GF108991081051004501999999MA1999999097981MD1210121+9999REMSYN118AAXX  15141 10860 42458 81901 11016 21028 39798 40256 52012 885// 333 88610 555 BOT 1//// 2//// 3//// 4//// 999 47///;
0126108600999992010011514204+48717+011533FM-15+0365ETSI V0201701N001010030019N0080001N1-00101-00301999999ADDGA1081+003001999GF108991999999999999999999MA1102301999999REMMET057METAR ETSI 151420Z 17002KT 8000 OVC010 M01/M03 Q1023 GRN;
0126108600999992010011515204+48717+011533FM-15+0365ETSI V0202101N001010030019N0080001N1-00201-00301999999ADDGA1081+003001999GF108991999999999999999999MA1102401999999REMMET057METAR ETSI 151520Z 21002KT 8000 OVC010 M02/M03 Q1024 GRN;
0159108600999992010011516004+48717+011533FM-12+0365ETSI V0201601N001010030019N0080001N1-00171-00281102711ADDGA1081+003001061GF108991081051004501999999MA1999999098121MD1210221+9999REMSYN076AAXX  15161 10860 42458 81601 11017 21028 39812 40271 52022 885// 333 88610;
0126108600999992010011516204+48717+011533FM-15+0365ETSI V0202201N001510030019N0070001N1-00201-00301999999ADDGA1081+003001999GF108991999999999999999999MA1102401999999REMMET057METAR ETSI 151620Z 22003KT 7000 OVC010 M02/M03 Q1024 GRN;
0187108600999992010011517004+48717+011533FM-12+0365ETSI V0202101N002010030019N0070001N1-00201-00281102771ADDAY121999AY221999GA1081+003001061GF108991081051004501999999MA1999999098171MD1210191+9999MW1101REMSYN082AAXX  15171 10860 41457 82102 11020 21028 39817 40277 52019 71022 885// 333 88610;
0126108600999992010011517204+48717+011533FM-15+0365ETSI V0202301N001510027019N0070001N1-00201-00301999999ADDGA1081+002701999GF108991999999999999999999MA1102511999999REMMET057METAR ETSI 151720Z 23003KT 7000 OVC009 M02/M03 Q1025 GRN;
0126108600999992010011520204+48717+011533FM-15+0365ETSI V0201501N001010033019N0090001N1-00201-00301999999ADDGA1081+003301999GF108991999999999999999999MA1102611999999REMMET057METAR ETSI 152020Z 15002KT 9000 OVC011 M02/M03 Q1026 GRN;
0126108600999992010011521204+48717+011533FM-15+0365ETSI V0209999V000510033019N0090001N1-00201-00301999999ADDGA1081+003301999GF108991999999999999999999MA1102611999999REMMET057METAR ETSI 152120Z VRB01KT 9000 OVC011 M02/M03 Q1026 GRN;
0126108600999992010011522204+48717+011533FM-15+0365ETSI V0200801N001010030019N0090001N1-00201-00301999999ADDGA1081+003001999GF108991999999999999999999MA1102611999999REMMET057METAR ETSI 152220Z 08002KT 9000 OVC010 M02/M03 Q1026 GRN;
0135108600999992010011608354+48717+011533FM-16+0365ETSI V0201301N002610018019N0045001N1-00201-00301999999ADDGA1081+001801999GF108991999999999999999999MA1102401999999MW1101REMMET060SPECI ETSI 160835Z 13005KT 4500 BR OVC006 M02/M03 Q1024 YLO;
0135108600999992010011609004+48717+011533FM-15+0365ETSI V0201201N002110021019N0048001N1-00201-00301999999ADDGA1081+002101999GF108991999999999999999999MA1102301999999MW1101REMMET060SPECI ETSI 160855Z 12004KT 4800 BR OVC007 M02/M03 Q1023 GRN;
0135108600999992010011609204+48717+011533FM-15+0365ETSI V0201201N002610021019N0050001N1-00201-00301999999ADDGA1081+002101999GF108991999999999999999999MA1102301999999MW1101REMMET060METAR ETSI 160920Z 12005KT 5000 BR OVC007 M02/M03 Q1023 GRN;
0126108600999992010011610204+48717+011533FM-15+0365ETSI V0201201N002610024019N0060001N1-00201-00301999999ADDGA1081+002401999GF108991999999999999999999MA1102201999999REMMET057METAR ETSI 161020Z 12005KT 6000 OVC008 M02/M03 Q1022 GRN;
0126108600999992010011614204+48717+011533FM-15+0365ETSI V0201301N002610027019N0070001N1-00201-00301999999ADDGA1081+002701999GF108991999999999999999999MA1101901999999REMMET057METAR ETSI 161420Z 13005KT 7000 OVC009 M02/M03 Q1019 GRN;
0135108600999992010011621204+48717+011533FM-15+0365ETSI V0201701N001510021019N0050001N1-00301-00301999999ADDGA1081+002101999GF108991999999999999999999MA1101491999999MW1101REMMET060METAR ETSI 162120Z 17003KT 5000 BR OVC007 M03/M03 Q1015 GRN;
0135108600999992010011622204+48717+011533FM-15+0365ETSI V0201701N001010021019N0050001N1-00301-00301999999ADDGA1081+002101999GF108991999999999999999999MA1101491999999MW1101REMMET060METAR ETSI 162220Z 17002KT 5000 BR OVC007 M03/M03 Q1015 GRN;
0135108600999992010011622354+48717+011533FM-16+0365ETSI V0209999V001010018019N0045001N1-00301-00301999999ADDGA1081+001801999GF108991999999999999999999MA1101491999999MW1101REMMET060SPECI ETSI 162235Z VRB02KT 4500 BR OVC006 M03/M03 Q1015 YLO;
0135108600999992010011623204+48717+011533FM-15+0365ETSI V0209999C000010021019N0045001N1-00301-00301999999ADDGA1081+002101999GF108991999999999999999999MA1101591999999MW1101REMMET060METAR ETSI 162320Z 00000KT 4500 BR OVC007 M03/M03 Q1016 GRN;
0157108600999992010011706204+48717+011533FM-15+0365ETSI V0201201N001010060019N0070001N1+00101+00101999999ADDGA1071+006001999GA2071+009901999GF107991999999999999999999MA1101291999999MW1611REMMET066METAR ETSI 170620Z 12002KT 7000 -RA BKN020 BKN033 01/01 Q1013 WHT;
0157108600999992010011711204+48717+011533FM-15+0365ETSI V0201501N000510090019N0112651N1+00301+00301999999ADDGA1041+005401999GA2071+009001999GF107991999999999999999999MA1101391999999MW1611REMMET066METAR ETSI 171120Z 15001KT 9999 -RA SCT018 BKN030 03/03 Q1014 BLU;
0147108600999992010011804204+48717+011533FM-15+0365ETSI V0202401N002610045019N0112651N1+00201+00201999999ADDGA1071+004501999GA2071+007501999GF107991999999999999999999MA1102401999999REMMET062METAR ETSI 180420Z 24005KT 9999 BKN015 BKN025 02/02 Q1024 WHT;
0187108600999992010011805004+48717+011533FM-12+0365ETSI V0202401N003010135019N0150001N1+00181+00111102611ADDGA1031+005401081GA2031+013501061GF107991051081004501031001MA1999999098081MD1010021+9999REMSYN088AAXX  18051 10860 43465 72403 10018 20011 39808 40261 50002 85830 333 83818 83645 85358;
0184108600999992010011805204+48717+011533FM-15+0365ETSI V0202401N002610150019N0112651N1+00201+00101999999ADDGA1041+005401999GA2071+015001999GA3071+024001999GF107991999999999999999999MA1102401999999REMMET083METAR ETSI 180520Z 24005KT 9999 SCT018 BKN050 BKN080 02/01 Q1024 BLU BLU TEMPO WHT;
0161108600999992010011806204+48717+011533FM-15+0365ETSI V0202601N003610150019N0112651N1+00201+00101999999ADDGA1021+005401999GA2071+015001999GF107991999999999999999999MA1102401999999REMMET076METAR ETSI 180620Z 26007KT 9999 FEW018 BKN050 02/01 Q1024 BLU BLU TEMPO WHT;
0165108600999992010011807004+48717+011533FM-12+0365ETSI V0202701N00301004201CN0150001N1+00241+00161102671ADDGA1011+005401061GF107991071051004501999999MA1999999098151MD1210061+9999REMSYN082AAXX  18071 10860 42465 72703 10024 20016 39815 40267 52006 875// 333 81618 87650;
0161108600999992010011807204+48717+011533FM-15+0365ETSI V0202601N004610150019N0112651N1+00201+00101999999ADDGA1021+009001999GA2071+015001999GF107991999999999999999999MA1102511999999REMMET076METAR ETSI 180720Z 26009KT 9999 FEW030 BKN050 02/01 Q1025 BLU BLU TEMPO WHT;
0193108600999992010011808004+48717+011533FM-12+0365ETSI V0202601N00401007501CN0150001N1+00231+00141102701ADDAY121999AY221999GA1011+009001061GF107991071051008001999999MA1999999098181MD1210101+9999MW1251REMSYN088AAXX  18081 10860 41565 72604 10023 20014 39818 40270 52010 72522 875// 333 81630 87650;
0184108600999992010011808204+48717+011533FM-15+0365ETSI V0202601N004610150019N0112651N1+00201+00201999999ADDGA1021+009001999GA2071+015001999GA3071+039001999GF107991999999999999999999MA1102511999999REMMET083METAR ETSI 180820Z 26009KT 9999 FEW030 BKN050 BKN130 02/02 Q1025 BLU BLU TEMPO WHT;
0161108600999992010011809204+48717+011533FM-15+0365ETSI V0202601N004110150019N0112651N1+00201+00201999999ADDGA1021+012001999GA2071+015001999GF107991999999999999999999MA1102511999999REMMET076METAR ETSI 180920Z 26008KT 9999 FEW040 BKN050 02/02 Q1025 BLU BLU TEMPO WHT;
0165108600999992010011810004+48717+011533FM-12+0365ETSI V0202601N00401004201CN0150001N1+00251+00131102771ADDGA1031+004501061GF107991071051004501999999MA1999999098251MD1210101+9999REMSYN082AAXX  18101 10860 42465 72604 10025 20013 39825 40277 52010 875// 333 83615 87650;
0161108600999992010011810204+48717+011533FM-15+0365ETSI V0202601N004110045019N0112651N1+00301+00101999999ADDGA1071+004501999GA2071+015001999GF107991999999999999999999MA1102511999999REMMET076METAR ETSI 181020Z 26008KT 9999 BKN015 BKN050 03/01 Q1025 WHT BLU TEMPO WHT;
0165108600999992010011811004+48717+011533FM-12+0365ETSI V0202701N005010045019N0200001N1+00271+00101102741ADDGA1061+004501061GF108991081051004501999999MA1999999098221MD1010041+9999REMSYN082AAXX  18111 10860 42470 82705 10027 20010 39822 40274 50004 885// 333 86615 88650;
0161108600999992010011811204+48717+011533FM-15+0365ETSI V0202601N003610036019N0112651N1+00301+00101999999ADDGA1071+003601999GA2071+015001999GF107991999999999999999999MA1102511999999REMMET076METAR ETSI 181120Z 26007KT 9999 BKN012 BKN050 03/01 Q1025 GRN WHT TEMPO GRN;
0161108600999992010011812204+48717+011533FM-15+0365ETSI V0202701N003610036019N0112651N1+00301+00201999999ADDGA1071+003601999GA2081+015001999GF108991999999999999999999MA1102511999999REMMET076METAR ETSI 181220Z 27007KT 9999 BKN012 OVC050 03/02 Q1025 GRN WHT TEMPO GRN;
0193108600999992010011813004+48717+011533FM-12+0365ETSI V0202601N004010036019N0090001N1+00281+00141102691ADDAY121999AY221999GA1061+003601061GF108991071051004501999999MA1999999098181MD1710071+9999MW1151REMSYN088AAXX  18131 10860 41459 82604 10028 20014 39818 40269 57007 71522 875// 333 86612 87645;
0202108600999992010011813204+48717+011533FM-15+0365ETSI V0202701N003110036019N0112651N1+00301+00301999999ADDGA1071+003601999GA2041+006001999GA3071+012001999GF107991999999999999999999MA1102511999999MW1511MW2611REMMET089METAR ETSI 181320Z 27006KT 9999 -DZRA BKN012 SCT020 BKN040 03/03 Q1025 GRN WHT TEMPO GRN;
0187108600999992010011814004+48717+011533FM-12+0365ETSI V0202801N002010030019N0100001N1+00261+00201102721ADDAY121999AY221999GA1071+003001061GF108991071051004501999999MA1999999098201MD1510021+9999MW1601REMSYN082AAXX  18141 10860 41460 82802 10026 20020 39820 40272 55002 76022 875// 333 87610;
0148108600999992010011814204+48717+011533FM-15+0365ETSI V0202401N001510027019N0112651N1+00201+00201999999ADDGA1071+002701999GF107991999999999999999999MA1102511999999MW1611REMMET073METAR ETSI 181420Z 24003KT 9999 -RA BKN009 02/02 Q1025 GRN WHT TEMPO GRN;
0138108600999992010011815204+48717+011533FM-15+0365ETSI V0202001N001010030019N0112651N1+00201+00201999999ADDGA1071+003001999GF107991999999999999999999MA1102511999999REMMET069METAR ETSI 181520Z 20002KT 9999 BKN010 02/02 Q1025 GRN WHT TEMPO GRN;
0159108600999992010011816004+48717+011533FM-12+0365ETSI V0202501N001010030019N0100001N1+00201+00151102771ADDGA1081+003001061GF108991081051004501999999MA1999999098241MD1210061+9999REMSYN076AAXX  18161 10860 42460 82501 10020 20015 39824 40277 52006 885// 333 88610;
0136108600999992010011816014+48717+011533FM-16+0365ETSI V0202601N001010030019N0112651N1+00201+00201999999ADDGA1081+003001999GF108991999999999999999999MA1102611999999REMMET067SPECI ETSI 181601Z 26002KT 9999 OVC010 02/02 Q1026 GRN FCST CANCEL;
0124108600999992010011816204+48717+011533FM-15+0365ETSI V0209999V000510030019N0112651N1+00201+00101999999ADDGA1081+003001999GF108991999999999999999999MA1102611999999REMMET055METAR ETSI 181620Z VRB01KT 9999 OVC010 02/01 Q1026 GRN;
0159108600999992010011817004+48717+011533FM-12+0365ETSI V0202201N002010030019N0100001N1+00171+00161102831ADDGA1081+003001061GF108991081051004501999999MA1999999098291MD1310091+9999REMSYN076AAXX  18171 10860 42460 82202 10017 20016 39829 40283 53009 885// 333 88610;
0147108600999992010011817204+48717+011533FM-15+0365ETSI V0202201N001510045019N0112651N1+00101+00101999999ADDGA1071+004501999GA2081+015001999GF108991999999999999999999MA1102611999999REMMET062METAR ETSI 181720Z 22003KT 9999 BKN015 OVC050 01/01 Q1026 WHT;
0147108600999992010011818204+48717+011533FM-15+0365ETSI V0202101N001510045019N0112651N1+00101+00101999999ADDGA1071+004501999GA2081+015001999GF108991999999999999999999MA1102611999999REMMET062METAR ETSI 181820Z 21003KT 9999 BKN015 OVC050 01/01 Q1026 WHT;
0147108600999992010011819204+48717+011533FM-15+0365ETSI V0202201N001010150019N0112651N1+00101+00101999999ADDGA1021+004501999GA2081+015001999GF108991999999999999999999MA1102611999999REMMET062METAR ETSI 181920Z 22002KT 9999 FEW015 OVC050 01/01 Q1026 BLU;
0157108600999992010011904204+48717+011533FM-15+0365ETSI V0203101N000510001519N0004001N1-00101-00101999999ADDED199U17009GA1091+000151999GF109991999999000251999999MA1102401999999MW1491REMMET071METAR ETSI 190420Z 31001KT 0400 R25/1700U FZFG VV000 M01/M01 Q1024 RED;
0173108600999992010011905004+48717+011533FM-12+0365ETSI V0203201N001010001519N0004001N1-00121-00121102611ADDAY141999GA1091+000151999GF109991091999999999999999MA1999999098031MD1710131+9999MW1471REMSYN076AAXX  19051 10860 41/04 93201 11012 21012 39803 40261 57013 7474/ 333 89/00;
0161108600999992010011905204+48717+011533FM-15+0365ETSI V0209999C000010001519N0004001N1-00101-00101999999ADDED199U03509GA1091+000151999GF109991999999000251999999MA1102301999999MW1491REMMET075METAR ETSI 190520Z 00000KT 0400 R25/0350N FZFG VV000 M01/M01 Q1023 RED RED;
0161108600999992010011906204+48717+011533FM-15+0365ETSI V0202201N000510001519N0002001N1-00101-00101999999ADDED199U04009GA1091+000151999GF109991999999000251999999MA1102301999999MW1491REMMET075METAR ETSI 190620Z 22001KT 0200 R25/0400N FZFG VV000 M01/M01 Q1023 RED RED;
0166108600999992010011906514+48717+011533FM-16+0365ETSI V0201601N000510001519N0002001N1-00101-00101999999ADDED199U04009GA1091+000151999GF109991999999000251999999MA1102301999999MW1491REMMET080SPECI ETSI 190651Z 16001KT 0200 R25/0400N FZFG VV000 M01/M01 Q1023 BLACKRED RED;
0181108600999992010011907004+48717+011533FM-12+0365ETSI V0201701N001010001519N0002001N1-00091-00091102581ADDAY141999AY241999GA1091+000151999GF109991091999999999999999MA1999999098011MD1610081+9999MW1451REMSYN076AAXX  19071 10860 41/02 91701 11009 21009 39801 40258 56008 74544 333 89/00;
0166108600999992010011907204+48717+011533FM-15+0365ETSI V0201901N001010001519N0002001N1-00101-00101999999ADDED199U03009GA1091+000151999GF109991999999000251999999MA1102301999999MW1491REMMET080METAR ETSI 190720Z 19002KT 0200 R25/0300N FZFG VV000 M01/M01 Q1023 BLACKRED RED;
0181108600999992010011908004+48717+011533FM-12+0365ETSI V0201801N002010001519N0002001N1-00091-00091102561ADDAY141999AY241999GA1091+000151999GF109991091999999999999999MA1999999097991MD1710041+9999MW1451REMSYN076AAXX  19081 10860 41/02 91802 11009 21009 39799 40256 57004 74544 333 89/00;
0166108600999992010011908204+48717+011533FM-15+0365ETSI V0209999V001010001519N0003001N1-00101-00101999999ADDED199U04009GA1091+000151999GF109991999999000251999999MA1102301999999MW1491REMMET080METAR ETSI 190820Z VRB02KT 0300 R25/0400N FZFG VV000 M01/M01 Q1023 BLACKRED RED;
0161108600999992010011909204+48717+011533FM-15+0365ETSI V0209999V000510001519N0003001N1-00101-00101999999ADDED199U04009GA1091+000151999GF109991999999000251999999MA1102301999999MW1491REMMET075METAR ETSI 190920Z VRB01KT 0300 R25/0400N FZFG VV000 M01/M01 Q1023 RED RED;
0181108600999992010011910004+48717+011533FM-12+0365ETSI V0202401N001010001519N0003001N1-00051-00051102541ADDAY141999AY241999GA1091+000151999GF109991091999999999999999MA1999999097981MD1710031+9999MW1451REMSYN076AAXX  19101 10860 41/03 92401 11005 21005 39798 40254 57003 74544 333 89/00;
0161108600999992010011910204+48717+011533FM-15+0365ETSI V0202801N001010001519N0003001N1+00001+00001999999ADDED199U04509GA1091+000151999GF109991999999000251999999MA1102201999999MW1491REMMET075METAR ETSI 191020Z 28002KT 0300 R25/0450N FZFG VV000 M00/M00 Q1022 RED RED;
0181108600999992010011911004+48717+011533FM-12+0365ETSI V0203001N001010001519N0003001N1-00051-00051102481ADDAY141999AY241999GA1091+000151999GF109991091999999999999999MA1999999097921MD1810071+9999MW1451REMSYN076AAXX  19111 10860 41/03 93001 11005 21005 39792 40248 58007 74544 333 89/00;
0161108600999992010011911204+48717+011533FM-15+0365ETSI V0209999V000510001519N0002001N1-00101-00101999999ADDED199U03509GA1091+000151999GF109991999999000251999999MA1102201999999MW1491REMMET075METAR ETSI 191120Z VRB01KT 0200 R25/0350N FZFG VV000 M01/M01 Q1022 RED RED;
0161108600999992010011912204+48717+011533FM-15+0365ETSI V0209999C000010001519N0003001N1+00001+00001999999ADDED199U06509GA1091+000151999GF109991999999000251999999MA1102101999999MW1491REMMET075METAR ETSI 191220Z 00000KT 0300 R25/0650N FZFG VV000 M00/M00 Q1021 RED RED;
0160108600999992010011912464+48717+011533FM-16+0365ETSI V0203401N001510003019N0005001N1+00001+00001999999ADDED199U08009GA1091+000301999GF109991999999000251999999MA1102101999999MW1491REMMET074SPECI ETSI 191246Z 34003KT 0500 R25/0800 FZFG VV001 M00/M00 Q1021 RED RED;
0171108600999992010011912544+48717+011533FM-16+0365ETSI V0203401N001010006019N0008001N1+00001+00001999999ADDED199U11009GA1091+000601999GF109991999999000251999999MA1102101999999MW1491REMMET085SPECI ETSI 191254Z 34002KT 0800 R25/1100U FZFG VV002 M00/M00 Q1021 AMB AMB TEMPO RED;
0181108600999992010011913004+48717+011533FM-12+0365ETSI V0203401N002010003019N0006001N1-00021-00021102351ADDAY141999AY241999GA1091+000301999GF109991091999999999999999MA1999999097801MD1710181+9999MW1431REMSYN076AAXX  19131 10860 41/06 93402 11002 21002 39780 40235 57018 74344 333 89/01;
0195108600999992010011913094+48717+011533FM-16+0365ETSI V0200101N001010009019N0012001N1+00001+00001999999ADDED199U35009GA1071+000901999GA2071+001501999GF107991999999999999999999MA1102101999999MW1401REMMET093SPECI ETSI 191309Z 01002KT 1200 R25/3500D VCFG BKN003 BKN005 M00/M00 Q1021 AMB AMB TEMPO RED;
0216108600999992010011913204+48717+011533FM-15+0365ETSI V0209999V00101021001CN0016001N1+00001+00001999999ADDED199U27009GA1041+000901999GA2041+021001999GA3071+027001999GF107991999999999999999999MA1102101999999MW1401REMMET098METAR ETSI 191320Z VRB02KT 1600 R25/2700U VCFG SCT003 SCT070 BKN090 00/00 Q1021 YLO RED TEMPO YLO;
0194108600999992010011913384+48717+011533FM-16+0365ETSI V0209999V001010012019N0016001N1+00001+00001999999ADDED199U29009GA1071+001201999GA2071+024001999GF107991999999999999999999MA1102101999999MW1401REMMET092SPECI ETSI 191338Z VRB02KT 1600 R25/2900N VCFG BKN004 BKN080 00/M00 Q1021 YLO RED TEMPO YLO;
0193108600999992010011914004+48717+011533FM-12+0365ETSI V0200101N002010012019N0016001N1+00031-00011102301ADDAY141999AY221999GA1051+001201071GF107991051061001501031999MA1999999097761MD1710161+9999MW1281REMSYN088AAXX  19141 10860 41216 70102 10003 21001 39776 40230 57016 72842 8563/ 333 85704 87358;
0214108600999992010011914074+48717+011533FM-16+0365ETSI V0201001N00151024001CN0016001N1+00001+00001999999ADDED199U25009GA1041+001201999GA2041+024001999GA3071+033001999GF107991999999999999999999MA1102001999999MW1101REMMET096SPECI ETSI 191407Z 10003KT 1600 R25/2500N BR SCT004 SCT080 BKN110 00/00 Q1020 YLO RED TEMPO YLO;
0170108600999992010011914174+48717+011533FM-16+0365ETSI V0200901N001510009019N0005001N1+00101+00001999999ADDED199U26009GA1091+000901999GF109991999999000251999999MA1102001999999MW1401REMMET084SPECI ETSI 191417Z 09003KT 0500 R25/2600D VCFG VV003 01/M00 Q1020 RED RED TEMPO YLO;
0169108600999992010011914204+48717+011533FM-15+0365ETSI V0200501N002110006019N0004001N1+00001+00001999999ADDED199U28009GA1091+000601999GF109991999999000251999999MA1102001999999MW1401REMMET083METAR ETSI 191420Z 05004KT 0400 R25/2800U VCFG VV002 00/00 Q1020 RED RED TEMPO YLO;
0167108600999992010011914264+48717+011533FM-16+0365ETSI V0203601N003110003019N0003001N1+00001+00001999999ADDED199U24009GA1091+000301999GF109991999999000251999999MA1102001999999MW1451REMMET081SPECI ETSI 191426Z 36006KT 0300 R25/2400U FG VV001 00/00 Q1020 RED RED TEMPO YLO;
0190108600999992010011915004+48717+011533FM-16+0365ETSI V0209999V001010018019N0008001N1+00001+00001999999ADDED199U29009GA1071+001801999GA2071+006001999GF107991999999999999999999MA1102001999999MW1751REMMET088SPECI ETSI 191500Z VRB02KT 0800 R25/2900U +SN BKN006 BKN020 00/00 Q1020 AMB FCST CANCEL;
0182108600999992010011915204+48717+011533FM-15+0365ETSI V0209999V000510150019N0011001N1+00001+00001999999ADDED199U17009GA1041+001801999GA2071+015001999GF107991999999999999999999MA1102001999999MW1101REMMET080METAR ETSI 191520Z VRB01KT 1100 R25/1700U BR SCT006 BKN050 00/00 Q1020 RESN AMB;
0215108600999992010011916004+48717+011533FM-12+0365ETSI V0201201N001010090019N0011001N1+00041+00031102241ADDAY171999AY271999GA1031+003001061GA2031+009001061GF107991071051004501999999MA1999999097711MD1710091+9999MW1711REMSYN094AAXX  19161 10860 41411 71201 10004 20003 39771 40224 57009 77177 875// 333 83610 83630 87656;
0210108600999992010011916204+48717+011533FM-15+0365ETSI V0200801N00151006001CN0011001N1+00001+00001999999ADDED199U22009GA1021+003001999GA2041+006001999GA3071+018001999GF107991999999999999999999MA1102001999999MW1101MW2711REMMET086METAR ETSI 191620Z 08003KT 1100 R25/2200D -SN BR FEW010 SCT020 BKN060 00/00 Q1020 AMB;
0309108600999992010011917004+48717+011533SY-MT+0365ETSI V0201201N002010105019N0012001N1+00041+00031102231ADDAY171999AY221999GA1021+006001999GA2071+010501999GA3071+015001999GF107991071051008001999999MA1102001097701MD1710061+9999MW1221REMSYN094AAXX  19171 10860 41512 71202 10004 20003 39770 40223 57006 72272 875// 333 81620 85635 87650;MET072SPECI ETSI 191700Z 14002KT 2000 BR FEW020 BKN035 BKN050 01/01 Q1020 YLO;
0156108600999992010011917204+48717+011533FM-15+0365ETSI V0201101N000510135019N0025001N1+00101+00101999999ADDGA1021+000901999GA2071+013501999GF107991999999999999999999MA1102001999999MW1101REMMET065METAR ETSI 191720Z 11001KT 2500 BR FEW003 BKN045 01/01 Q1020 YLO;
0157108600999992010012004204+48717+011533FM-15+0365ETSI V0200601N001010003019N0002001N1+00001+00001999999ADDED199U05009GA1091+000301999GF109991999999000251999999MA1101591999999MW1491REMMET071METAR ETSI 200420Z 06002KT 0200 R25/0500N FZFG VV001 M00/M00 Q1016 RED;
0173108600999992010012005004+48717+011533FM-12+0365ETSI V0200801N001010003019N0002001N1-00031-00031101901ADDAY171999GA1091+000301999GF109991091999999999999999MA1999999097371MD1710101+9999MW1491REMSYN076AAXX  20051 10860 41/02 90801 11003 21003 39737 40190 57010 7497/ 333 89/01;
0185108600999992010012005204+48717+011533FM-15+0365ETSI V0202401N000510051019N0006001N1+00001+00001999999ADDED199U10009GA1041+000901999GA2071+005101999GF107991999999999999999999MA1101591999999MW1481REMMET083METAR ETSI 200520Z 24001KT 0600 R25/1000U FZFG SCT003 BKN017 M00/M00 Q1016 RED RED;
0226108600999992010012006204+48717+011533FM-15+0365ETSI V0209999C000010051019N0013001N1+00001+00001999999ADDED199U14009GA1041+001801999GA2071+005101999GA3071+007801999GF107991999999999999999999MA1101591999999MW1101MW2771REMMET102METAR ETSI 200620Z 00000KT 1300 R25/1400D -SG BR SCT006 BKN017 BKN026 M00/M00 Q1016 AMB RED TEMPO AMB;
0235108600999992010012007004+48717+011533FM-12+0365ETSI V0200801N001010018019N0012001N1-00031-00041101891ADDAY171999AY221999GA1081+001801071GF108991081061001501999999MA1999999097361MD1610051+9999MW1201REMSYN130AAXX  20071 10860 41212 80801 11003 21004 39736 40189 56005 72072 886// 333 88706 555 BOT 1//// 2//// 3//// 4//// 5//// 999 42///;
0170108600999992010012007204+48717+011533FM-15+0365ETSI V0209999C000010015019N0011001N1+00001+00001999999ADDED199U08009GA1081+001501999GF108991999999999999999999MA1101591999999MW1101REMMET084METAR ETSI 200720Z 00000KT 1100 R25/0800N BR OVC005 M00/M00 Q1016 AMB RED TEMPO AMB;
0288108600999992010012008004+48717+011533SY-MT+0365ETSI V0201601N001010018019N0014001N1-00021-00031101881ADDAY121999AY221999ED199U20009GA1081+001801999GF108991081061001501999999MA1101591097351MD1710021+9999MW1101REMSYN082AAXX  20081 10860 41214 81601 11002 21003 39735 40188 57002 71022 886// 333 88706;MET084SPECI ETSI 200800Z 16001KT 1400 R25/2000U BR OVC006 M00/M00 Q1016 AMB RED TEMPO AMB;
0149108600999992010012008204+48717+011533FM-15+0365ETSI V0201501N001010018019N0028001N1+00001+00001999999ADDGA1081+001801999GF108991999999999999999999MA1101591999999MW1101REMMET074METAR ETSI 200820Z 15002KT 2800 BR OVC006 M00/M00 Q1016 YLO YLO TEMPO RED;
0147108600999992010012008534+48717+011533FM-16+0365ETSI V0201301N002110018019N0035001N1+00001+00001999999ADDGA1081+001801999GF108991999999999999999999MA1101591999999MW1101REMMET072SPECI ETSI 200853Z 13004KT 3500 BR OVC006 00/00 Q1016 YLO YLO TEMPO RED;
0148108600999992010012009204+48717+011533FM-15+0365ETSI V0201501N002110018019N0040001N1+00001-00101999999ADDGA1081+001801999GF108991999999999999999999MA1101591999999MW1101REMMET073METAR ETSI 200920Z 15004KT 4000 BR OVC006 00/M01 Q1016 YLO YLO TEMPO RED;
0138108600999992010012009544+48717+011533FM-16+0365ETSI V0201301N001510021019N0070001N1+00001+00001999999ADDGA1081+002101999GF108991999999999999999999MA1101591999999REMMET069SPECI ETSI 200954Z 13003KT 7000 OVC007 00/00 Q1016 GRN YLO TEMPO GRN;
0187108600999992010012010004+48717+011533FM-12+0365ETSI V0201401N002010021019N0070001N1+00021-00031101841ADDAY121999AY221999GA1081+002101071GF108991081061002501999999MA1999999097321MD1710041+9999MW1101REMSYN082AAXX  20101 10860 41357 81402 10002 21003 39732 40184 57004 71022 886// 333 88707;
0162108600999992010012010204+48717+011533FM-15+0365ETSI V0201401N001010024019N0070001N1+00001+00001999999ADDGA1041+001801999GA2081+002401999GF108991999999999999999999MA1101591999999REMMET077METAR ETSI 201020Z 14002KT 7000 SCT006 OVC008 00/M00 Q1016 GRN YLO TEMPO GRN;
0193108600999992010012011004+48717+011533FM-12+0365ETSI V0201001N00201001201CN0070001N1+00061+00001101771ADDAY121999AY221999GA1011+001801071GF108991081061001501999999MA1999999097261MD1710091+9999MW1101REMSYN088AAXX  20111 10860 41257 81002 10006 20000 39726 40177 57009 71022 886// 333 81706 88708;
0162108600999992010012011204+48717+011533FM-15+0365ETSI V0201001N002610027019N0080001N1+00101+00001999999ADDGA1021+002101999GA2081+002701999GF108991999999999999999999MA1101491999999REMMET077METAR ETSI 201120Z 10005KT 8000 FEW007 OVC009 01/M00 Q1015 GRN YLO TEMPO GRN;
0162108600999992010012012204+48717+011533FM-15+0365ETSI V0200801N002610039019N0112651N1+00101+00001999999ADDGA1041+002701999GA2071+003901999GF107991999999999999999999MA1101391999999REMMET077METAR ETSI 201220Z 08005KT 9999 SCT009 BKN013 01/M00 Q1014 GRN YLO TEMPO GRN;
0165108600999992010012013004+48717+011533FM-12+0365ETSI V0200801N00201002101CN0100001N1+00101-00031101631ADDGA1041+002701071GF108991081051002501999999MA1999999097131MD1710191+9999REMSYN082AAXX  20131 10860 42360 80802 10010 21003 39713 40163 57019 885// 333 84709 87613;
0163108600999992010012013204+48717+011533FM-15+0365ETSI V0200801N002110042019N0112651N1+00101+00001999999ADDGA1041+002701999GA2071+004201999GF107991999999999999999999MA1101391999999REMMET078METAR ETSI 201320Z 08004KT 9999 SCT009 BKN014 01/M00 Q1014 GRN GRN TEMPO BLU/;
0165108600999992010012014004+48717+011533FM-12+0365ETSI V0200801N00201004201CN0100001N1+00121-00051101631ADDGA1031+003001071GF107991071051004501999999MA1999999097141MD1510121+9999REMSYN082AAXX  20141 10860 42460 70802 10012 21005 39714 40163 55012 875// 333 83710 87612;
0163108600999992010012014204+48717+011533FM-15+0365ETSI V0200801N003110048019N0112651N1+00101-00101999999ADDGA1021+003001999GA2071+004801999GF107991999999999999999999MA1101391999999REMMET078METAR ETSI 201420Z 08006KT 9999 FEW010 BKN016 01/M01 Q1014 WHT GRN TEMPO BLU/;
0139108600999992010012015204+48717+011533FM-15+0365ETSI V0200801N002610039019N0112651N1+00101-00101999999ADDGA1071+003901999GF107991999999999999999999MA1101391999999REMMET070METAR ETSI 201520Z 08005KT 9999 BKN013 01/M01 Q1014 GRN WHT BECMG GRN;
0233108600999992010012016004+48717+011533SY-MT+0365ETSI V0201101N00201003601CN0120001N1+00041-00081101681ADDGA1071+003601999GF107991071051004501999999MA1101391097171MD1310041+9999REMSYN076AAXX  20161 10860 42462 71102 10004 21008 39717 40168 53004 875// 333 87614;MET068SPECI ETSI 201600Z 11003KT 9999 BKN012 00/M01 Q1014 GRN FCST CANCEL;
0125108600999992010012016204+48717+011533FM-15+0365ETSI V0200901N001510036019N0112651N1+00001-00101999999ADDGA1071+003601999GF107991999999999999999999MA1101491999999REMMET056METAR ETSI 201620Z 09003KT 9999 BKN012 00/M01 Q1015 GRN;
0159108600999992010012017004+48717+011533FM-12+0365ETSI V0200801N002010036019N0100001N1+00021-00121101711ADDGA1071+003601061GF107991071051004501999999MA1999999097201MD1310061+9999REMSYN076AAXX  20171 10860 42460 70802 10002 21012 39720 40171 53006 875// 333 87612;
0125108600999992010012017204+48717+011533FM-15+0365ETSI V0201001N001510039019N0112651N1+00001-00101999999ADDGA1071+003901999GF107991999999999999999999MA1101491999999REMMET056METAR ETSI 201720Z 10003KT 9999 BKN013 00/M01 Q1015 GRN;
0125108600999992010012021204+48717+011533FM-15+0365ETSI V0201501N001510036019N0112651N1+00001-00101999999ADDGA1071+003601999GF107991999999999999999999MA1101591999999REMMET056METAR ETSI 202120Z 15003KT 9999 BKN012 00/M01 Q1016 GRN;
0126108600999992010012104204+48717+011533FM-15+0365ETSI V0202301N000510036019N0112651N1+00001-00101999999ADDGA1081+003601999GF108991999999999999999999MA1101801999999REMMET057METAR ETSI 210420Z 23001KT 9999 OVC012 M00/M01 Q1018 GRN;
0159108600999992010012105004+48717+011533FM-12+0365ETSI V0209999V001010033019N0150001N1-00041-00151102101ADDGA1081+003301061GF108991081051004501999999MA1999999097561MD1210081+9999REMSYN076AAXX  21051 10860 43465 89901 11004 21015 39756 40210 52008 885// 333 88611;
0130108600999992010012105204+48717+011533FM-15+0365ETSI V0200801N001510033019N0112651N1+00001-00201999999ADDGA1081+003301999GF108991999999999999999999MA1101901999999REMMET061METAR ETSI 210520Z 08003KT 9999 OVC011 M00/M02 Q1019 GRN GRN;
0130108600999992010012106204+48717+011533FM-15+0365ETSI V0201501N000510030019N0112651N1+00001-00201999999ADDGA1081+003001999GF108991999999999999999999MA1101901999999REMMET061METAR ETSI 210620Z 15001KT 9999 OVC010 M00/M02 Q1019 GRN GRN;
0159108600999992010012107004+48717+011533FM-12+0365ETSI V0201301N001010030019N0090001N1-00041-00091102231ADDGA1081+003001061GF108991081051004501999999MA1999999097681MD1210161+9999REMSYN076AAXX  21071 10860 42459 81301 11004 21009 39768 40223 52016 885// 333 88610;
0130108600999992010012107204+48717+011533FM-15+0365ETSI V0209999V000510033019N0090001N1+00001-00201999999ADDGA1071+003301999GF107991999999999999999999MA1102001999999REMMET061METAR ETSI 210720Z VRB01KT 9000 BKN011 M00/M02 Q1020 GRN GRN;
0159108600999992010012108004+48717+011533FM-12+0365ETSI V0201801N001010033019N0090001N1-00051-00231102281ADDGA1081+003301061GF108991081051004501999999MA1999999097731MD1210171+9999REMSYN076AAXX  21081 10860 42459 81801 11005 21023 39773 40228 52017 885// 333 88611;
0130108600999992010012108204+48717+011533FM-15+0365ETSI V0202001N001010033019N0112651N1+00001-00201999999ADDGA1081+003301999GF108991999999999999999999MA1102001999999REMMET061METAR ETSI 210820Z 20002KT 9999 OVC011 M00/M02 Q1020 GRN GRN;
0130108600999992010012109204+48717+011533FM-15+0365ETSI V0209999V000510033019N0112651N1+00001-00101999999ADDGA1081+003301999GF108991999999999999999999MA1102101999999REMMET061METAR ETSI 210920Z VRB01KT 9999 OVC011 M00/M01 Q1021 GRN GRN;
0159108600999992010012110004+48717+011533FM-12+0365ETSI V0202401N002010033019N0100001N1-00041-00141102391ADDGA1081+003301061GF108991081051004501999999MA1999999097841MD1210161+9999REMSYN076AAXX  21101 10860 42460 82402 11004 21014 39784 40239 52016 885// 333 88611;
0130108600999992010012110204+48717+011533FM-15+0365ETSI V0202601N001010033019N0112651N1+00001-00201999999ADDGA1081+003301999GF108991999999999999999999MA1102101999999REMMET061METAR ETSI 211020Z 26002KT 9999 OVC011 M00/M02 Q1021 GRN GRN;
0159108600999992010012111004+48717+011533FM-12+0365ETSI V0202401N002010033019N0100001N1-00031-00171102401ADDGA1081+003301061GF108991081051004501999999MA1999999097851MD1110121+9999REMSYN076AAXX  21111 10860 42460 82402 11003 21017 39785 40240 51012 885// 333 88611;
0130108600999992010012111204+48717+011533FM-15+0365ETSI V0202501N002110033019N0112651N1+00001-00201999999ADDGA1081+003301999GF108991999999999999999999MA1102101999999REMMET061METAR ETSI 211120Z 25004KT 9999 OVC011 M00/M02 Q1021 GRN GRN;
0130108600999992010012112204+48717+011533FM-15+0365ETSI V0202601N001510036019N0112651N1+00001-00201999999ADDGA1081+003601999GF108991999999999999999999MA1102101999999REMMET061METAR ETSI 211220Z 26003KT 9999 OVC012 M00/M02 Q1021 GRN GRN;
0159108600999992010012113004+48717+011533FM-12+0365ETSI V0202401N001010039019N0120001N1-00011-00231102371ADDGA1081+003901061GF108991081051004501999999MA1999999097821MD1810021+9999REMSYN076AAXX  21131 10860 42462 82401 11001 21023 39782 40237 58002 885// 333 88613;
0130108600999992010012113204+48717+011533FM-15+0365ETSI V0202701N001510039019N0112651N1+00001-00201999999ADDGA1081+003901999GF108991999999999999999999MA1102101999999REMMET061METAR ETSI 211320Z 27003KT 9999 OVC013 M00/M02 Q1021 GRN GRN;
0159108600999992010012114004+48717+011533FM-12+0365ETSI V0203601N002010039019N0120001N1-00021-00211102401ADDGA1081+003901061GF108991081051004501999999MA1999999097851MD1510001+9999REMSYN076AAXX  21141 10860 42462 83602 11002 21021 39785 40240 55000 885// 333 88613;
0140108600999992010012114204+48717+011533FM-15+0365ETSI V0200201N001510048019N0112651N1+00001-00201999999ADDGA1081+004801999GF108991999999999999999999MA1102201999999REMMET071METAR ETSI 211420Z 02003KT 9999 OVC016 M00/M02 Q1022 WHT GRN TEMPO WHT;
0140108600999992010012115204+48717+011533FM-15+0365ETSI V0200401N001010045019N0112651N1+00001-00201999999ADDGA1071+004501999GF107991999999999999999999MA1102201999999REMMET071METAR ETSI 211520Z 04002KT 9999 BKN015 M00/M02 Q1022 WHT GRN TEMPO WHT;
0234108600999992010012116004+48717+011533SY-MT+0365ETSI V0200601N002010045019N0120001N1-00021-00201102481ADDGA1081+004501999GF108991081051004501999999MA1102201097931MD1210111+9999REMSYN076AAXX  21161 10860 42462 80602 11002 21020 39793 40248 52011 885// 333 88615;MET069SPECI ETSI 211600Z 08004KT 9999 OVC015 M00/M02 Q1022 WHT FCST CANCEL;
0126108600999992010012116204+48717+011533FM-15+0365ETSI V0200601N001510048019N0112651N1+00001-00201999999ADDGA1081+004801999GF108991999999999999999999MA1102201999999REMMET057METAR ETSI 211620Z 06003KT 9999 OVC016 M00/M02 Q1022 WHT;
0159108600999992010012117004+48717+011533FM-12+0365ETSI V0200601N002010048019N0120001N1-00041-00211102531ADDGA1081+004801061GF108991081051004501999999MA1999999097971MD1210121+9999REMSYN076AAXX  21171 10860 42462 80602 11004 21021 39797 40253 52012 885// 333 88616;
0126108600999992010012117204+48717+011533FM-15+0365ETSI V0200501N002110045019N0112651N1+00001-00301999999ADDGA1081+004501999GF108991999999999999999999MA1102301999999REMMET057METAR ETSI 211720Z 05004KT 9999 OVC015 M00/M03 Q1023 WHT;
0126108600999992010012118204+48717+011533FM-15+0365ETSI V0200701N002110048019N0112651N1+00001-00301999999ADDGA1081+004801999GF108991999999999999999999MA1102301999999REMMET057METAR ETSI 211820Z 07004KT 9999 OVC016 M00/M03 Q1023 WHT;
0126108600999992010012119204+48717+011533FM-15+0365ETSI V0200201N001010048019N0112651N1-00101-00301999999ADDGA1081+004801999GF108991999999999999999999MA1102301999999REMMET057METAR ETSI 211920Z 02002KT 9999 OVC016 M01/M03 Q1023 WHT;
0126108600999992010012120204+48717+011533FM-15+0365ETSI V0200501N002110048019N0112651N1-00101-00401999999ADDGA1081+004801999GF108991999999999999999999MA1102301999999REMMET057METAR ETSI 212020Z 05004KT 9999 OVC016 M01/M04 Q1023 WHT;
0126108600999992010012121204+48717+011533FM-15+0365ETSI V0200601N001510045019N0112651N1-00101-00201999999ADDGA1081+004501999GF108991999999999999999999MA1102301999999REMMET057METAR ETSI 212120Z 06003KT 9999 OVC015 M01/M02 Q1023 WHT;
0126108600999992010012121504+48717+011533FM-16+0365ETSI V0209999C000010042019N0112651N1-00101-00301999999ADDGA1081+004201999GF108991999999999999999999MA1102401999999REMMET057SPECI ETSI 212150Z 00000KT 9999 OVC014 M01/M03 Q1024 GRN;
0126108600999992010012122204+48717+011533FM-15+0365ETSI V0201101N001010042019N0112651N1-00101-00301999999ADDGA1081+004201999GF108991999999999999999999MA1102401999999REMMET057METAR ETSI 212220Z 11002KT 9999 OVC014 M01/M03 Q1024 GRN;
0126108600999992010012204204+48717+011533FM-15+0365ETSI V0200801N002110027019N0112651N1-00101-00201999999ADDGA1081+002701999GF108991999999999999999999MA1102401999999REMMET057METAR ETSI 220420Z 08004KT 9999 OVC009 M01/M02 Q1024 GRN;
0159108600999992010012205004+48717+011533FM-12+0365ETSI V0200901N001010027019N0100001N1-00131-00281102701ADDGA1081+002701071GF108991081061002501999999MA1999999098121MD1210061+9999REMSYN076AAXX  22051 10860 43360 80901 11013 21028 39812 40270 52006 886// 333 88709;
0130108600999992010012205204+48717+011533FM-15+0365ETSI V0200701N001510027019N0112651N1-00101-00301999999ADDGA1081+002701999GF108991999999999999999999MA1102401999999REMMET061METAR ETSI 220520Z 07003KT 9999 OVC009 M01/M03 Q1024 GRN GRN;
0130108600999992010012206204+48717+011533FM-15+0365ETSI V0200801N001510039019N0112651N1-00101-00301999999ADDGA1081+003901999GF108991999999999999999999MA1102401999999REMMET061METAR ETSI 220620Z 08003KT 9999 OVC013 M01/M03 Q1024 GRN GRN;
0207108600999992010012207004+48717+011533FM-12+0365ETSI V0200901N001010036019N0120001N1-00121-00231102731ADDGA1081+003601071GF108991081061004501999999MA1999999098151MD1210041+9999REMSYN124AAXX  22071 10860 42462 80901 11012 21023 39815 40273 52004 886// 333 88712 555 BOT 1//// 2//// 3//// 4//// 5//// 999 42///;
0130108600999992010012207204+48717+011533FM-15+0365ETSI V0200501N002110036019N0112651N1-00101-00301999999ADDGA1081+003601999GF108991999999999999999999MA1102511999999REMMET061METAR ETSI 220720Z 05004KT 9999 OVC012 M01/M03 Q1025 GRN GRN;
0159108600999992010012208004+48717+011533FM-12+0365ETSI V0200301N002010036019N0120001N1-00101-00271102731ADDGA1071+003601061GF107991071051004501999999MA1999999098151MD1110031+9999REMSYN076AAXX  22081 10860 42462 70302 11010 21027 39815 40273 51003 875// 333 87612;
0130108600999992010012208204+48717+011533FM-15+0365ETSI V0200601N003110036019N0112651N1-00101-00301999999ADDGA1071+003601999GF107991999999999999999999MA1102511999999REMMET061METAR ETSI 220820Z 06006KT 9999 BKN012 M01/M03 Q1025 GRN GRN;
0130108600999992010012209204+48717+011533FM-15+0365ETSI V0200601N002110036019N0112651N1-00101-00301999999ADDGA1071+003601999GF107991999999999999999999MA1102511999999REMMET061METAR ETSI 220920Z 06004KT 9999 BKN012 M01/M03 Q1025 GRN GRN;
0159108600999992010012210004+48717+011533FM-12+0365ETSI V0200501N002010036019N0150001N1-00081-00281102791ADDGA1071+003601061GF107991071051004501999999MA1999999098211MD1310061+9999REMSYN076AAXX  22101 10860 42465 70502 11008 21028 39821 40279 53006 875// 333 87612;
0159108600999992010012211004+48717+011533FM-12+0365ETSI V0200901N002010036019N0150001N1-00061-00291102741ADDGA1071+003601061GF107991071051004501999999MA1999999098171MD1010031+9999REMSYN076AAXX  22111 10860 42465 70902 11006 21029 39817 40274 50003 875// 333 87612;
0130108600999992010012211204+48717+011533FM-15+0365ETSI V0201201N001510042019N0112651N1+00001-00301999999ADDGA1071+004201999GF107991999999999999999999MA1102511999999REMMET061METAR ETSI 221120Z 12003KT 9999 BKN014 M00/M03 Q1025 GRN GRN;
0138108600999992010012212004+48717+011533FM-16+0365ETSI V0200501N002110042019N0112651N1+00001-00301999999ADDGA1071+004201999GF107991999999999999999999MA1102511999999REMMET069SPECI ETSI 221200Z 05004KT 9999 BKN014 M00/M03 Q1025 GRN FCST CANCEL;
0126108600999992010012212204+48717+011533FM-15+0365ETSI V0200301N001510045019N0112651N1+00001-00201999999ADDGA1071+004501999GF107991999999999999999999MA1102401999999REMMET057METAR ETSI 221220Z 03003KT 9999 BKN015 M00/M02 Q1024 WHT;
0159108600999992010012213004+48717+011533FM-12+0365ETSI V0200801N001010045019N0150001N1-00051-00281102691ADDGA1071+004501061GF107991071051004501999999MA1999999098121MD1710091+9999REMSYN076AAXX  22131 10860 42465 70801 11005 21028 39812 40269 57009 875// 333 87615;
0126108600999992010012213204+48717+011533FM-15+0365ETSI V0200701N002110048019N0112651N1+00001-00301999999ADDGA1071+004801999GF107991999999999999999999MA1102401999999REMMET057METAR ETSI 221320Z 07004KT 9999 BKN016 M00/M03 Q1024 WHT;
0159108600999992010012214004+48717+011533FM-12+0365ETSI V0200101N002010048019N0150001N1-00041-00361102691ADDGA1071+004801061GF107991071051004501999999MA1999999098121MD1610051+9999REMSYN076AAXX  22141 10860 42465 70102 11004 21036 39812 40269 56005 875// 333 87616;
0126108600999992010012214204+48717+011533FM-15+0365ETSI V0200501N002610051019N0112651N1+00001-00401999999ADDGA1071+005101999GF107991999999999999999999MA1102511999999REMMET057METAR ETSI 221420Z 05005KT 9999 BKN017 M00/M04 Q1025 WHT;
0126108600999992010012215204+48717+011533FM-15+0365ETSI V0200601N003610054019N0112651N1-00101-00401999999ADDGA1071+005401999GF107991999999999999999999MA1102511999999REMMET057METAR ETSI 221520Z 06007KT 9999 BKN018 M01/M04 Q1025 WHT;
0159108600999992010012216004+48717+011533FM-12+0365ETSI V0200701N003010051019N0150001N1-00091-00351102791ADDGA1071+005101061GF107991071051004501999999MA1999999098211MD1310091+9999REMSYN076AAXX  22161 10860 42465 70703 11009 21035 39821 40279 53009 875// 333 87617;
0126108600999992010012216204+48717+011533FM-15+0365ETSI V0200801N002610051019N0112651N1-00101-00401999999ADDGA1071+005101999GF107991999999999999999999MA1102511999999REMMET057METAR ETSI 221620Z 08005KT 9999 BKN017 M01/M04 Q1025 WHT;
0159108600999992010012217004+48717+011533FM-12+0365ETSI V0200901N002010045019N0080001N1-00121-00301102821ADDGA1071+004501061GF107991071051004501999999MA1999999098231MD1210111+9999REMSYN076AAXX  22171 10860 42458 70902 11012 21030 39823 40282 52011 875// 333 87615;
0126108600999992010012217204+48717+011533FM-15+0365ETSI V0200901N001510045019N0080001N1-00101-00401999999ADDGA1081+004501999GF108991999999999999999999MA1102611999999REMMET057METAR ETSI 221720Z 09003KT 8000 OVC015 M01/M04 Q1026 WHT;
0126108600999992010012306204+48717+011533FM-15+0365ETSI V0200701N002610039019N0070001N1-00301-00401999999ADDGA1081+003901999GF108991999999999999999999MA1102401999999REMMET057METAR ETSI 230620Z 07005KT 7000 OVC013 M03/M04 Q1024 GRN;
0126108600999992010012309204+48717+011533FM-15+0365ETSI V0200801N002110039019N0070001N1-00201-00401999999ADDGA1081+003901999GF108991999999999999999999MA1102401999999REMMET057METAR ETSI 230920Z 08004KT 7000 OVC013 M02/M04 Q1024 GRN;
0126108600999992010012323204+48717+011533FM-15+0365ETSI V0200801N002610027019N0080001N1-00401-00501999999ADDGA1081+002701999GF108991999999999999999999MA1102301999999REMMET057METAR ETSI 232320Z 08005KT 8000 OVC009 M04/M05 Q1023 GRN;
0135108600999992010012410204+48717+011533FM-15+0365ETSI V0200801N002610015019N0025001N1-00401-00501999999ADDGA1081+001501999GF108991999999999999999999MA1102401999999MW1101REMMET060METAR ETSI 241020Z 08005KT 2500 BR OVC005 M04/M05 Q1024 YLO;
0135108600999992010012411204+48717+011533FM-15+0365ETSI V0200801N002610018019N0025001N1-00401-00501999999ADDGA1081+001801999GF108991999999999999999999MA1102401999999MW1101REMMET060METAR ETSI 241120Z 08005KT 2500 BR OVC006 M04/M05 Q1024 YLO;
0135108600999992010012412204+48717+011533FM-15+0365ETSI V0200901N002610018019N0023001N1-00401-00501999999ADDGA1081+001801999GF108991999999999999999999MA1102401999999MW1101REMMET060METAR ETSI 241220Z 09005KT 2300 BR OVC006 M04/M05 Q1024 YLO;
0147108600999992010012412524+48717+011533FM-16+0365ETSI V0200801N003110018019N0021001N1-00401-00501999999ADDGA1081+001801999GF108991999999999999999999MA1102401999999MW1101MW2561REMMET066SPECI ETSI 241252Z 08006KT 2100 -FZDZ BR OVC006 M04/M05 Q1024 YLO;
0147108600999992010012413204+48717+011533FM-15+0365ETSI V0200901N003110018019N0020001N1-00401-00401999999ADDGA1081+001801999GF108991999999999999999999MA1102401999999MW1101MW2561REMMET066METAR ETSI 241320Z 09006KT 2000 -FZDZ BR OVC006 M04/M04 Q1024 YLO;
0135108600999992010012416204+48717+011533FM-15+0365ETSI V0200901N003110024019N0022001N1-00501-00601999999ADDGA1081+002401999GF108991999999999999999999MA1102401999999MW1101REMMET060METAR ETSI 241620Z 09006KT 2200 BR OVC008 M05/M06 Q1024 YLO;
0135108600999992010012417204+48717+011533FM-15+0365ETSI V0200901N002610021019N0020001N1-00501-00601999999ADDGA1081+002101999GF108991999999999999999999MA1102511999999MW1101REMMET060METAR ETSI 241720Z 09005KT 2000 BR OVC007 M05/M06 Q1025 YLO;
0135108600999992010012418204+48717+011533FM-15+0365ETSI V0200901N002610024019N0022001N1-00501-00601999999ADDGA1081+002401999GF108991999999999999999999MA1102511999999MW1101REMMET060METAR ETSI 241820Z 09005KT 2200 BR OVC008 M05/M06 Q1025 YLO;
0145108600999992010012504204+48717+011533FM-15+0365ETSI V0200701N002610030019N0030001N1-00501-00501999999ADDGA1081+003001999GF108991999999999999999999MA1102401999999MW1101MW2711REMMET064METAR ETSI 250420Z 07005KT 3000 -SN BR OVC010 M05/M05 Q1024 YLO;
0185108600999992010012505004+48717+011533FM-12+0365ETSI V0200701N003010030019N0030001N1-00471-00511102721ADDAY171999GA1061+003001061GF108991081051004501999999MA1999999098081MD1710021+9999MW1711REMSYN088AAXX  25051 10860 41430 80703 11047 21051 39808 40272 57002 7717/ 885// 333 86610 88625;
0182108600999992010012505204+48717+011533FM-15+0365ETSI V0200801N002610051019N0030001N1-00501-00501999999ADDGA1041+003001999GA2071+005101999GF107991999999999999999999MA1102401999999MW1101MW2711REMMET085METAR ETSI 250520Z 08005KT 3000 -SN BR SCT010 BKN017 M05/M05 Q1024 YLO YLO TEMPO GRN;
0172108600999992010012506204+48717+011533FM-15+0365ETSI V0200701N002110060019N0028001N1-00401-00401999999ADDGA1021+003001999GA2081+006001999GF108991999999999999999999MA1102401999999MW1101MW2711REMMET075METAR ETSI 250620Z 07004KT 2800 -SN BR FEW010 OVC020 M04/M04 Q1024 YLO YLO;
0193108600999992010012507004+48717+011533FM-12+0365ETSI V0200701N002010039019N0020001N1-00451-00501102811ADDAY171999AY271999GA1061+003901061GF108991081051004501999999MA1999999098171MD1310071+9999MW1711REMSYN088AAXX  25071 10860 41420 80702 11045 21050 39817 40281 53007 77177 885// 333 86613 88620;
0172108600999992010012507204+48717+011533FM-15+0365ETSI V0200701N002610039019N0025001N1-00401-00401999999ADDGA1071+003901999GA2071+006601999GF107991999999999999999999MA1102511999999MW1101MW2711REMMET075METAR ETSI 250720Z 07005KT 2500 -SN BR BKN013 BKN022 M04/M04 Q1025 YLO YLO;
0172108600999992010012507584+48717+011533FM-16+0365ETSI V0200701N002610051019N0037001N1-00401-00501999999ADDGA1021+003001999GA2081+005101999GF108991999999999999999999MA1102511999999MW1101REMMET081SPECI ETSI 250758Z 07005KT 3700 BR FEW010 OVC017 M04/M05 Q1025 GRN YLO TEMPO GRN;
0193108600999992010012508004+48717+011533FM-12+0365ETSI V0200701N00301004201CN0037001N1-00441-00501102841ADDAY171999AY271999GA1011+003001071GF108991081051004501999999MA1999999098201MD1210121+9999MW1221REMSYN088AAXX  25081 10860 41437 80703 11044 21050 39820 40284 52012 72277 885// 333 81710 88617;
0172108600999992010012508204+48717+011533FM-15+0365ETSI V0200601N002610030019N0037001N1-00401-00501999999ADDGA1071+003001999GA2081+005401999GF108991999999999999999999MA1102511999999MW1101REMMET081METAR ETSI 250820Z 06005KT 3700 BR BKN010 OVC018 M04/M05 Q1025 GRN GRN TEMPO YLO;
0172108600999992010012509204+48717+011533FM-15+0365ETSI V0200701N002610030019N0040001N1-00401-00501999999ADDGA1071+003001999GA2081+005401999GF108991999999999999999999MA1102611999999MW1101REMMET081METAR ETSI 250920Z 07005KT 4000 BR BKN010 OVC018 M04/M05 Q1026 GRN GRN TEMPO YLO;
0187108600999992010012510004+48717+011533FM-12+0365ETSI V0200701N003010039019N0045001N1-00371-00461102901ADDAY121999AY221999GA1071+003901071GF108991071061004501999999MA1999999098271MD1110061+9999MW1101REMSYN082AAXX  25101 10860 41445 80703 11037 21046 39827 40290 51006 71022 876// 333 87713;
0149108600999992010012510204+48717+011533FM-15+0365ETSI V0200701N002610036019N0045001N1-00301-00501999999ADDGA1071+003601999GF107991999999999999999999MA1102611999999MW1101REMMET074METAR ETSI 251020Z 07005KT 4500 BR BKN012 M03/M05 Q1026 GRN GRN TEMPO YLO;
0149108600999992010012510584+48717+011533FM-16+0365ETSI V0200801N002610039019N0050001N1-00301-00401999999ADDGA1081+003901999GF108991999999999999999999MA1102611999999MW1101REMMET074SPECI ETSI 251058Z 08005KT 5000 BR OVC013 M03/M04 Q1026 GRN GRN TEMPO YLO;
0187108600999992010012511004+48717+011533FM-12+0365ETSI V0200801N003010039019N0050001N1-00291-00451102901ADDAY121999AY221999GA1081+003901061GF108991081051004501999999MA1999999098281MD1210081+9999MW1101REMSYN082AAXX  25111 10860 41450 80803 11029 21045 39828 40290 52008 71022 885// 333 88613;
0149108600999992010012511204+48717+011533FM-15+0365ETSI V0200701N002610039019N0050001N1-00301-00401999999ADDGA1081+003901999GF108991999999999999999999MA1102611999999MW1101REMMET074METAR ETSI 251120Z 07005KT 5000 BR OVC013 M03/M04 Q1026 GRN GRN TEMPO YLO;
0139108600999992010012512204+48717+011533FM-15+0365ETSI V0200501N003110039019N0050001N1-00201-00501999999ADDGA1081+003901999GF108991999999999999999999MA1102611999999MW1101REMMET064METAR ETSI 251220Z 05006KT 5000 BR OVC013 M02/M05 Q1026 GRN GRN;
0187108600999992010012513004+48717+011533FM-12+0365ETSI V0200501N003010039019N0050001N1-00251-00411102861ADDAY121999AY221999GA1081+003901061GF108991081051004501999999MA1999999098251MD1010021+9999MW1101REMSYN082AAXX  25131 10860 41450 80503 11025 21041 39825 40286 50002 71022 885// 333 88613;
0162108600999992010012513204+48717+011533FM-15+0365ETSI V0200501N003610042019N0050001N1-00301-00501999999ADDGA1021+003601999GA2071+004201999GF107991999999999999999999MA1102611999999MW1101REMMET071METAR ETSI 251320Z 05007KT 5000 BR FEW012 BKN014 M03/M05 Q1026 GRN GRN;
0193108600999992010012514004+48717+011533FM-12+0365ETSI V0200501N003010039019N0050001N1-00271-00471102911ADDAY121999AY221999GA1051+003901061GF108991081051004501999999MA1999999098291MD1310011+9999MW1101REMSYN088AAXX  25141 10860 41450 80503 11027 21047 39829 40291 53001 71022 885// 333 85613 87615;
0162108600999992010012514204+48717+011533FM-15+0365ETSI V0200501N003610039019N0050001N1-00301-00401999999ADDGA1071+003901999GA2071+004501999GF107991999999999999999999MA1102611999999MW1101REMMET071METAR ETSI 251420Z 05007KT 5000 BR BKN013 BKN015 M03/M04 Q1026 GRN GRN;
0172108600999992010012514304+48717+011533FM-16+0365ETSI V0200501N003610045019N0050001N1-00301-00501999999ADDGA1041+003901999GA2071+004501999GF107991999999999999999999MA1102611999999MW1101REMMET081SPECI ETSI 251430Z 05007KT 5000 BR SCT013 BKN015 M03/M05 Q1026 WHT WHT TEMPO YLO;
0173108600999992010012515204+48717+011533FM-15+0365ETSI V0200301N002610048019N0045001N1-00301-00501999999ADDGA1021+003601999GA2081+004801999GF108991999999999999999999MA1102711999999MW1771REMMET082METAR ETSI 251520Z 03005KT 4500 -SG FEW012 OVC016 M03/M05 Q1027 GRN WHT TEMPO YLO;
0265108600999992010012516004+48717+011533SY-MT+0365ETSI V0200301N002010048019N0045001N1-00301-00431103011ADDAY171999AY221999GA1081+004801999GF108991081051004501999999MA1102711098381MD1210131+9999MW1771REMSYN082AAXX  25161 10860 41445 80302 11030 21043 39838 40301 52013 77772 885// 333 88616;MET072SPECI ETSI 251600Z 04005KT 4500 BR OVC016 M03/M05 Q1027 GRN FCST CANCEL;
0135108600999992010012516204+48717+011533FM-15+0365ETSI V0200401N002610045019N0045001N1-00301-00401999999ADDGA1081+004501999GF108991999999999999999999MA1102711999999MW1101REMMET060METAR ETSI 251620Z 04005KT 4500 BR OVC015 M03/M04 Q1027 GRN;
0187108600999992010012517004+48717+011533FM-12+0365ETSI V0200601N003010045019N0040001N1-00311-00481103051ADDAY121999AY221999GA1081+004501061GF108991081051004501999999MA1999999098421MD1210131+9999MW1201REMSYN082AAXX  25171 10860 41440 80603 11031 21048 39842 40305 52013 72022 885// 333 88615;
0145108600999992010012517204+48717+011533FM-15+0365ETSI V0200601N002610045019N0040001N1-00301-00401999999ADDGA1081+004501999GF108991999999999999999999MA1102811999999MW1101MW2711REMMET064METAR ETSI 251720Z 06005KT 4000 -SN BR OVC015 M03/M04 Q1028 GRN;
0145108600999992010012518204+48717+011533FM-15+0365ETSI V0200501N001510042019N0040001N1-00301-00501999999ADDGA1081+004201999GF108991999999999999999999MA1102811999999MW1101MW2711REMMET064METAR ETSI 251820Z 05003KT 4000 -SN BR OVC014 M03/M05 Q1028 GRN;
0154108600999992010012604204+48717+011533FM-15+0365ETSI V0200301N002110003019N0015001N1-00401-00501999999ADDED199U19009GA1091+000301999GF109991999999000251999999MA1102911999999MW1731REMMET068METAR ETSI 260420Z 03004KT 1500 R25/1900 SN VV001 M04/M05 Q1029 RED;
0156108600999992010012604534+48717+011533FM-16+0365ETSI V0200401N002610015019N0016001N1-00401-00401999999ADDED199U14009GA1081+001501999GF108991999999999999999999MA1102911999999MW1731REMMET070SPECI ETSI 260453Z 04005KT 1600 R25/1400D SN OVC005 M04/M04 Q1029 YLO;
0179108600999992010012605004+48717+011533FM-12+0365ETSI V0200401N003010015019N0016001N1-00421-00421103211ADDAY171999GA1081+001501061GF108991081051001501999999MA1999999098551MD1510001+9999MW1731REMSYN082AAXX  26051 10860 41216 80403 11042 21042 39855 40321 55000 7737/ 885// 333 88605;
0193108600999992010012605204+48717+011533FM-15+0365ETSI V0200301N002610015019N0016001N1-00501-00501999999ADDED199U23009GA1071+001501999GA2081+005701999GF108991999999999999999999MA1102911999999MW1731REMMET091METAR ETSI 260520Z 03005KT 1600 R25/2300N SN BKN005 OVC019 M05/M05 Q1029 YLO YLO TEMPO AMB;
0210108600999992010012606204+48717+011533FM-15+0365ETSI V0200401N002610042019N0020001N1-00501-00501999999ADDGA1021+001501999GA2071+004201999GA3081+006001999GF108991999999999999999999MA1102911999999MW1101MW2711REMMET097METAR ETSI 260620Z 04005KT 2000 -SN BR FEW005 BKN014 OVC020 M05/M05 Q1029 RESN YLO YLO TEMPO AMB;
0182108600999992010012606534+48717+011533FM-16+0365ETSI V0200301N002610039019N0030001N1-00501-00601999999ADDGA1021+001801999GA2071+003901999GF107991999999999999999999MA1103011999999MW1101MW2711REMMET085SPECI ETSI 260653Z 03005KT 3000 -SN BR FEW006 BKN013 M05/M06 Q1030 YLO YLO TEMPO AMB;
0193108600999992010012607004+48717+011533FM-12+0365ETSI V0200301N00301001201CN0030001N1-00541-00631103321ADDAY171999AY271999GA1011+001801071GF108991071051001501999999MA1999999098641MD1210121+9999MW1711REMSYN088AAXX  26071 10860 41230 80303 11054 21063 39864 40332 52012 77177 875// 333 81706 87613;
0205108600999992010012607204+48717+011533FM-15+0365ETSI V0200301N002610045019N0050001N1-00501-00501999999ADDGA1021+001801999GA2071+004501999GA3081+012001999GF108991999999999999999999MA1103011999999MW1101MW2711REMMET092METAR ETSI 260720Z 03005KT 5000 -SN BR FEW006 BKN015 OVC040 M05/M05 Q1030 WHT GRN TEMPO YLO;
0215108600999992010012608004+48717+011533FM-12+0365ETSI V0200201N003010045019N0060001N1-00551-00671103381ADDAY171999AY271999GA1031+003601071GA2051+004501061GF108991081051004501999999MA1999999098691MD1210141+9999MW1711REMSYN094AAXX  26081 10860 41456 80203 11055 21067 39869 40338 52014 77177 885// 333 83712 85615 88635;
0163108600999992010012608144+48717+011533FM-16+0365ETSI V0200201N003110036019N0060001N1-00501-00701999999ADDGA1071+003601999GA2081+010501999GF108991999999999999999999MA1103011999999REMMET078SPECI ETSI 260814Z 02006KT 6000 BKN012 OVC035 M05/M07 Q1030 GRN GRN TEMPO YLO;
0140108600999992010012608204+48717+011533FM-15+0365ETSI V0200201N003110033019N0060001N1-00501-00601999999ADDGA1071+003301999GF107991999999999999999999MA1103011999999REMMET071METAR ETSI 260820Z 02006KT 6000 BKN011 M05/M06 Q1030 GRN GRN TEMPO YLO;
0163108600999992010012608404+48717+011533FM-16+0365ETSI V0200201N003110033019N0060001N1-00501-00701999999ADDGA1071+003301999GA2071+004501999GF107991999999999999999999MA1103121999999REMMET078SPECI ETSI 260840Z 02006KT 6000 BKN011 BKN015 M05/M07 Q1031 GRN GRN TEMPO WHT;
0186108600999992010012609204+48717+011533FM-15+0365ETSI V0200201N003110042019N0070001N1-00501-00701999999ADDGA1021+003301999GA2071+004201999GA3081+007501999GF108991999999999999999999MA1103121999999REMMET085METAR ETSI 260920Z 02006KT 7000 FEW011 BKN014 OVC025 M05/M07 Q1031 GRN GRN TEMPO WHT;
0186108600999992010012609314+48717+011533FM-16+0365ETSI V0200201N003610045019N0070001N1-00501-00701999999ADDGA1021+003301999GA2071+004501999GA3081+009001999GF108991999999999999999999MA1103121999999REMMET085SPECI ETSI 260931Z 02007KT 7000 FEW011 BKN015 OVC030 M05/M07 Q1031 WHT GRN TEMPO WHT;
0215108600999992010012610004+48717+011533FM-12+0365ETSI V0200301N004010045019N0070001N1-00531-00701103421ADDAY121999AY221999GA1021+003301071GA2051+004501061GF108991081051004501999999MA1999999098741MD1010101+9999MW1101REMSYN094AAXX  26101 10860 41457 80304 11053 21070 39874 40342 50010 71022 885// 333 82711 85615 88630;
0186108600999992010012610204+48717+011533FM-15+0365ETSI V0200301N002610045019N0060001N1-00501-00601999999ADDGA1021+003301999GA2071+004501999GA3081+009001999GF108991999999999999999999MA1103121999999REMMET085METAR ETSI 261020Z 03005KT 6000 FEW011 BKN015 OVC030 M05/M06 Q1031 WHT GRN TEMPO WHT;
0187108600999992010012611004+48717+011533FM-12+0365ETSI V0200401N004010045019N0060001N1-00501-00711103421ADDAY121999AY221999GA1081+004501061GF108991081051004501999999MA1999999098741MD1110051+9999MW1771REMSYN082AAXX  26111 10860 41456 80404 11050 21071 39874 40342 51005 77722 885// 333 88615;
0150108600999992010012611204+48717+011533FM-15+0365ETSI V0200401N003610045019N0060001N1-00501-00701999999ADDGA1081+004501999GF108991999999999999999999MA1103121999999MW1771REMMET075METAR ETSI 261120Z 04007KT 6000 -SG OVC015 M05/M07 Q1031 WHT GRN TEMPO WHT;
0150108600999992010012612204+48717+011533FM-15+0365ETSI V0200401N003610045019N0060001N1-00501-00701999999ADDGA1081+004501999GF108991999999999999999999MA1103121999999MW1771REMMET075METAR ETSI 261220Z 04007KT 6000 -SG OVC015 M05/M07 Q1031 WHT GRN TEMPO WHT;
0187108600999992010012613004+48717+011533FM-12+0365ETSI V0200401N005010045019N0060001N1-00501-00691103391ADDAY171999AY271999GA1081+004501061GF108991081051004501999999MA1999999098711MD1810031+9999MW1771REMSYN082AAXX  26131 10860 41456 80405 11050 21069 39871 40339 58003 77777 885// 333 88615;
0150108600999992010012613204+48717+011533FM-15+0365ETSI V0200401N003610045019N0060001N1-00501-00701999999ADDGA1081+004501999GF108991999999999999999999MA1103011999999MW1711REMMET075METAR ETSI 261320Z 04007KT 6000 -SN OVC015 M05/M07 Q1030 WHT GRN TEMPO WHT;
