0121109470999992009010110204+47983+010233FM-15+0629EDJA V0202201N005110045019N0112651N1+00101-00101999999ADDGA1071+004501999GF107991999999999999999999MA1102511999999REMMET052METAR EDJA 011020Z 22010KT 9999 BKN015 01/M01 Q1025;
0121109470999992009010110504+47983+010233FM-15+0629EDJA V0202401N004110048019N0112651N1+00101-00101999999ADDGA1071+004801999GF107991999999999999999999MA1102511999999REMMET052METAR EDJA 011050Z 24008KT 9999 BKN016 01/M01 Q1025;
0121109470999992009010111204+47983+010233FM-15+0629EDJA V0202301N005712200019N0112651N1+00101-00101999999ADDGA1041+005101999GF104991999999999999999999MA1102511999999REMMET052METAR EDJA 011120Z 23011KT 9999 SCT017 01/M01 Q1025;
0121109470999992009010111504+47983+010233FM-15+0629EDJA V0202201N005112200019N0112651N1+00101+00001999999ADDGA1021+006601999GF102991999999999999999999MA1102401999999REMMET052METAR EDJA 011150Z 22010KT 9999 FEW022 01/M00 Q1024;
0121109470999992009010112204+47983+010233FM-15+0629EDJA V0202201N004112200019N0112651N1+00101-00101999999ADDGA1021+007501999GF102991999999999999999999MA1102401999999REMMET052METAR EDJA 011220Z 22008KT 9999 FEW025 01/M01 Q1024;
0121109470999992009010112504+47983+010233FM-15+0629EDJA V0202301N003112200019N0112651N1+00101-00101999999ADDGA1021+010501999GF102991999999999999999999MA1102401999999REMMET052METAR EDJA 011250Z 23006KT 9999 FEW035 01/M01 Q1024;
0121109470999992009010113204+47983+010233FM-15+0629EDJA V0202301N003112200019N0112651N1+00201-00101999999ADDGA1021+010501999GF102991999999999999999999MA1102401999999REMMET052METAR EDJA 011320Z 23006KT 9999 FEW035 02/M01 Q1024;
0073109470999992009010113504+47983+010233FM-15+0629EDJA V0202201N00311220001CN0099001N1+00101-00101999999ADDMA1102401999999REMMET046METAR EDJA 011350Z 22006KT CAVOK 01/M01 Q1024;
0073109470999992009010114204+47983+010233FM-15+0629EDJA V0202301N00261220001CN0099001N1+00101-00101999999ADDMA1102401999999REMMET046METAR EDJA 011420Z 23005KT CAVOK 01/M01 Q1024;
0073109470999992009010114504+47983+010233FM-15+0629EDJA V0202201N00211220001CN0099001N1+00101-00101999999ADDMA1102401999999REMMET046METAR EDJA 011450Z 22004KT CAVOK 01/M01 Q1024;
0122109470999992009010115204+47983+010233FM-15+0629EDJA V0202101N003112200019N0080001N1-00101-00201999999ADDGA1041+009001999GF104991999999999999999999MA1102401999999REMMET053METAR EDJA 011520Z 21006KT 8000 SCT030 M01/M02 Q1024;
0122109470999992009010115504+47983+010233FM-15+0629EDJA V0202001N002112200019N0070001N1-00101-00201999999ADDGA1041+007201999GF104991999999999999999999MA1102401999999REMMET053METAR EDJA 011550Z 20004KT 7000 SCT024 M01/M02 Q1024;
0122109470999992009010116204+47983+010233FM-15+0629EDJA V0202001N002112200019N0070001N1-00201-00201999999ADDGF100991999999999999999999MA1102401999999REMMET050METAR EDJA 011620Z 20004KT 7000 SKC M02/M02 Q1024;EQDQ01    003SCCGA1
0122109470999992009010116504+47983+010233FM-15+0629EDJA V0201901N001512200019N0060001N1-00201-00201999999ADDGF100991999999999999999999MA1102401999999REMMET050METAR EDJA 011650Z 19003KT 6000 SKC M02/M02 Q1024;EQDQ01    003SCCGA1
0131109470999992009010117204+47983+010233FM-15+0629EDJA V0202101N002110024019N0060001N1-00201-00301999999ADDGA1071+002401999GF107991999999999999999999MA1102401999999MW1101REMMET056METAR EDJA 011720Z 21004KT 6000 BR BKN008 M02/M03 Q1024;
0131109470999992009010117504+47983+010233FM-15+0629EDJA V0201901N002110024019N0050001N1-00301-00301999999ADDGA1071+002401999GF107991999999999999999999MA1102401999999MW1101REMMET056METAR EDJA 011750Z 19004KT 5000 BR BKN008 M03/M03 Q1024;
0082109470999992009010118204+47983+010233FM-15+0629EDJA V0201701N002612200019N0050001N1-00201-00201999999ADDMA1102401999999MW1101REMMET049METAR EDJA 011820Z 17005KT 5000 BR M02/M02 Q1024;
0131109470999992009010118504+47983+010233FM-15+0629EDJA V0202001N001510024019N0060001N1-00201-00201999999ADDGA1071+002401999GF107991999999999999999999MA1102401999999MW1101REMMET056METAR EDJA 011850Z 20003KT 6000 BR BKN008 M02/M02 Q1024;
0131109470999992009010119204+47983+010233FM-15+0629EDJA V0209999V001010024019N0060001N1-00201-00201999999ADDGA1071+002401999GF107991999999999999999999MA1102401999999MW1101REMMET056METAR EDJA 011920Z VRB02KT 6000 BR BKN008 M02/M02 Q1024;
0131109470999992009010119504+47983+010233FM-15+0629EDJA V0203401N001010021019N0060001N1-00201-00301999999ADDGA1071+002101999GF107991999999999999999999MA1102401999999MW1101REMMET056METAR EDJA 011950Z 34002KT 6000 BR BKN007 M02/M03 Q1024;
0131109470999992009010120204+47983+010233FM-15+0629EDJA V0209999V000510009019N0060001N1-00201-00201999999ADDGA1071+000901999GF107991999999999999999999MA1102401999999MW1101REMMET056METAR EDJA 012020Z VRB01KT 6000 BR BKN003 M02/M02 Q1024;
0154109470999992009010204504+47983+010233FM-15+0629EDJA V0209999V001510030019N0045001N1-00101-00201999999ADDGA1041+001501999GA2071+003001999GF107991999999999999999999MA1102101999999MW1101REMMET063METAR EDJA 020450Z VRB03KT 4500 BR SCT005 BKN010 M01/M02 Q1021;
0154109470999992009010205204+47983+010233FM-15+0629EDJA V0200101N002610012019N0040001N1-00101-00201999999ADDGA1071+001201999GA2071+002701999GF107991999999999999999999MA1102101999999MW1101REMMET063METAR EDJA 020520Z 01005KT 4000 BR BKN004 BKN009 M01/M02 Q1021;
0131109470999992009010206204+47983+010233FM-15+0629EDJA V0200501N003110015019N0032001N1-00201-00201999999ADDGA1081+001501999GF108991999999999999999999MA1102101999999MW1101REMMET056METAR EDJA 020620Z 05006KT 3200 BR OVC005 M02/M02 Q1021;
0131109470999992009010206504+47983+010233FM-15+0629EDJA V0200601N002610012019N0030001N1-00201-00201999999ADDGA1081+001201999GF108991999999999999999999MA1102101999999MW1101REMMET056METAR EDJA 020650Z 06005KT 3000 BR OVC004 M02/M02 Q1021;
0131109470999992009010207204+47983+010233FM-15+0629EDJA V0200501N003110012019N0027001N1-00201-00201999999ADDGA1081+001201999GF108991999999999999999999MA1102101999999MW1101REMMET056METAR EDJA 020720Z 05006KT 2700 BR OVC004 M02/M02 Q1021;
0131109470999992009010208204+47983+010233FM-15+0629EDJA V0200401N003610006019N0018001N1-00301-00301999999ADDGA1081+000601999GF108991999999999999999999MA1102101999999MW1101REMMET056METAR EDJA 020820Z 04007KT 1800 BR OVC002 M03/M03 Q1021;
0131109470999992009010208504+47983+010233FM-15+0629EDJA V0200401N004110009019N0017001N1-00301-00301999999ADDGA1081+000901999GF108991999999999999999999MA1102101999999MW1101REMMET056METAR EDJA 020850Z 04008KT 1700 BR OVC003 M03/M03 Q1021;
0131109470999992009010209204+47983+010233FM-15+0629EDJA V0200401N004110009019N0015001N1-00301-00301999999ADDGA1081+000901999GF108991999999999999999999MA1102201999999MW1101REMMET056METAR EDJA 020920Z 04008KT 1500 BR OVC003 M03/M03 Q1022;
0131109470999992009010209504+47983+010233FM-15+0629EDJA V0200301N004610009019N0015001N1-00301-00401999999ADDGA1081+000901999GF108991999999999999999999MA1102201999999MW1101REMMET056METAR EDJA 020950Z 03009KT 1500 BR OVC003 M03/M04 Q1022;
0131109470999992009010210204+47983+010233FM-15+0629EDJA V0200301N005110009019N0015001N1-00401-00401999999ADDGA1081+000901999GF108991999999999999999999MA1102201999999MW1101REMMET056METAR EDJA 021020Z 03010KT 1500 BR OVC003 M04/M04 Q1022;
0143109470999992009010210504+47983+010233FM-15+0629EDJA V0200401N005110009019N0017001N1-00401-00401999999ADDGA1081+000901999GF108991999999999999999999MA1102201999999MW1101MW2561REMMET062METAR EDJA 021050Z 04010KT 1700 -FZDZ BR OVC003 M04/M04 Q1022;
0172109470999992009010211204+47983+010233FM-15+0629EDJA V0200401N005110009019N0014001N1-00401-00401999999ADDED199U15009GA1081+000901999GF108991999999999999999999MA1102201999999MW1101MW2561REMMET080METAR EDJA 021120Z 04010KT 1400 R06/P1500N -FZDZ BR OVC003 M04/M04 Q1022 REFZDZ;
0154109470999992009010211504+47983+010233FM-15+0629EDJA V0200401N005710018019N0049001N1-00401-00501999999ADDGA1071+001801999GA2071+003001999GF107991999999999999999999MA1102101999999MW1101REMMET063METAR EDJA 021150Z 04011KT 4900 BR BKN006 BKN010 M04/M05 Q1021;
0154109470999992009010212204+47983+010233FM-15+0629EDJA V0200401N004610015019N0036001N1-00401-00501999999ADDGA1071+001501999GA2071+003301999GF107991999999999999999999MA1102101999999MW1101REMMET063METAR EDJA 021220Z 04009KT 3600 BR BKN005 BKN011 M04/M05 Q1021;
0154109470999992009010212504+47983+010233FM-15+0629EDJA V0200401N004610015019N0040001N1-00401-00501999999ADDGA1071+001501999GA2071+003001999GF107991999999999999999999MA1102101999999MW1101REMMET063METAR EDJA 021250Z 04009KT 4000 BR BKN005 BKN010 M04/M05 Q1021;
0139109470999992009010213504+47983+010233FM-15+0629EDJA V0200801N002110018019N0042001N1-00401-00501999999ADDGA1071+001801999GF107991999999999999999999MA1102201999999MW1101REMMET064METAR EDJA 021350Z 08004KT 040V120 4200 BR BKN006 M04/M05 Q1022;
0122109470999992009010214204+47983+010233FM-15+0629EDJA V0200601N003110021019N0049001N1-00401-00501999999ADDGA1071+002101999GF107991999999999999999999MA1102201999999REMMET053METAR EDJA 021420Z 06006KT 4900 BKN007 M04/M05 Q1022;
0122109470999992009010214504+47983+010233FM-15+0629EDJA V0200601N004110030019N0090001N1-00401-00501999999ADDGA1071+003001999GF107991999999999999999999MA1102201999999REMMET053METAR EDJA 021450Z 06008KT 9000 BKN010 M04/M05 Q1022;
0122109470999992009010215204+47983+010233FM-15+0629EDJA V0200501N004610033019N0080001N1-00401-00501999999ADDGA1071+003301999GF107991999999999999999999MA1102201999999REMMET053METAR EDJA 021520Z 05009KT 8000 BKN011 M04/M05 Q1022;
0122109470999992009010215504+47983+010233FM-15+0629EDJA V0200501N004110036019N0112651N1-00401-00601999999ADDGA1071+003601999GF107991999999999999999999MA1102201999999REMMET053METAR EDJA 021550Z 05008KT 9999 BKN012 M04/M06 Q1022;
0122109470999992009010216204+47983+010233FM-15+0629EDJA V0200601N004110039019N0112651N1-00401-00601999999ADDGA1071+003901999GF107991999999999999999999MA1102201999999REMMET053METAR EDJA 021620Z 06008KT 9999 BKN013 M04/M06 Q1022;
0122109470999992009010216504+47983+010233FM-15+0629EDJA V0200401N005110039019N0112651N1-00501-00701999999ADDGA1071+003901999GF107991999999999999999999MA1102201999999REMMET053METAR EDJA 021650Z 04010KT 9999 BKN013 M05/M07 Q1022;
0122109470999992009010217204+47983+010233FM-15+0629EDJA V0200501N005710048019N0112651N1-00501-00701999999ADDGA1071+004801999GF107991999999999999999999MA1102301999999REMMET053METAR EDJA 021720Z 05011KT 9999 BKN016 M05/M07 Q1023;
0122109470999992009010217504+47983+010233FM-15+0629EDJA V0200601N005710066019N0112651N1-00501-00801999999ADDGA1071+006601999GF107991999999999999999999MA1102301999999REMMET053METAR EDJA 021750Z 06011KT 9999 BKN022 M05/M08 Q1023;
0122109470999992009010218204+47983+010233FM-15+0629EDJA V0200601N004610066019N0112651N1-00501-00801999999ADDGA1071+006601999GF107991999999999999999999MA1102301999999REMMET053METAR EDJA 021820Z 06009KT 9999 BKN022 M05/M08 Q1023;
0122109470999992009010218504+47983+010233FM-15+0629EDJA V0200601N005110066019N0112651N1-00501-00801999999ADDGA1071+006601999GF107991999999999999999999MA1102301999999REMMET053METAR EDJA 021850Z 06010KT 9999 BKN022 M05/M08 Q1023;
0122109470999992009010219204+47983+010233FM-15+0629EDJA V0200601N004610066019N0112651N1-00501-00701999999ADDGA1071+006601999GF107991999999999999999999MA1102301999999REMMET053METAR EDJA 021920Z 06009KT 9999 BKN022 M05/M07 Q1023;
0122109470999992009010219504+47983+010233FM-15+0629EDJA V0200601N004110066019N0112651N1-00501-00701999999ADDGA1071+006601999GF107991999999999999999999MA1102301999999REMMET053METAR EDJA 021950Z 06008KT 9999 BKN022 M05/M07 Q1023;
0122109470999992009010220204+47983+010233FM-15+0629EDJA V0200601N004610066019N0112651N1-00601-00801999999ADDGA1071+006601999GF107991999999999999999999MA1102301999999REMMET053METAR EDJA 022020Z 06009KT 9999 BKN022 M06/M08 Q1023;
0122109470999992009010220504+47983+010233FM-15+0629EDJA V0200601N003610066019N0112651N1-00601-00801999999ADDGA1071+006601999GF107991999999999999999999MA1102401999999REMMET053METAR EDJA 022050Z 06007KT 9999 BKN022 M06/M08 Q1024;
0122109470999992009010304504+47983+010233FM-15+0629EDJA V0200501N003612200019N0090001N1-00801-00901999999ADDGA1041+003901999GF104991999999999999999999MA1102201999999REMMET053METAR EDJA 030450Z 05007KT 9000 SCT013 M08/M09 Q1022;
0122109470999992009010305204+47983+010233FM-15+0629EDJA V0200601N004110036019N0080001N1-00801-00901999999ADDGA1071+003601999GF107991999999999999999999MA1102201999999REMMET053METAR EDJA 030520Z 06008KT 8000 BKN012 M08/M09 Q1022;
0122109470999992009010305504+47983+010233FM-15+0629EDJA V0200701N004110030019N0080001N1-00701-00901999999ADDGA1071+003001999GF107991999999999999999999MA1102201999999REMMET053METAR EDJA 030550Z 07008KT 8000 BKN010 M07/M09 Q1022;
0122109470999992009010306204+47983+010233FM-15+0629EDJA V0200701N004110030019N0080001N1-00701-00901999999ADDGA1071+003001999GF107991999999999999999999MA1102201999999REMMET053METAR EDJA 030620Z 07008KT 8000 BKN010 M07/M09 Q1022;
0122109470999992009010306504+47983+010233FM-15+0629EDJA V0200901N003610030019N0090001N1-00701-00801999999ADDGA1071+003001999GF107991999999999999999999MA1102201999999REMMET053METAR EDJA 030650Z 09007KT 9000 BKN010 M07/M08 Q1022;
0122109470999992009010307204+47983+010233FM-15+0629EDJA V0200701N004110030019N0080001N1-00701-00801999999ADDGA1071+003001999GF107991999999999999999999MA1102201999999REMMET053METAR EDJA 030720Z 07008KT 8000 BKN010 M07/M08 Q1022;
0122109470999992009010307504+47983+010233FM-15+0629EDJA V0200601N003110030019N0090001N1-00701-00801999999ADDGA1071+003001999GF107991999999999999999999MA1102201999999REMMET053METAR EDJA 030750Z 06006KT 9000 BKN010 M07/M08 Q1022;
0130109470999992009010308204+47983+010233FM-15+0629EDJA V0200701N004110030019N0080001N1-00601-00801999999ADDGA1071+003001999GF107991999999999999999999MA1102201999999REMMET061METAR EDJA 030820Z 07008KT 040V110 8000 BKN010 M06/M08 Q1022;
0130109470999992009010308504+47983+010233FM-15+0629EDJA V0200701N004110030019N0090001N1-00601-00801999999ADDGA1071+003001999GF107991999999999999999999MA1102201999999REMMET061METAR EDJA 030850Z 07008KT 040V110 9000 BKN010 M06/M08 Q1022;
0122109470999992009010309204+47983+010233FM-15+0629EDJA V0200501N004612200019N0090001N1-00701-00801999999ADDGA1041+003001999GF104991999999999999999999MA1102201999999REMMET053METAR EDJA 030920Z 05009KT 9000 SCT010 M07/M08 Q1022;
0145109470999992009010309504+47983+010233FM-15+0629EDJA V0200601N004112200019N0080001N1-00601-00701999999ADDGA1041+002401999GA2041+003601999GF104991999999999999999999MA1102101999999REMMET060METAR EDJA 030950Z 06008KT 8000 SCT008 SCT012 M06/M07 Q1021;
0153109470999992009010310204+47983+010233FM-15+0629EDJA V0200701N003612200019N0080001N1-00601-00801999999ADDGA1041+002101999GA2041+003301999GF104991999999999999999999MA1102101999999REMMET068METAR EDJA 031020Z 07007KT 040V120 8000 SCT007 SCT011 M06/M08 Q1021;
0122109470999992009010310504+47983+010233FM-15+0629EDJA V0200601N004612200019N0070001N1-00601-00701999999ADDGA1041+002101999GF104991999999999999999999MA1102101999999REMMET053METAR EDJA 031050Z 06009KT 7000 SCT007 M06/M07 Q1021;
0130109470999992009010311204+47983+010233FM-15+0629EDJA V0200701N003110024019N0060001N1-00601-00701999999ADDGA1071+002401999GF107991999999999999999999MA1102101999999REMMET061METAR EDJA 031120Z 07006KT 030V110 6000 BKN008 M06/M07 Q1021;
0122109470999992009010311504+47983+010233FM-15+0629EDJA V0200701N004110021019N0060001N1-00601-00701999999ADDGA1071+002101999GF107991999999999999999999MA1102101999999REMMET053METAR EDJA 031150Z 07008KT 6000 BKN007 M06/M07 Q1021;
0122109470999992009010312204+47983+010233FM-15+0629EDJA V0200501N004610021019N0060001N1-00601-00701999999ADDGA1071+002101999GF107991999999999999999999MA1102001999999REMMET053METAR EDJA 031220Z 05009KT 6000 BKN007 M06/M07 Q1020;
0130109470999992009010312504+47983+010233FM-15+0629EDJA V0200701N004110027019N0060001N1-00601-00701999999ADDGA1071+002701999GF107991999999999999999999MA1102001999999REMMET061METAR EDJA 031250Z 07008KT 040V100 6000 BKN009 M06/M07 Q1020;
0122109470999992009010313204+47983+010233FM-15+0629EDJA V0200701N003610033019N0060001N1-00501-00701999999ADDGA1071+003301999GF107991999999999999999999MA1102001999999REMMET053METAR EDJA 031320Z 07007KT 6000 BKN011 M05/M07 Q1020;
0122109470999992009010313504+47983+010233FM-15+0629EDJA V0200601N003110036019N0070001N1-00501-00701999999ADDGA1071+003601999GF107991999999999999999999MA1102001999999REMMET053METAR EDJA 031350Z 06006KT 7000 BKN012 M05/M07 Q1020;
0130109470999992009010314204+47983+010233FM-15+0629EDJA V0200801N002110036019N0060001N1-00501-00701999999ADDGA1071+003601999GF107991999999999999999999MA1102001999999REMMET061METAR EDJA 031420Z 08004KT 040V120 6000 BKN012 M05/M07 Q1020;
0122109470999992009010314504+47983+010233FM-15+0629EDJA V0200901N002110030019N0060001N1-00501-00701999999ADDGA1071+003001999GF107991999999999999999999MA1102001999999REMMET053METAR EDJA 031450Z 09004KT 6000 BKN010 M05/M07 Q1020;
0122109470999992009010315204+47983+010233FM-15+0629EDJA V0201001N003110036019N0060001N1-00501-00701999999ADDGA1071+003601999GF107991999999999999999999MA1102001999999REMMET053METAR EDJA 031520Z 10006KT 6000 BKN012 M05/M07 Q1020;
0122109470999992009010315504+47983+010233FM-15+0629EDJA V0200901N002610030019N0060001N1-00501-00701999999ADDGA1071+003001999GF107991999999999999999999MA1102001999999REMMET053METAR EDJA 031550Z 09005KT 6000 BKN010 M05/M07 Q1020;
0130109470999992009010316204+47983+010233FM-15+0629EDJA V0200901N002610030019N0060001N1-00501-00701999999ADDGA1071+003001999GF107991999999999999999999MA1102001999999REMMET061METAR EDJA 031620Z 09005KT 060V130 6000 BKN010 M05/M07 Q1020;
0130109470999992009010316504+47983+010233FM-15+0629EDJA V0200801N002110027019N0050001N1-00601-00701999999ADDGA1071+002701999GF107991999999999999999999MA1102001999999REMMET061METAR EDJA 031650Z 08004KT 040V150 5000 BKN009 M06/M07 Q1020;
0130109470999992009010317204+47983+010233FM-15+0629EDJA V0200801N002110030019N0060001N1-00601-00801999999ADDGA1071+003001999GF107991999999999999999999MA1102001999999REMMET061METAR EDJA 031720Z 08004KT 050V130 6000 BKN010 M06/M08 Q1020;
0130109470999992009010317504+47983+010233FM-15+0629EDJA V0200901N002110030019N0060001N1-00601-00801999999ADDGA1071+003001999GF107991999999999999999999MA1102001999999REMMET061METAR EDJA 031750Z 09004KT 040V140 6000 BKN010 M06/M08 Q1020;
0122109470999992009010318204+47983+010233FM-15+0629EDJA V0209999V001010036019N0060001N1-00601-00801999999ADDGA1071+003601999GF107991999999999999999999MA1102001999999REMMET053METAR EDJA 031820Z VRB02KT 6000 BKN012 M06/M08 Q1020;
0122109470999992009010318504+47983+010233FM-15+0629EDJA V0209999V001010036019N0060001N1-00601-00801999999ADDGA1071+003601999GF107991999999999999999999MA1102101999999REMMET053METAR EDJA 031850Z VRB02KT 6000 BKN012 M06/M08 Q1021;
0122109470999992009010319204+47983+010233FM-15+0629EDJA V0209999V001010033019N0060001N1-00601-00801999999ADDGA1071+003301999GF107991999999999999999999MA1102101999999REMMET053METAR EDJA 031920Z VRB02KT 6000 BKN011 M06/M08 Q1021;
0122109470999992009010319504+47983+010233FM-15+0629EDJA V0209999V001010036019N0070001N1-00601-00801999999ADDGA1071+003601999GF107991999999999999999999MA1102101999999REMMET053METAR EDJA 031950Z VRB02KT 7000 BKN012 M06/M08 Q1021;
0122109470999992009010320204+47983+010233FM-15+0629EDJA V0209999V001010036019N0060001N1-00601-00801999999ADDGA1071+003601999GF107991999999999999999999MA1102101999999REMMET053METAR EDJA 032020Z VRB02KT 6000 BKN012 M06/M08 Q1021;
0122109470999992009010320504+47983+010233FM-15+0629EDJA V0209999V000510036019N0070001N1-00601-00801999999ADDGA1071+003601999GF107991999999999999999999MA1102101999999REMMET053METAR EDJA 032050Z VRB01KT 7000 BKN012 M06/M08 Q1021;
0130109470999992009010404204+47983+010233FM-15+0629EDJA V0202201N002110030019N0090001N1-00701-00801999999ADDGA1071+003001999GF107991999999999999999999MA1101901999999REMMET061METAR EDJA 040420Z 22004KT 170V250 9000 BKN010 M07/M08 Q1019;
0122109470999992009010404504+47983+010233FM-15+0629EDJA V0209999V001510030019N0090001N1-00701-00801999999ADDGA1071+003001999GF107991999999999999999999MA1101901999999REMMET053METAR EDJA 040450Z VRB03KT 9000 BKN010 M07/M08 Q1019;
0122109470999992009010405204+47983+010233FM-15+0629EDJA V0202201N002110030019N0070001N1-00701-00801999999ADDGA1071+003001999GF107991999999999999999999MA1101901999999REMMET053METAR EDJA 040520Z 22004KT 7000 BKN010 M07/M08 Q1019;
0122109470999992009010405504+47983+010233FM-15+0629EDJA V0202401N001510030019N0080001N1-00701-00901999999ADDGA1071+003001999GF107991999999999999999999MA1101901999999REMMET053METAR EDJA 040550Z 24003KT 8000 BKN010 M07/M09 Q1019;
0122109470999992009010406204+47983+010233FM-15+0629EDJA V0202601N001010030019N0080001N1-00801-00901999999ADDGA1071+003001999GF107991999999999999999999MA1101901999999REMMET053METAR EDJA 040620Z 26002KT 8000 BKN010 M08/M09 Q1019;
0122109470999992009010406504+47983+010233FM-15+0629EDJA V0202001N000510027019N0060001N1-00701-00801999999ADDGA1071+002701999GF107991999999999999999999MA1101901999999REMMET053METAR EDJA 040650Z 20001KT 6000 BKN009 M07/M08 Q1019;
0122109470999992009010407204+47983+010233FM-15+0629EDJA V0202101N001512200019N0060001N1-00801-00901999999ADDGA1041+003001999GF104991999999999999999999MA1101901999999REMMET053METAR EDJA 040720Z 21003KT 6000 SCT010 M08/M09 Q1019;
0131109470999992009010407504+47983+010233FM-15+0629EDJA V0202201N001512200019N0050001N1-00801-00801999999ADDGA1041+002701999GF104991999999999999999999MA1101901999999MW1101REMMET056METAR EDJA 040750Z 22003KT 5000 BR SCT009 M08/M08 Q1019;
0131109470999992009010408204+47983+010233FM-15+0629EDJA V0209999V000512200019N0050001N1-00601-00801999999ADDGA1041+002701999GF104991999999999999999999MA1101901999999MW1101REMMET056METAR EDJA 040820Z VRB01KT 5000 BR SCT009 M06/M08 Q1019;
0131109470999992009010408504+47983+010233FM-15+0629EDJA V0209999V001010027019N0050001N1-00701-00801999999ADDGA1071+002701999GF107991999999999999999999MA1101901999999MW1101REMMET056METAR EDJA 040850Z VRB02KT 5000 BR BKN009 M07/M08 Q1019;
0122109470999992009010409204+47983+010233FM-15+0629EDJA V0209999V001512200019N0060001N1-00501-00701999999ADDGA1041+002701999GF104991999999999999999999MA1101901999999REMMET053METAR EDJA 040920Z VRB03KT 6000 SCT009 M05/M07 Q1019;
0130109470999992009010409504+47983+010233FM-15+0629EDJA V0202201N002612200019N0060001N1-00501-00701999999ADDGA1041+003001999GF104991999999999999999999MA1101901999999REMMET061METAR EDJA 040950Z 22005KT 180V250 6000 SCT010 M05/M07 Q1019;
0130109470999992009010410204+47983+010233FM-15+0629EDJA V0202201N002612200019N0060001N1-00501-00701999999ADDGA1041+003301999GF104991999999999999999999MA1101901999999REMMET061METAR EDJA 041020Z 22005KT 170V240 6000 SCT011 M05/M07 Q1019;
0122109470999992009010410504+47983+010233FM-15+0629EDJA V0202501N003612200019N0070001N1-00401-00701999999ADDGA1041+003601999GF104991999999999999999999MA1101801999999REMMET053METAR EDJA 041050Z 25007KT 7000 SCT012 M04/M07 Q1018;
0122109470999992009010411204+47983+010233FM-15+0629EDJA V0202401N003612200019N0070001N1-00401-00701999999ADDGA1041+003601999GF104991999999999999999999MA1101801999999REMMET053METAR EDJA 041120Z 24007KT 7000 SCT012 M04/M07 Q1018;
0130109470999992009010411504+47983+010233FM-15+0629EDJA V0202301N003112200019N0070001N1-00401-00701999999ADDGA1041+003601999GF104991999999999999999999MA1101691999999REMMET061METAR EDJA 041150Z 23006KT 180V250 7000 SCT012 M04/M07 Q1017;
0122109470999992009010412204+47983+010233FM-15+0629EDJA V0202601N003112200019N0070001N1-00401-00701999999ADDGA1021+003601999GF102991999999999999999999MA1101691999999REMMET053METAR EDJA 041220Z 26006KT 7000 FEW012 M04/M07 Q1017;
0122109470999992009010412504+47983+010233FM-15+0629EDJA V0202501N003112200019N0070001N1-00301-00701999999ADDGA1021+003601999GF102991999999999999999999MA1101691999999REMMET053METAR EDJA 041250Z 25006KT 7000 FEW012 M03/M07 Q1017;
0130109470999992009010413204+47983+010233FM-15+0629EDJA V0202301N003112200019N0070001N1-00301-00601999999ADDGF100991999999999999999999MA1101591999999REMMET058METAR EDJA 041320Z 23006KT 170V250 7000 NSC M03/M06 Q1016;EQDQ01    003SCCGA1
0130109470999992009010413504+47983+010233FM-15+0629EDJA V0202201N002612200019N0070001N1-00301-00601999999ADDGF100991999999999999999999MA1101591999999REMMET058METAR EDJA 041350Z 22005KT 180V260 7000 NSC M03/M06 Q1016;EQDQ01    003SCCGA1
0130109470999992009010414204+47983+010233FM-15+0629EDJA V0202301N002112200019N0070001N1-00401-00701999999ADDGF100991999999999999999999MA1101591999999REMMET058METAR EDJA 041420Z 23004KT 170V260 7000 NSC M04/M07 Q1016;EQDQ01    003SCCGA1
0122109470999992009010414504+47983+010233FM-15+0629EDJA V0202301N002612200019N0060001N1-00401-00601999999ADDGF100991999999999999999999MA1101591999999REMMET050METAR EDJA 041450Z 23005KT 6000 NSC M04/M06 Q1016;EQDQ01    003SCCGA1
0122109470999992009010415204+47983+010233FM-15+0629EDJA V0202301N002612200019N0060001N1-00401-00701999999ADDGF100991999999999999999999MA1101591999999REMMET050METAR EDJA 041520Z 23005KT 6000 NSC M04/M07 Q1016;EQDQ01    003SCCGA1
0122109470999992009010415504+47983+010233FM-15+0629EDJA V0202601N002612200019N0050001N1-00501-00701999999ADDGF100991999999999999999999MA1101591999999REMMET050METAR EDJA 041550Z 26005KT 5000 NSC M05/M07 Q1016;EQDQ01    003SCCGA1
0131109470999992009010416204+47983+010233FM-15+0629EDJA V0202601N002112200019N0050001N1-00601-00701999999ADDGF100991999999999999999999MA1101591999999MW1101REMMET053METAR EDJA 041620Z 26004KT 5000 BR NSC M06/M07 Q1016;EQDQ01    003SCCGA1
0131109470999992009010416504+47983+010233FM-15+0629EDJA V0202501N003112200019N0050001N1-00601-00701999999ADDGF100991999999999999999999MA1101591999999MW1101REMMET053METAR EDJA 041650Z 25006KT 5000 BR NSC M06/M07 Q1016;EQDQ01    003SCCGA1
0131109470999992009010417204+47983+010233FM-15+0629EDJA V0202401N002112200019N0050001N1-00601-00701999999ADDGF100991999999999999999999MA1101591999999MW1101REMMET053METAR EDJA 041720Z 24004KT 5000 BR NSC M06/M07 Q1016;EQDQ01    003SCCGA1
0131109470999992009010417504+47983+010233FM-15+0629EDJA V0202401N002112200019N0050001N1-00701-00701999999ADDGF100991999999999999999999MA1101591999999MW1101REMMET053METAR EDJA 041750Z 24004KT 5000 BR NSC M07/M07 Q1016;EQDQ01    003SCCGA1
0131109470999992009010418204+47983+010233FM-15+0629EDJA V0202101N001512200019N0050001N1-00701-00801999999ADDGF100991999999999999999999MA1101591999999MW1101REMMET053METAR EDJA 041820Z 21003KT 5000 BR NSC M07/M08 Q1016;EQDQ01    003SCCGA1
0139109470999992009010418504+47983+010233FM-15+0629EDJA V0202201N002612200019N0050001N1-00701-00801999999ADDGF100991999999999999999999MA1101591999999MW1101REMMET061METAR EDJA 041850Z 22005KT 180V250 5000 BR NSC M07/M08 Q1016;EQDQ01    003SCCGA1
0131109470999992009010419204+47983+010233FM-15+0629EDJA V0202301N002612200019N0050001N1-00701-00701999999ADDGF100991999999999999999999MA1101591999999MW1101REMMET053METAR EDJA 041920Z 23005KT 5000 BR NSC M07/M07 Q1016;EQDQ01    003SCCGA1
0131109470999992009010419504+47983+010233FM-15+0629EDJA V0202301N002610018019N0049001N1-00601-00701999999ADDGA1071+001801999GF107991999999999999999999MA1101591999999MW1101REMMET056METAR EDJA 041950Z 23005KT 4900 BR BKN006 M06/M07 Q1016;
0131109470999992009010420204+47983+010233FM-15+0629EDJA V0202401N002610018019N0048001N1-00601-00701999999ADDGA1071+001801999GF107991999999999999999999MA1101591999999MW1101REMMET056METAR EDJA 042020Z 24005KT 4800 BR BKN006 M06/M07 Q1016;
0131109470999992009010420504+47983+010233FM-15+0629EDJA V0202401N004110024019N0050001N1-00601-00701999999ADDGA1071+002401999GF107991999999999999999999MA1101591999999MW1101REMMET056METAR EDJA 042050Z 24008KT 5000 BR BKN008 M06/M07 Q1016;
0162109470999992009010504504+47983+010233FM-15+0629EDJA V0202201N003112200019N0050001N1-00701-00801999999ADDGA1021+002401999GA2041+007501999GF104991999999999999999999MA1101291999999MW1101REMMET071METAR EDJA 050450Z 22006KT 180V250 5000 BR FEW008 SCT025 M07/M08 Q1013;
0122109470999992009010505504+47983+010233FM-15+0629EDJA V0202101N003112200019N0060001N1-00701-00801999999ADDGA1041+007201999GF104991999999999999999999MA1101291999999REMMET053METAR EDJA 050550Z 21006KT 6000 SCT024 M07/M08 Q1013;
0130109470999992009010506204+47983+010233FM-15+0629EDJA V0202101N002112200019N0060001N1-00701-00801999999ADDGA1041+007501999GF104991999999999999999999MA1101291999999REMMET061METAR EDJA 050620Z 21004KT 170V240 6000 SCT025 M07/M08 Q1013;
0131109470999992009010506504+47983+010233FM-15+0629EDJA V0209999V001510075019N0060001N1-00701-00801999999ADDGA1071+007501999GF107991999999999999999999MA1101291999999MW1101REMMET056METAR EDJA 050650Z VRB03KT 6000 BR BKN025 M07/M08 Q1013;
0131109470999992009010507204+47983+010233FM-15+0629EDJA V0202201N003110072019N0060001N1-00701-00801999999ADDGA1071+007201999GF107991999999999999999999MA1101291999999MW1101REMMET056METAR EDJA 050720Z 22006KT 6000 BR BKN024 M07/M08 Q1013;
0131109470999992009010507504+47983+010233FM-15+0629EDJA V0201801N001510066019N0060001N1-00701-00801999999ADDGA1071+006601999GF107991999999999999999999MA1101291999999MW1101REMMET056METAR EDJA 050750Z 18003KT 6000 BR BKN022 M07/M08 Q1013;
0154109470999992009010508204+47983+010233FM-15+0629EDJA V0202201N004612200019N0060001N1-00701-00801999999ADDGA1021+001801999GA2041+007201999GF104991999999999999999999MA1101391999999MW1101REMMET063METAR EDJA 050820Z 22009KT 6000 BR FEW006 SCT024 M07/M08 Q1014;
0131109470999992009010508504+47983+010233FM-15+0629EDJA V0202101N003612200019N0060001N1-00601-00701999999ADDGF100991999999999999999999MA1101391999999MW1101REMMET053METAR EDJA 050850Z 21007KT 6000 BR NSC M06/M07 Q1014;EQDQ01    003SCCGA1
0122109470999992009010509204+47983+010233FM-15+0629EDJA V0202101N003612200019N0060001N1-00601-00801999999ADDGF100991999999999999999999MA1101391999999REMMET050METAR EDJA 050920Z 21007KT 6000 NSC M06/M08 Q1014;EQDQ01    003SCCGA1
0122109470999992009010509504+47983+010233FM-15+0629EDJA V0202301N003112200019N0060001N1-00601-00701999999ADDGF100991999999999999999999MA1101391999999REMMET050METAR EDJA 050950Z 23006KT 6000 NSC M06/M07 Q1014;EQDQ01    003SCCGA1
0130109470999992009010510204+47983+010233FM-15+0629EDJA V0202201N002612200019N0060001N1-00501-00701999999ADDGF100991999999999999999999MA1101391999999REMMET058METAR EDJA 051020Z 22005KT 200V260 6000 NSC M05/M07 Q1014;EQDQ01    003SCCGA1
0130109470999992009010510504+47983+010233FM-15+0629EDJA V0202201N002612200019N0070001N1-00501-00701999999ADDGF100991999999999999999999MA1101291999999REMMET058METAR EDJA 051050Z 22005KT 180V250 7000 NSC M05/M07 Q1013;EQDQ01    003SCCGA1
0145109470999992009010511204+47983+010233FM-15+0629EDJA V0202501N002610036019N0070001N1-00501-00701999999ADDGA1041+002401999GA2071+003601999GF107991999999999999999999MA1101291999999REMMET060METAR EDJA 051120Z 25005KT 7000 SCT008 BKN012 M05/M07 Q1013;
0145109470999992009010511504+47983+010233FM-15+0629EDJA V0209999V001510075019N0080001N1-00501-00701999999ADDGA1041+002401999GA2071+007501999GF107991999999999999999999MA1101291999999REMMET060METAR EDJA 051150Z VRB03KT 8000 SCT008 BKN025 M05/M07 Q1013;
0145109470999992009010512204+47983+010233FM-15+0629EDJA V0209999V001510039019N0080001N1-00501-00701999999ADDGA1021+002401999GA2071+003901999GF107991999999999999999999MA1101291999999REMMET060METAR EDJA 051220Z VRB03KT 8000 FEW008 BKN013 M05/M07 Q1013;
0122109470999992009010512504+47983+010233FM-15+0629EDJA V0209999V000510039019N0080001N1-00401-00701999999ADDGA1071+003901999GF107991999999999999999999MA1101291999999REMMET053METAR EDJA 051250Z VRB01KT 8000 BKN013 M04/M07 Q1013;
0122109470999992009010513204+47983+010233FM-15+0629EDJA V0209999V000510042019N0070001N1-00401-00701999999ADDGA1071+004201999GF107991999999999999999999MA1101291999999REMMET053METAR EDJA 051320Z VRB01KT 7000 BKN014 M04/M07 Q1013;
0122109470999992009010513504+47983+010233FM-15+0629EDJA V0209999V001010039019N0070001N1-00401-00701999999ADDGA1071+003901999GF107991999999999999999999MA1101291999999REMMET053METAR EDJA 051350Z VRB02KT 7000 BKN013 M04/M07 Q1013;
0122109470999992009010514204+47983+010233FM-15+0629EDJA V0202701N001010039019N0070001N1-00401-00701999999ADDGA1071+003901999GF107991999999999999999999MA1101291999999REMMET053METAR EDJA 051420Z 27002KT 7000 BKN013 M04/M07 Q1013;
0122109470999992009010514504+47983+010233FM-15+0629EDJA V0202801N001010051019N0070001N1-00401-00701999999ADDGA1071+005101999GF107991999999999999999999MA1101291999999REMMET053METAR EDJA 051450Z 28002KT 7000 BKN017 M04/M07 Q1013;
0122109470999992009010515204+47983+010233FM-15+0629EDJA V0203201N002110063019N0070001N1-00401-00701999999ADDGA1071+006301999GF107991999999999999999999MA1101291999999REMMET053METAR EDJA 051520Z 32004KT 7000 BKN021 M04/M07 Q1013;
0122109470999992009010515504+47983+010233FM-15+0629EDJA V0203001N001510066019N0070001N1-00401-00701999999ADDGA1071+006601999GF107991999999999999999999MA1101291999999REMMET053METAR EDJA 051550Z 30003KT 7000 BKN022 M04/M07 Q1013;
0122109470999992009010516204+47983+010233FM-15+0629EDJA V0203201N001010066019N0080001N1-00501-00701999999ADDGA1071+006601999GF107991999999999999999999MA1101291999999REMMET053METAR EDJA 051620Z 32002KT 8000 BKN022 M05/M07 Q1013;
0145109470999992009010516504+47983+010233FM-15+0629EDJA V0203201N002110081019N0050001N1-00501-00601999999ADDGA1041+003601999GA2071+008101999GF107991999999999999999999MA1101391999999REMMET060METAR EDJA 051650Z 32004KT 5000 SCT012 BKN027 M05/M06 Q1014;
0145109470999992009010517204+47983+010233FM-15+0629EDJA V0203401N001510081019N0050001N1-00501-00601999999ADDGA1041+003601999GA2071+008101999GF107991999999999999999999MA1101391999999REMMET060METAR EDJA 051720Z 34003KT 5000 SCT012 BKN027 M05/M06 Q1014;
0154109470999992009010517504+47983+010233FM-15+0629EDJA V0200201N001510081019N0050001N1-00501-00601999999ADDGA1041+003301999GA2071+008101999GF107991999999999999999999MA1101391999999MW1101REMMET063METAR EDJA 051750Z 02003KT 5000 BR SCT011 BKN027 M05/M06 Q1014;
0154109470999992009010518204+47983+010233FM-15+0629EDJA V0200101N001510081019N0050001N1-00501-00601999999ADDGA1041+003001999GA2071+008101999GF107991999999999999999999MA1101391999999MW1101REMMET063METAR EDJA 051820Z 01003KT 5000 BR SCT010 BKN027 M05/M06 Q1014;
0137109470999992009010518504+47983+010233FM-15+0629EDJA V0200101N002110027019N0050001N1-00501-00601999999ADDGA1071+002701999GF107991999999999999999999MA1101391999999MW1101REMMET062METAR EDJA 051850Z 01004KT 5000 -SHSN BR BKN009 M05/M06 Q1014;
0131109470999992009010519204+47983+010233FM-15+0629EDJA V0203601N002110021019N0045001N1-00501-00601999999ADDGA1071+002101999GF107991999999999999999999MA1101391999999MW1101REMMET056METAR EDJA 051920Z 36004KT 4500 BR BKN007 M05/M06 Q1014;
0141109470999992009010519504+47983+010233FM-15+0629EDJA V0200201N002110021019N0030001N1-00401-00501999999ADDGA1071+002101999GF107991999999999999999999MA1101391999999MW1101MW2711REMMET060METAR EDJA 051950Z 02004KT 3000 -SN BR BKN007 M04/M05 Q1014;
0141109470999992009010520204+47983+010233FM-15+0629EDJA V0200601N003110024019N0020001N1-00501-00601999999ADDGA1071+002401999GF107991999999999999999999MA1101391999999MW1101MW2711REMMET060METAR EDJA 052020Z 06006KT 2000 -SN BR BKN008 M05/M06 Q1014;
0141109470999992009010520504+47983+010233FM-15+0629EDJA V0200601N002610039019N0030001N1-00501-00501999999ADDGA1071+003901999GF107991999999999999999999MA1101391999999MW1101MW2711REMMET060METAR EDJA 052050Z 06005KT 3000 -SN BR BKN013 M05/M05 Q1014;
0132109470999992009010604504+47983+010233FM-15+0629EDJA V0200801N005710036019N0070001N1-00501-00701999999ADDGA1081+003601999GF108991999999999999999999MA1101291999999MW1711REMMET057METAR EDJA 060450Z 08011KT 7000 -SN OVC012 M05/M07 Q1013;
0132109470999992009010605204+47983+010233FM-15+0629EDJA V0200801N005110042019N0080001N1-00501-00701999999ADDGA1081+004201999GF108991999999999999999999MA1101391999999MW1711REMMET057METAR EDJA 060520Z 08010KT 8000 -SN OVC014 M05/M07 Q1014;
0132109470999992009010605504+47983+010233FM-15+0629EDJA V0200701N005110045019N0080001N1-00501-00701999999ADDGA1071+004501999GF107991999999999999999999MA1101291999999MW1711REMMET057METAR EDJA 060550Z 07010KT 8000 -SN BKN015 M05/M07 Q1013;
0132109470999992009010606204+47983+010233FM-15+0629EDJA V0200701N004610030019N0070001N1-00501-00601999999ADDGA1071+003001999GF107991999999999999999999MA1101391999999MW1711REMMET057METAR EDJA 060620Z 07009KT 7000 -SN BKN010 M05/M06 Q1014;
0141109470999992009010606504+47983+010233FM-15+0629EDJA V0200601N006210030019N0050001N1-00501-00601999999ADDGA1081+003001999GF108991999999999999999999MA1101291999999MW1101MW2711REMMET060METAR EDJA 060650Z 06012KT 5000 -SN BR OVC010 M05/M06 Q1013;
0131109470999992009010607204+47983+010233FM-15+0629EDJA V0200601N005710027019N0050001N1-00501-00601999999ADDGA1081+002701999GF108991999999999999999999MA1101391999999MW1101REMMET056METAR EDJA 060720Z 06011KT 5000 BR OVC009 M05/M06 Q1014;
0131109470999992009010607504+47983+010233FM-15+0629EDJA V0200701N005110030019N0050001N1-00501-00601999999ADDGA1071+003001999GF107991999999999999999999MA1101391999999MW1101REMMET056METAR EDJA 060750Z 07010KT 5000 BR BKN010 M05/M06 Q1014;
0154109470999992009010608204+47983+010233FM-15+0629EDJA V0200701N005110033019N0050001N1-00501-00601999999ADDGA1071+003301999GA2071+004501999GF107991999999999999999999MA1101391999999MW1101REMMET063METAR EDJA 060820Z 07010KT 5000 BR BKN011 BKN015 M05/M06 Q1014;
0164109470999992009010608504+47983+010233FM-15+0629EDJA V0200701N005110036019N0050001N1-00501-00601999999ADDGA1071+003601999GA2071+005101999GF107991999999999999999999MA1101391999999MW1101MW2711REMMET067METAR EDJA 060850Z 07010KT 5000 -SN BR BKN012 BKN017 M05/M06 Q1014;
0171109470999992009010609204+47983+010233FM-15+0629EDJA V0200701N003610030019N0050001N1-00501-00601999999ADDGA1071+003001999GA2071+004501999GF107991999999999999999999MA1101391999999MW1101MW2711REMMET074METAR EDJA 060920Z 07007KT 5000 -SN BR BKN010 BKN015 M05/M06 Q1014 REFZRA;
0164109470999992009010609504+47983+010233FM-15+0629EDJA V0200701N003610033019N0040001N1-00501-00601999999ADDGA1071+003301999GA2071+005101999GF107991999999999999999999MA1101391999999MW1101MW2711REMMET067METAR EDJA 060950Z 07007KT 4000 -SN BR BKN011 BKN017 M05/M06 Q1014;
0164109470999992009010610204+47983+010233FM-15+0629EDJA V0200701N004110024019N0045001N1-00501-00601999999ADDGA1071+002401999GA2071+003901999GF107991999999999999999999MA1101391999999MW1101MW2711REMMET067METAR EDJA 061020Z 07008KT 4500 -SN BR BKN008 BKN013 M05/M06 Q1014;
0131109470999992009010610504+47983+010233FM-15+0629EDJA V0200501N004610030019N0045001N1-00501-00601999999ADDGA1071+003001999GF107991999999999999999999MA1101391999999MW1101REMMET056METAR EDJA 061050Z 05009KT 4500 BR BKN010 M05/M06 Q1014;
0131109470999992009010611204+47983+010233FM-15+0629EDJA V0200601N005110030019N0050001N1-00501-00601999999ADDGA1071+003001999GF107991999999999999999999MA1101291999999MW1101REMMET056METAR EDJA 061120Z 06010KT 5000 BR BKN010 M05/M06 Q1013;
0131109470999992009010611504+47983+010233FM-15+0629EDJA V0200601N005710030019N0050001N1-00501-00601999999ADDGA1071+003001999GF107991999999999999999999MA1101291999999MW1101REMMET056METAR EDJA 061150Z 06011KT 5000 BR BKN010 M05/M06 Q1013;
0131109470999992009010612204+47983+010233FM-15+0629EDJA V0200601N005710030019N0050001N1-00501-00601999999ADDGA1071+003001999GF107991999999999999999999MA1101291999999MW1101REMMET056METAR EDJA 061220Z 06011KT 5000 BR BKN010 M05/M06 Q1013;
0122109470999992009010612504+47983+010233FM-15+0629EDJA V0200601N006210030019N0050001N1-00501-00601999999ADDGA1071+003001999GF107991999999999999999999MA1101291999999REMMET053METAR EDJA 061250Z 06012KT 5000 BKN010 M05/M06 Q1013;
0122109470999992009010613204+47983+010233FM-15+0629EDJA V0200701N005710030019N0050001N1-00501-00601999999ADDGA1071+003001999GF107991999999999999999999MA1101291999999REMMET053METAR EDJA 061320Z 07011KT 5000 BKN010 M05/M06 Q1013;
0122109470999992009010613504+47983+010233FM-15+0629EDJA V0200701N005110030019N0050001N1-00501-00601999999ADDGA1071+003001999GF107991999999999999999999MA1101291999999REMMET053METAR EDJA 061350Z 07010KT 5000 BKN010 M05/M06 Q1013;
0122109470999992009010614204+47983+010233FM-15+0629EDJA V0200601N005710030019N0050001N1-00501-00601999999ADDGA1071+003001999GF107991999999999999999999MA1101291999999REMMET053METAR EDJA 061420Z 06011KT 5000 BKN010 M05/M06 Q1013;
0122109470999992009010614504+47983+010233FM-15+0629EDJA V0200601N005110033019N0060001N1-00501-00701999999ADDGA1071+003301999GF107991999999999999999999MA1101291999999REMMET053METAR EDJA 061450Z 06010KT 6000 BKN011 M05/M07 Q1013;
0122109470999992009010615504+47983+010233FM-15+0629EDJA V0200601N005110030019N0060001N1-00501-00701999999ADDGA1071+003001999GF107991999999999999999999MA1101291999999REMMET053METAR EDJA 061550Z 06010KT 6000 BKN010 M05/M07 Q1013;
0122109470999992009010616204+47983+010233FM-15+0629EDJA V0200601N005110033019N0060001N1-00501-00701999999ADDGA1071+003301999GF107991999999999999999999MA1101391999999REMMET053METAR EDJA 061620Z 06010KT 6000 BKN011 M05/M07 Q1014;
0122109470999992009010616504+47983+010233FM-15+0629EDJA V0200601N005110036019N0060001N1-00501-00701999999ADDGA1071+003601999GF107991999999999999999999MA1101391999999REMMET053METAR EDJA 061650Z 06010KT 6000 BKN012 M05/M07 Q1014;
0122109470999992009010617204+47983+010233FM-15+0629EDJA V0200501N004610030019N0060001N1-00501-00701999999ADDGA1071+003001999GF107991999999999999999999MA1101391999999REMMET053METAR EDJA 061720Z 05009KT 6000 BKN010 M05/M07 Q1014;
0122109470999992009010617504+47983+010233FM-15+0629EDJA V0200601N004610027019N0060001N1-00501-00701999999ADDGA1071+002701999GF107991999999999999999999MA1101391999999REMMET053METAR EDJA 061750Z 06009KT 6000 BKN009 M05/M07 Q1014;
0149109470999992009010618204+47983+010233FM-15+0629EDJA V0200801N003110027019N0050001N1-00601-00701999999ADDGA1071+002701999GF107991999999999999999999MA1101391999999MW1101MW2711REMMET068METAR EDJA 061820Z 08006KT 060V130 5000 -SN BR BKN009 M06/M07 Q1014;
0137109470999992009010618504+47983+010233FM-15+0629EDJA V0200801N002110024019N0049001N1-00601-00701999999ADDGA1071+002401999GF107991999999999999999999MA1101391999999MW1101REMMET062METAR EDJA 061850Z 08004KT 4900 -SHSN BR BKN008 M06/M07 Q1014;
0131109470999992009010619204+47983+010233FM-15+0629EDJA V0200601N002610024019N0044001N1-00601-00701999999ADDGA1071+002401999GF107991999999999999999999MA1101391999999MW1101REMMET056METAR EDJA 061920Z 06005KT 4400 BR BKN008 M06/M07 Q1014;
0122109470999992009010619504+47983+010233FM-15+0629EDJA V0200601N003610027019N0050001N1-00601-00701999999ADDGA1071+002701999GF107991999999999999999999MA1101391999999REMMET053METAR EDJA 061950Z 06007KT 5000 BKN009 M06/M07 Q1014;
0122109470999992009010620204+47983+010233FM-15+0629EDJA V0200701N003110027019N0050001N1-00601-00701999999ADDGA1071+002701999GF107991999999999999999999MA1101391999999REMMET053METAR EDJA 062020Z 07006KT 5000 BKN009 M06/M07 Q1014;
0122109470999992009010620504+47983+010233FM-15+0629EDJA V0200601N002610024019N0050001N1-00601-00701999999ADDGA1071+002401999GF107991999999999999999999MA1101391999999REMMET053METAR EDJA 062050Z 06005KT 5000 BKN008 M06/M07 Q1014;
0139109470999992009010704504+47983+010233FM-15+0629EDJA V0201001N002110021019N0050001N1-00701-00801999999ADDGA1081+002101999GF108991999999999999999999MA1101491999999MW1101REMMET064METAR EDJA 070450Z 10004KT 060V150 5000 BR OVC007 M07/M08 Q1015;
0139109470999992009010705204+47983+010233FM-15+0629EDJA V0201001N003110021019N0050001N1-00701-00801999999ADDGA1081+002101999GF108991999999999999999999MA1101491999999MW1101REMMET064METAR EDJA 070520Z 10006KT 080V140 5000 BR OVC007 M07/M08 Q1015;
0139109470999992009010705504+47983+010233FM-15+0629EDJA V0201001N002110018019N0046001N1-00701-00801999999ADDGA1081+001801999GF108991999999999999999999MA1101491999999MW1101REMMET064METAR EDJA 070550Z 10004KT 050V130 4600 BR OVC006 M07/M08 Q1015;
0131109470999992009010706204+47983+010233FM-15+0629EDJA V0200401N002610018019N0046001N1-00701-00801999999ADDGA1081+001801999GF108991999999999999999999MA1101491999999MW1101REMMET056METAR EDJA 070620Z 04005KT 4600 BR OVC006 M07/M08 Q1015;
0139109470999992009010706504+47983+010233FM-15+0629EDJA V0200301N002610018019N0040001N1-00701-00801999999ADDGA1071+001801999GF107991999999999999999999MA1101491999999MW1101REMMET064METAR EDJA 070650Z 03005KT 360V080 4000 BR BKN006 M07/M08 Q1015;
0131109470999992009010707204+47983+010233FM-15+0629EDJA V0200601N002110015019N0040001N1-00701-00801999999ADDGA1081+001501999GF108991999999999999999999MA1101591999999MW1101REMMET056METAR EDJA 070720Z 06004KT 4000 BR OVC005 M07/M08 Q1016;
0131109470999992009010707504+47983+010233FM-15+0629EDJA V0200401N003110015019N0040001N1-00701-00801999999ADDGA1081+001501999GF108991999999999999999999MA1101591999999MW1101REMMET056METAR EDJA 070750Z 04006KT 4000 BR OVC005 M07/M08 Q1016;
0131109470999992009010708204+47983+010233FM-15+0629EDJA V0200101N001510015019N0040001N1-00701-00801999999ADDGA1081+001501999GF108991999999999999999999MA1101591999999MW1101REMMET056METAR EDJA 070820Z 01003KT 4000 BR OVC005 M07/M08 Q1016;
0139109470999992009010708504+47983+010233FM-15+0629EDJA V0200701N002110015019N0040001N1-00701-00801999999ADDGA1081+001501999GF108991999999999999999999MA1101591999999MW1101REMMET064METAR EDJA 070850Z 07004KT 020V100 4000 BR OVC005 M07/M08 Q1016;
0131109470999992009010709204+47983+010233FM-15+0629EDJA V0200801N002610015019N0038001N1-00701-00801999999ADDGA1081+001501999GF108991999999999999999999MA1101691999999MW1101REMMET056METAR EDJA 070920Z 08005KT 3800 BR OVC005 M07/M08 Q1017;
0131109470999992009010709504+47983+010233FM-15+0629EDJA V0200701N002110015019N0040001N1-00701-00801999999ADDGA1081+001501999GF108991999999999999999999MA1101691999999MW1101REMMET056METAR EDJA 070950Z 07004KT 4000 BR OVC005 M07/M08 Q1017;
0149109470999992009010710204+47983+010233FM-15+0629EDJA V0200501N003610015019N0043001N1-00701-00801999999ADDGA1081+001501999GF108991999999999999999999MA1101691999999MW1101MW2711REMMET068METAR EDJA 071020Z 05007KT 020V080 4300 -SN BR OVC005 M07/M08 Q1017;
0131109470999992009010710504+47983+010233FM-15+0629EDJA V0200501N003110018019N0045001N1-00701-00801999999ADDGA1071+001801999GF107991999999999999999999MA1101691999999MW1101REMMET056METAR EDJA 071050Z 05006KT 4500 BR BKN006 M07/M08 Q1017;
0139109470999992009010711204+47983+010233FM-15+0629EDJA V0200901N003110018019N0044001N1-00601-00701999999ADDGA1071+001801999GF107991999999999999999999MA1101591999999MW1101REMMET064METAR EDJA 071120Z 09006KT 030V120 4400 BR BKN006 M06/M07 Q1016;
0139109470999992009010711504+47983+010233FM-15+0629EDJA V0200801N003610018019N0044001N1-00701-00701999999ADDGA1071+001801999GF107991999999999999999999MA1101591999999MW1101REMMET064METAR EDJA 071150Z 08007KT 040V110 4400 BR BKN006 M07/M07 Q1016;
0131109470999992009010712204+47983+010233FM-15+0629EDJA V0200501N003110018019N0045001N1-00601-00701999999ADDGA1071+001801999GF107991999999999999999999MA1101591999999MW1101REMMET056METAR EDJA 071220Z 05006KT 4500 BR BKN006 M06/M07 Q1016;
0131109470999992009010713204+47983+010233FM-15+0629EDJA V0200801N003110021019N0043001N1-00601-00701999999ADDGA1071+002101999GF107991999999999999999999MA1101591999999MW1101REMMET056METAR EDJA 071320Z 08006KT 4300 BR BKN007 M06/M07 Q1016;
0139109470999992009010713504+47983+010233FM-15+0629EDJA V0200901N002610021019N0044001N1-00601-00801999999ADDGA1071+002101999GF107991999999999999999999MA1101591999999MW1101REMMET064METAR EDJA 071350Z 09005KT 050V120 4400 BR BKN007 M06/M08 Q1016;
0137109470999992009010714204+47983+010233FM-15+0629EDJA V0200701N003110024019N0043001N1-00601-00701999999ADDGA1071+002401999GF107991999999999999999999MA1101591999999MW1101REMMET062METAR EDJA 071420Z 07006KT 4300 -SHSN BR BKN008 M06/M07 Q1016;
0139109470999992009010714504+47983+010233FM-15+0629EDJA V0200601N002610024019N0043001N1-00601-00701999999ADDGA1071+002401999GF107991999999999999999999MA1101691999999MW1101REMMET064METAR EDJA 071450Z 06005KT 020V080 4300 BR BKN008 M06/M07 Q1017;
0131109470999992009010715204+47983+010233FM-15+0629EDJA V0200401N003610024019N0044001N1-00601-00801999999ADDGA1071+002401999GF107991999999999999999999MA1101691999999MW1101REMMET056METAR EDJA 071520Z 04007KT 4400 BR BKN008 M06/M08 Q1017;
0131109470999992009010715504+47983+010233FM-15+0629EDJA V0200501N004110027019N0048001N1-00601-00801999999ADDGA1071+002701999GF107991999999999999999999MA1101691999999MW1101REMMET056METAR EDJA 071550Z 05008KT 4800 BR BKN009 M06/M08 Q1017;
0131109470999992009010716204+47983+010233FM-15+0629EDJA V0200501N003610027019N0049001N1-00601-00801999999ADDGA1071+002701999GF107991999999999999999999MA1101801999999MW1101REMMET056METAR EDJA 071620Z 05007KT 4900 BR BKN009 M06/M08 Q1018;
0131109470999992009010716504+47983+010233FM-15+0629EDJA V0200601N003610030019N0050001N1-00701-00801999999ADDGA1071+003001999GF107991999999999999999999MA1101801999999MW1101REMMET056METAR EDJA 071650Z 06007KT 5000 BR BKN010 M07/M08 Q1018;
0131109470999992009010717204+47983+010233FM-15+0629EDJA V0200601N004110030019N0050001N1-00701-00801999999ADDGA1071+003001999GF107991999999999999999999MA1101801999999MW1101REMMET056METAR EDJA 071720Z 06008KT 5000 BR BKN010 M07/M08 Q1018;
0131109470999992009010717504+47983+010233FM-15+0629EDJA V0200601N003610030019N0048001N1-00701-00801999999ADDGA1071+003001999GF107991999999999999999999MA1101801999999MW1101REMMET056METAR EDJA 071750Z 06007KT 4800 BR BKN010 M07/M08 Q1018;
0131109470999992009010718204+47983+010233FM-15+0629EDJA V0200601N004110033019N0050001N1-00701-00801999999ADDGA1071+003301999GF107991999999999999999999MA1101801999999MW1101REMMET056METAR EDJA 071820Z 06008KT 5000 BR BKN011 M07/M08 Q1018;
0139109470999992009010718504+47983+010233FM-15+0629EDJA V0200801N002610033019N0048001N1-00701-00801999999ADDGA1071+003301999GF107991999999999999999999MA1101901999999MW1101REMMET064METAR EDJA 071850Z 08005KT 040V110 4800 BR BKN011 M07/M08 Q1019;
0130109470999992009010719204+47983+010233FM-15+0629EDJA V0200901N004110036019N0050001N1-00701-00901999999ADDGA1071+003601999GF107991999999999999999999MA1101901999999REMMET061METAR EDJA 071920Z 09008KT 060V130 5000 BKN012 M07/M09 Q1019;
0122109470999992009010719504+47983+010233FM-15+0629EDJA V0200601N003112200019N0050001N1-00801-00901999999ADDGA1041+003601999GF104991999999999999999999MA1101901999999REMMET053METAR EDJA 071950Z 06006KT 5000 SCT012 M08/M09 Q1019;
0131109470999992009010720204+47983+010233FM-15+0629EDJA V0200501N003112200019N0050001N1-00801-01001999999ADDGA1041+003601999GF104991999999999999999999MA1102001999999MW1101REMMET056METAR EDJA 072020Z 05006KT 5000 BR SCT012 M08/M10 Q1020;
0131109470999992009010720504+47983+010233FM-15+0629EDJA V0200501N003112200019N0050001N1-00901-01001999999ADDGA1041+003601999GF104991999999999999999999MA1102001999999MW1101REMMET056METAR EDJA 072050Z 05006KT 5000 BR SCT012 M09/M10 Q1020;
0131109470999992009010804504+47983+010233FM-15+0629EDJA V0200601N006710021019N0050001N1-00801-00901999999ADDGA1071+002101999GF107991999999999999999999MA1102201999999MW1101REMMET056METAR EDJA 080450Z 06013KT 5000 BR BKN007 M08/M09 Q1022;
0131109470999992009010805204+47983+010233FM-15+0629EDJA V0200601N006210018019N0045001N1-00801-00901999999ADDGA1071+001801999GF107991999999999999999999MA1102201999999MW1101REMMET056METAR EDJA 080520Z 06012KT 4500 BR BKN006 M08/M09 Q1022;
0131109470999992009010805504+47983+010233FM-15+0629EDJA V0200701N007210018019N0050001N1-00801-00901999999ADDGA1071+001801999GF107991999999999999999999MA1102201999999MW1101REMMET056METAR EDJA 080550Z 07014KT 5000 BR BKN006 M08/M09 Q1022;
0131109470999992009010806204+47983+010233FM-15+0629EDJA V0200701N006710018019N0050001N1-00801-00901999999ADDGA1071+001801999GF107991999999999999999999MA1102201999999MW1101REMMET056METAR EDJA 080620Z 07013KT 5000 BR BKN006 M08/M09 Q1022;
0131109470999992009010806504+47983+010233FM-15+0629EDJA V0200601N006210018019N0040001N1-00801-00901999999ADDGA1071+001801999GF107991999999999999999999MA1102201999999MW1101REMMET056METAR EDJA 080650Z 06012KT 4000 BR BKN006 M08/M09 Q1022;
0122109470999992009010807204+47983+010233FM-15+0629EDJA V0200701N006710021019N0045001N1-00801-00901999999ADDGA1071+002101999GF107991999999999999999999MA1102301999999REMMET053METAR EDJA 080720Z 07013KT 4500 BKN007 M08/M09 Q1023;
0131109470999992009010807504+47983+010233FM-15+0629EDJA V0200701N006710018019N0045001N1-00801-00901999999ADDGA1071+001801999GF107991999999999999999999MA1102301999999MW1101REMMET056METAR EDJA 080750Z 07013KT 4500 BR BKN006 M08/M09 Q1023;
0131109470999992009010808204+47983+010233FM-15+0629EDJA V0200701N006710018019N0050001N1-00801-00901999999ADDGA1071+001801999GF107991999999999999999999MA1102301999999MW1101REMMET056METAR EDJA 080820Z 07013KT 5000 BR BKN006 M08/M09 Q1023;
0131109470999992009010808504+47983+010233FM-15+0629EDJA V0200701N006210021019N0047001N1-00801-00801999999ADDGA1071+002101999GF107991999999999999999999MA1102301999999MW1101REMMET056METAR EDJA 080850Z 07012KT 4700 BR BKN007 M08/M08 Q1023;
0131109470999992009010809204+47983+010233FM-15+0629EDJA V0200701N005710021019N0050001N1-00701-00801999999ADDGA1071+002101999GF107991999999999999999999MA1102301999999MW1101REMMET056METAR EDJA 080920Z 07011KT 5000 BR BKN007 M07/M08 Q1023;
0131109470999992009010809504+47983+010233FM-15+0629EDJA V0200701N005710024019N0050001N1-00701-00801999999ADDGA1071+002401999GF107991999999999999999999MA1102301999999MW1101REMMET056METAR EDJA 080950Z 07011KT 5000 BR BKN008 M07/M08 Q1023;
0131109470999992009010810204+47983+010233FM-15+0629EDJA V0200601N006210024019N0050001N1-00701-00801999999ADDGA1071+002401999GF107991999999999999999999MA1102301999999MW1101REMMET056METAR EDJA 081020Z 06012KT 5000 BR BKN008 M07/M08 Q1023;
0122109470999992009010810504+47983+010233FM-15+0629EDJA V0200601N006710027019N0060001N1-00601-00801999999ADDGA1071+002701999GF107991999999999999999999MA1102301999999REMMET053METAR EDJA 081050Z 06013KT 6000 BKN009 M06/M08 Q1023;
0122109470999992009010811204+47983+010233FM-15+0629EDJA V0200601N006710036019N0060001N1-00601-00801999999ADDGA1071+003601999GF107991999999999999999999MA1102301999999REMMET053METAR EDJA 081120Z 06013KT 6000 BKN012 M06/M08 Q1023;
0122109470999992009010811504+47983+010233FM-15+0629EDJA V0200601N006712200019N0070001N1-00501-00801999999ADDGA1041+004801999GF104991999999999999999999MA1102301999999REMMET053METAR EDJA 081150Z 06013KT 7000 SCT016 M05/M08 Q1023;
0122109470999992009010812204+47983+010233FM-15+0629EDJA V0200501N006212200019N0070001N1-00401-00701999999ADDGA1041+005401999GF104991999999999999999999MA1102201999999REMMET053METAR EDJA 081220Z 05012KT 7000 SCT018 M04/M07 Q1022;
0073109470999992009010812504+47983+010233FM-15+0629EDJA V0200501N005712200019N0060001N1-00401-00701999999ADDMA1102201999999REMMET046METAR EDJA 081250Z 05011KT 6000 M04/M07 Q1022;
0082109470999992009010813204+47983+010233FM-15+0629EDJA V0200701N00621220001CN0099001N1-00301-00801999999ADDMA1102201999999REMMET055METAR EDJA 081320Z 07012KT 040V110 CAVOK M03/M08 Q1022;
0074109470999992009010813504+47983+010233FM-15+0629EDJA V0200801N00571220001CN0099001N1-00301-00801999999ADDMA1102201999999REMMET047METAR EDJA 081350Z 08011KT CAVOK M03/M08 Q1022;
0074109470999992009010814204+47983+010233FM-15+0629EDJA V0200601N00571220001CN0099001N1-00401-00801999999ADDMA1102201999999REMMET047METAR EDJA 081420Z 06011KT CAVOK M04/M08 Q1022;
0074109470999992009010814504+47983+010233FM-15+0629EDJA V0200701N00571220001CN0099001N1-00401-00801999999ADDMA1102201999999REMMET047METAR EDJA 081450Z 07011KT CAVOK M04/M08 Q1022;
0122109470999992009010815204+47983+010233FM-15+0629EDJA V0200701N005112200019N0080001N1-00501-00901999999ADDGF100991999999999999999999MA1102301999999REMMET050METAR EDJA 081520Z 07010KT 8000 SKC M05/M09 Q1023;EQDQ01    003SCCGA1
0122109470999992009010815504+47983+010233FM-15+0629EDJA V0200701N005112200019N0080001N1-00501-00901999999ADDGF100991999999999999999999MA1102301999999REMMET050METAR EDJA 081550Z 07010KT 8000 NSC M05/M09 Q1023;EQDQ01    003SCCGA1
0073109470999992009010816204+47983+010233FM-15+0629EDJA V0200601N004112200019N0070001N1-00601-00901999999ADDMA1102301999999REMMET046METAR EDJA 081620Z 06008KT 7000 M06/M09 Q1023;
0073109470999992009010816504+47983+010233FM-15+0629EDJA V0200701N004112200019N0070001N1-00601-00901999999ADDMA1102301999999REMMET046METAR EDJA 081650Z 07008KT 7000 M06/M09 Q1023;
0122109470999992009010817204+47983+010233FM-15+0629EDJA V0200501N004112200019N0070001N1-00701-00901999999ADDGF100991999999999999999999MA1102301999999REMMET050METAR EDJA 081720Z 05008KT 7000 NSC M07/M09 Q1023;EQDQ01    003SCCGA1
0122109470999992009010817504+47983+010233FM-15+0629EDJA V0200601N004612200019N0080001N1-00701-00901999999ADDGF100991999999999999999999MA1102401999999REMMET050METAR EDJA 081750Z 06009KT 8000 NSC M07/M09 Q1024;EQDQ01    003SCCGA1
0122109470999992009010818204+47983+010233FM-15+0629EDJA V0200701N004612200019N0070001N1-00701-00901999999ADDGF100991999999999999999999MA1102401999999REMMET050METAR EDJA 081820Z 07009KT 7000 NSC M07/M09 Q1024;EQDQ01    003SCCGA1
0122109470999992009010818504+47983+010233FM-15+0629EDJA V0200801N003112200019N0080001N1-00701-01001999999ADDGF100991999999999999999999MA1102401999999REMMET050METAR EDJA 081850Z 08006KT 8000 NSC M07/M10 Q1024;EQDQ01    003SCCGA1
0122109470999992009010819204+47983+010233FM-15+0629EDJA V0200601N002112200019N0070001N1-00901-01001999999ADDGF100991999999999999999999MA1102401999999REMMET050METAR EDJA 081920Z 06004KT 7000 NSC M09/M10 Q1024;EQDQ01    003SCCGA1
0122109470999992009010819504+47983+010233FM-15+0629EDJA V0200701N002612200019N0070001N1-00901-01001999999ADDGF100991999999999999999999MA1102401999999REMMET050METAR EDJA 081950Z 07005KT 7000 NSC M09/M10 Q1024;EQDQ01    003SCCGA1
0122109470999992009010820204+47983+010233FM-15+0629EDJA V0209999V001012200019N0070001N1-00801-01001999999ADDGF100991999999999999999999MA1102401999999REMMET050METAR EDJA 082020Z VRB02KT 7000 NSC M08/M10 Q1024;EQDQ01    003SCCGA1
0122109470999992009010820504+47983+010233FM-15+0629EDJA V0200601N001512200019N0070001N1-00901-01101999999ADDGF100991999999999999999999MA1102401999999REMMET050METAR EDJA 082050Z 06003KT 7000 NSC M09/M11 Q1024;EQDQ01    003SCCGA1
0131109470999992009010905204+47983+010233FM-15+0629EDJA V0201901N002110006019N0015001N1-00801-00901999999ADDGA1081+000601999GF108991999999999999999999MA1102511999999MW1101REMMET056METAR EDJA 090520Z 19004KT 1500 BR OVC002 M08/M09 Q1025;
0140109470999992009010905504+47983+010233FM-15+0629EDJA V0202001N00211000151CN0009001N1-00901-00901999999ADDGA1091+000151999GF109991999999000251999999MA1102511999999MW1491REMMET065METAR EDJA 090550Z 20004KT 170V240 0900 FZFG VV/// M09/M09 Q1025;
0148109470999992009010906204+47983+010233FM-15+0629EDJA V0202101N00151000151CN0007001N1-00901-00901999999ADDGA1091+000151999GF109991999999000251999999MA1102511999999MW1491REMMET073METAR EDJA 090620Z 21003KT 0700 R24/0800VP1500U FZFG VV/// M09/M09 Q1025;
0132109470999992009010906504+47983+010233FM-15+0629EDJA V0209999V00151000151CN0007001N1-00901-01001999999ADDGA1091+000151999GF109991999999000251999999MA1102511999999MW1491REMMET057METAR EDJA 090650Z VRB03KT 0700 FZFG VV/// M09/M10 Q1025;
0148109470999992009010907204+47983+010233FM-15+0629EDJA V0209999V00101000151CN0007001N1-00901-01001999999ADDGA1091+000151999GF109991999999000251999999MA1102511999999MW1491REMMET073METAR EDJA 090720Z VRB02KT 0700 R24/0800VP1500D FZFG VV/// M09/M10 Q1025;
0147109470999992009010907504+47983+010233FM-15+0629EDJA V0209999V00051000151CN0005501N1-01001-01101999999ADDGA1091+000151999GF109991999999000251999999MA1102611999999MW1491REMMET072METAR EDJA 090750Z VRB01KT 0550 R24/0600V0900N FZFG VV/// M10/M11 Q1026;
0153109470999992009010908204+47983+010233FM-15+0629EDJA V0209999C00001000151CN0005501N1-01001-01101999999ADDED199U07009GA1091+000151999GF109991999999000251999999MA1102611999999MW1491REMMET067METAR EDJA 090820Z 00000KT 0550 R24/0700N FZFG VV/// M10/M11 Q1026;
0153109470999992009010908504+47983+010233FM-15+0629EDJA V0209999V00051000151CN0004501N1-00901-01001999999ADDED199U04509GA1091+000151999GF109991999999000251999999MA1102611999999MW1491REMMET067METAR EDJA 090850Z VRB01KT 0450 R24/0450N FZFG VV/// M09/M10 Q1026;
0132109470999992009010909204+47983+010233FM-15+0629EDJA V0209999V00051000151CN0006001N1-00901-00901999999ADDGA1091+000151999GF109991999999000251999999MA1102611999999MW1491REMMET057METAR EDJA 090920Z VRB01KT 0600 FZFG VV/// M09/M09 Q1026;
0131109470999992009010909504+47983+010233FM-15+0629EDJA V0209999V001012200019N0024001N1-00801-00901999999ADDGA1041+000901999GF104991999999999999999999MA1102611999999MW1101REMMET056METAR EDJA 090950Z VRB02KT 2400 BR SCT003 M08/M09 Q1026;
0147109470999992009010910204+47983+010233FM-15+0629EDJA V0209999V001512200019N0013001N1-00901-00901999999ADDGA1041+001201999GF104991999999999999999999MA1102611999999MW1101REMMET072METAR EDJA 091020Z VRB03KT 1300 R24/1100VP1500U BR SCT004 M09/M09 Q1026;
0131109470999992009010910504+47983+010233FM-15+0629EDJA V0209999C000012200019N0030001N1-00701-00801999999ADDGA1041+001201999GF104991999999999999999999MA1102611999999MW1101REMMET056METAR EDJA 091050Z 00000KT 3000 BR SCT004 M07/M08 Q1026;
0131109470999992009010911204+47983+010233FM-15+0629EDJA V0209999V001012200019N0030001N1-00701-00701999999ADDGA1041+000901999GF104991999999999999999999MA1102611999999MW1101REMMET056METAR EDJA 091120Z VRB02KT 3000 BR SCT003 M07/M07 Q1026;
0131109470999992009010911504+47983+010233FM-15+0629EDJA V0209999V000512200019N0040001N1-00601-00601999999ADDGA1041+001201999GF104991999999999999999999MA1102511999999MW1101REMMET056METAR EDJA 091150Z VRB01KT 4000 BR SCT004 M06/M06 Q1025;
0131109470999992009010912204+47983+010233FM-15+0629EDJA V0203601N002112200019N0044001N1-00601-00601999999ADDGF100991999999999999999999MA1102511999999MW1101REMMET053METAR EDJA 091220Z 36004KT 4400 BR SKC M06/M06 Q1025;EQDQ01    003SCCGA1
0131109470999992009010912504+47983+010233FM-15+0629EDJA V0203501N002112200019N0039001N1-00601-00601999999ADDGF100991999999999999999999MA1102511999999MW1101REMMET053METAR EDJA 091250Z 35004KT 3900 BR SKC M06/M06 Q1025;EQDQ01    003SCCGA1
0131109470999992009010913204+47983+010233FM-15+0629EDJA V0203601N002612200019N0046001N1-00501-00601999999ADDGF100991999999999999999999MA1102511999999MW1101REMMET053METAR EDJA 091320Z 36005KT 4600 BR SKC M05/M06 Q1025;EQDQ01    003SCCGA1
0082109470999992009010913504+47983+010233FM-15+0629EDJA V0200101N002612200019N0050001N1-00401-00601999999ADDMA1102511999999MW1101REMMET049METAR EDJA 091350Z 01005KT 5000 BR M04/M06 Q1025;
0131109470999992009010914204+47983+010233FM-15+0629EDJA V0200101N003612200019N0043001N1-00501-00601999999ADDGF100991999999999999999999MA1102511999999MW1101REMMET053METAR EDJA 091420Z 01007KT 4300 BR SKC M05/M06 Q1025;EQDQ01    003SCCGA1
0131109470999992009010914504+47983+010233FM-15+0629EDJA V0200101N003112200019N0043001N1-00601-00701999999ADDGF100991999999999999999999MA1102511999999MW1101REMMET053METAR EDJA 091450Z 01006KT 4300 BR SKC M06/M07 Q1025;EQDQ01    003SCCGA1
0131109470999992009010915204+47983+010233FM-15+0629EDJA V0200101N003112200019N0040001N1-00701-00701999999ADDGF100991999999999999999999MA1102511999999MW1101REMMET053METAR EDJA 091520Z 01006KT 4000 BR SKC M07/M07 Q1025;EQDQ01    003SCCGA1
0131109470999992009010915504+47983+010233FM-15+0629EDJA V0200201N002112200019N0040001N1-00701-00801999999ADDGF100991999999999999999999MA1102511999999MW1101REMMET053METAR EDJA 091550Z 02004KT 4000 BR SKC M07/M08 Q1025;EQDQ01    003SCCGA1
0082109470999992009010916204+47983+010233FM-15+0629EDJA V0200201N002112200019N0042001N1-00801-00901999999ADDMA1102511999999MW1101REMMET049METAR EDJA 091620Z 02004KT 4200 BR M08/M09 Q1025;
0131109470999992009010916504+47983+010233FM-15+0629EDJA V0200301N002612200019N0042001N1-00901-00901999999ADDGF100991999999999999999999MA1102511999999MW1101REMMET053METAR EDJA 091650Z 03005KT 4200 BR SKC M09/M09 Q1025;EQDQ01    003SCCGA1
0099109470999992009010917204+47983+010233FM-15+0629EDJA V0200201N002612200019N0004001N1-00901-01001999999ADDMA1102511999999MW1481REMMET066METAR EDJA 091720Z 02005KT 0400 R24/0375V0500N FZFG M09/M10 Q1025;
0106109470999992009010917504+47983+010233FM-15+0629EDJA V0203601N001519999999N0002501N1-01001-01001999999ADDED199U03509MA1102511999999MW1481REMMET062METAR EDJA 091750Z 36003KT 0250 R24/M0350N FZFG M10/M10 Q1025;
0106109470999992009010918204+47983+010233FM-15+0629EDJA V0203601N002119999999N0002001N1-01001-01101999999ADDED199U03509MA1102511999999MW1481REMMET062METAR EDJA 091820Z 36004KT 0200 R24/M0350N FZFG M10/M11 Q1025;
0129109470999992009010919204+47983+010233FM-15+0629EDJA V0200301N002112200019N0003501N1-01001-01101999999ADDMA1102501999999REMMET067METAR EDJA 091920Z 03004KT 0350 R06/M0350V0500N FZFG M10/M11 Q1025;EQDQ01+000603ATOT  Q02-003503ATOD  
0105109470999992009010919504+47983+010233FM-15+0629EDJA V0200301N001519999999N0006001N1-01101-01101999999ADDED199U07509MA1102611999999MW1481REMMET061METAR EDJA 091950Z 03003KT 0600 R06/0750D FZFG M11/M11 Q1026;
0106109470999992009010920204+47983+010233FM-15+0629EDJA V0200401N002119999999N0012001N1-01101-01201999999ADDED199U15009MA1102611999999MW1481REMMET062METAR EDJA 092020Z 04004KT 1200 R06/P1500U FZFG M11/M12 Q1026;
0100109470999992009010920504+47983+010233FM-15+0629EDJA V0209999V000512200019N0012001N1-01101-01201999999ADDMA1102611999999MW1481REMMET067METAR EDJA 092050Z VRB01KT 1200 R06/0800VP1500D FZFG M11/M12 Q1026;
0100109470999992009011004504+47983+010233FM-15+0629EDJA V0209999V001012200019N0006001N1-01301-01401999999ADDMA1102501999999REMMET073METAR EDJA 100450Z VRB02KT 0600 R06/M0350V0450D FZFG VV/// M13/M14 Q1025;
0183109470999992009011005204+47983+010233FM-15+0629EDJA V0209999V00051000151CN0008001N1-01201-01301999999ADDGA1091+000151999GF109991999999000251999999MA1102511999999MW1491REMMET073METAR EDJA 100520Z VRB01KT 0800 R06/0800VP1500U FZFG VV/// M12/M13 Q1025;EQDQ01-001203ATOT  Q02-001303ATOD  
0100109470999992009011005504+47983+010233FM-15+0629EDJA V0200501N001512200019N0003001N1-01201-01301999999ADDMA1102501999999REMMET073METAR EDJA 100550Z 05003KT 0300 R06/M0350V0450N FZFG VV/// M12/M13 Q1025;
0189109470999992009011006204+47983+010233FM-15+0629EDJA V0200401N00211000151CN0004501N1-01202-01302999999ADDED199U03509GA1091+000151999GF109991999999000251999999MA1102511999999MW1491REMMET068METAR EDJA 100620Z 04004KT 0450 R06/M0350N FZFG VV/// M12/M13 Q1025;EQDQ01-001203ATOT  Q02-001303ATOD  
0154109470999992009011006504+47983+010233FM-15+0629EDJA V0209999V00101000151CN0003501N1-01201-01301999999ADDED199U03509GA1091+000151999GF109991999999000251999999MA1102511999999MW1491REMMET068METAR EDJA 100650Z VRB02KT 0350 R06/M0350N FZFG VV/// M12/M13 Q1025;
0147109470999992009011007204+47983+010233FM-15+0629EDJA V0209999V00051000151CN0004501N1-01201-01301999999ADDGA1091+000151999GF109991999999000251999999MA1102511999999MW1491REMMET072METAR EDJA 100720Z VRB01KT 0450 R24/0375V0500D FZFG VV/// M12/M13 Q1025;
0153109470999992009011007504+47983+010233FM-15+0629EDJA V0209999V00151000151CN0004001N1-01201-01201999999ADDED199U07009GA1091+000151999GF109991999999000251999999MA1102511999999MW1491REMMET067METAR EDJA 100750Z VRB03KT 0400 R24/0700D FZFG VV/// M12/M12 Q1025;
0153109470999992009011008204+47983+010233FM-15+0629EDJA V0209999V00051000151CN0003501N1-01101-01201999999ADDED199U06509GA1091+000151999GF109991999999000251999999MA1102611999999MW1491REMMET067METAR EDJA 100820Z VRB01KT 0350 R24/0650N FZFG VV/// M11/M12 Q1026;
0147109470999992009011008504+47983+010233FM-15+0629EDJA V0209999C00001000151CN0003501N1-01101-01201999999ADDGA1091+000151999GF109991999999000251999999MA1102511999999MW1491REMMET072METAR EDJA 100850Z 00000KT 0350 R24/0650V1000U FZFG VV/// M11/M12 Q1025;
0153109470999992009011009204+47983+010233FM-15+0629EDJA V0209999V00101000151CN0004501N1-01101-01201999999ADDED199U06509GA1091+000151999GF109991999999000251999999MA1102611999999MW1491REMMET067METAR EDJA 100920Z VRB02KT 0450 R24/0650D FZFG VV/// M11/M12 Q1026;
0132109470999992009011009504+47983+010233FM-15+0629EDJA V0209999V00151000151CN0015001N1-01001-01101999999ADDGA1091+000151999GF109991999999000251999999MA1102611999999MW1491REMMET057METAR EDJA 100950Z VRB03KT 1500 FZFG VV/// M10/M11 Q1026;
0147109470999992009011010204+47983+010233FM-15+0629EDJA V0209999V00151000151CN0008001N1-01001-01101999999ADDGA1091+000151999GF109991999999000251999999MA1102611999999MW1491REMMET072METAR EDJA 101020Z VRB03KT 0800 R24/0800V1100D FZFG VV/// M10/M11 Q1026;
0152109470999992009011010504+47983+010233FM-15+0629EDJA V0209999V00101000151CN0009001N1-00901-01001999999ADDED199U15009GA1091+000151999GF109991999999000251999999MA1102611999999MW1451REMMET066METAR EDJA 101050Z VRB02KT 0900 R24/P1500U FG VV/// M09/M10 Q1026;
0131109470999992009011011204+47983+010233FM-15+0629EDJA V0209999V001012200019N0033001N1-00901-00901999999ADDGF100991999999999999999999MA1102511999999MW1101REMMET053METAR EDJA 101120Z VRB02KT 3300 BR NSC M09/M09 Q1025;EQDQ01    003SCCGA1
0131109470999992009011011504+47983+010233FM-15+0629EDJA V0203301N001512200019N0037001N1-00801-00901999999ADDGF100991999999999999999999MA1102511999999MW1101REMMET053METAR EDJA 101150Z 33003KT 3700 BR NSC M08/M09 Q1025;EQDQ01    003SCCGA1
0131109470999992009011012504+47983+010233FM-15+0629EDJA V0209999V001512200019N0042001N1-00701-00701999999ADDGF100991999999999999999999MA1102511999999MW1101REMMET053METAR EDJA 101250Z VRB03KT 4200 BR SKC M07/M07 Q1025;EQDQ01    003SCCGA1
0131109470999992009011013204+47983+010233FM-15+0629EDJA V0202801N001512200019N0041001N1-00701-00701999999ADDGF100991999999999999999999MA1102511999999MW1101REMMET053METAR EDJA 101320Z 28003KT 4100 BR SKC M07/M07 Q1025;EQDQ01    003SCCGA1
0131109470999992009011014204+47983+010233FM-15+0629EDJA V0202601N001512200019N0040001N1-00701-00701999999ADDGF100991999999999999999999MA1102511999999MW1101REMMET053METAR EDJA 101420Z 26003KT 4000 BR SKC M07/M07 Q1025;EQDQ01    003SCCGA1
0131109470999992009011014504+47983+010233FM-15+0629EDJA V0202701N002112200019N0040001N1-00701-00801999999ADDGF100991999999999999999999MA1102511999999MW1101REMMET053METAR EDJA 101450Z 27004KT 4000 BR SKC M07/M08 Q1025;EQDQ01    003SCCGA1
0131109470999992009011015204+47983+010233FM-15+0629EDJA V0202801N002612200019N0040001N1-00801-00801999999ADDGF100991999999999999999999MA1102511999999MW1101REMMET053METAR EDJA 101520Z 28005KT 4000 BR SKC M08/M08 Q1025;EQDQ01    003SCCGA1
0131109470999992009011016504+47983+010233FM-15+0629EDJA V0202901N001012200019N0048001N1-01001-01101999999ADDGF100991999999999999999999MA1102611999999MW1101REMMET053METAR EDJA 101650Z 29002KT 4800 BR SKC M10/M11 Q1026;EQDQ01    003SCCGA1
0131109470999992009011017204+47983+010233FM-15+0629EDJA V0209999C000012200019N0044001N1-00901-01001999999ADDGF100991999999999999999999MA1102711999999MW1101REMMET053METAR EDJA 101720Z 00000KT 4400 BR NSC M09/M10 Q1027;EQDQ01    003SCCGA1
0131109470999992009011017504+47983+010233FM-15+0629EDJA V0201901N001512200019N0048001N1-01101-01101999999ADDGF100991999999999999999999MA1102711999999MW1101REMMET053METAR EDJA 101750Z 19003KT 4800 BR NSC M11/M11 Q1027;EQDQ01    003SCCGA1
0131109470999992009011018204+47983+010233FM-15+0629EDJA V0201801N001512200019N0050001N1-01101-01201999999ADDGF100991999999999999999999MA1102711999999MW1101REMMET053METAR EDJA 101820Z 18003KT 5000 BR NSC M11/M12 Q1027;EQDQ01    003SCCGA1
0131109470999992009011018504+47983+010233FM-15+0629EDJA V0201901N002612200019N0050001N1-01201-01301999999ADDGF100991999999999999999999MA1102711999999MW1101REMMET053METAR EDJA 101850Z 19005KT 5000 BR NSC M12/M13 Q1027;EQDQ01    003SCCGA1
0131109470999992009011019204+47983+010233FM-15+0629EDJA V0201601N001512200019N0050001N1-01201-01301999999ADDGF100991999999999999999999MA1102711999999MW1101REMMET053METAR EDJA 101920Z 16003KT 5000 BR NSC M12/M13 Q1027;EQDQ01    003SCCGA1
0131109470999992009011019504+47983+010233FM-15+0629EDJA V0202101N002612200019N0050001N1-01201-01301999999ADDGF100991999999999999999999MA1102711999999MW1101REMMET053METAR EDJA 101950Z 21005KT 5000 BR NSC M12/M13 Q1027;EQDQ01    003SCCGA1
0082109470999992009011020204+47983+010233FM-15+0629EDJA V0202201N001512200019N0030001N1-01201-01201999999ADDMA1102811999999MW1101REMMET049METAR EDJA 102020Z 22003KT 3000 BR M12/M12 Q1028;
0084109470999992009011020504+47983+010233FM-15+0629EDJA V0202101N003112200019N0018001N1-01001-01101999999ADDMA1102811999999MW1481REMMET051METAR EDJA 102050Z 21006KT 1800 FZFG M10/M11 Q1028;
0139109470999992009011104504+47983+010233FM-15+0629EDJA V0202001N002610006019N0060001N1-01001-01101999999ADDGA1081+000601999GF108991999999999999999999MA1103011999999MW1101REMMET064METAR EDJA 110450Z 20005KT 180V240 6000 BR OVC002 M10/M11 Q1030;
0130109470999992009011105204+47983+010233FM-15+0629EDJA V0202201N00211000151CN0035001N1-01101-01101999999ADDGA1091+000151999GF109991999999000251999999MA1103011999999MW1101REMMET055METAR EDJA 110520Z 22004KT 3500 BR VV/// M11/M11 Q1030;
0122109470999992009011105504+47983+010233FM-15+0629EDJA V0202201N002612200019N0070001N1-01301-01401999999ADDGF100991999999999999999999MA1103011999999REMMET050METAR EDJA 110550Z 22005KT 7000 NCD M13/M14 Q1030;EQDQ01    003SCCGA1
0122109470999992009011106204+47983+010233FM-15+0629EDJA V0202501N002112200019N0070001N1-01201-01301999999ADDGF100991999999999999999999MA1103011999999REMMET050METAR EDJA 110620Z 25004KT 7000 SKC M12/M13 Q1030;EQDQ01    003SCCGA1
0122109470999992009011106504+47983+010233FM-15+0629EDJA V0202001N002112200019N0080001N1-01201-01301999999ADDGF100991999999999999999999MA1103011999999REMMET050METAR EDJA 110650Z 20004KT 8000 SKC M12/M13 Q1030;EQDQ01    003SCCGA1
0122109470999992009011107204+47983+010233FM-15+0629EDJA V0209999V001512200019N0080001N1-01201-01301999999ADDGF100991999999999999999999MA1103011999999REMMET050METAR EDJA 110720Z VRB03KT 8000 SKC M12/M13 Q1030;EQDQ01    003SCCGA1
0122109470999992009011107504+47983+010233FM-15+0629EDJA V0202701N003112200019N0070001N1-01101-01201999999ADDGF100991999999999999999999MA1103011999999REMMET050METAR EDJA 110750Z 27006KT 7000 SKC M11/M12 Q1030;EQDQ01    003SCCGA1
0122109470999992009011108204+47983+010233FM-15+0629EDJA V0202401N002612200019N0070001N1-01101-01101999999ADDGF100991999999999999999999MA1103121999999REMMET050METAR EDJA 110820Z 24005KT 7000 SKC M11/M11 Q1031;EQDQ01    003SCCGA1
0122109470999992009011108504+47983+010233FM-15+0629EDJA V0202101N002112200019N0080001N1-00901-01001999999ADDGF100991999999999999999999MA1103121999999REMMET050METAR EDJA 110850Z 21004KT 8000 SKC M09/M10 Q1031;EQDQ01    003SCCGA1
0122109470999992009011109204+47983+010233FM-15+0629EDJA V0202401N003112200019N0080001N1-00901-00901999999ADDGF100991999999999999999999MA1103121999999REMMET050METAR EDJA 110920Z 24006KT 8000 SKC M09/M09 Q1031;EQDQ01    003SCCGA1
0122109470999992009011109504+47983+010233FM-15+0629EDJA V0202401N002112200019N0080001N1-00701-00801999999ADDGF100991999999999999999999MA1103121999999REMMET050METAR EDJA 110950Z 24004KT 8000 SKC M07/M08 Q1031;EQDQ01    003SCCGA1
0122109470999992009011110204+47983+010233FM-15+0629EDJA V0202501N002612200019N0090001N1-00701-00701999999ADDGF100991999999999999999999MA1103011999999REMMET050METAR EDJA 111020Z 25005KT 9000 SKC M07/M07 Q1030;EQDQ01    003SCCGA1
0122109470999992009011110504+47983+010233FM-15+0629EDJA V0202201N002112200019N0080001N1-00601-00601999999ADDGF100991999999999999999999MA1103011999999REMMET050METAR EDJA 111050Z 22004KT 8000 SKC M06/M06 Q1030;EQDQ01    003SCCGA1
0122109470999992009011111204+47983+010233FM-15+0629EDJA V0209999V001012200019N0090001N1-00401-00501999999ADDGF100991999999999999999999MA1103011999999REMMET050METAR EDJA 111120Z VRB02KT 9000 SKC M04/M05 Q1030;EQDQ01    003SCCGA1
0122109470999992009011111504+47983+010233FM-15+0629EDJA V0203301N002612200019N0090001N1-00401-00501999999ADDGF100991999999999999999999MA1103011999999REMMET050METAR EDJA 111150Z 33005KT 9000 SKC M04/M05 Q1030;EQDQ01    003SCCGA1
0122109470999992009011112204+47983+010233FM-15+0629EDJA V0203001N002112200019N0090001N1-00401-00401999999ADDGF100991999999999999999999MA1103011999999REMMET050METAR EDJA 111220Z 30004KT 9000 SKC M04/M04 Q1030;EQDQ01    003SCCGA1
0074109470999992009011112504+47983+010233FM-15+0629EDJA V0209999V00101220001CN0099001N1-00301-00401999999ADDMA1103011999999REMMET047METAR EDJA 111250Z VRB02KT CAVOK M03/M04 Q1030;
0074109470999992009011113204+47983+010233FM-15+0629EDJA V0209999V00101220001CN0099001N1-00201-00301999999ADDMA1102911999999REMMET047METAR EDJA 111320Z VRB02KT CAVOK M02/M03 Q1029;
0074109470999992009011113504+47983+010233FM-15+0629EDJA V0209999V00051220001CN0099001N1-00201-00301999999ADDMA1102911999999REMMET047METAR EDJA 111350Z VRB01KT CAVOK M02/M03 Q1029;
0074109470999992009011114204+47983+010233FM-15+0629EDJA V0203301N00101220001CN0099001N1-00201-00301999999ADDMA1102911999999REMMET047METAR EDJA 111420Z 33002KT CAVOK M02/M03 Q1029;
0122109470999992009011114504+47983+010233FM-15+0629EDJA V0200101N002612200019N0070001N1-00201-00401999999ADDGF100991999999999999999999MA1103011999999REMMET050METAR EDJA 111450Z 01005KT 7000 SKC M02/M04 Q1030;EQDQ01    003SCCGA1
0122109470999992009011115204+47983+010233FM-15+0629EDJA V0200401N001512200019N0090001N1-00301-00401999999ADDGF100991999999999999999999MA1103011999999REMMET050METAR EDJA 111520Z 04003KT 9000 SKC M03/M04 Q1030;EQDQ01    003SCCGA1
0122109470999992009011115504+47983+010233FM-15+0629EDJA V0200301N001512200019N0070001N1-00401-00501999999ADDGF100991999999999999999999MA1103011999999REMMET050METAR EDJA 111550Z 03003KT 7000 SKC M04/M05 Q1030;EQDQ01    003SCCGA1
0122109470999992009011116204+47983+010233FM-15+0629EDJA V0200401N001012200019N0070001N1-00501-00501999999ADDGF100991999999999999999999MA1103011999999REMMET050METAR EDJA 111620Z 04002KT 7000 SKC M05/M05 Q1030;EQDQ01    003SCCGA1
0082109470999992009011117204+47983+010233FM-15+0629EDJA V0209999C000012200019N0050001N1-00701-00701999999ADDMA1103011999999MW1101REMMET049METAR EDJA 111720Z 00000KT 5000 BR M07/M07 Q1030;
0131109470999992009011117504+47983+010233FM-15+0629EDJA V0209999V001512200019N0033001N1-00701-00701999999ADDGF100991999999999999999999MA1103011999999MW1101REMMET053METAR EDJA 111750Z VRB03KT 3300 BR NSC M07/M07 Q1030;EQDQ01    003SCCGA1
0131109470999992009011118204+47983+010233FM-15+0629EDJA V0209999C000012200019N0034001N1-00601-00701999999ADDGF100991999999999999999999MA1103011999999MW1101REMMET053METAR EDJA 111820Z 00000KT 3400 BR NSC M06/M07 Q1030;EQDQ01    003SCCGA1
0131109470999992009011118504+47983+010233FM-15+0629EDJA V0201701N001512200019N0050001N1-00801-00901999999ADDGF100991999999999999999999MA1103011999999MW1101REMMET053METAR EDJA 111850Z 17003KT 5000 BR NSC M08/M09 Q1030;EQDQ01    003SCCGA1
0131109470999992009011119204+47983+010233FM-15+0629EDJA V0202201N001012200019N0050001N1-00901-00901999999ADDGF100991999999999999999999MA1103011999999MW1101REMMET053METAR EDJA 111920Z 22002KT 5000 BR NSC M09/M09 Q1030;EQDQ01    003SCCGA1
0131109470999992009011119504+47983+010233FM-15+0629EDJA V0201701N001512200019N0041001N1-00801-00901999999ADDGF100991999999999999999999MA1103011999999MW1101REMMET053METAR EDJA 111950Z 17003KT 4100 BR NSC M08/M09 Q1030;EQDQ01    003SCCGA1
0133109470999992009011120204+47983+010233FM-15+0629EDJA V0201901N001512200019N0023001N1-00801-00901999999ADDGF100991999999999999999999MA1103011999999MW1121REMMET055METAR EDJA 112020Z 19003KT 2300 MIFG NSC M08/M09 Q1030;EQDQ01    003SCCGA1
0131109470999992009011120504+47983+010233FM-15+0629EDJA V0201501N001512200019N0045001N1-01001-01001999999ADDGF100991999999999999999999MA1103011999999MW1101REMMET053METAR EDJA 112050Z 15003KT 4500 BR NSC M10/M10 Q1030;EQDQ01    003SCCGA1
0122109470999992009011204504+47983+010233FM-15+0629EDJA V0209999V000512200019N0070001N1-01301-01401999999ADDGF100991999999999999999999MA1102711999999REMMET050METAR EDJA 120450Z VRB01KT 7000 SKC M13/M14 Q1027;EQDQ01    003SCCGA1
0074109470999992009011205204+47983+010233FM-15+0629EDJA V0201601N00101220001CN0099001N1-01301-01401999999ADDMA1102711999999REMMET047METAR EDJA 120520Z 16002KT CAVOK M13/M14 Q1027;
0074109470999992009011205504+47983+010233FM-15+0629EDJA V0201901N00151220001CN0099001N1-01301-01401999999ADDMA1102711999999REMMET047METAR EDJA 120550Z 19003KT CAVOK M13/M14 Q1027;
0122109470999992009011206204+47983+010233FM-15+0629EDJA V0209999V001012200019N0090001N1-01301-01401999999ADDGF100991999999999999999999MA1102711999999REMMET050METAR EDJA 120620Z VRB02KT 9000 SKC M13/M14 Q1027;EQDQ01    003SCCGA1
0122109470999992009011206504+47983+010233FM-15+0629EDJA V0202301N001012200019N0090001N1-01201-01301999999ADDGF100991999999999999999999MA1102711999999REMMET050METAR EDJA 120650Z 23002KT 9000 SKC M12/M13 Q1027;EQDQ01    003SCCGA1
0074109470999992009011207204+47983+010233FM-15+0629EDJA V0201701N00151220001CN0099001N1-01301-01401999999ADDMA1102711999999REMMET047METAR EDJA 120720Z 17003KT CAVOK M13/M14 Q1027;
0074109470999992009011207504+47983+010233FM-15+0629EDJA V0202101N00211220001CN0099001N1-01201-01301999999ADDMA1102711999999REMMET047METAR EDJA 120750Z 21004KT CAVOK M12/M13 Q1027;
0074109470999992009011208204+47983+010233FM-15+0629EDJA V0202201N00101220001CN0099001N1-01001-01101999999ADDMA1102711999999REMMET047METAR EDJA 120820Z 22002KT CAVOK M10/M11 Q1027;
0074109470999992009011208504+47983+010233FM-15+0629EDJA V0209999C00001220001CN0099001N1-00801-00901999999ADDMA1102711999999REMMET047METAR EDJA 120850Z 00000KT CAVOK M08/M09 Q1027;
0074109470999992009011209204+47983+010233FM-15+0629EDJA V0202401N00151220001CN0099001N1-00701-00701999999ADDMA1102711999999REMMET047METAR EDJA 120920Z 24003KT CAVOK M07/M07 Q1027;
0074109470999992009011209504+47983+010233FM-15+0629EDJA V0202501N00211220001CN0099001N1-00501-00601999999ADDMA1102711999999REMMET047METAR EDJA 120950Z 25004KT CAVOK M05/M06 Q1027;
0074109470999992009011210204+47983+010233FM-15+0629EDJA V0202401N00261220001CN0099001N1-00301-00601999999ADDMA1102711999999REMMET047METAR EDJA 121020Z 24005KT CAVOK M03/M06 Q1027;
0074109470999992009011210504+47983+010233FM-15+0629EDJA V0202101N00211220001CN0099001N1-00201-00601999999ADDMA1102711999999REMMET047METAR EDJA 121050Z 21004KT CAVOK M02/M06 Q1027;
0073109470999992009011211204+47983+010233FM-15+0629EDJA V0202101N00261220001CN0099001N1+00001-00601999999ADDMA1102611999999REMMET046METAR EDJA 121120Z 21005KT CAVOK 00/M06 Q1026;
0084109470999992009011211504+47983+010233FM-15+0629EDJA V0202201N002612200019N0112651N1+00201-00601999999ADDMA1102511999999MW1801REMMET051METAR EDJA 121150Z 22005KT 9999 -SHRA 02/M06 Q1025;
0073109470999992009011212204+47983+010233FM-15+0629EDJA V0202101N00261220001CN0099001N1+00301-00601999999ADDMA1102511999999REMMET046METAR EDJA 121220Z 21005KT CAVOK 03/M06 Q1025;
0073109470999992009011212504+47983+010233FM-15+0629EDJA V0202201N00261220001CN0099001N1+00401-00601999999ADDMA1102511999999REMMET046METAR EDJA 121250Z 22005KT CAVOK 04/M06 Q1025;
0073109470999992009011213204+47983+010233FM-15+0629EDJA V0202101N00261220001CN0099001N1+00401-00701999999ADDMA1102401999999REMMET046METAR EDJA 121320Z 21005KT CAVOK 04/M07 Q1024;
0073109470999992009011213504+47983+010233FM-15+0629EDJA V0202101N00211220001CN0099001N1+00501-00601999999ADDMA1102401999999REMMET046METAR EDJA 121350Z 21004KT CAVOK 05/M06 Q1024;
0073109470999992009011214204+47983+010233FM-15+0629EDJA V0202101N00151220001CN0099001N1+00501-00501999999ADDMA1102401999999REMMET046METAR EDJA 121420Z 21003KT CAVOK 05/M05 Q1024;
0073109470999992009011214504+47983+010233FM-15+0629EDJA V0202701N00211220001CN0099001N1+00401-00501999999ADDMA1102401999999REMMET046METAR EDJA 121450Z 27004KT CAVOK 04/M05 Q1024;
0073109470999992009011215204+47983+010233FM-15+0629EDJA V0202701N00261220001CN0099001N1+00201-00501999999ADDMA1102401999999REMMET046METAR EDJA 121520Z 27005KT CAVOK 02/M05 Q1024;
0073109470999992009011215504+47983+010233FM-15+0629EDJA V0202301N00311220001CN0099001N1+00201-00601999999ADDMA1102401999999REMMET046METAR EDJA 121550Z 23006KT CAVOK 02/M06 Q1024;
0074109470999992009011216204+47983+010233FM-15+0629EDJA V0202001N00261220001CN0099001N1-00101-00501999999ADDMA1102401999999REMMET047METAR EDJA 121620Z 20005KT CAVOK M01/M05 Q1024;
0074109470999992009011216504+47983+010233FM-15+0629EDJA V0209999V00151220001CN0099001N1-00301-00601999999ADDMA1102401999999REMMET047METAR EDJA 121650Z VRB03KT CAVOK M03/M06 Q1024;
0074109470999992009011217204+47983+010233FM-15+0629EDJA V0201901N00261220001CN0099001N1-00301-00701999999ADDMA1102401999999REMMET047METAR EDJA 121720Z 19005KT CAVOK M03/M07 Q1024;
0074109470999992009011217504+47983+010233FM-15+0629EDJA V0201701N00311220001CN0099001N1-00201-00801999999ADDMA1102301999999REMMET047METAR EDJA 121750Z 17006KT CAVOK M02/M08 Q1023;
0074109470999992009011218504+47983+010233FM-15+0629EDJA V0202001N00211220001CN0099001N1-00401-00801999999ADDMA1102301999999REMMET047METAR EDJA 121850Z 20004KT CAVOK M04/M08 Q1023;
0074109470999992009011219204+47983+010233FM-15+0629EDJA V0201901N00211220001CN0099001N1-00401-00801999999ADDMA1102301999999REMMET047METAR EDJA 121920Z 19004KT CAVOK M04/M08 Q1023;
0074109470999992009011219504+47983+010233FM-15+0629EDJA V0201901N00211220001CN0099001N1-00401-00801999999ADDMA1102301999999REMMET047METAR EDJA 121950Z 19004KT CAVOK M04/M08 Q1023;
0074109470999992009011220204+47983+010233FM-15+0629EDJA V0201801N00261220001CN0099001N1-00601-00801999999ADDMA1102301999999REMMET047METAR EDJA 122020Z 18005KT CAVOK M06/M08 Q1023;
0074109470999992009011220504+47983+010233FM-15+0629EDJA V0201801N00211220001CN0099001N1-00501-00801999999ADDMA1102301999999REMMET047METAR EDJA 122050Z 18004KT CAVOK M05/M08 Q1023;
0082109470999992009011304504+47983+010233FM-15+0629EDJA V0202601N00211220001CN0099001N1-00701-00901999999ADDMA1102001999999REMMET055METAR EDJA 130450Z 26004KT 200V320 CAVOK M07/M09 Q1020;
0074109470999992009011305204+47983+010233FM-15+0629EDJA V0202601N00311220001CN0099001N1-00701-00901999999ADDMA1102001999999REMMET047METAR EDJA 130520Z 26006KT CAVOK M07/M09 Q1020;
0074109470999992009011305504+47983+010233FM-15+0629EDJA V0201901N00211220001CN0099001N1-00601-00901999999ADDMA1101901999999REMMET047METAR EDJA 130550Z 19004KT CAVOK M06/M09 Q1019;
0074109470999992009011306204+47983+010233FM-15+0629EDJA V0201701N00211220001CN0099001N1-00801-01001999999ADDMA1101901999999REMMET047METAR EDJA 130620Z 17004KT CAVOK M08/M10 Q1019;
0074109470999992009011306504+47983+010233FM-15+0629EDJA V0201801N00151220001CN0099001N1-00901-01101999999ADDMA1101901999999REMMET047METAR EDJA 130650Z 18003KT CAVOK M09/M11 Q1019;
0074109470999992009011307204+47983+010233FM-15+0629EDJA V0202101N00101220001CN0099001N1-00901-01101999999ADDMA1101801999999REMMET047METAR EDJA 130720Z 21002KT CAVOK M09/M11 Q1018;
0074109470999992009011307504+47983+010233FM-15+0629EDJA V0209999V00101220001CN0099001N1-00801-01001999999ADDMA1101901999999REMMET047METAR EDJA 130750Z VRB02KT CAVOK M08/M10 Q1019;
0074109470999992009011308204+47983+010233FM-15+0629EDJA V0200201N00101220001CN0099001N1-00601-00801999999ADDMA1101801999999REMMET047METAR EDJA 130820Z 02002KT CAVOK M06/M08 Q1018;
0074109470999992009011308504+47983+010233FM-15+0629EDJA V0209999V00051220001CN0099001N1-00301-00601999999ADDMA1101801999999REMMET047METAR EDJA 130850Z VRB01KT CAVOK M03/M06 Q1018;
0074109470999992009011309204+47983+010233FM-15+0629EDJA V0209999V00051220001CN0099001N1-00201-00601999999ADDMA1101801999999REMMET047METAR EDJA 130920Z VRB01KT CAVOK M02/M06 Q1018;
0074109470999992009011309504+47983+010233FM-15+0629EDJA V0209999V00101220001CN0099001N1-00101-00501999999ADDMA1101801999999REMMET047METAR EDJA 130950Z VRB02KT CAVOK M01/M05 Q1018;
0073109470999992009011310204+47983+010233FM-15+0629EDJA V0203201N00101220001CN0099001N1+00001-00501999999ADDMA1101691999999REMMET046METAR EDJA 131020Z 32002KT CAVOK 00/M05 Q1017;
0073109470999992009011310504+47983+010233FM-15+0629EDJA V0209999V00151220001CN0099001N1+00201-00501999999ADDMA1101691999999REMMET046METAR EDJA 131050Z VRB03KT CAVOK 02/M05 Q1017;
0073109470999992009011311204+47983+010233FM-15+0629EDJA V0200101N00151220001CN0099001N1+00201-00501999999ADDMA1101691999999REMMET046METAR EDJA 131120Z 01003KT CAVOK 02/M05 Q1017;
0073109470999992009011311504+47983+010233FM-15+0629EDJA V0209999V00051220001CN0099001N1+00301-00501999999ADDMA1101691999999REMMET046METAR EDJA 131150Z VRB01KT CAVOK 03/M05 Q1017;
0073109470999992009011312504+47983+010233FM-15+0629EDJA V0203201N00151220001CN0099001N1+00401-00401999999ADDMA1101591999999REMMET046METAR EDJA 131250Z 32003KT CAVOK 04/M04 Q1016;
0073109470999992009011313204+47983+010233FM-15+0629EDJA V0203301N00151220001CN0099001N1+00501-00401999999ADDMA1101591999999REMMET046METAR EDJA 131320Z 33003KT CAVOK 05/M04 Q1016;
0073109470999992009011313504+47983+010233FM-15+0629EDJA V0209999V00051220001CN0099001N1+00601-00401999999ADDMA1101491999999REMMET046METAR EDJA 131350Z VRB01KT CAVOK 06/M04 Q1015;
0073109470999992009011314204+47983+010233FM-15+0629EDJA V0203201N00101220001CN0099001N1+00501-00401999999ADDMA1101491999999REMMET046METAR EDJA 131420Z 32002KT CAVOK 05/M04 Q1015;
0073109470999992009011314504+47983+010233FM-15+0629EDJA V0209999C00001220001CN0099001N1+00501-00301999999ADDMA1101491999999REMMET046METAR EDJA 131450Z 00000KT CAVOK 05/M03 Q1015;
0073109470999992009011315204+47983+010233FM-15+0629EDJA V0209999C00001220001CN0099001N1+00501-00301999999ADDMA1101491999999REMMET046METAR EDJA 131520Z 00000KT CAVOK 05/M03 Q1015;
0073109470999992009011315504+47983+010233FM-15+0629EDJA V0202401N00051220001CN0099001N1+00201-00301999999ADDMA1101491999999REMMET046METAR EDJA 131550Z 24001KT CAVOK 02/M03 Q1015;
0074109470999992009011316204+47983+010233FM-15+0629EDJA V0201201N00211220001CN0099001N1-00101-00401999999ADDMA1101491999999REMMET047METAR EDJA 131620Z 12004KT CAVOK M01/M04 Q1015;
0074109470999992009011316504+47983+010233FM-15+0629EDJA V0201501N00151220001CN0099001N1-00301-00501999999ADDMA1101491999999REMMET047METAR EDJA 131650Z 15003KT CAVOK M03/M05 Q1015;
0074109470999992009011317204+47983+010233FM-15+0629EDJA V0202301N00151220001CN0099001N1-00301-00601999999ADDMA1101491999999REMMET047METAR EDJA 131720Z 23003KT CAVOK M03/M06 Q1015;
0074109470999992009011317504+47983+010233FM-15+0629EDJA V0202001N00261220001CN0099001N1-00401-00701999999ADDMA1101491999999REMMET047METAR EDJA 131750Z 20005KT CAVOK M04/M07 Q1015;
0074109470999992009011318204+47983+010233FM-15+0629EDJA V0201801N00151220001CN0099001N1-00301-00601999999ADDMA1101491999999REMMET047METAR EDJA 131820Z 18003KT CAVOK M03/M06 Q1015;
0074109470999992009011318504+47983+010233FM-15+0629EDJA V0201501N00151220001CN0099001N1-00401-00601999999ADDMA1101491999999REMMET047METAR EDJA 131850Z 15003KT CAVOK M04/M06 Q1015;
0074109470999992009011319204+47983+010233FM-15+0629EDJA V0201501N00211220001CN0099001N1-00401-00601999999ADDMA1101491999999REMMET047METAR EDJA 131920Z 15004KT CAVOK M04/M06 Q1015;
0074109470999992009011319504+47983+010233FM-15+0629EDJA V0201501N00051220001CN0099001N1-00601-00801999999ADDMA1101391999999REMMET047METAR EDJA 131950Z 15001KT CAVOK M06/M08 Q1014;
0074109470999992009011320204+47983+010233FM-15+0629EDJA V0201701N00151220001CN0099001N1-00701-00801999999ADDMA1101391999999REMMET047METAR EDJA 132020Z 17003KT CAVOK M07/M08 Q1014;
0074109470999992009011320504+47983+010233FM-15+0629EDJA V0202101N00211220001CN0099001N1-00601-00701999999ADDMA1101391999999REMMET047METAR EDJA 132050Z 21004KT CAVOK M06/M07 Q1014;
0074109470999992009011404504+47983+010233FM-15+0629EDJA V0202501N00211220001CN0099001N1-00501-00701999999ADDMA1101291999999REMMET047METAR EDJA 140450Z 25004KT CAVOK M05/M07 Q1013;
0074109470999992009011405204+47983+010233FM-15+0629EDJA V0202101N00151220001CN0099001N1-00401-00701999999ADDMA1101291999999REMMET047METAR EDJA 140520Z 21003KT CAVOK M04/M07 Q1013;
0074109470999992009011405504+47983+010233FM-15+0629EDJA V0202101N00261220001CN0099001N1-00301-00601999999ADDMA1101291999999REMMET047METAR EDJA 140550Z 21005KT CAVOK M03/M06 Q1013;
0074109470999992009011406204+47983+010233FM-15+0629EDJA V0202001N00211220001CN0099001N1-00301-00601999999ADDMA1101291999999REMMET047METAR EDJA 140620Z 20004KT CAVOK M03/M06 Q1013;
0074109470999992009011406504+47983+010233FM-15+0629EDJA V0202301N00211220001CN0099001N1-00301-00601999999ADDMA1101291999999REMMET047METAR EDJA 140650Z 23004KT CAVOK M03/M06 Q1013;
0074109470999992009011407204+47983+010233FM-15+0629EDJA V0202201N00211220001CN0099001N1-00301-00601999999ADDMA1101291999999REMMET047METAR EDJA 140720Z 22004KT CAVOK M03/M06 Q1013;
0074109470999992009011407504+47983+010233FM-15+0629EDJA V0202301N00211220001CN0099001N1-00301-00601999999ADDMA1101291999999REMMET047METAR EDJA 140750Z 23004KT CAVOK M03/M06 Q1013;
0074109470999992009011408204+47983+010233FM-15+0629EDJA V0202201N00361220001CN0099001N1-00201-00501999999ADDMA1101291999999REMMET047METAR EDJA 140820Z 22007KT CAVOK M02/M05 Q1013;
0074109470999992009011408504+47983+010233FM-15+0629EDJA V0202001N00311220001CN0099001N1-00301-00401999999ADDMA1101291999999REMMET047METAR EDJA 140850Z 20006KT CAVOK M03/M04 Q1013;
0074109470999992009011409204+47983+010233FM-15+0629EDJA V0202001N00261220001CN0099001N1-00201-00401999999ADDMA1101391999999REMMET047METAR EDJA 140920Z 20005KT CAVOK M02/M04 Q1014;
0074109470999992009011409504+47983+010233FM-15+0629EDJA V0202001N00261220001CN0099001N1-00201-00401999999ADDMA1101391999999REMMET047METAR EDJA 140950Z 20005KT CAVOK M02/M04 Q1014;
0074109470999992009011410204+47983+010233FM-15+0629EDJA V0202101N00261220001CN0099001N1-00101-00401999999ADDMA1101391999999REMMET047METAR EDJA 141020Z 21005KT CAVOK M01/M04 Q1014;
0074109470999992009011410504+47983+010233FM-15+0629EDJA V0202201N00411220001CN0099001N1+00001-00501999999ADDMA1101291999999REMMET047METAR EDJA 141050Z 22008KT CAVOK M00/M05 Q1013;
0074109470999992009011411204+47983+010233FM-15+0629EDJA V0202101N00411220001CN0099001N1+00001-00401999999ADDMA1101291999999REMMET047METAR EDJA 141120Z 21008KT CAVOK M00/M04 Q1013;
0073109470999992009011411504+47983+010233FM-15+0629EDJA V0202301N00411220001CN0099001N1+00101-00401999999ADDMA1101291999999REMMET046METAR EDJA 141150Z 23008KT CAVOK 01/M04 Q1013;
0073109470999992009011412204+47983+010233FM-15+0629EDJA V0202401N00411220001CN0099001N1+00101-00501999999ADDMA1101291999999REMMET046METAR EDJA 141220Z 24008KT CAVOK 01/M05 Q1013;
0073109470999992009011412504+47983+010233FM-15+0629EDJA V0202101N00261220001CN0099001N1+00101-00501999999ADDMA1101291999999REMMET046METAR EDJA 141250Z 21005KT CAVOK 01/M05 Q1013;
0073109470999992009011413204+47983+010233FM-15+0629EDJA V0202301N00261220001CN0099001N1+00101-00501999999ADDMA1101291999999REMMET046METAR EDJA 141320Z 23005KT CAVOK 01/M05 Q1013;
0073109470999992009011413504+47983+010233FM-15+0629EDJA V0202101N00211220001CN0099001N1+00201-00401999999ADDMA1101291999999REMMET046METAR EDJA 141350Z 21004KT CAVOK 02/M04 Q1013;
0121109470999992009011414204+47983+010233FM-15+0629EDJA V0202101N002612200019N0112651N1+00101-00401999999ADDGA1021+009901999GF102991999999999999999999MA1101291999999REMMET052METAR EDJA 141420Z 21005KT 9999 FEW033 01/M04 Q1013;
0144109470999992009011415504+47983+010233FM-15+0629EDJA V0202101N003110150019N0112651N1+00001-00401999999ADDGA1021+012901999GA2071+015001999GF107991999999999999999999MA1101391999999REMMET059METAR EDJA 141550Z 21006KT 9999 FEW043 BKN059 00/M04 Q1014;
0145109470999992009011416204+47983+010233FM-15+0629EDJA V0202201N001510150019N0112651N1+00001-00301999999ADDGA1041+012601999GA2071+015001999GF107991999999999999999999MA1101391999999REMMET060METAR EDJA 141620Z 22003KT 9999 SCT042 BKN059 M00/M03 Q1014;
0122109470999992009011416504+47983+010233FM-15+0629EDJA V0202501N001010087019N0112651N1+00001-00401999999ADDGA1071+008701999GF107991999999999999999999MA1101391999999REMMET053METAR EDJA 141650Z 25002KT 9999 BKN029 M00/M04 Q1014;
0144109470999992009011417204+47983+010233FM-15+0629EDJA V0202601N002610084019N0112651N1+00001-00401999999ADDGA1071+008401999GA2071+011101999GF107991999999999999999999MA1101391999999REMMET059METAR EDJA 141720Z 26005KT 9999 BKN028 BKN037 00/M04 Q1014;
0122109470999992009011417504+47983+010233FM-15+0629EDJA V0202501N002110090019N0112651N1+00001-00401999999ADDGA1071+009001999GF107991999999999999999999MA1101491999999REMMET053METAR EDJA 141750Z 25004KT 9999 BKN030 M00/M04 Q1015;
0145109470999992009011418204+47983+010233FM-15+0629EDJA V0202401N001510141019N0112651N1-00101-00401999999ADDGA1041+006901999GA2071+014101999GF107991999999999999999999MA1101491999999REMMET060METAR EDJA 141820Z 24003KT 9999 SCT023 BKN047 M01/M04 Q1015;
0145109470999992009011418504+47983+010233FM-15+0629EDJA V0202201N002110075019N0112651N1-00101-00401999999ADDGA1071+007501999GA2071+011401999GF107991999999999999999999MA1101491999999REMMET060METAR EDJA 141850Z 22004KT 9999 BKN025 BKN038 M01/M04 Q1015;
0122109470999992009011419204+47983+010233FM-15+0629EDJA V0202301N002610075019N0112651N1-00101-00401999999ADDGA1071+007501999GF107991999999999999999999MA1101491999999REMMET053METAR EDJA 141920Z 23005KT 9999 BKN025 M01/M04 Q1015;
0122109470999992009011420204+47983+010233FM-15+0629EDJA V0202001N001510111019N0112651N1-00201-00401999999ADDGA1071+011101999GF107991999999999999999999MA1101491999999REMMET053METAR EDJA 142020Z 20003KT 9999 BKN037 M02/M04 Q1015;
0122109470999992009011420504+47983+010233FM-15+0629EDJA V0202001N001010126019N0112651N1-00101-00401999999ADDGA1071+012601999GF107991999999999999999999MA1101491999999REMMET053METAR EDJA 142050Z 20002KT 9999 BKN042 M01/M04 Q1015;
0122109470999992009011505204+47983+010233FM-15+0629EDJA V0200601N002610105019N0060001N1-00201-00301999999ADDGA1071+010501999GF107991999999999999999999MA1101691999999REMMET053METAR EDJA 150520Z 06005KT 6000 BKN035 M02/M03 Q1017;
0122109470999992009011505504+47983+010233FM-15+0629EDJA V0200601N002610105019N0060001N1-00201-00301999999ADDGA1071+010501999GF107991999999999999999999MA1101691999999REMMET053METAR EDJA 150550Z 06005KT 6000 BKN035 M02/M03 Q1017;
0122109470999992009011506204+47983+010233FM-15+0629EDJA V0200301N001510030019N0060001N1-00201-00301999999ADDGA1071+003001999GF107991999999999999999999MA1101691999999REMMET053METAR EDJA 150620Z 03003KT 6000 BKN010 M02/M03 Q1017;
0122109470999992009011506504+47983+010233FM-15+0629EDJA V0200401N001010105019N0060001N1-00201-00301999999ADDGA1071+010501999GF107991999999999999999999MA1101691999999REMMET053METAR EDJA 150650Z 04002KT 6000 BKN035 M02/M03 Q1017;
0122109470999992009011507204+47983+010233FM-15+0629EDJA V0200401N002610021019N0060001N1-00201-00301999999ADDGA1071+002101999GF107991999999999999999999MA1101801999999REMMET053METAR EDJA 150720Z 04005KT 6000 BKN007 M02/M03 Q1018;
0122109470999992009011507504+47983+010233FM-15+0629EDJA V0200501N003110024019N0060001N1-00201-00201999999ADDGA1071+002401999GF107991999999999999999999MA1101801999999REMMET053METAR EDJA 150750Z 05006KT 6000 BKN008 M02/M02 Q1018;
0131109470999992009011508204+47983+010233FM-15+0629EDJA V0200701N002610030019N0050001N1-00101-00201999999ADDGA1071+003001999GF107991999999999999999999MA1101801999999MW1101REMMET056METAR EDJA 150820Z 07005KT 5000 BR BKN010 M01/M02 Q1018;
0131109470999992009011508504+47983+010233FM-15+0629EDJA V0200701N003110021019N0050001N1-00101-00201999999ADDGA1071+002101999GF107991999999999999999999MA1101801999999MW1101REMMET056METAR EDJA 150850Z 07006KT 5000 BR BKN007 M01/M02 Q1018;
0131109470999992009011509204+47983+010233FM-15+0629EDJA V0200801N003110021019N0045001N1-00101-00201999999ADDGA1071+002101999GF107991999999999999999999MA1101801999999MW1101REMMET056METAR EDJA 150920Z 08006KT 4500 BR BKN007 M01/M02 Q1018;
0130109470999992009011509504+47983+010233FM-15+0629EDJA V0200801N002610030019N0060001N1+00001-00201999999ADDGA1071+003001999GF107991999999999999999999MA1101801999999REMMET061METAR EDJA 150950Z 08005KT 040V120 6000 BKN010 M00/M02 Q1018;
0121109470999992009011510204+47983+010233FM-15+0629EDJA V0200901N004112200019N0112651N1+00101-00201999999ADDGA1041+003901999GF104991999999999999999999MA1101801999999REMMET052METAR EDJA 151020Z 09008KT 9999 SCT013 01/M02 Q1018;
0129109470999992009011510504+47983+010233FM-15+0629EDJA V0200801N004612200019N0112651N1+00001-00201999999ADDGA1041+003601999GF104991999999999999999999MA1101801999999REMMET060METAR EDJA 151050Z 08009KT 050V110 9999 SCT012 00/M02 Q1018;
0121109470999992009011511204+47983+010233FM-15+0629EDJA V0200801N005112200019N0112651N1+00001-00201999999ADDGA1041+003601999GF104991999999999999999999MA1101801999999REMMET052METAR EDJA 151120Z 08010KT 9999 SCT012 00/M02 Q1018;
0121109470999992009011511504+47983+010233FM-15+0629EDJA V0201201N004612200019N0112651N1+00101-00201999999ADDGA1021+003601999GF102991999999999999999999MA1101691999999REMMET052METAR EDJA 151150Z 12009KT 9999 FEW012 01/M02 Q1017;
