0143109470999992015010107504+47989+010240FM-15+062999999V0201201N001512200019N009999199-01301-01401999999ADDGF100991999999999999999999MA1103401999999MW1111MW2121REMMET078METAR EDJA 010750Z 12003KT 9999 4000NE BCFG MIFG NSC M13/M14 Q1034      RMK A=
0143109470999992015010108204+47989+010240FM-15+062999999V0201401N001512200019N009999199-01201-01301999999ADDGF100991999999999999999999MA1103401999999MW1111MW2121REMMET078METAR EDJA 010820Z 14003KT 9999 4200NE BCFG MIFG NSC M12/M13 Q1034      RMK B=
0136109470999992015010108504+47989+010240FM-15+062999999V0201901N002612200019N009999199-01101-01201999999ADDGF100991999999999999999999MA1103401999999MW1111MW2121REMMET071METAR COR EDJA 010850Z 19005KT 9999 4400NE BCFG MIFG NSC M11/M12 Q1034=
0080109470999992015010109204+47989+010240FM-15+062999999V0203201N002619999999Y999999999-01101-01201999999ADDMA1103501999999REMMET053METAR EDJA 010920Z 32005KT CAVOK M11/M12 Q1035 RMK D=
0080109470999992015010109504+47989+010240FM-15+062999999V0209999V001019999999Y999999999-00801-00901999999ADDMA1103501999999REMMET053METAR EDJA 010950Z VRB02KT CAVOK M08/M09 Q1035 RMK E=
0080109470999992015010110204+47989+010240FM-15+062999999V0209999V001019999999Y999999999-00801-00901999999ADDMA1103601999999REMMET053METAR EDJA 011020Z VRB02KT CAVOK M08/M09 Q1036 RMK F=
0080109470999992015010110504+47989+010240FM-15+062999999V0202001N001519999999Y999999999-00501-00601999999ADDMA1103601999999REMMET053METAR EDJA 011050Z 20003KT CAVOK M05/M06 Q1036 RMK G=
0139109470999992015010111104+47989+010240FM-16+062999999V0200301V002112200019N005000199-00501-00601999999ADDGF100991999999999999999999MA1103501999999MW1111REMMET080SPECI EDJA 011110Z 03004KT 350V080 5000 1500E PRFG NSC M05/M06 Q1035      RMK H=
0144109470999992015010111164+47989+010240FM-16+062999999V0200201V003119999999N000900199-00501-00601999999ADDGF109991999999999999999999MA1103501999999MW1441REMMET085SPECI EDJA 011116Z 02006KT 350V050 0900 R24/M0350D FG VV/// M05/M06      Q1035 RMK J=
0149109470999992015010111204+47989+010240FM-15+062999999V0200201V002612200019N005000199-00501-00601999999ADDGF100991999999999999999999MA1103501999999MW1111REMMET090METAR EDJA 011120Z 02005KT 350V050 5000 2100E R24/M0500 PRFG NSC M05/M06      Q1035 RMK I=
0141109470999992015010111504+47989+010240FM-15+062999999V0209999V001512200019N001700199-00501-00601999999ADDGF100991999999999999999999MA1103401999999MW1111REMMET082METAR EDJA 011150Z VRB03KT 1700 R24/M0350V0900U PRFG NSC M05/M06 Q1034      RMK K=
0138109470999992015010112204+47989+010240FM-15+062999999V0202901N001012200019N002000199-00501-00601999999ADDGF100991999999999999999999MA1103401999999MW1111REMMET079METAR COR EDJA 011220Z 29002KT 2000 R24/700N PRFG NSC M05/M06 Q1034      RMK L=
0130109470999992015010112224+47989+010240FM-16+062999999V0209999V001012200019N000800199-00501-00601999999ADDGF100991999999999999999999MA1103401999999REMMET077SPECI EDJA 011222Z VRB02KT 0800 R24/M0350V1200D NSC M05/M06 Q1034 RMK      L=
0147109470999992015010112254+47989+010240FM-15+062999999V0209999V001012200019N008000199-00501-00601999999ADDGF100991999999999999999999MA1103401999999MW1111REMMET088METAR EDJA 011225Z VRB02KT 8000 0800E R24/M0350V1200D PRFG NSC M05/M06      Q1034 RMK L=
0151109470999992015010112254+47989+010240FM-16+062999999V0209999V001012200019N008000199-00501-00601999999ADDGF100991999999999999999999MA1103401999999MW1111REMMET092SPECI COR EDJA 011225Z VRB02KT 8000 0800E R24/M0350V1200D PRFG NSC      M05/M06 Q1034 RMK L=
0109109470999992015010112504+47989+010240FM-15+062999999V0202001N002612200019N006000199-00601-00601999999ADDGF100991999999999999999999MA1103401999999REMMET056METAR EDJA 011250Z 20005KT 6000 NSC M06/M06 Q1034 RMK N=
0109109470999992015010113204+47989+010240FM-15+062999999V0202101N003112200019N007000199-00501-00601999999ADDGF100991999999999999999999MA1103401999999REMMET056METAR EDJA 011320Z 21006KT 7000 NSC M05/M06 Q1034 RMK O=
0080109470999992015010113504+47989+010240FM-15+062999999V0209999V001519999999Y999999999-00501-00501999999ADDMA1103401999999REMMET053METAR EDJA 011350Z VRB03KT CAVOK M05/M05 Q1034 RMK P=
0109109470999992015010114204+47989+010240FM-15+062999999V0202701N002112200019N008000199-00401-00501999999ADDGF100991999999999999999999MA1103301999999REMMET056METAR EDJA 011420Z 27004KT 8000 NSC M04/M05 Q1033 RMK Q=
0109109470999992015010114504+47989+010240FM-15+062999999V0209999V001512200019N008000199-00501-00601999999ADDGF100991999999999999999999MA1103401999999REMMET056METAR EDJA 011450Z VRB03KT 8000 NSC M05/M06 Q1034 RMK R=
0109109470999992015010115204+47989+010240FM-15+062999999V0209999V001012200019N008000199-00501-00501999999ADDGF100991999999999999999999MA1103401999999REMMET056METAR EDJA 011520Z VRB02KT 8000 NSC M05/M05 Q1034 RMK S=
0109109470999992015010115504+47989+010240FM-15+062999999V0202101N002612200019N005000199-00901-01001999999ADDGF100991999999999999999999MA1103401999999REMMET056METAR EDJA 011550Z 21005KT 5000 NSC M09/M10 Q1034 RMK T=
0118109470999992015010116204+47989+010240FM-15+062999999V0202001N002612200019N003000199-00801-00901999999ADDGF100991999999999999999999MA1103401999999MW1101REMMET059METAR EDJA 011620Z 20005KT 3000 BR NSC M08/M09 Q1034 RMK U=
0109109470999992015010116504+47989+010240FM-15+062999999V0201901N003112200019N004100199-01001-01101999999ADDGF100991999999999999999999MA1103301999999REMMET056METAR EDJA 011650Z 19006KT 4100 NSC M10/M11 Q1033 RMK V=
0109109470999992015010117204+47989+010240FM-15+062999999V0202301N002112200019N005000199-00701-00801999999ADDGF100991999999999999999999MA1103401999999REMMET056METAR EDJA 011720Z 23004KT 5000 NSC M07/M08 Q1034 RMK W=
0147109470999992015010117504+47989+010240FM-15+062999999V0209999V001012200019N001500199-00801-00901999999ADDGF100991999999999999999999MA1103401999999MW1111REMMET088METAR EDJA 011750Z VRB02KT 1500 0350E R24/M0350V0500D PRFG NSC M08/M09      Q1034 RMK X=
0142109470999992015010118204+47989+010240FM-15+062999999V0209999C000012200019N001500199-01101-01301999999ADDGF100991999999999999999999MA1103401999999MW1111REMMET083METAR EDJA 011820Z 00000KT 1500 0200E R24/M0350N PRFG NSC M11/M13 Q1034      RMK Y=
0138109470999992015010118504+47989+010240FM-15+062999999V0202001N001519999999N000800199-01101-01201999999ADDGF109991999999999999999999MA1103401999999MW1481REMMET079METAR EDJA 011850Z 20003KT 0800 R24/M0350U FZFG VV/// M11/M12 Q1034      RMK Z=
0139109470999992015010119204+47989+010240FM-15+062999999V0202401N001512200019N001800199-01201-01301999999ADDGF100991999999999999999999MA1103401999999MW1101REMMET080METAR EDJA 011920Z 24003KT 1800 R24/0900VP2000U BR NSC M12/M13 Q1034      RMK A=
0140109470999992015010119504+47989+010240FM-15+062999999V0202101N004112200019N001200199-00901-00901999999ADDGF100991999999999999999999MA1103401999999MW1111REMMET081METAR EDJA 011950Z 21008KT 1200 R24/0400V0800N BCFG NSC M09/M09 Q1034      RMK B=
0137109470999992015010120204+47989+010240FM-15+062999999V0202001N003619999999N000600199-00701-00801999999ADDGF109991999999999999999999MA1103401999999MW1481REMMET078METAR EDJA 012020Z 20007KT 0600 R24/0750N FZFG VV/// M07/M08 Q1034      RMK C=
0142109470999992015010121204+47989+010240FM-15+062999999V0202301N002619999999N000900199-00601-00601999999ADDGF109991999999999999999999MA1103401999999MW1481REMMET083METAR EDJA 012120Z 23005KT 0900 R24/0900V1800U FZFG VV/// M06/M06 Q1034      RMK D=
0109109470999992015010204504+47989+010240FM-15+062999999V0202301N009312200019N007000199-00301-00401999999ADDGF100991999999999999999999MA1103101999999REMMET056METAR EDJA 020450Z 23018KT 7000 NSC M03/M04 Q1031 RMK A=
0109109470999992015010205204+47989+010240FM-15+062999999V0202101N009812200019N009000199-00301-00401999999ADDGF100991999999999999999999MA1103001999999REMMET056METAR EDJA 020520Z 21019KT 9000 NSC M03/M04 Q1030 RMK B=
0109109470999992015010205504+47989+010240FM-15+062999999V0202301N007712200019N007000199-00301-00401999999ADDGF100991999999999999999999MA1103101999999REMMET056METAR EDJA 020550Z 23015KT 7000 NSC M03/M04 Q1031 RMK C=
0080109470999992015010206204+47989+010240FM-15+062999999V0202301N007219999999Y999999999-00301-00401999999ADDMA1103101999999REMMET053METAR EDJA 020620Z 23014KT CAVOK M03/M04 Q1031 RMK D=
0080109470999992015010206504+47989+010240FM-15+062999999V0202101N007719999999Y999999999-00401-00501999999ADDMA1103101999999REMMET053METAR EDJA 020650Z 21015KT CAVOK M04/M05 Q1031 RMK E=
0080109470999992015010207204+47989+010240FM-15+062999999V0202001N009319999999Y999999999-00201-00301999999ADDMA1103001999999REMMET053METAR EDJA 020720Z 20018KT CAVOK M02/M03 Q1030 RMK F=
0080109470999992015010207504+47989+010240FM-15+062999999V0202501N005719999999Y999999999-00101-00301999999ADDMA1103101999999REMMET053METAR EDJA 020750Z 25011KT CAVOK M01/M03 Q1031 RMK G=
0080109470999992015010208204+47989+010240FM-15+062999999V0202401N006219999999Y999999999-00101-00301999999ADDMA1103101999999REMMET053METAR EDJA 020820Z 24012KT CAVOK M01/M03 Q1031 RMK H=
0080109470999992015010208504+47989+010240FM-15+062999999V0202301N007219999999Y999999999-00101-00301999999ADDMA1103101999999REMMET053METAR EDJA 020850Z 23014KT CAVOK M01/M03 Q1031 RMK I=
0079109470999992015010209204+47989+010240FM-15+062999999V0202201N009819999999Y999999999+00101-00201999999ADDMA1103101999999REMMET052METAR EDJA 020920Z 22019KT CAVOK 01/M02 Q1031 RMK J=
0079109470999992015010209504+47989+010240FM-15+062999999V0202201N008819999999Y999999999+00101-00201999999ADDMA1103101999999REMMET052METAR EDJA 020950Z 22017KT CAVOK 01/M02 Q1031 RMK K=
0079109470999992015010210204+47989+010240FM-15+062999999V0202201N010819999999Y999999999+00201-00101999999ADDMA1103101999999REMMET052METAR EDJA 021020Z 22021KT CAVOK 02/M01 Q1031 RMK L=
0159109470999992015010210504+47989+010240FM-15+062999999V0202201N009810146319N009999199+00201-00101999999ADDGA1071+014631999GE19MSL   +99999+99999GF199999071999014631999999MA1103101999999MW1611REMMET062METAR EDJA 021050Z 22019KT 9999 -RA BKN048 02/M01 Q1031 RMK M=
0159109470999992015010211204+47989+010240FM-15+062999999V0202201N009310146319N009999199+00201-00101999999ADDGA1071+014631999GE19MSL   +99999+99999GF199999071999014631999999MA1103101999999MW1611REMMET062METAR EDJA 021120Z 22018KT 9999 -RA BKN048 02/M01 Q1031 RMK N=
0153109470999992015010211504+47989+010240FM-15+062999999V0202201N010310146319N009999199+00201-00101999999ADDGA1071+014631999GE19MSL   +99999+99999GF199999071999014631999999MA1103001999999MW1611REMMET056METAR EDJA 021150Z 22020KT 9999 -RA BKN048 02/M01 Q1030=
0159109470999992015010212204+47989+010240FM-15+062999999V0202301N009319999999N009999199+00201-00101999999ADDGA1041+015851999GE19MSL   +99999+99999GF199999041999015851999999MA1103001999999MW1611REMMET062METAR EDJA 021220Z 23018KT 9999 -RA SCT052 02/M01 Q1030 RMK R=
0159109470999992015010212504+47989+010240FM-15+062999999V0202301N006719999999N008000199+00201-00101999999ADDGA1041+013721999GE19MSL   +99999+99999GF199999041999013721999999MA1103101999999MW1611REMMET062METAR EDJA 021250Z 23013KT 8000 -RA SCT045 02/M01 Q1031 RMK S=
0159109470999992015010213204+47989+010240FM-15+062999999V0202401N008819999999N009999199+00201+00001999999ADDGA1041+012191999GE19MSL   +99999+99999GF199999041999012191999999MA1103101999999MW1611REMMET062METAR EDJA 021320Z 24017KT 9999 -RA SCT040 02/M00 Q1031 RMK T=
0158109470999992015010213504+47989+010240FM-15+062999999V0202301N010819999999N009999199+00201+00001999999ADDGA1041+011581999GE19MSL   +99999+99999GF199999041999011581999999MA1103101999999MW1631REMMET061METAR EDJA 021350Z 23021KT 9999 RA SCT038 02/M00 Q1031 RMK U=
0158109470999992015010214204+47989+010240FM-15+062999999V0202201N010319999999N009999199+00201+00001999999ADDGA1041+012191999GE19MSL   +99999+99999GF199999041999012191999999MA1103101999999MW1631REMMET061METAR EDJA 021420Z 22020KT 9999 RA SCT040 02/M00 Q1031 RMK V=
0158109470999992015010214504+47989+010240FM-15+062999999V0202201N010319999999N009999199+00201+00001999999ADDGA1041+009751999GE19MSL   +99999+99999GF199999041999009751999999MA1103101999999MW1631REMMET061METAR EDJA 021450Z 22020KT 9999 RA SCT032 02/M00 Q1031 RMK W=
0157109470999992015010215204+47989+010240FM-15+062999999V0202301N009319999999N009999199+00201+00001999999ADDGA1041+008531999GE19MSL   +99999+99999GF199999041999008531999999MA1103101999999MW1631REMMET060METAR EDJA 021520Z 23018KT 9999 RA SCT028 02/00 Q1031 RMK Y=
0157109470999992015010215504+47989+010240FM-15+062999999V0202301N010319999999N009999199+00201+00001999999ADDGA1041+008841999GE19MSL   +99999+99999GF199999041999008841999999MA1103201999999MW1631REMMET060METAR EDJA 021550Z 23020KT 9999 RA SCT029 02/00 Q1032 RMK Z=
0157109470999992015010216204+47989+010240FM-15+062999999V0202301N009310091419N007000199+00201+00001999999ADDGA1071+009141999GE19MSL   +99999+99999GF199999071999009141999999MA1103201999999MW1631REMMET060METAR EDJA 021620Z 23018KT 7000 RA BKN030 02/00 Q1032 RMK A=
0164109470999992015010216504+47989+010240FM-15+062999999V0202301N009310073219N009000199+00201+00001999999ADDGA1071+007321999GE19MSL   +99999+99999GF199999071999007321999999MA1103201999999MW1611REMMET067METAR EDJA 021650Z 23018KT 9000 -RA BKN024 02/M00 Q1032 RERA RMK B=
0158109470999992015010217204+47989+010240FM-15+062999999V0202501N008210064019N009000199+00201+00001999999ADDGA1071+006401999GE19MSL   +99999+99999GF199999071999006401999999MA1103201999999MW1611REMMET061METAR EDJA 021720Z 25016KT 9000 -RA BKN021 02/00 Q1032 RMK C=
0158109470999992015010217504+47989+010240FM-15+062999999V0202301N008210061019N008000199+00201+00001999999ADDGA1071+006101999GE19MSL   +99999+99999GF199999071999006101999999MA1103201999999MW1611REMMET061METAR EDJA 021750Z 23016KT 8000 -RA BKN020 02/00 Q1032 RMK D=
0153109470999992015010218204+47989+010240FM-15+062999999V0202401N008210061019N009999199+00201+00001999999ADDGA1071+006101999GE19MSL   +99999+99999GF199999071999006101999999MA1103201999999REMMET062METAR EDJA 021820Z 24016KT 9999 BKN020 02/00 Q1032 RERA RMK E=
0158109470999992015010218504+47989+010240FM-15+062999999V0202401N007710045719N006000199+00201+00001999999ADDGA1071+004571999GE19MSL   +99999+99999GF199999071999004571999999MA1103301999999MW1611REMMET061METAR EDJA 021850Z 24015KT 6000 -RA BKN015 02/00 Q1033 RMK G=
0152109470999992015010219204+47989+010240FM-15+062999999V0202401N007710036619N004600199+00101+00101999999ADDGA1071+003661999GE19MSL   +99999+99999GF199999071999003661999999MA1103301999999MW1611REMMET055METAR EDJA 021920Z 24015KT 4600 -RA BKN012 01/01 Q1033=
0158109470999992015010219504+47989+010240FM-15+062999999V0202401N006710030519N005000199+00101+00101999999ADDGA1071+003051999GE19MSL   +99999+99999GF199999071999003051999999MA1103401999999MW1611REMMET061METAR EDJA 021950Z 24013KT 5000 -RA BKN010 01/01 Q1034 RMK J=
0158109470999992015010220504+47989+010240FM-15+062999999V0202301N007210030519N009999199+00101+00101999999ADDGA1071+003051999GE19MSL   +99999+99999GF199999071999003051999999MA1103401999999MW1611REMMET061METAR EDJA 022050Z 23014KT 9999 -RA BKN010 01/01 Q1034 RMK K=
0157109470999992015010304504+47989+010240FM-15+062999999V0202801N003610006119N002500199+00101+00001999999ADDGA1081+000611999GE19MSL   +99999+99999GF199999081999000611999999MA1103201999999MW1101REMMET060METAR EDJA 030450Z 28007KT 2500 BR OVC002 01/00 Q1032 RMK B=
0157109470999992015010305204+47989+010240FM-15+062999999V0202401N003610009119N003500199+00001+00001999999ADDGA1081+000911999GE19MSL   +99999+99999GF199999081999000911999999MA1103201999999MW1101REMMET060METAR EDJA 030520Z 24007KT 3500 BR OVC003 00/00 Q1032 RMK D=
0180109470999992015010305504+47989+010240FM-15+062999999V0202501N002610073219N004500199+00001+00001999999ADDGA1041+001521999GA2081+007321999GE19MSL   +99999+99999GF199999041999001521999999MA1103101999999MW1101REMMET067METAR EDJA 030550Z 25005KT 4500 BR SCT005 OVC024 00/00 Q1031 RMK E=
0180109470999992015010306204+47989+010240FM-15+062999999V0202201N001510015219N005000199+00001+00001999999ADDGA1071+001521999GA2071+007321999GE19MSL   +99999+99999GF199999071999001521999999MA1103101999999MW1101REMMET067METAR EDJA 030620Z 22003KT 5000 BR BKN005 BKN024 00/00 Q1031 RMK F=
0180109470999992015010306504+47989+010240FM-15+062999999V0202301N002610009119N005000199+00101+00001999999ADDGA1071+000911999GA2081+003051999GE19MSL   +99999+99999GF199999071999000911999999MA1103101999999MW1101REMMET067METAR EDJA 030650Z 23005KT 5000 BR BKN003 OVC010 01/00 Q1031 RMK G=
0157109470999992015010307204+47989+010240FM-15+062999999V0202601N001510021319N003100199+00101+00001999999ADDGA1071+002131999GE19MSL   +99999+99999GF199999071999002131999999MA1103101999999MW1101REMMET060METAR EDJA 030720Z 26003KT 3100 BR BKN007 01/00 Q1031 RMK H=
0157109470999992015010307504+47989+010240FM-15+062999999V0202201N003610018319N005000199+00101+00001999999ADDGA1071+001831999GE19MSL   +99999+99999GF199999071999001831999999MA1103001999999MW1101REMMET060METAR EDJA 030750Z 22007KT 5000 BR BKN006 01/00 Q1030 RMK I=
0157109470999992015010308074+47989+010240FM-16+062999999V0202201N004110012219N001800199+00001+00001999999ADDGA1071+001221999GE19MSL   +99999+99999GF199999071999001221999999MA1103001999999MW1101REMMET060SPECI EDJA 030807Z 22008KT 1800 BR BKN004 00/00 Q1030 RMK J=
0139109470999992015010308204+47989+010240FM-15+062999999V0202001N004619999999N000800199+00001+00001999999ADDGF109991999999999999999999MA1103001999999MW1441REMMET080METAR EDJA 030820Z 20009KT 0800 R24/1100VP2000D FG VV/// 00/00 Q1030      RMK K=
0157109470999992015010308504+47989+010240FM-15+062999999V0202101N004610006119N003900199+00101+00001999999ADDGA1071+000611999GE19MSL   +99999+99999GF199999071999000611999999MA1102901999999MW1101REMMET060METAR EDJA 030850Z 21009KT 3900 BR BKN002 01/00 Q1029 RMK L=
0142109470999992015010309204+47989+010240FM-15+062999999V0202201N005110015219N009999199+00101+00101999999ADDGA1071+001521999GE19MSL   +99999+99999GF199999071999001521999999MA1102801999999REMMET051METAR EDJA 030920Z 22010KT 9999 BKN005 01/01 Q1028=
0148109470999992015010309504+47989+010240FM-15+062999999V0202201N005710015219N009999199+00101+00101999999ADDGA1071+001521999GE19MSL   +99999+99999GF199999071999001521999999MA1102801999999REMMET057METAR EDJA 030950Z 22011KT 9999 BKN005 01/01 Q1028 RMK N=
0148109470999992015010310204+47989+010240FM-15+062999999V0202201N004610015219N009999199+00201+00101999999ADDGA1071+001521999GE19MSL   +99999+99999GF199999071999001521999999MA1102701999999REMMET057METAR EDJA 031020Z 22009KT 9999 BKN005 02/01 Q1027 RMK O=
0148109470999992015010310504+47989+010240FM-15+062999999V0202301N005110015219N009999199+00201+00101999999ADDGA1071+001521999GE19MSL   +99999+99999GF199999071999001521999999MA1102601999999REMMET057METAR EDJA 031050Z 23010KT 9999 BKN005 02/01 Q1026 RMK P=
0171109470999992015010311204+47989+010240FM-15+062999999V0202401N007210015219N009999199+00201+00101999999ADDGA1071+001521999GA2071+029871999GE19MSL   +99999+99999GF199999071999001521999999MA1102501999999REMMET064METAR EDJA 031120Z 24014KT 9999 BKN005 BKN098 02/01 Q1025 RMK Q=
0171109470999992015010311504+47989+010240FM-15+062999999V0202401N00821013721CN009999199+00301+00101999999ADDGA1021+002441999GA2041+013721999GE19MSL   +99999+99999GF199999021999002441999999MA1102501999999REMMET064METAR EDJA 031150Z 24016KT 9999 FEW008 SCT045 03/01 Q1025 RMK R=
0171109470999992015010312204+47989+010240FM-15+062999999V0202401N006710253019N009999199+00201+00101999999ADDGA1041+002741999GA2071+025301999GE19MSL   +99999+99999GF199999041999002741999999MA1102501999999REMMET064METAR EDJA 031220Z 24013KT 9999 SCT009 BKN083 02/01 Q1025 RMK S=
0157109470999992015010312274+47989+010240FM-16+062999999V0202501N006710039619N008000199+00201+00101999999ADDGA1071+003961999GE19MSL   +99999+99999GF199999071999003961999999MA1102401999999MW1631REMMET060SPECI EDJA 031227Z 25013KT 8000 RA BKN013 02/01 Q1024 RMK T=
0157109470999992015010312504+47989+010240FM-15+062999999V0202501N008810030519N009000199+00201+00101999999ADDGA1071+003051999GE19MSL   +99999+99999GF199999071999003051999999MA1102401999999MW1631REMMET060METAR EDJA 031250Z 25017KT 9000 RA BKN010 02/01 Q1024 RMK U=
0158109470999992015010313204+47989+010240FM-15+062999999V0202201N006210042719N009999199+00201+00001999999ADDGA1071+004271999GE19MSL   +99999+99999GF199999071999004271999999MA1102201999999MW1611REMMET061METAR EDJA 031320Z 22012KT 9999 -RA BKN014 02/00 Q1022 RMK V=
0158109470999992015010313504+47989+010240FM-15+062999999V0202001N006719999999N009999199+00201+00001999999ADDGA1041+004571999GE19MSL   +99999+99999GF199999041999004571999999MA1102001999999MW1611REMMET061METAR EDJA 031350Z 20013KT 9999 -RA SCT015 02/00 Q1020 RMK W=
0158109470999992015010314204+47989+010240FM-15+062999999V0202101N008819999999N007000199+00301+00101999999ADDGA1041+010361999GE19MSL   +99999+99999GF199999041999010361999999MA1101901999999MW1611REMMET061METAR EDJA 031420Z 21017KT 7000 -RA SCT034 03/01 Q1019 RMK X=
0158109470999992015010314504+47989+010240FM-15+062999999V0202201N009819999999N009999199+00301+00201999999ADDGA1041+006711999GE19MSL   +99999+99999GF199999041999006711999999MA1101801999999MW1611REMMET061METAR EDJA 031450Z 22019KT 9999 -RA SCT022 03/02 Q1018 RMK Y=
0158109470999992015010315204+47989+010240FM-15+062999999V0202301N010819999999N009999199+00401+00201999999ADDGA1041+005491999GE19MSL   +99999+99999GF199999041999005491999999MA1101801999999MW1611REMMET061METAR EDJA 031520Z 23021KT 9999 -RA SCT018 04/02 Q1018 RMK Z=
0169109470999992015010315504+47989+010240FM-15+062999999V0202301N012919999999N009000199+00401+00201999999ADDGA1041+007011999GE19MSL   +99999+99999GF199999041999007011999999MA1101801999999MW1611OC101801REMMET064METAR EDJA 031550Z 23025G35KT 9000 -RA SCT023 04/02 Q1018 RMK A=
0157109470999992015010316204+47989+010240FM-15+062999999V0202301N011319999999N005000199+00401+00201999999ADDGA1041+009751999GE19MSL   +99999+99999GF199999041999009751999999MA1101801999999MW1631REMMET060METAR EDJA 031620Z 23022KT 5000 RA SCT032 04/02 Q1018 RMK B=
0157109470999992015010316504+47989+010240FM-15+062999999V0202301N009319999999N005000199+00401+00301999999ADDGA1041+010061999GE19MSL   +99999+99999GF199999041999010061999999MA1101801999999MW1631REMMET060METAR EDJA 031650Z 23018KT 5000 RA SCT033 04/03 Q1018 RMK C=
0152109470999992015010317204+47989+010240FM-15+062999999V0202301N009819999999N009999199+00501+00301999999ADDGA1041+003051999GE19MSL   +99999+99999GF199999041999003051999999MA1101701999999MW1611REMMET055METAR EDJA 031720Z 23019KT 9999 -RA SCT010 05/03 Q1017=
0158109470999992015010317504+47989+010240FM-15+062999999V0202301N010319999999N007000199+00501+00401999999ADDGA1041+002741999GE19MSL   +99999+99999GF199999041999002741999999MA1101701999999MW1611REMMET061METAR EDJA 031750Z 23020KT 7000 -RA SCT009 05/04 Q1017 RMK E=
0169109470999992015010318204+47989+010240FM-15+062999999V0202301N010819999999N009999199+00501+00401999999ADDGA1041+001831999GE19MSL   +99999+99999GF199999041999001831999999MA1101601999999MW1611OC101601REMMET064METAR EDJA 031820Z 23021G31KT 9999 -RA SCT006 05/04 Q1016 RMK F=
0158109470999992015010318504+47989+010240FM-15+062999999V0202301N011319999999N009000199+00501+00401999999ADDGA1041+001831999GE19MSL   +99999+99999GF199999041999001831999999MA1101601999999MW1611REMMET061METAR EDJA 031850Z 23022KT 9000 -RA SCT006 05/04 Q1016 RMK G=
0158109470999992015010319204+47989+010240FM-15+062999999V0202301N010819999999N009999199+00501+00401999999ADDGA1041+001831999GE19MSL   +99999+99999GF199999041999001831999999MA1101601999999MW1611REMMET061METAR EDJA 031920Z 23021KT 9999 -RA SCT006 05/04 Q1016 RMK H=
0158109470999992015010319504+47989+010240FM-15+062999999V0202301N011819999999N009999199+00601+00401999999ADDGA1041+001831999GE19MSL   +99999+99999GF199999041999001831999999MA1101601999999MW1611REMMET061METAR EDJA 031950Z 23023KT 9999 -RA SCT006 06/04 Q1016 RMK I=
0169109470999992015010320204+47989+010240FM-15+062999999V0202401N012419999999N009999199+00601+00501999999ADDGA1041+001831999GE19MSL   +99999+99999GF199999041999001831999999MA1101501999999MW1611OC101801REMMET064METAR EDJA 032020Z 24024G35KT 9999 -RA SCT006 06/05 Q1015 RMK J=
0158109470999992015010320504+47989+010240FM-15+062999999V0202301N012419999999N009999199+00601+00401999999ADDGA1041+002131999GE19MSL   +99999+99999GF199999041999002131999999MA1101501999999MW1611REMMET061METAR EDJA 032050Z 23024KT 9999 -RA SCT007 06/04 Q1015 RMK K=
0149109470999992015010404504+47989+010240FM-15+062999999V0203301N004110018319N009999199+00001-00101999999ADDGA1081+001831999GE19MSL   +99999+99999GF199999081999001831999999MA1102701999999REMMET058METAR EDJA 040450Z 33008KT 9999 OVC006 00/M01 Q1027 RMK A=
0149109470999992015010405204+47989+010240FM-15+062999999V0203101N003610018319N009999199+00001-00101999999ADDGA1071+001831999GE19MSL   +99999+99999GF199999071999001831999999MA1102701999999REMMET058METAR EDJA 040520Z 31007KT 9999 BKN006 00/M01 Q1027 RMK C=
0150109470999992015010405504+47989+010240FM-15+062999999V0202501N004110018319N009999199+00001-00101999999ADDGA1071+001831999GE19MSL   +99999+99999GF199999071999001831999999MA1102701999999REMMET059METAR EDJA 040550Z 25008KT 9999 BKN006 M00/M01 Q1027 RMK D=
0173109470999992015010406204+47989+010240FM-15+062999999V0202401N003110091419N009999199+00001-00101999999ADDGA1021+001831999GA2071+009141999GE19MSL   +99999+99999GF199999021999001831999999MA1102801999999REMMET066METAR EDJA 040620Z 24006KT 9999 FEW006 BKN030 M00/M01 Q1028 RMK F=
0173109470999992015010406504+47989+010240FM-15+062999999V0202401N003110091419N009999199+00001-00101999999ADDGA1021+004571999GA2071+009141999GE19MSL   +99999+99999GF199999021999004571999999MA1102801999999REMMET066METAR EDJA 040650Z 24006KT 9999 FEW015 BKN030 M00/M01 Q1028 RMK G=
0172109470999992015010407204+47989+010240FM-15+062999999V0202301N004110091419N009999199+00001-00101999999ADDGA1021+004571999GA2071+009141999GE19MSL   +99999+99999GF199999021999004571999999MA1102801999999REMMET065METAR EDJA 040720Z 23008KT 9999 FEW015 BKN030 00/M01 Q1028 RMK H=
0172109470999992015010407504+47989+010240FM-15+062999999V0202401N003610118919N009999199+00001-00101999999ADDGA1041+006101999GA2071+011891999GE19MSL   +99999+99999GF199999041999006101999999MA1102901999999REMMET065METAR EDJA 040750Z 24007KT 9999 SCT020 BKN039 00/M01 Q1029 RMK I=
0188109470999992015010408204+47989+010240FM-15+062999999V0202501N004110118919N009999199+00001-00201999999ADDGA1041+005491999GA2071+011891999GE19MSL   +99999+99999GF199999041999005491999999MA1102901999999MW1161REMMET075METAR EDJA 040820Z 25008KT 9999 VCSH SCT018 BKN039 00/M02 Q1029 RMK      J=
0188109470999992015010408504+47989+010240FM-15+062999999V0202601N003110082319N009999199+00001-00101999999ADDGA1021+004571999GA2071+008231999GE19MSL   +99999+99999GF199999021999004571999999MA1102901999999MW1161REMMET075METAR EDJA 040850Z 26006KT 9999 VCSH FEW015 BKN027 00/M01 Q1029 RMK      K=
0172109470999992015010409204+47989+010240FM-15+062999999V0202701N002610140219N009999199+00001-00101999999ADDGA1021+003661999GA2071+014021999GE19MSL   +99999+99999GF199999021999003661999999MA1103001999999REMMET065METAR EDJA 040920Z 27005KT 9999 FEW012 BKN046 00/M01 Q1030 RMK L=
0160109470999992015010409504+47989+010240FM-15+062999999V0203001N004110054919N009999199+00101-00201999999ADDGA1071+005491999GE19MSL   +99999+99999GF199999071999005491999999MA1103101999999MW1161REMMET063METAR EDJA 040950Z 30008KT 9999 VCSH BKN018 01/M02 Q1031 RMK M=
0161109470999992015010410204+47989+010240FM-15+062999999V0203101N003610070119N009999199+00001-00301999999ADDGA1071+007011999GE19MSL   +99999+99999GF199999071999007011999999MA1103101999999MW1681REMMET064METAR EDJA 041020Z 31007KT 9999 -SNRA BKN023 00/M03 Q1031 RMK N=
0150109470999992015010410504+47989+010240FM-15+062999999V0202901N003110109719N009999199+00001-00201999999ADDGA1071+010971999GE19MSL   +99999+99999GF199999071999010971999999MA1103101999999REMMET059METAR EDJA 041050Z 29006KT 9999 BKN036 M00/M02 Q1031 RMK O=
0149109470999992015010411204+47989+010240FM-15+062999999V0202701N003119999999N009999199+00001-00101999999ADDGA1041+013411999GE19MSL   +99999+99999GF199999041999013411999999MA1103101999999REMMET058METAR EDJA 041120Z 27006KT 9999 SCT044 00/M01 Q1031 RMK P=
0172109470999992015010411504+47989+010240FM-15+062999999V0202801N00361006101CN009999199+00001-00201999999ADDGA1041+003051999GA2041+006101999GE19MSL   +99999+99999GF199999041999003051999999MA1103101999999REMMET065METAR EDJA 041150Z 28007KT 9999 SCT010 SCT020 00/M02 Q1031 RMK Q=
0185109470999992015010412204+47989+010240FM-15+062999999V0202801V002110128019N009999199+00101-00201999999ADDGA1041+003051999GA2071+012801999GE19MSL   +99999+99999GF199999041999003051999999MA1103101999999REMMET078METAR EDJA 041220Z 28004KT 250V320 9999 SCT010 BKN042 01/M02 Q1031      RMK R=
0172109470999992015010412504+47989+010240FM-15+062999999V0202901N00571014331CN009999199+00101-00301999999ADDGA1021+006101999GA2041+014331999GE19MSL   +99999+99999GF199999021999006101999999MA1103101999999REMMET065METAR EDJA 041250Z 29011KT 9999 FEW020 SCT047 01/M03 Q1031 RMK S=
0172109470999992015010413204+47989+010240FM-15+062999999V0202901N00511014331CN009999199+00101-00301999999ADDGA1021+005791999GA2041+014331999GE19MSL   +99999+99999GF199999021999005791999999MA1103101999999REMMET065METAR EDJA 041320Z 29010KT 9999 FEW019 SCT047 01/M03 Q1031 RMK T=
0149109470999992015010413504+47989+010240FM-15+062999999V0202801N004119999999N009999199+00201-00301999999ADDGA1041+014631999GE19MSL   +99999+99999GF199999041999014631999999MA1103101999999REMMET058METAR EDJA 041350Z 28008KT 9999 SCT048 02/M03 Q1031 RMK U=
0149109470999992015010414204+47989+010240FM-15+062999999V0202801N005719999999N009999199+00101-00301999999ADDGA1041+014631999GE19MSL   +99999+99999GF199999041999014631999999MA1103201999999REMMET058METAR EDJA 041420Z 28011KT 9999 SCT048 01/M03 Q1032 RMK V=
0149109470999992015010414504+47989+010240FM-15+062999999V0202601N004119999999N009999199+00101-00301999999ADDGA1041+013411999GE19MSL   +99999+99999GF199999041999013411999999MA1103201999999REMMET058METAR EDJA 041450Z 26008KT 9999 SCT044 01/M03 Q1032 RMK W=
0149109470999992015010415204+47989+010240FM-15+062999999V0202701N004119999999N009999199+00101-00301999999ADDGA1041+012801999GE19MSL   +99999+99999GF199999041999012801999999MA1103201999999REMMET058METAR EDJA 041520Z 27008KT 9999 SCT042 01/M03 Q1032 RMK X=
0149109470999992015010415504+47989+010240FM-15+062999999V0202601N003619999999N009999199+00101-00301999999ADDGA1041+013721999GE19MSL   +99999+99999GF199999041999013721999999MA1103301999999REMMET058METAR EDJA 041550Z 26007KT 9999 SCT045 01/M03 Q1033 RMK Y=
0149109470999992015010416204+47989+010240FM-15+062999999V0202501N004119999999N009999199+00001-00301999999ADDGA1041+013411999GE19MSL   +99999+99999GF199999041999013411999999MA1103301999999REMMET058METAR EDJA 041620Z 25008KT 9999 SCT044 00/M03 Q1033 RMK Z=
0149109470999992015010416504+47989+010240FM-15+062999999V0202601N004619999999N009999199+00001-00301999999ADDGA1041+013411999GE19MSL   +99999+99999GF199999041999013411999999MA1103301999999REMMET058METAR EDJA 041650Z 26009KT 9999 SCT044 00/M03 Q1033 RMK A=
0149109470999992015010417204+47989+010240FM-15+062999999V0202501N005119999999N009999199+00001-00301999999ADDGA1041+012191999GE19MSL   +99999+99999GF199999041999012191999999MA1103301999999REMMET058METAR EDJA 041720Z 25010KT 9999 SCT040 00/M03 Q1033 RMK B=
0149109470999992015010417504+47989+010240FM-15+062999999V0202401N004619999999N009999199+00001-00301999999ADDGA1041+013111999GE19MSL   +99999+99999GF199999041999013111999999MA1103301999999REMMET058METAR EDJA 041750Z 24009KT 9999 SCT043 00/M03 Q1033 RMK C=
0149109470999992015010418204+47989+010240FM-15+062999999V0202301N004619999999N009999199+00001-00301999999ADDGA1041+014331999GE19MSL   +99999+99999GF199999041999014331999999MA1103401999999REMMET058METAR EDJA 041820Z 23009KT 9999 SCT047 00/M03 Q1034 RMK D=
0150109470999992015010418504+47989+010240FM-15+062999999V0202501N004119999999N009999199+00001-00301999999ADDGA1041+012801999GE19MSL   +99999+99999GF199999041999012801999999MA1103401999999REMMET059METAR EDJA 041850Z 25008KT 9999 SCT042 M00/M03 Q1034 RMK E=
0150109470999992015010419204+47989+010240FM-15+062999999V0202501N004119999999N009999199+00001-00301999999ADDGA1041+009751999GE19MSL   +99999+99999GF199999041999009751999999MA1103401999999REMMET059METAR EDJA 041920Z 25008KT 9999 SCT032 M00/M03 Q1034 RMK F=
0144109470999992015010419504+47989+010240FM-15+062999999V0202401N004619999999N009999199+00001-00301999999ADDGA1041+009751999GE19MSL   +99999+99999GF199999041999009751999999MA1103401999999REMMET053METAR EDJA 041950Z 24009KT 9999 SCT032 M00/M03 Q1034=
0150109470999992015010420204+47989+010240FM-15+062999999V0202501N005119999999N009999199+00001-00401999999ADDGA1041+007921999GE19MSL   +99999+99999GF199999041999007921999999MA1103401999999REMMET059METAR EDJA 042020Z 25010KT 9999 SCT026 M00/M04 Q1034 RMK H=
0150109470999992015010420504+47989+010240FM-15+062999999V0202501N004619999999N009999199+00001-00401999999ADDGA1041+012191999GE19MSL   +99999+99999GF199999041999012191999999MA1103501999999REMMET059METAR EDJA 042050Z 25009KT 9999 SCT040 M00/M04 Q1035 RMK I=
0080109470999992015010504504+47989+010240FM-15+062999999V0202201N002119999999Y999999999-00301-00401999999ADDMA1103401999999REMMET053METAR EDJA 050450Z 22004KT CAVOK M03/M04 Q1034 RMK A=
0080109470999992015010505204+47989+010240FM-15+062999999V0209999C000019999999Y999999999-00301-00401999999ADDMA1103401999999REMMET053METAR EDJA 050520Z 00000KT CAVOK M03/M04 Q1034 RMK D=
0080109470999992015010505504+47989+010240FM-15+062999999V0202001N001019999999Y999999999-00301-00401999999ADDMA1103301999999REMMET053METAR EDJA 050550Z 20002KT CAVOK M03/M04 Q1033 RMK E=
0080109470999992015010506204+47989+010240FM-15+062999999V0209999V000519999999Y999999999-00401-00501999999ADDMA1103301999999REMMET053METAR EDJA 050620Z VRB01KT CAVOK M04/M05 Q1033 RMK F=
0080109470999992015010506504+47989+010240FM-15+062999999V0209999V001019999999Y999999999-00401-00501999999ADDMA1103401999999REMMET053METAR EDJA 050650Z VRB02KT CAVOK M04/M05 Q1034 RMK G=
0080109470999992015010507204+47989+010240FM-15+062999999V0202101N001019999999Y999999999-00401-00501999999ADDMA1103401999999REMMET053METAR EDJA 050720Z 21002KT CAVOK M04/M05 Q1034 RMK I=
0080109470999992015010507504+47989+010240FM-15+062999999V0202101N002619999999Y999999999-00401-00501999999ADDMA1103301999999REMMET053METAR EDJA 050750Z 21005KT CAVOK M04/M05 Q1033 RMK J=
0080109470999992015010508204+47989+010240FM-15+062999999V0201901N003119999999Y999999999-00301-00501999999ADDMA1103301999999REMMET053METAR EDJA 050820Z 19006KT CAVOK M03/M05 Q1033 RMK K=
0080109470999992015010508504+47989+010240FM-15+062999999V0202101N002619999999Y999999999-00201-00501999999ADDMA1103301999999REMMET053METAR EDJA 050850Z 21005KT CAVOK M02/M05 Q1033 RMK L=
0080109470999992015010509204+47989+010240FM-15+062999999V0202101N003619999999Y999999999-00201-00501999999ADDMA1103301999999REMMET053METAR EDJA 050920Z 21007KT CAVOK M02/M05 Q1033 RMK M=
0080109470999992015010509504+47989+010240FM-15+062999999V0202201N003619999999Y999999999+00001-00401999999ADDMA1103201999999REMMET053METAR EDJA 050950Z 22007KT CAVOK M00/M04 Q1032 RMK N=
0079109470999992015010510204+47989+010240FM-15+062999999V0202401N005719999999Y999999999+00001-00401999999ADDMA1103201999999REMMET052METAR EDJA 051020Z 24011KT CAVOK 00/M04 Q1032 RMK O=
0079109470999992015010510504+47989+010240FM-15+062999999V0202501N005719999999Y999999999+00101-00501999999ADDMA1103201999999REMMET052METAR EDJA 051050Z 25011KT CAVOK 01/M05 Q1032 RMK P=
0079109470999992015010511204+47989+010240FM-15+062999999V0202501N004619999999Y999999999+00101-00401999999ADDMA1103201999999REMMET052METAR EDJA 051120Z 25009KT CAVOK 01/M04 Q1032 RMK Q=
0079109470999992015010511504+47989+010240FM-15+062999999V0202301N004119999999Y999999999+00201-00401999999ADDMA1103101999999REMMET052METAR EDJA 051150Z 23008KT CAVOK 02/M04 Q1031 RMK R=
0079109470999992015010512204+47989+010240FM-15+062999999V0202401N004119999999Y999999999+00201-00501999999ADDMA1103101999999REMMET052METAR EDJA 051220Z 24008KT CAVOK 02/M05 Q1031 RMK S=
0079109470999992015010512504+47989+010240FM-15+062999999V0202301N003619999999Y999999999+00201-00501999999ADDMA1103101999999REMMET052METAR EDJA 051250Z 23007KT CAVOK 02/M05 Q1031 RMK T=
0079109470999992015010513204+47989+010240FM-15+062999999V0202401N003619999999Y999999999+00301-00401999999ADDMA1103001999999REMMET052METAR EDJA 051320Z 24007KT CAVOK 03/M04 Q1030 RMK U=
0079109470999992015010513504+47989+010240FM-15+062999999V0202301N003119999999Y999999999+00301-00401999999ADDMA1103001999999REMMET052METAR EDJA 051350Z 23006KT CAVOK 03/M04 Q1030 RMK T=
0079109470999992015010514204+47989+010240FM-15+062999999V0202301N002619999999Y999999999+00301-00401999999ADDMA1103001999999REMMET052METAR EDJA 051420Z 23005KT CAVOK 03/M04 Q1030 RMK W=
0079109470999992015010514504+47989+010240FM-15+062999999V0202401N003119999999Y999999999+00201-00401999999ADDMA1103001999999REMMET052METAR EDJA 051450Z 24006KT CAVOK 02/M04 Q1030 RMK X=
0079109470999992015010515204+47989+010240FM-15+062999999V0202301N004119999999Y999999999+00101-00401999999ADDMA1103001999999REMMET052METAR EDJA 051520Z 23008KT CAVOK 01/M04 Q1030 RMK Y=
0079109470999992015010515504+47989+010240FM-15+062999999V0202201N003619999999Y999999999+00001-00401999999ADDMA1102901999999REMMET052METAR EDJA 051550Z 22007KT CAVOK 00/M04 Q1029 RMK Z=
0080109470999992015010516204+47989+010240FM-15+062999999V0202001N003119999999Y999999999-00101-00401999999ADDMA1102901999999REMMET053METAR EDJA 051620Z 20006KT CAVOK M01/M04 Q1029 RMK A=
0080109470999992015010516504+47989+010240FM-15+062999999V0202201N004119999999Y999999999-00101-00401999999ADDMA1102901999999REMMET053METAR EDJA 051650Z 22008KT CAVOK M01/M04 Q1029 RMK B=
0074109470999992015010517204+47989+010240FM-15+062999999V0201901N003119999999Y999999999-00101-00401999999ADDMA1102901999999REMMET047METAR EDJA 051720Z 19006KT CAVOK M01/M04 Q1029=
0080109470999992015010517504+47989+010240FM-15+062999999V0202001N002619999999Y999999999-00101-00401999999ADDMA1102901999999REMMET053METAR EDJA 051750Z 20005KT CAVOK M01/M04 Q1029 RMK D=
0080109470999992015010518204+47989+010240FM-15+062999999V0202301N002119999999Y999999999-00301-00601999999ADDMA1102901999999REMMET053METAR EDJA 051820Z 23004KT CAVOK M03/M06 Q1029 RMK E=
0080109470999992015010518504+47989+010240FM-15+062999999V0209999V000519999999Y999999999-00201-00401999999ADDMA1102901999999REMMET053METAR EDJA 051850Z VRB01KT CAVOK M02/M04 Q1029 RMK F=
0080109470999992015010519204+47989+010240FM-15+062999999V0209999V000519999999Y999999999-00201-00401999999ADDMA1102901999999REMMET053METAR EDJA 051920Z VRB01KT CAVOK M02/M04 Q1029 RMK G=
0080109470999992015010519504+47989+010240FM-15+062999999V0201901N001519999999Y999999999-00301-00501999999ADDMA1102901999999REMMET053METAR EDJA 051950Z 19003KT CAVOK M03/M05 Q1029 RMK H=
0080109470999992015010520204+47989+010240FM-15+062999999V0201901N002619999999Y999999999-00301-00501999999ADDMA1102801999999REMMET053METAR EDJA 052020Z 19005KT CAVOK M03/M05 Q1028 RMK I=
0080109470999992015010520504+47989+010240FM-15+062999999V0209999C000019999999Y999999999-00301-00501999999ADDMA1102801999999REMMET053METAR EDJA 052050Z 00000KT CAVOK M03/M05 Q1028 RMK J=
0080109470999992015010604504+47989+010240FM-15+062999999V0209999V001019999999Y999999999-00401-00601999999ADDMA1102401999999REMMET053METAR EDJA 060450Z VRB02KT CAVOK M04/M06 Q1024 RMK A=
0080109470999992015010605204+47989+010240FM-15+062999999V0200801N001519999999Y999999999-00401-00601999999ADDMA1102401999999REMMET053METAR EDJA 060520Z 08003KT CAVOK M04/M06 Q1024 RMK B=
0080109470999992015010605504+47989+010240FM-15+062999999V0209999V001019999999Y999999999-00401-00601999999ADDMA1102401999999REMMET053METAR EDJA 060550Z VRB02KT CAVOK M04/M06 Q1024 RMK C=
0080109470999992015010606204+47989+010240FM-15+062999999V0202001N001519999999Y999999999-00501-00601999999ADDMA1102401999999REMMET053METAR EDJA 060620Z 20003KT CAVOK M05/M06 Q1024 RMK D=
0080109470999992015010606504+47989+010240FM-15+062999999V0201601N002119999999Y999999999-00501-00601999999ADDMA1102401999999REMMET053METAR EDJA 060650Z 16004KT CAVOK M05/M06 Q1024 RMK E=
0080109470999992015010607204+47989+010240FM-15+062999999V0201801N001519999999Y999999999-00501-00701999999ADDMA1102401999999REMMET053METAR EDJA 060720Z 18003KT CAVOK M05/M07 Q1024 RMK F=
0080109470999992015010607504+47989+010240FM-15+062999999V0201501N001519999999Y999999999-00501-00701999999ADDMA1102401999999REMMET053METAR EDJA 060750Z 15003KT CAVOK M05/M07 Q1024 RMK G=
0080109470999992015010608204+47989+010240FM-15+062999999V0209999C000019999999Y999999999-00401-00601999999ADDMA1102401999999REMMET053METAR EDJA 060820Z 00000KT CAVOK M04/M06 Q1024 RMK H=
0080109470999992015010608504+47989+010240FM-15+062999999V0209999V001019999999Y999999999-00301-00501999999ADDMA1102401999999REMMET053METAR EDJA 060850Z VRB02KT CAVOK M03/M05 Q1024 RMK I=
0080109470999992015010609204+47989+010240FM-15+062999999V0201601N001519999999Y999999999-00101-00401999999ADDMA1102401999999REMMET053METAR EDJA 060920Z 16003KT CAVOK M01/M04 Q1024 RMK J=
0079109470999992015010609504+47989+010240FM-15+062999999V0209999V001519999999Y999999999+00101-00401999999ADDMA1102401999999REMMET052METAR EDJA 060950Z VRB03KT CAVOK 01/M04 Q1024 RMK K=
0079109470999992015010610204+47989+010240FM-15+062999999V0202101N002619999999Y999999999+00201-00401999999ADDMA1102401999999REMMET052METAR EDJA 061020Z 21005KT CAVOK 02/M04 Q1024 RMK L=
0079109470999992015010610504+47989+010240FM-15+062999999V0201901N001519999999Y999999999+00301-00501999999ADDMA1102401999999REMMET052METAR EDJA 061050Z 19003KT CAVOK 03/M05 Q1024 RMK M=
0079109470999992015010611204+47989+010240FM-15+062999999V0209999V001519999999Y999999999+00401-00401999999ADDMA1102301999999REMMET052METAR EDJA 061120Z VRB03KT CAVOK 04/M04 Q1023 RMK N=
0079109470999992015010611504+47989+010240FM-15+062999999V0202001N002119999999Y999999999+00401-00501999999ADDMA1102301999999REMMET052METAR EDJA 061150Z 20004KT CAVOK 04/M05 Q1023 RMK O=
0079109470999992015010612204+47989+010240FM-15+062999999V0202001N001519999999Y999999999+00501-00401999999ADDMA1102301999999REMMET052METAR EDJA 061220Z 20003KT CAVOK 05/M04 Q1023 RMK P=
0079109470999992015010612504+47989+010240FM-15+062999999V0201801N002119999999Y999999999+00401-00401999999ADDMA1102201999999REMMET052METAR EDJA 061250Z 18004KT CAVOK 04/M04 Q1022 RMK Q=
0079109470999992015010613204+47989+010240FM-15+062999999V0202001N002119999999Y999999999+00401-00301999999ADDMA1102201999999REMMET052METAR EDJA 061320Z 20004KT CAVOK 04/M03 Q1022 RMK R=
0079109470999992015010613504+47989+010240FM-15+062999999V0201901N002619999999Y999999999+00401-00301999999ADDMA1102201999999REMMET052METAR EDJA 061350Z 19005KT CAVOK 04/M03 Q1022 RMK S=
0073109470999992015010614204+47989+010240FM-15+062999999V0202001N002119999999Y999999999+00301-00301999999ADDMA1102201999999REMMET046METAR EDJA 061420Z 20004KT CAVOK 03/M03 Q1022=
0079109470999992015010614504+47989+010240FM-15+062999999V0202101N001519999999Y999999999+00301-00201999999ADDMA1102201999999REMMET052METAR EDJA 061450Z 21003KT CAVOK 03/M02 Q1022 RMK U=
0079109470999992015010615204+47989+010240FM-15+062999999V0202201N002119999999Y999999999+00201-00301999999ADDMA1102201999999REMMET052METAR EDJA 061520Z 22004KT CAVOK 02/M03 Q1022 RMK V=
0079109470999992015010615504+47989+010240FM-15+062999999V0202401N002619999999Y999999999+00201-00501999999ADDMA1102301999999REMMET052METAR EDJA 061550Z 24005KT CAVOK 02/M05 Q1023 RMK W=
0079109470999992015010616204+47989+010240FM-15+062999999V0202101N001519999999Y999999999+00001-00401999999ADDMA1102301999999REMMET052METAR EDJA 061620Z 21003KT CAVOK 00/M04 Q1023 RMK Y=
0074109470999992015010616504+47989+010240FM-15+062999999V0201701N002619999999Y999999999-00101-00401999999ADDMA1102301999999REMMET047METAR EDJA 061650Z 17005KT CAVOK M01/M04 Q1023=
0080109470999992015010617204+47989+010240FM-15+062999999V0201701N002619999999Y999999999-00101-00401999999ADDMA1102301999999REMMET053METAR EDJA 061720Z 17005KT CAVOK M01/M04 Q1023 RMK A=
0080109470999992015010617504+47989+010240FM-15+062999999V0201801N002119999999Y999999999-00101-00401999999ADDMA1102301999999REMMET053METAR EDJA 061750Z 18004KT CAVOK M01/M04 Q1023 RMK B=
0074109470999992015010618204+47989+010240FM-15+062999999V0202101N001019999999Y999999999-00101-00401999999ADDMA1102301999999REMMET047METAR EDJA 061820Z 21002KT CAVOK M01/M04 Q1023=
0080109470999992015010618504+47989+010240FM-15+062999999V0202001N002119999999Y999999999-00201-00401999999ADDMA1102301999999REMMET053METAR EDJA 061850Z 20004KT CAVOK M02/M04 Q1023 RMK D=
0080109470999992015010619204+47989+010240FM-15+062999999V0202001N002119999999Y999999999-00101-00401999999ADDMA1102401999999REMMET053METAR EDJA 061920Z 20004KT CAVOK M01/M04 Q1024 RMK E=
0080109470999992015010620204+47989+010240FM-15+062999999V0202201N002619999999Y999999999-00201-00501999999ADDMA1102401999999REMMET053METAR EDJA 062020Z 22005KT CAVOK M02/M05 Q1024 RMK F=
0080109470999992015010620504+47989+010240FM-15+062999999V0202201N002119999999Y999999999+00001-00501999999ADDMA1102401999999REMMET053METAR EDJA 062050Z 22004KT CAVOK M00/M05 Q1024 RMK G=
0149109470999992015010704204+47989+010240FM-15+062999999V0202401N004619999999N009999199+00101-00201999999ADDGA1041+005791999GE19MSL   +99999+99999GF199999041999005791999999MA1102701999999REMMET058METAR EDJA 070420Z 24009KT 9999 SCT019 01/M02 Q1027 RMK H=
0149109470999992015010704504+47989+010240FM-15+062999999V0202301N004119999999N009999199+00101-00201999999ADDGA1041+005491999GE19MSL   +99999+99999GF199999041999005491999999MA1102701999999REMMET058METAR EDJA 070450Z 23008KT 9999 SCT018 01/M02 Q1027 RMK B=
0149109470999992015010705204+47989+010240FM-15+062999999V0202401N004619999999N009999199+00101-00201999999ADDGA1041+005791999GE19MSL   +99999+99999GF199999041999005791999999MA1102701999999REMMET058METAR EDJA 070520Z 24009KT 9999 SCT019 01/M02 Q1027 RMK C=
0149109470999992015010705504+47989+010240FM-15+062999999V0202201N004619999999N009999199+00101-00201999999ADDGA1041+006711999GE19MSL   +99999+99999GF199999041999006711999999MA1102701999999REMMET058METAR EDJA 070550Z 22009KT 9999 SCT022 01/M02 Q1027 RMK D=
0172109470999992015010706204+47989+010240FM-15+062999999V0202101N00571015851CN009999199+00101-00201999999ADDGA1041+007011999GA2041+015851999GE19MSL   +99999+99999GF199999041999007011999999MA1102701999999REMMET065METAR EDJA 070620Z 21011KT 9999 SCT023 SCT052 01/M02 Q1027 RMK E=
0149109470999992015010706504+47989+010240FM-15+062999999V0202101N005719999999N009999199+00101-00201999999ADDGA1041+009141999GE19MSL   +99999+99999GF199999041999009141999999MA1102701999999REMMET058METAR EDJA 070650Z 21011KT 9999 SCT030 01/M02 Q1027 RMK F=
0147109470999992015010707204+47989+010240FM-15+062999999V0202301N004619999999N009999199+00101-00301999999ADDGA1041+007921999GE19MSL   +99999+99999GF199999041999007921999999MA1102801999999REMMET056METAR COR EDJA 070720Z 23009KT 9999 SCT026 01/M03 Q1028=
0149109470999992015010707504+47989+010240FM-15+062999999V0202301N005719999999N009999199+00101-00301999999ADDGA1041+008841999GE19MSL   +99999+99999GF199999041999008841999999MA1102801999999REMMET058METAR EDJA 070750Z 23011KT 9999 SCT029 01/M03 Q1028 RMK I=
0149109470999992015010708204+47989+010240FM-15+062999999V0202201N005719999999N009999199+00101-00301999999ADDGA1041+008531999GE19MSL   +99999+99999GF199999041999008531999999MA1102801999999REMMET058METAR EDJA 070820Z 22011KT 9999 SCT028 01/M03 Q1028 RMK J=
0159109470999992015010708384+47989+010240FM-16+062999999V0202501N004610042719N009999199+00101-00201999999ADDGA1071+004271999GE19MSL   +99999+99999GF199999071999004271999999MA1102801999999MW1711REMMET062SPECI EDJA 070838Z 25009KT 9999 -SN BKN014 01/M02 Q1028 RMK K=
0159109470999992015010708504+47989+010240FM-15+062999999V0202601N004110042719N009999199+00101-00201999999ADDGA1071+004271999GE19MSL   +99999+99999GF199999071999004271999999MA1102801999999MW1711REMMET062METAR EDJA 070850Z 26008KT 9999 -SN BKN014 01/M02 Q1028 RMK M=
0149109470999992015010709204+47989+010240FM-15+062999999V0202401N002619999999N009999199+00101-00101999999ADDGA1041+004271999GE19MSL   +99999+99999GF199999041999004271999999MA1102901999999REMMET058METAR EDJA 070920Z 24005KT 9999 SCT014 01/M01 Q1029 RMK N=
0149109470999992015010709504+47989+010240FM-15+062999999V0202101N003110042719N009999199+00101-00101999999ADDGA1071+004271999GE19MSL   +99999+99999GF199999071999004271999999MA1102901999999REMMET058METAR EDJA 070950Z 21006KT 9999 BKN014 01/M01 Q1029 RMK O=
0159109470999992015010710204+47989+010240FM-15+062999999V0202201N003110042719N009999199+00101-00101999999ADDGA1071+004271999GE19MSL   +99999+99999GF199999071999004271999999MA1102901999999MW1711REMMET062METAR EDJA 071020Z 22006KT 9999 -SN BKN014 01/M01 Q1029 RMK Q=
0149109470999992015010710504+47989+010240FM-15+062999999V0202501N003610042719N009999199+00101+00001999999ADDGA1071+004271999GE19MSL   +99999+99999GF199999071999004271999999MA1102901999999REMMET058METAR EDJA 071050Z 25007KT 9999 BKN014 01/M00 Q1029 RMK R=
0148109470999992015010711204+47989+010240FM-15+062999999V0202801N002110033519N009999199+00201+00001999999ADDGA1071+003351999GE19MSL   +99999+99999GF199999071999003351999999MA1102901999999REMMET057METAR EDJA 071120Z 28004KT 9999 BKN011 02/00 Q1029 RMK S=
0148109470999992015010711504+47989+010240FM-15+062999999V0202801N001510039619N009999199+00201+00001999999ADDGA1071+003961999GE19MSL   +99999+99999GF199999071999003961999999MA1102901999999REMMET057METAR EDJA 071150Z 28003KT 9999 BKN013 02/00 Q1029 RMK T=
0172109470999992015010712204+47989+010240FM-15+062999999V0202001N002610027419N008000199+00101+00001999999ADDGA1041+001521999GA2071+002741999GE19MSL   +99999+99999GF199999041999001521999999MA1102901999999REMMET065METAR EDJA 071220Z 20005KT 8000 SCT005 BKN009 01/M00 Q1029 RMK U=
0160109470999992015010712504+47989+010240FM-15+062999999V0202301N002610024419N005000199+00101+00001999999ADDGA1071+002441999GE19MSL   +99999+99999GF199999071999002441999999MA1102801999999MW1681REMMET063METAR EDJA 071250Z 23005KT 5000 -RASN BKN008 01/00 Q1028 RMK V=
0078109470999992015010713204+47989+010240FM-15+062999999V0202501N002119999999Y999999999+00101+00001999999ADDMA1102901999999REMMET051METAR EDJA 071320Z 25004KT CAVOK 01/00 Q1029 RMK W=
0142109470999992015010713504+47989+010240FM-15+062999999V0202301N001510030519N008000199+00101+00101999999ADDGA1071+003051999GE19MSL   +99999+99999GF199999071999003051999999MA1102801999999REMMET051METAR EDJA 071350Z 23003KT 8000 BKN010 01/01 Q1028=
0148109470999992015010714204+47989+010240FM-15+062999999V0202201N001010042719N009000199+00201+00101999999ADDGA1071+004271999GE19MSL   +99999+99999GF199999071999004271999999MA1102801999999REMMET057METAR EDJA 071420Z 22002KT 9000 BKN014 02/01 Q1028 RMK Y=
0148109470999992015010714504+47989+010240FM-15+062999999V0202301N001010039619N009999199+00101+00001999999ADDGA1071+003961999GE19MSL   +99999+99999GF199999071999003961999999MA1102901999999REMMET057METAR EDJA 071450Z 23002KT 9999 BKN013 01/00 Q1029 RMK Z=
0148109470999992015010715504+47989+010240FM-15+062999999V0201301N001010051819N009999199+00101+00001999999ADDGA1071+005181999GE19MSL   +99999+99999GF199999071999005181999999MA1102901999999REMMET057METAR EDJA 071550Z 13002KT 9999 BKN017 01/00 Q1029 RMK A=
0148109470999992015010716204+47989+010240FM-15+062999999V0209999V000510051819N009999199+00101+00001999999ADDGA1071+005181999GE19MSL   +99999+99999GF199999071999005181999999MA1102901999999REMMET057METAR EDJA 071620Z VRB01KT 9999 BKN017 01/00 Q1029 RMK B=
0143109470999992015010716504+47989+010240FM-15+062999999V0201301N001510051819N009999199+00001+00001999999ADDGA1071+005181999GE19MSL   +99999+99999GF199999071999005181999999MA1103001999999REMMET052METAR EDJA 071650Z 13003KT 9999 BKN017 00/M00 Q1030=
0148109470999992015010717204+47989+010240FM-15+062999999V0201001N001010064019N009999199+00001+00001999999ADDGA1071+006401999GE19MSL   +99999+99999GF199999071999006401999999MA1102901999999REMMET057METAR EDJA 071720Z 10002KT 9999 BKN021 00/00 Q1029 RMK D=
0149109470999992015010717504+47989+010240FM-15+062999999V0201301N000510073219N009999199+00001+00001999999ADDGA1071+007321999GE19MSL   +99999+99999GF199999071999007321999999MA1103001999999REMMET058METAR EDJA 071750Z 13001KT 9999 BKN024 00/M00 Q1030 RMK E=
0149109470999992015010718204+47989+010240FM-15+062999999V0202001N001010045719N009999199+00001+00001999999ADDGA1071+004571999GE19MSL   +99999+99999GF199999071999004571999999MA1103001999999REMMET058METAR EDJA 071820Z 20002KT 9999 BKN015 00/M00 Q1030 RMK F=
0149109470999992015010718504+47989+010240FM-15+062999999V0201401N001510042719N006000199+00001+00001999999ADDGA1071+004271999GE19MSL   +99999+99999GF199999071999004271999999MA1103001999999REMMET058METAR EDJA 071850Z 14003KT 6000 BKN014 00/M00 Q1030 RMK G=
0172109470999992015010719204+47989+010240FM-15+062999999V0201901N001510042719N009999199+00001+00001999999ADDGA1071+004271999GA2071+007321999GE19MSL   +99999+99999GF199999071999004271999999MA1102901999999REMMET065METAR EDJA 071920Z 19003KT 9999 BKN014 BKN024 00/M00 Q1029 RMK H=
0149109470999992015010719504+47989+010240FM-15+062999999V0202001N002110070119N009999199+00001+00001999999ADDGA1071+007011999GE19MSL   +99999+99999GF199999071999007011999999MA1103001999999REMMET058METAR EDJA 071950Z 20004KT 9999 BKN023 00/M00 Q1030 RMK I=
0149109470999992015010720204+47989+010240FM-15+062999999V0202201N002110082319N009999199+00101+00001999999ADDGA1071+008231999GE19MSL   +99999+99999GF199999071999008231999999MA1102901999999REMMET058METAR EDJA 072020Z 22004KT 9999 BKN027 01/M00 Q1029 RMK J=
0148109470999992015010720504+47989+010240FM-15+062999999V0202201N003110085319N009999199+00101+00001999999ADDGA1071+008531999GE19MSL   +99999+99999GF199999071999008531999999MA1102901999999REMMET057METAR EDJA 072050Z 22006KT 9999 BKN028 01/00 Q1029 RMK K=
0149109470999992015010804504+47989+010240FM-15+062999999V0202401N004119999999N009999199+00101-00301999999ADDGA1041+011581999GE19MSL   +99999+99999GF199999041999011581999999MA1102901999999REMMET058METAR EDJA 080450Z 24008KT 9999 SCT038 01/M03 Q1029 RMK L=
0149109470999992015010805204+47989+010240FM-15+062999999V0202401N005719999999N009999199+00101-00301999999ADDGA1041+010971999GE19MSL   +99999+99999GF199999041999010971999999MA1102901999999REMMET058METAR EDJA 080520Z 24011KT 9999 SCT036 01/M03 Q1029 RMK B=
0149109470999992015010805504+47989+010240FM-15+062999999V0202301N005710106719N009999199+00101-00301999999ADDGA1071+010671999GE19MSL   +99999+99999GF199999071999010671999999MA1102901999999REMMET058METAR EDJA 080550Z 23011KT 9999 BKN035 01/M03 Q1029 RMK C=
0149109470999992015010806204+47989+010240FM-15+062999999V0202301N006219999999N009999199+00201-00401999999ADDGA1041+012191999GE19MSL   +99999+99999GF199999041999012191999999MA1102901999999REMMET058METAR EDJA 080620Z 23012KT 9999 SCT040 02/M04 Q1029 RMK D=
0149109470999992015010806504+47989+010240FM-15+062999999V0202301N006219999999N009999199+00201-00301999999ADDGA1041+010971999GE19MSL   +99999+99999GF199999041999010971999999MA1102901999999REMMET058METAR EDJA 080650Z 23012KT 9999 SCT036 02/M03 Q1029 RMK E=
0079109470999992015010807204+47989+010240FM-15+062999999V0202201N005119999999Y999999999+00201-00301999999ADDMA1102901999999REMMET052METAR EDJA 080720Z 22010KT CAVOK 02/M03 Q1029 RMK F=
0149109470999992015010807504+47989+010240FM-15+062999999V0202301N007219999999N009999199+00201-00301999999ADDGA1021+012801999GE19MSL   +99999+99999GF199999021999012801999999MA1102901999999REMMET058METAR EDJA 080750Z 23014KT 9999 FEW042 02/M03 Q1029 RMK G=
0149109470999992015010808204+47989+010240FM-15+062999999V0202301N005119999999N009999199+00201-00201999999ADDGA1041+008531999GE19MSL   +99999+99999GF199999041999008531999999MA1102901999999REMMET058METAR EDJA 080820Z 23010KT 9999 SCT028 02/M02 Q1029 RMK H=
0149109470999992015010808504+47989+010240FM-15+062999999V0202301N006719999999N009999199+00301-00301999999ADDGA1021+008531999GE19MSL   +99999+99999GF199999021999008531999999MA1102901999999REMMET058METAR EDJA 080850Z 23013KT 9999 FEW028 03/M03 Q1029 RMK I=
0079109470999992015010809204+47989+010240FM-15+062999999V0202301N006719999999Y999999999+00301-00301999999ADDMA1102901999999REMMET052METAR EDJA 080920Z 23013KT CAVOK 03/M03 Q1029 RMK J=
0079109470999992015010809504+47989+010240FM-15+062999999V0202401N006719999999Y999999999+00301-00201999999ADDMA1102901999999REMMET052METAR EDJA 080950Z 24013KT CAVOK 03/M02 Q1029 RMK K=
0079109470999992015010810204+47989+010240FM-15+062999999V0202401N006219999999Y999999999+00401-00201999999ADDMA1102901999999REMMET052METAR EDJA 081020Z 24012KT CAVOK 04/M02 Q1029 RMK L=
0079109470999992015010810504+47989+010240FM-15+062999999V0202301N006219999999Y999999999+00401-00201999999ADDMA1102901999999REMMET052METAR EDJA 081050Z 23012KT CAVOK 04/M02 Q1029 RMK M=
0079109470999992015010811204+47989+010240FM-15+062999999V0202301N007219999999Y999999999+00501-00101999999ADDMA1102801999999REMMET052METAR EDJA 081120Z 23014KT CAVOK 05/M01 Q1028 RMK N=
0079109470999992015010811504+47989+010240FM-15+062999999V0202301N007219999999Y999999999+00501-00101999999ADDMA1102801999999REMMET052METAR EDJA 081150Z 23014KT CAVOK 05/M01 Q1028 RMK P=
0079109470999992015010812204+47989+010240FM-15+062999999V0202301N006719999999Y999999999+00501-00101999999ADDMA1102701999999REMMET052METAR EDJA 081220Z 23013KT CAVOK 05/M01 Q1027 RMK Q=
0079109470999992015010812504+47989+010240FM-15+062999999V0202301N007719999999Y999999999+00501-00101999999ADDMA1102701999999REMMET052METAR EDJA 081250Z 23015KT CAVOK 05/M01 Q1027 RMK R=
0149109470999992015010813204+47989+010240FM-15+062999999V0202301N008810176819N009999199+00501-00101999999ADDGA1071+017681999GE19MSL   +99999+99999GF199999071999017681999999MA1102701999999REMMET058METAR EDJA 081320Z 23017KT 9999 BKN058 05/M01 Q1027 RMK S=
0079109470999992015010813504+47989+010240FM-15+062999999V0202301N009319999999Y999999999+00501-00101999999ADDMA1102701999999REMMET052METAR EDJA 081350Z 23018KT CAVOK 05/M01 Q1027 RMK T=
0079109470999992015010814204+47989+010240FM-15+062999999V0202401N007719999999Y999999999+00601+00001999999ADDMA1102701999999REMMET052METAR EDJA 081420Z 24015KT CAVOK 06/M00 Q1027 RMK U=
0079109470999992015010814504+47989+010240FM-15+062999999V0202301N008219999999Y999999999+00501+00001999999ADDMA1102701999999REMMET052METAR EDJA 081450Z 23016KT CAVOK 05/M00 Q1027 RMK V=
0079109470999992015010815204+47989+010240FM-15+062999999V0202301N006219999999Y999999999+00501+00001999999ADDMA1102701999999REMMET052METAR EDJA 081520Z 23012KT CAVOK 05/M00 Q1027 RMK W=
0079109470999992015010815504+47989+010240FM-15+062999999V0202301N009319999999Y999999999+00501+00001999999ADDMA1102701999999REMMET052METAR EDJA 081550Z 23018KT CAVOK 05/M00 Q1027 RMK X=
0079109470999992015010816204+47989+010240FM-15+062999999V0202301N010319999999Y999999999+00501+00001999999ADDMA1102701999999REMMET052METAR EDJA 081620Z 23020KT CAVOK 05/M00 Q1027 RMK Y=
0078109470999992015010816504+47989+010240FM-15+062999999V0202301N009819999999Y999999999+00501+00001999999ADDMA1102701999999REMMET051METAR EDJA 081650Z 23019KT CAVOK 05/00 Q1027 RMK Z=
0078109470999992015010817204+47989+010240FM-15+062999999V0202301N009819999999Y999999999+00601+00001999999ADDMA1102701999999REMMET051METAR EDJA 081720Z 23019KT CAVOK 06/00 Q1027 RMK A=
0072109470999992015010817504+47989+010240FM-15+062999999V0202301N009819999999Y999999999+00601+00001999999ADDMA1102701999999REMMET045METAR EDJA 081750Z 23019KT CAVOK 06/00 Q1027=
0078109470999992015010818204+47989+010240FM-15+062999999V0202301N010319999999Y999999999+00601+00001999999ADDMA1102701999999REMMET051METAR EDJA 081820Z 23020KT CAVOK 06/00 Q1027 RMK C=
0196109470999992015010818504+47989+010240FM-15+062999999V0202301N011310137219N009999199+00601+00101999999ADDGA1041+009751999GA2071+013721999GE19MSL   +99999+99999GF199999041999009751999999MA1102801999999MW1631OC101651REMMET075METAR EDJA 081850Z 23022G32KT 9999 RA SCT032 BKN045 06/01 Q1028 RMK      D=
0197109470999992015010819204+47989+010240FM-15+062999999V0202301N011810161519N009999199+00601+00201999999ADDGA1041+008531999GA2071+016151999GE19MSL   +99999+99999GF199999041999008531999999MA1102801999999MW1611OC101751REMMET076METAR EDJA 081920Z 23023G34KT 9999 -RA SCT028 BKN053 06/02 Q1028 RMK      E=
0181109470999992015010819504+47989+010240FM-15+062999999V0202301N01291011581CN009999199+00601+00201999999ADDGA1041+007321999GA2041+011581999GE19MSL   +99999+99999GF199999041999007321999999MA1102801999999MW1611REMMET068METAR EDJA 081950Z 23025KT 9999 -RA SCT024 SCT038 06/02 Q1028 RMK F=
0157109470999992015010820204+47989+010240FM-15+062999999V0202301N011310067119N009999199+00501+00201999999ADDGA1071+006711999GE19MSL   +99999+99999GF199999071999006711999999MA1102901999999MW1531REMMET060METAR EDJA 082020Z 23022KT 9999 DZ BKN022 05/02 Q1029 RMK G=
0171109470999992015010904204+47989+010240FM-15+062999999V0202301N006210076219N009999199+00401+00201999999ADDGA1041+004881999GA2071+007621999GE19MSL   +99999+99999GF199999041999004881999999MA1103201999999REMMET064METAR EDJA 090420Z 23012KT 9999 SCT016 BKN025 04/02 Q1032 RMK A=
0148109470999992015010904504+47989+010240FM-15+062999999V0202401N007210045719N009999199+00401+00201999999ADDGA1071+004571999GE19MSL   +99999+99999GF199999071999004571999999MA1103201999999REMMET057METAR EDJA 090450Z 24014KT 9999 BKN015 04/02 Q1032 RMK B=
0148109470999992015010905204+47989+010240FM-15+062999999V0202401N007219999999N009999199+00501+00201999999ADDGA1041+004271999GE19MSL   +99999+99999GF199999041999004271999999MA1103201999999REMMET057METAR EDJA 090520Z 24014KT 9999 SCT014 05/02 Q1032 RMK C=
0148109470999992015010905504+47989+010240FM-15+062999999V0202401N008219999999N009999199+00501+00301999999ADDGA1041+003661999GE19MSL   +99999+99999GF199999041999003661999999MA1103101999999REMMET057METAR EDJA 090550Z 24016KT 9999 SCT012 05/03 Q1031 RMK D=
0078109470999992015010906204+47989+010240FM-15+062999999V0202301N008819999999Y999999999+00501+00201999999ADDMA1103001999999REMMET051METAR EDJA 090620Z 23017KT CAVOK 05/02 Q1030 RMK E=
0078109470999992015010906504+47989+010240FM-15+062999999V0202501N008219999999Y999999999+00401+00201999999ADDMA1103001999999REMMET051METAR EDJA 090650Z 25016KT CAVOK 04/02 Q1030 RMK F=
0089109470999992015010907204+47989+010240FM-15+062999999V0202301N008219999999Y999999999+00501+00201999999ADDMA1103001999999OC101341REMMET054METAR EDJA 090720Z 23016G26KT CAVOK 05/02 Q1030 RMK G=
0078109470999992015010907504+47989+010240FM-15+062999999V0202301N010319999999Y999999999+00501+00201999999ADDMA1102901999999REMMET051METAR EDJA 090750Z 23020KT CAVOK 05/02 Q1029 RMK H=
0078109470999992015010908204+47989+010240FM-15+062999999V0202401N009319999999Y999999999+00501+00201999999ADDMA1103001999999REMMET051METAR EDJA 090820Z 24018KT CAVOK 05/02 Q1030 RMK I=
0078109470999992015010908504+47989+010240FM-15+062999999V0202201N010819999999Y999999999+00501+00201999999ADDMA1102801999999REMMET051METAR EDJA 090850Z 22021KT CAVOK 05/02 Q1028 RMK J=
0078109470999992015010909204+47989+010240FM-15+062999999V0202201N009819999999Y999999999+00501+00101999999ADDMA1102801999999REMMET051METAR EDJA 090920Z 22019KT CAVOK 05/01 Q1028 RMK K=
0078109470999992015010909504+47989+010240FM-15+062999999V0202401N008219999999Y999999999+00501+00101999999ADDMA1102801999999REMMET051METAR EDJA 090950Z 24016KT CAVOK 05/01 Q1028 RMK L=
0078109470999992015010910204+47989+010240FM-15+062999999V0202301N008819999999Y999999999+00501+00101999999ADDMA1102701999999REMMET051METAR EDJA 091020Z 23017KT CAVOK 05/01 Q1027 RMK M=
0078109470999992015010910504+47989+010240FM-15+062999999V0202301N009819999999Y999999999+00601+00101999999ADDMA1102601999999REMMET051METAR EDJA 091050Z 23019KT CAVOK 06/01 Q1026 RMK N=
0078109470999992015010911204+47989+010240FM-15+062999999V0202301N010819999999Y999999999+00601+00101999999ADDMA1102601999999REMMET051METAR EDJA 091120Z 23021KT CAVOK 06/01 Q1026 RMK O=
0078109470999992015010911504+47989+010240FM-15+062999999V0202301N010819999999Y999999999+00601+00001999999ADDMA1102601999999REMMET051METAR EDJA 091150Z 23021KT CAVOK 06/00 Q1026 RMK P=
0149109470999992015010912204+47989+010240FM-15+062999999V0202401N012419999999N009999199+00701+00001999999ADDGA1041+015851999GE19MSL   +99999+99999GF199999041999015851999999MA1102501999999REMMET058METAR EDJA 091220Z 24024KT 9999 SCT052 07/M00 Q1025 RMK Q=
0160109470999992015010912504+47989+010240FM-15+062999999V0202301N012419999999N009999199+00701+00001999999ADDGA1041+012191999GE19MSL   +99999+99999GF199999041999012191999999MA1102501999999OC101751REMMET061METAR EDJA 091250Z 23024G34KT 9999 SCT040 07/M00 Q1025 RMK R=
0160109470999992015010913204+47989+010240FM-15+062999999V0202301N013910100619N009999199+00701+00001999999ADDGA1071+010061999GE19MSL   +99999+99999GF199999071999010061999999MA1102501999999OC101901REMMET061METAR EDJA 091320Z 23027G37KT 9999 BKN033 07/M00 Q1025 RMK S=
0142109470999992015010913504+47989+010240FM-15+062999999V0202301N012410091419N009999199+00701+00001999999ADDGA1071+009141999GE19MSL   +99999+99999GF199999071999009141999999MA1102501999999REMMET051METAR EDJA 091350Z 23024KT 9999 BKN030 07/00 Q1025=
0159109470999992015010914204+47989+010240FM-15+062999999V0202301N013410082319N009999199+00701+00101999999ADDGA1071+008231999GE19MSL   +99999+99999GF199999071999008231999999MA1102501999999OC102011REMMET060METAR EDJA 091420Z 23026G39KT 9999 BKN027 07/01 Q1025 RMK U=
0159109470999992015010914504+47989+010240FM-15+062999999V0202301N014410082319N009999199+00601+00201999999ADDGA1071+008231999GE19MSL   +99999+99999GF199999071999008231999999MA1102501999999OC102111REMMET060METAR EDJA 091450Z 23028G41KT 9999 BKN027 06/02 Q1025 RMK V=
0148109470999992015010915204+47989+010240FM-15+062999999V0202301N013410064019N009999199+00601+00201999999ADDGA1071+006401999GE19MSL   +99999+99999GF199999071999006401999999MA1102501999999REMMET057METAR EDJA 091520Z 23026KT 9999 BKN021 06/02 Q1025 RMK W=
0159109470999992015010915504+47989+010240FM-15+062999999V0202301N014419999999N009999199+00601+00201999999ADDGA1041+006101999GE19MSL   +99999+99999GF199999041999006101999999MA1102401999999OC101961REMMET060METAR EDJA 091550Z 23028G38KT 9999 SCT020 06/02 Q1024 RMK X=
0159109470999992015010916204+47989+010240FM-15+062999999V0202301N013410054919N009999199+00601+00301999999ADDGA1071+005491999GE19MSL   +99999+99999GF199999071999005491999999MA1102401999999OC101961REMMET060METAR EDJA 091620Z 23026G38KT 9999 BKN018 06/03 Q1024 RMK Y=
0148109470999992015010916504+47989+010240FM-15+062999999V0202301N013419999999N009999199+00601+00301999999ADDGA1041+005491999GE19MSL   +99999+99999GF199999041999005491999999MA1102401999999REMMET057METAR EDJA 091650Z 23026KT 9999 SCT018 06/03 Q1024 RMK Z=
0159109470999992015010917204+47989+010240FM-15+062999999V0202301N013910045719N009999199+00701+00301999999ADDGA1071+004571999GE19MSL   +99999+99999GF199999071999004571999999MA1102401999999OC101961REMMET060METAR EDJA 091720Z 23027G38KT 9999 BKN015 07/03 Q1024 RMK A=
0159109470999992015010917504+47989+010240FM-15+062999999V0202401N012910045719N009999199+00701+00401999999ADDGA1071+004571999GE19MSL   +99999+99999GF199999071999004571999999MA1102401999999OC102011REMMET060METAR EDJA 091750Z 24025G39KT 9999 BKN015 07/04 Q1024 RMK B=
0159109470999992015010918204+47989+010240FM-15+062999999V0202301N012410039619N009999199+00701+00401999999ADDGA1071+003961999GE19MSL   +99999+99999GF199999071999003961999999MA1102401999999OC101751REMMET060METAR EDJA 091820Z 23024G34KT 9999 BKN013 07/04 Q1024 RMK C=
0158109470999992015010918504+47989+010240FM-15+062999999V0202401N011310039619N009999199+00701+00401999999ADDGA1071+003961999GE19MSL   +99999+99999GF199999071999003961999999MA1102401999999MW1511REMMET061METAR EDJA 091850Z 24022KT 9999 -DZ BKN013 07/04 Q1024 RMK D=
0157109470999992015010919204+47989+010240FM-15+062999999V0202401N013410039619N009999199+00701+00501999999ADDGA1081+003961999GE19MSL   +99999+99999GF199999081999003961999999MA1102301999999MW1631REMMET060METAR EDJA 091920Z 24026KT 9999 RA OVC013 07/05 Q1023 RMK E=
0157109470999992015010919504+47989+010240FM-15+062999999V0202401N012410036619N009999199+00701+00501999999ADDGA1071+003661999GE19MSL   +99999+99999GF199999071999003661999999MA1102301999999MW1631REMMET060METAR EDJA 091950Z 24024KT 9999 RA BKN012 07/05 Q1023 RMK F=
0168109470999992015010920204+47989+010240FM-15+062999999V0202401N011310039619N009999199+00701+00501999999ADDGA1071+003961999GE19MSL   +99999+99999GF199999071999003961999999MA1102301999999MW1631OC101651REMMET063METAR EDJA 092020Z 24022G32KT 9999 RA BKN013 07/05 Q1023 RMK G=
0157109470999992015010920504+47989+010240FM-15+062999999V0202301N011810036619N009000199+00701+00501999999ADDGA1081+003661999GE19MSL   +99999+99999GF199999081999003661999999MA1102301999999MW1631REMMET060METAR EDJA 092050Z 23023KT 9000 RA OVC012 07/05 Q1023 RMK H=
0153109470999992015011004204+47989+010240FM-15+062999999V0202401N015410051819N009999199+01101+00701999999ADDGA1071+005181999GE19MSL   +99999+99999GF199999071999005181999999MA1102201999999OC102111REMMET054METAR EDJA 100420Z 24030G41KT 9999 BKN017 11/07 Q1022=
0148109470999992015011004504+47989+010240FM-15+062999999V0202401N014910061019N009999199+01101+00701999999ADDGA1071+006101999GE19MSL   +99999+99999GF199999071999006101999999MA1102201999999REMMET057METAR EDJA 100450Z 24029KT 9999 BKN020 11/07 Q1022 RMK B=
0159109470999992015011005204+47989+010240FM-15+062999999V0202401N013910070119N009999199+01101+00701999999ADDGA1071+007011999GE19MSL   +99999+99999GF199999071999007011999999MA1102201999999OC101901REMMET060METAR EDJA 100520Z 24027G37KT 9999 BKN023 11/07 Q1022 RMK C=
0182109470999992015011005504+47989+010240FM-15+062999999V0202301N014410097519N009999199+01101+00701999999ADDGA1041+006101999GA2071+009751999GE19MSL   +99999+99999GF199999041999006101999999MA1102201999999OC102011REMMET067METAR EDJA 100550Z 23028G39KT 9999 SCT020 BKN032 11/07 Q1022 RMK D=
0171109470999992015011006204+47989+010240FM-15+062999999V0202301N015410106719N009999199+01101+00701999999ADDGA1041+006711999GA2071+010671999GE19MSL   +99999+99999GF199999041999006711999999MA1102201999999REMMET064METAR EDJA 100620Z 23030KT 9999 SCT022 BKN035 11/07 Q1022 RMK E=
0182109470999992015011006504+47989+010240FM-15+062999999V0202301N013910106719N009999199+01201+00701999999ADDGA1071+010671999GA2071+013721999GE19MSL   +99999+99999GF199999071999010671999999MA1102201999999OC101901REMMET067METAR EDJA 100650Z 23027G37KT 9999 BKN035 BKN045 12/07 Q1022 RMK F=
0159109470999992015011007204+47989+010240FM-15+062999999V0202401N013910128019N009999199+01201+00701999999ADDGA1071+012801999GE19MSL   +99999+99999GF199999071999012801999999MA1102201999999OC101961REMMET060METAR EDJA 100720Z 24027G38KT 9999 BKN042 12/07 Q1022 RMK G=
0159109470999992015011007504+47989+010240FM-15+062999999V0202401N013419999999N009999199+01201+00701999999ADDGA1021+012801999GE19MSL   +99999+99999GF199999021999012801999999MA1102201999999OC101901REMMET060METAR EDJA 100750Z 24026G37KT 9999 FEW042 12/07 Q1022 RMK H=
0148109470999992015011008204+47989+010240FM-15+062999999V0202401N013419999999N009999199+01201+00801999999ADDGA1021+012801999GE19MSL   +99999+99999GF199999021999012801999999MA1102101999999REMMET057METAR EDJA 100820Z 24026KT 9999 FEW042 12/08 Q1021 RMK I=
0078109470999992015011008504+47989+010240FM-15+062999999V0202401N011819999999Y999999999+01201+00701999999ADDMA1102101999999REMMET051METAR EDJA 100850Z 24023KT CAVOK 12/07 Q1021 RMK J=
0078109470999992015011009204+47989+010240FM-15+062999999V0202401N010819999999Y999999999+01201+00801999999ADDMA1102101999999REMMET051METAR EDJA 100920Z 24021KT CAVOK 12/08 Q1021 RMK K=
0148109470999992015011009504+47989+010240FM-15+062999999V0202401N010319999999N009999199+01301+00801999999ADDGA1021+009141999GE19MSL   +99999+99999GF199999021999009141999999MA1102101999999REMMET057METAR EDJA 100950Z 24020KT 9999 FEW030 13/08 Q1021 RMK L=
0148109470999992015011010204+47989+010240FM-15+062999999V0202301N011819999999N009999199+01301+00801999999ADDGA1021+009141999GE19MSL   +99999+99999GF199999021999009141999999MA1102001999999REMMET057METAR EDJA 101020Z 23023KT 9999 FEW030 13/08 Q1020 RMK M=
0159109470999992015011010504+47989+010240FM-15+062999999V0202401N011819999999N009999199+01401+00801999999ADDGA1021+009141999GE19MSL   +99999+99999GF199999021999009141999999MA1101901999999OC101701REMMET060METAR EDJA 101050Z 24023G33KT 9999 FEW030 14/08 Q1019 RMK N=
0159109470999992015011011204+47989+010240FM-15+062999999V0202401N013919999999N009999199+01301+00801999999ADDGA1021+009141999GE19MSL   +99999+99999GF199999021999009141999999MA1101901999999OC102061REMMET060METAR EDJA 101120Z 24027G40KT 9999 FEW030 13/08 Q1019 RMK O=
0159109470999992015011011504+47989+010240FM-15+062999999V0202401N015419999999N009999199+01301+00801999999ADDGA1041+007621999GE19MSL   +99999+99999GF199999041999007621999999MA1101901999999OC102211REMMET060METAR EDJA 101150Z 24030G43KT 9999 SCT025 13/08 Q1019 RMK Q=
0159109470999992015011012204+47989+010240FM-15+062999999V0202401N014919999999N009999199+01301+00701999999ADDGA1041+009141999GE19MSL   +99999+99999GF199999041999009141999999MA1101801999999OC102061REMMET060METAR EDJA 101220Z 24029G40KT 9999 SCT030 13/07 Q1018 RMK R=
0159109470999992015011012504+47989+010240FM-15+062999999V0202301N014919999999N009999199+01301+00701999999ADDGA1021+010671999GE19MSL   +99999+99999GF199999021999010671999999MA1101801999999OC102061REMMET060METAR EDJA 101250Z 23029G40KT 9999 FEW035 13/07 Q1018 RMK S=
0159109470999992015011013204+47989+010240FM-15+062999999V0202401N014919999999N009999199+01401+00701999999ADDGA1021+010671999GE19MSL   +99999+99999GF199999021999010671999999MA1101801999999OC102271REMMET060METAR EDJA 101320Z 24029G44KT 9999 FEW035 14/07 Q1018 RMK U=
0159109470999992015011013504+47989+010240FM-15+062999999V0202401N014419999999N009999199+01301+00601999999ADDGA1021+010671999GE19MSL   +99999+99999GF199999021999010671999999MA1101701999999OC101961REMMET060METAR EDJA 101350Z 24028G38KT 9999 FEW035 13/06 Q1017 RMK V=
0159109470999992015011014204+47989+010240FM-15+062999999V0202501N012919999999N009999199+01301+00601999999ADDGA1021+011581999GE19MSL   +99999+99999GF199999021999011581999999MA1101801999999OC101801REMMET060METAR EDJA 101420Z 25025G35KT 9999 FEW038 13/06 Q1018 RMK W=
0159109470999992015011014504+47989+010240FM-15+062999999V0202401N012419999999N009999199+01301+00601999999ADDGA1021+011581999GE19MSL   +99999+99999GF199999021999011581999999MA1101801999999OC101801REMMET060METAR EDJA 101450Z 24024G35KT 9999 FEW038 13/06 Q1018 RMK X=
0148109470999992015011015204+47989+010240FM-15+062999999V0202401N012419999999N009999199+01201+00701999999ADDGA1021+012191999GE19MSL   +99999+99999GF199999021999012191999999MA1101801999999REMMET057METAR EDJA 101520Z 24024KT 9999 FEW040 12/07 Q1018 RMK Y=
0148109470999992015011015504+47989+010240FM-15+062999999V0202401N011819999999N009999199+01301+00701999999ADDGA1041+012801999GE19MSL   +99999+99999GF199999041999012801999999MA1101801999999REMMET057METAR EDJA 101550Z 24023KT 9999 SCT042 13/07 Q1018 RMK Z=
0171109470999992015011016204+47989+010240FM-15+062999999V0202401N011810131119N009999199+01301+00701999999ADDGA1041+009751999GA2071+013111999GE19MSL   +99999+99999GF199999041999009751999999MA1101801999999REMMET064METAR EDJA 101620Z 24023KT 9999 SCT032 BKN043 13/07 Q1018 RMK A=
0182109470999992015011016504+47989+010240FM-15+062999999V0202401N013910146319N009999199+01201+00601999999ADDGA1021+009141999GA2071+014631999GE19MSL   +99999+99999GF199999021999009141999999MA1101701999999OC102321REMMET067METAR EDJA 101650Z 24027G45KT 9999 FEW030 BKN048 12/06 Q1017 RMK B=
0159109470999992015011017204+47989+010240FM-15+062999999V0202501N012919999999N009999199+01201+00601999999ADDGA1041+012801999GE19MSL   +99999+99999GF199999041999012801999999MA1101801999999OC101901REMMET060METAR EDJA 101720Z 25025G37KT 9999 SCT042 12/06 Q1018 RMK C=
0159109470999992015011017504+47989+010240FM-15+062999999V0202501N011810134119N009999199+01201+00601999999ADDGA1071+013411999GE19MSL   +99999+99999GF199999071999013411999999MA1101801999999OC101701REMMET060METAR EDJA 101750Z 25023G33KT 9999 BKN044 12/06 Q1018 RMK D=
0159109470999992015011018204+47989+010240FM-15+062999999V0202501N012910146319N009999199+01201+00601999999ADDGA1071+014631999GE19MSL   +99999+99999GF199999071999014631999999MA1101801999999OC102011REMMET060METAR EDJA 101820Z 25025G39KT 9999 BKN048 12/06 Q1018 RMK E=
0159109470999992015011018504+47989+010240FM-15+062999999V0202501N013910155419N009999199+01201+00501999999ADDGA1071+015541999GE19MSL   +99999+99999GF199999071999015541999999MA1101801999999OC102011REMMET060METAR EDJA 101850Z 25027G39KT 9999 BKN051 12/05 Q1018 RMK F=
0148109470999992015011019204+47989+010240FM-15+062999999V0202501N013410158519N009999199+01101+00501999999ADDGA1071+015851999GE19MSL   +99999+99999GF199999071999015851999999MA1101701999999REMMET057METAR EDJA 101920Z 25026KT 9999 BKN052 11/05 Q1017 RMK G=
0089109470999992015011019504+47989+010240FM-15+062999999V0202501N013419999999Y999999999+01101+00501999999ADDMA1101701999999OC101901REMMET054METAR EDJA 101950Z 25026G37KT CAVOK 11/05 Q1017 RMK H=
0078109470999992015011020204+47989+010240FM-15+062999999V0202501N011319999999Y999999999+01101+00401999999ADDMA1101701999999REMMET051METAR EDJA 102020Z 25022KT CAVOK 11/04 Q1017 RMK I=
0159109470999992015011020504+47989+010240FM-15+062999999V0202501N012910128019N009999199+01101+00401999999ADDGA1071+012801999GE19MSL   +99999+99999GF199999071999012801999999MA1101701999999OC101801REMMET060METAR EDJA 102050Z 25025G35KT 9999 BKN042 11/04 Q1017 RMK J=
0089109470999992015011021204+47989+010240FM-15+062999999V0202601N016019999999Y999999999+01101+00401999999ADDMA1101701999999OC102421REMMET054METAR EDJA 102120Z 26031G47KT CAVOK 11/04 Q1017 RMK K=
0158109470999992015011104504+47989+010240FM-15+062999999V0202901N007719999999N009999199+00301+00101999999ADDGA1041+003661999GE19MSL   +99999+99999GF199999041999003661999999MA1101501999999MW1611REMMET061METAR EDJA 110450Z 29015KT 9999 -RA SCT012 03/01 Q1015 RMK A=
0158109470999992015011105204+47989+010240FM-15+062999999V0202901N008819999999N009999199+00301+00101999999ADDGA1041+003351999GE19MSL   +99999+99999GF199999041999003351999999MA1101501999999MW1611REMMET061METAR EDJA 110520Z 29017KT 9999 -RA SCT011 03/01 Q1015 RMK B=
0158109470999992015011105504+47989+010240FM-15+062999999V0203001N008819999999N009999199+00201+00001999999ADDGA1041+003051999GE19MSL   +99999+99999GF199999041999003051999999MA1101501999999MW1611REMMET061METAR EDJA 110550Z 30017KT 9999 -RA SCT010 02/00 Q1015 RMK C=
0161109470999992015011106204+47989+010240FM-15+062999999V0202901N009319999999N008000199+00201+00001999999ADDGA1041+003661999GE19MSL   +99999+99999GF199999041999003661999999MA1101601999999MW1681REMMET064METAR EDJA 110620Z 29018KT 8000 -RASN SCT012 02/M00 Q1016 RMK D=
0159109470999992015011106504+47989+010240FM-15+062999999V0202801N006710015219N006000199+00101+00001999999ADDGA1071+001521999GE19MSL   +99999+99999GF199999071999001521999999MA1101601999999MW1711REMMET062METAR EDJA 110650Z 28013KT 6000 -SN BKN005 01/M00 Q1016 RMK F=
0172109470999992015011107204+47989+010240FM-15+062999999V0202501V004110015219N003400199+00001+00001999999ADDGA1071+001521999GE19MSL   +99999+99999GF199999071999001521999999MA1101701999999MW1711REMMET075METAR EDJA 110720Z 25008KT 220V280 3400 -SN BKN005 00/M00 Q1017 RMK      G=
0158109470999992015011107504+47989+010240FM-15+062999999V0202601N007210012219N002800199+00001-00101999999ADDGA1071+001221999GE19MSL   +99999+99999GF199999071999001221999999MA1101801999999MW1731REMMET061METAR EDJA 110750Z 26014KT 2800 SN BKN004 00/M01 Q1018 RMK H=
0197109470999992015011108204+47989+010240FM-15+062999999V0202501N004110015219N001400199+00001-00101999999ADDGA1021+000611999GA2071+001521999GE19MSL   +99999+99999GF199999021999000611999999MA1101901999999MW1731REMMET084METAR EDJA 110820Z 25008KT 1400 R24/2000D SN FEW002 BKN005 M00/M01      Q1019 RMK I=
0182109470999992015011108504+47989+010240FM-15+062999999V0202701N004610042719N009999199+00001+00001999999ADDGA1041+002441999GA2071+004271999GE19MSL   +99999+99999GF199999041999002441999999MA1102001999999REMMET075METAR EDJA 110850Z 27009KT 9999 SCT008 BKN014 00/M00 Q1020 RESN RMK      J=
0172109470999992015011109204+47989+010240FM-15+062999999V0202401N00771010671CN009999199+00101-00101999999ADDGA1041+008231999GA2041+010671999GE19MSL   +99999+99999GF199999041999008231999999MA1102201999999REMMET065METAR EDJA 110920Z 24015KT 9999 SCT027 SCT035 01/M01 Q1022 RMK K=
0143109470999992015011109504+47989+010240FM-15+062999999V0202401N008219999999N009999199+00101-00101999999ADDGA1041+009141999GE19MSL   +99999+99999GF199999041999009141999999MA1102201999999REMMET052METAR EDJA 110950Z 24016KT 9999 SCT030 01/M01 Q1022=
0181109470999992015011110204+47989+010240FM-15+062999999V0202401N00931009141CN002500199+00101-00101999999ADDGA1041+004571999GA2041+009141999GE19MSL   +99999+99999GF199999041999004571999999MA1102301999999MW1731REMMET068METAR EDJA 111020Z 24018KT 2500 SN SCT015 SCT030 01/M01 Q1023 RMK M=
0192109470999992015011110504+47989+010240FM-15+062999999V0202501N01081010671CN009999199+00101+00001999999ADDGA1021+003351999GA2041+010671999GE19MSL   +99999+99999GF199999021999003351999999MA1102201999999MW1711REMMET079METAR EDJA 111050Z 25021KT 9999 -SN FEW011 SCT035 01/M00 Q1022 RESN      RMK N=
0169109470999992015011111184+47989+010240FM-16+062999999V0202401N010810012219N002000199+00101-00101999999ADDGA1071+001221999GE19MSL   +99999+99999GF199999071999001221999999MA1102201999999MW1731OC101901REMMET064SPECI EDJA 111118Z 24021G37KT 2000 SN BKN004 01/M01 Q1022 RMK Q=
0187109470999992015011111204+47989+010240FM-15+062999999V0202401N009810015219N008000199+00101+00001999999ADDGA1071+001521999GA2071+005181999GE19MSL   +99999+99999GF199999071999001521999999MA1102201999999MW1711REMMET074METAR EDJA 111120Z 24019KT 8000 -SN BKN005 BKN017 01/M00 Q1022 RMK      O=
0164109470999992015011111234+47989+010240FM-16+062999999V0202401N011810024419N002600199+00001-00101999999ADDGA1071+002441999GE19MSL   +99999+99999GF199999071999002441999999MA1102201999999MW1711OC101901REMMET059SPECI EDJA 111123Z 24023G37KT 2600 -SN BKN008 00/M01 Q1022=
0172109470999992015011111504+47989+010240FM-15+062999999V0202401N010310042719N009999199+00101+00001999999ADDGA1021+001521999GA2071+004271999GE19MSL   +99999+99999GF199999021999001521999999MA1102201999999REMMET065METAR EDJA 111150Z 24020KT 9999 FEW005 BKN014 01/M00 Q1022 RMK S=
0149109470999992015011112204+47989+010240FM-15+062999999V0202401N010319999999N009999199+00201-00101999999ADDGA1021+006101999GE19MSL   +99999+99999GF199999021999006101999999MA1102101999999REMMET058METAR EDJA 111220Z 24020KT 9999 FEW020 02/M01 Q1021 RMK T=
0079109470999992015011112504+47989+010240FM-15+062999999V0202501N011319999999Y999999999+00201+00001999999ADDMA1102101999999REMMET052METAR EDJA 111250Z 25022KT CAVOK 02/M00 Q1021 RMK U=
0149109470999992015011113204+47989+010240FM-15+062999999V0202401N009819999999N009999199+00201+00001999999ADDGA1041+009141999GE19MSL   +99999+99999GF199999041999009141999999MA1102101999999REMMET058METAR EDJA 111320Z 24019KT 9999 SCT030 02/M00 Q1021 RMK V=
0129109470999992015011113314+47989+010240FM-16+062999999V0202401N009819999999N009999199+99999+99999999999ADDMA1102105999999MW1855REMMET077SPECI EDJA 111331Z 24019KT 9999 4500N -SHDZSN BKN014 01/M01 Q1021 RMK      W=EQDD01      0ADE735
0129109470999992015011113324+47989+010240FM-16+062999999V0202401N009819999999N009999199+99999+99999999999ADDMA1102105999999MW1855REMMET077SPECI EDJA 111332Z 24019KT 9999 4500N -SHDZSN BKN014 01/M01 Q1021 RMK      W=EQDD01      0ADE735
0174109470999992015011113334+47989+010240FM-16+062999999V0202401N009810042719N009999199+00101-00101999999ADDGA1071+004271999GE19MSL   +99999+99999GF199999071999004271999999MA1102101999999MW1831REMMET077SPECI EDJA 111333Z 24019KT 9999 4500N -SHSNRA BKN014 01/M01 Q1021 RMK      W=
0162109470999992015011113364+47989+010240FM-16+062999999V0202401N009810015219N002500199+00101-00101999999ADDGA1071+001521999GE19MSL   +99999+99999GF199999071999001521999999MA1102101999999MW1841REMMET065SPECI EDJA 111336Z 24019KT 2500 SHRASN BKN005 01/M01 Q1021 RMK X=
0185109470999992015011113504+47989+010240FM-15+062999999V0202501N010310009119N001200199+00001-00101999999ADDGA1071+000911091GE19MSL   +99999+99999GF199999071999000911999999MA1102101999999MW1841REMMET088METAR EDJA 111350Z 25020KT 1200 R24/0900VP2000D SHSNRA BKN003CB 00/M01      Q1021 RMK Y=
0172109470999992015011114054+47989+010240FM-16+062999999V0202701N007219999999N009999199+00001+00001999999ADDGA1021+006401999GE19MSL   +99999+99999GF199999021999006401999999MA1102201999999MW1161REMMET075SPECI EDJA 111405Z 27014KT 9999 VCSH FEW021 00/M00 Q1022 RESNRA RMK      Z=
0156109470999992015011114204+47989+010240FM-15+062999999V0202601N006219999999N009999199+00001+00001999999ADDGA1021+007321999GE19MSL   +99999+99999GF199999021999007321999999MA1102201999999REMMET065METAR EDJA 111420Z 26012KT 9999 FEW024 00/M00 Q1022 RESNRA RMK A=
0172109470999992015011114504+47989+010240FM-15+062999999V0202701N00671012801CN009999199+00101+00001999999ADDGA1041+005491999GA2041+012801999GE19MSL   +99999+99999GF199999041999005491999999MA1102301999999REMMET065METAR EDJA 111450Z 27013KT 9999 SCT018 SCT042 01/M00 Q1023 RMK B=
0172109470999992015011115204+47989+010240FM-15+062999999V0202601N00881009141CN009999199+00101-00101999999ADDGA1021+006401999GA2041+009141999GE19MSL   +99999+99999GF199999021999006401999999MA1102301999999REMMET065METAR EDJA 111520Z 26017KT 9999 FEW021 SCT030 01/M01 Q1023 RMK C=
0149109470999992015011115504+47989+010240FM-15+062999999V0202601N008819999999N009999199+00101-00201999999ADDGA1021+006401999GE19MSL   +99999+99999GF199999021999006401999999MA1102401999999REMMET058METAR EDJA 111550Z 26017KT 9999 FEW021 01/M02 Q1024 RMK D=
0149109470999992015011116204+47989+010240FM-15+062999999V0202601N008219999999N009999199+00101-00201999999ADDGA1021+009141999GE19MSL   +99999+99999GF199999021999009141999999MA1102401999999REMMET058METAR EDJA 111620Z 26016KT 9999 FEW030 01/M02 Q1024 RMK E=
0149109470999992015011116504+47989+010240FM-15+062999999V0202501N007719999999N009999199+00101-00301999999ADDGA1021+018291999GE19MSL   +99999+99999GF199999021999018291999999MA1102401999999REMMET058METAR EDJA 111650Z 25015KT 9999 FEW060 01/M03 Q1024 RMK F=
0149109470999992015011117204+47989+010240FM-15+062999999V0202401N005719999999N009999199+00001-00201999999ADDGA1041+009141999GE19MSL   +99999+99999GF199999041999009141999999MA1102501999999REMMET058METAR EDJA 111720Z 24011KT 9999 SCT030 00/M02 Q1025 RMK G=
0149109470999992015011117504+47989+010240FM-15+062999999V0202401N007219999999N009999199+00001-00201999999ADDGA1041+009141999GE19MSL   +99999+99999GF199999041999009141999999MA1102501999999REMMET058METAR EDJA 111750Z 24014KT 9999 SCT030 00/M02 Q1025 RMK H=
0149109470999992015011118204+47989+010240FM-15+062999999V0202401N007219999999N009999199+00101-00201999999ADDGA1041+008841999GE19MSL   +99999+99999GF199999041999008841999999MA1102601999999REMMET058METAR EDJA 111820Z 24014KT 9999 SCT029 01/M02 Q1026 RMK I=
0149109470999992015011118504+47989+010240FM-15+062999999V0202401N007719999999N009999199+00101-00201999999ADDGA1041+008531999GE19MSL   +99999+99999GF199999041999008531999999MA1102601999999REMMET058METAR EDJA 111850Z 24015KT 9999 SCT028 01/M02 Q1026 RMK J=
0172109470999992015011119204+47989+010240FM-15+062999999V0202401N008210100619N009999199+00101-00201999999ADDGA1041+004571999GA2071+010061999GE19MSL   +99999+99999GF199999041999004571999999MA1102601999999REMMET065METAR EDJA 111920Z 24016KT 9999 SCT015 BKN033 01/M02 Q1026 RMK K=
0172109470999992015011119504+47989+010240FM-15+062999999V0202401N008810128019N009999199+00101-00201999999ADDGA1041+005491999GA2071+012801999GE19MSL   +99999+99999GF199999041999005491999999MA1102601999999REMMET065METAR EDJA 111950Z 24017KT 9999 SCT018 BKN042 01/M02 Q1026 RMK L=
0183109470999992015011120204+47989+010240FM-15+062999999V0202401N008210152419N009999199+00101-00201999999ADDGA1041+004571999GA2071+015241999GE19MSL   +99999+99999GF199999041999004571999999MA1102601999999OC101341REMMET068METAR EDJA 112020Z 24016G26KT 9999 SCT015 BKN050 01/M02 Q1026 RMK M=
0149109470999992015011120504+47989+010240FM-15+062999999V0202301N008210067119N009999199+00101-00201999999ADDGA1071+006711999GE19MSL   +99999+99999GF199999071999006711999999MA1102601999999REMMET058METAR EDJA 112050Z 23016KT 9999 BKN022 01/M02 Q1026 RMK N=
0075109470999992015011204504+47989+010240FM-15+062999999V0202301N008219999999Y999999999+00101-00301999999ADDMA1102701999999REMMET048METAR EDJA 120450Z 23016KT CAVOK 01/M03 Q1027 A=
0079109470999992015011205204+47989+010240FM-15+062999999V0202401N009819999999Y999999999+00101-00301999999ADDMA1102701999999REMMET052METAR EDJA 120520Z 24019KT CAVOK 01/M03 Q1027 RMK B=
0079109470999992015011205504+47989+010240FM-15+062999999V0202301N008819999999Y999999999+00101-00301999999ADDMA1102701999999REMMET052METAR EDJA 120550Z 23017KT CAVOK 01/M03 Q1027 RMK C=
0079109470999992015011206204+47989+010240FM-15+062999999V0202301N008219999999Y999999999+00101-00301999999ADDMA1102701999999REMMET052METAR EDJA 120620Z 23016KT CAVOK 01/M03 Q1027 RMK D=
0079109470999992015011206504+47989+010240FM-15+062999999V0202301N007719999999Y999999999+00101-00301999999ADDMA1102701999999REMMET052METAR EDJA 120650Z 23015KT CAVOK 01/M03 Q1027 RMK E=
0079109470999992015011207204+47989+010240FM-15+062999999V0202301N007719999999Y999999999+00101-00301999999ADDMA1102701999999REMMET052METAR EDJA 120720Z 23015KT CAVOK 01/M03 Q1027 RMK F=
0079109470999992015011207504+47989+010240FM-15+062999999V0202301N008819999999Y999999999+00101-00301999999ADDMA1102601999999REMMET052METAR EDJA 120750Z 23017KT CAVOK 01/M03 Q1026 RMK G=
0079109470999992015011208204+47989+010240FM-15+062999999V0202401N008219999999Y999999999+00101-00301999999ADDMA1102701999999REMMET052METAR EDJA 120820Z 24016KT CAVOK 01/M03 Q1027 RMK H=
0079109470999992015011208504+47989+010240FM-15+062999999V0202401N008219999999Y999999999+00101-00301999999ADDMA1102701999999REMMET052METAR EDJA 120850Z 24016KT CAVOK 01/M03 Q1027 RMK I=
0090109470999992015011209204+47989+010240FM-15+062999999V0202301N008819999999Y999999999+00201-00301999999ADDMA1102601999999OC101391REMMET055METAR EDJA 120920Z 23017G27KT CAVOK 02/M03 Q1026 RMK J=
0079109470999992015011209504+47989+010240FM-15+062999999V0202401N009819999999Y999999999+00201-00301999999ADDMA1102601999999REMMET052METAR EDJA 120950Z 24019KT CAVOK 02/M03 Q1026 RMK K=
0079109470999992015011210204+47989+010240FM-15+062999999V0202401N009319999999Y999999999+00201-00301999999ADDMA1102501999999REMMET052METAR EDJA 121020Z 24018KT CAVOK 02/M03 Q1025 RMK L=
0079109470999992015011210504+47989+010240FM-15+062999999V0202401N009319999999Y999999999+00201-00301999999ADDMA1102501999999REMMET052METAR EDJA 121050Z 24018KT CAVOK 02/M03 Q1025 RMK M=
0079109470999992015011211204+47989+010240FM-15+062999999V0202401N009319999999Y999999999+00301-00301999999ADDMA1102501999999REMMET052METAR EDJA 121120Z 24018KT CAVOK 03/M03 Q1025 RMK N=
0079109470999992015011211504+47989+010240FM-15+062999999V0202401N007219999999Y999999999+00301-00301999999ADDMA1102401999999REMMET052METAR EDJA 121150Z 24014KT CAVOK 03/M03 Q1024 RMK O=
0079109470999992015011212204+47989+010240FM-15+062999999V0202401N008819999999Y999999999+00401-00401999999ADDMA1102401999999REMMET052METAR EDJA 121220Z 24017KT CAVOK 04/M04 Q1024 RMK P=
0079109470999992015011212504+47989+010240FM-15+062999999V0202401N007719999999Y999999999+00401-00401999999ADDMA1102401999999REMMET052METAR EDJA 121250Z 24015KT CAVOK 04/M04 Q1024 RMK Q=
0073109470999992015011213204+47989+010240FM-15+062999999V0202401N007719999999Y999999999+00401-00401999999ADDMA1102301999999REMMET046METAR EDJA 121320Z 24015KT CAVOK 04/M04 Q1023=
0079109470999992015011213504+47989+010240FM-15+062999999V0202301N007719999999Y999999999+00401-00401999999ADDMA1102301999999REMMET052METAR EDJA 121350Z 23015KT CAVOK 04/M04 Q1023 RMK S=
0079109470999992015011214204+47989+010240FM-15+062999999V0202301N008219999999Y999999999+00401-00401999999ADDMA1102301999999REMMET052METAR EDJA 121420Z 23016KT CAVOK 04/M04 Q1023 RMK T=
0079109470999992015011214504+47989+010240FM-15+062999999V0202301N007719999999Y999999999+00501-00401999999ADDMA1102301999999REMMET052METAR EDJA 121450Z 23015KT CAVOK 05/M04 Q1023 RMK U=
0079109470999992015011215204+47989+010240FM-15+062999999V0202301N007719999999Y999999999+00401-00501999999ADDMA1102301999999REMMET052METAR EDJA 121520Z 23015KT CAVOK 04/M05 Q1023 RMK V=
0079109470999992015011215504+47989+010240FM-15+062999999V0202301N009319999999Y999999999+00401-00501999999ADDMA1102301999999REMMET052METAR EDJA 121550Z 23018KT CAVOK 04/M05 Q1023 RMK W=
0079109470999992015011216204+47989+010240FM-15+062999999V0202301N008219999999Y999999999+00401-00601999999ADDMA1102201999999REMMET052METAR EDJA 121620Z 23016KT CAVOK 04/M06 Q1022 RMK X=
0079109470999992015011216504+47989+010240FM-15+062999999V0202301N008819999999Y999999999+00401-00601999999ADDMA1102201999999REMMET052METAR EDJA 121650Z 23017KT CAVOK 04/M06 Q1022 RMK Y=
0079109470999992015011217204+47989+010240FM-15+062999999V0202301N008219999999Y999999999+00401-00601999999ADDMA1102201999999REMMET052METAR EDJA 121720Z 23016KT CAVOK 04/M06 Q1022 RMK Z=
0079109470999992015011217504+47989+010240FM-15+062999999V0202301N009319999999Y999999999+00601-00701999999ADDMA1102201999999REMMET052METAR EDJA 121750Z 23018KT CAVOK 06/M07 Q1022 RMK A=
0079109470999992015011218204+47989+010240FM-15+062999999V0202401N007719999999Y999999999+00501-00601999999ADDMA1102201999999REMMET052METAR EDJA 121820Z 24015KT CAVOK 05/M06 Q1022 RMK B=
0079109470999992015011218504+47989+010240FM-15+062999999V0202301N008819999999Y999999999+00501-00601999999ADDMA1102201999999REMMET052METAR EDJA 121850Z 23017KT CAVOK 05/M06 Q1022 RMK C=
0073109470999992015011219204+47989+010240FM-15+062999999V0202201N006219999999Y999999999+00301-00501999999ADDMA1102201999999REMMET046METAR EDJA 121920Z 22012KT CAVOK 03/M05 Q1022=
0079109470999992015011219504+47989+010240FM-15+062999999V0202401N006219999999Y999999999+00401-00601999999ADDMA1102201999999REMMET052METAR EDJA 121950Z 24012KT CAVOK 04/M06 Q1022 RMK E=
0079109470999992015011220204+47989+010240FM-15+062999999V0202401N006219999999Y999999999+00401-00601999999ADDMA1102201999999REMMET052METAR EDJA 122020Z 24012KT CAVOK 04/M06 Q1022 RMK F=
0079109470999992015011220504+47989+010240FM-15+062999999V0202401N005719999999Y999999999+00301-00601999999ADDMA1102201999999REMMET052METAR EDJA 122050Z 24011KT CAVOK 03/M06 Q1022 RMK G=
0079109470999992015011304204+47989+010240FM-15+062999999V0202101N005119999999Y999999999+00201-00701999999ADDMA1102001999999REMMET052METAR EDJA 130420Z 21010KT CAVOK 02/M07 Q1020 RMK A=
0079109470999992015011304504+47989+010240FM-15+062999999V0202101N005719999999Y999999999+00201-00701999999ADDMA1102001999999REMMET052METAR EDJA 130450Z 21011KT CAVOK 02/M07 Q1020 RMK B=
0079109470999992015011305204+47989+010240FM-15+062999999V0202101N006719999999Y999999999+00301-00801999999ADDMA1101901999999REMMET052METAR EDJA 130520Z 21013KT CAVOK 03/M08 Q1019 RMK C=
0079109470999992015011305504+47989+010240FM-15+062999999V0202101N005119999999Y999999999+00101-00601999999ADDMA1101901999999REMMET052METAR EDJA 130550Z 21010KT CAVOK 01/M06 Q1019 RMK D=
0079109470999992015011306204+47989+010240FM-15+062999999V0202001N007219999999Y999999999+00101-00701999999ADDMA1101901999999REMMET052METAR EDJA 130620Z 20014KT CAVOK 01/M07 Q1019 RMK E=
0079109470999992015011307204+47989+010240FM-15+062999999V0202001N006719999999Y999999999+00301-00701999999ADDMA1101801999999REMMET052METAR EDJA 130720Z 20013KT CAVOK 03/M07 Q1018 RMK F=
0079109470999992015011308204+47989+010240FM-15+062999999V0202001N006219999999Y999999999+00401-00601999999ADDMA1101801999999REMMET052METAR EDJA 130820Z 20012KT CAVOK 04/M06 Q1018 RMK G=
0079109470999992015011308504+47989+010240FM-15+062999999V0201901N005719999999Y999999999+00501-00601999999ADDMA1101801999999REMMET052METAR EDJA 130850Z 19011KT CAVOK 05/M06 Q1018 RMK H=
0079109470999992015011309204+47989+010240FM-15+062999999V0202101N005719999999Y999999999+00601-00601999999ADDMA1101801999999REMMET052METAR EDJA 130920Z 21011KT CAVOK 06/M06 Q1018 RMK I=
0079109470999992015011309504+47989+010240FM-15+062999999V0202101N005119999999Y999999999+00601-00501999999ADDMA1101801999999REMMET052METAR EDJA 130950Z 21010KT CAVOK 06/M05 Q1018 RMK J=
0079109470999992015011310204+47989+010240FM-15+062999999V0202101N005119999999Y999999999+00701-00401999999ADDMA1101801999999REMMET052METAR EDJA 131020Z 21010KT CAVOK 07/M04 Q1018 RMK K=
0079109470999992015011310504+47989+010240FM-15+062999999V0202001N005719999999Y999999999+00801-00301999999ADDMA1101701999999REMMET052METAR EDJA 131050Z 20011KT CAVOK 08/M03 Q1017 RMK L=
0079109470999992015011311204+47989+010240FM-15+062999999V0202001N005119999999Y999999999+01001-00301999999ADDMA1101701999999REMMET052METAR EDJA 131120Z 20010KT CAVOK 10/M03 Q1017 RMK M=
0079109470999992015011311504+47989+010240FM-15+062999999V0202201N006219999999Y999999999+01101-00701999999ADDMA1101601999999REMMET052METAR EDJA 131150Z 22012KT CAVOK 11/M07 Q1016 RMK N=
0079109470999992015011312504+47989+010240FM-15+062999999V0202301N007219999999Y999999999+01101-00501999999ADDMA1101601999999REMMET052METAR EDJA 131250Z 23014KT CAVOK 11/M05 Q1016 RMK O=
0079109470999992015011313204+47989+010240FM-15+062999999V0202201N007219999999Y999999999+01101-00701999999ADDMA1101501999999REMMET052METAR EDJA 131320Z 22014KT CAVOK 11/M07 Q1015 RMK P=
0079109470999992015011313504+47989+010240FM-15+062999999V0202301N006219999999Y999999999+01001-00701999999ADDMA1101501999999REMMET052METAR EDJA 131350Z 23012KT CAVOK 10/M07 Q1015 RMK Q=
0079109470999992015011314204+47989+010240FM-15+062999999V0202301N006219999999Y999999999+01101-00701999999ADDMA1101501999999REMMET052METAR EDJA 131420Z 23012KT CAVOK 11/M07 Q1015 RMK R=
0079109470999992015011314504+47989+010240FM-15+062999999V0202301N008219999999Y999999999+01101-00701999999ADDMA1101501999999REMMET052METAR EDJA 131450Z 23016KT CAVOK 11/M07 Q1015 RMK S=
0079109470999992015011315204+47989+010240FM-15+062999999V0202201N007219999999Y999999999+00901-00601999999ADDMA1101501999999REMMET052METAR EDJA 131520Z 22014KT CAVOK 09/M06 Q1015 RMK T=
0079109470999992015011315504+47989+010240FM-15+062999999V0202301N008219999999Y999999999+01001-00701999999ADDMA1101501999999REMMET052METAR EDJA 131550Z 23016KT CAVOK 10/M07 Q1015 RMK U=
0079109470999992015011316204+47989+010240FM-15+062999999V0202301N008219999999Y999999999+00901-00601999999ADDMA1101501999999REMMET052METAR EDJA 131620Z 23016KT CAVOK 09/M06 Q1015 RMK V=
0079109470999992015011316504+47989+010240FM-15+062999999V0202301N007719999999Y999999999+00901-00601999999ADDMA1101501999999REMMET052METAR EDJA 131650Z 23015KT CAVOK 09/M06 Q1015 RMK W=
0079109470999992015011317204+47989+010240FM-15+062999999V0202201N006219999999Y999999999+00701-00501999999ADDMA1101501999999REMMET052METAR EDJA 131720Z 22012KT CAVOK 07/M05 Q1015 RMK X=
0079109470999992015011317504+47989+010240FM-15+062999999V0202001N005719999999Y999999999+00501-00401999999ADDMA1101401999999REMMET052METAR EDJA 131750Z 20011KT CAVOK 05/M04 Q1014 RMK Y=
0079109470999992015011318204+47989+010240FM-15+062999999V0202001N005119999999Y999999999+00401-00401999999ADDMA1101501999999REMMET052METAR EDJA 131820Z 20010KT CAVOK 04/M04 Q1015 RMK Z=
0079109470999992015011318504+47989+010240FM-15+062999999V0201901N004119999999Y999999999+00301-00501999999ADDMA1101401999999REMMET052METAR EDJA 131850Z 19008KT CAVOK 03/M05 Q1014 RMK A=
0079109470999992015011319204+47989+010240FM-15+062999999V0202101N005119999999Y999999999+00301-00401999999ADDMA1101501999999REMMET052METAR EDJA 131920Z 21010KT CAVOK 03/M04 Q1015 RMK B=
0079109470999992015011319504+47989+010240FM-15+062999999V0202101N005119999999Y999999999+00301-00401999999ADDMA1101401999999REMMET052METAR EDJA 131950Z 21010KT CAVOK 03/M04 Q1014 RMK C=
0079109470999992015011320204+47989+010240FM-15+062999999V0201901N005719999999Y999999999+00401-00401999999ADDMA1101401999999REMMET052METAR EDJA 132020Z 19011KT CAVOK 04/M04 Q1014 RMK D=
