0132100465999992012010100204+54367+010133FM-15+0031EDHK V0201701N003110003019N0004001N1+00401+00301999999ADDGA1091+000301999GF109991999999000251999999MA1100711999999MW1451REMMET057METAR EDHK 010020Z 17006KT 0400 FG VV001 04/03 Q1007 RED;
0132100465999992012010101204+54367+010133FM-15+0031EDHK V0201701N002610003019N0004001N1+00401+00401999999ADDGA1091+000301999GF109991999999000251999999MA1100611999999MW1451REMMET057METAR EDHK 010120Z 17005KT 0400 FG VV001 04/04 Q1006 RED;
0132100465999992012010102204+54367+010133FM-15+0031EDHK V0201701N003110003019N0004001N1+00501+00401999999ADDGA1091+000301999GF109991999999000251999999MA1100511999999MW1451REMMET057METAR EDHK 010220Z 17006KT 0400 FG VV001 05/04 Q1005 RED;
0132100465999992012010103204+54367+010133FM-15+0031EDHK V0201701N003110003019N0006001N1+00501+00501999999ADDGA1091+000301999GF109991999999000251999999MA1100511999999MW1451REMMET057METAR EDHK 010320Z 17006KT 0600 FG VV001 05/05 Q1005 RED;
0151100465999992012010104004+54367+010133FM-16+0031EDHK V0201801N003110006019N0012001N1+00601+00501999999ADDGA1071+000601999GF107991999999999999999999MA1100411999999MW1101MW2511MW3611REMMET064SPECI EDHK 010400Z 18006KT 1200 -RADZ BR BKN002 06/05 Q1004 AMB;
0151100465999992012010104204+54367+010133FM-15+0031EDHK V0201801N003610006019N0010001N1+00601+00601999999ADDGA1071+000601999GF107991999999999999999999MA1100411999999MW1101MW2511MW3611REMMET064METAR EDHK 010420Z 18007KT 1000 -DZRA BR BKN002 06/06 Q1004 AMB;
0143100465999992012010105204+54367+010133FM-15+0031EDHK V0201901N003610006019N0012001N1+00701+00601999999ADDGA1071+000601999GF107991999999999999999999MA1100411999999MW1101MW2511REMMET062METAR EDHK 010520Z 19007KT 1200 -DZ BR BKN002 07/06 Q1004 AMB;
0151100465999992012010106204+54367+010133FM-15+0031EDHK V0202001N003610006019N0012001N1+00801+00701999999ADDGA1071+000601999GF107991999999999999999999MA1100311999999MW1101MW2511MW3611REMMET064METAR EDHK 010620Z 20007KT 1200 -DZRA BR BKN002 08/07 Q1003 AMB;
0151100465999992012010107204+54367+010133FM-15+0031EDHK V0202101N004610009019N0012001N1+00901+00801999999ADDGA1071+000901999GF107991999999999999999999MA1100311999999MW1101MW2511MW3611REMMET064METAR EDHK 010720Z 21009KT 1200 -DZRA BR BKN003 09/08 Q1003 AMB;
0172100465999992012010108204+54367+010133FM-15+0031EDHK V0202201N004110012019N0010001N1+01001+00901999999ADDED126U26009GA1071+001201999GF107991999999999999999999MA1100311999999MW1101MW2511MW3611REMMET074METAR EDHK 010820Z 22008KT 1000 R26/2600U -DZRA BR BKN004 10/09 Q1003 AMB;
0172100465999992012010109204+54367+010133FM-15+0031EDHK V0202201N005110009019N0011001N1+01001+00901999999ADDED126U23009GA1071+000901999GF107991999999999999999999MA1100411999999MW1101MW2511MW3611REMMET074METAR EDHK 010920Z 22010KT 1100 R26/2300D -DZRA BR BKN003 10/09 Q1004 AMB;
0172100465999992012010110204+54367+010133FM-15+0031EDHK V0202301N005710012019N0015001N1+01001+00901999999ADDED126U26009GA1071+001201999GF107991999999999999999999MA1100411999999MW1101MW2511MW3611REMMET074METAR EDHK 011020Z 23011KT 1500 R26/2600U -DZRA BR BKN004 10/09 Q1004 AMB;
0143100465999992012010111004+54367+010133FM-15+0031EDHK V0202401N006210015019N0050001N1+01001+00901999999ADDGA1071+001501999GF107991999999999999999999MA1100411999999MW1101MW2511REMMET062SPECI EDHK 011055Z 24012KT 5000 -DZ BR BKN005 10/09 Q1004 YLO;
0143100465999992012010111204+54367+010133FM-15+0031EDHK V0202401N007710015019N0050001N1+01001+00901999999ADDGA1071+001501999GF107991999999999999999999MA1100411999999MW1101MW2511REMMET062METAR EDHK 011120Z 24015KT 5000 -DZ BR BKN005 10/09 Q1004 YLO;
0133100465999992012010112204+54367+010133FM-15+0031EDHK V0202401N007210015019N0050001N1+00901+00801999999ADDGA1071+001501999GF107991999999999999999999MA1100411999999MW1101REMMET058METAR EDHK 011220Z 24014KT 5000 BR BKN005 09/08 Q1004 YLO;
0124100465999992012010113204+54367+010133FM-15+0031EDHK V0202401N005710024019N0112651N1+00901+00801999999ADDGA1071+002401999GF107991999999999999999999MA1100411999999REMMET055METAR EDHK 011320Z 24011KT 9999 BKN008 09/08 Q1004 GRN;
0124100465999992012010114204+54367+010133FM-15+0031EDHK V0202601N006210024019N0112651N1+01001+00801999999ADDGA1071+002401999GF107991999999999999999999MA1100511999999REMMET055METAR EDHK 011420Z 26012KT 9999 BKN008 10/08 Q1005 GRN;
0124100465999992012010115204+54367+010133FM-15+0031EDHK V0202301N004610036019N0112651N1+01001+00801999999ADDGA1071+003601999GF107991999999999999999999MA1100411999999REMMET055METAR EDHK 011520Z 23009KT 9999 BKN012 10/08 Q1004 GRN;
0147100465999992012010116204+54367+010133FM-15+0031EDHK V0202201N004110030019N0112651N1+01001+00801999999ADDGA1071+003001999GA2071+009001999GF107991999999999999999999MA1100511999999REMMET062METAR EDHK 011620Z 22008KT 9999 BKN010 BKN030 10/08 Q1005 GRN;
0148100465999992012010117204+54367+010133FM-15+0031EDHK V0202001N002612200019N0112651N1+01001+00801999999ADDGA1041+003001999GA2041+009001999GF104991999999999999999999MA1100411999999REMMET063METAR EDHK 011720Z 20005KT 9999 SCT010 SCT030 10/08 Q1004 BLU/;
0166100465999992012010118204+54367+010133FM-15+0031EDHK V0201901N003610030019N0040001N1+01001+00801999999ADDGA1071+003001999GA2071+006001999GF107991999999999999999999MA1100311999999MW1101MW2511REMMET069METAR EDHK 011820Z 19007KT 4000 -DZ BR BKN010 BKN020 10/08 Q1003 GRN;
0147100465999992012010118424+54367+010133FM-16+0031EDHK V0201901N003610150019N0060001N1+01001+00901999999ADDGA1021+002401999GA2071+015001999GF107991999999999999999999MA1100311999999REMMET062SPECI EDHK 011842Z 19007KT 6000 FEW008 BKN050 10/09 Q1003 WHT;
0147100465999992012010119204+54367+010133FM-15+0031EDHK V0201801N004110150019N0070001N1+01001+00901999999ADDGA1021+009001999GA2071+015001999GF107991999999999999999999MA1100201999999REMMET062METAR EDHK 011920Z 18008KT 7000 FEW030 BKN050 10/09 Q1002 WHT;
0133100465999992012010120004+54367+010133FM-15+0031EDHK V0201801N003610021019N0050001N1+01001+00901999999ADDGA1071+002101999GF107991999999999999999999MA1100201999999MW1101REMMET058SPECI EDHK 011957Z 18007KT 5000 BR BKN007 10/09 Q1002 GRN;
0143100465999992012010120204+54367+010133FM-15+0031EDHK V0201901N003110015019N0045001N1+01001+00901999999ADDGA1071+001501999GF107991999999999999999999MA1100101999999MW1101MW2511REMMET062METAR EDHK 012020Z 19006KT 4500 -DZ BR BKN005 10/09 Q1001 YLO;
0143100465999992012010121204+54367+010133FM-15+0031EDHK V0201801N002610015019N0040001N1+01001+00901999999ADDGA1071+001501999GF107991999999999999999999MA1100001999999MW1101MW2611REMMET062METAR EDHK 012120Z 18005KT 4000 -RA BR BKN005 10/09 Q1000 YLO;
0165100465999992012010121424+54367+010133FM-16+0031EDHK V0201601N002110009019N0016001N1+01001+00901999999ADDGA1071+000901999GA2071+001801999GF107991999999999999999999MA1099901999999MW1101MW2631REMMET068SPECI EDHK 012142Z 16004KT 1600 RA BR BKN003 BKN006 10/09 Q0999 YLO;
0171100465999992012010122204+54367+010133FM-15+0031EDHK V0201601N002110015019N0018001N1+01001+00901999999ADDGA1041+000601999GA2071+001501999GF107991999999999999999999MA1099701999999MW1101MW2611REMMET074METAR EDHK 012220Z 16004KT 1800 -RA BR SCT002 BKN005 10/09 Q0997 RERA YLO;
0143100465999992012010122464+54367+010133FM-16+0031EDHK V0201801N004610021019N0040001N1+01101+01001999999ADDGA1071+002101999GF107991999999999999999999MA1099701999999MW1101MW2611REMMET062SPECI EDHK 012246Z 18009KT 4000 -RA BR BKN007 11/10 Q0997 GRN;
0177100465999992012010123204+54367+010133FM-15+0031EDHK V0201901N006710030019N0045001N1+01201+01101999999ADDGA1071+003001999GA2071+009001999GF107991999999999999999999MA1099591999999MW1101MW2611OC101181REMMET072METAR EDHK 012320Z 19013G23KT 4500 -RA BR BKN010 BKN030 12/11 Q0996 GRN;
0143100465999992012010200204+54367+010133FM-15+0031EDHK V0202801N005710015019N0040001N1+01001+00901999999ADDGA1071+001501999GF107991999999999999999999MA1099591999999MW1101MW2611REMMET062METAR EDHK 020020Z 28011KT 4000 -RA BR BKN005 10/09 Q0996 YLO;
0157100465999992012010201204+54367+010133FM-15+0031EDHK V0202601N004110015019N0070001N1+00901+00801999999ADDGA1071+001501999GA2071+009001999GF107991999999999999999999MA1099701999999MW1611REMMET066METAR EDHK 020120Z 26008KT 7000 -RA BKN005 BKN030 09/08 Q0997 YLO;
0134100465999992012010202204+54367+010133FM-15+0031EDHK V0202301N004110015019N0090001N1+00901+00801999999ADDGA1071+001501999GF107991999999999999999999MA1099701999999MW1611REMMET059METAR EDHK 020220Z 23008KT 9000 -RA BKN005 09/08 Q0997 YLO;
0147100465999992012010203204+54367+010133FM-15+0031EDHK V0202401N005110021019N0112651N1+00801+00701999999ADDGA1071+002101999GA2071+012001999GF107991999999999999999999MA1099801999999REMMET062METAR EDHK 020320Z 24010KT 9999 BKN007 BKN040 08/07 Q0998 GRN;
0124100465999992012010204204+54367+010133FM-15+0031EDHK V0202401N005710021019N0112651N1+00801+00701999999ADDGA1071+002101999GF107991999999999999999999MA1099901999999REMMET055METAR EDHK 020420Z 24011KT 9999 BKN007 08/07 Q0999 GRN;
0138100465999992012010205204+54367+010133FM-15+0031EDHK V0202401N004610024019N0112651N1+00801+00701999999ADDGA1071+002401999GF107991999999999999999999MA1099901999999REMMET069METAR EDHK 020520Z 24009KT 9999 BKN008 08/07 Q0999 GRN GRN TEMPO YLO;
0138100465999992012010206204+54367+010133FM-15+0031EDHK V0202401N004610024019N0112651N1+00801+00701999999ADDGA1071+002401999GF107991999999999999999999MA1100001999999REMMET069METAR EDHK 020620Z 24009KT 9999 BKN008 08/07 Q1000 GRN GRN TEMPO YLO;
0138100465999992012010207204+54367+010133FM-15+0031EDHK V0202801N005110024019N0112651N1+00801+00601999999ADDGA1071+002401999GF107991999999999999999999MA1100001999999REMMET069METAR EDHK 020720Z 28010KT 9999 BKN008 08/06 Q1000 GRN GRN TEMPO YLO;
0161100465999992012010208204+54367+010133FM-15+0031EDHK V0202401N005110030019N0112651N1+00801+00601999999ADDGA1071+003001999GA2071+045001999GF107991999999999999999999MA1100101999999REMMET076METAR EDHK 020820Z 24010KT 9999 BKN010 BKN150 08/06 Q1001 GRN GRN BECMG BLU;
0161100465999992012010209204+54367+010133FM-15+0031EDHK V0202401N004610030019N0112651N1+00801+00601999999ADDGA1071+003001999GA2071+045001999GF107991999999999999999999MA1100201999999REMMET076METAR EDHK 020920Z 24009KT 9999 BKN010 BKN150 08/06 Q1002 GRN GRN BECMG BLU;
0138100465999992012010210204+54367+010133FM-15+0031EDHK V0202601N004110030019N0112651N1+00801+00601999999ADDGA1071+003001999GF107991999999999999999999MA1100201999999REMMET069METAR EDHK 021020Z 26008KT 9999 BKN010 08/06 Q1002 GRN GRN BECMG BLU;
0138100465999992012010211204+54367+010133FM-15+0031EDHK V0202401N004110036019N0112651N1+00801+00601999999ADDGA1071+003601999GF107991999999999999999999MA1100201999999REMMET069METAR EDHK 021120Z 24008KT 9999 BKN012 08/06 Q1002 GRN GRN BECMG BLU;
0138100465999992012010212204+54367+010133FM-15+0031EDHK V0202401N005110045019N0112651N1+00801+00501999999ADDGA1071+004501999GF107991999999999999999999MA1100201999999REMMET069METAR EDHK 021220Z 24010KT 9999 BKN015 08/05 Q1002 WHT WHT BECMG BLU;
0161100465999992012010213204+54367+010133FM-15+0031EDHK V0202401N004610045019N0112651N1+00801+00501999999ADDGA1021+002701999GA2071+004501999GF107991999999999999999999MA1100311999999REMMET076METAR EDHK 021320Z 24009KT 9999 FEW009 BKN015 08/05 Q1003 WHT WHT BECMG BLU;
0175100465999992012010214204+54367+010133FM-15+0031EDHK V0202401N00411036001CN0112651N1+00701+00501999999ADDGA1021+006001999GA2041+036001999GA3071+066001999GF107991999999999999999999MA1100411999999REMMET074METAR EDHK 021420Z 24008KT 9999 FEW020 SCT120 BKN220 07/05 Q1004 BLU/BLU/;
0155100465999992012010215204+54367+010133FM-15+0031EDHK V0202401N005712200019N0112651N1+00701+00501999999ADDGA1041+006001021GA2041+066001999GF104991999999999999999999MA1100411999999REMMET070METAR EDHK 021520Z 24011KT 9999 SCT020TCU SCT220 07/05 Q1004 BLU/BLU/;
0152100465999992012010216204+54367+010133FM-15+0031EDHK V0202401N005112200019N0112651N1+00601+00401999999ADDGA1041+006001999GA2041+066001999GF104991999999999999999999MA1100511999999REMMET067METAR EDHK 021620Z 24010KT 9999 SCT020 SCT220 06/04 Q1005 BLU/BLU/;
0136100465999992012010217004+54367+010133FM-16+0031EDHK V0202301N004112200019N0112651N1+00601+00401999999ADDGA1021+006001999GF102991999999999999999999MA1100611999999REMMET067SPECI EDHK 021700Z 23008KT 9999 FEW020 06/04 Q1006 BLU/FCST CANCEL;
0125100465999992012010217204+54367+010133FM-15+0031EDHK V0202201N004112200019N0112651N1+00601+00301999999ADDGA1021+006001999GF102991999999999999999999MA1100611999999REMMET056METAR EDHK 021720Z 22008KT 9999 FEW020 06/03 Q1006 BLU/;
0124100465999992012010218204+54367+010133FM-15+0031EDHK V0202201N004610060019N0112651N1+00601+00301999999ADDGA1071+006001999GF107991999999999999999999MA1100711999999REMMET055METAR EDHK 021820Z 22009KT 9999 BKN020 06/03 Q1007 WHT;
0140100465999992012010219204+54367+010133FM-15+0031EDHK V0202201N00511006001CN0112651N1+00501+00201999999ADDGA1071+006001999GA2041+024001999MA1100711999999REMMET062METAR EDHK 021920Z 22010KT 9999 BKN020 SCT080 05/02 Q1007 WHT;EQDQ01+000042SCOTCV
0148100465999992012010220204+54367+010133FM-15+0031EDHK V0202301N005712200019N0112651N1+00501+00101999999ADDGA1041+009001999GA2041+024001999GF104991999999999999999999MA1100811999999REMMET063METAR EDHK 022020Z 23011KT 9999 SCT030 SCT080 05/01 Q1008 BLU/;
0148100465999992012010221204+54367+010133FM-15+0031EDHK V0202301N005712200019N0112651N1+00501+00201999999ADDGA1021+009001999GA2041+060001999GF104991999999999999999999MA1100911999999REMMET063METAR EDHK 022120Z 23011KT 9999 FEW030 SCT200 05/02 Q1009 BLU/;
0125100465999992012010222204+54367+010133FM-15+0031EDHK V0202201N004612200019N0112651N1+00401+00201999999ADDGA1021+003001999GF102991999999999999999999MA1100911999999REMMET056METAR EDHK 022220Z 22009KT 9999 FEW010 04/02 Q1009 BLU/;
0125100465999992012010223204+54367+010133FM-15+0031EDHK V0202201N004612200019N0112651N1+00401+00201999999ADDGA1021+003001999GF102991999999999999999999MA1100911999999REMMET056METAR EDHK 022320Z 22009KT 9999 FEW010 04/02 Q1009 BLU/;
0125100465999992012010300204+54367+010133FM-15+0031EDHK V0202201N005112200019N0112651N1+00401+00201999999ADDGA1021+006001999GF102991999999999999999999MA1101021999999REMMET056METAR EDHK 030020Z 22010KT 9999 FEW020 04/02 Q1010 BLU/;
0148100465999992012010301204+54367+010133FM-15+0031EDHK V0202101N005112200019N0112651N1+00301+00101999999ADDGA1021+003001999GA2041+015001999GF104991999999999999999999MA1101021999999REMMET063METAR EDHK 030120Z 21010KT 9999 FEW010 SCT050 03/01 Q1010 BLU/;
0125100465999992012010302204+54367+010133FM-15+0031EDHK V0202101N005112200019N0112651N1+00301+00101999999ADDGA1021+003001999GF102991999999999999999999MA1101021999999REMMET056METAR EDHK 030220Z 21010KT 9999 FEW010 03/01 Q1010 BLU/;
0148100465999992012010303204+54367+010133FM-15+0031EDHK V0202101N005712200019N0112651N1+00301+00101999999ADDGA1021+003001999GA2041+060001999GF104991999999999999999999MA1101021999999REMMET063METAR EDHK 030320Z 21011KT 9999 FEW010 SCT200 03/01 Q1010 BLU/;
0125100465999992012010304204+54367+010133FM-15+0031EDHK V0202001N005112200019N0112651N1+00301+00101999999ADDGA1021+003001999GF102991999999999999999999MA1100911999999REMMET056METAR EDHK 030420Z 20010KT 9999 FEW010 03/01 Q1009 BLU/;
0151100465999992012010305204+54367+010133FM-15+0031EDHK V0202001N005112200019N0112651N1+00401+00101999999ADDGA1041+003001999GA2041+060001999GF104991999999999999999999MA1100911999999REMMET066METAR EDHK 030520Z 20010KT 9999 SCT010 SCT200 04/01 Q1009 BLU/BLU;
0138100465999992012010306014+54367+010133FM-16+0031EDHK V0202001N006210030019N0112651N1+00401+00201999999ADDGA1071+003001999GF107991999999999999999999MA1100911999999REMMET069SPECI EDHK 030601Z 20012KT 9999 BKN010 04/02 Q1009 GRN BLU TEMPO GRN;
0138100465999992012010306204+54367+010133FM-15+0031EDHK V0201901N005710030019N0112651N1+00401+00201999999ADDGA1071+003001999GF107991999999999999999999MA1100811999999REMMET069METAR EDHK 030620Z 19011KT 9999 BKN010 04/02 Q1008 GRN BLU TEMPO GRN;
0138100465999992012010307204+54367+010133FM-15+0031EDHK V0201901N005710030019N0112651N1+00401+00201999999ADDGA1071+003001999GF107991999999999999999999MA1100711999999REMMET069METAR EDHK 030720Z 19011KT 9999 BKN010 04/02 Q1007 GRN BLU TEMPO GRN;
0149100465999992012010308204+54367+010133FM-15+0031EDHK V0201901N006210030019N0112651N1+00501+00201999999ADDGA1071+003001999GF107991999999999999999999MA1100511999999OC101131REMMET072METAR EDHK 030820Z 19012G22KT 9999 BKN010 05/02 Q1005 GRN WHT TEMPO GRN;
0138100465999992012010309204+54367+010133FM-15+0031EDHK V0201901N007210045019N0112651N1+00501+00201999999ADDGA1071+004501999GF107991999999999999999999MA1100411999999REMMET069METAR EDHK 030920Z 19014KT 9999 BKN015 05/02 Q1004 WHT WHT TEMPO GRN;
0171100465999992012010310204+54367+010133FM-15+0031EDHK V0201801N007710060019N0112651N1+00501+00301999999ADDGA1021+003001999GA2071+006001999GF107991999999999999999999MA1100101999999MW1611REMMET080METAR EDHK 031020Z 18015KT 9999 -RA FEW010 BKN020 05/03 Q1001 WHT WHT TEMPO GRN;
0159100465999992012010311204+54367+010133FM-15+0031EDHK V0201801N008210051019N0090001N1+00501+00301999999ADDGA1071+005101999GF107991999999999999999999MA1099801999999MW1611OC101541REMMET076METAR EDHK 031120Z 18016G30KT 9000 -RA BKN017 05/03 Q0998 WHT WHT BECMG GRN;
0158100465999992012010311454+54367+010133FM-16+0031EDHK V0201901N009310036019N0060001N1+00401+00201999999ADDGA1071+003601999GF107991999999999999999999MA1099701999999MW1631OC101491REMMET075SPECI EDHK 031145Z 19018G29KT 6000 RA BKN012 04/02 Q0997 GRN GRN TEMPO YLO;
0167100465999992012010312204+54367+010133FM-15+0031EDHK V0201901N008710030019N0050001N1+00401+00201999999ADDGA1071+003001999GF107991999999999999999999MA1099591999999MW1101MW2631OC101591REMMET078METAR EDHK 031220Z 19017G31KT 5000 RA BR BKN010 04/02 Q0996 GRN GRN TEMPO YLO;
0167100465999992012010313204+54367+010133FM-15+0031EDHK V0201901N008710018019N0040001N1+00501+00401999999ADDGA1071+001801999GF107991999999999999999999MA1099391999999MW1101MW2631OC101541REMMET078METAR EDHK 031320Z 19017G30KT 4000 RA BR BKN006 05/04 Q0994 YLO GRN TEMPO YLO;
0167100465999992012010314204+54367+010133FM-15+0031EDHK V0201901N008710021019N0045001N1+00701+00501999999ADDGA1071+002101999GF107991999999999999999999MA1099191999999MW1101MW2631OC101541REMMET078METAR EDHK 031420Z 19017G30KT 4500 RA BR BKN007 07/05 Q0992 GRN GRN TEMPO YLO;
0164100465999992012010315204+54367+010133FM-15+0031EDHK V0202001N008710030019N0060001N1+00701+00601999999ADDGA1071+003001999GF107991999999999999999999MA1098981999999MW1611OC101441REMMET081METAR EDHK 031520Z 20017G28KT 6000 -RA BKN010 07/06 Q0990 RERA GRN GRN TEMPO YLO;
0182100465999992012010316204+54367+010133FM-15+0031EDHK V0202001N009310030019N0060001N1+00801+00601999999ADDGA1071+003001999GA2071+006001999GF107991999999999999999999MA1098822999999MW1611OC101491REMMET083METAR EDHK 031620Z 20018G29KT 6000 -RA BKN010 BKN020 08/06 Q0988 GRN GRN TEMPO YLO;
0182100465999992012010317204+54367+010133FM-15+0031EDHK V0202301N007210042019N0060001N1+00701+00501999999ADDGA1071+004201999GA2071+010501999GF107991999999999999999999MA1098921999999MW1611OC101391REMMET083METAR EDHK 031720Z 23014G27KT 6000 -RA BKN014 BKN035 07/05 Q0989 GRN GRN TEMPO YLO;
0170100465999992012010318004+54367+010133FM-16+0031EDHK V0202401N007210105019N0080001N1+00601+00401999999ADDGA1041+003001999GA2071+010501999GF107991999999999999999999MA1098981999999OC101231REMMET077SPECI EDHK 031800Z 24014G24KT 8000 SCT010 BKN035 06/04 Q0990 BLU FCST CANCEL;
0170100465999992012010318204+54367+010133FM-15+0031EDHK V0202301N00771006001CN0112651N1+00601+00401999999ADDGA1021+003001999GA2041+006001999GA3071+009001999GF107991999999999999999999MA1099091999999REMMET069METAR EDHK 031820Z 23015KT 9999 FEW010 SCT020 BKN030 06/04 Q0991 BLU;
0135100465999992012010319204+54367+010133FM-15+0031EDHK V0202301N009310060019N0112651N1+00701+00401999999ADDGA1071+006001999GF107991999999999999999999MA1099091999999OC101651REMMET058METAR EDHK 031920Z 23018G32KT 9999 BKN020 07/04 Q0991 WHT;
0135100465999992012010319504+54367+010133FM-16+0031EDHK V0202301N009810060019N0112651N1+00701+00401999999ADDGA1071+006001999GF107991999999999999999999MA1099091999999OC101851REMMET058SPECI EDHK 031950Z 23019G36KT 9999 BKN020 07/04 Q0991 WHT;
0159100465999992012010320204+54367+010133FM-15+0031EDHK V0202301N009812200019N0112651N1+00701+00301999999ADDGA1041+006001999GA2041+018001999GF104991999999999999999999MA1099091999999OC101491REMMET066METAR EDHK 032020Z 23019G29KT 9999 SCT020 SCT060 07/03 Q0991 BLU/;
0159100465999992012010321204+54367+010133FM-15+0031EDHK V0202301N010812200019N0112651N1+00701+00301999999ADDGA1041+009001999GA2041+015001999GF104991999999999999999999MA1099191999999OC101851REMMET066METAR EDHK 032120Z 23021G36KT 9999 SCT030 SCT050 07/03 Q0992 BLU/;
0148100465999992012010321274+54367+010133FM-16+0031EDHK V0202301N012310045019N0040001N1+00701+00301999999ADDGA1071+004501091GF107991999999999999999999MA1099191999999MW1811OC102881REMMET065SPECI EDHK 032127Z 23024G56KT 4000 SHRA BKN015CB 07/03 Q0992 GRN;
0157100465999992012010321304+54367+010133FM-16+0031EDHK V0202501N014410030019N0020001N1+00601+00201999999ADDGA1071+003001091GF107991999999999999999999MA1099191999999MW1821MW2881OC102881REMMET068SPECI EDHK 032130Z 25028G56KT 2000 +SHRAGS BKN010CB 06/02 Q0992 YLO;
0176100465999992012010321424+54367+010133FM-16+0031EDHK V0202501N013412200019N0040001N1+00401+00201999999ADDGA1041+003001091GA2041+015001999GF104991999999999999999999MA1099191999999MW1811OC102011REMMET077SPECI EDHK 032142Z 25026G39KT 4000 SHRA SCT010CB SCT050 04/02 Q0992 REGS GRN;
0154100465999992012010321534+54367+010133FM-16+0031EDHK V0202401N008212200019N0060001N1+00501+00201999999ADDGA1021+003001091GA2041+015001999GF104991999999999999999999MA1099191999999REMMET069SPECI EDHK 032153Z 24016KT 6000 FEW010CB SCT050 05/02 Q0992 RERA WHT;
0167100465999992012010322204+54367+010133FM-15+0031EDHK V0202301N010312200019N0080001N1+00601+00201999999ADDGA1021+006001021GA2041+015001999GF104991999999999999999999MA1099191999999OC101701REMMET074METAR EDHK 032220Z 23020G33KT 8000 FEW020TCU SCT050 06/02 Q0992 REGS BLU/;
0135100465999992012010323204+54367+010133FM-15+0031EDHK V0202301N010310090019N0112651N1+00701+00201999999ADDGA1071+009001999GF107991999999999999999999MA1099291999999OC101801REMMET058METAR EDHK 032320Z 23020G35KT 9999 BKN030 07/02 Q0993 BLU;
0148100465999992012010323334+54367+010133FM-16+0031EDHK V0202401N011810045019N0040001N1+00501+00201999999ADDGA1071+004501091GF107991999999999999999999MA1099291999999MW1811OC102061REMMET065SPECI EDHK 032333Z 24023G40KT 4000 SHRA BKN015CB 05/02 Q0993 GRN;
0172100465999992012010323424+54367+010133FM-16+0031EDHK V0202501N013910150019N0060001N1+00401+00201999999ADDGA1021+006001091GA2071+015001999GF107991999999999999999999MA1099291999999MW1801OC101901REMMET073SPECI EDHK 032342Z 25027G37KT 6000 -SHRA FEW020CB BKN050 04/02 Q0993 WHT;
0177100465999992012010323444+54367+010133FM-16+0031EDHK V0202501N012910150019N0060001N1+00501+00301999999ADDGA1021+006001091GA2071+015001999GF107991999999999999999999MA1099291999999MW1801OC101851REMMET078SPECI EDHK 032344Z 25025G36KT 6000 -SHRA FEW020CB BKN050 05/03 Q0993 RERA WHT;
0140100465999992012010400204+54367+010133FM-15+0031EDHK V0202301N010810090019N0080001N1+00601+00301999999ADDGA1071+009001999GF107991999999999999999999MA1099291999999OC101801REMMET063METAR EDHK 040020Z 23021G35KT 8000 BKN030 06/03 Q0993 RERA BLU;
0159100465999992012010401204+54367+010133FM-15+0031EDHK V0202401N010312200019N0112651N1+00601+00201999999ADDGA1021+006001999GA2041+012001999GF104991999999999999999999MA1099391999999OC101701REMMET066METAR EDHK 040120Z 24020G33KT 9999 FEW020 SCT040 06/02 Q0994 BLU/;
0158100465999992012010402204+54367+010133FM-15+0031EDHK V0202401N009810120019N0112651N1+00601+00201999999ADDGA1021+006001999GA2071+012001999GF107991999999999999999999MA1099491999999OC101541REMMET065METAR EDHK 040220Z 24019G30KT 9999 FEW020 BKN040 06/02 Q0995 BLU;
0173100465999992012010403204+54367+010133FM-15+0031EDHK V0202301N009310120019N0080001N1+00501+00201999999ADDGA1041+006001021GA2071+012001999GF107991999999999999999999MA1099491999999MW1801OC101441REMMET074METAR EDHK 040320Z 23018G28KT 8000 -SHRA SCT020TCU BKN040 05/02 Q0995 BLU;
0173100465999992012010404204+54367+010133FM-15+0031EDHK V0202301N008710120019N0080001N1+00501+00301999999ADDGA1041+006001021GA2071+012001999GF107991999999999999999999MA1099491999999MW1801OC101391REMMET074METAR EDHK 040420Z 23017G27KT 8000 -SHRA SCT020TCU BKN040 05/03 Q0995 BLU;
0187100465999992012010405204+54367+010133FM-15+0031EDHK V0202301N007710090019N0090001N1+00501+00301999999ADDGA1041+003601021GA2071+009001999GF107991999999999999999999MA1099591999999MW1801OC101341REMMET088METAR EDHK 040520Z 23015G26KT 9000 -SHRA SCT012TCU BKN030 05/03 Q0996 BLU BLU TEMPO WHT;
0161100465999992012010406204+54367+010133FM-15+0031EDHK V0202301N007710150019N0112651N1+00401+00201999999ADDGA1021+009001999GA2071+015001999GF107991999999999999999999MA1099701999999REMMET076METAR EDHK 040620Z 23015KT 9999 FEW030 BKN050 04/02 Q0997 BLU BLU TEMPO WHT;
0161100465999992012010407204+54367+010133FM-15+0031EDHK V0202301N006210120019N0112651N1+00401+00201999999ADDGA1041+006001999GA2071+012001999GF107991999999999999999999MA1099701999999REMMET076METAR EDHK 040720Z 23012KT 9999 SCT020 BKN040 04/02 Q0997 BLU BLU TEMPO WHT;
0169100465999992012010408104+54367+010133FM-16+0031EDHK V0202501N006210051019N0037001N1+00501+00301999999ADDGA1071+005101091GF107991999999999999999999MA1099801999999MW1101MW2631MW3871REMMET082SPECI EDHK 040810Z 25012KT 3700 -SHGSRA BR BKN017CB 05/03 Q0998 GRN BLU TEMPO GRN;
0180100465999992012010408204+54367+010133FM-15+0031EDHK V0202801N008710045019N0020001N1+00401+00201999999ADDGA1071+004501091GF107991999999999999999999MA1099801999999MW1101MW2631MW3881OC101441REMMET085METAR EDHK 040820Z 28017G28KT 2000 +SHGSRA BR BKN015CB 04/02 Q0998 YLO BLU TEMPO YLO;
0157100465999992012010408264+54367+010133FM-16+0031EDHK V0202701N010310045019N0112651N1+00401+00101999999ADDGA1071+004501091GF107991999999999999999999MA1099801999999MW1801REMMET082SPECI EDHK 040826Z 27020KT 9999 -SHRA BKN015CB 04/01 Q0998 REGS WHT BLU TEMPO WHT;
0140100465999992012010409204+54367+010133FM-15+0031EDHK V0202501N008210060019N0112651N1+00501+00101999999ADDGA1071+006001091GF107991999999999999999999MA1099901999999REMMET071METAR EDHK 040920Z 25016KT 9999 BKN020CB 05/01 Q0999 WHT BLU TEMPO WHT;
0174100465999992012010410204+54367+010133FM-15+0031EDHK V0202501N007712200019N0112651N1+00501+00201999999ADDGA1021+006001091GA2041+012001999GF104991999999999999999999MA1100001999999OC101291REMMET081METAR EDHK 041020Z 25015G25KT 9999 FEW020CB SCT040 05/02 Q1000 BLU/BLU TEMPO WHT;
0142100465999992012010411204+54367+010133FM-15+0031EDHK V0202501N010312200019N0112651N1+00601+00201999999ADDGA1041+006601021GF104991999999999999999999MA1100101999999REMMET073METAR EDHK 041120Z 25020KT 9999 SCT022TCU 06/02 Q1001 BLU/BLU/ TEMPO YLO;
0141100465999992012010412204+54367+010133FM-15+0031EDHK V0202601N009812200019N0112651N1+00601+00201999999ADDGA1041+006601091GF104991999999999999999999MA1100101999999REMMET072METAR EDHK 041220Z 26019KT 9999 SCT022CB 06/02 Q1001 BLU/BLU/ TEMPO YLO;
0141100465999992012010413204+54367+010133FM-15+0031EDHK V0202501N008212200019N0112651N1+00601+00201999999ADDGA1021+006601091GF102991999999999999999999MA1100101999999REMMET072METAR EDHK 041320Z 25016KT 9999 FEW022CB 06/02 Q1001 BLU/BLU/ TEMPO YLO;
0165100465999992012010414204+54367+010133FM-15+0031EDHK V0202501N008212200019N0112651N1+00601+00101999999ADDGA1021+006601021GA2041+057001999GF104991999999999999999999MA1100201999999REMMET080METAR EDHK 041420Z 25016KT 9999 FEW022TCU SCT190 06/01 Q1002 BLU/BLU/ TEMPO YLO;
0176100465999992012010415204+54367+010133FM-15+0031EDHK V0202401N009812200019N0112651N1+00601+00201999999ADDGA1021+006601021GA2041+013501999GF104991999999999999999999MA1100201999999OC101651REMMET083METAR EDHK 041520Z 24019G32KT 9999 FEW022TCU SCT045 06/02 Q1002 BLU/BLU/ TEMPO YLO;
0162100465999992012010416204+54367+010133FM-15+0031EDHK V0202401N007212200019N0112651N1+00501+00201999999ADDGA1021+006001999GA2041+013501999GF104991999999999999999999MA1100201999999REMMET077METAR EDHK 041620Z 24014KT 9999 FEW020 SCT045 05/02 Q1002 BLU/BLU/ TEMPO YLO;
0139100465999992012010417204+54367+010133FM-15+0031EDHK V0202301N007212200019N0112651N1+00601+00301999999ADDGA1041+005701999GF104991999999999999999999MA1100101999999REMMET070METAR EDHK 041720Z 23014KT 9999 SCT019 06/03 Q1001 BLU/BLU/ TEMPO YLO;
0136100465999992012010418004+54367+010133FM-16+0031EDHK V0202301N008210057019N0112651N1+00601+00301999999ADDGA1071+005701999GF107991999999999999999999MA1100001999999REMMET067SPECI EDHK 041800Z 23016KT 9999 BKN019 06/03 Q1000 WHT FCST CANCEL;
0124100465999992012010418204+54367+010133FM-15+0031EDHK V0202301N008710060019N0112651N1+00601+00301999999ADDGA1071+006001999GF107991999999999999999999MA1100001999999REMMET055METAR EDHK 041820Z 23017KT 9999 BKN020 06/03 Q1000 WHT;
0173100465999992012010419204+54367+010133FM-15+0031EDHK V0202301N009310075019N0090001N1+00601+00301999999ADDGA1041+003601021GA2071+007501999GF107991999999999999999999MA1099801999999MW1801OC101541REMMET074METAR EDHK 041920Z 23018G30KT 9000 -SHRA SCT012TCU BKN025 06/03 Q0998 BLU;
0134100465999992012010420204+54367+010133FM-15+0031EDHK V0202301N007710036019N0060001N1+00501+00301999999ADDGA1071+003601999GF107991999999999999999999MA1099591999999MW1611REMMET059METAR EDHK 042020Z 23015KT 6000 -RA BKN012 05/03 Q0996 GRN;
0145100465999992012010421204+54367+010133FM-15+0031EDHK V0202201N009310030019N0060001N1+00501+00301999999ADDGA1071+003001999GF107991999999999999999999MA1099391999999MW1611OC101591REMMET062METAR EDHK 042120Z 22018G31KT 6000 -RA BKN010 05/03 Q0994 GRN;
0145100465999992012010422204+54367+010133FM-15+0031EDHK V0202201N008710030019N0070001N1+00501+00301999999ADDGA1071+003001999GF107991999999999999999999MA1099191999999MW1611OC101441REMMET062METAR EDHK 042220Z 22017G28KT 7000 -RA BKN010 05/03 Q0992 GRN;
0145100465999992012010423204+54367+010133FM-15+0031EDHK V0202101N008710030019N0060001N1+00401+00301999999ADDGA1071+003001999GF107991999999999999999999MA1098921999999MW1611OC101651REMMET062METAR EDHK 042320Z 21017G32KT 6000 -RA BKN010 04/03 Q0989 GRN;
0153100465999992012010500204+54367+010133FM-15+0031EDHK V0202201N008210030019N0050001N1+00501+00301999999ADDGA1071+003001999GF107991999999999999999999MA1098611999999MW1101MW2631OC101491REMMET064METAR EDHK 050020Z 22016G29KT 5000 RA BR BKN010 05/03 Q0986 GRN;
0153100465999992012010501204+54367+010133FM-15+0031EDHK V0202201N007710030019N0050001N1+00501+00401999999ADDGA1071+003001999GF107991999999999999999999MA1098311999999MW1101MW2631OC101441REMMET064METAR EDHK 050120Z 22015G28KT 5000 RA BR BKN010 05/04 Q0983 GRN;
0153100465999992012010502204+54367+010133FM-15+0031EDHK V0202201N009810030019N0050001N1+00501+00401999999ADDGA1071+003001999GF107991999999999999999999MA1098001999999MW1101MW2631OC101951REMMET064METAR EDHK 050220Z 22019G38KT 5000 RA BR BKN010 05/04 Q0980 GRN;
0153100465999992012010503204+54367+010133FM-15+0031EDHK V0202201N008210030019N0050001N1+00601+00501999999ADDGA1071+003001999GF107991999999999999999999MA1097601999999MW1101MW2631OC101391REMMET064METAR EDHK 050320Z 22016G27KT 5000 RA BR BKN010 06/05 Q0976 GRN;
0150100465999992012010504014+54367+010133FM-16+0031EDHK V0202401N011810030019N0060001N1+00701+00501999999ADDGA1071+003001999GF107991999999999999999999MA1097491999999MW1611OC102161REMMET067SPECI EDHK 050401Z 24023G42KT 6000 -RA BKN010 07/05 Q0975 RERA GRN;
0145100465999992012010504204+54367+010133FM-15+0031EDHK V0202401N010310036019N0060001N1+00701+00501999999ADDGA1071+003601999GF107991999999999999999999MA1097391999999MW1611OC101651REMMET062METAR EDHK 050420Z 24020G32KT 6000 -RA BKN012 07/05 Q0974 GRN;
0161100465999992012010505204+54367+010133FM-15+0031EDHK V0202501N010810045019N0090001N1+00601+00401999999ADDGA1071+004501999GF107991999999999999999999MA1097391999999MW1801OC101591REMMET078METAR EDHK 050520Z 25021G31KT 9000 -SHRA BKN015 06/04 Q0974 WHT BLU TEMPO YLO;
0161100465999992012010506204+54367+010133FM-15+0031EDHK V0202501N010810060019N0112651N1+00601+00301999999ADDGA1071+006001999GF107991999999999999999999MA1097391999999MW1801OC101751REMMET078METAR EDHK 050620Z 25021G34KT 9999 -SHRA BKN020 06/03 Q0974 WHT BLU TEMPO YLO;
0149100465999992012010507204+54367+010133FM-15+0031EDHK V0202601N008712200019N0112651N1+00601+00101999999ADDGA1041+007501999GF104991999999999999999999MA1097391999999OC101391REMMET072METAR EDHK 050720Z 26017G27KT 9999 SCT025 06/01 Q0974 BLU/BLU TEMPO YLO;
0164100465999992012010508204+54367+010133FM-15+0031EDHK V0202501N010310066019N0112651N1+00601+00201999999ADDGA1071+006601091GF107991999999999999999999MA1097391999999MW1801OC101541REMMET081METAR EDHK 050820Z 25020G30KT 9999 -SHRA BKN022CB 06/02 Q0974 WHT BLU/ TEMPO YLO;
0172100465999992012010508354+54367+010133FM-16+0031EDHK V0202601N010310060019N0040001N1+00601+00201999999ADDGA1071+006001091GF107991999999999999999999MA1097391999999MW1631MW2871OC101751REMMET083SPECI EDHK 050835Z 26020G34KT 4000 -SHGSRA BKN020CB 06/02 Q0974 GRN BLU/ TEMPO YLO;
0152100465999992012010508484+54367+010133FM-16+0031EDHK V0202501N008212200019N0112651N1+00501+00201999999ADDGA1041+006001091GF104991999999999999999999MA1097391999999OC101341REMMET075SPECI EDHK 050848Z 25016G26KT 9999 SCT020CB 05/02 Q0974 BLU/BLU/ TEMPO YLO;
0152100465999992012010509204+54367+010133FM-15+0031EDHK V0202401N008710060019N0112651N1+00601+00301999999ADDGA1071+006001091GF107991999999999999999999MA1097291999999OC101391REMMET075METAR EDHK 050920Z 24017G27KT 9999 BKN020CB 06/03 Q0973 WHT BLU/ TEMPO YLO;
0164100465999992012010510204+54367+010133FM-15+0031EDHK V0202501N009312200019N0112651N1+00601+00301999999ADDGA1041+006001091GA2041+060001999GF104991999999999999999999MA1097191999999REMMET079METAR EDHK 051020Z 25018KT 9999 SCT020CB SCT200 06/03 Q0972 BLU/BLU/ TEMPO YLO;
0164100465999992012010510544+54367+010133FM-16+0031EDHK V0202601N010810060019N0112651N1+00601+00201999999ADDGA1071+006001091GF107991999999999999999999MA1097091999999MW1801OC101901REMMET081SPECI EDHK 051054Z 26021G37KT 9999 -SHRA BKN020CB 06/02 Q0971 WHT BLU/ TEMPO YLO;
0157100465999992012010511204+54367+010133FM-15+0031EDHK V0202501N00821006001CN0112651N1+00501+00201999999ADDGA1071+006001091GA2041+012001999MA1097091999999REMMET079METAR EDHK 051120Z 25016KT 9999 BKN020CB SCT040 05/02 Q0971 WHT BLU/ TEMPO YLO;EQDQ01+000042SCOTCV
0164100465999992012010512204+54367+010133FM-15+0031EDHK V0202401N007210054019N0090001N1+00501+00301999999ADDGA1021+003001999GA2071+005401091GF107991999999999999999999MA1096991999999REMMET079METAR EDHK 051220Z 24014KT 9000 FEW010 BKN018CB 05/03 Q0970 WHT BLU/ TEMPO YLO;
0153100465999992012010512364+54367+010133FM-16+0031EDHK V0202501N006710036019N0080001N1+00501+00301999999ADDGA1071+003601091GF107991999999999999999999MA1096991999999MW1801REMMET078SPECI EDHK 051236Z 25013KT 8000 -SHRA BKN012CB 05/03 Q0970 GRN BLU/ TEMPO YLO;
0164100465999992012010513204+54367+010133FM-15+0031EDHK V0202601N009810039019N0060001N1+00501+00301999999ADDGA1071+003901091GF107991999999999999999999MA1096881999999MW1801OC101591REMMET081METAR EDHK 051320Z 26019G31KT 6000 -SHRA BKN013CB 05/03 Q0969 GRN BLU/ TEMPO YLO;
0162100465999992012010514064+54367+010133FM-16+0031EDHK V0203001N009810180019N0112651N1+00501+00301999999ADDGA1041+005401999GA2071+018001999GF107991999999999999999999MA1097091999999REMMET077SPECI EDHK 051406Z 30019KT 9999 SCT018 BKN060 05/03 Q0971 BLU BLU/ TEMPO YLO;
0162100465999992012010514204+54367+010133FM-15+0031EDHK V0203001N009312200019N0112651N1+00601+00301999999ADDGA1041+005401999GA2041+030001999GF104991999999999999999999MA1097091999999REMMET077METAR EDHK 051420Z 30018KT 9999 SCT018 SCT100 06/03 Q0971 BLU/BLU/ TEMPO GRN;
0155100465999992012010515204+54367+010133FM-15+0031EDHK V0202801N00821005401CN0112651N1+00601+00301999999ADDGA1071+005401999GA2041+018001999MA1097291999999REMMET077METAR EDHK 051520Z 28016KT 9999 BKN018 SCT060 06/03 Q0973 WHT BLU/ TEMPO GRN;EQDQ01+000042SCOTCV
0160100465999992012010515344+54367+010133FM-16+0031EDHK V0202801N009810036019N0050001N1+00601+00301999999ADDGA1071+003601999GF107991999999999999999999MA1097391999999MW1101MW2801REMMET079SPECI EDHK 051534Z 28019KT 5000 -SHRA BR BKN012 06/03 Q0974 GRN BLU/ TEMPO GRN;
0172100465999992012010516004+54367+010133FM-15+0031EDHK V0202901N010810060019N0080001N1+00501+00201999999ADDGA1071+006001999GA2071+015001999GF107991999999999999999999MA1097391999999OC101651REMMET079SPECI EDHK 051556Z 29021G32KT 8000 BKN020 BKN050 05/02 Q0974 WHT BLU TEMPO GRN;
0172100465999992012010516204+54367+010133FM-15+0031EDHK V0202901N009810054019N0112651N1+00501+00201999999ADDGA1071+005401999GA2071+015001999GF107991999999999999999999MA1097491999999OC101491REMMET079METAR EDHK 051620Z 29019G29KT 9999 BKN018 BKN050 05/02 Q0975 WHT BLU TEMPO GRN;
0195100465999992012010516324+54367+010133FM-16+0031EDHK V0203001N011310057019N0050001N1+00501+00201999999ADDGA1021+003001999GA2071+005701091GF107991999999999999999999MA1097491999999MW1101MW2801OC101801REMMET090SPECI EDHK 051632Z 30022G35KT 5000 -SHRA BR FEW010 BKN019CB 05/02 Q0975 WHT BLU TEMPO GRN;
0193100465999992012010517204+54367+010133FM-15+0031EDHK V0203001N011310051019N0050001N1+00401+00201999999ADDGA1021+003301999GA2071+005101091GF107991999999999999999999MA1097701999999MW1101MW2801OC101701REMMET088METAR EDHK 051720Z 30022G33KT 5000 -SHRA BR FEW011 BKN017CB 04/02 Q0977 WHT FCST CANCEL;
0168100465999992012010518204+54367+010133FM-15+0031EDHK V0203001N009810051019N0080001N1+00401+00101999999ADDGA1021+003901999GA2071+005101999GF107991999999999999999999MA1098001999999MW1611OC101541REMMET069METAR EDHK 051820Z 30019G30KT 8000 -RA FEW013 BKN017 04/01 Q0980 WHT;
0168100465999992012010518354+54367+010133FM-16+0031EDHK V0203101N012310051019N0080001N1+00401+00101999999ADDGA1021+003901999GA2071+005101999GF107991999999999999999999MA1098101999999MW1611OC101951REMMET069SPECI EDHK 051835Z 31024G38KT 8000 -RA FEW013 BKN017 04/01 Q0981 WHT;
0168100465999992012010519204+54367+010133FM-15+0031EDHK V0203101N009810054019N0080001N1+00401+00101999999ADDGA1021+003601999GA2071+005401999GF107991999999999999999999MA1098211999999MW1611OC101491REMMET069METAR EDHK 051920Z 31019G29KT 8000 -RA FEW012 BKN018 04/01 Q0982 WHT;
0147100465999992012010520204+54367+010133FM-15+0031EDHK V0203001N008210180019N0112651N1+00401+00001999999ADDGA1041+005401999GA2071+018001999GF107991999999999999999999MA1098411999999REMMET062METAR EDHK 052020Z 30016KT 9999 SCT018 BKN060 04/00 Q0984 BLU;
0148100465999992012010521204+54367+010133FM-15+0031EDHK V0203001N006710240019N0112651N1+00401+00001999999ADDGA1021+006001999GA2071+024001999GF107991999999999999999999MA1098611999999REMMET063METAR EDHK 052120Z 30013KT 9999 FEW020 BKN080 04/M00 Q0986 BLU;
0149100465999992012010522204+54367+010133FM-15+0031EDHK V0202901N005112200019N0112651N1+00301-00101999999ADDGA1021+006601999GA2041+039001999GF104991999999999999999999MA1098711999999REMMET064METAR EDHK 052220Z 29010KT 9999 FEW022 SCT130 03/M01 Q0987 BLU/;
0149100465999992012010523204+54367+010133FM-15+0031EDHK V0203001N006710600019N0112651N1+00301-00101999999ADDGA1021+039001999GA2071+060001999GF107991999999999999999999MA1098921999999REMMET064METAR EDHK 052320Z 30013KT 9999 FEW130 BKN200 03/M01 Q0989 BLU/;
0126100465999992012010600204+54367+010133FM-15+0031EDHK V0203101N005110600019N0112651N1+00201-00101999999ADDGA1071+060001999GF107991999999999999999999MA1099091999999REMMET057METAR EDHK 060020Z 31010KT 9999 BKN200 02/M01 Q0991 BLU/;
0126100465999992012010601204+54367+010133FM-15+0031EDHK V0203001N004612200019N0112651N1+00201-00101999999ADDGA1041+060001999GF104991999999999999999999MA1099291999999REMMET057METAR EDHK 060120Z 30009KT 9999 SCT200 02/M01 Q0993 BLU/;
0126100465999992012010602204+54367+010133FM-15+0031EDHK V0203101N004612200019N0112651N1+00201-00101999999ADDGA1021+060001999GF102991999999999999999999MA1099491999999REMMET057METAR EDHK 060220Z 31009KT 9999 FEW200 02/M01 Q0995 BLU/;
0126100465999992012010603204+54367+010133FM-15+0031EDHK V0203101N004112200019N0112651N1+00101-00101999999ADDGA1021+060001999GF102991999999999999999999MA1099701999999REMMET057METAR EDHK 060320Z 31008KT 9999 FEW200 01/M01 Q0997 BLU/;
0126100465999992012010604204+54367+010133FM-15+0031EDHK V0203001N004612200019N0112651N1+00201-00101999999ADDGA1021+060001999GF102991999999999999999999MA1099901999999REMMET057METAR EDHK 060420Z 30009KT 9999 FEW200 02/M01 Q0999 BLU/;
0153100465999992012010605204+54367+010133FM-15+0031EDHK V0203101N004112200019N0112651N1+00201-00101999999ADDGA1021+006601999GA2041+057001999GF104991999999999999999999MA1100101999999REMMET068METAR EDHK 060520Z 31008KT 9999 FEW022 SCT190 02/M01 Q1001 BLU/BLU/;
0130100465999992012010606204+54367+010133FM-15+0031EDHK V0203101N004612200019N0112651N1+00201-00101999999ADDGA1021+006601999GF102991999999999999999999MA1100201999999REMMET061METAR EDHK 060620Z 31009KT 9999 FEW022 02/M01 Q1002 BLU/BLU/;
0153100465999992012010607204+54367+010133FM-15+0031EDHK V0203101N004612200019N0112651N1+00101-00201999999ADDGA1021+008401999GA2041+054001999GF104991999999999999999999MA1100511999999REMMET068METAR EDHK 060720Z 31009KT 9999 FEW028 SCT180 01/M02 Q1005 BLU/BLU/;
0130100465999992012010608204+54367+010133FM-15+0031EDHK V0202901N005712200019N0112651N1+00101-00101999999ADDGA1041+008101999GF104991999999999999999999MA1100611999999REMMET061METAR EDHK 060820Z 29011KT 9999 SCT027 01/M01 Q1006 BLU/BLU/;
0130100465999992012010609204+54367+010133FM-15+0031EDHK V0202901N004612200019N0112651N1+00101-00101999999ADDGA1021+009001999GF102991999999999999999999MA1100811999999REMMET061METAR EDHK 060920Z 29009KT 9999 FEW030 01/M01 Q1008 BLU/BLU/;
0130100465999992012010610204+54367+010133FM-15+0031EDHK V0203101N005112200019N0112651N1+00201-00101999999ADDGA1021+009001999GF102991999999999999999999MA1100911999999REMMET061METAR EDHK 061020Z 31010KT 9999 FEW030 02/M01 Q1009 BLU/BLU/;
0153100465999992012010611204+54367+010133FM-15+0031EDHK V0203001N004612200019N0112651N1+00301-00101999999ADDGA1021+006001999GA2041+060001999GF104991999999999999999999MA1101021999999REMMET068METAR EDHK 061120Z 30009KT 9999 FEW020 SCT200 03/M01 Q1010 BLU/BLU/;
0153100465999992012010612204+54367+010133FM-15+0031EDHK V0202901N003612200019N0112651N1+00301-00101999999ADDGA1021+006001999GA2041+060001999GF104991999999999999999999MA1101021999999REMMET068METAR EDHK 061220Z 29007KT 9999 FEW020 SCT200 03/M01 Q1010 BLU/BLU/;
0160100465999992012010613004+54367+010133FM-16+0031EDHK V0202801N004112200019N0112651N1+00301-00101999999ADDGA1021+006001999GA2041+060001999GF104991999999999999999999MA1101081999999REMMET075SPECI EDHK 061300Z 28008KT 9999 FEW020 SCT200 03/M01 Q1011 BLU/FCST CANCEL;
0126100465999992012010613204+54367+010133FM-15+0031EDHK V0202701N004112200019N0112651N1+00401-00101999999ADDGA1041+060001999GF104991999999999999999999MA1101191999999REMMET057METAR EDHK 061320Z 27008KT 9999 SCT200 04/M01 Q1012 BLU/;
0149100465999992012010614204+54367+010133FM-15+0031EDHK V0202601N003612200019N0112651N1+00301-00101999999ADDGA1021+009001999GA2041+060001999GF104991999999999999999999MA1101191999999REMMET064METAR EDHK 061420Z 26007KT 9999 FEW030 SCT200 03/M01 Q1012 BLU/;
0149100465999992012010615204+54367+010133FM-15+0031EDHK V0202401N003110600019N0112651N1+00301-00101999999ADDGA1041+009001999GA2071+060001999GF107991999999999999999999MA1101191999999REMMET064METAR EDHK 061520Z 24006KT 9999 SCT030 BKN200 03/M01 Q1012 BLU/;
0149100465999992012010616204+54367+010133FM-15+0031EDHK V0202301N003110600019N0112651N1+00301-00101999999ADDGA1021+009001999GA2071+060001999GF107991999999999999999999MA1101191999999REMMET064METAR EDHK 061620Z 23006KT 9999 FEW030 BKN200 03/M01 Q1012 BLU/;
0148100465999992012010617204+54367+010133FM-15+0031EDHK V0202601N003610600019N0112651N1+00301+00001999999ADDGA1041+009001999GA2071+060001999GF107991999999999999999999MA1101291999999REMMET063METAR EDHK 061720Z 26007KT 9999 SCT030 BKN200 03/00 Q1013 BLU/;
0147100465999992012010618204+54367+010133FM-15+0031EDHK V0202501N003110570019N0112651N1+00301+00101999999ADDGA1021+009001999GA2071+057001999GF107991999999999999999999MA1101191999999REMMET062METAR EDHK 061820Z 25006KT 9999 FEW030 BKN190 03/01 Q1012 BLU;
0148100465999992012010619204+54367+010133FM-15+0031EDHK V0202501N003612200019N0112651N1+00301+00101999999ADDGA1021+007501999GA2041+057001999GF104991999999999999999999MA1101291999999REMMET063METAR EDHK 061920Z 25007KT 9999 FEW025 SCT190 03/01 Q1013 BLU/;
0148100465999992012010620204+54367+010133FM-15+0031EDHK V0202401N003612200019N0112651N1+00301+00201999999ADDGA1021+015001999GA2041+060001999GF104991999999999999999999MA1101291999999REMMET063METAR EDHK 062020Z 24007KT 9999 FEW050 SCT200 03/02 Q1013 BLU/;
0147100465999992012010621204+54367+010133FM-15+0031EDHK V0202401N004110120019N0112651N1+00401+00201999999ADDGA1021+006001999GA2071+012001999GF107991999999999999999999MA1101291999999REMMET062METAR EDHK 062120Z 24008KT 9999 FEW020 BKN040 04/02 Q1013 BLU;
0170100465999992012010622204+54367+010133FM-15+0031EDHK V0202301N004610390019N0112651N1+00401+00201999999ADDGA1021+018001999GA2071+039001999GA3071+060001999GF107991999999999999999999MA1101191999999REMMET069METAR EDHK 062220Z 23009KT 9999 FEW060 BKN130 BKN200 04/02 Q1012 BLU;
0147100465999992012010623204+54367+010133FM-15+0031EDHK V0202401N005110120019N0112651N1+00501+00201999999ADDGA1021+003001999GA2071+012001999GF107991999999999999999999MA1101081999999REMMET062METAR EDHK 062320Z 24010KT 9999 FEW010 BKN040 05/02 Q1011 BLU;
0158100465999992012010700204+54367+010133FM-15+0031EDHK V0202401N006210135019N0112651N1+00501+00201999999ADDGA1021+006001999GA2071+013501999GF107991999999999999999999MA1101021999999OC101181REMMET065METAR EDHK 070020Z 24012G23KT 9999 FEW020 BKN045 05/02 Q1010 BLU;
0124100465999992012010701204+54367+010133FM-15+0031EDHK V0202301N006710036019N0112651N1+00501+00201999999ADDGA1071+003601999GF107991999999999999999999MA1100911999999REMMET055METAR EDHK 070120Z 23013KT 9999 BKN012 05/02 Q1009 GRN;
0134100465999992012010702204+54367+010133FM-15+0031EDHK V0202401N007210033019N0112651N1+00501+00201999999ADDGA1071+003301999GF107991999999999999999999MA1100911999999MW1611REMMET059METAR EDHK 070220Z 24014KT 9999 -RA BKN011 05/02 Q1009 GRN;
0134100465999992012010703204+54367+010133FM-15+0031EDHK V0202201N005710033019N0070001N1+00401+00301999999ADDGA1071+003301999GF107991999999999999999999MA1100711999999MW1611REMMET059METAR EDHK 070320Z 22011KT 7000 -RA BKN011 04/03 Q1007 GRN;
0151100465999992012010703474+54367+010133FM-16+0031EDHK V0202201N005710015019N0030001N1+00401+00301999999ADDGA1071+001501999GF107991999999999999999999MA1100611999999MW1101MW2511MW3611REMMET064SPECI EDHK 070347Z 22011KT 3000 -DZRA BR BKN005 04/03 Q1006 YLO;
0143100465999992012010704204+54367+010133FM-15+0031EDHK V0202201N005710018019N0040001N1+00401+00301999999ADDGA1071+001801999GF107991999999999999999999MA1100511999999MW1101MW2611REMMET062METAR EDHK 070420Z 22011KT 4000 -RA BR BKN006 04/03 Q1005 YLO;
0143100465999992012010705204+54367+010133FM-15+0031EDHK V0202301N005710015019N0050001N1+00501+00401999999ADDGA1071+001501999GF107991999999999999999999MA1100411999999MW1101MW2511REMMET062METAR EDHK 070520Z 23011KT 5000 -DZ BR BKN005 05/04 Q1004 YLO;
0143100465999992012010706204+54367+010133FM-15+0031EDHK V0202201N005710015019N0035001N1+00501+00401999999ADDGA1071+001501999GF107991999999999999999999MA1100311999999MW1101MW2611REMMET062METAR EDHK 070620Z 22011KT 3500 -RA BR BKN005 05/04 Q1003 YLO;
0151100465999992012010707204+54367+010133FM-15+0031EDHK V0202301N005710015019N0040001N1+00601+00501999999ADDGA1071+001501999GF107991999999999999999999MA1100201999999MW1101MW2511MW3611REMMET064METAR EDHK 070720Z 23011KT 4000 -RADZ BR BKN005 06/05 Q1002 YLO;
0143100465999992012010708204+54367+010133FM-15+0031EDHK V0202401N005110012019N0040001N1+00601+00501999999ADDGA1071+001201999GF107991999999999999999999MA1100201999999MW1101MW2611REMMET062METAR EDHK 070820Z 24010KT 4000 -RA BR BKN004 06/05 Q1002 YLO;
0148100465999992012010709204+54367+010133FM-15+0031EDHK V0202401N004110009019N0045001N1+00701+00601999999ADDGA1071+000901999GF107991999999999999999999MA1100101999999MW1101MW2611REMMET067METAR EDHK 070920Z 24008KT 4500 -RA BR BKN003 07/06 Q1001 RERA YLO;
0143100465999992012010709374+54367+010133FM-16+0031EDHK V0202501N004610009019N0025001N1+00701+00601999999ADDGA1071+000901999GF107991999999999999999999MA1100101999999MW1101MW2611REMMET062SPECI EDHK 070937Z 25009KT 2500 -RA BR BKN003 07/06 Q1001 YLO;
0151100465999992012010710204+54367+010133FM-15+0031EDHK V0202601N006210009019N0050001N1+00701+00601999999ADDGA1071+000901999GF107991999999999999999999MA1100101999999MW1101MW2511MW3611REMMET064METAR EDHK 071020Z 26012KT 5000 -RADZ BR BKN003 07/06 Q1001 YLO;
0165100465999992012010710364+54367+010133FM-16+0031EDHK V0202801N007710090019N0080001N1+00701+00601999999ADDGA1041+002401999GA2071+009001999GF107991999999999999999999MA1100101999999MW1511MW2611REMMET068SPECI EDHK 071036Z 28015KT 8000 -RADZ SCT008 BKN030 07/06 Q1001 BLU;
0134100465999992012010711204+54367+010133FM-15+0031EDHK V0202801N006710030019N0070001N1+00701+00501999999ADDGA1071+003001999GF107991999999999999999999MA1100201999999MW1611REMMET059METAR EDHK 071120Z 28013KT 7000 -RA BKN010 07/05 Q1002 GRN;
0147100465999992012010712204+54367+010133FM-15+0031EDHK V0202801N007210060019N0112651N1+00701+00501999999ADDGA1041+003001999GA2071+006001999GF107991999999999999999999MA1100201999999REMMET062METAR EDHK 071220Z 28014KT 9999 SCT010 BKN020 07/05 Q1002 WHT;
0173100465999992012010713204+54367+010133FM-15+0031EDHK V0202801N007210060019N0112651N1+00701+00501999999ADDGA1071+006001021GA2071+012001999GF107991999999999999999999MA1100201999999MW1801OC101231REMMET074METAR EDHK 071320Z 28014G24KT 9999 -SHRA BKN020TCU BKN040 07/05 Q1002 WHT;
0170100465999992012010714204+54367+010133FM-15+0031EDHK V0202901N00721012001CN0112651N1+00601+00401999999ADDGA1041+006001999GA2041+012001999GA3071+030001999GF107991999999999999999999MA1100311999999REMMET069METAR EDHK 071420Z 29014KT 9999 SCT020 SCT040 BKN100 06/04 Q1003 BLU;
0147100465999992012010715204+54367+010133FM-15+0031EDHK V0202801N007210060019N0112651N1+00601+00401999999ADDGA1071+006001999GA2071+012001999GF107991999999999999999999MA1100311999999REMMET062METAR EDHK 071520Z 28014KT 9999 BKN020 BKN040 06/04 Q1003 WHT;
0170100465999992012010716204+54367+010133FM-15+0031EDHK V0202801N00671015001CN0112651N1+00601+00401999999ADDGA1041+007501999GA2041+015001999GA3071+030001999GF107991999999999999999999MA1100411999999REMMET069METAR EDHK 071620Z 28013KT 9999 SCT025 SCT050 BKN100 06/04 Q1004 BLU;
0124100465999992012010717204+54367+010133FM-15+0031EDHK V0202701N006210060019N0112651N1+00601+00401999999ADDGA1071+006001999GF107991999999999999999999MA1100511999999REMMET055METAR EDHK 071720Z 27012KT 9999 BKN020 06/04 Q1005 WHT;
0125100465999992012010718204+54367+010133FM-15+0031EDHK V0202701N005712200019N0112651N1+00501+00301999999ADDGA1021+006001999GF102991999999999999999999MA1100611999999REMMET056METAR EDHK 071820Z 27011KT 9999 FEW020 05/03 Q1006 BLU/;
0170100465999992012010719204+54367+010133FM-15+0031EDHK V0202601N005710090019N0112651N1+00501+00301999999ADDGA1021+005401999GA2071+009001999GA3071+045001999GF107991999999999999999999MA1100611999999REMMET069METAR EDHK 071920Z 26011KT 9999 FEW018 BKN030 BKN150 05/03 Q1006 BLU;
0170100465999992012010720204+54367+010133FM-15+0031EDHK V0202601N006710090019N0112651N1+00601+00301999999ADDGA1021+006001999GA2071+009001999GA3071+045001999GF107991999999999999999999MA1100611999999REMMET069METAR EDHK 072020Z 26013KT 9999 FEW020 BKN030 BKN150 06/03 Q1006 BLU;
0147100465999992012010721204+54367+010133FM-15+0031EDHK V0202601N006210090019N0112651N1+00501+00301999999ADDGA1041+006001999GA2071+009001999GF107991999999999999999999MA1100611999999REMMET062METAR EDHK 072120Z 26012KT 9999 SCT020 BKN030 05/03 Q1006 BLU;
0147100465999992012010722204+54367+010133FM-15+0031EDHK V0202601N005710090019N0112651N1+00501+00301999999ADDGA1021+006001999GA2071+009001999GF107991999999999999999999MA1100711999999REMMET062METAR EDHK 072220Z 26011KT 9999 FEW020 BKN030 05/03 Q1007 BLU;
0147100465999992012010723204+54367+010133FM-15+0031EDHK V0202601N005710045019N0112651N1+00501+00301999999ADDGA1071+004501999GA2071+010501999GF107991999999999999999999MA1100711999999REMMET062METAR EDHK 072320Z 26011KT 9999 BKN015 BKN035 05/03 Q1007 WHT;
0147100465999992012010800204+54367+010133FM-15+0031EDHK V0202401N005110105019N0112651N1+00501+00401999999ADDGA1041+004501999GA2071+010501999GF107991999999999999999999MA1100711999999REMMET062METAR EDHK 080020Z 24010KT 9999 SCT015 BKN035 05/04 Q1007 BLU;
0161100465999992012010801104+54367+010133FM-16+0031EDHK V0202701N005110090019N0030001N1+00601+00401999999ADDGA1041+003001021GA2071+009001999GF107991999999999999999999MA1100711999999MW1811REMMET070SPECI EDHK 080110Z 27010KT 3000 SHRA SCT010TCU BKN030 06/04 Q1007 YLO;
0167100465999992012010801204+54367+010133FM-15+0031EDHK V0202801N006710090019N0060001N1+00401+00201999999ADDGA1041+004501021GA2071+009001999GF107991999999999999999999MA1100711999999MW1801REMMET076METAR EDHK 080120Z 28013KT 6000 -SHRA SCT015TCU BKN030 04/02 Q1007 RERA WHT;
0173100465999992012010802204+54367+010133FM-15+0031EDHK V0202501N006210090019N0112651N1+00501+00301999999ADDGA1021+004501021GA2071+009001999GA3071+024001999GF107991999999999999999999MA1100711999999REMMET072METAR EDHK 080220Z 25012KT 9999 FEW015TCU BKN030 BKN080 05/03 Q1007 BLU;
0150100465999992012010803204+54367+010133FM-15+0031EDHK V0202501N005110090019N0112651N1+00501+00401999999ADDGA1041+004501021GA2071+009001999GF107991999999999999999999MA1100611999999REMMET065METAR EDHK 080320Z 25010KT 9999 SCT015TCU BKN030 05/04 Q1006 BLU;
0124100465999992012010804204+54367+010133FM-15+0031EDHK V0202601N006210030019N0112651N1+00601+00401999999ADDGA1071+003001999GF107991999999999999999999MA1100611999999REMMET055METAR EDHK 080420Z 26012KT 9999 BKN010 06/04 Q1006 GRN;
0147100465999992012010805204+54367+010133FM-15+0031EDHK V0202601N006210069019N0080001N1+00501+00401999999ADDGA1041+003001999GA2071+006901999GF107991999999999999999999MA1100611999999REMMET062METAR EDHK 080520Z 26012KT 8000 SCT010 BKN023 05/04 Q1006 WHT;
0124100465999992012010806204+54367+010133FM-15+0031EDHK V0202801N005710060019N0112651N1+00601+00401999999ADDGA1071+006001999GF107991999999999999999999MA1100611999999REMMET055METAR EDHK 080620Z 28011KT 9999 BKN020 06/04 Q1006 WHT;
0140100465999992012010807204+54367+010133FM-15+0031EDHK V0202801N00511012001CN0112651N1+00501+00301999999ADDGA1071+012001999GA2041+036001999MA1100711999999REMMET062METAR EDHK 080720Z 28010KT 9999 BKN040 SCT120 05/03 Q1007 BLU;EQDQ01+000042SCOTCV
0140100465999992012010808204+54367+010133FM-15+0031EDHK V0202801N00461012001CN0112651N1+00501+00301999999ADDGA1071+012001999GA2041+036001999MA1100911999999REMMET062METAR EDHK 080820Z 28009KT 9999 BKN040 SCT120 05/03 Q1009 BLU;EQDQ01+000042SCOTCV
0147100465999992012010809204+54367+010133FM-15+0031EDHK V0202701N004610120019N0112651N1+00601+00401999999ADDGA1041+006001999GA2071+012001999GF107991999999999999999999MA1100911999999REMMET062METAR EDHK 080920Z 27009KT 9999 SCT020 BKN040 06/04 Q1009 BLU;
0147100465999992012010810204+54367+010133FM-15+0031EDHK V0202801N005710120019N0112651N1+00601+00401999999ADDGA1021+006001999GA2071+012001999GF107991999999999999999999MA1101021999999REMMET062METAR EDHK 081020Z 28011KT 9999 FEW020 BKN040 06/04 Q1010 BLU;
0147100465999992012010811204+54367+010133FM-15+0031EDHK V0202901N005110096019N0112651N1+00601+00401999999ADDGA1041+004201999GA2071+009601999GF107991999999999999999999MA1101081999999REMMET062METAR EDHK 081120Z 29010KT 9999 SCT014 BKN032 06/04 Q1011 BLU;
0159100465999992012010812204+54367+010133FM-15+0031EDHK V0203101N004610084019N0090001N1+00601+00401999999ADDGA1041+003001999GA2071+008401999GF107991999999999999999999MA1101081999999MW1801REMMET068METAR EDHK 081220Z 31009KT 9000 -SHRA SCT010 BKN028 06/04 Q1011 BLU;
0124100465999992012010813204+54367+010133FM-15+0031EDHK V0203101N004110090019N0112651N1+00601+00401999999ADDGA1071+009001999GF107991999999999999999999MA1101191999999REMMET055METAR EDHK 081320Z 31008KT 9999 BKN030 06/04 Q1012 BLU;
0147100465999992012010814204+54367+010133FM-15+0031EDHK V0203201N005110120019N0112651N1+00601+00301999999ADDGA1041+003901999GA2071+012001999GF107991999999999999999999MA1101291999999REMMET062METAR EDHK 081420Z 32010KT 9999 SCT013 BKN040 06/03 Q1013 BLU;
0159100465999992012010815204+54367+010133FM-15+0031EDHK V0203301N005710075019N0080001N1+00601+00301999999ADDGA1041+003001999GA2071+007501999GF107991999999999999999999MA1101391999999MW1801REMMET068METAR EDHK 081520Z 33011KT 8000 -SHRA SCT010 BKN025 06/03 Q1014 BLU;
0147100465999992012010816204+54367+010133FM-15+0031EDHK V0203201N003110105019N0112651N1+00501+00301999999ADDGA1041+006001999GA2071+010501999GF107991999999999999999999MA1101491999999REMMET062METAR EDHK 081620Z 32006KT 9999 SCT020 BKN035 05/03 Q1015 BLU;
0147100465999992012010817204+54367+010133FM-15+0031EDHK V0203601N003610060019N0112651N1+00401+00301999999ADDGA1041+003601999GA2071+006001999GF107991999999999999999999MA1101691999999REMMET062METAR EDHK 081720Z 36007KT 9999 SCT012 BKN020 04/03 Q1017 WHT;
0147100465999992012010818204+54367+010133FM-15+0031EDHK V0203501N003110090019N0112651N1+00501+00201999999ADDGA1041+006001999GA2071+009001999GF107991999999999999999999MA1101691999999REMMET062METAR EDHK 081820Z 35006KT 9999 SCT020 BKN030 05/02 Q1017 BLU;
0124100465999992012010819204+54367+010133FM-15+0031EDHK V0203401N004110060019N0112651N1+00401+00101999999ADDGA1071+006001999GF107991999999999999999999MA1101801999999REMMET055METAR EDHK 081920Z 34008KT 9999 BKN020 04/01 Q1018 WHT;
0147100465999992012010820204+54367+010133FM-15+0031EDHK V0203301N003110090019N0112651N1+00301+00001999999ADDGA1041+006001999GA2071+009001999GF107991999999999999999999MA1101901999999REMMET062METAR EDHK 082020Z 33006KT 9999 SCT020 BKN030 03/00 Q1019 BLU;
0124100465999992012010821204+54367+010133FM-15+0031EDHK V0203101N003110051019N0112651N1+00301+00101999999ADDGA1071+005101999GF107991999999999999999999MA1102001999999REMMET055METAR EDHK 082120Z 31006KT 9999 BKN017 03/01 Q1020 WHT;
0125100465999992012010822204+54367+010133FM-15+0031EDHK V0203301N003610045019N0112651N1+00301+00001999999ADDGA1071+004501999GF107991999999999999999999MA1102101999999REMMET056METAR EDHK 082220Z 33007KT 9999 BKN015 03/M00 Q1021 WHT;
0125100465999992012010823204+54367+010133FM-15+0031EDHK V0203301N001510060019N0112651N1+00301+00001999999ADDGA1071+006001999GF107991999999999999999999MA1102101999999REMMET056METAR EDHK 082320Z 33003KT 9999 BKN020 03/M00 Q1021 WHT;
0124100465999992012010900204+54367+010133FM-15+0031EDHK V0202601N002110060019N0112651N1+00301+00001999999ADDGA1071+006001999GF107991999999999999999999MA1102101999999REMMET055METAR EDHK 090020Z 26004KT 9999 BKN020 03/00 Q1021 WHT;
0147100465999992012010901204+54367+010133FM-15+0031EDHK V0202601N002110105019N0112651N1+00201+00001999999ADDGA1041+006001999GA2071+010501999GF107991999999999999999999MA1102101999999REMMET062METAR EDHK 090120Z 26004KT 9999 SCT020 BKN035 02/00 Q1021 BLU;
0124100465999992012010902204+54367+010133FM-15+0031EDHK V0202401N001510105019N0112651N1+00201+00001999999ADDGA1071+010501999GF107991999999999999999999MA1102201999999REMMET055METAR EDHK 090220Z 24003KT 9999 BKN035 02/00 Q1022 BLU;
0124100465999992012010903204+54367+010133FM-15+0031EDHK V0202301N001510120019N0112651N1+00201+00101999999ADDGA1071+012001999GF107991999999999999999999MA1102201999999REMMET055METAR EDHK 090320Z 23003KT 9999 BKN040 02/01 Q1022 BLU;
0124100465999992012010904204+54367+010133FM-15+0031EDHK V0202201N001010060019N0112651N1+00201+00101999999ADDGA1071+006001999GF107991999999999999999999MA1102101999999REMMET055METAR EDHK 090420Z 22002KT 9999 BKN020 02/01 Q1021 WHT;
0161100465999992012010905204+54367+010133FM-15+0031EDHK V0202101N002110072019N0112651N1+00201+00101999999ADDGA1071+007201999GA2071+024001999GF107991999999999999999999MA1102101999999REMMET076METAR EDHK 090520Z 21004KT 9999 BKN024 BKN080 02/01 Q1021 WHT BLU TEMPO GRN;
0161100465999992012010906204+54367+010133FM-15+0031EDHK V0201801N001510099019N0112651N1+00301+00101999999ADDGA1021+003601999GA2071+009901999GF107991999999999999999999MA1102101999999REMMET076METAR EDHK 090620Z 18003KT 9999 FEW012 BKN033 03/01 Q1021 BLU BLU TEMPO GRN;
0161100465999992012010907204+54367+010133FM-15+0031EDHK V0201801N002110150019N0112651N1+00301+00001999999ADDGA1041+009001999GA2071+015001999GF107991999999999999999999MA1102101999999REMMET076METAR EDHK 090720Z 18004KT 9999 SCT030 BKN050 03/00 Q1021 BLU BLU TEMPO GRN;
0148100465999992012010908204+54367+010133FM-15+0031EDHK V0201901N002610063019N0112651N1+00301+00101999999ADDGA1071+006301999GF107991999999999999999999MA1102101999999MW1611REMMET073METAR EDHK 090820Z 19005KT 9999 -RA BKN021 03/01 Q1021 WHT BLU TEMPO GRN;
0157100465999992012010909204+54367+010133FM-15+0031EDHK V0201901N002610054019N0050001N1+00301+00201999999ADDGA1071+005401999GF107991999999999999999999MA1102101999999MW1101MW2611REMMET076METAR EDHK 090920Z 19005KT 5000 -RA BR BKN018 03/02 Q1021 WHT WHT TEMPO YLO;
0180100465999992012010910104+54367+010133FM-16+0031EDHK V0201801N002110012019N0050001N1+00401+00301999999ADDGA1071+001201999GA2071+005401999GF107991999999999999999999MA1102101999999MW1101MW2611REMMET083SPECI EDHK 091010Z 18004KT 5000 -RA BR BKN004 BKN018 04/03 Q1021 YLO WHT TEMPO YLO;
0180100465999992012010910204+54367+010133FM-15+0031EDHK V0201801N002110012019N0045001N1+00401+00301999999ADDGA1071+001201999GA2071+005401999GF107991999999999999999999MA1102001999999MW1101MW2611REMMET083METAR EDHK 091020Z 18004KT 4500 -RA BR BKN004 BKN018 04/03 Q1020 YLO WHT TEMPO YLO;
0165100465999992012010911204+54367+010133FM-15+0031EDHK V0201901N003110012019N0035001N1+00401+00301999999ADDGA1071+001201999GF107991999999999999999999MA1101901999999MW1101MW2511MW3611REMMET078METAR EDHK 091120Z 19006KT 3500 -DZRA BR BKN004 04/03 Q1019 YLO YLO TEMPO AMB;
0165100465999992012010911394+54367+010133FM-16+0031EDHK V0201901N003610009019N0025001N1+00501+00401999999ADDGA1071+000901999GF107991999999999999999999MA1101901999999MW1101MW2511MW3611REMMET078SPECI EDHK 091139Z 19007KT 2500 -DZRA BR BKN003 05/04 Q1019 YLO YLO TEMPO AMB;
0157100465999992012010912204+54367+010133FM-15+0031EDHK V0202001N003610009019N0020001N1+00501+00401999999ADDGA1071+000901999GF107991999999999999999999MA1101901999999MW1101MW2511REMMET076METAR EDHK 091220Z 20007KT 2000 -DZ BR BKN003 05/04 Q1019 YLO YLO TEMPO AMB;
0157100465999992012010912454+54367+010133FM-16+0031EDHK V0202101N004110012019N0040001N1+00501+00401999999ADDGA1071+001201999GF107991999999999999999999MA1101801999999MW1101MW2511REMMET076SPECI EDHK 091245Z 21008KT 4000 -DZ BR BKN004 05/04 Q1018 YLO YLO TEMPO AMB;
0157100465999992012010913204+54367+010133FM-15+0031EDHK V0202301N004610009019N0045001N1+00601+00501999999ADDGA1071+000901999GF107991999999999999999999MA1101801999999MW1101MW2511REMMET076METAR EDHK 091320Z 23009KT 4500 -DZ BR BKN003 06/05 Q1018 YLO YLO TEMPO AMB;
0157100465999992012010914014+54367+010133FM-16+0031EDHK V0202401N004610006019N0020001N1+00601+00601999999ADDGA1071+000601999GF107991999999999999999999MA1101801999999MW1101MW2511REMMET076SPECI EDHK 091401Z 24009KT 2000 -DZ BR BKN002 06/06 Q1018 AMB YLO TEMPO AMB;
0157100465999992012010914204+54367+010133FM-15+0031EDHK V0202401N005110009019N0025001N1+00701+00601999999ADDGA1071+000901999GF107991999999999999999999MA1101801999999MW1101MW2511REMMET076METAR EDHK 091420Z 24010KT 2500 -DZ BR BKN003 07/06 Q1018 YLO YLO TEMPO AMB;
0165100465999992012010915204+54367+010133FM-15+0031EDHK V0202501N005110012019N0045001N1+00701+00601999999ADDGA1071+001201999GF107991999999999999999999MA1101801999999MW1101MW2511MW3611REMMET078METAR EDHK 091520Z 25010KT 4500 -DZRA BR BKN004 07/06 Q1018 YLO YLO TEMPO GRN;
0165100465999992012010916204+54367+010133FM-15+0031EDHK V0202401N005110012019N0040001N1+00701+00601999999ADDGA1071+001201999GF107991999999999999999999MA1101691999999MW1101MW2511MW3611REMMET078METAR EDHK 091620Z 24010KT 4000 -DZRA BR BKN004 07/06 Q1017 YLO YLO TEMPO GRN;
0138100465999992012010916354+54367+010133FM-16+0031EDHK V0202501N005110015019N0060001N1+00701+00601999999ADDGA1071+001501999GF107991999999999999999999MA1101801999999REMMET069SPECI EDHK 091635Z 25010KT 6000 BKN005 07/06 Q1018 YLO YLO TEMPO GRN;
0148100465999992012010917204+54367+010133FM-15+0031EDHK V0202401N006210015019N0060001N1+00701+00601999999ADDGA1071+001501999GF107991999999999999999999MA1101691999999MW1611REMMET073METAR EDHK 091720Z 24012KT 6000 -RA BKN005 07/06 Q1017 YLO YLO TEMPO GRN;
0147100465999992012010917304+54367+010133FM-16+0031EDHK V0202501N006210012019N0035001N1+00701+00601999999ADDGA1071+001201999GF107991999999999999999999MA1101691999999MW1101MW2611REMMET066SPECI EDHK 091730Z 25012KT 3500 -RA BR BKN004 07/06 Q1017 YLO YLO;
0165100465999992012010918204+54367+010133FM-15+0031EDHK V0202601N006210015019N0040001N1+00701+00601999999ADDGA1071+001501999GF107991999999999999999999MA1101691999999MW1101MW2511MW3611REMMET078METAR EDHK 091820Z 26012KT 4000 -RADZ BR BKN005 07/06 Q1017 YLO YLO BECMG BLU;
0159100465999992012010919204+54367+010133FM-15+0031EDHK V0202801N007710210019N0070001N1+00801+00601999999ADDGA1041+001501999GA2071+021001999GF107991999999999999999999MA1101801999999REMMET074METAR EDHK 091920Z 28015KT 7000 SCT005 BKN070 08/06 Q1018 WHT FCST CANCEL;
0158100465999992012010920204+54367+010133FM-15+0031EDHK V0202801N008710075019N0112651N1+00701+00501999999ADDGA1041+003601999GA2071+007501999GF107991999999999999999999MA1101801999999OC101391REMMET065METAR EDHK 092020Z 28017G27KT 9999 SCT012 BKN025 07/05 Q1018 BLU;
0124100465999992012010921204+54367+010133FM-15+0031EDHK V0202901N007710060019N0112651N1+00701+00401999999ADDGA1071+006001999GF107991999999999999999999MA1101901999999REMMET055METAR EDHK 092120Z 29015KT 9999 BKN020 07/04 Q1019 WHT;
0125100465999992012010922204+54367+010133FM-15+0031EDHK V0202901N006712200019N0112651N1+00601+00301999999ADDGA1041+006001999GF104991999999999999999999MA1102001999999REMMET056METAR EDHK 092220Z 29013KT 9999 SCT020 06/03 Q1020 BLU/;
0147100465999992012010923204+54367+010133FM-15+0031EDHK V0202801N006710570019N0112651N1+00501+00301999999ADDGA1041+006001999GA2071+057001999GF107991999999999999999999MA1102001999999REMMET062METAR EDHK 092320Z 28013KT 9999 SCT020 BKN190 05/03 Q1020 BLU;
0125100465999992012011000204+54367+010133FM-15+0031EDHK V0202801N006712200019N0112651N1+00601+00301999999ADDGA1021+060001999GF102991999999999999999999MA1102101999999REMMET056METAR EDHK 100020Z 28013KT 9999 FEW200 06/03 Q1021 BLU/;
0076100465999992012011001204+54367+010133FM-15+0031EDHK V0202901N006212200019N0112651N1+00501+00301999999ADDMA1102201999999REMMET049METAR EDHK 100120Z 29012KT 9999 05/03 Q1022 BLU/;
0076100465999992012011002204+54367+010133FM-15+0031EDHK V0202801N006712200019N0112651N1+00501+00301999999ADDMA1102301999999REMMET049METAR EDHK 100220Z 28013KT 9999 05/03 Q1023 BLU/;
0076100465999992012011003204+54367+010133FM-15+0031EDHK V0202801N005112200019N0112651N1+00501+00201999999ADDMA1102401999999REMMET049METAR EDHK 100320Z 28010KT 9999 05/02 Q1024 BLU/;
0076100465999992012011004204+54367+010133FM-15+0031EDHK V0202701N005712200019N0112651N1+00401+00201999999ADDMA1102401999999REMMET049METAR EDHK 100420Z 27011KT 9999 04/02 Q1024 BLU/;
0090100465999992012011005204+54367+010133FM-15+0031EDHK V0202801N006212200019N0112651N1+00401+00301999999ADDMA1102511999999REMMET063METAR EDHK 100520Z 28012KT 9999 04/03 Q1025 BLU/BLU/ TEMPO WHT;
0090100465999992012011006204+54367+010133FM-15+0031EDHK V0202801N004112200019N0112651N1+00401+00201999999ADDMA1102611999999REMMET063METAR EDHK 100620Z 28008KT 9999 04/02 Q1026 BLU/BLU/ TEMPO WHT;
0139100465999992012011007204+54367+010133FM-15+0031EDHK V0202801N004612200019N0112651N1+00401+00201999999ADDGA1021+027001999GF102991999999999999999999MA1102611999999REMMET070METAR EDHK 100720Z 28009KT 9999 FEW090 04/02 Q1026 BLU/BLU/ TEMPO WHT;
0139100465999992012011008204+54367+010133FM-15+0031EDHK V0202601N004610240019N0112651N1+00501+00301999999ADDGA1071+024001999GF107991999999999999999999MA1102711999999REMMET070METAR EDHK 100820Z 26009KT 9999 BKN080 05/03 Q1027 BLU BLU/ TEMPO BLU;
0139100465999992012011009204+54367+010133FM-15+0031EDHK V0202601N003610210019N0112651N1+00501+00301999999ADDGA1071+021001999GF107991999999999999999999MA1102811999999REMMET070METAR EDHK 100920Z 26007KT 9999 BKN077 05/03 Q1028 BLU BLU/ TEMPO BLU;
0162100465999992012011010204+54367+010133FM-15+0031EDHK V0202501N004612200019N0112651N1+00601+00401999999ADDGA1021+002101999GA2041+024001999GF104991999999999999999999MA1102811999999REMMET077METAR EDHK 101020Z 25009KT 9999 FEW007 SCT080 06/04 Q1028 BLU/BLU/ TEMPO BLU;
0151100465999992012011011204+54367+010133FM-15+0031EDHK V0202401N003610180019N0112651N1+00601+00401999999ADDGA1021+002701999GA2071+018001999GF107991999999999999999999MA1102711999999REMMET066METAR EDHK 101120Z 24007KT 9999 FEW009 BKN060 06/04 Q1027 BLU BLU;
0151100465999992012011012204+54367+010133FM-15+0031EDHK V0202501N004110180019N0112651N1+00701+00401999999ADDGA1021+003001999GA2071+018001999GF107991999999999999999999MA1102711999999REMMET066METAR EDHK 101220Z 25008KT 9999 FEW010 BKN060 07/04 Q1027 BLU BLU;
0161100465999992012011013004+54367+010133FM-15+0031EDHK V0202401N004110030019N0112651N1+00701+00401999999ADDGA1071+003001999GA2071+018001999GF107991999999999999999999MA1102711999999REMMET076SPECI EDHK 101259Z 24008KT 9999 BKN010 BKN060 07/04 Q1027 GRN BLU TEMPO GRN;
0161100465999992012011013204+54367+010133FM-15+0031EDHK V0202901N004110033019N0112651N1+00701+00401999999ADDGA1071+003301999GA2071+021001999GF107991999999999999999999MA1102711999999REMMET076METAR EDHK 101320Z 29008KT 9999 BKN011 BKN070 07/04 Q1027 GRN BLU TEMPO GRN;
0161100465999992012011014204+54367+010133FM-15+0031EDHK V0202401N004110039019N0112651N1+00701+00401999999ADDGA1071+003901999GA2071+009001999GF107991999999999999999999MA1102711999999REMMET076METAR EDHK 101420Z 24008KT 9999 BKN013 BKN030 07/04 Q1027 GRN BLU TEMPO GRN;
0184100465999992012011015204+54367+010133FM-15+0031EDHK V0202501N004610075019N0112651N1+00601+00401999999ADDGA1041+003301999GA2071+007501999GA3081+018001999GF108991999999999999999999MA1102711999999REMMET083METAR EDHK 101520Z 25009KT 9999 SCT011 BKN025 OVC060 06/04 Q1027 BLU BLU TEMPO GRN;
0161100465999992012011015364+54367+010133FM-16+0031EDHK V0202401N003610030019N0090001N1+00601+00401999999ADDGA1071+003001999GA2071+006001999GF107991999999999999999999MA1102711999999REMMET076SPECI EDHK 101536Z 24007KT 9000 BKN010 BKN020 06/04 Q1027 GRN BLU TEMPO GRN;
0161100465999992012011016204+54367+010133FM-15+0031EDHK V0202301N005110024019N0090001N1+00601+00401999999ADDGA1071+002401999GA2071+006001999GF107991999999999999999999MA1102711999999REMMET076METAR EDHK 101620Z 23010KT 9000 BKN008 BKN020 06/04 Q1027 GRN BLU TEMPO GRN;
0136100465999992012011017004+54367+010133FM-16+0031EDHK V0202301N005710024019N0080001N1+00601+00401999999ADDGA1071+002401999GF107991999999999999999999MA1102711999999REMMET067SPECI EDHK 101700Z 23011KT 8000 BKN008 06/04 Q1027 GRN FCST CANCEL;
0124100465999992012011017204+54367+010133FM-15+0031EDHK V0202301N004610024019N0080001N1+00601+00401999999ADDGA1071+002401999GF107991999999999999999999MA1102711999999REMMET055METAR EDHK 101720Z 23009KT 8000 BKN008 06/04 Q1027 GRN;
0124100465999992012011018204+54367+010133FM-15+0031EDHK V0202301N004610027019N0112651N1+00601+00401999999ADDGA1071+002701999GF107991999999999999999999MA1102711999999REMMET055METAR EDHK 101820Z 23009KT 9999 BKN009 06/04 Q1027 GRN;
0124100465999992012011019204+54367+010133FM-15+0031EDHK V0202301N003610021019N0112651N1+00601+00401999999ADDGA1071+002101999GF107991999999999999999999MA1102711999999REMMET055METAR EDHK 101920Z 23007KT 9999 BKN007 06/04 Q1027 GRN;
0124100465999992012011020204+54367+010133FM-15+0031EDHK V0202301N004610024019N0090001N1+00601+00401999999ADDGA1071+002401999GF107991999999999999999999MA1102611999999REMMET055METAR EDHK 102020Z 23009KT 9000 BKN008 06/04 Q1026 GRN;
0147100465999992012011021204+54367+010133FM-15+0031EDHK V0202401N006210069019N0112651N1+00701+00501999999ADDGA1041+002701999GA2071+006901999GF107991999999999999999999MA1102611999999REMMET062METAR EDHK 102120Z 24012KT 9999 SCT009 BKN023 07/05 Q1026 WHT;
0147100465999992012011022204+54367+010133FM-15+0031EDHK V0202401N006710069019N0112651N1+00701+00401999999ADDGA1041+003001999GA2071+006901999GF107991999999999999999999MA1102511999999REMMET062METAR EDHK 102220Z 24013KT 9999 SCT010 BKN023 07/04 Q1025 WHT;
0147100465999992012011023204+54367+010133FM-15+0031EDHK V0202401N007210075019N0112651N1+00701+00401999999ADDGA1021+004501999GA2071+007501999GF107991999999999999999999MA1102511999999REMMET062METAR EDHK 102320Z 24014KT 9999 FEW015 BKN025 07/04 Q1025 BLU;
0147100465999992012011100204+54367+010133FM-15+0031EDHK V0202401N006210069019N0112651N1+00601+00401999999ADDGA1021+004501999GA2071+006901999GF107991999999999999999999MA1102511999999REMMET062METAR EDHK 110020Z 24012KT 9999 FEW015 BKN023 06/04 Q1025 WHT;
0147100465999992012011101204+54367+010133FM-15+0031EDHK V0202401N006710069019N0112651N1+00701+00401999999ADDGA1021+004501999GA2071+006901999GF107991999999999999999999MA1102401999999REMMET062METAR EDHK 110120Z 24013KT 9999 FEW015 BKN023 07/04 Q1024 WHT;
0147100465999992012011102204+54367+010133FM-15+0031EDHK V0202401N006710069019N0112651N1+00701+00401999999ADDGA1021+003901999GA2071+006901999GF107991999999999999999999MA1102401999999REMMET062METAR EDHK 110220Z 24013KT 9999 FEW013 BKN023 07/04 Q1024 WHT;
0147100465999992012011103204+54367+010133FM-15+0031EDHK V0202401N005710036019N0112651N1+00701+00401999999ADDGA1071+003601999GA2071+007501999GF107991999999999999999999MA1102301999999REMMET062METAR EDHK 110320Z 24011KT 9999 BKN012 BKN025 07/04 Q1023 GRN;
0124100465999992012011104204+54367+010133FM-15+0031EDHK V0202401N006210021019N0112651N1+00701+00501999999ADDGA1071+002101999GF107991999999999999999999MA1102301999999REMMET055METAR EDHK 110420Z 24012KT 9999 BKN007 07/05 Q1023 GRN;
0162100465999992012011105004+54367+010133FM-16+0031EDHK V0202401N006210015019N0025001N1+00701+00501999999ADDGA1071+001501999GF107991999999999999999999MA1102301999999MW1101MW2511MW3611OC101131REMMET067SPECI EDHK 110500Z 24012G22KT 2500 -DZRA BR BKN005 07/05 Q1023 YLO;
0165100465999992012011105204+54367+010133FM-15+0031EDHK V0202401N006710015019N0020001N1+00701+00501999999ADDGA1071+001501999GF107991999999999999999999MA1102301999999MW1101MW2511MW3611REMMET078METAR EDHK 110520Z 24013KT 2000 -DZRA BR BKN005 07/05 Q1023 YLO GRN TEMPO YLO;
0147100465999992012011106204+54367+010133FM-15+0031EDHK V0202401N006710012019N0028001N1+00701+00601999999ADDGA1071+001201999GF107991999999999999999999MA1102201999999MW1101REMMET072METAR EDHK 110620Z 24013KT 2800 BR BKN004 07/06 Q1022 YLO GRN TEMPO YLO;
0157100465999992012011107204+54367+010133FM-15+0031EDHK V0202501N006710012019N0025001N1+00701+00601999999ADDGA1071+001201999GF107991999999999999999999MA1102201999999MW1101MW2511REMMET076METAR EDHK 110720Z 25013KT 2500 -DZ BR BKN004 07/06 Q1022 YLO GRN TEMPO YLO;
0147100465999992012011107324+54367+010133FM-16+0031EDHK V0202501N006710015019N0030001N1+00701+00701999999ADDGA1071+001501999GF107991999999999999999999MA1102201999999MW1101REMMET072SPECI EDHK 110732Z 25013KT 3000 BR BKN005 07/07 Q1022 YLO GRN TEMPO YLO;
0147100465999992012011107514+54367+010133FM-16+0031EDHK V0202501N006210021019N0050001N1+00801+00701999999ADDGA1071+002101999GF107991999999999999999999MA1102201999999MW1101REMMET072SPECI EDHK 110751Z 25012KT 5000 BR BKN007 08/07 Q1022 GRN GRN TEMPO YLO;
0138100465999992012011108204+54367+010133FM-15+0031EDHK V0202501N007710027019N0070001N1+00801+00601999999ADDGA1071+002701999GF107991999999999999999999MA1102201999999REMMET069METAR EDHK 110820Z 25015KT 7000 BKN009 08/06 Q1022 GRN GRN TEMPO YLO;
0138100465999992012011109204+54367+010133FM-15+0031EDHK V0202601N008210024019N0112651N1+00801+00601999999ADDGA1071+002401999GF107991999999999999999999MA1102301999999REMMET069METAR EDHK 110920Z 26016KT 9999 BKN008 08/06 Q1023 GRN GRN TEMPO YLO;
0138100465999992012011110204+54367+010133FM-15+0031EDHK V0202601N006210024019N0112651N1+00801+00601999999ADDGA1071+002401999GF107991999999999999999999MA1102401999999REMMET069METAR EDHK 111020Z 26012KT 9999 BKN008 08/06 Q1024 GRN GRN TEMPO YLO;
0138100465999992012011111204+54367+010133FM-15+0031EDHK V0202601N005710027019N0112651N1+00801+00601999999ADDGA1071+002701999GF107991999999999999999999MA1102401999999REMMET069METAR EDHK 111120Z 26011KT 9999 BKN009 08/06 Q1024 GRN GRN BECMG BLU;
0161100465999992012011112204+54367+010133FM-15+0031EDHK V0202701N006210030019N0112651N1+00801+00601999999ADDGA1071+003001999GA2071+007501999GF107991999999999999999999MA1102401999999REMMET076METAR EDHK 111220Z 27012KT 9999 BKN010 BKN025 08/06 Q1024 GRN GRN BECMG BLU;
0180100465999992012011112524+54367+010133FM-16+0031EDHK V0202801N005110024019N0045001N1+00801+00601999999ADDGA1071+002401999GA2071+007501999GF107991999999999999999999MA1102401999999MW1101MW2511REMMET083SPECI EDHK 111252Z 28010KT 4500 -DZ BR BKN008 BKN025 08/06 Q1024 GRN GRN BECMG BLU;
0138100465999992012011113114+54367+010133FM-16+0031EDHK V0202601N004610024019N0112651N1+00801+00701999999ADDGA1071+002401999GF107991999999999999999999MA1102511999999REMMET069SPECI EDHK 111311Z 26009KT 9999 BKN008 08/07 Q1025 GRN GRN BECMG BLU;
0138100465999992012011113204+54367+010133FM-15+0031EDHK V0202601N005110024019N0112651N1+00801+00701999999ADDGA1071+002401999GF107991999999999999999999MA1102511999999REMMET069METAR EDHK 111320Z 26010KT 9999 BKN008 08/07 Q1025 GRN GRN BECMG BLU;
0154100465999992012011114204+54367+010133FM-15+0031EDHK V0202701N00571003601CN0112651N1+00801+00601999999ADDGA1071+003601999GA2041+007501999MA1102511999999REMMET076METAR EDHK 111420Z 27011KT 9999 BKN012 SCT025 08/06 Q1025 GRN BLU TEMPO GRN;EQDQ01+000042SCOTCV
0139100465999992012011115204+54367+010133FM-15+0031EDHK V0202801N005110036019N0112651N1+00801+00501999999ADDGA1071+003601999GF107991999999999999999999MA1102511999999REMMET070METAR EDHK 111520Z 28010KT 9999 BKN012 08/05 Q1025 GRN BLU/ TEMPO GRN;
0139100465999992012011115404+54367+010133FM-16+0031EDHK V0202601N005712200019N0112651N1+00701+00501999999ADDGA1041+003601999GF104991999999999999999999MA1102511999999REMMET070SPECI EDHK 111540Z 26011KT 9999 SCT012 07/05 Q1025 BLU/BLU/ TEMPO GRN;
0162100465999992012011116204+54367+010133FM-15+0031EDHK V0202501N004612200019N0112651N1+00701+00501999999ADDGA1041+003901999GA2041+060001999GF104991999999999999999999MA1102511999999REMMET077METAR EDHK 111620Z 25009KT 9999 SCT013 SCT200 07/05 Q1025 BLU/BLU/ TEMPO GRN;
0139100465999992012011117204+54367+010133FM-15+0031EDHK V0202501N005712200019N0112651N1+00701+00501999999ADDGA1041+003901999GF104991999999999999999999MA1102511999999REMMET070METAR EDHK 111720Z 25011KT 9999 SCT013 07/05 Q1025 BLU/BLU/ TEMPO GRN;
0138100465999992012011117394+54367+010133FM-16+0031EDHK V0202501N006210036019N0112651N1+00701+00501999999ADDGA1071+003601999GF107991999999999999999999MA1102511999999REMMET069SPECI EDHK 111739Z 25012KT 9999 BKN012 07/05 Q1025 GRN GRN TEMPO YLO;
0128100465999992012011118204+54367+010133FM-15+0031EDHK V0202501N005110018019N0090001N1+00601+00501999999ADDGA1071+001801999GF107991999999999999999999MA1102511999999REMMET059METAR EDHK 111820Z 25010KT 9000 BKN006 06/05 Q1025 YLO YLO;
0128100465999992012011119204+54367+010133FM-15+0031EDHK V0202501N005710018019N0090001N1+00601+00501999999ADDGA1071+001801999GF107991999999999999999999MA1102511999999REMMET059METAR EDHK 111920Z 25011KT 9000 BKN006 06/05 Q1025 YLO YLO;
0128100465999992012011120204+54367+010133FM-15+0031EDHK V0202401N004610012019N0090001N1+00701+00501999999ADDGA1071+001201999GF107991999999999999999999MA1102401999999REMMET059METAR EDHK 112020Z 24009KT 9000 BKN004 07/05 Q1024 YLO YLO;
0156100465999992012011121004+54367+010133FM-16+0031EDHK V0202301N004610015019N0050001N1+00701+00601999999ADDGA1071+001501999GF107991999999999999999999MA1102301999999MW1101OC100981REMMET073SPECI EDHK 112100Z 23009G19KT 5000 BR BKN005 07/06 Q1023 YLO FCST CANCEL;
0147100465999992012011121204+54367+010133FM-15+0031EDHK V0202401N005710018019N0060001N1+00701+00601999999ADDGA1071+001801999GA2071+010501999GF107991999999999999999999MA1102301999999REMMET062METAR EDHK 112120Z 24011KT 6000 BKN006 BKN035 07/06 Q1023 YLO;
0147100465999992012011121424+54367+010133FM-16+0031EDHK V0202401N005710024019N0080001N1+00801+00601999999ADDGA1071+002401999GA2071+010501999GF107991999999999999999999MA1102301999999REMMET062SPECI EDHK 112142Z 24011KT 8000 BKN008 BKN035 08/06 Q1023 GRN;
0157100465999992012011122204+54367+010133FM-15+0031EDHK V0202401N007210021019N0070001N1+00801+00601999999ADDGA1071+002101999GA2071+009001999GF107991999999999999999999MA1102201999999MW1611REMMET066METAR EDHK 112220Z 24014KT 7000 -RA BKN007 BKN030 08/06 Q1022 GRN;
0143100465999992012011123204+54367+010133FM-15+0031EDHK V0202301N007710015019N0050001N1+00801+00701999999ADDGA1071+001501999GF107991999999999999999999MA1102101999999MW1101MW2511REMMET062METAR EDHK 112320Z 23015KT 5000 -DZ BR BKN005 08/07 Q1021 YLO;
0151100465999992012011123404+54367+010133FM-16+0031EDHK V0202301N006710015019N0020001N1+00801+00701999999ADDGA1071+001501999GF107991999999999999999999MA1102101999999MW1101MW2511MW3611REMMET064SPECI EDHK 112340Z 23013KT 2000 -DZRA BR BKN005 08/07 Q1021 YLO;
0162100465999992012011200204+54367+010133FM-15+0031EDHK V0202301N006210015019N0018001N1+00801+00701999999ADDGA1071+001501999GF107991999999999999999999MA1102001999999MW1101MW2511MW3611OC101181REMMET067METAR EDHK 120020Z 23012G23KT 1800 -DZRA BR BKN005 08/07 Q1020 YLO;
0151100465999992012011201204+54367+010133FM-15+0031EDHK V0202301N007710015019N0050001N1+00801+00701999999ADDGA1071+001501999GF107991999999999999999999MA1101901999999MW1101MW2511MW3611REMMET064METAR EDHK 120120Z 23015KT 5000 -DZRA BR BKN005 08/07 Q1019 YLO;
0135100465999992012011202204+54367+010133FM-15+0031EDHK V0202301N007710015019N0060001N1+00901+00701999999ADDGA1071+001501999GF107991999999999999999999MA1101801999999OC101391REMMET058METAR EDHK 120220Z 23015G27KT 6000 BKN005 09/07 Q1018 YLO;
0135100465999992012011203204+54367+010133FM-15+0031EDHK V0202301N008210021019N0060001N1+00901+00701999999ADDGA1071+002101999GF107991999999999999999999MA1101591999999OC101341REMMET058METAR EDHK 120320Z 23016G26KT 6000 BKN007 09/07 Q1016 GRN;
0143100465999992012011204054+54367+010133FM-16+0031EDHK V0202401N008710021019N0035001N1+00901+00701999999ADDGA1071+002101999GF107991999999999999999999MA1101491999999MW1101MW2511REMMET062SPECI EDHK 120405Z 24017KT 3500 -DZ BR BKN007 09/07 Q1015 YLO;
0154100465999992012011204204+54367+010133FM-15+0031EDHK V0202301N008710021019N0040001N1+00901+00701999999ADDGA1071+002101999GF107991999999999999999999MA1101391999999MW1101MW2511OC101591REMMET065METAR EDHK 120420Z 23017G31KT 4000 -DZ BR BKN007 09/07 Q1014 GRN;
0158100465999992012011205204+54367+010133FM-15+0031EDHK V0202401N009810021019N0050001N1+00901+00701999999ADDGA1071+002101999GF107991999999999999999999MA1101291999999MW1101OC101591REMMET075METAR EDHK 120520Z 24019G31KT 5000 BR BKN007 09/07 Q1013 GRN YLO TEMPO GRN;
0149100465999992012011206204+54367+010133FM-15+0031EDHK V0202301N010810024019N0112651N1+00901+00701999999ADDGA1071+002401999GF107991999999999999999999MA1101191999999OC101901REMMET072METAR EDHK 120620Z 23021G37KT 9999 BKN008 09/07 Q1012 GRN YLO TEMPO GRN;
0149100465999992012011207204+54367+010133FM-15+0031EDHK V0202401N012910030019N0112651N1+00901+00601999999ADDGA1071+003001999GF107991999999999999999999MA1101021999999OC101851REMMET072METAR EDHK 120720Z 24025G36KT 9999 BKN010 09/06 Q1010 GRN YLO TEMPO GRN;
0149100465999992012011208204+54367+010133FM-15+0031EDHK V0202401N012310039019N0112651N1+00901+00601999999ADDGA1071+003901999GF107991999999999999999999MA1100911999999OC101851REMMET072METAR EDHK 120820Z 24024G36KT 9999 BKN013 09/06 Q1009 GRN GRN TEMPO YLO;
0149100465999992012011209204+54367+010133FM-15+0031EDHK V0202401N011810039019N0112651N1+00901+00601999999ADDGA1071+003901999GF107991999999999999999999MA1100811999999OC101851REMMET072METAR EDHK 120920Z 24023G36KT 9999 BKN013 09/06 Q1008 GRN GRN TEMPO YLO;
0168100465999992012011209324+54367+010133FM-16+0031EDHK V0202401N011310039019N0040001N1+00901+00601999999ADDGA1071+003901999GF107991999999999999999999MA1100811999999MW1101MW2511OC101701REMMET079SPECI EDHK 120932Z 24022G33KT 4000 -DZ BR BKN013 09/06 Q1008 GRN GRN TEMPO YLO;
0176100465999992012011209404+54367+010133FM-16+0031EDHK V0202301N011310030019N0035001N1+00801+00601999999ADDGA1071+003001999GF107991999999999999999999MA1100711999999MW1101MW2511MW3611OC101751REMMET081SPECI EDHK 120940Z 23022G34KT 3500 -DZRA BR BKN010 08/06 Q1007 YLO GRN TEMPO YLO;
0176100465999992012011210204+54367+010133FM-15+0031EDHK V0202301N011810024019N0025001N1+00801+00701999999ADDGA1071+002401999GF107991999999999999999999MA1100611999999MW1101MW2511MW3611OC101901REMMET081METAR EDHK 121020Z 23023G37KT 2500 -DZRA BR BKN008 08/07 Q1006 YLO GRN TEMPO YLO;
0176100465999992012011211204+54367+010133FM-15+0031EDHK V0202401N011810027019N0040001N1+00801+00701999999ADDGA1071+002701999GF107991999999999999999999MA1100411999999MW1101MW2511MW3611OC101851REMMET081METAR EDHK 121120Z 24023G36KT 4000 -RADZ BR BKN009 08/07 Q1004 GRN GRN TEMPO YLO;
0168100465999992012011211364+54367+010133FM-16+0031EDHK V0202501N011810027019N0050001N1+00801+00701999999ADDGA1071+002701999GF107991999999999999999999MA1100411999999MW1101MW2611OC101851REMMET079SPECI EDHK 121136Z 25023G36KT 5000 -RA BR BKN009 08/07 Q1004 GRN GRN TEMPO YLO;
0172100465999992012011212204+54367+010133FM-15+0031EDHK V0202501N012310060019N0112651N1+00901+00601999999ADDGA1041+003001999GA2071+006001999GF107991999999999999999999MA1100311999999OC101901REMMET079METAR EDHK 121220Z 25024G37KT 9999 SCT010 BKN020 09/06 Q1003 WHT BLU TEMPO GRN;
0190100465999992012011213004+54367+010133FM-15+0031EDHK V0202501N012910039019N0060001N1+00801+00601999999ADDGA1041+002401999GA2071+003901999GF107991999999999999999999MA1100311999999MW1511MW2611OC102011REMMET085SPECI EDHK 121258Z 25025G39KT 6000 -RADZ SCT008 BKN013 08/06 Q1003 GRN BLU TEMPO GRN;
0179100465999992012011213204+54367+010133FM-15+0031EDHK V0202601N011810039019N0060001N1+00801+00601999999ADDGA1041+002401999GA2071+003901999GF107991999999999999999999MA1100311999999MW1511MW2611REMMET082METAR EDHK 121320Z 26023KT 6000 -RADZ SCT008 BKN013 08/06 Q1003 GRN BLU TEMPO GRN;
0195100465999992012011213364+54367+010133FM-16+0031EDHK V0202801N011310045019N0112651N1+00701+00401999999ADDGA1021+002401999GA2071+004501999GA3071+009001999GF107991999999999999999999MA1100311999999OC101651REMMET086SPECI EDHK 121336Z 28022G32KT 9999 FEW008 BKN015 BKN030 07/04 Q1003 WHT BLU TEMPO GRN;
0173100465999992012011214204+54367+010133FM-15+0031EDHK V0202901N011310090019N0112651N1+00701+00301999999ADDGA1021+003001999GA2071+009001999GF107991999999999999999999MA1100511999999OC101701REMMET080METAR EDHK 121420Z 29022G33KT 9999 FEW010 BKN030 07/03 Q1005 BLU BLU/ TEMPO GRN;
0150100465999992012011215204+54367+010133FM-15+0031EDHK V0202801N010310090019N0112651N1+00601+00101999999ADDGA1071+009001999GF107991999999999999999999MA1100611999999OC101651REMMET073METAR EDHK 121520Z 28020G32KT 9999 BKN030 06/01 Q1006 BLU BLU/ TEMPO GRN;
0162100465999992012011216204+54367+010133FM-15+0031EDHK V0202801N010312200019N0112651N1+00501+00101999999ADDGA1021+006001999GA2041+009001999GF104991999999999999999999MA1100811999999REMMET077METAR EDHK 121620Z 28020KT 9999 FEW020 SCT030 05/01 Q1008 BLU/BLU/ TEMPO GRN;
0162100465999992012011217204+54367+010133FM-15+0031EDHK V0202801N009812200019N0112651N1+00401+00001999999ADDGA1021+006001999GA2041+009001999GF104991999999999999999999MA1100911999999REMMET077METAR EDHK 121720Z 28019KT 9999 FEW020 SCT030 04/00 Q1009 BLU/BLU/ TEMPO GRN;
0136100465999992012011218004+54367+010133FM-16+0031EDHK V0202801N008712200019N0112651N1+00401+00101999999ADDGA1021+006001999GF102991999999999999999999MA1100911999999REMMET067SPECI EDHK 121800Z 28017KT 9999 FEW020 04/01 Q1009 BLU/FCST CANCEL;
0148100465999992012011218204+54367+010133FM-15+0031EDHK V0202801N009312200019N0112651N1+00401+00101999999ADDGA1021+006001999GA2041+060001999GF104991999999999999999999MA1101021999999REMMET063METAR EDHK 121820Z 28018KT 9999 FEW020 SCT200 04/01 Q1010 BLU/;
0148100465999992012011219204+54367+010133FM-15+0031EDHK V0202601N006712200019N0112651N1+00401+00001999999ADDGA1021+006001999GA2041+009001999GF104991999999999999999999MA1101081999999REMMET063METAR EDHK 121920Z 26013KT 9999 FEW020 SCT030 04/00 Q1011 BLU/;
0125100465999992012011220204+54367+010133FM-15+0031EDHK V0202601N006212200019N0112651N1+00401+00001999999ADDGA1021+006001999GF102991999999999999999999MA1101081999999REMMET056METAR EDHK 122020Z 26012KT 9999 FEW020 04/00 Q1011 BLU/;
0148100465999992012011221204+54367+010133FM-15+0031EDHK V0202801N007712200019N0112651N1+00401+00001999999ADDGA1021+006001999GA2041+009001999GF104991999999999999999999MA1101191999999REMMET063METAR EDHK 122120Z 28015KT 9999 FEW020 SCT030 04/00 Q1012 BLU/;
0149100465999992012011222204+54367+010133FM-15+0031EDHK V0202701N007212200019N0112651N1+00301+00001999999ADDGA1021+004501999GA2041+007501999GF104991999999999999999999MA1101191999999REMMET064METAR EDHK 122220Z 27014KT 9999 FEW015 SCT025 03/M00 Q1012 BLU/;
0151100465999992012011223204+54367+010133FM-15+0031EDHK V0202701N006712200019N0112651N1+00401+00001999999ADDGA1021+004501021GA2041+006001999GF104991999999999999999999MA1101191999999REMMET066METAR EDHK 122320Z 27013KT 9999 FEW015TCU SCT020 04/00 Q1012 BLU/;
0150100465999992012011300204+54367+010133FM-15+0031EDHK V0202701N006710060019N0112651N1+00301+00001999999ADDGA1021+004501021GA2071+006001999GF107991999999999999999999MA1101191999999REMMET065METAR EDHK 130020Z 27013KT 9999 FEW015TCU BKN020 03/00 Q1012 WHT;
0151100465999992012011301204+54367+010133FM-15+0031EDHK V0202701N007212200019N0112651N1+00301+00001999999ADDGA1021+004501021GA2041+024001999GF104991999999999999999999MA1101191999999REMMET066METAR EDHK 130120Z 27014KT 9999 FEW015TCU SCT080 03/00 Q1012 BLU/;
0149100465999992012011302204+54367+010133FM-15+0031EDHK V0202801N007212200019N0112651N1+00301+00001999999ADDGA1041+006001999GA2041+024001999GF104991999999999999999999MA1101191999999REMMET064METAR EDHK 130220Z 28014KT 9999 SCT020 SCT080 03/M00 Q1012 BLU/;
0149100465999992012011303204+54367+010133FM-15+0031EDHK V0202801N007712200019N0112651N1+00301+00001999999ADDGA1021+004501999GA2041+006001999GF104991999999999999999999MA1101191999999REMMET064METAR EDHK 130320Z 28015KT 9999 FEW015 SCT020 03/M00 Q1012 BLU/;
0149100465999992012011303254+54367+010133FM-16+0031EDHK V0202801N007212200019N0112651N1+00301+00001999999ADDGA1021+004501999GA2041+006001999GF104991999999999999999999MA1101191999999REMMET064SPECI EDHK 130325Z 28014KT 9999 FEW015 SCT020 03/M00 Q1012 BLU/;
0149100465999992012011304204+54367+010133FM-15+0031EDHK V0202801N008212200019N0112651N1+00301+00001999999ADDGA1021+004501999GA2041+006001999GF104991999999999999999999MA1101191999999REMMET064METAR EDHK 130420Z 28016KT 9999 FEW015 SCT020 03/M00 Q1012 BLU/;
0140100465999992012011305204+54367+010133FM-15+0031EDHK V0202701N007712200019N0112651N1+00201-00101999999ADDGA1021+009001999GF102991999999999999999999MA1101191999999REMMET071METAR EDHK 130520Z 27015KT 9999 FEW030 02/M01 Q1012 BLU/BLU/ TEMPO GRN;
0140100465999992012011306204+54367+010133FM-15+0031EDHK V0202801N007712200019N0112651N1+00301-00101999999ADDGA1021+009001999GF102991999999999999999999MA1101191999999REMMET071METAR EDHK 130620Z 28015KT 9999 FEW030 03/M01 Q1012 BLU/BLU/ TEMPO GRN;
0140100465999992012011307204+54367+010133FM-15+0031EDHK V0203001N008712200019N0112651N1+00301-00101999999ADDGA1021+009001999GF102991999999999999999999MA1101191999999REMMET071METAR EDHK 130720Z 30017KT 9999 FEW030 03/M01 Q1012 BLU/BLU/ TEMPO GRN;
0143100465999992012011308204+54367+010133FM-15+0031EDHK V0202801N008712200019N0112651N1+00301-00101999999ADDGA1021+006001021GF102991999999999999999999MA1101291999999REMMET074METAR EDHK 130820Z 28017KT 9999 FEW020TCU 03/M01 Q1013 BLU/BLU/ TEMPO GRN;
0165100465999992012011309204+54367+010133FM-15+0031EDHK V0202801N008212200019N0112651N1+00401+00001999999ADDGA1021+006001021GA2041+012001999GF104991999999999999999999MA1101191999999REMMET080METAR EDHK 130920Z 28016KT 9999 FEW020TCU SCT040 04/00 Q1012 BLU/BLU/ TEMPO GRN;
0165100465999992012011310204+54367+010133FM-15+0031EDHK V0202901N007712200019N0112651N1+00401+00101999999ADDGA1021+006001021GA2041+009001999GF104991999999999999999999MA1101291999999REMMET080METAR EDHK 131020Z 29015KT 9999 FEW020TCU SCT030 04/01 Q1013 BLU/BLU/ TEMPO GRN;
0129100465999992012011311204+54367+010133FM-15+0031EDHK V0203001N007712200019N0112651N1+00501+00101999999ADDGA1021+007501999GF102991999999999999999999MA1101291999999REMMET060METAR EDHK 131120Z 30015KT 9999 FEW025 05/01 Q1013 BLU/BLU/;
0130100465999992012011312204+54367+010133FM-15+0031EDHK V0203101N008212200019N0112651N1+00601+00001999999ADDGA1021+007501999GF102991999999999999999999MA1101391999999REMMET061METAR EDHK 131220Z 31016KT 9999 FEW025 06/M00 Q1014 BLU/BLU/;
0141100465999992012011313204+54367+010133FM-15+0031EDHK V0203001N007212200019N0112651N1+00601+00001999999ADDGA1021+007501999GF102991999999999999999999MA1101391999999OC101231REMMET064METAR EDHK 131320Z 30014G24KT 9999 FEW025 06/M00 Q1014 BLU/BLU/;
0137100465999992012011313304+54367+010133FM-16+0031EDHK V0203001N007712200019N0112651N1+00601+00001999999ADDGA1021+007501999GF102991999999999999999999MA1101391999999REMMET068SPECI EDHK 131330Z 30015KT 9999 FEW025 06/M00 Q1014 BLU/FCST CANCEL;
0126100465999992012011314204+54367+010133FM-15+0031EDHK V0203001N007212200019N0112651N1+00601+00001999999ADDGA1021+007501999GF102991999999999999999999MA1101491999999REMMET057METAR EDHK 131420Z 30014KT 9999 FEW025 06/M00 Q1015 BLU/;
0126100465999992012011315204+54367+010133FM-15+0031EDHK V0203001N005712200019N0112651N1+00501+00001999999ADDGA1021+060001999GF102991999999999999999999MA1101491999999REMMET057METAR EDHK 131520Z 30011KT 9999 FEW200 05/M00 Q1015 BLU/;
0125100465999992012011316204+54367+010133FM-15+0031EDHK V0203001N006212200019N0112651N1+00401+00001999999ADDGA1021+060001999GF102991999999999999999999MA1101591999999REMMET056METAR EDHK 131620Z 30012KT 9999 FEW200 04/00 Q1016 BLU/;
0126100465999992012011317204+54367+010133FM-15+0031EDHK V0203001N006712200019N0112651N1+00501+00001999999ADDGA1021+060001999GF102991999999999999999999MA1101691999999REMMET057METAR EDHK 131720Z 30013KT 9999 FEW200 05/M00 Q1017 BLU/;
0125100465999992012011318204+54367+010133FM-15+0031EDHK V0203001N006712200019N0112651N1+00401+00001999999ADDGA1021+060001999GF102991999999999999999999MA1101691999999REMMET056METAR EDHK 131820Z 30013KT 9999 FEW200 04/00 Q1017 BLU/;
0126100465999992012011319204+54367+010133FM-15+0031EDHK V0203001N006212200019N0112651N1+00401+00001999999ADDGA1021+060001999GF102991999999999999999999MA1101801999999REMMET057METAR EDHK 131920Z 30012KT 9999 FEW200 04/M00 Q1018 BLU/;
0126100465999992012011320204+54367+010133FM-15+0031EDHK V0203001N006212200019N0112651N1+00401+00001999999ADDGA1021+060001999GF102991999999999999999999MA1101801999999REMMET057METAR EDHK 132020Z 30012KT 9999 FEW200 04/M00 Q1018 BLU/;
0126100465999992012011321204+54367+010133FM-15+0031EDHK V0203001N006212200019N0112651N1+00401-00101999999ADDGA1021+060001999GF102991999999999999999999MA1101801999999REMMET057METAR EDHK 132120Z 30012KT 9999 FEW200 04/M01 Q1018 BLU/;
0077100465999992012011322204+54367+010133FM-15+0031EDHK V0203101N005712200019N0112651N1+00301-00101999999ADDMA1101901999999REMMET050METAR EDHK 132220Z 31011KT 9999 03/M01 Q1019 BLU/;
0077100465999992012011323204+54367+010133FM-15+0031EDHK V0203101N005112200019N0112651N1+00301-00101999999ADDMA1101901999999REMMET050METAR EDHK 132320Z 31010KT 9999 03/M01 Q1019 BLU/;
0077100465999992012011400204+54367+010133FM-15+0031EDHK V0203001N005112200019N0112651N1+00301-00201999999ADDMA1102001999999REMMET050METAR EDHK 140020Z 30010KT 9999 03/M02 Q1020 BLU/;
0077100465999992012011401204+54367+010133FM-15+0031EDHK V0203001N005112200019N0112651N1+00301-00201999999ADDMA1102001999999REMMET050METAR EDHK 140120Z 30010KT 9999 03/M02 Q1020 BLU/;
0077100465999992012011402204+54367+010133FM-15+0031EDHK V0203101N005112200019N0112651N1+00201-00201999999ADDMA1102101999999REMMET050METAR EDHK 140220Z 31010KT 9999 02/M02 Q1021 BLU/;
0126100465999992012011403204+54367+010133FM-15+0031EDHK V0203201N005112200019N0112651N1+00201-00201999999ADDGA1021+060001999GF102991999999999999999999MA1102101999999REMMET057METAR EDHK 140320Z 32010KT 9999 FEW200 02/M02 Q1021 BLU/;
0126100465999992012011404204+54367+010133FM-15+0031EDHK V0203001N003612200019N0112651N1+00101-00301999999ADDGA1021+060001999GF102991999999999999999999MA1102101999999REMMET057METAR EDHK 140420Z 30007KT 9999 FEW200 01/M03 Q1021 BLU/;
0126100465999992012011405204+54367+010133FM-15+0031EDHK V0202901N004112200019N0112651N1+00101-00301999999ADDGA1021+060001999GF102991999999999999999999MA1102101999999REMMET057METAR EDHK 140520Z 29008KT 9999 FEW200 01/M03 Q1021 BLU/;
0126100465999992012011406204+54367+010133FM-15+0031EDHK V0203001N004112200019N0112651N1+00101-00201999999ADDGA1021+060001999GF102991999999999999999999MA1102201999999REMMET057METAR EDHK 140620Z 30008KT 9999 FEW200 01/M02 Q1022 BLU/;
0126100465999992012011407204+54367+010133FM-15+0031EDHK V0203001N003612200019N0112651N1+00101-00201999999ADDGA1021+060001999GF102991999999999999999999MA1102201999999REMMET057METAR EDHK 140720Z 30007KT 9999 FEW200 01/M02 Q1022 BLU/;
0126100465999992012011408204+54367+010133FM-15+0031EDHK V0203001N003612200019N0112651N1+00101-00201999999ADDGA1021+060001999GF102991999999999999999999MA1102301999999REMMET057METAR EDHK 140820Z 30007KT 9999 FEW200 01/M02 Q1023 BLU/;
0126100465999992012011409204+54367+010133FM-15+0031EDHK V0203001N003612200019N0112651N1+00201-00201999999ADDGA1021+060001999GF102991999999999999999999MA1102301999999REMMET057METAR EDHK 140920Z 30007KT 9999 FEW200 02/M02 Q1023 BLU/;
0126100465999992012011410204+54367+010133FM-15+0031EDHK V0203001N003612200019N0112651N1+00301-00101999999ADDGA1021+060001999GF102991999999999999999999MA1102301999999REMMET057METAR EDHK 141020Z 30007KT 9999 FEW200 03/M01 Q1023 BLU/;
0126100465999992012011411204+54367+010133FM-15+0031EDHK V0203101N004112200019N0112651N1+00401-00201999999ADDGA1021+060001999GF102991999999999999999999MA1102301999999REMMET057METAR EDHK 141120Z 31008KT 9999 FEW200 04/M02 Q1023 BLU/;
0126100465999992012011412204+54367+010133FM-15+0031EDHK V0203101N004612200019N0112651N1+00401-00201999999ADDGA1041+060001999GF104991999999999999999999MA1102301999999REMMET057METAR EDHK 141220Z 31009KT 9999 SCT200 04/M02 Q1023 BLU/;
0126100465999992012011413204+54367+010133FM-15+0031EDHK V0203001N004110600019N0112651N1+00401-00201999999ADDGA1071+060001999GF107991999999999999999999MA1102301999999REMMET057METAR EDHK 141320Z 30008KT 9999 BKN200 04/M02 Q1023 BLU/;
0149100465999992012011414204+54367+010133FM-15+0031EDHK V0203101N004110600019N0112651N1+00301-00201999999ADDGA1021+045001999GA2071+060001999GF107991999999999999999999MA1102301999999REMMET064METAR EDHK 141420Z 31008KT 9999 FEW150 BKN200 03/M02 Q1023 BLU/;
0149100465999992012011415204+54367+010133FM-15+0031EDHK V0203001N003110600019N0112651N1+00201-00201999999ADDGA1021+045001999GA2071+060001999GF107991999999999999999999MA1102401999999REMMET064METAR EDHK 141520Z 30006KT 9999 FEW150 BKN200 02/M02 Q1024 BLU/;
0149100465999992012011416204+54367+010133FM-15+0031EDHK V0203001N003610600019N0112651N1+00201-00301999999ADDGA1021+045001999GA2071+060001999GF107991999999999999999999MA1102401999999REMMET064METAR EDHK 141620Z 30007KT 9999 FEW150 BKN200 02/M03 Q1024 BLU/;
0126100465999992012011417204+54367+010133FM-15+0031EDHK V0203101N003610600019N0112651N1+00101-00301999999ADDGA1071+060001999GF107991999999999999999999MA1102401999999REMMET057METAR EDHK 141720Z 31007KT 9999 BKN200 01/M03 Q1024 BLU/;
0126100465999992012011418204+54367+010133FM-15+0031EDHK V0203101N004110660019N0112651N1+00201-00201999999ADDGA1071+066001999GF107991999999999999999999MA1102401999999REMMET057METAR EDHK 141820Z 31008KT 9999 BKN220 02/M02 Q1024 BLU/;
