0125100465999992008010100204+54367+010133FM-15+0031EDHK V0200101N004610069019N0112651N1+00301+00001999999ADDGA1071+006901999GF107991999999999999999999MA1102711999999REMMET056METAR EDHK 010020Z 01009KT 9999 BKN023 03/M00 Q1027 WHT;
0125100465999992008010101204+54367+010133FM-15+0031EDHK V0200201N004610069019N0112651N1+00201-00101999999ADDGA1071+006901999GF107991999999999999999999MA1102711999999REMMET056METAR EDHK 010120Z 02009KT 9999 BKN023 02/M01 Q1027 WHT;
0125100465999992008010102204+54367+010133FM-15+0031EDHK V0200101N004610060019N0112651N1+00201-00201999999ADDGA1071+006001999GF107991999999999999999999MA1102711999999REMMET056METAR EDHK 010220Z 01009KT 9999 BKN020 02/M02 Q1027 WHT;
0125100465999992008010103204+54367+010133FM-15+0031EDHK V0200201N004610060019N0112651N1+00101-00301999999ADDGA1071+006001999GF107991999999999999999999MA1102711999999REMMET056METAR EDHK 010320Z 02009KT 9999 BKN020 01/M03 Q1027 WHT;
0125100465999992008010104204+54367+010133FM-15+0031EDHK V0200101N004110060019N0112651N1+00101-00201999999ADDGA1071+006001999GF107991999999999999999999MA1102711999999REMMET056METAR EDHK 010420Z 01008KT 9999 BKN020 01/M02 Q1027 WHT;
0135100465999992008010105204+54367+010133FM-15+0031EDHK V0200101N004610069019N0112651N1+00101-00201999999ADDGA1071+006901999GF107991999999999999999999MA1102711999999MW1771REMMET060METAR EDHK 010520Z 01009KT 9999 -SG BKN023 01/M02 Q1027 WHT;
0135100465999992008010106204+54367+010133FM-15+0031EDHK V0203601N004110045019N0112651N1+00101-00201999999ADDGA1071+004501999GF107991999999999999999999MA1102611999999MW1771REMMET060METAR EDHK 010620Z 36008KT 9999 -SG BKN015 01/M02 Q1026 WHT;
0158100465999992008010107204+54367+010133FM-15+0031EDHK V0203501N002610060019N0112651N1+00101-00101999999ADDGA1041+003001999GA2071+006001999GF107991999999999999999999MA1102711999999MW1771REMMET067METAR EDHK 010720Z 35005KT 9999 -SG SCT010 BKN020 01/M01 Q1027 WHT;
0158100465999992008010108204+54367+010133FM-15+0031EDHK V0200101N003110048019N0112651N1+00001-00101999999ADDGA1041+003001999GA2071+004801999GF107991999999999999999999MA1102711999999MW1771REMMET067METAR EDHK 010820Z 01006KT 9999 -SG SCT010 BKN016 00/M01 Q1027 WHT;
0148100465999992008010109204+54367+010133FM-15+0031EDHK V0203601N002610060019N0112651N1+00101+00001999999ADDGA1041+003001999GA2071+006001999GF107991999999999999999999MA1102911999999REMMET063METAR EDHK 010920Z 36005KT 9999 SCT010 BKN020 01/M00 Q1029 WHT;
0125100465999992008010110204+54367+010133FM-15+0031EDHK V0200301N003110060019N0112651N1+00201+00001999999ADDGA1071+006001999GF107991999999999999999999MA1102811999999REMMET056METAR EDHK 011020Z 03006KT 9999 BKN020 02/M00 Q1028 WHT;
0125100465999992008010111204+54367+010133FM-15+0031EDHK V0200301N003610045019N0112651N1+00201-00101999999ADDGA1071+004501999GF107991999999999999999999MA1102811999999REMMET056METAR EDHK 011120Z 03007KT 9999 BKN015 02/M01 Q1028 WHT;
0125100465999992008010112204+54367+010133FM-15+0031EDHK V0200401N003610045019N0112651N1+00201-00101999999ADDGA1071+004501999GF107991999999999999999999MA1102611999999REMMET056METAR EDHK 011220Z 04007KT 9999 BKN015 02/M01 Q1026 WHT;
0125100465999992008010113204+54367+010133FM-15+0031EDHK V0200401N003610036019N0112651N1+00201-00101999999ADDGA1071+003601999GF107991999999999999999999MA1102611999999REMMET056METAR EDHK 011320Z 04007KT 9999 BKN012 02/M01 Q1026 GRN;
0125100465999992008010114204+54367+010133FM-15+0031EDHK V0203601N003110036019N0112651N1+00201-00101999999ADDGA1071+003601999GF107991999999999999999999MA1102611999999REMMET056METAR EDHK 011420Z 36006KT 9999 BKN012 02/M01 Q1026 GRN;
0125100465999992008010115204+54367+010133FM-15+0031EDHK V0200401N004110045019N0112651N1+00201-00101999999ADDGA1071+004501999GF107991999999999999999999MA1102611999999REMMET056METAR EDHK 011520Z 04008KT 9999 BKN015 02/M01 Q1026 WHT;
0125100465999992008010115414+54367+010133FM-16+0031EDHK V0200401N004110036019N0112651N1+00201-00101999999ADDGA1071+003601999GF107991999999999999999999MA1102611999999REMMET056SPECI EDHK 011541Z 04008KT 9999 BKN012 02/M01 Q1026 GRN;
0125100465999992008010116204+54367+010133FM-15+0031EDHK V0200601N002610036019N0112651N1+00201-00101999999ADDGA1071+003601999GF107991999999999999999999MA1102611999999REMMET056METAR EDHK 011620Z 06005KT 9999 BKN012 02/M01 Q1026 GRN;
0125100465999992008010117204+54367+010133FM-15+0031EDHK V0200401N002610030019N0112651N1+00201+00001999999ADDGA1071+003001999GF107991999999999999999999MA1102711999999REMMET056METAR EDHK 011720Z 04005KT 9999 BKN010 02/M00 Q1027 GRN;
0125100465999992008010118204+54367+010133FM-15+0031EDHK V0200501N003110033019N0112651N1+00201+00001999999ADDGA1071+003301999GF107991999999999999999999MA1102711999999REMMET056METAR EDHK 011820Z 05006KT 9999 BKN011 02/M00 Q1027 GRN;
0125100465999992008010119204+54367+010133FM-15+0031EDHK V0200201N003110030019N0112651N1+00201+00001999999ADDGA1071+003001999GF107991999999999999999999MA1102711999999REMMET056METAR EDHK 011920Z 02006KT 9999 BKN010 02/M00 Q1027 GRN;
0124100465999992008010120204+54367+010133FM-15+0031EDHK V0203601N002110030019N0112651N1+00201+00001999999ADDGA1071+003001999GF107991999999999999999999MA1102711999999REMMET055METAR EDHK 012020Z 36004KT 9999 BKN010 02/00 Q1027 GRN;
0124100465999992008010121204+54367+010133FM-15+0031EDHK V0203501N003110030019N0112651N1+00201+00001999999ADDGA1071+003001999GF107991999999999999999999MA1102711999999REMMET055METAR EDHK 012120Z 35006KT 9999 BKN010 02/00 Q1027 GRN;
0157100465999992008010121544+54367+010133FM-16+0031EDHK V0200301N003110018019N0070001N1+00201+00001999999ADDGA1071+001801999GA2071+004201999GF107991999999999999999999MA1102711999999MW1511REMMET066SPECI EDHK 012154Z 03006KT 7000 -DZ BKN006 BKN014 02/00 Q1027 YLO;
0157100465999992008010122204+54367+010133FM-15+0031EDHK V0200501N004110018019N0070001N1+00201+00101999999ADDGA1071+001801999GA2071+004501999GF107991999999999999999999MA1102711999999MW1511REMMET066METAR EDHK 012220Z 05008KT 7000 -DZ BKN006 BKN015 02/01 Q1027 YLO;
0147100465999992008010123204+54367+010133FM-15+0031EDHK V0200801N003610045019N0112651N1+00201+00001999999ADDGA1041+001801999GA2071+004501999GF107991999999999999999999MA1102711999999REMMET062METAR EDHK 012320Z 08007KT 9999 SCT006 BKN015 02/00 Q1027 GRN;
0148100465999992008010200204+54367+010133FM-15+0031EDHK V0200901N003610048019N0112651N1+00101-00101999999ADDGA1021+001801999GA2071+004801999GF107991999999999999999999MA1102711999999REMMET063METAR EDHK 020020Z 09007KT 9999 FEW006 BKN016 01/M01 Q1027 GRN;
0148100465999992008010201204+54367+010133FM-15+0031EDHK V0200901N002610042019N0112651N1+00101-00201999999ADDGA1071+004201999GA2071+009001999GF107991999999999999999999MA1102811999999REMMET063METAR EDHK 020120Z 09005KT 9999 BKN014 BKN030 01/M02 Q1028 GRN;
0125100465999992008010202204+54367+010133FM-15+0031EDHK V0201001N003610090019N0112651N1+00101-00201999999ADDGA1071+009001999GF107991999999999999999999MA1102811999999REMMET056METAR EDHK 020220Z 10007KT 9999 BKN030 01/M02 Q1028 BLU;
0125100465999992008010203204+54367+010133FM-15+0031EDHK V0200801N003110105019N0112651N1+00101-00201999999ADDGA1071+010501999GF107991999999999999999999MA1102811999999REMMET056METAR EDHK 020320Z 08006KT 9999 BKN035 01/M02 Q1028 BLU;
0139100465999992008010204204+54367+010133FM-15+0031EDHK V0200801N003610105019N0112651N1+00101-00201999999ADDGA1071+010501999GF107991999999999999999999MA1102811999999REMMET070METAR EDHK 020420Z 08007KT 9999 BKN035 01/M02 Q1028 BLU BLU TEMPO GRN;
0139100465999992008010205204+54367+010133FM-15+0031EDHK V0200801N003110114019N0112651N1+00101-00201999999ADDGA1071+011401999GF107991999999999999999999MA1102811999999REMMET070METAR EDHK 020520Z 08006KT 9999 BKN038 01/M02 Q1028 BLU BLU TEMPO GRN;
0152100465999992008010206204+54367+010133FM-15+0031EDHK V0200901N003610138019N0112651N1+00101-00201999999ADDGA1021+003301999GA2071+013801999GF107991999999999999999999MA1102811999999REMMET067METAR EDHK 020620Z 09007KT 9999 FEW011 BKN046 01/M02 Q1028 BLU BLU;
0139100465999992008010207204+54367+010133FM-15+0031EDHK V0200801N004612200019N0060001N1+00101-00101999999ADDGA1041+008401999GF104991999999999999999999MA1102811999999REMMET070METAR EDHK 020720Z 08009KT 6000 SCT028 01/M01 Q1028 WHT BLU TEMPO WHT;
0162100465999992008010208204+54367+010133FM-15+0031EDHK V0200701N004110054019N0090001N1+00101-00201999999ADDGA1021+003001999GA2071+005401999GF107991999999999999999999MA1102811999999REMMET077METAR EDHK 020820Z 07008KT 9000 FEW010 BKN018 01/M02 Q1028 WHT BLU TEMPO WHT;
0162100465999992008010209204+54367+010133FM-15+0031EDHK V0200801N003610066019N0090001N1+00101-00201999999ADDGA1021+003601999GA2071+006601999GF107991999999999999999999MA1102811999999REMMET077METAR EDHK 020920Z 08007KT 9000 FEW012 BKN022 01/M02 Q1028 WHT BLU TEMPO WHT;
0130100465999992008010210204+54367+010133FM-15+0031EDHK V0200701N003612200019N0090001N1+00201-00101999999ADDGA1021+003601999GF102991999999999999999999MA1102811999999REMMET061METAR EDHK 021020Z 07007KT 9000 FEW012 02/M01 Q1028 BLU+BLU+;
0162100465999992008010211204+54367+010133FM-15+0031EDHK V0201001N003612200019N0112651N1+00201-00101999999ADDGA1041+003901999GA2041+018001999GF104991999999999999999999MA1102811999999REMMET077METAR EDHK 021120Z 10007KT 9999 SCT013 SCT060 02/M01 Q1028 BLU+BLU TEMPO GRN;
0162100465999992008010212204+54367+010133FM-15+0031EDHK V0201001N002612200019N0112651N1+00201-00201999999ADDGA1021+006001999GA2041+013501999GF104991999999999999999999MA1102811999999REMMET077METAR EDHK 021220Z 10005KT 9999 FEW020 SCT045 02/M02 Q1028 BLU+BLU TEMPO GRN;
0162100465999992008010213204+54367+010133FM-15+0031EDHK V0201201N004112200019N0112651N1+00201-00301999999ADDGA1041+006001999GA2041+027001999GF104991999999999999999999MA1102711999999REMMET077METAR EDHK 021320Z 12008KT 9999 SCT020 SCT090 02/M03 Q1027 BLU+BLU TEMPO GRN;
0162100465999992008010214204+54367+010133FM-15+0031EDHK V0200801N003612200019N0112651N1+00101-00301999999ADDGA1021+006001999GA2041+027001999GF104991999999999999999999MA1102711999999REMMET077METAR EDHK 021420Z 08007KT 9999 FEW020 SCT090 01/M03 Q1027 BLU+BLU TEMPO GRN;
0162100465999992008010215204+54367+010133FM-15+0031EDHK V0200801N003612200019N0112651N1+00101-00301999999ADDGA1021+006001999GA2041+027001999GF104991999999999999999999MA1102611999999REMMET077METAR EDHK 021520Z 08007KT 9999 FEW020 SCT090 01/M03 Q1026 BLU+BLU TEMPO GRN;
0162100465999992008010216204+54367+010133FM-15+0031EDHK V0200901N003610180019N0080001N1+00001-00301999999ADDGA1021+006001999GA2071+018001999GF107991999999999999999999MA1102611999999REMMET077METAR EDHK 021620Z 09007KT 8000 FEW020 BKN060 00/M03 Q1026 BLU BLU TEMPO GRN;
0162100465999992008010217204+54367+010133FM-15+0031EDHK V0200801N003610180019N0080001N1+00001-00201999999ADDGA1041+007501999GA2071+018001999GF107991999999999999999999MA1102611999999REMMET077METAR EDHK 021720Z 08007KT 8000 SCT025 BKN060 00/M02 Q1026 BLU BLU TEMPO GRN;
0149100465999992008010218204+54367+010133FM-15+0031EDHK V0200901N004110048019N0060001N1+00101-00201999999ADDGA1071+004801999GF107991999999999999999999MA1102611999999MW1711REMMET074METAR EDHK 021820Z 09008KT 6000 -SN BKN016 01/M02 Q1026 WHT BLU TEMPO GRN;
0160100465999992008010219204+54367+010133FM-15+0031EDHK V0200901N004610090019N0060001N1+00101-00201999999ADDGA1021+004501999GA2071+009001999GF107991999999999999999999MA1102511999999REMMET075METAR EDHK 021920Z 09009KT 6000 FEW015 BKN030 01/M02 Q1025 WHT FCST CANCEL;
0157100465999992008010220204+54367+010133FM-15+0031EDHK V0200801N004610090019N0050001N1+00101-00201999999ADDGA1021+004501999GA2071+009001999GF107991999999999999999999MA1102511999999MW1101REMMET066METAR EDHK 022020Z 08009KT 5000 BR FEW015 BKN030 01/M02 Q1025 WHT;
0148100465999992008010221204+54367+010133FM-15+0031EDHK V0200901N005110090019N0080001N1+00001-00401999999ADDGA1041+006001999GA2071+009001999GF107991999999999999999999MA1102401999999REMMET063METAR EDHK 022120Z 09010KT 8000 SCT020 BKN030 00/M04 Q1024 BLU;
0125100465999992008010222204+54367+010133FM-15+0031EDHK V0200801N005710060019N0112651N1+00001-00401999999ADDGA1071+006001999GF107991999999999999999999MA1102401999999REMMET056METAR EDHK 022220Z 08011KT 9999 BKN020 00/M04 Q1024 WHT;
0126100465999992008010223204+54367+010133FM-15+0031EDHK V0200801N007710060019N0112651N1-00101-00501999999ADDGA1071+006001999GF107991999999999999999999MA1102301999999REMMET057METAR EDHK 022320Z 08015KT 9999 BKN020 M01/M05 Q1023 WHT;
0126100465999992008010300204+54367+010133FM-15+0031EDHK V0200801N005110063019N0112651N1-00101-00401999999ADDGA1071+006301999GF107991999999999999999999MA1102301999999REMMET057METAR EDHK 030020Z 08010KT 9999 BKN021 M01/M04 Q1023 WHT;
0126100465999992008010301204+54367+010133FM-15+0031EDHK V0201001N006210051019N0112651N1-00101-00501999999ADDGA1071+005101999GF107991999999999999999999MA1102201999999REMMET057METAR EDHK 030120Z 10012KT 9999 BKN017 M01/M05 Q1022 WHT;
0137100465999992008010302204+54367+010133FM-15+0031EDHK V0200801N006210048019N0090001N1-00201-00501999999ADDGA1071+004801999GF107991999999999999999999MA1102201999999OC101231REMMET060METAR EDHK 030220Z 08012G24KT 9000 BKN016 M02/M05 Q1022 WHT;
0126100465999992008010303204+54367+010133FM-15+0031EDHK V0201001N005710060019N0112651N1-00301-00601999999ADDGA1071+006001999GF107991999999999999999999MA1102101999999REMMET057METAR EDHK 030320Z 10011KT 9999 BKN020 M03/M06 Q1021 WHT;
0140100465999992008010304204+54367+010133FM-15+0031EDHK V0200801N006710063019N0112651N1-00301-00701999999ADDGA1071+006301999GF107991999999999999999999MA1102101999999REMMET071METAR EDHK 030420Z 08013KT 9999 BKN021 M03/M07 Q1021 WHT WHT TEMPO GRN;
0140100465999992008010305204+54367+010133FM-15+0031EDHK V0201001N007710060019N0112651N1-00401-00801999999ADDGA1071+006001999GF107991999999999999999999MA1102101999999REMMET071METAR EDHK 030520Z 10015KT 9999 BKN020 M04/M08 Q1021 WHT WHT TEMPO GRN;
0151100465999992008010306204+54367+010133FM-15+0031EDHK V0201001N007210060019N0112651N1-00401-00701999999ADDGA1071+006001999GF107991999999999999999999MA1102101999999OC101391REMMET074METAR EDHK 030620Z 10014G27KT 9999 BKN020 M04/M07 Q1021 WHT WHT TEMPO GRN;
0140100465999992008010307204+54367+010133FM-15+0031EDHK V0200901N005710048019N0112651N1-00401-00701999999ADDGA1071+004801999GF107991999999999999999999MA1102001999999REMMET071METAR EDHK 030720Z 09011KT 9999 BKN016 M04/M07 Q1020 WHT WHT TEMPO GRN;
0140100465999992008010308204+54367+010133FM-15+0031EDHK V0200801N006710048019N0112651N1-00401-00701999999ADDGA1071+004801999GF107991999999999999999999MA1102001999999REMMET071METAR EDHK 030820Z 08013KT 9999 BKN016 M04/M07 Q1020 WHT WHT TEMPO GRN;
0140100465999992008010309204+54367+010133FM-15+0031EDHK V0200901N006710045019N0080001N1-00401-00601999999ADDGA1071+004501999GF107991999999999999999999MA1102001999999REMMET071METAR EDHK 030920Z 09013KT 8000 BKN015 M04/M06 Q1020 WHT WHT TEMPO GRN;
0140100465999992008010310204+54367+010133FM-15+0031EDHK V0200901N006210045019N0070001N1-00401-00601999999ADDGA1071+004501999GF107991999999999999999999MA1102001999999REMMET071METAR EDHK 031020Z 09012KT 7000 BKN015 M04/M06 Q1020 WHT WHT TEMPO GRN;
0140100465999992008010311204+54367+010133FM-15+0031EDHK V0200901N007710045019N0070001N1-00301-00601999999ADDGA1071+004501999GF107991999999999999999999MA1102001999999REMMET071METAR EDHK 031120Z 09015KT 7000 BKN015 M03/M06 Q1020 WHT WHT TEMPO GRN;
0140100465999992008010312204+54367+010133FM-15+0031EDHK V0200801N008710048019N0070001N1-00301-00601999999ADDGA1071+004801999GF107991999999999999999999MA1101801999999REMMET071METAR EDHK 031220Z 08017KT 7000 BKN016 M03/M06 Q1018 WHT WHT TEMPO GRN;
0140100465999992008010313204+54367+010133FM-15+0031EDHK V0200801N007210054019N0070001N1-00301-00601999999ADDGA1071+005401999GF107991999999999999999999MA1101801999999REMMET071METAR EDHK 031320Z 08014KT 7000 BKN018 M03/M06 Q1018 WHT WHT TEMPO GRN;
0140100465999992008010314204+54367+010133FM-15+0031EDHK V0200801N007710045019N0070001N1-00301-00601999999ADDGA1071+004501999GF107991999999999999999999MA1101801999999REMMET071METAR EDHK 031420Z 08015KT 7000 BKN015 M03/M06 Q1018 WHT WHT TEMPO GRN;
0163100465999992008010315204+54367+010133FM-15+0031EDHK V0200801N007210090019N0070001N1-00301-00601999999ADDGA1041+004801999GA2071+009001999GF107991999999999999999999MA1101801999999REMMET078METAR EDHK 031520Z 08014KT 7000 SCT016 BKN030 M03/M06 Q1018 WHT WHT TEMPO GRN;
0163100465999992008010316204+54367+010133FM-15+0031EDHK V0200901N007210090019N0070001N1-00301-00601999999ADDGA1041+004501999GA2071+009001999GF107991999999999999999999MA1101801999999REMMET078METAR EDHK 031620Z 09014KT 7000 SCT015 BKN030 M03/M06 Q1018 WHT WHT TEMPO GRN;
0163100465999992008010317204+54367+010133FM-15+0031EDHK V0200901N006710045019N0070001N1-00301-00601999999ADDGA1071+004501999GA2071+009601999GF107991999999999999999999MA1101801999999REMMET078METAR EDHK 031720Z 09013KT 7000 BKN015 BKN032 M03/M06 Q1018 WHT WHT TEMPO GRN;
0163100465999992008010318204+54367+010133FM-15+0031EDHK V0200901N006710045019N0070001N1-00301-00601999999ADDGA1071+004501999GA2071+009601999GF107991999999999999999999MA1101801999999REMMET078METAR EDHK 031820Z 09013KT 7000 BKN015 BKN032 M03/M06 Q1018 WHT WHT TEMPO GRN;
0172100465999992008010319204+54367+010133FM-15+0031EDHK V0200901N006210045019N0070001N1-00301-00601999999ADDGA1071+004501999GA2071+012001999GF107991999999999999999999MA1101801999999OC101131REMMET079METAR EDHK 031920Z 09012G22KT 7000 BKN015 BKN040 M03/M06 Q1018 WHT FCST CANCEL;
0149100465999992008010320204+54367+010133FM-15+0031EDHK V0200901N006710120019N0070001N1-00201-00501999999ADDGA1041+005101999GA2071+012001999GF107991999999999999999999MA1101901999999REMMET064METAR EDHK 032020Z 09013KT 7000 SCT017 BKN040 M02/M05 Q1019 WHT;
0149100465999992008010321204+54367+010133FM-15+0031EDHK V0200901N006710120019N0070001N1-00201-00501999999ADDGA1021+006001999GA2071+012001999GF107991999999999999999999MA1101901999999REMMET064METAR EDHK 032120Z 09013KT 7000 FEW020 BKN040 M02/M05 Q1019 WHT;
0149100465999992008010322204+54367+010133FM-15+0031EDHK V0200801N007210105019N0070001N1-00301-00601999999ADDGA1041+004501999GA2071+010501999GF107991999999999999999999MA1101901999999REMMET064METAR EDHK 032220Z 08014KT 7000 SCT015 BKN035 M03/M06 Q1019 WHT;
0126100465999992008010323204+54367+010133FM-15+0031EDHK V0200901N006210045019N0070001N1-00401-00601999999ADDGA1071+004501999GF107991999999999999999999MA1101901999999REMMET057METAR EDHK 032320Z 09012KT 7000 BKN015 M04/M06 Q1019 WHT;
0149100465999992008010400204+54367+010133FM-15+0031EDHK V0200901N006210045019N0070001N1-00401-00601999999ADDGA1071+004501999GA2071+010501999GF107991999999999999999999MA1101901999999REMMET064METAR EDHK 040020Z 09012KT 7000 BKN015 BKN035 M04/M06 Q1019 WHT;
0149100465999992008010401204+54367+010133FM-15+0031EDHK V0200901N005710099019N0070001N1-00401-00601999999ADDGA1041+004501999GA2071+009901999GF107991999999999999999999MA1102001999999REMMET064METAR EDHK 040120Z 09011KT 7000 SCT015 BKN033 M04/M06 Q1020 WHT;
0149100465999992008010402204+54367+010133FM-15+0031EDHK V0200901N005710099019N0070001N1-00401-00701999999ADDGA1021+004501999GA2071+009901999GF107991999999999999999999MA1102001999999REMMET064METAR EDHK 040220Z 09011KT 7000 FEW015 BKN033 M04/M07 Q1020 WHT;
0150100465999992008010403204+54367+010133FM-15+0031EDHK V0200901N005712200019N0080001N1-00401-00701999999ADDGA1021+006001999GA2041+045001999GF104991999999999999999999MA1102001999999REMMET065METAR EDHK 040320Z 09011KT 8000 FEW020 SCT150 M04/M07 Q1020 BLU+;
0153100465999992008010404204+54367+010133FM-15+0031EDHK V0200901N005710450019N0080001N1-00401-00701999999ADDGA1021+006001999GA2071+045001999GF107991999999999999999999MA1102001999999REMMET068METAR EDHK 040420Z 09011KT 8000 FEW020 BKN150 M04/M07 Q1020 BLU BLU;
0163100465999992008010405204+54367+010133FM-15+0031EDHK V0200901N006210300019N0080001N1-00401-00701999999ADDGA1021+006001999GA2071+030001999GF107991999999999999999999MA1102001999999REMMET078METAR EDHK 040520Z 09012KT 8000 FEW020 BKN100 M04/M07 Q1020 BLU BLU BECMG WHT;
0163100465999992008010406204+54367+010133FM-15+0031EDHK V0200901N005710360019N0080001N1-00401-00701999999ADDGA1021+005401999GA2071+036001999GF107991999999999999999999MA1101901999999REMMET078METAR EDHK 040620Z 09011KT 8000 FEW018 BKN120 M04/M07 Q1019 BLU+BLU BECMG WHT;
0140100465999992008010407204+54367+010133FM-15+0031EDHK V0201001N007212200019N0080001N1-00501-00801999999ADDGA1021+006001999GF102991999999999999999999MA1101901999999REMMET071METAR EDHK 040720Z 10014KT 8000 FEW020 M05/M08 Q1019 BLU+BLU BECMG WHT;
0140100465999992008010408204+54367+010133FM-15+0031EDHK V0201001N007212200019N0080001N1-00501-00801999999ADDGA1021+042001999GF102991999999999999999999MA1101901999999REMMET071METAR EDHK 040820Z 10014KT 8000 FEW140 M05/M08 Q1019 BLU+BLU+TEMPO BLU;
0163100465999992008010409204+54367+010133FM-15+0031EDHK V0201001N007712200019N0080001N1-00501-00801999999ADDGA1021+006001999GA2041+036001999GF104991999999999999999999MA1101901999999REMMET078METAR EDHK 040920Z 10015KT 8000 FEW020 SCT120 M05/M08 Q1019 BLU+BLU+TEMPO BLU;
0164100465999992008010410204+54367+010133FM-15+0031EDHK V0201001N006712200019N0080001N1-00501-00801999999ADDGA1021+006001999GA2041+042001999GF104991999999999999999999MA1101901999999REMMET079METAR EDHK 041020Z 10013KT 8000 FEW020 SCT140 M05/M08 Q1019 BLU+BLU TEMPO BLU+;
0176100465999992008010411204+54367+010133FM-15+0031EDHK V0201001N006710450019N0090001N1-00401-00801999999ADDGA1021+006001999GA2071+045001999GA3071+060001999GF107991999999999999999999MA1101901999999REMMET075METAR EDHK 041120Z 10013KT 9000 FEW020 BKN150 BKN200 M04/M08 Q1019 BLU BLU;
0176100465999992008010412204+54367+010133FM-15+0031EDHK V0201001N00671036001CN0112651N1-00401-00801999999ADDGA1021+006001999GA2041+036001999GA3071+060001999GF107991999999999999999999MA1101801999999REMMET075METAR EDHK 041220Z 10013KT 9999 FEW020 SCT120 BKN200 M04/M08 Q1018 BLU+BLU;
0176100465999992008010413204+54367+010133FM-15+0031EDHK V0201101N005710420019N0112651N1-00401-00701999999ADDGA1021+006001999GA2071+042001999GA3071+060001999GF107991999999999999999999MA1101691999999REMMET075METAR EDHK 041320Z 11011KT 9999 FEW020 BKN140 BKN200 M04/M07 Q1017 BLU BLU;
0161100465999992008010414004+54367+010133FM-16+0031EDHK V0201001N006710390019N0112651N1-00401-00701999999ADDGA1021+006001999GA2071+039001999GF107991999999999999999999MA1101691999999REMMET076SPECI EDHK 041400Z 10013KT 9999 FEW020 BKN130 M04/M07 Q1017 BLU FCST CANCEL;
0149100465999992008010414204+54367+010133FM-15+0031EDHK V0201001N006710390019N0112651N1-00401-00701999999ADDGA1021+006001999GA2071+039001999GF107991999999999999999999MA1101691999999REMMET064METAR EDHK 041420Z 10013KT 9999 FEW020 BKN130 M04/M07 Q1017 BLU;
0172100465999992008010415204+54367+010133FM-15+0031EDHK V0201101N00571027001CN0112651N1-00401-00701999999ADDGA1041+006001999GA2041+027001999GA3071+042001999GF107991999999999999999999MA1101691999999REMMET071METAR EDHK 041520Z 11011KT 9999 SCT020 SCT090 BKN140 M04/M07 Q1017 BLU;
0149100465999992008010416204+54367+010133FM-15+0031EDHK V0201001N005710360019N0112651N1-00401-00801999999ADDGA1021+006001999GA2071+036001999GF107991999999999999999999MA1101691999999REMMET064METAR EDHK 041620Z 10011KT 9999 FEW020 BKN120 M04/M08 Q1017 BLU;
0149100465999992008010417204+54367+010133FM-15+0031EDHK V0201001N006710420019N0112651N1-00401-00801999999ADDGA1021+006001999GA2071+042001999GF107991999999999999999999MA1101591999999REMMET064METAR EDHK 041720Z 10013KT 9999 FEW020 BKN140 M04/M08 Q1016 BLU;
0149100465999992008010418204+54367+010133FM-15+0031EDHK V0201201N005710330019N0112651N1-00401-00801999999ADDGA1021+006001999GA2071+033001999GF107991999999999999999999MA1101591999999REMMET064METAR EDHK 041820Z 12011KT 9999 FEW020 BKN110 M04/M08 Q1016 BLU;
0149100465999992008010419204+54367+010133FM-15+0031EDHK V0201201N005710330019N0112651N1-00401-00801999999ADDGA1021+006001999GA2071+033001999GF107991999999999999999999MA1101591999999REMMET064METAR EDHK 041920Z 12011KT 9999 FEW020 BKN110 M04/M08 Q1016 BLU;
0149100465999992008010420204+54367+010133FM-15+0031EDHK V0201201N005110330019N0112651N1-00401-00701999999ADDGA1021+006001999GA2071+033001999GF107991999999999999999999MA1101591999999REMMET064METAR EDHK 042020Z 12010KT 9999 FEW020 BKN110 M04/M07 Q1016 BLU;
0137100465999992008010421204+54367+010133FM-15+0031EDHK V0201201N005710360019N0112651N1-00401-00701999999ADDGA1071+036001999GF107991999999999999999999MA1101391999999OC101081REMMET060METAR EDHK 042120Z 12011G21KT 9999 BKN120 M04/M07 Q1014 BLU;
0126100465999992008010422204+54367+010133FM-15+0031EDHK V0201201N005710360019N0112651N1-00401-00701999999ADDGA1071+036001999GF107991999999999999999999MA1101291999999REMMET057METAR EDHK 042220Z 12011KT 9999 BKN120 M04/M07 Q1013 BLU;
0126100465999992008010423204+54367+010133FM-15+0031EDHK V0201101N005710300019N0112651N1-00301-00701999999ADDGA1071+030001999GF107991999999999999999999MA1101191999999REMMET057METAR EDHK 042320Z 11011KT 9999 BKN100 M03/M07 Q1012 BLU;
0126100465999992008010500204+54367+010133FM-15+0031EDHK V0201101N006210300019N0112651N1-00301-00701999999ADDGA1071+030001999GF107991999999999999999999MA1101191999999REMMET057METAR EDHK 050020Z 11012KT 9999 BKN100 M03/M07 Q1012 BLU;
0126100465999992008010501204+54367+010133FM-15+0031EDHK V0201101N006210240019N0112651N1-00301-00601999999ADDGA1071+024001999GF107991999999999999999999MA1101021999999REMMET057METAR EDHK 050120Z 11012KT 9999 BKN080 M03/M06 Q1010 BLU;
0126100465999992008010502204+54367+010133FM-15+0031EDHK V0201201N004110240019N0090001N1-00301-00601999999ADDGA1071+024001999GF107991999999999999999999MA1101021999999REMMET057METAR EDHK 050220Z 12008KT 9000 BKN080 M03/M06 Q1010 BLU;
0126100465999992008010503204+54367+010133FM-15+0031EDHK V0201201N005110240019N0090001N1-00301-00601999999ADDGA1071+024001999GF107991999999999999999999MA1100911999999REMMET057METAR EDHK 050320Z 12010KT 9000 BKN080 M03/M06 Q1009 BLU;
0127100465999992008010504204+54367+010133FM-15+0031EDHK V0201301N005112200019N0090001N1-00301-00601999999ADDGA1041+024001999GF104991999999999999999999MA1100811999999REMMET058METAR EDHK 050420Z 13010KT 9000 SCT080 M03/M06 Q1008 BLU+;
0150100465999992008010505204+54367+010133FM-15+0031EDHK V0201301N004612200019N0080001N1-00301-00601999999ADDGA1041+012001999GA2041+024001999GF104991999999999999999999MA1100711999999REMMET065METAR EDHK 050520Z 13009KT 8000 SCT040 SCT080 M03/M06 Q1007 BLU+;
0138100465999992008010506204+54367+010133FM-15+0031EDHK V0201301N005712200019N0090001N1-00201-00501999999ADDGA1021+014101999GF102991999999999999999999MA1100611999999OC101081REMMET061METAR EDHK 050620Z 13011G21KT 9000 FEW047 M02/M05 Q1006 BLU+;
0150100465999992008010507204+54367+010133FM-15+0031EDHK V0201501N006210660019N0080001N1-00101-00401999999ADDGA1021+015001999GA2071+066001999GF107991999999999999999999MA1100611999999REMMET065METAR EDHK 050720Z 15012KT 8000 FEW050 BKN220 M01/M04 Q1006 BLU+;
0149100465999992008010508204+54367+010133FM-15+0031EDHK V0201501N006210660019N0080001N1+00001-00301999999ADDGA1041+015001999GA2071+066001999GF107991999999999999999999MA1100511999999REMMET064METAR EDHK 050820Z 15012KT 8000 SCT050 BKN220 00/M03 Q1005 BLU+;
0167100465999992008010509204+54367+010133FM-15+0031EDHK V0201401N005710135019N0045001N1+00101-00201999999ADDGA1021+009001999GA2071+013501999GF107991999999999999999999MA1100511999999MW1101MW2611REMMET070METAR EDHK 050920Z 14011KT 4500 -RA BR FEW030 BKN045 01/M02 Q1005 GRN;
0157100465999992008010509504+54367+010133FM-16+0031EDHK V0201501N005710150019N0050001N1+00101-00101999999ADDGA1021+009001999GA2071+015001999GF107991999999999999999999MA1100511999999MW1101REMMET066SPECI EDHK 050950Z 15011KT 5000 BR FEW030 BKN050 01/M01 Q1005 WHT;
0157100465999992008010510204+54367+010133FM-15+0031EDHK V0201401N005110150019N0050001N1+00201-00101999999ADDGA1021+012001999GA2071+015001999GF107991999999999999999999MA1100411999999MW1101REMMET066METAR EDHK 051020Z 14010KT 5000 BR FEW040 BKN050 02/M01 Q1004 WHT;
0158100465999992008010511204+54367+010133FM-15+0031EDHK V0201401N004610120019N0060001N1+00201-00101999999ADDGA1021+007801999GA2071+012001999GF107991999999999999999999MA1100411999999MW1611REMMET067METAR EDHK 051120Z 14009KT 6000 -RA FEW026 BKN040 02/M01 Q1004 WHT;
0158100465999992008010512204+54367+010133FM-15+0031EDHK V0201401N005110090019N0070001N1+00301-00101999999ADDGA1021+006001999GA2071+009001999GF107991999999999999999999MA1100311999999MW1611REMMET067METAR EDHK 051220Z 14010KT 7000 -RA FEW020 BKN030 03/M01 Q1003 WHT;
0167100465999992008010513204+54367+010133FM-15+0031EDHK V0201501N005110063019N0050001N1+00201+00001999999ADDGA1021+004201999GA2071+006301999GF107991999999999999999999MA1100311999999MW1101MW2611REMMET070METAR EDHK 051320Z 15010KT 5000 -RA BR FEW014 BKN021 02/M00 Q1003 WHT;
0166100465999992008010514204+54367+010133FM-15+0031EDHK V0201501N005710057019N0045001N1+00201+00001999999ADDGA1021+002701999GA2071+005701999GF107991999999999999999999MA1100201999999MW1101MW2611REMMET069METAR EDHK 051420Z 15011KT 4500 -RA BR FEW009 BKN019 02/00 Q1002 GRN;
0166100465999992008010515204+54367+010133FM-15+0031EDHK V0201501N004610045019N0038001N1+00201+00101999999ADDGA1041+002401999GA2071+004501999GF107991999999999999999999MA1100201999999MW1101MW2611REMMET069METAR EDHK 051520Z 15009KT 3800 -RA BR SCT008 BKN015 02/01 Q1002 GRN;
0166100465999992008010516004+54367+010133FM-16+0031EDHK V0201501N004610018019N0038001N1+00201+00101999999ADDGA1071+001801999GA2071+003901999GF107991999999999999999999MA1100201999999MW1101MW2611REMMET069SPECI EDHK 051600Z 15009KT 3800 -RA BR BKN006 BKN013 02/01 Q1002 YLO;
0143100465999992008010516204+54367+010133FM-15+0031EDHK V0201501N004610018019N0038001N1+00201+00101999999ADDGA1071+001801999GF107991999999999999999999MA1100201999999MW1101MW2611REMMET062METAR EDHK 051620Z 15009KT 3800 -RA BR BKN006 02/01 Q1002 YLO;
0166100465999992008010517204+54367+010133FM-15+0031EDHK V0201601N004110018019N0040001N1+00201+00101999999ADDGA1071+001801999GA2071+003901999GF107991999999999999999999MA1100201999999MW1101MW2611REMMET069METAR EDHK 051720Z 16008KT 4000 -RA BR BKN006 BKN013 02/01 Q1002 YLO;
0166100465999992008010518204+54367+010133FM-15+0031EDHK V0201601N004110015019N0045001N1+00201+00101999999ADDGA1071+001501999GA2071+003901999GF107991999999999999999999MA1100201999999MW1101MW2611REMMET069METAR EDHK 051820Z 16008KT 4500 -RA BR BKN005 BKN013 02/01 Q1002 YLO;
0133100465999992008010519204+54367+010133FM-15+0031EDHK V0201601N003610015019N0045001N1+00301+00201999999ADDGA1071+001501999GF107991999999999999999999MA1100101999999MW1101REMMET058METAR EDHK 051920Z 16007KT 4500 BR BKN005 03/02 Q1001 YLO;
0133100465999992008010520204+54367+010133FM-15+0031EDHK V0201601N004110015019N0045001N1+00301+00201999999ADDGA1071+001501999GF107991999999999999999999MA1100101999999MW1101REMMET058METAR EDHK 052020Z 16008KT 4500 BR BKN005 03/02 Q1001 YLO;
0143100465999992008010521204+54367+010133FM-15+0031EDHK V0201701N003110015019N0045001N1+00301+00201999999ADDGA1071+001501999GF107991999999999999999999MA1100101999999MW1101MW2611REMMET062METAR EDHK 052120Z 17006KT 4500 -RA BR BKN005 03/02 Q1001 YLO;
0143100465999992008010522204+54367+010133FM-15+0031EDHK V0201701N003110012019N0050001N1+00301+00201999999ADDGA1071+001201999GF107991999999999999999999MA1100101999999MW1101MW2611REMMET062METAR EDHK 052220Z 17006KT 5000 -RA BR BKN004 03/02 Q1001 YLO;
0133100465999992008010523204+54367+010133FM-15+0031EDHK V0201701N003110015019N0045001N1+00401+00301999999ADDGA1071+001501999GF107991999999999999999999MA1100101999999MW1101REMMET058METAR EDHK 052320Z 17006KT 4500 BR BKN005 04/03 Q1001 YLO;
0171100465999992008010600204+54367+010133FM-15+0031EDHK V0201901N003610039019N0045001N1+00401+00301999999ADDGA1041+001501999GA2071+003901999GF107991999999999999999999MA1100101999999MW1101MW2611REMMET074METAR EDHK 060020Z 19007KT 4500 -RA BR SCT005 BKN013 04/03 Q1001 RERA GRN;
0133100465999992008010601204+54367+010133FM-15+0031EDHK V0202001N003110015019N0045001N1+00401+00301999999ADDGA1071+001501999GF107991999999999999999999MA1100101999999MW1101REMMET058METAR EDHK 060120Z 20006KT 4500 BR BKN005 04/03 Q1001 YLO;
0133100465999992008010602204+54367+010133FM-15+0031EDHK V0202101N002610021019N0045001N1+00401+00301999999ADDGA1071+002101999GF107991999999999999999999MA1100101999999MW1101REMMET058METAR EDHK 060220Z 21005KT 4500 BR BKN007 04/03 Q1001 GRN;
0133100465999992008010603204+54367+010133FM-15+0031EDHK V0202001N003610018019N0045001N1+00401+00301999999ADDGA1071+001801999GF107991999999999999999999MA1100101999999MW1101REMMET058METAR EDHK 060320Z 20007KT 4500 BR BKN006 04/03 Q1001 YLO;
0133100465999992008010604204+54367+010133FM-15+0031EDHK V0202201N003110012019N0040001N1+00401+00301999999ADDGA1071+001201999GF107991999999999999999999MA1100201999999MW1101REMMET058METAR EDHK 060420Z 22006KT 4000 BR BKN004 04/03 Q1002 YLO;
0133100465999992008010605204+54367+010133FM-15+0031EDHK V0202001N002610012019N0040001N1+00301+00301999999ADDGA1071+001201999GF107991999999999999999999MA1100201999999MW1101REMMET058METAR EDHK 060520Z 20005KT 4000 BR BKN004 03/03 Q1002 YLO;
0133100465999992008010606204+54367+010133FM-15+0031EDHK V0202201N002110027019N0040001N1+00301+00301999999ADDGA1071+002701999GF107991999999999999999999MA1100311999999MW1101REMMET058METAR EDHK 060620Z 22004KT 4000 BR BKN009 03/03 Q1003 GRN;
0156100465999992008010607204+54367+010133FM-15+0031EDHK V0202001N002110036019N0038001N1+00401+00301999999ADDGA1041+001801999GA2071+003601999GF107991999999999999999999MA1100311999999MW1101REMMET065METAR EDHK 060720Z 20004KT 3800 BR SCT006 BKN012 04/03 Q1003 GRN;
0156100465999992008010607354+54367+010133FM-16+0031EDHK V0202001N002110039019N0035001N1+00301+00201999999ADDGA1041+001801999GA2071+003901999GF107991999999999999999999MA1100311999999MW1101REMMET065SPECI EDHK 060735Z 20004KT 3500 BR SCT006 BKN013 03/02 Q1003 YLO;
0133100465999992008010608204+54367+010133FM-15+0031EDHK V0202001N002610015019N0025001N1+00301+00201999999ADDGA1071+001501999GF107991999999999999999999MA1100411999999MW1101REMMET058METAR EDHK 060820Z 20005KT 2500 BR BKN005 03/02 Q1004 YLO;
0156100465999992008010609204+54367+010133FM-15+0031EDHK V0202201N003110018019N0030001N1+00401+00301999999ADDGA1071+001801999GA2071+005401999GF107991999999999999999999MA1100411999999MW1101REMMET065METAR EDHK 060920Z 22006KT 3000 BR BKN006 BKN018 04/03 Q1004 YLO;
0133100465999992008010610204+54367+010133FM-15+0031EDHK V0202501N003110015019N0040001N1+00401+00301999999ADDGA1071+001501999GF107991999999999999999999MA1100511999999MW1101REMMET058METAR EDHK 061020Z 25006KT 4000 BR BKN005 04/03 Q1005 YLO;
0133100465999992008010611204+54367+010133FM-15+0031EDHK V0202201N003110015019N0040001N1+00401+00301999999ADDGA1071+001501999GF107991999999999999999999MA1100611999999MW1101REMMET058METAR EDHK 061120Z 22006KT 4000 BR BKN005 04/03 Q1006 YLO;
0133100465999992008010612204+54367+010133FM-15+0031EDHK V0202401N003610015019N0039001N1+00401+00301999999ADDGA1071+001501999GF107991999999999999999999MA1100711999999MW1101REMMET058METAR EDHK 061220Z 24007KT 3900 BR BKN005 04/03 Q1007 YLO;
0133100465999992008010613204+54367+010133FM-15+0031EDHK V0202301N004110012019N0038001N1+00401+00301999999ADDGA1071+001201999GF107991999999999999999999MA1100711999999MW1101REMMET058METAR EDHK 061320Z 23008KT 3800 BR BKN004 04/03 Q1007 YLO;
0133100465999992008010614204+54367+010133FM-15+0031EDHK V0202301N004110015019N0039001N1+00401+00201999999ADDGA1071+001501999GF107991999999999999999999MA1100811999999MW1101REMMET058METAR EDHK 061420Z 23008KT 3900 BR BKN005 04/02 Q1008 YLO;
0133100465999992008010615204+54367+010133FM-15+0031EDHK V0202201N003610018019N0047001N1+00401+00301999999ADDGA1071+001801999GF107991999999999999999999MA1100911999999MW1101REMMET058METAR EDHK 061520Z 22007KT 4700 BR BKN006 04/03 Q1009 YLO;
0156100465999992008010616204+54367+010133FM-15+0031EDHK V0202001N003110045019N0050001N1+00401+00201999999ADDGA1041+001801999GA2071+004501999GF107991999999999999999999MA1100911999999MW1101REMMET065METAR EDHK 061620Z 20006KT 5000 BR SCT006 BKN015 04/02 Q1009 WHT;
0166100465999992008010617204+54367+010133FM-15+0031EDHK V0202101N003610042019N0040001N1+00401+00301999999ADDGA1041+001801999GA2071+004201999GF107991999999999999999999MA1101021999999MW1101MW2511REMMET069METAR EDHK 061720Z 21007KT 4000 -DZ BR SCT006 BKN014 04/03 Q1010 GRN;
0166100465999992008010618204+54367+010133FM-15+0031EDHK V0202101N003610042019N0040001N1+00401+00301999999ADDGA1041+001801999GA2071+004201999GF107991999999999999999999MA1101021999999MW1101MW2511REMMET069METAR EDHK 061820Z 21007KT 4000 -DZ BR SCT006 BKN014 04/03 Q1010 GRN;
0147100465999992008010619004+54367+010133FM-16+0031EDHK V0202101N003110042019N0060001N1+00401+00301999999ADDGA1041+002701999GA2071+004201999GF107991999999999999999999MA1101081999999REMMET062SPECI EDHK 061900Z 21006KT 6000 SCT009 BKN014 04/03 Q1011 GRN;
0170100465999992008010619204+54367+010133FM-15+0031EDHK V0202201N00411004201CN0080001N1+00401+00301999999ADDGA1021+002701999GA2041+004201999GA3071+008401999GF107991999999999999999999MA1101081999999REMMET069METAR EDHK 061920Z 22008KT 8000 FEW009 SCT014 BKN028 04/03 Q1011 BLU;
0148100465999992008010620204+54367+010133FM-15+0031EDHK V0202201N003612200019N0090001N1+00401+00201999999ADDGA1021+010201999GA2041+015001999GF104991999999999999999999MA1101081999999REMMET063METAR EDHK 062020Z 22007KT 9000 FEW034 SCT050 04/02 Q1011 BLU+;
0124100465999992008010621204+54367+010133FM-15+0031EDHK V0202101N003110102019N0112651N1+00401+00301999999ADDGA1071+010201999GF107991999999999999999999MA1101081999999REMMET055METAR EDHK 062120Z 21006KT 9999 BKN034 04/03 Q1011 BLU;
0124100465999992008010622204+54367+010133FM-15+0031EDHK V0202201N003610084019N0112651N1+00501+00201999999ADDGA1071+008401999GF107991999999999999999999MA1101081999999REMMET055METAR EDHK 062220Z 22007KT 9999 BKN028 05/02 Q1011 BLU;
0124100465999992008010623204+54367+010133FM-15+0031EDHK V0202001N003110081019N0090001N1+00401+00201999999ADDGA1071+008101999GF107991999999999999999999MA1101191999999REMMET055METAR EDHK 062320Z 20006KT 9000 BKN027 04/02 Q1012 BLU;
0124100465999992008010700204+54367+010133FM-15+0031EDHK V0202001N003110090019N0080001N1+00401+00201999999ADDGA1071+009001999GF107991999999999999999999MA1101081999999REMMET055METAR EDHK 070020Z 20006KT 8000 BKN030 04/02 Q1011 BLU;
0147100465999992008010701204+54367+010133FM-15+0031EDHK V0202001N004110021019N0070001N1+00401+00201999999ADDGA1071+002101999GA2071+009001999GF107991999999999999999999MA1101081999999REMMET062METAR EDHK 070120Z 20008KT 7000 BKN007 BKN030 04/02 Q1011 GRN;
0148100465999992008010701504+54367+010133FM-16+0031EDHK V0202001N003612200019N0080001N1+00401+00201999999ADDGA1041+000901999GA2041+002101999GF104991999999999999999999MA1101081999999REMMET063SPECI EDHK 070150Z 20007KT 8000 SCT007 SCT003 04/02 Q1011 BLU+;
0147100465999992008010702204+54367+010133FM-15+0031EDHK V0201901N002110048019N0080001N1+00301+00201999999ADDGA1021+002101999GA2071+004801999GF107991999999999999999999MA1101081999999REMMET062METAR EDHK 070220Z 19004KT 8000 FEW007 BKN016 03/02 Q1011 WHT;
0147100465999992008010703204+54367+010133FM-15+0031EDHK V0201601N003110054019N0070001N1+00301+00101999999ADDGA1021+002101999GA2071+005401999GF107991999999999999999999MA1101021999999REMMET062METAR EDHK 070320Z 16006KT 7000 FEW007 BKN018 03/01 Q1010 WHT;
0147100465999992008010703354+54367+010133FM-16+0031EDHK V0201701N003610018019N0060001N1+00301+00101999999ADDGA1071+001801999GA2071+005101999GF107991999999999999999999MA1100911999999REMMET062SPECI EDHK 070335Z 17007KT 6000 BKN006 BKN017 03/01 Q1009 YLO;
0133100465999992008010704204+54367+010133FM-15+0031EDHK V0201601N004610012019N0040001N1+00201+00101999999ADDGA1071+001201999GF107991999999999999999999MA1100811999999MW1101REMMET058METAR EDHK 070420Z 16009KT 4000 BR BKN004 02/01 Q1008 YLO;
0133100465999992008010705204+54367+010133FM-15+0031EDHK V0201401N004110015019N0040001N1+00201+00101999999ADDGA1071+001501999GF107991999999999999999999MA1100611999999MW1101REMMET058METAR EDHK 070520Z 14008KT 4000 BR BKN005 02/01 Q1006 YLO;
0170100465999992008010706074+54367+010133FM-16+0031EDHK V0201401N003110300019N0050001N1+00201+00101999999ADDGA1041+001801999GA2071+030001999GF107991999999999999999999MA1100611999999MW1101REMMET079SPECI EDHK 070607Z 14006KT 5000 BR SCT006 BKN100 02/01 Q1006 WHT WHT TEMPO YLO;
0170100465999992008010706204+54367+010133FM-15+0031EDHK V0201301N003110270019N0050001N1+00201+00101999999ADDGA1021+001501999GA2071+027001999GF107991999999999999999999MA1100511999999MW1101REMMET079METAR EDHK 070620Z 13006KT 5000 BR FEW005 BKN090 02/01 Q1005 WHT WHT TEMPO YLO;
0161100465999992008010707204+54367+010133FM-15+0031EDHK V0201201N004610300019N0090001N1+00201+00001999999ADDGA1041+018001999GA2071+030001999GF107991999999999999999999MA1100411999999REMMET076METAR EDHK 070720Z 12009KT 9000 SCT060 BKN100 02/00 Q1004 BLU BLU TEMPO WHT;
0195100465999992008010708204+54367+010133FM-15+0031EDHK V0201401N00411012001CN0112651N1+00301+00001999999ADDGA1021+003601999GA2041+012001999GA3071+027001999GF107991999999999999999999MA1100311999999MW1611REMMET088METAR EDHK 070820Z 14008KT 9999 -RA FEW012 SCT040 BKN090 03/M00 Q1003 BLU WHT TEMPO AMB;
0188100465999992008010708314+54367+010133FM-16+0031EDHK V0201501N004110051019N0030001N1+00201+00001999999ADDGA1041+003001999GA2071+005101999GF107991999999999999999999MA1100611999999MW1101MW2631MW3731REMMET085SPECI EDHK 070831Z 15008KT 3000 SNRA BR SCT010 BKN017 02/M00 Q1006 YLO WHT TEMPO AMB;
0186100465999992008010709134+54367+010133FM-16+0031EDHK V0201501N004110027019N0042001N1+00101+00001999999ADDGA1071+002701999GA2071+004501999GF107991999999999999999999MA1100311999999MW1101MW2711REMMET089SPECI EDHK 070913Z 15008KT 4200 -SN BR BKN009 BKN015 01/M00 Q1003 RESN GRN WHT TEMPO AMB;
0163100465999992008010709204+54367+010133FM-15+0031EDHK V0201501N003610021019N0035001N1+00101+00001999999ADDGA1071+002101999GF107991999999999999999999MA1100201999999MW1101MW2711REMMET082METAR EDHK 070920Z 15007KT 3500 -SN BR BKN007 01/M00 Q1002 RESN YLO WHT TEMPO AMB;
0157100465999992008010710114+54367+010133FM-16+0031EDHK V0201601N004110024019N0070001N1+00101+00001999999ADDGA1071+002401999GF107991999999999999999999MA1100201999999MW1611MW2711REMMET076SPECI EDHK 071011Z 16008KT 7000 -RASN BKN008 01/M00 Q1002 GRN WHT TEMPO AMB;
0179100465999992008010710204+54367+010133FM-15+0031EDHK V0201601N003610021019N0070001N1+00101+00001999999ADDGA1071+002101999GA2071+003601999GF107991999999999999999999MA1100101999999MW1611MW2711REMMET082METAR EDHK 071020Z 16007KT 7000 -RASN BKN007 BKN012 01/00 Q1001 GRN WHT TEMPO AMB;
0138100465999992008010711204+54367+010133FM-15+0031EDHK V0201901N004110015019N0090001N1+00201+00101999999ADDGA1071+001501999GF107991999999999999999999MA1100101999999REMMET069METAR EDHK 071120Z 19008KT 9000 BKN005 02/01 Q1001 YLO GRN TEMPO YLO;
0157100465999992008010712114+54367+010133FM-16+0031EDHK V0202001N004110012019N0035001N1+00301+00201999999ADDGA1071+001201999GF107991999999999999999999MA1100101999999MW1101MW2611REMMET076SPECI EDHK 071211Z 20008KT 3500 -RA BR BKN004 03/02 Q1001 YLO GRN TEMPO YLO;
0147100465999992008010712204+54367+010133FM-15+0031EDHK V0202101N004110015019N0037001N1+00301+00201999999ADDGA1071+001501999GF107991999999999999999999MA1100101999999MW1101REMMET072METAR EDHK 071220Z 21008KT 3700 BR BKN005 03/02 Q1001 YLO GRN TEMPO YLO;
0193100465999992008010713204+54367+010133FM-15+0031EDHK V0202001N004110039019N0050001N1+00501+00401999999ADDGA1021+002101999GA2071+003901999GA3071+013201999GF107991999999999999999999MA1100101999999MW1101REMMET086METAR EDHK 071320Z 20008KT 5000 BR FEW007 BKN013 BKN044 05/04 Q1001 GRN GRN TEMPO YLO;
0161100465999992008010713364+54367+010133FM-16+0031EDHK V0202101N004612200019N0060001N1+00501+00401999999ADDGA1041+003001999GA2041+007501999GF104991999999999999999999MA1100101999999REMMET076SPECI EDHK 071336Z 21009KT 6000 SCT010 SCT025 05/04 Q1001 WHT WHT BECMG BLU;
0193100465999992008010714004+54367+010133FM-16+0031EDHK V0202001N004610036019N0050001N1+00501+00401999999ADDGA1021+001501999GA2071+003601999GA3071+013501999GF107991999999999999999999MA1100101999999MW1101REMMET086SPECI EDHK 071400Z 20009KT 5000 BR FEW005 BKN012 BKN045 05/04 Q1001 GRN GRN TEMPO YLO;
0193100465999992008010714204+54367+010133FM-15+0031EDHK V0202001N004110039019N0050001N1+00501+00401999999ADDGA1021+002101999GA2071+003901999GA3071+013201999GF107991999999999999999999MA1100101999999MW1101REMMET086METAR EDHK 071420Z 20008KT 5000 BR FEW007 BKN013 BKN044 05/04 Q1001 GRN GRN TEMPO YLO;
0157100465999992008010715204+54367+010133FM-15+0031EDHK V0202001N005710048019N0050001N1+00601+00401999999ADDGA1071+004801999GF107991999999999999999999MA1100101999999MW1101MW2611REMMET076METAR EDHK 071520Z 20011KT 5000 -RA BR BKN016 06/04 Q1001 WHT BLU+TEMPO GRN;
0148100465999992008010716204+54367+010133FM-15+0031EDHK V0202101N005710042019N0070001N1+00501+00301999999ADDGA1071+004201999GF107991999999999999999999MA1100101999999MW1611REMMET073METAR EDHK 071620Z 21011KT 7000 -RA BKN014 05/03 Q1001 GRN BLU+TEMPO GRN;
0168100465999992008010717204+54367+010133FM-15+0031EDHK V0202201N006710030019N0045001N1+00501+00301999999ADDGA1071+003001999GF107991999999999999999999MA1100101999999MW1101MW2611OC101231REMMET079METAR EDHK 071720Z 22013G24KT 4500 -RA BR BKN010 05/03 Q1001 GRN BLU+TEMPO GRN;
0159100465999992008010717454+54367+010133FM-16+0031EDHK V0202201N009310045019N0070001N1+00501+00301999999ADDGA1071+004501999GF107991999999999999999999MA1100101999999MW1611OC101591REMMET076SPECI EDHK 071745Z 22018G31KT 7000 -RA BKN015 05/03 Q1001 WHT BLU+TEMPO GRN;
0159100465999992008010718204+54367+010133FM-15+0031EDHK V0202201N008210045019N0112651N1+00501+00301999999ADDGA1071+004501999GF107991999999999999999999MA1100201999999MW1611OC101851REMMET076METAR EDHK 071820Z 22016G36KT 9999 -RA BKN015 05/03 Q1002 WHT BLU+TEMPO GRN;
0157100465999992008010719204+54367+010133FM-15+0031EDHK V0202201N008710060019N0112651N1+00501+00301999999ADDGA1071+006001999GF107991999999999999999999MA1100201999999MW1611OC101441REMMET074METAR EDHK 071920Z 22017G28KT 9999 -RA BKN020 05/03 Q1002 WHT FCST CANCEL;
0168100465999992008010720204+54367+010133FM-15+0031EDHK V0202201N010810063019N0112651N1+00501+00201999999ADDGA1071+006301999GA2071+013501999GF107991999999999999999999MA1100101999999MW1611OC101651REMMET069METAR EDHK 072020Z 22021G32KT 9999 -RA BKN021 BKN045 05/02 Q1001 WHT;
0145100465999992008010721204+54367+010133FM-15+0031EDHK V0202301N010310054019N0112651N1+00601+00201999999ADDGA1071+005401999GF107991999999999999999999MA1100201999999MW1611OC101701REMMET062METAR EDHK 072120Z 23020G33KT 9999 -RA BKN018 06/02 Q1002 WHT;
0168100465999992008010722204+54367+010133FM-15+0031EDHK V0202301N009310150019N0112651N1+00501+00301999999ADDGA1041+006601999GA2071+015001999GF107991999999999999999999MA1100311999999MW1611OC101491REMMET069METAR EDHK 072220Z 23018G29KT 9999 -RA SCT022 BKN050 05/03 Q1003 BLU;
0168100465999992008010723204+54367+010133FM-15+0031EDHK V0202301N009310135019N0112651N1+00601+00301999999ADDGA1041+007201999GA2071+013501999GF107991999999999999999999MA1100311999999MW1611OC101591REMMET069METAR EDHK 072320Z 23018G31KT 9999 -RA SCT024 BKN045 06/03 Q1003 BLU;
0134100465999992008010800204+54367+010133FM-15+0031EDHK V0202301N009810045019N0080001N1+00501+00301999999ADDGA1071+004501999GF107991999999999999999999MA1100411999999MW1611REMMET059METAR EDHK 080020Z 23019KT 8000 -RA BKN015 05/03 Q1004 WHT;
0157100465999992008010801204+54367+010133FM-15+0031EDHK V0202401N008710060019N0112651N1+00501+00301999999ADDGA1071+006001999GA2071+012001999GF107991999999999999999999MA1100411999999MW1611REMMET066METAR EDHK 080120Z 24017KT 9999 -RA BKN020 BKN040 05/03 Q1004 WHT;
0147100465999992008010802204+54367+010133FM-15+0031EDHK V0202401N007210135019N0112651N1+00601+00301999999ADDGA1041+006901999GA2071+013501999GF107991999999999999999999MA1100611999999REMMET062METAR EDHK 080220Z 24014KT 9999 SCT023 BKN045 06/03 Q1006 BLU;
0125100465999992008010803204+54367+010133FM-15+0031EDHK V0202401N007212200019N0112651N1+00501+00301999999ADDGA1021+006001999GF102991999999999999999999MA1100811999999REMMET056METAR EDHK 080320Z 24014KT 9999 FEW020 05/03 Q1008 BLU+;
0134100465999992008010804204+54367+010133FM-15+0031EDHK V0202601N008710045019N0080001N1+00501+00201999999ADDGA1071+004501999GF107991999999999999999999MA1100911999999MW1611REMMET059METAR EDHK 080420Z 26017KT 8000 -RA BKN015 05/02 Q1009 WHT;
0161100465999992008010805204+54367+010133FM-15+0031EDHK V0202301N007210120019N0112651N1+00601+00301999999ADDGA1021+005401999GA2071+012001999GF107991999999999999999999MA1101021999999REMMET076METAR EDHK 080520Z 23014KT 9999 FEW018 BKN040 06/03 Q1010 BLU BLU TEMPO GRN;
0171100465999992008010806204+54367+010133FM-15+0031EDHK V0202401N006210060019N0060001N1+00501+00301999999ADDGA1021+003301999GA2071+006001999GF107991999999999999999999MA1101021999999MW1611REMMET080METAR EDHK 080620Z 24012KT 6000 -RA FEW011 BKN020 05/03 Q1010 WHT BLU TEMPO GRN;
0173100465999992008010807204+54367+010133FM-15+0031EDHK V0202301N006710120019N0090001N1+00501+00301999999ADDGA1021+003001999GA2071+012001999GF107991999999999999999999MA1101191999999OC101181REMMET080METAR EDHK 080720Z 23013G23KT 9000 FEW010 BKN040 05/03 Q1012 BLU BLU+ TEMPO GRN;
0162100465999992008010807404+54367+010133FM-16+0031EDHK V0202401N007210030019N0112651N1+00501+00301999999ADDGA1071+003001999GA2071+013501999GF107991999999999999999999MA1101191999999REMMET077SPECI EDHK 080740Z 24014KT 9999 BKN010 BKN045 05/03 Q1012 GRN BLU+ TEMPO GRN;
0173100465999992008010808004+54367+010133FM-15+0031EDHK V0202401N006712200019N0112651N1+00501+00301999999ADDGA1041+003001999GA2041+012001999GF104991999999999999999999MA1101191999999OC101181REMMET080SPECI EDHK 080756Z 24013G23KT 9999 SCT010 SCT040 05/03 Q1012 BLU+BLU+ TEMPO GRN;
0166100465999992008010808204+54367+010133FM-15+0031EDHK V0202401N00771220001CN0080001N1+00501+00301999999ADDGA1071+003601999GA2041+007501999MA1101191999999OC101341REMMET080METAR EDHK 080820Z 24015G26KT 8000 BKN012 SCT025 05/03 Q1012 GRN BLU+ TEMPO GRN;EQDQ01+000042SCOTCV
0139100465999992008010809204+54367+010133FM-15+0031EDHK V0202301N005710039019N0112651N1+00501+00201999999ADDGA1071+003901999GF107991999999999999999999MA1101291999999REMMET070METAR EDHK 080920Z 23011KT 9999 BKN013 05/02 Q1013 GRN BLU+ TEMPO GRN;
0162100465999992008010810204+54367+010133FM-15+0031EDHK V0202301N006710075019N0112651N1+00501+00201999999ADDGA1041+004201999GA2071+007501999GF107991999999999999999999MA1101291999999REMMET077METAR EDHK 081020Z 23013KT 9999 SCT014 BKN025 05/02 Q1013 BLU BLU+ TEMPO GRN;
0139100465999992008010810344+54367+010133FM-16+0031EDHK V0202301N006710039019N0112651N1+00501+00301999999ADDGA1071+003901999GF107991999999999999999999MA1101291999999REMMET070SPECI EDHK 081034Z 23013KT 9999 BKN013 05/03 Q1013 GRN BLU+ TEMPO GRN;
0155100465999992008010811204+54367+010133FM-15+0031EDHK V0202301N00721220001CN0112651N1+00601+00301999999ADDGA1071+004201999GA2041+007201999MA1101291999999REMMET077METAR EDHK 081120Z 23014KT 9999 BKN014 SCT024 06/03 Q1013 GRN BLU+ TEMPO GRN;EQDQ01+000042SCOTCV
0162100465999992008010812204+54367+010133FM-15+0031EDHK V0202301N006710039019N0112651N1+00601+00301999999ADDGA1071+003901999GA2071+006601999GF107991999999999999999999MA1101391999999REMMET077METAR EDHK 081220Z 23013KT 9999 BKN013 BKN022 06/03 Q1014 GRN BLU+ TEMPO GRN;
0161100465999992008010813204+54367+010133FM-15+0031EDHK V0202301N004610039019N0112651N1+00601+00301999999ADDGA1071+003901999GA2071+005401999GF107991999999999999999999MA1101391999999REMMET076METAR EDHK 081320Z 23009KT 9999 BKN013 BKN018 06/03 Q1014 GRN BLU TEMPO GRN;
0161100465999992008010814204+54367+010133FM-15+0031EDHK V0202401N006210036019N0112651N1+00601+00301999999ADDGA1071+003601999GA2071+005401999GF107991999999999999999999MA1101391999999REMMET076METAR EDHK 081420Z 24012KT 9999 BKN012 BKN018 06/03 Q1014 GRN BLU TEMPO GRN;
0161100465999992008010815204+54367+010133FM-15+0031EDHK V0202301N004610039019N0112651N1+00601+00301999999ADDGA1071+003901999GA2071+006001999GF107991999999999999999999MA1101391999999REMMET076METAR EDHK 081520Z 23009KT 9999 BKN013 BKN020 06/03 Q1014 GRN BLU TEMPO GRN;
0138100465999992008010816204+54367+010133FM-15+0031EDHK V0202101N004610039019N0112651N1+00601+00301999999ADDGA1071+003901999GF107991999999999999999999MA1101391999999REMMET069METAR EDHK 081620Z 21009KT 9999 BKN013 06/03 Q1014 GRN BLU TEMPO GRN;
0138100465999992008010817204+54367+010133FM-15+0031EDHK V0202001N004110033019N0070001N1+00601+00401999999ADDGA1071+003301999GF107991999999999999999999MA1101491999999REMMET069METAR EDHK 081720Z 20008KT 7000 BKN011 06/04 Q1015 GRN BLU TEMPO GRN;
0138100465999992008010818204+54367+010133FM-15+0031EDHK V0202001N004610033019N0070001N1+00601+00401999999ADDGA1071+003301999GF107991999999999999999999MA1101491999999REMMET069METAR EDHK 081820Z 20009KT 7000 BKN011 06/04 Q1015 GRN BLU TEMPO GRN;
0161100465999992008010818384+54367+010133FM-16+0031EDHK V0202001N004610060019N0070001N1+00601+00401999999ADDGA1041+003301999GA2071+006001999GF107991999999999999999999MA1101391999999REMMET076SPECI EDHK 081838Z 20009KT 7000 SCT011 BKN020 06/04 Q1014 WHT BLU TEMPO GRN;
0168100465999992008010819204+54367+010133FM-15+0031EDHK V0201901N003110054019N0050001N1+00601+00401999999ADDGA1041+003001999GA2071+005401999GF107991999999999999999999MA1101391999999MW1101REMMET077METAR EDHK 081920Z 19006KT 5000 BR SCT010 BKN018 06/04 Q1014 WHT FCST CANCEL;
0133100465999992008010819424+54367+010133FM-16+0031EDHK V0202001N003610036019N0050001N1+00601+00401999999ADDGA1071+003601999GF107991999999999999999999MA1101391999999MW1101REMMET058SPECI EDHK 081942Z 20007KT 5000 BR BKN012 06/04 Q1014 GRN;
0133100465999992008010820204+54367+010133FM-15+0031EDHK V0202001N004110048019N0050001N1+00601+00301999999ADDGA1071+004801999GF107991999999999999999999MA1101391999999MW1101REMMET058METAR EDHK 082020Z 20008KT 5000 BR BKN016 06/03 Q1014 WHT;
0133100465999992008010821204+54367+010133FM-15+0031EDHK V0201901N003610060019N0050001N1+00601+00301999999ADDGA1071+006001999GF107991999999999999999999MA1101391999999MW1101REMMET058METAR EDHK 082120Z 19007KT 5000 BR BKN020 06/03 Q1014 WHT;
0140100465999992008010822204+54367+010133FM-15+0031EDHK V0201901N00511220001CN0060001N1+00601+00301999999ADDGA1071+006901999GA2041+030001999MA1101291999999REMMET062METAR EDHK 082220Z 19010KT 6000 BKN023 SCT100 06/03 Q1013 WHT;EQDQ01+000042SCOTCV
0147100465999992008010823204+54367+010133FM-15+0031EDHK V0201901N004110150019N0080001N1+00601+00301999999ADDGA1021+004501999GA2071+015001999GF107991999999999999999999MA1101191999999REMMET062METAR EDHK 082320Z 19008KT 8000 FEW015 BKN050 06/03 Q1012 BLU;
0125100465999992008010900204+54367+010133FM-15+0031EDHK V0202001N005112200019N0112651N1+00601+00301999999ADDGA1021+015001999GF102991999999999999999999MA1101191999999REMMET056METAR EDHK 090020Z 20010KT 9999 FEW050 06/03 Q1012 BLU+;
0076100465999992008010901204+54367+010133FM-15+0031EDHK V0201901N005112200019N0112651N1+00501+00201999999ADDMA1101081999999REMMET049METAR EDHK 090120Z 19010KT 9999 05/02 Q1011 BLU+;
0125100465999992008010902204+54367+010133FM-15+0031EDHK V0201901N005110690019N0112651N1+00501+00201999999ADDGA1071+069001999GF107991999999999999999999MA1101081999999REMMET056METAR EDHK 090220Z 19010KT 9999 BKN230 05/02 Q1011 BLU+;
0148100465999992008010903204+54367+010133FM-15+0031EDHK V0201701N004610690019N0112651N1+00401+00101999999ADDGA1041+048001999GA2071+069001999GF107991999999999999999999MA1101021999999REMMET063METAR EDHK 090320Z 17009KT 9999 SCT160 BKN230 04/01 Q1010 BLU+;
0138100465999992008010904204+54367+010133FM-15+0031EDHK V0201801N004610690019N0112651N1+00401+00101999999ADDGA1071+069001999GF107991999999999999999999MA1100911999999REMMET069METAR EDHK 090420Z 18009KT 9999 BKN230 04/01 Q1009 BLU+BLU TEMPO GRN;
0161100465999992008010905204+54367+010133FM-15+0031EDHK V0201801N005110210019N0112651N1+00401+00101999999ADDGA1071+021001999GA2071+063001999GF107991999999999999999999MA1100911999999REMMET076METAR EDHK 090520Z 18010KT 9999 BKN070 BKN210 04/01 Q1009 BLU BLU TEMPO GRN;
0173100465999992008010906204+54367+010133FM-15+0031EDHK V0201701N005710180019N0112651N1+00501+00101999999ADDGA1071+018001999GF107991999999999999999999MA1999999999999REMMET069METAR EDHK 090620Z 17011KT 9999 BKN060 05/01 Q1014 BLU BLU TEMPO GRN;EQDQ01+101393APOA  Q02 101403APOA  
0161100465999992008010907204+54367+010133FM-15+0031EDHK V0201801N004610240019N0112651N1+00501+00101999999ADDGA1041+015001999GA2071+024001999GF107991999999999999999999MA1100811999999REMMET076METAR EDHK 090720Z 18009KT 9999 SCT050 BKN080 05/01 Q1008 BLU BLU TEMPO GRN;
0161100465999992008010908204+54367+010133FM-15+0031EDHK V0201801N004610150019N0112651N1+00601+00101999999ADDGA1041+008701999GA2071+015001999GF107991999999999999999999MA1100711999999REMMET076METAR EDHK 090820Z 18009KT 9999 SCT029 BKN050 06/01 Q1007 BLU BLU TEMPO GRN;
0171100465999992008010909204+54367+010133FM-15+0031EDHK V0201901N005110090019N0112651N1+00501+00201999999ADDGA1041+006001999GA2071+009001999GF107991999999999999999999MA1100711999999MW1611REMMET080METAR EDHK 090920Z 19010KT 9999 -RA SCT020 BKN030 05/02 Q1007 BLU BLU TEMPO GRN;
0171100465999992008010910204+54367+010133FM-15+0031EDHK V0202001N005110060019N0112651N1+00601+00301999999ADDGA1071+006001999GA2071+015001999GF107991999999999999999999MA1100711999999MW1611REMMET080METAR EDHK 091020Z 20010KT 9999 -RA BKN020 BKN050 06/03 Q1007 WHT BLU TEMPO GRN;
0138100465999992008010911204+54367+010133FM-15+0031EDHK V0202101N005710045019N0112651N1+00601+00301999999ADDGA1071+004501999GF107991999999999999999999MA1100711999999REMMET069METAR EDHK 091120Z 21011KT 9999 BKN015 06/03 Q1007 WHT BLU TEMPO GRN;
0161100465999992008010912204+54367+010133FM-15+0031EDHK V0202201N006210270019N0112651N1+00601+00301999999ADDGA1041+004501999GA2071+027001999GF107991999999999999999999MA1100711999999REMMET076METAR EDHK 091220Z 22012KT 9999 SCT015 BKN090 06/03 Q1007 BLU BLU TEMPO GRN;
0161100465999992008010913204+54367+010133FM-15+0031EDHK V0202101N004610270019N0112651N1+00601+00301999999ADDGA1041+004501999GA2071+027001999GF107991999999999999999999MA1100611999999REMMET076METAR EDHK 091320Z 21009KT 9999 SCT015 BKN090 06/03 Q1006 BLU BLU TEMPO GRN;
0138100465999992008010914204+54367+010133FM-15+0031EDHK V0202101N004610048019N0112651N1+00601+00301999999ADDGA1071+004801999GF107991999999999999999999MA1100611999999REMMET069METAR EDHK 091420Z 21009KT 9999 BKN016 06/03 Q1006 WHT BLU TEMPO GRN;
0161100465999992008010915204+54367+010133FM-15+0031EDHK V0202101N004612200019N0112651N1+00601+00301999999ADDGA1041+004501999GA2041+015001999GF104991999999999999999999MA1100711999999REMMET076METAR EDHK 091520Z 21009KT 9999 SCT015 SCT050 06/03 Q1007 BLU+BLU TEMPO GRN;
0161100465999992008010916204+54367+010133FM-15+0031EDHK V0202201N004612200019N0112651N1+00601+00301999999ADDGA1041+004501999GA2041+027001999GF104991999999999999999999MA1100711999999REMMET076METAR EDHK 091620Z 22009KT 9999 SCT015 SCT090 06/03 Q1007 BLU+BLU TEMPO GRN;
0149100465999992008010917204+54367+010133FM-15+0031EDHK V0202101N004110048019N0112651N1+00601+00301999999ADDGA1071+004801999GF107991999999999999999999MA1100811999999OC100931REMMET072METAR EDHK 091720Z 21008G18KT 9999 BKN016 06/03 Q1008 WHT BLU TEMPO GRN;
0138100465999992008010918204+54367+010133FM-15+0031EDHK V0202201N004612200019N0112651N1+00501+00301999999ADDGA1021+006001999GF102991999999999999999999MA1100811999999REMMET069METAR EDHK 091820Z 22009KT 9999 FEW020 05/03 Q1008 BLU+BLU TEMPO GRN;
0136100465999992008010919204+54367+010133FM-15+0031EDHK V0202101N004112200019N0112651N1+00501+00201999999ADDGA1041+006601999GF104991999999999999999999MA1100811999999REMMET067METAR EDHK 091920Z 21008KT 9999 SCT022 05/02 Q1008 BLU+FCST CANCEL;
0125100465999992008010920204+54367+010133FM-15+0031EDHK V0202001N004112200019N0080001N1+00401+00201999999ADDGA1021+003901999GF102991999999999999999999MA1100911999999REMMET056METAR EDHK 092020Z 20008KT 8000 FEW013 04/02 Q1009 BLU+;
0124100465999992008010921204+54367+010133FM-15+0031EDHK V0202101N005112200019N0070001N1+00401+00201999999ADDGA1021+003901999GF102991999999999999999999MA1100911999999REMMET055METAR EDHK 092120Z 21010KT 7000 FEW013 04/02 Q1009 WHT;
0148100465999992008010922204+54367+010133FM-15+0031EDHK V0202101N005112200019N0080001N1+00401+00201999999ADDGA1021+003901999GA2041+018001999GF104991999999999999999999MA1100911999999REMMET063METAR EDHK 092220Z 21010KT 8000 FEW013 SCT060 04/02 Q1009 BLU+;
0147100465999992008010923204+54367+010133FM-15+0031EDHK V0202101N005710126019N0080001N1+00501+00201999999ADDGA1021+003601999GA2071+012601999GF107991999999999999999999MA1101021999999REMMET062METAR EDHK 092320Z 21011KT 8000 FEW012 BKN042 05/02 Q1010 BLU;
0147100465999992008011000204+54367+010133FM-15+0031EDHK V0202101N004610135019N0090001N1+00501+00201999999ADDGA1021+003901999GA2071+013501999GF107991999999999999999999MA1101021999999REMMET062METAR EDHK 100020Z 21009KT 9000 FEW013 BKN045 05/02 Q1010 BLU;
0147100465999992008011001204+54367+010133FM-15+0031EDHK V0202101N004610180019N0090001N1+00401+00201999999ADDGA1021+003901999GA2071+018001999GF107991999999999999999999MA1101021999999REMMET062METAR EDHK 100120Z 21009KT 9000 FEW013 BKN060 04/02 Q1010 BLU;
0147100465999992008011002204+54367+010133FM-15+0031EDHK V0202101N004610060019N0112651N1+00501+00101999999ADDGA1021+003901999GA2071+006001999GF107991999999999999999999MA1101021999999REMMET062METAR EDHK 100220Z 21009KT 9999 FEW013 BKN020 05/01 Q1010 WHT;
0124100465999992008011003204+54367+010133FM-15+0031EDHK V0202101N005110045019N0112651N1+00501+00201999999ADDGA1071+004501999GF107991999999999999999999MA1101021999999REMMET055METAR EDHK 100320Z 21010KT 9999 BKN015 05/02 Q1010 WHT;
0128100465999992008011004204+54367+010133FM-15+0031EDHK V0202101N005110039019N0080001N1+00501+00301999999ADDGA1071+003901999GF107991999999999999999999MA1100911999999REMMET059METAR EDHK 100420Z 21010KT 8000 BKN013 05/03 Q1009 GRN GRN;
0161100465999992008011005204+54367+010133FM-15+0031EDHK V0202001N005110051019N0090001N1+00501+00201999999ADDGA1021+003601999GA2071+005101999GF107991999999999999999999MA1100911999999REMMET076METAR EDHK 100520Z 20010KT 9000 FEW012 BKN017 05/02 Q1009 WHT BLU TEMPO GRN;
0161100465999992008011006204+54367+010133FM-15+0031EDHK V0201901N006712200019N0080001N1+00501+00201999999ADDGA1021+004201999GA2041+024001999GF104991999999999999999999MA1100811999999REMMET076METAR EDHK 100620Z 19013KT 8000 FEW014 SCT080 05/02 Q1008 BLU+BLU TEMPO GRN;
0184100465999992008011007204+54367+010133FM-15+0031EDHK V0202001N00721021001CN0080001N1+00501+00201999999ADDGA1021+003601999GA2041+021001999GA3071+048001999GF107991999999999999999999MA1100711999999REMMET083METAR EDHK 100720Z 20014KT 8000 FEW012 SCT070 BKN160 05/02 Q1007 BLU BLU TEMPO GRN;
0161100465999992008011008204+54367+010133FM-15+0031EDHK V0202001N007710450019N0080001N1+00501+00201999999ADDGA1021+003601999GA2071+045001999GF107991999999999999999999MA1100711999999REMMET076METAR EDHK 100820Z 20015KT 8000 FEW012 BKN150 05/02 Q1007 BLU BLU TEMPO GRN;
0162100465999992008011009204+54367+010133FM-15+0031EDHK V0202001N008210630019N0080001N1+00601+00201999999ADDGA1021+004801999GA2071+063001999GF107991999999999999999999MA1100711999999REMMET077METAR EDHK 100920Z 20016KT 8000 FEW016 BKN210 06/02 Q1007 BLU+BLU+ TEMPO WHT;
0162100465999992008011010204+54367+010133FM-15+0031EDHK V0202201N007212200019N0112651N1+00601+00201999999ADDGA1021+004801999GA2041+063001999GF104991999999999999999999MA1100711999999REMMET077METAR EDHK 101020Z 22014KT 9999 FEW016 SCT210 06/02 Q1007 BLU+BLU+ TEMPO WHT;
0173100465999992008011011204+54367+010133FM-15+0031EDHK V0202101N006712200019N0112651N1+00701+00201999999ADDGA1021+005701999GA2041+015001999GF104991999999999999999999MA1100711999999OC101291REMMET080METAR EDHK 101120Z 21013G25KT 9999 FEW019 SCT050 07/02 Q1007 BLU+BLU+ TEMPO WHT;
0161100465999992008011012204+54367+010133FM-15+0031EDHK V0202001N006210570019N0112651N1+00701+00201999999ADDGA1021+006001999GA2071+057001999GF107991999999999999999999MA1100611999999REMMET076METAR EDHK 101220Z 20012KT 9999 FEW020 BKN190 07/02 Q1006 BLU BLU+TEMPO WHT;
0184100465999992008011013204+54367+010133FM-15+0031EDHK V0202001N00671015001CN0112651N1+00701+00201999999ADDGA1021+006001999GA2041+015001999GA3071+057001999GF107991999999999999999999MA1100611999999REMMET083METAR EDHK 101320Z 20013KT 9999 FEW020 SCT050 BKN190 07/02 Q1006 BLU BLU+TEMPO WHT;
0185100465999992008011014204+54367+010133FM-15+0031EDHK V0202001N00621015001CN0112651N1+00601+00201999999ADDGA1021+005401999GA2041+015001999GA3071+057001999GF107991999999999999999999MA1100611999999REMMET084METAR EDHK 101420Z 20012KT 9999 FEW018 SCT050 BKN190 06/02 Q1006 BLU BLU+ TEMPO WHT;
0161100465999992008011015204+54367+010133FM-15+0031EDHK V0202001N006210180019N0112651N1+00701+00201999999ADDGA1071+018001999GA2071+057001999GF107991999999999999999999MA1100511999999REMMET076METAR EDHK 101520Z 20012KT 9999 BKN060 BKN190 07/02 Q1005 BLU BLU TEMPO WHT;
0161100465999992008011016204+54367+010133FM-15+0031EDHK V0201901N006710078019N0112651N1+00701+00201999999ADDGA1021+003301999GA2071+007801999GF107991999999999999999999MA1100411999999REMMET076METAR EDHK 101620Z 19013KT 9999 FEW011 BKN026 07/02 Q1004 BLU BLU TEMPO WHT;
0161100465999992008011017204+54367+010133FM-15+0031EDHK V0201901N007210150019N0112651N1+00701+00201999999ADDGA1041+008401999GA2071+015001999GF107991999999999999999999MA1100411999999REMMET076METAR EDHK 101720Z 19014KT 9999 SCT028 BKN050 07/02 Q1004 BLU BLU TEMPO WHT;
0138100465999992008011018204+54367+010133FM-15+0031EDHK V0201901N006710090019N0112651N1+00701+00201999999ADDGA1071+009001999GF107991999999999999999999MA1100411999999REMMET069METAR EDHK 101820Z 19013KT 9999 BKN030 07/02 Q1004 BLU BLU TEMPO WHT;
0159100465999992008011019204+54367+010133FM-15+0031EDHK V0201901N006710090019N0112651N1+00801+00201999999ADDGA1071+009001999GA2071+015001999GF107991999999999999999999MA1100311999999REMMET074METAR EDHK 101920Z 19013KT 9999 BKN030 BKN050 08/02 Q1003 BLU FCST CANCEL;
0158100465999992008011020204+54367+010133FM-15+0031EDHK V0201901N008210180019N0112651N1+00801+00301999999ADDGA1041+007501999GA2071+018001999GF107991999999999999999999MA1100201999999OC101391REMMET065METAR EDHK 102020Z 19016G27KT 9999 SCT025 BKN060 08/03 Q1002 BLU;
0124100465999992008011021204+54367+010133FM-15+0031EDHK V0202001N007710090019N0112651N1+00801+00401999999ADDGA1071+009001999GF107991999999999999999999MA1100201999999REMMET055METAR EDHK 102120Z 20015KT 9999 BKN030 08/04 Q1002 BLU;
0162100465999992008011022204+54367+010133FM-15+0031EDHK V0202001N007210045019N0050001N1+00801+00501999999ADDGA1071+004501999GF107991999999999999999999MA1100201999999MW1101MW2511MW3611OC101231REMMET067METAR EDHK 102220Z 20014G24KT 5000 -RADZ BR BKN015 08/05 Q1002 WHT;
0124100465999992008011023204+54367+010133FM-15+0031EDHK V0202001N006210045019N0060001N1+00801+00501999999ADDGA1071+004501999GF107991999999999999999999MA1100201999999REMMET055METAR EDHK 102320Z 20012KT 6000 BKN015 08/05 Q1002 WHT;
0142100465999992008011100204+54367+010133FM-15+0031EDHK V0202001N005710018019N0030001N1+00801+00601999999ADDGA1071+001801999GF107991999999999999999999MA1100201999999MW1101MW2531REMMET061METAR EDHK 110020Z 20011KT 3000 DZ BR BKN006 08/06 Q1002 YLO;
0156100465999992008011101204+54367+010133FM-15+0031EDHK V0202001N006210021019N0040001N1+00801+00601999999ADDGA1071+002101999GF107991999999999999999999MA1100101999999MW1101MW2511MW3611REMMET069METAR EDHK 110120Z 20012KT 4000 -RADZ BR BKN007 08/06 Q1001 REDZ GRN;
0150100465999992008011102204+54367+010133FM-15+0031EDHK V0202001N005710027019N0030001N1+00801+00601999999ADDGA1071+002701999GF107991999999999999999999MA1100101999999MW1101MW2531MW3631REMMET063METAR EDHK 110220Z 20011KT 3000 RADZ BR BKN009 08/06 Q1001 YLO;
0156100465999992008011103204+54367+010133FM-15+0031EDHK V0202001N004610030019N0040001N1+00801+00601999999ADDGA1071+003001999GF107991999999999999999999MA1100101999999MW1101MW2511MW3611REMMET069METAR EDHK 110320Z 20009KT 4000 -RADZ BR BKN010 08/06 Q1001 RERA GRN;
0153100465999992008011104204+54367+010133FM-15+0031EDHK V0202001N005110030019N0030001N1+00901+00701999999ADDGA1071+003001999GF107991999999999999999999MW1101MW2531MW3631REMMET081METAR EDHK 110420Z 20010KT 3000 RADZ BR BKN010 09/07 /W/DRUCK/ YLO GRN TEMPO YLO;
0164100465999992008011105204+54367+010133FM-15+0031EDHK V0202001N005110030019N0030001N1+00801+00701999999ADDGA1071+003001999GF107991999999999999999999MA1100101999999MW1101MW2531MW3631REMMET077METAR EDHK 110520Z 20010KT 3000 RADZ BR BKN010 08/07 Q1001 YLO GRN TEMPO YLO;
0187100465999992008011106204+54367+010133FM-15+0031EDHK V0202001N004110048019N0040001N1+00801+00701999999ADDGA1041+003001999GA2071+004801999GF107991999999999999999999MA1100101999999MW1101MW2531MW3631REMMET084METAR EDHK 110620Z 20008KT 4000 RADZ BR SCT010 BKN016 08/07 Q1001 GRN GRN TEMPO YLO;
0192100465999992008011107204+54367+010133FM-15+0031EDHK V0202101N003610021019N0032001N1+00801+00701999999ADDGA1071+002101999GA2071+003001999GF107991999999999999999999MA1100101999999MW1101MW2531MW3631REMMET089METAR EDHK 110720Z 21007KT 3200 DZRA BR BKN007 BKN010 08/07 Q1001 RERA YLO GRN TEMPO YLO;
0192100465999992008011107444+54367+010133FM-16+0031EDHK V0202001N003110021019N0040001N1+00801+00701999999ADDGA1021+001501999GA2071+002101999GF107991999999999999999999MA1100101999999MW1101MW2531MW3631REMMET089SPECI EDHK 110744Z 20006KT 4000 RADZ BR FEW005 BKN007 08/07 Q1001 REDZ GRN GRN TEMPO YLO;
0162100465999992008011108064+54367+010133FM-16+0031EDHK V0202001N004110021019N0050001N1+00801+00701999999ADDGA1071+002101999GF107991999999999999999999MA1100101999999MW1101MW2611REMMET081SPECI EDHK 110806Z 20008KT 5000 -RA BR BKN007 08/07 Q1001 RERA GRN GRN TEMPO YLO;
0185100465999992008011108204+54367+010133FM-15+0031EDHK V0202001N004110021019N0050001N1+00801+00701999999ADDGA1021+001501999GA2071+002101999GF107991999999999999999999MA1100201999999MW1101MW2611REMMET088METAR EDHK 110820Z 20008KT 5000 -RA BR FEW005 BKN007 08/07 Q1002 RERA GRN GRN TEMPO YLO;
0180100465999992008011109074+54367+010133FM-16+0031EDHK V0202101N004110024019N0042001N1+00801+00701999999ADDGA1041+001801999GA2081+002401999GF108991999999999999999999MA1100201999999MW1101MW2511REMMET083SPECI EDHK 110907Z 21008KT 4200 -DZ BR SCT006 OVC008 08/07 Q1002 GRN GRN TEMPO YLO;
0170100465999992008011109204+54367+010133FM-15+0031EDHK V0202101N004110024019N0050001N1+00801+00701999999ADDGA1041+001801999GA2081+002401999GF108991999999999999999999MA1100201999999MW1101REMMET079METAR EDHK 110920Z 21008KT 5000 BR SCT006 OVC008 08/07 Q1002 GRN GRN TEMPO YLO;
0187100465999992008011110034+54367+010133FM-16+0031EDHK V0202001N004110021019N0042001N1+00801+00701999999ADDGA1071+002101999GA2071+003601999GF107991999999999999999999MA1100201999999MW1101MW2531MW3631REMMET084SPECI EDHK 111003Z 20008KT 4200 RADZ BR BKN007 BKN012 08/07 Q1002 GRN GRN TEMPO YLO;
0208100465999992008011110204+54367+010133FM-15+0031EDHK V0202001N004110021019N0050001N1+00801+00701999999ADDGA1021+001501999GA2071+002101999GA3071+003601999GF107991999999999999999999MA1100201999999MW1101MW2611REMMET095METAR EDHK 111020Z 20008KT 5000 -RA BR FEW005 BKN007 BKN012 08/07 Q1002 RERA GRN GRN TEMPO YLO;
0171100465999992008011111204+54367+010133FM-15+0031EDHK V0201901N004610021019N0070001N1+00801+00701999999ADDGA1071+002101999GA2071+003601999GF107991999999999999999999MA1100201999999MW1611REMMET080METAR EDHK 111120Z 19009KT 7000 -RA BKN007 BKN012 08/07 Q1002 GRN GRN TEMPO YLO;
0171100465999992008011112204+54367+010133FM-15+0031EDHK V0201901N004610063019N0080001N1+00801+00601999999ADDGA1041+002101999GA2071+006301999GF107991999999999999999999MA1100201999999MW1611REMMET080METAR EDHK 111220Z 19009KT 8000 -RA SCT007 BKN021 08/06 Q1002 WHT GRN TEMPO YLO;
0179100465999992008011112334+54367+010133FM-16+0031EDHK V0201901N004610024019N0080001N1+00801+00601999999ADDGA1071+002401999GA2071+006301999GF107991999999999999999999MA1100201999999MW1511MW2611REMMET082SPECI EDHK 111233Z 19009KT 8000 -DZRA BKN008 BKN021 08/06 Q1002 GRN GRN TEMPO YLO;
0171100465999992008011113204+54367+010133FM-15+0031EDHK V0201901N004110030019N0080001N1+00801+00601999999ADDGA1071+003001999GA2071+005701999GF107991999999999999999999MA1100101999999MW1511REMMET080METAR EDHK 111320Z 19008KT 8000 -DZ BKN010 BKN019 08/06 Q1001 GRN GRN TEMPO YLO;
0169100465999992008011114024+54367+010133FM-16+0031EDHK V0201901N004110054019N0080001N1+00801+00601999999ADDGA1041+002701999GA2071+005401999GF107991999999999999999999MA1100101999999MW1511REMMET078SPECI EDHK 111402Z 19008KT 8000 -DZ SCT009 BKN018 08/06 Q1001 WHT FCST CANCEL;
0147100465999992008011114204+54367+010133FM-15+0031EDHK V0201901N003110072019N0090001N1+00901+00601999999ADDGA1021+002701999GA2071+007201999GF107991999999999999999999MA1100101999999REMMET062METAR EDHK 111420Z 19006KT 9000 FEW009 BKN024 09/06 Q1001 WHT;
0157100465999992008011115204+54367+010133FM-15+0031EDHK V0201701N002610150019N0112651N1+00901+00601999999ADDGA1021+009001999GA2071+015001999GF107991999999999999999999MA1100001999999MW1611REMMET066METAR EDHK 111520Z 17005KT 9999 -RA FEW030 BKN050 09/06 Q1000 BLU;
0147100465999992008011116204+54367+010133FM-15+0031EDHK V0201501N002610300019N0112651N1+00801+00601999999ADDGA1041+015001999GA2071+030001999GF107991999999999999999999MA1100001999999REMMET062METAR EDHK 111620Z 15005KT 9999 SCT050 BKN100 08/06 Q1000 BLU;
0147100465999992008011117204+54367+010133FM-15+0031EDHK V0201701N003610150019N0112651N1+00901+00501999999ADDGA1071+015001999GA2071+030001999GF107991999999999999999999MA1099901999999REMMET062METAR EDHK 111720Z 17007KT 9999 BKN050 BKN100 09/05 Q0999 BLU;
0134100465999992008011118204+54367+010133FM-15+0031EDHK V0201601N003610150019N0090001N1+00901+00501999999ADDGA1071+015001999GF107991999999999999999999MA1099901999999MW1611REMMET059METAR EDHK 111820Z 16007KT 9000 -RA BKN050 09/05 Q0999 BLU;
0157100465999992008011119204+54367+010133FM-15+0031EDHK V0201701N003110180019N0112651N1+00901+00601999999ADDGA1071+018001999GA2081+027001999GF108991999999999999999999MA1099901999999MW1611REMMET066METAR EDHK 111920Z 17006KT 9999 -RA BKN060 OVC090 09/06 Q0999 BLU;
0170100465999992008011120204+54367+010133FM-15+0031EDHK V0201601N003610240019N0112651N1+00901+00601999999ADDGA1021+012001999GA2071+024001999GA3081+033001999GF108991999999999999999999MA1099801999999REMMET069METAR EDHK 112020Z 16007KT 9999 FEW040 BKN080 OVC110 09/06 Q0998 BLU;
0134100465999992008011121204+54367+010133FM-15+0031EDHK V0201601N003610120019N0112651N1+00901+00501999999ADDGA1071+012001999GF107991999999999999999999MA1099801999999MW1611REMMET059METAR EDHK 112120Z 16007KT 9999 -RA BKN040 09/05 Q0998 BLU;
0134100465999992008011122204+54367+010133FM-15+0031EDHK V0201601N003110126019N0112651N1+00901+00601999999ADDGA1071+012601999GF107991999999999999999999MA1099801999999MW1611REMMET059METAR EDHK 112220Z 16006KT 9999 -RA BKN042 09/06 Q0998 BLU;
0170100465999992008011123204+54367+010133FM-15+0031EDHK V0201501N003610240019N0112651N1+00801+00501999999ADDGA1021+012601999GA2071+024001999GA3081+030001999GF108991999999999999999999MA1099701999999REMMET069METAR EDHK 112320Z 15007KT 9999 FEW042 BKN080 OVC100 08/05 Q0997 BLU;
0147100465999992008011200204+54367+010133FM-15+0031EDHK V0201601N003110300019N0112651N1+00901+00501999999ADDGA1021+012001999GA2071+030001999GF107991999999999999999999MA1099701999999REMMET062METAR EDHK 120020Z 16006KT 9999 FEW040 BKN100 09/05 Q0997 BLU;
0147100465999992008011201204+54367+010133FM-15+0031EDHK V0201601N003110360019N0112651N1+00901+00401999999ADDGA1021+012001999GA2071+036001999GF107991999999999999999999MA1099591999999REMMET062METAR EDHK 120120Z 16006KT 9999 FEW040 BKN120 09/04 Q0996 BLU;
0148100465999992008011202204+54367+010133FM-15+0031EDHK V0201701N003610660019N0112651N1+00901+00401999999ADDGA1041+018001999GA2071+066001999GF107991999999999999999999MA1099591999999REMMET063METAR EDHK 120220Z 17007KT 9999 SCT060 BKN220 09/04 Q0996 BLU+;
0148100465999992008011203204+54367+010133FM-15+0031EDHK V0201601N003612200019N0112651N1+00801+00301999999ADDGA1021+027001999GA2041+036001999GF104991999999999999999999MA1099491999999REMMET063METAR EDHK 120320Z 16007KT 9999 FEW090 SCT120 08/03 Q0995 BLU+;
0148100465999992008011204204+54367+010133FM-15+0031EDHK V0201701N003112200019N0112651N1+00801+00301999999ADDGA1021+018001999GA2041+033001999GF104991999999999999999999MA1099491999999REMMET063METAR EDHK 120420Z 17006KT 9999 FEW060 SCT110 08/03 Q0995 BLU+;
0147100465999992008011205204+54367+010133FM-15+0031EDHK V0201601N003610180019N0112651N1+00801+00301999999ADDGA1021+013501999GA2071+018001999GF107991999999999999999999MA1099491999999REMMET062METAR EDHK 120520Z 16007KT 9999 FEW045 BKN060 08/03 Q0995 BLU;
0124100465999992008011206204+54367+010133FM-15+0031EDHK V0201801N003110129019N0112651N1+00801+00301999999ADDGA1071+012901999GF107991999999999999999999MA1099491999999REMMET055METAR EDHK 120620Z 18006KT 9999 BKN043 08/03 Q0995 BLU;
0148100465999992008011207204+54367+010133FM-15+0031EDHK V0201901N003612200019N0112651N1+00901+00301999999ADDGA1021+008401999GA2041+015001999GF104991999999999999999999MA1099591999999REMMET063METAR EDHK 120720Z 19007KT 9999 FEW028 SCT050 09/03 Q0996 BLU+;
0181100465999992008011208204+54367+010133FM-15+0031EDHK V0201901N00461015001CN0112651N1+00901+00301999999ADDGA1021+008701999GA2041+015001999GA3071+063001999GF107991999999999999999999MA1099591999999MW1611REMMET074METAR EDHK 120820Z 19009KT 9999 -RA FEW029 SCT050 BKN210 09/03 Q0996 BLU+;
0148100465999992008011209204+54367+010133FM-15+0031EDHK V0202001N005112200019N0112651N1+00901+00301999999ADDGA1021+008401999GA2041+015001999GF104991999999999999999999MA1099591999999REMMET063METAR EDHK 120920Z 20010KT 9999 FEW028 SCT050 09/03 Q0996 BLU+;
0158100465999992008011210204+54367+010133FM-15+0031EDHK V0202001N006710135019N0112651N1+00901+00301999999ADDGA1021+007801999GA2071+013501999GF107991999999999999999999MA1099591999999OC101441REMMET065METAR EDHK 121020Z 20013G28KT 9999 FEW026 BKN045 09/03 Q0996 BLU;
0158100465999992008011211204+54367+010133FM-15+0031EDHK V0202201N007710150019N0112651N1+00801+00201999999ADDGA1041+009001999GA2071+015001999GF107991999999999999999999MA1099701999999OC101341REMMET065METAR EDHK 121120Z 22015G26KT 9999 SCT030 BKN050 08/02 Q0997 BLU;
0170100465999992008011212204+54367+010133FM-15+0031EDHK V0202101N00721012001CN0112651N1+00801+00201999999ADDGA1021+007501999GA2041+012001999GA3071+033001999GF107991999999999999999999MA1099701999999REMMET069METAR EDHK 121220Z 21014KT 9999 FEW025 SCT040 BKN110 08/02 Q0997 BLU;
0170100465999992008011213204+54367+010133FM-15+0031EDHK V0202101N00721013501CN0112651N1+00701+00201999999ADDGA1041+006901999GA2041+013501999GA3071+033001999GF107991999999999999999999MA1099801999999REMMET069METAR EDHK 121320Z 21014KT 9999 SCT023 SCT045 BKN110 07/02 Q0998 BLU;
0170100465999992008011214204+54367+010133FM-15+0031EDHK V0202001N00771011401CN0112651N1+00701+00301999999ADDGA1041+006001999GA2041+011401999GA3071+033001999GF107991999999999999999999MA1099801999999REMMET069METAR EDHK 121420Z 20015KT 9999 SCT020 SCT038 BKN110 07/03 Q0998 BLU;
0168100465999992008011215204+54367+010133FM-15+0031EDHK V0202201N008710081019N0080001N1+00701+00401999999ADDGA1041+004501999GA2071+008101999GF107991999999999999999999MA1099901999999MW1611OC101591REMMET069METAR EDHK 121520Z 22017G31KT 8000 -RA SCT015 BKN027 07/04 Q0999 BLU;
0165100465999992008011216204+54367+010133FM-15+0031EDHK V0202401N009310084019N0070001N1+00501+00201999999ADDGA1041+004201999GA2071+008401999GF107991999999999999999999MA1100101999999MW1511MW2611REMMET068METAR EDHK 121620Z 24018KT 7000 -RADZ SCT014 BKN028 05/02 Q1001 WHT;
0147100465999992008011217204+54367+010133FM-15+0031EDHK V0202501N008710090019N0080001N1+00601+00201999999ADDGA1021+005401999GA2071+009001999GF107991999999999999999999MA1100201999999REMMET062METAR EDHK 121720Z 25017KT 8000 FEW018 BKN030 06/02 Q1002 BLU;
0147100465999992008011218204+54367+010133FM-15+0031EDHK V0202401N008210090019N0080001N1+00601+00201999999ADDGA1021+005401999GA2071+009001999GF107991999999999999999999MA1100201999999REMMET062METAR EDHK 121820Z 24016KT 8000 FEW018 BKN030 06/02 Q1002 BLU;
0147100465999992008011219204+54367+010133FM-15+0031EDHK V0202401N007710090019N0112651N1+00601+00301999999ADDGA1021+005401999GA2071+009001999GF107991999999999999999999MA1100511999999REMMET062METAR EDHK 121920Z 24015KT 9999 FEW018 BKN030 06/03 Q1005 BLU;
0125100465999992008011220204+54367+010133FM-15+0031EDHK V0202401N006712200019N0112651N1+00601+00301999999ADDGA1041+004801999GF104991999999999999999999MA1100611999999REMMET056METAR EDHK 122020Z 24013KT 9999 SCT016 06/03 Q1006 BLU+;
0124100465999992008011221204+54367+010133FM-15+0031EDHK V0202301N006210066019N0112651N1+00501+00301999999ADDGA1071+006601999GF107991999999999999999999MA1100811999999REMMET055METAR EDHK 122120Z 23012KT 9999 BKN022 05/03 Q1008 WHT;
0124100465999992008011222204+54367+010133FM-15+0031EDHK V0202301N006710042019N0112651N1+00501+00301999999ADDGA1071+004201999GF107991999999999999999999MA1100911999999REMMET055METAR EDHK 122220Z 23013KT 9999 BKN014 05/03 Q1009 GRN;
0124100465999992008011223204+54367+010133FM-15+0031EDHK V0202301N005710033019N0090001N1+00501+00301999999ADDGA1071+003301999GF107991999999999999999999MA1101081999999REMMET055METAR EDHK 122320Z 23011KT 9000 BKN011 05/03 Q1011 GRN;
0124100465999992008011300204+54367+010133FM-15+0031EDHK V0202301N006210030019N0090001N1+00501+00201999999ADDGA1071+003001999GF107991999999999999999999MA1101191999999REMMET055METAR EDHK 130020Z 23012KT 9000 BKN010 05/02 Q1012 GRN;
0148100465999992008011301204+54367+010133FM-15+0031EDHK V0202301N004612200019N0090001N1+00401+00101999999ADDGA1021+003001999GA2041+009901999GF104991999999999999999999MA1101191999999REMMET063METAR EDHK 130120Z 23009KT 9000 FEW010 SCT033 04/01 Q1012 BLU+;
0125100465999992008011302204+54367+010133FM-15+0031EDHK V0202201N004112200019N0090001N1+00301+00101999999ADDGA1041+003001999GF104991999999999999999999MA1101291999999REMMET056METAR EDHK 130220Z 22008KT 9000 SCT010 03/01 Q1013 BLU+;
0124100465999992008011303204+54367+010133FM-15+0031EDHK V0202201N003610027019N0090001N1+00301+00101999999ADDGA1071+002701999GF107991999999999999999999MA1101291999999REMMET055METAR EDHK 130320Z 22007KT 9000 BKN009 03/01 Q1013 GRN;
0148100465999992008011304204+54367+010133FM-15+0031EDHK V0202001N002612200019N0080001N1+00301+00101999999ADDGA1021+002701999GA2041+010501999GF104991999999999999999999MA1101391999999REMMET063METAR EDHK 130420Z 20005KT 8000 FEW009 SCT035 03/01 Q1014 BLU+;
0125100465999992008011305204+54367+010133FM-15+0031EDHK V0201901N003112200019N0080001N1+00201+00001999999ADDGA1021+002701999GF102991999999999999999999MA1101391999999REMMET056METAR EDHK 130520Z 19006KT 8000 FEW009 02/00 Q1014 BLU+;
0125100465999992008011306204+54367+010133FM-15+0031EDHK V0202001N003112200019N0090001N1+00201+00001999999ADDGA1021+002401999GF102991999999999999999999MA1101391999999REMMET056METAR EDHK 130620Z 20006KT 9000 FEW008 02/00 Q1014 BLU+;
0156100465999992008011307204+54367+010133FM-15+0031EDHK V0202001N003112200019N0050001N1+00201+00001999999ADDGA1021+002401999GA2041+066001999GF104991999999999999999999MA1101391999999MW1101REMMET065METAR EDHK 130720Z 20006KT 5000 BR FEW008 SCT220 02/00 Q1014 WHT;
0156100465999992008011308204+54367+010133FM-15+0031EDHK V0201901N003612200019N0050001N1+00201+00101999999ADDGA1021+002401999GA2041+066001999GF104991999999999999999999MA1101391999999MW1101REMMET065METAR EDHK 130820Z 19007KT 5000 BR FEW008 SCT220 02/01 Q1014 WHT;
0147100465999992008011309204+54367+010133FM-15+0031EDHK V0202101N004610660019N0070001N1+00301+00201999999ADDGA1021+036001999GA2071+066001999GF107991999999999999999999MA1101391999999REMMET062METAR EDHK 130920Z 21009KT 7000 FEW120 BKN220 03/02 Q1014 WHT;
0148100465999992008011310204+54367+010133FM-15+0031EDHK V0201801N004612200019N0090001N1+00501+00201999999ADDGA1041+033001999GA2041+066001999GF104991999999999999999999MA1101391999999REMMET063METAR EDHK 131020Z 18009KT 9000 SCT110 SCT220 05/02 Q1014 BLU+;
0148100465999992008011311204+54367+010133FM-15+0031EDHK V0201901N005712200019N0112651N1+00601+00201999999ADDGA1021+033001999GA2041+066001999GF104991999999999999999999MA1101391999999REMMET063METAR EDHK 131120Z 19011KT 9999 FEW110 SCT220 06/02 Q1014 BLU+;
0125100465999992008011312204+54367+010133FM-15+0031EDHK V0201901N004112200019N0112651N1+00701+00201999999ADDGA1021+033001999GF102991999999999999999999MA1101391999999REMMET056METAR EDHK 131220Z 19008KT 9999 FEW110 07/02 Q1014 BLU+;
0147100465999992008011313204+54367+010133FM-15+0031EDHK V0202001N004612200019N0112651N1+00701+00201999999ADDGA1021+006001999GA2041+015001999GF104991999999999999999999MA1101391999999REMMET062METAR EDHK 131320Z 20009KT 9999 FEW020 SCT050 07/02 Q1014 BLU;
0147100465999992008011314204+54367+010133FM-15+0031EDHK V0202001N005110060019N0112651N1+00701+00201999999ADDGA1071+006001999GA2071+015001999GF107991999999999999999999MA1101291999999REMMET062METAR EDHK 131420Z 20010KT 9999 BKN020 BKN050 07/02 Q1013 WHT;
0124100465999992008011315204+54367+010133FM-15+0031EDHK V0201801N004610060019N0112651N1+00701+00201999999ADDGA1071+006001999GF107991999999999999999999MA1101391999999REMMET055METAR EDHK 131520Z 18009KT 9999 BKN020 07/02 Q1014 WHT;
0124100465999992008011316204+54367+010133FM-15+0031EDHK V0201901N003610060019N0112651N1+00601+00201999999ADDGA1071+006001999GF107991999999999999999999MA1101291999999REMMET055METAR EDHK 131620Z 19007KT 9999 BKN020 06/02 Q1013 WHT;
0147100465999992008011317204+54367+010133FM-15+0031EDHK V0201701N003110060019N0112651N1+00601+00101999999ADDGA1071+006001999GA2071+015001999GF107991999999999999999999MA1101391999999REMMET062METAR EDHK 131720Z 17006KT 9999 BKN020 BKN050 06/01 Q1014 WHT;
0147100465999992008011318204+54367+010133FM-15+0031EDHK V0201801N004110060019N0112651N1+00601+00101999999ADDGA1071+006001999GA2071+015001999GF107991999999999999999999MA1101391999999REMMET062METAR EDHK 131820Z 18008KT 9999 BKN020 BKN050 06/01 Q1014 WHT;
0148100465999992008011319204+54367+010133FM-15+0031EDHK V0201701N003612200019N0112651N1+00501+00001999999ADDGA1041+006001999GA2041+015001999GF104991999999999999999999MA1101391999999REMMET063METAR EDHK 131920Z 17007KT 9999 SCT020 SCT050 05/00 Q1014 BLU+;
0147100465999992008011320204+54367+010133FM-15+0031EDHK V0201701N003110114019N0112651N1+00401+00001999999ADDGA1021+006001999GA2071+011401999GF107991999999999999999999MA1101291999999REMMET062METAR EDHK 132020Z 17006KT 9999 FEW020 BKN038 04/00 Q1013 BLU;
0149100465999992008011321204+54367+010133FM-15+0031EDHK V0201601N003612200019N0112651N1+00401+00001999999ADDGA1041+009601999GA2041+060001999GF104991999999999999999999MA1101291999999REMMET064METAR EDHK 132120Z 16007KT 9999 SCT032 SCT200 04/M00 Q1013 BLU+;
0149100465999992008011322204+54367+010133FM-15+0031EDHK V0201601N003612200019N0112651N1+00301-00101999999ADDGA1021+009001999GA2041+063001999GF104991999999999999999999MA1101191999999REMMET064METAR EDHK 132220Z 16007KT 9999 FEW030 SCT210 03/M01 Q1012 BLU+;
0126100465999992008011323204+54367+010133FM-15+0031EDHK V0201701N003612200019N0112651N1+00301-00101999999ADDGA1021+063001999GF102991999999999999999999MA1101081999999REMMET057METAR EDHK 132320Z 17007KT 9999 FEW210 03/M01 Q1011 BLU+;
0126100465999992008011400204+54367+010133FM-15+0031EDHK V0201501N003112200019N0112651N1+00201-00101999999ADDGA1021+063001999GF102991999999999999999999MA1101081999999REMMET057METAR EDHK 140020Z 15006KT 9999 FEW210 02/M01 Q1011 BLU+;
0126100465999992008011401204+54367+010133FM-15+0031EDHK V0201501N003112200019N0112651N1+00101-00201999999ADDGA1021+066001999GF102991999999999999999999MA1101021999999REMMET057METAR EDHK 140120Z 15006KT 9999 FEW220 01/M02 Q1010 BLU+;
0126100465999992008011402204+54367+010133FM-15+0031EDHK V0201401N003612200019N0112651N1+00101-00201999999ADDGA1021+066001999GF102991999999999999999999MA1100911999999REMMET057METAR EDHK 140220Z 14007KT 9999 FEW220 01/M02 Q1009 BLU+;
0126100465999992008011403204+54367+010133FM-15+0031EDHK V0201501N003612200019N0112651N1+00101-00101999999ADDGA1021+063001999GF102991999999999999999999MA1100811999999REMMET057METAR EDHK 140320Z 15007KT 9999 FEW210 01/M01 Q1008 BLU+;
0126100465999992008011404204+54367+010133FM-15+0031EDHK V0201401N003112200019N0112651N1+00101-00101999999ADDGA1021+063001999GF102991999999999999999999MA1100711999999REMMET057METAR EDHK 140420Z 14006KT 9999 FEW210 01/M01 Q1007 BLU+;
0130100465999992008011405204+54367+010133FM-15+0031EDHK V0201401N003612200019N0112651N1+00201-00101999999ADDGA1021+063001999GF102991999999999999999999MA1100611999999REMMET061METAR EDHK 140520Z 14007KT 9999 FEW210 02/M01 Q1006 BLU+BLU+;
0130100465999992008011406204+54367+010133FM-15+0031EDHK V0201501N004112200019N0112651N1+00101-00101999999ADDGA1021+063001999GF102991999999999999999999MA1100611999999REMMET061METAR EDHK 140620Z 15008KT 9999 FEW210 01/M01 Q1006 BLU+BLU+;
0130100465999992008011407204+54367+010133FM-15+0031EDHK V0201601N004112200019N0080001N1+00101-00101999999ADDGA1041+075001999GF104991999999999999999999MA1100511999999REMMET061METAR EDHK 140720Z 16008KT 8000 SCT250 01/M01 Q1005 BLU+BLU+;
0153100465999992008011408204+54367+010133FM-15+0031EDHK V0201701N004110750019N0060001N1+00101-00101999999ADDGA1021+003001999GA2071+075001999GF107991999999999999999999MA1100511999999REMMET068METAR EDHK 140820Z 17008KT 6000 FEW010 BKN250 01/M01 Q1005 WHT BLU+;
0153100465999992008011409204+54367+010133FM-15+0031EDHK V0201801N004110750019N0070001N1+00201-00101999999ADDGA1021+002401999GA2071+075001999GF107991999999999999999999MA1100511999999REMMET068METAR EDHK 140920Z 18008KT 7000 FEW008 BKN250 02/M01 Q1005 WHT BLU+;
0152100465999992008011410204+54367+010133FM-15+0031EDHK V0201701N004110660019N0112651N1+00301+00001999999ADDGA1021+033001999GA2071+066001999GF107991999999999999999999MA1100511999999REMMET067METAR EDHK 141020Z 17008KT 9999 FEW110 BKN220 03/00 Q1005 BLU+BLU+;
0162100465999992008011411204+54367+010133FM-15+0031EDHK V0201901N005110090019N0112651N1+00401+00001999999ADDGA1071+009001999GA2071+066001999GF107991999999999999999999MA1100511999999REMMET077METAR EDHK 141120Z 19010KT 9999 BKN030 BKN220 04/M00 Q1005 BLU BLU TEMPO WHT;
0162100465999992008011412204+54367+010133FM-15+0031EDHK V0201901N004610330019N0112651N1+00401+00001999999ADDGA1041+012001999GA2071+033001999GF107991999999999999999999MA1100411999999REMMET077METAR EDHK 141220Z 19009KT 9999 SCT040 BKN110 04/M00 Q1004 BLU BLU TEMPO WHT;
0161100465999992008011413204+54367+010133FM-15+0031EDHK V0201901N005110330019N0112651N1+00501+00001999999ADDGA1041+012001999GA2071+033001999GF107991999999999999999999MA1100411999999REMMET076METAR EDHK 141320Z 19010KT 9999 SCT040 BKN110 05/00 Q1004 BLU BLU TEMPO WHT;
0161100465999992008011414204+54367+010133FM-15+0031EDHK V0201801N004110150019N0112651N1+00501+00101999999ADDGA1071+015001999GA2071+030001999GF107991999999999999999999MA1100411999999REMMET076METAR EDHK 141420Z 18008KT 9999 BKN050 BKN100 05/01 Q1004 BLU BLU TEMPO WHT;
0161100465999992008011415204+54367+010133FM-15+0031EDHK V0201801N004110540019N0112651N1+00501+00101999999ADDGA1021+015001999GA2071+054001999GF107991999999999999999999MA1100411999999REMMET076METAR EDHK 141520Z 18008KT 9999 FEW050 BKN180 05/01 Q1004 BLU BLU TEMPO WHT;
0161100465999992008011416204+54367+010133FM-15+0031EDHK V0201701N003610810019N0090001N1+00501+00101999999ADDGA1021+015001999GA2071+081001999GF107991999999999999999999MA1100411999999REMMET076METAR EDHK 141620Z 17007KT 9000 FEW050 BKN270 05/01 Q1004 BLU+BLU+TEMPO WHT;
0161100465999992008011417204+54367+010133FM-15+0031EDHK V0201701N004112200019N0090001N1+00401+00101999999ADDGA1021+015001999GA2041+069001999GF104991999999999999999999MA1100411999999REMMET076METAR EDHK 141720Z 17008KT 9000 FEW050 SCT230 04/01 Q1004 BLU+BLU+TEMPO WHT;
0161100465999992008011418204+54367+010133FM-15+0031EDHK V0201701N004612200019N0112651N1+00401+00101999999ADDGA1021+015001999GA2041+069001999GF104991999999999999999999MA1100411999999REMMET076METAR EDHK 141820Z 17009KT 9999 FEW050 SCT230 04/01 Q1004 BLU+BLU+TEMPO WHT;
0136100465999992008011419204+54367+010133FM-15+0031EDHK V0201801N005112200019N0112651N1+00501+00101999999ADDGA1041+069001999GF104991999999999999999999MA1100411999999REMMET067METAR EDHK 141920Z 18010KT 9999 SCT230 05/01 Q1004 BLU+FCST CANCEL;
0148100465999992008011420204+54367+010133FM-15+0031EDHK V0201801N004610690019N0112651N1+00501+00101999999ADDGA1041+009001999GA2071+069001999GF107991999999999999999999MA1100311999999REMMET063METAR EDHK 142020Z 18009KT 9999 SCT030 BKN230 05/01 Q1003 BLU+;
0148100465999992008011421204+54367+010133FM-15+0031EDHK V0201801N004610690019N0112651N1+00501+00101999999ADDGA1041+009001999GA2071+069001999GF107991999999999999999999MA1100311999999REMMET063METAR EDHK 142120Z 18009KT 9999 SCT030 BKN230 05/01 Q1003 BLU+;
0124100465999992008011422204+54367+010133FM-15+0031EDHK V0201801N003610150019N0112651N1+00501+00201999999ADDGA1071+015001999GF107991999999999999999999MA1100311999999REMMET055METAR EDHK 142220Z 18007KT 9999 BKN050 05/02 Q1003 BLU;
0124100465999992008011423204+54367+010133FM-15+0031EDHK V0201801N004610150019N0112651N1+00601+00201999999ADDGA1071+015001999GF107991999999999999999999MA1100311999999REMMET055METAR EDHK 142320Z 18009KT 9999 BKN050 06/02 Q1003 BLU;
0124100465999992008011500204+54367+010133FM-15+0031EDHK V0201801N004110150019N0112651N1+00601+00201999999ADDGA1071+015001999GF107991999999999999999999MA1100311999999REMMET055METAR EDHK 150020Z 18008KT 9999 BKN050 06/02 Q1003 BLU;
0124100465999992008011501204+54367+010133FM-15+0031EDHK V0201801N004110150019N0112651N1+00701+00201999999ADDGA1071+015001999GF107991999999999999999999MA1100201999999REMMET055METAR EDHK 150120Z 18008KT 9999 BKN050 07/02 Q1002 BLU;
0124100465999992008011502204+54367+010133FM-15+0031EDHK V0201901N005110120019N0112651N1+00701+00301999999ADDGA1071+012001999GF107991999999999999999999MA1100201999999REMMET055METAR EDHK 150220Z 19010KT 9999 BKN040 07/03 Q1002 BLU;
0124100465999992008011503204+54367+010133FM-15+0031EDHK V0201901N005110120019N0112651N1+00701+00301999999ADDGA1071+012001999GF107991999999999999999999MA1100201999999REMMET055METAR EDHK 150320Z 19010KT 9999 BKN040 07/03 Q1002 BLU;
0151100465999992008011504204+54367+010133FM-15+0031EDHK V0201901N006210120019N0112651N1+00701+00301999999ADDGA1071+012001999GA2071+027001999GF107991999999999999999999MA1100101999999REMMET066METAR EDHK 150420Z 19012KT 9999 BKN040 BKN090 07/03 Q1001 BLU BLU;
0161100465999992008011505204+54367+010133FM-15+0031EDHK V0201801N005110120019N0112651N1+00701+00301999999ADDGA1041+006001999GA2071+012001999GF107991999999999999999999MA1100101999999REMMET076METAR EDHK 150520Z 18010KT 9999 SCT020 BKN040 07/03 Q1001 BLU BLU TEMPO WHT;
0161100465999992008011506204+54367+010133FM-15+0031EDHK V0201901N005712200019N0112651N1+00701+00301999999ADDGA1021+012001999GA2041+027001999GF104991999999999999999999MA1100001999999REMMET076METAR EDHK 150620Z 19011KT 9999 FEW040 SCT090 07/03 Q1000 BLU+BLU TEMPO WHT;
0154100465999992008011507204+54367+010133FM-15+0031EDHK V0201901N00621220001CN0112651N1+00701+00301999999ADDGA1071+010501999GA2041+021001999MA1100001999999REMMET076METAR EDHK 150720Z 19012KT 9999 BKN035 SCT070 07/03 Q1000 BLU BLU TEMPO WHT;EQDQ01+000042SCOTCV
0171100465999992008011508204+54367+010133FM-15+0031EDHK V0201901N006210300019N0112651N1+00701+00401999999ADDGA1041+011401999GA2071+030001999GF107991999999999999999999MA1100001999999MW1611REMMET080METAR EDHK 150820Z 19012KT 9999 -RA SCT038 BKN100 07/04 Q1000 BLU BLU TEMPO GRN;
0171100465999992008011509204+54367+010133FM-15+0031EDHK V0201801N005710270019N0112651N1+00801+00401999999ADDGA1041+011401999GA2071+027001999GF107991999999999999999999MA1099901999999MW1611REMMET080METAR EDHK 150920Z 18011KT 9999 -RA SCT038 BKN090 08/04 Q0999 BLU BLU TEMPO GRN;
0195100465999992008011510204+54367+010133FM-15+0031EDHK V0201801N00621027001CN0112651N1+00901+00401999999ADDGA1021+006001999GA2041+027001999GA3071+054001999GF107991999999999999999999MA1099901999999OC101131REMMET086METAR EDHK 151020Z 18012G22KT 9999 FEW020 SCT090 BKN180 09/04 Q0999 BLU BLU TEMPO GRN;
0161100465999992008011511204+54367+010133FM-15+0031EDHK V0201801N005710540019N0112651N1+00801+00401999999ADDGA1041+007501999GA2071+054001999GF107991999999999999999999MA1099801999999REMMET076METAR EDHK 151120Z 18011KT 9999 SCT025 BKN180 08/04 Q0998 BLU BLU TEMPO GRN;
0184100465999992008011512204+54367+010133FM-15+0031EDHK V0201901N005710300019N0112651N1+00901+00301999999ADDGA1041+007501999GA2071+030001999GA3071+060001999GF107991999999999999999999MA1099701999999REMMET083METAR EDHK 151220Z 19011KT 9999 SCT025 BKN100 BKN200 09/03 Q0997 BLU BLU TEMPO WHT;
0161100465999992008011513204+54367+010133FM-15+0031EDHK V0201801N006210075019N0112651N1+00901+00301999999ADDGA1071+007501999GA2071+027001999GF107991999999999999999999MA1099591999999REMMET076METAR EDHK 151320Z 18012KT 9999 BKN025 BKN090 09/03 Q0996 BLU BLU TEMPO WHT;
0161100465999992008011514204+54367+010133FM-15+0031EDHK V0201801N006210075019N0112651N1+00901+00301999999ADDGA1071+007501999GA2071+024001999GF107991999999999999999999MA1099491999999REMMET076METAR EDHK 151420Z 18012KT 9999 BKN025 BKN080 09/03 Q0995 BLU BLU TEMPO WHT;
0161100465999992008011515204+54367+010133FM-15+0031EDHK V0201601N006210075019N0112651N1+00901+00301999999ADDGA1071+007501999GA2081+024001999GF108991999999999999999999MA1099391999999REMMET076METAR EDHK 151520Z 16012KT 9999 BKN025 OVC080 09/03 Q0994 BLU BLU TEMPO WHT;
0159100465999992008011516204+54367+010133FM-15+0031EDHK V0201701N006210075019N0112651N1+00801+00301999999ADDGA1071+007501999GF107991999999999999999999MA1099291999999MW1611OC101131REMMET076METAR EDHK 151620Z 17012G22KT 9999 -RA BKN025 08/03 Q0993 BLU BLU TEMPO WHT;
0148100465999992008011517204+54367+010133FM-15+0031EDHK V0201601N006210075019N0080001N1+00701+00401999999ADDGA1071+007501999GF107991999999999999999999MA1099191999999MW1611REMMET073METAR EDHK 151720Z 16012KT 8000 -RA BKN025 07/04 Q0992 BLU BLU TEMPO WHT;
0148100465999992008011518204+54367+010133FM-15+0031EDHK V0201701N006210090019N0080001N1+00701+00401999999ADDGA1071+009001999GF107991999999999999999999MA1098981999999MW1611REMMET073METAR EDHK 151820Z 17012KT 8000 -RA BKN030 07/04 Q0990 BLU BLU TEMPO WHT;
0157100465999992008011519204+54367+010133FM-15+0031EDHK V0201801N006710075019N0112651N1+00701+00401999999ADDGA1071+007501999GF107991999999999999999999MA1098921999999MW1611OC101231REMMET074METAR EDHK 151920Z 18013G24KT 9999 -RA BKN025 07/04 Q0989 BLU FCST CANCEL;
0124100465999992008011520204+54367+010133FM-15+0031EDHK V0201801N007210081019N0090001N1+00801+00401999999ADDGA1071+008101999GF107991999999999999999999MA1098921999999REMMET055METAR EDHK 152020Z 18014KT 9000 BKN027 08/04 Q0989 BLU;
0135100465999992008011521204+54367+010133FM-15+0031EDHK V0201801N006210078019N0112651N1+00801+00401999999ADDGA1071+007801999GF107991999999999999999999MA1098821999999OC101291REMMET058METAR EDHK 152120Z 18012G25KT 9999 BKN026 08/04 Q0988 BLU;
0135100465999992008011522204+54367+010133FM-15+0031EDHK V0201701N005110090019N0112651N1+00801+00301999999ADDGA1071+009001999GF107991999999999999999999MA1098821999999OC101031REMMET058METAR EDHK 152220Z 17010G20KT 9999 BKN030 08/03 Q0988 BLU;
0134100465999992008011523204+54367+010133FM-15+0031EDHK V0201801N004610093019N0090001N1+00801+00401999999ADDGA1071+009301999GF107991999999999999999999MA1098821999999MW1611REMMET059METAR EDHK 152320Z 18009KT 9000 -RA BKN031 08/04 Q0988 BLU;
0134100465999992008011600204+54367+010133FM-15+0031EDHK V0201901N006210075019N0112651N1+00901+00401999999ADDGA1071+007501999GF107991999999999999999999MA1098711999999MW1611REMMET059METAR EDHK 160020Z 19012KT 9999 -RA BKN025 09/04 Q0987 BLU;
0145100465999992008011601204+54367+010133FM-15+0031EDHK V0201801N006710075019N0090001N1+00801+00401999999ADDGA1071+007501999GF107991999999999999999999MA1098711999999MW1611OC101181REMMET062METAR EDHK 160120Z 18013G23KT 9000 -RA BKN025 08/04 Q0987 BLU;
0135100465999992008011602204+54367+010133FM-15+0031EDHK V0201801N006210081019N0090001N1+00901+00401999999ADDGA1071+008101999GF107991999999999999999999MA1098611999999OC101341REMMET058METAR EDHK 160220Z 18012G26KT 9000 BKN027 09/04 Q0986 BLU;
0135100465999992008011603204+54367+010133FM-15+0031EDHK V0201801N006210081019N0112651N1+00901+00401999999ADDGA1071+008101999GF107991999999999999999999MA1098611999999OC101131REMMET058METAR EDHK 160320Z 18012G22KT 9999 BKN027 09/04 Q0986 BLU;
