0175100465999992014010207204+54380+010145FM-15+003199999V0201701N005110088419N009999199+00501+00301999999ADDGA1071+008841991GA2081+011581991GE19MSL   +99999+99999GF199999071990008841991991MA1099901999990MW1611REMMET062METAR EDHK 020720Z 17010KT 9999 -RA BKN029 OVC038 05/03 Q0999=
0152100465999992014010207504+54380+010145FM-15+003199999V0201601N005110088419N009999199+00501+00301999999ADDGA1081+008841991GE19MSL   +99999+99999GF199999081990008841991991MA1099901999990MW1611REMMET055METAR EDHK 020750Z 16010KT 9999 -RA OVC029 05/03 Q0999=
0152100465999992014010208204+54380+010145FM-15+003199999V0201701N005710094519N009999199+00501+00301999999ADDGA1081+009451991GE19MSL   +99999+99999GF199999081990009451991991MA1099901999990MW1611REMMET055METAR EDHK 020820Z 17011KT 9999 -RA OVC031 05/03 Q0999=
0175100465999992014010208504+54380+010145FM-15+003199999V0201701N005110097519N009999199+00501+00401999999ADDGA1071+009751991GA2081+015541991GE19MSL   +99999+99999GF199999071990009751991991MA1099901999990MW1611REMMET062METAR EDHK 020850Z 17010KT 9999 -RA BKN032 OVC051 05/04 Q0999=
0211100465999992014010209204+54380+010145FM-15+003199999V0201701V006210137219N009999199+00501+00401999999ADDGA1021+003051991GA2071+013721991GA3071+019511991GE19MSL   +99999+99999GF199999021990003051991991MA1099901999990MW1611REMMET082METAR EDHK 020920Z 17012KT 140V200 9999 -RA FEW010 BKN045 BKN064 05/04      Q0999=
0207100465999992014010209504+54380+010145FM-15+003199999V0201701N005710073219N005000199+00501+00401999999ADDGA1021+002741991GA2071+007321991GA3081+009141991GE19MSL   +99999+99999GF199999021990002741991991MA1099901999990MW1101MW2611REMMET072METAR EDHK 020950Z 17011KT 5000 -RA BR FEW009 BKN024 OVC030 05/04 Q0999=
0184100465999992014010210204+54380+010145FM-15+003199999V0201701N005710082319N005000199+00501+00401999999ADDGA1041+002131991GA2081+008231991GE19MSL   +99999+99999GF199999041990002131991991MA1099901999990MW1101MW2611REMMET065METAR EDHK 021020Z 17011KT 5000 -RA BR SCT007 OVC027 05/04 Q0999=
0175100465999992014010210504+54380+010145FM-15+003199999V0201701N004610018319N007000199+00601+00501999999ADDGA1071+001831991GA2081+007921991GE19MSL   +99999+99999GF199999071990001831991991MA1099901999990MW1611REMMET062METAR EDHK 021050Z 17009KT 7000 -RA BKN006 OVC026 06/05 Q0999=
0201100465999992014010211204+54380+010145FM-15+003199999V0201701V00461010361CN008000199+00601+00401999999ADDGA1021+002131991GA2041+010361991GA3081+013111991GE19MSL   +99999+99999GF199999021990002131991991MA1099801999990REMMET078METAR EDHK 021120Z 17009KT 150V220 8000 FEW007 SCT034 OVC043 06/04      Q0998=
0165100465999992014010211504+54380+010145FM-15+003199999V0201701N005110082319N007000199+00601+00401999999ADDGA1021+002131991GA2081+008231991GE19MSL   +99999+99999GF199999021990002131991991MA1099801999990REMMET058METAR EDHK 021150Z 17010KT 7000 FEW007 OVC027 06/04 Q0998=
0175100465999992014010212204+54380+010145FM-15+003199999V0201601N005110137219N009000199+00601+00501999999ADDGA1021+002441991GA2081+013721991GE19MSL   +99999+99999GF199999021990002441991991MA1099801999990MW1511REMMET062METAR EDHK 021220Z 16010KT 9000 -DZ FEW008 OVC045 06/05 Q0998=
0201100465999992014010212504+54380+010145FM-15+003199999V0201701V00411013721CN009999199+00601+00501999999ADDGA1021+002441991GA2041+013721991GA3081+024991991GE19MSL   +99999+99999GF199999021990002441991991MA1099801999990REMMET078METAR EDHK 021250Z 17008KT 130V190 9999 FEW008 SCT045 OVC082 06/05      Q0998=
0165100465999992014010213204+54380+010145FM-15+003199999V0201601N004110231619N009999199+00601+00501999999ADDGA1021+002441991GA2071+023161991GE19MSL   +99999+99999GF199999021990002441991991MA1099801999990REMMET058METAR EDHK 021320Z 16008KT 9999 FEW008 BKN076 06/05 Q0998=
0165100465999992014010213504+54380+010145FM-15+003199999V0201601N004110164619N009999199+00601+00501999999ADDGA1021+002441991GA2081+016461991GE19MSL   +99999+99999GF199999021990002441991991MA1099801999990REMMET058METAR EDHK 021350Z 16008KT 9999 FEW008 OVC054 06/05 Q0998=
0173100465999992014010214204+54380+010145FM-15+003199999V0201601V004110182919N009999199+00601+00501999999ADDGA1021+002741991GA2081+018291991GE19MSL   +99999+99999GF199999021990002741991991MA1099801999990REMMET066METAR EDHK 021420Z 16008KT 130V190 9999 FEW009 OVC060 06/05 Q0998=
0165100465999992014010214504+54380+010145FM-15+003199999V0201701N004110189019N009999199+00601+00501999999ADDGA1021+012501991GA2081+018901991GE19MSL   +99999+99999GF199999021990012501991991MA1099801999990REMMET058METAR EDHK 021450Z 17008KT 9999 FEW041 OVC062 06/05 Q0998=
0072100465999992014010307204+54380+010145FM-15+003199999V0201701N004119999999Y999999999+00501+00301999999ADDMA1100301999990REMMET045METAR EDHK 030720Z 17008KT CAVOK 05/03 Q1003=
0072100465999992014010307504+54380+010145FM-15+003199999V0201701N005719999999Y999999999+00501+00301999999ADDMA1100301999990REMMET045METAR EDHK 030750Z 17011KT CAVOK 05/03 Q1003=
0072100465999992014010308204+54380+010145FM-15+003199999V0201701N005719999999Y999999999+00501+00301999999ADDMA1100301999990REMMET045METAR EDHK 030820Z 17011KT CAVOK 05/03 Q1003=
0072100465999992014010308504+54380+010145FM-15+003199999V0201701N005719999999Y999999999+00501+00301999999ADDMA1100301999990REMMET045METAR EDHK 030850Z 17011KT CAVOK 05/03 Q1003=
0080100465999992014010309204+54380+010145FM-15+003199999V0201601V004619999999Y999999999+00501+00301999999ADDMA1100201999990REMMET053METAR EDHK 030920Z 16009KT 130V190 CAVOK 05/03 Q1002=
0072100465999992014010309504+54380+010145FM-15+003199999V0201701N005719999999Y999999999+00601+00301999999ADDMA1100201999990REMMET045METAR EDHK 030950Z 17011KT CAVOK 06/03 Q1002=
0072100465999992014010310204+54380+010145FM-15+003199999V0201701N005719999999Y999999999+00601+00301999999ADDMA1100201999990REMMET045METAR EDHK 031020Z 17011KT CAVOK 06/03 Q1002=
0072100465999992014010310504+54380+010145FM-15+003199999V0201701N005119999999Y999999999+00601+00401999999ADDMA1100101999990REMMET045METAR EDHK 031050Z 17010KT CAVOK 06/04 Q1001=
0111100465999992014010311204+54380+010145FM-15+003199999V0201701N005112200019N009999199+00601+00401999999ADDGF100991999999999999999999MA1100101999990MW1611REMMET052METAR EDHK 031120Z 17010KT 9999 -RA NSC 06/04 Q1001=
0152100465999992014010311504+54380+010145FM-15+003199999V0201701N005110085319N009999199+00601+00401999999ADDGA1081+008531991GE19MSL   +99999+99999GF199999081990008531991991MA1100101999990MW1611REMMET055METAR EDHK 031150Z 17010KT 9999 -RA OVC028 06/04 Q1001=
0183100465999992014010312204+54380+010145FM-15+003199999V0201701V005110048819N007000199+00601+00501999999ADDGA1041+002131991GA2081+004881991GE19MSL   +99999+99999GF199999041990002131991991MA1100001999990MW1611REMMET070METAR EDHK 031220Z 17010KT 150V210 7000 -RA SCT007 OVC016 06/05 Q1000=
0160100465999992014010312504+54380+010145FM-15+003199999V0201801V005710018319N009000199+00601+00601999999ADDGA1081+001831991GE19MSL   +99999+99999GF199999081990001831991991MA1100001999990MW1611REMMET063METAR EDHK 031250Z 18011KT 140V200 9000 -RA OVC006 06/06 Q1000=
0160100465999992014010313204+54380+010145FM-15+003199999V0201801V005110015219N008000199+00701+00601999999ADDGA1081+001521991GE19MSL   +99999+99999GF199999081990001521991991MA1100001999990MW1511REMMET063METAR EDHK 031320Z 18010KT 150V210 8000 -DZ OVC005 07/06 Q1000=
0175100465999992014010313504+54380+010145FM-15+003199999V0201901N005710018319N007000199+00701+00601999999ADDGA1071+001831991GA2081+003961991GE19MSL   +99999+99999GF199999071990001831991991MA1100001999990MW1511REMMET062METAR EDHK 031350Z 19011KT 7000 -DZ BKN006 OVC013 07/06 Q1000=
0152100465999992014010314204+54380+010145FM-15+003199999V0201901N005710018319N008000199+00701+00601999999ADDGA1081+001831991GE19MSL   +99999+99999GF199999081990001831991991MA1100001999990MW1511REMMET055METAR EDHK 031420Z 19011KT 8000 -DZ OVC006 07/06 Q1000=
0165100465999992014010314504+54380+010145FM-15+003199999V0201901N004610021319N009999199+00801+00701999999ADDGA1071+002131991GA2081+003661991GE19MSL   +99999+99999GF199999071990002131991991MA1100001999990REMMET058METAR EDHK 031450Z 19009KT 9999 BKN007 OVC012 08/07 Q1000=
0173100465999992014010315204+54380+010145FM-15+003199999V0201901V005110024419N009999199+00801+00701999999ADDGA1071+002441991GA2081+004571991GE19MSL   +99999+99999GF199999071990002441991991MA1100001999990REMMET066METAR EDHK 031520Z 19010KT 170V230 9999 BKN008 OVC015 08/07 Q1000=
0072100465999992014010407204+54380+010145FM-15+003199999V0202101N005719999999Y999999999+00601+00201999999ADDMA1100501999990REMMET045METAR EDHK 040720Z 21011KT CAVOK 06/02 Q1005=
0072100465999992014010407504+54380+010145FM-15+003199999V0202101N006219999999Y999999999+00501+00201999999ADDMA1100501999990REMMET045METAR EDHK 040750Z 21012KT CAVOK 05/02 Q1005=
0072100465999992014010408204+54380+010145FM-15+003199999V0202101N005119999999Y999999999+00501+00301999999ADDMA1100501999990REMMET045METAR EDHK 040820Z 21010KT CAVOK 05/03 Q1005=
0142100465999992014010408504+54380+010145FM-15+003199999V0202101N006219999999N009999199+00601+00301999999ADDGA1021+011891991GE19MSL   +99999+99999GF199999021990011891991991MA1100501999990REMMET051METAR EDHK 040850Z 21012KT 9999 FEW039 06/03 Q1005=
0072100465999992014010409204+54380+010145FM-15+003199999V0202101N005719999999Y999999999+00601+00301999999ADDMA1100501999990REMMET045METAR EDHK 040920Z 21011KT CAVOK 06/03 Q1005=
0080100465999992014010409504+54380+010145FM-15+003199999V0202101V005719999999Y999999999+00701+00301999999ADDMA1100501999990REMMET053METAR EDHK 040950Z 21011KT 190V250 CAVOK 07/03 Q1005=
0072100465999992014010410204+54380+010145FM-15+003199999V0202101N005719999999Y999999999+00701+00301999999ADDMA1100501999990REMMET045METAR EDHK 041020Z 21011KT CAVOK 07/03 Q1005=
0072100465999992014010410504+54380+010145FM-15+003199999V0202001N005719999999Y999999999+00701+00301999999ADDMA1100501999990REMMET045METAR EDHK 041050Z 20011KT CAVOK 07/03 Q1005=
0080100465999992014010411204+54380+010145FM-15+003199999V0202001V004119999999Y999999999+00801+00301999999ADDMA1100501999990REMMET053METAR EDHK 041120Z 20008KT 170V230 CAVOK 08/03 Q1005=
0072100465999992014010411504+54380+010145FM-15+003199999V0201901N005119999999Y999999999+00801+00301999999ADDMA1100501999990REMMET045METAR EDHK 041150Z 19010KT CAVOK 08/03 Q1005=
0142100465999992014010412204+54380+010145FM-15+003199999V0201901N004619999999N009999199+00701+00301999999ADDGA1021+014021991GE19MSL   +99999+99999GF199999021990014021991991MA1100401999990REMMET051METAR EDHK 041220Z 19009KT 9999 FEW046 07/03 Q1004=
0072100465999992014010412504+54380+010145FM-15+003199999V0201701N003619999999Y999999999+00701+00301999999ADDMA1100401999990REMMET045METAR EDHK 041250Z 17007KT CAVOK 07/03 Q1004=
0080100465999992014010413204+54380+010145FM-15+003199999V0201601V003619999999Y999999999+00701+00301999999ADDMA1100401999990REMMET053METAR EDHK 041320Z 16007KT 130V190 CAVOK 07/03 Q1004=
0072100465999992014010413504+54380+010145FM-15+003199999V0201601N004619999999Y999999999+00601+00301999999ADDMA1100401999990REMMET045METAR EDHK 041350Z 16009KT CAVOK 06/03 Q1004=
0072100465999992014010414204+54380+010145FM-15+003199999V0201601N004119999999Y999999999+00601+00301999999ADDMA1100301999990REMMET045METAR EDHK 041420Z 16008KT CAVOK 06/03 Q1003=
0072100465999992014010414504+54380+010145FM-15+003199999V0201501N004619999999Y999999999+00601+00201999999ADDMA1100301999990REMMET045METAR EDHK 041450Z 15009KT CAVOK 06/02 Q1003=
0072100465999992014010415204+54380+010145FM-15+003199999V0201601N004119999999Y999999999+00601+00301999999ADDMA1100301999990REMMET045METAR EDHK 041520Z 16008KT CAVOK 06/03 Q1003=
0165100465999992014010507204+54380+010145FM-15+003199999V0202101N003610039619N009999199+00401+00201999999ADDGA1071+003961991GA2081+015241991GE19MSL   +99999+99999GF199999071990003961991991MA1099801999990REMMET058METAR EDHK 050720Z 21007KT 9999 BKN013 OVC050 04/02 Q0998=
0142100465999992014010507504+54380+010145FM-15+003199999V0202301N003110030519N009999199+00401+00201999999ADDGA1081+003051991GE19MSL   +99999+99999GF199999081990003051991991MA1099801999990REMMET051METAR EDHK 050750Z 23006KT 9999 OVC010 04/02 Q0998=
0207100465999992014010508204+54380+010145FM-15+003199999V0202501N00621002741CN009999199+00501+00301999999ADDGA1021+002131991GA2041+002741991GA3081+006401991GE19MSL   +99999+99999GF199999021990002131991991MA1099901999990MW1611REMMET078METAR COR EDHK 050820Z 25012KT 9999 -RA FEW007 SCT009 OVC021 05/03      Q0999=
0175100465999992014010508504+54380+010145FM-15+003199999V0202401N004610018319N008000199+00501+00401999999ADDGA1071+001831991GA2081+010971991GE19MSL   +99999+99999GF199999071990001831991991MA1099901999990MW1611REMMET062METAR EDHK 050850Z 24009KT 8000 -RA BKN006 OVC036 05/04 Q0999=
0170100465999992014010509204+54380+010145FM-15+003199999V0202401N003610012219N009000199+00501+00401999999ADDGA1071+001221991GA2081+013721991GE19MSL   +99999+99999GF199999071990001221991991MA1100001999990REMMET063METAR EDHK 050920Z 24007KT 9000 BKN004 OVC045 05/04 Q1000 RERA=
0188100465999992014010509504+54380+010145FM-15+003199999V0202401N003610012219N009000199+00501+00501999999ADDGA1071+001221991GA2071+014021991GA3081+021951991GE19MSL   +99999+99999GF199999071990001221991991MA1100001999990REMMET065METAR EDHK 050950Z 24007KT 9000 BKN004 BKN046 OVC072 05/05 Q1000=
0165100465999992014010510204+54380+010145FM-15+003199999V0202501N004110012219N009999199+00601+00501999999ADDGA1071+001221991GA2081+007011991GE19MSL   +99999+99999GF199999071990001221991991MA1100101999990REMMET058METAR EDHK 051020Z 25008KT 9999 BKN004 OVC023 06/05 Q1001=
0165100465999992014010510504+54380+010145FM-15+003199999V0202601N005710061019N009999199+00601+00501999999ADDGA1041+001831991GA2081+006101991GE19MSL   +99999+99999GF199999041990001831991991MA1100101999990REMMET058METAR EDHK 051050Z 26011KT 9999 SCT006 OVC020 06/05 Q1001=
0165100465999992014010511204+54380+010145FM-15+003199999V0202601N005110365819N009999199+00701+00501999999ADDGA1021+002441991GA2081+036581991GE19MSL   +99999+99999GF199999021990002441991991MA1100101999990REMMET058METAR EDHK 051120Z 26010KT 9999 FEW008 OVC120 07/05 Q1001=
0165100465999992014010511504+54380+010145FM-15+003199999V0202501N004110131119N009999199+00701+00501999999ADDGA1041+003661991GA2071+013111991GE19MSL   +99999+99999GF199999041990003661991991MA1100201999990REMMET058METAR EDHK 051150Z 25008KT 9999 SCT012 BKN043 07/05 Q1002=
0188100465999992014010512204+54380+010145FM-15+003199999V0202501N005710064019N009999199+00701+00501999999ADDGA1041+003351991GA2071+006401991GA3081+007921991GE19MSL   +99999+99999GF199999041990003351991991MA1100201999990REMMET065METAR EDHK 051220Z 25011KT 9999 SCT011 BKN021 OVC026 07/05 Q1002=
0165100465999992014010512504+54380+010145FM-15+003199999V0202501N004610033519N009999199+00701+00501999999ADDGA1071+003351991GA2081+005181991GE19MSL   +99999+99999GF199999071990003351991991MA1100301999990REMMET058METAR EDHK 051250Z 25009KT 9999 BKN011 OVC017 07/05 Q1003=
0165100465999992014010513204+54380+010145FM-15+003199999V0202501N006210045719N009999199+00701+00401999999ADDGA1041+003351991GA2071+004571991GE19MSL   +99999+99999GF199999041990003351991991MA1100301999990REMMET058METAR EDHK 051320Z 25012KT 9999 SCT011 BKN015 07/04 Q1003=
0169100465999992014010513504+54380+010145FM-15+003199999V0202401N006210067119N009999199+00601+00401999999ADDGA1021+003961991GA2071+006711991GE19MSL   +99999+99999GF199999021990003961991991MA1100401999990REMMET062METAR COR EDHK 051350Z 24012KT 9999 FEW013 BKN022 06/04 Q1004=
0142100465999992014010514204+54380+010145FM-15+003199999V0202501N005710039619N009999199+00601+00401999999ADDGA1071+003961991GE19MSL   +99999+99999GF199999071990003961991991MA1100401999990REMMET051METAR EDHK 051420Z 25011KT 9999 BKN013 06/04 Q1004=
0142100465999992014010514504+54380+010145FM-15+003199999V0202501N005119999999N009999199+00601+00301999999ADDGA1041+004271991GE19MSL   +99999+99999GF199999041990004271991991MA1100501999990REMMET051METAR EDHK 051450Z 25010KT 9999 SCT014 06/03 Q1005=
0142100465999992014010515204+54380+010145FM-15+003199999V0202401N004619999999N009999199+00501+00301999999ADDGA1021+003961991GE19MSL   +99999+99999GF199999021990003961991991MA1100501999990REMMET051METAR EDHK 051520Z 24009KT 9999 FEW013 05/03 Q1005=
0198100465999992014010605504+54380+010145FM-15+003199999V0201701N005710167619N009999199+00301+00101999999ADDGA1041+009751991GA2071+016761991GA3081+019511991GE19MSL   +99999+99999GF199999041990009751991991MA1100201999990MW1611REMMET069METAR EDHK 060550Z 17011KT 9999 -RA SCT032 BKN055 OVC064 03/01 Q1002=
0152100465999992014010606204+54380+010145FM-15+003199999V0201801N005710064019N008000199+00301+00101999999ADDGA1081+006401991GE19MSL   +99999+99999GF199999081990006401991991MA1100201999990MW1611REMMET055METAR EDHK 060620Z 18011KT 8000 -RA OVC021 03/01 Q1002=
0207100465999992014010606504+54380+010145FM-15+003199999V0201701N005710024419N005000199+00301+00201999999ADDGA1021+001831991GA2071+002441991GA3081+008531991GE19MSL   +99999+99999GF199999021990001831991991MA1100201999990MW1101MW2611REMMET072METAR EDHK 060650Z 17011KT 5000 -RA BR FEW006 BKN008 OVC028 03/02 Q1002=
0174100465999992014010607204+54380+010145FM-15+003199999V0201801N005710015219N004000199+00301+00201999999ADDGA1071+001521991GA2081+003661991GE19MSL   +99999+99999GF199999071990001521991991MA1100201999990MW1631REMMET061METAR EDHK 060720Z 18011KT 4000 RA BKN005 OVC012 03/02 Q1002=
0214100465999992014010607504+54380+010145FM-15+003199999V0201801N006710033519N005000199+00401+00301999999ADDGA1041+001221991GA2071+003351991GA3081+005791991GE19MSL   +99999+99999GF199999041990001221991991MA1100201999990MW1101MW2581REMMET079METAR EDHK 060750Z 18013KT 5000 -RADZ BR SCT004 BKN011 OVC019 04/03      Q1002=
0175100465999992014010608204+54380+010145FM-15+003199999V0201801N006210015219N006000199+00401+00301999999ADDGA1071+001521991GA2081+003351991GE19MSL   +99999+99999GF199999071990001521991991MA1100201999990MW1511REMMET062METAR EDHK 060820Z 18012KT 6000 -DZ BKN005 OVC011 04/03 Q1002=
0150100465999992014010608504+54380+010145FM-15+003199999V0201801V006210021319N008000199+00401+00301999999ADDGA1071+002131991GE19MSL   +99999+99999GF199999071990002131991991MA1100201999990REMMET059METAR EDHK 060850Z 18012KT 150V210 8000 BKN007 04/03 Q1002=
0171100465999992014010609204+54380+010145FM-15+003199999V0201901V006210015219N004000199+00501+00401999999ADDGA1081+001521991GE19MSL   +99999+99999GF199999081990001521991991MA1100201999990MW1101MW2581REMMET068METAR EDHK 060920Z 19012KT 160V220 4000 -RADZ BR OVC005 05/04 Q1002=
0174100465999992014010609504+54380+010145FM-15+003199999V0201901N006210012219N004500199+00501+00401999999ADDGA1071+001221991GA2081+004881991GE19MSL   +99999+99999GF199999071990001221991991MA1100201999990MW1631REMMET061METAR EDHK 060950Z 19012KT 4500 RA BKN004 OVC016 05/04 Q1002=
0175100465999992014010610204+54380+010145FM-15+003199999V0201901N005710012219N007000199+00601+00501999999ADDGA1071+001221991GA2081+003661991GE19MSL   +99999+99999GF199999071990001221991991MA1100201999990MW1611REMMET062METAR EDHK 061020Z 19011KT 7000 -RA BKN004 OVC012 06/05 Q1002=
0174100465999992014010610504+54380+010145FM-15+003199999V0201901N006210015219N006000199+00601+00601999999ADDGA1071+001521991GA2081+003961991GE19MSL   +99999+99999GF199999071990001521991991MA1100201999990MW1531REMMET061METAR EDHK 061050Z 19012KT 6000 DZ BKN005 OVC013 06/06 Q1002=
0142100465999992014010611204+54380+010145FM-15+003199999V0202001N005110021319N009999199+00701+00601999999ADDGA1071+002131991GE19MSL   +99999+99999GF199999071990002131991991MA1100101999990REMMET051METAR EDHK 061120Z 20010KT 9999 BKN007 07/06 Q1001=
0150100465999992014010611504+54380+010145FM-15+003199999V0202101V006710021319N009999199+00801+00701999999ADDGA1071+002131991GE19MSL   +99999+99999GF199999071990002131991991MA1100201999990REMMET059METAR EDHK 061150Z 21013KT 170V230 9999 BKN007 08/07 Q1002=
0142100465999992014010612204+54380+010145FM-15+003199999V0202101N006210021319N009999199+00801+00701999999ADDGA1081+002131991GE19MSL   +99999+99999GF199999081990002131991991MA1100201999990REMMET051METAR EDHK 061220Z 21012KT 9999 OVC007 08/07 Q1002=
0142100465999992014010612504+54380+010145FM-15+003199999V0202101N006210027419N009999199+00901+00701999999ADDGA1071+002741991GE19MSL   +99999+99999GF199999071990002741991991MA1100201999990REMMET051METAR EDHK 061250Z 21012KT 9999 BKN009 09/07 Q1002=
0153100465999992014010613204+54380+010145FM-15+003199999V0202101N005710030519N009999199+00901+00801999999ADDGA1071+003051991GE19MSL   +99999+99999GF199999071990003051991991MA1100201999990OC101081REMMET054METAR EDHK 061320Z 21011G21KT 9999 BKN010 09/08 Q1002=
0142100465999992014010613504+54380+010145FM-15+003199999V0202101N006210033519N009999199+00901+00801999999ADDGA1071+003351991GE19MSL   +99999+99999GF199999071990003351991991MA1100201999990REMMET051METAR EDHK 061350Z 21012KT 9999 BKN011 09/08 Q1002=
0142100465999992014010614204+54380+010145FM-15+003199999V0201901N005110033519N009999199+01001+00801999999ADDGA1071+003351991GE19MSL   +99999+99999GF199999071990003351991991MA1100201999990REMMET051METAR EDHK 061420Z 19010KT 9999 BKN011 10/08 Q1002=
0150100465999992014010614504+54380+010145FM-15+003199999V0202001V005710045719N009999199+01001+00801999999ADDGA1071+004571991GE19MSL   +99999+99999GF199999071990004571991991MA1100201999990REMMET059METAR EDHK 061450Z 20011KT 170V230 9999 BKN015 10/08 Q1002=
0165100465999992014010615204+54380+010145FM-15+003199999V0201901N005110033519N009999199+00901+00801999999ADDGA1071+003351991GA2071+029871991GE19MSL   +99999+99999GF199999071990003351991991MA1100201999990REMMET058METAR EDHK 061520Z 19010KT 9999 BKN011 BKN098 09/08 Q1002=
0142100465999992014010707204+54380+010145FM-15+003199999V0202201N006710094519N009999199+00901+00601999999ADDGA1071+009451991GE19MSL   +99999+99999GF199999071990009451991991MA1100601999990REMMET051METAR EDHK 070720Z 22013KT 9999 BKN031 09/06 Q1006=
0150100465999992014010707504+54380+010145FM-15+003199999V0202201V006210088419N009999199+00901+00601999999ADDGA1071+008841991GE19MSL   +99999+99999GF199999071990008841991991MA1100601999990REMMET059METAR EDHK 070750Z 22012KT 180V240 9999 BKN029 09/06 Q1006=
0150100465999992014010708204+54380+010145FM-15+003199999V0202201V006719999999N009999199+00901+00601999999ADDGA1041+009451991GE19MSL   +99999+99999GF199999041990009451991991MA1100601999990REMMET059METAR EDHK 070820Z 22013KT 180V240 9999 SCT031 09/06 Q1006=
0142100465999992014010708504+54380+010145FM-15+003199999V0202201N006210097519N009999199+00901+00601999999ADDGA1071+009751991GE19MSL   +99999+99999GF199999071990009751991991MA1100701999990REMMET051METAR EDHK 070850Z 22012KT 9999 BKN032 09/06 Q1007=
0142100465999992014010709204+54380+010145FM-15+003199999V0202201N006210088419N009999199+00901+00601999999ADDGA1071+008841991GE19MSL   +99999+99999GF199999071990008841991991MA1100701999990REMMET051METAR EDHK 070920Z 22012KT 9999 BKN029 09/06 Q1007=
0150100465999992014010709504+54380+010145FM-15+003199999V0202101V006710085319N009999199+01001+00601999999ADDGA1071+008531991GE19MSL   +99999+99999GF199999071990008531991991MA1100701999990REMMET059METAR EDHK 070950Z 21013KT 180V240 9999 BKN028 10/06 Q1007=
0142100465999992014010710204+54380+010145FM-15+003199999V0202201N006719999999N009999199+01001+00601999999ADDGA1041+006711991GE19MSL   +99999+99999GF199999041990006711991991MA1100701999990REMMET051METAR EDHK 071020Z 22013KT 9999 SCT022 10/06 Q1007=
0150100465999992014010710504+54380+010145FM-15+003199999V0202101V007210064019N009999199+01001+00601999999ADDGA1071+006401991GE19MSL   +99999+99999GF199999071990006401991991MA1100701999990REMMET059METAR EDHK 071050Z 21014KT 180V250 9999 BKN021 10/06 Q1007=
0165100465999992014010711204+54380+010145FM-15+003199999V0202201N007210067119N009999199+01001+00601999999ADDGA1071+006711991GA2071+013111991GE19MSL   +99999+99999GF199999071990006711991991MA1100701999990REMMET058METAR EDHK 071120Z 22014KT 9999 BKN022 BKN043 10/06 Q1007=
0165100465999992014010711504+54380+010145FM-15+003199999V0202301N006710064019N009999199+01001+00601999999ADDGA1071+006401991GA2071+009141991GE19MSL   +99999+99999GF199999071990006401991991MA1100701999990REMMET058METAR EDHK 071150Z 23013KT 9999 BKN021 BKN030 10/06 Q1007=
0142100465999992014010712204+54380+010145FM-15+003199999V0202201N006710070119N009999199+01001+00601999999ADDGA1071+007011991GE19MSL   +99999+99999GF199999071990007011991991MA1100701999990REMMET051METAR EDHK 071220Z 22013KT 9999 BKN023 10/06 Q1007=
0150100465999992014010712504+54380+010145FM-15+003199999V0202201V006710070119N009999199+01001+00601999999ADDGA1071+007011991GE19MSL   +99999+99999GF199999071990007011991991MA1100701999990REMMET059METAR EDHK 071250Z 22013KT 180V250 9999 BKN023 10/06 Q1007=
0150100465999992014010713204+54380+010145FM-15+003199999V0202201V007710073219N009999199+01001+00601999999ADDGA1071+007321991GE19MSL   +99999+99999GF199999071990007321991991MA1100701999990REMMET059METAR EDHK 071320Z 22015KT 190V250 9999 BKN024 10/06 Q1007=
0153100465999992014010713504+54380+010145FM-15+003199999V0202101N007719999999N009999199+01001+00601999999ADDGA1021+007921991GE19MSL   +99999+99999GF199999021990007921991991MA1100801999990OC101341REMMET054METAR EDHK 071350Z 21015G26KT 9999 FEW026 10/06 Q1008=
0150100465999992014010714204+54380+010145FM-15+003199999V0202101V006719999999N009999199+01001+00601999999ADDGA1021+007621991GE19MSL   +99999+99999GF199999021990007621991991MA1100801999990REMMET059METAR EDHK 071420Z 21013KT 180V240 9999 FEW025 10/06 Q1008=
0173100465999992014010714504+54380+010145FM-15+003199999V0202101V006210094519N009999199+01001+00601999999ADDGA1021+007921991GA2071+009451991GE19MSL   +99999+99999GF199999021990007921991991MA1100801999990REMMET066METAR EDHK 071450Z 21012KT 180V240 9999 FEW026 BKN031 10/06 Q1008=
0142100465999992014010715204+54380+010145FM-15+003199999V0202101N007210106719N009999199+01001+00501999999ADDGA1071+010671991GE19MSL   +99999+99999GF199999071990010671991991MA1100801999990REMMET051METAR EDHK 071520Z 21014KT 9999 BKN035 10/05 Q1008=
0198100465999992014010807204+54380+010145FM-15+003199999V0202301N004610051819N006000199+00801+00701999999ADDGA1041+003661991GA2071+005181991GA3081+015241991GE19MSL   +99999+99999GF199999041990003661991991MA1100801999990MW1611REMMET069METAR EDHK 080720Z 23009KT 6000 -RA SCT012 BKN017 OVC050 08/07 Q1008=
0211100465999992014010807504+54380+010145FM-15+003199999V0202301V005110137219N008000199+00801+00701999999ADDGA1041+003051991GA2071+013721991GA3081+018901991GE19MSL   +99999+99999GF199999041990003051991991MA1100801999990MW1611REMMET082METAR EDHK 080750Z 23010KT 200V260 8000 -RA SCT010 BKN045 OVC062 08/07      Q1008=
0175100465999992014010808204+54380+010145FM-15+003199999V0202301N004610091419N009000199+00801+00601999999ADDGA1071+009141991GA2081+010671991GE19MSL   +99999+99999GF199999071990009141991991MA1100901999990MW1611REMMET062METAR EDHK 080820Z 23009KT 9000 -RA BKN030 OVC035 08/06 Q1009=
0198100465999992014010808504+54380+010145FM-15+003199999V0202301N005710067119N009000199+00801+00601999999ADDGA1021+004271991GA2071+006711991GA3081+012501991GE19MSL   +99999+99999GF199999021990004271991991MA1100901999990MW1611REMMET069METAR EDHK 080850Z 23011KT 9000 -RA FEW014 BKN022 OVC041 08/06 Q1009=
0175100465999992014010809204+54380+010145FM-15+003199999V0202301N005710036619N009999199+00801+00601999999ADDGA1071+003661991GA2081+005791991GE19MSL   +99999+99999GF199999071990003661991991MA1101001999990MW1611REMMET062METAR EDHK 080920Z 23011KT 9999 -RA BKN012 OVC019 08/06 Q1010=
0153100465999992014010809504+54380+010145FM-15+003199999V0202401N006710033519N009999199+00801+00601999999ADDGA1071+003351991GE19MSL   +99999+99999GF199999071990003351991991MA1101001999990OC101181REMMET054METAR EDHK 080950Z 24013G23KT 9999 BKN011 08/06 Q1010=
0153100465999992014010810504+54380+010145FM-15+003199999V0202501N007710033519N009999199+00801+00601999999ADDGA1071+003351991GE19MSL   +99999+99999GF199999071990003351991991MA1101001999990OC101291REMMET054METAR EDHK 081050Z 25015G25KT 9999 BKN011 08/06 Q1010=
0153100465999992014010811204+54380+010145FM-15+003199999V0202501N007710033519N009999199+00801+00601999999ADDGA1071+003351991GE19MSL   +99999+99999GF199999071990003351991991MA1101001999990OC101391REMMET054METAR EDHK 081120Z 25015G27KT 9999 BKN011 08/06 Q1010=
0142100465999992014010811504+54380+010145FM-15+003199999V0202501N008210045719N009999199+00801+00601999999ADDGA1071+004571991GE19MSL   +99999+99999GF199999071990004571991991MA1101001999990REMMET051METAR EDHK 081150Z 25016KT 9999 BKN015 08/06 Q1010=
0153100465999992014010812204+54380+010145FM-15+003199999V0202501N008210042719N009999199+00901+00601999999ADDGA1071+004271991GE19MSL   +99999+99999GF199999071990004271991991MA1101101999990OC101341REMMET054METAR EDHK 081220Z 25016G26KT 9999 BKN014 09/06 Q1011=
0153100465999992014010812504+54380+010145FM-15+003199999V0202501N007710045719N009999199+00901+00601999999ADDGA1071+004571991GE19MSL   +99999+99999GF199999071990004571991991MA1101101999990OC101291REMMET054METAR EDHK 081250Z 25015G25KT 9999 BKN015 09/06 Q1011=
0153100465999992014010813204+54380+010145FM-15+003199999V0202501N008210051819N009999199+00901+00601999999ADDGA1071+005181991GE19MSL   +99999+99999GF199999071990005181991991MA1101101999990OC101391REMMET054METAR EDHK 081320Z 25016G27KT 9999 BKN017 09/06 Q1011=
0153100465999992014010813504+54380+010145FM-15+003199999V0202401N006710051819N009999199+00901+00501999999ADDGA1071+005181991GE19MSL   +99999+99999GF199999071990005181991991MA1101101999990OC101291REMMET054METAR EDHK 081350Z 24013G25KT 9999 BKN017 09/05 Q1011=
0142100465999992014010814204+54380+010145FM-15+003199999V0202501N008210054919N009999199+00901+00601999999ADDGA1071+005491991GE19MSL   +99999+99999GF199999071990005491991991MA1101101999990REMMET051METAR EDHK 081420Z 25016KT 9999 BKN018 09/06 Q1011=
0153100465999992014010814504+54380+010145FM-15+003199999V0202401N007710061019N009999199+00901+00501999999ADDGA1071+006101991GE19MSL   +99999+99999GF199999071990006101991991MA1101101999990OC101341REMMET054METAR EDHK 081450Z 24015G26KT 9999 BKN020 09/05 Q1011=
0183100465999992014010815204+54380+010145FM-15+003199999V0202301V007710054919N009999199+00801+00601999999ADDGA1071+005491991GA2081+008231991GE19MSL   +99999+99999GF199999071990005491991991MA1101101999990MW1611REMMET070METAR EDHK 081520Z 23015KT 200V260 9999 -RA BKN018 OVC027 08/06 Q1011=
0183100465999992014010907204+54380+010145FM-15+003199999V0201801V004610021319N008000199+00701+00601999999ADDGA1071+002131991GA2081+004571991GE19MSL   +99999+99999GF199999071990002131991991MA1100201999990MW1611REMMET070METAR EDHK 090720Z 18009KT 150V220 8000 -RA BKN007 OVC015 07/06 Q1002=
0183100465999992014010907504+54380+010145FM-15+003199999V0201801V006210018319N009000199+00701+00601999999ADDGA1071+001831991GA2081+020421991GE19MSL   +99999+99999GF199999071990001831991991MA1100101999990MW1611REMMET070METAR EDHK 090750Z 18012KT 130V210 9000 -RA BKN006 OVC067 07/06 Q1001=
0152100465999992014010908204+54380+010145FM-15+003199999V0201901N006210021319N009999199+00801+00701999999ADDGA1081+002131991GE19MSL   +99999+99999GF199999081990002131991991MA1100101999990MW1611REMMET055METAR EDHK 090820Z 19012KT 9999 -RA OVC007 08/07 Q1001=
0152100465999992014010908504+54380+010145FM-15+003199999V0202001N005710018319N006000199+00801+00701999999ADDGA1081+001831991GE19MSL   +99999+99999GF199999081990001831991991MA1100001999990MW1611REMMET055METAR EDHK 090850Z 20011KT 6000 -RA OVC006 08/07 Q1000=
0152100465999992014010909204+54380+010145FM-15+003199999V0202001N005710015219N009999199+00901+00801999999ADDGA1081+001521991GE19MSL   +99999+99999GF199999081990001521991991MA1099901999990MW1611REMMET055METAR EDHK 090920Z 20011KT 9999 -RA OVC005 09/08 Q0999=
0183100465999992014010909504+54380+010145FM-15+003199999V0202001V006210018319N009999199+00901+00801999999ADDGA1071+001831991GA2081+013111991GE19MSL   +99999+99999GF199999071990001831991991MA1099901999990MW1611REMMET070METAR EDHK 090950Z 20012KT 160V230 9999 -RA BKN006 OVC043 09/08 Q0999=
0175100465999992014010910204+54380+010145FM-15+003199999V0202001N006710018319N008000199+00901+00801999999ADDGA1071+001831991GA2081+008841991GE19MSL   +99999+99999GF199999071990001831991991MA1099801999990MW1611REMMET062METAR EDHK 091020Z 20013KT 8000 -RA BKN006 OVC029 09/08 Q0998=
0175100465999992014010910504+54380+010145FM-15+003199999V0202001N005710018319N009999199+00901+00801999999ADDGA1071+001831991GA2081+003961991GE19MSL   +99999+99999GF199999071990001831991991MA1099701999990MW1611REMMET062METAR EDHK 091050Z 20011KT 9999 -RA BKN006 OVC013 09/08 Q0997=
0175100465999992014010911204+54380+010145FM-15+003199999V0202101N007710021319N006000199+00901+00901999999ADDGA1071+002131991GA2081+003961991GE19MSL   +99999+99999GF199999071990002131991991MA1099701999990MW1611REMMET062METAR EDHK 091120Z 21015KT 6000 -RA BKN007 OVC013 09/09 Q0997=
0186100465999992014010911504+54380+010145FM-15+003199999V0202101N007710021319N009999199+01001+00901999999ADDGA1071+002131991GA2081+003961991GE19MSL   +99999+99999GF199999071990002131991991MA1099601999990MW1611OC101291REMMET065METAR EDHK 091150Z 21015G25KT 9999 -RA BKN007 OVC013 10/09 Q0996=
0153100465999992014010912204+54380+010145FM-15+003199999V0202201N007210033519N009999199+01001+00801999999ADDGA1071+003351991GE19MSL   +99999+99999GF199999071990003351991991MA1099501999990OC101291REMMET054METAR EDHK 091220Z 22014G25KT 9999 BKN011 10/08 Q0995=
0176100465999992014010912504+54380+010145FM-15+003199999V0202201N007710149419N009999199+01001+00801999999ADDGA1041+003961991GA2071+014941991GE19MSL   +99999+99999GF199999041990003961991991MA1099501999990OC101291REMMET061METAR EDHK 091250Z 22015G25KT 9999 SCT013 BKN049 10/08 Q0995=
0183100465999992014010913204+54380+010145FM-15+003199999V0202101V005710076219N009999199+01001+00801999999ADDGA1041+003961991GA2081+007621991GE19MSL   +99999+99999GF199999041990003961991991MA1099301999990MW1611REMMET070METAR EDHK 091320Z 21011KT 180V250 9999 -RA SCT013 OVC025 10/08 Q0993=
0175100465999992014010913504+54380+010145FM-15+003199999V0202601N007710033519N009999199+00901+00701999999ADDGA1071+003351991GA2081+006101991GE19MSL   +99999+99999GF199999071990003351991991MA1099301999990MW1611REMMET062METAR EDHK 091350Z 26015KT 9999 -RA BKN011 OVC020 09/07 Q0993=
0175100465999992014010914204+54380+010145FM-15+003199999V0202301N009310189019N009999199+01001+00701999999ADDGA1041+003961991GA2081+018901991GE19MSL   +99999+99999GF199999041990003961991991MA1099301999990MW1611REMMET062METAR EDHK 091420Z 23018KT 9999 -RA SCT013 OVC062 10/07 Q0993=
0176100465999992014010914504+54380+010145FM-15+003199999V0202401N010310064019N009999199+01001+00601999999ADDGA1071+006401991GA2081+008531991GE19MSL   +99999+99999GF199999071990006401991991MA1099301999990OC101541REMMET061METAR EDHK 091450Z 24020G30KT 9999 BKN021 OVC028 10/06 Q0993=
0165100465999992014010915204+54380+010145FM-15+003199999V0202301N009810061019N009999199+00901+00601999999ADDGA1071+006101991GA2081+015541991GE19MSL   +99999+99999GF199999071990006101991991MA1099301999990REMMET058METAR EDHK 091520Z 23019KT 9999 BKN020 OVC051 09/06 Q0993=
0165100465999992014011007204+54380+010145FM-15+003199999V0202601N008810115819N009999199+00601+00401999999ADDGA1021+005181991GA2081+011581991GE19MSL   +99999+99999GF199999021990005181991991MA1100401999990REMMET058METAR EDHK 100720Z 26017KT 9999 FEW017 OVC038 06/04 Q1004=
0165100465999992014011007504+54380+010145FM-15+003199999V0202601N009310121919N009999199+00601+00401999999ADDGA1041+004571991GA2071+012191991GE19MSL   +99999+99999GF199999041990004571991991MA1100401999990REMMET058METAR EDHK 100750Z 26018KT 9999 SCT015 BKN040 06/04 Q1004=
0165100465999992014011008204+54380+010145FM-15+003199999V0202601N00981005181CN009999199+00601+00301999999ADDGA1021+003961991GA2041+005181991GE19MSL   +99999+99999GF199999021990003961991991MA1100501999990REMMET058METAR EDHK 100820Z 26019KT 9999 FEW013 SCT017 06/03 Q1005=
0142100465999992014011008504+54380+010145FM-15+003199999V0202601N008219999999N009999199+00601+00401999999ADDGA1041+004271991GE19MSL   +99999+99999GF199999041990004271991991MA1100501999990REMMET051METAR EDHK 100850Z 26016KT 9999 SCT014 06/04 Q1005=
0176100465999992014011009204+54380+010145FM-15+003199999V0202601N00931008531CN009999199+00701+00401999999ADDGA1021+004271991GA2041+008531991GE19MSL   +99999+99999GF199999021990004271991991MA1100601999990OC101441REMMET061METAR EDHK 100920Z 26018G28KT 9999 FEW014 SCT028 07/04 Q1006=
0165100465999992014011009504+54380+010145FM-15+003199999V0202601N008810091419N009999199+00601+00401999999ADDGA1021+005181991GA2071+009141991GE19MSL   +99999+99999GF199999021990005181991991MA1100601999990REMMET058METAR EDHK 100950Z 26017KT 9999 FEW017 BKN030 06/04 Q1006=
0165100465999992014011010204+54380+010145FM-15+003199999V0202601N007710073219N009999199+00601+00401999999ADDGA1041+004571991GA2071+007321991GE19MSL   +99999+99999GF199999041990004571991991MA1100601999990REMMET058METAR EDHK 101020Z 26015KT 9999 SCT015 BKN024 06/04 Q1006=
0142100465999992014011010504+54380+010145FM-15+003199999V0202601N008819999999N009999199+00701+00401999999ADDGA1041+004881991GE19MSL   +99999+99999GF199999041990004881991991MA1100601999990REMMET051METAR EDHK 101050Z 26017KT 9999 SCT016 07/04 Q1006=
0142100465999992014011011204+54380+010145FM-15+003199999V0202601N008819999999N009999199+00601+00301999999ADDGA1041+004881991GE19MSL   +99999+99999GF199999041990004881991991MA1100701999990REMMET051METAR EDHK 101120Z 26017KT 9999 SCT016 06/03 Q1007=
0165100465999992014011011504+54380+010145FM-15+003199999V0202601N00931012501CN009999199+00601+00301999999ADDGA1021+005181991GA2041+012501991GE19MSL   +99999+99999GF199999021990005181991991MA1100701999990REMMET058METAR EDHK 101150Z 26018KT 9999 FEW017 SCT041 06/03 Q1007=
0175100465999992014011012204+54380+010145FM-15+003199999V0202601N008210125019N009999199+00701+00401999999ADDGA1041+004571991GA2071+012501991GE19MSL   +99999+99999GF199999041990004571991991MA1100701999990MW1611REMMET062METAR EDHK 101220Z 26016KT 9999 -RA SCT015 BKN041 07/04 Q1007=
0175100465999992014011012504+54380+010145FM-15+003199999V0202601N008210067119N009999199+00601+00401999999ADDGA1021+004271991GA2071+006711991GE19MSL   +99999+99999GF199999021990004271991991MA1100701999990MW1611REMMET062METAR EDHK 101250Z 26016KT 9999 -RA FEW014 BKN022 06/04 Q1007=
0175100465999992014011013204+54380+010145FM-15+003199999V0202701N007710097519N009999199+00601+00401999999ADDGA1021+004571991GA2081+009751991GE19MSL   +99999+99999GF199999021990004571991991MA1100801999990MW1611REMMET062METAR EDHK 101320Z 27015KT 9999 -RA FEW015 OVC032 06/04 Q1008=
0142100465999992014011013504+54380+010145FM-15+003199999V0202701N007719999999N009999199+00601+00401999999ADDGA1041+005181991GE19MSL   +99999+99999GF199999041990005181991991MA1100801999990REMMET051METAR EDHK 101350Z 27015KT 9999 SCT017 06/04 Q1008=
0150100465999992014011014204+54380+010145FM-15+003199999V0202601V007719999999N009999199+00701+00401999999ADDGA1041+007011991GE19MSL   +99999+99999GF199999041990007011991991MA1100801999990REMMET059METAR EDHK 101420Z 26015KT 230V290 9999 SCT023 07/04 Q1008=
0142100465999992014011014504+54380+010145FM-15+003199999V0202601N007719999999N009999199+00601+00301999999ADDGA1041+007321991GE19MSL   +99999+99999GF199999041990007321991991MA1100801999990REMMET051METAR EDHK 101450Z 26015KT 9999 SCT024 06/03 Q1008=
0142100465999992014011015204+54380+010145FM-15+003199999V0202601N005719999999N009999199+00601+00301999999ADDGA1021+008841991GE19MSL   +99999+99999GF199999021990008841991991MA1100901999990REMMET051METAR EDHK 101520Z 26011KT 9999 FEW029 06/03 Q1009=
0152100465999992014011107204+54380+010145FM-15+003199999V0202301N006710021319N005000199+00601+00501999999ADDGA1081+002131991GE19MSL   +99999+99999GF199999081990002131991991MA1100801999990MW1511REMMET055METAR EDHK 110720Z 23013KT 5000 -DZ OVC007 06/05 Q1008=
0169100465999992014011107504+54380+010145FM-15+003199999V0202301V005710021319N005000199+00601+00501999999ADDGA1081+002131991GE19MSL   +99999+99999GF199999081990002131991991MA1100801999990MW1101MW2511REMMET066METAR EDHK 110750Z 23011KT 200V260 5000 -DZ BR OVC007 06/05 Q1008=
0151100465999992014011108204+54380+010145FM-15+003199999V0202301N006210018319N005000199+00601+00501999999ADDGA1081+001831991GE19MSL   +99999+99999GF199999081990001831991991MA1100801999990MW1101REMMET054METAR EDHK 110820Z 23012KT 5000 BR OVC006 06/05 Q1008=
0161100465999992014011108504+54380+010145FM-15+003199999V0202301N006210021319N004500199+00601+00501999999ADDGA1081+002131991GE19MSL   +99999+99999GF199999081990002131991991MA1100801999990MW1101MW2611REMMET058METAR EDHK 110850Z 23012KT 4500 -RA BR OVC007 06/05 Q1008=
0169100465999992014011109204+54380+010145FM-15+003199999V0202301V006710021319N005000199+00601+00501999999ADDGA1081+002131991GE19MSL   +99999+99999GF199999081990002131991991MA1100801999990MW1101MW2611REMMET066METAR EDHK 110920Z 23013KT 190V250 5000 -RA BR OVC007 06/05 Q1008=
0169100465999992014011109504+54380+010145FM-15+003199999V0202301V006210021319N004500199+00601+00501999999ADDGA1081+002131991GE19MSL   +99999+99999GF199999081990002131991991MA1100801999990MW1101MW2611REMMET066METAR EDHK 110950Z 23012KT 210V270 4500 -RA BR OVC007 06/05 Q1008=
0169100465999992014011110204+54380+010145FM-15+003199999V0202301V005110021319N005000199+00601+00501999999ADDGA1081+002131991GE19MSL   +99999+99999GF199999081990002131991991MA1100801999990MW1101MW2511REMMET066METAR EDHK 111020Z 23010KT 200V260 5000 -DZ BR OVC007 06/05 Q1008=
0184100465999992014011110504+54380+010145FM-15+003199999V0202201V006710021319N007000199+00601+00401999999ADDGA1071+002131991GA2081+003661991GE19MSL   +99999+99999GF199999071990002131991991MA1100701999990OC101181REMMET069METAR EDHK 111050Z 22013G23KT 190V250 7000 BKN007 OVC012 06/04 Q1007=
0175100465999992014011111204+54380+010145FM-15+003199999V0202201N006210024419N007000199+00601+00401999999ADDGA1071+002441991GA2081+004571991GE19MSL   +99999+99999GF199999071990002441991991MA1100701999990MW1511REMMET062METAR EDHK 111120Z 22012KT 7000 -DZ BKN008 OVC015 06/04 Q1007=
0175100465999992014011111504+54380+010145FM-15+003199999V0202201N006210024419N006000199+00601+00401999999ADDGA1071+002441991GA2081+004571991GE19MSL   +99999+99999GF199999071990002441991991MA1100601999990MW1511REMMET062METAR EDHK 111150Z 22012KT 6000 -DZ BKN008 OVC015 06/04 Q1006=
0152100465999992014011112204+54380+010145FM-15+003199999V0202201N006210021319N007000199+00501+00401999999ADDGA1081+002131991GE19MSL   +99999+99999GF199999081990002131991991MA1100601999990MW1611REMMET055METAR EDHK 111220Z 22012KT 7000 -RA OVC007 05/04 Q1006=
0152100465999992014011112504+54380+010145FM-15+003199999V0202301N005710018319N006000199+00501+00401999999ADDGA1081+001831991GE19MSL   +99999+99999GF199999081990001831991991MA1100501999990MW1511REMMET055METAR EDHK 111250Z 23011KT 6000 -DZ OVC006 05/04 Q1005=
0160100465999992014011113204+54380+010145FM-15+003199999V0202301V005710018319N006000199+00501+00401999999ADDGA1081+001831991GE19MSL   +99999+99999GF199999081990001831991991MA1100501999990MW1611REMMET063METAR EDHK 111320Z 23011KT 200V260 6000 -RA OVC006 05/04 Q1005=
0183100465999992014011113504+54380+010145FM-15+003199999V0202301V006210018319N007000199+00501+00401999999ADDGA1071+001831991GA2081+004271991GE19MSL   +99999+99999GF199999071990001831991991MA1100501999990MW1611REMMET070METAR EDHK 111350Z 23012KT 190V250 7000 -RA BKN006 OVC014 05/04 Q1005=
0152100465999992014011114204+54380+010145FM-15+003199999V0202401N006710021319N006000199+00501+00401999999ADDGA1081+002131991GE19MSL   +99999+99999GF199999081990002131991991MA1100501999990MW1611REMMET055METAR EDHK 111420Z 24013KT 6000 -RA OVC007 05/04 Q1005=
0188100465999992014011114504+54380+010145FM-15+003199999V0203101N009310030519N009000199+00501+00301999999ADDGA1041+001831991GA2071+003051991GA3081+007921991GE19MSL   +99999+99999GF199999041990001831991991MA1100501999990REMMET065METAR EDHK 111450Z 31018KT 9000 SCT006 BKN010 OVC026 05/03 Q1005=
0165100465999992014011115204+54380+010145FM-15+003199999V0203101N006210042719N009999199+00501+00301999999ADDGA1071+004271991GA2081+016151991GE19MSL   +99999+99999GF199999071990004271991991MA1100601999990REMMET058METAR EDHK 111520Z 31012KT 9999 BKN014 OVC053 05/03 Q1006=
0142100465999992014011207204+54380+010145FM-15+003199999V0202601N006719999999N009999199+00401+00101999999ADDGA1021+008231991GE19MSL   +99999+99999GF199999021990008231991991MA1101701999990REMMET051METAR EDHK 120720Z 26013KT 9999 FEW027 04/01 Q1017=
0142100465999992014011207504+54380+010145FM-15+003199999V0202501N005119999999N009999199+00301+00101999999ADDGA1021+008231991GE19MSL   +99999+99999GF199999021990008231991991MA1101701999990REMMET051METAR EDHK 120750Z 25010KT 9999 FEW027 03/01 Q1017=
0153100465999992014011208204+54380+010145FM-15+003199999V0202501N005119999999N009999199+00401+00101999999ADDGA1021+009141991GE19MSL   +99999+99999GF199999021990009141991991MA1101701999990MW1161REMMET056METAR EDHK 120820Z 25010KT 9999 VCSH FEW030 04/01 Q1017=
0142100465999992014011208504+54380+010145FM-15+003199999V0202601N005719999999N009999199+00401+00101999999ADDGA1021+007621991GE19MSL   +99999+99999GF199999021990007621991991MA1101701999990REMMET051METAR EDHK 120850Z 26011KT 9999 FEW025 04/01 Q1017=
0072100465999992014011209204+54380+010145FM-15+003199999V0202601N006719999999Y999999999+00501+00201999999ADDMA1101701999990REMMET045METAR EDHK 120920Z 26013KT CAVOK 05/02 Q1017=
0142100465999992014011209504+54380+010145FM-15+003199999V0202701N006219999999N009999199+00501+00201999999ADDGA1021+011281991GE19MSL   +99999+99999GF199999021990011281991991MA1101801999990REMMET051METAR EDHK 120950Z 27012KT 9999 FEW037 05/02 Q1018=
0142100465999992014011210204+54380+010145FM-15+003199999V0202701N007219999999N009999199+00601+00201999999ADDGA1021+010061991GE19MSL   +99999+99999GF199999021990010061991991MA1101801999990REMMET051METAR EDHK 121020Z 27014KT 9999 FEW033 06/02 Q1018=
0072100465999992014011210504+54380+010145FM-15+003199999V0202701N007719999999Y999999999+00601+00201999999ADDMA1101701999990REMMET045METAR EDHK 121050Z 27015KT CAVOK 06/02 Q1017=
0153100465999992014011211204+54380+010145FM-15+003199999V0202701N008819999999N009999199+00601+00201999999ADDGA1041+008231991GE19MSL   +99999+99999GF199999041990008231991991MA1101701999990MW1161REMMET056METAR EDHK 121120Z 27017KT 9999 VCSH SCT027 06/02 Q1017=
0153100465999992014011211504+54380+010145FM-15+003199999V0202801N008819999999N009999199+00501+00201999999ADDGA1041+007011991GE19MSL   +99999+99999GF199999041990007011991991MA1101701999990MW1161REMMET056METAR EDHK 121150Z 28017KT 9999 VCSH SCT023 05/02 Q1017=
0153100465999992014011212204+54380+010145FM-15+003199999V0202801N008810064019N009999199+00601+00201999999ADDGA1071+006401991GE19MSL   +99999+99999GF199999071990006401991991MA1101801999990MW1161REMMET056METAR EDHK 121220Z 28017KT 9999 VCSH BKN021 06/02 Q1018=
0153100465999992014011212504+54380+010145FM-15+003199999V0202801N008219999999N009999199+00501+00101999999ADDGA1041+006101991GE19MSL   +99999+99999GF199999041990006101991991MA1101801999990MW1161REMMET056METAR EDHK 121250Z 28016KT 9999 VCSH SCT020 05/01 Q1018=
0142100465999992014011213204+54380+010145FM-15+003199999V0202801N007219999999N009999199+00601+00201999999ADDGA1041+007321991GE19MSL   +99999+99999GF199999041990007321991991MA1101801999990REMMET051METAR EDHK 121320Z 28014KT 9999 SCT024 06/02 Q1018=
0142100465999992014011213504+54380+010145FM-15+003199999V0202801N006219999999N009999199+00601+00201999999ADDGA1041+007321991GE19MSL   +99999+99999GF199999041990007321991991MA1101701999990REMMET051METAR EDHK 121350Z 28012KT 9999 SCT024 06/02 Q1017=
0153100465999992014011214204+54380+010145FM-15+003199999V0202701N006219999999N009999199+00601+00301999999ADDGA1041+007921991GE19MSL   +99999+99999GF199999041990007921991991MA1101701999990MW1161REMMET056METAR EDHK 121420Z 27012KT 9999 VCSH SCT026 06/03 Q1017=
0153100465999992014011214504+54380+010145FM-15+003199999V0202801N004610064019N009999199+00501+00201999999ADDGA1071+006401991GE19MSL   +99999+99999GF199999071990006401991991MA1101801999990MW1161REMMET056METAR EDHK 121450Z 28009KT 9999 VCSH BKN021 05/02 Q1018=
0153100465999992014011215204+54380+010145FM-15+003199999V0202901N005710067119N009999199+00601+00201999999ADDGA1071+006711991GE19MSL   +99999+99999GF199999071990006711991991MA1101801999990MW1161REMMET056METAR EDHK 121520Z 29011KT 9999 VCSH BKN022 06/02 Q1018=
0161100465999992014011307204+54380+010145FM-15+003199999V0201301V005710024419N009999199+00301+00101999999ADDGA1081+002441991GE19MSL   +99999+99999GF199999081990002441991991MA1101001999990OC101081REMMET062METAR EDHK 130720Z 13011G21KT 110V170 9999 OVC008 03/01 Q1010=
0142100465999992014011307504+54380+010145FM-15+003199999V0201401N006210024419N009999199+00301+00101999999ADDGA1081+002441991GE19MSL   +99999+99999GF199999081990002441991991MA1101001999990REMMET051METAR EDHK 130750Z 14012KT 9999 OVC008 03/01 Q1010=
0201100465999992014011308204+54380+010145FM-15+003199999V0201401V006210027419N009999199+00301+00101999999ADDGA1071+002741991GA2071+016761991GA3081+023161991GE19MSL   +99999+99999GF199999071990002741991991MA1100901999990REMMET078METAR EDHK 130820Z 14012KT 110V170 9999 BKN009 BKN055 OVC076 03/01      Q1009=
0201100465999992014011308504+54380+010145FM-15+003199999V0201501V007710170719N009999199+00301+00101999999ADDGA1041+003051991GA2071+017071991GA3081+023471991GE19MSL   +99999+99999GF199999041990003051991991MA1100901999990REMMET078METAR EDHK 130850Z 15015KT 120V180 9999 SCT010 BKN056 OVC077 03/01      Q1009=
0165100465999992014011309204+54380+010145FM-15+003199999V0201601N006710115819N009999199+00301+00001999999ADDGA1021+003661991GA2081+011581991GE19MSL   +99999+99999GF199999021990003661991991MA1100901999990REMMET058METAR EDHK 130920Z 16013KT 9999 FEW012 OVC038 03/00 Q1009=
0206100465999992014011309504+54380+010145FM-15+003199999V0201601N007210027419N003500199+00201+00001999999ADDGA1071+002741991GA2071+003661991GA3081+010061991GE19MSL   +99999+99999GF199999071990002741991991MA1100801999990MW1101MW2731REMMET071METAR EDHK 130950Z 16014KT 3500 SN BR BKN009 BKN012 OVC033 02/00 Q1008=
0214100465999992014011310204+54380+010145FM-15+003199999V0201501N006210021319N009000199+00201+00001999999ADDGA1071+002131991GA2071+004881991GA3081+005791991GE19MSL   +99999+99999GF199999071990002131991991MA1100801999990MW1581REMMET085METAR COR EDHK 131020Z 15012KT 9000 -RADZ BKN007 BKN016 OVC019 02/00      Q1008 RESN=
0177100465999992014011310504+54380+010145FM-15+003199999V0201601N005710021319N006000199+00201+00001999999ADDGA1071+002131991GA2081+003661991GE19MSL   +99999+99999GF199999071990002131991991MA1100801999990MW1581REMMET064METAR EDHK 131050Z 16011KT 6000 -RADZ BKN007 OVC012 02/00 Q1008=
0177100465999992014011311204+54380+010145FM-15+003199999V0201601N005110018319N008000199+00201+00101999999ADDGA1071+001831991GA2081+005181991GE19MSL   +99999+99999GF199999071990001831991991MA1100701999990MW1581REMMET064METAR EDHK 131120Z 16010KT 8000 -RADZ BKN006 OVC017 02/01 Q1007=
0161100465999992014011311504+54380+010145FM-15+003199999V0201701N005110015219N004000199+00201+00101999999ADDGA1081+001521991GE19MSL   +99999+99999GF199999081990001521991991MA1100701999990MW1101MW2611REMMET058METAR EDHK 131150Z 17010KT 4000 -RA BR OVC005 02/01 Q1007=
0183100465999992014011312204+54380+010145FM-15+003199999V0201701V004110015219N006000199+00201+00101999999ADDGA1071+001521991GA2081+003351991GE19MSL   +99999+99999GF199999071990001521991991MA1100701999990MW1611REMMET070METAR EDHK 131220Z 17008KT 140V200 6000 -RA BKN005 OVC011 02/01 Q1007=
0169100465999992014011312504+54380+010145FM-15+003199999V0201801V004110009119N005000199+00201+00201999999ADDGA1081+000911991GE19MSL   +99999+99999GF199999081990000911991991MA1100601999990MW1101MW2611REMMET066METAR EDHK 131250Z 18008KT 140V210 5000 -RA BR OVC003 02/02 Q1006=
0161100465999992014011313204+54380+010145FM-15+003199999V0201901N004110009119N004000199+00301+00201999999ADDGA1081+000911991GE19MSL   +99999+99999GF199999081990000911991991MA1100601999990MW1101MW2611REMMET058METAR EDHK 131320Z 19008KT 4000 -RA BR OVC003 03/02 Q1006=
0163100465999992014011313504+54380+010145FM-15+003199999V0201901N004110009119N003400199+00301+00301999999ADDGA1081+000911991GE19MSL   +99999+99999GF199999081990000911991991MA1100601999990MW1101MW2581REMMET060METAR EDHK 131350Z 19008KT 3400 -DZRA BR OVC003 03/03 Q1006=
0163100465999992014011314204+54380+010145FM-15+003199999V0202101N004610009119N004300199+00401+00301999999ADDGA1081+000911991GE19MSL   +99999+99999GF199999081990000911991991MA1100601999990MW1101MW2581REMMET060METAR EDHK 131420Z 21009KT 4300 -DZRA BR OVC003 04/03 Q1006=
0142100465999992014011315204+54380+010145FM-15+003199999V0202101N003610073219N007000199+00501+00401999999ADDGA1081+007321991GE19MSL   +99999+99999GF199999081990007321991991MA1100701999990REMMET051METAR EDHK 131520Z 21007KT 7000 OVC024 05/04 Q1007=
0112100465999992014011407204+54380+010145FM-15+003199999V0201201N002119999999N000300199+00201+00201999999ADDGF109991999999999999999999MA1100801999990MW1441REMMET053METAR EDHK 140720Z 12004KT 0300 FG VV/// 02/02 Q1008=
0112100465999992014011407504+54380+010145FM-15+003199999V0201401N001519999999N000400199+00101+00101999999ADDGF109991999999999999999999MA1100801999990MW1441REMMET053METAR EDHK 140750Z 14003KT 0400 FG VV/// 01/01 Q1008=
0151100465999992014011408204+54380+010145FM-15+003199999V0201801N001510143319N002500199+00301+00301999999ADDGA1071+014331991GE19MSL   +99999+99999GF199999071990014331991991MA1100801999990MW1101REMMET054METAR EDHK 140820Z 18003KT 2500 BR BKN047 03/03 Q1008=
0151100465999992014011409204+54380+010145FM-15+003199999V0201501N001019999999N004700199+00301+00301999999ADDGA1021+014331991GE19MSL   +99999+99999GF199999021990014331991991MA1100801999990MW1101REMMET054METAR EDHK 140920Z 15002KT 4700 BR FEW047 03/03 Q1008=
0151100465999992014011410204+54380+010145FM-15+003199999V0209999V001519999999N004900199+00301+00301999999ADDGA1021+014331991GE19MSL   +99999+99999GF199999021990014331991991MA1100801999990MW1101REMMET054METAR EDHK 141020Z VRB03KT 4900 BR FEW047 03/03 Q1008=
0151100465999992014011410504+54380+010145FM-15+003199999V0200501N001019999999N004800199+00401+00301999999ADDGA1041+009451991GE19MSL   +99999+99999GF199999041990009451991991MA1100801999990MW1101REMMET054METAR EDHK 141050Z 05002KT 4800 BR SCT031 04/03 Q1008=
0151100465999992014011411204+54380+010145FM-15+003199999V0200801N002119999999N004800199+00401+00401999999ADDGA1041+009451991GE19MSL   +99999+99999GF199999041990009451991991MA1100801999990MW1101REMMET054METAR EDHK 141120Z 08004KT 4800 BR SCT031 04/04 Q1008=
0151100465999992014011411504+54380+010145FM-15+003199999V0200701N003119999999N004900199+00401+00401999999ADDGA1021+014631991GE19MSL   +99999+99999GF199999021990014631991991MA1100801999990MW1101REMMET054METAR EDHK 141150Z 07006KT 4900 BR FEW048 04/04 Q1008=
0142100465999992014011412204+54380+010145FM-15+003199999V0200901N002610149419N008000199+00501+00401999999ADDGA1071+014941991GE19MSL   +99999+99999GF199999071990014941991991MA1100801999990REMMET051METAR EDHK 141220Z 09005KT 8000 BKN049 05/04 Q1008=
0165100465999992014011412504+54380+010145FM-15+003199999V0201101N002610155419N008000199+00501+00401999999ADDGA1041+009141991GA2071+015541991GE19MSL   +99999+99999GF199999041990009141991991MA1100801999990REMMET058METAR EDHK 141250Z 11005KT 8000 SCT030 BKN051 05/04 Q1008=
0165100465999992014011413204+54380+010145FM-15+003199999V0201101N003110158519N008000199+00501+00301999999ADDGA1041+010361991GA2071+015851991GE19MSL   +99999+99999GF199999041990010361991991MA1100801999990REMMET058METAR EDHK 141320Z 11006KT 8000 SCT034 BKN052 05/03 Q1008=
0142100465999992014011413504+54380+010145FM-15+003199999V0201201N002610149419N008000199+00501+00301999999ADDGA1071+014941991GE19MSL   +99999+99999GF199999071990014941991991MA1100801999990REMMET051METAR EDHK 141350Z 12005KT 8000 BKN049 05/03 Q1008=
0142100465999992014011414204+54380+010145FM-15+003199999V0201101N002610149419N008000199+00401+00301999999ADDGA1081+014941991GE19MSL   +99999+99999GF199999081990014941991991MA1100801999990REMMET051METAR EDHK 141420Z 11005KT 8000 OVC049 04/03 Q1008=
0165100465999992014011414504+54380+010145FM-15+003199999V0201001N003110149419N007000199+00401+00301999999ADDGA1021+001221991GA2081+014941991GE19MSL   +99999+99999GF199999021990001221991991MA1100801999990REMMET058METAR EDHK 141450Z 10006KT 7000 FEW004 OVC049 04/03 Q1008=
0174100465999992014011415204+54380+010145FM-15+003199999V0200801N003610155419N004000199+00401+00301999999ADDGA1021+000301991GA2081+015541991GE19MSL   +99999+99999GF199999021990000301991991MA1100801999990MW1101REMMET061METAR EDHK 141520Z 08007KT 4000 BR FEW001 OVC051 04/03 Q1008=
0151100465999992014011507204+54380+010145FM-15+003199999V0201401N004110006119N002500199+00301+00301999999ADDGA1081+000611991GE19MSL   +99999+99999GF199999081990000611991991MA1100901999990MW1101REMMET054METAR EDHK 150720Z 14008KT 2500 BR OVC002 03/03 Q1009=
0151100465999992014011507504+54380+010145FM-15+003199999V0201401N003610003019N001500199+00301+00301999999ADDGA1081+000301991GE19MSL   +99999+99999GF199999081990000301991991MA1100901999990MW1101REMMET054METAR EDHK 150750Z 14007KT 1500 BR OVC001 03/03 Q1009=
0151100465999992014011508204+54380+010145FM-15+003199999V0201401N004610006119N001700199+00301+00201999999ADDGA1081+000611991GE19MSL   +99999+99999GF199999081990000611991991MA1100901999990MW1101REMMET054METAR EDHK 150820Z 14009KT 1700 BR OVC002 03/02 Q1009=
0162100465999992014011508504+54380+010145FM-15+003199999V0201501N003110003019N000700199+00301+00201999999ADDGA1071+000301991GE19MSL   +99999+99999GF199999071990000301991991MA1101001999990MW1441REMMET065METAR EDHK 150850Z 15006KT 0700 R08/P1000D FG BKN001 03/02 Q1010=
0151100465999992014011509204+54380+010145FM-15+003199999V0201301N004110003019N000400199+00301+00301999999ADDGA1081+000301991GE19MSL   +99999+99999GF199999081990000301991991MA1100901999990MW1441REMMET054METAR EDHK 150920Z 13008KT 0400 FG OVC001 03/03 Q1009=
0161100465999992014011509504+54380+010145FM-15+003199999V0201501N003610006119N001000199+00301+00301999999ADDGA1081+000611991GE19MSL   +99999+99999GF199999081990000611991991MA1100901999990MW1441REMMET064METAR EDHK 150950Z 15007KT 1000 R08/2000U FG OVC002 03/03 Q1009=
0159100465999992014011510204+54380+010145FM-15+003199999V0201501V004610003019N003500199+00301+00201999999ADDGA1081+000301991GE19MSL   +99999+99999GF199999081990000301991991MA1101001999990MW1101REMMET062METAR EDHK 151020Z 15009KT 120V180 3500 BR OVC001 03/02 Q1010=
0159100465999992014011510504+54380+010145FM-15+003199999V0201301V004610006119N004500199+00301+00201999999ADDGA1081+000611991GE19MSL   +99999+99999GF199999081990000611991991MA1100901999990MW1101REMMET062METAR EDHK 151050Z 13009KT 110V170 4500 BR OVC002 03/02 Q1009=
0151100465999992014011511204+54380+010145FM-15+003199999V0201401N004110006119N004500199+00301+00201999999ADDGA1081+000611991GE19MSL   +99999+99999GF199999081990000611991991MA1100901999990MW1101REMMET054METAR EDHK 151120Z 14008KT 4500 BR OVC002 03/02 Q1009=
0151100465999992014011511504+54380+010145FM-15+003199999V0201401N003610009119N004500199+00301+00201999999ADDGA1081+000911991GE19MSL   +99999+99999GF199999081990000911991991MA1100901999990MW1101REMMET054METAR EDHK 151150Z 14007KT 4500 BR OVC003 03/02 Q1009=
0159100465999992014011512204+54380+010145FM-15+003199999V0201601V004110012219N005000199+00301+00201999999ADDGA1081+001221991GE19MSL   +99999+99999GF199999081990001221991991MA1100901999990MW1101REMMET062METAR EDHK 151220Z 16008KT 120V180 5000 BR OVC004 03/02 Q1009=
0151100465999992014011512504+54380+010145FM-15+003199999V0201601N004610009119N005000199+00301+00201999999ADDGA1081+000911991GE19MSL   +99999+99999GF199999081990000911991991MA1100901999990MW1101REMMET054METAR EDHK 151250Z 16009KT 5000 BR OVC003 03/02 Q1009=
0151100465999992014011513204+54380+010145FM-15+003199999V0201601N004610012219N005000199+00301+00201999999ADDGA1081+001221991GE19MSL   +99999+99999GF199999081990001221991991MA1100901999990MW1101REMMET054METAR EDHK 151320Z 16009KT 5000 BR OVC004 03/02 Q1009=
0159100465999992014011513504+54380+010145FM-15+003199999V0201501V004110012219N005000199+00301+00201999999ADDGA1071+001221991GE19MSL   +99999+99999GF199999071990001221991991MA1100901999990MW1101REMMET062METAR EDHK 151350Z 15008KT 120V180 5000 BR BKN004 03/02 Q1009=
0151100465999992014011514204+54380+010145FM-15+003199999V0201601N004110012219N005000199+00301+00201999999ADDGA1081+001221991GE19MSL   +99999+99999GF199999081990001221991991MA1100901999990MW1101REMMET054METAR EDHK 151420Z 16008KT 5000 BR OVC004 03/02 Q1009=
0151100465999992014011514504+54380+010145FM-15+003199999V0201501N003110012219N005000199+00301+00201999999ADDGA1081+001221991GE19MSL   +99999+99999GF199999081990001221991991MA1100801999990MW1101REMMET054METAR EDHK 151450Z 15006KT 5000 BR OVC004 03/02 Q1008=
0150100465999992014011515204+54380+010145FM-15+003199999V0201501V003110012219N006000199+00301+00201999999ADDGA1081+001221991GE19MSL   +99999+99999GF199999081990001221991991MA1100801999990REMMET059METAR EDHK 151520Z 15006KT 120V180 6000 OVC004 03/02 Q1008=
0152100465999992014011607204+54380+010145FM-15+003199999V0201401N004610018319N006000199+00201+00101999999ADDGA1081+001831991GE19MSL   +99999+99999GF199999081990001831991991MA1100401999990MW1611REMMET055METAR EDHK 160720Z 14009KT 6000 -RA OVC006 02/01 Q1004=
0152100465999992014011607504+54380+010145FM-15+003199999V0201401N005110018319N007000199+00201+00101999999ADDGA1081+001831991GE19MSL   +99999+99999GF199999081990001831991991MA1100401999990MW1511REMMET055METAR EDHK 160750Z 14010KT 7000 -DZ OVC006 02/01 Q1004=
0152100465999992014011608204+54380+010145FM-15+003199999V0201401N004610018319N008000199+00201+00101999999ADDGA1081+001831991GE19MSL   +99999+99999GF199999081990001831991991MA1100401999990MW1511REMMET055METAR EDHK 160820Z 14009KT 8000 -DZ OVC006 02/01 Q1004=
0154100465999992014011608504+54380+010145FM-15+003199999V0201401N005710018319N007000199+00201+00101999999ADDGA1081+001831991GE19MSL   +99999+99999GF199999081990001831991991MA1100301999990MW1581REMMET057METAR EDHK 160850Z 14011KT 7000 -RADZ OVC006 02/01 Q1003=
0154100465999992014011609204+54380+010145FM-15+003199999V0201401N005710018319N006000199+00201+00101999999ADDGA1081+001831991GE19MSL   +99999+99999GF199999081990001831991991MA1100301999990MW1581REMMET057METAR EDHK 160920Z 14011KT 6000 -RADZ OVC006 02/01 Q1003=
0154100465999992014011609504+54380+010145FM-15+003199999V0201401N005710015219N007000199+00201+00101999999ADDGA1081+001521991GE19MSL   +99999+99999GF199999081990001521991991MA1100301999990MW1581REMMET057METAR EDHK 160950Z 14011KT 7000 -DZRA OVC005 02/01 Q1003=
0159100465999992014011610204+54380+010145FM-15+003199999V0201401V004610015219N007000199+00201+00101999999ADDGA1081+001521991GE19MSL   +99999+99999GF199999081990001521991991MA1100301999990MW1531REMMET062METAR EDHK 161020Z 14009KT 110V170 7000 DZ OVC005 02/01 Q1003=
0142100465999992014011611204+54380+010145FM-15+003199999V0201401N005110015219N008000199+00201+00101999999ADDGA1081+001521991GE19MSL   +99999+99999GF199999081990001521991991MA1100301999990REMMET051METAR EDHK 161120Z 14010KT 8000 OVC005 02/01 Q1003=
0142100465999992014011611504+54380+010145FM-15+003199999V0201401N004110018319N007000199+00301+00201999999ADDGA1081+001831991GE19MSL   +99999+99999GF199999081990001831991991MA1100301999990REMMET051METAR EDHK 161150Z 14008KT 7000 OVC006 03/02 Q1003=
0142100465999992014011612204+54380+010145FM-15+003199999V0201301N004110015219N007000199+00301+00201999999ADDGA1081+001521991GE19MSL   +99999+99999GF199999081990001521991991MA1100201999990REMMET051METAR EDHK 161220Z 13008KT 7000 OVC005 03/02 Q1002=
0161100465999992014011612504+54380+010145FM-15+003199999V0201201N004610012219N004000199+00301+00201999999ADDGA1081+001221991GE19MSL   +99999+99999GF199999081990001221991991MA1100201999990MW1101MW2511REMMET058METAR EDHK 161250Z 12009KT 4000 -DZ BR OVC004 03/02 Q1002=
0159100465999992014011613204+54380+010145FM-15+003199999V0201301V004610009119N003500199+00301+00201999999ADDGA1081+000911991GE19MSL   +99999+99999GF199999081990000911991991MA1100201999990MW1101REMMET062METAR EDHK 161320Z 13009KT 100V160 3500 BR OVC003 03/02 Q1002=
0151100465999992014011613504+54380+010145FM-15+003199999V0201301N004610009119N002500199+00301+00201999999ADDGA1081+000911991GE19MSL   +99999+99999GF199999081990000911991991MA1100201999990MW1101REMMET054METAR EDHK 161350Z 13009KT 2500 BR OVC003 03/02 Q1002=
0151100465999992014011614204+54380+010145FM-15+003199999V0201301N005110006119N002000199+00301+00201999999ADDGA1081+000611991GE19MSL   +99999+99999GF199999081990000611991991MA1100201999990MW1101REMMET054METAR EDHK 161420Z 13010KT 2000 BR OVC002 03/02 Q1002=
0151100465999992014011614504+54380+010145FM-15+003199999V0201301N005110009119N003000199+00301+00201999999ADDGA1081+000911991GE19MSL   +99999+99999GF199999081990000911991991MA1100101999990MW1101REMMET054METAR EDHK 161450Z 13010KT 3000 BR OVC003 03/02 Q1001=
0165100465999992014011707204+54380+010145FM-15+003199999V0201601N002110088419N006000199+00501+00401999999ADDGA1021+003051991GA2071+008841991GE19MSL   +99999+99999GF199999021990003051991991MA1100001999990REMMET058METAR EDHK 170720Z 16004KT 6000 FEW010 BKN029 05/04 Q1000=
0173100465999992014011707504+54380+010145FM-15+003199999V0201501V002110161519N007000199+00501+00401999999ADDGA1041+013411991GA2071+016151991GE19MSL   +99999+99999GF199999041990013411991991MA1100001999990REMMET066METAR EDHK 170750Z 15004KT 130V190 7000 SCT044 BKN053 05/04 Q1000=
0173100465999992014011708204+54380+010145FM-15+003199999V0201601V002110189019N007000199+00501+00401999999ADDGA1041+007321991GA2071+018901991GE19MSL   +99999+99999GF199999041990007321991991MA1100001999990REMMET066METAR EDHK 170820Z 16004KT 130V190 7000 SCT024 BKN062 05/04 Q1000=
0150100465999992014011708504+54380+010145FM-15+003199999V0201601V002119999999N009000199+00501+00501999999ADDGA1041+007621991GE19MSL   +99999+99999GF199999041990007621991991MA1100001999990REMMET059METAR EDHK 170850Z 16004KT 130V190 9000 SCT025 05/05 Q1000=
0150100465999992014011709204+54380+010145FM-15+003199999V0201601V002119999999N009999199+00601+00501999999ADDGA1041+007921991GE19MSL   +99999+99999GF199999041990007921991991MA1100001999990REMMET059METAR EDHK 170920Z 16004KT 130V190 9999 SCT026 06/05 Q1000=
0160100465999992014011709504+54380+010145FM-15+003199999V0201601V002610076219N009999199+00601+00501999999ADDGA1071+007621991GE19MSL   +99999+99999GF199999071990007621991991MA1100001999990MW1611REMMET063METAR EDHK 170950Z 16005KT 130V190 9999 -RA BKN025 06/05 Q1000=
0142100465999992014011710204+54380+010145FM-15+003199999V0201501N003119999999N009999199+00601+00501999999ADDGA1041+007921991GE19MSL   +99999+99999GF199999041990007921991991MA1100001999990REMMET051METAR EDHK 171020Z 15006KT 9999 SCT026 06/05 Q1000=
0165100465999992014011710504+54380+010145FM-15+003199999V0201601N002610143319N009999199+00601+00501999999ADDGA1041+010061991GA2071+014331991GE19MSL   +99999+99999GF199999041990010061991991MA1100001999990REMMET058METAR EDHK 171050Z 16005KT 9999 SCT033 BKN047 06/05 Q1000=
0142100465999992014011711204+54380+010145FM-15+003199999V0201601N002610094519N009999199+00601+00501999999ADDGA1071+009451991GE19MSL   +99999+99999GF199999071990009451991991MA1100001999990REMMET051METAR EDHK 171120Z 16005KT 9999 BKN031 06/05 Q1000=
0142100465999992014011711504+54380+010145FM-15+003199999V0201601N002610094519N009999199+00701+00501999999ADDGA1071+009451991GE19MSL   +99999+99999GF199999071990009451991991MA1100001999990REMMET051METAR EDHK 171150Z 16005KT 9999 BKN031 07/05 Q1000=
0142100465999992014011712204+54380+010145FM-15+003199999V0201701N002119999999N009999199+00701+00501999999ADDGA1041+010971991GE19MSL   +99999+99999GF199999041990010971991991MA1100001999990REMMET051METAR EDHK 171220Z 17004KT 9999 SCT036 07/05 Q1000=
0142100465999992014011712504+54380+010145FM-15+003199999V0201701N002610118919N009999199+00701+00501999999ADDGA1071+011891991GE19MSL   +99999+99999GF199999071990011891991991MA1100001999990REMMET051METAR EDHK 171250Z 17005KT 9999 BKN039 07/05 Q1000=
0142100465999992014011713204+54380+010145FM-15+003199999V0201601N002610106719N009999199+00701+00501999999ADDGA1071+010671991GE19MSL   +99999+99999GF199999071990010671991991MA1100001999990REMMET051METAR EDHK 171320Z 16005KT 9999 BKN035 07/05 Q1000=
0072100465999992014011713504+54380+010145FM-15+003199999V0201601N002619999999Y999999999+00701+00501999999ADDMA1100001999990REMMET045METAR EDHK 171350Z 16005KT CAVOK 07/05 Q1000=
0142100465999992014011714204+54380+010145FM-15+003199999V0201601N002610131119N009999199+00701+00501999999ADDGA1071+013111991GE19MSL   +99999+99999GF199999071990013111991991MA1100001999990REMMET051METAR EDHK 171420Z 16005KT 9999 BKN043 07/05 Q1000=
0165100465999992014011714504+54380+010145FM-15+003199999V0201501N002110185919N009999199+00701+00501999999ADDGA1021+013411991GA2071+018591991GE19MSL   +99999+99999GF199999021990013411991991MA1100001999990REMMET058METAR EDHK 171450Z 15004KT 9999 FEW044 BKN061 07/05 Q1000=
0165100465999992014011715204+54380+010145FM-15+003199999V0201501N002110125019N009999199+00701+00501999999ADDGA1041+008841991GA2071+012501991GE19MSL   +99999+99999GF199999041990008841991991MA1100101999990REMMET058METAR EDHK 171520Z 15004KT 9999 SCT029 BKN041 07/05 Q1001=
0165100465999992014011807204+54380+010145FM-15+003199999V0201301N003110051819N008000199+00601+00501999999ADDGA1021+001521991GA2081+005181991GE19MSL   +99999+99999GF199999021990001521991991MA1100401999990REMMET058METAR EDHK 180720Z 13006KT 8000 FEW005 OVC017 06/05 Q1004=
0150100465999992014011807504+54380+010145FM-15+003199999V0201301V003110067119N008000199+00601+00501999999ADDGA1081+006711991GE19MSL   +99999+99999GF199999081990006711991991MA1100501999990REMMET059METAR EDHK 180750Z 13006KT 110V170 8000 OVC022 06/05 Q1005=
0188100465999992014011808204+54380+010145FM-15+003199999V0201301N003110079219N008000199+00601+00501999999ADDGA1021+002131991GA2071+007921991GA3081+010061991GE19MSL   +99999+99999GF199999021990002131991991MA1100501999990REMMET065METAR EDHK 180820Z 13006KT 8000 FEW007 BKN026 OVC033 06/05 Q1005=
0142100465999992014011808504+54380+010145FM-15+003199999V0201201N003110088419N009000199+00601+00501999999ADDGA1081+008841991GE19MSL   +99999+99999GF199999081990008841991991MA1100501999990REMMET051METAR EDHK 180850Z 12006KT 9000 OVC029 06/05 Q1005=
0165100465999992014011809204+54380+010145FM-15+003199999V0201101N003110091419N009000199+00601+00501999999ADDGA1021+001521991GA2081+009141991GE19MSL   +99999+99999GF199999021990001521991991MA1100501999990REMMET058METAR EDHK 180920Z 11006KT 9000 FEW005 OVC030 06/05 Q1005=
0165100465999992014011809504+54380+010145FM-15+003199999V0201101N003110167619N009000199+00601+00501999999ADDGA1021+001831991GA2081+016761991GE19MSL   +99999+99999GF199999021990001831991991MA1100501999990REMMET058METAR EDHK 180950Z 11006KT 9000 FEW006 OVC055 06/05 Q1005=
0165100465999992014011810204+54380+010145FM-15+003199999V0201201N003610167619N009999199+00601+00501999999ADDGA1021+001831991GA2071+016761991GE19MSL   +99999+99999GF199999021990001831991991MA1100501999990REMMET058METAR EDHK 181020Z 12007KT 9999 FEW006 BKN055 06/05 Q1005=
0165100465999992014011810504+54380+010145FM-15+003199999V0201201N003110173719N009999199+00601+00401999999ADDGA1021+002131991GA2071+017371991GE19MSL   +99999+99999GF199999021990002131991991MA1100501999990REMMET058METAR EDHK 181050Z 12006KT 9999 FEW007 BKN057 06/04 Q1005=
0165100465999992014011811204+54380+010145FM-15+003199999V0201201N003610176819N009999199+00601+00401999999ADDGA1021+002441991GA2071+017681991GE19MSL   +99999+99999GF199999021990002441991991MA1100501999990REMMET058METAR EDHK 181120Z 12007KT 9999 FEW008 BKN058 06/04 Q1005=
0165100465999992014011811504+54380+010145FM-15+003199999V0201101N003110173719N009999199+00601+00401999999ADDGA1041+012801991GA2081+017371991GE19MSL   +99999+99999GF199999041990012801991991MA1100501999990REMMET058METAR EDHK 181150Z 11006KT 9999 SCT042 OVC057 06/04 Q1005=
0188100465999992014011812204+54380+010145FM-15+003199999V0201101N003610155419N009999199+00601+00401999999ADDGA1041+013721991GA2071+015541991GA3081+017981991GE19MSL   +99999+99999GF199999041990013721991991MA1100501999990REMMET065METAR EDHK 181220Z 11007KT 9999 SCT045 BKN051 OVC059 06/04 Q1005=
0165100465999992014011813204+54380+010145FM-15+003199999V0201001N004110149419N009999199+00601+00401999999ADDGA1071+014941991GA2081+017681991GE19MSL   +99999+99999GF199999071990014941991991MA1100501999990REMMET058METAR EDHK 181320Z 10008KT 9999 BKN049 OVC058 06/04 Q1005=
0072100465999992014011813504+54380+010145FM-15+003199999V0201001N004619999999Y999999999+00601+00401999999ADDMA1100501999990REMMET045METAR EDHK 181350Z 10009KT CAVOK 06/04 Q1005=
0188100465999992014011814204+54380+010145FM-15+003199999V0201001N004610170719N009999199+00601+00401999999ADDGA1021+002131991GA2071+017071991GA3071+021641991GE19MSL   +99999+99999GF199999021990002131991991MA1100501999990REMMET065METAR EDHK 181420Z 10009KT 9999 FEW007 BKN056 BKN071 06/04 Q1005=
0188100465999992014011814504+54380+010145FM-15+003199999V0200901N004110176819N009999199+00501+00401999999ADDGA1041+002131991GA2071+017681991GA3071+039621991GE19MSL   +99999+99999GF199999041990002131991991MA1100601999990REMMET065METAR EDHK 181450Z 09008KT 9999 SCT007 BKN058 BKN130 05/04 Q1006=
0165100465999992014011815204+54380+010145FM-15+003199999V0200901N003610396219N009000199+00501+00401999999ADDGA1041+002441991GA2081+039621991GE19MSL   +99999+99999GF199999041990002441991991MA1100601999990REMMET058METAR EDHK 181520Z 09007KT 9000 SCT008 OVC130 05/04 Q1006=
0153100465999992014011907204+54380+010145FM-15+003199999V0200901N008810015219N008000199+00201+00101999999ADDGA1081+001521991GE19MSL   +99999+99999GF199999081990001521991991MA1100801999990OC101391REMMET054METAR EDHK 190720Z 09017G27KT 8000 OVC005 02/01 Q1008=
0142100465999992014011907504+54380+010145FM-15+003199999V0200901N009310015219N008000199+00201+00101999999ADDGA1081+001521991GE19MSL   +99999+99999GF199999081990001521991991MA1100801999990REMMET051METAR EDHK 190750Z 09018KT 8000 OVC005 02/01 Q1008=
0142100465999992014011908204+54380+010145FM-15+003199999V0200801N010310018319N008000199+00201+00101999999ADDGA1081+001831991GE19MSL   +99999+99999GF199999081990001831991991MA1100801999990REMMET051METAR EDHK 190820Z 08020KT 8000 OVC006 02/01 Q1008=
0153100465999992014011908504+54380+010145FM-15+003199999V0200901N010310018319N008000199+00201+00101999999ADDGA1081+001831991GE19MSL   +99999+99999GF199999081990001831991991MA1100801999990OC101541REMMET054METAR EDHK 190850Z 09020G30KT 8000 OVC006 02/01 Q1008=
0142100465999992014011909204+54380+010145FM-15+003199999V0200901N010310021319N009000199+00201+00101999999ADDGA1081+002131991GE19MSL   +99999+99999GF199999081990002131991991MA1100801999990REMMET051METAR EDHK 190920Z 09020KT 9000 OVC007 02/01 Q1008=
0142100465999992014011909504+54380+010145FM-15+003199999V0200901N009810018319N009000199+00201+00101999999ADDGA1081+001831991GE19MSL   +99999+99999GF199999081990001831991991MA1100801999990REMMET051METAR EDHK 190950Z 09019KT 9000 OVC006 02/01 Q1008=
0153100465999992014011910204+54380+010145FM-15+003199999V0200801N009810018319N008000199+00201+00101999999ADDGA1081+001831991GE19MSL   +99999+99999GF199999081990001831991991MA1100801999990OC101491REMMET054METAR EDHK 191020Z 08019G29KT 8000 OVC006 02/01 Q1008=
0142100465999992014011910504+54380+010145FM-15+003199999V0200901N009310018319N009000199+00201+00101999999ADDGA1081+001831991GE19MSL   +99999+99999GF199999081990001831991991MA1100801999990REMMET051METAR EDHK 191050Z 09018KT 9000 OVC006 02/01 Q1008=
0142100465999992014011911204+54380+010145FM-15+003199999V0200901N009810018319N008000199+00201+00101999999ADDGA1081+001831991GE19MSL   +99999+99999GF199999081990001831991991MA1100801999990REMMET051METAR EDHK 191120Z 09019KT 8000 OVC006 02/01 Q1008=
0142100465999992014011911504+54380+010145FM-15+003199999V0200901N008810018319N008000199+00201+00101999999ADDGA1081+001831991GE19MSL   +99999+99999GF199999081990001831991991MA1100801999990REMMET051METAR EDHK 191150Z 09017KT 8000 OVC006 02/01 Q1008=
0142100465999992014011912204+54380+010145FM-15+003199999V0200901N008810018319N008000199+00201+00101999999ADDGA1081+001831991GE19MSL   +99999+99999GF199999081990001831991991MA1100801999990REMMET051METAR EDHK 191220Z 09017KT 8000 OVC006 02/01 Q1008=
0153100465999992014011912504+54380+010145FM-15+003199999V0201001N008810021319N009000199+00201+00101999999ADDGA1081+002131991GE19MSL   +99999+99999GF199999081990002131991991MA1100801999990OC101391REMMET054METAR EDHK 191250Z 10017G27KT 9000 OVC007 02/01 Q1008=
0153100465999992014011913204+54380+010145FM-15+003199999V0201001N008810024419N009000199+00301+00101999999ADDGA1081+002441991GE19MSL   +99999+99999GF199999081990002441991991MA1100801999990OC101391REMMET054METAR EDHK 191320Z 10017G27KT 9000 OVC008 03/01 Q1008=
0153100465999992014011913504+54380+010145FM-15+003199999V0200901N010310030519N009000199+00301+00001999999ADDGA1081+003051991GE19MSL   +99999+99999GF199999081990003051991991MA1100801999990OC101751REMMET054METAR EDHK 191350Z 09020G34KT 9000 OVC010 03/00 Q1008=
0153100465999992014011914204+54380+010145FM-15+003199999V0201001N009310039619N009999199+00301+00001999999ADDGA1081+003961991GE19MSL   +99999+99999GF199999081990003961991991MA1100701999990OC101441REMMET054METAR EDHK 191420Z 10018G28KT 9999 OVC013 03/00 Q1007=
0142100465999992014011914504+54380+010145FM-15+003199999V0200901N009810042719N009999199+00301+00001999999ADDGA1081+004271991GE19MSL   +99999+99999GF199999081990004271991991MA1100701999990REMMET051METAR EDHK 191450Z 09019KT 9999 OVC014 03/00 Q1007=
0153100465999992014011915204+54380+010145FM-15+003199999V0201001N009810039619N009999199+00301+00001999999ADDGA1081+003961991GE19MSL   +99999+99999GF199999081990003961991991MA1100701999990OC101651REMMET054METAR EDHK 191520Z 10019G32KT 9999 OVC013 03/00 Q1007=
0143100465999992014012007204+54380+010145FM-15+003199999V0201001N006710021319N008000199+00001-00201999999ADDGA1081+002131991GE19MSL   +99999+99999GF199999081990002131991991MA1100801999990REMMET052METAR EDHK 200720Z 10013KT 8000 OVC007 00/M02 Q1008=
0143100465999992014012007504+54380+010145FM-15+003199999V0200901N005110021319N008000199+00001-00101999999ADDGA1081+002131991GE19MSL   +99999+99999GF199999081990002131991991MA1100801999990REMMET052METAR EDHK 200750Z 09010KT 8000 OVC007 00/M01 Q1008=
0143100465999992014012008204+54380+010145FM-15+003199999V0200901N007710021319N009000199+00001-00101999999ADDGA1081+002131991GE19MSL   +99999+99999GF199999081990002131991991MA1100901999990REMMET052METAR EDHK 200820Z 09015KT 9000 OVC007 00/M01 Q1009=
0143100465999992014012008504+54380+010145FM-15+003199999V0201001N006710021319N009999199+00001-00101999999ADDGA1081+002131991GE19MSL   +99999+99999GF199999081990002131991991MA1100901999990REMMET052METAR EDHK 200850Z 10013KT 9999 OVC007 00/M01 Q1009=
0143100465999992014012009204+54380+010145FM-15+003199999V0201001N006710021319N009999199+00001-00101999999ADDGA1081+002131991GE19MSL   +99999+99999GF199999081990002131991991MA1100901999990REMMET052METAR EDHK 200920Z 10013KT 9999 OVC007 00/M01 Q1009=
0143100465999992014012009504+54380+010145FM-15+003199999V0200901N007210021319N009999199+00001-00101999999ADDGA1081+002131991GE19MSL   +99999+99999GF199999081990002131991991MA1100901999990REMMET052METAR EDHK 200950Z 09014KT 9999 OVC007 00/M01 Q1009=
0143100465999992014012010204+54380+010145FM-15+003199999V0201001N006210021319N009999199+00001-00101999999ADDGA1081+002131991GE19MSL   +99999+99999GF199999081990002131991991MA1100901999990REMMET052METAR EDHK 201020Z 10012KT 9999 OVC007 00/M01 Q1009=
0143100465999992014012010504+54380+010145FM-15+003199999V0201001N005110021319N009999199+00001-00101999999ADDGA1081+002131991GE19MSL   +99999+99999GF199999081990002131991991MA1100901999990REMMET052METAR EDHK 201050Z 10010KT 9999 OVC007 00/M01 Q1009=
0153100465999992014012011204+54380+010145FM-15+003199999V0200901N005710024419N009999199+00001-00101999999ADDGA1081+002441991GE19MSL   +99999+99999GF199999081990002441991991MA1100901999990MW1511REMMET056METAR EDHK 201120Z 09011KT 9999 -DZ OVC008 00/M01 Q1009=
0153100465999992014012011504+54380+010145FM-15+003199999V0200901N006210021319N009999199+00001-00101999999ADDGA1081+002131991GE19MSL   +99999+99999GF199999081990002131991991MA1100901999990MW1511REMMET056METAR EDHK 201150Z 09012KT 9999 -DZ OVC007 00/M01 Q1009=
0153100465999992014012012204+54380+010145FM-15+003199999V0200901N005710015219N008000199+00001-00101999999ADDGA1081+001521991GE19MSL   +99999+99999GF199999081990001521991991MA1100901999990MW1511REMMET056METAR EDHK 201220Z 09011KT 8000 -DZ OVC005 00/M01 Q1009=
0153100465999992014012012504+54380+010145FM-15+003199999V0200901N006210015219N008000199+00001-00101999999ADDGA1081+001521991GE19MSL   +99999+99999GF199999081990001521991991MA1100901999990MW1611REMMET056METAR EDHK 201250Z 09012KT 8000 -RA OVC005 00/M01 Q1009=
0154100465999992014012013204+54380+010145FM-15+003199999V0200901N006210015219N008000199+00001-00101999999ADDGA1081+001521991GE19MSL   +99999+99999GF199999081990001521991991MA1100901999990MW1511REMMET057METAR EDHK 201320Z 09012KT 8000 -DZ OVC005 M00/M01 Q1009=
0144100465999992014012013504+54380+010145FM-15+003199999V0200901N006710015219N007000199+00001-00101999999ADDGA1081+001521991GE19MSL   +99999+99999GF199999081990001521991991MA1100901999990REMMET053METAR EDHK 201350Z 09013KT 7000 OVC005 M00/M01 Q1009=
0144100465999992014012014204+54380+010145FM-15+003199999V0200901N007210012219N006000199+00001-00101999999ADDGA1081+001221991GE19MSL   +99999+99999GF199999081990001221991991MA1100901999990REMMET053METAR EDHK 201420Z 09014KT 6000 OVC004 M00/M01 Q1009=
0144100465999992014012014504+54380+010145FM-15+003199999V0200901N006710012219N006000199+00001-00101999999ADDGA1081+001221991GE19MSL   +99999+99999GF199999081990001221991991MA1101001999990REMMET053METAR EDHK 201450Z 09013KT 6000 OVC004 M00/M01 Q1010=
0144100465999992014012015204+54380+010145FM-15+003199999V0200901N006210015219N007000199+00001-00101999999ADDGA1081+001521991GE19MSL   +99999+99999GF199999081990001521991991MA1101001999990REMMET053METAR EDHK 201520Z 09012KT 7000 OVC005 M00/M01 Q1010=
0188100465999992014012107204+54380+010145FM-15+003199999V0201101N004110051819N002000199-00101-00201999999ADDGA1041+001221991GA2081+005181991GE19MSL   +99999+99999GF199999041990001221991991MA1101201999990MW1101MW2561REMMET069METAR EDHK 210720Z 11008KT 2000 -FZDZ BR SCT004 OVC017 M01/M02 Q1012=
0213100465999992014012107504+54380+010145FM-15+003199999V0201101V003110048819N004000199-00101-00201999999ADDGA1021+001221991GA2071+004881991GA3081+009451991GE19MSL   +99999+99999GF199999021990001221991991MA1101301999990MW1711REMMET084METAR EDHK 210750Z 11006KT 080V150 4000 -SN FEW004 BKN016 OVC031 M01/M02      Q1013=
0200100465999992014012108504+54380+010145FM-15+003199999V0201001N004110057919N004000199-00101-00201999999ADDGA1021+001221991GA2071+005791991GA3081+010671991GE19MSL   +99999+99999GF199999021990001221991991MA1101301999990MW1711REMMET071METAR EDHK 210850Z 10008KT 4000 -SN FEW004 BKN019 OVC035 M01/M02 Q1013=
0200100465999992014012109204+54380+010145FM-15+003199999V0201001N003110054919N003500199-00101-00201999999ADDGA1041+000911991GA2071+005491991GA3081+006401991GE19MSL   +99999+99999GF199999041990000911991991MA1101301999990MW1711REMMET071METAR EDHK 210920Z 10006KT 3500 -SN SCT003 BKN018 OVC021 M01/M02 Q1013=
0200100465999992014012109504+54380+010145FM-15+003199999V0201101N004110061019N003000199-00101-00201999999ADDGA1041+001221991GA2071+006101991GA3081+010361991GE19MSL   +99999+99999GF199999041990001221991991MA1101401999990MW1711REMMET071METAR EDHK 210950Z 11008KT 3000 -SN SCT004 BKN020 OVC034 M01/M02 Q1014=
0214100465999992014012110204+54380+010145FM-15+003199999V0201101N003610051819N003500199-00101-00201999999ADDGA1041+001221991GA2071+005181991GA3081+009141991GE19MSL   +99999+99999GF199999041990001221991991MA1101401999990MW1101MW2711REMMET079METAR EDHK 211020Z 11007KT 3500 -SN BR SCT004 BKN017 OVC030 M01/M02      Q1014=
0177100465999992014012110504+54380+010145FM-15+003199999V0201101N003610051819N006000199-00101-00201999999ADDGA1021+001221991GA2081+005181991GE19MSL   +99999+99999GF199999021990001221991991MA1101301999990MW1711REMMET064METAR EDHK 211050Z 11007KT 6000 -SN FEW004 OVC017 M01/M02 Q1013=
0185100465999992014012111204+54380+010145FM-15+003199999V0201001V003110045719N008000199-00101-00201999999ADDGA1021+001831991GA2081+004571991GE19MSL   +99999+99999GF199999021990001831991991MA1101301999990MW1711REMMET072METAR EDHK 211120Z 10006KT 080V140 8000 -SN FEW006 OVC015 M01/M02 Q1013=
0177100465999992014012111504+54380+010145FM-15+003199999V0201101N003110042719N007000199-00101-00201999999ADDGA1021+002441991GA2081+004271991GE19MSL   +99999+99999GF199999021990002441991991MA1101301999990MW1711REMMET064METAR EDHK 211150Z 11006KT 7000 -SN FEW008 OVC014 M01/M02 Q1013=
0177100465999992014012112204+54380+010145FM-15+003199999V0201101N004110042719N008000199-00101-00201999999ADDGA1021+002131991GA2081+004271991GE19MSL   +99999+99999GF199999021990002131991991MA1101301999990MW1711REMMET064METAR EDHK 211220Z 11008KT 8000 -SN FEW007 OVC014 M01/M02 Q1013=
0185100465999992014012112504+54380+010145FM-15+003199999V0201101V004110042719N009000199-00101-00201999999ADDGA1021+002441991GA2081+004271991GE19MSL   +99999+99999GF199999021990002441991991MA1101301999990MW1711REMMET072METAR EDHK 211250Z 11008KT 090V150 9000 -SN FEW008 OVC014 M01/M02 Q1013=
0167100465999992014012113204+54380+010145FM-15+003199999V0201001N003110061019N009000199-00101-00201999999ADDGA1021+002131991GA2081+006101991GE19MSL   +99999+99999GF199999021990002131991991MA1101301999990REMMET060METAR EDHK 211320Z 10006KT 9000 FEW007 OVC020 M01/M02 Q1013=
0185100465999992014012113504+54380+010145FM-15+003199999V0201001V003110061019N009000199-00101-00201999999ADDGA1021+002441991GA2081+006101991GE19MSL   +99999+99999GF199999021990002441991991MA1101301999990MW1711REMMET072METAR EDHK 211350Z 10006KT 070V140 9000 -SN FEW008 OVC020 M01/M02 Q1013=
0214100465999992014012114204+54380+010145FM-15+003199999V0201101N00361006711CN003500199-00101-00201999999ADDGA1021+001831991GA2041+006711991GA3081+010361991GE19MSL   +99999+99999GF199999021990001831991991MA1101301999990MW1101MW2711REMMET079METAR EDHK 211420Z 11007KT 3500 -SN BR FEW006 SCT022 OVC034 M01/M02      Q1013=
0214100465999992014012114504+54380+010145FM-15+003199999V0201101N003610067119N001500199-00101-00201999999ADDGA1041+001521991GA2071+006711991GA3081+010361991GE19MSL   +99999+99999GF199999041990001521991991MA1101301999990MW1101MW2711REMMET079METAR EDHK 211450Z 11007KT 1500 -SN BR SCT005 BKN022 OVC034 M01/M02      Q1013=
0186100465999992014012115204+54380+010145FM-15+003199999V0201101N003610061019N001500199-00101-00201999999ADDGA1041+001221991GA2081+006101991GE19MSL   +99999+99999GF199999041990001221991991MA1101401999990MW1101MW2711REMMET067METAR EDHK 211520Z 11007KT 1500 -SN BR SCT004 OVC020 M01/M02 Q1014=
0144100465999992014012207204+54380+010145FM-15+003199999V0201101N007210030519N009999199-00401-00601999999ADDGA1081+003051991GE19MSL   +99999+99999GF199999081990003051991991MA1101601999990REMMET053METAR EDHK 220720Z 11014KT 9999 OVC010 M04/M06 Q1016=
0144100465999992014012207504+54380+010145FM-15+003199999V0201001N007210033519N009999199-00401-00601999999ADDGA1081+003351991GE19MSL   +99999+99999GF199999081990003351991991MA1101701999990REMMET053METAR EDHK 220750Z 10014KT 9999 OVC011 M04/M06 Q1017=
0144100465999992014012208204+54380+010145FM-15+003199999V0201001N006210033519N009999199-00401-00601999999ADDGA1081+003351991GE19MSL   +99999+99999GF199999081990003351991991MA1101701999990REMMET053METAR EDHK 220820Z 10012KT 9999 OVC011 M04/M06 Q1017=
0144100465999992014012208504+54380+010145FM-15+003199999V0201001N006210030519N009999199-00401-00601999999ADDGA1081+003051991GE19MSL   +99999+99999GF199999081990003051991991MA1101701999990REMMET053METAR EDHK 220850Z 10012KT 9999 OVC010 M04/M06 Q1017=
0144100465999992014012209204+54380+010145FM-15+003199999V0201101N008210030519N009999199-00301-00601999999ADDGA1081+003051991GE19MSL   +99999+99999GF199999081990003051991991MA1101701999990REMMET053METAR EDHK 220920Z 11016KT 9999 OVC010 M03/M06 Q1017=
0144100465999992014012209504+54380+010145FM-15+003199999V0201101N007710036619N009999199-00301-00601999999ADDGA1081+003661991GE19MSL   +99999+99999GF199999081990003661991991MA1101701999990REMMET053METAR EDHK 220950Z 11015KT 9999 OVC012 M03/M06 Q1017=
0152100465999992014012210204+54380+010145FM-15+003199999V0201001V008210036619N009999199-00301-00601999999ADDGA1081+003661991GE19MSL   +99999+99999GF199999081990003661991991MA1101801999990REMMET061METAR EDHK 221020Z 10016KT 070V130 9999 OVC012 M03/M06 Q1018=
0144100465999992014012210504+54380+010145FM-15+003199999V0201001N008210033519N009999199-00401-00601999999ADDGA1081+003351991GE19MSL   +99999+99999GF199999081990003351991991MA1101801999990REMMET053METAR EDHK 221050Z 10016KT 9999 OVC011 M04/M06 Q1018=
0144100465999992014012211204+54380+010145FM-15+003199999V0201001N006710030519N009999199-00401-00601999999ADDGA1081+003051991GE19MSL   +99999+99999GF199999081990003051991991MA1101701999990REMMET053METAR EDHK 221120Z 10013KT 9999 OVC010 M04/M06 Q1017=
0144100465999992014012211504+54380+010145FM-15+003199999V0201101N006210027419N009999199-00401-00601999999ADDGA1081+002741991GE19MSL   +99999+99999GF199999081990002741991991MA1101701999990REMMET053METAR EDHK 221150Z 11012KT 9999 OVC009 M04/M06 Q1017=
0144100465999992014012212204+54380+010145FM-15+003199999V0201001N005710027419N009999199-00301-00501999999ADDGA1081+002741991GE19MSL   +99999+99999GF199999081990002741991991MA1101701999990REMMET053METAR EDHK 221220Z 10011KT 9999 OVC009 M03/M05 Q1017=
0144100465999992014012212504+54380+010145FM-15+003199999V0201001N007710030519N009999199-00401-00601999999ADDGA1081+003051991GE19MSL   +99999+99999GF199999081990003051991991MA1101701999990REMMET053METAR EDHK 221250Z 10015KT 9999 OVC010 M04/M06 Q1017=
0144100465999992014012213204+54380+010145FM-15+003199999V0201101N006210030519N009999199-00301-00501999999ADDGA1081+003051991GE19MSL   +99999+99999GF199999081990003051991991MA1101701999990REMMET053METAR EDHK 221320Z 11012KT 9999 OVC010 M03/M05 Q1017=
0144100465999992014012213504+54380+010145FM-15+003199999V0201201N006710030519N009999199-00301-00501999999ADDGA1081+003051991GE19MSL   +99999+99999GF199999081990003051991991MA1101701999990REMMET053METAR EDHK 221350Z 12013KT 9999 OVC010 M03/M05 Q1017=
0152100465999992014012214204+54380+010145FM-15+003199999V0201101V006710030519N009999199-00301-00501999999ADDGA1081+003051991GE19MSL   +99999+99999GF199999081990003051991991MA1101701999990REMMET061METAR EDHK 221420Z 11013KT 080V150 9999 OVC010 M03/M05 Q1017=
0144100465999992014012214504+54380+010145FM-15+003199999V0201101N006210030519N009999199-00301-00501999999ADDGA1081+003051991GE19MSL   +99999+99999GF199999081990003051991991MA1101801999990REMMET053METAR EDHK 221450Z 11012KT 9999 OVC010 M03/M05 Q1018=
0171100465999992014012307204+54380+010145FM-15+003199999V0201301N006210195119N009999199-00301-00701999999ADDGA1041+006401991GA2071+019511991GE19MSL   +99999+99999GF199999041990006401991991MA1101901999990REMMET064METAR COR EDHK 230720Z 13012KT 9999 SCT021 BKN064 M03/M07 Q1019=
0186100465999992014012307504+54380+010145FM-15+003199999V0201301V006210195119N009999199-00301-00701999999ADDGA1041+006401991GA2071+019511991GE19MSL   +99999+99999GF199999041990006401991991MA1101901999990OC101181REMMET071METAR EDHK 230750Z 13012G23KT 100V160 9999 SCT021 BKN064 M03/M07 Q1019=
0178100465999992014012308204+54380+010145FM-15+003199999V0201301N007210195119N009999199-00301-00701999999ADDGA1041+005791991GA2071+019511991GE19MSL   +99999+99999GF199999041990005791991991MA1101901999990OC101241REMMET063METAR EDHK 230820Z 13014G24KT 9999 SCT019 BKN064 M03/M07 Q1019=
0175100465999992014012308504+54380+010145FM-15+003199999V0201301V005710051819N009999199-00301-00701999999ADDGA1071+005181991GA2071+019811991GE19MSL   +99999+99999GF199999071990005181991991MA1101901999990REMMET068METAR EDHK 230850Z 13011KT 100V160 9999 BKN017 BKN065 M03/M07 Q1019=
0144100465999992014012309204+54380+010145FM-15+003199999V0201301N006710048819N009999199-00301-00701999999ADDGA1071+004881991GE19MSL   +99999+99999GF199999071990004881991991MA1101901999990REMMET053METAR EDHK 230920Z 13013KT 9999 BKN016 M03/M07 Q1019=
0152100465999992014012309504+54380+010145FM-15+003199999V0201401V006710048819N009999199-00301-00701999999ADDGA1081+004881991GE19MSL   +99999+99999GF199999081990004881991991MA1101901999990REMMET061METAR EDHK 230950Z 14013KT 110V170 9999 OVC016 M03/M07 Q1019=
0152100465999992014012310204+54380+010145FM-15+003199999V0201401V006710051819N009999199-00401-00701999999ADDGA1081+005181991GE19MSL   +99999+99999GF199999081990005181991991MA1101901999990REMMET061METAR EDHK 231020Z 14013KT 110V170 9999 OVC017 M04/M07 Q1019=
0152100465999992014012310504+54380+010145FM-15+003199999V0201301V006210051819N009999199-00401-00701999999ADDGA1081+005181991GE19MSL   +99999+99999GF199999081990005181991991MA1101901999990REMMET061METAR EDHK 231050Z 13012KT 100V160 9999 OVC017 M04/M07 Q1019=
0152100465999992014012311204+54380+010145FM-15+003199999V0201401V006710048819N009999199-00401-00701999999ADDGA1081+004881991GE19MSL   +99999+99999GF199999081990004881991991MA1101801999990REMMET061METAR EDHK 231120Z 14013KT 110V170 9999 OVC016 M04/M07 Q1018=
0144100465999992014012311504+54380+010145FM-15+003199999V0201401N007210048819N009999199-00401-00701999999ADDGA1081+004881991GE19MSL   +99999+99999GF199999081990004881991991MA1101801999990REMMET053METAR EDHK 231150Z 14014KT 9999 OVC016 M04/M07 Q1018=
0144100465999992014012312204+54380+010145FM-15+003199999V0201301N007710051819N009999199-00401-00701999999ADDGA1071+005181991GE19MSL   +99999+99999GF199999071990005181991991MA1101801999990REMMET053METAR EDHK 231220Z 13015KT 9999 BKN017 M04/M07 Q1018=
0175100465999992014012312504+54380+010145FM-15+003199999V0201301V007210051819N009999199-00401-00701999999ADDGA1071+005181991GA2071+007321991GE19MSL   +99999+99999GF199999071990005181991991MA1101801999990REMMET068METAR EDHK 231250Z 13014KT 100V170 9999 BKN017 BKN024 M04/M07 Q1018=
0177100465999992014012313504+54380+010145FM-15+003199999V0201301N006210051819N009999199-00401-00701999999ADDGA1071+005181991GA2071+007621991GE19MSL   +99999+99999GF199999071990005181991991MA1101701999990MW1711REMMET064METAR EDHK 231350Z 13012KT 9999 -SN BKN017 BKN025 M04/M07 Q1017=
0175100465999992014012314204+54380+010145FM-15+003199999V0201301V006210076219N009999199-00401-00701999999ADDGA1041+005491991GA2081+007621991GE19MSL   +99999+99999GF199999041990005491991991MA1101701999990REMMET068METAR EDHK 231420Z 13012KT 100V170 9999 SCT018 OVC025 M04/M07 Q1017=
0167100465999992014012314504+54380+010145FM-15+003199999V0201301N005710079219N009999199-00301-00701999999ADDGA1021+005491991GA2071+007921991GE19MSL   +99999+99999GF199999021990005491991991MA1101601999990REMMET060METAR EDHK 231450Z 13011KT 9999 FEW018 BKN026 M03/M07 Q1016=
0175100465999992014012315204+54380+010145FM-15+003199999V0201301V008210088419N009999199-00401-00801999999ADDGA1021+005181991GA2071+008841991GE19MSL   +99999+99999GF199999021990005181991991MA1101701999990REMMET068METAR EDHK 231520Z 13016KT 100V160 9999 FEW017 BKN029 M04/M08 Q1017=
0144100465999992014012407204+54380+010145FM-15+003199999V0201001N006210042719N009000199-00501-00801999999ADDGA1081+004271991GE19MSL   +99999+99999GF199999081990004271991991MA1101901999990REMMET053METAR EDHK 240720Z 10012KT 9000 OVC014 M05/M08 Q1019=
0152100465999992014012407504+54380+010145FM-15+003199999V0201001V007210042719N009999199-00601-00801999999ADDGA1071+004271991GE19MSL   +99999+99999GF199999071990004271991991MA1101901999990REMMET061METAR EDHK 240750Z 10014KT 070V130 9999 BKN014 M06/M08 Q1019=
0144100465999992014012408204+54380+010145FM-15+003199999V0201101N007710036619N009999199-00601-00901999999ADDGA1071+003661991GE19MSL   +99999+99999GF199999071990003661991991MA1102001999990REMMET053METAR EDHK 240820Z 11015KT 9999 BKN012 M06/M09 Q1020=
0144100465999992014012408504+54380+010145FM-15+003199999V0201001N006719999999N009000199-00601-00901999999ADDGA1021+003351991GE19MSL   +99999+99999GF199999021990003351991991MA1102001999990REMMET053METAR EDHK 240850Z 10013KT 9000 FEW011 M06/M09 Q1020=
0144100465999992014012409204+54380+010145FM-15+003199999V0201101N006219999999N009999199-00501-00801999999ADDGA1021+004271991GE19MSL   +99999+99999GF199999021990004271991991MA1102101999990REMMET053METAR EDHK 240920Z 11012KT 9999 FEW014 M05/M08 Q1021=
0152100465999992014012409504+54380+010145FM-15+003199999V0201001V005719999999N009999199-00501-00801999999ADDGA1021+004271991GE19MSL   +99999+99999GF199999021990004271991991MA1102101999990REMMET061METAR EDHK 240950Z 10011KT 070V130 9999 FEW014 M05/M08 Q1021=
0144100465999992014012410204+54380+010145FM-15+003199999V0200901N007719999999N009999199-00501-00801999999ADDGA1041+004271991GE19MSL   +99999+99999GF199999041990004271991991MA1102101999990REMMET053METAR EDHK 241020Z 09015KT 9999 SCT014 M05/M08 Q1021=
0144100465999992014012410504+54380+010145FM-15+003199999V0200901N008219999999N009999199-00501-00801999999ADDGA1041+003661991GE19MSL   +99999+99999GF199999041990003661991991MA1102101999990REMMET053METAR EDHK 241050Z 09016KT 9999 SCT012 M05/M08 Q1021=
0144100465999992014012411204+54380+010145FM-15+003199999V0201001N005719999999N009999199-00601-00901999999ADDGA1041+003351991GE19MSL   +99999+99999GF199999041990003351991991MA1102101999990REMMET053METAR EDHK 241120Z 10011KT 9999 SCT011 M06/M09 Q1021=
0144100465999992014012411504+54380+010145FM-15+003199999V0201001N005710033519N009000199-00601-00801999999ADDGA1071+003351991GE19MSL   +99999+99999GF199999071990003351991991MA1102101999990REMMET053METAR EDHK 241150Z 10011KT 9000 BKN011 M06/M08 Q1021=
0144100465999992014012412204+54380+010145FM-15+003199999V0201201N007719999999N009999199-00701-01001999999ADDGA1041+003661991GE19MSL   +99999+99999GF199999041990003661991991MA1102101999990REMMET053METAR EDHK 241220Z 12015KT 9999 SCT012 M07/M10 Q1021=
0144100465999992014012412504+54380+010145FM-15+003199999V0201101N005719999999N006000199-00601-00901999999ADDGA1021+004571991GE19MSL   +99999+99999GF199999021990004571991991MA1102101999990REMMET053METAR EDHK 241250Z 11011KT 6000 FEW015 M06/M09 Q1021=
0144100465999992014012413204+54380+010145FM-15+003199999V0201001N007219999999N007000199-00601-00901999999ADDGA1021+004571991GE19MSL   +99999+99999GF199999021990004571991991MA1102101999990REMMET053METAR EDHK 241320Z 10014KT 7000 FEW015 M06/M09 Q1021=
0144100465999992014012413504+54380+010145FM-15+003199999V0201001N005719999999N007000199-00601-00901999999ADDGA1021+004571991GE19MSL   +99999+99999GF199999021990004571991991MA1102201999990REMMET053METAR EDHK 241350Z 10011KT 7000 FEW015 M06/M09 Q1022=
0107100465999992014012414204+54380+010145FM-15+003199999V0201001N007212200019N008000199-00601-00901999999ADDGF100991999999999999999999MA1102201999990REMMET054METAR COR EDHK 241420Z 10014KT 8000 NSC M06/M09 Q1022=
0107100465999992014012414504+54380+010145FM-15+003199999V0201001N006212200019N008000199-00501-00901999999ADDGF100991999999999999999999MA1102301999990REMMET054METAR COR EDHK 241450Z 10012KT 8000 NSC M05/M09 Q1023=
0107100465999992014012415204+54380+010145FM-15+003199999V0201001N005112200019N009000199-00501-00901999999ADDGF100991999999999999999999MA1102301999990REMMET054METAR COR EDHK 241520Z 10010KT 9000 NSC M05/M09 Q1023=
0074100465999992014012507204+54380+010145FM-15+003199999V0201201N004119999999Y999999999-00901-01201999999ADDMA1102401999990REMMET047METAR EDHK 250720Z 12008KT CAVOK M09/M12 Q1024=
0074100465999992014012507504+54380+010145FM-15+003199999V0201301N003619999999Y999999999-00901-01201999999ADDMA1102401999990REMMET047METAR EDHK 250750Z 13007KT CAVOK M09/M12 Q1024=
0082100465999992014012508204+54380+010145FM-15+003199999V0201401V004119999999Y999999999-00901-01201999999ADDMA1102501999990REMMET055METAR EDHK 250820Z 14008KT 100V170 CAVOK M09/M12 Q1025=
