0126100465999992010010100204+54367+010133FM-15+0031EDHK V0200401N006710360019N0112651N1-00101-00701999999ADDGA1071+036001999GF107991999999999999999999MA1100001999999REMMET057METAR EDHK 010020Z 04013KT 9999 BKN120 M01/M07 Q1000 BLU;
0126100465999992010010101204+54367+010133FM-15+0031EDHK V0200501N006210300019N0112651N1-00101-00701999999ADDGA1071+030001999GF107991999999999999999999MA1100001999999REMMET057METAR EDHK 010120Z 05012KT 9999 BKN100 M01/M07 Q1000 BLU;
0126100465999992010010102204+54367+010133FM-15+0031EDHK V0200401N006210300019N0112651N1-00101-00501999999ADDGA1071+030001999GF107991999999999999999999MA1100001999999REMMET057METAR EDHK 010220Z 04012KT 9999 BKN100 M01/M05 Q1000 BLU;
0149100465999992010010103204+54367+010133FM-15+0031EDHK V0200401N005110300019N0112651N1-00201-00501999999ADDGA1041+004501999GA2071+030001999GF107991999999999999999999MA1100001999999REMMET064METAR EDHK 010320Z 04010KT 9999 SCT015 BKN100 M02/M05 Q1000 BLU;
0149100465999992010010104204+54367+010133FM-15+0031EDHK V0200301N006210045019N0112651N1-00201-00501999999ADDGA1071+004501999GA2071+030001999GF107991999999999999999999MA1100001999999REMMET064METAR EDHK 010420Z 03012KT 9999 BKN015 BKN100 M02/M05 Q1000 WHT;
0149100465999992010010105204+54367+010133FM-15+0031EDHK V0200401N005110060019N0112651N1-00201-00501999999ADDGA1041+003001999GA2071+006001999GF107991999999999999999999MA1100001999999REMMET064METAR EDHK 010520Z 04010KT 9999 SCT010 BKN020 M02/M05 Q1000 WHT;
0149100465999992010010106204+54367+010133FM-15+0031EDHK V0200401N004110045019N0112651N1-00201-00501999999ADDGA1041+003001999GA2071+004501999GF107991999999999999999999MA1100001999999REMMET064METAR EDHK 010620Z 04008KT 9999 SCT010 BKN015 M02/M05 Q1000 WHT;
0149100465999992010010107204+54367+010133FM-15+0031EDHK V0200301N004610060019N0112651N1-00201-00501999999ADDGA1021+003001999GA2071+006001999GF107991999999999999999999MA1100001999999REMMET064METAR EDHK 010720Z 03009KT 9999 FEW010 BKN020 M02/M05 Q1000 WHT;
0149100465999992010010108204+54367+010133FM-15+0031EDHK V0200301N004610060019N0112651N1-00201-00601999999ADDGA1071+006001999GA2071+030001999GF107991999999999999999999MA1100001999999REMMET064METAR EDHK 010820Z 03009KT 9999 BKN020 BKN100 M02/M06 Q1000 WHT;
0149100465999992010010109204+54367+010133FM-15+0031EDHK V0200401N005110060019N0112651N1-00201-00501999999ADDGA1071+006001999GA2071+036001999GF107991999999999999999999MA1100101999999REMMET064METAR EDHK 010920Z 04010KT 9999 BKN020 BKN120 M02/M05 Q1001 WHT;
0126100465999992010010110204+54367+010133FM-15+0031EDHK V0200401N005110060019N0112651N1-00201-00501999999ADDGA1071+006001999GF107991999999999999999999MA1100101999999REMMET057METAR EDHK 011020Z 04010KT 9999 BKN020 M02/M05 Q1001 WHT;
0126100465999992010010111204+54367+010133FM-15+0031EDHK V0200201N004110042019N0112651N1-00201-00501999999ADDGA1071+004201999GF107991999999999999999999MA1100101999999REMMET057METAR EDHK 011120Z 02008KT 9999 BKN014 M02/M05 Q1001 GRN;
0149100465999992010010112204+54367+010133FM-15+0031EDHK V0200301N004110051019N0112651N1-00201-00601999999ADDGA1071+005101999GA2071+033001999GF107991999999999999999999MA1100101999999REMMET064METAR EDHK 011220Z 03008KT 9999 BKN017 BKN110 M02/M06 Q1001 WHT;
0126100465999992010010113204+54367+010133FM-15+0031EDHK V0200201N004610036019N0112651N1-00301-00501999999ADDGA1071+003601999GF107991999999999999999999MA1100201999999REMMET057METAR EDHK 011320Z 02009KT 9999 BKN012 M03/M05 Q1002 GRN;
0126100465999992010010114204+54367+010133FM-15+0031EDHK V0200201N004610033019N0112651N1-00301-00601999999ADDGA1071+003301999GF107991999999999999999999MA1100201999999REMMET057METAR EDHK 011420Z 02009KT 9999 BKN011 M03/M06 Q1002 GRN;
0126100465999992010010115204+54367+010133FM-15+0031EDHK V0203601N003610024019N0090001N1-00301-00501999999ADDGA1071+002401999GF107991999999999999999999MA1100311999999REMMET057METAR EDHK 011520Z 36007KT 9000 BKN008 M03/M05 Q1003 GRN;
0136100465999992010010116204+54367+010133FM-15+0031EDHK V0200201N003110021019N0060001N1-00301-00401999999ADDGA1071+002101999GF107991999999999999999999MA1100311999999MW1711REMMET061METAR EDHK 011620Z 02006KT 6000 -SN BKN007 M03/M04 Q1003 GRN;
0136100465999992010010117204+54367+010133FM-15+0031EDHK V0200201N004110021019N0060001N1-00201-00401999999ADDGA1071+002101999GF107991999999999999999999MA1100411999999MW1711REMMET061METAR EDHK 011720Z 02008KT 6000 -SN BKN007 M02/M04 Q1004 GRN;
0136100465999992010010118204+54367+010133FM-15+0031EDHK V0200201N003610027019N0070001N1-00201-00401999999ADDGA1071+002701999GF107991999999999999999999MA1100411999999MW1711REMMET061METAR EDHK 011820Z 02007KT 7000 -SN BKN009 M02/M04 Q1004 GRN;
0136100465999992010010119204+54367+010133FM-15+0031EDHK V0200101N004110039019N0070001N1-00201-00501999999ADDGA1071+003901999GF107991999999999999999999MA1100511999999MW1711REMMET061METAR EDHK 011920Z 01008KT 7000 -SN BKN013 M02/M05 Q1005 GRN;
0126100465999992010010120204+54367+010133FM-15+0031EDHK V0200101N003110039019N0080001N1-00201-00501999999ADDGA1071+003901999GF107991999999999999999999MA1100511999999REMMET057METAR EDHK 012020Z 01006KT 8000 BKN013 M02/M05 Q1005 GRN;
0126100465999992010010121204+54367+010133FM-15+0031EDHK V0200101N003610039019N0112651N1-00201-00501999999ADDGA1071+003901999GF107991999999999999999999MA1100611999999REMMET057METAR EDHK 012120Z 01007KT 9999 BKN013 M02/M05 Q1006 GRN;
0126100465999992010010122204+54367+010133FM-15+0031EDHK V0200301N003610045019N0112651N1-00201-00501999999ADDGA1071+004501999GF107991999999999999999999MA1100611999999REMMET057METAR EDHK 012220Z 03007KT 9999 BKN015 M02/M05 Q1006 WHT;
0126100465999992010010123204+54367+010133FM-15+0031EDHK V0200201N003110060019N0112651N1-00201-00501999999ADDGA1071+006001999GF107991999999999999999999MA1100711999999REMMET057METAR EDHK 012320Z 02006KT 9999 BKN020 M02/M05 Q1007 WHT;
0126100465999992010010200204+54367+010133FM-15+0031EDHK V0200101N003110060019N0112651N1-00301-00601999999ADDGA1071+006001999GF107991999999999999999999MA1100711999999REMMET057METAR EDHK 020020Z 01006KT 9999 BKN020 M03/M06 Q1007 WHT;
0126100465999992010010201204+54367+010133FM-15+0031EDHK V0200101N002610060019N0112651N1-00301-00701999999ADDGA1071+006001999GF107991999999999999999999MA1100811999999REMMET057METAR EDHK 020120Z 01005KT 9999 BKN020 M03/M07 Q1008 WHT;
0126100465999992010010202204+54367+010133FM-15+0031EDHK V0200201N003110066019N0112651N1-00301-00701999999ADDGA1071+006601999GF107991999999999999999999MA1100811999999REMMET057METAR EDHK 020220Z 02006KT 9999 BKN022 M03/M07 Q1008 WHT;
0126100465999992010010203204+54367+010133FM-15+0031EDHK V0200201N003110075019N0112651N1-00301-00601999999ADDGA1071+007501999GF107991999999999999999999MA1100911999999REMMET057METAR EDHK 020320Z 02006KT 9999 BKN025 M03/M06 Q1009 BLU;
0126100465999992010010204204+54367+010133FM-15+0031EDHK V0200101N002110099019N0112651N1-00301-00601999999ADDGA1071+009901999GF107991999999999999999999MA1100911999999REMMET057METAR EDHK 020420Z 01004KT 9999 BKN033 M03/M06 Q1009 BLU;
0149100465999992010010205204+54367+010133FM-15+0031EDHK V0203401N002110150019N0112651N1-00301-00601999999ADDGA1021+009001999GA2071+015001999GF107991999999999999999999MA1101021999999REMMET064METAR EDHK 020520Z 34004KT 9999 FEW030 BKN050 M03/M06 Q1010 BLU;
0159100465999992010010206204+54367+010133FM-15+0031EDHK V0200101N001510120019N0112651N1-00301-00601999999ADDGA1041+005401999GA2071+012001999GF107991999999999999999999MA1101081999999MW1711REMMET068METAR EDHK 020620Z 01003KT 9999 -SN SCT018 BKN040 M03/M06 Q1011 BLU;
0126100465999992010010207204+54367+010133FM-15+0031EDHK V0203301N001510060019N0112651N1-00301-00601999999ADDGA1071+006001999GF107991999999999999999999MA1101191999999REMMET057METAR EDHK 020720Z 33003KT 9999 BKN020 M03/M06 Q1012 WHT;
0142100465999992010010208204+54367+010133FM-15+0031EDHK V0202901N00211007501CN0112651N1-00301-00601999999ADDGA1071+007501999GA2041+015001999MA1101191999999REMMET064METAR EDHK 020820Z 29004KT 9999 BKN025 SCT050 M03/M06 Q1012 BLU;EQDQ01+000042SCOTCV
0150100465999992010010209204+54367+010133FM-15+0031EDHK V0203001N002112200019N0112651N1-00301-00501999999ADDGA1041+008401999GA2041+015001999GF104991999999999999999999MA1101291999999REMMET065METAR EDHK 020920Z 30004KT 9999 SCT028 SCT050 M03/M05 Q1013 BLU/;
0172100465999992010010210204+54367+010133FM-15+0031EDHK V0202801N00211012001CN0112651N1-00301-00501999999ADDGA1021+003001999GA2041+012001999GA3071+021001999GF107991999999999999999999MA1101391999999REMMET071METAR EDHK 021020Z 28004KT 9999 FEW010 SCT040 BKN070 M03/M05 Q1014 BLU;
0182100465999992010010211204+54367+010133FM-15+0031EDHK V0202801N00261015001CN0112651N1-00201-00501999999ADDGA1021+003601999GA2041+015001999GA3071+021001999GF107991999999999999999999MA1101391999999MW1711REMMET075METAR EDHK 021120Z 28005KT 9999 -SN FEW012 SCT050 BKN070 M02/M05 Q1014 BLU;
0172100465999992010010212204+54367+010133FM-15+0031EDHK V0202701N00261005401CN0112651N1-00201-00601999999ADDGA1021+003601999GA2041+005401999GA3071+015001999GF107991999999999999999999MA1101491999999REMMET071METAR EDHK 021220Z 27005KT 9999 FEW012 SCT018 BKN050 M02/M06 Q1015 BLU;
0168100465999992010010213204+54367+010133FM-15+0031EDHK V0203401N003110060019N0045001N1-00201-00501999999ADDGA1021+003001999GA2071+006001999GF107991999999999999999999MA1101491999999MW1101MW2711REMMET071METAR EDHK 021320Z 34006KT 4500 -SN BR FEW010 BKN020 M02/M05 Q1015 GRN;
0168100465999992010010213394+54367+010133FM-16+0031EDHK V0203401N003110060019N0030001N1-00201-00401999999ADDGA1021+003001999GA2071+006001999GF107991999999999999999999MA1101491999999MW1101MW2711REMMET071SPECI EDHK 021339Z 34006KT 3000 -SN BR FEW010 BKN020 M02/M04 Q1015 YLO;
0188100465999992010010213504+54367+010133FM-16+0031EDHK V0203301N002610060019N0018001N1-00201-00401999999ADDED199U19009GA1021+003001999GA2071+006001999GF107991999999999999999999MA1101591999999MW1101MW2731REMMET080SPECI EDHK 021350Z 33005KT 1800 R26/1900D SN BR FEW010 BKN020 M02/M04 Q1016 YLO;
0188100465999992010010214204+54367+010133FM-15+0031EDHK V0203101N003110060019N0014001N1-00301-00401999999ADDED199U17009GA1021+003001999GA2071+006001999GF107991999999999999999999MA1101591999999MW1101MW2731REMMET080METAR EDHK 021420Z 31006KT 1400 R26/1700D SN BR FEW010 BKN020 M03/M04 Q1016 AMB;
0173100465999992010010215114+54367+010133FM-16+0031EDHK V0202901N003110048019N0030001N1-00301-00401999999ADDGA1021+003001999GA2071+004801999GF107991999999999999999999MA1101591999999MW1101MW2711REMMET076SPECI EDHK 021511Z 29006KT 3000 -SN BR FEW010 BKN016 M03/M04 Q1016 RESN YLO;
0173100465999992010010215204+54367+010133FM-15+0031EDHK V0202801N003610045019N0030001N1-00301-00401999999ADDGA1021+003001999GA2071+004501999GF107991999999999999999999MA1101591999999MW1101MW2711REMMET076METAR EDHK 021520Z 28007KT 3000 -SN BR FEW010 BKN015 M03/M04 Q1016 RESN YLO;
0188100465999992010010215314+54367+010133FM-16+0031EDHK V0202801N003110045019N0014001N1-00301-00401999999ADDED199U23009GA1021+003001999GA2071+004501999GF107991999999999999999999MA1101591999999MW1101MW2731REMMET080SPECI EDHK 021531Z 28006KT 1400 R26/2300D SN BR FEW010 BKN015 M03/M04 Q1016 AMB;
0188100465999992010010216204+54367+010133FM-15+0031EDHK V0202901N003110015019N0012001N1-00301-00401999999ADDED199U22009GA1071+001501999GA2071+003601999GF107991999999999999999999MA1101691999999MW1101MW2731REMMET080METAR EDHK 021620Z 29006KT 1200 R26/2200U SN BR BKN005 BKN012 M03/M04 Q1017 AMB;
0173100465999992010010216504+54367+010133FM-16+0031EDHK V0202501N003110024019N0025001N1-00301-00401999999ADDGA1041+001501999GA2071+002401999GF107991999999999999999999MA1101691999999MW1101MW2711REMMET076SPECI EDHK 021650Z 25006KT 2500 -SN BR SCT005 BKN008 M03/M04 Q1017 RESN YLO;
0146100465999992010010217094+54367+010133FM-16+0031EDHK V0202401N004610012019N0008001N1-00301-00401999999ADDGA1071+001201999GF107991999999999999999999MA1101591999999MW1481MW2731REMMET065SPECI EDHK 021709Z 24009KT 0800 SN FZFG BKN004 M03/M04 Q1016 AMB;
0173100465999992010010217204+54367+010133FM-15+0031EDHK V0202701N004110018019N0030001N1-00301-00401999999ADDGA1041+001201999GA2071+001801999GF107991999999999999999999MA1101591999999MW1101MW2711REMMET076METAR EDHK 021720Z 27008KT 3000 -SN BR SCT004 BKN006 M03/M04 Q1016 RESN YLO;
0149100465999992010010217424+54367+010133FM-16+0031EDHK V0200801N001510060019N0060001N1-00201-00301999999ADDGA1041+001801999GA2071+006001999GF107991999999999999999999MA1101691999999REMMET064SPECI EDHK 021742Z 08003KT 6000 SCT006 BKN020 M02/M03 Q1017 WHT;
0168100465999992010010218204+54367+010133FM-15+0031EDHK V0202101N002610048019N0050001N1-00301-00401999999ADDGA1021+001801999GA2071+004801999GF107991999999999999999999MA1101691999999MW1101MW2711REMMET071METAR EDHK 021820Z 21005KT 5000 -SN BR FEW006 BKN016 M03/M04 Q1017 WHT;
0168100465999992010010218404+54367+010133FM-16+0031EDHK V0202201N002610048019N0017001N1-00301-00401999999ADDGA1041+001201999GA2071+004801999GF107991999999999999999999MA1101691999999MW1101MW2711REMMET071SPECI EDHK 021840Z 22005KT 1700 -SN BR SCT004 BKN016 M03/M04 Q1017 YLO;
0146100465999992010010219204+54367+010133FM-15+0031EDHK V0202801N001510009019N0004001N1-00401-00401999999ADDGA1071+000901999GF107991999999999999999999MA1101691999999MW1481MW2731REMMET065METAR EDHK 021920Z 28003KT 0400 SN FZFG BKN003 M04/M04 Q1017 RED;
0150100465999992010010220204+54367+010133FM-15+0031EDHK V0202201N001010012019N0020001N1-00301-00401999999ADDGA1071+001201999GF107991999999999999999999MA1101801999999MW1101MW2711REMMET069METAR EDHK 022020Z 22002KT 2000 -SN BR BKN004 M03/M04 Q1018 RESN YLO;
0146100465999992010010220374+54367+010133FM-16+0031EDHK V0202801N001510012019N0004001N1-00401-00401999999ADDGA1071+001201999GF107991999999999999999999MA1101801999999MW1481MW2731REMMET065SPECI EDHK 022037Z 28003KT 0400 SN FZFG BKN004 M04/M04 Q1018 RED;
0146100465999992010010221204+54367+010133FM-15+0031EDHK V0201201N000510012019N0004001N1-00301-00401999999ADDGA1071+001201999GF107991999999999999999999MA1101801999999MW1481MW2731REMMET065METAR EDHK 022120Z 12001KT 0400 SN FZFG BKN004 M03/M04 Q1018 RED;
0173100465999992010010222204+54367+010133FM-15+0031EDHK V0201101N001510012019N0020001N1-00301-00301999999ADDGA1071+001201999GA2071+010201999GF107991999999999999999999MA1101801999999MW1101MW2711REMMET076METAR EDHK 022220Z 11003KT 2000 -SN BR BKN004 BKN034 M03/M03 Q1018 RESN YLO;
0145100465999992010010223204+54367+010133FM-15+0031EDHK V0200901N001010015019N0013001N1-00301-00301999999ADDGA1071+001501999GF107991999999999999999999MA1101901999999MW1101MW2711REMMET064METAR EDHK 022320Z 09002KT 1300 -SN BR BKN005 M03/M03 Q1019 AMB;
0145100465999992010010300204+54367+010133FM-15+0031EDHK V0201101N002110012019N0013001N1-00201-00301999999ADDGA1071+001201999GF107991999999999999999999MA1101901999999MW1101MW2711REMMET064METAR EDHK 030020Z 11004KT 1300 -SN BR BKN004 M02/M03 Q1019 AMB;
0145100465999992010010301204+54367+010133FM-15+0031EDHK V0200701N003610018019N0022001N1-00201-00201999999ADDGA1071+001801999GF107991999999999999999999MA1101901999999MW1101MW2711REMMET064METAR EDHK 030120Z 07007KT 2200 -SN BR BKN006 M02/M02 Q1019 YLO;
0145100465999992010010302204+54367+010133FM-15+0031EDHK V0200501N007210018019N0035001N1-00201-00301999999ADDGA1071+001801999GF107991999999999999999999MA1101901999999MW1101MW2711REMMET064METAR EDHK 030220Z 05014KT 3500 -SN BR BKN006 M02/M03 Q1019 YLO;
0145100465999992010010303204+54367+010133FM-15+0031EDHK V0200501N006210015019N0035001N1-00301-00401999999ADDGA1071+001501999GF107991999999999999999999MA1102001999999MW1101MW2711REMMET064METAR EDHK 030320Z 05012KT 3500 -SN BR BKN005 M03/M04 Q1020 YLO;
0145100465999992010010303404+54367+010133FM-16+0031EDHK V0200501N006710030019N0040001N1-00301-00501999999ADDGA1071+003001999GF107991999999999999999999MA1102001999999MW1101MW2711REMMET064SPECI EDHK 030340Z 05013KT 4000 -SN BR BKN010 M03/M05 Q1020 GRN;
0168100465999992010010304204+54367+010133FM-15+0031EDHK V0200501N005710036019N0050001N1-00301-00501999999ADDGA1071+003601999GA2071+006001999GF107991999999999999999999MA1102001999999MW1101MW2711REMMET071METAR EDHK 030420Z 05011KT 5000 -SN BR BKN012 BKN020 M03/M05 Q1020 GRN;
0159100465999992010010305204+54367+010133FM-15+0031EDHK V0200601N006210066019N0070001N1-00301-00601999999ADDGA1021+003601999GA2071+006601999GF107991999999999999999999MA1102001999999MW1711REMMET068METAR EDHK 030520Z 06012KT 7000 -SN FEW012 BKN022 M03/M06 Q1020 WHT;
0149100465999992010010306204+54367+010133FM-15+0031EDHK V0200501N004610066019N0090001N1-00301-00601999999ADDGA1021+003901999GA2071+006601999GF107991999999999999999999MA1102001999999REMMET064METAR EDHK 030620Z 05009KT 9000 FEW013 BKN022 M03/M06 Q1020 WHT;
0149100465999992010010307204+54367+010133FM-15+0031EDHK V0200501N005110042019N0090001N1-00401-00601999999ADDGA1071+004201999GA2071+006601999GF107991999999999999999999MA1102001999999REMMET064METAR EDHK 030720Z 05010KT 9000 BKN014 BKN022 M04/M06 Q1020 GRN;
0141100465999992010010308204+54367+010133FM-15+0031EDHK V0200601N004610033019N0080001N1-00401-00601999999ADDGA1071+003301999GF107991999999999999999999MA1102101999999MW1711REMMET066METAR EDHK 030820Z 06009KT 8000 -SN BKN011 M04/M06 Q1021 BLACKGRN;
0141100465999992010010309204+54367+010133FM-15+0031EDHK V0200501N004110030019N0080001N1-00401-00601999999ADDGA1071+003001999GF107991999999999999999999MA1102101999999MW1711REMMET066METAR EDHK 030920Z 05008KT 8000 -SN BKN010 M04/M06 Q1021 BLACKGRN;
0131100465999992010010310204+54367+010133FM-15+0031EDHK V0200701N002610036019N0112651N1-00401-00601999999ADDGA1071+003601999GF107991999999999999999999MA1102101999999REMMET062METAR EDHK 031020Z 07005KT 9999 BKN012 M04/M06 Q1021 BLACKGRN;
0126100465999992010010311204+54367+010133FM-15+0031EDHK V0200201N002610045019N0112651N1-00401-00701999999ADDGA1071+004501999GF107991999999999999999999MA1102101999999REMMET057METAR EDHK 031120Z 02005KT 9999 BKN015 M04/M07 Q1021 WHT;
0126100465999992010010312204+54367+010133FM-15+0031EDHK V0203601N001510045019N0112651N1-00401-00601999999ADDGA1071+004501999GF107991999999999999999999MA1102101999999REMMET057METAR EDHK 031220Z 36003KT 9999 BKN015 M04/M06 Q1021 WHT;
0126100465999992010010313204+54367+010133FM-15+0031EDHK V0202901N002610054019N0112651N1-00401-00701999999ADDGA1071+005401999GF107991999999999999999999MA1102101999999REMMET057METAR EDHK 031320Z 29005KT 9999 BKN018 M04/M07 Q1021 WHT;
0126100465999992010010314204+54367+010133FM-15+0031EDHK V0203201N002610063019N0112651N1-00501-00801999999ADDGA1071+006301999GF107991999999999999999999MA1102101999999REMMET057METAR EDHK 031420Z 32005KT 9999 BKN021 M05/M08 Q1021 WHT;
0150100465999992010010315204+54367+010133FM-15+0031EDHK V0203001N002112200019N0112651N1-00801-01001999999ADDGA1041+006601999GA2041+084001999GF104991999999999999999999MA1102101999999REMMET065METAR EDHK 031520Z 30004KT 9999 SCT022 SCT280 M08/M10 Q1021 BLU/;
0150100465999992010010316204+54367+010133FM-15+0031EDHK V0202801N002612200019N0112651N1-01001-01101999999ADDGA1021+006601999GA2041+060001999GF104991999999999999999999MA1102101999999REMMET065METAR EDHK 031620Z 28005KT 9999 FEW022 SCT200 M10/M11 Q1021 BLU/;
0127100465999992010010317204+54367+010133FM-15+0031EDHK V0202701N002112200019N0112651N1-01101-01201999999ADDGA1021+006601999GF102991999999999999999999MA1102101999999REMMET058METAR EDHK 031720Z 27004KT 9999 FEW022 M11/M12 Q1021 BLU/;
0127100465999992010010318204+54367+010133FM-15+0031EDHK V0202701N002612200019N0112651N1-01101-01201999999ADDGA1041+005701999GF104991999999999999999999MA1102101999999REMMET058METAR EDHK 031820Z 27005KT 9999 SCT019 M11/M12 Q1021 BLU/;
0138100465999992010010319204+54367+010133FM-15+0031EDHK V0202401N001512200019N0112651N1-01101-01301999999ADDGA1021+004501999GF102991999999999999999999MA1102101999999MW1121REMMET063METAR EDHK 031920Z 24003KT 9999 MIFG FEW015 M11/M13 Q1021 BLU/;
0138100465999992010010320204+54367+010133FM-15+0031EDHK V0202201N001512200019N0112651N1-01101-01201999999ADDGA1021+004501999GF102991999999999999999999MA1102001999999MW1121REMMET063METAR EDHK 032020Z 22003KT 9999 MIFG FEW015 M11/M12 Q1020 BLU/;
0138100465999992010010321204+54367+010133FM-15+0031EDHK V0202301N001512200019N0112651N1-01101-01201999999ADDGA1021+004501999GF102991999999999999999999MA1102001999999MW1121REMMET063METAR EDHK 032120Z 23003KT 9999 MIFG FEW015 M11/M12 Q1020 BLU/;
0149100465999992010010322204+54367+010133FM-15+0031EDHK V0202301N002110120019N0112651N1-00901-01001999999ADDGA1021+006001999GA2071+012001999GF107991999999999999999999MA1102001999999REMMET064METAR EDHK 032220Z 23004KT 9999 FEW020 BKN040 M09/M10 Q1020 BLU;
0149100465999992010010323204+54367+010133FM-15+0031EDHK V0202201N002610126019N0112651N1-00801-01001999999ADDGA1021+006001999GA2071+012601999GF107991999999999999999999MA1101901999999REMMET064METAR EDHK 032320Z 22005KT 9999 FEW020 BKN042 M08/M10 Q1019 BLU;
0149100465999992010010400204+54367+010133FM-15+0031EDHK V0202301N003110126019N0112651N1-00701-00801999999ADDGA1021+006001999GA2071+012601999GF107991999999999999999999MA1101901999999REMMET064METAR EDHK 040020Z 23006KT 9999 FEW020 BKN042 M07/M08 Q1019 BLU;
0172100465999992010010401204+54367+010133FM-15+0031EDHK V0202301N00361009001CN0112651N1-00601-00701999999ADDGA1021+004201999GA2041+009001999GA3071+014401999GF107991999999999999999999MA1101801999999REMMET071METAR EDHK 040120Z 23007KT 9999 FEW014 SCT030 BKN048 M06/M07 Q1018 BLU;
0149100465999992010010402204+54367+010133FM-15+0031EDHK V0202201N002610105019N0112651N1-00701-00801999999ADDGA1021+003001999GA2071+010501999GF107991999999999999999999MA1101691999999REMMET064METAR EDHK 040220Z 22005KT 9999 FEW010 BKN035 M07/M08 Q1017 BLU;
0149100465999992010010403204+54367+010133FM-15+0031EDHK V0202101N003110105019N0112651N1-00601-00701999999ADDGA1021+003001999GA2071+010501999GF107991999999999999999999MA1101591999999REMMET064METAR EDHK 040320Z 21006KT 9999 FEW010 BKN035 M06/M07 Q1016 BLU;
0172100465999992010010404204+54367+010133FM-15+0031EDHK V0202201N00411010501CN0112651N1-00501-00701999999ADDGA1021+004501999GA2041+010501999GA3071+015001999GF107991999999999999999999MA1101491999999REMMET071METAR EDHK 040420Z 22008KT 9999 FEW015 SCT035 BKN050 M05/M07 Q1015 BLU;
0163100465999992010010405204+54367+010133FM-15+0031EDHK V0202201N003610126019N0112651N1-00401-00601999999ADDGA1021+006001999GA2071+012601999GF107991999999999999999999MA1101491999999REMMET078METAR EDHK 040520Z 22007KT 9999 FEW020 BKN042 M04/M06 Q1015 BLU BLU TEMPO YLO;
0181100465999992010010406094+54367+010133FM-16+0031EDHK V0202201N004610105019N0030001N1-00401-00601999999ADDGA1021+006001999GA2071+010501999GF107991999999999999999999MA1101391999999MW1101MW2731REMMET084SPECI EDHK 040609Z 22009KT 3000 SN BR FEW020 BKN035 M04/M06 Q1014 YLO BLU TEMPO YLO;
0187100465999992010010406204+54367+010133FM-15+0031EDHK V0202201N004110105019N0050001N1-00401-00601999999ADDGA1021+006001999GA2071+010501999GF107991999999999999999999MA1101391999999MW1101MW2711REMMET090METAR EDHK 040620Z 22008KT 5000 -SN BR FEW020 BKN035 M04/M06 Q1014 RESN WHT BLU TEMPO YLO;
0182100465999992010010406434+54367+010133FM-16+0031EDHK V0202101N004610105019N0040001N1-00501-00601999999ADDGA1021+006001999GA2071+010501999GF107991999999999999999999MA1101391999999MW1101MW2711REMMET085SPECI EDHK 040643Z 21009KT 4000 -SN BR FEW020 BKN035 M05/M06 Q1014 GRN BLU TEMPO YLO;
0196100465999992010010407204+54367+010133FM-15+0031EDHK V0202101N00461007501CN0060001N1-00501-00601999999ADDGA1021+003001999GA2041+007501999GA3071+012001999GF107991999999999999999999MA1101391999999MW1711REMMET089METAR EDHK 040720Z 21009KT 6000 -SN FEW010 SCT025 BKN040 M05/M06 Q1014 WHT BLU TEMPO YLO;
0163100465999992010010408204+54367+010133FM-15+0031EDHK V0202201N004110135019N0060001N1-00401-00601999999ADDGA1021+003001999GA2071+013501999GF107991999999999999999999MA1101291999999REMMET078METAR EDHK 040820Z 22008KT 6000 FEW010 BKN045 M04/M06 Q1013 WHT BLU TEMPO YLO;
0173100465999992010010409204+54367+010133FM-15+0031EDHK V0202201N005710135019N0060001N1-00401-00601999999ADDGA1041+003001999GA2071+013501999GF107991999999999999999999MA1101291999999MW1711REMMET082METAR EDHK 040920Z 22011KT 6000 -SN SCT010 BKN045 M04/M06 Q1013 WHT BLU TEMPO YLO;
0181100465999992010010410044+54367+010133FM-16+0031EDHK V0202301N005710135019N0025001N1-00401-00501999999ADDGA1021+003001999GA2071+013501999GF107991999999999999999999MA1101191999999MW1101MW2731REMMET084SPECI EDHK 041004Z 23011KT 2500 SN BR FEW010 BKN045 M04/M05 Q1012 YLO BLU TEMPO AMB;
0202100465999992010010410204+54367+010133FM-15+0031EDHK V0202201N004610135019N0015001N1-00401-00501999999ADDED199U12009GA1021+003001999GA2071+013501999GF107991999999999999999999MA1101191999999MW1101MW2731REMMET094METAR EDHK 041020Z 22009KT 1500 R26/1200N SN BR FEW010 BKN045 M04/M05 Q1012 AMB BLU TEMPO AMB;
0210100465999992010010410374+54367+010133FM-16+0031EDHK V0202201N00461006001CN0035001N1-00401-00501999999ADDGA1021+003001999GA2041+006001999GA3071+013501999GF107991999999999999999999MA1101081999999MW1101MW2711REMMET097SPECI EDHK 041037Z 22009KT 3500 -SN BR FEW010 SCT020 BKN045 M04/M05 Q1011 RESN YLO BLU TEMPO AMB;
0225100465999992010010410504+54367+010133FM-16+0031EDHK V0202201N00461006001CN0020001N1-00401-00501999999ADDED199U16009GA1021+003001999GA2041+006001999GA3071+013501999GF107991999999999999999999MA1101081999999MW1101MW2731REMMET101SPECI EDHK 041050Z 22009KT 2000 R26/1600D SN BR FEW010 SCT020 BKN045 M04/M05 Q1011 YLO BLU TEMPO AMB;
0225100465999992010010411034+54367+010133FM-16+0031EDHK V0202201N00461006001CN0015001N1-00401-00501999999ADDED199U10009GA1021+001501999GA2041+006001999GA3071+013501999GF107991999999999999999999MA1101081999999MW1101MW2731REMMET101SPECI EDHK 041103Z 22009KT 1500 R26/1000N SN BR FEW005 SCT020 BKN045 M04/M05 Q1011 AMB BLU TEMPO AMB;
0202100465999992010010411204+54367+010133FM-15+0031EDHK V0202301N004110015019N0015001N1-00401-00501999999ADDED199U09009GA1071+001501999GA2071+006001999GF107991999999999999999999MA1101081999999MW1101MW2731REMMET094METAR EDHK 041120Z 23008KT 1500 R26/0900D SN BR BKN005 BKN020 M04/M05 Q1011 AMB BLU TEMPO AMB;
0187100465999992010010411404+54367+010133FM-16+0031EDHK V0202301N004610030019N0032001N1-00401-00401999999ADDGA1041+001501999GA2071+003001999GF107991999999999999999999MA1101081999999MW1101MW2711REMMET090SPECI EDHK 041140Z 23009KT 3200 -SN BR SCT005 BKN010 M04/M04 Q1011 RESN YLO BLU TEMPO AMB;
0177100465999992010010412204+54367+010133FM-15+0031EDHK V0202301N004610039019N0040001N1-00301-00401999999ADDGA1041+001801999GA2071+003901999GF107991999999999999999999MA1101021999999MW1101REMMET086METAR EDHK 041220Z 23009KT 4000 BR SCT006 BKN013 M03/M04 Q1010 RESN GRN BLU TEMPO AMB;
0149100465999992010010413204+54367+010133FM-15+0031EDHK V0202401N005110018019N0045001N1-00301-00401999999ADDGA1071+001801999GF107991999999999999999999MA1101021999999MW1101REMMET074METAR EDHK 041320Z 24010KT 4500 BR BKN006 M03/M04 Q1010 YLO BLU TEMPO AMB;
0149100465999992010010414204+54367+010133FM-15+0031EDHK V0202301N004610018019N0045001N1-00301-00401999999ADDGA1071+001801999GF107991999999999999999999MA1101021999999MW1101REMMET074METAR EDHK 041420Z 23009KT 4500 BR BKN006 M03/M04 Q1010 YLO YLO BECMG GRN;
0172100465999992010010415204+54367+010133FM-15+0031EDHK V0202301N003610015019N0032001N1-00301-00401999999ADDGA1021+000901999GA2071+001501999GF107991999999999999999999MA1100911999999MW1101REMMET081METAR EDHK 041520Z 23007KT 3200 BR FEW003 BKN005 M03/M04 Q1009 YLO GRN TEMPO YLO;
0149100465999992010010416204+54367+010133FM-15+0031EDHK V0202301N004110012019N0033001N1-00201-00301999999ADDGA1071+001201999GF107991999999999999999999MA1100911999999MW1101REMMET074METAR EDHK 041620Z 23008KT 3300 BR BKN004 M02/M03 Q1009 YLO GRN TEMPO YLO;
0149100465999992010010417204+54367+010133FM-15+0031EDHK V0202201N004110006019N0023001N1-00201-00301999999ADDGA1071+000601999GF107991999999999999999999MA1100911999999MW1101REMMET074METAR EDHK 041720Z 22008KT 2300 BR BKN002 M02/M03 Q1009 AMB YLO TEMPO RED;
0170100465999992010010417284+54367+010133FM-16+0031EDHK V0202201N004110006019N0011001N1-00201-00301999999ADDED199U31009GA1071+000601999GF107991999999999999999999MA1100911999999MW1101REMMET084SPECI EDHK 041728Z 22008KT 1100 R26/3100U BR BKN002 M02/M03 Q1009 AMB YLO TEMPO RED;
0171100465999992010010418204+54367+010133FM-15+0031EDHK V0202201N003610003019N0008001N1-00201-00201999999ADDED199U27009GA1091+000301999GF109991999999000251999999MA1100911999999MW1491REMMET085METAR EDHK 041820Z 22007KT 0800 R26/2700N FZFG VV001 M02/M02 Q1009 RED YLO TEMPO RED;
0149100465999992010010418504+54367+010133FM-16+0031EDHK V0202201N004610006019N0025001N1-00201-00201999999ADDGA1071+000601999GF107991999999999999999999MA1100911999999MW1101REMMET074SPECI EDHK 041850Z 22009KT 2500 BR BKN002 M02/M02 Q1009 AMB YLO TEMPO RED;
0147100465999992010010419204+54367+010133FM-15+0031EDHK V0202301N004610006019N0025001N1-00301-00301999999ADDGA1071+000601999GF107991999999999999999999MA1100911999999MW1101REMMET072METAR EDHK 041920Z 23009KT 2500 BR BKN002 M03/M03 Q1009 AMB FCST CANCEL;
0135100465999992010010420204+54367+010133FM-15+0031EDHK V0202301N003610006019N0025001N1-00201-00201999999ADDGA1071+000601999GF107991999999999999999999MA1100811999999MW1101REMMET060METAR EDHK 042020Z 23007KT 2500 BR BKN002 M02/M02 Q1008 AMB;
0135100465999992010010421204+54367+010133FM-15+0031EDHK V0202201N004110006019N0020001N1-00201-00201999999ADDGA1071+000601999GF107991999999999999999999MA1100811999999MW1101REMMET060METAR EDHK 042120Z 22008KT 2000 BR BKN002 M02/M02 Q1008 AMB;
0136100465999992010010422004+54367+010133FM-15+0031EDHK V0202201N003610003019N0008001N1-00201-00201999999ADDGA1091+000301999GF109991999999000251999999MA1100811999999MW1491REMMET061SPECI EDHK 042159Z 22007KT 0800 FZFG VV001 M02/M02 Q1008 RED;
0136100465999992010010422204+54367+010133FM-15+0031EDHK V0202201N004110003019N0008001N1-00201-00201999999ADDGA1091+000301999GF109991999999000251999999MA1100811999999MW1491REMMET061METAR EDHK 042220Z 22008KT 0800 FZFG VV001 M02/M02 Q1008 RED;
0136100465999992010010423204+54367+010133FM-15+0031EDHK V0202201N003610003019N0008001N1-00201-00201999999ADDGA1091+000301999GF109991999999000251999999MA1100811999999MW1491REMMET061METAR EDHK 042320Z 22007KT 0800 FZFG VV001 M02/M02 Q1008 RED;
0136100465999992010010500204+54367+010133FM-15+0031EDHK V0202201N003610001519N0006001N1-00201-00201999999ADDGA1091+000151999GF109991999999000251999999MA1100711999999MW1491REMMET061METAR EDHK 050020Z 22007KT 0600 FZFG VV000 M02/M02 Q1007 RED;
0136100465999992010010501204+54367+010133FM-15+0031EDHK V0202201N003610001519N0006001N1-00201-00201999999ADDGA1091+000151999GF109991999999000251999999MA1100711999999MW1491REMMET061METAR EDHK 050120Z 22007KT 0600 FZFG VV000 M02/M02 Q1007 RED;
0136100465999992010010502204+54367+010133FM-15+0031EDHK V0202201N004610001519N0005001N1-00201-00201999999ADDGA1091+000151999GF109991999999000251999999MA1100711999999MW1491REMMET061METAR EDHK 050220Z 22009KT 0500 FZFG VV000 M02/M02 Q1007 RED;
0136100465999992010010503204+54367+010133FM-15+0031EDHK V0202001N002610001519N0005001N1-00201-00201999999ADDGA1091+000151999GF109991999999000251999999MA1100611999999MW1491REMMET061METAR EDHK 050320Z 20005KT 0500 FZFG VV000 M02/M02 Q1006 RED;
0136100465999992010010504204+54367+010133FM-15+0031EDHK V0202101N003610001519N0005001N1-00301-00301999999ADDGA1091+000151999GF109991999999000251999999MA1100611999999MW1491REMMET061METAR EDHK 050420Z 21007KT 0500 FZFG VV000 M03/M03 Q1006 RED;
0140100465999992010010505204+54367+010133FM-15+0031EDHK V0202001N003110003019N0008001N1-00201-00201999999ADDGA1091+000301999GF109991999999000251999999MA1100611999999MW1491REMMET065METAR EDHK 050520Z 20006KT 0800 FZFG VV001 M02/M02 Q1006 RED RED;
0149100465999992010010505484+54367+010133FM-16+0031EDHK V0202001N004110006019N0011001N1-00301-00301999999ADDGA1081+000601999GF108991999999999999999999MA1100611999999MW1101REMMET074SPECI EDHK 050548Z 20008KT 1100 BR OVC002 M03/M03 Q1006 AMB RED TEMPO AMB;
0149100465999992010010506204+54367+010133FM-15+0031EDHK V0202001N003110006019N0020001N1-00301-00301999999ADDGA1071+000601999GF107991999999999999999999MA1100511999999MW1101REMMET074METAR EDHK 050620Z 20006KT 2000 BR BKN002 M03/M03 Q1005 AMB RED TEMPO AMB;
0149100465999992010010506374+54367+010133FM-16+0031EDHK V0202001N003610009019N0020001N1-00301-00301999999ADDGA1071+000901999GF107991999999999999999999MA1100511999999MW1101REMMET074SPECI EDHK 050637Z 20007KT 2000 BR BKN003 M03/M03 Q1005 YLO RED TEMPO AMB;
0149100465999992010010507204+54367+010133FM-15+0031EDHK V0202001N003610012019N0021001N1-00301-00301999999ADDGA1071+001201999GF107991999999999999999999MA1100511999999MW1101REMMET074METAR EDHK 050720Z 20007KT 2100 BR BKN004 M03/M03 Q1005 YLO RED TEMPO YLO;
0172100465999992010010508204+54367+010133FM-15+0031EDHK V0201901N003610012019N0023001N1-00301-00301999999ADDGA1021+000601999GA2071+001201999GF107991999999999999999999MA1100511999999MW1101REMMET081METAR EDHK 050820Z 19007KT 2300 BR FEW002 BKN004 M03/M03 Q1005 YLO YLO TEMPO RED;
0149100465999992010010509204+54367+010133FM-15+0031EDHK V0201901N003110012019N0028001N1-00201-00201999999ADDGA1071+001201999GF107991999999999999999999MA1100511999999MW1101REMMET074METAR EDHK 050920Z 19006KT 2800 BR BKN004 M02/M02 Q1005 YLO YLO TEMPO RED;
0149100465999992010010510204+54367+010133FM-15+0031EDHK V0202001N003610015019N0032001N1-00201-00301999999ADDGA1071+001501999GF107991999999999999999999MA1100511999999MW1101REMMET074METAR EDHK 051020Z 20007KT 3200 BR BKN005 M02/M03 Q1005 YLO YLO TEMPO RED;
0149100465999992010010511204+54367+010133FM-15+0031EDHK V0201901N004110015019N0033001N1-00201-00201999999ADDGA1071+001501999GF107991999999999999999999MA1100411999999MW1101REMMET074METAR EDHK 051120Z 19008KT 3300 BR BKN005 M02/M02 Q1004 YLO GRN TEMPO AMB;
0149100465999992010010511544+54367+010133FM-16+0031EDHK V0201901N004110018019N0035001N1-00101-00201999999ADDGA1071+001801999GF107991999999999999999999MA1100411999999MW1101REMMET074SPECI EDHK 051154Z 19008KT 3500 BR BKN006 M01/M02 Q1004 YLO GRN TEMPO AMB;
0159100465999992010010512204+54367+010133FM-15+0031EDHK V0201901N003110021019N0030001N1-00101-00201999999ADDGA1071+002101999GF107991999999999999999999MA1100411999999MW1101MW2711REMMET078METAR EDHK 051220Z 19006KT 3000 -SN BR BKN007 M01/M02 Q1004 YLO GRN TEMPO AMB;
0180100465999992010010512444+54367+010133FM-16+0031EDHK V0201801N003110018019N0020001N1-00101-00201999999ADDED199U14009GA1071+001801999GF107991999999999999999999MA1100411999999MW1101MW2711REMMET088SPECI EDHK 051244Z 18006KT 2000 R26/1400D -SN BR BKN006 M01/M02 Q1004 YLO GRN TEMPO AMB;
0180100465999992010010513204+54367+010133FM-15+0031EDHK V0201801N003110018019N0018001N1-00101-00201999999ADDED199U14009GA1071+001801999GF107991999999999999999999MA1100411999999MW1101MW2711REMMET088METAR EDHK 051320Z 18006KT 1800 R26/1400N -SN BR BKN006 M01/M02 Q1004 YLO GRN TEMPO AMB;
0159100465999992010010514204+54367+010133FM-15+0031EDHK V0201901N003110021019N0025001N1-00101-00201999999ADDGA1071+002101999GF107991999999999999999999MA1100311999999MW1101MW2711REMMET078METAR EDHK 051420Z 19006KT 2500 -SN BR BKN007 M01/M02 Q1003 YLO GRN TEMPO AMB;
0159100465999992010010515204+54367+010133FM-15+0031EDHK V0201801N003110021019N0020001N1-00101-00201999999ADDGA1071+002101999GF107991999999999999999999MA1100311999999MW1101MW2711REMMET078METAR EDHK 051520Z 18006KT 2000 -SN BR BKN007 M01/M02 Q1003 YLO GRN TEMPO AMB;
0149100465999992010010515474+54367+010133FM-16+0031EDHK V0201801N004110024019N0040001N1-00101-00201999999ADDGA1071+002401999GF107991999999999999999999MA1100311999999MW1101REMMET074SPECI EDHK 051547Z 18008KT 4000 BR BKN008 M01/M02 Q1003 GRN GRN TEMPO AMB;
0149100465999992010010516204+54367+010133FM-15+0031EDHK V0201801N004110027019N0050001N1-00201-00301999999ADDGA1071+002701999GF107991999999999999999999MA1100311999999MW1101REMMET074METAR EDHK 051620Z 18008KT 5000 BR BKN009 M02/M03 Q1003 GRN GRN TEMPO AMB;
0149100465999992010010517204+54367+010133FM-15+0031EDHK V0201901N003110027019N0050001N1-00201-00301999999ADDGA1071+002701999GF107991999999999999999999MA1100411999999MW1101REMMET074METAR EDHK 051720Z 19006KT 5000 BR BKN009 M02/M03 Q1004 GRN GRN TEMPO AMB;
0147100465999992010010518004+54367+010133FM-16+0031EDHK V0201901N003110024019N0050001N1-00201-00301999999ADDGA1071+002401999GF107991999999999999999999MA1100411999999MW1101REMMET072SPECI EDHK 051800Z 19006KT 5000 BR BKN008 M02/M03 Q1004 GRN FCST CANCEL;
0135100465999992010010518204+54367+010133FM-15+0031EDHK V0202001N003110024019N0050001N1-00201-00301999999ADDGA1071+002401999GF107991999999999999999999MA1100411999999MW1101REMMET060METAR EDHK 051820Z 20006KT 5000 BR BKN008 M02/M03 Q1004 GRN;
0135100465999992010010519204+54367+010133FM-15+0031EDHK V0201801N003110018019N0050001N1-00201-00301999999ADDGA1071+001801999GF107991999999999999999999MA1100311999999MW1101REMMET060METAR EDHK 051920Z 18006KT 5000 BR BKN006 M02/M03 Q1003 YLO;
0135100465999992010010520204+54367+010133FM-15+0031EDHK V0201801N003610012019N0045001N1-00201-00301999999ADDGA1071+001201999GF107991999999999999999999MA1100411999999MW1101REMMET060METAR EDHK 052020Z 18007KT 4500 BR BKN004 M02/M03 Q1004 YLO;
0158100465999992010010521204+54367+010133FM-15+0031EDHK V0201701N003610015019N0047001N1-00201-00301999999ADDGA1071+001501999GA2071+003301999GF107991999999999999999999MA1100311999999MW1101REMMET067METAR EDHK 052120Z 17007KT 4700 BR BKN005 BKN011 M02/M03 Q1003 YLO;
0168100465999992010010521314+54367+010133FM-16+0031EDHK V0201701N004110033019N0040001N1-00201-00301999999ADDGA1041+001501999GA2071+003301999GF107991999999999999999999MA1100311999999MW1101MW2711REMMET071SPECI EDHK 052131Z 17008KT 4000 -SN BR SCT005 BKN011 M02/M03 Q1003 GRN;
0158100465999992010010522204+54367+010133FM-15+0031EDHK V0201701N003610033019N0050001N1-00201-00401999999ADDGA1041+002101999GA2071+003301999GF107991999999999999999999MA1100311999999MW1101REMMET067METAR EDHK 052220Z 17007KT 5000 BR SCT007 BKN011 M02/M04 Q1003 GRN;
0145100465999992010010522424+54367+010133FM-16+0031EDHK V0201701N003110021019N0040001N1-00201-00401999999ADDGA1071+002101999GF107991999999999999999999MA1100311999999MW1101MW2711REMMET064SPECI EDHK 052242Z 17006KT 4000 -SN BR BKN007 M02/M04 Q1003 GRN;
0145100465999992010010523204+54367+010133FM-15+0031EDHK V0201701N003610021019N0045001N1-00201-00401999999ADDGA1071+002101999GF107991999999999999999999MA1100311999999MW1101MW2711REMMET064METAR EDHK 052320Z 17007KT 4500 -SN BR BKN007 M02/M04 Q1003 GRN;
0158100465999992010010600204+54367+010133FM-15+0031EDHK V0201801N004110021019N0050001N1-00201-00401999999ADDGA1071+002101999GA2071+004801999GF107991999999999999999999MA1100311999999MW1101REMMET067METAR EDHK 060020Z 18008KT 5000 BR BKN007 BKN016 M02/M04 Q1003 GRN;
0135100465999992010010601204+54367+010133FM-15+0031EDHK V0201701N003110021019N0050001N1-00301-00401999999ADDGA1071+002101999GF107991999999999999999999MA1100311999999MW1101REMMET060METAR EDHK 060120Z 17006KT 5000 BR BKN007 M03/M04 Q1003 GRN;
0135100465999992010010602204+54367+010133FM-15+0031EDHK V0201701N003110021019N0047001N1-00301-00501999999ADDGA1071+002101999GF107991999999999999999999MA1100311999999MW1101REMMET060METAR EDHK 060220Z 17006KT 4700 BR BKN007 M03/M05 Q1003 GRN;
0168100465999992010010603204+54367+010133FM-15+0031EDHK V0201501N002610021019N0040001N1-00301-00501999999ADDGA1021+001501999GA2071+002101999GF107991999999999999999999MA1100311999999MW1101MW2711REMMET071METAR EDHK 060320Z 15005KT 4000 -SN BR FEW005 BKN007 M03/M05 Q1003 GRN;
0135100465999992010010604204+54367+010133FM-15+0031EDHK V0201501N003110018019N0047001N1-00401-00501999999ADDGA1071+001801999GF107991999999999999999999MA1100201999999MW1101REMMET060METAR EDHK 060420Z 15006KT 4700 BR BKN006 M04/M05 Q1002 YLO;
0145100465999992010010605034+54367+010133FM-16+0031EDHK V0201401N003110021019N0048001N1-00301-00501999999ADDGA1071+002101999GF107991999999999999999999MA1100201999999MW1101MW2771REMMET064SPECI EDHK 060503Z 14006KT 4800 -SG BR BKN007 M03/M05 Q1002 GRN;
0159100465999992010010605204+54367+010133FM-15+0031EDHK V0201601N003610024019N0045001N1-00401-00501999999ADDGA1071+002401999GF107991999999999999999999MA1100201999999MW1101MW2771REMMET078METAR EDHK 060520Z 16007KT 4500 -SG BR BKN008 M04/M05 Q1002 GRN GRN TEMPO YLO;
0182100465999992010010606204+54367+010133FM-15+0031EDHK V0201501N003110030019N0040001N1-00401-00501999999ADDGA1041+001801999GA2071+003001999GF107991999999999999999999MA1100311999999MW1101MW2711REMMET085METAR EDHK 060620Z 15006KT 4000 -SN BR SCT006 BKN010 M04/M05 Q1003 GRN GRN TEMPO YLO;
0149100465999992010010607204+54367+010133FM-15+0031EDHK V0201701N003110018019N0045001N1-00401-00601999999ADDGA1071+001801999GF107991999999999999999999MA1100311999999MW1101REMMET074METAR EDHK 060720Z 17006KT 4500 BR BKN006 M04/M06 Q1003 YLO GRN TEMPO YLO;
0163100465999992010010608204+54367+010133FM-15+0031EDHK V0201501N003110033019N0060001N1-00501-00601999999ADDGA1041+001801999GA2071+003301999GF107991999999999999999999MA1100411999999REMMET078METAR EDHK 060820Z 15006KT 6000 SCT006 BKN011 M05/M06 Q1004 GRN GRN TEMPO YLO;
0159100465999992010010609204+54367+010133FM-15+0031EDHK V0201601N003610030019N0050001N1-00501-00701999999ADDGA1071+003001999GF107991999999999999999999MA1100411999999MW1101MW2711REMMET078METAR EDHK 060920Z 16007KT 5000 -SN BR BKN010 M05/M07 Q1004 GRN GRN TEMPO YLO;
0140100465999992010010610204+54367+010133FM-15+0031EDHK V0201701N004110036019N0060001N1-00501-00801999999ADDGA1071+003601999GF107991999999999999999999MA1100411999999REMMET071METAR EDHK 061020Z 17008KT 6000 BKN012 M05/M08 Q1004 GRN GRN TEMPO YLO;
0163100465999992010010610404+54367+010133FM-16+0031EDHK V0201701N003610150019N0070001N1-00501-00801999999ADDGA1041+003901999GA2071+015001999GF107991999999999999999999MA1100411999999REMMET078SPECI EDHK 061040Z 17007KT 7000 SCT013 BKN050 M05/M08 Q1004 WHT GRN TEMPO YLO;
0163100465999992010010611204+54367+010133FM-15+0031EDHK V0201501N003110180019N0112651N1-00501-00801999999ADDGA1021+009001999GA2071+018001999GF107991999999999999999999MA1100411999999REMMET078METAR EDHK 061120Z 15006KT 9999 FEW030 BKN060 M05/M08 Q1004 BLU BLU TEMPO YLO;
0140100465999992010010612204+54367+010133FM-15+0031EDHK V0201601N002610180019N0112651N1-00401-00801999999ADDGA1071+018001999GF107991999999999999999999MA1100411999999REMMET071METAR EDHK 061220Z 16005KT 9999 BKN060 M04/M08 Q1004 BLU BLU TEMPO YLO;
0140100465999992010010613204+54367+010133FM-15+0031EDHK V0201201N002610180019N0112651N1-00401-00801999999ADDGA1071+018001999GF107991999999999999999999MA1100411999999REMMET071METAR EDHK 061320Z 12005KT 9999 BKN060 M04/M08 Q1004 BLU BLU TEMPO YLO;
0140100465999992010010614204+54367+010133FM-15+0031EDHK V0201201N002610180019N0080001N1-00501-00801999999ADDGA1071+018001999GF107991999999999999999999MA1100411999999REMMET071METAR EDHK 061420Z 12005KT 8000 BKN060 M05/M08 Q1004 BLU BLU TEMPO YLO;
0140100465999992010010615204+54367+010133FM-15+0031EDHK V0201401N002110150019N0080001N1-00501-00801999999ADDGA1071+015001999GF107991999999999999999999MA1100511999999REMMET071METAR EDHK 061520Z 14004KT 8000 BKN050 M05/M08 Q1005 BLU BLU TEMPO YLO;
0140100465999992010010616204+54367+010133FM-15+0031EDHK V0201201N002610150019N0080001N1-00501-00801999999ADDGA1071+015001999GF107991999999999999999999MA1100511999999REMMET071METAR EDHK 061620Z 12005KT 8000 BKN050 M05/M08 Q1005 BLU BLU TEMPO YLO;
0163100465999992010010617204+54367+010133FM-15+0031EDHK V0201201N002110240019N0080001N1-00501-00801999999ADDGA1041+015001999GA2071+024001999GF107991999999999999999999MA1100511999999REMMET078METAR EDHK 061720Z 12004KT 8000 SCT050 BKN080 M05/M08 Q1005 BLU BLU TEMPO YLO;
0163100465999992010010618204+54367+010133FM-15+0031EDHK V0201001N001510240019N0070001N1-00501-00801999999ADDGA1041+018001999GA2071+024001999GF107991999999999999999999MA1100611999999REMMET078METAR EDHK 061820Z 10003KT 7000 SCT060 BKN080 M05/M08 Q1006 WHT WHT TEMPO YLO;
0138100465999992010010619204+54367+010133FM-15+0031EDHK V0201101N001010210019N0080001N1-00601-00801999999ADDGA1071+021001999GF107991999999999999999999MA1100611999999REMMET069METAR EDHK 061920Z 11002KT 8000 BKN070 M06/M08 Q1006 BLU FCST CANCEL;
0172100465999992010010620204+54367+010133FM-15+0031EDHK V0201101N00101033001CN0080001N1-00701-01001999999ADDGA1041+021001999GA2041+033001999GA3071+048001999GF107991999999999999999999MA1100611999999REMMET071METAR EDHK 062020Z 11002KT 8000 SCT070 SCT110 BKN160 M07/M10 Q1006 BLU;
0149100465999992010010621204+54367+010133FM-15+0031EDHK V0200301N000510360019N0070001N1-00901-01001999999ADDGA1041+021001999GA2071+036001999GF107991999999999999999999MA1100611999999REMMET064METAR EDHK 062120Z 03001KT 7000 SCT070 BKN120 M09/M10 Q1006 WHT;
0135100465999992010010622204+54367+010133FM-15+0031EDHK V0200501N001010240019N0045001N1-00801-00901999999ADDGA1071+024001999GF107991999999999999999999MA1100611999999MW1101REMMET060METAR EDHK 062220Z 05002KT 4500 BR BKN080 M08/M09 Q1006 GRN;
0135100465999992010010623204+54367+010133FM-15+0031EDHK V0202801N001510240019N0050001N1-00801-00901999999ADDGA1071+024001999GF107991999999999999999999MA1100711999999MW1101REMMET060METAR EDHK 062320Z 28003KT 5000 BR BKN080 M08/M09 Q1007 WHT;
0158100465999992010010700204+54367+010133FM-15+0031EDHK V0202801N002110270019N0050001N1-00901-01001999999ADDGA1041+015001999GA2071+027001999GF107991999999999999999999MA1100711999999MW1101REMMET067METAR EDHK 070020Z 28004KT 5000 BR SCT050 BKN090 M09/M10 Q1007 WHT;
0149100465999992010010701204+54367+010133FM-15+0031EDHK V0202701N002610300019N0060001N1-00801-00901999999ADDGA1041+018001999GA2071+030001999GF107991999999999999999999MA1100711999999REMMET064METAR EDHK 070120Z 27005KT 6000 SCT060 BKN100 M08/M09 Q1007 WHT;
0158100465999992010010702204+54367+010133FM-15+0031EDHK V0202801N002610060019N0050001N1-00701-00801999999ADDGA1041+003001999GA2071+006001999GF107991999999999999999999MA1100711999999MW1101REMMET067METAR EDHK 070220Z 28005KT 5000 BR SCT010 BKN020 M07/M08 Q1007 WHT;
0168100465999992010010703004+54367+010133FM-15+0031EDHK V0202901N002110060019N0040001N1-00601-00801999999ADDGA1041+003001999GA2071+006001999GF107991999999999999999999MA1100711999999MW1101MW2711REMMET071SPECI EDHK 070256Z 29004KT 4000 -SN BR SCT010 BKN020 M06/M08 Q1007 GRN;
0168100465999992010010703204+54367+010133FM-15+0031EDHK V0202701N002110060019N0040001N1-00601-00701999999ADDGA1041+003001999GA2071+006001999GF107991999999999999999999MA1100711999999MW1101MW2711REMMET071METAR EDHK 070320Z 27004KT 4000 -SN BR SCT010 BKN020 M06/M07 Q1007 GRN;
0168100465999992010010704204+54367+010133FM-15+0031EDHK V0202701N002110090019N0040001N1-00601-00701999999ADDGA1021+003001999GA2071+009001999GF107991999999999999999999MA1100711999999MW1101MW2711REMMET071METAR EDHK 070420Z 27004KT 4000 -SN BR FEW010 BKN030 M06/M07 Q1007 GRN;
0182100465999992010010705204+54367+010133FM-15+0031EDHK V0202701N003110120019N0035001N1-00601-00701999999ADDGA1041+006001999GA2071+012001999GF107991999999999999999999MA1100811999999MW1101MW2711REMMET085METAR EDHK 070520Z 27006KT 3500 -SN BR SCT020 BKN040 M06/M07 Q1008 YLO GRN TEMPO YLO;
0205100465999992010010706204+54367+010133FM-15+0031EDHK V0202601N002610084019N0035001N1-00601-00701999999ADDGA1021+001501999GA2071+008401999GA3071+027001999GF107991999999999999999999MA1100811999999MW1101MW2711REMMET092METAR EDHK 070620Z 26005KT 3500 -SN BR FEW005 BKN028 BKN090 M06/M07 Q1008 YLO GRN TEMPO YLO;
0172100465999992010010707204+54367+010133FM-15+0031EDHK V0202701N002610081019N0030001N1-00501-00601999999ADDGA1021+002401999GA2071+008101999GF107991999999999999999999MA1100811999999MW1101REMMET081METAR EDHK 070720Z 27005KT 3000 BR FEW008 BKN027 M05/M06 Q1008 YLO GRN TEMPO YLO;
0182100465999992010010708204+54367+010133FM-15+0031EDHK V0203101N002610090019N0030001N1-00501-00601999999ADDGA1021+003001999GA2071+009001999GF107991999999999999999999MA1100911999999MW1101MW2711REMMET085METAR EDHK 070820Z 31005KT 3000 -SN BR FEW010 BKN030 M05/M06 Q1009 YLO GRN TEMPO YLO;
0182100465999992010010708354+54367+010133FM-16+0031EDHK V0203001N002110045019N0016001N1-00501-00601999999ADDGA1021+002401999GA2071+004501999GF107991999999999999999999MA1100911999999MW1101MW2771REMMET085SPECI EDHK 070835Z 30004KT 1600 -SG BR FEW008 BKN015 M05/M06 Q1009 YLO GRN TEMPO YLO;
0159100465999992010010709204+54367+010133FM-15+0031EDHK V0203501N003110021019N0020001N1-00301-00401999999ADDGA1071+002101999GF107991999999999999999999MA1100911999999MW1101MW2771REMMET078METAR EDHK 070920Z 35006KT 2000 -SG BR BKN007 M03/M04 Q1009 YLO GRN TEMPO YLO;
0182100465999992010010710204+54367+010133FM-15+0031EDHK V0200101N003110036019N0030001N1-00201-00301999999ADDGA1041+001501999GA2071+003601999GF107991999999999999999999MA1101021999999MW1101MW2771REMMET085METAR EDHK 071020Z 01006KT 3000 -SG BR SCT005 BKN012 M02/M03 Q1010 YLO GRN TEMPO YLO;
0182100465999992010010710504+54367+010133FM-16+0031EDHK V0200301N003110015019N0040001N1-00201-00301999999ADDGA1071+001501999GA2071+003001999GF107991999999999999999999MA1101021999999MW1101MW2771REMMET085SPECI EDHK 071050Z 03006KT 4000 -SG BR BKN005 BKN010 M02/M03 Q1010 YLO GRN TEMPO YLO;
0180100465999992010010711204+54367+010133FM-15+0031EDHK V0200401N004110018019N0022001N1-00201-00301999999ADDED199U18009GA1071+001801999GF107991999999999999999999MA1101021999999MW1101MW2711REMMET088METAR EDHK 071120Z 04008KT 2200 R08/1800D -SN BR BKN006 M02/M03 Q1010 YLO WHT TEMPO YLO;
0159100465999992010010711264+54367+010133FM-16+0031EDHK V0200501N004110018019N0040001N1-00201-00301999999ADDGA1071+001801999GF107991999999999999999999MA1101021999999MW1101MW2711REMMET078SPECI EDHK 071126Z 05008KT 4000 -SN BR BKN006 M02/M03 Q1010 YLO WHT TEMPO YLO;
0150100465999992010010711314+54367+010133FM-16+0031EDHK V0200401N004110021019N0070001N1-00201-00301999999ADDGA1071+002101999GF107991999999999999999999MA1101021999999MW1711REMMET075SPECI EDHK 071131Z 04008KT 7000 -SN BKN007 M02/M03 Q1010 GRN WHT TEMPO YLO;
0159100465999992010010712204+54367+010133FM-15+0031EDHK V0200201N004110024019N0030001N1-00201-00301999999ADDGA1071+002401999GF107991999999999999999999MA1101021999999MW1101MW2711REMMET078METAR EDHK 071220Z 02008KT 3000 -SN BR BKN008 M02/M03 Q1010 YLO WHT TEMPO YLO;
0159100465999992010010712404+54367+010133FM-16+0031EDHK V0200301N003610021019N0020001N1-00201-00301999999ADDGA1071+002101999GF107991999999999999999999MA1101021999999MW1101MW2711REMMET078SPECI EDHK 071240Z 03007KT 2000 -SN BR BKN007 M02/M03 Q1010 YLO WHT TEMPO YLO;
0203100465999992010010713204+54367+010133FM-15+0031EDHK V0200501N003610021019N0014001N1-00201-00301999999ADDED199U13009GA1021+001501999GA2071+002101999GF107991999999999999999999MA1101081999999MW1101MW2711REMMET095METAR EDHK 071320Z 05007KT 1400 R08/1300N -SN BR FEW005 BKN007 M02/M03 Q1011 AMB WHT TEMPO YLO;
0203100465999992010010713264+54367+010133FM-16+0031EDHK V0200501N003610024019N0018001N1-00201-00301999999ADDED199U21009GA1021+001501999GA2071+002401999GF107991999999999999999999MA1101081999999MW1101MW2711REMMET095SPECI EDHK 071326Z 05007KT 1800 R08/2100U -SN BR FEW005 BKN008 M02/M03 Q1011 YLO WHT TEMPO YLO;
0180100465999992010010713344+54367+010133FM-16+0031EDHK V0200401N003610021019N0020001N1-00201-00301999999ADDED199U18009GA1071+002101999GF107991999999999999999999MA1101081999999MW1101MW2711REMMET088SPECI EDHK 071334Z 04007KT 2000 R08/1800D -SN BR BKN007 M02/M03 Q1011 YLO WHT TEMPO AMB;
0159100465999992010010713444+54367+010133FM-16+0031EDHK V0200401N003610024019N0040001N1-00201-00301999999ADDGA1071+002401999GF107991999999999999999999MA1101081999999MW1101MW2711REMMET078SPECI EDHK 071344Z 04007KT 4000 -SN BR BKN008 M02/M03 Q1011 GRN WHT TEMPO AMB;
0159100465999992010010714204+54367+010133FM-15+0031EDHK V0200201N003110021019N0045001N1-00201-00301999999ADDGA1071+002101999GF107991999999999999999999MA1101081999999MW1101MW2711REMMET078METAR EDHK 071420Z 02006KT 4500 -SN BR BKN007 M02/M03 Q1011 GRN WHT TEMPO AMB;
0163100465999992010010715204+54367+010133FM-15+0031EDHK V0200201N004110030019N0080001N1-00201-00401999999ADDGA1071+003001999GA2071+004501999GF107991999999999999999999MA1101191999999REMMET078METAR EDHK 071520Z 02008KT 8000 BKN010 BKN015 M02/M04 Q1012 GRN BLU TEMPO AMB;
0140100465999992010010716204+54367+010133FM-15+0031EDHK V0203601N003610039019N0070001N1-00201-00401999999ADDGA1071+003901999GF107991999999999999999999MA1101191999999REMMET071METAR EDHK 071620Z 36007KT 7000 BKN013 M02/M04 Q1012 GRN BLU TEMPO AMB;
0140100465999992010010717204+54367+010133FM-15+0031EDHK V0203601N003110039019N0070001N1-00201-00401999999ADDGA1071+003901999GF107991999999999999999999MA1101291999999REMMET071METAR EDHK 071720Z 36006KT 7000 BKN013 M02/M04 Q1013 GRN BLU TEMPO AMB;
0163100465999992010010718204+54367+010133FM-15+0031EDHK V0203601N002110039019N0070001N1-00201-00401999999ADDGA1071+003901999GA2071+005401999GF107991999999999999999999MA1101391999999REMMET078METAR EDHK 071820Z 36004KT 7000 BKN013 BKN018 M02/M04 Q1014 GRN BLU TEMPO AMB;
0138100465999992010010719204+54367+010133FM-15+0031EDHK V0200301N004110039019N0080001N1-00201-00501999999ADDGA1071+003901999GF107991999999999999999999MA1101491999999REMMET069METAR EDHK 071920Z 03008KT 8000 BKN013 M02/M05 Q1015 GRN FCST CANCEL;
0126100465999992010010720204+54367+010133FM-15+0031EDHK V0200401N003610039019N0080001N1-00201-00501999999ADDGA1071+003901999GF107991999999999999999999MA1101491999999REMMET057METAR EDHK 072020Z 04007KT 8000 BKN013 M02/M05 Q1015 GRN;
0127100465999992010010721204+54367+010133FM-15+0031EDHK V0200201N002112200019N0080001N1-00401-00601999999ADDGA1041+003901999GF104991999999999999999999MA1101591999999REMMET058METAR EDHK 072120Z 02004KT 8000 SCT013 M04/M06 Q1016 BLU/;
0127100465999992010010722204+54367+010133FM-15+0031EDHK V0200101N002112200019N0080001N1-00401-00601999999ADDGA1041+004501999GF104991999999999999999999MA1101691999999REMMET058METAR EDHK 072220Z 01004KT 8000 SCT015 M04/M06 Q1017 BLU/;
0127100465999992010010723204+54367+010133FM-15+0031EDHK V0200301N002112200019N0080001N1-00401-00601999999ADDGA1041+004501999GF104991999999999999999999MA1101691999999REMMET058METAR EDHK 072320Z 03004KT 8000 SCT015 M04/M06 Q1017 BLU/;
0127100465999992010010800204+54367+010133FM-15+0031EDHK V0200201N003112200019N0080001N1-00301-00601999999ADDGA1041+004501999GF104991999999999999999999MA1101801999999REMMET058METAR EDHK 080020Z 02006KT 8000 SCT015 M03/M06 Q1018 BLU/;
0126100465999992010010801204+54367+010133FM-15+0031EDHK V0200301N002610045019N0080001N1-00301-00501999999ADDGA1071+004501999GF107991999999999999999999MA1101801999999REMMET057METAR EDHK 080120Z 03005KT 8000 BKN015 M03/M05 Q1018 WHT;
0126100465999992010010802204+54367+010133FM-15+0031EDHK V0200401N002610045019N0080001N1-00301-00501999999ADDGA1071+004501999GF107991999999999999999999MA1101901999999REMMET057METAR EDHK 080220Z 04005KT 8000 BKN015 M03/M05 Q1019 WHT;
0126100465999992010010803204+54367+010133FM-15+0031EDHK V0200301N003610045019N0080001N1-00201-00601999999ADDGA1071+004501999GF107991999999999999999999MA1102001999999REMMET057METAR EDHK 080320Z 03007KT 8000 BKN015 M02/M06 Q1020 WHT;
0126100465999992010010804204+54367+010133FM-15+0031EDHK V0200401N003610045019N0112651N1-00201-00501999999ADDGA1071+004501999GF107991999999999999999999MA1102001999999REMMET057METAR EDHK 080420Z 04007KT 9999 BKN015 M02/M05 Q1020 WHT;
0164100465999992010010805204+54367+010133FM-15+0031EDHK V0200401N004610045019N0112651N1-00201-00501999999ADDGA1021+003301999GA2071+004501999GF107991999999999999999999MA1102001999999REMMET079METAR EDHK 080520Z 04009KT 9999 FEW011 BKN015 M02/M05 Q1020 WHT BLU/ TEMPO GRN;
0141100465999992010010806204+54367+010133FM-15+0031EDHK V0200601N004110036019N0112651N1-00301-00501999999ADDGA1071+003601999GF107991999999999999999999MA1102101999999REMMET072METAR EDHK 080620Z 06008KT 9999 BKN012 M03/M05 Q1021 GRN BLU/ TEMPO GRN;
0141100465999992010010807204+54367+010133FM-15+0031EDHK V0200401N004610030019N0112651N1-00301-00501999999ADDGA1071+003001999GF107991999999999999999999MA1102201999999REMMET072METAR EDHK 080720Z 04009KT 9999 BKN010 M03/M05 Q1022 GRN BLU/ TEMPO GRN;
0141100465999992010010808204+54367+010133FM-15+0031EDHK V0200401N004610027019N0112651N1-00301-00501999999ADDGA1071+002701999GF107991999999999999999999MA1102201999999REMMET072METAR EDHK 080820Z 04009KT 9999 BKN009 M03/M05 Q1022 GRN BLU/ TEMPO GRN;
0141100465999992010010809204+54367+010133FM-15+0031EDHK V0200601N005710027019N0112651N1-00301-00401999999ADDGA1071+002701999GF107991999999999999999999MA1102301999999REMMET072METAR EDHK 080920Z 06011KT 9999 BKN009 M03/M04 Q1023 GRN BLU/ TEMPO GRN;
0141100465999992010010810204+54367+010133FM-15+0031EDHK V0200501N006710024019N0112651N1-00301-00501999999ADDGA1071+002401999GF107991999999999999999999MA1102401999999REMMET072METAR EDHK 081020Z 05013KT 9999 BKN008 M03/M05 Q1024 GRN BLU/ TEMPO GRN;
0140100465999992010010811204+54367+010133FM-15+0031EDHK V0200501N006210021019N0112651N1-00301-00501999999ADDGA1071+002101999GF107991999999999999999999MA1102401999999REMMET071METAR EDHK 081120Z 05012KT 9999 BKN007 M03/M05 Q1024 GRN GRN TEMPO YLO;
0161100465999992010010812204+54367+010133FM-15+0031EDHK V0200601N006210015019N0050001N1-00301-00401999999ADDGA1071+001501999GF107991999999999999999999MA1102401999999MW1361MW2711REMMET080METAR EDHK 081220Z 06012KT 5000 -SN DRSN BKN005 M03/M04 Q1024 YLO GRN TEMPO YLO;
0161100465999992010010812434+54367+010133FM-16+0031EDHK V0200601N006210021019N0070001N1-00301-00401999999ADDGA1071+002101999GF107991999999999999999999MA1102401999999MW1361MW2711REMMET080SPECI EDHK 081243Z 06012KT 7000 -SN DRSN BKN007 M03/M04 Q1024 GRN GRN TEMPO YLO;
0160100465999992010010813204+54367+010133FM-15+0031EDHK V0200601N006710024019N0030001N1-00301-00401999999ADDGA1071+002401999GF107991999999999999999999MA1102401999999MW1361MW2731REMMET079METAR EDHK 081320Z 06013KT 3000 SN DRSN BKN008 M03/M04 Q1024 YLO GRN TEMPO YLO;
0166100465999992010010813444+54367+010133FM-16+0031EDHK V0200501N007710027019N0050001N1-00301-00401999999ADDGA1071+002701999GF107991999999999999999999MA1102401999999MW1361MW2711REMMET085SPECI EDHK 081344Z 05015KT 5000 -SN DRSN BKN009 M03/M04 Q1024 RESN GRN GRN TEMPO YLO;
0154100465999992010010814204+54367+010133FM-15+0031EDHK V0200601N007710027019N0112651N1-00301-00501999999ADDGA1071+002701999GF107991999999999999999999MA1102511999999MW1361REMMET079METAR EDHK 081420Z 06015KT 9999 DRSN BKN009 M03/M05 Q1025 RESN GRN FCST CANCEL;
0142100465999992010010815204+54367+010133FM-15+0031EDHK V0200601N007210042019N0112651N1-00301-00501999999ADDGA1071+004201999GF107991999999999999999999MA1102511999999MW1361REMMET067METAR EDHK 081520Z 06014KT 9999 DRSN BKN014 M03/M05 Q1025 RESN GRN;
0142100465999992010010816204+54367+010133FM-15+0031EDHK V0200601N007710036019N0112651N1-00401-00601999999ADDGA1071+003601999GF107991999999999999999999MA1102611999999MW1361REMMET067METAR EDHK 081620Z 06015KT 9999 DRSN BKN012 M04/M06 Q1026 RESN GRN;
0138100465999992010010817204+54367+010133FM-15+0031EDHK V0200501N007212200019N0112651N1-00401-00701999999ADDGA1041+003601999GF104991999999999999999999MA1102611999999MW1361REMMET063METAR EDHK 081720Z 05014KT 9999 DRSN SCT012 M04/M07 Q1026 BLU/;
0127100465999992010010818204+54367+010133FM-15+0031EDHK V0200501N006712200019N0112651N1-00501-00801999999ADDGA1021+004501999GF102991999999999999999999MA1102611999999REMMET058METAR EDHK 081820Z 05013KT 9999 FEW015 M05/M08 Q1026 BLU/;
0138100465999992010010819204+54367+010133FM-15+0031EDHK V0200601N007212200019N0112651N1-00501-00801999999ADDGA1041+004501999GF104991999999999999999999MA1102711999999MW1361REMMET063METAR EDHK 081920Z 06014KT 9999 DRSN SCT015 M05/M08 Q1027 BLU/;
0161100465999992010010820204+54367+010133FM-15+0031EDHK V0200501N006712200019N0112651N1-00501-00701999999ADDGA1041+004201999GA2041+006901999GF104991999999999999999999MA1102711999999MW1361REMMET070METAR EDHK 082020Z 05013KT 9999 DRSN SCT014 SCT023 M05/M07 Q1027 BLU/;
0160100465999992010010821204+54367+010133FM-15+0031EDHK V0200401N006210069019N0112651N1-00501-00701999999ADDGA1041+003601999GA2071+006901999GF107991999999999999999999MA1102711999999MW1361REMMET069METAR EDHK 082120Z 04012KT 9999 DRSN SCT012 BKN023 M05/M07 Q1027 WHT;
0136100465999992010010822064+54367+010133FM-16+0031EDHK V0200401N006710027019N0112651N1-00501-00701999999ADDGA1071+002701999GF107991999999999999999999MA1102711999999MW1711REMMET061SPECI EDHK 082206Z 04013KT 9999 -SN BKN009 M05/M07 Q1027 GRN;
0159100465999992010010822204+54367+010133FM-15+0031EDHK V0200401N006710027019N0112651N1-00501-00601999999ADDGA1071+002701999GA2071+007801999GF107991999999999999999999MA1102711999999MW1711REMMET068METAR EDHK 082220Z 04013KT 9999 -SN BKN009 BKN026 M05/M06 Q1027 GRN;
0147100465999992010010823204+54367+010133FM-15+0031EDHK V0200301N007710027019N0112651N1-00401-00601999999ADDGA1071+002701999GF107991999999999999999999MA1102711999999MW1361MW2711REMMET066METAR EDHK 082320Z 03015KT 9999 -SN DRSN BKN009 M04/M06 Q1027 GRN;
0137100465999992010010900204+54367+010133FM-15+0031EDHK V0200401N006710021019N0112651N1-00401-00601999999ADDGA1071+002101999GF107991999999999999999999MA1102711999999MW1361REMMET062METAR EDHK 090020Z 04013KT 9999 DRSN BKN007 M04/M06 Q1027 GRN;
0137100465999992010010901204+54367+010133FM-15+0031EDHK V0200401N007710024019N0112651N1-00301-00501999999ADDGA1071+002401999GF107991999999999999999999MA1102611999999MW1361REMMET062METAR EDHK 090120Z 04015KT 9999 DRSN BKN008 M03/M05 Q1026 GRN;
0137100465999992010010902204+54367+010133FM-15+0031EDHK V0200501N008710027019N0112651N1-00301-00401999999ADDGA1071+002701999GF107991999999999999999999MA1102611999999MW1361REMMET062METAR EDHK 090220Z 05017KT 9999 DRSN BKN009 M03/M04 Q1026 GRN;
0137100465999992010010903204+54367+010133FM-15+0031EDHK V0200501N008710024019N0112651N1-00301-00401999999ADDGA1071+002401999GF107991999999999999999999MA1102611999999MW1361REMMET062METAR EDHK 090320Z 05017KT 9999 DRSN BKN008 M03/M04 Q1026 GRN;
0137100465999992010010904204+54367+010133FM-15+0031EDHK V0200401N008710024019N0112651N1-00301-00401999999ADDGA1071+002401999GF107991999999999999999999MA1102611999999MW1361REMMET062METAR EDHK 090420Z 04017KT 9999 DRSN BKN008 M03/M04 Q1026 GRN;
0160100465999992010010905204+54367+010133FM-15+0031EDHK V0200501N009810120019N0112651N1-00201-00401999999ADDGA1041+002401999GA2071+012001999GF107991999999999999999999MA1102511999999MW1361REMMET069METAR EDHK 090520Z 05019KT 9999 DRSN SCT008 BKN040 M02/M04 Q1025 BLU;
0160100465999992010010906204+54367+010133FM-15+0031EDHK V0200501N009810024019N0112651N1-00201-00401999999ADDGA1071+002401999GA2071+012001999GF107991999999999999999999MA1102511999999MW1361REMMET069METAR EDHK 090620Z 05019KT 9999 DRSN BKN008 BKN040 M02/M04 Q1025 GRN;
0137100465999992010010907204+54367+010133FM-15+0031EDHK V0200501N010310030019N0112651N1-00201-00401999999ADDGA1071+003001999GF107991999999999999999999MA1102511999999MW1361REMMET062METAR EDHK 090720Z 05020KT 9999 DRSN BKN010 M02/M04 Q1025 GRN;
0160100465999992010010908204+54367+010133FM-15+0031EDHK V0200501N010310030019N0112651N1-00201-00401999999ADDGA1071+003001999GA2071+012001999GF107991999999999999999999MA1102511999999MW1361REMMET069METAR EDHK 090820Z 05020KT 9999 DRSN BKN010 BKN040 M02/M04 Q1025 GRN;
0137100465999992010010909204+54367+010133FM-15+0031EDHK V0200401N010310030019N0112651N1-00201-00401999999ADDGA1071+003001999GF107991999999999999999999MA1102511999999MW1361REMMET062METAR EDHK 090920Z 04020KT 9999 DRSN BKN010 M02/M04 Q1025 GRN;
0160100465999992010010910204+54367+010133FM-15+0031EDHK V0200501N012910042019N0112651N1-00101-00301999999ADDGA1071+004201999GA2071+009001999GF107991999999999999999999MA1102401999999MW1361REMMET069METAR EDHK 091020Z 05025KT 9999 DRSN BKN014 BKN030 M01/M03 Q1024 GRN;
0171100465999992010010910514+54367+010133FM-16+0031EDHK V0200601N012310042019N0112651N1-00101-00301999999ADDGA1071+004201999GA2071+009001999GF107991999999999999999999MA1102511999999MW1361OC101851REMMET072SPECI EDHK 091051Z 06024G36KT 9999 DRSN BKN014 BKN030 M01/M03 Q1025 GRN;
0160100465999992010010911204+54367+010133FM-15+0031EDHK V0200501N012910042019N0112651N1-00101-00301999999ADDGA1071+004201999GA2071+010501999GF107991999999999999999999MA1102401999999MW1361REMMET069METAR EDHK 091120Z 05025KT 9999 DRSN BKN014 BKN035 M01/M03 Q1024 GRN;
0172100465999992010010912204+54367+010133FM-15+0031EDHK V0200501N011810111019N0112651N1-00101-00301999999ADDGA1041+003901999GA2071+011101999GF107991999999999999999999MA1102401999999MW1381OC101751REMMET073METAR EDHK 091220Z 05023G34KT 9999 -BLSN SCT013 BKN037 M01/M03 Q1024 BLU;
0154100465999992010010913204+54367+010133FM-15+0031EDHK V0200501N01341004201CN0112651N1-00101-00301999999ADDGA1071+004201999GA2041+012001999MA1102301999999MW1381REMMET070METAR EDHK 091320Z 05026KT 9999 -BLSN BKN014 SCT040 M01/M03 Q1023 GRN;EQDQ01+000042SCOTCV
0149100465999992010010914204+54367+010133FM-15+0031EDHK V0200501N012310039019N0112651N1-00101-00301999999ADDGA1071+003901999GF107991999999999999999999MA1102201999999MW1381OC101801REMMET066METAR EDHK 091420Z 05024G35KT 9999 -BLSN BKN013 M01/M03 Q1022 GRN;
0172100465999992010010915204+54367+010133FM-15+0031EDHK V0200501N011810075019N0112651N1-00101-00301999999ADDGA1041+004201999GA2071+007501999GF107991999999999999999999MA1102201999999MW1381OC101751REMMET073METAR EDHK 091520Z 05023G34KT 9999 -BLSN SCT014 BKN025 M01/M03 Q1022 BLU;
0172100465999992010010916204+54367+010133FM-15+0031EDHK V0200601N011810048019N0112651N1-00101-00301999999ADDGA1021+003901999GA2071+004801999GF107991999999999999999999MA1102201999999MW1381OC101751REMMET073METAR EDHK 091620Z 06023G34KT 9999 -BLSN FEW013 BKN016 M01/M03 Q1022 WHT;
0138100465999992010010917204+54367+010133FM-15+0031EDHK V0200501N013410048019N0112651N1-00101-00301999999ADDGA1071+004801999GF107991999999999999999999MA1102101999999MW1381REMMET063METAR EDHK 091720Z 05026KT 9999 -BLSN BKN016 M01/M03 Q1021 WHT;
0149100465999992010010918204+54367+010133FM-15+0031EDHK V0200501N013410054019N0112651N1+00001-00301999999ADDGA1071+005401999GF107991999999999999999999MA1102101999999MW1381OC101951REMMET066METAR EDHK 091820Z 05026G38KT 9999 -BLSN BKN018 M00/M03 Q1021 WHT;
0138100465999992010010919204+54367+010133FM-15+0031EDHK V0200501N012910045019N0112651N1-00101-00301999999ADDGA1071+004501999GF107991999999999999999999MA1102101999999MW1381REMMET063METAR EDHK 091920Z 05025KT 9999 -BLSN BKN015 M01/M03 Q1021 WHT;
0149100465999992010010920204+54367+010133FM-15+0031EDHK V0200501N013410045019N0112651N1-00101-00301999999ADDGA1071+004501999GF107991999999999999999999MA1102101999999MW1381OC101851REMMET066METAR EDHK 092020Z 05026G36KT 9999 -BLSN BKN015 M01/M03 Q1021 WHT;
0138100465999992010010921204+54367+010133FM-15+0031EDHK V0200501N012910036019N0112651N1-00101-00201999999ADDGA1071+003601999GF107991999999999999999999MA1102001999999MW1381REMMET063METAR EDHK 092120Z 05025KT 9999 -BLSN BKN012 M01/M02 Q1020 GRN;
0149100465999992010010922204+54367+010133FM-15+0031EDHK V0200501N013410042019N0112651N1+00001-00201999999ADDGA1071+004201999GF107991999999999999999999MA1102001999999MW1381OC101851REMMET066METAR EDHK 092220Z 05026G36KT 9999 -BLSN BKN014 M00/M02 Q1020 GRN;
0171100465999992010010923204+54367+010133FM-15+0031EDHK V0200501N012910045019N0112651N1+00001-00201999999ADDGA1071+004501999GA2071+021001999GF107991999999999999999999MA1102001999999MW1381OC101801REMMET072METAR EDHK 092320Z 05025G35KT 9999 -BLSN BKN015 BKN070 00/M02 Q1020 WHT;
0171100465999992010011000204+54367+010133FM-15+0031EDHK V0200601N013410060019N0112651N1+00101-00201999999ADDGA1071+006001999GA2071+021001999GF107991999999999999999999MA1101901999999MW1381OC101851REMMET072METAR EDHK 100020Z 06026G36KT 9999 -BLSN BKN020 BKN070 01/M02 Q1019 WHT;
0171100465999992010011001204+54367+010133FM-15+0031EDHK V0200601N013410060019N0112651N1+00101-00201999999ADDGA1071+006001999GA2071+015001999GF107991999999999999999999MA1101901999999MW1381OC102011REMMET072METAR EDHK 100120Z 06026G39KT 9999 -BLSN BKN020 BKN050 01/M02 Q1019 WHT;
0171100465999992010011002204+54367+010133FM-15+0031EDHK V0200601N014410060019N0112651N1+00101-00201999999ADDGA1071+006001999GA2071+015001999GF107991999999999999999999MA1101901999999MW1381OC102161REMMET072METAR EDHK 100220Z 06028G42KT 9999 -BLSN BKN020 BKN050 01/M02 Q1019 WHT;
0171100465999992010011002304+54367+010133FM-16+0031EDHK V0200601N015410060019N0112651N1+00101-00201999999ADDGA1071+006001999GA2071+015001999GF107991999999999999999999MA1101901999999MW1381OC102421REMMET072SPECI EDHK 100230Z 06030G47KT 9999 -BLSN BKN020 BKN050 01/M02 Q1019 WHT;
0171100465999992010011003204+54367+010133FM-15+0031EDHK V0200601N013910060019N0112651N1+00101-00201999999ADDGA1071+006001999GA2071+015001999GF107991999999999999999999MA1101901999999MW1381OC101951REMMET072METAR EDHK 100320Z 06027G38KT 9999 -BLSN BKN020 BKN050 01/M02 Q1019 WHT;
0159100465999992010011004204+54367+010133FM-15+0031EDHK V0200601N013410045019N0080001N1+00001-00201999999ADDGA1071+004501999GF107991999999999999999999MA1101901999999MW1381MW2711OC101901REMMET070METAR EDHK 100420Z 06026G37KT 8000 -SN -BLSN BKN015 M00/M02 Q1019 WHT;
0158100465999992010011005204+54367+010133FM-15+0031EDHK V0200601N013410060019N0080001N1+00001-00201999999ADDGA1071+006001999GF107991999999999999999999MA1101901999999MW1381MW2711OC102061REMMET069METAR EDHK 100520Z 06026G40KT 8000 -SN -BLSN BKN020 00/M02 Q1019 WHT;
0149100465999992010011006204+54367+010133FM-15+0031EDHK V0200601N014410045019N0080001N1+00001-00201999999ADDGA1071+004501999GF107991999999999999999999MA1101901999999MW1381OC102011REMMET066METAR EDHK 100620Z 06028G39KT 8000 -BLSN BKN015 M00/M02 Q1019 WHT;
0147100465999992010011007204+54367+010133FM-15+0031EDHK V0200601N013410045019N0038001N1+00001-00101999999ADDGA1071+004501999GF107991999999999999999999MA1101901999999MW1381MW2711REMMET066METAR EDHK 100720Z 06026KT 3800 -SN BLSN BKN015 M00/M01 Q1019 GRN;
0181100465999992010011007284+54367+010133FM-16+0031EDHK V0200601N012310045019N0028001N1+00001-00101999999ADDGA1021+003601999GA2071+004501999GF107991999999999999999999MA1101901999999MW1381MW2711OC101751REMMET076SPECI EDHK 100728Z 06024G34KT 2800 -SN BLSN FEW012 BKN015 M00/M01 Q1019 YLO;
0181100465999992010011007404+54367+010133FM-16+0031EDHK V0200601N012310054019N0035001N1+00001-00101999999ADDGA1021+003301999GA2071+005401999GF107991999999999999999999MA1101901999999MW1381MW2711OC101951REMMET076SPECI EDHK 100740Z 06024G38KT 3500 -SN BLSN FEW011 BKN018 M00/M01 Q1019 YLO;
0158100465999992010011008204+54367+010133FM-15+0031EDHK V0200601N012910048019N0028001N1+00001-00101999999ADDGA1071+004801999GF107991999999999999999999MA1101901999999MW1381MW2711OC102011REMMET069METAR EDHK 100820Z 06025G39KT 2800 -SN BLSN BKN016 M00/M01 Q1019 YLO;
0166100465999992010011008374+54367+010133FM-16+0031EDHK V0200601N011810054019N0045001N1+00001-00101999999ADDGA1071+005401999GF107991999999999999999999MA1102001999999MW1381MW2711OC101751REMMET077SPECI EDHK 100837Z 06023G34KT 4500 -SN -BLSN BKN018 M00/M01 Q1020 REBLSN GRN;
0154100465999992010011009204+54367+010133FM-15+0031EDHK V0200601N012910054019N0060001N1+00001-00101999999ADDGA1071+005401999GF107991999999999999999999MA1102001999999MW1381MW2711REMMET073METAR EDHK 100920Z 06025KT 6000 -SN -BLSN BKN018 00/M01 Q1020 REBLSN WHT;
0148100465999992010011010204+54367+010133FM-15+0031EDHK V0200601N013410057019N0070001N1+00101-00201999999ADDGA1071+005701999GF107991999999999999999999MA1102001999999MW1381OC102111REMMET065METAR EDHK 101020Z 06026G41KT 7000 -BLSN BKN019 01/M02 Q1020 WHT;
0147100465999992010011011204+54367+010133FM-15+0031EDHK V0200601N013410060019N0060001N1+00001-00101999999ADDGA1071+006001999GF107991999999999999999999MA1102001999999MW1361OC101851REMMET064METAR EDHK 101120Z 06026G36KT 6000 DRSN BKN020 00/M01 Q1020 WHT;
0147100465999992010011012204+54367+010133FM-15+0031EDHK V0200601N012310060019N0070001N1+00101-00201999999ADDGA1071+006001999GF107991999999999999999999MA1102001999999MW1361OC101801REMMET064METAR EDHK 101220Z 06024G35KT 7000 DRSN BKN020 01/M02 Q1020 WHT;
0147100465999992010011013204+54367+010133FM-15+0031EDHK V0200601N012310060019N0070001N1+00101-00201999999ADDGA1071+006001999GF107991999999999999999999MA1102001999999MW1361OC101801REMMET064METAR EDHK 101320Z 06024G35KT 7000 DRSN BKN020 01/M02 Q1020 WHT;
0147100465999992010011014204+54367+010133FM-15+0031EDHK V0200601N011310060019N0060001N1+00101-00201999999ADDGA1071+006001999GF107991999999999999999999MA1102001999999MW1361OC101701REMMET064METAR EDHK 101420Z 06022G33KT 6000 DRSN BKN020 01/M02 Q1020 WHT;
0136100465999992010011015204+54367+010133FM-15+0031EDHK V0200601N011310060019N0070001N1+00101-00201999999ADDGA1071+006001999GF107991999999999999999999MA1102101999999MW1361REMMET061METAR EDHK 101520Z 06022KT 7000 DRSN BKN020 01/M02 Q1021 WHT;
0136100465999992010011016204+54367+010133FM-15+0031EDHK V0200601N010810066019N0070001N1+00101-00301999999ADDGA1071+006601999GF107991999999999999999999MA1102101999999MW1361REMMET061METAR EDHK 101620Z 06021KT 7000 DRSN BKN022 01/M03 Q1021 WHT;
0136100465999992010011017204+54367+010133FM-15+0031EDHK V0200601N010810069019N0070001N1+00101-00301999999ADDGA1071+006901999GF107991999999999999999999MA1102101999999MW1361REMMET061METAR EDHK 101720Z 06021KT 7000 DRSN BKN023 01/M03 Q1021 WHT;
0159100465999992010011018204+54367+010133FM-15+0031EDHK V0200601N011310135019N0070001N1+00001-00401999999ADDGA1041+009001999GA2071+013501999GF107991999999999999999999MA1102101999999MW1361REMMET068METAR EDHK 101820Z 06022KT 7000 DRSN SCT030 BKN045 00/M04 Q1021 WHT;
0170100465999992010011019204+54367+010133FM-15+0031EDHK V0200501N010810081019N0070001N1+00001-00401999999ADDGA1071+008101999GA2071+012001999GF107991999999999999999999MA1102101999999MW1361OC101591REMMET071METAR EDHK 101920Z 05021G31KT 7000 DRSN BKN027 BKN040 00/M04 Q1021 WHT;
0136100465999992010011020204+54367+010133FM-15+0031EDHK V0200501N010810069019N0070001N1+00001-00401999999ADDGA1071+006901999GF107991999999999999999999MA1102101999999MW1361REMMET061METAR EDHK 102020Z 05021KT 7000 DRSN BKN023 00/M04 Q1021 WHT;
0136100465999992010011021204+54367+010133FM-15+0031EDHK V0200501N010810069019N0080001N1+00001-00401999999ADDGA1071+006901999GF107991999999999999999999MA1102101999999MW1361REMMET061METAR EDHK 102120Z 05021KT 8000 DRSN BKN023 00/M04 Q1021 WHT;
0136100465999992010011022204+54367+010133FM-15+0031EDHK V0200601N010310069019N0090001N1+00001-00401999999ADDGA1071+006901999GF107991999999999999999999MA1102201999999MW1361REMMET061METAR EDHK 102220Z 06020KT 9000 DRSN BKN023 00/M04 Q1022 WHT;
0137100465999992010011023204+54367+010133FM-15+0031EDHK V0200501N009310069019N0090001N1+00001-00401999999ADDGA1071+006901999GF107991999999999999999999MA1102101999999MW1361REMMET062METAR EDHK 102320Z 05018KT 9000 DRSN BKN023 M00/M04 Q1021 WHT;
0158100465999992010011100204+54367+010133FM-15+0031EDHK V0200501N009810069019N0112651N1+00001-00401999999ADDGA1071+006901999GF107991999999999999999999MA1102101999999MW1361MW2711OC101541REMMET069METAR EDHK 110020Z 05019G30KT 9999 -SN DRSN BKN023 M00/M04 Q1021 WHT;
0170100465999992010011101204+54367+010133FM-15+0031EDHK V0200501N009810063019N0070001N1-00101-00301999999ADDGA1041+003301999GA2071+006301999GF107991999999999999999999MA1102101999999MW1361MW2711REMMET073METAR EDHK 110120Z 05019KT 7000 -SN DRSN SCT011 BKN021 M01/M03 Q1021 WHT;
0147100465999992010011102204+54367+010133FM-15+0031EDHK V0200501N008210060019N0060001N1-00101-00301999999ADDGA1071+006001999GF107991999999999999999999MA1102101999999MW1361MW2711REMMET066METAR EDHK 110220Z 05016KT 6000 -SN DRSN BKN020 M01/M03 Q1021 WHT;
0170100465999992010011103204+54367+010133FM-15+0031EDHK V0200401N009310054019N0070001N1-00101-00301999999ADDGA1021+003301999GA2071+005401999GF107991999999999999999999MA1102101999999MW1361MW2711REMMET073METAR EDHK 110320Z 04018KT 7000 -SN DRSN FEW011 BKN018 M01/M03 Q1021 WHT;
0170100465999992010011104204+54367+010133FM-15+0031EDHK V0200401N008710051019N0070001N1-00101-00301999999ADDGA1021+003001999GA2071+005101999GF107991999999999999999999MA1102001999999MW1361MW2711REMMET073METAR EDHK 110420Z 04017KT 7000 -SN DRSN FEW010 BKN017 M01/M03 Q1020 WHT;
0151100465999992010011105204+54367+010133FM-15+0031EDHK V0200401N008710066019N0070001N1+00001-00301999999ADDGA1071+006601999GF107991999999999999999999MA1102001999999MW1361REMMET076METAR EDHK 110520Z 04017KT 7000 DRSN BKN022 M00/M03 Q1020 WHT WHT TEMPO AMB;
0151100465999992010011106204+54367+010133FM-15+0031EDHK V0200501N008710060019N0070001N1+00001-00301999999ADDGA1071+006001999GF107991999999999999999999MA1102001999999MW1361REMMET076METAR EDHK 110620Z 05017KT 7000 DRSN BKN020 M00/M03 Q1020 WHT WHT TEMPO AMB;
0140100465999992010011107204+54367+010133FM-15+0031EDHK V0200501N008710060019N0112651N1+00001-00301999999ADDGA1071+006001999GF107991999999999999999999MA1102001999999REMMET071METAR EDHK 110720Z 05017KT 9999 BKN020 M00/M03 Q1020 WHT WHT TEMPO AMB;
0139100465999992010011108204+54367+010133FM-15+0031EDHK V0200501N009810060019N0112651N1+00001-00301999999ADDGA1071+006001999GF107991999999999999999999MA1102101999999REMMET070METAR EDHK 110820Z 05019KT 9999 BKN020 00/M03 Q1021 WHT WHT TEMPO YLO;
0149100465999992010011109204+54367+010133FM-15+0031EDHK V0200501N009310060019N0090001N1+00001-00401999999ADDGA1071+006001999GF107991999999999999999999MA1102101999999MW1711REMMET074METAR EDHK 110920Z 05018KT 9000 -SN BKN020 00/M04 Q1021 WHT WHT TEMPO YLO;
0139100465999992010011110204+54367+010133FM-15+0031EDHK V0200501N008210066019N0112651N1+00001-00401999999ADDGA1071+006601999GF107991999999999999999999MA1102101999999REMMET070METAR EDHK 111020Z 05016KT 9999 BKN022 00/M04 Q1021 WHT WHT TEMPO YLO;
0149100465999992010011110464+54367+010133FM-16+0031EDHK V0200501N008210060019N0020001N1+00001-00301999999ADDGA1071+006001999GF107991999999999999999999MA1102101999999MW1731REMMET074SPECI EDHK 111046Z 05016KT 2000 SN BKN020 M00/M03 Q1021 YLO WHT TEMPO YLO;
0149100465999992010011110474+54367+010133FM-16+0031EDHK V0200501N008210060019N0020001N1+00001-00301999999ADDGA1071+006001999GF107991999999999999999999MA1102101999999MW1731REMMET074SPECI EDHK 111047Z 05016KT 2000 SN BKN020 M00/M03 Q1021 YLO WHT TEMPO YLO;
0149100465999992010011111004+54367+010133FM-15+0031EDHK V0200501N007710030019N0015001N1-00101-00201999999ADDGA1071+003001999GF107991999999999999999999MA1102101999999MW1731REMMET074SPECI EDHK 111056Z 05015KT 1500 SN BKN010 M01/M02 Q1021 AMB WHT TEMPO AMB;
0202100465999992010011111204+54367+010133FM-15+0031EDHK V0200501N008710060019N0015001N1-00101-00301999999ADDED199U16009GA1041+003001999GA2071+006001999GF107991999999999999999999MA1102001999999MW1101MW2731REMMET094METAR EDHK 111120Z 05017KT 1500 R26/1600N SN BR SCT010 BKN020 M01/M03 Q1020 AMB WHT TEMPO AMB;
0182100465999992010011111504+54367+010133FM-16+0031EDHK V0200501N008710066019N0020001N1+00001-00301999999ADDGA1021+003001999GA2071+006601999GF107991999999999999999999MA1102001999999MW1101MW2711REMMET085SPECI EDHK 111150Z 05017KT 2000 -SN BR FEW010 BKN022 M00/M03 Q1020 YLO WHT TEMPO AMB;
0187100465999992010011112204+54367+010133FM-15+0031EDHK V0200501N008710066019N0025001N1-00101-00301999999ADDGA1021+003301999GA2071+006601999GF107991999999999999999999MA1102001999999MW1101MW2711REMMET090METAR EDHK 111220Z 05017KT 2500 -SN BR FEW011 BKN022 M01/M03 Q1020 RESN YLO WHT TEMPO AMB;
0182100465999992010011113204+54367+010133FM-15+0031EDHK V0200501N009310069019N0025001N1-00101-00301999999ADDGA1021+003301999GA2071+006901999GF107991999999999999999999MA1102001999999MW1101MW2711REMMET085METAR EDHK 111320Z 05018KT 2500 -SN BR FEW011 BKN023 M01/M03 Q1020 YLO WHT TEMPO AMB;
0163100465999992010011114204+54367+010133FM-15+0031EDHK V0200501N008710066019N0060001N1+00001-00401999999ADDGA1021+003301999GA2071+006601999GF107991999999999999999999MA1102001999999REMMET078METAR EDHK 111420Z 05017KT 6000 FEW011 BKN022 M00/M04 Q1020 WHT WHT TEMPO AMB;
0182100465999992010011114404+54367+010133FM-16+0031EDHK V0200501N008710066019N0025001N1-00101-00401999999ADDGA1021+003301999GA2071+006601999GF107991999999999999999999MA1102001999999MW1101MW2711REMMET085SPECI EDHK 111440Z 05017KT 2500 -SN BR FEW011 BKN022 M01/M04 Q1020 YLO WHT TEMPO AMB;
0182100465999992010011115204+54367+010133FM-15+0031EDHK V0200401N007210018019N0015001N1-00101-00301999999ADDGA1071+001801999GA2071+003301999GF107991999999999999999999MA1102001999999MW1101MW2711REMMET085METAR EDHK 111520Z 04014KT 1500 -SN BR BKN006 BKN011 M01/M03 Q1020 AMB WHT TEMPO AMB;
0182100465999992010011116204+54367+010133FM-15+0031EDHK V0200401N007210018019N0015001N1-00201-00201999999ADDGA1071+001801999GA2071+003601999GF107991999999999999999999MA1102001999999MW1101MW2711REMMET085METAR EDHK 111620Z 04014KT 1500 -SN BR BKN006 BKN012 M02/M02 Q1020 AMB WHT TEMPO AMB;
0159100465999992010011117204+54367+010133FM-15+0031EDHK V0200401N007210015019N0015001N1-00101-00201999999ADDGA1071+001501999GF107991999999999999999999MA1102001999999MW1101MW2711REMMET078METAR EDHK 111720Z 04014KT 1500 -SN BR BKN005 M01/M02 Q1020 AMB WHT TEMPO AMB;
0159100465999992010011118204+54367+010133FM-15+0031EDHK V0200401N007210015019N0015001N1-00101-00201999999ADDGA1071+001501999GF107991999999999999999999MA1101901999999MW1101MW2711REMMET078METAR EDHK 111820Z 04014KT 1500 -SN BR BKN005 M01/M02 Q1019 AMB WHT TEMPO AMB;
0159100465999992010011118454+54367+010133FM-16+0031EDHK V0200401N007710015019N0020001N1-00101-00101999999ADDGA1071+001501999GF107991999999999999999999MA1101901999999MW1101MW2711REMMET078SPECI EDHK 111845Z 04015KT 2000 -SN BR BKN005 M01/M01 Q1019 YLO WHT TEMPO AMB;
0157100465999992010011119204+54367+010133FM-15+0031EDHK V0200401N007710021019N0030001N1-00101-00201999999ADDGA1071+002101999GF107991999999999999999999MA1101901999999MW1101MW2711REMMET076METAR EDHK 111920Z 04015KT 3000 -SN BR BKN007 M01/M02 Q1019 YLO FCST CANCEL;
0145100465999992010011120204+54367+010133FM-15+0031EDHK V0200401N007210018019N0030001N1-00101-00201999999ADDGA1071+001801999GF107991999999999999999999MA1101901999999MW1101MW2711REMMET064METAR EDHK 112020Z 04014KT 3000 -SN BR BKN006 M01/M02 Q1019 YLO;
0145100465999992010011121204+54367+010133FM-15+0031EDHK V0200501N007710018019N0035001N1-00101-00101999999ADDGA1071+001801999GF107991999999999999999999MA1101901999999MW1101MW2711REMMET064METAR EDHK 112120Z 05015KT 3500 -SN BR BKN006 M01/M01 Q1019 YLO;
0134100465999992010011122204+54367+010133FM-15+0031EDHK V0200501N005710018019N0040001N1+00001-00101999999ADDGA1071+001801999GF107991999999999999999999MA1102001999999MW1101REMMET059METAR EDHK 112220Z 05011KT 4000 BR BKN006 00/M01 Q1020 YLO;
0158100465999992010011123204+54367+010133FM-15+0031EDHK V0200701N006210039019N0050001N1+00001-00201999999ADDGA1041+001801999GA2071+003901999GF107991999999999999999999MA1102001999999MW1101REMMET067METAR EDHK 112320Z 07012KT 5000 BR SCT006 BKN013 M00/M02 Q1020 GRN;
0135100465999992010011200204+54367+010133FM-15+0031EDHK V0200801N006210030019N0050001N1+00001-00201999999ADDGA1071+003001999GF107991999999999999999999MA1102001999999MW1101REMMET060METAR EDHK 120020Z 08012KT 5000 BR BKN010 M00/M02 Q1020 GRN;
0149100465999992010011201204+54367+010133FM-15+0031EDHK V0200901N003610150019N0060001N1-00101-00301999999ADDGA1041+003001999GA2071+015001999GF107991999999999999999999MA1102001999999REMMET064METAR EDHK 120120Z 09007KT 6000 SCT010 BKN050 M01/M03 Q1020 WHT;
0149100465999992010011202204+54367+010133FM-15+0031EDHK V0201001N003110150019N0070001N1-00101-00301999999ADDGA1041+003001999GA2071+015001999GF107991999999999999999999MA1102001999999REMMET064METAR EDHK 120220Z 10006KT 7000 SCT010 BKN050 M01/M03 Q1020 WHT;
0149100465999992010011203204+54367+010133FM-15+0031EDHK V0201201N002110150019N0070001N1-00201-00401999999ADDGA1041+003001999GA2071+015001999GF107991999999999999999999MA1102001999999REMMET064METAR EDHK 120320Z 12004KT 7000 SCT010 BKN050 M02/M04 Q1020 WHT;
0149100465999992010011204204+54367+010133FM-15+0031EDHK V0201101N001510150019N0070001N1-00201-00401999999ADDGA1041+003001999GA2071+015001999GF107991999999999999999999MA1102001999999REMMET064METAR EDHK 120420Z 11003KT 7000 SCT010 BKN050 M02/M04 Q1020 WHT;
0140100465999992010011205074+54367+010133FM-16+0031EDHK V0201101N001510036019N0070001N1-00201-00401999999ADDGA1071+003601999GF107991999999999999999999MA1102001999999REMMET071SPECI EDHK 120507Z 11003KT 7000 BKN012 M02/M04 Q1020 GRN BLU TEMPO YLO;
0140100465999992010011205204+54367+010133FM-15+0031EDHK V0201301N001010033019N0070001N1-00201-00401999999ADDGA1071+003301999GF107991999999999999999999MA1102001999999REMMET071METAR EDHK 120520Z 13002KT 7000 BKN011 M02/M04 Q1020 GRN BLU TEMPO YLO;
0163100465999992010011206204+54367+010133FM-15+0031EDHK V0201201N001510036019N0070001N1-00201-00401999999ADDGA1041+002701999GA2071+003601999GF107991999999999999999999MA1102101999999REMMET078METAR EDHK 120620Z 12003KT 7000 SCT009 BKN012 M02/M04 Q1021 GRN BLU TEMPO YLO;
0159100465999992010011207204+54367+010133FM-15+0031EDHK V0201201N002610024019N0035001N1-00201-00401999999ADDGA1071+002401999GF107991999999999999999999MA1102101999999MW1101MW2771REMMET078METAR EDHK 120720Z 12005KT 3500 -SG BR BKN008 M02/M04 Q1021 YLO BLU TEMPO YLO;
0172100465999992010011208054+54367+010133FM-16+0031EDHK V0201201N003110090019N0050001N1-00201-00401999999ADDGA1041+002401999GA2071+009001999GF107991999999999999999999MA1102101999999MW1101REMMET081SPECI EDHK 120805Z 12006KT 5000 BR SCT008 BKN030 M02/M04 Q1021 WHT BLU TEMPO YLO;
0172100465999992010011208204+54367+010133FM-15+0031EDHK V0201101N002610087019N0050001N1-00201-00401999999ADDGA1041+003001999GA2071+008701999GF107991999999999999999999MA1102101999999MW1101REMMET081METAR EDHK 120820Z 11005KT 5000 BR SCT010 BKN029 M02/M04 Q1021 WHT BLU TEMPO YLO;
0172100465999992010011209204+54367+010133FM-15+0031EDHK V0201201N002610090019N0050001N1-00201-00401999999ADDGA1041+002701999GA2071+009001999GF107991999999999999999999MA1102101999999MW1101REMMET081METAR EDHK 120920Z 12005KT 5000 BR SCT009 BKN030 M02/M04 Q1021 WHT BLU TEMPO YLO;
0172100465999992010011210204+54367+010133FM-15+0031EDHK V0201201N002610090019N0050001N1-00201-00401999999ADDGA1041+002401999GA2071+009001999GF107991999999999999999999MA1102101999999MW1101REMMET081METAR EDHK 121020Z 12005KT 5000 BR SCT008 BKN030 M02/M04 Q1021 WHT BLU TEMPO YLO;
0163100465999992010011211204+54367+010133FM-15+0031EDHK V0201301N002610096019N0060001N1-00201-00401999999ADDGA1041+002401999GA2071+009601999GF107991999999999999999999MA1102001999999REMMET078METAR EDHK 121120Z 13005KT 6000 SCT008 BKN032 M02/M04 Q1020 WHT BLU TEMPO YLO;
0163100465999992010011212204+54367+010133FM-15+0031EDHK V0201101N002610075019N0070001N1-00201-00401999999ADDGA1021+002401999GA2071+007501999GF107991999999999999999999MA1102001999999REMMET078METAR EDHK 121220Z 11005KT 7000 FEW008 BKN025 M02/M04 Q1020 WHT BLU TEMPO YLO;
0163100465999992010011213204+54367+010133FM-15+0031EDHK V0201001N002110078019N0070001N1-00201-00401999999ADDGA1021+002701999GA2071+007801999GF107991999999999999999999MA1102001999999REMMET078METAR EDHK 121320Z 10004KT 7000 FEW009 BKN026 M02/M04 Q1020 WHT BLU TEMPO YLO;
0163100465999992010011214204+54367+010133FM-15+0031EDHK V0200901N002610078019N0070001N1-00101-00501999999ADDGA1021+002701999GA2071+007801999GF107991999999999999999999MA1101901999999REMMET078METAR EDHK 121420Z 09005KT 7000 FEW009 BKN026 M01/M05 Q1019 WHT WHT TEMPO GRN;
0163100465999992010011215204+54367+010133FM-15+0031EDHK V0200901N003610078019N0070001N1-00201-00401999999ADDGA1021+003001999GA2071+007801999GF107991999999999999999999MA1101901999999REMMET078METAR EDHK 121520Z 09007KT 7000 FEW010 BKN026 M02/M04 Q1019 WHT WHT TEMPO GRN;
0163100465999992010011216204+54367+010133FM-15+0031EDHK V0201001N003110081019N0060001N1-00201-00401999999ADDGA1021+003001999GA2071+008101999GF107991999999999999999999MA1101901999999REMMET078METAR EDHK 121620Z 10006KT 6000 FEW010 BKN027 M02/M04 Q1019 WHT WHT TEMPO GRN;
0163100465999992010011217204+54367+010133FM-15+0031EDHK V0201001N002610075019N0060001N1-00201-00401999999ADDGA1021+003001999GA2071+007501999GF107991999999999999999999MA1101901999999REMMET078METAR EDHK 121720Z 10005KT 6000 FEW010 BKN025 M02/M04 Q1019 WHT WHT TEMPO GRN;
0163100465999992010011218204+54367+010133FM-15+0031EDHK V0201101N003610072019N0080001N1-00201-00401999999ADDGA1021+003001999GA2071+007201999GF107991999999999999999999MA1101901999999REMMET078METAR EDHK 121820Z 11007KT 8000 FEW010 BKN024 M02/M04 Q1019 WHT WHT TEMPO GRN;
0138100465999992010011219204+54367+010133FM-15+0031EDHK V0201101N003110072019N0080001N1-00201-00501999999ADDGA1071+007201999GF107991999999999999999999MA1101801999999REMMET069METAR EDHK 121920Z 11006KT 8000 BKN024 M02/M05 Q1018 WHT FCST CANCEL;
0126100465999992010011220204+54367+010133FM-15+0031EDHK V0200901N003110057019N0080001N1-00201-00401999999ADDGA1071+005701999GF107991999999999999999999MA1101801999999REMMET057METAR EDHK 122020Z 09006KT 8000 BKN019 M02/M04 Q1018 WHT;
0126100465999992010011221204+54367+010133FM-15+0031EDHK V0200901N003610066019N0080001N1-00201-00501999999ADDGA1071+006601999GF107991999999999999999999MA1101801999999REMMET057METAR EDHK 122120Z 09007KT 8000 BKN022 M02/M05 Q1018 WHT;
0149100465999992010011222204+54367+010133FM-15+0031EDHK V0201001N003610066019N0080001N1-00201-00401999999ADDGA1041+003601999GA2071+006601999GF107991999999999999999999MA1101801999999REMMET064METAR EDHK 122220Z 10007KT 8000 SCT012 BKN022 M02/M04 Q1018 WHT;
0149100465999992010011223204+54367+010133FM-15+0031EDHK V0200901N003110060019N0080001N1-00201-00401999999ADDGA1021+003301999GA2071+006001999GF107991999999999999999999MA1101801999999REMMET064METAR EDHK 122320Z 09006KT 8000 FEW011 BKN020 M02/M04 Q1018 WHT;
0126100465999992010011300204+54367+010133FM-15+0031EDHK V0200901N003610057019N0070001N1-00201-00401999999ADDGA1071+005701999GF107991999999999999999999MA1101691999999REMMET057METAR EDHK 130020Z 09007KT 7000 BKN019 M02/M04 Q1017 WHT;
0126100465999992010011301204+54367+010133FM-15+0031EDHK V0200901N003610048019N0070001N1-00201-00401999999ADDGA1071+004801999GF107991999999999999999999MA1101691999999REMMET057METAR EDHK 130120Z 09007KT 7000 BKN016 M02/M04 Q1017 WHT;
0126100465999992010011302204+54367+010133FM-15+0031EDHK V0200901N004110045019N0080001N1-00201-00401999999ADDGA1071+004501999GF107991999999999999999999MA1101591999999REMMET057METAR EDHK 130220Z 09008KT 8000 BKN015 M02/M04 Q1016 WHT;
0126100465999992010011303204+54367+010133FM-15+0031EDHK V0200901N004110087019N0080001N1-00201-00401999999ADDGA1071+008701999GF107991999999999999999999MA1101591999999REMMET057METAR EDHK 130320Z 09008KT 8000 BKN029 M02/M04 Q1016 BLU;
0126100465999992010011304204+54367+010133FM-15+0031EDHK V0200901N003610090019N0080001N1-00201-00401999999ADDGA1071+009001999GF107991999999999999999999MA1101491999999REMMET057METAR EDHK 130420Z 09007KT 8000 BKN030 M02/M04 Q1015 BLU;
0163100465999992010011305204+54367+010133FM-15+0031EDHK V0200901N004610099019N0080001N1-00201-00401999999ADDGA1041+002101999GA2071+009901999GF107991999999999999999999MA1101491999999REMMET078METAR EDHK 130520Z 09009KT 8000 SCT007 BKN033 M02/M04 Q1015 BLU BLU TEMPO GRN;
0163100465999992010011306204+54367+010133FM-15+0031EDHK V0200901N004110099019N0080001N1-00201-00401999999ADDGA1041+002401999GA2071+009901999GF107991999999999999999999MA1101491999999REMMET078METAR EDHK 130620Z 09008KT 8000 SCT008 BKN033 M02/M04 Q1015 BLU BLU TEMPO GRN;
0163100465999992010011307204+54367+010133FM-15+0031EDHK V0200901N004610087019N0080001N1-00101-00401999999ADDGA1021+003001999GA2071+008701999GF107991999999999999999999MA1101491999999REMMET078METAR EDHK 130720Z 09009KT 8000 FEW010 BKN029 M01/M04 Q1015 BLU BLU TEMPO GRN;
0163100465999992010011308204+54367+010133FM-15+0031EDHK V0201001N004610087019N0090001N1-00101-00401999999ADDGA1041+003601999GA2071+008701999GF107991999999999999999999MA1101491999999REMMET078METAR EDHK 130820Z 10009KT 9000 SCT012 BKN029 M01/M04 Q1015 BLU BLU TEMPO GRN;
0140100465999992010011309204+54367+010133FM-15+0031EDHK V0201001N005110030019N0070001N1-00101-00301999999ADDGA1071+003001999GF107991999999999999999999MA1101491999999REMMET071METAR EDHK 130920Z 10010KT 7000 BKN010 M01/M03 Q1015 GRN BLU TEMPO GRN;
0140100465999992010011310204+54367+010133FM-15+0031EDHK V0201001N003610024019N0070001N1-00201-00301999999ADDGA1071+002401999GF107991999999999999999999MA1101491999999REMMET071METAR EDHK 131020Z 10007KT 7000 BKN008 M02/M03 Q1015 GRN BLU TEMPO GRN;
0140100465999992010011311204+54367+010133FM-15+0031EDHK V0200901N006210024019N0080001N1-00201-00401999999ADDGA1071+002401999GF107991999999999999999999MA1101391999999REMMET071METAR EDHK 131120Z 09012KT 8000 BKN008 M02/M04 Q1014 GRN BLU TEMPO GRN;
0140100465999992010011312204+54367+010133FM-15+0031EDHK V0201001N005710021019N0090001N1-00201-00401999999ADDGA1071+002101999GF107991999999999999999999MA1101391999999REMMET071METAR EDHK 131220Z 10011KT 9000 BKN007 M02/M04 Q1014 GRN BLU TEMPO GRN;
0151100465999992010011313204+54367+010133FM-15+0031EDHK V0201101N005710024019N0090001N1-00201-00401999999ADDGA1071+002401999GF107991999999999999999999MA1101391999999OC101131REMMET074METAR EDHK 131320Z 11011G22KT 9000 BKN008 M02/M04 Q1014 GRN BLU TEMPO GRN;
0140100465999992010011314204+54367+010133FM-15+0031EDHK V0201001N005110030019N0112651N1-00201-00401999999ADDGA1071+003001999GF107991999999999999999999MA1101291999999REMMET071METAR EDHK 131420Z 10010KT 9999 BKN010 M02/M04 Q1013 GRN BLU TEMPO GRN;
0140100465999992010011315204+54367+010133FM-15+0031EDHK V0201101N005710033019N0070001N1-00101-00401999999ADDGA1071+003301999GF107991999999999999999999MA1101291999999REMMET071METAR EDHK 131520Z 11011KT 7000 BKN011 M01/M04 Q1013 GRN BLU TEMPO GRN;
0140100465999992010011316204+54367+010133FM-15+0031EDHK V0201101N006210033019N0070001N1-00101-00401999999ADDGA1071+003301999GF107991999999999999999999MA1101291999999REMMET071METAR EDHK 131620Z 11012KT 7000 BKN011 M01/M04 Q1013 GRN GRN TEMPO BLU;
0140100465999992010011317204+54367+010133FM-15+0031EDHK V0201101N005710033019N0070001N1-00101-00301999999ADDGA1071+003301999GF107991999999999999999999MA1101291999999REMMET071METAR EDHK 131720Z 11011KT 7000 BKN011 M01/M03 Q1013 GRN GRN TEMPO BLU;
0140100465999992010011318204+54367+010133FM-15+0031EDHK V0201101N005710036019N0080001N1-00101-00301999999ADDGA1071+003601999GF107991999999999999999999MA1101291999999REMMET071METAR EDHK 131820Z 11011KT 8000 BKN012 M01/M03 Q1013 GRN GRN TEMPO BLU;
0138100465999992010011319004+54367+010133FM-16+0031EDHK V0201201N004610036019N0080001N1-00101-00301999999ADDGA1071+003601999GF107991999999999999999999MA1101291999999REMMET069SPECI EDHK 131900Z 12009KT 8000 BKN012 M01/M03 Q1013 GRN FCST CANCEL;
0126100465999992010011319204+54367+010133FM-15+0031EDHK V0201201N004110033019N0080001N1-00101-00301999999ADDGA1071+003301999GF107991999999999999999999MA1101291999999REMMET057METAR EDHK 131920Z 12008KT 8000 BKN011 M01/M03 Q1013 GRN;
0126100465999992010011320204+54367+010133FM-15+0031EDHK V0201201N005710030019N0080001N1-00101-00301999999ADDGA1071+003001999GF107991999999999999999999MA1101291999999REMMET057METAR EDHK 132020Z 12011KT 8000 BKN010 M01/M03 Q1013 GRN;
0126100465999992010011321204+54367+010133FM-15+0031EDHK V0201301N005110030019N0080001N1-00101-00301999999ADDGA1071+003001999GF107991999999999999999999MA1101291999999REMMET057METAR EDHK 132120Z 13010KT 8000 BKN010 M01/M03 Q1013 GRN;
0126100465999992010011322204+54367+010133FM-15+0031EDHK V0201201N005710027019N0080001N1-00101-00301999999ADDGA1071+002701999GF107991999999999999999999MA1101291999999REMMET057METAR EDHK 132220Z 12011KT 8000 BKN009 M01/M03 Q1013 GRN;
0126100465999992010011323204+54367+010133FM-15+0031EDHK V0201301N003610027019N0080001N1-00101-00301999999ADDGA1071+002701999GF107991999999999999999999MA1101291999999REMMET057METAR EDHK 132320Z 13007KT 8000 BKN009 M01/M03 Q1013 GRN;
0126100465999992010011400204+54367+010133FM-15+0031EDHK V0201301N005710027019N0080001N1-00101-00301999999ADDGA1071+002701999GF107991999999999999999999MA1101191999999REMMET057METAR EDHK 140020Z 13011KT 8000 BKN009 M01/M03 Q1012 GRN;
0126100465999992010011401204+54367+010133FM-15+0031EDHK V0201301N004610024019N0060001N1-00201-00301999999ADDGA1071+002401999GF107991999999999999999999MA1101191999999REMMET057METAR EDHK 140120Z 13009KT 6000 BKN008 M02/M03 Q1012 GRN;
0126100465999992010011402204+54367+010133FM-15+0031EDHK V0201401N004110021019N0060001N1-00201-00401999999ADDGA1071+002101999GF107991999999999999999999MA1101291999999REMMET057METAR EDHK 140220Z 14008KT 6000 BKN007 M02/M04 Q1013 GRN;
0126100465999992010011403204+54367+010133FM-15+0031EDHK V0201101N005710027019N0060001N1-00201-00401999999ADDGA1071+002701999GF107991999999999999999999MA1101191999999REMMET057METAR EDHK 140320Z 11011KT 6000 BKN009 M02/M04 Q1012 GRN;
0126100465999992010011404204+54367+010133FM-15+0031EDHK V0201101N004610027019N0060001N1-00201-00401999999ADDGA1071+002701999GF107991999999999999999999MA1101191999999REMMET057METAR EDHK 140420Z 11009KT 6000 BKN009 M02/M04 Q1012 GRN;
0140100465999992010011405204+54367+010133FM-15+0031EDHK V0201101N004610024019N0070001N1-00201-00401999999ADDGA1071+002401999GF107991999999999999999999MA1101191999999REMMET071METAR EDHK 140520Z 11009KT 7000 BKN008 M02/M04 Q1012 GRN GRN TEMPO YLO;
0140100465999992010011406204+54367+010133FM-15+0031EDHK V0201101N004610033019N0070001N1-00201-00401999999ADDGA1071+003301999GF107991999999999999999999MA1101191999999REMMET071METAR EDHK 140620Z 11009KT 7000 BKN011 M02/M04 Q1012 GRN GRN TEMPO YLO;
0140100465999992010011407204+54367+010133FM-15+0031EDHK V0201101N004610030019N0060001N1-00101-00301999999ADDGA1071+003001999GF107991999999999999999999MA1101291999999REMMET071METAR EDHK 140720Z 11009KT 6000 BKN010 M01/M03 Q1013 GRN GRN TEMPO YLO;
0130100465999992010011408204+54367+010133FM-15+0031EDHK V0201101N004610030019N0060001N1-00101-00301999999ADDGA1071+003001999GF107991999999999999999999MA1101291999999REMMET061METAR EDHK 140820Z 11009KT 6000 BKN010 M01/M03 Q1013 GRN GRN;
0130100465999992010011409204+54367+010133FM-15+0031EDHK V0201201N004610030019N0060001N1-00101-00301999999ADDGA1071+003001999GF107991999999999999999999MA1101391999999REMMET061METAR EDHK 140920Z 12009KT 6000 BKN010 M01/M03 Q1014 GRN GRN;
0130100465999992010011410204+54367+010133FM-15+0031EDHK V0201201N004110033019N0070001N1-00101-00301999999ADDGA1071+003301999GF107991999999999999999999MA1101391999999REMMET061METAR EDHK 141020Z 12008KT 7000 BKN011 M01/M03 Q1014 GRN GRN;
0130100465999992010011411204+54367+010133FM-15+0031EDHK V0201201N004610033019N0060001N1-00101-00401999999ADDGA1071+003301999GF107991999999999999999999MA1101391999999REMMET061METAR EDHK 141120Z 12009KT 6000 BKN011 M01/M04 Q1014 GRN GRN;
0130100465999992010011412204+54367+010133FM-15+0031EDHK V0201301N004110030019N0060001N1-00101-00301999999ADDGA1071+003001999GF107991999999999999999999MA1101391999999REMMET061METAR EDHK 141220Z 13008KT 6000 BKN010 M01/M03 Q1014 GRN GRN;
0130100465999992010011413204+54367+010133FM-15+0031EDHK V0201201N004110033019N0060001N1-00101-00301999999ADDGA1071+003301999GF107991999999999999999999MA1101391999999REMMET061METAR EDHK 141320Z 12008KT 6000 BKN011 M01/M03 Q1014 GRN GRN;
0130100465999992010011414204+54367+010133FM-15+0031EDHK V0201201N004610033019N0060001N1-00101-00401999999ADDGA1071+003301999GF107991999999999999999999MA1101391999999REMMET061METAR EDHK 141420Z 12009KT 6000 BKN011 M01/M04 Q1014 GRN GRN;
0139100465999992010011415204+54367+010133FM-15+0031EDHK V0201101N004610030019N0050001N1-00101-00401999999ADDGA1071+003001999GF107991999999999999999999MA1101391999999MW1101REMMET064METAR EDHK 141520Z 11009KT 5000 BR BKN010 M01/M04 Q1014 GRN GRN;
0139100465999992010011416204+54367+010133FM-15+0031EDHK V0201101N005110030019N0040001N1-00201-00401999999ADDGA1071+003001999GF107991999999999999999999MA1101491999999MW1101REMMET064METAR EDHK 141620Z 11010KT 4000 BR BKN010 M02/M04 Q1015 GRN GRN;
0149100465999992010011417204+54367+010133FM-15+0031EDHK V0201201N004610027019N0040001N1-00201-00401999999ADDGA1071+002701999GF107991999999999999999999MA1101591999999MW1101REMMET074METAR EDHK 141720Z 12009KT 4000 BR BKN009 M02/M04 Q1016 GRN GRN TEMPO YLO;
0149100465999992010011418204+54367+010133FM-15+0031EDHK V0201101N004110027019N0050001N1-00201-00401999999ADDGA1071+002701999GF107991999999999999999999MA1101591999999MW1101REMMET074METAR EDHK 141820Z 11008KT 5000 BR BKN009 M02/M04 Q1016 GRN GRN TEMPO YLO;
0138100465999992010011419204+54367+010133FM-15+0031EDHK V0201001N003610027019N0070001N1-00201-00401999999ADDGA1071+002701999GF107991999999999999999999MA1101591999999REMMET069METAR EDHK 141920Z 10007KT 7000 BKN009 M02/M04 Q1016 GRN FCST CANCEL;
