0164101260999992012010100204+53550+007667FM-15+0012ETNT V0202001N004110009019N0025001N1+00901+00901999999ADDED126U12009GA1081+000901999GF108991999999999999999999MA1100611999999MW1101MW2511REMMET072METAR ETNT 010020Z 20008KT 2500 R26/1200N -DZ BR OVC003 09/09 Q1006 YLO;
0187101260999992012010101004+53550+007667FM-12+0012ETNT V0202101N005010009019N0025001N1+00901+00871100621ADDAY161999AY251999GA1081+000901071GF108991081061000751999999MA1999999100461MD1710111+9999MW1581REMSYN082AAXX  01011 10126 41125 82105 10090 20087 30046 40062 57011 75865 886// 333 88703;
0154101260999992012010101204+53550+007667FM-15+0012ETNT V0202101N005710009019N0025001N1+00901+00901999999ADDED126U12009GA1081+000901999GF108991999999999999999999MA1100611999999MW1101REMMET068METAR ETNT 010120Z 21011KT 2500 R26/1200N BR OVC003 09/09 Q1006 YLO;
0187101260999992012010102004+53550+007667FM-12+0012ETNT V0202201N005010009019N0025001N1+00931+00901100611ADDAY161999AY221999GA1081+000901071GF108991081061000751999999MA1999999100451MD1710091+9999MW1211REMSYN082AAXX  01021 10126 41125 82205 10093 20090 30045 40061 57009 72162 886// 333 88703;
0133101260999992012010102204+53550+007667FM-15+0012ETNT V0202201N005110012019N0027001N1+01001+01001999999ADDGA1081+001201999GF108991999999999999999999MA1100511999999MW1101REMMET058METAR ETNT 010220Z 22010KT 2700 BR OVC004 10/10 Q1005 YLO;
0151101260999992012010103204+53550+007667FM-15+0012ETNT V0202201N005110009019N0018001N1+01001+01001999999ADDGA1081+000901999GF108991999999999999999999MA1100511999999MW1101MW2511MW3611REMMET064METAR ETNT 010320Z 22010KT 1800 -RADZ BR OVC003 10/10 Q1005 YLO;
0187101260999992012010104004+53550+007667FM-12+0012ETNT V0202201N006010012019N0017001N1+00991+00951100521ADDAY161999AY261999GA1081+001201071GF108991081061001501999999MA1999999100361MD1710101+9999MW1581REMSYN082AAXX  01041 10126 41217 82206 10099 20095 30036 40052 57010 75866 886// 333 88704;
0151101260999992012010104204+53550+007667FM-15+0012ETNT V0202201N006210012019N0025001N1+01001+01001999999ADDGA1081+001201999GF108991999999999999999999MA1100511999999MW1101MW2511MW3611REMMET064METAR ETNT 010420Z 22012KT 2500 -RADZ BR OVC004 10/10 Q1005 YLO;
0187101260999992012010105004+53550+007667FM-12+0012ETNT V0202301N006010012019N0025001N1+01001+00961100501ADDAY161999AY261999GA1071+001201071GF108991071061001501999999MA1999999100341MD1710111+9999MW1581REMSYN082AAXX  01051 10126 41225 82306 10100 20096 30034 40050 57011 75866 876// 333 87704;
0151101260999992012010105204+53550+007667FM-15+0012ETNT V0202301N006710012019N0025001N1+01001+01001999999ADDGA1071+001201999GF107991999999999999999999MA1100411999999MW1101MW2511MW3611REMMET064METAR ETNT 010520Z 23013KT 2500 -RADZ BR BKN004 10/10 Q1004 YLO;
0143101260999992012010106204+53550+007667FM-15+0012ETNT V0202301N006210012019N0025001N1+01001+01001999999ADDGA1071+001201999GF107991999999999999999999MA1100411999999MW1101MW2511REMMET062METAR ETNT 010620Z 23012KT 2500 -DZ BR BKN004 10/10 Q1004 YLO;
0235101260999992012010107004+53550+007667FM-12+0012ETNT V0202301N006010012019N0020001N1+01011+00961100501ADDAY151999AY251999GA1071+001201071GF108991071071001501999999MA1999999100341MD1510021+9999MW1511REMSYN130AAXX  01071 10126 41220 82306 10101 20096 30034 40050 55002 75155 877// 333 87704 555 BOT 10082 20074 30059 40054 50070 999 31///;
0142101260999992012010107204+53550+007667FM-15+0012ETNT V0202301N005710012019N0020001N1+01001+01001999999ADDGA1071+001201999GF107991999999999999999999MA1100511999999MW1101MW2631REMMET061METAR ETNT 010720Z 23011KT 2000 RA BR BKN004 10/10 Q1005 YLO;
0142101260999992012010107404+53550+007667FM-16+0012ETNT V0202301N006210012019N0015001N1+01001+01001999999ADDGA1071+001201999GF107991999999999999999999MA1100511999999MW1101MW2631REMMET061SPECI ETNT 010740Z 23012KT 1500 RA BR BKN004 10/10 Q1005 AMB;
0187101260999992012010108004+53550+007667FM-12+0012ETNT V0202301N006010012019N0015001N1+01021+00981100561ADDAY161999AY261999GA1071+001201071GF108991071071001501999999MA1999999100401MD1310061+9999MW1631REMSYN082AAXX  01081 10126 41215 82306 10102 20098 30040 40056 53006 76366 877// 333 87704;
0156101260999992012010108204+53550+007667FM-15+0012ETNT V0202301N006710015019N0030001N1+01001+01001999999ADDGA1071+001501999GF107991999999999999999999MA1100511999999MW1101MW2511MW3611REMMET069METAR ETNT 010820Z 23013KT 3000 -DZRA BR BKN005 10/10 Q1005 RERA YLO;
0147101260999992012010108494+53550+007667FM-16+0012ETNT V0202501N006210024019N0070001N1+01101+01001999999ADDGA1041+001801999GA2071+002401999GF107991999999999999999999MA1100511999999REMMET062SPECI ETNT 010849Z 25012KT 7000 SCT006 BKN008 11/10 Q1005 GRN;
0147101260999992012010109204+53550+007667FM-15+0012ETNT V0202401N006710300019N0112651N1+01101+01001999999ADDGA1041+003601999GA2071+030001999GF107991999999999999999999MA1100611999999REMMET062METAR ETNT 010920Z 24013KT 9999 SCT012 BKN100 11/10 Q1006 BLU;
0165101260999992012010110004+53550+007667FM-12+0012ETNT V0202401N007010300019N0120001N1+01071+00951100621ADDGA1041+003601061GF108991041051004501031999MA1999999100461MD1210121+9999REMSYN082AAXX  01101 10126 42462 82407 10107 20095 30046 40062 52012 8453/ 333 84612 87360;
0147101260999992012010110204+53550+007667FM-15+0012ETNT V0202501N006710036019N0112651N1+01101+00901999999ADDGA1071+003601999GA2071+030001999GF107991999999999999999999MA1100611999999REMMET062METAR ETNT 011020Z 25013KT 9999 BKN012 BKN100 11/09 Q1006 GRN;
0147101260999992012010110354+53550+007667FM-16+0012ETNT V0202401N006710390019N0112651N1+01101+00901999999ADDGA1041+003601999GA2071+039001999GF107991999999999999999999MA1100611999999REMMET062SPECI ETNT 011035Z 24013KT 9999 SCT012 BKN130 11/09 Q1006 BLU;
0165101260999992012010111004+53550+007667FM-12+0012ETNT V0202401N00601030001CN0150001N1+01081+00941100631ADDGA1011+003601081GF107991011011004501031999MA1999999100471MD1110071+9999REMSYN082AAXX  01111 10126 42465 72406 10108 20094 30047 40063 51007 8113/ 333 81812 87363;
0147101260999992012010111204+53550+007667FM-15+0012ETNT V0202301N005710390019N0112651N1+01101+01001999999ADDGA1041+003601999GA2071+039001999GF107991999999999999999999MA1100611999999REMMET062METAR ETNT 011120Z 23011KT 9999 SCT012 BKN130 11/10 Q1006 BLU;
0148101260999992012010112204+53550+007667FM-15+0012ETNT V0202301N005110900019N0112651N1+01101+00901999999ADDGA1021+003601999GA2071+090001999GF107991999999999999999999MA1100611999999REMMET063METAR ETNT 011220Z 23010KT 9999 FEW012 BKN300 11/09 Q1006 BLU/;
0165101260999992012010113004+53550+007667FM-12+0012ETNT V0202201N00501220001CN0250001N1+01091+00921100621ADDGA1041+003601081GF107991041011004501001011MA1999999100461MD1010001+9999REMSYN082AAXX  01131 10126 42475 72205 10109 20092 30046 40062 50000 84101 333 84812 86080;
0124101260999992012010113204+53550+007667FM-15+0012ETNT V0202201N004610036019N0112651N1+01101+00901999999ADDGA1071+003601999GF107991999999999999999999MA1100511999999REMMET055METAR ETNT 011320Z 22009KT 9999 BKN012 11/09 Q1005 GRN;
0201101260999992012010114004+53550+007667FM-12+0012ETNT V0202301N005010030019N0250001N1+01111+00941100571ADDGA1071+003001071GF107991071061004501999999MA1999999100411MD1810061+9999REMSYN118AAXX  01141 10126 42475 72305 10111 20094 30041 40057 58006 876// 333 87710 555 BOT 10096 20087 30070 40057 999 31///;
0147101260999992012010114204+53550+007667FM-15+0012ETNT V0202201N004110030019N0112651N1+01101+01001999999ADDGA1071+003001999GA2071+090001999GF107991999999999999999999MA1100511999999REMMET062METAR ETNT 011420Z 22008KT 9999 BKN010 BKN300 11/10 Q1005 GRN;
0147101260999992012010115204+53550+007667FM-15+0012ETNT V0202201N005110030019N0112651N1+01101+01001999999ADDGA1071+003001999GA2071+008701999GF107991999999999999999999MA1100511999999REMMET062METAR ETNT 011520Z 22010KT 9999 BKN010 BKN029 11/10 Q1005 GRN;
0147101260999992012010115294+53550+007667FM-16+0012ETNT V0202201N004110030019N0112651N1+01101+01001999999ADDGA1071+003001999GA2071+008701999GF107991999999999999999999MA1100511999999REMMET062SPECI ETNT 011529Z 22008KT 9999 BKN010 BKN029 11/10 Q1005 GRN;
0165101260999992012010116004+53550+007667FM-12+0012ETNT V0202101N004010030019N0250001N1+01111+00981100491ADDGA1051+003001071GF108991071051004501999999MA1999999100331MD1710131+9999REMSYN082AAXX  01161 10126 42475 82104 10111 20098 30033 40049 57013 875// 333 85710 87624;
0157101260999992012010116204+53550+007667FM-15+0012ETNT V0202001N004610024019N0080001N1+01101+01001999999ADDGA1071+002401999GA2071+006001999GF107991999999999999999999MA1100411999999MW1511REMMET066METAR ETNT 011620Z 20009KT 8000 -DZ BKN008 BKN020 11/10 Q1004 GRN;
0187101260999992012010117004+53550+007667FM-12+0012ETNT V0202001N005010021019N0080001N1+01091+00991100421ADDAY151999AY221999GA1071+002101071GF108991071071002501999999MA1999999100261MD1710151+9999MW1611REMSYN082AAXX  01171 10126 41358 82005 10109 20099 30026 40042 57015 76152 877// 333 87707;
0134101260999992012010117204+53550+007667FM-15+0012ETNT V0202001N004110021019N0080001N1+01101+01001999999ADDGA1071+002101999GF107991999999999999999999MA1100311999999MW1611REMMET059METAR ETNT 011720Z 20008KT 8000 -RA BKN007 11/10 Q1003 GRN;
0142101260999992012010118204+53550+007667FM-15+0012ETNT V0201901N004110021019N0080001N1+01101+01001999999ADDGA1071+002101999GF107991999999999999999999MA1100201999999MW1511MW2611REMMET061METAR ETNT 011820Z 19008KT 8000 -DZRA BKN007 11/10 Q1002 GRN;
0151101260999992012010118494+53550+007667FM-16+0012ETNT V0201801N004610015019N0050001N1+01101+01001999999ADDGA1071+001501999GF107991999999999999999999MA1100201999999MW1101MW2511MW3611REMMET064SPECI ETNT 011849Z 18009KT 5000 -DZRA BR BKN005 11/10 Q1002 YLO;
0187101260999992012010119004+53550+007667FM-12+0012ETNT V0201801N004010015019N0050001N1+01091+01021100211ADDAY161999AY221999GA1071+001501071GF108991071071001501999999MA1999999100051MD1710281+9999MW1581REMSYN082AAXX  01191 10126 41250 81804 10109 20102 30005 40021 57028 75862 877// 333 87705;
0174101260999992012010119204+53550+007667FM-15+0012ETNT V0201901N003110012019N0050001N1+01101+01001999999ADDGA1071+001201999GA2071+003601999GF107991999999999999999999MA1100101999999MW1101MW2511MW3611REMMET071METAR ETNT 011920Z 19006KT 5000 -DZRA BR BKN004 BKN012 11/10 Q1001 YLO;
0193101260999992012010120004+53550+007667FM-12+0012ETNT V0201701N005010012019N0050001N1+01081+01081100051ADDAY161999AY261999GA1061+001201071GF108991071051001501999999MA1999999099891MD1710371+9999MW1611REMSYN088AAXX  01201 10126 41250 81705 10108 20108 39989 40005 57037 76166 875// 333 86704 87613;
0165101260999992012010120204+53550+007667FM-15+0012ETNT V0202001N003610012019N0040001N1+01001+01001999999ADDGA1071+001201999GA2071+004801999GF107991999999999999999999MA1099901999999MW1101MW2631REMMET068METAR ETNT 012020Z 20007KT 4000 RA BR BKN004 BKN016 10/10 Q0999 YLO;
0171101260999992012010121204+53550+007667FM-15+0012ETNT V0202001N004110012019N0040001N1+01101+01101999999ADDGA1071+001201999GA2071+002701999GF107991999999999999999999MA1099701999999MW1101MW2611REMMET074METAR ETNT 012120Z 20008KT 4000 -RA BR BKN004 BKN009 11/11 Q0997 RERA YLO;
0193101260999992012010122004+53550+007667FM-12+0012ETNT V0202101N008010015019N0040001N1+01191+01101099731ADDAY161999AY261999GA1051+001501071GF108991071051001501999999MA1999999099571MD1710481+9999MW1611REMSYN088AAXX  01221 10126 41240 82108 10119 20110 39957 49973 57048 76166 875// 333 85705 87613;
0180101260999992012010122204+53550+007667FM-15+0012ETNT V0202801N00621006001CN0112651N1+01001+00901999999ADDGA1041+001501999GA2041+006001999GA3071+015001999GF107991999999999999999999MA1099801999999MW1611REMMET073METAR ETNT 012220Z 28012KT 9999 -RA SCT005 SCT020 BKN050 10/09 Q0998 BLU;
0215101260999992012010123004+53550+007667FM-12+0012ETNT V0202801N003010090019N0150001N1+00941+00861099821ADDAY161999AY261999GA1021+001501071GA2031+009001061GF108991071051001501999999MA1999999099661MD1510231+9999MW1611REMSYN094AAXX  01231 10126 41265 82803 10094 20086 39966 49982 55023 76166 875// 333 82705 83630 87656;
0157101260999992012010123204+53550+007667FM-15+0012ETNT V0202601N002610150019N0112651N1+00901+00901999999ADDGA1041+009001999GA2071+015001999GF107991999999999999999999MA1099801999999MW1611REMMET066METAR ETNT 012320Z 26005KT 9999 -RA SCT030 BKN050 09/09 Q0998 BLU;
0157101260999992012010200204+53550+007667FM-15+0012ETNT V0202601N004110054019N0090001N1+00901+00801999999ADDGA1041+002401999GA2071+005401999GF107991999999999999999999MA1099901999999MW1611REMMET066METAR ETNT 020020Z 26008KT 9000 -RA SCT008 BKN018 09/08 Q0999 WHT;
0157101260999992012010200414+53550+007667FM-16+0012ETNT V0202601N004610012019N0060001N1+00901+00801999999ADDGA1071+001201999GA2071+008401999GF107991999999999999999999MA1099901999999MW1611REMMET066SPECI ETNT 020041Z 26009KT 6000 -RA BKN004 BKN028 09/08 Q0999 YLO;
0193101260999992012010201004+53550+007667FM-12+0012ETNT V0202501N005010012019N0060001N1+00851+00781099921ADDAY161999AY261999GA1051+001201071GF108991071051001501999999MA1999999099761MD1210191+9999MW1611REMSYN088AAXX  02011 10126 41256 82505 10085 20078 39976 49992 52019 76166 875// 333 85704 87628;
0157101260999992012010201204+53550+007667FM-15+0012ETNT V0202601N004610015019N0112651N1+00901+00801999999ADDGA1071+001501999GA2071+005401999GF107991999999999999999999MA1099901999999MW1611REMMET066METAR ETNT 020120Z 26009KT 9999 -RA BKN005 BKN018 09/08 Q0999 YLO;
0215101260999992012010202004+53550+007667FM-12+0012ETNT V0202401N004010015019N0150001N1+00861+00781100011ADDAY161999AY261999GA1051+001501071GA2041+009001061GF108991071071001501071999MA1999999099851MD1210191+9999MW1611REMSYN094AAXX  02021 10126 41265 82404 10086 20078 39985 40001 52019 76166 8777/ 333 85705 84630 87360;
0170101260999992012010202204+53550+007667FM-15+0012ETNT V0202401N00361015001CN0112651N1+00801+00801999999ADDGA1021+001501999GA2041+015001999GA3071+039001999GF107991999999999999999999MA1100001999999REMMET069METAR ETNT 020220Z 24007KT 9999 FEW005 SCT050 BKN130 08/08 Q1000 BLU;
0147101260999992012010203204+53550+007667FM-15+0012ETNT V0202401N004610024019N0112651N1+00901+00801999999ADDGA1071+002401999GA2071+012601999GF107991999999999999999999MA1100001999999REMMET062METAR ETNT 020320Z 24009KT 9999 BKN008 BKN042 09/08 Q1000 GRN;
0193101260999992012010204004+53550+007667FM-12+0012ETNT V0202301N004010024019N0200001N1+00851+00761100071ADDAY161999AY221999GA1051+002401071GF107991071051002501999999MA1999999099911MD1210151+9999MW1611REMSYN088AAXX  02041 10126 41370 72304 10085 20076 39991 40007 52015 76162 875// 333 85708 87629;
0157101260999992012010204204+53550+007667FM-15+0012ETNT V0202401N005110024019N0112651N1+00901+00801999999ADDGA1071+002401999GA2071+008701999GF107991999999999999999999MA1100001999999MW1611REMMET066METAR ETNT 020420Z 24010KT 9999 -RA BKN008 BKN029 09/08 Q1000 GRN;
0193101260999992012010205004+53550+007667FM-12+0012ETNT V0202501N005010021019N0200001N1+00871+00771100081ADDAY161999AY221999GA1051+002101071GF107991071051002501999999MA1999999099921MD1210071+9999MW1211REMSYN088AAXX  02051 10126 41370 72505 10087 20077 39992 40008 52007 72162 875// 333 85707 87630;
0147101260999992012010205204+53550+007667FM-15+0012ETNT V0202601N005110027019N0112651N1+00901+00701999999ADDGA1071+002701999GA2071+004801999GF107991999999999999999999MA1100001999999REMMET062METAR ETNT 020520Z 26010KT 9999 BKN009 BKN016 09/07 Q1000 GRN;
0138101260999992012010206204+53550+007667FM-15+0012ETNT V0202501N003610027019N0112651N1+00801+00701999999ADDGA1071+002701999GF107991999999999999999999MA1100101999999REMMET069METAR ETNT 020620Z 25007KT 9999 BKN009 08/07 Q1001 GRN GRN BECMG BLU;
0207101260999992012010207004+53550+007667FM-12+0012ETNT V0202501N004010036019N0200001N1+00801+00671100181ADDGA1071+003601061GF107991071051004501999999MA1999999100021MD1210111+9999REMSYN124AAXX  02071 10126 42470 72504 10080 20067 30002 40018 52011 875// 333 87612 555 BOT 10073 20076 30076 40068 50069 999 32///;
0151101260999992012010207204+53550+007667FM-15+0012ETNT V0202501N004110330019N0112651N1+00801+00601999999ADDGA1021+003001999GA2071+033001999GF107991999999999999999999MA1100201999999REMMET066METAR ETNT 020720Z 25008KT 9999 FEW010 BKN110 08/06 Q1002 BLU BLU;
0187101260999992012010208004+53550+007667FM-12+0012ETNT V0202401N00301030001CN0200001N1+00741+00621100251ADDGA1011+003001081GA2031+004501061GF107991031081004501071999MA1999999100091MD1210171+9999REMSYN088AAXX  02081 10126 42470 72403 10074 20062 30009 40025 52017 8387/ 333 81810 83615 87363;
0151101260999992012010208204+53550+007667FM-15+0012ETNT V0202301N003110390019N0112651N1+00701+00601999999ADDGA1021+003601999GA2071+039001999GF107991999999999999999999MA1100201999999REMMET066METAR ETNT 020820Z 23006KT 9999 FEW012 BKN130 07/06 Q1002 BLU BLU;
0174101260999992012010209204+53550+007667FM-15+0012ETNT V0202401N00361004501CN0112651N1+00701+00601999999ADDGA1021+003001999GA2041+004501999GA3071+048001999GF107991999999999999999999MA1100311999999REMMET073METAR ETNT 020920Z 24007KT 9999 FEW010 SCT015 BKN160 07/06 Q1003 BLU BLU;
0165101260999992012010210004+53550+007667FM-12+0012ETNT V0202401N00401030001CN0200001N1+00711+00591100391ADDGA1011+002701081GF107991021081002501031021MA1999999100231MD1210211+9999REMSYN082AAXX  02101 10126 42370 72404 10071 20059 30023 40039 52021 82832 333 81809 87069;
0151101260999992012010210204+53550+007667FM-15+0012ETNT V0202401N004110570019N0112651N1+00701+00601999999ADDGA1021+003601999GA2071+057001999GF107991999999999999999999MA1100411999999REMMET066METAR ETNT 021020Z 24008KT 9999 FEW012 BKN190 07/06 Q1004 BLU BLU;
0165101260999992012010211004+53550+007667FM-12+0012ETNT V0202401N00501075001CN0200001N1+00731+00571100421ADDGA1011+003601081GF107991011081004501001021MA1999999100261MD1110171+9999REMSYN082AAXX  02111 10126 42470 72405 10073 20057 30026 40042 51017 81802 333 81812 86070;
0151101260999992012010211204+53550+007667FM-15+0012ETNT V0202501N005110630019N0112651N1+00701+00501999999ADDGA1021+003601999GA2071+063001999GF107991999999999999999999MA1100411999999REMMET066METAR ETNT 021120Z 25010KT 9999 FEW012 BKN210 07/05 Q1004 BLU/BLU;
0152101260999992012010212204+53550+007667FM-15+0012ETNT V0202401N005110690019N0112651N1+00701+00501999999ADDGA1021+005401999GA2071+069001999GF107991999999999999999999MA1100411999999REMMET067METAR ETNT 021220Z 24010KT 9999 FEW018 BKN230 07/05 Q1004 BLU/BLU/;
0165101260999992012010213004+53550+007667FM-12+0012ETNT V0202501N00601075001CN0250001N1+00731+00461100511ADDGA1011+005401081GF106991011081004501001021MA1999999100351MD1310121+9999REMSYN082AAXX  02131 10126 42475 62506 10073 20046 30035 40051 53012 81802 333 81818 85073;
0152101260999992012010213204+53550+007667FM-15+0012ETNT V0202501N005110690019N0112651N1+00701+00501999999ADDGA1021+005401999GA2071+069001999GF107991999999999999999999MA1100511999999REMMET067METAR ETNT 021320Z 25010KT 9999 FEW018 BKN230 07/05 Q1005 BLU/BLU/;
0223101260999992012010214004+53550+007667FM-12+0012ETNT V0202401N005010690019N0200001N1+00721+00431100541ADDGA1011+006001081GA2051+069001001GF105991011021008001001021MA1999999100381MD1210121+9999REMSYN124AAXX  02141 10126 42570 52405 10072 20043 30038 40054 52012 81202 333 81820 85073 555 BOT 10067 20071 30072 40069 999 31///;
0152101260999992012010214204+53550+007667FM-15+0012ETNT V0202301N004110690019N0112651N1+00701+00401999999ADDGA1021+006001999GA2071+069001999GF107991999999999999999999MA1100511999999REMMET067METAR ETNT 021420Z 23008KT 9999 FEW020 BKN230 07/04 Q1005 BLU/BLU/;
0129101260999992012010215204+53550+007667FM-15+0012ETNT V0202201N003112200019N0112651N1+00601+00401999999ADDGA1021+006001999GF102991999999999999999999MA1100611999999REMMET060METAR ETNT 021520Z 22006KT 9999 FEW020 06/04 Q1006 BLU/BLU/;
0159101260999992012010216004+53550+007667FM-12+0012ETNT V0202301N004012200019N0200001N1+00581+00411100671ADDGA1031+006601081GF104991031021008001001011MA1999999100511MD1310161+9999REMSYN076AAXX  02161 10126 42570 42304 10058 20041 30051 40067 53016 83201 333 83822;
0136101260999992012010216204+53550+007667FM-15+0012ETNT V0202301N004112200019N0112651N1+00601+00401999999ADDGA1021+006601999GF102991999999999999999999MA1100711999999REMMET067METAR ETNT 021620Z 23008KT 9999 FEW022 06/04 Q1007 BLU/FCST CANCEL;
0159101260999992012010217004+53550+007667FM-12+0012ETNT V0202301N005012200019N0200001N1+00561+00371100761ADDGA1011+006601081GF102991011011008001001011MA1999999100601MD1310221+9999REMSYN076AAXX  02171 10126 42570 22305 10056 20037 30060 40076 53022 81101 333 81822;
0125101260999992012010217204+53550+007667FM-15+0012ETNT V0202401N005712200019N0112651N1+00601+00401999999ADDGA1041+006601999GF104991999999999999999999MA1100811999999REMMET056METAR ETNT 021720Z 24011KT 9999 SCT022 06/04 Q1008 BLU/;
0125101260999992012010218204+53550+007667FM-15+0012ETNT V0202401N005712200019N0112651N1+00601+00401999999ADDGA1021+006001999GF102991999999999999999999MA1100811999999REMMET056METAR ETNT 021820Z 24011KT 9999 FEW020 06/04 Q1008 BLU/;
0159101260999992012010219004+53550+007667FM-12+0012ETNT V0202401N005012200019N0200001N1+00531+00321100951ADDGA1021+006001081GF102991021021008001001001MA1999999100791MD1310281+9999REMSYN076AAXX  02191 10126 42570 22405 10053 20032 30079 40095 53028 82200 333 82820;
0125101260999992012010219204+53550+007667FM-15+0012ETNT V0202301N004112200019N0112651N1+00501+00301999999ADDGA1021+006001999GF102991999999999999999999MA1101021999999REMMET056METAR ETNT 021920Z 23008KT 9999 FEW020 05/03 Q1010 BLU/;
0159101260999992012010220004+53550+007667FM-12+0012ETNT V0202301N004012200019N0200001N1+00431+00231101041ADDGA1011+009001081GF101991011011008001001001MA1999999100881MD1310291+9999REMSYN076AAXX  02201 10126 42570 12304 10043 20023 30088 40104 53029 81100 333 81830;
0076101260999992012010220204+53550+007667FM-15+0012ETNT V0202301N004612200019N0112651N1+00401+00201999999ADDMA1101021999999REMMET049METAR ETNT 022020Z 23009KT 9999 04/02 Q1010 BLU/;
0076101260999992012010221204+53550+007667FM-15+0012ETNT V0202301N005112200019N0112651N1+00401+00201999999ADDMA1101021999999REMMET049METAR ETNT 022120Z 23010KT 9999 04/02 Q1010 BLU/;
0143101260999992012010222004+53550+007667FM-12+0012ETNT V0202201N004012200019N0200001N1+00361+00161101121ADDGA1001+999999999GF100991001001999999001001MA1999999100961MD1110171+9999REMSYN060AAXX  02221 10126 42970 02204 10036 20016 30096 40112 51017;
0125101260999992012010222204+53550+007667FM-15+0012ETNT V0202201N005112200019N0112651N1+00401+00201999999ADDGA1021+009001999GF102991999999999999999999MA1101081999999REMMET056METAR ETNT 022220Z 22010KT 9999 FEW030 04/02 Q1011 BLU/;
0159101260999992012010223004+53550+007667FM-12+0012ETNT V0202501N005012200019N0200001N1+00431+00201101141ADDGA1011+009001081GF101991011021008001001001MA1999999100981MD1110101+9999REMSYN076AAXX  02231 10126 42570 12505 10043 20020 30098 40114 51010 81200 333 81830;
0125101260999992012010223204+53550+007667FM-15+0012ETNT V0202201N005712200019N0112651N1+00401+00201999999ADDGA1021+009001999GF102991999999999999999999MA1101081999999REMMET056METAR ETNT 022320Z 22011KT 9999 FEW030 04/02 Q1011 BLU/;
0125101260999992012010300204+53550+007667FM-15+0012ETNT V0202201N006712200019N0112651N1+00401+00201999999ADDGA1021+009001999GF102991999999999999999999MA1101081999999REMMET056METAR ETNT 030020Z 22013KT 9999 FEW030 04/02 Q1011 BLU/;
0159101260999992012010301004+53550+007667FM-12+0012ETNT V0202101N006012200019N0200001N1+00391+00191101121ADDGA1011+009001081GF101991011021008001001001MA1999999100961MD1010001+9999REMSYN076AAXX  03011 10126 42570 12106 10039 20019 30096 40112 50000 81200 333 81830;
0140101260999992012010301204+53550+007667FM-15+0012ETNT V0202201N007212200019N0112651N1+00401+00201999999ADDGA1041+009001021GF104991999999999999999999MA1101081999999MW1801REMMET065METAR ETNT 030120Z 22014KT 9999 -SHRA SCT030TCU 04/02 Q1011 BLU/;
0193101260999992012010302004+53550+007667FM-12+0012ETNT V0202101N006012200019N0200001N1+00401+00211101151ADDAY101999AY201999GA1011+009001081GF101991011021008001001001MA1999999100991MD1310011+9999MW1251REMSYN088AAXX  03021 10126 41570 12106 10040 20021 30099 40115 53001 72500 81200 333 81830 91113;
0128101260999992012010302204+53550+007667FM-15+0012ETNT V0202101N007212200019N0112651N1+00401+00201999999ADDGA1021+009001021GF102991999999999999999999MA1101081999999REMMET059METAR ETNT 030220Z 21014KT 9999 FEW030TCU 04/02 Q1011 BLU/;
0148101260999992012010303204+53550+007667FM-15+0012ETNT V0202101N008710630019N0112651N1+00401+00201999999ADDGA1041+003301999GA2071+063001999GF107991999999999999999999MA1101021999999REMMET063METAR ETNT 030320Z 21017KT 9999 SCT011 BKN210 04/02 Q1010 BLU/;
0187101260999992012010304004+53550+007667FM-12+0012ETNT V0202101N009010630019N0200001N1+00421+00241101031ADDGA1041+003301071GA2081+063001021GF108991041061004501001071MA1999999100871MD1810091+9999REMSYN088AAXX  03041 10126 42470 82109 10042 20024 30087 40103 58009 84607 333 84711 88271 91113;
0148101260999992012010304204+53550+007667FM-15+0012ETNT V0202101N008212200019N0112651N1+00401+00301999999ADDGA1041+003301999GA2041+063001999GF104991999999999999999999MA1100911999999REMMET063METAR ETNT 030420Z 21016KT 9999 SCT011 SCT210 04/03 Q1009 BLU/;
0165101260999992012010305004+53550+007667FM-12+0012ETNT V0202101N00801220001CN0200001N1+00421+00251100941ADDGA1041+003601071GF107991041061004501001011MA1999999100781MD1710211+9999REMSYN082AAXX  03051 10126 42470 72108 10042 20025 30078 40094 57021 84601 333 84712 87071;
0125101260999992012010305204+53550+007667FM-15+0012ETNT V0202001N00721003901CN0112651N1+00401+00301999999ADDGA1071+003901999GA2041+063001999MA1100811999999REMMET066METAR ETNT 030520Z 20014KT 9999 BKN013 SCT210 04/03 Q1008 GRN GRN;
0128101260999992012010306204+53550+007667FM-15+0012ETNT V0202001N008210042019N0112651N1+00501+00301999999ADDGA1071+004201999GF107991999999999999999999MA1100711999999REMMET059METAR ETNT 030620Z 20016KT 9999 BKN014 05/03 Q1007 GRN GRN;
0230101260999992012010307004+53550+007667FM-12+0012ETNT V0201901N009010042019N0250001N1+00501+00291100631ADDGA1071+004201061GF107991071051004501999999MA1999999100471MD1710401+9999OA149901401REMSYN136AAXX  03071 10126 42475 71909 10050 20029 30047 40063 57040 875// 333 87614 91014 91114 555 BOT 10035 20036 30048 40065 50071 999 31///;
0128101260999992012010307204+53550+007667FM-15+0012ETNT V0201901N008710039019N0112651N1+00501+00301999999ADDGA1071+003901999GF107991999999999999999999MA1100511999999REMMET059METAR ETNT 030720Z 19017KT 9999 BKN013 05/03 Q1005 GRN GRN;
0193101260999992012010308004+53550+007667FM-12+0012ETNT V0201901N009010039019N0250001N1+00531+00301100441ADDGA1051+003901061GA2071+018001061GF107991071051004501999999MA1999999100281MD1710501+9999REMSYN094AAXX  03081 10126 42475 71909 10053 20030 30028 40044 57050 875// 333 85613 87656 91015 91116;
0161101260999992012010308204+53550+007667FM-15+0012ETNT V0201901N008210048019N0112651N1+00501+00301999999ADDGA1071+004801999GA2071+013801999GF107991999999999999999999MA1100311999999MW1611REMMET070METAR ETNT 030820Z 19016KT 9999 -RA BKN016 BKN046 05/03 Q1003 WHT WHT;
0213101260999992012010309124+53550+007667FM-16+0012ETNT V0201901N010810042019N0045001N1+00501+00401999999ADDGA1021+003001999GA2071+004201999GA3081+013801999GF108991999999999999999999MA1100101999999MW1101MW2631OC101801REMMET092SPECI ETNT 030912Z 19021G35KT 4500 RA BR FEW010 BKN014 OVC046 05/04 Q1001 GRN WHT TEMPO GRN;
0190101260999992012010309204+53550+007667FM-15+0012ETNT V0201901N011810036019N0045001N1+00501+00401999999ADDGA1071+003601999GA2081+012001999GF108991999999999999999999MA1100001999999MW1101MW2631OC101801REMMET085METAR ETNT 030920Z 19023G35KT 4500 RA BR BKN012 OVC040 05/04 Q1000 GRN WHT TEMPO GRN;
0238101260999992012010310004+53550+007667FM-12+0012ETNT V0201801N012010033019N0045001N1+00511+00371099881ADDAY161999AY261999GA1061+003301071GA2081+012001051GF108991061071004501021999MA1999999099721MD1710731+9999MW1631OA149901801REMSYN106AAXX  03101 10126 41445 81812 10051 20037 39972 49988 57073 76366 8672/ 333 86711 88540 91017 91118 91212;
0158101260999992012010310204+53550+007667FM-15+0012ETNT V0201901N011310033019N0060001N1+00601+00401999999ADDGA1071+003301999GF107991999999999999999999MA1099701999999MW1631OC101701REMMET075METAR ETNT 031020Z 19022G33KT 6000 RA BKN011 06/04 Q0997 GRN WHT TEMPO YLO;
0306101260999992012010311004+53550+007667SY-MT+0012ETNT V0202001N013010024019N0050001N1+00621+00471099691ADDAY161999AY261999GA1071+002401999GF108991071071004501999999MA1099591099531MD1710751+9999MW1101MW2631OA149902001REMSYN100AAXX  03111 10126 41450 82013 10062 20047 39953 49969 57075 76366 877// 333 87710 91020 91120 91213;MET078SPECI ETNT 031055Z 20027G39KT 3500 RA BR BKN008 06/05 Q0996 YLO WHT TEMPO YLO;
0164101260999992012010311204+53550+007667FM-15+0012ETNT V0202001N013910024019N0070001N1+00701+00601999999ADDGA1071+002401999GF107991999999999999999999MA1099491999999MW1611OC102061REMMET081METAR ETNT 031120Z 20027G40KT 7000 -RA BKN008 07/06 Q0995 RERA GRN WHT TEMPO YLO;
0175101260999992012010311364+53550+007667FM-16+0012ETNT V0202101N013910024019N0040001N1+00701+00601999999ADDGA1071+002401999GF107991999999999999999999MA1099491999999MW1101MW2531MW3631OC102111REMMET080SPECI ETNT 031136Z 21027G41KT 4000 RADZ BR BKN008 07/06 Q0995 GRN WHT TEMPO YLO;
0172101260999992012010312204+53550+007667FM-15+0012ETNT V0202101N012910024019N0070001N1+00801+00701999999ADDGA1071+002401999GF107991999999999999999999MA1099391999999MW1511MW2611OC102011REMMET083METAR ETNT 031220Z 21025G39KT 7000 -RADZ BKN008 08/07 Q0994 RERA GRN GRN TEMPO YLO;
0216101260999992012010313004+53550+007667FM-12+0012ETNT V0202101N013010024019N0060001N1+00821+00691099341ADDAY161999AY261999GA1071+002401071GF108991071071002501999999MA1999999099181MD1710541+9999MW1611OA149902101REMSYN100AAXX  03131 10126 41356 82113 10082 20069 39918 49934 57054 76166 877// 333 87708 91019 91121 91215;
0159101260999992012010313204+53550+007667FM-15+0012ETNT V0202101N013410024019N0060001N1+00801+00701999999ADDGA1071+002401999GF107991999999999999999999MA1099191999999MW1611OC102011REMMET076METAR ETNT 031320Z 21026G39KT 6000 -RA BKN008 08/07 Q0992 GRN GRN TEMPO YLO;
0288101260999992012010314004+53550+007667FM-12+0012ETNT V0202101N013010024019N0060001N1+00851+00721099152ADDAY161999AY261999GA1071+002401071GF108991071071002501999999MA1999999098992MD1710502+9999MW1611OA149902201OA259901401REMSYN142AAXX  03141 10126 41356 82113 10085 20072 39899 49915 57050 76166 877// 333 87708 91020 91122 91214 555 BOT 10067 20058 30051 40062 999 32///;EQDQ01+000502APC3  
0168101260999992012010314204+53550+007667FM-15+0012ETNT V0202101N012910024019N0050001N1+00901+00701999999ADDGA1071+002401999GF107991999999999999999999MA1099091999999MW1101MW2611OC101901REMMET079METAR ETNT 031420Z 21025G37KT 5000 -RA BR BKN008 09/07 Q0991 GRN GRN TEMPO YLO;
0162101260999992012010315204+53550+007667FM-15+0012ETNT V0202101N013410030019N0070001N1+00901+00801999999ADDGA1071+003001999GF107991999999999999999999MA1098922999999MW1611OC101901REMMET079METAR ETNT 031520Z 21026G37KT 7000 -RA BKN010 09/08 Q0989 RERA GRN FCST CANCEL;
0175101260999992012010315264+53550+007667FM-16+0012ETNT V0202101N012910012019N0010001N1+00901+00801999999ADDED126U99999GA1071+001201999GF107991999999999999999999MA1098981999999MW1101MW2651OC102111REMMET075SPECI ETNT 031526Z 21025G41KT 1000 R26/8000D +RA BR BKN004 09/08 Q0990 AMB;
0203101260999992012010315294+53550+007667FM-16+0012ETNT V0202201N013910030019N0050001N1+00901+00701999999ADDED126U17009GA1041+001201999GA2071+003001999GF107991999999999999999999MA1099091999999MW1101MW2611OC102311REMMET087SPECI ETNT 031529Z 22027G45KT 5000 R26/1700D -RA BR SCT004 BKN010 09/07 Q0991 RERA GRN;
0232101260999992012010316004+53550+007667FM-12+0012ETNT V0202501N008010090019N0070001N1+00661+00511099211ADDAY161999AY261999GA1031+003001071GA2071+009001061GF108991071051004501999999MA1999999099051MD1710141+9999MW1611OA149902301REMSYN100AAXX  03161 10126 41457 82508 10066 20051 39905 49921 57014 76166 875// 333 83710 87630 91123 91215;
0162101260999992012010316204+53550+007667FM-15+0012ETNT V0202501N005710096019N0080001N1+00701+00501999999ADDGA1041+003001999GA2071+009601999GF107991999999999999999999MA1099191999999MW1611REMMET071METAR ETNT 031620Z 25011KT 8000 -RA SCT010 BKN032 07/05 Q0992 RERA BLU;
0193101260999992012010317004+53550+007667FM-12+0012ETNT V0202401N008010300019N0200001N1+00671+00521099301ADDAY161999AY221999GA1021+003001081GF105991041081004501031001MA1999999099141MD1310111+9999MW1211REMSYN088AAXX  03171 10126 41470 52408 10067 20052 39914 49930 53011 72162 84830 333 82810 83647;
0136101260999992012010317204+53550+007667FM-15+0012ETNT V0202401N009812200019N0112651N1+00701+00501999999ADDGA1021+015001999GF102991999999999999999999MA1099291999999OC101491REMMET059METAR ETNT 031720Z 24019G29KT 9999 FEW050 07/05 Q0993 BLU/;
0144101260999992012010318134+53550+007667FM-16+0012ETNT V0202401N01181004501CN0112651N1+00701+00501999999ADDGA1071+004501999GA2041+009001999MA1099391999999MW1801OC102521REMMET071SPECI ETNT 031813Z 24023G49KT 9999 -SHRA BKN015 SCT030 07/05 Q0994 WHT;
0163101260999992012010318204+53550+007667FM-15+0012ETNT V0202501N01651004501CN0070001N1+00701+00201999999ADDGA1071+004501999GA2041+009001999MA1099291999999MW1801OC102521REMMET071METAR ETNT 031820Z 25032G49KT 7000 -SHRA BKN015 SCT030 07/02 Q0993 WHT;EQDQ01+000042SCOTCV
0232101260999992012010319004+53550+007667FM-12+0012ETNT V0202401N009010135019N0200001N1+00631+00391099441ADDAY121999AY221999GA1031+005401081GA2031+013501061GF105991051081004501001001MA1999999099281MD1110231+9999MW1251OA149902501REMSYN100AAXX  03191 10126 41470 52409 10063 20039 39928 49944 51023 72522 85800 333 83818 83645 91125 91217;
0136101260999992012010319204+53550+007667FM-15+0012ETNT V0202401N010312200019N0112651N1+00701+00401999999ADDGA1021+005401999GF102991999999999999999999MA1099391999999OC101591REMMET059METAR ETNT 031920Z 24020G31KT 9999 FEW018 07/04 Q0994 BLU/;
0210101260999992012010320004+53550+007667FM-12+0012ETNT V0202401N011010240019N0250001N1+00731+00291099491ADDGA1031+009001061GA2071+024001031GF107991031051008001031999MA1999999099331MD1210191+9999OA149901601REMSYN100AAXX  03201 10126 42575 72411 10073 20029 39933 49949 52019 8353/ 333 83630 87358 91016 91116 91211;
0158101260999992012010320204+53550+007667FM-15+0012ETNT V0202501N011310240019N0112651N1+00701+00201999999ADDGA1021+009901999GA2071+024001999GF107991999999999999999999MA1099491999999OC101751REMMET065METAR ETNT 032020Z 25022G34KT 9999 FEW033 BKN080 07/02 Q0995 BLU;
0161101260999992012010321204+53550+007667FM-15+0012ETNT V0202501N012910150019N0112651N1+00601+00201999999ADDGA1021+005401021GA2071+015001999GF107991999999999999999999MA1099591999999OC101951REMMET068METAR ETNT 032120Z 25025G38KT 9999 FEW018TCU BKN050 06/02 Q0996 BLU;
0188101260999992012010322004+53550+007667FM-12+0012ETNT V0202501N011010150019N0150001N1+00621+00161099751ADDGA1071+015001061GF107991071051017501999999MA1999999099591MD1210311+9999OA149902101REMSYN094AAXX  03221 10126 42765 72511 10062 20016 39959 49975 52031 875// 333 87650 91016 91121 91214;
0135101260999992012010322204+53550+007667FM-15+0012ETNT V0202501N010810120019N0112651N1+00701+00101999999ADDGA1071+012001999GF107991999999999999999999MA1099701999999OC101701REMMET058METAR ETNT 032220Z 25021G33KT 9999 BKN040 07/01 Q0997 BLU;
0210101260999992012010323004+53550+007667FM-12+0012ETNT V0202501N011010150019N0200001N1+00651+00161099831ADDGA1031+009001061GA2071+015001061GF107991071051008001999999MA1999999099671MD1110341+9999OA149901801REMSYN100AAXX  03231 10126 42570 72511 10065 20016 39967 49983 51034 875// 333 83630 87650 91017 91118 91212;
0158101260999992012010323204+53550+007667FM-15+0012ETNT V0202501N010810150019N0112651N1+00701+00201999999ADDGA1021+010501999GA2071+015001999GF107991999999999999999999MA1099801999999OC101651REMMET065METAR ETNT 032320Z 25021G32KT 9999 FEW035 BKN050 07/02 Q0998 BLU;
0158101260999992012010400204+53550+007667FM-15+0012ETNT V0202501N011310150019N0112651N1+00701+00201999999ADDGA1021+009001999GA2071+015001999GF107991999999999999999999MA1099801999999OC101801REMMET065METAR ETNT 040020Z 25022G35KT 9999 FEW030 BKN050 07/02 Q0998 BLU;
0210101260999992012010401004+53550+007667FM-12+0012ETNT V0202501N010010150019N0200001N1+00651+00191099901ADDGA1011+010501061GA2071+015001061GF107991071051012501999999MA1999999099741MD1110151+9999OA149901801REMSYN100AAXX  04011 10126 42670 72510 10065 20019 39974 49990 51015 875// 333 81635 87650 91015 91118 91211;
0159101260999992012010401204+53550+007667FM-15+0012ETNT V0202401N008710150019N0112651N1+00601+00201999999ADDGA1041+007501999GA2071+015001999GF107991999999999999999999MA1099901999999MW1801REMMET068METAR ETNT 040120Z 24017KT 9999 -SHRA SCT025 BKN050 06/02 Q0999 BLU;
0215101260999992012010402004+53550+007667FM-12+0012ETNT V0202401N007010105019N0150001N1+00561+00281099921ADDAY121999AY221999GA1021+003901081GA2071+010501061GF107991071081004501999999MA1999999099761MD1110091+9999MW1251REMSYN094AAXX  04021 10126 41465 72407 10056 20028 39976 49992 51009 72522 878// 333 82813 87635 91114;
0170101260999992012010402204+53550+007667FM-15+0012ETNT V0202401N010310084019N0112651N1+00601+00201999999ADDGA1021+003901999GA2071+008401999GF107991999999999999999999MA1099901999999MW1801OC101651REMMET071METAR ETNT 040220Z 24020G32KT 9999 -SHRA FEW013 BKN028 06/02 Q0999 BLU;
0124101260999992012010403204+53550+007667FM-15+0012ETNT V0202401N009810090019N0112651N1+00601+00201999999ADDGA1071+009001999GF107991999999999999999999MA1099901999999REMMET055METAR ETNT 040320Z 24019KT 9999 BKN030 06/02 Q0999 BLU;
0146101260999992012010403544+53550+007667FM-16+0012ETNT V0202501N00871003601CN0060001N1+00501+00201999999ADDGA1071+003601021GA2041+009601999MA1100001999999MW1811OC101441REMMET073SPECI ETNT 040354Z 25017G28KT 6000 SHRA BKN012TCU SCT032 05/02 Q1000 GRN;
0221101260999992012010404004+53550+007667FM-12+0012ETNT V0202401N008010096019N0120001N1+00601+00241100001ADDAY121999AY221999GA1031+003601081GA2051+009601061GF107991071081004501999999MA1999999099841MD1310101+9999MW1801REMSYN100AAXX  04041 10126 41462 72408 10060 20024 39984 40000 53010 78022 878// 333 83812 85632 91013 91116;
0167101260999992012010404204+53550+007667FM-15+0012ETNT V0202501N008710114019N0112651N1+00401+00301999999ADDGA1041+004501021GA2071+011401999GF107991999999999999999999MA1100001999999MW1801REMMET076METAR ETNT 040420Z 25017KT 9999 -SHRA SCT015TCU BKN038 04/03 Q1000 RERA BLU;
0215101260999992012010405004+53550+007667FM-12+0012ETNT V0202501N006010135019N0150001N1+00401+00221100041ADDAY181999AY221999GA1041+005401091GA2051+013501061GF106991061091004501001001MA1999999099881MD1210131+9999MW1251REMSYN094AAXX  04051 10126 41465 62506 10040 20022 39988 40004 52013 72582 86900 333 84918 85645 91115;
0161101260999992012010405204+53550+007667FM-15+0012ETNT V0202501N005710135019N0112651N1+00401+00301999999ADDGA1041+005401091GA2071+013501999GF107991999999999999999999MA1100001999999MW1801REMMET070METAR ETNT 040520Z 25011KT 9999 -SHRA SCT018CB BKN045 04/03 Q1000 BLU;
0181101260999992012010406004+53550+007667FM-15+0012ETNT V0202601N006210054019N0112651N1+00501+00301999999ADDGA1071+005401091GA2071+013501999GF107991999999999999999999MA1100101999999MW1801MW2951REMMET084SPECI ETNT 040556Z 26012KT 9999 -TSRA BKN018CB BKN045 05/03 Q1001 WHT BLU TEMPO YLO;
0181101260999992012010406204+53550+007667FM-15+0012ETNT V0202701N007710054019N0112651N1+00501+00301999999ADDGA1071+005401091GA2071+013501999GF107991999999999999999999MA1100101999999MW1801MW2951REMMET084METAR ETNT 040620Z 27015KT 9999 -TSRA BKN018CB BKN045 05/03 Q1001 WHT BLU TEMPO YLO;
0235101260999992012010407004+53550+007667FM-12+0012ETNT V0202601N00701004201CN0150001N1+00551+00351100231ADDAY191999AY281999GA1031+005401091GF105991051091004501001001MA1999999100071MD1210241+9999MW1291REMSYN130AAXX  04071 10126 41465 52607 10055 20035 30007 40023 52024 72998 85900 333 83918 555 BOT 10038 20042 30050 40061 50071 999 32///;
0181101260999992012010407204+53550+007667FM-15+0012ETNT V0202601N007712200019N0112651N1+00601+00401999999ADDGA1041+005401091GA2041+013501999GF104991999999999999999999MA1100201999999MW1801REMMET090METAR ETNT 040720Z 26015KT 9999 -SHRA SCT018CB SCT045 06/04 Q1002 RETS BLU/BLU/ TEMPO YLO;
0193101260999992012010408004+53550+007667FM-12+0012ETNT V0202601N010010054019N0100001N1+00641+00351100351ADDAY181999AY221999GA1051+005401091GF106991061091004501001001MA1999999100191MD1210301+9999MW1801REMSYN088AAXX  04081 10126 41460 62610 10064 20035 30019 40035 52030 78082 86900 333 85918 91114;
0164101260999992012010408204+53550+007667FM-15+0012ETNT V0202701N010312200019N0112651N1+00601+00201999999ADDGA1041+005401091GA2041+013501999GF104991999999999999999999MA1100411999999REMMET079METAR ETNT 040820Z 27020KT 9999 SCT018CB SCT045 06/02 Q1004 BLU/BLU/ TEMPO YLO;
0157101260999992012010409204+53550+007667FM-15+0012ETNT V0202701N00931005401CN0112651N1+00601+00301999999ADDGA1071+005401091GA2041+013501999MA1100511999999REMMET079METAR ETNT 040920Z 27018KT 9999 BKN018CB SCT045 06/03 Q1005 WHT BLU/ TEMPO GRN;EQDQ01+000042SCOTCV
0216101260999992012010410004+53550+007667FM-12+0012ETNT V0202601N011010060019N0150001N1+00671+00301100611ADDAY181999AY221999GA1051+006001091GF105991051091008001001001MA1999999100451MD1210371+9999MW1251OA149901601REMSYN100AAXX  04101 10126 41565 52611 10067 20030 30045 40061 52037 72582 85900 333 85920 91016 91116 91211;
0152101260999992012010410204+53550+007667FM-15+0012ETNT V0202701N010312200019N0112651N1+00601+00201999999ADDGA1041+006001091GF104991999999999999999999MA1100611999999MW1161REMMET077METAR ETNT 041020Z 27020KT 9999 VCSH SCT020CB 06/02 Q1006 BLU/BLU/ TEMPO GRN;
0182101260999992012010411004+53550+007667FM-12+0012ETNT V0202701N01001007501CN0200001N1+00651+00231100701ADDGA1041+006601091GF105991051091008001001001MA1999999100541MD1210351+9999OA149901601REMSYN088AAXX  04111 10126 42570 52710 10065 20023 30054 40070 52035 85900 333 84922 91116 91212;
0142101260999992012010411204+53550+007667FM-15+0012ETNT V0202701N010812200019N0112651N1+00701+00201999999ADDGA1041+015001021GF104991999999999999999999MA1100711999999REMMET073METAR ETNT 041120Z 27021KT 9999 SCT050TCU 07/02 Q1007 BLU/BLU/ TEMPO WHT;
0165101260999992012010412204+53550+007667FM-15+0012ETNT V0202701N010312200019N0112651N1+00701+00201999999ADDGA1021+007801021GA2041+015001999GF104991999999999999999999MA1100711999999REMMET080METAR ETNT 041220Z 27020KT 9999 FEW026TCU SCT050 07/02 Q1007 BLU/BLU/ TEMPO WHT;
0204101260999992012010413004+53550+007667FM-12+0012ETNT V0202601N010010144019N0200001N1+00711+00251100711ADDGA1021+007501081GA2051+014401061GF106991061081008001001001MA1999999100551MD1010101+9999OA149901701REMSYN094AAXX  04131 10126 42570 62610 10071 20025 30055 40071 50010 86800 333 82825 85648 91117 91211;
0154101260999992012010413204+53550+007667FM-15+0012ETNT V0202601N009310144019N0112651N1+00701+00301999999ADDGA1021+007501021GA2071+014401999GF107991999999999999999999MA1100711999999REMMET069METAR ETNT 041320Z 26018KT 9999 FEW025TCU BKN048 07/03 Q1007 BLU BLU;
0291101260999992012010414004+53550+007667FM-12+0012ETNT V0202601N009010138019N0150001N1+00671+00261100721ADDAY121999AY221999GA1031+006601081GA2051+013801061GF107991061081008001071001MA1999999100561MD1310021+9999MW1251OA149901601OA259901101REMSYN148AAXX  04141 10126 41565 72609 10067 20026 30056 40072 53002 72522 86870 333 83822 85646 91015 91116 91211 555 BOT 10054 20054 30053 40060 999 32///;
0189101260999992012010414204+53550+007667FM-15+0012ETNT V0202601N009310150019N0112651N1+00701+00301999999ADDGA1041+005401021GA2071+015001999GA3071+045001999GF107991999999999999999999MA1100711999999MW1801REMMET082METAR ETNT 041420Z 26018KT 9999 -SHRA SCT018TCU BKN050 BKN150 07/03 Q1007 BLU BLU;
0165101260999992012010415204+53550+007667FM-15+0012ETNT V0202501N009310150019N0112651N1+00701+00401999999ADDGA1041+005401021GA2071+015001999GF107991999999999999999999MA1100711999999OC101441REMMET072METAR ETNT 041520Z 25018G28KT 9999 SCT018TCU BKN050 07/04 Q1007 BLU BLU;
0187101260999992012010416004+53550+007667FM-12+0012ETNT V0202501N009010090019N0100001N1+00661+00331100691ADDGA1041+005701081GA2071+009001061GF107991071081004501999999MA1999999100531MD1810021+9999REMSYN088AAXX  04161 10126 42460 72509 10066 20033 30053 40069 58002 878// 333 84819 87630 91115;
0159101260999992012010416204+53550+007667FM-15+0012ETNT V0202501N008210057019N0112651N1+00701+00301999999ADDGA1071+005701999GA2071+011401999GF107991999999999999999999MA1100611999999REMMET074METAR ETNT 041620Z 25016KT 9999 BKN019 BKN038 07/03 Q1006 WHT FCST CANCEL;
0193101260999992012010417004+53550+007667FM-12+0012ETNT V0202401N009010057019N0100001N1+00651+00331100601ADDGA1051+005701081GA2071+011101061GF107991071081004501999999MA1999999100441MD1810121+9999REMSYN094AAXX  04171 10126 42460 72409 10065 20033 30044 40060 58012 878// 333 85819 87637 91015 91116;
0147101260999992012010417204+53550+007667FM-15+0012ETNT V0202401N009310054019N0112651N1+00701+00301999999ADDGA1071+005401999GA2071+012001999GF107991999999999999999999MA1100511999999REMMET062METAR ETNT 041720Z 24018KT 9999 BKN018 BKN040 07/03 Q1005 WHT;
0180101260999992012010418204+53550+007667FM-15+0012ETNT V0202401N008710054019N0112651N1+00701+00301999999ADDGA1071+005401999GA2071+012001999GA3081+027001999GF108991999999999999999999MA1100311999999MW1611REMMET073METAR ETNT 041820Z 24017KT 9999 -RA BKN018 BKN040 OVC090 07/03 Q1003 WHT;
0193101260999992012010419004+53550+007667FM-12+0012ETNT V0202401N009010054019N0080001N1+00641+00341100291ADDAY181999AY261999GA1071+005401061GF108991071051004501999999MA1999999100131MD1710401+9999MW1611REMSYN088AAXX  04191 10126 41458 82409 10064 20034 30013 40029 57040 76186 875// 333 87618 91116;
0143101260999992012010419204+53550+007667FM-15+0012ETNT V0202301N009310042019N0050001N1+00601+00401999999ADDGA1071+004201999GF107991999999999999999999MA1100101999999MW1101MW2611REMMET062METAR ETNT 041920Z 23018KT 5000 -RA BR BKN014 06/04 Q1001 GRN;
0221101260999992012010420004+53550+007667FM-12+0012ETNT V0202401N010010030019N0070001N1+00571+00391100081ADDAY161999AY261999GA1051+003001071GA2071+005401061GF108991071051004501999999MA1999999099921MD1710501+9999MW1611REMSYN100AAXX  04201 10126 41457 82410 10057 20039 39992 40008 57050 76166 875// 333 85710 87618 91015 91116;
0187101260999992012010420204+53550+007667FM-15+0012ETNT V0202301N010810030019N0060001N1+00501+00401999999ADDGA1071+003001999GA2071+004801999GF107991999999999999999999MA1099901999999MW1611OC101591REMMET069METAR ETNT 042020Z 23021G31KT 6000 -RA BKN010 BKN016 05/04 Q0999 GRN;EQDQ01+099903APOA  
0153101260999992012010421204+53550+007667FM-15+0012ETNT V0202201N009810024019N0050001N1+00501+00401999999ADDGA1071+002401999GF107991999999999999999999MA1099491999999MW1101MW2631OC101491REMMET064METAR ETNT 042120Z 22019G29KT 5000 RA BR BKN008 05/04 Q0995 GRN;
0216101260999992012010422004+53550+007667FM-12+0012ETNT V0202201N010010027019N0050001N1+00531+00421099461ADDAY161999AY261999GA1071+002701071GF108991071071002501999999MA1999999099301MD1710831+9999MW1611OA149901701REMSYN100AAXX  04221 10126 41350 82210 10053 20042 39930 49946 57083 76166 877// 333 87709 91015 91117 91211;
0153101260999992012010422204+53550+007667FM-15+0012ETNT V0202301N010310030019N0050001N1+00601+00501999999ADDGA1071+003001999GF107991999999999999999999MA1099291999999MW1101MW2631OC101651REMMET064METAR ETNT 042220Z 23020G32KT 5000 RA BR BKN010 06/05 Q0993 GRN;
0153101260999992012010422344+53550+007667FM-16+0012ETNT V0202301N010810030019N0050001N1+00601+00501999999ADDGA1071+003001999GF107991999999999999999999MA1099191999999MW1101MW2631OC101851REMMET064SPECI ETNT 042234Z 23021G36KT 5000 RA BR BKN010 06/05 Q0992 GRN;
0216101260999992012010423004+53550+007667FM-12+0012ETNT V0202401N010010030019N0050001N1+00641+00501099231ADDAY161999AY261999GA1071+003001071GF108991071071004501999999MA1999999099071MD1710861+9999MW1631OA149901901REMSYN100AAXX  04231 10126 41450 82410 10064 20050 39907 49923 57086 76366 877// 333 87710 91019 91119 91211;
0153101260999992012010423204+53550+007667FM-15+0012ETNT V0202401N010310027019N0050001N1+00701+00501999999ADDGA1071+002701999GF107991999999999999999999MA1098981999999MW1101MW2631OC101651REMMET064METAR ETNT 042320Z 24020G32KT 5000 RA BR BKN009 07/05 Q0990 GRN;
0176101260999992012010500004+53550+007667FM-15+0012ETNT V0202401N010810030019N0032001N1+00701+00501999999ADDGA1071+003001999GA2081+006001999GF108991999999999999999999MA1098821999999MW1101MW2631OC101751REMMET071SPECI ETNT 042356Z 24021G34KT 3200 RA BR BKN010 OVC020 07/05 Q0988 YLO;
0176101260999992012010500204+53550+007667FM-15+0012ETNT V0202401N012310030019N0025001N1+00701+00501999999ADDGA1071+003001999GA2081+007501999GF108991999999999999999999MA1098711999999MW1101MW2631OC101951REMMET071METAR ETNT 050020Z 24024G38KT 2500 RA BR BKN010 OVC025 07/05 Q0987 YLO;
0238101260999992012010501004+53550+007667FM-12+0012ETNT V0202501N012010030019N0020001N1+00701+00531098671ADDAY161999AY261999GA1071+003001071GA2081+005401051GF108991071071004501021999MA1999999098511MD1710811+9999MW1631OA149902001REMSYN106AAXX  05011 10126 41420 82512 10070 20053 39851 49867 57081 76366 8772/ 333 87710 88518 91019 91120 91213;
0153101260999992012010501204+53550+007667FM-15+0012ETNT V0202401N012310027019N0020001N1+00701+00601999999ADDGA1071+002701999GF107991999999999999999999MA1098511999999MW1101MW2631OC102061REMMET064METAR ETNT 050120Z 24024G40KT 2000 RA BR BKN009 07/06 Q0985 YLO;
0238101260999992012010502004+53550+007667FM-12+0012ETNT V0202501N013010027019N0025001N1+00741+00571098411ADDAY161999AY261999GA1071+002701071GA2081+005401051GF108991071071002501021999MA1999999098251MD1710831+9999MW1631OA149902201REMSYN106AAXX  05021 10126 41325 82513 10074 20057 39825 49841 57083 76366 8772/ 333 87709 88518 91022 91122 91213;
0176101260999992012010502204+53550+007667FM-15+0012ETNT V0202501N013910027019N0020001N1+00801+00601999999ADDGA1071+002701999GA2081+005401999GF108991999999999999999999MA1098211999999MW1101MW2631OC102161REMMET071METAR ETNT 050220Z 25027G42KT 2000 RA BR BKN009 OVC018 08/06 Q0982 YLO;
0176101260999992012010502544+53550+007667FM-16+0012ETNT V0202501N014910027019N0028001N1+00801+00601999999ADDGA1071+002701999GA2081+006301999GF108991999999999999999999MA1098101999999MW1101MW2631OC102471REMMET071SPECI ETNT 050254Z 25029G48KT 2800 RA BR BKN009 OVC021 08/06 Q0981 YLO;
0163101260999992012010503094+53550+007667FM-16+0012ETNT V0202501N015410030019N0080001N1+00801+00601999999ADDGA1071+003001999GA2081+024001999GF108991999999999999999999MA1098101999999OC102161REMMET070SPECI ETNT 050309Z 25030G42KT 8000 BKN010 OVC080 08/06 Q0981 RERA GRN;
0152101260999992012010503204+53550+007667FM-15+0012ETNT V0202501N013910240019N0112651N1+00801+00501999999ADDGA1041+003001999GA2081+024001999GF108991999999999999999999MA1098101999999REMMET067METAR ETNT 050320Z 25027KT 9999 SCT010 OVC080 08/05 Q0981 RERA BLU;
0186101260999992012010503374+53550+007667FM-16+0012ETNT V0202601N01231014101CN0112651N1+00801+00501999999ADDGA1021+003001999GA2041+014101999GA3071+030001999GF107991999999999999999999MA1098101999999OC101801REMMET077SPECI ETNT 050337Z 26024G35KT 9999 FEW010 SCT047 BKN100 08/05 Q0981 RERA BLU;
0260101260999992012010504004+53550+007667FM-12+0012ETNT V0202601N013010300019N0200001N1+00771+00441098131ADDAY161999AY221999GA1011+003601081GA2031+009001061GA3071+030001031GF108991031081004501071999MA1999999097971MD1710521+9999MW1211OA149902501REMSYN112AAXX  05041 10126 41470 82613 10077 20044 39797 49813 57052 72162 8387/ 333 81812 83630 87360 91019 91125 91216;
0170101260999992012010504204+53550+007667FM-15+0012ETNT V0202601N013410069019N0112651N1+00701+00401999999ADDGA1021+003601999GA2071+006901999GA3071+042001999GF107991999999999999999999MA1098101999999REMMET069METAR ETNT 050420Z 26026KT 9999 FEW012 BKN023 BKN140 07/04 Q0981 WHT;
0232101260999992012010505004+53550+007667FM-12+0012ETNT V0202701N014010420019N0200001N1+00771+00411098091ADDGA1011+003601081GA2031+006901061GA3061+042001031GF107991031081004501031001MA1999999097931MD1710321+9999OA149902001REMSYN106AAXX  05051 10126 42470 72714 10077 20041 39793 49809 57032 83830 333 81812 83623 86364 91020 91120 91215;
0173101260999992012010505204+53550+007667FM-15+0012ETNT V0202801N013412200019N0112651N1+00801+00401999999ADDGA1021+003601999GA2041+006901999GF104991999999999999999999MA1098101999999OC102061REMMET080METAR ETNT 050520Z 28026G40KT 9999 FEW012 SCT023 08/04 Q0981 BLU/BLU/ TEMPO GRN;
0150101260999992012010506204+53550+007667FM-15+0012ETNT V0202801N012312200019N0112651N1+00801+00301999999ADDGA1041+010201999GF104991999999999999999999MA1098101999999OC101801REMMET073METAR ETNT 050620Z 28024G35KT 9999 SCT034 08/03 Q0981 BLU/BLU/ TEMPO GRN;
0241101260999992012010507004+53550+007667FM-12+0012ETNT V0202701N011012200019N0200001N1+00741+00301098101ADDGA1031+010201061GF103991031051012501001001MA1999999097941MD1710031+9999OA149901801OA259901301REMSYN136AAXX  05071 10126 42670 32711 10074 20030 39794 49810 57003 83500 333 83634 91118 91213 555 BOT 10045 20051 30056 40059 50070 999 32///;
0139101260999992012010507204+53550+007667FM-15+0012ETNT V0202701N010312200019N0112651N1+00701+00301999999ADDGA1041+008401999GF104991999999999999999999MA1098001999999REMMET070METAR ETNT 050720Z 27020KT 9999 SCT028 07/03 Q0980 BLU/BLU/ TEMPO GRN;
0182101260999992012010508004+53550+007667FM-12+0012ETNT V0202601N009010300019N0150001N1+00711+00341098051ADDGA1041+008101061GF105991041051008001031001MA1999999097891MD1810061+9999OA149901601REMSYN088AAXX  05081 10126 42565 52609 10071 20034 39789 49805 58006 84530 333 84627 91116 91211;
0185101260999992012010508204+53550+007667FM-15+0012ETNT V0202601N011810105019N0112651N1+00801+00401999999ADDGA1041+007201999GA2071+010501999GF107991999999999999999999MA1097901999999MW1801OC101801REMMET086METAR ETNT 050820Z 26023G35KT 9999 -SHRA SCT024 BKN035 08/04 Q0979 BLU BLU/ TEMPO GRN;
0196101260999992012010509074+53550+007667FM-16+0012ETNT V0202701N011310072019N0060001N1+00801+00401999999ADDGA1071+007201021GA2071+015001999GF107991999999999999999999MA1097901999999MW1801MW2881OC101751REMMET091SPECI ETNT 050907Z 27022G34KT 6000 -SHRAGS BKN024TCU BKN050 08/04 Q0979 WHT BLU/ TEMPO GRN;
0210101260999992012010509194+53550+007667FM-16+0012ETNT V0202701N014910060019N0050001N1+00701+00401999999ADDGA1021+003601999GA2071+006001021GA3071+015001999GF107991999999999999999999MA1097901999999MW1801OC102371REMMET095SPECI ETNT 050919Z 27029G46KT 5000 -SHRA FEW012 BKN020TCU BKN050 07/04 Q0979 WHT BLU/TEMPO GRN;
0187101260999992012010509204+53550+007667FM-15+0012ETNT V0202701N014410057019N0060001N1+00701+00401999999ADDGA1021+003601999GA2071+005701021GF107991999999999999999999MA1097801999999MW1801OC102371REMMET088METAR ETNT 050920Z 27028G46KT 6000 -SHRA FEW012 BKN019TCU 07/04 Q0978 WHT BLU/TEMPO GRN;
0260101260999992012010510004+53550+007667FM-12+0012ETNT V0202701N013010150019N0120001N1+00671+00251097871ADDAY181999AY221999GA1011+003601081GA2031+005701091GA3051+015001061GF106991061091004501031001MA1999999097711MD1710231+9999MW1271OA149902401REMSYN112AAXX  05101 10126 41462 62713 10067 20025 39771 49787 57023 72782 86930 333 81812 83919 85650 91020 91124 91215;
0198101260999992012010510204+53550+007667FM-15+0012ETNT V0202701N01541007201CN0112651N1+00701+00301999999ADDGA1021+004501999GA2041+007201091GA3071+015001999GF107991999999999999999999MA1097701999999OC102211REMMET089METAR ETNT 051020Z 27030G43KT 9999 FEW015 SCT024CB BKN050 07/03 Q0977 BLU BLU/ TEMPO GRN;
0260101260999992012010511004+53550+007667FM-12+0012ETNT V0202801N017010120019N0140001N1+00701+00311097791ADDAY181999AY221999GA1011+003601081GA2031+006601091GA3051+012001061GF107991071091004501999999MA1999999097631MD1610261+9999MW1251OA149902501REMSYN112AAXX  05111 10126 41464 72817 10070 20031 39763 49779 56026 72582 879// 333 81812 83922 85640 91025 91125 91217;
0209101260999992012010511054+53550+007667FM-16+0012ETNT V0202801N016510054019N0030001N1+00701+00301999999ADDGA1021+003601999GA2071+005401091GA3071+012001999GF107991999999999999999999MA1097701999999MW1811OC102311REMMET094SPECI ETNT 051105Z 28032G45KT 3000 SHRA FEW012 BKN018CB BKN040 07/03 Q0977 YLO BLU/ TEMPO GRN;
0191101260999992012010511204+53550+007667FM-15+0012ETNT V0202901N018510057019N0060001N1+00601+00301999999ADDGA1021+003601999GA2071+005701091GF107991999999999999999999MA1097701999999MW1801OC102731REMMET092METAR ETNT 051120Z 29036G53KT 6000 -SHRA FEW012 BKN019CB 06/03 Q0977 RERA WHT BLU/TEMPO GRN;
0185101260999992012010512204+53550+007667FM-15+0012ETNT V0202901N016510051019N0035001N1+00601+00401999999ADDGA1041+003301999GA2071+005101091GF107991999999999999999999MA1097801999999MW1811OC102521REMMET086METAR ETNT 051220Z 29032G49KT 3500 SHRA SCT011 BKN017CB 06/04 Q0978 YLO WHT TEMPO GRN;
0179101260999992012010512464+53550+007667FM-16+0012ETNT V0203001N015910057019N0080001N1+00601+00401999999ADDGA1021+003601999GA2071+005701091GF107991999999999999999999MA1097801999999OC102731REMMET086SPECI ETNT 051246Z 30031G53KT 8000 FEW012 BKN019CB 06/04 Q0978 RERA WHT WHT TEMPO GRN;
0238101260999992012010513004+53550+007667FM-12+0012ETNT V0203001N016010069019N0090001N1+00671+00391097881ADDAY181999AY221999GA1021+003901081GA2071+006901091GF107991071091004501999999MA1999999097721MD1310011+9999MW1251OA149902701REMSYN106AAXX  05131 10126 41459 73016 10067 20039 39772 49788 53001 72582 879// 333 82813 87923 91027 91127 91217;
0202101260999992012010513204+53550+007667FM-15+0012ETNT V0203001N01541007801CN0112651N1+00701+00201999999ADDGA1021+004201999GA2041+007801091GA3071+015001999GF107991999999999999999999MA1098001999999OC102311REMMET093METAR ETNT 051320Z 30030G45KT 9999 FEW014 SCT026CB BKN050 07/02 Q0980 RERA BLU WHT TEMPO GRN;
0263101260999992012010514004+53550+007667FM-12+0012ETNT V0203001N01401009001CN0150001N1+00681+00271098131ADDGA1011+004501081GA2031+008101081GF106991051081004501031001MA1999999097971MD1310341+9999OA149902501OA259901601REMSYN142AAXX  05141 10126 42465 63014 10068 20027 39797 49813 53034 85830 333 81815 83827 91020 91125 91216 555 BOT 10054 20054 30054 40059 999 32///;
0175101260999992012010514204+53550+007667FM-15+0012ETNT V0203001N012312200019N0112651N1+00701+00301999999ADDGA1021+004501999GA2041+007801021GF104991999999999999999999MA1098211999999OC102011REMMET082METAR ETNT 051420Z 30024G39KT 9999 FEW015 SCT026TCU 07/03 Q0982 BLU/WHT TEMPO GRN;
0172101260999992012010515204+53550+007667FM-15+0012ETNT V0203001N011810075019N0112651N1+00701+00201999999ADDGA1021+003901999GA2071+007501091GF107991999999999999999999MA1098411999999OC101801REMMET079METAR ETNT 051520Z 30023G35KT 9999 FEW013 BKN025CB 07/02 Q0984 BLU FCST CANCEL;
0161101260999992012010515364+53550+007667FM-16+0012ETNT V0203101N013412200019N0112651N1+00601+00101999999ADDGA1021+003901999GA2041+007501091GF104991999999999999999999MA1098411999999OC102311REMMET068SPECI ETNT 051536Z 31026G45KT 9999 FEW013 SCT025CB 06/01 Q0984 BLU/;
0238101260999992012010516004+53550+007667FM-12+0012ETNT V0203101N012010300019N0120001N1+00641+00111098541ADDAY181999AY221999GA1011+003901081GA2031+007501091GF105991031091004501031001MA1999999098381MD1110661+9999MW1251OA149902301REMSYN106AAXX  05161 10126 41462 53112 10064 20011 39838 49854 51066 72582 83930 333 81813 83925 91019 91123 91213;
0162101260999992012010516204+53550+007667FM-15+0012ETNT V0203101N012312200019N0112651N1+00701+00001999999ADDGA1021+003901999GA2041+007501091GF104991999999999999999999MA1098611999999OC102211REMMET069METAR ETNT 051620Z 31024G43KT 9999 FEW013 SCT025CB 07/M00 Q0986 BLU/;
0210101260999992012010517004+53550+007667FM-12+0012ETNT V0203001N012010300019N0150001N1+00621+00071098731ADDGA1011+003901081GA2031+007501091GF105991041091004501031001MA1999999098571MD1110601+9999OA149902201REMSYN100AAXX  05171 10126 42465 53012 10062 20007 39857 49873 51060 84930 333 81813 83925 91018 91122 91213;
0162101260999992012010517204+53550+007667FM-15+0012ETNT V0203101N011312200019N0112651N1+00601+00101999999ADDGA1021+004501999GA2041+007801021GF104991999999999999999999MA1098711999999OC102061REMMET069METAR ETNT 051720Z 31022G40KT 9999 FEW015 SCT026TCU 06/01 Q0987 BLU/;
0162101260999992012010518204+53550+007667FM-15+0012ETNT V0203101N010312200019N0112651N1+00601+00201999999ADDGA1041+007201021GA2041+036001999GF104991999999999999999999MA1098921999999OC101591REMMET069METAR ETNT 051820Z 31020G31KT 9999 SCT024TCU SCT120 06/02 Q0989 BLU/;
0162101260999992012010518534+53550+007667FM-16+0012ETNT V0203101N011312200019N0112651N1+00601+00101999999ADDGA1041+007501021GA2041+036001999GF104991999999999999999999MA1098981999999OC101801REMMET069SPECI ETNT 051853Z 31022G35KT 9999 SCT025TCU SCT120 06/01 Q0990 BLU/;
0210101260999992012010519004+53550+007667FM-12+0012ETNT V0203101N011012200019N0200001N1+00631+00081099071ADDGA1031+007501081GA2031+036001031GF104991031021008001031001MA1999999098911MD1210471+9999OA149901801REMSYN100AAXX  05191 10126 42570 43111 10063 20008 39891 49907 52047 83230 333 83825 83362 91017 91118 91212;
0162101260999992012010519204+53550+007667FM-15+0012ETNT V0203201N011312200019N0112651N1+00701+00001999999ADDGA1021+007501021GA2041+039001999GF104991999999999999999999MA1099091999999OC101851REMMET069METAR ETNT 051920Z 32022G36KT 9999 FEW025TCU SCT130 07/00 Q0991 BLU/;
0210101260999992012010520004+53550+007667FM-12+0012ETNT V0203201N012012200019N0200001N1+00601-00061099191ADDGA1021+006001081GA2031+015001061GF104991031081008001031001MA1999999099031MD1210461+9999OA149902301REMSYN100AAXX  05201 10126 42570 43212 10060 21006 39903 49919 52046 83830 333 82820 83650 91023 91123 91212;
0162101260999992012010520204+53550+007667FM-15+0012ETNT V0203101N009312200019N0112651N1+00601+00001999999ADDGA1021+005401021GA2041+011401999GF104991999999999999999999MA1099191999999OC101541REMMET069METAR ETNT 052020Z 31018G30KT 9999 FEW018TCU SCT038 06/00 Q0992 BLU/;
0161101260999992012010521204+53550+007667FM-15+0012ETNT V0203001N010310114019N0112651N1+00701+00101999999ADDGA1021+006001021GA2071+011401999GF107991999999999999999999MA1099291999999OC101801REMMET068METAR ETNT 052120Z 30020G35KT 9999 FEW020TCU BKN038 07/01 Q0993 BLU;
0210101260999992012010522004+53550+007667FM-12+0012ETNT V0203001N012010150019N0200001N1+00661+00161099391ADDGA1031+007501061GA2061+015001061GF107991061051008001071001MA1999999099231MD1210321+9999OA149902001REMSYN100AAXX  05221 10126 42570 73012 10066 20016 39923 49939 52032 86570 333 83625 86650 91019 91120 91212;
0158101260999992012010522204+53550+007667FM-15+0012ETNT V0203001N010810150019N0112651N1+00701+00101999999ADDGA1041+008401999GA2071+015001999GF107991999999999999999999MA1099391999999OC101701REMMET065METAR ETNT 052220Z 30021G33KT 9999 SCT028 BKN050 07/01 Q0994 BLU;
0210101260999992012010523004+53550+007667FM-12+0012ETNT V0203101N010010114019N0200001N1+00691+00161099511ADDGA1031+003001081GA2071+011401061GF107991071081004501999999MA1999999099351MD1210321+9999OA149901701REMSYN100AAXX  05231 10126 42470 73110 10069 20016 39935 49951 52032 878// 333 83810 87638 91017 91117 91212;
0158101260999992012010523134+53550+007667FM-16+0012ETNT V0203101N012310084019N0112651N1+00601+00201999999ADDGA1041+003001999GA2071+008401999GF107991999999999999999999MA1099491999999OC102421REMMET065SPECI ETNT 052313Z 31024G47KT 9999 SCT010 BKN028 06/02 Q0995 BLU;
0158101260999992012010523204+53550+007667FM-15+0012ETNT V0203101N012310084019N0112651N1+00601+00201999999ADDGA1041+003001999GA2071+008401999GF107991999999999999999999MA1099491999999OC102421REMMET065METAR ETNT 052320Z 31024G47KT 9999 SCT010 BKN028 06/02 Q0995 BLU;
0158101260999992012010600204+53550+007667FM-15+0012ETNT V0203101N011310090019N0112651N1+00701+00301999999ADDGA1041+006001999GA2071+009001999GF107991999999999999999999MA1099591999999OC101851REMMET065METAR ETNT 060020Z 31022G36KT 9999 SCT020 BKN030 07/03 Q0996 BLU;
0210101260999992012010601004+53550+007667FM-12+0012ETNT V0203201N009010051019N0200001N1+00621+00311099771ADDGA1021+003001081GA2071+005101061GF107991071081004501999999MA1999999099611MD1210381+9999OA149902101REMSYN100AAXX  06011 10126 42470 73209 10062 20031 39961 49977 52038 878// 333 82810 87617 91016 91121 91212;
0174101260999992012010601204+53550+007667FM-15+0012ETNT V0203101N009312200019N0080001N1+00601+00401999999ADDGA1041+006001021GA2041+012001999GF104991999999999999999999MA1099801999999MW1801OC101491REMMET075METAR ETNT 060120Z 31018G29KT 8000 -SHRA SCT020TCU SCT040 06/04 Q0998 BLU/;
0210101260999992012010602004+53550+007667FM-12+0012ETNT V0203201N008010120019N0080001N1+00611+00381099901ADDGA1031+006001081GA2041+012001061GF106991061081008001001001MA1999999099741MD1210391+9999OA149901801REMSYN100AAXX  06021 10126 42558 63208 10061 20038 39974 49990 52039 86800 333 83820 84640 91013 91118 91211;
0162101260999992012010602204+53550+007667FM-15+0012ETNT V0203201N009812200019N0112651N1+00701+00301999999ADDGA1041+006901021GA2041+013501999GF104991999999999999999999MA1099901999999OC101541REMMET069METAR ETNT 060220Z 32019G30KT 9999 SCT023TCU SCT045 07/03 Q0999 BLU/;
0139101260999992012010603204+53550+007667FM-15+0012ETNT V0203301N010312200019N0112651N1+00601+00301999999ADDGA1041+006601091GF104991999999999999999999MA1100101999999MW1801REMMET064METAR ETNT 060320Z 33020KT 9999 -SHRA SCT022CB 06/03 Q1001 BLU/;
0148101260999992012010603524+53550+007667FM-16+0012ETNT V0203501N011810057019N0060001N1+00501+00301999999ADDGA1071+005701091GF107991999999999999999999MA1100201999999MW1811OC101851REMMET065SPECI ETNT 060352Z 35023G36KT 6000 SHRA BKN019CB 05/03 Q1002 WHT;
0216101260999992012010604004+53550+007667FM-12+0012ETNT V0203501N011010057019N0060001N1+00511+00251100231ADDAY181999AY221999GA1061+005701091GF106991061091004501001001MA1999999100071MD1210471+9999MW1811OA149902001REMSYN100AAXX  06041 10126 41456 63511 10051 20025 30007 40023 52047 78182 86900 333 86919 91019 91120 91211;
0127101260999992012010604204+53550+007667FM-15+0012ETNT V0203201N009312200019N0112651N1+00601+00301999999ADDGA1041+007501091GF104991999999999999999999MA1100311999999REMMET058METAR ETNT 060420Z 32018KT 9999 SCT025CB 06/03 Q1003 BLU/;
0210101260999992012010605004+53550+007667FM-12+0012ETNT V0203301N009012200019N0200001N1+00631+00291100401ADDAY111999AY211999GA1031+000151091GF103991031091008001001001MA1999999100241MD1210501+9999MW1251OA149901401REMSYN094AAXX  06051 10126 41570 33309 10063 20029 30024 40040 52050 72511 83900 333 82925 91114 91212;
0139101260999992012010605204+53550+007667FM-15+0012ETNT V0203301N008712200019N0112651N1+00601+00301999999ADDGA1021+005701021GF102991999999999999999999MA1100411999999OC101441REMMET062METAR ETNT 060520Z 33017G28KT 9999 FEW019TCU 06/03 Q1004 BLU/;
0188101260999992012010606204+53550+007667FM-15+0012ETNT V0203301N009810093019N0060001N1+00601+00301999999ADDGA1041+005701021GA2071+009301999GF107991999999999999999999MA1100611999999MW1801OC101491REMMET089METAR ETNT 060620Z 33019G29KT 6000 -SHRA SCT019TCU BKN031 06/03 Q1006 WHT BLU/ TEMPO GRN;
0274101260999992012010607004+53550+007667FM-12+0012ETNT V0203301N008012200019N0200001N1+00641+00341100741ADDAY111999AY211999GA1021+005701081GA2031+012901061GF104991041081004501001001MA1999999100581MD1210511+9999MW1251OA149901501REMSYN142AAXX  06071 10126 41470 43308 10064 20034 30058 40074 52051 72511 84800 333 82819 83643 91115 555 BOT 10036 20041 30048 40058 50070 999 32///;
0177101260999992012010607204+53550+007667FM-15+0012ETNT V0203401N006710111019N0112651N1+00601+00301999999ADDGA1041+006001021GA2071+011101999GF107991999999999999999999MA1100811999999MW1801REMMET086METAR ETNT 060720Z 34013KT 9999 -SHRA SCT020TCU BKN037 06/03 Q1008 BLU BLU/ TEMPO GRN;
0193101260999992012010608004+53550+007667FM-12+0012ETNT V0203401N00601012001CN0200001N1+00631+00381100961ADDAY181999AY211999GA1031+006001081GF106991061081008001001001MA1999999100801MD1210561+9999MW1801REMSYN088AAXX  06081 10126 41570 63406 10063 20038 30080 40096 52056 78081 86800 333 83820 85636;
0165101260999992012010608204+53550+007667FM-15+0012ETNT V0203501N005110108019N0112651N1+00701+00401999999ADDGA1021+007201021GA2071+010801999GF107991999999999999999999MA1101021999999REMMET080METAR ETNT 060820Z 35010KT 9999 FEW024TCU BKN036 07/04 Q1010 BLU BLU/ TEMPO GRN;
0188101260999992012010609204+53550+007667FM-15+0012ETNT V0203301N004610054019N0070001N1+00601+00401999999ADDGA1021+003601999GA2071+005401021GF107991999999999999999999MA1101191999999MW1801OC101031REMMET089METAR ETNT 060920Z 33009G20KT 7000 -SHRA FEW012 BKN018TCU 06/04 Q1012 WHT BLU/ TEMPO GRN;
0193101260999992012010610004+53550+007667FM-12+0012ETNT V0203301N00501009001CN0120001N1+00601+00381101271ADDAY121999AY221999GA1031+005401081GF107991071081004501999999MA1999999101111MD1110531+9999MW1251REMSYN088AAXX  06101 10126 41462 73305 10060 20038 30111 40127 51053 72522 878// 333 83818 85635;
0162101260999992012010610204+53550+007667FM-15+0012ETNT V0203301N006210120019N0112651N1+00701+00301999999ADDGA1021+006001999GA2071+012001999GF107991999999999999999999MA1101191999999REMMET077METAR ETNT 061020Z 33012KT 9999 FEW020 BKN040 07/03 Q1012 BLU BLU/ TEMPO GRN;
0193101260999992012010611004+53550+007667FM-12+0012ETNT V0203401N00601012001CN0150001N1+00701+00311101341ADDAY121999AY221999GA1011+006601081GF106991051081008001001011MA1999999101181MD1110381+9999MW1251REMSYN088AAXX  06111 10126 41565 63406 10070 20031 30118 40134 51038 72522 85801 333 81822 85643;
0159101260999992012010611204+53550+007667FM-15+0012ETNT V0203201N005112200019N0112651N1+00701+00401999999ADDGA1021+006601999GA2041+014401999GF104991999999999999999999MA1101291999999REMMET074METAR ETNT 061120Z 32010KT 9999 FEW022 SCT048 07/04 Q1013 BLU/FCST CANCEL;
0148101260999992012010612204+53550+007667FM-15+0012ETNT V0203201N006712200019N0112651N1+00801+00401999999ADDGA1021+007501999GA2041+060001999GF104991999999999999999999MA1101391999999REMMET063METAR ETNT 061220Z 32013KT 9999 FEW025 SCT200 08/04 Q1014 BLU/;
0159101260999992012010613004+53550+007667FM-12+0012ETNT V0203101N006012200019N0200001N1+00751+00301101501ADDGA1011+007501081GF103991021081008001001011MA1999999101341MD1310231+9999REMSYN076AAXX  06131 10126 42570 33106 10075 20030 30134 40150 53023 82801 333 81825;
0148101260999992012010613204+53550+007667FM-15+0012ETNT V0203101N006712200019N0112651N1+00801+00401999999ADDGA1041+006001999GA2041+060001999GF104991999999999999999999MA1101491999999REMMET063METAR ETNT 061320Z 31013KT 9999 SCT020 SCT200 08/04 Q1015 BLU/;
0207101260999992012010614004+53550+007667FM-12+0012ETNT V0203201N006012200019N0200001N1+00751+00381101591ADDGA1011+006001081GF102991011021008001001011MA1999999101431MD1310251+9999REMSYN124AAXX  06141 10126 42570 23206 10075 20038 30143 40159 53025 81201 333 81820 91011 555 BOT 10060 20057 30052 40057 999 31///;
0125101260999992012010614204+53550+007667FM-15+0012ETNT V0203101N005112200019N0112651N1+00701+00301999999ADDGA1021+006001999GF102991999999999999999999MA1101591999999REMMET056METAR ETNT 061420Z 31010KT 9999 FEW020 07/03 Q1016 BLU/;
0148101260999992012010615204+53550+007667FM-15+0012ETNT V0203001N004612200019N0112651N1+00701+00401999999ADDGA1021+006001999GA2041+012001999GF104991999999999999999999MA1101591999999REMMET063METAR ETNT 061520Z 30009KT 9999 FEW020 SCT040 07/04 Q1016 BLU/;
0165101260999992012010616004+53550+007667FM-12+0012ETNT V0202901N00501075001CN0150001N1+00641+00381101691ADDGA1021+006001081GF106991021081008001001021MA1999999101531MD1110191+9999REMSYN082AAXX  06161 10126 42565 62905 10064 20038 30153 40169 51019 82802 333 82820 85069;
0148101260999992012010616204+53550+007667FM-15+0012ETNT V0202901N003612200019N0112651N1+00601+00401999999ADDGA1021+006001999GA2041+057001999GF104991999999999999999999MA1101591999999REMMET063METAR ETNT 061620Z 29007KT 9999 FEW020 SCT190 06/04 Q1016 BLU/;
0159101260999992012010617004+53550+007667FM-12+0012ETNT V0202801N004012200019N0200001N1+00571+00351101721ADDGA1011+006001081GF103991011081008001001011MA1999999101561MD1110131+9999REMSYN076AAXX  06171 10126 42570 32804 10057 20035 30156 40172 51013 81801 333 81820;
0147101260999992012010617204+53550+007667FM-15+0012ETNT V0202901N004110120019N0112651N1+00601+00401999999ADDGA1021+006001999GA2071+012001999GF107991999999999999999999MA1101691999999REMMET062METAR ETNT 061720Z 29008KT 9999 FEW020 BKN040 06/04 Q1017 BLU;
0148101260999992012010618204+53550+007667FM-15+0012ETNT V0202701N003112200019N0112651N1+00501+00301999999ADDGA1021+005701999GA2041+012001999GF104991999999999999999999MA1101591999999REMMET063METAR ETNT 061820Z 27006KT 9999 FEW019 SCT040 05/03 Q1016 BLU/;
0165101260999992012010619004+53550+007667FM-12+0012ETNT V0202601N00401012001CN0200001N1+00511+00321101681ADDGA1021+006301081GF106991061081008001001001MA1999999101521MD1810011+9999REMSYN082AAXX  06191 10126 42570 62604 10051 20032 30152 40168 58001 86800 333 82821 85642;
0147101260999992012010619204+53550+007667FM-15+0012ETNT V0202601N004110120019N0112651N1+00501+00301999999ADDGA1021+006301999GA2071+012001999GF107991999999999999999999MA1101591999999REMMET062METAR ETNT 061920Z 26008KT 9999 FEW021 BKN040 05/03 Q1016 BLU;
0165101260999992012010620004+53550+007667FM-12+0012ETNT V0202601N005010129019N0200001N1+00511+00301101691ADDGA1051+012901061GF106991051051012501031001MA1999999101531MD1510031+9999REMSYN082AAXX  06201 10126 42670 62605 10051 20030 30153 40169 55003 85530 333 85643 83362;
0165101260999992012010620204+53550+007667FM-15+0012ETNT V0202501N005110114019N0112651N1+00501+00301999999ADDGA1041+006301999GA2071+011401999GF107991999999999999999999MA1101691999999MW1511MW2611REMMET068METAR ETNT 062020Z 25010KT 9999 -DZRA SCT021 BKN038 05/03 Q1017 BLU;
0124101260999992012010621204+53550+007667FM-15+0012ETNT V0202401N005710132019N0112651N1+00501+00301999999ADDGA1071+013201999GF107991999999999999999999MA1101591999999REMMET055METAR ETNT 062120Z 24011KT 9999 BKN044 05/03 Q1016 BLU;
0165101260999992012010622004+53550+007667FM-12+0012ETNT V0202401N006010138019N0250001N1+00511+00231101621ADDGA1051+013801061GF107991051051012501031001MA1999999101461MD1810061+9999REMSYN082AAXX  06221 10126 42675 72406 10051 20023 30146 40162 58006 85530 333 85646 85360;
0147101260999992012010622204+53550+007667FM-15+0012ETNT V0202401N006710330019N0112651N1+00501+00201999999ADDGA1041+013501999GA2071+033001999GF107991999999999999999999MA1101491999999REMMET062METAR ETNT 062220Z 24013KT 9999 SCT045 BKN110 05/02 Q1015 BLU;
0159101260999992012010623004+53550+007667FM-12+0012ETNT V0202401N007010330019N0250001N1+00491+00231101481ADDGA1071+033001031GF107991071001999999031999MA1999999101321MD1810211+9999REMSYN076AAXX  06231 10126 42975 72407 10049 20023 30132 40148 58021 8703/ 333 87361;
0170101260999992012010623204+53550+007667FM-15+0012ETNT V0202401N00571024001CN0112651N1+00501+00201999999ADDGA1041+018001999GA2041+024001999GA3071+030001999GF107991999999999999999999MA1101391999999REMMET069METAR ETNT 062320Z 24011KT 9999 SCT060 SCT080 BKN100 05/02 Q1014 BLU;
0147101260999992012010700204+53550+007667FM-15+0012ETNT V0202301N007710102019N0112651N1+00501+00301999999ADDGA1041+004501999GA2071+010201999GF107991999999999999999999MA1101291999999REMMET062METAR ETNT 070020Z 23015KT 9999 SCT015 BKN034 05/03 Q1013 BLU;
0193101260999992012010701004+53550+007667FM-12+0012ETNT V0202301N00801004201CN0120001N1+00451+00291101251ADDAY121999AY221999GA1031+004501061GF108991071051004501999999MA1999999101091MD1610371+9999MW1601REMSYN088AAXX  07011 10126 41462 82308 10045 20029 30109 40125 56037 76022 875// 333 83615 87630;
0165101260999992012010701204+53550+007667FM-15+0012ETNT V0202201N006710033019N0112651N1+00501+00301999999ADDGA1071+003301999GA2071+006001999GF107991999999999999999999MA1101081999999MW1511MW2611REMMET068METAR ETNT 070120Z 22013KT 9999 -DZRA BKN011 BKN020 05/03 Q1011 GRN;
0187101260999992012010702004+53550+007667FM-12+0012ETNT V0202201N007010033019N0120001N1+00481+00331101121ADDAY161999AY221999GA1071+003301061GF108991071051004501999999MA1999999100961MD1810361+9999MW1581REMSYN082AAXX  07021 10126 41462 82207 10048 20033 30096 40112 58036 75862 875// 333 87611;
0124101260999992012010702204+53550+007667FM-15+0012ETNT V0202201N006710024019N0112651N1+00501+00401999999ADDGA1071+002401999GF107991999999999999999999MA1101021999999REMMET055METAR ETNT 070220Z 22013KT 9999 BKN008 05/04 Q1010 GRN;
0124101260999992012010703204+53550+007667FM-15+0012ETNT V0202301N008210018019N0112651N1+00501+00401999999ADDGA1071+001801999GF107991999999999999999999MA1100911999999REMMET055METAR ETNT 070320Z 23016KT 9999 BKN006 05/04 Q1009 YLO;
0124101260999992012010703424+53550+007667FM-16+0012ETNT V0202301N007710015019N0112651N1+00501+00501999999ADDGA1071+001501999GF107991999999999999999999MA1100811999999REMMET055SPECI ETNT 070342Z 23015KT 9999 BKN005 05/05 Q1008 YLO;
0187101260999992012010704004+53550+007667FM-12+0012ETNT V0202301N008010015019N0100001N1+00531+00461100861ADDAY151999AY221999GA1071+001501071GF108991071071001501999999MA1999999100701MD1710391+9999MW1511REMSYN082AAXX  07041 10126 41260 82308 10053 20046 30070 40086 57039 75152 877// 333 87705;
0134101260999992012010704204+53550+007667FM-15+0012ETNT V0202301N006710012019N0090001N1+00501+00501999999ADDGA1071+001201999GF107991999999999999999999MA1100711999999MW1511REMMET059METAR ETNT 070420Z 23013KT 9000 -DZ BKN004 05/05 Q1007 YLO;
0187101260999992012010705004+53550+007667FM-12+0012ETNT V0202301N007010012019N0080001N1+00571+00511100731ADDAY151999AY251999GA1071+001201071GF108991071071001501999999MA1999999100571MD1710391+9999MW1511REMSYN082AAXX  07051 10126 41258 82307 10057 20051 30057 40073 57039 75155 877// 333 87704;
0165101260999992012010705204+53550+007667FM-15+0012ETNT V0202301N007210012019N0060001N1+00601+00501999999ADDGA1071+001201999GA2071+001801999GF107991999999999999999999MA1100611999999MW1511MW2611REMMET068METAR ETNT 070520Z 23014KT 6000 -DZRA BKN004 BKN006 06/05 Q1006 YLO;
0142101260999992012010706204+53550+007667FM-15+0012ETNT V0202501N007210015019N0050001N1+00701+00601999999ADDGA1071+001501999GF107991999999999999999999MA1100611999999MW1101MW2631REMMET061METAR ETNT 070620Z 25014KT 5000 RA BR BKN005 07/06 Q1006 YLO;
0235101260999992012010707004+53550+007667FM-12+0012ETNT V0202701N008010015019N0050001N1+00771+00691100591ADDAY161999AY221999GA1071+001501071GF108991071071001501999999MA1999999100431MD1710271+9999MW1211REMSYN130AAXX  07071 10126 41250 82708 10077 20069 30043 40059 57027 72162 877// 333 87705 555 BOT 10055 20049 30048 40057 50069 999 32///;
0139101260999992012010707204+53550+007667FM-15+0012ETNT V0202801N008710015019N0070001N1+00801+00701999999ADDGA1071+001501999GF107991999999999999999999MA1100511999999MW1611REMMET064METAR ETNT 070720Z 28017KT 7000 -RA BKN005 08/07 Q1005 RERA YLO;
0147101260999992012010707444+53550+007667FM-16+0012ETNT V0202801N008210027019N0112651N1+00801+00701999999ADDGA1071+002701999GA2071+012601999GF107991999999999999999999MA1100511999999REMMET062SPECI ETNT 070744Z 28016KT 9999 BKN009 BKN042 08/07 Q1005 GRN;
0215101260999992012010708004+53550+007667FM-12+0012ETNT V0202801N008010027019N0150001N1+00771+00651100591ADDAY121999AY221999GA1051+002701081GA2071+012601061GF107991071081002501999999MA1999999100431MD1610131+9999MW1211REMSYN094AAXX  07081 10126 41365 72808 10077 20065 30043 40059 56013 72122 878// 333 85809 87642 91113;
0147101260999992012010708204+53550+007667FM-15+0012ETNT V0202801N007210150019N0112651N1+00801+00601999999ADDGA1021+003601999GA2071+015001999GF107991999999999999999999MA1100611999999REMMET062METAR ETNT 070820Z 28014KT 9999 FEW012 BKN050 08/06 Q1006 BLU;
0170101260999992012010709204+53550+007667FM-15+0012ETNT V0202901N00671015001CN0112651N1+00801+00501999999ADDGA1021+003601999GA2041+015001999GA3071+024001999GF107991999999999999999999MA1100611999999REMMET069METAR ETNT 070920Z 29013KT 9999 FEW012 SCT050 BKN080 08/05 Q1006 BLU;
0165101260999992012010710004+53550+007667FM-12+0012ETNT V0202901N00701030001CN0120001N1+00761+00521100701ADDGA1031+004501081GF107991031021004501031999MA1999999100541MD1310111+9999REMSYN082AAXX  07101 10126 42462 72907 10076 20052 30054 40070 53011 8323/ 333 83815 87358;
0185101260999992012010710204+53550+007667FM-15+0012ETNT V0203001N007710081019N0070001N1+00701+00501999999ADDGA1041+004501021GA2071+008101999GA3071+024001999GF107991999999999999999999MA1100711999999MW1801REMMET078METAR ETNT 071020Z 30015KT 7000 -SHRA SCT015TCU BKN027 BKN080 07/05 Q1007 WHT;
0215101260999992012010711004+53550+007667FM-12+0012ETNT V0202901N005010045019N0120001N1+00631+00441100751ADDAY181999AY221999GA1051+004501081GA2031+008101061GF107991061081004501031999MA1999999100591MD1210151+9999MW1251REMSYN094AAXX  07111 10126 41462 72905 10063 20044 30059 40075 52015 72582 8683/ 333 85815 83627 87358;
0196101260999992012010711204+53550+007667FM-15+0012ETNT V0202901N008210084019N0060001N1+00701+00601999999ADDGA1041+004501021GA2071+008401999GA3071+024001999GF107991999999999999999999MA1100711999999MW1801OC101391REMMET081METAR ETNT 071120Z 29016G27KT 6000 -SHRA SCT015TCU BKN028 BKN080 07/06 Q1007 WHT;
0147101260999992012010712204+53550+007667FM-15+0012ETNT V0202901N008710045019N0112651N1+00801+00601999999ADDGA1071+004501999GA2071+024001999GF107991999999999999999999MA1100711999999REMMET062METAR ETNT 071220Z 29017KT 9999 BKN015 BKN080 08/06 Q1007 WHT;
0209101260999992012010713004+53550+007667FM-12+0012ETNT V0202901N009010120019N0150001N1+00771+00531100791ADDGA1031+004501081GA2031+012001061GA3071+024001031GF107991051081004501031999MA1999999100631MD1210091+9999REMSYN094AAXX  07131 10126 42465 72909 10077 20053 30063 40079 52009 8583/ 333 83815 83640 87358 91114;
0182101260999992012010713204+53550+007667FM-15+0012ETNT V0202901N00821012001CN0112651N1+00801+00501999999ADDGA1041+004501999GA2041+012001999GA3071+024001999GF107991999999999999999999MA1100811999999MW1801REMMET075METAR ETNT 071320Z 29016KT 9999 -SHRA SCT015 SCT040 BKN080 08/05 Q1008 BLU;
0274101260999992012010714004+53550+007667FM-12+0012ETNT V0202901N008010240019N0150001N1+00781+00531100811ADDAY121999AY221999GA1031+004501081GA2061+024001031GF107991041081004501031001MA1999999100651MD1210061+9999MW1251OA149901501REMSYN142AAXX  07141 10126 41465 72908 10078 20053 30065 40081 52006 72522 84830 333 83815 86358 91013 91115 555 BOT 10068 20062 30055 40057 999 32///;
0185101260999992012010714204+53550+007667FM-15+0012ETNT V0203201N00721012001CN0112651N1+00601+00401999999ADDGA1041+004501021GA2041+012001999GA3071+024001999GF107991999999999999999999MA1100811999999MW1801REMMET078METAR ETNT 071420Z 32014KT 9999 -SHRA SCT015TCU SCT040 BKN080 06/04 Q1008 BLU;
0151101260999992012010715204+53550+007667FM-15+0012ETNT V0203101N005112200019N0112651N1+00601+00401999999ADDGA1041+004501021GA2041+024001999GF104991999999999999999999MA1100911999999REMMET066METAR ETNT 071520Z 31010KT 9999 SCT015TCU SCT080 06/04 Q1009 BLU/;
0215101260999992012010716004+53550+007667FM-12+0012ETNT V0202901N00701014101CN0120001N1+00621+00341101011ADDAY121999AY221999GA1021+004501081GA2031+014101061GF107991041081004501031001MA1999999100851MD1210211+9999MW1251REMSYN094AAXX  07161 10126 41462 72907 10062 20034 30085 40101 52021 72522 84830 333 82815 83647 86361;
0170101260999992012010716204+53550+007667FM-15+0012ETNT V0202901N00871012001CN0112651N1+00601+00301999999ADDGA1021+004501999GA2041+012001999GA3071+036001999GF107991999999999999999999MA1101021999999REMMET069METAR ETNT 071620Z 29017KT 9999 FEW015 SCT040 BKN120 06/03 Q1010 BLU;
0187101260999992012010717004+53550+007667FM-12+0012ETNT V0202901N007010120019N0180001N1+00601+00321101061ADDGA1011+004501081GA2061+012001061GF107991061081004501031001MA1999999100901MD1210251+9999REMSYN088AAXX  07171 10126 42468 72907 10060 20032 30090 40106 52025 86830 333 81815 86640 91113;
0151101260999992012010717204+53550+007667FM-15+0012ETNT V0202801N007212200019N0112651N1+00601+00401999999ADDGA1021+004501021GA2041+012001999GF104991999999999999999999MA1101021999999REMMET066METAR ETNT 071720Z 28014KT 9999 FEW015TCU SCT040 06/04 Q1010 BLU/;
0174101260999992012010717354+53550+007667FM-16+0012ETNT V0203001N010812200019N0112651N1+00601+00301999999ADDGA1041+004501021GA2041+013501999GF104991999999999999999999MA1101081999999MW1801OC101951REMMET075SPECI ETNT 071735Z 30021G38KT 9999 -SHRA SCT015TCU SCT045 06/03 Q1011 BLU/;
0150101260999992012010718204+53550+007667FM-15+0012ETNT V0202801N004610150019N0112651N1+00601+00301999999ADDGA1021+004501021GA2071+015001999GF107991999999999999999999MA1101081999999REMMET065METAR ETNT 071820Z 28009KT 9999 FEW015TCU BKN050 06/03 Q1011 BLU;
0193101260999992012010719004+53550+007667FM-12+0012ETNT V0203001N00701009001CN0200001N1+00631+00381101141ADDAY121999AY221999GA1021+005401081GF106991061081004501001001MA1999999100981MD1110131+9999MW1251REMSYN088AAXX  07191 10126 41470 63007 10063 20038 30098 40114 51013 72522 86800 333 82818 85650;
0147101260999992012010719204+53550+007667FM-15+0012ETNT V0202901N007210150019N0112651N1+00701+00401999999ADDGA1021+006001999GA2071+015001999GF107991999999999999999999MA1101081999999REMMET062METAR ETNT 071920Z 29014KT 9999 FEW020 BKN050 07/04 Q1011 BLU;
0165101260999992012010720004+53550+007667FM-12+0012ETNT V0202901N007010120019N0200001N1+00681+00381101171ADDGA1021+006001081GF107991071081008001999999MA1999999101011MD1110111+9999REMSYN082AAXX  07201 10126 42570 72907 10068 20038 30101 40117 51011 878// 333 82820 87640;
0147101260999992012010720204+53550+007667FM-15+0012ETNT V0202901N007210135019N0112651N1+00701+00401999999ADDGA1021+006001999GA2071+013501999GF107991999999999999999999MA1101081999999REMMET062METAR ETNT 072020Z 29014KT 9999 FEW020 BKN045 07/04 Q1011 BLU;
0148101260999992012010721204+53550+007667FM-15+0012ETNT V0202801N007212200019N0112651N1+00601+00301999999ADDGA1041+006601999GA2041+013501999GF104991999999999999999999MA1101191999999REMMET063METAR ETNT 072120Z 28014KT 9999 SCT022 SCT045 06/03 Q1012 BLU/;
0215101260999992012010722004+53550+007667FM-12+0012ETNT V0202801N007010150019N0150001N1+00611+00321101211ADDAY121999AY221999GA1041+006601081GA2051+015001061GF107991071081008001999999MA1999999101051MD1110071+9999MW1801REMSYN094AAXX  07221 10126 41565 72807 10061 20032 30105 40121 51007 78022 878// 333 84822 85650 91116;
0128101260999992012010722204+53550+007667FM-15+0012ETNT V0202801N006212200019N0112651N1+00601+00401999999ADDGA1041+006001021GF104991999999999999999999MA1101191999999REMMET059METAR ETNT 072220Z 28012KT 9999 SCT020TCU 06/04 Q1012 BLU/;
0193101260999992012010723004+53550+007667FM-12+0012ETNT V0202801N00701012001CN0150001N1+00641+00421101221ADDAY121999AY221999GA1011+006001081GF106991061081008001001001MA1999999101061MD1110051+9999MW1251REMSYN088AAXX  07231 10126 41565 62807 10064 20042 30106 40122 51005 72522 86800 333 81820 85650;
0147101260999992012010723204+53550+007667FM-15+0012ETNT V0202801N007710150019N0112651N1+00701+00401999999ADDGA1021+006001999GA2071+015001999GF107991999999999999999999MA1101191999999REMMET062METAR ETNT 072320Z 28015KT 9999 FEW020 BKN050 07/04 Q1012 BLU;
0147101260999992012010800204+53550+007667FM-15+0012ETNT V0202901N007210150019N0112651N1+00701+00401999999ADDGA1021+006001999GA2071+015001999GF107991999999999999999999MA1101191999999REMMET062METAR ETNT 080020Z 29014KT 9999 FEW020 BKN050 07/04 Q1012 BLU;
0165101260999992012010801004+53550+007667FM-12+0012ETNT V0202901N00801009001CN0200001N1+00671+00381101221ADDGA1011+005401081GF107991071081004501999999MA1999999101061MD1210011+9999REMSYN082AAXX  08011 10126 42470 72908 10067 20038 30106 40122 52001 878// 333 81818 87642;
0147101260999992012010801204+53550+007667FM-15+0012ETNT V0202801N007710150019N0112651N1+00701+00401999999ADDGA1021+006001999GA2071+015001999GF107991999999999999999999MA1101191999999REMMET062METAR ETNT 080120Z 28015KT 9999 FEW020 BKN050 07/04 Q1012 BLU;
0193101260999992012010802004+53550+007667FM-12+0012ETNT V0202801N00801009001CN0120001N1+00711+00441101201ADDAY121999AY221999GA1031+005401081GF107991071081004501999999MA1999999101041MD1810021+9999MW1251REMSYN088AAXX  08021 10126 41462 72808 10071 20044 30104 40120 58002 72522 878// 333 83818 85656;
0147101260999992012010802204+53550+007667FM-15+0012ETNT V0202801N008210120019N0112651N1+00701+00401999999ADDGA1041+006001999GA2071+012001999GF107991999999999999999999MA1101081999999REMMET062METAR ETNT 080220Z 28016KT 9999 SCT020 BKN040 07/04 Q1011 BLU;
0147101260999992012010803204+53550+007667FM-15+0012ETNT V0202901N008210096019N0112651N1+00701+00401999999ADDGA1021+005101999GA2071+009601999GF107991999999999999999999MA1101081999999REMMET062METAR ETNT 080320Z 29016KT 9999 FEW017 BKN032 07/04 Q1011 BLU;
0187101260999992012010804004+53550+007667FM-12+0012ETNT V0202801N007010105019N0150001N1+00711+00401101201ADDGA1021+005401081GA2071+010501061GF107991071081004501999999MA1999999101041MD1510021+9999REMSYN088AAXX  08041 10126 42465 72807 10071 20040 30104 40120 55002 878// 333 82818 87635 91113;
0147101260999992012010804204+53550+007667FM-15+0012ETNT V0202801N007710084019N0112651N1+00701+00401999999ADDGA1021+005101999GA2071+008401999GF107991999999999999999999MA1101081999999REMMET062METAR ETNT 080420Z 28015KT 9999 FEW017 BKN028 07/04 Q1011 BLU;
0221101260999992012010805004+53550+007667FM-12+0012ETNT V0202901N009010135019N0150001N1+00721+00421101181ADDAY121999AY221999GA1041+005401081GA2071+013501061GF107991071081004501999999MA1999999101021MD1710021+9999MW1801REMSYN100AAXX  08051 10126 41465 72909 10072 20042 30102 40118 57002 78022 878// 333 84818 87645 91015 91115;
0140101260999992012010805204+53550+007667FM-15+0012ETNT V0202901N00821006001CN0112651N1+00701+00401999999ADDGA1071+006001999GA2041+012001999MA1101081999999REMMET062METAR ETNT 080520Z 29016KT 9999 BKN020 SCT040 07/04 Q1011 WHT;EQDQ01+000042SCOTCV
0148101260999992012010805474+53550+007667FM-16+0012ETNT V0203101N009810045019N0040001N1+00601+00301999999ADDGA1071+004501091GF107991999999999999999999MA1101191999999MW1811OC101651REMMET065SPECI ETNT 080547Z 31019G32KT 4000 SHRA BKN015CB 06/03 Q1012 GRN;
0165101260999992012010805544+53550+007667FM-16+0012ETNT V0203001N009810240019N0080001N1+00601+00401999999ADDGA1021+004501091GA2071+024001999GF107991999999999999999999MA1101191999999OC101651REMMET072SPECI ETNT 080554Z 30019G32KT 8000 FEW015CB BKN080 06/04 Q1012 RERA BLU;
0155101260999992012010806204+53550+007667FM-15+0012ETNT V0203001N007710240019N0080001N1+00601+00401999999ADDGA1021+004501021GA2071+024001999GF107991999999999999999999MA1101191999999REMMET070METAR ETNT 080620Z 30015KT 8000 FEW015TCU BKN080 06/04 Q1012 RERA BLU;
0246101260999992012010807004+53550+007667FM-12+0012ETNT V0202901N008010300019N0150001N1+00601+00411101231ADDGA1031+012001061GA2051+030001031GF106991031051012501031001MA1999999101071MD1310031+9999OA149901301REMSYN136AAXX  08071 10126 42665 62908 10060 20041 30107 40123 53003 83530 333 83640 85360 91113 555 BOT 10043 20048 30052 40058 50069 999 32///;
0147101260999992012010807204+53550+007667FM-15+0012ETNT V0203001N006710300019N0112651N1+00601+00401999999ADDGA1041+012001999GA2071+030001999GF107991999999999999999999MA1101191999999REMMET062METAR ETNT 080720Z 30013KT 9999 SCT040 BKN100 06/04 Q1012 BLU;
0165101260999992012010808004+53550+007667FM-12+0012ETNT V0203001N007010075019N0200001N1+00611+00401101321ADDGA1051+007501061GF106991051051008001031001MA1999999101161MD1310141+9999REMSYN082AAXX  08081 10126 42570 63007 10061 20040 30116 40132 53014 85530 333 85625 83360;
0125101260999992012010808204+53550+007667FM-15+0012ETNT V0203001N006212200019N0112651N1+00701+00401999999ADDGA1041+007501999GF104991999999999999999999MA1101291999999REMMET056METAR ETNT 080820Z 30012KT 9999 SCT025 07/04 Q1013 BLU/;
0139101260999992012010809204+53550+007667FM-15+0012ETNT V0203001N005710054019N0112651N1+00701+00501999999ADDGA1071+005401021GF107991999999999999999999MA1101391999999MW1801REMMET064METAR ETNT 080920Z 30011KT 9999 -SHRA BKN018TCU 07/05 Q1014 WHT;
0215101260999992012010810004+53550+007667FM-12+0012ETNT V0203101N005010120019N0200001N1+00711+00481101501ADDAY121999AY221999GA1021+005401081GA2051+012001061GF105991051081004501001001MA1999999101341MD1310271+9999MW1251REMSYN094AAXX  08101 10126 41470 53105 10071 20048 30134 40150 53027 72522 85800 333 82818 85640 91010;
0150101260999992012010810204+53550+007667FM-15+0012ETNT V0203001N005110120019N0112651N1+00801+00501999999ADDGA1041+004801021GA2071+012001999GF107991999999999999999999MA1101491999999REMMET065METAR ETNT 081020Z 30010KT 9999 SCT016TCU BKN040 08/05 Q1015 BLU;
0165101260999992012010811004+53550+007667FM-12+0012ETNT V0203101N006012200019N0200001N1+00731+00461101531ADDGA1011+004801081GF103991031081004501001001MA1999999101371MD1110211+9999REMSYN082AAXX  08111 10126 42470 33106 10073 20046 30137 40153 51021 83800 333 81816 83640;
0147101260999992012010811204+53550+007667FM-15+0012ETNT V0203101N005710120019N0112651N1+00801+00401999999ADDGA1021+004801999GA2071+012001999GF107991999999999999999999MA1101491999999REMMET062METAR ETNT 081120Z 31011KT 9999 FEW016 BKN040 08/04 Q1015 BLU;
0150101260999992012010812204+53550+007667FM-15+0012ETNT V0203201N006210120019N0112651N1+00701+00501999999ADDGA1021+004501021GA2071+012001999GF107991999999999999999999MA1101591999999REMMET065METAR ETNT 081220Z 32012KT 9999 FEW015TCU BKN040 07/05 Q1016 BLU;
0193101260999992012010813004+53550+007667FM-12+0012ETNT V0203201N00601009001CN0200001N1+00771+00471101611ADDAY121999AY221999GA1031+004501081GF107991071081004501001001MA1999999101451MD1210121+9999MW1251REMSYN088AAXX  08131 10126 41470 73206 10077 20047 30145 40161 52012 72522 87800 333 83815 86640;
0150101260999992012010813204+53550+007667FM-15+0012ETNT V0203201N004610114019N0112651N1+00601+00401999999ADDGA1021+004501021GA2071+011401999GF107991999999999999999999MA1101591999999REMMET065METAR ETNT 081320Z 32009KT 9999 FEW015TCU BKN038 06/04 Q1016 BLU;
0251101260999992012010814004+53550+007667FM-12+0012ETNT V0203101N005012200019N0200001N1+00701+00421101711ADDAY121999AY221999GA1011+004801081GA2031+011401061GF103991031081004501001001MA1999999101551MD1310181+9999MW1251REMSYN130AAXX  08141 10126 41470 33105 10070 20042 30155 40171 53018 72522 83800 333 81816 83638 555 BOT 10062 20061 30054 40057 999 32///;
0150101260999992012010814204+53550+007667FM-15+0012ETNT V0203301N005110114019N0112651N1+00601+00401999999ADDGA1021+004201021GA2071+011401999GF107991999999999999999999MA1101691999999REMMET065METAR ETNT 081420Z 33010KT 9999 FEW014TCU BKN038 06/04 Q1017 BLU;
0147101260999992012010815204+53550+007667FM-15+0012ETNT V0203401N004110120019N0112651N1+00701+00401999999ADDGA1021+004201999GA2071+012001999GF107991999999999999999999MA1101801999999REMMET062METAR ETNT 081520Z 34008KT 9999 FEW014 BKN040 07/04 Q1018 BLU;
0159101260999992012010816004+53550+007667FM-12+0012ETNT V0203101N004010108019N0200001N1+00671+00281101901ADDGA1071+010801061GF107991071051012501999999MA1999999101741MD1210281+9999REMSYN076AAXX  08161 10126 42670 73104 10067 20028 30174 40190 52028 875// 333 87636;
0124101260999992012010816204+53550+007667FM-15+0012ETNT V0203201N004610108019N0112651N1+00701+00201999999ADDGA1071+010801999GF107991999999999999999999MA1101901999999REMMET055METAR ETNT 081620Z 32009KT 9999 BKN036 07/02 Q1019 BLU;
0159101260999992012010817004+53550+007667FM-12+0012ETNT V0203201N005010108019N0200001N1+00661+00211101981ADDGA1071+010801061GF107991071051012501999999MA1999999101821MD1210271+9999REMSYN076AAXX  08171 10126 42670 73205 10066 20021 30182 40198 52027 875// 333 87636;
0124101260999992012010817204+53550+007667FM-15+0012ETNT V0203101N004110108019N0112651N1+00701+00201999999ADDGA1071+010801999GF107991999999999999999999MA1102001999999REMMET055METAR ETNT 081720Z 31008KT 9999 BKN036 07/02 Q1020 BLU;
0148101260999992012010818204+53550+007667FM-15+0012ETNT V0203101N003112200019N0112651N1+00601+00201999999ADDGA1021+006001999GA2041+012001999GF104991999999999999999999MA1102001999999REMMET063METAR ETNT 081820Z 31006KT 9999 FEW020 SCT040 06/02 Q1020 BLU/;
0165101260999992012010819004+53550+007667FM-12+0012ETNT V0203101N00301012001CN0200001N1+00581+00231102121ADDGA1011+006001081GF106991061081008001001001MA1999999101961MD1210221+9999REMSYN082AAXX  08191 10126 42570 63103 10058 20023 30196 40212 52022 86800 333 81820 86641;
0124101260999992012010819204+53550+007667FM-15+0012ETNT V0203001N003110105019N0112651N1+00601+00201999999ADDGA1071+010501999GF107991999999999999999999MA1102101999999REMMET055METAR ETNT 081920Z 30006KT 9999 BKN035 06/02 Q1021 BLU;
0159101260999992012010820004+53550+007667FM-12+0012ETNT V0203101N004010120019N0200001N1+00611+00191102181ADDGA1061+012001061GF106991061051012501001001MA1999999102021MD1210201+9999REMSYN076AAXX  08201 10126 42670 63104 10061 20019 30202 40218 52020 86500 333 86640;
0124101260999992012010820204+53550+007667FM-15+0012ETNT V0203001N002110120019N0112651N1+00601+00201999999ADDGA1071+012001999GF107991999999999999999999MA1102201999999REMMET055METAR ETNT 082020Z 30004KT 9999 BKN040 06/02 Q1022 BLU;
0124101260999992012010821204+53550+007667FM-15+0012ETNT V0202801N002610120019N0112651N1+00601+00201999999ADDGA1071+012001999GF107991999999999999999999MA1102201999999REMMET055METAR ETNT 082120Z 28005KT 9999 BKN040 06/02 Q1022 BLU;
0159101260999992012010822004+53550+007667FM-12+0012ETNT V0202701N003012200019N0200001N1+00481+00191102301ADDGA1031+012001061GF103991031051012501001001MA1999999102141MD1210181+9999REMSYN076AAXX  08221 10126 42670 32703 10048 20019 30214 40230 52018 83500 333 83640;
0124101260999992012010822204+53550+007667FM-15+0012ETNT V0202801N003610111019N0112651N1+00501+00201999999ADDGA1071+011101999GF107991999999999999999999MA1102301999999REMMET055METAR ETNT 082220Z 28007KT 9999 BKN037 05/02 Q1023 BLU;
0159101260999992012010823004+53550+007667FM-12+0012ETNT V0202801N003010114019N0200001N1+00521+00281102291ADDGA1051+011401061GF105991051051012501001001MA1999999102131MD1010111+9999REMSYN076AAXX  08231 10126 42670 52803 10052 20028 30213 40229 50011 85500 333 85638;
0124101260999992012010823204+53550+007667FM-15+0012ETNT V0202701N003110129019N0112651N1+00501+00201999999ADDGA1071+012901999GF107991999999999999999999MA1102301999999REMMET055METAR ETNT 082320Z 27006KT 9999 BKN043 05/02 Q1023 BLU;
0125101260999992012010900204+53550+007667FM-15+0012ETNT V0202701N002612200019N0112651N1+00501+00301999999ADDGA1041+011401999GF104991999999999999999999MA1102301999999REMMET056METAR ETNT 090020Z 27005KT 9999 SCT038 05/03 Q1023 BLU/;
0187101260999992012010901004+53550+007667FM-12+0012ETNT V0202601N00201030001CN0200001N1+00491+00321102341ADDGA1011+006001081GA2031+011401061GF107991041081008001031001MA1999999102181MD1310041+9999REMSYN088AAXX  09011 10126 42570 72602 10049 20032 30218 40234 53004 84830 333 81820 83638 85359;
0173101260999992012010901204+53550+007667FM-15+0012ETNT V0202501N00261011401CN0112651N1+00501+00301999999ADDGA1021+006001021GA2041+011401999GA3071+027001999GF107991999999999999999999MA1102301999999REMMET072METAR ETNT 090120Z 25005KT 9999 FEW020TCU SCT038 BKN090 05/03 Q1023 BLU;
0165101260999992012010902004+53550+007667FM-12+0012ETNT V0202601N00301030001CN0200001N1+00531+00371102341ADDGA1021+012001061GF107991021051012501031999MA1999999102181MD1110051+9999REMSYN082AAXX  09021 10126 42670 72603 10053 20037 30218 40234 51005 8253/ 333 82640 87358;
0147101260999992012010902204+53550+007667FM-15+0012ETNT V0202601N002110240019N0112651N1+00501+00401999999ADDGA1021+012001999GA2071+024001999GF107991999999999999999999MA1102301999999REMMET062METAR ETNT 090220Z 26004KT 9999 FEW040 BKN080 05/04 Q1023 BLU;
0124101260999992012010903204+53550+007667FM-15+0012ETNT V0202501N002610150019N0112651N1+00601+00501999999ADDGA1071+015001999GF107991999999999999999999MA1102301999999REMMET055METAR ETNT 090320Z 25005KT 9999 BKN050 06/05 Q1023 BLU;
0159101260999992012010904004+53550+007667FM-12+0012ETNT V0202501N003010132019N0080001N1+00571+00491102321ADDGA1071+013201061GF107991071051012501999999MA1999999102161MD1610021+9999REMSYN076AAXX  09041 10126 42658 72503 10057 20049 30216 40232 56002 875// 333 87644;
0159101260999992012010904204+53550+007667FM-15+0012ETNT V0202301N002110120019N0070001N1+00601+00501999999ADDGA1021+005401999GA2071+012001999GF107991999999999999999999MA1102301999999MW1801REMMET068METAR ETNT 090420Z 23004KT 7000 -SHRA FEW018 BKN040 06/05 Q1023 WHT;
0193101260999992012010905004+53550+007667FM-12+0012ETNT V0202401N00401004201CN0050001N1+00571+00491102261ADDAY181999AY221999GA1021+004501061GF108991071051004501999999MA1999999102101MD1710081+9999MW1581REMSYN088AAXX  09051 10126 41450 82404 10057 20049 30210 40226 57008 75882 875// 333 82615 87632;
0147101260999992012010905204+53550+007667FM-15+0012ETNT V0202201N002610078019N0112651N1+00601+00501999999ADDGA1021+004501999GA2071+007801999GF107991999999999999999999MA1102201999999REMMET062METAR ETNT 090520Z 22005KT 9999 FEW015 BKN026 06/05 Q1022 BLU;
