0186101260999992007010100204+53550+007667FM-15+0012ETNT V0202401N00931002701CN0112651N1+01101+01001999999ADDGA1021+001801999GA2041+002701999GA3071+015001999GF107991999999999999999999MA1100311999999OC101491REMMET077METAR ETNT 010020Z 24018G29KT 9999 FEW006 SCT009 BKN050 11/10 Q1003 RERA BLU;
0215101260999992007010101004+53550+007667FM-12+0012ETNT V0202501N010010240019N0150001N1+01091+00831100361ADDAY161999AY221999GA1031+005701061GA2051+024001031GF106991031051004501031001MA1999999100211MD1610331+9999MW1211REMSYN094AAXX  01011 10126 41465 62510 10109 20083 30021 40036 56033 72162 83530 333 83619 85358 91116;
0158101260999992007010101204+53550+007667FM-15+0012ETNT V0202501N009310420019N0112651N1+01001+00701999999ADDGA1021+007501999GA2071+042001999GF107991999999999999999999MA1100311999999OC101591REMMET065METAR ETNT 010120Z 25018G31KT 9999 FEW025 BKN140 10/07 Q1003 BLU;
0193101260999992007010102004+53550+007667FM-12+0012ETNT V0202501N009012200019N0200001N1+00961+00621100351ADDGA1021+007501061GA2031+042001061GF104991021051008001031001MA1999999100201MD1710111+9999REMSYN094AAXX  01021 10126 42570 42509 10096 20062 30020 40035 57011 82530 333 82625 83664 91014 91116;
0136101260999992007010102204+53550+007667FM-15+0012ETNT V0202501N009312200019N0112651N1+00901+00501999999ADDGA1021+042001999GF102991999999999999999999MA1100311999999OC101591REMMET059METAR ETNT 010220Z 25018G31KT 9999 FEW140 09/05 Q1003 BLU+;
0136101260999992007010103204+53550+007667FM-15+0012ETNT V0202401N009312200019N0112651N1+00901+00501999999ADDGA1021+042001999GF102991999999999999999999MA1100201999999OC101441REMMET059METAR ETNT 010320Z 24018G28KT 9999 FEW140 09/05 Q1002 BLU+;
0171101260999992007010104004+53550+007667FM-12+0012ETNT V0202401N010010450019N0200001N1+00881+00521100291ADDGA1051+045001031GF105991051001999999031001MA1999999100141MD1710171+9999REMSYN088AAXX  01041 10126 42970 52410 10088 20052 30014 40029 57017 85030 333 85365 91017 91117;
0158101260999992007010104204+53550+007667FM-15+0012ETNT V0202401N009810090019N0112651N1+00901+00601999999ADDGA1021+006001999GA2071+009001999GF107991999999999999999999MA1100201999999OC101591REMMET065METAR ETNT 010420Z 24019G31KT 9999 FEW020 BKN030 09/06 Q1002 BLU;
0170101260999992007010104474+53550+007667FM-16+0012ETNT V0202501N010810090019N0090001N1+00901+00601999999ADDGA1041+005701999GA2071+009001999GF107991999999999999999999MA1100201999999MW1801OC101851REMMET071SPECI ETNT 010447Z 25021G36KT 9000 -SHRA SCT019 BKN030 09/06 Q1002 BLU;
0257101260999992007010105004+53550+007667FM-12+0012ETNT V0202501N012010090019N0090001N1+00861+00541100261ADDAY121999AY221999GA1031+005701081GA2071+009001061GF107991071081004501999999MA1999999100111MD1710091+9999MW1801OA149999999REMSYN106AAXX  01051 10126 41459 72512 10086 20054 30011 40026 57009 78022 878// 333 83819 87630 91021 91121 91212;EQDQ01  01082WGOSPD
0159101260999992007010105204+53550+007667FM-15+0012ETNT V0202501N009312200019N0112651N1+00801+00501999999ADDGA1021+005701999GA2041+011701999GF104991999999999999999999MA1100201999999OC101491REMMET066METAR ETNT 010520Z 25018G29KT 9999 FEW019 SCT039 08/05 Q1002 BLU+;
0125101260999992007010106204+53550+007667FM-15+0012ETNT V0202401N010312200019N0112651N1+00801+00501999999ADDGA1041+009001999GF104991999999999999999999MA1100201999999REMMET056METAR ETNT 010620Z 24020KT 9999 SCT030 08/05 Q1002 BLU+;
0207101260999992007010107004+53550+007667FM-12+0012ETNT V0202501N011012200019N0150001N1+00821+00471100331ADDGA1021+006901081GF103991031081008001001001MA1999999100181MD1310041+9999OA149999999REMSYN094AAXX  01071 10126 42565 32511 10082 20047 30018 40033 53004 83800 333 82823 91016 91117 91211;EQDQ01  00882WGOSPD
0136101260999992007010107204+53550+007667FM-15+0012ETNT V0202501N010312200019N0112651N1+00801+00401999999ADDGA1041+011701999GF104991999999999999999999MA1100311999999OC101651REMMET059METAR ETNT 010720Z 25020G32KT 9999 SCT039 08/04 Q1003 BLU+;
0171101260999992007010108004+53550+007667FM-12+0012ETNT V0202501N010012200019N0350001N1+00751+00431100351ADDGA1021+006901081GF103991031081008001001001MA1999999100201MD1310091+9999REMSYN088AAXX  01081 10126 42581 32510 10075 20043 30020 40035 53009 83800 333 82823 91015 91119;
0125101260999992007010108204+53550+007667FM-15+0012ETNT V0202501N009812200019N0112651N1+00801+00401999999ADDGA1021+006901999GF102991999999999999999999MA1100311999999REMMET056METAR ETNT 010820Z 25019KT 9999 FEW023 08/04 Q1003 BLU+;
0125101260999992007010109204+53550+007667FM-15+0012ETNT V0202601N010812200019N0112651N1+00801+00401999999ADDGA1021+006901999GF102991999999999999999999MA1100311999999REMMET056METAR ETNT 010920Z 26021KT 9999 FEW023 08/04 Q1003 BLU+;
0207101260999992007010110004+53550+007667FM-12+0012ETNT V0202601N011012200019N0350001N1+00821+00431100451ADDGA1021+007501081GF103991031081008001001001MA1999999100301MD1210121+9999OA149999999REMSYN094AAXX  01101 10126 42581 32611 10082 20043 30030 40045 52012 83800 333 82825 91016 91116 91211;EQDQ01  00822WGOSPD
0148101260999992007010110204+53550+007667FM-15+0012ETNT V0202601N010812200019N0112651N1+00801+00501999999ADDGA1021+006901999GA2041+012001999GF104991999999999999999999MA1100411999999REMMET063METAR ETNT 011020Z 26021KT 9999 FEW023 SCT040 08/05 Q1004 BLU+;
0223101260999992007010111004+53550+007667FM-12+0012ETNT V0202601N011012200019N0350001N1+00851+00451100471ADDGA1021+007501081GA2031+015001061GF104991041081008001001001MA1999999100321MD1210121+9999OA149999999REMSYN094AAXX  01111 10126 42581 42611 10085 20045 30032 40047 52012 84800 333 82825 83650 91117 91212;EQDQ01  00882WGOSPD
0158101260999992007010111204+53550+007667FM-15+0012ETNT V0202601N010310144019N0112651N1+00901+00501999999ADDGA1021+006601999GA2071+014401999GF107991999999999999999999MA1100411999999OC101541REMMET065METAR ETNT 011120Z 26020G30KT 9999 FEW022 BKN048 09/05 Q1004 BLU;
0151101260999992007010112204+53550+007667FM-15+0012ETNT V0202601N008712200019N0112651N1+00801+00501999999ADDGA1021+006601021GA2041+015001999GF104991999999999999999999MA1100511999999REMMET066METAR ETNT 011220Z 26017KT 9999 FEW022TCU SCT050 08/05 Q1005 BLU+;
0223101260999992007010113004+53550+007667FM-12+0012ETNT V0202701N010010150019N0350001N1+00871+00461100541ADDGA1031+006601081GA2051+015001061GF107991071081008001999999MA1999999100391MD1210091+9999OA149999999REMSYN094AAXX  01131 10126 42581 72710 10087 20046 30039 40054 52009 878// 333 83822 85650 91115 91211;EQDQ01  00772WGOSPD
0151101260999992007010113204+53550+007667FM-15+0012ETNT V0202701N010312200019N0112651N1+00801+00501999999ADDGA1021+006601021GA2041+015001999GF104991999999999999999999MA1100511999999REMMET066METAR ETNT 011320Z 27020KT 9999 FEW022TCU SCT050 08/05 Q1005 BLU+;
0229101260999992007010114004+53550+007667FM-12+0012ETNT V0202701N009012200019N0350001N1+00781+00491100551ADDAY181999AY211999GA1031+006601091GF104991041031008001001001MA1999999100401MD1210081+9999MW1251REMSYN124AAXX  01141 10126 42581 42709 10078 20049 30040 40055 52008 72581 84300 333 83922 555 BOT 10068 20070 30068 40072 999 31///;
0138101260999992007010114204+53550+007667FM-15+0012ETNT V0202701N009312200019N0112651N1+00801+00501999999ADDGA1041+006601091GF104991999999999999999999MA1100611999999OC101801REMMET061METAR ETNT 011420Z 27018G35KT 9999 SCT022CB 08/05 Q1006 BLU+;
0138101260999992007010115204+53550+007667FM-15+0012ETNT V0202801N009812200019N0112651N1+00701+00401999999ADDGA1041+008401091GF104991999999999999999999MA1100711999999OC101541REMMET061METAR ETNT 011520Z 28019G30KT 9999 SCT028CB 07/04 Q1007 BLU+;
0201101260999992007010116004+53550+007667FM-12+0012ETNT V0202801N009012200019N0350001N1+00731+00341100771ADDGA1031+006601091GF104991041031008001001001MA1999999100621MD1210231+9999OA149999999REMSYN088AAXX  01161 10126 42581 42809 10073 20034 30062 40077 52023 84300 333 83922 91117 91211;EQDQ01  00882WGOSPD
0127101260999992007010116204+53550+007667FM-15+0012ETNT V0202701N008712200019N0112651N1+00701+00301999999ADDGA1041+008401091GF104991999999999999999999MA1100811999999REMMET058METAR ETNT 011620Z 27017KT 9999 SCT028CB 07/03 Q1008 BLU+;
0193101260999992007010117004+53550+007667FM-12+0012ETNT V0202701N009012200019N0250001N1+00741+00341100851ADDAY181999AY221999GA1031+008401091GF104991041031008001001001MA1999999100701MD1210301+9999MW1801REMSYN088AAXX  01171 10126 41575 42709 10074 20034 30070 40085 52030 78082 84300 333 83928 91114;
0128101260999992007010117204+53550+007667FM-15+0012ETNT V0202701N008712200019N0112651N1+00701+00301999999ADDGA1041+009601021GF104991999999999999999999MA1100811999999REMMET059METAR ETNT 011720Z 27017KT 9999 SCT032TCU 07/03 Q1008 BLU+;
0151101260999992007010118204+53550+007667FM-15+0012ETNT V0202501N007212200019N0112651N1+00601+00401999999ADDGA1021+007201021GA2041+015001999GF104991999999999999999999MA1100911999999REMMET066METAR ETNT 011820Z 25014KT 9999 FEW024TCU SCT050 06/04 Q1009 BLU+;
0221101260999992007010119004+53550+007667FM-12+0012ETNT V0202501N008010126019N0250001N1+00621+00401100921ADDAY181999AY211999GA1031+006001081GA2031+012601061GF105991051081008001001001MA1999999100771MD1210151+9999MW1251REMSYN100AAXX  01191 10126 41575 52508 10062 20040 30077 40092 52015 72581 85800 333 83820 83642 91014 91114;
0162101260999992007010119204+53550+007667FM-15+0012ETNT V0202601N008712200019N0112651N1+00701+00401999999ADDGA1021+006001021GA2041+045001999GF104991999999999999999999MA1100911999999OC101391REMMET069METAR ETNT 011920Z 26017G27KT 9999 FEW020TCU SCT150 07/04 Q1009 BLU+;
0165101260999992007010120004+53550+007667FM-12+0012ETNT V0202501N007012200019N0250001N1+00621+00341100931ADDGA1011+006001081GF102991011081008001031001MA1999999100781MD1210081+9999REMSYN082AAXX  01201 10126 42575 22507 10062 20034 30078 40093 52008 81830 333 81820 91114;
0148101260999992007010120204+53550+007667FM-15+0012ETNT V0202501N006712200019N0112651N1+00601+00301999999ADDGA1041+015001999GA2041+081001999GF104991999999999999999999MA1100911999999REMMET063METAR ETNT 012020Z 25013KT 9999 SCT050 SCT270 06/03 Q1009 BLU+;
0147101260999992007010121204+53550+007667FM-15+0012ETNT V0202301N005110450019N0112651N1+00601+00301999999ADDGA1021+018001999GA2071+045001999GF107991999999999999999999MA1100911999999REMMET062METAR ETNT 012120Z 23010KT 9999 FEW060 BKN150 06/03 Q1009 BLU;
0215101260999992007010122004+53550+007667FM-12+0012ETNT V0202401N00601018001CN0120001N1+00591+00361100911ADDAY121999AY221999GA1021+007801081GA2031+018001061GF107991041081008001031999MA1999999100761MD1810011+9999MW1801REMSYN094AAXX  01221 10126 41562 72406 10059 20036 30076 40091 58001 78022 8483/ 333 82826 83656 86365;
0138101260999992007010122204+53550+007667FM-15+0012ETNT V0202401N005710054019N0070001N1+00601+00401999999ADDGA1071+005401021GF107991999999999999999999MA1100911999999MW1811REMMET063METAR ETNT 012220Z 24011KT 7000 SHRA BKN018TCU 06/04 Q1009 WHT;
0193101260999992007010123004+53550+007667FM-12+0012ETNT V0202401N00601012001CN0150001N1+00561+00411100851ADDAY181999AY221999GA1031+006301081GF107991071081008001999999MA1999999100701MD1810081+9999MW1251REMSYN088AAXX  01231 10126 41565 72406 10056 20041 30070 40085 58008 72582 878// 333 83821 86650;
0148101260999992007010123204+53550+007667FM-15+0012ETNT V0202501N008710045019N0060001N1+00601+00401999999ADDGA1071+004501091GF107991999999999999999999MA1100811999999MW1811OC101851REMMET065METAR ETNT 012320Z 25017G36KT 6000 SHRA BKN015CB 06/04 Q1008 WHT;
0176101260999992007010200204+53550+007667FM-15+0012ETNT V0202501N008710060019N0030001N1+00501+00401999999ADDGA1021+003001999GA2071+006001999GF107991999999999999999999MA1100911999999MW1101MW2631OC101391REMMET071METAR ETNT 020020Z 25017G27KT 3000 RA BR FEW010 BKN020 05/04 Q1009 YLO;
0175101260999992007010200354+53550+007667FM-16+0012ETNT V0202601N008210060019N0030001N1+00501+00401999999ADDGA1021+003001999GA2071+006001091GF107991999999999999999999MA1100911999999MW1101MW2811MW3951REMMET072SPECI ETNT 020035Z 26016KT 3000 TSRA BR FEW010 BKN020CB 05/04 Q1009 YLO;
0215101260999992007010201004+53550+007667FM-12+0012ETNT V0202601N008010087019N0035001N1+00471+00381100901ADDAY191999AY281999GA1011+005401091GA2071+008701061GF108991071091004501999999MA1999999100751MD1510011+9999MW1921REMSYN094AAXX  02011 10126 41435 82608 10047 20038 30075 40090 55001 79298 879// 333 81918 87629 91114;
0171101260999992007010201054+53550+007667FM-16+0012ETNT V0202601N008210060019N0030001N1+00501+00401999999ADDGA1021+003001999GA2071+006001999GF107991999999999999999999MA1100911999999MW1101MW2651REMMET074SPECI ETNT 020105Z 26016KT 3000 +RA BR FEW010 BKN020 05/04 Q1009 RETS YLO;
0170101260999992007010201204+53550+007667FM-15+0012ETNT V0202701N009310078019N0050001N1+00501+00401999999ADDGA1041+003301999GA2071+007801999GF107991999999999999999999MA1100911999999MW1101MW2631REMMET073METAR ETNT 020120Z 27018KT 5000 RA BR SCT011 BKN026 05/04 Q1009 RETS WHT;
0162101260999992007010201404+53550+007667FM-16+0012ETNT V0202601N007210030019N0070001N1+00401+00301999999ADDGA1071+003001999GA2071+007801999GF107991999999999999999999MA1100911999999MW1611REMMET071SPECI ETNT 020140Z 26014KT 7000 -RA BKN010 BKN026 04/03 Q1009 RERA GRN;
0215101260999992007010202004+53550+007667FM-12+0012ETNT V0202601N006010024019N0070001N1+00431+00341100921ADDAY161999AY261999GA1051+002401071GA2071+005101061GF108991071051002501999999MA1999999100771MD1210071+9999MW1611REMSYN094AAXX  02021 10126 41357 82606 10043 20034 30077 40092 52007 76166 875// 333 85708 87617 91113;
0156101260999992007010202204+53550+007667FM-15+0012ETNT V0202701N006710027019N0060001N1+00401+00301999999ADDGA1071+002701999GA2071+005101999GF107991999999999999999999MA1100911999999MW1631REMMET065METAR ETNT 020220Z 27013KT 6000 RA BKN009 BKN017 04/03 Q1009 GRN;
0185101260999992007010202474+53550+007667FM-16+0012ETNT V0202401N00511006001CN0112651N1+00301+00301999999ADDGA1021+003301999GA2041+006001999GA3071+015001999GF107991999999999999999999MA1100811999999MW1611REMMET078SPECI ETNT 020247Z 24010KT 9999 -RA FEW011 SCT020 BKN050 03/03 Q1008 RERA BLU;
0152101260999992007010203204+53550+007667FM-15+0012ETNT V0202401N004610180019N0112651N1+00401+00301999999ADDGA1021+010501999GA2071+018001999GF107991999999999999999999MA1100811999999REMMET067METAR ETNT 020320Z 24009KT 9999 FEW035 BKN060 04/03 Q1008 RERA BLU;
0193101260999992007010204004+53550+007667FM-12+0012ETNT V0202501N00501004201CN0150001N1+00381+00321100901ADDAY161999AY221999GA1011+004801061GF108991071051004501999999MA1999999100751MD1010001+9999MW1611REMSYN088AAXX  02041 10126 41465 82505 10038 20032 30075 40090 50000 76162 875// 333 81616 87624;
0171101260999992007010204204+53550+007667FM-15+0012ETNT V0202301N00461048001CN0112651N1+00401+00401999999ADDGA1021+006001999GA2041+048001999GA3071+075001999GF107991999999999999999999MA1100811999999REMMET070METAR ETNT 020420Z 23009KT 9999 FEW020 SCT160 BKN250 04/04 Q1008 BLU+;
0215101260999992007010205004+53550+007667FM-12+0012ETNT V0202501N00501015001CN0200001N1+00401+00341100911ADDAY181999AY221999GA1021+003301081GA2031+015001061GF107991041081004501001011MA1999999100761MD1510011+9999MW1251REMSYN094AAXX  02051 10126 41470 72505 10040 20034 30076 40091 55001 72582 84801 333 82811 83650 85075;
0176101260999992007010205204+53550+007667FM-15+0012ETNT V0202401N004610099019N0112651N1+00401+00401999999ADDGA1021+004501021GA2071+009901999GF107991999999999999999999MA1100911999999MW1801REMMET085METAR ETNT 020520Z 24009KT 9999 -SHRA FEW015TCU BKN033 04/04 Q1009 BLU BLU+TEMPO GRN;
0163101260999992007010206204+53550+007667FM-15+0012ETNT V0202401N004612200019N0112651N1+00401+00301999999ADDGA1021+004501091GA2041+009901999GF104991999999999999999999MA1100911999999REMMET078METAR ETNT 020620Z 24009KT 9999 FEW015CB SCT033 04/03 Q1009 BLU+BLU+TEMPO GRN;
0257101260999992007010207004+53550+007667FM-12+0012ETNT V0202401N003010135019N0200001N1+00291+00231100991ADDAY181999AY221999GA1021+005401091GA2041+013501061GF105991051031004501001001MA1999999100841MD1210091+9999MW1251REMSYN136AAXX  02071 10126 41470 52403 10029 20023 30084 40099 52009 72582 85300 333 82918 84645 555 BOT 10041 20049 30058 40072 50081 999 31///;
0163101260999992007010207204+53550+007667FM-15+0012ETNT V0202601N004612200019N0112651N1+00401+00301999999ADDGA1021+004501091GA2041+009001999GF104991999999999999999999MA1101021999999REMMET078METAR ETNT 020720Z 26009KT 9999 FEW015CB SCT030 04/03 Q1010 BLU+BLU+TEMPO GRN;
0193101260999992007010208004+53550+007667FM-12+0012ETNT V0202801N00501004201CN0200001N1+00461+00351101101ADDAY181999AY221999GA1021+005401091GF106991051031004501001011MA1999999100951MD1210191+9999MW1251REMSYN088AAXX  02081 10126 41470 62805 10046 20035 30095 40110 52019 72582 85301 333 82918 84645;
0163101260999992007010208204+53550+007667FM-15+0012ETNT V0202701N003612200019N0112651N1+00401+00401999999ADDGA1021+004501091GA2041+009001999GF104991999999999999999999MA1101081999999REMMET078METAR ETNT 020820Z 27007KT 9999 FEW015CB SCT030 04/04 Q1011 BLU+BLU+TEMPO GRN;
0163101260999992007010209204+53550+007667FM-15+0012ETNT V0202501N005112200019N0112651N1+00501+00401999999ADDGA1021+004501091GA2041+009001999GF104991999999999999999999MA1101081999999REMMET078METAR ETNT 020920Z 25010KT 9999 FEW015CB SCT030 05/04 Q1011 BLU+BLU+TEMPO GRN;
0193101260999992007010210004+53550+007667FM-12+0012ETNT V0202501N00601220001CN0300001N1+00331+99999101151ADDAY181999AY221999GA1021+006601091GF107991031031008001001011MA1999999101001MD1210161+9999MW1251REMSYN088AAXX  02101 10126 41580 72506 10033 20037 30100 40115 52016 72582 83301 333 82922 85070;
0186101260999992007010210204+53550+007667FM-15+0012ETNT V0202501N00621009001CN0112651N1+00501+00401999999ADDGA1021+006601091GA2041+009001999GA3071+060001999GF107991999999999999999999MA1101081999999REMMET085METAR ETNT 021020Z 25012KT 9999 FEW022CB SCT030 BKN200 05/04 Q1011 BLU+BLU+TEMPO GRN;
0187101260999992007010211004+53550+007667FM-12+0012ETNT V0202601N00601012001CN0300001N1+00591+00391101161ADDGA1021+006601091GA2031+012001061GF107991041031008001001011MA1999999101011MD1210061+9999REMSYN088AAXX  02111 10126 42580 72606 10059 20039 30101 40116 52006 84301 333 82922 83640 85070;
0198101260999992007010211204+53550+007667FM-15+0012ETNT V0202501N006210066019N0112651N1+00601+00401999999ADDGA1071+006601091GA2041+009001999GA3071+060001999GF107991999999999999999999MA1101081999999MW1801REMMET091METAR ETNT 021120Z 25012KT 9999 -SHRA BKN022CB SCT030 BKN200 06/04 Q1011 WHT BLU+TEMPO GRN;
0161101260999992007010212204+53550+007667FM-15+0012ETNT V0202501N006710057019N0112651N1+00501+00401999999ADDGA1021+003001999GA2071+005701999GF107991999999999999999999MA1101081999999REMMET076METAR ETNT 021220Z 25013KT 9999 FEW010 BKN019 05/04 Q1011 WHT BLU+TEMPO GRN;
0215101260999992007010213004+53550+007667FM-12+0012ETNT V0202501N005010066019N0150001N1+00541+00401101171ADDAY121999AY221999GA1011+000301071GA2051+006601081GF106991051021004501001021MA1999999101021MD1310021+9999MW1251REMSYN094AAXX  02131 10126 41465 62505 10054 20040 30102 40117 53002 72522 85202 333 81701 85822 85070;
0196101260999992007010213204+53550+007667FM-15+0012ETNT V0202501N005110063019N0112651N1+00601+00401999999ADDGA1021+003001999GA2071+006301999GA3071+060001999GF107991999999999999999999MA1101081999999MW1801REMMET089METAR ETNT 021320Z 25010KT 9999 -SHRA FEW010 BKN021 BKN200 06/04 Q1011 WHT BLU+TEMPO GRN;
0175101260999992007010213444+53550+007667FM-16+0012ETNT V0202601N004110042019N0112651N1+00501+00401999999ADDGA1041+002401999GA2071+004201091GF107991999999999999999999MA1101191999999MW1801REMMET084SPECI ETNT 021344Z 26008KT 9999 -SHRA SCT008 BKN014CB 05/04 Q1012 GRN BLU+TEMPO GRN;
0251101260999992007010214004+53550+007667FM-12+0012ETNT V0202701N005010042019N0120001N1+00531+00421101231ADDAY181999AY221999GA1031+002401071GA2071+004201091GF107991071031002501999999MA1999999101081MD1310071+9999MW1801REMSYN130AAXX  02141 10126 41362 72705 10053 20042 30108 40123 53007 78082 873// 333 83708 87914 555 BOT 10050 20051 30056 40070 999 31///;
0186101260999992007010214204+53550+007667FM-15+0012ETNT V0202601N005110099019N0112651N1+00501+00401999999ADDGA1021+002401999GA2021+004201091GA3071+009901999GF107991999999999999999999MA1101191999999REMMET085METAR ETNT 021420Z 26010KT 9999 FEW008 FEW014CB BKN033 05/04 Q1012 BLU BLU+TEMPO GRN;
0161101260999992007010215204+53550+007667FM-15+0012ETNT V0202501N003610099019N0112651N1+00501+00401999999ADDGA1041+005401999GA2071+009901999GF107991999999999999999999MA1101191999999REMMET076METAR ETNT 021520Z 25007KT 9999 SCT018 BKN033 05/04 Q1012 BLU BLU+TEMPO GRN;
0165101260999992007010216004+53550+007667FM-12+0012ETNT V0202601N00401009001CN0250001N1+00541+00481101311ADDGA1011+005401081GF106991051081004501001011MA1999999101161MD1210141+9999REMSYN082AAXX  02161 10126 42475 62604 10054 20048 30116 40131 52014 85801 333 81818 85633;
0176101260999992007010216204+53550+007667FM-15+0012ETNT V0202801N003610084019N0112651N1+00501+00501999999ADDGA1041+004501021GA2071+008401999GF107991999999999999999999MA1101391999999MW1801REMMET085METAR ETNT 021620Z 28007KT 9999 -SHRA SCT015TCU BKN028 05/05 Q1014 BLU BLU+TEMPO GRN;
0193101260999992007010217004+53550+007667FM-12+0012ETNT V0202801N00401009001CN0250001N1+00571+00481101501ADDAY121999AY221999GA1031+005401081GF106991061081004501001011MA1999999101351MD1310271+9999MW1251REMSYN088AAXX  02171 10126 41475 62804 10057 20048 30135 40150 53027 72522 86801 333 83818 85640;
0161101260999992007010217204+53550+007667FM-15+0012ETNT V0202701N003112200019N0112651N1+00501+00501999999ADDGA1021+005401999GA2041+012001999GF104991999999999999999999MA1101591999999REMMET076METAR ETNT 021720Z 27006KT 9999 FEW018 SCT040 05/05 Q1016 BLU+BLU+TEMPO GRN;
0129101260999992007010218204+53550+007667FM-15+0012ETNT V0202901N003112200019N0112651N1+00501+00401999999ADDGA1021+006001999GF102991999999999999999999MA1101691999999REMMET060METAR ETNT 021820Z 29006KT 9999 FEW020 05/04 Q1017 BLU+BLU+;
0159101260999992007010219004+53550+007667FM-12+0012ETNT V0202801N003012200019N0200001N1+00451+00381101841ADDGA1021+005401081GF103991021021004501001011MA1999999101691MD1210531+9999REMSYN076AAXX  02191 10126 42470 32803 10045 20038 30169 40184 52053 82201 333 82818;
0129101260999992007010219204+53550+007667FM-15+0012ETNT V0202801N003112200019N0112651N1+00401+00301999999ADDGA1021+006001999GF102991999999999999999999MA1101801999999REMMET060METAR ETNT 021920Z 28006KT 9999 FEW020 04/03 Q1018 BLU+BLU+;
0136101260999992007010219444+53550+007667FM-16+0012ETNT V0202801N003612200019N0112651N1+00401+00401999999ADDGA1021+006001999GF102991999999999999999999MA1101901999999REMMET067SPECI ETNT 021944Z 28007KT 9999 FEW020 04/04 Q1019 BLU+FCST CANCEL;
0165101260999992007010220004+53550+007667FM-12+0012ETNT V0202801N00401220001CN0200001N1+00451+00361101941ADDGA1021+006001081GF105991021021008001001011MA1999999101791MD1210441+9999REMSYN082AAXX  02201 10126 42570 52804 10045 20036 30179 40194 52044 82201 333 82820 84070;
0148101260999992007010220204+53550+007667FM-15+0012ETNT V0202701N004112200019N0112651N1+00501+00401999999ADDGA1021+006001999GA2041+057001999GF104991999999999999999999MA1101901999999REMMET063METAR ETNT 022020Z 27008KT 9999 FEW020 SCT190 05/04 Q1019 BLU+;
0125101260999992007010221204+53550+007667FM-15+0012ETNT V0202801N003612200019N0112651N1+00501+00401999999ADDGA1021+006001999GF102991999999999999999999MA1102001999999REMMET056METAR ETNT 022120Z 28007KT 9999 FEW020 05/04 Q1020 BLU+;
0159101260999992007010222004+53550+007667FM-12+0012ETNT V0202901N004012200019N0200001N1+00531+00421102071ADDGA1021+006001081GF102991021021008001001011MA1999999101921MD1210231+9999REMSYN076AAXX  02221 10126 42570 22904 10053 20042 30192 40207 52023 82201 333 82820;
0144101260999992007010222204+53550+007667FM-15+0012ETNT V0202801N003612200019N0112651N1+00302+99999999999ADDGA1021+006001999GF102991999999999999999999MA1102001999999REMMET056METAR ETNT 022220Z 28007KT 9999 FEW020 03/04 Q1020 BLU+;EQDQ01 +00402ATOD  
0159101260999992007010223004+53550+007667FM-12+0012ETNT V0202901N005012200019N0200001N1+00601+00441102141ADDGA1021+006001081GF102991021021008001001011MA1999999101991MD1210201+9999REMSYN076AAXX  02231 10126 42570 22905 10060 20044 30199 40214 52020 82201 333 82820;
0125101260999992007010223204+53550+007667FM-15+0012ETNT V0202901N004612200019N0112651N1+00601+00401999999ADDGA1021+006001999GF102991999999999999999999MA1102101999999REMMET056METAR ETNT 022320Z 29009KT 9999 FEW020 06/04 Q1021 BLU+;
0125101260999992007010300204+53550+007667FM-15+0012ETNT V0202901N004112200019N0112651N1+00601+00401999999ADDGA1021+060001999GF102991999999999999999999MA1102201999999REMMET056METAR ETNT 030020Z 29008KT 9999 FEW200 06/04 Q1022 BLU+;
0159101260999992007010301004+53550+007667FM-12+0012ETNT V0202901N005012200019N0200001N1+00591+00391102251ADDGA1021+087001001GF102991001001999999001011MA1999999102101MD1210181+9999REMSYN076AAXX  03011 10126 42970 22905 10059 20039 30210 40225 52018 80001 333 82079;
0124101260999992007010301204+53550+007667FM-15+0012ETNT V0202901N004610150019N0112651N1+00601+00401999999ADDGA1071+015001999GF107991999999999999999999MA1102201999999REMMET055METAR ETNT 030120Z 29009KT 9999 BKN050 06/04 Q1022 BLU;
0159101260999992007010302004+53550+007667FM-12+0012ETNT V0202901N006010135019N0200001N1+00661+00441102341ADDGA1051+013501061GF105991051051999999001001MA1999999102191MD1210201+9999REMSYN076AAXX  03021 10126 42970 52906 10066 20044 30219 40234 52020 85500 333 85645;
0125101260999992007010302204+53550+007667FM-15+0012ETNT V0202901N004112200019N0112651N1+00601+00401999999ADDGA1041+015001999GF104991999999999999999999MA1102301999999REMMET056METAR ETNT 030220Z 29008KT 9999 SCT050 06/04 Q1023 BLU+;
0125101260999992007010303204+53550+007667FM-15+0012ETNT V0202701N003612200019N0112651N1+00601+00301999999ADDGA1041+009001999GF104991999999999999999999MA1102301999999REMMET056METAR ETNT 030320Z 27007KT 9999 SCT030 06/03 Q1023 BLU+;
0165101260999992007010304004+53550+007667FM-12+0012ETNT V0202601N003012200019N0200001N1+00441+00301102431ADDGA1021+008401061GF104991021051008001001011MA1999999102281MD1210181+9999REMSYN082AAXX  03041 10126 42570 42603 10044 20030 30228 40243 52018 82501 333 82628 83078;
0165101260999992007010305004+53550+007667FM-12+0012ETNT V0202801N00401220001CN0200001N1+00501+00311102441ADDGA1021+008401061GF106991021051008001001011MA1999999102291MD1210101+9999REMSYN082AAXX  03051 10126 42570 62804 10050 20031 30229 40244 52010 82501 333 82628 85078;
0152101260999992007010305204+53550+007667FM-15+0012ETNT V0202401N002612200019N0112651N1+00301+00201999999ADDGA1021+012001999GA2041+069001999GF104991999999999999999999MA1102401999999REMMET067METAR ETNT 030520Z 24005KT 9999 FEW040 SCT230 03/02 Q1024 BLU+BLU+;
0152101260999992007010306204+53550+007667FM-15+0012ETNT V0202501N003110690019N0112651N1+00401+00401999999ADDGA1021+007801999GA2071+069001999GF107991999999999999999999MA1102401999999REMMET067METAR ETNT 030620Z 25006KT 9999 FEW026 BKN230 04/04 Q1024 BLU+BLU+;
0229101260999992007010307004+53550+007667FM-12+0012ETNT V0202501N004010600019N0200001N1+00411+00331102451ADDGA1011+006301081GA2071+060001001GF107991011021008001001021MA1999999102301MD1310021+9999REMSYN130AAXX  03071 10126 42570 72504 10041 20033 30230 40245 53002 81202 333 81821 87070 555 BOT 10031 20039 30050 40062 50082 999 31///;
0152101260999992007010307204+53550+007667FM-15+0012ETNT V0202501N003610600019N0112651N1+00401+00401999999ADDGA1041+039001999GA2071+060001999GF107991999999999999999999MA1102401999999REMMET067METAR ETNT 030720Z 25007KT 9999 SCT130 BKN200 04/04 Q1024 BLU+BLU+;
0187101260999992007010308004+53550+007667FM-12+0012ETNT V0202501N00501030001CN0200001N1+00481+00371102461ADDGA1011+007501081GA2031+039001031GF107991011021008001031021MA1999999102311MD1310021+9999REMSYN088AAXX  03081 10126 42570 72505 10048 20037 30231 40246 53002 81232 333 81825 83363 87070;
0175101260999992007010308204+53550+007667FM-15+0012ETNT V0202401N00461036001CN0112651N1+00501+00401999999ADDGA1021+007501999GA2041+036001999GA3071+060001999GF107991999999999999999999MA1102401999999REMMET074METAR ETNT 030820Z 24009KT 9999 FEW025 SCT120 BKN200 05/04 Q1024 BLU+BLU+;
0151101260999992007010309204+53550+007667FM-15+0012ETNT V0202301N004110300019N0112651N1+00501+00401999999ADDGA1021+007501999GA2071+030001999GF107991999999999999999999MA1102401999999REMMET066METAR ETNT 030920Z 23008KT 9999 FEW025 BKN100 05/04 Q1024 BLU BLU;
0187101260999992007010310004+53550+007667FM-12+0012ETNT V0202401N005010300019N0200001N1+00551+00441102411ADDGA1011+007501081GA2041+030001031GF106991011021008001031021MA1999999102261MD1810041+9999REMSYN088AAXX  03101 10126 42570 62405 10055 20044 30226 40241 58004 81232 333 81825 84360 85070;
0151101260999992007010310204+53550+007667FM-15+0012ETNT V0202401N005110300019N0112651N1+00601+00501999999ADDGA1021+006001999GA2071+030001999GF107991999999999999999999MA1102101999999REMMET066METAR ETNT 031020Z 24010KT 9999 FEW020 BKN100 06/05 Q1021 BLU BLU;
0187101260999992007010311004+53550+007667FM-12+0012ETNT V0202401N006010330019N0200001N1+00631+00491102351ADDGA1011+003901081GA2051+033001061GF107991021081004501031011MA1999999102201MD1710111+9999REMSYN088AAXX  03111 10126 42470 72406 10063 20049 30220 40235 57011 82831 333 81813 85661 87070;
0151101260999992007010311084+53550+007667FM-16+0012ETNT V0202301N005110036019N0112651N1+00601+00501999999ADDGA1071+003601999GA2071+033001999GF107991999999999999999999MA1102201999999REMMET066SPECI ETNT 031108Z 23010KT 9999 BKN012 BKN110 06/05 Q1022 GRN GRN;
0151101260999992007010311204+53550+007667FM-15+0012ETNT V0202301N005710036019N0112651N1+00601+00501999999ADDGA1071+003601999GA2071+033001999GF107991999999999999999999MA1102201999999REMMET066METAR ETNT 031120Z 23011KT 9999 BKN012 BKN110 06/05 Q1022 GRN GRN;
0161101260999992007010312204+53550+007667FM-15+0012ETNT V0202301N006210036019N0112651N1+00701+00501999999ADDGA1071+003601999GA2071+015001999GF107991999999999999999999MA1102101999999MW1611REMMET070METAR ETNT 031220Z 23012KT 9999 -RA BKN012 BKN050 07/05 Q1021 GRN GRN;
0193101260999992007010313004+53550+007667FM-12+0012ETNT V0202201N006010027019N0120001N1+00681+00541102061ADDAY161999AY221999GA1051+002701081GF108991071081002501999999MA1999999101911MD1710351+9999MW1211REMSYN088AAXX  03131 10126 41362 82206 10068 20054 30191 40206 57035 72162 878// 333 85809 87638;
0161101260999992007010313204+53550+007667FM-15+0012ETNT V0202201N006710036019N0112651N1+00701+00501999999ADDGA1071+003601999GA2071+009601999GF107991999999999999999999MA1102001999999MW1611REMMET070METAR ETNT 031320Z 22013KT 9999 -RA BKN012 BKN032 07/05 Q1020 GRN GRN;
0193101260999992007010314004+53550+007667FM-12+0012ETNT V0202201N007010030019N0050001N1+00671+00541101971ADDAY161999AY221999GA1051+003001081GF108991071081004501999999MA1999999101821MD1710381+9999MW1611REMSYN088AAXX  03141 10126 41450 82207 10067 20054 30182 40197 57038 76162 878// 333 85810 87625;
0169101260999992007010314064+53550+007667FM-16+0012ETNT V0202201N007710030019N0045001N1+00701+00501999999ADDGA1071+003001999GA2071+006301999GF107991999999999999999999MA1101901999999MW1101MW2631REMMET072SPECI ETNT 031406Z 22015KT 4500 RA BR BKN010 BKN021 07/05 Q1019 GRN GRN;
0179101260999992007010314204+53550+007667FM-15+0012ETNT V0202201N007210030019N0045001N1+00601+00501999999ADDGA1071+003001999GA2071+004801999GF107991999999999999999999MA1101901999999MW1101MW2631REMMET082METAR ETNT 031420Z 22014KT 4500 RA BR BKN010 BKN016 06/05 Q1019 GRN GRN TEMPO YLO;
0187101260999992007010314304+53550+007667FM-15+0012ETNT V0202201N006210024019N0035001N1+00601+00501999999ADDGA1041+001501999GA2071+002401999GF107991999999999999999999MA1101901999999MW1101MW2531MW3631REMMET084SPECI ETNT 031430Z 22012KT 3500 RADZ BR SCT005 BKN008 06/05 Q1019 YLO GRN TEMPO YLO;
0187101260999992007010314454+53550+007667FM-15+0012ETNT V0202201N007210015019N0028001N1+00601+00501999999ADDGA1071+001501999GA2071+002401999GF107991999999999999999999MA1101901999999MW1101MW2531MW3631REMMET084SPECI ETNT 031445Z 22014KT 2800 RADZ BR BKN005 BKN008 06/05 Q1019 YLO GRN TEMPO YLO;
0193101260999992007010315204+53550+007667FM-15+0012ETNT V0202201N007210015019N0021001N1+00601+00601999999ADDGA1071+001501999GA2071+002401999GF107991999999999999999999MA1101801999999MW1101MW2511MW3611REMMET090METAR ETNT 031520Z 22014KT 2100 -DZRA BR BKN005 BKN008 06/06 Q1018 RERA YLO GRN TEMPO YLO;
0193101260999992007010316004+53550+007667FM-12+0012ETNT V0202201N007010015019N0028001N1+00631+00571101831ADDAY161999AY261999GA1061+001501071GF108991071071001501999999MA1999999101681MD1710231+9999MW1581REMSYN088AAXX  03161 10126 41228 82207 10063 20057 30168 40183 57023 75866 877// 333 86705 87707;
0188101260999992007010316204+53550+007667FM-15+0012ETNT V0202201N007210015019N0037001N1+00601+00601999999ADDGA1071+001501999GA2071+002101999GF107991999999999999999999MA1101691999999MW1101MW2511MW3611REMMET085METAR ETNT 031620Z 22014KT 3700 -DZRA BR BKN005 BKN007 06/06 Q1017 YLO GRN TEMPO YLO;
0193101260999992007010317004+53550+007667FM-12+0012ETNT V0202301N006010015019N0040001N1+00671+00611101661ADDAY161999AY261999GA1061+001501071GF108991071071001501999999MA1999999101511MD1710311+9999MW1581REMSYN088AAXX  03171 10126 41240 82306 10067 20061 30151 40166 57031 75866 877// 333 86705 87707;
0179101260999992007010317204+53550+007667FM-15+0012ETNT V0202301N007210012019N0035001N1+00701+00601999999ADDGA1071+001201999GA2071+002101999GF107991999999999999999999MA1101591999999MW1101MW2531REMMET082METAR ETNT 031720Z 23014KT 3500 DZ BR BKN004 BKN007 07/06 Q1016 YLO GRN TEMPO YLO;
0167101260999992007010318204+53550+007667FM-15+0012ETNT V0202301N006710012019N0035001N1+00701+00701999999ADDGA1071+001201999GF107991999999999999999999MA1101491999999MW1101MW2531OC101181REMMET078METAR ETNT 031820Z 23013G23KT 3500 DZ BR BKN004 07/07 Q1015 YLO YLO TEMPO GRN;
0187101260999992007010319004+53550+007667FM-12+0012ETNT V0202301N008010012019N0035001N1+00741+00701101471ADDAY151999AY251999GA1071+001201071GF108991071071001501999999MA1999999101321MD1710361+9999MW1531REMSYN082AAXX  03191 10126 41235 82308 10074 20070 30132 40147 57036 75355 877// 333 87704;
0156101260999992007010319204+53550+007667FM-15+0012ETNT V0202301N008210015019N0040001N1+00801+00701999999ADDGA1071+001501999GF107991999999999999999999MA1101391999999MW1101MW2531REMMET075METAR ETNT 031920Z 23016KT 4000 DZ BR BKN005 08/07 Q1014 YLO YLO TEMPO GRN;
0199101260999992007010320004+53550+007667FM-12+0012ETNT V0202201N007010015019N0040001N1+00761+00711101361ADDAY151999AY251999GA1071+001501071GF108991071071001501999999MA1999999101211MD1710301+9999MW1531REMSYN094AAXX  03201 10126 41240 82207 10076 20071 30121 40136 57030 75355 877// 333 87705 91013 91113;
0154101260999992007010320204+53550+007667FM-15+0012ETNT V0202201N008210015019N0034001N1+00801+00701999999ADDGA1071+001501999GF107991999999999999999999MA1101291999999MW1101MW2531REMMET073METAR ETNT 032020Z 22016KT 3400 DZ BR BKN005 08/07 Q1013 YLO FCST CANCEL;
0153101260999992007010321204+53550+007667FM-15+0012ETNT V0202201N007710015019N0035001N1+00801+00701999999ADDGA1071+001501999GF107991999999999999999999MA1101081999999MW1101MW2531OC101291REMMET064METAR ETNT 032120Z 22015G25KT 3500 DZ BR BKN005 08/07 Q1011 YLO;
0199101260999992007010322004+53550+007667FM-12+0012ETNT V0202201N008010015019N0040001N1+00771+00711101091ADDAY151999AY251999GA1071+001501071GF108991071071001501999999MA1999999100941MD1710381+9999MW1531REMSYN094AAXX  03221 10126 41240 82208 10077 20071 30094 40109 57038 75355 877// 333 87705 91014 91114;
0153101260999992007010322204+53550+007667FM-15+0012ETNT V0202201N008210015019N0035001N1+00801+00701999999ADDGA1071+001501999GF107991999999999999999999MA1101021999999MW1101MW2531OC101391REMMET064METAR ETNT 032220Z 22016G27KT 3500 DZ BR BKN005 08/07 Q1010 YLO;
0193101260999992007010323004+53550+007667FM-12+0012ETNT V0202201N009010015019N0045001N1+00771+00711100971ADDAY151999AY251999GA1071+001501071GF108991071071001501999999MA1999999100821MD1710391+9999MW1511REMSYN088AAXX  03231 10126 41245 82209 10077 20071 30082 40097 57039 75155 877// 333 87705 91114;
0129101260999992007010323204+53550+007667FM-15+0012ETNT V0202201N009310021019N0060001N1+00801+00701999999ADDGA1071+002101999GF107991999999999999999999MA1100911999999REMMET060METAR ETNT 032320Z 22018KT 6000 BKN007 08/07 Q1009 REDZ GRN;
0134101260999992007010400204+53550+007667FM-15+0012ETNT V0202201N009310027019N0060001N1+00801+00701999999ADDGA1071+002701999GF107991999999999999999999MA1100811999999MW1511REMMET059METAR ETNT 040020Z 22018KT 6000 -DZ BKN009 08/07 Q1008 GRN;
0193101260999992007010401004+53550+007667FM-12+0012ETNT V0202201N009010027019N0060001N1+00811+00681100701ADDAY151999AY251999GA1071+002701071GF108991071071002501999999MA1999999100551MD1710391+9999MW1511REMSYN088AAXX  04011 10126 41356 82209 10081 20068 30055 40070 57039 75155 877// 333 87709 91114;
0147101260999992007010401204+53550+007667FM-15+0012ETNT V0202201N009310039019N0090001N1+00801+00701999999ADDGA1041+002701999GA2071+003901999GF107991999999999999999999MA1100611999999REMMET062METAR ETNT 040120Z 22018KT 9000 SCT009 BKN013 08/07 Q1006 GRN;
0221101260999992007010402004+53550+007667FM-12+0012ETNT V0202201N009010042019N0100001N1+00821+00681100631ADDAY121999AY221999GA1031+002701071GA2071+004201061GF108991071051002501999999MA1999999100481MD1710341+9999MW1201REMSYN100AAXX  04021 10126 41360 82209 10082 20068 30048 40063 57034 72022 875// 333 83709 87614 91015 91115;
0135101260999992007010402204+53550+007667FM-15+0012ETNT V0202201N010310030019N0112651N1+00801+00701999999ADDGA1071+003001999GF107991999999999999999999MA1100511999999OC101591REMMET058METAR ETNT 040220Z 22020G31KT 9999 BKN010 08/07 Q1005 GRN;
0124101260999992007010403204+53550+007667FM-15+0012ETNT V0202201N009310027019N0112651N1+00801+00701999999ADDGA1071+002701999GF107991999999999999999999MA1100411999999REMMET055METAR ETNT 040320Z 22018KT 9999 BKN009 08/07 Q1004 GRN;
0193101260999992007010404004+53550+007667FM-12+0012ETNT V0202201N009010027019N0100001N1+00811+00701100361ADDAY161999AY221999GA1071+002701071GF108991071071002501999999MA1999999100211MD1310341+9999MW1581REMSYN088AAXX  04041 10126 41360 82209 10081 20070 30021 40036 53034 75862 877// 333 87709 91115;
0184101260999992007010404204+53550+007667FM-15+0012ETNT V0202201N010810027019N0080001N1+00801+00701999999ADDGA1071+002701999GA2071+003901999GF107991999999999999999999MA1100201999999MW1801OC101651REMMET085METAR ETNT 040420Z 22021G32KT 8000 -SHRA BKN009 BKN013 08/07 Q1002 GRN WHT TEMPO GRN;
0251101260999992007010405004+53550+007667FM-12+0012ETNT V0202201N009010027019N0150001N1+00821+00721100281ADDAY121999AY221999GA1051+002701071GA2071+004201061GF108991071051002501999999MA1999999100131MD1710351+9999MW1251OA149999999REMSYN100AAXX  04051 10126 41365 82209 10082 20072 30013 40028 57035 72522 875// 333 85709 87614 91116 91211;EQDQ01  00822WGOSPD
0150101260999992007010405204+53550+007667FM-15+0012ETNT V0202201N008210030019N0090001N1+00801+00701999999ADDGA1071+003001999GF107991999999999999999999MA1100101999999MW1801REMMET075METAR ETNT 040520Z 22016KT 9000 -SHRA BKN010 08/07 Q1001 GRN WHT TEMPO GRN;
0179101260999992007010406204+53550+007667FM-15+0012ETNT V0202201N007210021019N0060001N1+00801+00801999999ADDGA1021+001801999GA2071+002101999GF107991999999999999999999MA1100001999999MW1511MW2611REMMET082METAR ETNT 040620Z 22014KT 6000 -RADZ FEW006 BKN007 08/08 Q1000 GRN WHT TEMPO GRN;
0187101260999992007010406534+53550+007667FM-16+0012ETNT V0202301N007210024019N0045001N1+00901+00801999999ADDGA1021+001801999GA2071+002401999GF107991999999999999999999MA1100001999999MW1101MW2531MW3631REMMET084SPECI ETNT 040653Z 23014KT 4500 RADZ BR FEW006 BKN008 09/08 Q1000 GRN WHT TEMPO GRN;
0257101260999992007010407004+53550+007667FM-12+0012ETNT V0202301N008010024019N0050001N1+00861+00791100051ADDAY161999AY261999GA1021+001801071GA2071+002401071GF108991071071002501999999MA1999999099901MD1710311+9999MW1581REMSYN136AAXX  04071 10126 41350 82308 10086 20079 39990 40005 57031 75866 877// 333 82706 87708 555 BOT 10069 20070 30074 40066 50080 999 31///;
0193101260999992007010407044+53550+007667FM-16+0012ETNT V0202301N007710030019N0050001N1+00901+00801999999ADDGA1041+002401999GA2071+003001999GF107991999999999999999999MA1100001999999MW1101MW2511MW3611REMMET090SPECI ETNT 040704Z 23015KT 5000 -RADZ BR SCT008 BKN010 09/08 Q1000 RERA GRN WHT TEMPO GRN;
0187101260999992007010407204+53550+007667FM-15+0012ETNT V0202301N007710030019N0050001N1+00901+00801999999ADDGA1041+002401999GA2071+003001999GF107991999999999999999999MA1100001999999MW1101MW2531MW3631REMMET084METAR ETNT 040720Z 23015KT 5000 RADZ BR SCT008 BKN010 09/08 Q1000 GRN WHT TEMPO GRN;
0221101260999992007010408004+53550+007667FM-12+0012ETNT V0202401N008010030019N0060001N1+00911+00821100041ADDAY161999AY261999GA1051+003001071GA2071+005101061GF108991071051004501999999MA1999999099891MD1710241+9999MW1581REMSYN100AAXX  04081 10126 41456 82408 10091 20082 39989 40004 57024 75866 875// 333 85710 87617 91014 91114;
0199101260999992007010408204+53550+007667FM-15+0012ETNT V0202401N007710033019N0080001N1+00901+00801999999ADDGA1021+002101999GA2071+003301999GA3071+004801999GF107991999999999999999999MA1100001999999MW1611REMMET092METAR ETNT 040820Z 24015KT 8000 -RA FEW007 BKN011 BKN016 09/08 Q1000 RERA GRN WHT TEMPO GRN;
0184101260999992007010409204+53550+007667FM-15+0012ETNT V0202501N007710051019N0112651N1+00901+00801999999ADDGA1041+002701999GA2071+005101999GA3071+011401999GF107991999999999999999999MA1100001999999REMMET083METAR ETNT 040920Z 25015KT 9999 SCT009 BKN017 BKN038 09/08 Q1000 WHT WHT BECMG BLU;
0193101260999992007010410004+53550+007667FM-12+0012ETNT V0202601N00801009001CN0200001N1+00951+00781100061ADDAY121999AY221999GA1021+004201081GF107991071081004501999999MA1999999099911MD1310011+9999MW1251REMSYN088AAXX  04101 10126 41470 72608 10095 20078 39991 40006 53001 72522 878// 333 82814 87618;
0161101260999992007010410204+53550+007667FM-15+0012ETNT V0202501N008210060019N0112651N1+00901+00701999999ADDGA1021+004801999GA2071+006001999GF107991999999999999999999MA1100001999999REMMET076METAR ETNT 041020Z 25016KT 9999 FEW016 BKN020 09/07 Q1000 WHT WHT BECMG BLU;
0209101260999992007010411004+53550+007667FM-12+0012ETNT V0202601N008010060019N0200001N1+00921+00681100061ADDGA1021+004501081GA2051+006001061GA3071+008701061GF107991071081004501999999MA1999999099911MD1310021+9999REMSYN094AAXX  04111 10126 42470 72608 10092 20068 39991 40006 53002 878// 333 82815 85620 87629 91113;
0161101260999992007010411204+53550+007667FM-15+0012ETNT V0202501N007210060019N0112651N1+00901+00701999999ADDGA1021+004501999GA2071+006001999GF107991999999999999999999MA1100001999999REMMET076METAR ETNT 041120Z 25014KT 9999 FEW015 BKN020 09/07 Q1000 WHT WHT BECMG BLU;
0190101260999992007010412024+53550+007667FM-16+0012ETNT V0202501N008210054019N0080001N1+00901+00701999999ADDGA1021+003901999GA2071+005401999GF107991999999999999999999MA1100001999999MW1511MW2611OC101341REMMET085SPECI ETNT 041202Z 25016G26KT 8000 -RADZ FEW013 BKN018 09/07 Q1000 WHT BLU TEMPO GRN;
0221101260999992007010412204+53550+007667FM-15+0012ETNT V0202501N008210042019N0037001N1+00901+00701999999ADDGA1021+003001999GA2071+004201999GA3071+007201999GF107991999999999999999999MA1100001999999MW1101MW2531MW3631OC101341REMMET094METAR ETNT 041220Z 25016G26KT 3700 RADZ BR FEW010 BKN014 BKN024 09/07 Q1000 GRN BLU TEMPO GRN;
0187101260999992007010412464+53550+007667FM-16+0012ETNT V0202501N007710039019N0050001N1+00801+00701999999ADDGA1071+003901999GA2071+005401999GF107991999999999999999999MA1100001999999MW1101MW2531MW3631REMMET084SPECI ETNT 041246Z 25015KT 5000 RADZ BR BKN013 BKN018 08/07 Q1000 GRN BLU TEMPO GRN;
0221101260999992007010413004+53550+007667FM-12+0012ETNT V0202501N008010039019N0050001N1+00841+00721100031ADDAY161999AY261999GA1051+003901081GA2071+005401061GF108991071081004501999999MA1999999099881MD1810031+9999MW1581REMSYN100AAXX  04131 10126 41450 82508 10084 20072 39988 40003 58003 75866 878// 333 85813 87618 91015 91115;
0184101260999992007010413204+53550+007667FM-15+0012ETNT V0202601N010310042019N0070001N1+00901+00701999999ADDGA1021+003301999GA2071+004201999GF107991999999999999999999MA1100001999999MW1511MW2611REMMET087METAR ETNT 041320Z 26020KT 7000 -RADZ FEW011 BKN014 09/07 Q1000 RERA GRN BLU TEMPO GRN;
0257101260999992007010414004+53550+007667FM-12+0012ETNT V0202601N011010039019N0100001N1+00881+00701100041ADDAY161999AY221999GA1051+003901081GA2071+006901061GF108991071081004501999999MA1999999099891MD1510021+9999MW1211OA149999999REMSYN106AAXX  04141 10126 41460 82611 10088 20070 39989 40004 55002 72162 878// 333 85813 87623 91016 91117 91212;EQDQ01  00882WGOSPD
0190101260999992007010414204+53550+007667FM-15+0012ETNT V0202701N010810042019N0112651N1+00901+00701999999ADDGA1071+004201999GA2071+007801999GF107991999999999999999999MA1100001999999MW1511MW2611OC101591REMMET085METAR ETNT 041420Z 27021G31KT 9999 -RADZ BKN014 BKN026 09/07 Q1000 GRN BLU TEMPO GRN;
0179101260999992007010415204+53550+007667FM-15+0012ETNT V0202701N010310033019N0112651N1+00901+00701999999ADDGA1071+003301999GA2071+007201999GF107991999999999999999999MA1100001999999MW1511MW2611REMMET082METAR ETNT 041520Z 27020KT 9999 -RADZ BKN011 BKN024 09/07 Q1000 GRN BLU TEMPO GRN;
0251101260999992007010416004+53550+007667FM-12+0012ETNT V0202701N011010042019N0100001N1+00851+00681100091ADDAY161999AY261999GA1051+004201081GA2071+010501061GF107991071081004501999999MA1999999099941MD1210061+9999MW1801OA149999999REMSYN100AAXX  04161 10126 41460 72711 10085 20068 39994 40009 52006 78066 878// 333 85814 87635 91117 91211;EQDQ01  00882WGOSPD
0169101260999992007010416204+53550+007667FM-15+0012ETNT V0202701N011810039019N0050001N1+00901+00701999999ADDGA1071+003901999GF107991999999999999999999MA1100101999999MW1101MW2811OC101701REMMET080METAR ETNT 041620Z 27023G33KT 5000 SHRA BR BKN013 09/07 Q1001 GRN BLU TEMPO GRN;
0229101260999992007010417004+53550+007667FM-12+0012ETNT V0202701N009010027019N0070001N1+00831+00701100151ADDAY181999AY261999GA1071+002701071GF108991071071002501999999MA1999999100001MD1210111+9999MW1581OA149999999REMSYN094AAXX  04171 10126 41357 82709 10083 20070 30000 40015 52011 75886 877// 333 87709 91117 91212;EQDQ01  00882WGOSPD
0164101260999992007010417204+53550+007667FM-15+0012ETNT V0202701N010310027019N0050001N1+00801+00701999999ADDGA1071+002701999GF107991999999999999999999MA1100101999999MW1101MW2531MW3631REMMET077METAR ETNT 041720Z 27020KT 5000 RADZ BR BKN009 08/07 Q1001 GRN WHT TEMPO GRN;
0181101260999992007010417394+53550+007667FM-16+0012ETNT V0202801N010810105019N0040001N1+00801+00701999999ADDGA1041+003601999GA2071+010501999GF107991999999999999999999MA1100201999999MW1101MW2811REMMET084SPECI ETNT 041739Z 28021KT 4000 SHRA BR SCT012 BKN035 08/07 Q1002 GRN WHT TEMPO GRN;
0166101260999992007010418024+53550+007667FM-16+0012ETNT V0202801N007710150019N0112651N1+00801+00501999999ADDGA1021+004201999GA2071+015001999GF107991999999999999999999MA1100201999999REMMET081SPECI ETNT 041802Z 28015KT 9999 FEW014 BKN050 08/05 Q1002 RERA BLU BLU TEMPO GRN;
0166101260999992007010418204+53550+007667FM-15+0012ETNT V0202801N007210180019N0112651N1+00801+00501999999ADDGA1021+009001999GA2071+018001999GF107991999999999999999999MA1100201999999REMMET081METAR ETNT 041820Z 28014KT 9999 FEW030 BKN060 08/05 Q1002 RERA BLU BLU TEMPO GRN;
0193101260999992007010419004+53550+007667FM-12+0012ETNT V0202701N00901007501CN0200001N1+00821+00531100341ADDAY121999AY221999GA1031+009001061GF107991071051008001999999MA1999999100191MD1210251+9999MW1211REMSYN088AAXX  04191 10126 41570 72709 10082 20053 30019 40034 52025 72122 875// 333 83630 87656;
0184101260999992007010419204+53550+007667FM-15+0012ETNT V0202801N00771007501CN0112651N1+00801+00501999999ADDGA1021+006301999GA2041+007501999GA3071+021001999GF107991999999999999999999MA1100311999999REMMET083METAR ETNT 041920Z 28015KT 9999 FEW021 SCT025 BKN070 08/05 Q1003 BLU BLU TEMPO GRN;
0187101260999992007010420004+53550+007667FM-12+0012ETNT V0202801N008010096019N0180001N1+00831+00551100441ADDGA1021+006301081GA2041+009601061GF107991071081008001999999MA1999999100291MD1210291+9999REMSYN088AAXX  04201 10126 42568 72808 10083 20055 30029 40044 52029 878// 333 82821 84632 87656;
0164101260999992007010420204+53550+007667FM-15+0012ETNT V0202901N009310090019N0112651N1+00801+00501999999ADDGA1041+006301021GA2071+009001999GF107991999999999999999999MA1100411999999REMMET079METAR ETNT 042020Z 29018KT 9999 SCT021TCU BKN030 08/05 Q1004 BLU BLU TEMPO GRN;
0174101260999992007010421204+53550+007667FM-15+0012ETNT V0202901N009310105019N0112651N1+00801+00601999999ADDGA1041+005101021GA2071+010501999GF107991999999999999999999MA1100511999999MW1801REMMET083METAR ETNT 042120Z 29018KT 9999 -SHRA SCT017TCU BKN035 08/06 Q1005 BLU FCST CANCEL;
0237101260999992007010422004+53550+007667FM-12+0012ETNT V0202801N009010045019N0150001N1+00811+00611100571ADDAY181999AY221999GA1021+003301071GA2031+004501081GA3071+008401061GF107991071081004501999999MA1999999100421MD1210231+9999MW1251REMSYN100AAXX  04221 10126 41465 72809 10081 20061 30042 40057 52023 72582 878// 333 82711 83815 87628 91113;
0150101260999992007010422204+53550+007667FM-15+0012ETNT V0202801N008710084019N0112651N1+00801+00601999999ADDGA1041+003901021GA2071+008401999GF107991999999999999999999MA1100611999999REMMET065METAR ETNT 042220Z 28017KT 9999 SCT013TCU BKN028 08/06 Q1006 BLU;
0161101260999992007010422454+53550+007667FM-15+0012ETNT V0202801N009310036019N0045001N1+00801+00601999999ADDGA1021+002401999GA2071+003601021GF107991999999999999999999MA1100611999999MW1811REMMET070SPECI ETNT 042245Z 28018KT 4500 SHRA FEW008 BKN012TCU 08/06 Q1006 GRN;
0237101260999992007010423004+53550+007667FM-12+0012ETNT V0202901N009010036019N0045001N1+00811+00661100671ADDAY181999AY221999GA1021+002401071GA2051+003601081GA3071+006001061GF107991071081002501999999MA1999999100521MD1210231+9999MW1811REMSYN100AAXX  04231 10126 41345 72909 10081 20066 30052 40067 52023 78182 878// 333 82708 85812 87620 91113;
0190101260999992007010423024+53550+007667FM-16+0012ETNT V0202801N009310036019N0060001N1+00801+00701999999ADDGA1021+002701999GA2071+003601021GA3071+006301999GF107991999999999999999999MA1100711999999MW1801REMMET083SPECI ETNT 042302Z 28018KT 6000 -SHRA FEW009 BKN012TCU BKN021 08/07 Q1007 RERA GRN;
0190101260999992007010423204+53550+007667FM-15+0012ETNT V0202801N009810036019N0060001N1+00801+00701999999ADDGA1021+002401999GA2071+003601021GA3071+008401999GF107991999999999999999999MA1100711999999MW1801REMMET083METAR ETNT 042320Z 28019KT 6000 -SHRA FEW008 BKN012TCU BKN028 08/07 Q1007 RERA GRN;
0174101260999992007010423284+53550+007667FM-16+0012ETNT V0202801N010310033019N0040001N1+00801+00701999999ADDGA1021+002401999GA2071+003301999GF107991999999999999999999MA1100711999999MW1101MW2511MW3611REMMET071SPECI ETNT 042328Z 28020KT 4000 -RADZ BR FEW008 BKN011 08/07 Q1007 GRN;
0147101260999992007010500204+53550+007667FM-15+0012ETNT V0202901N008210036019N0060001N1+00801+00701999999ADDGA1071+003601999GA2071+011701999GF107991999999999999999999MA1100811999999REMMET062METAR ETNT 050020Z 29016KT 6000 BKN012 BKN039 08/07 Q1008 GRN;
0147101260999992007010500464+53550+007667FM-16+0012ETNT V0202901N008210102019N0112651N1+00901+00701999999ADDGA1041+003601999GA2071+010201999GF107991999999999999999999MA1100811999999REMMET062SPECI ETNT 050046Z 29016KT 9999 SCT012 BKN034 09/07 Q1008 BLU;
0187101260999992007010501004+53550+007667FM-12+0012ETNT V0202901N008010102019N0120001N1+00851+00721100861ADDGA1031+003601071GA2071+010201061GF107991071051004501999999MA1999999100711MD1710291+9999REMSYN088AAXX  05011 10126 42462 72908 10085 20072 30071 40086 57029 875// 333 83712 87634 91113;
0147101260999992007010501204+53550+007667FM-15+0012ETNT V0202901N008710030019N0112651N1+00801+00701999999ADDGA1071+003001999GA2071+012301999GF107991999999999999999999MA1100911999999REMMET062METAR ETNT 050120Z 29017KT 9999 BKN010 BKN041 08/07 Q1009 GRN;
0165101260999992007010502004+53550+007667FM-12+0012ETNT V0202901N008010027019N0120001N1+00821+00661100951ADDGA1051+002701071GF107991071051002501999999MA1999999100801MD1710281+9999REMSYN082AAXX  05021 10126 42362 72908 10082 20066 30080 40095 57028 875// 333 85709 87632;
0170101260999992007010502204+53550+007667FM-15+0012ETNT V0202901N008210048019N0112651N1+00801+00701999999ADDGA1021+003301999GA2071+004801999GA3071+010501999GF107991999999999999999999MA1100911999999REMMET069METAR ETNT 050220Z 29016KT 9999 FEW011 BKN016 BKN035 08/07 Q1009 WHT;
0147101260999992007010503204+53550+007667FM-15+0012ETNT V0202801N007210120019N0112651N1+00801+00601999999ADDGA1041+004501999GA2071+012001999GF107991999999999999999999MA1101021999999REMMET062METAR ETNT 050320Z 28014KT 9999 SCT015 BKN040 08/06 Q1010 BLU;
0193101260999992007010504004+53550+007667FM-12+0012ETNT V0202801N00801007501CN0100001N1+00821+00621101141ADDAY121999AY221999GA1031+006601061GF107991071051008001999999MA1999999100991MD1210281+9999MW1211REMSYN088AAXX  05041 10126 41560 72808 10082 20062 30099 40114 52028 72122 875// 333 83622 87638;
0159101260999992007010504204+53550+007667FM-15+0012ETNT V0202801N006210114019N0080001N1+00801+00601999999ADDGA1041+003301999GA2071+011401999GF107991999999999999999999MA1101081999999MW1801REMMET068METAR ETNT 050420Z 28012KT 8000 -SHRA SCT011 BKN038 08/06 Q1011 BLU;
0193101260999992007010505004+53550+007667FM-12+0012ETNT V0202801N00701009001CN0120001N1+00781+00601101161ADDAY121999AY221999GA1031+004201081GF107991071081004501999999MA1999999101011MD1210211+9999MW1251REMSYN088AAXX  05051 10126 41462 72807 10078 20060 30101 40116 52021 72522 878// 333 83814 87628;
0173101260999992007010505204+53550+007667FM-15+0012ETNT V0202801N005710090019N0112651N1+00801+00601999999ADDGA1021+005401999GA2071+009001999GF107991999999999999999999MA1101081999999MW1801REMMET082METAR ETNT 050520Z 28011KT 9999 -SHRA FEW018 BKN030 08/06 Q1011 BLU BLU TEMPO GRN;
0161101260999992007010506204+53550+007667FM-15+0012ETNT V0202801N005710111019N0112651N1+00801+00501999999ADDGA1021+004801999GA2071+011101999GF107991999999999999999999MA1101191999999REMMET076METAR ETNT 050620Z 28011KT 9999 FEW016 BKN037 08/05 Q1012 BLU BLU TEMPO GRN;
0207101260999992007010507004+53550+007667FM-12+0012ETNT V0202801N007010111019N0250001N1+00801+00491101251ADDGA1071+011101061GF107991071051012501999999MA1999999101101MD1310111+9999REMSYN124AAXX  05071 10126 42675 72807 10080 20049 30110 40125 53011 875// 333 87637 555 BOT 10066 20070 30070 40071 50080 999 31///;
0161101260999992007010507204+53550+007667FM-15+0012ETNT V0202601N004610120019N0112651N1+00801+00501999999ADDGA1021+008401999GA2071+012001999GF107991999999999999999999MA1101291999999REMMET076METAR ETNT 050720Z 26009KT 9999 FEW028 BKN040 08/05 Q1013 BLU BLU TEMPO GRN;
0165101260999992007010508004+53550+007667FM-12+0012ETNT V0202501N004010120019N0150001N1+00721+00541101351ADDGA1021+007201081GF107991071081008001999999MA1999999101201MD1310191+9999REMSYN082AAXX  05081 10126 42565 72504 10072 20054 30120 40135 53019 878// 333 82824 87640;
0161101260999992007010508204+53550+007667FM-15+0012ETNT V0202501N004110105019N0112651N1+00701+00601999999ADDGA1041+005401999GA2071+010501999GF107991999999999999999999MA1101291999999REMMET076METAR ETNT 050820Z 25008KT 9999 SCT018 BKN035 07/06 Q1013 BLU BLU TEMPO GRN;
0174101260999992007010509204+53550+007667FM-15+0012ETNT V0202401N00511045001CN0112651N1+00801+00601999999ADDGA1021+006001999GA2041+045001999GA3071+066001999GF107991999999999999999999MA1101391999999REMMET073METAR ETNT 050920Z 24010KT 9999 FEW020 SCT150 BKN220 08/06 Q1014 BLU+BLU;
0165101260999992007010510004+53550+007667FM-12+0012ETNT V0202401N00501030001CN0130001N1+00771+00591101421ADDGA1011+003301081GF107991011011004501031999MA1999999101271MD1210171+9999REMSYN082AAXX  05101 10126 42463 72405 10077 20059 30127 40142 52017 8113/ 333 81811 87357;
0171101260999992007010510204+53550+007667FM-15+0012ETNT V0202301N004610030019N0112651N1+00801+00601999999ADDGA1071+003001999GA2071+005101999GF107991999999999999999999MA1101391999999MW1611REMMET080METAR ETNT 051020Z 23009KT 9999 -RA BKN010 BKN017 08/06 Q1014 GRN BLU TEMPO GRN;
0193101260999992007010511004+53550+007667FM-12+0012ETNT V0202301N005010027019N0100001N1+00761+00631101441ADDAY161999AY261999GA1051+002701081GF108991071081004501999999MA1999999101291MD1210091+9999MW1611REMSYN088AAXX  05111 10126 41460 82305 10076 20063 30129 40144 52009 76166 878// 333 85809 87646;
0171101260999992007010511204+53550+007667FM-15+0012ETNT V0202301N004110030019N0080001N1+00801+00701999999ADDGA1071+003001999GA2071+011401999GF107991999999999999999999MA1101391999999MW1611REMMET080METAR ETNT 051120Z 23008KT 8000 -RA BKN010 BKN038 08/07 Q1014 GRN BLU TEMPO GRN;
0148101260999992007010512204+53550+007667FM-15+0012ETNT V0202301N005110021019N0070001N1+00801+00701999999ADDGA1071+002101999GF107991999999999999999999MA1101291999999MW1611REMMET073METAR ETNT 051220Z 23010KT 7000 -RA BKN007 08/07 Q1013 GRN BLU TEMPO GRN;
0193101260999992007010513004+53550+007667FM-12+0012ETNT V0202201N004010021019N0070001N1+00811+00721101351ADDAY161999AY221999GA1051+002101071GF108991081051002501999999MA1999999101201MD1810071+9999MW1211REMSYN088AAXX  05131 10126 41357 82204 10081 20072 30120 40135 58007 72162 885// 333 85707 87618;
0159101260999992007010513204+53550+007667FM-15+0012ETNT V0202201N005110021019N0070001N1+00801+00701999999ADDGA1071+002101999GA2071+005401999GF107991999999999999999999MA1101291999999REMMET074METAR ETNT 051320Z 22010KT 7000 BKN007 BKN018 08/07 Q1013 GRN FCST CANCEL;
0251101260999992007010514004+53550+007667FM-12+0012ETNT V0202201N005010024019N0070001N1+00821+00701101351ADDAY121999AY221999GA1051+002401071GA2071+004501061GF108991081051002501999999MA1999999101201MD1810091+9999MW1101REMSYN130AAXX  05141 10126 41357 82205 10082 20070 30120 40135 58009 71022 885// 333 85708 87615 555 BOT 10071 20072 30070 40071 999 31///;
0147101260999992007010514204+53550+007667FM-15+0012ETNT V0202201N004610054019N0060001N1+00801+00701999999ADDGA1041+002701999GA2071+005401999GF107991999999999999999999MA1101291999999REMMET062METAR ETNT 051420Z 22009KT 6000 SCT009 BKN018 08/07 Q1013 WHT;
0147101260999992007010515204+53550+007667FM-15+0012ETNT V0202301N005110054019N0060001N1+00801+00701999999ADDGA1041+003001999GA2071+005401999GF107991999999999999999999MA1101291999999REMMET062METAR ETNT 051520Z 23010KT 6000 SCT010 BKN018 08/07 Q1013 WHT;
0165101260999992007010516004+53550+007667FM-12+0012ETNT V0202301N00601002101CN0080001N1+00841+00701101351ADDGA1021+002701071GF108991071051002501999999MA1999999101201MD1410001+9999REMSYN082AAXX  05161 10126 42358 82306 10084 20070 30120 40135 54000 875// 333 82709 87616;
0147101260999992007010516204+53550+007667FM-15+0012ETNT V0202301N004110048019N0080001N1+00801+00701999999ADDGA1041+003001999GA2071+004801999GF107991999999999999999999MA1101291999999REMMET062METAR ETNT 051620Z 23008KT 8000 SCT010 BKN016 08/07 Q1013 WHT;
0159101260999992007010517004+53550+007667FM-12+0012ETNT V0202301N005010054019N0090001N1+00841+00731101351ADDGA1071+005401061GF108991071051002501999999MA1999999101201MD1410001+9999REMSYN076AAXX  05171 10126 42359 82305 10084 20073 30120 40135 54000 875// 333 87618;
0157101260999992007010517204+53550+007667FM-15+0012ETNT V0202401N006210042019N0112651N1+00901+00701999999ADDGA1041+003001999GA2071+004201999GF107991999999999999999999MA1101291999999MW1511REMMET066METAR ETNT 051720Z 24012KT 9999 -DZ SCT010 BKN014 09/07 Q1013 GRN;
0147101260999992007010518204+53550+007667FM-15+0012ETNT V0202401N005110036019N0112651N1+00901+00801999999ADDGA1041+002701999GA2071+003601999GF107991999999999999999999MA1101291999999REMMET062METAR ETNT 051820Z 24010KT 9999 SCT009 BKN012 09/08 Q1013 GRN;
0193101260999992007010519004+53550+007667FM-12+0012ETNT V0202401N00501002101CN0100001N1+00891+00781101351ADDAY151999AY221999GA1041+002701071GF108991071051002501999999MA1999999101201MD1410001+9999MW1201REMSYN088AAXX  05191 10126 41360 82405 10089 20078 30120 40135 54000 72052 875// 333 84709 87614;
0142101260999992007010519144+53550+007667FM-16+0012ETNT V0202401N005110027019N0035001N1+00901+00801999999ADDGA1071+002701999GF107991999999999999999999MA1101191999999MW1101MW2531REMMET061SPECI ETNT 051914Z 24010KT 3500 DZ BR BKN009 09/08 Q1012 YLO;
0142101260999992007010519204+53550+007667FM-15+0012ETNT V0202401N005710027019N0035001N1+00901+00801999999ADDGA1071+002701999GF107991999999999999999999MA1101191999999MW1101MW2531REMMET061METAR ETNT 051920Z 24011KT 3500 DZ BR BKN009 09/08 Q1012 YLO;
0148101260999992007010519484+53550+007667FM-16+0012ETNT V0202401N005710015019N0040001N1+00901+00801999999ADDGA1071+001501999GF107991999999999999999999MA1101291999999MW1101MW2511REMMET067SPECI ETNT 051948Z 24011KT 4000 -DZ BR BKN005 09/08 Q1013 REDZ YLO;
0187101260999992007010520004+53550+007667FM-12+0012ETNT V0202401N006010015019N0040001N1+00871+00801101311ADDAY151999AY251999GA1071+001501071GF108991071071001501999999MA1999999101161MD1810041+9999MW1511REMSYN082AAXX  05201 10126 41240 82406 10087 20080 30116 40131 58004 75155 877// 333 87705;
0148101260999992007010520204+53550+007667FM-15+0012ETNT V0202401N006210018019N0045001N1+00901+00801999999ADDGA1071+001801999GF107991999999999999999999MA1101291999999MW1101MW2511REMMET067METAR ETNT 052020Z 24012KT 4500 -DZ BR BKN006 09/08 Q1013 REDZ YLO;
0150101260999992007010520454+53550+007667FM-15+0012ETNT V0202501N005710012019N0025001N1+00901+00801999999ADDGA1071+001201999GF107991999999999999999999MA1101291999999MW1101MW2531MW3631REMMET063SPECI ETNT 052045Z 25011KT 2500 RADZ BR BKN004 09/08 Q1013 YLO;
0179101260999992007010521204+53550+007667FM-15+0012ETNT V0202501N006210018019N0045001N1+00901+00901999999ADDGA1041+001201999GA2071+001801999GF107991999999999999999999MA1101291999999MW1101MW2511MW3611REMMET076METAR ETNT 052120Z 25012KT 4500 -RADZ BR SCT004 BKN006 09/09 Q1013 RERA YLO;
0170101260999992007010521334+53550+007667FM-16+0012ETNT V0202501N005710018019N0070001N1+00901+00901999999ADDGA1021+001201999GA2071+001801999GF107991999999999999999999MA1101291999999MW1511MW2611REMMET073SPECI ETNT 052133Z 25011KT 7000 -RADZ FEW004 BKN006 09/09 Q1013 RERA YLO;
0187101260999992007010522004+53550+007667FM-12+0012ETNT V0202701N007010018019N0050001N1+00941+00881101331ADDAY161999AY261999GA1071+001801071GF108991071071002501999999MA1999999101181MD1510011+9999MW1581REMSYN082AAXX  05221 10126 41350 82707 10094 20088 30118 40133 55001 75866 877// 333 87706;
0170101260999992007010522204+53550+007667FM-15+0012ETNT V0202701N006210018019N0060001N1+00901+00901999999ADDGA1071+001801999GA2071+002401999GF107991999999999999999999MA1101291999999MW1511MW2611REMMET073METAR ETNT 052220Z 27012KT 6000 -RADZ BKN006 BKN008 09/09 Q1013 RERA YLO;
0193101260999992007010523004+53550+007667FM-12+0012ETNT V0202701N007010018019N0080001N1+00941+00861101361ADDAY161999AY261999GA1051+001801071GF108991071071002501999999MA1999999101211MD1310051+9999MW1581REMSYN088AAXX  05231 10126 41358 82707 10094 20086 30121 40136 53005 75866 877// 333 85706 87711;
0152101260999992007010523204+53550+007667FM-15+0012ETNT V0202701N005710021019N0090001N1+00901+00901999999ADDGA1071+002101999GA2071+007201999GF107991999999999999999999MA1101291999999REMMET067METAR ETNT 052320Z 27011KT 9000 BKN007 BKN024 09/09 Q1013 RERA GRN;
0147101260999992007010600204+53550+007667FM-15+0012ETNT V0202801N005110015019N0080001N1+00901+00901999999ADDGA1071+001501999GA2071+008401999GF107991999999999999999999MA1101291999999REMMET062METAR ETNT 060020Z 28010KT 8000 BKN005 BKN028 09/09 Q1013 YLO;
0165101260999992007010601004+53550+007667FM-12+0012ETNT V0202701N005010015019N0080001N1+00831+00771101391ADDGA1051+001501071GF107991071051001501999999MA1999999101241MD1210061+9999REMSYN082AAXX  06011 10126 42258 72705 10083 20077 30124 40139 52006 875// 333 85705 87628;
0170101260999992007010601044+53550+007667FM-16+0012ETNT V0202701N00411008401CN0080001N1+00801+00801999999ADDGA1021+001501999GA2041+008401999GA3071+024001999GF107991999999999999999999MA1101391999999REMMET069SPECI ETNT 060104Z 27008KT 8000 FEW005 SCT028 BKN080 08/08 Q1014 BLU;
0147101260999992007010601204+53550+007667FM-15+0012ETNT V0202701N003110240019N0080001N1+00801+00801999999ADDGA1021+018001999GA2071+024001999GF107991999999999999999999MA1101391999999REMMET062METAR ETNT 060120Z 27006KT 8000 FEW060 BKN080 08/08 Q1014 BLU;
0159101260999992007010602004+53550+007667FM-12+0012ETNT V0202701N003010270019N0080001N1+00761+00711101421ADDGA1051+027001031GF105991051001999999031001MA1999999101271MD1310061+9999REMSYN076AAXX  06021 10126 42958 52703 10076 20071 30127 40142 53006 85030 333 85359;
0156101260999992007010602204+53550+007667FM-15+0012ETNT V0202401N002610240019N0045001N1+00601+00601999999ADDGA1021+018001999GA2071+024001999GF107991999999999999999999MA1101391999999MW1101REMMET065METAR ETNT 060220Z 24005KT 4500 BR FEW060 BKN080 06/06 Q1014 GRN;
0156101260999992007010603204+53550+007667FM-15+0012ETNT V0202501N002610180019N0050001N1+00701+00701999999ADDGA1071+018001999GA2071+024001999GF107991999999999999999999MA1101391999999MW1101REMMET065METAR ETNT 060320Z 25005KT 5000 BR BKN060 BKN080 07/07 Q1014 WHT;
0193101260999992007010604004+53550+007667FM-12+0012ETNT V0202601N00201030001CN0050001N1+00741+00701101441ADDAY121999AY221999GA1011+018001061GF107991011051017501031999MA1999999101291MD1110051+9999MW1101REMSYN088AAXX  06041 10126 41750 72602 10074 20070 30129 40144 51005 71022 8153/ 333 81656 87358;
0133101260999992007010604204+53550+007667FM-15+0012ETNT V0202601N002610210019N0050001N1+00701+00701999999ADDGA1071+021001999GF107991999999999999999999MA1101391999999MW1101REMMET058METAR ETNT 060420Z 26005KT 5000 BR BKN070 07/07 Q1014 WHT;
0193101260999992007010605004+53550+007667FM-12+0012ETNT V0202501N00301030001CN0060001N1+00681+00651101471ADDAY121999AY221999GA1011+004801061GF107991011051004501031999MA1999999101321MD1210051+9999MW1101REMSYN088AAXX  06051 10126 41456 72503 10068 20065 30132 40147 52005 71022 8153/ 333 81616 87357;
0147101260999992007010605204+53550+007667FM-15+0012ETNT V0202501N003110750019N0070001N1+00601+00601999999ADDGA1021+021001999GA2071+075001999GF107991999999999999999999MA1101391999999REMMET062METAR ETNT 060520Z 25006KT 7000 FEW070 BKN250 06/06 Q1014 WHT;
0125101260999992007010606204+53550+007667FM-15+0012ETNT V0202501N003110750019N0112651N1+00601+00501999999ADDGA1071+075001999GF107991999999999999999999MA1101391999999REMMET056METAR ETNT 060620Z 25006KT 9999 BKN250 06/05 Q1014 BLU+;
0159101260999992007010607004+53550+007667FM-12+0012ETNT V0202501N004010690019N0150001N1+00571+00521101481ADDGA1071+069001021GF107991001001999999001061MA1999999101351MD1210061+9999REMSYN076AAXX  06071 10126 42965 72504 10057 20052 30135 40148 52006 80006 333 87273;
0124101260999992007010607204+53550+007667FM-15+0012ETNT V0202501N003610570019N0112651N1+00601+00501999999ADDGA1071+057001999GF107991999999999999999999MA1101491999999REMMET055METAR ETNT 060720Z 25007KT 9999 BKN190 06/05 Q1015 BLU;
0165101260999992007010608004+53550+007667FM-12+0012ETNT V0202401N004019999999N0100001N1+00571+00511101551ADDGA1021+042001031GF108991021001999999031021MA1999999101401MD1210081+9999REMSYN082AAXX  06081 10126 42960 82404 10057 20051 30140 40155 52008 82032 333 82364 87070;
0147101260999992007010608204+53550+007667FM-15+0012ETNT V0202401N004110540019N0112651N1+00601+00501999999ADDGA1021+042001999GA2071+054001999GF107991999999999999999999MA1101491999999REMMET062METAR ETNT 060820Z 24008KT 9999 FEW140 BKN180 06/05 Q1015 BLU;
0147101260999992007010609204+53550+007667FM-15+0012ETNT V0202401N004610450019N0112651N1+00601+00601999999ADDGA1021+004201999GA2071+045001999GF107991999999999999999999MA1101491999999REMMET062METAR ETNT 060920Z 24009KT 9999 FEW014 BKN150 06/06 Q1015 BLU;
0187101260999992007010610004+53550+007667FM-12+0012ETNT V0202401N004010450019N0100001N1+00661+00601101591ADDGA1021+003001071GA2061+045001031GF108991021061002501031021MA1999999101441MD1210091+9999REMSYN088AAXX  06101 10126 42360 82404 10066 20060 30144 40159 52009 82632 333 82710 86365 87068;
0171101260999992007010610204+53550+007667FM-15+0012ETNT V0202401N00411042001CN0112651N1+00701+00601999999ADDGA1021+003301999GA2041+042001999GA3071+063001999GF107991999999999999999999MA1101491999999REMMET070METAR ETNT 061020Z 24008KT 9999 FEW011 SCT140 BKN210 07/06 Q1015 BLU+;
0187101260999992007010611004+53550+007667FM-12+0012ETNT V0202301N004010390019N0100001N1+00711+00621101591ADDGA1021+003301071GA2041+039001031GF108991021061002501031021MA1999999101441MD1110041+9999REMSYN088AAXX  06111 10126 42360 82304 10071 20062 30144 40159 51004 82632 333 82711 84363 87071;
0171101260999992007010611204+53550+007667FM-15+0012ETNT V0202401N00411039001CN0112651N1+00701+00601999999ADDGA1021+003901999GA2041+039001999GA3071+066001999GF107991999999999999999999MA1101491999999REMMET070METAR ETNT 061120Z 24008KT 9999 FEW013 SCT130 BKN220 07/06 Q1015 BLU+;
0170101260999992007010612204+53550+007667FM-15+0012ETNT V0202301N004110390019N0112651N1+00701+00601999999ADDGA1021+003601999GA2071+039001999GA3081+069001999GF108991999999999999999999MA1101491999999REMMET069METAR ETNT 061220Z 23008KT 9999 FEW012 BKN130 OVC230 07/06 Q1015 BLU;
0165101260999992007010613004+53550+007667FM-12+0012ETNT V0202401N00401030001CN0130001N1+00731+00621101491ADDGA1021+002701071GF108991021061002501031999MA1999999101341MD1710101+9999REMSYN082AAXX  06131 10126 42363 82404 10073 20062 30134 40149 57010 8263/ 333 82709 87364;
0147101260999992007010613204+53550+007667FM-15+0012ETNT V0202301N003610390019N0112651N1+00701+00601999999ADDGA1041+003601999GA2071+039001999GF107991999999999999999999MA1101391999999REMMET062METAR ETNT 061320Z 23007KT 9999 SCT012 BKN130 07/06 Q1014 BLU;
0165101260999992007010614004+53550+007667FM-12+0012ETNT V0202201N00401030001CN0130001N1+00731+00621101441ADDGA1041+003001071GF108991041061002501031999MA1999999101291MD1710151+9999REMSYN082AAXX  06141 10126 42363 82204 10073 20062 30129 40144 57015 8463/ 333 84710 87363;
0171101260999992007010614204+53550+007667FM-15+0012ETNT V0202301N00361039001CN0112651N1+00701+00601999999ADDGA1021+008401999GA2041+039001999GA3071+069001999GF107991999999999999999999MA1101391999999REMMET070METAR ETNT 061420Z 23007KT 9999 FEW028 SCT130 BKN230 07/06 Q1014 BLU+;
0147101260999992007010615204+53550+007667FM-15+0012ETNT V0202101N003610240019N0090001N1+00701+00601999999ADDGA1021+003601999GA2071+024001999GF107991999999999999999999MA1101291999999REMMET062METAR ETNT 061520Z 21007KT 9000 FEW012 BKN080 07/06 Q1013 BLU;
0165101260999992007010616004+53550+007667FM-12+0012ETNT V0202201N00401030001CN0090001N1+00681+00591101351ADDGA1031+003001071GF108991031061002501031999MA1999999101201MD1710141+9999REMSYN082AAXX  06161 10126 42359 82204 10068 20059 30120 40135 57014 8363/ 333 83710 87364;
0147101260999992007010616204+53550+007667FM-15+0012ETNT V0202101N003610300019N0080001N1+00701+00601999999ADDGA1041+003001999GA2071+030001999GF107991999999999999999999MA1101291999999REMMET062METAR ETNT 061620Z 21007KT 8000 SCT010 BKN100 07/06 Q1013 BLU;
0187101260999992007010617004+53550+007667FM-12+0012ETNT V0202201N004010300019N0080001N1+00661+00591101281ADDGA1021+003001071GA2041+030001031GF108991021061002501031021MA1999999101131MD1710161+9999REMSYN088AAXX  06171 10126 42358 82204 10066 20059 30113 40128 57016 82632 333 82710 84360 87075;
0147101260999992007010617204+53550+007667FM-15+0012ETNT V0202001N003110180019N0080001N1+00701+00601999999ADDGA1071+018001999GA2081+075001999GF108991999999999999999999MA1101191999999REMMET062METAR ETNT 061720Z 20006KT 8000 BKN060 OVC250 07/06 Q1012 BLU;
0124101260999992007010618204+53550+007667FM-15+0012ETNT V0202001N002110090019N0080001N1+00601+00601999999ADDGA1071+009001999GF107991999999999999999999MA1101191999999REMMET055METAR ETNT 061820Z 20004KT 8000 BKN030 06/06 Q1012 BLU;
0159101260999992007010619004+53550+007667FM-12+0012ETNT V0202001N002010090019N0070001N1+00641+00581101161ADDGA1071+009001061GF108991071051008001999999MA1999999101011MD1710191+9999REMSYN076AAXX  06191 10126 42557 82002 10064 20058 30101 40116 57019 875// 333 87630;
0124101260999992007010619204+53550+007667FM-15+0012ETNT V0202201N002110069019N0070001N1+00601+00601999999ADDGA1071+006901999GF107991999999999999999999MA1101081999999REMMET055METAR ETNT 061920Z 22004KT 7000 BKN023 06/06 Q1011 WHT;
0193101260999992007010620004+53550+007667FM-12+0012ETNT V0202301N00201002101CN0070001N1+00601+00541101151ADDAY161999AY221999GA1031+002401071GF108991071051002501999999MA1999999101001MD1710131+9999MW1611REMSYN088AAXX  06201 10126 42357 82302 10060 20054 30100 40115 57013 76162 875// 333 83708 87615;
0157101260999992007010620204+53550+007667FM-15+0012ETNT V0202301N001510045019N0070001N1+00601+00601999999ADDGA1041+002101999GA2071+004501999GF107991999999999999999999MA1101081999999MW1611REMMET066METAR ETNT 062020Z 23003KT 7000 -RA SCT007 BKN015 06/06 Q1011 WHT;
0124101260999992007010621204+53550+007667FM-15+0012ETNT V0201901N001510060019N0112651N1+00501+00501999999ADDGA1071+006001999GF107991999999999999999999MA1101021999999REMMET055METAR ETNT 062120Z 19003KT 9999 BKN020 05/05 Q1010 WHT;
0187101260999992007010622004+53550+007667FM-12+0012ETNT V0201501N001010072019N0100001N1+00501+00481101051ADDAY161999AY221999GA1071+007201061GF108991071051008001999999MA1999999100901MD1710111+9999MW1211REMSYN082AAXX  06221 10126 41560 81501 10050 20048 30090 40105 57011 72162 875// 333 87624;
0125101260999992007010622204+53550+007667FM-15+0012ETNT V0200901N001012200019N0112651N1+00501+00501999999ADDGA1041+009001999GF104991999999999999999999MA1101021999999REMMET056METAR ETNT 062220Z 09002KT 9999 SCT030 05/05 Q1010 BLU+;
0159101260999992007010623004+53550+007667FM-12+0012ETNT V0200401N001010105019N0080001N1+00471+00451101051ADDGA1071+010501061GF108991071051012501999999MA1999999100901MD1510101+9999REMSYN076AAXX  06231 10126 42658 80401 10047 20045 30090 40105 55010 875// 333 87635;
0144101260999992007010623054+53550+007667FM-16+0012ETNT V0200901N001010090019N0040001N1+00501+00401999999ADDGA1071+009001999GF107991999999999999999999MA1101021999999MW1101MW2121REMMET063SPECI ETNT 062305Z 09002KT 4000 MIFG BR BKN030 05/04 Q1010 GRN;
0144101260999992007010623084+53550+007667FM-16+0012ETNT V0200901N001010090019N0018001N1+00501+00401999999ADDGA1071+009001999GF107991999999999999999999MA1101021999999MW1101MW2121REMMET063SPECI ETNT 062308Z 09002KT 1800 MIFG BR BKN030 05/04 Q1010 YLO;
0165101260999992007010623204+53550+007667FM-15+0012ETNT V0201201N001510420019N0012001N1+00401+00401999999ADDED199U11009GA1071+042001999GF107991999999999999999999MA1101021999999MW1101MW2121REMMET073METAR ETNT 062320Z 12003KT 1200 R26/1100N MIFG BR BKN140 04/04 Q1010 AMB;
0154101260999992007010700204+53550+007667FM-15+0012ETNT V0202601N001012200019N0006001N1+00301+00301999999ADDED199U06009GA1041+042001999GF104991999999999999999999MA1101021999999MW1441REMMET068METAR ETNT 070020Z 26002KT 0600 R26/0600N FG SCT140 03/03 Q1010 RED;
0187101260999992007010701004+53550+007667FM-12+0012ETNT V0202901N002012200019N0006001N1+00221+00221101101ADDAY141999AY241999GA1021+036001031GF102991021001999999031001MA1999999100951MD1310051+9999MW1461REMSYN082AAXX  07011 10126 41906 22902 10022 20022 30095 40110 53005 74644 82030 333 82362;
0154101260999992007010701204+53550+007667FM-15+0012ETNT V0202901N002112200019N0006001N1+00301+00301999999ADDED199U16009GA1041+042001999GF104991999999999999999999MA1101081999999MW1441REMMET068METAR ETNT 070120Z 29004KT 0600 R26/1600U FG SCT140 03/03 Q1011 RED;
0171101260999992007010702004+53550+007667FM-12+0012ETNT V0202901N002012200019N0006001N1+00281+00281101151ADDAY141999AY241999GA1001+999999999GF100991001001999999001001MA1999999101001MD1310101+9999MW1441REMSYN066AAXX  07021 10126 41906 02902 10028 20028 30100 40115 53010 74444;
0105101260999992007010702204+53550+007667FM-15+0012ETNT V0202701N002119999999N0008001N1+00001+00001999999ADDED199U12009MA1101191999999MW1441REMMET061METAR ETNT 070220Z 27004KT 0800 R26/1200U FG 00/00 Q1012 AMB;
0105101260999992007010703204+53550+007667FM-15+0012ETNT V0202501N002119999999N0008001N1+00001+00001999999ADDED199U07009MA1101191999999MW1441REMMET061METAR ETNT 070320Z 25004KT 0800 R26/0700N FG 00/00 Q1012 AMB;
0171101260999992007010704004+53550+007667FM-12+0012ETNT V0202401N002012200019N0012001N1+00031+00031101351ADDAY141999AY201999GA1001+999999999GF100991001001999999001001MA1999999101201MD1210251+9999MW1281REMSYN066AAXX  07041 10126 41912 02402 10003 20003 30120 40135 52025 72840;
0084101260999992007010704204+53550+007667FM-15+0012ETNT V0202301N001512200019N0040001N1+00001+00001999999ADDMA1101291999999MW1101REMMET051METAR ETNT 070420Z 23003KT 4000 BR 00/00 Q1013 GRN;
0187101260999992007010705004+53550+007667FM-12+0012ETNT V0202301N003012200019N0045001N1+00051+00041101351ADDAY101999AY201999GA1021+042001031GF102991021001999999031001MA1999999101201MD1110201+9999MW1101REMSYN082AAXX  07051 10126 41945 22303 10005 20004 30120 40135 51020 71000 82030 333 82364;
0124101260999992007010705204+53550+007667FM-15+0012ETNT V0202301N003610090019N0112651N1+00201+00201999999ADDGA1071+009001999GF107991999999999999999999MA1101291999999REMMET055METAR ETNT 070520Z 23007KT 9999 BKN030 02/02 Q1013 BLU;
0124101260999992007010706204+53550+007667FM-15+0012ETNT V0202201N003110099019N0090001N1+00301+00301999999ADDGA1071+009901999GF107991999999999999999999MA1101291999999REMMET055METAR ETNT 070620Z 22006KT 9000 BKN033 03/03 Q1013 BLU;
0187101260999992007010707004+53550+007667FM-12+0012ETNT V0202001N004010090019N0070001N1+00431+00431101311ADDAY111999AY211999GA1071+009001061GF107991071051008001999999MA1999999101161MD1810041+9999MW1101REMSYN082AAXX  07071 10126 41557 72004 10043 20043 30116 40131 58004 71011 875// 333 87630;
0156101260999992007010707204+53550+007667FM-15+0012ETNT V0202001N004610024019N0048001N1+00401+00401999999ADDGA1071+002401999GA2071+009001999GF107991999999999999999999MA1101291999999MW1101REMMET065METAR ETNT 070720Z 20009KT 4800 BR BKN008 BKN030 04/04 Q1013 GRN;
0133101260999992007010707304+53550+007667FM-15+0012ETNT V0202101N004610015019N0048001N1+00501+00501999999ADDGA1071+001501999GF107991999999999999999999MA1101291999999MW1101REMMET058SPECI ETNT 070730Z 21009KT 4800 BR BKN005 05/05 Q1013 YLO;
0187101260999992007010708004+53550+007667FM-12+0012ETNT V0202201N006010015019N0048001N1+00551+00551101331ADDAY121999AY221999GA1071+001501071GF108991071061001501999999MA1999999101181MD1510021+9999MW1101REMSYN082AAXX  07081 10126 41248 82206 10055 20055 30118 40133 55002 71022 876// 333 87705;
0147101260999992007010708204+53550+007667FM-15+0012ETNT V0202201N005110045019N0070001N1+00601+00601999999ADDGA1041+001501999GA2071+004501999GF107991999999999999999999MA1101291999999REMMET062METAR ETNT 070820Z 22010KT 7000 SCT005 BKN015 06/06 Q1013 WHT;
0124101260999992007010709204+53550+007667FM-15+0012ETNT V0202201N006710027019N0080001N1+00701+00601999999ADDGA1071+002701999GF107991999999999999999999MA1101291999999REMMET055METAR ETNT 070920Z 22013KT 8000 BKN009 07/06 Q1013 GRN;
0159101260999992007010710004+53550+007667FM-12+0012ETNT V0202101N007010024019N0080001N1+00681+00581101291ADDGA1071+002401071GF107991071061002501999999MA1999999101141MD1810021+9999REMSYN076AAXX  07101 10126 42358 72107 10068 20058 30114 40129 58002 876// 333 87708;
0124101260999992007010710204+53550+007667FM-15+0012ETNT V0202201N006710027019N0080001N1+00701+00601999999ADDGA1071+002701999GF107991999999999999999999MA1101191999999REMMET055METAR ETNT 071020Z 22013KT 8000 BKN009 07/06 Q1012 GRN;
0159101260999992007010711004+53550+007667FM-12+0012ETNT V0202101N006010030019N0090001N1+00741+00631101241ADDGA1071+003001071GF107991071061004501999999MA1999999101091MD1810091+9999REMSYN076AAXX  07111 10126 42459 72106 10074 20063 30109 40124 58009 876// 333 87710;
0124101260999992007010711204+53550+007667FM-15+0012ETNT V0202201N007210033019N0112651N1+00801+00601999999ADDGA1071+003301999GF107991999999999999999999MA1101081999999REMMET055METAR ETNT 071120Z 22014KT 9999 BKN011 08/06 Q1011 GRN;
0134101260999992007010712204+53550+007667FM-15+0012ETNT V0202201N007210033019N0090001N1+00801+00701999999ADDGA1071+003301999GF107991999999999999999999MA1101081999999MW1611REMMET059METAR ETNT 071220Z 22014KT 9000 -RA BKN011 08/07 Q1011 GRN;
0187101260999992007010713004+53550+007667FM-12+0012ETNT V0202201N007010030019N0060001N1+00801+00681101061ADDAY161999AY261999GA1071+003001071GF108991071071004501999999MA1999999100911MD1710231+9999MW1611REMSYN082AAXX  07131 10126 41456 82207 10080 20068 30091 40106 57023 76166 877// 333 87710;
0124101260999992007010713204+53550+007667FM-15+0012ETNT V0202201N006210027019N0112651N1+00801+00701999999ADDGA1071+002701999GF107991999999999999999999MA1101021999999REMMET055METAR ETNT 071320Z 22012KT 9999 BKN009 08/07 Q1010 GRN;
0187101260999992007010714004+53550+007667FM-12+0012ETNT V0202201N007010030019N0100001N1+00831+00731101051ADDAY121999AY221999GA1071+003001071GF108991071061004501999999MA1999999100901MD1610191+9999MW1211REMSYN082AAXX  07141 10126 41460 82207 10083 20073 30090 40105 56019 72122 876// 333 87710;
0124101260999992007010714204+53550+007667FM-15+0012ETNT V0202201N006710030019N0112651N1+00901+00701999999ADDGA1071+003001999GF107991999999999999999999MA1101021999999REMMET055METAR ETNT 071420Z 22013KT 9999 BKN010 09/07 Q1010 GRN;
0142101260999992007010715204+53550+007667FM-15+0012ETNT V0202201N006210027019N0070001N1+00801+00701999999ADDGA1071+002701999GF107991999999999999999999MA1101021999999MW1511MW2611REMMET061METAR ETNT 071520Z 22012KT 7000 -RADZ BKN009 08/07 Q1010 GRN;
0164101260999992007010715404+53550+007667FM-16+0012ETNT V0202201N007210024019N0045001N1+00801+00701999999ADDGA1021+001801999GA2071+002401999GF107991999999999999999999MA1101021999999MW1531MW2631REMMET067SPECI ETNT 071540Z 22014KT 4500 RADZ FEW006 BKN008 08/07 Q1010 GRN;
0193101260999992007010716004+53550+007667FM-12+0012ETNT V0202201N00701002101CN0048001N1+00821+00731101041ADDAY161999AY221999GA1011+001801071GF108991071071002501999999MA1999999100891MD1710021+9999MW1591REMSYN088AAXX  07161 10126 41348 82207 10082 20073 30089 40104 57002 75962 877// 333 81706 87708;
0170101260999992007010716204+53550+007667FM-15+0012ETNT V0202201N007210027019N0070001N1+00801+00701999999ADDGA1021+002101999GA2071+002701999GF107991999999999999999999MA1101021999999MW1511MW2611REMMET073METAR ETNT 071620Z 22014KT 7000 -RADZ FEW007 BKN009 08/07 Q1010 RERA GRN;
0187101260999992007010717004+53550+007667FM-12+0012ETNT V0202201N007010024019N0070001N1+00811+00741101031ADDAY161999AY261999GA1071+002401071GF108991071071002501999999MA1999999100881MD1810021+9999MW1611REMSYN082AAXX  07171 10126 41357 82207 10081 20074 30088 40103 58002 76166 877// 333 87708;
0157101260999992007010717204+53550+007667FM-15+0012ETNT V0202201N007210024019N0060001N1+00801+00701999999ADDGA1021+002101999GA2071+002401999GF107991999999999999999999MA1101021999999MW1611REMMET066METAR ETNT 071720Z 22014KT 6000 -RA FEW007 BKN008 08/07 Q1010 GRN;
0124101260999992007010718204+53550+007667FM-15+0012ETNT V0202201N007210024019N0070001N1+00801+00801999999ADDGA1071+002401999GF107991999999999999999999MA1100911999999REMMET055METAR ETNT 071820Z 22014KT 7000 BKN008 08/08 Q1009 GRN;
0187101260999992007010719004+53550+007667FM-12+0012ETNT V0202201N007010024019N0070001N1+00831+00751100961ADDAY121999AY221999GA1071+002401071GF108991071071002501999999MA1999999100811MD1710081+9999MW1211REMSYN082AAXX  07191 10126 41357 82207 10083 20075 30081 40096 57008 72122 877// 333 87708;
0124101260999992007010719204+53550+007667FM-15+0012ETNT V0202201N007210027019N0080001N1+00801+00701999999ADDGA1071+002701999GF107991999999999999999999MA1100911999999REMMET055METAR ETNT 071920Z 22014KT 8000 BKN009 08/07 Q1009 GRN;
0159101260999992007010720004+53550+007667FM-12+0012ETNT V0202201N007010033019N0090001N1+00831+00731100931ADDGA1071+003301071GF108991071061004501999999MA1999999100781MD1710101+9999REMSYN076AAXX  07201 10126 41459 82207 10083 20073 30078 40093 57010 876// 333 87711;
0124101260999992007010720204+53550+007667FM-15+0012ETNT V0202201N006710033019N0112651N1+00801+00701999999ADDGA1071+003301999GF107991999999999999999999MA1100911999999REMMET055METAR ETNT 072020Z 22013KT 9999 BKN011 08/07 Q1009 GRN;
0147101260999992007010721204+53550+007667FM-15+0012ETNT V0202101N007210063019N0112651N1+00801+00701999999ADDGA1041+003601999GA2071+006301999GF107991999999999999999999MA1100811999999REMMET062METAR ETNT 072120Z 21014KT 9999 SCT012 BKN021 08/07 Q1008 WHT;
0159101260999992007010722004+53550+007667FM-12+0012ETNT V0202101N008010063019N0150001N1+00821+00641100851ADDGA1071+006301061GF108991071051008001999999MA1999999100701MD1710111+9999REMSYN076AAXX  07221 10126 42565 82108 10082 20064 30070 40085 57011 875// 333 87621;
0124101260999992007010722204+53550+007667FM-15+0012ETNT V0202101N007710060019N0112651N1+00801+00701999999ADDGA1071+006001999GF107991999999999999999999MA1100811999999REMMET055METAR ETNT 072220Z 21015KT 9999 BKN020 08/07 Q1008 WHT;
0165101260999992007010723004+53550+007667FM-12+0012ETNT V0202201N00801007501CN0200001N1+00791+00571100771ADDGA1041+006601061GF108991071051008001999999MA1999999100621MD1710161+9999REMSYN082AAXX  07231 10126 42570 82208 10079 20057 30062 40077 57016 875// 333 84622 87649;
0147101260999992007010723204+53550+007667FM-15+0012ETNT V0202101N007210150019N0112651N1+00801+00601999999ADDGA1041+005101999GA2071+015001999GF107991999999999999999999MA1100711999999REMMET062METAR ETNT 072320Z 21014KT 9999 SCT017 BKN050 08/06 Q1007 BLU;
0147101260999992007010800204+53550+007667FM-15+0012ETNT V0202001N007210150019N0112651N1+00801+00501999999ADDGA1021+005401999GA2071+015001999GF107991999999999999999999MA1100611999999REMMET062METAR ETNT 080020Z 20014KT 9999 FEW018 BKN050 08/05 Q1006 BLU;
0165101260999992007010801004+53550+007667FM-12+0012ETNT V0202001N00701004201CN0200001N1+00751+00511100551ADDGA1021+005701061GF108991071051004501999999MA1999999100401MD1710301+9999REMSYN082AAXX  08011 10126 42470 82007 10075 20051 30040 40055 57030 875// 333 82619 87650;
0147101260999992007010801204+53550+007667FM-15+0012ETNT V0202001N007710150019N0112651N1+00801+00501999999ADDGA1021+006001999GA2071+015001999GF107991999999999999999999MA1100411999999REMMET062METAR ETNT 080120Z 20015KT 9999 FEW020 BKN050 08/05 Q1004 BLU;
0147101260999992007010802204+53550+007667FM-15+0012ETNT V0202001N007210360019N0112651N1+00801+00501999999ADDGA1041+006601999GA2071+036001999GF107991999999999999999999MA1100311999999REMMET062METAR ETNT 080220Z 20014KT 9999 SCT022 BKN120 08/05 Q1003 BLU;
0147101260999992007010803204+53550+007667FM-15+0012ETNT V0201901N006210066019N0112651N1+00801+00501999999ADDGA1071+006601999GA2071+033001999GF107991999999999999999999MA1100201999999REMMET062METAR ETNT 080320Z 19012KT 9999 BKN022 BKN110 08/05 Q1002 WHT;
0187101260999992007010804004+53550+007667FM-12+0012ETNT V0201901N006010069019N0250001N1+00711+00501100211ADDAY121999AY221999GA1071+006901061GF108991071051008001999999MA1999999100061MD1710341+9999MW1581REMSYN082AAXX  08041 10126 41575 81906 10071 20050 30006 40021 57034 75822 875// 333 87623;
0142101260999992007010804204+53550+007667FM-15+0012ETNT V0202001N006710072019N0112651N1+00801+00501999999ADDGA1071+007201999GF107991999999999999999999MA1100101999999MW1511MW2611REMMET061METAR ETNT 080420Z 20013KT 9999 -DZRA BKN024 08/05 Q1001 WHT;
0187101260999992007010805004+53550+007667FM-12+0012ETNT V0202001N007010063019N0150001N1+00761+00521100051ADDAY161999AY261999GA1071+006301061GF108991071051008001999999MA1999999099901MD1710391+9999MW1581REMSYN082AAXX  08051 10126 41565 82007 10076 20052 39990 40005 57039 75866 875// 333 87621;
0179101260999992007010805204+53550+007667FM-15+0012ETNT V0201901N006210060019N0112651N1+00701+00601999999ADDGA1071+006001999GA2071+012001999GF107991999999999999999999MA1100001999999MW1511MW2611REMMET082METAR ETNT 080520Z 19012KT 9999 -DZRA BKN020 BKN040 07/06 Q1000 WHT BLU TEMPO YLO;
0138101260999992007010806204+53550+007667FM-15+0012ETNT V0201901N007210057019N0112651N1+00701+00601999999ADDGA1071+005701999GF107991999999999999999999MA1099801999999REMMET069METAR ETNT 080620Z 19014KT 9999 BKN019 07/06 Q0998 WHT BLU TEMPO YLO;
0187101260999992007010807004+53550+007667FM-12+0012ETNT V0202001N007010051019N0120001N1+00751+00561099851ADDAY161999AY221999GA1071+005101061GF108991071051004501999999MA1999999099701MD1710361+9999MW1611REMSYN082AAXX  08071 10126 41462 82007 10075 20056 39970 49985 57036 76162 875// 333 87617;
0147101260999992007010807204+53550+007667FM-15+0012ETNT V0201901N007210042019N0112651N1+00801+00601999999ADDGA1071+004201999GF107991999999999999999999MA1099801999999MW1631REMMET072METAR ETNT 080720Z 19014KT 9999 RA BKN014 08/06 Q0998 GRN BLU TEMPO YLO;
0215101260999992007010808004+53550+007667FM-12+0012ETNT V0201901N007010042019N0090001N1+00771+00651099771ADDAY161999AY261999GA1021+003301071GA2061+004201061GF108991071051004501999999MA1999999099621MD1710281+9999MW1631REMSYN094AAXX  08081 10126 41459 81907 10077 20065 39962 49977 57028 76366 875// 333 82711 86614 87620;
0170101260999992007010808204+53550+007667FM-15+0012ETNT V0202001N007210033019N0070001N1+00801+00701999999ADDGA1041+002401999GA2071+003301999GF107991999999999999999999MA1099701999999MW1631REMMET079METAR ETNT 080820Z 20014KT 7000 RA SCT008 BKN011 08/07 Q0997 GRN BLU TEMPO YLO;
0179101260999992007010809204+53550+007667FM-15+0012ETNT V0202201N007710027019N0048001N1+00801+00801999999ADDGA1021+002101999GA2071+002701999GF107991999999999999999999MA1099701999999MW1101MW2631REMMET082METAR ETNT 080920Z 22015KT 4800 RA BR FEW007 BKN009 08/08 Q0997 GRN BLU TEMPO YLO;
0199101260999992007010809384+53550+007667FM-16+0012ETNT V0202301N007710027019N0080001N1+00801+00801999999ADDGA1021+002101999GA2071+002701999GA3071+004801999GF107991999999999999999999MA1099801999999MW1611REMMET092SPECI ETNT 080938Z 23015KT 8000 -RA FEW007 BKN009 BKN016 08/08 Q0998 RERA GRN BLU TEMPO YLO;
0237101260999992007010810004+53550+007667FM-12+0012ETNT V0202401N008010027019N0100001N1+00861+00771099851ADDAY161999AY261999GA1011+002101071GA2061+002701071GA3071+012001061GF108991071051002501999999MA1999999099701MD1510001+9999MW1611REMSYN100AAXX  08101 10126 41360 82408 10086 20077 39970 49985 55000 76166 875// 333 81707 86709 87640 91113;
0166101260999992007010810204+53550+007667FM-15+0012ETNT V0202601N007710120019N0112651N1+00901+00801999999ADDGA1041+003001999GA2071+012001999GF107991999999999999999999MA1099801999999REMMET081METAR ETNT 081020Z 26015KT 9999 SCT010 BKN040 09/08 Q0998 RERA BLU BLU TEMPO GRN;
0187101260999992007010811004+53550+007667FM-12+0012ETNT V0202701N008012200019N0150001N1+00921+00721099941ADDAY111999AY211999GA1011+003601081GF103991021081004501031001MA1999999099791MD1310171+9999MW1211REMSYN082AAXX  08111 10126 41465 32708 10092 20072 39979 49994 53017 72111 82830 333 81812;
0152101260999992007010811204+53550+007667FM-15+0012ETNT V0202701N006712200019N0112651N1+00901+00601999999ADDGA1021+003601999GA2041+010501999GF104991999999999999999999MA1099901999999REMMET067METAR ETNT 081120Z 27013KT 9999 FEW012 SCT035 09/06 Q0999 BLU+BLU+;
0151101260999992007010812204+53550+007667FM-15+0012ETNT V0202601N006710105019N0112651N1+00901+00601999999ADDGA1041+004501999GA2071+010501999GF107991999999999999999999MA1099901999999REMMET066METAR ETNT 081220Z 26013KT 9999 SCT015 BKN035 09/06 Q0999 BLU BLU;
0165101260999992007010813004+53550+007667FM-12+0012ETNT V0202601N00701220001CN0200001N1+00851+00561100001ADDGA1011+004501081GF106991031081004501001011MA1999999099851MD1210151+9999REMSYN082AAXX  08131 10126 42470 62607 10085 20056 39985 40000 52015 83801 333 81815 85075;
0175101260999992007010813204+53550+007667FM-15+0012ETNT V0202601N00621011401CN0112651N1+00801+00501999999ADDGA1021+006001999GA2041+011401999GA3071+075001999GF107991999999999999999999MA1100001999999REMMET074METAR ETNT 081320Z 26012KT 9999 FEW020 SCT038 BKN250 08/05 Q1000 BLU+BLU+;
0165101260999992007010814004+53550+007667FM-12+0012ETNT V0202601N00601220001CN0200001N1+00801+00501100071ADDGA1011+006001081GF106991011081008001001011MA1999999099921MD1310151+9999REMSYN082AAXX  08141 10126 42570 62606 10080 20050 39992 40007 53015 81801 333 81820 86073;
0152101260999992007010814204+53550+007667FM-15+0012ETNT V0202501N005110690019N0112651N1+00801+00501999999ADDGA1021+006001999GA2071+069001999GF107991999999999999999999MA1100101999999REMMET067METAR ETNT 081420Z 25010KT 9999 FEW020 BKN230 08/05 Q1001 BLU+BLU+;
0175101260999992007010815204+53550+007667FM-15+0012ETNT V0202401N00461045001CN0112651N1+00701+00501999999ADDGA1021+006601999GA2041+045001999GA3071+060001999GF107991999999999999999999MA1100101999999REMMET074METAR ETNT 081520Z 24009KT 9999 FEW022 SCT150 BKN200 07/05 Q1001 BLU+BLU+;
0187101260999992007010816004+53550+007667FM-12+0012ETNT V0202401N00501030001CN0200001N1+00681+00441100171ADDGA1011+006601081GA2031+039001001GF107991011081008001031021MA1999999100021MD1110171+9999REMSYN088AAXX  08161 10126 42570 72405 10068 20044 30002 40017 51017 81832 333 81822 83063 85069;
0151101260999992007010816204+53550+007667FM-15+0012ETNT V0202201N004110540019N0112651N1+00601+00401999999ADDGA1021+007501999GA2071+054001999GF107991999999999999999999MA1100101999999REMMET066METAR ETNT 081620Z 22008KT 9999 FEW025 BKN180 06/04 Q1001 BLU BLU;
0165101260999992007010817004+53550+007667FM-12+0012ETNT V0202101N00501030001CN0200001N1+00591+00401100151ADDGA1011+006601081GF106991011021008001031011MA1999999100001MD1010081+9999REMSYN082AAXX  08171 10126 42570 62105 10059 20040 30000 40015 50008 81231 333 81822 85072;
0151101260999992007010817204+53550+007667FM-15+0012ETNT V0202101N004110660019N0112651N1+00601+00401999999ADDGA1041+045001999GA2071+066001999GF107991999999999999999999MA1100101999999REMMET066METAR ETNT 081720Z 21008KT 9999 SCT150 BKN220 06/04 Q1001 BLU+BLU;
0161101260999992007010818204+53550+007667FM-15+0012ETNT V0202001N005710330019N0112651N1+00701+00501999999ADDGA1041+027001999GA2071+033001999GF107991999999999999999999MA1100001999999REMMET076METAR ETNT 081820Z 20011KT 9999 SCT090 BKN110 07/05 Q1000 BLU BLU BECMG WHT;
0187101260999992007010819004+53550+007667FM-12+0012ETNT V0202001N006010300019N0200001N1+00681+00511100061ADDGA1011+012001061GA2061+030001031GF107991011051012501031061MA1999999099911MD1710111+9999REMSYN088AAXX  08191 10126 42670 72006 10068 20051 39991 40006 57011 81536 333 81640 86360 87268;
0161101260999992007010819204+53550+007667FM-15+0012ETNT V0202001N005710270019N0112651N1+00701+00501999999ADDGA1041+015001999GA2071+027001999GF107991999999999999999999MA1100001999999REMMET076METAR ETNT 081920Z 20011KT 9999 SCT050 BKN090 07/05 Q1000 BLU BLU BECMG WHT;
0193101260999992007010820004+53550+007667FM-12+0012ETNT V0201901N00501007501CN0150001N1+00721+00541100001ADDAY121999AY221999GA1011+007801061GF108991071051008001999999MA1999999099851MD1710151+9999MW1611REMSYN088AAXX  08201 10126 41565 81905 10072 20054 39985 40000 57015 76122 875// 333 81626 86643;
0170101260999992007010820204+53550+007667FM-15+0012ETNT V0202001N005110120019N0070001N1+00701+00601999999ADDGA1041+005401999GA2071+012001999GF107991999999999999999999MA1099901999999MW1631REMMET079METAR ETNT 082020Z 20010KT 7000 RA SCT018 BKN040 07/06 Q0999 WHT WHT TEMPO GRN;
0168101260999992007010821004+53550+007667FM-15+0012ETNT V0201901N006210048019N0070001N1+00701+00601999999ADDGA1021+003001999GA2071+004801999GF107991999999999999999999MA1099801999999MW1631REMMET077SPECI ETNT 082055Z 19012KT 7000 RA FEW010 BKN016 07/06 Q0998 WHT FCST CANCEL;
0179101260999992007010821204+53550+007667FM-15+0012ETNT V0201901N006210033019N0060001N1+00701+00601999999ADDGA1021+002101999GA2071+003301999GA3071+007201999GF107991999999999999999999MA1099801999999MW1631REMMET072METAR ETNT 082120Z 19012KT 6000 RA FEW007 BKN011 BKN024 07/06 Q0998 GRN;
0215101260999992007010822004+53550+007667FM-12+0012ETNT V0201901N007010030019N0060001N1+00751+00671099781ADDAY161999AY261999GA1021+001501071GA2061+003001071GF108991071051001501999999MA1999999099631MD1710281+9999MW1581REMSYN094AAXX  08221 10126 41256 81907 10075 20067 39963 49978 57028 75866 875// 333 82705 86710 87616;
0170101260999992007010822204+53550+007667FM-15+0012ETNT V0202001N008210024019N0060001N1+00801+00701999999ADDGA1021+001501999GA2071+002401999GF107991999999999999999999MA1099701999999MW1511MW2611REMMET073METAR ETNT 082220Z 20016KT 6000 -RADZ FEW005 BKN008 08/07 Q0997 RERA GRN;
0187101260999992007010823004+53550+007667FM-12+0012ETNT V0202101N008010024019N0080001N1+00821+00751099761ADDAY161999AY221999GA1071+002401071GF108991071071002501999999MA1999999099611MD1610241+9999MW1211REMSYN082AAXX  08231 10126 41358 82108 10082 20075 39961 49976 56024 72162 877// 333 87708;
0124101260999992007010823204+53550+007667FM-15+0012ETNT V0202201N007210021019N0112651N1+00901+00801999999ADDGA1071+002101999GF107991999999999999999999MA1099701999999REMMET055METAR ETNT 082320Z 22014KT 9999 BKN007 09/08 Q0997 GRN;
0124101260999992007010900204+53550+007667FM-15+0012ETNT V0202301N006710021019N0090001N1+01001+00901999999ADDGA1071+002101999GF107991999999999999999999MA1099801999999REMMET055METAR ETNT 090020Z 23013KT 9000 BKN007 10/09 Q0998 GRN;
0159101260999992007010901004+53550+007667FM-12+0012ETNT V0202201N006010024019N0090001N1+01011+00941099841ADDGA1071+002401071GF108991071061002501999999MA1999999099691MD1310061+9999REMSYN076AAXX  09011 10126 42359 82206 10101 20094 39969 49984 53006 876// 333 87708;
0124101260999992007010901204+53550+007667FM-15+0012ETNT V0202201N006210024019N0090001N1+01001+01001999999ADDGA1071+002401999GF107991999999999999999999MA1099801999999REMMET055METAR ETNT 090120Z 22012KT 9000 BKN008 10/10 Q0998 GRN;
0159101260999992007010902004+53550+007667FM-12+0012ETNT V0202301N007010033019N0120001N1+01091+00991099861ADDGA1071+003301071GF108991071061004501999999MA1999999099711MD1210101+9999REMSYN076AAXX  09021 10126 42462 82307 10109 20099 39971 49986 52010 876// 333 87711;
0124101260999992007010902204+53550+007667FM-15+0012ETNT V0202301N006210036019N0112651N1+01101+01001999999ADDGA1071+003601999GF107991999999999999999999MA1099801999999REMMET055METAR ETNT 090220Z 23012KT 9999 BKN012 11/10 Q0998 GRN;
0157101260999992007010903204+53550+007667FM-15+0012ETNT V0202301N006710036019N0090001N1+01101+01001999999ADDGA1041+002101999GA2071+003601999GF107991999999999999999999MA1099901999999MW1611REMMET066METAR ETNT 090320Z 23013KT 9000 -RA SCT007 BKN012 11/10 Q0999 GRN;
0193101260999992007010904004+53550+007667FM-12+0012ETNT V0202301N006010024019N0090001N1+01131+01061099901ADDAY161999AY261999GA1051+002401071GF108991071051002501999999MA1999999099751MD1110061+9999MW1611REMSYN088AAXX  09041 10126 41359 82306 10113 20106 39975 49990 51006 76166 875// 333 85708 87613;
0151101260999992007010904204+53550+007667FM-15+0012ETNT V0202301N007210027019N0112651N1+01101+01101999999ADDGA1071+002701999GA2071+004501999GF107991999999999999999999MA1099801999999REMMET066METAR ETNT 090420Z 23014KT 9999 BKN009 BKN015 11/11 Q0998 GRN GRN;
0193101260999992007010905004+53550+007667FM-12+0012ETNT V0202301N007010027019N0120001N1+01141+01061099891ADDAY121999AY221999GA1051+002701071GF108991071051002501999999MA1999999099741MD1010031+9999MW1211REMSYN088AAXX  09051 10126 41362 82307 10114 20106 39974 49989 50003 72122 875// 333 85709 87616;
0139101260999992007010905204+53550+007667FM-15+0012ETNT V0202401N008210039019N0112651N1+01201+01101999999ADDGA1071+003901999GF107991999999999999999999MA1099901999999OC101491REMMET062METAR ETNT 090520Z 24016G29KT 9999 BKN013 12/11 Q0999 GRN GRN;
0172101260999992007010906204+53550+007667FM-15+0012ETNT V0202401N008710057019N0112651N1+01201+01001999999ADDGA1041+004501999GA2071+005701999GF107991999999999999999999MA1100001999999MW1611OC101391REMMET073METAR ETNT 090620Z 24017G27KT 9999 -RA SCT015 BKN019 12/10 Q1000 WHT WHT;
0299101260999992007010907004+53550+007667FM-12+0012ETNT V0202401N009010081019N0150001N1+01211+00991100001ADDAY161999AY261999GA1031+004801061GA2071+008101061GF108991071051004501999999MA1999999099851MD1310101+9999MW1601OA149999999REMSYN148AAXX  09071 10126 41465 82409 10121 20099 39985 40000 53010 76066 875// 333 83616 87627 91014 91114 555 BOT 10089 20087 30076 40073 50082 999 31///;EQDQ01  00722WGOSPD
0162101260999992007010907204+53550+007667FM-15+0012ETNT V0202401N009310072019N0112651N1+01201+01001999999ADDGA1041+005101999GA2071+007201999GF107991999999999999999999MA1100001999999OC101491REMMET069METAR ETNT 090720Z 24018G29KT 9999 SCT017 BKN024 12/10 Q1000 WHT WHT;
0221101260999992007010908004+53550+007667FM-12+0012ETNT V0202401N009010072019N0150001N1+01231+00941100061ADDAY121999AY221999GA1031+005401061GA2071+007201061GF108991071051004501999999MA1999999099911MD1210171+9999MW1201REMSYN100AAXX  09081 10126 41465 82409 10123 20094 39991 40006 52017 72022 875// 333 83618 87624 91013 91115;
