0151101260999992011010100204+53550+007667FM-15+0012ETNT V0202601N007210015019N0030001N1+00301+00301999999ADDGA1071+001501999GF107991999999999999999999MA1101691999999MW1101MW2511MW3611REMMET064METAR ETNT 010020Z 26014KT 3000 -RADZ BR BKN005 03/03 Q1017 YLO;
0187101260999992011010101004+53550+007667FM-12+0012ETNT V0202601N007010018019N0030001N1+00301+00261101661ADDAY151999AY261999GA1071+001801071GF108991071061001501999999MA1999999101511MD1710301+9999MW1581REMSYN082AAXX  01011 10126 41230 82607 10030 20026 30151 40166 57030 75856 876// 333 87706;
0151101260999992011010101204+53550+007667FM-15+0012ETNT V0202701N006710021019N0030001N1+00301+00301999999ADDGA1071+002101999GF107991999999999999999999MA1101591999999MW1101MW2511MW3611REMMET064METAR ETNT 010120Z 27013KT 3000 -RADZ BR BKN007 03/03 Q1016 YLO;
0187101260999992011010102004+53550+007667FM-12+0012ETNT V0202701N007010021019N0030001N1+00311+00261101611ADDAY161999AY261999GA1071+002101071GF108991071071002501999999MA1999999101461MD1710251+9999MW1581REMSYN082AAXX  01021 10126 41330 82707 10031 20026 30146 40161 57025 75866 877// 333 87707;
0151101260999992011010102204+53550+007667FM-15+0012ETNT V0202701N007710021019N0025001N1+00401+00401999999ADDGA1071+002101999GF107991999999999999999999MA1101491999999MW1101MW2511MW3611REMMET064METAR ETNT 010220Z 27015KT 2500 -RADZ BR BKN007 04/04 Q1015 YLO;
0151101260999992011010103204+53550+007667FM-15+0012ETNT V0202801N007710012019N0025001N1+00301+00301999999ADDGA1071+001201999GF107991999999999999999999MA1101491999999MW1101MW2511MW3611REMMET064METAR ETNT 010320Z 28015KT 2500 -RADZ BR BKN004 03/03 Q1015 YLO;
0187101260999992011010104004+53550+007667FM-12+0012ETNT V0202701N008010012019N0025001N1+00351+00351101501ADDAY161999AY261999GA1071+001201071GF108991071071001501999999MA1999999101351MD1710161+9999MW1581REMSYN082AAXX  01041 10126 41225 82708 10035 20035 30135 40150 57016 75866 877// 333 87704;
0151101260999992011010104204+53550+007667FM-15+0012ETNT V0202801N007710012019N0025001N1+00401+00401999999ADDGA1071+001201999GF107991999999999999999999MA1101391999999MW1101MW2511MW3611REMMET064METAR ETNT 010420Z 28015KT 2500 -RADZ BR BKN004 04/04 Q1014 YLO;
0187101260999992011010105004+53550+007667FM-12+0012ETNT V0202801N008010012019N0035001N1+00351+00351101451ADDAY161999AY261999GA1071+001201071GF108991071071001501999999MA1999999101301MD1710161+9999MW1581REMSYN082AAXX  01051 10126 41235 82808 10035 20035 30130 40145 57016 75866 877// 333 87704;
0151101260999992011010105204+53550+007667FM-15+0012ETNT V0202801N008210009019N0035001N1+00301+00301999999ADDGA1071+000901999GF107991999999999999999999MA1101391999999MW1101MW2511MW3611REMMET064METAR ETNT 010520Z 28016KT 3500 -RADZ BR BKN003 03/03 Q1014 YLO;
0174101260999992011010106204+53550+007667FM-15+0012ETNT V0202901N005110012019N0035001N1+00401+00401999999ADDGA1071+001201999GA2071+007501999GF107991999999999999999999MA1101391999999MW1101MW2511MW3611REMMET071METAR ETNT 010620Z 29010KT 3500 -RADZ BR BKN004 BKN025 04/04 Q1014 YLO;
0257101260999992011010107004+53550+007667FM-12+0012ETNT V0202801N003010012019N0035001N1+00331+00291101521ADDAY161999AY221999GA1051+001201071GA2071+007501061GF108991071051001501999999MA1999999101371MD1310021+9999MW1211REMSYN136AAXX  01071 10126 41235 82803 10033 20029 30137 40152 53002 72162 875// 333 85704 87625 555 BOT 10000 20000 30004 40017 50038 999 44///;
0147101260999992011010107204+53550+007667FM-15+0012ETNT V0203001N004110090019N0070001N1+00401+00301999999ADDGA1021+001501999GA2071+009001999GF107991999999999999999999MA1101491999999REMMET062METAR ETNT 010720Z 30008KT 7000 FEW005 BKN030 04/03 Q1015 WHT;
0165101260999992011010108004+53550+007667FM-12+0012ETNT V0203001N00401001201CN0080001N1+00301+00201101571ADDGA1021+001501071GF107991071051001501999999MA1999999101421MD1210121+9999REMSYN082AAXX  01081 10126 42258 73004 10030 20020 30142 40157 52012 875// 333 82705 87630;
0124101260999992011010108204+53550+007667FM-15+0012ETNT V0202901N004110096019N0112651N1+00301+00201999999ADDGA1071+009601999GF107991999999999999999999MA1101491999999REMMET055METAR ETNT 010820Z 29008KT 9999 BKN032 03/02 Q1015 BLU;
0148101260999992011010109204+53550+007667FM-15+0012ETNT V0202901N004112200019N0112651N1+00401+00201999999ADDGA1021+005401999GA2041+024001999GF104991999999999999999999MA1101491999999REMMET063METAR ETNT 010920Z 29008KT 9999 FEW018 SCT080 04/02 Q1015 BLU/;
0193101260999992011010110004+53550+007667FM-12+0012ETNT V0203001N00601009001CN0120001N1+00371+00181101611ADDAY121999AY221999GA1031+005401081GF107991061081004501031001MA1999999101461MD1210091+9999MW1801REMSYN088AAXX  01101 10126 41462 73006 10037 20018 30146 40161 52009 78022 86830 333 83818 85640;
0125101260999992011010110204+53550+007667FM-15+0012ETNT V0202901N005112200019N0112651N1+00401+00201999999ADDGA1021+005401999GF102991999999999999999999MA1101491999999REMMET056METAR ETNT 011020Z 29010KT 9999 FEW018 04/02 Q1015 BLU/;
0187101260999992011010111004+53550+007667FM-12+0012ETNT V0202801N006012200019N0150001N1+00411+00171101591ADDAY111999AY211999GA1021+006001081GF103991021081008001031001MA1999999101441MD1010021+9999MW1251REMSYN082AAXX  01111 10126 41565 32806 10041 20017 30144 40159 50002 72511 82830 333 82820;
0125101260999992011010111204+53550+007667FM-15+0012ETNT V0203001N005112200019N0112651N1+00401+00201999999ADDGA1021+006001999GF102991999999999999999999MA1101491999999REMMET056METAR ETNT 011120Z 30010KT 9999 FEW020 04/02 Q1015 BLU/;
0125101260999992011010112204+53550+007667FM-15+0012ETNT V0203001N005112200019N0112651N1+00401+00201999999ADDGA1041+006001999GF104991999999999999999999MA1101591999999REMMET056METAR ETNT 011220Z 30010KT 9999 SCT020 04/02 Q1016 BLU/;
0159101260999992011010113004+53550+007667FM-12+0012ETNT V0203001N005012200019N0200001N1+00411+00171101621ADDGA1011+006001081GF101991011081008001001001MA1999999101471MD1310011+9999REMSYN076AAXX  01131 10126 42570 13005 10041 20017 30147 40162 53001 81800 333 81820;
0125101260999992011010113204+53550+007667FM-15+0012ETNT V0203101N005712200019N0112651N1+00401+00101999999ADDGA1021+006001999GF102991999999999999999999MA1101591999999REMMET056METAR ETNT 011320Z 31011KT 9999 FEW020 04/01 Q1016 BLU/;
0201101260999992011010114004+53550+007667FM-12+0012ETNT V0203101N005012200019N0200001N1+00381+00101101631ADDGA1011+006001081GF101991011081008001001001MA1999999101481MD1210041+9999REMSYN118AAXX  01141 10126 42570 13105 10038 20010 30148 40163 52004 81800 333 81820 555 BOT 11001 21001 30005 40017 999 42///;
0125101260999992011010114204+53550+007667FM-15+0012ETNT V0203101N005112200019N0112651N1+00401+00101999999ADDGA1021+006001999GF102991999999999999999999MA1101591999999REMMET056METAR ETNT 011420Z 31010KT 9999 FEW020 04/01 Q1016 BLU/;
0125101260999992011010115204+53550+007667FM-15+0012ETNT V0203101N005112200019N0112651N1+00301+00101999999ADDGA1021+006001999GF102991999999999999999999MA1101591999999REMMET056METAR ETNT 011520Z 31010KT 9999 FEW020 03/01 Q1016 BLU/;
0159101260999992011010116004+53550+007667FM-12+0012ETNT V0203001N004012200019N0150001N1+00261+00081101711ADDGA1011+006001081GF101991011021008001001001MA1999999101561MD1210091+9999REMSYN076AAXX  01161 10126 42565 13004 10026 20008 30156 40171 52009 81200 333 81820;
0125101260999992011010116204+53550+007667FM-15+0012ETNT V0203101N004612200019N0112651N1+00301+00101999999ADDGA1041+004801999GF104991999999999999999999MA1101691999999REMMET056METAR ETNT 011620Z 31009KT 9999 SCT016 03/01 Q1017 BLU/;
0187101260999992011010117004+53550+007667FM-12+0012ETNT V0203101N004012200019N0150001N1+00251+00071101741ADDAY111999AY211999GA1021+004801081GF102991021021004501001001MA1999999101591MD1210111+9999MW1251REMSYN082AAXX  01171 10126 41465 23104 10025 20007 30159 40174 52011 72511 82200 333 82816;
0148101260999992011010117204+53550+007667FM-15+0012ETNT V0203101N003612200019N0112651N1+00301+00101999999ADDGA1021+004801999GA2041+008401999GF104991999999999999999999MA1101691999999REMMET063METAR ETNT 011720Z 31007KT 9999 FEW016 SCT028 03/01 Q1017 BLU/;
0125101260999992011010118204+53550+007667FM-15+0012ETNT V0203101N004112200019N0112651N1+00301+00001999999ADDGA1021+010501999GF102991999999999999999999MA1101691999999REMMET056METAR ETNT 011820Z 31008KT 9999 FEW035 03/00 Q1017 BLU/;
0187101260999992011010119004+53550+007667FM-12+0012ETNT V0203101N004012200019N0150001N1+00251+00011101761ADDAY181999AY211999GA1011+010501061GF101991011051012501001001MA1999999101611MD1210051+9999MW1011REMSYN082AAXX  01191 10126 41665 13104 10025 20001 30161 40176 52005 70181 81500 333 81635;
0076101260999992011010119204+53550+007667FM-15+0012ETNT V0203001N004112200019N0112651N1+00201+00001999999ADDMA1101691999999REMMET049METAR ETNT 011920Z 30008KT 9999 02/00 Q1017 BLU/;
0159101260999992011010120004+53550+007667FM-12+0012ETNT V0202901N004012200019N0150001N1+00201+00011101791ADDGA1011+015001061GF101991011051017501001001MA1999999101641MD1310051+9999REMSYN076AAXX  01201 10126 42765 12904 10020 20001 30164 40179 53005 81500 333 81650;
0140101260999992011010120204+53550+007667FM-15+0012ETNT V0202901N003612200019N0112651N1+00201+00001999999ADDGA1041+006001999GF104991999999999999999999MA1101801999999MW1801REMMET065METAR ETNT 012020Z 29007KT 9999 -SHSNRA SCT020 02/M00 Q1018 BLU/;
0125101260999992011010121204+53550+007667FM-15+0012ETNT V0203101N005112200019N0112651N1+00201+00001999999ADDGA1041+015001999GF104991999999999999999999MA1101691999999REMMET056METAR ETNT 012120Z 31010KT 9999 SCT050 02/00 Q1017 BLU/;
0159101260999992011010122004+53550+007667FM-12+0012ETNT V0202801N004010150019N0150001N1+00161+00031101811ADDGA1061+015001061GF106991061051017501001001MA1999999101661MD1010051+9999REMSYN076AAXX  01221 10126 42765 62804 10016 20003 30166 40181 50005 86500 333 86650;
0147101260999992011010122204+53550+007667FM-15+0012ETNT V0203001N005710150019N0112651N1+00201+00101999999ADDGA1021+006001999GA2071+015001999GF107991999999999999999999MA1101691999999REMMET062METAR ETNT 012220Z 30011KT 9999 FEW020 BKN050 02/01 Q1017 BLU;
0187101260999992011010123004+53550+007667FM-12+0012ETNT V0203001N004010150019N0150001N1+00161+00041101791ADDAY121999AY221999GA1061+015001061GF106991061051017501001001MA1999999101641MD1010001+9999MW1261REMSYN082AAXX  01231 10126 41765 63004 10016 20004 30164 40179 50000 72622 86500 333 86650;
0177101260999992011010123124+53550+007667FM-16+0012ETNT V0203001N005110150019N0112651N1+00201+00101999999ADDGA1021+006001999GA2071+015001999GF107991999999999999999999MA1101801999999MW1801OC101081REMMET078SPECI ETNT 012312Z 30010G21KT 9999 -SHSNRA FEW020 BKN050 02/01 Q1018 BLACKBLU;
0166101260999992011010123204+53550+007667FM-15+0012ETNT V0203101N006710150019N0112651N1+00101+00001999999ADDGA1021+006001999GA2071+015001999GF107991999999999999999999MA1101801999999MW1801REMMET075METAR ETNT 012320Z 31013KT 9999 -SHSNRA FEW020 BKN050 01/00 Q1018 BLACKBLU;
0129101260999992011010200204+53550+007667FM-15+0012ETNT V0203001N004610120019N0112651N1+00201+00101999999ADDGA1071+012001999GF107991999999999999999999MA1101691999999REMMET060METAR ETNT 020020Z 30009KT 9999 BKN040 02/01 Q1017 BLACKBLU;
0159101260999992011010201004+53550+007667FM-12+0012ETNT V0203001N004010120019N0100001N1+00241+00081101791ADDGA1061+012001061GF106991061051012501001001MA1999999101641MD1510021+9999REMSYN076AAXX  02011 10126 42660 63004 10024 20008 30164 40179 55002 86500 333 86640;
0124101260999992011010201144+53550+007667FM-16+0012ETNT V0203001N004110120019N0112651N1+00201+00101999999ADDGA1071+012001999GF107991999999999999999999MA1101691999999REMMET055SPECI ETNT 020114Z 30008KT 9999 BKN040 02/01 Q1017 BLU;
0124101260999992011010201204+53550+007667FM-15+0012ETNT V0203001N004110120019N0112651N1+00201+00101999999ADDGA1071+012001999GF107991999999999999999999MA1101691999999REMMET055METAR ETNT 020120Z 30008KT 9999 BKN040 02/01 Q1017 BLU;
0159101260999992011010202004+53550+007667FM-12+0012ETNT V0203201N005010120019N0100001N1+00281+00041101801ADDGA1061+012001061GF106991061051012501001001MA1999999101651MD1310011+9999REMSYN076AAXX  02021 10126 42660 63205 10028 20004 30165 40180 53001 86500 333 86640;
0124101260999992011010202204+53550+007667FM-15+0012ETNT V0203201N005110120019N0112651N1+00301+00001999999ADDGA1071+012001999GF107991999999999999999999MA1101801999999REMMET055METAR ETNT 020220Z 32010KT 9999 BKN040 03/00 Q1018 BLU;
0124101260999992011010203204+53550+007667FM-15+0012ETNT V0203301N004110090019N0112651N1+00301+00001999999ADDGA1071+009001999GF107991999999999999999999MA1101801999999REMMET055METAR ETNT 020320Z 33008KT 9999 BKN030 03/00 Q1018 BLU;
0159101260999992011010204004+53550+007667FM-12+0012ETNT V0203101N004010090019N0150001N1+00281+00011101851ADDGA1061+009001061GF106991061051008001001001MA1999999101701MD1210061+9999REMSYN076AAXX  02041 10126 42565 63104 10028 20001 30170 40185 52006 86500 333 86630;
0125101260999992011010204204+53550+007667FM-15+0012ETNT V0203201N003110075019N0112651N1+00201+00001999999ADDGA1071+007501999GF107991999999999999999999MA1101801999999REMMET056METAR ETNT 020420Z 32006KT 9999 BKN025 02/M00 Q1018 BLU;
0159101260999992011010205004+53550+007667FM-12+0012ETNT V0203001N003010075019N0150001N1+00171-00011101861ADDGA1061+007501061GF106991061051008001001001MA1999999101711MD1210061+9999REMSYN076AAXX  02051 10126 42565 63003 10017 21001 30171 40186 52006 86500 333 86625;
0124101260999992011010205204+53550+007667FM-15+0012ETNT V0202901N003610075019N0112651N1+00201+00001999999ADDGA1071+007501999GF107991999999999999999999MA1101801999999REMMET055METAR ETNT 020520Z 29007KT 9999 BKN025 02/00 Q1018 BLU;
0126101260999992011010206204+53550+007667FM-15+0012ETNT V0203001N003112200019N0112651N1+00201+00001999999ADDGA1021+004201999GF102991999999999999999999MA1101801999999REMMET057METAR ETNT 020620Z 30006KT 9999 FEW014 02/M00 Q1018 BLU/;
0213101260999992011010207004+53550+007667FM-12+0012ETNT V0202901N003012200019N0150001N1+00121-00011101891ADDGA1011+004501081GF102991021081004501001001MA1999999101741MD1210041+9999REMSYN130AAXX  02071 10126 42465 22903 10012 21001 30174 40189 52004 82800 333 81815 555 BOT 10000 20000 30005 40017 50038 999 35/// 42///;
0126101260999992011010207204+53550+007667FM-15+0012ETNT V0202801N003112200019N0112651N1+00101+00001999999ADDGA1021+004501999GF102991999999999999999999MA1101801999999REMMET057METAR ETNT 020720Z 28006KT 9999 FEW015 01/M00 Q1018 BLU/;
0159101260999992011010208004+53550+007667FM-12+0012ETNT V0202901N003012200019N0150001N1+00071-00071101931ADDGA1011+004501081GF102991021081004501001001MA1999999101781MD1310071+9999REMSYN076AAXX  02081 10126 42465 22903 10007 21007 30178 40193 53007 82800 333 81815;
0126101260999992011010208204+53550+007667FM-15+0012ETNT V0202801N003112200019N0112651N1+00101+00001999999ADDGA1021+004501999GF102991999999999999999999MA1101901999999REMMET057METAR ETNT 020820Z 28006KT 9999 FEW015 01/M00 Q1019 BLU/;
0126101260999992011010209204+53550+007667FM-15+0012ETNT V0202601N003112200019N0112651N1+00101+00001999999ADDGA1041+006001999GF104991999999999999999999MA1101901999999REMMET057METAR ETNT 020920Z 26006KT 9999 SCT020 01/M00 Q1019 BLU/;
0164101260999992011010209454+53550+007667FM-16+0012ETNT V0202801N004110054019N0080001N1+00201+00001999999ADDGA1041+001501999GA2071+005401021GF107991999999999999999999MA1101901999999MW1801REMMET073SPECI ETNT 020945Z 28008KT 8000 -SHSNRA SCT005 BKN018TCU 02/00 Q1019 WHT;
0193101260999992011010210004+53550+007667FM-12+0012ETNT V0202901N00401001201CN0080001N1+00201+00041102011ADDAY111999AY211999GA1031+001501071GF107991071021001501999999MA1999999101861MD1210121+9999MW1831REMSYN088AAXX  02101 10126 41258 72904 10020 20004 30186 40201 52012 78311 872// 333 83705 87818;
0128101260999992011010210204+53550+007667FM-15+0012ETNT V0202801N003112200019N0112651N1+00201+00001999999ADDGA1021+005401021GF102991999999999999999999MA1101901999999REMMET059METAR ETNT 021020Z 28006KT 9999 FEW018TCU 02/00 Q1019 BLU/;
0193101260999992011010211004+53550+007667FM-12+0012ETNT V0202701N00301009001CN0150001N1+00261+00091101991ADDAY111999AY211999GA1011+005401081GF105991051081004501001001MA1999999101841MD1010061+9999MW1261REMSYN088AAXX  02111 10126 41465 52703 10026 20009 30184 40199 50006 72611 85800 333 81818 85640;
0148101260999992011010211204+53550+007667FM-15+0012ETNT V0202801N004612200019N0112651N1+00301+00101999999ADDGA1021+007501999GA2041+012901999GF104991999999999999999999MA1101901999999REMMET063METAR ETNT 021120Z 28009KT 9999 FEW025 SCT043 03/01 Q1019 BLU/;
0153101260999992011010211244+53550+007667FM-16+0012ETNT V0202901N004112200019N0112651N1+00301+00101999999ADDGA1021+007501999GA2041+012901999GF104991999999999999999999MA1101901999999REMMET068SPECI ETNT 021124Z 29008KT 9999 FEW025 SCT043 03/01 Q1019 BLACKBLU/;
0147101260999992011010211384+53550+007667FM-16+0012ETNT V0203301N003110129019N0112651N1+00301+00101999999ADDGA1021+005401999GA2071+012901999GF107991999999999999999999MA1101901999999REMMET062SPECI ETNT 021138Z 33006KT 9999 FEW018 BKN043 03/01 Q1019 BLU;
0165101260999992011010212164+53550+007667FM-16+0012ETNT V0202901N004612200019N0112651N1+00301+00101999999ADDGA1041+005401021GA2041+013501999GF104991999999999999999999MA1101901999999MW1831REMMET074SPECI ETNT 021216Z 29009KT 9999 -SHRASN SCT018TCU SCT045 03/01 Q1019 BLU/;
0165101260999992011010212204+53550+007667FM-15+0012ETNT V0202901N005712200019N0112651N1+00301+00101999999ADDGA1041+005401021GA2041+013501999GF104991999999999999999999MA1101901999999MW1831REMMET074METAR ETNT 021220Z 29011KT 9999 -SHRASN SCT018TCU SCT045 03/01 Q1019 BLU/;
0193101260999992011010213004+53550+007667FM-12+0012ETNT V0203001N00501009001CN0200001N1+00241+00041101991ADDAY121999AY221999GA1031+003601081GF106991061081004501001001MA1999999101841MD1510021+9999MW1261REMSYN088AAXX  02131 10126 41470 63005 10024 20004 30184 40199 55002 72622 86800 333 83812 84640;
0162101260999992011010213204+53550+007667FM-15+0012ETNT V0203001N003612200019N0112651N1+00201+00001999999ADDGA1021+005401021GA2041+012001999GF104991999999999999999999MA1101901999999MW1161REMMET071METAR ETNT 021320Z 30007KT 9999 VCSH FEW018TCU SCT040 02/00 Q1019 BLU/;
0251101260999992011010214004+53550+007667FM-12+0012ETNT V0202901N004010120019N0150001N1+00221+00061102001ADDAY111999AY211999GA1021+004201091GA2041+012001061GF106991061091004501001001MA1999999101851MD1310011+9999MW1161REMSYN130AAXX  02141 10126 41465 62904 10022 20006 30185 40200 53001 71611 86900 333 82914 84640 555 BOT 11001 20000 30005 40017 999 42///;
0173101260999992011010214044+53550+007667FM-16+0012ETNT V0202901N002612200019N0112651N1+00201+00101999999ADDGA1021+003001999GA2021+005401091GA3041+013501999GF104991999999999999999999MA1101901999999REMMET072SPECI ETNT 021404Z 29005KT 9999 FEW010 FEW018CB SCT045 02/01 Q1019 BLU/;
0155101260999992011010214204+53550+007667FM-15+0012ETNT V0203001N004112200019N0112651N1+00201+00001999999ADDGA1021+005401091GA2041+013501999GF104991999999999999999999MA1101901999999REMMET070METAR ETNT 021420Z 30008KT 9999 FEW018CB SCT045 02/00 Q1019 RERA BLU/;
0137101260999992011010214334+53550+007667FM-16+0012ETNT V0203001N00411004501CN0050001N1+00201+00001999999ADDGA1071+004501091GA2041+013501999MA1102001999999MW1801REMMET072SPECI ETNT 021433Z 30008KT 5000 -SHSNRA BKN015CB SCT045 02/00 Q1020 WHT;
0150101260999992011010215204+53550+007667FM-15+0012ETNT V0202801N003112200019N0112651N1+00201+00001999999ADDGA1021+004501091GA2041+012001999GF104991999999999999999999MA1101901999999REMMET065METAR ETNT 021520Z 28006KT 9999 FEW015CB SCT040 02/00 Q1019 BLU/;
0165101260999992011010216004+53550+007667FM-12+0012ETNT V0202801N00301004201CN0150001N1+00121+00031102021ADDGA1021+005401091GF105991051091004501001001MA1999999101871MD1210031+9999REMSYN082AAXX  02161 10126 42465 52803 10012 20003 30187 40202 52003 85900 333 82918 84640;
0127101260999992011010216204+53550+007667FM-15+0012ETNT V0203201N005112200019N0112651N1+00201+00001999999ADDGA1021+005401091GF102991999999999999999999MA1102001999999REMMET058METAR ETNT 021620Z 32010KT 9999 FEW018CB 02/00 Q1020 BLU/;
0159101260999992011010217004+53550+007667FM-12+0012ETNT V0203001N003012200019N0200001N1+00091-00021102021ADDGA1011+005401091GF101991011091004501001011MA1999999101871MD1110021+9999REMSYN076AAXX  02171 10126 42470 13003 10009 21002 30187 40202 51002 81901 333 81918;
0126101260999992011010217204+53550+007667FM-15+0012ETNT V0202901N003612200019N0112651N1+00101+00001999999ADDGA1021+030001999GF102991999999999999999999MA1102001999999REMMET057METAR ETNT 021720Z 29007KT 9999 FEW100 01/M00 Q1020 BLU/;
0126101260999992011010218204+53550+007667FM-15+0012ETNT V0203001N002612200019N0112651N1+00101+00001999999ADDGA1041+027001999GF104991999999999999999999MA1102001999999REMMET057METAR ETNT 021820Z 30005KT 9999 SCT090 01/M00 Q1020 BLU/;
0165101260999992011010219004+53550+007667FM-12+0012ETNT V0203101N003012200019N0200001N1+00051-00051102071ADDGA1011+015001061GF104991041051017501031001MA1999999101921MD1310051+9999REMSYN082AAXX  02191 10126 42770 43103 10005 21005 30192 40207 53005 84530 333 81650 83358;
0126101260999992011010219204+53550+007667FM-15+0012ETNT V0202801N002612200019N0112651N1+00001+00001999999ADDGA1021+007501999GF102991999999999999999999MA1102001999999REMMET057METAR ETNT 021920Z 28005KT 9999 FEW025 00/M00 Q1020 BLU/;
0159101260999992011010220004+53550+007667FM-12+0012ETNT V0202601N003012200019N0200001N1+00001-00051102081ADDGA1011+007501081GF102991011081008001031001MA1999999101931MD1210061+9999REMSYN076AAXX  02201 10126 42570 22603 10000 21005 30193 40208 52006 81830 333 81825;
0127101260999992011010220204+53550+007667FM-15+0012ETNT V0202801N003612200019N0112651N1+00001+00001999999ADDGA1021+024001999GF102991999999999999999999MA1102001999999REMMET058METAR ETNT 022020Z 28007KT 9999 FEW080 M00/M00 Q1020 BLU/;
0127101260999992011010221204+53550+007667FM-15+0012ETNT V0202801N003112200019N0112651N1+00001+00001999999ADDGA1041+008401999GF104991999999999999999999MA1102101999999REMMET058METAR ETNT 022120Z 28006KT 9999 SCT028 M00/M00 Q1021 BLU/;
0164101260999992011010221494+53550+007667FM-16+0012ETNT V0202701N002110135019N0112651N1+00001+00001999999ADDGA1021+006001021GA2071+013501999GF107991999999999999999999MA1102001999999MW1801REMMET073SPECI ETNT 022149Z 27004KT 9999 -SHSNRA FEW020TCU BKN045 00/00 Q1020 BLU;
0193101260999992011010222004+53550+007667FM-12+0012ETNT V0202701N00201012001CN0100001N1+00001-00051102111ADDAY111999AY211999GA1021+006001081GF105991051081008001001001MA1999999101961MD1210041+9999MW1831REMSYN088AAXX  02221 10126 41560 52702 10000 21005 30196 40211 52004 78311 85800 333 82820 85645;
0160101260999992011010222034+53550+007667FM-16+0012ETNT V0203201N002110135019N0050001N1+00001+00001999999ADDGA1041+005401091GA2071+013501999GF107991999999999999999999MA1102101999999MW1881REMMET069SPECI ETNT 022203Z 32004KT 5000 SHGS SCT018CB BKN045 00/00 Q1021 WHT;
0160101260999992011010222094+53550+007667FM-16+0012ETNT V0202901N002112200019N0112651N1+00101+00101999999ADDGA1021+005401091GA2041+013501999GF104991999999999999999999MA1102001999999REMMET075SPECI ETNT 022209Z 29004KT 9999 FEW018CB SCT045 01/01 Q1020 REGS BLACKBLU/;
0161101260999992011010222204+53550+007667FM-15+0012ETNT V0202901N002612200019N0112651N1+00101+00001999999ADDGA1021+005401091GA2041+024001999GF104991999999999999999999MA1102001999999REMMET076METAR ETNT 022220Z 29005KT 9999 FEW018CB SCT080 01/M00 Q1020 REGS BLACKBLU/;
0139101260999992011010222444+53550+007667FM-16+0012ETNT V0202801N00311004501CN0050001N1+00101+00001999999ADDGA1071+004501091GA2041+024001999MA1102101999999MW1881REMMET074SPECI ETNT 022244Z 28006KT 5000 SHGS BKN015CB SCT080 01/00 Q1021 BLACKWHT;
0193101260999992011010223004+53550+007667FM-12+0012ETNT V0203001N004010045019N0050001N1+00101+00021102131ADDAY181999AY211999GA1051+004501091GF107991051091004501031001MA1999999101981MD1210051+9999MW1871REMSYN088AAXX  02231 10126 41450 73004 10010 20002 30198 40213 52005 78781 85930 333 85915 83358;
0161101260999992011010223204+53550+007667FM-15+0012ETNT V0202601N003112200019N0112651N1+00101+00001999999ADDGA1021+004501091GA2041+008401999GF104991999999999999999999MA1102101999999REMMET076METAR ETNT 022320Z 26006KT 9999 FEW015CB SCT028 01/M00 Q1021 REGS BLACKBLU/;
0163101260999992011010300204+53550+007667FM-15+0012ETNT V0202601N002112200019N0112651N1+00001+00001999999ADDGA1021+006001021GA2041+012001999GF104991999999999999999999MA1102101999999REMMET078METAR ETNT 030020Z 26004KT 9999 FEW020TCU SCT040 M00/M00 Q1021 REGS BLACKBLU/;
0165101260999992011010301004+53550+007667FM-12+0012ETNT V0202801N002010120019N0200001N1-00101-00161102121ADDGA1021+006001081GF105991051081008001001001MA1999999101971MD1010011+9999REMSYN082AAXX  03011 10126 42570 52802 11010 21016 30197 40212 50001 85800 333 82820 84640;
0136101260999992011010301204+53550+007667FM-15+0012ETNT V0202901N002110120019N0112651N1+00001-00101999999ADDGA1071+012001999GF107991999999999999999999MA1102101999999REMMET067METAR ETNT 030120Z 29004KT 9999 BKN040 M00/M01 Q1021 REGS BLACKBLU;
0159101260999992011010302004+53550+007667FM-12+0012ETNT V0202701N002010120019N0200001N1-00071-00151102131ADDGA1051+012001061GF105991051051012501001001MA1999999101981MD1510001+9999REMSYN076AAXX  03021 10126 42670 52702 11007 21015 30198 40213 55000 85500 333 85640;
0137101260999992011010302204+53550+007667FM-15+0012ETNT V0202701N002112200019N0112651N1-00101-00201999999ADDGA1021+012001999GF102991999999999999999999MA1102101999999REMMET068METAR ETNT 030220Z 27004KT 9999 FEW040 M01/M02 Q1021 REGS BLACKBLU/;
0137101260999992011010303204+53550+007667FM-15+0012ETNT V0202601N002612200019N0112651N1-00101-00101999999ADDGA1021+012001999GF102991999999999999999999MA1102101999999REMMET068METAR ETNT 030320Z 26005KT 9999 FEW040 M01/M01 Q1021 REGS BLACKBLU/;
0132101260999992011010303514+53550+007667FM-16+0012ETNT V0202701N002612200019N0112651N1-00101-00101999999ADDGA1021+012001999GF102991999999999999999999MA1102101999999REMMET063SPECI ETNT 030351Z 27005KT 9999 FEW040 M01/M01 Q1021 REGS BLU/;
0127101260999992011010303524+53550+007667FM-16+0012ETNT V0202701N002612200019N0112651N1-00101-00101999999ADDGA1021+012001999GF102991999999999999999999MA1102101999999REMMET058SPECI ETNT 030352Z 27005KT 9999 FEW040 M01/M01 Q1021 BLU/;
0159101260999992011010304004+53550+007667FM-12+0012ETNT V0202701N003012200019N0200001N1-00111-00131102121ADDGA1011+012001061GF101991011051012501001001MA1999999101971MD1010001+9999REMSYN076AAXX  03041 10126 42670 12703 11011 21013 30197 40212 50000 81500 333 81640;
0158101260999992011010304204+53550+007667FM-15+0012ETNT V0202601N002612200019N0112651N1-00101-00101999999ADDGA1021+006001021GA2041+012001999GF104991999999999999999999MA1102101999999REMMET073METAR ETNT 030420Z 26005KT 9999 FEW020TCU SCT040 M01/M01 Q1021 BLACKBLU/;
0193101260999992011010305004+53550+007667FM-12+0012ETNT V0202801N00301012001CN0200001N1-00081-00131102121ADDAY111999AY211999GA1011+006001081GF105991051081008001001001MA1999999101971MD1610011+9999MW1261REMSYN088AAXX  03051 10126 41570 52803 11008 21013 30197 40212 56001 72611 85800 333 81820 84637;
0127101260999992011010305204+53550+007667FM-15+0012ETNT V0202601N002112200019N0112651N1-00101-00101999999ADDGA1041+009001999GF104991999999999999999999MA1102101999999REMMET058METAR ETNT 030520Z 26004KT 9999 SCT030 M01/M01 Q1021 BLU/;
0164101260999992011010306204+53550+007667FM-15+0012ETNT V0202801N003612200019N0112651N1-00101-00101999999ADDGA1021+006001999GA2041+018001999GF104991999999999999999999MA1102001999999REMMET079METAR ETNT 030620Z 28007KT 9999 FEW020 SCT060 M01/M01 Q1020 BLU/BLU/ TEMPO GRN;
0263101260999992011010307004+53550+007667FM-12+0012ETNT V0202801N003012200019N0200001N1-00051-00091102101ADDAY111999AY211999GA1011+006001081GA2031+018001061GF104991041081008001001001MA1999999101951MD1810021+9999MW1261REMSYN142AAXX  03071 10126 41570 42803 11005 21009 30195 40210 58002 72611 84800 333 81820 83656 555 BOT 11001 20000 30005 40017 50037 999 35/// 42///;
0144101260999992011010307204+53550+007667FM-15+0012ETNT V0202701N003112200019N0112651N1+00001+00001999999ADDGA1021+006001021GF102991999999999999999999MA1102101999999REMMET075METAR ETNT 030720Z 27006KT 9999 FEW020TCU M00/M00 Q1021 BLU/BLU/ TEMPO GRN;
0187101260999992011010308004+53550+007667FM-12+0012ETNT V0202501N003012200019N0200001N1-00101-00121102141ADDAY111999AY211999GA1011+006001081GF103991021081008001001011MA1999999101991MD1310021+9999MW1111REMSYN082AAXX  03081 10126 41570 32503 11010 21012 30199 40214 53002 71111 82801 333 81820;
0176101260999992011010308204+53550+007667FM-15+0012ETNT V0202601N002612200019N0112651N1-00101-00101999999ADDED126U04509GA1021+006001021GF102991999999999999999999MA1102101999999MW1121REMMET090METAR ETNT 030820Z 26005KT 9999 R26/0450D MIFG FEW020TCU M01/M01 Q1021 BLU/BLU/ TEMPO GRN;
0172101260999992011010309004+53550+007667FM-15+0012ETNT V0202701N002610126019N0038001N1+00001-00101999999ADDGA1041+006001021GA2071+012601999GF107991999999999999999999MA1102101999999REMMET087SPECI ETNT 030859Z 27005KT 3800 SHSN SCT020TCU BKN042 M00/M01 Q1021 GRN BLU/ TEMPO GRN;
0193101260999992011010309024+53550+007667FM-16+0012ETNT V0202801N002610126019N0028001N1+00001+00001999999ADDED126U17009GA1041+006001021GA2071+012601999GF107991999999999999999999MA1102101999999REMMET097SPECI ETNT 030902Z 28005KT 2800 R26/1700D SHSN SCT020TCU BKN042 M00/M00 Q1021 YLO BLU/ TEMPO YLO;
0194101260999992011010309044+53550+007667FM-16+0012ETNT V0202901N003110045019N0008001N1+00001+00001999999ADDED126U17009GA1071+004501021GA2071+012601999GF107991999999999999999999MA1102101999999REMMET098SPECI ETNT 030904Z 29006KT 0800 R26/1700D +SHSN BKN015TCU BKN042 M00/M00 Q1021 AMB BLU/ TEMPO AMB;
0175101260999992011010309084+53550+007667FM-16+0012ETNT V0202901N002610045019N0038001N1+00001+00001999999ADDED126U18009GA1071+004501021GF107991999999999999999999MA1102101999999REMMET095SPECI ETNT 030908Z 29005KT 3800 R26/1800D SHSN BKN015TCU M00/M00 Q1021 RESN GRN BLU/ TEMPO AMB;
0176101260999992011010309114+53550+007667FM-16+0012ETNT V0202901N002610045019N0070001N1+00001+00001999999ADDGA1071+004501021GA2071+012601999GF107991999999999999999999MA1102101999999REMMET091SPECI ETNT 030911Z 29005KT 7000 -SHSN BKN015TCU BKN042 00/00 Q1021 RESN WHT BLU/ TEMPO AMB;
0199101260999992011010309204+53550+007667FM-15+0012ETNT V0203101N002110060019N0112651N1+00001+00001999999ADDGA1021+002701999GA2071+006001021GA3071+012601999GF107991999999999999999999MA1102101999999REMMET098METAR ETNT 030920Z 31004KT 9999 -SHSN FEW009 BKN020TCU BKN042 00/00 Q1021 RESN WHT BLU/ TEMPO AMB;
0199101260999992011010309264+53550+007667FM-16+0012ETNT V0203101N001510060019N0070001N1+00001+00001999999ADDGA1021+002701999GA2071+006001021GA3071+012601999GF107991999999999999999999MA1102101999999REMMET098SPECI ETNT 030926Z 31003KT 7000 -SHSN FEW009 BKN020TCU BKN042 00/00 Q1021 BLACKWHT BLU/ TEMPO AMB;
0227101260999992011010309304+53550+007667FM-16+0012ETNT V0203201N001510051019N0035001N1+00001+00001999999ADDED126U16009GA1021+002701999GA2071+005101021GA3071+012601999GF107991999999999999999999MA1102101999999MW1881REMMET109SPECI ETNT 030930Z 32003KT 3500 R26/1600D SHSNGS FEW009 BKN017TCU BKN042 00/00 Q1021 BLACKYLO BLU/ TEMPO AMB;
0205101260999992011010309354+53550+007667FM-16+0012ETNT V0203201N001510051019N0008001N1+00001+00001999999ADDED126U22009GA1041+001201999GA2071+005101021GF107991999999999999999999MA1102101999999MW1881REMMET103SPECI ETNT 030935Z 32003KT 0800 R26/2200D +SHSNGS SCT004 BKN017TCU 00/00 Q1021 BLACKAMB BLU/ TEMPO AMB;
0209101260999992011010309424+53550+007667FM-16+0012ETNT V0203001N002110048019N0028001N1+00001+00001999999ADDED126U16009GA1041+001201999GA2071+004801021GF107991999999999999999999MA1102101999999MW1881REMMET107SPECI ETNT 030942Z 30004KT 2800 R26/1600D SHSNGS SCT004 BKN016TCU 00/00 Q1021 RESN BLACKYLO BLU/ TEMPO AMB;
0181101260999992011010309574+53550+007667FM-16+0012ETNT V0202501N002612200019N0060001N1+00001+00001999999ADDGA1021+001201999GA2041+005101021GF104991999999999999999999MA1102101999999REMMET096SPECI ETNT 030957Z 25005KT 6000 -SHSN FEW004 SCT017TCU 00/00 Q1021 RESN BLACKWHT BLU/ TEMPO AMB;
0193101260999992011010310004+53550+007667FM-12+0012ETNT V0202701N00201006001CN0029001N1+00021+00001102151ADDAY181011AY221011GA1021+001201071GF106991061081001501001001MA1999999102001MD1210051+9999MW1871REMSYN088AAXX  03101 10126 41229 62702 10002 20000 30200 40215 52005 78782 86800 333 82704 85817;
0198101260999992011010310204+53550+007667FM-15+0012ETNT V0202701N002612200019N0112651N1+00101+00101999999ADDGA1021+002701999GA2021+006001021GA3041+013501999GF104991999999999999999999MA1102101999999REMMET097METAR ETNT 031020Z 27005KT 9999 FEW009 FEW020TCU SCT045 01/01 Q1021 RESN BLACKBLU/BLU/ TEMPO AMB;
0148101260999992011010310354+53550+007667FM-16+0012ETNT V0202601N002612200019N0112651N1+00101+00001999999ADDGA1021+006001021GF102991999999999999999999MA1102101999999REMMET079SPECI ETNT 031035Z 26005KT 9999 FEW020TCU 01/M00 Q1021 RESN BLU/BLU/ TEMPO AMB;
0187101260999992011010311004+53550+007667FM-12+0012ETNT V0202401N003012200019N0150001N1+00061-00061102131ADDAY111999AY211999GA1021+006001081GF104991041081008001001011MA1999999101981MD1810011+9999MW1271REMSYN082AAXX  03111 10126 41565 42403 10006 21006 30198 40213 58001 72711 84801 333 82820;
0166101260999992011010311204+53550+007667FM-15+0012ETNT V0202801N003110150019N0112651N1+00101+00001999999ADDGA1021+006001021GA2071+015001999GF107991999999999999999999MA1102101999999REMMET081METAR ETNT 031120Z 28006KT 9999 FEW020TCU BKN050 01/M00 Q1021 BLU BLU/ TEMPO AMB;
0202101260999992011010311414+53550+007667FM-16+0012ETNT V0202701N00211005401CN0112651N1+00101+00001999999ADDGA1021+001501999GA2041+005401021GA3071+015001999GF107991999999999999999999MA1102101999999MW1801REMMET095SPECI ETNT 031141Z 27004KT 9999 -SHSNRA FEW005 SCT018TCU BKN050 01/00 Q1021 BLU BLU/ TEMPO AMB;
0162101260999992011010312204+53550+007667FM-15+0012ETNT V0202701N003110180019N0112651N1+00201+00101999999ADDGA1021+001801999GA2071+018001999GF107991999999999999999999MA1102101999999REMMET077METAR ETNT 031220Z 27006KT 9999 FEW006 BKN060 02/01 Q1021 BLU BLU/ TEMPO AMB;
0193101260999992011010313004+53550+007667FM-12+0012ETNT V0202601N00201012001CN0150001N1+00191+00071102101ADDAY181999AY211999GA1021+007801081GF106991061081008001001011MA1999999101951MD1710051+9999MW1831REMSYN088AAXX  03131 10126 41565 62602 10019 20007 30195 40210 57005 78381 86801 333 82826 85656;
0162101260999992011010313204+53550+007667FM-15+0012ETNT V0202601N003610180019N0112651N1+00201+00101999999ADDGA1021+006601999GA2071+018001999GF107991999999999999999999MA1102001999999REMMET077METAR ETNT 031320Z 26007KT 9999 FEW022 BKN060 02/01 Q1020 BLU BLU/ TEMPO AMB;
0223101260999992011010314004+53550+007667FM-12+0012ETNT V0202701N004010180019N0200001N1+00181+00041102081ADDGA1021+007501081GA2031+018001061GF107991051081008001001021MA1999999101931MD1710051+9999REMSYN124AAXX  03141 10126 42570 72704 10018 20004 30193 40208 57005 85802 333 82825 83656 555 BOT 11001 20000 30005 40017 999 42///;
0165101260999992011010314204+53550+007667FM-15+0012ETNT V0202601N003110180019N0112651N1+00201+00001999999ADDGA1041+006001021GA2071+018001999GF107991999999999999999999MA1102001999999REMMET080METAR ETNT 031420Z 26006KT 9999 SCT020TCU BKN060 02/00 Q1020 BLU BLU/ TEMPO AMB;
0171101260999992011010314484+53550+007667FM-16+0012ETNT V0202701N004110054019N0070001N1+00201+00001999999ADDGA1021+003001999GA2071+005401021GF107991999999999999999999MA1102001999999REMMET086SPECI ETNT 031448Z 27008KT 7000 -SHSN FEW010 BKN018TCU 02/00 Q1020 WHT BLU/ TEMPO AMB;
0179101260999992011010315004+53550+007667FM-15+0012ETNT V0202701N004610045019N0045001N1+00101+00001999999ADDGA1021+001501999GA2071+004501021GF107991999999999999999999MA1102001999999MW1801REMMET088SPECI ETNT 031456Z 27009KT 4500 -SHSNRA FEW005 BKN015TCU 01/00 Q1020 GRN BLU/ TEMPO AMB;
0188101260999992011010315084+53550+007667FM-16+0012ETNT V0202601N00361005401CN0080001N1+00101+00001999999ADDGA1021+003601999GA2041+005401021GA3071+015001999GF107991999999999999999999MA1102001999999REMMET087SPECI ETNT 031508Z 26007KT 8000 FEW012 SCT018TCU BKN050 01/00 Q1020 BLU BLU/ TEMPO AMB;
0165101260999992011010315204+53550+007667FM-15+0012ETNT V0202601N003110150019N0112651N1+00101+00001999999ADDGA1021+005401021GA2071+015001999GF107991999999999999999999MA1102001999999REMMET080METAR ETNT 031520Z 26006KT 9999 FEW018TCU BKN050 01/00 Q1020 BLU BLU/ TEMPO AMB;
0193101260999992011010316004+53550+007667FM-12+0012ETNT V0202601N00301009001CN0120001N1+00101+00031102051ADDAY121999AY221999GA1021+005401081GF107991071081004501999999MA1999999101901MD1710051+9999MW1851REMSYN088AAXX  03161 10126 41462 72603 10010 20003 30190 40205 57005 78522 878// 333 82818 85645;
0159101260999992011010316034+53550+007667FM-16+0012ETNT V0202601N002610150019N0112651N1+00101+00001999999ADDGA1021+005401999GA2071+015001999GF107991999999999999999999MA1102001999999REMMET074SPECI ETNT 031603Z 26005KT 9999 FEW018 BKN050 01/00 Q1020 BLU FCST CANCEL;
0153101260999992011010316204+53550+007667FM-15+0012ETNT V0202701N002110054019N0112651N1+00101+00001999999ADDGA1021+003001999GA2071+005401999GF107991999999999999999999MA1102001999999REMMET068METAR ETNT 031620Z 27004KT 9999 -SHSN FEW010 BKN018 01/00 Q1020 WHT;
0193101260999992011010317004+53550+007667FM-12+0012ETNT V0202301N00301009001CN0150001N1+00061+00011102021ADDAY181999AY221999GA1021+005401081GF107991071081004501999999MA1999999101871MD1810061+9999MW1261REMSYN088AAXX  03171 10126 41465 72303 10006 20001 30187 40202 58006 72682 878// 333 82818 87656;
0147101260999992011010317204+53550+007667FM-15+0012ETNT V0202201N002110180019N0112651N1+00101+00101999999ADDGA1021+004801999GA2071+018001999GF107991999999999999999999MA1102001999999REMMET062METAR ETNT 031720Z 22004KT 9999 FEW016 BKN060 01/01 Q1020 BLU;
0124101260999992011010318204+53550+007667FM-15+0012ETNT V0202401N002610180019N0112651N1+00101+00001999999ADDGA1071+018001999GF107991999999999999999999MA1101901999999REMMET055METAR ETNT 031820Z 24005KT 9999 BKN060 01/00 Q1019 BLU;
0165101260999992011010319004+53550+007667FM-12+0012ETNT V0202501N003012200019N0150001N1+00041-00021101971ADDGA1011+002701071GF104991031051002501031001MA1999999101821MD1710081+9999REMSYN082AAXX  03191 10126 42365 42503 10004 21002 30182 40197 57008 83530 333 81709 83656;
0124101260999992011010319204+53550+007667FM-15+0012ETNT V0202401N002610180019N0112651N1+00001+00001999999ADDGA1071+018001999GF107991999999999999999999MA1101901999999REMMET055METAR ETNT 031920Z 24005KT 9999 BKN060 00/00 Q1019 BLU;
0187101260999992011010320004+53550+007667FM-12+0012ETNT V0202301N003010180019N0070001N1+00001-00041101931ADDAY111999AY211999GA1071+018001061GF107991071051017501999999MA1999999101781MD1710091+9999MW1101REMSYN082AAXX  03201 10126 41757 72303 10000 21004 30178 40193 57009 71011 875// 333 87656;
0126101260999992011010320204+53550+007667FM-15+0012ETNT V0202301N002610084019N0060001N1+00001+00001999999ADDGA1071+008401999GF107991999999999999999999MA1101901999999REMMET057METAR ETNT 032020Z 23005KT 6000 BKN028 M00/M00 Q1019 WHT;
0159101260999992011010320294+53550+007667FM-16+0012ETNT V0202401N002610120019N0040001N1+00001+00001999999ADDGA1021+006001999GA2071+012001999GF107991999999999999999999MA1101901999999MW1871REMMET068SPECI ETNT 032029Z 24005KT 4000 -SHGS FEW020 BKN040 00/00 Q1019 GRN;
0163101260999992011010320354+53550+007667FM-16+0012ETNT V0202401N003110120019N0035001N1+00001+00001999999ADDGA1041+006001021GA2071+012001999GF107991999999999999999999MA1101901999999MW1881REMMET072SPECI ETNT 032035Z 24006KT 3500 SHSNGS SCT020TCU BKN040 00/00 Q1019 YLO;
0164101260999992011010320544+53550+007667FM-16+0012ETNT V0202301N002610120019N0040001N1+00001+00001999999ADDGA1041+003601021GA2071+012001999GF107991999999999999999999MA1101901999999MW1101REMMET073SPECI ETNT 032054Z 23005KT 4000 BR SCT012TCU BKN040 00/00 Q1019 RESN GRN;
0163101260999992011010321204+53550+007667FM-15+0012ETNT V0202301N003110120019N0045001N1+00001+00001999999ADDGA1021+001501999GA2071+012001999GF107991999999999999999999MA1101801999999MW1101REMMET072METAR ETNT 032120Z 23006KT 4500 BR FEW005 BKN040 M00/M00 Q1018 RESN GRN;
0193101260999992011010322004+53550+007667FM-12+0012ETNT V0202401N00401000601CN0045001N1+00031+00011101901ADDAY121999AY221999GA1031+000901071GF107991071051000751999999MA1999999101751MD1710071+9999MW1271REMSYN088AAXX  03221 10126 41145 72404 10003 20001 30175 40190 57007 72722 875// 333 83703 87636;
0156101260999992011010322204+53550+007667FM-15+0012ETNT V0202401N003610084019N0045001N1+00001+00001999999ADDGA1041+000901999GA2071+008401999GF107991999999999999999999MA1101801999999MW1101REMMET065METAR ETNT 032220Z 24007KT 4500 BR SCT003 BKN028 00/00 Q1018 GRN;
0156101260999992011010322294+53550+007667FM-16+0012ETNT V0202401N003110009019N0042001N1+00001+00001999999ADDGA1071+000901999GA2071+006601999GF107991999999999999999999MA1101801999999MW1101REMMET065SPECI ETNT 032229Z 24006KT 4200 BR BKN003 BKN022 00/00 Q1018 YLO;
0193101260999992011010323004+53550+007667FM-12+0012ETNT V0202301N003010009019N0040001N1+00001-00031101891ADDAY121999AY221999GA1061+000901071GF107991071051000751999999MA1999999101741MD1710041+9999MW1101REMSYN088AAXX  03231 10126 41140 72303 10000 21003 30174 40189 57004 71022 875// 333 86703 87628;
0181101260999992011010323204+53550+007667FM-15+0012ETNT V0202301N002610084019N0040001N1+00001+00001999999ADDGA1041+001201999GA2071+008401999GA3071+021001999GF107991999999999999999999MA1101801999999MW1101REMMET074METAR ETNT 032320Z 23005KT 4000 BR SCT004 BKN028 BKN070 M00/M00 Q1018 GRN;
0181101260999992011010400204+53550+007667FM-15+0012ETNT V0202101N00311021001CN0035001N1-00101-00101999999ADDGA1041+000901999GA2041+021001999GA3071+036001999GF107991999999999999999999MA1101801999999MW1101REMMET074METAR ETNT 040020Z 21006KT 3500 BR SCT003 SCT070 BKN120 M01/M01 Q1018 YLO;
0135101260999992011010400344+53550+007667FM-16+0012ETNT V0202201N003110006019N0020001N1-00101-00101999999ADDGA1071+000601999GF107991999999999999999999MA1101801999999MW1101REMMET060SPECI ETNT 040034Z 22006KT 2000 BR BKN002 M01/M01 Q1018 AMB;
0156101260999992011010400464+53550+007667FM-16+0012ETNT V0202201N003610003019N0015001N1-00101-00101999999ADDED126U30009GA1071+000301999GF107991999999999999999999MA1101801999999MW1101REMMET070SPECI ETNT 040046Z 22007KT 1500 R26/3000N BR BKN001 M01/M01 Q1018 RED;
0187101260999992011010401004+53550+007667FM-12+0012ETNT V0202201N004010003019N0015001N1-00061-00061101801ADDAY121999AY221999GA1071+000301071GF108991071061000251999999MA1999999101651MD1710101+9999MW1101REMSYN082AAXX  04011 10126 41015 82204 11006 21006 30165 40180 57010 71022 876// 333 87701;
0156101260999992011010401204+53550+007667FM-15+0012ETNT V0202201N003610003019N0012001N1+00001+00001999999ADDED126U22009GA1081+000301999GF108991999999999999999999MA1101691999999MW1101REMMET070METAR ETNT 040120Z 22007KT 1200 R26/2200U BR OVC001 M00/M00 Q1017 RED;
0193101260999992011010402004+53550+007667FM-12+0012ETNT V0202301N003010003019N0015001N1-00011-00011101791ADDAY121999AY221999GA1051+000301071GF108991071061000251999999MA1999999101641MD1710101+9999MW1101REMSYN088AAXX  04021 10126 41015 82303 11001 21001 30164 40179 57010 71022 876// 333 85701 87703;
0154101260999992011010402114+53550+007667FM-16+0012ETNT V0202201N003110006019N0015001N1+00001+00001999999ADDED126U45009GA1071+000601999GF107991999999999999999999MA1101691999999MW1101REMMET068SPECI ETNT 040211Z 22006KT 1500 R26/4500D BR BKN002 00/00 Q1017 AMB;
0177101260999992011010402204+53550+007667FM-15+0012ETNT V0202201N003610006019N0015001N1+00001+00001999999ADDED126U44009GA1071+000601999GA2071+001201999GF107991999999999999999999MA1101691999999MW1101REMMET075METAR ETNT 040220Z 22007KT 1500 R26/4400N BR BKN002 BKN004 00/00 Q1017 AMB;
0156101260999992011010403204+53550+007667FM-15+0012ETNT V0202201N003110009019N0022001N1+00001+00001999999ADDGA1041+000601999GA2071+000901999GF107991999999999999999999MA1101691999999MW1101REMMET065METAR ETNT 040320Z 22006KT 2200 BR SCT002 BKN003 00/00 Q1017 YLO;
0193101260999992011010404004+53550+007667FM-12+0012ETNT V0202201N00401000601CN0025001N1+00021+00011101691ADDAY121999AY221999GA1021+000601071GF108991071061000751999999MA1999999101541MD1710111+9999MW1101REMSYN088AAXX  04041 10126 41125 82204 10002 20001 30154 40169 57011 71022 876// 333 82702 87703;
0156101260999992011010404204+53550+007667FM-15+0012ETNT V0202201N003610009019N0025001N1+00001+00001999999ADDGA1071+000901999GA2071+008701999GF107991999999999999999999MA1101591999999MW1101REMMET065METAR ETNT 040420Z 22007KT 2500 BR BKN003 BKN029 00/00 Q1016 YLO;
0187101260999992011010405004+53550+007667FM-12+0012ETNT V0202101N004010012019N0025001N1+00021+00001101651ADDAY121999AY221999GA1071+001201071GF108991071061001501999999MA1999999101501MD1710141+9999MW1101REMSYN082AAXX  04051 10126 41225 82104 10002 20000 30150 40165 57014 71022 876// 333 87704;
0156101260999992011010405204+53550+007667FM-15+0012ETNT V0202101N003610012019N0028001N1+00001+00001999999ADDGA1071+001201999GA2071+018001999GF107991999999999999999999MA1101591999999MW1101REMMET065METAR ETNT 040520Z 21007KT 2800 BR BKN004 BKN060 00/00 Q1016 YLO;
0160101260999992011010406204+53550+007667FM-15+0012ETNT V0202001N004110012019N0030001N1+00001+00001999999ADDGA1071+001201999GA2071+015001999GF107991999999999999999999MA1101491999999MW1101REMMET069METAR ETNT 040620Z 20008KT 3000 BR BKN004 BKN050 00/00 Q1015 YLO YLO;
0263101260999992011010407004+53550+007667FM-12+0012ETNT V0202001N004010015019N0035001N1+00021-00021101561ADDAY121999AY221999GA1051+001501071GA2071+014401061GF108991071051001501999999MA1999999101411MD1610131+9999MW1101REMSYN142AAXX  04071 10126 41235 82004 10002 21002 30141 40156 56013 71022 875// 333 85705 87648 555 BOT 11001 20000 30005 40017 50037 999 35/// 42///;
0170101260999992011010407204+53550+007667FM-15+0012ETNT V0202001N004110144019N0030001N1+00001+00001999999ADDGA1041+001501999GA2071+014401999GF107991999999999999999999MA1101491999999MW1101MW2711REMMET073METAR ETNT 040720Z 20008KT 3000 -SN BR SCT005 BKN048 00/00 Q1015 YLO YLO;
0193101260999992011010408004+53550+007667FM-12+0012ETNT V0202001N00501001201CN0030001N1+00031-00041101541ADDAY171999AY221999GA1021+001501071GF108991071051001501999999MA1999999101391MD1610111+9999MW1701REMSYN088AAXX  04081 10126 41230 82005 10003 21004 30139 40154 56011 77072 875// 333 82705 87630;
0171101260999992011010408204+53550+007667FM-15+0012ETNT V0202001N004610084019N0035001N1+00001+00001999999ADDGA1021+001801999GA2071+008401999GF107991999999999999999999MA1101491999999MW1101MW2711REMMET074METAR ETNT 040820Z 20009KT 3500 -SN BR FEW006 BKN028 00/M00 Q1015 YLO YLO;
0171101260999992011010409204+53550+007667FM-15+0012ETNT V0202001N004610150019N0050001N1+00101-00101999999ADDGA1021+009001999GA2071+015001999GF107991999999999999999999MA1101491999999MW1101REMMET080METAR ETNT 040920Z 20009KT 5000 BR FEW030 BKN050 01/M01 Q1015 WHT WHT TEMPO YLO;
0187101260999992011010410004+53550+007667FM-12+0012ETNT V0202001N006010150019N0070001N1+00061-00091101501ADDAY121999AY221999GA1071+015001061GF108991071051017501999999MA1999999101351MD1710061+9999MW1101REMSYN082AAXX  04101 10126 41757 82006 10006 21009 30135 40150 57006 71022 875// 333 87650;
0139101260999992011010410204+53550+007667FM-15+0012ETNT V0202001N005710150019N0070001N1+00101-00101999999ADDGA1071+015001999GF107991999999999999999999MA1101391999999REMMET070METAR ETNT 041020Z 20011KT 7000 BKN050 01/M01 Q1014 WHT WHT TEMPO YLO;
0159101260999992011010411004+53550+007667FM-12+0012ETNT V0202101N006010150019N0080001N1+00081-00101101461ADDGA1071+015001061GF107991071051017501999999MA1999999101311MD1810081+9999REMSYN076AAXX  04111 10126 42758 72106 10008 21010 30131 40146 58008 875// 333 87650;
0181101260999992011010411204+53550+007667FM-15+0012ETNT V0202101N006210102019N0050001N1+00101-00101999999ADDGA1041+003001999GA2071+010201999GF107991999999999999999999MA1101391999999MW1101MW2711REMMET084METAR ETNT 041120Z 21012KT 5000 -SN BR SCT010 BKN034 01/M01 Q1014 WHT WHT TEMPO YLO;
0172101260999992011010412204+53550+007667FM-15+0012ETNT V0202101N006710030019N0060001N1+00101-00101999999ADDGA1071+003001999GA2071+009001999GF107991999999999999999999MA1101291999999MW1711REMMET081METAR ETNT 041220Z 21013KT 6000 -SN BKN010 BKN030 01/M01 Q1013 GRN WHT TEMPO YLO;
0193101260999992011010413004+53550+007667FM-12+0012ETNT V0202101N006010024019N0070001N1+00061-00051101361ADDAY171999AY221999GA1051+002401071GF108991071051002501999999MA1999999101211MD1710141+9999MW1221REMSYN088AAXX  04131 10126 41357 82106 10006 21005 30121 40136 57014 72272 875// 333 85708 87640;
0162101260999992011010413204+53550+007667FM-15+0012ETNT V0202101N006210150019N0112651N1+00101-00101999999ADDGA1021+002401999GA2071+015001999GF107991999999999999999999MA1101291999999REMMET077METAR ETNT 041320Z 21012KT 9999 FEW008 BKN050 01/M01 Q1013 BLU BLU TEMPO YLO;
0223101260999992011010414004+53550+007667FM-12+0012ETNT V0202101N006010330019N0120001N1+00101-00151101331ADDGA1031+015001061GA2061+033001031GF108991071051017501031011MA1999999101181MD1710131+9999REMSYN124AAXX  04141 10126 42762 82106 10010 21015 30118 40133 57013 87531 333 83650 86361 555 BOT 10000 20000 30005 40017 999 42///;
0152101260999992011010414204+53550+007667FM-15+0012ETNT V0202101N005710240019N0112651N1+00101-00201999999ADDGA1041+015001999GA2071+024001999GF107991999999999999999999MA1101291999999REMMET067METAR ETNT 041420Z 21011KT 9999 SCT050 BKN080 01/M02 Q1013 BLU BLU;
0152101260999992011010415204+53550+007667FM-15+0012ETNT V0202101N005710300019N0112651N1+00101-00201999999ADDGA1041+021001999GA2071+030001999GF107991999999999999999999MA1101191999999REMMET067METAR ETNT 041520Z 21011KT 9999 SCT070 BKN100 01/M02 Q1012 BLU BLU;
0165101260999992011010416004+53550+007667FM-12+0012ETNT V0202101N006010210019N0150001N1+00081-00261101291ADDGA1051+021001061GF107991051051022501071999MA1999999101141MD1710071+9999REMSYN082AAXX  04161 10126 42865 72106 10008 21026 30114 40129 57007 8557/ 333 85657 87360;
0160101260999992011010416204+53550+007667FM-15+0012ETNT V0202101N006710300019N0112651N1+00101-00301999999ADDGA1021+021001999GA2071+030001999GF107991999999999999999999MA1101191999999REMMET075METAR ETNT 041620Z 21013KT 9999 FEW070 BKN100 01/M03 Q1012 BLU FCST CANCEL;
0165101260999992011010417004+53550+007667FM-12+0012ETNT V0202001N00601021001CN0150001N1+00061-00271101271ADDGA1041+021001061GF107991051051022501071999MA1999999101121MD1710061+9999REMSYN082AAXX  04171 10126 42865 72006 10006 21027 30112 40127 57006 8557/ 333 84657 87360;
0148101260999992011010417204+53550+007667FM-15+0012ETNT V0202001N006210300019N0112651N1+00101-00301999999ADDGA1041+021001999GA2071+030001999GF107991999999999999999999MA1101191999999REMMET063METAR ETNT 041720Z 20012KT 9999 SCT070 BKN100 01/M03 Q1012 BLU;
0171101260999992011010418204+53550+007667FM-15+0012ETNT V0202001N00511015001CN0112651N1+00001-00301999999ADDGA1021+008401999GA2041+015001999GA3071+024001999GF107991999999999999999999MA1101191999999REMMET070METAR ETNT 041820Z 20010KT 9999 FEW028 SCT050 BKN080 00/M03 Q1012 BLU;
0187101260999992011010419004+53550+007667FM-12+0012ETNT V0202001N006010150019N0200001N1-00011-00301101241ADDGA1011+009001061GA2051+015001061GF107991051051008001031999MA1999999101091MD1710051+9999REMSYN088AAXX  04191 10126 42570 72006 11001 21030 30109 40124 57005 8553/ 333 81630 85650 87359;
0126101260999992011010419204+53550+007667FM-15+0012ETNT V0202001N005710084019N0112651N1+00001-00301999999ADDGA1071+008401999GF107991999999999999999999MA1101191999999REMMET057METAR ETNT 041920Z 20011KT 9999 BKN028 M00/M03 Q1012 BLU;
0165101260999992011010420004+53550+007667FM-12+0012ETNT V0202001N00601007501CN0150001N1-00041-00311101251ADDGA1021+008401061GF108991071051008001999999MA1999999101101MD1510021+9999REMSYN082AAXX  04201 10126 42565 82006 11004 21031 30110 40125 55002 875// 333 82628 87644;
0149101260999992011010420204+53550+007667FM-15+0012ETNT V0202001N005710132019N0112651N1+00001-00301999999ADDGA1021+008401999GA2071+013201999GF107991999999999999999999MA1101191999999REMMET064METAR ETNT 042020Z 20011KT 9999 FEW028 BKN044 M00/M03 Q1012 BLU;
0148101260999992011010421204+53550+007667FM-15+0012ETNT V0202001N006210135019N0112651N1+00001-00301999999ADDGA1021+009001999GA2071+013501999GF107991999999999999999999MA1101191999999REMMET063METAR ETNT 042120Z 20012KT 9999 FEW030 BKN045 00/M03 Q1012 BLU;
0159101260999992011010422004+53550+007667FM-12+0012ETNT V0202001N007010126019N0120001N1+00001-00291101201ADDGA1071+012601061GF108991071051012501999999MA1999999101051MD1810041+9999REMSYN076AAXX  04221 10126 42662 82007 10000 21029 30105 40120 58004 875// 333 87642;
0126101260999992011010422204+53550+007667FM-15+0012ETNT V0202001N007210126019N0112651N1+00001-00301999999ADDGA1071+012601999GF107991999999999999999999MA1101191999999REMMET057METAR ETNT 042220Z 20014KT 9999 BKN042 M00/M03 Q1012 BLU;
0165101260999992011010423004+53550+007667FM-12+0012ETNT V0202001N007010126019N0100001N1-00041-00301101201ADDGA1051+012601061GF108991071051012501999999MA1999999101051MD1610051+9999REMSYN082AAXX  04231 10126 42660 82007 11004 21030 30105 40120 56005 875// 333 85642 87656;
0149101260999992011010423204+53550+007667FM-15+0012ETNT V0202101N006710390019N0112651N1-00101-00301999999ADDGA1041+018001999GA2071+039001999GF107991999999999999999999MA1101081999999REMMET064METAR ETNT 042320Z 21013KT 9999 SCT060 BKN130 M01/M03 Q1011 BLU;
0126101260999992011010423454+53550+007667FM-16+0012ETNT V0202101N006710042019N0112651N1-00101-00301999999ADDGA1071+004201999GF107991999999999999999999MA1101191999999REMMET057SPECI ETNT 042345Z 21013KT 9999 BKN014 M01/M03 Q1012 GRN;
0126101260999992011010500204+53550+007667FM-15+0012ETNT V0202101N006210042019N0090001N1-00101-00301999999ADDGA1071+004201999GF107991999999999999999999MA1101081999999REMMET057METAR ETNT 050020Z 21012KT 9000 BKN014 M01/M03 Q1011 GRN;
0159101260999992011010501004+53550+007667FM-12+0012ETNT V0202101N007010042019N0090001N1-00091-00321101161ADDGA1071+004201061GF108991071051004501999999MA1999999101011MD1810041+9999REMSYN076AAXX  05011 10126 42459 82107 11009 21032 30101 40116 58004 875// 333 87614;
0126101260999992011010501204+53550+007667FM-15+0012ETNT V0202101N006710042019N0090001N1-00101-00301999999ADDGA1071+004201999GF107991999999999999999999MA1101081999999REMMET057METAR ETNT 050120Z 21013KT 9000 BKN014 M01/M03 Q1011 GRN;
0159101260999992011010502004+53550+007667FM-12+0012ETNT V0202001N006010042019N0090001N1-00101-00341101131ADDGA1071+004201061GF108991071051004501999999MA1999999100981MD1810071+9999REMSYN076AAXX  05021 10126 42459 82006 11010 21034 30098 40113 58007 875// 333 87614;
0126101260999992011010502204+53550+007667FM-15+0012ETNT V0201901N005710042019N0090001N1-00101-00301999999ADDGA1071+004201999GF107991999999999999999999MA1101081999999REMMET057METAR ETNT 050220Z 19011KT 9000 BKN014 M01/M03 Q1011 GRN;
0126101260999992011010503204+53550+007667FM-15+0012ETNT V0201901N005110042019N0112651N1-00101-00301999999ADDGA1071+004201999GF107991999999999999999999MA1101081999999REMMET057METAR ETNT 050320Z 19010KT 9999 BKN014 M01/M03 Q1011 GRN;
0159101260999992011010504004+53550+007667FM-12+0012ETNT V0202001N005010042019N0100001N1-00151-00351101061ADDGA1071+004201061GF108991071051004501999999MA1999999100911MD1710101+9999REMSYN076AAXX  05041 10126 42460 82005 11015 21035 30091 40106 57010 875// 333 87614;
0149101260999992011010504204+53550+007667FM-15+0012ETNT V0202001N005710045019N0070001N1-00201-00401999999ADDGA1071+004501999GA2071+024001999GF107991999999999999999999MA1101021999999REMMET064METAR ETNT 050420Z 20011KT 7000 BKN015 BKN080 M02/M04 Q1010 WHT;
0187101260999992011010505004+53550+007667FM-12+0012ETNT V0202001N006010045019N0070001N1-00181-00391101041ADDAY121999AY221999GA1071+004501061GF108991071051004501999999MA1999999100891MD1710091+9999MW1101REMSYN082AAXX  05051 10126 41457 82006 11018 21039 30089 40104 57009 71022 875// 333 87615;
0126101260999992011010505204+53550+007667FM-15+0012ETNT V0201901N005110039019N0070001N1-00201-00401999999ADDGA1071+003901999GF107991999999999999999999MA1101021999999REMMET057METAR ETNT 050520Z 19010KT 7000 BKN013 M02/M04 Q1010 GRN;
0163101260999992011010506204+53550+007667FM-15+0012ETNT V0201901N005110330019N0060001N1-00201-00401999999ADDGA1041+003001999GA2071+033001999GF107991999999999999999999MA1100911999999REMMET078METAR ETNT 050620Z 19010KT 6000 SCT010 BKN110 M02/M04 Q1009 WHT WHT TEMPO GRN;
0257101260999992011010507004+53550+007667FM-12+0012ETNT V0201901N006010030019N0060001N1-00241-00431100981ADDAY121999AY221999GA1061+003001071GA2071+033001031GF108991061061004501071999MA1999999100831MD1710081+9999MW1101REMSYN136AAXX  05071 10126 41456 81906 11024 21043 30083 40098 57008 71022 8667/ 333 86710 87361 555 BOT 11001 20000 30005 40017 50037 999 42///;
0163101260999992011010507204+53550+007667FM-15+0012ETNT V0202001N006210030019N0060001N1-00201-00401999999ADDGA1071+003001999GA2071+033001999GF107991999999999999999999MA1100911999999REMMET078METAR ETNT 050720Z 20012KT 6000 BKN010 BKN110 M02/M04 Q1009 GRN WHT TEMPO GRN;
0193101260999992011010508004+53550+007667FM-12+0012ETNT V0201801N006010036019N0070001N1-00241-00441100961ADDAY121999AY221999GA1061+003601061GF107991061051004501031999MA1999999100811MD1710081+9999MW1101REMSYN088AAXX  05081 10126 41457 71806 11024 21044 30081 40096 57008 71022 8653/ 333 86612 87361;
0164101260999992011010508204+53550+007667FM-15+0012ETNT V0201901N005710660019N0080001N1-00201-00501999999ADDGA1021+003601999GA2071+066001999GF107991999999999999999999MA1100911999999REMMET079METAR ETNT 050820Z 19011KT 8000 FEW012 BKN220 M02/M05 Q1009 BLU/BLU/ TEMPO GRN;
0163101260999992011010509204+53550+007667FM-15+0012ETNT V0201901N006210030019N0080001N1-00201-00501999999ADDGA1071+003001999GA2071+060001999GF107991999999999999999999MA1100911999999REMMET078METAR ETNT 050920Z 19012KT 8000 BKN010 BKN200 M02/M05 Q1009 GRN BLU TEMPO GRN;
0165101260999992011010510004+53550+007667FM-12+0012ETNT V0201901N007010042019N0080001N1-00221-00481100951ADDGA1051+004201061GF107991051051004501031999MA1999999100801MD1710031+9999REMSYN082AAXX  05101 10126 42458 71907 11022 21048 30080 40095 57003 8553/ 333 85614 87366;
0163101260999992011010510204+53550+007667FM-15+0012ETNT V0201901N006710480019N0080001N1-00201-00501999999ADDGA1041+015001999GA2071+048001999GF107991999999999999999999MA1100911999999REMMET078METAR ETNT 051020Z 19013KT 8000 SCT050 BKN160 M02/M05 Q1009 BLU BLU TEMPO GRN;
0187101260999992011010511004+53550+007667FM-12+0012ETNT V0201901N006010480019N0100001N1-00171-00481100881ADDGA1031+015001061GA2031+048001031GF107991031051017501031011MA1999999100731MD1810081+9999REMSYN088AAXX  05111 10126 42760 71906 11017 21048 30073 40088 58008 83531 333 83650 83366 85072;
0153101260999992011010511204+53550+007667FM-15+0012ETNT V0201901N005710510019N0112651N1-00101-00501999999ADDGA1041+015001999GA2071+051001999GF107991999999999999999999MA1100811999999REMMET068METAR ETNT 051120Z 19011KT 9999 SCT050 BKN170 M01/M05 Q1008 BLU BLU;
0146101260999992011010512204+53550+007667FM-15+0012ETNT V0201801N00511015001CN0112651N1-00101-00401999999ADDGA1071+015001999GA2041+051001999MA1100711999999REMMET068METAR ETNT 051220Z 18010KT 9999 BKN050 SCT170 M01/M04 Q1007 BLU BLU;EQDQ01+000042SCOTCV
0165101260999992011010513004+53550+007667FM-12+0012ETNT V0201801N007010150019N0120001N1-00151-00481100751ADDGA1051+015001061GF107991051051017501031011MA1999999100601MD1710201+9999REMSYN082AAXX  05131 10126 42762 71807 11015 21048 30060 40075 57020 85531 333 85650 85365;
0153101260999992011010513204+53550+007667FM-15+0012ETNT V0201801N006210150019N0112651N1-00101-00501999999ADDGA1071+015001999GA2071+051001999GF107991999999999999999999MA1100711999999REMMET068METAR ETNT 051320Z 18012KT 9999 BKN050 BKN170 M01/M05 Q1007 BLU BLU;
0223101260999992011010514004+53550+007667FM-12+0012ETNT V0201801N007010150019N0150001N1-00141-00481100671ADDGA1051+015001061GA2051+048001031GF107991051051017501031011MA1999999100521MD1710211+9999REMSYN124AAXX  05141 10126 42765 71807 11014 21048 30052 40067 57021 85531 333 85650 85366 555 BOT 11001 20000 30005 40017 999 42///;
0153101260999992011010514204+53550+007667FM-15+0012ETNT V0201801N006210150019N0112651N1-00101-00501999999ADDGA1071+015001999GA2071+063001999GF107991999999999999999999MA1100611999999REMMET068METAR ETNT 051420Z 18012KT 9999 BKN050 BKN210 M01/M05 Q1006 BLU BLU;
0153101260999992011010515204+53550+007667FM-15+0012ETNT V0201701N006712200019N0112651N1-00201-00501999999ADDGA1041+015001999GA2041+066001999GF104991999999999999999999MA1100511999999REMMET068METAR ETNT 051520Z 17013KT 9999 SCT050 SCT220 M02/M05 Q1005 BLU/BLU;
0234101260999992011010516004+53550+007667SY-MT+0012ETNT V0201701N005012200019N0200001N1-00191-00571100561ADDGA1021+015001999GF103991021051017501001011MA1100511100411MD1710191+9999REMSYN076AAXX  05161 10126 42770 31705 11019 21057 30041 40056 57019 82501 333 82650;MET069SPECI ETNT 051600Z 17011KT 9999 FEW050 M02/M06 Q1005 BLU/FCST CANCEL;
0127101260999992011010516204+53550+007667FM-15+0012ETNT V0201701N005112200019N0112651N1-00201-00601999999ADDGA1021+015001999GF102991999999999999999999MA1100511999999REMMET058METAR ETNT 051620Z 17010KT 9999 FEW050 M02/M06 Q1005 BLU/;
0159101260999992011010517004+53550+007667FM-12+0012ETNT V0201701N006012200019N0200001N1-00261-00591100481ADDGA1021+015001061GF103991021051017501031011MA1999999100331MD1710191+9999REMSYN076AAXX  05171 10126 42770 31706 11026 21059 30033 40048 57019 82531 333 82650;
0150101260999992011010517204+53550+007667FM-15+0012ETNT V0201601N005712200019N0112651N1-00301-00601999999ADDGA1021+015001999GA2041+066001999GF104991999999999999999999MA1100411999999REMMET065METAR ETNT 051720Z 16011KT 9999 FEW050 SCT220 M03/M06 Q1004 BLU/;
0150101260999992011010518204+53550+007667FM-15+0012ETNT V0201601N005712200019N0112651N1-00301-00601999999ADDGA1021+015001999GA2041+060001999GF104991999999999999999999MA1100201999999REMMET065METAR ETNT 051820Z 16011KT 9999 FEW050 SCT200 M03/M06 Q1002 BLU/;
0159101260999992011010519004+53550+007667FM-12+0012ETNT V0201701N006010600019N0200001N1-00291-00601100281ADDGA1061+060001001GF106991001001999999001011MA1999999100131MD1710281+9999REMSYN076AAXX  05191 10126 42970 61706 11029 21060 30013 40028 57028 80001 333 86070;
0149101260999992011010519204+53550+007667FM-15+0012ETNT V0201601N005110570019N0112651N1-00301-00601999999ADDGA1021+024001999GA2071+057001999GF107991999999999999999999MA1100201999999REMMET064METAR ETNT 051920Z 16010KT 9999 FEW080 BKN190 M03/M06 Q1002 BLU;
0165101260999992011010520004+53550+007667FM-12+0012ETNT V0201601N00601030001CN0150001N1-00301-00591100171ADDGA1021+011701061GF107991021051012501031011MA1999999100021MD1710311+9999REMSYN082AAXX  05201 10126 42665 71606 11030 21059 30002 40017 57031 82531 333 82639 86069;
0149101260999992011010520204+53550+007667FM-15+0012ETNT V0201601N005710450019N0112651N1-00301-00601999999ADDGA1021+011701999GA2071+045001999GF107991999999999999999999MA1100101999999REMMET064METAR ETNT 052020Z 16011KT 9999 FEW039 BKN150 M03/M06 Q1001 BLU;
0149101260999992011010521204+53550+007667FM-15+0012ETNT V0201501N005710360019N0112651N1-00301-00601999999ADDGA1021+012001999GA2071+036001999GF107991999999999999999999MA1099901999999REMMET064METAR ETNT 052120Z 15011KT 9999 FEW040 BKN120 M03/M06 Q0999 BLU;
0165101260999992011010522004+53550+007667FM-12+0012ETNT V0201601N00601030001CN0120001N1-00261-00541099901ADDGA1031+012001061GF107991031051012501071999MA1999999099751MD1710381+9999REMSYN082AAXX  05221 10126 42662 71606 11026 21054 39975 49990 57038 8357/ 333 83640 87361;
0126101260999992011010522204+53550+007667FM-15+0012ETNT V0201601N006710099019N0090001N1-00201-00501999999ADDGA1071+009901999GF107991999999999999999999MA1099801999999REMMET057METAR ETNT 052220Z 16013KT 9000 BKN033 M02/M05 Q0998 BLU;
0138101260999992011010522384+53550+007667FM-16+0012ETNT V0201601N006210054019N0060001N1-00201-00501999999ADDGA1071+005401999GF107991999999999999999999MA1099701999999MW1661REMMET063SPECI ETNT 052238Z 16012KT 6000 -FZRA BKN018 M02/M05 Q0997 WHT;
0187101260999992011010523004+53550+007667FM-12+0012ETNT V0201701N006010054019N0050001N1-00161-00411099771ADDAY121999AY221999GA1071+005401061GF108991071051004501999999MA1999999099621MD1710401+9999MW1661REMSYN082AAXX  05231 10126 41450 81706 11016 21041 39962 49977 57040 76622 875// 333 87618;
0147101260999992011010523204+53550+007667FM-15+0012ETNT V0201701N006210036019N0050001N1-00101-00301999999ADDGA1071+003601999GF107991999999999999999999MA1099701999999MW1101MW2661REMMET066METAR ETNT 052320Z 17012KT 5000 -FZRA BR BKN012 M01/M03 Q0997 GRN;
0170101260999992011010600204+53550+007667FM-15+0012ETNT V0201801N004610030019N0050001N1-00101-00101999999ADDGA1021+001501999GA2071+003001999GF107991999999999999999999MA1099591999999MW1101MW2661REMMET073METAR ETNT 060020Z 18009KT 5000 -FZRA BR FEW005 BKN010 M01/M01 Q0996 GRN;
0193101260999992011010601004+53550+007667FM-12+0012ETNT V0201801N00501001201CN0050001N1-00041-00041099571ADDAY161999AY261999GA1021+001501071GF108991071051001501999999MA1999999099421MD1710331+9999MW1661REMSYN088AAXX  06011 10126 41250 81805 11004 21004 39942 49957 57033 76666 875// 333 82705 87610;
0145101260999992011010601204+53550+007667FM-15+0012ETNT V0201901N004110024019N0035001N1+00001+00001999999ADDGA1071+002401999GF107991999999999999999999MA1099491999999MW1101MW2661REMMET064METAR ETNT 060120Z 19008KT 3500 -FZRA BR BKN008 00/00 Q0995 YLO;
0187101260999992011010602004+53550+007667FM-12+0012ETNT V0201901N005010024019N0035001N1+00051+00051099491ADDAY161999AY261999GA1071+002401071GF108991071071002501999999MA1999999099341MD1710281+9999MW1661REMSYN082AAXX  06021 10126 41335 81905 10005 20005 39934 49949 57028 76666 877// 333 87708;
0151101260999992011010602204+53550+007667FM-15+0012ETNT V0201901N004610015019N0020001N1+00101+00101999999ADDGA1071+001501999GF107991999999999999999999MA1099391999999MW1101MW2611MW3711REMMET064METAR ETNT 060220Z 19009KT 2000 -SNRA BR BKN005 01/01 Q0994 YLO;
0151101260999992011010603204+53550+007667FM-15+0012ETNT V0201901N005110012019N0025001N1+00101+00101999999ADDGA1071+001201999GF107991999999999999999999MA1099291999999MW1101MW2611MW3711REMMET064METAR ETNT 060320Z 19010KT 2500 -RASN BR BKN004 01/01 Q0993 YLO;
0187101260999992011010604004+53550+007667FM-12+0012ETNT V0202001N005010012019N0025001N1+00141+00121099361ADDAY171999AY271999GA1071+001201071GF108991071071001501999999MA1999999099211MD1710211+9999MW1681REMSYN082AAXX  06041 10126 41225 82005 10014 20012 39921 49936 57021 76877 877// 333 87704;
0143101260999992011010604204+53550+007667FM-15+0012ETNT V0202001N006210015019N0025001N1+00201+00201999999ADDGA1071+001501999GF107991999999999999999999MA1099291999999MW1101MW2611REMMET062METAR ETNT 060420Z 20012KT 2500 -RA BR BKN005 02/02 Q0993 YLO;
0148101260999992011010604534+53550+007667FM-16+0012ETNT V0202101N005710012019N0028001N1+00201+00201999999ADDGA1071+001201999GF107991999999999999999999MA1099291999999MW1101MW2611REMMET067SPECI ETNT 060453Z 21011KT 2800 -RA BR BKN004 02/02 Q0993 BLACKYLO;
0187101260999992011010605004+53550+007667FM-12+0012ETNT V0202101N006010012019N0028001N1+00231+00191099351ADDAY171999AY261999GA1071+001201071GF108991071071001501999999MA1999999099201MD1710141+9999MW1611REMSYN082AAXX  06051 10126 41228 82106 10023 20019 39920 49935 57014 76176 877// 333 87704;
0148101260999992011010605204+53550+007667FM-15+0012ETNT V0202201N006210015019N0028001N1+00301+00301999999ADDGA1071+001501999GF107991999999999999999999MA1099291999999MW1101MW2611REMMET067METAR ETNT 060520Z 22012KT 2800 -RA BR BKN005 03/03 Q0993 BLACKYLO;
0148101260999992011010606204+53550+007667FM-15+0012ETNT V0202201N005110012019N0028001N1+00201+00201999999ADDGA1071+001201999GF107991999999999999999999MA1099291999999MW1101MW2611REMMET067METAR ETNT 060620Z 22010KT 2800 -RA BR BKN004 02/02 Q0993 BLACKYLO;
0241101260999992011010607004+53550+007667FM-12+0012ETNT V0202201N005010012019N0028001N1+00231+00201099391ADDAY161999AY261999GA1071+001201071GF108991071071001501999999MA1999999099241MD1310031+9999MW1611REMSYN136AAXX  06071 10126 41228 82205 10023 20020 39924 49939 53003 76166 877// 333 87704 555 BOT 11001 20000 30005 40016 50037 999 35/// 42///;
0191101260999992011010607204+53550+007667FM-15+0012ETNT V0202201N005110009019N0013001N1+00201+00201999999ADDED126U37009GA1071+000901999GF107991999999999999999999MA1099391999999MW1101MW2511MW3611REMMET093METAR ETNT 060720Z 22010KT 1300 R26/3700N -RADZ BR BKN003 02/02 Q0994 BLACKAMB YLO TEMPO AMB;
0163101260999992011010607444+53550+007667FM-16+0012ETNT V0202201N005110003019N0007001N1+00201+00201999999ADDED126U23009GA1071+000301999GF107991999999999999999999MA1099391999999MW1441REMMET077SPECI ETNT 060744Z 22010KT 0700 R26/2300D FG BKN001 02/02 Q0994 BLACKRED RED;
0187101260999992011010608004+53550+007667FM-12+0012ETNT V0202201N005010003019N0007001N1+00211+00201099451ADDAY161999AY241999GA1081+000301071GF108991081061000251999999MA1999999099301MD1310101+9999MW1461REMSYN082AAXX  06081 10126 41007 82205 10021 20020 39930 49945 53010 74664 886// 333 88701;
0163101260999992011010608204+53550+007667FM-15+0012ETNT V0202201N004110003019N0005001N1+00201+00201999999ADDED126U13009GA1081+000301999GF108991999999999999999999MA1099391999999MW1441REMMET077METAR ETNT 060820Z 22008KT 0500 R26/1300D FG OVC001 02/02 Q0994 BLACKRED RED;
0162101260999992011010609004+53550+007667FM-15+0012ETNT V0202201N004110001519N0003001N1+00201+00201999999ADDED126U09009GA1091+000151999GF109991999999000251999999MA1099491999999MW1451REMMET076SPECI ETNT 060858Z 22008KT 0300 R26/0900D FG VV000 02/02 Q0995 BLACKRED RED;
0162101260999992011010609204+53550+007667FM-15+0012ETNT V0202201N004110001519N0003001N1+00201+00201999999ADDED126U08009GA1091+000151999GF109991999999000251999999MA1099491999999MW1451REMMET076METAR ETNT 060920Z 22008KT 0300 R26/0800N FG VV000 02/02 Q0995 BLACKRED RED;
0157101260999992011010609464+53550+007667FM-16+0012ETNT V0202201N003610001519N0003001N1+00201+00201999999ADDED126U06009GA1091+000151999GF109991999999000251999999MA1099491999999MW1451REMMET071SPECI ETNT 060946Z 22007KT 0300 R26/0600D FG VV000 02/02 Q0995 RED RED;
0181101260999992011010610004+53550+007667FM-12+0012ETNT V0202201N004010001519N0003001N1+00231+00231099551ADDAY141999AY241999GA1091+000151999GF109991091999999999999999MA1999999099401MD1210161+9999MW1471REMSYN076AAXX  06101 10126 41/03 92204 10023 20023 39940 49955 52016 74744 333 89/00;
0157101260999992011010610204+53550+007667FM-15+0012ETNT V0202101N004110001519N0003001N1+00201+00201999999ADDED126U07009GA1091+000151999GF109991999999000251999999MA1099491999999MW1451REMMET071METAR ETNT 061020Z 21008KT 0300 R26/0700N FG VV000 02/02 Q0995 RED RED;
0167101260999992011010610344+53550+007667FM-16+0012ETNT V0202201N004610009019N0020001N1+00301+00301999999ADDED126U19009GA1091+000901999GF109991999999000151999999MA1099491999999MW1101REMMET081SPECI ETNT 061034Z 22009KT 2000 R26/1900U BR VV003 03/03 Q0995 YLO YLO TEMPO RED;
0187101260999992011010611004+53550+007667FM-12+0012ETNT V0202101N004010009019N0022001N1+00261+00251099571ADDAY141999AY241999GA1081+000901071GF108991081061000751999999MA1999999099421MD1210121+9999MW1281REMSYN082AAXX  06111 10126 41122 82104 10026 20025 39942 49957 52012 72844 886// 333 88703;
0160101260999992011010611064+53550+007667FM-16+0012ETNT V0202201N003610009019N0030001N1+00301+00301999999ADDGA1071+000901999GA2081+002401999GF108991999999999999999999MA1099491999999MW1101REMMET069SPECI ETNT 061106Z 22007KT 3000 BR BKN003 OVC008 03/03 Q0995 YLO YLO;
0160101260999992011010611204+53550+007667FM-15+0012ETNT V0202101N003610012019N0035001N1+00301+00301999999ADDGA1071+001201999GA2081+002701999GF108991999999999999999999MA1099491999999MW1101REMMET069METAR ETNT 061120Z 21007KT 3500 BR BKN004 OVC009 03/03 Q0995 YLO YLO;
0147101260999992011010612204+53550+007667FM-15+0012ETNT V0202001N003610006019N0022001N1+00301+00301999999ADDGA1071+000601999GF107991999999999999999999MA1099491999999MW1101REMMET072METAR ETNT 061220Z 20007KT 2200 BR BKN002 03/03 Q0995 AMB YLO TEMPO RED;
0158101260999992011010612404+53550+007667FM-16+0012ETNT V0202001N003110003019N0014001N1+00301+00301999999ADDED126U18009GA1071+000301999GF107991999999999999999999MA1099491999999MW1101REMMET072SPECI ETNT 061240Z 20006KT 1400 R26/1800D BR BKN001 03/03 Q0995 RED RED;
0187101260999992011010613004+53550+007667FM-12+0012ETNT V0202001N003010003019N0012001N1+00281+00271099551ADDAY121999AY221999GA1071+000301071GF108991081061000251999999MA1999999099401MD1010001+9999MW1101REMSYN082AAXX  06131 10126 41012 82003 10028 20027 39940 49955 50000 71022 886// 333 87701;
0157101260999992011010613034+53550+007667FM-16+0012ETNT V0202001N003110001519N0006001N1+00301+00301999999ADDED126U09009GA1091+000151999GF109991999999000251999999MA1099491999999MW1451REMMET071SPECI ETNT 061303Z 20006KT 0600 R26/0900D FG VV000 03/03 Q0995 RED RED;
0157101260999992011010613204+53550+007667FM-15+0012ETNT V0201901N003110001519N0003501N1+00301+00301999999ADDED126U05009GA1091+000151999GF109991999999000251999999MA1099491999999MW1451REMMET071METAR ETNT 061320Z 19006KT 0350 R26/0500D FG VV000 03/03 Q0995 RED RED;
0223101260999992011010614004+53550+007667FM-12+0012ETNT V0201901N003010001519N0003001N1+00251+00251099521ADDAY141999AY221999GA1091+000151999GF109991091999999999999999MA1999999099371MD1710051+9999MW1471REMSYN118AAXX  06141 10126 41/03 91903 10025 20025 39937 49952 57005 74742 333 89/00 555 BOT 11001 20000 30005 40017 999 42///;
0157101260999992011010614204+53550+007667FM-15+0012ETNT V0201701N001510001519N0003001N1+00201+00201999999ADDED126U04009GA1091+000151999GF109991999999000251999999MA1099391999999MW1451REMMET071METAR ETNT 061420Z 17003KT 0300 R26/0400N FG VV000 02/02 Q0994 RED RED;
0157101260999992011010615204+53550+007667FM-15+0012ETNT V0202101N001010001519N0003501N1+00201+00201999999ADDED126U05509GA1091+000151999GF109991999999000251999999MA1099391999999MW1451REMMET071METAR ETNT 061520Z 21002KT 0350 R26/0550N FG VV000 02/02 Q0994 RED RED;
0181101260999992011010616004+53550+007667FM-12+0012ETNT V0201601N001010001519N0003001N1+00221+00221099491ADDAY141999AY241999GA1091+000151999GF109991091999999999999999MA1999999099341MD1610061+9999MW1611REMSYN076AAXX  06161 10126 41/03 91601 10022 20022 39934 49949 56006 76144 333 89/00;
0175101260999992011010616204+53550+007667FM-15+0012ETNT V0201401N001510003019N0005001N1+00201+00201999999ADDED126U11009GA1091+000301999GF109991999999000251999999MA1099391999999MW1451MW2611REMMET083METAR ETNT 061620Z 14003KT 0500 R26/1100N -RA FG VV001 02/02 Q0994 RED FCST CANCEL;
0181101260999992011010617004+53550+007667FM-12+0012ETNT V0201001N002010001519N0005001N1+00221+00221099441ADDAY161999AY241999GA1091+000151999GF109991091999999999999999MA1999999099291MD1710081+9999MW1611REMSYN076AAXX  06171 10126 41/05 91002 10022 20022 39929 49944 57008 76164 333 89/00;
0163101260999992011010617204+53550+007667FM-15+0012ETNT V0201301N001510001519N0006001N1+00201+00201999999ADDED126U07009GA1091+000151999GF109991999999000251999999MA1099391999999MW1451MW2611REMMET071METAR ETNT 061720Z 13003KT 0600 R26/0700N -RA FG VV000 02/02 Q0994 RED;
0187101260999992011010618204+53550+007667FM-15+0012ETNT V0200601N001510006019N0012001N1+00201+00201999999ADDED126U09009GA1071+000601999GA2071+005401999GF107991999999999999999999MA1099391999999MW1101MW2611REMMET079METAR ETNT 061820Z 06003KT 1200 R26/0900N -RA BR BKN002 BKN018 02/02 Q0994 AMB;
0187101260999992011010618314+53550+007667FM-16+0012ETNT V0200801N001510012019N0012001N1+00201+00201999999ADDED126U08009GA1071+001201999GA2071+005401999GF107991999999999999999999MA1099391999999MW1101MW2611REMMET079SPECI ETNT 061831Z 08003KT 1200 R26/0800N -RA BR BKN004 BKN018 02/02 Q0994 AMB;
0193101260999992011010619004+53550+007667FM-12+0012ETNT V0201001N002010012019N0012001N1+00191+00191099441ADDAY161999AY261999GA1051+001201071GF108991081051001501999999MA1999999099291MD1610051+9999MW1611REMSYN088AAXX  06191 10126 41212 81002 10019 20019 39929 49944 56005 76166 885// 333 85704 87618;
0210101260999992011010619204+53550+007667FM-15+0012ETNT V0200901N00151005401CN0012001N1+00201+00201999999ADDED126U09009GA1041+001201999GA2041+005401999GA3071+010201999GF107991999999999999999999MA1099391999999MW1101MW2611REMMET086METAR ETNT 061920Z 09003KT 1200 R26/0900N -RA BR SCT004 SCT018 BKN034 02/02 Q0994 AMB;
0193101260999992011010620004+53550+007667FM-12+0012ETNT V0203501N00201001201CN0015001N1+00161+00161099461ADDAY161999AY261999GA1041+001801071GF108991071051001501999999MA1999999099311MD1310021+9999MW1611REMSYN088AAXX  06201 10126 41215 83502 10016 20016 39931 49946 53002 76166 875// 333 84706 87620;
0166101260999992011010620204+53550+007667FM-15+0012ETNT V0200201N001010045019N0020001N1+00201+00201999999ADDGA1041+001501999GA2071+004501999GF107991999999999999999999MA1099391999999MW1101MW2611REMMET069METAR ETNT 062020Z 02002KT 2000 -RA BR SCT005 BKN015 02/02 Q0994 YLO;
0210101260999992011010621204+53550+007667FM-15+0012ETNT V0209999C000010066019N0016001N1+00101+00101999999ADDED126U15009GA1041+001801999GA2071+006601999GA3071+015001999GF107991999999999999999999MA1099491999999MW1101MW2611REMMET086METAR ETNT 062120Z 00000KT 1600 R26/1500N -RA BR SCT006 BKN022 BKN050 01/01 Q0995 YLO;
0200101260999992011010621414+53550+007667FM-16+0012ETNT V0203401N000510180019N0012001N1+00101+00101999999ADDED126U08009GA1041+006001999GA2071+018001999GA3071+033001999GF107991999999999999999999MA1099491999999MW1101REMMET082SPECI ETNT 062141Z 34001KT 1200 R26/0800D BR SCT020 BKN060 BKN110 01/01 Q0995 AMB;
0215101260999992011010622004+53550+007667FM-12+0012ETNT V0203201N001010180019N0011001N1+00091+00091099551ADDAY161999AY261999GA1031+006001061GA2051+018001061GF107991061051008001031999MA1999999099401MD1210111+9999MW1211REMSYN094AAXX  06221 10126 41511 73201 10009 20009 39940 49955 52011 72166 8653/ 333 83620 85656 87361;
0211101260999992011010622204+53550+007667FM-15+0012ETNT V0203101N00211013501CN0011001N1+00101+00101999999ADDED126U17009GA1041+000301999GA2041+013501999GA3071+021001999GF107991999999999999999999MA1099591999999MW1101MW2121REMMET087METAR ETNT 062220Z 31004KT 1100 R26/1700D MIFG BR SCT001 SCT045 BKN070 01/01 Q0996 AMB;
0190101260999992011010622414+53550+007667FM-16+0012ETNT V0203101N002110060019N0028001N1+00201+00201999999ADDGA1021+000301999GA2071+006001999GA3071+021001999GF107991999999999999999999MA1099591999999MW1101MW2121REMMET077SPECI ETNT 062241Z 31004KT 2800 MIFG BR FEW001 BKN020 BKN070 02/02 Q0996 YLO;
0190101260999992011010622574+53550+007667FM-16+0012ETNT V0202901N003110060019N0038001N1+00201+00201999999ADDGA1041+000901999GA2071+006001999GA3071+018001999GF107991999999999999999999MA1099701999999MW1101MW2121REMMET077SPECI ETNT 062257Z 29006KT 3800 MIFG BR SCT003 BKN020 BKN060 02/02 Q0997 GRN;
0215101260999992011010623004+53550+007667FM-12+0012ETNT V0202901N003010060019N0028001N1+00201+00201099731ADDAY121999AY221999GA1021+000301071GA2051+006001061GF107991061051000251001001MA1999999099581MD1210271+9999MW1111REMSYN094AAXX  06231 10126 41028 72903 10020 20020 39958 49973 52027 71122 86500 333 82701 85620 86656;
0188101260999992011010623204+53550+007667FM-15+0012ETNT V0202901N003110054019N0018001N1+00201+00201999999ADDED126U24009GA1041+000301999GA2071+005401999GF107991999999999999999999MA1099801999999MW1101MW2121REMMET080METAR ETNT 062320Z 29006KT 1800 R26/2400D MIFG BR SCT001 BKN018 02/02 Q0998 YLO;
0188101260999992011010623344+53550+007667FM-16+0012ETNT V0202901N003610003019N0014001N1+00201+00201999999ADDED126U24009GA1071+000301999GA2071+004501999GF107991999999999999999999MA1099801999999MW1101MW2121REMMET080SPECI ETNT 062334Z 29007KT 1400 R26/2400U MIFG BR BKN001 BKN015 02/02 Q0998 RED;
0154101260999992011010700024+53550+007667FM-16+0012ETNT V0202901N004610003019N0006001N1+00201+00201999999ADDED126U07509GA1071+000301999GF107991999999999999999999MA1099901999999MW1441REMMET068SPECI ETNT 070002Z 29009KT 0600 R26/0750D FG BKN001 02/02 Q0999 RED;
0154101260999992011010700204+53550+007667FM-15+0012ETNT V0202801N003610003019N0006001N1+00201+00201999999ADDED126U07509GA1071+000301999GF107991999999999999999999MA1099901999999MW1441REMMET068METAR ETNT 070020Z 28007KT 0600 R26/0750D FG BKN001 02/02 Q0999 RED;
0181101260999992011010701004+53550+007667FM-12+0012ETNT V0202801N005010001519N0006001N1+00151+00151100041ADDAY141999AY241999GA1091+000151999GF109991091999999999999999MA1999999099891MD1210491+9999MW1471REMSYN076AAXX  07011 10126 41/06 92805 10015 20015 39989 40004 52049 74744 333 89/00;
0153101260999992011010701204+53550+007667FM-15+0012ETNT V0202801N004610001519N0006001N1+00101+00101999999ADDED126U08009GA1091+000151999GF109991999999000251999999MA1100101999999MW1451REMMET067METAR ETNT 070120Z 28009KT 0600 R26/0800N FG VV000 01/01 Q1001 RED;
0154101260999992011010701564+53550+007667FM-16+0012ETNT V0202701N003610003019N0014001N1+00101+00101999999ADDED126U37009GA1071+000301999GF107991999999999999999999MA1100201999999MW1101REMMET068SPECI ETNT 070156Z 27007KT 1400 R26/3700U BR BKN001 01/01 Q1002 RED;
0181101260999992011010702004+53550+007667FM-12+0012ETNT V0202801N004010003019N0007001N1+00131+00131100201ADDAY141999AY241999GA1091+000301999GF109991091999999999999999MA1999999100051MD1210471+9999MW1431REMSYN076AAXX  07021 10126 41/07 92804 10013 20013 30005 40020 52047 74344 333 89/01;
0154101260999992011010702204+53550+007667FM-15+0012ETNT V0202501N002610003019N0017001N1+00101+00101999999ADDED126U27009GA1071+000301999GF107991999999999999999999MA1100201999999MW1101REMMET068METAR ETNT 070220Z 25005KT 1700 R26/2700U BR BKN001 01/01 Q1002 RED;
0156101260999992011010702354+53550+007667FM-16+0012ETNT V0202301N001510006019N0028001N1+00101+00101999999ADDGA1071+000601999GA2071+010501999GF107991999999999999999999MA1100201999999MW1101REMMET065SPECI ETNT 070235Z 23003KT 2800 BR BKN002 BKN035 01/01 Q1002 AMB;
0179101260999992011010703034+53550+007667FM-16+0012ETNT V0202201N00311009001CN0035001N1+00101+00101999999ADDGA1041+000901999GA2041+009001999GA3071+015001999GF107991999999999999999999MA1100311999999MW1101REMMET072SPECI ETNT 070303Z 22006KT 3500 BR SCT003 SCT030 BKN050 01/01 Q1003 YLO;
0156101260999992011010703204+53550+007667FM-15+0012ETNT V0202201N003110150019N0035001N1+00101+00101999999ADDGA1041+000901999GA2071+015001999GF107991999999999999999999MA1100411999999MW1101REMMET065METAR ETNT 070320Z 22006KT 3500 BR SCT003 BKN050 01/01 Q1004 YLO;
0215101260999992011010704004+53550+007667FM-12+0012ETNT V0202301N002010045019N0035001N1+00121+00121100461ADDAY121999AY221999GA1031+000901071GA2031+004501061GF107991071051000751999999MA1999999100311MD1210421+9999MW1101REMSYN094AAXX  07041 10126 41135 72302 10012 20012 30031 40046 52042 71022 875// 333 83703 83615 87650;
0179101260999992011010704204+53550+007667FM-15+0012ETNT V0202201N00211004501CN0035001N1+00101+00101999999ADDGA1021+000901999GA2041+004501999GA3071+015001999GF107991999999999999999999MA1100511999999MW1101REMMET072METAR ETNT 070420Z 22004KT 3500 BR FEW003 SCT015 BKN050 01/01 Q1005 YLO;
0193101260999992011010705004+53550+007667FM-12+0012ETNT V0202201N00201004201CN0035001N1+00101+00101100561ADDAY121999AY221999GA1021+004501061GF107991071051004501999999MA1999999100411MD1210361+9999MW1101REMSYN088AAXX  07051 10126 41435 72202 10010 20010 30041 40056 52036 71022 875// 333 82615 87650;
0167101260999992011010705204+53550+007667FM-15+0012ETNT V0202301N001510150019N0025001N1+00101+00101999999ADDGA1021+006001999GA2071+015001999GF107991999999999999999999MA1100511999999MW1101MW2121REMMET070METAR ETNT 070520Z 23003KT 2500 MIFG BR FEW020 BKN050 01/01 Q1005 YLO;
0170101260999992011010706014+53550+007667FM-16+0012ETNT V0202301N001512200019N0018001N1+00001+00001999999ADDED126U04509GA1021+015001999GF102991999999999999999999MA1100611999999MW1101MW2121REMMET078SPECI ETNT 070601Z 23003KT 1800 R26/0450D MIFG BR FEW050 00/00 Q1006 BLACKYLO;
0184101260999992011010706064+53550+007667FM-16+0012ETNT V0202301N001012200019N0014001N1+00001+00001999999ADDED126U05509GA1021+015001999GF102991999999999999999999MA1100611999999MW1101MW2121REMMET092SPECI ETNT 070606Z 23002KT 1400 R26/0550N MIFG BR FEW050 00/00 Q1006 BLACKAMB AMB BECMG RED;
0190101260999992011010706204+53550+007667FM-15+0012ETNT V0202001N001012200019N0007001N1+00001+00001999999ADDED126U05009GA1021+015001999GA2041+057001999GF104991999999999999999999MA1100611999999MW1481REMMET088METAR ETNT 070620Z 20002KT 0700 R26/0500D FZFG FEW050 SCT190 M00/M00 Q1006 BLACKRED RED;
0190101260999992011010706354+53550+007667FM-16+0012ETNT V0201701N002112200019N0003501N1+00001+00001999999ADDED126U03509GA1021+015001999GA2041+057001999GF104991999999999999999999MA1100611999999MW1481REMMET088SPECI ETNT 070635Z 17004KT 0350 R26/0350D FZFG FEW050 SCT190 M00/M00 Q1006 BLACKRED RED;
0166101260999992011010706454+53550+007667FM-16+0012ETNT V0201601N001010001519N0003001N1-00101-00101999999ADDED126U03009GA1091+000151999GF109991999999000251999999MA1100611999999MW1491REMMET080SPECI ETNT 070645Z 16002KT 0300 R26/0300N FZFG VV000 M01/M01 Q1006 BLACKRED RED;
0229101260999992011010707004+53550+007667FM-12+0012ETNT V0201601N002010001519N0003001N1-00051-00051100691ADDAY141999AY211999GA1091+000151999GF109991091999999999999999MA1999999100541MD1210231+9999MW1491REMSYN124AAXX  07071 10126 41/03 91602 11005 21005 30054 40069 52023 74941 333 89/00 555 BOT 11001 20000 30005 40017 50036 999 42///;
0161101260999992011010707204+53550+007667FM-15+0012ETNT V0202001N002110001519N0002501N1+00001+00001999999ADDED126U03009GA1091+000151999GF109991999999000251999999MA1100711999999MW1491REMMET075METAR ETNT 070720Z 20004KT 0250 R26/0300N FZFG VV000 M00/M00 Q1007 RED RED;
0181101260999992011010708004+53550+007667FM-12+0012ETNT V0201901N002010001519N0002001N1-00061-00061100781ADDAY141999AY241999GA1091+000151999GF109991091999999999999999MA1999999100631MD1210221+9999MW1491REMSYN076AAXX  07081 10126 41/02 91902 11006 21006 30063 40078 52022 74944 333 89/00;
0161101260999992011010708204+53550+007667FM-15+0012ETNT V0201801N001510001519N0002501N1-00101-00101999999ADDED126U03009GA1091+000151999GF109991999999000251999999MA1100811999999MW1491REMMET075METAR ETNT 070820Z 18003KT 0250 R26/0300N FZFG VV000 M01/M01 Q1008 RED RED;
0195101260999992011010709204+53550+007667FM-15+0012ETNT V0201701N00151015001CN0003001N1-00101-00101999999ADDED126U03509GA1071+000151999GA2071+015001999GF107991999999999999999999MA1100811999999MW1481REMMET093METAR ETNT 070920Z 17003KT 0300 R26/0350N FZFG BKN000 BKN050 M01/M01 Q1008 RED RED BECMG AMB;
0181101260999992011010710004+53550+007667FM-12+0012ETNT V0201201N002010001519N0002001N1-00061-00061100871ADDAY141999AY241999GA1091+000151999GF109991091999999999999999MA1999999100721MD1210181+9999MW1491REMSYN076AAXX  07101 10126 41/02 91202 11006 21006 30072 40087 52018 74944 333 89/00;
0171101260999992011010710204+53550+007667FM-15+0012ETNT V0201401N002110001519N0003501N1+00001+00001999999ADDED126U04509GA1091+000151999GF109991999999000251999999MA1100811999999MW1491REMMET085METAR ETNT 071020Z 14004KT 0350 R26/0450N FZFG VV000 M00/M00 Q1008 RED RED BECMG AMB;
0171101260999992011010710404+53550+007667FM-16+0012ETNT V0201201N001510003019N0004001N1+00001+00001999999ADDED126U07009GA1091+000301999GF109991999999000251999999MA1100811999999MW1491REMMET085SPECI ETNT 071040Z 12003KT 0400 R26/0700N FZFG VV001 M00/M00 Q1008 RED RED BECMG AMB;
0171101260999992011010710484+53550+007667FM-16+0012ETNT V0201101N002110003019N0007001N1+00001+00001999999ADDED126U06009GA1091+000301999GF109991999999000251999999MA1100811999999MW1491REMMET085SPECI ETNT 071048Z 11004KT 0700 R26/0600N FZFG VV001 M00/M00 Q1008 RED RED BECMG AMB;
0181101260999992011010711004+53550+007667FM-12+0012ETNT V0201201N002010003019N0007001N1-00011-00011100861ADDAY141999AY241999GA1091+000301999GF109991091999999999999999MA1999999100711MD1010081+9999MW1491REMSYN076AAXX  07111 10126 41/07 91202 11001 21001 30071 40086 50008 74944 333 89/01;
0165101260999992011010711204+53550+007667FM-15+0012ETNT V0201001N002610003019N0004001N1+00001+00001999999ADDED126U12009GA1091+000301999GF109991999999000251999999MA1100811999999MW1451REMMET079METAR ETNT 071120Z 10005KT 0400 R26/1200U FG VV001 00/00 Q1008 RED FCST CANCEL;
0153101260999992011010712204+53550+007667FM-15+0012ETNT V0201101N003110003019N0004001N1+00101+00101999999ADDED126U08009GA1091+000301999GF109991999999000251999999MA1100711999999MW1451REMMET067METAR ETNT 071220Z 11006KT 0400 R26/0800N FG VV001 01/01 Q1007 RED;
0266101260999992011010713004+53550+007667SY-MT+0012ETNT V0201001N003010003019N0004001N1+00081+00081100751ADDAY141999AY241999ED126U15009GA1081+000301999GF109991091999999999999999MA1100711100601MD1710121+9999MW1451REMSYN076AAXX  07131 10126 41/04 91003 10008 20008 30060 40075 57012 74544 333 89/01;MET068SPECI ETNT 071300Z 12007KT 0700 R26/1500U FG OVC001 01/01 Q1007 RED;
0154101260999992011010713204+53550+007667FM-15+0012ETNT V0201101N003610003019N0007001N1+00101+00101999999ADDED126U13009GA1081+000301999GF108991999999999999999999MA1100711999999MW1441REMMET068METAR ETNT 071320Z 11007KT 0700 R26/1300D FG OVC001 01/01 Q1007 RED;
0229101260999992011010714004+53550+007667FM-12+0012ETNT V0201001N004010003019N0006001N1+00101+00101100651ADDAY141999AY241999GA1081+000301071GF108991081061000251999999MA1999999100501MD1710211+9999MW1601REMSYN124AAXX  07141 10126 41006 81004 10010 20010 30050 40065 57021 76044 886// 333 88701 555 BOT 10000 20000 30005 40017 999 42///;
0153101260999992011010714204+53550+007667FM-15+0012ETNT V0201001N004610003019N0005001N1+00101+00101999999ADDED126U11009GA1091+000301999GF109991999999000251999999MA1100611999999MW1451REMMET067METAR ETNT 071420Z 10009KT 0500 R26/1100N FG VV001 01/01 Q1006 RED;
0177101260999992011010715054+53550+007667FM-16+0012ETNT V0201101N004610006019N0011001N1+00101+00101999999ADDED126U26009GA1021+000301999GA2071+000601999GF107991999999999999999999MA1100611999999MW1101REMMET075SPECI ETNT 071505Z 11009KT 1100 R26/2600U BR FEW001 BKN002 01/01 Q1006 AMB;
0154101260999992011010715204+53550+007667FM-15+0012ETNT V0201101N004610006019N0018001N1+00101+00101999999ADDED126U31009GA1071+000601999GF107991999999999999999999MA1100511999999MW1101REMMET068METAR ETNT 071520Z 11009KT 1800 R26/3100U BR BKN002 01/01 Q1005 AMB;
0187101260999992011010716004+53550+007667FM-12+0012ETNT V0201201N005010006019N0018001N1+00141+00141100521ADDAY121999AY221999GA1081+000601071GF108991081061000751999999MA1999999100371MD1710231+9999MW1281REMSYN082AAXX  07161 10126 41118 81205 10014 20014 30037 40052 57023 72822 886// 333 88702;
0154101260999992011010716204+53550+007667FM-15+0012ETNT V0201201N005110009019N0018001N1+00201+00201999999ADDED126U45009GA1081+000901999GF108991999999999999999999MA1100411999999MW1101REMMET068METAR ETNT 071620Z 12010KT 1800 R26/4500U BR OVC003 02/02 Q1004 YLO;
0187101260999992011010717004+53550+007667FM-12+0012ETNT V0201201N006010009019N0018001N1+00181+00181100401ADDAY121999AY221999GA1071+000901071GF108991071071000751999999MA1999999100251MD1810251+9999MW1601REMSYN082AAXX  07171 10126 41118 81206 10018 20018 30025 40040 58025 76022 877// 333 87703;
0164101260999992011010717204+53550+007667FM-15+0012ETNT V0201201N004610009019N0018001N1+00201+00201999999ADDED126U42009GA1071+000901999GF107991999999999999999999MA1100311999999MW1101MW2611REMMET072METAR ETNT 071720Z 12009KT 1800 R26/4200D -RA BR BKN003 02/02 Q1003 YLO;
0172101260999992011010717454+53550+007667FM-16+0012ETNT V0201301N004610006019N0015001N1+00201+00201999999ADDED126U30009GA1071+000601999GF107991999999999999999999MA1100311999999MW1101MW2511MW3611REMMET074SPECI ETNT 071745Z 13009KT 1500 R26/3000D -RADZ BR BKN002 02/02 Q1003 AMB;
0171101260999992011010718094+53550+007667FM-16+0012ETNT V0201301N003610003019N0012001N1+00201+00201999999ADDED126U24009GA1071+000301999GF107991999999999999999999MA1100311999999MW1101MW2531MW3631REMMET073SPECI ETNT 071809Z 13007KT 1200 R26/2400N RADZ BR BKN001 02/02 Q1003 RED;
0177101260999992011010718204+53550+007667FM-15+0012ETNT V0201401N004110006019N0015001N1+00201+00201999999ADDED126U35009GA1071+000601999GF107991999999999999999999MA1100311999999MW1101MW2511MW3611REMMET079METAR ETNT 071820Z 14008KT 1500 R26/3500U -DZRA BR BKN002 02/02 Q1003 RERA AMB;
0187101260999992011010719004+53550+007667FM-12+0012ETNT V0201501N005010006019N0015001N1+00231+00231100331ADDAY161999AY261999GA1071+000601071GF108991071071000751999999MA1999999100181MD1710191+9999MW1581REMSYN082AAXX  07191 10126 41115 81505 10023 20023 30018 40033 57019 75866 877// 333 87702;
0133101260999992011010719204+53550+007667FM-15+0012ETNT V0201501N003610006019N0022001N1+00301+00301999999ADDGA1071+000601999GF107991999999999999999999MA1100311999999MW1101REMMET058METAR ETNT 071920Z 15007KT 2200 BR BKN002 03/03 Q1003 AMB;
0187101260999992011010720004+53550+007667FM-12+0012ETNT V0201601N004010006019N0025001N1+00281+00281100291ADDAY161999AY221999GA1071+000601071GF108991071061000751999999MA1999999100141MD1710111+9999MW1211REMSYN082AAXX  07201 10126 41125 81604 10028 20028 30014 40029 57011 72162 876// 333 87702;
0133101260999992011010720204+53550+007667FM-15+0012ETNT V0201801N003110003019N0020001N1+00301+00301999999ADDGA1071+000301999GF107991999999999999999999MA1100201999999MW1101REMMET058METAR ETNT 072020Z 18006KT 2000 BR BKN001 03/03 Q1002 RED;
0154101260999992011010721204+53550+007667FM-15+0012ETNT V0201801N002610003019N0018001N1+00401+00401999999ADDED126U23009GA1071+000301999GF107991999999999999999999MA1100201999999MW1101REMMET068METAR ETNT 072120Z 18005KT 1800 R26/2300D BR BKN001 04/04 Q1002 RED;
0181101260999992011010722004+53550+007667FM-12+0012ETNT V0201901N003010001519N0007001N1+00441+00431100301ADDAY121999AY221999GA1091+000151999GF109991091999999999999999MA1999999100151MD1510031+9999MW1471REMSYN076AAXX  07221 10126 41/07 91903 10044 20043 30015 40030 55003 74722 333 89/00;
0153101260999992011010722204+53550+007667FM-15+0012ETNT V0201801N002610001519N0007001N1+00401+00401999999ADDED126U07509GA1091+000151999GF109991999999000251999999MA1100201999999MW1451REMMET067METAR ETNT 072220Z 18005KT 0700 R26/0750N FG VV000 04/04 Q1002 RED;
0181101260999992011010723004+53550+007667FM-12+0012ETNT V0201901N003010001519N0006001N1+00461+00461100301ADDAY141999AY241999GA1091+000151999GF109991091999999999999999MA1999999100151MD1310011+9999MW1471REMSYN076AAXX  07231 10126 41/06 91903 10046 20046 30015 40030 53001 74744 333 89/00;
0153101260999992011010723204+53550+007667FM-15+0012ETNT V0201901N003610001519N0006001N1+00501+00501999999ADDED126U06509GA1091+000151999GF109991999999000251999999MA1100201999999MW1451REMMET067METAR ETNT 072320Z 19007KT 0600 R26/0650N FG VV000 05/05 Q1002 RED;
0163101260999992011010800204+53550+007667FM-15+0012ETNT V0201701N003110001519N0008001N1+00501+00501999999ADDED126U09009GA1091+000151999GF109991999999000251999999MA1100201999999MW1451MW2611REMMET071METAR ETNT 080020Z 17006KT 0800 R26/0900N -RA FG VV000 05/05 Q1002 RED;
0181101260999992011010801004+53550+007667FM-12+0012ETNT V0201801N004010001519N0008001N1+00541+00541100221ADDAY161999AY241999GA1091+000151999GF109991091999999999999999MA1999999100071MD1810081+9999MW1611REMSYN076AAXX  08011 10126 41/08 91804 10054 20054 30007 40022 58008 76164 333 89/00;
0153101260999992011010801204+53550+007667FM-15+0012ETNT V0201901N003610001519N0007001N1+00601+00601999999ADDED126U07009GA1091+000151999GF109991999999000251999999MA1100201999999MW1451REMMET067METAR ETNT 080120Z 19007KT 0700 R26/0700N FG VV000 06/06 Q1002 RED;
0181101260999992011010802004+53550+007667FM-12+0012ETNT V0201801N004010001519N0006001N1+00541+00541100231ADDAY161999AY241999GA1091+000151999GF109991091999999999999999MA1999999100081MD1510071+9999MW1471REMSYN076AAXX  08021 10126 41/06 91804 10054 20054 30008 40023 55007 74764 333 89/00;
0154101260999992011010802204+53550+007667FM-15+0012ETNT V0201801N004110006019N0012001N1+00601+00601999999ADDED126U36009GA1071+000601999GF107991999999999999999999MA1100201999999MW1101REMMET068METAR ETNT 080220Z 18008KT 1200 R26/3600U BR BKN002 06/06 Q1002 AMB;
0189101260999992011010802404+53550+007667FM-16+0012ETNT V0201901N004110021019N0025001N1+00601+00601999999ADDGA1041+001501999GA2071+002101999GA3071+013201999GF107991999999999999999999MA1100201999999MW1101MW2611REMMET076SPECI ETNT 080240Z 19008KT 2500 -RA BR SCT005 BKN007 BKN044 06/06 Q1002 YLO;
0189101260999992011010803064+53550+007667FM-16+0012ETNT V0201901N00461002401CN0035001N1+00601+00601999999ADDGA1021+001501999GA2041+002401999GA3071+009301999GF107991999999999999999999MA1100101999999MW1101MW2611REMMET076SPECI ETNT 080306Z 19009KT 3500 -RA BR FEW005 SCT008 BKN031 06/06 Q1001 YLO;
0166101260999992011010803204+53550+007667FM-15+0012ETNT V0202001N003610123019N0035001N1+00601+00601999999ADDGA1021+001501999GA2071+012301999GF107991999999999999999999MA1100101999999MW1101MW2611REMMET069METAR ETNT 080320Z 20007KT 3500 -RA BR FEW005 BKN041 06/06 Q1001 YLO;
0187101260999992011010804004+53550+007667FM-12+0012ETNT V0201901N004010093019N0035001N1+00621+00621100151ADDAY161999AY261999GA1071+009301061GF108991071051008001999999MA1999999100011MD1810061+9999MW1611REMSYN082AAXX  08041 10126 41535 81904 10062 20062 30001 40015 58006 76166 875// 333 87631;
0166101260999992011010804204+53550+007667FM-15+0012ETNT V0201801N004110114019N0035001N1+00601+00601999999ADDGA1021+002101999GA2071+011401999GF107991999999999999999999MA1100101999999MW1101MW2611REMMET069METAR ETNT 080420Z 18008KT 3500 -RA BR FEW007 BKN038 06/06 Q1001 YLO;
0193101260999992011010805004+53550+007667FM-12+0012ETNT V0201901N00401002101CN0035001N1+00621+00621100111ADDAY161999AY261999GA1021+002101071GF108991071051002501999999MA1999999099971MD1710111+9999MW1611REMSYN088AAXX  08051 10126 41335 81904 10062 20062 39997 40011 57011 76166 875// 333 82707 87646;
0156101260999992011010805204+53550+007667FM-15+0012ETNT V0201801N004110144019N0050001N1+00601+00601999999ADDGA1021+002101999GA2071+014401999GF107991999999999999999999MA1100001999999MW1101REMMET065METAR ETNT 080520Z 18008KT 5000 BR FEW007 BKN048 06/06 Q1000 WHT;
0124101260999992011010806204+53550+007667FM-15+0012ETNT V0201601N004610144019N0060001N1+00601+00601999999ADDGA1071+014401999GF107991999999999999999999MA1099901999999REMMET055METAR ETNT 080620Z 16009KT 6000 BKN048 06/06 Q0999 WHT;
0235101260999992011010807004+53550+007667FM-12+0012ETNT V0201701N005010144019N0060001N1+00641+00611099971ADDAY121999AY221999GA1051+014401061GF105991051051012501001001MA1999999099831MD1710181+9999MW1101REMSYN130AAXX  08071 10126 41656 51705 10064 20061 39983 49997 57018 71022 85500 333 85648 555 BOT 11001 20000 30006 40017 50036 999 42///;
0124101260999992011010807204+53550+007667FM-15+0012ETNT V0201701N004610090019N0060001N1+00601+00601999999ADDGA1071+009001999GF107991999999999999999999MA1099901999999REMMET055METAR ETNT 080720Z 17009KT 6000 BKN030 06/06 Q0999 WHT;
0159101260999992011010808004+53550+007667FM-12+0012ETNT V0201601N005012200019N0080001N1+00611+00581099921ADDGA1031+009001061GF103991031051008001001001MA1999999099781MD1710191+9999REMSYN076AAXX  08081 10126 42558 31605 10061 20058 39978 49992 57019 83500 333 83630;
0125101260999992011010808204+53550+007667FM-15+0012ETNT V0201701N004612200019N0112651N1+00601+00601999999ADDGA1021+009001999GF102991999999999999999999MA1099901999999REMMET056METAR ETNT 080820Z 17009KT 9999 FEW030 06/06 Q0999 BLU/;
0148101260999992011010809204+53550+007667FM-15+0012ETNT V0201801N005112200019N0112651N1+00701+00601999999ADDGA1021+009001999GA2041+066001999GF104991999999999999999999MA1099801999999REMMET063METAR ETNT 080920Z 18010KT 9999 FEW030 SCT220 07/06 Q0998 BLU/;
0165101260999992011010810004+53550+007667FM-12+0012ETNT V0201801N006012200019N0100001N1+00741+00591099821ADDGA1011+007801081GF104991031081008001001001MA1999999099681MD1710151+9999REMSYN082AAXX  08101 10126 42560 41806 10074 20059 39968 49982 57015 83800 333 81826 83630;
0162101260999992011010810204+53550+007667FM-15+0012ETNT V0201901N006710120019N0112651N1+00801+00601999999ADDGA1021+007801021GA2071+012001999GF107991999999999999999999MA1099801999999MW1801REMMET071METAR ETNT 081020Z 19013KT 9999 -SHRA FEW026TCU BKN040 08/06 Q0998 BLU;
0193101260999992011010811004+53550+007667FM-12+0012ETNT V0201901N007010120019N0300001N1+00891+00691099741ADDAY181999AY221999GA1011+007801081GF105991051081008001001001MA1999999099601MD1710181+9999MW1251REMSYN088AAXX  08111 10126 41580 51907 10089 20069 39960 49974 57018 72582 85800 333 81826 85640;
0162101260999992011010811204+53550+007667FM-15+0012ETNT V0201901N007210120019N0112651N1+00901+00701999999ADDGA1021+007801021GA2071+012001999GF107991999999999999999999MA1099701999999MW1801REMMET071METAR ETNT 081120Z 19014KT 9999 -SHRA FEW026TCU BKN040 09/07 Q0997 BLU;
