0147101360999992014010100204+53768+008659FM-15+002399999V0201701N004610304819N009999199+00501-00201999999ADDGA1071+030481991GE19MSL   +99999+99999GF199999071990030481991991MA1100801999990REMMET056METAR ETMN 010020Z 17009KT 9999 BKN100 05/M02 Q1008 BLU=
0147101360999992014010101204+53768+008659FM-15+002399999V0201601N003610274319N009999199+00401-00201999999ADDGA1071+027431991GE19MSL   +99999+99999GF199999071990027431991991MA1100801999990REMMET056METAR ETMN 010120Z 16007KT 9999 BKN090 04/M02 Q1008 BLU=
0147101360999992014010102204+53768+008659FM-15+002399999V0201801N004610274319N009999199+00401-00201999999ADDGA1071+027431991GE19MSL   +99999+99999GF199999071990027431991991MA1100801999990REMMET056METAR ETMN 010220Z 18009KT 9999 BKN090 04/M02 Q1008 BLU=
0170101360999992014010103204+53768+008659FM-15+002399999V0201801N004110091419N009999199+00401-00101999999ADDGA1071+009141991GA2081+027431991GE19MSL   +99999+99999GF199999071990009141991991MA1100701999990REMMET063METAR ETMN 010320Z 18008KT 9999 BKN030 OVC090 04/M01 Q1007 BLU=
0170101360999992014010104204+53768+008659FM-15+002399999V0201901N003110134119N009999199+00401-00101999999ADDGA1041+007921991GA2071+013411991GE19MSL   +99999+99999GF199999041990007921991991MA1100701999990REMMET063METAR ETMN 010420Z 19006KT 9999 SCT026 BKN044 04/M01 Q1007 BLU=
0179101360999992014010105204+53768+008659FM-15+002399999V0202001N004110036619N009999199+00401+00101999999ADDGA1071+003661991GA2071+007921991GE19MSL   +99999+99999GF199999071990003661991991MA1100701999990MW1611REMMET066METAR ETMN 010520Z 20008KT 9999 -RA BKN012 BKN026 04/01 Q1007 GRN=
0161101360999992014010106204+53768+008659FM-15+002399999V0202001N004610027419N007000199+00401+00301999999ADDGA1071+002741991GE19MSL   +99999+99999GF199999071990002741991991MA1100701999990MW1611REMMET064METAR ETMN 010620Z 20009KT 7000 -RA BKN009 04/03 Q1007 RERA GRN=
0178101360999992014010107204+53768+008659FM-15+002399999V0202001N004610018319N003700199+00401+00301999999ADDGA1071+001831991GA2071+003351991GE19MSL   +99999+99999GF199999071990001831991991MA1100801999990MW1101REMMET065METAR ETMN 010720Z 20009KT 3700 BR BKN006 BKN011 04/03 Q1008 YLO=
0155101360999992014010108014+53768+008659FM-16+002399999V0202101N005110015219N003500199+00501+00401999999ADDGA1071+001521991GE19MSL   +99999+99999GF199999071990001521991991MA1100801999990MW1101REMMET058SPECI ETMN 010801Z 21010KT 3500 BR BKN005 05/04 Q1008 YLO=
0178101360999992014010108204+53768+008659FM-15+002399999V0202101N004610015219N003000199+00501+00401999999ADDGA1071+001521991GA2071+007321991GE19MSL   +99999+99999GF199999071990001521991991MA1100801999990MW1101REMMET065METAR ETMN 010820Z 21009KT 3000 BR BKN005 BKN024 05/04 Q1008 YLO=
0178101360999992014010108444+53768+008659FM-16+002399999V0202101N004110051819N003700199+00501+00401999999ADDGA1041+001831991GA2071+005181991GE19MSL   +99999+99999GF199999041990001831991991MA1100901999990MW1101REMMET065SPECI ETMN 010844Z 21008KT 3700 BR SCT006 BKN017 05/04 Q1009 GRN=
0178101360999992014010109204+53768+008659FM-15+002399999V0202101N004110054919N004000199+00501+00401999999ADDGA1041+002131991GA2071+005491991GE19MSL   +99999+99999GF199999041990002131991991MA1100901999990MW1101REMMET065METAR ETMN 010920Z 21008KT 4000 BR SCT007 BKN018 05/04 Q1009 GRN=
0169101360999992014010110204+53768+008659FM-15+002399999V0202101N004610054919N006000199+00601+00401999999ADDGA1021+003051991GA2071+005491991GE19MSL   +99999+99999GF199999021990003051991991MA1100901999990REMMET062METAR ETMN 011020Z 21009KT 6000 FEW010 BKN018 06/04 Q1009 WHT=
0169101360999992014010110354+53768+008659FM-16+002399999V0202101N004110039619N006000199+00601+00401999999ADDGA1021+002741991GA2071+003961991GE19MSL   +99999+99999GF199999021990002741991991MA1100901999990REMMET062SPECI ETMN 011035Z 21008KT 6000 FEW009 BKN013 06/04 Q1009 GRN=
0090101360999992014010111204+53768+008659FM-15+002399999V0202001N004619999999N009999199+00601+00401999999ADDMA1100801999990REMMET063METAR ETMN 011120Z AUTO 20009KT 9999 // ////// 06/04 Q1008 ///=
0090101360999992014010112204+53768+008659FM-15+002399999V0201901N003619999999N009999199+00701+00401999999ADDMA1100801999990REMMET063METAR ETMN 011220Z AUTO 19007KT 9999 // ////// 07/04 Q1008 ///=
0090101360999992014010113204+53768+008659FM-15+002399999V0201901N004619999999N009999199+00701+00401999999ADDMA1100701999990REMMET063METAR ETMN 011320Z AUTO 19009KT 9999 // ////// 07/04 Q1007 ///=
0090101360999992014010114204+53768+008659FM-15+002399999V0201701N004119999999N009999199+00601+00301999999ADDMA1100701999990REMMET063METAR ETMN 011420Z AUTO 17008KT 9999 // ////// 06/03 Q1007 ///=
0090101360999992014010115204+53768+008659FM-15+002399999V0201601N004119999999N009999199+00601+00301999999ADDMA1100701999990REMMET063METAR ETMN 011520Z AUTO 16008KT 9999 // ////// 06/03 Q1007 ///=
0090101360999992014010116204+53768+008659FM-15+002399999V0201601N004619999999N009999199+00501+00201999999ADDMA1100601999990REMMET063METAR ETMN 011620Z AUTO 16009KT 9999 // ////// 05/02 Q1006 ///=
0090101360999992014010117204+53768+008659FM-15+002399999V0201501N004619999999N009999199+00401+00201999999ADDMA1100501999990REMMET063METAR ETMN 011720Z AUTO 15009KT 9999 // ////// 04/02 Q1005 ///=
0090101360999992014010118204+53768+008659FM-15+002399999V0201601N005119999999N009999199+00501+00101999999ADDMA1100401999990REMMET063METAR ETMN 011820Z AUTO 16010KT 9999 // ////// 05/01 Q1004 ///=
0090101360999992014010119204+53768+008659FM-15+002399999V0201501N004619999999N009999199+00401+00101999999ADDMA1100401999990REMMET063METAR ETMN 011920Z AUTO 15009KT 9999 // ////// 04/01 Q1004 ///=
0169101360999992014010120204+53768+008659FM-15+002399999V0201501N005710335319N009999199+00401+00101999999ADDGA1021+015241991GA2071+033531991GE19MSL   +99999+99999GF199999021990015241991991MA1100301999990REMMET062METAR ETMN 012020Z 15011KT 9999 FEW050 BKN110 04/01 Q1003 BLU=
0147101360999992014010121204+53768+008659FM-15+002399999V0201501N005119999999N009999199+00401+00201999999ADDGA1021+033531991GE19MSL   +99999+99999GF199999021990033531991991MA1100201999990REMMET056METAR ETMN 012120Z 15010KT 9999 FEW110 04/02 Q1002 BLU/=
0146101360999992014010122204+53768+008659FM-15+002399999V0201601N005710121919N009999199+00501+00201999999ADDGA1071+012191991GE19MSL   +99999+99999GF199999071990012191991991MA1100101999990REMMET055METAR ETMN 012220Z 16011KT 9999 BKN040 05/02 Q1001 BLU=
0146101360999992014010123204+53768+008659FM-15+002399999V0201501N006210143319N009999199+00601+00301999999ADDGA1071+014331991GE19MSL   +99999+99999GF199999071990014331991991MA1100001999990REMMET055METAR ETMN 012320Z 15012KT 9999 BKN047 06/03 Q1000 BLU=
0169101360999992014010200204+53768+008659FM-15+002399999V0201501N005710182919N009999199+00601+00301999999ADDGA1071+018291991GA2071+024381991GE19MSL   +99999+99999GF199999071990018291991991MA1099901999990REMMET062METAR ETMN 020020Z 15011KT 9999 BKN060 BKN080 06/03 Q0999 BLU=
0169101360999992014010201204+53768+008659FM-15+002399999V0201501N006210304819N009999199+00701+00301999999ADDGA1021+012191991GA2071+030481991GE19MSL   +99999+99999GF199999021990012191991991MA1099801999990REMMET062METAR ETMN 020120Z 15012KT 9999 FEW040 BKN100 07/03 Q0998 BLU=
0157101360999992014010202204+53768+008659FM-15+002399999V0201601N007210134119N009999199+00701+00301999999ADDGA1071+013411991GE19MSL   +99999+99999GF199999071990013411991991MA1099801999990OC101341REMMET058METAR ETMN 020220Z 16014G26KT 9999 BKN044 07/03 Q0998 BLU=
0146101360999992014010203204+53768+008659FM-15+002399999V0201601N006210152419N009999199+00701+00301999999ADDGA1071+015241991GE19MSL   +99999+99999GF199999071990015241991991MA1099701999990REMMET055METAR ETMN 020320Z 16012KT 9999 BKN050 07/03 Q0997 BLU=
0146101360999992014010204204+53768+008659FM-15+002399999V0201601N007210106719N009999199+00701+00301999999ADDGA1071+010671991GE19MSL   +99999+99999GF199999071990010671991991MA1099701999990REMMET055METAR ETMN 020420Z 16014KT 9999 BKN035 07/03 Q0997 BLU=
0179101360999992014010205204+53768+008659FM-15+002399999V0201601N006710173719N009999199+00701+00401999999ADDGA1021+011281991GA2071+017371991GE19MSL   +99999+99999GF199999021990011281991991MA1099601999990MW1611REMMET066METAR ETMN 020520Z 16013KT 9999 -RA FEW037 BKN057 07/04 Q0996 BLU=
0146101360999992014010206204+53768+008659FM-15+002399999V0201701N006210106719N009999199+00701+00401999999ADDGA1071+010671991GE19MSL   +99999+99999GF199999071990010671991991MA1099601999990REMMET055METAR ETMN 020620Z 17012KT 9999 BKN035 07/04 Q0996 BLU=
0146101360999992014010207204+53768+008659FM-15+002399999V0201701N006210097519N009999199+00701+00401999999ADDGA1071+009751991GE19MSL   +99999+99999GF199999071990009751991991MA1099601999990REMMET055METAR ETMN 020720Z 17012KT 9999 BKN032 07/04 Q0996 BLU=
0169101360999992014010208204+53768+008659FM-15+002399999V0201701N006210149419N009999199+00701+00501999999ADDGA1041+010061991GA2071+014941991GE19MSL   +99999+99999GF199999041990010061991991MA1099701999990REMMET062METAR ETMN 020820Z 17012KT 9999 SCT033 BKN049 07/05 Q0997 BLU=
0192101360999992014010209204+53768+008659FM-15+002399999V0201701N005710182919N009999199+00701+00501999999ADDGA1041+013721991GA2071+018291991GA3071+027431991GE19MSL   +99999+99999GF199999041990013721991991MA1099701999990REMMET069METAR ETMN 020920Z 17011KT 9999 SCT045 BKN060 BKN090 07/05 Q0997 BLU=
0169101360999992014010210204+53768+008659FM-15+002399999V0201801N005110143319N009999199+00801+00501999999ADDGA1021+007621991GA2071+014331991GE19MSL   +99999+99999GF199999021990007621991991MA1099701999990REMMET062METAR ETMN 021020Z 18010KT 9999 FEW025 BKN047 08/05 Q0997 BLU=
0169101360999992014010211204+53768+008659FM-15+002399999V0201701N005710274319N009999199+00901+00501999999ADDGA1021+010671991GA2071+027431991GE19MSL   +99999+99999GF199999021990010671991991MA1099701999990REMMET062METAR ETMN 021120Z 17011KT 9999 FEW035 BKN090 09/05 Q0997 BLU=
0207101360999992014010212204+53768+008659FM-15+002399999V0201801N004110152419N009999199+00901+00601999999ADDGA1021+010671991GA2071+015241991GA3071+030481991GE19MSL   +99999+99999GF199999021990010671991991MA1099701999990MW1611REMMET078METAR ETMN 021220Z 18008KT 9999 -RA FEW035 BKN050 BKN100 09/06 Q0997      BLU=
0192101360999992014010213204+53768+008659FM-15+002399999V0201801N00461016761CN009999199+01001+00601999999ADDGA1021+007621991GA2041+016761991GA3071+024381991GE19MSL   +99999+99999GF199999021990007621991991MA1099701999990REMMET069METAR ETMN 021320Z 18009KT 9999 FEW025 SCT055 BKN080 10/06 Q0997 BLU=
0169101360999992014010214204+53768+008659FM-15+002399999V0201801N004110167619N009999199+01001+00601999999ADDGA1021+007621991GA2071+016761991GE19MSL   +99999+99999GF199999021990007621991991MA1099701999990REMMET062METAR ETMN 021420Z 18008KT 9999 FEW025 BKN055 10/06 Q0997 BLU=
0188101360999992014010215044+53768+008659FM-16+002399999V0201801N003610082319N004500199+00901+00701999999ADDGA1021+004571991GA2071+008231991GE19MSL   +99999+99999GF199999021990004571991991MA1099701999990MW1101MW2611REMMET069SPECI ETMN 021504Z 18007KT 4500 -RA BR FEW015 BKN027 09/07 Q0997 GRN=
0169101360999992014010215124+53768+008659FM-16+002399999V0201901N003110051819N009000199+00901+00701999999ADDGA1071+005181991GA2071+007921991GE19MSL   +99999+99999GF199999071990005181991991MA1099801999990REMMET062SPECI ETMN 021512Z 19006KT 9000 BKN017 BKN026 09/07 Q0998 WHT=
0156101360999992014010215204+53768+008659FM-15+002399999V0201901N003110048819N009999199+00901+00701999999ADDGA1071+004881991GE19MSL   +99999+99999GF199999071990004881991991MA1099801999990MW1611REMMET059METAR ETMN 021520Z 19006KT 9999 -RA BKN016 09/07 Q0998 WHT=
0167101360999992014010215304+53768+008659FM-16+002399999V0202001N004110048819N003500199+00901+00701999999ADDGA1071+004881991GE19MSL   +99999+99999GF199999071990004881991991MA1099801999990MW1101MW2581REMMET064SPECI ETMN 021530Z 20008KT 3500 -DZRA BR BKN016 09/07 Q0998 YLO=
0181101360999992014010215444+53768+008659FM-16+002399999V0202001N004110054919N009999199+00901+00801999999ADDGA1041+003961991GA2071+005491991GE19MSL   +99999+99999GF199999041990003961991991MA1099801999990MW1581REMMET068SPECI ETMN 021544Z 20008KT 9999 -DZRA SCT013 BKN018 09/08 Q0998 WHT=
0188101360999992014010216204+53768+008659FM-15+002399999V0202001N004610027419N004000199+00901+00801999999ADDGA1021+001521991GA2071+002741991GE19MSL   +99999+99999GF199999021990001521991991MA1099801999990MW1101MW2511REMMET069METAR ETMN 021620Z 20009KT 4000 -DZ BR FEW005 BKN009 09/08 Q0998 GRN=
0218101360999992014010216494+53768+008659FM-16+002399999V0202101N005110033519N008000199+00901+00801999999ADDGA1021+002441991GA2071+003351991GA3071+004271991GE19MSL   +99999+99999GF199999021990002441991991MA1099901999990MW1511OC101181REMMET081SPECI ETMN 021649Z 21010G23KT 8000 -DZ FEW008 BKN011 BKN014 09/08 Q0999      GRN=
0180101360999992014010217204+53768+008659FM-15+002399999V0202601N007710054919N009999199+00801+00601999999ADDGA1041+004571991GA2071+005491991GE19MSL   +99999+99999GF199999041990004571991991MA1099901999990OC101291REMMET065METAR ETMN 021720Z 26015G25KT 9999 SCT015 BKN018 08/06 Q0999 WHT=
0169101360999992014010218204+53768+008659FM-15+002399999V0202501N005710061019N009999199+00801+00501999999ADDGA1071+006101991GA2071+008841991GE19MSL   +99999+99999GF199999071990006101991991MA1100101999990REMMET062METAR ETMN 021820Z 25011KT 9999 BKN020 BKN029 08/05 Q1001 WHT=
0169101360999992014010219204+53768+008659FM-15+002399999V0202401N005110365819N009999199+00701+00501999999ADDGA1041+006401991GA2071+036581991GE19MSL   +99999+99999GF199999041990006401991991MA1100101999990REMMET062METAR ETMN 021920Z 24010KT 9999 SCT021 BKN120 07/05 Q1001 BLU=
0147101360999992014010220204+53768+008659FM-15+002399999V0202301N004119999999N009999199+00601+00501999999ADDGA1021+005181991GE19MSL   +99999+99999GF199999021990005181991991MA1100201999990REMMET056METAR ETMN 022020Z 23008KT 9999 FEW017 06/05 Q1002 BLU/=
0147101360999992014010221204+53768+008659FM-15+002399999V0202201N003619999999N009999199+00601+00401999999ADDGA1021+005181991GE19MSL   +99999+99999GF199999021990005181991991MA1100301999990REMMET056METAR ETMN 022120Z 22007KT 9999 FEW017 06/04 Q1003 BLU/=
0147101360999992014010222204+53768+008659FM-15+002399999V0202201N004619999999N009999199+00601+00401999999ADDGA1021+005181991GE19MSL   +99999+99999GF199999021990005181991991MA1100401999990REMMET056METAR ETMN 022220Z 22009KT 9999 FEW017 06/04 Q1004 BLU/=
0147101360999992014010223204+53768+008659FM-15+002399999V0202101N004119999999N009999199+00501+00401999999ADDGA1021+004881991GE19MSL   +99999+99999GF199999021990004881991991MA1100401999990REMMET056METAR ETMN 022320Z 21008KT 9999 FEW016 05/04 Q1004 BLU/=
0076101360999992014010300204+53768+008659FM-15+002399999V0202001N004119999999N009999199+00501+00401999999ADDMA1100401999990REMMET049METAR ETMN 030020Z 20008KT 9999 05/04 Q1004 BLU/=
0147101360999992014010301204+53768+008659FM-15+002399999V0202001N004119999999N009999199+00501+00401999999ADDGA1021+064011991GE19MSL   +99999+99999GF199999021990064011991991MA1100401999990REMMET056METAR ETMN 030120Z 20008KT 9999 FEW210 05/04 Q1004 BLU/=
0147101360999992014010302204+53768+008659FM-15+002399999V0202001N004619999999N009999199+00501+00401999999ADDGA1021+064011991GE19MSL   +99999+99999GF199999021990064011991991MA1100401999990REMMET056METAR ETMN 030220Z 20009KT 9999 FEW210 05/04 Q1004 BLU/=
0147101360999992014010303204+53768+008659FM-15+002399999V0201801N004119999999N009999199+00501+00401999999ADDGA1021+064011991GE19MSL   +99999+99999GF199999021990064011991991MA1100401999990REMMET056METAR ETMN 030320Z 18008KT 9999 FEW210 05/04 Q1004 BLU/=
0147101360999992014010304204+53768+008659FM-15+002399999V0201801N004119999999N009999199+00501+00301999999ADDGA1021+064011991GE19MSL   +99999+99999GF199999021990064011991991MA1100301999990REMMET056METAR ETMN 030420Z 18008KT 9999 FEW210 05/03 Q1003 BLU/=
0147101360999992014010305204+53768+008659FM-15+002399999V0201801N005719999999N009999199+00501+00301999999ADDGA1041+036581991GE19MSL   +99999+99999GF199999041990036581991991MA1100301999990REMMET056METAR ETMN 030520Z 18011KT 9999 SCT120 05/03 Q1003 BLU/=
0170101360999992014010306204+53768+008659FM-15+002399999V0201801N00571070101CN009999199+00501+00301999999ADDGA1021+036581991GA2041+070101991GE19MSL   +99999+99999GF199999021990036581991991MA1100201999990REMMET063METAR ETMN 030620Z 18011KT 9999 FEW120 SCT230 05/03 Q1002 BLU/=
0169101360999992014010307204+53768+008659FM-15+002399999V0201701N006210182919N009999199+00601+00301999999ADDGA1071+018291991GA2071+067061991GE19MSL   +99999+99999GF199999071990018291991991MA1100101999990REMMET062METAR ETMN 030720Z 17012KT 9999 BKN060 BKN220 06/03 Q1001 BLU=
0212101360999992014010308204+53768+008659FM-15+002399999V0201701N007210457219N009999199+00601+00401999999ADDGA1021+025911991GA2071+045721991GA3071+067061991GE19MSL   +99999+99999GF199999021990025911991991MA1100001999990OC101241REMMET081METAR ETMN 030820Z 17014G24KT 9999 FEW085 BKN150 BKN220 06/04 Q1000      BLU BLU=
0188101360999992014010309204+53768+008659FM-15+002399999V0201801N007210097519N009999199+00701+00401999999ADDGA1071+009751991GE19MSL   +99999+99999GF199999071990009751991991MA1100001999990MW1581OC101241REMMET083METAR ETMN 030920Z 18014G24KT 9999 -RADZ BKN032 07/04 Q1000 BLU BLU      TEMPO GRN=
0160101360999992014010310204+53768+008659FM-15+002399999V0201801N006710064019N009999199+00701+00501999999ADDGA1071+006401991GE19MSL   +99999+99999GF199999071990006401991991MA1100001999990REMMET069METAR ETMN 031020Z 18013KT 9999 BKN021 07/05 Q1000 WHT BLU TEMPO GRN=
0177101360999992014010311204+53768+008659FM-15+002399999V0201901N004610067119N009999199+00801+00601999999ADDGA1071+006711991GE19MSL   +99999+99999GF199999071990006711991991MA1100001999990MW1581REMMET080METAR ETMN 031120Z 19009KT 9999 -DZRA BKN022 08/06 Q1000 WHT BLU TEMPO      GRN=
0186101360999992014010312004+53768+008659FM-16+002399999V0202001N006210042719N005000199+00801+00601999999ADDGA1071+004271991GE19MSL   +99999+99999GF199999071990004271991991MA1099901999990MW1101MW2581REMMET083SPECI ETMN 031200Z 20012KT 5000 -DZRA BR BKN014 08/06 Q0999 GRN BLU      TEMPO GRN=
0160101360999992014010312204+53768+008659FM-15+002399999V0202001N006210048819N009999199+00801+00701999999ADDGA1071+004881991GE19MSL   +99999+99999GF199999071990004881991991MA1099901999990REMMET069METAR ETMN 031220Z 20012KT 9999 BKN016 08/07 Q0999 WHT BLU TEMPO GRN=
0188101360999992014010313204+53768+008659FM-15+002399999V0202001N006210033519N009999199+00901+00701999999ADDGA1071+003351991GA2071+004881991GE19MSL   +99999+99999GF199999071990003351991991MA1099901999990REMMET081METAR ETMN 031320Z 20012KT 9999 BKN011 BKN016 09/07 Q0999 GRN BLU TEMPO      GRN=
0188101360999992014010314204+53768+008659FM-15+002399999V0202001N005710045719N009999199+00901+00701999999ADDGA1071+004571991GA2071+006101991GE19MSL   +99999+99999GF199999071990004571991991MA1099901999990REMMET081METAR ETMN 031420Z 20011KT 9999 BKN015 BKN020 09/07 Q0999 WHT BLU TEMPO      GRN=
0212101360999992014010315204+53768+008659FM-15+002399999V0202001N00461012191CN009999199+00901+00701999999ADDGA1021+004571081GA2041+012191991GA3071+027431991GE19MSL   +99999+99999GF199999021990004571991991MA1099901999990REMMET089METAR ETMN 031520Z 20009KT 9999 FEW015TCU SCT040 BKN090 09/07 Q0999      BLU FCST CANCEL=
0172101360999992014010316204+53768+008659FM-15+002399999V0202101N005110182919N009999199+01001+00701999999ADDGA1041+007621081GA2071+018291991GE19MSL   +99999+99999GF199999041990007621991991MA1099901999990REMMET065METAR ETMN 031620Z 21010KT 9999 SCT025TCU BKN060 10/07 Q0999 BLU=
0172101360999992014010317204+53768+008659FM-15+002399999V0202101N004110070119N009999199+00901+00701999999ADDGA1071+007011081GA2071+013721991GE19MSL   +99999+99999GF199999071990007011991991MA1099901999990REMMET065METAR ETMN 031720Z 21008KT 9999 BKN023TCU BKN045 09/07 Q0999 WHT=
0169101360999992014010318204+53768+008659FM-15+002399999V0202001N004610152419N009999199+00901+00701999999ADDGA1021+007621991GA2071+015241991GE19MSL   +99999+99999GF199999021990007621991991MA1099901999990REMMET062METAR ETMN 031820Z 20009KT 9999 FEW025 BKN050 09/07 Q0999 BLU=
0182101360999992014010319074+53768+008659FM-16+002399999V0201801N002610106719N007000199+00901+00701999999ADDGA1041+007621091GA2071+010671991GE19MSL   +99999+99999GF199999041990007621991991MA1099901999990MW1951REMMET069SPECI ETMN 031907Z 18005KT 7000 TSRA SCT025CB BKN035 09/07 Q0999 WHT=
0159101360999992014010319204+53768+008659FM-15+002399999V0201801N002610076219N007000199+00801+00701999999ADDGA1071+007621091GE19MSL   +99999+99999GF199999071990007621991991MA1099801999990MW1951REMMET062METAR ETMN 031920Z 18005KT 7000 TSRA BKN025CB 08/07 Q0998 WHT=
0130101360999992014010319344+53768+008659FM-16+002399999V0202101N005119999999N002000199+00801+00701999999ADDMA1100001999990OC102111REMMET076SPECI ETMN 031934Z 21010G41KT 2000 +TSRAGS SQ BKN010CB 08/07 Q1000      YLO=EQDD01      0ADE693
0170101360999992014010319474+53768+008659FM-16+002399999V0202501N007710030519N004000199+00501+00401999999ADDGA1071+003051091GE19MSL   +99999+99999GF199999071990003051991991MA1100001999990MW1951OC101341REMMET065SPECI ETMN 031947Z 25015G26KT 4000 TSRA BKN010CB 05/04 Q1000 GRN=
0176101360999992014010320104+53768+008659FM-16+002399999V0202201N003110109719N009999199+00601+00501999999ADDGA1041+003051091GA2071+010971991GE19MSL   +99999+99999GF199999041990003051991991MA1099901999990REMMET069SPECI ETMN 032010Z 22006KT 9999 SCT010CB BKN036 06/05 Q0999 RETS BLU=
0204101360999992014010320204+53768+008659FM-15+002399999V0202201N00311010971CN009999199+00601+00501999999ADDGA1021+003051091GA2041+010971991GA3071+030481991GE19MSL   +99999+99999GF199999021990003051991991MA1100001999990REMMET081METAR ETMN 032020Z 22006KT 9999 FEW010CB SCT036 BKN100 06/05 Q1000      RETS BLU=
0169101360999992014010321204+53768+008659FM-15+002399999V0202101N006710457219N009999199+00601+00401999999ADDGA1021+013721991GA2071+045721991GE19MSL   +99999+99999GF199999021990013721991991MA1100001999990REMMET062METAR ETMN 032120Z 21013KT 9999 FEW045 BKN150 06/04 Q1000 BLU=
0170101360999992014010322204+53768+008659FM-15+002399999V0202101N00721027431CN009999199+00601+00401999999ADDGA1021+010061991GA2041+027431991GE19MSL   +99999+99999GF199999021990010061991991MA1100101999990REMMET063METAR ETMN 032220Z 21014KT 9999 FEW033 SCT090 06/04 Q1001 BLU/=
0147101360999992014010323204+53768+008659FM-15+002399999V0202201N006719999999N009999199+00601+00301999999ADDGA1041+008231991GE19MSL   +99999+99999GF199999041990008231991991MA1100101999990REMMET056METAR ETMN 032320Z 22013KT 9999 SCT027 06/03 Q1001 BLU/=
0169101360999992014010400204+53768+008659FM-15+002399999V0202201N006710085319N009999199+00601+00301999999ADDGA1021+007321991GA2071+008531991GE19MSL   +99999+99999GF199999021990007321991991MA1100201999990REMMET062METAR ETMN 040020Z 22013KT 9999 FEW024 BKN028 06/03 Q1002 BLU=
0147101360999992014010401204+53768+008659FM-15+002399999V0202201N006219999999N009999199+00601+00301999999ADDGA1041+007921991GE19MSL   +99999+99999GF199999041990007921991991MA1100301999990REMMET056METAR ETMN 040120Z 22012KT 9999 SCT026 06/03 Q1003 BLU/=
0147101360999992014010402204+53768+008659FM-15+002399999V0202301N007719999999N009999199+00601+00301999999ADDGA1021+007621991GE19MSL   +99999+99999GF199999021990007621991991MA1100301999990REMMET056METAR ETMN 040220Z 23015KT 9999 FEW025 06/03 Q1003 BLU/=
0076101360999992014010403204+53768+008659FM-15+002399999V0202301N007719999999N009999199+00601+00301999999ADDMA1100301999990REMMET049METAR ETMN 040320Z 23015KT 9999 06/03 Q1003 BLU/=
0087101360999992014010404204+53768+008659FM-15+002399999V0202301N007219999999N009999199+00601+00301999999ADDMA1100401999990OC101241REMMET052METAR ETMN 040420Z 23014G24KT 9999 06/03 Q1004 BLU/=
0076101360999992014010405204+53768+008659FM-15+002399999V0202201N006719999999N009999199+00601+00301999999ADDMA1100401999990REMMET049METAR ETMN 040520Z 22013KT 9999 06/03 Q1004 BLU/=
0147101360999992014010406204+53768+008659FM-15+002399999V0202101N006219999999N009999199+00601+00301999999ADDGA1041+008531991GE19MSL   +99999+99999GF199999041990008531991991MA1100501999990REMMET056METAR ETMN 040620Z 21012KT 9999 SCT028 06/03 Q1005 BLU/=
0147101360999992014010407204+53768+008659FM-15+002399999V0202101N006719999999N009999199+00601+00201999999ADDGA1021+009141991GE19MSL   +99999+99999GF199999021990009141991991MA1100501999990REMMET056METAR ETMN 040720Z 21013KT 9999 FEW030 06/02 Q1005 BLU/=
0170101360999992014010408204+53768+008659FM-15+002399999V0202101N00511067061CN009999199+00601+00201999999ADDGA1021+036581991GA2041+067061991GE19MSL   +99999+99999GF199999021990036581991991MA1100501999990REMMET063METAR ETMN 040820Z 21010KT 9999 FEW120 SCT220 06/02 Q1005 BLU/=
0147101360999992014010409204+53768+008659FM-15+002399999V0202001N005119999999N009999199+00601+00301999999ADDGA1021+036581991GE19MSL   +99999+99999GF199999021990036581991991MA1100501999990REMMET056METAR ETMN 040920Z 20010KT 9999 FEW120 06/03 Q1005 BLU/=
0147101360999992014010410204+53768+008659FM-15+002399999V0202001N005119999999N009999199+00701+00301999999ADDGA1021+045721991GE19MSL   +99999+99999GF199999021990045721991991MA1100401999990REMMET056METAR ETMN 041020Z 20010KT 9999 FEW150 07/03 Q1004 BLU/=
0170101360999992014010411204+53768+008659FM-15+002399999V0201801N00411064011CN009999199+00801+00301999999ADDGA1021+039621991GA2041+064011991GE19MSL   +99999+99999GF199999021990039621991991MA1100401999990REMMET063METAR ETMN 041120Z 18008KT 9999 FEW130 SCT210 08/03 Q1004 BLU/=
0170101360999992014010412204+53768+008659FM-15+002399999V0201601N004610640119N009999199+00801+00301999999ADDGA1021+039621991GA2071+064011991GE19MSL   +99999+99999GF199999021990039621991991MA1100301999990REMMET063METAR ETMN 041220Z 16009KT 9999 FEW130 BKN210 08/03 Q1003 BLU/=
0170101360999992014010413204+53768+008659FM-15+002399999V0201501N005110640119N009999199+00701+00301999999ADDGA1021+015241991GA2071+064011991GE19MSL   +99999+99999GF199999021990015241991991MA1100201999990REMMET063METAR ETMN 041320Z 15010KT 9999 FEW050 BKN210 07/03 Q1002 BLU/=
0192101360999992014010414204+53768+008659FM-15+002399999V0201501N004110457219N009999199+00701+00201999999ADDGA1021+015241991GA2071+045721991GA3071+064011991GE19MSL   +99999+99999GF199999021990015241991991MA1100201999990REMMET069METAR ETMN 041420Z 15008KT 9999 FEW050 BKN150 BKN210 07/02 Q1002 BLU=
0169101360999992014010415204+53768+008659FM-15+002399999V0201501N004610518219N009999199+00701+00301999999ADDGA1021+030481991GA2071+051821991GE19MSL   +99999+99999GF199999021990030481991991MA1100101999990REMMET062METAR ETMN 041520Z 15009KT 9999 FEW100 BKN170 07/03 Q1001 BLU=
0169101360999992014010416204+53768+008659FM-15+002399999V0201401N003610457219N009999199+00701+00301999999ADDGA1021+030481991GA2071+045721991GE19MSL   +99999+99999GF199999021990030481991991MA1100001999990REMMET062METAR ETMN 041620Z 14007KT 9999 FEW100 BKN150 07/03 Q1000 BLU=
0146101360999992014010417204+53768+008659FM-15+002399999V0201301N004610365819N009999199+00601+00401999999ADDGA1071+036581991GE19MSL   +99999+99999GF199999071990036581991991MA1099901999990REMMET055METAR ETMN 041720Z 13009KT 9999 BKN120 06/04 Q0999 BLU=
0146101360999992014010418204+53768+008659FM-15+002399999V0201301N005110365819N009999199+00601+00301999999ADDGA1071+036581991GE19MSL   +99999+99999GF199999071990036581991991MA1099901999990REMMET055METAR ETMN 041820Z 13010KT 9999 BKN120 06/03 Q0999 BLU=
0146101360999992014010419204+53768+008659FM-15+002399999V0201301N004610304819N009999199+00601+00301999999ADDGA1071+030481991GE19MSL   +99999+99999GF199999071990030481991991MA1099801999990REMMET055METAR ETMN 041920Z 13009KT 9999 BKN100 06/03 Q0998 BLU=
0169101360999992014010420204+53768+008659FM-15+002399999V0201301N004110243819N009999199+00601+00301999999ADDGA1071+024381991GA2071+033531991GE19MSL   +99999+99999GF199999071990024381991991MA1099801999990REMMET062METAR ETMN 042020Z 13008KT 9999 BKN080 BKN110 06/03 Q0998 BLU=
0169101360999992014010421204+53768+008659FM-15+002399999V0201401N003110213419N009999199+00601+00201999999ADDGA1021+015241991GA2071+021341991GE19MSL   +99999+99999GF199999021990015241991991MA1099701999990REMMET062METAR ETMN 042120Z 14006KT 9999 FEW050 BKN070 06/02 Q0997 BLU=
0192101360999992014010422204+53768+008659FM-15+002399999V0201501N003110213419N009999199+00601+00301999999ADDGA1021+010671991GA2071+021341991GA3071+030481991GE19MSL   +99999+99999GF199999021990010671991991MA1099701999990REMMET069METAR ETMN 042220Z 15006KT 9999 FEW035 BKN070 BKN100 06/03 Q0997 BLU=
0146101360999992014010423204+53768+008659FM-15+002399999V0201401N003610274319N009999199+00501+00201999999ADDGA1071+027431991GE19MSL   +99999+99999GF199999071990027431991991MA1099601999990REMMET055METAR ETMN 042320Z 14007KT 9999 BKN090 05/02 Q0996 BLU=
0146101360999992014010500204+53768+008659FM-15+002399999V0201501N003110097519N009999199+00501+00201999999ADDGA1071+009751991GE19MSL   +99999+99999GF199999071990009751991991MA1099601999990REMMET055METAR ETMN 050020Z 15006KT 9999 BKN032 05/02 Q0996 BLU=
0146101360999992014010501204+53768+008659FM-15+002399999V0201501N003110088419N009999199+00501+00201999999ADDGA1071+008841991GE19MSL   +99999+99999GF199999071990008841991991MA1099601999990REMMET055METAR ETMN 050120Z 15006KT 9999 BKN029 05/02 Q0996 BLU=
0193101360999992014010502204+53768+008659FM-15+002399999V0201801N00311013721CN009999199+00501+00301999999ADDGA1021+007621991GA2041+013721991GA3071+067061991GE19MSL   +99999+99999GF199999021990007621991991MA1099601999990REMMET070METAR ETMN 050220Z 18006KT 9999 FEW025 SCT045 BKN220 05/03 Q0996 BLU/=
0169101360999992014010503204+53768+008659FM-15+002399999V0201801N002610152419N009999199+00501+00301999999ADDGA1021+007011991GA2071+015241991GE19MSL   +99999+99999GF199999021990007011991991MA1099601999990REMMET062METAR ETMN 050320Z 18005KT 9999 FEW023 BKN050 05/03 Q0996 BLU=
0170101360999992014010504204+53768+008659FM-15+002399999V0202101N003110640119N009999199+00501+00301999999ADDGA1041+013721991GA2071+064011991GE19MSL   +99999+99999GF199999041990013721991991MA1099601999990REMMET063METAR ETMN 050420Z 21006KT 9999 SCT045 BKN210 05/03 Q0996 BLU/=
0156101360999992014010505204+53768+008659FM-15+002399999V0202201N004610067119N009999199+00601+00401999999ADDGA1071+006711991GE19MSL   +99999+99999GF199999071990006711991991MA1099701999990MW1611REMMET059METAR ETMN 050520Z 22009KT 9999 -RA BKN022 06/04 Q0997 WHT=
0165101360999992014010505554+53768+008659FM-16+002399999V0202401N003610018319N005000199+00601+00501999999ADDGA1071+001831991GE19MSL   +99999+99999GF199999071990001831991991MA1099701999990MW1101MW2611REMMET062SPECI ETMN 050555Z 24007KT 5000 -RA BR BKN006 06/05 Q0997 YLO=
0165101360999992014010506204+53768+008659FM-15+002399999V0202401N004110012219N004500199+00601+00501999999ADDGA1071+001221991GE19MSL   +99999+99999GF199999071990001221991991MA1099801999990MW1101MW2611REMMET062METAR ETMN 050620Z 24008KT 4500 -RA BR BKN004 06/05 Q0998 YLO=
0146101360999992014010507204+53768+008659FM-15+002399999V0202601N005110036619N006000199+00601+00501999999ADDGA1071+003661991GE19MSL   +99999+99999GF199999071990003661991991MA1099901999990REMMET055METAR ETMN 050720Z 26010KT 6000 BKN012 06/05 Q0999 GRN=
0169101360999992014010508204+53768+008659FM-15+002399999V0202601N005710304819N007000199+00601+00501999999ADDGA1041+005181991GA2071+030481991GE19MSL   +99999+99999GF199999041990005181991991MA1100001999990REMMET062METAR ETMN 050820Z 26011KT 7000 SCT017 BKN100 06/05 Q1000 WHT=
0169101360999992014010509204+53768+008659FM-15+002399999V0202501N005110487719N009000199+00601+00501999999ADDGA1021+005181991GA2071+048771991GE19MSL   +99999+99999GF199999021990005181991991MA1100201999990REMMET062METAR ETMN 050920Z 25010KT 9000 FEW017 BKN160 06/05 Q1002 BLU=
0169101360999992014010510204+53768+008659FM-15+002399999V0202501N005110487719N009999199+00601+00501999999ADDGA1021+004571991GA2071+048771991GE19MSL   +99999+99999GF199999021990004571991991MA1100201999990REMMET062METAR ETMN 051020Z 25010KT 9999 FEW015 BKN160 06/05 Q1002 BLU=
0170101360999992014010511204+53768+008659FM-15+002399999V0202501N00571048771CN009999199+00601+00501999999ADDGA1021+004571991GA2041+048771991GE19MSL   +99999+99999GF199999021990004571991991MA1100301999990REMMET063METAR ETMN 051120Z 25011KT 9999 FEW015 SCT160 06/05 Q1003 BLU/=
0170101360999992014010512204+53768+008659FM-15+002399999V0202501N00671067061CN009999199+00701+00401999999ADDGA1021+003051991GA2041+067061991GE19MSL   +99999+99999GF199999021990003051991991MA1100401999990REMMET063METAR ETMN 051220Z 25013KT 9999 FEW010 SCT220 07/04 Q1004 BLU/=
0147101360999992014010513204+53768+008659FM-15+002399999V0202401N005719999999N009999199+00701+00301999999ADDGA1021+004571991GE19MSL   +99999+99999GF199999021990004571991991MA1100501999990REMMET056METAR ETMN 051320Z 24011KT 9999 FEW015 07/03 Q1005 BLU/=
0147101360999992014010514204+53768+008659FM-15+002399999V0202401N004619999999N009999199+00601+00301999999ADDGA1021+006101991GE19MSL   +99999+99999GF199999021990006101991991MA1100601999990REMMET056METAR ETMN 051420Z 24009KT 9999 FEW020 06/03 Q1006 BLU/=
0147101360999992014010515204+53768+008659FM-15+002399999V0202301N004119999999N009999199+00501+00301999999ADDGA1021+006101991GE19MSL   +99999+99999GF199999021990006101991991MA1100701999990REMMET056METAR ETMN 051520Z 23008KT 9999 FEW020 05/03 Q1007 BLU/=
0147101360999992014010516204+53768+008659FM-15+002399999V0202201N003119999999N009999199+00501+00301999999ADDGA1041+006101991GE19MSL   +99999+99999GF199999041990006101991991MA1100701999990REMMET056METAR ETMN 051620Z 22006KT 9999 SCT020 05/03 Q1007 BLU/=
0147101360999992014010517204+53768+008659FM-15+002399999V0202101N004119999999N009999199+00501+00301999999ADDGA1021+006101991GE19MSL   +99999+99999GF199999021990006101991991MA1100701999990REMMET056METAR ETMN 051720Z 21008KT 9999 FEW020 05/03 Q1007 BLU/=
0170101360999992014010518204+53768+008659FM-15+002399999V0202201N00461070101CN009999199+00501+00201999999ADDGA1021+006101991GA2041+070101991GE19MSL   +99999+99999GF199999021990006101991991MA1100701999990REMMET063METAR ETMN 051820Z 22009KT 9999 FEW020 SCT230 05/02 Q1007 BLU/=
0147101360999992014010519204+53768+008659FM-15+002399999V0202101N005119999999N009999199+00401+00201999999ADDGA1021+067061991GE19MSL   +99999+99999GF199999021990067061991991MA1100701999990REMMET056METAR ETMN 051920Z 21010KT 9999 FEW220 04/02 Q1007 BLU/=
0147101360999992014010520204+53768+008659FM-15+002399999V0202101N005119999999N009999199+00401+00201999999ADDGA1021+006101991GE19MSL   +99999+99999GF199999021990006101991991MA1100801999990REMMET056METAR ETMN 052020Z 21010KT 9999 FEW020 04/02 Q1008 BLU/=
0147101360999992014010521204+53768+008659FM-15+002399999V0202101N004619999999N009999199+00401+00201999999ADDGA1021+067061991GE19MSL   +99999+99999GF199999021990067061991991MA1100801999990REMMET056METAR ETMN 052120Z 21009KT 9999 FEW220 04/02 Q1008 BLU/=
0146101360999992014010522204+53768+008659FM-15+002399999V0201901N004610365819N009999199+00401+00201999999ADDGA1071+036581991GE19MSL   +99999+99999GF199999071990036581991991MA1100701999990REMMET055METAR ETMN 052220Z 19009KT 9999 BKN120 04/02 Q1007 BLU=
0147101360999992014010523204+53768+008659FM-15+002399999V0201801N004119999999N009999199+00301+00101999999ADDGA1021+036581991GE19MSL   +99999+99999GF199999021990036581991991MA1100601999990REMMET056METAR ETMN 052320Z 18008KT 9999 FEW120 03/01 Q1006 BLU/=
0147101360999992014010600204+53768+008659FM-15+002399999V0201801N005119999999N009999199+00301+00101999999ADDGA1021+067061991GE19MSL   +99999+99999GF199999021990067061991991MA1100601999990REMMET056METAR ETMN 060020Z 18010KT 9999 FEW220 03/01 Q1006 BLU/=
0170101360999992014010601204+53768+008659FM-15+002399999V0201801N00571067061CN009999199+00301+00101999999ADDGA1021+030481991GA2041+067061991GE19MSL   +99999+99999GF199999021990030481991991MA1100501999990REMMET063METAR ETMN 060120Z 18011KT 9999 FEW100 SCT220 03/01 Q1005 BLU/=
0170101360999992014010602204+53768+008659FM-15+002399999V0201801N00621045721CN009999199+00301+00101999999ADDGA1021+021341991GA2041+045721991GE19MSL   +99999+99999GF199999021990021341991991MA1100401999990REMMET063METAR ETMN 060220Z 18012KT 9999 FEW070 SCT150 03/01 Q1004 BLU/=
0156101360999992014010603204+53768+008659FM-15+002399999V0201701N007710079219N009999199+00401+00101999999ADDGA1071+007921991GE19MSL   +99999+99999GF199999071990007921991991MA1100301999990MW1611REMMET059METAR ETMN 060320Z 17015KT 9999 -RA BKN026 04/01 Q1003 BLU=
0158101360999992014010604204+53768+008659FM-15+002399999V0201801N007210091419N009999199+00401+00101999999ADDGA1071+009141991GE19MSL   +99999+99999GF199999071990009141991991MA1100201999990MW1581REMMET061METAR ETMN 060420Z 18014KT 9999 -DZRA BKN030 04/01 Q1002 BLU=
0198101360999992014010605204+53768+008659FM-15+002399999V0201801N005710091419N009999199+00401+00301999999ADDGA1041+006101991GA2071+009141991GE19MSL   +99999+99999GF199999041990006101991991MA1100101999990MW1511REMMET085METAR ETMN 060520Z 18011KT 9999 -DZ SCT020 BKN030 04/03 Q1001 BLU BLU      BECMG WHT=
0198101360999992014010606204+53768+008659FM-15+002399999V0201901N006710070119N009999199+00501+00301999999ADDGA1041+003351991GA2071+007011991GE19MSL   +99999+99999GF199999041990003351991991MA1100101999990MW1511REMMET085METAR ETMN 060620Z 19013KT 9999 -DZ SCT011 BKN023 05/03 Q1001 WHT WHT      TEMPO YLO=
0209101360999992014010606484+53768+008659FM-16+002399999V0202001N007210033519N005000199+00501+00401999999ADDGA1071+003351991GA2071+007011991GE19MSL   +99999+99999GF199999071990003351991991MA1100101999990MW1101MW2581REMMET090SPECI ETMN 060648Z 20014KT 5000 -RADZ BR BKN011 BKN023 05/04 Q1001      GRN WHT TEMPO YLO=
0188101360999992014010607204+53768+008659FM-15+002399999V0202001N006710039619N009999199+00601+00401999999ADDGA1071+003961991GA2071+007011991GE19MSL   +99999+99999GF199999071990003961991991MA1100001999990REMMET081METAR ETMN 060720Z 20013KT 9999 BKN013 BKN023 06/04 Q1000 GRN WHT TEMPO      YLO=
0175101360999992014010608204+53768+008659FM-15+002399999V0201901N006710039619N009999199+00701+00501999999ADDGA1071+003961991GE19MSL   +99999+99999GF199999071990003961991991MA1100101999990MW1611REMMET078METAR ETMN 060820Z 19013KT 9999 -RA BKN013 07/05 Q1001 GRN WHT TEMPO      YLO=
0185101360999992014010608304+53768+008659FM-16+002399999V0202001N007210030519N003500199+00701+00501999999ADDGA1071+003051991GE19MSL   +99999+99999GF199999071990003051991991MA1100101999990MW1101MW2591REMMET082SPECI ETMN 060830Z 20014KT 3500 RADZ BR BKN010 07/05 Q1001 YLO WHT      TEMPO YLO=
0214101360999992014010608544+53768+008659FM-16+002399999V0202001N006210021319N005000199+00701+00601999999ADDGA1071+002131991GA2071+003661991GE19MSL   +99999+99999GF199999071990002131991991MA1100101999990MW1101MW2581REMMET095SPECI ETMN 060854Z 20012KT 5000 -RADZ BR BKN007 BKN012 07/06 Q1001      RERA GRN WHT TEMPO YLO=
0182101360999992014010609204+53768+008659FM-15+002399999V0202001N007210021319N006000199+00701+00701999999ADDGA1071+002131991GE19MSL   +99999+99999GF199999071990002131991991MA1100101999990MW1581REMMET085METAR ETMN 060920Z 20014KT 6000 -RADZ BKN007 07/07 Q1001 RERA GRN WHT      TEMPO YLO=
0160101360999992014010610204+53768+008659FM-15+002399999V0202101N007710024419N009999199+00801+00801999999ADDGA1071+002441991GE19MSL   +99999+99999GF199999071990002441991991MA1100101999990REMMET069METAR ETMN 061020Z 21015KT 9999 BKN008 08/08 Q1001 GRN WHT TEMPO YLO=
0211101360999992014010611204+53768+008659FM-15+002399999V0202101N007210045719N009999199+00901+00801999999ADDGA1041+002741991GA2071+004571991GA3071+015241991GE19MSL   +99999+99999GF199999041990002741991991MA1100101999990REMMET088METAR ETMN 061120Z 21014KT 9999 SCT009 BKN015 BKN050 09/08 Q1001 WHT      WHT TEMPO YLO=
0211101360999992014010612204+53768+008659FM-15+002399999V0202101N006210048819N009999199+01001+00901999999ADDGA1041+003351991GA2071+004881991GA3071+021341991GE19MSL   +99999+99999GF199999041990003351991991MA1100101999990REMMET088METAR ETMN 061220Z 21012KT 9999 SCT011 BKN016 BKN070 10/09 Q1001 WHT      WHT TEMPO YLO=
0211101360999992014010613204+53768+008659FM-15+002399999V0202101N00621004881CN009999199+01101+00901999999ADDGA1021+003351991GA2041+004881991GA3071+015241991GE19MSL   +99999+99999GF199999021990003351991991MA1100101999990REMMET088METAR ETMN 061320Z 21012KT 9999 FEW011 SCT016 BKN050 11/09 Q1001 BLU      WHT TEMPO YLO=
0223101360999992014010614204+53768+008659FM-15+002399999V0202001N006710274319N009999199+01101+00901999999ADDGA1021+004571991GA2021+006101091GA3071+027431991GE19MSL   +99999+99999GF199999021990004571991991MA1100101999990MW1611REMMET094METAR ETMN 061420Z 20013KT 9999 -RA FEW015 FEW020CB BKN090 11/09 Q1001      BLU BLU TEMPO WHT=
0211101360999992014010615204+53768+008659FM-15+002399999V0202001N00621013721CN009999199+01101+00801999999ADDGA1021+005491991GA2041+013721991GA3071+027431991GE19MSL   +99999+99999GF199999021990005491991991MA1100201999990REMMET088METAR ETMN 061520Z 20012KT 9999 FEW018 SCT045 BKN090 11/08 Q1002 BLU      BLU TEMPO WHT=
0188101360999992014010616204+53768+008659FM-15+002399999V0201901N00571024381CN009999199+01101+00801999999ADDGA1021+012191991GA2041+024381991GE19MSL   +99999+99999GF199999021990012191991991MA1100101999990REMMET081METAR ETMN 061620Z 19011KT 9999 FEW040 SCT080 11/08 Q1001 BLU/BLU TEMPO      WHT=
0211101360999992014010617204+53768+008659FM-15+002399999V0201901N006210137219N009999199+01101+00801999999ADDGA1021+006101991GA2071+013721991GA3071+021341991GE19MSL   +99999+99999GF199999021990006101991991MA1100101999990REMMET088METAR ETMN 061720Z 19012KT 9999 FEW020 BKN045 BKN070 11/08 Q1001 BLU      BLU TEMPO WHT=
0188101360999992014010618204+53768+008659FM-15+002399999V0202001N004610109719N009999199+01001+00901999999ADDGA1041+005791991GA2071+010971991GE19MSL   +99999+99999GF199999041990005791991991MA1100101999990REMMET081METAR ETMN 061820Z 20009KT 9999 SCT019 BKN036 10/09 Q1001 BLU BLU TEMPO      WHT=
0188101360999992014010619204+53768+008659FM-15+002399999V0201901N006210182919N009999199+01101+00801999999ADDGA1021+006101991GA2071+018291991GE19MSL   +99999+99999GF199999021990006101991991MA1100101999990REMMET081METAR ETMN 061920Z 19012KT 9999 FEW020 BKN060 11/08 Q1001 BLU BLU TEMPO      WHT=
0199101360999992014010620204+53768+008659FM-15+002399999V0201801N006210106719N009999199+01001+00801999999ADDGA1021+004571991GA2071+010671991GE19MSL   +99999+99999GF199999021990004571991991MA1100101999990OC101181REMMET084METAR ETMN 062020Z 18012G23KT 9999 FEW015 BKN035 10/08 Q1001 BLU BLU      TEMPO GRN=
0203101360999992014010621204+53768+008659FM-15+002399999V0202001N006210091419N009999199+01001+00901999999ADDGA1041+004571081GA2071+009141991GE19MSL   +99999+99999GF199999041990004571991991MA1100101999990MW1801REMMET090METAR ETMN 062120Z 20012KT 9999 -SHRA SCT015TCU BKN030 10/09 Q1001      BLU BLU TEMPO GRN=
0188101360999992014010622204+53768+008659FM-15+002399999V0202001N006210152419N009999199+01101+00901999999ADDGA1041+006101991GA2071+015241991GE19MSL   +99999+99999GF199999041990006101991991MA1100101999990REMMET081METAR ETMN 062220Z 20012KT 9999 SCT020 BKN050 11/09 Q1001 BLU BLU TEMPO      GRN=
0200101360999992014010623204+53768+008659FM-15+002399999V0202501N006710152419N009999199+00901+00701999999ADDGA1021+004571091GA2071+015241991GE19MSL   +99999+99999GF199999021990004571991991MA1100201999990MW1801REMMET087METAR ETMN 062320Z 25013KT 9999 -SHRA FEW015CB BKN050 09/07 Q1002 BLU      FCST CANCEL=
0169101360999992014010700204+53768+008659FM-15+002399999V0202101N004110274319N009999199+00801+00701999999ADDGA1041+013721991GA2071+027431991GE19MSL   +99999+99999GF199999041990013721991991MA1100201999990REMMET062METAR ETMN 070020Z 21008KT 9999 SCT045 BKN090 08/07 Q1002 BLU=
0147101360999992014010701204+53768+008659FM-15+002399999V0202201N005119999999N009999199+00801+00601999999ADDGA1021+027431991GE19MSL   +99999+99999GF199999021990027431991991MA1100301999990REMMET056METAR ETMN 070120Z 22010KT 9999 FEW090 08/06 Q1003 BLU/=
0076101360999992014010702204+53768+008659FM-15+002399999V0202201N005719999999N009999199+00801+00601999999ADDMA1100301999990REMMET049METAR ETMN 070220Z 22011KT 9999 08/06 Q1003 BLU/=
0147101360999992014010703204+53768+008659FM-15+002399999V0202301N007219999999N009999199+00901+00701999999ADDGA1021+007621991GE19MSL   +99999+99999GF199999021990007621991991MA1100401999990REMMET056METAR ETMN 070320Z 23014KT 9999 FEW025 09/07 Q1004 BLU/=
0170101360999992014010704204+53768+008659FM-15+002399999V0202201N00621048771CN009999199+00901+00601999999ADDGA1021+007621991GA2041+048771991GE19MSL   +99999+99999GF199999021990007621991991MA1100401999990REMMET063METAR ETMN 070420Z 22012KT 9999 FEW025 SCT160 09/06 Q1004 BLU/=
0189101360999992014010705204+53768+008659FM-15+002399999V0202201N00671015241CN009999199+00901+00601999999ADDGA1041+007621991GA2041+015241991GE19MSL   +99999+99999GF199999041990007621991991MA1100501999990REMMET082METAR ETMN 070520Z 22013KT 9999 SCT025 SCT050 09/06 Q1005 BLU/BLU/      TEMPO BLU=
0189101360999992014010706204+53768+008659FM-15+002399999V0202201N006710103619N009999199+00901+00601999999ADDGA1041+007921991GA2071+010361991GE19MSL   +99999+99999GF199999041990007921991991MA1100601999990REMMET082METAR ETMN 070620Z 22013KT 9999 SCT026 BKN034 09/06 Q1006 BLU BLU/      TEMPO BLU=
0212101360999992014010707204+53768+008659FM-15+002399999V0202201N00621051821CN009999199+00901+00601999999ADDGA1041+009451991GA2041+051821991GA3071+073151991GE19MSL   +99999+99999GF199999041990009451991991MA1100701999990REMMET089METAR ETMN 070720Z 22012KT 9999 SCT031 SCT170 BKN240 09/06 Q1007 BLU/BLU/      TEMPO BLU=
0189101360999992014010708204+53768+008659FM-15+002399999V0202201N005110079219N009999199+00901+00601999999ADDGA1071+007921991GA2071+070101991GE19MSL   +99999+99999GF199999071990007921991991MA1100701999990REMMET082METAR ETMN 070820Z 22010KT 9999 BKN026 BKN230 09/06 Q1007 BLU BLU/      TEMPO BLU=
0189101360999992014010709204+53768+008659FM-15+002399999V0202201N006710670619N009999199+01001+00601999999ADDGA1041+007621991GA2071+067061991GE19MSL   +99999+99999GF199999041990007621991991MA1100701999990REMMET082METAR ETMN 070920Z 22013KT 9999 SCT025 BKN220 10/06 Q1007 BLU/BLU/      TEMPO BLU=
0212101360999992014010710204+53768+008659FM-15+002399999V0202201N00771012801CN009999199+01001+00601999999ADDGA1021+007621991GA2041+012801991GA3071+067061991GE19MSL   +99999+99999GF199999021990007621991991MA1100801999990REMMET089METAR ETMN 071020Z 22015KT 9999 FEW025 SCT042 BKN220 10/06 Q1008 BLU/BLU/      TEMPO BLU=
0212101360999992014010711204+53768+008659FM-15+002399999V0202201N007210167619N009999199+01001+00601999999ADDGA1021+007621991GA2071+016761991GA3071+067061991GE19MSL   +99999+99999GF199999021990007621991991MA1100801999990OC101291REMMET081METAR ETMN 071120Z 22014G25KT 9999 FEW025 BKN055 BKN220 10/06 Q1008      BLU BLU=
0173101360999992014010712204+53768+008659FM-15+002399999V0202201N007210670619N009999199+01101+00601999999ADDGA1041+009141991GA2071+067061991GE19MSL   +99999+99999GF199999041990009141991991MA1100801999990REMMET066METAR ETMN 071220Z 22014KT 9999 SCT030 BKN220 11/06 Q1008 BLU/BLU=
0173101360999992014010713204+53768+008659FM-15+002399999V0202201N007210088419N009999199+01001+00601999999ADDGA1071+008841991GA2071+067061991GE19MSL   +99999+99999GF199999071990008841991991MA1100801999990REMMET066METAR ETMN 071320Z 22014KT 9999 BKN029 BKN220 10/06 Q1008 BLU BLU=
0173101360999992014010714204+53768+008659FM-15+002399999V0202201N007210140219N009999199+01101+00601999999ADDGA1021+009141991GA2071+014021991GE19MSL   +99999+99999GF199999021990009141991991MA1100801999990REMMET066METAR ETMN 071420Z 22014KT 9999 FEW030 BKN046 11/06 Q1008 BLU BLU=
0173101360999992014010715204+53768+008659FM-15+002399999V0202101N006210167619N009999199+01001+00601999999ADDGA1021+009141991GA2071+016761991GE19MSL   +99999+99999GF199999021990009141991991MA1100801999990REMMET066METAR ETMN 071520Z 21012KT 9999 FEW030 BKN055 10/06 Q1008 BLU BLU=
0173101360999992014010716204+53768+008659FM-15+002399999V0202101N007210152419N009999199+01001+00601999999ADDGA1071+015241991GA2071+067061991GE19MSL   +99999+99999GF199999071990015241991991MA1100701999990REMMET066METAR ETMN 071620Z 21014KT 9999 BKN050 BKN220 10/06 Q1007 BLU BLU=
0211101360999992014010717204+53768+008659FM-15+002399999V0202101N00671015241CN009999199+01001+00601999999ADDGA1021+009751991GA2041+015241991GA3071+067061991GE19MSL   +99999+99999GF199999021990009751991991MA1100701999990REMMET088METAR ETMN 071720Z 21013KT 9999 FEW032 SCT050 BKN220 10/06 Q1007 BLU/BLU      TEMPO WHT=
0147101360999992014010717594+53768+008659FM-16+002399999V0202201N006219999999N003500199+01001+00601999999ADDMA1100901999990OC101181REMMET093SPECI ETMN 071759Z 22012G23KT 3500 SHRAGS BKN020CB BKN035 10/06 Q1009      YLO BLU TEMPO YLO=EQDD01      0ADE693
0228101360999992014010718074+53768+008659FM-16+002399999V0202601N010310112819N005000199+00601+00501999999ADDGA1041+006101091GA2071+011281991GE19MSL   +99999+99999GF199999041990006101991991MA1100901999990MW1801OC101851REMMET107SPECI ETMN 071807Z 26020G36KT 5000 R26/1100D -SHRA SCT020CB BKN037      06/05 Q1009 REGS WHT BLU TEMPO YLO=
0217101360999992014010718204+53768+008659FM-15+002399999V0202501N007210118919N007000199+00701+00601999999ADDGA1021+006101091GA2071+011891991GE19MSL   +99999+99999GF199999021990006101991991MA1100801999990MW1801REMMET104METAR ETMN 071820Z 25014KT 7000 R26/1300N -SHRA FEW020CB BKN039 07/06      Q1008 REGS WHT BLU TEMPO WHT=
0183101360999992014010719204+53768+008659FM-15+002399999V0202301N006210137219N009999199+00901+00701999999ADDGA1021+006101991GA2071+013721991GE19MSL   +99999+99999GF199999021990006101991991MA1100801999990REMMET076METAR ETMN 071920Z 23012KT 9999 FEW020 BKN045 09/07 Q1008 RERA BLU      BLU=
0150101360999992014010720204+53768+008659FM-15+002399999V0202201N005110103619N009999199+00801+00701999999ADDGA1071+010361991GE19MSL   +99999+99999GF199999071990010361991991MA1100901999990REMMET059METAR ETMN 072020Z 22010KT 9999 BKN034 08/07 Q1009 BLU BLU=
0173101360999992014010721204+53768+008659FM-15+002399999V0202201N00461064011CN009999199+00901+00601999999ADDGA1021+009451991GA2041+064011991GE19MSL   +99999+99999GF199999021990009451991991MA1100901999990REMMET066METAR ETMN 072120Z 22009KT 9999 FEW031 SCT210 09/06 Q1009 BLU/BLU=
0173101360999992014010722204+53768+008659FM-15+002399999V0202201N00511064011CN009999199+00901+00601999999ADDGA1021+010061991GA2041+064011991GE19MSL   +99999+99999GF199999021990010061991991MA1100901999990REMMET066METAR ETMN 072220Z 22010KT 9999 FEW033 SCT210 09/06 Q1009 BLU/BLU=
0158101360999992014010723204+53768+008659FM-15+002399999V0202301N005719999999N009999199+00901+00601999999ADDGA1021+010061991GE19MSL   +99999+99999GF199999021990010061991991MA1100901999990REMMET067METAR ETMN 072320Z 23011KT 9999 FEW033 09/06 Q1009 BLU/FCST CANCEL=
0170101360999992014010800204+53768+008659FM-15+002399999V0202301N00461064011CN009999199+00901+00601999999ADDGA1041+009751991GA2041+064011991GE19MSL   +99999+99999GF199999041990009751991991MA1100901999990REMMET063METAR ETMN 080020Z 23009KT 9999 SCT032 SCT210 09/06 Q1009 BLU/=
0170101360999992014010801204+53768+008659FM-15+002399999V0202301N00511064011CN009999199+00801+00601999999ADDGA1021+015241991GA2041+064011991GE19MSL   +99999+99999GF199999021990015241991991MA1100901999990REMMET063METAR ETMN 080120Z 23010KT 9999 FEW050 SCT210 08/06 Q1009 BLU/=
0170101360999992014010802204+53768+008659FM-15+002399999V0202201N004610640119N009999199+00801+00601999999ADDGA1021+045721991GA2081+064011991GE19MSL   +99999+99999GF199999021990045721991991MA1100901999990REMMET063METAR ETMN 080220Z 22009KT 9999 FEW150 OVC210 08/06 Q1009 BLU/=
0192101360999992014010803204+53768+008659FM-15+002399999V0202101N004110274319N009999199+00801+00601999999ADDGA1021+009141991GA2071+027431991GA3081+064011991GE19MSL   +99999+99999GF199999021990009141991991MA1100901999990REMMET069METAR ETMN 080320Z 21008KT 9999 FEW030 BKN090 OVC210 08/06 Q1009 BLU=
0192101360999992014010804204+53768+008659FM-15+002399999V0202101N005110243819N009999199+00901+00701999999ADDGA1021+015241991GA2071+024381991GA3081+039621991GE19MSL   +99999+99999GF199999021990015241991991MA1100801999990REMMET069METAR ETMN 080420Z 21010KT 9999 FEW050 BKN080 OVC130 09/07 Q1008 BLU=
0175101360999992014010805204+53768+008659FM-15+002399999V0202201N004610106719N009999199+00901+00701999999ADDGA1071+010671991GE19MSL   +99999+99999GF199999071990010671991991MA1100801999990MW1611REMMET078METAR ETMN 080520Z 22009KT 9999 -RA BKN035 09/07 Q1008 BLU BLU TEMPO      GRN=
0198101360999992014010806204+53768+008659FM-15+002399999V0202401N004610109719N009000199+00801+00701999999ADDGA1021+004271991GA2071+010971991GE19MSL   +99999+99999GF199999021990004271991991MA1100901999990MW1611REMMET085METAR ETMN 080620Z 24009KT 9000 -RA FEW014 BKN036 08/07 Q1009 BLU BLU      TEMPO GRN=
0177101360999992014010807204+53768+008659FM-15+002399999V0202301N004110106719N009000199+00801+00701999999ADDGA1071+010671991GE19MSL   +99999+99999GF199999071990010671991991MA1101001999990MW1581REMMET080METAR ETMN 080720Z 23008KT 9000 -DZRA BKN035 08/07 Q1010 BLU BLU TEMPO      GRN=
0188101360999992014010808204+53768+008659FM-15+002399999V0202401N007210152419N009999199+00801+00601999999ADDGA1021+007621991GA2071+015241991GE19MSL   +99999+99999GF199999021990007621991991MA1101101999990REMMET081METAR ETMN 080820Z 24014KT 9999 FEW025 BKN050 08/06 Q1011 BLU BLU TEMPO      GRN=
0160101360999992014010809204+53768+008659FM-15+002399999V0202401N007210051819N009999199+00801+00601999999ADDGA1071+005181991GE19MSL   +99999+99999GF199999071990005181991991MA1101101999990REMMET069METAR ETMN 080920Z 24014KT 9999 BKN017 08/06 Q1011 WHT BLU TEMPO GRN=
0160101360999992014010809504+53768+008659FM-16+002399999V0202401N007210039619N009999199+00801+00601999999ADDGA1071+003961991GE19MSL   +99999+99999GF199999071990003961991991MA1101201999990REMMET069SPECI ETMN 080950Z 24014KT 9999 BKN013 08/06 Q1012 GRN BLU TEMPO GRN=
0160101360999992014010810074+53768+008659FM-16+002399999V0202401N007219999999N009999199+00801+00601999999ADDGA1041+003961991GE19MSL   +99999+99999GF199999041990003961991991MA1101201999990REMMET069SPECI ETMN 081007Z 24014KT 9999 SCT013 08/06 Q1012 BLU/BLU TEMPO GRN=
0160101360999992014010810204+53768+008659FM-15+002399999V0202401N006710039619N009999199+00801+00601999999ADDGA1071+003961991GE19MSL   +99999+99999GF199999071990003961991991MA1101301999990REMMET069METAR ETMN 081020Z 24013KT 9999 BKN013 08/06 Q1013 GRN BLU TEMPO GRN=
0160101360999992014010810374+53768+008659FM-16+002399999V0202401N006719999999N009999199+00801+00601999999ADDGA1041+003961991GE19MSL   +99999+99999GF199999041990003961991991MA1101201999990REMMET069SPECI ETMN 081037Z 24013KT 9999 SCT013 08/06 Q1012 BLU/BLU TEMPO GRN=
0160101360999992014010811204+53768+008659FM-15+002399999V0202401N008219999999N009999199+00901+00601999999ADDGA1041+005491991GE19MSL   +99999+99999GF199999041990005491991991MA1101201999990REMMET069METAR ETMN 081120Z 24016KT 9999 SCT018 09/06 Q1012 BLU/BLU TEMPO GRN=
0160101360999992014010812204+53768+008659FM-15+002399999V0202401N007219999999N009999199+00901+00601999999ADDGA1041+006101991GE19MSL   +99999+99999GF199999041990006101991991MA1101201999990REMMET069METAR ETMN 081220Z 24014KT 9999 SCT020 09/06 Q1012 BLU/BLU TEMPO GRN=
0160101360999992014010813204+53768+008659FM-15+002399999V0202401N006710061019N009999199+00901+00601999999ADDGA1071+006101991GE19MSL   +99999+99999GF199999071990006101991991MA1101201999990REMMET069METAR ETMN 081320Z 24013KT 9999 BKN020 09/06 Q1012 WHT BLU TEMPO GRN=
0160101360999992014010814204+53768+008659FM-15+002399999V0202401N007210076219N009999199+00901+00601999999ADDGA1071+007621991GE19MSL   +99999+99999GF199999071990007621991991MA1101301999990REMMET069METAR ETMN 081420Z 24014KT 9999 BKN025 09/06 Q1013 BLU BLU TEMPO GRN=
0169101360999992014010815204+53768+008659FM-15+002399999V0202401N007210064019N009999199+00901+00601999999ADDGA1071+006401991GE19MSL   +99999+99999GF199999071990006401991991MA1101301999990REMMET078METAR COR ETMN 081520Z 24014KT 9999 BKN021 09/06 Q1013 WHT WHT TEMPO      GRN=
0160101360999992014010816204+53768+008659FM-15+002399999V0202401N006710061019N009999199+00901+00601999999ADDGA1071+006101991GE19MSL   +99999+99999GF199999071990006101991991MA1101301999990REMMET069METAR ETMN 081620Z 24013KT 9999 BKN020 09/06 Q1013 WHT WHT TEMPO GRN=
0177101360999992014010817204+53768+008659FM-15+002399999V0202501N005710057919N009999199+00901+00601999999ADDGA1071+005791991GE19MSL   +99999+99999GF199999071990005791991991MA1101401999990MW1581REMMET080METAR ETMN 081720Z 25011KT 9999 -DZRA BKN019 09/06 Q1014 WHT WHT TEMPO      GRN=
0200101360999992014010818204+53768+008659FM-15+002399999V0202501N006210051819N009000199+00901+00601999999ADDGA1071+005181991GA2071+009141991GE19MSL   +99999+99999GF199999071990005181991991MA1101401999990MW1581REMMET087METAR ETMN 081820Z 25012KT 9000 -DZRA BKN017 BKN030 09/06 Q1014 WHT      WHT TEMPO GRN=
0188101360999992014010819204+53768+008659FM-15+002399999V0202401N005710054919N009999199+00801+00601999999ADDGA1071+005491991GA2071+010671991GE19MSL   +99999+99999GF199999071990005491991991MA1101401999990REMMET081METAR ETMN 081920Z 24011KT 9999 BKN018 BKN035 08/06 Q1014 WHT WHT TEMPO      GRN=
0188101360999992014010820204+53768+008659FM-15+002399999V0202401N004610091419N009999199+00801+00601999999ADDGA1041+005491991GA2071+009141991GE19MSL   +99999+99999GF199999041990005491991991MA1101401999990REMMET081METAR ETMN 082020Z 24009KT 9999 SCT018 BKN030 08/06 Q1014 BLU WHT TEMPO      GRN=
0188101360999992014010821204+53768+008659FM-15+002399999V0202401N005110091419N009999199+00801+00601999999ADDGA1021+004881991GA2071+009141991GE19MSL   +99999+99999GF199999021990004881991991MA1101401999990REMMET081METAR ETMN 082120Z 24010KT 9999 FEW016 BKN030 08/06 Q1014 BLU WHT TEMPO      GRN=
0186101360999992014010823204+53768+008659FM-15+002399999V0202201N00361030481CN009999199+00701+00501999999ADDGA1021+008531991GA2041+030481991GE19MSL   +99999+99999GF199999021990008531991991MA1101301999990REMMET079METAR ETMN 082320Z 22007KT 9999 FEW028 SCT100 07/05 Q1013 BLU/FCST      CANCEL=
0146101360999992014010900204+53768+008659FM-15+002399999V0202101N003110039619N009999199+00701+00601999999ADDGA1071+003961991GE19MSL   +99999+99999GF199999071990003961991991MA1101201999990REMMET055METAR ETMN 090020Z 21006KT 9999 BKN013 07/06 Q1012 GRN=
0169101360999992014010900444+53768+008659FM-16+002399999V0202001N003110054919N009000199+00701+00601999999ADDGA1071+005491991GA2071+030481991GE19MSL   +99999+99999GF199999071990005491991991MA1101201999990REMMET062SPECI ETMN 090044Z 20006KT 9000 BKN018 BKN100 07/06 Q1012 WHT=
0192101360999992014010901204+53768+008659FM-15+002399999V0202001N00261021341CN009000199+00701+00501999999ADDGA1021+005491991GA2041+021341991GA3071+030481991GE19MSL   +99999+99999GF199999021990005491991991MA1101101999990REMMET069METAR ETMN 090120Z 20005KT 9000 FEW018 SCT070 BKN100 07/05 Q1011 BLU=
0146101360999992014010902204+53768+008659FM-15+002399999V0201601N003110198119N008000199+00701+00501999999ADDGA1071+019811991GE19MSL   +99999+99999GF199999071990019811991991MA1101001999990REMMET055METAR ETMN 090220Z 16006KT 8000 BKN065 07/05 Q1010 BLU=
0146101360999992014010903204+53768+008659FM-15+002399999V0201601N003610195119N007000199+00701+00501999999ADDGA1071+019511991GE19MSL   +99999+99999GF199999071990019511991991MA1100801999990REMMET055METAR ETMN 090320Z 16007KT 7000 BKN064 07/05 Q1008 WHT=
0169101360999992014010904204+53768+008659FM-15+002399999V0201701N004110182919N007000199+00701+00501999999ADDGA1021+010671991GA2071+018291991GE19MSL   +99999+99999GF199999021990010671991991MA1100601999990REMMET062METAR ETMN 090420Z 17008KT 7000 FEW035 BKN060 07/05 Q1006 WHT=
0212101360999992014010905204+53768+008659FM-15+002399999V0201801N005110061019N005000199+00701+00601999999ADDGA1071+006101991GA2071+009141991GE19MSL   +99999+99999GF199999071990006101991991MA1100401999990MW1101MW2611REMMET093METAR ETMN 090520Z 18010KT 5000 -RA BR BKN020 BKN030 07/06 Q1004 RERA      WHT WHT TEMPO YLO=
0206101360999992014010905424+53768+008659FM-16+002399999V0201901N005110121919N004500199+00701+00601999999ADDGA1041+006101991GA2071+012191991GE19MSL   +99999+99999GF199999041990006101991991MA1100401999990MW1101MW2631REMMET087SPECI ETMN 090542Z 19010KT 4500 RA BR SCT020 BKN040 07/06 Q1004 GRN      WHT TEMPO YLO=
0235101360999992014010906014+53768+008659FM-16+002399999V0201901N006210048819N005000199+00801+00701999999ADDGA1021+003051991GA2071+004881991GA3071+013721991GE19MSL   +99999+99999GF199999021990003051991991MA1100301999990MW1101MW2611REMMET100SPECI ETMN 090601Z 19012KT 5000 -RA BR FEW010 BKN016 BKN045 08/07 Q1003      RERA WHT WHT TEMPO YLO=
0226101360999992014010906204+53768+008659FM-15+002399999V0201901N00671004881CN007000199+00801+00701999999ADDGA1021+002741991GA2041+004881991GA3071+018291991GE19MSL   +99999+99999GF199999021990002741991991MA1100301999990MW1611REMMET097METAR ETMN 090620Z 19013KT 7000 -RA FEW009 SCT016 BKN060 08/07 Q1003      RERA WHT WHT TEMPO YLO=
0209101360999992014010906354+53768+008659FM-16+002399999V0202001N006210027419N008000199+00801+00801999999ADDGA1071+002741991GA2071+016761991GE19MSL   +99999+99999GF199999071990002741991991MA1100301999990MW1611OC101131REMMET088SPECI ETMN 090635Z 20012G22KT 8000 -RA BKN009 BKN055 08/08 Q1003 GRN      WHT TEMPO YLO=
0198101360999992014010907204+53768+008659FM-15+002399999V0202101N007210024419N006000199+00901+00801999999ADDGA1071+002441991GA2071+007011991GE19MSL   +99999+99999GF199999071990002441991991MA1100101999990MW1611REMMET085METAR ETMN 090720Z 21014KT 6000 -RA BKN008 BKN023 09/08 Q1001 GRN WHT      TEMPO YLO=
0209101360999992014010907284+53768+008659FM-16+002399999V0202101N007210021319N004000199+00901+00801999999ADDGA1071+002131991GA2071+004571991GE19MSL   +99999+99999GF199999071990002131991991MA1100101999990MW1101MW2581REMMET090SPECI ETMN 090728Z 21014KT 4000 -DZRA BR BKN007 BKN015 09/08 Q1001      GRN WHT TEMPO YLO=
0208101360999992014010907434+53768+008659FM-16+002399999V0202101N006710021319N002000199+00901+00801999999ADDGA1071+002131991GA2071+004571991GE19MSL   +99999+99999GF199999071990002131991991MA1100101999990MW1101MW2591REMMET089SPECI ETMN 090743Z 21013KT 2000 RADZ BR BKN007 BKN015 09/08 Q1001 YLO      WHT TEMPO YLO=
0246101360999992014010908044+53768+008659FM-16+002399999V0202001N006710021319N001300199+00901+00801999999ADDGA1021+001221991GA2071+002131991GA3071+009141991GE19MSL   +99999+99999GF199999021990001221991991MA1100101999990MW1101MW2591REMMET111SPECI ETMN 090804Z 20013KT 1300 R26/1200D DZRA BR FEW004 BKN007 BKN030      09/08 Q1001 RERA AMB WHT TEMPO AMB=
0224101360999992014010908204+53768+008659FM-15+002399999V0202001N005110012219N001800199+00901+00801999999ADDGA1071+001221991GA2071+002741991GE19MSL   +99999+99999GF199999071990001221991991MA1100101999990MW1101MW2581REMMET105METAR ETMN 090820Z 20010KT 1800 R26/2400N -RADZ BR BKN004 BKN009 09/08      Q1001 RERA YLO GRN TEMPO YLO=
0209101360999992014010908324+53768+008659FM-16+002399999V0202001N005110018319N003700199+00901+00901999999ADDGA1071+001831991GA2071+002741991GE19MSL   +99999+99999GF199999071990001831991991MA1100001999990MW1101MW2581REMMET090SPECI ETMN 090832Z 20010KT 3700 -RADZ BR BKN006 BKN009 09/09 Q1000      YLO GRN TEMPO YLO=
0197101360999992014010908374+53768+008659FM-16+002399999V0202001N005110021319N005000199+00901+00901999999ADDGA1071+002131991GA2071+003051991GE19MSL   +99999+99999GF199999071990002131991991MA1100001999990MW1101REMMET084SPECI ETMN 090837Z 20010KT 5000 BR BKN007 BKN010 09/09 Q1000 GRN GRN      TEMPO YLO=
0200101360999992014010909204+53768+008659FM-15+002399999V0202001N006710021319N006000199+01001+00901999999ADDGA1071+002131991GA2071+003961991GE19MSL   +99999+99999GF199999071990002131991991MA1099901999990MW1581REMMET087METAR ETMN 090920Z 20013KT 6000 -DZRA BKN007 BKN013 10/09 Q0999 GRN      GRN TEMPO YLO=
0231101360999992014010909394+53768+008659FM-16+002399999V0202101N007210018319N003000199+01001+00901999999ADDGA1021+001221991GA2071+001831991GA3071+003961991GE19MSL   +99999+99999GF199999021990001221991991MA1099901999990MW1101MW2591REMMET096SPECI ETMN 090939Z 21014KT 3000 DZRA BR FEW004 BKN006 BKN013 10/09      Q0999 YLO GRN TEMPO YLO=
0237101360999992014010909454+53768+008659FM-16+002399999V0202101N007210024419N003700199+01001+00901999999ADDGA1041+001221991GA2071+002441991GA3071+004271991GE19MSL   +99999+99999GF199999041990001221991991MA1099901999990MW1101MW2581REMMET102SPECI ETMN 090945Z 21014KT 3700 -DZRA BR SCT004 BKN008 BKN014 10/09      Q0999 REDZ GRN GRN TEMPO YLO=
0223101360999992014010910204+53768+008659FM-15+002399999V0202201N007710021319N005000199+01001+00901999999ADDGA1071+002131991GA2071+003351991GE19MSL   +99999+99999GF199999071990002131991991MA1099801999990MW1101MW2511OC101291REMMET096METAR ETMN 091020Z 22015G25KT 5000 -DZ BR BKN007 BKN011 10/09 Q0998      REDZ GRN GRN TEMPO YLO=
0211101360999992014010910454+53768+008659FM-16+002399999V0202201N008210045719N009000199+01001+00901999999ADDGA1041+002131991GA2071+004571991GA3071+009141991GE19MSL   +99999+99999GF199999041990002131991991MA1099801999990REMMET088SPECI ETMN 091045Z 22016KT 9000 SCT007 BKN015 BKN030 10/09 Q0998 WHT      GRN TEMPO YLO=
0211101360999992014010911204+53768+008659FM-15+002399999V0202201N00821006101CN009999199+01101+00901999999ADDGA1021+002131991GA2041+006101991GA3071+024381991GE19MSL   +99999+99999GF199999021990002131991991MA1099701999990REMMET088METAR ETMN 091120Z 22016KT 9999 FEW007 SCT020 BKN080 11/09 Q0997 BLU      WHT TEMPO GRN=
0213101360999992014010912134+53768+008659FM-16+002399999V0202201N009310061019N004000199+01101+00801999999ADDGA1041+002131991GA2071+006101081GE19MSL   +99999+99999GF199999041990002131991991MA1099601999990MW1811OC101491REMMET092SPECI ETMN 091213Z 22018G29KT 4000 SHRA SCT007 BKN020TCU 11/08 Q0996      GRN BLU TEMPO GRN=
0219101360999992014010912204+53768+008659FM-15+002399999V0202301N010310061019N004500199+01001+00801999999ADDGA1041+002131991GA2071+006101081GE19MSL   +99999+99999GF199999041990002131991991MA1099601999990MW1801OC101701REMMET098METAR ETMN 091220Z 23020G33KT 4500 -SHRA SCT007 BKN020TCU 10/08 Q0996      RERA GRN BLU TEMPO GRN=
0234101360999992014010912294+53768+008659FM-16+002399999V0202401N01181006101CN005000199+01001+00801999999ADDGA1021+002131991GA2041+006101991GA3071+013721991GE19MSL   +99999+99999GF199999021990002131991991MA1099501999990MW1801OC101751REMMET097SPECI ETMN 091229Z 24023G34KT 5000 -SHRA FEW007 SCT020 BKN045 10/08      Q0995 WHT BLU TEMPO GRN=
0210101360999992014010913204+53768+008659FM-15+002399999V0202401N009310121919N009999199+01001+00701999999ADDGA1041+007621991GA2071+012191991GE19MSL   +99999+99999GF199999041990007621991991MA1099501999990MW1161OC101491REMMET089METAR ETMN 091320Z 24018G29KT 9999 VCSH SCT025 BKN040 10/07 Q0995 BLU      BLU TEMPO GRN=
0214101360999992014010913444+53768+008659FM-16+002399999V0202401N011310067119N009000199+01001+00701999999ADDGA1071+006711081GA2071+015241991GE19MSL   +99999+99999GF199999071990006711991991MA1099501999990MW1801OC101851REMMET093SPECI ETMN 091344Z 24022G36KT 9000 -SHRA BKN022TCU BKN050 10/07 Q0995      WHT BLU TEMPO GRN=
0191101360999992014010914204+53768+008659FM-15+002399999V0202401N008210067119N009999199+00901+00701999999ADDGA1071+006711081GA2041+024381991GE19MSL   +99999+99999GF199999071990006711991991MA1099501999990REMMET084METAR ETMN 091420Z 24016KT 9999 BKN022TCU SCT080 09/07 Q0995 WHT BLU      TEMPO GRN=
0202101360999992014010915204+53768+008659FM-15+002399999V0202601N012410106719N009999199+00801+00601999999ADDGA1041+004881081GA2071+010671991GE19MSL   +99999+99999GF199999041990004881991991MA1099501999990OC101851REMMET087METAR ETMN 091520Z 26024G36KT 9999 SCT016TCU BKN035 08/06 Q0995 BLU      BLU TEMPO GRN=
0191101360999992014010916204+53768+008659FM-15+002399999V0202601N012910054919N009999199+00801+00501999999ADDGA1071+005491081GE19MSL   +99999+99999GF199999071990005491991991MA1099501999990MW1801OC101901REMMET086METAR ETMN 091620Z 26025G37KT 9999 -SHRA BKN018TCU 08/05 Q0995 WHT      BLU TEMPO GRN=
0190101360999992014010916314+53768+008659FM-16+002399999V0202601N011810036619N004000199+00701+00601999999ADDGA1071+003661081GE19MSL   +99999+99999GF199999071990003661991991MA1099501999990MW1811OC102111REMMET085SPECI ETMN 091631Z 26023G41KT 4000 SHRA BKN012TCU 07/06 Q0995 GRN BLU      TEMPO GRN=
0184101360999992014010916474+53768+008659FM-16+002399999V0202701N010810039619N008000199+00701+00501999999ADDGA1071+003961081GE19MSL   +99999+99999GF199999071990003961991991MA1099501999990OC101701REMMET085SPECI ETMN 091647Z 27021G33KT 8000 BKN013TCU 07/05 Q0995 RERA GRN WHT      TEMPO GRN=
0196101360999992014010917204+53768+008659FM-15+002399999V0202701N010810091419N009999199+00701+00501999999ADDGA1041+003051081GA2071+009141991GE19MSL   +99999+99999GF199999041990003051991991MA1099601999990REMMET089METAR ETMN 091720Z 27021KT 9999 SCT010TCU BKN030 07/05 Q0996 RERA BLU      BLU TEMPO GRN=
0160101360999992014010918204+53768+008659FM-15+002399999V0202701N008210042719N009999199+00601+00401999999ADDGA1071+004271991GE19MSL   +99999+99999GF199999071990004271991991MA1099801999990REMMET069METAR ETMN 091820Z 27016KT 9999 BKN014 06/04 Q0998 GRN WHT TEMPO GRN=
0188101360999992014010919204+53768+008659FM-15+002399999V0202701N009810106719N009999199+00601+00401999999ADDGA1021+004881991GA2071+010671991GE19MSL   +99999+99999GF199999021990004881991991MA1099901999990REMMET081METAR ETMN 091920Z 27019KT 9999 FEW016 BKN035 06/04 Q0999 BLU BLU TEMPO      GRN=
0188101360999992014010920204+53768+008659FM-15+002399999V0202601N010810045719N009999199+00701+00401999999ADDGA1071+004571991GA2071+007621991GE19MSL   +99999+99999GF199999071990004571991991MA1100001999990REMMET081METAR ETMN 092020Z 26021KT 9999 BKN015 BKN025 07/04 Q1000 WHT BLU TEMPO      GRN=
0203101360999992014010921204+53768+008659FM-15+002399999V0202601N009810067119N009000199+00701+00501999999ADDGA1041+003661081GA2071+006711991GE19MSL   +99999+99999GF199999041990003661991991MA1100101999990MW1801REMMET090METAR ETMN 092120Z 26019KT 9000 -SHRA SCT012TCU BKN022 07/05 Q1001      WHT BLU TEMPO GRN=
0196101360999992014010922204+53768+008659FM-15+002399999V0202601N007710103619N009999199+00601+00401999999ADDGA1021+004571081GA2071+010361991GE19MSL   +99999+99999GF199999021990004571991991MA1100201999990REMMET089METAR ETMN 092220Z 26015KT 9999 FEW015TCU BKN034 06/04 Q1002 RERA BLU      BLU TEMPO GRN=
0209101360999992014010923004+53768+008659FM-16+002399999V0202701N008210140219N009999199+00601+00401999999ADDGA1021+004881991GA2071+014021991GA3071+030481991GE19MSL   +99999+99999GF199999021990004881991991MA1100201999990REMMET086SPECI ETMN 092300Z 27016KT 9999 FEW016 BKN046 BKN100 06/04 Q1002 BLU      FCST CANCEL=
0169101360999992014010923204+53768+008659FM-15+002399999V0202701N008810152419N009999199+00701+00401999999ADDGA1021+006101991GA2071+015241991GE19MSL   +99999+99999GF199999021990006101991991MA1100201999990REMMET062METAR ETMN 092320Z 27017KT 9999 FEW020 BKN050 07/04 Q1002 BLU=
0198101360999992014010923284+53768+008659FM-16+002399999V0202701N009810039619N004500199+00601+00401999999ADDGA1071+003961091GA2071+009141991GE19MSL   +99999+99999GF199999071990003961991991MA1100201999990MW1811OC101851REMMET077SPECI ETMN 092328Z 27019G36KT 4500 SHRA BKN013CB BKN030 06/04 Q1002      GRN=
0192101360999992014010923504+53768+008659FM-16+002399999V0202801N008210103619N009000199+00601+00401999999ADDGA1021+004271091GA2071+010361991GE19MSL   +99999+99999GF199999021990004271991991MA1100301999990OC101341REMMET077SPECI ETMN 092350Z 28016G26KT 9000 FEW014CB BKN034 06/04 Q1003 RERA      BLU=
0152101360999992014011000204+53768+008659FM-15+002399999V0202701N008819999999N009999199+00601+00401999999ADDGA1021+004571991GE19MSL   +99999+99999GF199999021990004571991991MA1100301999990REMMET061METAR ETMN 100020Z 27017KT 9999 FEW015 06/04 Q1003 RERA BLU/=
0173101360999992014011001204+53768+008659FM-15+002399999V0202701N00931010671CN009999199+00601+00401999999ADDGA1021+005181081GA2041+010671991GE19MSL   +99999+99999GF199999021990005181991991MA1100401999990REMMET066METAR ETMN 100120Z 27018KT 9999 FEW017TCU SCT035 06/04 Q1004 BLU/=
0183101360999992014011002204+53768+008659FM-15+002399999V0202701N008210121919N009999199+00601+00401999999ADDGA1021+004271081GA2071+012191991GE19MSL   +99999+99999GF199999021990004271991991MA1100401999990OC101341REMMET068METAR ETMN 100220Z 27016G26KT 9999 FEW014TCU BKN040 06/04 Q1004 BLU=
0200101360999992014011003204+53768+008659FM-15+002399999V0202701N008810121919N009999199+00601+00401999999ADDGA1021+004571081GA2071+012191991GE19MSL   +99999+99999GF199999021990004571991991MA1100501999990MW1801OC101541REMMET079METAR ETMN 100320Z 27017G30KT 9999 -SHRA FEW015TCU BKN040 06/04 Q1005      BLU=
0172101360999992014011004204+53768+008659FM-15+002399999V0202701N008210152419N009999199+00701+00401999999ADDGA1021+004571081GA2071+015241991GE19MSL   +99999+99999GF199999021990004571991991MA1100501999990REMMET065METAR ETMN 100420Z 27016KT 9999 FEW015TCU BKN050 07/04 Q1005 BLU=
0181101360999992014011005204+53768+008659FM-15+002399999V0202701N00981014631CN009999199+00701+00401999999ADDGA1021+004271991GA2041+014631991GE19MSL   +99999+99999GF199999021990004271991991MA1100601999990OC101491REMMET066METAR ETMN 100520Z 27019G29KT 9999 FEW014 SCT048 07/04 Q1006 BLU/=
0213101360999992014011005394+53768+008659FM-16+002399999V0202701N009310042719N005000199+00601+00401999999ADDGA1071+004271081GA2071+014631991GE19MSL   +99999+99999GF199999071990004271991991MA1100601999990MW1811OC101651REMMET092SPECI ETMN 100539Z 27018G32KT 5000 SHRA BKN014TCU BKN048 06/04 Q1006      GRN BLU TEMPO GRN=
0208101360999992014011006204+53768+008659FM-15+002399999V0202801N007710042719N006000199+00601+00501999999ADDGA1071+004271081GA2071+009751991GE19MSL   +99999+99999GF199999071990004271991991MA1100701999990MW1801REMMET095METAR ETMN 100620Z 28015KT 6000 -SHRA BKN014TCU BKN032 06/05 Q1007      RERA GRN BLU TEMPO GRN=
0202101360999992014011007204+53768+008659FM-15+002399999V0202701N007210045719N009999199+00601+00501999999ADDGA1071+004571081GA2071+012191991GE19MSL   +99999+99999GF199999071990004571991991MA1100801999990MW1161REMMET089METAR ETMN 100720Z 27014KT 9999 VCSH BKN015TCU BKN040 06/05 Q1008 WHT      BLU TEMPO GRN=
0188101360999992014011008204+53768+008659FM-15+002399999V0202601N008210137219N009999199+00601+00401999999ADDGA1021+004881991GA2071+013721991GE19MSL   +99999+99999GF199999021990004881991991MA1100801999990REMMET081METAR ETMN 100820Z 26016KT 9999 FEW016 BKN045 06/04 Q1008 BLU BLU TEMPO      GRN=
0200101360999992014011009204+53768+008659FM-15+002399999V0202601N008210137219N009999199+00601+00501999999ADDGA1041+004571991GA2071+013721991GE19MSL   +99999+99999GF199999041990004571991991MA1100901999990MW1801REMMET087METAR ETMN 100920Z 26016KT 9999 -SHRA SCT015 BKN045 06/05 Q1009 BLU      BLU TEMPO GRN=
0211101360999992014011010204+53768+008659FM-15+002399999V0202501N00931004571CN009999199+00601+00501999999ADDGA1021+003051991GA2041+004571991GA3071+013721991GE19MSL   +99999+99999GF199999021990003051991991MA1101001999990REMMET088METAR ETMN 101020Z 25018KT 9999 FEW010 SCT015 BKN045 06/05 Q1010 BLU      BLU TEMPO WHT=
0223101360999992014011011204+53768+008659FM-15+002399999V0202601N00771003661CN009999199+00601+00501999999ADDGA1021+001521991GA2041+003661991GA3081+009751991GE19MSL   +99999+99999GF199999021990001521991991MA1101001999990MW1801REMMET094METAR ETMN 101120Z 26015KT 9999 -SHRA FEW005 SCT012 OVC032 06/05 Q1010      BLU BLU TEMPO WHT=
0211101360999992014011012204+53768+008659FM-15+002399999V0202601N008210048819N009999199+00701+00401999999ADDGA1041+003051991GA2071+004881991GA3071+010671991GE19MSL   +99999+99999GF199999041990003051991991MA1101001999990REMMET088METAR ETMN 101220Z 26016KT 9999 SCT010 BKN016 BKN035 07/04 Q1010 WHT      BLU TEMPO WHT=
0200101360999992014011013204+53768+008659FM-15+002399999V0202601N007710103619N009999199+00701+00401999999ADDGA1041+004271991GA2071+010361991GE19MSL   +99999+99999GF199999041990004271991991MA1101001999990MW1801REMMET087METAR ETMN 101320Z 26015KT 9999 -SHRA SCT014 BKN034 07/04 Q1010 BLU      BLU TEMPO WHT=
0188101360999992014011014204+53768+008659FM-15+002399999V0202701N006710106719N009999199+00701+00401999999ADDGA1041+004571991GA2071+010671991GE19MSL   +99999+99999GF199999041990004571991991MA1101101999990REMMET081METAR ETMN 101420Z 27013KT 9999 SCT015 BKN035 07/04 Q1011 BLU BLU TEMPO      WHT=
0196101360999992014011015204+53768+008659FM-15+002399999V0202601N00621011281CN009999199+00701+00401999999ADDGA1021+005491991GA2041+011281991GA3071+064011991GE19MSL   +99999+99999GF199999021990005491991991MA1101101999990REMMET073METAR ETMN 101520Z 26012KT 9999 FEW018 SCT037 BKN210 07/04 Q1011 BLU/BLU=
0186101360999992014011016204+53768+008659FM-15+002399999V0202601N005710051819N009999199+00701+00401999999ADDGA1071+005181991GA2081+012501991GE19MSL   +99999+99999GF199999071990005181991991MA1101101999990REMMET079METAR ETMN 101620Z 26011KT 9999 BKN017 OVC041 07/04 Q1011 WHT FCST      CANCEL=
0169101360999992014011017204+53768+008659FM-15+002399999V0202501N006210118919N009999199+00701+00501999999ADDGA1041+005181991GA2071+011891991GE19MSL   +99999+99999GF199999041990005181991991MA1101101999990REMMET062METAR ETMN 101720Z 25012KT 9999 SCT017 BKN039 07/05 Q1011 BLU=
0170101360999992014011018204+53768+008659FM-15+002399999V0202501N00671012501CN009999199+00601+00401999999ADDGA1021+004881991GA2041+012501991GE19MSL   +99999+99999GF199999021990004881991991MA1101201999990REMMET063METAR ETMN 101820Z 25013KT 9999 FEW016 SCT041 06/04 Q1012 BLU/=
0169101360999992014011018494+53768+008659FM-16+002399999V0202501N005110042719N009999199+00601+00401999999ADDGA1071+004271991GA2071+012191991GE19MSL   +99999+99999GF199999071990004271991991MA1101201999990REMMET062SPECI ETMN 101849Z 25010KT 9999 BKN014 BKN040 06/04 Q1012 GRN=
0169101360999992014011019204+53768+008659FM-15+002399999V0202501N005710115819N009999199+00601+00401999999ADDGA1041+003961991GA2071+011581991GE19MSL   +99999+99999GF199999041990003961991991MA1101201999990REMMET062METAR ETMN 101920Z 25011KT 9999 SCT013 BKN038 06/04 Q1012 BLU=
0146101360999992014011019324+53768+008659FM-16+002399999V0202501N005710039619N009999199+00601+00401999999ADDGA1071+003961991GE19MSL   +99999+99999GF199999071990003961991991MA1101201999990REMMET055SPECI ETMN 101932Z 25011KT 9999 BKN013 06/04 Q1012 GRN=
0170101360999992014011020204+53768+008659FM-15+002399999V0202501N005710762019N009999199+00501+00401999999ADDGA1021+003351991GA2071+076201991GE19MSL   +99999+99999GF199999021990003351991991MA1101201999990REMMET063METAR ETMN 102020Z 25011KT 9999 FEW011 BKN250 05/04 Q1012 BLU/=
0170101360999992014011021204+53768+008659FM-15+002399999V0202301N004610701019N009999199+00501+00301999999ADDGA1021+003661991GA2071+070101991GE19MSL   +99999+99999GF199999021990003661991991MA1101201999990REMMET063METAR ETMN 102120Z 23009KT 9999 FEW012 BKN230 05/03 Q1012 BLU/=
0169101360999992014011021374+53768+008659FM-16+002399999V0202301N004610033519N009999199+00501+00301999999ADDGA1071+003351991GA2071+070101991GE19MSL   +99999+99999GF199999071990003351991991MA1101201999990REMMET062SPECI ETMN 102137Z 23009KT 9999 BKN011 BKN230 05/03 Q1012 GRN=
0193101360999992014011022204+53768+008659FM-15+002399999V0202401N00571005491CN009999199+00501+00401999999ADDGA1021+002741991GA2041+005491991GA3071+070101991GE19MSL   +99999+99999GF199999021990002741991991MA1101201999990REMMET070METAR ETMN 102220Z 24011KT 9999 FEW009 SCT018 BKN230 05/04 Q1012 BLU/=
0146101360999992014011022494+53768+008659FM-16+002399999V0202501N006710027419N008000199+00501+00401999999ADDGA1071+002741991GE19MSL   +99999+99999GF199999071990002741991991MA1101201999990REMMET055SPECI ETMN 102249Z 25013KT 8000 BKN009 05/04 Q1012 GRN=
0146101360999992014011023204+53768+008659FM-15+002399999V0202401N006210030519N008000199+00601+00401999999ADDGA1071+003051991GE19MSL   +99999+99999GF199999071990003051991991MA1101201999990REMMET055METAR ETMN 102320Z 24012KT 8000 BKN010 06/04 Q1012 GRN=
0146101360999992014011100204+53768+008659FM-15+002399999V0202401N006210036619N008000199+00601+00501999999ADDGA1071+003661991GE19MSL   +99999+99999GF199999071990003661991991MA1101201999990REMMET055METAR ETMN 110020Z 24012KT 8000 BKN012 06/05 Q1012 GRN=
0146101360999992014011101204+53768+008659FM-15+002399999V0202401N005110030519N008000199+00601+00501999999ADDGA1071+003051991GE19MSL   +99999+99999GF199999071990003051991991MA1101201999990REMMET055METAR ETMN 110120Z 24010KT 8000 BKN010 06/05 Q1012 GRN=
0146101360999992014011102204+53768+008659FM-15+002399999V0202301N005110027419N006000199+00601+00501999999ADDGA1071+002741991GE19MSL   +99999+99999GF199999071990002741991991MA1101201999990REMMET055METAR ETMN 110220Z 23010KT 6000 BKN009 06/05 Q1012 GRN=
0155101360999992014011103204+53768+008659FM-15+002399999V0202401N005710027419N005000199+00601+00501999999ADDGA1071+002741991GE19MSL   +99999+99999GF199999071990002741991991MA1101101999990MW1101REMMET058METAR ETMN 110320Z 24011KT 5000 BR BKN009 06/05 Q1011 GRN=
0155101360999992014011104204+53768+008659FM-15+002399999V0202401N006210024419N004000199+00601+00501999999ADDGA1071+002441991GE19MSL   +99999+99999GF199999071990002441991991MA1101101999990MW1101REMMET058METAR ETMN 110420Z 24012KT 4000 BR BKN008 06/05 Q1011 GRN=
0155101360999992014011105204+53768+008659FM-15+002399999V0202301N005710018319N004500199+00601+00501999999ADDGA1071+001831991GE19MSL   +99999+99999GF199999071990001831991991MA1101001999990MW1101REMMET058METAR ETMN 110520Z 23011KT 4500 BR BKN006 06/05 Q1010 YLO=
0167101360999992014011106204+53768+008659FM-15+002399999V0202301N006210018319N004000199+00601+00501999999ADDGA1081+001831991GE19MSL   +99999+99999GF199999081990001831991991MA1101001999990MW1101MW2581REMMET064METAR ETMN 110620Z 23012KT 4000 -DZRA BR OVC006 06/05 Q1010 YLO=
0167101360999992014011106454+53768+008659FM-16+002399999V0202401N006210021319N004000199+00601+00401999999ADDGA1081+002131991GE19MSL   +99999+99999GF199999081990002131991991MA1101001999990MW1101MW2581REMMET064SPECI ETMN 110645Z 24012KT 4000 -RADZ BR OVC007 06/04 Q1010 GRN=
0167101360999992014011107204+53768+008659FM-15+002399999V0202301N005710018319N003500199+00501+00401999999ADDGA1081+001831991GE19MSL   +99999+99999GF199999081990001831991991MA1101001999990MW1101MW2581REMMET064METAR ETMN 110720Z 23011KT 3500 -DZRA BR OVC006 05/04 Q1010 YLO=
0165101360999992014011108204+53768+008659FM-15+002399999V0202301N005710018319N004000199+00501+00401999999ADDGA1081+001831991GE19MSL   +99999+99999GF199999081990001831991991MA1101001999990MW1101MW2611REMMET062METAR ETMN 110820Z 23011KT 4000 -RA BR OVC006 05/04 Q1010 YLO=
0165101360999992014011108574+53768+008659FM-16+002399999V0202301N006210015219N003300199+00501+00401999999ADDGA1081+001521991GE19MSL   +99999+99999GF199999081990001521991991MA1101001999990MW1101MW2611REMMET062SPECI ETMN 110857Z 23012KT 3300 -RA BR OVC005 05/04 Q1010 YLO=
0167101360999992014011109204+53768+008659FM-15+002399999V0202301N006710015219N004000199+00501+00401999999ADDGA1081+001521991GE19MSL   +99999+99999GF199999081990001521991991MA1100901999990MW1101MW2581REMMET064METAR ETMN 110920Z 23013KT 4000 -RADZ BR OVC005 05/04 Q1009 YLO=
0188101360999992014011110024+53768+008659FM-16+002399999V0202301N006710018319N005000199+00501+00401999999ADDGA1071+001831991GA2081+003051991GE19MSL   +99999+99999GF199999071990001831991991MA1100901999990MW1101MW2611REMMET069SPECI ETMN 111002Z 23013KT 5000 -RA BR BKN006 OVC010 05/04 Q1009 YLO=
0188101360999992014011110204+53768+008659FM-15+002399999V0202301N007210018319N005000199+00501+00401999999ADDGA1071+001831991GA2081+002741991GE19MSL   +99999+99999GF199999071990001831991991MA1100901999990MW1101MW2611REMMET069METAR ETMN 111020Z 23014KT 5000 -RA BR BKN006 OVC009 05/04 Q1009 YLO=
0165101360999992014011111204+53768+008659FM-15+002399999V0202201N007210015219N004500199+00501+00401999999ADDGA1071+001521991GE19MSL   +99999+99999GF199999071990001521991991MA1100801999990MW1101MW2611REMMET062METAR ETMN 111120Z 22014KT 4500 -RA BR BKN005 05/04 Q1008 YLO=
0166101360999992014011112204+53768+008659FM-15+002399999V0202401N007710015219N002000199+00501+00401999999ADDGA1071+001521991GE19MSL   +99999+99999GF199999071990001521991991MA1100701999990MW1101MW2591REMMET063METAR ETMN 111220Z 24015KT 2000 RADZ BR BKN005 05/04 Q1007 YLO=
0172101360999992014011112434+53768+008659FM-16+002399999V0202401N008210012219N003000199+00501+00401999999ADDGA1071+001221991GE19MSL   +99999+99999GF199999071990001221991991MA1100701999990MW1101MW2581REMMET069SPECI ETMN 111243Z 24016KT 3000 -RADZ BR BKN004 05/04 Q1007 RERA YLO=
0211101360999992014011113204+53768+008659FM-15+002399999V0202501N009810021319N004000199+00601+00501999999ADDGA1041+001521991GA2071+002131991GE19MSL   +99999+99999GF199999041990001521991991MA1100701999990MW1101MW2581OC101651REMMET084METAR ETMN 111320Z 25019G32KT 4000 -RADZ BR SCT005 BKN007 06/05 Q1007      RERA GRN=
0180101360999992014011113434+53768+008659FM-16+002399999V0203201N010310152419N009000199+00601+00401999999ADDGA1021+003661991GA2071+015241991GE19MSL   +99999+99999GF199999021990003661991991MA1100701999990OC101541REMMET065SPECI ETMN 111343Z 32020G30KT 9000 FEW012 BKN050 06/04 Q1007 BLU=
0192101360999992014011114204+53768+008659FM-15+002399999V0203201N00621015241CN009999199+00601+00401999999ADDGA1021+003661991GA2041+015241991GA3071+021341991GE19MSL   +99999+99999GF199999021990003661991991MA1100801999990REMMET069METAR ETMN 111420Z 32012KT 9999 FEW012 SCT050 BKN070 06/04 Q1008 BLU=
0170101360999992014011115204+53768+008659FM-15+002399999V0203001N00511013721CN009999199+00601+00201999999ADDGA1021+004571991GA2041+013721991GE19MSL   +99999+99999GF199999021990004571991991MA1100901999990REMMET063METAR ETMN 111520Z 30010KT 9999 FEW015 SCT045 06/02 Q1009 BLU/=
0172101360999992014011116204+53768+008659FM-15+002399999V0203001N00671064011CN009999199+00601+00301999999ADDGA1021+004571091GA2041+064011991GE19MSL   +99999+99999GF199999021990004571991991MA1101001999990REMMET065METAR ETMN 111620Z 30013KT 9999 FEW015CB SCT210 06/03 Q1010 BLU/=
0147101360999992014011117204+53768+008659FM-15+002399999V0202901N006719999999N009999199+00501+00301999999ADDGA1041+007621991GE19MSL   +99999+99999GF199999041990007621991991MA1101101999990REMMET056METAR ETMN 111720Z 29013KT 9999 SCT025 05/03 Q1011 BLU/=
0147101360999992014011118204+53768+008659FM-15+002399999V0202901N010819999999N009999199+00601+00201999999ADDGA1021+007321991GE19MSL   +99999+99999GF199999021990007321991991MA1101201999990REMMET056METAR ETMN 111820Z 29021KT 9999 FEW024 06/02 Q1012 BLU/=
0112101360999992014011118594+53768+008659FM-16+002399999V0202901N009319999999N009999199+00601+00201999999ADDMA1101301999990REMMET066SPECI ETMN 111859Z 29018KT 9999 -SHRAGS SCT020CB 06/02 Q1013 BLU/=EQDD01      0ADE693
0149101360999992014011119204+53768+008659FM-15+002399999V0202901N011319999999N009999199+00501+00201999999ADDGA1041+006101091GE19MSL   +99999+99999GF199999041990006101991991MA1101301999990REMMET058METAR ETMN 111920Z 29022KT 9999 SCT020CB 05/02 Q1013 BLU/=
0121101360999992014011119354+53768+008659FM-16+002399999V0202901N011819999999N005000199+00501+00201999999ADDMA1101301999990OC102321REMMET067SPECI ETMN 111935Z 29023G45KT 5000 SHRAGS BKN020CB 05/02 Q1013 WHT=EQDD01      0ADE693
0203101360999992014011120204+53768+008659FM-15+002399999V0202901N009310061019N008000199+00501+00201999999ADDGA1021+003051991GA2071+006101091GE19MSL   +99999+99999GF199999021990003051991991MA1101401999990MW1811OC101541REMMET082METAR ETMN 112020Z 29018G30KT 8000 SHRA FEW010 BKN020CB 05/02 Q1014      REGR WHT=
0122101360999992014011120424+53768+008659FM-16+002399999V0203001N007719999999N008000199+00501+00201999999ADDMA1101401999990REMMET076SPECI ETMN 112042Z 30015KT 8000 SHGSRA FEW010 BKN020CB 05/02 Q1014      WHT=EQDD01      0ADE693
0176101360999992014011121204+53768+008659FM-15+002399999V0203001N007710067119N009999199+00401+00201999999ADDGA1071+006711091GA2071+018291991GE19MSL   +99999+99999GF199999071990006711991991MA1101501999990REMMET069METAR ETMN 112120Z 30015KT 9999 BKN022CB BKN060 04/02 Q1015 REGS WHT=
0149101360999992014011122204+53768+008659FM-15+002399999V0203001N008819999999N009999199+00501+00101999999ADDGA1021+006711091GE19MSL   +99999+99999GF199999021990006711991991MA1101501999990REMMET058METAR ETMN 112220Z 30017KT 9999 FEW022CB 05/01 Q1015 BLU/=
0110101360999992014011122354+53768+008659FM-16+002399999V0203001N008219999999N005000199+00501+00101999999ADDMA1101501999990REMMET064SPECI ETMN 112235Z 30016KT 5000 SHGSRA BKN022CB 05/01 Q1015 WHT=EQDD01      0ADE693
0154101360999992014011123204+53768+008659FM-15+002399999V0203001N009319999999N009999199+00501+00101999999ADDGA1021+006711091GE19MSL   +99999+99999GF199999021990006711991991MA1101601999990REMMET063METAR ETMN 112320Z 30018KT 9999 FEW022CB 05/01 Q1016 REGS BLU/=
0149101360999992014011200204+53768+008659FM-15+002399999V0203001N006719999999N009999199+00401+00201999999ADDGA1041+006101091GE19MSL   +99999+99999GF199999041990006101991991MA1101701999990REMMET058METAR ETMN 120020Z 30013KT 9999 SCT020CB 04/02 Q1017 BLU/=
0121101360999992014011201064+53768+008659FM-16+002399999V0202901N006719999999N005000199+00501+00201999999ADDMA1101801999990OC101391REMMET067SPECI ETMN 120106Z 29013G27KT 5000 SHRAGS BKN020CB 05/02 Q1018 WHT=EQDD01      0ADE693
0193101360999992014011201204+53768+008659FM-15+002399999V0203001N008210061019N008000199+00301+00101999999ADDGA1041+003051991GA2071+006101091GE19MSL   +99999+99999GF199999041990003051991991MA1101701999990MW1801REMMET080METAR ETMN 120120Z 30016KT 8000 -SHRA SCT010 BKN020CB 03/01 Q1017 REGS      WHT=
0177101360999992014011202204+53768+008659FM-15+002399999V0202901N00821015241CN009999199+00401+00101999999ADDGA1041+006101091GA2041+015241991GE19MSL   +99999+99999GF199999041990006101991991MA1101801999990REMMET070METAR ETMN 120220Z 29016KT 9999 SCT020CB SCT050 04/01 Q1018 RERA BLU/=
0172101360999992014011203204+53768+008659FM-15+002399999V0202901N00671036581CN009999199+00501+00201999999ADDGA1021+006101091GA2041+036581991GE19MSL   +99999+99999GF199999021990006101991991MA1101901999990REMMET065METAR ETMN 120320Z 29013KT 9999 FEW020CB SCT120 05/02 Q1019 BLU/=
0172101360999992014011204204+53768+008659FM-15+002399999V0202901N00671015241CN009999199+00501+00201999999ADDGA1021+006101091GA2041+015241991GE19MSL   +99999+99999GF199999021990006101991991MA1101901999990REMMET065METAR ETMN 120420Z 29013KT 9999 FEW020CB SCT050 05/02 Q1019 BLU/=
0147101360999992014011205204+53768+008659FM-15+002399999V0202901N007219999999N009999199+00501+00101999999ADDGA1021+006101991GE19MSL   +99999+99999GF199999021990006101991991MA1101901999990REMMET056METAR ETMN 120520Z 29014KT 9999 FEW020 05/01 Q1019 BLU/=
0170101360999992014011206204+53768+008659FM-15+002399999V0202801N00671009751CN009999199+00501+00201999999ADDGA1021+005791991GA2041+009751991GE19MSL   +99999+99999GF199999021990005791991991MA1101901999990REMMET063METAR ETMN 120620Z 28013KT 9999 FEW019 SCT032 05/02 Q1019 BLU/=
0149101360999992014011207204+53768+008659FM-15+002399999V0202901N006719999999N009999199+00401+00201999999ADDGA1021+005791091GE19MSL   +99999+99999GF199999021990005791991991MA1102001999990REMMET058METAR ETMN 120720Z 29013KT 9999 FEW019CB 04/02 Q1020 BLU/=
0149101360999992014011208204+53768+008659FM-15+002399999V0202601N005719999999N009999199+00501+00201999999ADDGA1021+005791091GE19MSL   +99999+99999GF199999021990005791991991MA1102001999990REMMET058METAR ETMN 120820Z 26011KT 9999 FEW019CB 05/02 Q1020 BLU/=
0147101360999992014011209204+53768+008659FM-15+002399999V0202501N005119999999N009999199+00501+00201999999ADDGA1021+005791991GE19MSL   +99999+99999GF199999021990005791991991MA1102101999990REMMET056METAR ETMN 120920Z 25010KT 9999 FEW019 05/02 Q1021 BLU/=
0170101360999992014011210204+53768+008659FM-15+002399999V0202601N00721012191CN009999199+00501+00301999999ADDGA1021+005791991GA2041+012191991GE19MSL   +99999+99999GF199999021990005791991991MA1102101999990REMMET063METAR ETMN 121020Z 26014KT 9999 FEW019 SCT040 05/03 Q1021 BLU/=
0170101360999992014011211204+53768+008659FM-15+002399999V0202601N00671060961CN009999199+00601+00301999999ADDGA1021+006401991GA2041+060961991GE19MSL   +99999+99999GF199999021990006401991991MA1102001999990REMMET063METAR ETMN 121120Z 26013KT 9999 FEW021 SCT200 06/03 Q1020 BLU/=
0170101360999992014011212204+53768+008659FM-15+002399999V0202601N00621060961CN009999199+00601+00301999999ADDGA1021+006711991GA2041+060961991GE19MSL   +99999+99999GF199999021990006711991991MA1102001999990REMMET063METAR ETMN 121220Z 26012KT 9999 FEW022 SCT200 06/03 Q1020 BLU/=
0147101360999992014011213204+53768+008659FM-15+002399999V0202601N005119999999N009999199+00601+00301999999ADDGA1021+007621991GE19MSL   +99999+99999GF199999021990007621991991MA1102001999990REMMET056METAR ETMN 121320Z 26010KT 9999 FEW025 06/03 Q1020 BLU/=
0147101360999992014011214204+53768+008659FM-15+002399999V0202601N004119999999N009999199+00601+00301999999ADDGA1021+007621991GE19MSL   +99999+99999GF199999021990007621991991MA1102001999990REMMET056METAR ETMN 121420Z 26008KT 9999 FEW025 06/03 Q1020 BLU/=
0147101360999992014011215204+53768+008659FM-15+002399999V0202701N004119999999N009999199+00501+00301999999ADDGA1021+010671991GE19MSL   +99999+99999GF199999021990010671991991MA1102001999990REMMET056METAR ETMN 121520Z 27008KT 9999 FEW035 05/03 Q1020 BLU/=
0147101360999992014011216204+53768+008659FM-15+002399999V0202701N002619999999N009999199+00401+00301999999ADDGA1021+010671991GE19MSL   +99999+99999GF199999021990010671991991MA1102001999990REMMET056METAR ETMN 121620Z 27005KT 9999 FEW035 04/03 Q1020 BLU/=
0147101360999992014011217204+53768+008659FM-15+002399999V0202301N002119999999N009999199+00201+00101999999ADDGA1021+036581991GE19MSL   +99999+99999GF199999021990036581991991MA1101901999990REMMET056METAR ETMN 121720Z 23004KT 9999 FEW120 02/01 Q1019 BLU/=
0170101360999992014011218204+53768+008659FM-15+002399999V0202201N00261064011CN009999199+00201+00201999999ADDGA1021+036581991GA2041+064011991GE19MSL   +99999+99999GF199999021990036581991991MA1101901999990REMMET063METAR ETMN 121820Z 22005KT 9999 FEW120 SCT210 02/02 Q1019 BLU/=
0170101360999992014011219204+53768+008659FM-15+002399999V0202001N002610609619N009999199+00201+00101999999ADDGA1021+036581991GA2071+060961991GE19MSL   +99999+99999GF199999021990036581991991MA1101801999990REMMET063METAR ETMN 121920Z 20005KT 9999 FEW120 BKN200 02/01 Q1018 BLU/=
0169101360999992014011220204+53768+008659FM-15+002399999V0202001N002610640119N007000199+00201+00101999999ADDGA1021+036581991GA2071+064011991GE19MSL   +99999+99999GF199999021990036581991991MA1101801999990REMMET062METAR ETMN 122020Z 20005KT 7000 FEW120 BKN210 02/01 Q1018 WHT=
0155101360999992014011221204+53768+008659FM-15+002399999V0201801N002110579119N004000199+00101+00101999999ADDGA1071+057911991GE19MSL   +99999+99999GF199999071990057911991991MA1101701999990MW1101REMMET058METAR ETMN 122120Z 18004KT 4000 BR BKN190 01/01 Q1017 GRN=
0178101360999992014011221584+53768+008659FM-16+002399999V0201501N002110609619N003000199+00101+00101999999ADDGA1021+039621991GA2071+060961991GE19MSL   +99999+99999GF199999021990039621991991MA1101601999990MW1101REMMET065SPECI ETMN 122158Z 15004KT 3000 BR FEW130 BKN200 01/01 Q1016 YLO=
0178101360999992014011222204+53768+008659FM-15+002399999V0201601N002610609619N000300199+00101+00001999999ADDGA1021+045721991GA2071+060961991GE19MSL   +99999+99999GF199999021990045721991991MA1101601999990MW1441REMMET065METAR ETMN 122220Z 16005KT 0300 FG FEW150 BKN200 01/00 Q1016 RED=
0156101360999992014011223204+53768+008659FM-15+002399999V0201401N002610609619N000100199+00001+00001999999ADDGA1071+060961991GE19MSL   +99999+99999GF199999071990060961991991MA1101601999990MW1441REMMET059METAR ETMN 122320Z 14005KT 0100 FG BKN200 00/M00 Q1016 RED=
0159101360999992014011300204+53768+008659FM-15+002399999V0201301N003110609619N000150199+00001+00001999999ADDGA1081+060961991GE19MSL   +99999+99999GF199999081990060961991991MA1101401999990MW1481REMMET062METAR ETMN 130020Z 13006KT 0150 FZFG OVC200 M00/M00 Q1014 RED=
0180101360999992014011301204+53768+008659FM-15+002399999V0201201N003110003019N001500199-00101-00101999999ADDGA1071+000301991GA2081+060961991GE19MSL   +99999+99999GF199999071990000301991991MA1101301999990MW1101REMMET067METAR ETMN 130120Z 12006KT 1500 BR BKN001 OVC200 M01/M01 Q1013 RED=
0207101360999992014011302204+53768+008659FM-15+002399999V0201201N003610335319N005000199+00001+00001999999ADDGA1041+000301991GA2071+033531991GA3081+060961991GE19MSL   +99999+99999GF199999041990000301991991MA1101201999990MW1101REMMET078METAR ETMN 130220Z 12007KT 5000 BR SCT001 BKN110 OVC200 00/M00 Q1012      WHT=
0146101360999992014011303204+53768+008659FM-15+002399999V0201401N004610335319N006000199+00101+00001999999ADDGA1071+033531991GE19MSL   +99999+99999GF199999071990033531991991MA1101101999990REMMET055METAR ETMN 130320Z 14009KT 6000 BKN110 01/00 Q1011 WHT=
0146101360999992014011304204+53768+008659FM-15+002399999V0201401N004610335319N009999199+00101+00001999999ADDGA1071+033531991GE19MSL   +99999+99999GF199999071990033531991991MA1101001999990REMMET055METAR ETMN 130420Z 14009KT 9999 BKN110 01/00 Q1010 BLU=
0161101360999992014011305204+53768+008659FM-15+002399999V0201501N004610243819N009999199+00101-00101999999ADDGA1071+024381991GE19MSL   +99999+99999GF199999071990024381991991MA1100901999990REMMET070METAR ETMN 130520Z 15009KT 9999 BKN080 01/M01 Q1009 BLU BLU BECMG GRN=
0161101360999992014011306204+53768+008659FM-15+002399999V0201501N004110061019N009999199+00201-00101999999ADDGA1071+006101991GE19MSL   +99999+99999GF199999071990006101991991MA1100901999990REMMET070METAR ETMN 130620Z 15008KT 9999 BKN020 02/M01 Q1009 WHT WHT BECMG GRN=
0189101360999992014011307204+53768+008659FM-15+002399999V0201501N004110039619N009999199+00201-00101999999ADDGA1021+001521991GA2071+003961991GE19MSL   +99999+99999GF199999021990001521991991MA1100801999990REMMET082METAR ETMN 130720Z 15008KT 9999 FEW005 BKN013 02/M01 Q1008 GRN GRN      BECMG YLO=
0198101360999992014011307374+53768+008659FM-16+002399999V0201601N004110042719N003500199+00201+00001999999ADDGA1041+001521991GA2071+004271991GE19MSL   +99999+99999GF199999041990001521991991MA1100801999990MW1101MW2611REMMET079SPECI ETMN 130737Z 16008KT 3500 -RA BR SCT005 BKN014 02/M00 Q1008 YLO      YLO=
0206101360999992014011308204+53768+008659FM-15+002399999V0201601N005110039619N003000199+00201+00101999999ADDGA1041+001521991GA2081+003961991GE19MSL   +99999+99999GF199999041990001521991991MA1100801999990MW1101MW2631REMMET087METAR ETMN 130820Z 16010KT 3000 RA BR SCT005 OVC013 02/01 Q1008 YLO      YLO TEMPO AMB=
0199101360999992014011308404+53768+008659FM-16+002399999V0201601N005110012219N002200199+00201+00101999999ADDGA1071+001221991GE19MSL   +99999+99999GF199999071990001221991991MA1100701999990MW1101MW2611REMMET096SPECI ETMN 130840Z 16010KT 2200 R26/1900N -RA BR BKN004 02/01 Q1007      RERA YLO YLO TEMPO AMB=
0200101360999992014011308484+53768+008659FM-16+002399999V0201701N004610012219N001500199+00201+00101999999ADDGA1071+001221991GE19MSL   +99999+99999GF199999071990001221991991MA1100701999990MW1101MW2591REMMET097SPECI ETMN 130848Z 17009KT 1500 R26/1600N DZRA BR BKN004 02/01 Q1007      RERA AMB YLO TEMPO AMB=
0190101360999992014011309204+53768+008659FM-15+002399999V0201701N004610012219N002000199+00201+00201999999ADDGA1071+001221991GE19MSL   +99999+99999GF199999071990001221991991MA1100701999990MW1101MW2591REMMET087METAR ETMN 130920Z 17009KT 2000 RADZ BR BKN004 02/02 Q1007 REDZ YLO      YLO TEMPO AMB=
0179101360999992014011310204+53768+008659FM-15+002399999V0202001N004610021319N003200199+00401+00301999999ADDGA1071+002131991GE19MSL   +99999+99999GF199999071990002131991991MA1100701999990MW1101MW2511REMMET076METAR ETMN 131020Z 20009KT 3200 -DZ BR BKN007 04/03 Q1007 RERA YLO      YLO=
0174101360999992014011311204+53768+008659FM-15+002399999V0202201N006210030519N005000199+00501+00401999999ADDGA1071+003051991GE19MSL   +99999+99999GF199999071990003051991991MA1100701999990MW1101REMMET077METAR ETMN 131120Z 22012KT 5000 BR BKN010 05/04 Q1007 GRN GRN BECMG      WHT=
