0127101360999992006010100204+53767+008667FM-15+0032ETMN V0202301N00461001201CN0030001N1+00301+00301999999ADDGA1075+001201999GF107991999999999999999999MA1099491999999MW1101REMMET052ETMN 010020Z 23009KT 3000 BR BKN004 03/03 Q0995 YLO;
0187101360999992006010101004+53767+008667FM-12+0032ETMN V0202301N005010012019N0035001N1+00331+00281099531ADDAY121999AY221999GA1071+001201071GF108991071061001501999999MA1999999099151MD1210101+9999MW1101REMSYN082AAXX  01011 10136 41235 82305 10033 20028 39915 49953 52010 71022 876// 333 87704;
0133101360999992006010101204+53767+008667FM-15+0032ETMN V0202201N00411001201CN0035001N1+00301+00301999999ADDGA1075+001201999GF107991999999999999999999MA1099491999999MW1101REMMET058METAR ETMN 010120Z 22008KT 3500 BR BKN004 03/03 Q0995 YLO;
0206101360999992006010102004+53767+008667FM-12+0032ETMN V0202201N005010015019N0035001N1+00331+00271099952ADDAY121999AY221999GA1071+001501071GF108991071061001501999999MA1999999099171MD1210071+9999MW1101REMSYN082AAXX  01021 10136 41235 82205 10033 20027 39917 49995 52007 71022 876// 333 87705;EQDQ01+099953APOSLP
0127101360999992006010102204+53767+008667FM-15+0032ETMN V0202201N00461001801CN0035001N1+00401+00401999999ADDGA1075+001801999GF107991999999999999999999MA1099491999999MW1101REMMET052ETMN 010220Z 22009KT 3500 BR BKN006 04/04 Q0995 YLO;
0127101360999992006010103204+53767+008667FM-15+0032ETMN V0202201N00461001801CN0035001N1+00401+00301999999ADDGA1075+001801999GF107991999999999999999999MA1099591999999MW1101REMMET052ETMN 010320Z 22009KT 3500 BR BKN006 04/03 Q0996 YLO;
0187101360999992006010104004+53767+008667FM-12+0032ETMN V0202201N005010018019N0035001N1+00341+00271099641ADDAY121999AY221999GA1071+001801071GF108991071061002501999999MA1999999099251MD1210101+9999MW1101REMSYN082AAXX  01041 10136 41335 82205 10034 20027 39925 49964 52010 71022 876// 333 87706;
0127101360999992006010104204+53767+008667FM-15+0032ETMN V0202201N00411002401CN0037001N1+00301+00301999999ADDGA1075+002401999GF107991999999999999999999MA1099591999999MW1101REMMET052ETMN 010420Z 22008KT 3700 BR BKN008 03/03 Q0996 GRN;
0187101360999992006010105004+53767+008667FM-12+0032ETMN V0202101N005010021019N0040001N1+00351+00271099691ADDAY121999AY221999GA1071+002101071GF108991071061002501999999MA1999999099301MD1210131+9999MW1101REMSYN082AAXX  01051 10136 41340 82105 10035 20027 39930 49969 52013 71022 876// 333 87707;
0127101360999992006010105204+53767+008667FM-15+0032ETMN V0202101N00461001501CN0040001N1+00401+00301999999ADDGA1075+001501999GF107991999999999999999999MA1099701999999MW1101REMMET052ETMN 010520Z 21009KT 4000 BR BKN005 04/03 Q0997 YLO;
0127101360999992006010106204+53767+008667FM-15+0032ETMN V0202201N00511001501CN0040001N1+00401+00301999999ADDGA1075+001501999GF107991999999999999999999MA1099701999999MW1101REMMET052ETMN 010620Z 22010KT 4000 BR BKN005 04/03 Q0997 YLO;
0187101360999992006010107004+53767+008667FM-12+0032ETMN V0202201N005010015019N0040001N1+00341+00281099851ADDAY121999AY221999GA1071+001501071GF108991071061001501999999MA1999999099461MD1210211+9999MW1201REMSYN082AAXX  01071 10136 41240 82205 10034 20028 39946 49985 52021 72022 876// 333 87705;
0127101360999992006010107204+53767+008667FM-15+0032ETMN V0202201N00461002701CN0032001N1+00401+00301999999ADDGA1075+002701999GF107991999999999999999999MA1099801999999MW1101REMMET052ETMN 010720Z 22009KT 3200 BR BKN009 04/03 Q0998 YLO;
0187101360999992006010108004+53767+008667FM-12+0032ETMN V0202201N005010015019N0025001N1+00381+00301099951ADDAY121999AY221999GA1081+001501071GF108991081061001501999999MA1999999099561MD1210261+9999MW1101REMSYN082AAXX  01081 10136 41225 82205 10038 20030 39956 49995 52026 71022 886// 333 88705;
0127101360999992006010108204+53767+008667FM-15+0032ETMN V0202201N00571001801CN0025001N1+00401+00301999999ADDGA1085+001801999GF108991999999999999999999MA1099901999999MW1101REMMET052ETMN 010820Z 22011KT 2500 BR OVC006 04/03 Q0999 YLO;
0137101360999992006010109204+53767+008667FM-15+0032ETMN V0202101N00461001801CN0032001N1+00401+00301999999ADDGA1085+001801999GF108991999999999999999999MA1100101999999MW1101MW2511REMMET056ETMN 010920Z 21009KT 3200 -DZ BR OVC006 04/03 Q1001 YLO;
0187101360999992006010110004+53767+008667FM-12+0032ETMN V0202201N005010018019N0032001N1+00411+00341100131ADDAY151999AY221999GA1081+001801071GF108991081061002501999999MA1999999099741MD1210281+9999MW1511REMSYN082AAXX  01101 10136 41332 82205 10041 20034 39974 40013 52028 75152 886// 333 88706;
0187101360999992006010111004+53767+008667FM-12+0032ETMN V0202301N004010015019N0032001N1+00431+00361100191ADDAY121999AY221999GA1081+001501071GF108991081061001501999999MA1999999099801MD1210241+9999MW1201REMSYN082AAXX  01111 10136 41232 82304 10043 20036 39980 40019 52024 72022 886// 333 88705;
0127101360999992006010111204+53767+008667FM-15+0032ETMN V0202301N00361001801CN0028001N1+00401+00401999999ADDGA1075+001801999GF107991999999999999999999MA1100201999999MW1101REMMET052ETMN 011120Z 23007KT 2800 BR BKN006 04/04 Q1002 YLO;
0127101360999992006010112204+53767+008667FM-15+0032ETMN V0202301N00261002101CN0025001N1+00401+00401999999ADDGA1075+002101999GF107991999999999999999999MA1100201999999MW1101REMMET052ETMN 011220Z 23005KT 2500 BR BKN007 04/04 Q1002 YLO;
0187101360999992006010113004+53767+008667FM-12+0032ETMN V0202201N003010024019N0028001N1+00431+00371100321ADDAY161999AY221999GA1071+002401071GF108991071061002501999999MA1999999099931MD1210191+9999MW1211REMSYN082AAXX  01131 10136 41328 82203 10043 20037 39993 40032 52019 72162 876// 333 87708;
0127101360999992006010113204+53767+008667FM-15+0032ETMN V0202301N00311002101CN0026001N1+00401+00401999999ADDGA1075+002101999GF107991999999999999999999MA1100311999999MW1101REMMET052ETMN 011320Z 23006KT 2600 BR BKN007 04/04 Q1003 YLO;
0187101360999992006010114004+53767+008667FM-12+0032ETMN V0202301N003010024019N0027001N1+00431+00361100391ADDAY121999AY221999GA1071+002401071GF108991071061002501999999MA1999999100001MD1210201+9999MW1511REMSYN082AAXX  01141 10136 41327 82303 10043 20036 30000 40039 52020 75122 876// 333 87708;
0145101360999992006010114204+53767+008667FM-15+0032ETMN V0202401N00311002401CN0027001N1+00401+00401999999ADDGA1075+002401999GF107991999999999999999999MA1100411999999MW1101MW2511MW3611REMMET058ETMN 011420Z 24006KT 2700 -RADZ BR BKN008 04/04 Q1004 YLO;
0127101360999992006010115204+53767+008667FM-15+0032ETMN V0202401N00311002401CN0025001N1+00401+00401999999ADDGA1075+002401999GF107991999999999999999999MA1100511999999MW1101REMMET052ETMN 011520Z 24006KT 2500 BR BKN008 04/04 Q1005 YLO;
0187101360999992006010116004+53767+008667FM-12+0032ETMN V0202401N003010021019N0028001N1+00411+00341100611ADDAY121999AY221999GA1071+002101071GF108991071061002501999999MA1999999100221MD1210291+9999MW1101REMSYN082AAXX  01161 10136 41328 82403 10041 20034 30022 40061 52029 71022 876// 333 87707;
0127101360999992006010116204+53767+008667FM-15+0032ETMN V0202401N00311001501CN0030001N1+00401+00301999999ADDGA1075+001501999GF107991999999999999999999MA1100611999999MW1101REMMET052ETMN 011620Z 24006KT 3000 BR BKN005 04/03 Q1006 YLO;
0187101360999992006010117004+53767+008667FM-12+0032ETMN V0202401N003010015019N0028001N1+00381+00321100711ADDAY121999AY221999GA1071+001501071GF108991071061001501999999MA1999999100321MD1210321+9999MW1101REMSYN082AAXX  01171 10136 41228 82403 10038 20032 30032 40071 52032 71022 876// 333 87705;
0127101360999992006010117204+53767+008667FM-15+0032ETMN V0202401N00311001501CN0028001N1+00401+00301999999ADDGA1075+001501999GF107991999999999999999999MA1100711999999MW1101REMMET052ETMN 011720Z 24006KT 2800 BR BKN005 04/03 Q1007 YLO;
0187101360999992006010119004+53767+008667FM-12+0032ETMN V0202501N003010009019N0016001N1+00351+00351100871ADDAY121999AY221999GA1071+000901071GF108991071061001501999999MA1999999100481MD1210261+9999MW1101REMSYN082AAXX  01191 10136 41216 82503 10035 20035 30048 40087 52026 71022 876// 333 87703;
0127101360999992006010119204+53767+008667FM-15+0032ETMN V0202401N00311000901CN0018001N1+00401+00301999999ADDGA1075+000901999GF107991999999999999999999MA1100911999999MW1101REMMET052ETMN 011920Z 24006KT 1800 BR BKN003 04/03 Q1009 YLO;
0187101360999992006010120004+53767+008667FM-12+0032ETMN V0202401N003010009019N0016001N1+00341+00301100971ADDAY121999AY221999GA1081+000901071GF108991081061001501999999MA1999999100581MD1210261+9999MW1511REMSYN082AAXX  01201 10136 41216 82403 10034 20030 30058 40097 52026 75122 886// 333 88703;
0143101360999992006010120204+53767+008667FM-15+0032ETMN V0202601N00311000901CN0016001N1+00301+00301999999ADDGA1075+000901999GF107991999999999999999999MA1101021999999MW1101MW2511REMMET062METAR ETMN 012020Z 26006KT 1600 -DZ BR BKN003 03/03 Q1010 YLO;
0181101360999992006010122004+53767+008667FM-12+0032ETMN V0202701N004010003019N0014001N1+00311+00281101151ADDAY151999AY251999GA1091+000301999GF109991091999999999999999MA1999999100761MD1210281+9999MW1511REMSYN076AAXX  01221 10136 41114 92704 10031 20028 30076 40115 52028 75155 333 89/01;
0136101360999992006010122204+53767+008667FM-15+0032ETMN V0202601N004610003019N0016001N1+00301+00301999999ADDGA1091+000301999GF109991999999000251999999MA1101191999999MW1101MW2511REMMET055ETMN 012220Z 26009KT 1600 -DZ BR VV001 03/03 Q1012 RED;
0181101360999992006010123004+53767+008667FM-12+0032ETMN V0202701N004010001519N0009001N1+00281+00261101211ADDAY151999AY241999GA1091+000151999GF109991091999999999999999MA1999999100821MD1210241+9999MW1511REMSYN076AAXX  01231 10136 41009 92704 10028 20026 30082 40121 52024 75154 333 89/00;
0127101360999992006010123204+53767+008667FM-15+0032ETMN V0202701N00361000301CN0020001N1+00301+00301999999ADDGA1085+000301999GF108991999999999999999999MA1101191999999MW1101REMMET052ETMN 012320Z 27007KT 2000 BR OVC001 03/03 Q1012 RED;
0126101360999992006010200204+53767+008667FM-15+0032ETMN V0202601N003610001519N0007001N1+00301+00301999999ADDGA1091+000151999GF109991999999000251999999MA1101291999999MW1451REMMET051ETMN 020020Z 26007KT 0700 FG VV000 03/03 Q1013 RED;
0181101360999992006010201004+53767+008667FM-12+0032ETMN V0202601N004010001519N0006001N1+00271+00261101341ADDAY141999AY241999GA1091+000151999GF109991091999999999999999MA1999999100951MD1210191+9999MW1471REMSYN076AAXX  02011 10136 41006 92604 10027 20026 30095 40134 52019 74744 333 89/00;
0126101360999992006010201204+53767+008667FM-15+0032ETMN V0202601N003610001519N0004001N1+00301+00301999999ADDGA1091+000151999GF109991999999000251999999MA1101291999999MW1451REMMET051ETMN 020120Z 26007KT 0400 FG VV000 03/03 Q1013 RED;
0181101360999992006010202004+53767+008667FM-12+0032ETMN V0202701N003010001519N0003001N1+00291+00281101441ADDAY141999AY241999GA1091+000151999GF109991091999999999999999MA1999999101051MD1310231+9999MW1471REMSYN076AAXX  02021 10136 41/03 92703 10029 20028 30105 40144 53023 74744 333 89/00;
0126101360999992006010202204+53767+008667FM-15+0032ETMN V0202601N002610001519N0002001N1+00301+00301999999ADDGA1091+000151999GF109991999999000251999999MA1101391999999MW1451REMMET051ETMN 020220Z 26005KT 0200 FG VV000 03/03 Q1014 RED;
0126101360999992006010203204+53767+008667FM-15+0032ETMN V0202601N003110001519N0004001N1+00301+00301999999ADDGA1091+000151999GF109991999999000251999999MA1101491999999MW1451REMMET051ETMN 020320Z 26006KT 0400 FG VV000 03/03 Q1015 RED;
0181101360999992006010204004+53767+008667FM-12+0032ETMN V0202901N003010001519N0002001N1+00321+00321101541ADDAY141999AY241999GA1091+000151999GF109991091999999999999999MA1999999101151MD1110201+9999MW1451REMSYN076AAXX  02041 10136 41/02 92903 10032 20032 30115 40154 51020 74544 333 89/00;
0130101360999992006010204204+53767+008667FM-15+0032ETMN V0203501N003110001519N0002001N1+00301+00301999999ADDGA1091+000151999GF109991999999000251999999MA1101591999999MW1451REMMET055ETMN 020420Z 35006KT 0200 FG VV000 03/03 Q1016 RED RED;
0181101360999992006010205004+53767+008667FM-12+0032ETMN V0200101N003010001519N0004001N1+00261+00251101611ADDAY141999AY241999GA1091+000151999GF109991091999999999999999MA1999999101221MD1310171+9999MW1431REMSYN076AAXX  02051 10136 41/04 90103 10026 20025 30122 40161 53017 74344 333 89/00;
0130101360999992006010205204+53767+008667FM-15+0032ETMN V0200201N002610001519N0003001N1+00201+00201999999ADDGA1091+000151999GF109991999999000251999999MA1101591999999MW1451REMMET055ETMN 020520Z 02005KT 0300 FG VV000 02/02 Q1016 RED RED;
0146101360999992006010206204+53767+008667FM-15+0032ETMN V0200201N003610003019N0009001N1+00201+00201999999ADDGA1091+000301999GF109991999999000251999999MA1101801999999MW1451REMMET071METAR ETMN 020620Z 02007KT 0900 FG VV001 02/02 Q1018 RED RED BECMG AMB;
0181101360999992006010207004+53767+008667FM-12+0032ETMN V0200401N004010003019N0008001N1+00191+00181101811ADDAY141999AY241999GA1091+000301999GF109991091999999999999999MA1999999101411MD1210261+9999MW1431REMSYN076AAXX  02071 10136 41/08 90404 10019 20018 30141 40181 52026 74344 333 89/01;
0162101360999992006010207204+53767+008667FM-15+0032ETMN V0200401N00311000601CN0012001N1+00201+00201999999ADDED108U23009GA1085+000601999GF108991999999999999999999MA1101801999999MW1101REMMET076ETMN 020720Z 04006KT 1200 R08/2300N BR OVC002 02/02 Q1018 AMB AMB BECMG YLO;
0187101360999992006010208004+53767+008667FM-12+0032ETMN V0200201N004010006019N0014001N1+00181+00171101921ADDAY121999AY221999GA1081+000601071GF108991081061000751999999MA1999999101521MD1210301+9999MW1281REMSYN082AAXX  02081 10136 41114 80204 10018 20017 30152 40192 52030 72822 886// 333 88702;
0162101360999992006010208204+53767+008667FM-15+0032ETMN V0200301N00411000901CN0017001N1+00201+00201999999ADDED108U21009GA1085+000901999GF108991999999999999999999MA1101901999999MW1101REMMET076ETMN 020820Z 03008KT 1700 R08/2100N BR OVC003 02/02 Q1019 YLO YLO BECMG GRN;
0141101360999992006010209204+53767+008667FM-15+0032ETMN V0200301N00311000901CN0020001N1+00201+00201999999ADDGA1085+000901999GF108991999999999999999999MA1102001999999MW1101REMMET066ETMN 020920Z 03006KT 2000 BR OVC003 02/02 Q1020 YLO YLO BECMG GRN;
0187101360999992006010210004+53767+008667FM-12+0032ETMN V0200301N003010018019N0016001N1+00161+00161102091ADDAY151011AY221011GA1081+001801071GF108991081061002501999999MA1999999101691MD1210281+9999MW1511REMSYN082AAXX  02101 10136 41316 80303 10016 20016 30169 40209 52028 75152 886// 333 88706;
0172101360999992006010210204+53767+008667FM-15+0032ETMN V0203601N00361000901CN0016001N1+00201+00201999999ADDED108U18009GA1085+000901999GF108991999999999999999999MA1102101999999MW1101MW2511REMMET080ETMN 021020Z 36007KT 1600 R08/1800N -DZ BR OVC003 02/02 Q1021 YLO YLO TEMPO AMB;
0172101360999992006010210484+53767+008667FM-16+0032ETMN V0200101N00361000901CN0014001N1+00201+00201999999ADDED108U16009GA1085+000901999GF108991999999999999999999MA1102101999999MW1101MW2511REMMET080ETMN 021048Z 01007KT 1400 R08/1600N -DZ BR OVC003 02/02 Q1021 AMB YLO TEMPO AMB;
0187101360999992006010211004+53767+008667FM-12+0032ETMN V0200101N004010009019N0014001N1+00151+00151102131ADDAY151999AY221999GA1081+000901071GF108991081061001501999999MA1999999101731MD1210211+9999MW1501REMSYN082AAXX  02111 10136 41214 80104 10015 20015 30173 40213 52021 75052 886// 333 88703;
0172101360999992006010211204+53767+008667FM-15+0032ETMN V0200101N00361000601CN0014001N1+00201+00201999999ADDED108U15009GA1085+000601999GF108991999999999999999999MA1102101999999MW1101MW2511REMMET080ETMN 021120Z 01007KT 1400 R08/1500N -DZ BR OVC002 02/02 Q1021 AMB YLO TEMPO AMB;
0141101360999992006010211474+53767+008667FM-16+0032ETMN V0200201N00311000901CN0030001N1+00201+00201999999ADDGA1075+000901999GF107991999999999999999999MA1102101999999MW1101REMMET066ETMN 021147Z 02006KT 3000 BR BKN003 02/02 Q1021 YLO YLO TEMPO AMB;
0141101360999992006010212204+53767+008667FM-15+0032ETMN V0200201N00311001201CN0050001N1+00201+00201999999ADDGA1075+001201999GF107991999999999999999999MA1102101999999MW1101REMMET066ETMN 021220Z 02006KT 5000 BR BKN004 02/02 Q1021 YLO YLO BECMG WHT;
0164101360999992006010212334+53767+008667FM-16+0032ETMN V0200101N00261001501CN0045001N1+00201+00201999999ADDGA1075+001501999GA2075+003901999GF107991999999999999999999MA1102201999999MW1101REMMET073ETMN 021233Z 01005KT 4500 BR BKN005 BKN013 02/02 Q1022 YLO YLO BECMG WHT;
0193101360999992006010213004+53767+008667FM-12+0032ETMN V0203601N003010015019N0040001N1+00171+00171102231ADDAY121999AY221999GA1051+001501071GF107991071051001501999999MA1999999101831MD1310141+9999MW1101REMSYN088AAXX  02131 10136 41240 73603 10017 20017 30183 40223 53014 71022 875// 333 85705 87616;
0164101360999992006010213204+53767+008667FM-15+0032ETMN V0203601N00261001501CN0040001N1+00201+00101999999ADDGA1075+001501999GA2075+005101999GF107991999999999999999999MA1102201999999MW1101REMMET073ETMN 021320Z 36005KT 4000 BR BKN005 BKN017 02/01 Q1022 YLO YLO BECMG WHT;
0229101360999992006010214004+53767+008667FM-12+0032ETMN V0203601N003010015019N0045001N1+00121+00061102301ADDAY121999AY221999GA1071+001501071GF107991071061001501999999MA1999999101901MD1310171+9999MW1101REMSYN124AAXX  02141 10136 41245 73603 10012 20006 30190 40230 53017 71022 876// 333 87705 555 BOT 10031 20034 30034 40043 999 31///;
0141101360999992006010214204+53767+008667FM-15+0032ETMN V0203501N00311001201CN0045001N1+00101+00001999999ADDGA1075+001201999GF107991999999999999999999MA1102301999999MW1101REMMET066ETMN 021420Z 35006KT 4500 BR BKN004 01/00 Q1023 YLO YLO BECMG WHT;
0187101360999992006010216004+53767+008667FM-12+0032ETMN V0200201N002012200019N0045001N1-00071-00131102421ADDAY111999AY211999GA1031+001501071GF103991031061001501001001MA1999999102021MD1210191+9999MW1101REMSYN082AAXX  02161 10136 41245 30202 11007 21013 30202 40242 52019 71011 83600 333 83705;
0154101360999992006010216204+53767+008667FM-15+0032ETMN V0200401N001012200019N0050001N1-00101-00201999999ADDGA1025+001501999GF102991999999999999999999MA1102401999999MW1101MW2121REMMET073ETMN 021620Z 04002KT 5000 MIFG BR FEW005 M01/M02 Q1024 WHT WHT TEMPO YLO;
0187101360999992006010217004+53767+008667FM-12+0032ETMN V0203501N002012200019N0050001N1-00171-00251102451ADDAY101999AY201999GA1011+001501071GF102991021051001501001001MA1999999102051MD1210151+9999MW1111REMSYN082AAXX  02171 10136 41250 23502 11017 21025 30205 40245 52015 71100 82500 333 81705;
0154101360999992006010217204+53767+008667FM-15+0032ETMN V0209999V000512200019N0050001N1-00201-00301999999ADDGA1025+005401999GF102991999999999999999999MA1102401999999MW1101MW2121REMMET073ETMN 021720Z VRB01KT 5000 MIFG BR FEW018 M02/M03 Q1024 WHT WHT TEMPO YLO;
0154101360999992006010218204+53767+008667FM-15+0032ETMN V0203201N001512200019N0050001N1-00201-00201999999ADDGA1025+012901999GF102991999999999999999999MA1102511999999MW1101MW2121REMMET073ETMN 021820Z 32003KT 5000 MIFG BR FEW043 M02/M02 Q1025 WHT WHT BECMG YLO;
0187101360999992006010219004+53767+008667FM-12+0032ETMN V0203201N002012200019N0050001N1-00171-00221102551ADDAY101999AY201999GA1021+012901061GF102991021051012501001001MA1999999102151MD1310131+9999MW1111REMSYN082AAXX  02191 10136 41650 23202 11017 21022 30215 40255 53013 71100 82500 333 82643;
0154101360999992006010219204+53767+008667FM-15+0032ETMN V0202801N000512200019N0050001N1-00201-00201999999ADDGA1025+013501999GF102991999999999999999999MA1102511999999MW1101MW2121REMMET073ETMN 021920Z 28001KT 5000 MIFG BR FEW045 M02/M02 Q1025 WHT WHT BECMG YLO;
0187101360999992006010220004+53767+008667FM-12+0032ETMN V0202401N001012200019N0050001N1-00151-00181102571ADDAY111999AY211999GA1031+015001061GF103991031051017501001001MA1999999102171MD1210121+9999MW1111REMSYN082AAXX  02201 10136 41750 32401 11015 21018 30217 40257 52012 71111 83500 333 83650;
0154101360999992006010220204+53767+008667FM-15+0032ETMN V0209999C000012200019N0050001N1-00201-00201999999ADDGA1025+015001999GF102991999999999999999999MA1102511999999MW1101MW2121REMMET073ETMN 022020Z 00000KT 5000 MIFG BR FEW050 M02/M02 Q1025 WHT WHT BECMG YLO;
0141101360999992006010221204+53767+008667FM-15+0032ETMN V0209999C00001015001CN0050001N1-00201-00201999999ADDGA1075+015001999GF107991999999999999999999MA1102611999999MW1101REMMET066ETMN 022120Z 00000KT 5000 BR BKN050 M02/M02 Q1026 WHT FCST CANCEL;
0187101360999992006010222004+53767+008667FM-12+0032ETMN V0209999C000012200019N0040001N1-00181-00181102631ADDAY101999AY201999GA1031+011401061GF103991031051012501001001MA1999999102231MD1210081+9999MW1101REMSYN082AAXX  02221 10136 41640 30000 11018 21018 30223 40263 52008 71000 83500 333 83638;
0129101360999992006010222204+53767+008667FM-15+0032ETMN V0201701N001512200019N0040001N1-00201-00201999999ADDGA1025+012001999GF102991999999999999999999MA1102611999999MW1101REMMET054ETMN 022220Z 17003KT 4000 BR FEW040 M02/M02 Q1026 GRN;
0146101360999992006010222584+53767+008667FM-16+0032ETMN V0202401N001012200019N0020001N1-00201-00301999999ADDGA1025+015001999GF102991999999999999999999MA1102611999999MW1101MW2121REMMET065SPECI ETMN 022258Z 24002KT 2000 MIFG BR FEW050 M02/M03 Q1026 YLO;
0187101360999992006010223004+53767+008667FM-12+0032ETMN V0201901N001012200019N0040001N1-00251-00281102671ADDAY101999AY201999GA1021+015001061GF102991021051017501001001MA1999999102261MD1210091+9999MW1111REMSYN082AAXX  02231 10136 41740 21901 11025 21028 30226 40267 52009 71100 82500 333 82650;
0140101360999992006010223204+53767+008667FM-15+0032ETMN V0202301N001512200019N0020001N1-00301-00301999999ADDGA1025+015001999GF102991999999999999999999MA1102611999999MW1101MW2121REMMET059ETMN 022320Z 23003KT 2000 MIFG BR FEW050 M03/M03 Q1026 YLO;
0135101360999992006010300024+53767+008667FM-16+0032ETMN V0202101N001512200019N0040001N1-00301-00301999999ADDGA1025+015001999GF102991999999999999999999MA1102611999999MW1101REMMET060SPECI ETMN 030002Z 21003KT 4000 BR FEW050 M03/M03 Q1026 GRN;
0177101360999992006010300204+53767+008667FM-15+0032ETMN V0202101N00211999999CN0050001N1-00301-00301999999ADDGA1025+004501999GA2045+008401999GF104991999999999999999999MA1102611999999MW1101REMMET067METAR ETMN 030020Z 21004KT 5000 BR FEW015 SCT028 M03/M03 Q1026 WHT;EQDP01 008403SCOCIG
0187101360999992006010301004+53767+008667FM-12+0032ETMN V0202201N002012200019N0050001N1-00311-00321102711ADDAY101011AY201011GA1011+004801061GF101991011051004501001001MA1999999102301MD1210071+9999MW1101REMSYN082AAXX  03011 10136 41450 12202 11031 21032 30230 40271 52007 71000 81500 333 81616;
0129101360999992006010301204+53767+008667FM-15+0032ETMN V0201601N001012200019N0035001N1-00301-00301999999ADDGA1025+004801999GF102991999999999999999999MA1102711999999MW1101REMMET054ETMN 030120Z 16002KT 3500 BR FEW016 M03/M03 Q1027 YLO;
0187101360999992006010302004+53767+008667FM-12+0032ETMN V0201601N002010057019N0035001N1-00261-00261102761ADDAY111999AY211999GA1071+005701061GF107991071051004501999999MA1999999102351MD1210091+9999MW1101REMSYN082AAXX  03021 10136 41435 71602 11026 21026 30235 40276 52009 71011 875// 333 87619;
0129101360999992006010302204+53767+008667FM-15+0032ETMN V0201601N00151005401CN0040001N1-00301-00301999999ADDGA1075+005401999GF107991999999999999999999MA1102711999999MW1101REMMET054ETMN 030220Z 16003KT 4000 BR BKN018 M03/M03 Q1027 GRN;
0108101360999992006010303204+53767+008667FM-15+0032ETMN V0201601N001512200019N0060001N1-00301-00301999999ADDGA1045+007505999MA1102701999999REMMET065ETMN 030320Z 16003KT 6000 SCT025 M03/M03 Q1027 WHT WHT TEMPO GRN;
0187101360999992006010304004+53767+008667FM-12+0032ETMN V0201801N002012200019N0060001N1-00301-00311102771ADDAY101999AY201999GA1011+008101061GF101991011051008001001001MA1999999102361MD1210061+9999MW1101REMSYN082AAXX  03041 10136 41556 11802 11030 21031 30236 40277 52006 71000 81500 333 81627;
0154101360999992006010304204+53767+008667FM-15+0032ETMN V0202401N001512200019N0040001N1-00301-00401999999ADDGA1025+009001999GF102991999999999999999999MA1102711999999MW1101MW2121REMMET073ETMN 030420Z 24003KT 4000 MIFG BR FEW030 M03/M04 Q1027 GRN GRN TEMPO RED;
0206101360999992006010305004+53767+008667FM-12+0032ETMN V0202401N002012200019N0045001N1-00291-00331102771ADDAY111999AY211999GA1041+014701061GF104991041051012501091091MA1999999102361MD1310011+9999MW1111REMSYN082AAXX  03051 10136 41645 42402 11029 21033 30236 40277 53911 71111 84599 333 84649;EQDQ01+009117APC3  
0154101360999992006010305204+53767+008667FM-15+0032ETMN V0201901N002112200019N0050001N1-00301-00301999999ADDGA1045+009301999GF104991999999999999999999MA1102711999999MW1101MW2121REMMET073ETMN 030520Z 19004KT 5000 MIFG BR SCT031 M03/M03 Q1027 WHT GRN TEMPO RED;
0149101360999992006010306204+53767+008667FM-15+0032ETMN V0202101N00211007801CN0040001N1-00201-00201999999ADDGA1075+007801999GF107991999999999999999999MA1102811999999MW1101REMMET074METAR ETMN 030620Z 21004KT 4000 BR BKN026 M02/M02 Q1028 GRN GRN TEMPO YLO;
0184101360999992006010306434+53767+008667FM-16+0032ETMN V0202101N00261007501CN0040001N1-00201-00201999999ADDGA1025+005101999GA2075+007501999GF107991999999999999999999MA1102811999999MW1101MW2661REMMET087SPECI ETMN 030643Z 21005KT 4000 -FZRA BR FEW017 BKN025 M02/M02 Q1028 GRN GRN TEMPO YLO;
0308101360999992006010307004+53767+008667SY-MT+0032ETMN V0202301N00301004801CN0040001N1-00211-00231102851ADDAY111011AY211011GA1045+000601999GA2075+004801999GF107991071051001501999999MA1102811102441MD1310081+9999MW1661REMSYN094AAXX  03071 10136 41240 72303 11021 21023 30244 40285 53008 76611 875// 333 82703 84617 86631;MET087SPECI ETMN 030700Z 23005KT 2800 -FZRA BR SCT002 BKN016 M02/M02 Q1028 YLO GRN TEMPO YLO;
0199101360999992006010307054+53767+008667FM-16+0032ETMN V0202201N00361000301CN0006001N1-00201-00201999999ADDED126U37009GA1075+000301999GA2075+004801999GF107991999999999999999999MA1102811999999MW1481MW2661REMMET091ETMN 030705Z 22007KT 0600 R26/3700N -FZRA FZFG BKN001 BKN016 M02/M02 Q1028 RED FCST CANCEL;
0167101360999992006010307164+53767+008667FM-16+0032ETMN V0202301N003110001519N0003001N1-00201-00201999999ADDED126U13009GA1091+000151999GF109991999999000251999999MA1102811999999MW1491REMMET081SPECI ETMN 030716Z 23006KT 0300 R26/1300 FZFG VV000 M02/M02 Q1028 REFZRA RED RED;
0162101360999992006010307204+53767+008667FM-15+0032ETMN V0202301N002610001519N0003001N1-00201-00201999999ADDED126U14009GA1091+000151999GF109991999999000251999999MA1102811999999MW1491REMMET076ETMN 030720Z 23005KT 0300 R26/1400D FZFG VV000 M02/M02 Q1028 REFZRA RED RED;
0181101360999992006010308004+53767+008667FM-12+0032ETMN V0202201N002010001519N0003001N1-00221-00231102881ADDAY161999AY241999GA1091+000151999GF109991091999999999999999MA1999999102471MD1110111+9999MW1491REMSYN076AAXX  03081 10136 41/03 92202 11022 21023 30247 40288 51011 74964 333 89/00;
0165101360999992006010308204+53767+008667FM-15+0032ETMN V0202101N003110001519N0004001N1-00201-00201999999ADDED126U07009GA1091+000151999GF109991999999000251999999MA1102811999999MW1491REMMET079ETMN 030820Z 21006KT 0400 R26/0700N FZFG VV000 M02/M02 Q1028 RED RED BECMG AMB;
0165101360999992006010309204+53767+008667FM-15+0032ETMN V0202101N002110001519N0004001N1-00101-00101999999ADDED126U08009GA1091+000151999GF109991999999000251999999MA1102911999999MW1491REMMET079ETMN 030920Z 21004KT 0400 R26/0800D FZFG VV000 M01/M01 Q1029 RED RED BECMG AMB;
0181101360999992006010310004+53767+008667FM-12+0032ETMN V0202201N002010001519N0003001N1-00091-00091102941ADDAY141999AY241999GA1091+000151999GF109991091999999999999999MA1999999102541MD1310101+9999MW1491REMSYN076AAXX  03101 10136 41/03 92202 11009 21009 30254 40294 53010 74944 333 89/00;
0165101360999992006010310204+53767+008667FM-15+0032ETMN V0202201N002610001519N0003001N1-00101-00101999999ADDED126U10009GA1091+000151999GF109991999999000251999999MA1102911999999MW1491REMMET079ETMN 031020Z 22005KT 0300 R26/1000D FZFG VV000 M01/M01 Q1029 RED RED BECMG AMB;
0181101360999992006010311004+53767+008667FM-12+0032ETMN V0202301N003010001519N0003001N1-00041-00041102941ADDAY141999AY241999GA1091+000151999GF109991091999999999999999MA1999999102541MD1110071+9999MW1451REMSYN076AAXX  03111 10136 41/03 92303 11004 21004 30254 40294 51007 74544 333 89/00;
0155101360999992006010311204+53767+008667FM-15+0032ETMN V0202201N002610001519N0001001N1+00001+00001999999ADDED126U02009GA1091+000151999GF109991999999000251999999MA1102911999999MW1491REMMET069ETMN 031120Z 22005KT 0100 R26/0200N FZFG VV000 M00/M00 Q1029 RED RED;
0153101360999992006010312204+53767+008667FM-15+0032ETMN V0202101N002110001519N0002001N1+00001+00001999999ADDED126U13009GA1091+000151999GF109991999999000251999999MA1102911999999MW1491REMMET067ETMN 031220Z 21004KT 0200 R26/1300N FZFG VV000 00/00 Q1029 RED RED;
0181101360999992006010313004+53767+008667FM-12+0032ETMN V0202201N002010001519N0002001N1+00021+00021102941ADDAY141999AY241999GA1091+000151999GF109991091999999999999999MA1999999102541MD1010001+9999MW1431REMSYN076AAXX  03131 10136 41/02 92202 10002 20002 30254 40294 50000 74344 333 89/00;
0151101360999992006010313204+53767+008667FM-15+0032ETMN V0202301N002610001519N0002001N1+00101+00101999999ADDED126U02009GA1091+000151999GF109991999999000251999999MA1102911999999MW1451REMMET065ETMN 031320Z 23005KT 0200 R26/0200N FG VV000 01/01 Q1029 RED RED;
0223101360999992006010314004+53767+008667FM-12+0032ETMN V0202201N003010001519N0002001N1+00061+00061102931ADDAY141999AY241999GA1091+000151999GF109991091999999999999999MA1999999102531MD1810011+9999MW1451REMSYN118AAXX  03141 10136 41/02 92203 10006 20006 30253 40293 58001 74544 333 89/00 555 BOT 10008 20015 30022 40041 999 31///;
0151101360999992006010314204+53767+008667FM-15+0032ETMN V0202001N002110001519N0002001N1+00101+00101999999ADDED126U02509GA1091+000151999GF109991999999000251999999MA1102911999999MW1451REMMET065ETMN 031420Z 20004KT 0200 R26/0250N FG VV000 01/01 Q1029 RED RED;
0151101360999992006010315204+53767+008667FM-15+0032ETMN V0202101N001510001519N0003001N1+00001+00001999999ADDED126U03009GA1091+000151999GF109991999999000251999999MA1102911999999MW1451REMMET065ETMN 031520Z 21003KT 0300 R26/0300N FG VV000 00/00 Q1029 RED RED;
0181101360999992006010316004+53767+008667FM-12+0032ETMN V0202101N002010001519N0003001N1+00021+00021102981ADDAY141999AY241999GA1091+000151999GF109991091999999999999999MA1999999102581MD1110041+9999MW1451REMSYN076AAXX  03161 10136 41/03 92102 10002 20002 30258 40298 51004 74544 333 89/00;
0151101360999992006010316204+53767+008667FM-15+0032ETMN V0202301N002110001519N0003001N1+00001+00001999999ADDED126U04009GA1091+000151999GF109991999999000251999999MA1102911999999MW1451REMMET065ETMN 031620Z 23004KT 0300 R26/0400N FG VV000 00/00 Q1029 RED RED;
0181101360999992006010317004+53767+008667FM-12+0032ETMN V0202101N002010001519N0003001N1+00021+00021103001ADDAY141999AY241999GA1091+000151999GF109991091999999999999999MA1999999102601MD1210071+9999MW1451REMSYN076AAXX  03171 10136 41/03 92102 10002 20002 30260 40300 52007 74544 333 89/00;
0130101360999992006010317204+53767+008667FM-15+0032ETMN V0202201N002110001519N0002001N1+00001+00001999999ADDGA1091+000151999GF109991999999000251999999MA1103011999999MW1451REMMET055ETMN 031720Z 22004KT 0200 FG VV000 00/00 Q1030 RED RED;
0148101360999992006010318204+53767+008667FM-15+0032ETMN V0202301N001510001519N0004001N1+00001+00001999999ADDGA1091+000151999GF109991999999000251999999MA1103011999999MW1491REMMET073METAR ETMN 031820Z 23003KT 0400 FZFG VV000 M00/M00 Q1030 RED FCST CANCEL;
0181101360999992006010319004+53767+008667FM-12+0032ETMN V0202001N002010001519N0007001N1-00011-00011103061ADDAY141999AY241999GA1091+000151999GF109991091999999999999999MA1999999102661MD1110081+9999MW1491REMSYN076AAXX  03191 10136 41/07 92002 11001 21001 30266 40306 51008 74944 333 89/00;
0126101360999992006010319204+53767+008667FM-15+0032ETMN V0202101N002610001519N0006001N1+00001+00001999999ADDGA1091+000151999GF109991999999000251999999MA1103011999999MW1451REMMET051ETMN 031920Z 21005KT 0600 FG VV000 00/00 Q1030 RED;
0181101360999992006010320004+53767+008667FM-12+0032ETMN V0201601N001010001519N0007001N1+00021+00021103101ADDAY141999AY241999GA1091+000151999GF109991091999999999999999MA1999999102701MD1210101+9999MW1451REMSYN076AAXX  03201 10136 41/07 91601 10002 20002 30270 40310 52010 74544 333 89/00;
0127101360999992006010320204+53767+008667FM-15+0032ETMN V0202001N00211000301CN0014001N1+00001+00001999999ADDGA1075+000301999GF107991999999999999999999MA1103121999999MW1101REMMET052ETMN 032020Z 20004KT 1400 BR BKN001 00/00 Q1031 RED;
0150101360999992006010321204+53767+008667FM-15+0032ETMN V0209999C00001000301CN0012001N1+00001+00001999999ADDGA1075+000301999GA2075+015001999GF107991999999999999999999MA1103121999999MW1101REMMET059ETMN 032120Z 00000KT 1200 BR BKN001 BKN050 00/00 Q1031 RED;
0193101360999992006010322004+53767+008667FM-12+0032ETMN V0209999C000010003019N0012001N1-00011-00011103161ADDAY121999AY221999GA1061+000301071GF108991081051000751999999MA1999999102761MD1210101+9999MW1101REMSYN088AAXX  03221 10136 41112 80000 11001 21001 30276 40316 52010 71022 885// 333 86701 87650;
0131101360999992006010322204+53767+008667FM-15+0032ETMN V0209999C00001000301CN0007001N1+00001+00001999999ADDGA1085+000301999GF108991999999999999999999MA1103121999999MW1481REMMET056ETMN 032220Z 00000KT 0700 FZFG OVC001 M00/M00 Q1031 RED;
0181101360999992006010323004+53767+008667FM-12+0032ETMN V0201501N001010001519N0007001N1-00031-00031103201ADDAY141999AY221999GA1091+000151999GF109991091999999999999999MA1999999102801MD1310101+9999MW1471REMSYN076AAXX  03231 10136 41/07 91501 11003 21003 30280 40320 53010 74742 333 89/00;
0131101360999992006010323204+53767+008667FM-15+0032ETMN V0201801N00101000301CN0009001N1+00001+00001999999ADDGA1075+000301999GF107991999999999999999999MA1103121999999MW1481REMMET056ETMN 032320Z 18002KT 0900 FZFG BKN001 M00/M00 Q1031 RED;
0154101360999992006010400114+53767+008667FM-16+0032ETMN V0201201N00101015001CN0005001N1+00001+00001999999ADDGA1045+000301999GA2075+015001999GF107991999999999999999999MA1103121999999MW1481REMMET063ETMN 040011Z 12002KT 0500 FZFG SCT001 BKN050 M00/M00 Q1031 RED;
0154101360999992006010400204+53767+008667FM-15+0032ETMN V0201401N00151000301CN0006001N1+00001+00001999999ADDGA1075+000301999GA2075+015001999GF107991999999999999999999MA1103121999999MW1481REMMET063ETMN 040020Z 14003KT 0600 FZFG BKN001 BKN050 M00/M00 Q1031 RED;
0193101360999992006010401004+53767+008667FM-12+0032ETMN V0201301N002010003019N0006001N1-00031-00031103201ADDAY141999AY241999GA1061+000301071GF108991081051000751999999MA1999999102801MD1110041+9999MW1461REMSYN088AAXX  04011 10136 41106 81302 11003 21003 30280 40320 51004 74644 885// 333 86701 87650;
0154101360999992006010401204+53767+008667FM-15+0032ETMN V0201401N00101000301CN0009001N1+00001+00001999999ADDGA1075+000301999GA2075+010501999GF107991999999999999999999MA1103121999999MW1481REMMET063ETMN 040120Z 14002KT 0900 FZFG BKN001 BKN035 M00/M00 Q1031 RED;
0130101360999992006010401504+53767+008667FM-15+0032ETMN V0201201N001510001519N0004001N1-00101-00101999999ADDGA1091+000151999GF109991999999000251999999MA1103181999999MW1491REMMET055ETMN 040150Z 12003KT 0400 FZFG VV000 M01/M01 Q1032 RED;
0181101360999992006010402004+53767+008667FM-12+0032ETMN V0201301N002010001519N0004001N1-00061-00061103241ADDAY141999AY221999GA1091+000151999GF109991091999999999999999MA1999999102831MD1310031+9999MW1471REMSYN076AAXX  04021 10136 41/04 91302 11006 21006 30283 40324 53003 74742 333 89/00;
0130101360999992006010402204+53767+008667FM-15+0032ETMN V0201001N002110001519N0002001N1-00101-00101999999ADDGA1091+000151999GF109991999999000251999999MA1103181999999MW1491REMMET055ETMN 040220Z 10004KT 0200 FZFG VV000 M01/M01 Q1032 RED;
0130101360999992006010403204+53767+008667FM-15+0032ETMN V0201201N001510001519N0003001N1-00101-00101999999ADDGA1091+000151999GF109991999999000251999999MA1103181999999MW1491REMMET055ETMN 040320Z 12003KT 0300 FZFG VV000 M01/M01 Q1032 RED;
0181101360999992006010404004+53767+008667FM-12+0032ETMN V0201001N002010001519N0003001N1-00091-00091103281ADDAY141999AY241999GA1091+000151999GF109991091999999999999999MA1999999102871MD1110071+9999MW1491REMSYN076AAXX  04041 10136 41/03 91002 11009 21009 30287 40328 51007 74944 333 89/00;
0130101360999992006010404204+53767+008667FM-15+0032ETMN V0201101N001510001519N0003001N1-00101-00101999999ADDGA1091+000151999GF109991999999000251999999MA1103181999999MW1491REMMET055ETMN 040420Z 11003KT 0300 FZFG VV000 M01/M01 Q1032 RED;
0181101360999992006010405004+53767+008667FM-12+0032ETMN V0200901N003010001519N0004001N1-00081-00081103301ADDAY141999AY241999GA1091+000151999GF109991091999999999999999MA1999999102891MD1110061+9999MW1491REMSYN076AAXX  04051 10136 41/04 90903 11008 21008 30289 40330 51006 74944 333 89/00;
0134101360999992006010405204+53767+008667FM-15+0032ETMN V0200901N001510001519N0004001N1-00101-00101999999ADDGA1091+000151999GF109991999999000251999999MA1103291999999MW1491REMMET059ETMN 040520Z 09003KT 0400 FZFG VV000 M01/M01 Q1033 RED RED;
0140101360999992006010406204+53767+008667FM-15+0032ETMN V0200801N003110001519N0007001N1-00101-00101999999ADDGA1091+000151999GF109991999999000251999999MA1103291999999MW1491REMMET065METAR ETMN 040620Z 08006KT 0700 FZFG VV000 M01/M01 Q1033 RED RED;
0132101360999992006010406364+53767+008667FM-16+0032ETMN V0200901N002610001519N0012001N1-00101-00101999999ADDGA1091+000151999GF109991999999000251999999MA1103291999999MW1101REMMET057ETMN 040636Z 09005KT 1200 BR VV000 M01/M01 Q1033 RED RED;
0143101360999992006010406494+53767+008667FM-16+0032ETMN V0200901N00261000301CN0020001N1-00101-00101999999ADDGA1085+000301999GF108991999999999999999999MA1103291999999MW1101REMMET068ETMN 040649Z 09005KT 2000 BR OVC001 M01/M01 Q1033 RED RED BECMG AMB;
0187101360999992006010407004+53767+008667FM-12+0032ETMN V0200901N002010003019N0020001N1-00071-00071103341ADDAY141011AY221011GA1081+000301071GF108991081061000751999999MA1999999102931MD1110061+9999MW1281REMSYN082AAXX  04071 10136 41120 80902 11007 21007 30293 40334 51006 72842 886// 333 88701;
0164101360999992006010407204+53767+008667FM-15+0032ETMN V0200801N00211000301CN0015001N1-00101-00101999999ADDED108U21009GA1085+000301999GF108991999999999999999999MA1103291999999MW1101REMMET078ETMN 040720Z 08004KT 1500 R08/2100N BR OVC001 M01/M01 Q1033 RED RED BECMG AMB;
0165101360999992006010407464+53767+008667FM-16+0032ETMN V0200801N003610001519N0007001N1-00101-00101999999ADDED108U12009GA1091+000151999GF109991999999000251999999MA1103291999999MW1491REMMET079ETMN 040746Z 08007KT 0700 R08/1200D FZFG VV000 M01/M01 Q1033 RED RED BECMG AMB;
0181101360999992006010408004+53767+008667FM-12+0032ETMN V0200801N004010001519N0007001N1-00051-00051103371ADDAY121999AY221999GA1091+000151999GF109991091999999999999999MA1999999102961MD1210071+9999MW1491REMSYN076AAXX  04081 10136 41/07 90804 11005 21005 30296 40337 52007 74922 333 89/00;
0164101360999992006010408204+53767+008667FM-15+0032ETMN V0200801N00461000301CN0015001N1+00001+00001999999ADDED108U17009GA1085+000301999GF108991999999999999999999MA1103291999999MW1101REMMET078ETMN 040820Z 08009KT 1500 R08/1700N BR OVC001 M00/M00 Q1033 RED RED BECMG AMB;
0170101360999992006010409004+53767+008667FM-15+0032ETMN V0200901N00461000301CN0010001N1+00001+00001999999ADDED108U05009GA1085+000301999GF108991999999999999999999MA1103391999999MW1101REMMET084SPECI ETMN 040857Z 09009KT 1000 R08/0500U BR OVC001 M00/M00 Q1034 RED RED BECMG AMB;
0149101360999992006010409204+53767+008667FM-15+0032ETMN V0200801N00571000601CN0020001N1-00101-00101999999ADDGA1085+000601999GF108991999999999999999999MA1103391999999MW1101REMMET074SPECI ETMN 040920Z 08011KT 2000 BR OVC002 M01/M01 Q1034 AMB AMB BECMG YLO;
0187101360999992006010410004+53767+008667FM-12+0032ETMN V0200901N006010006019N0020001N1-00101-00101103481ADDAY121999AY221999GA1081+000601071GF108991081061000751999999MA1999999103071MD1210141+9999MW1101REMSYN082AAXX  04101 10136 41120 80906 11010 21010 30307 40348 52014 71022 886// 333 88702;
0133101360999992006010410204+53767+008667FM-15+0032ETMN V0201001N00511000901CN0025001N1-00101-00101999999ADDGA1085+000901999GF108991999999999999999999MA1103391999999MW1101REMMET058ETMN 041020Z 10010KT 2500 BR OVC003 M01/M01 Q1034 YLO YLO;
0187101360999992006010411004+53767+008667FM-12+0032ETMN V0200901N006010012019N0030001N1-00131-00131103481ADDAY121021AY221021GA1071+001201071GF108991071061001501999999MA1999999103071MD1110111+9999MW1101REMSYN082AAXX  04111 10136 41230 80906 11013 21013 30307 40348 51011 71022 876// 333 87704;
0133101360999992006010411204+53767+008667FM-15+0032ETMN V0200901N00461002101CN0045001N1-00101-00201999999ADDGA1075+002101999GF107991999999999999999999MA1103391999999MW1101REMMET058ETMN 041120Z 09009KT 4500 BR BKN007 M01/M02 Q1034 GRN GRN;
0124101360999992006010411524+53767+008667FM-16+0032ETMN V0200901N00461002101CN0060001N1-00101-00201999999ADDGA1075+002101999GF107991999999999999999999MA1103391999999REMMET055ETMN 041152Z 09009KT 6000 BKN007 M01/M02 Q1034 GRN GRN;
0124101360999992006010412204+53767+008667FM-15+0032ETMN V0200901N00461002401CN0070001N1-00101-00201999999ADDGA1075+002401999GF107991999999999999999999MA1103391999999REMMET055ETMN 041220Z 09009KT 7000 BKN008 M01/M02 Q1034 GRN GRN;
0187101360999992006010413004+53767+008667FM-12+0032ETMN V0201101N004010024019N0070001N1-00111-00191103461ADDAY121999AY221999GA1071+002401071GF108991071061002501999999MA1999999103051MD1810021+9999MW1101REMSYN082AAXX  04131 10136 41357 81104 11011 21019 30305 40346 58002 71022 876// 333 87708;
0124101360999992006010413204+53767+008667FM-15+0032ETMN V0201001N00311002101CN0070001N1-00101-00201999999ADDGA1075+002101999GF107991999999999999999999MA1103391999999REMMET055ETMN 041320Z 10006KT 7000 BKN007 M01/M02 Q1034 GRN GRN;
0229101360999992006010414004+53767+008667FM-12+0032ETMN V0200901N004010027019N0070001N1-00041-00151103441ADDAY121999AY221999GA1071+002701071GF108991071061002501999999MA1999999103031MD1810041+9999MW1101REMSYN124AAXX  04141 10136 41357 80904 11004 21015 30303 40344 58004 71022 876// 333 87709 555 BOT 10009 20015 30019 40037 999 34///;
0134101360999992006010414204+53767+008667FM-15+0032ETMN V0200901N00361002701CN0070001N1+00001-00101999999ADDGA1075+002701999GF107991999999999999999999MA1103391999999REMMET065ETMN 041420Z 09007KT 7000 BKN009 M00/M01 Q1034 GRN GRN TEMPO YLO;
0166101360999992006010415204+53767+008667FM-15+0032ETMN V0200801N00311004201CN0050001N1+00001-00101999999ADDGA1045+002701999GA2075+004201999GF107991999999999999999999MA1103391999999MW1101REMMET075ETMN 041520Z 08006KT 5000 BR SCT009 BKN014 M00/M01 Q1034 GRN GRN TEMPO YLO;
0187101360999992006010416004+53767+008667FM-12+0032ETMN V0200801N003010051019N0050001N1+00001-00061103481ADDAY121999AY221999GA1071+005101061GF107991071051004501999999MA1999999103071MD1310021+9999MW1101REMSYN082AAXX  04161 10136 41450 70803 10000 21006 30307 40348 53002 71022 875// 333 87617;
0165101360999992006010416054+53767+008667FM-16+0032ETMN V0200801N00211003001CN0050001N1+00001+00001999999ADDGA1075+003001999GA2075+004801999GF107991999999999999999999MA1103391999999MW1101REMMET074ETMN 041605Z 08004KT 5000 BR BKN010 BKN016 00/M00 Q1034 GRN GRN TEMPO YLO;
0142101360999992006010416204+53767+008667FM-15+0032ETMN V0200901N00211002401CN0050001N1+00001+00001999999ADDGA1075+002401999GF107991999999999999999999MA1103391999999MW1101REMMET067ETMN 041620Z 09004KT 5000 BR BKN008 00/M00 Q1034 GRN GRN TEMPO YLO;
0142101360999992006010416394+53767+008667FM-16+0032ETMN V0200701N00411001801CN0050001N1+00001+00001999999ADDGA1075+001801999GF107991999999999999999999MA1103391999999MW1101REMMET067ETMN 041639Z 07008KT 5000 BR BKN006 00/M00 Q1034 YLO GRN TEMPO YLO;
0187101360999992006010417004+53767+008667FM-12+0032ETMN V0200801N004010018019N0050001N1+00041-00041103481ADDAY121999AY221999GA1071+001801071GF107991071061002501999999MA1999999103081MD1210051+9999MW1101REMSYN082AAXX  04171 10136 41350 70804 10004 21004 30308 40348 52005 71022 876// 333 87706;
0142101360999992006010417044+53767+008667FM-16+0032ETMN V0200801N00461000901CN0045001N1+00001+00001999999ADDGA1075+000901999GF107991999999999999999999MA1103391999999MW1101REMMET067ETMN 041704Z 08009KT 4500 BR BKN003 00/M00 Q1034 YLO GRN TEMPO YLO;
0142101360999992006010417204+53767+008667FM-15+0032ETMN V0200901N00461000901CN0035001N1+00001+00001999999ADDGA1075+000901999GF107991999999999999999999MA1103391999999MW1101REMMET067ETMN 041720Z 09009KT 3500 BR BKN003 00/M00 Q1034 YLO GRN TEMPO YLO;
0165101360999992006010418204+53767+008667FM-15+0032ETMN V0200801N00261010201CN0040001N1+00001+00001999999ADDGA1025+001201999GA2075+010201999GF107991999999999999999999MA1103391999999MW1101REMMET074ETMN 041820Z 08005KT 4000 BR FEW004 BKN034 00/M00 Q1034 GRN GRN TEMPO YLO;
0193101360999992006010419004+53767+008667FM-12+0032ETMN V0200801N00301004201CN0040001N1+00001-00031103491ADDAY121999AY221999GA1031+004501061GF107991071061004501999999MA1999999103081MD1110011+9999MW1101REMSYN088AAXX  04191 10136 41440 70803 10000 21003 30308 40349 51001 71022 876// 333 83615 86650;
0142101360999992006010419204+53767+008667FM-15+0032ETMN V0200801N00311003901CN0037001N1+00001+00001999999ADDGA1075+003901999GF107991999999999999999999MA1103391999999MW1101REMMET067ETMN 041920Z 08006KT 3700 BR BKN013 00/M00 Q1034 GRN GRN TEMPO YLO;
0193101360999992006010420004+53767+008667FM-12+0032ETMN V0200801N00401002101CN0040001N1+00021-00011103441ADDAY121999AY221999GA1031+002401071GF108991071051002501999999MA1999999103041MD1810041+9999MW1221REMSYN088AAXX  04201 10136 41340 80804 10002 21001 30304 40344 58004 72222 875// 333 83708 87613;
0165101360999992006010420204+53767+008667FM-15+0032ETMN V0200901N00361002101CN0050001N1+00001+00001999999ADDGA1075+002101999GA2075+006301999GF107991999999999999999999MA1103391999999MW1101REMMET074ETMN 042020Z 09007KT 5000 BR BKN007 BKN021 00/M00 Q1034 GRN GRN TEMPO YLO;
0156101360999992006010421204+53767+008667FM-15+0032ETMN V0200801N00411002101CN0060001N1+00001-00101999999ADDGA1075+002101999GA2075+006901999GF107991999999999999999999MA1103291999999REMMET071ETMN 042120Z 08008KT 6000 BKN007 BKN023 00/M01 Q1033 GRN GRN TEMPO YLO;
0193101360999992006010422004+53767+008667FM-12+0032ETMN V0200701N004010021019N0060001N1+00011-00061103391ADDAY121999AY221999GA1051+002101071GF108991071051002501999999MA1999999102991MD1710091+9999MW1101REMSYN088AAXX  04221 10136 41356 80704 10001 21006 30299 40339 57009 71022 875// 333 85707 87620;
0156101360999992006010422204+53767+008667FM-15+0032ETMN V0200701N00361003001CN0060001N1+00001-00101999999ADDGA1075+003001999GA2075+005101999GF107991999999999999999999MA1103291999999REMMET071ETMN 042220Z 07007KT 6000 BKN010 BKN017 00/M01 Q1033 GRN GRN TEMPO YLO;
0187101360999992006010423004+53767+008667FM-12+0032ETMN V0200701N003010021019N0060001N1+00001-00061103361ADDAY121999AY221999GA1071+002101071GF108991071061002501999999MA1999999102961MD1710081+9999MW1101REMSYN082AAXX  04231 10136 41356 80703 10000 21006 30296 40336 57008 71022 876// 333 87707;
0153101360999992006010423204+53767+008667FM-15+0032ETMN V0200601N00361001501CN0045001N1+00001-00101999999ADDGA1075+001501999GF107991999999999999999999MA1103291999999MW1101MW2711REMMET072ETMN 042320Z 06007KT 4500 -SN BR BKN005 M00/M01 Q1033 YLO GRN TEMPO YLO;
0157101360999992006010500034+53767+008667FM-16+0032ETMN V0200501N00411000901CN0035001N1+00001-00101999999ADDGA1075+000901999GF107991999999999999999999MA1103181999999MW1101MW2711REMMET076SPECI ETMN 050003Z 05008KT 3500 -SN BR BKN003 M00/M01 Q1032 YLO FCST CANCEL;
0139101360999992006010500204+53767+008667FM-15+0032ETMN V0200501N00311000601CN0028001N1+00001+00001999999ADDGA1075+000601999GF107991999999999999999999MA1103181999999MW1101MW2711REMMET058ETMN 050020Z 05006KT 2800 -SN BR BKN002 M00/M00 Q1032 AMB;
0187101360999992006010501004+53767+008667FM-12+0032ETMN V0200401N003010006019N0028001N1+00001-00011103241ADDAY171999AY271999GA1071+000601071GF108991071071000751999999MA1999999102841MD1710151+9999MW1711REMSYN082AAXX  05011 10136 41128 80403 10000 21001 30284 40324 57015 77177 877// 333 87702;
0137101360999992006010501204+53767+008667FM-15+0032ETMN V0200401N00311000601CN0030001N1+00001+00001999999ADDGA1075+000601999GF107991999999999999999999MA1103181999999MW1101MW2711REMMET056ETMN 050120Z 04006KT 3000 -SN BR BKN002 00/00 Q1032 AMB;
0187101360999992006010502004+53767+008667FM-12+0032ETMN V0200501N003010006019N0030001N1+00021+00011103221ADDAY171999AY271999GA1071+000601071GF108991071071000751999999MA1999999102821MD1710141+9999MW1711REMSYN082AAXX  05021 10136 41130 80503 10002 20001 30282 40322 57014 77177 877// 333 87702;
0137101360999992006010502204+53767+008667FM-15+0032ETMN V0200801N00461000901CN0035001N1+00101+00001999999ADDGA1075+000901999GF107991999999999999999999MA1103181999999MW1101MW2711REMMET056ETMN 050220Z 08009KT 3500 -SN BR BKN003 01/00 Q1032 YLO;
0137101360999992006010503204+53767+008667FM-15+0032ETMN V0200901N00461001201CN0040001N1+00101+00001999999ADDGA1075+001201999GF107991999999999999999999MA1103121999999MW1101MW2711REMMET056ETMN 050320Z 09009KT 4000 -SN BR BKN004 01/00 Q1031 YLO;
0187101360999992006010504004+53767+008667FM-12+0032ETMN V0200901N004010018019N0050001N1+00091+00051103171ADDAY171999AY271999GA1071+001801071GF108991071071002501999999MA1999999102771MD1710071+9999MW1221REMSYN082AAXX  05041 10136 41350 80904 10009 20005 30277 40317 57007 72277 877// 333 87706;
0118101360999992006010504204+53767+008667FM-15+0032ETMN V0200901N00461002101CN0060001N1+00101+00001999999ADDGA1075+002101999GF107991999999999999999999MA1103121999999REMMET049ETMN 050420Z 09009KT 6000 BKN007 01/00 Q1031 GRN;
0159101360999992006010505004+53767+008667FM-12+0032ETMN V0200901N005010021019N0080001N1+00091+00021103091ADDGA1071+002101071GF108991071061002501999999MA1999999102691MD1710131+9999REMSYN076AAXX  05051 10136 42358 80905 10009 20002 30269 40309 57013 876// 333 87707;
0132101360999992006010505204+53767+008667FM-15+0032ETMN V0200801N00511002101CN0080001N1+00101+00001999999ADDGA1075+002101999GF107991999999999999999999MA1103011999999REMMET063ETMN 050520Z 08010KT 8000 BKN007 01/00 Q1030 GRN GRN TEMPO YLO;
0133101360999992006010506204+53767+008667FM-15+0032ETMN V0200901N00511002401CN0080001N1+00101+00001999999ADDGA1075+002401999GF107991999999999999999999MA1103011999999REMMET064ETMN 050620Z 09010KT 8000 BKN008 01/M00 Q1030 GRN GRN TEMPO YLO;
0159101360999992006010507004+53767+008667FM-12+0032ETMN V0200901N005010024019N0080001N1+00081-00011103021ADDGA1071+002401071GF108991071061002501999999MA1999999102621MD1710151+9999REMSYN076AAXX  05071 10136 42358 80905 10008 21001 30262 40302 57015 876// 333 87708;
0133101360999992006010507204+53767+008667FM-15+0032ETMN V0200901N00571002101CN0060001N1+00101+00001999999ADDGA1075+002101999GF107991999999999999999999MA1102911999999REMMET064ETMN 050720Z 09011KT 6000 BKN007 01/M00 Q1029 GRN GRN TEMPO YLO;
0142101360999992006010507354+53767+008667FM-16+0032ETMN V0200901N00511001801CN0045001N1+00101+00001999999ADDGA1075+001801999GF107991999999999999999999MA1102911999999MW1101REMMET067ETMN 050735Z 09010KT 4500 BR BKN006 01/M00 Q1029 YLO GRN TEMPO YLO;
0187101360999992006010508004+53767+008667FM-12+0032ETMN V0200901N005010018019N0045001N1+00091-00011102991ADDAY121999AY221999GA1081+001801071GF108991081061002501999999MA1999999102591MD1710101+9999MW1101REMSYN082AAXX  05081 10136 41345 80905 10009 21001 30259 40299 57010 71022 886// 333 88706;
0142101360999992006010508204+53767+008667FM-15+0032ETMN V0200901N00461002401CN0045001N1+00101+00001999999ADDGA1075+002401999GF107991999999999999999999MA1102911999999MW1101REMMET067ETMN 050820Z 09009KT 4500 BR BKN008 01/M00 Q1029 GRN GRN TEMPO YLO;
0187101360999992006010510004+53767+008667FM-12+0032ETMN V0200901N005010024019N0050001N1+00101-00011102971ADDAY121999AY221999GA1071+002401071GF108991071061002501999999MA1999999102571MD1710051+9999MW1101REMSYN082AAXX  05101 10136 41350 80905 10010 21001 30257 40297 57005 71022 876// 333 87708;
0141101360999992006010510204+53767+008667FM-15+0032ETMN V0200901N00461002401CN0050001N1+00101+00001999999ADDGA1075+002401999GF107991999999999999999999MA1102911999999MW1101REMMET066ETMN 051020Z 09009KT 5000 BR BKN008 01/00 Q1029 GRN GRN TEMPO YLO;
0187101360999992006010511004+53767+008667FM-12+0032ETMN V0200801N006010024019N0050001N1+00101+00011102911ADDAY121999AY221999GA1071+002401071GF108991071061002501999999MA1999999102511MD1710081+9999MW1101REMSYN082AAXX  05111 10136 41350 80806 10010 20001 30251 40291 57008 71022 876// 333 87708;
0141101360999992006010511204+53767+008667FM-15+0032ETMN V0200801N00571002401CN0050001N1+00101+00001999999ADDGA1075+002401999GF107991999999999999999999MA1102811999999MW1101REMMET066ETMN 051120Z 08011KT 5000 BR BKN008 01/00 Q1028 GRN GRN TEMPO YLO;
0141101360999992006010512204+53767+008667FM-15+0032ETMN V0200801N00621001801CN0040001N1+00101+00001999999ADDGA1075+001801999GF107991999999999999999999MA1102711999999MW1101REMMET066ETMN 051220Z 08012KT 4000 BR BKN006 01/00 Q1027 YLO GRN TEMPO YLO;
0187101360999992006010513004+53767+008667FM-12+0032ETMN V0200901N007010018019N0040001N1+00111+00021102711ADDAY121999AY221999GA1071+001801071GF108991071061002501999999MA1999999102311MD1810261+9999MW1101REMSYN082AAXX  05131 10136 41340 80907 10011 20002 30231 40271 58026 71022 876// 333 87706;
0141101360999992006010513204+53767+008667FM-15+0032ETMN V0200901N00721001801CN0038001N1+00101+00001999999ADDGA1075+001801999GF107991999999999999999999MA1102711999999MW1101REMMET066ETMN 051320Z 09014KT 3800 BR BKN006 01/00 Q1027 YLO GRN TEMPO YLO;
0187101360999992006010514004+53767+008667FM-12+0032ETMN V0200901N007010015019N0036001N1+00111+00021102691ADDAY121999AY221999GA1071+001501071GF108991071061001501999999MA1999999102291MD1610221+9999MW1101REMSYN082AAXX  05141 10136 41236 80907 10011 20002 30229 40269 56022 71022 876// 333 87705;
0141101360999992006010514204+53767+008667FM-15+0032ETMN V0201001N00571001501CN0038001N1+00101+00001999999ADDGA1075+001501999GF107991999999999999999999MA1102611999999MW1101REMMET066ETMN 051420Z 10011KT 3800 BR BKN005 01/00 Q1026 YLO GRN TEMPO YLO;
0147101360999992006010514474+53767+008667FM-16+0032ETMN V0200901N00671002401CN0040001N1+00101+00001999999ADDGA1075+002401999GF107991999999999999999999MA1102611999999MW1101REMMET072SPECI ETMN 051447Z 09013KT 4000 BR BKN008 01/00 Q1026 GRN GRN TEMPO YLO;
0187101360999992006010515204+53767+008667FM-15+0032ETMN V0200901N00671004501CN0040001N1+00101+00001999999ADDGA1025+002701999GA2045+004501999GA3075+008401999GF107991999999999999999999MA1102611999999MW1101REMMET080ETMN 051520Z 09013KT 4000 BR FEW009 SCT015 BKN028 01/00 Q1026 GRN GRN TEMPO YLO;
0193101360999992006010516004+53767+008667FM-12+0032ETMN V0200901N00601002101CN0040001N1+00121+00001102641ADDAY121999AY221999GA1031+002701071GF107991071051002501999999MA1999999102241MD1710071+9999MW1101REMSYN088AAXX  05161 10136 41340 70906 10012 20000 30224 40264 57007 71022 875// 333 83709 87622;
0165101360999992006010516204+53767+008667FM-15+0032ETMN V0200901N00571002401CN0040001N1+00101+00001999999ADDGA1075+002401999GA2075+006001999GF107991999999999999999999MA1102611999999MW1101REMMET074ETMN 051620Z 09011KT 4000 BR BKN008 BKN020 01/M00 Q1026 GRN GRN TEMPO YLO;
0193101360999992006010517004+53767+008667FM-12+0032ETMN V0200901N007010024019N0040001N1+00101-00011102631ADDAY121999AY221999GA1061+002401071GF108991071051002501999999MA1999999102231MD1710061+9999MW1101REMSYN088AAXX  05171 10136 41340 80907 10010 21001 30223 40263 57006 71022 875// 333 86708 87613;
0152101360999992006010517204+53767+008667FM-15+0032ETMN V0200901N00721001201CN0033001N1+00101+00001999999ADDGA1075+001201999GF107991999999999999999999MA1102611999999MW1101MW2511REMMET071ETMN 051720Z 09014KT 3300 -DZ BR BKN004 01/M00 Q1026 YLO GRN TEMPO YLO;
0140101360999992006010518204+53767+008667FM-15+0032ETMN V0201001N00621002101CN0050001N1+00101+00001999999ADDGA1075+002101999GF107991999999999999999999MA1102511999999MW1101REMMET065ETMN 051820Z 10012KT 5000 BR BKN007 01/M00 Q1025 GRN FCST CANCEL;
0187101360999992006010519004+53767+008667FM-12+0032ETMN V0201001N006010021019N0050001N1+00061-00051102601ADDAY121999AY221999GA1071+002101071GF108991071061002501999999MA1999999102201MD1610041+9999MW1101REMSYN082AAXX  05191 10136 41350 81006 10006 21005 30220 40260 56004 71022 876// 333 87707;
0128101360999992006010519204+53767+008667FM-15+0032ETMN V0201001N00671002101CN0050001N1+00101-00101999999ADDGA1075+002101999GF107991999999999999999999MA1102511999999MW1101REMMET053ETMN 051920Z 10013KT 5000 BR BKN007 01/M01 Q1025 GRN;
0187101360999992006010520004+53767+008667FM-12+0032ETMN V0201001N006010027019N0070001N1+00051-00081102571ADDAY121999AY221999GA1071+002701071GF108991071061002501999999MA1999999102171MD1710061+9999MW1101REMSYN082AAXX  05201 10136 41357 81006 10005 21008 30217 40257 57006 71022 876// 333 87709;
0119101360999992006010520204+53767+008667FM-15+0032ETMN V0201001N00571002701CN0070001N1+00001-00101999999ADDGA1075+002701999GF107991999999999999999999MA1102511999999REMMET050ETMN 052020Z 10011KT 7000 BKN009 00/M01 Q1025 GRN;
0119101360999992006010521204+53767+008667FM-15+0032ETMN V0201001N00511002701CN0070001N1+00001-00101999999ADDGA1075+002701999GF107991999999999999999999MA1102511999999REMMET050ETMN 052120Z 10010KT 7000 BKN009 00/M01 Q1025 GRN;
0193101360999992006010522004+53767+008667FM-12+0032ETMN V0201001N00501001201CN0050001N1+00011-00081102571ADDAY121999AY221999GA1031+001501071GF108991081071001501999999MA1999999102171MD1610031+9999MW1711REMSYN088AAXX  05221 10136 41250 81005 10001 21008 30217 40257 56003 77122 887// 333 83705 88709;
0116101360999992006010522204+53767+008667FM-15+0032ETMN V0201001N004610051059N0070001N1+00001-00101999999ADDGA1045+002705999GA2075+005105999MA1102501999999REMMET057ETMN 052220Z 10009KT 7000 SCT009 BKN017 00/M01 Q1025 WHT;
0193101360999992006010523004+53767+008667FM-12+0032ETMN V0201101N00601001201CN0080001N1+00031-00131102581ADDAY121999AY221999GA1021+001501071GF107991071051001501999999MA1999999102181MD1310011+9999MW1231REMSYN088AAXX  05231 10136 41258 71106 10003 21013 30218 40258 53001 72322 875// 333 82705 87617;
0119101360999992006010523204+53767+008667FM-15+0032ETMN V0201201N00621003901CN0080001N1+00001-00201999999ADDGA1075+003901999GF107991999999999999999999MA1102511999999REMMET050ETMN 052320Z 12012KT 8000 BKN013 00/M02 Q1025 GRN;
0119101360999992006010600204+53767+008667FM-15+0032ETMN V0201101N00571003901CN0080001N1+00001-00201999999ADDGA1075+003901999GF107991999999999999999999MA1102511999999REMMET050ETMN 060020Z 11011KT 8000 BKN013 00/M02 Q1025 GRN;
0159101360999992006010601004+53767+008667FM-12+0032ETMN V0201201N004010036019N0080001N1+00001-00181102581ADDGA1071+003601061GF107991071051004501999999MA1999999102181MD1110011+9999REMSYN076AAXX  06011 10136 42458 71204 10000 21018 30218 40258 51001 875// 333 87612;
0120101360999992006010601204+53767+008667FM-15+0032ETMN V0201201N00511003901CN0090001N1+00001-00201999999ADDGA1075+003901999GF107991999999999999999999MA1102511999999REMMET051ETMN 060120Z 12010KT 9000 BKN013 M00/M02 Q1025 GRN;
0159101360999992006010602004+53767+008667FM-12+0032ETMN V0201101N005010036019N0090001N1-00011-00211102581ADDGA1071+003601061GF107991071051004501999999MA1999999102181MD1410001+9999REMSYN076AAXX  06021 10136 42459 71105 11001 21021 30218 40258 54000 875// 333 87612;
0120101360999992006010602204+53767+008667FM-15+0032ETMN V0201201N00571003901CN0090001N1+00001-00201999999ADDGA1075+003901999GF107991999999999999999999MA1102511999999REMMET051ETMN 060220Z 12011KT 9000 BKN013 M00/M02 Q1025 GRN;
0124101360999992006010603204+53767+008667FM-15+0032ETMN V0201101N00511003601CN0090001N1+00001-00201999999ADDGA1075+003601999GF107991999999999999999999MA1102511999999REMMET055ETMN 060320Z 11010KT 9000 BKN012 M00/M02 Q1025 GRN GRN;
0159101360999992006010604004+53767+008667FM-12+0032ETMN V0201101N005010030019N0080001N1-00031-00211102581ADDGA1071+003001071GF108991071061004501999999MA1999999102181MD1510001+9999REMSYN076AAXX  06041 10136 42458 81105 11003 21021 30218 40258 55000 876// 333 87710;
0134101360999992006010604204+53767+008667FM-15+0032ETMN V0201101N00511003301CN0080001N1+00001-00201999999ADDGA1075+003301999GF107991999999999999999999MA1102511999999MW1711REMMET059ETMN 060420Z 11010KT 8000 -SN BKN011 M00/M02 Q1025 GRN GRN;
0187101360999992006010605004+53767+008667FM-12+0032ETMN V0201001N005010030019N0080001N1-00031-00211102591ADDAY171999AY221999GA1071+003001071GF108991071061004501999999MA1999999102191MD1310011+9999MW1771REMSYN082AAXX  06051 10136 41458 81005 11003 21021 30219 40259 53001 77772 876// 333 87710;
0134101360999992006010605204+53767+008667FM-15+0032ETMN V0201101N00511003001CN0080001N1+00001-00201999999ADDGA1075+003001999GF107991999999999999999999MA1102511999999MW1771REMMET059ETMN 060520Z 11010KT 8000 -SG BKN010 M00/M02 Q1025 GRN GRN;
0130101360999992006010606204+53767+008667FM-15+0032ETMN V0201001N00511003301CN0070001N1+00001-00201999999ADDGA1075+003301999GF107991999999999999999999MA1102611999999REMMET061METAR ETMN 060620Z 10010KT 7000 BKN011 M00/M02 Q1026 GRN GRN;
0187101360999992006010607004+53767+008667FM-12+0032ETMN V0200901N006010027019N0070001N1-00051-00221102621ADDAY121011AY221011GA1071+002701071GF108991071061002501999999MA1999999102221MD1210041+9999MW1201REMSYN082AAXX  06071 10136 41357 80906 11005 21022 30222 40262 52004 72022 876// 333 87709;
0124101360999992006010607204+53767+008667FM-15+0032ETMN V0200901N00621002701CN0060001N1+00001-00201999999ADDGA1075+002701999GF107991999999999999999999MA1102611999999REMMET055ETMN 060720Z 09012KT 6000 BKN009 M00/M02 Q1026 GRN GRN;
0143101360999992006010607324+53767+008667FM-16+0032ETMN V0200901N00571001801CN0045001N1+00001-00201999999ADDGA1075+001801999GF107991999999999999999999MA1102611999999MW1101REMMET068ETMN 060732Z 09011KT 4500 BR BKN006 M00/M02 Q1026 YLO GRN TEMPO YLO;
0187101360999992006010608004+53767+008667FM-12+0032ETMN V0200901N006010018019N0040001N1-00051-00151102681ADDAY121999AY221999GA1071+001801071GF108991071061002501999999MA1999999102281MD1210091+9999MW1101REMSYN082AAXX  06081 10136 41340 80906 11005 21015 30228 40268 52009 71022 876// 333 87706;
0143101360999992006010608204+53767+008667FM-15+0032ETMN V0200901N00621001501CN0035001N1-00101-00201999999ADDGA1075+001501999GF107991999999999999999999MA1102711999999MW1101REMMET068ETMN 060820Z 09012KT 3500 BR BKN005 M01/M02 Q1027 YLO GRN TEMPO YLO;
0143101360999992006010609204+53767+008667FM-15+0032ETMN V0200901N00671001201CN0035001N1-00101-00201999999ADDGA1075+001201999GF107991999999999999999999MA1102711999999MW1101REMMET068ETMN 060920Z 09013KT 3500 BR BKN004 M01/M02 Q1027 YLO GRN TEMPO YLO;
0139101360999992006010609574+53767+008667FM-16+0032ETMN V0201001N00671000901CN0025001N1-00101-00201999999ADDGA1075+000901999GF107991999999999999999999MA1102711999999MW1101REMMET064SPECI ETMN 060957Z 10013KT 2500 BR BKN003 M01/M02 Q1027 YLO YLO;
0187101360999992006010610004+53767+008667FM-12+0032ETMN V0201001N006010009019N0028001N1-00091-00141102781ADDAY121011AY221011GA1081+000901071GF108991081061001501999999MA1999999102381MD1210161+9999MW1101REMSYN082AAXX  06101 10136 41228 81006 11009 21014 30238 40278 52016 71022 886// 333 88703;
0133101360999992006010610204+53767+008667FM-15+0032ETMN V0200901N00571000901CN0020001N1-00101-00101999999ADDGA1075+000901999GF107991999999999999999999MA1102711999999MW1101REMMET058ETMN 061020Z 09011KT 2000 BR BKN003 M01/M01 Q1027 YLO YLO;
0187101360999992006010611004+53767+008667FM-12+0032ETMN V0201001N005010009019N0025001N1-00101-00141102791ADDAY121999AY221999GA1081+000901071GF108991081061001501999999MA1999999102391MD1210111+9999MW1101REMSYN082AAXX  06111 10136 41225 81005 11010 21014 30239 40279 52011 71022 886// 333 88703;
0133101360999992006010611204+53767+008667FM-15+0032ETMN V0201001N00571000901CN0032001N1-00101-00101999999ADDGA1075+000901999GF107991999999999999999999MA1102711999999MW1101REMMET058ETMN 061120Z 10011KT 3200 BR BKN003 M01/M01 Q1027 YLO YLO;
0133101360999992006010612204+53767+008667FM-15+0032ETMN V0200901N00571000901CN0030001N1-00101-00101999999ADDGA1075+000901999GF107991999999999999999999MA1102711999999MW1101REMMET058ETMN 061220Z 09011KT 3000 BR BKN003 M01/M01 Q1027 YLO YLO;
0187101360999992006010613004+53767+008667FM-12+0032ETMN V0200901N006010012019N0030001N1-00111-00141102811ADDAY121999AY221999GA1081+001201071GF108991081061001501999999MA1999999102411MD1110031+9999MW1101REMSYN082AAXX  06131 10136 41230 80906 11011 21014 30241 40281 51003 71022 886// 333 88704;
0141101360999992006010613204+53767+008667FM-15+0032ETMN V0200901N00621001201CN0030001N1-00101-00201999999ADDGA1085+001201999GF108991999999999999999999MA1102711999999MW1101REMMET066ETMN 061320Z 09012KT 3000 BR OVC004 M01/M02 Q1027 YLO FCST CANCEL;
0187101360999992006010614004+53767+008667FM-12+0032ETMN V0201001N006010012019N0030001N1-00131-00181102811ADDAY121999AY221999GA1081+001201071GF108991081061001501999999MA1999999102411MD1110021+9999MW1101REMSYN082AAXX  06141 10136 41230 81006 11013 21018 30241 40281 51002 71022 886// 333 88704;
0129101360999992006010615204+53767+008667FM-15+0032ETMN V0201001N00461001201CN0030001N1-00101-00201999999ADDGA1085+001201999GF108991999999999999999999MA1102711999999MW1101REMMET054ETMN 061520Z 10009KT 3000 BR OVC004 M01/M02 Q1027 YLO;
0187101360999992006010616004+53767+008667FM-12+0032ETMN V0201001N005010009019N0040001N1-00151-00191102851ADDAY121999AY221999GA1081+000901071GF108991081061001501999999MA1999999102441MD1210031+9999MW1101REMSYN082AAXX  06161 10136 41240 81005 11015 21019 30244 40285 52003 71022 886// 333 88703;
0129101360999992006010616204+53767+008667FM-15+0032ETMN V0201001N00571000901CN0040001N1-00201-00201999999ADDGA1085+000901999GF108991999999999999999999MA1102811999999MW1101REMMET054ETMN 061620Z 10011KT 4000 BR OVC003 M02/M02 Q1028 YLO;
0187101360999992006010617004+53767+008667FM-12+0032ETMN V0201001N006010009019N0040001N1-00161-00201102871ADDAY121999AY221999GA1081+000901071GF108991081061001501999999MA1999999102461MD1210051+9999MW1101REMSYN082AAXX  06171 10136 41240 81006 11016 21020 30246 40287 52005 71022 886// 333 88703;
0129101360999992006010617204+53767+008667FM-15+0032ETMN V0201101N00571000901CN0050001N1-00201-00201999999ADDGA1085+000901999GF108991999999999999999999MA1102811999999MW1101REMMET054ETMN 061720Z 11011KT 5000 BR OVC003 M02/M02 Q1028 YLO;
0129101360999992006010618204+53767+008667FM-15+0032ETMN V0201001N00511000901CN0050001N1-00201-00201999999ADDGA1085+000901999GF108991999999999999999999MA1102911999999MW1101REMMET054ETMN 061820Z 10010KT 5000 BR OVC003 M02/M02 Q1029 YLO;
0187101360999992006010619004+53767+008667FM-12+0032ETMN V0201001N005010012019N0050001N1-00171-00211102961ADDAY121999AY221999GA1081+001201071GF108991081061001501999999MA1999999102551MD1210111+9999MW1101REMSYN082AAXX  06191 10136 41250 81005 11017 21021 30255 40296 52011 71022 886// 333 88704;
0129101360999992006010619204+53767+008667FM-15+0032ETMN V0201101N00461000901CN0040001N1-00201-00201999999ADDGA1085+000901999GF108991999999999999999999MA1102911999999MW1101REMMET054ETMN 061920Z 11009KT 4000 BR OVC003 M02/M02 Q1029 YLO;
0187101360999992006010620004+53767+008667FM-12+0032ETMN V0201201N005010015019N0040001N1-00161-00231102981ADDAY121999AY221999GA1081+001501071GF108991081061001501999999MA1999999102571MD1210111+9999MW1101REMSYN082AAXX  06201 10136 41240 81205 11016 21023 30257 40298 52011 71022 886// 333 88705;
0129101360999992006010620204+53767+008667FM-15+0032ETMN V0201201N00461002101CN0045001N1-00201-00201999999ADDGA1075+002101999GF107991999999999999999999MA1102911999999MW1101REMMET054ETMN 062020Z 12009KT 4500 BR BKN007 M02/M02 Q1029 GRN;
0129101360999992006010621204+53767+008667FM-15+0032ETMN V0201001N00461001801CN0045001N1-00201-00201999999ADDGA1075+001801999GF107991999999999999999999MA1102911999999MW1101REMMET054ETMN 062120Z 10009KT 4500 BR BKN006 M02/M02 Q1029 YLO;
0187101360999992006010622004+53767+008667FM-12+0032ETMN V0201201N006010018019N0045001N1-00171-00271103001ADDAY121999AY221999GA1071+001801071GF108991071061002501999999MA1999999102591MD1210041+9999MW1101REMSYN082AAXX  06221 10136 41345 81206 11017 21027 30259 40300 52004 71022 876// 333 87706;
0129101360999992006010622204+53767+008667FM-15+0032ETMN V0201101N00621001801CN0045001N1-00201-00301999999ADDGA1075+001801999GF107991999999999999999999MA1102911999999MW1101REMMET054ETMN 062220Z 11012KT 4500 BR BKN006 M02/M03 Q1029 YLO;
0187101360999992006010623004+53767+008667FM-12+0032ETMN V0201101N006010018019N0050001N1-00181-00281102991ADDAY121999AY221999GA1081+001801071GF108991081061002501999999MA1999999102581MD1210011+9999MW1101REMSYN082AAXX  06231 10136 41350 81106 11018 21028 30258 40299 52001 71022 886// 333 88706;
0129101360999992006010623204+53767+008667FM-15+0032ETMN V0201201N00621002101CN0050001N1-00201-00301999999ADDGA1075+002101999GF107991999999999999999999MA1102911999999MW1101REMMET054ETMN 062320Z 12012KT 5000 BR BKN007 M02/M03 Q1029 GRN;
0120101360999992006010700204+53767+008667FM-15+0032ETMN V0201201N00461002401CN0060001N1-00101-00301999999ADDGA1075+002401999GF107991999999999999999999MA1102911999999REMMET051ETMN 070020Z 12009KT 6000 BKN008 M01/M03 Q1029 GRN;
0187101360999992006010701004+53767+008667FM-12+0032ETMN V0201201N004010027019N0070001N1-00101-00231103001ADDAY121999AY221999GA1071+002701071GF108991071061002501999999MA1999999102591MD1510001+9999MW1101REMSYN082AAXX  07011 10136 41357 81204 11010 21023 30259 40300 55000 71022 876// 333 87709;
0120101360999992006010701204+53767+008667FM-15+0032ETMN V0201201N00461003001CN0070001N1-00101-00301999999ADDGA1075+003001999GF107991999999999999999999MA1102911999999REMMET051ETMN 070120Z 12009KT 7000 BKN010 M01/M03 Q1029 GRN;
0159101360999992006010702004+53767+008667FM-12+0032ETMN V0201201N006010030019N0080001N1-00071-00241103001ADDGA1071+003001071GF108991071061004501999999MA1999999102601MD1310021+9999REMSYN076AAXX  07021 10136 42458 81206 11007 21024 30260 40300 53002 876// 333 87710;
0120101360999992006010702204+53767+008667FM-15+0032ETMN V0201201N00511003001CN0080001N1-00101-00201999999ADDGA1075+003001999GF107991999999999999999999MA1103011999999REMMET051ETMN 070220Z 12010KT 8000 BKN010 M01/M02 Q1030 GRN;
0120101360999992006010703204+53767+008667FM-15+0032ETMN V0201101N00571003001CN0080001N1+00001-00201999999ADDGA1075+003001999GF107991999999999999999999MA1103011999999REMMET051ETMN 070320Z 11011KT 8000 BKN010 M00/M02 Q1030 GRN;
0159101360999992006010704004+53767+008667FM-12+0032ETMN V0201201N005010030019N0080001N1-00051-00211103011ADDGA1071+003001071GF108991071061004501999999MA1999999102611MD1110021+9999REMSYN076AAXX  07041 10136 42458 81205 11005 21021 30261 40301 51002 876// 333 87710;
0120101360999992006010704204+53767+008667FM-15+0032ETMN V0201201N00461003001CN0080001N1+00001-00201999999ADDGA1075+003001999GF107991999999999999999999MA1103011999999REMMET051ETMN 070420Z 12009KT 8000 BKN010 M00/M02 Q1030 GRN;
0159101360999992006010705004+53767+008667FM-12+0032ETMN V0201201N005010033019N0080001N1-00041-00221103041ADDGA1071+003301071GF107991071061004501999999MA1999999102641MD1310041+9999REMSYN076AAXX  07051 10136 42458 71205 11004 21022 30264 40304 53004 876// 333 87711;
0120101360999992006010705204+53767+008667FM-15+0032ETMN V0201201N00511003301CN0080001N1+00001-00201999999ADDGA1075+003301999GF107991999999999999999999MA1103011999999REMMET051ETMN 070520Z 12010KT 8000 BKN011 M00/M02 Q1030 GRN;
0120101360999992006010706204+53767+008667FM-15+0032ETMN V0201101N00461004801CN0090001N1+00001-00201999999ADDGA1075+004801999GF107991999999999999999999MA1103011999999REMMET051ETMN 070620Z 11009KT 9000 BKN016 M00/M02 Q1030 WHT;
0159101360999992006010707004+53767+008667FM-12+0032ETMN V0201101N004010060019N0090001N1-00021-00231103081ADDGA1071+006001061GF108991071051008001999999MA1999999102681MD1210071+9999REMSYN076AAXX  07071 10136 42559 81104 11002 21023 30268 40308 52007 875// 333 87620;
0143101360999992006010707204+53767+008667FM-15+0032ETMN V0201101N00311003301CN0060001N1+00001-00201999999ADDGA1075+003301999GA2075+007201999GF107991999999999999999999MA1103011999999REMMET058ETMN 070720Z 11006KT 6000 BKN011 BKN024 M00/M02 Q1030 GRN;
0187101360999992006010708004+53767+008667FM-12+0032ETMN V0201101N004010030019N0050001N1-00021-00191103111ADDAY121999AY221999GA1071+003001071GF108991071061004501999999MA1999999102711MD1310071+9999MW1101REMSYN082AAXX  07081 10136 41450 81104 11002 21019 30271 40311 53007 71022 876// 333 87710;
0129101360999992006010708094+53767+008667FM-16+0032ETMN V0201101N00361002701CN0040001N1+00001-00201999999ADDGA1075+002701999GF107991999999999999999999MA1103121999999MW1101REMMET054ETMN 070809Z 11007KT 4000 BR BKN009 M00/M02 Q1031 GRN;
0129101360999992006010708204+53767+008667FM-15+0032ETMN V0201101N00361002701CN0040001N1+00001-00201999999ADDGA1075+002701999GF107991999999999999999999MA1103121999999MW1101REMMET054ETMN 070820Z 11007KT 4000 BR BKN009 M00/M02 Q1031 GRN;
0152101360999992006010709204+53767+008667FM-15+0032ETMN V0201201N00571004201CN0050001N1+00001-00201999999ADDGA1045+003001999GA2075+004201999GF107991999999999999999999MA1103121999999MW1101REMMET061ETMN 070920Z 12011KT 5000 BR SCT010 BKN014 M00/M02 Q1031 GRN;
0158101360999992006010709364+53767+008667FM-16+0032ETMN V0201201N00461004801CN0050001N1+00001-00201999999ADDGA1045+003301999GA2075+004801999GF107991999999999999999999MA1103121999999MW1101REMMET067SPECI ETMN 070936Z 12009KT 5000 BR SCT011 BKN016 M00/M02 Q1031 WHT;
0162101360999992006010709504+53767+008667FM-15+0032ETMN V0201201N00511003301CN0040001N1+00001-00201999999ADDGA1075+003301999GA2075+005401999GF107991999999999999999999MA1103121999999MW1101MW2711REMMET065ETMN 070950Z 12010KT 4000 -SN BR BKN011 BKN018 M00/M02 Q1031 GRN;
0193101360999992006010710004+53767+008667FM-12+0032ETMN V0201201N005010033019N0040001N1-00031-00221103171ADDAY121011AY221011GA1051+003301071GF108991071051004501999999MA1999999102771MD1210091+9999MW1711REMSYN088AAXX  07101 10136 41440 81205 11003 21022 30277 40317 52009 77122 875// 333 85711 87618;
0168101360999992006010710014+53767+008667FM-16+0032ETMN V0201201N00571003301CN0035001N1+00001-00201999999ADDGA1075+003301999GA2075+006601999GF107991999999999999999999MA1103121999999MW1101MW2711REMMET071SPECI ETMN 071001Z 12011KT 3500 -SN BR BKN011 BKN022 M00/M02 Q1031 YLO;
0139101360999992006010710064+53767+008667FM-16+0032ETMN V0201201N00571002701CN0025001N1-00101-00201999999ADDGA1075+002701999GF107991999999999999999999MA1103121999999MW1101MW2711REMMET058ETMN 071006Z 12011KT 2500 -SN BR BKN009 M01/M02 Q1031 YLO;
0164101360999992006010710204+53767+008667FM-15+0032ETMN V0201201N00411001501CN0020001N1-00101-00201999999ADDED108U19009GA1075+001501999GF107991999999999999999999MA1103121999999MW1101MW2711REMMET072ETMN 071020Z 12008KT 2000 R08/1900N -SN BR BKN005 M01/M02 Q1031 YLO YLO;
0170101360999992006010710574+53767+008667FM-16+0032ETMN V0201101N00461001801CN0017001N1-00101-00201999999ADDED108U15009GA1075+001801999GF107991999999999999999999MA1103121999999MW1101MW2711REMMET078SPECI ETMN 071057Z 11009KT 1700 R08/1500N -SN BR BKN006 M01/M02 Q1031 YLO YLO;
0187101360999992006010711004+53767+008667FM-12+0032ETMN V0201101N005010015019N0020001N1-00071-00161103171ADDAY171999AY271999GA1071+001501071GF108991071071001501999999MA1999999102761MD1010051+9999MW1711REMSYN082AAXX  07111 10136 41220 81105 11007 21016 30276 40317 50005 77177 877// 333 87705;
0172101360999992006010711204+53767+008667FM-15+0032ETMN V0201101N00461001801CN0018001N1-00101-00201999999ADDED108U18009GA1075+001801999GF107991999999999999999999MA1103121999999MW1101MW2711REMMET080ETMN 071120Z 11009KT 1800 R08/1800N -SN BR BKN006 M01/M02 Q1031 YLO FCST CANCEL;
0129101360999992006010711444+53767+008667FM-16+0032ETMN V0201101N00361002101CN0030001N1-00101-00201999999ADDGA1075+002101999GF107991999999999999999999MA1103121999999MW1101REMMET054ETMN 071144Z 11007KT 3000 BR BKN007 M01/M02 Q1031 YLO;
0129101360999992006010712204+53767+008667FM-15+0032ETMN V0201101N00361002101CN0037001N1-00101-00201999999ADDGA1075+002101999GF107991999999999999999999MA1103121999999MW1101REMMET054ETMN 071220Z 11007KT 3700 BR BKN007 M01/M02 Q1031 GRN;
0187101360999992006010713004+53767+008667FM-12+0032ETMN V0201201N005010021019N0040001N1-00081-00191103151ADDAY121999AY221999GA1071+002101071GF108991071071002501999999MA1999999102741MD1810031+9999MW1101REMSYN082AAXX  07131 10136 41340 81205 11008 21019 30274 40315 58003 71022 877// 333 87707;
0141101360999992006010713204+53767+008667FM-15+0032ETMN V0201101N00361001801CN0035001N1-00101-00201999999ADDGA1075+001801999GF107991999999999999999999MA1103121999999MW1101MW2561REMMET060ETMN 071320Z 11007KT 3500 -FZDZ BR BKN006 M01/M02 Q1031 YLO;
0229101360999992006010714004+53767+008667FM-12+0032ETMN V0201201N004010018019N0035001N1-00091-00181103151ADDAY121999AY221999GA1071+001801071GF108991071071002501999999MA1999999102741MD1810021+9999MW1241REMSYN124AAXX  07141 10136 41335 81204 11009 21018 30274 40315 58002 72422 877// 333 87706 555 BOT 10008 20013 30018 40034 999 46///;
0136101360999992006010714204+53767+008667FM-15+0032ETMN V0201101N00361002101CN0037001N1-00101-00201999999ADDGA1075+002101999GF107991999999999999999999MA1103121999999MW1101REMMET061ETMN 071420Z 11007KT 3700 BR BKN007 M01/M02 Q1031 REFZDZ GRN;
0129101360999992006010715204+53767+008667FM-15+0032ETMN V0201101N00361002401CN0037001N1-00101-00201999999ADDGA1075+002401999GF107991999999999999999999MA1103121999999MW1101REMMET054ETMN 071520Z 11007KT 3700 BR BKN008 M01/M02 Q1031 GRN;
0187101360999992006010716004+53767+008667FM-12+0032ETMN V0201201N004010024019N0037001N1-00071-00191103181ADDAY121999AY221999GA1071+002401071GF108991071061002501999999MA1999999102771MD1310031+9999MW1101REMSYN082AAXX  07161 10136 41337 81204 11007 21019 30277 40318 53003 71022 876// 333 87708;
0129101360999992006010716204+53767+008667FM-15+0032ETMN V0201101N00311002401CN0037001N1-00101-00201999999ADDGA1075+002401999GF107991999999999999999999MA1103121999999MW1101REMMET054ETMN 071620Z 11006KT 3700 BR BKN008 M01/M02 Q1031 GRN;
0187101360999992006010717004+53767+008667FM-12+0032ETMN V0201001N003010021019N0045001N1-00071-00181103211ADDAY121999AY221999GA1071+002101071GF108991071061002501999999MA1999999102801MD1310061+9999MW1101REMSYN082AAXX  07171 10136 41345 81003 11007 21018 30280 40321 53006 71022 876// 333 87707;
0129101360999992006010717204+53767+008667FM-15+0032ETMN V0201001N00361002101CN0045001N1-00101-00201999999ADDGA1075+002101999GF107991999999999999999999MA1103181999999MW1101REMMET054ETMN 071720Z 10007KT 4500 BR BKN007 M01/M02 Q1032 GRN;
0139101360999992006010718204+53767+008667FM-15+0032ETMN V0201101N00411002101CN0040001N1-00101-00201999999ADDGA1075+002101999GF107991999999999999999999MA1103181999999MW1101MW2511REMMET058ETMN 071820Z 11008KT 4000 -DZ BR BKN007 M01/M02 Q1032 GRN;
0139101360999992006010718304+53767+008667FM-15+0032ETMN V0201101N00361001501CN0030001N1-00101-00201999999ADDGA1075+001501999GF107991999999999999999999MA1103181999999MW1101MW2511REMMET058ETMN 071830Z 11007KT 3000 -DZ BR BKN005 M01/M02 Q1032 YLO;
0187101360999992006010719004+53767+008667FM-12+0032ETMN V0201101N004010015019N0035001N1-00091-00161103211ADDAY151999AY221999GA1071+001501071GF108991071071001501999999MA1999999102801MD1110031+9999MW1501REMSYN082AAXX  07191 10136 41235 81104 11009 21016 30280 40321 51003 75052 877// 333 87705;
0129101360999992006010719204+53767+008667FM-15+0032ETMN V0201101N00361002401CN0045001N1-00101-00101999999ADDGA1075+002401999GF107991999999999999999999MA1103121999999MW1101REMMET054ETMN 071920Z 11007KT 4500 BR BKN008 M01/M01 Q1031 GRN;
0187101360999992006010720004+53767+008667FM-12+0032ETMN V0201201N004010024019N0040001N1-00061-00161103211ADDAY151999AY221999GA1071+002401071GF108991071061002501999999MA1999999102801MD1410001+9999MW1201REMSYN082AAXX  07201 10136 41340 81204 11006 21016 30280 40321 54000 72052 876// 333 87708;
0129101360999992006010720204+53767+008667FM-15+0032ETMN V0201101N00411002101CN0050001N1+00001-00201999999ADDGA1085+002101999GF108991999999999999999999MA1103121999999MW1101REMMET054ETMN 072020Z 11008KT 5000 BR OVC007 M00/M02 Q1031 GRN;
0129101360999992006010721204+53767+008667FM-15+0032ETMN V0201001N00411002101CN0050001N1+00001-00201999999ADDGA1085+002101999GF108991999999999999999999MA1103121999999MW1101REMMET054ETMN 072120Z 10008KT 5000 BR OVC007 M00/M02 Q1031 GRN;
0187101360999992006010722004+53767+008667FM-12+0032ETMN V0201101N004010021019N0050001N1-00051-00171103221ADDAY121999AY221999GA1081+002101071GF108991081061002501999999MA1999999102811MD1310011+9999MW1101REMSYN082AAXX  07221 10136 41350 81104 11005 21017 30281 40322 53001 71022 886// 333 88707;
0135101360999992006010722074+53767+008667FM-16+0032ETMN V0201001N00411001801CN0050001N1+00001-00201999999ADDGA1085+001801999GF108991999999999999999999MA1103121999999MW1101REMMET060SPECI ETMN 072207Z 10008KT 5000 BR OVC006 M00/M02 Q1031 YLO;
0129101360999992006010722204+53767+008667FM-15+0032ETMN V0201101N00571001501CN0050001N1-00101-00201999999ADDGA1085+001501999GF108991999999999999999999MA1103181999999MW1101REMMET054ETMN 072220Z 11011KT 5000 BR OVC005 M01/M02 Q1032 YLO;
0187101360999992006010723004+53767+008667FM-12+0032ETMN V0201101N005010012019N0050001N1-00081-00151103221ADDAY121999AY221999GA1081+001201071GF108991081061001501999999MA1999999102811MD1310011+9999MW1101REMSYN082AAXX  07231 10136 41250 81105 11008 21015 30281 40322 53001 71022 886// 333 88704;
0141101360999992006010723204+53767+008667FM-15+0032ETMN V0201101N00461000901CN0045001N1-00101-00201999999ADDGA1075+000901999GF107991999999999999999999MA1103181999999MW1101MW2561REMMET060ETMN 072320Z 11009KT 4500 -FZDZ BR BKN003 M01/M02 Q1032 YLO;
0141101360999992006010800094+53767+008667FM-16+0032ETMN V0201001N00461000601CN0040001N1-00101-00101999999ADDGA1075+000601999GF107991999999999999999999MA1103181999999MW1101MW2561REMMET060ETMN 080009Z 10009KT 4000 -FZDZ BR BKN002 M01/M01 Q1032 AMB;
0141101360999992006010800204+53767+008667FM-15+0032ETMN V0201101N00361000601CN0036001N1-00101-00101999999ADDGA1075+000601999GF107991999999999999999999MA1103121999999MW1101MW2561REMMET060ETMN 080020Z 11007KT 3600 -FZDZ BR BKN002 M01/M01 Q1031 AMB;
0187101360999992006010801004+53767+008667FM-12+0032ETMN V0201101N005010006019N0032001N1-00121-00121103201ADDAY151999AY251999GA1071+000601071GF108991071071000751999999MA1999999102791MD1810021+9999MW1561REMSYN082AAXX  08011 10136 41132 81105 11012 21012 30279 40320 58002 75655 877// 333 87702;
0136101360999992006010801204+53767+008667FM-15+0032ETMN V0201201N00461001201CN0045001N1-00101-00101999999ADDGA1075+001201999GF107991999999999999999999MA1103181999999MW1101REMMET061ETMN 080120Z 12009KT 4500 BR BKN004 M01/M01 Q1032 REFZDZ YLO;
0129101360999992006010801364+53767+008667FM-16+0032ETMN V0201101N00511001201CN0050001N1-00101-00101999999ADDGA1085+001201999GF108991999999999999999999MA1103181999999MW1101REMMET054ETMN 080136Z 11010KT 5000 BR OVC004 M01/M01 Q1032 YLO;
0187101360999992006010802004+53767+008667FM-12+0032ETMN V0201201N005010012019N0060001N1-00151-00191103221ADDAY151999AY221999GA1081+001201071GF108991081061001501999999MA1999999102811MD1510001+9999MW1241REMSYN082AAXX  08021 10136 41256 81205 11015 21019 30281 40322 55000 72452 886// 333 88704;
0129101360999992006010802204+53767+008667FM-15+0032ETMN V0201201N00511000901CN0050001N1-00101-00101999999ADDGA1085+000901999GF108991999999999999999999MA1103181999999MW1101REMMET054ETMN 080220Z 12010KT 5000 BR OVC003 M01/M01 Q1032 YLO;
0129101360999992006010803204+53767+008667FM-15+0032ETMN V0201101N00621000901CN0040001N1-00201-00201999999ADDGA1085+000901999GF108991999999999999999999MA1103121999999MW1101REMMET054ETMN 080320Z 11012KT 4000 BR OVC003 M02/M02 Q1031 YLO;
0187101360999992006010804004+53767+008667FM-12+0032ETMN V0201101N004010009019N0040001N1-00151-00181103171ADDAY121999AY221999GA1081+000901071GF108991081061001501999999MA1999999102761MD1810031+9999MW1101REMSYN082AAXX  08041 10136 41240 81104 11015 21018 30276 40317 58003 71022 886// 333 88703;
0129101360999992006010804204+53767+008667FM-15+0032ETMN V0201001N00461001201CN0045001N1-00201-00201999999ADDGA1085+001201999GF108991999999999999999999MA1103121999999MW1101REMMET054ETMN 080420Z 10009KT 4500 BR OVC004 M02/M02 Q1031 YLO;
0187101360999992006010805004+53767+008667FM-12+0032ETMN V0201001N005010015019N0045001N1-00201-00301103151ADDAY121999AY221999GA1081+001501071GF108991081061001501999999MA1999999102741MD1710071+9999MW1101REMSYN082AAXX  08051 10136 41245 81005 11020 21030 30274 40315 57007 71022 886// 333 88705;
0135101360999992006010805024+53767+008667FM-16+0032ETMN V0201001N00571001801CN0060001N1-00201-00301999999ADDGA1075+001801999GF107991999999999999999999MA1103121999999MW1101REMMET060SPECI ETMN 080502Z 10011KT 6000 BR BKN006 M02/M03 Q1031 YLO;
0120101360999992006010805204+53767+008667FM-15+0032ETMN V0201201N00461002401CN0060001N1-00201-00301999999ADDGA1075+002401999GF107991999999999999999999MA1103121999999REMMET051ETMN 080520Z 12009KT 6000 BKN008 M02/M03 Q1031 GRN;
0120101360999992006010806204+53767+008667FM-15+0032ETMN V0201201N00361002401CN0060001N1-00301-00401999999ADDGA1075+002401999GF107991999999999999999999MA1103121999999REMMET051ETMN 080620Z 12007KT 6000 BKN008 M03/M04 Q1031 GRN;
0187101360999992006010807004+53767+008667FM-12+0032ETMN V0201301N004010033019N0060001N1-00271-00411103211ADDAY121999AY221999GA1071+003301061GF108991071051004501999999MA1999999102801MD1310041+9999MW1101REMSYN082AAXX  08071 10136 41456 81304 11027 21041 30280 40321 53004 71022 875// 333 87611;
0129101360999992006010807204+53767+008667FM-15+0032ETMN V0201101N00461003301CN0048001N1-00301-00501999999ADDGA1075+003301999GF107991999999999999999999MA1103121999999MW1101REMMET054ETMN 080720Z 11009KT 4800 BR BKN011 M03/M05 Q1031 GRN;
0187101360999992006010808004+53767+008667FM-12+0032ETMN V0201201N004010033019N0048001N1-00301-00481103231ADDAY121999AY221999GA1071+003301061GF108991071051004501999999MA1999999102821MD1310081+9999MW1101REMSYN082AAXX  08081 10136 41448 81204 11030 21048 30282 40323 53008 71022 875// 333 87611;
0129101360999992006010808204+53767+008667FM-15+0032ETMN V0201301N00461003301CN0045001N1-00301-00501999999ADDGA1075+003301999GF107991999999999999999999MA1103181999999MW1101REMMET054ETMN 080820Z 13009KT 4500 BR BKN011 M03/M05 Q1032 GRN;
0129101360999992006010809204+53767+008667FM-15+0032ETMN V0201301N00461003301CN0045001N1-00301-00501999999ADDGA1075+003301999GF107991999999999999999999MA1103181999999MW1101REMMET054ETMN 080920Z 13009KT 4500 BR BKN011 M03/M05 Q1032 GRN;
0187101360999992006010810004+53767+008667FM-12+0032ETMN V0201301N005010033019N0040001N1-00291-00471103281ADDAY121999AY221999GA1071+003301061GF108991071051004501999999MA1999999102871MD1210071+9999MW1101REMSYN082AAXX  08101 10136 41440 81305 11029 21047 30287 40328 52007 71022 875// 333 87611;
0129101360999992006010810204+53767+008667FM-15+0032ETMN V0201301N00461003001CN0040001N1-00301-00501999999ADDGA1075+003001999GF107991999999999999999999MA1103181999999MW1101REMMET054ETMN 081020Z 13009KT 4000 BR BKN010 M03/M05 Q1032 GRN;
0187101360999992006010811004+53767+008667FM-12+0032ETMN V0201401N005010030019N0040001N1-00291-00471103291ADDAY121999AY221999GA1081+003001071GF108991081061004501999999MA1999999102881MD1110061+9999MW1101REMSYN082AAXX  08111 10136 41440 81405 11029 21047 30288 40329 51006 71022 886// 333 88710;
0129101360999992006010811204+53767+008667FM-15+0032ETMN V0201301N00361003001CN0040001N1-00301-00401999999ADDGA1075+003001999GF107991999999999999999999MA1103181999999MW1101REMMET054ETMN 081120Z 13007KT 4000 BR BKN010 M03/M04 Q1032 GRN;
0129101360999992006010812204+53767+008667FM-15+0032ETMN V0201201N00361003001CN0045001N1-00201-00401999999ADDGA1075+003001999GF107991999999999999999999MA1103181999999MW1101REMMET054ETMN 081220Z 12007KT 4500 BR BKN010 M02/M04 Q1032 GRN;
0193101360999992006010813004+53767+008667FM-12+0032ETMN V0201301N004010027019N0040001N1-00191-00361103221ADDAY121999AY221999GA1061+002701071GF108991071051002501999999MA1999999102811MD1810061+9999MW1101REMSYN088AAXX  08131 10136 41340 81304 11019 21036 30281 40322 58006 71022 875// 333 86709 87622;
0135101360999992006010813204+53767+008667FM-15+0032ETMN V0201201N00411002701CN0040001N1-00201-00301999999ADDGA1075+002701999GF107991999999999999999999MA1103181999999MW1101REMMET060METAR ETMN 081320Z 12008KT 4000 BR BKN009 M02/M03 Q1032 GRN;
0229101360999992006010814004+53767+008667FM-12+0032ETMN V0201101N004010027019N0040001N1-00161-00321103221ADDAY121999AY221999GA1071+002701071GF108991071061002501999999MA1999999102811MD1610071+9999MW1101REMSYN124AAXX  08141 10136 41340 81104 11016 21032 30281 40322 56007 71022 876// 333 87709 555 BOT 10006 20012 30017 40033 999 46///;
0152101360999992006010814204+53767+008667FM-15+0032ETMN V0201101N00361003001CN0038001N1-00201-00301999999ADDGA1075+003001999GA2075+003901999GF107991999999999999999999MA1103121999999MW1101REMMET061ETMN 081420Z 11007KT 3800 BR BKN010 BKN013 M02/M03 Q1031 GRN;
0152101360999992006010815204+53767+008667FM-15+0032ETMN V0201201N00411003001CN0035001N1-00201-00401999999ADDGA1075+003001999GA2075+006901999GF107991999999999999999999MA1103181999999MW1101REMMET061ETMN 081520Z 12008KT 3500 BR BKN010 BKN023 M02/M04 Q1032 YLO;
0152101360999992006010815504+53767+008667FM-15+0032ETMN V0201101N00361006601CN0038001N1-00201-00401999999ADDGA1045+003601999GA2075+006601999GF107991999999999999999999MA1103181999999MW1101REMMET061ETMN 081550Z 11007KT 3800 BR SCT012 BKN022 M02/M04 Q1032 GRN;
0193101360999992006010816004+53767+008667FM-12+0032ETMN V0201201N00401004201CN0038001N1-00231-00391103221ADDAY121011AY221011GA1031+003601061GF107991071051004501999999MA1999999102811MD1010001+9999MW1101REMSYN088AAXX  08161 10136 41438 71204 11023 21039 30281 40322 50000 71022 875// 333 83612 86622;
0129101360999992006010816204+53767+008667FM-15+0032ETMN V0201101N00311006601CN0045001N1-00201-00401999999ADDGA1075+006601999GF107991999999999999999999MA1103181999999MW1101REMMET054ETMN 081620Z 11006KT 4500 BR BKN022 M02/M04 Q1032 GRN;
0193101360999992006010817004+53767+008667FM-12+0032ETMN V0201101N005010030019N0045001N1-00231-00391103231ADDAY121999AY221999GA1051+003001071GF107991071051004501999999MA1999999102821MD1010011+9999MW1101REMSYN088AAXX  08171 10136 41445 71105 11023 21039 30282 40323 50001 71022 875// 333 85710 86622;
0129101360999992006010817204+53767+008667FM-15+0032ETMN V0201101N00361003001CN0050001N1-00201-00401999999ADDGA1075+003001999GF107991999999999999999999MA1103181999999MW1101REMMET054ETMN 081720Z 11007KT 5000 BR BKN010 M02/M04 Q1032 GRN;
0135101360999992006010818204+53767+008667FM-15+0032ETMN V0201101N00361003301CN0050001N1-00201-00401999999ADDGA1075+003301999GF107991999999999999999999MA1103181999999MW1101REMMET060METAR ETMN 081820Z 11007KT 5000 BR BKN011 M02/M04 Q1032 GRN;
0187101360999992006010819004+53767+008667FM-12+0032ETMN V0201201N004010033019N0050001N1-00221-00381103281ADDAY121999AY221999GA1071+003301071GF107991071061004501999999MA1999999102871MD1310061+9999MW1101REMSYN082AAXX  08191 10136 41450 71204 11022 21038 30287 40328 53006 71022 876// 333 87711;
0129101360999992006010819204+53767+008667FM-15+0032ETMN V0201201N00361003301CN0050001N1-00201-00401999999ADDGA1075+003301999GF107991999999999999999999MA1103181999999MW1101REMMET054ETMN 081920Z 12007KT 5000 BR BKN011 M02/M04 Q1032 GRN;
0149101360999992006010819384+53767+008667FM-16+0032ETMN V0201201N00311005401CN0060001N1-00201-00401999999ADDGA1025+003601999GA2075+005401999GF107991999999999999999999MA1103291999999REMMET064SPECI ETMN 081938Z 12006KT 6000 FEW012 BKN018 M02/M04 Q1033 WHT;
0193101360999992006010820004+53767+008667FM-12+0032ETMN V0201201N00301030001CN0060001N1-00211-00391103331ADDAY121999AY221999GA1071+999999051GF107991071051004501999999MA1999999102921MD1310101+9999MW1101REMSYN088AAXX  08201 10136 41456 71203 11021 21039 30292 40333 53010 71022 875// 333 82612 87619;
0129101360999992006010820204+53767+008667FM-15+0032ETMN V0201201N00411003301CN0048001N1-00201-00401999999ADDGA1075+003301999GF107991999999999999999999MA1103291999999MW1101REMMET054ETMN 082020Z 12008KT 4800 BR BKN011 M02/M04 Q1033 GRN;
0129101360999992006010821204+53767+008667FM-15+0032ETMN V0201401N00361002701CN0045001N1-00201-00401999999ADDGA1075+002701999GF107991999999999999999999MA1103291999999MW1101REMMET054ETMN 082120Z 14007KT 4500 BR BKN009 M02/M04 Q1033 GRN;
0187101360999992006010822004+53767+008667FM-12+0032ETMN V0201301N003010030019N0045001N1-00231-00401103361ADDAY121999AY221999GA1071+003001071GF108991071061004501999999MA1999999102951MD1210081+9999MW1101REMSYN082AAXX  08221 10136 41445 81303 11023 21040 30295 40336 52008 71022 876// 333 87710;
0129101360999992006010822204+53767+008667FM-15+0032ETMN V0201301N00361003301CN0045001N1-00201-00401999999ADDGA1075+003301999GF107991999999999999999999MA1103291999999MW1101REMMET054ETMN 082220Z 13007KT 4500 BR BKN011 M02/M04 Q1033 GRN;
0187101360999992006010823004+53767+008667FM-12+0032ETMN V0201301N004010030019N0045001N1-00241-00421103341ADDAY121999AY221999GA1071+003001071GF108991071061004501999999MA1999999102931MD1010011+9999MW1101REMSYN082AAXX  08231 10136 41445 81304 11024 21042 30293 40334 50001 71022 876// 333 87710;
0129101360999992006010823204+53767+008667FM-15+0032ETMN V0201301N00361003301CN0045001N1-00301-00401999999ADDGA1075+003301999GF107991999999999999999999MA1103291999999MW1101REMMET054ETMN 082320Z 13007KT 4500 BR BKN011 M03/M04 Q1033 GRN;
0129101360999992006010900204+53767+008667FM-15+0032ETMN V0201101N00361002701CN0040001N1-00301-00501999999ADDGA1075+002701999GF107991999999999999999999MA1103181999999MW1101REMMET054ETMN 090020Z 11007KT 4000 BR BKN009 M03/M05 Q1032 GRN;
0187101360999992006010901004+53767+008667FM-12+0032ETMN V0201001N003010033019N0040001N1-00381-00481103291ADDAY121999AY221999GA1051+003301071GF105991051061004501001001MA1999999102881MD1710071+9999MW1101REMSYN082AAXX  09011 10136 41440 51003 11038 21048 30288 40329 57007 71022 85600 333 85711;
0129101360999992006010901204+53767+008667FM-15+0032ETMN V0201001N002112200019N0035001N1-00501-00501999999ADDGA1045+003301999GF104991999999999999999999MA1103181999999MW1101REMMET054ETMN 090120Z 10004KT 3500 BR SCT011 M05/M05 Q1032 YLO;
0187101360999992006010902004+53767+008667FM-12+0032ETMN V0200901N003012200019N0035001N1-00501-00561103271ADDAY111999AY211999GA1011+003301071GF101991011061004501001001MA1999999102861MD1710071+9999MW1101REMSYN082AAXX  09021 10136 41435 10903 11050 21056 30286 40327 57007 71011 81600 333 81711;
0129101360999992006010902204+53767+008667FM-15+0032ETMN V0200901N002612200019N0035001N1-00501-00601999999ADDGA1025+003301999GF102991999999999999999999MA1103181999999MW1101REMMET054ETMN 090220Z 09005KT 3500 BR FEW011 M05/M06 Q1032 YLO;
0129101360999992006010903204+53767+008667FM-15+0032ETMN V0200901N00261001201CN0030001N1-00601-00601999999ADDGA1075+001201999GF107991999999999999999999MA1103181999999MW1101REMMET054ETMN 090320Z 09005KT 3000 BR BKN004 M06/M06 Q1032 YLO;
0187101360999992006010904004+53767+008667FM-12+0032ETMN V0200801N002010009019N0030001N1-00621-00621103241ADDAY111999AY211999GA1071+000901071GF107991071061001501999999MA1999999102831MD1610051+9999MW1101REMSYN082AAXX  09041 10136 41230 70802 11062 21062 30283 40324 56005 71011 876// 333 87703;
0129101360999992006010904204+53767+008667FM-15+0032ETMN V0201001N00261000901CN0030001N1-00601-00601999999ADDGA1075+000901999GF107991999999999999999999MA1103181999999MW1101REMMET054ETMN 090420Z 10005KT 3000 BR BKN003 M06/M06 Q1032 YLO;
0187101360999992006010905004+53767+008667FM-12+0032ETMN V0201001N002010009019N0030001N1-00541-00541103231ADDAY121999AY221999GA1071+000901071GF108991071061001501999999MA1999999102821MD1610041+9999MW1101REMSYN082AAXX  09051 10136 41230 81002 11054 21054 30282 40323 56004 71022 876// 333 87703;
0143101360999992006010905204+53767+008667FM-15+0032ETMN V0201101N00261001201CN0030001N1-00501-00601999999ADDGA1075+001201999GF107991999999999999999999MA1103181999999MW1101REMMET068ETMN 090520Z 11005KT 3000 BR BKN004 M05/M06 Q1032 YLO YLO BECMG GRN;
0149101360999992006010906094+53767+008667FM-16+0032ETMN V0201101N002112200019N0035001N1-00601-00601999999ADDGA1045+001201999GF104991999999999999999999MA1103181999999MW1101REMMET074SPECI ETMN 090609Z 11004KT 3500 BR SCT004 M06/M06 Q1032 YLO YLO BECMG GRN;
0143101360999992006010906204+53767+008667FM-15+0032ETMN V0201101N002612200019N0035001N1-00601-00601999999ADDGA1025+001201999GF102991999999999999999999MA1103121999999MW1101REMMET068ETMN 090620Z 11005KT 3500 BR FEW004 M06/M06 Q1031 YLO YLO BECMG GRN;
0187101360999992006010907004+53767+008667FM-12+0032ETMN V0201101N003012200019N0030001N1-00651-00681103191ADDAY101999AY201999GA1021+001201071GF102991021061001501001001MA1999999102781MD1810051+9999MW1101REMSYN082AAXX  09071 10136 41230 21103 11065 21068 30278 40319 58005 71000 82600 333 82704;
0133101360999992006010907204+53767+008667FM-15+0032ETMN V0201101N003112200019N0020001N1-00601-00601999999ADDGA1025+001201999GF102991999999999999999999MA1103121999999MW1101REMMET058ETMN 090720Z 11006KT 2000 BR FEW004 M06/M06 Q1031 YLO YLO;
0171101360999992006010908004+53767+008667FM-12+0032ETMN V0201201N004012200019N0018001N1-00671-00691103181ADDAY101999AY201999GA1001+999999999GF100991001001999999001001MA1999999102771MD1810051+9999MW1101REMSYN066AAXX  09081 10136 41918 01204 11067 21069 30277 40318 58005 71000;
0115101360999992006010908204+53767+008667FM-15+0032ETMN V0201101N003119999999N0018001N1-00701-00701999999ADDED108U21009MA1103121999999MW1101REMMET071ETMN 090820Z 11006KT 1800 R08/2100N BR M07/M07 Q1031 YLO YLO BECMG GRN;
0094101360999992006010909204+53767+008667FM-15+0032ETMN V0201101N002612200019N0022001N1-00601-00601999999ADDMA1103121999999MW1101REMMET061ETMN 090920Z 11005KT 2200 BR M06/M06 Q1031 YLO YLO BECMG GRN;
0171101360999992006010910004+53767+008667FM-12+0032ETMN V0201201N003012200019N0028001N1-00541-00591103181ADDAY101999AY201999GA1001+999999999GF100991001001999999001001MA1999999102771MD1510011+9999MW1101REMSYN066AAXX  09101 10136 41928 01203 11054 21059 30277 40318 55001 71000;
0100101360999992006010910054+53767+008667FM-16+0032ETMN V0201201N003612200019N0030001N1-00501-00601999999ADDMA1103121999999MW1101REMMET067SPECI ETMN 091005Z 12007KT 3000 BR M05/M06 Q1031 YLO YLO BECMG GRN;
0094101360999992006010910204+53767+008667FM-15+0032ETMN V0201301N003612200019N0032001N1-00501-00501999999ADDMA1103121999999MW1101REMMET061ETMN 091020Z 13007KT 3200 BR M05/M05 Q1031 YLO YLO BECMG GRN;
0171101360999992006010911004+53767+008667FM-12+0032ETMN V0201301N004012200019N0032001N1-00421-00551103101ADDAY101999AY201999GA1001+999999999GF100991001001999999001001MA1999999102691MD1810081+9999MW1101REMSYN066AAXX  09111 10136 41932 01304 11042 21055 30269 40310 58008 71000;
0094101360999992006010911204+53767+008667FM-15+0032ETMN V0201301N005712200019N0035001N1-00401-00501999999ADDMA1103011999999MW1101REMMET061ETMN 091120Z 13011KT 3500 BR M04/M05 Q1030 YLO YLO BECMG GRN;
0084101360999992006010912204+53767+008667FM-15+0032ETMN V0201301N003112200019N0040001N1-00301-00501999999ADDMA1102911999999MW1101REMMET051ETMN 091220Z 13006KT 4000 BR M03/M05 Q1029 GRN GRN;
0171101360999992006010913004+53767+008667FM-12+0032ETMN V0201401N003012200019N0040001N1-00221-00431103011ADDAY101999AY201999GA1001+999999999GF100991001001999999001001MA1999999102601MD1710171+9999MW1101REMSYN066AAXX  09131 10136 41940 01403 11022 21043 30260 40301 57017 71000;
0084101360999992006010913204+53767+008667FM-15+0032ETMN V0201401N002112200019N0040001N1-00201-00401999999ADDMA1102911999999MW1101REMMET051ETMN 091320Z 14004KT 4000 BR M02/M04 Q1029 GRN GRN;
0213101360999992006010914004+53767+008667FM-12+0032ETMN V0201401N004012200019N0045001N1-00171-00451103001ADDAY101999AY201999GA1001+999999999GF100991001001999999001001MA1999999102591MD1710101+9999MW1101REMSYN108AAXX  09141 10136 41945 01404 11017 21045 30259 40300 57010 71000 555 BOT 11001 20008 30012 40033 999 34///;
0084101360999992006010914204+53767+008667FM-15+0032ETMN V0201401N003112200019N0045001N1-00201-00501999999ADDMA1102911999999MW1101REMMET051ETMN 091420Z 14006KT 4500 BR M02/M05 Q1029 GRN GRN;
0084101360999992006010915204+53767+008667FM-15+0032ETMN V0201201N003112200019N0040001N1-00301-00501999999ADDMA1102911999999MW1101REMMET051ETMN 091520Z 12006KT 4000 BR M03/M05 Q1029 GRN GRN;
0171101360999992006010916004+53767+008667FM-12+0032ETMN V0201201N003012200019N0040001N1-00281-00501102971ADDAY101999AY201999GA1001+999999999GF100991001001999999001001MA1999999102561MD1710041+9999MW1101REMSYN066AAXX  09161 10136 41940 01203 11028 21050 30256 40297 57004 71000;
0084101360999992006010916204+53767+008667FM-15+0032ETMN V0201201N002612200019N0045001N1-00301-00501999999ADDMA1102911999999MW1101REMMET051ETMN 091620Z 12005KT 4500 BR M03/M05 Q1029 GRN GRN;
0171101360999992006010917004+53767+008667FM-12+0032ETMN V0201201N003012200019N0045001N1-00381-00531102951ADDAY101999AY201999GA1001+999999999GF100991001001999999001001MA1999999102541MD1710051+9999MW1101REMSYN066AAXX  09171 10136 41945 01203 11038 21053 30254 40295 57005 71000;
