0090101360999992015010100204+53768+008659FM-15+002399999V0202401N005719999999N999999999+00301+00101999999ADDMA1103101999999REMMET063METAR ETMN 010020Z AUTO 24011KT //// // ////// 03/01 Q1031 ///=
0090101360999992015010101204+53768+008659FM-15+002399999V0202301N005719999999N999999999+00301+00101999999ADDMA1103101999999REMMET063METAR ETMN 010120Z AUTO 23011KT //// // ////// 03/01 Q1031 ///=
0090101360999992015010102204+53768+008659FM-15+002399999V0202201N006219999999N999999999+00301+00101999999ADDMA1103101999999REMMET063METAR ETMN 010220Z AUTO 22012KT //// // ////// 03/01 Q1031 ///=
0090101360999992015010103204+53768+008659FM-15+002399999V0202201N006219999999N999999999+00301+00201999999ADDMA1103001999999REMMET063METAR ETMN 010320Z AUTO 22012KT //// // ////// 03/02 Q1030 ///=
0090101360999992015010104204+53768+008659FM-15+002399999V0202301N008219999999N999999999+00301+00201999999ADDMA1103001999999REMMET063METAR ETMN 010420Z AUTO 23016KT //// // ////// 03/02 Q1030 ///=
0155101360999992015010105204+53768+008659FM-15+002399999V0202301N006710070119N004500199+00201+00101999999ADDGA1071+007011999GE19MSL   +99999+99999GF199999071999007011999999MA1103001999999MW1101REMMET058METAR ETMN 010520Z 23013KT 4500 BR BKN023 02/01 Q1030 GRN=
0178101360999992015010106204+53768+008659FM-15+002399999V0202301N007210042719N004000199+00201+00101999999ADDGA1071+004271999GA2071+067061999GE19MSL   +99999+99999GF199999071999004271999999MA1103001999999MW1101REMMET065METAR ETMN 010620Z 23014KT 4000 BR BKN014 BKN220 02/01 Q1030 GRN=
0178101360999992015010107204+53768+008659FM-15+002399999V0202301N00671067061CN003500199+00201+00101999999ADDGA1021+003961999GA2041+067061999GE19MSL   +99999+99999GF199999021999003961999999MA1102901999999MW1101REMMET065METAR ETMN 010720Z 23013KT 3500 BR FEW013 SCT220 02/01 Q1029 YLO=
0155101360999992015010108204+53768+008659FM-15+002399999V0202401N007210039619N003000199+00201+00101999999ADDGA1071+003961999GE19MSL   +99999+99999GF199999071999003961999999MA1103001999999MW1101REMMET058METAR ETMN 010820Z 24014KT 3000 BR BKN013 02/01 Q1030 YLO=
0155101360999992015010109204+53768+008659FM-15+002399999V0202201N006210024419N002700199+00201+00101999999ADDGA1071+002441999GE19MSL   +99999+99999GF199999071999002441999999MA1103001999999MW1101REMMET058METAR ETMN 010920Z 22012KT 2700 BR BKN008 02/01 Q1030 YLO=
0155101360999992015010110204+53768+008659FM-15+002399999V0202401N006710021319N003000199+00301+00201999999ADDGA1071+002131999GE19MSL   +99999+99999GF199999071999002131999999MA1102901999999MW1101REMMET058METAR ETMN 011020Z 24013KT 3000 BR BKN007 03/02 Q1029 YLO=
0155101360999992015010111204+53768+008659FM-15+002399999V0202401N008210024419N003700199+00301+00101999999ADDGA1071+002441999GE19MSL   +99999+99999GF199999071999002441999999MA1102901999999MW1101REMMET058METAR ETMN 011120Z 24016KT 3700 BR BKN008 03/01 Q1029 GRN=
0155101360999992015010112204+53768+008659FM-15+002399999V0202401N009810024419N004000199+00301+00201999999ADDGA1071+002441999GE19MSL   +99999+99999GF199999071999002441999999MA1102801999999MW1101REMMET058METAR ETMN 011220Z 24019KT 4000 BR BKN008 03/02 Q1028 GRN=
0166101360999992015010113204+53768+008659FM-15+002399999V0202301N007710027419N004500199+00401+00201999999ADDGA1071+002741999GE19MSL   +99999+99999GF199999071999002741999999MA1102701999999MW1101OC101341REMMET061METAR ETMN 011320Z 23015G26KT 4500 BR BKN009 04/02 Q1027 GRN=
0155101360999992015010114204+53768+008659FM-15+002399999V0202301N008210027419N004500199+00401+00201999999ADDGA1071+002741999GE19MSL   +99999+99999GF199999071999002741999999MA1102701999999MW1101REMMET058METAR ETMN 011420Z 23016KT 4500 BR BKN009 04/02 Q1027 GRN=
0155101360999992015010115204+53768+008659FM-15+002399999V0202201N007710027419N004500199+00401+00201999999ADDGA1071+002741999GE19MSL   +99999+99999GF199999071999002741999999MA1102501999999MW1101REMMET058METAR ETMN 011520Z 22015KT 4500 BR BKN009 04/02 Q1025 GRN=
0155101360999992015010116204+53768+008659FM-15+002399999V0202201N007210027419N004500199+00401+00201999999ADDGA1071+002741999GE19MSL   +99999+99999GF199999071999002741999999MA1102501999999MW1101REMMET058METAR ETMN 011620Z 22014KT 4500 BR BKN009 04/02 Q1025 GRN=
0090101360999992015010117204+53768+008659FM-15+002399999V0202201N008819999999N999999999+00401+00201999999ADDMA1102301999999REMMET063METAR ETMN 011720Z AUTO 22017KT //// // ////// 04/02 Q1023 ///=
0090101360999992015010118204+53768+008659FM-15+002399999V0202301N008219999999N999999999+00401+00101999999ADDMA1102301999999REMMET063METAR ETMN 011820Z AUTO 23016KT //// // ////// 04/01 Q1023 ///=
0090101360999992015010119204+53768+008659FM-15+002399999V0202201N009319999999N999999999+00401+00001999999ADDMA1102201999999REMMET063METAR ETMN 011920Z AUTO 22018KT //// // ////// 04/00 Q1022 ///=
0090101360999992015010120204+53768+008659FM-15+002399999V0202201N008819999999N999999999+00401+00001999999ADDMA1102101999999REMMET063METAR ETMN 012020Z AUTO 22017KT //// // ////// 04/00 Q1021 ///=
0101101360999992015010121204+53768+008659FM-15+002399999V0202201N009319999999N999999999+00401+00101999999ADDMA1101901999999OC101491REMMET066METAR ETMN 012120Z AUTO 22018G29KT //// // ////// 04/01 Q1019 ///=
0090101360999992015010122204+53768+008659FM-15+002399999V0202301N011319999999N999999999+00501+00101999999ADDMA1101801999999REMMET063METAR ETMN 012220Z AUTO 23022KT //// // ////// 05/01 Q1018 ///=
0101101360999992015010123204+53768+008659FM-15+002399999V0202301N010319999999N999999999+00501+00201999999ADDMA1101601999999OC101541REMMET066METAR ETMN 012320Z AUTO 23020G30KT //// // ////// 05/02 Q1016 ///=
0101101360999992015010200204+53768+008659FM-15+002399999V0202301N010319999999N999999999+00401+00301999999ADDMA1101501999999OC101541REMMET066METAR ETMN 020020Z AUTO 23020G30KT //// // ////// 04/03 Q1015 ///=
0090101360999992015010201204+53768+008659FM-15+002399999V0202401N012419999999N999999999+00501+00301999999ADDMA1101301999999REMMET063METAR ETMN 020120Z AUTO 24024KT //// // ////// 05/03 Q1013 ///=
0101101360999992015010202204+53768+008659FM-15+002399999V0202301N012919999999N999999999+00501+00401999999ADDMA1101201999999OC101901REMMET066METAR ETMN 020220Z AUTO 23025G37KT //// // ////// 05/04 Q1012 ///=
0101101360999992015010203204+53768+008659FM-15+002399999V0202301N011819999999N999999999+00501+00401999999ADDMA1101201999999OC101801REMMET066METAR ETMN 020320Z AUTO 23023G35KT //// // ////// 05/04 Q1012 ///=
0101101360999992015010204204+53768+008659FM-15+002399999V0202401N011819999999N999999999+00501+00501999999ADDMA1101101999999OC101801REMMET066METAR ETMN 020420Z AUTO 24023G35KT //// // ////// 05/05 Q1011 ///=
0156101360999992015010205204+53768+008659FM-15+002399999V0202401N011810015219N006000199+00601+00501999999ADDGA1071+001521999GE19MSL   +99999+99999GF199999071999001521999999MA1101101999999MW1511REMMET059METAR ETMN 020520Z 24023KT 6000 -DZ BKN005 06/05 Q1011 YLO=
0177101360999992015010205424+53768+008659FM-16+002399999V0202401N010810012219N003000199+00601+00501999999ADDGA1071+001221999GE19MSL   +99999+99999GF199999071999001221999999MA1101101999999MW1101MW2591OC101601REMMET066SPECI ETMN 020542Z 24021G31KT 3000 RADZ BR BKN004 06/05 Q1011 YLO=
0172101360999992015010206204+53768+008659FM-15+002399999V0202401N011310015219N005000199+00701+00601999999ADDGA1071+001521999GE19MSL   +99999+99999GF199999071999001521999999MA1101101999999MW1101MW2581REMMET069METAR ETMN 020620Z 24022KT 5000 -RADZ BR BKN005 07/06 Q1011 RERA YLO=
0208101360999992015010207204+53768+008659FM-15+002399999V0202501N01131004271CN009999199+00801+00701999999ADDGA1021+002131999GA2041+004271999GA3071+013721999GE19MSL   +99999+99999GF199999021999002131999999MA1101101999999OC101751REMMET077METAR ETMN 020720Z 25022G34KT 9999 FEW007 SCT014 BKN045 08/07 Q1011      BLU=
0193101360999992015010208204+53768+008659FM-15+002399999V0202601N01241018291CN009999199+00901+00601999999ADDGA1021+006101999GA2041+018291999GA3071+060961999GE19MSL   +99999+99999GF199999021999006101999999MA1101301999999REMMET070METAR ETMN 020820Z 26024KT 9999 FEW020 SCT060 BKN200 09/06 Q1013 BLU+=
0180101360999992015010208584+53768+008659FM-16+002399999V0202701N013410106719N009999199+00801+00401999999ADDGA1071+010671999GA2071+060961999GE19MSL   +99999+99999GF199999071999010671999999MA1101301999999OC102011REMMET065SPECI ETMN 020858Z 27026G39KT 9999 BKN035 BKN200 08/04 Q1013 BLU=
0181101360999992015010209204+53768+008659FM-15+002399999V0202701N011810609619N009999199+00801+00301999999ADDGA1041+010671999GA2071+060961999GE19MSL   +99999+99999GF199999041999010671999999MA1101401999999OC101751REMMET066METAR ETMN 020920Z 27023G34KT 9999 SCT035 BKN200 08/03 Q1014 BLU+=
0158101360999992015010209544+53768+008659FM-16+002399999V0202801N011819999999N009999199+00701+00301999999ADDGA1021+009141999GE19MSL   +99999+99999GF199999021999009141999999MA1101501999999OC101901REMMET059SPECI ETMN 020954Z 28023G37KT 9999 FEW030 07/03 Q1015 BLU+=
0147101360999992015010210204+53768+008659FM-15+002399999V0202701N011319999999N009999199+00701+00301999999ADDGA1021+009141999GE19MSL   +99999+99999GF199999021999009141999999MA1101501999999REMMET056METAR ETMN 021020Z 27022KT 9999 FEW030 07/03 Q1015 BLU+=
0158101360999992015010211204+53768+008659FM-15+002399999V0202801N014419999999N009999199+00701+00201999999ADDGA1041+010671999GE19MSL   +99999+99999GF199999041999010671999999MA1101501999999OC102011REMMET059METAR ETMN 021120Z 28028G39KT 9999 SCT035 07/02 Q1015 BLU+=
0146101360999992015010212204+53768+008659FM-15+002399999V0202701N011810106719N009999199+00701+00201999999ADDGA1071+010671999GE19MSL   +99999+99999GF199999071999010671999999MA1101601999999REMMET055METAR ETMN 021220Z 27023KT 9999 BKN035 07/02 Q1016 BLU=
0158101360999992015010213004+53768+008659FM-16+002399999V0202701N013919999999N009999199+00701+00201999999ADDGA1041+012191999GE19MSL   +99999+99999GF199999041999012191999999MA1101601999999OC101961REMMET059SPECI ETMN 021300Z 27027G38KT 9999 SCT040 07/02 Q1016 BLU+=
0157101360999992015010213204+53768+008659FM-15+002399999V0202701N011310121919N009999199+00701+00201999999ADDGA1071+012191999GE19MSL   +99999+99999GF199999071999012191999999MA1101701999999OC101801REMMET058METAR ETMN 021320Z 27022G35KT 9999 BKN040 07/02 Q1017 BLU=
0169101360999992015010214204+53768+008659FM-15+002399999V0202601N010810152419N009999199+00701+00201999999ADDGA1021+009751999GA2071+015241999GE19MSL   +99999+99999GF199999021999009751999999MA1101801999999REMMET062METAR ETMN 021420Z 26021KT 9999 FEW032 BKN050 07/02 Q1018 BLU=
0180101360999992015010215204+53768+008659FM-15+002399999V0202701N011310152419N009999199+00701+00201999999ADDGA1021+009141999GA2071+015241999GE19MSL   +99999+99999GF199999021999009141999999MA1101801999999OC101701REMMET065METAR ETMN 021520Z 27022G33KT 9999 FEW030 BKN050 07/02 Q1018 BLU=
0184101360999992015010216074+53768+008659FM-16+002399999V0202701N01241015241CN009999199+00601+00201999999ADDGA1021+008531081GA2041+015241999GE19MSL   +99999+99999GF199999021999008531999999MA1101801999999OC101961REMMET069SPECI ETMN 021607Z 27024G38KT 9999 FEW028TCU SCT050 06/02 Q1018 BLU+=
0161101360999992015010216204+53768+008659FM-15+002399999V0202701N012419999999N009999199+00601+00201999999ADDGA1021+007621081GE19MSL   +99999+99999GF199999021999007621999999MA1101901999999OC101851REMMET062METAR ETMN 021620Z 27024G36KT 9999 FEW025TCU 06/02 Q1019 BLU+=
0101101360999992015010217204+53768+008659FM-15+002399999V0202801N012919999999N999999999+00601+00301999999ADDMA1101901999999OC102211REMMET066METAR ETMN 021720Z AUTO 28025G43KT //// // ////// 06/03 Q1019 ///=
0101101360999992015010218204+53768+008659FM-15+002399999V0202801N012419999999N999999999+00501+00201999999ADDMA1102001999999OC102011REMMET066METAR ETMN 021820Z AUTO 28024G39KT //// // ////// 05/02 Q1020 ///=
0072101360999992015010219204+53768+008659FM-15+002399999V0209999N999999999999N999999999+99999+99999999999REMMET063METAR ETMN 021920Z AUTO /////KT //// // ////// ///// Q//// ///=
0101101360999992015010220204+53768+008659FM-15+002399999V0202801N013919999999N999999999+00501+00201999999ADDMA1102101999999OC102471REMMET066METAR ETMN 022020Z AUTO 28027G48KT //// // ////// 05/02 Q1021 ///=
0101101360999992015010221204+53768+008659FM-15+002399999V0202801N013419999999N999999999+00601+00201999999ADDMA1102101999999OC102011REMMET066METAR ETMN 022120Z AUTO 28026G39KT //// // ////// 06/02 Q1021 ///=
0090101360999992015010222204+53768+008659FM-15+002399999V0202801N011819999999N999999999+00601+00201999999ADDMA1102101999999REMMET063METAR ETMN 022220Z AUTO 28023KT //// // ////// 06/02 Q1021 ///=
0090101360999992015010223204+53768+008659FM-15+002399999V0202801N012919999999N999999999+00601+00101999999ADDMA1102201999999REMMET063METAR ETMN 022320Z AUTO 28025KT //// // ////// 06/01 Q1022 ///=
0090101360999992015010300204+53768+008659FM-15+002399999V0202801N011319999999N999999999+00601+00101999999ADDMA1102201999999REMMET063METAR ETMN 030020Z AUTO 28022KT //// // ////// 06/01 Q1022 ///=
0090101360999992015010301204+53768+008659FM-15+002399999V0202701N009819999999N999999999+00601+00201999999ADDMA1102301999999REMMET063METAR ETMN 030120Z AUTO 27019KT //// // ////// 06/02 Q1023 ///=
0090101360999992015010302204+53768+008659FM-15+002399999V0202601N008819999999N999999999+00501+00201999999ADDMA1102201999999REMMET063METAR ETMN 030220Z AUTO 26017KT //// // ////// 05/02 Q1022 ///=
0090101360999992015010303204+53768+008659FM-15+002399999V0202401N007219999999N999999999+00501+00201999999ADDMA1102101999999REMMET063METAR ETMN 030320Z AUTO 24014KT //// // ////// 05/02 Q1021 ///=
0090101360999992015010304204+53768+008659FM-15+002399999V0202401N009319999999N999999999+00401+00201999999ADDMA1102101999999REMMET063METAR ETMN 030420Z AUTO 24018KT //// // ////// 04/02 Q1021 ///=
0170101360999992015010305204+53768+008659FM-15+002399999V0202401N01031060961CN009999199+00401+00101999999ADDGA1021+004571999GA2041+060961999GE19MSL   +99999+99999GF199999021999004571999999MA1101901999999REMMET063METAR ETMN 030520Z 24020KT 9999 FEW015 SCT200 04/01 Q1019 BLU+=
0162101360999992015010306204+53768+008659FM-15+002399999V0202401N011810670619N009999199+00401+00101999999ADDGA1071+067061999GE19MSL   +99999+99999GF199999071999067061999999MA1101801999999OC101801REMMET063METAR COR ETMN 030620Z 24023G35KT 9999 BKN220 04/01 Q1018 BLU+=
0181101360999992015010307204+53768+008659FM-15+002399999V0202401N010810640119N009999199+00401+00101999999ADDGA1041+042671999GA2071+064011999GE19MSL   +99999+99999GF199999041999042671999999MA1101801999999OC101601REMMET066METAR ETMN 030720Z 24021G31KT 9999 SCT140 BKN210 04/01 Q1018 BLU+=
0181101360999992015010308204+53768+008659FM-15+002399999V0202401N009810640119N009999199+00401+00101999999ADDGA1041+036581999GA2071+064011999GE19MSL   +99999+99999GF199999041999036581999999MA1101701999999OC101491REMMET066METAR ETMN 030820Z 24019G29KT 9999 SCT120 BKN210 04/01 Q1017 BLU+=
0169101360999992015010309204+53768+008659FM-15+002399999V0202501N010310365819N009999199+00501+00101999999ADDGA1021+006101999GA2071+036581999GE19MSL   +99999+99999GF199999021999006101999999MA1101701999999REMMET062METAR ETMN 030920Z 25020KT 9999 FEW020 BKN120 05/01 Q1017 BLU=
0157101360999992015010310204+53768+008659FM-15+002399999V0202501N009810091419N009999199+00501+00201999999ADDGA1071+009141999GE19MSL   +99999+99999GF199999071999009141999999MA1101601999999OC101491REMMET058METAR ETMN 031020Z 25019G29KT 9999 BKN030 05/02 Q1016 BLU=
0146101360999992015010311204+53768+008659FM-15+002399999V0202501N010810076219N009999199+00501+00201999999ADDGA1071+007621999GE19MSL   +99999+99999GF199999071999007621999999MA1101501999999REMMET055METAR ETMN 031120Z 25021KT 9999 BKN025 05/02 Q1015 BLU=
0169101360999992015010312204+53768+008659FM-15+002399999V0202501N009310054919N009999199+00501+00301999999ADDGA1071+005491999GE19MSL   +99999+99999GF199999071999005491999999MA1101401999999MW1581OC101491REMMET064METAR ETMN 031220Z 25018G29KT 9999 -RADZ BKN018 05/03 Q1014 WHT=
0167101360999992015010313204+53768+008659FM-15+002399999V0202601N010310039619N005000199+00501+00301999999ADDGA1071+003961999GE19MSL   +99999+99999GF199999071999003961999999MA1101301999999MW1101MW2581REMMET064METAR ETMN 031320Z 26020KT 5000 -RADZ BR BKN013 05/03 Q1013 GRN=
0205101360999992015010314204+53768+008659FM-15+002399999V0202601N010310039619N005000199+00501+00301999999ADDGA1021+001521999GA2071+003961999GE19MSL   +99999+99999GF199999021999001521999999MA1101301999999MW1101MW2591OC101541REMMET078METAR ETMN 031420Z 26020G30KT 5000 RADZ BR FEW005 BKN013 05/03 Q1013      GRN=
0189101360999992015010315204+53768+008659FM-15+002399999V0202601N008810039619N006000199+00501+00301999999ADDGA1021+001521999GA2071+003961999GE19MSL   +99999+99999GF199999021999001521999999MA1101201999999MW1631OC101441REMMET068METAR ETMN 031520Z 26017G28KT 6000 RA FEW005 BKN013 05/03 Q1012 GRN=
0174101360999992015010316204+53768+008659FM-15+002399999V0202601N008210045719N009999199+00401+00301999999ADDGA1021+001521999GA2071+004571999GE19MSL   +99999+99999GF199999021999001521999999MA1101201999999REMMET067METAR ETMN 031620Z 26016KT 9999 FEW005 BKN015 04/03 Q1012 RERA WHT=
0090101360999992015010317204+53768+008659FM-15+002399999V0202801N003119999999N999999999+00401+00301999999ADDMA1101301999999REMMET063METAR ETMN 031720Z AUTO 28006KT //// // ////// 04/03 Q1013 ///=
0090101360999992015010318204+53768+008659FM-15+002399999V0202801N005119999999N999999999+00401+00201999999ADDMA1101301999999REMMET063METAR ETMN 031820Z AUTO 28010KT //// // ////// 04/02 Q1013 ///=
0090101360999992015010319204+53768+008659FM-15+002399999V0203101N007719999999N999999999+00501+00101999999ADDMA1101301999999REMMET063METAR ETMN 031920Z AUTO 31015KT //// // ////// 05/01 Q1013 ///=
0090101360999992015010320204+53768+008659FM-15+002399999V0203201N006719999999N999999999+00401+00001999999ADDMA1101401999999REMMET063METAR ETMN 032020Z AUTO 32013KT //// // ////// 04/00 Q1014 ///=
0090101360999992015010321204+53768+008659FM-15+002399999V0203001N006719999999N999999999+00501+00201999999ADDMA1101501999999REMMET063METAR ETMN 032120Z AUTO 30013KT //// // ////// 05/02 Q1015 ///=
0101101360999992015010322204+53768+008659FM-15+002399999V0203101N007719999999N999999999+00501+00201999999ADDMA1101601999999OC101391REMMET066METAR ETMN 032220Z AUTO 31015G27KT //// // ////// 05/02 Q1016 ///=
0090101360999992015010323204+53768+008659FM-15+002399999V0203101N008819999999N999999999+00401+00201999999ADDMA1101701999999REMMET063METAR ETMN 032320Z AUTO 31017KT //// // ////// 04/02 Q1017 ///=
0090101360999992015010400204+53768+008659FM-15+002399999V0203201N006719999999N999999999+00401+00101999999ADDMA1101801999999REMMET063METAR ETMN 040020Z AUTO 32013KT //// // ////// 04/01 Q1018 ///=
0090101360999992015010401204+53768+008659FM-15+002399999V0203201N007219999999N999999999+00401+00201999999ADDMA1101901999999REMMET063METAR ETMN 040120Z AUTO 32014KT //// // ////// 04/02 Q1019 ///=
0090101360999992015010402204+53768+008659FM-15+002399999V0202901N006219999999N999999999+00401+00301999999ADDMA1102001999999REMMET063METAR ETMN 040220Z AUTO 29012KT //// // ////// 04/03 Q1020 ///=
0090101360999992015010403204+53768+008659FM-15+002399999V0203101N006219999999N999999999+00401+00201999999ADDMA1102101999999REMMET063METAR ETMN 040320Z AUTO 31012KT //// // ////// 04/02 Q1021 ///=
0090101360999992015010404204+53768+008659FM-15+002399999V0203101N005719999999N999999999+00401+00101999999ADDMA1102201999999REMMET063METAR ETMN 040420Z AUTO 31011KT //// // ////// 04/01 Q1022 ///=
0183101360999992015010405204+53768+008659FM-15+002399999V0203301N005110070119N009999199+00401+00101999999ADDGA1021+005181091GA2071+007011999GE19MSL   +99999+99999GF199999021999005181999999MA1102201999999MW1801REMMET070METAR ETMN 040520Z 33010KT 9999 -SHRA FEW017CB BKN023 04/01 Q1022 WHT=
0170101360999992015010406204+53768+008659FM-15+002399999V0203001N00771010061CN009999199+00401+00101999999ADDGA1021+006101999GA2041+010061999GE19MSL   +99999+99999GF199999021999006101999999MA1102301999999REMMET063METAR ETMN 040620Z 30015KT 9999 FEW020 SCT033 04/01 Q1023 BLU+=
0181101360999992015010407204+53768+008659FM-15+002399999V0203101N00931011891CN009999199+00401+00201999999ADDGA1021+006101999GA2041+011891999GE19MSL   +99999+99999GF199999021999006101999999MA1102401999999OC101441REMMET066METAR ETMN 040720Z 31018G28KT 9999 FEW020 SCT039 04/02 Q1024 BLU+=
0149101360999992015010408204+53768+008659FM-15+002399999V0203001N006219999999N009999199+00401+00201999999ADDGA1021+006101091GE19MSL   +99999+99999GF199999021999006101999999MA1102501999999REMMET058METAR ETMN 040820Z 30012KT 9999 FEW020CB 04/02 Q1025 BLU+=
0158101360999992015010409204+53768+008659FM-15+002399999V0203101N007219999999N009999199+00501+00301999999ADDGA1041+005791999GE19MSL   +99999+99999GF199999041999005791999999MA1102601999999MW1161REMMET061METAR ETMN 040920Z 31014KT 9999 VCSH SCT019 05/03 Q1026 BLU+=
0147101360999992015010410204+53768+008659FM-15+002399999V0203201N006219999999N009999199+00601+00201999999ADDGA1021+006101999GE19MSL   +99999+99999GF199999021999006101999999MA1102701999999REMMET056METAR ETMN 041020Z 32012KT 9999 FEW020 06/02 Q1027 BLU+=
0147101360999992015010411204+53768+008659FM-15+002399999V0203101N008219999999N009999199+00601+00201999999ADDGA1021+006101999GE19MSL   +99999+99999GF199999021999006101999999MA1102701999999REMMET056METAR ETMN 041120Z 31016KT 9999 FEW020 06/02 Q1027 BLU+=
0147101360999992015010412204+53768+008659FM-15+002399999V0203101N007719999999N009999199+00601+00201999999ADDGA1021+006101999GE19MSL   +99999+99999GF199999021999006101999999MA1102801999999REMMET056METAR ETMN 041220Z 31015KT 9999 FEW020 06/02 Q1028 BLU+=
0150101360999992015010413204+53768+008659FM-15+002399999V0203101N007219999999N009999199+00601+00201999999ADDGA1021+006101081GE19MSL   +99999+99999GF199999021999006101999999MA1102801999999REMMET059METAR ETMN 041320Z 31014KT 9999 FEW020TCU 06/02 Q1028 BLU+=
0160101360999992015010414204+53768+008659FM-15+002399999V0203101N007219999999N009999199+00501+00101999999ADDGA1021+006101091GE19MSL   +99999+99999GF199999021999006101999999MA1102901999999MW1161REMMET063METAR ETMN 041420Z 31014KT 9999 VCSH FEW020CB 05/01 Q1029 BLU+=
0170101360999992015010415204+53768+008659FM-15+002399999V0203001N00671067061CN009999199+00501+00201999999ADDGA1021+006101999GA2041+067061999GE19MSL   +99999+99999GF199999021999006101999999MA1102901999999REMMET063METAR ETMN 041520Z 30013KT 9999 FEW020 SCT220 05/02 Q1029 BLU+=
0170101360999992015010416204+53768+008659FM-15+002399999V0203101N00671067061CN009999199+00501+00101999999ADDGA1021+006101999GA2041+067061999GE19MSL   +99999+99999GF199999021999006101999999MA1102901999999REMMET063METAR ETMN 041620Z 31013KT 9999 FEW020 SCT220 05/01 Q1029 BLU+=
0170101360999992015010417204+53768+008659FM-15+002399999V0203001N00571067061CN009999199+00401+00201999999ADDGA1021+014631999GA2041+067061999GE19MSL   +99999+99999GF199999021999014631999999MA1103001999999REMMET063METAR ETMN 041720Z 30011KT 9999 FEW048 SCT220 04/02 Q1030 BLU+=
0170101360999992015010418204+53768+008659FM-15+002399999V0203001N00671067061CN009999199+00501+00201999999ADDGA1021+042671999GA2041+067061999GE19MSL   +99999+99999GF199999021999042671999999MA1103001999999REMMET063METAR ETMN 041820Z 30013KT 9999 FEW140 SCT220 05/02 Q1030 BLU+=
0147101360999992015010419204+53768+008659FM-15+002399999V0203001N005719999999N009999199+00501+00201999999ADDGA1021+042671999GE19MSL   +99999+99999GF199999021999042671999999MA1103001999999REMMET056METAR ETMN 041920Z 30011KT 9999 FEW140 05/02 Q1030 BLU+=
0146101360999992015010420204+53768+008659FM-15+002399999V0202901N007710109719N009999199+00501+00201999999ADDGA1071+010971999GE19MSL   +99999+99999GF199999071999010971999999MA1103001999999REMMET055METAR ETMN 042020Z 29015KT 9999 BKN036 05/02 Q1030 BLU=
0147101360999992015010421204+53768+008659FM-15+002399999V0202801N005719999999N009999199+00401+00201999999ADDGA1041+010671999GE19MSL   +99999+99999GF199999041999010671999999MA1103001999999REMMET056METAR ETMN 042120Z 28011KT 9999 SCT035 04/02 Q1030 BLU+=
0146101360999992015010422204+53768+008659FM-15+002399999V0202601N005710103619N009999199+00501+00301999999ADDGA1071+010361999GE19MSL   +99999+99999GF199999071999010361999999MA1103001999999REMMET055METAR ETMN 042220Z 26011KT 9999 BKN034 05/03 Q1030 BLU=
0170101360999992015010423204+53768+008659FM-15+002399999V0202601N00721010971CN009999199+00401+00201999999ADDGA1021+007011999GA2041+010971999GE19MSL   +99999+99999GF199999021999007011999999MA1103001999999REMMET063METAR ETMN 042320Z 26014KT 9999 FEW023 SCT036 04/02 Q1030 BLU+=
0146101360999992015010500204+53768+008659FM-15+002399999V0202601N006710088419N009999199+00401+00201999999ADDGA1071+008841999GE19MSL   +99999+99999GF199999071999008841999999MA1103001999999REMMET055METAR ETMN 050020Z 26013KT 9999 BKN029 04/02 Q1030 BLU=
0169101360999992015010501204+53768+008659FM-15+002399999V0202501N006210097519N009999199+00401+00301999999ADDGA1041+004881999GA2071+009751999GE19MSL   +99999+99999GF199999041999004881999999MA1102901999999REMMET062METAR ETMN 050120Z 25012KT 9999 SCT016 BKN032 04/03 Q1029 BLU=
0169101360999992015010502204+53768+008659FM-15+002399999V0202501N007210085319N009999199+00401+00201999999ADDGA1021+006401999GA2071+008531999GE19MSL   +99999+99999GF199999021999006401999999MA1102901999999REMMET062METAR ETMN 050220Z 25014KT 9999 FEW021 BKN028 04/02 Q1029 BLU=
0169101360999992015010503204+53768+008659FM-15+002399999V0202501N006710457219N009999199+00301+00201999999ADDGA1041+008531999GA2071+045721999GE19MSL   +99999+99999GF199999041999008531999999MA1102901999999REMMET062METAR ETMN 050320Z 25013KT 9999 SCT028 BKN150 03/02 Q1029 BLU=
0146101360999992015010504204+53768+008659FM-15+002399999V0202501N006710073219N009999199+00301+00101999999ADDGA1071+007321999GE19MSL   +99999+99999GF199999071999007321999999MA1102901999999REMMET055METAR ETMN 050420Z 25013KT 9999 BKN024 03/01 Q1029 WHT=
0188101360999992015010505204+53768+008659FM-15+002399999V0202501N005710396219N009999199+00201+00101999999ADDGA1041+006711999GA2071+039621999GE19MSL   +99999+99999GF199999041999006711999999MA1102901999999REMMET081METAR ETMN 050520Z 25011KT 9999 SCT022 BKN130 02/01 Q1029 BLU BLU TEMPO      WHT=
0160101360999992015010506204+53768+008659FM-15+002399999V0202601N006719999999N009999199+00101+00001999999ADDGA1021+039621999GE19MSL   +99999+99999GF199999021999039621999999MA1102901999999REMMET069METAR ETMN 050620Z 26013KT 9999 FEW130 01/00 Q1029 BLU+BLU TEMPO WHT=
0192101360999992015010507204+53768+008659FM-15+002399999V0202601N006210067119N009000199+00201+00101999999ADDGA1021+001521999GA2071+006711999GE19MSL   +99999+99999GF199999021999001521999999MA1102901999999REMMET085METAR COR ETMN 050720Z 26012KT 9000 FEW005 BKN022 02/01 Q1029 WHT BLU      BECMG GRN=
0188101360999992015010508204+53768+008659FM-15+002399999V0202601N007210057919N009000199+00301+00201999999ADDGA1021+001521999GA2071+005791999GE19MSL   +99999+99999GF199999021999001521999999MA1102801999999REMMET081METAR ETMN 050820Z 26014KT 9000 FEW005 BKN019 03/02 Q1028 WHT WHT TEMPO      GRN=
0188101360999992015010509204+53768+008659FM-15+002399999V0202601N006710045719N008000199+00401+00201999999ADDGA1021+002131999GA2071+004571999GE19MSL   +99999+99999GF199999021999002131999999MA1102901999999REMMET081METAR ETMN 050920Z 26013KT 8000 FEW007 BKN015 04/02 Q1029 WHT WHT TEMPO      GRN=
0188101360999992015010510204+53768+008659FM-15+002399999V0202601N006710048819N009999199+00401+00301999999ADDGA1021+003051999GA2071+004881999GE19MSL   +99999+99999GF199999021999003051999999MA1102801999999REMMET081METAR ETMN 051020Z 26013KT 9999 FEW010 BKN016 04/03 Q1028 WHT WHT TEMPO      GRN=
0211101360999992015010511204+53768+008659FM-15+002399999V0202501N00621003961CN009999199+00401+00301999999ADDGA1021+001521999GA2041+003961999GA3071+005181999GE19MSL   +99999+99999GF199999021999001521999999MA1102801999999REMMET088METAR ETMN 051120Z 25012KT 9999 FEW005 SCT013 BKN017 04/03 Q1028 WHT      WHT TEMPO GRN=
0198101360999992015010512204+53768+008659FM-15+002399999V0202501N004610054919N008000199+00401+00301999999ADDGA1041+002441999GA2071+005491999GE19MSL   +99999+99999GF199999041999002441999999MA1102801999999MW1511REMMET085METAR ETMN 051220Z 25009KT 8000 -DZ SCT008 BKN018 04/03 Q1028 WHT WHT      TEMPO GRN=
0188101360999992015010513204+53768+008659FM-15+002399999V0202501N004110057919N007000199+00401+00301999999ADDGA1021+003051999GA2071+005791999GE19MSL   +99999+99999GF199999021999003051999999MA1102801999999REMMET081METAR ETMN 051320Z 25008KT 7000 FEW010 BKN019 04/03 Q1028 WHT WHT TEMPO      GRN=
0160101360999992015010514204+53768+008659FM-15+002399999V0202401N003610061019N009999199+00501+00301999999ADDGA1071+006101999GE19MSL   +99999+99999GF199999071999006101999999MA1102701999999REMMET069METAR ETMN 051420Z 24007KT 9999 BKN020 05/03 Q1027 WHT WHT TEMPO GRN=
0160101360999992015010515204+53768+008659FM-15+002399999V0202401N004110061019N009000199+00501+00201999999ADDGA1071+006101999GE19MSL   +99999+99999GF199999071999006101999999MA1102701999999REMMET069METAR ETMN 051520Z 24008KT 9000 BKN020 05/02 Q1027 WHT WHT TEMPO GRN=
0188101360999992015010516204+53768+008659FM-15+002399999V0202301N004110054919N009999199+00401+00201999999ADDGA1071+005491999GA2071+007011999GE19MSL   +99999+99999GF199999071999005491999999MA1102701999999REMMET081METAR ETMN 051620Z 23008KT 9999 BKN018 BKN023 04/02 Q1027 WHT WHT TEMPO      GRN=
0160101360999992015010517204+53768+008659FM-15+002399999V0202301N004610057919N009999199+00401+00201999999ADDGA1071+005791999GE19MSL   +99999+99999GF199999071999005791999999MA1102701999999REMMET069METAR ETMN 051720Z 23009KT 9999 BKN019 04/02 Q1027 WHT WHT TEMPO GRN=
0160101360999992015010518204+53768+008659FM-15+002399999V0202201N004610067119N009999199+00401+00201999999ADDGA1071+006711999GE19MSL   +99999+99999GF199999071999006711999999MA1102701999999REMMET069METAR ETMN 051820Z 22009KT 9999 BKN022 04/02 Q1027 WHT WHT TEMPO GRN=
0150101360999992015010519204+53768+008659FM-15+002399999V0202301N005110067119N009999199+00401+00201999999ADDGA1071+006711999GE19MSL   +99999+99999GF199999071999006711999999MA1102701999999REMMET059METAR ETMN 051920Z 23010KT 9999 BKN022 04/02 Q1027 WHT WHT=
0150101360999992015010520204+53768+008659FM-15+002399999V0202201N004610061019N009999199+00301+00201999999ADDGA1071+006101999GE19MSL   +99999+99999GF199999071999006101999999MA1102701999999REMMET059METAR ETMN 052020Z 22009KT 9999 BKN020 03/02 Q1027 WHT WHT=
0188101360999992015010521204+53768+008659FM-15+002399999V0202201N003610079219N009999199+00301+00101999999ADDGA1021+002131999GA2071+007921999GE19MSL   +99999+99999GF199999021999002131999999MA1102701999999REMMET081METAR ETMN 052120Z 22007KT 9999 FEW007 BKN026 03/01 Q1027 BLU WHT TEMPO      BLU=
0158101360999992015010522204+53768+008659FM-15+002399999V0202201N004110082319N009999199+00301+00101999999ADDGA1071+008231999GE19MSL   +99999+99999GF199999071999008231999999MA1102601999999REMMET067METAR ETMN 052220Z 22008KT 9999 BKN027 03/01 Q1026 BLU FCST CANCEL=
0146101360999992015010523204+53768+008659FM-15+002399999V0202201N003110082319N009999199+00301+00101999999ADDGA1071+008231999GE19MSL   +99999+99999GF199999071999008231999999MA1102601999999REMMET055METAR ETMN 052320Z 22006KT 9999 BKN027 03/01 Q1026 BLU=
0146101360999992015010600204+53768+008659FM-15+002399999V0202201N003610082319N009999199+00301+00101999999ADDGA1071+008231999GE19MSL   +99999+99999GF199999071999008231999999MA1102601999999REMMET055METAR ETMN 060020Z 22007KT 9999 BKN027 03/01 Q1026 BLU=
0146101360999992015010601204+53768+008659FM-15+002399999V0202001N003110082319N006000199+00301+00101999999ADDGA1071+008231999GE19MSL   +99999+99999GF199999071999008231999999MA1102501999999REMMET055METAR ETMN 060120Z 20006KT 6000 BKN027 03/01 Q1025 WHT=
0178101360999992015010602204+53768+008659FM-15+002399999V0201901N002610085319N003500199+00301+00101999999ADDGA1041+001831999GA2071+008531999GE19MSL   +99999+99999GF199999041999001831999999MA1102501999999MW1101REMMET065METAR ETMN 060220Z 19005KT 3500 BR SCT006 BKN028 03/01 Q1025 YLO=
0178101360999992015010603204+53768+008659FM-15+002399999V0202001N002610018319N004000199+00301+00201999999ADDGA1071+001831999GA2071+009141999GE19MSL   +99999+99999GF199999071999001831999999MA1102501999999MW1101REMMET065METAR ETMN 060320Z 20005KT 4000 BR BKN006 BKN030 03/02 Q1025 YLO=
0178101360999992015010604204+53768+008659FM-15+002399999V0201801N002610015219N004000199+00301+00201999999ADDGA1071+001521999GA2071+008841999GE19MSL   +99999+99999GF199999071999001521999999MA1102401999999MW1101REMMET065METAR ETMN 060420Z 18005KT 4000 BR BKN005 BKN029 03/02 Q1024 YLO=
0178101360999992015010604464+53768+008659FM-16+002399999V0201801N003110088419N004000199+00301+00101999999ADDGA1041+001521999GA2071+008841999GE19MSL   +99999+99999GF199999041999001521999999MA1102401999999MW1101REMMET065SPECI ETMN 060446Z 18006KT 4000 BR SCT005 BKN029 03/01 Q1024 GRN=
0174101360999992015010605204+53768+008659FM-15+002399999V0201701N003110085319N004000199+00301+00101999999ADDGA1071+008531999GE19MSL   +99999+99999GF199999071999008531999999MA1102401999999MW1101REMMET077METAR ETMN 060520Z 17006KT 4000 BR BKN028 03/01 Q1024 GRN WHT TEMPO      YLO=
0174101360999992015010606204+53768+008659FM-15+002399999V0201701N003610067119N003700199+00301+00201999999ADDGA1071+006711999GE19MSL   +99999+99999GF199999071999006711999999MA1102301999999MW1101REMMET077METAR ETMN 060620Z 17007KT 3700 BR BKN022 03/02 Q1023 GRN WHT TEMPO      YLO=
0174101360999992015010607204+53768+008659FM-15+002399999V0201701N003610094519N003500199+00301+00101999999ADDGA1071+009451999GE19MSL   +99999+99999GF199999071999009451999999MA1102301999999MW1101REMMET077METAR ETMN 060720Z 17007KT 3500 BR BKN031 03/01 Q1023 YLO WHT TEMPO      YLO=
0174101360999992015010608204+53768+008659FM-15+002399999V0201501N003110091419N003000199+00301+00101999999ADDGA1071+009141999GE19MSL   +99999+99999GF199999071999009141999999MA1102301999999MW1101REMMET077METAR ETMN 060820Z 15006KT 3000 BR BKN030 03/01 Q1023 YLO WHT TEMPO      YLO=
0174101360999992015010608554+53768+008659FM-16+002399999V0201601N003610085319N003700199+00301+00201999999ADDGA1071+008531999GE19MSL   +99999+99999GF199999071999008531999999MA1102301999999MW1101REMMET077SPECI ETMN 060855Z 16007KT 3700 BR BKN028 03/02 Q1023 GRN WHT TEMPO      YLO=
0174101360999992015010609204+53768+008659FM-15+002399999V0201601N004110088419N004000199+00301+00101999999ADDGA1071+008841999GE19MSL   +99999+99999GF199999071999008841999999MA1102301999999MW1101REMMET077METAR ETMN 060920Z 16008KT 4000 BR BKN029 03/01 Q1023 GRN WHT TEMPO      GRN=
0174101360999992015010610204+53768+008659FM-15+002399999V0201601N004110091419N004000199+00401+00101999999ADDGA1071+009141999GE19MSL   +99999+99999GF199999071999009141999999MA1102301999999MW1101REMMET077METAR ETMN 061020Z 16008KT 4000 BR BKN030 04/01 Q1023 GRN WHT TEMPO      GRN=
0159101360999992015010611204+53768+008659FM-15+002399999V0201701N003610094519N005000199+00301+00101999999ADDGA1081+009451999GE19MSL   +99999+99999GF199999081999009451999999MA1102301999999MW1101REMMET062METAR ETMN 061120Z 17007KT 5000 BR OVC031 03/01 Q1023 WHT WHT=
0159101360999992015010612204+53768+008659FM-15+002399999V0201601N003110091419N005000199+00401+00101999999ADDGA1081+009141999GE19MSL   +99999+99999GF199999081999009141999999MA1102201999999MW1101REMMET062METAR ETMN 061220Z 16006KT 5000 BR OVC030 04/01 Q1022 WHT WHT=
0160101360999992015010613204+53768+008659FM-15+002399999V0201501N002610091419N006000199+00401+00101999999ADDGA1081+009141999GE19MSL   +99999+99999GF199999081999009141999999MA1102101999999REMMET069METAR ETMN 061320Z 15005KT 6000 OVC030 04/01 Q1021 WHT WHT TEMPO BLU=
0160101360999992015010614204+53768+008659FM-15+002399999V0201601N003610088419N008000199+00401+00001999999ADDGA1081+008841999GE19MSL   +99999+99999GF199999081999008841999999MA1102001999999REMMET069METAR ETMN 061420Z 16007KT 8000 OVC029 04/00 Q1020 BLU WHT TEMPO BLU=
0188101360999992015010615204+53768+008659FM-15+002399999V0201501N004110076219N007000199+00301+00001999999ADDGA1071+007621999GA2071+054861999GE19MSL   +99999+99999GF199999071999007621999999MA1102001999999REMMET081METAR ETMN 061520Z 15008KT 7000 BKN025 BKN180 03/00 Q1020 WHT BLU TEMPO      WHT=
0174101360999992015010616204+53768+008659FM-15+002399999V0201601N003110548619N008000199+00301+00001999999ADDGA1021+007621999GA2081+054861999GE19MSL   +99999+99999GF199999021999007621999999MA1102001999999REMMET067METAR ETMN 061620Z 16006KT 8000 FEW025 OVC180 03/M00 Q1020 BLU BLU=
0174101360999992015010617204+53768+008659FM-15+002399999V0201601N004110731519N009999199+00201+00001999999ADDGA1021+051821999GA2081+073151999GE19MSL   +99999+99999GF199999021999051821999999MA1101901999999REMMET067METAR ETMN 061720Z 16008KT 9999 FEW170 OVC240 02/M00 Q1019 BLU+BLU=
0151101360999992015010618204+53768+008659FM-15+002399999V0201601N004110335319N008000199+00201+00001999999ADDGA1081+033531999GE19MSL   +99999+99999GF199999081999033531999999MA1101901999999REMMET060METAR ETMN 061820Z 16008KT 8000 OVC110 02/M00 Q1019 BLU BLU=
0151101360999992015010619204+53768+008659FM-15+002399999V0201801N004110335319N008000199+00201+00001999999ADDGA1081+033531999GE19MSL   +99999+99999GF199999081999033531999999MA1101801999999REMMET060METAR ETMN 061920Z 18008KT 8000 OVC110 02/M00 Q1018 BLU BLU=
0212101360999992015010620204+53768+008659FM-15+002399999V0202001N003110121919N009000199+00201+00001999999ADDGA1021+009141999GA2071+012191999GA3081+039621999GE19MSL   +99999+99999GF199999021999009141999999MA1101901999999REMMET089METAR ETMN 062020Z 20006KT 9000 FEW030 BKN040 OVC130 02/M00 Q1019 BLU      BLU BECMG GRN=
0189101360999992015010621204+53768+008659FM-15+002399999V0202201N004610146319N009000199+00301+00001999999ADDGA1041+006711999GA2071+014631999GE19MSL   +99999+99999GF199999041999006711999999MA1101801999999REMMET082METAR ETMN 062120Z 22009KT 9000 SCT022 BKN048 03/M00 Q1018 BLU BLU      BECMG GRN=
0209101360999992015010622204+53768+008659FM-15+002399999V0202301N005110021319N004000199+00201+00001999999ADDGA1041+001521999GA2071+002131999GE19MSL   +99999+99999GF199999041999001521999999MA1101801999999MW1101MW2581REMMET090METAR ETMN 062220Z 23010KT 4000 -RADZ BR SCT005 BKN007 02/00 Q1018      GRN GRN TEMPO YLO=
0208101360999992015010622284+53768+008659FM-16+002399999V0202401N005710015219N003000199+00201+00101999999ADDGA1071+001521999GA2071+002441999GE19MSL   +99999+99999GF199999071999001521999999MA1101801999999MW1101MW2591REMMET089SPECI ETMN 062228Z 24011KT 3000 DZRA BR BKN005 BKN008 02/01 Q1018 YLO      GRN TEMPO YLO=
0183101360999992015010622504+53768+008659FM-16+002399999V0202401N004610009119N002800199+00201+00101999999ADDGA1071+000911999GE19MSL   +99999+99999GF199999071999000911999999MA1101901999999MW1101MW2591REMMET080SPECI ETMN 062250Z 24009KT 2800 DZRA BR BKN003 02/01 Q1019 YLO FCST      CANCEL=
0172101360999992015010623204+53768+008659FM-15+002399999V0202301N004110009119N002500199+00201+00101999999ADDGA1071+000911999GE19MSL   +99999+99999GF199999071999000911999999MA1101801999999MW1101MW2581REMMET069METAR ETMN 062320Z 23008KT 2500 -RADZ BR BKN003 02/01 Q1018 REDZ YLO=
0170101360999992015010700204+53768+008659FM-15+002399999V0202301N005710009119N003700199+00301+00201999999ADDGA1071+000911999GE19MSL   +99999+99999GF199999071999000911999999MA1101801999999MW1101MW2611REMMET067METAR ETMN 070020Z 23011KT 3700 -RA BR BKN003 03/02 Q1018 RERA YLO=
0165101360999992015010701204+53768+008659FM-15+002399999V0202301N005110009119N004000199+00301+00301999999ADDGA1071+000911999GE19MSL   +99999+99999GF199999071999000911999999MA1101901999999MW1101MW2511REMMET062METAR ETMN 070120Z 23010KT 4000 -DZ BR BKN003 03/03 Q1019 YLO=
0164101360999992015010701594+53768+008659FM-16+002399999V0202701N005110006119N002500199+00501+00401999999ADDGA1071+000611999GE19MSL   +99999+99999GF199999071999000611999999MA1101901999999MW1101MW2531REMMET061SPECI ETMN 070159Z 27010KT 2500 DZ BR BKN002 05/04 Q1019 AMB=
0160101360999992015010702204+53768+008659FM-15+002399999V0202601N005710012219N004500199+00501+00401999999ADDGA1071+001221999GE19MSL   +99999+99999GF199999071999001221999999MA1101901999999MW1101REMMET063METAR ETMN 070220Z 26011KT 4500 BR BKN004 05/04 Q1019 REDZ YLO=
0192101360999992015010702524+53768+008659FM-16+002399999V0202801N00511005791CN009999199+00501+00401999999ADDGA1021+001221999GA2041+005791999GA3071+010061999GE19MSL   +99999+99999GF199999021999001221999999MA1102001999999REMMET069SPECI ETMN 070252Z 28010KT 9999 FEW004 SCT019 BKN033 05/04 Q1020 BLU=
0169101360999992015010703204+53768+008659FM-15+002399999V0202901N005110082319N009999199+00501+00401999999ADDGA1021+005791999GA2071+008231999GE19MSL   +99999+99999GF199999021999005791999999MA1102001999999REMMET062METAR ETMN 070320Z 29010KT 9999 FEW019 BKN027 05/04 Q1020 BLU=
0169101360999992015010703214+53768+008659FM-16+002399999V0202901N005110082319N009999199+00501+00401999999ADDGA1021+005791999GA2071+008231999GE19MSL   +99999+99999GF199999021999005791999999MA1102001999999REMMET062SPECI ETMN 070321Z 29010KT 9999 FEW019 BKN027 05/04 Q1020 BLU=
0169101360999992015010704204+53768+008659FM-15+002399999V0202901N006210088419N009999199+00601+00301999999ADDGA1021+003051999GA2071+008841999GE19MSL   +99999+99999GF199999021999003051999999MA1102101999999REMMET062METAR ETMN 070420Z 29012KT 9999 FEW010 BKN029 06/03 Q1021 BLU=
0173101360999992015010705204+53768+008659FM-15+002399999V0202901N004610091419N009999199+00601+00301999999ADDGA1041+006711999GA2071+009141999GE19MSL   +99999+99999GF199999041999006711999999MA1102201999999REMMET066METAR ETMN 070520Z 29009KT 9999 SCT022 BKN030 06/03 Q1022 BLU BLU=
0174101360999992015010706204+53768+008659FM-15+002399999V0202701N00411045721CN009999199+00501+00201999999ADDGA1021+010671999GA2041+045721999GE19MSL   +99999+99999GF199999021999010671999999MA1102201999999REMMET067METAR ETMN 070620Z 27008KT 9999 FEW035 SCT150 05/02 Q1022 BLU+BLU+=
0174101360999992015010707204+53768+008659FM-15+002399999V0202501N00461064011CN009999199+00401+00201999999ADDGA1021+006101999GA2041+064011999GE19MSL   +99999+99999GF199999021999006101999999MA1102301999999REMMET067METAR ETMN 070720Z 25009KT 9999 FEW020 SCT210 04/02 Q1023 BLU+BLU+=
0174101360999992015010708204+53768+008659FM-15+002399999V0202401N004610640119N009999199+00401+00201999999ADDGA1021+005791999GA2071+064011999GE19MSL   +99999+99999GF199999021999005791999999MA1102301999999REMMET067METAR ETMN 070820Z 24009KT 9999 FEW019 BKN210 04/02 Q1023 BLU+BLU+=
0174101360999992015010709204+53768+008659FM-15+002399999V0202401N00511064011CN009999199+00401+00301999999ADDGA1021+006101999GA2041+064011999GE19MSL   +99999+99999GF199999021999006101999999MA1102301999999REMMET067METAR ETMN 070920Z 24010KT 9999 FEW020 SCT210 04/03 Q1023 BLU+BLU+=
0151101360999992015010710204+53768+008659FM-15+002399999V0202501N006219999999N009999199+00501+00301999999ADDGA1021+006101999GE19MSL   +99999+99999GF199999021999006101999999MA1102401999999REMMET060METAR ETMN 071020Z 25012KT 9999 FEW020 05/03 Q1024 BLU+BLU+=
0174101360999992015010711204+53768+008659FM-15+002399999V0202501N00671064011CN009999199+00501+00301999999ADDGA1021+006101999GA2041+064011999GE19MSL   +99999+99999GF199999021999006101999999MA1102301999999REMMET067METAR ETMN 071120Z 25013KT 9999 FEW020 SCT210 05/03 Q1023 BLU+BLU+=
0174101360999992015010712204+53768+008659FM-15+002399999V0202401N00621064011CN009999199+00501+00301999999ADDGA1041+003051999GA2041+064011999GE19MSL   +99999+99999GF199999041999003051999999MA1102301999999REMMET067METAR ETMN 071220Z 24012KT 9999 SCT010 SCT210 05/03 Q1023 BLU+BLU+=
0174101360999992015010713204+53768+008659FM-15+002399999V0202401N00571064011CN009999199+00501+00301999999ADDGA1041+004571999GA2041+064011999GE19MSL   +99999+99999GF199999041999004571999999MA1102301999999REMMET067METAR ETMN 071320Z 24011KT 9999 SCT015 SCT210 05/03 Q1023 BLU+BLU+=
0174101360999992015010714204+53768+008659FM-15+002399999V0202301N004610640119N009999199+00501+00301999999ADDGA1021+004571999GA2071+064011999GE19MSL   +99999+99999GF199999021999004571999999MA1102301999999REMMET067METAR ETMN 071420Z 23009KT 9999 FEW015 BKN210 05/03 Q1023 BLU+BLU+=
0161101360999992015010715204+53768+008659FM-15+002399999V0202301N006210125019N009999199+00501+00301999999ADDGA1071+012501999GE19MSL   +99999+99999GF199999071999012501999999MA1102301999999OC101181REMMET062METAR ETMN 071520Z 23012G23KT 9999 BKN041 05/03 Q1023 BLU BLU=
0160101360999992015010716204+53768+008659FM-15+002399999V0202201N005710070119N009999199+00501+00301999999ADDGA1071+007011999GE19MSL   +99999+99999GF199999071999007011999999MA1102301999999REMMET069METAR ETMN 071620Z 22011KT 9999 BKN023 05/03 Q1023 WHT BLU TEMPO WHT=
0160101360999992015010717204+53768+008659FM-15+002399999V0202201N005710061019N009999199+00501+00301999999ADDGA1071+006101999GE19MSL   +99999+99999GF199999071999006101999999MA1102201999999REMMET069METAR ETMN 071720Z 22011KT 9999 BKN020 05/03 Q1022 WHT BLU TEMPO WHT=
0188101360999992015010718204+53768+008659FM-15+002399999V0202101N006210061019N009999199+00501+00301999999ADDGA1071+006101999GA2071+064011999GE19MSL   +99999+99999GF199999071999006101999999MA1102201999999REMMET081METAR ETMN 071820Z 21012KT 9999 BKN020 BKN210 05/03 Q1022 WHT BLU TEMPO      WHT=
0188101360999992015010719204+53768+008659FM-15+002399999V0202101N006710426719N009999199+00501+00201999999ADDGA1021+006101999GA2071+042671999GE19MSL   +99999+99999GF199999021999006101999999MA1102201999999REMMET081METAR ETMN 071920Z 21013KT 9999 FEW020 BKN140 05/02 Q1022 BLU BLU TEMPO      WHT=
0188101360999992015010720204+53768+008659FM-15+002399999V0202201N007210289619N009999199+00401+00201999999ADDGA1071+028961999GA2081+067061999GE19MSL   +99999+99999GF199999071999028961999999MA1102101999999REMMET081METAR ETMN 072020Z 22014KT 9999 BKN095 OVC220 04/02 Q1021 BLU BLU TEMPO      WHT=
0186101360999992015010721204+53768+008659FM-15+002399999V0202201N008210243819N009999199+00401+00201999999ADDGA1071+024381999GA2081+030481999GE19MSL   +99999+99999GF199999071999024381999999MA1102101999999REMMET079METAR ETMN 072120Z 22016KT 9999 BKN080 OVC100 04/02 Q1021 BLU FCST      CANCEL=
0157101360999992015010722204+53768+008659FM-15+002399999V0202201N008210198119N009999199+00401+00201999999ADDGA1081+019811999GE19MSL   +99999+99999GF199999081999019811999999MA1102001999999OC101341REMMET058METAR ETMN 072220Z 22016G26KT 9999 OVC065 04/02 Q1020 BLU=
0169101360999992015010723204+53768+008659FM-15+002399999V0202101N008210167619N009999199+00401+00201999999ADDGA1071+016761999GA2081+030481999GE19MSL   +99999+99999GF199999071999016761999999MA1101901999999REMMET062METAR ETMN 072320Z 21016KT 9999 BKN055 OVC100 04/02 Q1019 BLU=
0146101360999992015010800204+53768+008659FM-15+002399999V0202101N008810121919N009999199+00401+00101999999ADDGA1081+012191999GE19MSL   +99999+99999GF199999081999012191999999MA1101801999999REMMET055METAR ETMN 080020Z 21017KT 9999 OVC040 04/01 Q1018 BLU=
0190101360999992015010801204+53768+008659FM-15+002399999V0202101N009310073219N008000199+00401+00101999999ADDGA1041+003661999GA2071+007321999GE19MSL   +99999+99999GF199999041999003661999999MA1101801999999MW1611OC101441REMMET069METAR ETMN 080120Z 21018G28KT 8000 -RA SCT012 BKN024 04/01 Q1018 WHT=
0179101360999992015010802204+53768+008659FM-15+002399999V0202101N009310042719N007000199+00301+00101999999ADDGA1041+003051999GA2071+004271999GE19MSL   +99999+99999GF199999041999003051999999MA1101701999999MW1611REMMET066METAR ETMN 080220Z 21018KT 7000 -RA SCT010 BKN014 03/01 Q1017 GRN=
0156101360999992015010803204+53768+008659FM-15+002399999V0202201N008210021319N008000199+00301+00201999999ADDGA1071+002131999GE19MSL   +99999+99999GF199999071999002131999999MA1101701999999MW1611REMMET059METAR ETMN 080320Z 22016KT 8000 -RA BKN007 03/02 Q1017 GRN=
0178101360999992015010804074+53768+008659FM-16+002399999V0202201N008210018319N005000199+00301+00201999999ADDGA1071+001831999GE19MSL   +99999+99999GF199999071999001831999999MA1101601999999MW1101MW2581OC101391REMMET067SPECI ETMN 080407Z 22016G27KT 5000 -RADZ BR BKN006 03/02 Q1016 YLO=
0167101360999992015010804204+53768+008659FM-15+002399999V0202201N008210015219N003000199+00301+00201999999ADDGA1071+001521999GE19MSL   +99999+99999GF199999071999001521999999MA1101601999999MW1101MW2581REMMET064METAR ETMN 080420Z 22016KT 3000 -DZRA BR BKN005 03/02 Q1016 YLO=
0183101360999992015010805204+53768+008659FM-15+002399999V0202201N008210012219N002800199+00401+00301999999ADDGA1071+001221999GE19MSL   +99999+99999GF199999071999001221999999MA1101601999999MW1101MW2531REMMET080METAR ETMN 080520Z 22016KT 2800 DZ BR BKN004 04/03 Q1016 YLO YLO TEMPO      GRN=
0189101360999992015010805424+53768+008659FM-16+002399999V0202201N008810009119N003500199+00401+00301999999ADDGA1071+000911999GE19MSL   +99999+99999GF199999071999000911999999MA1101501999999MW1101MW2511REMMET086SPECI ETMN 080542Z 22017KT 3500 -DZ BR BKN003 04/03 Q1015 REDZ YLO      YLO TEMPO GRN=
0189101360999992015010806204+53768+008659FM-15+002399999V0202201N008210009119N003800199+00401+00301999999ADDGA1071+000911999GE19MSL   +99999+99999GF199999071999000911999999MA1101501999999MW1101MW2511REMMET086METAR ETMN 080620Z 22016KT 3800 -DZ BR BKN003 04/03 Q1015 REDZ YLO      YLO TEMPO GRN=
0184101360999992015010806414+53768+008659FM-16+002399999V0202201N007710009119N002500199+00401+00401999999ADDGA1071+000911999GE19MSL   +99999+99999GF199999071999000911999999MA1101501999999MW1101MW2511REMMET081SPECI ETMN 080641Z 22015KT 2500 -DZ BR BKN003 04/04 Q1015 YLO YLO TEMPO      GRN=
0184101360999992015010807204+53768+008659FM-15+002399999V0202301N007710009119N002200199+00501+00401999999ADDGA1071+000911999GE19MSL   +99999+99999GF199999071999000911999999MA1101501999999MW1101MW2511REMMET081METAR ETMN 080720Z 23015KT 2200 -DZ BR BKN003 05/04 Q1015 YLO YLO TEMPO      GRN=
0184101360999992015010808204+53768+008659FM-15+002399999V0202301N007710009119N003500199+00501+00501999999ADDGA1071+000911999GE19MSL   +99999+99999GF199999071999000911999999MA1101501999999MW1101MW2511REMMET081METAR ETMN 080820Z 23015KT 3500 -DZ BR BKN003 05/05 Q1015 YLO YLO TEMPO      GRN=
0184101360999992015010809204+53768+008659FM-15+002399999V0202301N007710009119N003200199+00601+00501999999ADDGA1071+000911999GE19MSL   +99999+99999GF199999071999000911999999MA1101401999999MW1101MW2511REMMET081METAR ETMN 080920Z 23015KT 3200 -DZ BR BKN003 06/05 Q1014 YLO YLO TEMPO      GRN=
0184101360999992015010810204+53768+008659FM-15+002399999V0202401N007710012219N003200199+00601+00601999999ADDGA1071+001221999GE19MSL   +99999+99999GF199999071999001221999999MA1101501999999MW1101MW2511REMMET081METAR ETMN 081020Z 24015KT 3200 -DZ BR BKN004 06/06 Q1015 YLO YLO TEMPO      GRN=
0183101360999992015010810384+53768+008659FM-16+002399999V0202401N008210009119N002000199+00601+00601999999ADDGA1071+000911999GE19MSL   +99999+99999GF199999071999000911999999MA1101501999999MW1101MW2531REMMET080SPECI ETMN 081038Z 24016KT 2000 DZ BR BKN003 06/06 Q1015 YLO YLO TEMPO      GRN=
0189101360999992015010810484+53768+008659FM-16+002399999V0202401N007710009119N003500199+00601+00601999999ADDGA1071+000911999GE19MSL   +99999+99999GF199999071999000911999999MA1101401999999MW1101MW2511REMMET086SPECI ETMN 081048Z 24015KT 3500 -DZ BR BKN003 06/06 Q1014 REDZ YLO      YLO TEMPO GRN=
0189101360999992015010811204+53768+008659FM-15+002399999V0202401N007710009119N003700199+00601+00601999999ADDGA1071+000911999GE19MSL   +99999+99999GF199999071999000911999999MA1101401999999MW1101MW2511REMMET086METAR ETMN 081120Z 24015KT 3700 -DZ BR BKN003 06/06 Q1014 REDZ YLO      YLO TEMPO GRN=
0184101360999992015010812084+53768+008659FM-16+002399999V0202401N006710009119N002800199+00701+00601999999ADDGA1071+000911999GE19MSL   +99999+99999GF199999071999000911999999MA1101301999999MW1101MW2511REMMET081SPECI ETMN 081208Z 24013KT 2800 -DZ BR BKN003 07/06 Q1013 YLO YLO TEMPO      GRN=
0184101360999992015010812204+53768+008659FM-15+002399999V0202301N006710006119N001900199+00701+00601999999ADDGA1071+000611999GE19MSL   +99999+99999GF199999071999000611999999MA1101301999999MW1101MW2511REMMET081METAR ETMN 081220Z 23013KT 1900 -DZ BR BKN002 07/06 Q1013 AMB GRN TEMPO      AMB=
0184101360999992015010812464+53768+008659FM-16+002399999V0202401N006210009119N002500199+00701+00601999999ADDGA1071+000911999GE19MSL   +99999+99999GF199999071999000911999999MA1101301999999MW1101MW2511REMMET081SPECI ETMN 081246Z 24012KT 2500 -DZ BR BKN003 07/06 Q1013 YLO GRN TEMPO      AMB=
0184101360999992015010813024+53768+008659FM-16+002399999V0202401N006210006119N002500199+00701+00601999999ADDGA1071+000611999GE19MSL   +99999+99999GF199999071999000611999999MA1101301999999MW1101MW2511REMMET081SPECI ETMN 081302Z 24012KT 2500 -DZ BR BKN002 07/06 Q1013 AMB GRN TEMPO      AMB=
0189101360999992015010813204+53768+008659FM-15+002399999V0202401N005710006119N001600199+00701+00601999999ADDGA1071+000611999GE19MSL   +99999+99999GF199999071999000611999999MA1101301999999MW1101MW2591REMMET086METAR COR ETMN 081320Z 24011KT 1600 DZRA BR BKN002 07/06 Q1013 AMB      YLO TEMPO AMB=
0191101360999992015010813384+53768+008659FM-16+002399999V0202401N005110009119N002000199+00701+00601999999ADDGA1071+000911999GE19MSL   +99999+99999GF199999071999000911999999MA1101301999999MW1101MW2581REMMET088SPECI ETMN 081338Z 24010KT 2000 -DZRA BR BKN003 07/06 Q1013 REDZ YLO      YLO TEMPO AMB=
0214101360999992015010814024+53768+008659FM-16+002399999V0202501N006210009119N003000199+00701+00601999999ADDGA1071+000911999GA2071+001831999GE19MSL   +99999+99999GF199999071999000911999999MA1101301999999MW1101MW2581REMMET095SPECI ETMN 081402Z 25012KT 3000 -DZRA BR BKN003 BKN006 07/06 Q1013      REDZ YLO YLO TEMPO AMB=
0214101360999992015010814204+53768+008659FM-15+002399999V0202601N006710024419N003500199+00701+00601999999ADDGA1041+001221999GA2071+002441999GE19MSL   +99999+99999GF199999041999001221999999MA1101301999999MW1101MW2581REMMET095METAR ETMN 081420Z 26013KT 3500 -RADZ BR SCT004 BKN008 07/06 Q1013      REDZ YLO YLO TEMPO AMB=
0212101360999992015010815024+53768+008659FM-16+002399999V0202701N004610070119N003700199+00601+00501999999ADDGA1041+001221999GA2071+007011999GE19MSL   +99999+99999GF199999041999001221999999MA1101301999999MW1101MW2611REMMET093SPECI ETMN 081502Z 27009KT 3700 -RA BR SCT004 BKN023 06/05 Q1013 RERA      GRN GRN TEMPO YLO=
0210101360999992015010815204+53768+008659FM-15+002399999V0202601N005710067119N003700199+00601+00501999999ADDGA1041+001221999GA2071+006711999GE19MSL   +99999+99999GF199999041999001221999999MA1101401999999MW1101MW2631REMMET091METAR COR ETMN 081520Z 26011KT 3700 RA BR SCT004 BKN022 06/05 Q1014      GRN GRN TEMPO YLO=
0212101360999992015010816204+53768+008659FM-15+002399999V0202601N005710082319N004000199+00601+00501999999ADDGA1021+001831999GA2071+008231999GE19MSL   +99999+99999GF199999021999001831999999MA1101401999999MW1101MW2611REMMET093METAR ETMN 081620Z 26011KT 4000 -RA BR FEW006 BKN027 06/05 Q1014 RERA      GRN GRN TEMPO YLO=
0198101360999992015010816504+53768+008659FM-16+002399999V0202601N006210121919N008000199+00601+00501999999ADDGA1041+007011999GA2071+012191999GE19MSL   +99999+99999GF199999041999007011999999MA1101401999999MW1611REMMET085SPECI ETMN 081650Z 26012KT 8000 -RA SCT023 BKN040 06/05 Q1014 BLU BLU      TEMPO GRN=
0200101360999992015010817204+53768+008659FM-15+002399999V0202601N006710045719N007000199+00601+00501999999ADDGA1071+004571999GA2071+010671999GE19MSL   +99999+99999GF199999071999004571999999MA1101401999999MW1581REMMET087METAR ETMN 081720Z 26013KT 7000 -RADZ BKN015 BKN035 06/05 Q1014 WHT      BLU TEMPO GRN=
0160101360999992015010817504+53768+008659FM-16+002399999V0202601N007710036619N009000199+00601+00501999999ADDGA1071+003661999GE19MSL   +99999+99999GF199999071999003661999999MA1101401999999REMMET069SPECI ETMN 081750Z 26015KT 9000 BKN012 06/05 Q1014 GRN BLU TEMPO GRN=
0188101360999992015010818204+53768+008659FM-15+002399999V0202601N007710274319N009999199+00601+00501999999ADDGA1041+004271999GA2071+027431999GE19MSL   +99999+99999GF199999041999004271999999MA1101501999999REMMET081METAR ETMN 081820Z 26015KT 9999 SCT014 BKN090 06/05 Q1015 BLU BLU TEMPO      GRN=
0189101360999992015010819204+53768+008659FM-15+002399999V0202701N00721045721CN009999199+00601+00401999999ADDGA1021+010361999GA2041+045721999GE19MSL   +99999+99999GF199999021999010361999999MA1101601999999REMMET082METAR ETMN 081920Z 27014KT 9999 FEW034 SCT150 06/04 Q1016 BLU+BLU+      TEMPO GRN=
0151101360999992015010820204+53768+008659FM-15+002399999V0202701N008219999999N009999199+00601+00401999999ADDGA1041+012191999GE19MSL   +99999+99999GF199999041999012191999999MA1101701999999REMMET060METAR ETMN 082020Z 27016KT 9999 SCT040 06/04 Q1017 BLU+BLU+=
0151101360999992015010821204+53768+008659FM-15+002399999V0202601N007719999999N009999199+00601+00401999999ADDGA1021+011581999GE19MSL   +99999+99999GF199999021999011581999999MA1101701999999REMMET060METAR ETMN 082120Z 26015KT 9999 FEW038 06/04 Q1017 BLU+BLU+=
0186101360999992015010822204+53768+008659FM-15+002399999V0202601N008810134119N009999199+00601+00401999999ADDGA1021+007921999GA2071+013411999GE19MSL   +99999+99999GF199999021999007921999999MA1101801999999REMMET079METAR ETMN 082220Z 26017KT 9999 FEW026 BKN044 06/04 Q1018 BLU FCST      CANCEL=
0147101360999992015010823204+53768+008659FM-15+002399999V0202501N009819999999N009999199+00501+00401999999ADDGA1021+007011999GE19MSL   +99999+99999GF199999021999007011999999MA1101801999999REMMET056METAR ETMN 082320Z 25019KT 9999 FEW023 05/04 Q1018 BLU+=
0146101360999992015010900204+53768+008659FM-15+002399999V0202501N008210076219N009999199+00501+00401999999ADDGA1071+007621999GE19MSL   +99999+99999GF199999071999007621999999MA1101801999999REMMET055METAR ETMN 090020Z 25016KT 9999 BKN025 05/04 Q1018 BLU=
0169101360999992015010901204+53768+008659FM-15+002399999V0202401N008210396219N009999199+00501+00301999999ADDGA1021+007621999GA2071+039621999GE19MSL   +99999+99999GF199999021999007621999999MA1101801999999REMMET062METAR ETMN 090120Z 24016KT 9999 FEW025 BKN130 05/03 Q1018 BLU=
0146101360999992015010902204+53768+008659FM-15+002399999V0202401N007710396219N009999199+00501+00301999999ADDGA1071+039621999GE19MSL   +99999+99999GF199999071999039621999999MA1101701999999REMMET055METAR ETMN 090220Z 24015KT 9999 BKN130 05/03 Q1017 BLU=
0169101360999992015010903204+53768+008659FM-15+002399999V0202301N008810045719N009999199+00501+00401999999ADDGA1071+004571999GA2071+010671999GE19MSL   +99999+99999GF199999071999004571999999MA1101401999999REMMET062METAR ETMN 090320Z 23017KT 9999 BKN015 BKN035 05/04 Q1014 WHT=
0146101360999992015010904204+53768+008659FM-15+002399999V0202201N008810045719N009999199+00601+00401999999ADDGA1071+004571999GE19MSL   +99999+99999GF199999071999004571999999MA1101201999999REMMET055METAR ETMN 090420Z 22017KT 9999 BKN015 06/04 Q1012 WHT=
0176101360999992015010905204+53768+008659FM-15+002399999V0202201N011310045719N009999199+00601+00301999999ADDGA1071+004571999GE19MSL   +99999+99999GF199999071999004571999999MA1100901999999OC101751REMMET077METAR ETMN 090520Z 22022G34KT 9999 BKN015 06/03 Q1009 WHT WHT TEMPO      GRN=
0197101360999992015010906034+53768+008659FM-16+002399999V0202301N011310033519N004000199+00601+00401999999ADDGA1071+003351999GE19MSL   +99999+99999GF199999071999003351999999MA1100701999999MW1101MW2581OC101701REMMET086SPECI ETMN 090603Z 23022G33KT 4000 -DZRA BR BKN011 06/04 Q1007 GRN      WHT TEMPO GRN=
0176101360999992015010906204+53768+008659FM-15+002399999V0202401N010810048819N008000199+00601+00401999999ADDGA1071+004881999GE19MSL   +99999+99999GF199999071999004881999999MA1100701999999OC101651REMMET077METAR ETMN 090620Z 24021G32KT 8000 BKN016 06/04 Q1007 WHT WHT TEMPO      GRN=
0197101360999992015010906444+53768+008659FM-16+002399999V0202401N011810045719N005000199+00701+00501999999ADDGA1071+004571999GE19MSL   +99999+99999GF199999071999004571999999MA1100601999999MW1101MW2581OC101801REMMET086SPECI ETMN 090644Z 24023G35KT 5000 -RADZ BR BKN015 07/05 Q1006 WHT      WHT TEMPO GRN=
0196101360999992015010906504+53768+008659FM-16+002399999V0202401N011810042719N003700199+00701+00501999999ADDGA1071+004271999GE19MSL   +99999+99999GF199999071999004271999999MA1100601999999MW1101MW2591OC101801REMMET085SPECI ETMN 090650Z 24023G35KT 3700 RADZ BR BKN014 07/05 Q1006 GRN WHT      TEMPO GRN=
0196101360999992015010906554+53768+008659FM-16+002399999V0202401N011810033519N003000199+00701+00501999999ADDGA1071+003351999GE19MSL   +99999+99999GF199999071999003351999999MA1100601999999MW1101MW2591OC101801REMMET085SPECI ETMN 090655Z 24023G35KT 3000 RADZ BR BKN011 07/05 Q1006 YLO WHT      TEMPO YLO=
0214101360999992015010907204+53768+008659FM-15+002399999V0202401N012410024419N003700199+00701+00601999999ADDGA1071+002441999GA2071+003961999GE19MSL   +99999+99999GF199999071999002441999999MA1100601999999MW1101MW2581REMMET095METAR ETMN 090720Z 24024KT 3700 -RADZ BR BKN008 BKN013 07/06 Q1006      RERA GRN WHT TEMPO GRN=
0237101360999992015010907524+53768+008659FM-16+002399999V0202501N012910051819N009000199+00701+00601999999ADDGA1021+002741999GA2071+005181999GA3071+007321999GE19MSL   +99999+99999GF199999021999002741999999MA1100501999999MW1611OC102011REMMET100SPECI ETMN 090752Z 25025G39KT 9000 -RA FEW009 BKN017 BKN024 07/06 Q1005      RERA WHT WHT TEMPO GRN=
0214101360999992015010908204+53768+008659FM-15+002399999V0202501N014910061019N009999199+00801+00601999999ADDGA1071+006101999GA2071+010061999GE19MSL   +99999+99999GF199999071999006101999999MA1100401999999MW1611OC102061REMMET093METAR ETMN 090820Z 25029G40KT 9999 -RA BKN020 BKN033 08/06 Q1004 RERA      WHT WHT TEMPO GRN=
0209101360999992015010908244+53768+008659FM-16+002399999V0202501N015410061019N009999199+00801+00601999999ADDGA1071+006101999GA2071+010061999GE19MSL   +99999+99999GF199999071999006101999999MA1100401999999MW1611OC102321REMMET088SPECI ETMN 090824Z 25030G45KT 9999 -RA BKN020 BKN033 08/06 Q1004 WHT      WHT TEMPO GRN=
0199101360999992015010909204+53768+008659FM-15+002399999V0202601N017510079219N009000199+00901+00601999999ADDGA1071+007921999GA2071+012801999GE19MSL   +99999+99999GF199999071999007921999999MA1100301999999OC102521REMMET084METAR ETMN 090920Z 26034G49KT 9000 BKN026 BKN042 09/06 Q1003 BLU BLU      TEMPO GRN=
0208101360999992015010909594+53768+008659FM-16+002399999V0202701N018510054919N003000199+00901+00501999999ADDGA1071+005491999GA2071+011581999GE19MSL   +99999+99999GF199999071999005491999999MA1100201999999MW1631OC103091REMMET087SPECI ETMN 090959Z 27036G60KT 3000 RA BKN018 BKN038 09/05 Q1002 YLO      BLU TEMPO YLO=
0212101360999992015010910014+53768+008659FM-16+002399999V0202701N020610054919N002500199+00801+00401999999ADDGA1071+005491091GA2071+011581999GE19MSL   +99999+99999GF199999071999005491999999MA1100301999999MW1811OC103651REMMET091SPECI ETMN 091001Z 27040G71KT 2500 SHRA BKN018CB BKN038 08/04 Q1003      YLO BLU TEMPO YLO=
0159101360999992015010910044+53768+008659FM-16+002399999V0202801N023219999999N001800199+99999+99999999999ADDMA1100405999999MW1815MW2885OC103651REMMET093SPECI ETMN 091004Z 28045G71KT 1800 SHRAGS BKN018CB BKN038 06/03 Q1004      YLO BLU TEMPO YLO=EQDD01      0ADE735
0213101360999992015010910094+53768+008659FM-16+002399999V0202901N023710051819N002500199+00501+00401999999ADDGA1071+005181091GA2071+012191999GE19MSL   +99999+99999GF199999071999005181999999MA1100401999999MW1821OC103651REMMET092SPECI ETMN 091009Z 29046G71KT 2500 +SHRA BKN017CB BKN040 05/04 Q1004      YLO BLU TEMPO YLO=
0160101360999992015010910204+53768+008659FM-15+002399999V0203001N019619999999N001600199+99999+99999999999ADDMA1100405999999MW1815MW2885OC102781REMMET094METAR ETMN 091020Z 30038G54KT 1600 +SHRAGS BKN013CB BKN030 06/05 Q1004      YLO WHT TEMPO YLO=EQDD01      0ADE735
0160101360999992015010910234+53768+008659FM-16+002399999V0203001N019619999999N001300199+99999+99999999999ADDMA1100405999999MW1815MW2885OC102781REMMET094SPECI ETMN 091023Z 30038G54KT 1300 +SHRAGS BKN013CB BKN030 06/05 Q1004      AMB WHT TEMPO YLO=EQDD01      0ADE735
0218101360999992015010910314+53768+008659FM-16+002399999V0203001N019610048819N004000199+00601+00501999999ADDGA1071+004881091GA2071+009141999GE19MSL   +99999+99999GF199999071999004881999999MA1100401999999MW1801OC102781REMMET097SPECI ETMN 091031Z 30038G54KT 4000 -SHRA BKN016CB BKN030 06/05 Q1004      RERA GRN BLU TEMPO YLO=
0241101360999992015010910564+53768+008659FM-16+002399999V0202701N01651005181CN006000199+00801+00601999999ADDGA1021+003051999GA2041+005181091GA3071+018291999GE19MSL   +99999+99999GF199999021999003051999999MA1100301999999MW1801OC102371REMMET104SPECI ETMN 091056Z 27032G46KT 6000 -SHRA FEW010 SCT017CB BKN060 08/06      Q1003 RERA WHT BLU TEMPO YLO=
0212101360999992015010911204+53768+008659FM-15+002399999V0202701N016010051819N002000199+00801+00601999999ADDGA1021+003051999GA2071+005181091GE19MSL   +99999+99999GF199999021999003051999999MA1100401999999MW1811OC102321REMMET091METAR ETMN 091120Z 27031G45KT 2000 SHRA FEW010 BKN017CB 08/06 Q1004      YLO BLU TEMPO YLO=
0153101360999992015010911394+53768+008659FM-16+002399999V0202801N018019999999N002000199+99999+99999999999ADDMA1100305999999MW1815MW2885OC102931REMMET087SPECI ETMN 091139Z 28035G57KT 2000 +SHGSRA BKN015CB 06/04 Q1003 YLO      BLU TEMPO YLO=EQDD01      0ADE735
0195101360999992015010911464+53768+008659FM-16+002399999V0202901N017510061019N006000199+00601+00401999999ADDGA1071+006101091GE19MSL   +99999+99999GF199999071999006101999999MA1100301999999MW1801OC102571REMMET090SPECI ETMN 091146Z 29034G50KT 6000 -SHRA BKN020CB 06/04 Q1003 REGS      WHT BLU TEMPO YLO=
0204101360999992015010912204+53768+008659FM-15+002399999V0202701N014910121919N009999199+00801+00501999999ADDGA1021+009141999GA2071+012191999GE19MSL   +99999+99999GF199999021999009141999999MA1100401999999OC102161REMMET089METAR ETMN 091220Z 27029G42KT 9999 FEW030 BKN040 08/05 Q1004 REGS BLU      BLU TEMPO YLO=
0235101360999992015010913084+53768+008659FM-16+002399999V0202901N016510076219N005000199+00701+00401999999ADDGA1021+003961999GA2071+007621091GA3071+030481999GE19MSL   +99999+99999GF199999021999003961999999MA1100501999999MW1811OC102421REMMET098SPECI ETMN 091308Z 29032G47KT 5000 SHRA FEW013 BKN025CB BKN100 07/04      Q1005 WHT BLU TEMPO YLO=
0230101360999992015010913204+53768+008659FM-15+002399999V0202901N012910076219N006000199+00601+00401999999ADDGA1021+004571999GA2071+007621091GA3071+012191999GE19MSL   +99999+99999GF199999021999004571999999MA1100501999999MW1801REMMET101METAR ETMN 091320Z 29025KT 6000 -SHRA FEW015 BKN025CB BKN040 06/04      Q1005 RERA WHT BLU TEMPO YLO=
0199101360999992015010914204+53768+008659FM-15+002399999V0202701N014910426719N008000199+00801+00401999999ADDGA1041+010671999GA2071+042671999GE19MSL   +99999+99999GF199999041999010671999999MA1100501999999OC102011REMMET084METAR ETMN 091420Z 27029G39KT 8000 SCT035 BKN140 08/04 Q1005 BLU BLU      TEMPO YLO=
0209101360999992015010915204+53768+008659FM-15+002399999V0202601N012910079219N006000199+00801+00401999999ADDGA1071+007921999GA2081+036581999GE19MSL   +99999+99999GF199999071999007921999999MA1100601999999MW1611OC102061REMMET088METAR ETMN 091520Z 26025G40KT 6000 -RA BKN026 OVC120 08/04 Q1006 WHT      BLU TEMPO WHT=
0186101360999992015010916204+53768+008659FM-15+002399999V0202701N012910106719N007000199+00801+00401999999ADDGA1071+010671999GA2071+039621999GE19MSL   +99999+99999GF199999071999010671999999MA1100701999999REMMET079METAR ETMN 091620Z 27025KT 7000 BKN035 BKN130 08/04 Q1007 WHT FCST      CANCEL=
0208101360999992015010917204+53768+008659FM-15+002399999V0202601N013910137219N009000199+00801+00401999999ADDGA1021+007621999GA2071+013721999GA3081+036581999GE19MSL   +99999+99999GF199999021999007621999999MA1100701999999OC101901REMMET077METAR ETMN 091720Z 26027G37KT 9000 FEW025 BKN045 OVC120 08/04 Q1007      BLU=
0180101360999992015010918204+53768+008659FM-15+002399999V0202601N012910137219N009999199+00801+00401999999ADDGA1071+013721999GA2081+036581999GE19MSL   +99999+99999GF199999071999013721999999MA1100701999999OC101801REMMET065METAR ETMN 091820Z 26025G35KT 9999 BKN045 OVC120 08/04 Q1007 BLU=
0167101360999992015010919204+53768+008659FM-15+002399999V0202601N012410137219N009000199+00801+00401999999ADDGA1071+013721999GE19MSL   +99999+99999GF199999071999013721999999MA1100701999999MW1611OC101801REMMET062METAR ETMN 091920Z 26024G35KT 9000 -RA BKN045 08/04 Q1007 BLU=
0169101360999992015010920204+53768+008659FM-15+002399999V0202501N011810082319N009999199+00601+00401999999ADDGA1041+002741999GA2071+008231999GE19MSL   +99999+99999GF199999041999002741999999MA1100701999999REMMET062METAR ETMN 092020Z 25023KT 9999 SCT009 BKN027 06/04 Q1007 BLU=
0169101360999992015010921204+53768+008659FM-15+002399999V0202401N006710106719N009999199+00601+00401999999ADDGA1021+005791999GA2071+010671999GE19MSL   +99999+99999GF199999021999005791999999MA1100601999999REMMET062METAR ETMN 092120Z 24013KT 9999 FEW019 BKN035 06/04 Q1006 BLU=
0155101360999992015010921514+53768+008659FM-16+002399999V0202401N005710009119N003000199+00501+00401999999ADDGA1071+000911999GE19MSL   +99999+99999GF199999071999000911999999MA1100601999999MW1531REMMET058SPECI ETMN 092151Z 24011KT 3000 DZ BKN003 05/04 Q1006 YLO=
0155101360999992015010922204+53768+008659FM-15+002399999V0202301N005710006119N003000199+00501+00401999999ADDGA1071+000611999GE19MSL   +99999+99999GF199999071999000611999999MA1100501999999MW1531REMMET058METAR ETMN 092220Z 23011KT 3000 DZ BKN002 05/04 Q1005 AMB=
0161101360999992015010923204+53768+008659FM-15+002399999V0202101N005110009119N004000199+00501+00501999999ADDGA1071+000911999GE19MSL   +99999+99999GF199999071999000911999999MA1100401999999MW1511REMMET064METAR ETMN 092320Z 21010KT 4000 -DZ BKN003 05/05 Q1004 REDZ YLO=
0155101360999992015011000204+53768+008659FM-15+002399999V0202201N005710009119N003800199+00601+00501999999ADDGA1071+000911999GE19MSL   +99999+99999GF199999071999000911999999MA1100201999999MW1531REMMET058METAR ETMN 100020Z 22011KT 3800 DZ BKN003 06/05 Q1002 YLO=
0155101360999992015011001204+53768+008659FM-15+002399999V0202501N007210009119N003000199+00701+00701999999ADDGA1071+000911999GE19MSL   +99999+99999GF199999071999000911999999MA1100201999999MW1531REMMET058METAR ETMN 100120Z 25014KT 3000 DZ BKN003 07/07 Q1002 YLO=
0172101360999992015011001394+53768+008659FM-16+002399999V0202701N011810012219N005000199+01001+00901999999ADDGA1071+001221999GE19MSL   +99999+99999GF199999071999001221999999MA1100101999999MW1511OC101851REMMET067SPECI ETMN 100139Z 27023G36KT 5000 -DZ BKN004 10/09 Q1001 REDZ YLO=
0166101360999992015011001514+53768+008659FM-16+002399999V0202701N013410012219N002500199+01001+00901999999ADDGA1071+001221999GE19MSL   +99999+99999GF199999071999001221999999MA1100101999999MW1531OC101961REMMET061SPECI ETMN 100151Z 27026G38KT 2500 DZ BKN004 10/09 Q1001 YLO=
0181101360999992015011002204+53768+008659FM-15+002399999V0202701N014410021319N004500199+01001+00901999999ADDGA1071+002131999GE19MSL   +99999+99999GF199999071999002131999999MA1100101999999MW1101MW2511OC102161REMMET070METAR ETMN 100220Z 27028G42KT 4500 -DZ BR BKN007 10/09 Q1001 REDZ GRN=
0180101360999992015011003204+53768+008659FM-15+002399999V0202701N013410067119N009999199+01101+00901999999ADDGA1041+002131999GA2071+006711999GE19MSL   +99999+99999GF199999041999002131999999MA1100101999999OC102111REMMET065METAR ETMN 100320Z 27026G41KT 9999 SCT007 BKN022 11/09 Q1001 WHT=
0157101360999992015011004204+53768+008659FM-15+002399999V0202601N013410048819N009999199+01101+00901999999ADDGA1071+004881999GE19MSL   +99999+99999GF199999071999004881999999MA1100101999999OC101851REMMET058METAR ETMN 100420Z 26026G36KT 9999 BKN016 11/09 Q1001 WHT=
0146101360999992015011005204+53768+008659FM-15+002399999V0202601N012410048819N009999199+01101+00901999999ADDGA1071+004881999GE19MSL   +99999+99999GF199999071999004881999999MA1100001999999REMMET055METAR ETMN 100520Z 26024KT 9999 BKN016 11/09 Q1000 WHT=
0157101360999992015011006204+53768+008659FM-15+002399999V0202501N012910039619N009999199+01101+00901999999ADDGA1071+003961999GE19MSL   +99999+99999GF199999071999003961999999MA1099901999999OC101801REMMET058METAR ETMN 100620Z 25025G35KT 9999 BKN013 11/09 Q0999 GRN=
0157101360999992015011007204+53768+008659FM-15+002399999V0202501N013410039619N009999199+01101+00901999999ADDGA1071+003961999GE19MSL   +99999+99999GF199999071999003961999999MA1099801999999OC102011REMMET058METAR ETMN 100720Z 25026G39KT 9999 BKN013 11/09 Q0998 GRN=
0157101360999992015011007474+53768+008659FM-16+002399999V0202501N014410051819N009999199+01201+00901999999ADDGA1071+005181999GE19MSL   +99999+99999GF199999071999005181999999MA1099701999999OC102421REMMET058SPECI ETMN 100747Z 25028G47KT 9999 BKN017 12/09 Q0997 WHT=
0157101360999992015011008204+53768+008659FM-15+002399999V0202501N012910054919N009999199+01101+00901999999ADDGA1071+005491999GE19MSL   +99999+99999GF199999071999005491999999MA1099701999999OC101961REMMET058METAR ETMN 100820Z 25025G38KT 9999 BKN018 11/09 Q0997 WHT=
0157101360999992015011009204+53768+008659FM-15+002399999V0202501N014410061019N009999199+01101+00801999999ADDGA1071+006101999GE19MSL   +99999+99999GF199999071999006101999999MA1099701999999OC102011REMMET058METAR ETMN 100920Z 25028G39KT 9999 BKN020 11/08 Q0997 WHT=
0167101360999992015011010084+53768+008659FM-16+002399999V0202501N016010051819N008000199+01101+00801999999ADDGA1071+005181999GE19MSL   +99999+99999GF199999071999005181999999MA1099501999999MW1511OC102321REMMET062SPECI ETMN 101008Z 25031G45KT 8000 -DZ BKN017 11/08 Q0995 WHT=
0176101360999992015011010204+53768+008659FM-15+002399999V0202501N016510036619N004000199+01101+00901999999ADDGA1071+003661999GE19MSL   +99999+99999GF199999071999003661999999MA1099501999999MW1101MW2511OC102211REMMET065METAR ETMN 101020Z 25032G43KT 4000 -DZ BR BKN012 11/09 Q0995 GRN=
0205101360999992015011011204+53768+008659FM-15+002399999V0202501N013910021319N004800199+01001+00901999999ADDGA1071+002131999GA2081+006101999GE19MSL   +99999+99999GF199999071999002131999999MA1099401999999MW1101MW2591OC102011REMMET078METAR ETMN 101120Z 25027G39KT 4800 RADZ BR BKN007 OVC020 10/09 Q0994      GRN=
0205101360999992015011011364+53768+008659FM-16+002399999V0202501N015410015219N004500199+01001+00901999999ADDGA1071+001521999GA2081+006101999GE19MSL   +99999+99999GF199999071999001521999999MA1099401999999MW1101MW2591OC102421REMMET078SPECI ETMN 101136Z 25030G47KT 4500 RADZ BR BKN005 OVC020 10/09 Q0994      YLO=
0204101360999992015011012014+53768+008659FM-16+002399999V0202601N014910015219N004500199+01001+00901999999ADDGA1071+001521999GA2081+004571999GE19MSL   +99999+99999GF199999071999001521999999MA1099401999999MW1101MW2651OC102061REMMET077SPECI ETMN 101201Z 26029G40KT 4500 +RA BR BKN005 OVC015 10/09 Q0994      YLO=
0223101360999992015011012084+53768+008659FM-16+002399999V0202701N017010091419N008000199+01001+00901999999ADDGA1041+001521999GA2071+009141999GA3071+018291999GE19MSL   +99999+99999GF199999041999001521999999MA1099401999999MW1611OC102731REMMET086SPECI ETMN 101208Z 27033G53KT 8000 -RA SCT005 BKN030 BKN060 10/09 Q0994      RERA BLU=
0200101360999992015011012204+53768+008659FM-15+002399999V0202801N016510137219N008000199+00901+00601999999ADDGA1021+001521999GA2081+013721999GE19MSL   +99999+99999GF199999021999001521999999MA1099501999999MW1611OC102371REMMET079METAR ETMN 101220Z 28032G46KT 8000 -RA FEW005 OVC045 09/06 Q0995 RERA      BLU=
0218101360999992015011012344+53768+008659FM-16+002399999V0202801N019610131119N009999199+00901+00401999999ADDGA1021+001521999GA2071+013111999GA3071+018291999GE19MSL   +99999+99999GF199999021999001521999999MA1099501999999MW1611OC102881REMMET081SPECI ETMN 101234Z 28038G56KT 9999 -RA FEW005 BKN043 BKN060 09/04 Q0995      BLU=
0208101360999992015011013204+53768+008659FM-15+002399999V0202801N014910243819N009999199+00801+00401999999ADDGA1021+006101999GA2071+024381999GA3071+076201999GE19MSL   +99999+99999GF199999021999006101999999MA1099601999999OC102211REMMET077METAR ETMN 101320Z 28029G43KT 9999 FEW020 BKN080 BKN250 08/04 Q0996      BLU=
0181101360999992015011014204+53768+008659FM-15+002399999V0202801N017510640119N009999199+00801+00201999999ADDGA1021+004571999GA2071+064011999GE19MSL   +99999+99999GF199999021999004571999999MA1099701999999OC102321REMMET066METAR ETMN 101420Z 28034G45KT 9999 FEW015 BKN210 08/02 Q0997 BLU+=
0181101360999992015011015204+53768+008659FM-15+002399999V0202801N01651067061CN009999199+00701+00201999999ADDGA1021+009141999GA2041+067061999GE19MSL   +99999+99999GF199999021999009141999999MA1099901999999OC102161REMMET066METAR ETMN 101520Z 28032G42KT 9999 FEW030 SCT220 07/02 Q0999 BLU+=
0181101360999992015011015294+53768+008659FM-16+002399999V0202801N01651067061CN009999199+00701+00201999999ADDGA1041+009141999GA2041+067061999GE19MSL   +99999+99999GF199999041999009141999999MA1099901999999OC102321REMMET066SPECI ETMN 101529Z 28032G45KT 9999 SCT030 SCT220 07/02 Q0999 BLU+=
0172101360999992015011016204+53768+008659FM-15+002399999V0202801N01541067061CN009999199+00601+00201999999ADDGA1021+009141091GA2041+067061999GE19MSL   +99999+99999GF199999021999009141999999MA1100001999999REMMET065METAR ETMN 101620Z 28030KT 9999 FEW030CB SCT220 06/02 Q1000 BLU+=
0181101360999992015011017204+53768+008659FM-15+002399999V0202801N01651064011CN009999199+00601+00101999999ADDGA1041+010061999GA2041+064011999GE19MSL   +99999+99999GF199999041999010061999999MA1100101999999OC102211REMMET066METAR ETMN 101720Z 28032G43KT 9999 SCT033 SCT210 06/01 Q1001 BLU+=
0158101360999992015011018204+53768+008659FM-15+002399999V0202801N016019999999N009999199+00601+00101999999ADDGA1041+009451999GE19MSL   +99999+99999GF199999041999009451999999MA1100201999999OC102421REMMET059METAR ETMN 101820Z 28031G47KT 9999 SCT031 06/01 Q1002 BLU+=
0202101360999992015011019204+53768+008659FM-15+002399999V0202801N014910091419N009999199+00601+00001999999ADDGA1071+009141091GA2071+064011999GE19MSL   +99999+99999GF199999071999009141999999MA1100301999999MW1811OC102011REMMET081METAR COR ETMN 101920Z 28029G39KT 9999 SHRA BKN030CB BKN210 06/00 Q1003      BLU=
0163101360999992015011020204+53768+008659FM-15+002399999V0202801N014919999999N009999199+00601+00101999999ADDGA1021+009141999GE19MSL   +99999+99999GF199999021999009141999999MA1100301999999OC102011REMMET064METAR ETMN 102020Z 28029G39KT 9999 FEW030 06/01 Q1003 RERA BLU+=
0135101360999992015011021204+53768+008659FM-15+002399999V0202801N016019999999N009999199+99999+99999999999ADDMA1100405999999MW1805MW2875OC102271REMMET069METAR ETMN 102120Z 28031G44KT 9999 -SHGSRA SCT030CB 06/00 Q1004 BLU+=EQDD01      0ADE735
0158101360999992015011021404+53768+008659FM-16+002399999V0202801N015419999999N009999199+00501+00101999999ADDGA1021+015241999GE19MSL   +99999+99999GF199999021999015241999999MA1100401999999OC102321REMMET059SPECI ETMN 102140Z 28030G45KT 9999 FEW050 05/01 Q1004 BLU+=
0177101360999992015011022204+53768+008659FM-15+002399999V0202801N016010121919N009999199+00601+00001999999ADDGA1021+009141081GA2071+012191999GE19MSL   +99999+99999GF199999021999009141999999MA1100401999999REMMET070METAR ETMN 102220Z 28031KT 9999 FEW030TCU BKN040 06/00 Q1004 REGS BLU=
0161101360999992015011023204+53768+008659FM-15+002399999V0202801N015419999999N009999199+00501+00101999999ADDGA1021+009141081GE19MSL   +99999+99999GF199999021999009141999999MA1100501999999OC102061REMMET062METAR ETMN 102320Z 28030G40KT 9999 FEW030TCU 05/01 Q1005 BLU+=
0159101360999992015011100204+53768+008659FM-15+002399999V0202801N014919999999N009999199+00501+00001999999ADDGA1041+010671999GE19MSL   +99999+99999GF199999041999010671999999MA1100401999999OC102011REMMET060METAR ETMN 110020Z 28029G39KT 9999 SCT035 05/M00 Q1004 BLU+=
0197101360999992015011101204+53768+008659FM-15+002399999V0202701N012910487719N009999199+00601+00101999999ADDGA1041+009141999GA2071+048771999GE19MSL   +99999+99999GF199999041999009141999999MA1100401999999MW1801OC101801REMMET076METAR ETMN 110120Z 27025G35KT 9999 -SHRA SCT030 BKN160 06/01 Q1004      BLU=
0184101360999992015011102204+53768+008659FM-15+002399999V0202701N01491015241CN009999199+00401+00101999999ADDGA1021+006711081GA2041+015241999GE19MSL   +99999+99999GF199999021999006711999999MA1100401999999OC102371REMMET069METAR ETMN 110220Z 27029G46KT 9999 FEW022TCU SCT050 04/01 Q1004 BLU+=
0181101360999992015011103204+53768+008659FM-15+002399999V0202701N01181015241CN009999199+00501+00101999999ADDGA1041+007621999GA2041+015241999GE19MSL   +99999+99999GF199999041999007621999999MA1100301999999OC101901REMMET066METAR ETMN 110320Z 27023G37KT 9999 SCT025 SCT050 05/01 Q1003 BLU+=
0146101360999992015011103464+53768+008659FM-16+002399999V0202701N011319999999N008000199+99999+99999999999ADDMA1100305999999MW1805MW2875OC101851REMMET080SPECI ETMN 110346Z 27022G36KT 8000 -SHGSRA BKN020CB BKN050 05/01 Q1003      WHT=EQDD01      0ADE735
0193101360999992015011104204+53768+008659FM-15+002399999V0202701N011310152419N009999199+00501+00101999999ADDGA1021+009141081GA2071+015241999GE19MSL   +99999+99999GF199999021999009141999999MA1100301999999OC101751REMMET078METAR ETMN 110420Z 27022G34KT 9999 FEW030TCU BKN050 05/01 Q1003 REGS      BLU=
0182101360999992015011104504+53768+008659FM-16+002399999V0202601N011810137219N009999199+00501+00101999999ADDGA1041+004571091GA2071+013721999GE19MSL   +99999+99999GF199999041999004571999999MA1100301999999MW1131REMMET069SPECI ETMN 110450Z 26023KT 9999 VCTS SCT015CB BKN045 05/01 Q1003 BLU=
0198101360999992015011105204+53768+008659FM-15+002399999V0202701N010810152419N009999199+00401+00101999999ADDGA1041+004571091GA2071+015241999GE19MSL   +99999+99999GF199999041999004571999999MA1100201999999MW1131OC101651REMMET077METAR ETMN 110520Z 27021G32KT 9999 VCTS SCT015CB BKN050 04/01 Q1002      BLU=
0147101360999992015011106154+53768+008659FM-16+002399999V0202701N009819999999N008000199+99999+99999999999ADDMA1100205999999MW1805MW2875REMMET089SPECI ETMN 110615Z 27019KT 8000 -SHGSRA FEW015 BKN020CB BKN050 04/01      Q1002 RETS WHT=EQDD01      0ADE735
0216101360999992015011106204+53768+008659FM-15+002399999V0202701N010310061019N008000199+00401+00101999999ADDGA1021+004571999GA2071+006101091GA3071+015241999GE19MSL   +99999+99999GF199999021999004571999999MA1100201999999MW1801REMMET087METAR ETMN 110620Z 27020KT 8000 -SHRA FEW015 BKN020CB BKN050 04/01      Q1002 RETS WHT=
0215101360999992015011106284+53768+008659FM-16+002399999V0202701N01291006101CN009999199+00401+00101999999ADDGA1021+004571999GA2041+006101091GA3071+018291999GE19MSL   +99999+99999GF199999021999004571999999MA1100201999999OC101901REMMET084SPECI ETMN 110628Z 27025G37KT 9999 FEW015 SCT020CB BKN060 04/01 Q1002      REGS BLU=
0198101360999992015011107064+53768+008659FM-16+002399999V0202801N014910085319N006000199+00501+00101999999ADDGA1041+004571091GA2071+008531999GE19MSL   +99999+99999GF199999041999004571999999MA1100201999999MW1161OC102371REMMET077SPECI ETMN 110706Z 28029G46KT 6000 VCSH SCT015CB BKN028 05/01 Q1002      WHT=
0199101360999992015011107204+53768+008659FM-15+002399999V0203001N017010091419N008000199+00401+00001999999ADDGA1041+004571091GA2071+009141999GE19MSL   +99999+99999GF199999041999004571999999MA1100201999999MW1801OC102371REMMET078METAR ETMN 110720Z 30033G46KT 8000 -SHRA SCT015CB BKN030 04/00 Q1002      BLU=
0148101360999992015011107394+53768+008659FM-16+002399999V0203001N012919999999N008000199+99999+99999999999ADDMA1100305999999MW1835MW2875OC101801REMMET082SPECI ETMN 110739Z 30025G35KT 8000 -SHRASNGS BKN015CB OVC035 04/01      Q1003 WHT=EQDD01      0ADE735
0136101360999992015011108204+53768+008659FM-15+002399999V0202701N014419999999N005000199+99999+99999999999ADDMA1100305999999MW1845MW2885OC103091REMMET070METAR ETMN 110820Z 27028G60KT 5000 +SHRASNGS BKN015CB 05/01 Q1003 WHT=EQDD01      0ADE735
0204101360999992015011109204+53768+008659FM-15+002399999V0202701N010810609619N009999199+00501+00201999999ADDGA1041+005491091GA2071+060961999GE19MSL   +99999+99999GF199999041999005491999999MA1100301999999MW1161OC101651REMMET083METAR ETMN 110920Z 27021G32KT 9999 VCSH SCT018CB BKN200 05/02 Q1003      REGS BLU+=
0225101360999992015011109284+53768+008659FM-16+002399999V0202801N01341010671CN009999199+00501+00101999999ADDGA1041+005491091GA2041+010671999GA3071+060961999GE19MSL   +99999+99999GF199999041999005491999999MA1100301999999MW1831OC102011REMMET088SPECI ETMN 110928Z 28026G39KT 9999 -SHRASN SCT018CB SCT035 BKN200 05/01      Q1003 BLU+=
0224101360999992015011109374+53768+008659FM-16+002399999V0202801N013910091419N009999199+00501+00101999999ADDGA1041+005491091GA2071+009141999GA3071+060961999GE19MSL   +99999+99999GF199999041999005491999999MA1100401999999MW1831OC102371REMMET087SPECI ETMN 110937Z 28027G46KT 9999 -SHRASN SCT018CB BKN030 BKN200 05/01      Q1004 BLU=
0143101360999992015011109414+53768+008659FM-16+002399999V0202801N012919999999N005000199+99999+99999999999ADDMA1100405999999MW1845MW2885REMMET085SPECI ETMN 110941Z 28025KT 5000 SHGSRASN SCT018CB BKN030 BKN200 05/01      Q1004 WHT=EQDD01      0ADE735
0226101360999992015011110204+53768+008659FM-15+002399999V0202901N012410085319N009999199+00501+00101999999ADDGA1021+005491091GA2071+008531999GA3071+060961999GE19MSL   +99999+99999GF199999021999005491999999MA1100401999999MW1161OC101751REMMET089METAR ETMN 111020Z 29024G34KT 9999 VCSH FEW018CB BKN028 BKN200 05/01      Q1004 REGS BLU=
0155101360999992015011110314+53768+008659FM-16+002399999V0203001N014419999999N009999199+99999+99999999999ADDMA1100505999999MW1835MW2875OC102571REMMET089SPECI ETMN 111031Z 30028G50KT 9999 -SHRASNGS SCT018CB BKN030 BKN200      05/01 Q1005 BLU=EQDD01      0ADE735
0201101360999992015011111204+53768+008659FM-15+002399999V0203001N014410076219N008000199+00601+00201999999ADDGA1021+003051999GA2071+007621091GE19MSL   +99999+99999GF199999021999003051999999MA1100501999999MW1831OC102011REMMET080METAR ETMN 111120Z 30028G39KT 8000 -SHRASN FEW010 BKN025CB 06/02 Q1005      BLU=
0221101360999992015011112204+53768+008659FM-15+002399999V0202901N01491006101CN009000199+00601+00101999999ADDGA1021+003051999GA2041+006101091GA3071+012191999GE19MSL   +99999+99999GF199999021999003051999999MA1100501999999MW1161OC102161REMMET084METAR ETMN 111220Z 29029G42KT 9000 VCSH FEW010 SCT020CB BKN040 06/01      Q1005 BLU=
0223101360999992015011113084+53768+008659FM-16+002399999V0202801N017010054919N004000199+00401+00101999999ADDGA1041+003051999GA2071+005491091GA3071+011891999GE19MSL   +99999+99999GF199999041999003051999999MA1100601999999MW1841OC102471REMMET086SPECI ETMN 111308Z 28033G48KT 4000 SHRASN SCT010 BKN018CB BKN039 04/01      Q1006 GRN=
0217101360999992015011113204+53768+008659FM-15+002399999V0203001N01491006101CN009999199+00501+00101999999ADDGA1021+003051999GA2041+006101091GA3071+013721999GE19MSL   +99999+99999GF199999021999003051999999MA1100601999999OC102061REMMET086METAR ETMN 111320Z 30029G40KT 9999 FEW010 SCT020CB BKN045 05/01 Q1006      RERASN BLU=
0153101360999992015011114204+53768+008659FM-15+002399999V0202801N016019999999N009000199+99999+99999999999ADDMA1100705999999MW1805MW2875OC102371REMMET087METAR ETMN 111420Z 28031G46KT 9000 -SHRAGS FEW010 SCT018CB BKN050 04/02      Q1007 BLU=EQDD01      0ADE735
0183101360999992015011115204+53768+008659FM-15+002399999V0203001N01181013721CN009999199+00501+00101999999ADDGA1021+005491091GA2041+013721999GE19MSL   +99999+99999GF199999021999005491999999MA1100801999999OC101701REMMET068METAR ETMN 111520Z 30023G33KT 9999 FEW018CB SCT045 05/01 Q1008 BLU+=
0183101360999992015011115314+53768+008659FM-16+002399999V0202901N01441013721CN009999199+00501+00101999999ADDGA1021+005491091GA2041+013721999GE19MSL   +99999+99999GF199999021999005491999999MA1100801999999OC102011REMMET068SPECI ETMN 111531Z 29028G39KT 9999 FEW018CB SCT045 05/01 Q1008 BLU+=
0146101360999992015011116204+53768+008659FM-15+002399999V0203001N014919999999N009000199+99999+99999999999ADDMA1100905999999MW1805MW2875OC102271REMMET080METAR ETMN 111620Z 30029G44KT 9000 -SHRAGS SCT019CB BKN040 05/02 Q1009      BLU=EQDD01      0ADE735
0133101360999992015011116424+53768+008659FM-16+002399999V0203001N011319999999N004000199+99999+99999999999ADDMA1100905999999MW1815MW2885OC101751REMMET067SPECI ETMN 111642Z 30022G34KT 4000 SHGSRA BKN017CB 05/02 Q1009 GRN=EQDD01      0ADE735
0193101360999992015011116494+53768+008659FM-16+002399999V0203101N011810051819N008000199+00401+00201999999ADDGA1071+005181091GA2071+010671999GE19MSL   +99999+99999GF199999071999005181999999MA1100901999999MW1801REMMET080SPECI ETMN 111649Z 31023KT 8000 -SHRA BKN017CB BKN035 04/02 Q1009 REGS      WHT=
0176101360999992015011117204+53768+008659FM-15+002399999V0202901N012910121919N009999199+00601+00301999999ADDGA1021+006711091GA2071+012191999GE19MSL   +99999+99999GF199999021999006711999999MA1100901999999REMMET069METAR ETMN 111720Z 29025KT 9999 FEW022CB BKN040 06/03 Q1009 REGS BLU=
0145101360999992015011117394+53768+008659FM-16+002399999V0202801N012419999999N004500199+99999+99999999999ADDMA1100805999999MW1815MW2885OC102631REMMET079SPECI ETMN 111739Z 28024G51KT 4500 SHRAGS BKN018CB BKN040 06/03 Q1008      GRN=EQDD01      0ADE735
0204101360999992015011117474+53768+008659FM-16+002399999V0202901N017010131119N009000199+00501+00201999999ADDGA1041+004881091GA2071+013111999GE19MSL   +99999+99999GF199999041999004881999999MA1100901999999MW1801OC102631REMMET083SPECI ETMN 111747Z 29033G51KT 9000 -SHRA SCT016CB BKN043 05/02 Q1009      RERA BLU=
0177101360999992015011118204+53768+008659FM-15+002399999V0202801N011310061019N009000199+00601+00301999999ADDGA1071+006101081GA2071+014331999GE19MSL   +99999+99999GF199999071999006101999999MA1100901999999REMMET070METAR ETMN 111820Z 28022KT 9000 BKN020TCU BKN047 06/03 Q1009 RERA WHT=
0200101360999992015011118484+53768+008659FM-16+002399999V0202801N012910125019N009000199+00601+00301999999ADDGA1041+006101081GA2071+012501999GE19MSL   +99999+99999GF199999041999006101999999MA1101001999999MW1801OC101851REMMET079SPECI ETMN 111848Z 28025G36KT 9000 -SHRA SCT020TCU BKN041 06/03 Q1010      BLU=
0181101360999992015011119204+53768+008659FM-15+002399999V0202901N010810054919N009000199+00601+00301999999ADDGA1071+005491999GA2071+010671999GE19MSL   +99999+99999GF199999071999005491999999MA1101001999999MW1801REMMET068METAR ETMN 111920Z 29021KT 9000 -SHRA BKN018 BKN035 06/03 Q1010 WHT=
0182101360999992015011120204+53768+008659FM-15+002399999V0202901N011310061019N005000199+00601+00401999999ADDGA1041+003661999GA2081+006101091GE19MSL   +99999+99999GF199999041999003661999999MA1101101999999MW1811REMMET069METAR ETMN 112020Z 29022KT 5000 SHRA SCT012 OVC020CB 06/04 Q1011 WHT=
0174101360999992015011121204+53768+008659FM-15+002399999V0202801N011310057919N009999199+00601+00401999999ADDGA1071+005791999GA2081+013721999GE19MSL   +99999+99999GF199999071999005791999999MA1101101999999REMMET067METAR ETMN 112120Z 28022KT 9999 BKN019 OVC045 06/04 Q1011 RERA WHT=
0218101360999992015011122204+53768+008659FM-15+002399999V0202701N010310061019N008000199+00601+00401999999ADDGA1041+003051999GA2071+006101999GA3081+010671999GE19MSL   +99999+99999GF199999041999003051999999MA1101201999999MW1611OC101541REMMET081METAR ETMN 112220Z 27020G30KT 8000 -RA SCT010 BKN020 OVC035 06/04 Q1012      WHT=
0202101360999992015011123204+53768+008659FM-15+002399999V0202601N010810051819N007000199+00601+00401999999ADDGA1071+005181999GA2081+013721999GE19MSL   +99999+99999GF199999071999005181999999MA1101201999999MW1581OC101601REMMET081METAR ETMN 112320Z 26021G31KT 7000 -RADZ BKN017 OVC045 06/04 Q1012      RERA WHT=
0169101360999992015011200204+53768+008659FM-15+002399999V0202601N010810091419N009999199+00601+00401999999ADDGA1041+005491999GA2081+009141999GE19MSL   +99999+99999GF199999041999005491999999MA1101101999999REMMET062METAR ETMN 120020Z 26021KT 9999 SCT018 OVC030 06/04 Q1011 BLU=
0169101360999992015011201204+53768+008659FM-15+002399999V0202601N011310057919N009999199+00601+00401999999ADDGA1071+005791999GA2081+009451999GE19MSL   +99999+99999GF199999071999005791999999MA1101101999999REMMET062METAR ETMN 120120Z 26022KT 9999 BKN019 OVC031 06/04 Q1011 WHT=
0169101360999992015011202204+53768+008659FM-15+002399999V0202601N010310054919N009999199+00601+00401999999ADDGA1071+005491999GA2081+010671999GE19MSL   +99999+99999GF199999071999005491999999MA1101101999999REMMET062METAR ETMN 120220Z 26020KT 9999 BKN018 OVC035 06/04 Q1011 WHT=
0180101360999992015011203204+53768+008659FM-15+002399999V0202501N009810054919N009999199+00601+00401999999ADDGA1071+005491999GA2081+012191999GE19MSL   +99999+99999GF199999071999005491999999MA1101001999999OC101601REMMET065METAR ETMN 120320Z 25019G31KT 9999 BKN018 OVC040 06/04 Q1010 WHT=
0169101360999992015011204204+53768+008659FM-15+002399999V0202401N008810054919N009999199+00601+00401999999ADDGA1071+005491999GA2081+030481999GE19MSL   +99999+99999GF199999071999005491999999MA1100901999999REMMET062METAR ETMN 120420Z 24017KT 9999 BKN018 OVC100 06/04 Q1009 WHT=
0184101360999992015011205204+53768+008659FM-15+002399999V0202401N009310051819N009999199+00601+00401999999ADDGA1071+005181999GA2071+013721999GE19MSL   +99999+99999GF199999071999005181999999MA1100801999999OC101441REMMET069METAR ETMN 120520Z 24018G28KT 9999 BKN017 BKN045 06/04 Q1008 WHT WHT=
0161101360999992015011206204+53768+008659FM-15+002399999V0202501N009810057919N009999199+00701+00401999999ADDGA1071+005791999GE19MSL   +99999+99999GF199999071999005791999999MA1100801999999OC101491REMMET062METAR ETMN 120620Z 25019G29KT 9999 BKN019 07/04 Q1008 WHT WHT=
0173101360999992015011207204+53768+008659FM-15+002399999V0202401N010810061019N009999199+00701+00401999999ADDGA1021+003351999GA2071+006101999GE19MSL   +99999+99999GF199999021999003351999999MA1100701999999REMMET066METAR ETMN 120720Z 24021KT 9999 FEW011 BKN020 07/04 Q1007 WHT WHT=
0209101360999992015011208204+53768+008659FM-15+002399999V0202401N010810067119N009999199+00701+00401999999ADDGA1041+003661999GA2071+006711999GE19MSL   +99999+99999GF199999041999003661999999MA1100701999999MW1611OC101751REMMET088METAR ETMN 120820Z 24021G34KT 9999 -RA SCT012 BKN022 07/04 Q1007 WHT      WHT TEMPO GRN=
0198101360999992015011209204+53768+008659FM-15+002399999V0202401N011810064019N009999199+00701+00501999999ADDGA1041+004571999GA2071+006401999GE19MSL   +99999+99999GF199999041999004571999999MA1100601999999MW1611REMMET085METAR ETMN 120920Z 24023KT 9999 -RA SCT015 BKN021 07/05 Q1006 WHT WHT      TEMPO GRN=
0209101360999992015011209574+53768+008659FM-16+002399999V0202401N011810057919N009999199+00701+00501999999ADDGA1041+004571999GA2071+005791999GE19MSL   +99999+99999GF199999041999004571999999MA1100601999999MW1611OC101901REMMET088SPECI ETMN 120957Z 24023G37KT 9999 -RA SCT015 BKN019 07/05 Q1006 WHT      WHT TEMPO GRN=
0209101360999992015011210204+53768+008659FM-15+002399999V0202501N012910045719N009999199+00801+00501999999ADDGA1071+004571999GA2071+005791999GE19MSL   +99999+99999GF199999071999004571999999MA1100501999999MW1611OC102011REMMET088METAR ETMN 121020Z 25025G39KT 9999 -RA BKN015 BKN019 08/05 Q1005 WHT      WHT TEMPO GRN=
0209101360999992015011210334+53768+008659FM-16+002399999V0202401N012410042719N009000199+00701+00501999999ADDGA1071+004271999GA2071+006711999GE19MSL   +99999+99999GF199999071999004271999999MA1100501999999MW1611OC101801REMMET088SPECI ETMN 121033Z 24024G35KT 9000 -RA BKN014 BKN022 07/05 Q1005 GRN      WHT TEMPO GRN=
0209101360999992015011211204+53768+008659FM-15+002399999V0202401N010810042719N009000199+00701+00601999999ADDGA1021+003051999GA2071+004271999GE19MSL   +99999+99999GF199999021999003051999999MA1100501999999MW1611OC101601REMMET088METAR ETMN 121120Z 24021G31KT 9000 -RA FEW010 BKN014 07/06 Q1005 GRN      WHT TEMPO GRN=
0221101360999992015011212204+53768+008659FM-15+002399999V0202401N01031003351CN009999199+00701+00601999999ADDGA1021+002131999GA2041+003351999GA3071+003961999GE19MSL   +99999+99999GF199999021999002131999999MA1100401999999MW1611REMMET092METAR ETMN 121220Z 24020KT 9999 -RA FEW007 SCT011 BKN013 07/06 Q1004      GRN WHT TEMPO GRN=
0209101360999992015011212474+53768+008659FM-16+002399999V0202401N010310048819N009999199+00701+00601999999ADDGA1021+003351999GA2071+004881999GE19MSL   +99999+99999GF199999021999003351999999MA1100401999999MW1611OC101541REMMET088SPECI ETMN 121247Z 24020G30KT 9999 -RA FEW011 BKN016 07/06 Q1004 WHT      WHT TEMPO GRN=
0221101360999992015011213204+53768+008659FM-15+002399999V0202401N01131003961CN009999199+00701+00601999999ADDGA1021+003351999GA2041+003961999GA3071+004571999GE19MSL   +99999+99999GF199999021999003351999999MA1100401999999MW1611REMMET092METAR ETMN 121320Z 24022KT 9999 -RA FEW011 SCT013 BKN015 07/06 Q1004      WHT WHT TEMPO GRN=
0232101360999992015011213404+53768+008659FM-16+002399999V0202401N010810039619N009999199+00701+00601999999ADDGA1021+003051999GA2071+003961999GA3071+004881999GE19MSL   +99999+99999GF199999021999003051999999MA1100401999999MW1611OC101601REMMET095SPECI ETMN 121340Z 24021G31KT 9999 -RA FEW010 BKN013 BKN016 07/06 Q1004      GRN WHT TEMPO GRN=
0232101360999992015011214204+53768+008659FM-15+002399999V0202401N01131004571CN009999199+00801+00601999999ADDGA1021+003661999GA2041+004571999GA3071+005491999GE19MSL   +99999+99999GF199999021999003661999999MA1100401999999MW1611OC101701REMMET095METAR ETMN 121420Z 24022G33KT 9999 -RA FEW012 SCT015 BKN018 08/06 Q1004      WHT WHT TEMPO GRN=
0221101360999992015011215204+53768+008659FM-15+002399999V0202401N01131004271CN009999199+00801+00601999999ADDGA1021+003051999GA2041+004271999GA3071+005181999GE19MSL   +99999+99999GF199999021999003051999999MA1100401999999MW1611REMMET092METAR ETMN 121520Z 24022KT 9999 -RA FEW010 SCT014 BKN017 08/06 Q1004      WHT WHT TEMPO GRN=
0232101360999992015011215444+53768+008659FM-16+002399999V0202401N010810039619N009999199+00801+00601999999ADDGA1021+003351999GA2071+003961999GA3071+004881999GE19MSL   +99999+99999GF199999021999003351999999MA1100401999999MW1611OC101651REMMET095SPECI ETMN 121544Z 24021G32KT 9999 -RA FEW011 BKN013 BKN016 08/06 Q1004      GRN WHT TEMPO GRN=
0198101360999992015011216204+53768+008659FM-15+002399999V0202401N010310036619N009999199+00801+00601999999ADDGA1021+003051999GA2071+003661999GE19MSL   +99999+99999GF199999021999003051999999MA1100301999999MW1611REMMET085METAR ETMN 121620Z 24020KT 9999 -RA FEW010 BKN012 08/06 Q1003 GRN WHT      TEMPO GRN=
0209101360999992015011217054+53768+008659FM-16+002399999V0202301N010310015219N005000199+00701+00701999999ADDGA1071+001521999GA2071+002131999GE19MSL   +99999+99999GF199999071999001521999999MA1100401999999MW1101MW2581REMMET090SPECI ETMN 121705Z 23020KT 5000 -DZRA BR BKN005 BKN007 07/07 Q1004      YLO WHT TEMPO YLO=
0211101360999992015011217204+53768+008659FM-15+002399999V0202401N009310015219N007000199+00801+00701999999ADDGA1071+001521999GA2071+002741999GE19MSL   +99999+99999GF199999071999001521999999MA1100401999999MW1581OC101541REMMET090METAR ETMN 121720Z 24018G30KT 7000 -DZRA BKN005 BKN009 08/07 Q1004      YLO WHT TEMPO YLO=
0200101360999992015011217504+53768+008659FM-16+002399999V0202401N010310018319N007000199+00801+00701999999ADDGA1071+001831999GA2071+002441999GE19MSL   +99999+99999GF199999071999001831999999MA1100401999999MW1581REMMET087SPECI ETMN 121750Z 24020KT 7000 -DZRA BKN006 BKN008 08/07 Q1004 YLO      GRN TEMPO YLO=
0194101360999992015011218204+53768+008659FM-15+002399999V0202401N009810021319N008000199+00801+00701999999ADDGA1071+002131999GA2071+003351999GE19MSL   +99999+99999GF199999071999002131999999MA1100301999999MW1581REMMET081METAR COR ETMN 121820Z 24019KT 8000 -DZRA BKN007 BKN011 08/07 Q1003      GRN GRN=
0201101360999992015011219204+53768+008659FM-15+002399999V0202401N011310024419N006000199+00801+00701999999ADDGA1071+002441999GA2071+003961999GE19MSL   +99999+99999GF199999071999002441999999MA1100301999999MW1581OC101651REMMET080METAR ETMN 121920Z 24022G32KT 6000 -DZRA BKN008 BKN013 08/07 Q1003      GRN GRN=
0220101360999992015011220204+53768+008659FM-15+002399999V0202401N010810018319N005000199+00801+00701999999ADDGA1071+001831999GA2071+002741999GE19MSL   +99999+99999GF199999071999001831999999MA1100401999999MW1101MW2581OC101651REMMET093METAR ETMN 122020Z 24021G32KT 5000 -RADZ BR BKN006 BKN009 08/07 Q1004      YLO GRN TEMPO YLO=
0208101360999992015011221204+53768+008659FM-15+002399999V0202401N010810018319N004500199+00901+00701999999ADDGA1071+001831999GA2071+003351999GE19MSL   +99999+99999GF199999071999001831999999MA1100401999999MW1101MW2591REMMET089METAR ETMN 122120Z 24021KT 4500 RADZ BR BKN006 BKN011 09/07 Q1004 YLO      GRN TEMPO YLO=
0185101360999992015011221384+53768+008659FM-16+002399999V0202601N008810015219N003700199+00801+00701999999ADDGA1071+001521999GE19MSL   +99999+99999GF199999071999001521999999MA1100501999999MW1101MW2591REMMET082SPECI ETMN 122138Z 26017KT 3700 RADZ BR BKN005 08/07 Q1005 YLO GRN      TEMPO YLO=
