0156101470999992014032118204+53630+009988FM-15+001699999V0202601V003619999999N009999199+00501+00301999999ADDGA1021+004881991GE19MSL   +99999+99999GF199999021990004881991991MA1100801999990REMMET065METAR EDDH 211820Z 26007KT 230V290 9999 FEW016 05/03 Q1008 NOSIG=
0078101470999992014032118504+53630+009988FM-15+001699999V0202501N002619999999Y999999999+00401+00301999999ADDMA1100801999990REMMET051METAR EDDH 211850Z 25005KT CAVOK 04/03 Q1008 NOSIG=
0078101470999992014032119204+53630+009988FM-15+001699999V0202101N002619999999Y999999999+00301+00201999999ADDMA1100901999990REMMET051METAR EDDH 211920Z 21005KT CAVOK 03/02 Q1009 NOSIG=
0078101470999992014032119504+53630+009988FM-15+001699999V0202101N004119999999Y999999999+00401+00301999999ADDMA1100901999990REMMET051METAR EDDH 211950Z 21008KT CAVOK 04/03 Q1009 NOSIG=
0078101470999992014032120204+53630+009988FM-15+001699999V0202101N005119999999Y999999999+00401+00301999999ADDMA1100901999990REMMET051METAR EDDH 212020Z 21010KT CAVOK 04/03 Q1009 NOSIG=
0148101470999992014032120504+53630+009988FM-15+001699999V0202101N005119999999N009999199+00401+00301999999ADDGA1021+003051991GE19MSL   +99999+99999GF199999021990003051991991MA1100901999990REMMET057METAR EDDH 212050Z 21010KT 9999 FEW010 04/03 Q1009 NOSIG=
0148101470999992014032121204+53630+009988FM-15+001699999V0202101N005119999999N009999199+00401+00301999999ADDGA1021+003051991GE19MSL   +99999+99999GF199999021990003051991991MA1100901999990REMMET057METAR EDDH 212120Z 21010KT 9999 FEW010 04/03 Q1009 NOSIG=
0078101470999992014032121504+53630+009988FM-15+001699999V0202001N003619999999Y999999999+00401+00301999999ADDMA1100901999990REMMET051METAR EDDH 212150Z 20007KT CAVOK 04/03 Q1009 NOSIG=
0148101470999992014032122204+53630+009988FM-15+001699999V0202101N004619999999N009999199+00401+00301999999ADDGA1021+008531991GE19MSL   +99999+99999GF199999021990008531991991MA1100901999990REMMET057METAR EDDH 212220Z 21009KT 9999 FEW028 04/03 Q1009 NOSIG=
0148101470999992014032122504+53630+009988FM-15+001699999V0202201N004619999999N009999199+00401+00201999999ADDGA1021+008531991GE19MSL   +99999+99999GF199999021990008531991991MA1100801999990REMMET057METAR EDDH 212250Z 22009KT 9999 FEW028 04/02 Q1008 NOSIG=
0078101470999992014032123204+53630+009988FM-15+001699999V0202201N003119999999Y999999999+00301+00201999999ADDMA1100801999990REMMET051METAR EDDH 212320Z 22006KT CAVOK 03/02 Q1008 NOSIG=
0078101470999992014032123504+53630+009988FM-15+001699999V0202101N003619999999Y999999999+00301+00201999999ADDMA1100801999990REMMET051METAR EDDH 212350Z 21007KT CAVOK 03/02 Q1008 NOSIG=
0078101470999992014032200204+53630+009988FM-15+001699999V0201801N002619999999Y999999999+00401+00301999999ADDMA1100801999990REMMET051METAR EDDH 220020Z 18005KT CAVOK 04/03 Q1008 NOSIG=
0078101470999992014032200504+53630+009988FM-15+001699999V0201101N002119999999Y999999999+00301+00201999999ADDMA1100701999990REMMET051METAR EDDH 220050Z 11004KT CAVOK 03/02 Q1007 NOSIG=
0078101470999992014032201204+53630+009988FM-15+001699999V0201501N002619999999Y999999999+00301+00201999999ADDMA1100701999990REMMET051METAR EDDH 220120Z 15005KT CAVOK 03/02 Q1007 NOSIG=
0078101470999992014032201504+53630+009988FM-15+001699999V0201401N003119999999Y999999999+00201+00201999999ADDMA1100701999990REMMET051METAR EDDH 220150Z 14006KT CAVOK 02/02 Q1007 NOSIG=
0078101470999992014032202204+53630+009988FM-15+001699999V0201601N003619999999Y999999999+00301+00201999999ADDMA1100601999990REMMET051METAR EDDH 220220Z 16007KT CAVOK 03/02 Q1006 NOSIG=
0078101470999992014032202504+53630+009988FM-15+001699999V0201501N004119999999Y999999999+00301+00201999999ADDMA1100601999990REMMET051METAR EDDH 220250Z 15008KT CAVOK 03/02 Q1006 NOSIG=
0078101470999992014032203204+53630+009988FM-15+001699999V0201601N003119999999Y999999999+00301+00201999999ADDMA1100601999990REMMET051METAR EDDH 220320Z 16006KT CAVOK 03/02 Q1006 NOSIG=
0078101470999992014032203504+53630+009988FM-15+001699999V0201601N004119999999Y999999999+00301+00201999999ADDMA1100501999990REMMET051METAR EDDH 220350Z 16008KT CAVOK 03/02 Q1005 NOSIG=
0078101470999992014032204204+53630+009988FM-15+001699999V0201501N004119999999Y999999999+00301+00201999999ADDMA1100501999990REMMET051METAR EDDH 220420Z 15008KT CAVOK 03/02 Q1005 NOSIG=
0078101470999992014032204504+53630+009988FM-15+001699999V0201401N003619999999Y999999999+00201+00201999999ADDMA1100501999990REMMET051METAR EDDH 220450Z 14007KT CAVOK 02/02 Q1005 NOSIG=
0078101470999992014032205204+53630+009988FM-15+001699999V0201301N004119999999Y999999999+00201+00101999999ADDMA1100401999990REMMET051METAR EDDH 220520Z 13008KT CAVOK 02/01 Q1004 NOSIG=
0107101470999992014032205504+53630+009988FM-15+001699999V0201401N004112200019N006000199+00201+00201999999ADDGF100991999999999999999999MA1100401999990REMMET054METAR EDDH 220550Z 14008KT 6000 NSC 02/02 Q1004 NOSIG=
0115101470999992014032206204+53630+009988FM-15+001699999V0201401V004112200019N007000199+00201+00201999999ADDGF100991999999999999999999MA1100401999990REMMET062METAR EDDH 220620Z 14008KT 120V180 7000 NSC 02/02 Q1004 NOSIG=
0107101470999992014032206504+53630+009988FM-15+001699999V0201401N004612200019N006000199+00301+00201999999ADDGF100991999999999999999999MA1100301999990REMMET054METAR EDDH 220650Z 14009KT 6000 NSC 03/02 Q1003 NOSIG=
0107101470999992014032207204+53630+009988FM-15+001699999V0201401N005112200019N007000199+00401+00201999999ADDGF100991999999999999999999MA1100301999990REMMET054METAR EDDH 220720Z 14010KT 7000 NSC 04/02 Q1003 NOSIG=
0171101470999992014032207504+53630+009988FM-15+001699999V0201501N004610213419N009000199+00401+00301999999ADDGA1021+010671991GA2071+021341991GE19MSL   +99999+99999GF199999021990010671991991MA1100301999990REMMET064METAR EDDH 220750Z 15009KT 9000 FEW035 BKN070 04/03 Q1003 NOSIG=
0171101470999992014032208204+53630+009988FM-15+001699999V0201501N005710201219N009000199+00501+00301999999ADDGA1021+010671991GA2071+020121991GE19MSL   +99999+99999GF199999021990010671991991MA1100201999990REMMET064METAR EDDH 220820Z 15011KT 9000 FEW035 BKN066 05/03 Q1002 NOSIG=
0171101470999992014032208504+53630+009988FM-15+001699999V0201601N005710182919N009999199+00501+00301999999ADDGA1021+010671991GA2071+018291991GE19MSL   +99999+99999GF199999021990010671991991MA1100201999990REMMET064METAR EDDH 220850Z 16011KT 9999 FEW035 BKN060 05/03 Q1002 NOSIG=
0194101470999992014032209204+53630+009988FM-15+001699999V0201601N006210182919N009999199+00601+00301999999ADDGA1021+010671991GA2071+018291991GA3071+076201991GE19MSL   +99999+99999GF199999021990010671991991MA1100201999990REMMET071METAR EDDH 220920Z 16012KT 9999 FEW035 BKN060 BKN250 06/03 Q1002 NOSIG=
0194101470999992014032209504+53630+009988FM-15+001699999V0201601N00621014631CN009999199+00701+00401999999ADDGA1021+010361991GA2041+014631991GA3071+076201991GE19MSL   +99999+99999GF199999021990010361991991MA1100201999990REMMET071METAR EDDH 220950Z 16012KT 9999 FEW034 SCT048 BKN250 07/04 Q1002 NOSIG=
0171101470999992014032210204+53630+009988FM-15+001699999V0201801N005710609619N009999199+00801+00501999999ADDGA1021+008231991GA2071+060961991GE19MSL   +99999+99999GF199999021990008231991991MA1100101999990REMMET064METAR EDDH 221020Z 18011KT 9999 FEW027 BKN200 08/05 Q1001 NOSIG=
0171101470999992014032210504+53630+009988FM-15+001699999V0201801N005110057919N009999199+00901+00501999999ADDGA1071+005791991GA2071+060961991GE19MSL   +99999+99999GF199999071990005791991991MA1100101999990REMMET064METAR EDDH 221050Z 18010KT 9999 BKN019 BKN200 09/05 Q1001 NOSIG=
0171101470999992014032211204+53630+009988FM-15+001699999V0202001N006210609619N009999199+01001+00601999999ADDGA1041+006401991GA2071+060961991GE19MSL   +99999+99999GF199999041990006401991991MA1100001999990REMMET064METAR EDDH 221120Z 20012KT 9999 SCT021 BKN200 10/06 Q1000 NOSIG=
0182101470999992014032211504+53630+009988FM-15+001699999V0202101N006710670619N009999199+01101+00501999999ADDGA1021+007921991GA2071+067061991GE19MSL   +99999+99999GF199999021990007921991991MA1100001999990REMMET075METAR EDDH 221150Z 21013KT 9999 FEW026 BKN220 11/05 Q1000 TEMPO 22015G25KT=
0195101470999992014032212204+53630+009988FM-15+001699999V0202101V007710670619N009999199+01101+00401999999ADDGA1041+010061991GA2071+067061991GE19MSL   +99999+99999GF199999041990010061991991MA1100001999990REMMET088METAR EDDH 221220Z 21015KT 180V240 9999 SCT033 BKN220 11/04 Q1000 TEMPO      22015G25KT=
0182101470999992014032212504+53630+009988FM-15+001699999V0202201N008210762019N009999199+01101+00401999999ADDGA1041+010971991GA2071+076201991GE19MSL   +99999+99999GF199999041990010971991991MA1100001999990REMMET075METAR EDDH 221250Z 22016KT 9999 SCT036 BKN250 11/04 Q1000 TEMPO 22015G25KT=
0182101470999992014032213204+53630+009988FM-15+001699999V0202201N007710158519N009999199+01101+00401999999ADDGA1041+012801991GA2071+015851991GE19MSL   +99999+99999GF199999041990012801991991MA1100001999990REMMET075METAR EDDH 221320Z 22015KT 9999 SCT042 BKN052 11/04 Q1000 TEMPO 22015G25KT=
0182101470999992014032213504+53630+009988FM-15+001699999V0202101N007710152419N009999199+01101+00401999999ADDGA1041+011891991GA2071+015241991GE19MSL   +99999+99999GF199999041990011891991991MA1100001999990REMMET075METAR EDDH 221350Z 21015KT 9999 SCT039 BKN050 11/04 Q1000 TEMPO 22015G25KT=
0201101470999992014032214204+53630+009988FM-15+001699999V0202201N006710146319N009999199+01201+00401999999ADDGA1041+011581991GA2071+014631991GE19MSL   +99999+99999GF199999041990011581991991MA1099901999990REMMET094METAR EDDH 221420Z 22013KT 9999 SCT038 BKN048 12/04 Q0999 TEMPO 22015G25KT      SHRA SCT015CB=
0216101470999992014032214504+53630+009988FM-15+001699999V0202101N005110121919N009999199+01101+00301999999ADDGA1071+012191991GA2071+014631991GE19MSL   +99999+99999GF199999071990012191991991MA1099901999990MW1161REMMET103METAR COR EDDH 221450Z 21010KT 9999 VCSH BKN040 BKN048 11/03 Q0999      TEMPO 22015G25KT SHRA SCT015CB=
0206101470999992014032215204+53630+009988FM-15+001699999V0202201N005110121919N009999199+01101+00401999999ADDGA1071+012191091GA2071+016461991GE19MSL   +99999+99999GF199999071990012191991991MA1099901999990MW1801REMMET093METAR EDDH 221520Z 22010KT 9999 -SHRA BKN040CB BKN054 11/04 Q0999 TEMPO      22015G25KT SHRA=
0214101470999992014032215504+53630+009988FM-15+001699999V0202901V005710109719N009999199+00901+00501999999ADDGA1071+010971091GA2071+016461991GE19MSL   +99999+99999GF199999071990010971991991MA1100001999990MW1801REMMET101METAR EDDH 221550Z 29011KT 250V320 9999 -SHRA BKN036CB BKN054 09/05      Q1000 TEMPO 22015G25KT SHRA=
0213101470999992014032216204+53630+009988FM-15+001699999V0202901V002610121919N009999199+00901+00601999999ADDGA1021+010971091GA2071+012191991GE19MSL   +99999+99999GF199999021990010971991991MA1099901999990MW1161REMMET100METAR EDDH 221620Z 29005KT 260V330 9999 VCSH FEW036CB BKN040 09/06      Q0999 TEMPO 22015G25KT SHRA=
0205101470999992014032216504+53630+009988FM-15+001699999V0202601N001510134119N009999199+00901+00501999999ADDGA1021+010971091GA2071+013411991GE19MSL   +99999+99999GF199999021990010971991991MA1099901999990MW1161REMMET092METAR EDDH 221650Z 26003KT 9999 VCSH FEW036CB BKN044 09/05 Q0999 TEMPO      22015G25KT SHRA=
0206101470999992014032217204+53630+009988FM-15+001699999V0202501N003110076219N009999199+00901+00501999999ADDGA1071+007621091GA2071+013411991GE19MSL   +99999+99999GF199999071990007621991991MA1100001999990MW1801REMMET093METAR EDDH 221720Z 25006KT 9999 -SHRA BKN025CB BKN044 09/05 Q1000 TEMPO      22015G25KT SHRA=
0209101470999992014032217504+53630+009988FM-15+001699999V0202401V006710073219N006000199+00701+00501999999ADDGA1041+004881991GA2071+007321091GE19MSL   +99999+99999GF199999041990004881991991MA1100001999990MW1811REMMET096METAR EDDH 221750Z 24013KT 220V280 6000 SHRA SCT016 BKN024CB 07/05      Q1000 TEMPO 4500 BKN014=
0195101470999992014032218204+53630+009988FM-15+001699999V0202201N003110112819N009999199+00701+00501999999ADDGA1041+007321091GA2071+011281991GE19MSL   +99999+99999GF199999041990007321991991MA1100001999990MW1801REMMET082METAR EDDH 221820Z 22006KT 9999 -SHRA SCT024CB BKN037 07/05 Q1000 RERA      NOSIG=
0194101470999992014032218504+53630+009988FM-15+001699999V0202701V005110182919N009999199+00701+00501999999ADDGA1041+003661991GA2071+018291991GE19MSL   +99999+99999GF199999041990003661991991MA1100101999990MW1611REMMET081METAR EDDH 221850Z 27010KT 220V300 9999 -RA SCT012 BKN060 07/05 Q1001      NOSIG=
0209101470999992014032219204+53630+009988FM-15+001699999V0202601N00261007011CN009999199+00601+00401999999ADDGA1041+003051991GA2041+007011991GA3071+018291991GE19MSL   +99999+99999GF199999041990003051991991MA1100101999990MW1611REMMET080METAR EDDH 221920Z 26005KT 9999 -RA SCT010 SCT023 BKN060 06/04 Q1001      NOSIG=
0194101470999992014032219504+53630+009988FM-15+001699999V0202701V002610085319N009999199+00601+00401999999ADDGA1021+003051991GA2071+008531991GE19MSL   +99999+99999GF199999021990003051991991MA1100101999990MW1611REMMET081METAR EDDH 221950Z 27005KT 230V300 9999 -RA FEW010 BKN028 06/04 Q1001      NOSIG=
0194101470999992014032220204+53630+009988FM-15+001699999V0201901V002610085319N009999199+00601+00401999999ADDGA1021+003051991GA2071+008531991GE19MSL   +99999+99999GF199999021990003051991991MA1100101999990MW1611REMMET081METAR EDDH 222020Z 19005KT 150V240 9999 -RA FEW010 BKN028 06/04 Q1001      NOSIG=
0181101470999992014032220504+53630+009988FM-15+001699999V0202401N001510085319N009999199+00501+00401999999ADDGA1021+003051991GA2071+008531991GE19MSL   +99999+99999GF199999021990003051991991MA1100101999990MW1611REMMET068METAR EDDH 222050Z 24003KT 9999 -RA FEW010 BKN028 05/04 Q1001 NOSIG=
0171101470999992014032221204+53630+009988FM-15+001699999V0202201N001510304819N009999199+00501+00401999999ADDGA1041+011281991GA2071+030481991GE19MSL   +99999+99999GF199999041990011281991991MA1100101999990REMMET064METAR EDDH 222120Z 22003KT 9999 SCT037 BKN100 05/04 Q1001 NOSIG=
0078101470999992014032221504+53630+009988FM-15+001699999V0202201N002619999999Y999999999+00401+00301999999ADDMA1100101999990REMMET051METAR EDDH 222150Z 22005KT CAVOK 04/03 Q1001 NOSIG=
0078101470999992014032222204+53630+009988FM-15+001699999V0202301N003119999999Y999999999+00401+00301999999ADDMA1100101999990REMMET051METAR EDDH 222220Z 23006KT CAVOK 04/03 Q1001 NOSIG=
0148101470999992014032222504+53630+009988FM-15+001699999V0202201N003619999999N009999199+00401+00301999999ADDGA1021+010671991GE19MSL   +99999+99999GF199999021990010671991991MA1100101999990REMMET057METAR EDDH 222250Z 22007KT 9999 FEW035 04/03 Q1001 NOSIG=
0171101470999992014032223204+53630+009988FM-15+001699999V0202301N00361016761CN009999199+00401+00301999999ADDGA1021+010671991GA2041+016761991GE19MSL   +99999+99999GF199999021990010671991991MA1100101999990REMMET064METAR EDDH 222320Z 23007KT 9999 FEW035 SCT055 04/03 Q1001 NOSIG=
0171101470999992014032223504+53630+009988FM-15+001699999V0202301N00411017071CN009999199+00401+00201999999ADDGA1021+011581991GA2041+017071991GE19MSL   +99999+99999GF199999021990011581991991MA1100101999990REMMET064METAR EDDH 222350Z 23008KT 9999 FEW038 SCT056 04/02 Q1001 NOSIG=
0148101470999992014032300204+53630+009988FM-15+001699999V0202301N003619999999N009999199+00301+00201999999ADDGA1021+010971991GE19MSL   +99999+99999GF199999021990010971991991MA1100201999990REMMET057METAR EDDH 230020Z 23007KT 9999 FEW036 03/02 Q1002 NOSIG=
0148101470999992014032300504+53630+009988FM-15+001699999V0202101N004119999999N009999199+00301+00201999999ADDGA1021+011891991GE19MSL   +99999+99999GF199999021990011891991991MA1100201999990REMMET057METAR EDDH 230050Z 21008KT 9999 FEW039 03/02 Q1002 NOSIG=
0148101470999992014032301204+53630+009988FM-15+001699999V0202101N004119999999N009999199+00301+00201999999ADDGA1021+010671991GE19MSL   +99999+99999GF199999021990010671991991MA1100201999990REMMET057METAR EDDH 230120Z 21008KT 9999 FEW035 03/02 Q1002 NOSIG=
0148101470999992014032301504+53630+009988FM-15+001699999V0202301N003619999999N009999199+00301+00201999999ADDGA1021+010671991GE19MSL   +99999+99999GF199999021990010671991991MA1100101999990REMMET057METAR EDDH 230150Z 23007KT 9999 FEW035 03/02 Q1001 NOSIG=
0148101470999992014032302204+53630+009988FM-15+001699999V0202301N003619999999N009999199+00301+00201999999ADDGA1021+010671991GE19MSL   +99999+99999GF199999021990010671991991MA1100101999990REMMET057METAR EDDH 230220Z 23007KT 9999 FEW035 03/02 Q1001 NOSIG=
0148101470999992014032302504+53630+009988FM-15+001699999V0202201N003119999999N009999199+00201+00101999999ADDGA1021+010671991GE19MSL   +99999+99999GF199999021990010671991991MA1100101999990REMMET057METAR EDDH 230250Z 22006KT 9999 FEW035 02/01 Q1001 NOSIG=
0078101470999992014032303204+53630+009988FM-15+001699999V0202301N004119999999Y999999999+00301+00201999999ADDMA1100201999990REMMET051METAR EDDH 230320Z 23008KT CAVOK 03/02 Q1002 NOSIG=
0148101470999992014032303504+53630+009988FM-15+001699999V0202301N003619999999N009999199+00301+00201999999ADDGA1021+007011991GE19MSL   +99999+99999GF199999021990007011991991MA1100201999990REMMET057METAR EDDH 230350Z 23007KT 9999 FEW023 03/02 Q1002 NOSIG=
0148101470999992014032304204+53630+009988FM-15+001699999V0202201N003619999999N009999199+00201+00101999999ADDGA1021+007011991GE19MSL   +99999+99999GF199999021990007011991991MA1100201999990REMMET057METAR EDDH 230420Z 22007KT 9999 FEW023 02/01 Q1002 NOSIG=
0148101470999992014032304504+53630+009988FM-15+001699999V0202201N003619999999N009999199+00201+00101999999ADDGA1021+007011991GE19MSL   +99999+99999GF199999021990007011991991MA1100201999990REMMET057METAR EDDH 230450Z 22007KT 9999 FEW023 02/01 Q1002 NOSIG=
0148101470999992014032305204+53630+009988FM-15+001699999V0202101N004119999999N009999199+00201+00201999999ADDGA1021+007011991GE19MSL   +99999+99999GF199999021990007011991991MA1100201999990REMMET057METAR EDDH 230520Z 21008KT 9999 FEW023 02/02 Q1002 NOSIG=
0078101470999992014032305504+53630+009988FM-15+001699999V0202201N003619999999Y999999999+00201+00101999999ADDMA1100201999990REMMET051METAR EDDH 230550Z 22007KT CAVOK 02/01 Q1002 NOSIG=
0078101470999992014032306204+53630+009988FM-15+001699999V0202201N005719999999Y999999999+00301+00201999999ADDMA1100201999990REMMET051METAR EDDH 230620Z 22011KT CAVOK 03/02 Q1002 NOSIG=
0078101470999992014032306504+53630+009988FM-15+001699999V0202201N006719999999Y999999999+00401+00301999999ADDMA1100301999990REMMET051METAR EDDH 230650Z 22013KT CAVOK 04/03 Q1003 NOSIG=
0078101470999992014032307204+53630+009988FM-15+001699999V0202201N005719999999Y999999999+00501+00301999999ADDMA1100301999990REMMET051METAR EDDH 230720Z 22011KT CAVOK 05/03 Q1003 NOSIG=
0148101470999992014032307504+53630+009988FM-15+001699999V0202201N006219999999N009999199+00501+00301999999ADDGA1021+003051991GE19MSL   +99999+99999GF199999021990003051991991MA1100301999990REMMET057METAR EDDH 230750Z 22012KT 9999 FEW010 05/03 Q1003 NOSIG=
0148101470999992014032308204+53630+009988FM-15+001699999V0202401N005719999999N009999199+00601+00301999999ADDGA1041+003661991GE19MSL   +99999+99999GF199999041990003661991991MA1100401999990REMMET057METAR EDDH 230820Z 24011KT 9999 SCT012 06/03 Q1004 NOSIG=
0156101470999992014032308504+53630+009988FM-15+001699999V0202301V005719999999N009999199+00701+00401999999ADDGA1041+003961991GE19MSL   +99999+99999GF199999041990003961991991MA1100301999990REMMET065METAR EDDH 230850Z 23011KT 200V270 9999 SCT013 07/04 Q1003 NOSIG=
0148101470999992014032309204+53630+009988FM-15+001699999V0202301N006719999999N009999199+00801+00401999999ADDGA1021+004571991GE19MSL   +99999+99999GF199999021990004571991991MA1100301999990REMMET057METAR EDDH 230920Z 23013KT 9999 FEW015 08/04 Q1003 NOSIG=
0148101470999992014032309504+53630+009988FM-15+001699999V0202401N005119999999N009999199+00801+00401999999ADDGA1041+005791991GE19MSL   +99999+99999GF199999041990005791991991MA1100301999990REMMET057METAR EDDH 230950Z 24010KT 9999 SCT019 08/04 Q1003 NOSIG=
0156101470999992014032310204+53630+009988FM-15+001699999V0202501V005719999999N009999199+00801+00401999999ADDGA1041+005791991GE19MSL   +99999+99999GF199999041990005791991991MA1100401999990REMMET065METAR EDDH 231020Z 25011KT 220V290 9999 SCT019 08/04 Q1004 NOSIG=
0148101470999992014032310504+53630+009988FM-15+001699999V0202201N007210057919N009999199+00901+00501999999ADDGA1071+005791991GE19MSL   +99999+99999GF199999071990005791991991MA1100401999990REMMET057METAR EDDH 231050Z 22014KT 9999 BKN019 09/05 Q1004 NOSIG=
0156101470999992014032311204+53630+009988FM-15+001699999V0202301V006210064019N009999199+00901+00401999999ADDGA1071+006401991GE19MSL   +99999+99999GF199999071990006401991991MA1100401999990REMMET065METAR EDDH 231120Z 23012KT 190V280 9999 BKN021 09/04 Q1004 NOSIG=
0156101470999992014032311504+53630+009988FM-15+001699999V0202501V005110070119N009999199+00901+00401999999ADDGA1071+007011991GE19MSL   +99999+99999GF199999071990007011991991MA1100401999990REMMET065METAR EDDH 231150Z 25010KT 210V280 9999 BKN023 09/04 Q1004 NOSIG=
0156101470999992014032312204+53630+009988FM-15+001699999V0202301V005719999999N009999199+01001+00401999999ADDGA1041+007921991GE19MSL   +99999+99999GF199999041990007921991991MA1100401999990REMMET065METAR EDDH 231220Z 23011KT 210V270 9999 SCT026 10/04 Q1004 NOSIG=
0179101470999992014032312504+53630+009988FM-15+001699999V0202601V00511076201CN009999199+00901+00201999999ADDGA1041+008531991GA2041+076201991GE19MSL   +99999+99999GF199999041990008531991991MA1100401999990REMMET072METAR EDDH 231250Z 26010KT 220V300 9999 SCT028 SCT250 09/02 Q1004 NOSIG=
0179101470999992014032313204+53630+009988FM-15+001699999V0202401V00461076201CN009999199+01001+00301999999ADDGA1041+009141991GA2041+076201991GE19MSL   +99999+99999GF199999041990009141991991MA1100401999990REMMET072METAR EDDH 231320Z 24009KT 200V280 9999 SCT030 SCT250 10/03 Q1004 NOSIG=
0220101470999992014032313504+53630+009988FM-15+001699999V0202701V00411009141CN009999199+01001+00201999999ADDGA1021+007621091GA2041+009141991GA3071+076201991GE19MSL   +99999+99999GF199999021990007621991991MA1100401999990MW1161REMMET091METAR EDDH 231350Z 27008KT 230V300 9999 VCSH FEW025CB SCT030 BKN250      10/02 Q1004 NOSIG=
0220101470999992014032314204+53630+009988FM-15+001699999V0202601V00311009141CN009999199+01001+00201999999ADDGA1021+007621091GA2041+009141991GA3071+076201991GE19MSL   +99999+99999GF199999021990007621991991MA1100401999990MW1161REMMET091METAR EDDH 231420Z 26006KT 150V300 9999 VCSH FEW025CB SCT030 BKN250      10/02 Q1004 NOSIG=
0184101470999992014032314504+53630+009988FM-15+001699999V0202701N00461010061CN009999199+01001+00201999999ADDGA1021+009141091GA2041+010061991GE19MSL   +99999+99999GF199999021990009141991991MA1100401999990MW1161REMMET071METAR EDDH 231450Z 27009KT 9999 VCSH FEW030CB SCT033 10/02 Q1004 NOSIG=
0186101470999992014032315204+53630+009988FM-15+001699999V0202801V00211010061CN009999199+01001+00201999999ADDGA1021+009141091GA2041+010061991GE19MSL   +99999+99999GF199999021990009141991991MA1100401999990REMMET079METAR EDDH 231520Z 28004KT 240V320 9999 FEW030CB SCT033 10/02 Q1004      NOSIG=
0187101470999992014032315504+53630+009988FM-15+001699999V0202701V00461010671CN009999199+01101-00101999999ADDGA1021+009141091GA2041+010671991GE19MSL   +99999+99999GF199999021990009141991991MA1100401999990REMMET080METAR EDDH 231550Z 27009KT 240V300 9999 FEW030CB SCT035 11/M01 Q1004      NOSIG=
0184101470999992014032316204+53630+009988FM-15+001699999V0203001N00361010671CN009999199+01001+00201999999ADDGA1021+009141091GA2041+010671991GE19MSL   +99999+99999GF199999021990009141991991MA1100501999990MW1161REMMET071METAR EDDH 231620Z 30007KT 9999 VCSH FEW030CB SCT035 10/02 Q1005 NOSIG=
0184101470999992014032316504+53630+009988FM-15+001699999V0203101N00361010671CN009999199+00901+00201999999ADDGA1021+009141091GA2041+010671991GE19MSL   +99999+99999GF199999021990009141991991MA1100501999990MW1161REMMET071METAR EDDH 231650Z 31007KT 9999 VCSH FEW030CB SCT035 09/02 Q1005 NOSIG=
0184101470999992014032317204+53630+009988FM-15+001699999V0203101N00571010671CN009999199+00801+00301999999ADDGA1021+009141091GA2041+010671991GE19MSL   +99999+99999GF199999021990009141991991MA1100501999990MW1161REMMET071METAR EDDH 231720Z 31011KT 9999 VCSH FEW030CB SCT035 08/03 Q1005 NOSIG=
0173101470999992014032317504+53630+009988FM-15+001699999V0203001N004110088419N009999199+00701+00201999999ADDGA1021+007921091GA2071+008841991GE19MSL   +99999+99999GF199999021990007921991991MA1100601999990REMMET066METAR EDDH 231750Z 30008KT 9999 FEW026CB BKN029 07/02 Q1006 NOSIG=
0173101470999992014032318204+53630+009988FM-15+001699999V0203001N00361008841CN009999199+00601+00201999999ADDGA1021+007921091GA2041+008841991GE19MSL   +99999+99999GF199999021990007921991991MA1100601999990REMMET066METAR EDDH 231820Z 30007KT 9999 FEW026CB SCT029 06/02 Q1006 NOSIG=
0150101470999992014032318504+53630+009988FM-15+001699999V0202901N002619999999N009999199+00601+00201999999ADDGA1021+007921091GE19MSL   +99999+99999GF199999021990007921991991MA1100701999990REMMET059METAR EDDH 231850Z 29005KT 9999 FEW026CB 06/02 Q1007 NOSIG=
0174101470999992014032319204+53630+009988FM-15+001699999V0202401N00261015241CN009999199+00501+00201999999ADDGA1021+007921081GA2041+015241991GE19MSL   +99999+99999GF199999021990007921991991MA1100701999990REMMET067METAR EDDH 231920Z 24005KT 9999 FEW026TCU SCT050 05/02 Q1007 NOSIG=
0171101470999992014032319504+53630+009988FM-15+001699999V0209999V00101015241CN009999199+00501+00201999999ADDGA1021+007921991GA2041+015241991GE19MSL   +99999+99999GF199999021990007921991991MA1100701999990REMMET064METAR EDDH 231950Z VRB02KT 9999 FEW026 SCT050 05/02 Q1007 NOSIG=
0179101470999992014032320204+53630+009988FM-15+001699999V0202201V00151015241CN009999199+00501+00301999999ADDGA1021+007921991GA2041+015241991GE19MSL   +99999+99999GF199999021990007921991991MA1100701999990REMMET072METAR EDDH 232020Z 22003KT 180V270 9999 FEW026 SCT050 05/03 Q1007 NOSIG=
0078101470999992014032320504+53630+009988FM-15+001699999V0203101N001519999999Y999999999+00501+00201999999ADDMA1100801999990REMMET051METAR EDDH 232050Z 31003KT CAVOK 05/02 Q1008 NOSIG=
0171101470999992014032321204+53630+009988FM-15+001699999V0202701N00151021341CN009999199+00501+00301999999ADDGA1021+013411991GA2041+021341991GE19MSL   +99999+99999GF199999021990013411991991MA1100801999990REMMET064METAR EDDH 232120Z 27003KT 9999 FEW044 SCT070 05/03 Q1008 NOSIG=
0171101470999992014032321504+53630+009988FM-15+001699999V0209999V000510182919N009999199+00401+00201999999ADDGA1021+013411991GA2071+018291991GE19MSL   +99999+99999GF199999021990013411991991MA1100801999990REMMET064METAR EDDH 232150Z VRB01KT 9999 FEW044 BKN060 04/02 Q1008 NOSIG=
0171101470999992014032322204+53630+009988FM-15+001699999V0202901N00101018291CN009999199+00301+00201999999ADDGA1021+013411991GA2041+018291991GE19MSL   +99999+99999GF199999021990013411991991MA1100801999990REMMET064METAR EDDH 232220Z 29002KT 9999 FEW044 SCT060 03/02 Q1008 NOSIG=
0078101470999992014032322504+53630+009988FM-15+001699999V0209999V000519999999Y999999999+00201+00101999999ADDMA1100801999990REMMET051METAR EDDH 232250Z VRB01KT CAVOK 02/01 Q1008 NOSIG=
0078101470999992014032323204+53630+009988FM-15+001699999V0202201N001019999999Y999999999+00101+00001999999ADDMA1100801999990REMMET051METAR EDDH 232320Z 22002KT CAVOK 01/00 Q1008 NOSIG=
0078101470999992014032323504+53630+009988FM-15+001699999V0202301N000519999999Y999999999+00201+00101999999ADDMA1100801999990REMMET051METAR EDDH 232350Z 23001KT CAVOK 02/01 Q1008 NOSIG=
0175101470999992014032400204+53630+009988FM-15+001699999V0209999V001010182919N009999199+00101+00101999999ADDGA1021+003661991GA2071+018291991GE19MSL   +99999+99999GF199999021990003661991991MA1100801999990REMMET068METAR COR EDDH 240020Z VRB02KT 9999 FEW012 BKN060 01/01 Q1008 NOSIG=
0178101470999992014032400504+53630+009988FM-15+001699999V0209999V00051015241CN009999199+00101+00001999999ADDGA1021+003661991GA2041+015241991GE19MSL   +99999+99999GF199999021990003661991991MA1100801999990REMMET071METAR EDDH 240050Z VRB01KT 9999 FEW012 SCT050 01/00 Q1008 TEMPO BKN012=
0178101470999992014032401204+53630+009988FM-15+001699999V0209999V00101015241CN009999199+00101+00101999999ADDGA1021+003661991GA2041+015241991GE19MSL   +99999+99999GF199999021990003661991991MA1100901999990REMMET071METAR EDDH 240120Z VRB02KT 9999 FEW012 SCT050 01/01 Q1009 TEMPO BKN012=
0171101470999992014032401504+53630+009988FM-15+001699999V0209999V000510146319N009999199+00101+00101999999ADDGA1021+003661991GA2071+014631991GE19MSL   +99999+99999GF199999021990003661991991MA1100901999990REMMET064METAR EDDH 240150Z VRB01KT 9999 FEW012 BKN048 01/01 Q1009 NOSIG=
0171101470999992014032402204+53630+009988FM-15+001699999V0209999V000510146319N009999199+00201+00101999999ADDGA1021+003661991GA2071+014631991GE19MSL   +99999+99999GF199999021990003661991991MA1100901999990REMMET064METAR EDDH 240220Z VRB01KT 9999 FEW012 BKN048 02/01 Q1009 NOSIG=
0171101470999992014032402504+53630+009988FM-15+001699999V0209999V000510146319N009999199+00201+00201999999ADDGA1021+003661991GA2071+014631991GE19MSL   +99999+99999GF199999021990003661991991MA1100901999990REMMET064METAR EDDH 240250Z VRB01KT 9999 FEW012 BKN048 02/02 Q1009 NOSIG=
0148101470999992014032403204+53630+009988FM-15+001699999V0202601N001019999999N009999199+00201+00201999999ADDGA1041+012801991GE19MSL   +99999+99999GF199999041990012801991991MA1100901999990REMMET057METAR EDDH 240320Z 26002KT 9999 SCT042 02/02 Q1009 NOSIG=
0189101470999992014032403504+53630+009988FM-15+001699999V0209999V000519999999N009999199+00101+00101999999ADDGA1021+012801991GE19MSL   +99999+99999GF199999021990012801991991MA1100901999990MW1121REMMET092METAR EDDH 240350Z VRB01KT 9999 R15/0500V0750D MIFG FEW042 01/01 Q1009      TEMPO 2000 BCFG=
0193101470999992014032404204+53630+009988FM-15+001699999V0202901N000519999999N009999199+00101+00001999999ADDGA1021+012801991GE19MSL   +99999+99999GF199999021990012801991991MA1101001999990MW1121REMMET096METAR COR EDDH 240420Z 29001KT 9999 R15/0400V0550N MIFG FEW042 01/00      Q1010 TEMPO 2000 BCFG=
0228101470999992014032404504+53630+009988FM-15+001699999V0209999V00051012191CN000900199+00001+00001999999ADDGA1021+000911991GA2041+012191991GE19MSL   +99999+99999GF199999021990000911991991MA1101001999990MW1441REMMET115METAR EDDH 240450Z VRB01KT 0900 R23/0550V1600D R15/0350V0500N FG FEW003      SCT040 00/M00 Q1010 TEMPO 0500 BKN001=
0235101470999992014032405204+53630+009988FM-15+001699999V0209999V000510121919N001400199+00001+00001999999ADDGA1041+001221991GA2071+012191991GE19MSL   +99999+99999GF199999041990001221991991MA1101001999990MW1101MW2121REMMET116METAR EDDH 240520Z VRB01KT 1400 R23/P2000N R15/0700VP2000U MIFG BR      SCT004 BKN040 00/00 Q1010 TEMPO 0500 BKN001=
0218101470999992014032405504+53630+009988FM-15+001699999V0209999V001019999999N001800199+00101+00001999999ADDGA1021+000911991GE19MSL   +99999+99999GF199999021990000911991991MA1101001999990MW1101MW2111REMMET115METAR EDDH 240550Z VRB02KT 1800 0800SW R23/P2000N R15/0250V1600U BCFG      BR FEW003 01/00 Q1010 TEMPO 0500 BKN001=
0189101470999992014032406204+53630+009988FM-15+001699999V0203201N002110006119N003000199+00101+00101999999ADDGA1071+000611991GE19MSL   +99999+99999GF199999071990000611991991MA1101001999990MW1101REMMET092METAR EDDH 240620Z 32004KT 3000 R15/0900V1900D BR BKN002 01/01 Q1010      BECMG 6000 BKN004=
0207101470999992014032406504+53630+009988FM-15+001699999V0203001V002110003019N000900199+00301+00201999999ADDGA1071+000301991GE19MSL   +99999+99999GF199999071990000301991991MA1101101999990MW1441REMMET110METAR EDDH 240650Z 30004KT 270V350 0900 R23/0400V0550N R15/0300N FG      BKN001 03/02 Q1011 BECMG 2500 BKN004=
0199101470999992014032407204+53630+009988FM-15+001699999V0209999V001010003019N000350199+00301+00301999999ADDGA1071+000301991GE19MSL   +99999+99999GF199999071990000301991991MA1101101999990MW1441REMMET102METAR EDDH 240720Z VRB02KT 0350 R23/0375N R15/0325V0500N FG BKN001      03/03 Q1011 BECMG 2500 BKN004=
0194101470999992014032407504+53630+009988FM-15+001699999V0209999V001010003019N001600199+00301+00301999999ADDGA1071+000301991GE19MSL   +99999+99999GF199999071990000301991991MA1101101999990MW1101REMMET097METAR EDDH 240750Z VRB02KT 1600 R23/0750D R15/0375N BR BKN001 03/03      Q1011 BECMG 3500 BKN004=
0215101470999992014032408204+53630+009988FM-15+001699999V0203401V002110012219N005000199+00501+00401999999ADDGA1041+000611991GA2071+001221991GE19MSL   +99999+99999GF199999041990000611991991MA1101101999990MW1101REMMET102METAR EDDH 240820Z 34004KT 300V020 5000 R15/0700V1300U BR SCT002 BKN004      05/04 Q1011 BECMG SCT006=
0207101470999992014032408504+53630+009988FM-15+001699999V0203001V00211001521CN008000199+00501+00401999999ADDGA1021+000911991GA2041+001521991GA3071+012191991GE19MSL   +99999+99999GF199999021990000911991991MA1101201999990REMMET084METAR EDDH 240850Z 30004KT 280V360 8000 FEW003 SCT005 BKN040 05/04      Q1012 NOSIG=
0207101470999992014032409204+53630+009988FM-15+001699999V0203401V00151006401CN009999199+00601+00401999999ADDGA1021+001521991GA2041+006401991GA3071+010971991GE19MSL   +99999+99999GF199999021990001521991991MA1101101999990REMMET084METAR EDDH 240920Z 34003KT 270V020 9999 FEW005 SCT021 BKN036 06/04      Q1011 NOSIG=
0156101470999992014032409504+53630+009988FM-15+001699999V0203001V002119999999N009999199+00601+00401999999ADDGA1021+007621991GE19MSL   +99999+99999GF199999021990007621991991MA1101101999990REMMET065METAR EDDH 240950Z 30004KT 280V340 9999 FEW025 06/04 Q1011 NOSIG=
0156101470999992014032410204+53630+009988FM-15+001699999V0203301V002119999999N009999199+00801+00301999999ADDGA1041+004881991GE19MSL   +99999+99999GF199999041990004881991991MA1101101999990REMMET065METAR EDDH 241020Z 33004KT 250V020 9999 SCT016 08/03 Q1011 NOSIG=
0156101470999992014032410504+53630+009988FM-15+001699999V0203301V002619999999N009999199+00801+00201999999ADDGA1041+006401991GE19MSL   +99999+99999GF199999041990006401991991MA1101101999990REMMET065METAR EDDH 241050Z 33005KT 290V350 9999 SCT021 08/02 Q1011 NOSIG=
0156101470999992014032411204+53630+009988FM-15+001699999V0202801V002619999999N009999199+00801+00201999999ADDGA1021+007621991GE19MSL   +99999+99999GF199999021990007621991991MA1101101999990REMMET065METAR EDDH 241120Z 28005KT 250V310 9999 FEW025 08/02 Q1011 NOSIG=
0149101470999992014032411504+53630+009988FM-15+001699999V0203001N002619999999N009999199+00801+00001999999ADDGA1041+009451991GE19MSL   +99999+99999GF199999041990009451991991MA1101101999990REMMET058METAR EDDH 241150Z 30005KT 9999 SCT031 08/M00 Q1011 NOSIG=
0148101470999992014032412204+53630+009988FM-15+001699999V0209999V001510106719N009999199+00901+00101999999ADDGA1071+010671991GE19MSL   +99999+99999GF199999071990010671991991MA1101101999990REMMET057METAR EDDH 241220Z VRB03KT 9999 BKN035 09/01 Q1011 NOSIG=
0183101470999992014032412504+53630+009988FM-15+001699999V0209999V00211018291CN009999199+00901+00001999999ADDGA1041+010671991GA2041+018291991GE19MSL   +99999+99999GF199999041990010671991991MA1101101999990MW1801REMMET070METAR EDDH 241250Z VRB04KT 9999 -SHRA SCT035 SCT060 09/00 Q1011 NOSIG=
0196101470999992014032413204+53630+009988FM-15+001699999V0202901V003610195119N009999199+00801+00201999999ADDGA1041+010061991GA2071+019511991GE19MSL   +99999+99999GF199999041990010061991991MA1101101999990MW1801REMMET083METAR EDDH 241320Z 29007KT 270V330 9999 -SHRA SCT033 BKN064 08/02 Q1011      NOSIG=
0203101470999992014032413504+53630+009988FM-15+001699999V0202701V003110231619N009999199+00901+00101999999ADDGA1021+009141091GA2071+023161991GE19MSL   +99999+99999GF199999021990009141991991MA1101101999990MW1801REMMET090METAR EDDH 241350Z 27006KT 250V310 9999 -SHRA FEW030CB BKN076 09/01      Q1011 TEMPO SHRA=
0202101470999992014032414204+53630+009988FM-15+001699999V0203001V003610243819N009999199+00901+00101999999ADDGA1041+010671091GA2071+024381991GE19MSL   +99999+99999GF199999041990010671991991MA1101101999990MW1161REMMET089METAR EDDH 241420Z 30007KT 260V320 9999 VCSH SCT035CB BKN080 09/01      Q1011 TEMPO SHRA=
0195101470999992014032414504+53630+009988FM-15+001699999V0203201N006210243819N009999199+00801+00201999999ADDGA1041+009141091GA2071+024381991GE19MSL   +99999+99999GF199999041990009141991991MA1101101999990MW1801REMMET082METAR EDDH 241450Z 32012KT 9999 -SHRA SCT030CB BKN080 08/02 Q1011 TEMPO      SHRA=
0167101470999992014032415204+53630+009988FM-15+001699999V0202901N004119999999N009999199+00701+00201999999ADDGA1041+010361091GE19MSL   +99999+99999GF199999041990010361991991MA1101101999990MW1801REMMET070METAR EDDH 241520Z 29008KT 9999 -SHRA SCT034CB 07/02 Q1011 TEMPO SHRA=
0167101470999992014032415504+53630+009988FM-15+001699999V0202901N004119999999N009999199+00701+00201999999ADDGA1041+011281091GE19MSL   +99999+99999GF199999041990011281991991MA1101101999990MW1801REMMET070METAR EDDH 241550Z 29008KT 9999 -SHRA SCT037CB 07/02 Q1011 TEMPO SHRA=
0166101470999992014032416204+53630+009988FM-15+001699999V0203201N005119999999N009999199+00701+00201999999ADDGA1041+007921091GE19MSL   +99999+99999GF199999041990007921991991MA1101101999990MW1161REMMET069METAR EDDH 241620Z 32010KT 9999 VCSH SCT026CB 07/02 Q1011 TEMPO SHRA=
0166101470999992014032416504+53630+009988FM-15+001699999V0203301N003119999999N009999199+00701+00201999999ADDGA1041+009141091GE19MSL   +99999+99999GF199999041990009141991991MA1101101999990MW1161REMMET069METAR EDDH 241650Z 33006KT 9999 VCSH SCT030CB 07/02 Q1011 TEMPO SHRA=
0173101470999992014032417204+53630+009988FM-15+001699999V0202901N00311024381CN009999199+00701+00201999999ADDGA1021+009141091GA2041+024381991GE19MSL   +99999+99999GF199999021990009141991991MA1101101999990REMMET066METAR EDDH 241720Z 29006KT 9999 FEW030CB SCT080 07/02 Q1011 NOSIG=
0078101470999992014032417504+53630+009988FM-15+001699999V0203001N002119999999Y999999999+00601+00201999999ADDMA1101201999990REMMET051METAR EDDH 241750Z 30004KT CAVOK 06/02 Q1012 NOSIG=
0078101470999992014032418204+53630+009988FM-15+001699999V0203401N001019999999Y999999999+00501+00201999999ADDMA1101201999990REMMET051METAR EDDH 241820Z 34002KT CAVOK 05/02 Q1012 NOSIG=
0086101470999992014032418504+53630+009988FM-15+001699999V0203501V001519999999Y999999999+00401+00201999999ADDMA1101201999990REMMET059METAR EDDH 241850Z 35003KT 320V040 CAVOK 04/02 Q1012 NOSIG=
0078101470999992014032419204+53630+009988FM-15+001699999V0203601N001019999999Y999999999+00301+00101999999ADDMA1101201999990REMMET051METAR EDDH 241920Z 36002KT CAVOK 03/01 Q1012 NOSIG=
0078101470999992014032419504+53630+009988FM-15+001699999V0209999V001019999999Y999999999+00301+00101999999ADDMA1101301999990REMMET051METAR EDDH 241950Z VRB02KT CAVOK 03/01 Q1013 NOSIG=
0078101470999992014032420204+53630+009988FM-15+001699999V0209999V001019999999Y999999999+00301+00201999999ADDMA1101301999990REMMET051METAR EDDH 242020Z VRB02KT CAVOK 03/02 Q1013 NOSIG=
0078101470999992014032420504+53630+009988FM-15+001699999V0209999V001019999999Y999999999+00301+00201999999ADDMA1101301999990REMMET051METAR EDDH 242050Z VRB02KT CAVOK 03/02 Q1013 NOSIG=
0078101470999992014032421204+53630+009988FM-15+001699999V0209999V001019999999Y999999999+00401+00201999999ADDMA1101301999990REMMET051METAR EDDH 242120Z VRB02KT CAVOK 04/02 Q1013 NOSIG=
0078101470999992014032421504+53630+009988FM-15+001699999V0203301N002119999999Y999999999+00301+00201999999ADDMA1101201999990REMMET051METAR EDDH 242150Z 33004KT CAVOK 03/02 Q1012 NOSIG=
0078101470999992014032422204+53630+009988FM-15+001699999V0203301N002119999999Y999999999+00301+00201999999ADDMA1101301999990REMMET051METAR EDDH 242220Z 33004KT CAVOK 03/02 Q1013 NOSIG=
0078101470999992014032422504+53630+009988FM-15+001699999V0203401N001519999999Y999999999+00301+00201999999ADDMA1101201999990REMMET051METAR EDDH 242250Z 34003KT CAVOK 03/02 Q1012 NOSIG=
0078101470999992014032423204+53630+009988FM-15+001699999V0203301N001519999999Y999999999+00301+00201999999ADDMA1101201999990REMMET051METAR EDDH 242320Z 33003KT CAVOK 03/02 Q1012 NOSIG=
0078101470999992014032423504+53630+009988FM-15+001699999V0209999V001019999999Y999999999+00301+00201999999ADDMA1101201999990REMMET051METAR EDDH 242350Z VRB02KT CAVOK 03/02 Q1012 NOSIG=
0078101470999992014032500204+53630+009988FM-15+001699999V0203101N001019999999Y999999999+00301+00201999999ADDMA1101201999990REMMET051METAR EDDH 250020Z 31002KT CAVOK 03/02 Q1012 NOSIG=
0078101470999992014032500504+53630+009988FM-15+001699999V0203001N001019999999Y999999999+00301+00201999999ADDMA1101201999990REMMET051METAR EDDH 250050Z 30002KT CAVOK 03/02 Q1012 NOSIG=
0078101470999992014032501204+53630+009988FM-15+001699999V0202801N001019999999Y999999999+00301+00201999999ADDMA1101201999990REMMET051METAR EDDH 250120Z 28002KT CAVOK 03/02 Q1012 NOSIG=
0078101470999992014032501504+53630+009988FM-15+001699999V0203401N001519999999Y999999999+00301+00201999999ADDMA1101201999990REMMET051METAR EDDH 250150Z 34003KT CAVOK 03/02 Q1012 NOSIG=
0078101470999992014032502204+53630+009988FM-15+001699999V0203201N001519999999Y999999999+00301+00101999999ADDMA1101201999990REMMET051METAR EDDH 250220Z 32003KT CAVOK 03/01 Q1012 NOSIG=
0078101470999992014032502504+53630+009988FM-15+001699999V0203501N001019999999Y999999999+00301+00101999999ADDMA1101201999990REMMET051METAR EDDH 250250Z 35002KT CAVOK 03/01 Q1012 NOSIG=
0078101470999992014032503204+53630+009988FM-15+001699999V0203301N001019999999Y999999999+00201+00101999999ADDMA1101201999990REMMET051METAR EDDH 250320Z 33002KT CAVOK 02/01 Q1012 NOSIG=
0173101470999992014032503504+53630+009988FM-15+001699999V0203101N001019999999N009999199+00201+00001999999ADDGA1021+012191991GE19MSL   +99999+99999GF199999021990012191991991MA1101201999990REMMET082METAR COR EDDH 250350Z 31002KT 9999 R05/0450VP2000U FEW040 02/00 Q1012      NOSIG=
0148101470999992014032504204+53630+009988FM-15+001699999V0203101N001019999999N009999199+00201+00101999999ADDGA1021+012191991GE19MSL   +99999+99999GF199999021990012191991991MA1101201999990REMMET057METAR EDDH 250420Z 31002KT 9999 FEW040 02/01 Q1012 NOSIG=
0170101470999992014032504504+53630+009988FM-15+001699999V0209999V001019999999N009999199+00001-00101999999ADDGA1021+012191991GE19MSL   +99999+99999GF199999021990012191991991MA1101201999990REMMET079METAR EDDH 250450Z VRB02KT 9999 R15/0700VP2000U FEW040 00/M01 Q1012      NOSIG=
0124101470999992014032505204+53630+009988FM-15+001699999V0209999V000512200019N009999199+00001-00101999999ADDGF100991999999999999999999MA1101201999990MW1121REMMET065METAR EDDH 250520Z VRB01KT 9999 MIFG NSC 00/M01 Q1012 TEMPO 1200=
0163101470999992014032505504+53630+009988FM-15+001699999V0203301N001012200019N009999199+00001-00101999999ADDGF100991999999999999999999MA1101201999990MW1111MW2121REMMET098METAR EDDH 250550Z 33002KT 9999 2400NW R15/0650V1600N BCFG MIFG NSC      M00/M01 Q1012 TEMPO 1200=
0126101470999992014032506204+53630+009988FM-15+001699999V0203201V001512200019N009999199+00101+00101999999ADDGF100991999999999999999999MA1101201999990MW1121REMMET067METAR EDDH 250620Z 32003KT 290V010 9999 MIFG NSC 01/01 Q1012 NOSIG=
0086101470999992014032506504+53630+009988FM-15+001699999V0203301V001519999999Y999999999+00301+00201999999ADDMA1101201999990REMMET059METAR EDDH 250650Z 33003KT 300V360 CAVOK 03/02 Q1012 NOSIG=
0086101470999992014032507204+53630+009988FM-15+001699999V0203201V001519999999Y999999999+00501+00201999999ADDMA1101201999990REMMET059METAR EDDH 250720Z 32003KT 280V350 CAVOK 05/02 Q1012 NOSIG=
0078101470999992014032507504+53630+009988FM-15+001699999V0203301N002119999999Y999999999+00601+00201999999ADDMA1101201999990REMMET051METAR EDDH 250750Z 33004KT CAVOK 06/02 Q1012 NOSIG=
0086101470999992014032508204+53630+009988FM-15+001699999V0203001V002119999999Y999999999+00701+00201999999ADDMA1101201999990REMMET059METAR EDDH 250820Z 30004KT 270V350 CAVOK 07/02 Q1012 NOSIG=
0156101470999992014032508504+53630+009988FM-15+001699999V0203601V001519999999N009999199+00801+00201999999ADDGA1021+009141991GE19MSL   +99999+99999GF199999021990009141991991MA1101201999990REMMET065METAR EDDH 250850Z 36003KT 290V080 9999 FEW030 08/02 Q1012 NOSIG=
0148101470999992014032509204+53630+009988FM-15+001699999V0209999V002119999999N009999199+00801+00001999999ADDGA1021+007621991GE19MSL   +99999+99999GF199999021990007621991991MA1101201999990REMMET057METAR EDDH 250920Z VRB04KT 9999 FEW025 08/00 Q1012 NOSIG=
0157101470999992014032509504+53630+009988FM-15+001699999V0200101V003119999999N009999199+00801-00101999999ADDGA1021+009141991GE19MSL   +99999+99999GF199999021990009141991991MA1101201999990REMMET066METAR EDDH 250950Z 01006KT 310V070 9999 FEW030 08/M01 Q1012 NOSIG=
0156101470999992014032510204+53630+009988FM-15+001699999V0200301V001519999999N009999199+00901+00201999999ADDGA1041+011581991GE19MSL   +99999+99999GF199999041990011581991991MA1101101999990REMMET065METAR EDDH 251020Z 03003KT 330V130 9999 SCT038 09/02 Q1011 NOSIG=
0157101470999992014032510504+53630+009988FM-15+001699999V0203501V003619999999N009999199+00801-00101999999ADDGA1041+012191991GE19MSL   +99999+99999GF199999041990012191991991MA1101101999990REMMET066METAR EDDH 251050Z 35007KT 270V070 9999 SCT040 08/M01 Q1011 NOSIG=
0157101470999992014032511204+53630+009988FM-15+001699999V0200301V003619999999N009999199+00901-00101999999ADDGA1041+012191991GE19MSL   +99999+99999GF199999041990012191991991MA1101101999990REMMET066METAR EDDH 251120Z 03007KT 320V070 9999 SCT040 09/M01 Q1011 NOSIG=
0157101470999992014032511504+53630+009988FM-15+001699999V0200101V004119999999N009999199+00801-00201999999ADDGA1041+012191991GE19MSL   +99999+99999GF199999041990012191991991MA1101101999990REMMET066METAR EDDH 251150Z 01008KT 330V050 9999 SCT040 08/M02 Q1011 NOSIG=
0179101470999992014032512204+53630+009988FM-15+001699999V0200201V00311076201CN009999199+01001+00101999999ADDGA1041+012801991GA2041+076201991GE19MSL   +99999+99999GF199999041990012801991991MA1101101999990REMMET072METAR EDDH 251220Z 02006KT 310V070 9999 SCT042 SCT250 10/01 Q1011 NOSIG=
0185101470999992014032512504+53630+009988FM-15+001699999V0203601V00311076201CN009999199+01001-00101999999ADDGA1021+012801991GA2041+076201991GE19MSL   +99999+99999GF199999021990012801991991MA1101001999990REMMET078METAR EDDH 251250Z 36006KT 320V040 9999 FEW042 SCT250 10/M01 Q1010      NOSIG=
0185101470999992014032513204+53630+009988FM-15+001699999V0203601V00461076201CN009999199+00901-00101999999ADDGA1021+013111991GA2041+076201991GE19MSL   +99999+99999GF199999021990013111991991MA1101001999990REMMET078METAR EDDH 251320Z 36009KT 320V030 9999 FEW043 SCT250 09/M01 Q1010      NOSIG=
0169101470999992014032513504+53630+009988FM-15+001699999V0200301V003619999999N009999199+01001-00201999999ADDGA1021+013111081GE19MSL   +99999+99999GF199999021990013111991991MA1101001999990REMMET078METAR COR EDDH 251350Z 03007KT 330V080 9999 FEW043TCU 10/M02 Q1010      NOSIG=
0176101470999992014032514204+53630+009988FM-15+001699999V0200201V004119999999N009999199+01001-00301999999ADDGA1041+013721081GE19MSL   +99999+99999GF199999041990013721991991MA1101001999990MW1161REMMET079METAR EDDH 251420Z 02008KT 320V060 9999 VCSH SCT045TCU 10/M03 Q1010      NOSIG=
0199101470999992014032514504+53630+009988FM-15+001699999V0200201V004110762019N009999199+00901-00101999999ADDGA1041+013721081GA2071+076201991GE19MSL   +99999+99999GF199999041990013721991991MA1101001999990MW1161REMMET086METAR EDDH 251450Z 02008KT 340V060 9999 VCSH SCT045TCU BKN250 09/M01      Q1010 NOSIG=
0221101470999992014032515204+53630+009988FM-15+001699999V0200301V005710762019N009999199+00901+00001999999ADDGA1021+004571991GA2021+012191081GA3071+076201991GE19MSL   +99999+99999GF199999021990004571991991MA1101001999990MW1161REMMET092METAR EDDH 251520Z 03011KT 350V050 9999 VCSH FEW015 FEW040TCU BKN250      09/00 Q1010 NOSIG=
0220101470999992014032515504+53630+009988FM-15+001699999V0200201V00311076201CN009999199+00801+00001999999ADDGA1021+005491991GA2021+012191091GA3041+076201991GE19MSL   +99999+99999GF199999021990005491991991MA1101101999990MW1161REMMET091METAR EDDH 251550Z 02006KT 340V060 9999 VCSH FEW018 FEW040CB SCT250      08/00 Q1011 NOSIG=
0221101470999992014032516204+53630+009988FM-15+001699999V0200301V00461076201CN009999199+00901+00001999999ADDGA1021+005491991GA2021+010971091GA3041+076201991GE19MSL   +99999+99999GF199999021990005491991991MA1101101999990MW1161REMMET092METAR EDDH 251620Z 03009KT 360V060 9999 VCSH FEW018 FEW036CB SCT250      09/M00 Q1011 NOSIG=
0210101470999992014032516504+53630+009988FM-15+001699999V0200201V00411076201CN009999199+00801+00001999999ADDGA1021+005491991GA2021+010361091GA3041+076201991GE19MSL   +99999+99999GF199999021990005491991991MA1101101999990REMMET087METAR EDDH 251650Z 02008KT 330V050 9999 FEW018 FEW034CB SCT250 08/M00      Q1011 NOSIG=
0185101470999992014032517204+53630+009988FM-15+001699999V0200301V002610914419N009999199+00801-00101999999ADDGA1021+010061991GA2071+091441991GE19MSL   +99999+99999GF199999021990010061991991MA1101101999990REMMET078METAR EDDH 251720Z 03005KT 360V060 9999 FEW033 BKN300 08/M01 Q1011      NOSIG=
0172101470999992014032517504+53630+009988FM-15+001699999V0203601N00211091441CN009999199+00501-00101999999ADDGA1021+008531991GA2041+091441991GE19MSL   +99999+99999GF199999021990008531991991MA1101101999990REMMET065METAR EDDH 251750Z 36004KT 9999 FEW028 SCT300 05/M01 Q1011 NOSIG=
0156101470999992014032518204+53630+009988FM-15+001699999V0203601V002619999999N009999199+00601+00001999999ADDGA1021+007321991GE19MSL   +99999+99999GF199999021990007321991991MA1101101999990REMMET065METAR EDDH 251820Z 36005KT 330V040 9999 FEW024 06/00 Q1011 NOSIG=
0086101470999992014032518504+53630+009988FM-15+001699999V0203601V002619999999Y999999999+00501+00101999999ADDMA1101101999990REMMET059METAR EDDH 251850Z 36005KT 330V030 CAVOK 05/01 Q1011 NOSIG=
0086101470999992014032519204+53630+009988FM-15+001699999V0203601V003119999999Y999999999+00501+00101999999ADDMA1101101999990REMMET059METAR EDDH 251920Z 36006KT 330V030 CAVOK 05/01 Q1011 NOSIG=
0086101470999992014032519504+53630+009988FM-15+001699999V0203501V002619999999Y999999999+00501+00101999999ADDMA1101101999990REMMET059METAR EDDH 251950Z 35005KT 320V040 CAVOK 05/01 Q1011 NOSIG=
0078101470999992014032520204+53630+009988FM-15+001699999V0203201N003119999999Y999999999+00501+00101999999ADDMA1101101999990REMMET051METAR EDDH 252020Z 32006KT CAVOK 05/01 Q1011 NOSIG=
0171101470999992014032520504+53630+009988FM-15+001699999V0203301N00261091441CN009999199+00501+00101999999ADDGA1041+011581991GA2041+091441991GE19MSL   +99999+99999GF199999041990011581991991MA1101101999990REMMET064METAR EDDH 252050Z 33005KT 9999 SCT038 SCT300 05/01 Q1011 NOSIG=
0171101470999992014032521204+53630+009988FM-15+001699999V0203201N002610304819N009999199+00501+00101999999ADDGA1021+011581991GA2071+030481991GE19MSL   +99999+99999GF199999021990011581991991MA1101101999990REMMET064METAR EDDH 252120Z 32005KT 9999 FEW038 BKN100 05/01 Q1011 NOSIG=
0171101470999992014032521504+53630+009988FM-15+001699999V0203101N002610274319N009999199+00401+00101999999ADDGA1021+012191991GA2071+027431991GE19MSL   +99999+99999GF199999021990012191991991MA1101101999990REMMET064METAR EDDH 252150Z 31005KT 9999 FEW040 BKN090 04/01 Q1011 NOSIG=
0171101470999992014032522204+53630+009988FM-15+001699999V0203201N00261027431CN009999199+00401+00101999999ADDGA1021+012191991GA2041+027431991GE19MSL   +99999+99999GF199999021990012191991991MA1101101999990REMMET064METAR EDDH 252220Z 32005KT 9999 FEW040 SCT090 04/01 Q1011 NOSIG=
0171101470999992014032522504+53630+009988FM-15+001699999V0203101N00211027431CN009999199+00401+00101999999ADDGA1021+012191991GA2041+027431991GE19MSL   +99999+99999GF199999021990012191991991MA1101101999990REMMET064METAR EDDH 252250Z 31004KT 9999 FEW040 SCT090 04/01 Q1011 NOSIG=
0171101470999992014032523204+53630+009988FM-15+001699999V0203101N002610304819N009999199+00401+00101999999ADDGA1021+012191991GA2071+030481991GE19MSL   +99999+99999GF199999021990012191991991MA1101101999990REMMET064METAR EDDH 252320Z 31005KT 9999 FEW040 BKN100 04/01 Q1011 NOSIG=
0171101470999992014032523504+53630+009988FM-15+001699999V0203201N002610304819N009999199+00401+00101999999ADDGA1021+012191991GA2071+030481991GE19MSL   +99999+99999GF199999021990012191991991MA1101101999990REMMET064METAR EDDH 252350Z 32005KT 9999 FEW040 BKN100 04/01 Q1011 NOSIG=
0171101470999992014032600204+53630+009988FM-15+001699999V0203201N002610243819N009999199+00301+00101999999ADDGA1021+012191991GA2071+024381991GE19MSL   +99999+99999GF199999021990012191991991MA1101001999990REMMET064METAR EDDH 260020Z 32005KT 9999 FEW040 BKN080 03/01 Q1010 NOSIG=
0186101470999992014032600504+53630+009988FM-15+001699999V0202901N001510182919N009999199+00401+00101999999ADDGA1041+009751991GA2071+018291991GE19MSL   +99999+99999GF199999041990009751991991MA1101001999990REMMET079METAR EDDH 260050Z 29003KT 9999 SCT032 BKN060 04/01 Q1010 TEMPO RA      BKN012=
0197101470999992014032601204+53630+009988FM-15+001699999V0203001N001010189019N009999199+00301+00101999999ADDGA1021+013411991GA2071+018901991GE19MSL   +99999+99999GF199999021990013411991991MA1101001999990MW1161REMMET084METAR EDDH 260120Z 30002KT 9999 VCSH FEW044 BKN062 03/01 Q1010 TEMPO      RA BKN012=
0197101470999992014032601504+53630+009988FM-15+001699999V0209999V001010189019N009999199+00401+00101999999ADDGA1041+013411991GA2071+018901991GE19MSL   +99999+99999GF199999041990013411991991MA1101001999990MW1161REMMET084METAR EDDH 260150Z VRB02KT 9999 VCSH SCT044 BKN062 04/01 Q1010 TEMPO      RA BKN012=
0196101470999992014032602204+53630+009988FM-15+001699999V0203201N004610128019N009999199+00401+00101999999ADDGA1041+007011991GA2071+012801991GE19MSL   +99999+99999GF199999041990007011991991MA1101001999990MW1611REMMET083METAR EDDH 260220Z 32009KT 9999 -RA SCT023 BKN042 04/01 Q1010 TEMPO      RA BKN012=
0219101470999992014032602504+53630+009988FM-15+001699999V0203101N002110128019N009999199+00301+00101999999ADDGA1041+006711991GA2071+012801991GA3071+019511991GE19MSL   +99999+99999GF199999041990006711991991MA1101001999990MW1611REMMET090METAR EDDH 260250Z 31004KT 9999 -RA SCT022 BKN042 BKN064 03/01 Q1010      TEMPO RA BKN012=
0196101470999992014032603204+53630+009988FM-15+001699999V0202701N002110112819N009999199+00301+00101999999ADDGA1041+006711991GA2071+011281991GE19MSL   +99999+99999GF199999041990006711991991MA1101001999990MW1611REMMET083METAR EDDH 260320Z 27004KT 9999 -RA SCT022 BKN037 03/01 Q1010 TEMPO      RA BKN012=
0194101470999992014032603504+53630+009988FM-15+001699999V0202701N001510231619N009999199+00301+00101999999ADDGA1041+011281991GA2071+023161991GE19MSL   +99999+99999GF199999041990011281991991MA1101101999990MW1161REMMET081METAR EDDH 260350Z 27003KT 9999 VCSH SCT037 BKN076 03/01 Q1011 TEMPO      BKN012=
0178101470999992014032604204+53630+009988FM-15+001699999V0202301N002110231619N009999199+00301+00001999999ADDGA1041+014021991GA2071+023161991GE19MSL   +99999+99999GF199999041990014021991991MA1101101999990REMMET071METAR EDDH 260420Z 23004KT 9999 SCT046 BKN076 03/00 Q1011 TEMPO BKN012=
0178101470999992014032604504+53630+009988FM-15+001699999V0202201N002110182919N009999199+00201+00001999999ADDGA1021+014021991GA2071+018291991GE19MSL   +99999+99999GF199999021990014021991991MA1101101999990REMMET071METAR EDDH 260450Z 22004KT 9999 FEW046 BKN060 02/00 Q1011 TEMPO BKN012=
0178101470999992014032605204+53630+009988FM-15+001699999V0202301N002610213419N009999199+00301+00101999999ADDGA1021+014021991GA2071+021341991GE19MSL   +99999+99999GF199999021990014021991991MA1101101999990REMMET071METAR EDDH 260520Z 23005KT 9999 FEW046 BKN070 03/01 Q1011 TEMPO BKN012=
0078101470999992014032605504+53630+009988FM-15+001699999V0202101N002619999999Y999999999+00301+00101999999ADDMA1101101999990REMMET051METAR EDDH 260550Z 21005KT CAVOK 03/01 Q1011 NOSIG=
0086101470999992014032606204+53630+009988FM-15+001699999V0202101V003119999999Y999999999+00401+00101999999ADDMA1101201999990REMMET059METAR EDDH 260620Z 21006KT 190V250 CAVOK 04/01 Q1012 NOSIG=
0179101470999992014032606504+53630+009988FM-15+001699999V0201901V003610762019N009999199+00501+00101999999ADDGA1021+010361991GA2071+076201991GE19MSL   +99999+99999GF199999021990010361991991MA1101201999990REMMET072METAR EDDH 260650Z 19007KT 160V220 9999 FEW034 BKN250 05/01 Q1012 NOSIG=
0171101470999992014032607204+53630+009988FM-15+001699999V0201701N005110762019N009999199+00501+00101999999ADDGA1041+008841991GA2071+076201991GE19MSL   +99999+99999GF199999041990008841991991MA1101301999990REMMET064METAR EDDH 260720Z 17010KT 9999 SCT029 BKN250 05/01 Q1013 NOSIG=
0171101470999992014032607504+53630+009988FM-15+001699999V0201901N004110762019N009999199+00501+00101999999ADDGA1041+007921991GA2071+076201991GE19MSL   +99999+99999GF199999041990007921991991MA1101301999990REMMET064METAR EDDH 260750Z 19008KT 9999 SCT026 BKN250 05/01 Q1013 NOSIG=
0179101470999992014032608204+53630+009988FM-15+001699999V0201601V00461033531CN009999199+00601+00101999999ADDGA1021+007921991GA2041+033531991GE19MSL   +99999+99999GF199999021990007921991991MA1101401999990REMMET072METAR EDDH 260820Z 16009KT 130V190 9999 FEW026 SCT110 06/01 Q1014 NOSIG=
0179101470999992014032608504+53630+009988FM-15+001699999V0201801V00411033531CN009999199+00601+00101999999ADDGA1041+006711991GA2041+033531991GE19MSL   +99999+99999GF199999041990006711991991MA1101401999990REMMET072METAR EDDH 260850Z 18008KT 130V230 9999 SCT022 SCT110 06/01 Q1014 NOSIG=
0179101470999992014032609204+53630+009988FM-15+001699999V0201601V00361033531CN009999199+00701+00201999999ADDGA1041+006711991GA2041+033531991GE19MSL   +99999+99999GF199999041990006711991991MA1101401999990REMMET072METAR EDDH 260920Z 16007KT 120V200 9999 SCT022 SCT110 07/02 Q1014 NOSIG=
0168101470999992014032609504+53630+009988FM-15+001699999V0201501V004119999999N009999199+00701+00201999999ADDGA1041+007011991GE19MSL   +99999+99999GF199999041990007011991991MA1101501999990MW1801REMMET071METAR EDDH 260950Z 15008KT 120V190 9999 -SHRA SCT023 07/02 Q1015 NOSIG=
0197101470999992014032610204+53630+009988FM-15+001699999V0201701V005710061019N009999199+00801+00101999999ADDGA1071+006101991GA2021+007011091GE19MSL   +99999+99999GF199999071990006101991991MA1101501999990MW1161REMMET084METAR EDDH 261020Z 17011KT 130V210 9999 VCSH BKN020 FEW023CB 08/01      Q1015 NOSIG=
0173101470999992014032610504+53630+009988FM-15+001699999V0201601N005110106719N009999199+00801+00101999999ADDGA1021+007011091GA2071+010671991GE19MSL   +99999+99999GF199999021990007011991991MA1101501999990REMMET066METAR EDDH 261050Z 16010KT 9999 FEW023CB BKN035 08/01 Q1015 NOSIG=
0156101470999992014032611204+53630+009988FM-15+001699999V0201601V005119999999N009999199+01001+00101999999ADDGA1041+010671991GE19MSL   +99999+99999GF199999041990010671991991MA1101601999990REMMET065METAR EDDH 261120Z 16010KT 130V210 9999 SCT035 10/01 Q1016 NOSIG=
0157101470999992014032611504+53630+009988FM-15+001699999V0201801V005119999999N009999199+01001-00101999999ADDGA1021+012801991GE19MSL   +99999+99999GF199999021990012801991991MA1101601999990REMMET066METAR EDDH 261150Z 18010KT 100V210 9999 FEW042 10/M01 Q1016 NOSIG=
0149101470999992014032612204+53630+009988FM-15+001699999V0201501N006719999999N009999199+01001-00201999999ADDGA1021+012801991GE19MSL   +99999+99999GF199999021990012801991991MA1101601999990REMMET058METAR EDDH 261220Z 15013KT 9999 FEW042 10/M02 Q1016 NOSIG=
0157101470999992014032612504+53630+009988FM-15+001699999V0201401V005719999999N009999199+01101-00201999999ADDGA1041+014631991GE19MSL   +99999+99999GF199999041990014631991991MA1101601999990REMMET066METAR EDDH 261250Z 14011KT 100V190 9999 SCT048 11/M02 Q1016 NOSIG=
0087101470999992014032613204+53630+009988FM-15+001699999V0201501V005119999999Y999999999+01101-00101999999ADDMA1101601999990REMMET060METAR EDDH 261320Z 15010KT 120V180 CAVOK 11/M01 Q1016 NOSIG=
0087101470999992014032613504+53630+009988FM-15+001699999V0201401V005719999999Y999999999+01001-00101999999ADDMA1101601999990REMMET060METAR EDDH 261350Z 14011KT 110V190 CAVOK 10/M01 Q1016 NOSIG=
0192101470999992014032614204+53630+009988FM-15+001699999V0201401V00721014631CN009999199+01101-00201999999ADDGA1021+009141091GA2041+014631991GE19MSL   +99999+99999GF199999021990009141991991MA1101601999990REMMET085METAR EDDH 261420Z 14014KT 110V190 9999 FEW030CB SCT048 11/M02 Q1016      TEMPO SHRA=
0203101470999992014032614504+53630+009988FM-15+001699999V0201101V00721013721CN009999199+01001-00101999999ADDGA1021+009141091GA2041+013721991GE19MSL   +99999+99999GF199999021990009141991991MA1101701999990MW1161REMMET090METAR EDDH 261450Z 11014KT 070V140 9999 VCSH FEW030CB SCT045 10/M01      Q1017 TEMPO SHRA=
0185101470999992014032615204+53630+009988FM-15+001699999V0201201N00461013721CN009999199+01001-00101999999ADDGA1021+010671081GA2041+013721991GE19MSL   +99999+99999GF199999021990010671991991MA1101701999990REMMET078METAR EDDH 261520Z 12009KT 9999 FEW035TCU SCT045 10/M01 Q1017 TEMPO      SHRA=
0204101470999992014032615504+53630+009988FM-15+001699999V0201201V00621013721CN009999199+01001+00001999999ADDGA1021+012191091GA2041+013721991GE19MSL   +99999+99999GF199999021990012191991991MA1101701999990MW1801REMMET091METAR EDDH 261550Z 12012KT 080V140 9999 -SHRA FEW040CB SCT045 10/M00      Q1017 TEMPO SHRA=
0167101470999992014032616204+53630+009988FM-15+001699999V0201101N008219999999N009999199+01001+00001999999ADDGA1041+012191091GE19MSL   +99999+99999GF199999041990012191991991MA1101801999990MW1801REMMET070METAR EDDH 261620Z 11016KT 9999 -SHRA SCT040CB 10/00 Q1018 TEMPO SHRA=
0193101470999992014032616504+53630+009988FM-15+001699999V0201001N00511024381CN009999199+00901+00001999999ADDGA1021+012191991GA2041+024381991GE19MSL   +99999+99999GF199999021990012191991991MA1101801999990MW1801REMMET080METAR EDDH 261650Z 10010KT 9999 -SHRA FEW040 SCT080 09/00 Q1018 TEMPO      SHRA=
0153101470999992014032617204+53630+009988FM-15+001699999V0200901N004619999999N009999199+00901+00101999999ADDGA1021+012191991GE19MSL   +99999+99999GF199999021990012191991991MA1101801999990REMMET062METAR EDDH 261720Z 09009KT 9999 FEW040 09/01 Q1018 TEMPO SHRA=
0149101470999992014032617504+53630+009988FM-15+001699999V0201101N004619999999N009999199+00901-00101999999ADDGA1021+012191991GE19MSL   +99999+99999GF199999021990012191991991MA1101901999990REMMET058METAR EDDH 261750Z 11009KT 9999 FEW040 09/M01 Q1019 NOSIG=
0079101470999992014032618204+53630+009988FM-15+001699999V0200901N003619999999Y999999999+00801+00001999999ADDMA1101901999990REMMET052METAR EDDH 261820Z 09007KT CAVOK 08/M00 Q1019 NOSIG=
0078101470999992014032618504+53630+009988FM-15+001699999V0200901N003619999999Y999999999+00801+00101999999ADDMA1102001999990REMMET051METAR EDDH 261850Z 09007KT CAVOK 08/01 Q1020 NOSIG=
0078101470999992014032619204+53630+009988FM-15+001699999V0200901N004119999999Y999999999+00701+00101999999ADDMA1102001999990REMMET051METAR EDDH 261920Z 09008KT CAVOK 07/01 Q1020 NOSIG=
0078101470999992014032619504+53630+009988FM-15+001699999V0200801N005119999999Y999999999+00701+00101999999ADDMA1102001999990REMMET051METAR EDDH 261950Z 08010KT CAVOK 07/01 Q1020 NOSIG=
0078101470999992014032620204+53630+009988FM-15+001699999V0200901N005719999999Y999999999+00701+00101999999ADDMA1102001999990REMMET051METAR EDDH 262020Z 09011KT CAVOK 07/01 Q1020 NOSIG=
0078101470999992014032620504+53630+009988FM-15+001699999V0200901N005119999999Y999999999+00701+00201999999ADDMA1102001999990REMMET051METAR EDDH 262050Z 09010KT CAVOK 07/02 Q1020 NOSIG=
0078101470999992014032621204+53630+009988FM-15+001699999V0200901N004619999999Y999999999+00601+00201999999ADDMA1102101999990REMMET051METAR EDDH 262120Z 09009KT CAVOK 06/02 Q1021 NOSIG=
0078101470999992014032621504+53630+009988FM-15+001699999V0201001N004619999999Y999999999+00601+00201999999ADDMA1102101999990REMMET051METAR EDDH 262150Z 10009KT CAVOK 06/02 Q1021 NOSIG=
0078101470999992014032622204+53630+009988FM-15+001699999V0200901N005719999999Y999999999+00601+00201999999ADDMA1102101999990REMMET051METAR EDDH 262220Z 09011KT CAVOK 06/02 Q1021 NOSIG=
0078101470999992014032622504+53630+009988FM-15+001699999V0200901N005119999999Y999999999+00601+00101999999ADDMA1102101999990REMMET051METAR EDDH 262250Z 09010KT CAVOK 06/01 Q1021 NOSIG=
0078101470999992014032623204+53630+009988FM-15+001699999V0200901N004619999999Y999999999+00501+00201999999ADDMA1102101999990REMMET051METAR EDDH 262320Z 09009KT CAVOK 05/02 Q1021 NOSIG=
0078101470999992014032623504+53630+009988FM-15+001699999V0200701N003619999999Y999999999+00401+00101999999ADDMA1102101999990REMMET051METAR EDDH 262350Z 07007KT CAVOK 04/01 Q1021 NOSIG=
0078101470999992014032700204+53630+009988FM-15+001699999V0200601N002619999999Y999999999+00401+00101999999ADDMA1102101999990REMMET051METAR EDDH 270020Z 06005KT CAVOK 04/01 Q1021 NOSIG=
0078101470999992014032700504+53630+009988FM-15+001699999V0200601N004119999999Y999999999+00301+00101999999ADDMA1102101999990REMMET051METAR EDDH 270050Z 06008KT CAVOK 03/01 Q1021 NOSIG=
0078101470999992014032701204+53630+009988FM-15+001699999V0200701N004119999999Y999999999+00301+00101999999ADDMA1102101999990REMMET051METAR EDDH 270120Z 07008KT CAVOK 03/01 Q1021 NOSIG=
0078101470999992014032701504+53630+009988FM-15+001699999V0200701N004119999999Y999999999+00301+00201999999ADDMA1102101999990REMMET051METAR EDDH 270150Z 07008KT CAVOK 03/02 Q1021 NOSIG=
0078101470999992014032702204+53630+009988FM-15+001699999V0200601N004119999999Y999999999+00201+00101999999ADDMA1102101999990REMMET051METAR EDDH 270220Z 06008KT CAVOK 02/01 Q1021 NOSIG=
0078101470999992014032702504+53630+009988FM-15+001699999V0200701N004119999999Y999999999+00201+00101999999ADDMA1102101999990REMMET051METAR EDDH 270250Z 07008KT CAVOK 02/01 Q1021 NOSIG=
0078101470999992014032703204+53630+009988FM-15+001699999V0200701N004619999999Y999999999+00201+00101999999ADDMA1102101999990REMMET051METAR EDDH 270320Z 07009KT CAVOK 02/01 Q1021 NOSIG=
0078101470999992014032703504+53630+009988FM-15+001699999V0200601N004119999999Y999999999+00201+00101999999ADDMA1102101999990REMMET051METAR EDDH 270350Z 06008KT CAVOK 02/01 Q1021 NOSIG=
0078101470999992014032704204+53630+009988FM-15+001699999V0200601N004619999999Y999999999+00201+00101999999ADDMA1102101999990REMMET051METAR EDDH 270420Z 06009KT CAVOK 02/01 Q1021 NOSIG=
0078101470999992014032704504+53630+009988FM-15+001699999V0200601N005719999999Y999999999+00201+00101999999ADDMA1102101999990REMMET051METAR EDDH 270450Z 06011KT CAVOK 02/01 Q1021 NOSIG=
0171101470999992014032705204+53630+009988FM-15+001699999V0200601N00671060961CN009999199+00201+00101999999ADDGA1021+001831991GA2041+060961991GE19MSL   +99999+99999GF199999021990001831991991MA1102101999990REMMET064METAR EDDH 270520Z 06013KT 9999 FEW006 SCT200 02/01 Q1021 NOSIG=
0171101470999992014032705504+53630+009988FM-15+001699999V0200601N006710609619N009999199+00301+00201999999ADDGA1021+001831991GA2071+060961991GE19MSL   +99999+99999GF199999021990001831991991MA1102101999990REMMET064METAR EDDH 270550Z 06013KT 9999 FEW006 BKN200 03/02 Q1021 NOSIG=
0178101470999992014032706204+53630+009988FM-15+001699999V0200601N006210609619N009999199+00301+00201999999ADDGA1021+001831991GA2071+060961991GE19MSL   +99999+99999GF199999021990001831991991MA1102101999990REMMET071METAR EDDH 270620Z 06012KT 9999 FEW006 BKN200 03/02 Q1021 BECMG BKN005=
0178101470999992014032706504+53630+009988FM-15+001699999V0200601N005710609619N009999199+00401+00201999999ADDGA1021+001831991GA2071+060961991GE19MSL   +99999+99999GF199999021990001831991991MA1102101999990REMMET071METAR EDDH 270650Z 06011KT 9999 FEW006 BKN200 04/02 Q1021 BECMG BKN005=
0178101470999992014032707204+53630+009988FM-15+001699999V0200601N005710762019N009999199+00501+00301999999ADDGA1021+002131991GA2071+076201991GE19MSL   +99999+99999GF199999021990002131991991MA1102101999990REMMET071METAR EDDH 270720Z 06011KT 9999 FEW007 BKN250 05/03 Q1021 BECMG BKN005=
0178101470999992014032707504+53630+009988FM-15+001699999V0200701N006210762019N009999199+00401+00201999999ADDGA1021+002441991GA2071+076201991GE19MSL   +99999+99999GF199999021990002441991991MA1102101999990REMMET071METAR EDDH 270750Z 07012KT 9999 FEW008 BKN250 04/02 Q1021 TEMPO BKN010=
0178101470999992014032708204+53630+009988FM-15+001699999V0200601N005110762019N009999199+00501+00301999999ADDGA1041+002441991GA2071+076201991GE19MSL   +99999+99999GF199999041990002441991991MA1102101999990REMMET071METAR EDDH 270820Z 06010KT 9999 SCT008 BKN250 05/03 Q1021 TEMPO BKN010=
0178101470999992014032708504+53630+009988FM-15+001699999V0200601N005710762019N009999199+00601+00301999999ADDGA1041+002441991GA2071+076201991GE19MSL   +99999+99999GF199999041990002441991991MA1102101999990REMMET071METAR EDDH 270850Z 06011KT 9999 SCT008 BKN250 06/03 Q1021 TEMPO BKN010=
0214101470999992014032709204+53630+009988FM-15+001699999V0200701V00511030481CN009999199+00601+00301999999ADDGA1021+002741991GA2041+030481991GA3071+076201991GE19MSL   +99999+99999GF199999021990002741991991MA1102101999990REMMET091METAR EDDH 270920Z 07010KT 030V110 9999 FEW009 SCT100 BKN250 06/03      Q1021 TEMPO BKN010=
0171101470999992014032709504+53630+009988FM-15+001699999V0200701N004610762019N009999199+00801+00401999999ADDGA1021+003051991GA2071+076201991GE19MSL   +99999+99999GF199999021990003051991991MA1102001999990REMMET064METAR EDDH 270950Z 07009KT 9999 FEW010 BKN250 08/04 Q1020 NOSIG=
0171101470999992014032710204+53630+009988FM-15+001699999V0200601N005110762019N009999199+00801+00301999999ADDGA1021+003051991GA2071+076201991GE19MSL   +99999+99999GF199999021990003051991991MA1102001999990REMMET064METAR EDDH 271020Z 06010KT 9999 FEW010 BKN250 08/03 Q1020 NOSIG=
0179101470999992014032710504+53630+009988FM-15+001699999V0200901V005710762019N009999199+00901+00301999999ADDGA1021+003661991GA2071+076201991GE19MSL   +99999+99999GF199999021990003661991991MA1102001999990REMMET072METAR EDDH 271050Z 09011KT 050V120 9999 FEW012 BKN250 09/03 Q1020 NOSIG=
0171101470999992014032711204+53630+009988FM-15+001699999V0200701N00671076201CN009999199+01001+00301999999ADDGA1021+007011991GA2041+076201991GE19MSL   +99999+99999GF199999021990007011991991MA1101901999990REMMET064METAR EDDH 271120Z 07013KT 9999 FEW023 SCT250 10/03 Q1019 NOSIG=
0156101470999992014032711504+53630+009988FM-15+001699999V0200901V005719999999N009999199+01001+00301999999ADDGA1021+007921991GE19MSL   +99999+99999GF199999021990007921991991MA1101901999990REMMET065METAR EDDH 271150Z 09011KT 060V120 9999 FEW026 10/03 Q1019 NOSIG=
0156101470999992014032712204+53630+009988FM-15+001699999V0200701V006219999999N009999199+01101+00301999999ADDGA1021+009141991GE19MSL   +99999+99999GF199999021990009141991991MA1101901999990REMMET065METAR EDDH 271220Z 07012KT 040V110 9999 FEW030 11/03 Q1019 NOSIG=
0156101470999992014032712504+53630+009988FM-15+001699999V0200601V005719999999N009999199+00901+00301999999ADDGA1041+009141991GE19MSL   +99999+99999GF199999041990009141991991MA1101801999990REMMET065METAR EDDH 271250Z 06011KT 020V090 9999 SCT030 09/03 Q1018 NOSIG=
0148101470999992014032713204+53630+009988FM-15+001699999V0200501N007219999999N009999199+01001+00401999999ADDGA1041+009141991GE19MSL   +99999+99999GF199999041990009141991991MA1101801999990REMMET057METAR EDDH 271320Z 05014KT 9999 SCT030 10/04 Q1018 NOSIG=
0156101470999992014032713504+53630+009988FM-15+001699999V0200601V006719999999N009999199+00901+00401999999ADDGA1041+007921991GE19MSL   +99999+99999GF199999041990007921991991MA1101801999990REMMET065METAR EDDH 271350Z 06013KT 030V090 9999 SCT026 09/04 Q1018 NOSIG=
0156101470999992014032714204+53630+009988FM-15+001699999V0200501V007219999999N009999199+00901+00401999999ADDGA1041+007921991GE19MSL   +99999+99999GF199999041990007921991991MA1101701999990REMMET065METAR EDDH 271420Z 05014KT 020V080 9999 SCT026 09/04 Q1017 NOSIG=
0148101470999992014032714504+53630+009988FM-15+001699999V0200701N007719999999N009999199+00801+00301999999ADDGA1021+007321991GE19MSL   +99999+99999GF199999021990007321991991MA1101801999990REMMET057METAR EDDH 271450Z 07015KT 9999 FEW024 08/03 Q1018 NOSIG=
0156101470999992014032715204+53630+009988FM-15+001699999V0200401V006719999999N009999199+00801+00301999999ADDGA1021+006711991GE19MSL   +99999+99999GF199999021990006711991991MA1101801999990REMMET065METAR EDDH 271520Z 04013KT 010V070 9999 FEW022 08/03 Q1018 NOSIG=
0148101470999992014032715504+53630+009988FM-15+001699999V0200601N006719999999N009999199+00701+00301999999ADDGA1021+006101991GE19MSL   +99999+99999GF199999021990006101991991MA1101801999990REMMET057METAR EDDH 271550Z 06013KT 9999 FEW020 07/03 Q1018 NOSIG=
0148101470999992014032716204+53630+009988FM-15+001699999V0200501N006719999999N009999199+00701+00201999999ADDGA1021+006101991GE19MSL   +99999+99999GF199999021990006101991991MA1101801999990REMMET057METAR EDDH 271620Z 05013KT 9999 FEW020 07/02 Q1018 NOSIG=
0078101470999992014032716504+53630+009988FM-15+001699999V0200501N005119999999Y999999999+00601+00201999999ADDMA1101801999990REMMET051METAR EDDH 271650Z 05010KT CAVOK 06/02 Q1018 NOSIG=
0078101470999992014032717204+53630+009988FM-15+001699999V0200501N005719999999Y999999999+00501+00201999999ADDMA1101801999990REMMET051METAR EDDH 271720Z 05011KT CAVOK 05/02 Q1018 NOSIG=
0078101470999992014032717504+53630+009988FM-15+001699999V0200501N005719999999Y999999999+00501+00201999999ADDMA1101801999990REMMET051METAR EDDH 271750Z 05011KT CAVOK 05/02 Q1018 NOSIG=
0078101470999992014032718204+53630+009988FM-15+001699999V0200501N004619999999Y999999999+00401+00201999999ADDMA1101901999990REMMET051METAR EDDH 271820Z 05009KT CAVOK 04/02 Q1019 NOSIG=
0078101470999992014032718504+53630+009988FM-15+001699999V0200601N005119999999Y999999999+00401+00201999999ADDMA1101901999990REMMET051METAR EDDH 271850Z 06010KT CAVOK 04/02 Q1019 NOSIG=
0078101470999992014032719204+53630+009988FM-15+001699999V0200601N004619999999Y999999999+00301+00201999999ADDMA1101901999990REMMET051METAR EDDH 271920Z 06009KT CAVOK 03/02 Q1019 NOSIG=
0078101470999992014032719504+53630+009988FM-15+001699999V0200601N004619999999Y999999999+00301+00201999999ADDMA1101901999990REMMET051METAR EDDH 271950Z 06009KT CAVOK 03/02 Q1019 NOSIG=
0078101470999992014032720204+53630+009988FM-15+001699999V0200701N005719999999Y999999999+00301+00201999999ADDMA1101901999990REMMET051METAR EDDH 272020Z 07011KT CAVOK 03/02 Q1019 NOSIG=
0078101470999992014032720504+53630+009988FM-15+001699999V0200701N005119999999Y999999999+00301+00201999999ADDMA1101901999990REMMET051METAR EDDH 272050Z 07010KT CAVOK 03/02 Q1019 NOSIG=
0078101470999992014032721204+53630+009988FM-15+001699999V0200701N004619999999Y999999999+00301+00201999999ADDMA1101901999990REMMET051METAR EDDH 272120Z 07009KT CAVOK 03/02 Q1019 NOSIG=
0078101470999992014032721504+53630+009988FM-15+001699999V0200701N003119999999Y999999999+00201+00101999999ADDMA1102001999990REMMET051METAR EDDH 272150Z 07006KT CAVOK 02/01 Q1020 NOSIG=
0078101470999992014032722204+53630+009988FM-15+001699999V0200701N002619999999Y999999999+00201+00101999999ADDMA1102001999990REMMET051METAR EDDH 272220Z 07005KT CAVOK 02/01 Q1020 NOSIG=
0078101470999992014032722504+53630+009988FM-15+001699999V0200701N002619999999Y999999999+00201+00101999999ADDMA1102001999990REMMET051METAR EDDH 272250Z 07005KT CAVOK 02/01 Q1020 NOSIG=
0085101470999992014032723204+53630+009988FM-15+001699999V0200701N002619999999Y999999999+00201+00101999999ADDMA1102101999990REMMET058METAR EDDH 272320Z 07005KT CAVOK 02/01 Q1021 TEMPO BKN008=
0085101470999992014032723504+53630+009988FM-15+001699999V0200601N004119999999Y999999999+00101+00101999999ADDMA1102101999990REMMET058METAR EDDH 272350Z 06008KT CAVOK 01/01 Q1021 TEMPO BKN008=
0155101470999992014032800204+53630+009988FM-15+001699999V0200701N004619999999N009999199+00201+00101999999ADDGA1041+001521991GE19MSL   +99999+99999GF199999041990001521991991MA1102101999990REMMET064METAR EDDH 280020Z 07009KT 9999 SCT005 02/01 Q1021 TEMPO BKN008=
0148101470999992014032800504+53630+009988FM-15+001699999V0200701N004610012219N008000199+00201+00201999999ADDGA1071+001221991GE19MSL   +99999+99999GF199999071990001221991991MA1102101999990REMMET057METAR EDDH 280050Z 07009KT 8000 BKN004 02/02 Q1021 NOSIG=
0148101470999992014032801204+53630+009988FM-15+001699999V0200801N004110012219N008000199+00301+00201999999ADDGA1071+001221991GE19MSL   +99999+99999GF199999071990001221991991MA1102101999990REMMET057METAR EDDH 280120Z 08008KT 8000 BKN004 03/02 Q1021 NOSIG=
0148101470999992014032801504+53630+009988FM-15+001699999V0200801N004610015219N008000199+00301+00201999999ADDGA1071+001521991GE19MSL   +99999+99999GF199999071990001521991991MA1102101999990REMMET057METAR EDDH 280150Z 08009KT 8000 BKN005 03/02 Q1021 NOSIG=
0148101470999992014032802204+53630+009988FM-15+001699999V0200801N005110015219N008000199+00301+00201999999ADDGA1071+001521991GE19MSL   +99999+99999GF199999071990001521991991MA1102101999990REMMET057METAR EDDH 280220Z 08010KT 8000 BKN005 03/02 Q1021 NOSIG=
0148101470999992014032802504+53630+009988FM-15+001699999V0200801N005710015219N008000199+00401+00301999999ADDGA1071+001521991GE19MSL   +99999+99999GF199999071990001521991991MA1102101999990REMMET057METAR EDDH 280250Z 08011KT 8000 BKN005 04/03 Q1021 NOSIG=
0148101470999992014032803204+53630+009988FM-15+001699999V0200801N004610015219N008000199+00401+00301999999ADDGA1081+001521991GE19MSL   +99999+99999GF199999081990001521991991MA1102101999990REMMET057METAR EDDH 280320Z 08009KT 8000 OVC005 04/03 Q1021 NOSIG=
0171101470999992014032803504+53630+009988FM-15+001699999V0200801N004610015219N007000199+00401+00301999999ADDGA1021+001221991GA2081+001521991GE19MSL   +99999+99999GF199999021990001221991991MA1102201999990REMMET064METAR EDDH 280350Z 08009KT 7000 FEW004 OVC005 04/03 Q1022 NOSIG=
0171101470999992014032804204+53630+009988FM-15+001699999V0200801N004110015219N007000199+00401+00301999999ADDGA1021+001221991GA2071+001521991GE19MSL   +99999+99999GF199999021990001221991991MA1102201999990REMMET064METAR EDDH 280420Z 08008KT 7000 FEW004 BKN005 04/03 Q1022 NOSIG=
0156101470999992014032804504+53630+009988FM-15+001699999V0200701N005110012219N006000199+00401+00301999999ADDGA1071+001221991GE19MSL   +99999+99999GF199999071990001221991991MA1102201999990REMMET065METAR EDDH 280450Z 07010KT 6000 BKN004 04/03 Q1022 TEMPO 4500 BR=
0156101470999992014032805204+53630+009988FM-15+001699999V0200701N005110012219N006000199+00401+00301999999ADDGA1071+001221991GE19MSL   +99999+99999GF199999071990001221991991MA1102201999990REMMET065METAR EDDH 280520Z 07010KT 6000 BKN004 04/03 Q1022 TEMPO 4500 BR=
0156101470999992014032805504+53630+009988FM-15+001699999V0200701N004610012219N006000199+00401+00301999999ADDGA1071+001221991GE19MSL   +99999+99999GF199999071990001221991991MA1102201999990REMMET065METAR EDDH 280550Z 07009KT 6000 BKN004 04/03 Q1022 TEMPO 4500 BR=
0156101470999992014032806204+53630+009988FM-15+001699999V0200701N004610012219N006000199+00401+00301999999ADDGA1071+001221991GE19MSL   +99999+99999GF199999071990001221991991MA1102201999990REMMET065METAR EDDH 280620Z 07009KT 6000 BKN004 04/03 Q1022 TEMPO 4500 BR=
0169101470999992014032806504+53630+009988FM-15+001699999V0200701V005710015219N006000199+00401+00301999999ADDGA1071+001521991GE19MSL   +99999+99999GF199999071990001521991991MA1102301999990REMMET078METAR EDDH 280650Z 07011KT 030V090 6000 BKN005 04/03 Q1023 TEMPO 4500      BR=
0156101470999992014032807204+53630+009988FM-15+001699999V0200801N005710015219N006000199+00401+00301999999ADDGA1071+001521991GE19MSL   +99999+99999GF199999071990001521991991MA1102301999990REMMET065METAR EDDH 280720Z 08011KT 6000 BKN005 04/03 Q1023 TEMPO 4500 BR=
0156101470999992014032807504+53630+009988FM-15+001699999V0200701N004610015219N006000199+00501+00301999999ADDGA1071+001521991GE19MSL   +99999+99999GF199999071990001521991991MA1102301999990REMMET065METAR EDDH 280750Z 07009KT 6000 BKN005 05/03 Q1023 TEMPO 4500 BR=
0148101470999992014032808204+53630+009988FM-15+001699999V0200701N004110018319N006000199+00501+00401999999ADDGA1071+001831991GE19MSL   +99999+99999GF199999071990001831991991MA1102301999990REMMET057METAR EDDH 280820Z 07008KT 6000 BKN006 05/04 Q1023 NOSIG=
0148101470999992014032808504+53630+009988FM-15+001699999V0200601N004110018319N007000199+00501+00401999999ADDGA1071+001831991GE19MSL   +99999+99999GF199999071990001831991991MA1102301999990REMMET057METAR EDDH 280850Z 06008KT 7000 BKN006 05/04 Q1023 NOSIG=
0155101470999992014032809204+53630+009988FM-15+001699999V0200801N005110024419N009000199+00601+00401999999ADDGA1071+002441991GE19MSL   +99999+99999GF199999071990002441991991MA1102401999990REMMET064METAR EDDH 280920Z 08010KT 9000 BKN008 06/04 Q1024 BECMG BKN012=
0163101470999992014032809504+53630+009988FM-15+001699999V0200701V005110030519N009000199+00601+00401999999ADDGA1071+003051991GE19MSL   +99999+99999GF199999071990003051991991MA1102401999990REMMET072METAR EDDH 280950Z 07010KT 030V090 9000 BKN010 06/04 Q1024 BECMG BKN015=
0155101470999992014032810204+53630+009988FM-15+001699999V0200701N005110033519N009000199+00701+00401999999ADDGA1071+003351991GE19MSL   +99999+99999GF199999071990003351991991MA1102401999990REMMET064METAR EDDH 281020Z 07010KT 9000 BKN011 07/04 Q1024 BECMG BKN015=
0163101470999992014032810504+53630+009988FM-15+001699999V0201001V004610033519N009000199+00701+00401999999ADDGA1071+003351991GE19MSL   +99999+99999GF199999071990003351991991MA1102401999990REMMET072METAR EDDH 281050Z 10009KT 050V130 9000 BKN011 07/04 Q1024 BECMG BKN015=
0155101470999992014032811204+53630+009988FM-15+001699999V0200501N004610033519N009999199+00701+00501999999ADDGA1071+003351991GE19MSL   +99999+99999GF199999071990003351991991MA1102401999990REMMET064METAR EDDH 281120Z 05009KT 9999 BKN011 07/05 Q1024 BECMG BKN015=
0155101470999992014032811504+53630+009988FM-15+001699999V0200501N004610033519N009999199+00701+00501999999ADDGA1071+003351991GE19MSL   +99999+99999GF199999071990003351991991MA1102301999990REMMET064METAR EDDH 281150Z 05009KT 9999 BKN011 07/05 Q1023 BECMG BKN015=
0155101470999992014032812204+53630+009988FM-15+001699999V0200601N005110030519N009999199+00701+00501999999ADDGA1071+003051991GE19MSL   +99999+99999GF199999071990003051991991MA1102401999990REMMET064METAR EDDH 281220Z 06010KT 9999 BKN010 07/05 Q1024 BECMG BKN015=
0171101470999992014032812504+53630+009988FM-15+001699999V0200601N005110033519N009999199+00701+00501999999ADDGA1021+002741991GA2071+003351991GE19MSL   +99999+99999GF199999021990002741991991MA1102401999990REMMET064METAR EDDH 281250Z 06010KT 9999 FEW009 BKN011 07/05 Q1024 NOSIG=
0179101470999992014032813204+53630+009988FM-15+001699999V0200701V005110033519N009999199+00701+00501999999ADDGA1021+002741991GA2071+003351991GE19MSL   +99999+99999GF199999021990002741991991MA1102301999990REMMET072METAR EDDH 281320Z 07010KT 040V100 9999 FEW009 BKN011 07/05 Q1023 NOSIG=
0171101470999992014032813504+53630+009988FM-15+001699999V0200601N004110036619N009999199+00801+00501999999ADDGA1021+003051991GA2071+003661991GE19MSL   +99999+99999GF199999021990003051991991MA1102301999990REMMET064METAR EDDH 281350Z 06008KT 9999 FEW010 BKN012 08/05 Q1023 NOSIG=
0179101470999992014032814204+53630+009988FM-15+001699999V0200601V003610039619N009999199+00701+00501999999ADDGA1021+003351991GA2071+003961991GE19MSL   +99999+99999GF199999021990003351991991MA1102301999990REMMET072METAR EDDH 281420Z 06007KT 030V100 9999 FEW011 BKN013 07/05 Q1023 NOSIG=
0171101470999992014032814504+53630+009988FM-15+001699999V0200601N004110033519N009999199+00701+00501999999ADDGA1021+002441991GA2071+003351991GE19MSL   +99999+99999GF199999021990002441991991MA1102301999990REMMET064METAR EDDH 281450Z 06008KT 9999 FEW008 BKN011 07/05 Q1023 NOSIG=
0179101470999992014032815204+53630+009988FM-15+001699999V0200601V004110036619N009999199+00701+00501999999ADDGA1021+003051991GA2071+003661991GE19MSL   +99999+99999GF199999021990003051991991MA1102301999990REMMET072METAR EDDH 281520Z 06008KT 030V090 9999 FEW010 BKN012 07/05 Q1023 NOSIG=
0171101470999992014032815504+53630+009988FM-15+001699999V0200701N004110036619N009999199+00701+00501999999ADDGA1041+003051991GA2071+003661991GE19MSL   +99999+99999GF199999041990003051991991MA1102301999990REMMET064METAR EDDH 281550Z 07008KT 9999 SCT010 BKN012 07/05 Q1023 NOSIG=
0178101470999992014032816204+53630+009988FM-15+001699999V0200601N004110030519N009999199+00701+00501999999ADDGA1021+002441991GA2071+003051991GE19MSL   +99999+99999GF199999021990002441991991MA1102301999990REMMET071METAR EDDH 281620Z 06008KT 9999 FEW008 BKN010 07/05 Q1023 BECMG BKN009=
0148101470999992014032816504+53630+009988FM-15+001699999V0200701N004610024419N009999199+00701+00501999999ADDGA1071+002441991GE19MSL   +99999+99999GF199999071990002441991991MA1102301999990REMMET057METAR EDDH 281650Z 07009KT 9999 BKN008 07/05 Q1023 NOSIG=
0171101470999992014032817204+53630+009988FM-15+001699999V0200701N004610024419N009999199+00701+00501999999ADDGA1041+001831991GA2071+002441991GE19MSL   +99999+99999GF199999041990001831991991MA1102301999990REMMET064METAR EDDH 281720Z 07009KT 9999 SCT006 BKN008 07/05 Q1023 NOSIG=
0148101470999992014032817504+53630+009988FM-15+001699999V0200701N003610018319N008000199+00701+00501999999ADDGA1071+001831991GE19MSL   +99999+99999GF199999071990001831991991MA1102301999990REMMET057METAR EDDH 281750Z 07007KT 8000 BKN006 07/05 Q1023 NOSIG=
0178101470999992014032818204+53630+009988FM-15+001699999V0200601N003110015219N007000199+00701+00601999999ADDGA1041+001221991GA2071+001521991GE19MSL   +99999+99999GF199999041990001221991991MA1102301999990REMMET071METAR EDDH 281820Z 06006KT 7000 SCT004 BKN005 07/06 Q1023 TEMPO BKN004=
0198101470999992014032818504+53630+009988FM-15+001699999V0200601V003110012219N003500199+00601+00601999999ADDGA1021+000611991GA2071+001221991GE19MSL   +99999+99999GF199999021990000611991991MA1102301999990MW1101REMMET085METAR EDDH 281850Z 06006KT 360V080 3500 BR FEW002 BKN004 06/06 Q1023      TEMPO 2500=
0172101470999992014032819204+53630+009988FM-15+001699999V0200701N004110009119N003200199+00601+00601999999ADDGA1081+000911991GE19MSL   +99999+99999GF199999081990000911991991MA1102301999990MW1101MW2511REMMET069METAR EDDH 281920Z 07008KT 3200 -DZ BR OVC003 06/06 Q1023 TEMPO 2500=
0180101470999992014032819504+53630+009988FM-15+001699999V0200801N003110009119N003500199+00601+00601999999ADDGA1021+000611991GA2081+000911991GE19MSL   +99999+99999GF199999021990000611991991MA1102301999990MW1101REMMET067METAR EDDH 281950Z 08006KT 3500 BR FEW002 OVC003 06/06 Q1023 NOSIG=
0157101470999992014032820204+53630+009988FM-15+001699999V0200701N003110009119N003800199+00601+00601999999ADDGA1081+000911991GE19MSL   +99999+99999GF199999081990000911991991MA1102301999990MW1101REMMET060METAR EDDH 282020Z 07006KT 3800 BR OVC003 06/06 Q1023 NOSIG=
0180101470999992014032820504+53630+009988FM-15+001699999V0200801N003110009119N003900199+00701+00601999999ADDGA1071+000911991GA2081+001221991GE19MSL   +99999+99999GF199999071990000911991991MA1102301999990MW1101REMMET067METAR EDDH 282050Z 08006KT 3900 BR BKN003 OVC004 07/06 Q1023 NOSIG=
0180101470999992014032821204+53630+009988FM-15+001699999V0200801N003110009119N004200199+00701+00601999999ADDGA1071+000911991GA2071+003351991GE19MSL   +99999+99999GF199999071990000911991991MA1102401999990MW1101REMMET067METAR EDDH 282120Z 08006KT 4200 BR BKN003 BKN011 07/06 Q1024 NOSIG=
0180101470999992014032821504+53630+009988FM-15+001699999V0200701N002610012219N004200199+00701+00601999999ADDGA1071+001221991GA2071+003661991GE19MSL   +99999+99999GF199999071990001221991991MA1102401999990MW1101REMMET067METAR EDDH 282150Z 07005KT 4200 BR BKN004 BKN012 07/06 Q1024 NOSIG=
0180101470999992014032822204+53630+009988FM-15+001699999V0200801N002610054919N004500199+00601+00601999999ADDGA1041+001521991GA2071+005491991GE19MSL   +99999+99999GF199999041990001521991991MA1102401999990MW1101REMMET067METAR EDDH 282220Z 08005KT 4500 BR SCT005 BKN018 06/06 Q1024 NOSIG=
0157101470999992014032822504+53630+009988FM-15+001699999V0200801N002110057919N004600199+00601+00601999999ADDGA1071+005791991GE19MSL   +99999+99999GF199999071990005791991991MA1102401999990MW1101REMMET060METAR EDDH 282250Z 08004KT 4600 BR BKN019 06/06 Q1024 NOSIG=
0157101470999992014032823204+53630+009988FM-15+001699999V0201001N001510054919N004600199+00601+00501999999ADDGA1071+005491991GE19MSL   +99999+99999GF199999071990005491991991MA1102401999990MW1101REMMET060METAR EDDH 282320Z 10003KT 4600 BR BKN018 06/05 Q1024 NOSIG=
0157101470999992014032823504+53630+009988FM-15+001699999V0200801N001510054919N004600199+00701+00601999999ADDGA1071+005491991GE19MSL   +99999+99999GF199999071990005491991991MA1102401999990MW1101REMMET060METAR EDDH 282350Z 08003KT 4600 BR BKN018 07/06 Q1024 NOSIG=
0157101470999992014032900204+53630+009988FM-15+001699999V0200701N002610100619N004900199+00601+00501999999ADDGA1071+010061991GE19MSL   +99999+99999GF199999071990010061991991MA1102401999990MW1101REMMET060METAR EDDH 290020Z 07005KT 4900 BR BKN033 06/05 Q1024 NOSIG=
0152101470999992014032900504+53630+009988FM-15+001699999V0200901N001012200019N004900199+00501+00401999999ADDGF100991999999999999999999MA1102401999990MW1101MW2121REMMET087METAR COR EDDH 290050Z 09002KT 4900 R15/0700VP2000D MIFG BR NSC 05/04      Q1024 NOSIG=
0165101470999992014032901204+53630+009988FM-15+001699999V0200701N001012200019N004500199+00501+00401999999ADDGF100991999999999999999999MA1102401999990MW1101MW2111REMMET100METAR EDDH 290120Z 07002KT 4500 0600NW R05/P2000N R15/0500V0800N BCFG      BR NSC 05/04 Q1024 NOSIG=
0168101470999992014032901504+53630+009988FM-15+001699999V0200801V001512200019N004500199+00401+00401999999ADDGF100991999999999999999999MA1102401999990MW1101MW2111REMMET103METAR EDDH 290150Z 08003KT 060V120 4500 0600NW R05/P2000N R15/0325N      BCFG BR NSC 04/04 Q1024 NOSIG=
0174101470999992014032902204+53630+009988FM-15+001699999V0200501V001512200019N004500199+00401+00301999999ADDGF100991999999999999999999MA1102301999990MW1101MW2111REMMET109METAR EDDH 290220Z 05003KT 350V070 4500 0600NW R05/P2000N R15/0550VP2000U      BCFG BR NSC 04/03 Q1023 NOSIG=
0127101470999992014032902504+53630+009988FM-15+001699999V0200901N003112200019N004500199+00401+00401999999ADDGF100991999999999999999999MA1102301999990MW1101MW2121REMMET062METAR EDDH 290250Z 09006KT 4500 MIFG BR NSC 04/04 Q1023 NOSIG=
0127101470999992014032903204+53630+009988FM-15+001699999V0200901N003612200019N004500199+00501+00501999999ADDGF100991999999999999999999MA1102301999990MW1101MW2121REMMET062METAR EDDH 290320Z 09007KT 4500 MIFG BR NSC 05/05 Q1023 NOSIG=
0134101470999992014032903504+53630+009988FM-15+001699999V0201101N003112200019N004500199+00501+00401999999ADDGF100991999999999999999999MA1102401999990MW1101MW2121REMMET069METAR EDDH 290350Z 11006KT 4500 MIFG BR NSC 05/04 Q1024 TEMPO BKN005=
0134101470999992014032904204+53630+009988FM-15+001699999V0200901N003112200019N004500199+00501+00401999999ADDGF100991999999999999999999MA1102401999990MW1101MW2121REMMET069METAR EDDH 290420Z 09006KT 4500 MIFG BR NSC 05/04 Q1024 TEMPO BKN005=
0169101470999992014032904504+53630+009988FM-15+001699999V0200901N004110009119N002500199+00501+00401999999ADDGA1071+000911991GE19MSL   +99999+99999GF199999071990000911991991MA1102401999990MW1101REMMET072METAR EDDH 290450Z 09008KT 2500 BR BKN003 05/04 Q1024 TEMPO 1400 BKN001=
0165101470999992014032905204+53630+009988FM-15+001699999V0201101N004110006119N001600199+00501+00501999999ADDGA1081+000611991GE19MSL   +99999+99999GF199999081990000611991991MA1102401999990MW1101REMMET068METAR EDDH 290520Z 11008KT 1600 BR OVC002 05/05 Q1024 TEMPO 0700 FG=
0165101470999992014032905504+53630+009988FM-15+001699999V0201201N003110006119N001800199+00501+00501999999ADDGA1081+000611991GE19MSL   +99999+99999GF199999081990000611991991MA1102401999990MW1101REMMET068METAR EDDH 290550Z 12006KT 1800 BR OVC002 05/05 Q1024 TEMPO 0700 FG=
0165101470999992014032906204+53630+009988FM-15+001699999V0201201N003110006119N002000199+00601+00501999999ADDGA1081+000611991GE19MSL   +99999+99999GF199999081990000611991991MA1102401999990MW1101REMMET068METAR EDDH 290620Z 12006KT 2000 BR OVC002 06/05 Q1024 TEMPO 0700 FG=
0157101470999992014032906504+53630+009988FM-15+001699999V0201301N004110006119N002200199+00601+00601999999ADDGA1081+000611991GE19MSL   +99999+99999GF199999081990000611991991MA1102401999990MW1101REMMET060METAR EDDH 290650Z 13008KT 2200 BR OVC002 06/06 Q1024 NOSIG=
0193101470999992014032907204+53630+009988FM-15+001699999V0201201V004110009119N002800199+00601+00601999999ADDGA1021+000611991GA2081+000911991GE19MSL   +99999+99999GF199999021990000611991991MA1102401999990MW1101REMMET080METAR EDDH 290720Z 12008KT 080V160 2800 BR FEW002 OVC003 06/06 Q1024      NOSIG=
0165101470999992014032907504+53630+009988FM-15+001699999V0201201V004110009119N002800199+00701+00601999999ADDGA1071+000911991GE19MSL   +99999+99999GF199999071990000911991991MA1102401999990MW1101REMMET068METAR EDDH 290750Z 12008KT 100V160 2800 BR BKN003 07/06 Q1024 NOSIG=
0193101470999992014032908204+53630+009988FM-15+001699999V0201201V004610012219N003000199+00701+00601999999ADDGA1021+000911991GA2071+001221991GE19MSL   +99999+99999GF199999021990000911991991MA1102401999990MW1101REMMET080METAR EDDH 290820Z 12009KT 100V160 3000 BR FEW003 BKN004 07/06 Q1024      NOSIG=
0180101470999992014032908504+53630+009988FM-15+001699999V0201001N005110015219N004000199+00701+00601999999ADDGA1021+001221991GA2071+001521991GE19MSL   +99999+99999GF199999021990001221991991MA1102401999990MW1101REMMET067METAR EDDH 290850Z 10010KT 4000 BR FEW004 BKN005 07/06 Q1024 NOSIG=
0197101470999992014032909204+53630+009988FM-15+001699999V0201201N004610021319N004800199+00801+00601999999ADDGA1021+001521991GA2071+002131991GE19MSL   +99999+99999GF199999021990001521991991MA1102401999990MW1101REMMET084METAR EDDH 290920Z 12009KT 4800 BR FEW005 BKN007 08/06 Q1024 BECMG      6000 BKN010=
0192101470999992014032909504+53630+009988FM-15+001699999V0201101N004110030519N005000199+01001+00701999999ADDGA1021+002441991GA2071+003051991GE19MSL   +99999+99999GF199999021990002441991991MA1102401999990MW1101REMMET079METAR EDDH 290950Z 11008KT 5000 BR FEW008 BKN010 10/07 Q1024 BECMG      SCT012=
0148101470999992014032910204+53630+009988FM-15+001699999V0201201N004619999999N006000199+01001+00701999999ADDGA1021+003351991GE19MSL   +99999+99999GF199999021990003351991991MA1102401999990REMMET057METAR EDDH 291020Z 12009KT 6000 FEW011 10/07 Q1024 NOSIG=
0156101470999992014032910504+53630+009988FM-15+001699999V0201101V003619999999N007000199+01101+00701999999ADDGA1021+004571991GE19MSL   +99999+99999GF199999021990004571991991MA1102401999990REMMET065METAR EDDH 291050Z 11007KT 080V150 7000 FEW015 11/07 Q1024 NOSIG=
0115101470999992014032911204+53630+009988FM-15+001699999V0201101V004112200019N007000199+01201+00601999999ADDGF100991999999999999999999MA1102401999990REMMET062METAR EDDH 291120Z 11008KT 070V150 7000 NSC 12/06 Q1024 NOSIG=
0107101470999992014032911504+53630+009988FM-15+001699999V0201401N004612200019N008000199+01301+00701999999ADDGF100991999999999999999999MA1102301999990REMMET054METAR EDDH 291150Z 14009KT 8000 NSC 13/07 Q1023 NOSIG=
0107101470999992014032912204+53630+009988FM-15+001699999V0201201N003612200019N009000199+01401+00601999999ADDGF100991999999999999999999MA1102301999990REMMET054METAR EDDH 291220Z 12007KT 9000 NSC 14/06 Q1023 NOSIG=
0115101470999992014032912504+53630+009988FM-15+001699999V0201301V003612200019N009000199+01401+00701999999ADDGF100991999999999999999999MA1102301999990REMMET062METAR EDDH 291250Z 13007KT 100V190 9000 NSC 14/07 Q1023 NOSIG=
0086101470999992014032913204+53630+009988FM-15+001699999V0201401V004119999999Y999999999+01401+00601999999ADDMA1102301999990REMMET059METAR EDDH 291320Z 14008KT 090V180 CAVOK 14/06 Q1023 NOSIG=
0086101470999992014032913504+53630+009988FM-15+001699999V0201301V004119999999Y999999999+01501+00701999999ADDMA1102201999990REMMET059METAR EDDH 291350Z 13008KT 090V220 CAVOK 15/07 Q1022 NOSIG=
0086101470999992014032914204+53630+009988FM-15+001699999V0201301V004119999999Y999999999+01501+00601999999ADDMA1102201999990REMMET059METAR EDDH 291420Z 13008KT 080V170 CAVOK 15/06 Q1022 NOSIG=
0078101470999992014032914504+53630+009988FM-15+001699999V0201201N004119999999Y999999999+01501+00601999999ADDMA1102201999990REMMET051METAR EDDH 291450Z 12008KT CAVOK 15/06 Q1022 NOSIG=
0086101470999992014032915204+53630+009988FM-15+001699999V0201501V004619999999Y999999999+01501+00501999999ADDMA1102201999990REMMET059METAR EDDH 291520Z 15009KT 060V200 CAVOK 15/05 Q1022 NOSIG=
0078101470999992014032915504+53630+009988FM-15+001699999V0201301N004619999999Y999999999+01501+00501999999ADDMA1102101999990REMMET051METAR EDDH 291550Z 13009KT CAVOK 15/05 Q1021 NOSIG=
0078101470999992014032916204+53630+009988FM-15+001699999V0201201N004119999999Y999999999+01501+00601999999ADDMA1102101999990REMMET051METAR EDDH 291620Z 12008KT CAVOK 15/06 Q1021 NOSIG=
0078101470999992014032916504+53630+009988FM-15+001699999V0201201N004619999999Y999999999+01401+00501999999ADDMA1102101999990REMMET051METAR EDDH 291650Z 12009KT CAVOK 14/05 Q1021 NOSIG=
0078101470999992014032917204+53630+009988FM-15+001699999V0201301N004119999999Y999999999+01301+00601999999ADDMA1102101999990REMMET051METAR EDDH 291720Z 13008KT CAVOK 13/06 Q1021 NOSIG=
0086101470999992014032917504+53630+009988FM-15+001699999V0201101V003619999999Y999999999+01301+00601999999ADDMA1102101999990REMMET059METAR EDDH 291750Z 11007KT 090V150 CAVOK 13/06 Q1021 NOSIG=
0078101470999992014032918204+53630+009988FM-15+001699999V0200901N003119999999Y999999999+01201+00601999999ADDMA1102101999990REMMET051METAR EDDH 291820Z 09006KT CAVOK 12/06 Q1021 NOSIG=
0078101470999992014032918504+53630+009988FM-15+001699999V0200901N002619999999Y999999999+01101+00501999999ADDMA1102101999990REMMET051METAR EDDH 291850Z 09005KT CAVOK 11/05 Q1021 NOSIG=
0078101470999992014032919204+53630+009988FM-15+001699999V0200901N002619999999Y999999999+01101+00601999999ADDMA1102101999990REMMET051METAR EDDH 291920Z 09005KT CAVOK 11/06 Q1021 NOSIG=
0115101470999992014032919504+53630+009988FM-15+001699999V0201101V003112200019N009000199+01001+00601999999ADDGF100991999999999999999999MA1102101999990REMMET062METAR EDDH 291950Z 11006KT 090V170 9000 NSC 10/06 Q1021 NOSIG=
0107101470999992014032920204+53630+009988FM-15+001699999V0200801N002112200019N009000199+00901+00601999999ADDGF100991999999999999999999MA1102101999990REMMET054METAR EDDH 292020Z 08004KT 9000 NSC 09/06 Q1021 NOSIG=
0107101470999992014032920504+53630+009988FM-15+001699999V0200701N002612200019N007000199+00901+00501999999ADDGF100991999999999999999999MA1102101999990REMMET054METAR EDDH 292050Z 07005KT 7000 NSC 09/05 Q1021 NOSIG=
0107101470999992014032921204+53630+009988FM-15+001699999V0200701N002612200019N007000199+00801+00501999999ADDGF100991999999999999999999MA1102101999990REMMET054METAR EDDH 292120Z 07005KT 7000 NSC 08/05 Q1021 NOSIG=
0107101470999992014032921504+53630+009988FM-15+001699999V0200701N002112200019N007000199+00701+00501999999ADDGF100991999999999999999999MA1102101999990REMMET054METAR EDDH 292150Z 07004KT 7000 NSC 07/05 Q1021 NOSIG=
0107101470999992014032922204+53630+009988FM-15+001699999V0209999V001012200019N007000199+00701+00601999999ADDGF100991999999999999999999MA1102101999990REMMET054METAR EDDH 292220Z VRB02KT 7000 NSC 07/06 Q1021 NOSIG=
0149101470999992014032922504+53630+009988FM-15+001699999V0200401N001012200019N004800199+00501+00401999999ADDGF100991999999999999999999MA1102101999990MW1101MW2111REMMET084METAR EDDH 292250Z 04002KT 4800 2200NW R15/0700D BCFG BR NSC 05/04      Q1021 NOSIG=
0154101470999992014032923204+53630+009988FM-15+001699999V0203501N000512200019N004800199+00501+00401999999ADDGF100991999999999999999999MA1102101999990MW1101MW2111REMMET089METAR EDDH 292320Z 35001KT 4800 2200NW R15/0500V0750N BCFG BR NSC 05/04      Q1021 NOSIG=
0155101470999992014032923504+53630+009988FM-15+001699999V0200701N001012200019N004500199+00401+00401999999ADDGF100991999999999999999999MA1102101999990MW1101MW2111REMMET090METAR EDDH 292350Z 07002KT 4500 2200NW R15/0800VP2000U BCFG BR NSC      04/04 Q1021 NOSIG=
0154101470999992014033000204+53630+009988FM-15+001699999V0200501N001512200019N004500199+00501+00501999999ADDGF100991999999999999999999MA1102001999990MW1101MW2111REMMET089METAR EDDH 300020Z 05003KT 4500 2200NW R15/0900V1900D BCFG BR NSC 05/05      Q1020 NOSIG=
0166101470999992014033000504+53630+009988FM-15+001699999V0200501N001512200019N003200199+00401+00401999999ADDGF100991999999999999999999MA1102001999990MW1101MW2111REMMET101METAR EDDH 300050Z 05003KT 3200 0600NW R23/P2000N R15/0800VP2000U BCFG      BR NSC 04/04 Q1020 NOSIG=
0161101470999992014033001204+53630+009988FM-15+001699999V0200601N001512200019N003200199+00401+00301999999ADDGF100991999999999999999999MA1102001999990MW1101MW2111REMMET096METAR EDDH 300120Z 06003KT 3200 0600NW R23/P2000N R15/P2000N BCFG BR      NSC 04/03 Q1020 NOSIG=
0161101470999992014033001504+53630+009988FM-15+001699999V0200601N002112200019N003200199+00401+00401999999ADDGF100991999999999999999999MA1102001999990MW1101MW2111REMMET096METAR EDDH 300150Z 06004KT 3200 0600NW R23/P2000N R15/P2000N BCFG BR      NSC 04/04 Q1020 NOSIG=
