0131101470999992013010100204+53633+009983FM-15+0015EDDH V0202001N007710066019N0112651N1+00901+00701999999ADDGF107991999999999999999999MA1099901999999MW1611REMMET072METAR EDDH 010020Z 20015KT 9999 -RA BKN022 09/07 Q0999 TEMPO 22020G30KT;
0131101470999992013010100504+53633+009983FM-15+0015EDDH V0202001N008210057019N0112651N1+00901+00701999999ADDGF107991999999999999999999MA1099801999999MW1611REMMET072METAR EDDH 010050Z 20016KT 9999 -RA BKN019 09/07 Q0998 TEMPO 22020G30KT;
0142101470999992013010101204+53633+009983FM-15+0015EDDH V0202001N005110057019N0112651N1+00901+00701999999ADDGF107991999999999999999999MA1099801999999MW1611OC101081REMMET075METAR EDDH 010120Z 20010G21KT 9999 -RA BKN019 09/07 Q0998 TEMPO 22020G30KT;
0142101470999992013010101504+53633+009983FM-15+0015EDDH V0201901N005710048019N0112651N1+00901+00701999999ADDGF107991999999999999999999MA1099801999999MW1611OC101081REMMET075METAR EDDH 010150Z 19011G21KT 9999 -RA BKN016 09/07 Q0998 TEMPO 22020G30KT;
0138101470999992013010102204+53633+009983FM-15+0015EDDH V0202001N008710051019N0112651N1+00901+00701999999ADDGF107991999999999999999999MA1099801999999MW1611REMMET079METAR EDDH 010220Z 20017KT 9999 -RA SCT014 BKN017 09/07 Q0998 TEMPO 22020G30KT;
0130101470999992013010102504+53633+009983FM-15+0015EDDH V0202101N008210039019N0112651N1+00901+00701999999ADDGF107991999999999999999999MA1099801999999MW1611REMMET071METAR EDDH 010250Z 21016KT 9999 -RA BKN013 BKN017 09/07 Q0998 BECMG RA;
0134101470999992013010103204+53633+009983FM-15+0015EDDH V0202101N004110039019N0112651N1+00901+00701999999ADDGF107991999999999999999999MA1099801999999MW1611OC100931REMMET067METAR EDDH 010320Z 21008G18KT 9999 -RA BKN013 09/07 Q0998 BECMG RA;
0135101470999992013010103504+53633+009983FM-15+0015EDDH V0202201N007210036019N0112651N1+00901+00701999999ADDGF107991999999999999999999MA1099801999999MW1611REMMET076METAR EDDH 010350Z 22014KT 9999 -RA BKN012 09/07 Q0998 BECMG 4000 RA BKN008;
0135101470999992013010104204+53633+009983FM-15+0015EDDH V0202101N007210036019N0112651N1+00801+00701999999ADDGF107991999999999999999999MA1099801999999MW1611REMMET076METAR EDDH 010420Z 21014KT 9999 -RA BKN012 08/07 Q0998 BECMG 4000 RA BKN008;
0135101470999992013010104504+53633+009983FM-15+0015EDDH V0202101N007210033019N0112651N1+00801+00701999999ADDGF107991999999999999999999MA1099701999999MW1611REMMET076METAR EDDH 010450Z 21014KT 9999 -RA BKN011 08/07 Q0997 BECMG 4000 RA BKN008;
0142101470999992013010105204+53633+009983FM-15+0015EDDH V0202201N006710036019N0112651N1+00801+00701999999ADDGF107991999999999999999999MA1099701999999MW1611REMMET083METAR EDDH 010520Z 22013KT 9999 -RA FEW009 BKN012 08/07 Q0997 BECMG 4000 RA BKN008;
0138101470999992013010105504+53633+009983FM-15+0015EDDH V0202101N007210036019N0112651N1+00801+00701999999ADDGF107991999999999999999999MA1099701999999MW1631REMMET079METAR EDDH 010550Z 21014KT 9999 RA FEW009 BKN012 08/07 Q0997 TEMPO 4000 BKN008;
0138101470999992013010106204+53633+009983FM-15+0015EDDH V0202101N006710033019N0112651N1+00801+00701999999ADDGF107991999999999999999999MA1099701999999MW1631REMMET079METAR EDDH 010620Z 21013KT 9999 RA FEW008 BKN011 08/07 Q0997 TEMPO 4000 BKN008;
0138101470999992013010106504+53633+009983FM-15+0015EDDH V0202101N006710030019N0112651N1+00801+00701999999ADDGF107991999999999999999999MA1099701999999MW1631REMMET079METAR EDDH 010650Z 21013KT 9999 RA SCT008 BKN010 08/07 Q0997 TEMPO 4000 BKN008;
0138101470999992013010107204+53633+009983FM-15+0015EDDH V0202101N006710030019N0080001N1+00801+00701999999ADDGF107991999999999999999999MA1099801999999MW1631REMMET079METAR EDDH 010720Z 21013KT 8000 RA SCT008 BKN010 08/07 Q0998 TEMPO 4000 BKN008;
0138101470999992013010107504+53633+009983FM-15+0015EDDH V0202201N006210030019N0112651N1+00801+00801999999ADDGF107991999999999999999999MA1099801999999MW1631REMMET079METAR EDDH 010750Z 22012KT 9999 RA SCT008 BKN010 08/08 Q0998 TEMPO 4000 BKN008;
0119101470999992013010108204+53633+009983FM-15+0015EDDH V0202201N005710021019N0090001N1+00801+00801999999ADDGF107991999999999999999999MA1099801999999MW1631REMMET060METAR EDDH 010820Z 22011KT 9000 RA BKN007 08/08 Q0998 NOSIG;
0119101470999992013010108504+53633+009983FM-15+0015EDDH V0202201N005710021019N0080001N1+00801+00801999999ADDGF107991999999999999999999MA1099801999999MW1631REMMET060METAR EDDH 010850Z 22011KT 8000 RA BKN007 08/08 Q0998 NOSIG;
0125101470999992013010109204+53633+009983FM-15+0015EDDH V0202201N006210021019N0090001N1+00801+00801999999ADDGF107991999999999999999999MA1099801999999MW1611REMMET066METAR EDDH 010920Z 22012KT 9000 -RA BKN007 08/08 Q0998 RERA NOSIG;
0125101470999992013010109504+53633+009983FM-15+0015EDDH V0202201N006710021019N0080001N1+00801+00801999999ADDGF107991999999999999999999MA1099801999999MW1611REMMET066METAR EDDH 010950Z 22013KT 8000 -RA BKN007 08/08 Q0998 RERA NOSIG;
0126101470999992013010110204+53633+009983FM-15+0015EDDH V0202201N006210021019N0080001N1+00801+00801999999ADDGF107991999999999999999999MA1099901999999MW1631REMMET067METAR EDDH 011020Z 22012KT 8000 RA FEW005 BKN007 08/08 Q0999 NOSIG;
0119101470999992013010110504+53633+009983FM-15+0015EDDH V0202301N005710018019N0070001N1+00801+00801999999ADDGF107991999999999999999999MA1099901999999MW1631REMMET060METAR EDDH 011050Z 23011KT 7000 RA BKN006 08/08 Q0999 NOSIG;
0132101470999992013010111204+53633+009983FM-15+0015EDDH V0202501N004110018019N0060001N1+00801+00801999999ADDGF107991999999999999999999MA1099901999999MW1651REMMET073METAR EDDH 011120Z 25008KT 6000 +RA FEW003 BKN006 08/08 Q0999 TEMPO 4000;
0147101470999992013010111504+53633+009983FM-15+0015EDDH V0202801N002110090019N0090001N1+00801+00801999999ADDGF107991999999999999999999MA1099901999999MW1611REMMET088METAR EDDH 011150Z 28004KT 9000 -RA FEW007 BKN030 08/08 Q0999 RERA TEMPO 4000 RA BKN008;
0142101470999992013010112204+53633+009983FM-15+0015EDDH V0202801N002610081019N0112651N1+00801+00801999999ADDGF107991999999999999999999MA1100001999999MW1611REMMET083METAR EDDH 011220Z 28005KT 9999 -RA SCT008 BKN027 08/08 Q1000 TEMPO 4000 RA BKN008;
0138101470999992013010112504+53633+009983FM-15+0015EDDH V0202801N002110087019N0112651N1+00801+00801999999ADDGF107991999999999999999999MA1100001999999MW1631REMMET079METAR EDDH 011250Z 28004KT 9999 RA FEW008 BKN029 08/08 Q1000 TEMPO 4000 BKN008;
0145101470999992013010113204+53633+009983FM-15+0015EDDH V0202801N003110087019N0112651N1+00701+00701999999ADDGF108991999999999999999999MA1100001999999MW1631REMMET086METAR EDDH 011320Z 28006KT 9999 RA FEW008 BKN029 OVC120 07/07 Q1000 TEMPO 4000 BKN008;
0145101470999992013010113504+53633+009983FM-15+0015EDDH V0202701N00261007501CN0090001N1+00701+00701999999ADDGF108991999999999999999999MA1100001999999MW1631REMMET086METAR EDDH 011350Z 27005KT 9000 RA SCT007 SCT025 OVC120 07/07 Q1000 TEMPO 4000 BKN008;
0139101470999992013010114204+53633+009983FM-15+0015EDDH V0202501N00211011401CN0112651N1+00701+00701999999ADDGF107991999999999999999999MA1100101999999MW1611REMMET080METAR EDDH 011420Z 25004KT 9999 -RA FEW007 SCT038 BKN120 07/07 Q1001 RERA NOSIG;
0134101470999992013010114504+53633+009983FM-15+0015EDDH V0202501N00211003301CN0112651N1+00701+00701999999ADDGF107991999999999999999999MA1100101999999MW1611REMMET075METAR EDDH 011450Z 25004KT 9999 -RA FEW005 SCT011 BKN030 07/07 Q1001 NOSIG;
0134101470999992013010115204+53633+009983FM-15+0015EDDH V0202501N00311002701CN0112651N1+00701+00701999999ADDGF107991999999999999999999MA1100101999999MW1611REMMET075METAR EDDH 011520Z 25006KT 9999 -RA SCT006 SCT009 BKN030 07/07 Q1001 NOSIG;
0136101470999992013010115504+53633+009983FM-15+0015EDDH V0202801N00311003601CN0112651N1+00701+00601999999ADDGF107991999999999999999999MA1100201999999MW1801REMMET077METAR EDDH 011550Z 28006KT 9999 -SHRA FEW005 SCT012 BKN030 07/06 Q1002 NOSIG;
0117101470999992013010116204+53633+009983FM-15+0015EDDH V0202801N003610093019N0112651N1+00701+00601999999ADDGF107991999999999999999999MA1100201999999REMMET064METAR EDDH 011620Z 28007KT 9999 SCT012 BKN031 07/06 Q1002 NOSIG;
0136101470999992013010116504+53633+009983FM-15+0015EDDH V0202801N00411009901CN0112651N1+00601+00501999999ADDGF107991999999999999999999MA1100311999999MW1801REMMET077METAR EDDH 011650Z 28008KT 9999 -SHRA FEW012 SCT033 BKN080 06/05 Q1003 NOSIG;
0124101470999992013010117204+53633+009983FM-15+0015EDDH V0202701N004110240019N0112651N1+00601+00501999999ADDGF107991999999999999999999MA1100311999999REMMET071METAR EDDH 011720Z 27008KT 9999 FEW012 BKN080 BKN120 06/05 Q1003 NOSIG;
0117101470999992013010117504+53633+009983FM-15+0015EDDH V0202601N003110240019N0112651N1+00601+00401999999ADDGF107991999999999999999999MA1100411999999REMMET064METAR EDDH 011750Z 26006KT 9999 FEW030 BKN080 06/04 Q1004 NOSIG;
0117101470999992013010118204+53633+009983FM-15+0015EDDH V0202501N003112200019N0112651N1+00501+00401999999ADDGF104991999999999999999999MA1100411999999REMMET064METAR EDDH 011820Z 25006KT 9999 FEW025 SCT080 05/04 Q1004 NOSIG;
0110101470999992013010118504+53633+009983FM-15+0015EDDH V0202501N003612200019N0112651N1+00501+00401999999ADDGF102991999999999999999999MA1100511999999REMMET057METAR EDDH 011850Z 25007KT 9999 FEW029 05/04 Q1005 NOSIG;
0110101470999992013010119204+53633+009983FM-15+0015EDDH V0202401N003612200019N0112651N1+00501+00301999999ADDGF102991999999999999999999MA1100511999999REMMET057METAR EDDH 011920Z 24007KT 9999 FEW026 05/03 Q1005 NOSIG;
0083101470999992013010119504+53633+009983FM-15+0015EDDH V0202401N004119999999Y0112651N1+00401+00301999999ADDMA1100501999999REMMET056METAR EDDH 011950Z 24008KT 9999 CAVOK 04/03 Q1005 NOSIG;
0110101470999992013010120204+53633+009983FM-15+0015EDDH V0202401N003612200019N0112651N1+00401+00301999999ADDGF102991999999999999999999MA1100611999999REMMET057METAR EDDH 012020Z 24007KT 9999 FEW044 04/03 Q1006 NOSIG;
0117101470999992013010120504+53633+009983FM-15+0015EDDH V0202401N004110138019N0112651N1+00401+00301999999ADDGF107991999999999999999999MA1100611999999REMMET064METAR EDDH 012050Z 24008KT 9999 FEW018 BKN046 04/03 Q1006 NOSIG;
0110101470999992013010121204+53633+009983FM-15+0015EDDH V0202401N004610132019N0112651N1+00401+00301999999ADDGF107991999999999999999999MA1100611999999REMMET057METAR EDDH 012120Z 24009KT 9999 BKN044 04/03 Q1006 NOSIG;
0110101470999992013010121504+53633+009983FM-15+0015EDDH V0202401N005710138019N0112651N1+00401+00301999999ADDGF107991999999999999999999MA1100611999999REMMET057METAR EDDH 012150Z 24011KT 9999 BKN046 04/03 Q1006 NOSIG;
0110101470999992013010122204+53633+009983FM-15+0015EDDH V0202301N005712200019N0112651N1+00401+00301999999ADDGF104991999999999999999999MA1100611999999REMMET057METAR EDDH 012220Z 23011KT 9999 SCT044 04/03 Q1006 NOSIG;
0110101470999992013010122504+53633+009983FM-15+0015EDDH V0202301N006212200019N0112651N1+00401+00301999999ADDGF102991999999999999999999MA1100611999999REMMET057METAR EDDH 012250Z 23012KT 9999 FEW015 04/03 Q1006 NOSIG;
0138101470999992013010123204+53633+009983FM-15+0015EDDH V0202401N005110039019N0112651N1+00401+00301999999ADDGF107991999999999999999999MA1100711999999REMMET085METAR EDDH 012320Z 24010KT 9999 BKN013 04/03 Q1007 TEMPO 25015G25KT 4500 SHRA BKN008;
0164101470999992013010123504+53633+009983FM-15+0015EDDH V0202301N005710036019N0112651N1+00501+00301999999ADDGF107991999999999999999999MA1100711999999MW1801REMMET105METAR EDDH 012350Z 23011KT 9999 -SHRA FEW007 BKN012 BKN022 05/03 Q1007 TEMPO 25015G25KT 4500 SHRA BKN008;
0138101470999992013010200204+53633+009983FM-15+0015EDDH V0202301N006210036019N0112651N1+00501+00401999999ADDGF107991999999999999999999MA1100711999999REMMET085METAR EDDH 020020Z 23012KT 9999 BKN012 05/04 Q1007 TEMPO 25015G25KT 4500 SHRA BKN008;
0138101470999992013010200504+53633+009983FM-15+0015EDDH V0202301N006710039019N0112651N1+00501+00401999999ADDGF107991999999999999999999MA1100711999999REMMET085METAR EDDH 020050Z 23013KT 9999 BKN013 05/04 Q1007 TEMPO 25015G25KT 4500 SHRA BKN008;
0138101470999992013010201204+53633+009983FM-15+0015EDDH V0202401N006710039019N0112651N1+00501+00401999999ADDGF107991999999999999999999MA1100711999999REMMET085METAR EDDH 020120Z 24013KT 9999 BKN013 05/04 Q1007 TEMPO 25015G25KT 4500 SHRA BKN008;
0138101470999992013010201504+53633+009983FM-15+0015EDDH V0202301N006210042019N0112651N1+00501+00401999999ADDGF107991999999999999999999MA1100711999999REMMET085METAR EDDH 020150Z 23012KT 9999 BKN014 05/04 Q1007 TEMPO 25015G25KT 4500 SHRA BKN008;
0145101470999992013010202204+53633+009983FM-15+0015EDDH V0202301N007210036019N0112651N1+00501+00401999999ADDGF107991999999999999999999MA1100811999999REMMET092METAR EDDH 020220Z 23014KT 9999 BKN012 BKN018 05/04 Q1008 TEMPO 25015G25KT 4500 SHRA BKN008;
0157101470999992013010202504+53633+009983FM-15+0015EDDH V0202401N006210039019N0112651N1+00501+00401999999ADDGF107991999999999999999999MA1100811999999MW1801REMMET098METAR EDDH 020250Z 24012KT 9999 -SHRA FEW009 BKN013 05/04 Q1008 TEMPO 25015G25KT 4500 SHRA BKN008;
0156101470999992013010203204+53633+009983FM-15+0015EDDH V0202501N004110036019N0112651N1+00501+00401999999ADDGF107991999999999999999999MA1100811999999OC101131REMMET095METAR EDDH 020320Z 25008G22KT 9999 FEW009 BKN012 05/04 Q1008 TEMPO 25015G25KT 4500 SHRA BKN008;
0145101470999992013010203504+53633+009983FM-15+0015EDDH V0202401N006210042019N0112651N1+00501+00401999999ADDGF107991999999999999999999MA1100911999999REMMET092METAR EDDH 020350Z 24012KT 9999 FEW009 BKN014 05/04 Q1009 TEMPO 25015G25KT 4500 SHRA BKN008;
0145101470999992013010204204+53633+009983FM-15+0015EDDH V0202601N004610063019N0112651N1+00401+00301999999ADDGF107991999999999999999999MA1100911999999REMMET092METAR EDDH 020420Z 26009KT 9999 FEW009 BKN021 04/03 Q1009 TEMPO 25015G25KT 4500 SHRA BKN008;
0145101470999992013010204504+53633+009983FM-15+0015EDDH V0202501N004612200019N0112651N1+00501+00401999999ADDGF104991999999999999999999MA1101021999999REMMET092METAR EDDH 020450Z 25009KT 9999 FEW014 SCT021 05/04 Q1010 TEMPO 25015G25KT 4500 SHRA BKN008;
0145101470999992013010205204+53633+009983FM-15+0015EDDH V0202601N004110084019N0112651N1+00501+00301999999ADDGF107991999999999999999999MA1101021999999REMMET092METAR EDDH 020520Z 26008KT 9999 FEW010 BKN028 05/03 Q1010 TEMPO 25015G25KT 4500 SHRA BKN008;
0138101470999992013010205504+53633+009983FM-15+0015EDDH V0202501N003612200019N0112651N1+00401+00301999999ADDGF102991999999999999999999MA1101081999999REMMET085METAR EDDH 020550Z 25007KT 9999 FEW022 04/03 Q1011 TEMPO 25015G25KT 4500 SHRA BKN008;
0152101470999992013010206204+53633+009983FM-15+0015EDDH V0202501N00461004801CN0112651N1+00401+00401999999ADDGF107991999999999999999999MA1101081999999REMMET099METAR EDDH 020620Z 25009KT 9999 FEW010 SCT016 BKN033 04/04 Q1011 TEMPO 25015G25KT 4500 SHRA BKN008;
0152101470999992013010206504+53633+009983FM-15+0015EDDH V0202701N00411006001CN0112651N1+00401+00401999999ADDGF107991999999999999999999MA1101191999999REMMET099METAR EDDH 020650Z 27008KT 9999 FEW010 SCT020 BKN028 04/04 Q1012 TEMPO 25015G25KT 4500 SHRA BKN008;
0128101470999992013010207204+53633+009983FM-15+0015EDDH V0202501N004110051019N0112651N1+00501+00401999999ADDGF107991999999999999999999MA1101191999999REMMET075METAR EDDH 020720Z 25008KT 9999 FEW008 BKN017 05/04 Q1012 TEMPO 25015G25KT;
0121101470999992013010207504+53633+009983FM-15+0015EDDH V0202601N004112200019N0112651N1+00501+00401999999ADDGF104991999999999999999999MA1101291999999REMMET068METAR EDDH 020750Z 26008KT 9999 SCT020 05/04 Q1013 TEMPO 25015G25KT;
0128101470999992013010208204+53633+009983FM-15+0015EDDH V0202601N004112200019N0112651N1+00501+00401999999ADDGF104991999999999999999999MA1101391999999REMMET075METAR EDDH 020820Z 26008KT 9999 SCT019 SCT030 05/04 Q1014 TEMPO 25015G25KT;
0135101470999992013010208504+53633+009983FM-15+0015EDDH V0202601N00511003301CN0112651N1+00501+00401999999ADDGF107991999999999999999999MA1101391999999REMMET082METAR EDDH 020850Z 26010KT 9999 FEW009 SCT011 BKN030 05/04 Q1014 TEMPO 25015G25KT;
0128101470999992013010209204+53633+009983FM-15+0015EDDH V0202601N004112200019N0112651N1+00501+00401999999ADDGF104991999999999999999999MA1101491999999REMMET075METAR EDDH 020920Z 26008KT 9999 FEW008 SCT016 05/04 Q1015 TEMPO 25015G25KT;
0121101470999992013010209504+53633+009983FM-15+0015EDDH V0202601N004612200019N0112651N1+00601+00501999999ADDGF102991999999999999999999MA1101491999999REMMET068METAR EDDH 020950Z 26009KT 9999 FEW008 06/05 Q1015 TEMPO 25015G25KT;
0121101470999992013010210204+53633+009983FM-15+0015EDDH V0202701N004612200019N0112651N1+00601+00501999999ADDGF104991999999999999999999MA1101591999999REMMET068METAR EDDH 021020Z 27009KT 9999 SCT011 06/05 Q1016 TEMPO 25015G25KT;
0135101470999992013010210504+53633+009983FM-15+0015EDDH V0202701N005110036019N0112651N1+00701+00501999999ADDGF107991999999999999999999MA1101591999999REMMET082METAR EDDH 021050Z 27010KT 9999 BKN012 BKN018 07/05 Q1016 TEMPO 25015G25KT BKN015;
0139101470999992013010211204+53633+009983FM-15+0015EDDH V0202501N005110090019N0112651N1+00701+00501999999ADDGF107991999999999999999999MA1101591999999MW1161REMMET080METAR EDDH 021120Z 25010KT 9999 VCSH SCT012 BKN030 07/05 Q1016 TEMPO 25015G25KT;
0135101470999992013010211504+53633+009983FM-15+0015EDDH V0202601N00461003901CN0112651N1+00701+00501999999ADDGF107991999999999999999999MA1101691999999MW1161REMMET076METAR EDDH 021150Z 26009KT 9999 VCSH FEW010 SCT013 BKN037 07/05 Q1017 NOSIG;
0131101470999992013010212204+53633+009983FM-15+0015EDDH V0202601N005110039019N0112651N1+00701+00501999999ADDGF107991999999999999999999MA1101691999999REMMET078METAR EDDH 021220Z 26010KT 9999 FEW010 BKN013 BKN040 07/05 Q1017 BECMG BKN015;
0135101470999992013010212504+53633+009983FM-15+0015EDDH V0202601N004610042019N0112651N1+00701+00601999999ADDGF107991999999999999999999MA1101691999999MW1161REMMET076METAR EDDH 021250Z 26009KT 9999 VCSH FEW011 BKN014 07/06 Q1017 BECMG BKN015;
0146101470999992013010213204+53633+009983FM-15+0015EDDH V0202801N00411004801CN0112651N1+00701+00501999999ADDGF107991999999999999999999MA1101691999999MW1161OC100931REMMET079METAR EDDH 021320Z 28008G18KT 9999 VCSH FEW012 SCT016 BKN038 07/05 Q1017 NOSIG;
0135101470999992013010213504+53633+009983FM-15+0015EDDH V0202701N00571005101CN0112651N1+00701+00501999999ADDGF107991999999999999999999MA1101801999999MW1161REMMET076METAR EDDH 021350Z 27011KT 9999 VCSH FEW014 SCT017 BKN038 07/05 Q1018 NOSIG;
0139101470999992013010214204+53633+009983FM-15+0015EDDH V0202801N00621004501CN0112651N1+00701+00501999999ADDGF107991999999999999999999MA1101801999999MW1801REMMET080METAR EDDH 021420Z 28012KT 9999 -SHRA FEW011 SCT015TCU BKN038 07/05 Q1018 NOSIG;
0131101470999992013010214504+53633+009983FM-15+0015EDDH V0202701N005712200019N0112651N1+00601+00401999999ADDGF104991999999999999999999MA1101901999999MW1161REMMET072METAR EDDH 021450Z 27011KT 9999 VCSH FEW011 SCT015TCU 06/04 Q1019 NOSIG;
0138101470999992013010215204+53633+009983FM-15+0015EDDH V0202701N00511004501CN0112651N1+00601+00501999999ADDGF107991999999999999999999MA1101901999999MW1161REMMET079METAR EDDH 021520Z 27010KT 9999 VCSH FEW011 SCT015TCU BKN040 06/05 Q1019 NOSIG;
0124101470999992013010215504+53633+009983FM-15+0015EDDH V0202601N00411004201CN0112651N1+00701+00501999999ADDGF107991999999999999999999MA1102001999999REMMET071METAR EDDH 021550Z 26008KT 9999 FEW010 SCT014 BKN040 07/05 Q1020 NOSIG;
0124101470999992013010216204+53633+009983FM-15+0015EDDH V0202601N00411004201CN0112651N1+00701+00501999999ADDGF107991999999999999999999MA1102001999999REMMET071METAR EDDH 021620Z 26008KT 9999 FEW010 SCT014 BKN040 07/05 Q1020 NOSIG;
0124101470999992013010216504+53633+009983FM-15+0015EDDH V0202501N00411003901CN0112651N1+00701+00501999999ADDGF107991999999999999999999MA1102001999999REMMET071METAR EDDH 021650Z 25008KT 9999 FEW010 SCT013 BKN018 07/05 Q1020 NOSIG;
0117101470999992013010217204+53633+009983FM-15+0015EDDH V0202601N004610045019N0112651N1+00601+00501999999ADDGF107991999999999999999999MA1102101999999REMMET064METAR EDDH 021720Z 26009KT 9999 FEW012 BKN015 06/05 Q1021 NOSIG;
0124101470999992013010217504+53633+009983FM-15+0015EDDH V0202601N00511004801CN0112651N1+00601+00501999999ADDGF107991999999999999999999MA1102101999999REMMET071METAR EDDH 021750Z 26010KT 9999 FEW013 SCT016 BKN039 06/05 Q1021 NOSIG;
0124101470999992013010218204+53633+009983FM-15+0015EDDH V0202501N00461004501CN0112651N1+00601+00501999999ADDGF107991999999999999999999MA1102101999999REMMET071METAR EDDH 021820Z 25009KT 9999 FEW012 SCT015 BKN038 06/05 Q1021 NOSIG;
0124101470999992013010218504+53633+009983FM-15+0015EDDH V0202401N00461004801CN0112651N1+00601+00501999999ADDGF107991999999999999999999MA1102101999999REMMET071METAR EDDH 021850Z 24009KT 9999 FEW012 SCT016 BKN038 06/05 Q1021 NOSIG;
0131101470999992013010219204+53633+009983FM-15+0015EDDH V0202401N00461004801CN0112651N1+00601+00501999999ADDGF107991999999999999999999MA1102201999999REMMET078METAR EDDH 021920Z 24009KT 9999 FEW014 SCT016 BKN029 06/05 Q1022 TEMPO BKN014;
0117101470999992013010219504+53633+009983FM-15+0015EDDH V0202401N004610042019N0112651N1+00601+00501999999ADDGF107991999999999999999999MA1102201999999REMMET064METAR EDDH 021950Z 24009KT 9999 BKN014 BKN039 06/05 Q1022 NOSIG;
0124101470999992013010220204+53633+009983FM-15+0015EDDH V0202301N005710117019N0112651N1+00601+00501999999ADDGF107991999999999999999999MA1102201999999REMMET071METAR EDDH 022020Z 23011KT 9999 SCT014 BKN039 06/05 Q1022 TEMPO BKN014;
0124101470999992013010220504+53633+009983FM-15+0015EDDH V0202401N005710099019N0112651N1+00601+00501999999ADDGF107991999999999999999999MA1102101999999REMMET071METAR EDDH 022050Z 24011KT 9999 FEW014 BKN033 06/05 Q1021 TEMPO BKN014;
0117101470999992013010221204+53633+009983FM-15+0015EDDH V0202401N005110078019N0112651N1+00601+00501999999ADDGF107991999999999999999999MA1102101999999REMMET064METAR EDDH 022120Z 24010KT 9999 BKN026 06/05 Q1021 TEMPO BKN014;
0124101470999992013010221504+53633+009983FM-15+0015EDDH V0202301N005710096019N0112651N1+00601+00501999999ADDGF107991999999999999999999MA1102101999999REMMET071METAR EDDH 022150Z 23011KT 9999 SCT016 BKN032 06/05 Q1021 TEMPO BKN014;
0117101470999992013010222204+53633+009983FM-15+0015EDDH V0202301N005110042019N0112651N1+00601+00501999999ADDGF107991999999999999999999MA1102101999999REMMET064METAR EDDH 022220Z 23010KT 9999 BKN014 BKN018 06/05 Q1021 NOSIG;
0124101470999992013010222504+53633+009983FM-15+0015EDDH V0202301N005710180019N0112651N1+00601+00501999999ADDGF107991999999999999999999MA1102101999999REMMET071METAR EDDH 022250Z 23011KT 9999 SCT014 BKN060 06/05 Q1021 TEMPO BKN014;
0127101470999992013010223204+53633+009983FM-15+0015EDDH V0202301N006210036019N0112651N1+00601+00501999999ADDGF107991999999999999999999MA1102101999999MW1611REMMET068METAR EDDH 022320Z 23012KT 9999 -RA BKN012 BKN016 06/05 Q1021 NOSIG;
0146101470999992013010223504+53633+009983FM-15+0015EDDH V0202301N003110036019N0080001N1+00601+00501999999ADDGF107991999999999999999999MA1102001999999MW1511MW2611OC100821REMMET073METAR EDDH 022350Z 23006G16KT 8000 -RADZ BKN012 BKN016 06/05 Q1020 NOSIG;
0124101470999992013010300204+53633+009983FM-15+0015EDDH V0202301N006210036019N0112651N1+00601+00501999999ADDGF107991999999999999999999MA1102001999999REMMET071METAR EDDH 030020Z 23012KT 9999 SCT008 BKN012 06/05 Q1020 TEMPO BKN008;
0135101470999992013010300504+53633+009983FM-15+0015EDDH V0202201N006710024019N0060001N1+00601+00601999999ADDGF107991999999999999999999MA1102001999999MW1511MW2611REMMET070METAR EDDH 030050Z 22013KT 6000 -RADZ BKN008 BKN012 06/06 Q1020 NOSIG;
0172101470999992013010301204+53633+009983FM-15+0015EDDH V0202201N004610018019N0060001N1+00601+00601999999ADDGF107991999999999999999999MA1101901999999MW1511MW2611OC100981REMMET099METAR EDDH 030120Z 22009G19KT 6000 -RADZ SCT004 BKN006 06/06 Q1019 TEMPO 22015G25KT 3000 RA BKN004;
0149101470999992013010301504+53633+009983FM-15+0015EDDH V0202301N007210018019N0040001N1+00601+00601999999ADDGF107991999999999999999999MA1101901999999MW1631REMMET090METAR EDDH 030150Z 23014KT 4000 RA SCT004 BKN006 06/06 Q1019 TEMPO 22015G25KT 2500 BKN004;
0149101470999992013010302204+53633+009983FM-15+0015EDDH V0202301N007210018019N0040001N1+00601+00601999999ADDGF107991999999999999999999MA1101901999999MW1631REMMET090METAR EDDH 030220Z 23014KT 4000 RA SCT004 BKN006 06/06 Q1019 TEMPO 22015G25KT 2500 BKN004;
0149101470999992013010302504+53633+009983FM-15+0015EDDH V0202301N007710018019N0040001N1+00601+00601999999ADDGF107991999999999999999999MA1101801999999MW1631REMMET090METAR EDDH 030250Z 23015KT 4000 RA SCT004 BKN006 06/06 Q1018 TEMPO 22015G25KT 2500 BKN004;
0149101470999992013010303204+53633+009983FM-15+0015EDDH V0202401N007210018019N0040001N1+00601+00601999999ADDGF107991999999999999999999MA1101801999999MW1631REMMET090METAR EDDH 030320Z 24014KT 4000 RA SCT004 BKN006 06/06 Q1018 TEMPO 22015G25KT 2500 BKN004;
0168101470999992013010303504+53633+009983FM-15+0015EDDH V0202401N007210018019N0050001N1+00701+00701999999ADDGF107991999999999999999999MA1101801999999MW1511MW2611REMMET103METAR EDDH 030350Z 24014KT 5000 -RADZ SCT004 BKN006 07/07 Q1018 RERA TEMPO 24015G25KT 2500 RADZ BKN004;
0166101470999992013010304204+53633+009983FM-15+0015EDDH V0202501N004110018019N0060001N1+00701+00701999999ADDGF107991999999999999999999MA1101901999999MW1511OC100931REMMET099METAR EDDH 030420Z 25008G18KT 6000 -DZ SCT004 BKN006 07/07 Q1019 TEMPO 24015G25KT 2500 RADZ BKN004;
0142101470999992013010304504+53633+009983FM-15+0015EDDH V0202401N005710012019N0045001N1+00701+00701999999ADDGF107991999999999999999999MA1101801999999MW1531REMMET083METAR EDDH 030450Z 24011KT 4500 DZ BKN004 BKN006 07/07 Q1018 TEMPO 24015G25KT 2500;
0142101470999992013010305204+53633+009983FM-15+0015EDDH V0202501N006210012019N0045001N1+00801+00801999999ADDGF107991999999999999999999MA1101801999999MW1531REMMET083METAR EDDH 030520Z 25012KT 4500 DZ BKN004 BKN006 08/08 Q1018 TEMPO 24015G25KT 2500;
0142101470999992013010305504+53633+009983FM-15+0015EDDH V0202501N006210012019N0040001N1+00801+00801999999ADDGF107991999999999999999999MA1101801999999MW1531REMMET083METAR EDDH 030550Z 25012KT 4000 DZ BKN004 BKN006 08/08 Q1018 TEMPO 24015G25KT 2500;
0143101470999992013010306204+53633+009983FM-15+0015EDDH V0202601N005710012019N0040001N1+00801+00801999999ADDGF107991999999999999999999MA1101801999999MW1531MW2631REMMET078METAR EDDH 030620Z 26011KT 4000 RADZ BKN004 08/08 Q1018 TEMPO 24015G25KT 2500;
0150101470999992013010306504+53633+009983FM-15+0015EDDH V0202601N005710012019N0040001N1+00801+00801999999ADDGF107991999999999999999999MA1101801999999MW1531MW2631REMMET085METAR EDDH 030650Z 26011KT 4000 RADZ BKN004 BKN006 08/08 Q1018 TEMPO 24015G25KT 2500;
0150101470999992013010307504+53633+009983FM-15+0015EDDH V0202601N004610012019N0040001N1+00901+00901999999ADDGF107991999999999999999999MA1101901999999MW1531MW2631REMMET085METAR EDDH 030750Z 26009KT 4000 RADZ BKN004 BKN006 09/09 Q1019 TEMPO 24015G25KT 2500;
0136101470999992013010308204+53633+009983FM-15+0015EDDH V0202701N005710012019N0080001N1+00901+00901999999ADDGF107991999999999999999999MA1101901999999REMMET083METAR EDDH 030820Z 27011KT 8000 BKN004 09/09 Q1019 RERA TEMPO 27015G25KT 4000 DZRA;
0156101470999992013010308504+53633+009983FM-15+0015EDDH V0202701N006210012019N0035001N1+00901+00901999999ADDGF107991999999999999999999MA1102001999999MW1511MW2611REMMET091METAR EDDH 030850Z 27012KT 3500 -DZRA BKN004 BKN006 09/09 Q1020 TEMPO 27015G25KT 2500 DZRA;
0150101470999992013010309204+53633+009983FM-15+0015EDDH V0202701N006210012019N0035001N1+00901+00901999999ADDGF107991999999999999999999MA1102001999999MW1531MW2631REMMET085METAR EDDH 030920Z 27012KT 3500 RADZ BKN004 BKN006 09/09 Q1020 TEMPO 27015G25KT 2500;
0150101470999992013010309504+53633+009983FM-15+0015EDDH V0202801N007710012019N0030001N1+00901+00901999999ADDGF107991999999999999999999MA1102101999999MW1531MW2631REMMET085METAR EDDH 030950Z 28015KT 3000 RADZ BKN004 BKN006 09/09 Q1021 TEMPO 27015G25KT 2500;
0158101470999992013010310204+53633+009983FM-15+0015EDDH V0202801N007710012019N0050001N1+00901+00901999999ADDGF107991999999999999999999MA1102001999999MW1511MW2611REMMET093METAR EDDH 031020Z 28015KT 5000 -RADZ BKN004 BKN006 09/09 Q1020 RERA TEMPO 28015G25KT BKN006;
0158101470999992013010310504+53633+009983FM-15+0015EDDH V0202801N007710012019N0045001N1+01001+01001999999ADDGF107991999999999999999999MA1102101999999MW1511MW2611OC101391REMMET085METAR EDDH 031050Z 28015G27KT 4500 -RADZ BKN004 BKN007 10/10 Q1021 RERA TEMPO BKN006;
0164101470999992013010311204+53633+009983FM-15+0015EDDH V0202801N006710012019N0070001N1+01001+01001999999ADDGF107991999999999999999999MA1102101999999MW1511MW2611OC101181REMMET091METAR EDDH 031120Z 28013G23KT 7000 -RADZ BKN004 BKN006 10/10 Q1021 TEMPO 28015G25KT BKN006;
0135101470999992013010311504+53633+009983FM-15+0015EDDH V0202801N006710024019N0112651N1+01001+01001999999ADDGF107991999999999999999999MA1102101999999REMMET082METAR EDDH 031150Z 28013KT 9999 FEW004 BKN008 10/10 Q1021 TEMPO 28015G25KT BKN012;
0128101470999992013010312204+53633+009983FM-15+0015EDDH V0202801N007210027019N0112651N1+01001+00901999999ADDGF107991999999999999999999MA1102101999999OC101231REMMET067METAR EDDH 031220Z 28014G24KT 9999 BKN009 10/09 Q1021 TEMPO BKN012;
0153101470999992013010312504+53633+009983FM-15+0015EDDH V0202801N008210021019N0090001N1+01001+00901999999ADDGF107991999999999999999999MA1102101999999MW1511MW2611REMMET088METAR EDDH 031250Z 28016KT 9000 -RADZ SCT003 BKN007 10/09 Q1021 TEMPO 28015G25KT BKN004;
0135101470999992013010313204+53633+009983FM-15+0015EDDH V0202801N007210027019N0112651N1+01001+00901999999ADDGF107991999999999999999999MA1102101999999REMMET082METAR EDDH 031320Z 28014KT 9999 FEW003 BKN009 10/09 Q1021 TEMPO 28015G25KT BKN004;
0153101470999992013010313504+53633+009983FM-15+0015EDDH V0202801N008210027019N0112651N1+01001+00901999999ADDGF107991999999999999999999MA1102201999999MW1511MW2611OC101341REMMET080METAR EDDH 031350Z 28016G26KT 9999 -RADZ FEW003 BKN009 10/09 Q1022 TEMPO BKN012;
0153101470999992013010314204+53633+009983FM-15+0015EDDH V0202801N008210024019N0070001N1+00901+00901999999ADDGF107991999999999999999999MA1102201999999MW1511MW2611REMMET088METAR EDDH 031420Z 28016KT 7000 -RADZ SCT003 BKN008 09/09 Q1022 TEMPO 28015G25KT BKN012;
0146101470999992013010314504+53633+009983FM-15+0015EDDH V0202901N008210024019N0070001N1+00901+00901999999ADDGF107991999999999999999999MA1102201999999MW1511MW2611REMMET081METAR EDDH 031450Z 29016KT 7000 -RADZ FEW003 BKN008 09/09 Q1022 TEMPO 28015G25KT;
0117101470999992013010315204+53633+009983FM-15+0015EDDH V0202901N007710024019N0112651N1+00901+00801999999ADDGF107991999999999999999999MA1102301999999REMMET064METAR EDDH 031520Z 29015KT 9999 FEW003 BKN008 09/08 Q1023 NOSIG;
0121101470999992013010315504+53633+009983FM-15+0015EDDH V0202801N008210027019N0112651N1+00901+00801999999ADDGF107991999999999999999999MA1102301999999OC101391REMMET060METAR EDDH 031550Z 28016G27KT 9999 BKN009 09/08 Q1023 NOSIG;
0128101470999992013010316204+53633+009983FM-15+0015EDDH V0202801N006710033019N0112651N1+00901+00801999999ADDGF107991999999999999999999MA1102301999999REMMET075METAR EDDH 031620Z 28013KT 9999 BKN011 09/08 Q1023 TEMPO 28015G25KT SCT011;
0121101470999992013010316504+53633+009983FM-15+0015EDDH V0202801N006712200019N0112651N1+00901+00801999999ADDGF104991999999999999999999MA1102401999999REMMET068METAR EDDH 031650Z 28013KT 9999 SCT013 09/08 Q1024 TEMPO 28015G25KT;
0110101470999992013010317204+53633+009983FM-15+0015EDDH V0202801N006212200019N0112651N1+00901+00701999999ADDGF104991999999999999999999MA1102401999999REMMET057METAR EDDH 031720Z 28012KT 9999 SCT011 09/07 Q1024 NOSIG;
0117101470999992013010317504+53633+009983FM-15+0015EDDH V0202801N005110060019N0112651N1+00901+00701999999ADDGF107991999999999999999999MA1102511999999REMMET064METAR EDDH 031750Z 28010KT 9999 SCT011 BKN020 09/07 Q1025 NOSIG;
0124101470999992013010318204+53633+009983FM-15+0015EDDH V0202801N005110030019N0112651N1+00801+00701999999ADDGF107991999999999999999999MA1102511999999REMMET071METAR EDDH 031820Z 28010KT 9999 BKN010 BKN018 08/07 Q1025 BECMG BKN015;
0124101470999992013010318504+53633+009983FM-15+0015EDDH V0202801N005710030019N0112651N1+00801+00701999999ADDGF107991999999999999999999MA1102611999999REMMET071METAR EDDH 031850Z 28011KT 9999 FEW005 BKN010 08/07 Q1026 BECMG BKN015;
0117101470999992013010319204+53633+009983FM-15+0015EDDH V0202901N005710036019N0112651N1+00801+00701999999ADDGF107991999999999999999999MA1102711999999REMMET064METAR EDDH 031920Z 29011KT 9999 BKN012 08/07 Q1027 BECMG BKN015;
0117101470999992013010319504+53633+009983FM-15+0015EDDH V0202801N005110036019N0112651N1+00801+00701999999ADDGF107991999999999999999999MA1102611999999REMMET064METAR EDDH 031950Z 28010KT 9999 BKN012 08/07 Q1026 BECMG BKN015;
0117101470999992013010320204+53633+009983FM-15+0015EDDH V0202801N004610840019N0112651N1+00701+00601999999ADDGF107991999999999999999999MA1102711999999REMMET064METAR EDDH 032020Z 28009KT 9999 FEW012 BKN280 07/06 Q1027 NOSIG;
0110101470999992013010320504+53633+009983FM-15+0015EDDH V0202701N005112200019N0112651N1+00701+00601999999ADDGF104991999999999999999999MA1102711999999REMMET057METAR EDDH 032050Z 27010KT 9999 SCT018 07/06 Q1027 NOSIG;
0110101470999992013010321204+53633+009983FM-15+0015EDDH V0202801N004612200019N0112651N1+00701+00601999999ADDGF104991999999999999999999MA1102711999999REMMET057METAR EDDH 032120Z 28009KT 9999 SCT009 07/06 Q1027 NOSIG;
0110101470999992013010321504+53633+009983FM-15+0015EDDH V0202801N004112200019N0112651N1+00701+00601999999ADDGF104991999999999999999999MA1102811999999REMMET057METAR EDDH 032150Z 28008KT 9999 SCT010 07/06 Q1028 NOSIG;
0078101470999992013010322204+53633+009983FM-15+0015EDDH V0202701N005719999999Y0099001N1+00701+00601999999ADDMA1102811999999REMMET051METAR EDDH 032220Z 27011KT CAVOK 07/06 Q1028 NOSIG;
0117101470999992013010322504+53633+009983FM-15+0015EDDH V0202701N005110840019N0112651N1+00701+00601999999ADDGF107991999999999999999999MA1102811999999REMMET064METAR EDDH 032250Z 27010KT 9999 FEW010 BKN280 07/06 Q1028 NOSIG;
0078101470999992013010323204+53633+009983FM-15+0015EDDH V0202701N005719999999Y0099001N1+00701+00601999999ADDMA1102811999999REMMET051METAR EDDH 032320Z 27011KT CAVOK 07/06 Q1028 NOSIG;
0078101470999992013010323504+53633+009983FM-15+0015EDDH V0202701N006219999999Y0099001N1+00701+00601999999ADDMA1102811999999REMMET051METAR EDDH 032350Z 27012KT CAVOK 07/06 Q1028 NOSIG;
0078101470999992013010400204+53633+009983FM-15+0015EDDH V0202801N005119999999Y0099001N1+00701+00501999999ADDMA1102811999999REMMET051METAR EDDH 040020Z 28010KT CAVOK 07/05 Q1028 NOSIG;
0078101470999992013010400504+53633+009983FM-15+0015EDDH V0202801N005719999999Y0099001N1+00701+00501999999ADDMA1102811999999REMMET051METAR EDDH 040050Z 28011KT CAVOK 07/05 Q1028 NOSIG;
0078101470999992013010401204+53633+009983FM-15+0015EDDH V0202701N005119999999Y0099001N1+00601+00501999999ADDMA1102811999999REMMET051METAR EDDH 040120Z 27010KT CAVOK 06/05 Q1028 NOSIG;
0078101470999992013010401504+53633+009983FM-15+0015EDDH V0202701N005719999999Y0099001N1+00601+00501999999ADDMA1102811999999REMMET051METAR EDDH 040150Z 27011KT CAVOK 06/05 Q1028 NOSIG;
0078101470999992013010402204+53633+009983FM-15+0015EDDH V0202701N005119999999Y0099001N1+00601+00501999999ADDMA1102811999999REMMET051METAR EDDH 040220Z 27010KT CAVOK 06/05 Q1028 NOSIG;
0117101470999992013010402504+53633+009983FM-15+0015EDDH V0202801N004610750019N0112651N1+00601+00501999999ADDGF107991999999999999999999MA1102811999999REMMET064METAR EDDH 040250Z 28009KT 9999 FEW007 BKN250 06/05 Q1028 NOSIG;
0117101470999992013010403204+53633+009983FM-15+0015EDDH V0202701N005710021019N0112651N1+00601+00501999999ADDGF107991999999999999999999MA1102811999999REMMET064METAR EDDH 040320Z 27011KT 9999 BKN007 06/05 Q1028 TEMPO BKN004;
0118101470999992013010403504+53633+009983FM-15+0015EDDH V0202701N005110012019N0080001N1+00601+00601999999ADDGF107991999999999999999999MA1102811999999REMMET065METAR EDDH 040350Z 27010KT 8000 BKN004 06/06 Q1028 TEMPO 4000 BR;
0119101470999992013010404204+53633+009983FM-15+0015EDDH V0202701N004610009019N0045001N1+00601+00601999999ADDGF107991999999999999999999MA1102811999999MW1101REMMET060METAR EDDH 040420Z 27009KT 4500 BR BKN003 06/06 Q1028 NOSIG;
0119101470999992013010404504+53633+009983FM-15+0015EDDH V0202701N005710009019N0045001N1+00701+00701999999ADDGF107991999999999999999999MA1102711999999MW1101REMMET060METAR EDDH 040450Z 27011KT 4500 BR BKN003 07/07 Q1027 NOSIG;
0115101470999992013010405204+53633+009983FM-15+0015EDDH V0202701N006210012019N0060001N1+00701+00701999999ADDGF107991999999999999999999MA1102711999999REMMET062METAR EDDH 040520Z 27012KT 6000 BKN004 07/07 Q1027 TEMPO 3500;
0125101470999992013010405504+53633+009983FM-15+0015EDDH V0202701N004110015019N0070001N1+00801+00801999999ADDGF107991999999999999999999MA1102811999999REMMET072METAR EDDH 040550Z 27008KT 7000 BKN005 08/08 Q1028 TEMPO 3500 BR BKN004;
0125101470999992013010406204+53633+009983FM-15+0015EDDH V0202801N005110015019N0080001N1+00801+00701999999ADDGF107991999999999999999999MA1102811999999REMMET072METAR EDDH 040620Z 28010KT 8000 BKN005 08/07 Q1028 TEMPO 3500 BR BKN004;
0125101470999992013010406504+53633+009983FM-15+0015EDDH V0202701N005710015019N0080001N1+00801+00801999999ADDGF107991999999999999999999MA1102811999999REMMET072METAR EDDH 040650Z 27011KT 8000 BKN005 08/08 Q1028 TEMPO 3500 BR BKN004;
0120101470999992013010407204+53633+009983FM-15+0015EDDH V0202801N006210009019N0060001N1+00801+00801999999ADDGF107991999999999999999999MA1102811999999REMMET067METAR EDDH 040720Z 28012KT 6000 BKN003 08/08 Q1028 TEMPO 3500 RADZ;
0129101470999992013010407504+53633+009983FM-15+0015EDDH V0202701N006210009019N0050001N1+00801+00801999999ADDGF107991999999999999999999MA1102711999999MW1101REMMET070METAR EDDH 040750Z 27012KT 5000 BR BKN003 08/08 Q1027 TEMPO 3500 RADZ;
0129101470999992013010408204+53633+009983FM-15+0015EDDH V0202701N006210009019N0048001N1+00801+00801999999ADDGF107991999999999999999999MA1102711999999MW1101REMMET070METAR EDDH 040820Z 27012KT 4800 BR BKN003 08/08 Q1027 TEMPO 3500 RADZ;
0129101470999992013010408504+53633+009983FM-15+0015EDDH V0202701N006210009019N0038001N1+00801+00801999999ADDGF107991999999999999999999MA1102711999999MW1101REMMET070METAR EDDH 040850Z 27012KT 3800 BR BKN003 08/08 Q1027 TEMPO 2500 RADZ;
0129101470999992013010409204+53633+009983FM-15+0015EDDH V0202701N006210006019N0025001N1+00901+00901999999ADDGF107991999999999999999999MA1102711999999MW1101MW2511REMMET064METAR EDDH 040920Z 27012KT 2500 -DZ BR BKN002 09/09 Q1027 NOSIG;
0144101470999992013010409504+53633+009983FM-15+0015EDDH V0202701N006710006019N0019001N1+00901+00901999999ADDGF107991999999999999999999MA1102711999999MW1101MW2511REMMET079METAR EDDH 040950Z 27013KT 1900 -DZ BR BKN002 09/09 Q1027 TEMPO 0800 FG BKN001;
0141101470999992013010410204+53633+009983FM-15+0015EDDH V0202801N006710006019N0022001N1+00901+00901999999ADDGF107991999999999999999999MA1102711999999MW1101MW2511REMMET076METAR EDDH 041020Z 28013KT 2200 -DZ BR BKN002 09/09 Q1027 TEMPO 1200 BKN001;
0152101470999992013010410504+53633+009983FM-15+0015EDDH V0202701N007210006019N0022001N1+00901+00901999999ADDGF107991999999999999999999MA1102611999999MW1101MW2511OC101231REMMET079METAR EDDH 041050Z 27014G24KT 2200 -DZ BR BKN002 09/09 Q1026 TEMPO 1200 BKN001;
0128101470999992013010411204+53633+009983FM-15+0015EDDH V0202701N006710012019N0048001N1+00901+00901999999ADDGF107991999999999999999999MA1102611999999MW1101REMMET069METAR EDDH 041120Z 27013KT 4800 BR BKN004 09/09 Q1026 TEMPO 2500 -DZ;
0137101470999992013010411504+53633+009983FM-15+0015EDDH V0202801N008210015019N0090001N1+00901+00901999999ADDGF107991999999999999999999MA1102611999999REMMET084METAR EDDH 041150Z 28016KT 9000 BKN005 09/09 Q1026 TEMPO 28015G25KT 2500 -DZ BKN003;
0143101470999992013010412204+53633+009983FM-15+0015EDDH V0202801N008710021019N0090001N1+00901+00901999999ADDGF107991999999999999999999MA1102611999999MW1511OC101391REMMET076METAR EDDH 041220Z 28017G27KT 9000 -DZ BKN007 09/09 Q1026 TEMPO 4000 BKN004;
0083101470999992013010412504+53633+009983AUTO +0015EDDH V0202801N007712200019N9999999N1+01001+00901999999ADDMA1102611999999REMMET056METAR EDDH 041250Z AUTO 28015KT //// // /// 10/09 Q1026;
0135101470999992013010413204+53633+009983FM-15+0015EDDH V0202901N008210027019N0112651N1+01001+00901999999ADDGF107991999999999999999999MA1102611999999OC101651REMMET074METAR EDDH 041320Z 29016G32KT 9999 FEW007 BKN009 10/09 Q1026 TEMPO BKN004;
0135101470999992013010413504+53633+009983FM-15+0015EDDH V0202801N009810030019N0112651N1+01001+00801999999ADDGF107991999999999999999999MA1102611999999OC101651REMMET074METAR EDDH 041350Z 28019G32KT 9999 FEW008 BKN010 10/08 Q1026 TEMPO BKN004;
0117101470999992013010414204+53633+009983FM-15+0015EDDH V0202801N009310021019N0112651N1+00901+00801999999ADDGF107991999999999999999999MA1102611999999REMMET064METAR EDDH 041420Z 28018KT 9999 BKN007 09/08 Q1026 TEMPO BKN004;
0117101470999992013010414504+53633+009983FM-15+0015EDDH V0202901N008210021019N0112651N1+00901+00801999999ADDGF107991999999999999999999MA1102611999999REMMET064METAR EDDH 041450Z 29016KT 9999 BKN007 09/08 Q1026 TEMPO BKN004;
0117101470999992013010415204+53633+009983FM-15+0015EDDH V0202901N007210018019N0112651N1+00901+00801999999ADDGF107991999999999999999999MA1102611999999REMMET064METAR EDDH 041520Z 29014KT 9999 BKN006 09/08 Q1026 TEMPO BKN004;
0128101470999992013010415504+53633+009983FM-15+0015EDDH V0202901N008210018019N0112651N1+00901+00801999999ADDGF107991999999999999999999MA1102611999999OC101341REMMET067METAR EDDH 041550Z 29016G26KT 9999 BKN006 09/08 Q1026 TEMPO BKN004;
0110101470999992013010416204+53633+009983FM-15+0015EDDH V0202901N008210015019N0112651N1+00901+00801999999ADDGF107991999999999999999999MA1102611999999REMMET057METAR EDDH 041620Z 29016KT 9999 BKN005 09/08 Q1026 NOSIG;
0121101470999992013010416504+53633+009983FM-15+0015EDDH V0202801N008210018019N0112651N1+00901+00801999999ADDGF107991999999999999999999MA1102511999999OC101341REMMET060METAR EDDH 041650Z 28016G26KT 9999 BKN006 09/08 Q1025 NOSIG;
0134101470999992013010417204+53633+009983FM-15+0015EDDH V0202801N006710018019N0112651N1+00901+00901999999ADDGF107991999999999999999999MA1102511999999MW1611REMMET075METAR EDDH 041720Z 28013KT 9999 -RA FEW004 BKN006 09/09 Q1025 TEMPO BKN004;
0133101470999992013010417504+53633+009983FM-15+0015EDDH V0202801N007710018019N0112651N1+00901+00901999999ADDGF107991999999999999999999MA1102511999999MW1631REMMET074METAR EDDH 041750Z 28015KT 9999 RA FEW004 BKN006 09/09 Q1025 TEMPO BKN004;
0132101470999992013010418204+53633+009983FM-15+0015EDDH V0202801N008210015019N0112651N1+00901+00901999999ADDGF107991999999999999999999MA1102511999999MW1611REMMET073METAR EDDH 041820Z 28016KT 9999 -RA FEW004 BKN005 09/09 Q1025 RERA NOSIG;
0137101470999992013010418504+53633+009983FM-15+0015EDDH V0202901N008210015019N0112651N1+00901+00901999999ADDGF107991999999999999999999MA1102511999999MW1631OC101441REMMET070METAR EDDH 041850Z 29016G28KT 9999 RA FEW004 BKN005 09/09 Q1025 NOSIG;
0143101470999992013010419204+53633+009983FM-15+0015EDDH V0202801N008210018019N0112651N1+00901+00901999999ADDGF107991999999999999999999MA1102511999999MW1611OC101341REMMET076METAR EDDH 041920Z 28016G26KT 9999 -RA FEW004 BKN006 09/09 Q1025 RERA NOSIG;
0132101470999992013010419504+53633+009983FM-15+0015EDDH V0202801N007710018019N0112651N1+00801+00801999999ADDGF107991999999999999999999MA1102511999999MW1611REMMET073METAR EDDH 041950Z 28015KT 9999 -RA FEW004 BKN006 08/08 Q1025 RERA NOSIG;
0143101470999992013010420204+53633+009983FM-15+0015EDDH V0202901N008210015019N0112651N1+00801+00801999999ADDGF107991999999999999999999MA1102611999999MW1611OC101341REMMET076METAR EDDH 042020Z 29016G26KT 9999 -RA FEW004 BKN005 08/08 Q1026 RERA NOSIG;
0125101470999992013010420504+53633+009983FM-15+0015EDDH V0202801N007710012019N0112651N1+00801+00801999999ADDGF107991999999999999999999MA1102511999999MW1611REMMET066METAR EDDH 042050Z 28015KT 9999 -RA BKN004 08/08 Q1025 RERA NOSIG;
0125101470999992013010421204+53633+009983FM-15+0015EDDH V0202901N007210012019N0112651N1+00801+00801999999ADDGF107991999999999999999999MA1102611999999MW1611REMMET066METAR EDDH 042120Z 29014KT 9999 -RA BKN004 08/08 Q1026 RERA NOSIG;
0136101470999992013010421504+53633+009983FM-15+0015EDDH V0202901N007210009019N0112651N1+00801+00801999999ADDGF107991999999999999999999MA1102611999999MW1611REMMET077METAR EDDH 042150Z 29014KT 9999 -RA BKN003 08/08 Q1026 TEMPO 29015G25KT 4000;
0136101470999992013010422204+53633+009983FM-15+0015EDDH V0203001N005710009019N0070001N1+00801+00801999999ADDGF107991999999999999999999MA1102611999999MW1611REMMET077METAR EDDH 042220Z 30011KT 7000 -RA BKN003 08/08 Q1026 TEMPO 29015G25KT 4000;
0136101470999992013010422504+53633+009983FM-15+0015EDDH V0203001N004610009019N0070001N1+00801+00801999999ADDGF107991999999999999999999MA1102611999999MW1611REMMET077METAR EDDH 042250Z 30009KT 7000 -RA BKN003 08/08 Q1026 TEMPO 29015G25KT 4000;
0126101470999992013010423204+53633+009983FM-15+0015EDDH V0202801N006210009019N0070001N1+00801+00801999999ADDGF107991999999999999999999MA1102611999999REMMET073METAR EDDH 042320Z 28012KT 7000 BKN003 08/08 Q1026 TEMPO 29015G25KT 4000;
0126101470999992013010423504+53633+009983FM-15+0015EDDH V0202901N005710009019N0070001N1+00801+00801999999ADDGF107991999999999999999999MA1102611999999REMMET073METAR EDDH 042350Z 29011KT 7000 BKN003 08/08 Q1026 TEMPO 29015G25KT 4000;
0126101470999992013010500204+53633+009983FM-15+0015EDDH V0202901N006710009019N0070001N1+00801+00801999999ADDGF107991999999999999999999MA1102611999999REMMET073METAR EDDH 050020Z 29013KT 7000 BKN003 08/08 Q1026 TEMPO 29015G25KT 4000;
0126101470999992013010500504+53633+009983FM-15+0015EDDH V0203001N006710009019N0070001N1+00801+00801999999ADDGF107991999999999999999999MA1102611999999REMMET073METAR EDDH 050050Z 30013KT 7000 BKN003 08/08 Q1026 TEMPO 29015G25KT 4000;
0126101470999992013010501204+53633+009983FM-15+0015EDDH V0202901N005710009019N0070001N1+00801+00801999999ADDGF107991999999999999999999MA1102611999999REMMET073METAR EDDH 050120Z 29011KT 7000 BKN003 08/08 Q1026 TEMPO 29015G25KT 4000;
0126101470999992013010501504+53633+009983FM-15+0015EDDH V0202901N005110009019N0070001N1+00801+00801999999ADDGF107991999999999999999999MA1102611999999REMMET073METAR EDDH 050150Z 29010KT 7000 BKN003 08/08 Q1026 TEMPO 29015G25KT 4000;
0126101470999992013010502204+53633+009983FM-15+0015EDDH V0203001N005110009019N0070001N1+00801+00801999999ADDGF107991999999999999999999MA1102611999999REMMET073METAR EDDH 050220Z 30010KT 7000 BKN003 08/08 Q1026 TEMPO 29015G25KT 4000;
0136101470999992013010502504+53633+009983FM-15+0015EDDH V0202901N005110009019N0060001N1+00801+00801999999ADDGF107991999999999999999999MA1102611999999MW1511REMMET077METAR EDDH 050250Z 29010KT 6000 -DZ BKN003 08/08 Q1026 TEMPO 29015G25KT 4000;
0125101470999992013010503204+53633+009983FM-15+0015EDDH V0202901N005110006019N0060001N1+00801+00801999999ADDGF107991999999999999999999MA1102611999999MW1511REMMET066METAR EDDH 050320Z 29010KT 6000 -DZ BKN002 08/08 Q1026 TEMPO 4000;
0124101470999992013010503504+53633+009983FM-15+0015EDDH V0203001N004610009019N0045001N1+00801+00801999999ADDGF107991999999999999999999MA1102611999999MW1101REMMET065METAR EDDH 050350Z 30009KT 4500 BR BKN003 08/08 Q1026 TEMPO 2500;
0131101470999992013010504204+53633+009983FM-15+0015EDDH V0202901N004110009019N0025001N1+00801+00801999999ADDGF107991999999999999999999MA1102711999999MW1101REMMET072METAR EDDH 050420Z 29008KT 2500 BR BKN003 08/08 Q1027 TEMPO 1200 BKN001;
0141101470999992013010504504+53633+009983FM-15+0015EDDH V0203001N004610006019N0022001N1+00801+00801999999ADDGF107991999999999999999999MA1102711999999MW1101MW2511REMMET076METAR EDDH 050450Z 30009KT 2200 -DZ BR BKN002 08/08 Q1027 TEMPO 1200 BKN001;
0141101470999992013010505204+53633+009983FM-15+0015EDDH V0202901N004110006019N0022001N1+00801+00801999999ADDGF107991999999999999999999MA1102711999999MW1101MW2511REMMET076METAR EDDH 050520Z 29008KT 2200 -DZ BR BKN002 08/08 Q1027 TEMPO 1200 BKN001;
0148101470999992013010505504+53633+009983FM-15+0015EDDH V0203001N004110009019N0022001N1+00801+00801999999ADDGF107991999999999999999999MA1102711999999MW1101MW2511REMMET083METAR EDDH 050550Z 30008KT 2200 -DZ BR FEW002 BKN003 08/08 Q1027 TEMPO 1200 BKN001;
0143101470999992013010506204+53633+009983FM-15+0015EDDH V0202901N003110009019N0022001N1+00701+00701999999ADDGF107991999999999999999999MA1102711999999MW1101MW2511REMMET078METAR EDDH 050620Z 29006KT 2200 -DZ BR FEW002 BKN003 07/07 Q1027 TEMPO BKN001;
0136101470999992013010506504+53633+009983FM-15+0015EDDH V0202901N003110009019N0022001N1+00701+00701999999ADDGF107991999999999999999999MA1102711999999MW1101MW2511REMMET071METAR EDDH 050650Z 29006KT 2200 -DZ BR SCT002 BKN003 07/07 Q1027 NOSIG;
0136101470999992013010507204+53633+009983FM-15+0015EDDH V0202901N004110009019N0022001N1+00701+00701999999ADDGF107991999999999999999999MA1102711999999MW1101MW2511REMMET071METAR EDDH 050720Z 29008KT 2200 -DZ BR SCT002 BKN003 07/07 Q1027 NOSIG;
0141101470999992013010507504+53633+009983FM-15+0015EDDH V0202901N004610009019N0017001N1+00701+00701999999ADDGF107991999999999999999999MA1102811999999MW1101MW2511REMMET076METAR EDDH 050750Z 29009KT 1700 -DZ BR SCT002 BKN003 07/07 Q1028 TEMPO 1400;
0157101470999992013010508204+53633+009983FM-15+0015EDDH V0203001N004610006019N0012001N1+00701+00701999999ADDGF107991999999999999999999MA1102811999999MW1101MW2511REMMET092METAR EDDH 050820Z 30009KT 1200 R23/1600N R33/P2000N -DZ BR BKN002 07/07 Q1028 TEMPO OVC001;
0136101470999992013010508504+53633+009983FM-15+0015EDDH V0203001N004610006019N0025001N1+00701+00701999999ADDGF107991999999999999999999MA1102811999999MW1101MW2511REMMET071METAR EDDH 050850Z 30009KT 2500 -DZ BR BKN002 07/07 Q1028 TEMPO OVC001;
0131101470999992013010509204+53633+009983FM-15+0015EDDH V0203001N003610009019N0042001N1+00701+00701999999ADDGF107991999999999999999999MA1102811999999MW1101REMMET072METAR EDDH 050920Z 30007KT 4200 BR FEW002 BKN003 07/07 Q1028 BECMG 6000;
0131101470999992013010509504+53633+009983FM-15+0015EDDH V0202901N004110009019N0042001N1+00701+00701999999ADDGF107991999999999999999999MA1102811999999MW1101REMMET072METAR EDDH 050950Z 29008KT 4200 BR SCT002 BKN003 07/07 Q1028 BECMG 6000;
0131101470999992013010510204+53633+009983FM-15+0015EDDH V0203001N004110009019N0042001N1+00701+00701999999ADDGF107991999999999999999999MA1102911999999MW1101REMMET072METAR EDDH 051020Z 30008KT 4200 BR SCT002 BKN003 07/07 Q1029 BECMG 6000;
0131101470999992013010510504+53633+009983FM-15+0015EDDH V0203001N003610006019N0048001N1+00701+00701999999ADDGF107991999999999999999999MA1102911999999MW1101REMMET072METAR EDDH 051050Z 30007KT 4800 BR BKN002 BKN003 07/07 Q1029 BECMG 5000;
0131101470999992013010511204+53633+009983FM-15+0015EDDH V0203001N003610006019N0045001N1+00701+00701999999ADDGF107991999999999999999999MA1102911999999MW1101REMMET072METAR EDDH 051120Z 30007KT 4500 BR BKN002 BKN003 07/07 Q1029 BECMG 5000;
0126101470999992013010511504+53633+009983FM-15+0015EDDH V0203001N004110006019N0038001N1+00701+00701999999ADDGF107991999999999999999999MA1102911999999MW1101REMMET067METAR EDDH 051150Z 30008KT 3800 BR BKN002 BKN003 07/07 Q1029 NOSIG;
0157101470999992013010512204+53633+009983FM-15+0015EDDH V0203001N003610003019N0014001N1+00701+00701999999ADDGF107991999999999999999999MA1102911999999MW1101MW2511REMMET092METAR EDDH 051220Z 30007KT 1400 R23/1700N R33/P2000N -DZ BR BKN001 BKN002 07/07 Q1029 NOSIG;
0143101470999992013010512504+53633+009983FM-15+0015EDDH V0203101N004610006019N0028001N1+00701+00701999999ADDGF107991999999999999999999MA1102911999999MW1101MW2511REMMET078METAR EDDH 051250Z 31009KT 2800 -DZ BR FEW001 BKN002 BKN003 07/07 Q1029 NOSIG;
0136101470999992013010513204+53633+009983FM-15+0015EDDH V0203001N003610009019N0035001N1+00701+00701999999ADDGF107991999999999999999999MA1102911999999MW1101MW2511REMMET071METAR EDDH 051320Z 30007KT 3500 -DZ BR SCT002 BKN003 07/07 Q1029 NOSIG;
0136101470999992013010513504+53633+009983FM-15+0015EDDH V0203001N003110009019N0042001N1+00801+00801999999ADDGF107991999999999999999999MA1102911999999MW1101MW2511REMMET071METAR EDDH 051350Z 30006KT 4200 -DZ BR SCT002 BKN003 08/08 Q1029 NOSIG;
0136101470999992013010514204+53633+009983FM-15+0015EDDH V0202901N003110006019N0040001N1+00801+00801999999ADDGF107991999999999999999999MA1102911999999MW1101MW2511REMMET071METAR EDDH 051420Z 29006KT 4000 -DZ BR BKN002 BKN004 08/08 Q1029 NOSIG;
0136101470999992013010514504+53633+009983FM-15+0015EDDH V0202901N003110006019N0028001N1+00801+00801999999ADDGF107991999999999999999999MA1102911999999MW1101MW2511REMMET071METAR EDDH 051450Z 29006KT 2800 -DZ BR BKN002 BKN004 08/08 Q1029 NOSIG;
0129101470999992013010515204+53633+009983FM-15+0015EDDH V0203001N003110006019N0025001N1+00801+00801999999ADDGF107991999999999999999999MA1102911999999MW1101MW2511REMMET064METAR EDDH 051520Z 30006KT 2500 -DZ BR BKN002 08/08 Q1029 NOSIG;
0136101470999992013010515504+53633+009983FM-15+0015EDDH V0202801N004110006019N0029001N1+00701+00701999999ADDGF107991999999999999999999MA1102911999999MW1101MW2511REMMET071METAR EDDH 051550Z 28008KT 2900 -DZ BR BKN002 BKN003 07/07 Q1029 NOSIG;
0136101470999992013010516204+53633+009983FM-15+0015EDDH V0202901N004610006019N0028001N1+00701+00701999999ADDGF107991999999999999999999MA1102911999999MW1101MW2511REMMET071METAR EDDH 051620Z 29009KT 2800 -DZ BR BKN002 BKN003 07/07 Q1029 NOSIG;
0129101470999992013010516504+53633+009983FM-15+0015EDDH V0202901N005710006019N0035001N1+00701+00701999999ADDGF107991999999999999999999MA1102911999999MW1101MW2511REMMET064METAR EDDH 051650Z 29011KT 3500 -DZ BR BKN002 07/07 Q1029 NOSIG;
0119101470999992013010517204+53633+009983FM-15+0015EDDH V0202901N006210006019N0045001N1+00701+00701999999ADDGF107991999999999999999999MA1102911999999MW1101REMMET060METAR EDDH 051720Z 29012KT 4500 BR BKN002 07/07 Q1029 NOSIG;
0126101470999992013010517504+53633+009983FM-15+0015EDDH V0203001N004610006019N0045001N1+00701+00701999999ADDGF107991999999999999999999MA1102911999999MW1101REMMET067METAR EDDH 051750Z 30009KT 4500 BR BKN002 BKN004 07/07 Q1029 NOSIG;
0126101470999992013010518204+53633+009983FM-15+0015EDDH V0202901N004110006019N0046001N1+00701+00701999999ADDGF107991999999999999999999MA1102911999999MW1101REMMET067METAR EDDH 051820Z 29008KT 4600 BR BKN002 BKN004 07/07 Q1029 NOSIG;
0126101470999992013010518504+53633+009983FM-15+0015EDDH V0202901N004610006019N0045001N1+00701+00701999999ADDGF107991999999999999999999MA1102911999999MW1101REMMET067METAR EDDH 051850Z 29009KT 4500 BR BKN002 BKN003 07/07 Q1029 NOSIG;
0126101470999992013010519204+53633+009983FM-15+0015EDDH V0202901N004110009019N0040001N1+00701+00701999999ADDGF107991999999999999999999MA1102911999999MW1101REMMET067METAR EDDH 051920Z 29008KT 4000 BR SCT002 BKN003 07/07 Q1029 NOSIG;
0126101470999992013010519504+53633+009983FM-15+0015EDDH V0202901N004610006019N0040001N1+00601+00601999999ADDGF107991999999999999999999MA1102911999999MW1101REMMET067METAR EDDH 051950Z 29009KT 4000 BR BKN002 BKN003 06/06 Q1029 NOSIG;
0136101470999992013010520204+53633+009983FM-15+0015EDDH V0202801N004610009019N0040001N1+00601+00601999999ADDGF107991999999999999999999MA1102911999999MW1101MW2511REMMET071METAR EDDH 052020Z 28009KT 4000 -DZ BR SCT002 BKN003 06/06 Q1029 NOSIG;
0125101470999992013010520504+53633+009983FM-15+0015EDDH V0202801N004610009019N0060001N1+00601+00601999999ADDGF107991999999999999999999MA1102911999999REMMET072METAR EDDH 052050Z 28009KT 6000 FEW002 BKN003 06/06 Q1029 TEMPO 4000 BR;
0124101470999992013010521204+53633+009983FM-15+0015EDDH V0202801N004110012019N0070001N1+00601+00601999999ADDGF107991999999999999999999MA1102911999999REMMET071METAR EDDH 052120Z 28008KT 7000 FEW003 BKN004 BKN006 06/06 Q1029 NOSIG;
0117101470999992013010521504+53633+009983FM-15+0015EDDH V0202901N003610012019N0070001N1+00601+00601999999ADDGF107991999999999999999999MA1102911999999REMMET064METAR EDDH 052150Z 29007KT 7000 FEW003 BKN004 06/06 Q1029 NOSIG;
0110101470999992013010522204+53633+009983FM-15+0015EDDH V0202801N002610009019N0070001N1+00601+00601999999ADDGF107991999999999999999999MA1102911999999REMMET057METAR EDDH 052220Z 28005KT 7000 BKN003 06/06 Q1029 NOSIG;
0127101470999992013010522504+53633+009983FM-15+0015EDDH V0202801N003110009019N0050001N1+00601+00601999999ADDGF107991999999999999999999MA1102911999999MW1511REMMET068METAR EDDH 052250Z 28006KT 5000 -DZ FEW002 BKN003 06/06 Q1029 NOSIG;
0127101470999992013010523204+53633+009983FM-15+0015EDDH V0202801N003110009019N0050001N1+00601+00601999999ADDGF107991999999999999999999MA1102811999999MW1511REMMET068METAR EDDH 052320Z 28006KT 5000 -DZ FEW002 BKN003 06/06 Q1028 NOSIG;
0127101470999992013010523504+53633+009983FM-15+0015EDDH V0202801N003610009019N0070001N1+00601+00601999999ADDGF107991999999999999999999MA1102811999999MW1511REMMET068METAR EDDH 052350Z 28007KT 7000 -DZ FEW002 BKN003 06/06 Q1028 NOSIG;
0127101470999992013010600204+53633+009983FM-15+0015EDDH V0202701N003110009019N0050001N1+00601+00601999999ADDGF107991999999999999999999MA1102811999999MW1511REMMET068METAR EDDH 060020Z 27006KT 5000 -DZ SCT002 BKN003 06/06 Q1028 NOSIG;
0127101470999992013010600504+53633+009983FM-15+0015EDDH V0202601N002110009019N0060001N1+00601+00601999999ADDGF107991999999999999999999MA1102711999999MW1511REMMET068METAR EDDH 060050Z 26004KT 6000 -DZ SCT002 BKN003 06/06 Q1027 NOSIG;
0127101470999992013010601204+53633+009983FM-15+0015EDDH V0202401N002110009019N0060001N1+00601+00601999999ADDGF107991999999999999999999MA1102711999999MW1511REMMET068METAR EDDH 060120Z 24004KT 6000 -DZ SCT002 BKN003 06/06 Q1027 NOSIG;
0127101470999992013010601504+53633+009983FM-15+0015EDDH V0202501N002610006019N0050001N1+00601+00601999999ADDGF107991999999999999999999MA1102611999999MW1511REMMET068METAR EDDH 060150Z 25005KT 5000 -DZ BKN002 BKN003 06/06 Q1026 NOSIG;
0127101470999992013010602204+53633+009983FM-15+0015EDDH V0202601N003610012019N0070001N1+00601+00601999999ADDGF107991999999999999999999MA1102611999999MW1511REMMET068METAR EDDH 060220Z 26007KT 7000 -DZ FEW003 BKN004 06/06 Q1026 NOSIG;
0127101470999992013010602504+53633+009983FM-15+0015EDDH V0202601N003110012019N0060001N1+00601+00601999999ADDGF107991999999999999999999MA1102611999999MW1511REMMET068METAR EDDH 060250Z 26006KT 6000 -DZ SCT003 BKN004 06/06 Q1026 NOSIG;
0135101470999992013010603204+53633+009983FM-15+0015EDDH V0202501N003110009019N0050001N1+00701+00701999999ADDGF107991999999999999999999MA1102611999999MW1511REMMET076METAR EDDH 060320Z 25006KT 5000 -DZ FEW002 BKN003 07/07 Q1026 TEMPO 4000 BR;
0135101470999992013010603504+53633+009983FM-15+0015EDDH V0202601N003610009019N0050001N1+00701+00701999999ADDGF107991999999999999999999MA1102511999999MW1511REMMET076METAR EDDH 060350Z 26007KT 5000 -DZ BKN003 BKN006 07/07 Q1025 TEMPO 4000 BR;
0127101470999992013010604204+53633+009983FM-15+0015EDDH V0202501N003610006019N0040001N1+00701+00701999999ADDGF107991999999999999999999MA1102511999999MW1511REMMET068METAR EDDH 060420Z 25007KT 4000 -DZ BKN002 BKN003 07/07 Q1025 NOSIG;
0120101470999992013010604504+53633+009983FM-15+0015EDDH V0202501N003610009019N0050001N1+00701+00701999999ADDGF107991999999999999999999MA1102401999999MW1511REMMET061METAR EDDH 060450Z 25007KT 5000 -DZ BKN003 07/07 Q1024 NOSIG;
0127101470999992013010605204+53633+009983FM-15+0015EDDH V0202601N004110012019N0070001N1+00701+00701999999ADDGF107991999999999999999999MA1102401999999MW1511REMMET068METAR EDDH 060520Z 26008KT 7000 -DZ SCT003 BKN004 07/07 Q1024 NOSIG;
0128101470999992013010605504+53633+009983FM-15+0015EDDH V0202701N004110012019N0060001N1+00701+00701999999ADDGF107991999999999999999999MA1102401999999MW1511REMMET069METAR EDDH 060550Z 27008KT 6000 -DZ BKN004 07/07 Q1024 TEMPO 4000 BR;
0141101470999992013010606204+53633+009983FM-15+0015EDDH V0202801N005110012019N0050001N1+00701+00701999999ADDGF107991999999999999999999MA1102401999999MW1101MW2511REMMET076METAR EDDH 060620Z 28010KT 5000 -DZ BR FEW003 BKN004 07/07 Q1024 TEMPO 4000;
0141101470999992013010606504+53633+009983FM-15+0015EDDH V0202901N005710012019N0050001N1+00701+00701999999ADDGF107991999999999999999999MA1102401999999MW1101MW2511REMMET076METAR EDDH 060650Z 29011KT 5000 -DZ BR SCT003 BKN004 07/07 Q1024 TEMPO 4000;
0138101470999992013010607204+53633+009983FM-15+0015EDDH V0202901N005710012019N0050001N1+00701+00701999999ADDGF107991999999999999999999MA1102401999999MW1101REMMET079METAR EDDH 060720Z 29011KT 5000 BR BKN004 BKN006 07/07 Q1024 TEMPO 5000 BKN007;
0126101470999992013010607504+53633+009983FM-15+0015EDDH V0202801N004110012019N0060001N1+00701+00701999999ADDGF107991999999999999999999MA1102401999999REMMET073METAR EDDH 060750Z 28008KT 6000 SCT003 BKN004 07/07 Q1024 TEMPO 4000 -DZ;
0128101470999992013010608204+53633+009983FM-15+0015EDDH V0202901N005710009019N0050001N1+00701+00701999999ADDGF107991999999999999999999MA1102401999999MW1101REMMET069METAR EDDH 060820Z 29011KT 5000 BR BKN003 07/07 Q1024 TEMPO 4000 -DZ;
0135101470999992013010608504+53633+009983FM-15+0015EDDH V0202901N005110009019N0050001N1+00701+00701999999ADDGF107991999999999999999999MA1102401999999MW1101REMMET076METAR EDDH 060850Z 29010KT 5000 BR BKN003 BKN005 07/07 Q1024 TEMPO 4000 -DZ;
0125101470999992013010609204+53633+009983FM-15+0015EDDH V0203001N005110012019N0060001N1+00701+00701999999ADDGF107991999999999999999999MA1102401999999MW1511REMMET066METAR EDDH 060920Z 30010KT 6000 -DZ BKN004 07/07 Q1024 TEMPO 4000;
0136101470999992013010609504+53633+009983FM-15+0015EDDH V0202901N004610012019N0045001N1+00701+00701999999ADDGF107991999999999999999999MA1102401999999MW1101MW2511REMMET071METAR EDDH 060950Z 29009KT 4500 -DZ BR BKN004 BKN008 07/07 Q1024 NOSIG;
0140101470999992013010610204+53633+009983FM-15+0015EDDH V0202801N004610012019N0038001N1+00701+00701999999ADDGF107991999999999999999999MA1102301999999MW1101MW2531REMMET075METAR EDDH 061020Z 28009KT 3800 DZ BR SCT003 BKN004 07/07 Q1023 REDZ NOSIG;
0132101470999992013010610504+53633+009983FM-15+0015EDDH V0202801N005110012019N0060001N1+00801+00801999999ADDGF107991999999999999999999MA1102301999999MW1511REMMET073METAR EDDH 061050Z 28010KT 6000 -DZ SCT003 BKN004 08/08 Q1023 REDZ NOSIG;
0132101470999992013010611204+53633+009983FM-15+0015EDDH V0202901N005710012019N0060001N1+00801+00801999999ADDGF107991999999999999999999MA1102301999999MW1511REMMET073METAR EDDH 061120Z 29011KT 6000 -DZ SCT003 BKN004 08/08 Q1023 REDZ NOSIG;
0127101470999992013010611504+53633+009983FM-15+0015EDDH V0202901N005710009019N0060001N1+00801+00801999999ADDGF107991999999999999999999MA1102301999999MW1511REMMET068METAR EDDH 061150Z 29011KT 6000 -DZ BKN003 08/08 Q1023 TEMPO BKN005;
0132101470999992013010612204+53633+009983FM-15+0015EDDH V0202901N006210009019N0035001N1+00801+00801999999ADDGF107991999999999999999999MA1102301999999MW1511REMMET073METAR EDDH 061220Z 29012KT 3500 -DZ BKN003 08/08 Q1023 TEMPO 2500 BKN005;
0122101470999992013010612504+53633+009983FM-15+0015EDDH V0203001N005710009019N0035001N1+00801+00801999999ADDGF107991999999999999999999MA1102301999999REMMET069METAR EDDH 061250Z 30011KT 3500 BKN003 08/08 Q1023 TEMPO 2500 BKN005;
0110101470999992013010613204+53633+009983FM-15+0015EDDH V0203001N006210009019N0045001N1+00801+00801999999ADDGF107991999999999999999999MA1102301999999REMMET057METAR EDDH 061320Z 30012KT 4500 BKN003 08/08 Q1023 NOSIG;
0110101470999992013010613504+53633+009983FM-15+0015EDDH V0203001N005110012019N0060001N1+00801+00801999999ADDGF107991999999999999999999MA1102301999999REMMET057METAR EDDH 061350Z 30010KT 6000 BKN004 08/08 Q1023 NOSIG;
0110101470999992013010614204+53633+009983FM-15+0015EDDH V0203001N006210012019N0060001N1+00801+00801999999ADDGF107991999999999999999999MA1102301999999REMMET057METAR EDDH 061420Z 30012KT 6000 BKN004 08/08 Q1023 NOSIG;
0117101470999992013010614504+53633+009983FM-15+0015EDDH V0202901N005110012019N0060001N1+00801+00801999999ADDGF107991999999999999999999MA1102301999999REMMET064METAR EDDH 061450Z 29010KT 6000 FEW002 BKN004 08/08 Q1023 NOSIG;
0117101470999992013010615204+53633+009983FM-15+0015EDDH V0202901N006210012019N0030001N1+00701+00701999999ADDGF107991999999999999999999MA1102301999999REMMET064METAR EDDH 061520Z 29012KT 3000 FEW002 BKN004 07/07 Q1023 NOSIG;
0126101470999992013010615504+53633+009983FM-15+0015EDDH V0202901N005110009019N0018001N1+00701+00701999999ADDGF107991999999999999999999MA1102401999999MW1101REMMET067METAR EDDH 061550Z 29010KT 1800 BR FEW001 BKN003 07/07 Q1024 NOSIG;
0126101470999992013010616204+53633+009983FM-15+0015EDDH V0203001N005710006019N0032001N1+00701+00701999999ADDGF107991999999999999999999MA1102301999999MW1101REMMET067METAR EDDH 061620Z 30011KT 3200 BR FEW001 BKN002 07/07 Q1023 NOSIG;
0136101470999992013010616504+53633+009983FM-15+0015EDDH V0203001N005110009019N0045001N1+00701+00701999999ADDGF107991999999999999999999MA1102401999999MW1101MW2511REMMET071METAR EDDH 061650Z 30010KT 4500 -DZ BR FEW001 BKN003 07/07 Q1024 NOSIG;
0127101470999992013010617204+53633+009983FM-15+0015EDDH V0203201N006710009019N0060001N1+00701+00701999999ADDGF107991999999999999999999MA1102401999999MW1511REMMET068METAR EDDH 061720Z 32013KT 6000 -DZ FEW001 BKN003 07/07 Q1024 NOSIG;
0110101470999992013010617504+53633+009983FM-15+0015EDDH V0203101N006710015019N0112651N1+00701+00701999999ADDGF107991999999999999999999MA1102401999999REMMET057METAR EDDH 061750Z 31013KT 9999 BKN005 07/07 Q1024 NOSIG;
0110101470999992013010618204+53633+009983FM-15+0015EDDH V0203101N006210024019N0112651N1+00701+00701999999ADDGF107991999999999999999999MA1102511999999REMMET057METAR EDDH 061820Z 31012KT 9999 BKN008 07/07 Q1025 NOSIG;
0127101470999992013010618504+53633+009983FM-15+0015EDDH V0203201N005710027019N0112651N1+00701+00701999999ADDGF107991999999999999999999MA1102511999999MW1511REMMET068METAR EDDH 061850Z 32011KT 9999 -DZ FEW006 BKN009 07/07 Q1025 NOSIG;
0127101470999992013010619204+53633+009983FM-15+0015EDDH V0203101N004110015019N0112651N1+00701+00701999999ADDGF107991999999999999999999MA1102511999999MW1511REMMET068METAR EDDH 061920Z 31008KT 9999 -DZ BKN005 BKN014 07/07 Q1025 NOSIG;
0134101470999992013010619504+53633+009983FM-15+0015EDDH V0203001N004610018019N0112651N1+00701+00701999999ADDGF107991999999999999999999MA1102511999999MW1511REMMET075METAR EDDH 061950Z 30009KT 9999 -DZ FEW003 BKN006 BKN012 07/07 Q1025 NOSIG;
0134101470999992013010620204+53633+009983FM-15+0015EDDH V0203001N004110018019N0112651N1+00701+00701999999ADDGF107991999999999999999999MA1102511999999MW1511REMMET075METAR EDDH 062020Z 30008KT 9999 -DZ SCT003 BKN006 BKN014 07/07 Q1025 NOSIG;
0127101470999992013010620504+53633+009983FM-15+0015EDDH V0203001N004110021019N0112651N1+00701+00701999999ADDGF107991999999999999999999MA1102611999999MW1511REMMET068METAR EDDH 062050Z 30008KT 9999 -DZ FEW004 BKN007 07/07 Q1026 NOSIG;
0127101470999992013010621204+53633+009983FM-15+0015EDDH V0202901N003610018019N0112651N1+00701+00701999999ADDGF107991999999999999999999MA1102611999999MW1511REMMET068METAR EDDH 062120Z 29007KT 9999 -DZ FEW003 BKN006 07/07 Q1026 NOSIG;
0117101470999992013010621504+53633+009983FM-15+0015EDDH V0202901N004110018019N0112651N1+00601+00601999999ADDGF107991999999999999999999MA1102611999999REMMET064METAR EDDH 062150Z 29008KT 9999 FEW003 BKN006 06/06 Q1026 NOSIG;
0124101470999992013010622204+53633+009983FM-15+0015EDDH V0202901N004610015019N0112651N1+00601+00601999999ADDGF107991999999999999999999MA1102611999999REMMET071METAR EDDH 062220Z 29009KT 9999 FEW003 BKN005 BKN016 06/06 Q1026 NOSIG;
0117101470999992013010622504+53633+009983FM-15+0015EDDH V0202901N003610018019N0112651N1+00601+00601999999ADDGF107991999999999999999999MA1102611999999REMMET064METAR EDDH 062250Z 29007KT 9999 BKN006 BKN016 06/06 Q1026 NOSIG;
0117101470999992013010623204+53633+009983FM-15+0015EDDH V0202801N003610018019N0112651N1+00601+00601999999ADDGF107991999999999999999999MA1102611999999REMMET064METAR EDDH 062320Z 28007KT 9999 BKN006 BKN013 06/06 Q1026 NOSIG;
0117101470999992013010623504+53633+009983FM-15+0015EDDH V0202901N003610018019N0112651N1+00601+00601999999ADDGF107991999999999999999999MA1102611999999REMMET064METAR EDDH 062350Z 29007KT 9999 BKN006 BKN013 06/06 Q1026 NOSIG;
0117101470999992013010700204+53633+009983FM-15+0015EDDH V0202801N003110015019N0112651N1+00601+00601999999ADDGF107991999999999999999999MA1102611999999REMMET064METAR EDDH 070020Z 28006KT 9999 BKN005 BKN017 06/06 Q1026 NOSIG;
0117101470999992013010700504+53633+009983FM-15+0015EDDH V0202801N004610015019N0112651N1+00601+00601999999ADDGF107991999999999999999999MA1102611999999REMMET064METAR EDDH 070050Z 28009KT 9999 BKN005 BKN013 06/06 Q1026 NOSIG;
0117101470999992013010701204+53633+009983FM-15+0015EDDH V0202801N002610015019N0112651N1+00601+00601999999ADDGF107991999999999999999999MA1102611999999REMMET064METAR EDDH 070120Z 28005KT 9999 BKN005 BKN019 06/06 Q1026 NOSIG;
0117101470999992013010701504+53633+009983FM-15+0015EDDH V0202901N002610015019N0112651N1+00601+00601999999ADDGF107991999999999999999999MA1102611999999REMMET064METAR EDDH 070150Z 29005KT 9999 BKN005 BKN019 06/06 Q1026 NOSIG;
0117101470999992013010702204+53633+009983FM-15+0015EDDH V0202801N003110057019N0112651N1+00601+00601999999ADDGF107991999999999999999999MA1102711999999REMMET064METAR EDDH 070220Z 28006KT 9999 SCT005 BKN019 06/06 Q1027 NOSIG;
0131101470999992013010702504+53633+009983FM-15+0015EDDH V0203001N00261004201CN0112651N1+00601+00601999999ADDGF107991999999999999999999MA1102711999999REMMET078METAR EDDH 070250Z 30005KT 9999 FEW005 SCT014 BKN018 06/06 Q1027 BECMG BKN005;
0117101470999992013010703204+53633+009983FM-15+0015EDDH V0202901N003110018019N0112651N1+00601+00601999999ADDGF107991999999999999999999MA1102711999999REMMET064METAR EDDH 070320Z 29006KT 9999 BKN006 BKN015 06/06 Q1027 NOSIG;
0117101470999992013010703504+53633+009983FM-15+0015EDDH V0202801N002610018019N0112651N1+00601+00601999999ADDGF107991999999999999999999MA1102711999999REMMET064METAR EDDH 070350Z 28005KT 9999 FEW004 BKN006 06/06 Q1027 NOSIG;
0117101470999992013010704204+53633+009983FM-15+0015EDDH V0202801N002610009019N0112651N1+00601+00601999999ADDGF107991999999999999999999MA1102611999999REMMET064METAR EDDH 070420Z 28005KT 9999 BKN003 BKN005 06/06 Q1026 NOSIG;
0117101470999992013010704504+53633+009983FM-15+0015EDDH V0202801N003110009019N0112651N1+00601+00601999999ADDGF107991999999999999999999MA1102711999999REMMET064METAR EDDH 070450Z 28006KT 9999 BKN003 BKN005 06/06 Q1027 NOSIG;
0127101470999992013010705204+53633+009983FM-15+0015EDDH V0202801N003110012019N0070001N1+00601+00601999999ADDGF107991999999999999999999MA1102711999999MW1511REMMET068METAR EDDH 070520Z 28006KT 7000 -DZ SCT003 BKN004 06/06 Q1027 NOSIG;
0127101470999992013010705504+53633+009983FM-15+0015EDDH V0202701N001510012019N0070001N1+00601+00601999999ADDGF107991999999999999999999MA1102711999999MW1511REMMET068METAR EDDH 070550Z 27003KT 7000 -DZ SCT003 BKN004 06/06 Q1027 NOSIG;
0132101470999992013010706204+53633+009983FM-15+0015EDDH V0202701N002110033019N0070001N1+00501+00501999999ADDGF107991999999999999999999MA1102711999999REMMET079METAR EDDH 070620Z 27004KT 7000 SCT003 BKN011 05/05 Q1027 TEMPO 4000 BR BKN004;
0132101470999992013010706504+53633+009983FM-15+0015EDDH V0202701N002110033019N0070001N1+00501+00501999999ADDGF107991999999999999999999MA1102711999999REMMET079METAR EDDH 070650Z 27004KT 7000 SCT003 BKN011 05/05 Q1027 TEMPO 4000 BR BKN004;
0118101470999992013010707204+53633+009983FM-15+0015EDDH V0202601N002110009019N0070001N1+00501+00501999999ADDGF107991999999999999999999MA1102711999999REMMET065METAR EDDH 070720Z 26004KT 7000 BKN003 05/05 Q1027 TEMPO 4000 BR;
0118101470999992013010707504+53633+009983FM-15+0015EDDH V0202501N001510009019N0060001N1+00501+00501999999ADDGF107991999999999999999999MA1102611999999REMMET065METAR EDDH 070750Z 25003KT 6000 BKN003 05/05 Q1026 TEMPO 4000 BR;
0118101470999992013010708204+53633+009983FM-15+0015EDDH V0202501N001010015019N0060001N1+00501+00501999999ADDGF107991999999999999999999MA1102611999999REMMET065METAR EDDH 070820Z 25002KT 6000 BKN005 05/05 Q1026 TEMPO 4000 BR;
0132101470999992013010708504+53633+009983FM-15+0015EDDH V0202401N001510015019N0070001N1+00601+00601999999ADDGF107991999999999999999999MA1102711999999REMMET079METAR EDDH 070850Z 24003KT 7000 FEW003 BKN005 BKN013 06/06 Q1027 TEMPO 4000 BR;
0132101470999992013010709204+53633+009983FM-15+0015EDDH V0202601N001510015019N0070001N1+00601+00601999999ADDGF107991999999999999999999MA1102711999999REMMET079METAR EDDH 070920Z 26003KT 7000 FEW003 BKN005 BKN013 06/06 Q1027 TEMPO 4000 BR;
0132101470999992013010709504+53633+009983FM-15+0015EDDH V0202601N001510015019N0090001N1+00601+00601999999ADDGF107991999999999999999999MA1102711999999REMMET079METAR EDDH 070950Z 26003KT 9000 FEW003 BKN005 BKN013 06/06 Q1027 TEMPO 4000 BR;
0132101470999992013010710204+53633+009983FM-15+0015EDDH V0202401N002110018019N0090001N1+00601+00601999999ADDGF107991999999999999999999MA1102711999999REMMET079METAR EDDH 071020Z 24004KT 9000 FEW003 BKN006 BKN013 06/06 Q1027 TEMPO 4000 BR;
0132101470999992013010710504+53633+009983FM-15+0015EDDH V0202601N002110018019N0070001N1+00601+00601999999ADDGF107991999999999999999999MA1102711999999REMMET079METAR EDDH 071050Z 26004KT 7000 FEW003 BKN006 BKN011 06/06 Q1027 TEMPO 4000 BR;
0125101470999992013010711204+53633+009983FM-15+0015EDDH V0202301N002610027019N0070001N1+00601+00601999999ADDGF107991999999999999999999MA1102711999999REMMET072METAR EDDH 071120Z 23005KT 7000 FEW005 BKN009 06/06 Q1027 TEMPO 4000 BR;
0135101470999992013010711504+53633+009983FM-15+0015EDDH V0202401N002610027019N0070001N1+00601+00601999999ADDGF107991999999999999999999MA1102611999999MW1511REMMET076METAR EDDH 071150Z 24005KT 7000 -DZ SCT005 BKN009 06/06 Q1026 TEMPO 4000 BR;
0125101470999992013010712204+53633+009983FM-15+0015EDDH V0202401N002110027019N0080001N1+00601+00601999999ADDGF107991999999999999999999MA1102611999999REMMET072METAR EDDH 071220Z 24004KT 8000 SCT006 BKN009 06/06 Q1026 TEMPO 4000 BR;
0124101470999992013010712504+53633+009983FM-15+0015EDDH V0202201N003110033019N0090001N1+00601+00601999999ADDGF107991999999999999999999MA1102611999999REMMET071METAR EDDH 071250Z 22006KT 9000 SCT006 BKN011 06/06 Q1026 TEMPO BKN009;
0110101470999992013010713204+53633+009983FM-15+0015EDDH V0202401N003110027019N0090001N1+00601+00501999999ADDGF107991999999999999999999MA1102611999999REMMET057METAR EDDH 071320Z 24006KT 9000 BKN009 06/05 Q1026 NOSIG;
0117101470999992013010713504+53633+009983FM-15+0015EDDH V0202401N003110033019N0112651N1+00601+00501999999ADDGF107991999999999999999999MA1102611999999REMMET064METAR EDDH 071350Z 24006KT 9999 BKN011 06/05 Q1026 TEMPO BKN009;
0117101470999992013010714204+53633+009983FM-15+0015EDDH V0202401N001510030019N0112651N1+00601+00501999999ADDGF107991999999999999999999MA1102611999999REMMET064METAR EDDH 071420Z 24003KT 9999 BKN010 06/05 Q1026 TEMPO BKN009;
0117101470999992013010714504+53633+009983FM-15+0015EDDH V0202501N002110030019N0080001N1+00601+00501999999ADDGF107991999999999999999999MA1102611999999REMMET064METAR EDDH 071450Z 25004KT 8000 BKN010 06/05 Q1026 TEMPO BKN009;
0110101470999992013010715204+53633+009983FM-15+0015EDDH V0202101N001510027019N0080001N1+00601+00601999999ADDGF107991999999999999999999MA1102511999999REMMET057METAR EDDH 071520Z 21003KT 8000 BKN009 06/06 Q1025 NOSIG;
0110101470999992013010715504+53633+009983FM-15+0015EDDH V0202401N002110024019N0080001N1+00601+00601999999ADDGF107991999999999999999999MA1102611999999REMMET057METAR EDDH 071550Z 24004KT 8000 BKN008 06/06 Q1026 NOSIG;
0135101470999992013010716204+53633+009983FM-15+0015EDDH V0202101N002610009019N0060001N1+00601+00601999999ADDGF107991999999999999999999MA1102511999999MW1511REMMET076METAR EDDH 071620Z 21005KT 6000 -DZ BKN003 BKN007 06/06 Q1025 TEMPO 4500 BR;
0135101470999992013010716504+53633+009983FM-15+0015EDDH V0202101N002610009019N0060001N1+00601+00601999999ADDGF107991999999999999999999MA1102511999999MW1511REMMET076METAR EDDH 071650Z 21005KT 6000 -DZ BKN003 BKN005 06/06 Q1025 TEMPO 4500 BR;
0142101470999992013010717204+53633+009983FM-15+0015EDDH V0202201N003610015019N0060001N1+00601+00601999999ADDGF107991999999999999999999MA1102511999999MW1511REMMET083METAR EDDH 071720Z 22007KT 6000 -DZ FEW003 BKN005 06/06 Q1025 TEMPO 4500 BR BKN003;
0118101470999992013010717504+53633+009983FM-15+0015EDDH V0202101N003610012019N0060001N1+00701+00701999999ADDGF107991999999999999999999MA1102511999999REMMET065METAR EDDH 071750Z 21007KT 6000 BKN004 07/07 Q1025 TEMPO 4500 BR;
0118101470999992013010718204+53633+009983FM-15+0015EDDH V0202201N003110012019N0060001N1+00701+00701999999ADDGF107991999999999999999999MA1102511999999REMMET065METAR EDDH 071820Z 22006KT 6000 BKN004 07/07 Q1025 TEMPO 4500 BR;
0118101470999992013010718504+53633+009983FM-15+0015EDDH V0202201N003110012019N0070001N1+00701+00701999999ADDGF107991999999999999999999MA1102511999999REMMET065METAR EDDH 071850Z 22006KT 7000 BKN004 07/07 Q1025 TEMPO 4500 BR;
0124101470999992013010719204+53633+009983FM-15+0015EDDH V0202101N003110009019N0050001N1+00701+00701999999ADDGF107991999999999999999999MA1102401999999MW1101REMMET065METAR EDDH 071920Z 21006KT 5000 BR BKN003 07/07 Q1024 TEMPO 4500;
0124101470999992013010719504+53633+009983FM-15+0015EDDH V0202101N003610009019N0040001N1+00701+00701999999ADDGF107991999999999999999999MA1102401999999MW1101REMMET065METAR EDDH 071950Z 21007KT 4000 BR BKN003 07/07 Q1024 TEMPO 2500;
0124101470999992013010720204+53633+009983FM-15+0015EDDH V0202101N003610009019N0040001N1+00701+00701999999ADDGF107991999999999999999999MA1102401999999MW1101REMMET065METAR EDDH 072020Z 21007KT 4000 BR BKN003 07/07 Q1024 TEMPO 2500;
0124101470999992013010720504+53633+009983FM-15+0015EDDH V0202301N003610009019N0035001N1+00701+00701999999ADDGF107991999999999999999999MA1102401999999MW1101REMMET065METAR EDDH 072050Z 23007KT 3500 BR BKN003 07/07 Q1024 TEMPO 2500;
0124101470999992013010721204+53633+009983FM-15+0015EDDH V0202201N004110009019N0035001N1+00701+00701999999ADDGF107991999999999999999999MA1102401999999MW1101REMMET065METAR EDDH 072120Z 22008KT 3500 BR BKN003 07/07 Q1024 TEMPO 2500;
0134101470999992013010721504+53633+009983FM-15+0015EDDH V0202301N003110009019N0035001N1+00701+00701999999ADDGF107991999999999999999999MA1102401999999MW1101MW2511REMMET069METAR EDDH 072150Z 23006KT 3500 -DZ BR BKN003 07/07 Q1024 TEMPO 2500;
0124101470999992013010722204+53633+009983FM-15+0015EDDH V0202201N002610012019N0035001N1+00701+00701999999ADDGF107991999999999999999999MA1102401999999MW1101REMMET065METAR EDDH 072220Z 22005KT 3500 BR BKN004 07/07 Q1024 TEMPO 2500;
0134101470999992013010722504+53633+009983FM-15+0015EDDH V0202301N003110012019N0030001N1+00701+00701999999ADDGF107991999999999999999999MA1102301999999MW1101MW2511REMMET069METAR EDDH 072250Z 23006KT 3000 -DZ BR BKN004 07/07 Q1023 TEMPO 2500;
0134101470999992013010723204+53633+009983FM-15+0015EDDH V0202301N002610012019N0030001N1+00701+00701999999ADDGF107991999999999999999999MA1102301999999MW1101MW2511REMMET069METAR EDDH 072320Z 23005KT 3000 -DZ BR BKN004 07/07 Q1023 TEMPO 2500;
0134101470999992013010723504+53633+009983FM-15+0015EDDH V0202301N003610012019N0030001N1+00701+00701999999ADDGF107991999999999999999999MA1102301999999MW1101MW2511REMMET069METAR EDDH 072350Z 23007KT 3000 -DZ BR BKN004 07/07 Q1023 TEMPO 2500;
0134101470999992013010800204+53633+009983FM-15+0015EDDH V0202401N002110012019N0030001N1+00701+00701999999ADDGF107991999999999999999999MA1102201999999MW1101MW2511REMMET069METAR EDDH 080020Z 24004KT 3000 -DZ BR BKN004 07/07 Q1022 TEMPO 2500;
0134101470999992013010800504+53633+009983FM-15+0015EDDH V0202501N002110012019N0030001N1+00701+00701999999ADDGF107991999999999999999999MA1102201999999MW1101MW2511REMMET069METAR EDDH 080050Z 25004KT 3000 -DZ BR BKN004 07/07 Q1022 TEMPO 2500;
0124101470999992013010801204+53633+009983FM-15+0015EDDH V0202501N003110015019N0030001N1+00701+00701999999ADDGF107991999999999999999999MA1102201999999MW1101REMMET065METAR EDDH 080120Z 25006KT 3000 BR BKN005 07/07 Q1022 TEMPO 2500;
0124101470999992013010801504+53633+009983FM-15+0015EDDH V0202501N003110018019N0035001N1+00701+00701999999ADDGF107991999999999999999999MA1102201999999MW1101REMMET065METAR EDDH 080150Z 25006KT 3500 BR BKN006 07/07 Q1022 TEMPO 2500;
0128101470999992013010802204+53633+009983FM-15+0015EDDH V0202501N003110018019N0035001N1+00701+00701999999ADDGF107991999999999999999999MA1102201999999MW1101REMMET069METAR EDDH 080220Z 25006KT 3500 -DT BR BKN006 07/07 Q1022 TEMPO 2500;
0127101470999992013010802504+53633+009983FM-15+0015EDDH V0202501N003110018019N0035001N1+00701+00701999999ADDGF107991999999999999999999MA1102201999999MW1511REMMET068METAR EDDH 080250Z 25006KT 3500 -DZ R BKN006 07/07 Q1022 TEMPO 2500;
0134101470999992013010803204+53633+009983FM-15+0015EDDH V0202501N003110018019N0045001N1+00701+00701999999ADDGF107991999999999999999999MA1102101999999MW1101MW2511REMMET069METAR EDDH 080320Z 25006KT 4500 -DZ BR BKN006 07/07 Q1021 TEMPO 2500;
0141101470999992013010803504+53633+009983FM-15+0015EDDH V0202501N003610015019N0045001N1+00701+00701999999ADDGF107991999999999999999999MA1102101999999MW1101MW2511REMMET076METAR EDDH 080350Z 25007KT 4500 -DZ BR BKN005 07/07 Q1021 TEMPO 2500 BKN004;
0134101470999992013010804204+53633+009983FM-15+0015EDDH V0202501N003110012019N0045001N1+00701+00701999999ADDGF107991999999999999999999MA1102101999999MW1101MW2511REMMET069METAR EDDH 080420Z 25006KT 4500 -DZ BR BKN004 07/07 Q1021 TEMPO 2500;
0118101470999992013010804504+53633+009983FM-15+0015EDDH V0202501N004110012019N0060001N1+00701+00701999999ADDGF107991999999999999999999MA1102101999999REMMET065METAR EDDH 080450Z 25008KT 6000 BKN004 07/07 Q1021 TEMPO 2500 BR;
0134101470999992013010805204+53633+009983FM-15+0015EDDH V0202501N003110009019N0045001N1+00701+00701999999ADDGF107991999999999999999999MA1102101999999MW1101MW2511REMMET069METAR EDDH 080520Z 25006KT 4500 -DZ BR BKN003 07/07 Q1021 TEMPO 2500;
0134101470999992013010805504+53633+009983FM-15+0015EDDH V0202501N003110009019N0045001N1+00701+00701999999ADDGF107991999999999999999999MA1102101999999MW1101MW2511REMMET069METAR EDDH 080550Z 25006KT 4500 -DZ BR BKN003 07/07 Q1021 TEMPO 2500;
0141101470999992013010806204+53633+009983FM-15+0015EDDH V0202501N003610012019N0050001N1+00701+00701999999ADDGF108991999999999999999999MA1102101999999MW1101MW2511REMMET076METAR EDDH 080620Z 25007KT 5000 -DZ BR FEW003 OVC004 07/07 Q1021 TEMPO 2500;
0141101470999992013010806504+53633+009983FM-15+0015EDDH V0202501N003110012019N0042001N1+00701+00701999999ADDGF108991999999999999999999MA1102101999999MW1101MW2511REMMET076METAR EDDH 080650Z 25006KT 4200 -DZ BR FEW003 OVC004 07/07 Q1021 TEMPO 2500;
0133101470999992013010807204+53633+009983FM-15+0015EDDH V0202501N003110009019N0033001N1+00701+00701999999ADDGF108991999999999999999999MA1102101999999MW1101MW2531REMMET068METAR EDDH 080720Z 25006KT 3300 DZ BR OVC003 07/07 Q1021 TEMPO 2500;
0140101470999992013010807504+53633+009983FM-15+0015EDDH V0202501N003110012019N0030001N1+00701+00701999999ADDGF108991999999999999999999MA1102101999999MW1101MW2531REMMET075METAR EDDH 080750Z 25006KT 3000 DZ BR SCT003 OVC004 07/07 Q1021 TEMPO 2500;
0149101470999992013010808204+53633+009983FM-15+0015EDDH V0202501N003110012019N0032001N1+00701+00701999999ADDGF107991999999999999999999MA1102101999999MW1101MW2511REMMET084METAR EDDH 080820Z 25006KT 3200 -DZ BR SCT003 BKN004 07/07 Q1021 REDZ TEMPO 2500 DZ;
0140101470999992013010808504+53633+009983FM-15+0015EDDH V0202501N003610012019N0027001N1+00701+00701999999ADDGF107991999999999999999999MA1102101999999MW1101MW2531REMMET075METAR EDDH 080850Z 25007KT 2700 DZ BR SCT003 BKN004 07/07 Q1021 TEMPO 3500;
0149101470999992013010809204+53633+009983FM-15+0015EDDH V0202501N004110012019N0032001N1+00701+00701999999ADDGF107991999999999999999999MA1102101999999MW1101MW2511REMMET084METAR EDDH 080920Z 25008KT 3200 -DZ BR SCT003 BKN004 07/07 Q1021 REDZ TEMPO 2000 DZ;
0149101470999992013010809504+53633+009983FM-15+0015EDDH V0202501N003610012019N0040001N1+00701+00701999999ADDGF107991999999999999999999MA1102101999999MW1101MW2511REMMET084METAR EDDH 080950Z 25007KT 4000 -DZ BR SCT003 BKN004 07/07 Q1021 REDZ TEMPO 2000 DZ;
0149101470999992013010810204+53633+009983FM-15+0015EDDH V0202601N003610012019N0045001N1+00701+00701999999ADDGF107991999999999999999999MA1102101999999MW1101MW2511REMMET084METAR EDDH 081020Z 26007KT 4500 -DZ BR FEW003 BKN004 07/07 Q1021 REDZ TEMPO 2000 DZ;
0144101470999992013010810504+53633+009983FM-15+0015EDDH V0202501N003610012019N0035001N1+00701+00701999999ADDGF107991999999999999999999MA1102101999999MW1101MW2511REMMET079METAR EDDH 081050Z 25007KT 3500 -DZ BR FEW003 BKN004 07/07 Q1021 TEMPO 2000 DZ;
0144101470999992013010811204+53633+009983FM-15+0015EDDH V0202601N003610012019N0040001N1+00701+00701999999ADDGF107991999999999999999999MA1102101999999MW1101MW2511REMMET079METAR EDDH 081120Z 26007KT 4000 -DZ BR BKN004 BKN007 07/07 Q1021 TEMPO 2000 DZ;
0119101470999992013010812204+53633+009983FM-15+0015EDDH V0202601N003110012019N0060001N1+00701+00701999999ADDGF107991999999999999999999MA1102101999999REMMET066METAR EDDH 081220Z 26006KT 6000 BKN004 07/07 Q1021 TEMPO 4000 -DZ;
0125101470999992013010812504+53633+009983FM-15+0015EDDH V0202701N003610012019N0060001N1+00701+00701999999ADDGF107991999999999999999999MA1102101999999MW1511REMMET066METAR EDDH 081250Z 27007KT 6000 -DZ BKN004 07/07 Q1021 TEMPO 4000;
0119101470999992013010813204+53633+009983FM-15+0015EDDH V0202801N003610012019N0060001N1+00701+00701999999ADDGF107991999999999999999999MA1102101999999REMMET066METAR EDDH 081320Z 28007KT 6000 BKN004 07/07 Q1021 TEMPO 4000 -DZ;
0125101470999992013010813504+53633+009983FM-15+0015EDDH V0202701N003110012019N0035001N1+00701+00701999999ADDGF107991999999999999999999MA1102101999999MW1511REMMET066METAR EDDH 081350Z 27006KT 3500 -DZ BKN004 07/07 Q1021 TEMPO 2500;
0125101470999992013010814204+53633+009983FM-15+0015EDDH V0202701N002610012019N0035001N1+00801+00801999999ADDGF107991999999999999999999MA1102101999999MW1511REMMET066METAR EDDH 081420Z 27005KT 3500 -DZ BKN004 08/08 Q1021 TEMPO 2500;
0125101470999992013010814504+53633+009983FM-15+0015EDDH V0202701N002610012019N0040001N1+00801+00801999999ADDGF107991999999999999999999MA1102101999999MW1511REMMET066METAR EDDH 081450Z 27005KT 4000 -DZ BKN004 08/08 Q1021 TEMPO 2500;
0125101470999992013010815204+53633+009983FM-15+0015EDDH V0202701N002110012019N0035001N1+00801+00801999999ADDGF107991999999999999999999MA1102101999999MW1511REMMET066METAR EDDH 081520Z 27004KT 3500 -DZ BKN004 08/08 Q1021 TEMPO 2500;
0125101470999992013010815504+53633+009983FM-15+0015EDDH V0202701N002610012019N0045001N1+00801+00801999999ADDGF107991999999999999999999MA1102101999999MW1511REMMET066METAR EDDH 081550Z 27005KT 4500 -DZ BKN004 08/08 Q1021 TEMPO 2500;
0125101470999992013010816204+53633+009983FM-15+0015EDDH V0202701N002110012019N0045001N1+00801+00801999999ADDGF107991999999999999999999MA1102101999999MW1511REMMET066METAR EDDH 081620Z 27004KT 4500 -DZ BKN004 08/08 Q1021 TEMPO 2500;
0125101470999992013010817204+53633+009983FM-15+0015EDDH V0202801N002610012019N0050001N1+00801+00801999999ADDGF107991999999999999999999MA1102101999999MW1511REMMET066METAR EDDH 081720Z 28005KT 5000 -DZ BKN004 08/08 Q1021 TEMPO 3500;
0124101470999992013010817504+53633+009983FM-15+0015EDDH V0202901N002110009019N0032001N1+00801+00801999999ADDGF107991999999999999999999MA1102101999999MW1531REMMET065METAR EDDH 081750Z 29004KT 3200 DZ BKN003 08/08 Q1021 TEMPO 2500;
0130101470999992013010818504+53633+009983FM-15+0015EDDH V0202901N001510009019N0035001N1+00801+00801999999ADDGF107991999999999999999999MA1102101999999MW1511REMMET071METAR EDDH 081850Z 29003KT 3500 -DZ BKN003 08/08 Q1021 REDZ TEMPO 2500;
0130101470999992013010819204+53633+009983FM-15+0015EDDH V0203001N001010009019N0035001N1+00801+00801999999ADDGF107991999999999999999999MA1102101999999MW1511REMMET071METAR EDDH 081920Z 30002KT 3500 -DZ BKN003 08/08 Q1021 REDZ TEMPO 2500;
0134101470999992013010819504+53633+009983FM-15+0015EDDH V0202601N001010006019N0035001N1+00801+00801999999ADDGF107991999999999999999999MA1102101999999MW1101MW2511REMMET069METAR EDDH 081950Z 26002KT 3500 -DZ BR BKN002 08/08 Q1021 TEMPO 2500;
0134101470999992013010820204+53633+009983FM-15+0015EDDH V0202601N000510006019N0035001N1+00801+00801999999ADDGF107991999999999999999999MA1102101999999MW1101MW2511REMMET069METAR EDDH 082020Z 26001KT 3500 -DZ BR BKN002 08/08 Q1021 TEMPO 2500;
0134101470999992013010820504+53633+009983FM-15+0015EDDH V0202601N001010006019N0035001N1+00701+00701999999ADDGF107991999999999999999999MA1102101999999MW1101MW2511REMMET069METAR EDDH 082050Z 26002KT 3500 -DZ BR BKN002 07/07 Q1021 TEMPO 2500;
0134101470999992013010821204+53633+009983FM-15+0015EDDH V0202301N001510006019N0035001N1+00701+00701999999ADDGF107991999999999999999999MA1102101999999MW1101MW2511REMMET069METAR EDDH 082120Z 23003KT 3500 -DZ BR BKN002 07/07 Q1021 TEMPO 2500;
0124101470999992013010821504+53633+009983FM-15+0015EDDH V0202301N001010009019N0030001N1+00701+00701999999ADDGF107991999999999999999999MA1102101999999MW1101REMMET065METAR EDDH 082150Z 23002KT 3000 BR BKN003 07/07 Q1021 TEMPO 2500;
0124101470999992013010822204+53633+009983FM-15+0015EDDH V0202201N001510009019N0030001N1+00701+00701999999ADDGF107991999999999999999999MA1102101999999MW1101REMMET065METAR EDDH 082220Z 22003KT 3000 BR BKN003 07/07 Q1021 TEMPO 2500;
0124101470999992013010822504+53633+009983FM-15+0015EDDH V0202201N001510009019N0030001N1+00701+00701999999ADDGF107991999999999999999999MA1102101999999MW1101REMMET065METAR EDDH 082250Z 22003KT 3000 BR BKN003 07/07 Q1021 TEMPO 2500;
0124101470999992013010823204+53633+009983FM-15+0015EDDH V0202201N001510009019N0030001N1+00701+00701999999ADDGF107991999999999999999999MA1102101999999MW1101REMMET065METAR EDDH 082320Z 22003KT 3000 BR BKN003 07/07 Q1021 TEMPO 2500;
0124101470999992013010823504+53633+009983FM-15+0015EDDH V0202101N001510009019N0030001N1+00701+00701999999ADDGF107991999999999999999999MA1102001999999MW1101REMMET065METAR EDDH 082350Z 21003KT 3000 BR BKN003 07/07 Q1020 TEMPO 2500;
0124101470999992013010900204+53633+009983FM-15+0015EDDH V0202001N002110009019N0030001N1+00801+00801999999ADDGF107991999999999999999999MA1102001999999MW1101REMMET065METAR EDDH 090020Z 20004KT 3000 BR BKN003 08/08 Q1020 TEMPO 2500;
0124101470999992013010900504+53633+009983FM-15+0015EDDH V0202101N002110009019N0030001N1+00801+00801999999ADDGF107991999999999999999999MA1102001999999MW1101REMMET065METAR EDDH 090050Z 21004KT 3000 BR BKN003 08/08 Q1020 TEMPO 2500;
0124101470999992013010901204+53633+009983FM-15+0015EDDH V0202101N002110009019N0030001N1+00801+00801999999ADDGF107991999999999999999999MA1102001999999MW1101REMMET065METAR EDDH 090120Z 21004KT 3000 BR BKN003 08/08 Q1020 TEMPO 2500;
0124101470999992013010901504+53633+009983FM-15+0015EDDH V0202201N002610009019N0030001N1+00801+00801999999ADDGF107991999999999999999999MA1102001999999MW1101REMMET065METAR EDDH 090150Z 22005KT 3000 BR BKN003 08/08 Q1020 TEMPO 2500;
0124101470999992013010902204+53633+009983FM-15+0015EDDH V0202201N003110009019N0030001N1+00801+00801999999ADDGF107991999999999999999999MA1101901999999MW1101REMMET065METAR EDDH 090220Z 22006KT 3000 BR BKN003 08/08 Q1019 TEMPO 2500;
0134101470999992013010902504+53633+009983FM-15+0015EDDH V0202301N003110009019N0050001N1+00801+00801999999ADDGF107991999999999999999999MA1101901999999MW1101MW2511REMMET069METAR EDDH 090250Z 23006KT 5000 -DZ BR BKN003 08/08 Q1019 TEMPO 2500;
0134101470999992013010903204+53633+009983FM-15+0015EDDH V0202301N003610009019N0050001N1+00801+00801999999ADDGF107991999999999999999999MA1101901999999MW1101MW2511REMMET069METAR EDDH 090320Z 23007KT 5000 -DZ BR BKN003 08/08 Q1019 TEMPO 2500;
0124101470999992013010903504+53633+009983FM-15+0015EDDH V0202301N003110012019N0060001N1+00801+00801999999ADDGF107991999999999999999999MA1101901999999MW1631REMMET065METAR EDDH 090350Z 23006KT 6000 RA BKN004 08/08 Q1019 TEMPO 2500;
0130101470999992013010904204+53633+009983FM-15+0015EDDH V0202301N003110009019N0060001N1+00801+00801999999ADDGF107991999999999999999999MA1101801999999MW1611REMMET071METAR EDDH 090420Z 23006KT 6000 -RA BKN003 08/08 Q1018 RERA TEMPO 2500;
0137101470999992013010904504+53633+009983FM-15+0015EDDH V0202301N003610012019N0060001N1+00801+00801999999ADDGF107991999999999999999999MA1101801999999MW1611REMMET078METAR EDDH 090450Z 23007KT 6000 -RA FEW002 BKN004 08/08 Q1018 RERA TEMPO 2500;
0131101470999992013010905204+53633+009983FM-15+0015EDDH V0202301N003610012019N0060001N1+00801+00801999999ADDGF107991999999999999999999MA1101801999999MW1631REMMET072METAR EDDH 090520Z 23007KT 6000 RA FEW002 BKN004 08/08 Q1018 TEMPO 2500;
0157101470999992013010905504+53633+009983FM-15+0015EDDH V0202201N003610015019N0045001N1+00801+00801999999ADDGF107991999999999999999999MA1101801999999MW1511MW2611REMMET092METAR EDDH 090550Z 22007KT 4500 -RADZ SCT003 BKN005 08/08 Q1018 RERA TEMPO 2500 RADZ BKN003;
0152101470999992013010906204+53633+009983FM-15+0015EDDH V0202301N003610015019N0040001N1+00801+00801999999ADDGF107991999999999999999999MA1101691999999MW1511MW2611REMMET087METAR EDDH 090620Z 23007KT 4000 -RADZ SCT003 BKN005 08/08 Q1017 TEMPO 2500 RADZ BKN003;
0152101470999992013010906504+53633+009983FM-15+0015EDDH V0202101N003610015019N0045001N1+00801+00801999999ADDGF107991999999999999999999MA1101691999999MW1511MW2611REMMET087METAR EDDH 090650Z 21007KT 4500 -RADZ SCT003 BKN005 08/08 Q1017 TEMPO 2500 RADZ BKN003;
0144101470999992013010907204+53633+009983FM-15+0015EDDH V0202201N004610015019N0048001N1+00801+00801999999ADDGF107991999999999999999999MA1101691999999MW1511REMMET085METAR EDDH 090720Z 22009KT 4800 -DZ SCT003 BKN005 08/08 Q1017 TEMPO 2500 RADZ BKN003;
0152101470999992013010907504+53633+009983FM-15+0015EDDH V0202201N004110015019N0046001N1+00701+00701999999ADDGF107991999999999999999999MA1101591999999MW1511MW2611REMMET087METAR EDDH 090750Z 22008KT 4600 -RADZ SCT003 BKN005 07/07 Q1016 TEMPO 2500 RADZ BKN003;
0146101470999992013010908204+53633+009983FM-15+0015EDDH V0202201N004610015019N0049001N1+00701+00701999999ADDGF107991999999999999999999MA1101591999999MW1531MW2631REMMET081METAR EDDH 090820Z 22009KT 4900 RADZ SCT003 BKN005 07/07 Q1016 TEMPO 2500 BKN003;
0157101470999992013010908504+53633+009983FM-15+0015EDDH V0202201N004610015019N0048001N1+00701+00701999999ADDGF107991999999999999999999MA1101591999999MW1511MW2611REMMET092METAR EDDH 090850Z 22009KT 4800 -RADZ SCT003 BKN005 07/07 Q1016 RERA TEMPO 2500 RADZ BKN003;
0146101470999992013010909204+53633+009983FM-15+0015EDDH V0202301N004610018019N0048001N1+00701+00701999999ADDGF107991999999999999999999MA1101591999999MW1531MW2631REMMET081METAR EDDH 090920Z 23009KT 4800 RADZ SCT004 BKN006 07/07 Q1016 TEMPO 2500 BKN004;
0146101470999992013010909504+53633+009983FM-15+0015EDDH V0202301N005110018019N0048001N1+00701+00701999999ADDGF107991999999999999999999MA1101591999999MW1531MW2631REMMET081METAR EDDH 090950Z 23010KT 4800 RADZ SCT004 BKN006 07/07 Q1016 TEMPO 2500 BKN004;
0146101470999992013010910204+53633+009983FM-15+0015EDDH V0202301N005110018019N0046001N1+00701+00701999999ADDGF107991999999999999999999MA1101491999999MW1531MW2631REMMET081METAR EDDH 091020Z 23010KT 4600 RADZ SCT004 BKN006 07/07 Q1015 TEMPO 2500 BKN004;
0146101470999992013010910504+53633+009983FM-15+0015EDDH V0202301N005710018019N0046001N1+00701+00701999999ADDGF107991999999999999999999MA1101491999999MW1531MW2631REMMET081METAR EDDH 091050Z 23011KT 4600 RADZ SCT004 BKN006 07/07 Q1015 TEMPO 2500 BKN004;
0146101470999992013010911204+53633+009983FM-15+0015EDDH V0202301N005710015019N0048001N1+00701+00701999999ADDGF107991999999999999999999MA1101391999999MW1531MW2631REMMET081METAR EDDH 091120Z 23011KT 4800 RADZ FEW003 BKN005 07/07 Q1014 TEMPO 2500 BKN004;
0138101470999992013010911504+53633+009983FM-15+0015EDDH V0202401N004610015019N0060001N1+00701+00701999999ADDGF107991999999999999999999MA1101391999999MW1631REMMET079METAR EDDH 091150Z 24009KT 6000 RA FEW003 BKN005 07/07 Q1014 TEMPO 4000 BKN003;
0138101470999992013010912204+53633+009983FM-15+0015EDDH V0202401N004610015019N0060001N1+00701+00701999999ADDGF107991999999999999999999MA1101291999999MW1631REMMET079METAR EDDH 091220Z 24009KT 6000 RA FEW003 BKN005 07/07 Q1013 TEMPO 4000 BKN003;
0138101470999992013010912504+53633+009983FM-15+0015EDDH V0202401N004110015019N0070001N1+00701+00701999999ADDGF107991999999999999999999MA1101291999999MW1631REMMET079METAR EDDH 091250Z 24008KT 7000 RA FEW003 BKN005 07/07 Q1013 TEMPO 4000 BKN003;
0138101470999992013010913204+53633+009983FM-15+0015EDDH V0202401N004110015019N0070001N1+00701+00701999999ADDGF107991999999999999999999MA1101291999999MW1631REMMET079METAR EDDH 091320Z 24008KT 7000 RA SCT004 BKN005 07/07 Q1013 TEMPO 4000 BKN003;
0141101470999992013010913504+53633+009983FM-15+0015EDDH V0202501N004610015019N0080001N1+00701+00701999999ADDGF107991999999999999999999MA1101191999999MW1631REMMET082METAR EDDH 091350Z 25009KT 8000 RA SCT004 BKN005 07/07 Q1012 BECMG 31010KT BKN004;
0140101470999992013010914204+53633+009983FM-15+0015EDDH V0202701N005110012019N0080001N1+00701+00701999999ADDGF107991999999999999999999MA1101191999999MW1611REMMET081METAR EDDH 091420Z 27010KT 8000 -RA SCT003 BKN004 07/07 Q1012 RERA BECMG 31010KT;
0133101470999992013010914504+53633+009983FM-15+0015EDDH V0202901N005710009019N0040001N1+00701+00701999999ADDGF107991999999999999999999MA1101291999999MW1511MW2611REMMET068METAR EDDH 091450Z 29011KT 4000 -RADZ BKN003 07/07 Q1013 BECMG 9999;
0117101470999992013010915204+53633+009983FM-15+0015EDDH V0203001N005110015019N0080001N1+00701+00701999999ADDGF107991999999999999999999MA1101291999999REMMET064METAR EDDH 091520Z 30010KT 8000 FEW004 BKN005 07/07 Q1013 NOSIG;
0110101470999992013010915504+53633+009983FM-15+0015EDDH V0203001N005110021019N0090001N1+00701+00701999999ADDGF107991999999999999999999MA1101291999999REMMET057METAR EDDH 091550Z 30010KT 9000 BKN007 07/07 Q1013 NOSIG;
0117101470999992013010916204+53633+009983FM-15+0015EDDH V0203001N005110021019N0112651N1+00701+00701999999ADDGF107991999999999999999999MA1101191999999REMMET064METAR EDDH 091620Z 30010KT 9999 BKN007 BKN040 07/07 Q1012 NOSIG;
0117101470999992013010916504+53633+009983FM-15+0015EDDH V0202901N004110135019N0112651N1+00701+00701999999ADDGF107991999999999999999999MA1101191999999REMMET064METAR EDDH 091650Z 29008KT 9999 SCT007 BKN045 07/07 Q1012 NOSIG;
0117101470999992013010917204+53633+009983FM-15+0015EDDH V0202901N005112200019N0112651N1+00601+00601999999ADDGF104991999999999999999999MA1101191999999REMMET064METAR EDDH 091720Z 29010KT 9999 SCT007 SCT050 06/06 Q1012 NOSIG;
0124101470999992013010917504+53633+009983FM-15+0015EDDH V0203001N005110030019N0112651N1+00601+00601999999ADDGF107991999999999999999999MA1101191999999REMMET071METAR EDDH 091750Z 30010KT 9999 SCT007 BKN010 06/06 Q1012 TEMPO BKN007;
0124101470999992013010918204+53633+009983FM-15+0015EDDH V0203001N005110033019N0112651N1+00601+00501999999ADDGF107991999999999999999999MA1101291999999REMMET071METAR EDDH 091820Z 30010KT 9999 FEW007 BKN011 06/05 Q1013 TEMPO BKN007;
0124101470999992013010918504+53633+009983FM-15+0015EDDH V0202901N004110030019N0112651N1+00601+00601999999ADDGF107991999999999999999999MA1101191999999REMMET071METAR EDDH 091850Z 29008KT 9999 FEW008 BKN010 06/06 Q1012 TEMPO BKN008;
0124101470999992013010919204+53633+009983FM-15+0015EDDH V0202901N004610033019N0112651N1+00601+00501999999ADDGF107991999999999999999999MA1101191999999REMMET071METAR EDDH 091920Z 29009KT 9999 FEW008 BKN011 BKN025 06/05 Q1012 NOSIG;
0117101470999992013010919504+53633+009983FM-15+0015EDDH V0202901N004110066019N0112651N1+00601+00501999999ADDGF107991999999999999999999MA1101191999999REMMET064METAR EDDH 091950Z 29008KT 9999 FEW012 BKN022 06/05 Q1012 NOSIG;
0136101470999992013010920204+53633+009983FM-15+0015EDDH V0202801N004110036019N0112651N1+00601+00501999999ADDGF107991999999999999999999MA1101191999999MW1801REMMET077METAR EDDH 092020Z 28008KT 9999 -SHRA SCT008 BKN012 06/05 Q1012 TEMPO BKN008;
0142101470999992013010920504+53633+009983FM-15+0015EDDH V0202901N00571003901CN0112651N1+00601+00501999999ADDGF107991999999999999999999MA1101191999999MW1161REMMET083METAR EDDH 092050Z 29011KT 9999 VCSH FEW008 SCT013 BKN018 06/05 Q1012 TEMPO BKN008;
0135101470999992013010921204+53633+009983FM-15+0015EDDH V0202801N004110036019N0112651N1+00601+00601999999ADDGF107991999999999999999999MA1101191999999MW1161REMMET076METAR EDDH 092120Z 28008KT 9999 VCSH SCT008 BKN012 06/06 Q1012 TEMPO BKN008;
0124101470999992013010921504+53633+009983FM-15+0015EDDH V0203101N005710057019N0112651N1+00601+00501999999ADDGF107991999999999999999999MA1101191999999REMMET071METAR EDDH 092150Z 31011KT 9999 FEW011 BKN019 06/05 Q1012 TEMPO BKN013;
