0127101560999992013010110204+53803+010699FM-15+0016EDHL V0202101N005110021019N0080001N1+00801+00701999999ADDGF107991999999999999999999MA1099901999999MW1611REMMET068METAR EDHL 011020Z 21010KT 8000 -RA BKN007 BKN011 08/07 Q0999 RMK A;
0127101560999992013010110504+53803+010699FM-15+0016EDHL V0202201N006210021019N0080001N1+00801+00701999999ADDGF107991999999999999999999MA1099901999999MW1611REMMET068METAR EDHL 011050Z 22012KT 8000 -RA BKN007 BKN010 08/07 Q0999 RMK B;
0127101560999992013010111204+53803+010699FM-15+0016EDHL V0202201N006210018019N0050001N1+00801+00701999999ADDGF107991999999999999999999MA1099901999999MW1611REMMET068METAR EDHL 011120Z 22012KT 5000 -RA BKN006 BKN010 08/07 Q0999 RMK C;
0127101560999992013010111504+53803+010699FM-15+0016EDHL V0202301N005710021019N0070001N1+00801+00701999999ADDGF107991999999999999999999MA1099901999999MW1611REMMET068METAR EDHL 011150Z 23011KT 7000 -RA BKN007 BKN012 08/07 Q0999 RMK D;
0127101560999992013010112204+53803+010699FM-15+0016EDHL V0202801N004610024019N0070001N1+00701+00701999999ADDGF107991999999999999999999MA1099901999999MW1611REMMET068METAR EDHL 011220Z 28009KT 7000 -RA BKN008 BKN025 07/07 Q0999 RMK E;
0127101560999992013010112504+53803+010699FM-15+0016EDHL V0202801N002110099019N0090001N1+00701+00601999999ADDGF107991999999999999999999MA1100001999999MW1611REMMET068METAR EDHL 011250Z 28004KT 9000 -RA SCT010 BKN033 07/06 Q1000 RMK F;
0127101560999992013010113204+53803+010699FM-15+0016EDHL V0202501N002110096019N0090001N1+00701+00701999999ADDGF107991999999999999999999MA1100001999999MW1611REMMET068METAR EDHL 011320Z 25004KT 9000 -RA FEW010 BKN032 07/07 Q1000 RMK G;
0120101560999992013010113504+53803+010699FM-15+0016EDHL V0202501N003110090019N0090001N1+00701+00701999999ADDGF107991999999999999999999MA1100001999999MW1611REMMET061METAR EDHL 011350Z 25006KT 9000 -RA BKN030 07/07 Q1000 RMK H;
0127101560999992013010114204+53803+010699FM-15+0016EDHL V0202601N003110108019N0090001N1+00701+00601999999ADDGF107991999999999999999999MA1100101999999MW1611REMMET068METAR EDHL 011420Z 26006KT 9000 -RA FEW010 BKN036 07/06 Q1001 RMK I;
0127101560999992013010114504+53803+010699FM-15+0016EDHL V0202701N002610108019N0090001N1+00701+00601999999ADDGF107991999999999999999999MA1100101999999MW1611REMMET068METAR EDHL 011450Z 27005KT 9000 -RA SCT008 BKN036 07/06 Q1001 RMK J;
0127101560999992013010115204+53803+010699FM-15+0016EDHL V0202701N002610120019N0080001N1+00601+00501999999ADDGF107991999999999999999999MA1100101999999MW1611REMMET068METAR EDHL 011520Z 27005KT 8000 -RA FEW010 BKN040 06/05 Q1001 RMK K;
0125101560999992013010116204+53803+010699FM-15+0016EDHL V0202701N003110036019N0112651N1+00601+00501999999ADDGF107991999999999999999999MA1100201999999REMMET072METAR EDHL 011620Z 27006KT 230V290 9999 BKN012 BKN040 06/05 Q1002 RMK L;
0110101560999992013010206204+53803+010699FM-15+0016EDHL V0202601N006212200019N0112651N1+00401+00201999999ADDGF102991999999999999999999MA1101021999999REMMET057METAR EDHL 020620Z 26012KT 9999 FEW038 04/02 Q1010 RMK A;
0110101560999992013010206504+53803+010699FM-15+0016EDHL V0202501N004112200019N0112651N1+00401+00201999999ADDGF102991999999999999999999MA1101081999999REMMET057METAR EDHL 020650Z 25008KT 9999 FEW013 04/02 Q1011 RMK B;
0110101560999992013010207204+53803+010699FM-15+0016EDHL V0202601N006212200019N0112651N1+00401+00201999999ADDGF102991999999999999999999MA1101191999999REMMET057METAR EDHL 020720Z 26012KT 9999 FEW013 04/02 Q1012 RMK C;
0117101560999992013010207504+53803+010699FM-15+0016EDHL V0202601N005712200019N0112651N1+00401+00201999999ADDGF104991999999999999999999MA1101191999999REMMET064METAR EDHL 020750Z 26011KT 9999 FEW012 SCT036 04/02 Q1012 RMK D;
0110101560999992013010208204+53803+010699FM-15+0016EDHL V0202601N005712200019N0112651N1+00401+00301999999ADDGF104991999999999999999999MA1101291999999REMMET057METAR EDHL 020820Z 26011KT 9999 SCT027 04/03 Q1013 RMK E;
0110101560999992013010208504+53803+010699FM-15+0016EDHL V0202601N006212200019N0112651N1+00401+00301999999ADDGF104991999999999999999999MA1101291999999REMMET057METAR EDHL 020850Z 26012KT 9999 SCT031 04/03 Q1013 RMK F;
0118101560999992013010209204+53803+010699FM-15+0016EDHL V0202701N004612200019N0112651N1+00501+00301999999ADDGF104991999999999999999999MA1101391999999REMMET065METAR EDHL 020920Z 27009KT 230V310 9999 SCT026 05/03 Q1014 RMK G;
0110101560999992013010209504+53803+010699FM-15+0016EDHL V0202701N005112200019N0112651N1+00501+00301999999ADDGF104991999999999999999999MA1101491999999REMMET057METAR EDHL 020950Z 27010KT 9999 SCT040 05/03 Q1015 RMK H;
0117101560999992013010210204+53803+010699FM-15+0016EDHL V0202701N005712200019N0112651N1+00601+00401999999ADDGF104991999999999999999999MA1101491999999REMMET064METAR EDHL 021020Z 27011KT 9999 FEW011 SCT040 06/04 Q1015 RMK J;
0110101560999992013010210504+53803+010699FM-15+0016EDHL V0202701N005112200019N0112651N1+00601+00401999999ADDGF104991999999999999999999MA1101591999999REMMET057METAR EDHL 021050Z 27010KT 9999 SCT011 06/04 Q1016 RMK K;
0110101560999992013010211204+53803+010699FM-15+0016EDHL V0202701N006212200019N0112651N1+00701+00401999999ADDGF104991999999999999999999MA1101591999999REMMET057METAR EDHL 021120Z 27012KT 9999 SCT008 07/04 Q1016 RMK L;
0110101560999992013010211504+53803+010699FM-15+0016EDHL V0202801N005112200019N0112651N1+00701+00401999999ADDGF104991999999999999999999MA1101591999999REMMET057METAR EDHL 021150Z 28010KT 9999 SCT014 07/04 Q1016 RMK M;
0110101560999992013010212204+53803+010699FM-15+0016EDHL V0202701N006712200019N0112651N1+00701+00401999999ADDGF104991999999999999999999MA1101591999999REMMET057METAR EDHL 021220Z 27013KT 9999 SCT012 07/04 Q1016 RMK N;
0110101560999992013010212504+53803+010699FM-15+0016EDHL V0202701N005112200019N0112651N1+00701+00401999999ADDGF104991999999999999999999MA1101691999999REMMET057METAR EDHL 021250Z 27010KT 9999 SCT012 07/04 Q1017 RMK O;
0110101560999992013010213204+53803+010699FM-15+0016EDHL V0202701N005110045019N0112651N1+00701+00401999999ADDGF107991999999999999999999MA1101691999999REMMET057METAR EDHL 021320Z 27010KT 9999 BKN015 07/04 Q1017 RMK R;
0110101560999992013010213504+53803+010699FM-15+0016EDHL V0202701N007210045019N0112651N1+00601+00401999999ADDGF107991999999999999999999MA1101691999999REMMET057METAR EDHL 021350Z 27014KT 9999 BKN015 06/04 Q1017 RMK S;
0117101560999992013010214204+53803+010699FM-15+0016EDHL V0202701N005710102019N0112651N1+00601+00401999999ADDGF107991999999999999999999MA1101801999999REMMET064METAR EDHL 021420Z 27011KT 9999 SCT016 BKN034 06/04 Q1018 RMK T;
0117101560999992013010214504+53803+010699FM-15+0016EDHL V0202701N005110108019N0112651N1+00601+00401999999ADDGF107991999999999999999999MA1101801999999REMMET064METAR EDHL 021450Z 27010KT 9999 SCT015 BKN036 06/04 Q1018 RMK U;
0117101560999992013010215204+53803+010699FM-15+0016EDHL V0202601N006210114019N0112651N1+00601+00301999999ADDGF107991999999999999999999MA1101901999999REMMET064METAR EDHL 021520Z 26012KT 9999 SCT017 BKN038 06/03 Q1019 RMK V;
0117101560999992013010215504+53803+010699FM-15+0016EDHL V0202701N006710105019N0112651N1+00601+00301999999ADDGF107991999999999999999999MA1101901999999REMMET064METAR EDHL 021550Z 27013KT 9999 SCT023 BKN035 06/03 Q1019 RMK W;
0117101560999992013010216204+53803+010699FM-15+0016EDHL V0202701N007210102019N0112651N1+00601+00401999999ADDGF107991999999999999999999MA1101901999999REMMET064METAR EDHL 021620Z 27014KT 9999 SCT022 BKN034 06/04 Q1019 RMK X;
0117101560999992013010216504+53803+010699FM-15+0016EDHL V0202701N005710126019N0112651N1+00601+00401999999ADDGF107991999999999999999999MA1102001999999REMMET064METAR EDHL 021650Z 27011KT 9999 SCT014 BKN042 06/04 Q1020 RMK Y;
0117101560999992013010217204+53803+010699FM-15+0016EDHL V0202601N006710120019N0112651N1+00601+00401999999ADDGF107991999999999999999999MA1102001999999REMMET064METAR EDHL 021720Z 26013KT 9999 SCT013 BKN040 06/04 Q1020 RMK Z;
0117101560999992013010217504+53803+010699FM-15+0016EDHL V0202601N005710114019N0112651N1+00601+00401999999ADDGF107991999999999999999999MA1102001999999REMMET064METAR EDHL 021750Z 26011KT 9999 SCT015 BKN038 06/04 Q1020 RMK A;
0117101560999992013010218504+53803+010699FM-15+0016EDHL V0202601N006210108019N0112651N1+00601+00401999999ADDGF107991999999999999999999MA1102101999999REMMET064METAR EDHL 021850Z 26012KT 9999 SCT016 BKN036 06/04 Q1021 RMK B;
0110101560999992013010305504+53803+010699FM-15+0016EDHL V0202501N008210021019N0112651N1+00701+00701999999ADDGF107991999999999999999999MA1101691999999REMMET057METAR EDHL 030550Z 25016KT 9999 BKN007 07/07 Q1017 RMK A;
0110101560999992013010306204+53803+010699FM-15+0016EDHL V0202601N008210015019N0060001N1+00701+00701999999ADDGF107991999999999999999999MA1101691999999REMMET057METAR EDHL 030620Z 26016KT 6000 BKN005 07/07 Q1017 RMK B;
0110101560999992013010307504+53803+010699FM-15+0016EDHL V0202601N007210015019N0060001N1+00801+00801999999ADDGF107991999999999999999999MA1101801999999REMMET057METAR EDHL 030750Z 26014KT 6000 BKN005 08/08 Q1018 RMK G;
0129101560999992013010308204+53803+010699FM-15+0016EDHL V0202701N007210015019N0025001N1+00801+00801999999ADDGF107991999999999999999999MA1101801999999MW1101MW2511REMMET064METAR EDHL 030820Z 27014KT 2500 -DZ BR BKN005 08/08 Q1018 RMK H;
0129101560999992013010308504+53803+010699FM-15+0016EDHL V0202701N007710015019N0030001N1+00801+00801999999ADDGF107991999999999999999999MA1101901999999MW1101MW2511REMMET064METAR EDHL 030850Z 27015KT 3000 -DZ BR BKN005 08/08 Q1019 RMK I;
0110101560999992013010309204+53803+010699FM-15+0016EDHL V0202701N007210018019N0060001N1+00801+00801999999ADDGF107991999999999999999999MA1101901999999REMMET057METAR EDHL 030920Z 27014KT 6000 BKN006 08/08 Q1019 RMK J;
0110101560999992013010309504+53803+010699FM-15+0016EDHL V0202701N007210018019N0060001N1+00801+00801999999ADDGF107991999999999999999999MA1101901999999REMMET057METAR EDHL 030950Z 27014KT 6000 BKN006 08/08 Q1019 RMK K;
0129101560999992013010310204+53803+010699FM-15+0016EDHL V0202701N007210015019N0020001N1+00801+00801999999ADDGF108991999999999999999999MA1101901999999MW1101MW2511REMMET064METAR EDHL 031020Z 27014KT 2000 -DZ BR OVC005 08/08 Q1019 RMK L;
0129101560999992013010310504+53803+010699FM-15+0016EDHL V0202701N006710015019N0025001N1+00801+00801999999ADDGF108991999999999999999999MA1102001999999MW1101MW2511REMMET064METAR EDHL 031050Z 27013KT 2500 -DZ BR OVC005 08/08 Q1020 RMK M;
0119101560999992013010311204+53803+010699FM-15+0016EDHL V0202701N006710015019N0025001N1+00801+00801999999ADDGF108991999999999999999999MA1102001999999MW1101REMMET060METAR EDHL 031120Z 27013KT 2500 BR OVC005 08/08 Q1020 RMK N;
0129101560999992013010311504+53803+010699FM-15+0016EDHL V0202701N006710015019N0025001N1+00901+00801999999ADDGF108991999999999999999999MA1102001999999MW1101MW2511REMMET064METAR EDHL 031150Z 27013KT 2500 -DZ BR OVC005 09/08 Q1020 RMK O;
0120101560999992013010312204+53803+010699FM-15+0016EDHL V0202701N006710018019N0070001N1+00901+00901999999ADDGF108991999999999999999999MA1102001999999MW1511REMMET061METAR EDHL 031220Z 27013KT 7000 -DZ OVC006 09/09 Q1020 RMK P;
0120101560999992013010312504+53803+010699FM-15+0016EDHL V0202801N007210018019N0060001N1+00901+00801999999ADDGF108991999999999999999999MA1102001999999MW1511REMMET061METAR EDHL 031250Z 28014KT 6000 -DZ OVC006 09/08 Q1020 RMK Q;
0120101560999992013010313204+53803+010699FM-15+0016EDHL V0202801N007710021019N0060001N1+00901+00801999999ADDGF107991999999999999999999MA1102001999999MW1511REMMET061METAR EDHL 031320Z 28015KT 6000 -DZ BKN007 09/08 Q1020 RMK R;
0110101560999992013010313504+53803+010699FM-15+0016EDHL V0202801N007710021019N0060001N1+00901+00801999999ADDGF107991999999999999999999MA1102001999999REMMET057METAR EDHL 031350Z 28015KT 6000 BKN007 09/08 Q1020 RMK S;
0110101560999992013010314204+53803+010699FM-15+0016EDHL V0202801N008210024019N0060001N1+00901+00801999999ADDGF107991999999999999999999MA1102101999999REMMET057METAR EDHL 031420Z 28016KT 6000 BKN008 09/08 Q1021 RMK T;
0110101560999992013010314504+53803+010699FM-15+0016EDHL V0202701N007210021019N0060001N1+00901+00801999999ADDGF107991999999999999999999MA1102101999999REMMET057METAR EDHL 031450Z 27014KT 6000 BKN007 09/08 Q1021 RMK U;
0117101560999992013010315204+53803+010699FM-15+0016EDHL V0202701N007710024019N0060001N1+00901+00801999999ADDGF107991999999999999999999MA1102101999999REMMET064METAR EDHL 031520Z 27015KT 6000 BKN008 BKN012 09/08 Q1021 RMK V;
0117101560999992013010315504+53803+010699FM-15+0016EDHL V0202701N006710039019N0070001N1+00901+00801999999ADDGF107991999999999999999999MA1102201999999REMMET064METAR EDHL 031550Z 27013KT 7000 BKN013 BKN035 09/08 Q1022 RMK W;
0110101560999992013010316204+53803+010699FM-15+0016EDHL V0202801N006210045019N0070001N1+00801+00701999999ADDGF107991999999999999999999MA1102201999999REMMET057METAR EDHL 031620Z 28012KT 7000 BKN015 08/07 Q1022 RMK X;
0117101560999992013010316504+53803+010699FM-15+0016EDHL V0202801N006710039019N0070001N1+00801+00601999999ADDGF107991999999999999999999MA1102301999999REMMET064METAR EDHL 031650Z 28013KT 7000 BKN013 BKN018 08/06 Q1023 RMK Y;
0110101560999992013010317204+53803+010699FM-15+0016EDHL V0202801N005710039019N0070001N1+00801+00601999999ADDGF107991999999999999999999MA1102301999999REMMET057METAR EDHL 031720Z 28011KT 7000 BKN013 08/06 Q1023 RMK Z;
0118101560999992013010317504+53803+010699FM-15+0016EDHL V0202801N005110045019N0070001N1+00801+00601999999ADDGF107991999999999999999999MA1102401999999REMMET065METAR EDHL 031750Z 28010KT 250V310 7000 BKN015 08/06 Q1024 RMK A;
0117101560999992013010318204+53803+010699FM-15+0016EDHL V0202901N005710042019N0070001N1+00801+00601999999ADDGF107991999999999999999999MA1102401999999REMMET064METAR EDHL 031820Z 29011KT 7000 BKN014 BKN022 08/06 Q1024 RMK B;
0110101560999992013010318504+53803+010699FM-15+0016EDHL V0202901N006210048019N0070001N1+00801+00501999999ADDGF107991999999999999999999MA1102511999999REMMET057METAR EDHL 031850Z 29012KT 7000 BKN016 08/05 Q1025 RMK C;
0110101560999992013010405204+53803+010699FM-15+0016EDHL V0202701N006710021019N0060001N1+00601+00501999999ADDGF107991999999999999999999MA1102611999999REMMET057METAR EDHL 040520Z 27013KT 6000 BKN007 06/05 Q1026 RMK A;
0110101560999992013010405504+53803+010699FM-15+0016EDHL V0202801N007710024019N0060001N1+00701+00601999999ADDGF107991999999999999999999MA1102611999999REMMET057METAR EDHL 040550Z 28015KT 6000 BKN008 07/06 Q1026 RMK B;
0110101560999992013010406204+53803+010699FM-15+0016EDHL V0202801N007710024019N0060001N1+00701+00601999999ADDGF107991999999999999999999MA1102711999999REMMET057METAR EDHL 040620Z 28015KT 6000 BKN008 07/06 Q1027 RMK C;
0110101560999992013010406504+53803+010699FM-15+0016EDHL V0202701N006710021019N0060001N1+00701+00601999999ADDGF107991999999999999999999MA1102711999999REMMET057METAR EDHL 040650Z 27013KT 6000 BKN007 07/06 Q1027 RMK D;
0119101560999992013010407204+53803+010699FM-15+0016EDHL V0202701N007210021019N0040001N1+00701+00601999999ADDGF108991999999999999999999MA1102711999999MW1101REMMET060METAR EDHL 040720Z 27014KT 4000 BR OVC007 07/06 Q1027 RMK E;
0110101560999992013010407504+53803+010699FM-15+0016EDHL V0202701N007210018019N0050001N1+00701+00701999999ADDGF107991999999999999999999MA1102611999999REMMET057METAR EDHL 040750Z 27014KT 5000 BKN006 07/07 Q1026 RMK F;
0110101560999992013010408204+53803+010699FM-15+0016EDHL V0202701N007210015019N0050001N1+00801+00701999999ADDGF108991999999999999999999MA1102611999999REMMET057METAR EDHL 040820Z 27014KT 5000 OVC005 08/07 Q1026 RMK G;
0110101560999992013010408504+53803+010699FM-15+0016EDHL V0202701N006710015019N0050001N1+00801+00701999999ADDGF108991999999999999999999MA1102611999999REMMET057METAR EDHL 040850Z 27013KT 5000 OVC005 08/07 Q1026 RMK H;
0129101560999992013010409204+53803+010699FM-15+0016EDHL V0202801N005710015019N0040001N1+00801+00701999999ADDGF108991999999999999999999MA1102611999999MW1101MW2611REMMET064METAR EDHL 040920Z 28011KT 4000 -RA BR OVC005 08/07 Q1026 RMK I;
0129101560999992013010409504+53803+010699FM-15+0016EDHL V0202601N005110012019N0040001N1+00801+00701999999ADDGF108991999999999999999999MA1102611999999MW1101MW2611REMMET064METAR EDHL 040950Z 26010KT 4000 -RA BR OVC004 08/07 Q1026 RMK J;
0129101560999992013010410204+53803+010699FM-15+0016EDHL V0202701N006710009019N0030001N1+00801+00801999999ADDGF108991999999999999999999MA1102611999999MW1101MW2611REMMET064METAR EDHL 041020Z 27013KT 3000 -RA BR OVC003 08/08 Q1026 RMK K;
0129101560999992013010410504+53803+010699FM-15+0016EDHL V0202701N007710009019N0025001N1+00801+00801999999ADDGF108991999999999999999999MA1102511999999MW1101MW2611REMMET064METAR EDHL 041050Z 27015KT 2500 -RA BR OVC003 08/08 Q1025 RMK L;
0129101560999992013010411204+53803+010699FM-15+0016EDHL V0202701N008210015019N0025001N1+00801+00801999999ADDGF108991999999999999999999MA1102511999999MW1101MW2611REMMET064METAR EDHL 041120Z 27016KT 2500 -RA BR OVC005 08/08 Q1025 RMK M;
0140101560999992013010411504+53803+010699FM-15+0016EDHL V0202801N009310015019N0030001N1+00801+00801999999ADDGF108991999999999999999999MA1102401999999MW1101MW2611OC101441REMMET067METAR EDHL 041150Z 28018G28KT 3000 -RA BR OVC005 08/08 Q1024 RMK N;
0119101560999992013010412204+53803+010699FM-15+0016EDHL V0202801N007710018019N0040001N1+00801+00801999999ADDGF108991999999999999999999MA1102401999999MW1101REMMET060METAR EDHL 041220Z 28015KT 4000 BR OVC006 08/08 Q1024 RMK O;
0119101560999992013010412504+53803+010699FM-15+0016EDHL V0202801N007710024019N0050001N1+00901+00801999999ADDGF108991999999999999999999MA1102401999999MW1101REMMET060METAR EDHL 041250Z 28015KT 5000 BR OVC008 09/08 Q1024 RMK P;
0120101560999992013010413204+53803+010699FM-15+0016EDHL V0202801N007210024019N0050001N1+00901+00801999999ADDGF108991999999999999999999MA1102401999999MW1611REMMET061METAR EDHL 041320Z 28014KT 5000 -RA OVC008 09/08 Q1024 RMK Q;
0120101560999992013010413504+53803+010699FM-15+0016EDHL V0202701N008210024019N0112651N1+00901+00801999999ADDGF108991999999999999999999MA1102401999999MW1611REMMET061METAR EDHL 041350Z 27016KT 9999 -RA OVC008 09/08 Q1024 RMK R;
0129101560999992013010414204+53803+010699FM-15+0016EDHL V0202801N008210027019N0040001N1+00901+00801999999ADDGF108991999999999999999999MA1102401999999MW1101MW2611REMMET064METAR EDHL 041420Z 28016KT 4000 -RA BR OVC009 09/08 Q1024 RMK S;
0129101560999992013010414504+53803+010699FM-15+0016EDHL V0202801N009310021019N0040001N1+00901+00801999999ADDGF108991999999999999999999MA1102401999999MW1101MW2611REMMET064METAR EDHL 041450Z 28018KT 4000 -RA BR OVC007 09/08 Q1024 RMK T;
0129101560999992013010415204+53803+010699FM-15+0016EDHL V0202801N008710021019N0040001N1+00901+00801999999ADDGF108991999999999999999999MA1102401999999MW1101MW2611REMMET064METAR EDHL 041520Z 28017KT 4000 -RA BR OVC007 09/08 Q1024 RMK U;
0119101560999992013010415504+53803+010699FM-15+0016EDHL V0202801N008210024019N0040001N1+00901+00801999999ADDGF108991999999999999999999MA1102401999999MW1631REMMET060METAR EDHL 041550Z 28016KT 4000 RA OVC008 09/08 Q1024 RMK V;
0119101560999992013010416204+53803+010699FM-15+0016EDHL V0202701N008210024019N0040001N1+00801+00801999999ADDGF107991999999999999999999MA1102301999999MW1631REMMET060METAR EDHL 041620Z 27016KT 4000 RA BKN008 08/08 Q1023 RMK W;
0110101560999992013010416504+53803+010699FM-15+0016EDHL V0202701N009310021019N0040001N1+00801+00801999999ADDGF108991999999999999999999MA1102301999999REMMET057METAR EDHL 041650Z 27018KT 4000 OVC007 08/08 Q1023 RMK X;
0120101560999992013010417204+53803+010699FM-15+0016EDHL V0202701N009810021019N0040001N1+00801+00801999999ADDGF108991999999999999999999MA1102301999999MW1611REMMET061METAR EDHL 041720Z 27019KT 4000 -RA OVC007 08/08 Q1023 RMK Y;
0119101560999992013010418204+53803+010699FM-15+0016EDHL V0202801N006710024019N0040001N1+00801+00801999999ADDGF108991999999999999999999MA1102401999999MW1631REMMET060METAR EDHL 041820Z 28013KT 4000 RA OVC008 08/08 Q1024 RMK Z;
0120101560999992013010418504+53803+010699FM-15+0016EDHL V0202901N005110024019N0050001N1+00801+00801999999ADDGF108991999999999999999999MA1102401999999MW1611REMMET061METAR EDHL 041850Z 29010KT 5000 -RA OVC008 08/08 Q1024 RMK A;
0110101560999992013010507204+53803+010699FM-15+0016EDHL V0203001N002610039019N0112651N1+00701+00701999999ADDGF107991999999999999999999MA1102711999999REMMET057METAR EDHL 050720Z 30005KT 9999 BKN013 07/07 Q1027 RMK A;
0118101560999992013010507504+53803+010699FM-15+0016EDHL V0202901N002610048019N0112651N1+00701+00701999999ADDGF107991999999999999999999MA1102711999999REMMET065METAR EDHL 050750Z 29005KT 260V330 9999 BKN016 07/07 Q1027 RMK B;
0110101560999992013010508204+53803+010699FM-15+0016EDHL V0202801N002110048019N0112651N1+00701+00701999999ADDGF107991999999999999999999MA1102811999999REMMET057METAR EDHL 050820Z 28004KT 9999 BKN016 07/07 Q1028 RMK C;
0118101560999992013010508504+53803+010699FM-15+0016EDHL V0203001N002110048019N0112651N1+00701+00701999999ADDGF107991999999999999999999MA1102811999999REMMET065METAR EDHL 050850Z 30004KT 270V330 9999 BKN016 07/07 Q1028 RMK E;
0110101560999992013010509204+53803+010699FM-15+0016EDHL V0202901N002110045019N0112651N1+00701+00701999999ADDGF107991999999999999999999MA1102811999999REMMET057METAR EDHL 050920Z 29004KT 9999 BKN015 07/07 Q1028 RMK F;
0110101560999992013010509504+53803+010699FM-15+0016EDHL V0202901N002610045019N0112651N1+00801+00601999999ADDGF107991999999999999999999MA1102811999999REMMET057METAR EDHL 050950Z 29005KT 9999 BKN015 08/06 Q1028 RMK G;
0125101560999992013010510204+53803+010699FM-15+0016EDHL V0203301N002110048019N0112651N1+00801+00601999999ADDGF107991999999999999999999MA1102911999999REMMET072METAR EDHL 051020Z 33004KT 290V360 9999 SCT012 BKN016 08/06 Q1029 RMK H;
0110101560999992013010510504+53803+010699FM-15+0016EDHL V0203201N002610045019N0112651N1+00801+00601999999ADDGF107991999999999999999999MA1102911999999REMMET057METAR EDHL 051050Z 32005KT 9999 BKN015 08/06 Q1029 RMK I;
0118101560999992013010511204+53803+010699FM-15+0016EDHL V0203101N002610045019N0112651N1+00801+00701999999ADDGF107991999999999999999999MA1102811999999REMMET065METAR EDHL 051120Z 31005KT 280V340 9999 BKN015 08/07 Q1028 RMK J;
0104101560999992013010511504+53803+010699FM-15+0016EDHL V0203101N002110045019N0112651N1+00801+00601999999ADDGF107991999999999999999999MA1102811999999REMMET051METAR EDHL 051150Z 31004KT 9999 BKN015 08/06 Q1028;
0110101560999992013010512204+53803+010699FM-15+0016EDHL V0203001N002110045019N0112651N1+00801+00701999999ADDGF107991999999999999999999MA1102811999999REMMET057METAR EDHL 051220Z 30004KT 9999 BKN015 08/07 Q1028 RMK L;
0118101560999992013010512504+53803+010699FM-15+0016EDHL V0203201N002610045019N0112651N1+00801+00601999999ADDGF107991999999999999999999MA1102911999999REMMET065METAR EDHL 051250Z 32005KT 290V350 9999 BKN015 08/06 Q1029 RMK M;
0110101560999992013010513204+53803+010699FM-15+0016EDHL V0203001N003110045019N0112651N1+00801+00601999999ADDGF107991999999999999999999MA1102911999999REMMET057METAR EDHL 051320Z 30006KT 9999 BKN015 08/06 Q1029 RMK N;
0117101560999992013010513504+53803+010699FM-15+0016EDHL V0203001N002610045019N0112651N1+00801+00601999999ADDGF107991999999999999999999MA1102911999999REMMET064METAR EDHL 051350Z 30005KT 9999 SCT011 BKN015 08/06 Q1029 RMK O;
0117101560999992013010515204+53803+010699FM-15+0016EDHL V0202801N002110045019N0112651N1+00801+00701999999ADDGF107991999999999999999999MA1102911999999REMMET064METAR EDHL 051520Z 28004KT 9999 SCT010 BKN015 08/07 Q1029 RMK P;
0110101560999992013010515504+53803+010699FM-15+0016EDHL V0202801N002110024019N0090001N1+00701+00701999999ADDGF107991999999999999999999MA1102911999999REMMET057METAR EDHL 051550Z 28004KT 9000 BKN008 07/07 Q1029 RMK Q;
0110101560999992013010516204+53803+010699FM-15+0016EDHL V0202701N002610018019N0080001N1+00701+00701999999ADDGF107991999999999999999999MA1102911999999REMMET057METAR EDHL 051620Z 27005KT 8000 BKN006 07/07 Q1029 RMK R;
0119101560999992013010516504+53803+010699FM-15+0016EDHL V0202801N002610018019N0070001N1+00701+00701999999ADDGF108991999999999999999999MA1102911999999MW1531REMMET060METAR EDHL 051650Z 28005KT 7000 DZ OVC006 07/07 Q1029 RMK S;
0120101560999992013010517204+53803+010699FM-15+0016EDHL V0202801N003110012019N0050001N1+00701+00701999999ADDGF107991999999999999999999MA1102911999999MW1511REMMET061METAR EDHL 051720Z 28006KT 5000 -DZ BKN004 07/07 Q1029 RMK T;
0127101560999992013010607204+53803+010699FM-15+0016EDHL V0202801N004610030019N0050001N1+00601+00601999999ADDGF107991999999999999999999MA1102301999999MW1511REMMET068METAR EDHL 060720Z 28009KT 5000 -DZ SCT007 BKN010 06/06 Q1023 RMK U;
0120101560999992013010607504+53803+010699FM-15+0016EDHL V0202801N003610021019N0050001N1+00601+00601999999ADDGF107991999999999999999999MA1102301999999MW1511REMMET061METAR EDHL 060750Z 28007KT 5000 -DZ BKN007 06/06 Q1023 RMK V;
0120101560999992013010608204+53803+010699FM-15+0016EDHL V0202901N004110024019N0050001N1+00701+00601999999ADDGF107991999999999999999999MA1102301999999MW1511REMMET061METAR EDHL 060820Z 29008KT 5000 -DZ BKN008 07/06 Q1023 RMK D;
0119101560999992013010608504+53803+010699FM-15+0016EDHL V0202801N003610018019N0040001N1+00701+00601999999ADDGF107991999999999999999999MA1102301999999MW1101REMMET060METAR EDHL 060850Z 28007KT 4000 BR BKN006 07/06 Q1023 RMK E;
0127101560999992013010609204+53803+010699FM-15+0016EDHL V0202901N004110018019N0040001N1+00701+00701999999ADDGF107991999999999999999999MA1102301999999MW1101REMMET068METAR EDHL 060920Z 29008KT 260V330 4000 BR BKN006 07/07 Q1023 RMK F;
0129101560999992013010609504+53803+010699FM-15+0016EDHL V0202801N004110012019N0025001N1+00701+00701999999ADDGF108991999999999999999999MA1102301999999MW1101MW2611REMMET064METAR EDHL 060950Z 28008KT 2500 -RA BR OVC004 07/07 Q1023 RMK G;
0128101560999992013010610204+53803+010699FM-15+0016EDHL V0202801N004610015019N0020001N1+00701+00701999999ADDGF107991999999999999999999MA1102301999999MW1511MW2611REMMET063METAR EDHL 061020Z 28009KT 2000 -RADZ BKN005 07/07 Q1023 RMK H;
0128101560999992013010610504+53803+010699FM-15+0016EDHL V0202901N004110015019N0025001N1+00701+00701999999ADDGF107991999999999999999999MA1102301999999MW1511MW2611REMMET063METAR EDHL 061050Z 29008KT 2500 -RADZ BKN005 07/07 Q1023 RMK I;
0136101560999992013010611204+53803+010699FM-15+0016EDHL V0202801N004110015019N0030001N1+00701+00701999999ADDGF107991999999999999999999MA1102201999999MW1101MW2611REMMET071METAR EDHL 061120Z 28008KT 3000 -RA BR BKN005 BKN026 07/07 Q1022 RMK J;
0128101560999992013010611504+53803+010699FM-15+0016EDHL V0202701N004610012019N0030001N1+00701+00701999999ADDGF107991999999999999999999MA1102201999999MW1511MW2611REMMET063METAR EDHL 061150Z 27009KT 3000 -RADZ BKN004 07/07 Q1022 RMK K;
0120101560999992013010612204+53803+010699FM-15+0016EDHL V0202801N004610012019N0030001N1+00701+00701999999ADDGF107991999999999999999999MA1102201999999MW1511REMMET061METAR EDHL 061220Z 28009KT 3000 -DZ BKN004 07/07 Q1022 RMK L;
0129101560999992013010612504+53803+010699FM-15+0016EDHL V0202901N005710012019N0025001N1+00701+00701999999ADDGF108991999999999999999999MA1102201999999MW1101MW2511REMMET064METAR EDHL 061250Z 29011KT 2500 -DZ BR OVC004 07/07 Q1022 RMK M;
0129101560999992013010613204+53803+010699FM-15+0016EDHL V0203001N005110009019N0030001N1+00701+00701999999ADDGF108991999999999999999999MA1102201999999MW1101MW2511REMMET064METAR EDHL 061320Z 30010KT 3000 -DZ BR OVC003 07/07 Q1022 RMK N;
0128101560999992013010613504+53803+010699FM-15+0016EDHL V0203001N005110009019N0060001N1+00701+00701999999ADDGF108991999999999999999999MA1102201999999MW1511REMMET069METAR EDHL 061350Z 30010KT 270V330 6000 -DZ OVC003 07/07 Q1022 RMK O;
0110101560999992013010614204+53803+010699FM-15+0016EDHL V0203001N004110018019N0070001N1+00801+00701999999ADDGF107991999999999999999999MA1102201999999REMMET057METAR EDHL 061420Z 30008KT 7000 BKN006 08/07 Q1022 RMK P;
0118101560999992013010614504+53803+010699FM-15+0016EDHL V0203001N004110018019N0070001N1+00801+00701999999ADDGF107991999999999999999999MA1102201999999REMMET065METAR EDHL 061450Z 30008KT 270V330 7000 BKN006 08/07 Q1022 RMK Q;
0120101560999992013010615204+53803+010699FM-15+0016EDHL V0203001N003610021019N0070001N1+00801+00701999999ADDGF107991999999999999999999MA1102201999999MW1511REMMET061METAR EDHL 061520Z 30007KT 7000 -DZ BKN007 08/07 Q1022 RMK R;
0110101560999992013010615504+53803+010699FM-15+0016EDHL V0203001N004610024019N0060001N1+00801+00701999999ADDGF107991999999999999999999MA1102301999999REMMET057METAR EDHL 061550Z 30009KT 6000 BKN008 08/07 Q1023 RMK S;
0128101560999992013010616204+53803+010699FM-15+0016EDHL V0203001N003110018019N0060001N1+00801+00701999999ADDGF107991999999999999999999MA1102301999999MW1511REMMET069METAR EDHL 061620Z 30006KT 260V320 6000 -DZ BKN006 08/07 Q1023 RMK T;
0128101560999992013010616504+53803+010699FM-15+0016EDHL V0203001N003610012019N0030001N1+00801+00701999999ADDGF107991999999999999999999MA1102301999999MW1101MW2531REMMET063METAR EDHL 061650Z 30007KT 3000 DZ BR BKN004 08/07 Q1023 RMK U;
0129101560999992013010617204+53803+010699FM-15+0016EDHL V0203001N004110009019N0040001N1+00701+00701999999ADDGF107991999999999999999999MA1102301999999MW1101MW2511REMMET064METAR EDHL 061720Z 30008KT 4000 -DZ BR BKN003 07/07 Q1023 RMK V;
0126101560999992013010705204+53803+010699FM-15+0016EDHL V0202701N001510024019N0040001N1+00501+00501999999ADDGF107991999999999999999999MA1102711999999MW1101REMMET067METAR EDHL 070520Z 27003KT 4000 BR SCT004 BKN008 05/05 Q1027 RMK A;
0126101560999992013010705504+53803+010699FM-15+0016EDHL V0203101N000510027019N0040001N1+00501+00501999999ADDGF107991999999999999999999MA1102711999999MW1101REMMET067METAR EDHL 070550Z 31001KT 4000 BR SCT003 BKN009 05/05 Q1027 RMK B;
0126101560999992013010706204+53803+010699FM-15+0016EDHL V0209999C000010030019N0045001N1+00501+00501999999ADDGF107991999999999999999999MA1102611999999MW1101REMMET067METAR EDHL 070620Z 00000KT 4500 BR SCT004 BKN010 05/05 Q1026 RMK C;
0126101560999992013010706504+53803+010699FM-15+0016EDHL V0209999V001010021019N0040001N1+00501+00501999999ADDGF107991999999999999999999MA1102711999999MW1101REMMET067METAR EDHL 070650Z VRB02KT 4000 BR SCT002 BKN007 05/05 Q1027 RMK D;
0126101560999992013010707204+53803+010699FM-15+0016EDHL V0209999V001010009019N0030001N1+00501+00501999999ADDGF108991999999999999999999MA1102711999999MW1101REMMET067METAR EDHL 070720Z VRB02KT 3000 BR BKN003 OVC006 05/05 Q1027 RMK E;
0126101560999992013010707504+53803+010699FM-15+0016EDHL V0202301N001010009019N0025001N1+00501+00501999999ADDGF108991999999999999999999MA1102711999999MW1101REMMET067METAR EDHL 070750Z 23002KT 2500 BR BKN003 OVC006 05/05 Q1027 RMK F;
0126101560999992013010708204+53803+010699FM-15+0016EDHL V0209999V001010009019N0020001N1+00501+00501999999ADDGF108991999999999999999999MA1102711999999MW1101REMMET067METAR EDHL 070820Z VRB02KT 2000 BR BKN003 OVC009 05/05 Q1027 RMK G;
0126101560999992013010708504+53803+010699FM-15+0016EDHL V0202201N001010012019N0030001N1+00501+00501999999ADDGF108991999999999999999999MA1102711999999MW1101REMMET067METAR EDHL 070850Z 22002KT 3000 BR BKN004 OVC011 05/05 Q1027 RMK H;
0126101560999992013010709204+53803+010699FM-15+0016EDHL V0202001N001510018019N0050001N1+00501+00501999999ADDGF108991999999999999999999MA1102711999999MW1101REMMET067METAR EDHL 070920Z 20003KT 5000 BR BKN006 OVC013 05/05 Q1027 RMK I;
0117101560999992013010709504+53803+010699FM-15+0016EDHL V0202501N002110012019N0060001N1+00501+00501999999ADDGF107991999999999999999999MA1102711999999REMMET064METAR EDHL 070950Z 25004KT 6000 BKN004 BKN014 05/05 Q1027 RMK J;
0117101560999992013010710204+53803+010699FM-15+0016EDHL V0202501N002610036019N0070001N1+00501+00501999999ADDGF107991999999999999999999MA1102711999999REMMET064METAR EDHL 071020Z 25005KT 7000 SCT007 BKN012 05/05 Q1027 RMK K;
0117101560999992013010710504+53803+010699FM-15+0016EDHL V0202601N003110039019N0070001N1+00501+00501999999ADDGF108991999999999999999999MA1102711999999REMMET064METAR EDHL 071050Z 26006KT 7000 SCT008 OVC013 05/05 Q1027 RMK L;
0117101560999992013010711204+53803+010699FM-15+0016EDHL V0202601N002610030019N0080001N1+00601+00501999999ADDGF108991999999999999999999MA1102711999999REMMET064METAR EDHL 071120Z 26005KT 8000 BKN010 OVC012 06/05 Q1027 RMK M;
0117101560999992013010711504+53803+010699FM-15+0016EDHL V0202501N002110021019N0070001N1+00601+00501999999ADDGF108991999999999999999999MA1102611999999REMMET064METAR EDHL 071150Z 25004KT 7000 BKN007 OVC012 06/05 Q1026 RMK N;
0110101560999992013010712204+53803+010699FM-15+0016EDHL V0202501N003110021019N0070001N1+00601+00501999999ADDGF107991999999999999999999MA1102611999999REMMET057METAR EDHL 071220Z 25006KT 7000 BKN007 06/05 Q1026 RMK O;
0110101560999992013010712504+53803+010699FM-15+0016EDHL V0202501N003110024019N0112651N1+00601+00501999999ADDGF107991999999999999999999MA1102611999999REMMET057METAR EDHL 071250Z 25006KT 9999 BKN008 06/05 Q1026 RMK P;
0110101560999992013010713204+53803+010699FM-15+0016EDHL V0202401N003110027019N0112651N1+00601+00501999999ADDGF107991999999999999999999MA1102611999999REMMET057METAR EDHL 071320Z 24006KT 9999 BKN009 06/05 Q1026 RMK Q;
0110101560999992013010713504+53803+010699FM-15+0016EDHL V0202401N002110024019N0112651N1+00601+00501999999ADDGF107991999999999999999999MA1102611999999REMMET057METAR EDHL 071350Z 24004KT 9999 BKN008 06/05 Q1026 RMK R;
0110101560999992013010714204+53803+010699FM-15+0016EDHL V0202601N002610021019N0112651N1+00601+00501999999ADDGF107991999999999999999999MA1102611999999REMMET057METAR EDHL 071420Z 26005KT 9999 BKN007 06/05 Q1026 RMK S;
0110101560999992013010714504+53803+010699FM-15+0016EDHL V0202501N002110027019N0112651N1+00501+00501999999ADDGF107991999999999999999999MA1102611999999REMMET057METAR EDHL 071450Z 25004KT 9999 BKN009 05/05 Q1026 RMK T;
0118101560999992013010715204+53803+010699FM-15+0016EDHL V0202101N002610024019N0112651N1+00601+00401999999ADDGF107991999999999999999999MA1102611999999REMMET065METAR EDHL 071520Z 21005KT 180V260 9999 BKN008 06/04 Q1026 RMK U;
0110101560999992013010715504+53803+010699FM-15+0016EDHL V0202201N001510024019N0112651N1+00501+00501999999ADDGF107991999999999999999999MA1102611999999REMMET057METAR EDHL 071550Z 22003KT 9999 BKN008 05/05 Q1026 RMK V;
0117101560999992013010716204+53803+010699FM-15+0016EDHL V0202101N001510033019N0112651N1+00501+00501999999ADDGF107991999999999999999999MA1102611999999REMMET064METAR EDHL 071620Z 21003KT 9999 BKN011 BKN021 05/05 Q1026 RMK W;
0078101560999992013010716504+53803+010699FM-15+0016EDHL V0201801N001519999999Y0099001N1+00501+00501999999ADDMA1102511999999REMMET051METAR EDHL 071650Z 18003KT CAVOK 05/05 Q1025 RMK X;
0110101560999992013010717204+53803+010699FM-15+0016EDHL V0201901N001510027019N0112651N1+00501+00501999999ADDGF107991999999999999999999MA1102511999999REMMET057METAR EDHL 071720Z 19003KT 9999 BKN009 05/05 Q1025 RMK Z;
0110101560999992013010717504+53803+010699FM-15+0016EDHL V0201601N002110027019N0112651N1+00501+00501999999ADDGF107991999999999999999999MA1102511999999REMMET057METAR EDHL 071750Z 16004KT 9999 BKN009 05/05 Q1025 RMK A;
0110101560999992013010718204+53803+010699FM-15+0016EDHL V0201401N001510018019N0070001N1+00501+00501999999ADDGF107991999999999999999999MA1102511999999REMMET057METAR EDHL 071820Z 14003KT 7000 BKN006 05/05 Q1025 RMK B;
0110101560999992013010718504+53803+010699FM-15+0016EDHL V0201701N002110018019N0060001N1+00501+00501999999ADDGF107991999999999999999999MA1102511999999REMMET057METAR EDHL 071850Z 17004KT 6000 BKN006 05/05 Q1025 RMK C;
0136101560999992013010806204+53803+010699FM-15+0016EDHL V0202501N003610009019N0050001N1+00601+00601999999ADDGF108991999999999999999999MA1102101999999MW1101MW2511REMMET071METAR EDHL 080620Z 25007KT 5000 -DZ BR BKN003 OVC008 06/06 Q1021 RMK A;
0129101560999992013010806504+53803+010699FM-15+0016EDHL V0202501N003610012019N0030001N1+00601+00601999999ADDGF107991999999999999999999MA1102001999999MW1101MW2611REMMET064METAR EDHL 080650Z 25007KT 3000 -RA BR BKN004 06/06 Q1020 RMK B;
0119101560999992013010807204+53803+010699FM-15+0016EDHL V0202601N004110012019N0020001N1+00601+00601999999ADDGF107991999999999999999999MA1102001999999MW1101REMMET060METAR EDHL 080720Z 26008KT 2000 BR BKN004 06/06 Q1020 RMK C;
0129101560999992013010807504+53803+010699FM-15+0016EDHL V0202601N004110015019N0020001N1+00601+00601999999ADDGF108991999999999999999999MA1102101999999MW1101MW2511REMMET064METAR EDHL 080750Z 26008KT 2000 -DZ BR OVC005 06/06 Q1021 RMK D;
0129101560999992013010808204+53803+010699FM-15+0016EDHL V0202501N003610015019N0020001N1+00601+00601999999ADDGF108991999999999999999999MA1102101999999MW1101MW2511REMMET064METAR EDHL 080820Z 25007KT 2000 -DZ BR OVC005 06/06 Q1021 RMK E;
0129101560999992013010808504+53803+010699FM-15+0016EDHL V0202601N004110015019N0020001N1+00601+00601999999ADDGF108991999999999999999999MA1102101999999MW1101MW2511REMMET064METAR EDHL 080850Z 26008KT 2000 -DZ BR OVC005 06/06 Q1021 RMK F;
0136101560999992013010809204+53803+010699FM-15+0016EDHL V0202501N004110012019N0030001N1+00701+00601999999ADDGF108991999999999999999999MA1102101999999MW1101MW2511REMMET071METAR EDHL 080920Z 25008KT 3000 -DZ BR BKN004 OVC007 07/06 Q1021 RMK G;
0129101560999992013010809504+53803+010699FM-15+0016EDHL V0202601N004110015019N0020001N1+00701+00601999999ADDGF108991999999999999999999MA1102101999999MW1101MW2511REMMET064METAR EDHL 080950Z 26008KT 2000 -DZ BR OVC005 07/06 Q1021 RMK H;
0136101560999992013010810204+53803+010699FM-15+0016EDHL V0202601N003610012019N0025001N1+00701+00701999999ADDGF108991999999999999999999MA1102101999999MW1101MW2511REMMET071METAR EDHL 081020Z 26007KT 2500 -DZ BR BKN004 OVC007 07/07 Q1021 RMK I;
0120101560999992013010810504+53803+010699FM-15+0016EDHL V0202601N004110018019N0060001N1+00701+00701999999ADDGF108991999999999999999999MA1102101999999MW1511REMMET061METAR EDHL 081050Z 26008KT 6000 -DZ OVC006 07/07 Q1021 RMK J;
0120101560999992013010811204+53803+010699FM-15+0016EDHL V0202601N004110018019N0060001N1+00701+00701999999ADDGF108991999999999999999999MA1102001999999MW1511REMMET061METAR EDHL 081120Z 26008KT 6000 -DZ OVC006 07/07 Q1020 RMK K;
0120101560999992013010812204+53803+010699FM-15+0016EDHL V0202701N003610015019N0060001N1+00701+00701999999ADDGF108991999999999999999999MA1102001999999MW1511REMMET061METAR EDHL 081220Z 27007KT 6000 -DZ OVC005 07/07 Q1020 RMK N;
0119101560999992013010812504+53803+010699FM-15+0016EDHL V0202701N003610015019N0040001N1+00701+00701999999ADDGF108991999999999999999999MA1102001999999MW1101REMMET060METAR EDHL 081250Z 27007KT 4000 BR OVC005 07/07 Q1020 RMK O;
0119101560999992013010813204+53803+010699FM-15+0016EDHL V0202801N003110012019N0040001N1+00701+00701999999ADDGF107991999999999999999999MA1102001999999MW1101REMMET060METAR EDHL 081320Z 28006KT 4000 BR BKN004 07/07 Q1020 RMK P;
0119101560999992013010813504+53803+010699FM-15+0016EDHL V0202801N003110015019N0040001N1+00701+00701999999ADDGF108991999999999999999999MA1102001999999MW1101REMMET060METAR EDHL 081350Z 28006KT 4000 BR OVC005 07/07 Q1020 RMK Q;
0119101560999992013010814204+53803+010699FM-15+0016EDHL V0202601N003610015019N0040001N1+00701+00701999999ADDGF108991999999999999999999MA1102001999999MW1101REMMET060METAR EDHL 081420Z 26007KT 4000 BR OVC005 07/07 Q1020 RMK R;
0119101560999992013010814504+53803+010699FM-15+0016EDHL V0202801N003110015019N0050001N1+00701+00701999999ADDGF108991999999999999999999MA1102101999999MW1101REMMET060METAR EDHL 081450Z 28006KT 5000 BR OVC005 07/07 Q1021 RMK S;
0110101560999992013010815204+53803+010699FM-15+0016EDHL V0202801N002610015019N0060001N1+00701+00701999999ADDGF108991999999999999999999MA1102101999999REMMET057METAR EDHL 081520Z 28005KT 6000 OVC005 07/07 Q1021 RMK T;
0119101560999992013010815504+53803+010699FM-15+0016EDHL V0202901N001510015019N0050001N1+00701+00701999999ADDGF107991999999999999999999MA1102101999999MW1101REMMET060METAR EDHL 081550Z 29003KT 5000 BR BKN005 07/07 Q1021 RMK U;
0119101560999992013010816204+53803+010699FM-15+0016EDHL V0202901N001010012019N0050001N1+00701+00701999999ADDGF107991999999999999999999MA1102101999999MW1101REMMET060METAR EDHL 081620Z 29002KT 5000 BR BKN004 07/07 Q1021 RMK V;
0119101560999992013010817204+53803+010699FM-15+0016EDHL V0202701N001010015019N0050001N1+00701+00701999999ADDGF108991999999999999999999MA1102101999999MW1101REMMET060METAR EDHL 081720Z 27002KT 5000 BR OVC005 07/07 Q1021 RMK W;
0119101560999992013010817504+53803+010699FM-15+0016EDHL V0202701N001010012019N0050001N1+00701+00701999999ADDGF108991999999999999999999MA1102101999999MW1101REMMET060METAR EDHL 081750Z 27002KT 5000 BR OVC004 07/07 Q1021 RMK X;
0113101560999992013010818204+53803+010699FM-15+0016EDHL V0202601N001510012019N0050001N1+00701+00701999999ADDGF108991999999999999999999MA1102101999999MW1101REMMET054METAR EDHL 081820Z 26003KT 5000 BR OVC004 07/07 Q1021;
0120101560999992013010905504+53803+010699FM-15+0016EDHL V0202001N003110018019N0060001N1+00701+00701999999ADDGF107991999999999999999999MA1101691999999MW1611REMMET061METAR EDHL 090550Z 20006KT 6000 -RA BKN006 07/07 Q1017 RMK A;
0129101560999992013010906204+53803+010699FM-15+0016EDHL V0202001N003110015019N0040001N1+00701+00701999999ADDGF107991999999999999999999MA1101691999999MW1101MW2611REMMET064METAR EDHL 090620Z 20006KT 4000 -RA BR BKN005 07/07 Q1017 RMK B;
0119101560999992013010906504+53803+010699FM-15+0016EDHL V0202101N003110021019N0040001N1+00701+00701999999ADDGF107991999999999999999999MA1101691999999MW1631REMMET060METAR EDHL 090650Z 21006KT 4000 RA BKN007 07/07 Q1017 RMK C;
0119101560999992013010907204+53803+010699FM-15+0016EDHL V0202101N003610012019N0040001N1+00701+00701999999ADDGF107991999999999999999999MA1101691999999MW1631REMMET060METAR EDHL 090720Z 21007KT 4000 RA BKN004 07/07 Q1017 RMK D;
0125101560999992013010907504+53803+010699FM-15+0016EDHL V0202101N003110018019N0080001N1+00701+00701999999ADDGF107991999999999999999999MA1101691999999MW1611REMMET066METAR EDHL 090750Z 21006KT 8000 -RA BKN006 07/07 Q1017 RERA RMK E;
0129101560999992013010908204+53803+010699FM-15+0016EDHL V0202101N003610021019N0050001N1+00701+00701999999ADDGF107991999999999999999999MA1101591999999MW1101MW2611REMMET064METAR EDHL 090820Z 21007KT 5000 -RA BR BKN007 07/07 Q1016 RMK F;
0119101560999992013010908504+53803+010699FM-15+0016EDHL V0202201N004610021019N0030001N1+00701+00701999999ADDGF107991999999999999999999MA1101591999999MW1631REMMET060METAR EDHL 090850Z 22009KT 3000 RA BKN007 07/07 Q1016 RMK G;
0134101560999992013010909204+53803+010699FM-15+0016EDHL V0202201N004610021019N0040001N1+00701+00701999999ADDGF107991999999999999999999MA1101591999999MW1101MW2611REMMET069METAR EDHL 090920Z 22009KT 4000 -RA BR BKN007 07/07 Q1016 RERA RMK H;
0120101560999992013010909504+53803+010699FM-15+0016EDHL V0202201N004610015019N0060001N1+00701+00701999999ADDGF107991999999999999999999MA1101591999999MW1611REMMET061METAR EDHL 090950Z 22009KT 6000 -RA BKN005 07/07 Q1016 RMK I;
0120101560999992013010910204+53803+010699FM-15+0016EDHL V0202201N004110018019N0060001N1+00701+00701999999ADDGF107991999999999999999999MA1101491999999MW1611REMMET061METAR EDHL 091020Z 22008KT 6000 -RA BKN006 07/07 Q1015 RMK J;
0120101560999992013010911204+53803+010699FM-15+0016EDHL V0202201N005110015019N0060001N1+00701+00701999999ADDGF107991999999999999999999MA1101391999999MW1611REMMET061METAR EDHL 091120Z 22010KT 6000 -RA BKN005 07/07 Q1014 RMK M;
0120101560999992013010911504+53803+010699FM-15+0016EDHL V0202201N004610018019N0060001N1+00701+00701999999ADDGF107991999999999999999999MA1101391999999MW1611REMMET061METAR EDHL 091150Z 22009KT 6000 -RA BKN006 07/07 Q1014 RMK N;
0127101560999992013010912504+53803+010699FM-15+0016EDHL V0202301N005110018019N0060001N1+00701+00701999999ADDGF107991999999999999999999MA1101291999999MW1611REMMET068METAR EDHL 091250Z 23010KT 6000 -RA BKN006 BKN010 07/07 Q1013 RMK T;
0127101560999992013010913204+53803+010699FM-15+0016EDHL V0202301N005110018019N0060001N1+00701+00601999999ADDGF107991999999999999999999MA1101191999999MW1611REMMET068METAR EDHL 091320Z 23010KT 6000 -RA BKN006 BKN008 07/06 Q1012 RMK U;
0127101560999992013010913504+53803+010699FM-15+0016EDHL V0202401N005110018019N0060001N1+00701+00701999999ADDGF107991999999999999999999MA1101191999999MW1611REMMET068METAR EDHL 091350Z 24010KT 6000 -RA BKN006 BKN008 07/07 Q1012 RMK V;
0127101560999992013010914204+53803+010699FM-15+0016EDHL V0202401N006210021019N0070001N1+00701+00701999999ADDGF108991999999999999999999MA1101191999999MW1611REMMET068METAR EDHL 091420Z 24012KT 7000 -RA BKN007 OVC011 07/07 Q1012 RMK W;
0114101560999992013010914504+53803+010699FM-15+0016EDHL V0202501N006210027019N0070001N1+00701+00701999999ADDGF108991999999999999999999MA1101191999999MW1611REMMET055METAR EDHL 091450Z 25012KT 7000 -RA OVC009 07/07 Q1012;
0119101560999992013010915204+53803+010699FM-15+0016EDHL V0202701N006210015019N0020001N1+00701+00701999999ADDGF108991999999999999999999MA1101191999999MW1631REMMET060METAR EDHL 091520Z 27012KT 2000 RA OVC005 07/07 Q1012 RMK Y;
0119101560999992013010915504+53803+010699FM-15+0016EDHL V0203001N005710015019N0035001N1+00701+00701999999ADDGF107991999999999999999999MA1101191999999MW1101REMMET060METAR EDHL 091550Z 30011KT 3500 BR BKN005 07/07 Q1012 RMK Z;
0127101560999992013010916204+53803+010699FM-15+0016EDHL V0202901N005710045019N0040001N1+00701+00601999999ADDGF107991999999999999999999MA1101191999999MW1101REMMET068METAR EDHL 091620Z 29011KT 270V330 4000 BR BKN015 07/06 Q1012 RMK A;
0117101560999992013010916504+53803+010699FM-15+0016EDHL V0202901N004610054019N0060001N1+00701+00601999999ADDGF107991999999999999999999MA1101081999999REMMET064METAR EDHL 091650Z 29009KT 6000 SCT011 BKN018 07/06 Q1011 RMK B;
0110101560999992013010917204+53803+010699FM-15+0016EDHL V0202901N006712200019N0080001N1+00601+00501999999ADDGF104991999999999999999999MA1101191999999REMMET057METAR EDHL 091720Z 29013KT 8000 SCT020 06/05 Q1012 RMK C;
0118101560999992013010917504+53803+010699FM-15+0016EDHL V0203001N005110045019N0080001N1+00601+00501999999ADDGF107991999999999999999999MA1101191999999REMMET065METAR EDHL 091750Z 30010KT 270V330 8000 BKN015 06/05 Q1012 RMK D;
0110101560999992013010918204+53803+010699FM-15+0016EDHL V0202901N006210057019N0080001N1+00601+00501999999ADDGF107991999999999999999999MA1101191999999REMMET057METAR EDHL 091820Z 29012KT 8000 BKN019 06/05 Q1012 RMK E;
0117101560999992013011005504+53803+010699FM-15+0016EDHL V0202801N006710039019N0080001N1+00501+00301999999ADDGF107991999999999999999999MA1100711999999REMMET064METAR EDHL 100550Z 28013KT 8000 BKN013 BKN017 05/03 Q1007 RMK F;
0117101560999992013011006204+53803+010699FM-15+0016EDHL V0202801N006710027019N0080001N1+00501+00401999999ADDGF107991999999999999999999MA1100711999999REMMET064METAR EDHL 100620Z 28013KT 8000 BKN009 BKN021 05/04 Q1007 RMK B;
0110101560999992013011006504+53803+010699FM-15+0016EDHL V0202801N005710030019N0112651N1+00501+00401999999ADDGF107991999999999999999999MA1100711999999REMMET057METAR EDHL 100650Z 28011KT 9999 BKN010 05/04 Q1007 RMK C;
0128101560999992013011007204+53803+010699FM-15+0016EDHL V0203601N005710027019N0112651N1+00301+00201999999ADDGF107991999999999999999999MA1100711999999MW1511REMMET069METAR EDHL 100720Z 36011KT 330V030 9999 -DZ BKN009 03/02 Q1007 RMK D;
0126101560999992013011007504+53803+010699FM-15+0016EDHL V0203401N006210033019N0035001N1+00201+00101999999ADDGF108991999999999999999999MA1100711999999MW1531REMMET067METAR EDHL 100750Z 34012KT 3500 DZ SCT007 OVC011 02/01 Q1007 RMK E;
0115101560999992013011008204+53803+010699FM-15+0016EDHL V0203401N004610033019N0112651N1+00201+00101999999ADDGF107991999999999999999999MA1100711999999REMMET062METAR EDHL 100820Z 34009KT 9999 BKN011 02/01 Q1007 REDZ RMK F;
0110101560999992013011008504+53803+010699FM-15+0016EDHL V0203401N006710039019N0112651N1+00301+00001999999ADDGF107991999999999999999999MA1100711999999REMMET057METAR EDHL 100850Z 34013KT 9999 BKN013 03/00 Q1007 RMK G;
0118101560999992013011009204+53803+010699FM-15+0016EDHL V0203401N004110048019N0112651N1+00301+00101999999ADDGF107991999999999999999999MA1100811999999REMMET065METAR EDHL 100920Z 34008KT 310V010 9999 BKN016 03/01 Q1008 RMK H;
0117101560999992013011009504+53803+010699FM-15+0016EDHL V0203601N005110048019N0112651N1+00201+00101999999ADDGF107991999999999999999999MA1100811999999REMMET064METAR EDHL 100950Z 36010KT 9999 SCT012 BKN016 02/01 Q1008 RMK I;
0110101560999992013011010204+53803+010699FM-15+0016EDHL V0203501N005710036019N0112651N1+00201+00001999999ADDGF107991999999999999999999MA1100811999999REMMET057METAR EDHL 101020Z 35011KT 9999 BKN012 02/00 Q1008 RMK J;
0118101560999992013011010504+53803+010699FM-15+0016EDHL V0203601N004610084019N0112651N1+00201-00101999999ADDGF107991999999999999999999MA1100811999999REMMET065METAR EDHL 101050Z 36009KT 9999 SCT016 BKN028 02/M01 Q1008 RMK K;
0118101560999992013011011204+53803+010699FM-15+0016EDHL V0203501N005710093019N0112651N1+00201-00101999999ADDGF107991999999999999999999MA1100811999999REMMET065METAR EDHL 101120Z 35011KT 9999 SCT017 BKN031 02/M01 Q1008 RMK L;
0118101560999992013011011504+53803+010699FM-15+0016EDHL V0203501N006210087019N0112651N1+00201-00201999999ADDGF107991999999999999999999MA1100811999999REMMET065METAR EDHL 101150Z 35012KT 9999 SCT020 BKN029 02/M02 Q1008 RMK M;
0118101560999992013011012204+53803+010699FM-15+0016EDHL V0203501N006210081019N0112651N1+00201-00201999999ADDGF107991999999999999999999MA1100811999999REMMET065METAR EDHL 101220Z 35012KT 9999 SCT016 BKN027 02/M02 Q1008 RMK N;
0119101560999992013011012504+53803+010699FM-15+0016EDHL V0203401N006710105019N0112651N1+00201-00401999999ADDGF107991999999999999999999MA1100811999999REMMET066METAR EDHL 101250Z 34013KT 320V020 9999 BKN035 02/M04 Q1008 RMK O;
0119101560999992013011013204+53803+010699FM-15+0016EDHL V0200101N005710084019N0112651N1+00101-00401999999ADDGF107991999999999999999999MA1100811999999REMMET066METAR EDHL 101320Z 01011KT 350V050 9999 BKN028 01/M04 Q1008 RMK P;
0111101560999992013011013504+53803+010699FM-15+0016EDHL V0200101N004610090019N0112651N1+00101-00501999999ADDGF107991999999999999999999MA1100811999999REMMET058METAR EDHL 101350Z 01009KT 9999 BKN030 01/M05 Q1008 RMK Q;
0119101560999992013011014204+53803+010699FM-15+0016EDHL V0200101N002610093019N0112651N1+00101-00401999999ADDGF107991999999999999999999MA1100811999999REMMET066METAR EDHL 101420Z 01005KT 330V050 9999 BKN031 01/M04 Q1008 RMK R;
0119101560999992013011014504+53803+010699FM-15+0016EDHL V0203601N004110087019N0112651N1+00101-00401999999ADDGF107991999999999999999999MA1100911999999REMMET066METAR EDHL 101450Z 36008KT 330V030 9999 BKN029 01/M04 Q1009 RMK S;
0119101560999992013011015204+53803+010699FM-15+0016EDHL V0200201N003610096019N0112651N1+00101-00401999999ADDGF107991999999999999999999MA1100911999999REMMET066METAR EDHL 101520Z 02007KT 350V050 9999 BKN032 01/M04 Q1009 RMK T;
0111101560999992013011015504+53803+010699FM-15+0016EDHL V0200101N004110066019N0112651N1+00101-00401999999ADDGF107991999999999999999999MA1100911999999REMMET058METAR EDHL 101550Z 01008KT 9999 BKN022 01/M04 Q1009 RMK U;
0111101560999992013011016204+53803+010699FM-15+0016EDHL V0203601N003110066019N0112651N1+00101-00301999999ADDGF107991999999999999999999MA1100911999999REMMET058METAR EDHL 101620Z 36006KT 9999 BKN022 01/M03 Q1009 RMK V;
0111101560999992013011016504+53803+010699FM-15+0016EDHL V0203601N003110060019N0112651N1+00101-00301999999ADDGF107991999999999999999999MA1100911999999REMMET058METAR EDHL 101650Z 36006KT 9999 BKN020 01/M03 Q1009 RMK W;
0087101560999992013011017204+53803+010699FM-15+0016EDHL V0203501N003619999999Y0099001N1+00001-00201999999ADDMA1100911999999REMMET060METAR EDHL 101720Z 35007KT 310V030 CAVOK 00/M02 Q1009 RMK X;
0119101560999992013011017504+53803+010699FM-15+0016EDHL V0203601N003610060019N0112651N1+00001-00401999999ADDGF107991999999999999999999MA1100911999999REMMET066METAR EDHL 101750Z 36007KT 330V030 9999 BKN020 00/M04 Q1009 RMK Y;
0128101560999992013011018204+53803+010699FM-15+0016EDHL V0203601N004110012019N0030001N1+00001-00201999999ADDGF107991999999999999999999MA1101021999999MW1731REMMET069METAR EDHL 101820Z 36008KT 3000 SN BKN004 BKN010 M00/M02 Q1010 RMK Z;
0129101560999992013011104504+53803+010699FM-15+0016EDHL V0203201N003110039019N0112651N1-00101-00201999999ADDGF107991999999999999999999MA1101191999999MW1711REMMET070METAR EDHL 110450Z 32006KT 9999 -SN BKN013 BKN050 M01/M02 Q1012 RMK A;
0119101560999992013011105204+53803+010699FM-15+0016EDHL V0203101N003110042019N0112651N1-00201-00301999999ADDGF107991999999999999999999MA1101291999999REMMET066METAR EDHL 110520Z 31006KT 9999 BKN014 BKN052 M02/M03 Q1013 RMK B;
0121101560999992013011105504+53803+010699FM-15+0016EDHL V0202901N002610084019N0040001N1-00201-00301999999ADDGF107991999999999999999999MA1101291999999MW1101REMMET062METAR EDHL 110550Z 29005KT 4000 BR BKN028 M02/M03 Q1013 RMK C;
0112101560999992013011106204+53803+010699FM-15+0016EDHL V0209999V001510051019N0060001N1-00101-00201999999ADDGF107991999999999999999999MA1101291999999REMMET059METAR EDHL 110620Z VRB03KT 6000 BKN017 M01/M02 Q1013 RMK D;
0120101560999992013011106504+53803+010699FM-15+0016EDHL V0203001N002110069019N0070001N1-00101-00201999999ADDGF107991999999999999999999MA1101291999999REMMET067METAR EDHL 110650Z 30004KT 250V010 7000 BKN023 M01/M02 Q1013 RMK E;
0122101560999992013011107204+53803+010699FM-15+0016EDHL V0203101N001510069019N0030001N1-00101-00201999999ADDGF107991999999999999999999MA1101391999999MW1711REMMET063METAR EDHL 110720Z 31003KT 3000 -SN BKN023 M01/M02 Q1014 RMK F;
0112101560999992013011107504+53803+010699FM-15+0016EDHL V0203001N002110078019N0090001N1-00101-00301999999ADDGF107991999999999999999999MA1101391999999REMMET059METAR EDHL 110750Z 30004KT 9000 BKN026 M01/M03 Q1014 RMK G;
0119101560999992013011108204+53803+010699FM-15+0016EDHL V0203001N002610150019N0112651N1-00101-00201999999ADDGF107991999999999999999999MA1101391999999REMMET066METAR EDHL 110820Z 30005KT 9999 SCT028 BKN051 M01/M02 Q1014 RMK H;
0127101560999992013011108504+53803+010699FM-15+0016EDHL V0203101N003110150019N0112651N1+00001-00301999999ADDGF107991999999999999999999MA1101391999999REMMET074METAR EDHL 110850Z 31006KT 280V350 9999 SCT034 BKN052 M00/M03 Q1014 RMK I;
0126101560999992013011109204+53803+010699FM-15+0016EDHL V0203101N003110150019N0112651N1+00001-00301999999ADDGF107991999999999999999999MA1101391999999REMMET073METAR EDHL 110920Z 31006KT 280V340 9999 SCT023 BKN051 00/M03 Q1014 RMK K;
0126101560999992013011109504+53803+010699FM-15+0016EDHL V0203001N003610150019N0112651N1+00001-00201999999ADDGF107991999999999999999999MA1101391999999REMMET073METAR EDHL 110950Z 30007KT 280V340 9999 SCT019 BKN051 00/M02 Q1014 RMK L;
0118101560999992013011110204+53803+010699FM-15+0016EDHL V0203001N003610141019N0112651N1+00001-00201999999ADDGF107991999999999999999999MA1101391999999REMMET065METAR EDHL 111020Z 30007KT 9999 SCT022 BKN047 00/M02 Q1014 RMK M;
0129101560999992013011110504+53803+010699FM-15+0016EDHL V0203101N003610150019N0090001N1+00001-00201999999ADDGF107991999999999999999999MA1101491999999MW1711REMMET070METAR EDHL 111050Z 31007KT 9000 -SN SCT026 BKN057 M00/M02 Q1015 RMK N;
0137101560999992013011111204+53803+010699FM-15+0016EDHL V0203301N004610132019N0080001N1+00001-00201999999ADDGF107991999999999999999999MA1101491999999MW1711REMMET078METAR EDHL 111120Z 33009KT 290V360 8000 -SN SCT027 BKN044 M00/M02 Q1015 RMK O;
0144101560999992013011111504+53803+010699FM-15+0016EDHL V0203101N00361008101CN0090001N1+00001-00201999999ADDGF107991999999999999999999MA1101491999999MW1711REMMET085METAR EDHL 111150Z 31007KT 280V340 9000 -SN SCT015 SCT027 BKN050 M00/M02 Q1015 RMK P;
0130101560999992013011112204+53803+010699FM-15+0016EDHL V0203001N003610078019N0112651N1+00001-00201999999ADDGF107991999999999999999999MA1101491999999MW1161REMMET071METAR EDHL 111220Z 30007KT 9999 VCSH FEW013 BKN026 M00/M02 Q1015 RMK Q;
0130101560999992013011112504+53803+010699FM-15+0016EDHL V0203001N003610051019N0090001N1+00001-00201999999ADDGF107991999999999999999999MA1101491999999MW1851REMMET071METAR EDHL 111250Z 30007KT 9000 -SHSN BKN017 BKN033 00/M02 Q1015 RMK R;
0130101560999992013011113204+53803+010699FM-15+0016EDHL V0203101N003610057019N0090001N1+00001-00301999999ADDGF107991999999999999999999MA1101491999999MW1851REMMET071METAR EDHL 111320Z 31007KT 9000 -SHSN BKN019 BKN042 00/M03 Q1015 RMK S;
0130101560999992013011113504+53803+010699FM-15+0016EDHL V0203101N004610045019N0020001N1+00001-00301999999ADDGF107991999999999999999999MA1101491999999MW1861REMMET071METAR EDHL 111350Z 31009KT 2000 SHSN BKN015 BKN020 M00/M03 Q1015 RMK T;
0137101560999992013011114204+53803+010699FM-15+0016EDHL V0203401N003110012019N0015001N1-00101-00201999999ADDGF108991999999999999999999MA1101491999999MW1861REMMET078METAR EDHL 111420Z 34006KT 1500 SHSN BKN004 BKN006 OVC013 M01/M02 Q1015 RMK U;
0137101560999992013011114504+53803+010699FM-15+0016EDHL V0203201N002610012019N0015001N1-00101-00101999999ADDGF108991999999999999999999MA1101491999999MW1861REMMET078METAR EDHL 111450Z 32005KT 1500 SHSN BKN004 BKN008 OVC013 M01/M01 Q1015 RMK V;
0147101560999992013011115204+53803+010699FM-15+0016EDHL V0203001N002610018019N0050001N1-00101-00101999999ADDGF108991999999999999999999MA1101591999999MW1101MW2861REMMET082METAR EDHL 111520Z 30005KT 270V330 5000 SHSN BR BKN006 OVC012 M01/M01 Q1016 RMK W;
0128101560999992013011115504+53803+010699FM-15+0016EDHL V0203001N002610030019N0020001N1-00101-00101999999ADDGF107991999999999999999999MA1101591999999MW1731REMMET069METAR EDHL 111550Z 30005KT 2000 SN BKN010 BKN015 M01/M01 Q1016 RMK X;
0138101560999992013011116204+53803+010699FM-15+0016EDHL V0203201N002610024019N0040001N1-00101-00101999999ADDGF108991999999999999999999MA1101591999999MW1101MW2711REMMET073METAR EDHL 111620Z 32005KT 4000 -SN BR BKN008 OVC011 M01/M01 Q1016 RMK Y;
0151101560999992013011116504+53803+010699FM-15+0016EDHL V0203301N002610015019N0030001N1-00101-00201999999ADDGF107991999999999999999999MA1101591999999MW1731REMMET092METAR EDHL 111650Z 33005KT 300V010 3000 R25/1100V1600D SN BKN005 BKN015 M01/M02 Q1016 RMK Z;
0112101560999992013011117204+53803+010699FM-15+0016EDHL V0209999V001512200019N0112651N1-00201-00201999999ADDGF104991999999999999999999MA1101591999999REMMET059METAR EDHL 111720Z VRB03KT 9999 SCT038 M02/M02 Q1016 RMK A;
0112101560999992013011117504+53803+010699FM-15+0016EDHL V0203101N002112200019N0112651N1-00201-00201999999ADDGF104991999999999999999999MA1101591999999REMMET059METAR EDHL 111750Z 31004KT 9999 SCT041 M02/M02 Q1016 RMK B;
0119101560999992013011118204+53803+010699FM-15+0016EDHL V0203201N001512200019N0112651N1-00201-00201999999ADDGF104991999999999999999999MA1101691999999REMMET066METAR EDHL 111820Z 32003KT 9999 FEW015 SCT040 M02/M02 Q1017 RMK C;
0112101560999992013011207204+53803+010699FM-15+0016EDHL V0202901N001512200019N0112651N1-00401-00401999999ADDGF104991999999999999999999MA1101901999999REMMET059METAR EDHL 120720Z 29003KT 9999 SCT028 M04/M04 Q1019 RMK A;
0133101560999992013011207504+53803+010699FM-15+0016EDHL V0203001N001012200019N0112651N1-00501-00501999999ADDGF102991999999999999999999MA1101901999999REMMET080METAR EDHL 120750Z 30002KT 9999 R25/M0350V0500N MIFG FEW043 M05/M05 Q1019 RMK B;
0123101560999992013011208204+53803+010699FM-15+0016EDHL V0203101N001512200019N0112651N1-00501-00601999999ADDGF102991999999999999999999MA1101901999999MW1121REMMET064METAR EDHL 120820Z 31003KT 9999 MIFG FEW042 M05/M06 Q1019 RMK C;
0080101560999992013011209204+53803+010699FM-15+0016EDHL V0203101N001519999999Y0099001N1-00201-00201999999ADDMA1101901999999REMMET053METAR EDHL 120920Z 31003KT CAVOK M02/M02 Q1019 RMK F;
0080101560999992013011209504+53803+010699FM-15+0016EDHL V0203101N002119999999Y0099001N1-00201-00301999999ADDMA1102001999999REMMET053METAR EDHL 120950Z 31004KT CAVOK M02/M03 Q1020 RMK G;
0080101560999992013011210204+53803+010699FM-15+0016EDHL V0202901N001519999999Y0099001N1-00101-00201999999ADDMA1102001999999REMMET053METAR EDHL 121020Z 29003KT CAVOK M01/M02 Q1020 RMK H;
0079101560999992013011210504+53803+010699FM-15+0016EDHL V0203001N001519999999Y0099001N1+00001-00201999999ADDMA1102001999999REMMET052METAR EDHL 121050Z 30003KT CAVOK 00/M02 Q1020 RMK I;
0129101560999992013011211204+53803+010699FM-15+0016EDHL V0203201N002112200019N0112651N1+00001-00301999999ADDGF104991999999999999999999MA1102001999999REMMET076METAR EDHL 121120Z 32004KT 9999 R25/1300N FEW017 SCT061 M00/M03 Q1020 RMK J;
0120101560999992013011211504+53803+010699FM-15+0016EDHL V0200101N003112200019N0112651N1+00001-00401999999ADDGF104991999999999999999999MA1102001999999REMMET067METAR EDHL 121150Z 01006KT 330V030 9999 SCT022 M00/M04 Q1020 RMK K;
0120101560999992013011212204+53803+010699FM-15+0016EDHL V0200101N002610054019N0112651N1+00001-00301999999ADDGF107991999999999999999999MA1102001999999REMMET067METAR EDHL 121220Z 01005KT 340V040 9999 BKN018 M00/M03 Q1020 RMK L;
0112101560999992013011212504+53803+010699FM-15+0016EDHL V0203301N002110066019N0112651N1-00101-00301999999ADDGF107991999999999999999999MA1102001999999REMMET059METAR EDHL 121250Z 33004KT 9999 BKN022 M01/M03 Q1020 RMK M;
0112101560999992013011213204+53803+010699FM-15+0016EDHL V0209999V001510075019N0112651N1+00001-00301999999ADDGF107991999999999999999999MA1102001999999REMMET059METAR EDHL 121320Z VRB03KT 9999 BKN025 M00/M03 Q1020 RMK N;
0112101560999992013011213504+53803+010699FM-15+0016EDHL V0203201N001510084019N0112651N1-00101-00301999999ADDGF107991999999999999999999MA1102001999999REMMET059METAR EDHL 121350Z 32003KT 9999 BKN028 M01/M03 Q1020 RMK O;
0130101560999992013011214204+53803+010699FM-15+0016EDHL V0203201N002110084019N0112651N1-00101-00301999999ADDGF107991999999999999999999MA1102001999999MW1161REMMET071METAR EDHL 121420Z 32004KT 9999 VCSH SCT016 BKN028 M01/M03 Q1020 RMK P;
0126101560999992013011214504+53803+010699FM-15+0016EDHL V0203201N00151009901CN0112651N1-00101-00301999999ADDGF107991999999999999999999MA1102001999999REMMET073METAR EDHL 121450Z 32003KT 9999 FEW025 SCT033 BKN061 M01/M03 Q1020 RMK Q;
0131101560999992013011215504+53803+010699FM-15+0016EDHL V0209999V001010021019N0012001N1-00101-00301999999ADDGF107991999999999999999999MA1102001999999MW1731REMMET072METAR EDHL 121550Z VRB02KT 1200 R25/1800U SN BKN007 M01/M03 Q1020 RMK T;
0134101560999992013011215594+53803+010699FM-16+0016EDHL V0203401N001010039019N0050001N1-00101-00301999999ADDGF107991999999999999999999MA1102001999999MW1711REMMET075SPECI EDHL 121559Z 34002KT 5000 -SN BKN013 BKN022 M01/M03 Q1020 RESN RMK U;
0122101560999992013011216204+53803+010699FM-15+0016EDHL V0203401N001510039019N0040001N1-00101-00301999999ADDGF107991999999999999999999MA1102001999999MW1711REMMET063METAR EDHL 121620Z 34003KT 4000 -SN BKN013 M01/M03 Q1020 RMK V;
0112101560999992013011216504+53803+010699FM-15+0016EDHL V0209999V001510045019N0112651N1-00101-00301999999ADDGF107991999999999999999999MA1102001999999REMMET059METAR EDHL 121650Z VRB03KT 9999 BKN015 M01/M03 Q1020 RMK W;
0119101560999992013011217204+53803+010699FM-15+0016EDHL V0203601N003110180019N0112651N1-00101-00401999999ADDGF107991999999999999999999MA1102001999999REMMET066METAR EDHL 121720Z 36006KT 9999 SCT014 BKN063 M01/M04 Q1020 RMK X;
0119101560999992013011217504+53803+010699FM-15+0016EDHL V0203601N002110150019N0112651N1-00101-00401999999ADDGF107991999999999999999999MA1102001999999REMMET066METAR EDHL 121750Z 36004KT 9999 SCT018 BKN057 M01/M04 Q1020 RMK Y;
0128101560999992013011307204+53803+010699FM-15+0016EDHL V0200401N001510117019N0030001N1-00201-00301999999ADDGF107991999999999999999999MA1102101999999MW1731REMMET069METAR EDHL 130720Z 04003KT 3000 SN FEW010 BKN039 M02/M03 Q1021 RMK B;
0129101560999992013011307504+53803+010699FM-15+0016EDHL V0209999V001010135019N0050001N1-00201-00301999999ADDGF108991999999999999999999MA1102101999999MW1711REMMET070METAR EDHL 130750Z VRB02KT 5000 -SN FEW010 OVC045 M02/M03 Q1021 RMK C;
0122101560999992013011308204+53803+010699FM-15+0016EDHL V0200701N001510117019N0050001N1-00201-00201999999ADDGF108991999999999999999999MA1102201999999MW1711REMMET063METAR EDHL 130820Z 07003KT 5000 -SN OVC039 M02/M02 Q1022 RMK D;
0119101560999992013011308504+53803+010699FM-15+0016EDHL V0200501N001010102019N0060001N1-00201-00201999999ADDGF107991999999999999999999MA1102201999999REMMET066METAR EDHL 130850Z 05002KT 6000 BKN034 BKN051 M02/M02 Q1022 RMK E;
0119101560999992013011309204+53803+010699FM-15+0016EDHL V0200501N001512200019N0060001N1-00101-00201999999ADDGF100991999999999999999999MA1102201999999REMMET066METAR EDHL 130920Z 05003KT 6000 R25/1300N NSC M01/M02 Q1022 RMK F;
0132101560999992013011309504+53803+010699FM-15+0016EDHL V0200801N003110093019N0028001N1-00101-00201999999ADDGF107991999999999999999999MA1102201999999MW1711REMMET073METAR EDHL 130950Z 08006KT 2800 R25/1200D -SN BKN031 M01/M02 Q1022 RMK G;
0138101560999992013011310204+53803+010699FM-15+0016EDHL V0200901N002610135019N0032001N1-00101-00201999999ADDGF107991999999999999999999MA1102201999999MW1101REMMET079METAR EDHL 131020Z 09005KT 3200 R25/1100N BR FEW007 BKN045 M01/M02 Q1022 RMK H;
0141101560999992013011310504+53803+010699FM-15+0016EDHL V0200901N003110021019N0020001N1-00101-00201999999ADDGF107991999999999999999999MA1102201999999MW1851REMMET082METAR EDHL 131050Z 09006KT 2000 R25/1400N -SHSN BKN007 BKN045 M01/M02 Q1022 RMK I;
0127101560999992013011311204+53803+010699FM-15+0016EDHL V0201101N003110090019N0050001N1-00101-00201999999ADDGF107991999999999999999999MA1102201999999REMMET074METAR EDHL 131120Z 11006KT 080V160 5000 SCT007 BKN030 M01/M02 Q1022 RMK J;
0119101560999992013011311504+53803+010699FM-15+0016EDHL V0201001N004112200019N0090001N1-00101-00301999999ADDGF104991999999999999999999MA1102201999999REMMET066METAR EDHL 131150Z 10008KT 9000 FEW010 SCT029 M01/M03 Q1022 RMK K;
0112101560999992013011312204+53803+010699FM-15+0016EDHL V0200901N004112200019N0112651N1-00101-00301999999ADDGF102991999999999999999999MA1102201999999REMMET059METAR EDHL 131220Z 09008KT 9999 FEW015 M01/M03 Q1022 RMK L;
0119101560999992013011312504+53803+010699FM-15+0016EDHL V0200901N002612200019N0112651N1-00101-00301999999ADDGF104991999999999999999999MA1102201999999REMMET066METAR EDHL 131250Z 09005KT 9999 FEW023 SCT150 M01/M03 Q1022 RMK M;
0112101560999992013011313204+53803+010699FM-15+0016EDHL V0201001N002112200019N0112651N1-00101-00401999999ADDGF102991999999999999999999MA1102201999999REMMET059METAR EDHL 131320Z 10004KT 9999 FEW011 M01/M04 Q1022 RMK N;
0112101560999992013011313504+53803+010699FM-15+0016EDHL V0200801N003112200019N0112651N1-00201-00401999999ADDGF104991999999999999999999MA1102201999999REMMET059METAR EDHL 131350Z 08006KT 9999 SCT049 M02/M04 Q1022 RMK O;
0112101560999992013011314204+53803+010699FM-15+0016EDHL V0200701N002612200019N0112651N1-00301-00501999999ADDGF104991999999999999999999MA1102101999999REMMET059METAR EDHL 131420Z 07005KT 9999 SCT046 M03/M05 Q1021 RMK P;
0112101560999992013011314504+53803+010699FM-15+0016EDHL V0200701N001512200019N0112651N1-00201-00401999999ADDGF104991999999999999999999MA1102101999999REMMET059METAR EDHL 131450Z 07003KT 9999 SCT040 M02/M04 Q1021 RMK Q;
0112101560999992013011315204+53803+010699FM-15+0016EDHL V0200501N002112200019N0112651N1-00401-00601999999ADDGF102991999999999999999999MA1102101999999REMMET059METAR EDHL 131520Z 05004KT 9999 FEW035 M04/M06 Q1021 RMK R;
0080101560999992013011315504+53803+010699FM-15+0016EDHL V0200401N003119999999Y0099001N1-00301-00501999999ADDMA1102101999999REMMET053METAR EDHL 131550Z 04006KT CAVOK M03/M05 Q1021 RMK S;
0080101560999992013011316204+53803+010699FM-15+0016EDHL V0200601N003119999999Y0099001N1-00501-00601999999ADDMA1102101999999REMMET053METAR EDHL 131620Z 06006KT CAVOK M05/M06 Q1021 RMK T;
0080101560999992013011316504+53803+010699FM-15+0016EDHL V0200801N002619999999Y0099001N1-00601-00701999999ADDMA1102101999999REMMET053METAR EDHL 131650Z 08005KT CAVOK M06/M07 Q1021 RMK U;
0080101560999992013011317204+53803+010699FM-15+0016EDHL V0200701N002619999999Y0099001N1-00601-00701999999ADDMA1102201999999REMMET053METAR EDHL 131720Z 07005KT CAVOK M06/M07 Q1022 RMK V;
0080101560999992013011317504+53803+010699FM-15+0016EDHL V0200501N002619999999Y0099001N1-00601-00701999999ADDMA1102201999999REMMET053METAR EDHL 131750Z 05005KT CAVOK M06/M07 Q1022 RMK W;
0133101560999992013011404504+53803+010699FM-15+0016EDHL V0200901N002110027019N0040001N1-00501-00601999999ADDGF107991999999999999999999MA1101801999999MW1101REMMET074METAR EDHL 140450Z 09004KT 4000 BR BKN009 BKN014 M05/M06 Q1018 RESN RMK A;
0119101560999992013011405204+53803+010699FM-15+0016EDHL V0201101N002610024019N0060001N1-00501-00601999999ADDGF107991999999999999999999MA1101801999999REMMET066METAR EDHL 140520Z 11005KT 6000 BKN008 BKN011 M05/M06 Q1018 RMK B;
0128101560999992013011405504+53803+010699FM-15+0016EDHL V0201101N003610021019N0050001N1-00401-00601999999ADDGF108991999999999999999999MA1101801999999MW1101REMMET069METAR EDHL 140550Z 11007KT 5000 BR BKN007 OVC013 M04/M06 Q1018 RMK C;
0128101560999992013011406204+53803+010699FM-15+0016EDHL V0201201N003610024019N0050001N1-00501-00601999999ADDGF108991999999999999999999MA1101801999999MW1101REMMET069METAR EDHL 140620Z 12007KT 5000 BR BKN008 OVC011 M05/M06 Q1018 RMK D;
0112101560999992013011406504+53803+010699FM-15+0016EDHL V0201101N003110036019N0050001N1-00501-00701999999ADDGF108991999999999999999999MA1101801999999REMMET059METAR EDHL 140650Z 11006KT 5000 OVC012 M05/M07 Q1018 RMK E;
0121101560999992013011407204+53803+010699FM-15+0016EDHL V0201001N004110027019N0050001N1-00501-00601999999ADDGF108991999999999999999999MA1101801999999MW1101REMMET062METAR EDHL 140720Z 10008KT 5000 BR OVC009 M05/M06 Q1018 RMK F;
0121101560999992013011407504+53803+010699FM-15+0016EDHL V0201301N004110030019N0050001N1-00501-00701999999ADDGF108991999999999999999999MA1101801999999MW1101REMMET062METAR EDHL 140750Z 13008KT 5000 BR OVC010 M05/M07 Q1018 RMK G;
0128101560999992013011408204+53803+010699FM-15+0016EDHL V0201201N002610033019N0050001N1-00501-00701999999ADDGF107991999999999999999999MA1101801999999MW1101REMMET069METAR EDHL 140820Z 12005KT 5000 BR BKN011 BKN040 M05/M07 Q1018 RMK H;
0121101560999992013011408504+53803+010699FM-15+0016EDHL V0201201N003110108019N0050001N1-00501-00801999999ADDGF108991999999999999999999MA1101801999999MW1101REMMET062METAR EDHL 140850Z 12006KT 5000 BR OVC036 M05/M08 Q1018 RMK I;
0136101560999992013011409504+53803+010699FM-15+0016EDHL V0201101N00311012001CN0080001N1-00501-00801999999ADDGF107991999999999999999999MA1101691999999REMMET083METAR EDHL 140950Z 11006KT 8000 R25/1300N FEW011 SCT040 BKN097 M05/M08 Q1017 RMK J;
0130101560999992013011410504+53803+010699FM-15+0016EDHL V0201101N003610045019N0060001N1-00501-00801999999ADDGF107991999999999999999999MA1101591999999REMMET077METAR EDHL 141050Z 11007KT 070V140 6000 R25/1300N BKN015 M05/M08 Q1016 RMK M;
0129101560999992013011411204+53803+010699FM-15+0016EDHL V0201001N003610180019N0060001N1-00501-00801999999ADDGF107991999999999999999999MA1101591999999REMMET076METAR EDHL 141120Z 10007KT 6000 R25/1300N SCT013 BKN063 M05/M08 Q1016 RMK N;
0120101560999992013011411504+53803+010699FM-15+0016EDHL V0201201N003610048019N0060001N1-00501-00801999999ADDGF107991999999999999999999MA1101591999999REMMET067METAR EDHL 141150Z 12007KT 090V150 6000 BKN016 M05/M08 Q1016 RMK P;
0138101560999992013011412204+53803+010699FM-15+0016EDHL V0201101N003610099019N0040001N1-00501-00801999999ADDGF107991999999999999999999MA1101491999999MW1101MW2711REMMET073METAR EDHL 141220Z 11007KT 4000 -SN BR BKN033 BKN045 M05/M08 Q1015 RMK Q;
0148101560999992013011412504+53803+010699FM-15+0016EDHL V0201001N003110060019N0030001N1-00501-00701999999ADDGF107991999999999999999999MA1101491999999MW1101MW2711REMMET083METAR EDHL 141250Z 10006KT 3000 R25/1400N -SN BR BKN020 BKN036 M05/M07 Q1015 RMK R;
0145101560999992013011413204+53803+010699FM-15+0016EDHL V0201101N003110030019N0025001N1-00501-00601999999ADDGF107991999999999999999999MA1101391999999MW1101MW2711REMMET080METAR EDHL 141320Z 11006KT 2500 -SN BR SCT006 BKN010 BKN014 M05/M06 Q1014 RMK S;
0128101560999992013011413504+53803+010699FM-15+0016EDHL V0201101N003612200019N0025001N1-00501-00601999999ADDGF100991999999999999999999MA1101391999999MW1101MW2711REMMET063METAR EDHL 141350Z 11007KT 2500 -SN BR SKC M05/M06 Q1014 RMK T;
0129101560999992013011414204+53803+010699FM-15+0016EDHL V0201001N002610039019N0030001N1-00501-00601999999ADDGF107991999999999999999999MA1101391999999MW1711REMMET070METAR EDHL 141420Z 10005KT 3000 -SN BKN013 BKN036 M05/M06 Q1014 RMK V;
0129101560999992013011414504+53803+010699FM-15+0016EDHL V0201301N003610036019N0030001N1-00501-00701999999ADDGF107991999999999999999999MA1101391999999MW1711REMMET070METAR EDHL 141450Z 13007KT 3000 -SN BKN012 BKN033 M05/M07 Q1014 RMK W;
0129101560999992013011415204+53803+010699FM-15+0016EDHL V0201301N003112200019N0025001N1-00501-00701999999ADDGF104991999999999999999999MA1101291999999MW1711REMMET070METAR EDHL 141520Z 13006KT 2500 -SN SCT012 SCT020 M05/M07 Q1013 RMK X;
0122101560999992013011415504+53803+010699FM-15+0016EDHL V0201201N003110036019N0030001N1-00501-00701999999ADDGF107991999999999999999999MA1101291999999MW1711REMMET063METAR EDHL 141550Z 12006KT 3000 -SN BKN012 M05/M07 Q1013 RMK Y;
0122101560999992013011416204+53803+010699FM-15+0016EDHL V0201301N002110033019N0030001N1-00501-00701999999ADDGF107991999999999999999999MA1101291999999MW1711REMMET063METAR EDHL 141620Z 13004KT 3000 -SN BKN011 M05/M07 Q1013 RMK Z;
0121101560999992013011416504+53803+010699FM-15+0016EDHL V0201501N002610030019N0030001N1-00501-00701999999ADDGF107991999999999999999999MA1101291999999MW1101REMMET062METAR EDHL 141650Z 15005KT 3000 BR BKN010 M05/M07 Q1013 RMK A;
0129101560999992013011417204+53803+010699FM-15+0016EDHL V0201901N003610036019N0030001N1-00501-00701999999ADDGF107991999999999999999999MA1101291999999MW1101REMMET070METAR EDHL 141720Z 19007KT 150V220 3000 BR BKN012 M05/M07 Q1013 RMK C;
0139101560999992013011418204+53803+010699FM-15+0016EDHL V0201601N002610030019N0030001N1-00501-00701999999ADDGF107991999999999999999999MA1101291999999MW1101MW2711REMMET074METAR EDHL 141820Z 16005KT 120V190 3000 -SN BR BKN010 M05/M07 Q1013 RMK D;
0138101560999992013011418504+53803+010699FM-15+0016EDHL V0201701N002110039019N0030001N1-00501-00701999999ADDGF107991999999999999999999MA1101191999999MW1101MW2711REMMET073METAR EDHL 141850Z 17004KT 3000 -SN BR BKN013 BKN020 M05/M07 Q1012 RMK E;
0121101560999992013011505504+53803+010699FM-15+0016EDHL V0201501N001012200019N0040001N1-01001-01201999999ADDGF104991999999999999999999MA1101021999999MW1101REMMET062METAR EDHL 150550Z 15002KT 4000 BR SCT003 M10/M12 Q1010 RMK A;
0121101560999992013011506204+53803+010699FM-15+0016EDHL V0201601N001512200019N0040001N1-01001-01101999999ADDGF104991999999999999999999MA1101021999999MW1101REMMET062METAR EDHL 150620Z 16003KT 4000 BR SCT003 M10/M11 Q1010 RMK B;
0133101560999992013011506504+53803+010699FM-15+0016EDHL V0209999C00001000151CN0006001N1-01001-01101999999ADDGF109991999999000251999999MA1101021999999MW1491REMMET074METAR EDHL 150650Z 00000KT 0600 R25/P2000N FZFG VV/// M10/M11 Q1010 RMK C;
0133101560999992013011506564+53803+010699FM-16+0016EDHL V0202501N00051000151CN0003001N1-01001-01101999999ADDGF109991999999000251999999MA1101021999999MW1491REMMET074SPECI EDHL 150656Z 25001KT 0300 R07/M0350D FZFG VV/// M10/M11 Q1010 RMK D;
0133101560999992013011507204+53803+010699FM-15+0016EDHL V0201901N00051000151CN0004001N1-00901-01001999999ADDGF109991999999000251999999MA1101021999999MW1491REMMET074METAR EDHL 150720Z 19001KT 0400 R07/M0350N FZFG VV/// M09/M10 Q1010 RMK E;
0100101560999992013011507504+53803+010699FM-15+0016EDHL V0209999V000512200019N0004001N1-01001-01101999999ADDMA1101001999999REMMET073METAR EDHL 150750Z VRB01KT 0400 R07/M0350V0500D FZFG VV/// M10/M11 Q1010;
0133101560999992013011508204+53803+010699FM-15+0016EDHL V0209999C00001000601CN0004001N1-01101-01201999999ADDGF107991999999999999999999MA1101001999999REMMET080METAR EDHL 150820Z 00000KT 0400 R07/M0350V1400U FZFG BKN002 M11/M12 Q1010 RMK G;
0134101560999992013011508504+53803+010699FM-15+0016EDHL V0201301N00051000901CN0009001N1-01001-01101999999ADDGF107991999999999999999999MA1101001999999REMMET081METAR EDHL 150850Z 13001KT 0900 0050/ R07/M0350U FZFG BKN003 M10/M11 Q1010 RMK H;
0131101560999992013011509204+53803+010699FM-15+0016EDHL V0209999C000012200019N0012001N1-00901-01001999999ADDGF104991999999999999999999MA1101001999999REMMET078METAR EDHL 150920Z 00000KT 1200 R07/M0350V0450D BR SCT004 M09/M10 Q1010 RMK J;
0133101560999992013011509504+53803+010699FM-15+0016EDHL V0209999C000012200019N0012001N1-00801-00901999999ADDGF100991999999999999999999MA1101081999999MW1101REMMET074METAR EDHL 150950Z 00000KT 1200 R07/0700V1100U BR NSC M08/M09 Q1011 RMK K;
0133101560999992013011510204+53803+010699FM-15+0016EDHL V0201401N000512200019N0015001N1-00601-00701999999ADDGF100991999999999999999999MA1101081999999MW1101REMMET074METAR EDHL 151020Z 14001KT 1500 R07/1100V1700U BR NSC M06/M07 Q1011 RMK L;
0118101560999992013011510504+53803+010699FM-15+0016EDHL V0201301N001012200019N0030001N1-00601-00801999999ADDGF100991999999999999999999MA1101081999999MW1101REMMET059METAR EDHL 151050Z 13002KT 3000 BR NSC M06/M08 Q1011 RMK M;
0118101560999992013011511204+53803+010699FM-15+0016EDHL V0201301N001512200019N0032001N1-00601-00701999999ADDGF100991999999999999999999MA1101081999999MW1101REMMET059METAR EDHL 151120Z 13003KT 3200 BR NSC M06/M07 Q1011 RMK N;
0118101560999992013011511504+53803+010699FM-15+0016EDHL V0200801N001512200019N0040001N1-00601-00701999999ADDGF100991999999999999999999MA1101081999999MW1101REMMET059METAR EDHL 151150Z 08003KT 4000 BR NSC M06/M07 Q1011 RMK O;
0109101560999992013011512204+53803+010699FM-15+0016EDHL V0200901N001512200019N0050001N1-00601-00701999999ADDGF100991999999999999999999MA1101021999999REMMET056METAR EDHL 151220Z 09003KT 5000 NSC M06/M07 Q1010 RMK P;
0109101560999992013011512504+53803+010699FM-15+0016EDHL V0200801N001512200019N0050001N1-00601-00701999999ADDGF100991999999999999999999MA1101021999999REMMET056METAR EDHL 151250Z 08003KT 5000 NSC M06/M07 Q1010 RMK Q;
0109101560999992013011513204+53803+010699FM-15+0016EDHL V0200901N002112200019N0050001N1-00601-00701999999ADDGF100991999999999999999999MA1101021999999REMMET056METAR EDHL 151320Z 09004KT 5000 NSC M06/M07 Q1010 RMK R;
0118101560999992013011513504+53803+010699FM-15+0016EDHL V0200901N002612200019N0040001N1-00601-00801999999ADDGF100991999999999999999999MA1101021999999MW1101REMMET059METAR EDHL 151350Z 09005KT 4000 BR NSC M06/M08 Q1010 RMK S;
0118101560999992013011514204+53803+010699FM-15+0016EDHL V0201001N002612200019N0040001N1-00601-00801999999ADDGF100991999999999999999999MA1101021999999MW1101REMMET059METAR EDHL 151420Z 10005KT 4000 BR NSC M06/M08 Q1010 RMK T;
0118101560999992013011514504+53803+010699FM-15+0016EDHL V0201301N002612200019N0040001N1-00701-00901999999ADDGF100991999999999999999999MA1101081999999MW1101REMMET059METAR EDHL 151450Z 13005KT 4000 BR NSC M07/M09 Q1011 RMK U;
0118101560999992013011515204+53803+010699FM-15+0016EDHL V0201201N002612200019N0040001N1-00701-00901999999ADDGF100991999999999999999999MA1101081999999MW1101REMMET059METAR EDHL 151520Z 12005KT 4000 BR NSC M07/M09 Q1011 RMK V;
0118101560999992013011515504+53803+010699FM-15+0016EDHL V0201001N002112200019N0030001N1-00901-01101999999ADDGF100991999999999999999999MA1101081999999MW1101REMMET059METAR EDHL 151550Z 10004KT 3000 BR NSC M09/M11 Q1011 RMK W;
0118101560999992013011516204+53803+010699FM-15+0016EDHL V0200901N002112200019N0030001N1-00901-01001999999ADDGF100991999999999999999999MA1101081999999MW1101REMMET059METAR EDHL 151620Z 09004KT 3000 BR NSC M09/M10 Q1011 RMK X;
0118101560999992013011516504+53803+010699FM-15+0016EDHL V0200901N002112200019N0040001N1-00901-01001999999ADDGF100991999999999999999999MA1101081999999MW1101REMMET059METAR EDHL 151650Z 09004KT 4000 BR NSC M09/M10 Q1011 RMK Y;
0118101560999992013011517204+53803+010699FM-15+0016EDHL V0200901N002112200019N0040001N1-00901-01001999999ADDGF100991999999999999999999MA1101081999999MW1101REMMET059METAR EDHL 151720Z 09004KT 4000 BR NSC M09/M10 Q1011 RMK Z;
0121101560999992013011517504+53803+010699FM-15+0016EDHL V0200901N002110009019N0020001N1-00901-01001999999ADDGF107991999999999999999999MA1101081999999MW1101REMMET062METAR EDHL 151750Z 09004KT 2000 BR BKN003 M09/M10 Q1011 RMK A;
0121101560999992013011518204+53803+010699FM-15+0016EDHL V0201101N002110012019N0025001N1-00801-00901999999ADDGF108991999999999999999999MA1101081999999MW1101REMMET062METAR EDHL 151820Z 11004KT 2500 BR OVC004 M08/M09 Q1011 RMK B;
0121101560999992013011606204+53803+010699FM-15+0016EDHL V0200801N002110012019N0030001N1-00601-00701999999ADDGF108991999999999999999999MA1101081999999MW1101REMMET062METAR EDHL 160620Z 08004KT 3000 BR OVC004 M06/M07 Q1011 RMK A;
0128101560999992013011606504+53803+010699FM-15+0016EDHL V0200801N002110012019N0025001N1-00601-00701999999ADDGF108991999999999999999999MA1101081999999MW1101REMMET069METAR EDHL 160650Z 08004KT 2500 BR BKN004 OVC005 M06/M07 Q1011 RMK C;
0121101560999992013011607204+53803+010699FM-15+0016EDHL V0209999V001510015019N0025001N1-00701-00801999999ADDGF108991999999999999999999MA1101191999999MW1101REMMET062METAR EDHL 160720Z VRB03KT 2500 BR OVC005 M07/M08 Q1012 RMK D;
0121101560999992013011607504+53803+010699FM-15+0016EDHL V0200801N001510015019N0025001N1-00701-00801999999ADDGF108991999999999999999999MA1101191999999MW1101REMMET062METAR EDHL 160750Z 08003KT 2500 BR OVC005 M07/M08 Q1012 RMK E;
0121101560999992013011608204+53803+010699FM-15+0016EDHL V0200701N001510015019N0025001N1-00601-00701999999ADDGF108991999999999999999999MA1101191999999MW1101REMMET062METAR EDHL 160820Z 07003KT 2500 BR OVC005 M06/M07 Q1012 RMK F;
0121101560999992013011608504+53803+010699FM-15+0016EDHL V0200601N002110018019N0028001N1-00601-00701999999ADDGF108991999999999999999999MA1101191999999MW1101REMMET062METAR EDHL 160850Z 06004KT 2800 BR OVC006 M06/M07 Q1012 RMK G;
0121101560999992013011609204+53803+010699FM-15+0016EDHL V0200501N002610018019N0030001N1-00601-00701999999ADDGF108991999999999999999999MA1101191999999MW1101REMMET062METAR EDHL 160920Z 05005KT 3000 BR OVC006 M06/M07 Q1012 RMK H;
0129101560999992013011609504+53803+010699FM-15+0016EDHL V0200701N002610018019N0030001N1-00601-00701999999ADDGF107991999999999999999999MA1101291999999MW1101REMMET070METAR EDHL 160950Z 07005KT 030V090 3000 BR BKN006 M06/M07 Q1013 RMK I;
0121101560999992013011610504+53803+010699FM-15+0016EDHL V0200901N003110015019N0030001N1-00601-00701999999ADDGF108991999999999999999999MA1101291999999MW1101REMMET062METAR EDHL 161050Z 09006KT 3000 BR OVC005 M06/M07 Q1013 RMK L;
0129101560999992013011611204+53803+010699FM-15+0016EDHL V0201101N002110015019N0025001N1-00501-00601999999ADDGF108991999999999999999999MA1101291999999MW1101REMMET070METAR EDHL 161120Z 11004KT 080V150 2500 BR OVC005 M05/M06 Q1013 RMK M;
0129101560999992013011611504+53803+010699FM-15+0016EDHL V0201301N002110015019N0025001N1-00501-00601999999ADDGF108991999999999999999999MA1101291999999MW1101REMMET070METAR EDHL 161150Z 13004KT 080V170 2500 BR OVC005 M05/M06 Q1013 RMK N;
0121101560999992013011612204+53803+010699FM-15+0016EDHL V0200801N002610015019N0020001N1-00501-00601999999ADDGF108991999999999999999999MA1101191999999MW1101REMMET062METAR EDHL 161220Z 08005KT 2000 BR OVC005 M05/M06 Q1012 RMK O;
0121101560999992013011612504+53803+010699FM-15+0016EDHL V0201001N002610018019N0025001N1-00501-00601999999ADDGF108991999999999999999999MA1101291999999MW1101REMMET062METAR EDHL 161250Z 10005KT 2500 BR OVC006 M05/M06 Q1013 RMK P;
0129101560999992013011613204+53803+010699FM-15+0016EDHL V0201001N002110015019N0025001N1-00501-00601999999ADDGF108991999999999999999999MA1101291999999MW1101REMMET070METAR EDHL 161320Z 10004KT 070V130 2500 BR OVC005 M05/M06 Q1013 RMK Q;
0121101560999992013011613504+53803+010699FM-15+0016EDHL V0209999V001010018019N0025001N1-00501-00601999999ADDGF108991999999999999999999MA1101291999999MW1101REMMET062METAR EDHL 161350Z VRB02KT 2500 BR OVC006 M05/M06 Q1013 RMK R;
0121101560999992013011614204+53803+010699FM-15+0016EDHL V0200901N002110021019N0030001N1-00401-00601999999ADDGF108991999999999999999999MA1101291999999MW1101REMMET062METAR EDHL 161420Z 09004KT 3000 BR OVC007 M04/M06 Q1013 RMK S;
0121101560999992013011614504+53803+010699FM-15+0016EDHL V0209999V001510024019N0030001N1-00501-00601999999ADDGF107991999999999999999999MA1101291999999MW1101REMMET062METAR EDHL 161450Z VRB03KT 3000 BR BKN008 M05/M06 Q1013 RMK T;
0118101560999992013011615204+53803+010699FM-15+0016EDHL V0209999V001012200019N0030001N1-00501-00701999999ADDGF100991999999999999999999MA1101291999999MW1101REMMET059METAR EDHL 161520Z VRB02KT 3000 BR NSC M05/M07 Q1013 RMK U;
0118101560999992013011615504+53803+010699FM-15+0016EDHL V0209999C000012200019N0030001N1-00601-00701999999ADDGF100991999999999999999999MA1101291999999MW1101REMMET059METAR EDHL 161550Z 00000KT 3000 BR NSC M06/M07 Q1013 RMK V;
0118101560999992013011616204+53803+010699FM-15+0016EDHL V0200101N001012200019N0030001N1-00601-00701999999ADDGF100991999999999999999999MA1101391999999MW1101REMMET059METAR EDHL 161620Z 01002KT 3000 BR NSC M06/M07 Q1014 RMK W;
0118101560999992013011616504+53803+010699FM-15+0016EDHL V0203501N001012200019N0030001N1-00601-00701999999ADDGF100991999999999999999999MA1101391999999MW1101REMMET059METAR EDHL 161650Z 35002KT 3000 BR NSC M06/M07 Q1014 RMK X;
0118101560999992013011617204+53803+010699FM-15+0016EDHL V0200101N001012200019N0030001N1-00701-00801999999ADDGF100991999999999999999999MA1101391999999MW1101REMMET059METAR EDHL 161720Z 01002KT 3000 BR NSC M07/M08 Q1014 RMK Y;
0118101560999992013011617504+53803+010699FM-15+0016EDHL V0203401N001012200019N0030001N1-00601-00701999999ADDGF100991999999999999999999MA1101391999999MW1101REMMET059METAR EDHL 161750Z 34002KT 3000 BR NSC M06/M07 Q1014 RMK Z;
0121101560999992013011618204+53803+010699FM-15+0016EDHL V0203201N001010108019N0030001N1-00601-00801999999ADDGF107991999999999999999999MA1101391999999MW1101REMMET062METAR EDHL 161820Z 32002KT 3000 BR BKN036 M06/M08 Q1014 RMK A;
0121101560999992013011618504+53803+010699FM-15+0016EDHL V0203101N001012200019N0040001N1-00601-00701999999ADDGF102991999999999999999999MA1101491999999MW1101REMMET062METAR EDHL 161850Z 31002KT 4000 BR FEW035 M06/M07 Q1015 RMK B;
0112101560999992013011706204+53803+010699FM-15+0016EDHL V0203601N002110132019N0090001N1-00201-00401999999ADDGF108991999999999999999999MA1101691999999REMMET059METAR EDHL 170620Z 36004KT 9000 OVC044 M02/M04 Q1017 RMK A;
0112101560999992013011706504+53803+010699FM-15+0016EDHL V0203601N001010135019N0112651N1-00201-00401999999ADDGF108991999999999999999999MA1101691999999REMMET059METAR EDHL 170650Z 36002KT 9999 OVC045 M02/M04 Q1017 RMK B;
0112101560999992013011707204+53803+010699FM-15+0016EDHL V0209999V001010135019N0090001N1-00201-00401999999ADDGF108991999999999999999999MA1101801999999REMMET059METAR EDHL 170720Z VRB02KT 9000 OVC045 M02/M04 Q1018 RMK C;
0112101560999992013011707504+53803+010699FM-15+0016EDHL V0203401N001510135019N0112651N1-00201-00401999999ADDGF107991999999999999999999MA1101801999999REMMET059METAR EDHL 170750Z 34003KT 9999 BKN045 M02/M04 Q1018 RMK D;
0112101560999992013011708204+53803+010699FM-15+0016EDHL V0209999C000010141019N0112651N1-00201-00401999999ADDGF107991999999999999999999MA1101801999999REMMET059METAR EDHL 170820Z 00000KT 9999 BKN047 M02/M04 Q1018 RMK F;
0119101560999992013011708504+53803+010699FM-15+0016EDHL V0203601N002110111019N0112651N1-00101-00401999999ADDGF107991999999999999999999MA1101901999999REMMET066METAR EDHL 170850Z 36004KT 9999 BKN037 BKN056 M01/M04 Q1019 RMK G;
0127101560999992013011709204+53803+010699FM-15+0016EDHL V0200201N002610150019N0112651N1-00101-00401999999ADDGF107991999999999999999999MA1101901999999REMMET074METAR EDHL 170920Z 02005KT 350V050 9999 SCT038 BKN057 M01/M04 Q1019 RMK H;
0119101560999992013011709504+53803+010699FM-15+0016EDHL V0200301N003110180019N0112651N1-00101-00401999999ADDGF107991999999999999999999MA1101901999999REMMET066METAR EDHL 170950Z 03006KT 9999 SCT035 BKN060 M01/M04 Q1019 RMK I;
0127101560999992013011710204+53803+010699FM-15+0016EDHL V0200101N003110120019N0112651N1-00101-00401999999ADDGF107991999999999999999999MA1101901999999REMMET074METAR EDHL 171020Z 01006KT 340V050 9999 SCT025 BKN040 M01/M04 Q1019 RMK J;
0122101560999992013011710504+53803+010699FM-15+0016EDHL V0200101N003610066019N0112651N1-00101-00401999999ADDGF107991999999999999999999MA1101901999999MW1711REMMET063METAR EDHL 171050Z 01007KT 9999 -SN BKN022 M01/M04 Q1019 RMK K;
0130101560999992013011711204+53803+010699FM-15+0016EDHL V0200101N003610057019N0090001N1-00101-00401999999ADDGF107991999999999999999999MA1101901999999MW1711REMMET071METAR EDHL 171120Z 01007KT 340V050 9000 -SN BKN019 M01/M04 Q1019 RMK L;
0122101560999992013011711504+53803+010699FM-15+0016EDHL V0200201N004610030019N0070001N1-00101-00301999999ADDGF107991999999999999999999MA1101901999999MW1711REMMET063METAR EDHL 171150Z 02009KT 7000 -SN BKN010 M01/M03 Q1019 RMK M;
0130101560999992013011712204+53803+010699FM-15+0016EDHL V0200101N003610024019N0070001N1-00101-00301999999ADDGF107991999999999999999999MA1101901999999MW1711REMMET071METAR EDHL 171220Z 01007KT 340V040 7000 -SN BKN008 M01/M03 Q1019 RMK N;
0119101560999992013011712504+53803+010699FM-15+0016EDHL V0203601N003112200019N0112651N1-00101-00301999999ADDGF104991999999999999999999MA1101801999999REMMET066METAR EDHL 171250Z 36006KT 9999 FEW010 SCT047 M01/M03 Q1018 RMK O;
0079101560999992013011713204+53803+010699FM-15+0016EDHL V0200201N002619999999Y0099001N1+00001-00201999999ADDMA1101801999999REMMET052METAR EDHL 171320Z 02005KT CAVOK 00/M02 Q1018 RMK P;
0087101560999992013011713504+53803+010699FM-15+0016EDHL V0200501N003119999999Y0099001N1+00001-00301999999ADDMA1101901999999REMMET060METAR EDHL 171350Z 05006KT 010V070 CAVOK 00/M03 Q1019 RMK Q;
0080101560999992013011714204+53803+010699FM-15+0016EDHL V0200601N003119999999Y0099001N1+00001-00401999999ADDMA1101901999999REMMET053METAR EDHL 171420Z 06006KT CAVOK M00/M04 Q1019 RMK R;
0080101560999992013011714504+53803+010699FM-15+0016EDHL V0200601N002619999999Y0099001N1+00001-00401999999ADDMA1101901999999REMMET053METAR EDHL 171450Z 06005KT CAVOK M00/M04 Q1019 RMK S;
0119101560999992013011715204+53803+010699FM-15+0016EDHL V0200501N002610147019N0112651N1-00101-00401999999ADDGF107991999999999999999999MA1101901999999REMMET066METAR EDHL 171520Z 05005KT 9999 SCT031 BKN049 M01/M04 Q1019 RMK T;
0119101560999992013011715504+53803+010699FM-15+0016EDHL V0200401N002110090019N0112651N1-00101-00301999999ADDGF107991999999999999999999MA1101901999999REMMET066METAR EDHL 171550Z 04004KT 9999 SCT025 BKN030 M01/M03 Q1019 RMK U;
0122101560999992013011716204+53803+010699FM-15+0016EDHL V0200401N002110096019N0112651N1+00001-00301999999ADDGF107991999999999999999999MA1102001999999MW1711REMMET063METAR EDHL 171620Z 04004KT 9999 -SN BKN032 M00/M03 Q1020 RMK V;
0129101560999992013011716504+53803+010699FM-15+0016EDHL V0200301N001510060019N0112651N1+00001-00201999999ADDGF107991999999999999999999MA1102001999999MW1711REMMET070METAR EDHL 171650Z 03003KT 9999 -SN BKN020 BKN050 M00/M02 Q1020 RMK W;
0122101560999992013011717204+53803+010699FM-15+0016EDHL V0200401N002110093019N0112651N1+00001-00201999999ADDGF107991999999999999999999MA1102001999999MW1711REMMET063METAR EDHL 171720Z 04004KT 9999 -SN BKN031 M00/M02 Q1020 RMK X;
0122101560999992013011717504+53803+010699FM-15+0016EDHL V0200301N002110087019N0070001N1+00001-00201999999ADDGF107991999999999999999999MA1102001999999MW1711REMMET063METAR EDHL 171750Z 03004KT 7000 -SN BKN029 M00/M02 Q1020 RMK Y;
0122101560999992013011718204+53803+010699FM-15+0016EDHL V0200101N002110066019N0060001N1+00001-00201999999ADDGF107991999999999999999999MA1102001999999MW1711REMMET063METAR EDHL 171820Z 01004KT 6000 -SN BKN022 M00/M02 Q1020 RMK Z;
0122101560999992013011718504+53803+010699FM-15+0016EDHL V0200101N001510021019N0040001N1+00001-00201999999ADDGF107991999999999999999999MA1102001999999MW1711REMMET063METAR EDHL 171850Z 01003KT 4000 -SN BKN007 M00/M02 Q1020 RMK A;
0122101560999992013011805204+53803+010699FM-15+0016EDHL V0200401N002610111019N0050001N1-00101-00401999999ADDGF107991999999999999999999MA1101691999999MW1711REMMET063METAR EDHL 180520Z 04005KT 5000 -SN BKN037 M01/M04 Q1017 RMK A;
0129101560999992013011805504+53803+010699FM-15+0016EDHL V0200601N002610132019N0050001N1-00101-00401999999ADDGF107991999999999999999999MA1101691999999MW1711REMMET070METAR EDHL 180550Z 06005KT 5000 -SN SCT027 BKN044 M01/M04 Q1017 RMK C;
0122101560999992013011806204+53803+010699FM-15+0016EDHL V0200601N002610102019N0050001N1-00101-00401999999ADDGF107991999999999999999999MA1101691999999MW1711REMMET063METAR EDHL 180620Z 06005KT 5000 -SN BKN034 M01/M04 Q1017 RMK D;
0122101560999992013011806504+53803+010699FM-15+0016EDHL V0200701N002610114019N0090001N1-00101-00401999999ADDGF107991999999999999999999MA1101691999999MW1711REMMET063METAR EDHL 180650Z 07005KT 9000 -SN BKN038 M01/M04 Q1017 RMK E;
0130101560999992013011807204+53803+010699FM-15+0016EDHL V0200601N003110096019N0112651N1-00101-00401999999ADDGF107991999999999999999999MA1101691999999MW1711REMMET071METAR EDHL 180720Z 06006KT 030V090 9999 -SN BKN032 M01/M04 Q1017 RMK F;
0112101560999992013011807504+53803+010699FM-15+0016EDHL V0200701N002612200019N0112651N1-00101-00401999999ADDGF104991999999999999999999MA1101691999999REMMET059METAR EDHL 180750Z 07005KT 9999 SCT033 M01/M04 Q1017 RMK G;
0112101560999992013011808204+53803+010699FM-15+0016EDHL V0200601N002610111019N0112651N1-00101-00401999999ADDGF107991999999999999999999MA1101691999999REMMET059METAR EDHL 180820Z 06005KT 9999 BKN037 M01/M04 Q1017 RMK H;
0122101560999992013011808504+53803+010699FM-15+0016EDHL V0200701N004610102019N0112651N1-00101-00301999999ADDGF107991999999999999999999MA1101591999999MW1711REMMET063METAR EDHL 180850Z 07009KT 9999 -SN BKN034 M01/M03 Q1016 RMK I;
0122101560999992013011809204+53803+010699FM-15+0016EDHL V0200701N004610105019N0090001N1-00101-00301999999ADDGF107991999999999999999999MA1101591999999MW1711REMMET063METAR EDHL 180920Z 07009KT 9000 -SN BKN035 M01/M03 Q1016 RMK J;
0112101560999992013011809504+53803+010699FM-15+0016EDHL V0200701N004110099019N0112651N1-00101-00301999999ADDGF107991999999999999999999MA1101591999999REMMET059METAR EDHL 180950Z 07008KT 9999 BKN033 M01/M03 Q1016 RMK K;
0112101560999992013011810204+53803+010699FM-15+0016EDHL V0200701N004110096019N0112651N1-00101-00301999999ADDGF107991999999999999999999MA1101591999999REMMET059METAR EDHL 181020Z 07008KT 9999 BKN032 M01/M03 Q1016 RMK L;
0112101560999992013011810504+53803+010699FM-15+0016EDHL V0200801N004610081019N0112651N1-00101-00301999999ADDGF107991999999999999999999MA1101491999999REMMET059METAR EDHL 181050Z 08009KT 9999 BKN027 M01/M03 Q1015 RMK M;
0112101560999992013011811204+53803+010699FM-15+0016EDHL V0200801N004610093019N0112651N1-00101-00301999999ADDGF107991999999999999999999MA1101491999999REMMET059METAR EDHL 181120Z 08009KT 9999 BKN031 M01/M03 Q1015 RMK N;
0112101560999992013011811504+53803+010699FM-15+0016EDHL V0200801N004110078019N0112651N1-00101-00301999999ADDGF107991999999999999999999MA1101491999999REMMET059METAR EDHL 181150Z 08008KT 9999 BKN026 M01/M03 Q1015 RMK O;
0112101560999992013011812204+53803+010699FM-15+0016EDHL V0200701N003610078019N0112651N1-00101-00301999999ADDGF107991999999999999999999MA1101391999999REMMET059METAR EDHL 181220Z 07007KT 9999 BKN026 M01/M03 Q1014 RMK P;
0112101560999992013011812504+53803+010699FM-15+0016EDHL V0200701N004110078019N0112651N1-00101-00301999999ADDGF107991999999999999999999MA1101391999999REMMET059METAR EDHL 181250Z 07008KT 9999 BKN026 M01/M03 Q1014 RMK Q;
0112101560999992013011813204+53803+010699FM-15+0016EDHL V0200801N004610048019N0112651N1-00101-00301999999ADDGF107991999999999999999999MA1101391999999REMMET059METAR EDHL 181320Z 08009KT 9999 BKN016 M01/M03 Q1014 RMK R;
0112101560999992013011813504+53803+010699FM-15+0016EDHL V0200801N004110084019N0112651N1-00101-00301999999ADDGF107991999999999999999999MA1101291999999REMMET059METAR EDHL 181350Z 08008KT 9999 BKN028 M01/M03 Q1013 RMK S;
0112101560999992013011814204+53803+010699FM-15+0016EDHL V0200901N004110093019N0112651N1-00101-00401999999ADDGF107991999999999999999999MA1101291999999REMMET059METAR EDHL 181420Z 09008KT 9999 BKN031 M01/M04 Q1013 RMK T;
0119101560999992013011814504+53803+010699FM-15+0016EDHL V0200901N004610111019N0112651N1-00101-00401999999ADDGF107991999999999999999999MA1101291999999REMMET066METAR EDHL 181450Z 09009KT 9999 FEW018 BKN037 M01/M04 Q1013 RMK U;
0119101560999992013011815204+53803+010699FM-15+0016EDHL V0200901N004610090019N0112651N1-00101-00401999999ADDGF107991999999999999999999MA1101291999999REMMET066METAR EDHL 181520Z 09009KT 9999 SCT020 BKN030 M01/M04 Q1013 RMK V;
0112101560999992013011815504+53803+010699FM-15+0016EDHL V0201001N004610087019N0112651N1-00101-00401999999ADDGF107991999999999999999999MA1101291999999REMMET059METAR EDHL 181550Z 10009KT 9999 BKN029 M01/M04 Q1013 RMK W;
0112101560999992013011816204+53803+010699FM-15+0016EDHL V0200901N005110090019N0112651N1-00101-00501999999ADDGF107991999999999999999999MA1101291999999REMMET059METAR EDHL 181620Z 09010KT 9999 BKN030 M01/M05 Q1013 RMK X;
0112101560999992013011816504+53803+010699FM-15+0016EDHL V0200901N006710102019N0112651N1-00101-00601999999ADDGF107991999999999999999999MA1101191999999REMMET059METAR EDHL 181650Z 09013KT 9999 BKN034 M01/M06 Q1012 RMK Y;
0112101560999992013011817204+53803+010699FM-15+0016EDHL V0201001N006710090019N0112651N1-00101-00601999999ADDGF107991999999999999999999MA1101191999999REMMET059METAR EDHL 181720Z 10013KT 9999 BKN030 M01/M06 Q1012 RMK Z;
0120101560999992013011817504+53803+010699FM-15+0016EDHL V0201001N005710075019N0112651N1-00201-00601999999ADDGF107991999999999999999999MA1101191999999REMMET067METAR EDHL 181750Z 10011KT 060V120 9999 BKN025 M02/M06 Q1012 RMK A;
0119101560999992013011818204+53803+010699FM-15+0016EDHL V0201001N006210390019N0112651N1-00201-00701999999ADDGF107991999999999999999999MA1101191999999REMMET066METAR EDHL 181820Z 10012KT 9999 SCT034 BKN130 M02/M07 Q1012 RMK B;
0119101560999992013011818504+53803+010699FM-15+0016EDHL V0200901N004610390019N0112651N1-00201-00601999999ADDGF107991999999999999999999MA1101191999999REMMET066METAR EDHL 181850Z 09009KT 9999 SCT026 BKN130 M02/M06 Q1012 RMK C;
0126101560999992013011819204+53803+010699FM-15+0016EDHL V0200901N004110099019N0112651N1-00301-00601999999ADDGF107991999999999999999999MA1101191999999REMMET073METAR EDHL 181920Z 09008KT 9999 FEW024 BKN033 BKN130 M03/M06 Q1012 RMK D;
0119101560999992013011819504+53803+010699FM-15+0016EDHL V0200901N004610090019N0112651N1-00301-00601999999ADDGF107991999999999999999999MA1101191999999REMMET066METAR EDHL 181950Z 09009KT 9999 BKN030 BKN130 M03/M06 Q1012 RMK E;
0119101560999992013011820204+53803+010699FM-15+0016EDHL V0200901N005110105019N0112651N1-00301-00601999999ADDGF107991999999999999999999MA1101081999999REMMET066METAR EDHL 182020Z 09010KT 9999 BKN035 BKN130 M03/M06 Q1011 RMK F;
0112101560999992013011820504+53803+010699FM-15+0016EDHL V0200901N004110105019N0112651N1-00301-00701999999ADDGF107991999999999999999999MA1101081999999REMMET059METAR EDHL 182050Z 09008KT 9999 BKN035 M03/M07 Q1011 RMK G;
0080101560999992013011906504+53803+010699FM-15+0016EDHL V0200901N003119999999Y0099001N1-00801-01001999999ADDMA1100711999999REMMET053METAR EDHL 190650Z 09006KT CAVOK M08/M10 Q1007 RMK A;
0080101560999992013011907204+53803+010699FM-15+0016EDHL V0200801N003119999999Y0099001N1-00901-01101999999ADDMA1100711999999REMMET053METAR EDHL 190720Z 08006KT CAVOK M09/M11 Q1007 RMK B;
0080101560999992013011908204+53803+010699FM-15+0016EDHL V0200701N004119999999Y0099001N1-00801-01001999999ADDMA1100711999999REMMET053METAR EDHL 190820Z 07008KT CAVOK M08/M10 Q1007 RMK C;
0080101560999992013011908504+53803+010699FM-15+0016EDHL V0200701N005119999999Y0099001N1-00601-00901999999ADDMA1100711999999REMMET053METAR EDHL 190850Z 07010KT CAVOK M06/M09 Q1007 RMK D;
0080101560999992013011909204+53803+010699FM-15+0016EDHL V0200701N005119999999Y0099001N1-00601-00901999999ADDMA1100711999999REMMET053METAR EDHL 190920Z 07010KT CAVOK M06/M09 Q1007 RMK E;
0080101560999992013011909504+53803+010699FM-15+0016EDHL V0200801N005719999999Y0099001N1-00501-00801999999ADDMA1100711999999REMMET053METAR EDHL 190950Z 08011KT CAVOK M05/M08 Q1007 RMK F;
0080101560999992013011910204+53803+010699FM-15+0016EDHL V0200801N005719999999Y0099001N1-00501-00801999999ADDMA1100711999999REMMET053METAR EDHL 191020Z 08011KT CAVOK M05/M08 Q1007 RMK G;
0080101560999992013011910504+53803+010699FM-15+0016EDHL V0200801N006719999999Y0099001N1-00401-00801999999ADDMA1100611999999REMMET053METAR EDHL 191050Z 08013KT CAVOK M04/M08 Q1006 RMK H;
