0142101624999992015010204204+53427+011783FM-15+005199999V0202301N008810061019N009999199+00601+00201999999ADDGA1071+006101999GE19MSL   +99999+99999GF199999071999006101999999MA1101301999999REMMET051METAR EDOP 020420Z 23017KT 9999 BKN020 06/02 Q1013=
0163101624999992015010204274+53427+011783FM-16+005199999V0202301N009310045719N009999199+00601+00201999999ADDGA1071+004571999GE19MSL   +99999+99999GF199999071999004571999999MA1101301999999MW1611OC101491REMMET058SPECI EDOP 020427Z 23018G29KT 9999 -RA BKN015 06/02 Q1013=
0151101624999992015010204504+53427+011783FM-15+005199999V0202301N008210045719N006000199+00501+00401999999ADDGA1071+004571999GE19MSL   +99999+99999GF199999071999004571999999MA1101301999999MW1631REMMET054METAR EDOP 020450Z 23016KT 6000 RA BKN015 05/04 Q1013=
0151101624999992015010205204+53427+011783FM-15+005199999V0202301N008210036619N006000199+00501+00401999999ADDGA1071+003661999GE19MSL   +99999+99999GF199999071999003661999999MA1101201999999MW1631REMMET054METAR EDOP 020520Z 23016KT 6000 RA BKN012 05/04 Q1012=
0142101624999992015010205504+53427+011783FM-15+005199999V0202301N009310030519N009999199+00501+00401999999ADDGA1071+003051999GE19MSL   +99999+99999GF199999071999003051999999MA1101201999999REMMET051METAR EDOP 020550Z 23018KT 9999 BKN010 05/04 Q1012=
0142101624999992015010206204+53427+011783FM-15+005199999V0202301N009810030519N009999199+00601+00501999999ADDGA1071+003051999GE19MSL   +99999+99999GF199999071999003051999999MA1101201999999REMMET051METAR EDOP 020620Z 23019KT 9999 BKN010 06/05 Q1012=
0142101624999992015010206504+53427+011783FM-15+005199999V0202301N010310027419N009999199+00601+00501999999ADDGA1071+002741999GE19MSL   +99999+99999GF199999071999002741999999MA1101201999999REMMET051METAR EDOP 020650Z 23020KT 9999 BKN009 06/05 Q1012=
0151101624999992015010207204+53427+011783FM-15+005199999V0202401N009310024419N007000199+00601+00501999999ADDGA1071+002441999GE19MSL   +99999+99999GF199999071999002441999999MA1101201999999MW1531REMMET054METAR EDOP 020720Z 24018KT 7000 DZ BKN008 06/05 Q1012=
0142101624999992015010207504+53427+011783FM-15+005199999V0202301N009310024419N009000199+00601+00501999999ADDGA1071+002441999GE19MSL   +99999+99999GF199999071999002441999999MA1101201999999REMMET051METAR EDOP 020750Z 23018KT 9000 BKN008 06/05 Q1012=
0142101624999992015010208204+53427+011783FM-15+005199999V0202301N010310024419N009000199+00601+00501999999ADDGA1071+002441999GE19MSL   +99999+99999GF199999071999002441999999MA1101201999999REMMET051METAR EDOP 020820Z 23020KT 9000 BKN008 06/05 Q1012=
0152101624999992015010208504+53427+011783FM-15+005199999V0202401N010310024419N009999199+00701+00601999999ADDGA1071+002441999GE19MSL   +99999+99999GF199999071999002441999999MA1101201999999MW1611REMMET055METAR EDOP 020850Z 24020KT 9999 -RA BKN008 07/06 Q1012=
0142101624999992015010209204+53427+011783FM-15+005199999V0202401N010310024419N009999199+00701+00601999999ADDGA1071+002441999GE19MSL   +99999+99999GF199999071999002441999999MA1101201999999REMMET051METAR EDOP 020920Z 24020KT 9999 BKN008 07/06 Q1012=
0142101624999992015010209504+53427+011783FM-15+005199999V0202401N010310030519N009999199+00801+00601999999ADDGA1071+003051999GE19MSL   +99999+99999GF199999071999003051999999MA1101201999999REMMET051METAR EDOP 020950Z 24020KT 9999 BKN010 08/06 Q1012=
0142101624999992015010210204+53427+011783FM-15+005199999V0202401N009310036619N009999199+00801+00601999999ADDGA1071+003661999GE19MSL   +99999+99999GF199999071999003661999999MA1101201999999REMMET051METAR EDOP 021020Z 24018KT 9999 BKN012 08/06 Q1012=
0142101624999992015010210504+53427+011783FM-15+005199999V0202501N009310042719N009999199+00801+00601999999ADDGA1071+004271999GE19MSL   +99999+99999GF199999071999004271999999MA1101301999999REMMET051METAR EDOP 021050Z 25018KT 9999 BKN014 08/06 Q1013=
0153101624999992015010211504+53427+011783FM-15+005199999V0202701N013419999999N009999199+00801+00201999999ADDGA1041+010361999GE19MSL   +99999+99999GF199999041999010361999999MA1101301999999OC102061REMMET054METAR EDOP 021150Z 27026G40KT 9999 SCT034 08/02 Q1013=
0153101624999992015010212204+53427+011783FM-15+005199999V0202701N011319999999N009999199+00801+00201999999ADDGA1041+012191999GE19MSL   +99999+99999GF199999041999012191999999MA1101401999999OC101801REMMET054METAR EDOP 021220Z 27022G35KT 9999 SCT040 08/02 Q1014=
0142101624999992015010212504+53427+011783FM-15+005199999V0202601N010810106719N009999199+00801+00201999999ADDGA1071+010671999GE19MSL   +99999+99999GF199999071999010671999999MA1101401999999REMMET051METAR EDOP 021250Z 26021KT 9999 BKN035 08/02 Q1014=
0176101624999992015010212594+53427+011783FM-16+005199999V0202601N010310112819N009999199+00801+00201999999ADDGA1071+011281999GA2081+014021999GE19MSL   +99999+99999GF199999071999011281999999MA1101401999999OC101601REMMET061SPECI EDOP 021259Z 26020G31KT 9999 BKN037 OVC046 08/02 Q1014=
0165101624999992015010213204+53427+011783FM-15+005199999V0202701N009310115819N009999199+00801+00201999999ADDGA1071+011581999GA2081+016151999GE19MSL   +99999+99999GF199999071999011581999999MA1101401999999REMMET058METAR EDOP 021320Z 27018KT 9999 BKN038 OVC053 08/02 Q1014=
0176101624999992015010213244+53427+011783FM-16+005199999V0202701N010810118919N009999199+00801+00201999999ADDGA1071+011891999GA2081+016761999GE19MSL   +99999+99999GF199999071999011891999999MA1101401999999OC101651REMMET061SPECI EDOP 021324Z 27021G32KT 9999 BKN039 OVC055 08/02 Q1014=
0176101624999992015010213474+53427+011783FM-16+005199999V0202701N011310118919N009999199+00801+00101999999ADDGA1071+011891999GA2081+015541999GE19MSL   +99999+99999GF199999071999011891999999MA1101501999999OC101701REMMET061SPECI EDOP 021347Z 27022G33KT 9999 BKN039 OVC051 08/01 Q1015=
0165101624999992015010213504+53427+011783FM-15+005199999V0202701N011310118919N009999199+00801+00101999999ADDGA1071+011891999GA2081+016151999GE19MSL   +99999+99999GF199999071999011891999999MA1101501999999REMMET058METAR EDOP 021350Z 27022KT 9999 BKN039 OVC053 08/01 Q1015=
0153101624999992015010214194+53427+011783FM-16+005199999V0202601N009810146319N009999199+00801+00101999999ADDGA1081+014631999GE19MSL   +99999+99999GF199999081999014631999999MA1101501999999OC101491REMMET054SPECI EDOP 021419Z 26019G29KT 9999 OVC048 08/01 Q1015=
0165101624999992015010214204+53427+011783FM-15+005199999V0202601N010310143319N009999199+00701+00101999999ADDGA1071+014331999GA2081+020121999GE19MSL   +99999+99999GF199999071999014331999999MA1101501999999REMMET058METAR EDOP 021420Z 26020KT 9999 BKN047 OVC066 07/01 Q1015=
0188101624999992015010214504+53427+011783FM-15+005199999V0202701N010310100619N009999199+00701+00201999999ADDGA1071+010061999GA2081+014631999GE19MSL   +99999+99999GF199999071999010061999999MA1101601999999MW1801OC101851REMMET067METAR EDOP 021450Z 27020G36KT 9999 -SHRA BKN033 OVC048 07/02 Q1016=
0165101624999992015010215204+53427+011783FM-15+005199999V0202701N007710112819N009999199+00601+00201999999ADDGA1021+006401999GA2071+011281999GE19MSL   +99999+99999GF199999021999006401999999MA1101601999999REMMET058METAR EDOP 021520Z 27015KT 9999 FEW021 BKN037 06/02 Q1016=
0142101624999992015010215504+53427+011783FM-15+005199999V0202701N007210106719N009999199+00701+00101999999ADDGA1081+010671999GE19MSL   +99999+99999GF199999081999010671999999MA1101601999999REMMET051METAR EDOP 021550Z 27014KT 9999 OVC035 07/01 Q1016=
0188101624999992015010216204+53427+011783FM-15+005199999V0202601N008210100619N009999199+00601+00101999999ADDGA1021+005791999GA2071+010061999GA3071+015541999GE19MSL   +99999+99999GF199999021999005791999999MA1101601999999REMMET065METAR EDOP 021620Z 26016KT 9999 FEW019 BKN033 BKN051 06/01 Q1016=
0153101624999992015010216344+53427+011783FM-16+005199999V0202601N009810106719N009999199+00701+00101999999ADDGA1071+010671999GE19MSL   +99999+99999GF199999071999010671999999MA1101601999999OC101541REMMET054SPECI EDOP 021634Z 26019G30KT 9999 BKN035 07/01 Q1016=
0153101624999992015010216504+53427+011783FM-15+005199999V0202601N010319999999N009999199+00601+00101999999ADDGA1041+010971999GE19MSL   +99999+99999GF199999041999010971999999MA1101701999999OC101801REMMET054METAR EDOP 021650Z 26020G35KT 9999 SCT036 06/01 Q1017=
0153101624999992015010304204+53427+011783FM-15+005199999V0202501N009819999999N009999199+00401+00101999999ADDGA1021+006711999GE19MSL   +99999+99999GF199999021999006711999999MA1101901999999OC101491REMMET054METAR EDOP 030420Z 25019G29KT 9999 FEW022 04/01 Q1019=
0142101624999992015010304504+53427+011783FM-15+005199999V0202501N009819999999N009999199+00401+00101999999ADDGA1041+005791999GE19MSL   +99999+99999GF199999041999005791999999MA1101801999999REMMET051METAR EDOP 030450Z 25019KT 9999 SCT019 04/01 Q1018=
0142101624999992015010305204+53427+011783FM-15+005199999V0202401N010810054919N009999199+00401+00101999999ADDGA1071+005491999GE19MSL   +99999+99999GF199999071999005491999999MA1101801999999REMMET051METAR EDOP 030520Z 24021KT 9999 BKN018 04/01 Q1018=
0153101624999992015010305434+53427+011783FM-16+005199999V0202501N010310054919N009999199+00401+00101999999ADDGA1071+005491999GE19MSL   +99999+99999GF199999071999005491999999MA1101801999999OC101541REMMET054SPECI EDOP 030543Z 25020G30KT 9999 BKN018 04/01 Q1018=
0153101624999992015010305504+53427+011783FM-15+005199999V0202401N010310054919N009999199+00401+00101999999ADDGA1071+005491999GE19MSL   +99999+99999GF199999071999005491999999MA1101801999999OC101541REMMET054METAR EDOP 030550Z 24020G30KT 9999 BKN018 04/01 Q1018=
0142101624999992015010306204+53427+011783FM-15+005199999V0202401N010810054919N009999199+00401+00101999999ADDGA1071+005491999GE19MSL   +99999+99999GF199999071999005491999999MA1101801999999REMMET051METAR EDOP 030620Z 24021KT 9999 BKN018 04/01 Q1018=
0142101624999992015010306504+53427+011783FM-15+005199999V0202401N010319999999N009999199+00401+00101999999ADDGA1041+005491999GE19MSL   +99999+99999GF199999041999005491999999MA1101801999999REMMET051METAR EDOP 030650Z 24020KT 9999 SCT018 04/01 Q1018=
0142101624999992015010307204+53427+011783FM-15+005199999V0202401N008219999999N009999199+00301+00001999999ADDGA1021+006101999GE19MSL   +99999+99999GF199999021999006101999999MA1101701999999REMMET051METAR EDOP 030720Z 24016KT 9999 FEW020 03/00 Q1017=
0073101624999992015010307504+53427+011783FM-15+005199999V0202401N008219999999Y999999999+00301-00101999999ADDMA1101701999999REMMET046METAR EDOP 030750Z 24016KT CAVOK 03/M01 Q1017=
0073101624999992015010308204+53427+011783FM-15+005199999V0202301N008219999999Y999999999+00401-00101999999ADDMA1101601999999REMMET046METAR EDOP 030820Z 23016KT CAVOK 04/M01 Q1016=
0073101624999992015010308504+53427+011783FM-15+005199999V0202301N008819999999Y999999999+00301+00001999999ADDMA1101601999999REMMET046METAR EDOP 030850Z 23017KT CAVOK 03/M00 Q1016=
0073101624999992015010309204+53427+011783FM-15+005199999V0202401N008819999999Y999999999+00401+00001999999ADDMA1101601999999REMMET046METAR EDOP 030920Z 24017KT CAVOK 04/M00 Q1016=
0073101624999992015010309504+53427+011783FM-15+005199999V0202401N009319999999Y999999999+00401+00001999999ADDMA1101601999999REMMET046METAR EDOP 030950Z 24018KT CAVOK 04/M00 Q1016=
0073101624999992015010310204+53427+011783FM-15+005199999V0202401N010819999999Y999999999+00501+00001999999ADDMA1101501999999REMMET046METAR EDOP 031020Z 24021KT CAVOK 05/M00 Q1015=
0072101624999992015010310504+53427+011783FM-15+005199999V0202501N010819999999Y999999999+00501+00001999999ADDMA1101501999999REMMET045METAR EDOP 031050Z 25021KT CAVOK 05/00 Q1015=
0154101624999992015010311044+53427+011783FM-16+005199999V0202501N009819999999N009999199+00501+00001999999ADDGA1021+009141999GE19MSL   +99999+99999GF199999021999009141999999MA1101401999999OC101491REMMET055SPECI EDOP 031104Z 25019G29KT 9999 FEW030 05/M00 Q1014=
0142101624999992015010311204+53427+011783FM-15+005199999V0202501N010319999999N009999199+00501+00001999999ADDGA1041+008841999GE19MSL   +99999+99999GF199999041999008841999999MA1101401999999REMMET051METAR EDOP 031120Z 25020KT 9999 SCT029 05/00 Q1014=
0142101624999992015010311504+53427+011783FM-15+005199999V0202501N010310076219N009999199+00501+00101999999ADDGA1071+007621999GE19MSL   +99999+99999GF199999071999007621999999MA1101401999999REMMET051METAR EDOP 031150Z 25020KT 9999 BKN025 05/01 Q1014=
0142101624999992015010312204+53427+011783FM-15+005199999V0202501N009310070119N009999199+00501+00101999999ADDGA1071+007011999GE19MSL   +99999+99999GF199999071999007011999999MA1101301999999REMMET051METAR EDOP 031220Z 25018KT 9999 BKN023 05/01 Q1013=
0142101624999992015010312504+53427+011783FM-15+005199999V0202501N009310067119N009999199+00501+00101999999ADDGA1071+006711999GE19MSL   +99999+99999GF199999071999006711999999MA1101201999999REMMET051METAR EDOP 031250Z 25018KT 9999 BKN022 05/01 Q1012=
0142101624999992015010313204+53427+011783FM-15+005199999V0202501N009310067119N009999199+00501+00101999999ADDGA1071+006711999GE19MSL   +99999+99999GF199999071999006711999999MA1101201999999REMMET051METAR EDOP 031320Z 25018KT 9999 BKN022 05/01 Q1012=
0142101624999992015010313504+53427+011783FM-15+005199999V0202401N010310067119N009999199+00501+00101999999ADDGA1071+006711999GE19MSL   +99999+99999GF199999071999006711999999MA1101101999999REMMET051METAR EDOP 031350Z 24020KT 9999 BKN022 05/01 Q1011=
0175101624999992015010314204+53427+011783FM-15+005199999V0202501N008810057919N009000199+00401+00201999999ADDGA1021+002131999GA2071+005791999GE19MSL   +99999+99999GF199999021999002131999999MA1101101999999MW1511REMMET062METAR EDOP 031420Z 25017KT 9000 -DZ FEW007 BKN019 04/02 Q1011=
0175101624999992015010314504+53427+011783FM-15+005199999V0202501N007710054919N008000199+00501+00201999999ADDGA1021+001831999GA2071+005491999GE19MSL   +99999+99999GF199999021999001831999999MA1101101999999MW1511REMMET062METAR EDOP 031450Z 25015KT 8000 -DZ FEW006 BKN018 05/02 Q1011=
0142101624999992015010315204+53427+011783FM-15+005199999V0202501N007710051819N009000199+00501+00301999999ADDGA1071+005181999GE19MSL   +99999+99999GF199999071999005181999999MA1101101999999REMMET051METAR EDOP 031520Z 25015KT 9000 BKN017 05/03 Q1011=
0163101624999992015010315344+53427+011783FM-16+005199999V0202501N007710051819N009000199+00501+00301999999ADDGA1071+005181999GE19MSL   +99999+99999GF199999071999005181999999MA1101101999999MW1611OC101291REMMET058SPECI EDOP 031534Z 25015G25KT 9000 -RA BKN017 05/03 Q1011=
0152101624999992015010315504+53427+011783FM-15+005199999V0202501N008210048819N009000199+00401+00301999999ADDGA1071+004881999GE19MSL   +99999+99999GF199999071999004881999999MA1101001999999MW1611REMMET055METAR EDOP 031550Z 25016KT 9000 -RA BKN016 04/03 Q1010=
0142101624999992015010316204+53427+011783FM-15+005199999V0202501N007710042719N009000199+00401+00301999999ADDGA1071+004271999GE19MSL   +99999+99999GF199999071999004271999999MA1101001999999REMMET051METAR EDOP 031620Z 25015KT 9000 BKN014 04/03 Q1010=
0151101624999992015010316504+53427+011783FM-15+005199999V0202601N006710036619N006000199+00401+00301999999ADDGA1071+003661999GE19MSL   +99999+99999GF199999071999003661999999MA1101101999999MW1631REMMET054METAR EDOP 031650Z 26013KT 6000 RA BKN012 04/03 Q1011=
0072101624999992015010404204+53427+011783FM-15+005199999V0202701N006719999999Y999999999+00201+00101999999ADDMA1101701999999REMMET045METAR EDOP 040420Z 27013KT CAVOK 02/01 Q1017=
0142101624999992015010404504+53427+011783FM-15+005199999V0202801N005119999999N009999199+00201+00101999999ADDGA1041+004271999GE19MSL   +99999+99999GF199999041999004271999999MA1101801999999REMMET051METAR EDOP 040450Z 28010KT 9999 SCT014 02/01 Q1018=
0072101624999992015010405204+53427+011783FM-15+005199999V0202701N006219999999Y999999999+00201+00101999999ADDMA1101801999999REMMET045METAR EDOP 040520Z 27012KT CAVOK 02/01 Q1018=
0072101624999992015010405504+53427+011783FM-15+005199999V0202701N005119999999Y999999999+00201+00001999999ADDMA1101901999999REMMET045METAR EDOP 040550Z 27010KT CAVOK 02/00 Q1019=
0072101624999992015010406204+53427+011783FM-15+005199999V0202701N005719999999Y999999999+00201+00001999999ADDMA1101901999999REMMET045METAR EDOP 040620Z 27011KT CAVOK 02/00 Q1019=
0072101624999992015010406504+53427+011783FM-15+005199999V0202701N005119999999Y999999999+00201+00001999999ADDMA1101901999999REMMET045METAR EDOP 040650Z 27010KT CAVOK 02/00 Q1019=
0072101624999992015010407204+53427+011783FM-15+005199999V0202701N005719999999Y999999999+00201+00001999999ADDMA1101901999999REMMET045METAR EDOP 040720Z 27011KT CAVOK 02/00 Q1019=
0072101624999992015010407504+53427+011783FM-15+005199999V0202701N004119999999Y999999999+00201+00001999999ADDMA1102001999999REMMET045METAR EDOP 040750Z 27008KT CAVOK 02/00 Q1020=
0072101624999992015010408204+53427+011783FM-15+005199999V0202701N005119999999Y999999999+00101+00001999999ADDMA1102101999999REMMET045METAR EDOP 040820Z 27010KT CAVOK 01/00 Q1021=
0142101624999992015010408504+53427+011783FM-15+005199999V0202801N005719999999N009999199+00201+00001999999ADDGA1021+007921999GE19MSL   +99999+99999GF199999021999007921999999MA1102101999999REMMET051METAR EDOP 040850Z 28011KT 9999 FEW026 02/00 Q1021=
0072101624999992015010409204+53427+011783FM-15+005199999V0202701N006219999999Y999999999+00301+00001999999ADDMA1102201999999REMMET045METAR EDOP 040920Z 27012KT CAVOK 03/00 Q1022=
0150101624999992015010409504+53427+011783FM-15+005199999V0202801V006219999999N009999199+00301+00101999999ADDGA1041+005491999GE19MSL   +99999+99999GF199999041999005491999999MA1102201999999REMMET059METAR EDOP 040950Z 28012KT 260V320 9999 SCT018 03/01 Q1022=
0142101624999992015010410204+53427+011783FM-15+005199999V0202901N005719999999N009999199+00401+00101999999ADDGA1041+005491999GE19MSL   +99999+99999GF199999041999005491999999MA1102301999999REMMET051METAR EDOP 041020Z 29011KT 9999 SCT018 04/01 Q1023=
0150101624999992015010410504+53427+011783FM-15+005199999V0203001V006219999999N009999199+00401+00101999999ADDGA1021+006101999GE19MSL   +99999+99999GF199999021999006101999999MA1102301999999REMMET059METAR EDOP 041050Z 30012KT 260V320 9999 FEW020 04/01 Q1023=
0150101624999992015010411204+53427+011783FM-15+005199999V0202901V005719999999N009999199+00501+00101999999ADDGA1021+006101999GE19MSL   +99999+99999GF199999021999006101999999MA1102301999999REMMET059METAR EDOP 041120Z 29011KT 260V320 9999 FEW020 05/01 Q1023=
0142101624999992015010411504+53427+011783FM-15+005199999V0202901N007219999999N009999199+00501+00101999999ADDGA1041+006711999GE19MSL   +99999+99999GF199999041999006711999999MA1102301999999REMMET051METAR EDOP 041150Z 29014KT 9999 SCT022 05/01 Q1023=
0150101624999992015010412204+53427+011783FM-15+005199999V0203001V005710070119N009999199+00501+00101999999ADDGA1071+007011999GE19MSL   +99999+99999GF199999071999007011999999MA1102301999999REMMET059METAR EDOP 041220Z 30011KT 270V330 9999 BKN023 05/01 Q1023=
0150101624999992015010412504+53427+011783FM-15+005199999V0203001V006210073219N009999199+00501+00101999999ADDGA1071+007321999GE19MSL   +99999+99999GF199999071999007321999999MA1102401999999REMMET059METAR EDOP 041250Z 30012KT 260V060 9999 BKN024 05/01 Q1024=
0142101624999992015010413204+53427+011783FM-15+005199999V0202901N006710073219N009999199+00501+00101999999ADDGA1071+007321999GE19MSL   +99999+99999GF199999071999007321999999MA1102401999999REMMET051METAR EDOP 041320Z 29013KT 9999 BKN024 05/01 Q1024=
0142101624999992015010413504+53427+011783FM-15+005199999V0202901N006210085319N009999199+00501+00101999999ADDGA1071+008531999GE19MSL   +99999+99999GF199999071999008531999999MA1102401999999REMMET051METAR EDOP 041350Z 29012KT 9999 BKN028 05/01 Q1024=
0142101624999992015010414204+53427+011783FM-15+005199999V0202901N005719999999N009999199+00401+00101999999ADDGA1041+008231999GE19MSL   +99999+99999GF199999041999008231999999MA1102501999999REMMET051METAR EDOP 041420Z 29011KT 9999 SCT027 04/01 Q1025=
0142101624999992015010415204+53427+011783FM-15+005199999V0202901N005119999999N009999199+00301+00001999999ADDGA1021+009751999GE19MSL   +99999+99999GF199999021999009751999999MA1102501999999REMMET051METAR EDOP 041520Z 29010KT 9999 FEW032 03/00 Q1025=
0142101624999992015010415504+53427+011783FM-15+005199999V0202901N005119999999N009999199+00401+00001999999ADDGA1021+010061999GE19MSL   +99999+99999GF199999021999010061999999MA1102601999999REMMET051METAR EDOP 041550Z 29010KT 9999 FEW033 04/00 Q1026=
0143101624999992015010416204+53427+011783FM-15+005199999V0202901N004119999999N009999199+00301-00101999999ADDGA1021+009141999GE19MSL   +99999+99999GF199999021999009141999999MA1102601999999REMMET052METAR EDOP 041620Z 29008KT 9999 FEW030 03/M01 Q1026=
0143101624999992015010416504+53427+011783FM-15+005199999V0202801N002619999999N009999199+00201-00101999999ADDGA1021+009141999GE19MSL   +99999+99999GF199999021999009141999999MA1102601999999REMMET052METAR EDOP 041650Z 28005KT 9999 FEW030 02/M01 Q1026=
0152101624999992015010504204+53427+011783FM-15+005199999V0202601N006210051819N009999199+00401+00201999999ADDGA1071+005181999GE19MSL   +99999+99999GF199999071999005181999999MA1102601999999MW1511REMMET055METAR EDOP 050420Z 26012KT 9999 -DZ BKN017 04/02 Q1026=
0175101624999992015010504504+53427+011783FM-15+005199999V0202601N006710048819N009999199+00401+00201999999ADDGA1021+003961999GA2071+004881999GE19MSL   +99999+99999GF199999021999003961999999MA1102601999999MW1511REMMET062METAR EDOP 050450Z 26013KT 9999 -DZ FEW013 BKN016 04/02 Q1026=
0152101624999992015010505204+53427+011783FM-15+005199999V0202601N005710033519N008000199+00301+00201999999ADDGA1071+003351999GE19MSL   +99999+99999GF199999071999003351999999MA1102601999999MW1511REMMET055METAR EDOP 050520Z 26011KT 8000 -DZ BKN011 03/02 Q1026=
0142101624999992015010505504+53427+011783FM-15+005199999V0202601N005110036619N009999199+00401+00201999999ADDGA1071+003661999GE19MSL   +99999+99999GF199999071999003661999999MA1102601999999REMMET051METAR EDOP 050550Z 26010KT 9999 BKN012 04/02 Q1026=
0165101624999992015010506204+53427+011783FM-15+005199999V0202601N005110042719N009999199+00401+00301999999ADDGA1021+003051999GA2071+004271999GE19MSL   +99999+99999GF199999021999003051999999MA1102601999999REMMET058METAR EDOP 050620Z 26010KT 9999 FEW010 BKN014 04/03 Q1026=
0142101624999992015010506504+53427+011783FM-15+005199999V0202601N004610042719N009999199+00401+00301999999ADDGA1071+004271999GE19MSL   +99999+99999GF199999071999004271999999MA1102601999999REMMET051METAR EDOP 050650Z 26009KT 9999 BKN014 04/03 Q1026=
0142101624999992015010507204+53427+011783FM-15+005199999V0202601N005710042719N009999199+00401+00301999999ADDGA1071+004271999GE19MSL   +99999+99999GF199999071999004271999999MA1102601999999REMMET051METAR EDOP 050720Z 26011KT 9999 BKN014 04/03 Q1026=
0142101624999992015010507504+53427+011783FM-15+005199999V0202701N005710039619N009999199+00401+00301999999ADDGA1071+003961999GE19MSL   +99999+99999GF199999071999003961999999MA1102601999999REMMET051METAR EDOP 050750Z 27011KT 9999 BKN013 04/03 Q1026=
0142101624999992015010508204+53427+011783FM-15+005199999V0202701N005710033519N009999199+00401+00301999999ADDGA1071+003351999GE19MSL   +99999+99999GF199999071999003351999999MA1102601999999REMMET051METAR EDOP 050820Z 27011KT 9999 BKN011 04/03 Q1026=
0142101624999992015010508504+53427+011783FM-15+005199999V0202701N005710033519N009999199+00401+00301999999ADDGA1071+003351999GE19MSL   +99999+99999GF199999071999003351999999MA1102601999999REMMET051METAR EDOP 050850Z 27011KT 9999 BKN011 04/03 Q1026=
0142101624999992015010509204+53427+011783FM-15+005199999V0202601N005710033519N009999199+00401+00301999999ADDGA1071+003351999GE19MSL   +99999+99999GF199999071999003351999999MA1102601999999REMMET051METAR EDOP 050920Z 26011KT 9999 BKN011 04/03 Q1026=
0142101624999992015010509504+53427+011783FM-15+005199999V0202601N006210033519N009999199+00401+00201999999ADDGA1071+003351999GE19MSL   +99999+99999GF199999071999003351999999MA1102601999999REMMET051METAR EDOP 050950Z 26012KT 9999 BKN011 04/02 Q1026=
0142101624999992015010510204+53427+011783FM-15+005199999V0202601N006710036619N009999199+00401+00201999999ADDGA1071+003661999GE19MSL   +99999+99999GF199999071999003661999999MA1102601999999REMMET051METAR EDOP 051020Z 26013KT 9999 BKN012 04/02 Q1026=
0161101624999992015010510504+53427+011783FM-15+005199999V0202601V005110033519N009999199+00401+00201999999ADDGA1071+003351999GE19MSL   +99999+99999GF199999071999003351999999MA1102601999999OC101031REMMET062METAR EDOP 051050Z 26010G20KT 240V310 9999 BKN011 04/02 Q1026=
0142101624999992015010511204+53427+011783FM-15+005199999V0202701N006710039619N009999199+00401+00201999999ADDGA1071+003961999GE19MSL   +99999+99999GF199999071999003961999999MA1102601999999REMMET051METAR EDOP 051120Z 27013KT 9999 BKN013 04/02 Q1026=
0165101624999992015010511504+53427+011783FM-15+005199999V0202701N006210067119N009999199+00401+00201999999ADDGA1021+003961999GA2071+006711999GE19MSL   +99999+99999GF199999021999003961999999MA1102601999999REMMET058METAR EDOP 051150Z 27012KT 9999 FEW013 BKN022 04/02 Q1026=
0165101624999992015010512204+53427+011783FM-15+005199999V0202801N005710036619N009999199+00401+00201999999ADDGA1071+003661999GA2081+007011999GE19MSL   +99999+99999GF199999071999003661999999MA1102601999999REMMET058METAR EDOP 051220Z 28011KT 9999 BKN012 OVC023 04/02 Q1026=
0165101624999992015010512504+53427+011783FM-15+005199999V0202801N005710036619N009999199+00401+00201999999ADDGA1071+003661999GA2081+005491999GE19MSL   +99999+99999GF199999071999003661999999MA1102601999999REMMET058METAR EDOP 051250Z 28011KT 9999 BKN012 OVC018 04/02 Q1026=
0165101624999992015010513204+53427+011783FM-15+005199999V0202801N005110030519N009999199+00401+00201999999ADDGA1071+003051999GA2081+004571999GE19MSL   +99999+99999GF199999071999003051999999MA1102601999999REMMET058METAR EDOP 051320Z 28010KT 9999 BKN010 OVC015 04/02 Q1026=
0142101624999992015010513504+53427+011783FM-15+005199999V0202801N005110030519N009999199+00401+00201999999ADDGA1081+003051999GE19MSL   +99999+99999GF199999081999003051999999MA1102601999999REMMET051METAR EDOP 051350Z 28010KT 9999 OVC010 04/02 Q1026=
0142101624999992015010514204+53427+011783FM-15+005199999V0202801N004610027419N009999199+00401+00201999999ADDGA1081+002741999GE19MSL   +99999+99999GF199999081999002741999999MA1102701999999REMMET051METAR EDOP 051420Z 28009KT 9999 OVC009 04/02 Q1027=
0142101624999992015010514504+53427+011783FM-15+005199999V0202801N003610027419N009999199+00401+00301999999ADDGA1081+002741999GE19MSL   +99999+99999GF199999081999002741999999MA1102701999999REMMET051METAR EDOP 051450Z 28007KT 9999 OVC009 04/03 Q1027=
0142101624999992015010515204+53427+011783FM-15+005199999V0202701N003610030519N009999199+00401+00301999999ADDGA1081+003051999GE19MSL   +99999+99999GF199999081999003051999999MA1102701999999REMMET051METAR EDOP 051520Z 27007KT 9999 OVC010 04/03 Q1027=
0142101624999992015010515504+53427+011783FM-15+005199999V0202701N003110033519N009999199+00401+00301999999ADDGA1081+003351999GE19MSL   +99999+99999GF199999081999003351999999MA1102701999999REMMET051METAR EDOP 051550Z 27006KT 9999 OVC011 04/03 Q1027=
0165101624999992015010516504+53427+011783FM-15+005199999V0202601N003610030519N009999199+00401+00301999999ADDGA1071+003051999GA2081+006101999GE19MSL   +99999+99999GF199999071999003051999999MA1102701999999REMMET058METAR EDOP 051650Z 26007KT 9999 BKN010 OVC020 04/03 Q1027=
0151101624999992015010604204+53427+011783FM-15+005199999V0202001N002110009119N001500199+00301+00201999999ADDGA1081+000911999GE19MSL   +99999+99999GF199999081999000911999999MA1102601999999MW1101REMMET054METAR EDOP 060420Z 20004KT 1500 BR OVC003 03/02 Q1026=
0151101624999992015010604504+53427+011783FM-15+005199999V0201701N001510006119N002000199+00301+00201999999ADDGA1081+000611999GE19MSL   +99999+99999GF199999081999000611999999MA1102601999999MW1101REMMET054METAR EDOP 060450Z 17003KT 2000 BR OVC002 03/02 Q1026=
0151101624999992015010605204+53427+011783FM-15+005199999V0201901N002110006119N002000199+00301+00201999999ADDGA1081+000611999GE19MSL   +99999+99999GF199999081999000611999999MA1102601999999MW1101REMMET054METAR EDOP 060520Z 19004KT 2000 BR OVC002 03/02 Q1026=
0151101624999992015010605504+53427+011783FM-15+005199999V0201701N001510009119N002000199+00301+00201999999ADDGA1081+000911999GE19MSL   +99999+99999GF199999081999000911999999MA1102601999999MW1101REMMET054METAR EDOP 060550Z 17003KT 2000 BR OVC003 03/02 Q1026=
0161101624999992015010606204+53427+011783FM-15+005199999V0201501N001510012219N001900199+00301+00201999999ADDGA1081+001221999GE19MSL   +99999+99999GF199999081999001221999999MA1102601999999MW1101MW2511REMMET058METAR EDOP 060620Z 15003KT 1900 -DZ BR OVC004 03/02 Q1026=
0151101624999992015010606504+53427+011783FM-15+005199999V0201501N002110009119N002200199+00201+00201999999ADDGA1081+000911999GE19MSL   +99999+99999GF199999081999000911999999MA1102601999999MW1101REMMET054METAR EDOP 060650Z 15004KT 2200 BR OVC003 02/02 Q1026=
0159101624999992015010607204+53427+011783FM-15+005199999V0201301V002610009119N002200199+00201+00201999999ADDGA1081+000911999GE19MSL   +99999+99999GF199999081999000911999999MA1102601999999MW1101REMMET062METAR EDOP 060720Z 13005KT 090V150 2200 BR OVC003 02/02 Q1026=
0151101624999992015010607504+53427+011783FM-15+005199999V0201501N001510009119N002000199+00201+00201999999ADDGA1081+000911999GE19MSL   +99999+99999GF199999081999000911999999MA1102601999999MW1101REMMET054METAR EDOP 060750Z 15003KT 2000 BR OVC003 02/02 Q1026=
0174101624999992015010608204+53427+011783FM-15+005199999V0201301N002110012219N002500199+00201+00201999999ADDGA1071+001221999GA2081+002441999GE19MSL   +99999+99999GF199999071999001221999999MA1102601999999MW1101REMMET061METAR EDOP 060820Z 13004KT 2500 BR BKN004 OVC008 02/02 Q1026=
0151101624999992015010608504+53427+011783FM-15+005199999V0201401N003110015219N003300199+00301+00201999999ADDGA1081+001521999GE19MSL   +99999+99999GF199999081999001521999999MA1102601999999MW1101REMMET054METAR EDOP 060850Z 14006KT 3300 BR OVC005 03/02 Q1026=
0151101624999992015010609204+53427+011783FM-15+005199999V0201401N004110015219N004500199+00301+00201999999ADDGA1081+001521999GE19MSL   +99999+99999GF199999081999001521999999MA1102601999999MW1101REMMET054METAR EDOP 060920Z 14008KT 4500 BR OVC005 03/02 Q1026=
0142101624999992015010609504+53427+011783FM-15+005199999V0201401N003610015219N005000199+00301+00201999999ADDGA1081+001521999GE19MSL   +99999+99999GF199999081999001521999999MA1102601999999REMMET051METAR EDOP 060950Z 14007KT 5000 OVC005 03/02 Q1026=
0142101624999992015010610204+53427+011783FM-15+005199999V0201601N004110018319N006000199+00301+00201999999ADDGA1081+001831999GE19MSL   +99999+99999GF199999081999001831999999MA1102501999999REMMET051METAR EDOP 061020Z 16008KT 6000 OVC006 03/02 Q1025=
0142101624999992015010610504+53427+011783FM-15+005199999V0201501N004610018319N006000199+00301+00201999999ADDGA1081+001831999GE19MSL   +99999+99999GF199999081999001831999999MA1102501999999REMMET051METAR EDOP 061050Z 15009KT 6000 OVC006 03/02 Q1025=
0142101624999992015010611204+53427+011783FM-15+005199999V0201501N004110018319N006000199+00301+00201999999ADDGA1081+001831999GE19MSL   +99999+99999GF199999081999001831999999MA1102501999999REMMET051METAR EDOP 061120Z 15008KT 6000 OVC006 03/02 Q1025=
0142101624999992015010611504+53427+011783FM-15+005199999V0201501N004610018319N006000199+00301+00201999999ADDGA1081+001831999GE19MSL   +99999+99999GF199999081999001831999999MA1102501999999REMMET051METAR EDOP 061150Z 15009KT 6000 OVC006 03/02 Q1025=
0150101624999992015010612204+53427+011783FM-15+005199999V0201401V005110018319N006000199+00301+00201999999ADDGA1081+001831999GE19MSL   +99999+99999GF199999081999001831999999MA1102401999999REMMET059METAR EDOP 061220Z 14010KT 110V170 6000 OVC006 03/02 Q1024=
0142101624999992015010612504+53427+011783FM-15+005199999V0201501N005110018319N008000199+00301+00201999999ADDGA1081+001831999GE19MSL   +99999+99999GF199999081999001831999999MA1102401999999REMMET051METAR EDOP 061250Z 15010KT 8000 OVC006 03/02 Q1024=
0165101624999992015010613204+53427+011783FM-15+005199999V0201401N004110024419N009999199+00301+00201999999ADDGA1071+002441999GA2081+003051999GE19MSL   +99999+99999GF199999071999002441999999MA1102401999999REMMET058METAR EDOP 061320Z 14008KT 9999 BKN008 OVC010 03/02 Q1024=
0142101624999992015010613504+53427+011783FM-15+005199999V0201501N003610027419N009999199+00301+00201999999ADDGA1081+002741999GE19MSL   +99999+99999GF199999081999002741999999MA1102301999999REMMET051METAR EDOP 061350Z 15007KT 9999 OVC009 03/02 Q1023=
0142101624999992015010614204+53427+011783FM-15+005199999V0201601N004610027419N009999199+00301+00201999999ADDGA1081+002741999GE19MSL   +99999+99999GF199999081999002741999999MA1102401999999REMMET051METAR EDOP 061420Z 16009KT 9999 OVC009 03/02 Q1024=
0142101624999992015010614504+53427+011783FM-15+005199999V0201501N004610024419N009999199+00301+00101999999ADDGA1081+002441999GE19MSL   +99999+99999GF199999081999002441999999MA1102301999999REMMET051METAR EDOP 061450Z 15009KT 9999 OVC008 03/01 Q1023=
0142101624999992015010615504+53427+011783FM-15+005199999V0201501N005110033519N009999199+00301+00101999999ADDGA1081+003351999GE19MSL   +99999+99999GF199999081999003351999999MA1102301999999REMMET051METAR EDOP 061550Z 15010KT 9999 OVC011 03/01 Q1023=
0188101624999992015010616204+53427+011783FM-15+005199999V0201201N005110021319N008000199+00301+00101999999ADDGA1041+001521999GA2071+002131999GA3071+002741999GE19MSL   +99999+99999GF199999041999001521999999MA1102201999999REMMET065METAR EDOP 061620Z 12010KT 8000 SCT005 BKN007 BKN009 03/01 Q1022=
0159101624999992015010616504+53427+011783FM-15+005199999V0201301V006210009119N004500199+00201+00101999999ADDGA1081+000911999GE19MSL   +99999+99999GF199999081999000911999999MA1102201999999MW1101REMMET062METAR EDOP 061650Z 13012KT 100V160 4500 BR OVC003 02/01 Q1022=
0165101624999992015010617204+53427+011783FM-15+005199999V0201401N005110012219N006000199+00201+00101999999ADDGA1071+001221999GA2081+002131999GE19MSL   +99999+99999GF199999071999001221999999MA1102201999999REMMET058METAR EDOP 061720Z 14010KT 6000 BKN004 OVC007 02/01 Q1022=
0142101624999992015010617504+53427+011783FM-15+005199999V0201401N006210021319N009999199+00301+00101999999ADDGA1081+002131999GE19MSL   +99999+99999GF199999081999002131999999MA1102201999999REMMET051METAR EDOP 061750Z 14012KT 9999 OVC007 03/01 Q1022=
0161101624999992015010704204+53427+011783FM-15+005199999V0202201N004610015219N003000199+00101+00001999999ADDGA1071+001521999GE19MSL   +99999+99999GF199999071999001521999999MA1102001999999MW1101MW2511REMMET058METAR EDOP 070420Z 22009KT 3000 -DZ BR BKN005 01/00 Q1020=
0151101624999992015010704504+53427+011783FM-15+005199999V0202301N004610015219N004500199+00101+00101999999ADDGA1071+001521999GE19MSL   +99999+99999GF199999071999001521999999MA1102001999999MW1101REMMET054METAR EDOP 070450Z 23009KT 4500 BR BKN005 01/01 Q1020=
0151101624999992015010705204+53427+011783FM-15+005199999V0202301N004610009119N004500199+00101+00101999999ADDGA1081+000911999GE19MSL   +99999+99999GF199999081999000911999999MA1102001999999MW1101REMMET054METAR EDOP 070520Z 23009KT 4500 BR OVC003 01/01 Q1020=
0151101624999992015010705504+53427+011783FM-15+005199999V0202401N005110009119N004000199+00201+00101999999ADDGA1081+000911999GE19MSL   +99999+99999GF199999081999000911999999MA1102001999999MW1101REMMET054METAR EDOP 070550Z 24010KT 4000 BR OVC003 02/01 Q1020=
0161101624999992015010706204+53427+011783FM-15+005199999V0202401N004610009119N003500199+00201+00201999999ADDGA1081+000911999GE19MSL   +99999+99999GF199999081999000911999999MA1102101999999MW1101MW2511REMMET058METAR EDOP 070620Z 24009KT 3500 -DZ BR OVC003 02/02 Q1021=
0151101624999992015010706504+53427+011783FM-15+005199999V0202501N003610009119N003500199+00301+00201999999ADDGA1081+000911999GE19MSL   +99999+99999GF199999081999000911999999MA1102101999999MW1101REMMET054METAR EDOP 070650Z 25007KT 3500 BR OVC003 03/02 Q1021=
0151101624999992015010707204+53427+011783FM-15+005199999V0202501N004610009119N003500199+00301+00301999999ADDGA1081+000911999GE19MSL   +99999+99999GF199999081999000911999999MA1102101999999MW1101REMMET054METAR EDOP 070720Z 25009KT 3500 BR OVC003 03/03 Q1021=
0151101624999992015010707504+53427+011783FM-15+005199999V0202601N004110009119N004000199+00301+00301999999ADDGA1071+000911999GE19MSL   +99999+99999GF199999071999000911999999MA1102201999999MW1101REMMET054METAR EDOP 070750Z 26008KT 4000 BR BKN003 03/03 Q1022=
0142101624999992015010708204+53427+011783FM-15+005199999V0202501N004610009119N003500199+00401+00301999999ADDGA1071+000911999GE19MSL   +99999+99999GF199999071999000911999999MA1102201999999REMMET051METAR EDOP 070820Z 25009KT 3500 BKN003 04/03 Q1022=
0151101624999992015010708504+53427+011783FM-15+005199999V0202501N004110009119N004000199+00401+00401999999ADDGA1071+000911999GE19MSL   +99999+99999GF199999071999000911999999MA1102201999999MW1101REMMET054METAR EDOP 070850Z 25008KT 4000 BR BKN003 04/04 Q1022=
0151101624999992015010709204+53427+011783FM-15+005199999V0202501N004610012219N004000199+00401+00401999999ADDGA1071+001221999GE19MSL   +99999+99999GF199999071999001221999999MA1102301999999MW1101REMMET054METAR EDOP 070920Z 25009KT 4000 BR BKN004 04/04 Q1023=
0142101624999992015010709504+53427+011783FM-15+005199999V0202601N004110012219N006000199+00501+00401999999ADDGA1071+001221999GE19MSL   +99999+99999GF199999071999001221999999MA1102301999999REMMET051METAR EDOP 070950Z 26008KT 6000 BKN004 05/04 Q1023=
0142101624999992015010710204+53427+011783FM-15+005199999V0202501N004110015219N006000199+00501+00501999999ADDGA1071+001521999GE19MSL   +99999+99999GF199999071999001521999999MA1102301999999REMMET051METAR EDOP 071020Z 25008KT 6000 BKN005 05/05 Q1023=
0142101624999992015010710504+53427+011783FM-15+005199999V0202501N004610018319N006000199+00601+00501999999ADDGA1071+001831999GE19MSL   +99999+99999GF199999071999001831999999MA1102301999999REMMET051METAR EDOP 071050Z 25009KT 6000 BKN006 06/05 Q1023=
0165101624999992015010711204+53427+011783FM-15+005199999V0202501N004610091419N009999199+00601+00501999999ADDGA1041+002741999GA2071+009141999GE19MSL   +99999+99999GF199999041999002741999999MA1102301999999REMMET058METAR EDOP 071120Z 25009KT 9999 SCT009 BKN030 06/05 Q1023=
0165101624999992015010711504+53427+011783FM-15+005199999V0202401N005110106719N009999199+00601+00501999999ADDGA1041+002741999GA2071+010671999GE19MSL   +99999+99999GF199999041999002741999999MA1102301999999REMMET058METAR EDOP 071150Z 24010KT 9999 SCT009 BKN035 06/05 Q1023=
0165101624999992015010712204+53427+011783FM-15+005199999V0202501N004610051819N009999199+00601+00401999999ADDGA1041+003351999GA2071+005181999GE19MSL   +99999+99999GF199999041999003351999999MA1102301999999REMMET058METAR EDOP 071220Z 25009KT 9999 SCT011 BKN017 06/04 Q1023=
0165101624999992015010712504+53427+011783FM-15+005199999V0202501N004110106719N009999199+00601+00401999999ADDGA1041+004271999GA2071+010671999GE19MSL   +99999+99999GF199999041999004271999999MA1102301999999REMMET058METAR EDOP 071250Z 25008KT 9999 SCT014 BKN035 06/04 Q1023=
0165101624999992015010713204+53427+011783FM-15+005199999V0202401N005710109719N009999199+00601+00401999999ADDGA1041+003961999GA2071+010971999GE19MSL   +99999+99999GF199999041999003961999999MA1102401999999REMMET058METAR EDOP 071320Z 24011KT 9999 SCT013 BKN036 06/04 Q1024=
0165101624999992015010713504+53427+011783FM-15+005199999V0202501N005110121919N009999199+00501+00401999999ADDGA1041+003661999GA2071+012191999GE19MSL   +99999+99999GF199999041999003661999999MA1102401999999REMMET058METAR EDOP 071350Z 25010KT 9999 SCT012 BKN040 05/04 Q1024=
0188101624999992015010714204+53427+011783FM-15+005199999V0202501N00461006711CN009999199+00501+00301999999ADDGA1021+004881999GA2041+006711999GA3071+011891999GE19MSL   +99999+99999GF199999021999004881999999MA1102401999999REMMET065METAR EDOP 071420Z 25009KT 9999 FEW016 SCT022 BKN039 05/03 Q1024=
0165101624999992015010714504+53427+011783FM-15+005199999V0202501N004610125019N009999199+00501+00301999999ADDGA1021+005491999GA2071+012501999GE19MSL   +99999+99999GF199999021999005491999999MA1102401999999REMMET058METAR EDOP 071450Z 25009KT 9999 FEW018 BKN041 05/03 Q1024=
0142101624999992015010715204+53427+011783FM-15+005199999V0202501N004619999999N009999199+00301+00201999999ADDGA1021+005491999GE19MSL   +99999+99999GF199999021999005491999999MA1102401999999REMMET051METAR EDOP 071520Z 25009KT 9999 FEW018 03/02 Q1024=
0142101624999992015010715504+53427+011783FM-15+005199999V0202401N004119999999N009999199+00301+00201999999ADDGA1021+012801999GE19MSL   +99999+99999GF199999021999012801999999MA1102401999999REMMET051METAR EDOP 071550Z 24008KT 9999 FEW042 03/02 Q1024=
0142101624999992015010716204+53427+011783FM-15+005199999V0202301N003619999999N009999199+00401+00201999999ADDGA1041+011281999GE19MSL   +99999+99999GF199999041999011281999999MA1102401999999REMMET051METAR EDOP 071620Z 23007KT 9999 SCT037 04/02 Q1024=
0072101624999992015010716504+53427+011783FM-15+005199999V0202201N004119999999Y999999999+00401+00201999999ADDMA1102401999999REMMET045METAR EDOP 071650Z 22008KT CAVOK 04/02 Q1024=
0072101624999992015010717204+53427+011783FM-15+005199999V0202201N004619999999Y999999999+00401+00201999999ADDMA1102401999999REMMET045METAR EDOP 071720Z 22009KT CAVOK 04/02 Q1024=
0165101624999992015010717504+53427+011783FM-15+005199999V0202201N00571006401CN009999199+00401+00201999999ADDGA1021+004881999GA2041+006401999GE19MSL   +99999+99999GF199999021999004881999999MA1102401999999REMMET058METAR EDOP 071750Z 22011KT 9999 FEW016 SCT021 04/02 Q1024=
0152101624999992015010804204+53427+011783FM-15+005199999V0202101N006210149419N009999199+00301+00001999999ADDGA1071+014941999GE19MSL   +99999+99999GF199999071999014941999999MA1102001999999MW1611REMMET055METAR EDOP 080420Z 21012KT 9999 -RA BKN049 03/00 Q1020=
0152101624999992015010804504+53427+011783FM-15+005199999V0201901N006210118919N009999199+00301+00001999999ADDGA1071+011891999GE19MSL   +99999+99999GF199999071999011891999999MA1101901999999MW1611REMMET055METAR EDOP 080450Z 19012KT 9999 -RA BKN039 03/00 Q1019=
0165101624999992015010805204+53427+011783FM-15+005199999V0202001N006710057919N009999199+00301+00001999999ADDGA1071+005791999GA2081+008231999GE19MSL   +99999+99999GF199999071999005791999999MA1101901999999REMMET058METAR EDOP 080520Z 20013KT 9999 BKN019 OVC027 03/00 Q1019=
0165101624999992015010805504+53427+011783FM-15+005199999V0202001N005710039619N009999199+00301+00001999999ADDGA1021+002131999GA2071+003961999GE19MSL   +99999+99999GF199999021999002131999999MA1101901999999REMMET058METAR EDOP 080550Z 20011KT 9999 FEW007 BKN013 03/00 Q1019=
0165101624999992015010806204+53427+011783FM-15+005199999V0202001N006210027419N009000199+00301+00101999999ADDGA1041+001831999GA2071+002741999GE19MSL   +99999+99999GF199999041999001831999999MA1101901999999REMMET058METAR EDOP 080620Z 20012KT 9000 SCT006 BKN009 03/01 Q1019=
0151101624999992015010806504+53427+011783FM-15+005199999V0202001N005710015219N004000199+00201+00101999999ADDGA1071+001521999GE19MSL   +99999+99999GF199999071999001521999999MA1101901999999MW1101REMMET054METAR EDOP 080650Z 20011KT 4000 BR BKN005 02/01 Q1019=
0151101624999992015010807204+53427+011783FM-15+005199999V0201901N005710015219N004000199+00201+00201999999ADDGA1071+001521999GE19MSL   +99999+99999GF199999071999001521999999MA1101901999999MW1101REMMET054METAR EDOP 080720Z 19011KT 4000 BR BKN005 02/02 Q1019=
0151101624999992015010807504+53427+011783FM-15+005199999V0201901N005710015219N003400199+00301+00201999999ADDGA1071+001521999GE19MSL   +99999+99999GF199999071999001521999999MA1101801999999MW1101REMMET054METAR EDOP 080750Z 19011KT 3400 BR BKN005 03/02 Q1018=
0152101624999992015010808204+53427+011783FM-15+005199999V0202001N005110015219N006000199+00301+00201999999ADDGA1071+001521999GE19MSL   +99999+99999GF199999071999001521999999MA1101801999999MW1611REMMET055METAR EDOP 080820Z 20010KT 6000 -RA BKN005 03/02 Q1018=
0142101624999992015010808504+53427+011783FM-15+005199999V0202001N006210018319N009000199+00301+00201999999ADDGA1071+001831999GE19MSL   +99999+99999GF199999071999001831999999MA1101801999999REMMET051METAR EDOP 080850Z 20012KT 9000 BKN006 03/02 Q1018=
0151101624999992015010809204+53427+011783FM-15+005199999V0202001N006210015219N003500199+00301+00201999999ADDGA1081+001521999GE19MSL   +99999+99999GF199999081999001521999999MA1101701999999MW1101REMMET054METAR EDOP 080920Z 20012KT 3500 BR OVC005 03/02 Q1017=
0161101624999992015010809504+53427+011783FM-15+005199999V0202001N006210012219N002200199+00301+00301999999ADDGA1071+001221999GE19MSL   +99999+99999GF199999071999001221999999MA1101701999999MW1101MW2511REMMET058METAR EDOP 080950Z 20012KT 2200 -DZ BR BKN004 03/03 Q1017=
0151101624999992015010810204+53427+011783FM-15+005199999V0202001N006210012219N003300199+00401+00301999999ADDGA1071+001221999GE19MSL   +99999+99999GF199999071999001221999999MA1101701999999MW1101REMMET054METAR EDOP 081020Z 20012KT 3300 BR BKN004 04/03 Q1017=
0161101624999992015010810504+53427+011783FM-15+005199999V0202001N006710012219N003000199+00401+00301999999ADDGA1071+001221999GE19MSL   +99999+99999GF199999071999001221999999MA1101601999999MW1101MW2511REMMET058METAR EDOP 081050Z 20013KT 3000 -DZ BR BKN004 04/03 Q1016=
0161101624999992015010811204+53427+011783FM-15+005199999V0202101N005710012219N002500199+00401+00401999999ADDGA1081+001221999GE19MSL   +99999+99999GF199999081999001221999999MA1101601999999MW1101MW2511REMMET058METAR EDOP 081120Z 21011KT 2500 -DZ BR OVC004 04/04 Q1016=
0152101624999992015010811504+53427+011783FM-15+005199999V0202101N006210012219N006000199+00401+00401999999ADDGA1081+001221999GE19MSL   +99999+99999GF199999081999001221999999MA1101601999999MW1511REMMET055METAR EDOP 081150Z 21012KT 6000 -DZ OVC004 04/04 Q1016=
0142101624999992015010812204+53427+011783FM-15+005199999V0202201N006710012219N007000199+00501+00401999999ADDGA1081+001221999GE19MSL   +99999+99999GF199999081999001221999999MA1101501999999REMMET051METAR EDOP 081220Z 22013KT 7000 OVC004 05/04 Q1015=
0161101624999992015010812504+53427+011783FM-15+005199999V0202201N006210009119N003000199+00501+00501999999ADDGA1081+000911999GE19MSL   +99999+99999GF199999081999000911999999MA1101501999999MW1101MW2511REMMET058METAR EDOP 081250Z 22012KT 3000 -DZ BR OVC003 05/05 Q1015=
0142101624999992015010813504+53427+011783FM-15+005199999V0202101N005110012219N009999199+00601+00501999999ADDGA1081+001221999GE19MSL   +99999+99999GF199999081999001221999999MA1101401999999REMMET051METAR EDOP 081350Z 21010KT 9999 OVC004 06/05 Q1014=
0161101624999992015010814504+53427+011783FM-15+005199999V0202201N006710012219N002300199+00601+00501999999ADDGA1081+001221999GE19MSL   +99999+99999GF199999081999001221999999MA1101401999999MW1101MW2511REMMET058METAR EDOP 081450Z 22013KT 2300 -DZ BR OVC004 06/05 Q1014=
0175101624999992015010815204+53427+011783FM-15+005199999V0202201N006710015219N006000199+00601+00501999999ADDGA1071+001521999GA2081+003051999GE19MSL   +99999+99999GF199999071999001521999999MA1101401999999MW1611REMMET062METAR EDOP 081520Z 22013KT 6000 -RA BKN005 OVC010 06/05 Q1014=
0152101624999992015010815504+53427+011783FM-15+005199999V0202201N005110018319N009999199+00601+00501999999ADDGA1081+001831999GE19MSL   +99999+99999GF199999081999001831999999MA1101301999999MW1611REMMET055METAR EDOP 081550Z 22010KT 9999 -RA OVC006 06/05 Q1013=
0152101624999992015010816204+53427+011783FM-15+005199999V0202101N005110018319N009999199+00601+00501999999ADDGA1081+001831999GE19MSL   +99999+99999GF199999081999001831999999MA1101301999999MW1611REMMET055METAR EDOP 081620Z 21010KT 9999 -RA OVC006 06/05 Q1013=
0152101624999992015010816504+53427+011783FM-15+005199999V0202201N006210021319N009000199+00601+00501999999ADDGA1081+002131999GE19MSL   +99999+99999GF199999081999002131999999MA1101201999999MW1611REMMET055METAR EDOP 081650Z 22012KT 9000 -RA OVC007 06/05 Q1012=
0165101624999992015010904204+53427+011783FM-15+005199999V0202301N008210051819N009999199+00501+00301999999ADDGA1071+005181999GA2081+007011999GE19MSL   +99999+99999GF199999071999005181999999MA1101501999999REMMET058METAR EDOP 090420Z 23016KT 9999 BKN017 OVC023 05/03 Q1015=
0165101624999992015010904504+53427+011783FM-15+005199999V0202301N009310054919N009999199+00501+00301999999ADDGA1071+005491999GA2081+007011999GE19MSL   +99999+99999GF199999071999005491999999MA1101501999999REMMET058METAR EDOP 090450Z 23018KT 9999 BKN018 OVC023 05/03 Q1015=
0165101624999992015010905204+53427+011783FM-15+005199999V0202301N008810048819N009999199+00501+00301999999ADDGA1071+004881999GA2081+007321999GE19MSL   +99999+99999GF199999071999004881999999MA1101401999999REMMET058METAR EDOP 090520Z 23017KT 9999 BKN016 OVC024 05/03 Q1014=
0142101624999992015010905504+53427+011783FM-15+005199999V0202101N007710054919N009999199+00601+00301999999ADDGA1071+005491999GE19MSL   +99999+99999GF199999071999005491999999MA1101201999999REMMET051METAR EDOP 090550Z 21015KT 9999 BKN018 06/03 Q1012=
0142101624999992015010906204+53427+011783FM-15+005199999V0202101N008810057919N009999199+00601+00301999999ADDGA1071+005791999GE19MSL   +99999+99999GF199999071999005791999999MA1101101999999REMMET051METAR EDOP 090620Z 21017KT 9999 BKN019 06/03 Q1011=
0153101624999992015010906304+53427+011783FM-16+005199999V0202101N009310051819N009999199+00601+00301999999ADDGA1071+005181999GE19MSL   +99999+99999GF199999071999005181999999MA1101001999999OC101491REMMET054SPECI EDOP 090630Z 21018G29KT 9999 BKN017 06/03 Q1010=
0153101624999992015010906504+53427+011783FM-15+005199999V0202101N009310054919N009999199+00601+00301999999ADDGA1071+005491999GE19MSL   +99999+99999GF199999071999005491999999MA1101001999999OC101441REMMET054METAR EDOP 090650Z 21018G28KT 9999 BKN018 06/03 Q1010=
0142101624999992015010907204+53427+011783FM-15+005199999V0202101N008810064019N009999199+00601+00301999999ADDGA1071+006401999GE19MSL   +99999+99999GF199999071999006401999999MA1100801999999REMMET051METAR EDOP 090720Z 21017KT 9999 BKN021 06/03 Q1008=
0186101624999992015010907404+53427+011783FM-16+005199999V0202101N009310064019N009999199+00601+00301999999ADDGA1021+002741999GA2081+006401999GE19MSL   +99999+99999GF199999021999002741999999MA1100801999999MW1511OC101491REMMET065SPECI EDOP 090740Z 21018G29KT 9999 -DZ FEW009 OVC021 06/03 Q1008=
0180101624999992015010907504+53427+011783FM-15+005199999V0202101N010310027419N009000199+00601+00301999999ADDGA1021+001831999GA2071+002741999GE19MSL   +99999+99999GF199999021999001831999999MA1100701999999OC101541REMMET065METAR COR EDOP 090750Z 21020G30KT 9000 FEW006 BKN009 06/03 Q1007=
0161101624999992015010908204+53427+011783FM-15+005199999V0202201N010310015219N004500199+00601+00401999999ADDGA1071+001521999GE19MSL   +99999+99999GF199999071999001521999999MA1100601999999MW1101MW2611REMMET058METAR EDOP 090820Z 22020KT 4500 -RA BR BKN005 06/04 Q1006=
0184101624999992015010908504+53427+011783FM-15+005199999V0202201N010310015219N003500199+00601+00501999999ADDGA1071+001521999GA2081+002741999GE19MSL   +99999+99999GF199999071999001521999999MA1100501999999MW1101MW2511REMMET065METAR EDOP 090850Z 22020KT 3500 -DZ BR BKN005 OVC009 06/05 Q1005=
0172101624999992015010909024+53427+011783FM-16+005199999V0202101N011310015219N004000199+00601+00501999999ADDGA1081+001521999GE19MSL   +99999+99999GF199999081999001521999999MA1100401999999MW1101MW2611OC101651REMMET061SPECI EDOP 090902Z 21022G32KT 4000 -RA BR OVC005 06/05 Q1004=
0194101624999992015010909204+53427+011783FM-15+005199999V0202201N012410018319N004500199+00601+00501999999ADDGA1071+001831999GA2081+003351999GE19MSL   +99999+99999GF199999071999001831999999MA1100401999999MW1101MW2631OC101851REMMET067METAR EDOP 090920Z 22024G36KT 4500 RA BR BKN006 OVC011 06/05 Q1004=
0180101624999992015010909504+53427+011783FM-15+005199999V0202201N013410027419N009000199+00701+00501999999ADDGA1071+002741999GA2081+003661999GE19MSL   +99999+99999GF199999071999002741999999MA1100301999999MW1611REMMET067METAR EDOP 090950Z 22026KT 9000 -RA BKN009 OVC012 07/05 Q1003 RERA=
0186101624999992015010909514+53427+011783FM-16+005199999V0202301N014410027419N009999199+00701+00501999999ADDGA1071+002741999GA2081+003661999GE19MSL   +99999+99999GF199999071999002741999999MA1100301999999MW1611OC102011REMMET065SPECI EDOP 090951Z 23028G39KT 9999 -RA BKN009 OVC012 07/05 Q1003=
0151101624999992015010910204+53427+011783FM-15+005199999V0202301N013910030519N007000199+00701+00601999999ADDGA1081+003051999GE19MSL   +99999+99999GF199999081999003051999999MA1100201999999MW1631REMMET054METAR EDOP 091020Z 23027KT 7000 RA OVC010 07/06 Q1002=
0191101624999992015010910374+53427+011783FM-16+005199999V0202301N013910036619N009999199+00801+00601999999ADDGA1071+003661999GA2081+005181999GE19MSL   +99999+99999GF199999071999003661999999MA1100102999999MW1611OC101961REMMET070SPECI EDOP 091037Z 23027G38KT 9999 -RA BKN012 OVC017 08/06 Q1001 RERA=
0186101624999992015010910504+53427+011783FM-15+005199999V0202301N016010042719N009999199+00801+00601999999ADDGA1021+003051999GA2081+004271999GE19MSL   +99999+99999GF199999021999003051999999MA1100102999999MW1611OC102271REMMET065METAR EDOP 091050Z 23031G44KT 9999 -RA FEW010 OVC014 08/06 Q1001=
0190101624999992015010911204+53427+011783FM-15+005199999V0202501N014910042719N009999199+00801+00601999999ADDGA1021+003351999GA2071+004271999GE19MSL   +99999+99999GF199999021999003351999999MA1100102999999MW1991OC102211REMMET069METAR EDOP 091120Z 25029G43KT 9999 +TSGSRA FEW011 BKN014 08/06 Q1001=
0201101624999992015010911294+53427+011783FM-16+005199999V0202901V011810042719N004000199+00501+00301999999ADDGA1021+003351999GA2071+004271999GE19MSL   +99999+99999GF199999021999003351999999MA1100201999999MW1971OC102571REMMET080SPECI EDOP 091129Z 29023G50KT 260V320 4000 +TSRA FEW011 BKN014 05/03      Q1002=
0188101624999992015010911324+53427+011783FM-16+005199999V0202801N016510042719N004000199+00501+00401999999ADDGA1021+003351999GA2071+004271999GE19MSL   +99999+99999GF199999021999003351999999MA1100101999999MW1971OC102421REMMET067SPECI EDOP 091132Z 28032G47KT 4000 +TSRA FEW011 BKN014 05/04 Q1001=
0200101624999992015010911374+53427+011783FM-16+005199999V0202801V016510042719N006000199+00601+00401999999ADDGA1021+003351999GA2071+004271999GE19MSL   +99999+99999GF199999021999003351999999MA1100201999999MW1951OC102931REMMET079SPECI EDOP 091137Z 28032G57KT 240V310 6000 TSRA FEW011 BKN014 06/04      Q1002=
0200101624999992015010911434+53427+011783FM-16+005199999V0202701V014910042719N004500199+00701+00401999999ADDGA1021+003351999GA2071+004271999GE19MSL   +99999+99999GF199999021999003351999999MA1100201999999MW1951OC102111REMMET079SPECI EDOP 091143Z 27029G41KT 250V310 4500 TSRA FEW011 BKN014 07/04      Q1002=
0187101624999992015010911504+53427+011783FM-15+005199999V0202601N012910042719N007000199+00701+00401999999ADDGA1021+003351999GA2071+004271999GE19MSL   +99999+99999GF199999021999003351999999MA1100101999999MW1951OC101851REMMET066METAR EDOP 091150Z 26025G36KT 7000 TSRA FEW011 BKN014 07/04 Q1001=
0211101624999992015010912204+53427+011783FM-15+005199999V0202601N01291010061CN009999199+00701+00401999999ADDGA1021+007011999GA2041+010061999GA3071+012801999GE19MSL   +99999+99999GF199999021999007011999999MA1100101999999OC101851REMMET080METAR EDOP 091220Z 26025G36KT 9999 FEW023 SCT033 BKN042 07/04 Q1001      RETSGS=
0188101624999992015010912504+53427+011783FM-15+005199999V0202701N01181010971CN009999199+00701+00401999999ADDGA1021+008531999GA2041+010971999GA3071+020121999GE19MSL   +99999+99999GF199999021999008531999999MA1100101999999REMMET065METAR EDOP 091250Z 27023KT 9999 FEW028 SCT036 BKN066 07/04 Q1001=
0199101624999992015010912514+53427+011783FM-16+005199999V0202701N01131010971CN009999199+00701+00301999999ADDGA1021+008531999GA2041+010971999GA3071+020121999GE19MSL   +99999+99999GF199999021999008531999999MA1100101999999OC101651REMMET068SPECI EDOP 091251Z 27022G32KT 9999 FEW028 SCT036 BKN066 07/03 Q1001=
0216101624999992015010913204+53427+011783FM-15+005199999V0202701N00881011891CN008000199+00701+00401999999ADDGA1021+007621999GA2041+011891999GA3071+025601999GE19MSL   +99999+99999GF199999021999007621999999MA1100201999999MW1801OC101491REMMET079METAR EDOP 091320Z 27017G29KT 8000 -SHRA FEW025 SCT039 BKN084 07/04      Q1002=
0165101624999992015010913504+53427+011783FM-15+005199999V0202701N010310219519N009999199+00601+00201999999ADDGA1021+010361999GA2071+021951999GE19MSL   +99999+99999GF199999021999010361999999MA1100301999999REMMET058METAR EDOP 091350Z 27020KT 9999 FEW034 BKN072 06/02 Q1003=
0199101624999992015010914204+53427+011783FM-15+005199999V0202701N00981015541CN009999199+00701+00301999999ADDGA1021+010671999GA2041+015541999GA3071+023771999GE19MSL   +99999+99999GF199999021999010671999999MA1100301999999OC101651REMMET068METAR EDOP 091420Z 27019G32KT 9999 FEW035 SCT051 BKN078 07/03 Q1003=
0200101624999992015010914504+53427+011783FM-15+005199999V0202701N00881015541CN009999199+00701+00401999999ADDGA1021+010671999GA2041+015541999GA3071+023771999GE19MSL   +99999+99999GF199999021999010671999999MA1100301999999MW1801REMMET071METAR EDOP 091450Z 27017KT 9999 -SHRA FEW035 SCT051 BKN078 07/04 Q1003=
0188101624999992015010915034+53427+011783FM-16+005199999V0202701N008810085319N008000199+00701+00401999999ADDGA1071+008531999GA2071+014631999GE19MSL   +99999+99999GF199999071999008531999999MA1100301999999MW1801OC101491REMMET067SPECI EDOP 091503Z 27017G29KT 8000 -SHRA BKN028 BKN048 07/04 Q1003=
0194101624999992015010915204+53427+011783FM-15+005199999V0202701N009310158519N008000199+00801+00401999999ADDGA1041+007621999GA2071+015851999GE19MSL   +99999+99999GF199999041999007621999999MA1100301999999OC101801REMMET079METAR EDOP 091520Z 27018G35KT 8000 SCT025 BKN052 08/04 Q1003 RMK ATIS      IND=
0176101624999992015010915464+53427+011783FM-16+005199999V0202801N009810140219N009999199+00801+00301999999ADDGA1041+010061999GA2071+014021999GE19MSL   +99999+99999GF199999041999010061999999MA1100401999999OC101541REMMET061SPECI EDOP 091546Z 28019G30KT 9999 SCT033 BKN046 08/03 Q1004=
0165101624999992015010915504+53427+011783FM-15+005199999V0202801N009810140219N009999199+00801+00301999999ADDGA1041+010061999GA2071+014021999GE19MSL   +99999+99999GF199999041999010061999999MA1100401999999REMMET058METAR EDOP 091550Z 28019KT 9999 SCT033 BKN046 08/03 Q1004=
0176101624999992015010916194+53427+011783FM-16+005199999V0202601N010310487719N009999199+00801+00301999999ADDGA1041+011581999GA2071+048771999GE19MSL   +99999+99999GF199999041999011581999999MA1100401999999OC101651REMMET061SPECI EDOP 091619Z 26020G32KT 9999 SCT038 BKN160 08/03 Q1004=
0165101624999992015010916204+53427+011783FM-15+005199999V0202701N009810487719N009999199+00801+00301999999ADDGA1041+011581999GA2071+048771999GE19MSL   +99999+99999GF199999041999011581999999MA1100401999999REMMET058METAR EDOP 091620Z 27019KT 9999 SCT038 BKN160 08/03 Q1004=
0173101624999992015010916504+53427+011783FM-15+005199999V0202801V007710085319N009999199+00701+00301999999ADDGA1021+003051999GA2071+008531999GE19MSL   +99999+99999GF199999021999003051999999MA1100401999999REMMET066METAR EDOP 091650Z 28015KT 250V310 9999 FEW010 BKN028 07/03 Q1004=
0184101624999992015011004204+53427+011783FM-15+005199999V0202301N006710018319N002500199+00701+00601999999ADDGA1071+001831999GA2081+003051999GE19MSL   +99999+99999GF199999071999001831999999MA1100101999999MW1101MW2611REMMET065METAR EDOP 100420Z 23013KT 2500 -RA BR BKN006 OVC010 07/06 Q1001=
0184101624999992015011004504+53427+011783FM-15+005199999V0202401N006210015219N002800199+00701+00701999999ADDGA1071+001521999GA2081+002741999GE19MSL   +99999+99999GF199999071999001521999999MA1100001999999MW1101MW2511REMMET065METAR EDOP 100450Z 24012KT 2800 -DZ BR BKN005 OVC009 07/07 Q1000=
0161101624999992015011005204+53427+011783FM-15+005199999V0202401N005710018319N003000199+00801+00701999999ADDGA1081+001831999GE19MSL   +99999+99999GF199999081999001831999999MA1100001999999MW1101MW2511REMMET058METAR EDOP 100520Z 24011KT 3000 -DZ BR OVC006 08/07 Q1000=
0151101624999992015011005504+53427+011783FM-15+005199999V0202401N005110015219N004200199+00901+00801999999ADDGA1071+001521999GE19MSL   +99999+99999GF199999071999001521999999MA1099901999999MW1101REMMET054METAR EDOP 100550Z 24010KT 4200 BR BKN005 09/08 Q0999=
0175101624999992015011006204+53427+011783FM-15+005199999V0202401N006710021319N009000199+01001+01001999999ADDGA1071+002131999GA2081+003051999GE19MSL   +99999+99999GF199999071999002131999999MA1099901999999MW1511REMMET062METAR EDOP 100620Z 24013KT 9000 -DZ BKN007 OVC010 10/10 Q0999=
0186101624999992015011006294+53427+011783FM-16+005199999V0202501N008210018319N008000199+01101+01001999999ADDGA1071+001831999GA2081+003051999GE19MSL   +99999+99999GF199999071999001831999999MA1099901999999MW1511OC101341REMMET065SPECI EDOP 100629Z 25016G26KT 8000 -DZ BKN006 OVC010 11/10 Q0999=
0175101624999992015011006504+53427+011783FM-15+005199999V0202501N009310018319N006000199+01101+01101999999ADDGA1071+001831999GA2081+003051999GE19MSL   +99999+99999GF199999071999001831999999MA1099901999999MW1511REMMET062METAR EDOP 100650Z 25018KT 6000 -DZ BKN006 OVC010 11/11 Q0999=
0175101624999992015011007204+53427+011783FM-15+005199999V0202501N010310027419N006000199+01201+01001999999ADDGA1021+001831999GA2081+002741999GE19MSL   +99999+99999GF199999021999001831999999MA1099901999999MW1511REMMET062METAR EDOP 100720Z 25020KT 6000 -DZ FEW006 OVC009 12/10 Q0999=
0174101624999992015011007504+53427+011783FM-15+005199999V0202501N009310027419N004500199+01201+01001999999ADDGA1071+002741999GA2081+003661999GE19MSL   +99999+99999GF199999071999002741999999MA1099801999999MW1101REMMET061METAR EDOP 100750Z 25018KT 4500 BR BKN009 OVC012 12/10 Q0998=
0184101624999992015011008204+53427+011783FM-15+005199999V0202401N009810015219N002500199+01101+01101999999ADDGA1071+001521999GA2081+002741999GE19MSL   +99999+99999GF199999071999001521999999MA1099801999999MW1101MW2511REMMET065METAR EDOP 100820Z 24019KT 2500 -DZ BR BKN005 OVC009 11/11 Q0998=
0195101624999992015011008224+53427+011783FM-16+005199999V0202401N008810015219N002500199+01101+01101999999ADDGA1071+001521999GA2081+004271999GE19MSL   +99999+99999GF199999071999001521999999MA1099801999999MW1101MW2511OC101391REMMET068SPECI EDOP 100822Z 24017G27KT 2500 -DZ BR BKN005 OVC014 11/11 Q0998=
0184101624999992015011008504+53427+011783FM-15+005199999V0202401N008810033519N002500199+01101+01101999999ADDGA1041+001831999GA2081+003351999GE19MSL   +99999+99999GF199999041999001831999999MA1099701999999MW1101MW2511REMMET065METAR EDOP 100850Z 24017KT 2500 -DZ BR SCT006 OVC011 11/11 Q0997=
0184101624999992015011009204+53427+011783FM-15+005199999V0202401N010310018319N004200199+01201+01101999999ADDGA1071+001831999GA2081+004571999GE19MSL   +99999+99999GF199999071999001831999999MA1099701999999MW1101MW2511REMMET065METAR EDOP 100920Z 24020KT 4200 -DZ BR BKN006 OVC015 12/11 Q0997=
0176101624999992015011009344+53427+011783FM-16+005199999V0202401N011310033519N009000199+01201+01101999999ADDGA1041+001831999GA2081+003351999GE19MSL   +99999+99999GF199999041999001831999999MA1099601999999OC101651REMMET061SPECI EDOP 100934Z 24022G32KT 9000 SCT006 OVC011 12/11 Q0996=
0199101624999992015011009504+53427+011783FM-15+005199999V0202401N011810027419N009999199+01201+01001999999ADDGA1021+001831999GA2071+002741999GA3081+004571999GE19MSL   +99999+99999GF199999021999001831999999MA1099601999999OC101701REMMET068METAR EDOP 100950Z 24023G33KT 9999 FEW006 BKN009 OVC015 12/10 Q0996=
0153101624999992015011010204+53427+011783FM-15+005199999V0202401N012910045719N009999199+01201+01001999999ADDGA1081+004571999GE19MSL   +99999+99999GF199999081999004571999999MA1099601999999OC102111REMMET054METAR EDOP 101020Z 24025G41KT 9999 OVC015 12/10 Q0996=
0176101624999992015011010504+53427+011783FM-15+005199999V0202501N013910051819N009999199+01201+01001999999ADDGA1071+005181999GA2081+008841999GE19MSL   +99999+99999GF199999071999005181999999MA1099501999999OC102161REMMET061METAR EDOP 101050Z 25027G42KT 9999 BKN017 OVC029 12/10 Q0995=
0177101624999992015011011204+53427+011783FM-15+005199999V0202401N013910054919N009999199+01101+01001999999ADDGA1021+001831999GA2071+005491999GE19MSL   +99999+99999GF199999021999001831999999MA1099501999999MW1801REMMET064METAR EDOP 101120Z 24027KT 9999 -SHRA FEW006 BKN018 11/10 Q0995=
0216101624999992015011011494+53427+011783FM-16+005199999V0202401N013410033519N006000199+01101+01001999999ADDGA1021+002131999GA2071+003351999GA3071+004571999GE19MSL   +99999+99999GF199999021999002131999999MA1099401999999MW1801OC101961REMMET079SPECI EDOP 101149Z 24026G38KT 6000 -SHRA FEW007 BKN011 BKN015 11/10      Q0994=
0216101624999992015011011504+53427+011783FM-15+005199999V0202401N012910033519N006000199+01101+01001999999ADDGA1021+002131999GA2071+003351999GA3071+004571999GE19MSL   +99999+99999GF199999021999002131999999MA1099401999999MW1801OC101901REMMET079METAR EDOP 101150Z 24025G37KT 6000 -SHRA FEW007 BKN011 BKN015 11/10      Q0994=
0216101624999992015011011504+53427+011783FM-16+005199999V0202401N013410033519N006000199+01101+01001999999ADDGA1021+002131999GA2071+003351999GA3071+004571999GE19MSL   +99999+99999GF199999021999002131999999MA1099401999999MW1801OC101961REMMET079SPECI EDOP 101150Z 24026G38KT 6000 -SHRA FEW007 BKN011 BKN015 11/10      Q0994=
0176101624999992015011012204+53427+011783FM-15+005199999V0202401N012410057919N003500199+01101+01001999999ADDGA1021+002741999GA2071+005791999GE19MSL   +99999+99999GF199999021999002741999999MA1099401999999MW1811REMMET063METAR EDOP 101220Z 24024KT 3500 SHRA FEW009 BKN019 11/10 Q0994=
0187101624999992015011012504+53427+011783FM-15+005199999V0202401N014410027419N004000199+01101+01001999999ADDGA1041+001831999GA2071+002741999GE19MSL   +99999+99999GF199999041999001831999999MA1099301999999MW1811OC101961REMMET066METAR EDOP 101250Z 24028G38KT 4000 SHRA SCT006 BKN009 11/10 Q0993=
0184101624999992015011013204+53427+011783FM-15+005199999V0202401N013410039619N005000199+01101+01001999999ADDGA1021+002741999GA2071+003961999GE19MSL   +99999+99999GF199999021999002741999999MA1099201999999MW1801REMMET071METAR EDOP 101320Z 24026KT 5000 -SHRA FEW009 BKN013 11/10 Q0992 RESHRA=
0175101624999992015011013414+53427+011783FM-16+005199999V0202401N013910054919N006000199+01101+01001999999ADDGA1041+002741999GA2071+005491999GE19MSL   +99999+99999GF199999041999002741999999MA1099201999999MW1511REMMET062SPECI EDOP 101341Z 24027KT 6000 -DZ SCT009 BKN018 11/10 Q0992=
0199101624999992015011014204+53427+011783FM-15+005199999V0202801N01291007011CN008000199+00901+00701999999ADDGA1021+003351999GA2041+007011999GA3071+011581999GE19MSL   +99999+99999GF199999021999003351999999MA1099501999999OC101901REMMET068METAR EDOP 101420Z 28025G37KT 8000 FEW011 SCT023 BKN038 09/07 Q0995=
0176101624999992015011014504+53427+011783FM-15+005199999V0202701N012410185919N009999199+00901+00401999999ADDGA1021+003051999GA2071+018591999GE19MSL   +99999+99999GF199999021999003051999999MA1099501999999OC102011REMMET061METAR EDOP 101450Z 27024G39KT 9999 FEW010 BKN061 09/04 Q0995=
0176101624999992015011015204+53427+011783FM-15+005199999V0202801N010810097519N009999199+00901+00401999999ADDGA1071+009751999GA2071+017371999GE19MSL   +99999+99999GF199999071999009751999999MA1099501999999OC101801REMMET061METAR EDOP 101520Z 28021G35KT 9999 BKN032 BKN057 09/04 Q0995=
0165101624999992015011015504+53427+011783FM-15+005199999V0202801N009810085319N009999199+00801+00401999999ADDGA1071+008531999GA2071+012191999GE19MSL   +99999+99999GF199999071999008531999999MA1099601999999REMMET058METAR EDOP 101550Z 28019KT 9999 BKN028 BKN040 08/04 Q0996=
0176101624999992015011016204+53427+011783FM-15+005199999V0202701N010810304819N009999199+00801+00201999999ADDGA1021+011581999GA2071+030481999GE19MSL   +99999+99999GF199999021999011581999999MA1099601999999OC101601REMMET061METAR EDOP 101620Z 27021G31KT 9999 FEW038 BKN100 08/02 Q0996=
0176101624999992015011016264+53427+011783FM-16+005199999V0202601N010810304819N009999199+00801+00101999999ADDGA1041+012801999GA2071+030481999GE19MSL   +99999+99999GF199999041999012801999999MA1099601999999OC102161REMMET061SPECI EDOP 101626Z 26021G42KT 9999 SCT042 BKN100 08/01 Q0996=
0153101624999992015011016504+53427+011783FM-15+005199999V0202701N013910121919N009999199+00701+00101999999ADDGA1071+012191999GE19MSL   +99999+99999GF199999071999012191999999MA1099701999999OC101961REMMET054METAR EDOP 101650Z 27027G38KT 9999 BKN040 07/01 Q0997=
0177101624999992015011104204+53427+011783FM-15+005199999V0202501N010310076219N009999199+00401+00001999999ADDGA1071+007621999GA2081+009451999GE19MSL   +99999+99999GF199999071999007621999999MA1100201999999MW1801REMMET064METAR EDOP 110420Z 25020KT 9999 -SHRA BKN025 OVC031 04/00 Q1002=
0188101624999992015011104374+53427+011783FM-16+005199999V0202601N009810073219N009999199+00401+00001999999ADDGA1071+007321999GA2081+010061999GE19MSL   +99999+99999GF199999071999007321999999MA1100201999999MW1801OC101491REMMET067SPECI EDOP 110437Z 26019G29KT 9999 -SHRA BKN024 OVC033 04/00 Q1002=
0165101624999992015011104504+53427+011783FM-15+005199999V0202501N009310076219N009999199+00401+00001999999ADDGA1071+007621999GA2081+010671999GE19MSL   +99999+99999GF199999071999007621999999MA1100101999999REMMET058METAR EDOP 110450Z 25018KT 9999 BKN025 OVC035 04/00 Q1001=
0165101624999992015011105204+53427+011783FM-15+005199999V0202501N009810070119N009999199+00301+00001999999ADDGA1071+007011999GA2071+009751999GE19MSL   +99999+99999GF199999071999007011999999MA1100201999999REMMET058METAR EDOP 110520Z 25019KT 9999 BKN023 BKN032 03/00 Q1002=
0200101624999992015011105504+53427+011783FM-15+005199999V0202501N00931007321CN009999199+00401+00001999999ADDGA1021+002741999GA2041+007321999GA3071+009451999GE19MSL   +99999+99999GF199999021999002741999999MA1100101999999MW1801REMMET071METAR EDOP 110550Z 25018KT 9999 -SHRA FEW009 SCT024 BKN031 04/00 Q1001=
0188101624999992015011106184+53427+011783FM-16+005199999V0202601N007710067119N009999199+00301+00101999999ADDGA1041+002441999GA2081+006711999GE19MSL   +99999+99999GF199999041999002441999999MA1100101999999MW1801OC101341REMMET067SPECI EDOP 110618Z 26015G26KT 9999 -SHRA SCT008 OVC022 03/01 Q1001=
0165101624999992015011106204+53427+011783FM-15+005199999V0202601N006710067119N009999199+00301+00101999999ADDGA1041+002131999GA2081+006711999GE19MSL   +99999+99999GF199999041999002131999999MA1100101999999REMMET058METAR EDOP 110620Z 26013KT 9999 SCT007 OVC022 03/01 Q1001=
0216101624999992015011107204+53427+011783FM-15+005199999V0202501N010310054919N009999199+00301+00101999999ADDGA1041+002441999GA2071+005491999GA3081+006711999GE19MSL   +99999+99999GF199999041999002441999999MA1100201999999MW1801OC101651REMMET079METAR EDOP 110720Z 25020G32KT 9999 -SHRA SCT008 BKN018 OVC022 03/01      Q1002=
0165101624999992015011107504+53427+011783FM-15+005199999V0202501N011310033519N009999199+00201+00101999999ADDGA1071+003351999GA2081+003961999GE19MSL   +99999+99999GF199999071999003351999999MA1100201999999REMMET058METAR EDOP 110750Z 25022KT 9999 BKN011 OVC013 02/01 Q1002=
0142101624999992015011108204+53427+011783FM-15+005199999V0202401N009810033519N009999199+00301+00101999999ADDGA1081+003351999GE19MSL   +99999+99999GF199999081999003351999999MA1100201999999REMMET051METAR EDOP 110820Z 24019KT 9999 OVC011 03/01 Q1002=
0188101624999992015011108284+53427+011783FM-16+005199999V0202401N010810033519N009999199+00301+00101999999ADDGA1071+003351999GA2081+004571999GE19MSL   +99999+99999GF199999071999003351999999MA1100201999999MW1801OC101751REMMET067SPECI EDOP 110828Z 24021G34KT 9999 -SHRA BKN011 OVC015 03/01 Q1002=
0200101624999992015011108504+53427+011783FM-15+005199999V0202501N01131003661CN009999199+00301+00101999999ADDGA1021+002131999GA2041+003661999GA3071+004571999GE19MSL   +99999+99999GF199999021999002131999999MA1100201999999MW1801REMMET071METAR EDOP 110850Z 25022KT 9999 -SHRA FEW007 SCT012 BKN015 03/01 Q1002=
0175101624999992015011109204+53427+011783FM-15+005199999V0202501N011310021319N006000199+00201+00101999999ADDGA1071+002131999GA2081+004271999GE19MSL   +99999+99999GF199999071999002131999999MA1100201999999MW1711REMMET062METAR EDOP 110920Z 25022KT 6000 -SN BKN007 OVC014 02/01 Q1002=
0165101624999992015011109354+53427+011783FM-16+005199999V0202601N009310024419N003500199+00101+00001999999ADDGA1081+002441999GE19MSL   +99999+99999GF199999081999002441999999MA1100301999999MW1681OC101441REMMET060SPECI EDOP 110935Z 26018G28KT 3500 -SNRA OVC008 01/00 Q1003=
0177101624999992015011109504+53427+011783FM-15+005199999V0202601N007210015219N008000199+00101+00001999999ADDGA1071+001521999GA2081+003661999GE19MSL   +99999+99999GF199999071999001521999999MA1100301999999MW1681REMMET064METAR EDOP 110950Z 26014KT 8000 -SNRA BKN005 OVC012 01/00 Q1003=
0200101624999992015011110204+53427+011783FM-15+005199999V0202501N00881002741CN009999199+00301+00201999999ADDGA1021+001521999GA2041+002741999GA3071+004271999GE19MSL   +99999+99999GF199999021999001521999999MA1100301999999MW1801REMMET071METAR EDOP 111020Z 25017KT 9999 -SHRA FEW005 SCT009 BKN014 03/02 Q1003=
0188101624999992015011110264+53427+011783FM-16+005199999V0202501N010310024419N009999199+00301+00201999999ADDGA1071+002441999GA2081+004271999GE19MSL   +99999+99999GF199999071999002441999999MA1100301999999MW1801OC101541REMMET067SPECI EDOP 111026Z 25020G30KT 9999 -SHRA BKN008 OVC014 03/02 Q1003=
0177101624999992015011110504+53427+011783FM-15+005199999V0202501N010810024419N009999199+00201+00101999999ADDGA1071+002441999GA2081+012801999GE19MSL   +99999+99999GF199999071999002441999999MA1100301999999MW1801REMMET064METAR EDOP 111050Z 25021KT 9999 -SHRA BKN008 OVC042 02/01 Q1003=
0176101624999992015011111024+53427+011783FM-16+005199999V0202501N008810027419N009999199+00201+00101999999ADDGA1071+002741999GA2071+008841999GE19MSL   +99999+99999GF199999071999002741999999MA1100301999999OC101391REMMET061SPECI EDOP 111102Z 25017G27KT 9999 BKN009 BKN029 02/01 Q1003=
0189101624999992015011111084+53427+011783FM-16+005199999V0202501N010310024419N005000199+00201+00101999999ADDGA1071+002441999GA2071+011891999GE19MSL   +99999+99999GF199999071999002441999999MA1100301999999MW1841OC101541REMMET068SPECI EDOP 111108Z 25020G30KT 5000 SHRASN BKN008 BKN039 02/01 Q1003=
0178101624999992015011111204+53427+011783FM-15+005199999V0202501N011310027419N005000199+00201+00001999999ADDGA1041+001831999GA2071+002741999GE19MSL   +99999+99999GF199999041999001831999999MA1100301999999MW1841REMMET065METAR EDOP 111120Z 25022KT 5000 SHRASN SCT006 BKN009 02/00 Q1003=
0183101624999992015011111254+53427+011783FM-16+005199999V0202501N009810021319N009999199+00101+00101999999ADDGA1071+002131999GA2071+010671999GE19MSL   +99999+99999GF199999071999002131999999MA1100301999999OC101491REMMET068SPECI EDOP 111125Z 25019G29KT 9999 BKN007 BKN035 01/01 Q1003 RESHSN=
0149101624999992015011111504+53427+011783FM-15+005199999V0202501N009310024419N009999199+00201+00101999999ADDGA1071+002441999GE19MSL   +99999+99999GF199999071999002441999999MA1100401999999REMMET058METAR EDOP 111150Z 25018KT 9999 BKN008 02/01 Q1004 RESHSN=
0199101624999992015011112004+53427+011783FM-16+005199999V0202501N009810027419N003500199+00201+00101999999ADDGA1021+001831999GA2071+002741999GA3071+004271999GE19MSL   +99999+99999GF199999021999001831999999MA1100401999999MW1861REMMET070SPECI EDOP 111200Z 25019KT 3500 SHSN FEW006 BKN009 BKN014 02/01 Q1004=
0223101624999992015011112204+53427+011783FM-15+005199999V0202601N008810024419N009999199+00201+00101999999ADDGA1041+001831999GA2071+002441999GA3071+003961999GE19MSL   +99999+99999GF199999041999001831999999MA1100401999999MW1801OC101391REMMET086METAR EDOP 111220Z 26017G27KT 9999 -SHRA SCT006 BKN008 BKN013 02/01      Q1004 RESHSN=
0165101624999992015011112504+53427+011783FM-15+005199999V0202501N007710051819N009999199+00301+00101999999ADDGA1021+003051999GA2071+005181999GE19MSL   +99999+99999GF199999021999003051999999MA1100401999999REMMET058METAR EDOP 111250Z 25015KT 9999 FEW010 BKN017 03/01 Q1004=
0142101624999992015011113204+53427+011783FM-15+005199999V0202501N008819999999N009999199+00301+00101999999ADDGA1021+003961999GE19MSL   +99999+99999GF199999021999003961999999MA1100401999999REMMET051METAR EDOP 111320Z 25017KT 9999 FEW013 03/01 Q1004=
0188101624999992015011113424+53427+011783FM-16+005199999V0202501N010310045719N006000199+00301+00101999999ADDGA1021+002441999GA2071+004571999GE19MSL   +99999+99999GF199999021999002441999999MA1100401999999MW1801OC101651REMMET067SPECI EDOP 111342Z 25020G32KT 6000 -SHRA FEW008 BKN015 03/01 Q1004=
0165101624999992015011114204+53427+011783FM-15+005199999V0202501N009310039619N009999199+00301+00101999999ADDGA1021+001831999GA2071+003961999GE19MSL   +99999+99999GF199999021999001831999999MA1100401999999REMMET058METAR EDOP 111420Z 25018KT 9999 FEW006 BKN013 03/01 Q1004=
0165101624999992015011114504+53427+011783FM-15+005199999V0202601N009810039619N009999199+00301+00101999999ADDGA1021+002741999GA2071+003961999GE19MSL   +99999+99999GF199999021999002741999999MA1100501999999REMMET058METAR EDOP 111450Z 26019KT 9999 FEW009 BKN013 03/01 Q1005=
0165101624999992015011115204+53427+011783FM-15+005199999V0202501N008810061019N009999199+00301+00101999999ADDGA1041+003961999GA2071+006101999GE19MSL   +99999+99999GF199999041999003961999999MA1100501999999REMMET058METAR EDOP 111520Z 25017KT 9999 SCT013 BKN020 03/01 Q1005=
0165101624999992015011115504+53427+011783FM-15+005199999V0202501N009310067119N009999199+00301+00101999999ADDGA1021+005181999GA2071+006711999GE19MSL   +99999+99999GF199999021999005181999999MA1100501999999REMMET058METAR EDOP 111550Z 25018KT 9999 FEW017 BKN022 03/01 Q1005=
0188101624999992015011116204+53427+011783FM-15+005199999V0202701N008810051819N008000199+00301+00101999999ADDGA1041+002441999GA2071+005181999GE19MSL   +99999+99999GF199999041999002441999999MA1100601999999MW1801OC101391REMMET067METAR EDOP 111620Z 27017G27KT 8000 -SHRA SCT008 BKN017 03/01 Q1006=
0177101624999992015011116504+53427+011783FM-15+005199999V0202701N009310030519N009999199+00301+00101999999ADDGA1041+002741999GA2071+003051999GE19MSL   +99999+99999GF199999041999002741999999MA1100601999999MW1801REMMET064METAR EDOP 111650Z 27018KT 9999 -SHRA SCT009 BKN010 03/01 Q1006=
0188101624999992015011204204+53427+011783FM-15+005199999V0202301N008210061019N009999199+00501+00401999999ADDGA1021+002741999GA2071+006101999GA3081+007621999GE19MSL   +99999+99999GF199999021999002741999999MA1101001999999REMMET065METAR EDOP 120420Z 23016KT 9999 FEW009 BKN020 OVC025 05/04 Q1010=
0142101624999992015011204504+53427+011783FM-15+005199999V0202201N008210036619N009999199+00601+00401999999ADDGA1081+003661999GE19MSL   +99999+99999GF199999081999003661999999MA1101001999999REMMET051METAR EDOP 120450Z 22016KT 9999 OVC012 06/04 Q1010=
0142101624999992015011205204+53427+011783FM-15+005199999V0202301N008210036619N009999199+00601+00401999999ADDGA1081+003661999GE19MSL   +99999+99999GF199999081999003661999999MA1101001999999REMMET051METAR EDOP 120520Z 23016KT 9999 OVC012 06/04 Q1010=
0165101624999992015011206204+53427+011783FM-15+005199999V0202301N009810030519N009999199+00601+00401999999ADDGA1071+003051999GA2081+004571999GE19MSL   +99999+99999GF199999071999003051999999MA1100901999999REMMET058METAR EDOP 120620Z 23019KT 9999 BKN010 OVC015 06/04 Q1009=
0165101624999992015011206504+53427+011783FM-15+005199999V0202301N008810030519N009999199+00601+00401999999ADDGA1071+003051999GA2081+004271999GE19MSL   +99999+99999GF199999071999003051999999MA1100901999999REMMET058METAR EDOP 120650Z 23017KT 9999 BKN010 OVC014 06/04 Q1009=
0142101624999992015011207204+53427+011783FM-15+005199999V0202201N009810027419N009999199+00601+00401999999ADDGA1081+002741999GE19MSL   +99999+99999GF199999081999002741999999MA1100901999999REMMET051METAR EDOP 120720Z 22019KT 9999 OVC009 06/04 Q1009=
0142101624999992015011207504+53427+011783FM-15+005199999V0202201N009810030519N009999199+00601+00401999999ADDGA1081+003051999GE19MSL   +99999+99999GF199999081999003051999999MA1100901999999REMMET051METAR EDOP 120750Z 22019KT 9999 OVC010 06/04 Q1009=
0154101624999992015011208204+53427+011783FM-15+005199999V0202201N008810033519N009999199+00601+00401999999ADDGA1081+003351999GE19MSL   +99999+99999GF199999081999003351999999MA1100901999999MW1801REMMET057METAR EDOP 120820Z 22017KT 9999 -SHRA OVC011 06/04 Q1009=
0177101624999992015011208504+53427+011783FM-15+005199999V0202201N009810033519N009999199+00601+00501999999ADDGA1071+003351999GA2081+004571999GE19MSL   +99999+99999GF199999071999003351999999MA1100901999999MW1801REMMET064METAR EDOP 120850Z 22019KT 9999 -SHRA BKN011 OVC015 06/05 Q1009=
0142101624999992015011209204+53427+011783FM-15+005199999V0202201N009310042719N009999199+00601+00401999999ADDGA1081+004271999GE19MSL   +99999+99999GF199999081999004271999999MA1100801999999REMMET051METAR EDOP 120920Z 22018KT 9999 OVC014 06/04 Q1008=
0142101624999992015011209504+53427+011783FM-15+005199999V0202201N009810045719N009999199+00601+00401999999ADDGA1081+004571999GE19MSL   +99999+99999GF199999081999004571999999MA1100801999999REMMET051METAR EDOP 120950Z 22019KT 9999 OVC015 06/04 Q1008=
0165101624999992015011210074+53427+011783FM-16+005199999V0202201N008810048819N009999199+00701+00401999999ADDGA1081+004881999GE19MSL   +99999+99999GF199999081999004881999999MA1100801999999MW1801OC101391REMMET060SPECI EDOP 121007Z 22017G27KT 9999 -SHRA OVC016 07/04 Q1008=
0142101624999992015011210204+53427+011783FM-15+005199999V0202201N009810051819N009999199+00701+00401999999ADDGA1081+005181999GE19MSL   +99999+99999GF199999081999005181999999MA1100801999999REMMET051METAR EDOP 121020Z 22019KT 9999 OVC017 07/04 Q1008=
0142101624999992015011210504+53427+011783FM-15+005199999V0202201N010310048819N009999199+00701+00401999999ADDGA1081+004881999GE19MSL   +99999+99999GF199999081999004881999999MA1100701999999REMMET051METAR EDOP 121050Z 22020KT 9999 OVC016 07/04 Q1007=
0152101624999992015011211204+53427+011783FM-15+005199999V0202201N011310048819N009999199+00701+00501999999ADDGA1081+004881999GE19MSL   +99999+99999GF199999081999004881999999MA1100701999999MW1511REMMET055METAR EDOP 121120Z 22022KT 9999 -DZ OVC016 07/05 Q1007=
0152101624999992015011211504+53427+011783FM-15+005199999V0202201N011310048819N009999199+00701+00501999999ADDGA1081+004881999GE19MSL   +99999+99999GF199999081999004881999999MA1100701999999MW1511REMMET055METAR EDOP 121150Z 22022KT 9999 -DZ OVC016 07/05 Q1007=
0163101624999992015011212114+53427+011783FM-16+005199999V0202201N011310045719N009999199+00701+00501999999ADDGA1081+004571999GE19MSL   +99999+99999GF199999081999004571999999MA1100601999999MW1511OC101651REMMET058SPECI EDOP 121211Z 22022G32KT 9999 -DZ OVC015 07/05 Q1006=
0152101624999992015011212204+53427+011783FM-15+005199999V0202201N011810045719N009999199+00701+00501999999ADDGA1081+004571999GE19MSL   +99999+99999GF199999081999004571999999MA1100601999999MW1511REMMET055METAR EDOP 121220Z 22023KT 9999 -DZ OVC015 07/05 Q1006=
0152101624999992015011212504+53427+011783FM-15+005199999V0202301N009810042719N009999199+00701+00501999999ADDGA1081+004271999GE19MSL   +99999+99999GF199999081999004271999999MA1100601999999MW1611REMMET055METAR EDOP 121250Z 23019KT 9999 -RA OVC014 07/05 Q1006=
0152101624999992015011213204+53427+011783FM-15+005199999V0202301N010310045719N009999199+00701+00501999999ADDGA1081+004571999GE19MSL   +99999+99999GF199999081999004571999999MA1100601999999MW1511REMMET055METAR EDOP 121320Z 23020KT 9999 -DZ OVC015 07/05 Q1006=
0163101624999992015011213374+53427+011783FM-16+005199999V0202201N009810045719N009999199+00701+00501999999ADDGA1081+004571999GE19MSL   +99999+99999GF199999081999004571999999MA1100501999999MW1511OC101601REMMET058SPECI EDOP 121337Z 22019G31KT 9999 -DZ OVC015 07/05 Q1005=
0152101624999992015011213504+53427+011783FM-15+005199999V0202201N011310042719N009999199+00701+00501999999ADDGA1081+004271999GE19MSL   +99999+99999GF199999081999004271999999MA1100501999999MW1511REMMET055METAR EDOP 121350Z 22022KT 9999 -DZ OVC014 07/05 Q1005=
0152101624999992015011214204+53427+011783FM-15+005199999V0202301N011810039619N009999199+00701+00501999999ADDGA1081+003961999GE19MSL   +99999+99999GF199999081999003961999999MA1100501999999MW1511REMMET055METAR EDOP 121420Z 23023KT 9999 -DZ OVC013 07/05 Q1005=
0142101624999992015011214504+53427+011783FM-15+005199999V0202301N010810045719N009999199+00701+00501999999ADDGA1081+004571999GE19MSL   +99999+99999GF199999081999004571999999MA1100601999999REMMET051METAR EDOP 121450Z 23021KT 9999 OVC015 07/05 Q1006=
0163101624999992015011215084+53427+011783FM-16+005199999V0202301N010310042719N009999199+00701+00501999999ADDGA1081+004271999GE19MSL   +99999+99999GF199999081999004271999999MA1100601999999MW1511OC101651REMMET058SPECI EDOP 121508Z 23020G32KT 9999 -DZ OVC014 07/05 Q1006=
0163101624999992015011215204+53427+011783FM-15+005199999V0202301N010810042719N009999199+00701+00501999999ADDGA1081+004271999GE19MSL   +99999+99999GF199999081999004271999999MA1100601999999MW1511OC101651REMMET058METAR EDOP 121520Z 23021G32KT 9999 -DZ OVC014 07/05 Q1006=
0209101624999992015011215504+53427+011783FM-15+005199999V0202301N010310024419N007000199+00701+00501999999ADDGA1041+001521999GA2071+002441999GA3081+004271999GE19MSL   +99999+99999GF199999041999001521999999MA1100601999999MW1511OC101541REMMET072METAR EDOP 121550Z 23020G30KT 7000 -DZ SCT005 BKN008 OVC014 07/05 Q1006=
0174101624999992015011216204+53427+011783FM-15+005199999V0202301N009810015219N003000199+00701+00601999999ADDGA1071+001521999GA2071+002131999GE19MSL   +99999+99999GF199999071999001521999999MA1100601999999MW1101REMMET061METAR EDOP 121620Z 23019KT 3000 BR BKN005 BKN007 07/06 Q1006=
0165101624999992015011216504+53427+011783FM-15+005199999V0202301N009810027419N009999199+00701+00601999999ADDGA1021+001831999GA2071+002741999GE19MSL   +99999+99999GF199999021999001831999999MA1100601999999REMMET058METAR EDOP 121650Z 23019KT 9999 FEW006 BKN009 07/06 Q1006=
0165101624999992015011303504+53427+011783FM-15+005199999V0202201N007710018319N009999199+00801+00701999999ADDGA1071+001831999GA2081+003661999GE19MSL   +99999+99999GF199999071999001831999999MA1100501999999REMMET058METAR EDOP 130350Z 22015KT 9999 BKN006 OVC012 08/07 Q1005=
0142101624999992015011304204+53427+011783FM-15+005199999V0202001N006210018319N009999199+00801+00701999999ADDGA1081+001831999GE19MSL   +99999+99999GF199999081999001831999999MA1100501999999REMMET051METAR EDOP 130420Z 20012KT 9999 OVC006 08/07 Q1005=
0142101624999992015011304504+53427+011783FM-15+005199999V0201901N007710015219N007000199+00801+00701999999ADDGA1081+001521999GE19MSL   +99999+99999GF199999081999001521999999MA1100501999999REMMET051METAR EDOP 130450Z 19015KT 7000 OVC005 08/07 Q1005=
0154101624999992015011305204+53427+011783FM-15+005199999V0201901N007210012219N004000199+00801+00701999999ADDGA1081+001221999GE19MSL   +99999+99999GF199999081999001221999999MA1100401999999MW1801REMMET057METAR EDOP 130520Z 19014KT 4000 -SHRA OVC004 08/07 Q1004=
0152101624999992015011305504+53427+011783FM-15+005199999V0202001N007710015219N008000199+00801+00701999999ADDGA1081+001521999GE19MSL   +99999+99999GF199999081999001521999999MA1100401999999MW1611REMMET055METAR EDOP 130550Z 20015KT 8000 -RA OVC005 08/07 Q1004=
0165101624999992015011306204+53427+011783FM-15+005199999V0202001N007210018319N009999199+00801+00701999999ADDGA1071+001831999GA2081+002741999GE19MSL   +99999+99999GF199999071999001831999999MA1100401999999REMMET058METAR EDOP 130620Z 20014KT 9999 BKN006 OVC009 08/07 Q1004=
0154101624999992015011306504+53427+011783FM-15+005199999V0202001N008210021319N009999199+00801+00701999999ADDGA1081+002131999GE19MSL   +99999+99999GF199999081999002131999999MA1100401999999MW1801REMMET057METAR EDOP 130650Z 20016KT 9999 -SHRA OVC007 08/07 Q1004=
0154101624999992015011307204+53427+011783FM-15+005199999V0202001N007710021319N009999199+00801+00701999999ADDGA1081+002131999GE19MSL   +99999+99999GF199999081999002131999999MA1100301999999MW1801REMMET057METAR EDOP 130720Z 20015KT 9999 -SHRA OVC007 08/07 Q1003=
0175101624999992015011307504+53427+011783FM-15+005199999V0202001N008810024419N009999199+00801+00701999999ADDGA1071+002441999GA2081+017371999GE19MSL   +99999+99999GF199999071999002441999999MA1100301999999MW1611REMMET062METAR EDOP 130750Z 20017KT 9999 -RA BKN008 OVC057 08/07 Q1003=
0163101624999992015011308394+53427+011783FM-16+005199999V0202001N008810030519N009999199+00901+00701999999ADDGA1081+003051999GE19MSL   +99999+99999GF199999081999003051999999MA1100301999999MW1611OC101391REMMET058SPECI EDOP 130839Z 20017G27KT 9999 -RA OVC010 09/07 Q1003=
0152101624999992015011308504+53427+011783FM-15+005199999V0202001N008810030519N009999199+00901+00701999999ADDGA1081+003051999GE19MSL   +99999+99999GF199999081999003051999999MA1100301999999MW1611REMMET055METAR EDOP 130850Z 20017KT 9999 -RA OVC010 09/07 Q1003=
0165101624999992015011309204+53427+011783FM-15+005199999V0202101N008210033519N009999199+00901+00701999999ADDGA1071+003351999GA2081+004881999GE19MSL   +99999+99999GF199999071999003351999999MA1100201999999REMMET058METAR EDOP 130920Z 21016KT 9999 BKN011 OVC016 09/07 Q1002=
0165101624999992015011309504+53427+011783FM-15+005199999V0202001N008210057919N009999199+00901+00701999999ADDGA1041+004271999GA2081+005791999GE19MSL   +99999+99999GF199999041999004271999999MA1100201999999REMMET058METAR EDOP 130950Z 20016KT 9999 SCT014 OVC019 09/07 Q1002=
0153101624999992015011310204+53427+011783FM-15+005199999V0201901N007710064019N009999199+00901+00701999999ADDGA1081+006401999GE19MSL   +99999+99999GF199999081999006401999999MA1100201999999OC101341REMMET054METAR EDOP 131020Z 19015G26KT 9999 OVC021 09/07 Q1002=
0142101624999992015011310504+53427+011783FM-15+005199999V0202001N008810070119N009999199+00901+00601999999ADDGA1081+007011999GE19MSL   +99999+99999GF199999081999007011999999MA1100201999999REMMET051METAR EDOP 131050Z 20017KT 9999 OVC023 09/06 Q1002=
0198101624999992015011311204+53427+011783FM-15+005199999V0202001N009810054919N008000199+00901+00701999999ADDGA1041+001521999GA2071+005491999GA3081+007621999GE19MSL   +99999+99999GF199999041999001521999999MA1100101999999MW1511REMMET069METAR EDOP 131120Z 20019KT 8000 -DZ SCT005 BKN018 OVC025 09/07 Q1001=
0176101624999992015011311374+53427+011783FM-16+005199999V0202101N008810082319N009999199+01001+00601999999ADDGA1021+001831999GA2081+008231999GE19MSL   +99999+99999GF199999021999001831999999MA1100101999999OC101391REMMET061SPECI EDOP 131137Z 21017G27KT 9999 FEW006 OVC027 10/06 Q1001=
0188101624999992015011311504+53427+011783FM-15+005199999V0202101N00981006401CN009999199+01001+00601999999ADDGA1021+001831999GA2041+006401999GA3071+008531999GE19MSL   +99999+99999GF199999021999001831999999MA1100101999999REMMET065METAR EDOP 131150Z 21019KT 9999 FEW006 SCT021 BKN028 10/06 Q1001=
0165101624999992015011312204+53427+011783FM-15+005199999V0202101N009310054919N009999199+00901+00601999999ADDGA1071+005491999GA2081+010671999GE19MSL   +99999+99999GF199999071999005491999999MA1100101999999REMMET058METAR EDOP 131220Z 21018KT 9999 BKN018 OVC035 09/06 Q1001=
0165101624999992015011312504+53427+011783FM-15+005199999V0202101N009810067119N009999199+01001+00601999999ADDGA1071+006711999GA2071+016761999GE19MSL   +99999+99999GF199999071999006711999999MA1100001999999REMMET058METAR EDOP 131250Z 21019KT 9999 BKN022 BKN055 10/06 Q1000=
0176101624999992015011312524+53427+011783FM-16+005199999V0202101N009310067119N009999199+01001+00601999999ADDGA1071+006711999GA2071+009451999GE19MSL   +99999+99999GF199999071999006711999999MA1100001999999OC101541REMMET061SPECI EDOP 131252Z 21018G30KT 9999 BKN022 BKN031 10/06 Q1000=
0165101624999992015011313204+53427+011783FM-15+005199999V0202101N009810070119N009999199+01001+00601999999ADDGA1071+007011999GA2071+012501999GE19MSL   +99999+99999GF199999071999007011999999MA1100001999999REMMET058METAR EDOP 131320Z 21019KT 9999 BKN023 BKN041 10/06 Q1000=
0165101624999992015011313504+53427+011783FM-15+005199999V0202201N009310082319N009999199+00901+00601999999ADDGA1071+008231999GA2071+010361999GE19MSL   +99999+99999GF199999071999008231999999MA1100001999999REMMET058METAR EDOP 131350Z 22018KT 9999 BKN027 BKN034 09/06 Q1000=
0175101624999992015011314204+53427+011783FM-15+005199999V0202101N009310073219N009999199+00901+00701999999ADDGA1071+007321999GA2071+011891999GE19MSL   +99999+99999GF199999071999007321999999MA1100001999999MW1511REMMET062METAR EDOP 131420Z 21018KT 9999 -DZ BKN024 BKN039 09/07 Q1000=
0142101624999992015011314504+53427+011783FM-15+005199999V0202101N008810103619N009999199+00901+00701999999ADDGA1071+010361999GE19MSL   +99999+99999GF199999071999010361999999MA1100001999999REMMET051METAR EDOP 131450Z 21017KT 9999 BKN034 09/07 Q1000=
0175101624999992015011315204+53427+011783FM-15+005199999V0202201N007210109719N009999199+00901+00701999999ADDGA1021+002131999GA2081+010971999GE19MSL   +99999+99999GF199999021999002131999999MA1100001999999MW1511REMMET062METAR EDOP 131520Z 22014KT 9999 -DZ FEW007 OVC036 09/07 Q1000=
0175101624999992015011315504+53427+011783FM-15+005199999V0202101N006710076219N009999199+00901+00701999999ADDGA1071+007621999GA2081+011581999GE19MSL   +99999+99999GF199999071999007621999999MA1100001999999MW1511REMMET062METAR EDOP 131550Z 21013KT 9999 -DZ BKN025 OVC038 09/07 Q1000=
0175101624999992015011316204+53427+011783FM-15+005199999V0202101N007710100619N009999199+00901+00701999999ADDGA1041+006401999GA2071+010061999GE19MSL   +99999+99999GF199999041999006401999999MA1100001999999MW1611REMMET062METAR EDOP 131620Z 21015KT 9999 -RA SCT021 BKN033 09/07 Q1000=
0175101624999992015011316504+53427+011783FM-15+005199999V0202201N008210045719N009999199+00801+00701999999ADDGA1021+003051999GA2071+004571999GE19MSL   +99999+99999GF199999021999003051999999MA1100101999999MW1511REMMET062METAR EDOP 131650Z 22016KT 9999 -DZ FEW010 BKN015 08/07 Q1001=
0072101624999992015011403504+53427+011783FM-15+005199999V0201801N004619999999Y999999999+00501+00301999999ADDMA1100201999999REMMET045METAR EDOP 140350Z 18009KT CAVOK 05/03 Q1002=
0072101624999992015011404204+53427+011783FM-15+005199999V0201701N004619999999Y999999999+00501+00301999999ADDMA1100201999999REMMET045METAR EDOP 140420Z 17009KT CAVOK 05/03 Q1002=
0072101624999992015011404504+53427+011783FM-15+005199999V0201701N005719999999Y999999999+00501+00301999999ADDMA1100101999999REMMET045METAR EDOP 140450Z 17011KT CAVOK 05/03 Q1001=
0154101624999992015011405204+53427+011783FM-15+005199999V0201801N007710088419N009999199+00501+00401999999ADDGA1071+008841999GE19MSL   +99999+99999GF199999071999008841999999MA1100101999999MW1801REMMET057METAR EDOP 140520Z 18015KT 9999 -SHRA BKN029 05/04 Q1001=
0177101624999992015011405504+53427+011783FM-15+005199999V0202201N005710051819N009000199+00401+00401999999ADDGA1071+005181999GA2081+007921999GE19MSL   +99999+99999GF199999071999005181999999MA1100101999999MW1801REMMET064METAR EDOP 140550Z 22011KT 9000 -SHRA BKN017 OVC026 04/04 Q1001=
0188101624999992015011406204+53427+011783FM-15+005199999V0202201N005110048819N009999199+00401+00401999999ADDGA1021+003051999GA2071+004881999GA3081+007011999GE19MSL   +99999+99999GF199999021999003051999999MA1100101999999REMMET065METAR EDOP 140620Z 22010KT 9999 FEW010 BKN016 OVC023 04/04 Q1001=
0200101624999992015011406504+53427+011783FM-15+005199999V0202301N009810033519N009999199+00401+00301999999ADDGA1021+002741999GA2071+003351999GA3081+005181999GE19MSL   +99999+99999GF199999021999002741999999MA1100201999999MW1801REMMET071METAR EDOP 140650Z 23019KT 9999 -SHRA FEW009 BKN011 OVC017 04/03 Q1002=
0154101624999992015011407204+53427+011783FM-15+005199999V0202401N007210027419N009999199+00401+00301999999ADDGA1081+002741999GE19MSL   +99999+99999GF199999081999002741999999MA1100201999999MW1801REMMET057METAR EDOP 140720Z 24014KT 9999 -SHRA OVC009 04/03 Q1002=
0165101624999992015011407504+53427+011783FM-15+005199999V0202401N006710030519N009999199+00401+00301999999ADDGA1071+003051999GA2081+004881999GE19MSL   +99999+99999GF199999071999003051999999MA1100301999999REMMET058METAR EDOP 140750Z 24013KT 9999 BKN010 OVC016 04/03 Q1003=
0165101624999992015011408204+53427+011783FM-15+005199999V0202501N008210036619N009999199+00401+00301999999ADDGA1071+003661999GA2081+004881999GE19MSL   +99999+99999GF199999071999003661999999MA1100301999999REMMET058METAR EDOP 140820Z 25016KT 9999 BKN012 OVC016 04/03 Q1003=
0165101624999992015011408504+53427+011783FM-15+005199999V0202401N007210042719N009999199+00401+00301999999ADDGA1071+004271999GA2081+008531999GE19MSL   +99999+99999GF199999071999004271999999MA1100401999999REMMET058METAR EDOP 140850Z 24014KT 9999 BKN014 OVC028 04/03 Q1004=
0188101624999992015011409204+53427+011783FM-15+005199999V0202301N008210064019N009999199+00501+00301999999ADDGA1021+004271999GA2071+006401999GA3071+010361999GE19MSL   +99999+99999GF199999021999004271999999MA1100401999999REMMET065METAR EDOP 140920Z 23016KT 9999 FEW014 BKN021 BKN034 05/03 Q1004=
0165101624999992015011409504+53427+011783FM-15+005199999V0202301N009310118919N009999199+00501+00201999999ADDGA1041+006711999GA2071+011891999GE19MSL   +99999+99999GF199999041999006711999999MA1100401999999REMMET058METAR EDOP 140950Z 23018KT 9999 SCT022 BKN039 05/02 Q1004=
0165101624999992015011410204+53427+011783FM-15+005199999V0202301N008810079219N009999199+00501+00201999999ADDGA1041+006101999GA2071+007921999GE19MSL   +99999+99999GF199999041999006101999999MA1100401999999REMMET058METAR EDOP 141020Z 23017KT 9999 SCT020 BKN026 05/02 Q1004=
0165101624999992015011410504+53427+011783FM-15+005199999V0202301N010310082319N009999199+00501+00201999999ADDGA1041+006711999GA2071+008231999GE19MSL   +99999+99999GF199999041999006711999999MA1100401999999REMMET058METAR EDOP 141050Z 23020KT 9999 SCT022 BKN027 05/02 Q1004=
0142101624999992015011411204+53427+011783FM-15+005199999V0202401N009810067119N009999199+00501+00201999999ADDGA1081+006711999GE19MSL   +99999+99999GF199999081999006711999999MA1100401999999REMMET051METAR EDOP 141120Z 24019KT 9999 OVC022 05/02 Q1004=
0165101624999992015011411504+53427+011783FM-15+005199999V0202301N009310109719N009999199+00501+00201999999ADDGA1041+007321999GA2071+010971999GE19MSL   +99999+99999GF199999041999007321999999MA1100401999999REMMET058METAR EDOP 141150Z 23018KT 9999 SCT024 BKN036 05/02 Q1004=
0165101624999992015011412204+53427+011783FM-15+005199999V0202301N009810076219N009999199+00501+00101999999ADDGA1071+007621999GA2081+010061999GE19MSL   +99999+99999GF199999071999007621999999MA1100501999999REMMET058METAR EDOP 141220Z 23019KT 9999 BKN025 OVC033 05/01 Q1005=
0165101624999992015011412504+53427+011783FM-15+005199999V0202301N009810100619N009999199+00501+00001999999ADDGA1041+007621999GA2071+010061999GE19MSL   +99999+99999GF199999041999007621999999MA1100501999999REMMET058METAR EDOP 141250Z 23019KT 9999 SCT025 BKN033 05/00 Q1005=
0165101624999992015011413204+53427+011783FM-15+005199999V0202301N007710125019N009999199+00501+00101999999ADDGA1021+008531999GA2081+012501999GE19MSL   +99999+99999GF199999021999008531999999MA1100501999999REMMET058METAR EDOP 141320Z 23015KT 9999 FEW028 OVC041 05/01 Q1005=
0165101624999992015011413504+53427+011783FM-15+005199999V0202201N007210137219N009999199+00501+00101999999ADDGA1021+008531999GA2081+013721999GE19MSL   +99999+99999GF199999021999008531999999MA1100501999999REMMET058METAR EDOP 141350Z 22014KT 9999 FEW028 OVC045 05/01 Q1005=
0165101624999992015011414204+53427+011783FM-15+005199999V0202201N005110091419N009999199+00501+00101999999ADDGA1071+009141999GA2081+013721999GE19MSL   +99999+99999GF199999071999009141999999MA1100601999999REMMET058METAR EDOP 141420Z 22010KT 9999 BKN030 OVC045 05/01 Q1006=
0165101624999992015011414504+53427+011783FM-15+005199999V0202101N004110082319N009999199+00501+00101999999ADDGA1071+008231999GA2081+010971999GE19MSL   +99999+99999GF199999071999008231999999MA1100601999999REMMET058METAR EDOP 141450Z 21008KT 9999 BKN027 OVC036 05/01 Q1006=
0165101624999992015011415204+53427+011783FM-15+005199999V0202101N004110161519N009999199+00501+00101999999ADDGA1021+008231999GA2071+016151999GE19MSL   +99999+99999GF199999021999008231999999MA1100601999999REMMET058METAR EDOP 141520Z 21008KT 9999 FEW027 BKN053 05/01 Q1006=
0182101624999992015011415364+53427+011783FM-16+005199999V0202301V006210115819N006000199+00301+00101999999ADDGA1041+003661999GA2071+011581999GE19MSL   +99999+99999GF199999041999003661999999MA1100601999999MW1631REMMET069SPECI EDOP 141536Z 23012KT 200V260 6000 RA SCT012 BKN038 03/01 Q1006=
0201101624999992015011415504+53427+011783FM-15+005199999V0202501N008210036619N004000199+00201+00001999999ADDGA1021+001831999GA2071+003661091GA3071+011581999GE19MSL   +99999+99999GF199999021999001831999999MA1100701999999MW1951REMMET072METAR EDOP 141550Z 25016KT 4000 TSRA FEW006 BKN012CB BKN038 02/00 Q1007=
0165101624999992015011416204+53427+011783FM-15+005199999V0201901N002110088419N009999199+00001+00001999999ADDGA1041+002131999GA2081+008841999GE19MSL   +99999+99999GF199999041999002131999999MA1100701999999REMMET058METAR EDOP 141620Z 19004KT 9999 SCT007 OVC029 00/00 Q1007=
