0143101624999992012010204204+53417+011783FM-15+0051EDOP V0202501N005710210019N0112651N1+01001+01001999999ADDGA1041+003001999GA2071+021001999GF107991999999999999999999MA1100001999999REMMET058METAR EDOP 020420Z 25011KT 9999 SCT010 BKN070 10/10 Q1000;
0143101624999992012010204504+53417+011783FM-15+0051EDOP V0202501N004612200019N0112651N1+01001+01001999999ADDGA1041+003001999GA2041+021001999GF104991999999999999999999MA1100001999999REMMET058METAR EDOP 020450Z 25009KT 9999 SCT010 SCT070 10/10 Q1000;
0120101624999992012010205204+53417+011783FM-15+0051EDOP V0202501N004112200019N0112651N1+01001+01001999999ADDGA1041+003001999GF104991999999999999999999MA1100101999999REMMET051METAR EDOP 020520Z 25008KT 9999 SCT010 10/10 Q1001;
0120101624999992012010205504+53417+011783FM-15+0051EDOP V0202501N005110045019N0112651N1+01001+00901999999ADDGA1071+004501999GF107991999999999999999999MA1100101999999REMMET051METAR EDOP 020550Z 25010KT 9999 BKN015 10/09 Q1001;
0120101624999992012010206504+53417+011783FM-15+0051EDOP V0202601N005110045019N0112651N1+00901+00901999999ADDGA1071+004501999GF107991999999999999999999MA1100201999999REMMET051METAR EDOP 020650Z 26010KT 9999 BKN015 09/09 Q1002;
0120101624999992012010207204+53417+011783FM-15+0051EDOP V0202601N005710045019N0112651N1+00901+00901999999ADDGA1071+004501999GF107991999999999999999999MA1100201999999REMMET051METAR EDOP 020720Z 26011KT 9999 BKN015 09/09 Q1002;
0120101624999992012010207504+53417+011783FM-15+0051EDOP V0202601N003612200019N0112651N1+00901+00801999999ADDGA1041+004501999GF104991999999999999999999MA1100201999999REMMET051METAR EDOP 020750Z 26007KT 9999 SCT015 09/08 Q1002;
0120101624999992012010208204+53417+011783FM-15+0051EDOP V0202501N003112200019N0112651N1+00801+00801999999ADDGA1041+004501999GF104991999999999999999999MA1100311999999REMMET051METAR EDOP 020820Z 25006KT 9999 SCT015 08/08 Q1003;
0120101624999992012010208504+53417+011783FM-15+0051EDOP V0202401N003112200019N0112651N1+00901+00801999999ADDGA1041+004501999GF104991999999999999999999MA1100311999999REMMET051METAR EDOP 020850Z 24006KT 9999 SCT015 09/08 Q1003;
0143101624999992012010209204+53417+011783FM-15+0051EDOP V0202301N002612200019N0112651N1+00901+00901999999ADDGA1041+004501999GA2041+009601999GF104991999999999999999999MA1100311999999REMMET058METAR EDOP 020920Z 23005KT 9999 SCT015 SCT032 09/09 Q1003;
0143101624999992012010209504+53417+011783FM-15+0051EDOP V0202301N004610120019N0112651N1+00901+00901999999ADDGA1021+003601999GA2071+012001999GF107991999999999999999999MA1100311999999REMMET058METAR EDOP 020950Z 23009KT 9999 FEW012 BKN040 09/09 Q1003;
0120101624999992012010210204+53417+011783FM-15+0051EDOP V0202301N005110045019N0112651N1+00901+00901999999ADDGA1071+004501999GF107991999999999999999999MA1100311999999REMMET051METAR EDOP 021020Z 23010KT 9999 BKN015 09/09 Q1003;
0120101624999992012010210504+53417+011783FM-15+0051EDOP V0202301N005110045019N0112651N1+00901+00901999999ADDGA1071+004501999GF107991999999999999999999MA1100311999999REMMET051METAR EDOP 021050Z 23010KT 9999 BKN015 09/09 Q1003;
0143101624999992012010211204+53417+011783FM-15+0051EDOP V0202401N004610045019N0112651N1+00901+00901999999ADDGA1041+002701999GA2071+004501999GF107991999999999999999999MA1100311999999REMMET058METAR EDOP 021120Z 24009KT 9999 SCT009 BKN015 09/09 Q1003;
0143101624999992012010211504+53417+011783FM-15+0051EDOP V0202401N004610045019N0112651N1+00901+00901999999ADDGA1041+002701999GA2071+004501999GF107991999999999999999999MA1100311999999REMMET058METAR EDOP 021150Z 24009KT 9999 SCT009 BKN015 09/09 Q1003;
0143101624999992012010212204+53417+011783FM-15+0051EDOP V0202501N004610045019N0112651N1+00901+00901999999ADDGA1041+003301999GA2071+004501999GF107991999999999999999999MA1100411999999REMMET058METAR EDOP 021220Z 25009KT 9999 SCT011 BKN015 09/09 Q1004;
0143101624999992012010212504+53417+011783FM-15+0051EDOP V0202501N004610054019N0112651N1+00901+00901999999ADDGA1041+003001999GA2071+005401999GF107991999999999999999999MA1100411999999REMMET058METAR EDOP 021250Z 25009KT 9999 SCT010 BKN018 09/09 Q1004;
0143101624999992012010213204+53417+011783FM-15+0051EDOP V0202701N004112200019N0112651N1+00901+00801999999ADDGA1041+003001999GA2041+018001999GF104991999999999999999999MA1100411999999REMMET058METAR EDOP 021320Z 27008KT 9999 SCT010 SCT060 09/08 Q1004;
0120101624999992012010213504+53417+011783FM-15+0051EDOP V0202701N003610045019N0112651N1+00901+00801999999ADDGA1071+004501999GF107991999999999999999999MA1100411999999REMMET051METAR EDOP 021350Z 27007KT 9999 BKN015 09/08 Q1004;
0143101624999992012010214204+53417+011783FM-15+0051EDOP V0202801N004110330019N0112651N1+00801+00701999999ADDGA1021+004501999GA2071+033001999GF107991999999999999999999MA1100511999999REMMET058METAR EDOP 021420Z 28008KT 9999 FEW015 BKN110 08/07 Q1005;
0143101624999992012010214504+53417+011783FM-15+0051EDOP V0202701N004110360019N0112651N1+00801+00601999999ADDGA1021+008401999GA2071+036001999GF107991999999999999999999MA1100511999999REMMET058METAR EDOP 021450Z 27008KT 9999 FEW028 BKN120 08/06 Q1005;
0143101624999992012010215204+53417+011783FM-15+0051EDOP V0202701N004112200019N0112651N1+00801+00601999999ADDGA1021+008401999GA2041+036001999GF104991999999999999999999MA1100611999999REMMET058METAR EDOP 021520Z 27008KT 9999 FEW028 SCT120 08/06 Q1006;
0120101624999992012010215504+53417+011783FM-15+0051EDOP V0202601N003612200019N0112651N1+00701+00601999999ADDGA1021+004501999GF102991999999999999999999MA1100611999999REMMET051METAR EDOP 021550Z 26007KT 9999 FEW015 07/06 Q1006;
0120101624999992012010216204+53417+011783FM-15+0051EDOP V0202601N005112200019N0112651N1+00601+00501999999ADDGA1021+004501999GF102991999999999999999999MA1100711999999REMMET051METAR EDOP 021620Z 26010KT 9999 FEW015 06/05 Q1007;
0120101624999992012010216504+53417+011783FM-15+0051EDOP V0202601N004612200019N0112651N1+00601+00501999999ADDGA1021+004801999GF102991999999999999999999MA1100711999999REMMET051METAR EDOP 021650Z 26009KT 9999 FEW016 06/05 Q1007;
0120101624999992012010304204+53417+011783FM-15+0051EDOP V0202001N005712200019N0112651N1+00301+00101999999ADDGA1021+012001999GF102991999999999999999999MA1101391999999REMMET051METAR EDOP 030420Z 20011KT 9999 FEW040 03/01 Q1014;
0072101624999992012010304504+53417+011783FM-15+0051EDOP V0202001N005719999999Y0099001N1+00301+00101999999ADDMA1101291999999REMMET045METAR EDOP 030450Z 20011KT CAVOK 03/01 Q1013;
0072101624999992012010305204+53417+011783FM-15+0051EDOP V0202001N005719999999Y0099001N1+00301+00101999999ADDMA1101291999999REMMET045METAR EDOP 030520Z 20011KT CAVOK 03/01 Q1013;
0072101624999992012010305504+53417+011783FM-15+0051EDOP V0202001N005719999999Y0099001N1+00301+00101999999ADDMA1101291999999REMMET045METAR EDOP 030550Z 20011KT CAVOK 03/01 Q1013;
0072101624999992012010306504+53417+011783FM-15+0051EDOP V0201901N005719999999Y0099001N1+00301+00101999999ADDMA1101191999999REMMET045METAR EDOP 030650Z 19011KT CAVOK 03/01 Q1012;
0072101624999992012010307204+53417+011783FM-15+0051EDOP V0201901N005719999999Y0099001N1+00301+00101999999ADDMA1101191999999REMMET045METAR EDOP 030720Z 19011KT CAVOK 03/01 Q1012;
0072101624999992012010307504+53417+011783FM-15+0051EDOP V0202001N007219999999Y0099001N1+00301+00101999999ADDMA1101191999999REMMET045METAR EDOP 030750Z 20014KT CAVOK 03/01 Q1012;
0072101624999992012010308204+53417+011783FM-15+0051EDOP V0202001N007219999999Y0099001N1+00401+00101999999ADDMA1101081999999REMMET045METAR EDOP 030820Z 20014KT CAVOK 04/01 Q1011;
0072101624999992012010308504+53417+011783FM-15+0051EDOP V0202001N007719999999Y0099001N1+00401+00101999999ADDMA1101081999999REMMET045METAR EDOP 030850Z 20015KT CAVOK 04/01 Q1011;
0072101624999992012010309204+53417+011783FM-15+0051EDOP V0201801N007219999999Y0099001N1+00401+00101999999ADDMA1101021999999REMMET045METAR EDOP 030920Z 18014KT CAVOK 04/01 Q1010;
0083101624999992012010309504+53417+011783FM-15+0051EDOP V0201901N008719999999Y0099001N1+00401+00101999999ADDMA1100911999999OC101391REMMET048METAR EDOP 030950Z 19017G27KT CAVOK 04/01 Q1009;
0080101624999992012010310204+53417+011783FM-15+0051EDOP V0201901N007219999999Y0099001N1+00501+00101999999ADDMA1100811999999REMMET053METAR EDOP 031020Z 19014KT 160V220 CAVOK 05/01 Q1008;
0072101624999992012010310504+53417+011783FM-15+0051EDOP V0201901N008219999999Y0099001N1+00501+00101999999ADDMA1100711999999REMMET045METAR EDOP 031050Z 19016KT CAVOK 05/01 Q1007;
0083101624999992012010311204+53417+011783FM-15+0051EDOP V0201801N008719999999Y0099001N1+00501+00101999999ADDMA1100611999999OC101391REMMET048METAR EDOP 031120Z 18017G27KT CAVOK 05/01 Q1006;
0149101624999992012010311504+53417+011783FM-15+0051EDOP V0201701N009310075019N0112651N1+00501+00101999999ADDGA1071+007501999GF107991999999999999999999MA1100511999999MW1611OC101541REMMET066METAR EDOP 031150Z 17018G30KT 140V200 9999 -RA BKN025 05/01 Q1005;
0137101624999992012010312204+53417+011783FM-15+0051EDOP V0201801N009310069019N0060001N1+00501+00201999999ADDGA1071+006901999GF107991999999999999999999MA1100411999999MW1631REMMET062METAR EDOP 031220Z 18018KT 140V200 6000 RA BKN023 05/02 Q1004;
0140101624999992012010312504+53417+011783FM-15+0051EDOP V0201801N009810048019N0060001N1+00401+00301999999ADDGA1071+004801999GF107991999999999999999999MA1100311999999MW1631OC101591REMMET057METAR EDOP 031250Z 18019G31KT 6000 RA BKN016 04/03 Q1003;
0163101624999992012010313204+53417+011783FM-15+0051EDOP V0201801N010310087019N0060001N1+00401+00301999999ADDGA1021+004501999GA2071+008701999GF107991999999999999999999MA1100101999999MW1631OC101591REMMET064METAR EDOP 031320Z 18020G31KT 6000 RA FEW015 BKN029 04/03 Q1001;
0163101624999992012010313504+53417+011783FM-15+0051EDOP V0201801N009810150019N0050001N1+00501+00401999999ADDGA1041+003001999GA2071+015001999GF107991999999999999999999MA1100001999999MW1631OC101491REMMET064METAR EDOP 031350Z 18019G29KT 5000 RA SCT010 BKN050 05/04 Q1000;
0169101624999992012010314204+53417+011783FM-15+0051EDOP V0201801N009810090019N0080001N1+00501+00401999999ADDGA1021+003001999GA2071+009001999GF107991999999999999999999MA1099901999999MW1611OC101491REMMET070METAR EDOP 031420Z 18019G29KT 8000 -RA FEW010 BKN030 05/04 Q0999 RERA;
0153101624999992012010314504+53417+011783FM-15+0051EDOP V0201801N009310087019N0112651N1+00601+00401999999ADDGA1021+003001999GA2071+008701999GF107991999999999999999999MA1099901999999MW1611REMMET062METAR EDOP 031450Z 18018KT 9999 -RA FEW010 BKN029 06/04 Q0999;
0131101624999992012010315204+53417+011783FM-15+0051EDOP V0202001N010810084019N0112651N1+00701+00401999999ADDGA1071+008401999GF107991999999999999999999MA1099801999999OC101651REMMET054METAR EDOP 031520Z 20021G32KT 9999 BKN028 07/04 Q0998;
0131101624999992012010315504+53417+011783FM-15+0051EDOP V0202001N010310075019N0112651N1+00801+00401999999ADDGA1071+007501999GF107991999999999999999999MA1099701999999OC101541REMMET054METAR EDOP 031550Z 20020G30KT 9999 BKN025 08/04 Q0997;
0131101624999992012010316204+53417+011783FM-15+0051EDOP V0202001N011310087019N0112651N1+00801+00401999999ADDGA1071+008701999GF107991999999999999999999MA1099591999999OC102011REMMET054METAR EDOP 031620Z 20022G39KT 9999 BKN029 08/04 Q0996;
0141101624999992012010316504+53417+011783FM-15+0051EDOP V0202001N011810084019N0112651N1+00801+00401999999ADDGA1071+008401999GF107991999999999999999999MA1099591999999MW1611OC101751REMMET058METAR EDOP 031650Z 20023G34KT 9999 -RA BKN028 08/04 Q0996;
0140101624999992012010317204+53417+011783FM-15+0051EDOP V0202001N011810090019N0060001N1+00801+00501999999ADDGA1071+009001999GF107991999999999999999999MA1099491999999MW1631OC101851REMMET057METAR EDOP 031720Z 20023G36KT 6000 RA BKN030 08/05 Q0995;
0146101624999992012010317504+53417+011783FM-15+0051EDOP V0202001N011310081019N0112651N1+00801+00501999999ADDGA1071+008101999GF107991999999999999999999MA1099391999999MW1611OC101851REMMET063METAR EDOP 031750Z 20022G36KT 9999 -RA BKN027 08/05 Q0994 RERA;
0131101624999992012010318204+53417+011783FM-15+0051EDOP V0202001N013910084019N0112651N1+00901+00501999999ADDGA1071+008401999GF107991999999999999999999MA1099291999999OC101901REMMET054METAR EDOP 031820Z 20027G37KT 9999 BKN028 09/05 Q0993;
0163101624999992012010318504+53417+011783FM-15+0051EDOP V0202101N013410060019N0070001N1+00901+00601999999ADDGA1021+003001999GA2071+006001999GF107991999999999999999999MA1099391999999MW1631OC102111REMMET064METAR EDOP 031850Z 21026G41KT 7000 RA FEW010 BKN020 09/06 Q0994;
0163101624999992012010319204+53417+011783FM-15+0051EDOP V0202201N014910045019N0060001N1+00801+00701999999ADDGA1021+003001999GA2071+004501999GF107991999999999999999999MA1099491999999MW1631OC102161REMMET064METAR EDOP 031920Z 22029G42KT 6000 RA FEW010 BKN015 08/07 Q0995;
0125101624999992012010319364+53417+011783FM-16+0051EDOP V0202501N009810045019N0112651N1+00801+00701999999ADDGA1071+004501999GF107991999999999999999999MA1099491999999REMMET056SPECI EDOP 031936Z 25019KT 9999 BKN015 08/07 Q0995 RERA;
0125101624999992012010319504+53417+011783FM-15+0051EDOP V0202501N009310045019N0112651N1+00801+00701999999ADDGA1071+004501999GF107991999999999999999999MA1099491999999REMMET056METAR EDOP 031950Z 25018KT 9999 BKN015 08/07 Q0995 RERA;
0143101624999992012010320204+53417+011783FM-15+0051EDOP V0202401N009812200019N0112651N1+00801+00501999999ADDGA1021+004501999GA2041+006601999GF104991999999999999999999MA1099591999999REMMET058METAR EDOP 032020Z 24019KT 9999 FEW015 SCT022 08/05 Q0996;
0131101624999992012010320504+53417+011783FM-15+0051EDOP V0202501N008712200019N0112651N1+00701+00401999999ADDGA1041+006001999GF104991999999999999999999MA1099591999999OC101391REMMET054METAR EDOP 032050Z 25017G27KT 9999 SCT020 07/04 Q0996;
0120101624999992012010321204+53417+011783FM-15+0051EDOP V0202401N008712200019N0112651N1+00701+00401999999ADDGA1041+008401999GF104991999999999999999999MA1099591999999REMMET051METAR EDOP 032120Z 24017KT 9999 SCT028 07/04 Q0996;
0120101624999992012010321504+53417+011783FM-15+0051EDOP V0202401N010312200019N0112651N1+00701+00401999999ADDGA1041+009001999GF104991999999999999999999MA1099701999999REMMET051METAR EDOP 032150Z 24020KT 9999 SCT030 07/04 Q0997;
0120101624999992012010404204+53417+011783FM-15+0051EDOP V0202401N011310105019N0112651N1+00501+00101999999ADDGA1071+010501999GF107991999999999999999999MA1099901999999REMMET051METAR EDOP 040420Z 24022KT 9999 BKN035 05/01 Q0999;
0131101624999992012010404504+53417+011783FM-15+0051EDOP V0202401N009810090019N0112651N1+00601+00101999999ADDGA1071+009001999GF107991999999999999999999MA1099901999999OC101491REMMET054METAR EDOP 040450Z 24019G29KT 9999 BKN030 06/01 Q0999;
0120101624999992012010405204+53417+011783FM-15+0051EDOP V0202401N010810090019N0112651N1+00601+00001999999ADDGA1071+009001999GF107991999999999999999999MA1099901999999REMMET051METAR EDOP 040520Z 24021KT 9999 BKN030 06/00 Q0999;
0120101624999992012010405504+53417+011783FM-15+0051EDOP V0202401N010310090019N0112651N1+00501+00101999999ADDGA1071+009001999GF107991999999999999999999MA1099901999999REMMET051METAR EDOP 040550Z 24020KT 9999 BKN030 05/01 Q0999;
0120101624999992012010406504+53417+011783FM-15+0051EDOP V0202501N009810105019N0112651N1+00501+00101999999ADDGA1071+010501999GF107991999999999999999999MA1100001999999REMMET051METAR EDOP 040650Z 25019KT 9999 BKN035 05/01 Q1000;
0143101624999992012010407204+53417+011783FM-15+0051EDOP V0202401N010312200019N0112651N1+00501+00101999999ADDGA1041+009001999GA2041+015001999GF104991999999999999999999MA1100001999999REMMET058METAR EDOP 040720Z 24020KT 9999 SCT030 SCT050 05/01 Q1000;
0130101624999992012010407504+53417+011783FM-15+0051EDOP V0202501N010310075019N0112651N1+00501+00101999999ADDGA1071+007501999GF107991999999999999999999MA1100101999999MW1611REMMET055METAR EDOP 040750Z 25020KT 9999 -RA BKN025 05/01 Q1001;
0120101624999992012010408204+53417+011783FM-15+0051EDOP V0202501N010810060019N0112651N1+00501+00201999999ADDGA1071+006001999GF107991999999999999999999MA1100101999999REMMET051METAR EDOP 040820Z 25021KT 9999 BKN020 05/02 Q1001;
0143101624999992012010408504+53417+011783FM-15+0051EDOP V0202501N008710048019N0112651N1+00401+00201999999ADDGA1041+003001999GA2071+004801999GF107991999999999999999999MA1100201999999REMMET058METAR EDOP 040850Z 25017KT 9999 SCT010 BKN016 04/02 Q1002;
0120101624999992012010409204+53417+011783FM-15+0051EDOP V0202501N009310045019N0112651N1+00401+00301999999ADDGA1071+004501999GF107991999999999999999999MA1100201999999REMMET051METAR EDOP 040920Z 25018KT 9999 BKN015 04/03 Q1002;
0120101624999992012010409504+53417+011783FM-15+0051EDOP V0202501N008710045019N0112651N1+00401+00201999999ADDGA1071+004501999GF107991999999999999999999MA1100311999999REMMET051METAR EDOP 040950Z 25017KT 9999 BKN015 04/02 Q1003;
0120101624999992012010410204+53417+011783FM-15+0051EDOP V0202401N008210045019N0112651N1+00401+00301999999ADDGA1071+004501999GF107991999999999999999999MA1100311999999REMMET051METAR EDOP 041020Z 24016KT 9999 BKN015 04/03 Q1003;
0120101624999992012010410504+53417+011783FM-15+0051EDOP V0202501N008210045019N0112651N1+00501+00301999999ADDGA1071+004501999GF107991999999999999999999MA1100311999999REMMET051METAR EDOP 041050Z 25016KT 9999 BKN015 05/03 Q1003;
0131101624999992012010411044+53417+011783FM-16+0051EDOP V0202501N011310045019N0112651N1+00501+00201999999ADDGA1071+004501999GF107991999999999999999999MA1100411999999OC101751REMMET054SPECI EDOP 041104Z 25022G34KT 9999 BKN015 05/02 Q1004;
0120101624999992012010411204+53417+011783FM-15+0051EDOP V0202501N012310045019N0112651N1+00501+00201999999ADDGA1071+004501999GF107991999999999999999999MA1100411999999REMMET051METAR EDOP 041120Z 25024KT 9999 BKN015 05/02 Q1004;
0120101624999992012010411504+53417+011783FM-15+0051EDOP V0202601N010810045019N0112651N1+00401+00201999999ADDGA1071+004501999GF107991999999999999999999MA1100411999999REMMET051METAR EDOP 041150Z 26021KT 9999 BKN015 04/02 Q1004;
0120101624999992012010412204+53417+011783FM-15+0051EDOP V0202501N008712200019N0112651N1+00401+00201999999ADDGA1041+004501999GF104991999999999999999999MA1100411999999REMMET051METAR EDOP 041220Z 25017KT 9999 SCT015 04/02 Q1004;
0120101624999992012010412504+53417+011783FM-15+0051EDOP V0202501N010310045019N0112651N1+00401+00201999999ADDGA1071+004501999GF107991999999999999999999MA1100411999999REMMET051METAR EDOP 041250Z 25020KT 9999 BKN015 04/02 Q1004;
0131101624999992012010413204+53417+011783FM-15+0051EDOP V0202601N009310057019N0112651N1+00401+00201999999ADDGA1071+005701999GF107991999999999999999999MA1100511999999OC101441REMMET054METAR EDOP 041320Z 26018G28KT 9999 BKN019 04/02 Q1005;
0120101624999992012010413504+53417+011783FM-15+0051EDOP V0202501N009312200019N0112651N1+00501+00201999999ADDGA1041+005401999GF104991999999999999999999MA1100511999999REMMET051METAR EDOP 041350Z 25018KT 9999 SCT018 05/02 Q1005;
0120101624999992012010414204+53417+011783FM-15+0051EDOP V0202501N009810054019N0112651N1+00501+00201999999ADDGA1071+005401999GF107991999999999999999999MA1100511999999REMMET051METAR EDOP 041420Z 25019KT 9999 BKN018 05/02 Q1005;
0120101624999992012010414504+53417+011783FM-15+0051EDOP V0202501N009312200019N0112651N1+00401+00101999999ADDGA1041+005401999GF104991999999999999999999MA1100611999999REMMET051METAR EDOP 041450Z 25018KT 9999 SCT018 04/01 Q1006;
0130101624999992012010415204+53417+011783FM-15+0051EDOP V0202501N009310048019N0070001N1+00401+00101999999ADDGA1071+004801999GF107991999999999999999999MA1100611999999MW1511REMMET055METAR EDOP 041520Z 25018KT 7000 -DZ BKN016 04/01 Q1006;
0143101624999992012010415504+53417+011783FM-15+0051EDOP V0202501N010312200019N0112651N1+00301+00201999999ADDGA1021+003001999GA2041+015001999GF104991999999999999999999MA1100611999999REMMET058METAR EDOP 041550Z 25020KT 9999 FEW010 SCT050 03/02 Q1006;
0120101624999992012010416204+53417+011783FM-15+0051EDOP V0202501N008712200019N0112651N1+00301+00101999999ADDGA1041+009001999GF104991999999999999999999MA1100611999999REMMET051METAR EDOP 041620Z 25017KT 9999 SCT030 03/01 Q1006;
0120101624999992012010416504+53417+011783FM-15+0051EDOP V0202401N007212200019N0112651N1+00301+00101999999ADDGA1021+009001999GF102991999999999999999999MA1100511999999REMMET051METAR EDOP 041650Z 24014KT 9999 FEW030 03/01 Q1005;
0129101624999992012010504204+53417+011783FM-15+0051EDOP V0202201N009810030019N0060001N1+00501+00401999999ADDGA1071+003001999GF107991999999999999999999MA1098001999999MW1631REMMET054METAR EDOP 050420Z 22019KT 6000 RA BKN010 05/04 Q0980;
0140101624999992012010504504+53417+011783FM-15+0051EDOP V0202201N011310030019N0060001N1+00501+00401999999ADDGA1071+003001999GF107991999999999999999999MA1097901999999MW1631OC101701REMMET057METAR EDOP 050450Z 22022G33KT 6000 RA BKN010 05/04 Q0979;
0129101624999992012010505204+53417+011783FM-15+0051EDOP V0202301N012310030019N0060001N1+00501+00501999999ADDGA1071+003001999GF107991999999999999999999MA1097801999999MW1631REMMET054METAR EDOP 050520Z 23024KT 6000 RA BKN010 05/05 Q0978;
0129101624999992012010505504+53417+011783FM-15+0051EDOP V0202301N012310030019N0060001N1+00601+00501999999ADDGA1071+003001999GF107991999999999999999999MA1097701999999MW1631REMMET054METAR EDOP 050550Z 23024KT 6000 RA BKN010 06/05 Q0977;
0131101624999992012010506504+53417+011783FM-15+0051EDOP V0202501N011812200019N0112651N1+00601+00401999999ADDGA1041+004501999GF104991999999999999999999MA1097701999999OC101801REMMET054METAR EDOP 050650Z 25023G35KT 9999 SCT015 06/04 Q0977;
0131101624999992012010507204+53417+011783FM-15+0051EDOP V0202601N009312200019N0112651N1+00601+00301999999ADDGA1041+006001999GF104991999999999999999999MA1097701999999OC101441REMMET054METAR EDOP 050720Z 26018G28KT 9999 SCT020 06/03 Q0977;
0129101624999992012010507504+53417+011783FM-15+0051EDOP V0202701N010810030019N0070001N1+00501+00201999999ADDGA1071+003001999GF107991999999999999999999MA1097801999999MW1631REMMET054METAR EDOP 050750Z 27021KT 7000 RA BKN010 05/02 Q0978;
0120101624999992012010508204+53417+011783FM-15+0051EDOP V0202601N006710030019N0112651N1+00501+00301999999ADDGA1071+003001999GF107991999999999999999999MA1097701999999REMMET051METAR EDOP 050820Z 26013KT 9999 BKN010 05/03 Q0977;
0143101624999992012010508504+53417+011783FM-15+0051EDOP V0202501N008712200019N0112651N1+00601+00401999999ADDGA1041+006001999GA2041+015001999GF104991999999999999999999MA1097701999999REMMET058METAR EDOP 050850Z 25017KT 9999 SCT020 SCT050 06/04 Q0977;
0120101624999992012010509204+53417+011783FM-15+0051EDOP V0202401N009312200019N0112651N1+00501+00301999999ADDGA1041+007501999GF104991999999999999999999MA1097701999999REMMET051METAR EDOP 050920Z 24018KT 9999 SCT025 05/03 Q0977;
0139101624999992012010509504+53417+011783FM-15+0051EDOP V0202801N007212200019N0112651N1+00601+00301999999ADDGA1041+006601999GF104991999999999999999999MA1097701999999OC101231REMMET062METAR EDOP 050950Z 28014G24KT 250V310 9999 SCT022 06/03 Q0977;
0120101624999992012010510204+53417+011783FM-15+0051EDOP V0202501N009312200019N0112651N1+00701+00301999999ADDGA1041+007801999GF104991999999999999999999MA1097601999999REMMET051METAR EDOP 051020Z 25018KT 9999 SCT026 07/03 Q0976;
0143101624999992012010510504+53417+011783FM-15+0051EDOP V0202501N010312200019N0112651N1+00601+00201999999ADDGA1041+009001999GA2041+018001999GF104991999999999999999999MA1097491999999REMMET058METAR EDOP 051050Z 25020KT 9999 SCT030 SCT060 06/02 Q0975;
0143101624999992012010511204+53417+011783FM-15+0051EDOP V0202401N009810090019N0112651N1+00701+00201999999ADDGA1021+003001999GA2071+009001999GF107991999999999999999999MA1097491999999REMMET058METAR EDOP 051120Z 24019KT 9999 FEW010 BKN030 07/02 Q0975;
0130101624999992012010511504+53417+011783FM-15+0051EDOP V0202401N009310060019N0112651N1+00601+00201999999ADDGA1071+006001999GF107991999999999999999999MA1097391999999MW1611REMMET055METAR EDOP 051150Z 24018KT 9999 -RA BKN020 06/02 Q0974;
0141101624999992012010512134+53417+011783FM-16+0051EDOP V0202501N010810045019N0112651N1+00501+00301999999ADDGA1071+004501999GF107991999999999999999999MA1097391999999MW1611OC101801REMMET058SPECI EDOP 051213Z 25021G35KT 9999 -RA BKN015 05/03 Q0974;
0141101624999992012010512204+53417+011783FM-15+0051EDOP V0202501N011810045019N0112651N1+00401+00301999999ADDGA1071+004501999GF107991999999999999999999MA1097391999999MW1611OC101901REMMET058METAR EDOP 051220Z 25023G37KT 9999 -RA BKN015 04/03 Q0974;
0120101624999992012010512504+53417+011783FM-15+0051EDOP V0202401N008712200019N0112651N1+00401+00301999999ADDGA1041+005401999GF104991999999999999999999MA1097291999999REMMET051METAR EDOP 051250Z 24017KT 9999 SCT018 04/03 Q0973;
0141101624999992012010513204+53417+011783FM-15+0051EDOP V0202501N009310045019N0112651N1+00401+00301999999ADDGA1071+004501999GF107991999999999999999999MA1097191999999MW1611OC101541REMMET058METAR EDOP 051320Z 25018G30KT 9999 -RA BKN015 04/03 Q0972;
0130101624999992012010513504+53417+011783FM-15+0051EDOP V0202401N009810048019N0112651N1+00401+00301999999ADDGA1071+004801999GF107991999999999999999999MA1097191999999MW1611REMMET055METAR EDOP 051350Z 24019KT 9999 -RA BKN016 04/03 Q0972;
0120101624999992012010514204+53417+011783FM-15+0051EDOP V0202601N008710045019N0112651N1+00501+00301999999ADDGA1071+004501999GF107991999999999999999999MA1097191999999REMMET051METAR EDOP 051420Z 26017KT 9999 BKN015 05/03 Q0972;
0130101624999992012010514504+53417+011783FM-15+0051EDOP V0202501N007710054019N0112651N1+00401+00301999999ADDGA1071+005401999GF107991999999999999999999MA1097191999999MW1611REMMET055METAR EDOP 051450Z 25015KT 9999 -RA BKN018 04/03 Q0972;
0141101624999992012010515104+53417+011783FM-16+0051EDOP V0202401N009310045019N0112651N1+00501+00401999999ADDGA1071+004501999GF107991999999999999999999MA1097191999999MW1611OC101651REMMET058SPECI EDOP 051510Z 24018G32KT 9999 -RA BKN015 05/04 Q0972;
0141101624999992012010515204+53417+011783FM-15+0051EDOP V0202501N010810045019N0112651N1+00501+00401999999ADDGA1071+004501999GF107991999999999999999999MA1097191999999MW1611OC101651REMMET058METAR EDOP 051520Z 25021G32KT 9999 -RA BKN015 05/04 Q0972;
0149101624999992012010515504+53417+011783FM-15+0051EDOP V0202801N009810048019N0112651N1+00501+00401999999ADDGA1071+004801999GF107991999999999999999999MA1097291999999MW1611OC101651REMMET066METAR EDOP 051550Z 28019G32KT 260V320 9999 -RA BKN016 05/04 Q0973;
0139101624999992012010516204+53417+011783FM-15+0051EDOP V0202901N008710060019N0112651N1+00601+00301999999ADDGA1071+006001999GF107991999999999999999999MA1097391999999OC101651REMMET062METAR EDOP 051620Z 29017G32KT 260V320 9999 BKN020 06/03 Q0974;
0131101624999992012010516504+53417+011783FM-15+0051EDOP V0202901N008210054019N0112651N1+00601+00301999999ADDGA1071+005401999GF107991999999999999999999MA1097491999999OC101341REMMET054METAR EDOP 051650Z 29016G26KT 9999 BKN018 06/03 Q0975;
0129101624999992012010604204+53417+011783FM-15+0051EDOP V0203101N005112200019N0112651N1+00201+00001999999ADDGA1021+006001999GF102991999999999999999999MA1099591999999REMMET060METAR EDOP 060420Z 31010KT 270V330 9999 FEW020 02/M00 Q0996;
0129101624999992012010604504+53417+011783FM-15+0051EDOP V0203101N005112200019N0112651N1+00201+00001999999ADDGA1041+006301999GF104991999999999999999999MA1099701999999REMMET060METAR EDOP 060450Z 31010KT 280V340 9999 SCT021 02/M00 Q0997;
0129101624999992012010605204+53417+011783FM-15+0051EDOP V0203001N004612200019N0112651N1+00101+00001999999ADDGA1041+006001999GF104991999999999999999999MA1099801999999REMMET060METAR EDOP 060520Z 30009KT 270V340 9999 SCT020 01/M00 Q0998;
0128101624999992012010605504+53417+011783FM-15+0051EDOP V0203001N004112200019N0112651N1+00201+00001999999ADDGA1041+006001999GF104991999999999999999999MA1099901999999REMMET059METAR EDOP 060550Z 30008KT 260V340 9999 SCT020 02/00 Q0999;
0129101624999992012010606504+53417+011783FM-15+0051EDOP V0203101N004610090019N0112651N1+00201-00101999999ADDGA1071+009001999GF107991999999999999999999MA1100101999999REMMET060METAR EDOP 060650Z 31009KT 280V340 9999 BKN030 02/M01 Q1001;
0152101624999992012010607204+53417+011783FM-15+0051EDOP V0203201N005710060019N0112651N1+00301-00101999999ADDGA1021+002401999GA2071+006001999GF107991999999999999999999MA1100201999999REMMET067METAR EDOP 060720Z 32011KT 290V360 9999 FEW008 BKN020 03/M01 Q1002;
0121101624999992012010607504+53417+011783FM-15+0051EDOP V0203101N005110060019N0112651N1+00201+00001999999ADDGA1071+006001999GF107991999999999999999999MA1100311999999REMMET052METAR EDOP 060750Z 31010KT 9999 BKN020 02/M00 Q1003;
0152101624999992012010608204+53417+011783FM-15+0051EDOP V0203101N003610090019N0112651N1+00201+00001999999ADDGA1021+006001999GA2071+009001999GF107991999999999999999999MA1100411999999REMMET067METAR EDOP 060820Z 31007KT 270V340 9999 FEW020 BKN030 02/M00 Q1004;
0151101624999992012010608504+53417+011783FM-15+0051EDOP V0203101N004110090019N0112651N1+00201+00001999999ADDGA1021+005401999GA2071+009001999GF107991999999999999999999MA1100511999999REMMET066METAR EDOP 060850Z 31008KT 280V340 9999 FEW018 BKN030 02/00 Q1005;
0154101624999992012010609204+53417+011783FM-15+0051EDOP V0203101N004110117019N0112651N1+00201+00001999999ADDGA1041+005401999GA2071+011701999GF107991999999999999999999MA1100611999999MW1161REMMET063METAR EDOP 060920Z 31008KT 9999 VCSH SCT018 BKN039 02/00 Q1006;
0151101624999992012010609504+53417+011783FM-15+0051EDOP V0203101N004610111019N0112651N1+00201+00101999999ADDGA1041+003901999GA2071+011101999GF107991999999999999999999MA1100711999999REMMET066METAR EDOP 060950Z 31009KT 280V340 9999 SCT013 BKN037 02/01 Q1007;
0151101624999992012010610204+53417+011783FM-15+0051EDOP V0203101N004110075019N0112651N1+00301+00001999999ADDGA1041+003001999GA2071+007501999GF107991999999999999999999MA1100711999999REMMET066METAR EDOP 061020Z 31008KT 280V350 9999 SCT010 BKN025 03/00 Q1007;
0128101624999992012010610504+53417+011783FM-15+0051EDOP V0203101N004610054019N0112651N1+00301+00001999999ADDGA1071+005401999GF107991999999999999999999MA1100811999999REMMET059METAR EDOP 061050Z 31009KT 280V340 9999 BKN018 03/00 Q1008;
0151101624999992012010611204+53417+011783FM-15+0051EDOP V0203201N005110111019N0112651N1+00301+00001999999ADDGA1041+004801999GA2071+011101999GF107991999999999999999999MA1100911999999REMMET066METAR EDOP 061120Z 32010KT 290V350 9999 SCT016 BKN037 03/00 Q1009;
0152101624999992012010611504+53417+011783FM-15+0051EDOP V0203101N003610099019N0112651N1+00301+00001999999ADDGA1021+004801999GA2071+009901999GF107991999999999999999999MA1100911999999REMMET067METAR EDOP 061150Z 31007KT 270V350 9999 FEW016 BKN033 03/M00 Q1009;
0129101624999992012010612204+53417+011783FM-15+0051EDOP V0203001N004110096019N0112651N1+00301+00001999999ADDGA1071+009601999GF107991999999999999999999MA1101021999999REMMET060METAR EDOP 061220Z 30008KT 270V340 9999 BKN032 03/M00 Q1010;
0128101624999992012010612504+53417+011783FM-15+0051EDOP V0202801N003110060019N0112651N1+00301+00001999999ADDGA1071+006001999GF107991999999999999999999MA1101021999999REMMET059METAR EDOP 061250Z 28006KT 250V310 9999 BKN020 03/00 Q1010;
0120101624999992012010613204+53417+011783FM-15+0051EDOP V0202801N004110090019N0112651N1+00301+00001999999ADDGA1071+009001999GF107991999999999999999999MA1101081999999REMMET051METAR EDOP 061320Z 28008KT 9999 BKN030 03/00 Q1011;
0120101624999992012010613504+53417+011783FM-15+0051EDOP V0202801N003110078019N0112651N1+00301+00001999999ADDGA1071+007801999GF107991999999999999999999MA1101081999999REMMET051METAR EDOP 061350Z 28006KT 9999 BKN026 03/00 Q1011;
0121101624999992012010614204+53417+011783FM-15+0051EDOP V0203001N003612200019N0112651N1+00201-00201999999ADDGA1041+006601999GF104991999999999999999999MA1101191999999REMMET052METAR EDOP 061420Z 30007KT 9999 SCT022 02/M02 Q1012;
0121101624999992012010615204+53417+011783FM-15+0051EDOP V0202801N003112200019N0112651N1+00101-00201999999ADDGA1021+006601999GF102991999999999999999999MA1101291999999REMMET052METAR EDOP 061520Z 28006KT 9999 FEW022 01/M02 Q1013;
0122101624999992012010615504+53417+011783FM-15+0051EDOP V0202801N003112200019N0112651N1+00001-00201999999ADDGA1021+006601999GF102991999999999999999999MA1101291999999REMMET053METAR EDOP 061550Z 28006KT 9999 FEW022 M00/M02 Q1013;
0074101624999992012010616204+53417+011783FM-15+0051EDOP V0202601N003619999999Y0099001N1-00101-00301999999ADDMA1101291999999REMMET047METAR EDOP 061620Z 26007KT CAVOK M01/M03 Q1013;
0074101624999992012010616504+53417+011783FM-15+0051EDOP V0202501N002119999999Y0099001N1-00101-00201999999ADDMA1101291999999REMMET047METAR EDOP 061650Z 25004KT CAVOK M01/M02 Q1013;
0130101624999992012010704204+53417+011783FM-15+0051EDOP V0202301N005710060019N0112651N1+00401+00101999999ADDGA1071+006001999GF107991999999999999999999MA1100911999999MW1611REMMET055METAR EDOP 070420Z 23011KT 9999 -RA BKN020 04/01 Q1009;
0130101624999992012010704504+53417+011783FM-15+0051EDOP V0202201N006210054019N0112651N1+00401+00201999999ADDGA1071+005401999GF107991999999999999999999MA1100911999999MW1611REMMET055METAR EDOP 070450Z 22012KT 9999 -RA BKN018 04/02 Q1009;
0120101624999992012010705504+53417+011783FM-15+0051EDOP V0202201N007710030019N0112651N1+00301+00301999999ADDGA1071+003001999GF107991999999999999999999MA1100711999999REMMET051METAR EDOP 070550Z 22015KT 9999 BKN010 03/03 Q1007;
0130101624999992012010706204+53417+011783FM-15+0051EDOP V0202201N007210018019N0112651N1+00301+00301999999ADDGA1071+001801999GF107991999999999999999999MA1100711999999MW1611REMMET055METAR EDOP 070620Z 22014KT 9999 -RA BKN006 03/03 Q1007;
0130101624999992012010706504+53417+011783FM-15+0051EDOP V0202201N007210018019N0080001N1+00401+00301999999ADDGA1071+001801999GF107991999999999999999999MA1100611999999MW1511REMMET055METAR EDOP 070650Z 22014KT 8000 -DZ BKN006 04/03 Q1006;
0129101624999992012010707204+53417+011783FM-15+0051EDOP V0202201N007210018019N0040001N1+00401+00301999999ADDGA1081+001801999GF108991999999999999999999MA1100611999999MW1631REMMET054METAR EDOP 070720Z 22014KT 4000 RA OVC006 04/03 Q1006;
0129101624999992012010708204+53417+011783FM-15+0051EDOP V0202101N005710012019N0040001N1+00401+00401999999ADDGA1071+001201999GF107991999999999999999999MA1100511999999MW1631REMMET054METAR EDOP 070820Z 21011KT 4000 RA BKN004 04/04 Q1005;
0144101624999992012010708504+53417+011783FM-15+0051EDOP V0202201N006210018019N0035001N1+00401+00401999999ADDGA1071+001801999GF107991999999999999999999MA1100511999999MW1101MW2611REMMET063METAR EDOP 070850Z 22012KT 3500 -RA BR BKN006 04/04 Q1005 RERA;
0139101624999992012010709204+53417+011783FM-15+0051EDOP V0202201N006710018019N0035001N1+00401+00401999999ADDGA1071+001801999GF107991999999999999999999MA1100411999999MW1101MW2611REMMET058METAR EDOP 070920Z 22013KT 3500 -RA BR BKN006 04/04 Q1004;
0130101624999992012010709504+53417+011783FM-15+0051EDOP V0202201N007210018019N0080001N1+00501+00401999999ADDGA1071+001801999GF107991999999999999999999MA1100411999999MW1611REMMET055METAR EDOP 070950Z 22014KT 8000 -RA BKN006 05/04 Q1004;
0139101624999992012010710204+53417+011783FM-15+0051EDOP V0202301N007210015019N0030001N1+00501+00501999999ADDGA1071+001501999GF107991999999999999999999MA1100311999999MW1101MW2611REMMET058METAR EDOP 071020Z 23014KT 3000 -RA BR BKN005 05/05 Q1003;
0139101624999992012010710504+53417+011783FM-15+0051EDOP V0202301N006710015019N0045001N1+00501+00501999999ADDGA1071+001501999GF107991999999999999999999MA1100311999999MW1101MW2511REMMET058METAR EDOP 071050Z 23013KT 4500 -DZ BR BKN005 05/05 Q1003;
0120101624999992012010711204+53417+011783FM-15+0051EDOP V0202401N007210015019N0080001N1+00601+00601999999ADDGA1071+001501999GF107991999999999999999999MA1100201999999REMMET051METAR EDOP 071120Z 24014KT 8000 BKN005 06/06 Q1002;
0120101624999992012010712204+53417+011783FM-15+0051EDOP V0202501N007210024019N0080001N1+00701+00601999999ADDGA1071+002401999GF107991999999999999999999MA1100201999999REMMET051METAR EDOP 071220Z 25014KT 8000 BKN008 07/06 Q1002;
0120101624999992012010712504+53417+011783FM-15+0051EDOP V0202601N007710030019N0112651N1+00701+00701999999ADDGA1071+003001999GF107991999999999999999999MA1100201999999REMMET051METAR EDOP 071250Z 26015KT 9999 BKN010 07/07 Q1002;
0140101624999992012010713204+53417+011783FM-15+0051EDOP V0202901N007210030019N0060001N1+00701+00601999999ADDGA1071+003001999GF107991999999999999999999MA1100201999999MW1631OC101291REMMET057METAR EDOP 071320Z 29014G25KT 6000 RA BKN010 07/06 Q1002;
0154101624999992012010713504+53417+011783FM-15+0051EDOP V0203001N006712200019N0112651N1+00601+00501999999ADDGA1041+002701999GA2041+009001999GF104991999999999999999999MA1100311999999MW1161REMMET063METAR EDOP 071350Z 30013KT 9999 VCSH SCT009 SCT030 06/05 Q1003;
0120101624999992012010714504+53417+011783FM-15+0051EDOP V0202801N005110045019N0112651N1+00601+00501999999ADDGA1071+004501999GF107991999999999999999999MA1100411999999REMMET051METAR EDOP 071450Z 28010KT 9999 BKN015 06/05 Q1004;
0120101624999992012010715204+53417+011783FM-15+0051EDOP V0202801N005710054019N0112651N1+00601+00401999999ADDGA1071+005401999GF107991999999999999999999MA1100411999999REMMET051METAR EDOP 071520Z 28011KT 9999 BKN018 06/04 Q1004;
0120101624999992012010715504+53417+011783FM-15+0051EDOP V0202701N006210054019N0112651N1+00601+00401999999ADDGA1071+005401999GF107991999999999999999999MA1100411999999REMMET051METAR EDOP 071550Z 27012KT 9999 BKN018 06/04 Q1004;
0120101624999992012010716204+53417+011783FM-15+0051EDOP V0202701N005710048019N0112651N1+00601+00501999999ADDGA1071+004801999GF107991999999999999999999MA1100511999999REMMET051METAR EDOP 071620Z 27011KT 9999 BKN016 06/05 Q1005;
0120101624999992012010716504+53417+011783FM-15+0051EDOP V0202701N005710048019N0112651N1+00601+00501999999ADDGA1071+004801999GF107991999999999999999999MA1100511999999REMMET051METAR EDOP 071650Z 27011KT 9999 BKN016 06/05 Q1005;
0130101624999992012010804204+53417+011783FM-15+0051EDOP V0202501N005110021019N0070001N1+00401+00401999999ADDGA1071+002101999GF107991999999999999999999MA1100811999999MW1611REMMET055METAR EDOP 080420Z 25010KT 7000 -RA BKN007 04/04 Q1008;
0153101624999992012010804504+53417+011783FM-15+0051EDOP V0202701N006710036019N0060001N1+00501+00401999999ADDGA1021+001801999GA2071+003601999GF107991999999999999999999MA1100811999999MW1611REMMET062METAR EDOP 080450Z 27013KT 6000 -RA FEW006 BKN012 05/04 Q1008;
0120101624999992012010805204+53417+011783FM-15+0051EDOP V0202601N004610060019N0112651N1+00401+00401999999ADDGA1071+006001999GF107991999999999999999999MA1100811999999REMMET051METAR EDOP 080520Z 26009KT 9999 BKN020 04/04 Q1008;
0143101624999992012010805504+53417+011783FM-15+0051EDOP V0202401N004610060019N0112651N1+00401+00401999999ADDGA1021+002401999GA2071+006001999GF107991999999999999999999MA1100811999999REMMET058METAR EDOP 080550Z 24009KT 9999 FEW008 BKN020 04/04 Q1008;
0120101624999992012010806504+53417+011783FM-15+0051EDOP V0202501N006210024019N0112651N1+00501+00401999999ADDGA1071+002401999GF107991999999999999999999MA1100811999999REMMET051METAR EDOP 080650Z 25012KT 9999 BKN008 05/04 Q1008;
0120101624999992012010807204+53417+011783FM-15+0051EDOP V0202501N005710021019N0112651N1+00401+00401999999ADDGA1071+002101999GF107991999999999999999999MA1100811999999REMMET051METAR EDOP 080720Z 25011KT 9999 BKN007 04/04 Q1008;
0143101624999992012010808204+53417+011783FM-15+0051EDOP V0202501N004610096019N0112651N1+00501+00401999999ADDGA1041+001801999GA2071+009601999GF107991999999999999999999MA1100911999999REMMET058METAR EDOP 080820Z 25009KT 9999 SCT006 BKN032 05/04 Q1009;
0130101624999992012010808504+53417+011783FM-15+0051EDOP V0202601N005110024019N0070001N1+00501+00501999999ADDGA1071+002401999GF107991999999999999999999MA1100911999999MW1611REMMET055METAR EDOP 080850Z 26010KT 7000 -RA BKN008 05/05 Q1009;
0130101624999992012010809204+53417+011783FM-15+0051EDOP V0202601N004610021019N0070001N1+00501+00501999999ADDGA1071+002101999GF107991999999999999999999MA1100911999999MW1611REMMET055METAR EDOP 080920Z 26009KT 7000 -RA BKN007 05/05 Q1009;
0153101624999992012010809504+53417+011783FM-15+0051EDOP V0202701N005110039019N0080001N1+00501+00501999999ADDGA1071+003901999GA2071+010501999GF107991999999999999999999MA1100911999999MW1511REMMET062METAR EDOP 080950Z 27010KT 8000 -DZ BKN013 BKN035 05/05 Q1009;
0130101624999992012010810204+53417+011783FM-15+0051EDOP V0202801N005110027019N0080001N1+00601+00501999999ADDGA1071+002701999GF107991999999999999999999MA1101021999999MW1511REMMET055METAR EDOP 081020Z 28010KT 8000 -DZ BKN009 06/05 Q1010;
0143101624999992012010810504+53417+011783FM-15+0051EDOP V0202801N004112200019N0112651N1+00601+00601999999ADDGA1041+003001999GA2041+006001999GF104991999999999999999999MA1101021999999REMMET058METAR EDOP 081050Z 28008KT 9999 SCT010 SCT020 06/06 Q1010;
0151101624999992012010811204+53417+011783FM-15+0051EDOP V0202801N004110105019N0112651N1+00601+00501999999ADDGA1041+003001999GA2071+010501999GF107991999999999999999999MA1101021999999REMMET066METAR EDOP 081120Z 28008KT 250V310 9999 SCT010 BKN035 06/05 Q1010;
0143101624999992012010811504+53417+011783FM-15+0051EDOP V0202801N005112200019N0112651N1+00601+00601999999ADDGA1041+004501999GA2041+010501999GF104991999999999999999999MA1101021999999REMMET058METAR EDOP 081150Z 28010KT 9999 SCT015 SCT035 06/06 Q1010;
0120101624999992012010812204+53417+011783FM-15+0051EDOP V0203001N004110045019N0112651N1+00601+00501999999ADDGA1071+004501999GF107991999999999999999999MA1101081999999REMMET051METAR EDOP 081220Z 30008KT 9999 BKN015 06/05 Q1011;
0120101624999992012010812504+53417+011783FM-15+0051EDOP V0202801N004110045019N0112651N1+00601+00501999999ADDGA1071+004501999GF107991999999999999999999MA1101081999999REMMET051METAR EDOP 081250Z 28008KT 9999 BKN015 06/05 Q1011;
0154101624999992012010813504+53417+011783FM-15+0051EDOP V0202901N003612200019N0112651N1+00601+00601999999ADDGA1021+003001999GA2041+007501999GF104991999999999999999999MA1101191999999MW1161REMMET063METAR EDOP 081350Z 29007KT 9999 VCSH FEW010 SCT025 06/06 Q1012;
0162101624999992012010814204+53417+011783FM-15+0051EDOP V0203001N003610060019N0112651N1+00601+00501999999ADDGA1021+003001999GA2071+006001999GF107991999999999999999999MA1101191999999MW1161REMMET071METAR EDOP 081420Z 30007KT 260V330 9999 VCSH FEW010 BKN020 06/05 Q1012;
0151101624999992012010814504+53417+011783FM-15+0051EDOP V0203101N003610090019N0112651N1+00501+00401999999ADDGA1041+003001999GA2071+009001999GF107991999999999999999999MA1101291999999REMMET066METAR EDOP 081450Z 31007KT 280V340 9999 SCT010 BKN030 05/04 Q1013;
0151101624999992012010815204+53417+011783FM-15+0051EDOP V0203101N003110090019N0112651N1+00501+00401999999ADDGA1021+004501999GA2071+009001999GF107991999999999999999999MA1101291999999REMMET066METAR EDOP 081520Z 31006KT 270V350 9999 FEW015 BKN030 05/04 Q1013;
0128101624999992012010816204+53417+011783FM-15+0051EDOP V0203101N003110060019N0112651N1+00501+00501999999ADDGA1071+006001999GF107991999999999999999999MA1101391999999REMMET059METAR EDOP 081620Z 31006KT 280V340 9999 BKN020 05/05 Q1014;
0143101624999992012010816504+53417+011783FM-15+0051EDOP V0203001N003110090019N0112651N1+00501+00401999999ADDGA1021+004501999GA2071+009001999GF107991999999999999999999MA1101491999999REMMET058METAR EDOP 081650Z 30006KT 9999 FEW015 BKN030 05/04 Q1015;
0138101624999992012010904204+53417+011783FM-15+0051EDOP V0203101N002110033019N0112651N1+00201+00201999999ADDGA1071+003301999GF107991999999999999999999MA1102201999999MW1511REMMET063METAR EDOP 090420Z 31004KT 270V010 9999 -DZ BKN011 02/02 Q1022;
0151101624999992012010904504+53417+011783FM-15+0051EDOP V0203201N003610054019N0112651N1+00201+00001999999ADDGA1041+003301999GA2071+005401999GF107991999999999999999999MA1102201999999REMMET066METAR EDOP 090450Z 32007KT 290V350 9999 SCT011 BKN018 02/00 Q1022;
0121101624999992012010905204+53417+011783FM-15+0051EDOP V0203001N003110054019N0112651N1+00201+00001999999ADDGA1071+005401999GF107991999999999999999999MA1102201999999REMMET052METAR EDOP 090520Z 30006KT 9999 BKN018 02/M00 Q1022;
0120101624999992012010906204+53417+011783FM-15+0051EDOP V0202701N002110093019N0112651N1+00201+00001999999ADDGA1071+009301999GF107991999999999999999999MA1102201999999REMMET051METAR EDOP 090620Z 27004KT 9999 BKN031 02/00 Q1022;
0120101624999992012010907204+53417+011783FM-15+0051EDOP V0202301N001512200019N0112651N1+00101+00001999999ADDGA1021+009901999GF102991999999999999999999MA1102301999999REMMET051METAR EDOP 090720Z 23003KT 9999 FEW033 01/00 Q1023;
0120101624999992012010907504+53417+011783FM-15+0051EDOP V0202401N001012200019N0112651N1+00101+00101999999ADDGA1021+010501999GF102991999999999999999999MA1102201999999REMMET051METAR EDOP 090750Z 24002KT 9999 FEW035 01/01 Q1022;
0120101624999992012010908204+53417+011783FM-15+0051EDOP V0202401N002612200019N0112651N1+00201+00101999999ADDGA1041+011401999GF104991999999999999999999MA1102301999999REMMET051METAR EDOP 090820Z 24005KT 9999 SCT038 02/01 Q1023;
0120101624999992012010908504+53417+011783FM-15+0051EDOP V0202401N003610114019N0112651N1+00201+00101999999ADDGA1071+011401999GF107991999999999999999999MA1102301999999REMMET051METAR EDOP 090850Z 24007KT 9999 BKN038 02/01 Q1023;
0120101624999992012010909204+53417+011783FM-15+0051EDOP V0202301N003110120019N0112651N1+00201+00101999999ADDGA1071+012001999GF107991999999999999999999MA1102301999999REMMET051METAR EDOP 090920Z 23006KT 9999 BKN040 02/01 Q1023;
0120101624999992012010909504+53417+011783FM-15+0051EDOP V0202101N002110114019N0112651N1+00301+00101999999ADDGA1071+011401999GF107991999999999999999999MA1102301999999REMMET051METAR EDOP 090950Z 21004KT 9999 BKN038 03/01 Q1023;
0143101624999992012010910204+53417+011783FM-15+0051EDOP V0201901N002110066019N0112651N1+00301+00101999999ADDGA1041+003901999GA2071+006601999GF107991999999999999999999MA1102201999999REMMET058METAR EDOP 091020Z 19004KT 9999 SCT013 BKN022 03/01 Q1022;
0128101624999992012010910504+53417+011783FM-15+0051EDOP V0201901N002110033019N0112651N1+00301+00101999999ADDGA1071+003301999GF107991999999999999999999MA1102201999999REMMET059METAR EDOP 091050Z 19004KT 140V220 9999 BKN011 03/01 Q1022;
0128101624999992012010911204+53417+011783FM-15+0051EDOP V0201901N002110033019N0112651N1+00301+00101999999ADDGA1071+003301999GF107991999999999999999999MA1102201999999REMMET059METAR EDOP 091120Z 19004KT 170V240 9999 BKN011 03/01 Q1022;
0130101624999992012010911504+53417+011783FM-15+0051EDOP V0201801N002610030019N0112651N1+00301+00201999999ADDGA1071+003001999GF107991999999999999999999MA1102201999999MW1611REMMET055METAR EDOP 091150Z 18005KT 9999 -RA BKN010 03/02 Q1022;
0138101624999992012010912204+53417+011783FM-15+0051EDOP V0201901N002110024019N0112651N1+00301+00301999999ADDGA1071+002401999GF107991999999999999999999MA1102101999999MW1611REMMET063METAR EDOP 091220Z 19004KT 160V220 9999 -RA BKN008 03/03 Q1021;
0129101624999992012010912504+53417+011783FM-15+0051EDOP V0201901N003610024019N0050001N1+00301+00301999999ADDGA1071+002401999GF107991999999999999999999MA1102101999999MW1531REMMET054METAR EDOP 091250Z 19007KT 5000 DZ BKN008 03/03 Q1021;
0152101624999992012010913204+53417+011783FM-15+0051EDOP V0201901N002610045019N0060001N1+00301+00301999999ADDGA1041+001501999GA2071+004501999GF107991999999999999999999MA1102101999999MW1531REMMET061METAR EDOP 091320Z 19005KT 6000 DZ SCT005 BKN015 03/03 Q1021;
0129101624999992012010913504+53417+011783FM-15+0051EDOP V0201801N002610015019N0035001N1+00401+00301999999ADDGA1071+001501999GF107991999999999999999999MA1102001999999MW1531REMMET054METAR EDOP 091350Z 18005KT 3500 DZ BKN005 04/03 Q1020;
0129101624999992012010914204+53417+011783FM-15+0051EDOP V0201701N003110015019N0035001N1+00401+00401999999ADDGA1071+001501999GF107991999999999999999999MA1102001999999MW1531REMMET054METAR EDOP 091420Z 17006KT 3500 DZ BKN005 04/04 Q1020;
0130101624999992012010915504+53417+011783FM-15+0051EDOP V0202301N004110015019N0060001N1+00501+00501999999ADDGA1071+001501999GF107991999999999999999999MA1101901999999MW1511REMMET055METAR EDOP 091550Z 23008KT 6000 -DZ BKN005 05/05 Q1019;
0130101624999992012010916204+53417+011783FM-15+0051EDOP V0202501N004610015019N0070001N1+00501+00501999999ADDGA1071+001501999GF107991999999999999999999MA1101901999999MW1511REMMET055METAR EDOP 091620Z 25009KT 7000 -DZ BKN005 05/05 Q1019;
0120101624999992012010916504+53417+011783FM-15+0051EDOP V0202401N004110012019N0080001N1+00601+00501999999ADDGA1071+001201999GF107991999999999999999999MA1101901999999REMMET051METAR EDOP 091650Z 24008KT 8000 BKN004 06/05 Q1019;
0120101624999992012011004204+53417+011783FM-15+0051EDOP V0202901N004612200019N0112651N1+00401+00201999999ADDGA1021+005101999GF102991999999999999999999MA1102401999999REMMET051METAR EDOP 100420Z 29009KT 9999 FEW017 04/02 Q1024;
0080101624999992012011004504+53417+011783FM-15+0051EDOP V0202901N004119999999Y0099001N1+00401+00201999999ADDMA1102401999999REMMET053METAR EDOP 100450Z 29008KT 260V320 CAVOK 04/02 Q1024;
0072101624999992012011005204+53417+011783FM-15+0051EDOP V0202801N004619999999Y0099001N1+00301+00201999999ADDMA1102401999999REMMET045METAR EDOP 100520Z 28009KT CAVOK 03/02 Q1024;
0120101624999992012011005504+53417+011783FM-15+0051EDOP V0202901N005112200019N0112651N1+00401+00201999999ADDGA1021+003901999GF102991999999999999999999MA1102511999999REMMET051METAR EDOP 100550Z 29010KT 9999 FEW013 04/02 Q1025;
0128101624999992012011006204+53417+011783FM-15+0051EDOP V0202901N005112200019N0112651N1+00401+00201999999ADDGA1041+003901999GF104991999999999999999999MA1102511999999REMMET059METAR EDOP 100620Z 29010KT 260V320 9999 SCT013 04/02 Q1025;
0120101624999992012011006504+53417+011783FM-15+0051EDOP V0202901N005712200019N0112651N1+00401+00301999999ADDGA1041+003901999GF104991999999999999999999MA1102611999999REMMET051METAR EDOP 100650Z 29011KT 9999 SCT013 04/03 Q1026;
0120101624999992012011007504+53417+011783FM-15+0051EDOP V0202901N005112200019N0112651N1+00401+00301999999ADDGA1041+003601999GF104991999999999999999999MA1102711999999REMMET051METAR EDOP 100750Z 29010KT 9999 SCT012 04/03 Q1027;
0120101624999992012011008204+53417+011783FM-15+0051EDOP V0202801N004612200019N0112651N1+00401+00301999999ADDGA1021+003601999GF102991999999999999999999MA1102711999999REMMET051METAR EDOP 100820Z 28009KT 9999 FEW012 04/03 Q1027;
0120101624999992012011008504+53417+011783FM-15+0051EDOP V0202801N004112200019N0112651N1+00401+00301999999ADDGA1021+003601999GF102991999999999999999999MA1102711999999REMMET051METAR EDOP 100850Z 28008KT 9999 FEW012 04/03 Q1027;
0072101624999992012011009204+53417+011783FM-15+0051EDOP V0202801N004619999999Y0099001N1+00401+00401999999ADDMA1102811999999REMMET045METAR EDOP 100920Z 28009KT CAVOK 04/04 Q1028;
0072101624999992012011009504+53417+011783FM-15+0051EDOP V0202801N004619999999Y0099001N1+00501+00301999999ADDMA1102811999999REMMET045METAR EDOP 100950Z 28009KT CAVOK 05/03 Q1028;
0072101624999992012011010204+53417+011783FM-15+0051EDOP V0202701N004119999999Y0099001N1+00501+00401999999ADDMA1102811999999REMMET045METAR EDOP 101020Z 27008KT CAVOK 05/04 Q1028;
0080101624999992012011010504+53417+011783FM-15+0051EDOP V0202801N004119999999Y0099001N1+00601+00401999999ADDMA1102811999999REMMET053METAR EDOP 101050Z 28008KT 240V300 CAVOK 06/04 Q1028;
0120101624999992012011011204+53417+011783FM-15+0051EDOP V0202801N004112200019N0112651N1+00601+00401999999ADDGA1041+004801999GF104991999999999999999999MA1102811999999REMMET051METAR EDOP 101120Z 28008KT 9999 SCT016 06/04 Q1028;
0120101624999992012011011504+53417+011783FM-15+0051EDOP V0202701N004112200019N0112651N1+00601+00401999999ADDGA1041+004501999GF104991999999999999999999MA1102811999999REMMET051METAR EDOP 101150Z 27008KT 9999 SCT015 06/04 Q1028;
0120101624999992012011012204+53417+011783FM-15+0051EDOP V0202801N004110045019N0112651N1+00601+00401999999ADDGA1071+004501999GF107991999999999999999999MA1102811999999REMMET051METAR EDOP 101220Z 28008KT 9999 BKN015 06/04 Q1028;
0143101624999992012011012504+53417+011783FM-15+0051EDOP V0202601N005110045019N0112651N1+00701+00401999999ADDGA1021+003601999GA2071+004501999GF107991999999999999999999MA1102811999999REMMET058METAR EDOP 101250Z 26010KT 9999 FEW012 BKN015 07/04 Q1028;
0143101624999992012011013204+53417+011783FM-15+0051EDOP V0202601N004610045019N0112651N1+00601+00401999999ADDGA1021+003601999GA2071+004501999GF107991999999999999999999MA1102811999999REMMET058METAR EDOP 101320Z 26009KT 9999 FEW012 BKN015 06/04 Q1028;
0120101624999992012011013504+53417+011783FM-15+0051EDOP V0202501N002610045019N0112651N1+00601+00401999999ADDGA1071+004501999GF107991999999999999999999MA1102911999999REMMET051METAR EDOP 101350Z 25005KT 9999 BKN015 06/04 Q1029;
0143101624999992012011014204+53417+011783FM-15+0051EDOP V0202701N003610180019N0112651N1+00601+00401999999ADDGA1021+004501999GA2071+018001999GF107991999999999999999999MA1102911999999REMMET058METAR EDOP 101420Z 27007KT 9999 FEW015 BKN065 06/04 Q1029;
0143101624999992012011014504+53417+011783FM-15+0051EDOP V0202601N003610180019N0112651N1+00601+00401999999ADDGA1041+005701999GA2071+018001999GF107991999999999999999999MA1102911999999REMMET058METAR EDOP 101450Z 26007KT 9999 SCT019 BKN062 06/04 Q1029;
0143101624999992012011015204+53417+011783FM-15+0051EDOP V0202701N003610150019N0112651N1+00601+00401999999ADDGA1041+004501999GA2071+015001999GF107991999999999999999999MA1102911999999REMMET058METAR EDOP 101520Z 27007KT 9999 SCT015 BKN052 06/04 Q1029;
0143101624999992012011015504+53417+011783FM-15+0051EDOP V0202501N004110210019N0112651N1+00601+00401999999ADDGA1041+003601999GA2071+021001999GF107991999999999999999999MA1102911999999REMMET058METAR EDOP 101550Z 25008KT 9999 SCT012 BKN070 06/04 Q1029;
0143101624999992012011016204+53417+011783FM-15+0051EDOP V0202401N004110240019N0112651N1+00501+00501999999ADDGA1021+004501999GA2071+024001999GF107991999999999999999999MA1102911999999REMMET058METAR EDOP 101620Z 24008KT 9999 FEW015 BKN080 05/05 Q1029;
0143101624999992012011016504+53417+011783FM-15+0051EDOP V0202401N003610210019N0112651N1+00501+00401999999ADDGA1041+003601999GA2071+021001999GF107991999999999999999999MA1102911999999REMMET058METAR EDOP 101650Z 24007KT 9999 SCT012 BKN070 05/04 Q1029;
0120101624999992012011104204+53417+011783FM-15+0051EDOP V0202501N004610051019N0112651N1+00601+00501999999ADDGA1071+005101999GF107991999999999999999999MA1102511999999REMMET051METAR EDOP 110420Z 25009KT 9999 BKN017 06/05 Q1025;
0120101624999992012011104504+53417+011783FM-15+0051EDOP V0202601N005110066019N0112651N1+00601+00401999999ADDGA1071+006601999GF107991999999999999999999MA1102511999999REMMET051METAR EDOP 110450Z 26010KT 9999 BKN022 06/04 Q1025;
0120101624999992012011105204+53417+011783FM-15+0051EDOP V0202401N005110063019N0112651N1+00601+00401999999ADDGA1071+006301999GF107991999999999999999999MA1102511999999REMMET051METAR EDOP 110520Z 24010KT 9999 BKN021 06/04 Q1025;
0120101624999992012011105504+53417+011783FM-15+0051EDOP V0202301N005110063019N0112651N1+00701+00301999999ADDGA1071+006301999GF107991999999999999999999MA1102511999999REMMET051METAR EDOP 110550Z 23010KT 9999 BKN021 07/03 Q1025;
0120101624999992012011106504+53417+011783FM-15+0051EDOP V0202401N005110045019N0112651N1+00601+00401999999ADDGA1071+004501999GF107991999999999999999999MA1102401999999REMMET051METAR EDOP 110650Z 24010KT 9999 BKN015 06/04 Q1024;
0120101624999992012011107504+53417+011783FM-15+0051EDOP V0202401N005710027019N0112651N1+00601+00601999999ADDGA1071+002701999GF107991999999999999999999MA1102511999999REMMET051METAR EDOP 110750Z 24011KT 9999 BKN009 06/06 Q1025;
0120101624999992012011108204+53417+011783FM-15+0051EDOP V0202501N006210024019N0080001N1+00701+00601999999ADDGA1071+002401999GF107991999999999999999999MA1102511999999REMMET051METAR EDOP 110820Z 25012KT 8000 BKN008 07/06 Q1025;
0120101624999992012011108504+53417+011783FM-15+0051EDOP V0202501N006710018019N0070001N1+00701+00701999999ADDGA1071+001801999GF107991999999999999999999MA1102401999999REMMET051METAR EDOP 110850Z 25013KT 7000 BKN006 07/07 Q1024;
0120101624999992012011109204+53417+011783FM-15+0051EDOP V0202601N006710018019N0060001N1+00701+00701999999ADDGA1071+001801999GF107991999999999999999999MA1102511999999REMMET051METAR EDOP 110920Z 26013KT 6000 BKN006 07/07 Q1025;
0120101624999992012011109504+53417+011783FM-15+0051EDOP V0202601N008210018019N0070001N1+00701+00701999999ADDGA1071+001801999GF107991999999999999999999MA1102401999999REMMET051METAR EDOP 110950Z 26016KT 7000 BKN006 07/07 Q1024;
0120101624999992012011110204+53417+011783FM-15+0051EDOP V0202601N007210027019N0090001N1+00801+00701999999ADDGA1071+002701999GF107991999999999999999999MA1102511999999REMMET051METAR EDOP 111020Z 26014KT 9000 BKN009 08/07 Q1025;
0120101624999992012011110504+53417+011783FM-15+0051EDOP V0202701N006710033019N0112651N1+00801+00701999999ADDGA1071+003301999GF107991999999999999999999MA1102511999999REMMET051METAR EDOP 111050Z 27013KT 9999 BKN011 08/07 Q1025;
0120101624999992012011111204+53417+011783FM-15+0051EDOP V0202701N006710036019N0112651N1+00901+00701999999ADDGA1071+003601999GF107991999999999999999999MA1102511999999REMMET051METAR EDOP 111120Z 27013KT 9999 BKN012 09/07 Q1025;
0120101624999992012011111504+53417+011783FM-15+0051EDOP V0202701N005710039019N0112651N1+00901+00701999999ADDGA1071+003901999GF107991999999999999999999MA1102511999999REMMET051METAR EDOP 111150Z 27011KT 9999 BKN013 09/07 Q1025;
0120101624999992012011112204+53417+011783FM-15+0051EDOP V0202701N005710036019N0112651N1+00901+00701999999ADDGA1071+003601999GF107991999999999999999999MA1102511999999REMMET051METAR EDOP 111220Z 27011KT 9999 BKN012 09/07 Q1025;
0120101624999992012011112504+53417+011783FM-15+0051EDOP V0202701N005710036019N0060001N1+00801+00701999999ADDGA1071+003601999GF107991999999999999999999MA1102511999999REMMET051METAR EDOP 111250Z 27011KT 6000 BKN012 08/07 Q1025;
0162101624999992012011113204+53417+011783FM-15+0051EDOP V0202701N005710036019N0040001N1+00801+00801999999ADDGA1021+001801999GA2071+003601999GF107991999999999999999999MA1102511999999MW1101MW2511REMMET065METAR EDOP 111320Z 27011KT 4000 -DZ BR FEW006 BKN012 08/08 Q1025;
0120101624999992012011113504+53417+011783FM-15+0051EDOP V0202601N005110018019N0080001N1+00801+00801999999ADDGA1071+001801999GF107991999999999999999999MA1102511999999REMMET051METAR EDOP 111350Z 26010KT 8000 BKN006 08/08 Q1025;
0120101624999992012011114204+53417+011783FM-15+0051EDOP V0202701N005710018019N0112651N1+00801+00801999999ADDGA1071+001801999GF107991999999999999999999MA1102611999999REMMET051METAR EDOP 111420Z 27011KT 9999 BKN006 08/08 Q1026;
0120101624999992012011114504+53417+011783FM-15+0051EDOP V0202701N006210021019N0112651N1+00801+00801999999ADDGA1071+002101999GF107991999999999999999999MA1102611999999REMMET051METAR EDOP 111450Z 27012KT 9999 BKN007 08/08 Q1026;
0120101624999992012011115204+53417+011783FM-15+0051EDOP V0202701N005710024019N0112651N1+00801+00801999999ADDGA1071+002401999GF107991999999999999999999MA1102611999999REMMET051METAR EDOP 111520Z 27011KT 9999 BKN008 08/08 Q1026;
0143101624999992012011115504+53417+011783FM-15+0051EDOP V0202701N006210030019N0112651N1+00801+00801999999ADDGA1021+002401999GA2071+003001999GF107991999999999999999999MA1102511999999REMMET058METAR EDOP 111550Z 27012KT 9999 FEW008 BKN010 08/08 Q1025;
0143101624999992012011116204+53417+011783FM-15+0051EDOP V0202701N005710096019N0112651N1+00801+00701999999ADDGA1041+002701999GA2071+009601999GF107991999999999999999999MA1102511999999REMMET058METAR EDOP 111620Z 27011KT 9999 SCT009 BKN032 08/07 Q1025;
0143101624999992012011116504+53417+011783FM-15+0051EDOP V0202601N005112200019N0112651N1+00701+00701999999ADDGA1021+003301999GA2041+009601999GF104991999999999999999999MA1102611999999REMMET058METAR EDOP 111650Z 26010KT 9999 FEW011 SCT032 07/07 Q1026;
0120101624999992012011204204+53417+011783FM-15+0051EDOP V0202401N009310024019N0112651N1+00801+00801999999ADDGA1071+002401999GF107991999999999999999999MA1101801999999REMMET051METAR EDOP 120420Z 24018KT 9999 BKN008 08/08 Q1018;
0120101624999992012011204504+53417+011783FM-15+0051EDOP V0202401N010310027019N0112651N1+00801+00801999999ADDGA1071+002701999GF107991999999999999999999MA1101691999999REMMET051METAR EDOP 120450Z 24020KT 9999 BKN009 08/08 Q1017;
0120101624999992012011205204+53417+011783FM-15+0051EDOP V0202401N010310030019N0112651N1+00801+00701999999ADDGA1071+003001999GF107991999999999999999999MA1101591999999REMMET051METAR EDOP 120520Z 24020KT 9999 BKN010 08/07 Q1016;
0120101624999992012011205504+53417+011783FM-15+0051EDOP V0202301N010310036019N0112651N1+00901+00701999999ADDGA1071+003601999GF107991999999999999999999MA1101591999999REMMET051METAR EDOP 120550Z 23020KT 9999 BKN012 09/07 Q1016;
0130101624999992012011206504+53417+011783FM-15+0051EDOP V0202401N010810039019N0112651N1+00901+00701999999ADDGA1071+003901999GF107991999999999999999999MA1101391999999MW1511REMMET055METAR EDOP 120650Z 24021KT 9999 -DZ BKN013 09/07 Q1014;
0130101624999992012011207204+53417+011783FM-15+0051EDOP V0202301N010310039019N0112651N1+00901+00701999999ADDGA1071+003901999GF107991999999999999999999MA1101391999999MW1511REMMET055METAR EDOP 120720Z 23020KT 9999 -DZ BKN013 09/07 Q1014;
0120101624999992012011207504+53417+011783FM-15+0051EDOP V0202401N010810039019N0112651N1+00901+00701999999ADDGA1071+003901999GF107991999999999999999999MA1101291999999REMMET051METAR EDOP 120750Z 24021KT 9999 BKN013 09/07 Q1013;
0120101624999992012011209204+53417+011783FM-15+0051EDOP V0202501N011810054019N0112651N1+00901+00601999999ADDGA1071+005401999GF107991999999999999999999MA1101191999999REMMET051METAR EDOP 120920Z 25023KT 9999 BKN018 09/06 Q1012;
0120101624999992012011209504+53417+011783FM-15+0051EDOP V0202401N011810066019N0112651N1+00901+00501999999ADDGA1071+006601999GF107991999999999999999999MA1101081999999REMMET051METAR EDOP 120950Z 24023KT 9999 BKN022 09/05 Q1011;
0120101624999992012011210204+53417+011783FM-15+0051EDOP V0202401N012910066019N0112651N1+00901+00501999999ADDGA1071+006601999GF107991999999999999999999MA1101021999999REMMET051METAR EDOP 121020Z 24025KT 9999 BKN022 09/05 Q1010;
0154101624999992012011210504+53417+011783FM-15+0051EDOP V0202401N012310045019N0112651N1+00901+00601999999ADDGA1021+003001999GA2071+004501999GF107991999999999999999999MA1100911999999OC101801REMMET061METAR EDOP 121050Z 24024G35KT 9999 FEW010 BKN015 09/06 Q1009;
0149101624999992012011211204+53417+011783FM-15+0051EDOP V0202401N011310033019N0070001N1+00801+00701999999ADDGA1071+003301999GF107991999999999999999999MA1100911999999MW1511MW2611OC101701REMMET060METAR EDOP 121120Z 24022G33KT 7000 -DZRA BKN011 08/07 Q1009;
0138101624999992012011211504+53417+011783FM-15+0051EDOP V0202401N012310030019N0070001N1+00801+00701999999ADDGA1071+003001999GF107991999999999999999999MA1100811999999MW1511MW2611REMMET057METAR EDOP 121150Z 24024KT 7000 -DZRA BKN010 08/07 Q1008;
0130101624999992012011212204+53417+011783FM-15+0051EDOP V0202401N012310030019N0080001N1+00801+00701999999ADDGA1071+003001999GF107991999999999999999999MA1100711999999MW1511REMMET055METAR EDOP 121220Z 24024KT 8000 -DZ BKN010 08/07 Q1007;
0138101624999992012011212504+53417+011783FM-15+0051EDOP V0202501N012910036019N0070001N1+00801+00701999999ADDGA1071+003601999GF107991999999999999999999MA1100611999999MW1511MW2611REMMET057METAR EDOP 121250Z 25025KT 7000 -RADZ BKN012 08/07 Q1006;
0152101624999992012011213204+53417+011783FM-15+0051EDOP V0202501N011810036019N0050001N1+00801+00701999999ADDGA1021+001801999GA2071+003601999GF107991999999999999999999MA1100611999999MW1631REMMET061METAR EDOP 121320Z 25023KT 5000 RA FEW006 BKN012 08/07 Q1006;
0136101624999992012011213504+53417+011783FM-15+0051EDOP V0202601N012310036019N0112651N1+00801+00701999999ADDGA1071+003601999GF107991999999999999999999MA1100611999999OC101901REMMET059METAR EDOP 121350Z 26024G37KT 9999 BKN012 08/07 Q1006 RERA;
0131101624999992012011214204+53417+011783FM-15+0051EDOP V0202601N012912200019N0112651N1+00801+00601999999ADDGA1041+004501999GF104991999999999999999999MA1100511999999OC101851REMMET054METAR EDOP 121420Z 26025G36KT 9999 SCT015 08/06 Q1005;
0165101624999992012011214504+53417+011783FM-15+0051EDOP V0202701N011310066019N0112651N1+00801+00501999999ADDGA1021+004801999GA2071+006601999GF107991999999999999999999MA1100511999999MW1161OC101701REMMET066METAR EDOP 121450Z 27022G33KT 9999 VCSH FEW016 BKN022 08/05 Q1005;
0140101624999992012011215204+53417+011783FM-15+0051EDOP V0202701N011310045019N0035001N1+00801+00601999999ADDGA1071+004501999GF107991999999999999999999MA1100511999999MW1631OC101651REMMET057METAR EDOP 121520Z 27022G32KT 3500 RA BKN015 08/06 Q1005;
0128101624999992012011216204+53417+011783FM-15+0051EDOP V0203001N007212200019N0112651N1+00501+00301999999ADDGA1041+006001999GF104991999999999999999999MA1100811999999REMMET059METAR EDOP 121620Z 30014KT 270V330 9999 SCT020 05/03 Q1008;
0139101624999992012011216504+53417+011783FM-15+0051EDOP V0202901N011312200019N0112651N1+00501+00101999999ADDGA1041+004501999GF104991999999999999999999MA1100811999999OC102061REMMET062METAR EDOP 121650Z 29022G40KT 250V340 9999 SCT015 05/01 Q1008;
0121101624999992012011303504+53417+011783FM-15+0051EDOP V0202701N007712200019N0112651N1+00301+00001999999ADDGA1041+009001999GF104991999999999999999999MA1101191999999REMMET052METAR EDOP 130350Z 27015KT 9999 SCT030 03/M00 Q1012;
0132101624999992012011304204+53417+011783FM-15+0051EDOP V0202801N007212200019N0112651N1+00201-00101999999ADDGA1041+007501999GF104991999999999999999999MA1101191999999OC101231REMMET055METAR EDOP 130420Z 28014G24KT 9999 SCT025 02/M01 Q1012;
0121101624999992012011304504+53417+011783FM-15+0051EDOP V0202701N007712200019N0112651N1+00201+00001999999ADDGA1041+006001999GF104991999999999999999999MA1101191999999REMMET052METAR EDOP 130450Z 27015KT 9999 SCT020 02/M00 Q1012;
0121101624999992012011305204+53417+011783FM-15+0051EDOP V0202701N006712200019N0112651N1+00201-00101999999ADDGA1041+006001999GF104991999999999999999999MA1101191999999REMMET052METAR EDOP 130520Z 27013KT 9999 SCT020 02/M01 Q1012;
0129101624999992012011305504+53417+011783FM-15+0051EDOP V0202701N007212200019N0112651N1+00201-00101999999ADDGA1041+006001999GF104991999999999999999999MA1101191999999REMMET060METAR EDOP 130550Z 27014KT 230V290 9999 SCT020 02/M01 Q1012;
0121101624999992012011306504+53417+011783FM-15+0051EDOP V0202701N007212200019N0112651N1+00201-00101999999ADDGA1041+007501999GF104991999999999999999999MA1101191999999REMMET052METAR EDOP 130650Z 27014KT 9999 SCT025 02/M01 Q1012;
0121101624999992012011307204+53417+011783FM-15+0051EDOP V0202701N006712200019N0112651N1+00201-00101999999ADDGA1041+007501999GF104991999999999999999999MA1101191999999REMMET052METAR EDOP 130720Z 27013KT 9999 SCT025 02/M01 Q1012;
0121101624999992012011307504+53417+011783FM-15+0051EDOP V0202701N006712200019N0112651N1+00201-00101999999ADDGA1041+007501999GF104991999999999999999999MA1101191999999REMMET052METAR EDOP 130750Z 27013KT 9999 SCT025 02/M01 Q1012;
0132101624999992012011308204+53417+011783FM-15+0051EDOP V0202801N007212200019N0112651N1+00201-00101999999ADDGA1041+007201999GF104991999999999999999999MA1101291999999OC101231REMMET055METAR EDOP 130820Z 28014G24KT 9999 SCT024 02/M01 Q1013;
0121101624999992012011308504+53417+011783FM-15+0051EDOP V0202801N006710075019N0112651N1+00301-00101999999ADDGA1071+007501999GF107991999999999999999999MA1101291999999REMMET052METAR EDOP 130850Z 28013KT 9999 BKN025 03/M01 Q1013;
0121101624999992012011309204+53417+011783FM-15+0051EDOP V0202801N007212200019N0112651N1+00301-00101999999ADDGA1041+007501999GF104991999999999999999999MA1101291999999REMMET052METAR EDOP 130920Z 28014KT 9999 SCT025 03/M01 Q1013;
0121101624999992012011309504+53417+011783FM-15+0051EDOP V0202801N007712200019N0112651N1+00301-00101999999ADDGA1041+006001999GF104991999999999999999999MA1101291999999REMMET052METAR EDOP 130950Z 28015KT 9999 SCT020 03/M01 Q1013;
0121101624999992012011310204+53417+011783FM-15+0051EDOP V0202801N006710069019N0112651N1+00301-00101999999ADDGA1071+006901999GF107991999999999999999999MA1101291999999REMMET052METAR EDOP 131020Z 28013KT 9999 BKN023 03/M01 Q1013;
0121101624999992012011310504+53417+011783FM-15+0051EDOP V0202801N007210078019N0112651N1+00401-00101999999ADDGA1071+007801999GF107991999999999999999999MA1101191999999REMMET052METAR EDOP 131050Z 28014KT 9999 BKN026 04/M01 Q1012;
0121101624999992012011311204+53417+011783FM-15+0051EDOP V0202801N006710075019N0112651N1+00401-00101999999ADDGA1071+007501999GF107991999999999999999999MA1101291999999REMMET052METAR EDOP 131120Z 28013KT 9999 BKN025 04/M01 Q1013;
0129101624999992012011311504+53417+011783FM-15+0051EDOP V0202901N006210075019N0112651N1+00401+00001999999ADDGA1071+007501999GF107991999999999999999999MA1101291999999REMMET060METAR EDOP 131150Z 29012KT 250V310 9999 BKN025 04/M00 Q1013;
0121101624999992012011312204+53417+011783FM-15+0051EDOP V0202901N006710063019N0112651N1+00401+00001999999ADDGA1071+006301999GF107991999999999999999999MA1101291999999REMMET052METAR EDOP 131220Z 29013KT 9999 BKN021 04/M00 Q1013;
0144101624999992012011312504+53417+011783FM-15+0051EDOP V0203001N005710120019N0112651N1+00401+00001999999ADDGA1041+006901999GA2071+012001999GF107991999999999999999999MA1101291999999REMMET059METAR EDOP 131250Z 30011KT 9999 SCT023 BKN040 04/M00 Q1013;
0143101624999992012011313204+53417+011783FM-15+0051EDOP V0202901N005110150019N0112651N1+00401+00001999999ADDGA1041+006601999GA2071+015001999GF107991999999999999999999MA1101291999999REMMET058METAR EDOP 131320Z 29010KT 9999 SCT022 BKN053 04/00 Q1013;
0128101624999992012011313504+53417+011783FM-15+0051EDOP V0202901N004612200019N0112651N1+00401+00001999999ADDGA1041+007501999GF104991999999999999999999MA1101291999999REMMET059METAR EDOP 131350Z 29009KT 260V320 9999 SCT025 04/00 Q1013;
0152101624999992012011314204+53417+011783FM-15+0051EDOP V0203001N004612200019N0112651N1+00401+00001999999ADDGA1021+007501999GA2041+011401999GF104991999999999999999999MA1101391999999REMMET067METAR EDOP 131420Z 30009KT 260V340 9999 FEW025 SCT038 04/M00 Q1014;
0129101624999992012011314504+53417+011783FM-15+0051EDOP V0203101N005712200019N0112651N1+00401-00101999999ADDGA1021+009001999GF102991999999999999999999MA1101391999999REMMET060METAR EDOP 131450Z 31011KT 280V340 9999 FEW030 04/M01 Q1014;
0121101624999992012011315204+53417+011783FM-15+0051EDOP V0203001N004612200019N0112651N1+00401-00101999999ADDGA1021+009001999GF102991999999999999999999MA1101391999999REMMET052METAR EDOP 131520Z 30009KT 9999 FEW030 04/M01 Q1014;
0073101624999992012011315504+53417+011783FM-15+0051EDOP V0202901N004119999999Y0099001N1+00301-00201999999ADDMA1101491999999REMMET046METAR EDOP 131550Z 29008KT CAVOK 03/M02 Q1015;
0081101624999992012011316204+53417+011783FM-15+0051EDOP V0202901N003119999999Y0099001N1+00201-00201999999ADDMA1101491999999REMMET054METAR EDOP 131620Z 29006KT 260V320 CAVOK 02/M02 Q1015;
0073101624999992012011316504+53417+011783FM-15+0051EDOP V0202801N003619999999Y0099001N1+00101-00201999999ADDMA1101491999999REMMET046METAR EDOP 131650Z 28007KT CAVOK 01/M02 Q1015;
0073101624999992012011317204+53417+011783FM-15+0051EDOP V0202801N004119999999Y0099001N1+00201-00201999999ADDMA1101491999999REMMET046METAR EDOP 131720Z 28008KT CAVOK 02/M02 Q1015;
0073101624999992012011317504+53417+011783FM-15+0051EDOP V0202801N004619999999Y0099001N1+00301-00201999999ADDMA1101491999999REMMET046METAR EDOP 131750Z 28009KT CAVOK 03/M02 Q1015;
0074101624999992012011404204+53417+011783FM-15+0051EDOP V0202901N003119999999Y0099001N1+00001-00201999999ADDMA1101901999999REMMET047METAR EDOP 140420Z 29006KT CAVOK M00/M02 Q1019;
0074101624999992012011404504+53417+011783FM-15+0051EDOP V0202801N003119999999Y0099001N1+00001-00201999999ADDMA1101901999999REMMET047METAR EDOP 140450Z 28006KT CAVOK M00/M02 Q1019;
0074101624999992012011405204+53417+011783FM-15+0051EDOP V0202701N003119999999Y0099001N1-00101-00301999999ADDMA1101901999999REMMET047METAR EDOP 140520Z 27006KT CAVOK M01/M03 Q1019;
0074101624999992012011405504+53417+011783FM-15+0051EDOP V0202801N003119999999Y0099001N1-00101-00301999999ADDMA1102001999999REMMET047METAR EDOP 140550Z 28006KT CAVOK M01/M03 Q1020;
0121101624999992012011406204+53417+011783FM-15+0051EDOP V0202801N003112200019N0112651N1+00001-00201999999ADDGA1041+012001999GF104991999999999999999999MA1102001999999REMMET052METAR EDOP 140620Z 28006KT 9999 SCT040 00/M02 Q1020;
0121101624999992012011406504+53417+011783FM-15+0051EDOP V0202801N004112200019N0112651N1+00001-00201999999ADDGA1041+012001999GF104991999999999999999999MA1102001999999REMMET052METAR EDOP 140650Z 28008KT 9999 SCT040 00/M02 Q1020;
0122101624999992012011407204+53417+011783FM-15+0051EDOP V0202901N003612200019N0112651N1-00101-00301999999ADDGA1021+011101999GF102991999999999999999999MA1102001999999REMMET053METAR EDOP 140720Z 29007KT 9999 FEW037 M01/M03 Q1020;
0073101624999992012011408204+53417+011783FM-15+0051EDOP V0203101N004619999999Y0099001N1+00001-00201999999ADDMA1102101999999REMMET046METAR EDOP 140820Z 31009KT CAVOK 00/M02 Q1021;
0073101624999992012011408504+53417+011783FM-15+0051EDOP V0203101N004119999999Y0099001N1+00201-00201999999ADDMA1102101999999REMMET046METAR EDOP 140850Z 31008KT CAVOK 02/M02 Q1021;
0081101624999992012011409204+53417+011783FM-15+0051EDOP V0203201N004119999999Y0099001N1+00201-00201999999ADDMA1102101999999REMMET054METAR EDOP 140920Z 32008KT 270V340 CAVOK 02/M02 Q1021;
0073101624999992012011409504+53417+011783FM-15+0051EDOP V0203101N004119999999Y0099001N1+00301-00201999999ADDMA1102101999999REMMET046METAR EDOP 140950Z 31008KT CAVOK 03/M02 Q1021;
0081101624999992012011410204+53417+011783FM-15+0051EDOP V0203301N004119999999Y0099001N1+00301-00201999999ADDMA1102101999999REMMET054METAR EDOP 141020Z 33008KT 290V010 CAVOK 03/M02 Q1021;
0140101624999992012011410504+53417+011783FM-15+0051EDOP V0203301N005112200019N0112651N1+00401-00201999999ADDGA1021+007501999GF102991999999999999999999MA1102201999999OC101081REMMET063METAR EDOP 141050Z 33010G21KT 290V010 9999 FEW025 04/M02 Q1022;
0129101624999992012011411204+53417+011783FM-15+0051EDOP V0203401N005712200019N0112651N1+00401-00201999999ADDGA1041+008101999GF104991999999999999999999MA1102201999999REMMET060METAR EDOP 141120Z 34011KT 290V010 9999 SCT027 04/M02 Q1022;
0129101624999992012011411504+53417+011783FM-15+0051EDOP V0203401N007212200019N0112651N1+00401-00201999999ADDGA1041+008401999GF104991999999999999999999MA1102201999999REMMET060METAR EDOP 141150Z 34014KT 300V360 9999 SCT028 04/M02 Q1022;
0129101624999992012011412204+53417+011783FM-15+0051EDOP V0203301N005712200019N0112651N1+00401-00201999999ADDGA1041+009001999GF104991999999999999999999MA1102201999999REMMET060METAR EDOP 141220Z 33011KT 290V360 9999 SCT030 04/M02 Q1022;
0129101624999992012011412504+53417+011783FM-15+0051EDOP V0203301N005712200019N0112651N1+00401-00301999999ADDGA1041+009001999GF104991999999999999999999MA1102201999999REMMET060METAR EDOP 141250Z 33011KT 310V010 9999 SCT030 04/M03 Q1022;
0129101624999992012011413204+53417+011783FM-15+0051EDOP V0203201N004612200019N0112651N1+00401-00301999999ADDGA1041+009001999GF104991999999999999999999MA1102201999999REMMET060METAR EDOP 141320Z 32009KT 290V350 9999 SCT030 04/M03 Q1022;
0129101624999992012011413504+53417+011783FM-15+0051EDOP V0203201N006212200019N0112651N1+00401-00301999999ADDGA1041+009001999GF104991999999999999999999MA1102201999999REMMET060METAR EDOP 141350Z 32012KT 300V360 9999 SCT030 04/M03 Q1022;
0121101624999992012011414204+53417+011783FM-15+0051EDOP V0203201N005112200019N0112651N1+00401-00301999999ADDGA1041+009001999GF104991999999999999999999MA1102201999999REMMET052METAR EDOP 141420Z 32010KT 9999 SCT030 04/M03 Q1022;
0129101624999992012011414504+53417+011783FM-15+0051EDOP V0203201N004112200019N0112651N1+00301-00201999999ADDGA1041+009001999GF104991999999999999999999MA1102201999999REMMET060METAR EDOP 141450Z 32008KT 290V350 9999 SCT030 03/M02 Q1022;
0129101624999992012011415204+53417+011783FM-15+0051EDOP V0203101N003612200019N0112651N1+00201-00301999999ADDGA1021+009001999GF102991999999999999999999MA1102201999999REMMET060METAR EDOP 141520Z 31007KT 280V340 9999 FEW030 02/M03 Q1022;
0121101624999992012011415504+53417+011783FM-15+0051EDOP V0203001N003112200019N0112651N1+00101-00301999999ADDGA1021+009001999GF102991999999999999999999MA1102201999999REMMET052METAR EDOP 141550Z 30006KT 9999 FEW030 01/M03 Q1022;
0073101624999992012011416204+53417+011783FM-15+0051EDOP V0202901N003619999999Y0099001N1+00101-00301999999ADDMA1102201999999REMMET046METAR EDOP 141620Z 29007KT CAVOK 01/M03 Q1022;
0073101624999992012011416504+53417+011783FM-15+0051EDOP V0203001N003619999999Y0099001N1+00001-00301999999ADDMA1102201999999REMMET046METAR EDOP 141650Z 30007KT CAVOK 00/M03 Q1022;
0074101624999992012011504204+53417+011783FM-15+0051EDOP V0202801N001519999999Y0099001N1-00401-00401999999ADDMA1102401999999REMMET047METAR EDOP 150420Z 28003KT CAVOK M04/M04 Q1024;
0074101624999992012011504504+53417+011783FM-15+0051EDOP V0202601N002119999999Y0099001N1-00301-00301999999ADDMA1102401999999REMMET047METAR EDOP 150450Z 26004KT CAVOK M03/M03 Q1024;
0074101624999992012011505204+53417+011783FM-15+0051EDOP V0202501N002119999999Y0099001N1-00301-00301999999ADDMA1102401999999REMMET047METAR EDOP 150520Z 25004KT CAVOK M03/M03 Q1024;
0074101624999992012011506204+53417+011783FM-15+0051EDOP V0209999V001019999999Y0099001N1-00501-00501999999ADDMA1102511999999REMMET047METAR EDOP 150620Z VRB02KT CAVOK M05/M05 Q1025;
0074101624999992012011507204+53417+011783FM-15+0051EDOP V0202701N002119999999Y0099001N1-00401-00501999999ADDMA1102511999999REMMET047METAR EDOP 150720Z 27004KT CAVOK M04/M05 Q1025;
0074101624999992012011508204+53417+011783FM-15+0051EDOP V0202701N001519999999Y0099001N1-00501-00501999999ADDMA1102511999999REMMET047METAR EDOP 150820Z 27003KT CAVOK M05/M05 Q1025;
0074101624999992012011508504+53417+011783FM-15+0051EDOP V0202101N002119999999Y0099001N1-00201-00201999999ADDMA1102511999999REMMET047METAR EDOP 150850Z 21004KT CAVOK M02/M02 Q1025;
0074101624999992012011509204+53417+011783FM-15+0051EDOP V0202201N001519999999Y0099001N1-00101-00201999999ADDMA1102511999999REMMET047METAR EDOP 150920Z 22003KT CAVOK M01/M02 Q1025;
0074101624999992012011509504+53417+011783FM-15+0051EDOP V0209999V001019999999Y0099001N1+00001-00101999999ADDMA1102611999999REMMET047METAR EDOP 150950Z VRB02KT CAVOK M00/M01 Q1026;
0072101624999992012011510204+53417+011783FM-15+0051EDOP V0209999V001519999999Y0099001N1+00001+00001999999ADDMA1102511999999REMMET045METAR EDOP 151020Z VRB03KT CAVOK 00/00 Q1025;
0073101624999992012011510504+53417+011783FM-15+0051EDOP V0203501N002119999999Y0099001N1+00201+00001999999ADDMA1102611999999REMMET046METAR EDOP 151050Z 35004KT CAVOK 02/M00 Q1026;
0081101624999992012011511204+53417+011783FM-15+0051EDOP V0203401N002619999999Y0099001N1+00201-00101999999ADDMA1102611999999REMMET054METAR EDOP 151120Z 34005KT 300V010 CAVOK 02/M01 Q1026;
0081101624999992012011511504+53417+011783FM-15+0051EDOP V0203401N003119999999Y0099001N1+00301-00201999999ADDMA1102511999999REMMET054METAR EDOP 151150Z 34006KT 310V020 CAVOK 03/M02 Q1025;
0081101624999992012011512204+53417+011783FM-15+0051EDOP V0203501N003619999999Y0099001N1+00301-00301999999ADDMA1102511999999REMMET054METAR EDOP 151220Z 35007KT 320V020 CAVOK 03/M03 Q1025;
0081101624999992012011512504+53417+011783FM-15+0051EDOP V0203501N002619999999Y0099001N1+00301-00301999999ADDMA1102511999999REMMET054METAR EDOP 151250Z 35005KT 300V040 CAVOK 03/M03 Q1025;
0081101624999992012011513204+53417+011783FM-15+0051EDOP V0203301N002619999999Y0099001N1+00301-00401999999ADDMA1102511999999REMMET054METAR EDOP 151320Z 33005KT 300V010 CAVOK 03/M04 Q1025;
0081101624999992012011513504+53417+011783FM-15+0051EDOP V0203301N002619999999Y0099001N1+00301-00401999999ADDMA1102611999999REMMET054METAR EDOP 151350Z 33005KT 300V360 CAVOK 03/M04 Q1026;
0081101624999992012011514204+53417+011783FM-15+0051EDOP V0203301N002619999999Y0099001N1+00201-00401999999ADDMA1102611999999REMMET054METAR EDOP 151420Z 33005KT 300V360 CAVOK 02/M04 Q1026;
0073101624999992012011514504+53417+011783FM-15+0051EDOP V0203101N002619999999Y0099001N1+00201-00501999999ADDMA1102611999999REMMET046METAR EDOP 151450Z 31005KT CAVOK 02/M05 Q1026;
0081101624999992012011515204+53417+011783FM-15+0051EDOP V0203101N002119999999Y0099001N1+00201-00501999999ADDMA1102611999999REMMET054METAR EDOP 151520Z 31004KT 270V340 CAVOK 02/M05 Q1026;
0073101624999992012011516204+53417+011783FM-15+0051EDOP V0203201N001019999999Y0099001N1+00101-00401999999ADDMA1102611999999REMMET046METAR EDOP 151620Z 32002KT CAVOK 01/M04 Q1026;
0073101624999992012011516504+53417+011783FM-15+0051EDOP V0203001N001019999999Y0099001N1+00101-00401999999ADDMA1102611999999REMMET046METAR EDOP 151650Z 30002KT CAVOK 01/M04 Q1026;
0131101624999992012011604204+53417+011783FM-15+0051EDOP V0202601N003110021019N0080001N1+00001+00001999999ADDGA1071+002101999GF107991999999999999999999MA1102511999999MW1511REMMET056METAR EDOP 160420Z 26006KT 8000 -DZ BKN007 00/M00 Q1025;
0130101624999992012011604504+53417+011783FM-15+0051EDOP V0202601N003110018019N0080001N1+00001+00001999999ADDGA1071+001801999GF107991999999999999999999MA1102511999999MW1511REMMET055METAR EDOP 160450Z 26006KT 8000 -DZ BKN006 00/00 Q1025;
0130101624999992012011605204+53417+011783FM-15+0051EDOP V0202601N003110015019N0080001N1+00101+00001999999ADDGA1071+001501999GF107991999999999999999999MA1102511999999MW1511REMMET055METAR EDOP 160520Z 26006KT 8000 -DZ BKN005 01/00 Q1025;
0139101624999992012011606504+53417+011783FM-15+0051EDOP V0202601N002610009019N0045001N1+00101+00101999999ADDGA1071+000901999GF107991999999999999999999MA1102511999999MW1101MW2511REMMET058METAR EDOP 160650Z 26005KT 4500 -DZ BR BKN003 01/01 Q1025;
0139101624999992012011607204+53417+011783FM-15+0051EDOP V0202701N003610009019N0040001N1+00101+00101999999ADDGA1071+000901999GF107991999999999999999999MA1102511999999MW1101MW2511REMMET058METAR EDOP 160720Z 27007KT 4000 -DZ BR BKN003 01/01 Q1025;
0129101624999992012011607504+53417+011783FM-15+0051EDOP V0202601N003610009019N0035001N1+00101+00101999999ADDGA1071+000901999GF107991999999999999999999MA1102511999999MW1101REMMET054METAR EDOP 160750Z 26007KT 3500 BR BKN003 01/01 Q1025;
0129101624999992012011608204+53417+011783FM-15+0051EDOP V0202801N003110006019N0028001N1+00101+00101999999ADDGA1071+000601999GF107991999999999999999999MA1102511999999MW1101REMMET054METAR EDOP 160820Z 28006KT 2800 BR BKN002 01/01 Q1025;
0129101624999992012011608504+53417+011783FM-15+0051EDOP V0202701N003110006019N0025001N1+00201+00101999999ADDGA1071+000601999GF107991999999999999999999MA1102511999999MW1101REMMET054METAR EDOP 160850Z 27006KT 2500 BR BKN002 02/01 Q1025;
0129101624999992012011609204+53417+011783FM-15+0051EDOP V0202701N003110009019N0028001N1+00201+00201999999ADDGA1071+000901999GF107991999999999999999999MA1102611999999MW1101REMMET054METAR EDOP 160920Z 27006KT 2800 BR BKN003 02/02 Q1026;
0129101624999992012011609504+53417+011783FM-15+0051EDOP V0202701N002610012019N0035001N1+00201+00201999999ADDGA1071+001201999GF107991999999999999999999MA1102611999999MW1101REMMET054METAR EDOP 160950Z 27005KT 3500 BR BKN004 02/02 Q1026;
0129101624999992012011610204+53417+011783FM-15+0051EDOP V0202801N002610015019N0045001N1+00301+00201999999ADDGA1071+001501999GF107991999999999999999999MA1102611999999MW1101REMMET054METAR EDOP 161020Z 28005KT 4500 BR BKN005 03/02 Q1026;
0120101624999992012011610504+53417+011783FM-15+0051EDOP V0202801N003110018019N0060001N1+00301+00201999999ADDGA1071+001801999GF107991999999999999999999MA1102611999999REMMET051METAR EDOP 161050Z 28006KT 6000 BKN006 03/02 Q1026;
0120101624999992012011611204+53417+011783FM-15+0051EDOP V0202801N003110015019N0050001N1+00301+00301999999ADDGA1071+001501999GF107991999999999999999999MA1102611999999REMMET051METAR EDOP 161120Z 28006KT 5000 BKN005 03/03 Q1026;
0120101624999992012011611504+53417+011783FM-15+0051EDOP V0202801N003110018019N0060001N1+00301+00301999999ADDGA1071+001801999GF107991999999999999999999MA1102511999999REMMET051METAR EDOP 161150Z 28006KT 6000 BKN006 03/03 Q1025;
0152101624999992012011612204+53417+011783FM-15+0051EDOP V0202801N002610057019N0045001N1+00301+00301999999ADDGA1041+001801999GA2071+005701999GF107991999999999999999999MA1102511999999MW1101REMMET061METAR EDOP 161220Z 28005KT 4500 BR SCT006 BKN019 03/03 Q1025;
0143101624999992012011612504+53417+011783FM-15+0051EDOP V0202801N003110060019N0050001N1+00301+00301999999ADDGA1041+001801999GA2071+006001999GF107991999999999999999999MA1102511999999REMMET058METAR EDOP 161250Z 28006KT 5000 SCT006 BKN020 03/03 Q1025;
0129101624999992012011613204+53417+011783FM-15+0051EDOP V0202801N002610063019N0045001N1+00301+00301999999ADDGA1071+006301999GF107991999999999999999999MA1102511999999MW1101REMMET054METAR EDOP 161320Z 28005KT 4500 BR BKN021 03/03 Q1025;
0152101624999992012011613504+53417+011783FM-15+0051EDOP V0202801N002610060019N0045001N1+00301+00301999999ADDGA1021+004201999GA2071+006001999GF107991999999999999999999MA1102511999999MW1101REMMET061METAR EDOP 161350Z 28005KT 4500 BR FEW014 BKN020 03/03 Q1025;
0129101624999992012011614204+53417+011783FM-15+0051EDOP V0202901N003110063019N0045001N1+00301+00301999999ADDGA1071+006301999GF107991999999999999999999MA1102511999999MW1101REMMET054METAR EDOP 161420Z 29006KT 4500 BR BKN021 03/03 Q1025;
0152101624999992012011614504+53417+011783FM-15+0051EDOP V0202901N002610090019N0045001N1+00301+00301999999ADDGA1041+006601999GA2071+009001999GF107991999999999999999999MA1102511999999MW1101REMMET061METAR EDOP 161450Z 29005KT 4500 BR SCT022 BKN030 03/03 Q1025;
0120101624999992012011615204+53417+011783FM-15+0051EDOP V0202901N002610069019N0050001N1+00301+00301999999ADDGA1071+006901999GF107991999999999999999999MA1102511999999REMMET051METAR EDOP 161520Z 29005KT 5000 BKN023 03/03 Q1025;
0120101624999992012011615504+53417+011783FM-15+0051EDOP V0202901N002610072019N0050001N1+00301+00301999999ADDGA1071+007201999GF107991999999999999999999MA1102511999999REMMET051METAR EDOP 161550Z 29005KT 5000 BKN024 03/03 Q1025;
0120101624999992012011616204+53417+011783FM-15+0051EDOP V0202801N002610075019N0050001N1+00301+00201999999ADDGA1071+007501999GF107991999999999999999999MA1102511999999REMMET051METAR EDOP 161620Z 28005KT 5000 BKN025 03/02 Q1025;
0120101624999992012011616504+53417+011783FM-15+0051EDOP V0202801N002610075019N0050001N1+00301+00201999999ADDGA1071+007501999GF107991999999999999999999MA1102511999999REMMET051METAR EDOP 161650Z 28005KT 5000 BKN025 03/02 Q1025;
0120101624999992012011704204+53417+011783FM-15+0051EDOP V0202801N004110024019N0112651N1+00301+00301999999ADDGA1071+002401999GF107991999999999999999999MA1102511999999REMMET051METAR EDOP 170420Z 28008KT 9999 BKN008 03/03 Q1025;
0120101624999992012011704504+53417+011783FM-15+0051EDOP V0202901N003610024019N0112651N1+00301+00301999999ADDGA1071+002401999GF107991999999999999999999MA1102511999999REMMET051METAR EDOP 170450Z 29007KT 9999 BKN008 03/03 Q1025;
0130101624999992012011705204+53417+011783FM-15+0051EDOP V0202801N003610027019N0112651N1+00301+00301999999ADDGA1071+002701999GF107991999999999999999999MA1102511999999MW1611REMMET055METAR EDOP 170520Z 28007KT 9999 -RA BKN009 03/03 Q1025;
0120101624999992012011705504+53417+011783FM-15+0051EDOP V0202701N004110030019N0112651N1+00301+00201999999ADDGA1071+003001999GF107991999999999999999999MA1102511999999REMMET051METAR EDOP 170550Z 27008KT 9999 BKN010 03/02 Q1025;
0130101624999992012011706504+53417+011783FM-15+0051EDOP V0202701N003610036019N0070001N1+00201+00201999999ADDGA1071+003601999GF107991999999999999999999MA1102511999999MW1511REMMET055METAR EDOP 170650Z 27007KT 7000 -DZ BKN012 02/02 Q1025;
0120101624999992012011707204+53417+011783FM-15+0051EDOP V0202701N004110045019N0070001N1+00201+00201999999ADDGA1071+004501999GF107991999999999999999999MA1102511999999REMMET051METAR EDOP 170720Z 27008KT 7000 BKN015 02/02 Q1025;
0120101624999992012011707504+53417+011783FM-15+0051EDOP V0202701N004110045019N0060001N1+00301+00201999999ADDGA1071+004501999GF107991999999999999999999MA1102511999999REMMET051METAR EDOP 170750Z 27008KT 6000 BKN015 03/02 Q1025;
0120101624999992012011708204+53417+011783FM-15+0051EDOP V0202701N004110045019N0070001N1+00301+00201999999ADDGA1071+004501999GF107991999999999999999999MA1102611999999REMMET051METAR EDOP 170820Z 27008KT 7000 BKN015 03/02 Q1026;
0120101624999992012011708504+53417+011783FM-15+0051EDOP V0202701N004610045019N0080001N1+00301+00301999999ADDGA1071+004501999GF107991999999999999999999MA1102611999999REMMET051METAR EDOP 170850Z 27009KT 8000 BKN015 03/03 Q1026;
0120101624999992012011709204+53417+011783FM-15+0051EDOP V0202801N004110045019N0080001N1+00301+00301999999ADDGA1071+004501999GF107991999999999999999999MA1102611999999REMMET051METAR EDOP 170920Z 28008KT 8000 BKN015 03/03 Q1026;
0143101624999992012011709504+53417+011783FM-15+0051EDOP V0202701N003612200019N0090001N1+00301+00301999999ADDGA1041+003001999GA2041+004501999GF104991999999999999999999MA1102611999999REMMET058METAR EDOP 170950Z 27007KT 9000 SCT010 SCT015 03/03 Q1026;
0143101624999992012011710204+53417+011783FM-15+0051EDOP V0202701N004110045019N0080001N1+00301+00301999999ADDGA1041+002401999GA2071+004501999GF107991999999999999999999MA1102611999999REMMET058METAR EDOP 171020Z 27008KT 8000 SCT008 BKN015 03/03 Q1026;
0143101624999992012011710504+53417+011783FM-15+0051EDOP V0202801N004110045019N0080001N1+00401+00301999999ADDGA1041+003001999GA2071+004501999GF107991999999999999999999MA1102611999999REMMET058METAR EDOP 171050Z 28008KT 8000 SCT010 BKN015 04/03 Q1026;
0143101624999992012011711204+53417+011783FM-15+0051EDOP V0202801N004610093019N0112651N1+00401+00301999999ADDGA1041+003001999GA2071+009301999GF107991999999999999999999MA1102511999999REMMET058METAR EDOP 171120Z 28009KT 9999 SCT010 BKN031 04/03 Q1025;
0143101624999992012011711504+53417+011783FM-15+0051EDOP V0202801N004610093019N0112651N1+00401+00301999999ADDGA1041+003001999GA2071+009301999GF107991999999999999999999MA1102511999999REMMET058METAR EDOP 171150Z 28009KT 9999 SCT010 BKN031 04/03 Q1025;
0120101624999992012011712204+53417+011783FM-15+0051EDOP V0202901N004110036019N0112651N1+00401+00401999999ADDGA1071+003601999GF107991999999999999999999MA1102511999999REMMET051METAR EDOP 171220Z 29008KT 9999 BKN012 04/04 Q1025;
0120101624999992012011712504+53417+011783FM-15+0051EDOP V0202801N004110039019N0112651N1+00401+00301999999ADDGA1071+003901999GF107991999999999999999999MA1102511999999REMMET051METAR EDOP 171250Z 28008KT 9999 BKN013 04/03 Q1025;
0120101624999992012011713204+53417+011783FM-15+0051EDOP V0202901N003610045019N0112651N1+00401+00301999999ADDGA1071+004501999GF107991999999999999999999MA1102611999999REMMET051METAR EDOP 171320Z 29007KT 9999 BKN015 04/03 Q1026;
0120101624999992012011713504+53417+011783FM-15+0051EDOP V0202901N003610045019N0112651N1+00401+00301999999ADDGA1071+004501999GF107991999999999999999999MA1102611999999REMMET051METAR EDOP 171350Z 29007KT 9999 BKN015 04/03 Q1026;
0128101624999992012011714204+53417+011783FM-15+0051EDOP V0202901N004610051019N0112651N1+00401+00201999999ADDGA1071+005101999GF107991999999999999999999MA1102611999999REMMET059METAR EDOP 171420Z 29009KT 260V320 9999 BKN017 04/02 Q1026;
0143101624999992012011714504+53417+011783FM-15+0051EDOP V0202901N004110090019N0112651N1+00401+00201999999ADDGA1041+004501999GA2071+009001999GF107991999999999999999999MA1102611999999REMMET058METAR EDOP 171450Z 29008KT 9999 SCT015 BKN030 04/02 Q1026;
0143101624999992012011715204+53417+011783FM-15+0051EDOP V0202901N003610075019N0112651N1+00401+00301999999ADDGA1021+004201999GA2071+007501999GF107991999999999999999999MA1102611999999REMMET058METAR EDOP 171520Z 29007KT 9999 FEW014 BKN025 04/03 Q1026;
0120101624999992012011715504+53417+011783FM-15+0051EDOP V0202801N003110045019N0112651N1+00301+00301999999ADDGA1071+004501999GF107991999999999999999999MA1102711999999REMMET051METAR EDOP 171550Z 28006KT 9999 BKN015 03/03 Q1027;
0143101624999992012011716204+53417+011783FM-15+0051EDOP V0202801N002610045019N0112651N1+00301+00301999999ADDGA1071+004501999GA2071+009001999GF107991999999999999999999MA1102711999999REMMET058METAR EDOP 171620Z 28005KT 9999 BKN015 BKN030 03/03 Q1027;
0143101624999992012011716504+53417+011783FM-15+0051EDOP V0202701N002610090019N0112651N1+00301+00301999999ADDGA1041+004501999GA2071+009001999GF107991999999999999999999MA1102711999999REMMET058METAR EDOP 171650Z 27005KT 9999 SCT015 BKN030 03/03 Q1027;
0122101624999992012011804204+53417+011783FM-15+0051EDOP V0202501N003112200019N0112651N1-00101-00101999999ADDGA1041+003001999GF104991999999999999999999MA1102611999999REMMET053METAR EDOP 180420Z 25006KT 9999 SCT010 M01/M01 Q1026;
0122101624999992012011804504+53417+011783FM-15+0051EDOP V0202401N003612200019N0112651N1-00101-00101999999ADDGA1041+002401999GF104991999999999999999999MA1102611999999REMMET053METAR EDOP 180450Z 24007KT 9999 SCT008 M01/M01 Q1026;
0122101624999992012011805204+53417+011783FM-15+0051EDOP V0202501N003612200019N0112651N1-00101-00201999999ADDGA1021+002401999GF102991999999999999999999MA1102611999999REMMET053METAR EDOP 180520Z 25007KT 9999 FEW008 M01/M02 Q1026;
0074101624999992012011805504+53417+011783FM-15+0051EDOP V0202401N003119999999Y0099001N1-00201-00201999999ADDMA1102611999999REMMET047METAR EDOP 180550Z 24006KT CAVOK M02/M02 Q1026;
0074101624999992012011806504+53417+011783FM-15+0051EDOP V0202501N004119999999Y0099001N1-00201-00301999999ADDMA1102611999999REMMET047METAR EDOP 180650Z 25008KT CAVOK M02/M03 Q1026;
0074101624999992012011807204+53417+011783FM-15+0051EDOP V0202401N004119999999Y0099001N1-00101-00301999999ADDMA1102511999999REMMET047METAR EDOP 180720Z 24008KT CAVOK M01/M03 Q1025;
0074101624999992012011807504+53417+011783FM-15+0051EDOP V0202301N002619999999Y0099001N1-00101-00401999999ADDMA1102511999999REMMET047METAR EDOP 180750Z 23005KT CAVOK M01/M04 Q1025;
0081101624999992012011808204+53417+011783FM-15+0051EDOP V0202301N003119999999Y0099001N1+00001-00401999999ADDMA1102511999999REMMET054METAR EDOP 180820Z 23006KT 190V250 CAVOK 00/M04 Q1025;
0074101624999992012011808504+53417+011783FM-15+0051EDOP V0202401N005119999999Y0099001N1+00001-00301999999ADDMA1102511999999REMMET047METAR EDOP 180850Z 24010KT CAVOK M00/M03 Q1025;
0073101624999992012011809204+53417+011783FM-15+0051EDOP V0202301N004619999999Y0099001N1+00001-00301999999ADDMA1102401999999REMMET046METAR EDOP 180920Z 23009KT CAVOK 00/M03 Q1024;
0073101624999992012011809504+53417+011783FM-15+0051EDOP V0202401N004619999999Y0099001N1+00101-00301999999ADDMA1102401999999REMMET046METAR EDOP 180950Z 24009KT CAVOK 01/M03 Q1024;
0073101624999992012011810204+53417+011783FM-15+0051EDOP V0202401N004119999999Y0099001N1+00101-00301999999ADDMA1102401999999REMMET046METAR EDOP 181020Z 24008KT CAVOK 01/M03 Q1024;
0073101624999992012011810504+53417+011783FM-15+0051EDOP V0202401N005119999999Y0099001N1+00201-00301999999ADDMA1102401999999REMMET046METAR EDOP 181050Z 24010KT CAVOK 02/M03 Q1024;
0073101624999992012011811204+53417+011783FM-15+0051EDOP V0202301N004619999999Y0099001N1+00201-00301999999ADDMA1102401999999REMMET046METAR EDOP 181120Z 23009KT CAVOK 02/M03 Q1024;
0073101624999992012011811504+53417+011783FM-15+0051EDOP V0202301N005119999999Y0099001N1+00201-00301999999ADDMA1102301999999REMMET046METAR EDOP 181150Z 23010KT CAVOK 02/M03 Q1023;
0073101624999992012011812204+53417+011783FM-15+0051EDOP V0202301N005719999999Y0099001N1+00301-00201999999ADDMA1102301999999REMMET046METAR EDOP 181220Z 23011KT CAVOK 03/M02 Q1023;
0073101624999992012011812504+53417+011783FM-15+0051EDOP V0202501N008219999999Y0099001N1+00301-00201999999ADDMA1102201999999REMMET046METAR EDOP 181250Z 25016KT CAVOK 03/M02 Q1022;
0073101624999992012011813204+53417+011783FM-15+0051EDOP V0202501N006719999999Y0099001N1+00201-00101999999ADDMA1102201999999REMMET046METAR EDOP 181320Z 25013KT CAVOK 02/M01 Q1022;
0132101624999992012011813504+53417+011783FM-15+0051EDOP V0202601N006210036019N0080001N1+00201-00101999999ADDGA1071+003601999GF107991999999999999999999MA1102201999999MW1161REMMET057METAR EDOP 181350Z 26012KT 8000 VCSH BKN012 02/M01 Q1022;
0120101624999992012011814204+53417+011783FM-15+0051EDOP V0202501N006710042019N0080001N1+00201+00001999999ADDGA1071+004201999GF107991999999999999999999MA1102101999999REMMET051METAR EDOP 181420Z 25013KT 8000 BKN014 02/00 Q1021;
0121101624999992012011814504+53417+011783FM-15+0051EDOP V0202301N007210054019N0112651N1+00201-00101999999ADDGA1071+005401999GF107991999999999999999999MA1102101999999REMMET052METAR EDOP 181450Z 23014KT 9999 BKN018 02/M01 Q1021;
0121101624999992012011815204+53417+011783FM-15+0051EDOP V0202201N005710054019N0112651N1+00201-00201999999ADDGA1071+005401999GF107991999999999999999999MA1102001999999REMMET052METAR EDOP 181520Z 22011KT 9999 BKN018 02/M02 Q1020;
0121101624999992012011815504+53417+011783FM-15+0051EDOP V0202001N005112200019N0112651N1+00201-00201999999ADDGA1041+005401999GF104991999999999999999999MA1101901999999REMMET052METAR EDOP 181550Z 20010KT 9999 SCT018 02/M02 Q1019;
0073101624999992012011816204+53417+011783FM-15+0051EDOP V0202001N005119999999Y0099001N1+00201-00201999999ADDMA1101901999999REMMET046METAR EDOP 181620Z 20010KT CAVOK 02/M02 Q1019;
0073101624999992012011816504+53417+011783FM-15+0051EDOP V0202101N005119999999Y0099001N1+00201-00201999999ADDMA1101901999999REMMET046METAR EDOP 181650Z 21010KT CAVOK 02/M02 Q1019;
0129101624999992012011904204+53417+011783FM-15+0051EDOP V0202601N004110006019N0035001N1+00401+00401999999ADDGA1071+000601999GF107991999999999999999999MA1101491999999MW1101REMMET054METAR EDOP 190420Z 26008KT 3500 BR BKN002 04/04 Q1015;
0129101624999992012011904504+53417+011783FM-15+0051EDOP V0202501N004610006019N0030001N1+00401+00401999999ADDGA1071+000601999GF107991999999999999999999MA1101391999999MW1101REMMET054METAR EDOP 190450Z 25009KT 3000 BR BKN002 04/04 Q1014;
0129101624999992012011905204+53417+011783FM-15+0051EDOP V0202501N004110006019N0030001N1+00401+00401999999ADDGA1071+000601999GF107991999999999999999999MA1101391999999MW1101REMMET054METAR EDOP 190520Z 25008KT 3000 BR BKN002 04/04 Q1014;
0129101624999992012011906204+53417+011783FM-15+0051EDOP V0202501N004610006019N0018001N1+00401+00401999999ADDGA1071+000601999GF107991999999999999999999MA1101291999999MW1101REMMET054METAR EDOP 190620Z 25009KT 1800 BR BKN002 04/04 Q1013;
0129101624999992012011906504+53417+011783FM-15+0051EDOP V0202401N005710006019N0016001N1+00401+00401999999ADDGA1071+000601999GF107991999999999999999999MA1101191999999MW1101REMMET054METAR EDOP 190650Z 24011KT 1600 BR BKN002 04/04 Q1012;
0129101624999992012011907204+53417+011783FM-15+0051EDOP V0202401N005710006019N0016001N1+00401+00401999999ADDGA1071+000601999GF107991999999999999999999MA1101191999999MW1101REMMET054METAR EDOP 190720Z 24011KT 1600 BR BKN002 04/04 Q1012;
0129101624999992012011907504+53417+011783FM-15+0051EDOP V0202301N006210009019N0018001N1+00401+00401999999ADDGA1071+000901999GF107991999999999999999999MA1101191999999MW1101REMMET054METAR EDOP 190750Z 23012KT 1800 BR BKN003 04/04 Q1012;
0129101624999992012011908204+53417+011783FM-15+0051EDOP V0202401N005710012019N0022001N1+00501+00401999999ADDGA1071+001201999GF107991999999999999999999MA1101081999999MW1101REMMET054METAR EDOP 190820Z 24011KT 2200 BR BKN004 05/04 Q1011;
0129101624999992012011908504+53417+011783FM-15+0051EDOP V0202301N005710018019N0035001N1+00501+00401999999ADDGA1071+001801999GF107991999999999999999999MA1101081999999MW1101REMMET054METAR EDOP 190850Z 23011KT 3500 BR BKN006 05/04 Q1011;
0129101624999992012011909204+53417+011783FM-15+0051EDOP V0202301N005110018019N0038001N1+00501+00401999999ADDGA1071+001801999GF107991999999999999999999MA1101081999999MW1101REMMET054METAR EDOP 190920Z 23010KT 3800 BR BKN006 05/04 Q1011;
0147101624999992012011909504+53417+011783FM-15+0051EDOP V0202201N005110018019N0035001N1+00501+00501999999ADDGA1071+001801999GF107991999999999999999999MA1101021999999MW1101MW2511MW3611REMMET060METAR EDOP 190950Z 22010KT 3500 -RADZ BR BKN006 05/05 Q1010;
0130101624999992012011910204+53417+011783FM-15+0051EDOP V0202001N003110015019N0040001N1+00501+00401999999ADDGA1071+001501999GF107991999999999999999999MA1100911999999MW1611REMMET055METAR EDOP 191020Z 20006KT 4000 -RA BKN005 05/04 Q1009;
0139101624999992012011910504+53417+011783FM-15+0051EDOP V0202301N006210024019N0045001N1+00501+00501999999ADDGA1071+002401999GF107991999999999999999999MA1100911999999MW1101MW2611REMMET058METAR EDOP 191050Z 23012KT 4500 -RA BR BKN008 05/05 Q1009;
0130101624999992012011911204+53417+011783FM-15+0051EDOP V0202401N006210024019N0080001N1+00501+00501999999ADDGA1071+002401999GF107991999999999999999999MA1100811999999MW1611REMMET055METAR EDOP 191120Z 24012KT 8000 -RA BKN008 05/05 Q1008;
0120101624999992012011911504+53417+011783FM-15+0051EDOP V0202401N006710024019N0112651N1+00501+00501999999ADDGA1071+002401999GF107991999999999999999999MA1100711999999REMMET051METAR EDOP 191150Z 24013KT 9999 BKN008 05/05 Q1007;
0120101624999992012011912204+53417+011783FM-15+0051EDOP V0202501N006210030019N0112651N1+00501+00501999999ADDGA1071+003001999GF107991999999999999999999MA1100711999999REMMET051METAR EDOP 191220Z 25012KT 9999 BKN010 05/05 Q1007;
