0174101624999992006010207204+53417+011783FM-15+0052EDOP V0202701N00051006301CN0017001N1+00101+00001999999ADDGA1075+006301999GF107991999999999999999999MA1101691999999MW1101REMMET048EDOP 020720Z 27001KT 1700 BR BKN021 01/00 Q1017;EQDQ01+000000PRSWM1Q02+000000PRSWM3Q03+000000PRSWM4
0174101624999992006010207504+53417+011783FM-15+0052EDOP V0203101N00051006301CN0017001N1+00101+00101999999ADDGA1085+006301999GF108991999999999999999999MA1101801999999MW1101REMMET048EDOP 020750Z 31001KT 1700 BR OVC021 01/01 Q1018;EQDQ01+000000PRSWM1Q02+000000PRSWM3Q03+000000PRSWM4
0174101624999992006010208204+53417+011783FM-15+0052EDOP V0209999V00051006301CN0016001N1+00101+00001999999ADDGA1085+006301999GF108991999999999999999999MA1101801999999MW1101REMMET048EDOP 020820Z VRB01KT 1600 BR OVC021 01/00 Q1018;EQDQ01+000000PRSWM1Q02+000000PRSWM3Q03+000000PRSWM4
0174101624999992006010208504+53417+011783FM-15+0052EDOP V0202801N00051005701CN0016001N1+00101+00001999999ADDGA1075+005701999GF107991999999999999999999MA1101801999999MW1101REMMET048EDOP 020850Z 28001KT 1600 BR BKN019 01/00 Q1018;EQDQ01+000000PRSWM1Q02+000000PRSWM3Q03+000000PRSWM4
0174101624999992006010209204+53417+011783FM-15+0052EDOP V0202201N00051005401CN0015001N1+00101+00101999999ADDGA1075+005401999GF107991999999999999999999MA1101901999999MW1101REMMET048EDOP 020920Z 22001KT 1500 BR BKN018 01/01 Q1019;EQDQ01+000000PRSWM1Q02+000000PRSWM3Q03+000000PRSWM4
0174101624999992006010209504+53417+011783FM-15+0052EDOP V0202001N00051005101CN0023001N1+00101+00101999999ADDGA1075+005101999GF107991999999999999999999MA1101901999999MW1101REMMET048EDOP 020950Z 20001KT 2300 BR BKN017 01/01 Q1019;EQDQ01+000000PRSWM1Q02+000000PRSWM3Q03+000000PRSWM4
0174101624999992006010210204+53417+011783FM-15+0052EDOP V0209999V00051004801CN0023001N1+00201+00201999999ADDGA1075+004801999GF107991999999999999999999MA1101901999999MW1101REMMET048EDOP 021020Z VRB01KT 2300 BR BKN016 02/02 Q1019;EQDQ01+000000PRSWM1Q02+000000PRSWM3Q03+000000PRSWM4
0174101624999992006010210504+53417+011783FM-15+0052EDOP V0209999C00001004801CN0036001N1+00201+00201999999ADDGA1075+004801999GF107991999999999999999999MA1101901999999MW1101REMMET048EDOP 021050Z 00000KT 3600 BR BKN016 02/02 Q1019;EQDQ01+000000PRSWM1Q02+000000PRSWM3Q03+000000PRSWM4
0174101624999992006010211204+53417+011783FM-15+0052EDOP V0209999C00001004801CN0040001N1+00201+00201999999ADDGA1075+004801999GF107991999999999999999999MA1101901999999MW1101REMMET048EDOP 021120Z 00000KT 4000 BR BKN016 02/02 Q1019;EQDQ01+000000PRSWM1Q02+000000PRSWM3Q03+000000PRSWM4
0174101624999992006010211504+53417+011783FM-15+0052EDOP V0209999C00001004801CN0045001N1+00201+00201999999ADDGA1075+004801999GF107991999999999999999999MA1102001999999MW1101REMMET048EDOP 021150Z 00000KT 4500 BR BKN016 02/02 Q1020;EQDQ01+000000PRSWM1Q02+000000PRSWM3Q03+000000PRSWM4
0174101624999992006010212204+53417+011783FM-15+0052EDOP V0200701N00051004501CN0045001N1+00301+00201999999ADDGA1075+004501999GF107991999999999999999999MA1102001999999MW1101REMMET048EDOP 021220Z 07001KT 4500 BR BKN015 03/02 Q1020;EQDQ01+000000PRSWM1Q02+000000PRSWM3Q03+000000PRSWM4
0174101624999992006010213504+53417+011783FM-15+0052EDOP V0200901N00151004501CN0045001N1+00301+00201999999ADDGA1075+004501999GF107991999999999999999999MA1102001999999MW1101REMMET048EDOP 021350Z 09003KT 4500 BR BKN015 03/02 Q1020;EQDQ01+000000PRSWM1Q02+000000PRSWM3Q03+000000PRSWM4
0174101624999992006010214204+53417+011783FM-15+0052EDOP V0200101N00051003901CN0045001N1+00201+00201999999ADDGA1075+003901999GF107991999999999999999999MA1102101999999MW1101REMMET048EDOP 021420Z 01001KT 4500 BR BKN013 02/02 Q1021;EQDQ01+000000PRSWM1Q02+000000PRSWM3Q03+000000PRSWM4
0174101624999992006010216204+53417+011783FM-15+0052EDOP V0201301N00051005701CN0045001N1+00201+00101999999ADDGA1075+005701999GF107991999999999999999999MA1102201999999MW1101REMMET048EDOP 021620Z 13001KT 4500 BR BKN019 02/01 Q1022;EQDQ01+000000PRSWM1Q02+000000PRSWM3Q03+000000PRSWM4
0181101624999992006010307204+53417+011783FM-15+0052EDOP V0203401N00151001201CN0023001N1+00001+00001999999ADDGA1075+001201999GF107991999999999999999999MA1102711999999MW1101REMMET055METAR EDOP 030720Z 34003KT 2300 BR BKN004 00/M00 Q1027;EQDQ01+000000PRSWM1Q02+000000PRSWM3Q03+000000PRSWM4
0198101624999992006010308204+53417+011783FM-15+0052EDOP V0203301N00051003301CN0036001N1+00001+00001999999ADDGA1045+001201999GA2075+003301999GF107991999999999999999999MA1102811999999MW1101REMMET056EDOP 030820Z 33001KT 3600 BR SCT004 BKN011 00/M00 Q1028;EQDQ01+000000PRSWM1Q02+000000PRSWM3Q03+000000PRSWM4
0227101624999992006010308504+53417+011783FM-15+0052EDOP V0203601N00151003601CN0036001N1+00001+00001999999ADDGA1025+001201999GA2045+003601999GA3075+014101999GF107991999999999999999999MA1102811999999MW1101REMMET069METAR EDOP 030850Z 36003KT 3600 BR FEW004 SCT012 BKN047 00/M00 Q1028;EQDQ01+000000PRSWM1Q02+000000PRSWM3Q03+000000PRSWM4
0175101624999992006010309204+53417+011783FM-15+0052EDOP V0203601N00051002701CN0036001N1+00001+00001999999ADDGA1075+002701999GF107991999999999999999999MA1102811999999MW1101REMMET049EDOP 030920Z 36001KT 3600 BR BKN009 00/M00 Q1028;EQDQ01+000000PRSWM1Q02+000000PRSWM3Q03+000000PRSWM4
0175101624999992006010309504+53417+011783FM-15+0052EDOP V0203401N00051001801CN0040001N1+00001+00001999999ADDGA1075+001801999GF107991999999999999999999MA1102811999999MW1101REMMET049EDOP 030950Z 34001KT 4000 BR BKN006 00/M00 Q1028;EQDQ01+000000PRSWM1Q02+000000PRSWM3Q03+000000PRSWM4
0181101624999992006010310204+53417+011783FM-15+0052EDOP V0203301N00051002101CN0045001N1+00101+00001999999ADDGA1075+002101999GF107991999999999999999999MA1102811999999MW1101REMMET055METAR EDOP 031020Z 33001KT 4500 BR BKN007 01/M00 Q1028;EQDQ01+000000PRSWM1Q02+000000PRSWM3Q03+000000PRSWM4
0175101624999992006010310504+53417+011783FM-15+0052EDOP V0203201N00151001801CN0045001N1+00101+00001999999ADDGA1075+001801999GF107991999999999999999999MA1102811999999MW1101REMMET049EDOP 031050Z 32003KT 4500 BR BKN006 01/M00 Q1028;EQDQ01+000000PRSWM1Q02+000000PRSWM3Q03+000000PRSWM4
0175101624999992006010311204+53417+011783FM-15+0052EDOP V0203101N00151001801CN0045001N1+00101+00001999999ADDGA1075+001801999GF107991999999999999999999MA1102911999999MW1101REMMET049EDOP 031120Z 31003KT 4500 BR BKN006 01/M00 Q1029;EQDQ01+000000PRSWM1Q02+000000PRSWM3Q03+000000PRSWM4
0175101624999992006010311504+53417+011783FM-15+0052EDOP V0202701N00211001801CN0050001N1+00101-00101999999ADDGA1075+001801999GF107991999999999999999999MA1102911999999MW1101REMMET049EDOP 031150Z 27004KT 5000 BR BKN006 01/M01 Q1029;EQDQ01+000000PRSWM1Q02+000000PRSWM3Q03+000000PRSWM4
0182101624999992006010312204+53417+011783FM-15+0052EDOP V0202801N00101002701CN0080001N1+00101-00101999999ADDGA1075+002701999GF107991999999999999999999MA1102911999999REMMET046EDOP 031220Z 28002KT 8000 BKN009 01/M01 Q1029;EQDQ01+000000PRSWM1Q02+000000PRSWM2Q03+000000PRSWM3Q04+000000PRSWM4
0183101624999992006010313504+53417+011783FM-15+0052EDOP V0202801N00311003001CN0060001N1+00001-00201999999ADDGA1075+003001999GF107991999999999999999999MA1102911999999REMMET047EDOP 031350Z 28006KT 6000 BKN010 M00/M02 Q1029;EQDQ01+000000PRSWM1Q02+000000PRSWM2Q03+000000PRSWM3Q04+000000PRSWM4
0176101624999992006010314204+53417+011783FM-15+0052EDOP V0203001N00361001501CN0045001N1-00101-00301999999ADDGA1075+001501999GF107991999999999999999999MA1102911999999MW1101REMMET050EDOP 031420Z 30007KT 4500 BR BKN005 M01/M03 Q1029;EQDQ01+000000PRSWM1Q02+000000PRSWM3Q03+000000PRSWM4
0176101624999992006010314504+53417+011783FM-15+0052EDOP V0202401N00211001501CN0040001N1-00201-00301999999ADDGA1075+001501999GF107991999999999999999999MA1102911999999MW1101REMMET050EDOP 031450Z 24004KT 4000 BR BKN005 M02/M03 Q1029;EQDQ01+000000PRSWM1Q02+000000PRSWM3Q03+000000PRSWM4
0176101624999992006010315504+53417+011783FM-15+0052EDOP V0202701N00211002401CN0040001N1-00201-00301999999ADDGA1075+002401999GF107991999999999999999999MA1103011999999MW1101REMMET050EDOP 031550Z 27004KT 4000 BR BKN008 M02/M03 Q1030;EQDQ01+000000PRSWM1Q02+000000PRSWM3Q03+000000PRSWM4
0176101624999992006010316204+53417+011783FM-15+0052EDOP V0202901N00211002701CN0040001N1-00201-00301999999ADDGA1075+002701999GF107991999999999999999999MA1103011999999MW1101REMMET050EDOP 031620Z 29004KT 4000 BR BKN009 M02/M03 Q1030;EQDQ01+000000PRSWM1Q02+000000PRSWM3Q03+000000PRSWM4
0176101624999992006010316504+53417+011783FM-15+0052EDOP V0202601N00151002401CN0035001N1-00201-00301999999ADDGA1075+002401999GF107991999999999999999999MA1103011999999MW1101REMMET050EDOP 031650Z 26003KT 3500 BR BKN008 M02/M03 Q1030;EQDQ01+000000PRSWM1Q02+000000PRSWM3Q03+000000PRSWM4
0176101624999992006010407204+53417+011783FM-15+0052EDOP V0203601N00151001201CN0036001N1-00201-00301999999ADDGA1075+001201999GF107991999999999999999999MA1103291999999MW1101REMMET050EDOP 040720Z 36003KT 3600 BR BKN004 M02/M03 Q1033;EQDQ01+000000PRSWM1Q02+000000PRSWM3Q03+000000PRSWM4
0176101624999992006010407504+53417+011783FM-15+0052EDOP V0200201N00151000901CN0036001N1-00101-00301999999ADDGA1075+000901999GF107991999999999999999999MA1103291999999MW1101REMMET050EDOP 040750Z 02003KT 3600 BR BKN003 M01/M03 Q1033;EQDQ01+000000PRSWM1Q02+000000PRSWM3Q03+000000PRSWM4
0176101624999992006010408204+53417+011783FM-15+0052EDOP V0200301N00151001201CN0028001N1-00101-00201999999ADDGA1075+001201999GF107991999999999999999999MA1103291999999MW1101REMMET050EDOP 040820Z 03003KT 2800 BR BKN004 M01/M02 Q1033;EQDQ01+000000PRSWM1Q02+000000PRSWM3Q03+000000PRSWM4
0176101624999992006010408504+53417+011783FM-15+0052EDOP V0200301N00151001201CN0023001N1-00101-00201999999ADDGA1075+001201999GF107991999999999999999999MA1103291999999MW1101REMMET050EDOP 040850Z 03003KT 2300 BR BKN004 M01/M02 Q1033;EQDQ01+000000PRSWM1Q02+000000PRSWM3Q03+000000PRSWM4
0176101624999992006010409204+53417+011783FM-15+0052EDOP V0200301N00151001201CN0036001N1-00101-00201999999ADDGA1075+001201999GF107991999999999999999999MA1103391999999MW1101REMMET050EDOP 040920Z 03003KT 3600 BR BKN004 M01/M02 Q1034;EQDQ01+000000PRSWM1Q02+000000PRSWM3Q03+000000PRSWM4
0176101624999992006010409504+53417+011783FM-15+0052EDOP V0200201N00151001201CN0036001N1-00101-00201999999ADDGA1075+001201999GF107991999999999999999999MA1103391999999MW1101REMMET050EDOP 040950Z 02003KT 3600 BR BKN004 M01/M02 Q1034;EQDQ01+000000PRSWM1Q02+000000PRSWM3Q03+000000PRSWM4
0176101624999992006010410204+53417+011783FM-15+0052EDOP V0200401N00211001501CN0040001N1+00001-00101999999ADDGA1075+001501999GF107991999999999999999999MA1103391999999MW1101REMMET050EDOP 041020Z 04004KT 4000 BR BKN005 M00/M01 Q1034;EQDQ01+000000PRSWM1Q02+000000PRSWM3Q03+000000PRSWM4
0170101624999992006010410504+53417+011783FM-15+0052EDOP V0200401N00211001201CN0036001N1+00001-00101999999ADDGA1075+001201999GF107991999999999999999999MA1103391999999MW1101MW2771REMMET054EDOP 041050Z 04004KT 3600 -SG BR BKN004 M00/M01 Q1034;EQDQ01+000000PRSWM1Q02+000000PRSWM4
0198101624999992006010411204+53417+011783FM-15+0052EDOP V0200401N00261014101CN0045001N1+00001-00101999999ADDGA1045+001801999GA2075+014101999GF107991999999999999999999MA1103391999999MW1101REMMET056EDOP 041120Z 04005KT 4500 BR SCT006 BKN047 00/M01 Q1034;EQDQ01+000000PRSWM1Q02+000000PRSWM3Q03+000000PRSWM4
0198101624999992006010411504+53417+011783FM-15+0052EDOP V0200501N00311014701CN0050001N1+00001-00101999999ADDGA1045+001801999GA2075+014701999GF107991999999999999999999MA1103291999999MW1101REMMET056EDOP 041150Z 05006KT 5000 BR SCT006 BKN049 00/M01 Q1033;EQDQ01+000000PRSWM1Q02+000000PRSWM3Q03+000000PRSWM4
0188101624999992006010412204+53417+011783FM-15+0052EDOP V0200401N00261014701CN0060001N1+00001-00101999999ADDGA1075+014701999GF107991999999999999999999MA1103291999999REMMET052METAR EDOP 041220Z 04005KT 6000 BKN049 00/M01 Q1033;EQDQ01+000000PRSWM1Q02+000000PRSWM2Q03+000000PRSWM3Q04+000000PRSWM4
0182101624999992006010412504+53417+011783FM-15+0052EDOP V0200401N00361007501CN0080001N1+00001-00201999999ADDGA1075+007501999GF107991999999999999999999MA1103291999999REMMET046EDOP 041250Z 04007KT 8000 BKN025 00/M02 Q1033;EQDQ01+000000PRSWM1Q02+000000PRSWM2Q03+000000PRSWM3Q04+000000PRSWM4
0182101624999992006010413204+53417+011783FM-15+0052EDOP V0200601N00511006001CN0112651N1+00101-00301999999ADDGA1075+006001999GF107991999999999999999999MA1103291999999REMMET046EDOP 041320Z 06010KT 9999 BKN020 01/M03 Q1033;EQDQ01+000000PRSWM1Q02+000000PRSWM2Q03+000000PRSWM3Q04+000000PRSWM4
0182101624999992006010413504+53417+011783FM-15+0052EDOP V0200501N00311005401CN0112651N1+00001-00301999999ADDGA1075+005401999GF107991999999999999999999MA1103291999999REMMET046EDOP 041350Z 05006KT 9999 BKN018 00/M03 Q1033;EQDQ01+000000PRSWM1Q02+000000PRSWM2Q03+000000PRSWM3Q04+000000PRSWM4
0182101624999992006010414204+53417+011783FM-15+0052EDOP V0200201N00311005401CN0112651N1+00001-00301999999ADDGA1075+005401999GF107991999999999999999999MA1103291999999REMMET046EDOP 041420Z 02006KT 9999 BKN018 00/M03 Q1033;EQDQ01+000000PRSWM1Q02+000000PRSWM2Q03+000000PRSWM3Q04+000000PRSWM4
0183101624999992006010414504+53417+011783FM-15+0052EDOP V0200201N00361012001CN0112651N1+00001-00401999999ADDGA1075+012001999GF107991999999999999999999MA1103291999999REMMET047EDOP 041450Z 02007KT 9999 BKN040 M00/M04 Q1033;EQDQ01+000000PRSWM1Q02+000000PRSWM2Q03+000000PRSWM3Q04+000000PRSWM4
0183101624999992006010415204+53417+011783FM-15+0052EDOP V0200301N00261004501CN0112651N1-00101-00301999999ADDGA1075+004501999GF107991999999999999999999MA1103291999999REMMET047EDOP 041520Z 03005KT 9999 BKN015 M01/M03 Q1033;EQDQ01+000000PRSWM1Q02+000000PRSWM2Q03+000000PRSWM3Q04+000000PRSWM4
0183101624999992006010416504+53417+011783FM-15+0052EDOP V0200201N00261013501CN0112651N1-00101-00301999999ADDGA1075+013501999GF107991999999999999999999MA1103291999999REMMET047EDOP 041650Z 02005KT 9999 BKN045 M01/M03 Q1033;EQDQ01+000000PRSWM1Q02+000000PRSWM2Q03+000000PRSWM3Q04+000000PRSWM4
0175101624999992006010507204+53417+011783FM-15+0052EDOP V0200701N00411002701CN0050001N1+00101-00101999999ADDGA1075+002701999GF107991999999999999999999MA1103011999999MW1101REMMET049EDOP 050720Z 07008KT 5000 BR BKN009 01/M01 Q1030;EQDQ01+000000PRSWM1Q02+000000PRSWM3Q03+000000PRSWM4
0175101624999992006010507504+53417+011783FM-15+0052EDOP V0200701N00461002401CN0050001N1+00101-00101999999ADDGA1075+002401999GF107991999999999999999999MA1103011999999MW1101REMMET049EDOP 050750Z 07009KT 5000 BR BKN008 01/M01 Q1030;EQDQ01+000000PRSWM1Q02+000000PRSWM3Q03+000000PRSWM4
0181101624999992006010508204+53417+011783FM-15+0052EDOP V0200601N00511002401CN0050001N1+00101-00101999999ADDGA1075+002401999GF107991999999999999999999MA1103011999999MW1101REMMET055METAR EDOP 050820Z 06010KT 5000 BR BKN008 01/M01 Q1030;EQDQ01+000000PRSWM1Q02+000000PRSWM3Q03+000000PRSWM4
0175101624999992006010508504+53417+011783FM-15+0052EDOP V0200701N00511002101CN0045001N1+00101-00101999999ADDGA1075+002101999GF107991999999999999999999MA1103011999999MW1101REMMET049EDOP 050850Z 07010KT 4500 BR BKN007 01/M01 Q1030;EQDQ01+000000PRSWM1Q02+000000PRSWM3Q03+000000PRSWM4
0175101624999992006010509204+53417+011783FM-15+0052EDOP V0200701N00461002101CN0045001N1+00101-00101999999ADDGA1075+002101999GF107991999999999999999999MA1103011999999MW1101REMMET049EDOP 050920Z 07009KT 4500 BR BKN007 01/M01 Q1030;EQDQ01+000000PRSWM1Q02+000000PRSWM3Q03+000000PRSWM4
0175101624999992006010509504+53417+011783FM-15+0052EDOP V0200701N00621002401CN0050001N1+00101-00101999999ADDGA1075+002401999GF107991999999999999999999MA1103011999999MW1101REMMET049EDOP 050950Z 07012KT 5000 BR BKN008 01/M01 Q1030;EQDQ01+000000PRSWM1Q02+000000PRSWM3Q03+000000PRSWM4
0182101624999992006010510204+53417+011783FM-15+0052EDOP V0200801N00511003001CN0060001N1+00101-00101999999ADDGA1075+003001999GF107991999999999999999999MA1102911999999REMMET046EDOP 051020Z 08010KT 6000 BKN010 01/M01 Q1029;EQDQ01+000000PRSWM1Q02+000000PRSWM2Q03+000000PRSWM3Q04+000000PRSWM4
0182101624999992006010510504+53417+011783FM-15+0052EDOP V0200801N00511003001CN0080001N1+00101-00101999999ADDGA1075+003001999GF107991999999999999999999MA1102911999999REMMET046EDOP 051050Z 08010KT 8000 BKN010 01/M01 Q1029;EQDQ01+000000PRSWM1Q02+000000PRSWM2Q03+000000PRSWM3Q04+000000PRSWM4
0182101624999992006010511204+53417+011783FM-15+0052EDOP V0200901N00621003001CN0080001N1+00101-00201999999ADDGA1075+003001999GF107991999999999999999999MA1102911999999REMMET046EDOP 051120Z 09012KT 8000 BKN010 01/M02 Q1029;EQDQ01+000000PRSWM1Q02+000000PRSWM2Q03+000000PRSWM3Q04+000000PRSWM4
0182101624999992006010511504+53417+011783FM-15+0052EDOP V0200701N00461003301CN0070001N1+00101-00201999999ADDGA1075+003301999GF107991999999999999999999MA1102811999999REMMET046EDOP 051150Z 07009KT 7000 BKN011 01/M02 Q1028;EQDQ01+000000PRSWM1Q02+000000PRSWM2Q03+000000PRSWM3Q04+000000PRSWM4
0182101624999992006010512204+53417+011783FM-15+0052EDOP V0200801N00671003001CN0070001N1+00101-00201999999ADDGA1075+003001999GF107991999999999999999999MA1102811999999REMMET046EDOP 051220Z 08013KT 7000 BKN010 01/M02 Q1028;EQDQ01+000000PRSWM1Q02+000000PRSWM2Q03+000000PRSWM3Q04+000000PRSWM4
0182101624999992006010512504+53417+011783FM-15+0052EDOP V0200801N00671003001CN0070001N1+00101-00201999999ADDGA1075+003001999GF107991999999999999999999MA1102811999999REMMET046EDOP 051250Z 08013KT 7000 BKN010 01/M02 Q1028;EQDQ01+000000PRSWM1Q02+000000PRSWM2Q03+000000PRSWM3Q04+000000PRSWM4
0182101624999992006010513204+53417+011783FM-15+0052EDOP V0200701N00571003001CN0112651N1+00101-00201999999ADDGA1075+003001999GF107991999999999999999999MA1102811999999REMMET046EDOP 051320Z 07011KT 9999 BKN010 01/M02 Q1028;EQDQ01+000000PRSWM1Q02+000000PRSWM2Q03+000000PRSWM3Q04+000000PRSWM4
0188101624999992006010513504+53417+011783FM-15+0052EDOP V0200701N00771003001CN0070001N1+00101-00201999999ADDGA1075+003001999GF107991999999999999999999MA1102711999999REMMET052METAR EDOP 051350Z 07015KT 7000 BKN010 01/M02 Q1027;EQDQ01+000000PRSWM1Q02+000000PRSWM2Q03+000000PRSWM3Q04+000000PRSWM4
0182101624999992006010514204+53417+011783FM-15+0052EDOP V0200801N00721003001CN0070001N1+00001-00201999999ADDGA1075+003001999GF107991999999999999999999MA1102711999999REMMET046EDOP 051420Z 08014KT 7000 BKN010 00/M02 Q1027;EQDQ01+000000PRSWM1Q02+000000PRSWM2Q03+000000PRSWM3Q04+000000PRSWM4
0182101624999992006010514504+53417+011783FM-15+0052EDOP V0200701N00771003301CN0070001N1+00001-00201999999ADDGA1075+003301999GF107991999999999999999999MA1102711999999REMMET046EDOP 051450Z 07015KT 7000 BKN011 00/M02 Q1027;EQDQ01+000000PRSWM1Q02+000000PRSWM2Q03+000000PRSWM3Q04+000000PRSWM4
0183101624999992006010515504+53417+011783FM-15+0052EDOP V0200801N00671003001CN0070001N1+00001-00301999999ADDGA1075+003001999GF107991999999999999999999MA1102711999999REMMET047EDOP 051550Z 08013KT 7000 BKN010 M00/M03 Q1027;EQDQ01+000000PRSWM1Q02+000000PRSWM2Q03+000000PRSWM3Q04+000000PRSWM4
0183101624999992006010516204+53417+011783FM-15+0052EDOP V0200801N00671003001CN0070001N1+00001-00301999999ADDGA1075+003001999GF107991999999999999999999MA1102711999999REMMET047EDOP 051620Z 08013KT 7000 BKN010 M00/M03 Q1027;EQDQ01+000000PRSWM1Q02+000000PRSWM2Q03+000000PRSWM3Q04+000000PRSWM4
0183101624999992006010607204+53417+011783FM-15+0052EDOP V0200901N00771002401CN0060001N1-00201-00401999999ADDGA1075+002401999GF107991999999999999999999MA1102811999999REMMET047EDOP 060720Z 09015KT 6000 BKN008 M02/M04 Q1028;EQDQ01+000000PRSWM1Q02+000000PRSWM2Q03+000000PRSWM3Q04+000000PRSWM4
0183101624999992006010607504+53417+011783FM-15+0052EDOP V0200901N00671002401CN0070001N1-00201-00401999999ADDGA1075+002401999GF107991999999999999999999MA1102811999999REMMET047EDOP 060750Z 09013KT 7000 BKN008 M02/M04 Q1028;EQDQ01+000000PRSWM1Q02+000000PRSWM2Q03+000000PRSWM3Q04+000000PRSWM4
0183101624999992006010608504+53417+011783FM-15+0052EDOP V0200801N00671001801CN0060001N1-00201-00401999999ADDGA1075+001801999GF107991999999999999999999MA1102811999999REMMET047EDOP 060850Z 08013KT 6000 BKN006 M02/M04 Q1028;EQDQ01+000000PRSWM1Q02+000000PRSWM2Q03+000000PRSWM3Q04+000000PRSWM4
0176101624999992006010609204+53417+011783FM-15+0052EDOP V0200801N00621001501CN0050001N1-00201-00401999999ADDGA1075+001501999GF107991999999999999999999MA1102811999999MW1101REMMET050EDOP 060920Z 08012KT 5000 BR BKN005 M02/M04 Q1028;EQDQ01+000000PRSWM1Q02+000000PRSWM3Q03+000000PRSWM4
0183101624999992006010609504+53417+011783FM-15+0052EDOP V0200901N00621001801CN0060001N1-00201-00401999999ADDGA1075+001801999GF107991999999999999999999MA1102911999999REMMET047EDOP 060950Z 09012KT 6000 BKN006 M02/M04 Q1029;EQDQ01+000000PRSWM1Q02+000000PRSWM2Q03+000000PRSWM3Q04+000000PRSWM4
0183101624999992006010610204+53417+011783FM-15+0052EDOP V0200901N00671001801CN0060001N1-00201-00401999999ADDGA1075+001801999GF107991999999999999999999MA1102911999999REMMET047EDOP 061020Z 09013KT 6000 BKN006 M02/M04 Q1029;EQDQ01+000000PRSWM1Q02+000000PRSWM2Q03+000000PRSWM3Q04+000000PRSWM4
0189101624999992006010610504+53417+011783FM-15+0052EDOP V0200901N00511001501CN0060001N1-00201-00401999999ADDGA1075+001501999GF107991999999999999999999MA1102911999999REMMET053METAR EDOP 061050Z 09010KT 6000 BKN005 M02/M04 Q1029;EQDQ01+000000PRSWM1Q02+000000PRSWM2Q03+000000PRSWM3Q04+000000PRSWM4
0183101624999992006010611204+53417+011783FM-15+0052EDOP V0200901N00571001801CN0070001N1-00201-00401999999ADDGA1075+001801999GF107991999999999999999999MA1102811999999REMMET047EDOP 061120Z 09011KT 7000 BKN006 M02/M04 Q1028;EQDQ01+000000PRSWM1Q02+000000PRSWM2Q03+000000PRSWM3Q04+000000PRSWM4
0183101624999992006010611504+53417+011783FM-15+0052EDOP V0201001N00671002401CN0080001N1-00201-00401999999ADDGA1075+002401999GF107991999999999999999999MA1102911999999REMMET047EDOP 061150Z 10013KT 8000 BKN008 M02/M04 Q1029;EQDQ01+000000PRSWM1Q02+000000PRSWM2Q03+000000PRSWM3Q04+000000PRSWM4
0183101624999992006010612204+53417+011783FM-15+0052EDOP V0201001N00571002101CN0070001N1-00201-00401999999ADDGA1075+002101999GF107991999999999999999999MA1102911999999REMMET047EDOP 061220Z 10011KT 7000 BKN007 M02/M04 Q1029;EQDQ01+000000PRSWM1Q02+000000PRSWM2Q03+000000PRSWM3Q04+000000PRSWM4
0183101624999992006010612504+53417+011783FM-15+0052EDOP V0200801N00571002401CN0070001N1-00201-00401999999ADDGA1075+002401999GF107991999999999999999999MA1102911999999REMMET047EDOP 061250Z 08011KT 7000 BKN008 M02/M04 Q1029;EQDQ01+000000PRSWM1Q02+000000PRSWM2Q03+000000PRSWM3Q04+000000PRSWM4
0183101624999992006010613204+53417+011783FM-15+0052EDOP V0201001N00621002401CN0060001N1-00201-00401999999ADDGA1075+002401999GF107991999999999999999999MA1102911999999REMMET047EDOP 061320Z 10012KT 6000 BKN008 M02/M04 Q1029;EQDQ01+000000PRSWM1Q02+000000PRSWM2Q03+000000PRSWM3Q04+000000PRSWM4
0183101624999992006010613504+53417+011783FM-15+0052EDOP V0200801N00621002401CN0070001N1-00201-00401999999ADDGA1075+002401999GF107991999999999999999999MA1102911999999REMMET047EDOP 061350Z 08012KT 7000 BKN008 M02/M04 Q1029;EQDQ01+000000PRSWM1Q02+000000PRSWM2Q03+000000PRSWM3Q04+000000PRSWM4
0183101624999992006010614204+53417+011783FM-15+0052EDOP V0200901N00671002101CN0070001N1-00201-00401999999ADDGA1075+002101999GF107991999999999999999999MA1102911999999REMMET047EDOP 061420Z 09013KT 7000 BKN007 M02/M04 Q1029;EQDQ01+000000PRSWM1Q02+000000PRSWM2Q03+000000PRSWM3Q04+000000PRSWM4
0183101624999992006010614504+53417+011783FM-15+0052EDOP V0200901N00571002101CN0070001N1-00301-00501999999ADDGA1075+002101999GF107991999999999999999999MA1102911999999REMMET047EDOP 061450Z 09011KT 7000 BKN007 M03/M05 Q1029;EQDQ01+000000PRSWM1Q02+000000PRSWM2Q03+000000PRSWM3Q04+000000PRSWM4
0183101624999992006010615204+53417+011783FM-15+0052EDOP V0201001N00511002101CN0070001N1-00301-00501999999ADDGA1075+002101999GF107991999999999999999999MA1102911999999REMMET047EDOP 061520Z 10010KT 7000 BKN007 M03/M05 Q1029;EQDQ01+000000PRSWM1Q02+000000PRSWM2Q03+000000PRSWM3Q04+000000PRSWM4
0183101624999992006010615504+53417+011783FM-15+0052EDOP V0200901N00771002101CN0070001N1-00301-00501999999ADDGA1075+002101999GF107991999999999999999999MA1102911999999REMMET047EDOP 061550Z 09015KT 7000 BKN007 M03/M05 Q1029;EQDQ01+000000PRSWM1Q02+000000PRSWM2Q03+000000PRSWM3Q04+000000PRSWM4
0183101624999992006010616204+53417+011783FM-15+0052EDOP V0200901N00671002101CN0070001N1-00301-00501999999ADDGA1075+002101999GF107991999999999999999999MA1102911999999REMMET047EDOP 061620Z 09013KT 7000 BKN007 M03/M05 Q1029;EQDQ01+000000PRSWM1Q02+000000PRSWM2Q03+000000PRSWM3Q04+000000PRSWM4
0183101624999992006010616504+53417+011783FM-15+0052EDOP V0201001N00411002101CN0070001N1-00301-00501999999ADDGA1075+002101999GF107991999999999999999999MA1102911999999REMMET047EDOP 061650Z 10008KT 7000 BKN007 M03/M05 Q1029;EQDQ01+000000PRSWM1Q02+000000PRSWM2Q03+000000PRSWM3Q04+000000PRSWM4
0183101624999992006010707204+53417+011783FM-15+0052EDOP V0200801N00461005101CN0080001N1-00201-00501999999ADDGA1075+005101999GF107991999999999999999999MA1103181999999REMMET047EDOP 070720Z 08009KT 8000 BKN017 M02/M05 Q1032;EQDQ01+000000PRSWM1Q02+000000PRSWM2Q03+000000PRSWM3Q04+000000PRSWM4
0180101624999992006010707504+53417+011783FM-15+0052EDOP V0200901N004610054059N0080001N1-00201-00501999999ADDGA1045+003005999GA2075+005405999MA1103201999999REMMET054EDOP 070750Z 09009KT 8000 SCT010 BKN018 M02/M05 Q1032;EQDQ01+000000PRSWM1Q02+000000PRSWM2Q03+000000PRSWM3Q04+000000PRSWM4
0183101624999992006010708204+53417+011783FM-15+0052EDOP V0201001N00411002701CN0080001N1-00201-00401999999ADDGA1075+002701999GF107991999999999999999999MA1103181999999REMMET047EDOP 070820Z 10008KT 8000 BKN009 M02/M04 Q1032;EQDQ01+000000PRSWM1Q02+000000PRSWM2Q03+000000PRSWM3Q04+000000PRSWM4
0183101624999992006010708504+53417+011783FM-15+0052EDOP V0200901N00461002401CN0080001N1-00201-00401999999ADDGA1075+002401999GF107991999999999999999999MA1103181999999REMMET047EDOP 070850Z 09009KT 8000 BKN008 M02/M04 Q1032;EQDQ01+000000PRSWM1Q02+000000PRSWM2Q03+000000PRSWM3Q04+000000PRSWM4
0189101624999992006010709204+53417+011783FM-15+0052EDOP V0200901N00571002401CN0080001N1-00201-00401999999ADDGA1075+002401999GF107991999999999999999999MA1103291999999REMMET053METAR EDOP 070920Z 09011KT 8000 BKN008 M02/M04 Q1033;EQDQ01+000000PRSWM1Q02+000000PRSWM2Q03+000000PRSWM3Q04+000000PRSWM4
0183101624999992006010709504+53417+011783FM-15+0052EDOP V0200901N00511002101CN0070001N1-00201-00401999999ADDGA1075+002101999GF107991999999999999999999MA1103291999999REMMET047EDOP 070950Z 09010KT 7000 BKN007 M02/M04 Q1033;EQDQ01+000000PRSWM1Q02+000000PRSWM2Q03+000000PRSWM3Q04+000000PRSWM4
0183101624999992006010710204+53417+011783FM-15+0052EDOP V0200901N00511002101CN0070001N1-00201-00401999999ADDGA1075+002101999GF107991999999999999999999MA1103291999999REMMET047EDOP 071020Z 09010KT 7000 BKN007 M02/M04 Q1033;EQDQ01+000000PRSWM1Q02+000000PRSWM2Q03+000000PRSWM3Q04+000000PRSWM4
0183101624999992006010710504+53417+011783FM-15+0052EDOP V0200801N00571002401CN0080001N1-00201-00401999999ADDGA1075+002401999GF107991999999999999999999MA1103291999999REMMET047EDOP 071050Z 08011KT 8000 BKN008 M02/M04 Q1033;EQDQ01+000000PRSWM1Q02+000000PRSWM2Q03+000000PRSWM3Q04+000000PRSWM4
0183101624999992006010711204+53417+011783FM-15+0052EDOP V0200801N00511002401CN0080001N1-00201-00401999999ADDGA1075+002401999GF107991999999999999999999MA1103291999999REMMET047EDOP 071120Z 08010KT 8000 BKN008 M02/M04 Q1033;EQDQ01+000000PRSWM1Q02+000000PRSWM2Q03+000000PRSWM3Q04+000000PRSWM4
0183101624999992006010712204+53417+011783FM-15+0052EDOP V0201001N00621002701CN0080001N1-00101-00401999999ADDGA1075+002701999GF107991999999999999999999MA1103181999999REMMET047EDOP 071220Z 10012KT 8000 BKN009 M01/M04 Q1032;EQDQ01+000000PRSWM1Q02+000000PRSWM2Q03+000000PRSWM3Q04+000000PRSWM4
0183101624999992006010712504+53417+011783FM-15+0052EDOP V0200901N00361002701CN0080001N1-00101-00401999999ADDGA1075+002701999GF107991999999999999999999MA1103181999999REMMET047EDOP 071250Z 09007KT 8000 BKN009 M01/M04 Q1032;EQDQ01+000000PRSWM1Q02+000000PRSWM2Q03+000000PRSWM3Q04+000000PRSWM4
0183101624999992006010713504+53417+011783FM-15+0052EDOP V0200901N00511002701CN0080001N1-00101-00401999999ADDGA1075+002701999GF107991999999999999999999MA1103181999999REMMET047EDOP 071350Z 09010KT 8000 BKN009 M01/M04 Q1032;EQDQ01+000000PRSWM1Q02+000000PRSWM2Q03+000000PRSWM3Q04+000000PRSWM4
0183101624999992006010714204+53417+011783FM-15+0052EDOP V0200901N00571002701CN0080001N1-00101-00401999999ADDGA1075+002701999GF107991999999999999999999MA1103181999999REMMET047EDOP 071420Z 09011KT 8000 BKN009 M01/M04 Q1032;EQDQ01+000000PRSWM1Q02+000000PRSWM2Q03+000000PRSWM3Q04+000000PRSWM4
0183101624999992006010714504+53417+011783FM-15+0052EDOP V0200901N00671002401CN0080001N1-00101-00401999999ADDGA1075+002401999GF107991999999999999999999MA1103181999999REMMET047EDOP 071450Z 09013KT 8000 BKN008 M01/M04 Q1032;EQDQ01+000000PRSWM1Q02+000000PRSWM2Q03+000000PRSWM3Q04+000000PRSWM4
0183101624999992006010715204+53417+011783FM-15+0052EDOP V0200901N00721002101CN0060001N1-00201-00401999999ADDGA1075+002101999GF107991999999999999999999MA1103291999999REMMET047EDOP 071520Z 09014KT 6000 BKN007 M02/M04 Q1033;EQDQ01+000000PRSWM1Q02+000000PRSWM2Q03+000000PRSWM3Q04+000000PRSWM4
0183101624999992006010715504+53417+011783FM-15+0052EDOP V0201001N00461001801CN0060001N1-00201-00401999999ADDGA1075+001801999GF107991999999999999999999MA1103291999999REMMET047EDOP 071550Z 10009KT 6000 BKN006 M02/M04 Q1033;EQDQ01+000000PRSWM1Q02+000000PRSWM2Q03+000000PRSWM3Q04+000000PRSWM4
0183101624999992006010716204+53417+011783FM-15+0052EDOP V0201001N00571001801CN0060001N1-00201-00401999999ADDGA1075+001801999GF107991999999999999999999MA1103291999999REMMET047EDOP 071620Z 10011KT 6000 BKN006 M02/M04 Q1033;EQDQ01+000000PRSWM1Q02+000000PRSWM2Q03+000000PRSWM3Q04+000000PRSWM4
0183101624999992006010716504+53417+011783FM-15+0052EDOP V0200901N00461001801CN0060001N1-00201-00401999999ADDGA1075+001801999GF107991999999999999999999MA1103291999999REMMET047EDOP 071650Z 09009KT 6000 BKN006 M02/M04 Q1033;EQDQ01+000000PRSWM1Q02+000000PRSWM2Q03+000000PRSWM3Q04+000000PRSWM4
0176101624999992006010807204+53417+011783FM-15+0052EDOP V0201001N00461002101CN0040001N1-00501-00901999999ADDGA1075+002101999GF107991999999999999999999MA1103391999999MW1101REMMET050EDOP 080720Z 10009KT 4000 BR BKN007 M05/M09 Q1034;EQDQ01+000000PRSWM1Q02+000000PRSWM3Q03+000000PRSWM4
0159101624999992006010807504+53417+011783FM-15+0052EDOP V02099999999990021059N0010081N1-00501-00701999999ADDGA1075+002105999MA1103401999999REMMET049EDOP 080750Z 1008KT 4000 BR BKN007 M05/M07 Q1034;EQDQ01+000000PRSWM1Q02+000000PRSWM2Q03+000000PRSWM3Q04+000000PRSWM4
0176101624999992006010808204+53417+011783FM-15+0052EDOP V0201001N00411002401CN0045001N1-00501-00701999999ADDGA1075+002401999GF107991999999999999999999MA1103391999999MW1101REMMET050EDOP 080820Z 10008KT 4500 BR BKN008 M05/M07 Q1034;EQDQ01+000000PRSWM1Q02+000000PRSWM3Q03+000000PRSWM4
0176101624999992006010808504+53417+011783FM-15+0052EDOP V0200901N00461002101CN0045001N1-00501-00701999999ADDGA1075+002101999GF107991999999999999999999MA1103391999999MW1101REMMET050EDOP 080850Z 09009KT 4500 BR BKN007 M05/M07 Q1034;EQDQ01+000000PRSWM1Q02+000000PRSWM3Q03+000000PRSWM4
0176101624999992006010809204+53417+011783FM-15+0052EDOP V0200901N004612200019N0045001N1-00501-00701999999ADDGA1045+003001999GF104991999999999999999999MA1103391999999MW1101REMMET050EDOP 080920Z 09009KT 4500 BR SCT010 M05/M07 Q1034;EQDQ01+000000PRSWM1Q02+000000PRSWM3Q03+000000PRSWM4
0176101624999992006010809504+53417+011783FM-15+0052EDOP V0200801N004112200019N0050001N1-00401-00601999999ADDGA1045+003001999GF104991999999999999999999MA1103391999999MW1101REMMET050EDOP 080950Z 08008KT 5000 BR SCT010 M04/M06 Q1034;EQDQ01+000000PRSWM1Q02+000000PRSWM3Q03+000000PRSWM4
0176101624999992006010810204+53417+011783FM-15+0052EDOP V0201101N003612200019N0050001N1-00401-00701999999ADDGA1045+003001999GF104991999999999999999999MA1103391999999MW1101REMMET050EDOP 081020Z 11007KT 5000 BR SCT010 M04/M07 Q1034;EQDQ01+000000PRSWM1Q02+000000PRSWM3Q03+000000PRSWM4
0157101624999992006010810504+53417+011783FM-15+0052EDOP V0201001N003612200019N0050001N1-00301-00601999999ADDGF100991999999999999999999MA1103391999999MW1101REMMET047EDOP 081050Z 10007KT 5000 BR SKC M03/M06 Q1034;EQDQ01+000000PRSWM1Q02+000000PRSWM3Q03+000000PRSWM4
0163101624999992006010811204+53417+011783FM-15+0052EDOP V0200901N004112200019N0050001N1-00301-00601999999ADDGF100991999999999999999999MA1103391999999MW1101REMMET053METAR EDOP 081120Z 09008KT 5000 BR SKC M03/M06 Q1034;EQDQ01+000000PRSWM1Q02+000000PRSWM3Q03+000000PRSWM4
0138101624999992006010811504+53417+011783FM-15+0052EDOP V0200901N003112200019N0060001N1-00201-00601999999ADDMA1103391999999REMMET044EDOP 081150Z 09006KT 6000 SKC M02/M06 Q1034;EQDQ01+000000PRSWM1Q02+000000PRSWM2Q03+000000PRSWM3Q04+000000PRSWM4
0138101624999992006010812204+53417+011783FM-15+0052EDOP V0201001N002612200019N0060001N1-00201-00601999999ADDMA1103391999999REMMET044EDOP 081220Z 10005KT 6000 SKC M02/M06 Q1034;EQDQ01+000000PRSWM1Q02+000000PRSWM2Q03+000000PRSWM3Q04+000000PRSWM4
0138101624999992006010812504+53417+011783FM-15+0052EDOP V0200901N003112200019N0060001N1-00101-00601999999ADDMA1103391999999REMMET044EDOP 081250Z 09006KT 6000 SKC M01/M06 Q1034;EQDQ01+000000PRSWM1Q02+000000PRSWM2Q03+000000PRSWM3Q04+000000PRSWM4
0138101624999992006010813204+53417+011783FM-15+0052EDOP V0200901N004112200019N0060001N1-00101-00601999999ADDMA1103291999999REMMET044EDOP 081320Z 09008KT 6000 SKC M01/M06 Q1033;EQDQ01+000000PRSWM1Q02+000000PRSWM2Q03+000000PRSWM3Q04+000000PRSWM4
0138101624999992006010813504+53417+011783FM-15+0052EDOP V0200701N003612200019N0060001N1-00201-00601999999ADDMA1103291999999REMMET044EDOP 081350Z 07007KT 6000 SKC M02/M06 Q1033;EQDQ01+000000PRSWM1Q02+000000PRSWM2Q03+000000PRSWM3Q04+000000PRSWM4
0138101624999992006010814204+53417+011783FM-15+0052EDOP V0200901N004112200019N0060001N1-00201-00601999999ADDMA1103391999999REMMET044EDOP 081420Z 09008KT 6000 SKC M02/M06 Q1034;EQDQ01+000000PRSWM1Q02+000000PRSWM2Q03+000000PRSWM3Q04+000000PRSWM4
0157101624999992006010814504+53417+011783FM-15+0052EDOP V0200801N003112200019N0050001N1-00301-00701999999ADDGF100991999999999999999999MA1103291999999MW1101REMMET047EDOP 081450Z 08006KT 5000 BR SKC M03/M07 Q1033;EQDQ01+000000PRSWM1Q02+000000PRSWM3Q03+000000PRSWM4
0157101624999992006010815204+53417+011783FM-15+0052EDOP V0200801N003112200019N0050001N1-00401-00701999999ADDGF100991999999999999999999MA1103291999999MW1101REMMET047EDOP 081520Z 08006KT 5000 BR SKC M04/M07 Q1033;EQDQ01+000000PRSWM1Q02+000000PRSWM3Q03+000000PRSWM4
0157101624999992006010815504+53417+011783FM-15+0052EDOP V0200901N002612200019N0045001N1-00401-00701999999ADDGF100991999999999999999999MA1103291999999MW1101REMMET047EDOP 081550Z 09005KT 4500 BR SKC M04/M07 Q1033;EQDQ01+000000PRSWM1Q02+000000PRSWM3Q03+000000PRSWM4
0157101624999992006010816204+53417+011783FM-15+0052EDOP V0200901N003112200019N0045001N1-00501-00801999999ADDGF100991999999999999999999MA1103291999999MW1101REMMET047EDOP 081620Z 09006KT 4500 BR SKC M05/M08 Q1033;EQDQ01+000000PRSWM1Q02+000000PRSWM3Q03+000000PRSWM4
0157101624999992006010816504+53417+011783FM-15+0052EDOP V0200901N003112200019N0050001N1-00601-00901999999ADDGF100991999999999999999999MA1103391999999MW1101REMMET047EDOP 081650Z 09006KT 5000 BR SKC M06/M09 Q1034;EQDQ01+000000PRSWM1Q02+000000PRSWM3Q03+000000PRSWM4
0106101624999992006010907204+53417+011783FM-15+0052EDOP V0201101N003612200019N0040001N1-01001-01101999999ADDGF100991999999999999999999MA1103291999999MW1101REMMET047EDOP 090720Z 11007KT 4000 BR SKC M10/M11 Q1033;
0073101624999992006010907504+53417+011783FM-15+0052EDOP V02099999999992200019N0010051N1-00901-01101999999ADDMA1103401999999REMMET046EDOP 090750Z 1005KT 4000 BR SKC M09/M11 Q1034;
0071101624999992006010908204+53417+011783FM-15+0052EDOP V0201101N002612200019N0050001N1-00801-01001999999ADDMA1103291999999REMMET044EDOP 090820Z 11005KT 5000 SKC M08/M10 Q1033;
0071101624999992006010908504+53417+011783FM-15+0052EDOP V0200901N002112200019N0050001N1-00801-01001999999ADDMA1103291999999REMMET044EDOP 090850Z 09004KT 5000 SKC M08/M10 Q1033;
0071101624999992006010909504+53417+011783FM-15+0052EDOP V0200801N002612200019N0050001N1-00501-00901999999ADDMA1103291999999REMMET044EDOP 090950Z 08005KT 5000 SKC M05/M09 Q1033;
0071101624999992006010910204+53417+011783FM-15+0052EDOP V0200901N002612200019N0060001N1-00401-00801999999ADDMA1103291999999REMMET044EDOP 091020Z 09005KT 6000 SKC M04/M08 Q1033;
0071101624999992006010910504+53417+011783FM-15+0052EDOP V0200701N002112200019N0060001N1-00301-00801999999ADDMA1103181999999REMMET044EDOP 091050Z 07004KT 6000 SKC M03/M08 Q1032;
0071101624999992006010911204+53417+011783FM-15+0052EDOP V0200801N002612200019N0060001N1-00201-00801999999ADDMA1103181999999REMMET044EDOP 091120Z 08005KT 6000 SKC M02/M08 Q1032;
0077101624999992006010911504+53417+011783FM-15+0052EDOP V0201001N003112200019N0060001N1-00101-00801999999ADDMA1103181999999REMMET050METAR EDOP 091150Z 10006KT 6000 SKC M01/M08 Q1032;
0071101624999992006010912204+53417+011783FM-15+0052EDOP V0201201N003612200019N0070001N1+00001-00801999999ADDMA1103121999999REMMET044EDOP 091220Z 12007KT 7000 SKC M00/M08 Q1031;
0071101624999992006010912504+53417+011783FM-15+0052EDOP V0201201N004112200019N0080001N1-00101-00901999999ADDMA1103121999999REMMET044EDOP 091250Z 12008KT 8000 SKC M01/M09 Q1031;
0071101624999992006010913504+53417+011783FM-15+0052EDOP V0201001N003612200019N0080001N1-00101-01001999999ADDMA1103121999999REMMET044EDOP 091350Z 10007KT 8000 SKC M01/M10 Q1031;
0071101624999992006010914204+53417+011783FM-15+0052EDOP V0200901N003112200019N0080001N1-00101-01001999999ADDMA1103121999999REMMET044EDOP 091420Z 09006KT 8000 SKC M01/M10 Q1031;
0077101624999992006010914504+53417+011783FM-15+0052EDOP V0200901N002612200019N0080001N1-00201-01001999999ADDMA1103121999999REMMET050METAR EDOP 091450Z 09005KT 8000 SKC M02/M10 Q1031;
0071101624999992006010915504+53417+011783FM-15+0052EDOP V0201101N002612200019N0060001N1-00401-00901999999ADDMA1103121999999REMMET044EDOP 091550Z 11005KT 6000 SKC M04/M09 Q1031;
0071101624999992006010916204+53417+011783FM-15+0052EDOP V0201001N003612200019N0060001N1-00501-00901999999ADDMA1103011999999REMMET044EDOP 091620Z 10007KT 6000 SKC M05/M09 Q1030;
0071101624999992006010916504+53417+011783FM-15+0052EDOP V0201001N002612200019N0070001N1-00501-00901999999ADDMA1103011999999REMMET044EDOP 091650Z 10005KT 7000 SKC M05/M09 Q1030;
0157101624999992006011007204+53417+011783FM-15+0052EDOP V0201701N002112200019N0045001N1-00701-00801999999ADDGF100991999999999999999999MA1102811999999MW1101REMMET047EDOP 100720Z 17004KT 4500 BR NSC M07/M08 Q1028;EQDQ01+000000PRSWM1Q02+000000PRSWM3Q03+000000PRSWM4
0157101624999992006011007504+53417+011783FM-15+0052EDOP V0201601N002112200019N0045001N1-00601-00801999999ADDGF100991999999999999999999MA1102811999999MW1101REMMET047EDOP 100750Z 16004KT 4500 BR NSC M06/M08 Q1028;EQDQ01+000000PRSWM1Q02+000000PRSWM3Q03+000000PRSWM4
0157101624999992006011008204+53417+011783FM-15+0052EDOP V0201901N001512200019N0045001N1-00601-00701999999ADDGF100991999999999999999999MA1102811999999MW1101REMMET047EDOP 100820Z 19003KT 4500 BR NSC M06/M07 Q1028;EQDQ01+000000PRSWM1Q02+000000PRSWM3Q03+000000PRSWM4
0163101624999992006011008504+53417+011783FM-15+0052EDOP V0201901N001512200019N0045001N1-00501-00701999999ADDGF100991999999999999999999MA1102811999999MW1101REMMET053METAR EDOP 100850Z 19003KT 4500 BR NSC M05/M07 Q1028;EQDQ01+000000PRSWM1Q02+000000PRSWM3Q03+000000PRSWM4
0157101624999992006011009204+53417+011783FM-15+0052EDOP V0201601N001512200019N0045001N1-00401-00701999999ADDGF100991999999999999999999MA1102811999999MW1101REMMET047EDOP 100920Z 16003KT 4500 BR NSC M04/M07 Q1028;EQDQ01+000000PRSWM1Q02+000000PRSWM3Q03+000000PRSWM4
0157101624999992006011009504+53417+011783FM-15+0052EDOP V0201901N002112200019N0045001N1-00301-00601999999ADDGF100991999999999999999999MA1102811999999MW1101REMMET047EDOP 100950Z 19004KT 4500 BR NSC M03/M06 Q1028;EQDQ01+000000PRSWM1Q02+000000PRSWM3Q03+000000PRSWM4
0157101624999992006011010204+53417+011783FM-15+0052EDOP V0201701N002612200019N0050001N1-00201-00501999999ADDGF100991999999999999999999MA1102811999999MW1101REMMET047EDOP 101020Z 17005KT 5000 BR NSC M02/M05 Q1028;EQDQ01+000000PRSWM1Q02+000000PRSWM3Q03+000000PRSWM4
0138101624999992006011010504+53417+011783FM-15+0052EDOP V0201901N003112200019N0060001N1-00101-00501999999ADDMA1102811999999REMMET044EDOP 101050Z 19006KT 6000 NSC M01/M05 Q1028;EQDQ01+000000PRSWM1Q02+000000PRSWM2Q03+000000PRSWM3Q04+000000PRSWM4
0138101624999992006011011204+53417+011783FM-15+0052EDOP V0201901N003112200019N0060001N1-00101-00501999999ADDMA1102811999999REMMET044EDOP 101120Z 19006KT 6000 NSC M01/M05 Q1028;EQDQ01+000000PRSWM1Q02+000000PRSWM2Q03+000000PRSWM3Q04+000000PRSWM4
0144101624999992006011011504+53417+011783FM-15+0052EDOP V0201901N003612200019N0070001N1+00001-00501999999ADDMA1102711999999REMMET050METAR EDOP 101150Z 19007KT 7000 NSC M00/M05 Q1027;EQDQ01+000000PRSWM1Q02+000000PRSWM2Q03+000000PRSWM3Q04+000000PRSWM4
0162101624999992006011012204+53417+011783FM-15+0052EDOP V0202101N004612200019N0070001N1+00001-00401999999ADDGA1045+004505999MA1102701999999REMMET052METAR EDOP 101220Z 21009KT 7000 SCT015 00/M04 Q1027;EQDQ01+000000PRSWM1Q02+000000PRSWM2Q03+000000PRSWM3Q04+000000PRSWM4
0182101624999992006011012504+53417+011783FM-15+0052EDOP V0201801N003612200019N0070001N1+00001-00401999999ADDGA1025+004501999GF102991999999999999999999MA1102711999999REMMET046EDOP 101250Z 18007KT 7000 FEW015 00/M04 Q1027;EQDQ01+000000PRSWM1Q02+000000PRSWM2Q03+000000PRSWM3Q04+000000PRSWM4
0144101624999992006011013204+53417+011783FM-15+0052EDOP V0201701N003612200019N0070001N1+00001-00401999999ADDMA1102711999999REMMET050METAR EDOP 101320Z 17007KT 7000 NSC M00/M04 Q1027;EQDQ01+000000PRSWM1Q02+000000PRSWM2Q03+000000PRSWM3Q04+000000PRSWM4
0138101624999992006011013504+53417+011783FM-15+0052EDOP V0201801N003112200019N0070001N1+00001-00401999999ADDMA1102711999999REMMET044EDOP 101350Z 18006KT 7000 NSC M00/M04 Q1027;EQDQ01+000000PRSWM1Q02+000000PRSWM2Q03+000000PRSWM3Q04+000000PRSWM4
0138101624999992006011014504+53417+011783FM-15+0052EDOP V0201701N003612200019N0060001N1-00101-00401999999ADDMA1102711999999REMMET044EDOP 101450Z 17007KT 6000 NSC M01/M04 Q1027;EQDQ01+000000PRSWM1Q02+000000PRSWM2Q03+000000PRSWM3Q04+000000PRSWM4
0144101624999992006011015204+53417+011783FM-15+0052EDOP V0201801N003112200019N0060001N1-00101-00401999999ADDMA1102711999999REMMET050METAR EDOP 101520Z 18006KT 6000 NSC M01/M04 Q1027;EQDQ01+000000PRSWM1Q02+000000PRSWM2Q03+000000PRSWM3Q04+000000PRSWM4
0144101624999992006011015504+53417+011783FM-15+0052EDOP V0201901N003612200019N0060001N1-00101-00401999999ADDMA1102711999999REMMET050METAR EDOP 101550Z 19007KT 6000 NSC M01/M04 Q1027;EQDQ01+000000PRSWM1Q02+000000PRSWM2Q03+000000PRSWM3Q04+000000PRSWM4
0138101624999992006011016504+53417+011783FM-15+0052EDOP V0201901N004112200019N0060001N1-00101-00401999999ADDMA1102711999999REMMET044EDOP 101650Z 19008KT 6000 NSC M01/M04 Q1027;EQDQ01+000000PRSWM1Q02+000000PRSWM2Q03+000000PRSWM3Q04+000000PRSWM4
0138101624999992006011107204+53417+011783FM-15+0052EDOP V0201901N005712200019N0060001N1-00101-00501999999ADDMA1102301999999REMMET044EDOP 110720Z 19011KT 6000 NSC M01/M05 Q1023;EQDQ01+000000PRSWM1Q02+000000PRSWM2Q03+000000PRSWM3Q04+000000PRSWM4
0138101624999992006011107504+53417+011783FM-15+0052EDOP V0201901N004612200019N0070001N1-00101-00501999999ADDMA1102201999999REMMET044EDOP 110750Z 19009KT 7000 NSC M01/M05 Q1022;EQDQ01+000000PRSWM1Q02+000000PRSWM2Q03+000000PRSWM3Q04+000000PRSWM4
0138101624999992006011108204+53417+011783FM-15+0052EDOP V0201901N004612200019N0080001N1+00001-00401999999ADDMA1102301999999REMMET044EDOP 110820Z 19009KT 8000 NSC M00/M04 Q1023;EQDQ01+000000PRSWM1Q02+000000PRSWM2Q03+000000PRSWM3Q04+000000PRSWM4
0134101624999992006011108504+53417+011783FM-15+0052EDOP V0201901N00411999999CY0099001N1+00101-00401999999ADDMA1102301999999REMMET040EDOP 110850Z 19008KT CAVOK 01/M04 Q1023;EQDQ01+000000PRSWM1Q02+000000PRSWM2Q03+000000PRSWM3Q04+000000PRSWM4
0134101624999992006011109504+53417+011783FM-15+0052EDOP V0201901N00571999999CY0099001N1+00201-00401999999ADDMA1102201999999REMMET040EDOP 110950Z 19011KT CAVOK 02/M04 Q1022;EQDQ01+000000PRSWM1Q02+000000PRSWM2Q03+000000PRSWM3Q04+000000PRSWM4
0134101624999992006011110204+53417+011783FM-15+0052EDOP V0201901N00411999999CY0099001N1+00201-00401999999ADDMA1102201999999REMMET040EDOP 111020Z 19008KT CAVOK 02/M04 Q1022;EQDQ01+000000PRSWM1Q02+000000PRSWM2Q03+000000PRSWM3Q04+000000PRSWM4
0134101624999992006011110504+53417+011783FM-15+0052EDOP V0202001N00571999999CY0099001N1+00201-00401999999ADDMA1102201999999REMMET040EDOP 111050Z 20011KT CAVOK 02/M04 Q1022;EQDQ01+000000PRSWM1Q02+000000PRSWM2Q03+000000PRSWM3Q04+000000PRSWM4
0134101624999992006011111204+53417+011783FM-15+0052EDOP V0202001N00511999999CY0099001N1+00301-00301999999ADDMA1102101999999REMMET040EDOP 111120Z 20010KT CAVOK 03/M03 Q1021;EQDQ01+000000PRSWM1Q02+000000PRSWM2Q03+000000PRSWM3Q04+000000PRSWM4
0134101624999992006011111504+53417+011783FM-15+0052EDOP V0202001N00511999999CY0099001N1+00401-00301999999ADDMA1102101999999REMMET040EDOP 111150Z 20010KT CAVOK 04/M03 Q1021;EQDQ01+000000PRSWM1Q02+000000PRSWM2Q03+000000PRSWM3Q04+000000PRSWM4
0134101624999992006011112204+53417+011783FM-15+0052EDOP V0202001N00571999999CY0099001N1+00401-00301999999ADDMA1102101999999REMMET040EDOP 111220Z 20011KT CAVOK 04/M03 Q1021;EQDQ01+000000PRSWM1Q02+000000PRSWM2Q03+000000PRSWM3Q04+000000PRSWM4
0134101624999992006011112504+53417+011783FM-15+0052EDOP V0202001N00511999999CY0099001N1+00501-00301999999ADDMA1102101999999REMMET040EDOP 111250Z 20010KT CAVOK 05/M03 Q1021;EQDQ01+000000PRSWM1Q02+000000PRSWM2Q03+000000PRSWM3Q04+000000PRSWM4
0134101624999992006011113204+53417+011783FM-15+0052EDOP V0202101N00511999999CY0099001N1+00501-00301999999ADDMA1102101999999REMMET040EDOP 111320Z 21010KT CAVOK 05/M03 Q1021;EQDQ01+000000PRSWM1Q02+000000PRSWM2Q03+000000PRSWM3Q04+000000PRSWM4
0182101624999992006011113504+53417+011783FM-15+0052EDOP V0202001N003112200019N0112651N1+00401-00301999999ADDGA1025+010801999GF102991999999999999999999MA1102101999999REMMET046EDOP 111350Z 20006KT 9999 FEW036 04/M03 Q1021;EQDQ01+000000PRSWM1Q02+000000PRSWM2Q03+000000PRSWM3Q04+000000PRSWM4
0182101624999992006011114204+53417+011783FM-15+0052EDOP V0201901N005112200019N0112651N1+00401-00301999999ADDGA1025+011101999GF102991999999999999999999MA1102001999999REMMET046EDOP 111420Z 19010KT 9999 FEW037 04/M03 Q1020;EQDQ01+000000PRSWM1Q02+000000PRSWM2Q03+000000PRSWM3Q04+000000PRSWM4
0182101624999992006011114504+53417+011783FM-15+0052EDOP V0202001N005112200019N0112651N1+00401-00301999999ADDGA1025+014401999GF102991999999999999999999MA1102001999999REMMET046EDOP 111450Z 20010KT 9999 FEW048 04/M03 Q1020;EQDQ01+000000PRSWM1Q02+000000PRSWM2Q03+000000PRSWM3Q04+000000PRSWM4
0215101624999992006011115204+53417+011783FM-15+0052EDOP V0202101N00511999999CN0112651N1+00301-00301999999ADDGA1025+005101999GA2045+011701999GF104991999999999999999999MA1102101999999MW1611REMMET057EDOP 111520Z 21010KT 9999 -RA FEW017 SCT039 03/M03 Q1021;EQDQ01+000000PRSWM1Q02+000000PRSWM3Q03+000000PRSWM4P01 011703SCOCIG
0176101624999992006011115504+53417+011783FM-15+0052EDOP V0202201N005712200019N0112651N1+00301-00301999999ADDGA1045+006901999GF104991999999999999999999MA1102101999999MW1611REMMET050EDOP 111550Z 22011KT 9999 -RA SCT023 03/M03 Q1021;EQDQ01+000000PRSWM1Q02+000000PRSWM3Q03+000000PRSWM4
0199101624999992006011116204+53417+011783FM-15+0052EDOP V0202101N00511006001CN0112651N1+00301-00201999999ADDGA1025+003601999GA2075+006001999GF107991999999999999999999MA1102101999999MW1611REMMET057EDOP 111620Z 21010KT 9999 -RA FEW012 BKN020 03/M02 Q1021;EQDQ01+000000PRSWM1Q02+000000PRSWM3Q03+000000PRSWM4
0176101624999992006011116504+53417+011783FM-15+0052EDOP V0202201N00571005701CN0090001N1+00301-00201999999ADDGA1075+005701999GF107991999999999999999999MA1102101999999MW1611REMMET050EDOP 111650Z 22011KT 9000 -RA BKN019 03/M02 Q1021;EQDQ01+000000PRSWM1Q02+000000PRSWM3Q03+000000PRSWM4
0174101624999992006011207204+53417+011783FM-15+0052EDOP V0202401N00261000601CN0017001N1+00301+00301999999ADDGA1075+000601999GF107991999999999999999999MA1103181999999MW1101REMMET048EDOP 120720Z 24005KT 1700 BR BKN002 03/03 Q1032;EQDQ01+000000PRSWM1Q02+000000PRSWM3Q03+000000PRSWM4
0174101624999992006011208204+53417+011783FM-15+0052EDOP V0202301N00311001201CN0020001N1+00301+00301999999ADDGA1075+001201999GF107991999999999999999999MA1103291999999MW1101REMMET048EDOP 120820Z 23006KT 2000 BR BKN004 03/03 Q1033;EQDQ01+000000PRSWM1Q02+000000PRSWM3Q03+000000PRSWM4
0174101624999992006011208504+53417+011783FM-15+0052EDOP V0202401N00361000901CN0023001N1+00301+00301999999ADDGA1075+000901999GF107991999999999999999999MA1103291999999MW1101REMMET048EDOP 120850Z 24007KT 2300 BR BKN003 03/03 Q1033;EQDQ01+000000PRSWM1Q02+000000PRSWM3Q03+000000PRSWM4
0174101624999992006011209204+53417+011783FM-15+0052EDOP V0202401N00311001201CN0036001N1+00301+00301999999ADDGA1075+001201999GF107991999999999999999999MA1103291999999MW1101REMMET048EDOP 120920Z 24006KT 3600 BR BKN004 03/03 Q1033;EQDQ01+000000PRSWM1Q02+000000PRSWM3Q03+000000PRSWM4
0174101624999992006011209504+53417+011783FM-15+0052EDOP V0202501N00411001201CN0028001N1+00301+00301999999ADDGA1075+001201999GF107991999999999999999999MA1103291999999MW1101REMMET048EDOP 120950Z 25008KT 2800 BR BKN004 03/03 Q1033;EQDQ01+000000PRSWM1Q02+000000PRSWM3Q03+000000PRSWM4
0180101624999992006011210204+53417+011783FM-15+0052EDOP V0202401N00361001201CN0036001N1+00301+00301999999ADDGA1075+001201999GF107991999999999999999999MA1103391999999MW1101REMMET054METAR EDOP 121020Z 24007KT 3600 BR BKN004 03/03 Q1034;EQDQ01+000000PRSWM1Q02+000000PRSWM3Q03+000000PRSWM4
0174101624999992006011210504+53417+011783FM-15+0052EDOP V0202401N00361001201CN0036001N1+00301+00301999999ADDGA1075+001201999GF107991999999999999999999MA1103391999999MW1101REMMET048EDOP 121050Z 24007KT 3600 BR BKN004 03/03 Q1034;EQDQ01+000000PRSWM1Q02+000000PRSWM3Q03+000000PRSWM4
0174101624999992006011211204+53417+011783FM-15+0052EDOP V0202401N00361001201CN0040001N1+00301+00301999999ADDGA1075+001201999GF107991999999999999999999MA1103391999999MW1101REMMET048EDOP 121120Z 24007KT 4000 BR BKN004 03/03 Q1034;EQDQ01+000000PRSWM1Q02+000000PRSWM3Q03+000000PRSWM4
0174101624999992006011211504+53417+011783FM-15+0052EDOP V0202401N00361001501CN0050001N1+00301+00301999999ADDGA1075+001501999GF107991999999999999999999MA1103391999999MW1101REMMET048EDOP 121150Z 24007KT 5000 BR BKN005 03/03 Q1034;EQDQ01+000000PRSWM1Q02+000000PRSWM3Q03+000000PRSWM4
0174101624999992006011212204+53417+011783FM-15+0052EDOP V0202401N00411002101CN0050001N1+00301+00301999999ADDGA1075+002101999GF107991999999999999999999MA1103391999999MW1101REMMET048EDOP 121220Z 24008KT 5000 BR BKN007 03/03 Q1034;EQDQ01+000000PRSWM1Q02+000000PRSWM3Q03+000000PRSWM4
0174101624999992006011212504+53417+011783FM-15+0052EDOP V0202101N00361001801CN0050001N1+00301+00201999999ADDGA1075+001801999GF107991999999999999999999MA1103391999999MW1101REMMET048EDOP 121250Z 21007KT 5000 BR BKN006 03/02 Q1034;EQDQ01+000000PRSWM1Q02+000000PRSWM3Q03+000000PRSWM4
0174101624999992006011213204+53417+011783FM-15+0052EDOP V0202101N00361001801CN0050001N1+00301+00201999999ADDGA1075+001801999GF107991999999999999999999MA1103391999999MW1101REMMET048EDOP 121320Z 21007KT 5000 BR BKN006 03/02 Q1034;EQDQ01+000000PRSWM1Q02+000000PRSWM3Q03+000000PRSWM4
0174101624999992006011213504+53417+011783FM-15+0052EDOP V0202201N00311001801CN0050001N1+00301+00201999999ADDGA1075+001801999GF107991999999999999999999MA1103391999999MW1101REMMET048EDOP 121350Z 22006KT 5000 BR BKN006 03/02 Q1034;EQDQ01+000000PRSWM1Q02+000000PRSWM3Q03+000000PRSWM4
0174101624999992006011214204+53417+011783FM-15+0052EDOP V0202301N00261001801CN0050001N1+00301+00101999999ADDGA1075+001801999GF107991999999999999999999MA1103491999999MW1101REMMET048EDOP 121420Z 23005KT 5000 BR BKN006 03/01 Q1035;EQDQ01+000000PRSWM1Q02+000000PRSWM3Q03+000000PRSWM4
0174101624999992006011214504+53417+011783FM-15+0052EDOP V0202201N00311001801CN0050001N1+00201+00101999999ADDGA1075+001801999GF107991999999999999999999MA1103491999999MW1101REMMET048EDOP 121450Z 22006KT 5000 BR BKN006 02/01 Q1035;EQDQ01+000000PRSWM1Q02+000000PRSWM3Q03+000000PRSWM4
0180101624999992006011215504+53417+011783FM-15+0052EDOP V0202201N00151001801CN0050001N1+00201+00101999999ADDGA1085+001801999GF108991999999999999999999MA1103491999999MW1101REMMET054METAR EDOP 121550Z 22003KT 5000 BR OVC006 02/01 Q1035;EQDQ01+000000PRSWM1Q02+000000PRSWM3Q03+000000PRSWM4
0174101624999992006011216204+53417+011783FM-15+0052EDOP V0201801N00261001801CN0050001N1+00201+00101999999ADDGA1085+001801999GF108991999999999999999999MA1103491999999MW1101REMMET048EDOP 121620Z 18005KT 5000 BR OVC006 02/01 Q1035;EQDQ01+000000PRSWM1Q02+000000PRSWM3Q03+000000PRSWM4
0180101624999992006011216504+53417+011783FM-15+0052EDOP V0201801N00211001801CN0050001N1+00201+00001999999ADDGA1085+001801999GF108991999999999999999999MA1103491999999MW1101REMMET054METAR EDOP 121650Z 18004KT 5000 BR OVC006 02/00 Q1035;EQDQ01+000000PRSWM1Q02+000000PRSWM3Q03+000000PRSWM4
0183101624999992006011305504+53417+011783FM-15+0052EDOP V0201501N00361003001CN0112651N1-00101-00201999999ADDGA1075+003001999GF107991999999999999999999MA1103491999999REMMET047EDOP 130550Z 15007KT 9999 BKN010 M01/M02 Q1035;EQDQ01+000000PRSWM1Q02+000000PRSWM2Q03+000000PRSWM3Q04+000000PRSWM4
0189101624999992006011306204+53417+011783FM-15+0052EDOP V0201301N00311003001CN0112651N1+00001-00101999999ADDGA1075+003001999GF107991999999999999999999MA1103491999999REMMET053METAR EDOP 130620Z 13006KT 9999 BKN010 M00/M01 Q1035;EQDQ01+000000PRSWM1Q02+000000PRSWM2Q03+000000PRSWM3Q04+000000PRSWM4
0182101624999992006011306504+53417+011783FM-15+0052EDOP V0201401N00311003301CN0112651N1+00001-00101999999ADDGA1085+003301999GF108991999999999999999999MA1103491999999REMMET046EDOP 130650Z 14006KT 9999 OVC011 00/M01 Q1035;EQDQ01+000000PRSWM1Q02+000000PRSWM2Q03+000000PRSWM3Q04+000000PRSWM4
0182101624999992006011307204+53417+011783FM-15+0052EDOP V0201501N00411003001CN0090001N1+00101-00101999999ADDGA1085+003001999GF108991999999999999999999MA1103491999999REMMET046EDOP 130720Z 15008KT 9000 OVC010 01/M01 Q1035;EQDQ01+000000PRSWM1Q02+000000PRSWM2Q03+000000PRSWM3Q04+000000PRSWM4
0182101624999992006011307504+53417+011783FM-15+0052EDOP V0201401N00411002701CN0090001N1+00101-00201999999ADDGA1075+002701999GF107991999999999999999999MA1103491999999REMMET046EDOP 130750Z 14008KT 9000 BKN009 01/M02 Q1035;EQDQ01+000000PRSWM1Q02+000000PRSWM2Q03+000000PRSWM3Q04+000000PRSWM4
0182101624999992006011308204+53417+011783FM-15+0052EDOP V0201401N00511002101CN0090001N1+00101-00101999999ADDGA1075+002101999GF107991999999999999999999MA1103491999999REMMET046EDOP 130820Z 14010KT 9000 BKN007 01/M01 Q1035;EQDQ01+000000PRSWM1Q02+000000PRSWM2Q03+000000PRSWM3Q04+000000PRSWM4
0188101624999992006011308504+53417+011783FM-15+0052EDOP V0201401N00511001801CN0080001N1+00101-00101999999ADDGA1075+001801999GF107991999999999999999999MA1103491999999REMMET052METAR EDOP 130850Z 14010KT 8000 BKN006 01/M01 Q1035;EQDQ01+000000PRSWM1Q02+000000PRSWM2Q03+000000PRSWM3Q04+000000PRSWM4
0175101624999992006011309204+53417+011783FM-15+0052EDOP V0201401N00511001501CN0050001N1+00001-00101999999ADDGA1085+001501999GF108991999999999999999999MA1103491999999MW1101REMMET049EDOP 130920Z 14010KT 5000 BR OVC005 00/M01 Q1035;EQDQ01+000000PRSWM1Q02+000000PRSWM3Q03+000000PRSWM4
0175101624999992006011309504+53417+011783FM-15+0052EDOP V0201401N00411001201CN0040001N1+00001-00101999999ADDGA1085+001201999GF108991999999999999999999MA1103491999999MW1101REMMET049EDOP 130950Z 14008KT 4000 BR OVC004 00/M01 Q1035;EQDQ01+000000PRSWM1Q02+000000PRSWM3Q03+000000PRSWM4
0175101624999992006011310204+53417+011783FM-15+0052EDOP V0201301N00361001201CN0030001N1+00001-00101999999ADDGA1085+001201999GF108991999999999999999999MA1103491999999MW1101REMMET049EDOP 131020Z 13007KT 3000 BR OVC004 00/M01 Q1035;EQDQ01+000000PRSWM1Q02+000000PRSWM3Q03+000000PRSWM4
0175101624999992006011310504+53417+011783FM-15+0052EDOP V0201401N00461001201CN0036001N1+00101-00101999999ADDGA1085+001201999GF108991999999999999999999MA1103491999999MW1101REMMET049EDOP 131050Z 14009KT 3600 BR OVC004 01/M01 Q1035;EQDQ01+000000PRSWM1Q02+000000PRSWM3Q03+000000PRSWM4
0175101624999992006011311504+53417+011783FM-15+0052EDOP V0201301N00511001201CN0050001N1+00101-00101999999ADDGA1085+001201999GF108991999999999999999999MA1103391999999MW1101REMMET049EDOP 131150Z 13010KT 5000 BR OVC004 01/M01 Q1034;EQDQ01+000000PRSWM1Q02+000000PRSWM3Q03+000000PRSWM4
0175101624999992006011312204+53417+011783FM-15+0052EDOP V0201301N00461001501CN0050001N1+00101-00101999999ADDGA1075+001501999GF107991999999999999999999MA1103391999999MW1101REMMET049EDOP 131220Z 13009KT 5000 BR BKN005 01/M01 Q1034;EQDQ01+000000PRSWM1Q02+000000PRSWM3Q03+000000PRSWM4
0182101624999992006011312504+53417+011783FM-15+0052EDOP V0201301N00511001801CN0060001N1+00101-00101999999ADDGA1075+001801999GF107991999999999999999999MA1103291999999REMMET046EDOP 131250Z 13010KT 6000 BKN006 01/M01 Q1033;EQDQ01+000000PRSWM1Q02+000000PRSWM2Q03+000000PRSWM3Q04+000000PRSWM4
0182101624999992006011313204+53417+011783FM-15+0052EDOP V0201301N00411002101CN0060001N1+00101-00101999999ADDGA1075+002101999GF107991999999999999999999MA1103291999999REMMET046EDOP 131320Z 13008KT 6000 BKN007 01/M01 Q1033;EQDQ01+000000PRSWM1Q02+000000PRSWM2Q03+000000PRSWM3Q04+000000PRSWM4
0182101624999992006011313504+53417+011783FM-15+0052EDOP V0201301N00571001801CN0060001N1+00001-00101999999ADDGA1075+001801999GF107991999999999999999999MA1103291999999REMMET046EDOP 131350Z 13011KT 6000 BKN006 00/M01 Q1033;EQDQ01+000000PRSWM1Q02+000000PRSWM2Q03+000000PRSWM3Q04+000000PRSWM4
0182101624999992006011314204+53417+011783FM-15+0052EDOP V0201401N00461001501CN0060001N1+00001-00101999999ADDGA1075+001501999GF107991999999999999999999MA1103291999999REMMET046EDOP 131420Z 14009KT 6000 BKN005 00/M01 Q1033;EQDQ01+000000PRSWM1Q02+000000PRSWM2Q03+000000PRSWM3Q04+000000PRSWM4
0182101624999992006011314504+53417+011783FM-15+0052EDOP V0201301N00511002101CN0060001N1+00001-00201999999ADDGA1075+002101999GF107991999999999999999999MA1103291999999REMMET046EDOP 131450Z 13010KT 6000 BKN007 00/M02 Q1033;EQDQ01+000000PRSWM1Q02+000000PRSWM2Q03+000000PRSWM3Q04+000000PRSWM4
0182101624999992006011315204+53417+011783FM-15+0052EDOP V0201301N00411002701CN0060001N1+00001-00201999999ADDGA1075+002701999GF107991999999999999999999MA1103291999999REMMET046EDOP 131520Z 13008KT 6000 BKN009 00/M02 Q1033;EQDQ01+000000PRSWM1Q02+000000PRSWM2Q03+000000PRSWM3Q04+000000PRSWM4
0182101624999992006011315504+53417+011783FM-15+0052EDOP V0201401N00461002701CN0060001N1+00001-00201999999ADDGA1075+002701999GF107991999999999999999999MA1103181999999REMMET046EDOP 131550Z 14009KT 6000 BKN009 00/M02 Q1032;EQDQ01+000000PRSWM1Q02+000000PRSWM2Q03+000000PRSWM3Q04+000000PRSWM4
0182101624999992006011316504+53417+011783FM-15+0052EDOP V0201401N00461002701CN0060001N1+00001-00201999999ADDGA1075+002701999GF107991999999999999999999MA1103181999999REMMET046EDOP 131650Z 14009KT 6000 BKN009 00/M02 Q1032;EQDQ01+000000PRSWM1Q02+000000PRSWM2Q03+000000PRSWM3Q04+000000PRSWM4
0182101624999992006011317204+53417+011783FM-15+0052EDOP V0201401N00511002401CN0060001N1+00001-00201999999ADDGA1075+002401999GF107991999999999999999999MA1103181999999REMMET046EDOP 131720Z 14010KT 6000 BKN008 00/M02 Q1032;EQDQ01+000000PRSWM1Q02+000000PRSWM2Q03+000000PRSWM3Q04+000000PRSWM4
0182101624999992006011317504+53417+011783FM-15+0052EDOP V0201401N00461002401CN0060001N1+00001-00201999999ADDGA1075+002401999GF107991999999999999999999MA1103181999999REMMET046EDOP 131750Z 14009KT 6000 BKN008 00/M02 Q1032;EQDQ01+000000PRSWM1Q02+000000PRSWM2Q03+000000PRSWM3Q04+000000PRSWM4
0135101624999992006011407204+53417+011783FM-15+0052EDOP V0201201N00211999999CY0099001N1-00301-00501999999ADDMA1103181999999REMMET041EDOP 140720Z 12004KT CAVOK M03/M05 Q1032;EQDQ01+000000PRSWM1Q02+000000PRSWM2Q03+000000PRSWM3Q04+000000PRSWM4
0155101624999992006011408204+53417+011783FM-15+0052EDOP V02099999999992200019N0050001N1-00301-00501999999ADDGF100991999999999999999999MA1103181999999MW1101REMMET045EDOP 140820Z 11004 5000 BR NSC M03/M05 Q1032;EQDQ01+000000PRSWM1Q02+000000PRSWM3Q03+000000PRSWM4
0157101624999992006011408504+53417+011783FM-15+0052EDOP V0201401N002612200019N0050001N1-00201-00401999999ADDGF100991999999999999999999MA1103181999999MW1101REMMET047EDOP 140850Z 14005KT 5000 BR NSC M02/M04 Q1032;EQDQ01+000000PRSWM1Q02+000000PRSWM3Q03+000000PRSWM4
0157101624999992006011409504+53417+011783FM-15+0052EDOP V0201501N003612200019N0050001N1-00101-00401999999ADDGF100991999999999999999999MA1103181999999MW1101REMMET047EDOP 140950Z 15007KT 5000 BR NSC M01/M04 Q1032;EQDQ01+000000PRSWM1Q02+000000PRSWM3Q03+000000PRSWM4
0138101624999992006011410204+53417+011783FM-15+0052EDOP V0201501N003112200019N0070001N1-00101-00401999999ADDMA1103181999999REMMET044EDOP 141020Z 15006KT 7000 NSC M01/M04 Q1032;EQDQ01+000000PRSWM1Q02+000000PRSWM2Q03+000000PRSWM3Q04+000000PRSWM4
0144101624999992006011410504+53417+011783FM-15+0052EDOP V0201501N004112200019N0070001N1+00001-00401999999ADDMA1103121999999REMMET050METAR EDOP 141050Z 15008KT 7000 NSC M00/M04 Q1031;EQDQ01+000000PRSWM1Q02+000000PRSWM2Q03+000000PRSWM3Q04+000000PRSWM4
0143101624999992006011411204+53417+011783FM-15+0052EDOP V0201601N003112200019N0070001N1+00001-00401999999ADDMA1103121999999REMMET049METAR EDOP 141120Z 16006KT 7000 NSC 00/M04 Q1031;EQDQ01+000000PRSWM1Q02+000000PRSWM2Q03+000000PRSWM3Q04+000000PRSWM4
0137101624999992006011411504+53417+011783FM-15+0052EDOP V0201501N003112200019N0070001N1+00101-00401999999ADDMA1103121999999REMMET043EDOP 141150Z 15006KT 7000 NSC 01/M04 Q1031;EQDQ01+000000PRSWM1Q02+000000PRSWM2Q03+000000PRSWM3Q04+000000PRSWM4
0137101624999992006011412204+53417+011783FM-15+0052EDOP V0201601N002112200019N0070001N1+00201-00301999999ADDMA1103121999999REMMET043EDOP 141220Z 16004KT 7000 SKC 02/M03 Q1031;EQDQ01+000000PRSWM1Q02+000000PRSWM2Q03+000000PRSWM3Q04+000000PRSWM4
0137101624999992006011412504+53417+011783FM-15+0052EDOP V0201401N002612200019N0070001N1+00201-00301999999ADDMA1103121999999REMMET043EDOP 141250Z 14005KT 7000 SKC 02/M03 Q1031;EQDQ01+000000PRSWM1Q02+000000PRSWM2Q03+000000PRSWM3Q04+000000PRSWM4
0137101624999992006011413204+53417+011783FM-15+0052EDOP V0201601N002112200019N0080001N1+00201-00301999999ADDMA1103121999999REMMET043EDOP 141320Z 16004KT 8000 SKC 02/M03 Q1031;EQDQ01+000000PRSWM1Q02+000000PRSWM2Q03+000000PRSWM3Q04+000000PRSWM4
0143101624999992006011414204+53417+011783FM-15+0052EDOP V0201201N002612200019N0080001N1+00101-00401999999ADDMA1103011999999REMMET049METAR EDOP 141420Z 12005KT 8000 SKC 01/M04 Q1030;EQDQ01+000000PRSWM1Q02+000000PRSWM2Q03+000000PRSWM3Q04+000000PRSWM4
0137101624999992006011414504+53417+011783FM-15+0052EDOP V0201201N003112200019N0080001N1+00101-00401999999ADDMA1103011999999REMMET043EDOP 141450Z 12006KT 8000 SKC 01/M04 Q1030;EQDQ01+000000PRSWM1Q02+000000PRSWM2Q03+000000PRSWM3Q04+000000PRSWM4
0144101624999992006011415504+53417+011783FM-15+0052EDOP V0200901N002112200019N0080001N1-00201-00501999999ADDMA1103011999999REMMET050METAR EDOP 141550Z 09004KT 8000 SKC M02/M05 Q1030;EQDQ01+000000PRSWM1Q02+000000PRSWM2Q03+000000PRSWM3Q04+000000PRSWM4
0138101624999992006011416204+53417+011783FM-15+0052EDOP V0200801N002112200019N0080001N1-00201-00501999999ADDMA1103011999999REMMET044EDOP 141620Z 08004KT 8000 SKC M02/M05 Q1030;EQDQ01+000000PRSWM1Q02+000000PRSWM2Q03+000000PRSWM3Q04+000000PRSWM4
0138101624999992006011416504+53417+011783FM-15+0052EDOP V0200901N002112200019N0080001N1-00201-00501999999ADDMA1103011999999REMMET044EDOP 141650Z 09004KT 8000 SKC M02/M05 Q1030;EQDQ01+000000PRSWM1Q02+000000PRSWM2Q03+000000PRSWM3Q04+000000PRSWM4
0144101624999992006011417204+53417+011783FM-15+0052EDOP V0200701N001512200019N0080001N1-00301-00501999999ADDMA1103011999999REMMET050METAR EDOP 141720Z 07003KT 8000 SKC M03/M05 Q1030;EQDQ01+000000PRSWM1Q02+000000PRSWM2Q03+000000PRSWM3Q04+000000PRSWM4
0138101624999992006011417504+53417+011783FM-15+0052EDOP V0200801N001512200019N0080001N1-00301-00501999999ADDMA1103011999999REMMET044EDOP 141750Z 08003KT 8000 SKC M03/M05 Q1030;EQDQ01+000000PRSWM1Q02+000000PRSWM2Q03+000000PRSWM3Q04+000000PRSWM4
0157101624999992006011507204+53417+011783FM-15+0052EDOP V0201101N004612200019N0040001N1-00601-00801999999ADDGF100991999999999999999999MA1102811999999MW1101REMMET047EDOP 150720Z 11009KT 4000 BR SKC M06/M08 Q1028;EQDQ01+000000PRSWM1Q02+000000PRSWM3Q03+000000PRSWM4
0163101624999992006011507504+53417+011783FM-15+0052EDOP V0201101N004112200019N0040001N1-00601-00801999999ADDGF100991999999999999999999MA1102811999999MW1101REMMET053METAR EDOP 150750Z 11008KT 4000 BR SKC M06/M08 Q1028;EQDQ01+000000PRSWM1Q02+000000PRSWM3Q03+000000PRSWM4
0157101624999992006011508204+53417+011783FM-15+0052EDOP V0201101N004112200019N0040001N1-00601-00801999999ADDGF100991999999999999999999MA1102811999999MW1101REMMET047EDOP 150820Z 11008KT 4000 BR SKC M06/M08 Q1028;EQDQ01+000000PRSWM1Q02+000000PRSWM3Q03+000000PRSWM4
0157101624999992006011508504+53417+011783FM-15+0052EDOP V0201101N004112200019N0040001N1-00501-00701999999ADDGF100991999999999999999999MA1102811999999MW1101REMMET047EDOP 150850Z 11008KT 4000 BR SKC M05/M07 Q1028;EQDQ01+000000PRSWM1Q02+000000PRSWM3Q03+000000PRSWM4
0157101624999992006011509204+53417+011783FM-15+0052EDOP V0201201N004112200019N0040001N1-00401-00701999999ADDGF100991999999999999999999MA1102811999999MW1101REMMET047EDOP 150920Z 12008KT 4000 BR SKC M04/M07 Q1028;EQDQ01+000000PRSWM1Q02+000000PRSWM3Q03+000000PRSWM4
0157101624999992006011509504+53417+011783FM-15+0052EDOP V0201201N005112200019N0050001N1-00301-00601999999ADDGF100991999999999999999999MA1102811999999MW1101REMMET047EDOP 150950Z 12010KT 5000 BR SKC M03/M06 Q1028;EQDQ01+000000PRSWM1Q02+000000PRSWM3Q03+000000PRSWM4
0157101624999992006011510204+53417+011783FM-15+0052EDOP V0201201N005712200019N0050001N1-00301-00601999999ADDGF100991999999999999999999MA1102711999999MW1101REMMET047EDOP 151020Z 12011KT 5000 BR SKC M03/M06 Q1027;EQDQ01+000000PRSWM1Q02+000000PRSWM3Q03+000000PRSWM4
0144101624999992006011510504+53417+011783FM-15+0052EDOP V0201201N005712200019N0060001N1-00301-00701999999ADDMA1102711999999REMMET050METAR EDOP 151050Z 12011KT 6000 SKC M03/M07 Q1027;EQDQ01+000000PRSWM1Q02+000000PRSWM2Q03+000000PRSWM3Q04+000000PRSWM4
0138101624999992006011511204+53417+011783FM-15+0052EDOP V0201201N005112200019N0060001N1-00201-00601999999ADDMA1102711999999REMMET044EDOP 151120Z 12010KT 6000 SKC M02/M06 Q1027;EQDQ01+000000PRSWM1Q02+000000PRSWM2Q03+000000PRSWM3Q04+000000PRSWM4
0144101624999992006011511504+53417+011783FM-15+0052EDOP V0201201N005712200019N0060001N1-00101-00601999999ADDMA1102711999999REMMET050METAR EDOP 151150Z 12011KT 6000 SKC M01/M06 Q1027;EQDQ01+000000PRSWM1Q02+000000PRSWM2Q03+000000PRSWM3Q04+000000PRSWM4
0154101624999992006011512204+53417+011783FM-15+0052EDOP V0201401N004612200019N0060001N1-00101-00701999999ADDMA1102611999999REMMET044EDOP 151220Z 14009KT 6000 SKC M01/M07 Q1026;EQDQ01+060002VODIS Q02+000000PRSWM1Q03+000000PRSWM2Q04+000000PRSWM3Q05+000000PRSWM4
0154101624999992006011512504+53417+011783FM-15+0052EDOP V0201101N004112200019N0060001N1-00101-00701999999ADDMA1102611999999REMMET044EDOP 151250Z 11008KT 6000 SKC M01/M07 Q1026;EQDQ01+060002VODIS Q02+000000PRSWM1Q03+000000PRSWM2Q04+000000PRSWM3Q05+000000PRSWM4
0138101624999992006011513204+53417+011783FM-15+0052EDOP V0201401N005112200019N0060001N1-00201-00701999999ADDMA1102611999999REMMET044EDOP 151320Z 14010KT 6000 SKC M02/M07 Q1026;EQDQ01+000000PRSWM1Q02+000000PRSWM2Q03+000000PRSWM3Q04+000000PRSWM4
0138101624999992006011513504+53417+011783FM-15+0052EDOP V0201401N006212200019N0070001N1-00201-00701999999ADDMA1102611999999REMMET044EDOP 151350Z 14012KT 7000 SKC M02/M07 Q1026;EQDQ01+000000PRSWM1Q02+000000PRSWM2Q03+000000PRSWM3Q04+000000PRSWM4
0138101624999992006011514204+53417+011783FM-15+0052EDOP V0201401N005112200019N0070001N1-00301-00701999999ADDMA1102611999999REMMET044EDOP 151420Z 14010KT 7000 SKC M03/M07 Q1026;EQDQ01+000000PRSWM1Q02+000000PRSWM2Q03+000000PRSWM3Q04+000000PRSWM4
0138101624999992006011514504+53417+011783FM-15+0052EDOP V0201301N004612200019N0060001N1-00301-00701999999ADDMA1102511999999REMMET044EDOP 151450Z 13009KT 6000 SKC M03/M07 Q1025;EQDQ01+000000PRSWM1Q02+000000PRSWM2Q03+000000PRSWM3Q04+000000PRSWM4
0157101624999992006011515504+53417+011783FM-15+0052EDOP V0201301N005112200019N0050001N1-00401-00801999999ADDGF100991999999999999999999MA1102511999999MW1101REMMET047EDOP 151550Z 13010KT 5000 BR SKC M04/M08 Q1025;EQDQ01+000000PRSWM1Q02+000000PRSWM3Q03+000000PRSWM4
0157101624999992006011516204+53417+011783FM-15+0052EDOP V0201301N005712200019N0050001N1-00401-00701999999ADDGF100991999999999999999999MA1102511999999MW1101REMMET047EDOP 151620Z 13011KT 5000 BR SKC M04/M07 Q1025;EQDQ01+000000PRSWM1Q02+000000PRSWM3Q03+000000PRSWM4
0157101624999992006011516504+53417+011783FM-15+0052EDOP V0201301N005112200019N0050001N1-00401-00801999999ADDGF100991999999999999999999MA1102511999999MW1101REMMET047EDOP 151650Z 13010KT 5000 BR SKC M04/M08 Q1025;EQDQ01+000000PRSWM1Q02+000000PRSWM3Q03+000000PRSWM4
0157101624999992006011517204+53417+011783FM-15+0052EDOP V0201301N004612200019N0050001N1-00401-00801999999ADDGF100991999999999999999999MA1102511999999MW1101REMMET047EDOP 151720Z 13009KT 5000 BR SKC M04/M08 Q1025;EQDQ01+000000PRSWM1Q02+000000PRSWM3Q03+000000PRSWM4
0157101624999992006011607204+53417+011783FM-15+0052EDOP V0200501N003112200019N0040001N1-00901-01101999999ADDGF100991999999999999999999MA1102201999999MW1101REMMET047EDOP 160720Z 05006KT 4000 BR SKC M09/M11 Q1022;EQDQ01+000000PRSWM1Q02+000000PRSWM3Q03+000000PRSWM4
0157101624999992006011607504+53417+011783FM-15+0052EDOP V0200501N002612200019N0045001N1-00901-01101999999ADDGF100991999999999999999999MA1102201999999MW1101REMMET047EDOP 160750Z 05005KT 4500 BR SKC M09/M11 Q1022;EQDQ01+000000PRSWM1Q02+000000PRSWM3Q03+000000PRSWM4
0157101624999992006011608204+53417+011783FM-15+0052EDOP V0200601N001512200019N0050001N1-00801-01001999999ADDGF100991999999999999999999MA1102201999999MW1101REMMET047EDOP 160820Z 06003KT 5000 BR SKC M08/M10 Q1022;EQDQ01+000000PRSWM1Q02+000000PRSWM3Q03+000000PRSWM4
0157101624999992006011608504+53417+011783FM-15+0052EDOP V0200701N001512200019N0050001N1-00501-00701999999ADDGF100991999999999999999999MA1102201999999MW1101REMMET047EDOP 160850Z 07003KT 5000 BR SKC M05/M07 Q1022;EQDQ01+000000PRSWM1Q02+000000PRSWM3Q03+000000PRSWM4
0138101624999992006011609204+53417+011783FM-15+0052EDOP V0201301N001512200019N0060001N1-00401-00701999999ADDMA1102201999999REMMET044EDOP 160920Z 13003KT 6000 SKC M04/M07 Q1022;EQDQ01+000000PRSWM1Q02+000000PRSWM2Q03+000000PRSWM3Q04+000000PRSWM4
0138101624999992006011609504+53417+011783FM-15+0052EDOP V0201401N001012200019N0060001N1-00301-00701999999ADDMA1102201999999REMMET044EDOP 160950Z 14002KT 6000 SKC M03/M07 Q1022;EQDQ01+000000PRSWM1Q02+000000PRSWM2Q03+000000PRSWM3Q04+000000PRSWM4
0138101624999992006011610204+53417+011783FM-15+0052EDOP V0201401N001512200019N0060001N1-00301-00801999999ADDMA1102201999999REMMET044EDOP 161020Z 14003KT 6000 SKC M03/M08 Q1022;EQDQ01+000000PRSWM1Q02+000000PRSWM2Q03+000000PRSWM3Q04+000000PRSWM4
0138101624999992006011610504+53417+011783FM-15+0052EDOP V0201801N001512200019N0060001N1-00201-00701999999ADDMA1102101999999REMMET044EDOP 161050Z 18003KT 6000 SKC M02/M07 Q1021;EQDQ01+000000PRSWM1Q02+000000PRSWM2Q03+000000PRSWM3Q04+000000PRSWM4
0154101624999992006011611204+53417+011783FM-15+0052EDOP V0201501N002612200019N0060001N1-00101-00701999999ADDMA1102101999999REMMET044EDOP 161120Z 15005KT 6000 SKC M01/M07 Q1021;EQDQ01+060002VODIS Q02+000000PRSWM1Q03+000000PRSWM2Q04+000000PRSWM3Q05+000000PRSWM4
0154101624999992006011611504+53417+011783FM-15+0052EDOP V0201401N002112200019N0070001N1+00001-00601999999ADDMA1102101999999REMMET044EDOP 161150Z 14004KT 7000 NSC M00/M06 Q1021;EQDQ01+070002VODIS Q02+000000PRSWM1Q03+000000PRSWM2Q04+000000PRSWM3Q05+000000PRSWM4
0138101624999992006011612204+53417+011783FM-15+0052EDOP V0201501N001512200019N0070001N1-00501-00701999999ADDMA1102001999999REMMET044EDOP 161220Z 15003KT 7000 NSC M05/M07 Q1020;EQDQ01+000000PRSWM1Q02+000000PRSWM2Q03+000000PRSWM3Q04+000000PRSWM4
0138101624999992006011612504+53417+011783FM-15+0052EDOP V0201601N002112200019N0080001N1-00101-00701999999ADDMA1102001999999REMMET044EDOP 161250Z 16004KT 8000 NSC M01/M07 Q1020;EQDQ01+000000PRSWM1Q02+000000PRSWM2Q03+000000PRSWM3Q04+000000PRSWM4
0138101624999992006011613204+53417+011783FM-15+0052EDOP V0201401N001512200019N0080001N1-00101-00701999999ADDMA1102001999999REMMET044EDOP 161320Z 14003KT 8000 NSC M01/M07 Q1020;EQDQ01+000000PRSWM1Q02+000000PRSWM2Q03+000000PRSWM3Q04+000000PRSWM4
0137101624999992006011614204+53417+011783FM-15+0052EDOP V0201301N001512200019N0080001N1+00001-00601999999ADDMA1102001999999REMMET043EDOP 161420Z 13003KT 8000 NSC 00/M06 Q1020;EQDQ01+000000PRSWM1Q02+000000PRSWM2Q03+000000PRSWM3Q04+000000PRSWM4
0138101624999992006011614504+53417+011783FM-15+0052EDOP V0201201N002612200019N0080001N1-00101-00701999999ADDMA1101901999999REMMET044EDOP 161450Z 12005KT 8000 NSC M01/M07 Q1019;EQDQ01+000000PRSWM1Q02+000000PRSWM2Q03+000000PRSWM3Q04+000000PRSWM4
0138101624999992006011615204+53417+011783FM-15+0052EDOP V0201101N003112200019N0070001N1-00301-00701999999ADDMA1101901999999REMMET044EDOP 161520Z 11006KT 7000 NSC M03/M07 Q1019;EQDQ01+000000PRSWM1Q02+000000PRSWM2Q03+000000PRSWM3Q04+000000PRSWM4
0163101624999992006011615504+53417+011783FM-15+0052EDOP V0201001N003612200019N0050001N1-00401-00701999999ADDGF100991999999999999999999MA1101901999999MW1101REMMET053METAR EDOP 161550Z 10007KT 5000 BR NSC M04/M07 Q1019;EQDQ01+000000PRSWM1Q02+000000PRSWM3Q03+000000PRSWM4
0142101624999992006011616204+53417+011783FM-15+0052EDOP V0201101N004112200019N0050001N1-00401-00701999999ADDGF100991999999999999999999MW1101REMMET047EDOP 161620Z 11008KT 5000 BR NSC M04/M07 Q1919;EQDQ01+000000PRSWM1Q02+000000PRSWM3Q03+000000PRSWM4
0157101624999992006011616504+53417+011783FM-15+0052EDOP V0201301N005112200019N0050001N1-00501-00801999999ADDGF100991999999999999999999MA1101901999999MW1101REMMET047EDOP 161650Z 13010KT 5000 BR NSC M05/M08 Q1019;EQDQ01+000000PRSWM1Q02+000000PRSWM3Q03+000000PRSWM4
0163101624999992006011617204+53417+011783FM-15+0052EDOP V0201301N004112200019N0050001N1-00501-00701999999ADDGF100991999999999999999999MA1101901999999MW1101REMMET053METAR EDOP 161720Z 13008KT 5000 BR NSC M05/M07 Q1019;EQDQ01+000000PRSWM1Q02+000000PRSWM3Q03+000000PRSWM4
0157101624999992006011707204+53417+011783FM-15+0052EDOP V0201301N004612200019N0050001N1-00601-00901999999ADDGF100991999999999999999999MA1101081999999MW1101REMMET047EDOP 170720Z 13009KT 5000 BR SKC M06/M09 Q1011;EQDQ01+000000PRSWM1Q02+000000PRSWM3Q03+000000PRSWM4
0157101624999992006011707504+53417+011783FM-15+0052EDOP V0201201N004612200019N0050001N1-00701-00901999999ADDGF100991999999999999999999MA1101021999999MW1101REMMET047EDOP 170750Z 12009KT 5000 BR SKC M07/M09 Q1010;EQDQ01+000000PRSWM1Q02+000000PRSWM3Q03+000000PRSWM4
0138101624999992006011708204+53417+011783FM-15+0052EDOP V0201501N005112200019N0060001N1-00501-00801999999ADDMA1101021999999REMMET044EDOP 170820Z 15010KT 6000 SKC M05/M08 Q1010;EQDQ01+000000PRSWM1Q02+000000PRSWM2Q03+000000PRSWM3Q04+000000PRSWM4
0138101624999992006011708504+53417+011783FM-15+0052EDOP V0201401N005112200019N0060001N1-00401-00801999999ADDMA1101021999999REMMET044EDOP 170850Z 14010KT 6000 NSC M04/M08 Q1010;EQDQ01+000000PRSWM1Q02+000000PRSWM2Q03+000000PRSWM3Q04+000000PRSWM4
0183101624999992006011709204+53417+011783FM-15+0052EDOP V0201501N005112200019N0060001N1-00301-00801999999ADDGA1025+005401999GF102991999999999999999999MA1100911999999REMMET047EDOP 170920Z 15010KT 6000 FEW018 M03/M08 Q1009;EQDQ01+000000PRSWM1Q02+000000PRSWM2Q03+000000PRSWM3Q04+000000PRSWM4
0183101624999992006011709504+53417+011783FM-15+0052EDOP V0201501N006212200019N0060001N1-00301-00801999999ADDGA1025+006001999GF102991999999999999999999MA1100911999999REMMET047EDOP 170950Z 15012KT 6000 FEW020 M03/M08 Q1009;EQDQ01+000000PRSWM1Q02+000000PRSWM2Q03+000000PRSWM3Q04+000000PRSWM4
0222101624999992006011710204+53417+011783FM-15+0052EDOP V0201501N00461999999CN0060001N1-00201-00701999999ADDGA1025+006001999GA2045+011701999GF104991999999999999999999MA1100811999999REMMET054EDOP 171020Z 15009KT 6000 FEW020 SCT039 M02/M07 Q1008;EQDQ01+000000PRSWM1Q02+000000PRSWM2Q03+000000PRSWM3Q04+000000PRSWM4P01 011703SCOCIG
0183101624999992006011710504+53417+011783FM-15+0052EDOP V0201401N00461009601CN0060001N1-00201-00701999999ADDGA1075+009601999GF107991999999999999999999MA1100811999999REMMET047EDOP 171050Z 14009KT 6000 BKN032 M02/M07 Q1008;EQDQ01+000000PRSWM1Q02+000000PRSWM2Q03+000000PRSWM3Q04+000000PRSWM4
0222101624999992006011711204+53417+011783FM-15+0052EDOP V0201401N00461999999CN0070001N1-00101-00601999999ADDGA1025+006001999GA2045+011401999GF104991999999999999999999MA1100711999999REMMET054EDOP 171120Z 14009KT 7000 FEW020 SCT038 M01/M06 Q1007;EQDQ01+000000PRSWM1Q02+000000PRSWM2Q03+000000PRSWM3Q04+000000PRSWM4P01 011403SCOCIG
0180101624999992006011711504+53417+011783FM-15+0052EDOP V0201301N005110237059N0080001N1-00101-00601999999ADDGA1045+011405999GA2045+023705999MA1100701999999REMMET054EDOP 171150Z 13010KT 8000 SCT038 SCT079 M01/M06 Q1007;EQDQ01+000000PRSWM1Q02+000000PRSWM2Q03+000000PRSWM3Q04+000000PRSWM4
0186101624999992006011712204+53417+011783FM-15+0052EDOP V0201401N005110204059N0080001N1-00101-00601999999ADDGA1045+009005999GA2045+020405999MA1100601999999REMMET060METAR EDOP 171220Z 14010KT 8000 SCT030 SCT068 M01/M06 Q1006;EQDQ01+000000PRSWM1Q02+000000PRSWM2Q03+000000PRSWM3Q04+000000PRSWM4
0180101624999992006011712504+53417+011783FM-15+0052EDOP V0201401N005110201059N0080001N1-00101-00601999999ADDGA1045+009005999GA2045+020105999MA1100601999999REMMET054EDOP 171250Z 14010KT 8000 SCT030 SCT067 M01/M06 Q1006;EQDQ01+000000PRSWM1Q02+000000PRSWM2Q03+000000PRSWM3Q04+000000PRSWM4
0180101624999992006011713204+53417+011783FM-15+0052EDOP V0201401N005110204059N0060001N1-00101-00601999999ADDGA1045+008405999GA2045+020405999MA1100501999999REMMET054EDOP 171320Z 14010KT 6000 SCT028 SCT068 M01/M06 Q1005;EQDQ01+000000PRSWM1Q02+000000PRSWM2Q03+000000PRSWM3Q04+000000PRSWM4
0197101624999992006011713504+53417+011783FM-15+0052EDOP V0201401N00511004801CN0010001N1-00101-00601999999ADDED106U14009GA1075+004801999GF107991999999999999999999MA1100511999999MW1731REMMET060EDOP 171350Z 14010KT 1000 R06/1400U SN BKN016 M01/M06 Q1005;EQDQ01+000000PRSWM1Q02+000000PRSWM3Q03+000000PRSWM4
0216101624999992006011714204+53417+011783FM-15+0052EDOP V0201401N00511999999CN0060001N1-00101-00601999999ADDGA1045+008401999GA2045+020405999GF104991999999999999999999MA1100511999999MW1711REMMET058EDOP 171420Z 14010KT 6000 -SN SCT028 SCT068 M01/M06 Q1005;EQDQ01+000000PRSWM1Q02+000000PRSWM3Q03+000000PRSWM4P01 020403SCOCIG
0183101624999992006011715204+53417+011783FM-15+0052EDOP V0201401N00361004501CN0070001N1+00001-00401999999ADDGA1075+004501999GF107991999999999999999999MA1100311999999REMMET047EDOP 171520Z 14007KT 7000 BKN015 M00/M04 Q1003;EQDQ01+000000PRSWM1Q02+000000PRSWM2Q03+000000PRSWM3Q04+000000PRSWM4
0183101624999992006011715504+53417+011783FM-15+0052EDOP V0201401N00411004201CN0060001N1-00101-00401999999ADDGA1075+004201999GF107991999999999999999999MA1100311999999REMMET047EDOP 171550Z 14008KT 6000 BKN014 M01/M04 Q1003;EQDQ01+000000PRSWM1Q02+000000PRSWM2Q03+000000PRSWM3Q04+000000PRSWM4
0183101624999992006011716204+53417+011783FM-15+0052EDOP V0201401N00461003301CN0060001N1-00101-00401999999ADDGA1075+003301999GF107991999999999999999999MA1100201999999REMMET047EDOP 171620Z 14009KT 6000 BKN011 M01/M04 Q1002;EQDQ01+000000PRSWM1Q02+000000PRSWM2Q03+000000PRSWM3Q04+000000PRSWM4
0183101624999992006011716504+53417+011783FM-15+0052EDOP V0201301N00461002701CN0060001N1-00501+99999999999ADDGA1075+002701999GF107991999999999999999999MA1100201999999REMMET047EDOP 171650Z 13009KT 6000 BKN009 M05/M04 Q1002;EQDQ01+000000PRSWM1Q02+000000PRSWM2Q03+000000PRSWM3Q04+000000PRSWM4
0193101624999992006011806504+53417+011783FM-15+0052EDOP V0203601N00211003901CN0017001N1-00201-00201999999ADDGA1045+001501999GA2075+003901999GF107991999999999999999999MA1100001999999MW1101MW2711REMMET061EDOP 180650Z 36004KT 1700 -SN BR SCT005 BKN013 M02/M02 Q1000;EQDQ01+000000PRSWM1Q02+000000PRSWM4
0193101624999992006011807204+53417+011783FM-15+0052EDOP V0203601N00151003901CN0023001N1-00201-00201999999ADDGA1045+001501999GA2075+003901999GF107991999999999999999999MA1100001999999MW1101MW2711REMMET061EDOP 180720Z 36003KT 2300 -SN BR SCT005 BKN013 M02/M02 Q1000;EQDQ01+000000PRSWM1Q02+000000PRSWM4
0193101624999992006011807504+53417+011783FM-15+0052EDOP V0203501N00151004201CN0024001N1-00201-00201999999ADDGA1045+001801999GA2075+004201999GF107991999999999999999999MA1100101999999MW1101MW2711REMMET061EDOP 180750Z 35003KT 2400 -SN BR SCT006 BKN014 M02/M02 Q1001;EQDQ01+000000PRSWM1Q02+000000PRSWM4
0170101624999992006011808204+53417+011783FM-15+0052EDOP V0203501N00211001801CN0028001N1-00201-00201999999ADDGA1075+001801999GF107991999999999999999999MA1100101999999MW1101MW2711REMMET054EDOP 180820Z 35004KT 2800 -SN BR BKN006 M02/M02 Q1001;EQDQ01+000000PRSWM1Q02+000000PRSWM4
0170101624999992006011808504+53417+011783FM-15+0052EDOP V0200101N00311001801CN0025001N1-00201-00201999999ADDGA1075+001801999GF107991999999999999999999MA1100201999999MW1101MW2711REMMET054EDOP 180850Z 01006KT 2500 -SN BR BKN006 M02/M02 Q1002;EQDQ01+000000PRSWM1Q02+000000PRSWM4
0170101624999992006011809204+53417+011783FM-15+0052EDOP V0203601N00311001801CN0025001N1-00201-00301999999ADDGA1075+001801999GF107991999999999999999999MA1100311999999MW1101MW2711REMMET054EDOP 180920Z 36006KT 2500 -SN BR BKN006 M02/M03 Q1003;EQDQ01+000000PRSWM1Q02+000000PRSWM4
0170101624999992006011809504+53417+011783FM-15+0052EDOP V0200101N00311001801CN0024001N1-00201-00301999999ADDGA1075+001801999GF107991999999999999999999MA1100311999999MW1101MW2711REMMET054EDOP 180950Z 01006KT 2400 -SN BR BKN006 M02/M03 Q1003;EQDQ01+000000PRSWM1Q02+000000PRSWM4
0176101624999992006011810204+53417+011783FM-15+0052EDOP V0200101N00311002101CN0025001N1-00201-00301999999ADDGA1075+002101999GF107991999999999999999999MA1100411999999MW1101REMMET050EDOP 181020Z 01006KT 2500 BR BKN007 M02/M03 Q1004;EQDQ01+000000PRSWM1Q02+000000PRSWM3Q03+000000PRSWM4
0176101624999992006011810504+53417+011783FM-15+0052EDOP V0203601N00211002101CN0024001N1-00201-00301999999ADDGA1075+002101999GF107991999999999999999999MA1100511999999MW1101REMMET050EDOP 181050Z 36004KT 2400 BR BKN007 M02/M03 Q1005;EQDQ01+000000PRSWM1Q02+000000PRSWM3Q03+000000PRSWM4
0176101624999992006011811204+53417+011783FM-15+0052EDOP V0203501N00211002101CN0024001N1-00201-00301999999ADDGA1075+002101999GF107991999999999999999999MA1100511999999MW1101REMMET050EDOP 181120Z 35004KT 2400 BR BKN007 M02/M03 Q1005;EQDQ01+000000PRSWM1Q02+000000PRSWM3Q03+000000PRSWM4
0176101624999992006011811504+53417+011783FM-15+0052EDOP V0200201N00311002701CN0030001N1-00201-00301999999ADDGA1075+002701999GF107991999999999999999999MA1100611999999MW1101REMMET050EDOP 181150Z 02006KT 3000 BR BKN009 M02/M03 Q1006;EQDQ01+000000PRSWM1Q02+000000PRSWM3Q03+000000PRSWM4
0176101624999992006011812204+53417+011783FM-15+0052EDOP V0200101N00361002701CN0035001N1-00201-00301999999ADDGA1075+002701999GF107991999999999999999999MA1100611999999MW1101REMMET050EDOP 181220Z 01007KT 3500 BR BKN009 M02/M03 Q1006;EQDQ01+000000PRSWM1Q02+000000PRSWM3Q03+000000PRSWM4
0176101624999992006011813504+53417+011783FM-15+0052EDOP V0200201N00311003301CN0045001N1-00201-00401999999ADDGA1075+003301999GF107991999999999999999999MA1100811999999MW1101REMMET050EDOP 181350Z 02006KT 4500 BR BKN011 M02/M04 Q1008;EQDQ01+000000PRSWM1Q02+000000PRSWM3Q03+000000PRSWM4
0176101624999992006011814204+53417+011783FM-15+0052EDOP V0200201N00311002701CN0045001N1-00201-00401999999ADDGA1075+002701999GF107991999999999999999999MA1100911999999MW1101REMMET050EDOP 181420Z 02006KT 4500 BR BKN009 M02/M04 Q1009;EQDQ01+000000PRSWM1Q02+000000PRSWM3Q03+000000PRSWM4
0176101624999992006011815204+53417+011783FM-15+0052EDOP V0200101N00211003001CN0045001N1-00201-00401999999ADDGA1075+003001999GF107991999999999999999999MA1101081999999MW1101REMMET050EDOP 181520Z 01004KT 4500 BR BKN010 M02/M04 Q1011;EQDQ01+000000PRSWM1Q02+000000PRSWM3Q03+000000PRSWM4
0176101624999992006011815504+53417+011783FM-15+0052EDOP V0203601N00211003001CN0040001N1-00201-00401999999ADDGA1075+003001999GF107991999999999999999999MA1101081999999MW1101REMMET050EDOP 181550Z 36004KT 4000 BR BKN010 M02/M04 Q1011;EQDQ01+000000PRSWM1Q02+000000PRSWM3Q03+000000PRSWM4
0176101624999992006011816204+53417+011783FM-15+0052EDOP V0200201N00411003001CN0040001N1-00201-00401999999ADDGA1075+003001999GF107991999999999999999999MA1101191999999MW1101REMMET050EDOP 181620Z 02008KT 4000 BR BKN010 M02/M04 Q1012;EQDQ01+000000PRSWM1Q02+000000PRSWM3Q03+000000PRSWM4
0182101624999992006011816504+53417+011783FM-15+0052EDOP V0200101N00361003301CN0040001N1-00201-00401999999ADDGA1075+003301999GF107991999999999999999999MA1101291999999MW1101REMMET056METAR EDOP 181650Z 01007KT 4000 BR BKN011 M02/M04 Q1013;EQDQ01+000000PRSWM1Q02+000000PRSWM3Q03+000000PRSWM4
0176101624999992006011817204+53417+011783FM-15+0052EDOP V0200101N00211003901CN0045001N1-00201-00401999999ADDGA1075+003901999GF107991999999999999999999MA1101291999999MW1101REMMET050EDOP 181720Z 01004KT 4500 BR BKN013 M02/M04 Q1013;EQDQ01+000000PRSWM1Q02+000000PRSWM3Q03+000000PRSWM4
0176101624999992006011818504+53417+011783FM-15+0052EDOP V0203201N00151007501CN0045001N1-00201-00401999999ADDGA1075+007501999GF107991999999999999999999MA1101491999999MW1101REMMET050EDOP 181850Z 32003KT 4500 BR BKN025 M02/M04 Q1015;EQDQ01+000000PRSWM1Q02+000000PRSWM3Q03+000000PRSWM4
0176101624999992006011819204+53417+011783FM-15+0052EDOP V0200101N00101007501CN0045001N1-00201-00401999999ADDGA1075+007501999GF107991999999999999999999MA1101491999999MW1101REMMET050EDOP 181920Z 01002KT 4500 BR BKN025 M02/M04 Q1015;EQDQ01+000000PRSWM1Q02+000000PRSWM3Q03+000000PRSWM4
0176101624999992006011820204+53417+011783FM-15+0052EDOP V0200301N00101008701CN0050001N1-00201-00401999999ADDGA1075+008701999GF107991999999999999999999MA1101591999999MW1101REMMET050EDOP 182020Z 03002KT 5000 BR BKN029 M02/M04 Q1016;EQDQ01+000000PRSWM1Q02+000000PRSWM3Q03+000000PRSWM4
0183101624999992006011820504+53417+011783FM-15+0052EDOP V0203501N00101008701CN0050001N1-00201-00401999999ADDGA1075+008701999GF107991999999999999999999MA1101691999999REMMET047EDOP 182050Z 35002KT 5000 BKN029 M02/M04 Q1017;EQDQ01+000000PRSWM1Q02+000000PRSWM2Q03+000000PRSWM3Q04+000000PRSWM4
0183101624999992006011821504+53417+011783FM-15+0052EDOP V0203201N00151008101CN0050001N1-00201-00401999999ADDGA1075+008101999GF107991999999999999999999MA1101801999999REMMET047EDOP 182150Z 32003KT 5000 BKN027 M02/M04 Q1018;EQDQ01+000000PRSWM1Q02+000000PRSWM2Q03+000000PRSWM3Q04+000000PRSWM4
0183101624999992006011822204+53417+011783FM-15+0052EDOP V0203201N00051008101CN0050001N1-00201-00401999999ADDGA1075+008101999GF107991999999999999999999MA1101901999999REMMET047EDOP 182220Z 32001KT 5000 BKN027 M02/M04 Q1019;EQDQ01+000000PRSWM1Q02+000000PRSWM2Q03+000000PRSWM3Q04+000000PRSWM4
0183101624999992006011822504+53417+011783FM-15+0052EDOP V0200401N00101008101CN0050001N1-00201-00401999999ADDGA1075+008101999GF107991999999999999999999MA1101901999999REMMET047EDOP 182250Z 04002KT 5000 BKN027 M02/M04 Q1019;EQDQ01+000000PRSWM1Q02+000000PRSWM2Q03+000000PRSWM3Q04+000000PRSWM4
0183101624999992006011907204+53417+011783FM-15+0052EDOP V0202401N00211007801CN0080001N1-00201-00501999999ADDGA1075+007801999GF107991999999999999999999MA1102401999999REMMET047EDOP 190720Z 24004KT 8000 BKN026 M02/M05 Q1024;EQDQ01+000000PRSWM1Q02+000000PRSWM2Q03+000000PRSWM3Q04+000000PRSWM4
0189101624999992006011907504+53417+011783FM-15+0052EDOP V0202401N00211008701CN0080001N1-00201-00501999999ADDGA1075+008701999GF107991999999999999999999MA1102511999999REMMET053METAR EDOP 190750Z 24004KT 8000 BKN029 M02/M05 Q1025;EQDQ01+000000PRSWM1Q02+000000PRSWM2Q03+000000PRSWM3Q04+000000PRSWM4
0183101624999992006011908204+53417+011783FM-15+0052EDOP V0201801N00151009001CN0080001N1-00201-00501999999ADDGA1075+009001999GF107991999999999999999999MA1102401999999REMMET047EDOP 190820Z 18003KT 8000 BKN030 M02/M05 Q1024;EQDQ01+000000PRSWM1Q02+000000PRSWM2Q03+000000PRSWM3Q04+000000PRSWM4
0183101624999992006011908504+53417+011783FM-15+0052EDOP V0202001N00101009301CN0080001N1-00201-00501999999ADDGA1075+009301999GF107991999999999999999999MA1102401999999REMMET047EDOP 190850Z 20002KT 8000 BKN031 M02/M05 Q1024;EQDQ01+000000PRSWM1Q02+000000PRSWM2Q03+000000PRSWM3Q04+000000PRSWM4
0183101624999992006011909204+53417+011783FM-15+0052EDOP V0201801N00311008701CN0080001N1-00201-00501999999ADDGA1075+008701999GF107991999999999999999999MA1102401999999REMMET047EDOP 190920Z 18006KT 8000 BKN029 M02/M05 Q1024;EQDQ01+000000PRSWM1Q02+000000PRSWM2Q03+000000PRSWM3Q04+000000PRSWM4
0183101624999992006011909504+53417+011783FM-15+0052EDOP V0201501N00211008701CN0080001N1-00101-00501999999ADDGA1075+008701999GF107991999999999999999999MA1102511999999REMMET047EDOP 190950Z 15004KT 8000 BKN029 M01/M05 Q1025;EQDQ01+000000PRSWM1Q02+000000PRSWM2Q03+000000PRSWM3Q04+000000PRSWM4
0189101624999992006011910204+53417+011783FM-15+0052EDOP V0201401N00151008701CN0080001N1-00101-00501999999ADDGA1075+008701999GF107991999999999999999999MA1102511999999REMMET053METAR EDOP 191020Z 14003KT 8000 BKN029 M01/M05 Q1025;EQDQ01+000000PRSWM1Q02+000000PRSWM2Q03+000000PRSWM3Q04+000000PRSWM4
0183101624999992006011910504+53417+011783FM-15+0052EDOP V0201401N00211009001CN0080001N1-00101-00501999999ADDGA1075+009001999GF107991999999999999999999MA1102511999999REMMET047EDOP 191050Z 14004KT 8000 BKN030 M01/M05 Q1025;EQDQ01+000000PRSWM1Q02+000000PRSWM2Q03+000000PRSWM3Q04+000000PRSWM4
0183101624999992006011911204+53417+011783FM-15+0052EDOP V0201801N00311009001CN0080001N1-00101-00501999999ADDGA1075+009001999GF107991999999999999999999MA1102511999999REMMET047EDOP 191120Z 18006KT 8000 BKN030 M01/M05 Q1025;EQDQ01+000000PRSWM1Q02+000000PRSWM2Q03+000000PRSWM3Q04+000000PRSWM4
0183101624999992006011911504+53417+011783FM-15+0052EDOP V0201801N00261009301CN0090001N1-00101-00501999999ADDGA1075+009301999GF107991999999999999999999MA1102511999999REMMET047EDOP 191150Z 18005KT 9000 BKN031 M01/M05 Q1025;EQDQ01+000000PRSWM1Q02+000000PRSWM2Q03+000000PRSWM3Q04+000000PRSWM4
0135101624999992006011912204+53417+011783FM-15+0052EDOP V0201501N00361999999CY0099001N1-00101-00501999999ADDMA1102401999999REMMET041EDOP 191220Z 15007KT CAVOK M01/M05 Q1024;EQDQ01+000000PRSWM1Q02+000000PRSWM2Q03+000000PRSWM3Q04+000000PRSWM4
0183101624999992006011913504+53417+011783FM-15+0052EDOP V0201601N00311007801CN0112651N1-00101-00501999999ADDGA1075+007801999GF107991999999999999999999MA1102401999999REMMET047EDOP 191350Z 16006KT 9999 BKN026 M01/M05 Q1024;EQDQ01+000000PRSWM1Q02+000000PRSWM2Q03+000000PRSWM3Q04+000000PRSWM4
0189101624999992006011914204+53417+011783FM-15+0052EDOP V0201501N00261007801CN0090001N1-00101-00501999999ADDGA1075+007801999GF107991999999999999999999MA1102401999999REMMET053METAR EDOP 191420Z 15005KT 9000 BKN026 M01/M05 Q1024;EQDQ01+000000PRSWM1Q02+000000PRSWM2Q03+000000PRSWM3Q04+000000PRSWM4
0183101624999992006011914504+53417+011783FM-15+0052EDOP V0201501N00261007801CN0112651N1-00101-00501999999ADDGA1075+007801999GF107991999999999999999999MA1102401999999REMMET047EDOP 191450Z 15005KT 9999 BKN026 M01/M05 Q1024;EQDQ01+000000PRSWM1Q02+000000PRSWM2Q03+000000PRSWM3Q04+000000PRSWM4
0183101624999992006011915204+53417+011783FM-15+0052EDOP V0201201N00311006601CN0090001N1-00201-00501999999ADDGA1075+006601999GF107991999999999999999999MA1102401999999MW1711REMMET057METAR EDOP 191520Z 12006KT 9000 -SN BKN022 M02/M05 Q1024;EQDQ01+000000PRSWM1Q02+000000PRSWM3Q03+000000PRSWM4
0183101624999992006011915504+53417+011783FM-15+0052EDOP V0201301N00311007801CN0090001N1-00201-00501999999ADDGA1075+007801999GF107991999999999999999999MA1102401999999MW1711REMMET057METAR EDOP 191550Z 13006KT 9000 -SN BKN026 M02/M05 Q1024;EQDQ01+000000PRSWM1Q02+000000PRSWM3Q03+000000PRSWM4
0183101624999992006011916204+53417+011783FM-15+0052EDOP V0201201N00361007801CN0080001N1-00201-00501999999ADDGA1075+007801999GF107991999999999999999999MA1102401999999REMMET047EDOP 191620Z 12007KT 8000 BKN026 M02/M05 Q1024;EQDQ01+000000PRSWM1Q02+000000PRSWM2Q03+000000PRSWM3Q04+000000PRSWM4
0206101624999992006011916504+53417+011783FM-15+0052EDOP V0201301N00311006301CN0080001N1-00201-00501999999ADDGA1025+003601999GA2075+006301999GF107991999999999999999999MA1102401999999REMMET054EDOP 191650Z 13006KT 8000 FEW012 BKN021 M02/M05 Q1024;EQDQ01+000000PRSWM1Q02+000000PRSWM2Q03+000000PRSWM3Q04+000000PRSWM4
0177101624999992006012007204+53417+011783FM-15+0052EDOP V0201201N00411001201CN0023001N1-00201-00301999999ADDGA1085+001201999GF108991999999999999999999MA1101691999999MW1711REMMET051EDOP 200720Z 12008KT 2300 -SN OVC004 M02/M03 Q1017;EQDQ01+000000PRSWM1Q02+000000PRSWM3Q03+000000PRSWM4
0177101624999992006012007504+53417+011783FM-15+0052EDOP V0201401N00361001201CN0023001N1-00201-00201999999ADDGA1085+001201999GF108991999999999999999999MA1101691999999MW1711REMMET051EDOP 200750Z 14007KT 2300 -SN OVC004 M02/M02 Q1017;EQDQ01+000000PRSWM1Q02+000000PRSWM3Q03+000000PRSWM4
0202101624999992006012008204+53417+011783FM-15+0052EDOP V0201301N00311000901CN0023001N1-00101-00201999999ADDGA1075+000901999GA2075+003001999GF107991999999999999999999MA1101591999999MW1561REMMET060EDOP 200820Z 13006KT 2300 -FZDZ BKN003 BKN010 M01/M02 Q1016;EQDQ01+000000PRSWM1Q02+000000PRSWM3Q03+000000PRSWM4
0179101624999992006012008504+53417+011783FM-15+0052EDOP V0201401N00311000901CN0024001N1-00101-00201999999ADDGA1075+000901999GF107991999999999999999999MA1101591999999MW1561REMMET053EDOP 200850Z 14006KT 2400 -FZDZ BKN003 M01/M02 Q1016;EQDQ01+000000PRSWM1Q02+000000PRSWM3Q03+000000PRSWM4
0179101624999992006012009204+53417+011783FM-15+0052EDOP V0201401N00261001201CN0028001N1-00101-00201999999ADDGA1075+001201999GF107991999999999999999999MA1101591999999MW1561REMMET053EDOP 200920Z 14005KT 2800 -FZDZ BKN004 M01/M02 Q1016;EQDQ01+000000PRSWM1Q02+000000PRSWM3Q03+000000PRSWM4
0176101624999992006012009504+53417+011783FM-15+0052EDOP V0201301N00261000901CN0028001N1-00101-00201999999ADDGA1075+000901999GF107991999999999999999999MA1101591999999MW1101REMMET050EDOP 200950Z 13005KT 2800 BR BKN003 M01/M02 Q1016;EQDQ01+000000PRSWM1Q02+000000PRSWM3Q03+000000PRSWM4
0125101624999992006012010204+53417+011783FM-15+0052EDOP V0201401N00361000901CN0019001N1+00001-00101999999ADDGA1075+000901999GF107991999999999999999999MA1101491999999MW1101REMMET050EDOP 201020Z 14007KT 1900 BR BKN003 M00/M01 Q1015;
0146101624999992006012010504+53417+011783FM-15+0052EDOP V0201401N00261000601CN0012001N1+00001-00101999999ADDED124U13009GA1075+000601999GF107991999999999999999999MA1101491999999MW1101REMMET060EDOP 201050Z 14005KT 1200 R24/1300N BR BKN002 M00/M01 Q1015;
0128101624999992006012011204+53417+011783FM-15+0052EDOP V0201501N00311000301CN0016001N1+00001-00101999999ADDGA1075+000301999GF107991999999999999999999MA1101391999999MW1561REMMET053EDOP 201120Z 15006KT 1600 -FZDZ BKN001 M00/M01 Q1014;
0125101624999992006012011504+53417+011783FM-15+0052EDOP V0201401N00311000601CN0024001N1+00001+00001999999ADDGA1075+000601999GF107991999999999999999999MA1101391999999MW1511REMMET050EDOP 201150Z 14006KT 2400 -DZ BKN002 00/M00 Q1014;
0125101624999992006012012204+53417+011783FM-15+0052EDOP V0201401N00311000901CN0030001N1+00001+00001999999ADDGA1075+000901999GF107991999999999999999999MA1101291999999MW1511REMMET050EDOP 201220Z 14006KT 3000 -DZ BKN003 00/M00 Q1013;
0124101624999992006012012504+53417+011783FM-15+0052EDOP V0201501N00311000601CN0025001N1+00101+00001999999ADDGA1075+000601999GF107991999999999999999999MA1101291999999MW1511REMMET049EDOP 201250Z 15006KT 2500 -DZ BKN002 01/00 Q1013;
0124101624999992006012013204+53417+011783FM-15+0052EDOP V0201601N00411000601CN0024001N1+00101+00101999999ADDGA1075+000601999GF107991999999999999999999MA1101191999999MW1511REMMET049EDOP 201320Z 16008KT 2400 -DZ BKN002 01/01 Q1012;
0124101624999992006012013504+53417+011783FM-15+0052EDOP V0201701N00511000601CN0023001N1+00201+00101999999ADDGA1075+000601999GF107991999999999999999999MA1101191999999MW1511REMMET049EDOP 201350Z 17010KT 2300 -DZ BKN002 02/01 Q1012;
0147101624999992006012014504+53417+011783FM-15+0052EDOP V0201701N00411000901CN0017001N1+00201+00201999999ADDGA1075+000901999GA2075+004501999GF107991999999999999999999MA1101081999999MW1511REMMET056EDOP 201450Z 17008KT 1700 -DZ BKN003 BKN015 02/02 Q1011;
0147101624999992006012015204+53417+011783FM-15+0052EDOP V0201701N00511000901CN0023001N1+00301+00201999999ADDGA1075+000901999GA2075+003001999GF107991999999999999999999MA1101021999999MW1511REMMET056EDOP 201520Z 17010KT 2300 -DZ BKN003 BKN010 03/02 Q1010;
0147101624999992006012015504+53417+011783FM-15+0052EDOP V0201701N00571000901CN0024001N1+00201+00201999999ADDGA1075+000901999GA2075+003601999GF107991999999999999999999MA1101021999999MW1511REMMET056EDOP 201550Z 17011KT 2400 -DZ BKN003 BKN012 02/02 Q1010;
0198101624999992006012016204+53417+011783FM-15+0052EDOP V0201701N00621000901CN0024001N1+00301+00201999999ADDGA1075+000901999GA2075+003301999GF107991999999999999999999MA1100911999999MW1511REMMET056EDOP 201620Z 17012KT 2400 -DZ BKN003 BKN011 03/02 Q1009;EQDQ01+000000PRSWM1Q02+000000PRSWM3Q03+000000PRSWM4
0181101624999992006012016504+53417+011783FM-15+0052EDOP V0201701N00461001201CN0024001N1+00301+00201999999ADDGA1075+001201999GF107991999999999999999999MA1100911999999MW1511REMMET055METAR EDOP 201650Z 17009KT 2400 -DZ BKN004 03/02 Q1009;EQDQ01+000000PRSWM1Q02+000000PRSWM3Q03+000000PRSWM4
0174101624999992006012107204+53417+011783FM-15+0052EDOP V0202501N00311001501CN0040001N1+00201+00101999999ADDGA1075+001501999GF107991999999999999999999MA1101021999999MW1101REMMET048EDOP 210720Z 25006KT 4000 BR BKN005 02/01 Q1010;EQDQ01+000000PRSWM1Q02+000000PRSWM3Q03+000000PRSWM4
0180101624999992006012107504+53417+011783FM-15+0052EDOP V0202401N00151001201CN0040001N1+00201+00101999999ADDGA1075+001201999GF107991999999999999999999MA1101021999999MW1101REMMET054METAR EDOP 210750Z 24003KT 4000 BR BKN004 02/01 Q1010;EQDQ01+000000PRSWM1Q02+000000PRSWM3Q03+000000PRSWM4
0174101624999992006012108204+53417+011783FM-15+0052EDOP V0202301N00211000901CN0016001N1+00201+00101999999ADDGA1075+000901999GF107991999999999999999999MA1101021999999MW1101REMMET048EDOP 210820Z 23004KT 1600 BR BKN003 02/01 Q1010;EQDQ01+000000PRSWM1Q02+000000PRSWM3Q03+000000PRSWM4
0206101624999992006012108504+53417+011783FM-15+0052EDOP V0202201N00151000301CN0005001N1+00201+00101999999ADDED124U10009GA1075+000301999GF107991999999999999999999MA1101021999999MW1441REMMET069METAR EDOP 210850Z 22003KT 0500 R24/1000V1400N FG BKN001 02/01 Q1010;EQDQ01+000000PRSWM1Q02+000000PRSWM3Q03+000000PRSWM4
0205101624999992006012109204+53417+011783FM-15+0052EDOP V0202401N00261000151CN0005001N1+00201+00201999999ADDED124U05509GA1091+000151999GF109991999999000251999999MA1101001999999MW1451REMMET068EDOP 210920Z 24005KT 0500 R24/0550V0750N FG VV/// 02/02 02/02 Q1010;EQDQ01+000000PRSWM1Q02+000000PRSWM3Q03+000000PRSWM4
0174101624999992006012109504+53417+011783FM-15+0052EDOP V0202601N00311000301CN0024001N1+00201+00201999999ADDGA1075+000301999GF107991999999999999999999MA1101081999999MW1101REMMET048EDOP 210950Z 26006KT 2400 BR BKN001 02/02 Q1011;EQDQ01+000000PRSWM1Q02+000000PRSWM3Q03+000000PRSWM4
0201101624999992006012110204+53417+011783FM-15+0052EDOP V0202801N00211000301CN0004001N1+00301+00201999999ADDED124U15009GA1075+000301999GF107991999999999999999999MA1101191999999MW1441REMMET064METAR EDOP 211020Z 28004KT 0400 R24/1500N FG BKN001 03/02 Q1012;EQDQ01+000000PRSWM1Q02+000000PRSWM3Q03+000000PRSWM4
0202101624999992006012110504+53417+011783FM-15+0052EDOP V0202801N00211000301CN0003001N1+00301+00201999999ADDED124U06259GA1075+000301999GF107991999999999999999999MA1101191999999REMMET055EDOP 211050Z 28004KT 0300 R24/0625N BKN001 03/02 Q1012;EQDQ01+000000PRSWM1Q02+000000PRSWM2Q03+000000PRSWM3Q04+000000PRSWM4
0206101624999992006012111204+53417+011783FM-15+0052EDOP V0202601N00261000301CN0010001N1+00301+00201999999ADDED124U07509GA1075+000301999GF107991999999999999999999MA1101191999999MW1101REMMET069METAR EDOP 211120Z 26005KT 1000 R24/0750V1100N BR BKN001 03/02 Q1012;EQDQ01+000000PRSWM1Q02+000000PRSWM3Q03+000000PRSWM4
0200101624999992006012111504+53417+011783FM-15+0052EDOP V0202701N00101000301CN0010001N1+00301+00201999999ADDED124U14009GA1075+000301999GF107991999999999999999999MA1101291999999MW1101REMMET063METAR EDOP 211150Z 27002KT 1000 R24/1400 BR BKN001 03/02 Q1013;EQDQ01+000000PRSWM1Q02+000000PRSWM3Q03+000000PRSWM4
