0120101624999992013010204204+53417+011783FM-15+0051EDOP V0202201N006210039019N0112651N1+00401+00401999999ADDGA1071+003901999GF107991999999999999999999MA1100911999999REMMET051METAR EDOP 020420Z 22012KT 9999 BKN013 04/04 Q1009;
0120101624999992013010204504+53417+011783FM-15+0051EDOP V0202301N007210039019N0112651N1+00401+00401999999ADDGA1071+003901999GF107991999999999999999999MA1100911999999REMMET051METAR EDOP 020450Z 23014KT 9999 BKN013 04/04 Q1009;
0120101624999992013010205204+53417+011783FM-15+0051EDOP V0202401N008210039019N0112651N1+00401+00401999999ADDGA1071+003901999GF107991999999999999999999MA1100911999999REMMET051METAR EDOP 020520Z 24016KT 9999 BKN013 04/04 Q1009;
0132101624999992013010205504+53417+011783FM-15+0051EDOP V0202501N007210042019N0112651N1+00401+00401999999ADDGA1071+004201999GF107991999999999999999999MA1101021999999MW1801REMMET057METAR EDOP 020550Z 25014KT 9999 -SHRA BKN014 04/04 Q1010;
0120101624999992013010206204+53417+011783FM-15+0051EDOP V0202501N006210045019N0112651N1+00401+00401999999ADDGA1071+004501999GF107991999999999999999999MA1101021999999REMMET051METAR EDOP 020620Z 25012KT 9999 BKN015 04/04 Q1010;
0120101624999992013010207204+53417+011783FM-15+0051EDOP V0202501N006710042019N0112651N1+00401+00401999999ADDGA1071+004201999GF107991999999999999999999MA1101191999999REMMET051METAR EDOP 020720Z 25013KT 9999 BKN014 04/04 Q1012;
0120101624999992013010207504+53417+011783FM-15+0051EDOP V0202501N005710045019N0112651N1+00301+00301999999ADDGA1071+004501999GF107991999999999999999999MA1101191999999REMMET051METAR EDOP 020750Z 25011KT 9999 BKN015 03/03 Q1012;
0155101624999992013010208204+53417+011783FM-15+0051EDOP V0202501N006710039019N0112651N1+00401+00401999999ADDGA1021+001501999GA2071+003901999GF107991999999999999999999MA1101291999999MW1801REMMET064METAR EDOP 020820Z 25013KT 9999 -SHRA FEW005 BKN013 04/04 Q1013;
0143101624999992013010208504+53417+011783FM-15+0051EDOP V0202501N005712200019N0112651N1+00401+00401999999ADDGA1041+003001999GA2041+009001999GF104991999999999999999999MA1101291999999REMMET058METAR EDOP 020850Z 25011KT 9999 SCT010 SCT030 04/04 Q1013;
0143101624999992013010209204+53417+011783FM-15+0051EDOP V0202501N006212200019N0112651N1+00401+00401999999ADDGA1041+003601999GA2041+012001999GF104991999999999999999999MA1101391999999REMMET058METAR EDOP 020920Z 25012KT 9999 SCT012 SCT040 04/04 Q1014;
0143101624999992013010209504+53417+011783FM-15+0051EDOP V0202601N006212200019N0112651N1+00501+00501999999ADDGA1041+003601999GA2041+012001999GF104991999999999999999999MA1101491999999REMMET058METAR EDOP 020950Z 26012KT 9999 SCT012 SCT040 05/05 Q1015;
0143101624999992013010210204+53417+011783FM-15+0051EDOP V0202501N006212200019N0112651N1+00501+00501999999ADDGA1041+004501999GA2041+009601999GF104991999999999999999999MA1101491999999REMMET058METAR EDOP 021020Z 25012KT 9999 SCT015 SCT032 05/05 Q1015;
0130101624999992013010210504+53417+011783FM-15+0051EDOP V0202601N005110033019N0112651N1+00501+00501999999ADDGA1071+003301999GF107991999999999999999999MA1101491999999MW1611REMMET055METAR EDOP 021050Z 26010KT 9999 -RA BKN011 05/05 Q1015;
0143101624999992013010211204+53417+011783FM-15+0051EDOP V0202701N006710042019N0112651N1+00601+00501999999ADDGA1041+003001999GA2071+004201999GF107991999999999999999999MA1101591999999REMMET058METAR EDOP 021120Z 27013KT 9999 SCT010 BKN014 06/05 Q1016;
0143101624999992013010211504+53417+011783FM-15+0051EDOP V0202601N006212200019N0112651N1+00601+00501999999ADDGA1041+003601999GA2041+006001999GF104991999999999999999999MA1101591999999REMMET058METAR EDOP 021150Z 26012KT 9999 SCT012 SCT020 06/05 Q1016;
0120101624999992013010212204+53417+011783FM-15+0051EDOP V0202601N006212200019N0112651N1+00701+00501999999ADDGA1041+005401999GF104991999999999999999999MA1101591999999REMMET051METAR EDOP 021220Z 26012KT 9999 SCT018 07/05 Q1016;
0120101624999992013010212504+53417+011783FM-15+0051EDOP V0202701N006212200019N0112651N1+00601+00401999999ADDGA1041+006301999GF104991999999999999999999MA1101691999999REMMET051METAR EDOP 021250Z 27012KT 9999 SCT021 06/04 Q1017;
0120101624999992013010213204+53417+011783FM-15+0051EDOP V0202601N006212200019N0112651N1+00601+00401999999ADDGA1041+005101999GF104991999999999999999999MA1101691999999REMMET051METAR EDOP 021320Z 26012KT 9999 SCT017 06/04 Q1017;
0143101624999992013010213504+53417+011783FM-15+0051EDOP V0202601N005712200019N0112651N1+00601+00401999999ADDGA1021+006601999GA2041+012601999GF104991999999999999999999MA1101691999999REMMET058METAR EDOP 021350Z 26011KT 9999 FEW022 SCT042 06/04 Q1017;
0143101624999992013010214204+53417+011783FM-15+0051EDOP V0202601N005712200019N0112651N1+00601+00401999999ADDGA1021+007501999GA2041+013501999GF104991999999999999999999MA1101801999999REMMET058METAR EDOP 021420Z 26011KT 9999 FEW025 SCT045 06/04 Q1018;
0143101624999992013010214504+53417+011783FM-15+0051EDOP V0202501N005712200019N0112651N1+00501+00401999999ADDGA1021+005401999GA2041+012001999GF104991999999999999999999MA1101801999999REMMET058METAR EDOP 021450Z 25011KT 9999 FEW018 SCT040 05/04 Q1018;
0153101624999992013010215204+53417+011783FM-15+0051EDOP V0202501N005710135019N0112651N1+00601+00501999999ADDGA1041+009001999GA2071+013501999GF107991999999999999999999MA1101901999999MW1611REMMET062METAR EDOP 021520Z 25011KT 9999 -RA SCT030 BKN045 06/05 Q1019;
0143101624999992013010215504+53417+011783FM-15+0051EDOP V0202601N004610135019N0112651N1+00601+00501999999ADDGA1041+004501999GA2071+013501999GF107991999999999999999999MA1101901999999REMMET058METAR EDOP 021550Z 26009KT 9999 SCT015 BKN045 06/05 Q1019;
0143101624999992013010216204+53417+011783FM-15+0051EDOP V0202501N005110108019N0112651N1+00601+00501999999ADDGA1041+003601999GA2071+010801999GF107991999999999999999999MA1102001999999REMMET058METAR EDOP 021620Z 25010KT 9999 SCT012 BKN036 06/05 Q1020;
0143101624999992013010216504+53417+011783FM-15+0051EDOP V0202501N005710099019N0112651N1+00501+00401999999ADDGA1041+003901999GA2071+009901999GF107991999999999999999999MA1102001999999REMMET058METAR EDOP 021650Z 25011KT 9999 SCT013 BKN033 05/04 Q1020;
0130101624999992013010304204+53417+011783FM-15+0051EDOP V0202301N009810021019N0060001N1+00601+00601999999ADDGA1071+002101999GF107991999999999999999999MA1101801999999MW1611REMMET055METAR EDOP 030420Z 23019KT 6000 -RA BKN007 06/06 Q1018;
0120101624999992013010304504+53417+011783FM-15+0051EDOP V0202301N009310021019N0070001N1+00601+00601999999ADDGA1071+002101999GF107991999999999999999999MA1101801999999REMMET051METAR EDOP 030450Z 23018KT 7000 BKN007 06/06 Q1018;
0130101624999992013010305204+53417+011783FM-15+0051EDOP V0202401N009310024019N0112651N1+00601+00601999999ADDGA1071+002401999GF107991999999999999999999MA1101691999999MW1511REMMET055METAR EDOP 030520Z 24018KT 9999 -DZ BKN008 06/06 Q1017;
0138101624999992013010305504+53417+011783FM-15+0051EDOP V0202501N007710021019N0070001N1+00601+00601999999ADDGA1071+002101999GF107991999999999999999999MA1101801999999MW1511MW2611REMMET057METAR EDOP 030550Z 25015KT 7000 -RADZ BKN007 06/06 Q1018;
0120101624999992013010306204+53417+011783FM-15+0051EDOP V0202501N009310021019N0070001N1+00701+00701999999ADDGA1071+002101999GF107991999999999999999999MA1101801999999REMMET051METAR EDOP 030620Z 25018KT 7000 BKN007 07/07 Q1018;
0138101624999992013010307504+53417+011783FM-15+0051EDOP V0202601N008210018019N0060001N1+00801+00801999999ADDGA1071+001801999GF107991999999999999999999MA1101801999999MW1511MW2611REMMET057METAR EDOP 030750Z 26016KT 6000 -RADZ BKN006 08/08 Q1018;
0138101624999992013010308204+53417+011783FM-15+0051EDOP V0202601N007710015019N0070001N1+00801+00801999999ADDGA1071+001501999GF107991999999999999999999MA1101801999999MW1511MW2611REMMET057METAR EDOP 030820Z 26015KT 7000 -RADZ BKN005 08/08 Q1018;
0120101624999992013010308504+53417+011783FM-15+0051EDOP V0202601N008210018019N0090001N1+00801+00801999999ADDGA1071+001801999GF107991999999999999999999MA1101801999999REMMET051METAR EDOP 030850Z 26016KT 9000 BKN006 08/08 Q1018;
0138101624999992013010309204+53417+011783FM-15+0051EDOP V0202601N008210018019N0060001N1+00901+00801999999ADDGA1071+001801999GF107991999999999999999999MA1101901999999MW1511MW2611REMMET057METAR EDOP 030920Z 26016KT 6000 -RADZ BKN006 09/08 Q1019;
0137101624999992013010309504+53417+011783FM-15+0051EDOP V0202601N007710012019N0025001N1+00901+00901999999ADDGA1071+001201999GF107991999999999999999999MA1101901999999MW1531MW2631REMMET056METAR EDOP 030950Z 26015KT 2500 RADZ BKN004 09/09 Q1019;
0138101624999992013010310204+53417+011783FM-15+0051EDOP V0202601N008210015019N0060001N1+00901+00901999999ADDGA1071+001501999GF107991999999999999999999MA1101901999999MW1511MW2611REMMET057METAR EDOP 031020Z 26016KT 6000 -RADZ BKN005 09/09 Q1019;
0138101624999992013010310504+53417+011783FM-15+0051EDOP V0202601N008210015019N0040001N1+00901+00901999999ADDGA1071+001501999GF107991999999999999999999MA1101901999999MW1511MW2611REMMET057METAR EDOP 031050Z 26016KT 4000 -DZRA BKN005 09/09 Q1019;
0138101624999992013010311204+53417+011783FM-15+0051EDOP V0202701N006710018019N0045001N1+00901+00901999999ADDGA1071+001801999GF107991999999999999999999MA1101901999999MW1511MW2611REMMET057METAR EDOP 031120Z 27013KT 4500 -DZRA BKN006 09/09 Q1019;
0138101624999992013010311504+53417+011783FM-15+0051EDOP V0202701N006710015019N0038001N1+00901+00901999999ADDGA1071+001501999GF107991999999999999999999MA1101901999999MW1511MW2611REMMET057METAR EDOP 031150Z 27013KT 3800 -DZRA BKN005 09/09 Q1019;
0130101624999992013010312204+53417+011783FM-15+0051EDOP V0202701N006210015019N0042001N1+00901+00901999999ADDGA1071+001501999GF107991999999999999999999MA1101901999999MW1511REMMET055METAR EDOP 031220Z 27012KT 4200 -DZ BKN005 09/09 Q1019;
0147101624999992013010312504+53417+011783FM-15+0051EDOP V0202701N007210015019N0030001N1+00901+00901999999ADDGA1071+001501999GF107991999999999999999999MA1102001999999MW1101MW2511MW3611REMMET060METAR EDOP 031250Z 27014KT 3000 -RADZ BR BKN005 09/09 Q1020;
0120101624999992013010313204+53417+011783FM-15+0051EDOP V0202601N007210015019N0060001N1+00901+00901999999ADDGA1071+001501999GF107991999999999999999999MA1101901999999REMMET051METAR EDOP 031320Z 26014KT 6000 BKN005 09/09 Q1019;
0120101624999992013010313504+53417+011783FM-15+0051EDOP V0202701N007710018019N0080001N1+01001+00901999999ADDGA1071+001801999GF107991999999999999999999MA1102001999999REMMET051METAR EDOP 031350Z 27015KT 8000 BKN006 10/09 Q1020;
0120101624999992013010314204+53417+011783FM-15+0051EDOP V0202701N007210018019N0112651N1+00901+00901999999ADDGA1071+001801999GF107991999999999999999999MA1102001999999REMMET051METAR EDOP 031420Z 27014KT 9999 BKN006 09/09 Q1020;
0120101624999992013010314504+53417+011783FM-15+0051EDOP V0202701N006210030019N0112651N1+00901+00901999999ADDGA1071+003001999GF107991999999999999999999MA1102001999999REMMET051METAR EDOP 031450Z 27012KT 9999 BKN010 09/09 Q1020;
0120101624999992013010315204+53417+011783FM-15+0051EDOP V0202701N007210024019N0112651N1+00901+00901999999ADDGA1071+002401999GF107991999999999999999999MA1102101999999REMMET051METAR EDOP 031520Z 27014KT 9999 BKN008 09/09 Q1021;
0130101624999992013010315504+53417+011783FM-15+0051EDOP V0202801N008210021019N0112651N1+00901+00901999999ADDGA1071+002101999GF107991999999999999999999MA1102101999999MW1611REMMET055METAR EDOP 031550Z 28016KT 9999 -RA BKN007 09/09 Q1021;
0138101624999992013010316204+53417+011783FM-15+0051EDOP V0202801N007210021019N0112651N1+00901+00901999999ADDGA1071+002101999GF107991999999999999999999MA1102201999999MW1611REMMET063METAR EDOP 031620Z 28014KT 240V310 9999 -RA BKN007 09/09 Q1022;
0120101624999992013010316504+53417+011783FM-15+0051EDOP V0202701N007210027019N0112651N1+00901+00901999999ADDGA1071+002701999GF107991999999999999999999MA1102201999999REMMET051METAR EDOP 031650Z 27014KT 9999 BKN009 09/09 Q1022;
0120101624999992013010404204+53417+011783FM-15+0051EDOP V0202601N006212200019N0112651N1+00501+00501999999ADDGA1021+004501999GF102991999999999999999999MA1102611999999REMMET051METAR EDOP 040420Z 26012KT 9999 FEW015 05/05 Q1026;
0072101624999992013010404504+53417+011783FM-15+0051EDOP V0202701N006219999999Y0099001N1+00501+00501999999ADDMA1102611999999REMMET045METAR EDOP 040450Z 27012KT CAVOK 05/05 Q1026;
0072101624999992013010405204+53417+011783FM-15+0051EDOP V0202601N006219999999Y0099001N1+00501+00501999999ADDMA1102611999999REMMET045METAR EDOP 040520Z 26012KT CAVOK 05/05 Q1026;
0120101624999992013010405504+53417+011783FM-15+0051EDOP V0202601N006210033019N0112651N1+00601+00501999999ADDGA1071+003301999GF107991999999999999999999MA1102611999999REMMET051METAR EDOP 040550Z 26012KT 9999 BKN011 06/05 Q1026;
0120101624999992013010406204+53417+011783FM-15+0051EDOP V0202701N005110033019N0112651N1+00601+00601999999ADDGA1071+003301999GF107991999999999999999999MA1102711999999REMMET051METAR EDOP 040620Z 27010KT 9999 BKN011 06/06 Q1027;
0120101624999992013010407204+53417+011783FM-15+0051EDOP V0202801N006710030019N0090001N1+00701+00701999999ADDGA1071+003001999GF107991999999999999999999MA1102611999999REMMET051METAR EDOP 040720Z 28013KT 9000 BKN010 07/07 Q1026;
0120101624999992013010407504+53417+011783FM-15+0051EDOP V0202701N006210033019N0090001N1+00701+00701999999ADDGA1071+003301999GF107991999999999999999999MA1102611999999REMMET051METAR EDOP 040750Z 27012KT 9000 BKN011 07/07 Q1026;
0120101624999992013010408204+53417+011783FM-15+0051EDOP V0202701N005710027019N0090001N1+00801+00701999999ADDGA1071+002701999GF107991999999999999999999MA1102611999999REMMET051METAR EDOP 040820Z 27011KT 9000 BKN009 08/07 Q1026;
0120101624999992013010408504+53417+011783FM-15+0051EDOP V0202701N005110027019N0090001N1+00801+00801999999ADDGA1071+002701999GF107991999999999999999999MA1102611999999REMMET051METAR EDOP 040850Z 27010KT 9000 BKN009 08/08 Q1026;
0120101624999992013010409204+53417+011783FM-15+0051EDOP V0202601N004610030019N0090001N1+00801+00801999999ADDGA1071+003001999GF107991999999999999999999MA1102611999999REMMET051METAR EDOP 040920Z 26009KT 9000 BKN010 08/08 Q1026;
0120101624999992013010409504+53417+011783FM-15+0051EDOP V0202601N004110030019N0080001N1+00801+00801999999ADDGA1071+003001999GF107991999999999999999999MA1102711999999REMMET051METAR EDOP 040950Z 26008KT 8000 BKN010 08/08 Q1027;
0130101624999992013010410014+53417+011783FM-16+0051EDOP V0202501N005110030019N0050001N1+00801+00801999999ADDGA1071+003001999GF107991999999999999999999MA1102611999999MW1611REMMET055SPECI EDOP 041001Z 25010KT 5000 -RA BKN010 08/08 Q1026;
0130101624999992013010410204+53417+011783FM-15+0051EDOP V0202501N005710027019N0050001N1+00801+00801999999ADDGA1071+002701999GF107991999999999999999999MA1102611999999MW1611REMMET055METAR EDOP 041020Z 25011KT 5000 -RA BKN009 08/08 Q1026;
0129101624999992013010410304+53417+011783FM-16+0051EDOP V0202501N005110021019N0020001N1+00801+00801999999ADDGA1071+002101999GF107991999999999999999999MA1102511999999MW1631REMMET054SPECI EDOP 041030Z 25010KT 2000 RA BKN007 08/08 Q1025;
0129101624999992013010410504+53417+011783FM-15+0051EDOP V0202501N005710015019N0020001N1+00801+00801999999ADDGA1071+001501999GF107991999999999999999999MA1102511999999MW1631REMMET054METAR EDOP 041050Z 25011KT 2000 RA BKN005 08/08 Q1025;
0138101624999992013010411204+53417+011783FM-15+0051EDOP V0202501N006710015019N0025001N1+00801+00801999999ADDGA1071+001501999GF107991999999999999999999MA1102401999999MW1101MW2631REMMET057METAR EDOP 041120Z 25013KT 2500 RA BR BKN005 08/08 Q1024;
0144101624999992013010412204+53417+011783FM-15+0051EDOP V0202601N006710012019N0030001N1+00901+00801999999ADDGA1071+001201999GF107991999999999999999999MA1102301999999MW1101MW2611REMMET063METAR EDOP 041220Z 26013KT 3000 -RA BR BKN004 09/08 Q1023 RERA;
0139101624999992013010412504+53417+011783FM-15+0051EDOP V0202701N006710012019N0040001N1+00901+00901999999ADDGA1071+001201999GF107991999999999999999999MA1102301999999MW1101MW2611REMMET058METAR EDOP 041250Z 27013KT 4000 -RA BR BKN004 09/09 Q1023;
0147101624999992013010413204+53417+011783FM-15+0051EDOP V0202801N007210018019N0045001N1+00901+00901999999ADDGA1071+001801999GF107991999999999999999999MA1102301999999MW1101MW2611REMMET066METAR EDOP 041320Z 28014KT 250V310 4500 -RA BR BKN006 09/09 Q1023;
0139101624999992013010413504+53417+011783FM-15+0051EDOP V0202801N008210021019N0040001N1+00901+00901999999ADDGA1071+002101999GF107991999999999999999999MA1102301999999MW1101MW2611REMMET058METAR EDOP 041350Z 28016KT 4000 -RA BR BKN007 09/09 Q1023;
0139101624999992013010414204+53417+011783FM-15+0051EDOP V0202801N006710021019N0025001N1+00901+00901999999ADDGA1071+002101999GF107991999999999999999999MA1102301999999MW1101MW2611REMMET058METAR EDOP 041420Z 28013KT 2500 -RA BR BKN007 09/09 Q1023;
0139101624999992013010414504+53417+011783FM-15+0051EDOP V0202801N006710021019N0032001N1+00901+00901999999ADDGA1071+002101999GF107991999999999999999999MA1102301999999MW1101MW2611REMMET058METAR EDOP 041450Z 28013KT 3200 -RA BR BKN007 09/09 Q1023;
0139101624999992013010415204+53417+011783FM-15+0051EDOP V0202801N007210024019N0045001N1+00901+00901999999ADDGA1071+002401999GF107991999999999999999999MA1102301999999MW1101MW2611REMMET058METAR EDOP 041520Z 28014KT 4500 -RA BR BKN008 09/09 Q1023;
0130101624999992013010415504+53417+011783FM-15+0051EDOP V0202801N006710021019N0060001N1+00901+00901999999ADDGA1071+002101999GF107991999999999999999999MA1102301999999MW1611REMMET055METAR EDOP 041550Z 28013KT 6000 -RA BKN007 09/09 Q1023;
0130101624999992013010416204+53417+011783FM-15+0051EDOP V0202901N006210024019N0070001N1+00901+00901999999ADDGA1071+002401999GF107991999999999999999999MA1102201999999MW1611REMMET055METAR EDOP 041620Z 29012KT 7000 -RA BKN008 09/09 Q1022;
0130101624999992013010416504+53417+011783FM-15+0051EDOP V0202801N006210027019N0080001N1+00901+00901999999ADDGA1071+002701999GF107991999999999999999999MA1102201999999MW1611REMMET055METAR EDOP 041650Z 28012KT 8000 -RA BKN009 09/09 Q1022;
0151101624999992013010507204+53417+011783FM-15+0051EDOP V0203201N003110027019N0112651N1+00801+00701999999ADDGA1071+002701999GA2071+006601999GF107991999999999999999999MA1102611999999REMMET066METAR EDOP 050720Z 32006KT 290V360 9999 BKN009 BKN022 08/07 Q1026;
0151101624999992013010507504+53417+011783FM-15+0051EDOP V0203301N002610027019N0112651N1+00801+00701999999ADDGA1071+002701999GA2071+006001999GF107991999999999999999999MA1102711999999REMMET066METAR EDOP 050750Z 33005KT 300V010 9999 BKN009 BKN020 08/07 Q1027;
0151101624999992013010508204+53417+011783FM-15+0051EDOP V0203501N002610024019N0080001N1+00701+00701999999ADDGA1071+002401999GA2071+006001999GF107991999999999999999999MA1102711999999REMMET066METAR EDOP 050820Z 35005KT 290V010 8000 BKN008 BKN020 07/07 Q1027;
0151101624999992013010508504+53417+011783FM-15+0051EDOP V0203201N002110060019N0112651N1+00701+00701999999ADDGA1041+002701999GA2071+006001999GF107991999999999999999999MA1102711999999REMMET066METAR EDOP 050850Z 32004KT 280V350 9999 SCT009 BKN020 07/07 Q1027;
0151101624999992013010509204+53417+011783FM-15+0051EDOP V0203301N002610060019N0112651N1+00701+00701999999ADDGA1041+003001999GA2071+006001999GF107991999999999999999999MA1102711999999REMMET066METAR EDOP 050920Z 33005KT 300V360 9999 SCT010 BKN020 07/07 Q1027;
0151101624999992013010509504+53417+011783FM-15+0051EDOP V0203101N002110066019N0112651N1+00701+00701999999ADDGA1041+002701999GA2071+006601999GF107991999999999999999999MA1102711999999REMMET066METAR EDOP 050950Z 31004KT 280V340 9999 SCT009 BKN022 07/07 Q1027;
0143101624999992013010510204+53417+011783FM-15+0051EDOP V0203201N002610036019N0112651N1+00701+00701999999ADDGA1041+002101999GA2071+003601999GF107991999999999999999999MA1102811999999REMMET058METAR EDOP 051020Z 32005KT 9999 SCT007 BKN012 07/07 Q1028;
0151101624999992013010510504+53417+011783FM-15+0051EDOP V0203001N002610042019N0112651N1+00701+00701999999ADDGA1041+002701999GA2071+004201999GF107991999999999999999999MA1102811999999REMMET066METAR EDOP 051050Z 30005KT 260V330 9999 SCT009 BKN014 07/07 Q1028;
0151101624999992013010511204+53417+011783FM-15+0051EDOP V0203001N003610045019N0112651N1+00701+00701999999ADDGA1041+003001999GA2071+004501999GF107991999999999999999999MA1102811999999REMMET066METAR EDOP 051120Z 30007KT 270V330 9999 SCT010 BKN015 07/07 Q1028;
0151101624999992013010511504+53417+011783FM-15+0051EDOP V0203001N002610045019N0112651N1+00701+00701999999ADDGA1041+003301999GA2071+004501999GF107991999999999999999999MA1102811999999REMMET066METAR EDOP 051150Z 30005KT 260V330 9999 SCT011 BKN015 07/07 Q1028;
0128101624999992013010512504+53417+011783FM-15+0051EDOP V0203201N002610045019N0112651N1+00701+00601999999ADDGA1071+004501999GF107991999999999999999999MA1102811999999REMMET059METAR EDOP 051250Z 32005KT 290V350 9999 BKN015 07/06 Q1028;
0128101624999992013010513204+53417+011783FM-15+0051EDOP V0203301N002110036019N0112651N1+00701+00601999999ADDGA1071+003601999GF107991999999999999999999MA1102811999999REMMET059METAR EDOP 051320Z 33004KT 290V020 9999 BKN012 07/06 Q1028;
0128101624999992013010513504+53417+011783FM-15+0051EDOP V0203501N002110036019N0112651N1+00701+00701999999ADDGA1071+003601999GF107991999999999999999999MA1102811999999REMMET059METAR EDOP 051350Z 35004KT 310V020 9999 BKN012 07/07 Q1028;
0128101624999992013010514204+53417+011783FM-15+0051EDOP V0203401N002110045019N0112651N1+00701+00701999999ADDGA1071+004501999GF107991999999999999999999MA1102811999999REMMET059METAR EDOP 051420Z 34004KT 310V010 9999 BKN015 07/07 Q1028;
0151101624999992013010514504+53417+011783FM-15+0051EDOP V0203401N002110042019N0112651N1+00701+00701999999ADDGA1021+002701999GA2071+004201999GF107991999999999999999999MA1102811999999REMMET066METAR EDOP 051450Z 34004KT 310V020 9999 FEW009 BKN014 07/07 Q1028;
0128101624999992013010515204+53417+011783FM-15+0051EDOP V0203301N002110045019N0112651N1+00701+00601999999ADDGA1071+004501999GF107991999999999999999999MA1102811999999REMMET059METAR EDOP 051520Z 33004KT 290V360 9999 BKN015 07/06 Q1028;
0120101624999992013010515504+53417+011783FM-15+0051EDOP V0203201N002610045019N0112651N1+00601+00601999999ADDGA1071+004501999GF107991999999999999999999MA1102811999999REMMET051METAR EDOP 051550Z 32005KT 9999 BKN015 06/06 Q1028;
0151101624999992013010516204+53417+011783FM-15+0051EDOP V0203401N002110045019N0112651N1+00601+00601999999ADDGA1041+002101999GA2071+004501999GF107991999999999999999999MA1102811999999REMMET066METAR EDOP 051620Z 34004KT 310V010 9999 SCT007 BKN015 06/06 Q1028;
0120101624999992013010516504+53417+011783FM-15+0051EDOP V0209999V001010030019N0112651N1+00601+00601999999ADDGA1071+003001999GF107991999999999999999999MA1102811999999REMMET051METAR EDOP 051650Z VRB02KT 9999 BKN010 06/06 Q1028;
0138101624999992013010606504+53417+011783FM-15+0051EDOP V0202601N004110012019N0040001N1+00601+00601999999ADDGA1071+001201999GF107991999999999999999999MA1102301999999MW1511MW2611REMMET057METAR EDOP 060650Z 26008KT 4000 -DZRA BKN004 06/06 Q1023;
0138101624999992013010607204+53417+011783FM-15+0051EDOP V0202601N004110012019N0040001N1+00601+00601999999ADDGA1071+001201999GF107991999999999999999999MA1102301999999MW1511MW2611REMMET057METAR EDOP 060720Z 26008KT 4000 -DZRA BKN004 06/06 Q1023;
0147101624999992013010607504+53417+011783FM-15+0051EDOP V0202601N004610009019N0035001N1+00601+00601999999ADDGA1071+000901999GF107991999999999999999999MA1102201999999MW1101MW2511MW3611REMMET060METAR EDOP 060750Z 26009KT 3500 -DZRA BR BKN003 06/06 Q1022;
0129101624999992013010608504+53417+011783FM-15+0051EDOP V0202801N004610012019N0045001N1+00601+00601999999ADDGA1071+001201999GF107991999999999999999999MA1102201999999MW1101REMMET054METAR EDOP 060850Z 28009KT 4500 BR BKN004 06/06 Q1022;
0147101624999992013010609504+53417+011783FM-15+0051EDOP V0203101N004110015019N0045001N1+00701+00601999999ADDGA1071+001501999GF107991999999999999999999MA1102201999999MW1101MW2611REMMET066METAR EDOP 060950Z 31008KT 280V340 4500 -RA BR BKN005 07/06 Q1022;
0147101624999992013010610204+53417+011783FM-15+0051EDOP V0203001N002610015019N0045001N1+00701+00601999999ADDGA1071+001501999GF107991999999999999999999MA1102201999999MW1101MW2611REMMET066METAR EDOP 061020Z 30005KT 260V340 4500 -RA BR BKN005 07/06 Q1022;
0137101624999992013010610504+53417+011783FM-15+0051EDOP V0203001N003610015019N0045001N1+00701+00701999999ADDGA1071+001501999GF107991999999999999999999MA1102201999999MW1101REMMET062METAR EDOP 061050Z 30007KT 270V340 4500 BR BKN005 07/07 Q1022;
0120101624999992013010611204+53417+011783FM-15+0051EDOP V0202901N003110018019N0060001N1+00701+00701999999ADDGA1071+001801999GF107991999999999999999999MA1102101999999REMMET051METAR EDOP 061120Z 29006KT 6000 BKN006 07/07 Q1021;
0128101624999992013010611504+53417+011783FM-15+0051EDOP V0202901N003610015019N0060001N1+00701+00701999999ADDGA1071+001501999GF107991999999999999999999MA1102101999999REMMET059METAR EDOP 061150Z 29007KT 260V320 6000 BKN005 07/07 Q1021;
0128101624999992013010612204+53417+011783FM-15+0051EDOP V0202901N004110018019N0070001N1+00801+00701999999ADDGA1071+001801999GF107991999999999999999999MA1102101999999REMMET059METAR EDOP 061220Z 29008KT 260V320 7000 BKN006 08/07 Q1021;
0120101624999992013010612504+53417+011783FM-15+0051EDOP V0203001N003610021019N0090001N1+00701+00701999999ADDGA1071+002101999GF107991999999999999999999MA1102101999999REMMET051METAR EDOP 061250Z 30007KT 9000 BKN007 07/07 Q1021;
0128101624999992013010613204+53417+011783FM-15+0051EDOP V0202901N003610018019N0112651N1+00701+00701999999ADDGA1071+001801999GF107991999999999999999999MA1102101999999REMMET059METAR EDOP 061320Z 29007KT 260V320 9999 BKN006 07/07 Q1021;
0120101624999992013010613504+53417+011783FM-15+0051EDOP V0203001N003110018019N0112651N1+00701+00701999999ADDGA1071+001801999GF107991999999999999999999MA1102101999999REMMET051METAR EDOP 061350Z 30006KT 9999 BKN006 07/07 Q1021;
0128101624999992013010614204+53417+011783FM-15+0051EDOP V0203001N003610015019N0112651N1+00701+00701999999ADDGA1071+001501999GF107991999999999999999999MA1102101999999REMMET059METAR EDOP 061420Z 30007KT 280V340 9999 BKN005 07/07 Q1021;
0138101624999992013010614504+53417+011783FM-15+0051EDOP V0203101N003610012019N0060001N1+00701+00701999999ADDGA1071+001201999GF107991999999999999999999MA1102101999999MW1511REMMET063METAR EDOP 061450Z 31007KT 280V350 6000 -DZ BKN004 07/07 Q1021;
0147101624999992013010615204+53417+011783FM-15+0051EDOP V0203101N004110012019N0045001N1+00701+00701999999ADDGA1071+001201999GF107991999999999999999999MA1102101999999MW1101MW2511REMMET066METAR EDOP 061520Z 31008KT 280V340 4500 -DZ BR BKN004 07/07 Q1021;
0147101624999992013010615504+53417+011783FM-15+0051EDOP V0203201N004110012019N0038001N1+00701+00701999999ADDGA1071+001201999GF107991999999999999999999MA1102201999999MW1101MW2511REMMET066METAR EDOP 061550Z 32008KT 280V350 3800 -DZ BR BKN004 07/07 Q1022;
0128101624999992013010616204+53417+011783FM-15+0051EDOP V0203201N003610015019N0060001N1+00801+00701999999ADDGA1071+001501999GF107991999999999999999999MA1102201999999REMMET059METAR EDOP 061620Z 32007KT 290V350 6000 BKN005 08/07 Q1022;
0128101624999992013010616504+53417+011783FM-15+0051EDOP V0203201N003612200019N0070001N1+00801+00701999999ADDGA1041+001801999GF104991999999999999999999MA1102201999999REMMET059METAR EDOP 061650Z 32007KT 290V350 7000 SCT006 08/07 Q1022;
0120101624999992013010703504+53417+011783FM-15+0051EDOP V0209999V001010009019N0080001N1+00501+00501999999ADDGA1071+000901999GF107991999999999999999999MA1102611999999REMMET051METAR EDOP 070350Z VRB02KT 8000 BKN003 05/05 Q1026;
0120101624999992013010704204+53417+011783FM-15+0051EDOP V0209999V001010012019N0080001N1+00501+00501999999ADDGA1071+001201999GF107991999999999999999999MA1102611999999REMMET051METAR EDOP 070420Z VRB02KT 8000 BKN004 05/05 Q1026;
0120101624999992013010704504+53417+011783FM-15+0051EDOP V0202901N001510012019N0070001N1+00501+00501999999ADDGA1071+001201999GF107991999999999999999999MA1102611999999REMMET051METAR EDOP 070450Z 29003KT 7000 BKN004 05/05 Q1026;
0120101624999992013010705204+53417+011783FM-15+0051EDOP V0203001N002110009019N0070001N1+00501+00501999999ADDGA1071+000901999GF107991999999999999999999MA1102611999999REMMET051METAR EDOP 070520Z 30004KT 7000 BKN003 05/05 Q1026;
0120101624999992013010705504+53417+011783FM-15+0051EDOP V0203501N001010009019N0070001N1+00501+00501999999ADDGA1071+000901999GF107991999999999999999999MA1102611999999REMMET051METAR EDOP 070550Z 35002KT 7000 BKN003 05/05 Q1026;
0120101624999992013010706504+53417+011783FM-15+0051EDOP V0203001N001510009019N0060001N1+00501+00401999999ADDGA1071+000901999GF107991999999999999999999MA1102611999999REMMET051METAR EDOP 070650Z 30003KT 6000 BKN003 05/04 Q1026;
0129101624999992013010707204+53417+011783FM-15+0051EDOP V0203101N001510012019N0048001N1+00501+00401999999ADDGA1071+001201999GF107991999999999999999999MA1102711999999MW1101REMMET054METAR EDOP 070720Z 31003KT 4800 BR BKN004 05/04 Q1027;
0129101624999992013010707504+53417+011783FM-15+0051EDOP V0202901N001010009019N0025001N1+00501+00401999999ADDGA1071+000901999GF107991999999999999999999MA1102711999999MW1101REMMET054METAR EDOP 070750Z 29002KT 2500 BR BKN003 05/04 Q1027;
0129101624999992013010708204+53417+011783FM-15+0051EDOP V0202801N000510009019N0030001N1+00501+00501999999ADDGA1071+000901999GF107991999999999999999999MA1102711999999MW1101REMMET054METAR EDOP 070820Z 28001KT 3000 BR BKN003 05/05 Q1027;
0129101624999992013010708504+53417+011783FM-15+0051EDOP V0209999V000510012019N0042001N1+00501+00501999999ADDGA1071+001201999GF107991999999999999999999MA1102711999999MW1101REMMET054METAR EDOP 070850Z VRB01KT 4200 BR BKN004 05/05 Q1027;
0129101624999992013010709204+53417+011783FM-15+0051EDOP V0201001N001010012019N0048001N1+00501+00501999999ADDGA1071+001201999GF107991999999999999999999MA1102711999999MW1101REMMET054METAR EDOP 070920Z 10002KT 4800 BR BKN004 05/05 Q1027;
0120101624999992013010709504+53417+011783FM-15+0051EDOP V0209999V001010021019N0060001N1+00501+00501999999ADDGA1071+002101999GF107991999999999999999999MA1102711999999REMMET051METAR EDOP 070950Z VRB02KT 6000 BKN007 05/05 Q1027;
0120101624999992013010710204+53417+011783FM-15+0051EDOP V0202401N001510015019N0070001N1+00501+00501999999ADDGA1071+001501999GF107991999999999999999999MA1102711999999REMMET051METAR EDOP 071020Z 24003KT 7000 BKN005 05/05 Q1027;
0120101624999992013010710504+53417+011783FM-15+0051EDOP V0202401N002110012019N0060001N1+00501+00501999999ADDGA1071+001201999GF107991999999999999999999MA1102711999999REMMET051METAR EDOP 071050Z 24004KT 6000 BKN004 05/05 Q1027;
0129101624999992013010711204+53417+011783FM-15+0051EDOP V0202401N002110012019N0040001N1+00501+00501999999ADDGA1071+001201999GF107991999999999999999999MA1102711999999MW1101REMMET054METAR EDOP 071120Z 24004KT 4000 BR BKN004 05/05 Q1027;
0129101624999992013010711504+53417+011783FM-15+0051EDOP V0202401N001510012019N0030001N1+00501+00501999999ADDGA1071+001201999GF107991999999999999999999MA1102611999999MW1101REMMET054METAR EDOP 071150Z 24003KT 3000 BR BKN004 05/05 Q1026;
0129101624999992013010712204+53417+011783FM-15+0051EDOP V0202201N001510012019N0030001N1+00601+00501999999ADDGA1071+001201999GF107991999999999999999999MA1102611999999MW1101REMMET054METAR EDOP 071220Z 22003KT 3000 BR BKN004 06/05 Q1026;
0129101624999992013010712504+53417+011783FM-15+0051EDOP V0202301N001510015019N0040001N1+00501+00501999999ADDGA1071+001501999GF107991999999999999999999MA1102611999999MW1101REMMET054METAR EDOP 071250Z 23003KT 4000 BR BKN005 05/05 Q1026;
0129101624999992013010713204+53417+011783FM-15+0051EDOP V0202101N001510012019N0025001N1+00601+00501999999ADDGA1071+001201999GF107991999999999999999999MA1102611999999MW1101REMMET054METAR EDOP 071320Z 21003KT 2500 BR BKN004 06/05 Q1026;
0129101624999992013010713504+53417+011783FM-15+0051EDOP V0201801N002110012019N0030001N1+00601+00501999999ADDGA1071+001201999GF107991999999999999999999MA1102611999999MW1101REMMET054METAR EDOP 071350Z 18004KT 3000 BR BKN004 06/05 Q1026;
0129101624999992013010714204+53417+011783FM-15+0051EDOP V0202301N003110012019N0030001N1+00501+00501999999ADDGA1071+001201999GF107991999999999999999999MA1102611999999MW1101REMMET054METAR EDOP 071420Z 23006KT 3000 BR BKN004 05/05 Q1026;
0152101624999992013010714504+53417+011783FM-15+0051EDOP V0202501N002610015019N0035001N1+00501+00501999999ADDGA1071+001501999GA2071+003601999GF107991999999999999999999MA1102611999999MW1101REMMET061METAR EDOP 071450Z 25005KT 3500 BR BKN005 BKN012 05/05 Q1026;
0152101624999992013010715204+53417+011783FM-15+0051EDOP V0202401N002110015019N0045001N1+00501+00501999999ADDGA1071+001501999GA2071+005101999GF107991999999999999999999MA1102611999999MW1101REMMET061METAR EDOP 071520Z 24004KT 4500 BR BKN005 BKN017 05/05 Q1026;
0152101624999992013010715504+53417+011783FM-15+0051EDOP V0202501N002110048019N0045001N1+00501+00501999999ADDGA1041+001801999GA2071+004801999GF107991999999999999999999MA1102611999999MW1101REMMET061METAR EDOP 071550Z 25004KT 4500 BR SCT006 BKN016 05/05 Q1026;
0143101624999992013010716204+53417+011783FM-15+0051EDOP V0202201N001510054019N0060001N1+00501+00501999999ADDGA1021+001801999GA2071+005401999GF107991999999999999999999MA1102611999999REMMET058METAR EDOP 071620Z 22003KT 6000 FEW006 BKN018 05/05 Q1026;
0143101624999992013010716504+53417+011783FM-15+0051EDOP V0202001N001510039019N0060001N1+00501+00501999999ADDGA1041+001801999GA2071+003901999GF107991999999999999999999MA1102611999999REMMET058METAR EDOP 071650Z 20003KT 6000 SCT006 BKN013 05/05 Q1026;
0152101624999992013010717204+53417+011783FM-15+0051EDOP V0202501N001510030019N0045001N1+00501+00501999999ADDGA1021+001801999GA2071+003001999GF107991999999999999999999MA1102611999999MW1101REMMET061METAR EDOP 071720Z 25003KT 4500 BR FEW006 BKN010 05/05 Q1026;
0152101624999992013010717504+53417+011783FM-15+0051EDOP V0202201N001510015019N0040001N1+00501+00501999999ADDGA1071+001501999GA2071+003901999GF107991999999999999999999MA1102611999999MW1101REMMET061METAR EDOP 071750Z 22003KT 4000 BR BKN005 BKN013 05/05 Q1026;
0143101624999992013010718204+53417+011783FM-15+0051EDOP V0202101N002110030019N0060001N1+00501+00501999999ADDGA1021+001801999GA2071+003001999GF107991999999999999999999MA1102611999999REMMET058METAR EDOP 071820Z 21004KT 6000 FEW006 BKN010 05/05 Q1026;
0120101624999992013010718504+53417+011783FM-15+0051EDOP V0202201N002610036019N0070001N1+00501+00501999999ADDGA1071+003601999GF107991999999999999999999MA1102611999999REMMET051METAR EDOP 071850Z 22005KT 7000 BKN012 05/05 Q1026;
0120101624999992013010719204+53417+011783FM-15+0051EDOP V0201801N001510039019N0070001N1+00501+00501999999ADDGA1071+003901999GF107991999999999999999999MA1102611999999REMMET051METAR EDOP 071920Z 18003KT 7000 BKN013 05/05 Q1026;
0143101624999992013010719504+53417+011783FM-15+0051EDOP V0201901N002110030019N0060001N1+00501+00501999999ADDGA1021+001201999GA2071+003001999GF107991999999999999999999MA1102511999999REMMET058METAR EDOP 071950Z 19004KT 6000 FEW004 BKN010 05/05 Q1025;
0120101624999992013010720204+53417+011783FM-15+0051EDOP V0202101N002610018019N0060001N1+00501+00501999999ADDGA1071+001801999GF107991999999999999999999MA1102511999999REMMET051METAR EDOP 072020Z 21005KT 6000 BKN006 05/05 Q1025;
0139101624999992013010803504+53417+011783FM-15+0051EDOP V0202301N002610012019N0025001N1+00601+00601999999ADDGA1071+001201999GF107991999999999999999999MA1102101999999MW1101MW2611REMMET058METAR EDOP 080350Z 23005KT 2500 -RA BR BKN004 06/06 Q1021;
0139101624999992013010804204+53417+011783FM-15+0051EDOP V0202301N003110012019N0025001N1+00601+00601999999ADDGA1071+001201999GF107991999999999999999999MA1102101999999MW1101MW2611REMMET058METAR EDOP 080420Z 23006KT 2500 -RA BR BKN004 06/06 Q1021;
0139101624999992013010804504+53417+011783FM-15+0051EDOP V0202501N003110012019N0028001N1+00601+00601999999ADDGA1071+001201999GF107991999999999999999999MA1102101999999MW1101MW2611REMMET058METAR EDOP 080450Z 25006KT 2800 -RA BR BKN004 06/06 Q1021;
0139101624999992013010805204+53417+011783FM-15+0051EDOP V0202501N003110009019N0025001N1+00601+00601999999ADDGA1071+000901999GF107991999999999999999999MA1102101999999MW1101MW2611REMMET058METAR EDOP 080520Z 25006KT 2500 -RA BR BKN003 06/06 Q1021;
0139101624999992013010805504+53417+011783FM-15+0051EDOP V0202501N003110012019N0028001N1+00601+00601999999ADDGA1071+001201999GF107991999999999999999999MA1102101999999MW1101MW2611REMMET058METAR EDOP 080550Z 25006KT 2800 -RA BR BKN004 06/06 Q1021;
0139101624999992013010806204+53417+011783FM-15+0051EDOP V0202401N003610012019N0028001N1+00601+00601999999ADDGA1071+001201999GF107991999999999999999999MA1102101999999MW1101MW2611REMMET058METAR EDOP 080620Z 24007KT 2800 -RA BR BKN004 06/06 Q1021;
0139101624999992013010807204+53417+011783FM-15+0051EDOP V0202501N004110012019N0022001N1+00601+00601999999ADDGA1071+001201999GF107991999999999999999999MA1102001999999MW1101MW2611REMMET058METAR EDOP 080720Z 25008KT 2200 -RA BR BKN004 06/06 Q1020;
0147101624999992013010807504+53417+011783FM-15+0051EDOP V0202501N004110012019N0022001N1+00601+00601999999ADDGA1071+001201999GF107991999999999999999999MA1102001999999MW1101MW2511MW3611REMMET060METAR EDOP 080750Z 25008KT 2200 -DZRA BR BKN004 06/06 Q1020;
0147101624999992013010808504+53417+011783FM-15+0051EDOP V0202601N005110012019N0030001N1+00701+00601999999ADDGA1071+001201999GF107991999999999999999999MA1102001999999MW1101MW2511MW3611REMMET060METAR EDOP 080850Z 26010KT 3000 -DZRA BR BKN004 07/06 Q1020;
0129101624999992013010809204+53417+011783FM-15+0051EDOP V0202601N005110012019N0035001N1+00701+00601999999ADDGA1071+001201999GF107991999999999999999999MA1102001999999MW1101REMMET054METAR EDOP 080920Z 26010KT 3500 BR BKN004 07/06 Q1020;
0120101624999992013010809504+53417+011783FM-15+0051EDOP V0202601N005110012019N0060001N1+00701+00701999999ADDGA1071+001201999GF107991999999999999999999MA1102101999999REMMET051METAR EDOP 080950Z 26010KT 6000 BKN004 07/07 Q1021;
0130101624999992013010810204+53417+011783FM-15+0051EDOP V0202601N005110012019N0060001N1+00701+00701999999ADDGA1071+001201999GF107991999999999999999999MA1102001999999MW1511REMMET055METAR EDOP 081020Z 26010KT 6000 -DZ BKN004 07/07 Q1020;
0139101624999992013010810504+53417+011783FM-15+0051EDOP V0202601N004610012019N0045001N1+00701+00701999999ADDGA1071+001201999GF107991999999999999999999MA1102001999999MW1101MW2511REMMET058METAR EDOP 081050Z 26009KT 4500 -DZ BR BKN004 07/07 Q1020;
0129101624999992013010811204+53417+011783FM-15+0051EDOP V0202601N005110012019N0040001N1+00701+00701999999ADDGA1071+001201999GF107991999999999999999999MA1102001999999MW1101REMMET054METAR EDOP 081120Z 26010KT 4000 BR BKN004 07/07 Q1020;
0129101624999992013010811504+53417+011783FM-15+0051EDOP V0202601N005110012019N0045001N1+00701+00701999999ADDGA1071+001201999GF107991999999999999999999MA1102001999999MW1101REMMET054METAR EDOP 081150Z 26010KT 4500 BR BKN004 07/07 Q1020;
0120101624999992013010812204+53417+011783FM-15+0051EDOP V0202701N004610015019N0060001N1+00701+00701999999ADDGA1071+001501999GF107991999999999999999999MA1102001999999REMMET051METAR EDOP 081220Z 27009KT 6000 BKN005 07/07 Q1020;
0139101624999992013010812504+53417+011783FM-15+0051EDOP V0202701N004610012019N0035001N1+00701+00701999999ADDGA1071+001201999GF107991999999999999999999MA1102001999999MW1101MW2511REMMET058METAR EDOP 081250Z 27009KT 3500 -DZ BR BKN004 07/07 Q1020;
0129101624999992013010813204+53417+011783FM-15+0051EDOP V0202701N004610012019N0045001N1+00701+00701999999ADDGA1071+001201999GF107991999999999999999999MA1102001999999MW1101REMMET054METAR EDOP 081320Z 27009KT 4500 BR BKN004 07/07 Q1020;
0139101624999992013010813504+53417+011783FM-15+0051EDOP V0202701N004610012019N0028001N1+00701+00701999999ADDGA1071+001201999GF107991999999999999999999MA1102001999999MW1101MW2511REMMET058METAR EDOP 081350Z 27009KT 2800 -DZ BR BKN004 07/07 Q1020;
0129101624999992013010814204+53417+011783FM-15+0051EDOP V0202701N004110012019N0040001N1+00701+00701999999ADDGA1071+001201999GF107991999999999999999999MA1102001999999MW1101REMMET054METAR EDOP 081420Z 27008KT 4000 BR BKN004 07/07 Q1020;
0120101624999992013010814504+53417+011783FM-15+0051EDOP V0202701N003610012019N0060001N1+00701+00701999999ADDGA1071+001201999GF107991999999999999999999MA1102001999999REMMET051METAR EDOP 081450Z 27007KT 6000 BKN004 07/07 Q1020;
0120101624999992013010815204+53417+011783FM-15+0051EDOP V0202801N003110012019N0080001N1+00701+00701999999ADDGA1071+001201999GF107991999999999999999999MA1102001999999REMMET051METAR EDOP 081520Z 28006KT 8000 BKN004 07/07 Q1020;
0120101624999992013010815504+53417+011783FM-15+0051EDOP V0202801N002610012019N0080001N1+00701+00701999999ADDGA1071+001201999GF107991999999999999999999MA1102101999999REMMET051METAR EDOP 081550Z 28005KT 8000 BKN004 07/07 Q1021;
0120101624999992013010816204+53417+011783FM-15+0051EDOP V0202801N002110012019N0112651N1+00701+00701999999ADDGA1071+001201999GF107991999999999999999999MA1102101999999REMMET051METAR EDOP 081620Z 28004KT 9999 BKN004 07/07 Q1021;
0120101624999992013010816504+53417+011783FM-15+0051EDOP V0202801N002110012019N0112651N1+00701+00701999999ADDGA1071+001201999GF107991999999999999999999MA1102101999999REMMET051METAR EDOP 081650Z 28004KT 9999 BKN004 07/07 Q1021;
0139101624999992013010904204+53417+011783FM-15+0051EDOP V0201701N002610006019N0022001N1+00701+00601999999ADDGA1071+000601999GF107991999999999999999999MA1101901999999MW1101MW2511REMMET058METAR EDOP 090420Z 17005KT 2200 -DZ BR BKN002 07/06 Q1019;
0139101624999992013010904504+53417+011783FM-15+0051EDOP V0201801N002610006019N0022001N1+00701+00601999999ADDGA1071+000601999GF107991999999999999999999MA1101901999999MW1101MW2511REMMET058METAR EDOP 090450Z 18005KT 2200 -DZ BR BKN002 07/06 Q1019;
0139101624999992013010905204+53417+011783FM-15+0051EDOP V0201801N002610006019N0030001N1+00701+00701999999ADDGA1071+000601999GF107991999999999999999999MA1101901999999MW1101MW2511REMMET058METAR EDOP 090520Z 18005KT 3000 -DZ BR BKN002 07/07 Q1019;
0139101624999992013010905504+53417+011783FM-15+0051EDOP V0201801N002610006019N0032001N1+00701+00701999999ADDGA1071+000601999GF107991999999999999999999MA1101801999999MW1101MW2511REMMET058METAR EDOP 090550Z 18005KT 3200 -DZ BR BKN002 07/07 Q1018;
0139101624999992013010906204+53417+011783FM-15+0051EDOP V0201801N003110006019N0032001N1+00701+00701999999ADDGA1071+000601999GF107991999999999999999999MA1101801999999MW1101MW2511REMMET058METAR EDOP 090620Z 18006KT 3200 -DZ BR BKN002 07/07 Q1018;
0147101624999992013010906504+53417+011783FM-15+0051EDOP V0202001N002610009019N0045001N1+00701+00701999999ADDGA1071+000901999GF107991999999999999999999MA1101801999999MW1101MW2511MW3611REMMET060METAR EDOP 090650Z 20005KT 4500 -RADZ BR BKN003 07/07 Q1018;
0139101624999992013010907504+53417+011783FM-15+0051EDOP V0202101N003110012019N0045001N1+00701+00701999999ADDGA1071+001201999GF107991999999999999999999MA1101691999999MW1101MW2611REMMET058METAR EDOP 090750Z 21006KT 4500 -RA BR BKN004 07/07 Q1017;
0139101624999992013010908204+53417+011783FM-15+0051EDOP V0202101N003610012019N0045001N1+00701+00701999999ADDGA1071+001201999GF107991999999999999999999MA1101691999999MW1101MW2611REMMET058METAR EDOP 090820Z 21007KT 4500 -RA BR BKN004 07/07 Q1017;
0139101624999992013010908504+53417+011783FM-15+0051EDOP V0202201N004110012019N0048001N1+00701+00701999999ADDGA1071+001201999GF107991999999999999999999MA1101691999999MW1101MW2611REMMET058METAR EDOP 090850Z 22008KT 4800 -RA BR BKN004 07/07 Q1017;
0130101624999992013010909204+53417+011783FM-15+0051EDOP V0202201N004110012019N0060001N1+00701+00701999999ADDGA1071+001201999GF107991999999999999999999MA1101691999999MW1611REMMET055METAR EDOP 090920Z 22008KT 6000 -RA BKN004 07/07 Q1017;
0130101624999992013010909504+53417+011783FM-15+0051EDOP V0202101N004110015019N0060001N1+00701+00701999999ADDGA1071+001501999GF107991999999999999999999MA1101591999999MW1611REMMET055METAR EDOP 090950Z 21008KT 6000 -RA BKN005 07/07 Q1016;
0130101624999992013010910204+53417+011783FM-15+0051EDOP V0202201N004610012019N0070001N1+00701+00701999999ADDGA1071+001201999GF107991999999999999999999MA1101591999999MW1611REMMET055METAR EDOP 091020Z 22009KT 7000 -RA BKN004 07/07 Q1016;
0130101624999992013010910504+53417+011783FM-15+0051EDOP V0202201N004610015019N0060001N1+00701+00701999999ADDGA1071+001501999GF107991999999999999999999MA1101591999999MW1611REMMET055METAR EDOP 091050Z 22009KT 6000 -RA BKN005 07/07 Q1016;
0130101624999992013010911204+53417+011783FM-15+0051EDOP V0202201N005110018019N0060001N1+00701+00701999999ADDGA1071+001801999GF107991999999999999999999MA1101491999999MW1611REMMET055METAR EDOP 091120Z 22010KT 6000 -RA BKN006 07/07 Q1015;
0139101624999992013010911504+53417+011783FM-15+0051EDOP V0202301N005110015019N0045001N1+00701+00701999999ADDGA1071+001501999GF107991999999999999999999MA1101391999999MW1101MW2611REMMET058METAR EDOP 091150Z 23010KT 4500 -RA BR BKN005 07/07 Q1014;
0139101624999992013010912204+53417+011783FM-15+0051EDOP V0202301N005710018019N0045001N1+00701+00701999999ADDGA1071+001801999GF107991999999999999999999MA1101391999999MW1101MW2611REMMET058METAR EDOP 091220Z 23011KT 4500 -RA BR BKN006 07/07 Q1014;
0139101624999992013010912504+53417+011783FM-15+0051EDOP V0202401N005110015019N0040001N1+00701+00701999999ADDGA1071+001501999GF107991999999999999999999MA1101291999999MW1101MW2611REMMET058METAR EDOP 091250Z 24010KT 4000 -RA BR BKN005 07/07 Q1013;
0139101624999992013010913204+53417+011783FM-15+0051EDOP V0202301N006710018019N0035001N1+00701+00601999999ADDGA1071+001801999GF107991999999999999999999MA1101291999999MW1101MW2611REMMET058METAR EDOP 091320Z 23013KT 3500 -RA BR BKN006 07/06 Q1013;
0139101624999992013010913504+53417+011783FM-15+0051EDOP V0202301N005710015019N0040001N1+00601+00601999999ADDGA1071+001501999GF107991999999999999999999MA1101291999999MW1101MW2611REMMET058METAR EDOP 091350Z 23011KT 4000 -RA BR BKN005 06/06 Q1013;
0139101624999992013010914204+53417+011783FM-15+0051EDOP V0202401N005710018019N0045001N1+00601+00601999999ADDGA1071+001801999GF107991999999999999999999MA1101191999999MW1101MW2611REMMET058METAR EDOP 091420Z 24011KT 4500 -RA BR BKN006 06/06 Q1012;
0139101624999992013010914504+53417+011783FM-15+0051EDOP V0202401N005710018019N0045001N1+00601+00601999999ADDGA1071+001801999GF107991999999999999999999MA1101191999999MW1101MW2611REMMET058METAR EDOP 091450Z 24011KT 4500 -RA BR BKN006 06/06 Q1012;
0139101624999992013010915204+53417+011783FM-15+0051EDOP V0202301N005710018019N0040001N1+00601+00601999999ADDGA1071+001801999GF107991999999999999999999MA1101191999999MW1101MW2611REMMET058METAR EDOP 091520Z 23011KT 4000 -RA BR BKN006 06/06 Q1012;
0139101624999992013010915504+53417+011783FM-15+0051EDOP V0202401N005710015019N0045001N1+00601+00601999999ADDGA1071+001501999GF107991999999999999999999MA1101081999999MW1101MW2611REMMET058METAR EDOP 091550Z 24011KT 4500 -RA BR BKN005 06/06 Q1011;
0130101624999992013010916204+53417+011783FM-15+0051EDOP V0202501N006210015019N0080001N1+00601+00601999999ADDGA1071+001501999GF107991999999999999999999MA1101081999999MW1611REMMET055METAR EDOP 091620Z 25012KT 8000 -RA BKN005 06/06 Q1011;
0130101624999992013010916504+53417+011783FM-15+0051EDOP V0202601N006210015019N0112651N1+00601+00601999999ADDGA1071+001501999GF107991999999999999999999MA1101081999999MW1511REMMET055METAR EDOP 091650Z 26012KT 9999 -DZ BKN005 06/06 Q1011;
0120101624999992013011004204+53417+011783FM-15+0051EDOP V0202701N006710036019N0112651N1+00401+00401999999ADDGA1071+003601999GF107991999999999999999999MA1100711999999REMMET051METAR EDOP 100420Z 27013KT 9999 BKN012 04/04 Q1007;
0120101624999992013011004504+53417+011783FM-15+0051EDOP V0202701N007210036019N0112651N1+00401+00401999999ADDGA1071+003601999GF107991999999999999999999MA1100711999999REMMET051METAR EDOP 100450Z 27014KT 9999 BKN012 04/04 Q1007;
0132101624999992013011005204+53417+011783FM-15+0051EDOP V0202701N006210027019N0112651N1+00401+00401999999ADDGA1071+002701999GF107991999999999999999999MA1100611999999MW1801REMMET057METAR EDOP 100520Z 27012KT 9999 -SHRA BKN009 04/04 Q1006;
0120101624999992013011005504+53417+011783FM-15+0051EDOP V0202701N006210027019N0112651N1+00401+00401999999ADDGA1071+002701999GF107991999999999999999999MA1100611999999REMMET051METAR EDOP 100550Z 27012KT 9999 BKN009 04/04 Q1006;
0132101624999992013011006204+53417+011783FM-15+0051EDOP V0202701N006210024019N0080001N1+00401+00401999999ADDGA1071+002401999GF107991999999999999999999MA1100611999999MW1801REMMET057METAR EDOP 100620Z 27012KT 8000 -SHRA BKN008 04/04 Q1006;
0132101624999992013011006504+53417+011783FM-15+0051EDOP V0202701N006210024019N0090001N1+00501+00401999999ADDGA1071+002401999GF107991999999999999999999MA1100611999999MW1801REMMET057METAR EDOP 100650Z 27012KT 9000 -SHRA BKN008 05/04 Q1006;
0138101624999992013011007204+53417+011783FM-15+0051EDOP V0202701N006710021019N0080001N1+00401+00401999999ADDGA1071+002101999GF107991999999999999999999MA1100611999999MW1511MW2611REMMET057METAR EDOP 100720Z 27013KT 8000 -DZRA BKN007 04/04 Q1006;
0138101624999992013011007504+53417+011783FM-15+0051EDOP V0202801N005110018019N0060001N1+00501+00401999999ADDGA1071+001801999GF107991999999999999999999MA1100611999999MW1511MW2611REMMET057METAR EDOP 100750Z 28010KT 6000 -RADZ BKN006 05/04 Q1006;
0138101624999992013011008204+53417+011783FM-15+0051EDOP V0203201N005110024019N0060001N1+00301+00201999999ADDGA1071+002401999GF107991999999999999999999MA1100611999999MW1511REMMET063METAR EDOP 100820Z 32010KT 290V350 6000 -DZ BKN008 03/02 Q1006;
0128101624999992013011008504+53417+011783FM-15+0051EDOP V0203201N003610018019N0080001N1+00201+00201999999ADDGA1071+001801999GF107991999999999999999999MA1100611999999REMMET059METAR EDOP 100850Z 32007KT 290V350 8000 BKN006 02/02 Q1006;
0128101624999992013011009204+53417+011783FM-15+0051EDOP V0203101N003610021019N0112651N1+00201+00201999999ADDGA1071+002101999GF107991999999999999999999MA1100611999999REMMET059METAR EDOP 100920Z 31007KT 280V340 9999 BKN007 02/02 Q1006;
0128101624999992013011009504+53417+011783FM-15+0051EDOP V0203301N004610030019N0112651N1+00301+00201999999ADDGA1071+003001999GF107991999999999999999999MA1100611999999REMMET059METAR EDOP 100950Z 33009KT 290V350 9999 BKN010 03/02 Q1006;
0120101624999992013011010204+53417+011783FM-15+0051EDOP V0203201N005710033019N0112651N1+00301+00201999999ADDGA1071+003301999GF107991999999999999999999MA1100611999999REMMET051METAR EDOP 101020Z 32011KT 9999 BKN011 03/02 Q1006;
0128101624999992013011010504+53417+011783FM-15+0051EDOP V0203301N005110036019N0112651N1+00301+00201999999ADDGA1071+003601999GF107991999999999999999999MA1100611999999REMMET059METAR EDOP 101050Z 33010KT 280V010 9999 BKN012 03/02 Q1006;
0128101624999992013011011204+53417+011783FM-15+0051EDOP V0203401N004610036019N0112651N1+00201+00101999999ADDGA1071+003601999GF107991999999999999999999MA1100611999999REMMET059METAR EDOP 101120Z 34009KT 290V030 9999 BKN012 02/01 Q1006;
0128101624999992013011011504+53417+011783FM-15+0051EDOP V0203401N004610042019N0112651N1+00201+00101999999ADDGA1071+004201999GF107991999999999999999999MA1100611999999REMMET059METAR EDOP 101150Z 34009KT 310V010 9999 BKN014 02/01 Q1006;
0169101624999992013011012204+53417+011783FM-15+0051EDOP V0203401N005110024019N0070001N1+00201+00101999999ADDGA1071+002401999GA2071+009001999GF107991999999999999999999MA1100611999999MW1611MW2711REMMET072METAR EDOP 101220Z 34010KT 300V010 7000 -SNRA BKN008 BKN030 02/01 Q1006;
0151101624999992013011012504+53417+011783FM-15+0051EDOP V0203401N004610030019N0080001N1+00101+00101999999ADDGA1071+003001999GA2071+007501999GF107991999999999999999999MA1100611999999REMMET066METAR EDOP 101250Z 34009KT 310V010 8000 BKN010 BKN025 01/01 Q1006;
0151101624999992013011013204+53417+011783FM-15+0051EDOP V0203301N004610030019N0080001N1+00101+00001999999ADDGA1071+003001999GA2071+006301999GF107991999999999999999999MA1100611999999REMMET066METAR EDOP 101320Z 33009KT 300V360 8000 BKN010 BKN021 01/00 Q1006;
0174101624999992013011013504+53417+011783FM-15+0051EDOP V0203301N005710030019N0112651N1+00101+00001999999ADDGA1021+001801999GA2071+003001999GA3071+006901999GF107991999999999999999999MA1100711999999REMMET073METAR EDOP 101350Z 33011KT 300V360 9999 FEW006 BKN010 BKN023 01/00 Q1007;
0138101624999992013011014204+53417+011783FM-15+0051EDOP V0203401N004110018019N0060001N1+00001+00001999999ADDGA1071+001801999GF107991999999999999999999MA1100711999999MW1711REMMET063METAR EDOP 101420Z 34008KT 300V010 6000 -SN BKN006 00/00 Q1007;
0153101624999992013011014504+53417+011783FM-15+0051EDOP V0203501N003610075019N0112651N1+00001+00001999999ADDGA1041+001201999GA2071+007501999GF107991999999999999999999MA1100711999999REMMET068METAR EDOP 101450Z 35007KT 310V030 9999 SCT004 BKN025 M00/M00 Q1007;
0144101624999992013011015204+53417+011783FM-15+0051EDOP V0203401N003110105019N0112651N1+00001-00101999999ADDGA1041+007501999GA2071+010501999GF107991999999999999999999MA1100711999999REMMET059METAR EDOP 101520Z 34006KT 9999 SCT025 BKN035 00/M01 Q1007;
0152101624999992013011015504+53417+011783FM-15+0051EDOP V0203401N003110105019N0112651N1+00001-00101999999ADDGA1021+004501999GA2071+010501999GF107991999999999999999999MA1100711999999REMMET067METAR EDOP 101550Z 34006KT 310V020 9999 FEW015 BKN035 00/M01 Q1007;
0129101624999992013011016204+53417+011783FM-15+0051EDOP V0203501N003610099019N0112651N1+00001-00201999999ADDGA1071+009901999GF107991999999999999999999MA1100711999999REMMET060METAR EDOP 101620Z 35007KT 320V020 9999 BKN033 00/M02 Q1007;
0121101624999992013011016504+53417+011783FM-15+0051EDOP V0203501N004110090019N0112651N1+00001-00401999999ADDGA1071+009001999GF107991999999999999999999MA1100811999999REMMET052METAR EDOP 101650Z 35008KT 9999 BKN030 00/M04 Q1008;
0082101624999992013011104204+53417+011783FM-15+0051EDOP V0203201N002619999999Y0099001N1-00201-00501999999ADDMA1101021999999REMMET055METAR EDOP 110420Z 32005KT 290V350 CAVOK M02/M05 Q1010;
0074101624999992013011104504+53417+011783FM-15+0051EDOP V0203201N002619999999Y0099001N1-00201-00501999999ADDMA1101081999999REMMET047METAR EDOP 110450Z 32005KT CAVOK M02/M05 Q1011;
0074101624999992013011105204+53417+011783FM-15+0051EDOP V0203001N001519999999Y0099001N1-00301-00501999999ADDMA1101081999999REMMET047METAR EDOP 110520Z 30003KT CAVOK M03/M05 Q1011;
0130101624999992013011105504+53417+011783FM-15+0051EDOP V0203101N002110138019N0112651N1-00201-00401999999ADDGA1071+013801999GF107991999999999999999999MA1101081999999REMMET061METAR EDOP 110550Z 31004KT 280V340 9999 BKN046 M02/M04 Q1011;
0122101624999992013011106204+53417+011783FM-15+0051EDOP V0203001N002610120019N0112651N1-00201-00401999999ADDGA1071+012001999GF107991999999999999999999MA1101081999999REMMET053METAR EDOP 110620Z 30005KT 9999 BKN040 M02/M04 Q1011;
0130101624999992013011106504+53417+011783FM-15+0051EDOP V0203101N002112200019N0112651N1-00301-00601999999ADDGA1041+014401999GF104991999999999999999999MA1101191999999REMMET061METAR EDOP 110650Z 31004KT 270V330 9999 SCT048 M03/M06 Q1012;
0122101624999992013011107504+53417+011783FM-15+0051EDOP V0203201N002612200019N0112651N1-00101-00601999999ADDGA1041+012601999GF104991999999999999999999MA1101191999999REMMET053METAR EDOP 110750Z 32005KT 9999 SCT042 M01/M06 Q1012;
0074101624999992013011108204+53417+011783FM-15+0051EDOP V0203001N002619999999Y0099001N1-00101-00601999999ADDMA1101191999999REMMET047METAR EDOP 110820Z 30005KT CAVOK M01/M06 Q1012;
0082101624999992013011108504+53417+011783FM-15+0051EDOP V0203101N002119999999Y0099001N1+00001-00601999999ADDMA1101291999999REMMET055METAR EDOP 110850Z 31004KT 280V340 CAVOK M00/M06 Q1013;
0081101624999992013011109204+53417+011783FM-15+0051EDOP V0203101N002619999999Y0099001N1+00001-00601999999ADDMA1101291999999REMMET054METAR EDOP 110920Z 31005KT 280V340 CAVOK 00/M06 Q1013;
0163101624999992013011109504+53417+011783FM-15+0051EDOP V0203101N004110138019N0080001N1+00001-00501999999ADDGA1041+007501999GA2071+013801999GF107991999999999999999999MA1101291999999MW1711REMMET072METAR EDOP 110950Z 31008KT 280V350 8000 -SN SCT025 BKN046 M00/M05 Q1013;
0162101624999992013011110204+53417+011783FM-15+0051EDOP V0203401N002610048019N0020001N1-00101-00301999999ADDGA1021+001201999GA2071+004801999GF107991999999999999999999MA1101291999999MW1731REMMET071METAR EDOP 111020Z 34005KT 280V010 2000 SN FEW004 BKN016 M01/M03 Q1013;
0168101624999992013011110504+53417+011783FM-15+0051EDOP V0203001N002110036019N0022001N1-00101-00101999999ADDGA1041+001801999GA2071+003601999GF107991999999999999999999MA1101291999999MW1711REMMET077METAR EDOP 111050Z 30004KT 280V350 2200 -SN SCT006 BKN012 M01/M01 Q1013 RESN;
0163101624999992013011111204+53417+011783FM-15+0051EDOP V0202801N003110090019N0045001N1-00101-00101999999ADDGA1021+001801999GA2071+009001999GF107991999999999999999999MA1101291999999MW1711REMMET072METAR EDOP 111120Z 28006KT 250V320 4500 -SN FEW006 BKN030 M01/M01 Q1013;
0163101624999992013011111504+53417+011783FM-15+0051EDOP V0202901N003110144019N0045001N1-00101-00101999999ADDGA1021+004801999GA2071+014401999GF107991999999999999999999MA1101291999999MW1711REMMET072METAR EDOP 111150Z 29006KT 260V320 4500 -SN FEW016 BKN048 M01/M01 Q1013;
0153101624999992013011112204+53417+011783FM-15+0051EDOP V0203001N003610150019N0112651N1-00101-00101999999ADDGA1021+001801999GA2071+015001999GF107991999999999999999999MA1101291999999REMMET068METAR EDOP 111220Z 30007KT 270V330 9999 FEW006 BKN052 M01/M01 Q1013;
0130101624999992013011112504+53417+011783FM-15+0051EDOP V0202801N003612200019N0112651N1+00001-00201999999ADDGA1041+007201999GF104991999999999999999999MA1101291999999REMMET061METAR EDOP 111250Z 28007KT 250V320 9999 SCT024 M00/M02 Q1013;
0122101624999992013011113204+53417+011783FM-15+0051EDOP V0202901N003110054019N0112651N1+00001-00201999999ADDGA1071+005401999GF107991999999999999999999MA1101391999999REMMET053METAR EDOP 111320Z 29006KT 9999 BKN018 M00/M02 Q1014;
0131101624999992013011113504+53417+011783FM-15+0051EDOP V0203101N003610054019N0112651N1+00001-00201999999ADDGA1071+005401999GF107991999999999999999999MA1101391999999MW1711REMMET056METAR EDOP 111350Z 31007KT 9999 -SN BKN018 00/M02 Q1014;
0132101624999992013011114204+53417+011783FM-15+0051EDOP V0203101N003610039019N0040001N1+00001-00201999999ADDGA1071+003901999GF107991999999999999999999MA1101391999999MW1711REMMET057METAR EDOP 111420Z 31007KT 4000 -SN BKN013 M00/M02 Q1014;
0131101624999992013011114274+53417+011783FM-16+0051EDOP V0203001N003610018019N0015001N1-00101-00101999999ADDGA1071+001801999GF107991999999999999999999MA1101391999999MW1731REMMET056SPECI EDOP 111427Z 30007KT 1500 SN BKN006 M01/M01 Q1014;
0163101624999992013011114374+53417+011783FM-16+0051EDOP V0203001N003110036019N0070001N1-00101-00101999999ADDGA1041+001801999GA2071+003601999GF107991999999999999999999MA1101391999999MW1711REMMET072SPECI EDOP 111437Z 30006KT 260V330 7000 -SN SCT006 BKN012 M01/M01 Q1014;
0145101624999992013011114504+53417+011783FM-15+0051EDOP V0203001N003610036019N0112651N1-00101-00101999999ADDGA1041+001801999GA2071+003601999GF107991999999999999999999MA1101391999999REMMET060METAR EDOP 111450Z 30007KT 9999 SCT006 BKN012 M01/M01 Q1014;
0145101624999992013011115204+53417+011783FM-15+0051EDOP V0202901N002610126019N0112651N1-00201-00201999999ADDGA1041+002401999GA2071+012601999GF107991999999999999999999MA1101391999999REMMET060METAR EDOP 111520Z 29005KT 9999 SCT008 BKN042 M02/M02 Q1014;
0145101624999992013011115504+53417+011783FM-15+0051EDOP V0202701N003110036019N0112651N1-00101-00201999999ADDGA1071+003601999GA2071+009001999GF107991999999999999999999MA1101491999999REMMET060METAR EDOP 111550Z 27006KT 9999 BKN012 BKN030 M01/M02 Q1015;
0122101624999992013011116204+53417+011783FM-15+0051EDOP V0202801N003110036019N0112651N1-00101-00101999999ADDGA1071+003601999GF107991999999999999999999MA1101491999999REMMET053METAR EDOP 111620Z 28006KT 9999 BKN012 M01/M01 Q1015;
0122101624999992013011116504+53417+011783FM-15+0051EDOP V0203001N003110036019N0112651N1-00201-00201999999ADDGA1071+003601999GF107991999999999999999999MA1101491999999REMMET053METAR EDOP 111650Z 30006KT 9999 BKN012 M02/M02 Q1015;
0122101624999992013011207204+53417+011783FM-15+0051EDOP V0202401N001510081019N0112651N1-00501-00501999999ADDGA1071+008101999GF107991999999999999999999MA1101801999999REMMET053METAR EDOP 120720Z 24003KT 9999 BKN027 M05/M05 Q1018;
0145101624999992013011207504+53417+011783FM-15+0051EDOP V0202501N001010090019N0112651N1-00501-00601999999ADDGA1041+005701999GA2071+009001999GF107991999999999999999999MA1101801999999REMMET060METAR EDOP 120750Z 25002KT 9999 SCT019 BKN030 M05/M06 Q1018;
0145101624999992013011208204+53417+011783FM-15+0051EDOP V0202501N001510120019N0112651N1-00501-00501999999ADDGA1041+004201999GA2071+012001999GF107991999999999999999999MA1101801999999REMMET060METAR EDOP 120820Z 25003KT 9999 SCT014 BKN040 M05/M05 Q1018;
0132101624999992013011208504+53417+011783FM-15+0051EDOP V0202601N001510054019N0070001N1-00401-00401999999ADDGA1071+005401999GF107991999999999999999999MA1101801999999MW1711REMMET057METAR EDOP 120850Z 26003KT 7000 -SN BKN018 M04/M04 Q1018;
0132101624999992013011209504+53417+011783FM-15+0051EDOP V0202601N001510090019N0070001N1-00301-00401999999ADDGA1071+009001999GF107991999999999999999999MA1101801999999MW1711REMMET057METAR EDOP 120950Z 26003KT 7000 -SN BKN030 M03/M04 Q1018;
0155101624999992013011210204+53417+011783FM-15+0051EDOP V0209999V000510180019N0080001N1-00301-00301999999ADDGA1021+009001999GA2071+018001999GF107991999999999999999999MA1101801999999MW1711REMMET064METAR EDOP 121020Z VRB01KT 8000 -SN FEW030 BKN060 M03/M03 Q1018;
0157101624999992013011210504+53417+011783FM-15+0051EDOP V0203401N001512200019N0112651N1-00201-00201999999ADDGA1041+009001999GA2041+018001999GF104991999999999999999999MA1101801999999MW1851REMMET066METAR EDOP 121050Z 34003KT 9999 -SHSN SCT030 SCT060 M02/M02 Q1018;
0157101624999992013011211204+53417+011783FM-15+0051EDOP V0209999V001010180019N0090001N1-00201-00201999999ADDGA1041+003001999GA2071+018001999GF107991999999999999999999MA1101801999999MW1851REMMET066METAR EDOP 121120Z VRB02KT 9000 -SHSN SCT010 BKN060 M02/M02 Q1018;
0134101624999992013011211504+53417+011783FM-15+0051EDOP V0209999V001510030019N0090001N1-00201-00201999999ADDGA1071+003001999GF107991999999999999999999MA1101801999999MW1851REMMET059METAR EDOP 121150Z VRB03KT 9000 -SHSN BKN010 M02/M02 Q1018;
0134101624999992013011212204+53417+011783FM-15+0051EDOP V0209999V001510030019N0090001N1-00101-00201999999ADDGA1071+003001999GF107991999999999999999999MA1101801999999MW1851REMMET059METAR EDOP 121220Z VRB03KT 9000 -SHSN BKN010 M01/M02 Q1018;
0145101624999992013011212504+53417+011783FM-15+0051EDOP V0203301N001512200019N0080001N1-00101-00101999999ADDGA1041+003001999GA2041+018001999GF104991999999999999999999MA1101801999999REMMET060METAR EDOP 121250Z 33003KT 8000 SCT010 SCT060 M01/M01 Q1018;
0145101624999992013011213204+53417+011783FM-15+0051EDOP V0203201N002112200019N0080001N1-00101-00101999999ADDGA1041+003001999GA2041+018001999GF104991999999999999999999MA1101801999999REMMET060METAR EDOP 121320Z 32004KT 8000 SCT010 SCT060 M01/M01 Q1018;
0145101624999992013011213504+53417+011783FM-15+0051EDOP V0203201N001512200019N0090001N1-00101-00101999999ADDGA1041+002101999GA2041+015001999GF104991999999999999999999MA1101901999999REMMET060METAR EDOP 121350Z 32003KT 9000 SCT007 SCT057 M01/M01 Q1019;
0145101624999992013011214204+53417+011783FM-15+0051EDOP V0209999V001512200019N0090001N1-00101-00101999999ADDGA1041+003001999GA2041+018001999GF104991999999999999999999MA1101901999999REMMET060METAR EDOP 121420Z VRB03KT 9000 SCT010 SCT060 M01/M01 Q1019;
0145101624999992013011214504+53417+011783FM-15+0051EDOP V0203201N001010180019N0090001N1-00101-00101999999ADDGA1041+006001999GA2071+018001999GF107991999999999999999999MA1101901999999REMMET060METAR EDOP 121450Z 32002KT 9000 SCT020 BKN060 M01/M01 Q1019;
0134101624999992013011215204+53417+011783FM-15+0051EDOP V0203201N000510054019N0080001N1-00101-00101999999ADDGA1071+005401999GF107991999999999999999999MA1101901999999MW1851REMMET059METAR EDOP 121520Z 32001KT 8000 -SHSN BKN018 M01/M01 Q1019;
0145101624999992013011215504+53417+011783FM-15+0051EDOP V0209999V001012200019N0080001N1-00101-00101999999ADDGA1041+003601999GA2041+015001999GF104991999999999999999999MA1101901999999REMMET060METAR EDOP 121550Z VRB02KT 8000 SCT012 SCT055 M01/M01 Q1019;
0145101624999992013011216204+53417+011783FM-15+0051EDOP V0209999V000510150019N0080001N1-00101-00201999999ADDGA1041+003601999GA2071+015001999GF107991999999999999999999MA1101901999999REMMET060METAR EDOP 121620Z VRB01KT 8000 SCT012 BKN055 M01/M02 Q1019;
0145101624999992013011216504+53417+011783FM-15+0051EDOP V0203101N001010150019N0080001N1-00201-00201999999ADDGA1041+003001999GA2071+015001999GF107991999999999999999999MA1101901999999REMMET060METAR EDOP 121650Z 31002KT 8000 SCT010 BKN050 M02/M02 Q1019;
0155101624999992013011307204+53417+011783FM-15+0051EDOP V0201001N002110042019N0112651N1-00201-00301999999ADDGA1071+004201999GA2081+018001999GF108991999999999999999999MA1102101999999MW1711REMMET064METAR EDOP 130720Z 10004KT 9999 -SN BKN014 OVC060 M02/M03 Q1021;
0155101624999992013011307504+53417+011783FM-15+0051EDOP V0200901N001510063019N0112651N1-00201-00301999999ADDGA1071+006301999GA2081+018001999GF108991999999999999999999MA1102101999999MW1711REMMET064METAR EDOP 130750Z 09003KT 9999 -SN BKN021 OVC062 M02/M03 Q1021;
0155101624999992013011308204+53417+011783FM-15+0051EDOP V0200901N001510075019N0112651N1-00201-00301999999ADDGA1071+007501999GA2081+011701999GF108991999999999999999999MA1102101999999MW1711REMMET064METAR EDOP 130820Z 09003KT 9999 -SN BKN025 OVC039 M02/M03 Q1021;
0155101624999992013011308504+53417+011783FM-15+0051EDOP V0200901N002110075019N0060001N1-00201-00201999999ADDGA1071+007501999GA2081+010801999GF108991999999999999999999MA1102101999999MW1711REMMET064METAR EDOP 130850Z 09004KT 6000 -SN BKN025 OVC036 M02/M02 Q1021;
0155101624999992013011309204+53417+011783FM-15+0051EDOP V0200901N003110048019N0060001N1-00201-00301999999ADDGA1071+004801999GA2081+010801999GF108991999999999999999999MA1102101999999MW1711REMMET064METAR EDOP 130920Z 09006KT 6000 -SN BKN016 OVC036 M02/M03 Q1021;
0155101624999992013011309504+53417+011783FM-15+0051EDOP V0201101N003110036019N0060001N1-00301-00301999999ADDGA1071+003601999GA2081+014701999GF108991999999999999999999MA1102201999999MW1711REMMET064METAR EDOP 130950Z 11006KT 6000 -SN BKN012 OVC049 M03/M03 Q1022;
0145101624999992013011310204+53417+011783FM-15+0051EDOP V0201201N002110120019N0070001N1-00201-00301999999ADDGA1041+008701999GA2071+012001999GF107991999999999999999999MA1102201999999REMMET060METAR EDOP 131020Z 12004KT 7000 SCT029 BKN040 M02/M03 Q1022;
0122101624999992013011310504+53417+011783FM-15+0051EDOP V0200901N001512200019N0080001N1-00201-00401999999ADDGA1041+012001999GF104991999999999999999999MA1102101999999REMMET053METAR EDOP 131050Z 09003KT 8000 SCT040 M02/M04 Q1021;
0122101624999992013011311504+53417+011783FM-15+0051EDOP V0209999V001012200019N0112651N1-00201-00401999999ADDGA1041+012001999GF104991999999999999999999MA1102101999999REMMET053METAR EDOP 131150Z VRB02KT 9999 SCT040 M02/M04 Q1021;
0122101624999992013011312204+53417+011783FM-15+0051EDOP V0209999V001512200019N0112651N1-00201-00301999999ADDGA1041+012001999GF104991999999999999999999MA1102101999999REMMET053METAR EDOP 131220Z VRB03KT 9999 SCT040 M02/M03 Q1021;
0130101624999992013011312504+53417+011783FM-15+0051EDOP V0200301N002610114019N0080001N1-00201-00401999999ADDGA1071+011401999GF107991999999999999999999MA1102101999999REMMET061METAR EDOP 131250Z 03005KT 360V070 8000 BKN038 M02/M04 Q1021;
0153101624999992013011313204+53417+011783FM-15+0051EDOP V0200301N002610111019N0080001N1-00201-00301999999ADDGA1041+003601999GA2071+011101999GF107991999999999999999999MA1102101999999REMMET068METAR EDOP 131320Z 03005KT 360V060 8000 SCT012 BKN037 M02/M03 Q1021;
0122101624999992013011313504+53417+011783FM-15+0051EDOP V0200601N003610123019N0080001N1-00201-00401999999ADDGA1071+012301999GF107991999999999999999999MA1102101999999REMMET053METAR EDOP 131350Z 06007KT 8000 BKN041 M02/M04 Q1021;
0074101624999992013011314204+53417+011783FM-15+0051EDOP V0200601N002619999999Y0099001N1-00401-00601999999ADDMA1102101999999REMMET047METAR EDOP 131420Z 06005KT CAVOK M04/M06 Q1021;
0074101624999992013011314504+53417+011783FM-15+0051EDOP V0200601N002619999999Y0099001N1-00401-00601999999ADDMA1102101999999REMMET047METAR EDOP 131450Z 06005KT CAVOK M04/M06 Q1021;
0074101624999992013011315204+53417+011783FM-15+0051EDOP V0200501N002119999999Y0099001N1-00501-00701999999ADDMA1102101999999REMMET047METAR EDOP 131520Z 05004KT CAVOK M05/M07 Q1021;
0074101624999992013011315504+53417+011783FM-15+0051EDOP V0200401N001519999999Y0099001N1-00601-00701999999ADDMA1102101999999REMMET047METAR EDOP 131550Z 04003KT CAVOK M06/M07 Q1021;
0074101624999992013011316204+53417+011783FM-15+0051EDOP V0200601N003119999999Y0099001N1-00701-00701999999ADDMA1102101999999REMMET047METAR EDOP 131620Z 06006KT CAVOK M07/M07 Q1021;
0074101624999992013011316504+53417+011783FM-15+0051EDOP V0200501N002619999999Y0099001N1-00701-00801999999ADDMA1102101999999REMMET047METAR EDOP 131650Z 05005KT CAVOK M07/M08 Q1021;
0122101624999992013011404204+53417+011783FM-15+0051EDOP V0201101N003112200019N0112651N1-00601-00701999999ADDGA1041+003001999GF104991999999999999999999MA1101801999999REMMET053METAR EDOP 140420Z 11006KT 9999 SCT010 M06/M07 Q1018;
0122101624999992013011404504+53417+011783FM-15+0051EDOP V0201001N004612200019N0112651N1-00601-00701999999ADDGA1041+002401999GF104991999999999999999999MA1101801999999REMMET053METAR EDOP 140450Z 10009KT 9999 SCT008 M06/M07 Q1018;
0122101624999992013011405204+53417+011783FM-15+0051EDOP V0201001N005110018019N0080001N1-00601-00701999999ADDGA1071+001801999GF107991999999999999999999MA1101801999999REMMET053METAR EDOP 140520Z 10010KT 8000 BKN006 M06/M07 Q1018;
0132101624999992013011405504+53417+011783FM-15+0051EDOP V0201001N005710021019N0070001N1-00701-00701999999ADDGA1071+002101999GF107991999999999999999999MA1101801999999MW1711REMMET057METAR EDOP 140550Z 10011KT 7000 -SN BKN007 M07/M07 Q1018;
0155101624999992013011406204+53417+011783FM-15+0051EDOP V0201001N005110108019N0070001N1-00601-00701999999ADDGA1041+001801999GA2071+010801999GF107991999999999999999999MA1101801999999MW1711REMMET064METAR EDOP 140620Z 10010KT 7000 -SN SCT006 BKN036 M06/M07 Q1018;
0155101624999992013011406504+53417+011783FM-15+0051EDOP V0200901N005110120019N0070001N1-00601-00701999999ADDGA1041+001801999GA2071+012001999GF107991999999999999999999MA1101801999999MW1711REMMET064METAR EDOP 140650Z 09010KT 7000 -SN SCT006 BKN040 M06/M07 Q1018;
0122101624999992013011407204+53417+011783FM-15+0051EDOP V0201001N005710120019N0080001N1-00601-00701999999ADDGA1071+012001999GF107991999999999999999999MA1101801999999REMMET053METAR EDOP 140720Z 10011KT 8000 BKN040 M06/M07 Q1018;
0145101624999992013011407504+53417+011783FM-15+0051EDOP V0201001N006210117019N0080001N1-00601-00801999999ADDGA1021+003601999GA2071+011701999GF107991999999999999999999MA1101801999999REMMET060METAR EDOP 140750Z 10012KT 8000 FEW012 BKN039 M06/M08 Q1018;
0145101624999992013011408204+53417+011783FM-15+0051EDOP V0201001N005110114019N0070001N1-00601-00801999999ADDGA1041+003301999GA2071+011401999GF107991999999999999999999MA1101801999999REMMET060METAR EDOP 140820Z 10010KT 7000 SCT011 BKN038 M06/M08 Q1018;
0145101624999992013011408504+53417+011783FM-15+0051EDOP V0200901N005710117019N0070001N1-00601-00801999999ADDGA1021+002701999GA2071+011701999GF107991999999999999999999MA1101691999999REMMET060METAR EDOP 140850Z 09011KT 7000 FEW009 BKN039 M06/M08 Q1017;
0145101624999992013011409204+53417+011783FM-15+0051EDOP V0200901N005112200019N0060001N1-00601-00801999999ADDGA1021+003001999GA2041+012001999GF104991999999999999999999MA1101691999999REMMET060METAR EDOP 140920Z 09010KT 6000 FEW010 SCT040 M06/M08 Q1017;
0145101624999992013011409504+53417+011783FM-15+0051EDOP V0201001N004612200019N0060001N1-00601-00801999999ADDGA1021+003001999GA2041+012001999GF104991999999999999999999MA1101691999999REMMET060METAR EDOP 140950Z 10009KT 6000 FEW010 SCT040 M06/M08 Q1017;
0122101624999992013011410204+53417+011783FM-15+0051EDOP V0200901N004612200019N0050001N1-00601-00801999999ADDGA1041+010501999GF104991999999999999999999MA1101591999999REMMET053METAR EDOP 141020Z 09009KT 5000 SCT035 M06/M08 Q1016;
0145101624999992013011410504+53417+011783FM-15+0051EDOP V0200901N005110105019N0050001N1-00501-00701999999ADDGA1041+006001999GA2071+010501999GF107991999999999999999999MA1101591999999REMMET060METAR EDOP 141050Z 09010KT 5000 SCT020 BKN035 M05/M07 Q1016;
0145101624999992013011411204+53417+011783FM-15+0051EDOP V0200901N005110108019N0050001N1-00501-00701999999ADDGA1041+002101999GA2071+010801999GF107991999999999999999999MA1101591999999REMMET060METAR EDOP 141120Z 09010KT 5000 SCT007 BKN036 M05/M07 Q1016;
0155101624999992013011411504+53417+011783FM-15+0051EDOP V0201001N005110081019N0040001N1-00501-00701999999ADDGA1041+001501999GA2071+008101999GF107991999999999999999999MA1101491999999MW1711REMMET064METAR EDOP 141150Z 10010KT 4000 -SN SCT005 BKN027 M05/M07 Q1015;
0155101624999992013011412204+53417+011783FM-15+0051EDOP V0200901N004610030019N0040001N1-00501-00601999999ADDGA1071+003001999GA2071+010501999GF107991999999999999999999MA1101491999999MW1711REMMET064METAR EDOP 141220Z 09009KT 4000 -SN BKN010 BKN035 M05/M06 Q1015;
0155101624999992013011412504+53417+011783FM-15+0051EDOP V0201001N004110036019N0030001N1-00501-00601999999ADDGA1041+001801999GA2071+003601999GF107991999999999999999999MA1101391999999MW1711REMMET064METAR EDOP 141250Z 10008KT 3000 -SN SCT006 BKN012 M05/M06 Q1014;
0155101624999992013011413204+53417+011783FM-15+0051EDOP V0201101N004110045019N0040001N1-00401-00601999999ADDGA1021+001501999GA2071+004501999GF107991999999999999999999MA1101391999999MW1711REMMET064METAR EDOP 141320Z 11008KT 4000 -SN FEW005 BKN015 M04/M06 Q1014;
0132101624999992013011413504+53417+011783FM-15+0051EDOP V0201101N003610036019N0045001N1-00401-00701999999ADDGA1071+003601999GF107991999999999999999999MA1101391999999MW1711REMMET057METAR EDOP 141350Z 11007KT 4500 -SN BKN012 M04/M07 Q1014;
0122101624999992013011414204+53417+011783FM-15+0051EDOP V0201101N003610033019N0060001N1-00401-00601999999ADDGA1071+003301999GF107991999999999999999999MA1101391999999REMMET053METAR EDOP 141420Z 11007KT 6000 BKN011 M04/M06 Q1014;
0122101624999992013011414504+53417+011783FM-15+0051EDOP V0201101N003610030019N0060001N1-00501-00601999999ADDGA1071+003001999GF107991999999999999999999MA1101291999999REMMET053METAR EDOP 141450Z 11007KT 6000 BKN010 M05/M06 Q1013;
0131101624999992013011415204+53417+011783FM-15+0051EDOP V0201201N002610030019N0045001N1-00501-00601999999ADDGA1071+003001999GF107991999999999999999999MA1101291999999MW1101REMMET056METAR EDOP 141520Z 12005KT 4500 BR BKN010 M05/M06 Q1013;
0131101624999992013011415504+53417+011783FM-15+0051EDOP V0201201N001510030019N0040001N1-00501-00601999999ADDGA1071+003001999GF107991999999999999999999MA1101291999999MW1101REMMET056METAR EDOP 141550Z 12003KT 4000 BR BKN010 M05/M06 Q1013;
0122101624999992013011416204+53417+011783FM-15+0051EDOP V0201601N002610030019N0060001N1-00501-00601999999ADDGA1071+003001999GF107991999999999999999999MA1101291999999REMMET053METAR EDOP 141620Z 16005KT 6000 BKN010 M05/M06 Q1013;
0122101624999992013011416504+53417+011783FM-15+0051EDOP V0201601N002110030019N0060001N1-00501-00601999999ADDGA1071+003001999GF107991999999999999999999MA1101291999999REMMET053METAR EDOP 141650Z 16004KT 6000 BKN010 M05/M06 Q1013;
0122101624999992013011504204+53417+011783FM-15+0051EDOP V0202201N003110024019N0112651N1-00501-00501999999ADDGA1071+002401999GF107991999999999999999999MA1101021999999REMMET053METAR EDOP 150420Z 22006KT 9999 BKN008 M05/M05 Q1010;
0122101624999992013011504504+53417+011783FM-15+0051EDOP V0202101N002610021019N0112651N1-00501-00601999999ADDGA1071+002101999GF107991999999999999999999MA1101021999999REMMET053METAR EDOP 150450Z 21005KT 9999 BKN007 M05/M06 Q1010;
0122101624999992013011505204+53417+011783FM-15+0051EDOP V0202001N002112200019N0112651N1-00601-00701999999ADDGA1041+002101999GF104991999999999999999999MA1101021999999REMMET053METAR EDOP 150520Z 20004KT 9999 SCT007 M06/M07 Q1010;
0131101624999992013011506204+53417+011783FM-15+0051EDOP V0209999V001012200019N0038001N1-01101-01201999999ADDGA1041+001501999GF104991999999999999999999MA1101021999999MW1101REMMET056METAR EDOP 150620Z VRB02KT 3800 BR SCT005 M11/M12 Q1010;
0131101624999992013011506504+53417+011783FM-15+0051EDOP V0201701N001012200019N0028001N1-01101-01101999999ADDGA1021+000901999GF102991999999999999999999MA1101021999999MW1101REMMET056METAR EDOP 150650Z 17002KT 2800 BR FEW003 M11/M11 Q1010;
0131101624999992013011507204+53417+011783FM-15+0051EDOP V0201601N001512200019N0024001N1-01001-01101999999ADDGA1021+000901999GF102991999999999999999999MA1101021999999MW1101REMMET056METAR EDOP 150720Z 16003KT 2400 BR FEW003 M10/M11 Q1010;
0131101624999992013011507504+53417+011783FM-15+0051EDOP V0201201N002612200019N0022001N1-00901-00901999999ADDGA1021+000901999GF102991999999999999999999MA1101021999999MW1101REMMET056METAR EDOP 150750Z 12005KT 2200 BR FEW003 M09/M09 Q1010;
0130101624999992013011508204+53417+011783FM-15+0051EDOP V0201201N00261000151CN0018001N1-00801-00801999999ADDGA1091+000151999GF109991999999000251999999MA1101021999999MW1101REMMET055METAR EDOP 150820Z 12005KT 1800 BR VV/// M08/M08 Q1010;
0131101624999992013011508504+53417+011783FM-15+0051EDOP V0201201N002112200019N0020001N1-00801-00801999999ADDGF100991999999999999999999MA1101021999999MW1101REMMET053METAR EDOP 150850Z 12004KT 2000 BR NSC M08/M08 Q1010;EQDQ01    003SCCGA1
0131101624999992013011509204+53417+011783FM-15+0051EDOP V0201301N002612200019N0022001N1-00801-00801999999ADDGF100991999999999999999999MA1101081999999MW1101REMMET053METAR EDOP 150920Z 13005KT 2200 BR NSC M08/M08 Q1011;EQDQ01    003SCCGA1
0131101624999992013011509504+53417+011783FM-15+0051EDOP V0209999V001012200019N0024001N1-00701-00801999999ADDGF100991999999999999999999MA1101081999999MW1101REMMET053METAR EDOP 150950Z VRB02KT 2400 BR NSC M07/M08 Q1011;EQDQ01    003SCCGA1
0131101624999992013011510204+53417+011783FM-15+0051EDOP V0201001N002112200019N0035001N1-00701-00701999999ADDGA1021+000901999GF102991999999999999999999MA1101081999999MW1101REMMET056METAR EDOP 151020Z 10004KT 3500 BR FEW003 M07/M07 Q1011;
0131101624999992013011510504+53417+011783FM-15+0051EDOP V0209999V001512200019N0025001N1-00601-00701999999ADDGA1041+001501999GF104991999999999999999999MA1101081999999MW1101REMMET056METAR EDOP 151050Z VRB03KT 2500 BR SCT005 M06/M07 Q1011;
0139101624999992013011511204+53417+011783FM-15+0051EDOP V0201401N002112200019N0040001N1-00601-00601999999ADDGA1041+001201999GF104991999999999999999999MA1101081999999MW1101REMMET064METAR EDOP 151120Z 14004KT 110V190 4000 BR SCT004 M06/M06 Q1011;
0131101624999992013011511504+53417+011783FM-15+0051EDOP V0201501N002110015019N0035001N1-00601-00601999999ADDGA1071+001501999GF107991999999999999999999MA1101021999999MW1101REMMET056METAR EDOP 151150Z 15004KT 3500 BR BKN005 M06/M06 Q1010;
0139101624999992013011512204+53417+011783FM-15+0051EDOP V0201501N002110015019N0030001N1-00601-00601999999ADDGA1071+001501999GF107991999999999999999999MA1101021999999MW1101REMMET064METAR EDOP 151220Z 15004KT 100V190 3000 BR BKN005 M06/M06 Q1010;
0131101624999992013011512504+53417+011783FM-15+0051EDOP V0201501N002610015019N0030001N1-00601-00601999999ADDGA1071+001501999GF107991999999999999999999MA1101021999999MW1101REMMET056METAR EDOP 151250Z 15005KT 3000 BR BKN005 M06/M06 Q1010;
0131101624999992013011513204+53417+011783FM-15+0051EDOP V0201601N003110015019N0030001N1-00601-00601999999ADDGA1071+001501999GF107991999999999999999999MA1101021999999MW1101REMMET056METAR EDOP 151320Z 16006KT 3000 BR BKN005 M06/M06 Q1010;
0131101624999992013011513504+53417+011783FM-15+0051EDOP V0201501N003610015019N0030001N1-00601-00601999999ADDGA1071+001501999GF107991999999999999999999MA1101021999999MW1101REMMET056METAR EDOP 151350Z 15007KT 3000 BR BKN005 M06/M06 Q1010;
0131101624999992013011514204+53417+011783FM-15+0051EDOP V0201301N002610018019N0045001N1-00601-00601999999ADDGA1071+001801999GF107991999999999999999999MA1101021999999MW1101REMMET056METAR EDOP 151420Z 13005KT 4500 BR BKN006 M06/M06 Q1010;
0139101624999992013011514504+53417+011783FM-15+0051EDOP V0201001N002110024019N0040001N1-00601-00601999999ADDGA1071+002401999GF107991999999999999999999MA1101021999999MW1101REMMET064METAR EDOP 151450Z 10004KT 060V140 4000 BR BKN008 M06/M06 Q1010;
0131101624999992013011515204+53417+011783FM-15+0051EDOP V0200801N002110021019N0040001N1-00601-00601999999ADDGA1071+002101999GF107991999999999999999999MA1101021999999MW1101REMMET056METAR EDOP 151520Z 08004KT 4000 BR BKN007 M06/M06 Q1010;
0131101624999992013011515504+53417+011783FM-15+0051EDOP V0200801N002110018019N0040001N1-00601-00601999999ADDGA1071+001801999GF107991999999999999999999MA1101021999999MW1101REMMET056METAR EDOP 151550Z 08004KT 4000 BR BKN006 M06/M06 Q1010;
0131101624999992013011516204+53417+011783FM-15+0051EDOP V0200401N001512200019N0040001N1-00801-00801999999ADDGA1041+001801999GF104991999999999999999999MA1101021999999MW1101REMMET056METAR EDOP 151620Z 04003KT 4000 BR SCT006 M08/M08 Q1010;
0131101624999992013011516504+53417+011783FM-15+0051EDOP V0201501N001012200019N0040001N1-00801-00801999999ADDGA1021+003001999GF102991999999999999999999MA1101081999999MW1101REMMET056METAR EDOP 151650Z 15002KT 4000 BR FEW010 M08/M08 Q1011;
0130101624999992013011603504+53417+011783FM-15+0051EDOP V0200601N002110012019N0070001N1-00601-00601999999ADDGA1071+001201999GF107991999999999999999999MA1101021999999REMMET061METAR EDOP 160350Z 06004KT 020V100 7000 BKN004 M06/M06 Q1010;
0122101624999992013011604204+53417+011783FM-15+0051EDOP V0200701N002110012019N0070001N1-00601-00601999999ADDGA1071+001201999GF107991999999999999999999MA1101021999999REMMET053METAR EDOP 160420Z 07004KT 7000 BKN004 M06/M06 Q1010;
0131101624999992013011604504+53417+011783FM-15+0051EDOP V0200601N002112200019N0045001N1-00601-00601999999ADDGA1041+001201999GF104991999999999999999999MA1101021999999MW1101REMMET056METAR EDOP 160450Z 06004KT 4500 BR SCT004 M06/M06 Q1010;
0131101624999992013011605204+53417+011783FM-15+0051EDOP V0209999V001510012019N0040001N1-00601-00601999999ADDGA1071+001201999GF107991999999999999999999MA1101081999999MW1101REMMET056METAR EDOP 160520Z VRB03KT 4000 BR BKN004 M06/M06 Q1011;
0139101624999992013011605504+53417+011783FM-15+0051EDOP V0200601N002110012019N0035001N1-00601-00601999999ADDGA1071+001201999GF107991999999999999999999MA1101021999999MW1101REMMET064METAR EDOP 160550Z 06004KT 030V090 3500 BR BKN004 M06/M06 Q1010;
0131101624999992013011606204+53417+011783FM-15+0051EDOP V0200601N003110012019N0040001N1-00601-00601999999ADDGA1071+001201999GF107991999999999999999999MA1101021999999MW1101REMMET056METAR EDOP 160620Z 06006KT 4000 BR BKN004 M06/M06 Q1010;
0139101624999992013011606504+53417+011783FM-15+0051EDOP V0200601N003110012019N0035001N1-00601-00601999999ADDGA1071+001201999GF107991999999999999999999MA1101081999999MW1101REMMET064METAR EDOP 160650Z 06006KT 030V090 3500 BR BKN004 M06/M06 Q1011;
0131101624999992013011607204+53417+011783FM-15+0051EDOP V0200601N002610012019N0040001N1-00601-00601999999ADDGA1071+001201999GF107991999999999999999999MA1101081999999MW1101REMMET056METAR EDOP 160720Z 06005KT 4000 BR BKN004 M06/M06 Q1011;
0139101624999992013011607504+53417+011783FM-15+0051EDOP V0200601N002110012019N0040001N1-00601-00601999999ADDGA1071+001201999GF107991999999999999999999MA1101081999999MW1101REMMET064METAR EDOP 160750Z 06004KT 010V090 4000 BR BKN004 M06/M06 Q1011;
0131101624999992013011608204+53417+011783FM-15+0051EDOP V0200601N001510015019N0042001N1-00601-00601999999ADDGA1071+001501999GF107991999999999999999999MA1101081999999MW1101REMMET056METAR EDOP 160820Z 06003KT 4200 BR BKN005 M06/M06 Q1011;
0131101624999992013011608504+53417+011783FM-15+0051EDOP V0200801N002610015019N0040001N1-00501-00601999999ADDGA1071+001501999GF107991999999999999999999MA1101191999999MW1101REMMET056METAR EDOP 160850Z 08005KT 4000 BR BKN005 M05/M06 Q1012;
0131101624999992013011609204+53417+011783FM-15+0051EDOP V0200701N002110012019N0030001N1-00501-00501999999ADDGA1071+001201999GF107991999999999999999999MA1101191999999MW1101REMMET056METAR EDOP 160920Z 07004KT 3000 BR BKN004 M05/M05 Q1012;
0139101624999992013011609504+53417+011783FM-15+0051EDOP V0200401N002110012019N0025001N1-00501-00501999999ADDGA1071+001201999GF107991999999999999999999MA1101191999999MW1101REMMET064METAR EDOP 160950Z 04004KT 010V070 2500 BR BKN004 M05/M05 Q1012;
0131101624999992013011610204+53417+011783FM-15+0051EDOP V0200501N002610012019N0025001N1-00501-00501999999ADDGA1071+001201999GF107991999999999999999999MA1101191999999MW1101REMMET056METAR EDOP 161020Z 05005KT 2500 BR BKN004 M05/M05 Q1012;
0139101624999992013011610504+53417+011783FM-15+0051EDOP V0200701N003110012019N0028001N1-00401-00501999999ADDGA1071+001201999GF107991999999999999999999MA1101191999999MW1101REMMET064METAR EDOP 161050Z 07006KT 030V090 2800 BR BKN004 M04/M05 Q1012;
0131101624999992013011611204+53417+011783FM-15+0051EDOP V0200701N004110015019N0040001N1-00401-00501999999ADDGA1071+001501999GF107991999999999999999999MA1101191999999MW1101REMMET056METAR EDOP 161120Z 07008KT 4000 BR BKN005 M04/M05 Q1012;
0139101624999992013011611504+53417+011783FM-15+0051EDOP V0200701N003110012019N0040001N1-00401-00501999999ADDGA1071+001201999GF107991999999999999999999MA1101191999999MW1101REMMET064METAR EDOP 161150Z 07006KT 040V100 4000 BR BKN004 M04/M05 Q1012;
0139101624999992013011612204+53417+011783FM-15+0051EDOP V0200801N002110015019N0030001N1-00401-00401999999ADDGA1071+001501999GF107991999999999999999999MA1101081999999MW1101REMMET064METAR EDOP 161220Z 08004KT 060V120 3000 BR BKN005 M04/M04 Q1011;
0131101624999992013011612504+53417+011783FM-15+0051EDOP V0201001N001010018019N0035001N1-00401-00401999999ADDGA1071+001801999GF107991999999999999999999MA1101081999999MW1101REMMET056METAR EDOP 161250Z 10002KT 3500 BR BKN006 M04/M04 Q1011;
0175101624999992013011613204+53417+011783FM-15+0051EDOP V0200601N001012200019N0045001N1-00401-00501999999ADDED124U09009GA1041+001801999GA2041+009001999GF104991999999999999999999MA1101191999999MW1101REMMET073METAR EDOP 161320Z 06002KT 4500 R24/0900N BR SCT006 SCT030 M04/M05 Q1012;
0145101624999992013011613354+53417+011783FM-16+0051EDOP V0209999V001512200019N0050001N1-00401-00501999999ADDGA1041+001501999GA2041+009001999GF104991999999999999999999MA1101191999999REMMET060SPECI EDOP 161335Z VRB03KT 5000 SCT005 SCT030 M04/M05 Q1012;
0145101624999992013011613504+53417+011783FM-15+0051EDOP V0209999V001512200019N0050001N1-00401-00501999999ADDGA1041+002101999GA2041+024001999GF104991999999999999999999MA1101191999999REMMET060METAR EDOP 161350Z VRB03KT 5000 SCT007 SCT080 M04/M05 Q1012;
0145101624999992013011614204+53417+011783FM-15+0051EDOP V0209999V001512200019N0060001N1-00401-00501999999ADDGA1021+001801999GA2041+027001999GF104991999999999999999999MA1101191999999REMMET060METAR EDOP 161420Z VRB03KT 6000 FEW006 SCT090 M04/M05 Q1012;
0130101624999992013011614504+53417+011783FM-15+0051EDOP V0200101N002112200019N0060001N1-00401-00501999999ADDGA1041+003601999GF104991999999999999999999MA1101191999999REMMET061METAR EDOP 161450Z 01004KT 330V040 6000 SCT012 M04/M05 Q1012;
0122101624999992013011615204+53417+011783FM-15+0051EDOP V0209999V001512200019N0060001N1-00501-00501999999ADDGA1041+003601999GF104991999999999999999999MA1101191999999REMMET053METAR EDOP 161520Z VRB03KT 6000 SCT012 M05/M05 Q1012;
0122101624999992013011615504+53417+011783FM-15+0051EDOP V0203401N001512200019N0060001N1-00501-00601999999ADDGA1021+003601999GF102991999999999999999999MA1101191999999REMMET053METAR EDOP 161550Z 34003KT 6000 FEW012 M05/M06 Q1012;
0122101624999992013011616204+53417+011783FM-15+0051EDOP V0203401N001512200019N0060001N1-00501-00601999999ADDGF100991999999999999999999MA1101191999999REMMET050METAR EDOP 161620Z 34003KT 6000 NSC M05/M06 Q1012;EQDQ01    003SCCGA1
0122101624999992013011616504+53417+011783FM-15+0051EDOP V0203301N001512200019N0060001N1-00501-00601999999ADDGF100991999999999999999999MA1101191999999REMMET050METAR EDOP 161650Z 33003KT 6000 NSC M05/M06 Q1012;EQDQ01    003SCCGA1
0150101624999992013011704204+53417+011783FM-15+0051EDOP V0200201N004110024019N0060001N1-00101-00101999999ADDGA1071+002401999GF107991999999999999999999MA1101491999999MW1661MW2731REMMET069METAR EDOP 170420Z 02008KT 350V050 6000 -FZRASN BKN008 M01/M01 Q1015;
0142101624999992013011704504+53417+011783FM-15+0051EDOP V0200201N004610024019N0080001N1-00101-00101999999ADDGA1071+002401999GF107991999999999999999999MA1101491999999MW1661REMMET067METAR EDOP 170450Z 02009KT 350V060 8000 -FZRA BKN008 M01/M01 Q1015;
0130101624999992013011705204+53417+011783FM-15+0051EDOP V0200201N004610030019N0112651N1-00101-00201999999ADDGA1071+003001999GF107991999999999999999999MA1101491999999REMMET061METAR EDOP 170520Z 02009KT 350V050 9999 BKN010 M01/M02 Q1015;
0142101624999992013011705504+53417+011783FM-15+0051EDOP V0200201N004110033019N0080001N1-00101-00201999999ADDGA1071+003301999GF107991999999999999999999MA1101491999999MW1661MW2731REMMET061METAR EDOP 170550Z 02008KT 8000 -FZRASN BKN011 M01/M02 Q1015;
0150101624999992013011706204+53417+011783FM-15+0051EDOP V0200201N003610036019N0080001N1-00101-00201999999ADDGA1071+003601999GF107991999999999999999999MA1101491999999MW1661MW2731REMMET069METAR EDOP 170620Z 02007KT 340V050 8000 -FZRASN BKN012 M01/M02 Q1015;
0173101624999992013011707204+53417+011783FM-15+0051EDOP V0200101N003610069019N0070001N1-00101-00201999999ADDGA1021+003001999GA2071+006901999GF107991999999999999999999MA1101591999999MW1661MW2731REMMET076METAR EDOP 170720Z 01007KT 290V040 7000 -FZRASN FEW010 BKN023 M01/M02 Q1016;
0172101624999992013011707504+53417+011783FM-15+0051EDOP V0200101N003110054019N0040001N1-00101-00201999999ADDGA1021+003601999GA2071+005401999GF107991999999999999999999MA1101591999999MW1101MW2711REMMET075METAR EDOP 170750Z 01006KT 330V040 4000 -SN BR FEW012 BKN018 M01/M02 Q1016;
0172101624999992013011708204+53417+011783FM-15+0051EDOP V0200101N003610075019N0045001N1-00101-00201999999ADDGA1021+004201999GA2071+007501999GF107991999999999999999999MA1101691999999MW1101MW2711REMMET075METAR EDOP 170820Z 01007KT 340V040 4500 -SN BR FEW014 BKN025 M01/M02 Q1017;
0172101624999992013011708504+53417+011783FM-15+0051EDOP V0200101N003610060019N0042001N1-00101-00201999999ADDGA1021+003001999GA2071+006001999GF107991999999999999999999MA1101691999999MW1101MW2711REMMET075METAR EDOP 170850Z 01007KT 330V040 4200 -SN BR FEW010 BKN020 M01/M02 Q1017;
0140101624999992013011709204+53417+011783FM-15+0051EDOP V0200101N003110039019N0045001N1-00101-00101999999ADDGA1071+003901999GF107991999999999999999999MA1101691999999MW1711REMMET065METAR EDOP 170920Z 01006KT 330V030 4500 -SN BKN013 M01/M01 Q1017;
0139101624999992013011709504+53417+011783FM-15+0051EDOP V0200301N003610030019N0045001N1-00101-00101999999ADDGA1071+003001999GF107991999999999999999999MA1101691999999MW1101REMMET064METAR EDOP 170950Z 03007KT 360V060 4500 BR BKN010 M01/M01 Q1017;
0122101624999992013011710204+53417+011783FM-15+0051EDOP V0200201N004110024019N0060001N1-00101-00101999999ADDGA1071+002401999GF107991999999999999999999MA1101691999999REMMET053METAR EDOP 171020Z 02008KT 6000 BKN008 M01/M01 Q1017;
0140101624999992013011710504+53417+011783FM-15+0051EDOP V0200401N004110027019N0070001N1+00001-00101999999ADDGA1071+002701999GF107991999999999999999999MA1101691999999MW1711REMMET065METAR EDOP 171050Z 04008KT 010V070 7000 -SN BKN009 M00/M01 Q1017;
0145101624999992013011711204+53417+011783FM-15+0051EDOP V0200701N005710240019N0090001N1+00001-00201999999ADDGA1041+003001999GA2071+024001999GF107991999999999999999999MA1101691999999REMMET060METAR EDOP 171120Z 07011KT 9000 SCT010 BKN080 M00/M02 Q1017;
0144101624999992013011711504+53417+011783FM-15+0051EDOP V0200801N003612200019N0112651N1+00001-00301999999ADDGA1021+013501999GA2041+021001999GF104991999999999999999999MA1101691999999REMMET059METAR EDOP 171150Z 08007KT 9999 FEW045 SCT070 00/M03 Q1017;
0073101624999992013011712204+53417+011783FM-15+0051EDOP V0200801N003119999999Y0099001N1+00001-00401999999ADDMA1101691999999REMMET046METAR EDOP 171220Z 08006KT CAVOK 00/M04 Q1017;
0073101624999992013011712504+53417+011783FM-15+0051EDOP V0200701N003619999999Y0099001N1+00001-00401999999ADDMA1101691999999REMMET046METAR EDOP 171250Z 07007KT CAVOK 00/M04 Q1017;
0081101624999992013011713204+53417+011783FM-15+0051EDOP V0200501N003619999999Y0099001N1+00001-00401999999ADDMA1101691999999REMMET054METAR EDOP 171320Z 05007KT 020V080 CAVOK 00/M04 Q1017;
0074101624999992013011713504+53417+011783FM-15+0051EDOP V0200501N003619999999Y0099001N1+00001-00401999999ADDMA1101801999999REMMET047METAR EDOP 171350Z 05007KT CAVOK M00/M04 Q1018;
0130101624999992013011714204+53417+011783FM-15+0051EDOP V0200401N002612200019N0112651N1+00001-00401999999ADDGA1041+006001999GF104991999999999999999999MA1101801999999REMMET061METAR EDOP 171420Z 04005KT 010V070 9999 SCT020 M00/M04 Q1018;
0122101624999992013011714504+53417+011783FM-15+0051EDOP V0209999V001510090019N0112651N1+00001-00301999999ADDGA1071+009001999GF107991999999999999999999MA1101801999999REMMET053METAR EDOP 171450Z VRB03KT 9999 BKN030 M00/M03 Q1018;
0130101624999992013011715204+53417+011783FM-15+0051EDOP V0200201N002610072019N0112651N1+00001-00301999999ADDGA1071+007201999GF107991999999999999999999MA1101801999999REMMET061METAR EDOP 171520Z 02005KT 350V060 9999 BKN024 M00/M03 Q1018;
0130101624999992013011715504+53417+011783FM-15+0051EDOP V0200101N002110066019N0112651N1-00101-00301999999ADDGA1071+006601999GF107991999999999999999999MA1101801999999REMMET061METAR EDOP 171550Z 01004KT 340V040 9999 BKN022 M01/M03 Q1018;
0130101624999992013011716204+53417+011783FM-15+0051EDOP V0203601N002110060019N0112651N1-00101-00301999999ADDGA1071+006001999GF107991999999999999999999MA1101801999999REMMET061METAR EDOP 171620Z 36004KT 330V030 9999 BKN020 M01/M03 Q1018;
0130101624999992013011716504+53417+011783FM-15+0051EDOP V0203601N002610054019N0112651N1-00101-00201999999ADDGA1071+005401999GF107991999999999999999999MA1101801999999REMMET061METAR EDOP 171650Z 36005KT 330V030 9999 BKN018 M01/M02 Q1018;
0130101624999992013011804204+53417+011783FM-15+0051EDOP V0200301N002610090019N0112651N1-00101-00301999999ADDGA1071+009001999GF107991999999999999999999MA1101591999999REMMET061METAR EDOP 180420Z 03005KT 340V060 9999 BKN030 M01/M03 Q1016;
0153101624999992013011804504+53417+011783FM-15+0051EDOP V0200301N002610090019N0112651N1-00201-00301999999ADDGA1021+003001999GA2071+009001999GF107991999999999999999999MA1101591999999REMMET068METAR EDOP 180450Z 03005KT 360V070 9999 FEW010 BKN030 M02/M03 Q1016;
0145101624999992013011805204+53417+011783FM-15+0051EDOP V0200401N002610090019N0112651N1-00201-00201999999ADDGA1021+003001999GA2071+009001999GF107991999999999999999999MA1101591999999REMMET060METAR EDOP 180520Z 04005KT 9999 FEW010 BKN030 M02/M02 Q1016;
0153101624999992013011805504+53417+011783FM-15+0051EDOP V0200401N002610090019N0112651N1-00201-00201999999ADDGA1041+005101999GA2071+009001999GF107991999999999999999999MA1101591999999REMMET068METAR EDOP 180550Z 04005KT 010V070 9999 SCT017 BKN030 M02/M02 Q1016;
0163101624999992013011806204+53417+011783FM-15+0051EDOP V0200501N002610087019N0090001N1-00201-00201999999ADDGA1041+004501999GA2071+008701999GF107991999999999999999999MA1101591999999MW1711REMMET072METAR EDOP 180620Z 05005KT 030V090 9000 -SN SCT015 BKN029 M02/M02 Q1016;
0155101624999992013011806504+53417+011783FM-15+0051EDOP V0200401N002110081019N0112651N1-00201-00201999999ADDGA1021+004501999GA2071+008101999GF107991999999999999999999MA1101591999999MW1711REMMET064METAR EDOP 180650Z 04004KT 9999 -SN FEW015 BKN027 M02/M02 Q1016;
0145101624999992013011807204+53417+011783FM-15+0051EDOP V0200401N002110081019N0112651N1-00201-00201999999ADDGA1021+004501999GA2071+008101999GF107991999999999999999999MA1101591999999REMMET060METAR EDOP 180720Z 04004KT 9999 FEW015 BKN027 M02/M02 Q1016;
0145101624999992013011807504+53417+011783FM-15+0051EDOP V0200501N002110075019N0090001N1-00201-00201999999ADDGA1021+005101999GA2071+007501999GF107991999999999999999999MA1101591999999REMMET060METAR EDOP 180750Z 05004KT 9000 FEW017 BKN025 M02/M02 Q1016;
0130101624999992013011808204+53417+011783FM-15+0051EDOP V0200501N002110075019N0112651N1-00201-00201999999ADDGA1071+007501999GF107991999999999999999999MA1101591999999REMMET061METAR EDOP 180820Z 05004KT 020V080 9999 BKN025 M02/M02 Q1016;
0153101624999992013011808504+53417+011783FM-15+0051EDOP V0200501N002110090019N0112651N1-00201-00201999999ADDGA1021+004501999GA2071+009001999GF107991999999999999999999MA1101591999999REMMET068METAR EDOP 180850Z 05004KT 020V080 9999 FEW015 BKN030 M02/M02 Q1016;
0145101624999992013011809204+53417+011783FM-15+0051EDOP V0200501N002110078019N0112651N1-00201-00201999999ADDGA1041+003601999GA2071+007801999GF107991999999999999999999MA1101491999999REMMET060METAR EDOP 180920Z 05004KT 9999 SCT012 BKN026 M02/M02 Q1015;
0145101624999992013011809504+53417+011783FM-15+0051EDOP V0200601N002610060019N0112651N1-00101-00201999999ADDGA1021+003001999GA2071+006001999GF107991999999999999999999MA1101491999999REMMET060METAR EDOP 180950Z 06005KT 9999 FEW010 BKN020 M01/M02 Q1015;
0153101624999992013011810204+53417+011783FM-15+0051EDOP V0200701N002610096019N0112651N1-00101-00201999999ADDGA1021+003001999GA2071+009601999GF107991999999999999999999MA1101491999999REMMET068METAR EDOP 181020Z 07005KT 040V100 9999 FEW010 BKN032 M01/M02 Q1015;
0153101624999992013011810504+53417+011783FM-15+0051EDOP V0200701N003110045019N0112651N1-00101-00201999999ADDGA1021+003001999GA2071+004501999GF107991999999999999999999MA1101491999999REMMET068METAR EDOP 181050Z 07006KT 030V100 9999 FEW010 BKN015 M01/M02 Q1015;
0145101624999992013011811204+53417+011783FM-15+0051EDOP V0200801N004610045019N0112651N1-00101-00301999999ADDGA1021+003001999GA2071+004501999GF107991999999999999999999MA1101391999999REMMET060METAR EDOP 181120Z 08009KT 9999 FEW010 BKN015 M01/M03 Q1014;
0153101624999992013011811504+53417+011783FM-15+0051EDOP V0200901N004110090019N0112651N1-00101-00401999999ADDGA1041+004501999GA2071+009001999GF107991999999999999999999MA1101391999999REMMET068METAR EDOP 181150Z 09008KT 060V120 9999 SCT015 BKN030 M01/M04 Q1014;
0122101624999992013011812204+53417+011783FM-15+0051EDOP V0200901N004610075019N0112651N1-00101-00401999999ADDGA1071+007501999GF107991999999999999999999MA1101391999999REMMET053METAR EDOP 181220Z 09009KT 9999 BKN025 M01/M04 Q1014;
0122101624999992013011812504+53417+011783FM-15+0051EDOP V0200901N003110084019N0112651N1-00101-00501999999ADDGA1071+008401999GF107991999999999999999999MA1101291999999REMMET053METAR EDOP 181250Z 09006KT 9999 BKN028 M01/M05 Q1013;
0145101624999992013011813204+53417+011783FM-15+0051EDOP V0200701N004610090019N0112651N1-00101-00501999999ADDGA1041+006001999GA2071+009001999GF107991999999999999999999MA1101291999999REMMET060METAR EDOP 181320Z 07009KT 9999 SCT020 BKN030 M01/M05 Q1013;
0122101624999992013011813504+53417+011783FM-15+0051EDOP V0200801N004610072019N0112651N1-00101-00501999999ADDGA1071+007201999GF107991999999999999999999MA1101291999999REMMET053METAR EDOP 181350Z 08009KT 9999 BKN024 M01/M05 Q1013;
0122101624999992013011814204+53417+011783FM-15+0051EDOP V0200901N004110072019N0112651N1-00101-00501999999ADDGA1071+007201999GF107991999999999999999999MA1101291999999REMMET053METAR EDOP 181420Z 09008KT 9999 BKN024 M01/M05 Q1013;
0130101624999992013011814504+53417+011783FM-15+0051EDOP V0201001N005110075019N0112651N1-00201-00601999999ADDGA1071+007501999GF107991999999999999999999MA1101291999999REMMET061METAR EDOP 181450Z 10010KT 060V120 9999 BKN025 M02/M06 Q1013;
0122101624999992013011815204+53417+011783FM-15+0051EDOP V0201001N005710075019N0112651N1-00201-00601999999ADDGA1071+007501999GF107991999999999999999999MA1101291999999REMMET053METAR EDOP 181520Z 10011KT 9999 BKN025 M02/M06 Q1013;
0122101624999992013011815504+53417+011783FM-15+0051EDOP V0201001N005710066019N0112651N1-00201-00601999999ADDGA1071+006601999GF107991999999999999999999MA1101191999999REMMET053METAR EDOP 181550Z 10011KT 9999 BKN022 M02/M06 Q1012;
0122101624999992013011816204+53417+011783FM-15+0051EDOP V0200801N005110066019N0112651N1-00201-00601999999ADDGA1071+006601999GF107991999999999999999999MA1101191999999REMMET053METAR EDOP 181620Z 08010KT 9999 BKN022 M02/M06 Q1012;
0122101624999992013011816504+53417+011783FM-15+0051EDOP V0200901N006210066019N0112651N1-00201-00701999999ADDGA1071+006601999GF107991999999999999999999MA1101191999999REMMET053METAR EDOP 181650Z 09012KT 9999 BKN022 M02/M07 Q1012;
0122101624999992013011907204+53417+011783FM-15+0051EDOP V0200801N005110060019N0112651N1-00401-00801999999ADDGA1071+006001999GF107991999999999999999999MA1100611999999REMMET053METAR EDOP 190720Z 08010KT 9999 BKN020 M04/M08 Q1006;
