0171102340999992008033116204+53133+009350FM-15+0061ETGQ V0202801N00211021001CN0112651N1+01501+00101999999ADDGA1021+014401999GA2041+021001999GA3071+069001999GF107991999999999999999999MA1101801999999REMMET070METAR ETGQ 311620Z 28004KT 9999 FEW048 SCT070 BKN230 15/01 Q1018 BLU/;
0171102340999992008033117204+53133+009350FM-15+0061ETGQ V0202501N00151024001CN0112651N1+01401+00201999999ADDGA1021+014401999GA2041+024001999GA3071+069001999GF107991999999999999999999MA1101901999999REMMET070METAR ETGQ 311720Z 25003KT 9999 FEW048 SCT080 BKN230 14/02 Q1019 BLU/;
0171102340999992008033118204+53133+009350FM-15+0061ETGQ V0209999C00001027001CN0112651N1+01301+00201999999ADDGA1021+014401999GA2041+027001999GA3071+069001999GF107991999999999999999999MA1102001999999REMMET070METAR ETGQ 311820Z 00000KT 9999 FEW048 SCT090 BKN230 13/02 Q1020 BLU/;
0076102340999992008040104204+53133+009350FM-15+0061ETGQ V0202301N001012200019N0112651N1+00401+00201999999ADDMA1102301999999REMMET049METAR ETGQ 010420Z 23002KT 9999 04/02 Q1023 BLU/;
0076102340999992008040105204+53133+009350FM-15+0061ETGQ V0209999C000012200019N0112651N1+00301+00201999999ADDMA1102401999999REMMET049METAR ETGQ 010520Z 00000KT 9999 03/02 Q1024 BLU/;
0076102340999992008040106204+53133+009350FM-15+0061ETGQ V0209999C000012200019N0112651N1+00501+00201999999ADDMA1102401999999REMMET049METAR ETGQ 010620Z 00000KT 9999 05/02 Q1024 BLU/;
0125102340999992008040107204+53133+009350FM-15+0061ETGQ V0202601N001012200019N0112651N1+00601+00301999999ADDGA1021+075001999GF102991999999999999999999MA1102401999999REMMET056METAR ETGQ 010720Z 26002KT 9999 FEW250 06/03 Q1024 BLU/;
0125102340999992008040108204+53133+009350FM-15+0061ETGQ V0209999C000012200019N0112651N1+00901+00401999999ADDGA1021+075001999GF102991999999999999999999MA1102401999999REMMET056METAR ETGQ 010820Z 00000KT 9999 FEW250 09/04 Q1024 BLU/;
0125102340999992008040109204+53133+009350FM-15+0061ETGQ V0202301N001012200019N0112651N1+01201+00401999999ADDGA1021+009001999GF102991999999999999999999MA1102301999999REMMET056METAR ETGQ 010920Z 23002KT 9999 FEW030 12/04 Q1023 BLU/;
0148102340999992008040110204+53133+009350FM-15+0061ETGQ V0202401N002610750019N0112651N1+01501+00301999999ADDGA1021+012001999GA2071+075001999GF107991999999999999999999MA1102201999999REMMET063METAR ETGQ 011020Z 24005KT 9999 FEW040 BKN250 15/03 Q1022 BLU/;
0148102340999992008040111204+53133+009350FM-15+0061ETGQ V0202401N004110750019N0112651N1+01401+00101999999ADDGA1021+012001999GA2071+075001999GF107991999999999999999999MA1102201999999REMMET063METAR ETGQ 011120Z 24008KT 9999 FEW040 BKN250 14/01 Q1022 BLU/;
0148102340999992008040112204+53133+009350FM-15+0061ETGQ V0202401N003610600019N0112651N1+01601+00301999999ADDGA1021+012001999GA2071+060001999GF107991999999999999999999MA1102101999999REMMET063METAR ETGQ 011220Z 24007KT 9999 FEW040 BKN200 16/03 Q1021 BLU/;
0170102340999992008040113204+53133+009350FM-15+0061ETGQ V0202201N00361039001CN0112651N1+01601+00201999999ADDGA1021+012001999GA2041+039001999GA3071+054001999GF107991999999999999999999MA1102001999999REMMET069METAR ETGQ 011320Z 22007KT 9999 FEW040 SCT130 BKN180 16/02 Q1020 BLU;
0170102340999992008040114204+53133+009350FM-15+0061ETGQ V0202201N00361036001CN0112651N1+01501+00201999999ADDGA1021+012001999GA2041+036001999GA3071+054001999GF107991999999999999999999MA1101901999999REMMET069METAR ETGQ 011420Z 22007KT 9999 FEW040 SCT120 BKN180 15/02 Q1019 BLU;
0147102340999992008040115204+53133+009350FM-15+0061ETGQ V0202201N003610300019N0112651N1+01501+00201999999ADDGA1041+015001999GA2081+030001999GF108991999999999999999999MA1101901999999REMMET062METAR ETGQ 011520Z 22007KT 9999 SCT050 OVC100 15/02 Q1019 BLU;
0169102340999992008040116204+53133+009350FM-15+0061ETGQ V0202601N004110150019N0112651N1+01301+00301999999ADDGA1021+009001999GA2081+015001999GF108991999999999999999999MA1101901999999MW1161OC100931REMMET070METAR ETGQ 011620Z 26008G18KT 9999 VCSH FEW030 OVC050 13/03 Q1019 BLU;
0175102340999992008040117204+53133+009350FM-15+0061ETGQ V0202601N004610150019N0112651N1+01301+00401999999ADDGA1021+009001999GA2071+015001999GA3071+030001999GF107991999999999999999999MA1102001999999REMMET074METAR ETGQ 011720Z 26009KT 9999 FEW030 BKN050 BKN100 13/04 Q1020 RERA BLU;
0170102340999992008040118204+53133+009350FM-15+0061ETGQ V0202501N003610105019N0112651N1+01201+00501999999ADDGA1021+003001999GA2071+010501999GA3071+015001999GF107991999999999999999999MA1102001999999REMMET069METAR ETGQ 011820Z 25007KT 9999 FEW010 BKN035 BKN050 12/05 Q1020 BLU;
0124102340999992008040204204+53133+009350FM-15+0061ETGQ V0202501N002110180019N0112651N1+00901+00501999999ADDGA1071+018001999GF107991999999999999999999MA1102001999999REMMET055METAR ETGQ 020420Z 25004KT 9999 BKN060 09/05 Q1020 BLU;
0170102340999992008040205204+53133+009350FM-15+0061ETGQ V0202601N002110141019N0112651N1+00901+00401999999ADDGA1021+009901999GA2071+014101999GA3071+024001999GF107991999999999999999999MA1102001999999REMMET069METAR ETGQ 020520Z 26004KT 9999 FEW033 BKN047 BKN080 09/04 Q1020 BLU;
0181102340999992008040206204+53133+009350FM-15+0061ETGQ V0202701N002610120019N0112651N1+00901+00401999999ADDGA1021+009001999GA2071+012001999GA3081+024001999GF108991999999999999999999MA1102001999999MW1161REMMET074METAR ETGQ 020620Z 27005KT 9999 VCSH FEW030 BKN040 OVC080 09/04 Q1020 BLU;
0152102340999992008040207204+53133+009350FM-15+0061ETGQ V0202601N002610120019N0112651N1+00901+00401999999ADDGA1041+009001999GA2081+012001999GF108991999999999999999999MA1102001999999REMMET067METAR ETGQ 020720Z 26005KT 9999 SCT030 OVC040 09/04 Q1020 RERA BLU;
0147102340999992008040208204+53133+009350FM-15+0061ETGQ V0202801N003610120019N0112651N1+01001+00301999999ADDGA1041+009001999GA2081+012001999GF108991999999999999999999MA1102101999999REMMET062METAR ETGQ 020820Z 28007KT 9999 SCT030 OVC040 10/03 Q1021 BLU;
0147102340999992008040209204+53133+009350FM-15+0061ETGQ V0203101N004610120019N0112651N1+01001+00301999999ADDGA1041+009001999GA2071+012001999GF107991999999999999999999MA1102101999999REMMET062METAR ETGQ 020920Z 31009KT 9999 SCT030 BKN040 10/03 Q1021 BLU;
0147102340999992008040210204+53133+009350FM-15+0061ETGQ V0203101N003610135019N0112651N1+01001+00301999999ADDGA1041+010501999GA2071+013501999GF107991999999999999999999MA1102101999999REMMET062METAR ETGQ 021020Z 31007KT 9999 SCT035 BKN045 10/03 Q1021 BLU;
0147102340999992008040211204+53133+009350FM-15+0061ETGQ V0203201N003610135019N0112651N1+01101+00301999999ADDGA1041+010501999GA2071+013501999GF107991999999999999999999MA1102101999999REMMET062METAR ETGQ 021120Z 32007KT 9999 SCT035 BKN045 11/03 Q1021 BLU;
0124102340999992008040213204+53133+009350FM-15+0061ETGQ V0203001N002610114019N0112651N1+01001+00301999999ADDGA1071+011401999GF107991999999999999999999MA1102101999999REMMET055METAR ETGQ 021320Z 30005KT 9999 BKN038 10/03 Q1021 BLU;
0124102340999992008040214204+53133+009350FM-15+0061ETGQ V0203101N003610120019N0112651N1+01101+00301999999ADDGA1071+012001999GF107991999999999999999999MA1102101999999REMMET055METAR ETGQ 021420Z 31007KT 9999 BKN040 11/03 Q1021 BLU;
0124102340999992008040215204+53133+009350FM-15+0061ETGQ V0203101N002610123019N0112651N1+01101+00301999999ADDGA1071+012301999GF107991999999999999999999MA1102101999999REMMET055METAR ETGQ 021520Z 31005KT 9999 BKN041 11/03 Q1021 BLU;
0124102340999992008040216204+53133+009350FM-15+0061ETGQ V0203201N004110120019N0112651N1+01101+00301999999ADDGA1071+012001999GF107991999999999999999999MA1102101999999REMMET055METAR ETGQ 021620Z 32008KT 9999 BKN040 11/03 Q1021 BLU;
0124102340999992008040217204+53133+009350FM-15+0061ETGQ V0203201N005110123019N0112651N1+01001+00301999999ADDGA1071+012301999GF107991999999999999999999MA1102101999999REMMET055METAR ETGQ 021720Z 32010KT 9999 BKN041 10/03 Q1021 BLU;
0147102340999992008040218204+53133+009350FM-15+0061ETGQ V0203201N006210090019N0112651N1+01001+00301999999ADDGA1071+009001999GA2071+015001999GF107991999999999999999999MA1102101999999REMMET062METAR ETGQ 021820Z 32012KT 9999 BKN030 BKN050 10/03 Q1021 BLU;
0147102340999992008040304204+53133+009350FM-15+0061ETGQ V0203201N004110111019N0112651N1+00601+00301999999ADDGA1021+006001999GA2071+011101999GF107991999999999999999999MA1102201999999REMMET062METAR ETGQ 030420Z 32008KT 9999 FEW020 BKN037 06/03 Q1022 BLU;
0134102340999992008040305204+53133+009350FM-15+0061ETGQ V0203001N003110039019N0080001N1+00601+00301999999ADDGA1081+003901999GF108991999999999999999999MA1102201999999MW1511REMMET059METAR ETGQ 030520Z 30006KT 8000 -DZ OVC013 06/03 Q1022 GRN;
0142102340999992008040306204+53133+009350FM-15+0061ETGQ V0203101N003110042019N0080001N1+00601+00401999999ADDGA1081+004201999GF108991999999999999999999MA1102201999999MW1511MW2611REMMET061METAR ETGQ 030620Z 31006KT 8000 -DZRA OVC014 06/04 Q1022 GRN;
0147102340999992008040307204+53133+009350FM-15+0061ETGQ V0203101N003110048019N0112651N1+00601+00401999999ADDGA1021+003001999GA2071+004801999GF107991999999999999999999MA1102301999999REMMET062METAR ETGQ 030720Z 31006KT 9999 FEW010 BKN016 06/04 Q1023 WHT;
0124102340999992008040308204+53133+009350FM-15+0061ETGQ V0203201N002610042019N0112651N1+00701+00401999999ADDGA1071+004201999GF107991999999999999999999MA1102401999999REMMET055METAR ETGQ 030820Z 32005KT 9999 BKN014 07/04 Q1024 GRN;
0147102340999992008040309204+53133+009350FM-15+0061ETGQ V0203201N003110150019N0112651N1+00701+00401999999ADDGA1041+006001999GA2071+015001999GF107991999999999999999999MA1102401999999REMMET062METAR ETGQ 030920Z 32006KT 9999 SCT020 BKN050 07/04 Q1024 BLU;
0159102340999992008040310204+53133+009350FM-15+0061ETGQ V0200101N004110075019N0112651N1+00801+00401999999ADDGA1021+006001999GA2071+007501999GF107991999999999999999999MA1102401999999MW1801REMMET068METAR ETGQ 031020Z 01008KT 9999 -SHRA FEW020 BKN025 08/04 Q1024 BLU;
0147102340999992008040311204+53133+009350FM-15+0061ETGQ V0203201N004610105019N0112651N1+00901+00401999999ADDGA1041+006001999GA2071+010501999GF107991999999999999999999MA1102401999999REMMET062METAR ETGQ 031120Z 32009KT 9999 SCT020 BKN035 09/04 Q1024 BLU;
0173102340999992008040312204+53133+009350FM-15+0061ETGQ V0203301N00571009001CN0112651N1+00801+00401999999ADDGA1021+006001999GA2041+009001021GA3071+013501999GF107991999999999999999999MA1102511999999REMMET072METAR ETGQ 031220Z 33011KT 9999 FEW020 SCT030TCU BKN045 08/04 Q1025 BLU;
0170102340999992008040313204+53133+009350FM-15+0061ETGQ V0203501N00361009001CN0112651N1+00901+00401999999ADDGA1021+006001999GA2041+009001999GA3071+015001999GF107991999999999999999999MA1102511999999REMMET069METAR ETGQ 031320Z 35007KT 9999 FEW020 SCT030 BKN050 09/04 Q1025 BLU;
0170102340999992008040314204+53133+009350FM-15+0061ETGQ V0203301N00311009001CN0112651N1+00801+00401999999ADDGA1021+006001999GA2041+009001999GA3071+015001999GF107991999999999999999999MA1102511999999REMMET069METAR ETGQ 031420Z 33006KT 9999 FEW020 SCT030 BKN050 08/04 Q1025 BLU;
0170102340999992008040315204+53133+009350FM-15+0061ETGQ V0203401N00411009001CN0112651N1+00901+00401999999ADDGA1021+006001999GA2041+009001999GA3071+018001999GF107991999999999999999999MA1102511999999REMMET069METAR ETGQ 031520Z 34008KT 9999 FEW020 SCT030 BKN060 09/04 Q1025 BLU;
0170102340999992008040316204+53133+009350FM-15+0061ETGQ V0203301N00411010501CN0112651N1+00901+00401999999ADDGA1021+006601999GA2041+010501999GA3071+018001999GF107991999999999999999999MA1102611999999REMMET069METAR ETGQ 031620Z 33008KT 9999 FEW022 SCT035 BKN060 09/04 Q1026 BLU;
0170102340999992008040317204+53133+009350FM-15+0061ETGQ V0203501N00311010501CN0112651N1+00801+00401999999ADDGA1021+007501999GA2041+010501999GA3071+018001999GF107991999999999999999999MA1102611999999REMMET069METAR ETGQ 031720Z 35006KT 9999 FEW025 SCT035 BKN060 08/04 Q1026 BLU;
0147102340999992008040318204+53133+009350FM-15+0061ETGQ V0203201N003110180019N0112651N1+00801+00401999999ADDGA1041+007201999GA2071+018001999GF107991999999999999999999MA1102711999999REMMET062METAR ETGQ 031820Z 32006KT 9999 SCT024 BKN060 08/04 Q1027 BLU;
0124102340999992008040404204+53133+009350FM-15+0061ETGQ V0209999C000010036019N0112651N1+00601+00401999999ADDGA1071+003601999GF107991999999999999999999MA1102911999999REMMET055METAR ETGQ 040420Z 00000KT 9999 BKN012 06/04 Q1029 GRN;
0124102340999992008040405204+53133+009350FM-15+0061ETGQ V0209999C000010066019N0112651N1+00601+00401999999ADDGA1081+006601999GF108991999999999999999999MA1102911999999REMMET055METAR ETGQ 040520Z 00000KT 9999 OVC022 06/04 Q1029 WHT;
0124102340999992008040406204+53133+009350FM-15+0061ETGQ V0203201N000510039019N0112651N1+00601+00401999999ADDGA1071+003901999GF107991999999999999999999MA1102911999999REMMET055METAR ETGQ 040620Z 32001KT 9999 BKN013 06/04 Q1029 GRN;
0147102340999992008040408204+53133+009350FM-15+0061ETGQ V0209999V000510141019N0112651N1+00701+00301999999ADDGA1041+004501999GA2071+014101999GF107991999999999999999999MA1102911999999REMMET062METAR ETGQ 040820Z VRB01KT 9999 SCT015 BKN047 07/03 Q1029 BLU;
0124102340999992008040409204+53133+009350FM-15+0061ETGQ V0202001N001510081019N0112651N1+00801+00301999999ADDGA1071+008101999GF107991999999999999999999MA1102911999999REMMET055METAR ETGQ 040920Z 20003KT 9999 BKN027 08/03 Q1029 BLU;
0124102340999992008040410204+53133+009350FM-15+0061ETGQ V0202001N001510072019N0112651N1+00901+00301999999ADDGA1071+007201999GF107991999999999999999999MA1102811999999REMMET055METAR ETGQ 041020Z 20003KT 9999 BKN024 09/03 Q1028 WHT;
0124102340999992008040411204+53133+009350FM-15+0061ETGQ V0202101N001010072019N0112651N1+00901+00301999999ADDGA1071+007201999GF107991999999999999999999MA1102811999999REMMET055METAR ETGQ 041120Z 21002KT 9999 BKN024 09/03 Q1028 WHT;
0147102340999992008040412204+53133+009350FM-15+0061ETGQ V0203301N001510300019N0112651N1+01001+00401999999ADDGA1041+008101999GA2071+030001999GF107991999999999999999999MA1102711999999REMMET062METAR ETGQ 041220Z 33003KT 9999 SCT027 BKN100 10/04 Q1027 BLU;
0147102340999992008040413204+53133+009350FM-15+0061ETGQ V0203301N002110300019N0112651N1+01201+00201999999ADDGA1041+009001999GA2071+030001999GF107991999999999999999999MA1102611999999REMMET062METAR ETGQ 041320Z 33004KT 9999 SCT030 BKN100 12/02 Q1026 BLU;
0147102340999992008040414204+53133+009350FM-15+0061ETGQ V0203501N004110270019N0112651N1+01101+00201999999ADDGA1041+010501999GA2071+027001999GF107991999999999999999999MA1102511999999REMMET062METAR ETGQ 041420Z 35008KT 9999 SCT035 BKN090 11/02 Q1025 BLU;
0147102340999992008040415204+53133+009350FM-15+0061ETGQ V0200101N003110240019N0112651N1+01001+00301999999ADDGA1041+009001999GA2071+024001999GF107991999999999999999999MA1102511999999REMMET062METAR ETGQ 041520Z 01006KT 9999 SCT030 BKN080 10/03 Q1025 BLU;
0147102340999992008040416204+53133+009350FM-15+0061ETGQ V0209999V000510090019N0112651N1+01001+00301999999ADDGA1071+009001999GA2071+024001999GF107991999999999999999999MA1102401999999REMMET062METAR ETGQ 041620Z VRB01KT 9999 BKN030 BKN080 10/03 Q1024 BLU;
0147102340999992008040417204+53133+009350FM-15+0061ETGQ V0203101N001010105019N0112651N1+01001+00401999999ADDGA1071+010501999GA2071+024001999GF107991999999999999999999MA1102301999999REMMET062METAR ETGQ 041720Z 31002KT 9999 BKN035 BKN080 10/04 Q1023 BLU;
0147102340999992008040418204+53133+009350FM-15+0061ETGQ V0209999C000010120019N0112651N1+01001+00401999999ADDGA1021+010501999GA2071+012001999GF107991999999999999999999MA1102301999999REMMET062METAR ETGQ 041820Z 00000KT 9999 FEW035 BKN040 10/04 Q1023 BLU;
0134102340999992008040704204+53133+009350FM-15+0061ETGQ V0209999C000010003019N0050001N1+00001+00001999999ADDGA1071+000301999GF107991999999999999999999MA1099701999999MW1711REMMET059METAR ETGQ 070420Z 00000KT 5000 -SN BKN001 00/00 Q0997 RED;
0143102340999992008040705204+53133+009350FM-15+0061ETGQ V0203201N000510009019N0030001N1+00001+00001999999ADDGA1081+000901999GF108991999999999999999999MA1099801999999MW1101MW2711REMMET062METAR ETGQ 070520Z 32001KT 3000 -SN BR OVC003 00/00 Q0998 YLO;
0143102340999992008040706204+53133+009350FM-15+0061ETGQ V0209999C000010012019N0030001N1+00001+00001999999ADDGA1081+001201999GF108991999999999999999999MA1099801999999MW1101MW2711REMMET062METAR ETGQ 070620Z 00000KT 3000 -SN BR OVC004 00/00 Q0998 YLO;
0148102340999992008040707204+53133+009350FM-15+0061ETGQ V0209999V000510015019N0030001N1+00101+00101999999ADDGA1081+001501999GF108991999999999999999999MA1099901999999MW1101MW2711REMMET067METAR ETGQ 070720Z VRB01KT 3000 -SN BR OVC005 01/01 Q0999 RESN YLO;
0171102340999992008040708204+53133+009350FM-15+0061ETGQ V0202501N001510021019N0030001N1+00101+00101999999ADDGA1041+001501999GA2081+002101999GF108991999999999999999999MA1100001999999MW1101MW2711REMMET074METAR ETGQ 070820Z 25003KT 3000 -SN BR SCT005 OVC007 01/01 Q1000 RESN YLO;
0157102340999992008040709204+53133+009350FM-15+0061ETGQ V0202301N002610033019N0060001N1+00201+00101999999ADDGA1021+001801999GA2081+003301999GF108991999999999999999999MA1100001999999MW1511REMMET066METAR ETGQ 070920Z 23005KT 6000 -DZ FEW006 OVC011 02/01 Q1000 GRN;
0165102340999992008040710204+53133+009350FM-15+0061ETGQ V0202401N002610036019N0060001N1+00201+00101999999ADDGA1021+003001999GA2081+003601999GF108991999999999999999999MA1100101999999MW1611MW2711REMMET068METAR ETGQ 071020Z 24005KT 6000 -RASN FEW010 OVC012 02/01 Q1001 GRN;
0165102340999992008040711204+53133+009350FM-15+0061ETGQ V0202501N002610033019N0060001N1+00201+00101999999ADDGA1021+002101999GA2081+003301999GF108991999999999999999999MA1100201999999MW1611MW2711REMMET068METAR ETGQ 071120Z 25005KT 6000 -RASN FEW007 OVC011 02/01 Q1002 GRN;
0165102340999992008040712204+53133+009350FM-15+0061ETGQ V0202401N002110129019N0112651N1+00301+00201999999ADDGA1021+006001999GA2071+012901999GF107991999999999999999999MA1100311999999MW1611MW2711REMMET068METAR ETGQ 071220Z 24004KT 9999 -RASN FEW020 BKN043 03/02 Q1003 BLU;
0134102340999992008040713204+53133+009350FM-15+0061ETGQ V0202201N002610075019N0080001N1+00301+00201999999ADDGA1071+007501999GF107991999999999999999999MA1100411999999MW1611REMMET059METAR ETGQ 071320Z 22005KT 8000 -RA BKN025 03/02 Q1004 BLU;
0157102340999992008040714204+53133+009350FM-15+0061ETGQ V0202101N004110114019N0112651N1+00401+00101999999ADDGA1021+005401999GA2071+011401999GF107991999999999999999999MA1100411999999MW1611REMMET066METAR ETGQ 071420Z 21008KT 9999 -RA FEW018 BKN038 04/01 Q1004 BLU;
0147102340999992008040715204+53133+009350FM-15+0061ETGQ V0202101N003610150019N0112651N1+00401+00201999999ADDGA1021+005401999GA2071+015001999GF107991999999999999999999MA1100511999999REMMET062METAR ETGQ 071520Z 21007KT 9999 FEW018 BKN050 04/02 Q1005 BLU;
0125102340999992008040716204+53133+009350FM-15+0061ETGQ V0202201N004112200019N0112651N1+00401+00101999999ADDGA1041+015001999GF104991999999999999999999MA1100511999999REMMET056METAR ETGQ 071620Z 22008KT 9999 SCT050 04/01 Q1005 BLU/;
0124102340999992008040717204+53133+009350FM-15+0061ETGQ V0202101N003610135019N0112651N1+00401+00101999999ADDGA1071+013501999GF107991999999999999999999MA1100611999999REMMET055METAR ETGQ 071720Z 21007KT 9999 BKN045 04/01 Q1006 BLU;
0124102340999992008040718204+53133+009350FM-15+0061ETGQ V0209999V000510135019N0112651N1+00301+00101999999ADDGA1071+013501999GF107991999999999999999999MA1100711999999REMMET055METAR ETGQ 071820Z VRB01KT 9999 BKN045 03/01 Q1007 BLU;
0134102340999992008040804204+53133+009350FM-15+0061ETGQ V0209999V000510012019N0040001N1+00001+00001999999ADDGA1081+001201999GF108991999999999999999999MA1100711999999MW1101REMMET059METAR ETGQ 080420Z VRB01KT 4000 BR OVC004 00/M00 Q1007 YLO;
0134102340999992008040805204+53133+009350FM-15+0061ETGQ V0201901N000510012019N0040001N1+00001+00001999999ADDGA1081+001201999GF108991999999999999999999MA1100711999999MW1101REMMET059METAR ETGQ 080520Z 19001KT 4000 BR OVC004 00/M00 Q1007 YLO;
0134102340999992008040806204+53133+009350FM-15+0061ETGQ V0209999V000510015019N0040001N1+00101+00001999999ADDGA1081+001501999GF108991999999999999999999MA1100711999999MW1101REMMET059METAR ETGQ 080620Z VRB01KT 4000 BR OVC005 01/M00 Q1007 YLO;
0134102340999992008040807204+53133+009350FM-15+0061ETGQ V0201201N002110018019N0050001N1+00101-00101999999ADDGA1081+001801999GF108991999999999999999999MA1100711999999MW1101REMMET059METAR ETGQ 080720Z 12004KT 5000 BR OVC006 01/M01 Q1007 YLO;
0125102340999992008040808204+53133+009350FM-15+0061ETGQ V0201001N000510021019N0070001N1+00101-00101999999ADDGA1081+002101999GF108991999999999999999999MA1100711999999REMMET056METAR ETGQ 080820Z 10001KT 7000 OVC007 01/M01 Q1007 GRN;
0125102340999992008040809204+53133+009350FM-15+0061ETGQ V0209999V000510036019N0080001N1+00301+00001999999ADDGA1071+003601999GF107991999999999999999999MA1100711999999REMMET056METAR ETGQ 080920Z VRB01KT 8000 BKN012 03/M00 Q1007 GRN;
0124102340999992008040810204+53133+009350FM-15+0061ETGQ V0201801N002110042019N0080001N1+00301+00001999999ADDGA1071+004201999GF107991999999999999999999MA1100711999999REMMET055METAR ETGQ 081020Z 18004KT 8000 BKN014 03/00 Q1007 GRN;
0125102340999992008040811204+53133+009350FM-15+0061ETGQ V0200901N002110042019N0080001N1+00401+00001999999ADDGA1071+004201999GF107991999999999999999999MA1100611999999REMMET056METAR ETGQ 081120Z 09004KT 8000 BKN014 04/M00 Q1006 GRN;
0124102340999992008040812204+53133+009350FM-15+0061ETGQ V0201101N002110063019N0112651N1+00601+00101999999ADDGA1071+006301999GF107991999999999999999999MA1100611999999REMMET055METAR ETGQ 081220Z 11004KT 9999 BKN021 06/01 Q1006 WHT;
0147102340999992008040814204+53133+009350FM-15+0061ETGQ V0200501N002110390019N0112651N1+00601+00001999999ADDGA1041+006901999GA2071+039001999GF107991999999999999999999MA1100511999999REMMET062METAR ETGQ 081420Z 05004KT 9999 SCT023 BKN130 06/00 Q1005 BLU;
0147102340999992008040817204+53133+009350FM-15+0061ETGQ V0200701N001510390019N0112651N1+00701+00001999999ADDGA1021+006901999GA2071+039001999GF107991999999999999999999MA1100411999999REMMET062METAR ETGQ 081720Z 07003KT 9999 FEW023 BKN130 07/00 Q1004 BLU;
0124102340999992008040818204+53133+009350FM-15+0061ETGQ V0200301N000510360019N0112651N1+00701+00101999999ADDGA1071+036001999GF107991999999999999999999MA1100411999999REMMET055METAR ETGQ 081820Z 03001KT 9999 BKN120 07/01 Q1004 BLU;
0124102340999992008040904204+53133+009350FM-15+0061ETGQ V0202201N000510240019N0080001N1+00301+00201999999ADDGA1071+024001999GF107991999999999999999999MA1100001999999REMMET055METAR ETGQ 090420Z 22001KT 8000 BKN080 03/02 Q1000 BLU;
0147102340999992008040905204+53133+009350FM-15+0061ETGQ V0209999C000010330019N0080001N1+00301+00201999999ADDGA1041+021001999GA2071+033001999GF107991999999999999999999MA1100001999999REMMET062METAR ETGQ 090520Z 00000KT 8000 SCT070 BKN110 03/02 Q1000 BLU;
0124102340999992008040906204+53133+009350FM-15+0061ETGQ V0202401N001010210019N0080001N1+00301+00201999999ADDGA1071+021001999GF107991999999999999999999MA1100001999999REMMET055METAR ETGQ 090620Z 24002KT 8000 BKN070 03/02 Q1000 BLU;
0147102340999992008040907204+53133+009350FM-15+0061ETGQ V0203401N000510540019N0080001N1+00401+00201999999ADDGA1021+003001999GA2071+054001999GF107991999999999999999999MA1100001999999REMMET062METAR ETGQ 090720Z 34001KT 8000 FEW010 BKN180 04/02 Q1000 BLU;
0124102340999992008040908204+53133+009350FM-15+0061ETGQ V0203101N000510240019N0080001N1+00501+00301999999ADDGA1071+024001999GF107991999999999999999999MA1100001999999REMMET055METAR ETGQ 090820Z 31001KT 8000 BKN080 05/03 Q1000 BLU;
0147102340999992008040909204+53133+009350FM-15+0061ETGQ V0209999V000510300019N0080001N1+00701+00201999999ADDGA1021+006001999GA2071+030001999GF107991999999999999999999MA1100001999999REMMET062METAR ETGQ 090920Z VRB01KT 8000 FEW020 BKN100 07/02 Q1000 BLU;
0147102340999992008040910204+53133+009350FM-15+0061ETGQ V0203201N001010240019N0080001N1+00701+00201999999ADDGA1021+018001999GA2071+024001999GF107991999999999999999999MA1099901999999REMMET062METAR ETGQ 091020Z 32002KT 8000 FEW060 BKN080 07/02 Q0999 BLU;
0124102340999992008040911204+53133+009350FM-15+0061ETGQ V0209999V001010120019N0112651N1+00901+00201999999ADDGA1071+012001999GF107991999999999999999999MA1099801999999REMMET055METAR ETGQ 091120Z VRB02KT 9999 BKN040 09/02 Q0998 BLU;
0124102340999992008040912204+53133+009350FM-15+0061ETGQ V0200501N002110150019N0112651N1+01001+00001999999ADDGA1071+015001999GF107991999999999999999999MA1099701999999REMMET055METAR ETGQ 091220Z 05004KT 9999 BKN050 10/00 Q0997 BLU;
0134102340999992008040913204+53133+009350FM-15+0061ETGQ V0200801N002610072019N0112651N1+00901+00101999999ADDGA1071+007201999GF107991999999999999999999MA1099701999999MW1611REMMET059METAR ETGQ 091320Z 08005KT 9999 -RA BKN024 09/01 Q0997 WHT;
0134102340999992008040914204+53133+009350FM-15+0061ETGQ V0201001N002610111019N0112651N1+00901+00201999999ADDGA1071+011101999GF107991999999999999999999MA1099701999999MW1611REMMET059METAR ETGQ 091420Z 10005KT 9999 -RA BKN037 09/02 Q0997 BLU;
0134102340999992008040915204+53133+009350FM-15+0061ETGQ V0200701N002110087019N0112651N1+00801+00301999999ADDGA1071+008701999GF107991999999999999999999MA1099701999999MW1611REMMET059METAR ETGQ 091520Z 07004KT 9999 -RA BKN029 08/03 Q0997 BLU;
0134102340999992008040916204+53133+009350FM-15+0061ETGQ V0200701N001010075019N0112651N1+00701+00401999999ADDGA1071+007501999GF107991999999999999999999MA1099701999999MW1611REMMET059METAR ETGQ 091620Z 07002KT 9999 -RA BKN025 07/04 Q0997 BLU;
0134102340999992008040917204+53133+009350FM-15+0061ETGQ V0209999C000010072019N0112651N1+00701+00401999999ADDGA1071+007201999GF107991999999999999999999MA1099701999999MW1611REMMET059METAR ETGQ 091720Z 00000KT 9999 -RA BKN024 07/04 Q0997 WHT;
0157102340999992008040918204+53133+009350FM-15+0061ETGQ V0203601N001510072019N0080001N1+00601+00401999999ADDGA1041+004501999GA2071+007201999GF107991999999999999999999MA1099701999999MW1611REMMET066METAR ETGQ 091820Z 36003KT 8000 -RA SCT015 BKN024 06/04 Q0997 WHT;
0147102340999992008041004204+53133+009350FM-15+0061ETGQ V0209999C000010360019N0080001N1+00401+00301999999ADDGA1041+018001999GA2071+036001999GF107991999999999999999999MA1099801999999REMMET062METAR ETGQ 100420Z 00000KT 8000 SCT060 BKN120 04/03 Q0998 BLU;
0124102340999992008041005204+53133+009350FM-15+0061ETGQ V0200601N001510180019N0080001N1+00401+00301999999ADDGA1071+018001999GF107991999999999999999999MA1099801999999REMMET055METAR ETGQ 100520Z 06003KT 8000 BKN060 04/03 Q0998 BLU;
0147102340999992008041006204+53133+009350FM-15+0061ETGQ V0209999C000010150019N0060001N1+00501+00301999999ADDGA1071+015001999GA2071+036001999GF107991999999999999999999MA1099901999999REMMET062METAR ETGQ 100620Z 00000KT 6000 BKN050 BKN120 05/03 Q0999 WHT;
0147102340999992008041007204+53133+009350FM-15+0061ETGQ V0209999C000010150019N0060001N1+00501+00301999999ADDGA1041+004201999GA2071+015001999GF107991999999999999999999MA1099901999999REMMET062METAR ETGQ 100720Z 00000KT 6000 SCT014 BKN050 05/03 Q0999 WHT;
0147102340999992008041008204+53133+009350FM-15+0061ETGQ V0203401N001510360019N0080001N1+00601+00301999999ADDGA1021+004501999GA2071+036001999GF107991999999999999999999MA1099901999999REMMET062METAR ETGQ 100820Z 34003KT 8000 FEW015 BKN120 06/03 Q0999 BLU;
0170102340999992008041009204+53133+009350FM-15+0061ETGQ V0203301N00211018001CN0112651N1+00701+00301999999ADDGA1021+005401999GA2041+018001999GA3071+036001999GF107991999999999999999999MA1099901999999REMMET069METAR ETGQ 100920Z 33004KT 9999 FEW018 SCT060 BKN120 07/03 Q0999 BLU;
0170102340999992008041010204+53133+009350FM-15+0061ETGQ V0200201N00151018001CN0112651N1+00801+00201999999ADDGA1021+007501999GA2041+018001999GA3071+036001999GF107991999999999999999999MA1099901999999REMMET069METAR ETGQ 101020Z 02003KT 9999 FEW025 SCT060 BKN120 08/02 Q0999 BLU;
0147102340999992008041011204+53133+009350FM-15+0061ETGQ V0203401N002610360019N0112651N1+00901+00201999999ADDGA1021+009001999GA2071+036001999GF107991999999999999999999MA1099901999999REMMET062METAR ETGQ 101120Z 34005KT 9999 FEW030 BKN120 09/02 Q0999 BLU;
0124102340999992008041012204+53133+009350FM-15+0061ETGQ V0203501N001510123019N0112651N1+01001+00001999999ADDGA1071+012301999GF107991999999999999999999MA1099901999999REMMET055METAR ETGQ 101220Z 35003KT 9999 BKN041 10/00 Q0999 BLU;
0147102340999992008041013204+53133+009350FM-15+0061ETGQ V0201701N001510240019N0112651N1+01101+00001999999ADDGA1021+012001999GA2071+024001999GF107991999999999999999999MA1099901999999REMMET062METAR ETGQ 101320Z 17003KT 9999 FEW040 BKN080 11/00 Q0999 BLU;
0124102340999992008041014204+53133+009350FM-15+0061ETGQ V0200501N001510129019N0112651N1+01101+00101999999ADDGA1071+012901999GF107991999999999999999999MA1099801999999REMMET055METAR ETGQ 101420Z 05003KT 9999 BKN043 11/01 Q0998 BLU;
0124102340999992008041015204+53133+009350FM-15+0061ETGQ V0200801N002110135019N0112651N1+01101+00201999999ADDGA1071+013501999GF107991999999999999999999MA1099801999999REMMET055METAR ETGQ 101520Z 08004KT 9999 BKN045 11/02 Q0998 BLU;
0124102340999992008041016204+53133+009350FM-15+0061ETGQ V0209999V001010150019N0112651N1+01101+00101999999ADDGA1071+015001999GF107991999999999999999999MA1099801999999REMMET055METAR ETGQ 101620Z VRB02KT 9999 BKN050 11/01 Q0998 BLU;
0124102340999992008041017204+53133+009350FM-15+0061ETGQ V0201301N002110150019N0112651N1+01001+00301999999ADDGA1071+015001999GF107991999999999999999999MA1099801999999REMMET055METAR ETGQ 101720Z 13004KT 9999 BKN050 10/03 Q0998 BLU;
0124102340999992008041018204+53133+009350FM-15+0061ETGQ V0201101N002110150019N0112651N1+00901+00301999999ADDGA1071+015001999GF107991999999999999999999MA1099801999999REMMET055METAR ETGQ 101820Z 11004KT 9999 BKN050 09/03 Q0998 BLU;
0157102340999992008041104204+53133+009350FM-15+0061ETGQ V0203201N000510114019N0080001N1+00601+00401999999ADDGA1021+004501999GA2081+011401999GF108991999999999999999999MA1099801999999MW1611REMMET066METAR ETGQ 110420Z 32001KT 8000 -RA FEW015 OVC038 06/04 Q0998 BLU;
0157102340999992008041105204+53133+009350FM-15+0061ETGQ V0209999C000010045019N0080001N1+00601+00401999999ADDGA1071+004501999GA2081+011401999GF108991999999999999999999MA1099801999999MW1611REMMET066METAR ETGQ 110520Z 00000KT 8000 -RA BKN015 OVC038 06/04 Q0998 WHT;
0147102340999992008041106204+53133+009350FM-15+0061ETGQ V0209999C000010105019N0060001N1+00601+00401999999ADDGA1041+004501999GA2081+010501999GF108991999999999999999999MA1099801999999REMMET062METAR ETGQ 110620Z 00000KT 6000 SCT015 OVC035 06/04 Q0998 WHT;
0147102340999992008041107204+53133+009350FM-15+0061ETGQ V0203101N000510084019N0060001N1+00601+00501999999ADDGA1041+004501999GA2081+008401999GF108991999999999999999999MA1099801999999REMMET062METAR ETGQ 110720Z 31001KT 6000 SCT015 OVC028 06/05 Q0998 WHT;
0147102340999992008041108204+53133+009350FM-15+0061ETGQ V0209999C000010081019N0080001N1+00701+00401999999ADDGA1021+003601999GA2081+008101999GF108991999999999999999999MA1099801999999REMMET062METAR ETGQ 110820Z 00000KT 8000 FEW012 OVC027 07/04 Q0998 BLU;
0147102340999992008041109204+53133+009350FM-15+0061ETGQ V0200101N001510096019N0112651N1+00801+00501999999ADDGA1021+004501999GA2071+009601999GF107991999999999999999999MA1099801999999REMMET062METAR ETGQ 110920Z 01003KT 9999 FEW015 BKN032 08/05 Q0998 BLU;
0147102340999992008041110204+53133+009350FM-15+0061ETGQ V0202901N001510102019N0112651N1+00901+00501999999ADDGA1021+006001999GA2071+010201999GF107991999999999999999999MA1099801999999REMMET062METAR ETGQ 111020Z 29003KT 9999 FEW020 BKN034 09/05 Q0998 BLU;
0147102340999992008041111204+53133+009350FM-15+0061ETGQ V0203501N001510126019N0112651N1+01001+00501999999ADDGA1021+006601999GA2071+012601999GF107991999999999999999999MA1099801999999REMMET062METAR ETGQ 111120Z 35003KT 9999 FEW022 BKN042 10/05 Q0998 BLU;
0124102340999992008041112204+53133+009350FM-15+0061ETGQ V0203101N002110099019N0112651N1+01001+00401999999ADDGA1071+009901999GF107991999999999999999999MA1099801999999REMMET055METAR ETGQ 111220Z 31004KT 9999 BKN033 10/04 Q0998 BLU;
0124102340999992008041113204+53133+009350FM-15+0061ETGQ V0202901N001010102019N0112651N1+01001+00401999999ADDGA1071+010201999GF107991999999999999999999MA1099801999999REMMET055METAR ETGQ 111320Z 29002KT 9999 BKN034 10/04 Q0998 BLU;
0147102340999992008041114204+53133+009350FM-15+0061ETGQ V0203601N002110099019N0112651N1+01001+00401999999ADDGA1021+006001999GA2071+009901999GF107991999999999999999999MA1099901999999REMMET062METAR ETGQ 111420Z 36004KT 9999 FEW020 BKN033 10/04 Q0999 BLU;
0157102340999992008041115204+53133+009350FM-15+0061ETGQ V0202201N001010105019N0112651N1+00901+00601999999ADDGA1021+006001999GA2071+010501999GF107991999999999999999999MA1100001999999MW1611REMMET066METAR ETGQ 111520Z 22002KT 9999 -RA FEW020 BKN035 09/06 Q1000 BLU;
0157102340999992008041116204+53133+009350FM-15+0061ETGQ V0202201N001010105019N0090001N1+00901+00601999999ADDGA1021+006001999GA2071+010501999GF107991999999999999999999MA1100001999999MW1611REMMET066METAR ETGQ 111620Z 22002KT 9000 -RA FEW020 BKN035 09/06 Q1000 BLU;
0147102340999992008041117204+53133+009350FM-15+0061ETGQ V0201801N001010120019N0112651N1+00901+00601999999ADDGA1021+006001999GA2071+012001999GF107991999999999999999999MA1100101999999REMMET062METAR ETGQ 111720Z 18002KT 9999 FEW020 BKN040 09/06 Q1001 BLU;
0147102340999992008041118204+53133+009350FM-15+0061ETGQ V0202201N001510360019N0080001N1+00901+00601999999ADDGA1041+012001999GA2071+036001999GF107991999999999999999999MA1100201999999REMMET062METAR ETGQ 111820Z 22003KT 8000 SCT040 BKN120 09/06 Q1002 BLU;
0124102340999992008041404204+53133+009350FM-15+0061ETGQ V0201601N001510096019N0112651N1+00801+00701999999ADDGA1071+009601999GF107991999999999999999999MA1100911999999REMMET055METAR ETGQ 140420Z 16003KT 9999 BKN032 08/07 Q1009 BLU;
0124102340999992008041405204+53133+009350FM-15+0061ETGQ V0209999C000010078019N0112651N1+00801+00701999999ADDGA1071+007801999GF107991999999999999999999MA1100911999999REMMET055METAR ETGQ 140520Z 00000KT 9999 BKN026 08/07 Q1009 BLU;
0147102340999992008041406204+53133+009350FM-15+0061ETGQ V0201501N002110096019N0112651N1+00801+00701999999ADDGA1021+007201999GA2071+009601999GF107991999999999999999999MA1100911999999REMMET062METAR ETGQ 140620Z 15004KT 9999 FEW024 BKN032 08/07 Q1009 BLU;
0147102340999992008041407204+53133+009350FM-15+0061ETGQ V0201501N002110360019N0112651N1+00901+00701999999ADDGA1041+007501999GA2071+036001999GF107991999999999999999999MA1100911999999REMMET062METAR ETGQ 140720Z 15004KT 9999 SCT025 BKN120 09/07 Q1009 BLU;
0147102340999992008041408204+53133+009350FM-15+0061ETGQ V0202201N003610099019N0112651N1+00901+00401999999ADDGA1021+006001999GA2071+009901999GF107991999999999999999999MA1100911999999REMMET062METAR ETGQ 140820Z 22007KT 9999 FEW020 BKN033 09/04 Q1009 BLU;
0147102340999992008041409204+53133+009350FM-15+0061ETGQ V0202001N003110123019N0112651N1+00901+00401999999ADDGA1021+006901999GA2071+012301999GF107991999999999999999999MA1100911999999REMMET062METAR ETGQ 140920Z 20006KT 9999 FEW023 BKN041 09/04 Q1009 BLU;
0147102340999992008041410204+53133+009350FM-15+0061ETGQ V0202501N002610102019N0112651N1+00801+00401999999ADDGA1021+000301999GA2071+010201999GF107991999999999999999999MA1101021999999REMMET062METAR ETGQ 141020Z 25005KT 9999 FEW001 BKN034 08/04 Q1010 BLU;
0157102340999992008041411204+53133+009350FM-15+0061ETGQ V0202501N002610117019N0112651N1+00801+00501999999ADDGA1021+006001999GA2071+011701999GF107991999999999999999999MA1101081999999MW1611REMMET066METAR ETGQ 141120Z 25005KT 9999 -RA FEW020 BKN039 08/05 Q1011 BLU;
0147102340999992008041412204+53133+009350FM-15+0061ETGQ V0202801N003110075019N0112651N1+00701+00501999999ADDGA1041+005401999GA2071+007501999GF107991999999999999999999MA1101081999999REMMET062METAR ETGQ 141220Z 28006KT 9999 SCT018 BKN025 07/05 Q1011 BLU;
0147102340999992008041413204+53133+009350FM-15+0061ETGQ V0203001N003610060019N0112651N1+00801+00501999999ADDGA1021+004501999GA2071+006001999GF107991999999999999999999MA1101191999999REMMET062METAR ETGQ 141320Z 30007KT 9999 FEW015 BKN020 08/05 Q1012 WHT;
0147102340999992008041414204+53133+009350FM-15+0061ETGQ V0202801N003110075019N0112651N1+00701+00501999999ADDGA1041+006001999GA2071+007501999GF107991999999999999999999MA1101291999999REMMET062METAR ETGQ 141420Z 28006KT 9999 SCT020 BKN025 07/05 Q1013 BLU;
0147102340999992008041415204+53133+009350FM-15+0061ETGQ V0202901N002110066019N0112651N1+00801+00501999999ADDGA1041+004801999GA2071+006601999GF107991999999999999999999MA1101291999999REMMET062METAR ETGQ 141520Z 29004KT 9999 SCT016 BKN022 08/05 Q1013 WHT;
0157102340999992008041416204+53133+009350FM-15+0061ETGQ V0203001N001510060019N0112651N1+00701+00601999999ADDGA1041+005101999GA2071+006001999GF107991999999999999999999MA1101391999999MW1611REMMET066METAR ETGQ 141620Z 30003KT 9999 -RA SCT017 BKN020 07/06 Q1014 WHT;
0157102340999992008041417204+53133+009350FM-15+0061ETGQ V0202901N002610075019N0080001N1+00701+00601999999ADDGA1041+006001999GA2081+007501999GF108991999999999999999999MA1101391999999MW1611REMMET066METAR ETGQ 141720Z 29005KT 8000 -RA SCT020 OVC025 07/06 Q1014 BLU;
0180102340999992008041418204+53133+009350FM-15+0061ETGQ V0202901N002110069019N0060001N1+00701+00601999999ADDGA1021+003601999GA2071+006901999GA3081+012001999GF108991999999999999999999MA1101491999999MW1611REMMET073METAR ETGQ 141820Z 29004KT 6000 -RA FEW012 BKN023 OVC040 07/06 Q1015 WHT;
0133102340999992008041504204+53133+009350FM-15+0061ETGQ V0203001N002110069019N0050001N1+00601+00401999999ADDGA1081+006901999GF108991999999999999999999MA1101801999999MW1101REMMET058METAR ETGQ 150420Z 30004KT 5000 BR OVC023 06/04 Q1018 WHT;
0156102340999992008041505204+53133+009350FM-15+0061ETGQ V0203101N002110180019N0050001N1+00601+00401999999ADDGA1041+006001999GA2081+018001999GF108991999999999999999999MA1101801999999MW1101REMMET065METAR ETGQ 150520Z 31004KT 5000 BR SCT020 OVC060 06/04 Q1018 WHT;
0148102340999992008041506204+53133+009350FM-15+0061ETGQ V0203001N002112200019N0080001N1+00601+00401999999ADDGA1021+006001999GA2041+030001999GF104991999999999999999999MA1101901999999REMMET063METAR ETGQ 150620Z 30004KT 8000 FEW020 SCT100 06/04 Q1019 BLU/;
0148102340999992008041507204+53133+009350FM-15+0061ETGQ V0203001N002112200019N0112651N1+00701+00401999999ADDGA1041+004501999GA2041+030001999GF104991999999999999999999MA1101901999999REMMET063METAR ETGQ 150720Z 30004KT 9999 SCT015 SCT100 07/04 Q1019 BLU/;
0125102340999992008041508204+53133+009350FM-15+0061ETGQ V0203101N003112200019N0112651N1+00701+00301999999ADDGA1041+006601999GF104991999999999999999999MA1102001999999REMMET056METAR ETGQ 150820Z 31006KT 9999 SCT022 07/03 Q1020 BLU/;
0124102340999992008041509204+53133+009350FM-15+0061ETGQ V0203101N002610132019N0112651N1+00701+00201999999ADDGA1071+013201999GF107991999999999999999999MA1102001999999REMMET055METAR ETGQ 150920Z 31005KT 9999 BKN044 07/02 Q1020 BLU;
0147102340999992008041510204+53133+009350FM-15+0061ETGQ V0203201N002610150019N0112651N1+00801+00201999999ADDGA1021+012001999GA2071+015001999GF107991999999999999999999MA1102001999999REMMET062METAR ETGQ 151020Z 32005KT 9999 FEW040 BKN050 08/02 Q1020 BLU;
0147102340999992008041511204+53133+009350FM-15+0061ETGQ V0203401N003110180019N0112651N1+00801+00201999999ADDGA1041+010501999GA2071+018001999GF107991999999999999999999MA1102001999999REMMET062METAR ETGQ 151120Z 34006KT 9999 SCT035 BKN060 08/02 Q1020 BLU;
0124102340999992008041512204+53133+009350FM-15+0061ETGQ V0202601N001510120019N0112651N1+01001+00101999999ADDGA1071+012001999GF107991999999999999999999MA1102001999999REMMET055METAR ETGQ 151220Z 26003KT 9999 BKN040 10/01 Q1020 BLU;
0162102340999992008041513204+53133+009350FM-15+0061ETGQ V0202801N004110066019N0112651N1+00701+00301999999ADDGA1021+004501021GA2071+006601999GF107991999999999999999999MA1102001999999MW1801REMMET071METAR ETGQ 151320Z 28008KT 9999 -SHRA FEW015TCU BKN022 07/03 Q1020 WHT;
0124102340999992008041514204+53133+009350FM-15+0061ETGQ V0200401N002110090019N0112651N1+00801+00401999999ADDGA1071+009001999GF107991999999999999999999MA1102001999999REMMET055METAR ETGQ 151420Z 04004KT 9999 BKN030 08/04 Q1020 BLU;
0162102340999992008041515204+53133+009350FM-15+0061ETGQ V0200501N002110060019N0112651N1+00601+00401999999ADDGA1021+004501021GA2071+006001999GF107991999999999999999999MA1102101999999MW1801REMMET071METAR ETGQ 151520Z 05004KT 9999 -SHRA FEW015TCU BKN020 06/04 Q1021 WHT;
0151102340999992008041516204+53133+009350FM-15+0061ETGQ V0202301N000512200019N0112651N1+00701+00501999999ADDGA1041+006001021GA2041+012001999GF104991999999999999999999MA1102101999999REMMET066METAR ETGQ 151620Z 23001KT 9999 SCT020TCU SCT040 07/05 Q1021 BLU/;
0162102340999992008041517204+53133+009350FM-15+0061ETGQ V0203401N001510120019N0112651N1+00501+00301999999ADDGA1041+005401021GA2071+012001999GF107991999999999999999999MA1102201999999MW1801REMMET071METAR ETGQ 151720Z 34003KT 9999 -SHRA SCT018TCU BKN040 05/03 Q1022 BLU;
0170102340999992008041518204+53133+009350FM-15+0061ETGQ V0209999C00001009901CN0112651N1+00501+00301999999ADDGA1021+007201999GA2041+009901999GA3071+030001999GF107991999999999999999999MA1102201999999REMMET069METAR ETGQ 151820Z 00000KT 9999 FEW024 SCT033 BKN100 05/03 Q1022 BLU;
0133102340999992008041604204+53133+009350FM-15+0061ETGQ V0203301N000510018019N0030001N1+00201+00201999999ADDGA1081+001801999GF108991999999999999999999MA1102201999999MW1101REMMET058METAR ETGQ 160420Z 33001KT 3000 BR OVC006 02/02 Q1022 YLO;
0133102340999992008041605204+53133+009350FM-15+0061ETGQ V0200401N001010018019N0030001N1+00201+00201999999ADDGA1081+001801999GF108991999999999999999999MA1102201999999MW1101REMMET058METAR ETGQ 160520Z 04002KT 3000 BR OVC006 02/02 Q1022 YLO;
0133102340999992008041606204+53133+009350FM-15+0061ETGQ V0209999C000010018019N0030001N1+00301+00201999999ADDGA1081+001801999GF108991999999999999999999MA1102201999999MW1101REMMET058METAR ETGQ 160620Z 00000KT 3000 BR OVC006 03/02 Q1022 YLO;
0133102340999992008041607204+53133+009350FM-15+0061ETGQ V0203301N002110021019N0030001N1+00301+00201999999ADDGA1081+002101999GF108991999999999999999999MA1102201999999MW1101REMMET058METAR ETGQ 160720Z 33004KT 3000 BR OVC007 03/02 Q1022 YLO;
0133102340999992008041608204+53133+009350FM-15+0061ETGQ V0203201N002110027019N0050001N1+00301+00201999999ADDGA1081+002701999GF108991999999999999999999MA1102201999999MW1101REMMET058METAR ETGQ 160820Z 32004KT 5000 BR OVC009 03/02 Q1022 GRN;
0124102340999992008041609204+53133+009350FM-15+0061ETGQ V0203301N001510045019N0080001N1+00501+00201999999ADDGA1071+004501999GF107991999999999999999999MA1102201999999REMMET055METAR ETGQ 160920Z 33003KT 8000 BKN015 05/02 Q1022 WHT;
0124102340999992008041610204+53133+009350FM-15+0061ETGQ V0203501N002610066019N0112651N1+00601+00201999999ADDGA1071+006601999GF107991999999999999999999MA1102101999999REMMET055METAR ETGQ 161020Z 35005KT 9999 BKN022 06/02 Q1021 WHT;
0124102340999992008041611204+53133+009350FM-15+0061ETGQ V0203501N004110075019N0112651N1+00701+00101999999ADDGA1071+007501999GF107991999999999999999999MA1102101999999REMMET055METAR ETGQ 161120Z 35008KT 9999 BKN025 07/01 Q1021 BLU;
0124102340999992008041612204+53133+009350FM-15+0061ETGQ V0203201N003110090019N0112651N1+00801+00101999999ADDGA1071+009001999GF107991999999999999999999MA1102001999999REMMET055METAR ETGQ 161220Z 32006KT 9999 BKN030 08/01 Q1020 BLU;
0125102340999992008041613204+53133+009350FM-15+0061ETGQ V0203001N002610120019N0112651N1+00901-00201999999ADDGA1071+012001999GF107991999999999999999999MA1101901999999REMMET056METAR ETGQ 161320Z 30005KT 9999 BKN040 09/M02 Q1019 BLU;
0125102340999992008041614204+53133+009350FM-15+0061ETGQ V0203101N003110180019N0112651N1+01001-00301999999ADDGA1071+018001999GF107991999999999999999999MA1101801999999REMMET056METAR ETGQ 161420Z 31006KT 9999 BKN060 10/M03 Q1018 BLU;
0125102340999992008041615204+53133+009350FM-15+0061ETGQ V0203601N003610180019N0112651N1+01001-00501999999ADDGA1071+018001999GF107991999999999999999999MA1101691999999REMMET056METAR ETGQ 161520Z 36007KT 9999 BKN060 10/M05 Q1017 BLU;
0126102340999992008041616204+53133+009350FM-15+0061ETGQ V0203401N003612200019N0112651N1+01001-00201999999ADDGA1041+018001999GF104991999999999999999999MA1101691999999REMMET057METAR ETGQ 161620Z 34007KT 9999 SCT060 10/M02 Q1017 BLU/;
0126102340999992008041617204+53133+009350FM-15+0061ETGQ V0203501N004112200019N0112651N1+00901-00401999999ADDGA1021+018001999GF102991999999999999999999MA1101591999999REMMET057METAR ETGQ 161720Z 35008KT 9999 FEW060 09/M04 Q1016 BLU/;
0126102340999992008041618204+53133+009350FM-15+0061ETGQ V0203401N003112200019N0112651N1+00801-00301999999ADDGA1041+018001999GF104991999999999999999999MA1101591999999REMMET057METAR ETGQ 161820Z 34006KT 9999 SCT060 08/M03 Q1016 BLU/;
0127102340999992008041704204+53133+009350FM-15+0061ETGQ V0209999C000012200019N0112651N1-00101-00201999999ADDGA1021+018001999GF102991999999999999999999MA1101291999999REMMET058METAR ETGQ 170420Z 00000KT 9999 FEW060 M01/M02 Q1013 BLU/;
0127102340999992008041705204+53133+009350FM-15+0061ETGQ V0209999C000012200019N0112651N1+00001-00101999999ADDGA1041+018001999GF104991999999999999999999MA1101191999999REMMET058METAR ETGQ 170520Z 00000KT 9999 SCT060 M00/M01 Q1012 BLU/;
0126102340999992008041706204+53133+009350FM-15+0061ETGQ V0209999C000012200019N0112651N1+00101-00101999999ADDGA1041+018001999GF104991999999999999999999MA1101191999999REMMET057METAR ETGQ 170620Z 00000KT 9999 SCT060 01/M01 Q1012 BLU/;
0126102340999992008041707204+53133+009350FM-15+0061ETGQ V0203401N001012200019N0112651N1+00201-00101999999ADDGA1021+018001999GF102991999999999999999999MA1101081999999REMMET057METAR ETGQ 170720Z 34002KT 9999 FEW060 02/M01 Q1011 BLU/;
0126102340999992008041708204+53133+009350FM-15+0061ETGQ V0209999V001012200019N0112651N1+00501+00001999999ADDGA1021+018001999GF102991999999999999999999MA1101081999999REMMET057METAR ETGQ 170820Z VRB02KT 9999 FEW060 05/M00 Q1011 BLU/;
0125102340999992008041709204+53133+009350FM-15+0061ETGQ V0203401N001512200019N0112651N1+00701+00001999999ADDGA1041+008401999GF104991999999999999999999MA1101021999999REMMET056METAR ETGQ 170920Z 34003KT 9999 SCT028 07/00 Q1010 BLU/;
0126102340999992008041710204+53133+009350FM-15+0061ETGQ V0201001N003612200019N0112651N1+01001-00301999999ADDGA1041+015001999GF104991999999999999999999MA1100911999999REMMET057METAR ETGQ 171020Z 10007KT 9999 SCT050 10/M03 Q1009 BLU/;
0125102340999992008041711204+53133+009350FM-15+0061ETGQ V0200501N003110180019N0112651N1+01001-00501999999ADDGA1071+018001999GF107991999999999999999999MA1100811999999REMMET056METAR ETGQ 171120Z 05006KT 9999 BKN060 10/M05 Q1008 BLU;
0125102340999992008041712204+53133+009350FM-15+0061ETGQ V0200901N003110180019N0112651N1+01001-00301999999ADDGA1071+018001999GF107991999999999999999999MA1100711999999REMMET056METAR ETGQ 171220Z 09006KT 9999 BKN060 10/M03 Q1007 BLU;
0148102340999992008041713204+53133+009350FM-15+0061ETGQ V0201201N003610210019N0112651N1+01001-00301999999ADDGA1021+015001999GA2071+021001999GF107991999999999999999999MA1100611999999REMMET063METAR ETGQ 171320Z 12007KT 9999 FEW050 BKN070 10/M03 Q1006 BLU;
0148102340999992008041714204+53133+009350FM-15+0061ETGQ V0201401N002610180019N0112651N1+01101-00201999999ADDGA1021+015001999GA2071+018001999GF107991999999999999999999MA1100511999999REMMET063METAR ETGQ 171420Z 14005KT 9999 FEW050 BKN060 11/M02 Q1005 BLU;
0126102340999992008041715204+53133+009350FM-15+0061ETGQ V0200901N003112200019N0112651N1+01201-00201999999ADDGA1041+018001999GF104991999999999999999999MA1100511999999REMMET057METAR ETGQ 171520Z 09006KT 9999 SCT060 12/M02 Q1005 BLU/;
0126102340999992008041716204+53133+009350FM-15+0061ETGQ V0200901N003112200019N0112651N1+01101-00201999999ADDGA1041+018001999GF104991999999999999999999MA1100411999999REMMET057METAR ETGQ 171620Z 09006KT 9999 SCT060 11/M02 Q1004 BLU/;
0149102340999992008041717204+53133+009350FM-15+0061ETGQ V0201201N002110750019N0112651N1+01101-00201999999ADDGA1021+015001999GA2071+075001999GF107991999999999999999999MA1100411999999REMMET064METAR ETGQ 171720Z 12004KT 9999 FEW050 BKN250 11/M02 Q1004 BLU/;
0149102340999992008041718204+53133+009350FM-15+0061ETGQ V0201001N002110660019N0112651N1+01001-00201999999ADDGA1021+015001999GA2071+066001999GF107991999999999999999999MA1100411999999REMMET064METAR ETGQ 171820Z 10004KT 9999 FEW050 BKN220 10/M02 Q1004 BLU/;
0124102340999992008041804204+53133+009350FM-15+0061ETGQ V0209999C000010270019N0112651N1+00301+00101999999ADDGA1071+027001999GF107991999999999999999999MA1100201999999REMMET055METAR ETGQ 180420Z 00000KT 9999 BKN090 03/01 Q1002 BLU;
0147102340999992008041805204+53133+009350FM-15+0061ETGQ V0201001N001510300019N0112651N1+00501+00001999999ADDGA1041+024001999GA2071+030001999GF107991999999999999999999MA1100201999999REMMET062METAR ETGQ 180520Z 10003KT 9999 SCT080 BKN100 05/00 Q1002 BLU;
0124102340999992008041806204+53133+009350FM-15+0061ETGQ V0201001N002610240019N0112651N1+00501+00001999999ADDGA1071+024001999GF107991999999999999999999MA1100201999999REMMET055METAR ETGQ 180620Z 10005KT 9999 BKN080 05/00 Q1002 BLU;
0124102340999992008041807204+53133+009350FM-15+0061ETGQ V0200801N003110210019N0112651N1+00601+00101999999ADDGA1071+021001999GF107991999999999999999999MA1100201999999REMMET055METAR ETGQ 180720Z 08006KT 9999 BKN070 06/01 Q1002 BLU;
0147102340999992008041808204+53133+009350FM-15+0061ETGQ V0201001N003110360019N0112651N1+00801+00101999999ADDGA1041+018001999GA2071+036001999GF107991999999999999999999MA1100101999999REMMET062METAR ETGQ 180820Z 10006KT 9999 SCT060 BKN120 08/01 Q1001 BLU;
0147102340999992008041809204+53133+009350FM-15+0061ETGQ V0201001N002110330019N0112651N1+00901+00101999999ADDGA1041+018001999GA2071+033001999GF107991999999999999999999MA1100101999999REMMET062METAR ETGQ 180920Z 10004KT 9999 SCT060 BKN110 09/01 Q1001 BLU;
0148102340999992008041810204+53133+009350FM-15+0061ETGQ V0200901N002610690019N0112651N1+01101+00201999999ADDGA1041+021001999GA2071+069001999GF107991999999999999999999MA1100001999999REMMET063METAR ETGQ 181020Z 09005KT 9999 SCT070 BKN230 11/02 Q1000 BLU/;
0171102340999992008041811204+53133+009350FM-15+0061ETGQ V0201201N00261030001CN0112651N1+01201+00201999999ADDGA1021+021001999GA2041+030001999GA3071+060001999GF107991999999999999999999MA1099901999999REMMET070METAR ETGQ 181120Z 12005KT 9999 FEW070 SCT100 BKN200 12/02 Q0999 BLU/;
0124102340999992008041812204+53133+009350FM-15+0061ETGQ V0201301N003610330019N0112651N1+01301+00101999999ADDGA1071+033001999GF107991999999999999999999MA1099901999999REMMET055METAR ETGQ 181220Z 13007KT 9999 BKN110 13/01 Q0999 BLU;
0125102340999992008041813204+53133+009350FM-15+0061ETGQ V0201101N004110300019N0112651N1+01501+00001999999ADDGA1071+030001999GF107991999999999999999999MA1099801999999REMMET056METAR ETGQ 181320Z 11008KT 9999 BKN100 15/M00 Q0998 BLU;
0125102340999992008041814204+53133+009350FM-15+0061ETGQ V0201001N003610270019N0112651N1+01401+00001999999ADDGA1071+027001999GF107991999999999999999999MA1099801999999REMMET056METAR ETGQ 181420Z 10007KT 9999 BKN090 14/M00 Q0998 BLU;
0148102340999992008041815204+53133+009350FM-15+0061ETGQ V0200801N003612200019N0112651N1+01501+00001999999ADDGA1021+030001999GA2041+060001999GF104991999999999999999999MA1099701999999REMMET063METAR ETGQ 181520Z 08007KT 9999 FEW100 SCT200 15/00 Q0997 BLU/;
0125102340999992008041816204+53133+009350FM-15+0061ETGQ V0200501N004112200019N0112651N1+01401+00101999999ADDGA1021+033001999GF102991999999999999999999MA1099701999999REMMET056METAR ETGQ 181620Z 05008KT 9999 FEW110 14/01 Q0997 BLU/;
0125102340999992008041817204+53133+009350FM-15+0061ETGQ V0200701N003612200019N0112651N1+01301+00101999999ADDGA1021+033001999GF102991999999999999999999MA1099591999999REMMET056METAR ETGQ 181720Z 07007KT 9999 FEW110 13/01 Q0996 BLU/;
0148102340999992008041818204+53133+009350FM-15+0061ETGQ V0200801N003112200019N0112651N1+01201+00101999999ADDGA1041+033001999GA2041+072001999GF104991999999999999999999MA1099591999999REMMET063METAR ETGQ 181820Z 08006KT 9999 SCT110 SCT240 12/01 Q0996 BLU/;
0125102340999992008042104204+53133+009350FM-15+0061ETGQ V0209999C000012200019N0112651N1+00701+00401999999ADDGA1041+075001999GF104991999999999999999999MA1100311999999REMMET056METAR ETGQ 210420Z 00000KT 9999 SCT250 07/04 Q1003 BLU/;
0125102340999992008042105204+53133+009350FM-15+0061ETGQ V0201301N002110750019N0112651N1+00801+00501999999ADDGA1071+075001999GF107991999999999999999999MA1100311999999REMMET056METAR ETGQ 210520Z 13004KT 9999 BKN250 08/05 Q1003 BLU/;
0125102340999992008042106204+53133+009350FM-15+0061ETGQ V0201001N002612200019N0112651N1+00901+00501999999ADDGA1041+075001999GF104991999999999999999999MA1100311999999REMMET056METAR ETGQ 210620Z 10005KT 9999 SCT250 09/05 Q1003 BLU/;
0125102340999992008042107204+53133+009350FM-15+0061ETGQ V0201001N002610750019N0112651N1+01001+00501999999ADDGA1071+075001999GF107991999999999999999999MA1100311999999REMMET056METAR ETGQ 210720Z 10005KT 9999 BKN250 10/05 Q1003 BLU/;
0148102340999992008042108204+53133+009350FM-15+0061ETGQ V0201001N003110840019N0112651N1+01101+00501999999ADDGA1021+042001999GA2071+084001999GF107991999999999999999999MA1100201999999REMMET063METAR ETGQ 210820Z 10006KT 9999 FEW140 BKN280 11/05 Q1002 BLU/;
0148102340999992008042109204+53133+009350FM-15+0061ETGQ V0200701N002110750019N0112651N1+01301+00601999999ADDGA1041+042001999GA2071+075001999GF107991999999999999999999MA1100201999999REMMET063METAR ETGQ 210920Z 07004KT 9999 SCT140 BKN250 13/06 Q1002 BLU/;
0148102340999992008042110204+53133+009350FM-15+0061ETGQ V0200601N002110750019N0112651N1+01401+00601999999ADDGA1041+039001999GA2071+075001999GF107991999999999999999999MA1100101999999REMMET063METAR ETGQ 211020Z 06004KT 9999 SCT130 BKN250 14/06 Q1001 BLU/;
0148102340999992008042111204+53133+009350FM-15+0061ETGQ V0201001N003110750019N0112651N1+01601+00601999999ADDGA1041+039001999GA2071+075001999GF107991999999999999999999MA1100101999999REMMET063METAR ETGQ 211120Z 10006KT 9999 SCT130 BKN250 16/06 Q1001 BLU/;
0125102340999992008042112204+53133+009350FM-15+0061ETGQ V0200801N002610750019N0112651N1+01601+00601999999ADDGA1071+075001999GF107991999999999999999999MA1100001999999REMMET056METAR ETGQ 211220Z 08005KT 9999 BKN250 16/06 Q1000 BLU/;
0125102340999992008042113204+53133+009350FM-15+0061ETGQ V0200801N003110750019N0112651N1+01601+00601999999ADDGA1071+075001999GF107991999999999999999999MA1100101999999REMMET056METAR ETGQ 211320Z 08006KT 9999 BKN250 16/06 Q1001 BLU/;
0124102340999992008042114204+53133+009350FM-15+0061ETGQ V0200701N004110150019N0112651N1+01701+00601999999ADDGA1071+015001999GF107991999999999999999999MA1100001999999REMMET055METAR ETGQ 211420Z 07008KT 9999 BKN050 17/06 Q1000 BLU;
0124102340999992008042115204+53133+009350FM-15+0061ETGQ V0200901N004110138019N0112651N1+01701+00601999999ADDGA1071+013801999GF107991999999999999999999MA1100001999999REMMET055METAR ETGQ 211520Z 09008KT 9999 BKN046 17/06 Q1000 BLU;
0124102340999992008042116204+53133+009350FM-15+0061ETGQ V0200801N003110144019N0112651N1+01601+00601999999ADDGA1071+014401999GF107991999999999999999999MA1100101999999REMMET055METAR ETGQ 211620Z 08006KT 9999 BKN048 16/06 Q1001 BLU;
0147102340999992008042117204+53133+009350FM-15+0061ETGQ V0200901N001510150019N0112651N1+01601+00701999999ADDGA1071+015001999GA2081+042001999GF108991999999999999999999MA1100101999999REMMET062METAR ETGQ 211720Z 09003KT 9999 BKN050 OVC140 16/07 Q1001 BLU;
0147102340999992008042118204+53133+009350FM-15+0061ETGQ V0200601N002610150019N0112651N1+01501+00601999999ADDGA1071+015001999GA2081+036001999GF108991999999999999999999MA1100101999999REMMET062METAR ETGQ 211820Z 06005KT 9999 BKN050 OVC120 15/06 Q1001 BLU;
0124102340999992008042204204+53133+009350FM-15+0061ETGQ V0203201N002110240019N0112651N1+01001+00501999999ADDGA1071+024001999GF107991999999999999999999MA1100311999999REMMET055METAR ETGQ 220420Z 32004KT 9999 BKN080 10/05 Q1003 BLU;
0124102340999992008042205204+53133+009350FM-15+0061ETGQ V0203301N002110240019N0112651N1+01001+00501999999ADDGA1071+024001999GF107991999999999999999999MA1100411999999REMMET055METAR ETGQ 220520Z 33004KT 9999 BKN080 10/05 Q1004 BLU;
0124102340999992008042206204+53133+009350FM-15+0061ETGQ V0203101N002110096019N0112651N1+01001+00601999999ADDGA1071+009601999GF107991999999999999999999MA1100411999999REMMET055METAR ETGQ 220620Z 31004KT 9999 BKN032 10/06 Q1004 BLU;
0124102340999992008042207204+53133+009350FM-15+0061ETGQ V0203201N002110093019N0112651N1+01101+00601999999ADDGA1071+009301999GF107991999999999999999999MA1100511999999REMMET055METAR ETGQ 220720Z 32004KT 9999 BKN031 11/06 Q1005 BLU;
0124102340999992008042208204+53133+009350FM-15+0061ETGQ V0203501N002610093019N0112651N1+01201+00601999999ADDGA1071+009301999GF107991999999999999999999MA1100511999999REMMET055METAR ETGQ 220820Z 35005KT 9999 BKN031 12/06 Q1005 BLU;
0124102340999992008042209204+53133+009350FM-15+0061ETGQ V0203601N002610090019N0112651N1+01301+00601999999ADDGA1071+009001999GF107991999999999999999999MA1100611999999REMMET055METAR ETGQ 220920Z 36005KT 9999 BKN030 13/06 Q1006 BLU;
0124102340999992008042210204+53133+009350FM-15+0061ETGQ V0200701N002110090019N0112651N1+01301+00601999999ADDGA1071+009001999GF107991999999999999999999MA1100711999999REMMET055METAR ETGQ 221020Z 07004KT 9999 BKN030 13/06 Q1007 BLU;
0124102340999992008042211204+53133+009350FM-15+0061ETGQ V0200401N001510090019N0112651N1+01301+00601999999ADDGA1071+009001999GF107991999999999999999999MA1100711999999REMMET055METAR ETGQ 221120Z 04003KT 9999 BKN030 13/06 Q1007 BLU;
0147102340999992008042212204+53133+009350FM-15+0061ETGQ V0200401N002110099019N0112651N1+01301+00601999999ADDGA1021+006001999GA2071+009901999GF107991999999999999999999MA1100811999999REMMET062METAR ETGQ 221220Z 04004KT 9999 FEW020 BKN033 13/06 Q1008 BLU;
0170102340999992008042213204+53133+009350FM-15+0061ETGQ V0200201N001510087019N0112651N1+01401+00601999999ADDGA1021+006001999GA2071+008701999GA3071+015001999GF107991999999999999999999MA1100911999999REMMET069METAR ETGQ 221320Z 02003KT 9999 FEW020 BKN029 BKN050 14/06 Q1009 BLU;
0147102340999992008042214204+53133+009350FM-15+0061ETGQ V0200401N001510090019N0112651N1+01401+00601999999ADDGA1071+009001999GA2071+015001999GF107991999999999999999999MA1100911999999REMMET062METAR ETGQ 221420Z 04003KT 9999 BKN030 BKN050 14/06 Q1009 BLU;
0124102340999992008042215204+53133+009350FM-15+0061ETGQ V0200301N001010099019N0112651N1+01401+00601999999ADDGA1071+009901999GF107991999999999999999999MA1101021999999REMMET055METAR ETGQ 221520Z 03002KT 9999 BKN033 14/06 Q1010 BLU;
0147102340999992008042216204+53133+009350FM-15+0061ETGQ V0201001N003610210019N0112651N1+01401+00601999999ADDGA1041+012001999GA2071+021001999GF107991999999999999999999MA1101021999999REMMET062METAR ETGQ 221620Z 10007KT 9999 SCT040 BKN070 14/06 Q1010 BLU;
0147102340999992008042217204+53133+009350FM-15+0061ETGQ V0200801N002610210019N0112651N1+01301+00501999999ADDGA1041+011401999GA2071+021001999GF107991999999999999999999MA1101081999999REMMET062METAR ETGQ 221720Z 08005KT 9999 SCT038 BKN070 13/05 Q1011 BLU;
0147102340999992008042218204+53133+009350FM-15+0061ETGQ V0201001N001510120019N0112651N1+01301+00501999999ADDGA1071+012001999GA2071+033001999GF107991999999999999999999MA1101191999999REMMET062METAR ETGQ 221820Z 10003KT 9999 BKN040 BKN110 13/05 Q1012 BLU;
0125102340999992008042304204+53133+009350FM-15+0061ETGQ V0209999C000012200019N0080001N1+00601+00501999999ADDGA1021+042001999GF102991999999999999999999MA1101591999999REMMET056METAR ETGQ 230420Z 00000KT 8000 FEW140 06/05 Q1016 BLU/;
0125102340999992008042305204+53133+009350FM-15+0061ETGQ V0202401N000512200019N0080001N1+00601+00501999999ADDGA1021+036001999GF102991999999999999999999MA1101691999999REMMET056METAR ETGQ 230520Z 24001KT 8000 FEW120 06/05 Q1017 BLU/;
0125102340999992008042306204+53133+009350FM-15+0061ETGQ V0209999C000012200019N0080001N1+00701+00601999999ADDGA1021+021001999GF102991999999999999999999MA1101691999999REMMET056METAR ETGQ 230620Z 00000KT 8000 FEW070 07/06 Q1017 BLU/;
0125102340999992008042307204+53133+009350FM-15+0061ETGQ V0209999C000012200019N0090001N1+00901+00601999999ADDGA1021+060001999GF102991999999999999999999MA1101801999999REMMET056METAR ETGQ 230720Z 00000KT 9000 FEW200 09/06 Q1018 BLU/;
0125102340999992008042308204+53133+009350FM-15+0061ETGQ V0209999C000012200019N0112651N1+01301+00701999999ADDGA1021+063001999GF102991999999999999999999MA1101801999999REMMET056METAR ETGQ 230820Z 00000KT 9999 FEW210 13/07 Q1018 BLU/;
0125102340999992008042309204+53133+009350FM-15+0061ETGQ V0201701N001512200019N0112651N1+01601+00601999999ADDGA1021+012001999GF102991999999999999999999MA1101801999999REMMET056METAR ETGQ 230920Z 17003KT 9999 FEW040 16/06 Q1018 BLU/;
0125102340999992008042310204+53133+009350FM-15+0061ETGQ V0201301N002112200019N0112651N1+01701+00501999999ADDGA1021+015001999GF102991999999999999999999MA1101801999999REMMET056METAR ETGQ 231020Z 13004KT 9999 FEW050 17/05 Q1018 BLU/;
0147102340999992008042311204+53133+009350FM-15+0061ETGQ V0201801N002610210019N0112651N1+01801+00301999999ADDGA1041+015001999GA2071+021001999GF107991999999999999999999MA1101801999999REMMET062METAR ETGQ 231120Z 18005KT 9999 SCT050 BKN070 18/03 Q1018 BLU;
0147102340999992008042312204+53133+009350FM-15+0061ETGQ V0201601N002110240019N0112651N1+01801+00301999999ADDGA1041+015001999GA2071+024001999GF107991999999999999999999MA1101801999999REMMET062METAR ETGQ 231220Z 16004KT 9999 SCT050 BKN080 18/03 Q1018 BLU;
0148102340999992008042313204+53133+009350FM-15+0061ETGQ V0201201N002612200019N0112651N1+01701+00301999999ADDGA1041+018001999GA2041+024001999GF104991999999999999999999MA1101801999999REMMET063METAR ETGQ 231320Z 12005KT 9999 SCT060 SCT080 17/03 Q1018 BLU/;
0148102340999992008042314204+53133+009350FM-15+0061ETGQ V0201301N002612200019N0112651N1+01801+00301999999ADDGA1041+015001999GA2041+024001999GF104991999999999999999999MA1101801999999REMMET063METAR ETGQ 231420Z 13005KT 9999 SCT050 SCT080 18/03 Q1018 BLU/;
0125102340999992008042315204+53133+009350FM-15+0061ETGQ V0201301N002612200019N0112651N1+01901+00301999999ADDGA1041+015001999GF104991999999999999999999MA1101801999999REMMET056METAR ETGQ 231520Z 13005KT 9999 SCT050 19/03 Q1018 BLU/;
0125102340999992008042316204+53133+009350FM-15+0061ETGQ V0201901N002112200019N0112651N1+01801+00301999999ADDGA1041+015001999GF104991999999999999999999MA1101801999999REMMET056METAR ETGQ 231620Z 19004KT 9999 SCT050 18/03 Q1018 BLU/;
0125102340999992008042317204+53133+009350FM-15+0061ETGQ V0202001N002112200019N0112651N1+01801+00301999999ADDGA1041+015001999GF104991999999999999999999MA1101801999999REMMET056METAR ETGQ 231720Z 20004KT 9999 SCT050 18/03 Q1018 BLU/;
0148102340999992008042318204+53133+009350FM-15+0061ETGQ V0201701N001510900019N0112651N1+01701+00401999999ADDGA1041+015001999GA2071+090001999GF107991999999999999999999MA1101801999999REMMET063METAR ETGQ 231820Z 17003KT 9999 SCT050 BKN300 17/04 Q1018 BLU/;
0124102340999992008042404204+53133+009350FM-15+0061ETGQ V0202401N000510066019N0112651N1+01101+01001999999ADDGA1081+006601999GF108991999999999999999999MA1102101999999REMMET055METAR ETGQ 240420Z 24001KT 9999 OVC022 11/10 Q1021 WHT;
0156102340999992008042405204+53133+009350FM-15+0061ETGQ V0202401N001010210019N0050001N1+01101+01001999999ADDGA1021+006001999GA2071+021001999GF107991999999999999999999MA1102201999999MW1101REMMET065METAR ETGQ 240520Z 24002KT 5000 BR FEW020 BKN070 11/10 Q1022 WHT;
0133102340999992008042406204+53133+009350FM-15+0061ETGQ V0209999C000010048019N0050001N1+01101+01001999999ADDGA1071+004801999GF107991999999999999999999MA1102301999999MW1101REMMET058METAR ETGQ 240620Z 00000KT 5000 BR BKN016 11/10 Q1023 WHT;
0124102340999992008042407204+53133+009350FM-15+0061ETGQ V0202801N000510093019N0080001N1+01201+01101999999ADDGA1071+009301999GF107991999999999999999999MA1102301999999REMMET055METAR ETGQ 240720Z 28001KT 8000 BKN031 12/11 Q1023 BLU;
0125102340999992008042408204+53133+009350FM-15+0061ETGQ V0203101N001012200019N0112651N1+01301+00801999999ADDGA1041+006001999GF104991999999999999999999MA1102301999999REMMET056METAR ETGQ 240820Z 31002KT 9999 SCT020 13/08 Q1023 BLU/;
0148102340999992008042409204+53133+009350FM-15+0061ETGQ V0209999V000512200019N0112651N1+01401+00801999999ADDGA1041+006001999GA2041+018001999GF104991999999999999999999MA1102301999999REMMET063METAR ETGQ 240920Z VRB01KT 9999 SCT020 SCT060 14/08 Q1023 BLU/;
0125102340999992008042410204+53133+009350FM-15+0061ETGQ V0202001N001012200019N0112651N1+01601+00701999999ADDGA1041+010801999GF104991999999999999999999MA1102301999999REMMET056METAR ETGQ 241020Z 20002KT 9999 SCT036 16/07 Q1023 BLU/;
0125102340999992008042411204+53133+009350FM-15+0061ETGQ V0203001N001512200019N0112651N1+01701+00601999999ADDGA1041+013201999GF104991999999999999999999MA1102301999999REMMET056METAR ETGQ 241120Z 30003KT 9999 SCT044 17/06 Q1023 BLU/;
0124102340999992008042412204+53133+009350FM-15+0061ETGQ V0202701N001510210019N0112651N1+01701+00501999999ADDGA1071+021001999GF107991999999999999999999MA1102301999999REMMET055METAR ETGQ 241220Z 27003KT 9999 BKN070 17/05 Q1023 BLU;
0147102340999992008042413204+53133+009350FM-15+0061ETGQ V0203001N002110210019N0112651N1+01701+00601999999ADDGA1041+015001999GA2071+021001999GF107991999999999999999999MA1102301999999REMMET062METAR ETGQ 241320Z 30004KT 9999 SCT050 BKN070 17/06 Q1023 BLU;
0147102340999992008042414204+53133+009350FM-15+0061ETGQ V0202601N001510210019N0112651N1+01701+00501999999ADDGA1041+015001999GA2071+021001999GF107991999999999999999999MA1102201999999REMMET062METAR ETGQ 241420Z 26003KT 9999 SCT050 BKN070 17/05 Q1022 BLU;
0170102340999992008042415204+53133+009350FM-15+0061ETGQ V0209999V00051018001CN0112651N1+01801+00401999999ADDGA1021+015001999GA2041+018001999GA3071+024001999GF107991999999999999999999MA1102201999999REMMET069METAR ETGQ 241520Z VRB01KT 9999 FEW050 SCT060 BKN080 18/04 Q1022 BLU;
0170102340999992008042416204+53133+009350FM-15+0061ETGQ V0203201N001510240019N0112651N1+01701+00501999999ADDGA1021+015001999GA2071+024001999GA3071+084001999GF107991999999999999999999MA1102201999999REMMET069METAR ETGQ 241620Z 32003KT 9999 FEW050 BKN080 BKN280 17/05 Q1022 BLU;
0171102340999992008042417204+53133+009350FM-15+0061ETGQ V0202201N00151018001CN0112651N1+01701+00401999999ADDGA1021+015001999GA2041+018001999GA3071+084001999GF107991999999999999999999MA1102201999999REMMET070METAR ETGQ 241720Z 22003KT 9999 FEW050 SCT060 BKN280 17/04 Q1022 BLU/;
0171102340999992008042418204+53133+009350FM-15+0061ETGQ V0202301N00211027001CN0112651N1+01601+00401999999ADDGA1021+015001999GA2041+027001999GA3071+084001999GF107991999999999999999999MA1102201999999REMMET070METAR ETGQ 241820Z 23004KT 9999 FEW050 SCT090 BKN280 16/04 Q1022 BLU/;
0148102340999992008042504204+53133+009350FM-15+0061ETGQ V0202401N001512200019N0112651N1+00801+00501999999ADDGA1021+011701999GA2041+090001999GF104991999999999999999999MA1102611999999REMMET063METAR ETGQ 250420Z 24003KT 9999 FEW039 SCT300 08/05 Q1026 BLU/;
0148102340999992008042505204+53133+009350FM-15+0061ETGQ V0209999C000010900019N0112651N1+00801+00601999999ADDGA1021+013201999GA2071+090001999GF107991999999999999999999MA1102711999999REMMET063METAR ETGQ 250520Z 00000KT 9999 FEW044 BKN300 08/06 Q1027 BLU/;
0124102340999992008042506204+53133+009350FM-15+0061ETGQ V0209999V000510081019N0112651N1+01001+00601999999ADDGA1071+008101999GF107991999999999999999999MA1102711999999REMMET055METAR ETGQ 250620Z VRB01KT 9999 BKN027 10/06 Q1027 BLU;
0148102340999992008042507204+53133+009350FM-15+0061ETGQ V0209999V001010630019N0112651N1+01201+00701999999ADDGA1021+006001999GA2071+063001999GF107991999999999999999999MA1102711999999REMMET063METAR ETGQ 250720Z VRB02KT 9999 FEW020 BKN210 12/07 Q1027 BLU/;
0148102340999992008042508204+53133+009350FM-15+0061ETGQ V0209999V000510630019N0112651N1+01201+00601999999ADDGA1041+007501999GA2071+063001999GF107991999999999999999999MA1102811999999REMMET063METAR ETGQ 250820Z VRB01KT 9999 SCT025 BKN210 12/06 Q1028 BLU/;
0147102340999992008042509204+53133+009350FM-15+0061ETGQ V0202401N002610102019N0112651N1+01201+00701999999ADDGA1021+008401999GA2071+010201999GF107991999999999999999999MA1102811999999REMMET062METAR ETGQ 250920Z 24005KT 9999 FEW028 BKN034 12/07 Q1028 BLU;
0159102340999992008042510204+53133+009350FM-15+0061ETGQ V0202401N002610150019N0112651N1+01201+00701999999ADDGA1041+009601999GA2071+015001999GF107991999999999999999999MA1102811999999MW1801REMMET068METAR ETGQ 251020Z 24005KT 9999 -SHRA SCT032 BKN050 12/07 Q1028 BLU;
0136102340999992008042511204+53133+009350FM-15+0061ETGQ V0201001N000510144019N0090001N1+01201+00801999999ADDGA1071+014401999GF107991999999999999999999MA1102811999999MW1801REMMET061METAR ETGQ 251120Z 10001KT 9000 -SHRA BKN048 12/08 Q1028 BLU;
0124102340999992008042512204+53133+009350FM-15+0061ETGQ V0202801N001510135019N0112651N1+01401+00701999999ADDGA1071+013501999GF107991999999999999999999MA1102811999999REMMET055METAR ETGQ 251220Z 28003KT 9999 BKN045 14/07 Q1028 BLU;
0124102340999992008042513204+53133+009350FM-15+0061ETGQ V0203001N001510150019N0112651N1+01501+00501999999ADDGA1071+015001999GF107991999999999999999999MA1102811999999REMMET055METAR ETGQ 251320Z 30003KT 9999 BKN050 15/05 Q1028 BLU;
0125102340999992008042515204+53133+009350FM-15+0061ETGQ V0203101N003112200019N0112651N1+01601+00401999999ADDGA1041+015001999GF104991999999999999999999MA1102711999999REMMET056METAR ETGQ 251520Z 31006KT 9999 SCT050 16/04 Q1027 BLU/;
0148102340999992008042517204+53133+009350FM-15+0061ETGQ V0203001N002610630019N0112651N1+01501+00401999999ADDGA1021+015001999GA2071+063001999GF107991999999999999999999MA1102711999999REMMET063METAR ETGQ 251720Z 30005KT 9999 FEW050 BKN210 15/04 Q1027 BLU/;
0148102340999992008042518204+53133+009350FM-15+0061ETGQ V0203101N002110600019N0112651N1+01401+00301999999ADDGA1021+015001999GA2071+060001999GF107991999999999999999999MA1102811999999REMMET063METAR ETGQ 251820Z 31004KT 9999 FEW050 BKN200 14/03 Q1028 BLU/;
0124102340999992008042804204+53133+009350FM-15+0061ETGQ V0209999V001010390019N0112651N1+01101+00701999999ADDGA1071+039001999GF107991999999999999999999MA1100911999999REMMET055METAR ETGQ 280420Z VRB02KT 9999 BKN130 11/07 Q1009 BLU;
0148102340999992008042805204+53133+009350FM-15+0061ETGQ V0201001N000510660019N0112651N1+01201+00701999999ADDGA1041+036001999GA2071+066001999GF107991999999999999999999MA1100911999999REMMET063METAR ETGQ 280520Z 10001KT 9999 SCT120 BKN220 12/07 Q1009 BLU/;
0147102340999992008042806204+53133+009350FM-15+0061ETGQ V0201501N001510270019N0112651N1+01301+00701999999ADDGA1071+027001999GA2071+066001999GF107991999999999999999999MA1100811999999REMMET062METAR ETGQ 280620Z 15003KT 9999 BKN090 BKN220 13/07 Q1008 BLU;
0148102340999992008042807204+53133+009350FM-15+0061ETGQ V0209999C000012200019N0112651N1+01501+00801999999ADDGA1021+015001999GA2041+039001999GF104991999999999999999999MA1100911999999REMMET063METAR ETGQ 280720Z 00000KT 9999 FEW050 SCT130 15/08 Q1009 BLU/;
0148102340999992008042808204+53133+009350FM-15+0061ETGQ V0209999C000012200019N0112651N1+01801+00901999999ADDGA1021+012001999GA2041+024001999GF104991999999999999999999MA1100811999999REMMET063METAR ETGQ 280820Z 00000KT 9999 FEW040 SCT080 18/09 Q1008 BLU/;
0147102340999992008042809204+53133+009350FM-15+0061ETGQ V0202101N002610180019N0112651N1+01801+01001999999ADDGA1021+009601999GA2071+018001999GF107991999999999999999999MA1100711999999REMMET062METAR ETGQ 280920Z 21005KT 9999 FEW032 BKN060 18/10 Q1007 BLU;
0147102340999992008042810204+53133+009350FM-15+0061ETGQ V0202401N002610240019N0112651N1+01901+01001999999ADDGA1041+012001999GA2071+024001999GF107991999999999999999999MA1100711999999REMMET062METAR ETGQ 281020Z 24005KT 9999 SCT040 BKN080 19/10 Q1007 BLU;
0157102340999992008042811204+53133+009350FM-15+0061ETGQ V0202601N002610180019N0112651N1+01601+01101999999ADDGA1041+009001999GA2071+018001999GF107991999999999999999999MA1100711999999MW1611REMMET066METAR ETGQ 281120Z 26005KT 9999 -RA SCT030 BKN060 16/11 Q1007 BLU;
0157102340999992008042812204+53133+009350FM-15+0061ETGQ V0209999V001010180019N0112651N1+01401+01201999999ADDGA1041+006001999GA2081+018001999GF108991999999999999999999MA1100711999999MW1611REMMET066METAR ETGQ 281220Z VRB02KT 9999 -RA SCT020 OVC060 14/12 Q1007 BLU;
0180102340999992008042813204+53133+009350FM-15+0061ETGQ V0201801N00051012001CN0112651N1+01501+01201999999ADDGA1021+005401999GA2041+012001999GA3071+018001999GF107991999999999999999999MA1100711999999MW1611REMMET073METAR ETGQ 281320Z 18001KT 9999 -RA FEW018 SCT040 BKN060 15/12 Q1007 BLU;
0147102340999992008042814204+53133+009350FM-15+0061ETGQ V0209999C000010060019N0112651N1+01601+01201999999ADDGA1071+006001999GA2071+012001999GF107991999999999999999999MA1100611999999REMMET062METAR ETGQ 281420Z 00000KT 9999 BKN020 BKN040 16/12 Q1006 WHT;
0157102340999992008042815204+53133+009350FM-15+0061ETGQ V0203001N004110045019N0080001N1+01301+01001999999ADDGA1041+003001999GA2071+004501999GF107991999999999999999999MA1100711999999MW1611REMMET066METAR ETGQ 281520Z 30008KT 8000 -RA SCT010 BKN015 13/10 Q1007 WHT;
0147102340999992008042816204+53133+009350FM-15+0061ETGQ V0203501N002110120019N0112651N1+01101+00901999999ADDGA1041+007501999GA2071+012001999GF107991999999999999999999MA1100711999999REMMET062METAR ETGQ 281620Z 35004KT 9999 SCT025 BKN040 11/09 Q1007 BLU;
0157102340999992008042817204+53133+009350FM-15+0061ETGQ V0203401N002110180019N0112651N1+01101+00801999999ADDGA1041+006001999GA2071+018001999GF107991999999999999999999MA1100711999999MW1611REMMET066METAR ETGQ 281720Z 34004KT 9999 -RA SCT020 BKN060 11/08 Q1007 BLU;
0170102340999992008042818204+53133+009350FM-15+0061ETGQ V0209999C00001018001CN0112651N1+01101+00901999999ADDGA1021+006001999GA2041+018001999GA3071+027001999GF107991999999999999999999MA1100611999999REMMET069METAR ETGQ 281820Z 00000KT 9999 FEW020 SCT060 BKN090 11/09 Q1006 BLU;
0147102340999992008042904204+53133+009350FM-15+0061ETGQ V0201701N002110102019N0112651N1+01001+00801999999ADDGA1021+005401999GA2071+010201999GF107991999999999999999999MA1100511999999REMMET062METAR ETGQ 290420Z 17004KT 9999 FEW018 BKN034 10/08 Q1005 BLU;
0147102340999992008042905204+53133+009350FM-15+0061ETGQ V0201801N001010120019N0112651N1+01001+00801999999ADDGA1021+006001999GA2071+012001999GF107991999999999999999999MA1100511999999REMMET062METAR ETGQ 290520Z 18002KT 9999 FEW020 BKN040 10/08 Q1005 BLU;
0147102340999992008042906204+53133+009350FM-15+0061ETGQ V0201101N002110126019N0112651N1+01001+00701999999ADDGA1021+006001999GA2071+012601999GF107991999999999999999999MA1100511999999REMMET062METAR ETGQ 290620Z 11004KT 9999 FEW020 BKN042 10/07 Q1005 BLU;
0124102340999992008042907204+53133+009350FM-15+0061ETGQ V0202001N003110081019N0112651N1+01201+00701999999ADDGA1071+008101999GF107991999999999999999999MA1100611999999REMMET055METAR ETGQ 290720Z 20006KT 9999 BKN027 12/07 Q1006 BLU;
0147102340999992008042908204+53133+009350FM-15+0061ETGQ V0201901N002610150019N0112651N1+01201+00601999999ADDGA1021+006001999GA2071+015001999GF107991999999999999999999MA1100611999999REMMET062METAR ETGQ 290820Z 19005KT 9999 FEW020 BKN050 12/06 Q1006 BLU;
0147102340999992008042909204+53133+009350FM-15+0061ETGQ V0202301N002610150019N0112651N1+01201+00601999999ADDGA1041+006301999GA2071+015001999GF107991999999999999999999MA1100611999999REMMET062METAR ETGQ 290920Z 23005KT 9999 SCT021 BKN050 12/06 Q1006 BLU;
0147102340999992008042910204+53133+009350FM-15+0061ETGQ V0202501N002610150019N0112651N1+01301+00401999999ADDGA1021+006001999GA2071+015001999GF107991999999999999999999MA1100511999999REMMET062METAR ETGQ 291020Z 25005KT 9999 FEW020 BKN050 13/04 Q1005 BLU;
0125102340999992008042911204+53133+009350FM-15+0061ETGQ V0202201N003612200019N0112651N1+01401+00301999999ADDGA1041+012001999GF104991999999999999999999MA1100511999999REMMET056METAR ETGQ 291120Z 22007KT 9999 SCT040 14/03 Q1005 BLU/;
0148102340999992008042912204+53133+009350FM-15+0061ETGQ V0202301N003112200019N0112651N1+01501+00301999999ADDGA1041+013501999GA2041+060001999GF104991999999999999999999MA1100511999999REMMET063METAR ETGQ 291220Z 23006KT 9999 SCT045 SCT200 15/03 Q1005 BLU/;
0147102340999992008042913204+53133+009350FM-15+0061ETGQ V0202301N003110540019N0112651N1+01601+00201999999ADDGA1041+015001999GA2071+054001999GF107991999999999999999999MA1100411999999REMMET062METAR ETGQ 291320Z 23006KT 9999 SCT050 BKN180 16/02 Q1004 BLU;
0148102340999992008042914204+53133+009350FM-15+0061ETGQ V0202501N003112200019N0112651N1+01601+00301999999ADDGA1041+018001999GA2041+054001999GF104991999999999999999999MA1100411999999REMMET063METAR ETGQ 291420Z 25006KT 9999 SCT060 SCT180 16/03 Q1004 BLU/;
0148102340999992008042915204+53133+009350FM-15+0061ETGQ V0202001N003112200019N0112651N1+01601+00201999999ADDGA1041+018001999GA2041+054001999GF104991999999999999999999MA1100311999999REMMET063METAR ETGQ 291520Z 20006KT 9999 SCT060 SCT180 16/02 Q1003 BLU/;
0148102340999992008042916204+53133+009350FM-15+0061ETGQ V0202101N004112200019N0112651N1+01601+00201999999ADDGA1041+021001999GA2041+054001999GF104991999999999999999999MA1100311999999REMMET063METAR ETGQ 291620Z 21008KT 9999 SCT070 SCT180 16/02 Q1003 BLU/;
0148102340999992008042917204+53133+009350FM-15+0061ETGQ V0201901N002612200019N0112651N1+01601+00201999999ADDGA1041+021001999GA2041+054001999GF104991999999999999999999MA1100311999999REMMET063METAR ETGQ 291720Z 19005KT 9999 SCT070 SCT180 16/02 Q1003 BLU/;
0125102340999992008042918204+53133+009350FM-15+0061ETGQ V0201701N001512200019N0112651N1+01501+00201999999ADDGA1021+018001999GF102991999999999999999999MA1100311999999REMMET056METAR ETGQ 291820Z 17003KT 9999 FEW060 15/02 Q1003 BLU/;
0124102340999992008043004204+53133+009350FM-15+0061ETGQ V0201301N002610270019N0112651N1+01001+00301999999ADDGA1071+027001999GF107991999999999999999999MA1100001999999REMMET055METAR ETGQ 300420Z 13005KT 9999 BKN090 10/03 Q1000 BLU;
0124102340999992008043006204+53133+009350FM-15+0061ETGQ V0201001N002110270019N0112651N1+01101+00401999999ADDGA1071+027001999GF107991999999999999999999MA1100001999999REMMET055METAR ETGQ 300620Z 10004KT 9999 BKN090 11/04 Q1000 BLU;
0124102340999992008043007204+53133+009350FM-15+0061ETGQ V0201201N001510300019N0112651N1+01201+00401999999ADDGA1071+030001999GF107991999999999999999999MA1099901999999REMMET055METAR ETGQ 300720Z 12003KT 9999 BKN100 12/04 Q0999 BLU;
0148102340999992008043008204+53133+009350FM-15+0061ETGQ V0201501N003612200019N0112651N1+01501+00501999999ADDGA1041+030001999GA2041+054001999GF104991999999999999999999MA1099901999999REMMET063METAR ETGQ 300820Z 15007KT 9999 SCT100 SCT180 15/05 Q0999 BLU/;
0124102340999992008043009204+53133+009350FM-15+0061ETGQ V0201601N004110300019N0112651N1+01701+00401999999ADDGA1071+030001999GF107991999999999999999999MA1099901999999REMMET055METAR ETGQ 300920Z 16008KT 9999 BKN100 17/04 Q0999 BLU;
0147102340999992008043010204+53133+009350FM-15+0061ETGQ V0201601N004110300019N0112651N1+01701+00501999999ADDGA1021+013501999GA2071+030001999GF107991999999999999999999MA1100001999999REMMET062METAR ETGQ 301020Z 16008KT 9999 FEW045 BKN100 17/05 Q1000 BLU;
0158102340999992008043011204+53133+009350FM-15+0061ETGQ V0202201N004110390019N0112651N1+01701+00401999999ADDGA1021+015001999GA2071+039001999GF107991999999999999999999MA1100001999999OC100931REMMET065METAR ETGQ 301120Z 22008G18KT 9999 FEW050 BKN130 17/04 Q1000 BLU;
0170102340999992008043012204+53133+009350FM-15+0061ETGQ V0202301N00311018001CN0112651N1+01701+00401999999ADDGA1021+015001999GA2041+018001999GA3071+039001999GF107991999999999999999999MA1099901999999REMMET069METAR ETGQ 301220Z 23006KT 9999 FEW050 SCT060 BKN130 17/04 Q0999 BLU;
0147102340999992008043013204+53133+009350FM-15+0061ETGQ V0202401N004610180019N0112651N1+01501+00601999999ADDGA1021+012001999GA2071+018001999GF107991999999999999999999MA1100101999999REMMET062METAR ETGQ 301320Z 24009KT 9999 FEW040 BKN060 15/06 Q1001 BLU;
0147102340999992008043014204+53133+009350FM-15+0061ETGQ V0201601N003110240019N0112651N1+01501+00801999999ADDGA1021+009001999GA2071+024001999GF107991999999999999999999MA1100101999999REMMET062METAR ETGQ 301420Z 16006KT 9999 FEW030 BKN080 15/08 Q1001 BLU;
0147102340999992008043015204+53133+009350FM-15+0061ETGQ V0202201N003610360019N0112651N1+01601+00501999999ADDGA1041+013501999GA2071+036001999GF107991999999999999999999MA1100101999999REMMET062METAR ETGQ 301520Z 22007KT 9999 SCT045 BKN120 16/05 Q1001 BLU;
0147102340999992008043016204+53133+009350FM-15+0061ETGQ V0202401N002610390019N0112651N1+01501+00401999999ADDGA1041+015001999GA2071+039001999GF107991999999999999999999MA1100201999999REMMET062METAR ETGQ 301620Z 24005KT 9999 SCT050 BKN130 15/04 Q1002 BLU;
0147102340999992008043017204+53133+009350FM-15+0061ETGQ V0202001N002610450019N0112651N1+01401+00401999999ADDGA1041+015001999GA2071+045001999GF107991999999999999999999MA1100311999999REMMET062METAR ETGQ 301720Z 20005KT 9999 SCT050 BKN150 14/04 Q1003 BLU;
0147102340999992008043018204+53133+009350FM-15+0061ETGQ V0202001N001510135019N0112651N1+01401+00401999999ADDGA1021+007501999GA2071+013501999GF107991999999999999999999MA1100311999999REMMET062METAR ETGQ 301820Z 20003KT 9999 FEW025 BKN045 14/04 Q1003 BLU;
0147102340999992008050204204+53133+009350FM-15+0061ETGQ V0209999C000010060019N0112651N1+00901+00601999999ADDGA1071+006001999GA2071+021001999GF107991999999999999999999MA1102001999999REMMET062METAR ETGQ 020420Z 00000KT 9999 BKN020 BKN070 09/06 Q1020 WHT;
0124102340999992008050205204+53133+009350FM-15+0061ETGQ V0202601N000510060019N0112651N1+00901+00601999999ADDGA1071+006001999GF107991999999999999999999MA1102101999999REMMET055METAR ETGQ 020520Z 26001KT 9999 BKN020 09/06 Q1021 WHT;
0124102340999992008050206204+53133+009350FM-15+0061ETGQ V0209999V001010075019N0112651N1+01001+00601999999ADDGA1071+007501999GF107991999999999999999999MA1102201999999REMMET055METAR ETGQ 020620Z VRB02KT 9999 BKN025 10/06 Q1022 BLU;
0124102340999992008050207204+53133+009350FM-15+0061ETGQ V0202301N002110066019N0112651N1+01201+00601999999ADDGA1071+006601999GF107991999999999999999999MA1102201999999REMMET055METAR ETGQ 020720Z 23004KT 9999 BKN022 12/06 Q1022 WHT;
0147102340999992008050208204+53133+009350FM-15+0061ETGQ V0202401N002110090019N0112651N1+01201+00601999999ADDGA1021+000601999GA2071+009001999GF107991999999999999999999MA1102201999999REMMET062METAR ETGQ 020820Z 24004KT 9999 FEW002 BKN030 12/06 Q1022 BLU;
0124102340999992008050209204+53133+009350FM-15+0061ETGQ V0202001N002110096019N0112651N1+01301+00601999999ADDGA1071+009601999GF107991999999999999999999MA1102201999999REMMET055METAR ETGQ 020920Z 20004KT 9999 BKN032 13/06 Q1022 BLU;
0147102340999992008050210204+53133+009350FM-15+0061ETGQ V0201901N003110150019N0112651N1+01501+00601999999ADDGA1041+010501999GA2071+015001999GF107991999999999999999999MA1102201999999REMMET062METAR ETGQ 021020Z 19006KT 9999 SCT035 BKN050 15/06 Q1022 BLU;
0147102340999992008050211204+53133+009350FM-15+0061ETGQ V0202401N002610150019N0112651N1+01601+00601999999ADDGA1041+010501999GA2071+015001999GF107991999999999999999999MA1102201999999REMMET062METAR ETGQ 021120Z 24005KT 9999 SCT035 BKN050 16/06 Q1022 BLU;
0147102340999992008050212204+53133+009350FM-15+0061ETGQ V0202201N002610180019N0112651N1+01601+00501999999ADDGA1041+011101999GA2071+018001999GF107991999999999999999999MA1102201999999REMMET062METAR ETGQ 021220Z 22005KT 9999 SCT037 BKN060 16/05 Q1022 BLU;
0150102340999992008050213204+53133+009350FM-15+0061ETGQ V0203301N005110180019N0112651N1+01401+00701999999ADDGA1041+011101021GA2071+018001999GF107991999999999999999999MA1102301999999REMMET065METAR ETGQ 021320Z 33010KT 9999 SCT037TCU BKN060 14/07 Q1023 BLU;
0150102340999992008050214204+53133+009350FM-15+0061ETGQ V0200101N001510180019N0112651N1+01401+00701999999ADDGA1041+011101021GA2071+018001999GF107991999999999999999999MA1102301999999REMMET065METAR ETGQ 021420Z 01003KT 9999 SCT037TCU BKN060 14/07 Q1023 BLU;
0150102340999992008050215204+53133+009350FM-15+0061ETGQ V0201801N001010180019N0112651N1+01501+00601999999ADDGA1041+011101021GA2071+018001999GF107991999999999999999999MA1102301999999REMMET065METAR ETGQ 021520Z 18002KT 9999 SCT037TCU BKN060 15/06 Q1023 BLU;
0150102340999992008050216204+53133+009350FM-15+0061ETGQ V0203301N002110180019N0112651N1+01301+00701999999ADDGA1041+011101021GA2071+018001999GF107991999999999999999999MA1102301999999REMMET065METAR ETGQ 021620Z 33004KT 9999 SCT037TCU BKN060 13/07 Q1023 BLU;
0162102340999992008050217204+53133+009350FM-15+0061ETGQ V0209999C000012200019N0112651N1+01501+00401999999ADDGA1021+010501021GA2041+024001999GF104991999999999999999999MA1102301999999MW1161REMMET071METAR ETGQ 021720Z 00000KT 9999 VCSH FEW035TCU SCT080 15/04 Q1023 BLU/;
0151102340999992008050218204+53133+009350FM-15+0061ETGQ V0202701N000512200019N0112651N1+01401+00501999999ADDGA1021+010501021GA2041+024001999GF104991999999999999999999MA1102401999999REMMET066METAR ETGQ 021820Z 27001KT 9999 FEW035TCU SCT080 14/05 Q1024 BLU/;
0125102340999992008050505204+53133+009350FM-15+0061ETGQ V0209999C000012200019N0112651N1+01001+00601999999ADDGA1021+075001999GF102991999999999999999999MA1102611999999REMMET056METAR ETGQ 050520Z 00000KT 9999 FEW250 10/06 Q1026 BLU/;
0076102340999992008050506204+53133+009350FM-15+0061ETGQ V0209999C000012200019N0112651N1+01101+00401999999ADDMA1102611999999REMMET049METAR ETGQ 050620Z 00000KT 9999 11/04 Q1026 BLU/;
0076102340999992008050507204+53133+009350FM-15+0061ETGQ V0209999C000012200019N0112651N1+01301+00501999999ADDMA1102711999999REMMET049METAR ETGQ 050720Z 00000KT 9999 13/05 Q1027 BLU/;
0076102340999992008050508204+53133+009350FM-15+0061ETGQ V0209999V000512200019N0112651N1+01701+00501999999ADDMA1102711999999REMMET049METAR ETGQ 050820Z VRB01KT 9999 17/05 Q1027 BLU/;
0076102340999992008050509204+53133+009350FM-15+0061ETGQ V0201101N002612200019N0112651N1+01801+00201999999ADDMA1102711999999REMMET049METAR ETGQ 050920Z 11005KT 9999 18/02 Q1027 BLU/;
0125102340999992008050510204+53133+009350FM-15+0061ETGQ V0201101N003112200019N0112651N1+01901+00101999999ADDGA1021+018001999GF102991999999999999999999MA1102611999999REMMET056METAR ETGQ 051020Z 11006KT 9999 FEW060 19/01 Q1026 BLU/;
0125102340999992008050511204+53133+009350FM-15+0061ETGQ V0200801N003112200019N0112651N1+02001+00301999999ADDGA1021+021001999GF102991999999999999999999MA1102611999999REMMET056METAR ETGQ 051120Z 08006KT 9999 FEW070 20/03 Q1026 BLU/;
0125102340999992008050512204+53133+009350FM-15+0061ETGQ V0200801N003112200019N0112651N1+02001+00301999999ADDGA1021+021001999GF102991999999999999999999MA1102611999999REMMET056METAR ETGQ 051220Z 08006KT 9999 FEW070 20/03 Q1026 BLU/;
0125102340999992008050513204+53133+009350FM-15+0061ETGQ V0200901N003612200019N0112651N1+02001+00401999999ADDGA1041+018001999GF104991999999999999999999MA1102511999999REMMET056METAR ETGQ 051320Z 09007KT 9999 SCT060 20/04 Q1025 BLU/;
0147102340999992008050514204+53133+009350FM-15+0061ETGQ V0200701N003110210019N0112651N1+01901+00401999999ADDGA1021+018001999GA2071+021001999GF107991999999999999999999MA1102511999999REMMET062METAR ETGQ 051420Z 07006KT 9999 FEW060 BKN070 19/04 Q1025 BLU;
0147102340999992008050515204+53133+009350FM-15+0061ETGQ V0200701N003610210019N0112651N1+02001+00601999999ADDGA1021+018001999GA2071+021001999GF107991999999999999999999MA1102511999999REMMET062METAR ETGQ 051520Z 07007KT 9999 FEW060 BKN070 20/06 Q1025 BLU;
0148102340999992008050516204+53133+009350FM-15+0061ETGQ V0201001N002612200019N0112651N1+02001+00501999999ADDGA1021+015001999GA2041+021001999GF104991999999999999999999MA1102511999999REMMET063METAR ETGQ 051620Z 10005KT 9999 FEW050 SCT070 20/05 Q1025 BLU/;
0148102340999992008050517204+53133+009350FM-15+0061ETGQ V0201001N002612200019N0112651N1+01901+00601999999ADDGA1021+015001999GA2041+042001999GF104991999999999999999999MA1102511999999REMMET063METAR ETGQ 051720Z 10005KT 9999 FEW050 SCT140 19/06 Q1025 BLU/;
0125102340999992008050518204+53133+009350FM-15+0061ETGQ V0201001N001012200019N0112651N1+01801+00601999999ADDGA1021+045001999GF102991999999999999999999MA1102511999999REMMET056METAR ETGQ 051820Z 10002KT 9999 FEW150 18/06 Q1025 BLU/;
0076102340999992008050604204+53133+009350FM-15+0061ETGQ V0209999C000012200019N0112651N1+00801+00701999999ADDMA1102611999999REMMET049METAR ETGQ 060420Z 00000KT 9999 08/07 Q1026 BLU/;
0076102340999992008050605204+53133+009350FM-15+0061ETGQ V0209999C000012200019N0112651N1+01001+00901999999ADDMA1102611999999REMMET049METAR ETGQ 060520Z 00000KT 9999 10/09 Q1026 BLU/;
0076102340999992008050606204+53133+009350FM-15+0061ETGQ V0209999C000012200019N0112651N1+01301+00901999999ADDMA1102611999999REMMET049METAR ETGQ 060620Z 00000KT 9999 13/09 Q1026 BLU/;
0076102340999992008050607204+53133+009350FM-15+0061ETGQ V0209999C000012200019N0112651N1+01501+01001999999ADDMA1102611999999REMMET049METAR ETGQ 060720Z 00000KT 9999 15/10 Q1026 BLU/;
0125102340999992008050608204+53133+009350FM-15+0061ETGQ V0209999V000512200019N0112651N1+01801+01001999999ADDGA1021+009001999GF102991999999999999999999MA1102511999999REMMET056METAR ETGQ 060820Z VRB01KT 9999 FEW030 18/10 Q1025 BLU/;
0125102340999992008050609204+53133+009350FM-15+0061ETGQ V0200801N002112200019N0112651N1+02001+00901999999ADDGA1021+012001999GF102991999999999999999999MA1102511999999REMMET056METAR ETGQ 060920Z 08004KT 9999 FEW040 20/09 Q1025 BLU/;
0125102340999992008050610204+53133+009350FM-15+0061ETGQ V0203501N001512200019N0112651N1+02101+00901999999ADDGA1021+014401999GF102991999999999999999999MA1102511999999REMMET056METAR ETGQ 061020Z 35003KT 9999 FEW048 21/09 Q1025 BLU/;
0125102340999992008050611204+53133+009350FM-15+0061ETGQ V0200901N003612200019N0112651N1+02201+00701999999ADDGA1041+018001999GF104991999999999999999999MA1102511999999REMMET056METAR ETGQ 061120Z 09007KT 9999 SCT060 22/07 Q1025 BLU/;
0125102340999992008050612204+53133+009350FM-15+0061ETGQ V0200801N003612200019N0112651N1+02301+00701999999ADDGA1041+018001999GF104991999999999999999999MA1102401999999REMMET056METAR ETGQ 061220Z 08007KT 9999 SCT060 23/07 Q1024 BLU/;
0125102340999992008050613204+53133+009350FM-15+0061ETGQ V0200801N003612200019N0112651N1+02301+00701999999ADDGA1041+018001999GF104991999999999999999999MA1102401999999REMMET056METAR ETGQ 061320Z 08007KT 9999 SCT060 23/07 Q1024 BLU/;
0125102340999992008050614204+53133+009350FM-15+0061ETGQ V0200601N002612200019N0112651N1+02301+00601999999ADDGA1041+018001999GF104991999999999999999999MA1102301999999REMMET056METAR ETGQ 061420Z 06005KT 9999 SCT060 23/06 Q1023 BLU/;
0125102340999992008050615204+53133+009350FM-15+0061ETGQ V0201001N002612200019N0112651N1+02301+00601999999ADDGA1041+018001999GF104991999999999999999999MA1102201999999REMMET056METAR ETGQ 061520Z 10005KT 9999 SCT060 23/06 Q1022 BLU/;
0125102340999992008050616204+53133+009350FM-15+0061ETGQ V0200801N002612200019N0112651N1+02301+00601999999ADDGA1021+021001999GF102991999999999999999999MA1102201999999REMMET056METAR ETGQ 061620Z 08005KT 9999 FEW070 23/06 Q1022 BLU/;
0125102340999992008050617204+53133+009350FM-15+0061ETGQ V0201101N002612200019N0112651N1+02201+00601999999ADDGA1021+021001999GF102991999999999999999999MA1102201999999REMMET056METAR ETGQ 061720Z 11005KT 9999 FEW070 22/06 Q1022 BLU/;
0125102340999992008050618204+53133+009350FM-15+0061ETGQ V0201001N002112200019N0112651N1+02201+00601999999ADDGA1021+021001999GF102991999999999999999999MA1102201999999REMMET056METAR ETGQ 061820Z 10004KT 9999 FEW070 22/06 Q1022 BLU/;
0076102340999992008050704204+53133+009350FM-15+0061ETGQ V0209999C000012200019N0112651N1+01001+00801999999ADDMA1102301999999REMMET049METAR ETGQ 070420Z 00000KT 9999 10/08 Q1023 BLU/;
0125102340999992008050705204+53133+009350FM-15+0061ETGQ V0209999C000012200019N0112651N1+01101+00901999999ADDGA1021+084001999GF102991999999999999999999MA1102301999999REMMET056METAR ETGQ 070520Z 00000KT 9999 FEW280 11/09 Q1023 BLU/;
0076102340999992008050706204+53133+009350FM-15+0061ETGQ V0209999C000012200019N0112651N1+01401+00901999999ADDMA1102301999999REMMET049METAR ETGQ 070620Z 00000KT 9999 14/09 Q1023 BLU/;
0076102340999992008050707204+53133+009350FM-15+0061ETGQ V0209999C000012200019N0112651N1+01501+00901999999ADDMA1102301999999REMMET049METAR ETGQ 070720Z 00000KT 9999 15/09 Q1023 BLU/;
0076102340999992008050708204+53133+009350FM-15+0061ETGQ V0201401N002112200019N0112651N1+01901+00801999999ADDMA1102301999999REMMET049METAR ETGQ 070820Z 14004KT 9999 19/08 Q1023 BLU/;
0125102340999992008050709204+53133+009350FM-15+0061ETGQ V0201201N002112200019N0112651N1+02001+00701999999ADDGA1021+013501999GF102991999999999999999999MA1102301999999REMMET056METAR ETGQ 070920Z 12004KT 9999 FEW045 20/07 Q1023 BLU/;
0125102340999992008050710204+53133+009350FM-15+0061ETGQ V0201601N002612200019N0112651N1+02201+00601999999ADDGA1021+015001999GF102991999999999999999999MA1102201999999REMMET056METAR ETGQ 071020Z 16005KT 9999 FEW050 22/06 Q1022 BLU/;
0125102340999992008050711204+53133+009350FM-15+0061ETGQ V0201201N002112200019N0112651N1+02201+00201999999ADDGA1021+018001999GF102991999999999999999999MA1102201999999REMMET056METAR ETGQ 071120Z 12004KT 9999 FEW060 22/02 Q1022 BLU/;
0125102340999992008050712204+53133+009350FM-15+0061ETGQ V0201901N001512200019N0112651N1+02301+00401999999ADDGA1041+021001999GF104991999999999999999999MA1102101999999REMMET056METAR ETGQ 071220Z 19003KT 9999 SCT070 23/04 Q1021 BLU/;
0125102340999992008050713204+53133+009350FM-15+0061ETGQ V0201101N002112200019N0112651N1+02301+00401999999ADDGA1041+021001999GF104991999999999999999999MA1102101999999REMMET056METAR ETGQ 071320Z 11004KT 9999 SCT070 23/04 Q1021 BLU/;
0125102340999992008050714204+53133+009350FM-15+0061ETGQ V0200901N002112200019N0112651N1+02301+00301999999ADDGA1041+021001999GF104991999999999999999999MA1102001999999REMMET056METAR ETGQ 071420Z 09004KT 9999 SCT070 23/03 Q1020 BLU/;
0125102340999992008050715204+53133+009350FM-15+0061ETGQ V0200501N002612200019N0112651N1+02301+00401999999ADDGA1021+021001999GF102991999999999999999999MA1102001999999REMMET056METAR ETGQ 071520Z 05005KT 9999 FEW070 23/04 Q1020 BLU/;
0125102340999992008050716204+53133+009350FM-15+0061ETGQ V0200701N001512200019N0112651N1+02301+00501999999ADDGA1021+021001999GF102991999999999999999999MA1101901999999REMMET056METAR ETGQ 071620Z 07003KT 9999 FEW070 23/05 Q1019 BLU/;
0125102340999992008050717204+53133+009350FM-15+0061ETGQ V0201101N002112200019N0112651N1+02201+00501999999ADDGA1021+021001999GF102991999999999999999999MA1101901999999REMMET056METAR ETGQ 071720Z 11004KT 9999 FEW070 22/05 Q1019 BLU/;
0125102340999992008050718204+53133+009350FM-15+0061ETGQ V0201001N001512200019N0112651N1+02101+00501999999ADDGA1021+021001999GF102991999999999999999999MA1101901999999REMMET056METAR ETGQ 071820Z 10003KT 9999 FEW070 21/05 Q1019 BLU/;
0125102340999992008050804204+53133+009350FM-15+0061ETGQ V0209999C000012200019N0112651N1+00901+00701999999ADDGA1021+084001999GF102991999999999999999999MA1102001999999REMMET056METAR ETGQ 080420Z 00000KT 9999 FEW280 09/07 Q1020 BLU/;
0125102340999992008050805204+53133+009350FM-15+0061ETGQ V0209999C000012200019N0112651N1+01101+00801999999ADDGA1021+084001999GF102991999999999999999999MA1102001999999REMMET056METAR ETGQ 080520Z 00000KT 9999 FEW280 11/08 Q1020 BLU/;
0125102340999992008050806204+53133+009350FM-15+0061ETGQ V0209999C000012200019N0112651N1+01201+00801999999ADDGA1021+084001999GF102991999999999999999999MA1102001999999REMMET056METAR ETGQ 080620Z 00000KT 9999 FEW280 12/08 Q1020 BLU/;
0125102340999992008050807204+53133+009350FM-15+0061ETGQ V0209999C000012200019N0112651N1+01601+00801999999ADDGA1021+084001999GF102991999999999999999999MA1102001999999REMMET056METAR ETGQ 080720Z 00000KT 9999 FEW280 16/08 Q1020 BLU/;
0076102340999992008050808204+53133+009350FM-15+0061ETGQ V0209999C000012200019N0112651N1+01801+00701999999ADDMA1102001999999REMMET049METAR ETGQ 080820Z 00000KT 9999 18/07 Q1020 BLU/;
0076102340999992008050809204+53133+009350FM-15+0061ETGQ V0201401N002112200019N0112651N1+02101+00301999999ADDMA1101901999999REMMET049METAR ETGQ 080920Z 14004KT 9999 21/03 Q1019 BLU/;
0125102340999992008050810204+53133+009350FM-15+0061ETGQ V0201601N003112200019N0112651N1+02201+00301999999ADDGA1021+018001999GF102991999999999999999999MA1101901999999REMMET056METAR ETGQ 081020Z 16006KT 9999 FEW060 22/03 Q1019 BLU/;
0076102340999992008050811204+53133+009350FM-15+0061ETGQ V0201601N002612200019N0112651N1+02301+00201999999ADDMA1101801999999REMMET049METAR ETGQ 081120Z 16005KT 9999 23/02 Q1018 BLU/;
0076102340999992008050812204+53133+009350FM-15+0061ETGQ V0201201N003112200019N0112651N1+02301+00101999999ADDMA1101691999999REMMET049METAR ETGQ 081220Z 12006KT 9999 23/01 Q1017 BLU/;
0076102340999992008050813204+53133+009350FM-15+0061ETGQ V0201401N003612200019N0112651N1+02301+00101999999ADDMA1101691999999REMMET049METAR ETGQ 081320Z 14007KT 9999 23/01 Q1017 BLU/;
0076102340999992008050814204+53133+009350FM-15+0061ETGQ V0201201N002612200019N0112651N1+02401+00101999999ADDMA1101691999999REMMET049METAR ETGQ 081420Z 12005KT 9999 24/01 Q1017 BLU/;
0076102340999992008050815204+53133+009350FM-15+0061ETGQ V0201301N002612200019N0112651N1+02401+00101999999ADDMA1101591999999REMMET049METAR ETGQ 081520Z 13005KT 9999 24/01 Q1016 BLU/;
0076102340999992008050817204+53133+009350FM-15+0061ETGQ V0201301N002612200019N0112651N1+02301+00201999999ADDMA1101591999999REMMET049METAR ETGQ 081720Z 13005KT 9999 23/02 Q1016 BLU/;
0076102340999992008050818204+53133+009350FM-15+0061ETGQ V0201101N002112200019N0112651N1+02201+00201999999ADDMA1101591999999REMMET049METAR ETGQ 081820Z 11004KT 9999 22/02 Q1016 BLU/;
0076102340999992008050904204+53133+009350FM-15+0061ETGQ V0209999C000012200019N0112651N1+00901+00701999999ADDMA1101691999999REMMET049METAR ETGQ 090420Z 00000KT 9999 09/07 Q1017 BLU/;
0076102340999992008050905204+53133+009350FM-15+0061ETGQ V0202301N000512200019N0112651N1+01001+00801999999ADDMA1101691999999REMMET049METAR ETGQ 090520Z 23001KT 9999 10/08 Q1017 BLU/;
0076102340999992008050906204+53133+009350FM-15+0061ETGQ V0209999C000012200019N0112651N1+01401+00801999999ADDMA1101691999999REMMET049METAR ETGQ 090620Z 00000KT 9999 14/08 Q1017 BLU/;
0076102340999992008050907204+53133+009350FM-15+0061ETGQ V0209999C000012200019N0112651N1+01601+00701999999ADDMA1101691999999REMMET049METAR ETGQ 090720Z 00000KT 9999 16/07 Q1017 BLU/;
0076102340999992008050908204+53133+009350FM-15+0061ETGQ V0209999C000012200019N0112651N1+01901+00801999999ADDMA1101691999999REMMET049METAR ETGQ 090820Z 00000KT 9999 19/08 Q1017 BLU/;
0076102340999992008050909204+53133+009350FM-15+0061ETGQ V0201601N002112200019N0112651N1+02201+00601999999ADDMA1101591999999REMMET049METAR ETGQ 090920Z 16004KT 9999 22/06 Q1016 BLU/;
0125102340999992008050910204+53133+009350FM-15+0061ETGQ V0201401N002612200019N0112651N1+02301+00501999999ADDGA1021+018001999GF102991999999999999999999MA1101591999999REMMET056METAR ETGQ 091020Z 14005KT 9999 FEW060 23/05 Q1016 BLU/;
0125102340999992008050911204+53133+009350FM-15+0061ETGQ V0201301N003112200019N0112651N1+02401+00501999999ADDGA1021+018001999GF102991999999999999999999MA1101591999999REMMET056METAR ETGQ 091120Z 13006KT 9999 FEW060 24/05 Q1016 BLU/;
0125102340999992008050912204+53133+009350FM-15+0061ETGQ V0201001N003612200019N0112651N1+02501+00301999999ADDGA1021+018001999GF102991999999999999999999MA1101491999999REMMET056METAR ETGQ 091220Z 10007KT 9999 FEW060 25/03 Q1015 BLU/;
0076102340999992008050913204+53133+009350FM-15+0061ETGQ V0201101N003112200019N0112651N1+02501+00401999999ADDMA1101491999999REMMET049METAR ETGQ 091320Z 11006KT 9999 25/04 Q1015 BLU/;
0076102340999992008050914204+53133+009350FM-15+0061ETGQ V0201201N003612200019N0112651N1+02501+00401999999ADDMA1101391999999REMMET049METAR ETGQ 091420Z 12007KT 9999 25/04 Q1014 BLU/;
0076102340999992008050915204+53133+009350FM-15+0061ETGQ V0201101N002612200019N0112651N1+02601+00301999999ADDMA1101391999999REMMET049METAR ETGQ 091520Z 11005KT 9999 26/03 Q1014 BLU/;
0076102340999992008050916204+53133+009350FM-15+0061ETGQ V0201201N003112200019N0112651N1+02501+00301999999ADDMA1101391999999REMMET049METAR ETGQ 091620Z 12006KT 9999 25/03 Q1014 BLU/;
0125102340999992008050917204+53133+009350FM-15+0061ETGQ V0201201N002112200019N0112651N1+02501+00201999999ADDGA1021+090001999GF102991999999999999999999MA1101391999999REMMET056METAR ETGQ 091720Z 12004KT 9999 FEW300 25/02 Q1014 BLU/;
0125102340999992008050918204+53133+009350FM-15+0061ETGQ V0200901N001012200019N0112651N1+02401+00401999999ADDGA1021+090001999GF102991999999999999999999MA1101391999999REMMET056METAR ETGQ 091820Z 09002KT 9999 FEW300 24/04 Q1014 BLU/;
0125102340999992008051304204+53133+009350FM-15+0061ETGQ V0202201N001012200019N0112651N1+01101+00901999999ADDGA1021+030001999GF102991999999999999999999MA1101591999999REMMET056METAR ETGQ 130420Z 22002KT 9999 FEW100 11/09 Q1016 BLU/;
0125102340999992008051305204+53133+009350FM-15+0061ETGQ V0209999V001012200019N0112651N1+01301+00901999999ADDGA1041+030001999GF104991999999999999999999MA1101591999999REMMET056METAR ETGQ 130520Z VRB02KT 9999 SCT100 13/09 Q1016 BLU/;
0125102340999992008051306204+53133+009350FM-15+0061ETGQ V0209999V000512200019N0112651N1+01501+00901999999ADDGA1041+027001999GF104991999999999999999999MA1101591999999REMMET056METAR ETGQ 130620Z VRB01KT 9999 SCT090 15/09 Q1016 BLU/;
