0090102340999992015010100204+53133+009350FM-15+006199999V0201901N001019999999N999999999+00301+00201999999ADDMA1103701999999REMMET063METAR ETGQ 010020Z AUTO 19002KT //// // ////// 03/02 Q1037 ///=
0090102340999992015010100504+53133+009350FM-15+006199999V0203101N001019999999N999999999+00301+00101999999ADDMA1103701999999REMMET063METAR ETGQ 010050Z AUTO 31002KT //// // ////// 03/01 Q1037 ///=
0090102340999992015010101204+53133+009350FM-15+006199999V0203201N000519999999N999999999+00201+00101999999ADDMA1103701999999REMMET063METAR ETGQ 010120Z AUTO 32001KT //// // ////// 02/01 Q1037 ///=
0090102340999992015010101504+53133+009350FM-15+006199999V0203301N000519999999N999999999+00201+00101999999ADDMA1103701999999REMMET063METAR ETGQ 010150Z AUTO 33001KT //// // ////// 02/01 Q1037 ///=
0090102340999992015010102204+53133+009350FM-15+006199999V0203201N001019999999N999999999+00101+00101999999ADDMA1103701999999REMMET063METAR ETGQ 010220Z AUTO 32002KT //// // ////// 01/01 Q1037 ///=
0090102340999992015010102504+53133+009350FM-15+006199999V0203101N001019999999N999999999+00101+00001999999ADDMA1103701999999REMMET063METAR ETGQ 010250Z AUTO 31002KT //// // ////// 01/00 Q1037 ///=
0090102340999992015010103204+53133+009350FM-15+006199999V0209999V001019999999N999999999+00001+00001999999ADDMA1103601999999REMMET063METAR ETGQ 010320Z AUTO VRB02KT //// // ////// 00/00 Q1036 ///=
0090102340999992015010103504+53133+009350FM-15+006199999V0203001N001019999999N999999999+00001+00001999999ADDMA1103601999999REMMET063METAR ETGQ 010350Z AUTO 30002KT //// // ////// 00/00 Q1036 ///=
0090102340999992015010104204+53133+009350FM-15+006199999V0209999V001019999999N999999999+00101+00001999999ADDMA1103601999999REMMET063METAR ETGQ 010420Z AUTO VRB02KT //// // ////// 01/00 Q1036 ///=
0090102340999992015010104504+53133+009350FM-15+006199999V0209999V001019999999N999999999+00101+00101999999ADDMA1103501999999REMMET063METAR ETGQ 010450Z AUTO VRB02KT //// // ////// 01/01 Q1035 ///=
0090102340999992015010105204+53133+009350FM-15+006199999V0202701N001519999999N999999999+00101+00101999999ADDMA1103601999999REMMET063METAR ETGQ 010520Z AUTO 27003KT //// // ////// 01/01 Q1036 ///=
0090102340999992015010120204+53133+009350FM-15+006199999V0209999V001019999999N999999999+00101+00001999999ADDMA1103301999999REMMET063METAR ETGQ 012020Z AUTO VRB02KT //// // ////// 01/00 Q1033 ///=
0091102340999992015010120504+53133+009350FM-15+006199999V0203201N001519999999N999999999+00001-00101999999ADDMA1103301999999REMMET064METAR ETGQ 012050Z AUTO 32003KT //// // ////// 00/M01 Q1033 ///=
0091102340999992015010121204+53133+009350FM-15+006199999V0202901N001519999999N999999999+00101+00001999999ADDMA1103301999999REMMET064METAR ETGQ 012120Z AUTO 29003KT //// // ////// 01/M00 Q1033 ///=
0091102340999992015010121504+53133+009350FM-15+006199999V0209999V000519999999N999999999+00001-00101999999ADDMA1103301999999REMMET064METAR ETGQ 012150Z AUTO VRB01KT //// // ////// 00/M01 Q1033 ///=
0091102340999992015010122204+53133+009350FM-15+006199999V0201701N001019999999N999999999+00101+00001999999ADDMA1103301999999REMMET064METAR ETGQ 012220Z AUTO 17002KT //// // ////// 01/M00 Q1033 ///=
0091102340999992015010122504+53133+009350FM-15+006199999V0209999V001019999999N999999999+00101-00101999999ADDMA1103201999999REMMET064METAR ETGQ 012250Z AUTO VRB02KT //// // ////// 01/M01 Q1032 ///=
0091102340999992015010123204+53133+009350FM-15+006199999V0201501N001519999999N999999999+00101-00101999999ADDMA1103201999999REMMET064METAR ETGQ 012320Z AUTO 15003KT //// // ////// 01/M01 Q1032 ///=
0091102340999992015010123504+53133+009350FM-15+006199999V0201401N001519999999N999999999+00101-00101999999ADDMA1103101999999REMMET064METAR ETGQ 012350Z AUTO 14003KT //// // ////// 01/M01 Q1031 ///=
0091102340999992015010200204+53133+009350FM-15+006199999V0201801N001519999999N999999999+00101-00101999999ADDMA1103001999999REMMET064METAR ETGQ 020020Z AUTO 18003KT //// // ////// 01/M01 Q1030 ///=
0091102340999992015010200504+53133+009350FM-15+006199999V0201301N003619999999N999999999+00201-00101999999ADDMA1103001999999REMMET064METAR ETGQ 020050Z AUTO 13007KT //// // ////// 02/M01 Q1030 ///=
0091102340999992015010201204+53133+009350FM-15+006199999V0202201N002119999999N999999999+00201-00101999999ADDMA1103001999999REMMET064METAR ETGQ 020120Z AUTO 22004KT //// // ////// 02/M01 Q1030 ///=
0091102340999992015010201504+53133+009350FM-15+006199999V0203001N002119999999N999999999+00201-00101999999ADDMA1103001999999REMMET064METAR ETGQ 020150Z AUTO 30004KT //// // ////// 02/M01 Q1030 ///=
0091102340999992015010202204+53133+009350FM-15+006199999V0201901N001519999999N999999999+00201-00101999999ADDMA1102901999999REMMET064METAR ETGQ 020220Z AUTO 19003KT //// // ////// 02/M01 Q1029 ///=
0091102340999992015010202504+53133+009350FM-15+006199999V0202001N002619999999N999999999+00201-00101999999ADDMA1102901999999REMMET064METAR ETGQ 020250Z AUTO 20005KT //// // ////// 02/M01 Q1029 ///=
0091102340999992015010203204+53133+009350FM-15+006199999V0202101N002619999999N999999999+00301-00101999999ADDMA1102801999999REMMET064METAR ETGQ 020320Z AUTO 21005KT //// // ////// 03/M01 Q1028 ///=
0091102340999992015010203504+53133+009350FM-15+006199999V0201901N003119999999N999999999+00301-00101999999ADDMA1102801999999REMMET064METAR ETGQ 020350Z AUTO 19006KT //// // ////// 03/M01 Q1028 ///=
0091102340999992015010204204+53133+009350FM-15+006199999V0202201N002619999999N999999999+00301-00101999999ADDMA1102701999999REMMET064METAR ETGQ 020420Z AUTO 22005KT //// // ////// 03/M01 Q1027 ///=
0091102340999992015010204504+53133+009350FM-15+006199999V0202101N003119999999N999999999+00301-00101999999ADDMA1102701999999REMMET064METAR ETGQ 020450Z AUTO 21006KT //// // ////// 03/M01 Q1027 ///=
0091102340999992015010205204+53133+009350FM-15+006199999V0202401N002619999999N999999999+00301-00101999999ADDMA1102701999999REMMET064METAR ETGQ 020520Z AUTO 24005KT //// // ////// 03/M01 Q1027 ///=
0090102340999992015010220204+53133+009350FM-15+006199999V0202201N002119999999N999999999+00401+00101999999ADDMA1103301999999REMMET063METAR ETGQ 022020Z AUTO 22004KT //// // ////// 04/01 Q1033 ///=
0090102340999992015010220504+53133+009350FM-15+006199999V0202301N001519999999N999999999+00301+00101999999ADDMA1103301999999REMMET063METAR ETGQ 022050Z AUTO 23003KT //// // ////// 03/01 Q1033 ///=
0090102340999992015010221204+53133+009350FM-15+006199999V0202101N002119999999N999999999+00301+00101999999ADDMA1103401999999REMMET063METAR ETGQ 022120Z AUTO 21004KT //// // ////// 03/01 Q1034 ///=
0090102340999992015010221504+53133+009350FM-15+006199999V0202301N002619999999N999999999+00301+00001999999ADDMA1103401999999REMMET063METAR ETGQ 022150Z AUTO 23005KT //// // ////// 03/00 Q1034 ///=
0090102340999992015010222204+53133+009350FM-15+006199999V0202201N002619999999N999999999+00301+00001999999ADDMA1103401999999REMMET063METAR ETGQ 022220Z AUTO 22005KT //// // ////// 03/00 Q1034 ///=
0090102340999992015010222504+53133+009350FM-15+006199999V0202301N002619999999N999999999+00201+00001999999ADDMA1103301999999REMMET063METAR ETGQ 022250Z AUTO 23005KT //// // ////// 02/00 Q1033 ///=
0091102340999992015010223204+53133+009350FM-15+006199999V0202201N002119999999N999999999+00301+00001999999ADDMA1103301999999REMMET064METAR ETGQ 022320Z AUTO 22004KT //// // ////// 03/M00 Q1033 ///=
0091102340999992015010223504+53133+009350FM-15+006199999V0202301N002119999999N999999999+00201+00001999999ADDMA1103401999999REMMET064METAR ETGQ 022350Z AUTO 23004KT //// // ////// 02/M00 Q1034 ///=
0091102340999992015010300204+53133+009350FM-15+006199999V0202101N001019999999N999999999+00201+00001999999ADDMA1103401999999REMMET064METAR ETGQ 030020Z AUTO 21002KT //// // ////// 02/M00 Q1034 ///=
0091102340999992015010300504+53133+009350FM-15+006199999V0201801N001519999999N999999999+00201+00001999999ADDMA1103301999999REMMET064METAR ETGQ 030050Z AUTO 18003KT //// // ////// 02/M00 Q1033 ///=
0091102340999992015010301204+53133+009350FM-15+006199999V0209999V001019999999N999999999+00201+00001999999ADDMA1103401999999REMMET064METAR ETGQ 030120Z AUTO VRB02KT //// // ////// 02/M00 Q1034 ///=
0091102340999992015010301504+53133+009350FM-15+006199999V0209999V001019999999N999999999+00201+00001999999ADDMA1103401999999REMMET064METAR ETGQ 030150Z AUTO VRB02KT //// // ////// 02/M00 Q1034 ///=
0090102340999992015010302204+53133+009350FM-15+006199999V0202001N002619999999N999999999+00201+00001999999ADDMA1103301999999REMMET063METAR ETGQ 030220Z AUTO 20005KT //// // ////// 02/00 Q1033 ///=
0090102340999992015010302504+53133+009350FM-15+006199999V0202001N002619999999N999999999+00201+00001999999ADDMA1103301999999REMMET063METAR ETGQ 030250Z AUTO 20005KT //// // ////// 02/00 Q1033 ///=
0090102340999992015010303204+53133+009350FM-15+006199999V0201901N002119999999N999999999+00201+00001999999ADDMA1103201999999REMMET063METAR ETGQ 030320Z AUTO 19004KT //// // ////// 02/00 Q1032 ///=
0090102340999992015010303504+53133+009350FM-15+006199999V0201801N002119999999N999999999+00201+00001999999ADDMA1103201999999REMMET063METAR ETGQ 030350Z AUTO 18004KT //// // ////// 02/00 Q1032 ///=
0090102340999992015010304204+53133+009350FM-15+006199999V0209999V001019999999N999999999+00201+00001999999ADDMA1103201999999REMMET063METAR ETGQ 030420Z AUTO VRB02KT //// // ////// 02/00 Q1032 ///=
0090102340999992015010304504+53133+009350FM-15+006199999V0202401N002119999999N999999999+00201+00101999999ADDMA1103201999999REMMET063METAR ETGQ 030450Z AUTO 24004KT //// // ////// 02/01 Q1032 ///=
0090102340999992015010305204+53133+009350FM-15+006199999V0209999V001019999999N999999999+00201+00101999999ADDMA1103001999999REMMET063METAR ETGQ 030520Z AUTO VRB02KT //// // ////// 02/01 Q1030 ///=
0090102340999992015010320204+53133+009350FM-15+006199999V0202101N001019999999N999999999+00001+00001999999ADDMA1102001999999REMMET063METAR ETGQ 032020Z AUTO 21002KT //// // ////// 00/00 Q1020 ///=
0090102340999992015010320504+53133+009350FM-15+006199999V0209999V001019999999N999999999+00101+00001999999ADDMA1102101999999REMMET063METAR ETGQ 032050Z AUTO VRB02KT //// // ////// 01/00 Q1021 ///=
0090102340999992015010321204+53133+009350FM-15+006199999V0202901N002119999999N999999999+00101+00101999999ADDMA1102201999999REMMET063METAR ETGQ 032120Z AUTO 29004KT //// // ////// 01/01 Q1022 ///=
0090102340999992015010321504+53133+009350FM-15+006199999V0203001N002619999999N999999999+00101+00101999999ADDMA1102301999999REMMET063METAR ETGQ 032150Z AUTO 30005KT //// // ////// 01/01 Q1023 ///=
0090102340999992015010322204+53133+009350FM-15+006199999V0202801N001519999999N999999999+00101+00101999999ADDMA1102401999999REMMET063METAR ETGQ 032220Z AUTO 28003KT //// // ////// 01/01 Q1024 ///=
0090102340999992015010322504+53133+009350FM-15+006199999V0202501N001519999999N999999999+00201+00101999999ADDMA1102401999999REMMET063METAR ETGQ 032250Z AUTO 25003KT //// // ////// 02/01 Q1024 ///=
0090102340999992015010323204+53133+009350FM-15+006199999V0202601N001019999999N999999999+00201+00101999999ADDMA1102501999999REMMET063METAR ETGQ 032320Z AUTO 26002KT //// // ////// 02/01 Q1025 ///=
0090102340999992015010323504+53133+009350FM-15+006199999V0201701N001019999999N999999999+00201+00101999999ADDMA1102501999999REMMET063METAR ETGQ 032350Z AUTO 17002KT //// // ////// 02/01 Q1025 ///=
0090102340999992015010400204+53133+009350FM-15+006199999V0202601N001019999999N999999999+00201+00101999999ADDMA1102601999999REMMET063METAR ETGQ 040020Z AUTO 26002KT //// // ////// 02/01 Q1026 ///=
0090102340999992015010400504+53133+009350FM-15+006199999V0202501N001019999999N999999999+00201+00201999999ADDMA1102601999999REMMET063METAR ETGQ 040050Z AUTO 25002KT //// // ////// 02/02 Q1026 ///=
0090102340999992015010401204+53133+009350FM-15+006199999V0202801N002119999999N999999999+00301+00201999999ADDMA1102701999999REMMET063METAR ETGQ 040120Z AUTO 28004KT //// // ////// 03/02 Q1027 ///=
0090102340999992015010401504+53133+009350FM-15+006199999V0202901N002619999999N999999999+00301+00201999999ADDMA1102701999999REMMET063METAR ETGQ 040150Z AUTO 29005KT //// // ////// 03/02 Q1027 ///=
0090102340999992015010402204+53133+009350FM-15+006199999V0203001N001519999999N999999999+00301+00201999999ADDMA1102801999999REMMET063METAR ETGQ 040220Z AUTO 30003KT //// // ////// 03/02 Q1028 ///=
0090102340999992015010402504+53133+009350FM-15+006199999V0202901N002119999999N999999999+00301+00201999999ADDMA1102801999999REMMET063METAR ETGQ 040250Z AUTO 29004KT //// // ////// 03/02 Q1028 ///=
0090102340999992015010403204+53133+009350FM-15+006199999V0202901N002119999999N999999999+00301+00201999999ADDMA1102801999999REMMET063METAR ETGQ 040320Z AUTO 29004KT //// // ////// 03/02 Q1028 ///=
0090102340999992015010403504+53133+009350FM-15+006199999V0202901N002119999999N999999999+00301+00101999999ADDMA1102801999999REMMET063METAR ETGQ 040350Z AUTO 29004KT //// // ////// 03/01 Q1028 ///=
0090102340999992015010404204+53133+009350FM-15+006199999V0203001N002119999999N999999999+00301+00101999999ADDMA1102801999999REMMET063METAR ETGQ 040420Z AUTO 30004KT //// // ////// 03/01 Q1028 ///=
0090102340999992015010404504+53133+009350FM-15+006199999V0202901N002119999999N999999999+00201+00101999999ADDMA1102901999999REMMET063METAR ETGQ 040450Z AUTO 29004KT //// // ////// 02/01 Q1029 ///=
0090102340999992015010405204+53133+009350FM-15+006199999V0202901N002119999999N999999999+00201+00101999999ADDMA1102901999999REMMET063METAR ETGQ 040520Z AUTO 29004KT //// // ////// 02/01 Q1029 ///=
0090102340999992015010420204+53133+009350FM-15+006199999V0209999V001019999999N999999999+00401+00101999999ADDMA1103601999999REMMET063METAR ETGQ 042020Z AUTO VRB02KT //// // ////// 04/01 Q1036 ///=
0090102340999992015010420504+53133+009350FM-15+006199999V0200201N001019999999N999999999+00301+00101999999ADDMA1103601999999REMMET063METAR ETGQ 042050Z AUTO 02002KT //// // ////// 03/01 Q1036 ///=
0090102340999992015010421204+53133+009350FM-15+006199999V0202001N001019999999N999999999+00301+00101999999ADDMA1103701999999REMMET063METAR ETGQ 042120Z AUTO 20002KT //// // ////// 03/01 Q1037 ///=
0090102340999992015010421504+53133+009350FM-15+006199999V0209999C000019999999N999999999+00201+00001999999ADDMA1103701999999REMMET063METAR ETGQ 042150Z AUTO 00000KT //// // ////// 02/00 Q1037 ///=
0090102340999992015010422204+53133+009350FM-15+006199999V0201701N001019999999N999999999+00301+00101999999ADDMA1103701999999REMMET063METAR ETGQ 042220Z AUTO 17002KT //// // ////// 03/01 Q1037 ///=
0090102340999992015010422504+53133+009350FM-15+006199999V0202001N001019999999N999999999+00301+00101999999ADDMA1103701999999REMMET063METAR ETGQ 042250Z AUTO 20002KT //// // ////// 03/01 Q1037 ///=
0090102340999992015010423204+53133+009350FM-15+006199999V0202101N001019999999N999999999+00301+00101999999ADDMA1103701999999REMMET063METAR ETGQ 042320Z AUTO 21002KT //// // ////// 03/01 Q1037 ///=
0090102340999992015010423504+53133+009350FM-15+006199999V0201901N001519999999N999999999+00301+00001999999ADDMA1103701999999REMMET063METAR ETGQ 042350Z AUTO 19003KT //// // ////// 03/00 Q1037 ///=
0090102340999992015010500204+53133+009350FM-15+006199999V0202101N001019999999N999999999+00301+00001999999ADDMA1103701999999REMMET063METAR ETGQ 050020Z AUTO 21002KT //// // ////// 03/00 Q1037 ///=
0090102340999992015010500504+53133+009350FM-15+006199999V0202201N001519999999N999999999+00201+00001999999ADDMA1103701999999REMMET063METAR ETGQ 050050Z AUTO 22003KT //// // ////// 02/00 Q1037 ///=
0091102340999992015010501204+53133+009350FM-15+006199999V0202001N001519999999N999999999+00201+00001999999ADDMA1103701999999REMMET064METAR ETGQ 050120Z AUTO 20003KT //// // ////// 02/M00 Q1037 ///=
0091102340999992015010501504+53133+009350FM-15+006199999V0202101N002119999999N999999999+00201+00001999999ADDMA1103601999999REMMET064METAR ETGQ 050150Z AUTO 21004KT //// // ////// 02/M00 Q1036 ///=
0091102340999992015010502204+53133+009350FM-15+006199999V0202001N001019999999N999999999+00101-00101999999ADDMA1103601999999REMMET064METAR ETGQ 050220Z AUTO 20002KT //// // ////// 01/M01 Q1036 ///=
0091102340999992015010502504+53133+009350FM-15+006199999V0202101N001019999999N999999999+00101-00101999999ADDMA1103601999999REMMET064METAR ETGQ 050250Z AUTO 21002KT //// // ////// 01/M01 Q1036 ///=
0091102340999992015010503204+53133+009350FM-15+006199999V0209999V000519999999N999999999+00001-00101999999ADDMA1103601999999REMMET064METAR ETGQ 050320Z AUTO VRB01KT //// // ////// 00/M01 Q1036 ///=
0092102340999992015010503504+53133+009350FM-15+006199999V0209999V000519999999N999999999+00001-00201999999ADDMA1103601999999REMMET065METAR ETGQ 050350Z AUTO VRB01KT //// // ////// M00/M02 Q1036 ///=
0092102340999992015010504204+53133+009350FM-15+006199999V0209999V001019999999N999999999+00001-00101999999ADDMA1103601999999REMMET065METAR ETGQ 050420Z AUTO VRB02KT //// // ////// M00/M01 Q1036 ///=
0092102340999992015010504504+53133+009350FM-15+006199999V0201901N001019999999N999999999-00101-00201999999ADDMA1103601999999REMMET065METAR ETGQ 050450Z AUTO 19002KT //// // ////// M01/M02 Q1036 ///=
0092102340999992015010505204+53133+009350FM-15+006199999V0202101N001019999999N999999999-00101-00101999999ADDMA1103501999999REMMET065METAR ETGQ 050520Z AUTO 21002KT //// // ////// M01/M01 Q1035 ///=
0092102340999992015010520204+53133+009350FM-15+006199999V0209999V000519999999N999999999-00301-00301999999ADDMA1103001999999REMMET065METAR ETGQ 052020Z AUTO VRB01KT //// // ////// M03/M03 Q1030 ///=
0092102340999992015010520504+53133+009350FM-15+006199999V0203501N000519999999N999999999-00301-00301999999ADDMA1103001999999REMMET065METAR ETGQ 052050Z AUTO 35001KT //// // ////// M03/M03 Q1030 ///=
0092102340999992015010521204+53133+009350FM-15+006199999V0203201N000519999999N999999999-00301-00301999999ADDMA1103001999999REMMET065METAR ETGQ 052120Z AUTO 32001KT //// // ////// M03/M03 Q1030 ///=
0092102340999992015010521504+53133+009350FM-15+006199999V0203201N000519999999N999999999-00301-00301999999ADDMA1103001999999REMMET065METAR ETGQ 052150Z AUTO 32001KT //// // ////// M03/M03 Q1030 ///=
0092102340999992015010522204+53133+009350FM-15+006199999V0203401N000519999999N999999999-00201-00201999999ADDMA1103001999999REMMET065METAR ETGQ 052220Z AUTO 34001KT //// // ////// M02/M02 Q1030 ///=
0092102340999992015010522504+53133+009350FM-15+006199999V0209999V001019999999N999999999-00201-00201999999ADDMA1102901999999REMMET065METAR ETGQ 052250Z AUTO VRB02KT //// // ////// M02/M02 Q1029 ///=
0092102340999992015010523204+53133+009350FM-15+006199999V0202601N001019999999N999999999-00201-00201999999ADDMA1102901999999REMMET065METAR ETGQ 052320Z AUTO 26002KT //// // ////// M02/M02 Q1029 ///=
0092102340999992015010523504+53133+009350FM-15+006199999V0203001N001019999999N999999999-00201-00301999999ADDMA1102901999999REMMET065METAR ETGQ 052350Z AUTO 30002KT //// // ////// M02/M03 Q1029 ///=
0092102340999992015010600204+53133+009350FM-15+006199999V0209999V000519999999N999999999-00201-00201999999ADDMA1102901999999REMMET065METAR ETGQ 060020Z AUTO VRB01KT //// // ////// M02/M02 Q1029 ///=
0092102340999992015010600504+53133+009350FM-15+006199999V0209999V000519999999N999999999-00201-00201999999ADDMA1102801999999REMMET065METAR ETGQ 060050Z AUTO VRB01KT //// // ////// M02/M02 Q1028 ///=
0092102340999992015010601204+53133+009350FM-15+006199999V0209999V000519999999N999999999-00201-00201999999ADDMA1102801999999REMMET065METAR ETGQ 060120Z AUTO VRB01KT //// // ////// M02/M02 Q1028 ///=
0092102340999992015010601504+53133+009350FM-15+006199999V0209999V001019999999N999999999-00201-00201999999ADDMA1102801999999REMMET065METAR ETGQ 060150Z AUTO VRB02KT //// // ////// M02/M02 Q1028 ///=
0092102340999992015010602204+53133+009350FM-15+006199999V0201701N001519999999N999999999-00301-00301999999ADDMA1102801999999REMMET065METAR ETGQ 060220Z AUTO 17003KT //// // ////// M03/M03 Q1028 ///=
0092102340999992015010602504+53133+009350FM-15+006199999V0201901N001019999999N999999999-00301-00301999999ADDMA1102701999999REMMET065METAR ETGQ 060250Z AUTO 19002KT //// // ////// M03/M03 Q1027 ///=
0092102340999992015010603204+53133+009350FM-15+006199999V0209999V000519999999N999999999-00301-00301999999ADDMA1102701999999REMMET065METAR ETGQ 060320Z AUTO VRB01KT //// // ////// M03/M03 Q1027 ///=
0092102340999992015010603504+53133+009350FM-15+006199999V0209999V000519999999N999999999-00301-00301999999ADDMA1102701999999REMMET065METAR ETGQ 060350Z AUTO VRB01KT //// // ////// M03/M03 Q1027 ///=
0092102340999992015010604204+53133+009350FM-15+006199999V0209999V000519999999N999999999-00301-00301999999ADDMA1102701999999REMMET065METAR ETGQ 060420Z AUTO VRB01KT //// // ////// M03/M03 Q1027 ///=
0092102340999992015010604504+53133+009350FM-15+006199999V0209999V001019999999N999999999-00301-00301999999ADDMA1102601999999REMMET065METAR ETGQ 060450Z AUTO VRB02KT //// // ////// M03/M03 Q1026 ///=
0092102340999992015010605204+53133+009350FM-15+006199999V0201901N001019999999N999999999-00301-00301999999ADDMA1102601999999REMMET065METAR ETGQ 060520Z AUTO 19002KT //// // ////// M03/M03 Q1026 ///=
0091102340999992015010620204+53133+009350FM-15+006199999V0201901N002619999999N999999999+00101-00201999999ADDMA1102401999999REMMET064METAR ETGQ 062020Z AUTO 19005KT //// // ////// 01/M02 Q1024 ///=
0091102340999992015010620504+53133+009350FM-15+006199999V0201801N002119999999N999999999+00101-00101999999ADDMA1102501999999REMMET064METAR ETGQ 062050Z AUTO 18004KT //// // ////// 01/M01 Q1025 ///=
0091102340999992015010621204+53133+009350FM-15+006199999V0202001N002119999999N999999999+00101-00101999999ADDMA1102501999999REMMET064METAR ETGQ 062120Z AUTO 20004KT //// // ////// 01/M01 Q1025 ///=
0091102340999992015010621504+53133+009350FM-15+006199999V0201701N001019999999N999999999+00101-00101999999ADDMA1102501999999REMMET064METAR ETGQ 062150Z AUTO 17002KT //// // ////// 01/M01 Q1025 ///=
0091102340999992015010622204+53133+009350FM-15+006199999V0201901N002119999999N999999999+00101-00101999999ADDMA1102501999999REMMET064METAR ETGQ 062220Z AUTO 19004KT //// // ////// 01/M01 Q1025 ///=
0091102340999992015010622504+53133+009350FM-15+006199999V0201801N002119999999N999999999+00101-00101999999ADDMA1102501999999REMMET064METAR ETGQ 062250Z AUTO 18004KT //// // ////// 01/M01 Q1025 ///=
0091102340999992015010623204+53133+009350FM-15+006199999V0201401N002119999999N999999999+00201+00001999999ADDMA1102501999999REMMET064METAR ETGQ 062320Z AUTO 14004KT //// // ////// 02/M00 Q1025 ///=
0091102340999992015010623504+53133+009350FM-15+006199999V0201901N001519999999N999999999+00101+00001999999ADDMA1102501999999REMMET064METAR ETGQ 062350Z AUTO 19003KT //// // ////// 01/M00 Q1025 ///=
0090102340999992015010700204+53133+009350FM-15+006199999V0202101N002119999999N999999999+00201+00001999999ADDMA1102601999999REMMET063METAR ETGQ 070020Z AUTO 21004KT //// // ////// 02/00 Q1026 ///=
0090102340999992015010700504+53133+009350FM-15+006199999V0209999V001019999999N999999999+00201+00001999999ADDMA1102601999999REMMET063METAR ETGQ 070050Z AUTO VRB02KT //// // ////// 02/00 Q1026 ///=
0090102340999992015010701204+53133+009350FM-15+006199999V0201901N001519999999N999999999+00201+00001999999ADDMA1102601999999REMMET063METAR ETGQ 070120Z AUTO 19003KT //// // ////// 02/00 Q1026 ///=
0090102340999992015010701504+53133+009350FM-15+006199999V0202201N002119999999N999999999+00201+00001999999ADDMA1102601999999REMMET063METAR ETGQ 070150Z AUTO 22004KT //// // ////// 02/00 Q1026 ///=
0090102340999992015010702204+53133+009350FM-15+006199999V0209999V001019999999N999999999+00201+00001999999ADDMA1102601999999REMMET063METAR ETGQ 070220Z AUTO VRB02KT //// // ////// 02/00 Q1026 ///=
0090102340999992015010702504+53133+009350FM-15+006199999V0202301N001519999999N999999999+00201+00101999999ADDMA1102601999999REMMET063METAR ETGQ 070250Z AUTO 23003KT //// // ////// 02/01 Q1026 ///=
0090102340999992015010703204+53133+009350FM-15+006199999V0202101N001519999999N999999999+00201+00101999999ADDMA1102701999999REMMET063METAR ETGQ 070320Z AUTO 21003KT //// // ////// 02/01 Q1027 ///=
0090102340999992015010703504+53133+009350FM-15+006199999V0209999V001019999999N999999999+00201+00101999999ADDMA1102701999999REMMET063METAR ETGQ 070350Z AUTO VRB02KT //// // ////// 02/01 Q1027 ///=
0090102340999992015010704204+53133+009350FM-15+006199999V0202401N001019999999N999999999+00201+00101999999ADDMA1102701999999REMMET063METAR ETGQ 070420Z AUTO 24002KT //// // ////// 02/01 Q1027 ///=
0090102340999992015010704504+53133+009350FM-15+006199999V0209999V001019999999N999999999+00201+00101999999ADDMA1102701999999REMMET063METAR ETGQ 070450Z AUTO VRB02KT //// // ////// 02/01 Q1027 ///=
0090102340999992015010705204+53133+009350FM-15+006199999V0202001N001019999999N999999999+00201+00101999999ADDMA1102801999999REMMET063METAR ETGQ 070520Z AUTO 20002KT //// // ////// 02/01 Q1028 ///=
0090102340999992015010720204+53133+009350FM-15+006199999V0202101N001519999999N999999999+00301+00001999999ADDMA1102901999999REMMET063METAR ETGQ 072020Z AUTO 21003KT //// // ////// 03/00 Q1029 ///=
0090102340999992015010720504+53133+009350FM-15+006199999V0202401N001519999999N999999999+00301+00001999999ADDMA1102901999999REMMET063METAR ETGQ 072050Z AUTO 24003KT //// // ////// 03/00 Q1029 ///=
0090102340999992015010721204+53133+009350FM-15+006199999V0202001N002119999999N999999999+00301+00001999999ADDMA1102901999999REMMET063METAR ETGQ 072120Z AUTO 20004KT //// // ////// 03/00 Q1029 ///=
0091102340999992015010721504+53133+009350FM-15+006199999V0201901N001519999999N999999999+00301+00001999999ADDMA1102901999999REMMET064METAR ETGQ 072150Z AUTO 19003KT //// // ////// 03/M00 Q1029 ///=
0091102340999992015010722204+53133+009350FM-15+006199999V0201601N001519999999N999999999+00301+00001999999ADDMA1102901999999REMMET064METAR ETGQ 072220Z AUTO 16003KT //// // ////// 03/M00 Q1029 ///=
0091102340999992015010722504+53133+009350FM-15+006199999V0201401N002119999999N999999999+00301-00101999999ADDMA1102801999999REMMET064METAR ETGQ 072250Z AUTO 14004KT //// // ////// 03/M01 Q1028 ///=
0091102340999992015010723204+53133+009350FM-15+006199999V0201301N001519999999N999999999+00301+00001999999ADDMA1102801999999REMMET064METAR ETGQ 072320Z AUTO 13003KT //// // ////// 03/M00 Q1028 ///=
0091102340999992015010723504+53133+009350FM-15+006199999V0201301N001519999999N999999999+00301+00001999999ADDMA1102801999999REMMET064METAR ETGQ 072350Z AUTO 13003KT //// // ////// 03/M00 Q1028 ///=
0091102340999992015010800204+53133+009350FM-15+006199999V0201201N001519999999N999999999+00301+00001999999ADDMA1102801999999REMMET064METAR ETGQ 080020Z AUTO 12003KT //// // ////// 03/M00 Q1028 ///=
0091102340999992015010800504+53133+009350FM-15+006199999V0201501N001019999999N999999999+00301+00001999999ADDMA1102701999999REMMET064METAR ETGQ 080050Z AUTO 15002KT //// // ////// 03/M00 Q1027 ///=
0091102340999992015010801204+53133+009350FM-15+006199999V0201201N001019999999N999999999+00301+00001999999ADDMA1102701999999REMMET064METAR ETGQ 080120Z AUTO 12002KT //// // ////// 03/M00 Q1027 ///=
0090102340999992015010801504+53133+009350FM-15+006199999V0200901N001019999999N999999999+00301+00001999999ADDMA1102701999999REMMET063METAR ETGQ 080150Z AUTO 09002KT //// // ////// 03/00 Q1027 ///=
0090102340999992015010802204+53133+009350FM-15+006199999V0209999V001019999999N999999999+00301+00101999999ADDMA1102701999999REMMET063METAR ETGQ 080220Z AUTO VRB02KT //// // ////// 03/01 Q1027 ///=
0090102340999992015010802504+53133+009350FM-15+006199999V0203001N001019999999N999999999+00401+00201999999ADDMA1102701999999REMMET063METAR ETGQ 080250Z AUTO 30002KT //// // ////// 04/02 Q1027 ///=
0090102340999992015010803204+53133+009350FM-15+006199999V0209999V000519999999N999999999+00401+00201999999ADDMA1102701999999REMMET063METAR ETGQ 080320Z AUTO VRB01KT //// // ////// 04/02 Q1027 ///=
0090102340999992015010803504+53133+009350FM-15+006199999V0200901N001019999999N999999999+00401+00201999999ADDMA1102601999999REMMET063METAR ETGQ 080350Z AUTO 09002KT //// // ////// 04/02 Q1026 ///=
0090102340999992015010804204+53133+009350FM-15+006199999V0209999V001019999999N999999999+00401+00301999999ADDMA1102601999999REMMET063METAR ETGQ 080420Z AUTO VRB02KT //// // ////// 04/03 Q1026 ///=
0090102340999992015010804504+53133+009350FM-15+006199999V0209999V001019999999N999999999+00401+00301999999ADDMA1102601999999REMMET063METAR ETGQ 080450Z AUTO VRB02KT //// // ////// 04/03 Q1026 ///=
0090102340999992015010805204+53133+009350FM-15+006199999V0200201N001019999999N999999999+00401+00301999999ADDMA1102601999999REMMET063METAR ETGQ 080520Z AUTO 02002KT //// // ////// 04/03 Q1026 ///=
0090102340999992015010820204+53133+009350FM-15+006199999V0202701N003119999999N999999999+00701+00401999999ADDMA1102701999999REMMET063METAR ETGQ 082020Z AUTO 27006KT //// // ////// 07/04 Q1027 ///=
0090102340999992015010820504+53133+009350FM-15+006199999V0202601N002119999999N999999999+00701+00401999999ADDMA1102801999999REMMET063METAR ETGQ 082050Z AUTO 26004KT //// // ////// 07/04 Q1028 ///=
0090102340999992015010821204+53133+009350FM-15+006199999V0202601N002619999999N999999999+00701+00401999999ADDMA1102901999999REMMET063METAR ETGQ 082120Z AUTO 26005KT //// // ////// 07/04 Q1029 ///=
0090102340999992015010821504+53133+009350FM-15+006199999V0202301N003119999999N999999999+00701+00401999999ADDMA1102901999999REMMET063METAR ETGQ 082150Z AUTO 23006KT //// // ////// 07/04 Q1029 ///=
0090102340999992015010822204+53133+009350FM-15+006199999V0202401N002619999999N999999999+00701+00401999999ADDMA1102901999999REMMET063METAR ETGQ 082220Z AUTO 24005KT //// // ////// 07/04 Q1029 ///=
0090102340999992015010822504+53133+009350FM-15+006199999V0202301N002619999999N999999999+00601+00401999999ADDMA1102901999999REMMET063METAR ETGQ 082250Z AUTO 23005KT //// // ////// 06/04 Q1029 ///=
0090102340999992015010823204+53133+009350FM-15+006199999V0202101N003619999999N999999999+00701+00401999999ADDMA1103001999999REMMET063METAR ETGQ 082320Z AUTO 21007KT //// // ////// 07/04 Q1030 ///=
0090102340999992015010823504+53133+009350FM-15+006199999V0202001N002619999999N999999999+00601+00401999999ADDMA1102901999999REMMET063METAR ETGQ 082350Z AUTO 20005KT //// // ////// 06/04 Q1029 ///=
0090102340999992015010900204+53133+009350FM-15+006199999V0202101N002619999999N999999999+00601+00301999999ADDMA1102901999999REMMET063METAR ETGQ 090020Z AUTO 21005KT //// // ////// 06/03 Q1029 ///=
0090102340999992015010900504+53133+009350FM-15+006199999V0202001N003119999999N999999999+00601+00401999999ADDMA1102801999999REMMET063METAR ETGQ 090050Z AUTO 20006KT //// // ////// 06/04 Q1028 ///=
0090102340999992015010901204+53133+009350FM-15+006199999V0202201N002119999999N999999999+00601+00301999999ADDMA1102901999999REMMET063METAR ETGQ 090120Z AUTO 22004KT //// // ////// 06/03 Q1029 ///=
0090102340999992015010901504+53133+009350FM-15+006199999V0202101N002619999999N999999999+00701+00401999999ADDMA1102901999999REMMET063METAR ETGQ 090150Z AUTO 21005KT //// // ////// 07/04 Q1029 ///=
0090102340999992015010902204+53133+009350FM-15+006199999V0209999V001019999999N999999999+00601+00401999999ADDMA1102901999999REMMET063METAR ETGQ 090220Z AUTO VRB02KT //// // ////// 06/04 Q1029 ///=
0090102340999992015010902504+53133+009350FM-15+006199999V0202301N002619999999N999999999+00701+00401999999ADDMA1102801999999REMMET063METAR ETGQ 090250Z AUTO 23005KT //// // ////// 07/04 Q1028 ///=
0090102340999992015010903204+53133+009350FM-15+006199999V0202401N002119999999N999999999+00701+00401999999ADDMA1102801999999REMMET063METAR ETGQ 090320Z AUTO 24004KT //// // ////// 07/04 Q1028 ///=
0090102340999992015010903504+53133+009350FM-15+006199999V0202701N002119999999N999999999+00701+00401999999ADDMA1102801999999REMMET063METAR ETGQ 090350Z AUTO 27004KT //// // ////// 07/04 Q1028 ///=
0090102340999992015010904204+53133+009350FM-15+006199999V0202301N002119999999N999999999+00701+00401999999ADDMA1102801999999REMMET063METAR ETGQ 090420Z AUTO 23004KT //// // ////// 07/04 Q1028 ///=
0090102340999992015010904504+53133+009350FM-15+006199999V0202101N002119999999N999999999+00801+00401999999ADDMA1102701999999REMMET063METAR ETGQ 090450Z AUTO 21004KT //// // ////// 08/04 Q1027 ///=
0090102340999992015010905204+53133+009350FM-15+006199999V0202101N003619999999N999999999+00801+00401999999ADDMA1102601999999REMMET063METAR ETGQ 090520Z AUTO 21007KT //// // ////// 08/04 Q1026 ///=
0090102340999992015010920204+53133+009350FM-15+006199999V0209999V001019999999N999999999+00901+00801999999ADDMA1101601999999REMMET063METAR ETGQ 092020Z AUTO VRB02KT //// // ////// 09/08 Q1016 ///=
0090102340999992015010920504+53133+009350FM-15+006199999V0202401N001519999999N999999999+01001+00901999999ADDMA1101501999999REMMET063METAR ETGQ 092050Z AUTO 24003KT //// // ////// 10/09 Q1015 ///=
0090102340999992015010921204+53133+009350FM-15+006199999V0202301N003119999999N999999999+01101+00901999999ADDMA1101501999999REMMET063METAR ETGQ 092120Z AUTO 23006KT //// // ////// 11/09 Q1015 ///=
0090102340999992015010921504+53133+009350FM-15+006199999V0202201N003119999999N999999999+01101+01001999999ADDMA1101501999999REMMET063METAR ETGQ 092150Z AUTO 22006KT //// // ////// 11/10 Q1015 ///=
0090102340999992015010922204+53133+009350FM-15+006199999V0202301N002619999999N999999999+01201+01001999999ADDMA1101501999999REMMET063METAR ETGQ 092220Z AUTO 23005KT //// // ////// 12/10 Q1015 ///=
0090102340999992015010922504+53133+009350FM-15+006199999V0202301N004119999999N999999999+01201+01001999999ADDMA1101501999999REMMET063METAR ETGQ 092250Z AUTO 23008KT //// // ////// 12/10 Q1015 ///=
0090102340999992015010923204+53133+009350FM-15+006199999V0202001N003619999999N999999999+01201+01001999999ADDMA1101501999999REMMET063METAR ETGQ 092320Z AUTO 20007KT //// // ////// 12/10 Q1015 ///=
0090102340999992015010923504+53133+009350FM-15+006199999V0202301N002619999999N999999999+01201+01001999999ADDMA1101501999999REMMET063METAR ETGQ 092350Z AUTO 23005KT //// // ////// 12/10 Q1015 ///=
0090102340999992015011000204+53133+009350FM-15+006199999V0202201N002619999999N999999999+01301+01001999999ADDMA1101501999999REMMET063METAR ETGQ 100020Z AUTO 22005KT //// // ////// 13/10 Q1015 ///=
0090102340999992015011000504+53133+009350FM-15+006199999V0201701N001519999999N999999999+01301+01001999999ADDMA1101501999999REMMET063METAR ETGQ 100050Z AUTO 17003KT //// // ////// 13/10 Q1015 ///=
0090102340999992015011001204+53133+009350FM-15+006199999V0201701N001519999999N999999999+01301+01001999999ADDMA1101501999999REMMET063METAR ETGQ 100120Z AUTO 17003KT //// // ////// 13/10 Q1015 ///=
0090102340999992015011001504+53133+009350FM-15+006199999V0201701N001519999999N999999999+01301+01001999999ADDMA1101501999999REMMET063METAR ETGQ 100150Z AUTO 17003KT //// // ////// 13/10 Q1015 ///=
0090102340999992015011002204+53133+009350FM-15+006199999V0201701N001519999999N999999999+01301+01001999999ADDMA1101501999999REMMET063METAR ETGQ 100220Z AUTO 17003KT //// // ////// 13/10 Q1015 ///=
0090102340999992015011002504+53133+009350FM-15+006199999V0201701N001519999999N999999999+01301+01001999999ADDMA1101501999999REMMET063METAR ETGQ 100250Z AUTO 17003KT //// // ////// 13/10 Q1015 ///=
0090102340999992015011003204+53133+009350FM-15+006199999V0201701N001519999999N999999999+01301+01001999999ADDMA1101501999999REMMET063METAR ETGQ 100320Z AUTO 17003KT //// // ////// 13/10 Q1015 ///=
0090102340999992015011003504+53133+009350FM-15+006199999V0201701N001519999999N999999999+01301+01001999999ADDMA1101501999999REMMET063METAR ETGQ 100350Z AUTO 17003KT //// // ////// 13/10 Q1015 ///=
0090102340999992015011004204+53133+009350FM-15+006199999V0201701N001519999999N999999999+01301+01001999999ADDMA1101501999999REMMET063METAR ETGQ 100420Z AUTO 17003KT //// // ////// 13/10 Q1015 ///=
0090102340999992015011004504+53133+009350FM-15+006199999V0201701N001519999999N999999999+01301+01001999999ADDMA1101401999999REMMET063METAR ETGQ 100450Z AUTO 17003KT //// // ////// 13/10 Q1014 ///=
0090102340999992015011005204+53133+009350FM-15+006199999V0201701N001519999999N999999999+01301+01001999999ADDMA1101401999999REMMET063METAR ETGQ 100520Z AUTO 17003KT //// // ////// 13/10 Q1014 ///=
0090102340999992015011020204+53133+009350FM-15+006199999V0202601N003119999999N999999999+00801+00201999999ADDMA1101601999999REMMET063METAR ETGQ 102020Z AUTO 26006KT //// // ////// 08/02 Q1016 ///=
0090102340999992015011020504+53133+009350FM-15+006199999V0202701N002619999999N999999999+00801+00301999999ADDMA1101601999999REMMET063METAR ETGQ 102050Z AUTO 27005KT //// // ////// 08/03 Q1016 ///=
0101102340999992015011021204+53133+009350FM-15+006199999V0203001N004619999999N999999999+00701+00101999999ADDMA1101601999999OC100981REMMET066METAR ETGQ 102120Z AUTO 30009G19KT //// // ////// 07/01 Q1016 ///=
0090102340999992015011021504+53133+009350FM-15+006199999V0203101N003619999999N999999999+00701+00001999999ADDMA1101601999999REMMET063METAR ETGQ 102150Z AUTO 31007KT //// // ////// 07/00 Q1016 ///=
0090102340999992015011022204+53133+009350FM-15+006199999V0202801N002619999999N999999999+00601+00001999999ADDMA1101701999999REMMET063METAR ETGQ 102220Z AUTO 28005KT //// // ////// 06/00 Q1017 ///=
0091102340999992015011022504+53133+009350FM-15+006199999V0202601N002619999999N999999999+00601-00101999999ADDMA1101701999999REMMET064METAR ETGQ 102250Z AUTO 26005KT //// // ////// 06/M01 Q1017 ///=
0091102340999992015011023204+53133+009350FM-15+006199999V0202801N002619999999N999999999+00501-00201999999ADDMA1101701999999REMMET064METAR ETGQ 102320Z AUTO 28005KT //// // ////// 05/M02 Q1017 ///=
0091102340999992015011023504+53133+009350FM-15+006199999V0202801N002619999999N999999999+00501-00101999999ADDMA1101701999999REMMET064METAR ETGQ 102350Z AUTO 28005KT //// // ////// 05/M01 Q1017 ///=
0091102340999992015011100204+53133+009350FM-15+006199999V0202601N001519999999N999999999+00501-00101999999ADDMA1101601999999REMMET064METAR ETGQ 110020Z AUTO 26003KT //// // ////// 05/M01 Q1016 ///=
0091102340999992015011100504+53133+009350FM-15+006199999V0202801N002619999999N999999999+00501-00101999999ADDMA1101601999999REMMET064METAR ETGQ 110050Z AUTO 28005KT //// // ////// 05/M01 Q1016 ///=
0091102340999992015011101204+53133+009350FM-15+006199999V0202601N002119999999N999999999+00501-00101999999ADDMA1101601999999REMMET064METAR ETGQ 110120Z AUTO 26004KT //// // ////// 05/M01 Q1016 ///=
0091102340999992015011101504+53133+009350FM-15+006199999V0202501N002119999999N999999999+00401-00101999999ADDMA1101601999999REMMET064METAR ETGQ 110150Z AUTO 25004KT //// // ////// 04/M01 Q1016 ///=
0091102340999992015011102204+53133+009350FM-15+006199999V0202301N001519999999N999999999+00401-00101999999ADDMA1101601999999REMMET064METAR ETGQ 110220Z AUTO 23003KT //// // ////// 04/M01 Q1016 ///=
0091102340999992015011102504+53133+009350FM-15+006199999V0202401N002119999999N999999999+00401-00101999999ADDMA1101601999999REMMET064METAR ETGQ 110250Z AUTO 24004KT //// // ////// 04/M01 Q1016 ///=
0091102340999992015011103204+53133+009350FM-15+006199999V0202401N002119999999N999999999+00401-00101999999ADDMA1101601999999REMMET064METAR ETGQ 110320Z AUTO 24004KT //// // ////// 04/M01 Q1016 ///=
0091102340999992015011103504+53133+009350FM-15+006199999V0202401N002619999999N999999999+00401-00101999999ADDMA1101601999999REMMET064METAR ETGQ 110350Z AUTO 24005KT //// // ////// 04/M01 Q1016 ///=
0091102340999992015011104204+53133+009350FM-15+006199999V0202401N002119999999N999999999+00401-00101999999ADDMA1101601999999REMMET064METAR ETGQ 110420Z AUTO 24004KT //// // ////// 04/M01 Q1016 ///=
0091102340999992015011104504+53133+009350FM-15+006199999V0202301N002119999999N999999999+00401-00101999999ADDMA1101501999999REMMET064METAR ETGQ 110450Z AUTO 23004KT //// // ////// 04/M01 Q1015 ///=
0091102340999992015011105204+53133+009350FM-15+006199999V0202401N002119999999N999999999+00401-00101999999ADDMA1101601999999REMMET064METAR ETGQ 110520Z AUTO 24004KT //// // ////// 04/M01 Q1016 ///=
0090102340999992015011120204+53133+009350FM-15+006199999V0202401N003619999999N999999999+00601+00001999999ADDMA1102401999999REMMET063METAR ETGQ 112020Z AUTO 24007KT //// // ////// 06/00 Q1024 ///=
0090102340999992015011120504+53133+009350FM-15+006199999V0202501N003119999999N999999999+00601+00101999999ADDMA1102401999999REMMET063METAR ETGQ 112050Z AUTO 25006KT //// // ////// 06/01 Q1024 ///=
0090102340999992015011121204+53133+009350FM-15+006199999V0202301N002619999999N999999999+00601+00101999999ADDMA1102401999999REMMET063METAR ETGQ 112120Z AUTO 23005KT //// // ////// 06/01 Q1024 ///=
0090102340999992015011121504+53133+009350FM-15+006199999V0202401N002619999999N999999999+00501+00101999999ADDMA1102401999999REMMET063METAR ETGQ 112150Z AUTO 24005KT //// // ////// 05/01 Q1024 ///=
0090102340999992015011122204+53133+009350FM-15+006199999V0202301N002619999999N999999999+00601+00201999999ADDMA1102401999999REMMET063METAR ETGQ 112220Z AUTO 23005KT //// // ////// 06/02 Q1024 ///=
0090102340999992015011122504+53133+009350FM-15+006199999V0202301N002619999999N999999999+00601+00201999999ADDMA1102401999999REMMET063METAR ETGQ 112250Z AUTO 23005KT //// // ////// 06/02 Q1024 ///=
0090102340999992015011123204+53133+009350FM-15+006199999V0202501N003619999999N999999999+00501+00201999999ADDMA1102301999999REMMET063METAR ETGQ 112320Z AUTO 25007KT //// // ////// 05/02 Q1023 ///=
0101102340999992015011123504+53133+009350FM-15+006199999V0202301N005719999999N999999999+00501+00201999999ADDMA1102301999999OC101081REMMET066METAR ETGQ 112350Z AUTO 23011G21KT //// // ////// 05/02 Q1023 ///=
0101102340999992015011200204+53133+009350FM-15+006199999V0202201N004619999999N999999999+00501+00201999999ADDMA1102301999999OC100981REMMET066METAR ETGQ 120020Z AUTO 22009G19KT //// // ////// 05/02 Q1023 ///=
0090102340999992015011200504+53133+009350FM-15+006199999V0202201N004119999999N999999999+00501+00301999999ADDMA1102301999999REMMET063METAR ETGQ 120050Z AUTO 22008KT //// // ////// 05/03 Q1023 ///=
0090102340999992015011201204+53133+009350FM-15+006199999V0202101N004619999999N999999999+00501+00301999999ADDMA1102301999999REMMET063METAR ETGQ 120120Z AUTO 21009KT //// // ////// 05/03 Q1023 ///=
0090102340999992015011201504+53133+009350FM-15+006199999V0202101N004619999999N999999999+00501+00301999999ADDMA1102301999999REMMET063METAR ETGQ 120150Z AUTO 21009KT //// // ////// 05/03 Q1023 ///=
0090102340999992015011202204+53133+009350FM-15+006199999V0202101N004119999999N999999999+00601+00301999999ADDMA1102301999999REMMET063METAR ETGQ 120220Z AUTO 21008KT //// // ////// 06/03 Q1023 ///=
0090102340999992015011202504+53133+009350FM-15+006199999V0202101N005119999999N999999999+00601+00301999999ADDMA1102301999999REMMET063METAR ETGQ 120250Z AUTO 21010KT //// // ////// 06/03 Q1023 ///=
0090102340999992015011203204+53133+009350FM-15+006199999V0202201N004119999999N999999999+00601+00301999999ADDMA1102301999999REMMET063METAR ETGQ 120320Z AUTO 22008KT //// // ////// 06/03 Q1023 ///=
0090102340999992015011203504+53133+009350FM-15+006199999V0202201N003119999999N999999999+00601+00301999999ADDMA1102201999999REMMET063METAR ETGQ 120350Z AUTO 22006KT //// // ////// 06/03 Q1022 ///=
0090102340999992015011204204+53133+009350FM-15+006199999V0202201N003619999999N999999999+00601+00301999999ADDMA1102201999999REMMET063METAR ETGQ 120420Z AUTO 22007KT //// // ////// 06/03 Q1022 ///=
0090102340999992015011204504+53133+009350FM-15+006199999V0202101N004119999999N999999999+00601+00301999999ADDMA1102201999999REMMET063METAR ETGQ 120450Z AUTO 21008KT //// // ////// 06/03 Q1022 ///=
0101102340999992015011205204+53133+009350FM-15+006199999V0202201N004119999999N999999999+00601+00301999999ADDMA1102101999999OC100931REMMET066METAR ETGQ 120520Z AUTO 22008G18KT //// // ////// 06/03 Q1021 ///=
0090102340999992015011205504+53133+009350FM-15+006199999V0202301N003119999999N999999999+00601+00301999999ADDMA1102101999999REMMET063METAR ETGQ 120550Z AUTO 23006KT //// // ////// 06/03 Q1021 ///=
0101102340999992015011220204+53133+009350FM-15+006199999V0202101N005719999999N999999999+00801+00301999999ADDMA1101701999999OC101181REMMET066METAR ETGQ 122020Z AUTO 21011G23KT //// // ////// 08/03 Q1017 ///=
0090102340999992015011220504+53133+009350FM-15+006199999V0202101N004619999999N999999999+00801+00301999999ADDMA1101701999999REMMET063METAR ETGQ 122050Z AUTO 21009KT //// // ////// 08/03 Q1017 ///=
0101102340999992015011221204+53133+009350FM-15+006199999V0202101N004619999999N999999999+00801+00301999999ADDMA1101701999999OC101131REMMET066METAR ETGQ 122120Z AUTO 21009G22KT //// // ////// 08/03 Q1017 ///=
0101102340999992015011221504+53133+009350FM-15+006199999V0202101N004619999999N999999999+00801+00301999999ADDMA1101601999999OC100981REMMET066METAR ETGQ 122150Z AUTO 21009G19KT //// // ////// 08/03 Q1016 ///=
0090102340999992015011222204+53133+009350FM-15+006199999V0202001N006219999999N999999999+00801+00301999999ADDMA1101601999999REMMET063METAR ETGQ 122220Z AUTO 20012KT //// // ////// 08/03 Q1016 ///=
0101102340999992015011222504+53133+009350FM-15+006199999V0202201N005119999999N999999999+00801+00301999999ADDMA1101601999999OC101031REMMET066METAR ETGQ 122250Z AUTO 22010G20KT //// // ////// 08/03 Q1016 ///=
0090102340999992015011223204+53133+009350FM-15+006199999V0202201N004619999999N999999999+00901+00301999999ADDMA1101601999999REMMET063METAR ETGQ 122320Z AUTO 22009KT //// // ////// 09/03 Q1016 ///=
0090102340999992015011223504+53133+009350FM-15+006199999V0200201N003619999999N999999999+00901+00301999999ADDMA1101601999999REMMET063METAR ETGQ 122350Z AUTO 02007KT //// // ////// 09/03 Q1016 ///=
0090102340999992015011300204+53133+009350FM-15+006199999V0203401N003119999999N999999999+00901+00301999999ADDMA1101601999999REMMET063METAR ETGQ 130020Z AUTO 34006KT //// // ////// 09/03 Q1016 ///=
0090102340999992015011300504+53133+009350FM-15+006199999V0202401N003619999999N999999999+00901+00301999999ADDMA1101501999999REMMET063METAR ETGQ 130050Z AUTO 24007KT //// // ////// 09/03 Q1015 ///=
0090102340999992015011301204+53133+009350FM-15+006199999V0202401N002619999999N999999999+00901+00301999999ADDMA1101501999999REMMET063METAR ETGQ 130120Z AUTO 24005KT //// // ////// 09/03 Q1015 ///=
0101102340999992015011301504+53133+009350FM-15+006199999V0202001N003619999999N999999999+00901+00301999999ADDMA1101501999999OC100931REMMET066METAR ETGQ 130150Z AUTO 20007G18KT //// // ////// 09/03 Q1015 ///=
0090102340999992015011302204+53133+009350FM-15+006199999V0202101N003119999999N999999999+00901+00301999999ADDMA1101501999999REMMET063METAR ETGQ 130220Z AUTO 21006KT //// // ////// 09/03 Q1015 ///=
0090102340999992015011302504+53133+009350FM-15+006199999V0202001N002119999999N999999999+00901+00401999999ADDMA1101401999999REMMET063METAR ETGQ 130250Z AUTO 20004KT //// // ////// 09/04 Q1014 ///=
0090102340999992015011303204+53133+009350FM-15+006199999V0201901N003119999999N999999999+00901+00301999999ADDMA1101401999999REMMET063METAR ETGQ 130320Z AUTO 19006KT //// // ////// 09/03 Q1014 ///=
0090102340999992015011303504+53133+009350FM-15+006199999V0202001N002619999999N999999999+00901+00301999999ADDMA1101401999999REMMET063METAR ETGQ 130350Z AUTO 20005KT //// // ////// 09/03 Q1014 ///=
0090102340999992015011304204+53133+009350FM-15+006199999V0202001N003119999999N999999999+00901+00301999999ADDMA1101301999999REMMET063METAR ETGQ 130420Z AUTO 20006KT //// // ////// 09/03 Q1013 ///=
0090102340999992015011304504+53133+009350FM-15+006199999V0201901N003119999999N999999999+01001+00201999999ADDMA1101301999999REMMET063METAR ETGQ 130450Z AUTO 19006KT //// // ////// 10/02 Q1013 ///=
0090102340999992015011305204+53133+009350FM-15+006199999V0202001N004119999999N999999999+01001+00201999999ADDMA1101301999999REMMET063METAR ETGQ 130520Z AUTO 20008KT //// // ////// 10/02 Q1013 ///=
0090102340999992015011320204+53133+009350FM-15+006199999V0202001N002619999999N999999999+00901+00601999999ADDMA1100901999999REMMET063METAR ETGQ 132020Z AUTO 20005KT //// // ////// 09/06 Q1009 ///=
0090102340999992015011320504+53133+009350FM-15+006199999V0202301N002119999999N999999999+00901+00501999999ADDMA1100901999999REMMET063METAR ETGQ 132050Z AUTO 23004KT //// // ////// 09/05 Q1009 ///=
0090102340999992015011321204+53133+009350FM-15+006199999V0202201N002119999999N999999999+00901+00501999999ADDMA1100901999999REMMET063METAR ETGQ 132120Z AUTO 22004KT //// // ////// 09/05 Q1009 ///=
0090102340999992015011321504+53133+009350FM-15+006199999V0202301N001519999999N999999999+00801+00501999999ADDMA1100901999999REMMET063METAR ETGQ 132150Z AUTO 23003KT //// // ////// 08/05 Q1009 ///=
0090102340999992015011322204+53133+009350FM-15+006199999V0202201N001519999999N999999999+00801+00501999999ADDMA1100901999999REMMET063METAR ETGQ 132220Z AUTO 22003KT //// // ////// 08/05 Q1009 ///=
0090102340999992015011322504+53133+009350FM-15+006199999V0202201N001019999999N999999999+00801+00501999999ADDMA1100901999999REMMET063METAR ETGQ 132250Z AUTO 22002KT //// // ////// 08/05 Q1009 ///=
0090102340999992015011323204+53133+009350FM-15+006199999V0201801N001519999999N999999999+00801+00501999999ADDMA1100901999999REMMET063METAR ETGQ 132320Z AUTO 18003KT //// // ////// 08/05 Q1009 ///=
0090102340999992015011323504+53133+009350FM-15+006199999V0202101N002619999999N999999999+00801+00501999999ADDMA1100901999999REMMET063METAR ETGQ 132350Z AUTO 21005KT //// // ////// 08/05 Q1009 ///=
0090102340999992015011400204+53133+009350FM-15+006199999V0202001N002119999999N999999999+00801+00501999999ADDMA1100801999999REMMET063METAR ETGQ 140020Z AUTO 20004KT //// // ////// 08/05 Q1008 ///=
0090102340999992015011400504+53133+009350FM-15+006199999V0201801N002119999999N999999999+00901+00501999999ADDMA1100801999999REMMET063METAR ETGQ 140050Z AUTO 18004KT //// // ////// 09/05 Q1008 ///=
0090102340999992015011401204+53133+009350FM-15+006199999V0202001N003119999999N999999999+00801+00501999999ADDMA1100801999999REMMET063METAR ETGQ 140120Z AUTO 20006KT //// // ////// 08/05 Q1008 ///=
0090102340999992015011401504+53133+009350FM-15+006199999V0202001N003119999999N999999999+00801+00501999999ADDMA1100801999999REMMET063METAR ETGQ 140150Z AUTO 20006KT //// // ////// 08/05 Q1008 ///=
0090102340999992015011402204+53133+009350FM-15+006199999V0202001N004119999999N999999999+00901+00401999999ADDMA1100701999999REMMET063METAR ETGQ 140220Z AUTO 20008KT //// // ////// 09/04 Q1007 ///=
0101102340999992015011402504+53133+009350FM-15+006199999V0202101N006219999999N999999999+00901+00401999999ADDMA1100701999999OC101241REMMET066METAR ETGQ 140250Z AUTO 21012G24KT //// // ////// 09/04 Q1007 ///=
0101102340999992015011403204+53133+009350FM-15+006199999V0202401N005719999999N999999999+00901+00301999999ADDMA1100701999999OC101181REMMET066METAR ETGQ 140320Z AUTO 24011G23KT //// // ////// 09/03 Q1007 ///=
0101102340999992015011403504+53133+009350FM-15+006199999V0202301N005719999999N999999999+00701+00401999999ADDMA1100801999999OC101131REMMET066METAR ETGQ 140350Z AUTO 23011G22KT //// // ////// 07/04 Q1008 ///=
0090102340999992015011404204+53133+009350FM-15+006199999V0202701N003619999999N999999999+00601+00201999999ADDMA1101001999999REMMET063METAR ETGQ 140420Z AUTO 27007KT //// // ////// 06/02 Q1010 ///=
0090102340999992015011404504+53133+009350FM-15+006199999V0202401N002119999999N999999999+00501+00301999999ADDMA1101001999999REMMET063METAR ETGQ 140450Z AUTO 24004KT //// // ////// 05/03 Q1010 ///=
0090102340999992015011405204+53133+009350FM-15+006199999V0202501N002119999999N999999999+00501+00201999999ADDMA1101101999999REMMET063METAR ETGQ 140520Z AUTO 25004KT //// // ////// 05/02 Q1011 ///=
0091102340999992015011420204+53133+009350FM-15+006199999V0209999V000519999999N999999999+00201+00001999999ADDMA1101601999999REMMET064METAR ETGQ 142020Z AUTO VRB01KT //// // ////// 02/M00 Q1016 ///=
0090102340999992015011420504+53133+009350FM-15+006199999V0201301N001519999999N999999999+00301+00101999999ADDMA1101701999999REMMET063METAR ETGQ 142050Z AUTO 13003KT //// // ////// 03/01 Q1017 ///=
0090102340999992015011421204+53133+009350FM-15+006199999V0201301N001519999999N999999999+00301+00101999999ADDMA1101601999999REMMET063METAR ETGQ 142120Z AUTO 13003KT //// // ////// 03/01 Q1016 ///=
0090102340999992015011421504+53133+009350FM-15+006199999V0201301N001519999999N999999999+00301+00101999999ADDMA1101601999999REMMET063METAR ETGQ 142150Z AUTO 13003KT //// // ////// 03/01 Q1016 ///=
0090102340999992015011422204+53133+009350FM-15+006199999V0201401N001519999999N999999999+00301+00101999999ADDMA1101601999999REMMET063METAR ETGQ 142220Z AUTO 14003KT //// // ////// 03/01 Q1016 ///=
0090102340999992015011422504+53133+009350FM-15+006199999V0201201N001519999999N999999999+00301+00101999999ADDMA1101501999999REMMET063METAR ETGQ 142250Z AUTO 12003KT //// // ////// 03/01 Q1015 ///=
0090102340999992015011423204+53133+009350FM-15+006199999V0201401N002119999999N999999999+00301+00101999999ADDMA1101401999999REMMET063METAR ETGQ 142320Z AUTO 14004KT //// // ////// 03/01 Q1014 ///=
0090102340999992015011423504+53133+009350FM-15+006199999V0201501N002619999999N999999999+00301+00101999999ADDMA1101401999999REMMET063METAR ETGQ 142350Z AUTO 15005KT //// // ////// 03/01 Q1014 ///=
0090102340999992015011500204+53133+009350FM-15+006199999V0201401N002619999999N999999999+00401+00101999999ADDMA1101301999999REMMET063METAR ETGQ 150020Z AUTO 14005KT //// // ////// 04/01 Q1013 ///=
0090102340999992015011500504+53133+009350FM-15+006199999V0201301N002119999999N999999999+00401+00101999999ADDMA1101201999999REMMET063METAR ETGQ 150050Z AUTO 13004KT //// // ////// 04/01 Q1012 ///=
0090102340999992015011501204+53133+009350FM-15+006199999V0201401N002619999999N999999999+00401+00201999999ADDMA1101101999999REMMET063METAR ETGQ 150120Z AUTO 14005KT //// // ////// 04/02 Q1011 ///=
0090102340999992015011501504+53133+009350FM-15+006199999V0201601N002619999999N999999999+00501+00201999999ADDMA1101101999999REMMET063METAR ETGQ 150150Z AUTO 16005KT //// // ////// 05/02 Q1011 ///=
0090102340999992015011502204+53133+009350FM-15+006199999V0201401N002619999999N999999999+00501+00201999999ADDMA1101001999999REMMET063METAR ETGQ 150220Z AUTO 14005KT //// // ////// 05/02 Q1010 ///=
0090102340999992015011502504+53133+009350FM-15+006199999V0201301N002619999999N999999999+00601+00301999999ADDMA1101001999999REMMET063METAR ETGQ 150250Z AUTO 13005KT //// // ////// 06/03 Q1010 ///=
0090102340999992015011503204+53133+009350FM-15+006199999V0201501N002619999999N999999999+00601+00301999999ADDMA1100901999999REMMET063METAR ETGQ 150320Z AUTO 15005KT //// // ////// 06/03 Q1009 ///=
0090102340999992015011503504+53133+009350FM-15+006199999V0201501N003619999999N999999999+00601+00301999999ADDMA1100801999999REMMET063METAR ETGQ 150350Z AUTO 15007KT //// // ////// 06/03 Q1008 ///=
0090102340999992015011504204+53133+009350FM-15+006199999V0201501N003119999999N999999999+00701+00301999999ADDMA1100801999999REMMET063METAR ETGQ 150420Z AUTO 15006KT //// // ////// 07/03 Q1008 ///=
0090102340999992015011504504+53133+009350FM-15+006199999V0201601N002619999999N999999999+00701+00301999999ADDMA1100701999999REMMET063METAR ETGQ 150450Z AUTO 16005KT //// // ////// 07/03 Q1007 ///=
0090102340999992015011505204+53133+009350FM-15+006199999V0201501N003119999999N999999999+00701+00301999999ADDMA1100701999999REMMET063METAR ETGQ 150520Z AUTO 15006KT //// // ////// 07/03 Q1007 ///=
0090102340999992015011520204+53133+009350FM-15+006199999V0202201N003619999999N999999999+01001+00501999999ADDMA1100201999999REMMET063METAR ETGQ 152020Z AUTO 22007KT //// // ////// 10/05 Q1002 ///=
0101102340999992015011520504+53133+009350FM-15+006199999V0202101N004119999999N999999999+01001+00501999999ADDMA1100201999999OC100981REMMET066METAR ETGQ 152050Z AUTO 21008G19KT //// // ////// 10/05 Q1002 ///=
0090102340999992015011521204+53133+009350FM-15+006199999V0202201N003119999999N999999999+01001+00501999999ADDMA1100201999999REMMET063METAR ETGQ 152120Z AUTO 22006KT //// // ////// 10/05 Q1002 ///=
0090102340999992015011521504+53133+009350FM-15+006199999V0202201N003619999999N999999999+01001+00501999999ADDMA1100201999999REMMET063METAR ETGQ 152150Z AUTO 22007KT //// // ////// 10/05 Q1002 ///=
0090102340999992015011522204+53133+009350FM-15+006199999V0202101N003619999999N999999999+01001+00501999999ADDMA1100301999999REMMET063METAR ETGQ 152220Z AUTO 21007KT //// // ////// 10/05 Q1003 ///=
0090102340999992015011522504+53133+009350FM-15+006199999V0202201N003119999999N999999999+00901+00601999999ADDMA1100301999999REMMET063METAR ETGQ 152250Z AUTO 22006KT //// // ////// 09/06 Q1003 ///=
0090102340999992015011523204+53133+009350FM-15+006199999V0202201N002619999999N999999999+00901+00601999999ADDMA1100401999999REMMET063METAR ETGQ 152320Z AUTO 22005KT //// // ////// 09/06 Q1004 ///=
0090102340999992015011523504+53133+009350FM-15+006199999V0202101N002119999999N999999999+00901+00601999999ADDMA1100401999999REMMET063METAR ETGQ 152350Z AUTO 21004KT //// // ////// 09/06 Q1004 ///=
0090102340999992015011600204+53133+009350FM-15+006199999V0202201N003119999999N999999999+00901+00501999999ADDMA1100401999999REMMET063METAR ETGQ 160020Z AUTO 22006KT //// // ////// 09/05 Q1004 ///=
0090102340999992015011600504+53133+009350FM-15+006199999V0202201N002619999999N999999999+00901+00501999999ADDMA1100401999999REMMET063METAR ETGQ 160050Z AUTO 22005KT //// // ////// 09/05 Q1004 ///=
0090102340999992015011601204+53133+009350FM-15+006199999V0202001N003119999999N999999999+00901+00501999999ADDMA1100501999999REMMET063METAR ETGQ 160120Z AUTO 20006KT //// // ////// 09/05 Q1005 ///=
0090102340999992015011601504+53133+009350FM-15+006199999V0202001N002619999999N999999999+00801+00501999999ADDMA1100501999999REMMET063METAR ETGQ 160150Z AUTO 20005KT //// // ////// 08/05 Q1005 ///=
0090102340999992015011602204+53133+009350FM-15+006199999V0202001N002119999999N999999999+00801+00401999999ADDMA1100601999999REMMET063METAR ETGQ 160220Z AUTO 20004KT //// // ////// 08/04 Q1006 ///=
0090102340999992015011602504+53133+009350FM-15+006199999V0202001N001519999999N999999999+00801+00401999999ADDMA1100601999999REMMET063METAR ETGQ 160250Z AUTO 20003KT //// // ////// 08/04 Q1006 ///=
0090102340999992015011603204+53133+009350FM-15+006199999V0202001N002119999999N999999999+00801+00501999999ADDMA1100601999999REMMET063METAR ETGQ 160320Z AUTO 20004KT //// // ////// 08/05 Q1006 ///=
0090102340999992015011603504+53133+009350FM-15+006199999V0202001N001519999999N999999999+00801+00401999999ADDMA1100601999999REMMET063METAR ETGQ 160350Z AUTO 20003KT //// // ////// 08/04 Q1006 ///=
0090102340999992015011604204+53133+009350FM-15+006199999V0201801N001519999999N999999999+00701+00401999999ADDMA1100601999999REMMET063METAR ETGQ 160420Z AUTO 18003KT //// // ////// 07/04 Q1006 ///=
0090102340999992015011604504+53133+009350FM-15+006199999V0202101N001519999999N999999999+00701+00401999999ADDMA1100601999999REMMET063METAR ETGQ 160450Z AUTO 21003KT //// // ////// 07/04 Q1006 ///=
0090102340999992015011605204+53133+009350FM-15+006199999V0201201N001019999999N999999999+00701+00401999999ADDMA1100601999999REMMET063METAR ETGQ 160520Z AUTO 12002KT //// // ////// 07/04 Q1006 ///=
0090102340999992015011620204+53133+009350FM-15+006199999V0201801N001019999999N999999999+00501+00301999999ADDMA1100801999999REMMET063METAR ETGQ 162020Z AUTO 18002KT //// // ////// 05/03 Q1008 ///=
0090102340999992015011620504+53133+009350FM-15+006199999V0201701N001019999999N999999999+00501+00301999999ADDMA1100701999999REMMET063METAR ETGQ 162050Z AUTO 17002KT //// // ////// 05/03 Q1007 ///=
0090102340999992015011621204+53133+009350FM-15+006199999V0202401N001019999999N999999999+00501+00301999999ADDMA1100801999999REMMET063METAR ETGQ 162120Z AUTO 24002KT //// // ////// 05/03 Q1008 ///=
0090102340999992015011621504+53133+009350FM-15+006199999V0202001N001019999999N999999999+00501+00301999999ADDMA1100801999999REMMET063METAR ETGQ 162150Z AUTO 20002KT //// // ////// 05/03 Q1008 ///=
0090102340999992015011622204+53133+009350FM-15+006199999V0209999V000519999999N999999999+00501+00301999999ADDMA1100801999999REMMET063METAR ETGQ 162220Z AUTO VRB01KT //// // ////// 05/03 Q1008 ///=
0090102340999992015011622504+53133+009350FM-15+006199999V0201701N001019999999N999999999+00501+00301999999ADDMA1100901999999REMMET063METAR ETGQ 162250Z AUTO 17002KT //// // ////// 05/03 Q1009 ///=
0090102340999992015011623204+53133+009350FM-15+006199999V0209999V000519999999N999999999+00501+00301999999ADDMA1100901999999REMMET063METAR ETGQ 162320Z AUTO VRB01KT //// // ////// 05/03 Q1009 ///=
0090102340999992015011623504+53133+009350FM-15+006199999V0202001N001019999999N999999999+00501+00301999999ADDMA1100901999999REMMET063METAR ETGQ 162350Z AUTO 20002KT //// // ////// 05/03 Q1009 ///=
0090102340999992015011700204+53133+009350FM-15+006199999V0202201N001519999999N999999999+00501+00301999999ADDMA1101001999999REMMET063METAR ETGQ 170020Z AUTO 22003KT //// // ////// 05/03 Q1010 ///=
0090102340999992015011700504+53133+009350FM-15+006199999V0202001N001019999999N999999999+00501+00301999999ADDMA1101001999999REMMET063METAR ETGQ 170050Z AUTO 20002KT //// // ////// 05/03 Q1010 ///=
0090102340999992015011701204+53133+009350FM-15+006199999V0209999V001019999999N999999999+00501+00301999999ADDMA1101001999999REMMET063METAR ETGQ 170120Z AUTO VRB02KT //// // ////// 05/03 Q1010 ///=
0090102340999992015011701504+53133+009350FM-15+006199999V0202201N001519999999N999999999+00501+00301999999ADDMA1101101999999REMMET063METAR ETGQ 170150Z AUTO 22003KT //// // ////// 05/03 Q1011 ///=
0090102340999992015011702204+53133+009350FM-15+006199999V0202301N001519999999N999999999+00501+00201999999ADDMA1101101999999REMMET063METAR ETGQ 170220Z AUTO 23003KT //// // ////// 05/02 Q1011 ///=
0090102340999992015011702504+53133+009350FM-15+006199999V0202701N001519999999N999999999+00501+00201999999ADDMA1101101999999REMMET063METAR ETGQ 170250Z AUTO 27003KT //// // ////// 05/02 Q1011 ///=
0090102340999992015011703204+53133+009350FM-15+006199999V0202501N001519999999N999999999+00501+00201999999ADDMA1101101999999REMMET063METAR ETGQ 170320Z AUTO 25003KT //// // ////// 05/02 Q1011 ///=
0090102340999992015011703504+53133+009350FM-15+006199999V0202901N002619999999N999999999+00501+00201999999ADDMA1101101999999REMMET063METAR ETGQ 170350Z AUTO 29005KT //// // ////// 05/02 Q1011 ///=
0090102340999992015011704204+53133+009350FM-15+006199999V0202901N002119999999N999999999+00401+00201999999ADDMA1101201999999REMMET063METAR ETGQ 170420Z AUTO 29004KT //// // ////// 04/02 Q1012 ///=
0090102340999992015011704504+53133+009350FM-15+006199999V0202901N001519999999N999999999+00401+00201999999ADDMA1101201999999REMMET063METAR ETGQ 170450Z AUTO 29003KT //// // ////// 04/02 Q1012 ///=
0090102340999992015011705204+53133+009350FM-15+006199999V0202901N001019999999N999999999+00401+00201999999ADDMA1101201999999REMMET063METAR ETGQ 170520Z AUTO 29002KT //// // ////// 04/02 Q1012 ///=
0091102340999992015011720204+53133+009350FM-15+006199999V0201301N001019999999N999999999+00101+00001999999ADDMA1101701999999REMMET064METAR ETGQ 172020Z AUTO 13002KT //// // ////// 01/M00 Q1017 ///=
0091102340999992015011720504+53133+009350FM-15+006199999V0201601N001019999999N999999999+00101+00001999999ADDMA1101801999999REMMET064METAR ETGQ 172050Z AUTO 16002KT //// // ////// 01/M00 Q1018 ///=
0091102340999992015011721204+53133+009350FM-15+006199999V0201301N001519999999N999999999+00101+00001999999ADDMA1101801999999REMMET064METAR ETGQ 172120Z AUTO 13003KT //// // ////// 01/M00 Q1018 ///=
0091102340999992015011721504+53133+009350FM-15+006199999V0201601N001519999999N999999999+00201+00001999999ADDMA1101801999999REMMET064METAR ETGQ 172150Z AUTO 16003KT //// // ////// 02/M00 Q1018 ///=
0091102340999992015011722204+53133+009350FM-15+006199999V0201801N002119999999N999999999+00201-00101999999ADDMA1101801999999REMMET064METAR ETGQ 172220Z AUTO 18004KT //// // ////// 02/M01 Q1018 ///=
0091102340999992015011722504+53133+009350FM-15+006199999V0201701N001519999999N999999999+00201-00101999999ADDMA1101801999999REMMET064METAR ETGQ 172250Z AUTO 17003KT //// // ////// 02/M01 Q1018 ///=
0091102340999992015011723204+53133+009350FM-15+006199999V0202001N002119999999N999999999+00201-00101999999ADDMA1101801999999REMMET064METAR ETGQ 172320Z AUTO 20004KT //// // ////// 02/M01 Q1018 ///=
0091102340999992015011723504+53133+009350FM-15+006199999V0201601N001519999999N999999999+00201-00201999999ADDMA1101801999999REMMET064METAR ETGQ 172350Z AUTO 16003KT //// // ////// 02/M02 Q1018 ///=
0091102340999992015011800204+53133+009350FM-15+006199999V0209999V000519999999N999999999+00201-00201999999ADDMA1101801999999REMMET064METAR ETGQ 180020Z AUTO VRB01KT //// // ////// 02/M02 Q1018 ///=
0091102340999992015011800504+53133+009350FM-15+006199999V0201901N002119999999N999999999+00201-00201999999ADDMA1101801999999REMMET064METAR ETGQ 180050Z AUTO 19004KT //// // ////// 02/M02 Q1018 ///=
0091102340999992015011801204+53133+009350FM-15+006199999V0201801N002119999999N999999999+00201-00201999999ADDMA1101701999999REMMET064METAR ETGQ 180120Z AUTO 18004KT //// // ////// 02/M02 Q1017 ///=
0091102340999992015011801504+53133+009350FM-15+006199999V0202101N002119999999N999999999+00201-00201999999ADDMA1101701999999REMMET064METAR ETGQ 180150Z AUTO 21004KT //// // ////// 02/M02 Q1017 ///=
0091102340999992015011802204+53133+009350FM-15+006199999V0202101N002619999999N999999999+00201-00201999999ADDMA1101701999999REMMET064METAR ETGQ 180220Z AUTO 21005KT //// // ////// 02/M02 Q1017 ///=
0091102340999992015011802504+53133+009350FM-15+006199999V0202101N002619999999N999999999+00201-00201999999ADDMA1101701999999REMMET064METAR ETGQ 180250Z AUTO 21005KT //// // ////// 02/M02 Q1017 ///=
0091102340999992015011803204+53133+009350FM-15+006199999V0202001N002119999999N999999999+00201-00201999999ADDMA1101701999999REMMET064METAR ETGQ 180320Z AUTO 20004KT //// // ////// 02/M02 Q1017 ///=
0091102340999992015011803504+53133+009350FM-15+006199999V0201901N002119999999N999999999+00201-00201999999ADDMA1101701999999REMMET064METAR ETGQ 180350Z AUTO 19004KT //// // ////// 02/M02 Q1017 ///=
0091102340999992015011804204+53133+009350FM-15+006199999V0202001N001019999999N999999999+00201-00201999999ADDMA1101701999999REMMET064METAR ETGQ 180420Z AUTO 20002KT //// // ////// 02/M02 Q1017 ///=
0091102340999992015011804504+53133+009350FM-15+006199999V0201401N001519999999N999999999+00201-00201999999ADDMA1101601999999REMMET064METAR ETGQ 180450Z AUTO 14003KT //// // ////// 02/M02 Q1016 ///=
0091102340999992015011805204+53133+009350FM-15+006199999V0201601N002119999999N999999999+00201-00201999999ADDMA1101601999999REMMET064METAR ETGQ 180520Z AUTO 16004KT //// // ////// 02/M02 Q1016 ///=
0091102340999992015011820204+53133+009350FM-15+006199999V0209999V001019999999N999999999+00001-00201999999ADDMA1101401999999REMMET064METAR ETGQ 182020Z AUTO VRB02KT //// // ////// 00/M02 Q1014 ///=
0092102340999992015011820504+53133+009350FM-15+006199999V0209999V001019999999N999999999+00001-00201999999ADDMA1101401999999REMMET065METAR ETGQ 182050Z AUTO VRB02KT //// // ////// M00/M02 Q1014 ///=
0092102340999992015011821204+53133+009350FM-15+006199999V0209999V001019999999N999999999+00001-00201999999ADDMA1101401999999REMMET065METAR ETGQ 182120Z AUTO VRB02KT //// // ////// M00/M02 Q1014 ///=
0092102340999992015011821504+53133+009350FM-15+006199999V0201301N001519999999N999999999+00001-00201999999ADDMA1101401999999REMMET065METAR ETGQ 182150Z AUTO 13003KT //// // ////// M00/M02 Q1014 ///=
0092102340999992015011822204+53133+009350FM-15+006199999V0201301N002119999999N999999999+00001-00201999999ADDMA1101401999999REMMET065METAR ETGQ 182220Z AUTO 13004KT //// // ////// M00/M02 Q1014 ///=
0092102340999992015011822504+53133+009350FM-15+006199999V0201401N002619999999N999999999+00001-00201999999ADDMA1101401999999REMMET065METAR ETGQ 182250Z AUTO 14005KT //// // ////// M00/M02 Q1014 ///=
0091102340999992015011823204+53133+009350FM-15+006199999V0201401N002619999999N999999999+00001-00101999999ADDMA1101401999999REMMET064METAR ETGQ 182320Z AUTO 14005KT //// // ////// 00/M01 Q1014 ///=
0091102340999992015011823504+53133+009350FM-15+006199999V0201101N001519999999N999999999+00001-00101999999ADDMA1101401999999REMMET064METAR ETGQ 182350Z AUTO 11003KT //// // ////// 00/M01 Q1014 ///=
0091102340999992015011900204+53133+009350FM-15+006199999V0201401N002619999999N999999999+00001-00201999999ADDMA1101301999999REMMET064METAR ETGQ 190020Z AUTO 14005KT //// // ////// 00/M02 Q1013 ///=
0091102340999992015011900504+53133+009350FM-15+006199999V0201301N001519999999N999999999+00001-00201999999ADDMA1101401999999REMMET064METAR ETGQ 190050Z AUTO 13003KT //// // ////// 00/M02 Q1014 ///=
0091102340999992015011901204+53133+009350FM-15+006199999V0201201N002119999999N999999999+00001-00201999999ADDMA1101301999999REMMET064METAR ETGQ 190120Z AUTO 12004KT //// // ////// 00/M02 Q1013 ///=
0091102340999992015011901504+53133+009350FM-15+006199999V0201401N002119999999N999999999+00101-00201999999ADDMA1101301999999REMMET064METAR ETGQ 190150Z AUTO 14004KT //// // ////// 01/M02 Q1013 ///=
0091102340999992015011902204+53133+009350FM-15+006199999V0201201N001519999999N999999999+00101-00201999999ADDMA1101301999999REMMET064METAR ETGQ 190220Z AUTO 12003KT //// // ////// 01/M02 Q1013 ///=
0091102340999992015011902504+53133+009350FM-15+006199999V0209999V001019999999N999999999+00101-00201999999ADDMA1101301999999REMMET064METAR ETGQ 190250Z AUTO VRB02KT //// // ////// 01/M02 Q1013 ///=
0091102340999992015011903204+53133+009350FM-15+006199999V0209999V000519999999N999999999+00101-00101999999ADDMA1101301999999REMMET064METAR ETGQ 190320Z AUTO VRB01KT //// // ////// 01/M01 Q1013 ///=
0091102340999992015011903504+53133+009350FM-15+006199999V0209999V000519999999N999999999+00101-00101999999ADDMA1101301999999REMMET064METAR ETGQ 190350Z AUTO VRB01KT //// // ////// 01/M01 Q1013 ///=
0091102340999992015011904204+53133+009350FM-15+006199999V0209999V001019999999N999999999+00001-00201999999ADDMA1101201999999REMMET064METAR ETGQ 190420Z AUTO VRB02KT //// // ////// 00/M02 Q1012 ///=
0091102340999992015011904504+53133+009350FM-15+006199999V0203101N001019999999N999999999+00001-00201999999ADDMA1101201999999REMMET064METAR ETGQ 190450Z AUTO 31002KT //// // ////// 00/M02 Q1012 ///=
0091102340999992015011905204+53133+009350FM-15+006199999V0203201N001519999999N999999999+00001-00101999999ADDMA1101201999999REMMET064METAR ETGQ 190520Z AUTO 32003KT //// // ////// 00/M01 Q1012 ///=
0091102340999992015011920204+53133+009350FM-15+006199999V0202101N001519999999N999999999+00001-00201999999ADDMA1101101999999REMMET064METAR ETGQ 192020Z AUTO 21003KT //// // ////// 00/M02 Q1011 ///=
0091102340999992015011920504+53133+009350FM-15+006199999V0202601N001019999999N999999999+00001-00201999999ADDMA1101101999999REMMET064METAR ETGQ 192050Z AUTO 26002KT //// // ////// 00/M02 Q1011 ///=
0091102340999992015011921204+53133+009350FM-15+006199999V0202001N001519999999N999999999+00001-00201999999ADDMA1101101999999REMMET064METAR ETGQ 192120Z AUTO 20003KT //// // ////// 00/M02 Q1011 ///=
0091102340999992015011921504+53133+009350FM-15+006199999V0209999V001019999999N999999999+00001-00201999999ADDMA1101101999999REMMET064METAR ETGQ 192150Z AUTO VRB02KT //// // ////// 00/M02 Q1011 ///=
0091102340999992015011922204+53133+009350FM-15+006199999V0202001N001519999999N999999999+00001-00201999999ADDMA1101101999999REMMET064METAR ETGQ 192220Z AUTO 20003KT //// // ////// 00/M02 Q1011 ///=
0092102340999992015011922504+53133+009350FM-15+006199999V0202401N001019999999N999999999+00001-00201999999ADDMA1101101999999REMMET065METAR ETGQ 192250Z AUTO 24002KT //// // ////// M00/M02 Q1011 ///=
0092102340999992015011923204+53133+009350FM-15+006199999V0209999V000519999999N999999999+00001-00101999999ADDMA1101101999999REMMET065METAR ETGQ 192320Z AUTO VRB01KT //// // ////// M00/M01 Q1011 ///=
0092102340999992015011923504+53133+009350FM-15+006199999V0203401N001019999999N999999999-00101-00201999999ADDMA1101101999999REMMET065METAR ETGQ 192350Z AUTO 34002KT //// // ////// M01/M02 Q1011 ///=
0092102340999992015012000204+53133+009350FM-15+006199999V0203101N000519999999N999999999-00101-00101999999ADDMA1101101999999REMMET065METAR ETGQ 200020Z AUTO 31001KT //// // ////// M01/M01 Q1011 ///=
0092102340999992015012000504+53133+009350FM-15+006199999V0203101N000519999999N999999999+00001-00101999999ADDMA1101101999999REMMET065METAR ETGQ 200050Z AUTO 31001KT //// // ////// M00/M01 Q1011 ///=
0092102340999992015012001204+53133+009350FM-15+006199999V0209999C000019999999N999999999+00001-00101999999ADDMA1101101999999REMMET065METAR ETGQ 200120Z AUTO 00000KT //// // ////// M00/M01 Q1011 ///=
0092102340999992015012001504+53133+009350FM-15+006199999V0203001N000519999999N999999999+00001-00101999999ADDMA1101101999999REMMET065METAR ETGQ 200150Z AUTO 30001KT //// // ////// M00/M01 Q1011 ///=
0092102340999992015012002204+53133+009350FM-15+006199999V0202901N000519999999N999999999+00001-00101999999ADDMA1101101999999REMMET065METAR ETGQ 200220Z AUTO 29001KT //// // ////// M00/M01 Q1011 ///=
0092102340999992015012002504+53133+009350FM-15+006199999V0202901N001019999999N999999999+00001-00101999999ADDMA1101101999999REMMET065METAR ETGQ 200250Z AUTO 29002KT //// // ////// M00/M01 Q1011 ///=
0092102340999992015012003204+53133+009350FM-15+006199999V0203001N001019999999N999999999+00001-00101999999ADDMA1101101999999REMMET065METAR ETGQ 200320Z AUTO 30002KT //// // ////// M00/M01 Q1011 ///=
0092102340999992015012003504+53133+009350FM-15+006199999V0203201N001019999999N999999999+00001-00101999999ADDMA1101101999999REMMET065METAR ETGQ 200350Z AUTO 32002KT //// // ////// M00/M01 Q1011 ///=
0092102340999992015012004204+53133+009350FM-15+006199999V0202901N000519999999N999999999+00001-00101999999ADDMA1101101999999REMMET065METAR ETGQ 200420Z AUTO 29001KT //// // ////// M00/M01 Q1011 ///=
0092102340999992015012004504+53133+009350FM-15+006199999V0203201N001019999999N999999999+00001-00101999999ADDMA1101101999999REMMET065METAR ETGQ 200450Z AUTO 32002KT //// // ////// M00/M01 Q1011 ///=
0092102340999992015012020204+53133+009350FM-15+006199999V0201501N001519999999N999999999+00001-00201999999ADDMA1101401999999REMMET065METAR ETGQ 202020Z AUTO 15003KT //// // ////// M00/M02 Q1014 ///=
0092102340999992015012020504+53133+009350FM-15+006199999V0201401N001519999999N999999999+00001-00201999999ADDMA1101401999999REMMET065METAR ETGQ 202050Z AUTO 14003KT //// // ////// M00/M02 Q1014 ///=
0092102340999992015012021204+53133+009350FM-15+006199999V0201401N001019999999N999999999+00001-00201999999ADDMA1101301999999REMMET065METAR ETGQ 202120Z AUTO 14002KT //// // ////// M00/M02 Q1013 ///=
0092102340999992015012021504+53133+009350FM-15+006199999V0201401N001519999999N999999999+00001-00201999999ADDMA1101301999999REMMET065METAR ETGQ 202150Z AUTO 14003KT //// // ////// M00/M02 Q1013 ///=
0092102340999992015012022204+53133+009350FM-15+006199999V0201401N001519999999N999999999+00001-00201999999ADDMA1101301999999REMMET065METAR ETGQ 202220Z AUTO 14003KT //// // ////// M00/M02 Q1013 ///=
0092102340999992015012022504+53133+009350FM-15+006199999V0201401N001519999999N999999999-00101-00201999999ADDMA1101301999999REMMET065METAR ETGQ 202250Z AUTO 14003KT //// // ////// M01/M02 Q1013 ///=
0092102340999992015012023204+53133+009350FM-15+006199999V0201601N001519999999N999999999-00101-00301999999ADDMA1101301999999REMMET065METAR ETGQ 202320Z AUTO 16003KT //// // ////// M01/M03 Q1013 ///=
0092102340999992015012023504+53133+009350FM-15+006199999V0201401N001019999999N999999999-00101-00301999999ADDMA1101301999999REMMET065METAR ETGQ 202350Z AUTO 14002KT //// // ////// M01/M03 Q1013 ///=
0092102340999992015012100204+53133+009350FM-15+006199999V0201401N001019999999N999999999-00201-00301999999ADDMA1101301999999REMMET065METAR ETGQ 210020Z AUTO 14002KT //// // ////// M02/M03 Q1013 ///=
0092102340999992015012100504+53133+009350FM-15+006199999V0201301N001519999999N999999999-00201-00301999999ADDMA1101301999999REMMET065METAR ETGQ 210050Z AUTO 13003KT //// // ////// M02/M03 Q1013 ///=
0092102340999992015012101204+53133+009350FM-15+006199999V0201401N001519999999N999999999-00201-00301999999ADDMA1101301999999REMMET065METAR ETGQ 210120Z AUTO 14003KT //// // ////// M02/M03 Q1013 ///=
0092102340999992015012101504+53133+009350FM-15+006199999V0201401N001519999999N999999999-00201-00301999999ADDMA1101301999999REMMET065METAR ETGQ 210150Z AUTO 14003KT //// // ////// M02/M03 Q1013 ///=
0092102340999992015012102204+53133+009350FM-15+006199999V0201201N001519999999N999999999-00201-00401999999ADDMA1101301999999REMMET065METAR ETGQ 210220Z AUTO 12003KT //// // ////// M02/M04 Q1013 ///=
0092102340999992015012102504+53133+009350FM-15+006199999V0201401N001519999999N999999999-00201-00301999999ADDMA1101201999999REMMET065METAR ETGQ 210250Z AUTO 14003KT //// // ////// M02/M03 Q1012 ///=
0092102340999992015012103204+53133+009350FM-15+006199999V0201401N001519999999N999999999-00201-00301999999ADDMA1101201999999REMMET065METAR ETGQ 210320Z AUTO 14003KT //// // ////// M02/M03 Q1012 ///=
0092102340999992015012103504+53133+009350FM-15+006199999V0201301N001519999999N999999999-00101-00401999999ADDMA1101201999999REMMET065METAR ETGQ 210350Z AUTO 13003KT //// // ////// M01/M04 Q1012 ///=
0092102340999992015012104204+53133+009350FM-15+006199999V0201101N001019999999N999999999-00101-00401999999ADDMA1101201999999REMMET065METAR ETGQ 210420Z AUTO 11002KT //// // ////// M01/M04 Q1012 ///=
0092102340999992015012104504+53133+009350FM-15+006199999V0209999V001019999999N999999999-00101-00401999999ADDMA1101201999999REMMET065METAR ETGQ 210450Z AUTO VRB02KT //// // ////// M01/M04 Q1012 ///=
0092102340999992015012105204+53133+009350FM-15+006199999V0209999V000519999999N999999999-00101-00401999999ADDMA1101201999999REMMET065METAR ETGQ 210520Z AUTO VRB01KT //// // ////// M01/M04 Q1012 ///=
0091102340999992015012120204+53133+009350FM-15+006199999V0209999V000519999999N999999999+00201-00201999999ADDMA1101201999999REMMET064METAR ETGQ 212020Z AUTO VRB01KT //// // ////// 02/M02 Q1012 ///=
0091102340999992015012120504+53133+009350FM-15+006199999V0200401N001019999999N999999999+00201-00201999999ADDMA1101201999999REMMET064METAR ETGQ 212050Z AUTO 04002KT //// // ////// 02/M02 Q1012 ///=
0091102340999992015012121204+53133+009350FM-15+006199999V0200501N001019999999N999999999+00201-00201999999ADDMA1101201999999REMMET064METAR ETGQ 212120Z AUTO 05002KT //// // ////// 02/M02 Q1012 ///=
0091102340999992015012121504+53133+009350FM-15+006199999V0200501N001519999999N999999999+00201-00201999999ADDMA1101201999999REMMET064METAR ETGQ 212150Z AUTO 05003KT //// // ////// 02/M02 Q1012 ///=
0091102340999992015012122204+53133+009350FM-15+006199999V0200601N001519999999N999999999+00201-00201999999ADDMA1101201999999REMMET064METAR ETGQ 212220Z AUTO 06003KT //// // ////// 02/M02 Q1012 ///=
0091102340999992015012122504+53133+009350FM-15+006199999V0200701N002119999999N999999999+00201-00201999999ADDMA1101201999999REMMET064METAR ETGQ 212250Z AUTO 07004KT //// // ////// 02/M02 Q1012 ///=
0091102340999992015012123204+53133+009350FM-15+006199999V0200701N002619999999N999999999+00201-00201999999ADDMA1101201999999REMMET064METAR ETGQ 212320Z AUTO 07005KT //// // ////// 02/M02 Q1012 ///=
0091102340999992015012123504+53133+009350FM-15+006199999V0200501N002119999999N999999999+00201-00201999999ADDMA1101201999999REMMET064METAR ETGQ 212350Z AUTO 05004KT //// // ////// 02/M02 Q1012 ///=
0091102340999992015012200204+53133+009350FM-15+006199999V0200601N001519999999N999999999+00201-00201999999ADDMA1101201999999REMMET064METAR ETGQ 220020Z AUTO 06003KT //// // ////// 02/M02 Q1012 ///=
0091102340999992015012200504+53133+009350FM-15+006199999V0200501N002119999999N999999999+00101-00301999999ADDMA1101201999999REMMET064METAR ETGQ 220050Z AUTO 05004KT //// // ////// 01/M03 Q1012 ///=
0091102340999992015012201204+53133+009350FM-15+006199999V0200501N002119999999N999999999+00101-00301999999ADDMA1101301999999REMMET064METAR ETGQ 220120Z AUTO 05004KT //// // ////// 01/M03 Q1013 ///=
0091102340999992015012201504+53133+009350FM-15+006199999V0201001N002119999999N999999999+00101-00301999999ADDMA1101301999999REMMET064METAR ETGQ 220150Z AUTO 10004KT //// // ////// 01/M03 Q1013 ///=
0091102340999992015012202204+53133+009350FM-15+006199999V0200301N002119999999N999999999+00101-00301999999ADDMA1101301999999REMMET064METAR ETGQ 220220Z AUTO 03004KT //// // ////// 01/M03 Q1013 ///=
0091102340999992015012202504+53133+009350FM-15+006199999V0200601N002619999999N999999999+00101-00301999999ADDMA1101301999999REMMET064METAR ETGQ 220250Z AUTO 06005KT //// // ////// 01/M03 Q1013 ///=
0091102340999992015012203204+53133+009350FM-15+006199999V0200701N001519999999N999999999+00101-00301999999ADDMA1101301999999REMMET064METAR ETGQ 220320Z AUTO 07003KT //// // ////// 01/M03 Q1013 ///=
0091102340999992015012203504+53133+009350FM-15+006199999V0200701N002119999999N999999999+00101-00301999999ADDMA1101301999999REMMET064METAR ETGQ 220350Z AUTO 07004KT //// // ////// 01/M03 Q1013 ///=
0091102340999992015012204204+53133+009350FM-15+006199999V0200801N002119999999N999999999+00101-00301999999ADDMA1101301999999REMMET064METAR ETGQ 220420Z AUTO 08004KT //// // ////// 01/M03 Q1013 ///=
0091102340999992015012204504+53133+009350FM-15+006199999V0200501N002119999999N999999999+00101-00301999999ADDMA1101301999999REMMET064METAR ETGQ 220450Z AUTO 05004KT //// // ////// 01/M03 Q1013 ///=
0091102340999992015012205204+53133+009350FM-15+006199999V0200401N002119999999N999999999+00101-00301999999ADDMA1101301999999REMMET064METAR ETGQ 220520Z AUTO 04004KT //// // ////// 01/M03 Q1013 ///=
0091102340999992015012220204+53133+009350FM-15+006199999V0203201N001519999999N999999999+00201-00201999999ADDMA1101901999999REMMET064METAR ETGQ 222020Z AUTO 32003KT //// // ////// 02/M02 Q1019 ///=
0091102340999992015012220504+53133+009350FM-15+006199999V0203001N001019999999N999999999+00101-00201999999ADDMA1101901999999REMMET064METAR ETGQ 222050Z AUTO 30002KT //// // ////// 01/M02 Q1019 ///=
0091102340999992015012221204+53133+009350FM-15+006199999V0203001N001519999999N999999999+00201-00201999999ADDMA1102001999999REMMET064METAR ETGQ 222120Z AUTO 30003KT //// // ////// 02/M02 Q1020 ///=
0091102340999992015012221504+53133+009350FM-15+006199999V0202901N001519999999N999999999+00101-00201999999ADDMA1102001999999REMMET064METAR ETGQ 222150Z AUTO 29003KT //// // ////// 01/M02 Q1020 ///=
0091102340999992015012222204+53133+009350FM-15+006199999V0203001N001519999999N999999999+00101-00201999999ADDMA1102001999999REMMET064METAR ETGQ 222220Z AUTO 30003KT //// // ////// 01/M02 Q1020 ///=
0091102340999992015012222504+53133+009350FM-15+006199999V0203201N002119999999N999999999+00201-00201999999ADDMA1102001999999REMMET064METAR ETGQ 222250Z AUTO 32004KT //// // ////// 02/M02 Q1020 ///=
0091102340999992015012223204+53133+009350FM-15+006199999V0203101N002619999999N999999999+00201-00201999999ADDMA1102001999999REMMET064METAR ETGQ 222320Z AUTO 31005KT //// // ////// 02/M02 Q1020 ///=
0091102340999992015012223504+53133+009350FM-15+006199999V0203101N002619999999N999999999+00201-00101999999ADDMA1102101999999REMMET064METAR ETGQ 222350Z AUTO 31005KT //// // ////// 02/M01 Q1021 ///=
0091102340999992015012300204+53133+009350FM-15+006199999V0203201N003119999999N999999999+00201-00101999999ADDMA1102101999999REMMET064METAR ETGQ 230020Z AUTO 32006KT //// // ////// 02/M01 Q1021 ///=
0091102340999992015012300504+53133+009350FM-15+006199999V0203201N002619999999N999999999+00201-00101999999ADDMA1102101999999REMMET064METAR ETGQ 230050Z AUTO 32005KT //// // ////// 02/M01 Q1021 ///=
0091102340999992015012301204+53133+009350FM-15+006199999V0203101N002119999999N999999999+00101-00101999999ADDMA1102101999999REMMET064METAR ETGQ 230120Z AUTO 31004KT //// // ////// 01/M01 Q1021 ///=
0091102340999992015012301504+53133+009350FM-15+006199999V0203101N002119999999N999999999+00101-00101999999ADDMA1102101999999REMMET064METAR ETGQ 230150Z AUTO 31004KT //// // ////// 01/M01 Q1021 ///=
0091102340999992015012302204+53133+009350FM-15+006199999V0203101N002119999999N999999999+00101-00101999999ADDMA1102101999999REMMET064METAR ETGQ 230220Z AUTO 31004KT //// // ////// 01/M01 Q1021 ///=
0091102340999992015012302504+53133+009350FM-15+006199999V0203101N002119999999N999999999+00101-00101999999ADDMA1102101999999REMMET064METAR ETGQ 230250Z AUTO 31004KT //// // ////// 01/M01 Q1021 ///=
0091102340999992015012303204+53133+009350FM-15+006199999V0203001N001519999999N999999999+00101-00101999999ADDMA1102101999999REMMET064METAR ETGQ 230320Z AUTO 30003KT //// // ////// 01/M01 Q1021 ///=
0091102340999992015012303504+53133+009350FM-15+006199999V0203101N001519999999N999999999+00101-00101999999ADDMA1102101999999REMMET064METAR ETGQ 230350Z AUTO 31003KT //// // ////// 01/M01 Q1021 ///=
0091102340999992015012304204+53133+009350FM-15+006199999V0203101N001519999999N999999999+00101-00101999999ADDMA1102201999999REMMET064METAR ETGQ 230420Z AUTO 31003KT //// // ////// 01/M01 Q1022 ///=
0091102340999992015012304504+53133+009350FM-15+006199999V0203201N002619999999N999999999+00101-00101999999ADDMA1102201999999REMMET064METAR ETGQ 230450Z AUTO 32005KT //// // ////// 01/M01 Q1022 ///=
0091102340999992015012305204+53133+009350FM-15+006199999V0203201N002619999999N999999999+00101-00101999999ADDMA1102201999999REMMET064METAR ETGQ 230520Z AUTO 32005KT //// // ////// 01/M01 Q1022 ///=
0092102340999992015012320204+53133+009350FM-15+006199999V0202001N001019999999N999999999-00101-00201999999ADDMA1102601999999REMMET065METAR ETGQ 232020Z AUTO 20002KT //// // ////// M01/M02 Q1026 ///=
0092102340999992015012320504+53133+009350FM-15+006199999V0209999C000019999999N999999999-00101-00201999999ADDMA1102601999999REMMET065METAR ETGQ 232050Z AUTO 00000KT //// // ////// M01/M02 Q1026 ///=
0092102340999992015012321204+53133+009350FM-15+006199999V0202001N001019999999N999999999+00001-00101999999ADDMA1102601999999REMMET065METAR ETGQ 232120Z AUTO 20002KT //// // ////// M00/M01 Q1026 ///=
0092102340999992015012321504+53133+009350FM-15+006199999V0202001N001019999999N999999999+00001-00201999999ADDMA1102601999999REMMET065METAR ETGQ 232150Z AUTO 20002KT //// // ////// M00/M02 Q1026 ///=
0092102340999992015012322204+53133+009350FM-15+006199999V0201401N001519999999N999999999+00001-00201999999ADDMA1102601999999REMMET065METAR ETGQ 232220Z AUTO 14003KT //// // ////// M00/M02 Q1026 ///=
0092102340999992015012322504+53133+009350FM-15+006199999V0201601N001019999999N999999999+00001-00201999999ADDMA1102601999999REMMET065METAR ETGQ 232250Z AUTO 16002KT //// // ////// M00/M02 Q1026 ///=
0092102340999992015012323204+53133+009350FM-15+006199999V0201401N001519999999N999999999+00001-00201999999ADDMA1102501999999REMMET065METAR ETGQ 232320Z AUTO 14003KT //// // ////// M00/M02 Q1025 ///=
0092102340999992015012323504+53133+009350FM-15+006199999V0201701N001519999999N999999999+00001-00201999999ADDMA1102501999999REMMET065METAR ETGQ 232350Z AUTO 17003KT //// // ////// M00/M02 Q1025 ///=
0092102340999992015012400204+53133+009350FM-15+006199999V0202001N001519999999N999999999-00101-00201999999ADDMA1102501999999REMMET065METAR ETGQ 240020Z AUTO 20003KT //// // ////// M01/M02 Q1025 ///=
0092102340999992015012400504+53133+009350FM-15+006199999V0209999V001019999999N999999999-00101-00201999999ADDMA1102401999999REMMET065METAR ETGQ 240050Z AUTO VRB02KT //// // ////// M01/M02 Q1024 ///=
0092102340999992015012401204+53133+009350FM-15+006199999V0201501N001019999999N999999999-00101-00201999999ADDMA1102401999999REMMET065METAR ETGQ 240120Z AUTO 15002KT //// // ////// M01/M02 Q1024 ///=
0092102340999992015012401504+53133+009350FM-15+006199999V0202001N001519999999N999999999-00101-00201999999ADDMA1102401999999REMMET065METAR ETGQ 240150Z AUTO 20003KT //// // ////// M01/M02 Q1024 ///=
0092102340999992015012402204+53133+009350FM-15+006199999V0209999V001019999999N999999999-00101-00201999999ADDMA1102401999999REMMET065METAR ETGQ 240220Z AUTO VRB02KT //// // ////// M01/M02 Q1024 ///=
0092102340999992015012402504+53133+009350FM-15+006199999V0201501N002119999999N999999999-00101-00201999999ADDMA1102301999999REMMET065METAR ETGQ 240250Z AUTO 15004KT //// // ////// M01/M02 Q1023 ///=
0092102340999992015012403204+53133+009350FM-15+006199999V0201601N002119999999N999999999+00001-00201999999ADDMA1102301999999REMMET065METAR ETGQ 240320Z AUTO 16004KT //// // ////// M00/M02 Q1023 ///=
0092102340999992015012403504+53133+009350FM-15+006199999V0201201N001519999999N999999999+00001-00201999999ADDMA1102201999999REMMET065METAR ETGQ 240350Z AUTO 12003KT //// // ////// M00/M02 Q1022 ///=
0091102340999992015012404204+53133+009350FM-15+006199999V0201801N002119999999N999999999+00001-00201999999ADDMA1102201999999REMMET064METAR ETGQ 240420Z AUTO 18004KT //// // ////// 00/M02 Q1022 ///=
0091102340999992015012404504+53133+009350FM-15+006199999V0201801N002619999999N999999999+00001-00201999999ADDMA1102201999999REMMET064METAR ETGQ 240450Z AUTO 18005KT //// // ////// 00/M02 Q1022 ///=
0091102340999992015012405204+53133+009350FM-15+006199999V0201901N002119999999N999999999+00001-00201999999ADDMA1102101999999REMMET064METAR ETGQ 240520Z AUTO 19004KT //// // ////// 00/M02 Q1021 ///=
0090102340999992015012420204+53133+009350FM-15+006199999V0202801N001519999999N999999999+00201+00101999999ADDMA1102501999999REMMET063METAR ETGQ 242020Z AUTO 28003KT //// // ////// 02/01 Q1025 ///=
0090102340999992015012420504+53133+009350FM-15+006199999V0203101N001519999999N999999999+00201+00101999999ADDMA1102501999999REMMET063METAR ETGQ 242050Z AUTO 31003KT //// // ////// 02/01 Q1025 ///=
0090102340999992015012421204+53133+009350FM-15+006199999V0203301N001519999999N999999999+00201+00101999999ADDMA1102601999999REMMET063METAR ETGQ 242120Z AUTO 33003KT //// // ////// 02/01 Q1026 ///=
0090102340999992015012421504+53133+009350FM-15+006199999V0203001N002119999999N999999999+00201+00101999999ADDMA1102601999999REMMET063METAR ETGQ 242150Z AUTO 30004KT //// // ////// 02/01 Q1026 ///=
0090102340999992015012422204+53133+009350FM-15+006199999V0203101N001519999999N999999999+00201+00101999999ADDMA1102601999999REMMET063METAR ETGQ 242220Z AUTO 31003KT //// // ////// 02/01 Q1026 ///=
0090102340999992015012422504+53133+009350FM-15+006199999V0202801N002119999999N999999999+00201+00101999999ADDMA1102601999999REMMET063METAR ETGQ 242250Z AUTO 28004KT //// // ////// 02/01 Q1026 ///=
0090102340999992015012423204+53133+009350FM-15+006199999V0202801N002119999999N999999999+00201+00101999999ADDMA1102701999999REMMET063METAR ETGQ 242320Z AUTO 28004KT //// // ////// 02/01 Q1027 ///=
0090102340999992015012423504+53133+009350FM-15+006199999V0202901N002119999999N999999999+00201+00101999999ADDMA1102701999999REMMET063METAR ETGQ 242350Z AUTO 29004KT //// // ////// 02/01 Q1027 ///=
0090102340999992015012500204+53133+009350FM-15+006199999V0202801N001519999999N999999999+00201+00101999999ADDMA1102701999999REMMET063METAR ETGQ 250020Z AUTO 28003KT //// // ////// 02/01 Q1027 ///=
0090102340999992015012500504+53133+009350FM-15+006199999V0202901N002119999999N999999999+00201+00101999999ADDMA1102701999999REMMET063METAR ETGQ 250050Z AUTO 29004KT //// // ////// 02/01 Q1027 ///=
0090102340999992015012501204+53133+009350FM-15+006199999V0202901N002119999999N999999999+00201+00101999999ADDMA1102701999999REMMET063METAR ETGQ 250120Z AUTO 29004KT //// // ////// 02/01 Q1027 ///=
0090102340999992015012501504+53133+009350FM-15+006199999V0202901N002119999999N999999999+00201+00101999999ADDMA1102701999999REMMET063METAR ETGQ 250150Z AUTO 29004KT //// // ////// 02/01 Q1027 ///=
0090102340999992015012502204+53133+009350FM-15+006199999V0203101N002119999999N999999999+00201+00001999999ADDMA1102701999999REMMET063METAR ETGQ 250220Z AUTO 31004KT //// // ////// 02/00 Q1027 ///=
0090102340999992015012502504+53133+009350FM-15+006199999V0202901N001519999999N999999999+00201+00001999999ADDMA1102801999999REMMET063METAR ETGQ 250250Z AUTO 29003KT //// // ////// 02/00 Q1028 ///=
0090102340999992015012503204+53133+009350FM-15+006199999V0209999V000519999999N999999999+00101+00001999999ADDMA1102801999999REMMET063METAR ETGQ 250320Z AUTO VRB01KT //// // ////// 01/00 Q1028 ///=
0090102340999992015012503504+53133+009350FM-15+006199999V0202901N001019999999N999999999+00201+00001999999ADDMA1102801999999REMMET063METAR ETGQ 250350Z AUTO 29002KT //// // ////// 02/00 Q1028 ///=
0090102340999992015012504204+53133+009350FM-15+006199999V0202301N001019999999N999999999+00101+00001999999ADDMA1102801999999REMMET063METAR ETGQ 250420Z AUTO 23002KT //// // ////// 01/00 Q1028 ///=
0090102340999992015012504504+53133+009350FM-15+006199999V0202201N001519999999N999999999+00101+00001999999ADDMA1102801999999REMMET063METAR ETGQ 250450Z AUTO 22003KT //// // ////// 01/00 Q1028 ///=
0090102340999992015012505204+53133+009350FM-15+006199999V0202201N001019999999N999999999+00101+00001999999ADDMA1102901999999REMMET063METAR ETGQ 250520Z AUTO 22002KT //// // ////// 01/00 Q1029 ///=
0090102340999992015012520204+53133+009350FM-15+006199999V0202101N001519999999N999999999+00201+00101999999ADDMA1102901999999REMMET063METAR ETGQ 252020Z AUTO 21003KT //// // ////// 02/01 Q1029 ///=
0090102340999992015012520504+53133+009350FM-15+006199999V0202101N001519999999N999999999+00201+00101999999ADDMA1102901999999REMMET063METAR ETGQ 252050Z AUTO 21003KT //// // ////// 02/01 Q1029 ///=
0090102340999992015012521204+53133+009350FM-15+006199999V0209999V001019999999N999999999+00201+00101999999ADDMA1102901999999REMMET063METAR ETGQ 252120Z AUTO VRB02KT //// // ////// 02/01 Q1029 ///=
0090102340999992015012521504+53133+009350FM-15+006199999V0201701N001019999999N999999999+00201+00101999999ADDMA1102901999999REMMET063METAR ETGQ 252150Z AUTO 17002KT //// // ////// 02/01 Q1029 ///=
0090102340999992015012522204+53133+009350FM-15+006199999V0202001N001519999999N999999999+00201+00101999999ADDMA1102801999999REMMET063METAR ETGQ 252220Z AUTO 20003KT //// // ////// 02/01 Q1028 ///=
0090102340999992015012522504+53133+009350FM-15+006199999V0202001N001019999999N999999999+00201+00101999999ADDMA1102801999999REMMET063METAR ETGQ 252250Z AUTO 20002KT //// // ////// 02/01 Q1028 ///=
0090102340999992015012523204+53133+009350FM-15+006199999V0201901N001019999999N999999999+00201+00101999999ADDMA1102801999999REMMET063METAR ETGQ 252320Z AUTO 19002KT //// // ////// 02/01 Q1028 ///=
0090102340999992015012523504+53133+009350FM-15+006199999V0202001N001519999999N999999999+00201+00101999999ADDMA1102801999999REMMET063METAR ETGQ 252350Z AUTO 20003KT //// // ////// 02/01 Q1028 ///=
0090102340999992015012600204+53133+009350FM-15+006199999V0202201N001519999999N999999999+00201+00101999999ADDMA1102801999999REMMET063METAR ETGQ 260020Z AUTO 22003KT //// // ////// 02/01 Q1028 ///=
0090102340999992015012600504+53133+009350FM-15+006199999V0209999V001019999999N999999999+00201+00101999999ADDMA1102701999999REMMET063METAR ETGQ 260050Z AUTO VRB02KT //// // ////// 02/01 Q1027 ///=
0090102340999992015012601204+53133+009350FM-15+006199999V0201901N001019999999N999999999+00201+00101999999ADDMA1102701999999REMMET063METAR ETGQ 260120Z AUTO 19002KT //// // ////// 02/01 Q1027 ///=
0090102340999992015012601504+53133+009350FM-15+006199999V0209999V001019999999N999999999+00201+00101999999ADDMA1102701999999REMMET063METAR ETGQ 260150Z AUTO VRB02KT //// // ////// 02/01 Q1027 ///=
0090102340999992015012602204+53133+009350FM-15+006199999V0209999V001019999999N999999999+00201+00101999999ADDMA1102701999999REMMET063METAR ETGQ 260220Z AUTO VRB02KT //// // ////// 02/01 Q1027 ///=
0090102340999992015012602504+53133+009350FM-15+006199999V0201901N001519999999N999999999+00201+00101999999ADDMA1102701999999REMMET063METAR ETGQ 260250Z AUTO 19003KT //// // ////// 02/01 Q1027 ///=
0090102340999992015012603204+53133+009350FM-15+006199999V0201801N001519999999N999999999+00201+00101999999ADDMA1102601999999REMMET063METAR ETGQ 260320Z AUTO 18003KT //// // ////// 02/01 Q1026 ///=
0090102340999992015012603504+53133+009350FM-15+006199999V0201801N001519999999N999999999+00201+00101999999ADDMA1102601999999REMMET063METAR ETGQ 260350Z AUTO 18003KT //// // ////// 02/01 Q1026 ///=
0090102340999992015012604204+53133+009350FM-15+006199999V0201801N001519999999N999999999+00201+00101999999ADDMA1102501999999REMMET063METAR ETGQ 260420Z AUTO 18003KT //// // ////// 02/01 Q1025 ///=
0090102340999992015012604504+53133+009350FM-15+006199999V0209999V001019999999N999999999+00201+00101999999ADDMA1102501999999REMMET063METAR ETGQ 260450Z AUTO VRB02KT //// // ////// 02/01 Q1025 ///=
0090102340999992015012605204+53133+009350FM-15+006199999V0209999V001019999999N999999999+00201+00101999999ADDMA1102501999999REMMET063METAR ETGQ 260520Z AUTO VRB02KT //// // ////// 02/01 Q1025 ///=
0090102340999992015012605504+53133+009350FM-15+006199999V0201801N001019999999N999999999+00301+00101999999ADDMA1102501999999REMMET063METAR ETGQ 260550Z AUTO 18002KT //// // ////// 03/01 Q1025 ///=
0090102340999992015012606204+53133+009350FM-15+006199999V0201601N001019999999N999999999+00201+00101999999ADDMA1102401999999REMMET063METAR ETGQ 260620Z AUTO 16002KT //// // ////// 02/01 Q1024 ///=
0090102340999992015012606504+53133+009350FM-15+006199999V0201601N001519999999N999999999+00201+00101999999ADDMA1102401999999REMMET063METAR ETGQ 260650Z AUTO 16003KT //// // ////// 02/01 Q1024 ///=
0090102340999992015012607204+53133+009350FM-15+006199999V0209999V001019999999N999999999+00201+00101999999ADDMA1102401999999REMMET063METAR ETGQ 260720Z AUTO VRB02KT //// // ////// 02/01 Q1024 ///=
0090102340999992015012607504+53133+009350FM-15+006199999V0201801N001519999999N999999999+00301+00101999999ADDMA1102401999999REMMET063METAR ETGQ 260750Z AUTO 18003KT //// // ////// 03/01 Q1024 ///=
0090102340999992015012620204+53133+009350FM-15+006199999V0202101N001519999999N999999999+00501+00301999999ADDMA1101901999999REMMET063METAR ETGQ 262020Z AUTO 21003KT //// // ////// 05/03 Q1019 ///=
0090102340999992015012620504+53133+009350FM-15+006199999V0202501N001519999999N999999999+00501+00301999999ADDMA1101901999999REMMET063METAR ETGQ 262050Z AUTO 25003KT //// // ////// 05/03 Q1019 ///=
0090102340999992015012621204+53133+009350FM-15+006199999V0203001N002619999999N999999999+00501+00301999999ADDMA1101901999999REMMET063METAR ETGQ 262120Z AUTO 30005KT //// // ////// 05/03 Q1019 ///=
0090102340999992015012621504+53133+009350FM-15+006199999V0203001N003119999999N999999999+00501+00301999999ADDMA1101901999999REMMET063METAR ETGQ 262150Z AUTO 30006KT //// // ////// 05/03 Q1019 ///=
0090102340999992015012622204+53133+009350FM-15+006199999V0202801N002619999999N999999999+00501+00301999999ADDMA1101901999999REMMET063METAR ETGQ 262220Z AUTO 28005KT //// // ////// 05/03 Q1019 ///=
0090102340999992015012622504+53133+009350FM-15+006199999V0202901N003619999999N999999999+00401+00201999999ADDMA1102001999999REMMET063METAR ETGQ 262250Z AUTO 29007KT //// // ////// 04/02 Q1020 ///=
0090102340999992015012623204+53133+009350FM-15+006199999V0202801N002119999999N999999999+00301+00201999999ADDMA1102001999999REMMET063METAR ETGQ 262320Z AUTO 28004KT //// // ////// 03/02 Q1020 ///=
0090102340999992015012623504+53133+009350FM-15+006199999V0202901N003119999999N999999999+00301+00201999999ADDMA1102001999999REMMET063METAR ETGQ 262350Z AUTO 29006KT //// // ////// 03/02 Q1020 ///=
0090102340999992015012700204+53133+009350FM-15+006199999V0203001N002119999999N999999999+00301+00201999999ADDMA1102001999999REMMET063METAR ETGQ 270020Z AUTO 30004KT //// // ////// 03/02 Q1020 ///=
0090102340999992015012700504+53133+009350FM-15+006199999V0202901N002119999999N999999999+00401+00201999999ADDMA1102001999999REMMET063METAR ETGQ 270050Z AUTO 29004KT //// // ////// 04/02 Q1020 ///=
0090102340999992015012701204+53133+009350FM-15+006199999V0202901N002619999999N999999999+00401+00201999999ADDMA1102001999999REMMET063METAR ETGQ 270120Z AUTO 29005KT //// // ////// 04/02 Q1020 ///=
0090102340999992015012701504+53133+009350FM-15+006199999V0203101N003619999999N999999999+00401+00201999999ADDMA1102101999999REMMET063METAR ETGQ 270150Z AUTO 31007KT //// // ////// 04/02 Q1021 ///=
0090102340999992015012702204+53133+009350FM-15+006199999V0202901N002619999999N999999999+00401+00201999999ADDMA1102101999999REMMET063METAR ETGQ 270220Z AUTO 29005KT //// // ////// 04/02 Q1021 ///=
0090102340999992015012702504+53133+009350FM-15+006199999V0202901N002619999999N999999999+00401+00201999999ADDMA1102101999999REMMET063METAR ETGQ 270250Z AUTO 29005KT //// // ////// 04/02 Q1021 ///=
0090102340999992015012703204+53133+009350FM-15+006199999V0202901N002619999999N999999999+00401+00201999999ADDMA1102101999999REMMET063METAR ETGQ 270320Z AUTO 29005KT //// // ////// 04/02 Q1021 ///=
0090102340999992015012703504+53133+009350FM-15+006199999V0202901N003619999999N999999999+00301+00101999999ADDMA1102101999999REMMET063METAR ETGQ 270350Z AUTO 29007KT //// // ////// 03/01 Q1021 ///=
