0135102340999992009010205204+53133+009350FM-15+0061ETGQ V0209999C000010036019N0035001N1-00301-00501999999ADDGA1071+003601999GF107991999999999999999999MA1102611999999MW1101REMMET060METAR ETGQ 020520Z 00000KT 3500 BR BKN012 M03/M05 Q1026 YLO;
0135102340999992009010206204+53133+009350FM-15+0061ETGQ V0209999C000010036019N0035001N1-00301-00501999999ADDGA1081+003601999GF108991999999999999999999MA1102611999999MW1101REMMET060METAR ETGQ 020620Z 00000KT 3500 BR OVC012 M03/M05 Q1026 YLO;
0145102340999992009010207204+53133+009350FM-15+0061ETGQ V0209999C000010039019N0035001N1-00301-00401999999ADDGA1081+003901999GF108991999999999999999999MA1102711999999MW1101MW2711REMMET064METAR ETGQ 020720Z 00000KT 3500 -SN BR OVC013 M03/M04 Q1027 YLO;
0135102340999992009010208204+53133+009350FM-15+0061ETGQ V0209999C000010033019N0035001N1-00301-00401999999ADDGA1081+003301999GF108991999999999999999999MA1102711999999MW1101REMMET060METAR ETGQ 020820Z 00000KT 3500 BR OVC011 M03/M04 Q1027 YLO;
0135102340999992009010209204+53133+009350FM-15+0061ETGQ V0209999C000010030019N0030001N1-00301-00401999999ADDGA1081+003001999GF108991999999999999999999MA1102711999999MW1101REMMET060METAR ETGQ 020920Z 00000KT 3000 BR OVC010 M03/M04 Q1027 YLO;
0135102340999992009010210204+53133+009350FM-15+0061ETGQ V0209999C000010027019N0035001N1-00201-00401999999ADDGA1081+002701999GF108991999999999999999999MA1102711999999MW1101REMMET060METAR ETGQ 021020Z 00000KT 3500 BR OVC009 M02/M04 Q1027 YLO;
0135102340999992009010211204+53133+009350FM-15+0061ETGQ V0209999C000010018019N0030001N1-00201-00401999999ADDGA1081+001801999GF108991999999999999999999MA1102711999999MW1101REMMET060METAR ETGQ 021120Z 00000KT 3000 BR OVC006 M02/M04 Q1027 YLO;
0135102340999992009010212204+53133+009350FM-15+0061ETGQ V0209999C000010018019N0030001N1-00201-00301999999ADDGA1081+001801999GF108991999999999999999999MA1102711999999MW1101REMMET060METAR ETGQ 021220Z 00000KT 3000 BR OVC006 M02/M03 Q1027 YLO;
0135102340999992009010213204+53133+009350FM-15+0061ETGQ V0209999C000010021019N0030001N1-00101-00301999999ADDGA1081+002101999GF108991999999999999999999MA1102711999999MW1101REMMET060METAR ETGQ 021320Z 00000KT 3000 BR OVC007 M01/M03 Q1027 YLO;
0135102340999992009010214204+53133+009350FM-15+0061ETGQ V0209999C000010027019N0030001N1-00101-00301999999ADDGA1081+002701999GF108991999999999999999999MA1102711999999MW1101REMMET060METAR ETGQ 021420Z 00000KT 3000 BR OVC009 M01/M03 Q1027 YLO;
0135102340999992009010215204+53133+009350FM-15+0061ETGQ V0209999C000010039019N0025001N1-00101-00301999999ADDGA1081+003901999GF108991999999999999999999MA1102711999999MW1101REMMET060METAR ETGQ 021520Z 00000KT 2500 BR OVC013 M01/M03 Q1027 YLO;
0135102340999992009010216204+53133+009350FM-15+0061ETGQ V0209999C000010030019N0020001N1-00101-00201999999ADDGA1081+003001999GF108991999999999999999999MA1102811999999MW1101REMMET060METAR ETGQ 021620Z 00000KT 2000 BR OVC010 M01/M02 Q1028 YLO;
0135102340999992009010217204+53133+009350FM-15+0061ETGQ V0209999C000010033019N0030001N1-00101-00201999999ADDGA1081+003301999GF108991999999999999999999MA1102811999999MW1101REMMET060METAR ETGQ 021720Z 00000KT 3000 BR OVC011 M01/M02 Q1028 YLO;
0135102340999992009010218204+53133+009350FM-15+0061ETGQ V0209999C000010054019N0030001N1-00101-00201999999ADDGA1081+005401999GF108991999999999999999999MA1102911999999MW1101REMMET060METAR ETGQ 021820Z 00000KT 3000 BR OVC018 M01/M02 Q1029 YLO;
0135102340999992009010218304+53133+009350FM-16+0061ETGQ V0209999C000010054019N0030001N1-00101-00201999999ADDGA1081+005401999GF108991999999999999999999MA1102911999999MW1101REMMET060SPECI ETGQ 021830Z 00000KT 3000 BR OVC018 M01/M02 Q1029 YLO;
0158102340999992009010219204+53133+009350FM-15+0061ETGQ V0209999C000010102019N0030001N1-00101-00201999999ADDGA1041+005401999GA2071+010201999GF107991999999999999999999MA1102911999999MW1101REMMET067METAR ETGQ 021920Z 00000KT 3000 BR SCT018 BKN034 M01/M02 Q1029 YLO;
0145102340999992009010505204+53133+009350FM-15+0061ETGQ V0202101N001510063019N0035001N1-00101-00301999999ADDGA1081+006301999GF108991999999999999999999MA1101491999999MW1101MW2711REMMET064METAR ETGQ 050520Z 21003KT 3500 -SN BR OVC021 M01/M03 Q1015 YLO;
0145102340999992009010506204+53133+009350FM-15+0061ETGQ V0209999V000510024019N0035001N1-00101-00201999999ADDGA1081+002401999GF108991999999999999999999MA1101491999999MW1101MW2711REMMET064METAR ETGQ 050620Z VRB01KT 3500 -SN BR OVC008 M01/M02 Q1015 YLO;
0145102340999992009010507204+53133+009350FM-15+0061ETGQ V0209999C000010021019N0035001N1-00101-00201999999ADDGA1081+002101999GF108991999999999999999999MA1101591999999MW1101MW2711REMMET064METAR ETGQ 050720Z 00000KT 3500 -SN BR OVC007 M01/M02 Q1016 YLO;
0145102340999992009010508204+53133+009350FM-15+0061ETGQ V0209999C000010021019N0020001N1-00101-00201999999ADDGA1081+002101999GF108991999999999999999999MA1101691999999MW1101MW2711REMMET064METAR ETGQ 050820Z 00000KT 2000 -SN BR OVC007 M01/M02 Q1017 YLO;
0145102340999992009010509204+53133+009350FM-15+0061ETGQ V0209999C000010015019N0025001N1-00101-00201999999ADDGA1081+001501999GF108991999999999999999999MA1101691999999MW1101MW2711REMMET064METAR ETGQ 050920Z 00000KT 2500 -SN BR OVC005 M01/M02 Q1017 YLO;
0168102340999992009010510204+53133+009350FM-15+0061ETGQ V0209999V000510024019N0035001N1-00101-00201999999ADDGA1071+002401999GA2081+006601999GF108991999999999999999999MA1101801999999MW1101MW2711REMMET071METAR ETGQ 051020Z VRB01KT 3500 -SN BR BKN008 OVC022 M01/M02 Q1018 YLO;
0168102340999992009010511204+53133+009350FM-15+0061ETGQ V0209999C000010030019N0035001N1-00101-00201999999ADDGA1071+003001999GA2081+005701999GF108991999999999999999999MA1101801999999MW1101MW2711REMMET071METAR ETGQ 051120Z 00000KT 3500 -SN BR BKN010 OVC019 M01/M02 Q1018 YLO;
0126102340999992009010512204+53133+009350FM-15+0061ETGQ V0203601N001510066019N0112651N1+00001-00201999999ADDGA1071+006601999GF107991999999999999999999MA1101801999999REMMET057METAR ETGQ 051220Z 36003KT 9999 BKN022 M00/M02 Q1018 WHT;
0149102340999992009010513204+53133+009350FM-15+0061ETGQ V0200601N002110144019N0112651N1+00001-00501999999ADDGA1041+006901999GA2071+014401999GF107991999999999999999999MA1101801999999REMMET064METAR ETGQ 051320Z 06004KT 9999 SCT023 BKN048 M00/M05 Q1018 BLU;
0172102340999992009010514204+53133+009350FM-15+0061ETGQ V0200701N00211012001CN0112651N1+00001-00601999999ADDGA1021+007801999GA2041+012001999GA3071+027001999GF107991999999999999999999MA1101901999999REMMET071METAR ETGQ 051420Z 07004KT 9999 FEW026 SCT040 BKN090 M00/M06 Q1019 BLU;
0149102340999992009010515204+53133+009350FM-15+0061ETGQ V0200401N001010111019N0112651N1+00001-00601999999ADDGA1021+008401999GA2071+011101999GF107991999999999999999999MA1102001999999REMMET064METAR ETGQ 051520Z 04002KT 9999 FEW028 BKN037 M00/M06 Q1020 BLU;
0149102340999992009010516204+53133+009350FM-15+0061ETGQ V0200401N002110120019N0112651N1-00101-00601999999ADDGA1041+009001999GA2071+012001999GF107991999999999999999999MA1102001999999REMMET064METAR ETGQ 051620Z 04004KT 9999 SCT030 BKN040 M01/M06 Q1020 BLU;
0150102340999992009010517204+53133+009350FM-15+0061ETGQ V0200201N002112200019N0112651N1-00101-00701999999ADDGA1041+009001999GA2041+012001999GF104991999999999999999999MA1102101999999REMMET065METAR ETGQ 051720Z 02004KT 9999 SCT030 SCT040 M01/M07 Q1021 BLU/;
0126102340999992009010518204+53133+009350FM-15+0061ETGQ V0200501N002610108019N0112651N1-00101-00801999999ADDGA1071+010801999GF107991999999999999999999MA1102201999999REMMET057METAR ETGQ 051820Z 05005KT 9999 BKN036 M01/M08 Q1022 BLU;
0126102340999992009010519204+53133+009350FM-15+0061ETGQ V0200301N002110102019N0112651N1-00101-00701999999ADDGA1071+010201999GF107991999999999999999999MA1102201999999REMMET057METAR ETGQ 051920Z 03004KT 9999 BKN034 M01/M07 Q1022 BLU;
0126102340999992009010605204+53133+009350FM-15+0061ETGQ V0200801N001510120019N0112651N1-00601-01601999999ADDGA1071+012001999GF107991999999999999999999MA1102301999999REMMET057METAR ETGQ 060520Z 08003KT 9999 BKN040 M06/M16 Q1023 BLU;
0126102340999992009010606204+53133+009350FM-15+0061ETGQ V0209999V000510120019N0112651N1-00601-01501999999ADDGA1071+012001999GF107991999999999999999999MA1102301999999REMMET057METAR ETGQ 060620Z VRB01KT 9999 BKN040 M06/M15 Q1023 BLU;
0126102340999992009010607204+53133+009350FM-15+0061ETGQ V0200701N002110135019N0112651N1-00601-01801999999ADDGA1071+013501999GF107991999999999999999999MA1102401999999REMMET057METAR ETGQ 060720Z 07004KT 9999 BKN045 M06/M18 Q1024 BLU;
0126102340999992009010608204+53133+009350FM-15+0061ETGQ V0209999V000510135019N0112651N1-00701-01401999999ADDGA1071+013501999GF107991999999999999999999MA1102401999999REMMET057METAR ETGQ 060820Z VRB01KT 9999 BKN045 M07/M14 Q1024 BLU;
0126102340999992009010609204+53133+009350FM-15+0061ETGQ V0203101N002110138019N0112651N1-00701-01301999999ADDGA1071+013801999GF107991999999999999999999MA1102401999999REMMET057METAR ETGQ 060920Z 31004KT 9999 BKN046 M07/M13 Q1024 BLU;
0126102340999992009010610204+53133+009350FM-15+0061ETGQ V0203201N002110150019N0112651N1-00701-01301999999ADDGA1071+015001999GF107991999999999999999999MA1102401999999REMMET057METAR ETGQ 061020Z 32004KT 9999 BKN050 M07/M13 Q1024 BLU;
0127102340999992009010611204+53133+009350FM-15+0061ETGQ V0203201N002112200019N0112651N1-00701-01301999999ADDGA1041+014401999GF104991999999999999999999MA1102401999999REMMET058METAR ETGQ 061120Z 32004KT 9999 SCT048 M07/M13 Q1024 BLU/;
0127102340999992009010612204+53133+009350FM-15+0061ETGQ V0209999C000012200019N0112651N1-00701-01301999999ADDGA1041+015001999GF104991999999999999999999MA1102301999999REMMET058METAR ETGQ 061220Z 00000KT 9999 SCT050 M07/M13 Q1023 BLU/;
0078102340999992009010613204+53133+009350FM-15+0061ETGQ V0209999C000012200019N0112651N1-00601-01301999999ADDMA1102301999999REMMET051METAR ETGQ 061320Z 00000KT 9999 M06/M13 Q1023 BLU/;
0078102340999992009010614204+53133+009350FM-15+0061ETGQ V0209999C000012200019N0112651N1-00501-01301999999ADDMA1102201999999REMMET051METAR ETGQ 061420Z 00000KT 9999 M05/M13 Q1022 BLU/;
0078102340999992009010615204+53133+009350FM-15+0061ETGQ V0209999C000012200019N0112651N1-00701-01301999999ADDMA1102201999999REMMET051METAR ETGQ 061520Z 00000KT 9999 M07/M13 Q1022 BLU/;
0078102340999992009010616204+53133+009350FM-15+0061ETGQ V0202901N000512200019N0112651N1-00701-01201999999ADDMA1102301999999REMMET051METAR ETGQ 061620Z 29001KT 9999 M07/M12 Q1023 BLU/;
0078102340999992009010617204+53133+009350FM-15+0061ETGQ V0209999C000012200019N0112651N1-00801-01201999999ADDMA1102301999999REMMET051METAR ETGQ 061720Z 00000KT 9999 M08/M12 Q1023 BLU/;
0078102340999992009010618204+53133+009350FM-15+0061ETGQ V0209999C000012200019N0112651N1-01001-01301999999ADDMA1102301999999REMMET051METAR ETGQ 061820Z 00000KT 9999 M10/M13 Q1023 BLU/;
0078102340999992009010619204+53133+009350FM-15+0061ETGQ V0209999C000012200019N0112651N1-01001-01301999999ADDMA1102301999999REMMET051METAR ETGQ 061920Z 00000KT 9999 M10/M13 Q1023 BLU/;
0126102340999992009010705204+53133+009350FM-15+0061ETGQ V0209999C000010015019N0060001N1-01401-01501999999ADDGA1071+001501999GF107991999999999999999999MA1102301999999REMMET057METAR ETGQ 070520Z 00000KT 6000 BKN005 M14/M15 Q1023 YLO;
0126102340999992009010706204+53133+009350FM-15+0061ETGQ V0209999C000010015019N0060001N1-01401-01501999999ADDGA1071+001501999GF107991999999999999999999MA1102201999999REMMET057METAR ETGQ 070620Z 00000KT 6000 BKN005 M14/M15 Q1022 YLO;
0149102340999992009010707204+53133+009350FM-15+0061ETGQ V0202601N000510450019N0060001N1-01401-01501999999ADDGA1021+001501999GA2071+045001999GF107991999999999999999999MA1102301999999REMMET064METAR ETGQ 070720Z 26001KT 6000 FEW005 BKN150 M14/M15 Q1023 WHT;
0149102340999992009010708204+53133+009350FM-15+0061ETGQ V0202301N000512200019N0060001N1-01401-01501999999ADDGA1021+001501999GA2041+045001999GF104991999999999999999999MA1102301999999REMMET064METAR ETGQ 070820Z 23001KT 6000 FEW005 SCT150 M14/M15 Q1023 WHT;
0126102340999992009010709204+53133+009350FM-15+0061ETGQ V0209999C000010150019N0060001N1-01201-01401999999ADDGA1071+015001999GF107991999999999999999999MA1102401999999REMMET057METAR ETGQ 070920Z 00000KT 6000 BKN050 M12/M14 Q1024 WHT;
0126102340999992009010710204+53133+009350FM-15+0061ETGQ V0209999C000010090019N0060001N1-01201-01301999999ADDGA1071+009001999GF107991999999999999999999MA1102401999999REMMET057METAR ETGQ 071020Z 00000KT 6000 BKN030 M12/M13 Q1024 WHT;
0126102340999992009010711204+53133+009350FM-15+0061ETGQ V0209999C000010096019N0060001N1-01001-01301999999ADDGA1081+009601999GF108991999999999999999999MA1102301999999REMMET057METAR ETGQ 071120Z 00000KT 6000 OVC032 M10/M13 Q1023 WHT;
0126102340999992009010712204+53133+009350FM-15+0061ETGQ V0209999C000010051019N0060001N1-01001-01201999999ADDGA1081+005101999GF108991999999999999999999MA1102301999999REMMET057METAR ETGQ 071220Z 00000KT 6000 OVC017 M10/M12 Q1023 WHT;
0126102340999992009010713204+53133+009350FM-15+0061ETGQ V0209999C000010045019N0080001N1-00901-01201999999ADDGA1081+004501999GF108991999999999999999999MA1102301999999REMMET057METAR ETGQ 071320Z 00000KT 8000 OVC015 M09/M12 Q1023 WHT;
0126102340999992009010714204+53133+009350FM-15+0061ETGQ V0209999C000010036019N0080001N1-00901-01101999999ADDGA1081+003601999GF108991999999999999999999MA1102301999999REMMET057METAR ETGQ 071420Z 00000KT 8000 OVC012 M09/M11 Q1023 GRN;
0126102340999992009010715204+53133+009350FM-15+0061ETGQ V0209999C000010033019N0080001N1-00801-01101999999ADDGA1081+003301999GF108991999999999999999999MA1102301999999REMMET057METAR ETGQ 071520Z 00000KT 8000 OVC011 M08/M11 Q1023 GRN;
0126102340999992009010716204+53133+009350FM-15+0061ETGQ V0203301N000510027019N0070001N1-00801-01101999999ADDGA1081+002701999GF108991999999999999999999MA1102401999999REMMET057METAR ETGQ 071620Z 33001KT 7000 OVC009 M08/M11 Q1024 GRN;
0126102340999992009010717204+53133+009350FM-15+0061ETGQ V0209999C000010024019N0070001N1-00801-01001999999ADDGA1081+002401999GF108991999999999999999999MA1102401999999REMMET057METAR ETGQ 071720Z 00000KT 7000 OVC008 M08/M10 Q1024 GRN;
0126102340999992009010718204+53133+009350FM-15+0061ETGQ V0209999C000010024019N0070001N1-00801-01001999999ADDGA1071+002401999GF107991999999999999999999MA1102401999999REMMET057METAR ETGQ 071820Z 00000KT 7000 BKN008 M08/M10 Q1024 GRN;
0172102340999992009010719204+53133+009350FM-15+0061ETGQ V0209999C00001005401CN0070001N1-00901-01001999999ADDGA1021+002401999GA2041+005401999GA3071+018001999GF107991999999999999999999MA1102511999999REMMET071METAR ETGQ 071920Z 00000KT 7000 FEW008 SCT018 BKN060 M09/M10 Q1025 WHT;
0126102340999992009010805204+53133+009350FM-15+0061ETGQ V0209999C000010024019N0070001N1-00501-00701999999ADDGA1081+002401999GF108991999999999999999999MA1102911999999REMMET057METAR ETGQ 080520Z 00000KT 7000 OVC008 M05/M07 Q1029 GRN;
0126102340999992009010806204+53133+009350FM-15+0061ETGQ V0209999C000010024019N0070001N1-00501-00701999999ADDGA1081+002401999GF108991999999999999999999MA1103011999999REMMET057METAR ETGQ 080620Z 00000KT 7000 OVC008 M05/M07 Q1030 GRN;
0126102340999992009010807204+53133+009350FM-15+0061ETGQ V0200501N001510027019N0060001N1-00501-00601999999ADDGA1081+002701999GF108991999999999999999999MA1103011999999REMMET057METAR ETGQ 080720Z 05003KT 6000 OVC009 M05/M06 Q1030 GRN;
0126102340999992009010808204+53133+009350FM-15+0061ETGQ V0201201N001510033019N0060001N1-00501-00701999999ADDGA1071+003301999GF107991999999999999999999MA1103121999999REMMET057METAR ETGQ 080820Z 12003KT 6000 BKN011 M05/M07 Q1031 GRN;
0126102340999992009010809204+53133+009350FM-15+0061ETGQ V0209999V000510033019N0080001N1-00401-00701999999ADDGA1071+003301999GF107991999999999999999999MA1103181999999REMMET057METAR ETGQ 080920Z VRB01KT 8000 BKN011 M04/M07 Q1032 GRN;
0126102340999992009010810204+53133+009350FM-15+0061ETGQ V0209999V000510036019N0080001N1-00401-00701999999ADDGA1071+003601999GF107991999999999999999999MA1103181999999REMMET057METAR ETGQ 081020Z VRB01KT 8000 BKN012 M04/M07 Q1032 GRN;
0127102340999992009010811204+53133+009350FM-15+0061ETGQ V0209999V000512200019N0080001N1-00301-00701999999ADDGA1041+004201999GF104991999999999999999999MA1103121999999REMMET058METAR ETGQ 081120Z VRB01KT 8000 SCT014 M03/M07 Q1031 BLU/;
0127102340999992009010812204+53133+009350FM-15+0061ETGQ V0209999V000512200019N0090001N1-00301-00701999999ADDGA1041+003901999GF104991999999999999999999MA1103121999999REMMET058METAR ETGQ 081220Z VRB01KT 9000 SCT013 M03/M07 Q1031 BLU/;
0127102340999992009010813204+53133+009350FM-15+0061ETGQ V0200801N000512200019N0090001N1-00301-00701999999ADDGA1021+003901999GF102991999999999999999999MA1103011999999REMMET058METAR ETGQ 081320Z 08001KT 9000 FEW013 M03/M07 Q1030 BLU/;
0127102340999992009010814204+53133+009350FM-15+0061ETGQ V0209999C000012200019N0090001N1-00301-00701999999ADDGA1021+004201999GF102991999999999999999999MA1103011999999REMMET058METAR ETGQ 081420Z 00000KT 9000 FEW014 M03/M07 Q1030 BLU/;
0127102340999992009010815204+53133+009350FM-15+0061ETGQ V0209999C000012200019N0080001N1-00401-00701999999ADDGA1021+004201999GF102991999999999999999999MA1103011999999REMMET058METAR ETGQ 081520Z 00000KT 8000 FEW014 M04/M07 Q1030 BLU/;
0127102340999992009010816204+53133+009350FM-15+0061ETGQ V0201001N000512200019N0080001N1-00401-00701999999ADDGA1021+003901999GF102991999999999999999999MA1103011999999REMMET058METAR ETGQ 081620Z 10001KT 8000 FEW013 M04/M07 Q1030 BLU/;
0078102340999992009010817204+53133+009350FM-15+0061ETGQ V0209999C000012200019N0080001N1-00501-00801999999ADDMA1103011999999REMMET051METAR ETGQ 081720Z 00000KT 8000 M05/M08 Q1030 BLU/;
0077102340999992009010818204+53133+009350FM-15+0061ETGQ V0209999C000012200019N0070001N1-00701-00801999999ADDMA1103011999999REMMET050METAR ETGQ 081820Z 00000KT 7000 M07/M08 Q1030 WHT;
0077102340999992009010819204+53133+009350FM-15+0061ETGQ V0209999C000012200019N0070001N1-00701-00801999999ADDMA1103121999999REMMET050METAR ETGQ 081920Z 00000KT 7000 M07/M08 Q1031 WHT;
0126102340999992009010905204+53133+009350FM-15+0061ETGQ V0209999C000010012019N0060001N1-01101-01201999999ADDGA1071+001201999GF107991999999999999999999MA1103011999999REMMET057METAR ETGQ 090520Z 00000KT 6000 BKN004 M11/M12 Q1030 YLO;
0135102340999992009010906204+53133+009350FM-15+0061ETGQ V0209999C000010009019N0040001N1-01101-01201999999ADDGA1071+000901999GF107991999999999999999999MA1103121999999MW1101REMMET060METAR ETGQ 090620Z 00000KT 4000 BR BKN003 M11/M12 Q1031 YLO;
0145102340999992009010907204+53133+009350FM-15+0061ETGQ V0209999C000010009019N0015001N1-01101-01201999999ADDGA1081+000901999GF108991999999999999999999MA1103121999999MW1101REMMET070METAR ETGQ 090720Z 00000KT 1500 R36////// BR OVC003 M11/M12 Q1031 AMB;
0135102340999992009010908204+53133+009350FM-15+0061ETGQ V0209999C000010009019N0012001N1-01101-01201999999ADDGA1081+000901999GF108991999999999999999999MA1103121999999MW1101REMMET060METAR ETGQ 090820Z 00000KT 1200 BR OVC003 M11/M12 Q1031 AMB;
0135102340999992009010909204+53133+009350FM-15+0061ETGQ V0209999C000010015019N0012001N1-01001-01101999999ADDGA1071+001501999GF107991999999999999999999MA1103181999999MW1101REMMET060METAR ETGQ 090920Z 00000KT 1200 BR BKN005 M10/M11 Q1032 AMB;
0135102340999992009010910204+53133+009350FM-15+0061ETGQ V0209999C000012200019N0020001N1-01001-01101999999ADDGA1021+001801999GF102991999999999999999999MA1103121999999MW1101REMMET060METAR ETGQ 091020Z 00000KT 2000 BR FEW006 M10/M11 Q1031 YLO;
0086102340999992009010911204+53133+009350FM-15+0061ETGQ V0209999C000012200019N0040001N1-00901-01001999999ADDMA1103121999999MW1101REMMET053METAR ETGQ 091120Z 00000KT 4000 BR M09/M10 Q1031 GRN;
0086102340999992009010912204+53133+009350FM-15+0061ETGQ V0203401N000512200019N0040001N1-00801-01001999999ADDMA1103011999999MW1101REMMET053METAR ETGQ 091220Z 34001KT 4000 BR M08/M10 Q1030 GRN;
0086102340999992009010913204+53133+009350FM-15+0061ETGQ V0209999C000012200019N0045001N1-00801-00901999999ADDMA1103011999999MW1101REMMET053METAR ETGQ 091320Z 00000KT 4500 BR M08/M09 Q1030 GRN;
0077102340999992009010914204+53133+009350FM-15+0061ETGQ V0209999C000012200019N0060001N1-00701-00901999999ADDMA1103011999999REMMET050METAR ETGQ 091420Z 00000KT 6000 M07/M09 Q1030 WHT;
0127102340999992009010915204+53133+009350FM-15+0061ETGQ V0209999C000012200019N0080001N1-00701-00901999999ADDGA1021+090001999GF102991999999999999999999MA1102911999999REMMET058METAR ETGQ 091520Z 00000KT 8000 FEW320 M07/M09 Q1029 BLU/;
0126102340999992009010916204+53133+009350FM-15+0061ETGQ V0209999C000012200019N0070001N1-00801-01001999999ADDGA1021+090001999GF102991999999999999999999MA1102911999999REMMET057METAR ETGQ 091620Z 00000KT 7000 FEW320 M08/M10 Q1029 WHT;
0077102340999992009010917204+53133+009350FM-15+0061ETGQ V0209999C000012200019N0060001N1-00901-01001999999ADDMA1103011999999REMMET050METAR ETGQ 091720Z 00000KT 6000 M09/M10 Q1030 WHT;
0086102340999992009010918204+53133+009350FM-15+0061ETGQ V0209999C000012200019N0050001N1-00801-00901999999ADDMA1103011999999MW1101REMMET053METAR ETGQ 091820Z 00000KT 5000 BR M08/M09 Q1030 WHT;
0086102340999992009010919204+53133+009350FM-15+0061ETGQ V0202401N000512200019N0050001N1-00901-01001999999ADDMA1103011999999MW1101REMMET053METAR ETGQ 091920Z 24001KT 5000 BR M09/M10 Q1030 WHT;
0077102340999992009011205204+53133+009350FM-15+0061ETGQ V0201701N002112200019N0060001N1-00901-01001999999ADDMA1102811999999REMMET050METAR ETGQ 120520Z 17004KT 6000 M09/M10 Q1028 WHT;
0077102340999992009011206204+53133+009350FM-15+0061ETGQ V0201601N002112200019N0060001N1-00801-01001999999ADDMA1102811999999REMMET050METAR ETGQ 120620Z 16004KT 6000 M08/M10 Q1028 WHT;
0126102340999992009011207204+53133+009350FM-15+0061ETGQ V0201401N002112200019N0060001N1-00901-01001999999ADDGA1021+105001999GF102991999999999999999999MA1102811999999REMMET057METAR ETGQ 120720Z 14004KT 6000 FEW350 M09/M10 Q1028 WHT;
0126102340999992009011208204+53133+009350FM-15+0061ETGQ V0201501N001512200019N0060001N1-00801-01001999999ADDGA1041+105001999GF104991999999999999999999MA1102811999999REMMET057METAR ETGQ 120820Z 15003KT 6000 SCT350 M08/M10 Q1028 WHT;
0126102340999992009011209204+53133+009350FM-15+0061ETGQ V0201501N001511050019N0060001N1-00601-00901999999ADDGA1071+105001999GF107991999999999999999999MA1102811999999REMMET057METAR ETGQ 120920Z 15003KT 6000 BKN350 M06/M09 Q1028 WHT;
0126102340999992009011210204+53133+009350FM-15+0061ETGQ V0201601N002112200019N0060001N1-00401-00901999999ADDGA1041+105001999GF104991999999999999999999MA1102711999999REMMET057METAR ETGQ 121020Z 16004KT 6000 SCT350 M04/M09 Q1027 WHT;
0126102340999992009011211204+53133+009350FM-15+0061ETGQ V0201901N001512200019N0070001N1-00201-00801999999ADDGA1021+105001999GF102991999999999999999999MA1102611999999REMMET057METAR ETGQ 121120Z 19003KT 7000 FEW350 M02/M08 Q1026 WHT;
0127102340999992009011212204+53133+009350FM-15+0061ETGQ V0201701N001512200019N0080001N1-00101-00701999999ADDGA1021+105001999GF102991999999999999999999MA1102511999999REMMET058METAR ETGQ 121220Z 17003KT 8000 FEW350 M01/M07 Q1025 BLU/;
0127102340999992009011213204+53133+009350FM-15+0061ETGQ V0201601N002112200019N0112651N1+00001-00701999999ADDGA1021+105001999GF102991999999999999999999MA1102401999999REMMET058METAR ETGQ 121320Z 16004KT 9999 FEW350 M00/M07 Q1024 BLU/;
0127102340999992009011214204+53133+009350FM-15+0061ETGQ V0201501N002112200019N0112651N1+00001-00601999999ADDGA1041+105001999GF104991999999999999999999MA1102301999999REMMET058METAR ETGQ 121420Z 15004KT 9999 SCT350 M00/M06 Q1023 BLU/;
0127102340999992009011215204+53133+009350FM-15+0061ETGQ V0201601N001512200019N0112651N1+00001-00601999999ADDGA1041+075001999GF104991999999999999999999MA1102301999999REMMET058METAR ETGQ 121520Z 16003KT 9999 SCT250 M00/M06 Q1023 BLU/;
0126102340999992009011216204+53133+009350FM-15+0061ETGQ V0201601N002610570019N0060001N1-00101-00601999999ADDGA1071+057001999GF107991999999999999999999MA1102201999999REMMET057METAR ETGQ 121620Z 16005KT 6000 BKN190 M01/M06 Q1022 WHT;
0126102340999992009011217204+53133+009350FM-15+0061ETGQ V0201501N002110570019N0060001N1-00201-00701999999ADDGA1071+057001999GF107991999999999999999999MA1102201999999REMMET057METAR ETGQ 121720Z 15004KT 6000 BKN190 M02/M07 Q1022 WHT;
0135102340999992009011218204+53133+009350FM-15+0061ETGQ V0201501N002110600019N0050001N1-00201-00701999999ADDGA1071+060001999GF107991999999999999999999MA1102201999999MW1051REMMET060METAR ETGQ 121820Z 15004KT 5000 HZ BKN200 M02/M07 Q1022 WHT;
0135102340999992009011219204+53133+009350FM-15+0061ETGQ V0201601N002610420019N0050001N1-00301-00701999999ADDGA1071+042001999GF107991999999999999999999MA1102201999999MW1051REMMET060METAR ETGQ 121920Z 16005KT 5000 HZ BKN140 M03/M07 Q1022 WHT;
0126102340999992009011305204+53133+009350FM-15+0061ETGQ V0201301N001510210019N0060001N1+00001-00501999999ADDGA1071+021001999GF107991999999999999999999MA1101691999999REMMET057METAR ETGQ 130520Z 13003KT 6000 BKN070 M00/M05 Q1017 WHT;
0126102340999992009011306204+53133+009350FM-15+0061ETGQ V0201501N003110210019N0060001N1+00001-00501999999ADDGA1071+021001999GF107991999999999999999999MA1101691999999REMMET057METAR ETGQ 130620Z 15006KT 6000 BKN070 M00/M05 Q1017 WHT;
0125102340999992009011307204+53133+009350FM-15+0061ETGQ V0201501N002110240019N0080001N1+00001-00501999999ADDGA1071+024001999GF107991999999999999999999MA1101691999999REMMET056METAR ETGQ 130720Z 15004KT 8000 BKN080 00/M05 Q1017 BLU;
0125102340999992009011308204+53133+009350FM-15+0061ETGQ V0201601N002110270019N0080001N1+00101-00501999999ADDGA1071+027001999GF107991999999999999999999MA1101691999999REMMET056METAR ETGQ 130820Z 16004KT 8000 BKN090 01/M05 Q1017 BLU;
0125102340999992009011309204+53133+009350FM-15+0061ETGQ V0201601N001510240019N0112651N1+00101-00501999999ADDGA1071+024001999GF107991999999999999999999MA1101691999999REMMET056METAR ETGQ 130920Z 16003KT 9999 BKN080 01/M05 Q1017 BLU;
0125102340999992009011310204+53133+009350FM-15+0061ETGQ V0201701N002110270019N0112651N1+00101-00501999999ADDGA1071+027001999GF107991999999999999999999MA1101691999999REMMET056METAR ETGQ 131020Z 17004KT 9999 BKN090 01/M05 Q1017 BLU;
0125102340999992009011311204+53133+009350FM-15+0061ETGQ V0201601N002110360019N0112651N1+00301-00501999999ADDGA1071+036001999GF107991999999999999999999MA1101691999999REMMET056METAR ETGQ 131120Z 16004KT 9999 BKN120 03/M05 Q1017 BLU;
0125102340999992009011312204+53133+009350FM-15+0061ETGQ V0201601N002110390019N0112651N1+00301-00401999999ADDGA1071+039001999GF107991999999999999999999MA1101591999999REMMET056METAR ETGQ 131220Z 16004KT 9999 BKN130 03/M04 Q1016 BLU;
0125102340999992009011313204+53133+009350FM-15+0061ETGQ V0201501N002110420019N0112651N1+00301-00401999999ADDGA1071+042001999GF107991999999999999999999MA1101491999999REMMET056METAR ETGQ 131320Z 15004KT 9999 BKN140 03/M04 Q1015 BLU;
0125102340999992009011314204+53133+009350FM-15+0061ETGQ V0201501N002110420019N0112651N1+00301-00401999999ADDGA1071+042001999GF107991999999999999999999MA1101491999999REMMET056METAR ETGQ 131420Z 15004KT 9999 BKN140 03/M04 Q1015 BLU;
0125102340999992009011315204+53133+009350FM-15+0061ETGQ V0201401N002110450019N0112651N1+00301-00401999999ADDGA1071+045001999GF107991999999999999999999MA1101491999999REMMET056METAR ETGQ 131520Z 14004KT 9999 BKN150 03/M04 Q1015 BLU;
0125102340999992009011316204+53133+009350FM-15+0061ETGQ V0201501N001010480019N0112651N1+00201-00401999999ADDGA1071+048001999GF107991999999999999999999MA1101491999999REMMET056METAR ETGQ 131620Z 15002KT 9999 BKN160 02/M04 Q1015 BLU;
0125102340999992009011317204+53133+009350FM-15+0061ETGQ V0201601N002110480019N0080001N1+00101-00401999999ADDGA1071+048001999GF107991999999999999999999MA1101491999999REMMET056METAR ETGQ 131720Z 16004KT 8000 BKN160 01/M04 Q1015 BLU;
0126102340999992009011318204+53133+009350FM-15+0061ETGQ V0201401N002112200019N0080001N1+00001-00401999999ADDGA1041+048001999GF104991999999999999999999MA1101491999999REMMET057METAR ETGQ 131820Z 14004KT 8000 SCT160 00/M04 Q1015 BLU/;
0127102340999992009011319204+53133+009350FM-15+0061ETGQ V0201601N002612200019N0080001N1-00101-00401999999ADDGA1041+042001999GF104991999999999999999999MA1101491999999REMMET058METAR ETGQ 131920Z 16005KT 8000 SCT140 M01/M04 Q1015 BLU/;
0126102340999992009011405204+53133+009350FM-15+0061ETGQ V0201501N002110060019N0080001N1-00201-00501999999ADDGA1071+006001999GF107991999999999999999999MA1101391999999REMMET057METAR ETGQ 140520Z 15004KT 8000 BKN020 M02/M05 Q1014 WHT;
0138102340999992009011406204+53133+009350FM-15+0061ETGQ V0201401N001510045019N0060001N1-00201-00401999999ADDGA1081+004501999GF108991999999999999999999MA1101391999999MW1661REMMET063METAR ETGQ 140620Z 14003KT 6000 -FZRA OVC015 M02/M04 Q1014 WHT;
0147102340999992009011407204+53133+009350FM-15+0061ETGQ V0201401N001510036019N0040001N1-00101-00301999999ADDGA1081+003601999GF108991999999999999999999MA1101491999999MW1101MW2661REMMET066METAR ETGQ 140720Z 14003KT 4000 -FZRA BR OVC012 M01/M03 Q1015 GRN;
0135102340999992009011408204+53133+009350FM-15+0061ETGQ V0201501N001510036019N0040001N1-00101-00201999999ADDGA1081+003601999GF108991999999999999999999MA1101491999999MW1101REMMET060METAR ETGQ 140820Z 15003KT 4000 BR OVC012 M01/M02 Q1015 GRN;
0170102340999992009011409204+53133+009350FM-15+0061ETGQ V0209999V001010024019N0040001N1-00101-00201999999ADDGA1071+002401999GA2081+003601999GF108991999999999999999999MA1101491999999MW1101MW2661REMMET073METAR ETGQ 140920Z VRB02KT 4000 -FZRA BR BKN008 OVC012 M01/M02 Q1015 GRN;
0165102340999992009011410204+53133+009350FM-15+0061ETGQ V0209999V000510018019N0030001N1+00001-00101999999ADDGA1071+001801999GA2081+002701999GF108991999999999999999999MA1101491999999MW1101REMMET074METAR ETGQ 141020Z VRB01KT 3000 BR BKN006 OVC009 M00/M01 Q1015 REFZRA YLO;
0165102340999992009011411204+53133+009350FM-15+0061ETGQ V0201501N001010024019N0030001N1+00001-00101999999ADDGA1071+002401999GA2081+003901999GF108991999999999999999999MA1101491999999MW1101REMMET074METAR ETGQ 141120Z 15002KT 3000 BR BKN008 OVC013 M00/M01 Q1015 REFZRA YLO;
0134102340999992009011412204+53133+009350FM-15+0061ETGQ V0201601N001010063019N0030001N1+00001-00101999999ADDGA1081+006301999GF108991999999999999999999MA1101491999999MW1101REMMET059METAR ETGQ 141220Z 16002KT 3000 BR OVC021 00/M01 Q1015 YLO;
0134102340999992009011413204+53133+009350FM-15+0061ETGQ V0201601N001510066019N0030001N1+00101+00001999999ADDGA1081+006601999GF108991999999999999999999MA1101491999999MW1101REMMET059METAR ETGQ 141320Z 16003KT 3000 BR OVC022 01/M00 Q1015 YLO;
0134102340999992009011414204+53133+009350FM-15+0061ETGQ V0201301N001010051019N0030001N1+00101+00001999999ADDGA1081+005101999GF108991999999999999999999MA1101491999999MW1101REMMET059METAR ETGQ 141420Z 13002KT 3000 BR OVC017 01/M00 Q1015 YLO;
0157102340999992009011415204+53133+009350FM-15+0061ETGQ V0201901N001010084019N0030001N1+00101+00001999999ADDGA1041+005101999GA2081+008401999GF108991999999999999999999MA1101591999999MW1101REMMET066METAR ETGQ 141520Z 19002KT 3000 BR SCT017 OVC028 01/M00 Q1016 YLO;
0134102340999992009011416204+53133+009350FM-15+0061ETGQ V0201601N000510036019N0035001N1+00101+00001999999ADDGA1081+003601999GF108991999999999999999999MA1101691999999MW1101REMMET059METAR ETGQ 141620Z 16001KT 3500 BR OVC012 01/M00 Q1017 YLO;
0157102340999992009011417204+53133+009350FM-15+0061ETGQ V0201601N001010027019N0050001N1+00101+00001999999ADDGA1071+002701999GA2071+011401999GF107991999999999999999999MA1101691999999MW1101REMMET066METAR ETGQ 141720Z 16002KT 5000 BR BKN009 BKN038 01/M00 Q1017 GRN;
0134102340999992009011418204+53133+009350FM-15+0061ETGQ V0201501N001510027019N0050001N1+00101+00001999999ADDGA1071+002701999GF107991999999999999999999MA1101801999999MW1101REMMET059METAR ETGQ 141820Z 15003KT 5000 BR BKN009 01/M00 Q1018 GRN;
0134102340999992009011419204+53133+009350FM-15+0061ETGQ V0201601N000510030019N0050001N1+00101+00001999999ADDGA1071+003001999GF107991999999999999999999MA1101801999999MW1101REMMET059METAR ETGQ 141920Z 16001KT 5000 BR BKN010 01/M00 Q1018 GRN;
0124102340999992009011505204+53133+009350FM-15+0061ETGQ V0201501N001510105019N0060001N1+00101+00001999999ADDGA1081+010501999GF108991999999999999999999MA1102001999999REMMET055METAR ETGQ 150520Z 15003KT 6000 OVC035 01/00 Q1020 WHT;
0124102340999992009011506204+53133+009350FM-15+0061ETGQ V0201601N001010105019N0060001N1+00101+00001999999ADDGA1081+010501999GF108991999999999999999999MA1102101999999REMMET055METAR ETGQ 150620Z 16002KT 6000 OVC035 01/00 Q1021 WHT;
0133102340999992009011507204+53133+009350FM-15+0061ETGQ V0201401N001010096019N0040001N1+00101+00001999999ADDGA1081+009601999GF108991999999999999999999MA1102101999999MW1101REMMET058METAR ETGQ 150720Z 14002KT 4000 BR OVC032 01/00 Q1021 GRN;
0133102340999992009011508204+53133+009350FM-15+0061ETGQ V0201601N002110099019N0040001N1+00101+00001999999ADDGA1071+009901999GF107991999999999999999999MA1102101999999MW1101REMMET058METAR ETGQ 150820Z 16004KT 4000 BR BKN033 01/00 Q1021 GRN;
0124102340999992009011509204+53133+009350FM-15+0061ETGQ V0201701N001510108019N0060001N1+00201+00001999999ADDGA1071+010801999GF107991999999999999999999MA1102101999999REMMET055METAR ETGQ 150920Z 17003KT 6000 BKN036 02/00 Q1021 WHT;
0124102340999992009011510204+53133+009350FM-15+0061ETGQ V0201801N001510111019N0070001N1+00301+00001999999ADDGA1071+011101999GF107991999999999999999999MA1102201999999REMMET055METAR ETGQ 151020Z 18003KT 7000 BKN037 03/00 Q1022 WHT;
0125102340999992009011511204+53133+009350FM-15+0061ETGQ V0201901N001512200019N0080001N1+00401+00001999999ADDGA1021+010501999GF102991999999999999999999MA1102101999999REMMET056METAR ETGQ 151120Z 19003KT 8000 FEW035 04/00 Q1021 BLU/;
0126102340999992009011512204+53133+009350FM-15+0061ETGQ V0201101N001512200019N0112651N1+00501-00201999999ADDGA1021+015001999GF102991999999999999999999MA1102101999999REMMET057METAR ETGQ 151220Z 11003KT 9999 FEW050 05/M02 Q1021 BLU/;
0126102340999992009011513204+53133+009350FM-15+0061ETGQ V0201201N001512200019N0112651N1+00501-00201999999ADDGA1021+013501999GF102991999999999999999999MA1102001999999REMMET057METAR ETGQ 151320Z 12003KT 9999 FEW045 05/M02 Q1020 BLU/;
0077102340999992009011514204+53133+009350FM-15+0061ETGQ V0201301N001512200019N0112651N1+00501-00301999999ADDMA1102101999999REMMET050METAR ETGQ 151420Z 13003KT 9999 05/M03 Q1021 BLU/;
0077102340999992009011515204+53133+009350FM-15+0061ETGQ V0201901N002112200019N0112651N1+00401-00101999999ADDMA1102101999999REMMET050METAR ETGQ 151520Z 19004KT 9999 04/M01 Q1021 BLU/;
0077102340999992009011516204+53133+009350FM-15+0061ETGQ V0201501N001512200019N0112651N1+00301-00201999999ADDMA1102101999999REMMET050METAR ETGQ 151620Z 15003KT 9999 03/M02 Q1021 BLU/;
0077102340999992009011517204+53133+009350FM-15+0061ETGQ V0201701N001012200019N0112651N1+00201-00201999999ADDMA1102201999999REMMET050METAR ETGQ 151720Z 17002KT 9999 02/M02 Q1022 BLU/;
0077102340999992009011518204+53133+009350FM-15+0061ETGQ V0201701N001512200019N0112651N1+00101-00201999999ADDMA1102201999999REMMET050METAR ETGQ 151820Z 17003KT 9999 01/M02 Q1022 BLU/;
0077102340999992009011519204+53133+009350FM-15+0061ETGQ V0209999V001012200019N0112651N1+00001-00201999999ADDMA1102201999999REMMET050METAR ETGQ 151920Z VRB02KT 9999 00/M02 Q1022 BLU/;
0125102340999992009011605204+53133+009350FM-15+0061ETGQ V0201101N002110036019N0060001N1+00001-00201999999ADDGA1071+003601999GF107991999999999999999999MA1102301999999REMMET056METAR ETGQ 160520Z 11004KT 6000 BKN012 00/M02 Q1023 GRN;
0125102340999992009011606204+53133+009350FM-15+0061ETGQ V0201101N002110036019N0060001N1+00001-00201999999ADDGA1081+003601999GF108991999999999999999999MA1102301999999REMMET056METAR ETGQ 160620Z 11004KT 6000 OVC012 00/M02 Q1023 GRN;
0125102340999992009011607204+53133+009350FM-15+0061ETGQ V0201501N002610036019N0060001N1+00101-00201999999ADDGA1081+003601999GF108991999999999999999999MA1102301999999REMMET056METAR ETGQ 160720Z 15005KT 6000 OVC012 01/M02 Q1023 GRN;
0125102340999992009011608204+53133+009350FM-15+0061ETGQ V0201401N005110039019N0070001N1+00101-00201999999ADDGA1081+003901999GF108991999999999999999999MA1102301999999REMMET056METAR ETGQ 160820Z 14010KT 7000 OVC013 01/M02 Q1023 GRN;
0125102340999992009011609204+53133+009350FM-15+0061ETGQ V0201401N002610048019N0070001N1+00101-00201999999ADDGA1081+004801999GF108991999999999999999999MA1102301999999REMMET056METAR ETGQ 160920Z 14005KT 7000 OVC016 01/M02 Q1023 WHT;
0125102340999992009011610204+53133+009350FM-15+0061ETGQ V0201601N002110054019N0070001N1+00201-00201999999ADDGA1081+005401999GF108991999999999999999999MA1102301999999REMMET056METAR ETGQ 161020Z 16004KT 7000 OVC018 02/M02 Q1023 WHT;
0125102340999992009011611204+53133+009350FM-15+0061ETGQ V0201601N003110054019N0112651N1+00201-00201999999ADDGA1071+005401999GF107991999999999999999999MA1102201999999REMMET056METAR ETGQ 161120Z 16006KT 9999 BKN018 02/M02 Q1022 WHT;
0149102340999992009011612204+53133+009350FM-15+0061ETGQ V0201601N004111050019N0112651N1+00201-00201999999ADDGA1021+006001999GA2071+105001999GF107991999999999999999999MA1102201999999REMMET064METAR ETGQ 161220Z 16008KT 9999 FEW020 BKN350 02/M02 Q1022 BLU/;
0149102340999992009011613204+53133+009350FM-15+0061ETGQ V0201501N002610900019N0090001N1+00201-00201999999ADDGA1041+006301999GA2071+090001999GF107991999999999999999999MA1102201999999REMMET064METAR ETGQ 161320Z 15005KT 9000 SCT021 BKN340 02/M02 Q1022 BLU/;
0125102340999992009011614204+53133+009350FM-15+0061ETGQ V0201601N002610063019N0090001N1+00201-00201999999ADDGA1071+006301999GF107991999999999999999999MA1102201999999REMMET056METAR ETGQ 161420Z 16005KT 9000 BKN021 02/M02 Q1022 WHT;
0125102340999992009011615204+53133+009350FM-15+0061ETGQ V0201401N002110060019N0080001N1+00201-00201999999ADDGA1071+006001999GF107991999999999999999999MA1102201999999REMMET056METAR ETGQ 161520Z 14004KT 8000 BKN020 02/M02 Q1022 WHT;
0125102340999992009011616204+53133+009350FM-15+0061ETGQ V0201201N001010450019N0080001N1+00101-00201999999ADDGA1071+045001999GF107991999999999999999999MA1102201999999REMMET056METAR ETGQ 161620Z 12002KT 8000 BKN150 01/M02 Q1022 BLU;
0125102340999992009011617204+53133+009350FM-15+0061ETGQ V0209999C000012200019N0070001N1+00101-00201999999ADDGA1041+045001999GF104991999999999999999999MA1102201999999REMMET056METAR ETGQ 161720Z 00000KT 7000 SCT150 01/M02 Q1022 WHT;
0158102340999992009011618204+53133+009350FM-15+0061ETGQ V0209999C000010570019N0050001N1-00101-00201999999ADDGA1041+042001999GA2071+057001999GF107991999999999999999999MA1102201999999MW1101REMMET067METAR ETGQ 161820Z 00000KT 5000 BR SCT140 BKN190 M01/M02 Q1022 WHT;
0180102340999992009011619204+53133+009350FM-15+0061ETGQ V0209999C00001045001CN0040001N1+00001-00201999999ADDGA1041+021001999GA2041+045001999GA3071+057001999GF107991999999999999999999MA1102201999999MW1101REMMET073METAR ETGQ 161920Z 00000KT 4000 BR SCT070 SCT150 BKN190 00/M02 Q1022 GRN;
0148102340999992009011905204+53133+009350FM-15+0061ETGQ V0201501N002112200019N0112651N1+00401+00101999999ADDGA1041+006601999GA2041+030001999GF104991999999999999999999MA1100201999999REMMET063METAR ETGQ 190520Z 15004KT 9999 SCT022 SCT100 04/01 Q1002 BLU/;
0147102340999992009011906204+53133+009350FM-15+0061ETGQ V0201601N001510360019N0112651N1+00401+00101999999ADDGA1041+006001999GA2071+036001999GF107991999999999999999999MA1100001999999REMMET062METAR ETGQ 190620Z 16003KT 9999 SCT020 BKN120 04/01 Q1000 BLU;
0147102340999992009011907204+53133+009350FM-15+0061ETGQ V0201601N002110300019N0112651N1+00401+00101999999ADDGA1041+009301999GA2071+030001999GF107991999999999999999999MA1099901999999REMMET062METAR ETGQ 190720Z 16004KT 9999 SCT031 BKN100 04/01 Q0999 BLU;
0147102340999992009011908204+53133+009350FM-15+0061ETGQ V0201401N003110150019N0112651N1+00501+00201999999ADDGA1041+009001999GA2071+015001999GF107991999999999999999999MA1099701999999REMMET062METAR ETGQ 190820Z 14006KT 9999 SCT030 BKN050 05/02 Q0997 BLU;
0157102340999992009011909204+53133+009350FM-15+0061ETGQ V0201501N003610132019N0112651N1+00401+00201999999ADDGA1041+005101999GA2081+013201999GF108991999999999999999999MA1099491999999MW1611REMMET066METAR ETGQ 190920Z 15007KT 9999 -RA SCT017 OVC044 04/02 Q0995 BLU;
0157102340999992009011910204+53133+009350FM-15+0061ETGQ V0201401N005710120019N0112651N1+00401+00201999999ADDGA1041+005401999GA2081+012001999GF108991999999999999999999MA1099291999999MW1611REMMET066METAR ETGQ 191020Z 14011KT 9999 -RA SCT018 OVC040 04/02 Q0993 BLU;
0134102340999992009011911204+53133+009350FM-15+0061ETGQ V0201401N005110069019N0112651N1+00501+00201999999ADDGA1071+006901999GF107991999999999999999999MA1099091999999MW1611REMMET059METAR ETGQ 191120Z 14010KT 9999 -RA BKN023 05/02 Q0991 WHT;
0168102340999992009011912204+53133+009350FM-15+0061ETGQ V0201601N004610069019N0112651N1+00501+00301999999ADDGA1021+003001999GA2071+006901999GF107991999999999999999999MA1098981999999MW1611OC101031REMMET069METAR ETGQ 191220Z 16009G20KT 9999 -RA FEW010 BKN023 05/03 Q0990 WHT;
0170102340999992009011913204+53133+009350FM-15+0061ETGQ V0202201N00211006001CN0112651N1+00601+00301999999ADDGA1021+003001999GA2041+006001999GA3071+009001999GF107991999999999999999999MA1098921999999REMMET069METAR ETGQ 191320Z 22004KT 9999 FEW010 SCT020 BKN030 06/03 Q0989 BLU;
0170102340999992009011914204+53133+009350FM-15+0061ETGQ V0201401N00211005401CN0112651N1+00601+00401999999ADDGA1021+003901999GA2041+005401999GA3071+006901999GF107991999999999999999999MA1098921999999REMMET069METAR ETGQ 191420Z 14004KT 9999 FEW013 SCT018 BKN023 06/04 Q0989 WHT;
0170102340999992009011915204+53133+009350FM-15+0061ETGQ V0201301N001010075019N0112651N1+00701+00501999999ADDGA1021+005401999GA2071+007501999GA3071+012001999GF107991999999999999999999MA1098921999999REMMET069METAR ETGQ 191520Z 13002KT 9999 FEW018 BKN025 BKN040 07/05 Q0989 BLU;
0170102340999992009011916204+53133+009350FM-15+0061ETGQ V0202501N002110084019N0112651N1+00901+00501999999ADDGA1021+006601999GA2071+008401999GA3071+012001999GF107991999999999999999999MA1098921999999REMMET069METAR ETGQ 191620Z 25004KT 9999 FEW022 BKN028 BKN040 09/05 Q0989 BLU;
0148102340999992009011917204+53133+009350FM-15+0061ETGQ V0209999V001012200019N0112651N1+00901+00401999999ADDGA1021+008401999GA2041+012001999GF104991999999999999999999MA1098921999999REMMET063METAR ETGQ 191720Z VRB02KT 9999 FEW028 SCT040 09/04 Q0989 BLU/;
0148102340999992009011918204+53133+009350FM-15+0061ETGQ V0201701N002612200019N0112651N1+00901+00401999999ADDGA1021+008401999GA2041+012001999GF104991999999999999999999MA1098821999999REMMET063METAR ETGQ 191820Z 17005KT 9999 FEW028 SCT040 09/04 Q0988 BLU/;
0125102340999992009012005204+53133+009350FM-15+0061ETGQ V0209999V001012200019N0112651N1+00401+00101999999ADDGA1041+008401999GF104991999999999999999999MA1099491999999REMMET056METAR ETGQ 200520Z VRB02KT 9999 SCT028 04/01 Q0995 BLU/;
0124102340999992009012006204+53133+009350FM-15+0061ETGQ V0202101N002610063019N0112651N1+00301+00001999999ADDGA1071+006301999GF107991999999999999999999MA1099591999999REMMET055METAR ETGQ 200620Z 21005KT 9999 BKN021 03/00 Q0996 WHT;
0124102340999992009012007204+53133+009350FM-15+0061ETGQ V0201801N002110066019N0112651N1+00301+00001999999ADDGA1071+006601999GF107991999999999999999999MA1099591999999REMMET055METAR ETGQ 200720Z 18004KT 9999 BKN022 03/00 Q0996 WHT;
0125102340999992009012008204+53133+009350FM-15+0061ETGQ V0202301N002110078019N0112651N1+00401-00101999999ADDGA1071+007801999GF107991999999999999999999MA1099801999999REMMET056METAR ETGQ 200820Z 23004KT 9999 BKN026 04/M01 Q0998 BLU;
0149102340999992009012009204+53133+009350FM-15+0061ETGQ V0202501N002110630019N0112651N1+00401-00101999999ADDGA1041+007501999GA2071+063001999GF107991999999999999999999MA1099801999999REMMET064METAR ETGQ 200920Z 25004KT 9999 SCT025 BKN210 04/M01 Q0998 BLU/;
0125102340999992009012011204+53133+009350FM-15+0061ETGQ V0202201N002110069019N0112651N1+00401-00101999999ADDGA1071+006901999GF107991999999999999999999MA1099901999999REMMET056METAR ETGQ 201120Z 22004KT 9999 BKN023 04/M01 Q0999 WHT;
0125102340999992009012012204+53133+009350FM-15+0061ETGQ V0202201N001510069019N0112651N1+00501+00001999999ADDGA1071+006901999GF107991999999999999999999MA1099901999999REMMET056METAR ETGQ 201220Z 22003KT 9999 BKN023 05/M00 Q0999 WHT;
0125102340999992009012013204+53133+009350FM-15+0061ETGQ V0202201N001510078019N0112651N1+00501+00001999999ADDGA1071+007801999GF107991999999999999999999MA1099901999999REMMET056METAR ETGQ 201320Z 22003KT 9999 BKN026 05/M00 Q0999 BLU;
0125102340999992009012014204+53133+009350FM-15+0061ETGQ V0202201N001510087019N0112651N1+00601+00001999999ADDGA1071+008701999GF107991999999999999999999MA1099901999999REMMET056METAR ETGQ 201420Z 22003KT 9999 BKN029 06/M00 Q0999 BLU;
0125102340999992009012015204+53133+009350FM-15+0061ETGQ V0209999C000010081019N0112651N1+00501+00001999999ADDGA1071+008101999GF107991999999999999999999MA1099901999999REMMET056METAR ETGQ 201520Z 00000KT 9999 BKN027 05/M00 Q0999 BLU;
0125102340999992009012016204+53133+009350FM-15+0061ETGQ V0202501N001510081019N0112651N1+00501+00001999999ADDGA1071+008101999GF107991999999999999999999MA1100001999999REMMET056METAR ETGQ 201620Z 25003KT 9999 BKN027 05/M00 Q1000 BLU;
0125102340999992009012017204+53133+009350FM-15+0061ETGQ V0201601N001510081019N0112651N1+00501-00101999999ADDGA1071+008101999GF107991999999999999999999MA1100101999999REMMET056METAR ETGQ 201720Z 16003KT 9999 BKN027 05/M01 Q1001 BLU;
0125102340999992009012018204+53133+009350FM-15+0061ETGQ V0209999C000010096019N0112651N1+00401-00101999999ADDGA1071+009601999GF107991999999999999999999MA1100101999999REMMET056METAR ETGQ 201820Z 00000KT 9999 BKN032 04/M01 Q1001 BLU;
0125102340999992009012019204+53133+009350FM-15+0061ETGQ V0209999C000010102019N0112651N1+00301-00101999999ADDGA1071+010201999GF107991999999999999999999MA1100101999999REMMET056METAR ETGQ 201920Z 00000KT 9999 BKN034 03/M01 Q1001 BLU;
0078102340999992009012105204+53133+009350FM-15+0061ETGQ V0209999C000012200019N0112651N1-00201-00301999999ADDMA1100411999999REMMET051METAR ETGQ 210520Z 00000KT 9999 M02/M03 Q1004 BLU/;
0126102340999992009012106204+53133+009350FM-15+0061ETGQ V0209999C000010240019N0112651N1-00301-00301999999ADDGA1071+024001999GF107991999999999999999999MA1100511999999REMMET057METAR ETGQ 210620Z 00000KT 9999 BKN080 M03/M03 Q1005 BLU;
0126102340999992009012107204+53133+009350FM-15+0061ETGQ V0209999C000010240019N0112651N1-00201-00201999999ADDGA1071+024001999GF107991999999999999999999MA1100711999999REMMET057METAR ETGQ 210720Z 00000KT 9999 BKN080 M02/M02 Q1007 BLU;
0150102340999992009012109204+53133+009350FM-15+0061ETGQ V0209999C000012200019N0112651N1-00101-00201999999ADDGA1021+001501999GA2041+063001999GF104991999999999999999999MA1100811999999REMMET065METAR ETGQ 210920Z 00000KT 9999 FEW005 SCT210 M01/M02 Q1008 BLU/;
0149102340999992009012110204+53133+009350FM-15+0061ETGQ V0201401N001512200019N0112651N1+00101-00101999999ADDGA1041+015001999GA2041+060001999GF104991999999999999999999MA1100811999999REMMET064METAR ETGQ 211020Z 14003KT 9999 SCT050 SCT200 01/M01 Q1008 BLU/;
0125102340999992009012111204+53133+009350FM-15+0061ETGQ V0209999C000010180019N0112651N1+00201+00001999999ADDGA1071+018001999GF107991999999999999999999MA1100811999999REMMET056METAR ETGQ 211120Z 00000KT 9999 BKN060 02/M00 Q1008 BLU;
0125102340999992009012112204+53133+009350FM-15+0061ETGQ V0209999C000010180019N0112651N1+00201+00001999999ADDGA1071+018001999GF107991999999999999999999MA1100811999999REMMET056METAR ETGQ 211220Z 00000KT 9999 BKN060 02/M00 Q1008 BLU;
0124102340999992009012113204+53133+009350FM-15+0061ETGQ V0209999V000510180019N0112651N1+00301+00001999999ADDGA1071+018001999GF107991999999999999999999MA1100811999999REMMET055METAR ETGQ 211320Z VRB01KT 9999 BKN060 03/00 Q1008 BLU;
0124102340999992009012114204+53133+009350FM-15+0061ETGQ V0209999C000010180019N0112651N1+00401+00101999999ADDGA1071+018001999GF107991999999999999999999MA1100811999999REMMET055METAR ETGQ 211420Z 00000KT 9999 BKN060 04/01 Q1008 BLU;
0147102340999992009012115204+53133+009350FM-15+0061ETGQ V0202301N001010180019N0112651N1+00401+00101999999ADDGA1041+005401999GA2071+018001999GF107991999999999999999999MA1100811999999REMMET062METAR ETGQ 211520Z 23002KT 9999 SCT018 BKN060 04/01 Q1008 BLU;
0147102340999992009012116204+53133+009350FM-15+0061ETGQ V0201601N000510180019N0112651N1+00401+00001999999ADDGA1021+005401999GA2071+018001999GF107991999999999999999999MA1100911999999REMMET062METAR ETGQ 211620Z 16001KT 9999 FEW018 BKN060 04/00 Q1009 BLU;
0147102340999992009012117204+53133+009350FM-15+0061ETGQ V0209999C000010180019N0112651N1+00301+00001999999ADDGA1041+005701999GA2071+018001999GF107991999999999999999999MA1100911999999REMMET062METAR ETGQ 211720Z 00000KT 9999 SCT019 BKN060 03/00 Q1009 BLU;
0147102340999992009012118204+53133+009350FM-15+0061ETGQ V0209999V001010180019N0112651N1+00301+00001999999ADDGA1041+005701999GA2071+018001999GF107991999999999999999999MA1100911999999REMMET062METAR ETGQ 211820Z VRB02KT 9999 SCT019 BKN060 03/00 Q1009 BLU;
0147102340999992009012119204+53133+009350FM-15+0061ETGQ V0202201N000510180019N0112651N1+00301+00001999999ADDGA1041+009601999GA2071+018001999GF107991999999999999999999MA1101021999999REMMET062METAR ETGQ 211920Z 22001KT 9999 SCT032 BKN060 03/00 Q1010 BLU;
0125102340999992009012205204+53133+009350FM-15+0061ETGQ V0201401N003110120019N0112651N1+00101-00101999999ADDGA1071+012001999GF107991999999999999999999MA1100611999999REMMET056METAR ETGQ 220520Z 14006KT 9999 BKN040 01/M01 Q1006 BLU;
0125102340999992009012206204+53133+009350FM-15+0061ETGQ V0201501N002610120019N0112651N1+00101-00101999999ADDGA1071+012001999GF107991999999999999999999MA1100611999999REMMET056METAR ETGQ 220620Z 15005KT 9999 BKN040 01/M01 Q1006 BLU;
0126102340999992009012207204+53133+009350FM-15+0061ETGQ V0201401N002612200019N0112651N1+00201-00101999999ADDGA1041+012001999GF104991999999999999999999MA1100511999999REMMET057METAR ETGQ 220720Z 14005KT 9999 SCT040 02/M01 Q1005 BLU/;
0149102340999992009012208204+53133+009350FM-15+0061ETGQ V0201501N001512200019N0112651N1+00201+00001999999ADDGA1041+012001999GA2041+045001999GF104991999999999999999999MA1100411999999REMMET064METAR ETGQ 220820Z 15003KT 9999 SCT040 SCT150 02/M00 Q1004 BLU/;
0149102340999992009012209204+53133+009350FM-15+0061ETGQ V0201501N003612200019N0112651N1+00301-00101999999ADDGA1041+006601999GA2041+030001999GF104991999999999999999999MA1100411999999REMMET064METAR ETGQ 220920Z 15007KT 9999 SCT022 SCT100 03/M01 Q1004 BLU/;
0172102340999992009012210204+53133+009350FM-15+0061ETGQ V0201601N00361039001CN0112651N1+00401-00101999999ADDGA1041+007501999GA2041+039001999GA3071+060001999GF107991999999999999999999MA1100311999999REMMET071METAR ETGQ 221020Z 16007KT 9999 SCT025 SCT130 BKN200 04/M01 Q1003 BLU/;
0149102340999992009012211204+53133+009350FM-15+0061ETGQ V0201601N003110600019N0112651N1+00501-00101999999ADDGA1041+009001999GA2071+060001999GF107991999999999999999999MA1100201999999REMMET064METAR ETGQ 221120Z 16006KT 9999 SCT030 BKN200 05/M01 Q1002 BLU/;
0149102340999992009012212204+53133+009350FM-15+0061ETGQ V0201501N004110750019N0112651N1+00501-00101999999ADDGA1021+009001999GA2071+075001999GF107991999999999999999999MA1100001999999REMMET064METAR ETGQ 221220Z 15008KT 9999 FEW030 BKN250 05/M01 Q1000 BLU/;
0149102340999992009012213204+53133+009350FM-15+0061ETGQ V0201601N003112200019N0112651N1+00501-00101999999ADDGA1021+009001999GA2041+039001999GF104991999999999999999999MA1099901999999REMMET064METAR ETGQ 221320Z 16006KT 9999 FEW030 SCT130 05/M01 Q0999 BLU/;
0149102340999992009012214204+53133+009350FM-15+0061ETGQ V0201401N003112200019N0112651N1+00601-00201999999ADDGA1021+009001999GA2041+039001999GF104991999999999999999999MA1099801999999REMMET064METAR ETGQ 221420Z 14006KT 9999 FEW030 SCT130 06/M02 Q0998 BLU/;
0148102340999992009012215204+53133+009350FM-15+0061ETGQ V0201001N004110300019N0112651N1+00601-00201999999ADDGA1021+009001999GA2071+030001999GF107991999999999999999999MA1099701999999REMMET063METAR ETGQ 221520Z 10008KT 9999 FEW030 BKN100 06/M02 Q0997 BLU;
0148102340999992009012216204+53133+009350FM-15+0061ETGQ V0201601N004110105019N0112651N1+00501-00201999999ADDGA1071+010501999GA2081+030001999GF108991999999999999999999MA1099701999999REMMET063METAR ETGQ 221620Z 16008KT 9999 BKN035 OVC100 05/M02 Q0997 BLU;
0135102340999992009012217204+53133+009350FM-15+0061ETGQ V0201601N003110090019N0112651N1+00501-00201999999ADDGA1081+009001999GF108991999999999999999999MA1099591999999MW1511REMMET060METAR ETGQ 221720Z 16006KT 9999 -DZ OVC030 05/M02 Q0996 BLU;
0125102340999992009012218204+53133+009350FM-15+0061ETGQ V0201701N002110081019N0112651N1+00501-00201999999ADDGA1081+008101999GF108991999999999999999999MA1099701999999REMMET056METAR ETGQ 221820Z 17004KT 9999 OVC027 05/M02 Q0997 BLU;
0124102340999992009012219204+53133+009350FM-15+0061ETGQ V0201701N002110060019N0112651N1+00501+00001999999ADDGA1081+006001999GF108991999999999999999999MA1099701999999REMMET055METAR ETGQ 221920Z 17004KT 9999 OVC020 05/00 Q0997 WHT;
0124102340999992009012305204+53133+009350FM-15+0061ETGQ V0201601N004110120019N0112651N1+00401+00201999999ADDGA1071+012001999GF107991999999999999999999MA1098211999999REMMET055METAR ETGQ 230520Z 16008KT 9999 BKN040 04/02 Q0982 BLU;
0157102340999992009012306204+53133+009350FM-15+0061ETGQ V0201501N003110129019N0112651N1+00301+00201999999ADDGA1041+004501999GA2071+012901999GF107991999999999999999999MA1097901999999MW1611REMMET066METAR ETGQ 230620Z 15006KT 9999 -RA SCT015 BKN043 03/02 Q0979 BLU;
0157102340999992009012307204+53133+009350FM-15+0061ETGQ V0201401N004110150019N0112651N1+00401+00201999999ADDGA1041+005101999GA2081+015001999GF108991999999999999999999MA1097601999999MW1611REMMET066METAR ETGQ 230720Z 14008KT 9999 -RA SCT017 OVC050 04/02 Q0976 BLU;
0157102340999992009012308204+53133+009350FM-15+0061ETGQ V0201501N005110111019N0112651N1+00401+00201999999ADDGA1041+003601999GA2071+011101999GF107991999999999999999999MA1097391999999MW1611REMMET066METAR ETGQ 230820Z 15010KT 9999 -RA SCT012 BKN037 04/02 Q0974 BLU;
0157102340999992009012309204+53133+009350FM-15+0061ETGQ V0201601N003610105019N0112651N1+00401+00201999999ADDGA1041+003601999GA2081+010501999GF108991999999999999999999MA1097291999999MW1611REMMET066METAR ETGQ 230920Z 16007KT 9999 -RA SCT012 OVC035 04/02 Q0973 BLU;
0145102340999992009012310204+53133+009350FM-15+0061ETGQ V0201501N004110078019N0112651N1+00401+00301999999ADDGA1071+007801999GF107991999999999999999999MA1097091999999MW1611OC100981REMMET062METAR ETGQ 231020Z 15008G19KT 9999 -RA BKN026 04/03 Q0971 BLU;
0134102340999992009012311204+53133+009350FM-15+0061ETGQ V0201601N002610060019N0112651N1+00501+00301999999ADDGA1081+006001999GF108991999999999999999999MA1096881999999MW1611REMMET059METAR ETGQ 231120Z 16005KT 9999 -RA OVC020 05/03 Q0969 WHT;
0134102340999992009012312204+53133+009350FM-15+0061ETGQ V0201601N002110036019N0070001N1+00601+00401999999ADDGA1081+003601999GF108991999999999999999999MA1096721999999MW1611REMMET059METAR ETGQ 231220Z 16004KT 7000 -RA OVC012 06/04 Q0967 GRN;
0157102340999992009012313204+53133+009350FM-15+0061ETGQ V0201401N001010030019N0070001N1+00601+00501999999ADDGA1041+001801999GA2081+003001999GF108991999999999999999999MA1096611999999MW1611REMMET066METAR ETGQ 231320Z 14002KT 7000 -RA SCT006 OVC010 06/05 Q0966 GRN;
0157102340999992009012314204+53133+009350FM-15+0061ETGQ V0202501N002610060019N0070001N1+00701+00601999999ADDGA1041+003001999GA2081+006001999GF108991999999999999999999MA1096821999999MW1611REMMET066METAR ETGQ 231420Z 25005KT 7000 -RA SCT010 OVC020 07/06 Q0968 WHT;
0147102340999992009012315204+53133+009350FM-15+0061ETGQ V0202401N002610093019N0112651N1+00801+00501999999ADDGA1021+003001999GA2071+009301999GF107991999999999999999999MA1096991999999REMMET062METAR ETGQ 231520Z 24005KT 9999 FEW010 BKN031 08/05 Q0970 BLU;
0150102340999992009012316204+53133+009350FM-15+0061ETGQ V0202701N003610135019N0112651N1+00801+00401999999ADDGA1041+006001021GA2071+013501999GF107991999999999999999999MA1097291999999REMMET065METAR ETGQ 231620Z 27007KT 9999 SCT020TCU BKN045 08/04 Q0973 BLU;
0161102340999992009012317204+53133+009350FM-15+0061ETGQ V0202601N005110060019N0112651N1+00701+00201999999ADDGA1071+006001021GA2071+015001999GF107991999999999999999999MA1097601999999OC101291REMMET068METAR ETGQ 231720Z 26010G25KT 9999 BKN020TCU BKN050 07/02 Q0976 WHT;
0138102340999992009012318204+53133+009350FM-15+0061ETGQ V0202501N005110060019N0112651N1+00501+00001999999ADDGA1071+006001021GF107991999999999999999999MA1097801999999OC101031REMMET061METAR ETGQ 231820Z 25010G20KT 9999 BKN020TCU 05/00 Q0978 WHT;
0157102340999992009012319204+53133+009350FM-15+0061ETGQ V0202601N004610060019N0112651N1+00401+00101999999ADDGA1041+004501999GA2071+006001999GF107991999999999999999999MA1098002999999MW1611REMMET066METAR ETGQ 231920Z 26009KT 9999 -RA SCT015 BKN020 04/01 Q0980 WHT;
0136102340999992009012605204+53133+009350FM-15+0061ETGQ V0209999C000010003019N0002001N1-00201-00201999999ADDGA1091+000301999GF109991999999000251999999MA1100001999999MW1491REMMET061METAR ETGQ 260520Z 00000KT 0200 FZFG VV001 M02/M02 Q1000 RED;
0136102340999992009012606204+53133+009350FM-15+0061ETGQ V0209999C000010003019N0001001N1-00301-00301999999ADDGA1091+000301999GF109991999999000251999999MA1100001999999MW1491REMMET061METAR ETGQ 260620Z 00000KT 0100 FZFG VV001 M03/M03 Q1000 RED;
0136102340999992009012607204+53133+009350FM-15+0061ETGQ V0209999C000010003019N0001001N1-00301-00301999999ADDGA1091+000301999GF109991999999000251999999MA1100101999999MW1491REMMET061METAR ETGQ 260720Z 00000KT 0100 FZFG VV001 M03/M03 Q1001 RED;
0136102340999992009012608204+53133+009350FM-15+0061ETGQ V0209999C000010006019N0001001N1-00201-00201999999ADDGA1091+000601999GF109991999999000251999999MA1100101999999MW1491REMMET061METAR ETGQ 260820Z 00000KT 0100 FZFG VV002 M02/M02 Q1001 RED;
0136102340999992009012609204+53133+009350FM-15+0061ETGQ V0209999C000010006019N0001001N1-00201-00201999999ADDGA1091+000601999GF109991999999000251999999MA1100201999999MW1491REMMET061METAR ETGQ 260920Z 00000KT 0100 FZFG VV002 M02/M02 Q1002 RED;
0136102340999992009012610204+53133+009350FM-15+0061ETGQ V0209999C000010009019N0002001N1-00201-00201999999ADDGA1091+000901999GF109991999999000251999999MA1100201999999MW1491REMMET061METAR ETGQ 261020Z 00000KT 0200 FZFG VV003 M02/M02 Q1002 RED;
0137102340999992009012611204+53133+009350FM-15+0061ETGQ V0209999C000010015019N0005001N1-00201-00201999999ADDGA1081+001501999GF108991999999999999999999MA1100201999999MW1481REMMET062METAR ETGQ 261120Z 00000KT 0500 FZFG OVC005 M02/M02 Q1002 RED;
0136102340999992009012612204+53133+009350FM-15+0061ETGQ V0209999C000010009019N0003001N1-00101-00101999999ADDGA1091+000901999GF109991999999000251999999MA1100201999999MW1491REMMET061METAR ETGQ 261220Z 00000KT 0300 FZFG VV003 M01/M01 Q1002 RED;
0135102340999992009012613204+53133+009350FM-15+0061ETGQ V0209999C000010012019N0015001N1-00101-00101999999ADDGA1071+001201999GF107991999999999999999999MA1100201999999MW1101REMMET060METAR ETGQ 261320Z 00000KT 1500 BR BKN004 M01/M01 Q1002 AMB;
0150102340999992009012614204+53133+009350FM-15+0061ETGQ V0209999C000010690019N0080001N1-00101-00101999999ADDGA1021+003001999GA2071+069001999GF107991999999999999999999MA1100201999999REMMET065METAR ETGQ 261420Z 00000KT 8000 FEW010 BKN230 M01/M01 Q1002 BLU/;
0160102340999992009012615204+53133+009350FM-15+0061ETGQ V0209999C000012200019N0015001N1-00101-00101999999ADDGA1041+001501999GA2041+069001999GF104991999999999999999999MA1100311999999MW1401REMMET069METAR ETGQ 261520Z 00000KT 1500 VCFG SCT005 SCT230 M01/M01 Q1003 AMB;
0158102340999992009012616204+53133+009350FM-15+0061ETGQ V0209999C000012200019N0030001N1-00101-00101999999ADDGA1021+001501999GA2041+069001999GF104991999999999999999999MA1100311999999MW1101REMMET067METAR ETGQ 261620Z 00000KT 3000 BR FEW005 SCT230 M01/M01 Q1003 YLO;
0160102340999992009012617204+53133+009350FM-15+0061ETGQ V0209999C000012200019N0009001N1-00201-00201999999ADDGA1021+000601999GA2041+069001999GF104991999999999999999999MA1100411999999MW1481REMMET069METAR ETGQ 261720Z 00000KT 0900 FZFG FEW002 SCT230 M02/M02 Q1004 AMB;
0158102340999992009012618204+53133+009350FM-15+0061ETGQ V0209999C000012200019N0030001N1-00201-00201999999ADDGA1021+001501999GA2041+075001999GF104991999999999999999999MA1100511999999MW1101REMMET067METAR ETGQ 261820Z 00000KT 3000 BR FEW005 SCT250 M02/M02 Q1005 YLO;
0135102340999992009012619204+53133+009350FM-15+0061ETGQ V0209999C000012200019N0030001N1-00201-00201999999ADDGA1021+001501999GF102991999999999999999999MA1100511999999MW1101REMMET060METAR ETGQ 261920Z 00000KT 3000 BR FEW005 M02/M02 Q1005 YLO;
0135102340999992009012705204+53133+009350FM-15+0061ETGQ V0209999C000010012019N0035001N1-00301-00301999999ADDGA1081+001201999GF108991999999999999999999MA1101081999999MW1101REMMET060METAR ETGQ 270520Z 00000KT 3500 BR OVC004 M03/M03 Q1011 YLO;
0135102340999992009012706204+53133+009350FM-15+0061ETGQ V0209999C000010015019N0035001N1-00301-00301999999ADDGA1081+001501999GF108991999999999999999999MA1101081999999MW1101REMMET060METAR ETGQ 270620Z 00000KT 3500 BR OVC005 M03/M03 Q1011 YLO;
0135102340999992009012707204+53133+009350FM-15+0061ETGQ V0209999C000010015019N0050001N1-00201-00201999999ADDGA1081+001501999GF108991999999999999999999MA1101191999999MW1101REMMET060METAR ETGQ 270720Z 00000KT 5000 BR OVC005 M02/M02 Q1012 YLO;
0158102340999992009012709204+53133+009350FM-15+0061ETGQ V0209999C000010021019N0050001N1-00201-00201999999ADDGA1071+002101999GA2071+013501999GF107991999999999999999999MA1101291999999MW1101REMMET067METAR ETGQ 270920Z 00000KT 5000 BR BKN007 BKN045 M02/M02 Q1013 GRN;
0158102340999992009012710204+53133+009350FM-15+0061ETGQ V0209999C000010132019N0050001N1-00101-00101999999ADDGA1041+002101999GA2071+013201999GF107991999999999999999999MA1101291999999MW1101REMMET067METAR ETGQ 271020Z 00000KT 5000 BR SCT007 BKN044 M01/M01 Q1013 WHT;
0149102340999992009012711204+53133+009350FM-15+0061ETGQ V0209999C000010135019N0070001N1-00101-00101999999ADDGA1041+005701999GA2071+013501999GF107991999999999999999999MA1101391999999REMMET064METAR ETGQ 271120Z 00000KT 7000 SCT019 BKN045 M01/M01 Q1014 WHT;
0126102340999992009012712204+53133+009350FM-15+0061ETGQ V0209999C000010135019N0070001N1-00101-00101999999ADDGA1071+013501999GF107991999999999999999999MA1101391999999REMMET057METAR ETGQ 271220Z 00000KT 7000 BKN045 M01/M01 Q1014 WHT;
0135102340999992009012713204+53133+009350FM-15+0061ETGQ V0209999C000010135019N0050001N1+00001+00001999999ADDGA1071+013501999GF107991999999999999999999MA1101391999999MW1101REMMET060METAR ETGQ 271320Z 00000KT 5000 BR BKN045 M00/M00 Q1014 WHT;
0133102340999992009012714204+53133+009350FM-15+0061ETGQ V0209999C000010135019N0050001N1+00001+00001999999ADDGA1071+013501999GF107991999999999999999999MA1101391999999MW1101REMMET058METAR ETGQ 271420Z 00000KT 5000 BR BKN045 00/00 Q1014 WHT;
0133102340999992009012715204+53133+009350FM-15+0061ETGQ V0209999C000010129019N0050001N1+00101+00101999999ADDGA1071+012901999GF107991999999999999999999MA1101491999999MW1101REMMET058METAR ETGQ 271520Z 00000KT 5000 BR BKN043 01/01 Q1015 WHT;
0133102340999992009012716204+53133+009350FM-15+0061ETGQ V0209999C000010132019N0050001N1+00001+00001999999ADDGA1071+013201999GF107991999999999999999999MA1101591999999MW1101REMMET058METAR ETGQ 271620Z 00000KT 5000 BR BKN044 00/00 Q1016 WHT;
0134102340999992009012717204+53133+009350FM-15+0061ETGQ V0209999C000010123019N0050001N1+00001+00001999999ADDGA1071+012301999GF107991999999999999999999MA1101591999999MW1101REMMET059METAR ETGQ 271720Z 00000KT 5000 BR BKN041 00/M00 Q1016 WHT;
0134102340999992009012718204+53133+009350FM-15+0061ETGQ V0209999C000010111019N0050001N1+00001+00001999999ADDGA1071+011101999GF107991999999999999999999MA1101691999999MW1101REMMET059METAR ETGQ 271820Z 00000KT 5000 BR BKN037 00/M00 Q1017 WHT;
0134102340999992009012719204+53133+009350FM-15+0061ETGQ V0209999C000010111019N0050001N1+00001+00001999999ADDGA1071+011101999GF107991999999999999999999MA1101691999999MW1101REMMET059METAR ETGQ 271920Z 00000KT 5000 BR BKN037 00/M00 Q1017 WHT;
0134102340999992009012805204+53133+009350FM-15+0061ETGQ V0209999C000010129019N0050001N1+00001-00101999999ADDGA1081+012901999GF108991999999999999999999MA1101801999999MW1101REMMET059METAR ETGQ 280520Z 00000KT 5000 BR OVC043 00/M01 Q1018 WHT;
0135102340999992009012806204+53133+009350FM-15+0061ETGQ V0202401N000510129019N0050001N1+00001-00101999999ADDGA1071+012901999GF107991999999999999999999MA1101801999999MW1101REMMET060METAR ETGQ 280620Z 24001KT 5000 BR BKN043 M00/M01 Q1018 WHT;
0158102340999992009012807204+53133+009350FM-15+0061ETGQ V0209999C000010135019N0028001N1+00001-00101999999ADDGA1041+007801999GA2071+013501999GF107991999999999999999999MA1101801999999MW1101REMMET067METAR ETGQ 280720Z 00000KT 2800 BR SCT026 BKN045 M00/M01 Q1018 YLO;
0180102340999992009012808204+53133+009350FM-15+0061ETGQ V0202301N001010066019N0030001N1+00001-00101999999ADDGA1021+002101999GA2071+006601999GA3071+015001999GF107991999999999999999999MA1101901999999MW1101REMMET073METAR ETGQ 280820Z 23002KT 3000 BR FEW007 BKN022 BKN050 00/M01 Q1019 YLO;
0134102340999992009012809204+53133+009350FM-15+0061ETGQ V0202401N001010051019N0030001N1+00001-00101999999ADDGA1071+005101999GF107991999999999999999999MA1101901999999MW1101REMMET059METAR ETGQ 280920Z 24002KT 3000 BR BKN017 00/M01 Q1019 YLO;
0157102340999992009012810204+53133+009350FM-15+0061ETGQ V0202501N001010150019N0035001N1+00101-00101999999ADDGA1041+004801999GA2071+015001999GF107991999999999999999999MA1101901999999MW1101REMMET066METAR ETGQ 281020Z 25002KT 3500 BR SCT016 BKN050 01/M01 Q1019 YLO;
0157102340999992009012811204+53133+009350FM-15+0061ETGQ V0209999C000010150019N0040001N1+00201-00101999999ADDGA1041+004801999GA2071+015001999GF107991999999999999999999MA1101801999999MW1101REMMET066METAR ETGQ 281120Z 00000KT 4000 BR SCT016 BKN050 02/M01 Q1018 GRN;
0180102340999992009012812204+53133+009350FM-15+0061ETGQ V0209999C00001006001CN0050001N1+00201+00001999999ADDGA1021+003601999GA2041+006001999GA3071+015001999GF107991999999999999999999MA1101801999999MW1101REMMET073METAR ETGQ 281220Z 00000KT 5000 BR FEW012 SCT020 BKN050 02/M00 Q1018 WHT;
0125102340999992009012813204+53133+009350FM-15+0061ETGQ V0201101N002110075019N0070001N1+00401-00101999999ADDGA1071+007501999GF107991999999999999999999MA1101801999999REMMET056METAR ETGQ 281320Z 11004KT 7000 BKN025 04/M01 Q1018 WHT;
0125102340999992009012814204+53133+009350FM-15+0061ETGQ V0201101N001010075019N0112651N1+00401-00201999999ADDGA1071+007501999GF107991999999999999999999MA1101801999999REMMET056METAR ETGQ 281420Z 11002KT 9999 BKN025 04/M02 Q1018 BLU;
0125102340999992009012815204+53133+009350FM-15+0061ETGQ V0202401N001010075019N0112651N1+00401-00101999999ADDGA1071+007501999GF107991999999999999999999MA1101901999999REMMET056METAR ETGQ 281520Z 24002KT 9999 BKN025 04/M01 Q1019 BLU;
0126102340999992009012816204+53133+009350FM-15+0061ETGQ V0202201N001012200019N0112651N1+00201-00101999999ADDGA1041+009001999GF104991999999999999999999MA1101901999999REMMET057METAR ETGQ 281620Z 22002KT 9999 SCT030 02/M01 Q1019 BLU/;
0125102340999992009012817204+53133+009350FM-15+0061ETGQ V0201901N001010108019N0112651N1+00101-00101999999ADDGA1071+010801999GF107991999999999999999999MA1101901999999REMMET056METAR ETGQ 281720Z 19002KT 9999 BKN036 01/M01 Q1019 BLU;
0125102340999992009012818204+53133+009350FM-15+0061ETGQ V0209999V001010096019N0112651N1+00201-00101999999ADDGA1071+009601999GF107991999999999999999999MA1102001999999REMMET056METAR ETGQ 281820Z VRB02KT 9999 BKN032 02/M01 Q1020 BLU;
0125102340999992009012819204+53133+009350FM-15+0061ETGQ V0200801N002610096019N0112651N1+00201-00201999999ADDGA1071+009601999GF107991999999999999999999MA1102001999999REMMET056METAR ETGQ 281920Z 08005KT 9999 BKN032 02/M02 Q1020 BLU;
0125102340999992009012905204+53133+009350FM-15+0061ETGQ V0201201N001510066019N0112651N1+00101-00301999999ADDGA1071+006601999GF107991999999999999999999MA1102101999999REMMET056METAR ETGQ 290520Z 12003KT 9999 BKN022 01/M03 Q1021 WHT;
0125102340999992009012906204+53133+009350FM-15+0061ETGQ V0201301N002610063019N0112651N1+00101-00301999999ADDGA1071+006301999GF107991999999999999999999MA1102101999999REMMET056METAR ETGQ 290620Z 13005KT 9999 BKN021 01/M03 Q1021 WHT;
0125102340999992009012907204+53133+009350FM-15+0061ETGQ V0201101N002110063019N0112651N1+00101-00301999999ADDGA1071+006301999GF107991999999999999999999MA1102101999999REMMET056METAR ETGQ 290720Z 11004KT 9999 BKN021 01/M03 Q1021 WHT;
0125102340999992009012908204+53133+009350FM-15+0061ETGQ V0201201N002610069019N0112651N1+00101-00401999999ADDGA1071+006901999GF107991999999999999999999MA1102101999999REMMET056METAR ETGQ 290820Z 12005KT 9999 BKN023 01/M04 Q1021 WHT;
0125102340999992009012909204+53133+009350FM-15+0061ETGQ V0201601N002110081019N0112651N1+00201-00401999999ADDGA1071+008101999GF107991999999999999999999MA1102201999999REMMET056METAR ETGQ 290920Z 16004KT 9999 BKN027 02/M04 Q1022 BLU;
0126102340999992009012910204+53133+009350FM-15+0061ETGQ V0200901N003612200019N0112651N1+00201-00401999999ADDGA1041+008101999GF104991999999999999999999MA1102201999999REMMET057METAR ETGQ 291020Z 09007KT 9999 SCT027 02/M04 Q1022 BLU/;
0126102340999992009012911204+53133+009350FM-15+0061ETGQ V0201101N002112200019N0112651N1+00301-00401999999ADDGA1021+007501999GF102991999999999999999999MA1102201999999REMMET057METAR ETGQ 291120Z 11004KT 9999 FEW025 03/M04 Q1022 BLU/;
0077102340999992009012912204+53133+009350FM-15+0061ETGQ V0201101N002112200019N0112651N1+00401-00401999999ADDMA1102101999999REMMET050METAR ETGQ 291220Z 11004KT 9999 04/M04 Q1021 BLU/;
0077102340999992009012913204+53133+009350FM-15+0061ETGQ V0201201N003112200019N0112651N1+00401-00401999999ADDMA1102101999999REMMET050METAR ETGQ 291320Z 12006KT 9999 04/M04 Q1021 BLU/;
0077102340999992009012914204+53133+009350FM-15+0061ETGQ V0201001N002612200019N0112651N1+00401-00401999999ADDMA1102101999999REMMET050METAR ETGQ 291420Z 10005KT 9999 04/M04 Q1021 BLU/;
0077102340999992009012915204+53133+009350FM-15+0061ETGQ V0201001N002112200019N0112651N1+00401-00401999999ADDMA1102101999999REMMET050METAR ETGQ 291520Z 10004KT 9999 04/M04 Q1021 BLU/;
0077102340999992009012916204+53133+009350FM-15+0061ETGQ V0200901N002612200019N0112651N1+00301-00401999999ADDMA1102201999999REMMET050METAR ETGQ 291620Z 09005KT 9999 03/M04 Q1022 BLU/;
0077102340999992009012917204+53133+009350FM-15+0061ETGQ V0200701N002612200019N0112651N1+00201-00301999999ADDMA1102201999999REMMET050METAR ETGQ 291720Z 07005KT 9999 02/M03 Q1022 BLU/;
0077102340999992009012918204+53133+009350FM-15+0061ETGQ V0201101N002612200019N0112651N1+00101-00401999999ADDMA1102201999999REMMET050METAR ETGQ 291820Z 11005KT 9999 01/M04 Q1022 BLU/;
0077102340999992009012919204+53133+009350FM-15+0061ETGQ V0201401N001512200019N0112651N1+00001-00401999999ADDMA1102301999999REMMET050METAR ETGQ 291920Z 14003KT 9999 00/M04 Q1023 BLU/;
0078102340999992009013005204+53133+009350FM-15+0061ETGQ V0201201N001512200019N0112651N1-00201-00401999999ADDMA1102401999999REMMET051METAR ETGQ 300520Z 12003KT 9999 M02/M04 Q1024 BLU/;
0078102340999992009013006204+53133+009350FM-15+0061ETGQ V0201101N002112200019N0112651N1-00201-00401999999ADDMA1102401999999REMMET051METAR ETGQ 300620Z 11004KT 9999 M02/M04 Q1024 BLU/;
0127102340999992009013007204+53133+009350FM-15+0061ETGQ V0209999C000012200019N0080001N1-00301-00501999999ADDGA1041+003901999GF104991999999999999999999MA1102511999999REMMET058METAR ETGQ 300720Z 00000KT 8000 SCT013 M03/M05 Q1025 BLU/;
0126102340999992009013008204+53133+009350FM-15+0061ETGQ V0201201N002110042019N0112651N1-00201-00401999999ADDGA1071+004201999GF107991999999999999999999MA1102511999999REMMET057METAR ETGQ 300820Z 12004KT 9999 BKN014 M02/M04 Q1025 GRN;
0126102340999992009013009204+53133+009350FM-15+0061ETGQ V0201001N003110042019N0112651N1-00101-00401999999ADDGA1071+004201999GF107991999999999999999999MA1102511999999REMMET057METAR ETGQ 300920Z 10006KT 9999 BKN014 M01/M04 Q1025 GRN;
0126102340999992009013010204+53133+009350FM-15+0061ETGQ V0201201N002610051019N0112651N1+00001-00401999999ADDGA1071+005101999GF107991999999999999999999MA1102511999999REMMET057METAR ETGQ 301020Z 12005KT 9999 BKN017 M00/M04 Q1025 WHT;
0077102340999992009013012204+53133+009350FM-15+0061ETGQ V0200901N002612200019N0112651N1+00001-00401999999ADDMA1102401999999REMMET050METAR ETGQ 301220Z 09005KT 9999 00/M04 Q1024 BLU/;
0077102340999992009013013204+53133+009350FM-15+0061ETGQ V0201001N002112200019N0112651N1+00101-00401999999ADDMA1102301999999REMMET050METAR ETGQ 301320Z 10004KT 9999 01/M04 Q1023 BLU/;
0077102340999992009013014204+53133+009350FM-15+0061ETGQ V0200801N002612200019N0112651N1+00101-00401999999ADDMA1102201999999REMMET050METAR ETGQ 301420Z 08005KT 9999 01/M04 Q1022 BLU/;
0077102340999992009013015204+53133+009350FM-15+0061ETGQ V0201801N000512200019N0112651N1+00101-00401999999ADDMA1102201999999REMMET050METAR ETGQ 301520Z 18001KT 9999 01/M04 Q1022 BLU/;
0077102340999992009013016204+53133+009350FM-15+0061ETGQ V0209999C000012200019N0112651N1+00101-00401999999ADDMA1102201999999REMMET050METAR ETGQ 301620Z 00000KT 9999 01/M04 Q1022 BLU/;
0077102340999992009013017204+53133+009350FM-15+0061ETGQ V0201301N002112200019N0112651N1+00101-00401999999ADDMA1102201999999REMMET050METAR ETGQ 301720Z 13004KT 9999 01/M04 Q1022 BLU/;
0077102340999992009013018204+53133+009350FM-15+0061ETGQ V0201201N001012200019N0112651N1+00101-00401999999ADDMA1102201999999REMMET050METAR ETGQ 301820Z 12002KT 9999 01/M04 Q1022 BLU/;
0077102340999992009013019204+53133+009350FM-15+0061ETGQ V0201101N002112200019N0112651N1+00001-00401999999ADDMA1102201999999REMMET050METAR ETGQ 301920Z 11004KT 9999 00/M04 Q1022 BLU/;
0148102340999992009020205204+53133+009350FM-15+0061ETGQ V0201101N003110300019N0112651N1+00001-00501999999ADDGA1041+009301999GA2071+030001999GF107991999999999999999999MA1100201999999REMMET063METAR ETGQ 020520Z 11006KT 9999 SCT031 BKN100 00/M05 Q1002 BLU;
0148102340999992009020206204+53133+009350FM-15+0061ETGQ V0201501N002110270019N0112651N1+00001-00501999999ADDGA1041+010201999GA2071+027001999GF107991999999999999999999MA1100201999999REMMET063METAR ETGQ 020620Z 15004KT 9999 SCT034 BKN090 00/M05 Q1002 BLU;
0125102340999992009020207204+53133+009350FM-15+0061ETGQ V0201201N002110150019N0112651N1+00101-00501999999ADDGA1071+015001999GF107991999999999999999999MA1100201999999REMMET056METAR ETGQ 020720Z 12004KT 9999 BKN050 01/M05 Q1002 BLU;
0149102340999992009020208204+53133+009350FM-15+0061ETGQ V0201401N002110630019N0112651N1+00101-00501999999ADDGA1041+048001999GA2071+063001999GF107991999999999999999999MA1100201999999REMMET064METAR ETGQ 020820Z 14004KT 9999 SCT160 BKN210 01/M05 Q1002 BLU/;
0149102340999992009020209204+53133+009350FM-15+0061ETGQ V0201001N001510630019N0112651N1+00201-00501999999ADDGA1041+033001999GA2071+063001999GF107991999999999999999999MA1100201999999REMMET064METAR ETGQ 020920Z 10003KT 9999 SCT110 BKN210 02/M05 Q1002 BLU/;
0149102340999992009020210204+53133+009350FM-15+0061ETGQ V0201201N002610630019N0112651N1+00301-00501999999ADDGA1021+033001999GA2071+063001999GF107991999999999999999999MA1100201999999REMMET064METAR ETGQ 021020Z 12005KT 9999 FEW110 BKN210 03/M05 Q1002 BLU/;
0171102340999992009020211204+53133+009350FM-15+0061ETGQ V0201101N003110330019N0112651N1+00401-00501999999ADDGA1021+009001999GA2071+033001999GA3071+090001999GF107991999999999999999999MA1100101999999REMMET070METAR ETGQ 021120Z 11006KT 9999 FEW030 BKN110 BKN300 04/M05 Q1001 BLU;
0148102340999992009020212204+53133+009350FM-15+0061ETGQ V0200901N002110330019N0112651N1+00401-00401999999ADDGA1071+033001999GA2071+066001999GF107991999999999999999999MA1100001999999REMMET063METAR ETGQ 021220Z 09004KT 9999 BKN110 BKN220 04/M04 Q1000 BLU;
0125102340999992009020213204+53133+009350FM-15+0061ETGQ V0201001N003110330019N0112651N1+00501-00401999999ADDGA1071+033001999GF107991999999999999999999MA1099901999999REMMET056METAR ETGQ 021320Z 10006KT 9999 BKN110 05/M04 Q0999 BLU;
0148102340999992009020214204+53133+009350FM-15+0061ETGQ V0201101N003110210019N0112651N1+00501-00401999999ADDGA1071+021001999GA2071+030001999GF107991999999999999999999MA1099901999999REMMET063METAR ETGQ 021420Z 11006KT 9999 BKN070 BKN100 05/M04 Q0999 BLU;
0125102340999992009020215204+53133+009350FM-15+0061ETGQ V0201001N002610330019N0112651N1+00501-00301999999ADDGA1071+033001999GF107991999999999999999999MA1099901999999REMMET056METAR ETGQ 021520Z 10005KT 9999 BKN110 05/M03 Q0999 BLU;
0125102340999992009020216204+53133+009350FM-15+0061ETGQ V0201001N002610330019N0112651N1+00501-00301999999ADDGA1071+033001999GF107991999999999999999999MA1099801999999REMMET056METAR ETGQ 021620Z 10005KT 9999 BKN110 05/M03 Q0998 BLU;
0125102340999992009020217204+53133+009350FM-15+0061ETGQ V0209999V001010510019N0112651N1+00501-00301999999ADDGA1071+051001999GF107991999999999999999999MA1099901999999REMMET056METAR ETGQ 021720Z VRB02KT 9999 BKN170 05/M03 Q0999 BLU;
0126102340999992009020218204+53133+009350FM-15+0061ETGQ V0201401N002112200019N0112651N1+00401-00301999999ADDGA1041+036001999GF104991999999999999999999MA1099901999999REMMET057METAR ETGQ 021820Z 14004KT 9999 SCT120 04/M03 Q0999 BLU/;
0126102340999992009020219204+53133+009350FM-15+0061ETGQ V0209999V001012200019N0112651N1+00301-00201999999ADDGA1021+036001999GF102991999999999999999999MA1099801999999REMMET057METAR ETGQ 021920Z VRB02KT 9999 FEW120 03/M02 Q0998 BLU/;
0127102340999992009020305204+53133+009350FM-15+0061ETGQ V0209999C000012200019N0112651N1-00201-00301999999ADDGA1041+075001999GF104991999999999999999999MA1100001999999REMMET058METAR ETGQ 030520Z 00000KT 9999 SCT250 M02/M03 Q1000 BLU/;
0127102340999992009020306204+53133+009350FM-15+0061ETGQ V0209999C000012200019N0112651N1-00201-00301999999ADDGA1041+075001999GF104991999999999999999999MA1100001999999REMMET058METAR ETGQ 030620Z 00000KT 9999 SCT250 M02/M03 Q1000 BLU/;
0127102340999992009020307204+53133+009350FM-15+0061ETGQ V0209999C000010750019N0080001N1-00301-00301999999ADDGA1071+075001999GF107991999999999999999999MA1100001999999REMMET058METAR ETGQ 030720Z 00000KT 8000 BKN250 M03/M03 Q1000 BLU/;
0150102340999992009020308204+53133+009350FM-15+0061ETGQ V0209999C000012200019N0080001N1-00201-00301999999ADDGA1041+033001999GA2041+075001999GF104991999999999999999999MA1100001999999REMMET065METAR ETGQ 030820Z 00000KT 8000 SCT110 SCT250 M02/M03 Q1000 BLU/;
0149102340999992009020309204+53133+009350FM-15+0061ETGQ V0209999C000012200019N0080001N1+00001-00201999999ADDGA1041+033001999GA2041+075001999GF104991999999999999999999MA1100001999999REMMET064METAR ETGQ 030920Z 00000KT 8000 SCT110 SCT250 00/M02 Q1000 BLU/;
0149102340999992009020310204+53133+009350FM-15+0061ETGQ V0209999C000012200019N0112651N1+00201-00101999999ADDGA1041+030001999GA2041+075001999GF104991999999999999999999MA1100001999999REMMET064METAR ETGQ 031020Z 00000KT 9999 SCT100 SCT250 02/M01 Q1000 BLU/;
0149102340999992009020311204+53133+009350FM-15+0061ETGQ V0209999C000012200019N0112651N1+00301-00101999999ADDGA1021+027001999GA2041+075001999GF104991999999999999999999MA1100001999999REMMET064METAR ETGQ 031120Z 00000KT 9999 FEW090 SCT250 03/M01 Q1000 BLU/;
0126102340999992009020312204+53133+009350FM-15+0061ETGQ V0209999C000012200019N0112651N1+00501-00101999999ADDGA1041+075001999GF104991999999999999999999MA1100001999999REMMET057METAR ETGQ 031220Z 00000KT 9999 SCT250 05/M01 Q1000 BLU/;
0126102340999992009020313204+53133+009350FM-15+0061ETGQ V0202801N000510900019N0112651N1+00601-00101999999ADDGA1071+090001999GF107991999999999999999999MA1099901999999REMMET057METAR ETGQ 031320Z 28001KT 9999 BKN300 06/M01 Q0999 BLU/;
0126102340999992009020314204+53133+009350FM-15+0061ETGQ V0209999C000010900019N0112651N1+00601+00001999999ADDGA1071+090001999GF107991999999999999999999MA1099901999999REMMET057METAR ETGQ 031420Z 00000KT 9999 BKN300 06/M00 Q0999 BLU/;
0126102340999992009020315204+53133+009350FM-15+0061ETGQ V0209999C000010900019N0112651N1+00601+00001999999ADDGA1071+090001999GF107991999999999999999999MA1099901999999REMMET057METAR ETGQ 031520Z 00000KT 9999 BKN300 06/M00 Q0999 BLU/;
0126102340999992009020316204+53133+009350FM-15+0061ETGQ V0209999C000010900019N0112651N1+00401-00101999999ADDGA1071+090001999GF107991999999999999999999MA1099901999999REMMET057METAR ETGQ 031620Z 00000KT 9999 BKN300 04/M01 Q0999 BLU/;
0126102340999992009020317204+53133+009350FM-15+0061ETGQ V0209999C000012200019N0112651N1+00301-00101999999ADDGA1041+090001999GF104991999999999999999999MA1099901999999REMMET057METAR ETGQ 031720Z 00000KT 9999 SCT300 03/M01 Q0999 BLU/;
0125102340999992009020318204+53133+009350FM-15+0061ETGQ V0209999C000010150019N0112651N1+00201-00101999999ADDGA1071+015001999GF107991999999999999999999MA1100001999999REMMET056METAR ETGQ 031820Z 00000KT 9999 BKN050 02/M01 Q1000 BLU;
0125102340999992009020319204+53133+009350FM-15+0061ETGQ V0209999C000010390019N0112651N1+00101-00101999999ADDGA1071+039001999GF107991999999999999999999MA1100001999999REMMET056METAR ETGQ 031920Z 00000KT 9999 BKN130 01/M01 Q1000 BLU;
0134102340999992009020405204+53133+009350FM-15+0061ETGQ V0209999C000010015019N0050001N1+00101+00001999999ADDGA1081+001501999GF108991999999999999999999MA1099801999999MW1101REMMET059METAR ETGQ 040520Z 00000KT 5000 BR OVC005 01/M00 Q0998 YLO;
0133102340999992009020406204+53133+009350FM-15+0061ETGQ V0209999C000010012019N0050001N1+00101+00001999999ADDGA1081+001201999GF108991999999999999999999MA1099801999999MW1101REMMET058METAR ETGQ 040620Z 00000KT 5000 BR OVC004 01/00 Q0998 YLO;
0133102340999992009020407204+53133+009350FM-15+0061ETGQ V0209999C000010015019N0050001N1+00101+00001999999ADDGA1081+001501999GF108991999999999999999999MA1099901999999MW1101REMMET058METAR ETGQ 040720Z 00000KT 5000 BR OVC005 01/00 Q0999 YLO;
0133102340999992009020408204+53133+009350FM-15+0061ETGQ V0209999C000010012019N0050001N1+00101+00001999999ADDGA1081+001201999GF108991999999999999999999MA1099801999999MW1101REMMET058METAR ETGQ 040820Z 00000KT 5000 BR OVC004 01/00 Q0998 YLO;
0133102340999992009020409204+53133+009350FM-15+0061ETGQ V0209999C000010018019N0050001N1+00201+00101999999ADDGA1081+001801999GF108991999999999999999999MA1099801999999MW1101REMMET058METAR ETGQ 040920Z 00000KT 5000 BR OVC006 02/01 Q0998 YLO;
0147102340999992009020410204+53133+009350FM-15+0061ETGQ V0209999C000010036019N0070001N1+00201+00101999999ADDGA1041+001801999GA2081+003601999GF108991999999999999999999MA1099801999999REMMET062METAR ETGQ 041020Z 00000KT 7000 SCT006 OVC012 02/01 Q0998 GRN;
0143102340999992009020411204+53133+009350FM-15+0061ETGQ V0209999C000010024019N0030001N1+00301+00101999999ADDGA1071+002401999GF107991999999999999999999MA1099801999999MW1101MW2511REMMET062METAR ETGQ 041120Z 00000KT 3000 -DZ BR BKN008 03/01 Q0998 YLO;
0147102340999992009020412204+53133+009350FM-15+0061ETGQ V0209999C000010210019N0080001N1+00401+00101999999ADDGA1041+004801999GA2071+021001999GF107991999999999999999999MA1099701999999REMMET062METAR ETGQ 041220Z 00000KT 8000 SCT016 BKN070 04/01 Q0997 BLU;
0124102340999992009020413204+53133+009350FM-15+0061ETGQ V0209999C000010141019N0080001N1+00501+00201999999ADDGA1071+014101999GF107991999999999999999999MA1099591999999REMMET055METAR ETGQ 041320Z 00000KT 8000 BKN047 05/02 Q0996 BLU;
0124102340999992009020414204+53133+009350FM-15+0061ETGQ V0209999C000010075019N0080001N1+00501+00201999999ADDGA1071+007501999GF107991999999999999999999MA1099591999999REMMET055METAR ETGQ 041420Z 00000KT 8000 BKN025 05/02 Q0996 BLU;
0124102340999992009020415204+53133+009350FM-15+0061ETGQ V0209999C000010069019N0080001N1+00601+00201999999ADDGA1071+006901999GF107991999999999999999999MA1099591999999REMMET055METAR ETGQ 041520Z 00000KT 8000 BKN023 06/02 Q0996 WHT;
0124102340999992009020416204+53133+009350FM-15+0061ETGQ V0202301N001510063019N0060001N1+00501+00201999999ADDGA1071+006301999GF107991999999999999999999MA1099701999999REMMET055METAR ETGQ 041620Z 23003KT 6000 BKN021 05/02 Q0997 WHT;
0124102340999992009020417204+53133+009350FM-15+0061ETGQ V0202401N002110090019N0060001N1+00501+00201999999ADDGA1071+009001999GF107991999999999999999999MA1099701999999REMMET055METAR ETGQ 041720Z 24004KT 6000 BKN030 05/02 Q0997 WHT;
0124102340999992009020418204+53133+009350FM-15+0061ETGQ V0209999C000010300019N0060001N1+00401+00101999999ADDGA1071+030001999GF107991999999999999999999MA1099701999999REMMET055METAR ETGQ 041820Z 00000KT 6000 BKN100 04/01 Q0997 WHT;
0124102340999992009020419204+53133+009350FM-15+0061ETGQ V0209999C000010300019N0060001N1+00301+00101999999ADDGA1071+030001999GF107991999999999999999999MA1099801999999REMMET055METAR ETGQ 041920Z 00000KT 6000 BKN100 03/01 Q0998 WHT;
0148102340999992009020505204+53133+009350FM-15+0061ETGQ V0209999C000010540019N0080001N1+00001-00101999999ADDGA1041+014401999GA2071+054001999GF107991999999999999999999MA1099591999999REMMET063METAR ETGQ 050520Z 00000KT 8000 SCT048 BKN180 00/M01 Q0996 BLU;
0147102340999992009020506204+53133+009350FM-15+0061ETGQ V0201701N002110540019N0080001N1+00201+00101999999ADDGA1041+015001999GA2071+054001999GF107991999999999999999999MA1099491999999REMMET062METAR ETGQ 050620Z 17004KT 8000 SCT050 BKN180 02/01 Q0995 BLU;
0124102340999992009020507204+53133+009350FM-15+0061ETGQ V0201501N002110150019N0080001N1+00301+00101999999ADDGA1071+015001999GF107991999999999999999999MA1099491999999REMMET055METAR ETGQ 050720Z 15004KT 8000 BKN050 03/01 Q0995 BLU;
0124102340999992009020508204+53133+009350FM-15+0061ETGQ V0201801N002610150019N0080001N1+00301+00101999999ADDGA1071+015001999GF107991999999999999999999MA1099591999999REMMET055METAR ETGQ 050820Z 18005KT 8000 BKN050 03/01 Q0996 BLU;
0147102340999992009020510204+53133+009350FM-15+0061ETGQ V0201501N002610180019N0090001N1+00501+00101999999ADDGA1071+018001999GA2071+039001999GF107991999999999999999999MA1099591999999REMMET062METAR ETGQ 051020Z 15005KT 9000 BKN060 BKN130 05/01 Q0996 BLU;
0147102340999992009020511204+53133+009350FM-15+0061ETGQ V0201401N002610360019N0090001N1+00601+00101999999ADDGA1041+015001999GA2071+036001999GF107991999999999999999999MA1099591999999REMMET062METAR ETGQ 051120Z 14005KT 9000 SCT050 BKN120 06/01 Q0996 BLU;
0148102340999992009020512204+53133+009350FM-15+0061ETGQ V0201601N003112200019N0112651N1+00701+00201999999ADDGA1041+015001999GA2041+105001999GF104991999999999999999999MA1099591999999REMMET063METAR ETGQ 051220Z 16006KT 9999 SCT050 SCT350 07/02 Q0996 BLU/;
0147102340999992009020513204+53133+009350FM-15+0061ETGQ V0201501N003110075019N0112651N1+00901+00301999999ADDGA1021+006001999GA2071+007501999GF107991999999999999999999MA1099491999999REMMET062METAR ETGQ 051320Z 15006KT 9999 FEW020 BKN025 09/03 Q0995 BLU;
0147102340999992009020514204+53133+009350FM-15+0061ETGQ V0201601N002610180019N0112651N1+00901+00301999999ADDGA1021+010501999GA2071+018001999GF107991999999999999999999MA1099491999999REMMET062METAR ETGQ 051420Z 16005KT 9999 FEW035 BKN060 09/03 Q0995 BLU;
0148102340999992009020515204+53133+009350FM-15+0061ETGQ V0201501N003110660019N0112651N1+00901+00301999999ADDGA1041+012001999GA2071+066001999GF107991999999999999999999MA1099491999999REMMET063METAR ETGQ 051520Z 15006KT 9999 SCT040 BKN220 09/03 Q0995 BLU/;
0124102340999992009020516204+53133+009350FM-15+0061ETGQ V0201601N002110150019N0112651N1+00801+00301999999ADDGA1071+015001999GF107991999999999999999999MA1099491999999REMMET055METAR ETGQ 051620Z 16004KT 9999 BKN050 08/03 Q0995 BLU;
0125102340999992009020517204+53133+009350FM-15+0061ETGQ V0201501N002112200019N0112651N1+00601+00301999999ADDGA1041+015001999GF104991999999999999999999MA1099491999999REMMET056METAR ETGQ 051720Z 15004KT 9999 SCT050 06/03 Q0995 BLU/;
0125102340999992009020518204+53133+009350FM-15+0061ETGQ V0200501N002112200019N0112651N1+00601+00301999999ADDGA1021+036001999GF102991999999999999999999MA1099491999999REMMET056METAR ETGQ 051820Z 05004KT 9999 FEW120 06/03 Q0995 BLU/;
0148102340999992009020519204+53133+009350FM-15+0061ETGQ V0201601N001512200019N0112651N1+00501+00201999999ADDGA1021+015001999GA2041+036001999GF104991999999999999999999MA1099491999999REMMET063METAR ETGQ 051920Z 16003KT 9999 FEW050 SCT120 05/02 Q0995 BLU/;
0124102340999992009020605204+53133+009350FM-15+0061ETGQ V0209999V001010099019N0080001N1+00301+00201999999ADDGA1071+009901999GF107991999999999999999999MA1099491999999REMMET055METAR ETGQ 060520Z VRB02KT 8000 BKN033 03/02 Q0995 BLU;
0147102340999992009020606204+53133+009350FM-15+0061ETGQ V0209999C000010390019N0090001N1+00301+00101999999ADDGA1041+010501999GA2071+039001999GF107991999999999999999999MA1099391999999REMMET062METAR ETGQ 060620Z 00000KT 9000 SCT035 BKN130 03/01 Q0994 BLU;
0124102340999992009020607204+53133+009350FM-15+0061ETGQ V0209999C000010123019N0112651N1+00101+00001999999ADDGA1071+012301999GF107991999999999999999999MA1099391999999REMMET055METAR ETGQ 060720Z 00000KT 9999 BKN041 01/00 Q0994 BLU;
0148102340999992009020608204+53133+009350FM-15+0061ETGQ V0209999C000010750019N0112651N1+00101+00001999999ADDGA1021+024001999GA2071+075001999GF107991999999999999999999MA1099391999999REMMET063METAR ETGQ 060820Z 00000KT 9999 FEW080 BKN250 01/00 Q0994 BLU/;
0148102340999992009020609204+53133+009350FM-15+0061ETGQ V0209999C000010750019N0112651N1+00301+00201999999ADDGA1021+024001999GA2071+075001999GF107991999999999999999999MA1099491999999REMMET063METAR ETGQ 060920Z 00000KT 9999 FEW080 BKN250 03/02 Q0995 BLU/;
0148102340999992009020610204+53133+009350FM-15+0061ETGQ V0209999C000010600019N0112651N1+00501+00201999999ADDGA1021+024001999GA2071+060001999GF107991999999999999999999MA1099391999999REMMET063METAR ETGQ 061020Z 00000KT 9999 FEW080 BKN200 05/02 Q0994 BLU/;
0147102340999992009020611204+53133+009350FM-15+0061ETGQ V0209999C000010450019N0112651N1+00601+00301999999ADDGA1041+004501999GA2071+045001999GF107991999999999999999999MA1099291999999REMMET062METAR ETGQ 061120Z 00000KT 9999 SCT015 BKN150 06/03 Q0993 BLU;
0147102340999992009020612204+53133+009350FM-15+0061ETGQ V0209999V000510420019N0112651N1+00701+00401999999ADDGA1021+006001999GA2071+042001999GF107991999999999999999999MA1099291999999REMMET062METAR ETGQ 061220Z VRB01KT 9999 FEW020 BKN140 07/04 Q0993 BLU;
0147102340999992009020613204+53133+009350FM-15+0061ETGQ V0209999V001010390019N0112651N1+00801+00401999999ADDGA1021+005401999GA2071+039001999GF107991999999999999999999MA1099191999999REMMET062METAR ETGQ 061320Z VRB02KT 9999 FEW018 BKN130 08/04 Q0992 BLU;
0147102340999992009020614204+53133+009350FM-15+0061ETGQ V0201501N002610330019N0112651N1+00801+00401999999ADDGA1021+006001999GA2071+033001999GF107991999999999999999999MA1099191999999REMMET062METAR ETGQ 061420Z 15005KT 9999 FEW020 BKN110 08/04 Q0992 BLU;
0147102340999992009020615204+53133+009350FM-15+0061ETGQ V0201501N002110330019N0112651N1+00801+00401999999ADDGA1021+007501999GA2071+033001999GF107991999999999999999999MA1099191999999REMMET062METAR ETGQ 061520Z 15004KT 9999 FEW025 BKN110 08/04 Q0992 BLU;
0124102340999992009020616204+53133+009350FM-15+0061ETGQ V0201501N001010084019N0112651N1+00701+00401999999ADDGA1071+008401999GF107991999999999999999999MA1099091999999REMMET055METAR ETGQ 061620Z 15002KT 9999 BKN028 07/04 Q0991 BLU;
0124102340999992009020617204+53133+009350FM-15+0061ETGQ V0201501N001510093019N0112651N1+00701+00301999999ADDGA1071+009301999GF107991999999999999999999MA1099091999999REMMET055METAR ETGQ 061720Z 15003KT 9999 BKN031 07/03 Q0991 BLU;
0124102340999992009020618204+53133+009350FM-15+0061ETGQ V0201501N001510210019N0112651N1+00601+00301999999ADDGA1071+021001999GF107991999999999999999999MA1099091999999REMMET055METAR ETGQ 061820Z 15003KT 9999 BKN070 06/03 Q0991 BLU;
0124102340999992009020619204+53133+009350FM-15+0061ETGQ V0209999C000010099019N0112651N1+00601+00301999999ADDGA1071+009901999GF107991999999999999999999MA1099091999999REMMET055METAR ETGQ 061920Z 00000KT 9999 BKN033 06/03 Q0991 BLU;
0125102340999992009020905204+53133+009350FM-15+0061ETGQ V0201801N001010075019N0080001N1+00201-00301999999ADDGA1071+007501999GF107991999999999999999999MA1100711999999REMMET056METAR ETGQ 090520Z 18002KT 8000 BKN025 02/M03 Q1007 BLU;
0125102340999992009020906204+53133+009350FM-15+0061ETGQ V0201701N000510069019N0080001N1+00201-00201999999ADDGA1071+006901999GF107991999999999999999999MA1100711999999REMMET056METAR ETGQ 090620Z 17001KT 8000 BKN023 02/M02 Q1007 WHT;
0125102340999992009020907204+53133+009350FM-15+0061ETGQ V0201801N002110069019N0080001N1+00201-00201999999ADDGA1071+006901999GF107991999999999999999999MA1100711999999REMMET056METAR ETGQ 090720Z 18004KT 8000 BKN023 02/M02 Q1007 WHT;
0158102340999992009020908204+53133+009350FM-15+0061ETGQ V0201401N001510063019N0112651N1+00101-00101999999ADDGA1041+003001999GA2081+006301999GF108991999999999999999999MA1100711999999MW1711REMMET067METAR ETGQ 090820Z 14003KT 9999 -SN SCT010 OVC021 01/M01 Q1007 WHT;
0125102340999992009020909204+53133+009350FM-15+0061ETGQ V0209999V000510060019N0112651N1+00201-00101999999ADDGA1081+006001999GF108991999999999999999999MA1100711999999REMMET056METAR ETGQ 090920Z VRB01KT 9999 OVC020 02/M01 Q1007 WHT;
0125102340999992009020910204+53133+009350FM-15+0061ETGQ V0209999V001010063019N0112651N1+00301-00101999999ADDGA1081+006301999GF108991999999999999999999MA1100811999999REMMET056METAR ETGQ 091020Z VRB02KT 9999 OVC021 03/M01 Q1008 WHT;
0125102340999992009020911204+53133+009350FM-15+0061ETGQ V0202101N003110054019N0112651N1+00301-00101999999ADDGA1071+005401999GF107991999999999999999999MA1100711999999REMMET056METAR ETGQ 091120Z 21006KT 9999 BKN018 03/M01 Q1007 WHT;
0148102340999992009020912204+53133+009350FM-15+0061ETGQ V0202401N003110120019N0112651N1+00401+00001999999ADDGA1041+005401999GA2071+012001999GF107991999999999999999999MA1100711999999REMMET063METAR ETGQ 091220Z 24006KT 9999 SCT018 BKN040 04/M00 Q1007 BLU;
0148102340999992009020913204+53133+009350FM-15+0061ETGQ V0202301N002110084019N0112651N1+00401+00001999999ADDGA1021+005101999GA2071+008401999GF107991999999999999999999MA1100611999999REMMET063METAR ETGQ 091320Z 23004KT 9999 FEW017 BKN028 04/M00 Q1006 BLU;
0125102340999992009020914204+53133+009350FM-15+0061ETGQ V0209999V001010057019N0112651N1+00401+00001999999ADDGA1071+005701999GF107991999999999999999999MA1100611999999REMMET056METAR ETGQ 091420Z VRB02KT 9999 BKN019 04/M00 Q1006 WHT;
0125102340999992009020915204+53133+009350FM-15+0061ETGQ V0201601N002610051019N0112651N1+00301+00001999999ADDGA1071+005101999GF107991999999999999999999MA1100511999999REMMET056METAR ETGQ 091520Z 16005KT 9999 BKN017 03/M00 Q1005 WHT;
0125102340999992009020916204+53133+009350FM-15+0061ETGQ V0201401N003110051019N0112651N1+00301+00001999999ADDGA1071+005101999GF107991999999999999999999MA1100411999999REMMET056METAR ETGQ 091620Z 14006KT 9999 BKN017 03/M00 Q1004 WHT;
0124102340999992009020917204+53133+009350FM-15+0061ETGQ V0201601N003110069019N0112651N1+00301+00001999999ADDGA1081+006901999GF108991999999999999999999MA1100311999999REMMET055METAR ETGQ 091720Z 16006KT 9999 OVC023 03/00 Q1003 WHT;
0157102340999992009020918204+53133+009350FM-15+0061ETGQ V0201401N003610135019N0080001N1+00201+00101999999ADDGA1041+006001999GA2071+013501999GF107991999999999999999999MA1100201999999MW1611REMMET066METAR ETGQ 091820Z 14007KT 8000 -RA SCT020 BKN045 02/01 Q1002 BLU;
0147102340999992009020919204+53133+009350FM-15+0061ETGQ V0201401N003110078019N0112651N1+00201+00101999999ADDGA1041+003901999GA2071+007801999GF107991999999999999999999MA1100001999999REMMET062METAR ETGQ 091920Z 14006KT 9999 SCT013 BKN026 02/01 Q1000 BLU;
0124102340999992009021005204+53133+009350FM-15+0061ETGQ V0201601N003610129019N0080001N1+00801+00501999999ADDGA1071+012901999GF107991999999999999999999MA1098411999999REMMET055METAR ETGQ 100520Z 16007KT 8000 BKN043 08/05 Q0984 BLU;
0124102340999992009021006204+53133+009350FM-15+0061ETGQ V0201501N002610105019N0112651N1+00801+00501999999ADDGA1071+010501999GF107991999999999999999999MA1098211999999REMMET055METAR ETGQ 100620Z 15005KT 9999 BKN035 08/05 Q0982 BLU;
0157102340999992009021007204+53133+009350FM-15+0061ETGQ V0201501N001510090019N0112651N1+00801+00501999999ADDGA1041+007501999GA2081+009001999GF108991999999999999999999MA1098211999999MW1611REMMET066METAR ETGQ 100720Z 15003KT 9999 -RA SCT025 OVC030 08/05 Q0982 BLU;
0168102340999992009021008204+53133+009350FM-15+0061ETGQ V0202101N003610099019N0112651N1+00801+00501999999ADDGA1041+008401999GA2081+009901999GF108991999999999999999999MA1098211999999MW1611OC100931REMMET069METAR ETGQ 100820Z 21007G18KT 9999 -RA SCT028 OVC033 08/05 Q0982 BLU;
0157102340999992009021009204+53133+009350FM-15+0061ETGQ V0202001N002610072019N0112651N1+00801+00501999999ADDGA1041+006001999GA2081+007201999GF108991999999999999999999MA1098211999999MW1611REMMET066METAR ETGQ 100920Z 20005KT 9999 -RA SCT020 OVC024 08/05 Q0982 WHT;
0168102340999992009021010204+53133+009350FM-15+0061ETGQ V0202301N006710066019N0112651N1+00601+00301999999ADDGA1071+006601999GA2071+010501999GF107991999999999999999999MA1098411999999MW1611OC101441REMMET069METAR ETGQ 101020Z 23013G28KT 9999 -RA BKN022 BKN035 06/03 Q0984 WHT;
0158102340999992009021011204+53133+009350FM-15+0061ETGQ V0202401N005710066019N0112651N1+00601+00101999999ADDGA1071+006601999GA2071+012001999GF107991999999999999999999MA1098611999999OC101491REMMET065METAR ETGQ 101120Z 24011G29KT 9999 BKN022 BKN040 06/01 Q0986 WHT;
0168102340999992009021012204+53133+009350FM-15+0061ETGQ V0202501N004110060019N0112651N1+00401+00101999999ADDGA1071+006001999GA2071+012001999GF107991999999999999999999MA1098711999999MW1611OC100931REMMET069METAR ETGQ 101220Z 25008G18KT 9999 -RA BKN020 BKN040 04/01 Q0987 WHT;
0157102340999992009021013204+53133+009350FM-15+0061ETGQ V0202601N003610099019N0080001N1+00401+00101999999ADDGA1041+006001999GA2081+009901999GF108991999999999999999999MA1098821999999MW1611REMMET066METAR ETGQ 101320Z 26007KT 8000 -RA SCT020 OVC033 04/01 Q0988 BLU;
0143102340999992009021014204+53133+009350FM-15+0061ETGQ V0202701N004610036019N0050001N1+00401+00001999999ADDGA1081+003601999GF108991999999999999999999MA1098981999999MW1051MW2611REMMET062METAR ETGQ 101420Z 27009KT 5000 -RA HZ OVC012 04/00 Q0990 GRN;
0167102340999992009021015204+53133+009350FM-15+0061ETGQ V0203001N004610063019N0050001N1+00301+00001999999ADDGA1041+003301999GA2081+006301999GF108991999999999999999999MA1099291999999MW1101MW2611REMMET070METAR ETGQ 101520Z 30009KT 5000 -RA BR SCT011 OVC021 03/M00 Q0993 WHT;
0154102340999992009021016204+53133+009350FM-15+0061ETGQ V0203001N006210048019N0030001N1+00201+00001999999ADDGA1081+004801999GF108991999999999999999999MA1099591999999MW1101MW2611OC101441REMMET065METAR ETGQ 101620Z 30012G28KT 3000 -RA BR OVC016 02/00 Q0996 YLO;
0153102340999992009021017204+53133+009350FM-15+0061ETGQ V0203001N006710048019N0050001N1+00301+00001999999ADDGA1081+004801999GF108991999999999999999999MA1099801999999MW1101MW2631OC101181REMMET064METAR ETGQ 101720Z 30013G23KT 5000 RA BR OVC016 03/00 Q0998 WHT;
0145102340999992009021018204+53133+009350FM-15+0061ETGQ V0203101N006710060019N0080001N1+00301+00001999999ADDGA1081+006001999GF108991999999999999999999MA1100001999999MW1611OC101391REMMET062METAR ETGQ 101820Z 31013G27KT 8000 -RA OVC020 03/00 Q1000 WHT;
0124102340999992009021019204+53133+009350FM-15+0061ETGQ V0203001N005710066019N0112651N1+00301+00001999999ADDGA1071+006601999GF107991999999999999999999MA1100101999999REMMET055METAR ETGQ 101920Z 30011KT 9999 BKN022 03/00 Q1001 WHT;
0162102340999992009021105204+53133+009350FM-15+0061ETGQ V0203101N005110054019N0080001N1+00201-00101999999ADDGA1071+005401999GA2071+007501999GF107991999999999999999999MA1101081999999MW1801REMMET071METAR ETGQ 110520Z 31010KT 8000 -SHSNRA BKN018 BKN025 02/M01 Q1011 WHT;
0148102340999992009021106204+53133+009350FM-15+0061ETGQ V0203101N003610069019N0112651N1+00201-00101999999ADDGA1041+005401999GA2071+006901999GF107991999999999999999999MA1101191999999REMMET063METAR ETGQ 110620Z 31007KT 9999 SCT018 BKN023 02/M01 Q1012 WHT;
0125102340999992009021107204+53133+009350FM-15+0061ETGQ V0203201N004110066019N0112651N1+00201-00101999999ADDGA1071+006601999GF107991999999999999999999MA1101291999999REMMET056METAR ETGQ 110720Z 32008KT 9999 BKN022 02/M01 Q1013 WHT;
0126102340999992009021108204+53133+009350FM-15+0061ETGQ V0203201N002112200019N0112651N1+00201-00101999999ADDGA1041+006601999GF104991999999999999999999MA1101291999999REMMET057METAR ETGQ 110820Z 32004KT 9999 SCT022 02/M01 Q1013 BLU/;
0125102340999992009021109204+53133+009350FM-15+0061ETGQ V0203201N004110069019N0112651N1+00301-00101999999ADDGA1071+006901999GF107991999999999999999999MA1101391999999REMMET056METAR ETGQ 110920Z 32008KT 9999 BKN023 03/M01 Q1014 WHT;
0125102340999992009021110204+53133+009350FM-15+0061ETGQ V0203301N004110084019N0112651N1+00401-00201999999ADDGA1071+008401999GF107991999999999999999999MA1101391999999REMMET056METAR ETGQ 111020Z 33008KT 9999 BKN028 04/M02 Q1014 BLU;
0125102340999992009021111204+53133+009350FM-15+0061ETGQ V0203201N003610090019N0112651N1+00501-00201999999ADDGA1071+009001999GF107991999999999999999999MA1101391999999REMMET056METAR ETGQ 111120Z 32007KT 9999 BKN030 05/M02 Q1014 BLU;
