0137103150999992013010100204+52133+007700FM-15+0053EDDG V0201901N00621008401CN0112651N1+00801+00701999999ADDGF107991999999999999999999MA1100201999999MW1611REMMET078METAR EDDG 010020Z 19012KT 9999 -RA FEW014 SCT028 BKN040 08/07 Q1002 TEMPO RA;
0133103150999992013010100504+52133+007700FM-15+0053EDDG V0201901N00571003601CN0112651N1+00801+00701999999ADDGF107991999999999999999999MA1100101999999MW1631REMMET074METAR EDDG 010050Z 19011KT 9999 RA FEW009 SCT012 BKN025 08/07 Q1001 NOSIG;
0142103150999992013010101204+52133+007700FM-15+0053EDDG V0201901N00571004501CN0080001N1+00801+00701999999ADDGF107991999999999999999999MA1100101999999MW1611REMMET083METAR EDDG 010120Z 19011KT 8000 -RA FEW008 SCT015 BKN025 08/07 Q1001 RERA TEMPO RA;
0142103150999992013010101504+52133+007700FM-15+0053EDDG V0202001N00571006001CN0080001N1+00801+00701999999ADDGF107991999999999999999999MA1100101999999MW1611REMMET083METAR EDDG 010150Z 20011KT 8000 -RA FEW010 SCT020 BKN035 08/07 Q1001 RERA TEMPO RA;
0137103150999992013010102204+52133+007700FM-15+0053EDDG V0202001N00571007501CN0080001N1+00801+00701999999ADDGF107991999999999999999999MA1100101999999MW1611REMMET078METAR EDDG 010220Z 20011KT 8000 -RA FEW010 SCT025 BKN035 08/07 Q1001 TEMPO RA;
0137103150999992013010102504+52133+007700FM-15+0053EDDG V0202001N00571007501CN0112651N1+00801+00701999999ADDGF107991999999999999999999MA1100101999999MW1611REMMET078METAR EDDG 010250Z 20011KT 9999 -RA FEW010 SCT025 BKN035 08/07 Q1001 TEMPO RA;
0133103150999992013010103204+52133+007700FM-15+0053EDDG V0202001N00511004501CN0112651N1+00801+00701999999ADDGF107991999999999999999999MA1100001999999MW1631REMMET074METAR EDDG 010320Z 20010KT 9999 RA FEW010 SCT015 BKN020 08/07 Q1000 NOSIG;
0142103150999992013010103504+52133+007700FM-15+0053EDDG V0202001N00571004801CN0112651N1+00801+00701999999ADDGF107991999999999999999999MA1100001999999MW1611REMMET083METAR EDDG 010350Z 20011KT 9999 -RA FEW010 SCT016 BKN025 08/07 Q1000 RERA TEMPO RA;
0133103150999992013010104204+52133+007700FM-15+0053EDDG V0202001N00461004801CN0112651N1+00801+00701999999ADDGF107991999999999999999999MA1100001999999MW1631REMMET074METAR EDDG 010420Z 20009KT 9999 RA FEW008 SCT016 BKN025 08/07 Q1000 NOSIG;
0140103150999992013010104504+52133+007700FM-15+0053EDDG V0202001N005710036019N0112651N1+00801+00601999999ADDGF107991999999999999999999MA1100001999999MW1631REMMET081METAR EDDG 010450Z 20011KT 9999 RA FEW008 BKN012 BKN025 08/06 Q1000 TEMPO BKN008;
0133103150999992013010105204+52133+007700FM-15+0053EDDG V0202101N005710033019N0112651N1+00801+00701999999ADDGF107991999999999999999999MA1100001999999MW1631REMMET074METAR EDDG 010520Z 21011KT 9999 RA SCT007 BKN011 08/07 Q1000 TEMPO BKN008;
0133103150999992013010105504+52133+007700FM-15+0053EDDG V0202001N004610033019N0112651N1+00801+00701999999ADDGF107991999999999999999999MA1100001999999MW1631REMMET074METAR EDDG 010550Z 20009KT 9999 RA SCT007 BKN011 08/07 Q1000 TEMPO BKN008;
0133103150999992013010106204+52133+007700FM-15+0053EDDG V0202101N004610033019N0112651N1+00801+00701999999ADDGF107991999999999999999999MA1100001999999MW1631REMMET074METAR EDDG 010620Z 21009KT 9999 RA SCT007 BKN011 08/07 Q1000 TEMPO BKN008;
0133103150999992013010106504+52133+007700FM-15+0053EDDG V0202001N004110033019N0112651N1+00801+00701999999ADDGF107991999999999999999999MA1100001999999MW1631REMMET074METAR EDDG 010650Z 20008KT 9999 RA SCT007 BKN011 08/07 Q1000 TEMPO BKN008;
0137103150999992013010107204+52133+007700FM-15+0053EDDG V0202001N005110033019N0112651N1+00801+00701999999ADDGF107991999999999999999999MA1100001999999MW1631REMMET078METAR EDDG 010720Z 20010KT 9999 RA SCT007 BKN011 BKN035 08/07 Q1000 BECMG NSW;
0137103150999992013010107504+52133+007700FM-15+0053EDDG V0202001N004610033019N0112651N1+00801+00701999999ADDGF107991999999999999999999MA1100001999999MW1631REMMET078METAR EDDG 010750Z 20009KT 9999 RA SCT007 BKN011 08/07 Q1000 BECMG NSW BKN008;
0125103150999992013010108204+52133+007700FM-15+0053EDDG V0202001N005110021019N0112651N1+00801+00701999999ADDGF107991999999999999999999MA1100101999999MW1611REMMET066METAR EDDG 010820Z 20010KT 9999 -RA BKN007 08/07 Q1001 RERA NOSIG;
0130103150999992013010108504+52133+007700FM-15+0053EDDG V0202001N004610036019N0112651N1+00801+00701999999ADDGF107991999999999999999999MA1100101999999MW1631REMMET071METAR EDDG 010850Z 20009KT 9999 RA SCT008 BKN012 08/07 Q1001 BECMG NSW;
0144103150999992013010109204+52133+007700FM-15+0053EDDG V0202001N004610036019N0112651N1+00701+00701999999ADDGF107991999999999999999999MA1100101999999MW1611REMMET085METAR EDDG 010920Z 20009KT 9999 -RA SCT008 BKN012 07/07 Q1001 RERA TEMPO SHRA BKN008;
0115103150999992013010109504+52133+007700FM-15+0053EDDG V0202101N004610024019N0112651N1+00801+00701999999ADDGF107991999999999999999999MA1100101999999REMMET062METAR EDDG 010950Z 21009KT 9999 BKN008 08/07 Q1001 TEMPO SHRA;
0127103150999992013010110204+52133+007700FM-15+0053EDDG V0202101N005710024019N0112651N1+00801+00701999999ADDGF107991999999999999999999MA1100101999999MW1801REMMET068METAR EDDG 011020Z 21011KT 9999 -SHRA BKN008 08/07 Q1001 TEMPO SHRA;
0141103150999992013010110504+52133+007700FM-15+0053EDDG V0202101N004610039019N0112651N1+00801+00701999999ADDGF107991999999999999999999MA1100101999999MW1801REMMET082METAR EDDG 011050Z 21009KT 9999 -SHRA SCT007 BKN013 08/07 Q1001 TEMPO SHRA BKN007;
0146103150999992013010111204+52133+007700FM-15+0053EDDG V0202101N004610033019N0090001N1+00801+00701999999ADDGF107991999999999999999999MA1100201999999MW1801REMMET087METAR EDDG 011120Z 21009KT 9000 -SHRA SCT006 BKN011 08/07 Q1002 BECMG RA SCT015 BKN030;
0151103150999992013010111504+52133+007700FM-15+0053EDDG V0202301N00571003601CN0112651N1+00801+00701999999ADDGF107991999999999999999999MA1100201999999MW1801REMMET092METAR EDDG 011150Z 23011KT 9999 -SHRA FEW006 SCT012 BKN030 08/07 Q1002 TEMPO 4000 RA BKN008;
0150103150999992013010112204+52133+007700FM-15+0053EDDG V0202801N00361003601CN0112651N1+00701+00501999999ADDGF107991999999999999999999MA1100201999999MW1811REMMET091METAR EDDG 011220Z 28007KT 230V290 9999 SHRA FEW006 SCT012TCU BKN030 07/05 Q1002 BECMG NSW;
0144103150999992013010112504+52133+007700FM-15+0053EDDG V0202701N00311003601CN0112651N1+00701+00601999999ADDGF107991999999999999999999MA1100311999999MW1801REMMET085METAR EDDG 011250Z 27006KT 9999 -SHRA FEW006 SCT012TCU BKN120 07/06 Q1003 RERA NOSIG;
0139103150999992013010113204+52133+007700FM-15+0053EDDG V0202701N00361003601CN0112651N1+00701+00601999999ADDGF107991999999999999999999MA1100311999999MW1801REMMET080METAR EDDG 011320Z 27007KT 9999 -SHRA FEW006 SCT012TCU BKN020 07/06 Q1003 NOSIG;
0132103150999992013010113504+52133+007700FM-15+0053EDDG V0202901N004610090019N0112651N1+00601+00501999999ADDGF107991999999999999999999MA1100411999999MW1801REMMET073METAR EDDG 011350Z 29009KT 9999 -SHRA SCT012TCU BKN030 06/05 Q1004 NOSIG;
0120103150999992013010114204+52133+007700FM-15+0053EDDG V0202701N004610120019N0112651N1+00601+00401999999ADDGF107991999999999999999999MA1100411999999REMMET067METAR EDDG 011420Z 27009KT 9999 FEW012TCU BKN040 06/04 Q1004 NOSIG;
0127103150999992013010114504+52133+007700FM-15+0053EDDG V0202701N00411012001CN0112651N1+00601+00501999999ADDGF107991999999999999999999MA1100511999999REMMET074METAR EDDG 011450Z 27008KT 9999 FEW012TCU SCT040 BKN120 06/05 Q1005 NOSIG;
0139103150999992013010115204+52133+007700FM-15+0053EDDG V0202701N00461012001CN0112651N1+00601+00401999999ADDGF107991999999999999999999MA1100611999999MW1801REMMET080METAR EDDG 011520Z 27009KT 9999 -SHRA FEW012TCU SCT040 BKN120 06/04 Q1006 NOSIG;
0120103150999992013010115504+52133+007700FM-15+0053EDDG V0202501N002610360019N0112651N1+00501+00401999999ADDGF107991999999999999999999MA1100611999999REMMET067METAR EDDG 011550Z 25005KT 9999 FEW015TCU BKN120 05/04 Q1006 NOSIG;
0120103150999992013010116204+52133+007700FM-15+0053EDDG V0202301N003112200019N0112651N1+00601+00301999999ADDGF104991999999999999999999MA1100611999999REMMET067METAR EDDG 011620Z 23006KT 9999 FEW015TCU SCT120 06/03 Q1006 NOSIG;
0120103150999992013010116504+52133+007700FM-15+0053EDDG V0202201N003612200019N0112651N1+00501+00401999999ADDGF104991999999999999999999MA1100711999999REMMET067METAR EDDG 011650Z 22007KT 9999 FEW015TCU SCT050 05/04 Q1007 NOSIG;
0120103150999992013010117204+52133+007700FM-15+0053EDDG V0202401N004612200019N0112651N1+00501+00301999999ADDGF104991999999999999999999MA1100711999999REMMET067METAR EDDG 011720Z 24009KT 9999 FEW015TCU SCT040 05/03 Q1007 NOSIG;
0110103150999992013010117504+52133+007700FM-15+0053EDDG V0202401N004112200019N0112651N1+00501+00301999999ADDGF102991999999999999999999MA1100811999999REMMET057METAR EDDG 011750Z 24008KT 9999 FEW015 05/03 Q1008 NOSIG;
0078103150999992013010118204+52133+007700FM-15+0053EDDG V0202401N004619999999Y0099001N1+00501+00301999999ADDMA1100811999999REMMET051METAR EDDG 011820Z 24009KT CAVOK 05/03 Q1008 NOSIG;
0110103150999992013010118504+52133+007700FM-15+0053EDDG V0202401N004612200019N0112651N1+00401+00201999999ADDGF102991999999999999999999MA1100911999999REMMET057METAR EDDG 011850Z 24009KT 9999 FEW040 04/02 Q1009 NOSIG;
0110103150999992013010119204+52133+007700FM-15+0053EDDG V0202301N003112200019N0112651N1+00401+00201999999ADDGF104991999999999999999999MA1100911999999REMMET057METAR EDDG 011920Z 23006KT 9999 SCT040 04/02 Q1009 NOSIG;
0110103150999992013010119504+52133+007700FM-15+0053EDDG V0202201N003612200019N0112651N1+00401+00201999999ADDGF102991999999999999999999MA1100911999999REMMET057METAR EDDG 011950Z 22007KT 9999 FEW040 04/02 Q1009 NOSIG;
0078103150999992013010120204+52133+007700FM-15+0053EDDG V0202201N003619999999Y0099001N1+00401+00201999999ADDMA1101021999999REMMET051METAR EDDG 012020Z 22007KT CAVOK 04/02 Q1010 NOSIG;
0078103150999992013010120504+52133+007700FM-15+0053EDDG V0202201N003619999999Y0099001N1+00401+00201999999ADDMA1101021999999REMMET051METAR EDDG 012050Z 22007KT CAVOK 04/02 Q1010 NOSIG;
0078103150999992013010121204+52133+007700FM-15+0053EDDG V0202201N004119999999Y0099001N1+00401+00201999999ADDMA1101021999999REMMET051METAR EDDG 012120Z 22008KT CAVOK 04/02 Q1010 NOSIG;
0110103150999992013010121504+52133+007700FM-15+0053EDDG V0202301N004112200019N0112651N1+00401+00201999999ADDGF102991999999999999999999MA1101081999999REMMET057METAR EDDG 012150Z 23008KT 9999 FEW044 04/02 Q1011 NOSIG;
0110103150999992013010122204+52133+007700FM-15+0053EDDG V0202201N004110120019N0112651N1+00401+00201999999ADDGF107991999999999999999999MA1101081999999REMMET057METAR EDDG 012220Z 22008KT 9999 BKN040 04/02 Q1011 NOSIG;
0110103150999992013010122504+52133+007700FM-15+0053EDDG V0202201N004110120019N0112651N1+00401+00201999999ADDGF107991999999999999999999MA1101081999999REMMET057METAR EDDG 012250Z 22008KT 9999 BKN040 04/02 Q1011 NOSIG;
0110103150999992013010123204+52133+007700FM-15+0053EDDG V0202201N003610114019N0112651N1+00401+00201999999ADDGF107991999999999999999999MA1101081999999REMMET057METAR EDDG 012320Z 22007KT 9999 BKN038 04/02 Q1011 NOSIG;
0117103150999992013010123504+52133+007700FM-15+0053EDDG V0202201N004110090019N0112651N1+00401+00201999999ADDGF107991999999999999999999MA1101191999999REMMET064METAR EDDG 012350Z 22008KT 9999 FEW015 BKN030 04/02 Q1012 NOSIG;
0117103150999992013010200204+52133+007700FM-15+0053EDDG V0202201N005110090019N0112651N1+00401+00201999999ADDGF107991999999999999999999MA1101191999999REMMET064METAR EDDG 020020Z 22010KT 9999 SCT015 BKN030 04/02 Q1012 NOSIG;
0117103150999992013010200504+52133+007700FM-15+0053EDDG V0202301N005110066019N0112651N1+00401+00201999999ADDGF107991999999999999999999MA1101191999999REMMET064METAR EDDG 020050Z 23010KT 9999 FEW014 BKN022 04/02 Q1012 NOSIG;
0136103150999992013010201204+52133+007700FM-15+0053EDDG V0202301N00621007501CN0112651N1+00401+00201999999ADDGF107991999999999999999999MA1101191999999MW1801REMMET077METAR EDDG 020120Z 23012KT 9999 -SHRA SCT014 SCT025 BKN050 04/02 Q1012 NOSIG;
0117103150999992013010201504+52133+007700FM-15+0053EDDG V0202301N004110150019N0112651N1+00501+00301999999ADDGF107991999999999999999999MA1101291999999REMMET064METAR EDDG 020150Z 23008KT 9999 SCT025 BKN050 05/03 Q1013 NOSIG;
0117103150999992013010202204+52133+007700FM-15+0053EDDG V0202301N005710060019N0112651N1+00501+00301999999ADDGF107991999999999999999999MA1101291999999REMMET064METAR EDDG 020220Z 23011KT 9999 BKN020 BKN050 05/03 Q1013 NOSIG;
0129103150999992013010202504+52133+007700FM-15+0053EDDG V0202501N005710045019N0112651N1+00501+00301999999ADDGF107991999999999999999999MA1101391999999MW1801REMMET070METAR EDDG 020250Z 25011KT 9999 -SHRA BKN015 BKN050 05/03 Q1014 NOSIG;
0124103150999992013010203204+52133+007700FM-15+0053EDDG V0202401N00511012001CN0112651N1+00501+00301999999ADDGF107991999999999999999999MA1101391999999REMMET071METAR EDDG 020320Z 24010KT 9999 FEW015 SCT040 BKN050 05/03 Q1014 NOSIG;
0129103150999992013010203504+52133+007700FM-15+0053EDDG V0202301N005110120019N0112651N1+00501+00301999999ADDGF107991999999999999999999MA1101391999999MW1801REMMET070METAR EDDG 020350Z 23010KT 9999 -SHRA SCT025 BKN040 05/03 Q1014 NOSIG;
0117103150999992013010204204+52133+007700FM-15+0053EDDG V0202401N004610120019N0112651N1+00501+00301999999ADDGF107991999999999999999999MA1101491999999REMMET064METAR EDDG 020420Z 24009KT 9999 SCT010 BKN040 05/03 Q1015 NOSIG;
0117103150999992013010204504+52133+007700FM-15+0053EDDG V0202401N004610120019N0112651N1+00401+00301999999ADDGF107991999999999999999999MA1101491999999REMMET064METAR EDDG 020450Z 24009KT 9999 FEW020 BKN040 04/03 Q1015 NOSIG;
0110103150999992013010205204+52133+007700FM-15+0053EDDG V0202401N004612200019N0112651N1+00401+00301999999ADDGF104991999999999999999999MA1101591999999REMMET057METAR EDDG 020520Z 24009KT 9999 SCT020 04/03 Q1016 NOSIG;
0117103150999992013010205504+52133+007700FM-15+0053EDDG V0202401N004112200019N0112651N1+00501+00301999999ADDGF104991999999999999999999MA1101591999999REMMET064METAR EDDG 020550Z 24008KT 9999 SCT024 SCT040 05/03 Q1016 NOSIG;
0117103150999992013010206204+52133+007700FM-15+0053EDDG V0202401N004112200019N0112651N1+00401+00301999999ADDGF104991999999999999999999MA1101691999999REMMET064METAR EDDG 020620Z 24008KT 9999 FEW010 SCT040 04/03 Q1017 NOSIG;
0136103150999992013010206504+52133+007700FM-15+0053EDDG V0202401N00411006301CN0112651N1+00501+00301999999ADDGF107991999999999999999999MA1101691999999MW1801REMMET077METAR EDDG 020650Z 24008KT 9999 -SHRA FEW010 SCT021 BKN040 05/03 Q1017 NOSIG;
0138103150999992013010207204+52133+007700FM-15+0053EDDG V0202601N00461004501CN0112651N1+00401+00401999999ADDGF107991999999999999999999MA1101801999999MW1801REMMET079METAR EDDG 020720Z 26009KT 9999 -SHRA FEW012CB SCT015 BKN040 04/04 Q1018 NOSIG;
0117103150999992013010207504+52133+007700FM-15+0053EDDG V0202301N004610102019N0112651N1+00501+00301999999ADDGF107991999999999999999999MA1101801999999REMMET064METAR EDDG 020750Z 23009KT 9999 FEW015 BKN034 05/03 Q1018 NOSIG;
0117103150999992013010208204+52133+007700FM-15+0053EDDG V0202401N005110111019N0112651N1+00501+00401999999ADDGF107991999999999999999999MA1101901999999REMMET064METAR EDDG 020820Z 24010KT 9999 FEW014 BKN037 05/04 Q1019 NOSIG;
0117103150999992013010208504+52133+007700FM-15+0053EDDG V0202501N004610120019N0112651N1+00501+00401999999ADDGF107991999999999999999999MA1101901999999REMMET064METAR EDDG 020850Z 25009KT 9999 FEW007 BKN040 05/04 Q1019 NOSIG;
0117103150999992013010209204+52133+007700FM-15+0053EDDG V0202501N004610117019N0112651N1+00501+00401999999ADDGF107991999999999999999999MA1102001999999REMMET064METAR EDDG 020920Z 25009KT 9999 FEW007 BKN039 05/04 Q1020 NOSIG;
0117103150999992013010209504+52133+007700FM-15+0053EDDG V0202501N005110120019N0112651N1+00601+00401999999ADDGF107991999999999999999999MA1102001999999REMMET064METAR EDDG 020950Z 25010KT 9999 FEW010 BKN040 06/04 Q1020 NOSIG;
0117103150999992013010210204+52133+007700FM-15+0053EDDG V0202401N005110120019N0112651N1+00601+00401999999ADDGF107991999999999999999999MA1102101999999REMMET064METAR EDDG 021020Z 24010KT 9999 FEW010 BKN040 06/04 Q1021 NOSIG;
0124103150999992013010210504+52133+007700FM-15+0053EDDG V0202501N004610120019N0112651N1+00601+00501999999ADDGF107991999999999999999999MA1102101999999REMMET071METAR EDDG 021050Z 25009KT 9999 SCT011 BKN040 06/05 Q1021 TEMPO BKN012;
0124103150999992013010211204+52133+007700FM-15+0053EDDG V0202501N005710114019N0112651N1+00601+00401999999ADDGF107991999999999999999999MA1102101999999REMMET071METAR EDDG 021120Z 25011KT 9999 FEW011 BKN038 06/04 Q1021 TEMPO BKN012;
0124103150999992013010211504+52133+007700FM-15+0053EDDG V0202401N004610114019N0112651N1+00601+00401999999ADDGF107991999999999999999999MA1102101999999REMMET071METAR EDDG 021150Z 24009KT 9999 FEW011 BKN038 06/04 Q1021 TEMPO BKN012;
0124103150999992013010212204+52133+007700FM-15+0053EDDG V0202401N005110120019N0112651N1+00701+00401999999ADDGF107991999999999999999999MA1102101999999REMMET071METAR EDDG 021220Z 24010KT 9999 FEW011 BKN040 07/04 Q1021 TEMPO BKN012;
0131103150999992013010212504+52133+007700FM-15+0053EDDG V0202401N004610036019N0112651N1+00701+00501999999ADDGF107991999999999999999999MA1102201999999REMMET078METAR EDDG 021250Z 24009KT 9999 BKN012 BKN040 07/05 Q1022 BECMG SCT012 BKN040;
0105103150999992013010213204+52133+007700FM-15+0053EDDG V0202401N00511003601CN0112651N1+00701+00501999999ADDMA1102201999999REMMET078METAR EDDG 021320Z 24010KT 9999 BKN012 SCT040 07/05 Q1022 BECMG SCT012 BKN040;
0105103150999992013010213504+52133+007700FM-15+0053EDDG V0202501N00511003601CN0112651N1+00701+00501999999ADDMA1102201999999REMMET078METAR EDDG 021350Z 25010KT 9999 BKN012 SCT040 07/05 Q1022 BECMG SCT012 BKN040;
0117103150999992013010214204+52133+007700FM-15+0053EDDG V0202401N004110060019N0112651N1+00701+00501999999ADDGF107991999999999999999999MA1102301999999REMMET064METAR EDDG 021420Z 24008KT 9999 FEW014 BKN020 07/05 Q1023 NOSIG;
0124103150999992013010214504+52133+007700FM-15+0053EDDG V0202401N00461006001CN0112651N1+00701+00401999999ADDGF107991999999999999999999MA1102301999999REMMET071METAR EDDG 021450Z 24009KT 9999 FEW015 SCT020 BKN230 07/04 Q1023 NOSIG;
0117103150999992013010215204+52133+007700FM-15+0053EDDG V0202301N003610690019N0112651N1+00601+00401999999ADDGF107991999999999999999999MA1102301999999REMMET064METAR EDDG 021520Z 23007KT 9999 FEW018 BKN230 06/04 Q1023 NOSIG;
0091103150999992013010215504+52133+007700FM-15+0053EDDG V0202301N00361005401CN0112651N1+00601+00401999999ADDMA1102401999999REMMET064METAR EDDG 021550Z 23007KT 9999 BKN018 SCT040 06/04 Q1024 NOSIG;
0117103150999992013010216204+52133+007700FM-15+0053EDDG V0202201N003112200019N0112651N1+00601+00401999999ADDGF104991999999999999999999MA1102401999999REMMET064METAR EDDG 021620Z 22006KT 9999 FEW018 SCT033 06/04 Q1024 NOSIG;
0117103150999992013010216504+52133+007700FM-15+0053EDDG V0202101N004110072019N0112651N1+00601+00401999999ADDGF107991999999999999999999MA1102401999999REMMET064METAR EDDG 021650Z 21008KT 9999 FEW020 BKN024 06/04 Q1024 NOSIG;
0117103150999992013010217204+52133+007700FM-15+0053EDDG V0202101N003610078019N0112651N1+00601+00401999999ADDGF107991999999999999999999MA1102401999999REMMET064METAR EDDG 021720Z 21007KT 9999 FEW022 BKN026 06/04 Q1024 NOSIG;
0117103150999992013010217504+52133+007700FM-15+0053EDDG V0202101N003610087019N0112651N1+00601+00401999999ADDGF107991999999999999999999MA1102401999999REMMET064METAR EDDG 021750Z 21007KT 9999 FEW025 BKN029 06/04 Q1024 NOSIG;
0110103150999992013010218204+52133+007700FM-15+0053EDDG V0202201N003610090019N0112651N1+00601+00401999999ADDGF107991999999999999999999MA1102401999999REMMET057METAR EDDG 021820Z 22007KT 9999 BKN030 06/04 Q1024 NOSIG;
0117103150999992013010218504+52133+007700FM-15+0053EDDG V0202101N004610090019N0112651N1+00701+00401999999ADDGF107991999999999999999999MA1102401999999REMMET064METAR EDDG 021850Z 21009KT 9999 FEW020 BKN030 07/04 Q1024 NOSIG;
0117103150999992013010219204+52133+007700FM-15+0053EDDG V0202201N004110060019N0112651N1+00701+00401999999ADDGF107991999999999999999999MA1102401999999REMMET064METAR EDDG 021920Z 22008KT 9999 SCT015 BKN020 07/04 Q1024 NOSIG;
0117103150999992013010219504+52133+007700FM-15+0053EDDG V0202201N004610060019N0112651N1+00701+00401999999ADDGF107991999999999999999999MA1102511999999REMMET064METAR EDDG 021950Z 22009KT 9999 SCT015 BKN020 07/04 Q1025 NOSIG;
0117103150999992013010220204+52133+007700FM-15+0053EDDG V0202201N004610060019N0112651N1+00701+00401999999ADDGF107991999999999999999999MA1102511999999REMMET064METAR EDDG 022020Z 22009KT 9999 SCT015 BKN020 07/04 Q1025 NOSIG;
0110103150999992013010220504+52133+007700FM-15+0053EDDG V0202201N004610045019N0112651N1+00701+00401999999ADDGF107991999999999999999999MA1102511999999REMMET057METAR EDDG 022050Z 22009KT 9999 BKN015 07/04 Q1025 NOSIG;
0110103150999992013010221204+52133+007700FM-15+0053EDDG V0202101N005110045019N0112651N1+00701+00401999999ADDGF107991999999999999999999MA1102401999999REMMET057METAR EDDG 022120Z 21010KT 9999 BKN015 07/04 Q1024 NOSIG;
0117103150999992013010221504+52133+007700FM-15+0053EDDG V0202101N004610135019N0112651N1+00701+00401999999ADDGF107991999999999999999999MA1102401999999REMMET064METAR EDDG 022150Z 21009KT 9999 SCT015 BKN045 07/04 Q1024 NOSIG;
0127103150999992013010222204+52133+007700FM-15+0053EDDG V0202101N004610090019N0112651N1+00701+00401999999ADDGF107991999999999999999999MA1102511999999MW1611REMMET068METAR EDDG 022220Z 21009KT 9999 -RA SCT015 BKN030 07/04 Q1025 NOSIG;
0110103150999992013010222504+52133+007700FM-15+0053EDDG V0202101N004610045019N0112651N1+00701+00401999999ADDGF107991999999999999999999MA1102401999999REMMET057METAR EDDG 022250Z 21009KT 9999 BKN015 07/04 Q1024 NOSIG;
0110103150999992013010223204+52133+007700FM-15+0053EDDG V0202101N005110045019N0112651N1+00701+00401999999ADDGF107991999999999999999999MA1102401999999REMMET057METAR EDDG 022320Z 21010KT 9999 BKN015 07/04 Q1024 NOSIG;
0117103150999992013010223504+52133+007700FM-15+0053EDDG V0202201N005710033019N0112651N1+00701+00501999999ADDGF107991999999999999999999MA1102401999999REMMET064METAR EDDG 022350Z 22011KT 9999 FEW004 BKN011 07/05 Q1024 NOSIG;
0127103150999992013010300204+52133+007700FM-15+0053EDDG V0202201N005710030019N0112651N1+00601+00501999999ADDGF107991999999999999999999MA1102401999999MW1611REMMET068METAR EDDG 030020Z 22011KT 9999 -RA FEW004 BKN010 06/05 Q1024 NOSIG;
0147103150999992013010300504+52133+007700FM-15+0053EDDG V0202101N005710021019N0060001N1+00601+00501999999ADDGF107991999999999999999999MA1102401999999MW1511MW2611REMMET082METAR EDDG 030050Z 21011KT 6000 -RADZ FEW004 BKN007 06/05 Q1024 TEMPO 4000 BKN004;
0147103150999992013010301204+52133+007700FM-15+0053EDDG V0202101N005710021019N0060001N1+00601+00501999999ADDGF107991999999999999999999MA1102401999999MW1511MW2611REMMET082METAR EDDG 030120Z 21011KT 6000 -RADZ FEW004 BKN007 06/05 Q1024 TEMPO 4000 BKN004;
0147103150999992013010301504+52133+007700FM-15+0053EDDG V0202201N005710021019N0060001N1+00601+00501999999ADDGF107991999999999999999999MA1102401999999MW1511MW2611REMMET082METAR EDDG 030150Z 22011KT 6000 -RADZ FEW004 BKN007 06/05 Q1024 TEMPO 4000 BKN004;
0147103150999992013010302204+52133+007700FM-15+0053EDDG V0202301N005110021019N0060001N1+00701+00601999999ADDGF107991999999999999999999MA1102401999999MW1511MW2611REMMET082METAR EDDG 030220Z 23010KT 6000 -RADZ FEW004 BKN007 07/06 Q1024 TEMPO 4000 BKN004;
0147103150999992013010302504+52133+007700FM-15+0053EDDG V0202301N005710021019N0060001N1+00701+00601999999ADDGF107991999999999999999999MA1102401999999MW1511MW2611REMMET082METAR EDDG 030250Z 23011KT 6000 -RADZ FEW004 BKN007 07/06 Q1024 TEMPO 4000 BKN004;
0147103150999992013010303204+52133+007700FM-15+0053EDDG V0202301N005710018019N0060001N1+00701+00601999999ADDGF107991999999999999999999MA1102401999999MW1511MW2611REMMET082METAR EDDG 030320Z 23011KT 6000 -RADZ FEW004 BKN006 07/06 Q1024 TEMPO 4000 BKN004;
0137103150999992013010303504+52133+007700FM-15+0053EDDG V0202301N005110012019N0040001N1+00701+00601999999ADDGF107991999999999999999999MA1102401999999MW1101MW2511MW3611REMMET066METAR EDDG 030350Z 23010KT 4000 -RADZ BR BKN004 07/06 Q1024 NOSIG;
0118103150999992013010304204+52133+007700FM-15+0053EDDG V0202401N005710012019N0080001N1+00701+00701999999ADDGF107991999999999999999999MA1102401999999REMMET065METAR EDDG 030420Z 24011KT 8000 BKN004 07/07 Q1024 TEMPO 3000 DZ;
0143103150999992013010304504+52133+007700FM-15+0053EDDG V0202401N006710018019N0080001N1+00801+00701999999ADDGF107991999999999999999999MA1102401999999MW1511MW2611REMMET078METAR EDDG 030450Z 24013KT 8000 -RADZ BKN006 08/07 Q1024 TEMPO 3000 DZ BKN003;
0143103150999992013010305204+52133+007700FM-15+0053EDDG V0202401N006210018019N0080001N1+00801+00701999999ADDGF107991999999999999999999MA1102401999999MW1511MW2611REMMET078METAR EDDG 030520Z 24012KT 8000 -RADZ BKN006 08/07 Q1024 TEMPO 3000 DZ BKN003;
0118103150999992013010305504+52133+007700FM-15+0053EDDG V0202401N006210012019N0080001N1+00801+00701999999ADDGF107991999999999999999999MA1102401999999REMMET065METAR EDDG 030550Z 24012KT 8000 BKN004 08/07 Q1024 TEMPO 3000 DZ;
0118103150999992013010306204+52133+007700FM-15+0053EDDG V0202301N006210012019N0070001N1+00801+00801999999ADDGF108991999999999999999999MA1102511999999REMMET065METAR EDDG 030620Z 23012KT 7000 OVC004 08/08 Q1025 TEMPO 3000 DZ;
0125103150999992013010306504+52133+007700FM-15+0053EDDG V0202301N005710012019N0070001N1+00801+00801999999ADDGF108991999999999999999999MA1102511999999MW1511REMMET066METAR EDDG 030650Z 23011KT 7000 -DZ OVC004 08/08 Q1025 TEMPO 4000;
0139103150999992013010307504+52133+007700FM-15+0053EDDG V0202401N005110009019N0033001N1+00901+00901999999ADDGF108991999999999999999999MA1102511999999MW1101MW2511REMMET074METAR EDDG 030750Z 24010KT 3300 -DZ BR OVC003 09/09 Q1025 TEMPO 2000 RADZ;
0139103150999992013010308204+52133+007700FM-15+0053EDDG V0202401N005710009019N0035001N1+00901+00801999999ADDGF108991999999999999999999MA1102611999999MW1101MW2511REMMET074METAR EDDG 030820Z 24011KT 3500 -DZ BR OVC003 09/08 Q1026 TEMPO 2000 RADZ;
0147103150999992013010308504+52133+007700FM-15+0053EDDG V0202401N006210012019N0035001N1+00901+00801999999ADDGF108991999999999999999999MA1102611999999MW1101MW2511MW3611REMMET076METAR EDDG 030850Z 24012KT 3500 -RADZ BR OVC004 09/08 Q1026 TEMPO 2000 RADZ;
0124103150999992013010309204+52133+007700FM-15+0053EDDG V0202401N006210009019N0035001N1+00901+00801999999ADDGF108991999999999999999999MA1102611999999MW1101REMMET065METAR EDDG 030920Z 24012KT 3500 BR OVC003 09/08 Q1026 TEMPO 2500;
0119103150999992013010309504+52133+007700FM-15+0053EDDG V0202401N006210009019N0028001N1+00901+00901999999ADDGF108991999999999999999999MA1102711999999MW1101REMMET060METAR EDDG 030950Z 24012KT 2800 BR OVC003 09/09 Q1027 NOSIG;
0136103150999992013010310204+52133+007700FM-15+0053EDDG V0202401N006710012019N0030001N1+00901+00901999999ADDGF108991999999999999999999MA1102711999999MW1101MW2511REMMET071METAR EDDG 031020Z 24013KT 3000 -DZ BR OVC004 09/09 Q1027 BECMG BKN006;
0126103150999992013010310504+52133+007700FM-15+0053EDDG V0202401N006210012019N0030001N1+00901+00901999999ADDGF107991999999999999999999MA1102711999999MW1101REMMET067METAR EDDG 031050Z 24012KT 3000 BR BKN004 09/09 Q1027 BECMG BKN006;
0136103150999992013010311204+52133+007700FM-15+0053EDDG V0202501N007210012019N0030001N1+01001+00901999999ADDGF107991999999999999999999MA1102711999999MW1101MW2511REMMET071METAR EDDG 031120Z 25014KT 3000 -DZ BR BKN004 10/09 Q1027 BECMG BKN006;
0141103150999992013010311504+52133+007700FM-15+0053EDDG V0202501N006710012019N0018001N1+01001+01001999999ADDGF108991999999999999999999MA1102711999999MW1101MW2511REMMET076METAR EDDG 031150Z 25013KT 1800 -DZ BR OVC004 10/10 Q1027 BECMG 4000 BKN006;
0141103150999992013010312204+52133+007700FM-15+0053EDDG V0202501N006710012019N0025001N1+01001+00901999999ADDGF107991999999999999999999MA1102711999999MW1101MW2511REMMET076METAR EDDG 031220Z 25013KT 2500 -DZ BR BKN004 10/09 Q1027 BECMG 4000 BKN006;
0141103150999992013010312504+52133+007700FM-15+0053EDDG V0202601N006210018019N0025001N1+01001+00901999999ADDGF108991999999999999999999MA1102711999999MW1101MW2511REMMET076METAR EDDG 031250Z 26012KT 2500 -DZ BR SCT004 OVC006 10/09 Q1027 BECMG 4000;
0117103150999992013010313204+52133+007700FM-15+0053EDDG V0202601N005710027019N0060001N1+01001+01001999999ADDGF107991999999999999999999MA1102711999999REMMET064METAR EDDG 031320Z 26011KT 6000 SCT005 BKN009 10/10 Q1027 NOSIG;
0117103150999992013010313504+52133+007700FM-15+0053EDDG V0202601N006710033019N0080001N1+01101+01001999999ADDGF107991999999999999999999MA1102811999999REMMET064METAR EDDG 031350Z 26013KT 8000 SCT007 BKN011 11/10 Q1028 NOSIG;
0117103150999992013010314204+52133+007700FM-15+0053EDDG V0202601N005710033019N0080001N1+01101+00901999999ADDGF107991999999999999999999MA1102811999999REMMET064METAR EDDG 031420Z 26011KT 8000 SCT007 BKN011 11/09 Q1028 NOSIG;
0110103150999992013010314504+52133+007700FM-15+0053EDDG V0202601N005110039019N0112651N1+01101+00901999999ADDGF107991999999999999999999MA1102811999999REMMET057METAR EDDG 031450Z 26010KT 9999 BKN013 11/09 Q1028 NOSIG;
0117103150999992013010315204+52133+007700FM-15+0053EDDG V0202501N005110048019N0112651N1+01001+00901999999ADDGF107991999999999999999999MA1102811999999REMMET064METAR EDDG 031520Z 25010KT 9999 SCT012 BKN016 10/09 Q1028 NOSIG;
0117103150999992013010315504+52133+007700FM-15+0053EDDG V0202601N005710048019N0112651N1+01101+00901999999ADDGF107991999999999999999999MA1102911999999REMMET064METAR EDDG 031550Z 26011KT 9999 SCT012 BKN016 11/09 Q1029 NOSIG;
0117103150999992013010316204+52133+007700FM-15+0053EDDG V0202601N005710045019N0112651N1+01101+00901999999ADDGF107991999999999999999999MA1102911999999REMMET064METAR EDDG 031620Z 26011KT 9999 SCT013 BKN015 11/09 Q1029 NOSIG;
0117103150999992013010316504+52133+007700FM-15+0053EDDG V0202701N006210039019N0112651N1+01101+00901999999ADDGF107991999999999999999999MA1103011999999REMMET064METAR EDDG 031650Z 27012KT 9999 SCT011 BKN013 11/09 Q1030 NOSIG;
0110103150999992013010317204+52133+007700FM-15+0053EDDG V0202701N004610039019N0112651N1+01101+00901999999ADDGF107991999999999999999999MA1103011999999REMMET057METAR EDDG 031720Z 27009KT 9999 BKN013 11/09 Q1030 NOSIG;
0110103150999992013010317504+52133+007700FM-15+0053EDDG V0202701N004610039019N0112651N1+01101+00901999999ADDGF107991999999999999999999MA1103011999999REMMET057METAR EDDG 031750Z 27009KT 9999 BKN013 11/09 Q1030 NOSIG;
0110103150999992013010318204+52133+007700FM-15+0053EDDG V0202701N004610036019N0112651N1+01001+00901999999ADDGF107991999999999999999999MA1103011999999REMMET057METAR EDDG 031820Z 27009KT 9999 BKN012 10/09 Q1030 NOSIG;
0117103150999992013010318504+52133+007700FM-15+0053EDDG V0202601N004610036019N0112651N1+01001+00901999999ADDGF107991999999999999999999MA1103011999999REMMET064METAR EDDG 031850Z 26009KT 9999 FEW010 BKN012 10/09 Q1030 NOSIG;
0117103150999992013010319204+52133+007700FM-15+0053EDDG V0202601N004610036019N0112651N1+01001+00901999999ADDGF107991999999999999999999MA1103121999999REMMET064METAR EDDG 031920Z 26009KT 9999 SCT009 BKN012 10/09 Q1031 NOSIG;
0117103150999992013010319504+52133+007700FM-15+0053EDDG V0202701N004610036019N0112651N1+01001+00901999999ADDGF107991999999999999999999MA1103121999999REMMET064METAR EDDG 031950Z 27009KT 9999 FEW009 BKN012 10/09 Q1031 NOSIG;
0117103150999992013010320204+52133+007700FM-15+0053EDDG V0202701N004610042019N0112651N1+01001+00801999999ADDGF107991999999999999999999MA1103121999999REMMET064METAR EDDG 032020Z 27009KT 9999 SCT010 BKN014 10/08 Q1031 NOSIG;
0117103150999992013010320504+52133+007700FM-15+0053EDDG V0202601N005710036019N0112651N1+01001+00801999999ADDGF107991999999999999999999MA1103121999999REMMET064METAR EDDG 032050Z 26011KT 9999 FEW010 BKN012 10/08 Q1031 NOSIG;
0117103150999992013010321204+52133+007700FM-15+0053EDDG V0202601N004610036019N0112651N1+00901+00801999999ADDGF107991999999999999999999MA1103181999999REMMET064METAR EDDG 032120Z 26009KT 9999 FEW010 BKN012 09/08 Q1032 NOSIG;
0117103150999992013010321504+52133+007700FM-15+0053EDDG V0202701N004610036019N0112651N1+01001+00801999999ADDGF107991999999999999999999MA1103181999999REMMET064METAR EDDG 032150Z 27009KT 9999 FEW010 BKN012 10/08 Q1032 NOSIG;
0117103150999992013010322204+52133+007700FM-15+0053EDDG V0202601N004110036019N0112651N1+01001+00801999999ADDGF107991999999999999999999MA1103181999999REMMET064METAR EDDG 032220Z 26008KT 9999 SCT010 BKN012 10/08 Q1032 NOSIG;
0117103150999992013010322504+52133+007700FM-15+0053EDDG V0202601N005110036019N0112651N1+01001+00801999999ADDGF107991999999999999999999MA1103291999999REMMET064METAR EDDG 032250Z 26010KT 9999 SCT010 BKN012 10/08 Q1033 NOSIG;
0117103150999992013010323204+52133+007700FM-15+0053EDDG V0202601N005710036019N0112651N1+01001+00801999999ADDGF107991999999999999999999MA1103291999999REMMET064METAR EDDG 032320Z 26011KT 9999 SCT010 BKN012 10/08 Q1033 NOSIG;
0117103150999992013010323504+52133+007700FM-15+0053EDDG V0202601N006210033019N0112651N1+01001+00801999999ADDGF107991999999999999999999MA1103291999999REMMET064METAR EDDG 032350Z 26012KT 9999 FEW009 BKN011 10/08 Q1033 NOSIG;
0124103150999992013010400204+52133+007700FM-15+0053EDDG V0202501N006210027019N0112651N1+01001+00801999999ADDGF107991999999999999999999MA1103181999999REMMET071METAR EDDG 040020Z 25012KT 9999 FEW008 BKN009 BKN011 10/08 Q1032 NOSIG;
0117103150999992013010400504+52133+007700FM-15+0053EDDG V0202601N005110027019N0112651N1+01001+00901999999ADDGF107991999999999999999999MA1103181999999REMMET064METAR EDDG 040050Z 26010KT 9999 BKN009 BKN011 10/09 Q1032 NOSIG;
0117103150999992013010401204+52133+007700FM-15+0053EDDG V0202601N005710027019N0112651N1+01001+00801999999ADDGF107991999999999999999999MA1103181999999REMMET064METAR EDDG 040120Z 26011KT 9999 BKN009 BKN011 10/08 Q1032 NOSIG;
0124103150999992013010401504+52133+007700FM-15+0053EDDG V0202701N005710033019N0112651N1+01001+00801999999ADDGF107991999999999999999999MA1103291999999REMMET071METAR EDDG 040150Z 27011KT 9999 SCT009 BKN011 10/08 Q1033 TEMPO BKN008;
0117103150999992013010402204+52133+007700FM-15+0053EDDG V0202701N005710024019N0112651N1+01001+00801999999ADDGF107991999999999999999999MA1103291999999REMMET064METAR EDDG 040220Z 27011KT 9999 FEW007 BKN008 10/08 Q1033 NOSIG;
0110103150999992013010402504+52133+007700FM-15+0053EDDG V0202601N005710018019N0080001N1+01001+00901999999ADDGF107991999999999999999999MA1103181999999REMMET057METAR EDDG 040250Z 26011KT 8000 BKN006 10/09 Q1032 NOSIG;
0110103150999992013010403204+52133+007700FM-15+0053EDDG V0202601N005710021019N0080001N1+01001+00901999999ADDGF107991999999999999999999MA1103181999999REMMET057METAR EDDG 040320Z 26011KT 8000 BKN007 10/09 Q1032 NOSIG;
0110103150999992013010403504+52133+007700FM-15+0053EDDG V0202701N004610018019N0070001N1+01001+00901999999ADDGF107991999999999999999999MA1103181999999REMMET057METAR EDDG 040350Z 27009KT 7000 BKN006 10/09 Q1032 NOSIG;
0131103150999992013010404204+52133+007700FM-15+0053EDDG V0202601N005710018019N0050001N1+01001+00901999999ADDGF108991999999999999999999MA1103181999999MW1101REMMET072METAR EDDG 040420Z 26011KT 5000 BR FEW005 OVC006 10/09 Q1032 BECMG 3000;
0143103150999992013010404504+52133+007700FM-15+0053EDDG V0202501N005710018019N0040001N1+01001+00901999999ADDGF107991999999999999999999MA1103181999999MW1101MW2511REMMET078METAR EDDG 040450Z 25011KT 4000 -DZ BR FEW005 BKN006 10/09 Q1032 TEMPO BKN004;
0126103150999992013010405204+52133+007700FM-15+0053EDDG V0202501N005110015019N0040001N1+01001+00901999999ADDGF107991999999999999999999MA1103181999999MW1101REMMET067METAR EDDG 040520Z 25010KT 4000 BR BKN005 10/09 Q1032 TEMPO BKN004;
0150103150999992013010405504+52133+007700FM-15+0053EDDG V0202501N00571001201CN0030001N1+00901+00901999999ADDGF107991999999999999999999MA1103181999999MW1101MW2511REMMET085METAR EDDG 040550Z 25011KT 3000 -DZ BR FEW003 SCT004 BKN005 09/09 Q1032 TEMPO BKN004;
0126103150999992013010406204+52133+007700FM-15+0053EDDG V0202601N005710012019N0035001N1+00901+00901999999ADDGF107991999999999999999999MA1103181999999MW1101REMMET067METAR EDDG 040620Z 26011KT 3500 BR SCT003 BKN004 09/09 Q1032 NOSIG;
0126103150999992013010406504+52133+007700FM-15+0053EDDG V0202601N005710012019N0050001N1+00901+00901999999ADDGF107991999999999999999999MA1103181999999MW1101REMMET067METAR EDDG 040650Z 26011KT 5000 BR FEW003 BKN004 09/09 Q1032 NOSIG;
0117103150999992013010407204+52133+007700FM-15+0053EDDG V0202601N005710012019N0060001N1+01001+00901999999ADDGF107991999999999999999999MA1103181999999REMMET064METAR EDDG 040720Z 26011KT 6000 FEW003 BKN004 10/09 Q1032 NOSIG;
0136103150999992013010407504+52133+007700FM-15+0053EDDG V0202601N005710012019N0050001N1+01001+00901999999ADDGF107991999999999999999999MA1103181999999MW1101MW2511REMMET071METAR EDDG 040750Z 26011KT 5000 -DZ BR SCT003 BKN004 10/09 Q1032 NOSIG;
0126103150999992013010408204+52133+007700FM-15+0053EDDG V0202601N005710012019N0040001N1+01001+00901999999ADDGF107991999999999999999999MA1103181999999MW1101REMMET067METAR EDDG 040820Z 26011KT 4000 BR SCT003 BKN004 10/09 Q1032 NOSIG;
0126103150999992013010408504+52133+007700FM-15+0053EDDG V0202601N006210012019N0040001N1+01001+00901999999ADDGF107991999999999999999999MA1103181999999MW1101REMMET067METAR EDDG 040850Z 26012KT 4000 BR SCT003 BKN004 10/09 Q1032 NOSIG;
0126103150999992013010409204+52133+007700FM-15+0053EDDG V0202801N005110012019N0040001N1+01001+00901999999ADDGF107991999999999999999999MA1103291999999MW1101REMMET067METAR EDDG 040920Z 28010KT 4000 BR SCT003 BKN004 10/09 Q1033 NOSIG;
0144103150999992013010409504+52133+007700FM-15+0053EDDG V0202701N005710012019N0035001N1+01001+00901999999ADDGF107991999999999999999999MA1103291999999MW1101MW2511MW3611REMMET073METAR EDDG 040950Z 27011KT 3500 -RADZ BR SCT003 BKN004 10/09 Q1033 NOSIG;
0126103150999992013010410204+52133+007700FM-15+0053EDDG V0202701N006710012019N0035001N1+01001+00901999999ADDGF107991999999999999999999MA1103291999999MW1101REMMET067METAR EDDG 041020Z 27013KT 3500 BR SCT003 BKN004 10/09 Q1033 NOSIG;
0136103150999992013010410504+52133+007700FM-15+0053EDDG V0202701N006210012019N0025001N1+01001+00901999999ADDGF107991999999999999999999MA1103291999999MW1101MW2511REMMET071METAR EDDG 041050Z 27012KT 2500 -DZ BR SCT003 BKN004 10/09 Q1033 NOSIG;
0144103150999992013010411204+52133+007700FM-15+0053EDDG V0202601N006210009019N0020001N1+00901+00901999999ADDGF107991999999999999999999MA1103291999999MW1101MW2511MW3611REMMET073METAR EDDG 041120Z 26012KT 2000 -DZRA BR SCT002 BKN003 09/09 Q1033 NOSIG;
0126103150999992013010411504+52133+007700FM-15+0053EDDG V0202601N006710012019N0030001N1+01001+00901999999ADDGF107991999999999999999999MA1103181999999MW1101REMMET067METAR EDDG 041150Z 26013KT 3000 BR SCT003 BKN004 10/09 Q1032 NOSIG;
0126103150999992013010412204+52133+007700FM-15+0053EDDG V0202701N007210012019N0030001N1+00901+00901999999ADDGF107991999999999999999999MA1103181999999MW1101REMMET067METAR EDDG 041220Z 27014KT 3000 BR SCT003 BKN004 09/09 Q1032 NOSIG;
0144103150999992013010412504+52133+007700FM-15+0053EDDG V0202701N006710012019N0030001N1+00901+00901999999ADDGF107991999999999999999999MA1103181999999MW1101MW2511MW3611REMMET073METAR EDDG 041250Z 27013KT 3000 -DZRA BR SCT003 BKN004 09/09 Q1032 NOSIG;
0148103150999992013010413204+52133+007700FM-15+0053EDDG V0202801N006710015019N0040001N1+00901+00801999999ADDGF107991999999999999999999MA1103181999999MW1101MW2511REMMET083METAR EDDG 041320Z 28013KT 4000 -DZ BR SCT004 BKN005 09/08 Q1032 TEMPO 2500 BKN004;
0141103150999992013010413504+52133+007700FM-15+0053EDDG V0202701N005710012019N0035001N1+00901+00801999999ADDGF107991999999999999999999MA1103181999999MW1101MW2511REMMET076METAR EDDG 041350Z 27011KT 3500 -DZ BR SCT003 BKN004 09/08 Q1032 TEMPO 2500;
0141103150999992013010414204+52133+007700FM-15+0053EDDG V0202701N005710012019N0035001N1+00901+00801999999ADDGF107991999999999999999999MA1103181999999MW1101MW2511REMMET076METAR EDDG 041420Z 27011KT 3500 -DZ BR SCT003 BKN004 09/08 Q1032 TEMPO 2500;
0131103150999992013010414504+52133+007700FM-15+0053EDDG V0202601N005710015019N0050001N1+00901+00801999999ADDGF107991999999999999999999MA1103181999999MW1101REMMET072METAR EDDG 041450Z 26011KT 5000 BR FEW004 BKN005 09/08 Q1032 TEMPO 3000;
0122103150999992013010415204+52133+007700FM-15+0053EDDG V0202701N005710015019N0060001N1+00901+00801999999ADDGF107991999999999999999999MA1103181999999REMMET069METAR EDDG 041520Z 27011KT 6000 FEW004 BKN005 09/08 Q1032 TEMPO 3000;
0122103150999992013010415504+52133+007700FM-15+0053EDDG V0202701N005710015019N0060001N1+00901+00801999999ADDGF107991999999999999999999MA1103181999999REMMET069METAR EDDG 041550Z 27011KT 6000 FEW004 BKN005 09/08 Q1032 TEMPO 3000;
0125103150999992013010416204+52133+007700FM-15+0053EDDG V0202801N006710018019N0070001N1+00901+00801999999ADDGF107991999999999999999999MA1103181999999REMMET072METAR EDDG 041620Z 28013KT 7000 SCT005 BKN006 09/08 Q1032 TEMPO 3000 BR;
0149103150999992013010416504+52133+007700FM-15+0053EDDG V0202901N005110012019N0050001N1+00901+00801999999ADDGF107991999999999999999999MA1103181999999MW1101MW2511MW3611REMMET078METAR EDDG 041650Z 29010KT 5000 -DZRA BR FEW003 BKN004 09/08 Q1032 TEMPO 3000;
0147103150999992013010417204+52133+007700FM-15+0053EDDG V0202901N005110015019N0070001N1+00901+00801999999ADDGF107991999999999999999999MA1103181999999MW1511MW2611REMMET082METAR EDDG 041720Z 29010KT 7000 -RADZ SCT004 BKN005 09/08 Q1032 TEMPO 3000 BKN004;
0131103150999992013010417504+52133+007700FM-15+0053EDDG V0202701N00671002401CN0080001N1+00901+00701999999ADDGF107991999999999999999999MA1103181999999REMMET078METAR EDDG 041750Z 27013KT 8000 FEW005 SCT008 BKN010 09/07 Q1032 TEMPO BKN008;
0110103150999992013010418204+52133+007700FM-15+0053EDDG V0202701N006210024019N0080001N1+00901+00701999999ADDGF107991999999999999999999MA1103181999999REMMET057METAR EDDG 041820Z 27012KT 8000 BKN008 09/07 Q1032 NOSIG;
0110103150999992013010418504+52133+007700FM-15+0053EDDG V0202601N006210024019N0090001N1+00901+00701999999ADDGF107991999999999999999999MA1103181999999REMMET057METAR EDDG 041850Z 26012KT 9000 BKN008 09/07 Q1032 NOSIG;
0124103150999992013010419204+52133+007700FM-15+0053EDDG V0202701N005710018019N0090001N1+00801+00801999999ADDGF107991999999999999999999MA1103181999999REMMET071METAR EDDG 041920Z 27011KT 9000 FEW004 BKN006 08/08 Q1032 TEMPO BKN004;
0133103150999992013010419504+52133+007700FM-15+0053EDDG V0202701N006210015019N0060001N1+00801+00801999999ADDGF107991999999999999999999MA1103181999999REMMET080METAR EDDG 041950Z 27012KT 6000 FEW003 BKN005 08/08 Q1032 TEMPO 3500 -DZ BKN003;
0148103150999992013010420204+52133+007700FM-15+0053EDDG V0202701N005110015019N0050001N1+00801+00801999999ADDGF107991999999999999999999MA1103181999999MW1101MW2511REMMET083METAR EDDG 042020Z 27010KT 5000 -DZ BR SCT003 BKN005 08/08 Q1032 TEMPO 3500 BKN003;
0148103150999992013010420504+52133+007700FM-15+0053EDDG V0202701N006210015019N0045001N1+00801+00801999999ADDGF107991999999999999999999MA1103181999999MW1101MW2511REMMET083METAR EDDG 042050Z 27012KT 4500 -DZ BR SCT003 BKN005 08/08 Q1032 TEMPO 2500 BKN003;
0143103150999992013010421204+52133+007700FM-15+0053EDDG V0202701N005710015019N0045001N1+00801+00801999999ADDGF107991999999999999999999MA1103181999999MW1101MW2511REMMET078METAR EDDG 042120Z 27011KT 4500 -DZ BR SCT003 BKN005 08/08 Q1032 TEMPO BKN003;
0133103150999992013010421504+52133+007700FM-15+0053EDDG V0202701N004610015019N0040001N1+00801+00801999999ADDGF107991999999999999999999MA1103181999999MW1101REMMET074METAR EDDG 042150Z 27009KT 4000 BR SCT003 BKN005 08/08 Q1032 TEMPO BKN003;
0142103150999992013010422204+52133+007700FM-15+0053EDDG V0202701N005110015019N0032001N1+00801+00801999999ADDGF107991999999999999999999MA1103121999999MW1101REMMET083METAR EDDG 042220Z 27010KT 3200 BR SCT003 BKN005 08/08 Q1031 TEMPO 2000 -DZ BKN003;
0142103150999992013010422504+52133+007700FM-15+0053EDDG V0202701N005110015019N0032001N1+00801+00801999999ADDGF107991999999999999999999MA1103121999999MW1101REMMET083METAR EDDG 042250Z 27010KT 3200 BR SCT003 BKN005 08/08 Q1031 TEMPO 2000 -DZ BKN003;
0134103150999992013010423204+52133+007700FM-15+0053EDDG V0202701N005110012019N0032001N1+00801+00801999999ADDGF108991999999999999999999MA1103121999999MW1101MW2511REMMET069METAR EDDG 042320Z 27010KT 3200 -DZ BR OVC004 08/08 Q1031 TEMPO 2000;
0124103150999992013010423504+52133+007700FM-15+0053EDDG V0202701N005710012019N0032001N1+00801+00801999999ADDGF108991999999999999999999MA1103121999999MW1101REMMET065METAR EDDG 042350Z 27011KT 3200 BR OVC004 08/08 Q1031 TEMPO 2000;
0128103150999992013010500204+52133+007700FM-15+0053EDDG V0202901N005110012019N0032001N1+00801+00801999999ADDGF108991999999999999999999MA1103121999999MW1101REMMET069METAR EDDG 050020Z 29010KT 3200 BR OVC004 08/08 Q1031 TEMPO 2000 -DZ;
0134103150999992013010500504+52133+007700FM-15+0053EDDG V0202801N004610012019N0032001N1+00801+00801999999ADDGF107991999999999999999999MA1103121999999MW1101MW2511REMMET069METAR EDDG 050050Z 28009KT 3200 -DZ BR BKN004 08/08 Q1031 TEMPO 2000;
0148103150999992013010501204+52133+007700FM-15+0053EDDG V0202801N005110018019N0030001N1+00801+00801999999ADDGF107991999999999999999999MA1103121999999MW1101MW2511REMMET083METAR EDDG 050120Z 28010KT 3000 -DZ BR SCT004 BKN006 08/08 Q1031 TEMPO 2000 BKN004;
0131103150999992013010501504+52133+007700FM-15+0053EDDG V0202701N005710027019N0045001N1+00801+00701999999ADDGF107991999999999999999999MA1103121999999MW1101REMMET072METAR EDDG 050150Z 27011KT 4500 BR SCT006 BKN009 08/07 Q1031 TEMPO 6000;
0132103150999992013010502204+52133+007700FM-15+0053EDDG V0202801N005110036019N0070001N1+00801+00701999999ADDGF107991999999999999999999MA1103121999999REMMET079METAR EDDG 050220Z 28010KT 7000 SCT009 BKN012 08/07 Q1031 TEMPO 4000 BR BKN008;
0132103150999992013010502504+52133+007700FM-15+0053EDDG V0202801N004610033019N0070001N1+00801+00701999999ADDGF107991999999999999999999MA1103121999999REMMET079METAR EDDG 050250Z 28009KT 7000 SCT008 BKN011 08/07 Q1031 TEMPO 4000 BR BKN008;
0132103150999992013010503204+52133+007700FM-15+0053EDDG V0202801N005110033019N0070001N1+00801+00701999999ADDGF107991999999999999999999MA1103121999999REMMET079METAR EDDG 050320Z 28010KT 7000 SCT008 BKN011 08/07 Q1031 TEMPO 4000 BR BKN008;
0117103150999992013010503504+52133+007700FM-15+0053EDDG V0202701N005110033019N0112651N1+00801+00701999999ADDGF107991999999999999999999MA1103121999999REMMET064METAR EDDG 050350Z 27010KT 9999 BKN011 08/07 Q1031 TEMPO BKN008;
0124103150999992013010504204+52133+007700FM-15+0053EDDG V0202701N004610033019N0112651N1+00801+00701999999ADDGF107991999999999999999999MA1103121999999REMMET071METAR EDDG 050420Z 27009KT 9999 SCT009 BKN011 08/07 Q1031 TEMPO BKN008;
0124103150999992013010504504+52133+007700FM-15+0053EDDG V0202701N003610033019N0112651N1+00801+00701999999ADDGF107991999999999999999999MA1103121999999REMMET071METAR EDDG 050450Z 27007KT 9999 SCT009 BKN011 08/07 Q1031 TEMPO BKN008;
0124103150999992013010505204+52133+007700FM-15+0053EDDG V0202701N004610033019N0112651N1+00801+00701999999ADDGF107991999999999999999999MA1103121999999REMMET071METAR EDDG 050520Z 27009KT 9999 SCT009 BKN011 08/07 Q1031 TEMPO BKN008;
0124103150999992013010505504+52133+007700FM-15+0053EDDG V0202701N005110033019N0112651N1+00801+00701999999ADDGF107991999999999999999999MA1103121999999REMMET071METAR EDDG 050550Z 27010KT 9999 SCT009 BKN011 08/07 Q1031 TEMPO BKN008;
0124103150999992013010506204+52133+007700FM-15+0053EDDG V0202801N004110033019N0112651N1+00801+00701999999ADDGF107991999999999999999999MA1103181999999REMMET071METAR EDDG 050620Z 28008KT 9999 SCT009 BKN011 08/07 Q1032 TEMPO BKN008;
0124103150999992013010506504+52133+007700FM-15+0053EDDG V0202701N003610033019N0112651N1+00801+00701999999ADDGF107991999999999999999999MA1103181999999REMMET071METAR EDDG 050650Z 27007KT 9999 SCT009 BKN011 08/07 Q1032 TEMPO BKN008;
0124103150999992013010507204+52133+007700FM-15+0053EDDG V0202801N003110027019N0112651N1+00801+00701999999ADDGF107991999999999999999999MA1103181999999REMMET071METAR EDDG 050720Z 28006KT 9999 BKN009 BKN011 08/07 Q1032 TEMPO BKN008;
0110103150999992013010507504+52133+007700FM-15+0053EDDG V0202801N004110027019N0112651N1+00801+00701999999ADDGF107991999999999999999999MA1103181999999REMMET057METAR EDDG 050750Z 28008KT 9999 BKN009 08/07 Q1032 NOSIG;
0110103150999992013010508204+52133+007700FM-15+0053EDDG V0202801N003610030019N0112651N1+00801+00701999999ADDGF107991999999999999999999MA1103181999999REMMET057METAR EDDG 050820Z 28007KT 9999 BKN010 08/07 Q1032 NOSIG;
0110103150999992013010508504+52133+007700FM-15+0053EDDG V0202801N003110033019N0112651N1+00801+00601999999ADDGF107991999999999999999999MA1103181999999REMMET057METAR EDDG 050850Z 28006KT 9999 BKN011 08/06 Q1032 NOSIG;
0110103150999992013010509204+52133+007700FM-15+0053EDDG V0202801N003610033019N0112651N1+00801+00701999999ADDGF107991999999999999999999MA1103181999999REMMET057METAR EDDG 050920Z 28007KT 9999 BKN011 08/07 Q1032 NOSIG;
0110103150999992013010509504+52133+007700FM-15+0053EDDG V0202801N004610033019N0112651N1+00801+00701999999ADDGF107991999999999999999999MA1103181999999REMMET057METAR EDDG 050950Z 28009KT 9999 BKN011 08/07 Q1032 NOSIG;
0110103150999992013010510204+52133+007700FM-15+0053EDDG V0202801N004110033019N0112651N1+00801+00601999999ADDGF107991999999999999999999MA1103291999999REMMET057METAR EDDG 051020Z 28008KT 9999 BKN011 08/06 Q1033 NOSIG;
0110103150999992013010510504+52133+007700FM-15+0053EDDG V0202801N004110033019N0112651N1+00801+00701999999ADDGF107991999999999999999999MA1103291999999REMMET057METAR EDDG 051050Z 28008KT 9999 BKN011 08/07 Q1033 NOSIG;
0110103150999992013010511204+52133+007700FM-15+0053EDDG V0202801N003610033019N0112651N1+00901+00701999999ADDGF107991999999999999999999MA1103291999999REMMET057METAR EDDG 051120Z 28007KT 9999 BKN011 09/07 Q1033 NOSIG;
0117103150999992013010511504+52133+007700FM-15+0053EDDG V0202901N004110042019N0112651N1+00901+00701999999ADDGF107991999999999999999999MA1103181999999REMMET064METAR EDDG 051150Z 29008KT 9999 SCT011 BKN014 09/07 Q1032 NOSIG;
0117103150999992013010512204+52133+007700FM-15+0053EDDG V0202701N004610045019N0112651N1+00901+00701999999ADDGF107991999999999999999999MA1103181999999REMMET064METAR EDDG 051220Z 27009KT 9999 SCT013 BKN015 09/07 Q1032 NOSIG;
0110103150999992013010512504+52133+007700FM-15+0053EDDG V0203001N005110039019N0112651N1+00901+00601999999ADDGF107991999999999999999999MA1103181999999REMMET057METAR EDDG 051250Z 30010KT 9999 BKN013 09/06 Q1032 NOSIG;
0110103150999992013010513204+52133+007700FM-15+0053EDDG V0202901N003110039019N0112651N1+00901+00601999999ADDGF107991999999999999999999MA1103181999999REMMET057METAR EDDG 051320Z 29006KT 9999 BKN013 09/06 Q1032 NOSIG;
0110103150999992013010513504+52133+007700FM-15+0053EDDG V0202801N004110036019N0112651N1+00801+00701999999ADDGF107991999999999999999999MA1103181999999REMMET057METAR EDDG 051350Z 28008KT 9999 BKN012 08/07 Q1032 NOSIG;
0110103150999992013010514204+52133+007700FM-15+0053EDDG V0202901N004110033019N0112651N1+00801+00601999999ADDGF107991999999999999999999MA1103181999999REMMET057METAR EDDG 051420Z 29008KT 9999 BKN011 08/06 Q1032 NOSIG;
0110103150999992013010514504+52133+007700FM-15+0053EDDG V0202801N002610033019N0112651N1+00801+00701999999ADDGF107991999999999999999999MA1103181999999REMMET057METAR EDDG 051450Z 28005KT 9999 BKN011 08/07 Q1032 NOSIG;
0110103150999992013010515204+52133+007700FM-15+0053EDDG V0202801N003110039019N0112651N1+00801+00701999999ADDGF107991999999999999999999MA1103181999999REMMET057METAR EDDG 051520Z 28006KT 9999 BKN013 08/07 Q1032 NOSIG;
0110103150999992013010515504+52133+007700FM-15+0053EDDG V0202701N003610039019N0112651N1+00801+00601999999ADDGF107991999999999999999999MA1103181999999REMMET057METAR EDDG 051550Z 27007KT 9999 BKN013 08/06 Q1032 NOSIG;
0110103150999992013010516204+52133+007700FM-15+0053EDDG V0202701N003610036019N0112651N1+00801+00601999999ADDGF107991999999999999999999MA1103181999999REMMET057METAR EDDG 051620Z 27007KT 9999 BKN012 08/06 Q1032 NOSIG;
0120103150999992013010516504+52133+007700FM-15+0053EDDG V0202801N002610033019N0112651N1+00801+00601999999ADDGF107991999999999999999999MA1103181999999MW1511REMMET061METAR EDDG 051650Z 28005KT 9999 -DZ BKN011 08/06 Q1032 NOSIG;
0120103150999992013010517204+52133+007700FM-15+0053EDDG V0202701N002110033019N0112651N1+00801+00601999999ADDGF107991999999999999999999MA1103181999999MW1511REMMET061METAR EDDG 051720Z 27004KT 9999 -DZ BKN011 08/06 Q1032 NOSIG;
0120103150999992013010517504+52133+007700FM-15+0053EDDG V0202601N003110033019N0112651N1+00801+00701999999ADDGF107991999999999999999999MA1103181999999MW1511REMMET061METAR EDDG 051750Z 26006KT 9999 -DZ BKN011 08/07 Q1032 NOSIG;
0142103150999992013010518204+52133+007700FM-15+0053EDDG V0202701N002610036019N0112651N1+00801+00601999999ADDGF107991999999999999999999MA1103181999999MW1511MW2611REMMET077METAR EDDG 051820Z 27005KT 9999 -RADZ FEW010 BKN012 08/06 Q1032 TEMPO BKN009;
0147103150999992013010518504+52133+007700FM-15+0053EDDG V0202701N002610036019N0080001N1+00701+00601999999ADDGF107991999999999999999999MA1103181999999MW1511MW2611REMMET082METAR EDDG 051850Z 27005KT 8000 -DZRA SCT008 BKN012 07/06 Q1032 TEMPO 4000 BKN008;
0147103150999992013010519204+52133+007700FM-15+0053EDDG V0202601N003110036019N0080001N1+00701+00701999999ADDGF107991999999999999999999MA1103181999999MW1511MW2611REMMET082METAR EDDG 051920Z 26006KT 8000 -RADZ SCT008 BKN012 07/07 Q1032 TEMPO 4000 BKN008;
0151103150999992013010519504+52133+007700FM-15+0053EDDG V0202601N002610021019N0050001N1+00701+00701999999ADDGF107991999999999999999999MA1103121999999MW1101MW2531REMMET086METAR EDDG 051950Z 26005KT 5000 DZ BR FEW005 BKN007 BKN011 07/07 Q1031 BECMG 4000 NSW;
0162103150999992013010520204+52133+007700FM-15+0053EDDG V0202601N002610018019N0040001N1+00701+00701999999ADDGF107991999999999999999999MA1103121999999MW1101MW2511REMMET097METAR EDDG 052020Z 26005KT 4000 -DZ BR FEW004 BKN006 BKN011 07/07 Q1031 REDZ TEMPO SCT006 BKN011;
0158103150999992013010520504+52133+007700FM-15+0053EDDG V0202601N002610018019N0040001N1+00701+00701999999ADDGF107991999999999999999999MA1103121999999MW1101MW2511MW3611REMMET087METAR EDDG 052050Z 26005KT 4000 -DZRA BR BKN006 BKN011 07/07 Q1031 TEMPO SCT006 BKN011;
0163103150999992013010521204+52133+007700FM-15+0053EDDG V0202701N004110018019N0050001N1+00701+00701999999ADDGF107991999999999999999999MA1103121999999MW1101MW2511MW3611REMMET092METAR EDDG 052120Z 27008KT 5000 -DZRA BR BKN006 BKN010 07/07 Q1031 TEMPO 4000 SCT006 BKN010;
0163103150999992013010521504+52133+007700FM-15+0053EDDG V0202701N004110021019N0050001N1+00701+00601999999ADDGF107991999999999999999999MA1103121999999MW1101MW2511MW3611REMMET092METAR EDDG 052150Z 27008KT 5000 -DZRA BR BKN007 BKN010 07/06 Q1031 TEMPO 4000 SCT007 BKN010;
0147103150999992013010522204+52133+007700FM-15+0053EDDG V0202701N004110018019N0060001N1+00701+00601999999ADDGF107991999999999999999999MA1103181999999MW1511MW2611REMMET082METAR EDDG 052220Z 27008KT 6000 -DZRA FEW004 BKN006 07/06 Q1032 TEMPO 4000 BKN004;
0147103150999992013010522504+52133+007700FM-15+0053EDDG V0202701N003610036019N0070001N1+00701+00601999999ADDGF107991999999999999999999MA1103181999999MW1511MW2611REMMET082METAR EDDG 052250Z 27007KT 7000 -RADZ SCT006 BKN012 07/06 Q1032 TEMPO 4000 BKN006;
0142103150999992013010523204+52133+007700FM-15+0053EDDG V0202701N003610036019N0080001N1+00701+00601999999ADDGF107991999999999999999999MA1103121999999MW1511MW2611REMMET077METAR EDDG 052320Z 27007KT 8000 -RADZ SCT006 BKN012 07/06 Q1031 TEMPO BKN006;
0149103150999992013010523504+52133+007700FM-15+0053EDDG V0202401N002610018019N0080001N1+00701+00601999999ADDGF107991999999999999999999MA1103121999999MW1511MW2611REMMET084METAR EDDG 052350Z 24005KT 8000 -DZRA BKN006 BKN011 07/06 Q1031 TEMPO SCT006 BKN011;
0149103150999992013010600204+52133+007700FM-15+0053EDDG V0202301N002610018019N0080001N1+00701+00601999999ADDGF107991999999999999999999MA1103121999999MW1511MW2611REMMET084METAR EDDG 060020Z 23005KT 8000 -DZRA FEW004 BKN006 BKN011 07/06 Q1031 TEMPO BKN004;
0149103150999992013010600504+52133+007700FM-15+0053EDDG V0202101N002610018019N0080001N1+00701+00701999999ADDGF107991999999999999999999MA1103011999999MW1511MW2611REMMET084METAR EDDG 060050Z 21005KT 8000 -DZRA FEW004 BKN006 BKN011 07/07 Q1030 TEMPO BKN004;
0149103150999992013010601204+52133+007700FM-15+0053EDDG V0202301N002610021019N0080001N1+00701+00701999999ADDGF107991999999999999999999MA1103011999999MW1511MW2611REMMET084METAR EDDG 060120Z 23005KT 8000 -DZRA FEW004 BKN007 BKN011 07/07 Q1030 TEMPO BKN004;
0144103150999992013010601504+52133+007700FM-15+0053EDDG V0202301N003610015019N0040001N1+00701+00601999999ADDGF107991999999999999999999MA1103011999999MW1101MW2531REMMET079METAR EDDG 060150Z 23007KT 4000 DZ BR SCT004 BKN005 07/06 Q1030 BECMG 6000 NSW;
0144103150999992013010602204+52133+007700FM-15+0053EDDG V0202301N003610015019N0040001N1+00701+00701999999ADDGF107991999999999999999999MA1103011999999MW1101MW2531REMMET079METAR EDDG 060220Z 23007KT 4000 DZ BR SCT004 BKN005 07/07 Q1030 BECMG 6000 NSW;
0144103150999992013010602504+52133+007700FM-15+0053EDDG V0202301N003610015019N0045001N1+00701+00601999999ADDGF107991999999999999999999MA1102911999999MW1101MW2531REMMET079METAR EDDG 060250Z 23007KT 4500 DZ BR SCT004 BKN005 07/06 Q1029 BECMG 6000 NSW;
0137103150999992013010603204+52133+007700FM-15+0053EDDG V0202501N003610018019N0060001N1+00701+00701999999ADDGF107991999999999999999999MA1102911999999MW1511REMMET078METAR EDDG 060320Z 25007KT 6000 -DZ SCT005 BKN006 07/07 Q1029 REDZ TEMPO 4000;
0126103150999992013010603504+52133+007700FM-15+0053EDDG V0202401N003610018019N0070001N1+00701+00601999999ADDGF107991999999999999999999MA1102911999999REMMET073METAR EDDG 060350Z 24007KT 7000 SCT005 BKN006 07/06 Q1029 TEMPO 4000 -DZ;
0126103150999992013010604204+52133+007700FM-15+0053EDDG V0202501N004110018019N0070001N1+00701+00601999999ADDGF107991999999999999999999MA1102911999999REMMET073METAR EDDG 060420Z 25008KT 7000 SCT005 BKN006 07/06 Q1029 TEMPO 4000 -DZ;
0131103150999992013010604504+52133+007700FM-15+0053EDDG V0202501N003610021019N0070001N1+00701+00601999999ADDGF107991999999999999999999MA1102811999999REMMET078METAR EDDG 060450Z 25007KT 7000 BKN007 BKN020 07/06 Q1028 TEMPO SCT007 BKN020;
0131103150999992013010605204+52133+007700FM-15+0053EDDG V0202601N00361003001CN0070001N1+00701+00701999999ADDGF107991999999999999999999MA1102811999999REMMET078METAR EDDG 060520Z 26007KT 7000 FEW007 SCT010 BKN020 07/07 Q1028 TEMPO BKN007;
0131103150999992013010605504+52133+007700FM-15+0053EDDG V0202501N00361003601CN0070001N1+00801+00701999999ADDGF107991999999999999999999MA1102811999999REMMET078METAR EDDG 060550Z 25007KT 7000 FEW007 SCT012 BKN020 08/07 Q1028 TEMPO BKN007;
0117103150999992013010606204+52133+007700FM-15+0053EDDG V0202601N003610036019N0070001N1+00801+00601999999ADDGF107991999999999999999999MA1102811999999REMMET064METAR EDDG 060620Z 26007KT 7000 FEW009 BKN012 08/06 Q1028 NOSIG;
0117103150999992013010606504+52133+007700FM-15+0053EDDG V0202601N003610036019N0060001N1+00801+00601999999ADDGF107991999999999999999999MA1102811999999REMMET064METAR EDDG 060650Z 26007KT 6000 FEW009 BKN012 08/06 Q1028 NOSIG;
0117103150999992013010607204+52133+007700FM-15+0053EDDG V0202601N003610036019N0060001N1+00801+00601999999ADDGF107991999999999999999999MA1102811999999REMMET064METAR EDDG 060720Z 26007KT 6000 FEW009 BKN012 08/06 Q1028 NOSIG;
0117103150999992013010607504+52133+007700FM-15+0053EDDG V0202801N003610033019N0060001N1+00801+00601999999ADDGF107991999999999999999999MA1102911999999REMMET064METAR EDDG 060750Z 28007KT 6000 FEW009 BKN011 08/06 Q1029 NOSIG;
0143103150999992013010608204+52133+007700FM-15+0053EDDG V0202601N004610039019N0045001N1+00801+00701999999ADDGF107991999999999999999999MA1102811999999MW1101MW2511REMMET078METAR EDDG 060820Z 26009KT 4500 -DZ BR SCT008 BKN013 08/07 Q1028 TEMPO BKN008;
0124103150999992013010608504+52133+007700FM-15+0053EDDG V0202601N004610024019N0040001N1+00801+00701999999ADDGF107991999999999999999999MA1102811999999MW1101REMMET065METAR EDDG 060850Z 26009KT 4000 BR BKN008 08/07 Q1028 BECMG 6000;
0134103150999992013010609204+52133+007700FM-15+0053EDDG V0202501N005110021019N0030001N1+00801+00701999999ADDGF107991999999999999999999MA1102811999999MW1101MW2511REMMET069METAR EDDG 060920Z 25010KT 3000 -DZ BR BKN007 08/07 Q1028 BECMG 6000;
0136103150999992013010609504+52133+007700FM-15+0053EDDG V0202501N005110018019N0020001N1+00801+00701999999ADDGF107991999999999999999999MA1102811999999MW1101MW2511REMMET071METAR EDDG 060950Z 25010KT 2000 -DZ BR FEW004 BKN006 08/07 Q1028 NOSIG;
0136103150999992013010610204+52133+007700FM-15+0053EDDG V0202601N005110012019N0030001N1+00801+00701999999ADDGF107991999999999999999999MA1102811999999MW1101MW2511REMMET071METAR EDDG 061020Z 26010KT 3000 -DZ BR BKN004 BKN006 08/07 Q1028 NOSIG;
0141103150999992013010610504+52133+007700FM-15+0053EDDG V0202701N005110018019N0040001N1+00801+00701999999ADDGF107991999999999999999999MA1102811999999MW1101MW2511REMMET076METAR EDDG 061050Z 27010KT 4000 -DZ BR SCT004 BKN006 08/07 Q1028 TEMPO 6000;
0119103150999992013010611204+52133+007700FM-15+0053EDDG V0202701N005110012019N0040001N1+00801+00701999999ADDGF107991999999999999999999MA1102811999999MW1101REMMET060METAR EDDG 061120Z 27010KT 4000 BR BKN004 08/07 Q1028 NOSIG;
0129103150999992013010611504+52133+007700FM-15+0053EDDG V0202901N005710012019N0035001N1+00801+00801999999ADDGF107991999999999999999999MA1102811999999MW1101MW2511REMMET064METAR EDDG 061150Z 29011KT 3500 -DZ BR BKN004 08/08 Q1028 NOSIG;
0126103150999992013010612204+52133+007700FM-15+0053EDDG V0202801N004610024019N0050001N1+00901+00801999999ADDGF107991999999999999999999MA1102811999999MW1101REMMET067METAR EDDG 061220Z 28009KT 5000 BR SCT004 BKN008 09/08 Q1028 NOSIG;
0117103150999992013010612504+52133+007700FM-15+0053EDDG V0202801N005110030019N0060001N1+00901+00801999999ADDGF107991999999999999999999MA1102811999999REMMET064METAR EDDG 061250Z 28010KT 6000 FEW008 BKN010 09/08 Q1028 NOSIG;
0117103150999992013010613204+52133+007700FM-15+0053EDDG V0203001N004610030019N0080001N1+00901+00701999999ADDGF107991999999999999999999MA1102811999999REMMET064METAR EDDG 061320Z 30009KT 8000 FEW008 BKN010 09/07 Q1028 NOSIG;
0117103150999992013010613504+52133+007700FM-15+0053EDDG V0203001N004610033019N0112651N1+00901+00701999999ADDGF107991999999999999999999MA1102811999999REMMET064METAR EDDG 061350Z 30009KT 9999 FEW009 BKN011 09/07 Q1028 NOSIG;
0117103150999992013010614204+52133+007700FM-15+0053EDDG V0202901N003610039019N0112651N1+00901+00701999999ADDGF107991999999999999999999MA1102811999999REMMET064METAR EDDG 061420Z 29007KT 9999 FEW011 BKN013 09/07 Q1028 NOSIG;
0117103150999992013010614504+52133+007700FM-15+0053EDDG V0202801N004610039019N0112651N1+00901+00701999999ADDGF107991999999999999999999MA1102811999999REMMET064METAR EDDG 061450Z 28009KT 9999 FEW011 BKN013 09/07 Q1028 NOSIG;
0117103150999992013010615204+52133+007700FM-15+0053EDDG V0202801N004110042019N0112651N1+00901+00701999999ADDGF107991999999999999999999MA1102811999999REMMET064METAR EDDG 061520Z 28008KT 9999 FEW011 BKN014 09/07 Q1028 NOSIG;
0117103150999992013010615504+52133+007700FM-15+0053EDDG V0202701N003110042019N0112651N1+00901+00701999999ADDGF107991999999999999999999MA1102811999999REMMET064METAR EDDG 061550Z 27006KT 9999 FEW011 BKN014 09/07 Q1028 NOSIG;
0117103150999992013010616204+52133+007700FM-15+0053EDDG V0202801N004110048019N0112651N1+00901+00701999999ADDGF107991999999999999999999MA1102811999999REMMET064METAR EDDG 061620Z 28008KT 9999 FEW012 BKN016 09/07 Q1028 NOSIG;
0117103150999992013010616504+52133+007700FM-15+0053EDDG V0202801N003610048019N0112651N1+00901+00701999999ADDGF107991999999999999999999MA1102811999999REMMET064METAR EDDG 061650Z 28007KT 9999 FEW012 BKN016 09/07 Q1028 NOSIG;
0117103150999992013010617204+52133+007700FM-15+0053EDDG V0202801N004110048019N0112651N1+00901+00701999999ADDGF107991999999999999999999MA1102811999999REMMET064METAR EDDG 061720Z 28008KT 9999 FEW014 BKN016 09/07 Q1028 NOSIG;
0117103150999992013010617504+52133+007700FM-15+0053EDDG V0202801N003110051019N0112651N1+00901+00701999999ADDGF107991999999999999999999MA1102811999999REMMET064METAR EDDG 061750Z 28006KT 9999 FEW014 BKN017 09/07 Q1028 NOSIG;
0117103150999992013010618204+52133+007700FM-15+0053EDDG V0202901N002610051019N0112651N1+00801+00601999999ADDGF107991999999999999999999MA1102811999999REMMET064METAR EDDG 061820Z 29005KT 9999 FEW014 BKN017 08/06 Q1028 NOSIG;
0110103150999992013010618504+52133+007700FM-15+0053EDDG V0203101N003610048019N0112651N1+00801+00601999999ADDGF107991999999999999999999MA1102811999999REMMET057METAR EDDG 061850Z 31007KT 9999 BKN016 08/06 Q1028 NOSIG;
0117103150999992013010619204+52133+007700FM-15+0053EDDG V0203001N002110048019N0112651N1+00801+00601999999ADDGF107991999999999999999999MA1102811999999REMMET064METAR EDDG 061920Z 30004KT 9999 BKN016 08/06 Q1028 TEMPO BKN012;
0110103150999992013010619504+52133+007700FM-15+0053EDDG V0202901N002610042019N0112651N1+00801+00601999999ADDGF107991999999999999999999MA1102811999999REMMET057METAR EDDG 061950Z 29005KT 9999 BKN014 08/06 Q1028 NOSIG;
0110103150999992013010620204+52133+007700FM-15+0053EDDG V0203001N003110042019N0112651N1+00801+00601999999ADDGF107991999999999999999999MA1102811999999REMMET057METAR EDDG 062020Z 30006KT 9999 BKN014 08/06 Q1028 NOSIG;
0117103150999992013010620504+52133+007700FM-15+0053EDDG V0202901N004610036019N0112651N1+00801+00501999999ADDGF107991999999999999999999MA1102911999999REMMET064METAR EDDG 062050Z 29009KT 9999 BKN012 08/05 Q1029 TEMPO BKN008;
0117103150999992013010621204+52133+007700FM-15+0053EDDG V0203001N002610033019N0112651N1+00801+00501999999ADDGF107991999999999999999999MA1102911999999REMMET064METAR EDDG 062120Z 30005KT 9999 BKN011 08/05 Q1029 TEMPO BKN008;
0117103150999992013010621504+52133+007700FM-15+0053EDDG V0203001N003110033019N0112651N1+00801+00601999999ADDGF107991999999999999999999MA1102911999999REMMET064METAR EDDG 062150Z 30006KT 9999 BKN011 08/06 Q1029 TEMPO BKN008;
0117103150999992013010622204+52133+007700FM-15+0053EDDG V0202801N002610033019N0112651N1+00801+00601999999ADDGF107991999999999999999999MA1102911999999REMMET064METAR EDDG 062220Z 28005KT 9999 BKN011 08/06 Q1029 TEMPO BKN008;
0117103150999992013010622504+52133+007700FM-15+0053EDDG V0203001N003110033019N0112651N1+00701+00501999999ADDGF107991999999999999999999MA1102911999999REMMET064METAR EDDG 062250Z 30006KT 9999 BKN011 07/05 Q1029 TEMPO BKN008;
0117103150999992013010623204+52133+007700FM-15+0053EDDG V0202701N003110033019N0112651N1+00701+00501999999ADDGF107991999999999999999999MA1102911999999REMMET064METAR EDDG 062320Z 27006KT 9999 BKN011 07/05 Q1029 TEMPO BKN008;
0117103150999992013010623504+52133+007700FM-15+0053EDDG V0202901N004110033019N0112651N1+00701+00501999999ADDGF107991999999999999999999MA1102911999999REMMET064METAR EDDG 062350Z 29008KT 9999 BKN011 07/05 Q1029 TEMPO BKN008;
0117103150999992013010700204+52133+007700FM-15+0053EDDG V0202701N002610033019N0112651N1+00701+00501999999ADDGF107991999999999999999999MA1102811999999REMMET064METAR EDDG 070020Z 27005KT 9999 BKN011 07/05 Q1028 TEMPO BKN008;
0117103150999992013010700504+52133+007700FM-15+0053EDDG V0202701N002110033019N0112651N1+00701+00501999999ADDGF107991999999999999999999MA1102811999999REMMET064METAR EDDG 070050Z 27004KT 9999 BKN011 07/05 Q1028 TEMPO BKN008;
0117103150999992013010701204+52133+007700FM-15+0053EDDG V0202701N002610033019N0112651N1+00701+00501999999ADDGF107991999999999999999999MA1102811999999REMMET064METAR EDDG 070120Z 27005KT 9999 BKN011 07/05 Q1028 TEMPO BKN008;
0117103150999992013010701504+52133+007700FM-15+0053EDDG V0202801N001010033019N0112651N1+00701+00601999999ADDGF107991999999999999999999MA1102811999999REMMET064METAR EDDG 070150Z 28002KT 9999 BKN011 07/06 Q1028 TEMPO BKN008;
0124103150999992013010702204+52133+007700FM-15+0053EDDG V0202701N002610033019N0112651N1+00701+00601999999ADDGF107991999999999999999999MA1102811999999REMMET071METAR EDDG 070220Z 27005KT 9999 FEW009 BKN011 07/06 Q1028 TEMPO BKN008;
0124103150999992013010702504+52133+007700FM-15+0053EDDG V0202801N002110033019N0112651N1+00701+00601999999ADDGF107991999999999999999999MA1102811999999REMMET071METAR EDDG 070250Z 28004KT 9999 FEW009 BKN011 07/06 Q1028 TEMPO BKN008;
0132103150999992013010703204+52133+007700FM-15+0053EDDG V0202701N002110033019N0090001N1+00701+00601999999ADDGF107991999999999999999999MA1102811999999REMMET079METAR EDDG 070320Z 27004KT 9000 FEW009 BKN011 07/06 Q1028 BECMG 4000 BR BKN008;
0132103150999992013010703504+52133+007700FM-15+0053EDDG V0202901N003110021019N0090001N1+00701+00601999999ADDGF107991999999999999999999MA1102811999999REMMET079METAR EDDG 070350Z 29006KT 9000 BKN007 BKN011 07/06 Q1028 BECMG 3000 BR BKN004;
0124103150999992013010704204+52133+007700FM-15+0053EDDG V0202901N002610012019N0040001N1+00701+00601999999ADDGF107991999999999999999999MA1102811999999MW1101REMMET065METAR EDDG 070420Z 29005KT 4000 BR BKN004 07/06 Q1028 BECMG 2000;
0124103150999992013010704504+52133+007700FM-15+0053EDDG V0202701N002610012019N0035001N1+00701+00701999999ADDGF107991999999999999999999MA1102811999999MW1101REMMET065METAR EDDG 070450Z 27005KT 3500 BR BKN004 07/07 Q1028 BECMG 2000;
0119103150999992013010705204+52133+007700FM-15+0053EDDG V0202701N002610012019N0028001N1+00701+00601999999ADDGF107991999999999999999999MA1102811999999MW1101REMMET060METAR EDDG 070520Z 27005KT 2800 BR BKN004 07/06 Q1028 NOSIG;
0119103150999992013010705504+52133+007700FM-15+0053EDDG V0202601N002110015019N0035001N1+00701+00601999999ADDGF107991999999999999999999MA1102811999999MW1101REMMET060METAR EDDG 070550Z 26004KT 3500 BR BKN005 07/06 Q1028 NOSIG;
0119103150999992013010706204+52133+007700FM-15+0053EDDG V0202601N002610009019N0028001N1+00701+00701999999ADDGF107991999999999999999999MA1102811999999MW1101REMMET060METAR EDDG 070620Z 26005KT 2800 BR BKN003 07/07 Q1028 NOSIG;
0131103150999992013010706504+52133+007700FM-15+0053EDDG V0202401N002610015019N0038001N1+00701+00701999999ADDGF107991999999999999999999MA1102811999999MW1101REMMET072METAR EDDG 070650Z 24005KT 3800 BR SCT003 BKN005 07/07 Q1028 TEMPO 2500;
0119103150999992013010707204+52133+007700FM-15+0053EDDG V0202301N002110009019N0025001N1+00701+00601999999ADDGF107991999999999999999999MA1102811999999MW1101REMMET060METAR EDDG 070720Z 23004KT 2500 BR BKN003 07/06 Q1028 NOSIG;
0119103150999992013010707504+52133+007700FM-15+0053EDDG V0202601N001510009019N0022001N1+00701+00701999999ADDGF107991999999999999999999MA1102811999999MW1101REMMET060METAR EDDG 070750Z 26003KT 2200 BR BKN003 07/07 Q1028 NOSIG;
0119103150999992013010708204+52133+007700FM-15+0053EDDG V0202201N001010009019N0022001N1+00701+00701999999ADDGF107991999999999999999999MA1102811999999MW1101REMMET060METAR EDDG 070820Z 22002KT 2200 BR BKN003 07/07 Q1028 NOSIG;
0126103150999992013010708504+52133+007700FM-15+0053EDDG V0202401N002110006019N0018001N1+00701+00701999999ADDGF107991999999999999999999MA1102811999999MW1101REMMET067METAR EDDG 070850Z 24004KT 1800 BR BKN002 07/07 Q1028 BECMG BKN006;
0126103150999992013010709204+52133+007700FM-15+0053EDDG V0202401N002610021019N0035001N1+00701+00701999999ADDGF107991999999999999999999MA1102811999999MW1101REMMET067METAR EDDG 070920Z 24005KT 3500 BR SCT003 BKN007 07/07 Q1028 NOSIG;
0126103150999992013010709504+52133+007700FM-15+0053EDDG V0202501N002110015019N0050001N1+00701+00701999999ADDGF107991999999999999999999MA1102811999999MW1101REMMET067METAR EDDG 070950Z 25004KT 5000 BR BKN005 BKN016 07/07 Q1028 NOSIG;
0110103150999992013010710204+52133+007700FM-15+0053EDDG V0202501N002610018019N0060001N1+00701+00701999999ADDGF107991999999999999999999MA1102811999999REMMET057METAR EDDG 071020Z 25005KT 6000 BKN006 07/07 Q1028 NOSIG;
0120103150999992013010710504+52133+007700FM-15+0053EDDG V0202301N002110018019N0060001N1+00701+00701999999ADDGF107991999999999999999999MA1102811999999MW1511REMMET061METAR EDDG 071050Z 23004KT 6000 -DZ BKN006 07/07 Q1028 NOSIG;
0127103150999992013010711204+52133+007700FM-15+0053EDDG V0202301N002610018019N0060001N1+00801+00701999999ADDGF107991999999999999999999MA1102811999999MW1511REMMET068METAR EDDG 071120Z 23005KT 6000 -DZ BKN006 08/07 Q1028 TEMPO BKN004;
0117103150999992013010711504+52133+007700FM-15+0053EDDG V0202401N003110015019N0060001N1+00801+00701999999ADDGF107991999999999999999999MA1102811999999REMMET064METAR EDDG 071150Z 24006KT 6000 BKN005 08/07 Q1028 TEMPO BKN004;
0117103150999992013010712204+52133+007700FM-15+0053EDDG V0202301N002110021019N0060001N1+00801+00701999999ADDGF107991999999999999999999MA1102711999999REMMET064METAR EDDG 071220Z 23004KT 6000 BKN007 08/07 Q1027 TEMPO BKN004;
0124103150999992013010712504+52133+007700FM-15+0053EDDG V0201901N002110021019N0060001N1+00801+00701999999ADDGF107991999999999999999999MA1102711999999REMMET071METAR EDDG 071250Z 19004KT 6000 BKN007 BKN016 08/07 Q1027 TEMPO BKN004;
0126103150999992013010713204+52133+007700FM-15+0053EDDG V0202201N002110021019N0050001N1+00801+00701999999ADDGF107991999999999999999999MA1102711999999MW1101REMMET067METAR EDDG 071320Z 22004KT 5000 BR BKN007 08/07 Q1027 TEMPO BKN012;
0119103150999992013010713504+52133+007700FM-15+0053EDDG V0202101N002110018019N0035001N1+00801+00701999999ADDGF107991999999999999999999MA1102711999999MW1101REMMET060METAR EDDG 071350Z 21004KT 3500 BR BKN006 08/07 Q1027 NOSIG;
0126103150999992013010714204+52133+007700FM-15+0053EDDG V0202201N002110054019N0035001N1+00801+00701999999ADDGF107991999999999999999999MA1102711999999MW1101REMMET067METAR EDDG 071420Z 22004KT 3500 BR SCT006 BKN018 08/07 Q1027 NOSIG;
0126103150999992013010714504+52133+007700FM-15+0053EDDG V0202301N001510045019N0035001N1+00801+00701999999ADDGF107991999999999999999999MA1102711999999MW1101REMMET067METAR EDDG 071450Z 23003KT 3500 BR SCT006 BKN015 08/07 Q1027 NOSIG;
0133103150999992013010715204+52133+007700FM-15+0053EDDG V0202001N002110039019N0035001N1+00801+00701999999ADDGF107991999999999999999999MA1102711999999MW1101REMMET074METAR EDDG 071520Z 20004KT 3500 BR SCT006 BKN013 08/07 Q1027 TEMPO BKN006;
0133103150999992013010715504+52133+007700FM-15+0053EDDG V0202101N002610036019N0035001N1+00801+00701999999ADDGF107991999999999999999999MA1102611999999MW1101REMMET074METAR EDDG 071550Z 21005KT 3500 BR SCT006 BKN012 08/07 Q1026 TEMPO BKN006;
0133103150999992013010716204+52133+007700FM-15+0053EDDG V0202101N002610036019N0035001N1+00801+00701999999ADDGF107991999999999999999999MA1102611999999MW1101REMMET074METAR EDDG 071620Z 21005KT 3500 BR SCT006 BKN012 08/07 Q1026 TEMPO BKN006;
0133103150999992013010716504+52133+007700FM-15+0053EDDG V0202301N001510036019N0035001N1+00801+00701999999ADDGF107991999999999999999999MA1102611999999MW1101REMMET074METAR EDDG 071650Z 23003KT 3500 BR SCT007 BKN012 08/07 Q1026 TEMPO BKN006;
0143103150999992013010717204+52133+007700FM-15+0053EDDG V0202201N001510030019N0030001N1+00801+00701999999ADDGF107991999999999999999999MA1102611999999MW1101MW2511REMMET078METAR EDDG 071720Z 22003KT 3000 -DZ BR SCT006 BKN010 08/07 Q1026 TEMPO BKN006;
0140103150999992013010717504+52133+007700FM-15+0053EDDG V0202401N001510036019N0035001N1+00801+00701999999ADDGF107991999999999999999999MA1102611999999MW1101REMMET081METAR EDDG 071750Z 24003KT 3500 BR SCT006 BKN012 BKN016 08/07 Q1026 TEMPO BKN006;
0133103150999992013010718204+52133+007700FM-15+0053EDDG V0202001N001510033019N0035001N1+00801+00701999999ADDGF107991999999999999999999MA1102611999999MW1101REMMET074METAR EDDG 071820Z 20003KT 3500 BR SCT006 BKN011 08/07 Q1026 TEMPO BKN006;
0131103150999992013010718504+52133+007700FM-15+0053EDDG V0201801N001510045019N0040001N1+00701+00701999999ADDGF107991999999999999999999MA1102611999999MW1101REMMET072METAR EDDG 071850Z 18003KT 4000 BR SCT008 BKN015 07/07 Q1026 TEMPO 6000;
0124103150999992013010719204+52133+007700FM-15+0053EDDG V0202001N002610039019N0060001N1+00801+00601999999ADDGF107991999999999999999999MA1102611999999REMMET071METAR EDDG 071920Z 20005KT 6000 SCT008 BKN013 08/06 Q1026 TEMPO BKN015;
0117103150999992013010719504+52133+007700FM-15+0053EDDG V0202201N003610042019N0070001N1+00801+00601999999ADDGF107991999999999999999999MA1102611999999REMMET064METAR EDDG 071950Z 22007KT 7000 BKN014 08/06 Q1026 TEMPO BKN015;
0110103150999992013010720204+52133+007700FM-15+0053EDDG V0202101N002610045019N0080001N1+00801+00601999999ADDGF107991999999999999999999MA1102611999999REMMET057METAR EDDG 072020Z 21005KT 8000 BKN015 08/06 Q1026 NOSIG;
0110103150999992013010720504+52133+007700FM-15+0053EDDG V0202201N002610045019N0080001N1+00801+00601999999ADDGF107991999999999999999999MA1102611999999REMMET057METAR EDDG 072050Z 22005KT 8000 BKN015 08/06 Q1026 NOSIG;
0110103150999992013010721204+52133+007700FM-15+0053EDDG V0202101N002610045019N0080001N1+00801+00501999999ADDGF107991999999999999999999MA1102611999999REMMET057METAR EDDG 072120Z 21005KT 8000 BKN015 08/05 Q1026 NOSIG;
0110103150999992013010721504+52133+007700FM-15+0053EDDG V0202301N003610045019N0080001N1+00801+00501999999ADDGF107991999999999999999999MA1102611999999REMMET057METAR EDDG 072150Z 23007KT 8000 BKN015 08/05 Q1026 NOSIG;
0132103150999992013010722204+52133+007700FM-15+0053EDDG V0202301N003110045019N0080001N1+00701+00501999999ADDGF107991999999999999999999MA1102611999999REMMET079METAR EDDG 072220Z 23006KT 8000 FEW012 BKN015 07/05 Q1026 TEMPO 3500 BR BKN009;
0132103150999992013010722504+52133+007700FM-15+0053EDDG V0202301N003110045019N0080001N1+00701+00501999999ADDGF107991999999999999999999MA1102511999999REMMET079METAR EDDG 072250Z 23006KT 8000 SCT012 BKN015 07/05 Q1025 TEMPO 3500 BR BKN009;
0125103150999992013010723204+52133+007700FM-15+0053EDDG V0202301N003610036019N0080001N1+00701+00501999999ADDGF107991999999999999999999MA1102511999999REMMET072METAR EDDG 072320Z 23007KT 8000 BKN012 07/05 Q1025 TEMPO 3500 BR BKN009;
0132103150999992013010723504+52133+007700FM-15+0053EDDG V0202201N003610036019N0060001N1+00701+00501999999ADDGF107991999999999999999999MA1102511999999REMMET079METAR EDDG 072350Z 22007KT 6000 FEW009 BKN012 07/05 Q1025 TEMPO 3500 BR BKN009;
0132103150999992013010800204+52133+007700FM-15+0053EDDG V0202301N003610036019N0060001N1+00701+00501999999ADDGF107991999999999999999999MA1102511999999REMMET079METAR EDDG 080020Z 23007KT 6000 FEW009 BKN012 07/05 Q1025 TEMPO 3500 BR BKN009;
0127103150999992013010800504+52133+007700FM-15+0053EDDG V0202301N004110024019N0040001N1+00701+00501999999ADDGF107991999999999999999999MA1102511999999MW1511REMMET068METAR EDDG 080050Z 23008KT 4000 -DZ BKN008 BKN010 07/05 Q1025 NOSIG;
0120103150999992013010801204+52133+007700FM-15+0053EDDG V0202301N003610021019N0040001N1+00701+00501999999ADDGF107991999999999999999999MA1102511999999MW1511REMMET061METAR EDDG 080120Z 23007KT 4000 -DZ BKN007 07/05 Q1025 NOSIG;
0119103150999992013010801504+52133+007700FM-15+0053EDDG V0202401N003610021019N0040001N1+00601+00501999999ADDGF107991999999999999999999MA1102511999999MW1101REMMET060METAR EDDG 080150Z 24007KT 4000 BR BKN007 06/05 Q1025 NOSIG;
0129103150999992013010802204+52133+007700FM-15+0053EDDG V0202401N003610018019N0035001N1+00601+00501999999ADDGF107991999999999999999999MA1102511999999MW1101MW2511REMMET064METAR EDDG 080220Z 24007KT 3500 -DZ BR BKN006 06/05 Q1025 NOSIG;
0126103150999992013010802504+52133+007700FM-15+0053EDDG V0202501N004110018019N0050001N1+00601+00501999999ADDGF107991999999999999999999MA1102511999999MW1101REMMET067METAR EDDG 080250Z 25008KT 5000 BR BKN006 BKN015 06/05 Q1025 NOSIG;
0125103150999992013010803204+52133+007700FM-15+0053EDDG V0202401N003610048019N0070001N1+00701+00501999999ADDGF107991999999999999999999MA1102401999999REMMET072METAR EDDG 080320Z 24007KT 7000 BKN016 07/05 Q1024 TEMPO 3500 BR BKN008;
0132103150999992013010803504+52133+007700FM-15+0053EDDG V0202401N003610051019N0070001N1+00701+00501999999ADDGF107991999999999999999999MA1102401999999REMMET079METAR EDDG 080350Z 24007KT 7000 SCT013 BKN017 07/05 Q1024 TEMPO 3500 BR BKN008;
0132103150999992013010804204+52133+007700FM-15+0053EDDG V0202301N004110060019N0080001N1+00701+00501999999ADDGF107991999999999999999999MA1102401999999REMMET079METAR EDDG 080420Z 23008KT 8000 FEW014 BKN020 07/05 Q1024 TEMPO 3500 BR BKN008;
0139103150999992013010804504+52133+007700FM-15+0053EDDG V0202401N00411005101CN0080001N1+00601+00501999999ADDGF107991999999999999999999MA1102401999999REMMET086METAR EDDG 080450Z 24008KT 8000 FEW012 SCT017 BKN024 06/05 Q1024 TEMPO 3500 BR BKN008;
0132103150999992013010805204+52133+007700FM-15+0053EDDG V0202301N003610033019N0060001N1+00601+00501999999ADDGF107991999999999999999999MA1102401999999REMMET079METAR EDDG 080520Z 23007KT 6000 SCT007 BKN011 06/05 Q1024 TEMPO 3500 BR BKN008;
0136103150999992013010805504+52133+007700FM-15+0053EDDG V0202301N003610021019N0040001N1+00601+00501999999ADDGF107991999999999999999999MA1102401999999MW1101MW2511REMMET071METAR EDDG 080550Z 23007KT 4000 -DZ BR BKN007 BKN010 06/05 Q1024 NOSIG;
0126103150999992013010806204+52133+007700FM-15+0053EDDG V0202301N003110018019N0045001N1+00601+00501999999ADDGF107991999999999999999999MA1102401999999MW1101REMMET067METAR EDDG 080620Z 23006KT 4500 BR BKN006 BKN010 06/05 Q1024 NOSIG;
0115103150999992013010806504+52133+007700FM-15+0053EDDG V0202301N003610021019N0060001N1+00601+00501999999ADDGF107991999999999999999999MA1102401999999REMMET062METAR EDDG 080650Z 23007KT 6000 BKN007 06/05 Q1024 TEMPO 4000;
0124103150999992013010807204+52133+007700FM-15+0053EDDG V0202301N004110021019N0050001N1+00601+00501999999ADDGF107991999999999999999999MA1102401999999MW1101REMMET065METAR EDDG 080720Z 23008KT 5000 BR BKN007 06/05 Q1024 TEMPO 4000;
0129103150999992013010807504+52133+007700FM-15+0053EDDG V0202301N004110021019N0040001N1+00601+00501999999ADDGF108991999999999999999999MA1102401999999MW1101MW2511REMMET064METAR EDDG 080750Z 23008KT 4000 -DZ BR OVC007 06/05 Q1024 NOSIG;
0119103150999992013010808204+52133+007700FM-15+0053EDDG V0202301N005110018019N0035001N1+00601+00501999999ADDGF108991999999999999999999MA1102401999999MW1101REMMET060METAR EDDG 080820Z 23010KT 3500 BR OVC006 06/05 Q1024 NOSIG;
0129103150999992013010808504+52133+007700FM-15+0053EDDG V0202301N004610021019N0035001N1+00601+00501999999ADDGF108991999999999999999999MA1102401999999MW1101MW2511REMMET064METAR EDDG 080850Z 23009KT 3500 -DZ BR OVC007 06/05 Q1024 NOSIG;
0129103150999992013010809204+52133+007700FM-15+0053EDDG V0202401N004110021019N0035001N1+00601+00501999999ADDGF108991999999999999999999MA1102401999999MW1101MW2511REMMET064METAR EDDG 080920Z 24008KT 3500 -DZ BR OVC007 06/05 Q1024 NOSIG;
0137103150999992013010809504+52133+007700FM-15+0053EDDG V0202301N004110018019N0032001N1+00601+00501999999ADDGF108991999999999999999999MA1102401999999MW1101MW2511MW3611REMMET066METAR EDDG 080950Z 23008KT 3200 -RADZ BR OVC006 06/05 Q1024 NOSIG;
0134103150999992013010810204+52133+007700FM-15+0053EDDG V0202301N004110018019N0028001N1+00601+00501999999ADDGF108991999999999999999999MA1102401999999MW1101MW2611REMMET069METAR EDDG 081020Z 23008KT 2800 -RA BR OVC006 06/05 Q1024 TEMPO 3500;
0124103150999992013010810504+52133+007700FM-15+0053EDDG V0202301N004110021019N0028001N1+00601+00501999999ADDGF108991999999999999999999MA1102401999999MW1101REMMET065METAR EDDG 081050Z 23008KT 2800 BR OVC007 06/05 Q1024 TEMPO 3500;
0119103150999992013010811204+52133+007700FM-15+0053EDDG V0202301N004110024019N0033001N1+00701+00601999999ADDGF107991999999999999999999MA1102401999999MW1101REMMET060METAR EDDG 081120Z 23008KT 3300 BR BKN008 07/06 Q1024 NOSIG;
0136103150999992013010811504+52133+007700FM-15+0053EDDG V0202401N004110027019N0033001N1+00701+00601999999ADDGF107991999999999999999999MA1102401999999MW1101MW2611REMMET071METAR EDDG 081150Z 24008KT 3300 -RA BR BKN009 07/06 Q1024 BECMG BKN011;
0136103150999992013010812204+52133+007700FM-15+0053EDDG V0202401N003610027019N0033001N1+00701+00601999999ADDGF107991999999999999999999MA1102401999999MW1101MW2611REMMET071METAR EDDG 081220Z 24007KT 3300 -RA BR BKN009 07/06 Q1024 BECMG BKN011;
0134103150999992013010812504+52133+007700FM-15+0053EDDG V0202301N003610033019N0033001N1+00701+00601999999ADDGF107991999999999999999999MA1102401999999MW1101MW2611REMMET069METAR EDDG 081250Z 23007KT 3300 -RA BR BKN011 07/06 Q1024 TEMPO 5000;
0141103150999992013010813204+52133+007700FM-15+0053EDDG V0202301N003610033019N0033001N1+00701+00601999999ADDGF107991999999999999999999MA1102401999999MW1101MW2611REMMET076METAR EDDG 081320Z 23007KT 3300 -RA BR SCT009 BKN011 07/06 Q1024 TEMPO 5000;
0141103150999992013010813504+52133+007700FM-15+0053EDDG V0202201N003110033019N0035001N1+00701+00601999999ADDGF107991999999999999999999MA1102401999999MW1101MW2611REMMET076METAR EDDG 081350Z 22006KT 3500 -RA BR SCT009 BKN011 07/06 Q1024 TEMPO 5000;
0131103150999992013010814204+52133+007700FM-15+0053EDDG V0202301N003110039019N0035001N1+00701+00601999999ADDGF107991999999999999999999MA1102401999999MW1101REMMET072METAR EDDG 081420Z 23006KT 3500 BR SCT011 BKN013 07/06 Q1024 TEMPO 5000;
0124103150999992013010814504+52133+007700FM-15+0053EDDG V0202301N002610036019N0035001N1+00701+00601999999ADDGF107991999999999999999999MA1102401999999MW1101REMMET065METAR EDDG 081450Z 23005KT 3500 BR BKN012 07/06 Q1024 TEMPO 5000;
0131103150999992013010815204+52133+007700FM-15+0053EDDG V0202301N003110036019N0037001N1+00801+00601999999ADDGF107991999999999999999999MA1102401999999MW1101REMMET072METAR EDDG 081520Z 23006KT 3700 BR BKN012 08/06 Q1024 BECMG 6000 BKN020;
0131103150999992013010815504+52133+007700FM-15+0053EDDG V0202301N003110039019N0040001N1+00801+00601999999ADDGF107991999999999999999999MA1102401999999MW1101REMMET072METAR EDDG 081550Z 23006KT 4000 BR BKN013 08/06 Q1024 BECMG 6000 BKN020;
0131103150999992013010816204+52133+007700FM-15+0053EDDG V0202301N003610033019N0048001N1+00801+00601999999ADDGF107991999999999999999999MA1102401999999MW1101REMMET072METAR EDDG 081620Z 23007KT 4800 BR BKN011 08/06 Q1024 BECMG 6000 BKN020;
0110103150999992013010816504+52133+007700FM-15+0053EDDG V0202301N003610030019N0060001N1+00801+00601999999ADDGF107991999999999999999999MA1102401999999REMMET057METAR EDDG 081650Z 23007KT 6000 BKN010 08/06 Q1024 NOSIG;
0110103150999992013010817204+52133+007700FM-15+0053EDDG V0202301N004110030019N0080001N1+00701+00601999999ADDGF107991999999999999999999MA1102401999999REMMET057METAR EDDG 081720Z 23008KT 8000 BKN010 07/06 Q1024 NOSIG;
0110103150999992013010817504+52133+007700FM-15+0053EDDG V0202301N004610030019N0080001N1+00701+00601999999ADDGF107991999999999999999999MA1102401999999REMMET057METAR EDDG 081750Z 23009KT 8000 BKN010 07/06 Q1024 NOSIG;
0110103150999992013010818204+52133+007700FM-15+0053EDDG V0202301N004110030019N0090001N1+00701+00601999999ADDGF107991999999999999999999MA1102401999999REMMET057METAR EDDG 081820Z 23008KT 9000 BKN010 07/06 Q1024 NOSIG;
0110103150999992013010818504+52133+007700FM-15+0053EDDG V0202401N003610033019N0080001N1+00701+00601999999ADDGF107991999999999999999999MA1102401999999REMMET057METAR EDDG 081850Z 24007KT 8000 BKN011 07/06 Q1024 NOSIG;
0110103150999992013010819204+52133+007700FM-15+0053EDDG V0202301N004110033019N0080001N1+00701+00601999999ADDGF107991999999999999999999MA1102401999999REMMET057METAR EDDG 081920Z 23008KT 8000 BKN011 07/06 Q1024 NOSIG;
0110103150999992013010819504+52133+007700FM-15+0053EDDG V0202301N003610030019N0080001N1+00701+00601999999ADDGF107991999999999999999999MA1102401999999REMMET057METAR EDDG 081950Z 23007KT 8000 BKN010 07/06 Q1024 NOSIG;
0110103150999992013010820204+52133+007700FM-15+0053EDDG V0202401N004110030019N0080001N1+00701+00601999999ADDGF107991999999999999999999MA1102401999999REMMET057METAR EDDG 082020Z 24008KT 8000 BKN010 07/06 Q1024 NOSIG;
0110103150999992013010820504+52133+007700FM-15+0053EDDG V0202401N003610024019N0070001N1+00701+00601999999ADDGF107991999999999999999999MA1102401999999REMMET057METAR EDDG 082050Z 24007KT 7000 BKN008 07/06 Q1024 NOSIG;
0110103150999992013010821204+52133+007700FM-15+0053EDDG V0202301N003610021019N0070001N1+00701+00601999999ADDGF107991999999999999999999MA1102301999999REMMET057METAR EDDG 082120Z 23007KT 7000 BKN007 07/06 Q1023 NOSIG;
0110103150999992013010821504+52133+007700FM-15+0053EDDG V0202301N002610027019N0070001N1+00701+00601999999ADDGF107991999999999999999999MA1102301999999REMMET057METAR EDDG 082150Z 23005KT 7000 BKN009 07/06 Q1023 NOSIG;
0110103150999992013010822204+52133+007700FM-15+0053EDDG V0202301N003110030019N0080001N1+00701+00601999999ADDGF107991999999999999999999MA1102301999999REMMET057METAR EDDG 082220Z 23006KT 8000 BKN010 07/06 Q1023 NOSIG;
0120103150999992013010822504+52133+007700FM-15+0053EDDG V0202301N002610024019N0060001N1+00701+00601999999ADDGF107991999999999999999999MA1102301999999MW1611REMMET061METAR EDDG 082250Z 23005KT 6000 -RA BKN008 07/06 Q1023 NOSIG;
0120103150999992013010823204+52133+007700FM-15+0053EDDG V0202301N003610024019N0060001N1+00701+00601999999ADDGF107991999999999999999999MA1102301999999MW1611REMMET061METAR EDDG 082320Z 23007KT 6000 -RA BKN008 07/06 Q1023 NOSIG;
0126103150999992013010823504+52133+007700FM-15+0053EDDG V0202301N003610024019N0050001N1+00701+00601999999ADDGF107991999999999999999999MA1102301999999MW1101REMMET067METAR EDDG 082350Z 23007KT 5000 BR FEW004 BKN008 07/06 Q1023 NOSIG;
0126103150999992013010900204+52133+007700FM-15+0053EDDG V0202301N003610024019N0050001N1+00701+00601999999ADDGF107991999999999999999999MA1102201999999MW1101REMMET067METAR EDDG 090020Z 23007KT 5000 BR FEW004 BKN008 07/06 Q1022 NOSIG;
0126103150999992013010900504+52133+007700FM-15+0053EDDG V0202301N004110024019N0050001N1+00701+00601999999ADDGF107991999999999999999999MA1102201999999MW1101REMMET067METAR EDDG 090050Z 23008KT 5000 BR FEW004 BKN008 07/06 Q1022 NOSIG;
0119103150999992013010901204+52133+007700FM-15+0053EDDG V0202301N004110021019N0050001N1+00701+00501999999ADDGF107991999999999999999999MA1102201999999MW1101REMMET060METAR EDDG 090120Z 23008KT 5000 BR BKN007 07/05 Q1022 NOSIG;
0119103150999992013010901504+52133+007700FM-15+0053EDDG V0202301N004110018019N0050001N1+00701+00501999999ADDGF107991999999999999999999MA1102201999999MW1101REMMET060METAR EDDG 090150Z 23008KT 5000 BR BKN006 07/05 Q1022 NOSIG;
0119103150999992013010902204+52133+007700FM-15+0053EDDG V0202301N004610018019N0050001N1+00601+00501999999ADDGF107991999999999999999999MA1102201999999MW1101REMMET060METAR EDDG 090220Z 23009KT 5000 BR BKN006 06/05 Q1022 NOSIG;
0110103150999992013010902504+52133+007700FM-15+0053EDDG V0202301N004110018019N0060001N1+00601+00501999999ADDGF107991999999999999999999MA1102201999999REMMET057METAR EDDG 090250Z 23008KT 6000 BKN006 06/05 Q1022 NOSIG;
0110103150999992013010903204+52133+007700FM-15+0053EDDG V0202201N004110018019N0060001N1+00601+00501999999ADDGF107991999999999999999999MA1102101999999REMMET057METAR EDDG 090320Z 22008KT 6000 BKN006 06/05 Q1021 NOSIG;
0110103150999992013010903504+52133+007700FM-15+0053EDDG V0202201N003610015019N0070001N1+00601+00501999999ADDGF107991999999999999999999MA1102101999999REMMET057METAR EDDG 090350Z 22007KT 7000 BKN005 06/05 Q1021 NOSIG;
0120103150999992013010904204+52133+007700FM-15+0053EDDG V0202201N003610015019N0050001N1+00601+00501999999ADDGF107991999999999999999999MA1102101999999MW1511REMMET061METAR EDDG 090420Z 22007KT 5000 -DZ BKN005 06/05 Q1021 NOSIG;
0120103150999992013010904504+52133+007700FM-15+0053EDDG V0202101N003610012019N0030001N1+00601+00501999999ADDGF107991999999999999999999MA1102001999999MW1511REMMET061METAR EDDG 090450Z 21007KT 3000 -DZ BKN004 06/05 Q1020 NOSIG;
0120103150999992013010905204+52133+007700FM-15+0053EDDG V0202201N004110012019N0030001N1+00601+00501999999ADDGF107991999999999999999999MA1102001999999MW1511REMMET061METAR EDDG 090520Z 22008KT 3000 -DZ BKN004 06/05 Q1020 NOSIG;
0138103150999992013010905504+52133+007700FM-15+0053EDDG V0202201N004610015019N0050001N1+00601+00501999999ADDGF107991999999999999999999MA1102001999999MW1101REMMET079METAR EDDG 090550Z 22009KT 5000 BR FEW003 BKN005 06/05 Q1020 TEMPO 2000 BKN004;
0161103150999992013010906204+52133+007700FM-15+0053EDDG V0202101N004110015019N0035001N1+00601+00501999999ADDGF107991999999999999999999MA1102001999999MW1101MW2511MW3611REMMET090METAR EDDG 090620Z 21008KT 3500 -DZRA BR SCT004 BKN005 06/05 Q1020 TEMPO 2000 RADZ BKN004;
0161103150999992013010906504+52133+007700FM-15+0053EDDG V0202201N004110015019N0035001N1+00601+00501999999ADDGF107991999999999999999999MA1102001999999MW1101MW2511MW3611REMMET090METAR EDDG 090650Z 22008KT 3500 -DZRA BR SCT004 BKN005 06/05 Q1020 TEMPO 2000 RADZ BKN004;
0155103150999992013010907204+52133+007700FM-15+0053EDDG V0202201N003610015019N0030001N1+00601+00501999999ADDGF107991999999999999999999MA1102001999999MW1101MW2531MW3631REMMET084METAR EDDG 090720Z 22007KT 3000 RADZ BR SCT004 BKN005 06/05 Q1020 TEMPO 2000 BKN004;
0155103150999992013010907504+52133+007700FM-15+0053EDDG V0202201N004110015019N0030001N1+00601+00501999999ADDGF107991999999999999999999MA1102001999999MW1101MW2531MW3631REMMET084METAR EDDG 090750Z 22008KT 3000 RADZ BR SCT004 BKN005 06/05 Q1020 TEMPO 2000 BKN004;
0155103150999992013010908204+52133+007700FM-15+0053EDDG V0202201N004110012019N0025001N1+00601+00501999999ADDGF107991999999999999999999MA1102001999999MW1101MW2531MW3631REMMET084METAR EDDG 090820Z 22008KT 2500 RADZ BR SCT003 BKN004 06/05 Q1020 TEMPO 4000 BKN006;
0155103150999992013010908504+52133+007700FM-15+0053EDDG V0202101N003610012019N0025001N1+00601+00501999999ADDGF107991999999999999999999MA1101901999999MW1101MW2531MW3631REMMET084METAR EDDG 090850Z 21007KT 2500 RADZ BR SCT003 BKN004 06/05 Q1019 TEMPO 4000 BKN006;
0148103150999992013010909204+52133+007700FM-15+0053EDDG V0202201N003610012019N0040001N1+00601+00601999999ADDGF107991999999999999999999MA1101901999999MW1101MW2531MW3631REMMET077METAR EDDG 090920Z 22007KT 4000 RADZ BR SCT003 BKN004 06/06 Q1019 TEMPO 2000;
0164103150999992013010909504+52133+007700FM-15+0053EDDG V0202201N00411001501CN0070001N1+00601+00501999999ADDGF107991999999999999999999MA1101901999999MW1511MW2611REMMET099METAR EDDG 090950Z 22008KT 7000 -RADZ FEW004 SCT005 BKN006 06/05 Q1019 RERA TEMPO 2500 RADZ BKN004;
0146103150999992013010910204+52133+007700FM-15+0053EDDG V0202301N00461001501CN0060001N1+00601+00501999999ADDGF107991999999999999999999MA1101901999999MW1531MW2631REMMET081METAR EDDG 091020Z 23009KT 6000 RADZ FEW004 SCT005 BKN006 06/05 Q1019 TEMPO 2500;
0139103150999992013010910504+52133+007700FM-15+0053EDDG V0202201N004110018019N0070001N1+00601+00501999999ADDGF107991999999999999999999MA1101901999999MW1531MW2631REMMET074METAR EDDG 091050Z 22008KT 7000 RADZ FEW005 BKN006 06/05 Q1019 TEMPO 2500;
0131103150999992013010911204+52133+007700FM-15+0053EDDG V0202201N004610021019N0080001N1+00601+00501999999ADDGF107991999999999999999999MA1101801999999MW1631REMMET072METAR EDDG 091120Z 22009KT 8000 RA SCT006 BKN007 06/05 Q1018 TEMPO 4000;
0131103150999992013010911504+52133+007700FM-15+0053EDDG V0202301N004610021019N0080001N1+00601+00501999999ADDGF107991999999999999999999MA1101801999999MW1631REMMET072METAR EDDG 091150Z 23009KT 8000 RA FEW006 BKN007 06/05 Q1018 TEMPO 4000;
0131103150999992013010912204+52133+007700FM-15+0053EDDG V0202301N004610021019N0080001N1+00601+00501999999ADDGF107991999999999999999999MA1101691999999MW1631REMMET072METAR EDDG 091220Z 23009KT 8000 RA FEW006 BKN007 06/05 Q1017 TEMPO 4000;
0131103150999992013010912504+52133+007700FM-15+0053EDDG V0202301N005710021019N0080001N1+00601+00501999999ADDGF107991999999999999999999MA1101691999999MW1631REMMET072METAR EDDG 091250Z 23011KT 8000 RA SCT006 BKN007 06/05 Q1017 TEMPO 4000;
0131103150999992013010913204+52133+007700FM-15+0053EDDG V0202301N005110021019N0080001N1+00601+00501999999ADDGF107991999999999999999999MA1101691999999MW1631REMMET072METAR EDDG 091320Z 23010KT 8000 RA SCT006 BKN007 06/05 Q1017 TEMPO 4000;
0137103150999992013010913504+52133+007700FM-15+0053EDDG V0202401N005110021019N0090001N1+00601+00501999999ADDGF107991999999999999999999MA1101691999999MW1611REMMET078METAR EDDG 091350Z 24010KT 9000 -RA SCT006 BKN007 06/05 Q1017 RERA TEMPO 4000;
0140103150999992013010914204+52133+007700FM-15+0053EDDG V0202401N004610021019N0080001N1+00601+00501999999ADDGF107991999999999999999999MA1101691999999MW1511MW2611REMMET075METAR EDDG 091420Z 24009KT 8000 -RADZ SCT006 BKN007 06/05 Q1017 TEMPO 4000;
0139103150999992013010914504+52133+007700FM-15+0053EDDG V0202501N004610021019N0070001N1+00601+00501999999ADDGF107991999999999999999999MA1101691999999MW1531MW2631REMMET074METAR EDDG 091450Z 25009KT 7000 RADZ SCT006 BKN007 06/05 Q1017 TEMPO 4000;
0146103150999992013010915204+52133+007700FM-15+0053EDDG V0202401N004610018019N0060001N1+00601+00501999999ADDGF107991999999999999999999MA1101691999999MW1531MW2631REMMET081METAR EDDG 091520Z 24009KT 6000 RADZ SCT005 BKN006 06/05 Q1017 TEMPO 4000 BKN004;
0153103150999992013010915504+52133+007700FM-15+0053EDDG V0202501N00411001501CN0070001N1+00601+00601999999ADDGF107991999999999999999999MA1101591999999MW1531MW2631REMMET088METAR EDDG 091550Z 25008KT 7000 RADZ FEW004 SCT005 BKN006 06/06 Q1016 TEMPO 4000 BKN004;
0139103150999992013010916204+52133+007700FM-15+0053EDDG V0202501N00361001501CN0112651N1+00601+00601999999ADDGF107991999999999999999999MA1101591999999MW1611REMMET080METAR EDDG 091620Z 25007KT 9999 -RA FEW004 SCT005 BKN006 06/06 Q1016 RERA NOSIG;
0124103150999992013010916504+52133+007700FM-15+0053EDDG V0202401N00411001501CN0112651N1+00601+00501999999ADDGF107991999999999999999999MA1101591999999REMMET071METAR EDDG 091650Z 24008KT 9999 FEW004 SCT005 BKN006 06/05 Q1016 NOSIG;
0124103150999992013010917204+52133+007700FM-15+0053EDDG V0202501N004110015019N0112651N1+00601+00601999999ADDGF107991999999999999999999MA1101591999999REMMET071METAR EDDG 091720Z 25008KT 9999 SCT004 BKN005 06/06 Q1016 TEMPO BKN004;
0117103150999992013010917504+52133+007700FM-15+0053EDDG V0202501N004110012019N0090001N1+00601+00501999999ADDGF107991999999999999999999MA1101591999999REMMET064METAR EDDG 091750Z 25008KT 9000 SCT003 BKN004 06/05 Q1016 NOSIG;
0117103150999992013010918204+52133+007700FM-15+0053EDDG V0202501N003610012019N0090001N1+00601+00601999999ADDGF107991999999999999999999MA1101591999999REMMET064METAR EDDG 091820Z 25007KT 9000 SCT003 BKN004 06/06 Q1016 NOSIG;
0124103150999992013010918504+52133+007700FM-15+0053EDDG V0202501N003110018019N0090001N1+00601+00601999999ADDGF107991999999999999999999MA1101591999999REMMET071METAR EDDG 091850Z 25006KT 9000 SCT003 BKN006 06/06 Q1016 BECMG BKN010;
0117103150999992013010919204+52133+007700FM-15+0053EDDG V0202601N003110009019N0090001N1+00601+00601999999ADDGF107991999999999999999999MA1101591999999REMMET064METAR EDDG 091920Z 26006KT 9000 BKN003 06/06 Q1016 BECMG BKN010;
0117103150999992013010919504+52133+007700FM-15+0053EDDG V0202801N003110012019N0090001N1+00601+00601999999ADDGF107991999999999999999999MA1101591999999REMMET064METAR EDDG 091950Z 28006KT 9000 BKN004 06/06 Q1016 BECMG BKN010;
0124103150999992013010920204+52133+007700FM-15+0053EDDG V0202801N002610021019N0090001N1+00601+00601999999ADDGF107991999999999999999999MA1101591999999REMMET071METAR EDDG 092020Z 28005KT 9000 FEW004 BKN007 06/06 Q1016 BECMG SCT020;
0124103150999992013010920504+52133+007700FM-15+0053EDDG V0202701N002610021019N0090001N1+00601+00601999999ADDGF107991999999999999999999MA1101591999999REMMET071METAR EDDG 092050Z 27005KT 9000 SCT004 BKN007 06/06 Q1016 BECMG SCT020;
0117103150999992013010921204+52133+007700FM-15+0053EDDG V0202701N003110027019N0112651N1+00601+00601999999ADDGF107991999999999999999999MA1101591999999REMMET064METAR EDDG 092120Z 27006KT 9999 SCT005 BKN009 06/06 Q1016 NOSIG;
0117103150999992013010921504+52133+007700FM-15+0053EDDG V0202801N003110021019N0112651N1+00601+00501999999ADDGF107991999999999999999999MA1101591999999REMMET064METAR EDDG 092150Z 28006KT 9999 SCT005 BKN007 06/05 Q1016 NOSIG;
0110103150999992013010922204+52133+007700FM-15+0053EDDG V0202901N003110018019N0112651N1+00601+00501999999ADDGF107991999999999999999999MA1101491999999REMMET057METAR EDDG 092220Z 29006KT 9999 BKN006 06/05 Q1015 NOSIG;
0117103150999992013010922504+52133+007700FM-15+0053EDDG V0202801N002110027019N0112651N1+00601+00501999999ADDGF107991999999999999999999MA1101491999999REMMET064METAR EDDG 092250Z 28004KT 9999 BKN009 06/05 Q1015 TEMPO BKN020;
0117103150999992013010923204+52133+007700FM-15+0053EDDG V0202701N002110027019N0112651N1+00601+00501999999ADDGF107991999999999999999999MA1101491999999REMMET064METAR EDDG 092320Z 27004KT 9999 BKN009 06/05 Q1015 TEMPO BKN020;
0117103150999992013010923504+52133+007700FM-15+0053EDDG V0202701N002610033019N0112651N1+00601+00501999999ADDGF107991999999999999999999MA1101491999999REMMET064METAR EDDG 092350Z 27005KT 9999 BKN011 06/05 Q1015 TEMPO BKN020;
