0104103380999992013010100204+52467+009683FM-15+0059EDDV V0202001N008210102019N0112651N1+00901+00401999999ADDGF107991999999999999999999MA1100201999999REMMET051METAR EDDV 010020Z 20016KT 9999 BKN034 09/04 Q1002;
0114103380999992013010100504+52467+009683FM-15+0059EDDV V0202001N008710099019N0112651N1+00801+00401999999ADDGF107991999999999999999999MA1100201999999MW1611REMMET055METAR EDDV 010050Z 20017KT 9999 -RA BKN033 08/04 Q1002;
0121103380999992013010101204+52467+009683FM-15+0059EDDV V0202101N008210120019N0112651N1+00801+00501999999ADDGF107991999999999999999999MA1100201999999MW1611REMMET062METAR EDDV 010120Z 21016KT 9999 -RA BKN040 BKN180 08/05 Q1002;
0121103380999992013010101504+52467+009683FM-15+0059EDDV V0202001N009310126019N0112651N1+00701+00501999999ADDGF107991999999999999999999MA1100201999999MW1611REMMET062METAR EDDV 010150Z 20018KT 9999 -RA BKN042 BKN180 07/05 Q1002;
0128103380999992013010102204+52467+009683FM-15+0059EDDV V0202001N007210126019N0112651N1+00701+00501999999ADDGF107991999999999999999999MA1100101999999MW1611REMMET069METAR EDDV 010220Z 20014KT 9999 -RA FEW027 BKN042 BKN160 07/05 Q1001;
0121103380999992013010102504+52467+009683FM-15+0059EDDV V0202001N006710081019N0112651N1+00701+00501999999ADDGF108991999999999999999999MA1100101999999MW1611REMMET062METAR EDDV 010250Z 20013KT 9999 -RA BKN027 OVC140 07/05 Q1001;
0126103380999992013010103204+52467+009683FM-15+0059EDDV V0202001N006210081019N0112651N1+00701+00501999999ADDGF108991999999999999999999MA1100101999999MW1611REMMET067METAR EDDV 010320Z 20012KT 9999 -RA BKN027 OVC120 07/05 Q1001 RERA;
0134103380999992013010103504+52467+009683FM-15+0059EDDV V0202001N006210075019N0112651N1+00701+00501999999ADDGF108991999999999999999999MA1100101999999MW1611REMMET075METAR EDDV 010350Z 20012KT 9999 -RA BKN025 OVC120 07/05 Q1001 BECMG BKN012;
0133103380999992013010104204+52467+009683FM-15+0059EDDV V0202001N006710069019N0112651N1+00701+00501999999ADDGF108991999999999999999999MA1100001999999MW1631REMMET074METAR EDDV 010420Z 20013KT 9999 RA BKN023 OVC060 07/05 Q1000 BECMG BKN012;
0139103380999992013010104504+52467+009683FM-15+0059EDDV V0202001N006710069019N0112651N1+00701+00501999999ADDGF108991999999999999999999MA1100001999999MW1611REMMET080METAR EDDV 010450Z 20013KT 9999 -RA BKN023 OVC050 07/05 Q1000 RERA BECMG BKN012;
0133103380999992013010105204+52467+009683FM-15+0059EDDV V0202001N006710078019N0112651N1+00701+00501999999ADDGF108991999999999999999999MA1100001999999MW1631REMMET074METAR EDDV 010520Z 20013KT 9999 RA BKN026 OVC040 07/05 Q1000 BECMG BKN012;
0139103380999992013010105504+52467+009683FM-15+0059EDDV V0202101N006710078019N0112651N1+00701+00501999999ADDGF108991999999999999999999MA1100001999999MW1611REMMET080METAR EDDV 010550Z 21013KT 9999 -RA FEW020 BKN026 OVC036 07/05 Q1000 RERA NOSIG;
0134103380999992013010106204+52467+009683FM-15+0059EDDV V0202101N00621010201CN0112651N1+00701+00501999999ADDGF108991999999999999999999MA1100001999999MW1611REMMET075METAR EDDV 010620Z 21012KT 9999 -RA SCT028 SCT034 OVC120 07/05 Q1000 NOSIG;
0127103380999992013010106504+52467+009683FM-15+0059EDDV V0202101N006210075019N0112651N1+00701+00501999999ADDGF107991999999999999999999MA1100001999999MW1611REMMET068METAR EDDV 010650Z 21012KT 9999 -RA FEW018 BKN025 07/05 Q1000 NOSIG;
0127103380999992013010107204+52467+009683FM-15+0059EDDV V0202001N006210078019N0112651N1+00701+00501999999ADDGF107991999999999999999999MA1100001999999MW1611REMMET068METAR EDDV 010720Z 20012KT 9999 -RA FEW018 BKN026 07/05 Q1000 NOSIG;
0134103380999992013010107504+52467+009683FM-15+0059EDDV V0202001N006210066019N0112651N1+00701+00501999999ADDGF107991999999999999999999MA1100101999999MW1611REMMET075METAR EDDV 010750Z 20012KT 9999 -RA SCT015 BKN022 07/05 Q1001 TEMPO BKN013;
0134103380999992013010108204+52467+009683FM-15+0059EDDV V0202101N005110051019N0112651N1+00701+00501999999ADDGF107991999999999999999999MA1100101999999MW1611REMMET075METAR EDDV 010820Z 21010KT 9999 -RA BKN017 BKN021 07/05 Q1001 TEMPO BKN013;
0134103380999992013010108504+52467+009683FM-15+0059EDDV V0202101N004610057019N0112651N1+00701+00501999999ADDGF107991999999999999999999MA1100101999999MW1611REMMET075METAR EDDV 010850Z 21009KT 9999 -RA BKN019 BKN022 07/05 Q1001 TEMPO BKN013;
0134103380999992013010109204+52467+009683FM-15+0059EDDV V0202101N005110051019N0112651N1+00701+00501999999ADDGF107991999999999999999999MA1100101999999MW1611REMMET075METAR EDDV 010920Z 21010KT 9999 -RA BKN017 BKN022 07/05 Q1001 TEMPO BKN013;
0134103380999992013010109504+52467+009683FM-15+0059EDDV V0202101N006210066019N0112651N1+00701+00501999999ADDGF107991999999999999999999MA1100101999999MW1611REMMET075METAR EDDV 010950Z 21012KT 9999 -RA SCT018 BKN022 07/05 Q1001 TEMPO BKN013;
0141103380999992013010110204+52467+009683FM-15+0059EDDV V0202101N006210069019N0112651N1+00701+00501999999ADDGF107991999999999999999999MA1100101999999MW1611REMMET082METAR EDDV 011020Z 21012KT 9999 -RA SCT020 BKN023 BKN048 07/05 Q1001 TEMPO BKN013;
0141103380999992013010110504+52467+009683FM-15+0059EDDV V0202401N006210069019N0112651N1+00701+00501999999ADDGF107991999999999999999999MA1100101999999MW1611REMMET082METAR EDDV 011050Z 24012KT 9999 -RA SCT020 BKN023 BKN048 07/05 Q1001 TEMPO BKN013;
0133103380999992013010111204+52467+009683FM-15+0059EDDV V0202101N005710090019N0112651N1+00701+00501999999ADDGF108991999999999999999999MA1100101999999MW1631REMMET074METAR EDDV 011120Z 21011KT 9999 RA SCT020 OVC030 07/05 Q1001 TEMPO BKN013;
0133103380999992013010111504+52467+009683FM-15+0059EDDV V0202101N005110060019N0112651N1+00701+00601999999ADDGF108991999999999999999999MA1100101999999MW1631REMMET074METAR EDDV 011150Z 21010KT 9999 RA SCT018 OVC020 07/06 Q1001 TEMPO BKN013;
0149103380999992013010112204+52467+009683FM-15+0059EDDV V0202301N005110045019N0112651N1+00701+00601999999ADDGF108991999999999999999999MA1100101999999MW1611REMMET090METAR EDDV 011220Z 23010KT 9999 -RA FEW013 BKN015 OVC020 07/06 Q1001 RERA TEMPO RA BKN013;
0134103380999992013010112504+52467+009683FM-15+0059EDDV V0202401N005710045019N0112651N1+00701+00601999999ADDGF108991999999999999999999MA1100101999999REMMET081METAR EDDV 011250Z 24011KT 9999 FEW013 BKN015 OVC020 07/06 Q1001 TEMPO RA BKN013;
0144103380999992013010113204+52467+009683FM-15+0059EDDV V0202401N004610045019N0112651N1+00701+00601999999ADDGF108991999999999999999999MA1100101999999MW1611REMMET085METAR EDDV 011320Z 24009KT 9999 -RA FEW012 BKN015 OVC020 07/06 Q1001 TEMPO RA BKN013;
0144103380999992013010113504+52467+009683FM-15+0059EDDV V0202401N005110045019N0112651N1+00701+00601999999ADDGF108991999999999999999999MA1100201999999MW1611REMMET085METAR EDDV 011350Z 24010KT 9999 -RA FEW012 BKN015 OVC017 07/06 Q1002 TEMPO RA BKN013;
0137103380999992013010114204+52467+009683FM-15+0059EDDV V0202401N004610036019N0112651N1+00701+00601999999ADDGF108991999999999999999999MA1100201999999MW1611REMMET078METAR EDDV 011420Z 24009KT 9999 -RA FEW010 BKN012 OVC019 07/06 Q1002 TEMPO RA;
0137103380999992013010114504+52467+009683FM-15+0059EDDV V0202701N006710036019N0080001N1+00701+00601999999ADDGF108991999999999999999999MA1100311999999MW1631REMMET078METAR EDDV 011450Z 27013KT 8000 RA FEW006 BKN012 OVC030 07/06 Q1003 BECMG NSW;
0149103380999992013010115204+52467+009683FM-15+0059EDDV V0202701N003610045019N0112651N1+00701+00601999999ADDGF108991999999999999999999MA1100311999999MW1611REMMET090METAR EDDV 011520Z 27007KT 9999 -RA FEW007 BKN015 OVC020 07/06 Q1003 RERA TEMPO RA BKN012;
0144103380999992013010115504+52467+009683FM-15+0059EDDV V0202801N004110045019N0112651N1+00601+00501999999ADDGF108991999999999999999999MA1100411999999MW1611REMMET085METAR EDDV 011550Z 28008KT 9999 -RA FEW009 BKN015 OVC026 06/05 Q1004 TEMPO RA BKN012;
0137103380999992013010116204+52467+009683FM-15+0059EDDV V0202801N005710114019N0112651N1+00601+00401999999ADDGF107991999999999999999999MA1100411999999MW1611REMMET078METAR EDDV 011620Z 28011KT 9999 -RA FEW010 BKN038 06/04 Q1004 TEMPO RA BKN012;
0127103380999992013010116504+52467+009683FM-15+0059EDDV V0202801N003610099019N0112651N1+00601+00501999999ADDGF107991999999999999999999MA1100511999999MW1611REMMET068METAR EDDV 011650Z 28007KT 9999 -RA FEW010 BKN033 06/05 Q1005 NOSIG;
0137103380999992013010117204+52467+009683FM-15+0059EDDV V0202901N004110060019N0112651N1+00601+00501999999ADDGF107991999999999999999999MA1100511999999MW1611REMMET078METAR EDDV 011720Z 29008KT 9999 -RA FEW015 BKN020 06/05 Q1005 TEMPO RA BKN012;
0156103380999992013010117504+52467+009683FM-15+0059EDDV V0202801N007710060019N0112651N1+00501+00301999999ADDGF108991999999999999999999MA1100611999999MW1631OC101341REMMET089METAR EDDV 011750Z 28015G26KT 9999 RA FEW015 BKN020 OVC035 05/03 Q1006 BECMG 25012KT NSW;
0122103380999992013010118204+52467+009683FM-15+0059EDDV V0202701N003610210019N0112651N1+00501+00301999999ADDGF107991999999999999999999MA1100611999999REMMET069METAR EDDV 011820Z 27007KT 9999 FEW040 BKN070 05/03 Q1006 RERA NOSIG;
0078103380999992013010118504+52467+009683FM-15+0059EDDV V0202701N004619999999Y0099001N1+00501+00301999999ADDMA1100711999999REMMET051METAR EDDV 011850Z 27009KT CAVOK 05/03 Q1007 NOSIG;
0117103380999992013010119204+52467+009683FM-15+0059EDDV V0202701N005710360019N0112651N1+00501+00301999999ADDGF107991999999999999999999MA1100811999999REMMET064METAR EDDV 011920Z 27011KT 9999 SCT040 BKN120 05/03 Q1008 NOSIG;
0110103380999992013010119504+52467+009683FM-15+0059EDDV V0202701N006212200019N0112651N1+00501+00301999999ADDGF104991999999999999999999MA1100811999999REMMET057METAR EDDV 011950Z 27012KT 9999 SCT025 05/03 Q1008 NOSIG;
0110103380999992013010120204+52467+009683FM-15+0059EDDV V0202701N005710054019N0112651N1+00401+00201999999ADDGF107991999999999999999999MA1100811999999REMMET057METAR EDDV 012020Z 27011KT 9999 BKN018 04/02 Q1008 NOSIG;
0110103380999992013010120504+52467+009683FM-15+0059EDDV V0202701N005712200019N0112651N1+00401+00201999999ADDGF102991999999999999999999MA1100911999999REMMET057METAR EDDV 012050Z 27011KT 9999 FEW020 04/02 Q1009 NOSIG;
0104103380999992013010121204+52467+009683FM-15+0059EDDV V0202601N006210126019N0112651N1+00401+00301999999ADDGF107991999999999999999999MA1100911999999REMMET051METAR EDDV 012120Z 26012KT 9999 BKN042 04/03 Q1009;
0104103380999992013010121504+52467+009683FM-15+0059EDDV V0202601N005712200019N0112651N1+00401+00201999999ADDGF102991999999999999999999MA1100911999999REMMET051METAR EDDV 012150Z 26011KT 9999 FEW040 04/02 Q1009;
0104103380999992013010122204+52467+009683FM-15+0059EDDV V0202601N006212200019N0112651N1+00401+00201999999ADDGF102991999999999999999999MA1100911999999REMMET051METAR EDDV 012220Z 26012KT 9999 FEW040 04/02 Q1009;
0104103380999992013010122504+52467+009683FM-15+0059EDDV V0202601N006710132019N0112651N1+00401+00201999999ADDGF107991999999999999999999MA1101021999999REMMET051METAR EDDV 012250Z 26013KT 9999 BKN044 04/02 Q1010;
0104103380999992013010123204+52467+009683FM-15+0059EDDV V0202601N007210138019N0112651N1+00401+00201999999ADDGF107991999999999999999999MA1101021999999REMMET051METAR EDDV 012320Z 26014KT 9999 BKN046 04/02 Q1010;
0104103380999992013010123504+52467+009683FM-15+0059EDDV V0202601N006710126019N0112651N1+00401+00201999999ADDGF107991999999999999999999MA1101021999999REMMET051METAR EDDV 012350Z 26013KT 9999 BKN042 04/02 Q1010;
0104103380999992013010200204+52467+009683FM-15+0059EDDV V0202601N007210126019N0112651N1+00401+00201999999ADDGF107991999999999999999999MA1101021999999REMMET051METAR EDDV 020020Z 26014KT 9999 BKN042 04/02 Q1010;
0104103380999992013010200504+52467+009683FM-15+0059EDDV V0202601N007710120019N0112651N1+00501+00201999999ADDGF107991999999999999999999MA1101021999999REMMET051METAR EDDV 020050Z 26015KT 9999 BKN040 05/02 Q1010;
0111103380999992013010201204+52467+009683FM-15+0059EDDV V0202601N006710102019N0112651N1+00501+00201999999ADDGF107991999999999999999999MA1101081999999REMMET058METAR EDDV 020120Z 26013KT 9999 BKN034 BKN040 05/02 Q1011;
0104103380999992013010201504+52467+009683FM-15+0059EDDV V0202601N007710078019N0112651N1+00501+00201999999ADDGF107991999999999999999999MA1101081999999REMMET051METAR EDDV 020150Z 26015KT 9999 BKN026 05/02 Q1011;
0104103380999992013010202204+52467+009683FM-15+0059EDDV V0202601N007710066019N0112651N1+00501+00201999999ADDGF107991999999999999999999MA1101081999999REMMET051METAR EDDV 020220Z 26015KT 9999 BKN022 05/02 Q1011;
0111103380999992013010202504+52467+009683FM-15+0059EDDV V0202701N008710078019N0112651N1+00501+00201999999ADDGF107991999999999999999999MA1101081999999REMMET058METAR EDDV 020250Z 27017KT 9999 SCT015 BKN026 05/02 Q1011;
0104103380999992013010203204+52467+009683FM-15+0059EDDV V0202601N007710042019N0112651N1+00501+00201999999ADDGF107991999999999999999999MA1101191999999REMMET051METAR EDDV 020320Z 26015KT 9999 BKN014 05/02 Q1012;
0157103380999992013010203504+52467+009683FM-15+0059EDDV V0202701N007710039019N0112651N1+00501+00301999999ADDGF107991999999999999999999MA1101191999999MW1801REMMET098METAR EDDV 020350Z 27015KT 9999 -SHRA BKN013 BKN028 05/03 Q1012 TEMPO 26015G25KT 4500 SHRA BKN008;
0145103380999992013010204204+52467+009683FM-15+0059EDDV V0202701N007210087019N0112651N1+00501+00301999999ADDGF107991999999999999999999MA1101191999999REMMET092METAR EDDV 020420Z 27014KT 9999 SCT017 BKN029 05/03 Q1012 TEMPO 26015G25KT 4500 SHRA BKN008;
0157103380999992013010204504+52467+009683FM-15+0059EDDV V0202701N007210057019N0112651N1+00501+00301999999ADDGF107991999999999999999999MA1101291999999MW1801REMMET098METAR EDDV 020450Z 27014KT 9999 -SHRA SCT013 BKN019 05/03 Q1013 TEMPO 26015G25KT 4500 SHRA BKN008;
0156103380999992013010205204+52467+009683FM-15+0059EDDV V0202501N004610045019N0112651N1+00501+00301999999ADDGF107991999999999999999999MA1101291999999OC100981REMMET095METAR EDDV 020520Z 25009G19KT 9999 SCT012 BKN015 05/03 Q1013 TEMPO 26015G25KT 4500 SHRA BKN008;
0145103380999992013010205504+52467+009683FM-15+0059EDDV V0202601N007210045019N0112651N1+00501+00301999999ADDGF107991999999999999999999MA1101391999999REMMET092METAR EDDV 020550Z 26014KT 9999 FEW012 BKN015 05/03 Q1014 TEMPO 26015G25KT 4500 SHRA BKN008;
0145103380999992013010206204+52467+009683FM-15+0059EDDV V0202701N006710045019N0112651N1+00501+00301999999ADDGF107991999999999999999999MA1101391999999REMMET092METAR EDDV 020620Z 27013KT 9999 FEW012 BKN015 05/03 Q1014 TEMPO 26015G25KT 4500 SHRA BKN008;
0145103380999992013010206504+52467+009683FM-15+0059EDDV V0202701N006710045019N0112651N1+00501+00301999999ADDGF107991999999999999999999MA1101491999999REMMET092METAR EDDV 020650Z 27013KT 9999 FEW012 BKN015 05/03 Q1015 TEMPO 26015G25KT 4500 SHRA BKN008;
0145103380999992013010207204+52467+009683FM-15+0059EDDV V0202701N007710045019N0112651N1+00501+00301999999ADDGF107991999999999999999999MA1101491999999REMMET092METAR EDDV 020720Z 27015KT 9999 SCT012 BKN015 05/03 Q1015 TEMPO 26015G25KT 4500 SHRA BKN008;
0145103380999992013010207504+52467+009683FM-15+0059EDDV V0202701N006710045019N0112651N1+00501+00301999999ADDGF107991999999999999999999MA1101591999999REMMET092METAR EDDV 020750Z 27013KT 9999 SCT012 BKN015 05/03 Q1016 TEMPO 26015G25KT 4500 SHRA BKN008;
0145103380999992013010208204+52467+009683FM-15+0059EDDV V0202801N006710036019N0112651N1+00501+00401999999ADDGF107991999999999999999999MA1101591999999MW1801REMMET086METAR EDDV 020820Z 28013KT 9999 -SHRA BKN012 BKN015 05/04 Q1016 TEMPO 26015G25KT SHRA;
0150103380999992013010208504+52467+009683FM-15+0059EDDV V0202901N006210036019N0080001N1+00501+00401999999ADDGF107991999999999999999999MA1101691999999MW1811OC101131REMMET083METAR EDDV 020850Z 29012G22KT 8000 SHRA BKN012 BKN020 05/04 Q1017 TEMPO 26015G25KT;
0140103380999992013010209204+52467+009683FM-15+0059EDDV V0202801N005710036019N0112651N1+00501+00401999999ADDGF107991999999999999999999MA1101801999999MW1801REMMET081METAR EDDV 020920Z 28011KT 9999 -SHRA BKN012 BKN020 05/04 Q1018 TEMPO 26015G25KT;
0128103380999992013010209504+52467+009683FM-15+0059EDDV V0202701N005710036019N0112651N1+00501+00401999999ADDGF107991999999999999999999MA1101801999999REMMET075METAR EDDV 020950Z 27011KT 9999 BKN012 05/04 Q1018 TEMPO 26015G25KT BKN015;
0128103380999992013010210204+52467+009683FM-15+0059EDDV V0202801N006210036019N0112651N1+00601+00401999999ADDGF107991999999999999999999MA1101901999999REMMET075METAR EDDV 021020Z 28012KT 9999 BKN012 06/04 Q1019 TEMPO 26015G25KT BKN015;
0128103380999992013010210504+52467+009683FM-15+0059EDDV V0202801N007710045019N0112651N1+00601+00501999999ADDGF107991999999999999999999MA1101901999999REMMET075METAR EDDV 021050Z 28015KT 9999 BKN015 06/05 Q1019 TEMPO 26015G25KT BKN012;
0135103380999992013010211204+52467+009683FM-15+0059EDDV V0202701N007210045019N0112651N1+00601+00401999999ADDGF107991999999999999999999MA1101901999999REMMET082METAR EDDV 021120Z 27014KT 9999 SCT012 BKN015 06/04 Q1019 TEMPO 26015G25KT BKN012;
0117103380999992013010211504+52467+009683FM-15+0059EDDV V0202701N006210048019N0112651N1+00601+00401999999ADDGF107991999999999999999999MA1101901999999REMMET064METAR EDDV 021150Z 27012KT 9999 FEW012 BKN016 06/04 Q1019 NOSIG;
0117103380999992013010212204+52467+009683FM-15+0059EDDV V0202701N005710048019N0112651N1+00601+00401999999ADDGF107991999999999999999999MA1102001999999REMMET064METAR EDDV 021220Z 27011KT 9999 FEW012 BKN016 06/04 Q1020 NOSIG;
0117103380999992013010212504+52467+009683FM-15+0059EDDV V0202801N005710048019N0112651N1+00701+00401999999ADDGF107991999999999999999999MA1102001999999REMMET064METAR EDDV 021250Z 28011KT 9999 BKN016 BKN028 07/04 Q1020 NOSIG;
0117103380999992013010213204+52467+009683FM-15+0059EDDV V0202801N005110093019N0112651N1+00701+00401999999ADDGF107991999999999999999999MA1102001999999REMMET064METAR EDDV 021320Z 28010KT 9999 FEW016 BKN031 07/04 Q1020 NOSIG;
0117103380999992013010213504+52467+009683FM-15+0059EDDV V0202801N005110093019N0112651N1+00701+00401999999ADDGF107991999999999999999999MA1102101999999REMMET064METAR EDDV 021350Z 28010KT 9999 FEW016 BKN031 07/04 Q1021 NOSIG;
0117103380999992013010214204+52467+009683FM-15+0059EDDV V0202701N005710093019N0112651N1+00701+00401999999ADDGF107991999999999999999999MA1102101999999REMMET064METAR EDDV 021420Z 27011KT 9999 FEW025 BKN031 07/04 Q1021 NOSIG;
0117103380999992013010214504+52467+009683FM-15+0059EDDV V0202701N006210093019N0112651N1+00701+00301999999ADDGF107991999999999999999999MA1102201999999REMMET064METAR EDDV 021450Z 27012KT 9999 FEW023 BKN031 07/03 Q1022 NOSIG;
0117103380999992013010215204+52467+009683FM-15+0059EDDV V0202801N006210120019N0112651N1+00701+00301999999ADDGF107991999999999999999999MA1102201999999REMMET064METAR EDDV 021520Z 28012KT 9999 FEW026 BKN040 07/03 Q1022 NOSIG;
0110103380999992013010215504+52467+009683FM-15+0059EDDV V0202701N005710126019N0112651N1+00701+00301999999ADDGF107991999999999999999999MA1102201999999REMMET057METAR EDDV 021550Z 27011KT 9999 BKN042 07/03 Q1022 NOSIG;
0110103380999992013010216204+52467+009683FM-15+0059EDDV V0202701N005110126019N0112651N1+00601+00301999999ADDGF107991999999999999999999MA1102301999999REMMET057METAR EDDV 021620Z 27010KT 9999 BKN042 06/03 Q1023 NOSIG;
0110103380999992013010216504+52467+009683FM-15+0059EDDV V0202601N006210135019N0112651N1+00601+00401999999ADDGF107991999999999999999999MA1102301999999REMMET057METAR EDDV 021650Z 26012KT 9999 BKN045 06/04 Q1023 NOSIG;
0110103380999992013010217204+52467+009683FM-15+0059EDDV V0202601N005710135019N0112651N1+00601+00401999999ADDGF107991999999999999999999MA1102301999999REMMET057METAR EDDV 021720Z 26011KT 9999 BKN045 06/04 Q1023 NOSIG;
0110103380999992013010217504+52467+009683FM-15+0059EDDV V0202701N006710135019N0112651N1+00601+00401999999ADDGF107991999999999999999999MA1102301999999REMMET057METAR EDDV 021750Z 27013KT 9999 BKN045 06/04 Q1023 NOSIG;
0110103380999992013010218204+52467+009683FM-15+0059EDDV V0202601N006210135019N0112651N1+00601+00301999999ADDGF107991999999999999999999MA1102401999999REMMET057METAR EDDV 021820Z 26012KT 9999 BKN045 06/03 Q1024 NOSIG;
0110103380999992013010218504+52467+009683FM-15+0059EDDV V0202601N006710135019N0112651N1+00601+00301999999ADDGF107991999999999999999999MA1102401999999REMMET057METAR EDDV 021850Z 26013KT 9999 BKN045 06/03 Q1024 NOSIG;
0110103380999992013010219204+52467+009683FM-15+0059EDDV V0202601N006210126019N0112651N1+00601+00301999999ADDGF107991999999999999999999MA1102401999999REMMET057METAR EDDV 021920Z 26012KT 9999 BKN042 06/03 Q1024 NOSIG;
0110103380999992013010219504+52467+009683FM-15+0059EDDV V0202601N006710105019N0112651N1+00601+00301999999ADDGF107991999999999999999999MA1102401999999REMMET057METAR EDDV 021950Z 26013KT 9999 BKN035 06/03 Q1024 NOSIG;
0110103380999992013010220204+52467+009683FM-15+0059EDDV V0202501N005110105019N0112651N1+00601+00301999999ADDGF107991999999999999999999MA1102401999999REMMET057METAR EDDV 022020Z 25010KT 9999 BKN035 06/03 Q1024 NOSIG;
0110103380999992013010220504+52467+009683FM-15+0059EDDV V0202501N006210105019N0112651N1+00601+00301999999ADDGF107991999999999999999999MA1102401999999REMMET057METAR EDDV 022050Z 25012KT 9999 BKN035 06/03 Q1024 NOSIG;
0111103380999992013010221204+52467+009683FM-15+0059EDDV V0202501N006210105019N0112651N1+00601+00301999999ADDGF107991999999999999999999MA1102401999999REMMET058METAR EDDV 022120Z 25012KT 9999 FEW020 BKN035 06/03 Q1024;
0111103380999992013010221504+52467+009683FM-15+0059EDDV V0202501N005710114019N0112651N1+00601+00301999999ADDGF107991999999999999999999MA1102401999999REMMET058METAR EDDV 022150Z 25011KT 9999 FEW022 BKN038 06/03 Q1024;
0111103380999992013010222204+52467+009683FM-15+0059EDDV V0202501N006710108019N0112651N1+00701+00301999999ADDGF107991999999999999999999MA1102401999999REMMET058METAR EDDV 022220Z 25013KT 9999 FEW022 BKN036 07/03 Q1024;
0121103380999992013010222504+52467+009683FM-15+0059EDDV V0202501N007210084019N0112651N1+00601+00401999999ADDGF107991999999999999999999MA1102401999999MW1611REMMET062METAR EDDV 022250Z 25014KT 9999 -RA FEW022 BKN028 06/04 Q1024;
0111103380999992013010223204+52467+009683FM-15+0059EDDV V0202501N006710150019N0112651N1+00601+00401999999ADDGF107991999999999999999999MA1102401999999REMMET058METAR EDDV 022320Z 25013KT 9999 SCT022 BKN050 06/04 Q1024;
0121103380999992013010223504+52467+009683FM-15+0059EDDV V0202501N007210144019N0112651N1+00601+00401999999ADDGF107991999999999999999999MA1102401999999MW1611REMMET062METAR EDDV 022350Z 25014KT 9999 -RA SCT022 BKN048 06/04 Q1024;
0121103380999992013010300204+52467+009683FM-15+0059EDDV V0202501N006710114019N0112651N1+00601+00401999999ADDGF107991999999999999999999MA1102301999999MW1611REMMET062METAR EDDV 030020Z 25013KT 9999 -RA SCT022 BKN038 06/04 Q1023;
0121103380999992013010300504+52467+009683FM-15+0059EDDV V0202501N005710036019N0080001N1+00601+00401999999ADDGF107991999999999999999999MA1102301999999MW1611REMMET062METAR EDDV 030050Z 25011KT 8000 -RA BKN012 BKN020 06/04 Q1023;
0121103380999992013010301204+52467+009683FM-15+0059EDDV V0202401N006710045019N0090001N1+00601+00401999999ADDGF107991999999999999999999MA1102301999999MW1611REMMET062METAR EDDV 030120Z 24013KT 9000 -RA SCT012 BKN015 06/04 Q1023;
0121103380999992013010301504+52467+009683FM-15+0059EDDV V0202401N007210045019N0112651N1+00601+00401999999ADDGF107991999999999999999999MA1102201999999MW1611REMMET062METAR EDDV 030150Z 24014KT 9999 -RA SCT012 BKN015 06/04 Q1022;
0122103380999992013010302204+52467+009683FM-15+0059EDDV V0202301N006210036019N0112651N1+00601+00401999999ADDGF107991999999999999999999MA1102201999999OC101231REMMET061METAR EDDV 030220Z 23012G24KT 9999 BKN012 BKN018 06/04 Q1022;
0121103380999992013010302504+52467+009683FM-15+0059EDDV V0202501N008710036019N0112651N1+00601+00501999999ADDGF107991999999999999999999MA1102201999999MW1611REMMET062METAR EDDV 030250Z 25017KT 9999 -RA BKN012 BKN015 06/05 Q1022;
0121103380999992013010303204+52467+009683FM-15+0059EDDV V0202501N008210036019N0112651N1+00601+00501999999ADDGF107991999999999999999999MA1102201999999MW1611REMMET062METAR EDDV 030320Z 25016KT 9999 -RA FEW007 BKN012 06/05 Q1022;
0155103380999992013010303504+52467+009683FM-15+0059EDDV V0202501N006210036019N0112651N1+00601+00501999999ADDGF107991999999999999999999MA1102201999999MW1611REMMET096METAR EDDV 030350Z 25012KT 9999 -RA SCT008 BKN012 06/05 Q1022 TEMPO 24015G25KT 4000 RADZ BKN008;
0155103380999992013010304204+52467+009683FM-15+0059EDDV V0202701N008210036019N0112651N1+00601+00501999999ADDGF107991999999999999999999MA1102201999999MW1611REMMET096METAR EDDV 030420Z 27016KT 9999 -RA SCT008 BKN012 06/05 Q1022 TEMPO 24015G25KT 4000 RADZ BKN008;
0163103380999992013010304504+52467+009683FM-15+0059EDDV V0202701N008710018019N0080001N1+00601+00601999999ADDGF107991999999999999999999MA1102201999999MW1511MW2611REMMET098METAR EDDV 030450Z 27017KT 8000 -RADZ BKN006 BKN010 06/06 Q1022 TEMPO 24015G25KT 4000 RADZ BKN004;
0163103380999992013010305204+52467+009683FM-15+0059EDDV V0202601N008210018019N0070001N1+00701+00601999999ADDGF107991999999999999999999MA1102201999999MW1511MW2611REMMET098METAR EDDV 030520Z 26016KT 7000 -RADZ BKN006 BKN010 07/06 Q1022 TEMPO 24015G25KT 4000 RADZ BKN004;
0163103380999992013010305504+52467+009683FM-15+0059EDDV V0202601N008710018019N0070001N1+00701+00601999999ADDGF107991999999999999999999MA1102201999999MW1511MW2611REMMET098METAR EDDV 030550Z 26017KT 7000 -RADZ BKN006 BKN010 07/06 Q1022 TEMPO 24015G25KT 4000 RADZ BKN004;
0163103380999992013010306204+52467+009683FM-15+0059EDDV V0202701N007710018019N0070001N1+00701+00601999999ADDGF107991999999999999999999MA1102201999999MW1511MW2611REMMET098METAR EDDV 030620Z 27015KT 7000 -RADZ BKN006 BKN010 07/06 Q1022 TEMPO 24015G25KT 4000 RADZ BKN004;
0174103380999992013010306504+52467+009683FM-15+0059EDDV V0202501N005710018019N0070001N1+00701+00701999999ADDGF107991999999999999999999MA1102201999999MW1511MW2611OC101131REMMET101METAR EDDV 030650Z 25011G22KT 7000 -RADZ BKN006 BKN010 07/07 Q1022 TEMPO 24015G25KT 4000 RADZ BKN004;
0167103380999992013010307504+52467+009683FM-15+0059EDDV V0202701N008710015019N0040001N1+00801+00701999999ADDGF107991999999999999999999MA1102301999999MW1101MW2511MW3611REMMET096METAR EDDV 030750Z 27017KT 4000 -RADZ BR SCT004 BKN005 08/07 Q1023 TEMPO 24015G25KT RADZ BKN004;
0153103380999992013010308204+52467+009683FM-15+0059EDDV V0202701N008210012019N0038001N1+00801+00701999999ADDGF107991999999999999999999MA1102301999999MW1101MW2511MW3611REMMET082METAR EDDV 030820Z 27016KT 3800 -RADZ BR BKN004 08/07 Q1023 TEMPO 24015G25KT RADZ;
0165103380999992013010309204+52467+009683FM-15+0059EDDV V0202701N008210012019N0040001N1+00801+00801999999ADDGF107991999999999999999999MA1102301999999MW1101MW2511MW3611REMMET094METAR EDDV 030920Z 27016KT 4000 -RADZ BR FEW003 BKN004 08/08 Q1023 TEMPO 24015G25KT 2500 RADZ;
0172103380999992013010309504+52467+009683FM-15+0059EDDV V0202701N008710018019N0045001N1+00901+00901999999ADDGF107991999999999999999999MA1102401999999MW1101MW2511MW3611REMMET101METAR EDDV 030950Z 27017KT 4500 -RADZ BR SCT004 BKN006 09/09 Q1024 TEMPO 24015G25KT 2500 RADZ BKN004;
0172103380999992013010310204+52467+009683FM-15+0059EDDV V0202701N007710018019N0045001N1+00901+00801999999ADDGF107991999999999999999999MA1102401999999MW1101MW2511MW3611REMMET101METAR EDDV 031020Z 27015KT 4500 -RADZ BR SCT004 BKN006 09/08 Q1024 TEMPO 24015G25KT 2500 RADZ BKN004;
0172103380999992013010310504+52467+009683FM-15+0059EDDV V0202701N008210018019N0045001N1+00901+00901999999ADDGF107991999999999999999999MA1102401999999MW1101MW2511MW3611OC101341REMMET093METAR EDDV 031050Z 27016G26KT 4500 -RADZ BR SCT004 BKN006 09/09 Q1024 TEMPO 2500 RADZ BKN004;
0164103380999992013010311204+52467+009683FM-15+0059EDDV V0202801N009310018019N0045001N1+00901+00901999999ADDGF107991999999999999999999MA1102401999999MW1101MW2511REMMET099METAR EDDV 031120Z 28018KT 4500 -DZ BR SCT004 BKN006 09/09 Q1024 TEMPO 27015G25KT 2500 RADZ BKN004;
0164103380999992013010311504+52467+009683FM-15+0059EDDV V0202801N008210018019N0045001N1+00901+00901999999ADDGF107991999999999999999999MA1102401999999MW1101MW2511REMMET099METAR EDDV 031150Z 28016KT 4500 -DZ BR SCT004 BKN006 09/09 Q1024 TEMPO 27015G25KT 2500 RADZ BKN004;
0164103380999992013010312204+52467+009683FM-15+0059EDDV V0202701N007710018019N0045001N1+00901+00901999999ADDGF107991999999999999999999MA1102401999999MW1101MW2511REMMET099METAR EDDV 031220Z 27015KT 4500 -DZ BR SCT004 BKN006 09/09 Q1024 TEMPO 27015G25KT 2500 RADZ BKN004;
0148103380999992013010312504+52467+009683FM-15+0059EDDV V0202701N007710018019N0045001N1+01001+00901999999ADDGF107991999999999999999999MA1102401999999MW1101MW2511REMMET083METAR EDDV 031250Z 27015KT 4500 -DZ BR SCT004 BKN006 10/09 Q1024 TEMPO RADZ BKN004;
0167103380999992013010313204+52467+009683FM-15+0059EDDV V0202801N008210018019N0035001N1+01001+00901999999ADDGF107991999999999999999999MA1102511999999MW1101MW2511MW3611REMMET096METAR EDDV 031320Z 28016KT 3500 -RADZ BR SCT004 BKN006 10/09 Q1025 TEMPO 27015G25KT RADZ BKN004;
0167103380999992013010313504+52467+009683FM-15+0059EDDV V0202701N006710021019N0045001N1+01001+00901999999ADDGF107991999999999999999999MA1102511999999MW1101MW2511MW3611REMMET096METAR EDDV 031350Z 27013KT 4500 -RADZ BR SCT004 BKN007 10/09 Q1025 RERA TEMPO 27015G25KT BKN004;
0162103380999992013010314204+52467+009683FM-15+0059EDDV V0202701N006710021019N0045001N1+01001+00901999999ADDGF107991999999999999999999MA1102511999999MW1101MW2511MW3611REMMET091METAR EDDV 031420Z 27013KT 4500 -RADZ BR SCT004 BKN007 10/09 Q1025 TEMPO 27015G25KT BKN004;
0127103380999992013010314504+52467+009683FM-15+0059EDDV V0202701N007710021019N0060001N1+01001+00901999999ADDGF107991999999999999999999MA1102511999999MW1511REMMET068METAR EDDV 031450Z 27015KT 6000 -DZ SCT004 BKN007 10/09 Q1025 NOSIG;
0127103380999992013010315204+52467+009683FM-15+0059EDDV V0202701N007210027019N0080001N1+01001+00901999999ADDGF107991999999999999999999MA1102611999999MW1511REMMET068METAR EDDV 031520Z 27014KT 8000 -DZ SCT007 BKN009 10/09 Q1026 NOSIG;
0135103380999992013010315504+52467+009683FM-15+0059EDDV V0202701N007710030019N0090001N1+01001+00901999999ADDGF107991999999999999999999MA1102611999999MW1511MW2611REMMET070METAR EDDV 031550Z 27015KT 9000 -RADZ FEW004 BKN010 10/09 Q1026 NOSIG;
0135103380999992013010316204+52467+009683FM-15+0059EDDV V0202701N007210027019N0090001N1+01001+00901999999ADDGF107991999999999999999999MA1102611999999MW1511MW2611REMMET070METAR EDDV 031620Z 27014KT 9000 -RADZ FEW004 BKN009 10/09 Q1026 NOSIG;
0127103380999992013010316504+52467+009683FM-15+0059EDDV V0202701N007710027019N0090001N1+01001+00901999999ADDGF107991999999999999999999MA1102611999999MW1611REMMET068METAR EDDV 031650Z 27015KT 9000 -RA FEW004 BKN009 10/09 Q1026 NOSIG;
0117103380999992013010317204+52467+009683FM-15+0059EDDV V0202801N007210030019N0112651N1+01001+00901999999ADDGF107991999999999999999999MA1102711999999REMMET064METAR EDDV 031720Z 28014KT 9999 FEW004 BKN010 10/09 Q1027 NOSIG;
0127103380999992013010317504+52467+009683FM-15+0059EDDV V0202801N005710018019N0070001N1+01001+00901999999ADDGF107991999999999999999999MA1102711999999MW1511REMMET068METAR EDDV 031750Z 28011KT 7000 -DZ FEW003 BKN006 10/09 Q1027 NOSIG;
0145103380999992013010318204+52467+009683FM-15+0059EDDV V0202801N005710018019N0045001N1+01001+00901999999ADDGF107991999999999999999999MA1102711999999MW1101REMMET086METAR EDDV 031820Z 28011KT 4500 BR FEW003 BKN006 BKN010 10/09 Q1027 TEMPO 6000 BKN010;
0134103380999992013010318504+52467+009683FM-15+0059EDDV V0202801N006210030019N0112651N1+01001+00901999999ADDGF107991999999999999999999MA1102811999999MW1511REMMET075METAR EDDV 031850Z 28012KT 9999 -DZ SCT006 BKN010 10/09 Q1028 TEMPO BKN008;
0117103380999992013010319204+52467+009683FM-15+0059EDDV V0202701N006210021019N0112651N1+01001+00901999999ADDGF107991999999999999999999MA1102811999999REMMET064METAR EDDV 031920Z 27012KT 9999 BKN007 10/09 Q1028 TEMPO BKN012;
0127103380999992013010319504+52467+009683FM-15+0059EDDV V0202801N005710021019N0112651N1+01001+00901999999ADDGF107991999999999999999999MA1102911999999MW1511REMMET068METAR EDDV 031950Z 28011KT 9999 -DZ BKN007 10/09 Q1029 TEMPO BKN012;
0134103380999992013010320204+52467+009683FM-15+0059EDDV V0202901N005710036019N0112651N1+00901+00901999999ADDGF107991999999999999999999MA1102911999999MW1511REMMET075METAR EDDV 032020Z 29011KT 9999 -DZ FEW008 BKN012 09/09 Q1029 TEMPO BKN008;
0134103380999992013010320504+52467+009683FM-15+0059EDDV V0202901N007210090019N0112651N1+00901+00801999999ADDGF107991999999999999999999MA1102911999999MW1611REMMET075METAR EDDV 032050Z 29014KT 9999 -RA SCT012 BKN030 09/08 Q1029 TEMPO BKN012;
0114103380999992013010321204+52467+009683FM-15+0059EDDV V0202901N005110036019N0112651N1+00901+00801999999ADDGF107991999999999999999999MA1103011999999MW1611REMMET055METAR EDDV 032120Z 29010KT 9999 -RA BKN012 09/08 Q1030;
0114103380999992013010321504+52467+009683FM-15+0059EDDV V0202901N006210036019N0112651N1+00901+00801999999ADDGF107991999999999999999999MA1103011999999MW1611REMMET055METAR EDDV 032150Z 29012KT 9999 -RA BKN012 09/08 Q1030;
0121103380999992013010322204+52467+009683FM-15+0059EDDV V0202801N006210036019N0112651N1+00901+00801999999ADDGF107991999999999999999999MA1103011999999MW1611REMMET062METAR EDDV 032220Z 28012KT 9999 -RA SCT008 BKN012 09/08 Q1030;
0111103380999992013010322504+52467+009683FM-15+0059EDDV V0202801N006212200019N0112651N1+00901+00801999999ADDGF104991999999999999999999MA1103011999999REMMET058METAR EDDV 032250Z 28012KT 9999 FEW008 SCT015 09/08 Q1030;
0104103380999992013010323204+52467+009683FM-15+0059EDDV V0202801N005712200019N0112651N1+00801+00701999999ADDGF104991999999999999999999MA1103011999999REMMET051METAR EDDV 032320Z 28011KT 9999 SCT015 08/07 Q1030;
0111103380999992013010323504+52467+009683FM-15+0059EDDV V0202901N006212200019N0112651N1+00801+00701999999ADDGF104991999999999999999999MA1103011999999REMMET058METAR EDDV 032350Z 29012KT 9999 FEW009 SCT012 08/07 Q1030;
0111103380999992013010400204+52467+009683FM-15+0059EDDV V0202901N006712200019N0112651N1+00801+00701999999ADDGF104991999999999999999999MA1103011999999REMMET058METAR EDDV 040020Z 29013KT 9999 FEW009 SCT012 08/07 Q1030;
0104103380999992013010400504+52467+009683FM-15+0059EDDV V0202801N006712200019N0112651N1+00801+00601999999ADDGF102991999999999999999999MA1103011999999REMMET051METAR EDDV 040050Z 28013KT 9999 FEW012 08/06 Q1030;
0104103380999992013010401204+52467+009683FM-15+0059EDDV V0202801N005712200019N0112651N1+00801+00601999999ADDGF104991999999999999999999MA1103011999999REMMET051METAR EDDV 040120Z 28011KT 9999 SCT013 08/06 Q1030;
0104103380999992013010401504+52467+009683FM-15+0059EDDV V0202801N004612200019N0112651N1+00701+00601999999ADDGF104991999999999999999999MA1103121999999REMMET051METAR EDDV 040150Z 28009KT 9999 SCT013 07/06 Q1031;
0111103380999992013010402204+52467+009683FM-15+0059EDDV V0202801N005110039019N0112651N1+00801+00701999999ADDGF107991999999999999999999MA1103121999999REMMET058METAR EDDV 040220Z 28010KT 9999 FEW009 BKN013 08/07 Q1031;
0111103380999992013010402504+52467+009683FM-15+0059EDDV V0202701N006210045019N0112651N1+00801+00701999999ADDGF107991999999999999999999MA1103011999999REMMET058METAR EDDV 040250Z 27012KT 9999 FEW010 BKN015 08/07 Q1030;
0111103380999992013010403204+52467+009683FM-15+0059EDDV V0202701N005710045019N0112651N1+00801+00701999999ADDGF107991999999999999999999MA1103011999999REMMET058METAR EDDV 040320Z 27011KT 9999 FEW010 BKN015 08/07 Q1030;
0124103380999992013010403504+52467+009683FM-15+0059EDDV V0202801N006210045019N0112651N1+00901+00701999999ADDGF107991999999999999999999MA1103011999999REMMET071METAR EDDV 040350Z 28012KT 9999 FEW010 BKN015 09/07 Q1030 TEMPO BKN010;
0110103380999992013010404204+52467+009683FM-15+0059EDDV V0202701N005110030019N0112651N1+00901+00701999999ADDGF107991999999999999999999MA1103011999999REMMET057METAR EDDV 040420Z 27010KT 9999 BKN010 09/07 Q1030 NOSIG;
0110103380999992013010404504+52467+009683FM-15+0059EDDV V0202701N006210030019N0112651N1+00901+00801999999ADDGF107991999999999999999999MA1103011999999REMMET057METAR EDDV 040450Z 27012KT 9999 BKN010 09/08 Q1030 NOSIG;
0110103380999992013010405204+52467+009683FM-15+0059EDDV V0202701N005710027019N0112651N1+00901+00801999999ADDGF107991999999999999999999MA1103011999999REMMET057METAR EDDV 040520Z 27011KT 9999 BKN009 09/08 Q1030 NOSIG;
0126103380999992013010405504+52467+009683FM-15+0059EDDV V0202901N006210024019N0090001N1+00901+00801999999ADDGF107991999999999999999999MA1103011999999REMMET073METAR EDDV 040550Z 29012KT 9000 BKN008 09/08 Q1030 TEMPO 4000 -DZ BKN004;
0126103380999992013010406204+52467+009683FM-15+0059EDDV V0202701N007210024019N0090001N1+00901+00801999999ADDGF107991999999999999999999MA1103011999999REMMET073METAR EDDV 040620Z 27014KT 9000 BKN008 09/08 Q1030 TEMPO 4000 -DZ BKN004;
0126103380999992013010406504+52467+009683FM-15+0059EDDV V0202801N006210024019N0090001N1+00901+00801999999ADDGF107991999999999999999999MA1103011999999REMMET073METAR EDDV 040650Z 28012KT 9000 BKN008 09/08 Q1030 TEMPO 4000 -DZ BKN004;
0126103380999992013010407204+52467+009683FM-15+0059EDDV V0202701N005710024019N0070001N1+01001+00801999999ADDGF107991999999999999999999MA1103011999999REMMET073METAR EDDV 040720Z 27011KT 7000 BKN008 10/08 Q1030 TEMPO 4000 -DZ BKN004;
0134103380999992013010407504+52467+009683FM-15+0059EDDV V0202701N004610015019N0045001N1+01001+00901999999ADDGF107991999999999999999999MA1103011999999MW1511REMMET075METAR EDDV 040750Z 27009KT 4500 -DZ FEW003 BKN005 10/09 Q1030 TEMPO BKN003;
0134103380999992013010408204+52467+009683FM-15+0059EDDV V0202801N005710015019N0035001N1+01001+00901999999ADDGF107991999999999999999999MA1103011999999MW1511REMMET075METAR EDDV 040820Z 28011KT 3500 -DZ FEW003 BKN005 10/09 Q1030 TEMPO BKN003;
0134103380999992013010408504+52467+009683FM-15+0059EDDV V0202801N006710015019N0032001N1+01001+00901999999ADDGF107991999999999999999999MA1103011999999MW1511REMMET075METAR EDDV 040850Z 28013KT 3200 -DZ FEW003 BKN005 10/09 Q1030 TEMPO BKN003;
0120103380999992013010409204+52467+009683FM-15+0059EDDV V0202701N007210009019N0025001N1+01001+00901999999ADDGF107991999999999999999999MA1103011999999MW1511REMMET061METAR EDDV 040920Z 27014KT 2500 -DZ BKN003 10/09 Q1030 NOSIG;
0125103380999992013010409504+52467+009683FM-15+0059EDDV V0202701N007210009019N0035001N1+01001+00901999999ADDGF107991999999999999999999MA1103011999999MW1511REMMET066METAR EDDV 040950Z 27014KT 3500 -DZ BKN003 10/09 Q1030 TEMPO 1500;
0125103380999992013010410204+52467+009683FM-15+0059EDDV V0202701N007210009019N0035001N1+01001+00901999999ADDGF107991999999999999999999MA1102911999999MW1511REMMET066METAR EDDV 041020Z 27014KT 3500 -DZ BKN003 10/09 Q1029 TEMPO 1500;
0134103380999992013010410504+52467+009683FM-15+0059EDDV V0202701N007710012019N0032001N1+01001+00901999999ADDGF107991999999999999999999MA1102911999999MW1101MW2511REMMET069METAR EDDV 041050Z 27015KT 3200 -DZ BR BKN004 10/09 Q1029 TEMPO 1500;
0134103380999992013010411204+52467+009683FM-15+0059EDDV V0202801N007710012019N0035001N1+01001+00901999999ADDGF107991999999999999999999MA1102911999999MW1101MW2511REMMET069METAR EDDV 041120Z 28015KT 3500 -DZ BR BKN004 10/09 Q1029 TEMPO 1500;
0159103380999992013010411504+52467+009683FM-15+0059EDDV V0202701N008210015019N0045001N1+01001+00901999999ADDGF107991999999999999999999MA1102911999999MW1101MW2511OC101391REMMET086METAR EDDV 041150Z 27016G27KT 4500 -DZ BR SCT004 BKN005 10/09 Q1029 TEMPO 1500 BKN004;
0148103380999992013010412204+52467+009683FM-15+0059EDDV V0202801N008210015019N0050001N1+00901+00901999999ADDGF107991999999999999999999MA1102911999999MW1101MW2511REMMET083METAR EDDV 041220Z 28016KT 5000 -DZ BR SCT004 BKN005 09/09 Q1029 TEMPO 3000 BKN004;
0139103380999992013010412504+52467+009683FM-15+0059EDDV V0202801N008210018019N0060001N1+00901+00901999999ADDGF107991999999999999999999MA1102911999999MW1511REMMET080METAR EDDV 041250Z 28016KT 6000 -DZ SCT005 BKN006 09/09 Q1029 TEMPO 4000 BKN004;
0150103380999992013010413204+52467+009683FM-15+0059EDDV V0202801N008710018019N0060001N1+00901+00801999999ADDGF107991999999999999999999MA1102911999999MW1511OC101441REMMET083METAR EDDV 041320Z 28017G28KT 6000 -DZ SCT005 BKN006 09/08 Q1029 TEMPO 4000 BKN004;
0129103380999992013010413504+52467+009683FM-15+0059EDDV V0202701N008710018019N0080001N1+00901+00801999999ADDGF107991999999999999999999MA1102911999999REMMET076METAR EDDV 041350Z 27017KT 8000 SCT005 BKN006 09/08 Q1029 TEMPO 4000 BKN004;
0133103380999992013010414204+52467+009683FM-15+0059EDDV V0203001N007710015019N0070001N1+00901+00801999999ADDGF108991999999999999999999MA1102811999999OC101391REMMET072METAR EDDV 041420Z 30015G27KT 7000 OVC005 09/08 Q1028 TEMPO 4000 BKN004;
0133103380999992013010414504+52467+009683FM-15+0059EDDV V0203001N007210015019N0080001N1+00901+00801999999ADDGF108991999999999999999999MA1102811999999OC101291REMMET072METAR EDDV 041450Z 30014G25KT 8000 OVC005 09/08 Q1028 TEMPO 4000 BKN004;
0122103380999992013010415204+52467+009683FM-15+0059EDDV V0202801N008210015019N0090001N1+00901+00801999999ADDGF108991999999999999999999MA1102811999999REMMET069METAR EDDV 041520Z 28016KT 9000 OVC005 09/08 Q1028 TEMPO 4000 BKN004;
0122103380999992013010415504+52467+009683FM-15+0059EDDV V0202801N009810015019N0060001N1+00901+00801999999ADDGF108991999999999999999999MA1102811999999REMMET069METAR EDDV 041550Z 28019KT 6000 OVC005 09/08 Q1028 TEMPO 4000 BKN004;
0129103380999992013010416204+52467+009683FM-15+0059EDDV V0202801N008710012019N0045001N1+00901+00801999999ADDGF108991999999999999999999MA1102811999999MW1101MW2511REMMET064METAR EDDV 041620Z 28017KT 4500 -DZ BR OVC004 09/08 Q1028 NOSIG;
0129103380999992013010416504+52467+009683FM-15+0059EDDV V0202801N008710009019N0040001N1+00901+00801999999ADDGF108991999999999999999999MA1102811999999MW1101MW2511REMMET064METAR EDDV 041650Z 28017KT 4000 -DZ BR OVC003 09/08 Q1028 NOSIG;
0129103380999992013010417204+52467+009683FM-15+0059EDDV V0202801N008710009019N0035001N1+00901+00801999999ADDGF108991999999999999999999MA1102811999999MW1101MW2511REMMET064METAR EDDV 041720Z 28017KT 3500 -DZ BR OVC003 09/08 Q1028 NOSIG;
0129103380999992013010417504+52467+009683FM-15+0059EDDV V0202801N007710009019N0032001N1+00901+00901999999ADDGF108991999999999999999999MA1102811999999MW1101MW2511REMMET064METAR EDDV 041750Z 28015KT 3200 -DZ BR OVC003 09/09 Q1028 NOSIG;
0129103380999992013010418204+52467+009683FM-15+0059EDDV V0202801N008210009019N0032001N1+00901+00901999999ADDGF108991999999999999999999MA1102811999999MW1101MW2511REMMET064METAR EDDV 041820Z 28016KT 3200 -DZ BR OVC003 09/09 Q1028 NOSIG;
0129103380999992013010418504+52467+009683FM-15+0059EDDV V0202801N008210009019N0032001N1+00901+00901999999ADDGF108991999999999999999999MA1102811999999MW1101MW2511REMMET064METAR EDDV 041850Z 28016KT 3200 -DZ BR OVC003 09/09 Q1028 NOSIG;
0129103380999992013010419204+52467+009683FM-15+0059EDDV V0202801N007710009019N0028001N1+00901+00901999999ADDGF108991999999999999999999MA1102811999999MW1101MW2511REMMET064METAR EDDV 041920Z 28015KT 2800 -DZ BR OVC003 09/09 Q1028 NOSIG;
0140103380999992013010419504+52467+009683FM-15+0059EDDV V0202801N008210009019N0028001N1+00801+00801999999ADDGF108991999999999999999999MA1102811999999MW1101MW2511REMMET075METAR EDDV 041950Z 28016KT 2800 -DZ BR OVC003 08/08 Q1028 TEMPO 30015G25KT;
0140103380999992013010420204+52467+009683FM-15+0059EDDV V0202801N008210009019N0025001N1+00901+00901999999ADDGF108991999999999999999999MA1102811999999MW1101MW2511REMMET075METAR EDDV 042020Z 28016KT 2500 -DZ BR OVC003 09/09 Q1028 TEMPO 30015G25KT;
0130103380999992013010420504+52467+009683FM-15+0059EDDV V0202801N008210009019N0030001N1+00901+00901999999ADDGF108991999999999999999999MA1102811999999MW1101REMMET071METAR EDDV 042050Z 28016KT 3000 BR OVC003 09/09 Q1028 TEMPO 30015G25KT;
0113103380999992013010421204+52467+009683FM-15+0059EDDV V0202801N008210012019N0030001N1+00901+00801999999ADDGF108991999999999999999999MA1102811999999MW1101REMMET054METAR EDDV 042120Z 28016KT 3000 BR OVC004 09/08 Q1028;
0113103380999992013010421504+52467+009683FM-15+0059EDDV V0202901N008710018019N0045001N1+00901+00801999999ADDGF108991999999999999999999MA1102811999999MW1101REMMET054METAR EDDV 042150Z 29017KT 4500 BR OVC006 09/08 Q1028;
0104103380999992013010422204+52467+009683FM-15+0059EDDV V0202901N008710021019N0050001N1+00901+00801999999ADDGF108991999999999999999999MA1102811999999REMMET051METAR EDDV 042220Z 29017KT 5000 OVC007 09/08 Q1028;
0104103380999992013010422504+52467+009683FM-15+0059EDDV V0202801N008710024019N0060001N1+00901+00801999999ADDGF107991999999999999999999MA1102811999999REMMET051METAR EDDV 042250Z 28017KT 6000 BKN008 09/08 Q1028;
0104103380999992013010423204+52467+009683FM-15+0059EDDV V0202801N008710024019N0080001N1+00901+00701999999ADDGF107991999999999999999999MA1102811999999REMMET051METAR EDDV 042320Z 28017KT 8000 BKN008 09/07 Q1028;
0104103380999992013010423504+52467+009683FM-15+0059EDDV V0202801N009810024019N0112651N1+00901+00701999999ADDGF107991999999999999999999MA1102811999999REMMET051METAR EDDV 042350Z 28019KT 9999 BKN008 09/07 Q1028;
0115103380999992013010500204+52467+009683FM-15+0059EDDV V0203001N006710027019N0112651N1+00901+00701999999ADDGF107991999999999999999999MA1102811999999OC101181REMMET054METAR EDDV 050020Z 30013G23KT 9999 BKN009 09/07 Q1028;
0114103380999992013010500504+52467+009683FM-15+0059EDDV V0202901N007710024019N0070001N1+00801+00701999999ADDGF107991999999999999999999MA1102811999999MW1511REMMET055METAR EDDV 050050Z 29015KT 7000 -DZ BKN008 08/07 Q1028;
0130103380999992013010501204+52467+009683FM-15+0059EDDV V0202901N007710021019N0045001N1+00801+00701999999ADDGF107991999999999999999999MA1102811999999MW1101MW2511REMMET065METAR EDDV 050120Z 29015KT 4500 -DZ BR FEW003 BKN007 08/07 Q1028;
0130103380999992013010501504+52467+009683FM-15+0059EDDV V0202901N007210018019N0045001N1+00801+00701999999ADDGF107991999999999999999999MA1102811999999MW1101MW2511REMMET065METAR EDDV 050150Z 29014KT 4500 -DZ BR FEW003 BKN006 08/07 Q1028;
0122103380999992013010502204+52467+009683FM-15+0059EDDV V0202901N008210015019N0030001N1+00801+00701999999ADDGF107991999999999999999999MA1102811999999MW1101MW2531REMMET057METAR EDDV 050220Z 29016KT 3000 DZ BR BKN005 08/07 Q1028;
0122103380999992013010502504+52467+009683FM-15+0059EDDV V0202901N006710012019N0030001N1+00801+00701999999ADDGF108991999999999999999999MA1102811999999MW1101MW2531REMMET057METAR EDDV 050250Z 29013KT 3000 DZ BR OVC004 08/07 Q1028;
0122103380999992013010503204+52467+009683FM-15+0059EDDV V0202901N006210012019N0030001N1+00801+00701999999ADDGF108991999999999999999999MA1102811999999MW1101MW2531REMMET057METAR EDDV 050320Z 29012KT 3000 DZ BR OVC004 08/07 Q1028;
0133103380999992013010503504+52467+009683FM-15+0059EDDV V0202801N006710012019N0030001N1+00801+00701999999ADDGF108991999999999999999999MA1102811999999MW1101MW2531REMMET068METAR EDDV 050350Z 28013KT 3000 DZ BR OVC004 08/07 Q1028 TEMPO 2500;
0142103380999992013010504204+52467+009683FM-15+0059EDDV V0202801N007210012019N0030001N1+00801+00701999999ADDGF108991999999999999999999MA1102811999999MW1101MW2511REMMET077METAR EDDV 050420Z 28014KT 3000 -DZ BR OVC004 08/07 Q1028 REDZ TEMPO 2500 DZ;
0137103380999992013010504504+52467+009683FM-15+0059EDDV V0202801N006710012019N0030001N1+00801+00801999999ADDGF108991999999999999999999MA1102811999999MW1101MW2511REMMET072METAR EDDV 050450Z 28013KT 3000 -DZ BR OVC004 08/08 Q1028 TEMPO 2500 DZ;
0137103380999992013010505204+52467+009683FM-15+0059EDDV V0202901N007210009019N0030001N1+00801+00801999999ADDGF108991999999999999999999MA1102811999999MW1101MW2511REMMET072METAR EDDV 050520Z 29014KT 3000 -DZ BR OVC003 08/08 Q1028 TEMPO 2500 DZ;
0137103380999992013010505504+52467+009683FM-15+0059EDDV V0202901N007210009019N0042001N1+00801+00701999999ADDGF108991999999999999999999MA1102811999999MW1101MW2511REMMET072METAR EDDV 050550Z 29014KT 4200 -DZ BR OVC003 08/07 Q1028 TEMPO 2500 DZ;
0128103380999992013010506204+52467+009683FM-15+0059EDDV V0202901N007210009019N0025001N1+00801+00801999999ADDGF108991999999999999999999MA1102811999999MW1101MW2531REMMET063METAR EDDV 050620Z 29014KT 2500 DZ BR OVC003 08/08 Q1028 NOSIG;
0135103380999992013010506504+52467+009683FM-15+0059EDDV V0202901N006710009019N0025001N1+00801+00801999999ADDGF108991999999999999999999MA1102911999999MW1101MW2531REMMET070METAR EDDV 050650Z 29013KT 2500 DZ BR BKN003 OVC004 08/08 Q1029 NOSIG;
0128103380999992013010507204+52467+009683FM-15+0059EDDV V0203001N006210009019N0025001N1+00801+00801999999ADDGF108991999999999999999999MA1102911999999MW1101MW2531REMMET063METAR EDDV 050720Z 30012KT 2500 DZ BR OVC003 08/08 Q1029 NOSIG;
0128103380999992013010507504+52467+009683FM-15+0059EDDV V0202901N006210009019N0022001N1+00801+00801999999ADDGF108991999999999999999999MA1102911999999MW1101MW2531REMMET063METAR EDDV 050750Z 29012KT 2200 DZ BR OVC003 08/08 Q1029 NOSIG;
0128103380999992013010508204+52467+009683FM-15+0059EDDV V0202901N005710009019N0019001N1+00801+00801999999ADDGF108991999999999999999999MA1102911999999MW1101MW2531REMMET063METAR EDDV 050820Z 29011KT 1900 DZ BR OVC003 08/08 Q1029 NOSIG;
0133103380999992013010508504+52467+009683FM-15+0059EDDV V0202901N006210009019N0018001N1+00801+00801999999ADDGF108991999999999999999999MA1102911999999MW1101MW2531REMMET068METAR EDDV 050850Z 29012KT 1800 DZ BR OVC003 08/08 Q1029 TEMPO 1400;
0148103380999992013010509204+52467+009683FM-15+0059EDDV V0202901N006210012019N0025001N1+00801+00801999999ADDGF108991999999999999999999MA1103011999999MW1101MW2511REMMET083METAR EDDV 050920Z 29012KT 2500 -DZ BR SCT003 BKN004 OVC006 08/08 Q1030 REDZ NOSIG;
0136103380999992013010509504+52467+009683FM-15+0059EDDV V0202901N006710009019N0027001N1+00801+00801999999ADDGF108991999999999999999999MA1103011999999MW1101MW2511REMMET071METAR EDDV 050950Z 29013KT 2700 -DZ BR BKN003 OVC006 08/08 Q1030 NOSIG;
0143103380999992013010510204+52467+009683FM-15+0059EDDV V0202901N006210012019N0050001N1+00801+00801999999ADDGF108991999999999999999999MA1103011999999MW1101MW2511REMMET078METAR EDDV 051020Z 29012KT 5000 -DZ BR SCT003 BKN004 OVC006 08/08 Q1030 NOSIG;
0127103380999992013010510504+52467+009683FM-15+0059EDDV V0202901N006710012019N0060001N1+00801+00801999999ADDGF108991999999999999999999MA1103011999999MW1511REMMET068METAR EDDV 051050Z 29013KT 6000 -DZ BKN004 OVC008 08/08 Q1030 NOSIG;
0136103380999992013010511204+52467+009683FM-15+0059EDDV V0202901N007210012019N0050001N1+00801+00801999999ADDGF108991999999999999999999MA1103011999999MW1101MW2511REMMET071METAR EDDV 051120Z 29014KT 5000 -DZ BR BKN004 OVC007 08/08 Q1030 NOSIG;
0136103380999992013010511504+52467+009683FM-15+0059EDDV V0202901N006710012019N0048001N1+00801+00801999999ADDGF108991999999999999999999MA1102911999999MW1101MW2511REMMET071METAR EDDV 051150Z 29013KT 4800 -DZ BR BKN004 OVC007 08/08 Q1029 NOSIG;
0136103380999992013010512204+52467+009683FM-15+0059EDDV V0202901N008210012019N0049001N1+00801+00801999999ADDGF108991999999999999999999MA1102911999999MW1101MW2511REMMET071METAR EDDV 051220Z 29016KT 4900 -DZ BR BKN004 OVC007 08/08 Q1029 NOSIG;
0143103380999992013010512504+52467+009683FM-15+0059EDDV V0202901N007710012019N0028001N1+00801+00801999999ADDGF108991999999999999999999MA1102911999999MW1101MW2531MW3631REMMET072METAR EDDV 051250Z 29015KT 2800 DZRA BR BKN004 OVC007 08/08 Q1029 NOSIG;
0135103380999992013010513204+52467+009683FM-15+0059EDDV V0203001N007210012019N0035001N1+00801+00801999999ADDGF108991999999999999999999MA1103011999999MW1101MW2531REMMET070METAR EDDV 051320Z 30014KT 3500 DZ BR BKN004 OVC007 08/08 Q1030 NOSIG;
0135103380999992013010513504+52467+009683FM-15+0059EDDV V0203101N005110012019N0030001N1+00801+00701999999ADDGF108991999999999999999999MA1103011999999MW1101MW2531REMMET070METAR EDDV 051350Z 31010KT 3000 DZ BR BKN004 OVC007 08/07 Q1030 NOSIG;
0143103380999992013010514204+52467+009683FM-15+0059EDDV V0202901N006210012019N0027001N1+00801+00801999999ADDGF108991999999999999999999MA1103011999999MW1101MW2531MW3631REMMET072METAR EDDV 051420Z 29012KT 2700 DZRA BR BKN004 OVC007 08/08 Q1030 NOSIG;
0143103380999992013010514504+52467+009683FM-15+0059EDDV V0202801N004610009019N0030001N1+00701+00701999999ADDGF108991999999999999999999MA1103011999999MW1101MW2531MW3631REMMET072METAR EDDV 051450Z 28009KT 3000 DZRA BR BKN003 OVC006 07/07 Q1030 NOSIG;
0135103380999992013010515204+52467+009683FM-15+0059EDDV V0202901N005110009019N0017001N1+00701+00701999999ADDGF108991999999999999999999MA1103011999999MW1101MW2531REMMET070METAR EDDV 051520Z 29010KT 1700 DZ BR SCT002 OVC003 07/07 Q1030 NOSIG;
0159103380999992013010515504+52467+009683FM-15+0059EDDV V0202901N004110009019N0013001N1+00701+00701999999ADDGF108991999999999999999999MA1103121999999MW1101MW2531REMMET094METAR EDDV 051550Z 29008KT 1300 R27R/P2000N R27L/P2000N DZ BR SCT002 OVC003 07/07 Q1031 NOSIG;
0135103380999992013010516204+52467+009683FM-15+0059EDDV V0203001N005110009019N0015001N1+00701+00701999999ADDGF108991999999999999999999MA1103121999999MW1101MW2531REMMET070METAR EDDV 051620Z 30010KT 1500 DZ BR SCT002 OVC003 07/07 Q1031 NOSIG;
0135103380999992013010516504+52467+009683FM-15+0059EDDV V0203001N005110009019N0020001N1+00701+00701999999ADDGF108991999999999999999999MA1103011999999MW1101MW2531REMMET070METAR EDDV 051650Z 30010KT 2000 DZ BR BKN003 OVC004 07/07 Q1030 NOSIG;
0132103380999992013010517204+52467+009683FM-15+0059EDDV V0203001N004610012019N0070001N1+00701+00701999999ADDGF108991999999999999999999MA1103011999999MW1511REMMET073METAR EDDV 051720Z 30009KT 7000 -DZ BKN004 OVC006 07/07 Q1030 REDZ NOSIG;
0136103380999992013010517504+52467+009683FM-15+0059EDDV V0202901N003610009019N0028001N1+00701+00701999999ADDGF108991999999999999999999MA1103011999999MW1101MW2511REMMET071METAR EDDV 051750Z 29007KT 2800 -DZ BR BKN003 OVC004 07/07 Q1030 NOSIG;
0136103380999992013010518204+52467+009683FM-15+0059EDDV V0202901N005110009019N0030001N1+00701+00701999999ADDGF108991999999999999999999MA1103011999999MW1101MW2511REMMET071METAR EDDV 051820Z 29010KT 3000 -DZ BR BKN003 OVC004 07/07 Q1030 NOSIG;
0127103380999992013010518504+52467+009683FM-15+0059EDDV V0203001N005110015019N0070001N1+00701+00701999999ADDGF108991999999999999999999MA1103011999999MW1511REMMET068METAR EDDV 051850Z 30010KT 7000 -DZ BKN005 OVC007 07/07 Q1030 NOSIG;
0127103380999992013010519204+52467+009683FM-15+0059EDDV V0202901N004610009019N0080001N1+00701+00601999999ADDGF108991999999999999999999MA1103011999999MW1511REMMET068METAR EDDV 051920Z 29009KT 8000 -DZ BKN003 OVC005 07/06 Q1030 NOSIG;
0127103380999992013010519504+52467+009683FM-15+0059EDDV V0203001N006210012019N0080001N1+00701+00601999999ADDGF108991999999999999999999MA1103011999999MW1511REMMET068METAR EDDV 051950Z 30012KT 8000 -DZ BKN004 OVC006 07/06 Q1030 NOSIG;
0134103380999992013010520204+52467+009683FM-15+0059EDDV V0202901N005110015019N0080001N1+00701+00601999999ADDGF108991999999999999999999MA1103011999999MW1511REMMET075METAR EDDV 052020Z 29010KT 8000 -DZ FEW004 BKN005 OVC008 07/06 Q1030 NOSIG;
0134103380999992013010520504+52467+009683FM-15+0059EDDV V0202901N004110015019N0060001N1+00701+00601999999ADDGF108991999999999999999999MA1103011999999MW1511REMMET075METAR EDDV 052050Z 29008KT 6000 -DZ FEW004 BKN005 OVC008 07/06 Q1030 NOSIG;
0128103380999992013010521204+52467+009683FM-15+0059EDDV V0202901N005710021019N0080001N1+00701+00601999999ADDGF108991999999999999999999MA1103011999999MW1511REMMET069METAR EDDV 052120Z 29011KT 8000 -DZ FEW004 BKN007 OVC010 07/06 Q1030;
0128103380999992013010521504+52467+009683FM-15+0059EDDV V0202901N004110018019N0080001N1+00701+00601999999ADDGF108991999999999999999999MA1103011999999MW1511REMMET069METAR EDDV 052150Z 29008KT 8000 -DZ FEW005 BKN006 OVC010 07/06 Q1030;
0128103380999992013010522204+52467+009683FM-15+0059EDDV V0203001N004110018019N0060001N1+00701+00601999999ADDGF108991999999999999999999MA1103011999999MW1511REMMET069METAR EDDV 052220Z 30008KT 6000 -DZ SCT004 BKN006 OVC010 07/06 Q1030;
0130103380999992013010522504+52467+009683FM-15+0059EDDV V0202901N003110012019N0050001N1+00701+00601999999ADDGF108991999999999999999999MA1103011999999MW1101MW2511REMMET065METAR EDDV 052250Z 29006KT 5000 -DZ BR BKN004 OVC008 07/06 Q1030;
0130103380999992013010523204+52467+009683FM-15+0059EDDV V0202801N003110012019N0050001N1+00701+00701999999ADDGF108991999999999999999999MA1103011999999MW1101MW2511REMMET065METAR EDDV 052320Z 28006KT 5000 -DZ BR BKN004 OVC008 07/07 Q1030;
0130103380999992013010523504+52467+009683FM-15+0059EDDV V0202801N004110012019N0045001N1+00701+00601999999ADDGF108991999999999999999999MA1103011999999MW1101MW2511REMMET065METAR EDDV 052350Z 28008KT 4500 -DZ BR BKN004 OVC008 07/06 Q1030;
0130103380999992013010600204+52467+009683FM-15+0059EDDV V0202701N003110012019N0040001N1+00701+00701999999ADDGF108991999999999999999999MA1103011999999MW1101MW2511REMMET065METAR EDDV 060020Z 27006KT 4000 -DZ BR BKN004 OVC008 07/07 Q1030;
0136103380999992013010600504+52467+009683FM-15+0059EDDV V0202801N003610012019N0035001N1+00701+00701999999ADDGF107991999999999999999999MA1102911999999MW1101MW2531REMMET071METAR EDDV 060050Z 28007KT 3500 DZ BR FEW003 BKN004 BKN006 07/07 Q1029;
0123103380999992013010601204+52467+009683FM-15+0059EDDV V0202801N004610024019N0090001N1+00601+00601999999ADDGF107991999999999999999999MA1102911999999REMMET070METAR EDDV 060120Z 28009KT 9000 FEW004 BKN008 BKN016 06/06 Q1029 REDZ;
0128103380999992013010601504+52467+009683FM-15+0059EDDV V0202801N004610018019N0070001N1+00601+00501999999ADDGF107991999999999999999999MA1102911999999MW1511REMMET069METAR EDDV 060150Z 28009KT 7000 -DZ FEW004 BKN006 BKN014 06/05 Q1029;
0121103380999992013010602204+52467+009683FM-15+0059EDDV V0202701N004110012019N0045001N1+00601+00601999999ADDGF107991999999999999999999MA1102811999999MW1511REMMET062METAR EDDV 060220Z 27008KT 4500 -DZ BKN004 BKN008 06/06 Q1028;
0121103380999992013010602504+52467+009683FM-15+0059EDDV V0202801N004110015019N0060001N1+00601+00601999999ADDGF107991999999999999999999MA1102811999999MW1511REMMET062METAR EDDV 060250Z 28008KT 6000 -DZ SCT004 BKN005 06/06 Q1028;
0121103380999992013010603204+52467+009683FM-15+0059EDDV V0202701N004110015019N0070001N1+00601+00601999999ADDGF107991999999999999999999MA1102811999999MW1511REMMET062METAR EDDV 060320Z 27008KT 7000 -DZ SCT004 BKN005 06/06 Q1028;
0139103380999992013010603504+52467+009683FM-15+0059EDDV V0202801N003610012019N0042001N1+00601+00601999999ADDGF107991999999999999999999MA1102711999999MW1511REMMET080METAR EDDV 060350Z 28007KT 4200 -DZ SCT003 BKN004 06/06 Q1027 REDZ TEMPO BKN006;
0127103380999992013010604204+52467+009683FM-15+0059EDDV V0202701N003610012019N0048001N1+00601+00601999999ADDGF107991999999999999999999MA1102711999999MW1511REMMET068METAR EDDV 060420Z 27007KT 4800 -DZ SCT003 BKN004 06/06 Q1027 NOSIG;
0127103380999992013010604504+52467+009683FM-15+0059EDDV V0202801N004110012019N0045001N1+00601+00601999999ADDGF107991999999999999999999MA1102711999999MW1511REMMET068METAR EDDV 060450Z 28008KT 4500 -DZ SCT003 BKN004 06/06 Q1027 NOSIG;
0125103380999992013010605204+52467+009683FM-15+0059EDDV V0202701N004610012019N0060001N1+00701+00701999999ADDGF107991999999999999999999MA1102611999999REMMET072METAR EDDV 060520Z 27009KT 6000 BKN004 BKN007 07/07 Q1026 TEMPO 4000 BR;
0142103380999992013010605504+52467+009683FM-15+0059EDDV V0202701N004610018019N0070001N1+00701+00601999999ADDGF107991999999999999999999MA1102611999999MW1511REMMET083METAR EDDV 060550Z 27009KT 7000 -DZ BKN006 BKN008 07/06 Q1026 TEMPO 4000 BR BKN004;
0139103380999992013010606204+52467+009683FM-15+0059EDDV V0202701N004610018019N0060001N1+00701+00601999999ADDGF107991999999999999999999MA1102611999999MW1511REMMET080METAR EDDV 060620Z 27009KT 6000 -DZ BKN006 BKN008 07/06 Q1026 TEMPO 4000 BKN004;
0139103380999992013010606504+52467+009683FM-15+0059EDDV V0202701N004610018019N0060001N1+00701+00601999999ADDGF107991999999999999999999MA1102611999999MW1511REMMET080METAR EDDV 060650Z 27009KT 6000 -DZ BKN006 BKN009 07/06 Q1026 TEMPO 4000 BKN004;
0132103380999992013010607204+52467+009683FM-15+0059EDDV V0202701N004610027019N0050001N1+00701+00601999999ADDGF107991999999999999999999MA1102611999999MW1511REMMET073METAR EDDV 060720Z 27009KT 5000 -DZ BKN009 BKN013 07/06 Q1026 TEMPO 4000;
0132103380999992013010607504+52467+009683FM-15+0059EDDV V0202701N005110024019N0050001N1+00701+00601999999ADDGF107991999999999999999999MA1102611999999MW1511REMMET073METAR EDDV 060750Z 27010KT 5000 -DZ BKN008 BKN012 07/06 Q1026 TEMPO 4000;
0125103380999992013010608204+52467+009683FM-15+0059EDDV V0202701N005110024019N0060001N1+00701+00601999999ADDGF107991999999999999999999MA1102511999999REMMET072METAR EDDV 060820Z 27010KT 6000 BKN008 BKN012 07/06 Q1025 TEMPO 4000 BR;
0117103380999992013010608504+52467+009683FM-15+0059EDDV V0202801N006210054019N0070001N1+00801+00601999999ADDGF108991999999999999999999MA1102511999999REMMET064METAR EDDV 060850Z 28012KT 7000 SCT009 OVC018 08/06 Q1025 NOSIG;
0117103380999992013010609204+52467+009683FM-15+0059EDDV V0202801N005110027019N0070001N1+00801+00601999999ADDGF108991999999999999999999MA1102511999999REMMET064METAR EDDV 060920Z 28010KT 7000 BKN009 OVC018 08/06 Q1025 NOSIG;
0110103380999992013010609504+52467+009683FM-15+0059EDDV V0202701N006210027019N0090001N1+00801+00701999999ADDGF107991999999999999999999MA1102511999999REMMET057METAR EDDV 060950Z 27012KT 9000 BKN009 08/07 Q1025 NOSIG;
0110103380999992013010610204+52467+009683FM-15+0059EDDV V0202801N006210021019N0060001N1+00801+00701999999ADDGF107991999999999999999999MA1102511999999REMMET057METAR EDDV 061020Z 28012KT 6000 BKN007 08/07 Q1025 NOSIG;
0119103380999992013010610504+52467+009683FM-15+0059EDDV V0202801N006710021019N0070001N1+00801+00701999999ADDGF107991999999999999999999MA1102511999999REMMET066METAR EDDV 061050Z 28013KT 7000 BKN007 08/07 Q1025 TEMPO 4000 -DZ;
0139103380999992013010611204+52467+009683FM-15+0059EDDV V0202901N006710018019N0040001N1+00801+00701999999ADDGF107991999999999999999999MA1102511999999MW1101MW2511REMMET074METAR EDDV 061120Z 29013KT 4000 -DZ BR BKN006 BKN009 08/07 Q1025 TEMPO DZ;
0147103380999992013010611504+52467+009683FM-15+0059EDDV V0202801N007210015019N0040001N1+00801+00701999999ADDGF107991999999999999999999MA1102401999999MW1101MW2511MW3611REMMET076METAR EDDV 061150Z 28014KT 4000 -RADZ BR BKN005 BKN009 08/07 Q1024 TEMPO DZ;
0160103380999992013010612204+52467+009683FM-15+0059EDDV V0202801N007210015019N0050001N1+00801+00701999999ADDGF107991999999999999999999MA1102401999999MW1101MW2511MW3611REMMET089METAR EDDV 061220Z 28014KT 5000 -RADZ BR BKN005 BKN009 08/07 Q1024 TEMPO 3000 -DZ BKN004;
0127103380999992013010612504+52467+009683FM-15+0059EDDV V0202801N006710015019N0080001N1+00801+00701999999ADDGF107991999999999999999999MA1102401999999MW1511REMMET068METAR EDDV 061250Z 28013KT 8000 -DZ BKN005 BKN012 08/07 Q1024 NOSIG;
0127103380999992013010613204+52467+009683FM-15+0059EDDV V0202901N006710021019N0112651N1+00801+00701999999ADDGF107991999999999999999999MA1102401999999MW1511REMMET068METAR EDDV 061320Z 29013KT 9999 -DZ BKN007 BKN012 08/07 Q1024 NOSIG;
0138103380999992013010613504+52467+009683FM-15+0059EDDV V0203101N005110018019N0060001N1+00801+00701999999ADDGF107991999999999999999999MA1102401999999MW1511OC101031REMMET071METAR EDDV 061350Z 31010G20KT 6000 -DZ BKN006 BKN012 08/07 Q1024 NOSIG;
0127103380999992013010614204+52467+009683FM-15+0059EDDV V0203001N006710018019N0080001N1+00801+00701999999ADDGF107991999999999999999999MA1102511999999MW1511REMMET068METAR EDDV 061420Z 30013KT 8000 -DZ BKN006 BKN012 08/07 Q1025 NOSIG;
0127103380999992013010614504+52467+009683FM-15+0059EDDV V0203001N006710018019N0080001N1+00801+00701999999ADDGF107991999999999999999999MA1102511999999MW1511REMMET068METAR EDDV 061450Z 30013KT 8000 -DZ BKN006 BKN012 08/07 Q1025 NOSIG;
0127103380999992013010615204+52467+009683FM-15+0059EDDV V0203001N005110012019N0050001N1+00801+00701999999ADDGF107991999999999999999999MA1102511999999MW1511REMMET068METAR EDDV 061520Z 30010KT 5000 -DZ BKN004 BKN012 08/07 Q1025 NOSIG;
0127103380999992013010615504+52467+009683FM-15+0059EDDV V0202901N005710012019N0040001N1+00801+00801999999ADDGF107991999999999999999999MA1102511999999MW1511REMMET068METAR EDDV 061550Z 29011KT 4000 -DZ BKN004 BKN008 08/08 Q1025 NOSIG;
0132103380999992013010616204+52467+009683FM-15+0059EDDV V0203001N005110024019N0112651N1+00801+00801999999ADDGF107991999999999999999999MA1102511999999MW1511REMMET073METAR EDDV 061620Z 30010KT 9999 -DZ SCT004 BKN008 08/08 Q1025 REDZ NOSIG;
0127103380999992013010616504+52467+009683FM-15+0059EDDV V0203001N005710018019N0112651N1+00801+00701999999ADDGF107991999999999999999999MA1102511999999MW1511REMMET068METAR EDDV 061650Z 30011KT 9999 -DZ BKN006 BKN012 08/07 Q1025 NOSIG;
0127103380999992013010617204+52467+009683FM-15+0059EDDV V0203001N005710018019N0112651N1+00801+00701999999ADDGF107991999999999999999999MA1102511999999MW1511REMMET068METAR EDDV 061720Z 30011KT 9999 -DZ BKN006 BKN012 08/07 Q1025 NOSIG;
0127103380999992013010617504+52467+009683FM-15+0059EDDV V0202901N004610021019N0112651N1+00801+00701999999ADDGF107991999999999999999999MA1102511999999MW1511REMMET068METAR EDDV 061750Z 29009KT 9999 -DZ BKN007 BKN012 08/07 Q1025 NOSIG;
0127103380999992013010618204+52467+009683FM-15+0059EDDV V0202901N005710018019N0112651N1+00701+00701999999ADDGF107991999999999999999999MA1102511999999MW1511REMMET068METAR EDDV 061820Z 29011KT 9999 -DZ BKN006 BKN012 07/07 Q1025 NOSIG;
0127103380999992013010618504+52467+009683FM-15+0059EDDV V0202901N006210015019N0112651N1+00701+00701999999ADDGF107991999999999999999999MA1102611999999MW1511REMMET068METAR EDDV 061850Z 29012KT 9999 -DZ BKN005 BKN012 07/07 Q1026 NOSIG;
0127103380999992013010619204+52467+009683FM-15+0059EDDV V0202901N006210015019N0112651N1+00701+00701999999ADDGF107991999999999999999999MA1102611999999MW1511REMMET068METAR EDDV 061920Z 29012KT 9999 -DZ BKN005 BKN010 07/07 Q1026 NOSIG;
0127103380999992013010619504+52467+009683FM-15+0059EDDV V0202901N006710015019N0080001N1+00701+00701999999ADDGF108991999999999999999999MA1102611999999MW1511REMMET068METAR EDDV 061950Z 29013KT 8000 -DZ BKN005 OVC010 07/07 Q1026 NOSIG;
0127103380999992013010620204+52467+009683FM-15+0059EDDV V0203101N006710015019N0080001N1+00701+00601999999ADDGF108991999999999999999999MA1102611999999MW1511REMMET068METAR EDDV 062020Z 31013KT 8000 -DZ BKN005 OVC010 07/06 Q1026 NOSIG;
0127103380999992013010620504+52467+009683FM-15+0059EDDV V0203101N005710015019N0112651N1+00701+00601999999ADDGF108991999999999999999999MA1102611999999MW1511REMMET068METAR EDDV 062050Z 31011KT 9999 -DZ BKN005 OVC010 07/06 Q1026 NOSIG;
0121103380999992013010621204+52467+009683FM-15+0059EDDV V0203201N005110015019N0112651N1+00701+00601999999ADDGF108991999999999999999999MA1102711999999MW1511REMMET062METAR EDDV 062120Z 32010KT 9999 -DZ BKN005 OVC012 07/06 Q1027;
0121103380999992013010621504+52467+009683FM-15+0059EDDV V0203101N004610021019N0112651N1+00701+00601999999ADDGF108991999999999999999999MA1102711999999MW1511REMMET062METAR EDDV 062150Z 31009KT 9999 -DZ BKN007 OVC012 07/06 Q1027;
0121103380999992013010622204+52467+009683FM-15+0059EDDV V0203001N006210018019N0112651N1+00601+00601999999ADDGF108991999999999999999999MA1102711999999MW1511REMMET062METAR EDDV 062220Z 30012KT 9999 -DZ BKN006 OVC010 06/06 Q1027;
0121103380999992013010622504+52467+009683FM-15+0059EDDV V0203101N006710018019N0112651N1+00601+00501999999ADDGF108991999999999999999999MA1102711999999MW1511REMMET062METAR EDDV 062250Z 31013KT 9999 -DZ BKN006 OVC010 06/05 Q1027;
0121103380999992013010623204+52467+009683FM-15+0059EDDV V0203101N005110018019N0112651N1+00601+00501999999ADDGF108991999999999999999999MA1102711999999MW1511REMMET062METAR EDDV 062320Z 31010KT 9999 -DZ BKN006 OVC020 06/05 Q1027;
0121103380999992013010623504+52467+009683FM-15+0059EDDV V0203001N003610015019N0112651N1+00601+00601999999ADDGF108991999999999999999999MA1102711999999MW1511REMMET062METAR EDDV 062350Z 30007KT 9999 -DZ BKN005 OVC010 06/06 Q1027;
0121103380999992013010700204+52467+009683FM-15+0059EDDV V0203001N005710015019N0112651N1+00601+00501999999ADDGF108991999999999999999999MA1102711999999MW1511REMMET062METAR EDDV 070020Z 30011KT 9999 -DZ BKN005 OVC010 06/05 Q1027;
0121103380999992013010700504+52467+009683FM-15+0059EDDV V0203001N004610015019N0112651N1+00601+00501999999ADDGF108991999999999999999999MA1102711999999MW1511REMMET062METAR EDDV 070050Z 30009KT 9999 -DZ BKN005 OVC011 06/05 Q1027;
0121103380999992013010701204+52467+009683FM-15+0059EDDV V0203101N004610015019N0112651N1+00601+00501999999ADDGF108991999999999999999999MA1102711999999MW1511REMMET062METAR EDDV 070120Z 31009KT 9999 -DZ BKN005 OVC011 06/05 Q1027;
0121103380999992013010701504+52467+009683FM-15+0059EDDV V0203101N002110015019N0112651N1+00601+00601999999ADDGF108991999999999999999999MA1102711999999MW1511REMMET062METAR EDDV 070150Z 31004KT 9999 -DZ BKN005 OVC011 06/06 Q1027;
0121103380999992013010702204+52467+009683FM-15+0059EDDV V0203101N004610015019N0112651N1+00601+00501999999ADDGF108991999999999999999999MA1102711999999MW1511REMMET062METAR EDDV 070220Z 31009KT 9999 -DZ BKN005 OVC011 06/05 Q1027;
0114103380999992013010702504+52467+009683FM-15+0059EDDV V0203101N002610012019N0090001N1+00601+00501999999ADDGF107991999999999999999999MA1102711999999MW1511REMMET055METAR EDDV 070250Z 31005KT 9000 -DZ BKN004 06/05 Q1027;
0121103380999992013010703204+52467+009683FM-15+0059EDDV V0203001N004110012019N0090001N1+00501+00501999999ADDGF108991999999999999999999MA1102711999999MW1511REMMET062METAR EDDV 070320Z 30008KT 9000 -DZ BKN004 OVC010 05/05 Q1027;
0127103380999992013010703504+52467+009683FM-15+0059EDDV V0203001N005110015019N0112651N1+00501+00501999999ADDGF108991999999999999999999MA1102711999999MW1511REMMET068METAR EDDV 070350Z 30010KT 9999 -DZ BKN005 OVC013 05/05 Q1027 NOSIG;
0127103380999992013010704204+52467+009683FM-15+0059EDDV V0203001N003110012019N0112651N1+00501+00501999999ADDGF108991999999999999999999MA1102711999999MW1511REMMET068METAR EDDV 070420Z 30006KT 9999 -DZ BKN004 OVC011 05/05 Q1027 NOSIG;
0117103380999992013010704504+52467+009683FM-15+0059EDDV V0203001N002610012019N0112651N1+00501+00501999999ADDGF108991999999999999999999MA1102711999999REMMET064METAR EDDV 070450Z 30005KT 9999 BKN004 OVC011 05/05 Q1027 NOSIG;
0127103380999992013010705204+52467+009683FM-15+0059EDDV V0203001N002110012019N0112651N1+00501+00501999999ADDGF108991999999999999999999MA1102711999999MW1511REMMET068METAR EDDV 070520Z 30004KT 9999 -DZ BKN004 OVC011 05/05 Q1027 NOSIG;
0134103380999992013010705504+52467+009683FM-15+0059EDDV V0203001N003110036019N0112651N1+00501+00501999999ADDGF107991999999999999999999MA1102711999999MW1511REMMET075METAR EDDV 070550Z 30006KT 9999 -DZ SCT006 BKN012 05/05 Q1027 TEMPO BKN006;
0134103380999992013010706204+52467+009683FM-15+0059EDDV V0203101N003110036019N0112651N1+00501+00501999999ADDGF107991999999999999999999MA1102711999999MW1511REMMET075METAR EDDV 070620Z 31006KT 9999 -DZ SCT006 BKN012 05/05 Q1027 TEMPO BKN006;
0134103380999992013010706504+52467+009683FM-15+0059EDDV V0202901N003110036019N0112651N1+00501+00501999999ADDGF107991999999999999999999MA1102711999999MW1511REMMET075METAR EDDV 070650Z 29006KT 9999 -DZ SCT008 BKN012 05/05 Q1027 TEMPO BKN006;
0117103380999992013010707204+52467+009683FM-15+0059EDDV V0202801N002610027019N0112651N1+00501+00501999999ADDGF107991999999999999999999MA1102711999999REMMET064METAR EDDV 070720Z 28005KT 9999 BKN009 BKN012 05/05 Q1027 NOSIG;
0117103380999992013010707504+52467+009683FM-15+0059EDDV V0202801N001510036019N0112651N1+00501+00401999999ADDGF107991999999999999999999MA1102711999999REMMET064METAR EDDV 070750Z 28003KT 9999 BKN012 BKN015 05/04 Q1027 NOSIG;
0117103380999992013010708204+52467+009683FM-15+0059EDDV V0203001N001510036019N0112651N1+00501+00501999999ADDGF107991999999999999999999MA1102711999999REMMET064METAR EDDV 070820Z 30003KT 9999 BKN012 BKN015 05/05 Q1027 NOSIG;
0117103380999992013010708504+52467+009683FM-15+0059EDDV V0203001N002110036019N0112651N1+00601+00501999999ADDGF107991999999999999999999MA1102711999999REMMET064METAR EDDV 070850Z 30004KT 9999 BKN012 BKN015 06/05 Q1027 NOSIG;
0117103380999992013010709204+52467+009683FM-15+0059EDDV V0202501N001510036019N0112651N1+00601+00501999999ADDGF107991999999999999999999MA1102811999999REMMET064METAR EDDV 070920Z 25003KT 9999 BKN012 BKN015 06/05 Q1028 NOSIG;
0117103380999992013010709504+52467+009683FM-15+0059EDDV V0202801N002610036019N0112651N1+00601+00501999999ADDGF107991999999999999999999MA1102811999999REMMET064METAR EDDV 070950Z 28005KT 9999 BKN012 BKN015 06/05 Q1028 NOSIG;
0117103380999992013010710204+52467+009683FM-15+0059EDDV V0202801N002110036019N0112651N1+00601+00501999999ADDGF107991999999999999999999MA1102811999999REMMET064METAR EDDV 071020Z 28004KT 9999 SCT008 BKN012 06/05 Q1028 NOSIG;
0117103380999992013010710504+52467+009683FM-15+0059EDDV V0202701N003110036019N0112651N1+00601+00501999999ADDGF107991999999999999999999MA1102811999999REMMET064METAR EDDV 071050Z 27006KT 9999 SCT008 BKN012 06/05 Q1028 NOSIG;
0117103380999992013010711204+52467+009683FM-15+0059EDDV V0202401N002610036019N0112651N1+00601+00401999999ADDGF107991999999999999999999MA1102711999999REMMET064METAR EDDV 071120Z 24005KT 9999 SCT008 BKN012 06/04 Q1027 NOSIG;
0117103380999992013010711504+52467+009683FM-15+0059EDDV V0202701N002110042019N0112651N1+00601+00501999999ADDGF107991999999999999999999MA1102711999999REMMET064METAR EDDV 071150Z 27004KT 9999 FEW008 BKN014 06/05 Q1027 NOSIG;
0117103380999992013010712204+52467+009683FM-15+0059EDDV V0202801N002110042019N0112651N1+00601+00501999999ADDGF107991999999999999999999MA1102711999999REMMET064METAR EDDV 071220Z 28004KT 9999 SCT009 BKN014 06/05 Q1027 NOSIG;
0117103380999992013010712504+52467+009683FM-15+0059EDDV V0202601N001510048019N0112651N1+00601+00501999999ADDGF107991999999999999999999MA1102711999999REMMET064METAR EDDV 071250Z 26003KT 9999 FEW011 BKN016 06/05 Q1027 NOSIG;
0117103380999992013010713204+52467+009683FM-15+0059EDDV V0202201N001510048019N0112651N1+00701+00501999999ADDGF107991999999999999999999MA1102711999999REMMET064METAR EDDV 071320Z 22003KT 9999 FEW011 BKN016 07/05 Q1027 NOSIG;
0124103380999992013010713504+52467+009683FM-15+0059EDDV V0202101N002110051019N0112651N1+00701+00501999999ADDGF107991999999999999999999MA1102611999999REMMET071METAR EDDV 071350Z 21004KT 9999 SCT012 BKN017 07/05 Q1026 TEMPO BKN012;
0124103380999992013010714204+52467+009683FM-15+0059EDDV V0202201N002110054019N0112651N1+00701+00501999999ADDGF107991999999999999999999MA1102611999999REMMET071METAR EDDV 071420Z 22004KT 9999 FEW012 BKN018 07/05 Q1026 TEMPO BKN012;
0124103380999992013010714504+52467+009683FM-15+0059EDDV V0202601N002610066019N0112651N1+00701+00601999999ADDGF107991999999999999999999MA1102611999999REMMET071METAR EDDV 071450Z 26005KT 9999 FEW013 BKN022 07/06 Q1026 TEMPO BKN012;
0124103380999992013010715204+52467+009683FM-15+0059EDDV V0202701N002110057019N0112651N1+00701+00601999999ADDGF107991999999999999999999MA1102611999999REMMET071METAR EDDV 071520Z 27004KT 9999 SCT013 BKN019 07/06 Q1026 TEMPO BKN012;
0117103380999992013010715504+52467+009683FM-15+0059EDDV V0202501N002610036019N0112651N1+00701+00601999999ADDGF107991999999999999999999MA1102611999999REMMET064METAR EDDV 071550Z 25005KT 9999 BKN012 07/06 Q1026 TEMPO BKN008;
0110103380999992013010716204+52467+009683FM-15+0059EDDV V0202401N002610024019N0112651N1+00701+00601999999ADDGF107991999999999999999999MA1102611999999REMMET057METAR EDDV 071620Z 24005KT 9999 BKN008 07/06 Q1026 NOSIG;
0124103380999992013010716504+52467+009683FM-15+0059EDDV V0202501N002610036019N0112651N1+00701+00601999999ADDGF107991999999999999999999MA1102611999999REMMET071METAR EDDV 071650Z 25005KT 9999 SCT008 BKN012 07/06 Q1026 TEMPO BKN008;
0124103380999992013010717204+52467+009683FM-15+0059EDDV V0202701N002110036019N0112651N1+00701+00601999999ADDGF107991999999999999999999MA1102611999999REMMET071METAR EDDV 071720Z 27004KT 9999 SCT008 BKN012 07/06 Q1026 TEMPO BKN008;
0124103380999992013010717504+52467+009683FM-15+0059EDDV V0202601N002610075019N0112651N1+00701+00601999999ADDGF107991999999999999999999MA1102611999999REMMET071METAR EDDV 071750Z 26005KT 9999 FEW011 BKN025 07/06 Q1026 TEMPO BKN012;
0124103380999992013010718204+52467+009683FM-15+0059EDDV V0202701N001510075019N0112651N1+00701+00601999999ADDGF107991999999999999999999MA1102611999999REMMET071METAR EDDV 071820Z 27003KT 9999 SCT011 BKN025 07/06 Q1026 BECMG BKN012;
0124103380999992013010718504+52467+009683FM-15+0059EDDV V0202401N002610075019N0112651N1+00701+00601999999ADDGF107991999999999999999999MA1102611999999REMMET071METAR EDDV 071850Z 24005KT 9999 SCT011 BKN025 07/06 Q1026 BECMG BKN012;
0124103380999992013010719204+52467+009683FM-15+0059EDDV V0202601N003110054019N0112651N1+00801+00601999999ADDGF107991999999999999999999MA1102611999999REMMET071METAR EDDV 071920Z 26006KT 9999 SCT011 BKN018 08/06 Q1026 BECMG BKN012;
0132103380999992013010719504+52467+009683FM-15+0059EDDV V0202601N003110030019N0080001N1+00701+00601999999ADDGF107991999999999999999999MA1102611999999REMMET079METAR EDDV 071950Z 26006KT 8000 SCT006 BKN010 07/06 Q1026 TEMPO 4500 BR BKN008;
0132103380999992013010720204+52467+009683FM-15+0059EDDV V0202501N003110036019N0080001N1+00701+00701999999ADDGF107991999999999999999999MA1102611999999REMMET079METAR EDDV 072020Z 25006KT 8000 SCT006 BKN012 07/07 Q1026 TEMPO 4500 BR BKN008;
0132103380999992013010720504+52467+009683FM-15+0059EDDV V0202501N002610045019N0060001N1+00701+00701999999ADDGF107991999999999999999999MA1102511999999REMMET079METAR EDDV 072050Z 25005KT 6000 SCT007 BKN015 07/07 Q1025 TEMPO 4500 BR BKN008;
0111103380999992013010721204+52467+009683FM-15+0059EDDV V0202401N003110060019N0070001N1+00701+00701999999ADDGF107991999999999999999999MA1102511999999REMMET058METAR EDDV 072120Z 24006KT 7000 SCT007 BKN020 07/07 Q1025;
0111103380999992013010721504+52467+009683FM-15+0059EDDV V0202401N004110066019N0070001N1+00701+00601999999ADDGF107991999999999999999999MA1102511999999REMMET058METAR EDDV 072150Z 24008KT 7000 SCT008 BKN022 07/06 Q1025;
0111103380999992013010722204+52467+009683FM-15+0059EDDV V0202501N004110054019N0070001N1+00801+00601999999ADDGF107991999999999999999999MA1102511999999REMMET058METAR EDDV 072220Z 25008KT 7000 FEW008 BKN018 08/06 Q1025;
0104103380999992013010722504+52467+009683FM-15+0059EDDV V0202401N003110060019N0060001N1+00701+00601999999ADDGF107991999999999999999999MA1102401999999REMMET051METAR EDDV 072250Z 24006KT 6000 BKN020 07/06 Q1024;
0104103380999992013010723204+52467+009683FM-15+0059EDDV V0202401N004110060019N0070001N1+00801+00601999999ADDGF107991999999999999999999MA1102401999999REMMET051METAR EDDV 072320Z 24008KT 7000 BKN020 08/06 Q1024;
0104103380999992013010723504+52467+009683FM-15+0059EDDV V0202501N004110066019N0080001N1+00801+00601999999ADDGF107991999999999999999999MA1102401999999REMMET051METAR EDDV 072350Z 25008KT 8000 BKN022 08/06 Q1024;
0104103380999992013010800204+52467+009683FM-15+0059EDDV V0202601N004110054019N0080001N1+00801+00601999999ADDGF107991999999999999999999MA1102401999999REMMET051METAR EDDV 080020Z 26008KT 8000 BKN018 08/06 Q1024;
0104103380999992013010800504+52467+009683FM-15+0059EDDV V0202601N005710054019N0090001N1+00801+00501999999ADDGF107991999999999999999999MA1102301999999REMMET051METAR EDDV 080050Z 26011KT 9000 BKN018 08/05 Q1023;
0104103380999992013010801204+52467+009683FM-15+0059EDDV V0202701N005710054019N0090001N1+00801+00501999999ADDGF107991999999999999999999MA1102301999999REMMET051METAR EDDV 080120Z 27011KT 9000 BKN018 08/05 Q1023;
0104103380999992013010801504+52467+009683FM-15+0059EDDV V0202701N005110054019N0090001N1+00701+00501999999ADDGF107991999999999999999999MA1102401999999REMMET051METAR EDDV 080150Z 27010KT 9000 BKN018 07/05 Q1024;
0104103380999992013010802204+52467+009683FM-15+0059EDDV V0202701N004610036019N0090001N1+00701+00501999999ADDGF107991999999999999999999MA1102301999999REMMET051METAR EDDV 080220Z 27009KT 9000 BKN012 07/05 Q1023;
0104103380999992013010802504+52467+009683FM-15+0059EDDV V0202701N004110036019N0080001N1+00701+00501999999ADDGF107991999999999999999999MA1102301999999REMMET051METAR EDDV 080250Z 27008KT 8000 BKN012 07/05 Q1023;
0104103380999992013010803204+52467+009683FM-15+0059EDDV V0202801N004110036019N0080001N1+00701+00501999999ADDGF107991999999999999999999MA1102301999999REMMET051METAR EDDV 080320Z 28008KT 8000 BKN012 07/05 Q1023;
0148103380999992013010803504+52467+009683FM-15+0059EDDV V0202801N005110024019N0050001N1+00601+00501999999ADDGF107991999999999999999999MA1102301999999MW1101MW2511REMMET083METAR EDDV 080350Z 28010KT 5000 -DZ BR BKN008 BKN012 06/05 Q1023 TEMPO 3500 BKN004;
0138103380999992013010804204+52467+009683FM-15+0059EDDV V0202701N004610018019N0040001N1+00601+00601999999ADDGF107991999999999999999999MA1102301999999MW1101REMMET079METAR EDDV 080420Z 27009KT 4000 BR BKN006 BKN012 06/06 Q1023 TEMPO 3500 BKN004;
0129103380999992013010805204+52467+009683FM-15+0059EDDV V0202701N005110018019N0070001N1+00601+00501999999ADDGF107991999999999999999999MA1102301999999REMMET076METAR EDDV 080520Z 27010KT 7000 BKN006 BKN012 06/05 Q1023 TEMPO 3500 BKN004;
0129103380999992013010805504+52467+009683FM-15+0059EDDV V0202701N004610018019N0070001N1+00601+00501999999ADDGF107991999999999999999999MA1102301999999REMMET076METAR EDDV 080550Z 27009KT 7000 BKN006 BKN012 06/05 Q1023 TEMPO 3500 BKN004;
0129103380999992013010806204+52467+009683FM-15+0059EDDV V0202701N005110024019N0060001N1+00601+00501999999ADDGF107991999999999999999999MA1102301999999REMMET076METAR EDDV 080620Z 27010KT 6000 SCT004 BKN008 06/05 Q1023 TEMPO 3500 BKN004;
0141103380999992013010806504+52467+009683FM-15+0059EDDV V0202701N004110012019N0050001N1+00601+00501999999ADDGF107991999999999999999999MA1102301999999MW1101MW2611REMMET076METAR EDDV 080650Z 27008KT 5000 -RA BR BKN004 BKN007 06/05 Q1023 TEMPO 3000;
0149103380999992013010807204+52467+009683FM-15+0059EDDV V0202701N004610012019N0050001N1+00601+00501999999ADDGF107991999999999999999999MA1102201999999MW1101MW2511MW3611REMMET078METAR EDDV 080720Z 27009KT 5000 -RADZ BR BKN004 BKN007 06/05 Q1022 TEMPO 3000;
0147103380999992013010807504+52467+009683FM-15+0059EDDV V0202701N005110027019N0060001N1+00601+00501999999ADDGF107991999999999999999999MA1102201999999MW1511MW2611REMMET082METAR EDDV 080750Z 27010KT 6000 -RADZ SCT005 BKN009 06/05 Q1022 TEMPO 3500 BKN004;
0135103380999992013010808204+52467+009683FM-15+0059EDDV V0202701N005110015019N0060001N1+00601+00501999999ADDGF107991999999999999999999MA1102201999999REMMET082METAR EDDV 080820Z 27010KT 6000 BKN005 BKN009 06/05 Q1022 TEMPO 3500 -RADZ BKN004;
0140103380999992013010808504+52467+009683FM-15+0059EDDV V0202701N005710012019N0060001N1+00601+00501999999ADDGF107991999999999999999999MA1102201999999MW1511MW2611REMMET075METAR EDDV 080850Z 27011KT 6000 -RADZ BKN004 BKN008 06/05 Q1022 TEMPO 3500;
0140103380999992013010809204+52467+009683FM-15+0059EDDV V0202801N005110012019N0060001N1+00601+00501999999ADDGF107991999999999999999999MA1102301999999MW1511MW2611REMMET075METAR EDDV 080920Z 28010KT 6000 -RADZ BKN004 BKN008 06/05 Q1023 TEMPO 3500;
0142103380999992013010809504+52467+009683FM-15+0059EDDV V0202701N005110012019N0035001N1+00601+00501999999ADDGF107991999999999999999999MA1102301999999MW1511MW2611REMMET077METAR EDDV 080950Z 27010KT 3500 -RADZ BKN004 BKN008 06/05 Q1023 TEMPO BKN005;
0142103380999992013010810204+52467+009683FM-15+0059EDDV V0202701N005710012019N0040001N1+00601+00601999999ADDGF107991999999999999999999MA1102301999999MW1511MW2611REMMET077METAR EDDV 081020Z 27011KT 4000 -RADZ BKN004 BKN008 06/06 Q1023 TEMPO BKN005;
0145103380999992013010810504+52467+009683FM-15+0059EDDV V0202701N005110009019N0032001N1+00601+00601999999ADDGF107991999999999999999999MA1102201999999MW1511MW2611REMMET080METAR EDDV 081050Z 27010KT 3200 -RADZ BKN003 BKN007 06/06 Q1022 TEMPO 2500 RADZ;
0145103380999992013010811204+52467+009683FM-15+0059EDDV V0202701N006210009019N0032001N1+00601+00601999999ADDGF107991999999999999999999MA1102201999999MW1511MW2611REMMET080METAR EDDV 081120Z 27012KT 3200 -RADZ BKN003 BKN007 06/06 Q1022 TEMPO 2500 RADZ;
0145103380999992013010811504+52467+009683FM-15+0059EDDV V0202801N005710009019N0032001N1+00601+00601999999ADDGF107991999999999999999999MA1102201999999MW1511MW2611REMMET080METAR EDDV 081150Z 28011KT 3200 -RADZ BKN003 BKN007 06/06 Q1022 TEMPO 2500 RADZ;
0149103380999992013010812204+52467+009683FM-15+0059EDDV V0202701N006210009019N0030001N1+00601+00601999999ADDGF107991999999999999999999MA1102201999999MW1101MW2511MW3611REMMET078METAR EDDV 081220Z 27012KT 3000 -RADZ BR BKN003 BKN007 06/06 Q1022 TEMPO RADZ;
0161103380999992013010812504+52467+009683FM-15+0059EDDV V0202801N006210015019N0037001N1+00601+00601999999ADDGF107991999999999999999999MA1102201999999MW1101MW2511MW3611REMMET090METAR EDDV 081250Z 28012KT 3700 -RADZ BR BKN005 BKN008 06/06 Q1022 TEMPO 2500 RADZ BKN004;
0154103380999992013010813204+52467+009683FM-15+0059EDDV V0202801N006210015019N0045001N1+00601+00601999999ADDGF107991999999999999999999MA1102201999999MW1101MW2511MW3611REMMET083METAR EDDV 081320Z 28012KT 4500 -RADZ BR BKN005 06/06 Q1022 TEMPO 2500 RADZ BKN004;
0154103380999992013010813504+52467+009683FM-15+0059EDDV V0202701N004610015019N0045001N1+00601+00601999999ADDGF107991999999999999999999MA1102201999999MW1101MW2511MW3611REMMET083METAR EDDV 081350Z 27009KT 4500 -RADZ BR BKN005 06/06 Q1022 TEMPO 2500 RADZ BKN004;
0148103380999992013010814204+52467+009683FM-15+0059EDDV V0202701N004110012019N0032001N1+00701+00601999999ADDGF108991999999999999999999MA1102201999999MW1101MW2531MW3631REMMET077METAR EDDV 081420Z 27008KT 3200 RADZ BR BKN004 OVC007 07/06 Q1022 TEMPO 2500;
0148103380999992013010814504+52467+009683FM-15+0059EDDV V0202701N004110012019N0034001N1+00701+00701999999ADDGF108991999999999999999999MA1102201999999MW1101MW2531MW3631REMMET077METAR EDDV 081450Z 27008KT 3400 RADZ BR BKN004 OVC007 07/07 Q1022 TEMPO 2500;
0154103380999992013010815204+52467+009683FM-15+0059EDDV V0202701N004110012019N0032001N1+00701+00601999999ADDGF108991999999999999999999MA1102201999999MW1101MW2511MW3611REMMET083METAR EDDV 081520Z 27008KT 3200 -RADZ BR BKN004 OVC007 07/06 Q1022 RERA TEMPO 2500;
0131103380999992013010815504+52467+009683FM-15+0059EDDV V0202801N004110012019N0032001N1+00701+00701999999ADDGF108991999999999999999999MA1102201999999MW1101REMMET072METAR EDDV 081550Z 28008KT 3200 BR BKN004 OVC008 07/07 Q1022 TEMPO 2500;
0124103380999992013010816204+52467+009683FM-15+0059EDDV V0202801N004110009019N0032001N1+00701+00601999999ADDGF107991999999999999999999MA1102201999999MW1101REMMET065METAR EDDV 081620Z 28008KT 3200 BR BKN003 07/06 Q1022 TEMPO 2500;
0142103380999992013010816504+52467+009683FM-15+0059EDDV V0202801N003610009019N0035001N1+00701+00701999999ADDGF107991999999999999999999MA1102201999999MW1101MW2511MW3611REMMET071METAR EDDV 081650Z 28007KT 3500 -RADZ BR BKN003 07/07 Q1022 TEMPO 2500;
0142103380999992013010817204+52467+009683FM-15+0059EDDV V0202701N003610012019N0032001N1+00701+00601999999ADDGF107991999999999999999999MA1102201999999MW1101MW2511MW3611REMMET071METAR EDDV 081720Z 27007KT 3200 -RADZ BR BKN004 07/06 Q1022 TEMPO 2500;
0149103380999992013010817504+52467+009683FM-15+0059EDDV V0202801N003610012019N0030001N1+00701+00601999999ADDGF108991999999999999999999MA1102201999999MW1101MW2511MW3611REMMET078METAR EDDV 081750Z 28007KT 3000 -RADZ BR BKN004 OVC006 07/06 Q1022 TEMPO 2500;
0149103380999992013010818204+52467+009683FM-15+0059EDDV V0202801N003610012019N0030001N1+00701+00601999999ADDGF108991999999999999999999MA1102201999999MW1101MW2511MW3611REMMET078METAR EDDV 081820Z 28007KT 3000 -RADZ BR BKN004 OVC006 07/06 Q1022 TEMPO 2500;
0148103380999992013010818504+52467+009683FM-15+0059EDDV V0202801N004110009019N0030001N1+00701+00701999999ADDGF108991999999999999999999MA1102201999999MW1101MW2531MW3631REMMET077METAR EDDV 081850Z 28008KT 3000 RADZ BR BKN003 OVC006 07/07 Q1022 TEMPO 2500;
0148103380999992013010819204+52467+009683FM-15+0059EDDV V0202701N004110009019N0030001N1+00701+00701999999ADDGF108991999999999999999999MA1102201999999MW1101MW2531MW3631REMMET077METAR EDDV 081920Z 27008KT 3000 RADZ BR BKN003 OVC006 07/07 Q1022 TEMPO 2500;
0148103380999992013010819504+52467+009683FM-15+0059EDDV V0202701N004610009019N0030001N1+00701+00701999999ADDGF108991999999999999999999MA1102201999999MW1101MW2531MW3631REMMET077METAR EDDV 081950Z 27009KT 3000 RADZ BR BKN003 OVC006 07/07 Q1022 TEMPO 2500;
0148103380999992013010820204+52467+009683FM-15+0059EDDV V0202701N005110009019N0030001N1+00701+00701999999ADDGF108991999999999999999999MA1102201999999MW1101MW2531MW3631REMMET077METAR EDDV 082020Z 27010KT 3000 RADZ BR BKN003 OVC006 07/07 Q1022 TEMPO 2500;
0148103380999992013010820504+52467+009683FM-15+0059EDDV V0202701N005110009019N0030001N1+00701+00701999999ADDGF108991999999999999999999MA1102201999999MW1101MW2531MW3631REMMET077METAR EDDV 082050Z 27010KT 3000 RADZ BR BKN003 OVC006 07/07 Q1022 TEMPO 2500;
0143103380999992013010821204+52467+009683FM-15+0059EDDV V0202701N005110018019N0033001N1+00701+00601999999ADDGF107991999999999999999999MA1102201999999MW1101MW2511MW3611REMMET072METAR EDDV 082120Z 27010KT 3300 -RADZ BR SCT003 BKN006 07/06 Q1022 RERA;
0131103380999992013010821504+52467+009683FM-15+0059EDDV V0202701N004610015019N0033001N1+00701+00701999999ADDGF107991999999999999999999MA1102201999999MW1101MW2511MW3611REMMET060METAR EDDV 082150Z 27009KT 3300 -RADZ BR BKN005 07/07 Q1022;
0131103380999992013010822204+52467+009683FM-15+0059EDDV V0202701N004610015019N0030001N1+00701+00701999999ADDGF107991999999999999999999MA1102201999999MW1101MW2511MW3611REMMET060METAR EDDV 082220Z 27009KT 3000 -RADZ BR BKN005 07/07 Q1022;
0131103380999992013010822504+52467+009683FM-15+0059EDDV V0202701N004610015019N0032001N1+00701+00701999999ADDGF108991999999999999999999MA1102201999999MW1101MW2511MW3611REMMET060METAR EDDV 082250Z 27009KT 3200 -RADZ BR OVC005 07/07 Q1022;
0131103380999992013010823204+52467+009683FM-15+0059EDDV V0202701N004610015019N0032001N1+00701+00701999999ADDGF108991999999999999999999MA1102201999999MW1101MW2511MW3611REMMET060METAR EDDV 082320Z 27009KT 3200 -RADZ BR OVC005 07/07 Q1022;
0131103380999992013010823504+52467+009683FM-15+0059EDDV V0202701N004110015019N0028001N1+00701+00701999999ADDGF108991999999999999999999MA1102201999999MW1101MW2511MW3611REMMET060METAR EDDV 082350Z 27008KT 2800 -RADZ BR OVC005 07/07 Q1022;
0113103380999992013010900204+52467+009683FM-15+0059EDDV V0202701N004610015019N0028001N1+00701+00701999999ADDGF108991999999999999999999MA1102101999999MW1101REMMET054METAR EDDV 090020Z 27009KT 2800 BR OVC005 07/07 Q1021;
0123103380999992013010900504+52467+009683FM-15+0059EDDV V0202701N004610009019N0020001N1+00701+00701999999ADDGF107991999999999999999999MA1102101999999MW1101MW2511REMMET058METAR EDDV 090050Z 27009KT 2000 -DZ BR BKN003 07/07 Q1021;
0113103380999992013010901204+52467+009683FM-15+0059EDDV V0202701N004610009019N0020001N1+00701+00701999999ADDGF107991999999999999999999MA1102101999999MW1101REMMET054METAR EDDV 090120Z 27009KT 2000 BR BKN003 07/07 Q1021;
0113103380999992013010901504+52467+009683FM-15+0059EDDV V0202701N004110012019N0028001N1+00701+00701999999ADDGF107991999999999999999999MA1102101999999MW1101REMMET054METAR EDDV 090150Z 27008KT 2800 BR BKN004 07/07 Q1021;
0113103380999992013010902204+52467+009683FM-15+0059EDDV V0202701N004610012019N0028001N1+00701+00601999999ADDGF107991999999999999999999MA1102101999999MW1101REMMET054METAR EDDV 090220Z 27009KT 2800 BR BKN004 07/06 Q1021;
0113103380999992013010902504+52467+009683FM-15+0059EDDV V0202601N005110015019N0030001N1+00701+00601999999ADDGF107991999999999999999999MA1102101999999MW1101REMMET054METAR EDDV 090250Z 26010KT 3000 BR BKN005 07/06 Q1021;
0113103380999992013010903204+52467+009683FM-15+0059EDDV V0202601N004610018019N0034001N1+00701+00601999999ADDGF107991999999999999999999MA1102001999999MW1101REMMET054METAR EDDV 090320Z 26009KT 3400 BR BKN006 07/06 Q1020;
0113103380999992013010903504+52467+009683FM-15+0059EDDV V0202601N005710021019N0040001N1+00701+00601999999ADDGF107991999999999999999999MA1102001999999MW1101REMMET054METAR EDDV 090350Z 26011KT 4000 BR BKN007 07/06 Q1020;
0131103380999992013010904204+52467+009683FM-15+0059EDDV V0202601N004610021019N0050001N1+00701+00601999999ADDGF107991999999999999999999MA1102001999999MW1101REMMET072METAR EDDV 090420Z 26009KT 5000 BR BKN007 07/06 Q1020 TEMPO 2500 BKN004;
0129103380999992013010904504+52467+009683FM-15+0059EDDV V0202601N004610024019N0060001N1+00701+00601999999ADDGF107991999999999999999999MA1102001999999REMMET076METAR EDDV 090450Z 26009KT 6000 FEW005 BKN008 07/06 Q1020 TEMPO 2500 BKN004;
0129103380999992013010905204+52467+009683FM-15+0059EDDV V0202501N004110024019N0070001N1+00701+00601999999ADDGF107991999999999999999999MA1101901999999REMMET076METAR EDDV 090520Z 25008KT 7000 FEW006 BKN008 07/06 Q1019 TEMPO 2500 BKN004;
0139103380999992013010905504+52467+009683FM-15+0059EDDV V0202501N004110015019N0050001N1+00701+00601999999ADDGF107991999999999999999999MA1101901999999MW1511REMMET080METAR EDDV 090550Z 25008KT 5000 -DZ SCT003 BKN005 07/06 Q1019 TEMPO 2500 BKN003;
0139103380999992013010906204+52467+009683FM-15+0059EDDV V0202501N004610015019N0045001N1+00601+00601999999ADDGF107991999999999999999999MA1101901999999MW1511REMMET080METAR EDDV 090620Z 25009KT 4500 -DZ SCT003 BKN005 06/06 Q1019 TEMPO 2500 BKN003;
0139103380999992013010906504+52467+009683FM-15+0059EDDV V0202601N005110018019N0045001N1+00701+00601999999ADDGF107991999999999999999999MA1101901999999MW1511REMMET080METAR EDDV 090650Z 26010KT 4500 -DZ FEW003 BKN006 07/06 Q1019 TEMPO 2500 BKN003;
0141103380999992013010907204+52467+009683FM-15+0059EDDV V0202601N004610009019N0030001N1+00601+00601999999ADDGF107991999999999999999999MA1101901999999MW1101MW2511REMMET076METAR EDDV 090720Z 26009KT 3000 -DZ BR BKN003 BKN006 06/06 Q1019 TEMPO 2000;
0136103380999992013010907504+52467+009683FM-15+0059EDDV V0202501N005110009019N0028001N1+00601+00601999999ADDGF107991999999999999999999MA1101901999999MW1101MW2511REMMET071METAR EDDV 090750Z 25010KT 2800 -DZ BR BKN003 BKN008 06/06 Q1019 NOSIG;
0151103380999992013010908204+52467+009683FM-15+0059EDDV V0202501N005710018019N0032001N1+00601+00601999999ADDGF107991999999999999999999MA1101801999999MW1101MW2511REMMET086METAR EDDV 090820Z 25011KT 3200 -DZ BR SCT003 BKN006 06/06 Q1018 TEMPO 2500 DZ BKN003;
0151103380999992013010908504+52467+009683FM-15+0059EDDV V0202501N005110018019N0039001N1+00601+00601999999ADDGF107991999999999999999999MA1101801999999MW1101MW2511REMMET086METAR EDDV 090850Z 25010KT 3900 -DZ BR FEW003 BKN006 06/06 Q1018 TEMPO 2500 DZ BKN003;
0151103380999992013010909204+52467+009683FM-15+0059EDDV V0202501N006210021019N0039001N1+00601+00601999999ADDGF107991999999999999999999MA1101801999999MW1101MW2511REMMET086METAR EDDV 090920Z 25012KT 3900 -DZ BR SCT003 BKN007 06/06 Q1018 TEMPO 2500 DZ BKN003;
0151103380999992013010909504+52467+009683FM-15+0059EDDV V0202501N006210021019N0037001N1+00601+00601999999ADDGF107991999999999999999999MA1101801999999MW1101MW2511REMMET086METAR EDDV 090950Z 25012KT 3700 -DZ BR SCT004 BKN007 06/06 Q1018 TEMPO 2500 DZ BKN003;
0151103380999992013010910204+52467+009683FM-15+0059EDDV V0202501N005710021019N0047001N1+00601+00601999999ADDGF107991999999999999999999MA1101801999999MW1101MW2511REMMET086METAR EDDV 091020Z 25011KT 4700 -DZ BR SCT004 BKN007 06/06 Q1018 TEMPO 2500 DZ BKN003;
0147103380999992013010910504+52467+009683FM-15+0059EDDV V0202501N005710024019N0030001N1+00601+00601999999ADDGF107991999999999999999999MA1101691999999MW1101MW2531REMMET082METAR EDDV 091050Z 25011KT 3000 DZ BR SCT004 BKN008 06/06 Q1017 TEMPO 2500 BKN003;
0162103380999992013010911204+52467+009683FM-15+0059EDDV V0202501N00511001501CN0090001N1+00601+00601999999ADDGF107991999999999999999999MA1101591999999MW1511MW2611REMMET097METAR EDDV 091120Z 25010KT 9000 -RADZ FEW004 SCT005 BKN007 06/06 Q1016 REDZ TEMPO 4000 RA BKN004;
0145103380999992013010911504+52467+009683FM-15+0059EDDV V0202601N005110021019N0112651N1+00701+00601999999ADDGF108991999999999999999999MA1101591999999MW1631REMMET086METAR EDDV 091150Z 26010KT 9999 RA FEW005 BKN007 OVC010 07/06 Q1016 TEMPO 4000 BKN004;
0145103380999992013010912204+52467+009683FM-15+0059EDDV V0202401N005110021019N0112651N1+00601+00501999999ADDGF108991999999999999999999MA1101491999999MW1631REMMET086METAR EDDV 091220Z 24010KT 9999 RA FEW005 BKN007 OVC010 06/05 Q1015 TEMPO 4000 BKN004;
0138103380999992013010912504+52467+009683FM-15+0059EDDV V0202601N005710024019N0112651N1+00601+00501999999ADDGF108991999999999999999999MA1101491999999MW1631REMMET079METAR EDDV 091250Z 26011KT 9999 RA FEW005 BKN008 OVC011 06/05 Q1015 TEMPO 4000;
0138103380999992013010913204+52467+009683FM-15+0059EDDV V0202701N006210024019N0112651N1+00601+00501999999ADDGF108991999999999999999999MA1101491999999MW1631REMMET079METAR EDDV 091320Z 27012KT 9999 RA FEW005 BKN008 OVC011 06/05 Q1015 TEMPO 4000;
0138103380999992013010913504+52467+009683FM-15+0059EDDV V0202701N007210024019N0112651N1+00601+00501999999ADDGF108991999999999999999999MA1101491999999MW1631REMMET079METAR EDDV 091350Z 27014KT 9999 RA FEW005 BKN008 OVC011 06/05 Q1015 TEMPO 4000;
0138103380999992013010914204+52467+009683FM-15+0059EDDV V0202701N007210024019N0112651N1+00601+00501999999ADDGF108991999999999999999999MA1101491999999MW1631REMMET079METAR EDDV 091420Z 27014KT 9999 RA FEW005 BKN008 OVC011 06/05 Q1015 TEMPO 4000;
0138103380999992013010914504+52467+009683FM-15+0059EDDV V0202701N006710021019N0112651N1+00601+00501999999ADDGF108991999999999999999999MA1101491999999MW1631REMMET079METAR EDDV 091450Z 27013KT 9999 RA FEW006 BKN007 OVC011 06/05 Q1015 TEMPO 4000;
0138103380999992013010915204+52467+009683FM-15+0059EDDV V0202701N007210021019N0112651N1+00601+00501999999ADDGF108991999999999999999999MA1101391999999MW1631REMMET079METAR EDDV 091520Z 27014KT 9999 RA FEW006 BKN007 OVC011 06/05 Q1014 TEMPO 4000;
0154103380999992013010915504+52467+009683FM-15+0059EDDV V0202801N00621001501CN0070001N1+00601+00501999999ADDGF108991999999999999999999MA1101391999999MW1611REMMET095METAR EDDV 091550Z 28012KT 7000 -RA FEW004 SCT005 OVC006 06/05 Q1014 RERA TEMPO 4000 RA BKN004;
0127103380999992013010916204+52467+009683FM-15+0059EDDV V0202801N006710012019N0050001N1+00601+00601999999ADDGF107991999999999999999999MA1101391999999MW1531MW2631REMMET062METAR EDDV 091620Z 28013KT 5000 RADZ BKN004 06/06 Q1014 NOSIG;
0127103380999992013010916504+52467+009683FM-15+0059EDDV V0202701N004610012019N0045001N1+00601+00601999999ADDGF107991999999999999999999MA1101391999999MW1531MW2631REMMET062METAR EDDV 091650Z 27009KT 4500 RADZ BKN004 06/06 Q1014 NOSIG;
0139103380999992013010917204+52467+009683FM-15+0059EDDV V0202701N004610012019N0045001N1+00601+00601999999ADDGF107991999999999999999999MA1101391999999MW1531MW2631REMMET074METAR EDDV 091720Z 27009KT 4500 RADZ BKN004 06/06 Q1014 BECMG 6000 BKN006;
0139103380999992013010917504+52467+009683FM-15+0059EDDV V0202801N005110012019N0090001N1+00601+00501999999ADDGF107991999999999999999999MA1101391999999MW1611REMMET080METAR EDDV 091750Z 28010KT 9000 -RA SCT003 BKN004 06/05 Q1014 RERA BECMG BKN006;
0139103380999992013010918204+52467+009683FM-15+0059EDDV V0202701N004110009019N0080001N1+00601+00601999999ADDGF107991999999999999999999MA1101391999999MW1611REMMET080METAR EDDV 091820Z 27008KT 8000 -RA BKN003 BKN004 06/06 Q1014 RERA BECMG BKN006;
0150103380999992013010918504+52467+009683FM-15+0059EDDV V0202701N004110009019N0035001N1+00601+00601999999ADDGF108991999999999999999999MA1101391999999MW1531MW2631REMMET085METAR EDDV 091850Z 27008KT 3500 DZRA FEW002 OVC003 06/06 Q1014 BECMG 6000 NSW BKN006;
0122103380999992013010919204+52467+009683FM-15+0059EDDV V0202901N004110024019N0112651N1+00601+00601999999ADDGF107991999999999999999999MA1101391999999REMMET069METAR EDDV 091920Z 29008KT 9999 SCT004 BKN008 06/06 Q1014 RERA NOSIG;
0131103380999992013010919504+52467+009683FM-15+0059EDDV V0203001N003110042019N0112651N1+00601+00601999999ADDGF107991999999999999999999MA1101391999999REMMET078METAR EDDV 091950Z 30006KT 9999 FEW005 BKN014 BKN025 06/06 Q1014 BECMG BKN015;
0124103380999992013010920204+52467+009683FM-15+0059EDDV V0203101N004110075019N0112651N1+00601+00501999999ADDGF107991999999999999999999MA1101391999999REMMET071METAR EDDV 092020Z 31008KT 9999 SCT014 BKN025 06/05 Q1014 BECMG BKN015;
0111103380999992013010921204+52467+009683FM-15+0059EDDV V0203001N003110144019N0112651N1+00501+00401999999ADDGF107991999999999999999999MA1101391999999REMMET058METAR EDDV 092120Z 30006KT 9999 FEW010 BKN048 05/04 Q1014;
0111103380999992013010921504+52467+009683FM-15+0059EDDV V0202801N003110144019N0112651N1+00501+00401999999ADDGF107991999999999999999999MA1101291999999REMMET058METAR EDDV 092150Z 28006KT 9999 SCT010 BKN048 05/04 Q1013;
0111103380999992013010922204+52467+009683FM-15+0059EDDV V0202901N004110024019N0112651N1+00501+00501999999ADDGF107991999999999999999999MA1101291999999REMMET058METAR EDDV 092220Z 29008KT 9999 BKN008 BKN040 05/05 Q1013;
