0175103480999992015010205504+52319+010556FM-15+009099999V0202401N006710070119N009999199+00401+00201999999ADDGA1071+007011999GA2081+007921999GE19MSL   +99999+99999GF199999071999007011999999MA1101701999999MW1611REMMET062METAR EDVE 020550Z 24013KT 9999 -RA BKN023 OVC026 04/02 Q1017=
0152103480999992015010206204+52319+010556FM-15+009099999V0202401N007210064019N007000199+00401+00301999999ADDGA1081+006401999GE19MSL   +99999+99999GF199999081999006401999999MA1101701999999MW1611REMMET055METAR EDVE 020620Z 24014KT 7000 -RA OVC021 04/03 Q1017=
0175103480999992015010206504+52319+010556FM-15+009099999V0202301N007210057919N009999199+00401+00301999999ADDGA1071+005791999GA2081+007321999GE19MSL   +99999+99999GF199999071999005791999999MA1101701999999MW1611REMMET062METAR EDVE 020650Z 23014KT 9999 -RA BKN019 OVC024 04/03 Q1017=
0174103480999992015010207204+52319+010556FM-15+009099999V0202301N008210039619N006000199+00401+00401999999ADDGA1071+003961999GA2081+006711999GE19MSL   +99999+99999GF199999071999003961999999MA1101701999999MW1631REMMET061METAR EDVE 020720Z 23016KT 6000 RA BKN013 OVC022 04/04 Q1017=
0151103480999992015010207504+52319+010556FM-15+009099999V0202301N008810027419N007000199+00401+00401999999ADDGA1081+002741999GE19MSL   +99999+99999GF199999081999002741999999MA1101701999999MW1531REMMET054METAR EDVE 020750Z 23017KT 7000 DZ OVC009 04/04 Q1017=
0152103480999992015010208204+52319+010556FM-15+009099999V0202301N008810021319N006000199+00401+00401999999ADDGA1081+002131999GE19MSL   +99999+99999GF199999081999002131999999MA1101701999999MW1611REMMET055METAR EDVE 020820Z 23017KT 6000 -RA OVC007 04/04 Q1017=
0151103480999992015010208504+52319+010556FM-15+009099999V0202301N007710018319N007000199+00401+00401999999ADDGA1081+001831999GE19MSL   +99999+99999GF199999081999001831999999MA1101701999999MW1531REMMET054METAR EDVE 020850Z 23015KT 7000 DZ OVC006 04/04 Q1017=
0159103480999992015010209204+52319+010556FM-15+009099999V0202401V006710015219N006000199+00401+00401999999ADDGA1081+001521999GE19MSL   +99999+99999GF199999081999001521999999MA1101701999999MW1531REMMET062METAR EDVE 020920Z 24013KT 210V270 6000 DZ OVC005 04/04 Q1017=
0165103480999992015010209504+52319+010556FM-15+009099999V0202501N008210015219N009999199+00701+00701999999ADDGA1071+001521999GA2081+004881999GE19MSL   +99999+99999GF199999071999001521999999MA1101701999999REMMET058METAR EDVE 020950Z 25016KT 9999 BKN005 OVC016 07/07 Q1017=
0212103480999992015010210204+52319+010556FM-15+009099999V0202501V008810039619N009999199+00701+00701999999ADDGA1021+002741999GA2071+003961999GA3081+005181999GE19MSL   +99999+99999GF199999021999002741999999MA1101801999999OC101391REMMET081METAR EDVE 021020Z 25017G27KT 230V290 9999 FEW009 BKN013 OVC017 07/07      Q1018=
0201103480999992015010210504+52319+010556FM-15+009099999V0202601V00931004881CN009999199+00801+00701999999ADDGA1021+003961999GA2041+004881999GA3081+007011999GE19MSL   +99999+99999GF199999021999003961999999MA1101801999999REMMET078METAR EDVE 021050Z 26018KT 230V290 9999 FEW013 SCT016 OVC023 08/07      Q1018=
0176103480999992015010211204+52319+010556FM-15+009099999V0202601N009310103619N009999199+00801+00601999999ADDGA1041+006711999GA2081+010361999GE19MSL   +99999+99999GF199999041999006711999999MA1101801999999OC101441REMMET061METAR EDVE 021120Z 26018G28KT 9999 SCT022 OVC034 08/06 Q1018=
0165103480999992015010211504+52319+010556FM-15+009099999V0202601N008810070119N009999199+00801+00601999999ADDGA1021+005791999GA2071+007011999GE19MSL   +99999+99999GF199999021999005791999999MA1101801999999REMMET058METAR EDVE 021150Z 26017KT 9999 FEW019 BKN023 08/06 Q1018=
0212103480999992015010212204+52319+010556FM-15+009099999V0202801V00771009451CN009999199+00801+00401999999ADDGA1021+007921999GA2041+009451999GA3071+010671999GE19MSL   +99999+99999GF199999021999007921999999MA1101801999999OC101291REMMET081METAR EDVE 021220Z 28015G25KT 250V310 9999 FEW026 SCT031 BKN035 08/04      Q1018=
0161103480999992015010212504+52319+010556FM-15+009099999V0202701V008810079219N009999199+00801+00401999999ADDGA1071+007921999GE19MSL   +99999+99999GF199999071999007921999999MA1101801999999OC101601REMMET062METAR EDVE 021250Z 27017G31KT 240V300 9999 BKN026 08/04 Q1018=
0212103480999992015010213504+52319+010556FM-15+009099999V0202701V007710100619N009999199+00801+00401999999ADDGA1021+008531999GA2071+010061999GA3071+014631999GE19MSL   +99999+99999GF199999021999008531999999MA1101901999999OC101441REMMET081METAR EDVE 021350Z 27015G28KT 240V300 9999 FEW028 BKN033 BKN048 08/04      Q1019=
0176103480999992015010214204+52319+010556FM-15+009099999V0202701N009310094519N009999199+00801+00201999999ADDGA1071+009451999GA2071+010671999GE19MSL   +99999+99999GF199999071999009451999999MA1102001999999OC101651REMMET061METAR EDVE 021420Z 27018G32KT 9999 BKN031 BKN035 08/02 Q1020=
0165103480999992015010215204+52319+010556FM-15+009099999V0202701N006710109719N009999199+00701+00101999999ADDGA1071+010971999GA2071+013411999GE19MSL   +99999+99999GF199999071999010971999999MA1102101999999REMMET058METAR EDVE 021520Z 27013KT 9999 BKN036 BKN044 07/01 Q1021=
0176103480999992015010215504+52319+010556FM-15+009099999V0202701N006710152419N009999199+00701+00101999999ADDGA1021+010971999GA2071+015241999GE19MSL   +99999+99999GF199999021999010971999999MA1102101999999OC101181REMMET061METAR EDVE 021550Z 27013G23KT 9999 FEW036 BKN050 07/01 Q1021=
0173103480999992015010216204+52319+010556FM-15+009099999V0202701V006710106719N009999199+00601+00201999999ADDGA1071+010671999GA2071+014941999GE19MSL   +99999+99999GF199999071999010671999999MA1102201999999REMMET066METAR EDVE 021620Z 27013KT 240V300 9999 BKN035 BKN049 06/02 Q1022=
0173103480999992015010216504+52319+010556FM-15+009099999V0202701V007210131119N009999199+00701+00101999999ADDGA1041+010671999GA2081+013111999GE19MSL   +99999+99999GF199999041999010671999999MA1102201999999REMMET066METAR EDVE 021650Z 27014KT 240V310 9999 SCT035 OVC043 07/01 Q1022=
0173103480999992015010217204+52319+010556FM-15+009099999V0202701V007210137219N009999199+00601+00101999999ADDGA1021+010671999GA2081+013721999GE19MSL   +99999+99999GF199999021999010671999999MA1102301999999REMMET066METAR EDVE 021720Z 27014KT 240V300 9999 FEW035 OVC045 06/01 Q1023=
0184103480999992015010217504+52319+010556FM-15+009099999V0202701V007210131119N009999199+00601+00101999999ADDGA1021+011581999GA2081+013111999GE19MSL   +99999+99999GF199999021999011581999999MA1102301999999OC101241REMMET069METAR EDVE 021750Z 27014G24KT 240V300 9999 FEW038 OVC043 06/01 Q1023=
0165103480999992015010218204+52319+010556FM-15+009099999V0202801N007710106719N009999199+00601+00101999999ADDGA1071+010671999GA2081+012801999GE19MSL   +99999+99999GF199999071999010671999999MA1102401999999REMMET058METAR EDVE 021820Z 28015KT 9999 BKN035 OVC042 06/01 Q1024=
0199103480999992015010218504+52319+010556FM-15+009099999V0202701N008210118919N009999199+00601+00101999999ADDGA1041+010361999GA2071+011891999GA3081+014021999GE19MSL   +99999+99999GF199999041999010361999999MA1102401999999OC101491REMMET068METAR EDVE 021850Z 27016G29KT 9999 SCT034 BKN039 OVC046 06/01 Q1024=
0173103480999992015010219204+52319+010556FM-15+009099999V0202701V008210158519N009999199+00601+00101999999ADDGA1021+010061999GA2081+015851999GE19MSL   +99999+99999GF199999021999010061999999MA1102401999999REMMET066METAR EDVE 021920Z 27016KT 240V300 9999 FEW033 OVC052 06/01 Q1024=
0176103480999992015010219504+52319+010556FM-15+009099999V0202701N008210158519N009999199+00601+00101999999ADDGA1021+011281999GA2071+015851999GE19MSL   +99999+99999GF199999021999011281999999MA1102401999999OC101341REMMET061METAR EDVE 021950Z 27016G26KT 9999 FEW037 BKN052 06/01 Q1024=
0199103480999992015010220204+52319+010556FM-15+009099999V0202601N007710094519N009999199+00601+00101999999ADDGA1071+009451999GA2071+011281999GA3071+015541999GE19MSL   +99999+99999GF199999071999009451999999MA1102401999999OC101491REMMET068METAR EDVE 022020Z 26015G29KT 9999 BKN031 BKN037 BKN051 06/01 Q1024=
0176103480999992015010220504+52319+010556FM-15+009099999V0202601N006710091419N009999199+00601+00101999999ADDGA1071+009141999GA2071+011581999GE19MSL   +99999+99999GF199999071999009141999999MA1102401999999OC101181REMMET061METAR EDVE 022050Z 26013G23KT 9999 BKN030 BKN038 06/01 Q1024=
0083103480999992015010306504+52319+010556FM-15+009099999V0202501N007219999999Y999999999+00301+00101999999ADDMA1102301999999OC101241REMMET048METAR EDVE 030650Z 25014G24KT CAVOK 03/01 Q1023=
0072103480999992015010307204+52319+010556FM-15+009099999V0202501N007219999999Y999999999+00401+00001999999ADDMA1102301999999REMMET045METAR EDVE 030720Z 25014KT CAVOK 04/00 Q1023=
0072103480999992015010307504+52319+010556FM-15+009099999V0202501N007219999999Y999999999+00401+00001999999ADDMA1102201999999REMMET045METAR EDVE 030750Z 25014KT CAVOK 04/00 Q1022=
0072103480999992015010308204+52319+010556FM-15+009099999V0202501N006719999999Y999999999+00401+00001999999ADDMA1102201999999REMMET045METAR EDVE 030820Z 25013KT CAVOK 04/00 Q1022=
0072103480999992015010308504+52319+010556FM-15+009099999V0202401N007219999999Y999999999+00401+00001999999ADDMA1102101999999REMMET045METAR EDVE 030850Z 24014KT CAVOK 04/00 Q1021=
0072103480999992015010309204+52319+010556FM-15+009099999V0202401N007219999999Y999999999+00401+00001999999ADDMA1102101999999REMMET045METAR EDVE 030920Z 24014KT CAVOK 04/00 Q1021=
0072103480999992015010309504+52319+010556FM-15+009099999V0202501N008219999999Y999999999+00501+00001999999ADDMA1102101999999REMMET045METAR EDVE 030950Z 25016KT CAVOK 05/00 Q1021=
0072103480999992015010310204+52319+010556FM-15+009099999V0202501N008819999999Y999999999+00501+00001999999ADDMA1102001999999REMMET045METAR EDVE 031020Z 25017KT CAVOK 05/00 Q1020=
0080103480999992015010310504+52319+010556FM-15+009099999V0202501V008819999999Y999999999+00501+00001999999ADDMA1101901999999REMMET053METAR EDVE 031050Z 25017KT 220V290 CAVOK 05/00 Q1019=
0083103480999992015010311204+52319+010556FM-15+009099999V0202601N008819999999Y999999999+00501+00001999999ADDMA1101901999999OC101541REMMET048METAR EDVE 031120Z 26017G30KT CAVOK 05/00 Q1019=
0083103480999992015010311504+52319+010556FM-15+009099999V0202501N008219999999Y999999999+00501+00001999999ADDMA1101801999999OC101341REMMET048METAR EDVE 031150Z 25016G26KT CAVOK 05/00 Q1018=
0072103480999992015010312204+52319+010556FM-15+009099999V0202501N008219999999Y999999999+00501+00101999999ADDMA1101701999999REMMET045METAR EDVE 031220Z 25016KT CAVOK 05/01 Q1017=
0080103480999992015010312504+52319+010556FM-15+009099999V0202601V007219999999Y999999999+00501+00001999999ADDMA1101701999999REMMET053METAR EDVE 031250Z 26014KT 230V290 CAVOK 05/00 Q1017=
0072103480999992015010313204+52319+010556FM-15+009099999V0202501N008219999999Y999999999+00501+00101999999ADDMA1101601999999REMMET045METAR EDVE 031320Z 25016KT CAVOK 05/01 Q1016=
0072103480999992015010313504+52319+010556FM-15+009099999V0202601N006719999999Y999999999+00501+00101999999ADDMA1101601999999REMMET045METAR EDVE 031350Z 26013KT CAVOK 05/01 Q1016=
0072103480999992015010314204+52319+010556FM-15+009099999V0202501N007219999999Y999999999+00401+00101999999ADDMA1101601999999REMMET045METAR EDVE 031420Z 25014KT CAVOK 04/01 Q1016=
0165103480999992015010314504+52319+010556FM-15+009099999V0202501N006710518219N009999199+00401+00101999999ADDGA1021+005181999GA2071+051821999GE19MSL   +99999+99999GF199999021999005181999999MA1101501999999REMMET058METAR EDVE 031450Z 25013KT 9999 FEW017 BKN170 04/01 Q1015=
0165103480999992015010315204+52319+010556FM-15+009099999V0202501N006210518219N009999199+00301+00101999999ADDGA1041+005181999GA2071+051821999GE19MSL   +99999+99999GF199999041999005181999999MA1101501999999REMMET058METAR EDVE 031520Z 25012KT 9999 SCT017 BKN170 03/01 Q1015=
0150103480999992015010315504+52319+010556FM-15+009099999V0202601V006710048819N009999199+00401+00201999999ADDGA1081+004881999GE19MSL   +99999+99999GF199999081999004881999999MA1101501999999REMMET059METAR EDVE 031550Z 26013KT 240V300 9999 OVC016 04/02 Q1015=
0150103480999992015010316204+52319+010556FM-15+009099999V0202501V007210045719N009999199+00401+00101999999ADDGA1081+004571999GE19MSL   +99999+99999GF199999081999004571999999MA1101401999999REMMET059METAR EDVE 031620Z 25014KT 230V290 9999 OVC015 04/01 Q1014=
0142103480999992015010316504+52319+010556FM-15+009099999V0202501N006210045719N009999199+00401+00101999999ADDGA1081+004571999GE19MSL   +99999+99999GF199999081999004571999999MA1101401999999REMMET051METAR EDVE 031650Z 25012KT 9999 OVC015 04/01 Q1014=
0150103480999992015010406504+52319+010556FM-15+009099999V0202901V005110033519N009999199+00301+00301999999ADDGA1071+003351999GE19MSL   +99999+99999GF199999071999003351999999MA1102301999999REMMET059METAR EDVE 040650Z 29010KT 250V320 9999 BKN011 03/03 Q1023=
0150103480999992015010407204+52319+010556FM-15+009099999V0203001V004110027419N009999199+00301+00301999999ADDGA1071+002741999GE19MSL   +99999+99999GF199999071999002741999999MA1102401999999REMMET059METAR EDVE 040720Z 30008KT 260V340 9999 BKN009 03/03 Q1024=
0150103480999992015010407504+52319+010556FM-15+009099999V0202901V004610027419N009999199+00301+00301999999ADDGA1071+002741999GE19MSL   +99999+99999GF199999071999002741999999MA1102401999999REMMET059METAR EDVE 040750Z 29009KT 250V330 9999 BKN009 03/03 Q1024=
0183103480999992015010408204+52319+010556FM-15+009099999V0202901V004610033519N009999199+00301+00301999999ADDGA1071+003351999GA2081+005791999GE19MSL   +99999+99999GF199999071999003351999999MA1102501999999MW1511REMMET070METAR EDVE 040820Z 29009KT 250V320 9999 -DZ BKN011 OVC019 03/03 Q1025=
0201103480999992015010408504+52319+010556FM-15+009099999V0202901V00461003351CN009999199+00301+00301999999ADDGA1021+002741999GA2041+003351999GA3071+010971999GE19MSL   +99999+99999GF199999021999002741999999MA1102501999999REMMET078METAR EDVE 040850Z 29009KT 250V340 9999 FEW009 SCT011 BKN036 03/03      Q1025=
0142103480999992015010409204+52319+010556FM-15+009099999V0202901N005719999999N009999199+00401+00301999999ADDGA1041+003051999GE19MSL   +99999+99999GF199999041999003051999999MA1102501999999REMMET051METAR EDVE 040920Z 29011KT 9999 SCT010 04/03 Q1025=
0150103480999992015010409504+52319+010556FM-15+009099999V0202901V007219999999N009999199+00401+00301999999ADDGA1041+003051999GE19MSL   +99999+99999GF199999041999003051999999MA1102601999999REMMET059METAR EDVE 040950Z 29014KT 250V310 9999 SCT010 04/03 Q1026=
0173103480999992015010410204+52319+010556FM-15+009099999V0203001V005710045719N009999199+00401+00301999999ADDGA1041+003351999GA2071+004571999GE19MSL   +99999+99999GF199999041999003351999999MA1102601999999REMMET066METAR EDVE 041020Z 30011KT 270V330 9999 SCT011 BKN015 04/03 Q1026=
0150103480999992015010410504+52319+010556FM-15+009099999V0203001V006210048819N009999199+00401+00301999999ADDGA1071+004881999GE19MSL   +99999+99999GF199999071999004881999999MA1102601999999REMMET059METAR EDVE 041050Z 30012KT 270V330 9999 BKN016 04/03 Q1026=
0173103480999992015010411204+52319+010556FM-15+009099999V0202901V007210061019N009999199+00401+00301999999ADDGA1041+004271999GA2071+006101999GE19MSL   +99999+99999GF199999041999004271999999MA1102601999999REMMET066METAR EDVE 041120Z 29014KT 260V320 9999 SCT014 BKN020 04/03 Q1026=
0173103480999992015010411504+52319+010556FM-15+009099999V0203001V005710048819N009999199+00501+00201999999ADDGA1071+004881999GA2081+006711999GE19MSL   +99999+99999GF199999071999004881999999MA1102601999999REMMET066METAR EDVE 041150Z 30011KT 270V340 9999 BKN016 OVC022 05/02 Q1026=
0173103480999992015010412204+52319+010556FM-15+009099999V0203001V006710051819N009999199+00501+00301999999ADDGA1071+005181999GA2071+008531999GE19MSL   +99999+99999GF199999071999005181999999MA1102701999999REMMET066METAR EDVE 041220Z 30013KT 270V330 9999 BKN017 BKN028 05/03 Q1027=
0184103480999992015010412504+52319+010556FM-15+009099999V0203001V005710054919N009999199+00501+00201999999ADDGA1071+005491999GA2071+007921999GE19MSL   +99999+99999GF199999071999005491999999MA1102701999999OC101081REMMET069METAR EDVE 041250Z 30011G21KT 270V340 9999 BKN018 BKN026 05/02 Q1027=
0188103480999992015010413204+52319+010556FM-15+009099999V0203001N006210082319N009999199+00501+00301999999ADDGA1041+005491999GA2071+008231999GA3071+012501999GE19MSL   +99999+99999GF199999041999005491999999MA1102701999999REMMET065METAR EDVE 041320Z 30012KT 9999 SCT018 BKN027 BKN041 05/03 Q1027=
0150103480999992015010413504+52319+010556FM-15+009099999V0202901V005710073219N009999199+00501+00201999999ADDGA1071+007321999GE19MSL   +99999+99999GF199999071999007321999999MA1102701999999REMMET059METAR EDVE 041350Z 29011KT 260V320 9999 BKN024 05/02 Q1027=
0173103480999992015010414204+52319+010556FM-15+009099999V0202801V005110064019N009999199+00501+00201999999ADDGA1071+006401999GA2071+008531999GE19MSL   +99999+99999GF199999071999006401999999MA1102801999999REMMET066METAR EDVE 041420Z 28010KT 250V320 9999 BKN021 BKN028 05/02 Q1028=
0199103480999992015010414504+52319+010556FM-15+009099999V0202901N00621018901CN009999199+00501+00201999999ADDGA1041+007011999GA2041+018901999GA3071+029261999GE19MSL   +99999+99999GF199999041999007011999999MA1102801999999OC101131REMMET068METAR EDVE 041450Z 29012G22KT 9999 SCT023 SCT062 BKN096 05/02 Q1028=
0165103480999992015010415204+52319+010556FM-15+009099999V0203001N005110143319N009999199+00501+00201999999ADDGA1021+008531999GA2071+014331999GE19MSL   +99999+99999GF199999021999008531999999MA1102801999999REMMET058METAR EDVE 041520Z 30010KT 9999 FEW028 BKN047 05/02 Q1028=
0201103480999992015010415504+52319+010556FM-15+009099999V0203001V005110131119N009999199+00501+00201999999ADDGA1041+009141999GA2071+013111999GA3081+015241999GE19MSL   +99999+99999GF199999041999009141999999MA1102901999999REMMET078METAR EDVE 041550Z 30010KT 270V330 9999 SCT030 BKN043 OVC050 05/02      Q1029=
0184103480999992015010416204+52319+010556FM-15+009099999V0203001V006210125019N009999199+00501+00201999999ADDGA1041+008841999GA2071+012501999GE19MSL   +99999+99999GF199999041999008841999999MA1102901999999OC101181REMMET069METAR EDVE 041620Z 30012G23KT 260V330 9999 SCT029 BKN041 05/02 Q1029=
0173103480999992015010416504+52319+010556FM-15+009099999V0202901V004110100619N009999199+00401+00201999999ADDGA1041+008531999GA2071+010061999GE19MSL   +99999+99999GF199999041999008531999999MA1102901999999REMMET066METAR EDVE 041650Z 29008KT 260V320 9999 SCT028 BKN033 04/02 Q1029=
0188103480999992015010417504+52319+010556FM-15+009099999V0202801N00311009141CN009999199+00301+00201999999ADDGA1021+007321999GA2041+009141999GA3071+011281999GE19MSL   +99999+99999GF199999021999007321999999MA1103001999999REMMET065METAR EDVE 041750Z 28006KT 9999 FEW024 SCT030 BKN037 03/02 Q1030=
0201103480999992015010505504+52319+010556FM-15+009099999V0202601V006210076219N009999199+00301+00201999999ADDGA1041+003961999GA2071+007621999GA3081+030481999GE19MSL   +99999+99999GF199999041999003961999999MA1103001999999REMMET078METAR EDVE 050550Z 26012KT 240V300 9999 SCT013 BKN025 OVC100 03/02      Q1030=
0150103480999992015010506204+52319+010556FM-15+009099999V0202601V006210036619N009999199+00301+00101999999ADDGA1071+003661999GE19MSL   +99999+99999GF199999071999003661999999MA1102901999999REMMET059METAR EDVE 050620Z 26012KT 230V290 9999 BKN012 03/01 Q1029=
0161103480999992015010506504+52319+010556FM-15+009099999V0202701V006710042719N009999199+00201+00101999999ADDGA1081+004271999GE19MSL   +99999+99999GF199999081999004271999999MA1102901999999OC101291REMMET062METAR EDVE 050650Z 27013G25KT 230V290 9999 OVC014 02/01 Q1029=
0150103480999992015010507204+52319+010556FM-15+009099999V0202601V007210042719N009999199+00201+00001999999ADDGA1081+004271999GE19MSL   +99999+99999GF199999081999004271999999MA1103001999999REMMET059METAR EDVE 050720Z 26014KT 240V300 9999 OVC014 02/00 Q1030=
0150103480999992015010507504+52319+010556FM-15+009099999V0202601V006710042719N009999199+00201+00001999999ADDGA1081+004271999GE19MSL   +99999+99999GF199999081999004271999999MA1103001999999REMMET059METAR EDVE 050750Z 26013KT 240V300 9999 OVC014 02/00 Q1030=
0142103480999992015010508204+52319+010556FM-15+009099999V0202701N006210042719N009999199+00201+00001999999ADDGA1081+004271999GE19MSL   +99999+99999GF199999081999004271999999MA1103001999999REMMET051METAR EDVE 050820Z 27012KT 9999 OVC014 02/00 Q1030=
0150103480999992015010508504+52319+010556FM-15+009099999V0202701V005110042719N009999199+00201+00001999999ADDGA1081+004271999GE19MSL   +99999+99999GF199999081999004271999999MA1103001999999REMMET059METAR EDVE 050850Z 27010KT 240V300 9999 OVC014 02/00 Q1030=
0150103480999992015010509204+52319+010556FM-15+009099999V0202901V006210039619N009999199+00201+00101999999ADDGA1081+003961999GE19MSL   +99999+99999GF199999081999003961999999MA1103001999999REMMET059METAR EDVE 050920Z 29012KT 250V320 9999 OVC013 02/01 Q1030=
0150103480999992015010509504+52319+010556FM-15+009099999V0202901V005710036619N007000199+00201+00101999999ADDGA1081+003661999GE19MSL   +99999+99999GF199999081999003661999999MA1103001999999REMMET059METAR EDVE 050950Z 29011KT 250V320 7000 OVC012 02/01 Q1030=
0160103480999992015010510204+52319+010556FM-15+009099999V0202801V006210024419N006000199+00201+00201999999ADDGA1081+002441999GE19MSL   +99999+99999GF199999081999002441999999MA1103001999999MW1511REMMET063METAR EDVE 051020Z 28012KT 250V310 6000 -DZ OVC008 02/02 Q1030=
0173103480999992015010510504+52319+010556FM-15+009099999V0202801V005110021319N006000199+00301+00201999999ADDGA1071+002131999GA2081+003661999GE19MSL   +99999+99999GF199999071999002131999999MA1103001999999REMMET066METAR EDVE 051050Z 28010KT 230V320 6000 BKN007 OVC012 03/02 Q1030=
0173103480999992015010511204+52319+010556FM-15+009099999V0202801V004610024419N007000199+00301+00301999999ADDGA1071+002441999GA2081+003961999GE19MSL   +99999+99999GF199999071999002441999999MA1103001999999REMMET066METAR EDVE 051120Z 28009KT 240V310 7000 BKN008 OVC013 03/03 Q1030=
0150103480999992015010511504+52319+010556FM-15+009099999V0202801V004610030519N007000199+00301+00301999999ADDGA1081+003051999GE19MSL   +99999+99999GF199999081999003051999999MA1102901999999REMMET059METAR EDVE 051150Z 28009KT 250V320 7000 OVC010 03/03 Q1029=
0173103480999992015010512204+52319+010556FM-15+009099999V0202801V004610036619N008000199+00301+00201999999ADDGA1071+003661999GA2081+004571999GE19MSL   +99999+99999GF199999071999003661999999MA1102901999999REMMET066METAR EDVE 051220Z 28009KT 250V330 8000 BKN012 OVC015 03/02 Q1029=
0201103480999992015010512504+52319+010556FM-15+009099999V0202901V004610045719N009999199+00301+00201999999ADDGA1041+003961999GA2071+004571999GA3081+005491999GE19MSL   +99999+99999GF199999041999003961999999MA1102901999999REMMET078METAR EDVE 051250Z 29009KT 260V320 9999 SCT013 BKN015 OVC018 03/02      Q1029=
0150103480999992015010513204+52319+010556FM-15+009099999V0202801V004610042719N009999199+00401+00201999999ADDGA1081+004271999GE19MSL   +99999+99999GF199999081999004271999999MA1102901999999REMMET059METAR EDVE 051320Z 28009KT 250V310 9999 OVC014 04/02 Q1029=
0150103480999992015010513504+52319+010556FM-15+009099999V0202901V005110042719N009999199+00401+00201999999ADDGA1081+004271999GE19MSL   +99999+99999GF199999081999004271999999MA1102901999999REMMET059METAR EDVE 051350Z 29010KT 250V320 9999 OVC014 04/02 Q1029=
0150103480999992015010514204+52319+010556FM-15+009099999V0202801V004110048819N009999199+00401+00201999999ADDGA1081+004881999GE19MSL   +99999+99999GF199999081999004881999999MA1102901999999REMMET059METAR EDVE 051420Z 28008KT 250V310 9999 OVC016 04/02 Q1029=
0150103480999992015010514504+52319+010556FM-15+009099999V0202801V003610045719N009999199+00401+00201999999ADDGA1081+004571999GE19MSL   +99999+99999GF199999081999004571999999MA1102901999999REMMET059METAR EDVE 051450Z 28007KT 250V310 9999 OVC015 04/02 Q1029=
0150103480999992015010515204+52319+010556FM-15+009099999V0202701V004110048819N009999199+00301+00201999999ADDGA1081+004881999GE19MSL   +99999+99999GF199999081999004881999999MA1102901999999REMMET059METAR EDVE 051520Z 27008KT 230V310 9999 OVC016 03/02 Q1029=
0142103480999992015010515504+52319+010556FM-15+009099999V0202701N003610051819N009999199+00301+00201999999ADDGA1081+005181999GE19MSL   +99999+99999GF199999081999005181999999MA1102901999999REMMET051METAR EDVE 051550Z 27007KT 9999 OVC017 03/02 Q1029=
0142103480999992015010516204+52319+010556FM-15+009099999V0202601N004110045719N009999199+00301+00201999999ADDGA1081+004571999GE19MSL   +99999+99999GF199999081999004571999999MA1102901999999REMMET051METAR EDVE 051620Z 26008KT 9999 OVC015 03/02 Q1029=
0150103480999992015010516504+52319+010556FM-15+009099999V0202601V003610048819N009999199+00301+00101999999ADDGA1081+004881999GE19MSL   +99999+99999GF199999081999004881999999MA1102901999999REMMET059METAR EDVE 051650Z 26007KT 230V290 9999 OVC016 03/01 Q1029=
0165103480999992015010517204+52319+010556FM-15+009099999V0202501N004110073219N009999199+00301+00001999999ADDGA1041+005491999GA2081+007321999GE19MSL   +99999+99999GF199999041999005491999999MA1102901999999REMMET058METAR EDVE 051720Z 25008KT 9999 SCT018 OVC024 03/00 Q1029=
0142103480999992015010517504+52319+010556FM-15+009099999V0202501N004110076219N009999199+00301+00001999999ADDGA1081+007621999GE19MSL   +99999+99999GF199999081999007621999999MA1102901999999REMMET051METAR EDVE 051750Z 25008KT 9999 OVC025 03/00 Q1029=
0142103480999992015010518204+52319+010556FM-15+009099999V0202501N004110079219N009999199+00301+00001999999ADDGA1081+007921999GE19MSL   +99999+99999GF199999081999007921999999MA1102901999999REMMET051METAR EDVE 051820Z 25008KT 9999 OVC026 03/00 Q1029=
0165103480999992015010519204+52319+010556FM-15+009099999V0202401N004110088419N009999199+00201+00001999999ADDGA1071+008841999GA2081+030481999GE19MSL   +99999+99999GF199999071999008841999999MA1102801999999REMMET058METAR EDVE 051920Z 24008KT 9999 BKN029 OVC100 02/00 Q1028=
0189103480999992015010520204+52319+010556FM-15+009099999V0202501N003110304819N009999199+00201+00001999999ADDGA1041+008841999GA2071+030481999GA3081+036581999GE19MSL   +99999+99999GF199999041999008841999999MA1102801999999REMMET066METAR EDVE 052020Z 25006KT 9999 SCT029 BKN100 OVC120 02/M00 Q1028=
0142103480999992015010605504+52319+010556FM-15+009099999V0201301N002110085319N008000199+00101+00101999999ADDGA1081+008531999GE19MSL   +99999+99999GF199999081999008531999999MA1102601999999REMMET051METAR EDVE 060550Z 13004KT 8000 OVC028 01/01 Q1026=
0142103480999992015010606204+52319+010556FM-15+009099999V0201401N002110088419N009999199+00101+00101999999ADDGA1081+008841999GE19MSL   +99999+99999GF199999081999008841999999MA1102501999999REMMET051METAR EDVE 060620Z 14004KT 9999 OVC029 01/01 Q1025=
0142103480999992015010606504+52319+010556FM-15+009099999V0201401N002610088419N009999199+00201+00101999999ADDGA1081+008841999GE19MSL   +99999+99999GF199999081999008841999999MA1102501999999REMMET051METAR EDVE 060650Z 14005KT 9999 OVC029 02/01 Q1025=
0142103480999992015010607204+52319+010556FM-15+009099999V0201401N003110091419N009999199+00201+00101999999ADDGA1081+009141999GE19MSL   +99999+99999GF199999081999009141999999MA1102501999999REMMET051METAR EDVE 060720Z 14006KT 9999 OVC030 02/01 Q1025=
0142103480999992015010607504+52319+010556FM-15+009099999V0201601N003110088419N009999199+00201+00101999999ADDGA1081+008841999GE19MSL   +99999+99999GF199999081999008841999999MA1102501999999REMMET051METAR EDVE 060750Z 16006KT 9999 OVC029 02/01 Q1025=
0142103480999992015010608204+52319+010556FM-15+009099999V0201401N002610088419N009999199+00201+00001999999ADDGA1081+008841999GE19MSL   +99999+99999GF199999081999008841999999MA1102501999999REMMET051METAR EDVE 060820Z 14005KT 9999 OVC029 02/00 Q1025=
0142103480999992015010608504+52319+010556FM-15+009099999V0209999V001510088419N009000199+00201+00101999999ADDGA1081+008841999GE19MSL   +99999+99999GF199999081999008841999999MA1102501999999REMMET051METAR EDVE 060850Z VRB03KT 9000 OVC029 02/01 Q1025=
0142103480999992015010609204+52319+010556FM-15+009099999V0201201N002610091419N009999199+00301+00101999999ADDGA1081+009141999GE19MSL   +99999+99999GF199999081999009141999999MA1102501999999REMMET051METAR EDVE 060920Z 12005KT 9999 OVC030 03/01 Q1025=
0142103480999992015010609504+52319+010556FM-15+009099999V0201301N003610088419N009999199+00301+00001999999ADDGA1081+008841999GE19MSL   +99999+99999GF199999081999008841999999MA1102501999999REMMET051METAR EDVE 060950Z 13007KT 9999 OVC029 03/00 Q1025=
0166103480999992015010610204+52319+010556FM-15+009099999V0201301N005110091419N009999199+00301-00101999999ADDGA1041+007011999GA2071+009141999GE19MSL   +99999+99999GF199999041999007011999999MA1102501999999REMMET059METAR EDVE 061020Z 13010KT 9999 SCT023 BKN030 03/M01 Q1025=
0166103480999992015010610504+52319+010556FM-15+009099999V0201401N004110088419N009999199+00301-00101999999ADDGA1021+005791999GA2071+008841999GE19MSL   +99999+99999GF199999021999005791999999MA1102401999999REMMET059METAR EDVE 061050Z 14008KT 9999 FEW019 BKN029 03/M01 Q1024=
0143103480999992015010611204+52319+010556FM-15+009099999V0201501N004110085319N009999199+00301+00001999999ADDGA1071+008531999GE19MSL   +99999+99999GF199999071999008531999999MA1102401999999REMMET052METAR EDVE 061120Z 15008KT 9999 BKN028 03/M00 Q1024=
0142103480999992015010611504+52319+010556FM-15+009099999V0201501N003610082319N009999199+00301+00001999999ADDGA1081+008231999GE19MSL   +99999+99999GF199999081999008231999999MA1102401999999REMMET051METAR EDVE 061150Z 15007KT 9999 OVC027 03/00 Q1024=
0142103480999992015010612204+52319+010556FM-15+009099999V0201601N004610079219N009999199+00301+00001999999ADDGA1081+007921999GE19MSL   +99999+99999GF199999081999007921999999MA1102301999999REMMET051METAR EDVE 061220Z 16009KT 9999 OVC026 03/00 Q1023=
0142103480999992015010612504+52319+010556FM-15+009099999V0201601N003610076219N009999199+00401+00001999999ADDGA1081+007621999GE19MSL   +99999+99999GF199999081999007621999999MA1102301999999REMMET051METAR EDVE 061250Z 16007KT 9999 OVC025 04/00 Q1023=
0174103480999992015010613204+52319+010556FM-15+009099999V0201601V003610070119N009999199+00401+00001999999ADDGA1021+005791999GA2081+007011999GE19MSL   +99999+99999GF199999021999005791999999MA1102301999999REMMET067METAR EDVE 061320Z 16007KT 130V200 9999 FEW019 OVC023 04/M00 Q1023=
0166103480999992015010613504+52319+010556FM-15+009099999V0201501N003610073219N009999199+00301-00101999999ADDGA1041+005791999GA2081+007321999GE19MSL   +99999+99999GF199999041999005791999999MA1102301999999REMMET059METAR EDVE 061350Z 15007KT 9999 SCT019 OVC024 03/M01 Q1023=
0143103480999992015010614204+52319+010556FM-15+009099999V0201401N004119999999N009999199+00301-00101999999ADDGA1021+007011999GE19MSL   +99999+99999GF199999021999007011999999MA1102201999999REMMET052METAR EDVE 061420Z 14008KT 9999 FEW023 03/M01 Q1022=
0073103480999992015010614504+52319+010556FM-15+009099999V0201301N003619999999Y999999999+00201-00101999999ADDMA1102201999999REMMET046METAR EDVE 061450Z 13007KT CAVOK 02/M01 Q1022=
0073103480999992015010615204+52319+010556FM-15+009099999V0201301N003119999999Y999999999+00201-00101999999ADDMA1102201999999REMMET046METAR EDVE 061520Z 13006KT CAVOK 02/M01 Q1022=
0073103480999992015010615504+52319+010556FM-15+009099999V0201201N003619999999Y999999999+00201-00101999999ADDMA1102201999999REMMET046METAR EDVE 061550Z 12007KT CAVOK 02/M01 Q1022=
0073103480999992015010616204+52319+010556FM-15+009099999V0201301N003619999999Y999999999+00101+00001999999ADDMA1102101999999REMMET046METAR EDVE 061620Z 13007KT CAVOK 01/M00 Q1021=
0073103480999992015010616504+52319+010556FM-15+009099999V0201501N002619999999Y999999999+00101+00001999999ADDMA1102101999999REMMET046METAR EDVE 061650Z 15005KT CAVOK 01/M00 Q1021=
0073103480999992015010617204+52319+010556FM-15+009099999V0201501N005119999999Y999999999+00201-00101999999ADDMA1102101999999REMMET046METAR EDVE 061720Z 15010KT CAVOK 02/M01 Q1021=
0073103480999992015010617504+52319+010556FM-15+009099999V0201601N003619999999Y999999999+00201-00101999999ADDMA1102101999999REMMET046METAR EDVE 061750Z 16007KT CAVOK 02/M01 Q1021=
0073103480999992015010618204+52319+010556FM-15+009099999V0201501N003119999999Y999999999+00201-00101999999ADDMA1102101999999REMMET046METAR EDVE 061820Z 15006KT CAVOK 02/M01 Q1021=
0073103480999992015010618504+52319+010556FM-15+009099999V0201501N002619999999Y999999999+00101-00101999999ADDMA1102101999999REMMET046METAR EDVE 061850Z 15005KT CAVOK 01/M01 Q1021=
0073103480999992015010619204+52319+010556FM-15+009099999V0201501N002619999999Y999999999+00101-00101999999ADDMA1102101999999REMMET046METAR EDVE 061920Z 15005KT CAVOK 01/M01 Q1021=
0073103480999992015010619504+52319+010556FM-15+009099999V0201401N002619999999Y999999999+00001-00201999999ADDMA1102101999999REMMET046METAR EDVE 061950Z 14005KT CAVOK 00/M02 Q1021=
0073103480999992015010620204+52319+010556FM-15+009099999V0201501N002619999999Y999999999+00001-00101999999ADDMA1102101999999REMMET046METAR EDVE 062020Z 15005KT CAVOK 00/M01 Q1021=
0073103480999992015010620504+52319+010556FM-15+009099999V0201701N002119999999Y999999999+00001-00201999999ADDMA1102101999999REMMET046METAR EDVE 062050Z 17004KT CAVOK 00/M02 Q1021=
0151103480999992015010705504+52319+010556FM-15+009099999V0202601N004610009119N003400199+00401+00401999999ADDGA1081+000911999GE19MSL   +99999+99999GF199999081999000911999999MA1102301999999MW1531REMMET054METAR EDVE 070550Z 26009KT 3400 DZ OVC003 04/04 Q1023=
0151103480999992015010706204+52319+010556FM-15+009099999V0202601N004110018319N007000199+00401+00401999999ADDGA1081+001831999GE19MSL   +99999+99999GF199999081999001831999999MA1102301999999REMMET060METAR COR EDVE 070620Z 26008KT 7000 OVC006 04/04 Q1023 REDZ=
0150103480999992015010706504+52319+010556FM-15+009099999V0202801V003610018319N007000199+00401+00401999999ADDGA1081+001831999GE19MSL   +99999+99999GF199999081999001831999999MA1102301999999REMMET059METAR EDVE 070650Z 28007KT 240V310 7000 OVC006 04/04 Q1023=
0165103480999992015010707204+52319+010556FM-15+009099999V0202801N004110015219N007000199+00401+00401999999ADDGA1071+001521999GA2081+003351999GE19MSL   +99999+99999GF199999071999001521999999MA1102401999999REMMET058METAR EDVE 070720Z 28008KT 7000 BKN005 OVC011 04/04 Q1024=
0150103480999992015010707504+52319+010556FM-15+009099999V0202901V004110024419N009000199+00401+00401999999ADDGA1081+002441999GE19MSL   +99999+99999GF199999081999002441999999MA1102401999999REMMET059METAR EDVE 070750Z 29008KT 250V310 9000 OVC008 04/04 Q1024=
0173103480999992015010708204+52319+010556FM-15+009099999V0202801V003610021319N007000199+00401+00401999999ADDGA1071+002131999GA2081+009141999GE19MSL   +99999+99999GF199999071999002131999999MA1102501999999REMMET066METAR EDVE 070820Z 28007KT 250V320 7000 BKN007 OVC030 04/04 Q1025=
0165103480999992015010708504+52319+010556FM-15+009099999V0202701N003610091419N007000199+00501+00501999999ADDGA1021+002131999GA2081+009141999GE19MSL   +99999+99999GF199999021999002131999999MA1102501999999REMMET058METAR EDVE 070850Z 27007KT 7000 FEW007 OVC030 05/05 Q1025=
0165103480999992015010709204+52319+010556FM-15+009099999V0202601N003610097519N008000199+00501+00501999999ADDGA1021+002131999GA2071+009751999GE19MSL   +99999+99999GF199999021999002131999999MA1102501999999REMMET058METAR EDVE 070920Z 26007KT 8000 FEW007 BKN032 05/05 Q1025=
0180103480999992015010709504+52319+010556FM-15+009099999V0202701N004610085319N009000199+00501+00501999999ADDGA1021+002441999GA2071+008531081GE19MSL   +99999+99999GF199999021999002441999999MA1102501999999MW1801REMMET067METAR EDVE 070950Z 27009KT 9000 -SHRA FEW008 BKN028TCU 05/05 Q1025=
0165103480999992015010710204+52319+010556FM-15+009099999V0202501N004610115819N009999199+00501+00501999999ADDGA1021+002131999GA2071+011581999GE19MSL   +99999+99999GF199999021999002131999999MA1102601999999REMMET058METAR EDVE 071020Z 25009KT 9999 FEW007 BKN038 05/05 Q1026=
0165103480999992015010710504+52319+010556FM-15+009099999V0202501N005110121919N009999199+00601+00601999999ADDGA1021+002441999GA2071+012191999GE19MSL   +99999+99999GF199999021999002441999999MA1102601999999REMMET058METAR EDVE 071050Z 25010KT 9999 FEW008 BKN040 06/06 Q1026=
0173103480999992015010711204+52319+010556FM-15+009099999V0202701V006210134119N009999199+00601+00501999999ADDGA1041+003051999GA2071+013411999GE19MSL   +99999+99999GF199999041999003051999999MA1102601999999REMMET066METAR EDVE 071120Z 27012KT 230V290 9999 SCT010 BKN044 06/05 Q1026=
0173103480999992015010711504+52319+010556FM-15+009099999V0202601V005110137219N009999199+00601+00501999999ADDGA1041+003961999GA2071+013721999GE19MSL   +99999+99999GF199999041999003961999999MA1102601999999REMMET066METAR EDVE 071150Z 26010KT 240V300 9999 SCT013 BKN045 06/05 Q1026=
0165103480999992015010712204+52319+010556FM-15+009099999V0202601N005110125019N009999199+00601+00501999999ADDGA1041+003661999GA2071+012501999GE19MSL   +99999+99999GF199999041999003661999999MA1102501999999REMMET058METAR EDVE 071220Z 26010KT 9999 SCT012 BKN041 06/05 Q1025=
0165103480999992015010712504+52319+010556FM-15+009099999V0202601N006210121919N009999199+00601+00401999999ADDGA1041+003961999GA2071+012191999GE19MSL   +99999+99999GF199999041999003961999999MA1102501999999REMMET058METAR EDVE 071250Z 26012KT 9999 SCT013 BKN040 06/04 Q1025=
0165103480999992015010713204+52319+010556FM-15+009099999V0202501N005110051819N009999199+00601+00401999999ADDGA1071+005181999GA2071+011581999GE19MSL   +99999+99999GF199999071999005181999999MA1102601999999REMMET058METAR EDVE 071320Z 25010KT 9999 BKN017 BKN038 06/04 Q1026=
0165103480999992015010713504+52319+010556FM-15+009099999V0202701N00411012191CN009999199+00601+00401999999ADDGA1041+007011999GA2041+012191999GE19MSL   +99999+99999GF199999041999007011999999MA1102601999999REMMET058METAR EDVE 071350Z 27008KT 9999 SCT023 SCT040 06/04 Q1026=
0150103480999992015010714204+52319+010556FM-15+009099999V0202801V004610064019N009999199+00501+00301999999ADDGA1071+006401999GE19MSL   +99999+99999GF199999071999006401999999MA1102601999999REMMET059METAR EDVE 071420Z 28009KT 260V320 9999 BKN021 05/03 Q1026=
0142103480999992015010714504+52319+010556FM-15+009099999V0202701N002619999999N009999199+00501+00301999999ADDGA1041+006711999GE19MSL   +99999+99999GF199999041999006711999999MA1102601999999REMMET051METAR EDVE 071450Z 27005KT 9999 SCT022 05/03 Q1026=
0142103480999992015010715204+52319+010556FM-15+009099999V0202601N005119999999N009999199+00501+00201999999ADDGA1021+005791999GE19MSL   +99999+99999GF199999021999005791999999MA1102601999999REMMET051METAR EDVE 071520Z 26010KT 9999 FEW019 05/02 Q1026=
0072103480999992015010715504+52319+010556FM-15+009099999V0202401N003619999999Y999999999+00301+00101999999ADDMA1102601999999REMMET045METAR EDVE 071550Z 24007KT CAVOK 03/01 Q1026=
0072103480999992015010716204+52319+010556FM-15+009099999V0202401N003119999999Y999999999+00301+00101999999ADDMA1102601999999REMMET045METAR EDVE 071620Z 24006KT CAVOK 03/01 Q1026=
0072103480999992015010716504+52319+010556FM-15+009099999V0202301N003619999999Y999999999+00301+00101999999ADDMA1102601999999REMMET045METAR EDVE 071650Z 23007KT CAVOK 03/01 Q1026=
0072103480999992015010717204+52319+010556FM-15+009099999V0202201N003619999999Y999999999+00301+00101999999ADDMA1102601999999REMMET045METAR EDVE 071720Z 22007KT CAVOK 03/01 Q1026=
0072103480999992015010717504+52319+010556FM-15+009099999V0202301N003619999999Y999999999+00301+00101999999ADDMA1102601999999REMMET045METAR EDVE 071750Z 23007KT CAVOK 03/01 Q1026=
0142103480999992015010718204+52319+010556FM-15+009099999V0202201N004619999999N009999199+00401+00101999999ADDGA1041+010061999GE19MSL   +99999+99999GF199999041999010061999999MA1102601999999REMMET051METAR EDVE 071820Z 22009KT 9999 SCT033 04/01 Q1026=
0165103480999992015010718504+52319+010556FM-15+009099999V0202201N004610118919N009999199+00401+00101999999ADDGA1021+010061999GA2071+011891999GE19MSL   +99999+99999GF199999021999010061999999MA1102601999999REMMET058METAR EDVE 071850Z 22009KT 9999 FEW033 BKN039 04/01 Q1026=
0165103480999992015010719204+52319+010556FM-15+009099999V0202201N004610670619N009999199+00401+00101999999ADDGA1041+011581999GA2071+067061999GE19MSL   +99999+99999GF199999041999011581999999MA1102601999999REMMET058METAR EDVE 071920Z 22009KT 9999 SCT038 BKN220 04/01 Q1026=
0165103480999992015010719504+52319+010556FM-15+009099999V0202201N005710609619N009999199+00401+00101999999ADDGA1021+011891999GA2071+060961999GE19MSL   +99999+99999GF199999021999011891999999MA1102601999999REMMET058METAR EDVE 071950Z 22011KT 9999 FEW039 BKN200 04/01 Q1026=
0165103480999992015010720204+52319+010556FM-15+009099999V0202201N006210640119N009999199+00401+00001999999ADDGA1021+011581999GA2071+064011999GE19MSL   +99999+99999GF199999021999011581999999MA1102501999999REMMET058METAR EDVE 072020Z 22012KT 9999 FEW038 BKN210 04/00 Q1025=
0165103480999992015010720504+52319+010556FM-15+009099999V0202301N006210670619N009999199+00401+00101999999ADDGA1021+012801999GA2071+067061999GE19MSL   +99999+99999GF199999021999012801999999MA1102501999999REMMET058METAR EDVE 072050Z 23012KT 9999 FEW042 BKN220 04/01 Q1025=
0142103480999992015010805204+52319+010556FM-15+009099999V0202201N005710070119N009999199+00301+00101999999ADDGA1071+007011999GE19MSL   +99999+99999GF199999071999007011999999MA1102101999999REMMET051METAR EDVE 080520Z 22011KT 9999 BKN023 03/01 Q1021=
0142103480999992015010805504+52319+010556FM-15+009099999V0202301N006210070119N009999199+00301+00101999999ADDGA1081+007011999GE19MSL   +99999+99999GF199999081999007011999999MA1102101999999REMMET051METAR EDVE 080550Z 23012KT 9999 OVC023 03/01 Q1021=
0142103480999992015010806204+52319+010556FM-15+009099999V0202301N007710064019N009999199+00401+00101999999ADDGA1081+006401999GE19MSL   +99999+99999GF199999081999006401999999MA1102101999999REMMET051METAR EDVE 080620Z 23015KT 9999 OVC021 04/01 Q1021=
0165103480999992015010806504+52319+010556FM-15+009099999V0202301N007210070119N009999199+00401+00101999999ADDGA1021+004571999GA2081+007011999GE19MSL   +99999+99999GF199999021999004571999999MA1102001999999REMMET058METAR EDVE 080650Z 23014KT 9999 FEW015 OVC023 04/01 Q1020=
0175103480999992015010807204+52319+010556FM-15+009099999V0202301N005710067119N009999199+00401+00201999999ADDGA1021+004271999GA2081+006711999GE19MSL   +99999+99999GF199999021999004271999999MA1102001999999MW1511REMMET062METAR EDVE 080720Z 23011KT 9999 -DZ FEW014 OVC022 04/02 Q1020=
0142103480999992015010807504+52319+010556FM-15+009099999V0202201N005710057919N009999199+00401+00301999999ADDGA1081+005791999GE19MSL   +99999+99999GF199999081999005791999999MA1102001999999REMMET051METAR EDVE 080750Z 22011KT 9999 OVC019 04/03 Q1020=
0142103480999992015010808204+52319+010556FM-15+009099999V0202301N006710051819N009999199+00401+00301999999ADDGA1081+005181999GE19MSL   +99999+99999GF199999081999005181999999MA1102001999999REMMET051METAR EDVE 080820Z 23013KT 9999 OVC017 04/03 Q1020=
0165103480999992015010808504+52319+010556FM-15+009099999V0202301N005710061019N009999199+00501+00301999999ADDGA1021+003961999GA2081+006101999GE19MSL   +99999+99999GF199999021999003961999999MA1102001999999REMMET058METAR EDVE 080850Z 23011KT 9999 FEW013 OVC020 05/03 Q1020=
0165103480999992015010809204+52319+010556FM-15+009099999V0202301N005710061019N009999199+00501+00401999999ADDGA1021+004271999GA2081+006101999GE19MSL   +99999+99999GF199999021999004271999999MA1102001999999REMMET058METAR EDVE 080920Z 23011KT 9999 FEW014 OVC020 05/04 Q1020=
0165103480999992015010809504+52319+010556FM-15+009099999V0202301N006210064019N009999199+00501+00401999999ADDGA1021+003961999GA2081+006401999GE19MSL   +99999+99999GF199999021999003961999999MA1101901999999REMMET058METAR EDVE 080950Z 23012KT 9999 FEW013 OVC021 05/04 Q1019=
0165103480999992015010810204+52319+010556FM-15+009099999V0202301N007210057919N009999199+00601+00401999999ADDGA1041+004271999GA2081+005791999GE19MSL   +99999+99999GF199999041999004271999999MA1101901999999REMMET058METAR EDVE 081020Z 23014KT 9999 SCT014 OVC019 06/04 Q1019=
0142103480999992015010810504+52319+010556FM-15+009099999V0202401N007710048819N009999199+00601+00401999999ADDGA1081+004881999GE19MSL   +99999+99999GF199999081999004881999999MA1101901999999REMMET051METAR EDVE 081050Z 24015KT 9999 OVC016 06/04 Q1019=
0142103480999992015010811204+52319+010556FM-15+009099999V0202301N008210051819N009999199+00601+00401999999ADDGA1081+005181999GE19MSL   +99999+99999GF199999081999005181999999MA1101801999999REMMET051METAR EDVE 081120Z 23016KT 9999 OVC017 06/04 Q1018=
0142103480999992015010811504+52319+010556FM-15+009099999V0202301N006710051819N009999199+00601+00401999999ADDGA1081+005181999GE19MSL   +99999+99999GF199999081999005181999999MA1101801999999REMMET051METAR EDVE 081150Z 23013KT 9999 OVC017 06/04 Q1018=
0142103480999992015010812204+52319+010556FM-15+009099999V0202301N007210057919N009999199+00601+00401999999ADDGA1081+005791999GE19MSL   +99999+99999GF199999081999005791999999MA1101701999999REMMET051METAR EDVE 081220Z 23014KT 9999 OVC019 06/04 Q1017=
0165103480999992015010812504+52319+010556FM-15+009099999V0202201N006710067119N009999199+00701+00401999999ADDGA1021+005181999GA2081+006711999GE19MSL   +99999+99999GF199999021999005181999999MA1101701999999REMMET058METAR EDVE 081250Z 22013KT 9999 FEW017 OVC022 07/04 Q1017=
0174103480999992015010813204+52319+010556FM-15+009099999V0202201N006710051819N009999199+00601+00501999999ADDGA1071+005181999GA2081+007011999GE19MSL   +99999+99999GF199999071999005181999999MA1101601999999MW1531REMMET061METAR EDVE 081320Z 22013KT 9999 DZ BKN017 OVC023 06/05 Q1016=
0197103480999992015010813504+52319+010556FM-15+009099999V0202201N006710076219N003500199+00601+00601999999ADDGA1021+002741999GA2071+007621999GA3081+009751999GE19MSL   +99999+99999GF199999021999002741999999MA1101601999999MW1531REMMET068METAR EDVE 081350Z 22013KT 3500 DZ FEW009 BKN025 OVC032 06/06 Q1016=
0206103480999992015010814204+52319+010556FM-15+009099999V0202201N007210018319N003300199+00601+00601999999ADDGA1071+001831999GA2071+004271999GA3081+007621999GE19MSL   +99999+99999GF199999071999001831999999MA1101701999999MW1101MW2631REMMET071METAR EDVE 081420Z 22014KT 3300 RA BR BKN006 BKN014 OVC025 06/06 Q1017=
0170103480999992015010814504+52319+010556FM-15+009099999V0202201N006210018319N009999199+00601+00601999999ADDGA1071+001831999GA2081+012191999GE19MSL   +99999+99999GF199999071999001831999999MA1101601999999REMMET063METAR EDVE 081450Z 22012KT 9999 BKN006 OVC040 06/06 Q1016 RERA=
0188103480999992015010815204+52319+010556FM-15+009099999V0202101N00571003051CN009999199+00601+00601999999ADDGA1021+002441999GA2041+003051999GA3081+012801999GE19MSL   +99999+99999GF199999021999002441999999MA1101501999999REMMET065METAR EDVE 081520Z 21011KT 9999 FEW008 SCT010 OVC042 06/06 Q1015=
0175103480999992015010815504+52319+010556FM-15+009099999V0202201N005710070119N009999199+00701+00701999999ADDGA1071+007011999GA2081+009451999GE19MSL   +99999+99999GF199999071999007011999999MA1101501999999MW1511REMMET062METAR EDVE 081550Z 22011KT 9999 -DZ BKN023 OVC031 07/07 Q1015=
0198103480999992015010816204+52319+010556FM-15+009099999V0202301N006210091419N009999199+00701+00701999999ADDGA1041+006711999GA2071+009141999GA3081+013411999GE19MSL   +99999+99999GF199999041999006711999999MA1101501999999MW1511REMMET069METAR EDVE 081620Z 23012KT 9999 -DZ SCT022 BKN030 OVC044 07/07 Q1015=
0197103480999992015010816504+52319+010556FM-15+009099999V0202301N006710054919N009999199+00701+00701999999ADDGA1021+002741999GA2071+005491999GA3081+007011999GE19MSL   +99999+99999GF199999021999002741999999MA1101501999999MW1531REMMET068METAR EDVE 081650Z 23013KT 9999 DZ FEW009 BKN018 OVC023 07/07 Q1015=
0188103480999992015010817504+52319+010556FM-15+009099999V0202301N004610054919N009999199+00701+00701999999ADDGA1021+004571999GA2071+005491999GA3081+009141999GE19MSL   +99999+99999GF199999021999004571999999MA1101401999999REMMET065METAR EDVE 081750Z 23009KT 9999 FEW015 BKN018 OVC030 07/07 Q1014=
0210103480999992015010818204+52319+010556FM-15+009099999V0202701V003610054919N009999199+00601+00601999999ADDGA1041+001831999GA2071+005491999GA3081+009141999GE19MSL   +99999+99999GF199999041999001831999999MA1101401999999MW1531REMMET081METAR EDVE 081820Z 27007KT 240V300 9999 DZ SCT006 BKN018 OVC030 06/06      Q1014=
0215103480999992015010818504+52319+010556FM-15+009099999V0202801V006210036619N009999199+00601+00601999999ADDGA1021+001831999GA2071+003661999GA3081+007921999GE19MSL   +99999+99999GF199999021999001831999999MA1101501999999MW1531REMMET086METAR EDVE 081850Z 28012KT 250V310 9999 DZ FEW006 BKN012 OVC026 06/06      Q1015 REDZ=
0204103480999992015010819204+52319+010556FM-15+009099999V0203001V006710033519N009999199+00601+00601999999ADDGA1021+002131999GA2071+003351999GE19MSL   +99999+99999GF199999021999002131999999MA1101601999999MW1511OC101291REMMET083METAR EDVE 081920Z 30013G25KT 260V330 9999 -DZ FEW007 BKN011 06/06      Q1016 REDZ=
0175103480999992015010819504+52319+010556FM-15+009099999V0203101N006210042719N009999199+00501+00401999999ADDGA1021+002741999GA2071+004271999GE19MSL   +99999+99999GF199999021999002741999999MA1101701999999MW1511REMMET062METAR EDVE 081950Z 31012KT 9999 -DZ FEW009 BKN014 05/04 Q1017=
0183103480999992015010820204+52319+010556FM-15+009099999V0202901V005110036619N009999199+00401+00401999999ADDGA1021+002741999GA2071+003661999GE19MSL   +99999+99999GF199999021999002741999999MA1101801999999MW1511REMMET070METAR EDVE 082020Z 29010KT 260V320 9999 -DZ FEW009 BKN012 04/04 Q1018=
0201103480999992015010820504+52319+010556FM-15+009099999V0202601V00411006101CN009999199+00401+00401999999ADDGA1021+003051999GA2041+006101999GA3071+019811999GE19MSL   +99999+99999GF199999021999003051999999MA1101901999999REMMET078METAR EDVE 082050Z 26008KT 240V300 9999 FEW010 SCT020 BKN065 04/04      Q1019=
0142103480999992015010905504+52319+010556FM-15+009099999V0202401N008210091419N009999199+00601+00301999999ADDGA1071+009141999GE19MSL   +99999+99999GF199999071999009141999999MA1101601999999REMMET051METAR EDVE 090550Z 24016KT 9999 BKN030 06/03 Q1016=
0142103480999992015010906204+52319+010556FM-15+009099999V0202301N008219999999N009999199+00601+00301999999ADDGA1041+009141999GE19MSL   +99999+99999GF199999041999009141999999MA1101401999999REMMET051METAR EDVE 090620Z 23016KT 9999 SCT030 06/03 Q1014=
0072103480999992015010906504+52319+010556FM-15+009099999V0202301N008819999999Y999999999+00701+00301999999ADDMA1101301999999REMMET045METAR EDVE 090650Z 23017KT CAVOK 07/03 Q1013=
0199103480999992015010907204+52319+010556FM-15+009099999V0202401N009810176819N009999199+00701+00201999999ADDGA1041+010971999GA2071+017681999GA3081+021641999GE19MSL   +99999+99999GF199999041999010971999999MA1101201999999OC101541REMMET068METAR EDVE 090720Z 24019G30KT 9999 SCT036 BKN058 OVC071 07/02 Q1012=
0165103480999992015010907504+52319+010556FM-15+009099999V0202401N009810176819N009999199+00701+00201999999ADDGA1041+010971999GA2071+017681999GE19MSL   +99999+99999GF199999041999010971999999MA1101101999999REMMET058METAR EDVE 090750Z 24019KT 9999 SCT036 BKN058 07/02 Q1011=
0142103480999992015010908204+52319+010556FM-15+009099999V0202401N009810109719N009999199+00801+00301999999ADDGA1081+010971999GE19MSL   +99999+99999GF199999081999010971999999MA1101101999999REMMET051METAR EDVE 090820Z 24019KT 9999 OVC036 08/03 Q1011=
0161103480999992015010908504+52319+010556FM-15+009099999V0202401V011310094519N009999199+00801+00301999999ADDGA1081+009451999GE19MSL   +99999+99999GF199999081999009451999999MA1101001999999OC101801REMMET062METAR EDVE 090850Z 24022G35KT 210V270 9999 OVC031 08/03 Q1010=
0153103480999992015010909204+52319+010556FM-15+009099999V0202501N012910088419N009999199+00901+00401999999ADDGA1081+008841999GE19MSL   +99999+99999GF199999081999008841999999MA1101001999999OC101961REMMET054METAR EDVE 090920Z 25025G38KT 9999 OVC029 09/04 Q1010=
0153103480999992015010909504+52319+010556FM-15+009099999V0202501N012410082319N009999199+00901+00401999999ADDGA1081+008231999GE19MSL   +99999+99999GF199999081999008231999999MA1100901999999OC101851REMMET054METAR EDVE 090950Z 25024G36KT 9999 OVC027 09/04 Q1009=
0176103480999992015010910204+52319+010556FM-15+009099999V0202601N010310079219N009999199+00901+00501999999ADDGA1071+007921999GA2081+009751999GE19MSL   +99999+99999GF199999071999007921999999MA1101001999999OC101651REMMET061METAR EDVE 091020Z 26020G32KT 9999 BKN026 OVC032 09/05 Q1010=
0153103480999992015010910504+52319+010556FM-15+009099999V0202601N012910073219N009999199+00901+00501999999ADDGA1071+007321999GE19MSL   +99999+99999GF199999071999007321999999MA1100901999999OC102011REMMET054METAR EDVE 091050Z 26025G39KT 9999 BKN024 09/05 Q1009=
0153103480999992015010911204+52319+010556FM-15+009099999V0202501N011819999999N009999199+00801+00601999999ADDGA1041+007621999GE19MSL   +99999+99999GF199999041999007621999999MA1100801999999OC101851REMMET054METAR EDVE 091120Z 25023G36KT 9999 SCT025 08/06 Q1008=
0175103480999992015010911504+52319+010556FM-15+009099999V0202501N012910128019N009999199+00801+00601999999ADDGA1021+006401999GA2071+012801999GE19MSL   +99999+99999GF199999021999006401999999MA1100801999999MW1611REMMET062METAR EDVE 091150Z 25025KT 9999 -RA FEW021 BKN042 08/06 Q1008=
0190103480999992015010912204+52319+010556FM-15+009099999V0202601N012910079219N009999199+00801+00701999999ADDGA1041+005791999GA2071+007921999GE19MSL   +99999+99999GF199999041999005791999999MA1100801999999MW1611OC101851REMMET069METAR COR EDVE 091220Z 26025G36KT 9999 -RA SCT019 BKN026 08/07 Q1008=
0186103480999992015010912504+52319+010556FM-15+009099999V0202601N012910079219N009999199+00801+00701999999ADDGA1041+005181999GA2081+007921999GE19MSL   +99999+99999GF199999041999005181999999MA1100701999999MW1611OC101801REMMET065METAR EDVE 091250Z 26025G35KT 9999 -RA SCT017 OVC026 08/07 Q1007=
0176103480999992015010913204+52319+010556FM-15+009099999V0202601N010810070119N009999199+00901+00701999999ADDGA1041+005491999GA2071+007011999GE19MSL   +99999+99999GF199999041999005491999999MA1100701999999OC101701REMMET061METAR EDVE 091320Z 26021G33KT 9999 SCT018 BKN023 09/07 Q1007=
0199103480999992015010913504+52319+010556FM-15+009099999V0202701V009810085319N009999199+00901+00701999999ADDGA1041+006711999GA2071+008531999GE19MSL   +99999+99999GF199999041999006711999999MA1100701999999MW1611OC101801REMMET078METAR EDVE 091350Z 27019G35KT 230V290 9999 -RA SCT022 BKN028 09/07      Q1007=
0184103480999992015010914204+52319+010556FM-15+009099999V0202701V010310082319N009999199+01001+00601999999ADDGA1041+006711999GA2071+008231999GE19MSL   +99999+99999GF199999041999006711999999MA1100801999999OC101851REMMET069METAR EDVE 091420Z 27020G36KT 240V310 9999 SCT022 BKN027 10/06 Q1008=
0192103480999992015010914504+52319+010556FM-15+009099999V0202801N011310064019N008000199+00901+00601999999ADDGA1071+006401999GA2071+010671999GE19MSL   +99999+99999GF199999071999006401999999MA1100901999999MW1631OC102011REMMET071METAR EDVE 091450Z 28022G39KT 8000 3500NW RA BKN021 BKN035 09/06 Q1009=
0217103480999992015010915204+52319+010556FM-15+009099999V0202701V00721008841CN009999199+00901+00601999999ADDGA1021+006101999GA2041+008841999GA3071+036581999GE19MSL   +99999+99999GF199999021999006101999999MA1100901999999OC101341REMMET086METAR EDVE 091520Z 27014G26KT 240V300 9999 FEW020 SCT029 BKN120 09/06      Q1009 RERA=
0199103480999992015010915504+52319+010556FM-15+009099999V0202801N010310189019N009999199+00901+00501999999ADDGA1021+008841999GA2071+018901999GA3081+030481999GE19MSL   +99999+99999GF199999021999008841999999MA1101001999999OC102011REMMET068METAR EDVE 091550Z 28020G39KT 9999 FEW029 BKN062 OVC100 09/05 Q1010=
0176103480999992015010916204+52319+010556FM-15+009099999V0202701N008210225619N009999199+00901+00501999999ADDGA1021+010061999GA2071+022561999GE19MSL   +99999+99999GF199999021999010061999999MA1101001999999OC101751REMMET061METAR EDVE 091620Z 27016G34KT 9999 FEW033 BKN074 09/05 Q1010=
0184103480999992015010916504+52319+010556FM-15+009099999V0202701V008210100619N009999199+00901+00401999999ADDGA1071+010061999GA2071+022861999GE19MSL   +99999+99999GF199999071999010061999999MA1100901999999OC101541REMMET069METAR EDVE 091650Z 27016G30KT 240V300 9999 BKN033 BKN075 09/04 Q1009=
0184103480999992015010917204+52319+010556FM-15+009099999V0202801V009310131119N009999199+00901+00401999999ADDGA1041+009141999GA2071+013111999GE19MSL   +99999+99999GF199999041999009141999999MA1101001999999OC101491REMMET069METAR EDVE 091720Z 28018G29KT 250V310 9999 SCT030 BKN043 09/04 Q1010=
0209103480999992015010917504+52319+010556FM-15+009099999V0202701N00771013721CN009999199+00901+00401999999ADDGA1021+009751999GA2041+013721999GA3071+019811999GE19MSL   +99999+99999GF199999021999009751999999MA1101001999999MW1511OC101341REMMET072METAR EDVE 091750Z 27015G26KT 9999 -DZ FEW032 SCT045 BKN065 09/04 Q1010=
0222103480999992015010918204+52319+010556FM-15+009099999V0202601V009810228619N009999199+00801+00401999999ADDGA1041+010361999GA2071+022861999GA3071+036581999GE19MSL   +99999+99999GF199999041999010361999999MA1100901999999MW1511OC101601REMMET085METAR EDVE 091820Z 26019G31KT 240V300 9999 -DZ SCT034 BKN075 BKN120      08/04 Q1009=
0162103480999992015010918504+52319+010556FM-15+009099999V0202801N009310140219N009999199+00801+00401999999ADDGA1071+014021999GE19MSL   +99999+99999GF199999071999014021999999MA1101001999999MW1531OC101601REMMET057METAR EDVE 091850Z 28018G31KT 9999 DZ BKN046 08/04 Q1010=
0199103480999992015010919204+52319+010556FM-15+009099999V0202801N008210064019N009999199+00701+00501999999ADDGA1021+005491999GA2071+006401999GA3081+014631999GE19MSL   +99999+99999GF199999021999005491999999MA1101101999999OC101391REMMET068METAR EDVE 091920Z 28016G27KT 9999 FEW018 BKN021 OVC048 07/05 Q1011=
0188103480999992015010919504+52319+010556FM-15+009099999V0202701N006210054919N009999199+00701+00601999999ADDGA1071+005491999GA2071+007621999GA3081+014941999GE19MSL   +99999+99999GF199999071999005491999999MA1101001999999REMMET065METAR EDVE 091950Z 27012KT 9999 BKN018 BKN025 OVC049 07/06 Q1010=
0184103480999992015010920204+52319+010556FM-15+009099999V0202701V009310045719N009999199+00701+00501999999ADDGA1071+004571999GA2081+006401999GE19MSL   +99999+99999GF199999071999004571999999MA1101001999999OC101441REMMET069METAR EDVE 092020Z 27018G28KT 240V300 9999 BKN015 OVC021 07/05 Q1010=
0198103480999992015011006504+52319+010556FM-15+009099999V0202601N00931003351CN009999199+01201+01201999999ADDGA1021+002441999GA2041+003351999GA3071+007921999GE19MSL   +99999+99999GF199999021999002441999999MA1100401999999MW1511REMMET069METAR EDVE 100650Z 26018KT 9999 -DZ FEW008 SCT011 BKN026 12/12 Q1004=
0165103480999992015011007204+52319+010556FM-15+009099999V0202601N007710039619N009999199+01201+01201999999ADDGA1041+002131999GA2071+003961999GE19MSL   +99999+99999GF199999041999002131999999MA1100301999999REMMET058METAR EDVE 100720Z 26015KT 9999 SCT007 BKN013 12/12 Q1003=
0153103480999992015011007504+52319+010556FM-15+009099999V0202601N008210027419N009999199+01201+01201999999ADDGA1071+002741999GE19MSL   +99999+99999GF199999071999002741999999MA1100301999999OC101391REMMET054METAR EDVE 100750Z 26016G27KT 9999 BKN009 12/12 Q1003=
0153103480999992015011008204+52319+010556FM-15+009099999V0202601N008210045719N009999199+01301+01301999999ADDGA1071+004571999GE19MSL   +99999+99999GF199999071999004571999999MA1100301999999OC101601REMMET054METAR EDVE 100820Z 26016G31KT 9999 BKN015 13/13 Q1003=
0161103480999992015011008504+52319+010556FM-15+009099999V0202501V010810045719N009999199+01301+01201999999ADDGA1071+004571999GE19MSL   +99999+99999GF199999071999004571999999MA1100301999999OC101961REMMET062METAR EDVE 100850Z 25021G38KT 220V280 9999 BKN015 13/12 Q1003=
0171103480999992015011009084+52319+010556FM-16+009099999V0202601V013910048819N009999199+01301+01101999999ADDGA1071+004881999GE19MSL   +99999+99999GF199999071999004881999999MA1100301999999MW1511OC102471REMMET066SPECI EDVE 100908Z 26027G48KT 230V290 9999 -DZ BKN016 13/11 Q1003=
0171103480999992015011009204+52319+010556FM-15+009099999V0202601V012910045719N008000199+01301+01101999999ADDGA1071+004571999GE19MSL   +99999+99999GF199999071999004571999999MA1100301999999MW1611OC101851REMMET066METAR EDVE 100920Z 26025G36KT 230V290 8000 -RA BKN015 13/11 Q1003=
0176103480999992015011009504+52319+010556FM-15+009099999V0202601N009810073219N009999199+01201+01101999999ADDGA1041+004271999GA2071+007321999GE19MSL   +99999+99999GF199999041999004271999999MA1100301999999OC101601REMMET061METAR EDVE 100950Z 26019G31KT 9999 SCT014 BKN024 12/11 Q1003=
0153103480999992015011010204+52319+010556FM-15+009099999V0202501N009810091419N009999199+01201+00901999999ADDGA1071+009141999GE19MSL   +99999+99999GF199999071999009141999999MA1100201999999OC101801REMMET054METAR EDVE 101020Z 25019G35KT 9999 BKN030 12/09 Q1002=
0153103480999992015011010504+52319+010556FM-15+009099999V0202501N010810079219N009999199+01301+00901999999ADDGA1071+007921999GE19MSL   +99999+99999GF199999071999007921999999MA1100201999999OC101961REMMET054METAR EDVE 101050Z 25021G38KT 9999 BKN026 13/09 Q1002=
0171103480999992015011011204+52319+010556FM-15+009099999V0202601V010310082319N009999199+01201+00901999999ADDGA1071+008231999GE19MSL   +99999+99999GF199999071999008231999999MA1100101999999MW1511OC101901REMMET066METAR EDVE 101120Z 26020G37KT 220V290 9999 -DZ BKN027 12/09 Q1001=
0176103480999992015011011504+52319+010556FM-15+009099999V0202501N011310076219N009999199+01201+00901999999ADDGA1021+006711999GA2071+007621999GE19MSL   +99999+99999GF199999021999006711999999MA1100101999999OC101851REMMET061METAR EDVE 101150Z 25022G36KT 9999 FEW022 BKN025 12/09 Q1001=
0153103480999992015011012204+52319+010556FM-15+009099999V0202601N011810070119N009999199+01201+00901999999ADDGA1081+007011999GE19MSL   +99999+99999GF199999081999007011999999MA1100001999999OC101851REMMET054METAR EDVE 101220Z 26023G36KT 9999 OVC023 12/09 Q1000=
0176103480999992015011012504+52319+010556FM-15+009099999V0202601N012410070119N009999199+01201+01001999999ADDGA1041+005491999GA2071+007011999GE19MSL   +99999+99999GF199999041999005491999999MA1100001999999OC101801REMMET061METAR EDVE 101250Z 26024G35KT 9999 SCT018 BKN023 12/10 Q1000=
0199103480999992015011014204+52319+010556FM-15+009099999V0202501N010810051819N008000199+01101+01101999999ADDGA1041+003351999GA2071+005181999GA3081+009451999GE19MSL   +99999+99999GF199999041999003351999999MA1099901999999OC101601REMMET068METAR EDVE 101420Z 25021G31KT 8000 SCT011 BKN017 OVC031 11/11 Q0999=
0208103480999992015011014504+52319+010556FM-15+009099999V0202501N010810054919N003600199+01101+01101999999ADDGA1041+003351999GA2071+005491999GA3081+009141999GE19MSL   +99999+99999GF199999041999003351999999MA1099901999999MW1631OC101751REMMET071METAR EDVE 101450Z 25021G34KT 3600 RA SCT011 BKN018 OVC030 11/11 Q0999=
0176103480999992015011015504+52319+010556FM-15+009099999V0202801N010810067119N009999199+00901+00701999999ADDGA1071+006711999GA2081+016461999GE19MSL   +99999+99999GF199999071999006711999999MA1100101999999OC101901REMMET061METAR EDVE 101550Z 28021G37KT 9999 BKN022 OVC054 09/07 Q1001=
0184103480999992015011016204+52319+010556FM-15+009099999V0203101V007210057919N009999199+00801+00701999999ADDGA1021+004271999GA2081+005791999GE19MSL   +99999+99999GF199999021999004271999999MA1100301999999OC101241REMMET069METAR EDVE 101620Z 31014G24KT 280V350 9999 FEW014 OVC019 08/07 Q1003=
0209103480999992015011016504+52319+010556FM-15+009099999V0203001N010310076219N009999199+00701+00401999999ADDGA1041+004571999GA2071+007621999GA3081+010671999GE19MSL   +99999+99999GF199999041999004571999999MA1100301999999MW1511OC101751REMMET072METAR EDVE 101650Z 30020G34KT 9999 -DZ SCT015 BKN025 OVC035 07/04 Q1003=
0174103480999992015011106204+52319+010556FM-15+009099999V0202501V006710088419N009999199+00301-00101999999ADDGA1071+008841999GA2071+017981999GE19MSL   +99999+99999GF199999071999008841999999MA1100701999999REMMET067METAR EDVE 110620Z 25013KT 230V290 9999 BKN029 BKN059 03/M01 Q1007=
0177103480999992015011106504+52319+010556FM-15+009099999V0202501N008210179819N009999199+00301-00101999999ADDGA1041+008531999GA2071+017981999GE19MSL   +99999+99999GF199999041999008531999999MA1100701999999OC101441REMMET062METAR EDVE 110650Z 25016G28KT 9999 SCT028 BKN059 03/M01 Q1007=
0174103480999992015011107204+52319+010556FM-15+009099999V0202601V009310170719N009999199+00301-00101999999ADDGA1021+008531999GA2071+017071999GE19MSL   +99999+99999GF199999021999008531999999MA1100701999999REMMET067METAR EDVE 110720Z 26018KT 230V290 9999 FEW028 BKN056 03/M01 Q1007=
0166103480999992015011107504+52319+010556FM-15+009099999V0202501N007710176819N009999199+00301-00101999999ADDGA1041+008841999GA2071+017681999GE19MSL   +99999+99999GF199999041999008841999999MA1100701999999REMMET059METAR EDVE 110750Z 25015KT 9999 SCT029 BKN058 03/M01 Q1007=
0185103480999992015011108204+52319+010556FM-15+009099999V0202601V008210103619N009999199+00401-00101999999ADDGA1021+008531999GA2071+010361999GE19MSL   +99999+99999GF199999021999008531999999MA1100701999999OC101341REMMET070METAR EDVE 110820Z 26016G26KT 230V290 9999 FEW028 BKN034 04/M01 Q1007=
0143103480999992015011108504+52319+010556FM-15+009099999V0202601N008810079219N009999199+00401-00101999999ADDGA1071+007921999GE19MSL   +99999+99999GF199999071999007921999999MA1100701999999REMMET052METAR EDVE 110850Z 26017KT 9999 BKN026 04/M01 Q1007=
0162103480999992015011109204+52319+010556FM-15+009099999V0202601V009810073219N009999199+00401+00001999999ADDGA1071+007321999GE19MSL   +99999+99999GF199999071999007321999999MA1100801999999OC101601REMMET063METAR EDVE 110920Z 26019G31KT 230V290 9999 BKN024 04/M00 Q1008=
0175103480999992015011109504+52319+010556FM-15+009099999V0202601V009810061019N009999199+00401+00001999999ADDGA1071+006101081GE19MSL   +99999+99999GF199999071999006101999999MA1100801999999MW1161OC101491REMMET070METAR EDVE 110950Z 26019G29KT 230V290 9999 VCSH BKN020TCU 04/00 Q1008=
0190103480999992015011110204+52319+010556FM-15+009099999V0202601N008810061019N009999199+00301+00101999999ADDGA1041+003961091GA2071+006101999GE19MSL   +99999+99999GF199999041999003961999999MA1100801999999MW1801OC101491REMMET069METAR EDVE 111020Z 26017G29KT 9999 -SHRA SCT013CB BKN020 03/01 Q1008=
0176103480999992015011110504+52319+010556FM-15+009099999V0202601N008210061019N009999199+00301+00201999999ADDGA1041+003661999GA2071+006101999GE19MSL   +99999+99999GF199999041999003661999999MA1100901999999OC101391REMMET061METAR EDVE 111050Z 26016G27KT 9999 SCT012 BKN020 03/02 Q1009=
0165103480999992015011111204+52319+010556FM-15+009099999V0202601N008810054919N009999199+00301+00201999999ADDGA1041+003351999GA2071+005491999GE19MSL   +99999+99999GF199999041999003351999999MA1100901999999REMMET058METAR EDVE 111120Z 26017KT 9999 SCT011 BKN018 03/02 Q1009=
0199103480999992015011111504+52319+010556FM-15+009099999V0202601N00881004881CN009999199+00401+00101999999ADDGA1021+004271999GA2041+004881999GA3071+006711999GE19MSL   +99999+99999GF199999021999004271999999MA1100901999999OC101541REMMET068METAR EDVE 111150Z 26017G30KT 9999 FEW014 SCT016 BKN022 04/01 Q1009=
0212103480999992015011112204+52319+010556FM-15+009099999V0202701V009310073219N009999199+00501+00101999999ADDGA1021+006101999GA2071+007321999GA3071+010061999GE19MSL   +99999+99999GF199999021999006101999999MA1100901999999OC101491REMMET081METAR EDVE 111220Z 27018G29KT 240V300 9999 FEW020 BKN024 BKN033 05/01      Q1009=
0208103480999992015011113204+52319+010556FM-15+009099999V0202701N009310121919N006000199+00401+00101999999ADDGA1041+006101999GA2071+012191999GA3071+016151999GE19MSL   +99999+99999GF199999041999006101999999MA1101001999999MW1631OC101491REMMET071METAR EDVE 111320Z 27018G29KT 6000 RA SCT020 BKN040 BKN053 04/01 Q1010=
0231103480999992015011113504+52319+010556FM-15+009099999V0202801V00881003661CN005000199+00301+00201999999ADDGA1021+003051999GA2041+003661999GA3071+006401999GE19MSL   +99999+99999GF199999021999003051999999MA1101001999999MW1611OC101441REMMET094METAR COR EDVE 111350Z 28017G28KT 260V320 5000 -RA FEW010 SCT012 BKN021      03/02 Q1010 RERA=
0188103480999992015011114204+52319+010556FM-15+009099999V0202601N00821009451CN009999199+00401+00201999999ADDGA1021+004571999GA2041+009451999GA3071+020121999GE19MSL   +99999+99999GF199999021999004571999999MA1101001999999REMMET065METAR EDVE 111420Z 26016KT 9999 FEW015 SCT031 BKN066 04/02 Q1010=
0212103480999992015011115204+52319+010556FM-15+009099999V0202601V010310143319N009999199+00501+00001999999ADDGA1041+010061999GA2071+014331999GA3081+033531999GE19MSL   +99999+99999GF199999041999010061999999MA1101001999999OC101701REMMET081METAR EDVE 111520Z 26020G33KT 230V290 9999 SCT033 BKN047 OVC110 05/00      Q1010=
0201103480999992015011115504+52319+010556FM-15+009099999V0202701V007710088419N009999199+00501+00101999999ADDGA1021+007321999GA2071+008841999GA3081+011891999GE19MSL   +99999+99999GF199999021999007321999999MA1101101999999REMMET078METAR EDVE 111550Z 27015KT 240V300 9999 FEW024 BKN029 OVC039 05/01      Q1011=
0199103480999992015011116204+52319+010556FM-15+009099999V0202701N007710088419N009999199+00401+00101999999ADDGA1071+008841999GA2071+010971999GA3081+016461999GE19MSL   +99999+99999GF199999071999008841999999MA1101101999999OC101391REMMET068METAR EDVE 111620Z 27015G27KT 9999 BKN029 BKN036 OVC054 04/01 Q1011=
0165103480999992015011116504+52319+010556FM-15+009099999V0202601N008210134119N009999199+00401+00101999999ADDGA1071+013411999GA2071+018901999GE19MSL   +99999+99999GF199999071999013411999999MA1101101999999REMMET058METAR EDVE 111650Z 26016KT 9999 BKN044 BKN062 04/01 Q1011=
0188103480999992015011117204+52319+010556FM-15+009099999V0202701N008210067119N009999199+00501+00101999999ADDGA1071+006711999GA2071+009751999GA3081+018291999GE19MSL   +99999+99999GF199999071999006711999999MA1101101999999REMMET065METAR EDVE 111720Z 27016KT 9999 BKN022 BKN032 OVC060 05/01 Q1011=
0201103480999992015011117504+52319+010556FM-15+009099999V0202601V008210070119N009999199+00501+00101999999ADDGA1071+007011999GA2071+007921999GA3081+018901999GE19MSL   +99999+99999GF199999071999007011999999MA1101201999999REMMET078METAR EDVE 111750Z 26016KT 230V290 9999 BKN023 BKN026 OVC062 05/01      Q1012=
0199103480999992015011118204+52319+010556FM-15+009099999V0202601N008210085319N009999199+00501+00101999999ADDGA1071+008531999GA2071+011281999GA3081+015241999GE19MSL   +99999+99999GF199999071999008531999999MA1101201999999OC101391REMMET068METAR EDVE 111820Z 26016G27KT 9999 BKN028 BKN037 OVC050 05/01 Q1012=
0175103480999992015011205504+52319+010556FM-15+009099999V0202501N007210146319N009999199+00601+00401999999ADDGA1041+007921999GA2071+014631999GE19MSL   +99999+99999GF199999041999007921999999MA1101301999999MW1611REMMET062METAR EDVE 120550Z 25014KT 9999 -RA SCT026 BKN048 06/04 Q1013=
0142103480999992015011206204+52319+010556FM-15+009099999V0202401N007710076219N009999199+00601+00401999999ADDGA1071+007621999GE19MSL   +99999+99999GF199999071999007621999999MA1101301999999REMMET051METAR EDVE 120620Z 24015KT 9999 BKN025 06/04 Q1013=
0142103480999992015011206504+52319+010556FM-15+009099999V0202401N007710070119N009999199+00701+00401999999ADDGA1071+007011999GE19MSL   +99999+99999GF199999071999007011999999MA1101301999999REMMET051METAR EDVE 120650Z 24015KT 9999 BKN023 07/04 Q1013=
0152103480999992015011207204+52319+010556FM-15+009099999V0202501N007710061019N009999199+00701+00501999999ADDGA1071+006101999GE19MSL   +99999+99999GF199999071999006101999999MA1101301999999MW1611REMMET055METAR EDVE 120720Z 25015KT 9999 -RA BKN020 07/05 Q1013=
0175103480999992015011207504+52319+010556FM-15+009099999V0202401N008810079219N009999199+00701+00401999999ADDGA1021+006401999GA2071+007921999GE19MSL   +99999+99999GF199999021999006401999999MA1101301999999MW1611REMMET062METAR EDVE 120750Z 24017KT 9999 -RA FEW021 BKN026 07/04 Q1013=
0165103480999992015011208204+52319+010556FM-15+009099999V0202501N008210091419N009999199+00701+00501999999ADDGA1041+007621999GA2071+009141999GE19MSL   +99999+99999GF199999041999007621999999MA1101301999999REMMET058METAR EDVE 120820Z 25016KT 9999 SCT025 BKN030 07/05 Q1013=
0165103480999992015011208504+52319+010556FM-15+009099999V0202401N008810085319N009999199+00701+00401999999ADDGA1021+006711999GA2071+008531999GE19MSL   +99999+99999GF199999021999006711999999MA1101301999999REMMET058METAR EDVE 120850Z 24017KT 9999 FEW022 BKN028 07/04 Q1013=
0175103480999992015011209204+52319+010556FM-15+009099999V0202401N008210067119N009999199+00701+00401999999ADDGA1071+006711999GA2081+008531999GE19MSL   +99999+99999GF199999071999006711999999MA1101201999999MW1611REMMET062METAR EDVE 120920Z 24016KT 9999 -RA BKN022 OVC028 07/04 Q1012=
0142103480999992015011209504+52319+010556FM-15+009099999V0202501N008210067119N009999199+00701+00401999999ADDGA1081+006711999GE19MSL   +99999+99999GF199999081999006711999999MA1101301999999REMMET051METAR EDVE 120950Z 25016KT 9999 OVC022 07/04 Q1013=
0165103480999992015011210204+52319+010556FM-15+009099999V0202401N009310070119N009999199+00701+00401999999ADDGA1021+005791999GA2081+007011999GE19MSL   +99999+99999GF199999021999005791999999MA1101201999999REMMET058METAR EDVE 121020Z 24018KT 9999 FEW019 OVC023 07/04 Q1012=
0165103480999992015011210504+52319+010556FM-15+009099999V0202401N008210070119N009999199+00701+00401999999ADDGA1071+007011999GA2081+008531999GE19MSL   +99999+99999GF199999071999007011999999MA1101201999999REMMET058METAR EDVE 121050Z 24016KT 9999 BKN023 OVC028 07/04 Q1012=
0142103480999992015011211204+52319+010556FM-15+009099999V0202401N008810073219N009999199+00701+00401999999ADDGA1071+007321999GE19MSL   +99999+99999GF199999071999007321999999MA1101101999999REMMET051METAR EDVE 121120Z 24017KT 9999 BKN024 07/04 Q1011=
0142103480999992015011211504+52319+010556FM-15+009099999V0202501N009810082319N009999199+00801+00401999999ADDGA1071+008231999GE19MSL   +99999+99999GF199999071999008231999999MA1101101999999REMMET051METAR EDVE 121150Z 25019KT 9999 BKN027 08/04 Q1011=
0161103480999992015011212204+52319+010556FM-15+009099999V0202501V009810085319N009999199+00801+00401999999ADDGA1071+008531999GE19MSL   +99999+99999GF199999071999008531999999MA1101001999999OC101601REMMET062METAR EDVE 121220Z 25019G31KT 220V280 9999 BKN028 08/04 Q1010=
0212103480999992015011212504+52319+010556FM-15+009099999V0202401V009810094519N009999199+00801+00401999999ADDGA1041+007921999GA2071+009451999GA3081+011581999GE19MSL   +99999+99999GF199999041999007921999999MA1101001999999OC101601REMMET081METAR EDVE 121250Z 24019G31KT 220V280 9999 SCT026 BKN031 OVC038 08/04      Q1010=
0176103480999992015011213204+52319+010556FM-15+009099999V0202501N010810073219N009999199+00801+00401999999ADDGA1071+007321999GA2081+009751999GE19MSL   +99999+99999GF199999071999007321999999MA1101001999999OC101651REMMET061METAR EDVE 121320Z 25021G32KT 9999 BKN024 OVC032 08/04 Q1010=
0188103480999992015011213504+52319+010556FM-15+009099999V0202501N009810079219N009999199+00801+00401999999ADDGA1021+006711999GA2071+007921999GA3081+010971999GE19MSL   +99999+99999GF199999021999006711999999MA1101001999999REMMET065METAR EDVE 121350Z 25019KT 9999 FEW022 BKN026 OVC036 08/04 Q1010=
0176103480999992015011214204+52319+010556FM-15+009099999V0202501N009310073219N009999199+00801+00401999999ADDGA1071+007321999GA2081+009141999GE19MSL   +99999+99999GF199999071999007321999999MA1101001999999OC101441REMMET061METAR EDVE 121420Z 25018G28KT 9999 BKN024 OVC030 08/04 Q1010=
0153103480999992015011214504+52319+010556FM-15+009099999V0202501N009810070119N009999199+00801+00401999999ADDGA1081+007011999GE19MSL   +99999+99999GF199999081999007011999999MA1101001999999OC101491REMMET054METAR EDVE 121450Z 25019G29KT 9999 OVC023 08/04 Q1010=
0165103480999992015011215204+52319+010556FM-15+009099999V0202501N010310070119N009999199+00801+00401999999ADDGA1071+007011999GA2081+009451999GE19MSL   +99999+99999GF199999071999007011999999MA1101001999999REMMET058METAR EDVE 121520Z 25020KT 9999 BKN023 OVC031 08/04 Q1010=
0165103480999992015011215504+52319+010556FM-15+009099999V0202501N008810082319N009999199+00801+00501999999ADDGA1021+005491999GA2081+008231999GE19MSL   +99999+99999GF199999021999005491999999MA1101001999999REMMET058METAR EDVE 121550Z 25017KT 9999 FEW018 OVC027 08/05 Q1010=
0165103480999992015011216204+52319+010556FM-15+009099999V0202401N010310054919N009999199+00801+00501999999ADDGA1071+005491999GA2081+007321999GE19MSL   +99999+99999GF199999071999005491999999MA1101001999999REMMET058METAR EDVE 121620Z 24020KT 9999 BKN018 OVC024 08/05 Q1010=
0165103480999992015011216504+52319+010556FM-15+009099999V0202401N009310054919N009999199+00801+00501999999ADDGA1071+005491999GA2081+007321999GE19MSL   +99999+99999GF199999071999005491999999MA1101001999999REMMET058METAR EDVE 121650Z 24018KT 9999 BKN018 OVC024 08/05 Q1010=
0175103480999992015011217204+52319+010556FM-15+009099999V0202401N008810048819N009999199+00801+00601999999ADDGA1071+004881999GA2081+007011999GE19MSL   +99999+99999GF199999071999004881999999MA1101001999999MW1611REMMET062METAR EDVE 121720Z 24017KT 9999 -RA BKN016 OVC023 08/06 Q1010=
0152103480999992015011217504+52319+010556FM-15+009099999V0202401N008810048819N009999199+00701+00601999999ADDGA1081+004881999GE19MSL   +99999+99999GF199999081999004881999999MA1101001999999MW1611REMMET055METAR EDVE 121750Z 24017KT 9999 -RA OVC016 07/06 Q1010=
0165103480999992015011218204+52319+010556FM-15+009099999V0202401N009810061019N009999199+00801+00501999999ADDGA1071+006101999GA2081+007011999GE19MSL   +99999+99999GF199999071999006101999999MA1101001999999REMMET058METAR EDVE 121820Z 24019KT 9999 BKN020 OVC023 08/05 Q1010=
0142103480999992015011218504+52319+010556FM-15+009099999V0202401N008810064019N009999199+00801+00501999999ADDGA1081+006401999GE19MSL   +99999+99999GF199999081999006401999999MA1101001999999REMMET051METAR EDVE 121850Z 24017KT 9999 OVC021 08/05 Q1010=
0142103480999992015011219204+52319+010556FM-15+009099999V0202301N006710054919N009999199+00801+00501999999ADDGA1081+005491999GE19MSL   +99999+99999GF199999081999005491999999MA1101001999999REMMET051METAR EDVE 121920Z 23013KT 9999 OVC018 08/05 Q1010=
0142103480999992015011219504+52319+010556FM-15+009099999V0202201N007210057919N009999199+00801+00601999999ADDGA1081+005791999GE19MSL   +99999+99999GF199999081999005791999999MA1101001999999REMMET051METAR EDVE 121950Z 22014KT 9999 OVC019 08/06 Q1010=
0142103480999992015011220204+52319+010556FM-15+009099999V0202201N008210064019N009999199+00801+00501999999ADDGA1081+006401999GE19MSL   +99999+99999GF199999081999006401999999MA1101001999999REMMET051METAR EDVE 122020Z 22016KT 9999 OVC021 08/05 Q1010=
0142103480999992015011220504+52319+010556FM-15+009099999V0202201N007710070119N009999199+00801+00501999999ADDGA1081+007011999GE19MSL   +99999+99999GF199999081999007011999999MA1101001999999REMMET051METAR EDVE 122050Z 22015KT 9999 OVC023 08/05 Q1010=
0175103480999992015011305504+52319+010556FM-15+009099999V0202301N007710112819N009999199+00901+00601999999ADDGA1021+008841999GA2071+011281999GE19MSL   +99999+99999GF199999021999008841999999MA1100701999999MW1611REMMET062METAR EDVE 130550Z 23015KT 9999 -RA FEW029 BKN037 09/06 Q1007=
0199103480999992015011306204+52319+010556FM-15+009099999V0202101N00721013721CN009999199+00801+00601999999ADDGA1021+009141999GA2041+013721999GA3071+020421999GE19MSL   +99999+99999GF199999021999009141999999MA1100601999999OC101241REMMET068METAR EDVE 130620Z 21014G24KT 9999 FEW030 SCT045 BKN067 08/06 Q1006=
0165103480999992015011306504+52319+010556FM-15+009099999V0202201N006710182919N009999199+00901+00601999999ADDGA1021+014021999GA2071+018291999GE19MSL   +99999+99999GF199999021999014021999999MA1100601999999REMMET058METAR EDVE 130650Z 22013KT 9999 FEW046 BKN060 09/06 Q1006=
0173103480999992015011307204+52319+010556FM-15+009099999V0202201V005710185919N009999199+00901+00501999999ADDGA1021+014631999GA2071+018591999GE19MSL   +99999+99999GF199999021999014631999999MA1100601999999REMMET066METAR EDVE 130720Z 22011KT 190V250 9999 FEW048 BKN061 09/05 Q1006=
0072103480999992015011307504+52319+010556FM-15+009099999V0202201N007219999999Y999999999+00901+00501999999ADDMA1100601999999REMMET045METAR EDVE 130750Z 22014KT CAVOK 09/05 Q1006=
0072103480999992015011308204+52319+010556FM-15+009099999V0202201N007219999999Y999999999+00901+00401999999ADDMA1100601999999REMMET045METAR EDVE 130820Z 22014KT CAVOK 09/04 Q1006=
0072103480999992015011308504+52319+010556FM-15+009099999V0202101N007719999999Y999999999+00901+00401999999ADDMA1100601999999REMMET045METAR EDVE 130850Z 21015KT CAVOK 09/04 Q1006=
0165103480999992015011309204+52319+010556FM-15+009099999V0202201N007710118919N009999199+00901+00301999999ADDGA1071+011891999GA2081+017371999GE19MSL   +99999+99999GF199999071999011891999999MA1100601999999REMMET058METAR EDVE 130920Z 22015KT 9999 BKN039 OVC057 09/03 Q1006=
0165103480999992015011309504+52319+010556FM-15+009099999V0202201N007710109719N009999199+00901+00301999999ADDGA1071+010971999GA2081+013721999GE19MSL   +99999+99999GF199999071999010971999999MA1100601999999REMMET058METAR EDVE 130950Z 22015KT 9999 BKN036 OVC045 09/03 Q1006=
0188103480999992015011310204+52319+010556FM-15+009099999V0202301N008810134119N009999199+01001+00301999999ADDGA1021+011581999GA2071+013411999GA3071+019201999GE19MSL   +99999+99999GF199999021999011581999999MA1100501999999REMMET065METAR EDVE 131020Z 23017KT 9999 FEW038 BKN044 BKN063 10/03 Q1005=
0165103480999992015011310504+52319+010556FM-15+009099999V0202201N009310149419N009999199+01001+00301999999ADDGA1071+014941999GA2071+019201999GE19MSL   +99999+99999GF199999071999014941999999MA1100501999999REMMET058METAR EDVE 131050Z 22018KT 9999 BKN049 BKN063 10/03 Q1005=
0188103480999992015011311204+52319+010556FM-15+009099999V0202201N009310164619N009999199+01001+00401999999ADDGA1041+009751999GA2071+016461999GA3071+020731999GE19MSL   +99999+99999GF199999041999009751999999MA1100401999999REMMET065METAR EDVE 131120Z 22018KT 9999 SCT032 BKN054 BKN068 10/04 Q1004=
0165103480999992015011311504+52319+010556FM-15+009099999V0202201N00881021951CN009999199+01101+00401999999ADDGA1021+010361999GA2041+021951999GE19MSL   +99999+99999GF199999021999010361999999MA1100401999999REMMET058METAR EDVE 131150Z 22017KT 9999 FEW034 SCT072 11/04 Q1004=
0072103480999992015011312204+52319+010556FM-15+009099999V0202201N009319999999Y999999999+01101+00401999999ADDMA1100301999999REMMET045METAR EDVE 131220Z 22018KT CAVOK 11/04 Q1003=
0072103480999992015011312504+52319+010556FM-15+009099999V0202201N009819999999Y999999999+01101+00401999999ADDMA1100201999999REMMET045METAR EDVE 131250Z 22019KT CAVOK 11/04 Q1002=
0072103480999992015011313204+52319+010556FM-15+009099999V0202101N009819999999Y999999999+01101+00401999999ADDMA1100201999999REMMET045METAR EDVE 131320Z 21019KT CAVOK 11/04 Q1002=
0142103480999992015011313504+52319+010556FM-15+009099999V0202201N008810134119N009999199+01101+00401999999ADDGA1071+013411999GE19MSL   +99999+99999GF199999071999013411999999MA1100201999999REMMET051METAR EDVE 131350Z 22017KT 9999 BKN044 11/04 Q1002=
0150103480999992015011314204+52319+010556FM-15+009099999V0202201V008210121919N009999199+01101+00401999999ADDGA1071+012191999GE19MSL   +99999+99999GF199999071999012191999999MA1100201999999REMMET059METAR EDVE 131420Z 22016KT 190V250 9999 BKN040 11/04 Q1002=
0161103480999992015011314504+52319+010556FM-15+009099999V0202201V008210112819N009999199+01101+00401999999ADDGA1071+011281999GE19MSL   +99999+99999GF199999071999011281999999MA1100301999999OC101341REMMET062METAR EDVE 131450Z 22016G26KT 190V250 9999 BKN037 11/04 Q1003=
0142103480999992015011315204+52319+010556FM-15+009099999V0202201N007210100619N009999199+01001+00501999999ADDGA1071+010061999GE19MSL   +99999+99999GF199999071999010061999999MA1100301999999REMMET051METAR EDVE 131520Z 22014KT 9999 BKN033 10/05 Q1003=
0142103480999992015011315504+52319+010556FM-15+009099999V0202201N005710115819N009999199+01001+00501999999ADDGA1071+011581999GE19MSL   +99999+99999GF199999071999011581999999MA1100301999999REMMET051METAR EDVE 131550Z 22011KT 9999 BKN038 10/05 Q1003=
0165103480999992015011316204+52319+010556FM-15+009099999V0202301N007710112819N009999199+01001+00401999999ADDGA1071+011281999GA2081+013111999GE19MSL   +99999+99999GF199999071999011281999999MA1100301999999REMMET058METAR EDVE 131620Z 23015KT 9999 BKN037 OVC043 10/04 Q1003=
0142103480999992015011316504+52319+010556FM-15+009099999V0202201N006710094519N009999199+01001+00501999999ADDGA1081+009451999GE19MSL   +99999+99999GF199999081999009451999999MA1100301999999REMMET051METAR EDVE 131650Z 22013KT 9999 OVC031 10/05 Q1003=
0142103480999992015011317204+52319+010556FM-15+009099999V0202301N005710082319N009999199+00901+00601999999ADDGA1081+008231999GE19MSL   +99999+99999GF199999081999008231999999MA1100301999999REMMET051METAR EDVE 131720Z 23011KT 9999 OVC027 09/06 Q1003=
0188103480999992015011318204+52319+010556FM-15+009099999V0202501N007210091419N009999199+01001+00701999999ADDGA1041+007321999GA2071+009141999GA3081+012191999GE19MSL   +99999+99999GF199999041999007321999999MA1100301999999REMMET065METAR EDVE 131820Z 25014KT 9999 SCT024 BKN030 OVC040 10/07 Q1003=
0201103480999992015011318504+52319+010556FM-15+009099999V0202501V007210109719N009999199+01001+00701999999ADDGA1041+007621999GA2071+010971999GA3071+013111999GE19MSL   +99999+99999GF199999041999007621999999MA1100401999999REMMET078METAR EDVE 131850Z 25014KT 220V280 9999 SCT025 BKN036 BKN043 10/07      Q1004=
0142103480999992015011319204+52319+010556FM-15+009099999V0202501N006710100619N009999199+01001+00701999999ADDGA1071+010061999GE19MSL   +99999+99999GF199999071999010061999999MA1100401999999REMMET051METAR EDVE 131920Z 25013KT 9999 BKN033 10/07 Q1004=
0142103480999992015011319504+52319+010556FM-15+009099999V0202501N005710088419N009999199+00901+00701999999ADDGA1071+008841999GE19MSL   +99999+99999GF199999071999008841999999MA1100401999999REMMET051METAR EDVE 131950Z 25011KT 9999 BKN029 09/07 Q1004=
0072103480999992015011403204+52319+010556FM-15+009099999V0201901N004619999999Y999999999+00601+00301999999ADDMA1100401999999REMMET045METAR EDVE 140320Z 19009KT CAVOK 06/03 Q1004=
0072103480999992015011403504+52319+010556FM-15+009099999V0201801N003619999999Y999999999+00601+00301999999ADDMA1100301999999REMMET045METAR EDVE 140350Z 18007KT CAVOK 06/03 Q1003=
0072103480999992015011404204+52319+010556FM-15+009099999V0202101N005119999999Y999999999+00701+00301999999ADDMA1100301999999REMMET045METAR EDVE 140420Z 21010KT CAVOK 07/03 Q1003=
0165103480999992015011404504+52319+010556FM-15+009099999V0202101N006210304819N009999199+00701+00301999999ADDGA1021+012191999GA2071+030481999GE19MSL   +99999+99999GF199999021999012191999999MA1100301999999REMMET058METAR EDVE 140450Z 21012KT 9999 FEW040 BKN100 07/03 Q1003=
0199103480999992015011405504+52319+010556FM-15+009099999V0202501N010310054919N009999199+00601+00401999999ADDGA1041+004571999GA2071+005491999GA3081+006401999GE19MSL   +99999+99999GF199999041999004571999999MA1100401999999OC101541REMMET068METAR EDVE 140550Z 25020G30KT 9999 SCT015 BKN018 OVC021 06/04 Q1004=
0188103480999992015011406204+52319+010556FM-15+009099999V0202401N00671018591CN009999199+00501+00301999999ADDGA1041+003961999GA2041+018591999GA3081+021951999GE19MSL   +99999+99999GF199999041999003961999999MA1100501999999REMMET065METAR EDVE 140620Z 24013KT 9999 SCT013 SCT061 OVC072 05/03 Q1005=
0142103480999992015011406504+52319+010556FM-15+009099999V0202401N006710064019N009999199+00401+00301999999ADDGA1071+006401999GE19MSL   +99999+99999GF199999071999006401999999MA1100601999999REMMET051METAR EDVE 140650Z 24013KT 9999 BKN021 04/03 Q1006=
0165103480999992015011407204+52319+010556FM-15+009099999V0202401N008210061019N009999199+00501+00201999999ADDGA1071+006101999GA2071+048771999GE19MSL   +99999+99999GF199999071999006101999999MA1100601999999REMMET058METAR EDVE 140720Z 24016KT 9999 BKN020 BKN160 05/02 Q1006=
0165103480999992015011407504+52319+010556FM-15+009099999V0202401N006710073219N009999199+00501+00201999999ADDGA1021+006401999GA2071+007321999GE19MSL   +99999+99999GF199999021999006401999999MA1100601999999REMMET058METAR EDVE 140750Z 24013KT 9999 FEW021 BKN024 05/02 Q1006=
0142103480999992015011408204+52319+010556FM-15+009099999V0202501N005719999999N009999199+00401+00101999999ADDGA1041+006711999GE19MSL   +99999+99999GF199999041999006711999999MA1100701999999REMMET051METAR EDVE 140820Z 25011KT 9999 SCT022 04/01 Q1007=
0150103480999992015011408504+52319+010556FM-15+009099999V0202501V006219999999N009999199+00401+00101999999ADDGA1021+006711999GE19MSL   +99999+99999GF199999021999006711999999MA1100701999999REMMET059METAR EDVE 140850Z 25012KT 220V280 9999 FEW022 04/01 Q1007=
0072103480999992015011409204+52319+010556FM-15+009099999V0202301N006719999999Y999999999+00501+00101999999ADDMA1100701999999REMMET045METAR EDVE 140920Z 23013KT CAVOK 05/01 Q1007=
0142103480999992015011409504+52319+010556FM-15+009099999V0202301N006219999999N009999199+00501+00101999999ADDGA1041+008841999GE19MSL   +99999+99999GF199999041999008841999999MA1100701999999REMMET051METAR EDVE 140950Z 23012KT 9999 SCT029 05/01 Q1007=
0150103480999992015011410204+52319+010556FM-15+009099999V0202501V006210085319N009999199+00501+00001999999ADDGA1071+008531999GE19MSL   +99999+99999GF199999071999008531999999MA1100801999999REMMET059METAR EDVE 141020Z 25012KT 210V280 9999 BKN028 05/00 Q1008=
0142103480999992015011410504+52319+010556FM-15+009099999V0202501N008210088419N009999199+00501+00101999999ADDGA1081+008841999GE19MSL   +99999+99999GF199999081999008841999999MA1100801999999REMMET051METAR EDVE 141050Z 25016KT 9999 OVC029 05/01 Q1008=
0165103480999992015011411204+52319+010556FM-15+009099999V0202401N008210103619N009999199+00601+00101999999ADDGA1021+008841999GA2071+010361999GE19MSL   +99999+99999GF199999021999008841999999MA1100801999999REMMET058METAR EDVE 141120Z 24016KT 9999 FEW029 BKN034 06/01 Q1008=
0165103480999992015011411504+52319+010556FM-15+009099999V0202401N007710106719N009999199+00601+00001999999ADDGA1071+010671999GA2071+042671999GE19MSL   +99999+99999GF199999071999010671999999MA1100801999999REMMET058METAR EDVE 141150Z 24015KT 9999 BKN035 BKN140 06/00 Q1008=
0188103480999992015011412204+52319+010556FM-15+009099999V0202401N007210131119N009999199+00601+00001999999ADDGA1041+010361999GA2071+013111999GA3071+036581999GE19MSL   +99999+99999GF199999041999010361999999MA1100701999999REMMET065METAR EDVE 141220Z 24014KT 9999 SCT034 BKN043 BKN120 06/00 Q1007=
0150103480999992015011412504+52319+010556FM-15+009099999V0202301V007710106719N009999199+00701+00001999999ADDGA1071+010671999GE19MSL   +99999+99999GF199999071999010671999999MA1100701999999REMMET059METAR EDVE 141250Z 23015KT 200V270 9999 BKN035 07/00 Q1007=
0165103480999992015011413204+52319+010556FM-15+009099999V0202301N006710091419N009999199+00601+00101999999ADDGA1071+009141999GA2071+019201999GE19MSL   +99999+99999GF199999071999009141999999MA1100701999999REMMET058METAR EDVE 141320Z 23013KT 9999 BKN030 BKN063 06/01 Q1007=
0165103480999992015011413504+52319+010556FM-15+009099999V0202401N006710109719N009999199+00601+00101999999ADDGA1021+007921999GA2071+010971999GE19MSL   +99999+99999GF199999021999007921999999MA1100601999999REMMET058METAR EDVE 141350Z 24013KT 9999 FEW026 BKN036 06/01 Q1006=
0165103480999992015011414204+52319+010556FM-15+009099999V0202401N004610100619N009999199+00501+00201999999ADDGA1021+005791999GA2071+010061999GE19MSL   +99999+99999GF199999021999005791999999MA1100601999999REMMET058METAR EDVE 141420Z 24009KT 9999 FEW019 BKN033 05/02 Q1006=
0142103480999992015011414504+52319+010556FM-15+009099999V0202501N003610085319N009999199+00501+00201999999ADDGA1071+008531999GE19MSL   +99999+99999GF199999071999008531999999MA1100701999999REMMET051METAR EDVE 141450Z 25007KT 9999 BKN028 05/02 Q1007=
0142103480999992015011415204+52319+010556FM-15+009099999V0202401N005110088419N009999199+00501+00201999999ADDGA1071+008841999GE19MSL   +99999+99999GF199999071999008841999999MA1100701999999REMMET051METAR EDVE 141520Z 24010KT 9999 BKN029 05/02 Q1007=
0188103480999992015011415504+52319+010556FM-15+009099999V0202301N005110106719N009999199+00501+00201999999ADDGA1021+007011999GA2071+010671999GA3081+014331999GE19MSL   +99999+99999GF199999021999007011999999MA1100701999999REMMET065METAR EDVE 141550Z 23010KT 9999 FEW023 BKN035 OVC047 05/02 Q1007=
0201103480999992015011416204+52319+010556FM-15+009099999V0202601V00621005181CN009999199+00401+00301999999ADDGA1021+004271999GA2041+005181999GA3071+017681999GE19MSL   +99999+99999GF199999021999004271999999MA1100801999999REMMET078METAR EDVE 141620Z 26012KT 230V290 9999 FEW014 SCT017 BKN058 04/03      Q1008=
0165103480999992015011416504+52319+010556FM-15+009099999V0202501N004610259119N009999199+00401+00301999999ADDGA1041+008231999GA2071+025911999GE19MSL   +99999+99999GF199999041999008231999999MA1100801999999REMMET058METAR EDVE 141650Z 25009KT 9999 SCT027 BKN085 04/03 Q1008=
0165103480999992015011417204+52319+010556FM-15+009099999V0202501N006710128019N009999199+00401+00201999999ADDGA1021+007321999GA2071+012801999GE19MSL   +99999+99999GF199999021999007321999999MA1100801999999REMMET058METAR EDVE 141720Z 25013KT 9999 FEW024 BKN042 04/02 Q1008=
0165103480999992015011417504+52319+010556FM-15+009099999V0202401N006210118919N009999199+00401+00201999999ADDGA1041+009751999GA2071+011891999GE19MSL   +99999+99999GF199999041999009751999999MA1100901999999REMMET058METAR EDVE 141750Z 24012KT 9999 SCT032 BKN039 04/02 Q1009=
0165103480999992015011418204+52319+010556FM-15+009099999V0202501N007210121919N009999199+00401+00101999999ADDGA1041+007011999GA2071+012191999GE19MSL   +99999+99999GF199999041999007011999999MA1100901999999REMMET058METAR EDVE 141820Z 25014KT 9999 SCT023 BKN040 04/01 Q1009=
0188103480999992015011418504+52319+010556FM-15+009099999V0202501N00671008841CN009999199+00401+00101999999ADDGA1021+007011999GA2041+008841999GA3081+010061999GE19MSL   +99999+99999GF199999021999007011999999MA1101001999999REMMET065METAR EDVE 141850Z 25013KT 9999 FEW023 SCT029 OVC033 04/01 Q1010=
0165103480999992015011419204+52319+010556FM-15+009099999V0202601N006710100619N009999199+00401+00101999999ADDGA1041+007921999GA2071+010061999GE19MSL   +99999+99999GF199999041999007921999999MA1101101999999REMMET058METAR EDVE 141920Z 26013KT 9999 SCT026 BKN033 04/01 Q1011=
0150103480999992015011419504+52319+010556FM-15+009099999V0202601V004610070119N009999199+00401+00001999999ADDGA1071+007011999GE19MSL   +99999+99999GF199999071999007011999999MA1101101999999REMMET059METAR EDVE 141950Z 26009KT 230V290 9999 BKN023 04/00 Q1011=
0166103480999992015011420204+52319+010556FM-15+009099999V0202501N00411008231CN009999199+00301+00001999999ADDGA1021+007011999GA2041+008231999GE19MSL   +99999+99999GF199999021999007011999999MA1101201999999REMMET059METAR EDVE 142020Z 25008KT 9999 FEW023 SCT027 03/M00 Q1012=
0165103480999992015011420504+52319+010556FM-15+009099999V0202301N00461009141CN009999199+00201+00001999999ADDGA1021+007321999GA2041+009141999GE19MSL   +99999+99999GF199999021999007321999999MA1101201999999REMMET058METAR EDVE 142050Z 23009KT 9999 FEW024 SCT030 02/00 Q1012=
0188103480999992015011505504+52319+010556FM-15+009099999V0201701N005110146319N009999199+00501+00101999999ADDGA1021+008231999GA2071+014631999GA3081+019511999GE19MSL   +99999+99999GF199999021999008231999999MA1100601999999REMMET065METAR EDVE 150550Z 17010KT 9999 FEW027 BKN048 OVC064 05/01 Q1006=
0173103480999992015011506204+52319+010556FM-15+009099999V0201801V006710134119N009999199+00601+00201999999ADDGA1071+013411999GA2081+015241999GE19MSL   +99999+99999GF199999071999013411999999MA1100501999999REMMET066METAR EDVE 150620Z 18013KT 150V210 9999 BKN044 OVC050 06/02 Q1005=
0188103480999992015011506504+52319+010556FM-15+009099999V0201901N007210131119N009999199+00601+00301999999ADDGA1071+013111999GA2071+015241999GA3081+018901999GE19MSL   +99999+99999GF199999071999013111999999MA1100401999999REMMET065METAR EDVE 150650Z 19014KT 9999 BKN043 BKN050 OVC062 06/03 Q1004=
0199103480999992015011507204+52319+010556FM-15+009099999V0201901N008210128019N009999199+00601+00301999999ADDGA1021+008841999GA2071+012801999GA3081+015541999GE19MSL   +99999+99999GF199999021999008841999999MA1100401999999OC101341REMMET068METAR EDVE 150720Z 19016G26KT 9999 FEW029 BKN042 OVC051 06/03 Q1004=
0199103480999992015011507504+52319+010556FM-15+009099999V0201901N007710149419N009999199+00701+00301999999ADDGA1041+013111999GA2071+014941999GA3081+017681999GE19MSL   +99999+99999GF199999041999013111999999MA1100401999999OC101291REMMET068METAR EDVE 150750Z 19015G25KT 9999 SCT043 BKN049 OVC058 07/03 Q1004=
0188103480999992015011508204+52319+010556FM-15+009099999V0201901N008210128019N009999199+00701+00301999999ADDGA1071+012801999GA2071+020421999GA3081+024381999GE19MSL   +99999+99999GF199999071999012801999999MA1100301999999REMMET065METAR EDVE 150820Z 19016KT 9999 BKN042 BKN067 OVC080 07/03 Q1003=
0083103480999992015011508504+52319+010556FM-15+009099999V0202001N007719999999Y999999999+00701+00301999999ADDMA1100301999999OC101541REMMET048METAR EDVE 150850Z 20015G30KT CAVOK 07/03 Q1003=
0080103480999992015011509204+52319+010556FM-15+009099999V0202101V007719999999Y999999999+00701+00301999999ADDMA1100301999999REMMET053METAR EDVE 150920Z 21015KT 180V240 CAVOK 07/03 Q1003=
0091103480999992015011509504+52319+010556FM-15+009099999V0202101V009319999999Y999999999+00801+00401999999ADDMA1100201999999OC101441REMMET056METAR EDVE 150950Z 21018G28KT 180V240 CAVOK 08/04 Q1002=
0083103480999992015011510204+52319+010556FM-15+009099999V0202101N009319999999Y999999999+00801+00401999999ADDMA1100201999999OC101541REMMET048METAR EDVE 151020Z 21018G30KT CAVOK 08/04 Q1002=
0072103480999992015011510504+52319+010556FM-15+009099999V0202101N009319999999Y999999999+00801+00401999999ADDMA1100101999999REMMET045METAR EDVE 151050Z 21018KT CAVOK 08/04 Q1001=
0176103480999992015011511504+52319+010556FM-15+009099999V0202101N009310246919N009999199+00901+00401999999ADDGA1021+008231999GA2071+024691999GE19MSL   +99999+99999GF199999021999008231999999MA1100101999999OC101441REMMET061METAR EDVE 151150Z 21018G28KT 9999 FEW027 BKN081 09/04 Q1001=
0091103480999992015011512204+52319+010556FM-15+009099999V0202101V010819999999Y999999999+00901+00401999999ADDMA1100001999999OC101601REMMET056METAR EDVE 151220Z 21021G31KT 180V240 CAVOK 09/04 Q1000=
0083103480999992015011512504+52319+010556FM-15+009099999V0202101N009819999999Y999999999+01001+00401999999ADDMA1100001999999OC101541REMMET048METAR EDVE 151250Z 21019G30KT CAVOK 10/04 Q1000=
0072103480999992015011513204+52319+010556FM-15+009099999V0202101N008819999999Y999999999+01001+00401999999ADDMA1100001999999REMMET045METAR EDVE 151320Z 21017KT CAVOK 10/04 Q1000=
0072103480999992015011513504+52319+010556FM-15+009099999V0202101N009319999999Y999999999+01001+00401999999ADDMA1099901999999REMMET045METAR EDVE 151350Z 21018KT CAVOK 10/04 Q0999=
0083103480999992015011514204+52319+010556FM-15+009099999V0202001N008819999999Y999999999+01001+00401999999ADDMA1099901999999OC101491REMMET048METAR EDVE 151420Z 20017G29KT CAVOK 10/04 Q0999=
0072103480999992015011514504+52319+010556FM-15+009099999V0202101N008819999999Y999999999+01001+00401999999ADDMA1099901999999REMMET045METAR EDVE 151450Z 21017KT CAVOK 10/04 Q0999=
0072103480999992015011515204+52319+010556FM-15+009099999V0202101N008819999999Y999999999+01001+00401999999ADDMA1099901999999REMMET045METAR EDVE 151520Z 21017KT CAVOK 10/04 Q0999=
0080103480999992015011515504+52319+010556FM-15+009099999V0202101V007719999999Y999999999+01001+00401999999ADDMA1099901999999REMMET053METAR EDVE 151550Z 21015KT 170V230 CAVOK 10/04 Q0999=
0083103480999992015011516204+52319+010556FM-15+009099999V0202101N007219999999Y999999999+01001+00401999999ADDMA1099801999999OC101241REMMET048METAR EDVE 151620Z 21014G24KT CAVOK 10/04 Q0998=
0176103480999992015011516504+52319+010556FM-15+009099999V0202101N008210167619N009999199+01001+00401999999ADDGA1041+014331999GA2071+016761999GE19MSL   +99999+99999GF199999041999014331999999MA1099801999999OC101491REMMET061METAR EDVE 151650Z 21016G29KT 9999 SCT047 BKN055 10/04 Q0998=
0173103480999992015011517204+52319+010556FM-15+009099999V0202101V007210146319N009999199+01001+00401999999ADDGA1071+014631999GA2081+030481999GE19MSL   +99999+99999GF199999071999014631999999MA1099801999999REMMET066METAR EDVE 151720Z 21014KT 180V240 9999 BKN048 OVC100 10/04 Q0998=
0145103480999992015011517504+52319+010556FM-15+009099999V0202101N007710140219N009999199+01101+00301999999ADDGA1081+014021999GE19MSL   +99999+99999GF199999081999014021999999MA1099801999999REMMET054METAR EDVE 151750Z 21015KT 9999 // OVC046 11/03 Q0998=
0080103480999992015011605504+52319+010556FM-15+009099999V0202501V003619999999Y999999999+00701+00101999999ADDMA1100401999999REMMET053METAR EDVE 160550Z 25007KT 220V280 CAVOK 07/01 Q1004=
0080103480999992015011606204+52319+010556FM-15+009099999V0202501V003619999999Y999999999+00701+00101999999ADDMA1100401999999REMMET053METAR EDVE 160620Z 25007KT 220V280 CAVOK 07/01 Q1004=
