0150103480999992014032118204+52319+010556FM-15+009099999V0202801V004610048819N009999199+00801+00601999999ADDGA1071+004881991GE19MSL   +99999+99999GF199999071990004881991991MA1101001999990REMMET059METAR EDVE 211820Z 28009KT 250V320 9999 BKN016 08/06 Q1010=
0173103480999992014032118504+52319+010556FM-15+009099999V0202801V00571009751CN009999199+00701+00601999999ADDGA1021+004881991GA2041+009751991GE19MSL   +99999+99999GF199999021990004881991991MA1101001999990REMMET066METAR EDVE 211850Z 28011KT 250V310 9999 FEW016 SCT032 07/06 Q1010=
0080103480999992014032119204+52319+010556FM-15+009099999V0202901V005119999999Y999999999+00601+00501999999ADDMA1101001999990REMMET053METAR EDVE 211920Z 29010KT 260V320 CAVOK 06/05 Q1010=
0080103480999992014032119504+52319+010556FM-15+009099999V0202501V002619999999Y999999999+00501+00501999999ADDMA1101101999990REMMET053METAR EDVE 211950Z 25005KT 220V300 CAVOK 05/05 Q1011=
0072103480999992014032120204+52319+010556FM-15+009099999V0202501N002619999999Y999999999+00401+00401999999ADDMA1101101999990REMMET045METAR EDVE 212020Z 25005KT CAVOK 04/04 Q1011=
0080103480999992014032207504+52319+010556FM-15+009099999V0201601V004119999999Y999999999+00901+00801999999ADDMA1100401999990REMMET053METAR EDVE 220750Z 16008KT 140V200 CAVOK 09/08 Q1004=
0142103480999992014032211204+52319+010556FM-15+009099999V0202301N006219999999N009999199+01101+00701999999ADDGA1041+008231991GE19MSL   +99999+99999GF199999041990008231991991MA1100201999990REMMET051METAR EDVE 221120Z 23012KT 9999 SCT027 11/07 Q1002=
0165103480999992014032211504+52319+010556FM-15+009099999V0202201N004610185919N009999199+01101+00601999999ADDGA1041+009141991GA2071+018591991GE19MSL   +99999+99999GF199999041990009141991991MA1100201999990REMMET058METAR EDVE 221150Z 22009KT 9999 SCT030 BKN061 11/06 Q1002=
0142103480999992014032214504+52319+010556FM-15+009099999V0202401N004119999999N009999199+01201+00401999999ADDGA1041+013111991GE19MSL   +99999+99999GF199999041990013111991991MA1100101999990REMMET051METAR EDVE 221450Z 24008KT 9999 SCT043 12/04 Q1001=
0198103480999992014032219504+52319+010556FM-15+009099999V0202801N00411009751CN009999199+00701+00701999999ADDGA1021+003961991GA2041+009751991GA3071+014021991GE19MSL   +99999+99999GF199999021990003961991991MA1100201999990MW1611REMMET069METAR EDVE 221950Z 28008KT 9999 -RA FEW013 SCT032 BKN046 07/07 Q1002=
0183103480999992014032220204+52319+010556FM-15+009099999V0202701V003110149419N009999199+00701+00701999999ADDGA1021+005791991GA2071+014941991GE19MSL   +99999+99999GF199999021990005791991991MA1100201999990MW1611REMMET070METAR EDVE 222020Z 27006KT 230V300 9999 -RA FEW019 BKN049 07/07 Q1002=
0072103480999992014032307504+52319+010556FM-15+009099999V0202301N004619999999Y999999999+00601+00501999999ADDMA1100501999990REMMET045METAR EDVE 230750Z 23009KT CAVOK 06/05 Q1005=
0142103480999992014032310204+52319+010556FM-15+009099999V0202401N004610088419N009999199+00701+00401999999ADDGA1071+008841991GE19MSL   +99999+99999GF199999071990008841991991MA1100501999990REMMET051METAR EDVE 231020Z 24009KT 9999 BKN029 07/04 Q1005=
0150103480999992014032310504+52319+010556FM-15+009099999V0202601V005119999999N009999199+00801+00401999999ADDGA1041+008531991GE19MSL   +99999+99999GF199999041990008531991991MA1100501999990REMMET059METAR EDVE 231050Z 26010KT 230V290 9999 SCT028 08/04 Q1005=
0150103480999992014032311504+52319+010556FM-15+009099999V0202601V003619999999N009999199+00901+00301999999ADDGA1041+008841991GE19MSL   +99999+99999GF199999041990008841991991MA1100501999990REMMET059METAR EDVE 231150Z 26007KT 210V290 9999 SCT029 09/03 Q1005=
0143103480999992014032314504+52319+010556FM-15+009099999V0203301N003619999999N009999199+01001+00001999999ADDGA1041+014021991GE19MSL   +99999+99999GF199999041990014021991991MA1100501999990REMMET052METAR EDVE 231450Z 33007KT 9999 SCT046 10/M00 Q1005=
0076103480999992014032319204+52319+010556FM-15+009099999V0202901N001019999999Y999999999+00701+00101999999ADDMA1100701999990REMMET049METAR COR EDVE 231920Z 29002KT CAVOK 07/01 Q1007=
0072103480999992014032319504+52319+010556FM-15+009099999V0202701N001519999999Y999999999+00601+00101999999ADDMA1100701999990REMMET045METAR EDVE 231950Z 27003KT CAVOK 06/01 Q1007=
0080103480999992014032320204+52319+010556FM-15+009099999V0203201V004619999999Y999999999+00701+00201999999ADDMA1100701999990REMMET053METAR EDVE 232020Z 32009KT 290V350 CAVOK 07/02 Q1007=
0165103480999992014032405504+52319+010556FM-15+009099999V0209999C000010051819N006000199+00301+00301999999ADDGA1071+005181991GA2081+010671991GE19MSL   +99999+99999GF199999071990005181991991MA1101001999990REMMET058METAR EDVE 240550Z 00000KT 6000 BKN017 OVC035 03/03 Q1010=
0165103480999992014032406204+52319+010556FM-15+009099999V0209999V001010109719N006000199+00301+00301999999ADDGA1041+004881991GA2081+010971991GE19MSL   +99999+99999GF199999041990004881991991MA1101101999990REMMET058METAR EDVE 240620Z VRB02KT 6000 SCT016 OVC036 03/03 Q1011=
0173103480999992014032406504+52319+010556FM-15+009099999V0202701V002110121919N006000199+00301+00301999999ADDGA1021+007621991GA2071+012191991GE19MSL   +99999+99999GF199999021990007621991991MA1101101999990REMMET066METAR EDVE 240650Z 27004KT 240V300 6000 FEW025 BKN040 03/03 Q1011=
0165103480999992014032407204+52319+010556FM-15+009099999V0202601N002610143319N008000199+00401+00401999999ADDGA1021+009751991GA2081+014331991GE19MSL   +99999+99999GF199999021990009751991991MA1101101999990REMMET058METAR EDVE 240720Z 26005KT 8000 FEW032 OVC047 04/04 Q1011=
0150103480999992014032407504+52319+010556FM-15+009099999V0202801V003110143319N008000199+00401+00401999999ADDGA1071+014331991GE19MSL   +99999+99999GF199999071990014331991991MA1101101999990REMMET059METAR EDVE 240750Z 28006KT 250V310 8000 BKN047 04/04 Q1011=
0201103480999992014032408204+52319+010556FM-15+009099999V0202801V003110149419N009000199+00401+00401999999ADDGA1021+001831991GA2071+014941991GA3071+023771991GE19MSL   +99999+99999GF199999021990001831991991MA1101101999990REMMET078METAR EDVE 240820Z 28006KT 240V310 9000 FEW006 BKN049 BKN078 04/04      Q1011=
0173103480999992014032408504+52319+010556FM-15+009099999V0203101V003110158519N009000199+00501+00501999999ADDGA1041+002131991GA2071+015851991GE19MSL   +99999+99999GF199999041990002131991991MA1101201999990REMMET066METAR EDVE 240850Z 31006KT 270V340 9000 SCT007 BKN052 05/05 Q1012=
0173103480999992014032409204+52319+010556FM-15+009099999V0203101V002610158519N009999199+00601+00601999999ADDGA1021+003051991GA2071+015851991GE19MSL   +99999+99999GF199999021990003051991991MA1101201999990REMMET066METAR EDVE 240920Z 31005KT 270V360 9999 FEW010 BKN052 06/06 Q1012=
0173103480999992014032409504+52319+010556FM-15+009099999V0202901V002610073219N009999199+00701+00601999999ADDGA1041+003961991GA2071+007321991GE19MSL   +99999+99999GF199999041990003961991991MA1101201999990REMMET066METAR EDVE 240950Z 29005KT 220V340 9999 SCT013 BKN024 07/06 Q1012=
0173103480999992014032410204+52319+010556FM-15+009099999V0203101V003110112819N009999199+00701+00401999999ADDGA1021+005181991GA2071+011281991GE19MSL   +99999+99999GF199999021990005181991991MA1101201999990REMMET066METAR EDVE 241020Z 31006KT 280V350 9999 FEW017 BKN037 07/04 Q1012=
0173103480999992014032410504+52319+010556FM-15+009099999V0203101V003110125019N009999199+00801+00301999999ADDGA1021+006101991GA2071+012501991GE19MSL   +99999+99999GF199999021990006101991991MA1101101999990REMMET066METAR EDVE 241050Z 31006KT 260V010 9999 FEW020 BKN041 08/03 Q1011=
0173103480999992014032411204+52319+010556FM-15+009099999V0203301V003110118919N009999199+00801+00301999999ADDGA1021+007621991GA2071+011891991GE19MSL   +99999+99999GF199999021990007621991991MA1101201999990REMMET066METAR EDVE 241120Z 33006KT 290V020 9999 FEW025 BKN039 08/03 Q1012=
0201103480999992014032411504+52319+010556FM-15+009099999V0203201V00311011581CN009999199+00701+00201999999ADDGA1021+007921991GA2041+011581991GA3071+014631991GE19MSL   +99999+99999GF199999021990007921991991MA1101101999990REMMET078METAR EDVE 241150Z 32006KT 290V350 9999 FEW026 SCT038 BKN048 07/02      Q1011=
0173103480999992014032412204+52319+010556FM-15+009099999V0202801V00261021031CN009999199+00701+00201999999ADDGA1041+013111991GA2041+021031991GE19MSL   +99999+99999GF199999041990013111991991MA1101101999990REMMET066METAR EDVE 241220Z 28005KT 230V320 9999 SCT043 SCT069 07/02 Q1011=
0150103480999992014032412504+52319+010556FM-15+009099999V0202801V002119999999N009999199+00801+00301999999ADDGA1041+011581991GE19MSL   +99999+99999GF199999041990011581991991MA1101101999990REMMET059METAR EDVE 241250Z 28004KT 240V340 9999 SCT038 08/03 Q1011=
0173103480999992014032413204+52319+010556FM-15+009099999V0203201V00511011891CN009999199+00901+00101999999ADDGA1021+009451991GA2041+011891991GE19MSL   +99999+99999GF199999021990009451991991MA1101101999990REMMET066METAR EDVE 241320Z 32010KT 270V350 9999 FEW031 SCT039 09/01 Q1011=
0173103480999992014032413504+52319+010556FM-15+009099999V0203101V00361020121CN009999199+00801+00101999999ADDGA1021+009141991GA2041+020121991GE19MSL   +99999+99999GF199999021990009141991991MA1101101999990REMMET066METAR EDVE 241350Z 31007KT 250V360 9999 FEW030 SCT066 08/01 Q1011=
0173103480999992014032414204+52319+010556FM-15+009099999V0203201V00411023471CN009999199+00801+00001999999ADDGA1021+009451991GA2041+023471991GE19MSL   +99999+99999GF199999021990009451991991MA1101101999990REMMET066METAR EDVE 241420Z 32008KT 290V350 9999 FEW031 SCT077 08/00 Q1011=
0173103480999992014032415204+52319+010556FM-15+009099999V0203201V00411023161CN009999199+00801+00201999999ADDGA1021+010671991GA2041+023161991GE19MSL   +99999+99999GF199999021990010671991991MA1101101999990REMMET066METAR EDVE 241520Z 32008KT 260V350 9999 FEW035 SCT076 08/02 Q1011=
0173103480999992014032415504+52319+010556FM-15+009099999V0203001V00311023161CN009999199+00801+00101999999ADDGA1021+010671991GA2041+023161991GE19MSL   +99999+99999GF199999021990010671991991MA1101101999990REMMET066METAR EDVE 241550Z 30006KT 260V320 9999 FEW035 SCT076 08/01 Q1011=
0165103480999992014032416204+52319+010556FM-15+009099999V0203401N00361015541CN009999199+00801+00201999999ADDGA1021+010361991GA2041+015541991GE19MSL   +99999+99999GF199999021990010361991991MA1101101999990REMMET058METAR EDVE 241620Z 34007KT 9999 FEW034 SCT051 08/02 Q1011=
0173103480999992014032416504+52319+010556FM-15+009099999V0200501V00211015851CN009999199+00701+00201999999ADDGA1021+011581991GA2041+015851991GE19MSL   +99999+99999GF199999021990011581991991MA1101101999990REMMET066METAR EDVE 241650Z 05004KT 020V080 9999 FEW038 SCT052 07/02 Q1011=
0165103480999992014032417204+52319+010556FM-15+009099999V0209999V00101015851CN009999199+00701+00201999999ADDGA1021+012191991GA2041+015851991GE19MSL   +99999+99999GF199999021990012191991991MA1101101999990REMMET058METAR EDVE 241720Z VRB02KT 9999 FEW040 SCT052 07/02 Q1011=
0165103480999992014032417504+52319+010556FM-15+009099999V0209999C00001017371CN009999199+00701+00201999999ADDGA1021+014631991GA2041+017371991GE19MSL   +99999+99999GF199999021990014631991991MA1101201999990REMMET058METAR EDVE 241750Z 00000KT 9999 FEW048 SCT057 07/02 Q1012=
0072103480999992014032418204+52319+010556FM-15+009099999V0209999C000019999999Y999999999+00601+00201999999ADDMA1101201999990REMMET045METAR EDVE 241820Z 00000KT CAVOK 06/02 Q1012=
0072103480999992014032418504+52319+010556FM-15+009099999V0203101N001519999999Y999999999+00601+00301999999ADDMA1101201999990REMMET045METAR EDVE 241850Z 31003KT CAVOK 06/03 Q1012=
0188103480999992014032419204+52319+010556FM-15+009099999V0202801N00211019511CN009999199+00501+00301999999ADDGA1021+011281991GA2041+019511991GA3071+026211991GE19MSL   +99999+99999GF199999021990011281991991MA1101201999990REMMET065METAR EDVE 241920Z 28004KT 9999 FEW037 SCT064 BKN086 05/03 Q1012=
0165103480999992014032419504+52319+010556FM-15+009099999V0209999C000010182919N009999199+00501+00301999999ADDGA1021+010971991GA2071+018291991GE19MSL   +99999+99999GF199999021990010971991991MA1101201999990REMMET058METAR EDVE 241950Z 00000KT 9999 FEW036 BKN060 05/03 Q1012=
0072103480999992014032420204+52319+010556FM-15+009099999V0209999C000019999999Y999999999+00501+00201999999ADDMA1101201999990REMMET045METAR EDVE 242020Z 00000KT CAVOK 05/02 Q1012=
0188103480999992014032420504+52319+010556FM-15+009099999V0209999C00001013411CN009999199+00401+00301999999ADDGA1021+011581991GA2041+013411991GA3071+017981991GE19MSL   +99999+99999GF199999021990011581991991MA1101201999990REMMET065METAR EDVE 242050Z 00000KT 9999 FEW038 SCT044 BKN059 04/03 Q1012=
0173103480999992014032506204+52319+010556FM-15+009099999V0202401V002110268219N008000199+00201+00201999999ADDGA1041+007921991GA2071+026821991GE19MSL   +99999+99999GF199999041990007921991991MA1101101999990REMMET066METAR EDVE 250620Z 24004KT 210V280 8000 SCT026 BKN088 02/02 Q1011=
0165103480999992014032506504+52319+010556FM-15+009099999V0209999V001510274319N009000199+00201+00201999999ADDGA1021+009141991GA2071+027431991GE19MSL   +99999+99999GF199999021990009141991991MA1101101999990REMMET058METAR EDVE 250650Z VRB03KT 9000 FEW030 BKN090 02/02 Q1011=
0188103480999992014032507204+52319+010556FM-15+009099999V0202801N00211020121CN008000199+00301+00301999999ADDGA1021+007621991GA2041+020121991GA3071+025911991GE19MSL   +99999+99999GF199999021990007621991991MA1101101999990REMMET065METAR EDVE 250720Z 28004KT 8000 FEW025 SCT066 BKN085 03/03 Q1011=
0165103480999992014032507504+52319+010556FM-15+009099999V0209999V001510268219N008000199+00301+00301999999ADDGA1021+007621991GA2071+026821991GE19MSL   +99999+99999GF199999021990007621991991MA1101201999990REMMET058METAR EDVE 250750Z VRB03KT 8000 FEW025 BKN088 03/03 Q1012=
0165103480999992014032508204+52319+010556FM-15+009099999V0209999C000010271319N009000199+00401+00401999999ADDGA1021+010061991GA2071+027131991GE19MSL   +99999+99999GF199999021990010061991991MA1101101999990REMMET058METAR EDVE 250820Z 00000KT 9000 FEW033 BKN089 04/04 Q1011=
0165103480999992014032508504+52319+010556FM-15+009099999V0209999C00001027431CN009999199+00601+00601999999ADDGA1021+010671991GA2041+027431991GE19MSL   +99999+99999GF199999021990010671991991MA1101101999990REMMET058METAR EDVE 250850Z 00000KT 9999 FEW035 SCT090 06/06 Q1011=
0165103480999992014032509204+52319+010556FM-15+009099999V0209999V00101027431CN009999199+00601+00501999999ADDGA1021+004881991GA2041+027431991GE19MSL   +99999+99999GF199999021990004881991991MA1101101999990REMMET058METAR EDVE 250920Z VRB02KT 9999 FEW016 SCT090 06/05 Q1011=
0165103480999992014032509504+52319+010556FM-15+009099999V0209999V00151006401CN009999199+00701+00301999999ADDGA1021+004571991GA2041+006401991GE19MSL   +99999+99999GF199999021990004571991991MA1101101999990REMMET058METAR EDVE 250950Z VRB03KT 9999 FEW015 SCT021 07/03 Q1011=
0142103480999992014032510204+52319+010556FM-15+009099999V0209999V001519999999N009999199+00801+00301999999ADDGA1041+006711991GE19MSL   +99999+99999GF199999041990006711991991MA1101101999990REMMET051METAR EDVE 251020Z VRB03KT 9999 SCT022 08/03 Q1011=
0150103480999992014032510504+52319+010556FM-15+009099999V0200301V002119999999N009999199+00901+00101999999ADDGA1041+009141991GE19MSL   +99999+99999GF199999041990009141991991MA1101101999990REMMET059METAR EDVE 251050Z 03004KT 340V090 9999 SCT030 09/01 Q1011=
0192103480999992014032511204+52319+010556FM-15+009099999V0203301V004110167619N009999199+00901+00001999999ADDGA1041+009451081GA2071+016761991GE19MSL   +99999+99999GF199999041990009451991991MA1101001999990MW1161REMMET079METAR EDVE 251120Z 33008KT 280V070 9999 VCSH SCT031TCU BKN055 09/00      Q1010=
0192103480999992014032511504+52319+010556FM-15+009099999V0202901V002610228619N009999199+00801+00201999999ADDGA1021+011281081GA2071+022861991GE19MSL   +99999+99999GF199999021990011281991991MA1101001999990MW1161REMMET079METAR EDVE 251150Z 29005KT 250V330 9999 VCSH FEW037TCU BKN075 08/02      Q1010=
0215103480999992014032512204+52319+010556FM-15+009099999V0202801V00261013721CN009999199+00801+00201999999ADDGA1021+010971081GA2041+013721991GA3071+022561991GE19MSL   +99999+99999GF199999021990010971991991MA1101001999990MW1161REMMET086METAR EDVE 251220Z 28005KT 240V330 9999 VCSH FEW036TCU SCT045 BKN074      08/02 Q1010=
0134103480999992014032512504+52319+010556FM-15+009099999V0202801V002119999999N009999199+00701+00301999999ADDMA1101001999990REMMET088METAR EDVE 251250Z 28004KT 230V310 9999 SHGSRA FEW033TCU SCT038 BKN057      07/03 Q1010=EQDD01      0ADE693
0184103480999992014032512514+52319+010556FM-16+009099999V0209999V001010164619N009999199+00701+00101999999ADDGA1041+010061081GA2071+016461991GE19MSL   +99999+99999GF199999041990010061991991MA1101001999990MW1161REMMET071SPECI EDVE 251251Z VRB02KT 9999 VCSH SCT033TCU BKN054 07/01 Q1010 REGS=
0153103480999992014032513204+52319+010556FM-15+009099999V0202401N002619999999N009999199+00701+00301999999ADDGA1041+013111991GE19MSL   +99999+99999GF199999041990013111991991MA1101001999990REMMET062METAR COR EDVE 251320Z 24005KT 9999 SCT043 07/03 Q1010 RESHGS=
0142103480999992014032513504+52319+010556FM-15+009099999V0202401N004119999999N009999199+00701+00301999999ADDGA1041+013721991GE19MSL   +99999+99999GF199999041990013721991991MA1101001999990REMMET051METAR EDVE 251350Z 24008KT 9999 SCT045 07/03 Q1010=
0072103480999992014032514204+52319+010556FM-15+009099999V0202501N004119999999Y999999999+00801+00301999999ADDMA1101001999990REMMET045METAR EDVE 251420Z 25008KT CAVOK 08/03 Q1010=
0150103480999992014032514504+52319+010556FM-15+009099999V0202801V003619999999N009999199+00901+00301999999ADDGA1021+011581991GE19MSL   +99999+99999GF199999021990011581991991MA1101001999990REMMET059METAR EDVE 251450Z 28007KT 220V320 9999 FEW038 09/03 Q1010=
0080103480999992014032515204+52319+010556FM-15+009099999V0203001V003619999999Y999999999+00901+00101999999ADDMA1100901999990REMMET053METAR EDVE 251520Z 30007KT 260V350 CAVOK 09/01 Q1009=
0161103480999992014032515504+52319+010556FM-15+009099999V0203001V003119999999N009999199+00801+00101999999ADDGA1021+012191991GE19MSL   +99999+99999GF199999021990012191991991MA1101001999990MW1161REMMET064METAR EDVE 251550Z 30006KT 260V340 9999 VCSH FEW040 08/01 Q1010=
0153103480999992014032516204+52319+010556FM-15+009099999V0209999V001519999999N009999199+00901+00101999999ADDGA1041+013721991GE19MSL   +99999+99999GF199999041990013721991991MA1101001999990MW1161REMMET056METAR EDVE 251620Z VRB03KT 9999 VCSH SCT045 09/01 Q1010=
0161103480999992014032516504+52319+010556FM-15+009099999V0202801V003119999999N009999199+00801+00101999999ADDGA1021+012801991GE19MSL   +99999+99999GF199999021990012801991991MA1101001999990MW1161REMMET064METAR EDVE 251650Z 28006KT 240V310 9999 VCSH FEW042 08/01 Q1010=
0165103480999992014032517204+52319+010556FM-15+009099999V0203101N00261016761CN009999199+00701+00201999999ADDGA1021+013411991GA2041+016761991GE19MSL   +99999+99999GF199999021990013411991991MA1101001999990REMMET058METAR EDVE 251720Z 31005KT 9999 FEW044 SCT055 07/02 Q1010=
0072103480999992014032517504+52319+010556FM-15+009099999V0209999V001519999999Y999999999+00601+00201999999ADDMA1101001999990REMMET045METAR EDVE 251750Z VRB03KT CAVOK 06/02 Q1010=
0072103480999992014032518204+52319+010556FM-15+009099999V0209999V001519999999Y999999999+00501+00101999999ADDMA1101001999990REMMET045METAR EDVE 251820Z VRB03KT CAVOK 05/01 Q1010=
0072103480999992014032518504+52319+010556FM-15+009099999V0202901N001519999999Y999999999+00501+00101999999ADDMA1101001999990REMMET045METAR EDVE 251850Z 29003KT CAVOK 05/01 Q1010=
0072103480999992014032519204+52319+010556FM-15+009099999V0203301N002119999999Y999999999+00401+00101999999ADDMA1101101999990REMMET045METAR EDVE 251920Z 33004KT CAVOK 04/01 Q1011=
0072103480999992014032519504+52319+010556FM-15+009099999V0203301N002119999999Y999999999+00401+00101999999ADDMA1101101999990REMMET045METAR EDVE 251950Z 33004KT CAVOK 04/01 Q1011=
0072103480999992014032520204+52319+010556FM-15+009099999V0203201N002119999999Y999999999+00401+00101999999ADDMA1101101999990REMMET045METAR EDVE 252020Z 32004KT CAVOK 04/01 Q1011=
0165103480999992014032520504+52319+010556FM-15+009099999V0209999C000010213419N009999199+00401+00101999999ADDGA1021+013111991GA2071+021341991GE19MSL   +99999+99999GF199999021990013111991991MA1101101999990REMMET058METAR EDVE 252050Z 00000KT 9999 FEW043 BKN070 04/01 Q1011=
0072103480999992014032521204+52319+010556FM-15+009099999V0202701N001019999999Y999999999+00401+00101999999ADDMA1101101999990REMMET045METAR EDVE 252120Z 27002KT CAVOK 04/01 Q1011=
0072103480999992014032521504+52319+010556FM-15+009099999V0209999C000019999999Y999999999+00301+00201999999ADDMA1101101999990REMMET045METAR EDVE 252150Z 00000KT CAVOK 03/02 Q1011=
0072103480999992014032522204+52319+010556FM-15+009099999V0209999C000019999999Y999999999+00301+00201999999ADDMA1101101999990REMMET045METAR EDVE 252220Z 00000KT CAVOK 03/02 Q1011=
0144103480999992014032605504+52319+010556FM-15+009099999V0202101N001519999999N009000199+00001+00001999999ADDGA1021+013411991GE19MSL   +99999+99999GF199999021990013411991991MA1101301999990REMMET053METAR EDVE 260550Z 21003KT 9000 FEW044 M00/M00 Q1013=
0142103480999992014032606204+52319+010556FM-15+009099999V0201501N001519999999N008000199+00101+00101999999ADDGA1021+013411991GE19MSL   +99999+99999GF199999021990013411991991MA1101301999990REMMET051METAR EDVE 260620Z 15003KT 8000 FEW044 01/01 Q1013=
0142103480999992014032606504+52319+010556FM-15+009099999V0201801N001519999999N009999199+00201+00201999999ADDGA1021+013411991GE19MSL   +99999+99999GF199999021990013411991991MA1101301999990REMMET051METAR EDVE 260650Z 18003KT 9999 FEW044 02/02 Q1013=
0072103480999992014032607204+52319+010556FM-15+009099999V0201701N001519999999Y999999999+00401+00401999999ADDMA1101401999990REMMET045METAR EDVE 260720Z 17003KT CAVOK 04/04 Q1014=
0072103480999992014032607504+52319+010556FM-15+009099999V0209999V001519999999Y999999999+00501+00401999999ADDMA1101401999990REMMET045METAR EDVE 260750Z VRB03KT CAVOK 05/04 Q1014=
0076103480999992014032608204+52319+010556FM-15+009099999V0209999V001519999999Y999999999+00501+00301999999ADDMA1101401999990REMMET049METAR COR EDVE 260820Z VRB03KT CAVOK 05/03 Q1014=
0080103480999992014032608504+52319+010556FM-15+009099999V0201801V002119999999Y999999999+00701+00401999999ADDMA1101401999990REMMET053METAR EDVE 260850Z 18004KT 140V220 CAVOK 07/04 Q1014=
0080103480999992014032609204+52319+010556FM-15+009099999V0201501V002619999999Y999999999+00901+00301999999ADDMA1101501999990REMMET053METAR EDVE 260920Z 15005KT 100V210 CAVOK 09/03 Q1015=
0150103480999992014032609504+52319+010556FM-15+009099999V0201901V003619999999N009999199+00901+00101999999ADDGA1021+010061991GE19MSL   +99999+99999GF199999021990010061991991MA1101501999990REMMET059METAR EDVE 260950Z 19007KT 140V230 9999 FEW033 09/01 Q1015=
0150103480999992014032610204+52319+010556FM-15+009099999V0201401V003619999999N009999199+00901+00101999999ADDGA1021+010971991GE19MSL   +99999+99999GF199999021990010971991991MA1101501999990REMMET059METAR EDVE 261020Z 14007KT 080V210 9999 FEW036 09/01 Q1015=
0151103480999992014032610504+52319+010556FM-15+009099999V0201301V004119999999N009999199+01001-00101999999ADDGA1021+012501991GE19MSL   +99999+99999GF199999021990012501991991MA1101501999990REMMET060METAR EDVE 261050Z 13008KT 090V180 9999 FEW041 10/M01 Q1015=
0150103480999992014032611204+52319+010556FM-15+009099999V0201701V004619999999N009999199+01001+00001999999ADDGA1021+013111991GE19MSL   +99999+99999GF199999021990013111991991MA1101501999990REMMET059METAR EDVE 261120Z 17009KT 120V200 9999 FEW043 10/00 Q1015=
0151103480999992014032611504+52319+010556FM-15+009099999V0201201V004619999999N009999199+01001-00201999999ADDGA1021+014631991GE19MSL   +99999+99999GF199999021990014631991991MA1101501999990REMMET060METAR EDVE 261150Z 12009KT 090V160 9999 FEW048 10/M02 Q1015=
0174103480999992014032612204+52319+010556FM-15+009099999V0201501V00311017681CN009999199+01101-00201999999ADDGA1021+014021991GA2041+017681991GE19MSL   +99999+99999GF199999021990014021991991MA1101501999990REMMET067METAR EDVE 261220Z 15006KT 090V200 9999 FEW046 SCT058 11/M02 Q1015=
0166103480999992014032612504+52319+010556FM-15+009099999V0209999V00411029261CN009999199+01001-00101999999ADDGA1021+013721991GA2041+029261991GE19MSL   +99999+99999GF199999021990013721991991MA1101501999990REMMET059METAR EDVE 261250Z VRB08KT 9999 FEW045 SCT096 10/M01 Q1015=
0080103480999992014032612544+52319+010556FM-16+009099999V0201201V005119999999Y999999999+01101+00001999999ADDMA1101501999990REMMET053SPECI EDVE 261254Z 12010KT 080V160 CAVOK 11/00 Q1015=
0189103480999992014032613204+52319+010556FM-15+009099999V0201001N006210161519N009999199+01001+00001999999ADDGA1021+014331991GA2071+016151991GA3071+028351991GE19MSL   +99999+99999GF199999021990014331991991MA1101501999990REMMET066METAR EDVE 261320Z 10012KT 9999 FEW047 BKN053 BKN093 10/M00 Q1015=
0188103480999992014032613504+52319+010556FM-15+009099999V0201101N007710179819N009999199+01101+00101999999ADDGA1041+014941991GA2071+017981991GA3071+022561991GE19MSL   +99999+99999GF199999041990014941991991MA1101501999990REMMET065METAR EDVE 261350Z 11015KT 9999 SCT049 BKN059 BKN074 11/01 Q1015=
0073103480999992014032614204+52319+010556FM-15+009099999V0201001N007719999999Y999999999+01001+00001999999ADDMA1101501999990REMMET046METAR EDVE 261420Z 10015KT CAVOK 10/M00 Q1015=
0072103480999992014032614504+52319+010556FM-15+009099999V0201101N007219999999Y999999999+01001+00001999999ADDMA1101601999990REMMET045METAR EDVE 261450Z 11014KT CAVOK 10/00 Q1016=
0073103480999992014032615204+52319+010556FM-15+009099999V0201101N006219999999Y999999999+01001-00101999999ADDMA1101601999990REMMET046METAR EDVE 261520Z 11012KT CAVOK 10/M01 Q1016=
0073103480999992014032615504+52319+010556FM-15+009099999V0201001N007219999999Y999999999+01001-00101999999ADDMA1101601999990REMMET046METAR EDVE 261550Z 10014KT CAVOK 10/M01 Q1016=
0073103480999992014032616204+52319+010556FM-15+009099999V0201101N006219999999Y999999999+00901-00101999999ADDMA1101601999990REMMET046METAR EDVE 261620Z 11012KT CAVOK 09/M01 Q1016=
0073103480999992014032616504+52319+010556FM-15+009099999V0201001N004119999999Y999999999+00901-00101999999ADDMA1101601999990REMMET046METAR EDVE 261650Z 10008KT CAVOK 09/M01 Q1016=
0073103480999992014032617204+52319+010556FM-15+009099999V0201101N004619999999Y999999999+00801-00101999999ADDMA1101701999990REMMET046METAR EDVE 261720Z 11009KT CAVOK 08/M01 Q1017=
0073103480999992014032617504+52319+010556FM-15+009099999V0200901N003119999999Y999999999+00801-00101999999ADDMA1101701999990REMMET046METAR EDVE 261750Z 09006KT CAVOK 08/M01 Q1017=
0073103480999992014032618204+52319+010556FM-15+009099999V0200901N004119999999Y999999999+00701+00001999999ADDMA1101701999990REMMET046METAR EDVE 261820Z 09008KT CAVOK 07/M00 Q1017=
0072103480999992014032618504+52319+010556FM-15+009099999V0201001N004619999999Y999999999+00701+00001999999ADDMA1101801999990REMMET045METAR EDVE 261850Z 10009KT CAVOK 07/00 Q1018=
0072103480999992014032619204+52319+010556FM-15+009099999V0200901N004119999999Y999999999+00601+00101999999ADDMA1101801999990REMMET045METAR EDVE 261920Z 09008KT CAVOK 06/01 Q1018=
0072103480999992014032619504+52319+010556FM-15+009099999V0200801N004119999999Y999999999+00601+00001999999ADDMA1101801999990REMMET045METAR EDVE 261950Z 08008KT CAVOK 06/00 Q1018=
0072103480999992014032620204+52319+010556FM-15+009099999V0200901N004119999999Y999999999+00601+00101999999ADDMA1101801999990REMMET045METAR EDVE 262020Z 09008KT CAVOK 06/01 Q1018=
0072103480999992014032620504+52319+010556FM-15+009099999V0200801N004619999999Y999999999+00601+00101999999ADDMA1101901999990REMMET045METAR EDVE 262050Z 08009KT CAVOK 06/01 Q1019=
0105103480999992014032705504+52319+010556FM-15+009099999V0200901N004612200019N007000199+00201+00201999999ADDGF100991999999999999999999MA1101801999990REMMET052METAR COR EDVE 270550Z 09009KT 7000 NSC 02/02 Q1018=
0101103480999992014032706204+52319+010556FM-15+009099999V0200901N005112200019N009000199+00301+00301999999ADDGF100991999999999999999999MA1101801999990REMMET048METAR EDVE 270620Z 09010KT 9000 NSC 03/03 Q1018=
0072103480999992014032706504+52319+010556FM-15+009099999V0201001N005119999999Y999999999+00301+00301999999ADDMA1101901999990REMMET045METAR EDVE 270650Z 10010KT CAVOK 03/03 Q1019=
0165103480999992014032707204+52319+010556FM-15+009099999V0201001N005710579119N009999199+00401+00401999999ADDGA1021+003351991GA2071+057911991GE19MSL   +99999+99999GF199999021990003351991991MA1101901999990REMMET058METAR EDVE 270720Z 10011KT 9999 FEW011 BKN190 04/04 Q1019=
0142103480999992014032707504+52319+010556FM-15+009099999V0201001N004619999999N009999199+00501+00501999999ADDGA1021+003661991GE19MSL   +99999+99999GF199999021990003661991991MA1101901999990REMMET051METAR EDVE 270750Z 10009KT 9999 FEW012 05/05 Q1019=
0072103480999992014032708204+52319+010556FM-15+009099999V0200801N005719999999Y999999999+00601+00501999999ADDMA1101901999990REMMET045METAR EDVE 270820Z 08011KT CAVOK 06/05 Q1019=
0072103480999992014032708504+52319+010556FM-15+009099999V0200801N006719999999Y999999999+00701+00401999999ADDMA1101801999990REMMET045METAR EDVE 270850Z 08013KT CAVOK 07/04 Q1018=
0072103480999992014032709204+52319+010556FM-15+009099999V0200901N006719999999Y999999999+00901+00401999999ADDMA1101801999990REMMET045METAR EDVE 270920Z 09013KT CAVOK 09/04 Q1018=
0072103480999992014032709504+52319+010556FM-15+009099999V0200901N007719999999Y999999999+00901+00401999999ADDMA1101801999990REMMET045METAR EDVE 270950Z 09015KT CAVOK 09/04 Q1018=
0142103480999992014032710204+52319+010556FM-15+009099999V0200801N005119999999N009999199+01101+00301999999ADDGA1041+009751991GE19MSL   +99999+99999GF199999041990009751991991MA1101801999990REMMET051METAR EDVE 271020Z 08010KT 9999 SCT032 11/03 Q1018=
0142103480999992014032710504+52319+010556FM-15+009099999V0201001N008810106719N009999199+01101+00201999999ADDGA1071+010671991GE19MSL   +99999+99999GF199999071990010671991991MA1101701999990REMMET051METAR EDVE 271050Z 10017KT 9999 BKN035 11/02 Q1017=
0142103480999992014032711204+52319+010556FM-15+009099999V0201101N007719999999N009999199+01201+00101999999ADDGA1021+013721991GE19MSL   +99999+99999GF199999021990013721991991MA1101701999990REMMET051METAR EDVE 271120Z 11015KT 9999 FEW045 12/01 Q1017=
0142103480999992014032711504+52319+010556FM-15+009099999V0200901N007719999999N009999199+01201+00201999999ADDGA1021+013721991GE19MSL   +99999+99999GF199999021990013721991991MA1101701999990REMMET051METAR EDVE 271150Z 09015KT 9999 FEW045 12/02 Q1017=
0150103480999992014032712204+52319+010556FM-15+009099999V0200901V007219999999N009999199+01201+00101999999ADDGA1021+013721991GE19MSL   +99999+99999GF199999021990013721991991MA1101601999990REMMET059METAR EDVE 271220Z 09014KT 050V120 9999 FEW045 12/01 Q1016=
0142103480999992014032712504+52319+010556FM-15+009099999V0200901N007219999999N009999199+01201+00201999999ADDGA1021+013721991GE19MSL   +99999+99999GF199999021990013721991991MA1101601999990REMMET051METAR EDVE 271250Z 09014KT 9999 FEW045 12/02 Q1016=
0142103480999992014032713204+52319+010556FM-15+009099999V0201101N007219999999N009999199+01301+00201999999ADDGA1021+014021991GE19MSL   +99999+99999GF199999021990014021991991MA1101601999990REMMET051METAR EDVE 271320Z 11014KT 9999 FEW046 13/02 Q1016=
0142103480999992014032713504+52319+010556FM-15+009099999V0200901N006719999999N009999199+01201+00101999999ADDGA1021+014021991GE19MSL   +99999+99999GF199999021990014021991991MA1101601999990REMMET051METAR EDVE 271350Z 09013KT 9999 FEW046 12/01 Q1016=
0080103480999992014032714204+52319+010556FM-15+009099999V0200901V006219999999Y999999999+01201+00001999999ADDMA1101601999990REMMET053METAR EDVE 271420Z 09012KT 060V120 CAVOK 12/00 Q1016=
0072103480999992014032714504+52319+010556FM-15+009099999V0200901N005719999999Y999999999+01301+00101999999ADDMA1101501999990REMMET045METAR EDVE 271450Z 09011KT CAVOK 13/01 Q1015=
0073103480999992014032715204+52319+010556FM-15+009099999V0200901N006219999999Y999999999+01201+00001999999ADDMA1101501999990REMMET046METAR EDVE 271520Z 09012KT CAVOK 12/M00 Q1015=
0081103480999992014032715504+52319+010556FM-15+009099999V0200801V005719999999Y999999999+01201+00001999999ADDMA1101501999990REMMET054METAR EDVE 271550Z 08011KT 040V100 CAVOK 12/M00 Q1015=
0081103480999992014032716204+52319+010556FM-15+009099999V0200801V005119999999Y999999999+01201-00101999999ADDMA1101501999990REMMET054METAR EDVE 271620Z 08010KT 040V100 CAVOK 12/M01 Q1015=
0073103480999992014032716504+52319+010556FM-15+009099999V0200801N005719999999Y999999999+01201-00101999999ADDMA1101601999990REMMET046METAR EDVE 271650Z 08011KT CAVOK 12/M01 Q1016=
0073103480999992014032717204+52319+010556FM-15+009099999V0200701N004619999999Y999999999+01101-00101999999ADDMA1101601999990REMMET046METAR EDVE 271720Z 07009KT CAVOK 11/M01 Q1016=
0073103480999992014032717504+52319+010556FM-15+009099999V0200701N005119999999Y999999999+01001-00101999999ADDMA1101601999990REMMET046METAR EDVE 271750Z 07010KT CAVOK 10/M01 Q1016=
0072103480999992014032718204+52319+010556FM-15+009099999V0200701N004119999999Y999999999+01001+00101999999ADDMA1101601999990REMMET045METAR EDVE 271820Z 07008KT CAVOK 10/01 Q1016=
0072103480999992014032718504+52319+010556FM-15+009099999V0200701N004619999999Y999999999+00901+00101999999ADDMA1101701999990REMMET045METAR EDVE 271850Z 07009KT CAVOK 09/01 Q1017=
0072103480999992014032719204+52319+010556FM-15+009099999V0200701N004619999999Y999999999+00801+00201999999ADDMA1101701999990REMMET045METAR EDVE 271920Z 07009KT CAVOK 08/02 Q1017=
0072103480999992014032719504+52319+010556FM-15+009099999V0200801N005119999999Y999999999+00801+00201999999ADDMA1101701999990REMMET045METAR EDVE 271950Z 08010KT CAVOK 08/02 Q1017=
0072103480999992014032720204+52319+010556FM-15+009099999V0200701N005119999999Y999999999+00701+00201999999ADDMA1101701999990REMMET045METAR EDVE 272020Z 07010KT CAVOK 07/02 Q1017=
0072103480999992014032720504+52319+010556FM-15+009099999V0200801N004119999999Y999999999+00701+00301999999ADDMA1101801999990REMMET045METAR EDVE 272050Z 08008KT CAVOK 07/03 Q1018=
0151103480999992014032805504+52319+010556FM-15+009099999V0200901N004110009119N002800199+00301+00301999999ADDGA1081+000911991GE19MSL   +99999+99999GF199999081990000911991991MA1102101999990MW1101REMMET054METAR EDVE 280550Z 09008KT 2800 BR OVC003 03/03 Q1021=
0151103480999992014032806204+52319+010556FM-15+009099999V0200901N005710006119N002000199+00301+00301999999ADDGA1081+000611991GE19MSL   +99999+99999GF199999081990000611991991MA1102101999990MW1101REMMET054METAR EDVE 280620Z 09011KT 2000 BR OVC002 03/03 Q1021=
0151103480999992014032806504+52319+010556FM-15+009099999V0200901N005110006119N001500199+00301+00301999999ADDGA1081+000611991GE19MSL   +99999+99999GF199999081990000611991991MA1102101999990MW1101REMMET054METAR EDVE 280650Z 09010KT 1500 BR OVC002 03/03 Q1021=
0151103480999992014032807204+52319+010556FM-15+009099999V0200901N004110006119N001500199+00301+00301999999ADDGA1081+000611991GE19MSL   +99999+99999GF199999081990000611991991MA1102201999990MW1101REMMET054METAR EDVE 280720Z 09008KT 1500 BR OVC002 03/03 Q1022=
0151103480999992014032807504+52319+010556FM-15+009099999V0200901N004610009119N002100199+00301+00301999999ADDGA1081+000911991GE19MSL   +99999+99999GF199999081990000911991991MA1102201999990MW1101REMMET054METAR EDVE 280750Z 09009KT 2100 BR OVC003 03/03 Q1022=
0151103480999992014032808204+52319+010556FM-15+009099999V0200901N003610009119N003100199+00401+00401999999ADDGA1081+000911991GE19MSL   +99999+99999GF199999081990000911991991MA1102201999990MW1101REMMET054METAR EDVE 280820Z 09007KT 3100 BR OVC003 04/04 Q1022=
0151103480999992014032808504+52319+010556FM-15+009099999V0200801N004110012219N004200199+00501+00501999999ADDGA1081+001221991GE19MSL   +99999+99999GF199999081990001221991991MA1102201999990MW1101REMMET054METAR EDVE 280850Z 08008KT 4200 BR OVC004 05/05 Q1022=
0159103480999992014032809204+52319+010556FM-15+009099999V0200901V003610018319N004700199+00501+00501999999ADDGA1081+001831991GE19MSL   +99999+99999GF199999081990001831991991MA1102201999990MW1101REMMET062METAR EDVE 280920Z 09007KT 050V120 4700 BR OVC006 05/05 Q1022=
0159103480999992014032809504+52319+010556FM-15+009099999V0200801V004110018319N005000199+00501+00501999999ADDGA1081+001831991GE19MSL   +99999+99999GF199999081990001831991991MA1102201999990MW1101REMMET062METAR EDVE 280950Z 08008KT 040V110 5000 BR OVC006 05/05 Q1022=
0142103480999992014032810204+52319+010556FM-15+009099999V0200801N004110021319N006000199+00601+00601999999ADDGA1081+002131991GE19MSL   +99999+99999GF199999081990002131991991MA1102201999990REMMET051METAR EDVE 281020Z 08008KT 6000 OVC007 06/06 Q1022=
0142103480999992014032810504+52319+010556FM-15+009099999V0200901N005110027419N008000199+00701+00701999999ADDGA1081+002741991GE19MSL   +99999+99999GF199999081990002741991991MA1102201999990REMMET051METAR EDVE 281050Z 09010KT 8000 OVC009 07/07 Q1022=
0150103480999992014032811204+52319+010556FM-15+009099999V0200901V004610033519N009000199+00701+00701999999ADDGA1071+003351991GE19MSL   +99999+99999GF199999071990003351991991MA1102201999990REMMET059METAR EDVE 281120Z 09009KT 050V120 9000 BKN011 07/07 Q1022=
0142103480999992014032811504+52319+010556FM-15+009099999V0200901N004610033519N009999199+00701+00701999999ADDGA1071+003351991GE19MSL   +99999+99999GF199999071990003351991991MA1102201999990REMMET051METAR EDVE 281150Z 09009KT 9999 BKN011 07/07 Q1022=
0150103480999992014032812204+52319+010556FM-15+009099999V0200901V003610048819N009999199+00801+00701999999ADDGA1071+004881991GE19MSL   +99999+99999GF199999071990004881991991MA1102201999990REMMET059METAR EDVE 281220Z 09007KT 060V120 9999 BKN016 08/07 Q1022=
0150103480999992014032812504+52319+010556FM-15+009099999V0201101V004110054919N009999199+00901+00701999999ADDGA1071+005491991GE19MSL   +99999+99999GF199999071990005491991991MA1102201999990REMMET059METAR EDVE 281250Z 11008KT 070V140 9999 BKN018 09/07 Q1022=
0142103480999992014032813204+52319+010556FM-15+009099999V0200901N004119999999N009000199+01001+00701999999ADDGA1041+005791991GE19MSL   +99999+99999GF199999041990005791991991MA1102201999990REMMET051METAR EDVE 281320Z 09008KT 9000 SCT019 10/07 Q1022=
0142103480999992014032813504+52319+010556FM-15+009099999V0201001N005110067119N009000199+01001+00501999999ADDGA1071+006711991GE19MSL   +99999+99999GF199999071990006711991991MA1102201999990REMMET051METAR EDVE 281350Z 10010KT 9000 BKN022 10/05 Q1022=
0150103480999992014032814204+52319+010556FM-15+009099999V0200901V004110073219N009000199+01001+00601999999ADDGA1071+007321991GE19MSL   +99999+99999GF199999071990007321991991MA1102101999990REMMET059METAR EDVE 281420Z 09008KT 050V120 9000 BKN024 10/06 Q1021=
0142103480999992014032814504+52319+010556FM-15+009099999V0201001N004610079219N009000199+01001+00501999999ADDGA1071+007921991GE19MSL   +99999+99999GF199999071990007921991991MA1102101999990REMMET051METAR EDVE 281450Z 10009KT 9000 BKN026 10/05 Q1021=
0150103480999992014032815204+52319+010556FM-15+009099999V0200801V004110076219N009000199+01001+00601999999ADDGA1071+007621991GE19MSL   +99999+99999GF199999071990007621991991MA1102201999990REMMET059METAR EDVE 281520Z 08008KT 040V110 9000 BKN025 10/06 Q1022=
0173103480999992014032815504+52319+010556FM-15+009099999V0200701V004110070119N009000199+00901+00701999999ADDGA1021+005491991GA2081+007011991GE19MSL   +99999+99999GF199999021990005491991991MA1102101999990REMMET066METAR EDVE 281550Z 07008KT 040V100 9000 FEW018 OVC023 09/07 Q1021=
0173103480999992014032816204+52319+010556FM-15+009099999V0200801V004110076219N009000199+00801+00801999999ADDGA1041+004571991GA2081+007621991GE19MSL   +99999+99999GF199999041990004571991991MA1102101999990REMMET066METAR EDVE 281620Z 08008KT 030V110 9000 SCT015 OVC025 08/08 Q1021=
0165103480999992014032816504+52319+010556FM-15+009099999V0200801N004610064019N009000199+00801+00801999999ADDGA1041+003961991GA2081+006401991GE19MSL   +99999+99999GF199999041990003961991991MA1102201999990REMMET058METAR EDVE 281650Z 08009KT 9000 SCT013 OVC021 08/08 Q1022=
0142103480999992014032817204+52319+010556FM-15+009099999V0200701N004110061019N008000199+00801+00801999999ADDGA1081+006101991GE19MSL   +99999+99999GF199999081990006101991991MA1102201999990REMMET051METAR EDVE 281720Z 07008KT 8000 OVC020 08/08 Q1022=
0165103480999992014032817504+52319+010556FM-15+009099999V0200801N004610076219N008000199+00801+00801999999ADDGA1041+005791991GA2081+007621991GE19MSL   +99999+99999GF199999041990005791991991MA1102201999990REMMET058METAR EDVE 281750Z 08009KT 8000 SCT019 OVC025 08/08 Q1022=
0192103480999992014032818204+52319+010556FM-15+009099999V0200801N004610070119N008000199+00701+00701999999ADDGA1041+005491991GA2071+007011991GA3081+008531991GE19MSL   +99999+99999GF199999041990005491991991MA1102201999990REMMET069METAR COR EDVE 281820Z 08009KT 8000 SCT018 BKN023 OVC028 07/07 Q1022=
0188103480999992014032818504+52319+010556FM-15+009099999V0200901N004610094519N009000199+00701+00701999999ADDGA1041+002441991GA2071+009451991GA3081+010971991GE19MSL   +99999+99999GF199999041990002441991991MA1102201999990REMMET065METAR EDVE 281850Z 09009KT 9000 SCT008 BKN031 OVC036 07/07 Q1022=
0142103480999992014032819204+52319+010556FM-15+009099999V0200901N004110021319N007000199+00701+00701999999ADDGA1081+002131991GE19MSL   +99999+99999GF199999081990002131991991MA1102201999990REMMET051METAR EDVE 281920Z 09008KT 7000 OVC007 07/07 Q1022=
0142103480999992014032819504+52319+010556FM-15+009099999V0200901N005110018319N007000199+00701+00701999999ADDGA1081+001831991GE19MSL   +99999+99999GF199999081990001831991991MA1102301999990REMMET051METAR EDVE 281950Z 09010KT 7000 OVC006 07/07 Q1023=
0142103480999992014032820204+52319+010556FM-15+009099999V0201001N004610018319N006000199+00701+00701999999ADDGA1081+001831991GE19MSL   +99999+99999GF199999081990001831991991MA1102301999990REMMET051METAR EDVE 282020Z 10009KT 6000 OVC006 07/07 Q1023=
0142103480999992014032820504+52319+010556FM-15+009099999V0200901N004110018319N006000199+00701+00701999999ADDGA1081+001831991GE19MSL   +99999+99999GF199999081990001831991991MA1102301999990REMMET051METAR EDVE 282050Z 09008KT 6000 OVC006 07/07 Q1023=
0151103480999992014032903504+52319+010556FM-15+009099999V0200901N002610021319N002500199+00601+00601999999ADDGA1071+002131991GE19MSL   +99999+99999GF199999071990002131991991MA1102301999990MW1101REMMET054METAR EDVE 290350Z 09005KT 2500 BR BKN007 06/06 Q1023=
0159103480999992014032908504+52319+010556FM-15+009099999V0201001V003119999999N004500199+00901+00901999999ADDGA1041+002131991GE19MSL   +99999+99999GF199999041990002131991991MA1102401999990MW1101REMMET062METAR EDVE 290850Z 10006KT 050V140 4500 BR SCT007 09/09 Q1024=
0072103480999992014032914504+52319+010556FM-15+009099999V0200901N007219999999Y999999999+01701+00401999999ADDMA1102101999990REMMET045METAR EDVE 291450Z 09014KT CAVOK 17/04 Q1021=
0072103480999992014032920504+52319+010556FM-15+009099999V0201001N003119999999Y999999999+00901+00601999999ADDMA1102101999990REMMET045METAR EDVE 292050Z 10006KT CAVOK 09/06 Q1021=
0072103480999992014032921204+52319+010556FM-15+009099999V0200901N003619999999Y999999999+00801+00501999999ADDMA1102101999990REMMET045METAR EDVE 292120Z 09007KT CAVOK 08/05 Q1021=
0072103480999992014032921504+52319+010556FM-15+009099999V0200801N003119999999Y999999999+00901+00601999999ADDMA1102101999990REMMET045METAR EDVE 292150Z 08006KT CAVOK 09/06 Q1021=
0072103480999992014032922204+52319+010556FM-15+009099999V0200801N003119999999Y999999999+00801+00601999999ADDMA1102001999990REMMET045METAR EDVE 292220Z 08006KT CAVOK 08/06 Q1020=
0118103480999992014033008504+52319+010556FM-15+009099999V0200401V002112200019N005000199+01101+01101999999ADDGF100991999999999999999999MA1101801999990MW1101REMMET059METAR EDVE 300850Z 04004KT 360V090 5000 BR NSC 11/11 Q1018=
0109103480999992014033011504+52319+010556FM-15+009099999V0203601V002112200019N008000199+01901+00801999999ADDGF100991999999999999999999MA1101701999990REMMET056METAR EDVE 301150Z 36004KT 300V050 8000 NSC 19/08 Q1017=
0080103480999992014033013504+52319+010556FM-15+009099999V0200901V002119999999Y999999999+02001+00601999999ADDMA1101601999990REMMET053METAR EDVE 301350Z 09004KT 340V150 CAVOK 20/06 Q1016=
0080103480999992014033014204+52319+010556FM-15+009099999V0201201V002619999999Y999999999+01901+00601999999ADDMA1101501999990REMMET053METAR EDVE 301420Z 12005KT 060V170 CAVOK 19/06 Q1015=
0080103480999992014033014504+52319+010556FM-15+009099999V0202001V002119999999Y999999999+02001+00601999999ADDMA1101501999990REMMET053METAR EDVE 301450Z 20004KT 140V240 CAVOK 20/06 Q1015=
0110103480999992014033104504+52319+010556FM-15+009099999V0209999C000012200019N004500199+00601+00601999999ADDGF100991999999999999999999MA1101401999990MW1101REMMET051METAR EDVE 310450Z 00000KT 4500 BR NSC 06/06 Q1014=
0121103480999992014033105204+52319+010556FM-15+009099999V0209999C000012200019N004000199+00601+00601999999ADDGF100991999999999999999999MA1101401999990MW1101MW2111REMMET056METAR EDVE 310520Z 00000KT 4000 BR BCFG NSC 06/06 Q1014=
0121103480999992014033105504+52319+010556FM-15+009099999V0202301N002612200019N003500199+00701+00701999999ADDGF100991999999999999999999MA1101401999990MW1101MW2111REMMET056METAR EDVE 310550Z 23005KT 3500 BR BCFG NSC 07/07 Q1014=
0110103480999992014033106204+52319+010556FM-15+009099999V0209999V001512200019N003000199+00701+00701999999ADDGF100991999999999999999999MA1101501999990MW1101REMMET051METAR EDVE 310620Z VRB03KT 3000 BR NSC 07/07 Q1015=
0110103480999992014033106504+52319+010556FM-15+009099999V0209999C000012200019N003000199+00801+00801999999ADDGF100991999999999999999999MA1101501999990MW1101REMMET051METAR EDVE 310650Z 00000KT 3000 BR NSC 08/08 Q1015=
0151103480999992014033106564+52319+010556FM-16+009099999V0209999V000519999999N002500199+00801+00801999999ADDGA1021+000911991GE19MSL   +99999+99999GF199999021990000911991991MA1101501999990MW1101REMMET054SPECI EDVE 310656Z VRB01KT 2500 BR FEW003 08/08 Q1015=
0151103480999992014033107204+52319+010556FM-15+009099999V0209999V001019999999N002000199+00801+00801999999ADDGA1021+000911991GE19MSL   +99999+99999GF199999021990000911991991MA1101501999990MW1101REMMET054METAR EDVE 310720Z VRB02KT 2000 BR FEW003 08/08 Q1015=
0110103480999992014033107504+52319+010556FM-15+009099999V0209999V001512200019N002000199+00901+00901999999ADDGF100991999999999999999999MA1101501999990MW1101REMMET051METAR EDVE 310750Z VRB03KT 2000 BR NSC 09/09 Q1015=
0110103480999992014033108204+52319+010556FM-15+009099999V0209999V001512200019N002300199+00901+00901999999ADDGF100991999999999999999999MA1101501999990MW1101REMMET051METAR EDVE 310820Z VRB03KT 2300 BR NSC 09/09 Q1015=
0159103480999992014033108504+52319+010556FM-15+009099999V0203201V002119999999N002400199+01001+01001999999ADDGA1021+001521991GE19MSL   +99999+99999GF199999021990001521991991MA1101501999990MW1101REMMET062METAR EDVE 310850Z 32004KT 290V360 2400 BR FEW005 10/10 Q1015=
0118103480999992014033109204+52319+010556FM-15+009099999V0203201V002112200019N002900199+01001+01001999999ADDGF100991999999999999999999MA1101501999990MW1101REMMET059METAR EDVE 310920Z 32004KT 290V350 2900 BR NSC 10/10 Q1015=
0118103480999992014033109504+52319+010556FM-15+009099999V0203101V002112200019N003500199+01101+01101999999ADDGF100991999999999999999999MA1101501999990MW1101REMMET059METAR EDVE 310950Z 31004KT 260V360 3500 BR NSC 11/11 Q1015=
0110103480999992014033110204+52319+010556FM-15+009099999V0209999V001512200019N004500199+01101+01101999999ADDGF100991999999999999999999MA1101501999990MW1101REMMET051METAR EDVE 311020Z VRB03KT 4500 BR NSC 11/11 Q1015=
0101103480999992014033111204+52319+010556FM-15+009099999V0209999V001012200019N006000199+01301+01001999999ADDGF100991999999999999999999MA1101501999990REMMET048METAR EDVE 311120Z VRB02KT 6000 NSC 13/10 Q1015=
0101103480999992014033111504+52319+010556FM-15+009099999V0209999V001512200019N006000199+01401+01001999999ADDGF100991999999999999999999MA1101501999990REMMET048METAR EDVE 311150Z VRB03KT 6000 NSC 14/10 Q1015=
0109103480999992014033112204+52319+010556FM-15+009099999V0202901V002112200019N008000199+01401+00801999999ADDGF100991999999999999999999MA1101501999990REMMET056METAR EDVE 311220Z 29004KT 240V350 8000 NSC 14/08 Q1015=
0101103480999992014033112504+52319+010556FM-15+009099999V0209999V001512200019N008000199+01501+00801999999ADDGF100991999999999999999999MA1101501999990REMMET048METAR EDVE 311250Z VRB03KT 8000 NSC 15/08 Q1015=
0109103480999992014033113204+52319+010556FM-15+009099999V0200501V002112200019N009000199+01501+00801999999ADDGF100991999999999999999999MA1101401999990REMMET056METAR EDVE 311320Z 05004KT 010V090 9000 NSC 15/08 Q1014=
0101103480999992014033113504+52319+010556FM-15+009099999V0209999V001512200019N009000199+01601+00801999999ADDGF100991999999999999999999MA1101401999990REMMET048METAR EDVE 311350Z VRB03KT 9000 NSC 16/08 Q1014=
0109103480999992014033114204+52319+010556FM-15+009099999V0202901V002112200019N009000199+01601+00801999999ADDGF100991999999999999999999MA1101401999990REMMET056METAR EDVE 311420Z 29004KT 220V020 9000 NSC 16/08 Q1014=
0072103480999992014033114504+52319+010556FM-15+009099999V0209999V001019999999Y999999999+01601+00801999999ADDMA1101401999990REMMET045METAR EDVE 311450Z VRB02KT CAVOK 16/08 Q1014=
0072103480999992014033115204+52319+010556FM-15+009099999V0209999C000019999999Y999999999+01601+00901999999ADDMA1101401999990REMMET045METAR EDVE 311520Z 00000KT CAVOK 16/09 Q1014=
0072103480999992014033115504+52319+010556FM-15+009099999V0209999V001019999999Y999999999+01601+00901999999ADDMA1101401999990REMMET045METAR EDVE 311550Z VRB02KT CAVOK 16/09 Q1014=
0072103480999992014033116204+52319+010556FM-15+009099999V0209999C000019999999Y999999999+01501+00901999999ADDMA1101401999990REMMET045METAR EDVE 311620Z 00000KT CAVOK 15/09 Q1014=
0142103480999992014033116504+52319+010556FM-15+009099999V0209999C000019999999N009999199+01501+00901999999ADDGA1021+012801991GE19MSL   +99999+99999GF199999021990012801991991MA1101401999990REMMET051METAR EDVE 311650Z 00000KT 9999 FEW042 15/09 Q1014=
0142103480999992014033117204+52319+010556FM-15+009099999V0209999C000019999999N009999199+01501+00801999999ADDGA1021+012801991GE19MSL   +99999+99999GF199999021990012801991991MA1101401999990REMMET051METAR EDVE 311720Z 00000KT 9999 FEW042 15/08 Q1014=
0142103480999992014033117504+52319+010556FM-15+009099999V0209999C000019999999N009999199+01301+00901999999ADDGA1021+012501991GE19MSL   +99999+99999GF199999021990012501991991MA1101401999990REMMET051METAR EDVE 311750Z 00000KT 9999 FEW041 13/09 Q1014=
0142103480999992014033118204+52319+010556FM-15+009099999V0200501N001510118919N009999199+01301+00801999999ADDGA1071+011891991GE19MSL   +99999+99999GF199999071990011891991991MA1101401999990REMMET051METAR EDVE 311820Z 05003KT 9999 BKN039 13/08 Q1014=
0142103480999992014033118504+52319+010556FM-15+009099999V0200601N002119999999N009000199+01101+00801999999ADDGA1021+011581991GE19MSL   +99999+99999GF199999021990011581991991MA1101401999990REMMET051METAR EDVE 311850Z 06004KT 9000 FEW038 11/08 Q1014=
0101103480999992014033119204+52319+010556FM-15+009099999V0201001N002112200019N009000199+01101+00701999999ADDGF100991999999999999999999MA1101401999990REMMET048METAR EDVE 311920Z 10004KT 9000 NSC 11/07 Q1014=
0110103480999992014040104504+52319+010556FM-15+009099999V0201001N002612200019N003500199+00301+00301999999ADDGF100991999999999999999999MA1101301999990MW1101REMMET051METAR EDVE 010450Z 10005KT 3500 BR NSC 03/03 Q1013=
0110103480999992014040105204+52319+010556FM-15+009099999V0201301N001512200019N004500199+00401+00401999999ADDGF100991999999999999999999MA1101301999990MW1101REMMET051METAR EDVE 010520Z 13003KT 4500 BR NSC 04/04 Q1013=
0110103480999992014040105504+52319+010556FM-15+009099999V0201101N003112200019N005000199+00401+00401999999ADDGF100991999999999999999999MA1101301999990MW1101REMMET051METAR EDVE 010550Z 11006KT 5000 BR NSC 04/04 Q1013=
0101103480999992014040106204+52319+010556FM-15+009099999V0201301N001512200019N006000199+00501+00501999999ADDGF100991999999999999999999MA1101301999990REMMET048METAR EDVE 010620Z 13003KT 6000 NSC 05/05 Q1013=
0101103480999992014040106504+52319+010556FM-15+009099999V0209999C000012200019N006000199+00701+00701999999ADDGF100991999999999999999999MA1101301999990REMMET048METAR EDVE 010650Z 00000KT 6000 NSC 07/07 Q1013=
0101103480999992014040107204+52319+010556FM-15+009099999V0209999C000012200019N007000199+00801+00801999999ADDGF100991999999999999999999MA1101301999990REMMET048METAR EDVE 010720Z 00000KT 7000 NSC 08/08 Q1013=
0101103480999992014040107504+52319+010556FM-15+009099999V0209999C000012200019N008000199+00901+00901999999ADDGF100991999999999999999999MA1101301999990REMMET048METAR EDVE 010750Z 00000KT 8000 NSC 09/09 Q1013=
0101103480999992014040108204+52319+010556FM-15+009099999V0209999C000012200019N008000199+01101+00801999999ADDGF100991999999999999999999MA1101301999990REMMET048METAR EDVE 010820Z 00000KT 8000 NSC 11/08 Q1013=
0101103480999992014040108504+52319+010556FM-15+009099999V0201001N002112200019N008000199+01101+00901999999ADDGF100991999999999999999999MA1101301999990REMMET048METAR EDVE 010850Z 10004KT 8000 NSC 11/09 Q1013=
0101103480999992014040109204+52319+010556FM-15+009099999V0200901N002112200019N008000199+01201+00901999999ADDGF100991999999999999999999MA1101301999990REMMET048METAR EDVE 010920Z 09004KT 8000 NSC 12/09 Q1013=
0109103480999992014040109504+52319+010556FM-15+009099999V0201201V002612200019N008000199+01501+01101999999ADDGF100991999999999999999999MA1101301999990REMMET056METAR EDVE 010950Z 12005KT 080V160 8000 NSC 15/11 Q1013=
0109103480999992014040110204+52319+010556FM-15+009099999V0201201V003612200019N008000199+01501+01001999999ADDGF100991999999999999999999MA1101301999990REMMET056METAR EDVE 011020Z 12007KT 080V180 8000 NSC 15/10 Q1013=
0109103480999992014040110504+52319+010556FM-15+009099999V0201501V002612200019N008000199+01501+00901999999ADDGF100991999999999999999999MA1101301999990REMMET056METAR EDVE 011050Z 15005KT 110V170 8000 NSC 15/09 Q1013=
0109103480999992014040111204+52319+010556FM-15+009099999V0201201V003612200019N008000199+01701+00901999999ADDGF100991999999999999999999MA1101201999990REMMET056METAR EDVE 011120Z 12007KT 090V150 8000 NSC 17/09 Q1012=
0114103480999992014040111504+52319+010556FM-15+009099999V0209999N999999999999N999999999+01701+00901999999ADDMA1101201999990REMMET068METAR COR EDVE 011150Z 011150Z 10007KT 070V140 9000 NSC 17/09 Q1012=EQDD01      0ADE693
0109103480999992014040112204+52319+010556FM-15+009099999V0201001V003612200019N009000199+01701+00901999999ADDGF100991999999999999999999MA1101201999990REMMET056METAR EDVE 011220Z 10007KT 070V140 9000 NSC 17/09 Q1012=
0109103480999992014040112504+52319+010556FM-15+009099999V0201001V004112200019N009000199+01801+00801999999ADDGF100991999999999999999999MA1101201999990REMMET056METAR EDVE 011250Z 10008KT 060V140 9000 NSC 18/08 Q1012=
0080103480999992014040113204+52319+010556FM-15+009099999V0200901V003119999999Y999999999+01801+00801999999ADDMA1101101999990REMMET053METAR EDVE 011320Z 09006KT 050V130 CAVOK 18/08 Q1011=
0080103480999992014040113504+52319+010556FM-15+009099999V0201101V003119999999Y999999999+01801+00601999999ADDMA1101201999990REMMET053METAR EDVE 011350Z 11006KT 080V140 CAVOK 18/06 Q1012=
0072103480999992014040114204+52319+010556FM-15+009099999V0201101N004619999999Y999999999+01701+00701999999ADDMA1101101999990REMMET045METAR EDVE 011420Z 11009KT CAVOK 17/07 Q1011=
0072103480999992014040114504+52319+010556FM-15+009099999V0201001N004619999999Y999999999+01701+00701999999ADDMA1101101999990REMMET045METAR EDVE 011450Z 10009KT CAVOK 17/07 Q1011=
0072103480999992014040115204+52319+010556FM-15+009099999V0201001N004119999999Y999999999+01701+00701999999ADDMA1101101999990REMMET045METAR EDVE 011520Z 10008KT CAVOK 17/07 Q1011=
0072103480999992014040115504+52319+010556FM-15+009099999V0201001N004619999999Y999999999+01701+00801999999ADDMA1101101999990REMMET045METAR EDVE 011550Z 10009KT CAVOK 17/08 Q1011=
0072103480999992014040116204+52319+010556FM-15+009099999V0201001N004619999999Y999999999+01601+00801999999ADDMA1101101999990REMMET045METAR EDVE 011620Z 10009KT CAVOK 16/08 Q1011=
0072103480999992014040116504+52319+010556FM-15+009099999V0200901N003619999999Y999999999+01601+00801999999ADDMA1101101999990REMMET045METAR EDVE 011650Z 09007KT CAVOK 16/08 Q1011=
0101103480999992014040117204+52319+010556FM-15+009099999V0200901N004612200019N009000199+01501+00801999999ADDGF100991999999999999999999MA1101101999990REMMET048METAR EDVE 011720Z 09009KT 9000 NSC 15/08 Q1011=
0101103480999992014040118204+52319+010556FM-15+009099999V0200801N004112200019N008000199+01401+00801999999ADDGF100991999999999999999999MA1101101999990REMMET048METAR EDVE 011820Z 08008KT 8000 NSC 14/08 Q1011=
0101103480999992014040204504+52319+010556FM-15+009099999V0200801N002112200019N006000199+00601+00601999999ADDGF100991999999999999999999MA1101001999990REMMET048METAR EDVE 020450Z 08004KT 6000 NSC 06/06 Q1010=
0101103480999992014040205144+52319+010556FM-16+009099999V0200701N001512200019N006000199+00601+00601999999ADDGF100991999999999999999999MA1101001999990REMMET048SPECI EDVE 020514Z 07003KT 6000 NSC 06/06 Q1010=
0101103480999992014040205204+52319+010556FM-15+009099999V0200601N001012200019N006000199+00701+00701999999ADDGF100991999999999999999999MA1101001999990REMMET048METAR EDVE 020520Z 06002KT 6000 NSC 07/07 Q1010=
0101103480999992014040205504+52319+010556FM-15+009099999V0200801N001512200019N007000199+00601+00601999999ADDGF100991999999999999999999MA1101001999990REMMET048METAR EDVE 020550Z 08003KT 7000 NSC 06/06 Q1010=
0101103480999992014040206204+52319+010556FM-15+009099999V0200901N003112200019N006000199+00801+00801999999ADDGF100991999999999999999999MA1101001999990REMMET048METAR EDVE 020620Z 09006KT 6000 NSC 08/08 Q1010=
0101103480999992014040206504+52319+010556FM-15+009099999V0200901N002112200019N007000199+00901+00901999999ADDGF100991999999999999999999MA1101001999990REMMET048METAR EDVE 020650Z 09004KT 7000 NSC 09/09 Q1010=
0142103480999992014040207204+52319+010556FM-15+009099999V0200901N002119999999N009000199+01101+00901999999ADDGA1021+003351991GE19MSL   +99999+99999GF199999021990003351991991MA1101001999990REMMET051METAR EDVE 020720Z 09004KT 9000 FEW011 11/09 Q1010=
0072103480999992014040208204+52319+010556FM-15+009099999V0200801N002119999999Y999999999+01301+00801999999ADDMA1100901999990REMMET045METAR EDVE 020820Z 08004KT CAVOK 13/08 Q1009=
0080103480999992014040208504+52319+010556FM-15+009099999V0200801V002619999999Y999999999+01401+00701999999ADDMA1100901999990REMMET053METAR EDVE 020850Z 08005KT 050V110 CAVOK 14/07 Q1009=
0072103480999992014040209204+52319+010556FM-15+009099999V0201001N003119999999Y999999999+01501+00901999999ADDMA1100901999990REMMET045METAR EDVE 020920Z 10006KT CAVOK 15/09 Q1009=
0072103480999992014040209504+52319+010556FM-15+009099999V0200901N003619999999Y999999999+01601+00901999999ADDMA1100901999990REMMET045METAR EDVE 020950Z 09007KT CAVOK 16/09 Q1009=
0080103480999992014040210204+52319+010556FM-15+009099999V0201401V003619999999Y999999999+01801+00701999999ADDMA1100801999990REMMET053METAR EDVE 021020Z 14007KT 110V180 CAVOK 18/07 Q1008=
0080103480999992014040210504+52319+010556FM-15+009099999V0201301V002619999999Y999999999+01901+00901999999ADDMA1100801999990REMMET053METAR EDVE 021050Z 13005KT 080V190 CAVOK 19/09 Q1008=
0080103480999992014040211204+52319+010556FM-15+009099999V0201301V002619999999Y999999999+01901+00701999999ADDMA1100801999990REMMET053METAR EDVE 021120Z 13005KT 110V190 CAVOK 19/07 Q1008=
0080103480999992014040211504+52319+010556FM-15+009099999V0201701V002619999999Y999999999+01901+00701999999ADDMA1100801999990REMMET053METAR EDVE 021150Z 17005KT 130V240 CAVOK 19/07 Q1008=
0080103480999992014040212504+52319+010556FM-15+009099999V0201601V002119999999Y999999999+02001+00901999999ADDMA1100701999990REMMET053METAR EDVE 021250Z 16004KT 120V200 CAVOK 20/09 Q1007=
0109103480999992014040213204+52319+010556FM-15+009099999V0201701V002112200019N008000199+02001+00801999999ADDGF100991999999999999999999MA1100701999990REMMET056METAR EDVE 021320Z 17004KT 130V220 8000 NSC 20/08 Q1007=
0101103480999992014040214204+52319+010556FM-15+009099999V0209999V001512200019N008000199+02101+01001999999ADDGF100991999999999999999999MA1100601999990REMMET048METAR EDVE 021420Z VRB03KT 8000 NSC 21/10 Q1006=
0109103480999992014040215204+52319+010556FM-15+009099999V0201001V002112200019N008000199+02101+00901999999ADDGF100991999999999999999999MA1100601999990REMMET056METAR EDVE 021520Z 10004KT 040V130 8000 NSC 21/09 Q1006=
0101103480999992014040216204+52319+010556FM-15+009099999V0201201N002612200019N008000199+02001+00901999999ADDGF100991999999999999999999MA1100601999990REMMET048METAR EDVE 021620Z 12005KT 8000 NSC 20/09 Q1006=
0105103480999992014040216504+52319+010556FM-15+009099999V0201001N002612200019N008000199+01901+00901999999ADDGF100991999999999999999999MA1100501999990REMMET052METAR COR EDVE 021650Z 10005KT 8000 NSC 19/09 Q1005=
0101103480999992014040217204+52319+010556FM-15+009099999V0200901N002612200019N008000199+01801+00901999999ADDGF100991999999999999999999MA1100501999990REMMET048METAR EDVE 021720Z 09005KT 8000 NSC 18/09 Q1005=
0101103480999992014040217504+52319+010556FM-15+009099999V0200901N002612200019N008000199+01801+00901999999ADDGF100991999999999999999999MA1100501999990REMMET048METAR EDVE 021750Z 09005KT 8000 NSC 18/09 Q1005=
0101103480999992014040218204+52319+010556FM-15+009099999V0201001N002612200019N008000199+01601+01001999999ADDGF100991999999999999999999MA1100501999990REMMET048METAR EDVE 021820Z 10005KT 8000 NSC 16/10 Q1005=
0072103480999992014040218504+52319+010556FM-15+009099999V0201001N003119999999Y999999999+01501+01001999999ADDMA1100501999990REMMET045METAR EDVE 021850Z 10006KT CAVOK 15/10 Q1005=
0101103480999992014040219204+52319+010556FM-15+009099999V0201001N003112200019N008000199+01301+01101999999ADDGF100991999999999999999999MA1100501999990REMMET048METAR EDVE 021920Z 10006KT 8000 NSC 13/11 Q1005=
0101103480999992014040219504+52319+010556FM-15+009099999V0201101N002612200019N007000199+01301+01101999999ADDGF100991999999999999999999MA1100501999990REMMET048METAR EDVE 021950Z 11005KT 7000 NSC 13/11 Q1005=
0142103480999992014040304504+52319+010556FM-15+009099999V0209999C000019999999N006000199+00601+00601999999ADDGA1021+003961991GE19MSL   +99999+99999GF199999021990003961991991MA1100401999990REMMET051METAR EDVE 030450Z 00000KT 6000 FEW013 06/06 Q1004=
0101103480999992014040305204+52319+010556FM-15+009099999V0209999V001012200019N006000199+00501+00501999999ADDGF100991999999999999999999MA1100401999990REMMET048METAR EDVE 030520Z VRB02KT 6000 NSC 05/05 Q1004=
0101103480999992014040305504+52319+010556FM-15+009099999V0209999C000012200019N007000199+00701+00701999999ADDGF100991999999999999999999MA1100401999990REMMET048METAR EDVE 030550Z 00000KT 7000 NSC 07/07 Q1004=
0101103480999992014040306204+52319+010556FM-15+009099999V0201301N002112200019N009000199+00701+00701999999ADDGF100991999999999999999999MA1100401999990REMMET048METAR EDVE 030620Z 13004KT 9000 NSC 07/07 Q1004=
0101103480999992014040306504+52319+010556FM-15+009099999V0201101N001512200019N006000199+01001+01001999999ADDGF100991999999999999999999MA1100401999990REMMET048METAR EDVE 030650Z 11003KT 6000 NSC 10/10 Q1004=
0101103480999992014040307204+52319+010556FM-15+009099999V0209999V001512200019N008000199+01201+01101999999ADDGF100991999999999999999999MA1100401999990REMMET048METAR EDVE 030720Z VRB03KT 8000 NSC 12/11 Q1004=
0072103480999992014040307504+52319+010556FM-15+009099999V0209999C000019999999Y999999999+01401+01101999999ADDMA1100401999990REMMET045METAR EDVE 030750Z 00000KT CAVOK 14/11 Q1004=
0080103480999992014040308204+52319+010556FM-15+009099999V0200401V002119999999Y999999999+01701+00901999999ADDMA1100401999990REMMET053METAR EDVE 030820Z 04004KT 330V090 CAVOK 17/09 Q1004=
0080103480999992014040308504+52319+010556FM-15+009099999V0200501V002119999999Y999999999+01601+00901999999ADDMA1100501999990REMMET053METAR EDVE 030850Z 05004KT 330V100 CAVOK 16/09 Q1005=
0072103480999992014040309204+52319+010556FM-15+009099999V0209999V001519999999Y999999999+01701+01001999999ADDMA1100501999990REMMET045METAR EDVE 030920Z VRB03KT CAVOK 17/10 Q1005=
0072103480999992014040309504+52319+010556FM-15+009099999V0209999V001519999999Y999999999+01901+01001999999ADDMA1100501999990REMMET045METAR EDVE 030950Z VRB03KT CAVOK 19/10 Q1005=
0072103480999992014040310204+52319+010556FM-15+009099999V0209999V001019999999Y999999999+01901+00901999999ADDMA1100501999990REMMET045METAR EDVE 031020Z VRB02KT CAVOK 19/09 Q1005=
0072103480999992014040310504+52319+010556FM-15+009099999V0209999V001519999999Y999999999+02001+00901999999ADDMA1100501999990REMMET045METAR EDVE 031050Z VRB03KT CAVOK 20/09 Q1005=
0072103480999992014040311204+52319+010556FM-15+009099999V0209999V002619999999Y999999999+02001+00801999999ADDMA1100401999990REMMET045METAR EDVE 031120Z VRB05KT CAVOK 20/08 Q1004=
0080103480999992014040311504+52319+010556FM-15+009099999V0200301V002619999999Y999999999+02101+00901999999ADDMA1100401999990REMMET053METAR EDVE 031150Z 03005KT 300V070 CAVOK 21/09 Q1004=
0072103480999992014040312204+52319+010556FM-15+009099999V0209999V002119999999Y999999999+02101+01001999999ADDMA1100401999990REMMET045METAR EDVE 031220Z VRB04KT CAVOK 21/10 Q1004=
0080103480999992014040312504+52319+010556FM-15+009099999V0200501V003119999999Y999999999+02201+00901999999ADDMA1100401999990REMMET053METAR EDVE 031250Z 05006KT 010V100 CAVOK 22/09 Q1004=
0080103480999992014040313204+52319+010556FM-15+009099999V0200301V002619999999Y999999999+02201+01001999999ADDMA1100401999990REMMET053METAR EDVE 031320Z 03005KT 340V070 CAVOK 22/10 Q1004=
0072103480999992014040313504+52319+010556FM-15+009099999V0209999V002119999999Y999999999+02201+00801999999ADDMA1100401999990REMMET045METAR EDVE 031350Z VRB04KT CAVOK 22/08 Q1004=
0080103480999992014040314204+52319+010556FM-15+009099999V0200401V002619999999Y999999999+02201+00801999999ADDMA1100401999990REMMET053METAR EDVE 031420Z 04005KT 360V090 CAVOK 22/08 Q1004=
0080103480999992014040314504+52319+010556FM-15+009099999V0200301V002619999999Y999999999+02201+00901999999ADDMA1100401999990REMMET053METAR EDVE 031450Z 03005KT 330V070 CAVOK 22/09 Q1004=
0080103480999992014040315204+52319+010556FM-15+009099999V0200601V002619999999Y999999999+02201+01001999999ADDMA1100401999990REMMET053METAR EDVE 031520Z 06005KT 030V100 CAVOK 22/10 Q1004=
0080103480999992014040315504+52319+010556FM-15+009099999V0200401V004119999999Y999999999+02101+01001999999ADDMA1100401999990REMMET053METAR EDVE 031550Z 04008KT 010V070 CAVOK 21/10 Q1004=
0080103480999992014040316204+52319+010556FM-15+009099999V0200701V003619999999Y999999999+02001+00901999999ADDMA1100401999990REMMET053METAR EDVE 031620Z 07007KT 040V100 CAVOK 20/09 Q1004=
0145103480999992014040316504+52319+010556FM-15+009099999V0200701N004619999999N009999199+02001+00901999999ADDGA1041+012191081GE19MSL   +99999+99999GF199999041990012191991991MA1100401999990REMMET054METAR EDVE 031650Z 07009KT 9999 SCT040TCU 20/09 Q1004=
0155103480999992014040317204+52319+010556FM-15+009099999V0200701N004619999999N008000199+01901+00901999999ADDGA1041+028651091GE19MSL   +99999+99999GF199999041990028651991991MA1100401999990MW1131REMMET058METAR EDVE 031720Z 07009KT 8000 VCTS SCT094CB 19/09 Q1004=
0191103480999992014040317504+52319+010556FM-15+009099999V0201901V006710225619N007000199+01801+01001999999ADDGA1041+015851091GA2071+022561991GE19MSL   +99999+99999GF199999041990015851991991MA1100501999990MW1951REMMET078METAR EDVE 031750Z 19013KT 140V220 7000 TSRA SCT052CB BKN074 18/10      Q1005=
0201103480999992014040318204+52319+010556FM-15+009099999V0201301N005110179819N009999199+01401+01101999999ADDGA1021+015541091GA2071+017981991GA3081+027741991GE19MSL   +99999+99999GF199999021990015541991991MA1100501999990MW1951REMMET072METAR EDVE 031820Z 13010KT 9999 TSRA FEW051CB BKN059 OVC091 14/11 Q1005=
0211103480999992014040318504+52319+010556FM-15+009099999V0200901N003610304819N009999199+01501+01201999999ADDGA1021+027131091GA2071+030481991GA3071+070101991GE19MSL   +99999+99999GF199999021990027131991991MA1100501999990MW1131REMMET082METAR EDVE 031850Z 09007KT 9999 VCTS FEW089CB BKN100 BKN230 15/12 Q1005      RETS=
0077103480999992014040319204+52319+010556FM-15+009099999V0209999V001519999999Y999999999+01401+01301999999ADDMA1100501999990REMMET050METAR EDVE 031920Z VRB03KT CAVOK 14/13 Q1005 RERA=
0072103480999992014040319504+52319+010556FM-15+009099999V0209999V001519999999Y999999999+01301+01301999999ADDMA1100501999990REMMET045METAR EDVE 031950Z VRB03KT CAVOK 13/13 Q1005=
0101103480999992014040404504+52319+010556FM-15+009099999V0200901N003612200019N006000199+00901+00901999999ADDGF100991999999999999999999MA1100801999990REMMET048METAR EDVE 040450Z 09007KT 6000 NSC 09/09 Q1008=
0110103480999992014040405204+52319+010556FM-15+009099999V0201001N004112200019N005000199+00801+00801999999ADDGF100991999999999999999999MA1100801999990MW1101REMMET051METAR EDVE 040520Z 10008KT 5000 BR NSC 08/08 Q1008=
0114103480999992014040405504+52319+010556FM-15+009099999V0200901N004112200019N004900199+00801+00801999999ADDGF100991999999999999999999MA1100801999990MW1101REMMET055METAR COR EDVE 040550Z 09008KT 4900 BR NSC 08/08 Q1008=
0120103480999992014040406204+52319+010556FM-15+009099999V0200901N005112200019N004300199+00801+00801999999ADDGF100991999999999999999999MA1100801999990MW1101MW2611REMMET055METAR EDVE 040620Z 09010KT 4300 -RA BR NSC 08/08 Q1008=
0110103480999992014040406504+52319+010556FM-15+009099999V0200901N004112200019N004700199+00901+00901999999ADDGF100991999999999999999999MA1100901999990MW1101REMMET051METAR EDVE 040650Z 09008KT 4700 BR NSC 09/09 Q1009=
0110103480999992014040407204+52319+010556FM-15+009099999V0200801N003612200019N005000199+00901+00901999999ADDGF100991999999999999999999MA1100901999990MW1101REMMET051METAR EDVE 040720Z 08007KT 5000 BR NSC 09/09 Q1009=
0168103480999992014040407504+52319+010556FM-15+009099999V0200901V003619999999N004200199+00901+00901999999ADDGA1021+003051991GE19MSL   +99999+99999GF199999021990003051991991MA1100901999990MW1101MW2631REMMET065METAR EDVE 040750Z 09007KT 050V110 4200 RA BR FEW010 09/09 Q1009=
0120103480999992014040408204+52319+010556FM-15+009099999V0200901N004612200019N003900199+00901+00901999999ADDGF100991999999999999999999MA1100901999990MW1101MW2611REMMET055METAR EDVE 040820Z 09009KT 3900 -RA BR NSC 09/09 Q1009=
0119103480999992014040408504+52319+010556FM-15+009099999V0200901N005712200019N003700199+00901+00901999999ADDGF100991999999999999999999MA1100901999990MW1101MW2631REMMET054METAR EDVE 040850Z 09011KT 3700 RA BR NSC 09/09 Q1009=
0183103480999992014040409204+52319+010556FM-15+009099999V0200901N005710204219N003500199+00901+00901999999ADDGA1021+007321991GA2081+020421991GE19MSL   +99999+99999GF199999021990007321991991MA1101001999990MW1101MW2531REMMET064METAR EDVE 040920Z 09011KT 3500 DZ BR FEW024 OVC067 09/09 Q1010=
0206103480999992014040409504+52319+010556FM-15+009099999V0200901N00571015541CN003600199+00901+00901999999ADDGA1041+001831991GA2041+015541991GA3081+020731991GE19MSL   +99999+99999GF199999041990001831991991MA1101001999990MW1101MW2531REMMET071METAR EDVE 040950Z 09011KT 3600 DZ BR SCT006 SCT051 OVC068 09/09 Q1010=
0174103480999992014040410204+52319+010556FM-15+009099999V0200901N005710225619N004600199+01001+01001999999ADDGA1041+001831991GA2071+022561991GE19MSL   +99999+99999GF199999041990001831991991MA1101001999990MW1101REMMET061METAR EDVE 041020Z 09011KT 4600 BR SCT006 BKN074 10/10 Q1010=
0174103480999992014040410504+52319+010556FM-15+009099999V0200901N006210237719N004400199+01001+01001999999ADDGA1041+001831991GA2071+023771991GE19MSL   +99999+99999GF199999041990001831991991MA1101001999990MW1101REMMET061METAR EDVE 041050Z 09012KT 4400 BR SCT006 BKN078 10/10 Q1010=
0174103480999992014040411204+52319+010556FM-15+009099999V0201101N005710243819N004800199+01101+01101999999ADDGA1041+002131991GA2071+024381991GE19MSL   +99999+99999GF199999041990002131991991MA1101001999990MW1101REMMET061METAR EDVE 041120Z 11011KT 4800 BR SCT007 BKN080 11/11 Q1010=
0178103480999992014040411504+52319+010556FM-15+009099999V0201101N006210243819N004500199+01101+01101999999ADDGA1021+002131991GA2071+024381991GE19MSL   +99999+99999GF199999021990002131991991MA1101001999990MW1101REMMET065METAR COR EDVE 041150Z 11012KT 4500 BR FEW007 BKN080 11/11 Q1010=
0110103480999992014040412204+52319+010556FM-15+009099999V0201101N004612200019N004600199+01101+01101999999ADDGF100991999999999999999999MA1101001999990MW1101REMMET051METAR EDVE 041220Z 11009KT 4600 BR NSC 11/11 Q1010=
0110103480999992014040412504+52319+010556FM-15+009099999V0201101N003612200019N004700199+01101+01101999999ADDGF100991999999999999999999MA1101001999990MW1101REMMET051METAR EDVE 041250Z 11007KT 4700 BR NSC 11/11 Q1010=
0174103480999992014040413204+52319+010556FM-15+009099999V0200901N003610237719N004600199+01201+01201999999ADDGA1021+002741991GA2071+023771991GE19MSL   +99999+99999GF199999021990002741991991MA1101001999990MW1101REMMET061METAR EDVE 041320Z 09007KT 4600 BR FEW009 BKN078 12/12 Q1010=
0174103480999992014040413504+52319+010556FM-15+009099999V0200801N003610234719N004600199+01101+01101999999ADDGA1021+003051991GA2071+023471991GE19MSL   +99999+99999GF199999021990003051991991MA1101001999990MW1101REMMET061METAR EDVE 041350Z 08007KT 4600 BR FEW010 BKN077 11/11 Q1010=
0197103480999992014040414204+52319+010556FM-15+009099999V0200901N004610237719N004900199+01101+01101999999ADDGA1041+003051991GA2071+023771991GA3071+026821991GE19MSL   +99999+99999GF199999041990003051991991MA1101001999990MW1101REMMET068METAR EDVE 041420Z 09009KT 4900 BR SCT010 BKN078 BKN088 11/11 Q1010=
0207103480999992014040414504+52319+010556FM-15+009099999V0200801N004610033519N004500199+01101+01101999999ADDGA1021+002741991GA2071+003351991GA3071+024691991GE19MSL   +99999+99999GF199999021990002741991991MA1101001999990MW1101MW2611REMMET072METAR EDVE 041450Z 08009KT 4500 -RA BR FEW009 BKN011 BKN081 11/11 Q1010=
0151103480999992014040415204+52319+010556FM-15+009099999V0200901N004610027419N004500199+01101+01101999999ADDGA1071+002741991GE19MSL   +99999+99999GF199999071990002741991991MA1101001999990MW1101REMMET054METAR EDVE 041520Z 09009KT 4500 BR BKN009 11/11 Q1010=
0197103480999992014040415504+52319+010556FM-15+009099999V0200901N004610024419N004500199+01101+01101999999ADDGA1071+002441991GA2071+025301991GA3071+039621991GE19MSL   +99999+99999GF199999071990002441991991MA1101001999990MW1101REMMET068METAR EDVE 041550Z 09009KT 4500 BR BKN008 BKN083 BKN130 11/11 Q1010=
0151103480999992014040416204+52319+010556FM-15+009099999V0200801N004110021319N004600199+01001+01001999999ADDGA1071+002131991GE19MSL   +99999+99999GF199999071990002131991991MA1101101999990MW1101REMMET054METAR EDVE 041620Z 08008KT 4600 BR BKN007 10/10 Q1011=
0151103480999992014040416504+52319+010556FM-15+009099999V0200801N004110018319N004000199+01001+01001999999ADDGA1081+001831991GE19MSL   +99999+99999GF199999081990001831991991MA1101101999990MW1101REMMET054METAR EDVE 041650Z 08008KT 4000 BR OVC006 10/10 Q1011=
0159103480999992014040417204+52319+010556FM-15+009099999V0200801V004610018319N004000199+01001+01001999999ADDGA1081+001831991GE19MSL   +99999+99999GF199999081990001831991991MA1101101999990MW1101REMMET062METAR EDVE 041720Z 08009KT 040V100 4000 BR OVC006 10/10 Q1011=
0151103480999992014040417504+52319+010556FM-15+009099999V0200901N004610021319N004500199+01001+01001999999ADDGA1081+002131991GE19MSL   +99999+99999GF199999081990002131991991MA1101101999990MW1101REMMET054METAR EDVE 041750Z 09009KT 4500 BR OVC007 10/10 Q1011=
0151103480999992014040418204+52319+010556FM-15+009099999V0200901N004610021319N004500199+00901+00901999999ADDGA1071+002131991GE19MSL   +99999+99999GF199999071990002131991991MA1101101999990MW1101REMMET054METAR EDVE 041820Z 09009KT 4500 BR BKN007 09/09 Q1011=
0151103480999992014040418504+52319+010556FM-15+009099999V0200901N004119999999N004500199+00901+00901999999ADDGA1021+002131991GE19MSL   +99999+99999GF199999021990002131991991MA1101101999990MW1101REMMET054METAR EDVE 041850Z 09008KT 4500 BR FEW007 09/09 Q1011=
0114103480999992014040419204+52319+010556FM-15+009099999V0200801N003612200019N005000199+00901+00901999999ADDGF100991999999999999999999MA1101201999990MW1101REMMET055METAR COR EDVE 041920Z 08007KT 5000 BR NSC 09/09 Q1012=
0114103480999992014040419504+52319+010556FM-15+009099999V0200801N004112200019N005000199+00901+00901999999ADDGF100991999999999999999999MA1101201999990MW1101REMMET055METAR COR EDVE 041950Z 08008KT 5000 BR NSC 09/09 Q1012=
0110103480999992014040504504+52319+010556FM-15+009099999V0200901N004112200019N004000199+00701+00701999999ADDGF100991999999999999999999MA1101201999990MW1101REMMET051METAR EDVE 050450Z 09008KT 4000 BR NSC 07/07 Q1012=
0101103480999992014040506504+52319+010556FM-15+009099999V0200901N002612200019N009000199+00801+00801999999ADDGF100991999999999999999999MA1101301999990REMMET048METAR EDVE 050650Z 09005KT 9000 NSC 08/08 Q1013=
0072103480999992014040509504+52319+010556FM-15+009099999V0209999V001019999999Y999999999+01101+00901999999ADDMA1101401999990REMMET045METAR EDVE 050950Z VRB02KT CAVOK 11/09 Q1014=
0072103480999992014040511504+52319+010556FM-15+009099999V0209999V001519999999Y999999999+01301+00901999999ADDMA1101501999990REMMET045METAR EDVE 051150Z VRB03KT CAVOK 13/09 Q1015=
0201103480999992014040514504+52319+010556FM-15+009099999V0200301V002610189019N009999199+01401+01001999999ADDGA1021+014021991GA2071+018901991GA3071+021031991GE19MSL   +99999+99999GF199999021990014021991991MA1101501999990REMMET078METAR EDVE 051450Z 03005KT 360V060 9999 FEW046 BKN062 BKN069 14/10      Q1015=
0128103480999992014040606204+52319+010556FM-15+009099999V0201501N001519999999N000350199+00901+00901999999ADDGF109991999999999999999999MA1101801999990MW1441REMMET069METAR EDVE 060620Z 15003KT 0350 0150W R26/0225N FG VV/// 09/09 Q1018=
0177103480999992014040606504+52319+010556FM-15+009099999V0201801N001510006119N000700199+01001+01001999999ADDGA1081+000611991GE19MSL   +99999+99999GF199999081990000611991991MA1101701999990MW1441REMMET080METAR EDVE 060650Z 18003KT 0700 0450W R26/0800V1000U FG OVC002 10/10      Q1017=
0142103480999992014040609504+52319+010556FM-15+009099999V0202301N004619999999N007000199+01601+01201999999ADDGA1021+007621991GE19MSL   +99999+99999GF199999021990007621991991MA1101701999990REMMET051METAR EDVE 060950Z 23009KT 7000 FEW025 16/12 Q1017=
0150103480999992014040611504+52319+010556FM-15+009099999V0202401V004119999999N009999199+01801+00801999999ADDGA1021+011891991GE19MSL   +99999+99999GF199999021990011891991991MA1101701999990REMMET059METAR EDVE 061150Z 24008KT 190V290 9999 FEW039 18/08 Q1017=
0150103480999992014040613204+52319+010556FM-15+009099999V0202601V004619999999N009999199+01801+00901999999ADDGA1041+012501991GE19MSL   +99999+99999GF199999041990012501991991MA1101701999990REMMET059METAR EDVE 061320Z 26009KT 230V310 9999 SCT041 18/09 Q1017=
0150103480999992014040614204+52319+010556FM-15+009099999V0202401V004619999999N009999199+01901+00901999999ADDGA1041+013721991GE19MSL   +99999+99999GF199999041990013721991991MA1101601999990REMMET059METAR EDVE 061420Z 24009KT 210V270 9999 SCT045 19/09 Q1016=
0080103480999992014040617204+52319+010556FM-15+009099999V0202601V002619999999Y999999999+01601+01001999999ADDMA1101601999990REMMET053METAR EDVE 061720Z 26005KT 240V300 CAVOK 16/10 Q1016=
0080103480999992014040617504+52319+010556FM-15+009099999V0202701V002619999999Y999999999+01601+01001999999ADDMA1101601999990REMMET053METAR EDVE 061750Z 27005KT 230V300 CAVOK 16/10 Q1016=
0142103480999992014040704504+52319+010556FM-15+009099999V0202201N003610131119N009999199+01401+01301999999ADDGA1071+013111991GE19MSL   +99999+99999GF199999071990013111991991MA1101701999990REMMET051METAR EDVE 070450Z 22007KT 9999 BKN043 14/13 Q1017=
0188103480999992014040705204+52319+010556FM-15+009099999V0202201N003110140219N009999199+01401+01301999999ADDGA1071+014021991GA2071+016461991GA3071+028351991GE19MSL   +99999+99999GF199999071990014021991991MA1101701999990REMMET065METAR EDVE 070520Z 22006KT 9999 BKN046 BKN054 BKN093 14/13 Q1017=
0188103480999992014040705504+52319+010556FM-15+009099999V0202201N003110170719N009999199+01501+01301999999ADDGA1041+014021991GA2071+017071991GA3071+027741991GE19MSL   +99999+99999GF199999041990014021991991MA1101701999990REMMET065METAR EDVE 070550Z 22006KT 9999 SCT046 BKN056 BKN091 15/13 Q1017=
0072103480999992014040706204+52319+010556FM-15+009099999V0202201N003619999999Y999999999+01501+01301999999ADDMA1101701999990REMMET045METAR EDVE 070620Z 22007KT CAVOK 15/13 Q1017=
0165103480999992014040706504+52319+010556FM-15+009099999V0202401N004110143319N009999199+01501+01301999999ADDGA1071+014331991GA2081+025301991GE19MSL   +99999+99999GF199999071990014331991991MA1101701999990REMMET058METAR EDVE 070650Z 24008KT 9999 BKN047 OVC083 15/13 Q1017=
0165103480999992014040707204+52319+010556FM-15+009099999V0202301N003110176819N009999199+01501+01301999999ADDGA1021+014941991GA2071+017681991GE19MSL   +99999+99999GF199999021990014941991991MA1101701999990REMMET058METAR EDVE 070720Z 23006KT 9999 FEW049 BKN058 15/13 Q1017=
0072103480999992014040707504+52319+010556FM-15+009099999V0202301N004619999999Y999999999+01601+01401999999ADDMA1101701999990REMMET045METAR EDVE 070750Z 23009KT CAVOK 16/14 Q1017=
0072103480999992014040708204+52319+010556FM-15+009099999V0202301N004119999999Y999999999+01601+01401999999ADDMA1101701999990REMMET045METAR EDVE 070820Z 23008KT CAVOK 16/14 Q1017=
0072103480999992014040708504+52319+010556FM-15+009099999V0202301N005119999999Y999999999+01701+01301999999ADDMA1101701999990REMMET045METAR EDVE 070850Z 23010KT CAVOK 17/13 Q1017=
0072103480999992014040709204+52319+010556FM-15+009099999V0202401N004619999999Y999999999+01701+01301999999ADDMA1101701999990REMMET045METAR EDVE 070920Z 24009KT CAVOK 17/13 Q1017=
0165103480999992014040709504+52319+010556FM-15+009099999V0202401N004610283519N009999199+01701+01301999999ADDGA1041+013111991GA2071+028351991GE19MSL   +99999+99999GF199999041990013111991991MA1101701999990REMMET058METAR EDVE 070950Z 24009KT 9999 SCT043 BKN093 17/13 Q1017=
0173103480999992014040710204+52319+010556FM-15+009099999V0202301V004110274319N009999199+01801+01301999999ADDGA1021+013111991GA2071+027431991GE19MSL   +99999+99999GF199999021990013111991991MA1101701999990REMMET066METAR EDVE 071020Z 23008KT 200V270 9999 FEW043 BKN090 18/13 Q1017=
0173103480999992014040710504+52319+010556FM-15+009099999V0202401V00361013411CN009999199+01901+01401999999ADDGA1021+008841991GA2041+013411991GE19MSL   +99999+99999GF199999021990008841991991MA1101601999990REMMET066METAR EDVE 071050Z 24007KT 200V260 9999 FEW029 SCT044 19/14 Q1016=
0201103480999992014040711204+52319+010556FM-15+009099999V0202301V00461014021CN009999199+01901+01201999999ADDGA1021+009141991GA2041+014021991GA3071+054861991GE19MSL   +99999+99999GF199999021990009141991991MA1101601999990REMMET078METAR EDVE 071120Z 23009KT 190V290 9999 FEW030 SCT046 BKN180 19/12      Q1016=
0173103480999992014040711504+52319+010556FM-15+009099999V0202201V00461045721CN009999199+01901+01201999999ADDGA1041+010671991GA2041+045721991GE19MSL   +99999+99999GF199999041990010671991991MA1101601999990REMMET066METAR EDVE 071150Z 22009KT 190V260 9999 SCT035 SCT150 19/12 Q1016=
0192103480999992014040712204+52319+010556FM-15+009099999V0202201N00571012191CN009999199+02001+01301999999ADDGA1021+010671991GA2041+012191991GA3071+015241991GE19MSL   +99999+99999GF199999021990010671991991MA1101501999990REMMET069METAR COR EDVE 071220Z 22011KT 9999 FEW035 SCT040 BKN050 20/13 Q1015=
0188103480999992014040712504+52319+010556FM-15+009099999V0202501N00411020731CN009999199+02001+01201999999ADDGA1021+010971991GA2041+020731991GA3071+042671991GE19MSL   +99999+99999GF199999021990010971991991MA1101501999990REMMET065METAR EDVE 071250Z 25008KT 9999 FEW036 SCT068 BKN140 20/12 Q1015=
0165103480999992014040713204+52319+010556FM-15+009099999V0202301N004610195119N009999199+01901+01201999999ADDGA1021+011891991GA2071+019511991GE19MSL   +99999+99999GF199999021990011891991991MA1101501999990REMMET058METAR EDVE 071320Z 23009KT 9999 FEW039 BKN064 19/12 Q1015=
0165103480999992014040713504+52319+010556FM-15+009099999V0202101N004610213419N009999199+02001+01201999999ADDGA1021+012191991GA2071+021341991GE19MSL   +99999+99999GF199999021990012191991991MA1101401999990REMMET058METAR EDVE 071350Z 21009KT 9999 FEW040 BKN070 20/12 Q1014=
0072103480999992014040714204+52319+010556FM-15+009099999V0202401N003619999999Y999999999+02001+01201999999ADDMA1101401999990REMMET045METAR EDVE 071420Z 24007KT CAVOK 20/12 Q1014=
0072103480999992014040714504+52319+010556FM-15+009099999V0202401N003119999999Y999999999+02001+01201999999ADDMA1101301999990REMMET045METAR EDVE 071450Z 24006KT CAVOK 20/12 Q1013=
0072103480999992014040715204+52319+010556FM-15+009099999V0202401N002119999999Y999999999+01901+01401999999ADDMA1101301999990REMMET045METAR EDVE 071520Z 24004KT CAVOK 19/14 Q1013=
0072103480999992014040715504+52319+010556FM-15+009099999V0202401N001519999999Y999999999+01901+01401999999ADDMA1101301999990REMMET045METAR EDVE 071550Z 24003KT CAVOK 19/14 Q1013=
0072103480999992014040716204+52319+010556FM-15+009099999V0202301N001019999999Y999999999+01901+01501999999ADDMA1101201999990REMMET045METAR EDVE 071620Z 23002KT CAVOK 19/15 Q1012=
0072103480999992014040716504+52319+010556FM-15+009099999V0209999V001519999999Y999999999+02001+01401999999ADDMA1101201999990REMMET045METAR EDVE 071650Z VRB03KT CAVOK 20/14 Q1012=
0072103480999992014040717204+52319+010556FM-15+009099999V0201701N002119999999Y999999999+01901+01301999999ADDMA1101201999990REMMET045METAR EDVE 071720Z 17004KT CAVOK 19/13 Q1012=
0072103480999992014040717504+52319+010556FM-15+009099999V0201401N003119999999Y999999999+01801+01301999999ADDMA1101201999990REMMET045METAR EDVE 071750Z 14006KT CAVOK 18/13 Q1012=
0072103480999992014040718204+52319+010556FM-15+009099999V0201401N003119999999Y999999999+01701+01301999999ADDMA1101101999990REMMET045METAR EDVE 071820Z 14006KT CAVOK 17/13 Q1011=
0072103480999992014040718504+52319+010556FM-15+009099999V0201401N002619999999Y999999999+01701+01301999999ADDMA1101101999990REMMET045METAR EDVE 071850Z 14005KT CAVOK 17/13 Q1011=
0072103480999992014040719204+52319+010556FM-15+009099999V0201401N003119999999Y999999999+01601+01401999999ADDMA1101101999990REMMET045METAR EDVE 071920Z 14006KT CAVOK 16/14 Q1011=
0072103480999992014040804504+52319+010556FM-15+009099999V0202201N004619999999Y999999999+01501+00901999999ADDMA1100701999990REMMET045METAR EDVE 080450Z 22009KT CAVOK 15/09 Q1007=
0072103480999992014040805204+52319+010556FM-15+009099999V0202301N005119999999Y999999999+01501+00901999999ADDMA1100701999990REMMET045METAR EDVE 080520Z 23010KT CAVOK 15/09 Q1007=
0165103480999992014040805504+52319+010556FM-15+009099999V0202201N00461030481CN009999199+01501+01001999999ADDGA1021+011281991GA2041+030481991GE19MSL   +99999+99999GF199999021990011281991991MA1100701999990REMMET058METAR EDVE 080550Z 22009KT 9999 FEW037 SCT100 15/10 Q1007=
0165103480999992014040806204+52319+010556FM-15+009099999V0202301N00361030481CN009999199+01501+01001999999ADDGA1021+010671991GA2041+030481991GE19MSL   +99999+99999GF199999021990010671991991MA1100701999990REMMET058METAR EDVE 080620Z 23007KT 9999 FEW035 SCT100 15/10 Q1007=
0229103480999992014040806504+52319+010556FM-15+009099999V0202501V005710134119N009999199+01501+01101999999ADDGA1041+008841091GA2071+013411991GA3071+017681991GE19MSL   +99999+99999GF199999041990008841991991MA1100801999990MW1811OC101181REMMET092METAR COR EDVE 080650Z 25011G23KT 220V280 9999 SHRA SCT029CB BKN044      BKN058 15/11 Q1008=
0221103480999992014040807204+52319+010556FM-15+009099999V0202601N005710128019N008000199+01201+01201999999ADDGA1041+005791091GA2071+012801991GA3081+016461991GE19MSL   +99999+99999GF199999041990005791991991MA1100801999990MW1811OC101131REMMET084METAR COR EDVE 080720Z 26011G22KT 8000 SHRA SCT019CB BKN042 OVC054      12/12 Q1008=
0209103480999992014040807504+52319+010556FM-15+009099999V0202501N006210137219N009999199+01201+01201999999ADDGA1021+003351991GA2071+013721991GA3081+018591991GE19MSL   +99999+99999GF199999021990003351991991MA1100901999990MW1161REMMET080METAR EDVE 080750Z 25012KT 9999 VCSH FEW011 BKN045 OVC061 12/12 Q1009      RERA=
0199103480999992014040808204+52319+010556FM-15+009099999V0202501N006710298719N009999199+01301+01301999999ADDGA1041+006101991GA2071+029871991GA3071+036581991GE19MSL   +99999+99999GF199999041990006101991991MA1100901999990OC101181REMMET068METAR EDVE 080820Z 25013G23KT 9999 SCT020 BKN098 BKN120 13/13 Q1009=
0173103480999992014040808504+52319+010556FM-15+009099999V0202701V007210118919N009999199+01201+01101999999ADDGA1021+006101991GA2071+011891991GE19MSL   +99999+99999GF199999021990006101991991MA1101001999990REMMET066METAR EDVE 080850Z 27014KT 240V310 9999 FEW020 BKN039 12/11 Q1010=
0188103480999992014040809204+52319+010556FM-15+009099999V0202701N00821010671CN009999199+01201+00901999999ADDGA1021+008531991GA2041+010671991GA3081+013411991GE19MSL   +99999+99999GF199999021990008531991991MA1101101999990REMMET065METAR EDVE 080920Z 27016KT 9999 FEW028 SCT035 OVC044 12/09 Q1011=
0199103480999992014040809504+52319+010556FM-15+009099999V0202601N00821017681CN009999199+01201+00701999999ADDGA1021+009751991GA2041+017681991GA3071+021031991GE19MSL   +99999+99999GF199999021990009751991991MA1101101999990OC101341REMMET068METAR EDVE 080950Z 26016G26KT 9999 FEW032 SCT058 BKN069 12/07 Q1011=
0173103480999992014040810204+52319+010556FM-15+009099999V0202801V007710164619N009999199+01201+00601999999ADDGA1021+010671991GA2071+016461991GE19MSL   +99999+99999GF199999021990010671991991MA1101101999990REMMET066METAR EDVE 081020Z 28015KT 240V310 9999 FEW035 BKN054 12/06 Q1011=
0080103480999992014040810504+52319+010556FM-15+009099999V0202701V006719999999Y999999999+01201+00601999999ADDMA1101101999990REMMET053METAR EDVE 081050Z 27013KT 240V300 CAVOK 12/06 Q1011=
0200103480999992014040811204+52319+010556FM-15+009099999V0202801V008210112819N009999199+01101+00801999999ADDGA1071+011281991GA2071+019811991GE19MSL   +99999+99999GF199999071990011281991991MA1101201999990MW1811OC101441REMMET079METAR EDVE 081120Z 28016G28KT 240V310 9999 SHRA BKN037 BKN065 11/08      Q1012=
0217103480999992014040811504+52319+010556FM-15+009099999V0202701V006210131119N009999199+01101+00801999999ADDGA1041+010671991GA2071+013111991GA3071+024081991GE19MSL   +99999+99999GF199999041990010671991991MA1101201999990MW1161REMMET088METAR EDVE 081150Z 27012KT 250V310 9999 VCSH SCT035 BKN043 BKN079 11/08      Q1012 RERA=
0165103480999992014040812204+52319+010556FM-15+009099999V0202401N006710176819N009999199+01101+00801999999ADDGA1041+012501991GA2071+017681991GE19MSL   +99999+99999GF199999041990012501991991MA1101201999990REMMET058METAR EDVE 081220Z 24013KT 9999 SCT041 BKN058 11/08 Q1012=
0184103480999992014040812504+52319+010556FM-15+009099999V0202601V006710207319N009999199+01301+00701999999ADDGA1021+010971991GA2071+020731991GE19MSL   +99999+99999GF199999021990010971991991MA1101201999990OC101181REMMET069METAR EDVE 081250Z 26013G23KT 230V310 9999 FEW036 BKN068 13/07 Q1012=
0158103480999992014040813204+52319+010556FM-15+009099999V0202601N009310118919N009999199+01001+00601999999ADDGA1071+011891991GE19MSL   +99999+99999GF199999071990011891991991MA1101201999990OC101801REMMET059METAR EDVE 081320Z 26018G35KT 9999 BKN039 10/06 Q1012 RERA=
0173103480999992014040813504+52319+010556FM-15+009099999V0202701V008210115819N009999199+00901+00601999999ADDGA1041+008531991GA2071+011581991GE19MSL   +99999+99999GF199999041990008531991991MA1101301999990REMMET066METAR EDVE 081350Z 27016KT 240V310 9999 SCT028 BKN038 09/06 Q1013=
0212103480999992014040814204+52319+010556FM-15+009099999V0202601V00771013721CN009999199+01101+00601999999ADDGA1021+011891991GA2041+013721991GA3071+019811991GE19MSL   +99999+99999GF199999021990011891991991MA1101301999990OC101291REMMET081METAR EDVE 081420Z 26015G25KT 240V300 9999 FEW039 SCT045 BKN065 11/06      Q1013=
0173103480999992014040814504+52319+010556FM-15+009099999V0202501V007710213419N009999199+01001+00501999999ADDGA1021+012191991GA2071+021341991GE19MSL   +99999+99999GF199999021990012191991991MA1101301999990REMMET066METAR EDVE 081450Z 25015KT 230V290 9999 FEW040 BKN070 10/05 Q1013=
0134103480999992014040815204+52319+010556FM-15+009099999V0202701V007719999999N999999999+99999+99999999999ADDMA1101401999990OC101291REMMET080METAR EDVE 081520Z 27015G25KT 240V300 8000SHRA SCT023CB BKN049 09/07      Q1014=EQDD01      0ADE693
0170103480999992014040815504+52319+010556FM-15+009099999V0202501N005110143319N009999199+00801+00601999999ADDGA1041+012191991GA2071+014331991GE19MSL   +99999+99999GF199999041990012191991991MA1101301999990REMMET063METAR EDVE 081550Z 25010KT 9999 SCT040 BKN047 08/06 Q1013 RERA=
0173103480999992014040816204+52319+010556FM-15+009099999V0202601V006710213419N009999199+00901+00601999999ADDGA1021+013721991GA2071+021341991GE19MSL   +99999+99999GF199999021990013721991991MA1101301999990REMMET066METAR EDVE 081620Z 26013KT 230V290 9999 FEW045 BKN070 09/06 Q1013=
0178103480999992014040816504+52319+010556FM-15+009099999V0202601N007210115819N009999199+00901+00601999999ADDGA1021+009141991GA2071+011581991GE19MSL   +99999+99999GF199999021990009141991991MA1101401999990MW1631REMMET065METAR COR EDVE 081650Z 26014KT 9999 RA FEW030 BKN038 09/06 Q1014=
0181103480999992014040817204+52319+010556FM-15+009099999V0202601N009810115819N009999199+00801+00401999999ADDGA1021+008841991GA2071+011581991GE19MSL   +99999+99999GF199999021990008841991991MA1101401999990OC101651REMMET066METAR EDVE 081720Z 26019G32KT 9999 FEW029 BKN038 08/04 Q1014 RERA=
0173103480999992014040817504+52319+010556FM-15+009099999V0202801V006210134119N009999199+00701+00501999999ADDGA1021+006401991GA2071+013411991GE19MSL   +99999+99999GF199999021990006401991991MA1101501999990REMMET066METAR EDVE 081750Z 28012KT 250V320 9999 FEW021 BKN044 07/05 Q1015=
0165103480999992014040818204+52319+010556FM-15+009099999V0202801N005710112819N009999199+00701+00501999999ADDGA1021+007621991GA2071+011281991GE19MSL   +99999+99999GF199999021990007621991991MA1101501999990REMMET058METAR EDVE 081820Z 28011KT 9999 FEW025 BKN037 07/05 Q1015=
0184103480999992014040818504+52319+010556FM-15+009099999V0202601V00621017681CN009999199+00701+00501999999ADDGA1021+007011991GA2041+017681991GE19MSL   +99999+99999GF199999021990007011991991MA1101601999990OC101131REMMET069METAR EDVE 081850Z 26012G22KT 240V300 9999 FEW023 SCT058 07/05 Q1016=
0165103480999992014040819204+52319+010556FM-15+009099999V0202501N00511019201CN009999199+00701+00401999999ADDGA1021+012501991GA2041+019201991GE19MSL   +99999+99999GF199999021990012501991991MA1101601999990REMMET058METAR EDVE 081920Z 25010KT 9999 FEW041 SCT063 07/04 Q1016=
0150103480999992014040904504+52319+010556FM-15+009099999V0202701V004619999999N009999199+00601+00601999999ADDGA1041+003961991GE19MSL   +99999+99999GF199999041990003961991991MA1101901999990REMMET059METAR EDVE 090450Z 27009KT 240V300 9999 SCT013 06/06 Q1019=
0173103480999992014040905204+52319+010556FM-15+009099999V0202701V00461013411CN009999199+00501+00501999999ADDGA1021+003351991GA2041+013411991GE19MSL   +99999+99999GF199999021990003351991991MA1101901999990REMMET066METAR EDVE 090520Z 27009KT 240V300 9999 FEW011 SCT044 05/05 Q1019=
0165103480999992014040905504+52319+010556FM-15+009099999V0202601N00511015851CN009999199+00601+00601999999ADDGA1021+003661991GA2041+015851991GE19MSL   +99999+99999GF199999021990003661991991MA1102001999990REMMET058METAR EDVE 090550Z 26010KT 9999 FEW012 SCT052 06/06 Q1020=
0165103480999992014040906204+52319+010556FM-15+009099999V0202601N00511017981CN009999199+00601+00601999999ADDGA1021+003661991GA2041+017981991GE19MSL   +99999+99999GF199999021990003661991991MA1102001999990REMMET058METAR EDVE 090620Z 26010KT 9999 FEW012 SCT059 06/06 Q1020=
0173103480999992014040906504+52319+010556FM-15+009099999V0202601V00571018591CN009999199+00701+00701999999ADDGA1021+004271991GA2041+018591991GE19MSL   +99999+99999GF199999021990004271991991MA1102001999990REMMET066METAR EDVE 090650Z 26011KT 230V290 9999 FEW014 SCT061 07/07 Q1020=
0173103480999992014040907204+52319+010556FM-15+009099999V0202601V005710189019N009999199+00801+00801999999ADDGA1021+004271991GA2071+018901991GE19MSL   +99999+99999GF199999021990004271991991MA1102001999990REMMET066METAR EDVE 090720Z 26011KT 220V290 9999 FEW014 BKN062 08/08 Q1020=
0165103480999992014040907504+52319+010556FM-15+009099999V0202601N006710189019N009999199+00901+00801999999ADDGA1021+004881991GA2071+018901991GE19MSL   +99999+99999GF199999021990004881991991MA1102001999990REMMET058METAR EDVE 090750Z 26013KT 9999 FEW016 BKN062 09/08 Q1020=
0184103480999992014040908204+52319+010556FM-15+009099999V0202601V00621020731CN009999199+01001+00801999999ADDGA1021+004881991GA2041+020731991GE19MSL   +99999+99999GF199999021990004881991991MA1102001999990OC101131REMMET069METAR EDVE 090820Z 26012G22KT 240V300 9999 FEW016 SCT068 10/08 Q1020=
0173103480999992014040908504+52319+010556FM-15+009099999V0202701V00621021641CN009999199+01001+00801999999ADDGA1041+005181991GA2041+021641991GE19MSL   +99999+99999GF199999041990005181991991MA1102001999990REMMET066METAR EDVE 090850Z 27012KT 240V300 9999 SCT017 SCT071 10/08 Q1020=
0201103480999992014040909204+52319+010556FM-15+009099999V0202701V00721007011CN009999199+01101+00801999999ADDGA1021+005491991GA2041+007011991GA3071+018901991GE19MSL   +99999+99999GF199999021990005491991991MA1102001999990REMMET078METAR EDVE 090920Z 27014KT 240V300 9999 FEW018 SCT023 BKN062 11/08      Q1020=
0201103480999992014040909504+52319+010556FM-15+009099999V0202701V007710073219N009999199+01001+00701999999ADDGA1071+007321991GA2071+017681991GA3081+020731991GE19MSL   +99999+99999GF199999071990007321991991MA1102001999990REMMET078METAR EDVE 090950Z 27015KT 240V300 9999 BKN024 BKN058 OVC068 10/07      Q1020=
0201103480999992014040910204+52319+010556FM-15+009099999V0202701V006710082319N009999199+01001+00701999999ADDGA1071+008231991GA2071+017371991GA3081+020421991GE19MSL   +99999+99999GF199999071990008231991991MA1102001999990REMMET078METAR EDVE 091020Z 27013KT 240V300 9999 BKN027 BKN057 OVC067 10/07      Q1020=
0222103480999992014040910504+52319+010556FM-15+009099999V0202701V007710112819N009999199+01001+00601999999ADDGA1041+008531991GA2071+011281991GA3071+014631991GE19MSL   +99999+99999GF199999041990008531991991MA1102001999990MW1611OC101341REMMET085METAR EDVE 091050Z 27015G26KT 250V330 9999 -RA SCT028 BKN037 BKN048      10/06 Q1020=
0201103480999992014040911204+52319+010556FM-15+009099999V0202701V00721012191CN009999199+01101+00701999999ADDGA1041+008231991GA2041+012191991GA3071+021951991GE19MSL   +99999+99999GF199999041990008231991991MA1102001999990REMMET078METAR EDVE 091120Z 27014KT 240V310 9999 SCT027 SCT040 BKN072 11/07      Q1020=
0173103480999992014040911504+52319+010556FM-15+009099999V0202601V007710192019N009999199+01101+00701999999ADDGA1021+007921991GA2071+019201991GE19MSL   +99999+99999GF199999021990007921991991MA1102001999990REMMET066METAR EDVE 091150Z 26015KT 230V300 9999 FEW026 BKN063 11/07 Q1020=
0201103480999992014040912204+52319+010556FM-15+009099999V0202701V007710185919N009999199+01101+00601999999ADDGA1041+008841991GA2071+018591991GA3071+021341991GE19MSL   +99999+99999GF199999041990008841991991MA1102001999990REMMET078METAR EDVE 091220Z 27015KT 230V300 9999 SCT029 BKN061 BKN070 11/06      Q1020=
0182103480999992014040912504+52319+010556FM-15+009099999V0202701V008210094519N009999199+01001+00601999999ADDGA1071+009451991GA2071+019511991GE19MSL   +99999+99999GF199999071990009451991991MA1102001999990MW1531REMMET069METAR EDVE 091250Z 27016KT 240V300 9999 DZ BKN031 BKN064 10/06 Q1020=
0184103480999992014040913504+52319+010556FM-15+009099999V0202801V009310085319N009999199+01101+00601999999ADDGA1071+008531991GA2071+024381991GE19MSL   +99999+99999GF199999071990008531991991MA1101901999990OC101441REMMET069METAR EDVE 091350Z 28018G28KT 250V310 9999 BKN028 BKN080 11/06 Q1019=
0201103480999992014040914204+52319+010556FM-15+009099999V0202701V00621009451CN009999199+01001+00701999999ADDGA1021+007921991GA2041+009451991GA3071+021341991GE19MSL   +99999+99999GF199999021990007921991991MA1101901999990REMMET078METAR EDVE 091420Z 27012KT 240V300 9999 FEW026 SCT031 BKN070 10/07      Q1019=
0173103480999992014040914504+52319+010556FM-15+009099999V0202701V00671018901CN009999199+01001+00801999999ADDGA1021+007921991GA2041+018901991GE19MSL   +99999+99999GF199999021990007921991991MA1101901999990REMMET066METAR EDVE 091450Z 27013KT 240V300 9999 FEW026 SCT062 10/08 Q1019=
