0142104160999992009010104204+51517+007617FM-15+0148EDLW V0201601N002110030019N0020001N1-00601-00601999999ADDGA1071+003001999GF107991999999999999999999MA1102711999999MW1101REMMET067METAR EDLW 010420Z 16004KT 2000 BR BKN010 M06/M06 Q1027 RMK ATIS A;
0142104160999992009010105204+51517+007617FM-15+0148EDLW V0209999V001010018019N0025001N1-00601-00601999999ADDGA1081+001801999GF108991999999999999999999MA1102811999999MW1101REMMET067METAR EDLW 010520Z VRB02KT 2500 BR OVC006 M06/M06 Q1028 RMK ATIS C;
0142104160999992009010105504+51517+007617FM-15+0148EDLW V0202001N002610021019N0025001N1-00501-00601999999ADDGA1081+002101999GF108991999999999999999999MA1102811999999MW1101REMMET067METAR EDLW 010550Z 20005KT 2500 BR OVC007 M05/M06 Q1028 RMK ATIS D;
0142104160999992009010106204+51517+007617FM-15+0148EDLW V0201901N002110024019N0025001N1-00501-00501999999ADDGA1081+002401999GF108991999999999999999999MA1102811999999MW1101REMMET067METAR EDLW 010620Z 19004KT 2500 BR OVC008 M05/M05 Q1028 RMK ATIS E;
0150104160999992009010106504+51517+007617FM-15+0148EDLW V0202201N002110030019N0025001N1-00501-00501999999ADDGA1081+003001999GF108991999999999999999999MA1102811999999MW1101REMMET075METAR EDLW 010650Z 22004KT 190V260 2500 BR OVC010 M05/M05 Q1028 RMK ATIS F;
0142104160999992009010107204+51517+007617FM-15+0148EDLW V0202901N001510018019N0025001N1-00501-00501999999ADDGA1071+001801999GF107991999999999999999999MA1102811999999MW1101REMMET067METAR EDLW 010720Z 29003KT 2500 BR BKN006 M05/M05 Q1028 RMK ATIS F;
0142104160999992009010107504+51517+007617FM-15+0148EDLW V0209999V001510021019N0025001N1-00501-00501999999ADDGA1081+002101999GF108991999999999999999999MA1102911999999MW1101REMMET067METAR EDLW 010750Z VRB03KT 2500 BR OVC007 M05/M05 Q1029 RMK ATIS G;
0142104160999992009010108204+51517+007617FM-15+0148EDLW V0202501N001510027019N0025001N1-00401-00501999999ADDGA1081+002701999GF108991999999999999999999MA1102911999999MW1101REMMET067METAR EDLW 010820Z 25003KT 2500 BR OVC009 M04/M05 Q1029 RMK ATIS H;
0133104160999992009010108504+51517+007617FM-15+0148EDLW V0202201N002110069019N0025001N1-00401-00501999999ADDGA1081+006901999GF108991999999999999999999MA1102911999999REMMET064METAR EDLW 010850Z 22004KT 2500 OVC023 M04/M05 Q1029 RMK ATIS I;
0165104160999992009010109204+51517+007617FM-15+0148EDLW V0202301N002110069019N0025001N1-00401-00401999999ADDGA1041+002401999GA2071+006901999GF107991999999999999999999MA1102911999999MW1101REMMET074METAR EDLW 010920Z 23004KT 2500 BR SCT008 BKN023 M04/M04 Q1029 RMK ATIS J;
0133104160999992009010109504+51517+007617FM-15+0148EDLW V0202101N002110075019N0112651N1-00401-00401999999ADDGA1081+007501999GF108991999999999999999999MA1102911999999REMMET064METAR EDLW 010950Z 21004KT 9999 OVC025 M04/M04 Q1029 RMK ATIS K;
0142104160999992009010110204+51517+007617FM-15+0148EDLW V0202101N003110075019N0025001N1-00401-00401999999ADDGA1081+007501999GF108991999999999999999999MA1102911999999MW1101REMMET067METAR EDLW 011020Z 21006KT 2500 BR OVC025 M04/M04 Q1029 RMK ATIS L;
0142104160999992009010110504+51517+007617FM-15+0148EDLW V0202101N003610099019N0025001N1-00301-00401999999ADDGA1071+009901999GF107991999999999999999999MA1102911999999MW1101REMMET067METAR EDLW 011050Z 21007KT 2500 BR BKN033 M03/M04 Q1029 RMK ATIS M;
0165104160999992009010111204+51517+007617FM-15+0148EDLW V0202001N003610099019N0025001N1-00301-00301999999ADDGA1021+008101999GA2071+009901999GF107991999999999999999999MA1102911999999MW1101REMMET074METAR EDLW 011120Z 20007KT 2500 BR FEW027 BKN033 M03/M03 Q1029 RMK ATIS N;
0150104160999992009010111504+51517+007617FM-15+0148EDLW V0202601N002110018019N0020001N1-00301-00301999999ADDGA1071+001801999GF107991999999999999999999MA1102911999999MW1101REMMET075METAR EDLW 011150Z 26004KT 220V320 2000 BR BKN006 M03/M03 Q1029 RMK ATIS O;
0165104160999992009010112204+51517+007617FM-15+0148EDLW V0202501N002610099019N0020001N1-00201-00301999999ADDGA1021+002101999GA2071+009901999GF107991999999999999999999MA1102911999999MW1101REMMET074METAR EDLW 011220Z 25005KT 2000 BR FEW007 BKN033 M02/M03 Q1029 RMK ATIS P;
0165104160999992009010112504+51517+007617FM-15+0148EDLW V0202601N002610078019N0016001N1-00201-00301999999ADDGA1021+002101999GA2071+007801999GF107991999999999999999999MA1102911999999MW1101REMMET074METAR EDLW 011250Z 26005KT 1600 BR FEW007 BKN026 M02/M03 Q1029 RMK ATIS Q;
0165104160999992009010113204+51517+007617FM-15+0148EDLW V0202401N002610072019N0016001N1-00201-00301999999ADDGA1021+001801999GA2071+007201999GF107991999999999999999999MA1102911999999MW1101REMMET074METAR EDLW 011320Z 24005KT 1600 BR FEW006 BKN024 M02/M03 Q1029 RMK ATIS R;
0142104160999992009010113504+51517+007617FM-15+0148EDLW V0202501N002610069019N0018001N1-00201-00301999999ADDGA1071+006901999GF107991999999999999999999MA1102911999999MW1101REMMET067METAR EDLW 011350Z 25005KT 1800 BR BKN023 M02/M03 Q1029 RMK ATIS S;
0150104160999992009010114204+51517+007617FM-15+0148EDLW V0202501N002110060019N0019001N1-00201-00301999999ADDGA1071+006001999GF107991999999999999999999MA1102911999999MW1101REMMET075METAR EDLW 011420Z 25004KT 220V310 1900 BR BKN020 M02/M03 Q1029 RMK ATIS T;
0142104160999992009010114504+51517+007617FM-15+0148EDLW V0202401N002110060019N0018001N1-00201-00301999999ADDGA1071+006001999GF107991999999999999999999MA1102811999999MW1101REMMET067METAR EDLW 011450Z 24004KT 1800 BR BKN020 M02/M03 Q1028 RMK ATIS U;
0142104160999992009010115204+51517+007617FM-15+0148EDLW V0202301N002110054019N0016001N1-00201-00301999999ADDGA1071+005401999GF107991999999999999999999MA1102911999999MW1101REMMET067METAR EDLW 011520Z 23004KT 1600 BR BKN018 M02/M03 Q1029 RMK ATIS V;
0165104160999992009010115504+51517+007617FM-15+0148EDLW V0202301N002110069019N0016001N1-00201-00301999999ADDGA1041+005401999GA2071+006901999GF107991999999999999999999MA1102811999999MW1101REMMET074METAR EDLW 011550Z 23004KT 1600 BR SCT018 BKN023 M02/M03 Q1028 RMK ATIS W;
0142104160999992009010116204+51517+007617FM-15+0148EDLW V0202201N002610054019N0018001N1-00201-00301999999ADDGA1071+005401999GF107991999999999999999999MA1102811999999MW1101REMMET067METAR EDLW 011620Z 22005KT 1800 BR BKN018 M02/M03 Q1028 RMK ATIS X;
0152104160999992009010116504+51517+007617FM-15+0148EDLW V0202401N002610051019N0045001N1-00201-00301999999ADDGA1081+005101999GF108991999999999999999999MA1102811999999MW1101MW2711REMMET071METAR EDLW 011650Z 24005KT 4500 -SN BR OVC017 M02/M03 Q1028 RMK ATIS Y;
0142104160999992009010117204+51517+007617FM-15+0148EDLW V0202201N002610051019N0040001N1-00201-00301999999ADDGA1081+005101999GF108991999999999999999999MA1102811999999MW1101REMMET067METAR EDLW 011720Z 22005KT 4000 BR OVC017 M02/M03 Q1028 RMK ATIS Z;
0165104160999992009010117504+51517+007617FM-15+0148EDLW V0202401N002610057019N0040001N1-00201-00301999999ADDGA1041+004501999GA2071+005701999GF107991999999999999999999MA1102811999999MW1101REMMET074METAR EDLW 011750Z 24005KT 4000 BR SCT015 BKN019 M02/M03 Q1028 RMK ATIS A;
0142104160999992009010118204+51517+007617FM-15+0148EDLW V0202401N003110045019N0040001N1-00201-00301999999ADDGA1081+004501999GF108991999999999999999999MA1102811999999MW1101REMMET067METAR EDLW 011820Z 24006KT 4000 BR OVC015 M02/M03 Q1028 RMK ATIS B;
0142104160999992009010118504+51517+007617FM-15+0148EDLW V0202401N002610042019N0040001N1-00201-00301999999ADDGA1071+004201999GF107991999999999999999999MA1102811999999MW1101REMMET067METAR EDLW 011850Z 24005KT 4000 BR BKN014 M02/M03 Q1028 RMK ATIS C;
0152104160999992009010119204+51517+007617FM-15+0148EDLW V0202301N002610045019N0040001N1-00201-00301999999ADDGA1071+004501999GF107991999999999999999999MA1102811999999MW1101MW2711REMMET071METAR EDLW 011920Z 23005KT 4000 BR -SN BKN015 M02/M03 Q1028 RMK ATIS D;
0133104160999992009010119504+51517+007617FM-15+0148EDLW V0202401N003110042019N0050001N1-00201-00301999999ADDGA1071+004201999GF107991999999999999999999MA1102811999999REMMET064METAR EDLW 011950Z 24006KT 5000 BKN014 M02/M03 Q1028 RMK ATIS E;
0133104160999992009010120204+51517+007617FM-15+0148EDLW V0202401N002610039019N0050001N1-00201-00301999999ADDGA1071+003901999GF107991999999999999999999MA1102811999999REMMET064METAR EDLW 012020Z 24005KT 5000 BKN013 M02/M03 Q1028 RMK ATIS F;
0165104160999992009010204204+51517+007617FM-15+0148EDLW V0202401N002610009019N0020001N1-00201-00201999999ADDGA1071+000901999GA2081+001201999GF108991999999999999999999MA1102611999999MW1101REMMET074METAR EDLW 020420Z 24005KT 2000 BR BKN003 OVC004 M02/M02 Q1026 RMK ATIS A;
0142104160999992009010204504+51517+007617FM-15+0148EDLW V0202501N002610009019N0015001N1-00201-00201999999ADDGA1081+000901999GF108991999999999999999999MA1102611999999MW1101REMMET067METAR EDLW 020450Z 25005KT 1500 BR OVC003 M02/M02 Q1026 RMK ATIS B;
0142104160999992009010205204+51517+007617FM-15+0148EDLW V0202401N003110009019N0015001N1-00201-00201999999ADDGA1081+000901999GF108991999999999999999999MA1102511999999MW1101REMMET067METAR EDLW 020520Z 24006KT 1500 BR OVC003 M02/M02 Q1025 RMK ATIS C;
0183104160999992009010206204+51517+007617FM-15+0148EDLW V0202601N002110009019N0018001N1-00201-00201999999ADDGA1041+000601999GA2081+000901999GF108991999999999999999999MA1102611999999MW1101MW2711REMMET086METAR EDLW 020620Z 26004KT 220V290 1800 -SN BR SCT002 OVC003 M02/M02 Q1026 RMK ATIS E;
0152104160999992009010206504+51517+007617FM-15+0148EDLW V0202501N002110009019N0020001N1-00201-00201999999ADDGA1081+000901999GF108991999999999999999999MA1102611999999MW1101MW2711REMMET071METAR EDLW 020650Z 25004KT 2000 -SN BR OVC003 M02/M02 Q1026 RMK ATIS F;
0151104160999992009010207204+51517+007617FM-15+0148EDLW V0202501N00211000151CN0015001N1-00201-00201999999ADDGA1091+000151999GF109991999999000251999999MA1102611999999MW1101MW2711REMMET070METAR EDLW 020720Z 25004KT 1500 -SN BR VV/// M02/M02 Q1026 RMK ATIS G;
0151104160999992009010207504+51517+007617FM-15+0148EDLW V0202401N00311000151CN0015001N1-00201-00201999999ADDGA1091+000151999GF109991999999000251999999MA1102611999999MW1101MW2711REMMET070METAR EDLW 020750Z 24006KT 1500 -SN BR VV/// M02/M02 Q1026 RMK ATIS H;
0170104160999992009010208204+51517+007617FM-15+0148EDLW V0202401N00211000151CN0012001N1-00201-00201999999ADDED199U16009GA1091+000151999GF109991999999000251999999MA1102611999999MW1101REMMET084METAR EDLW 020820Z 24004KT 210V270 1200 R24/1600N BR VV/// M02/M02 Q1026 RMK ATIS I;
0162104160999992009010208504+51517+007617FM-15+0148EDLW V0202401N00261000151CN0012001N1-00101-00201999999ADDED199U15009GA1091+000151999GF109991999999000251999999MA1102611999999MW1101REMMET076METAR EDLW 020850Z 24005KT 1200 R24/1500D BR VV/// M01/M02 Q1026 RMK ATIS J;
0164104160999992009010209204+51517+007617FM-15+0148EDLW V0209999V00151000151CN0008001N1-00101-00101999999ADDED199U13009GA1091+000151999GF109991999999000251999999MA1102611999999MW1491REMMET078METAR EDLW 020920Z VRB03KT 0800 R24/1300N FZFG VV/// M01/M01 Q1026 RMK ATIS K;
0164104160999992009010209504+51517+007617FM-15+0148EDLW V0202701N00151000151CN0006001N1-00101-00101999999ADDED199U13009GA1091+000151999GF109991999999000251999999MA1102711999999MW1491REMMET078METAR EDLW 020950Z 27003KT 0600 R24/1300N FZFG VV/// M01/M01 Q1027 RMK ATIS L;
0164104160999992009010210204+51517+007617FM-15+0148EDLW V0209999V00151000151CN0008001N1-00101-00101999999ADDED199U13009GA1091+000151999GF109991999999000251999999MA1102711999999MW1491REMMET078METAR EDLW 021020Z VRB03KT 0800 R24/1300N FZFG VV/// M01/M01 Q1027 RMK ATIS M;
0164104160999992009010211204+51517+007617FM-15+0148EDLW V0209999V00151000151CN0002001N1-00101-00101999999ADDED199U07009GA1091+000151999GF109991999999000251999999MA1102711999999MW1491REMMET078METAR EDLW 021120Z VRB03KT 0200 R24/0700D FZFG VV/// M01/M01 Q1027 RMK ATIS O;
0164104160999992009010211504+51517+007617FM-15+0148EDLW V0209999V00151000151CN0001501N1-00101-00101999999ADDED199U04009GA1091+000151999GF109991999999000251999999MA1102711999999MW1491REMMET078METAR EDLW 021150Z VRB03KT 0150 R24/0400N FZFG VV/// M01/M01 Q1027 RMK ATIS P;
0172104160999992009010212204+51517+007617FM-15+0148EDLW V0200101N00211000151CN0001001N1-00101-00101999999ADDED199U03259GA1091+000151999GF109991999999000251999999MA1102711999999MW1491REMMET086METAR EDLW 021220Z 01004KT 320V050 0100 R24/0325N FZFG VV/// M01/M01 Q1027 RMK ATIS Q;
0158104160999992009010212504+51517+007617FM-15+0148EDLW V0200401N00311000151CN0002001N1-00101-00101999999ADDGA1091+000151999GF109991999999000251999999MA1102711999999MW1491REMMET083METAR EDLW 021250Z 04006KT 0200 R06/0375V0500D FZFG VV/// M01/M01 Q1027 RMK ATIS R;
0172104160999992009010213204+51517+007617FM-15+0148EDLW V0200401N00311000151CN0002501N1-00101-00101999999ADDED199U03259GA1091+000151999GF109991999999000251999999MA1102711999999MW1491REMMET086METAR EDLW 021320Z 04006KT 010V070 0250 R06/0325N FZFG VV/// M01/M01 Q1027 RMK ATIS S;
0158104160999992009010213504+51517+007617FM-15+0148EDLW V0200401N00361000151CN0004001N1-00101-00101999999ADDGA1091+000151999GF109991999999000251999999MA1102811999999MW1491REMMET083METAR EDLW 021350Z 04007KT 0400 R06/0300V0500N FZFG VV/// M01/M01 Q1028 RMK ATIS T;
0186104160999992009010214204+51517+007617FM-15+0148EDLW V0200401N003110009019N0015001N1-00101-00101999999ADDED199U13009GA1041+000301999GA2071+000901999GF107991999999999999999999MA1102811999999MW1101REMMET084METAR EDLW 021420Z 04006KT 1500 R06/1300N BR SCT001 BKN003 M01/M01 Q1028 RMK ATIS U;
0157104160999992009010214504+51517+007617FM-15+0148EDLW V0200401N002610009019N0015001N1-00101-00101999999ADDGA1071+000901999GF107991999999999999999999MA1102811999999MW1101REMMET082METAR EDLW 021450Z 04005KT 1500 R06/1000V1700U BR BKN003 M01/M01 Q1028 RMK ATIS V;
0150104160999992009010215204+51517+007617FM-15+0148EDLW V0200401N003610027019N0025001N1-00101-00101999999ADDGA1071+002701999GF107991999999999999999999MA1102811999999MW1101REMMET075METAR EDLW 021520Z 04007KT 360V070 2500 BR BKN009 M01/M01 Q1028 RMK ATIS W;
0142104160999992009010215504+51517+007617FM-15+0148EDLW V0200501N003110063019N0040001N1-00101-00101999999ADDGA1071+006301999GF107991999999999999999999MA1102811999999MW1101REMMET067METAR EDLW 021550Z 05006KT 4000 BR BKN021 M01/M01 Q1028 RMK ATIS X;
0133104160999992009010216204+51517+007617FM-15+0148EDLW V0200401N003610069019N0070001N1-00101-00101999999ADDGA1071+006901999GF107991999999999999999999MA1102911999999REMMET064METAR EDLW 021620Z 04007KT 7000 BKN023 M01/M01 Q1029 RMK ATIS Y;
0156104160999992009010216504+51517+007617FM-15+0148EDLW V0200401N004110048019N0070001N1-00101-00101999999ADDGA1071+004801999GA2071+007801999GF107991999999999999999999MA1102911999999REMMET071METAR EDLW 021650Z 04008KT 7000 BKN016 BKN026 M01/M01 Q1029 RMK ATIS Z;
0156104160999992009010217204+51517+007617FM-15+0148EDLW V0200501N003610048019N0070001N1-00101-00301999999ADDGA1041+003001999GA2071+004801999GF107991999999999999999999MA1102911999999REMMET071METAR EDLW 021720Z 05007KT 7000 SCT010 BKN016 M01/M03 Q1029 RMK ATIS A;
0156104160999992009010217504+51517+007617FM-15+0148EDLW V0200501N003612200019N0080001N1-00201-00301999999ADDGA1021+003001999GA2041+004501999GF104991999999999999999999MA1102911999999REMMET071METAR EDLW 021750Z 05007KT 8000 FEW010 SCT015 M02/M03 Q1029 RMK ATIS B;
0133104160999992009010218204+51517+007617FM-15+0148EDLW V0200501N002612200019N0080001N1-00301-00401999999ADDGA1021+003001999GF102991999999999999999999MA1103011999999REMMET064METAR EDLW 021820Z 05005KT 8000 FEW010 M03/M04 Q1030 RMK ATIS C;
0133104160999992009010218504+51517+007617FM-15+0148EDLW V0200501N002112200019N0080001N1-00401-00501999999ADDGF100991999999999999999999MA1103011999999REMMET061METAR EDLW 021850Z 05004KT 8000 NSC M04/M05 Q1030 RMK ATIS D;EQDQ01    003SCCGA1
0133104160999992009010219204+51517+007617FM-15+0148EDLW V0200801N003112200019N0080001N1-00401-00401999999ADDGF100991999999999999999999MA1103011999999REMMET061METAR EDLW 021920Z 08006KT 8000 NSC M04/M04 Q1030 RMK ATIS E;EQDQ01    003SCCGA1
0133104160999992009010219504+51517+007617FM-15+0148EDLW V0200701N002612200019N0080001N1-00401-00501999999ADDGF100991999999999999999999MA1103011999999REMMET061METAR EDLW 021950Z 07005KT 8000 NSC M04/M05 Q1030 RMK ATIS F;EQDQ01    003SCCGA1
0133104160999992009010220204+51517+007617FM-15+0148EDLW V0200601N003112200019N0080001N1-00501-00601999999ADDGF100991999999999999999999MA1103011999999REMMET061METAR EDLW 022020Z 06006KT 8000 NSC M05/M06 Q1030 RMK ATIS G;EQDQ01    003SCCGA1
0085104160999992009010304204+51517+007617FM-15+0148EDLW V0209999V00101220001CN0099001N1-00801-00901999999ADDMA1102911999999REMMET058METAR EDLW 030420Z VRB02KT CAVOK M08/M09 Q1029 RMK ATIS A;
0085104160999992009010304504+51517+007617FM-15+0148EDLW V0201701N00261220001CN0099001N1-00901-01001999999ADDMA1102911999999REMMET058METAR EDLW 030450Z 17005KT CAVOK M09/M10 Q1029 RMK ATIS B;
0085104160999992009010305204+51517+007617FM-15+0148EDLW V0201701N00361220001CN0099001N1-00901-00901999999ADDMA1102811999999REMMET058METAR EDLW 030520Z 17007KT CAVOK M09/M09 Q1028 RMK ATIS C;
0085104160999992009010305504+51517+007617FM-15+0148EDLW V0201701N00311220001CN0099001N1-00901-00901999999ADDMA1102811999999REMMET058METAR EDLW 030550Z 17006KT CAVOK M09/M09 Q1028 RMK ATIS D;
0085104160999992009010306204+51517+007617FM-15+0148EDLW V0209999V00101220001CN0099001N1-00901-01001999999ADDMA1102811999999REMMET058METAR EDLW 030620Z VRB02KT CAVOK M09/M10 Q1028 RMK ATIS E;
0085104160999992009010306504+51517+007617FM-15+0148EDLW V0201701N00211220001CN0099001N1-01001-01101999999ADDMA1102811999999REMMET058METAR EDLW 030650Z 17004KT CAVOK M10/M11 Q1028 RMK ATIS F;
0085104160999992009010307204+51517+007617FM-15+0148EDLW V0209999V00101220001CN0099001N1-01001-01101999999ADDMA1102811999999REMMET058METAR EDLW 030720Z VRB02KT CAVOK M10/M11 Q1028 RMK ATIS G;
0085104160999992009010307504+51517+007617FM-15+0148EDLW V0201801N00151220001CN0099001N1-00901-01001999999ADDMA1102811999999REMMET058METAR EDLW 030750Z 18003KT CAVOK M09/M10 Q1028 RMK ATIS H;
0085104160999992009010308204+51517+007617FM-15+0148EDLW V0201801N00261220001CN0099001N1-00901-00901999999ADDMA1102811999999REMMET058METAR EDLW 030820Z 18005KT CAVOK M09/M09 Q1028 RMK ATIS I;
0085104160999992009010308504+51517+007617FM-15+0148EDLW V0201701N00311220001CN0099001N1-00801-00801999999ADDMA1102811999999REMMET058METAR EDLW 030850Z 17006KT CAVOK M08/M08 Q1028 RMK ATIS J;
0085104160999992009010309204+51517+007617FM-15+0148EDLW V0201801N00361220001CN0099001N1-00701-00701999999ADDMA1102811999999REMMET058METAR EDLW 030920Z 18007KT CAVOK M07/M07 Q1028 RMK ATIS K;
0133104160999992009010309504+51517+007617FM-15+0148EDLW V0201801N003612200019N0112651N1-00601-00701999999ADDGA1021+012901999GF102991999999999999999999MA1102811999999REMMET064METAR EDLW 030950Z 18007KT 9999 FEW043 M06/M07 Q1028 RMK ATIS L;
0133104160999992009010310204+51517+007617FM-15+0148EDLW V0201801N003612200019N0112651N1-00601-00701999999ADDGA1021+012901999GF102991999999999999999999MA1102811999999REMMET064METAR EDLW 031020Z 18007KT 9999 FEW043 M06/M07 Q1028 RMK ATIS M;
0133104160999992009010310504+51517+007617FM-15+0148EDLW V0202001N002610120019N0112651N1-00401-00601999999ADDGA1071+012001999GF107991999999999999999999MA1102811999999REMMET064METAR EDLW 031050Z 20005KT 9999 BKN040 M04/M06 Q1028 RMK ATIS N;
0133104160999992009010311204+51517+007617FM-15+0148EDLW V0202101N002610123019N0112651N1-00301-00601999999ADDGA1071+012301999GF107991999999999999999999MA1102711999999REMMET064METAR EDLW 031120Z 21005KT 9999 BKN041 M03/M06 Q1027 RMK ATIS O;
0133104160999992009010311504+51517+007617FM-15+0148EDLW V0202401N002610129019N0112651N1-00201-00501999999ADDGA1071+012901999GF107991999999999999999999MA1102711999999REMMET064METAR EDLW 031150Z 24005KT 9999 BKN043 M02/M05 Q1027 RMK ATIS P;
0133104160999992009010312204+51517+007617FM-15+0148EDLW V0202101N003610120019N0112651N1-00101-00501999999ADDGA1071+012001999GF107991999999999999999999MA1102611999999REMMET064METAR EDLW 031220Z 21007KT 9999 BKN040 M01/M05 Q1026 RMK ATIS Q;
0133104160999992009010312504+51517+007617FM-15+0148EDLW V0202401N003610120019N0112651N1+00001-00501999999ADDGA1071+012001999GF107991999999999999999999MA1102611999999REMMET064METAR EDLW 031250Z 24007KT 9999 BKN040 M00/M05 Q1026 RMK ATIS R;
0133104160999992009010313204+51517+007617FM-15+0148EDLW V0202101N003610132019N0112651N1+00001-00701999999ADDGA1071+013201999GF107991999999999999999999MA1102611999999REMMET064METAR EDLW 031320Z 21007KT 9999 BKN044 M00/M07 Q1026 RMK ATIS S;
0133104160999992009010313504+51517+007617FM-15+0148EDLW V0202201N004610132019N0112651N1+00001-00701999999ADDGA1071+013201999GF107991999999999999999999MA1102511999999REMMET064METAR EDLW 031350Z 22009KT 9999 BKN044 M00/M07 Q1025 RMK ATIS T;
0141104160999992009010314204+51517+007617FM-15+0148EDLW V0202501N002610129019N0112651N1-00101-00601999999ADDGA1071+012901999GF107991999999999999999999MA1102511999999REMMET072METAR EDLW 031420Z 25005KT 220V290 9999 BKN043 M01/M06 Q1025 RMK ATIS U;
0133104160999992009010314504+51517+007617FM-15+0148EDLW V0202601N003110120019N0112651N1-00101-00701999999ADDGA1071+012001999GF107991999999999999999999MA1102511999999REMMET064METAR EDLW 031450Z 26006KT 9999 BKN040 M01/M07 Q1025 RMK ATIS V;
0133104160999992009010315204+51517+007617FM-15+0148EDLW V0202501N004110120019N0112651N1-00101-00701999999ADDGA1071+012001999GF107991999999999999999999MA1102511999999REMMET064METAR EDLW 031520Z 25008KT 9999 BKN040 M01/M07 Q1025 RMK ATIS W;
0133104160999992009010315504+51517+007617FM-15+0148EDLW V0202501N003610126019N0112651N1-00101-00701999999ADDGA1071+012601999GF107991999999999999999999MA1102511999999REMMET064METAR EDLW 031550Z 25007KT 9999 BKN042 M01/M07 Q1025 RMK ATIS X;
0133104160999992009010316204+51517+007617FM-15+0148EDLW V0202401N004610126019N0112651N1-00101-00701999999ADDGA1071+012601999GF107991999999999999999999MA1102401999999REMMET064METAR EDLW 031620Z 24009KT 9999 BKN042 M01/M07 Q1024 RMK ATIS Y;
0133104160999992009010316504+51517+007617FM-15+0148EDLW V0202501N004110120019N0112651N1-00101-00801999999ADDGA1071+012001999GF107991999999999999999999MA1102401999999REMMET064METAR EDLW 031650Z 25008KT 9999 BKN040 M01/M08 Q1024 RMK ATIS Z;
0133104160999992009010317204+51517+007617FM-15+0148EDLW V0202401N004610126019N0112651N1-00201-00801999999ADDGA1071+012601999GF107991999999999999999999MA1102401999999REMMET064METAR EDLW 031720Z 24009KT 9999 BKN042 M02/M08 Q1024 RMK ATIS A;
0133104160999992009010317504+51517+007617FM-15+0148EDLW V0202501N004110111019N0112651N1-00101-00801999999ADDGA1071+011101999GF107991999999999999999999MA1102401999999REMMET064METAR EDLW 031750Z 25008KT 9999 BKN037 M01/M08 Q1024 RMK ATIS B;
0085104160999992009010318204+51517+007617FM-15+0148EDLW V0202501N00411220001CN0099001N1-00201-00801999999ADDMA1102401999999REMMET058METAR EDLW 031820Z 25008KT CAVOK M02/M08 Q1024 RMK ATIS C;
0133104160999992009010318504+51517+007617FM-15+0148EDLW V0202401N004610120019N0112651N1-00101-00801999999ADDGA1071+012001999GF107991999999999999999999MA1102401999999REMMET064METAR EDLW 031850Z 24009KT 9999 BKN040 M01/M08 Q1024 RMK ATIS D;
0133104160999992009010319204+51517+007617FM-15+0148EDLW V0202401N004610114019N0112651N1-00101-00801999999ADDGA1071+011401999GF107991999999999999999999MA1102301999999REMMET064METAR EDLW 031920Z 24009KT 9999 BKN038 M01/M08 Q1023 RMK ATIS E;
0133104160999992009010319504+51517+007617FM-15+0148EDLW V0202501N004610111019N0112651N1-00101-00701999999ADDGA1071+011101999GF107991999999999999999999MA1102301999999REMMET064METAR EDLW 031950Z 25009KT 9999 BKN037 M01/M07 Q1023 RMK ATIS F;
0133104160999992009010320204+51517+007617FM-15+0148EDLW V0202401N005710111019N0112651N1-00101-00701999999ADDGA1071+011101999GF107991999999999999999999MA1102301999999REMMET064METAR EDLW 032020Z 24011KT 9999 BKN037 M01/M07 Q1023 RMK ATIS G;
0122104160999992009010320504+51517+007617FM-15+0148EDLW V0202401N005110111019N0112651N1-00101-00701999999ADDGA1071+011101999GF107991999999999999999999MA1102301999999REMMET053METAR EDLW 032050Z 24010KT 9999 BKN037 M01/M07 Q1023;
0173104160999992009010404204+51517+007617FM-15+0148EDLW V0202501N004610027019N0050001N1-00101-00201999999ADDGA1021+001501999GA2071+002701999GF107991999999999999999999MA1102001999999MW1771REMMET082METAR EDLW 040420Z 25009KT 220V280 5000 SG FEW005 BKN009 M01/M02 Q1020 RMK ATIS A;
0156104160999992009010404504+51517+007617FM-15+0148EDLW V0202401N005110063019N0070001N1-00101-00201999999ADDGA1021+003001999GA2071+006301999GF107991999999999999999999MA1102001999999REMMET071METAR EDLW 040450Z 24010KT 7000 FEW010 BKN021 M01/M02 Q1020 RMK ATIS B;
0156104160999992009010405204+51517+007617FM-15+0148EDLW V0202501N005110087019N0080001N1-00101-00201999999ADDGA1021+006301999GA2071+008701999GF107991999999999999999999MA1102001999999REMMET071METAR EDLW 040520Z 25010KT 8000 FEW021 BKN029 M01/M02 Q1020 RMK ATIS C;
0133104160999992009010405504+51517+007617FM-15+0148EDLW V0202501N005710081019N0080001N1-00101-00301999999ADDGA1071+008101999GF107991999999999999999999MA1102001999999REMMET064METAR EDLW 040550Z 25011KT 8000 BKN027 M01/M03 Q1020 RMK ATIS D;
0133104160999992009010406204+51517+007617FM-15+0148EDLW V0202501N005110087019N0070001N1-00101-00301999999ADDGA1071+008701999GF107991999999999999999999MA1102001999999REMMET064METAR EDLW 040620Z 25010KT 7000 BKN029 M01/M03 Q1020 RMK ATIS E;
0133104160999992009010406504+51517+007617FM-15+0148EDLW V0202501N004610099019N0112651N1-00101-00301999999ADDGA1071+009901999GF107991999999999999999999MA1101901999999REMMET064METAR EDLW 040650Z 25009KT 9999 BKN033 M01/M03 Q1019 RMK ATIS F;
0133104160999992009010407204+51517+007617FM-15+0148EDLW V0202401N005110084019N0090001N1+00001-00301999999ADDGA1071+008401999GF107991999999999999999999MA1101901999999REMMET064METAR EDLW 040720Z 24010KT 9000 BKN028 M00/M03 Q1019 RMK ATIS G;
0133104160999992009010407504+51517+007617FM-15+0148EDLW V0202501N004110084019N0080001N1+00001-00301999999ADDGA1081+008401999GF108991999999999999999999MA1101901999999REMMET064METAR EDLW 040750Z 25008KT 8000 OVC028 M00/M03 Q1019 RMK ATIS H;
0133104160999992009010408204+51517+007617FM-15+0148EDLW V0202501N004610078019N0090001N1+00001-00301999999ADDGA1081+007801999GF108991999999999999999999MA1101901999999REMMET064METAR EDLW 040820Z 25009KT 9000 OVC026 M00/M03 Q1019 RMK ATIS I;
0133104160999992009010408504+51517+007617FM-15+0148EDLW V0202501N005110078019N0090001N1+00001-00301999999ADDGA1081+007801999GF108991999999999999999999MA1101901999999REMMET064METAR EDLW 040850Z 25010KT 9000 OVC026 M00/M03 Q1019 RMK ATIS J;
0156104160999992009010409204+51517+007617FM-15+0148EDLW V0202501N006210099019N0090001N1+00001-00301999999ADDGA1021+005701999GA2071+009901999GF107991999999999999999999MA1101901999999REMMET071METAR EDLW 040920Z 25012KT 9000 FEW019 BKN033 M00/M03 Q1019 RMK ATIS K;
0133104160999992009010409504+51517+007617FM-15+0148EDLW V0202501N006210063019N0090001N1+00001-00301999999ADDGA1071+006301999GF107991999999999999999999MA1101901999999REMMET064METAR EDLW 040950Z 25012KT 9000 BKN021 M00/M03 Q1019 RMK ATIS L;
0175104160999992009010410204+51517+007617FM-15+0148EDLW V0202501N006710069019N0050001N1+00001-00301999999ADDGA1021+002401999GA2071+006901999GF107991999999999999999999MA1101801999999MW1101MW2711REMMET078METAR EDLW 041020Z 25013KT 5000 -SN BR FEW008 BKN023 M00/M03 Q1018 RMK ATIS M;
0156104160999992009010410504+51517+007617FM-15+0148EDLW V0202401N007710060019N0060001N1+00001-00201999999ADDGA1021+003301999GA2071+006001999GF107991999999999999999999MA1101801999999REMMET071METAR EDLW 041050Z 24015KT 6000 FEW011 BKN020 M00/M02 Q1018 RMK ATIS N;
0156104160999992009010411204+51517+007617FM-15+0148EDLW V0202401N007710057019N0080001N1+00001-00201999999ADDGA1021+003601999GA2081+005701999GF108991999999999999999999MA1101801999999REMMET071METAR EDLW 041120Z 24015KT 8000 FEW012 OVC019 M00/M02 Q1018 RMK ATIS O;
0156104160999992009010411504+51517+007617FM-15+0148EDLW V0202401N007710045019N0070001N1+00001-00201999999ADDGA1021+002401999GA2071+004501999GF107991999999999999999999MA1101691999999REMMET071METAR EDLW 041150Z 24015KT 7000 FEW008 BKN015 M00/M02 Q1017 RMK ATIS P;
0152104160999992009010412504+51517+007617FM-15+0148EDLW V0202401N007210018019N0015001N1-00101-00201999999ADDGA1071+001801999GF107991999999999999999999MA1101691999999MW1101MW2711REMMET071METAR EDLW 041250Z 24014KT 1500 -SN BR BKN006 M01/M02 Q1017 RMK ATIS R;
0175104160999992009010413204+51517+007617FM-15+0148EDLW V0202401N007210027019N0025001N1-00101-00201999999ADDGA1071+002701999GA2071+005401999GF107991999999999999999999MA1101591999999MW1101MW2711REMMET078METAR EDLW 041320Z 24014KT 2500 -SN BR BKN009 BKN018 M01/M02 Q1016 RMK ATIS S;
0196104160999992009010413504+51517+007617FM-15+0148EDLW V0202401N007210015019N0020001N1-00101-00101999999ADDED199U14009GA1071+001501999GA2071+005401999GF107991999999999999999999MA1101591999999MW1101MW2711REMMET088METAR EDLW 041350Z 24014KT 2000 R24/1400N -SN BR BKN005 BKN018 M01/M01 Q1016 RMK ATIS T;
0143104160999992009010414204+51517+007617FM-15+0148EDLW V0202401N006710024019N0020001N1-00101-00101999999ADDGA1081+002401999GF108991999999999999999999MA1101591999999MW1711REMMET068METAR EDLW 041420Z 24013KT 2000 -SN OVC008 M01/M01 Q1016 RMK ATIS U;
0143104160999992009010414504+51517+007617FM-15+0148EDLW V0202401N007710021019N0020001N1-00101-00101999999ADDGA1081+002101999GF108991999999999999999999MA1101591999999MW1711REMMET068METAR EDLW 041450Z 24015KT 2000 -SN OVC007 M01/M01 Q1016 RMK ATIS V;
0143104160999992009010415204+51517+007617FM-15+0148EDLW V0202401N007210021019N0025001N1-00101-00101999999ADDGA1081+002101999GF108991999999999999999999MA1101591999999MW1711REMMET068METAR EDLW 041520Z 24014KT 2500 -SN OVC007 M01/M01 Q1016 RMK ATIS W;
0151104160999992009010415504+51517+007617FM-15+0148EDLW V0202401N006710021019N0020001N1-00101-00101999999ADDGA1081+002101999GF108991999999999999999999MA1101491999999MW1711REMMET076METAR EDLW 041550Z 24013KT 220V280 2000 -SN OVC007 M01/M01 Q1015 RMK ATIS X;
0143104160999992009010416204+51517+007617FM-15+0148EDLW V0202401N007710027019N0020001N1-00101-00101999999ADDGA1081+002701999GF108991999999999999999999MA1101491999999MW1711REMMET068METAR EDLW 041620Z 24015KT 2000 -SN OVC009 M01/M01 Q1015 RMK ATIS Y;
0143104160999992009010416504+51517+007617FM-15+0148EDLW V0202401N008210030019N0020001N1-00101-00101999999ADDGA1081+003001999GF108991999999999999999999MA1101491999999MW1711REMMET068METAR EDLW 041650Z 24016KT 2000 -SN OVC010 M01/M01 Q1015 RMK ATIS Z;
0143104160999992009010417204+51517+007617FM-15+0148EDLW V0202401N008210030019N0020001N1-00101-00101999999ADDGA1081+003001999GF108991999999999999999999MA1101491999999MW1711REMMET068METAR EDLW 041720Z 24016KT 2000 -SN OVC010 M01/M01 Q1015 RMK ATIS A;
0143104160999992009010417504+51517+007617FM-15+0148EDLW V0202401N008210018019N0020001N1-00101-00101999999ADDGA1081+001801999GF108991999999999999999999MA1101491999999MW1711REMMET068METAR EDLW 041750Z 24016KT 2000 -SN OVC006 M01/M01 Q1015 RMK ATIS B;
0143104160999992009010418204+51517+007617FM-15+0148EDLW V0202401N008710018019N0020001N1-00101-00101999999ADDGA1081+001801999GF108991999999999999999999MA1101491999999MW1711REMMET068METAR EDLW 041820Z 24017KT 2000 -SN OVC006 M01/M01 Q1015 RMK ATIS C;
0163104160999992009010418504+51517+007617FM-15+0148EDLW V0202401N008210015019N0020001N1-00101-00101999999ADDED199U10009GA1081+001501999GF108991999999999999999999MA1101491999999MW1731REMMET077METAR EDLW 041850Z 24016KT 2000 R24/1000N SN OVC005 M01/M01 Q1015 RMK ATIS D;
0164104160999992009010419204+51517+007617FM-15+0148EDLW V0202401N007710015019N0025001N1-00101-00101999999ADDED199U12009GA1081+001501999GF108991999999999999999999MA1101491999999MW1711REMMET078METAR EDLW 041920Z 24015KT 2500 R24/1200N -SN OVC005 M01/M01 Q1015 RMK ATIS E;
0158104160999992009010419504+51517+007617FM-15+0148EDLW V0202401N007210018019N0025001N1-00101-00101999999ADDGA1081+001801999GF108991999999999999999999MA1101391999999MW1711REMMET083METAR EDLW 041950Z 24014KT 2500 R24/1200V1700U -SN OVC006 M01/M01 Q1014 RMK ATIS F;
0143104160999992009010420204+51517+007617FM-15+0148EDLW V0202401N006710018019N0020001N1-00101-00101999999ADDGA1081+001801999GF108991999999999999999999MA1101391999999MW1711REMMET068METAR EDLW 042020Z 24013KT 2000 -SN OVC006 M01/M01 Q1014 RMK ATIS G;
0142104160999992009010420504+51517+007617FM-15+0148EDLW V0202501N006710015019N0018001N1-00101-00101999999ADDGA1081+001501999GF108991999999999999999999MA1101391999999MW1731REMMET067METAR EDLW 042050Z 25013KT 1800 SN OVC005 M01/M01 Q1014 RMK ATIS H;
0195104160999992009010504204+51517+007617FM-15+0148EDLW V0202301N001510027019N0012001N1-00101-00101999999ADDED199U20009GA1021+001201999GA2071+002701999GF107991999999999999999999MA1101491999999MW1101MW2731REMMET087METAR EDLW 050420Z 23003KT 1200 R24/2000N SN BR FEW004 BKN009 M01/M01 Q1015 RMK ATIS A;
0169104160999992009010504504+51517+007617FM-15+0148EDLW V0209999V001510012019N0006001N1-00101-00101999999ADDGA1071+001201999GF107991999999999999999999MA1101491999999MW1481MW2731REMMET088METAR EDLW 050450Z VRB03KT 0600 R24/1300VP2000D SN FZFG BKN004 M01/M01 Q1015 RMK ATIS B;
0173104160999992009010505204+51517+007617FM-15+0148EDLW V0209999V00101000151CN0006001N1-00101-00101999999ADDED199U13009GA1091+000151999GF109991999999000251999999MA1101491999999MW1491MW2731REMMET081METAR EDLW 050520Z VRB02KT 0600 R24/1300U SN FZFG VV/// M01/M01 Q1015 RMK ATIS C;
0180104160999992009010505504+51517+007617FM-15+0148EDLW V0200601N002610021019N0020001N1-00101-00101999999ADDGA1071+002101999GA2071+006601999GF107991999999999999999999MA1101491999999MW1101MW2711REMMET083METAR EDLW 050550Z 06005KT 2000 -SN BR BKN007 BKN022 M01/M01 Q1015 RESN RMK ATIS D;
0152104160999992009010506204+51517+007617FM-15+0148EDLW V0200601N003110018019N0020001N1-00101-00101999999ADDGA1071+001801999GF107991999999999999999999MA1101491999999MW1101MW2711REMMET071METAR EDLW 050620Z 06006KT 2000 -SN BR BKN006 M01/M01 Q1015 RMK ATIS E;
0143104160999992009010506504+51517+007617FM-15+0148EDLW V0200601N004610021019N0060001N1-00101-00101999999ADDGA1071+002101999GF107991999999999999999999MA1101591999999MW1711REMMET068METAR EDLW 050650Z 06009KT 6000 -SN BKN007 M01/M01 Q1016 RMK ATIS F;
0166104160999992009010507204+51517+007617FM-15+0148EDLW V0200701N006210105019N0090001N1-00201-00201999999ADDGA1021+003601999GA2071+010501999GF107991999999999999999999MA1101591999999MW1711REMMET075METAR EDLW 050720Z 07012KT 9000 -SN FEW012 BKN035 M02/M02 Q1016 RMK ATIS G;
0156104160999992009010507504+51517+007617FM-15+0148EDLW V0200501N005710069019N0112651N1-00201-00201999999ADDGA1041+003601999GA2071+006901999GF107991999999999999999999MA1101691999999REMMET071METAR EDLW 050750Z 05011KT 9999 SCT012 BKN023 M02/M02 Q1017 RMK ATIS H;
0133104160999992009010508204+51517+007617FM-15+0148EDLW V0200501N007210045019N0112651N1-00201-00201999999ADDGA1071+004501999GF107991999999999999999999MA1101691999999REMMET064METAR EDLW 050820Z 05014KT 9999 BKN015 M02/M02 Q1017 RMK ATIS I;
0133104160999992009010508504+51517+007617FM-15+0148EDLW V0200601N006710060019N0112651N1-00201-00201999999ADDGA1071+006001999GF107991999999999999999999MA1101801999999REMMET064METAR EDLW 050850Z 06013KT 9999 BKN020 M02/M02 Q1018 RMK ATIS J;
0133104160999992009010509204+51517+007617FM-15+0148EDLW V0200501N006210066019N0112651N1-00301-00301999999ADDGA1071+006601999GF107991999999999999999999MA1101901999999REMMET064METAR EDLW 050920Z 05012KT 9999 BKN022 M03/M03 Q1019 RMK ATIS K;
0133104160999992009010509504+51517+007617FM-15+0148EDLW V0200601N006212200019N0112651N1-00301-00301999999ADDGA1021+006601999GF102991999999999999999999MA1101901999999REMMET064METAR EDLW 050950Z 06012KT 9999 FEW022 M03/M03 Q1019 RMK ATIS L;
0133104160999992009010510204+51517+007617FM-15+0148EDLW V0200601N005112200019N0112651N1-00301-00301999999ADDGA1021+012301999GF102991999999999999999999MA1101901999999REMMET064METAR EDLW 051020Z 06010KT 9999 FEW041 M03/M03 Q1019 RMK ATIS M;
0085104160999992009010510504+51517+007617FM-15+0148EDLW V0200601N00511220001CN0099001N1-00201-00301999999ADDMA1101901999999REMMET058METAR EDLW 051050Z 06010KT CAVOK M02/M03 Q1019 RMK ATIS N;
0085104160999992009010511204+51517+007617FM-15+0148EDLW V0200701N00621220001CN0099001N1-00201-00401999999ADDMA1101901999999REMMET058METAR EDLW 051120Z 07012KT CAVOK M02/M04 Q1019 RMK ATIS O;
0085104160999992009010511504+51517+007617FM-15+0148EDLW V0200601N00461220001CN0099001N1-00201-00401999999ADDMA1102001999999REMMET058METAR EDLW 051150Z 06009KT CAVOK M02/M04 Q1020 RMK ATIS P;
0133104160999992009010512204+51517+007617FM-15+0148EDLW V0200701N004112200019N0112651N1-00201-00401999999ADDGA1041+006001999GF104991999999999999999999MA1102001999999REMMET064METAR EDLW 051220Z 07008KT 9999 SCT020 M02/M04 Q1020 RMK ATIS Q;
0133104160999992009010512504+51517+007617FM-15+0148EDLW V0200601N004112200019N0112651N1-00201-00401999999ADDGA1041+004201999GF104991999999999999999999MA1102001999999REMMET064METAR EDLW 051250Z 06008KT 9999 SCT014 M02/M04 Q1020 RMK ATIS R;
0133104160999992009010513204+51517+007617FM-15+0148EDLW V0200701N004610063019N0112651N1-00201-00401999999ADDGA1071+006301999GF107991999999999999999999MA1102001999999REMMET064METAR EDLW 051320Z 07009KT 9999 BKN021 M02/M04 Q1020 RMK ATIS S;
0133104160999992009010513504+51517+007617FM-15+0148EDLW V0200501N005110051019N0112651N1-00301-00501999999ADDGA1071+005101999GF107991999999999999999999MA1102101999999REMMET064METAR EDLW 051350Z 05010KT 9999 BKN017 M03/M05 Q1021 RMK ATIS T;
0156104160999992009010514204+51517+007617FM-15+0148EDLW V0200601N004610051019N0112651N1-00301-00501999999ADDGA1071+005101999GA2071+010201999GF107991999999999999999999MA1102101999999REMMET071METAR EDLW 051420Z 06009KT 9999 BKN017 BKN034 M03/M05 Q1021 RMK ATIS U;
0156104160999992009010514504+51517+007617FM-15+0148EDLW V0200501N004110102019N0112651N1-00301-00501999999ADDGA1021+005101999GA2071+010201999GF107991999999999999999999MA1102101999999REMMET071METAR EDLW 051450Z 05008KT 9999 FEW017 BKN034 M03/M05 Q1021 RMK ATIS V;
0122104160999992009010515204+51517+007617FM-15+0148EDLW V0200501N004110099019N0112651N1-00301-00501999999ADDGA1071+009901999GF107991999999999999999999MA1102201999999REMMET053METAR EDLW 051520Z 05008KT 9999 BKN033 M03/M05 Q1022;
0133104160999992009010515504+51517+007617FM-15+0148EDLW V0200501N004610099019N0112651N1-00301-00601999999ADDGA1071+009901999GF107991999999999999999999MA1102201999999REMMET064METAR EDLW 051550Z 05009KT 9999 BKN033 M03/M06 Q1022 RMK ATIS X;
0156104160999992009010516204+51517+007617FM-15+0148EDLW V0200501N004610108019N0112651N1-00301-00601999999ADDGA1021+005401999GA2071+010801999GF107991999999999999999999MA1102201999999REMMET071METAR EDLW 051620Z 05009KT 9999 FEW018 BKN036 M03/M06 Q1022 RMK ATIS Y;
0141104160999992009010516504+51517+007617FM-15+0148EDLW V0200501N004610099019N0112651N1-00301-00501999999ADDGA1071+009901999GF107991999999999999999999MA1102301999999REMMET072METAR EDLW 051650Z 05009KT 020V080 9999 BKN033 M03/M05 Q1023 RMK ATIS Z;
0133104160999992009010517204+51517+007617FM-15+0148EDLW V0200501N003612200019N0112651N1-00401-00601999999ADDGA1021+004201999GF102991999999999999999999MA1102301999999REMMET064METAR EDLW 051720Z 05007KT 9999 FEW014 M04/M06 Q1023 RMK ATIS A;
0133104160999992009010517504+51517+007617FM-15+0148EDLW V0200501N003612200019N0112651N1-00501-00601999999ADDGA1041+008101999GF104991999999999999999999MA1102301999999REMMET064METAR EDLW 051750Z 05007KT 9999 SCT027 M05/M06 Q1023 RMK ATIS B;
0133104160999992009010518204+51517+007617FM-15+0148EDLW V0200501N003112200019N0112651N1-00501-00601999999ADDGA1041+006301999GF104991999999999999999999MA1102301999999REMMET064METAR EDLW 051820Z 05006KT 9999 SCT021 M05/M06 Q1023 RMK ATIS C;
0156104160999992009010518504+51517+007617FM-15+0148EDLW V0200501N004612200019N0112651N1-00501-00601999999ADDGA1021+004501999GA2041+006301999GF104991999999999999999999MA1102401999999REMMET071METAR EDLW 051850Z 05009KT 9999 FEW015 SCT021 M05/M06 Q1024 RMK ATIS D;
0133104160999992009010519204+51517+007617FM-15+0148EDLW V0200501N003612200019N0112651N1-00501-00701999999ADDGA1041+005701999GF104991999999999999999999MA1102401999999REMMET064METAR EDLW 051920Z 05007KT 9999 SCT019 M05/M07 Q1024 RMK ATIS E;
0085104160999992009010519504+51517+007617FM-15+0148EDLW V0200501N00461220001CN0099001N1-00601-00701999999ADDMA1102401999999REMMET058METAR EDLW 051950Z 05009KT CAVOK M06/M07 Q1024 RMK ATIS F;
0085104160999992009010520204+51517+007617FM-15+0148EDLW V0200701N00511220001CN0099001N1-00601-00901999999ADDMA1102511999999REMMET058METAR EDLW 052020Z 07010KT CAVOK M06/M09 Q1025 RMK ATIS G;
0074104160999992009010520504+51517+007617FM-15+0148EDLW V0200601N00411220001CN0099001N1-00701-00901999999ADDMA1102511999999REMMET047METAR EDLW 052050Z 06008KT CAVOK M07/M09 Q1025;
0133104160999992009010604204+51517+007617FM-15+0148EDLW V0209999V001012200019N0112651N1-01301-01501999999ADDGA1021+001801999GF102991999999999999999999MA1102611999999REMMET064METAR EDLW 060420Z VRB02KT 9999 FEW006 M13/M15 Q1026 RMK ATIS A;
0085104160999992009010604504+51517+007617FM-15+0148EDLW V0200801N00151220001CN0099001N1-01401-01501999999ADDMA1102611999999REMMET058METAR EDLW 060450Z 08003KT CAVOK M14/M15 Q1026 RMK ATIS B;
0085104160999992009010605204+51517+007617FM-15+0148EDLW V0200701N00151220001CN0099001N1-01301-01401999999ADDMA1102611999999REMMET058METAR EDLW 060520Z 07003KT CAVOK M13/M14 Q1026 RMK ATIS C;
0085104160999992009010605504+51517+007617FM-15+0148EDLW V0209999V00101220001CN0099001N1-01401-01601999999ADDMA1102511999999REMMET058METAR EDLW 060550Z VRB02KT CAVOK M14/M16 Q1025 RMK ATIS D;
0085104160999992009010606204+51517+007617FM-15+0148EDLW V0209999V00101220001CN0099001N1-01501-01601999999ADDMA1102611999999REMMET058METAR EDLW 060620Z VRB02KT CAVOK M15/M16 Q1026 RMK ATIS E;
0085104160999992009010606504+51517+007617FM-15+0148EDLW V0209999V00151220001CN0099001N1-01501-01601999999ADDMA1102611999999REMMET058METAR EDLW 060650Z VRB03KT CAVOK M15/M16 Q1026 RMK ATIS F;
0085104160999992009010607204+51517+007617FM-15+0148EDLW V0200901N00101220001CN0099001N1-01401-01601999999ADDMA1102611999999REMMET058METAR EDLW 060720Z 09002KT CAVOK M14/M16 Q1026 RMK ATIS G;
0085104160999992009010607504+51517+007617FM-15+0148EDLW V0200601N00151220001CN0099001N1-01501-01701999999ADDMA1102611999999REMMET058METAR EDLW 060750Z 06003KT CAVOK M15/M17 Q1026 RMK ATIS H;
0085104160999992009010608204+51517+007617FM-15+0148EDLW V0200601N00211220001CN0099001N1-01401-01601999999ADDMA1102611999999REMMET058METAR EDLW 060820Z 06004KT CAVOK M14/M16 Q1026 RMK ATIS I;
0085104160999992009010608504+51517+007617FM-15+0148EDLW V0200601N00261220001CN0099001N1-01401-01501999999ADDMA1102611999999REMMET058METAR EDLW 060850Z 06005KT CAVOK M14/M15 Q1026 RMK ATIS J;
0085104160999992009010609204+51517+007617FM-15+0148EDLW V0200501N00311220001CN0099001N1-01301-01401999999ADDMA1102611999999REMMET058METAR EDLW 060920Z 05006KT CAVOK M13/M14 Q1026 RMK ATIS K;
0085104160999992009010609504+51517+007617FM-15+0148EDLW V0200601N00311220001CN0099001N1-01201-01401999999ADDMA1102611999999REMMET058METAR EDLW 060950Z 06006KT CAVOK M12/M14 Q1026 RMK ATIS L;
0085104160999992009010610204+51517+007617FM-15+0148EDLW V0200501N00261220001CN0099001N1-01201-01301999999ADDMA1102611999999REMMET058METAR EDLW 061020Z 05005KT CAVOK M12/M13 Q1026 RMK ATIS M;
0085104160999992009010610504+51517+007617FM-15+0148EDLW V0200301N00311220001CN0099001N1-01201-01301999999ADDMA1102511999999REMMET058METAR EDLW 061050Z 03006KT CAVOK M12/M13 Q1025 RMK ATIS N;
0085104160999992009010611204+51517+007617FM-15+0148EDLW V0200501N00311220001CN0099001N1-01101-01201999999ADDMA1102511999999REMMET058METAR EDLW 061120Z 05006KT CAVOK M11/M12 Q1025 RMK ATIS O;
0093104160999992009010611504+51517+007617FM-15+0148EDLW V0200501N00261220001CN0099001N1-01001-01201999999ADDMA1102511999999REMMET066METAR EDLW 061150Z 05005KT 020V080 CAVOK M10/M12 Q1025 RMK ATIS P;
0085104160999992009010612204+51517+007617FM-15+0148EDLW V0200601N00311220001CN0099001N1-00901-01201999999ADDMA1102401999999REMMET058METAR EDLW 061220Z 06006KT CAVOK M09/M12 Q1024 RMK ATIS Q;
0085104160999992009010612504+51517+007617FM-15+0148EDLW V0200701N00261220001CN0099001N1-00901-01301999999ADDMA1102401999999REMMET058METAR EDLW 061250Z 07005KT CAVOK M09/M13 Q1024 RMK ATIS R;
0085104160999992009010613204+51517+007617FM-15+0148EDLW V0200601N00361220001CN0099001N1-00801-01101999999ADDMA1102401999999REMMET058METAR EDLW 061320Z 06007KT CAVOK M08/M11 Q1024 RMK ATIS S;
0085104160999992009010613504+51517+007617FM-15+0148EDLW V0200701N00311220001CN0099001N1-00901-01301999999ADDMA1102401999999REMMET058METAR EDLW 061350Z 07006KT CAVOK M09/M13 Q1024 RMK ATIS T;
0085104160999992009010614204+51517+007617FM-15+0148EDLW V0200701N00311220001CN0099001N1-00801-01301999999ADDMA1102401999999REMMET058METAR EDLW 061420Z 07006KT CAVOK M08/M13 Q1024 RMK ATIS U;
0085104160999992009010614504+51517+007617FM-15+0148EDLW V0200801N00261220001CN0099001N1-00901-01301999999ADDMA1102301999999REMMET058METAR EDLW 061450Z 08005KT CAVOK M09/M13 Q1023 RMK ATIS V;
0085104160999992009010615204+51517+007617FM-15+0148EDLW V0200701N00311220001CN0099001N1-01101-01401999999ADDMA1102301999999REMMET058METAR EDLW 061520Z 07006KT CAVOK M11/M14 Q1023 RMK ATIS W;
0085104160999992009010615504+51517+007617FM-15+0148EDLW V0209999V00101220001CN0099001N1-01201-01501999999ADDMA1102301999999REMMET058METAR EDLW 061550Z VRB02KT CAVOK M12/M15 Q1023 RMK ATIS X;
0085104160999992009010616204+51517+007617FM-15+0148EDLW V0201301N00151220001CN0099001N1-01001-01201999999ADDMA1102301999999REMMET058METAR EDLW 061620Z 13003KT CAVOK M10/M12 Q1023 RMK ATIS Y;
0085104160999992009010616504+51517+007617FM-15+0148EDLW V0201301N00101220001CN0099001N1-01101-01301999999ADDMA1102301999999REMMET058METAR EDLW 061650Z 13002KT CAVOK M11/M13 Q1023 RMK ATIS Z;
0085104160999992009010617204+51517+007617FM-15+0148EDLW V0201201N00151220001CN0099001N1-01101-01301999999ADDMA1102301999999REMMET058METAR EDLW 061720Z 12003KT CAVOK M11/M13 Q1023 RMK ATIS A;
0085104160999992009010617504+51517+007617FM-15+0148EDLW V0200801N00151220001CN0099001N1-01201-01401999999ADDMA1102301999999REMMET058METAR EDLW 061750Z 08003KT CAVOK M12/M14 Q1023 RMK ATIS B;
0085104160999992009010618204+51517+007617FM-15+0148EDLW V0201001N00151220001CN0099001N1-01101-01301999999ADDMA1102301999999REMMET058METAR EDLW 061820Z 10003KT CAVOK M11/M13 Q1023 RMK ATIS C;
0085104160999992009010618504+51517+007617FM-15+0148EDLW V0201301N00311220001CN0099001N1-01101-01401999999ADDMA1102301999999REMMET058METAR EDLW 061850Z 13006KT CAVOK M11/M14 Q1023 RMK ATIS D;
0085104160999992009010619204+51517+007617FM-15+0148EDLW V0201501N00261220001CN0099001N1-01101-01301999999ADDMA1102301999999REMMET058METAR EDLW 061920Z 15005KT CAVOK M11/M13 Q1023 RMK ATIS E;
0085104160999992009010619504+51517+007617FM-15+0148EDLW V0201601N00361220001CN0099001N1-01201-01401999999ADDMA1102301999999REMMET058METAR EDLW 061950Z 16007KT CAVOK M12/M14 Q1023 RMK ATIS F;
0085104160999992009010620204+51517+007617FM-15+0148EDLW V0201701N00411220001CN0099001N1-01301-01401999999ADDMA1102201999999REMMET058METAR EDLW 062020Z 17008KT CAVOK M13/M14 Q1022 RMK ATIS G;
0085104160999992009010620504+51517+007617FM-15+0148EDLW V0201701N00411220001CN0099001N1-01301-01501999999ADDMA1102201999999REMMET058METAR EDLW 062050Z 17008KT CAVOK M13/M15 Q1022 RMK ATIS H;
0085104160999992009010621204+51517+007617FM-15+0148EDLW V0201701N00461220001CN0099001N1-01401-01601999999ADDMA1102201999999REMMET058METAR EDLW 062120Z 17009KT CAVOK M14/M16 Q1022 RMK ATIS I;
0133104160999992009010704204+51517+007617FM-15+0148EDLW V0201701N005110111019N0112651N1-01201-01601999999ADDGA1071+011101999GF107991999999999999999999MA1102001999999REMMET064METAR EDLW 070420Z 17010KT 9999 BKN037 M12/M16 Q1020 RMK ATIS A;
0179104160999992009010704504+51517+007617FM-15+0148EDLW V0201701N00461018001CN0112651N1-01101-01601999999ADDGA1041+010501999GA2041+018001999GA3071+024001999GF107991999999999999999999MA1102001999999REMMET078METAR EDLW 070450Z 17009KT 9999 SCT035 SCT065 BKN087 M11/M16 Q1020 RMK ATIS B;
0156104160999992009010705204+51517+007617FM-15+0148EDLW V0201801N004110180019N0112651N1-01001-01501999999ADDGA1041+006601999GA2071+018001999GF107991999999999999999999MA1102001999999REMMET071METAR EDLW 070520Z 18008KT 9999 SCT022 BKN067 M10/M15 Q1020 RMK ATIS C;
0143104160999992009010705504+51517+007617FM-15+0148EDLW V0201901N003610081019N0112651N1-01001-01401999999ADDGA1071+008101999GF107991999999999999999999MA1102001999999MW1711REMMET068METAR EDLW 070550Z 19007KT 9999 -SN BKN027 M10/M14 Q1020 RMK ATIS D;
0133104160999992009010706204+51517+007617FM-15+0148EDLW V0202201N002610066019N0112651N1-01001-01401999999ADDGA1071+006601999GF107991999999999999999999MA1102001999999REMMET064METAR EDLW 070620Z 22005KT 9999 BKN022 M10/M14 Q1020 RMK ATIS E;
0133104160999992009010706504+51517+007617FM-15+0148EDLW V0201901N004610048019N0112651N1-01001-01301999999ADDGA1071+004801999GF107991999999999999999999MA1102001999999REMMET064METAR EDLW 070650Z 19009KT 9999 BKN016 M10/M13 Q1020 RMK ATIS F;
0166104160999992009010707204+51517+007617FM-15+0148EDLW V0202001N004610021019N0050001N1-00901-01201999999ADDGA1071+002101999GA2081+004501999GF108991999999999999999999MA1102001999999MW1711REMMET075METAR EDLW 070720Z 20009KT 5000 -SN BKN007 OVC015 M09/M12 Q1020 RMK ATIS H;
0133104160999992009010707504+51517+007617FM-15+0148EDLW V0202101N003610036019N0060001N1-00801-01101999999ADDGA1081+003601999GF108991999999999999999999MA1102001999999REMMET064METAR EDLW 070750Z 21007KT 6000 OVC012 M08/M11 Q1020 RMK ATIS I;
0156104160999992009010708204+51517+007617FM-15+0148EDLW V0202101N004610030019N0112651N1-00801-01001999999ADDGA1071+003001999GA2081+006001999GF108991999999999999999999MA1102001999999REMMET071METAR EDLW 070820Z 21009KT 9999 BKN010 OVC020 M08/M10 Q1020 RMK ATIS J;
0133104160999992009010708504+51517+007617FM-15+0148EDLW V0202101N004610036019N0112651N1-00701-00901999999ADDGA1071+003601999GF107991999999999999999999MA1102001999999REMMET064METAR EDLW 070850Z 21009KT 9999 BKN012 M07/M09 Q1020 RMK ATIS K;
0133104160999992009010709204+51517+007617FM-15+0148EDLW V0202101N003610030019N0112651N1-00601-00801999999ADDGA1081+003001999GF108991999999999999999999MA1102001999999REMMET064METAR EDLW 070920Z 21007KT 9999 OVC010 M06/M08 Q1020 RMK ATIS L;
0133104160999992009010709504+51517+007617FM-15+0148EDLW V0202401N004610027019N0112651N1-00501-00801999999ADDGA1081+002701999GF108991999999999999999999MA1102001999999REMMET064METAR EDLW 070950Z 24009KT 9999 OVC009 M05/M08 Q1020 RMK ATIS M;
0133104160999992009010710204+51517+007617FM-15+0148EDLW V0202501N005110024019N0112651N1-00501-00701999999ADDGA1081+002401999GF108991999999999999999999MA1102001999999REMMET064METAR EDLW 071020Z 25010KT 9999 OVC008 M05/M07 Q1020 RMK ATIS N;
0133104160999992009010710504+51517+007617FM-15+0148EDLW V0202501N005110021019N0112651N1-00501-00701999999ADDGA1081+002101999GF108991999999999999999999MA1102001999999REMMET064METAR EDLW 071050Z 25010KT 9999 OVC007 M05/M07 Q1020 RMK ATIS O;
0133104160999992009010711204+51517+007617FM-15+0148EDLW V0202401N005710018019N0070001N1-00501-00601999999ADDGA1071+001801999GF107991999999999999999999MA1102001999999REMMET064METAR EDLW 071120Z 24011KT 7000 BKN006 M05/M06 Q1020 RMK ATIS P;
0133104160999992009010711504+51517+007617FM-15+0148EDLW V0202501N005110018019N0060001N1-00501-00601999999ADDGA1081+001801999GF108991999999999999999999MA1102001999999REMMET064METAR EDLW 071150Z 25010KT 6000 OVC006 M05/M06 Q1020 RMK ATIS Q;
0133104160999992009010712204+51517+007617FM-15+0148EDLW V0202501N004610018019N0060001N1-00501-00601999999ADDGA1081+001801999GF108991999999999999999999MA1102101999999REMMET064METAR EDLW 071220Z 25009KT 6000 OVC006 M05/M06 Q1021 RMK ATIS R;
0142104160999992009010712504+51517+007617FM-15+0148EDLW V0202501N004110018019N0045001N1-00501-00601999999ADDGA1081+001801999GF108991999999999999999999MA1102001999999MW1101REMMET067METAR EDLW 071250Z 25008KT 4500 BR OVC006 M05/M06 Q1020 RMK ATIS S;
0142104160999992009010713204+51517+007617FM-15+0148EDLW V0202401N005710018019N0040001N1-00501-00601999999ADDGA1081+001801999GF108991999999999999999999MA1102001999999MW1101REMMET067METAR EDLW 071320Z 24011KT 4000 BR OVC006 M05/M06 Q1020 RMK ATIS T;
0101104160999992009010713504+51517+007617FM-15+0148EDLW V0202601N002612200019N0040001N1-00501-00601999999ADDMA1102101999999MW1101REMMET068METAR EDLW 071350Z 26005KT 220V300 4000 BR M05/M06 Q1021 RMK ATIS U;
0142104160999992009010714204+51517+007617FM-15+0148EDLW V0202501N003110018019N0040001N1-00501-00601999999ADDGA1081+001801999GF108991999999999999999999MA1102101999999MW1101REMMET067METAR EDLW 071420Z 25006KT 4000 BR OVC006 M05/M06 Q1021 RMK ATIS V;
0140104160999992009010714504+51517+007617FM-15+0148EDLW V0202501N003110018019N0018001N1-00501-00601999999ADDGA1081+001801999GF108991999999999999999999MA1102101999999MW1101MW2731REMMET059METAR EDLW 071450Z 25006KT 1800 SN BR OVC006 M05/M06 Q1021;
0147104160999992009010715204+51517+007617FM-15+0148EDLW V0202201N004110024019N0030001N1-00501-00601999999ADDGA1081+002401999GF108991999999999999999999MA1102101999999MW1101REMMET072METAR EDLW 071520Z 22008KT 3000 BR OVC008 M05/M06 Q1021 RESN RMK ATIS X;
0142104160999992009010715504+51517+007617FM-15+0148EDLW V0202401N003110021019N0030001N1-00501-00501999999ADDGA1081+002101999GF108991999999999999999999MA1102201999999MW1101REMMET067METAR EDLW 071550Z 24006KT 3000 BR OVC007 M05/M05 Q1022 RMK ATIS Y;
0150104160999992009010716504+51517+007617FM-15+0148EDLW V0202501N002110018019N0040001N1-00401-00501999999ADDGA1081+001801999GF108991999999999999999999MA1102201999999MW1101REMMET075METAR EDLW 071650Z 25004KT 220V290 4000 BR OVC006 M04/M05 Q1022 RMK ATIS A;
0142104160999992009010717204+51517+007617FM-15+0148EDLW V0209999V001510015019N0040001N1-00401-00501999999ADDGA1081+001501999GF108991999999999999999999MA1102301999999MW1101REMMET067METAR EDLW 071720Z VRB03KT 4000 BR OVC005 M04/M05 Q1023 RMK ATIS B;
0142104160999992009010717504+51517+007617FM-15+0148EDLW V0209999V001510018019N0040001N1-00401-00501999999ADDGA1081+001801999GF108991999999999999999999MA1102301999999MW1101REMMET067METAR EDLW 071750Z VRB03KT 4000 BR OVC006 M04/M05 Q1023 RMK ATIS C;
0142104160999992009010718204+51517+007617FM-15+0148EDLW V0202301N002610012019N0040001N1-00401-00501999999ADDGA1081+001201999GF108991999999999999999999MA1102301999999MW1101REMMET067METAR EDLW 071820Z 23005KT 4000 BR OVC004 M04/M05 Q1023 RMK ATIS D;
0142104160999992009010718504+51517+007617FM-15+0148EDLW V0202101N002110006019N0030001N1-00401-00401999999ADDGA1081+000601999GF108991999999999999999999MA1102401999999MW1101REMMET067METAR EDLW 071850Z 21004KT 3000 BR OVC002 M04/M04 Q1024 RMK ATIS E;
0142104160999992009010719204+51517+007617FM-15+0148EDLW V0202101N001510006019N0025001N1-00401-00401999999ADDGA1081+000601999GF108991999999999999999999MA1102401999999MW1101REMMET067METAR EDLW 071920Z 21003KT 2500 BR OVC002 M04/M04 Q1024 RMK ATIS F;
0142104160999992009010719504+51517+007617FM-15+0148EDLW V0201901N002110006019N0025001N1-00401-00401999999ADDGA1081+000601999GF108991999999999999999999MA1102511999999MW1101REMMET067METAR EDLW 071950Z 19004KT 2500 BR OVC002 M04/M04 Q1025 RMK ATIS G;
0158104160999992009010804204+51517+007617FM-15+0148EDLW V0209999V00151000151CN0006001N1-00401-00401999999ADDGA1091+000151999GF109991999999000251999999MA1102911999999MW1491REMMET083METAR EDLW 080420Z VRB03KT 0600 R24/1200V2000D FZFG VV/// M04/M04 Q1029 RMK ATIS A;
0165104160999992009010804504+51517+007617FM-15+0148EDLW V0201401N00211000151CN0003001N1-00401-00501999999ADDED199U20009GA1091+000151999GF109991999999000251999999MA1102911999999MW1491REMMET079METAR EDLW 080450Z 14004KT 0300 R24/P2000D FZFG VV/// M04/M05 Q1029 RMK ATIS B;
0164104160999992009010805204+51517+007617FM-15+0148EDLW V0201101N00211000151CN0003001N1-00501-00501999999ADDED199U14009GA1091+000151999GF109991999999000251999999MA1102911999999MW1491REMMET078METAR EDLW 080520Z 11004KT 0300 R24/1400D FZFG VV/// M05/M05 Q1029 RMK ATIS D;
0166104160999992009010805504+51517+007617FM-15+0148EDLW V0200801N00211000151CN0003001N1-00501-00501999999ADDGA1091+000151999GF109991999999000251999999MA1102911999999MW1491REMMET091METAR EDLW 080550Z 08004KT 050V120 0300 R24/0900V1400U FZFG VV/// M05/M05 Q1029 RMK ATIS E;
0164104160999992009010806204+51517+007617FM-15+0148EDLW V0209999V00151000151CN0003001N1-00501-00501999999ADDED199U06509GA1091+000151999GF109991999999000251999999MA1102911999999MW1491REMMET078METAR EDLW 080620Z VRB03KT 0300 R06/0650N FZFG VV/// M05/M05 Q1029 RMK ATIS F;
0164104160999992009010806504+51517+007617FM-15+0148EDLW V0209999V00151000151CN0002501N1-00601-00601999999ADDED199U06509GA1091+000151999GF109991999999000251999999MA1102911999999MW1491REMMET078METAR EDLW 080650Z VRB03KT 0250 R06/0650N FZFG VV/// M06/M06 Q1029 RMK ATIS G;
0164104160999992009010807204+51517+007617FM-15+0148EDLW V0209999V00151000151CN0002501N1-00601-00601999999ADDED199U06509GA1091+000151999GF109991999999000251999999MA1103011999999MW1491REMMET078METAR EDLW 080720Z VRB03KT 0250 R06/0650D FZFG VV/// M06/M06 Q1030 RMK ATIS H;
0164104160999992009010807504+51517+007617FM-15+0148EDLW V0209999V00101000151CN0002501N1-00601-00601999999ADDED199U06509GA1091+000151999GF109991999999000251999999MA1103011999999MW1491REMMET078METAR EDLW 080750Z VRB02KT 0250 R06/0650U FZFG VV/// M06/M06 Q1030 RMK ATIS J;
0164104160999992009010808204+51517+007617FM-15+0148EDLW V0209999V00101000151CN0002501N1-00601-00701999999ADDED199U04509GA1091+000151999GF109991999999000251999999MA1103011999999MW1491REMMET078METAR EDLW 080820Z VRB02KT 0250 R06/0450D FZFG VV/// M06/M07 Q1030 RMK ATIS K;
0164104160999992009010808504+51517+007617FM-15+0148EDLW V0209999V00101000151CN0002501N1-00601-00701999999ADDED199U06509GA1091+000151999GF109991999999000251999999MA1103011999999MW1491REMMET078METAR EDLW 080850Z VRB02KT 0250 R06/0650N FZFG VV/// M06/M07 Q1030 RMK ATIS L;
0158104160999992009010809204+51517+007617FM-15+0148EDLW V0201801N00101000151CN0002501N1-00701-00701999999ADDGA1091+000151999GF109991999999000251999999MA1103121999999MW1491REMMET083METAR EDLW 080920Z 18002KT 0250 R06/0325V0450N FZFG VV/// M07/M07 Q1031 RMK ATIS M;
0159104160999992009010809504+51517+007617FM-15+0148EDLW V0209999V001010003019N0003501N1-00701-00701999999ADDGA1071+000301999GF107991999999999999999999MA1103121999999MW1481REMMET084METAR EDLW 080950Z VRB02KT 0350 R06/0800V1100U FZFG BKN001 M07/M07 Q1031 RMK ATIS N;
0142104160999992009010810204+51517+007617FM-15+0148EDLW V0209999V001012200019N0025001N1-00601-00601999999ADDGF100991999999999999999999MA1103121999999MW1101REMMET064METAR EDLW 081020Z VRB02KT 2500 BR SKC M06/M06 Q1031 RMK ATIS O;EQDQ01    003SCCGA1
0133104160999992009010810504+51517+007617FM-15+0148EDLW V0209999V000512200019N0050001N1-00501-00501999999ADDGF100991999999999999999999MA1103121999999REMMET061METAR EDLW 081050Z VRB01KT 5000 NSC M05/M05 Q1031 RMK ATIS P;EQDQ01    003SCCGA1
0133104160999992009010811204+51517+007617FM-15+0148EDLW V0201601N001012200019N0060001N1-00501-00501999999ADDGF100991999999999999999999MA1103011999999REMMET061METAR EDLW 081120Z 16002KT 6000 NSC M05/M05 Q1030 RMK ATIS Q;EQDQ01    003SCCGA1
0073104160999992009010811504+51517+007617FM-15+0148EDLW V0209999C000012200019N0050001N1-00101-00101999999ADDMA1103011999999REMMET046METAR EDLW 081150Z 00000KT 5000 M01/M01 Q1030;
0133104160999992009010812204+51517+007617FM-15+0148EDLW V0209999C000012200019N0050001N1-00401-00501999999ADDGF100991999999999999999999MA1103011999999REMMET061METAR EDLW 081220Z 00000KT 5000 NSC M04/M05 Q1030 RMK ATIS S;EQDQ01    003SCCGA1
0133104160999992009010812504+51517+007617FM-15+0148EDLW V0203601N002112200019N0070001N1-00501-00601999999ADDGF100991999999999999999999MA1103011999999REMMET061METAR EDLW 081250Z 36004KT 7000 NSC M05/M06 Q1030 RMK ATIS T;EQDQ01    003SCCGA1
0133104160999992009010813204+51517+007617FM-15+0148EDLW V0200701N001012200019N0060001N1-00501-00501999999ADDGF100991999999999999999999MA1103011999999REMMET061METAR EDLW 081320Z 07002KT 6000 NSC M05/M05 Q1030 RMK ATIS U;EQDQ01    003SCCGA1
0133104160999992009010813504+51517+007617FM-15+0148EDLW V0200601N001012200019N0060001N1-00401-00501999999ADDGF100991999999999999999999MA1103011999999REMMET061METAR EDLW 081350Z 06002KT 6000 NSC M04/M05 Q1030 RMK ATIS V;EQDQ01    003SCCGA1
0133104160999992009010814204+51517+007617FM-15+0148EDLW V0209999V000512200019N0060001N1-00501-00601999999ADDGF100991999999999999999999MA1103011999999REMMET061METAR EDLW 081420Z VRB01KT 6000 NSC M05/M06 Q1030 RMK ATIS W;EQDQ01    003SCCGA1
0133104160999992009010814504+51517+007617FM-15+0148EDLW V0209999V001012200019N0060001N1-00601-00601999999ADDGF100991999999999999999999MA1103011999999REMMET061METAR EDLW 081450Z VRB02KT 6000 NSC M06/M06 Q1030 RMK ATIS X;EQDQ01    003SCCGA1
0133104160999992009010815204+51517+007617FM-15+0148EDLW V0209999V001012200019N0060001N1-00701-00801999999ADDGF100991999999999999999999MA1103011999999REMMET061METAR EDLW 081520Z VRB02KT 6000 NSC M07/M08 Q1030 RMK ATIS Y;EQDQ01    003SCCGA1
0133104160999992009010815504+51517+007617FM-15+0148EDLW V0209999V001012200019N0060001N1-00801-00801999999ADDGF100991999999999999999999MA1103011999999REMMET061METAR EDLW 081550Z VRB02KT 6000 NSC M08/M08 Q1030 RMK ATIS Z;EQDQ01    003SCCGA1
0133104160999992009010816204+51517+007617FM-15+0148EDLW V0200401N001512200019N0050001N1-00901-00901999999ADDGF100991999999999999999999MA1103011999999REMMET061METAR EDLW 081620Z 04003KT 5000 NSC M09/M09 Q1030 RMK ATIS A;EQDQ01    003SCCGA1
0142104160999992009010816504+51517+007617FM-15+0148EDLW V0200701N001512200019N0040001N1-00901-00901999999ADDGF100991999999999999999999MA1103011999999MW1101REMMET064METAR EDLW 081650Z 07003KT 4000 BR NSC M09/M09 Q1030 RMK ATIS B;EQDQ01    003SCCGA1
0142104160999992009010817204+51517+007617FM-15+0148EDLW V0201101N001012200019N0040001N1-00801-00901999999ADDGF100991999999999999999999MA1103011999999MW1101REMMET064METAR EDLW 081720Z 11002KT 4000 BR NSC M08/M09 Q1030 RMK ATIS C;EQDQ01    003SCCGA1
0142104160999992009010817504+51517+007617FM-15+0148EDLW V0201401N001512200019N0040001N1-00901-00901999999ADDGF100991999999999999999999MA1103011999999MW1101REMMET064METAR EDLW 081750Z 14003KT 4000 BR NSC M09/M09 Q1030 RMK ATIS D;EQDQ01    003SCCGA1
0133104160999992009010818204+51517+007617FM-15+0148EDLW V0201501N001012200019N0060001N1-00801-00801999999ADDGF100991999999999999999999MA1103011999999REMMET061METAR EDLW 081820Z 15002KT 6000 NSC M08/M08 Q1030 RMK ATIS E;EQDQ01    003SCCGA1
0133104160999992009010818504+51517+007617FM-15+0148EDLW V0209999V001012200019N0060001N1-00901-00901999999ADDGF100991999999999999999999MA1103011999999REMMET061METAR EDLW 081850Z VRB02KT 6000 NSC M09/M09 Q1030 RMK ATIS F;EQDQ01    003SCCGA1
0133104160999992009010819204+51517+007617FM-15+0148EDLW V0201401N001512200019N0060001N1-00801-00801999999ADDGF100991999999999999999999MA1103011999999REMMET061METAR EDLW 081920Z 14003KT 6000 NSC M08/M08 Q1030 RMK ATIS G;EQDQ01    003SCCGA1
0133104160999992009010819504+51517+007617FM-15+0148EDLW V0201401N002112200019N0060001N1-00901-01001999999ADDGF100991999999999999999999MA1103011999999REMMET061METAR EDLW 081950Z 14004KT 6000 NSC M09/M10 Q1030 RMK ATIS H;EQDQ01    003SCCGA1
0133104160999992009010820204+51517+007617FM-15+0148EDLW V0209999V000512200019N0060001N1-01101-01201999999ADDGF100991999999999999999999MA1103011999999REMMET061METAR EDLW 082020Z VRB01KT 6000 NSC M11/M12 Q1030 RMK ATIS I;EQDQ01    003SCCGA1
0133104160999992009010820504+51517+007617FM-15+0148EDLW V0209999C000012200019N0060001N1-01201-01301999999ADDGF100991999999999999999999MA1103011999999REMMET061METAR EDLW 082050Z 00000KT 6000 NSC M12/M13 Q1030 RMK ATIS J;EQDQ01    003SCCGA1
0085104160999992009010903504+51517+007617FM-15+0148EDLW V0209999V00511220001CN0099001N1-01001-01201999999ADDMA1102911999999REMMET058METAR EDLW 090350Z VRB10KT CAVOK M10/M12 Q1029 RMK ATIS A;
0085104160999992009010904204+51517+007617FM-15+0148EDLW V0201601N00461220001CN0099001N1-01001-01201999999ADDMA1102911999999REMMET058METAR EDLW 090420Z 16009KT CAVOK M10/M12 Q1029 RMK ATIS A;
0085104160999992009010904504+51517+007617FM-15+0148EDLW V0201601N00411220001CN0099001N1-01001-01201999999ADDMA1102911999999REMMET058METAR EDLW 090450Z 16008KT CAVOK M10/M12 Q1029 RMK ATIS B;
0085104160999992009010905204+51517+007617FM-15+0148EDLW V0201601N00361220001CN0099001N1-01001-01201999999ADDMA1102911999999REMMET058METAR EDLW 090520Z 16007KT CAVOK M10/M12 Q1029 RMK ATIS C;
0085104160999992009010905504+51517+007617FM-15+0148EDLW V0201501N00411220001CN0099001N1-01001-01301999999ADDMA1102911999999REMMET058METAR EDLW 090550Z 15008KT CAVOK M10/M13 Q1029 RMK ATIS D;
0085104160999992009010906204+51517+007617FM-15+0148EDLW V0201601N00461220001CN0099001N1-01001-01301999999ADDMA1102911999999REMMET058METAR EDLW 090620Z 16009KT CAVOK M10/M13 Q1029 RMK ATIS E;
0085104160999992009010906504+51517+007617FM-15+0148EDLW V0201601N00571220001CN0099001N1-01001-01301999999ADDMA1102911999999REMMET058METAR EDLW 090650Z 16011KT CAVOK M10/M13 Q1029 RMK ATIS F;
0085104160999992009010907204+51517+007617FM-15+0148EDLW V0201601N00461220001CN0099001N1-01101-01301999999ADDMA1102911999999REMMET058METAR EDLW 090720Z 16009KT CAVOK M11/M13 Q1029 RMK ATIS G;
0085104160999992009010907504+51517+007617FM-15+0148EDLW V0201501N00571220001CN0099001N1-01001-01301999999ADDMA1102911999999REMMET058METAR EDLW 090750Z 15011KT CAVOK M10/M13 Q1029 RMK ATIS H;
0085104160999992009010908204+51517+007617FM-15+0148EDLW V0201501N00461220001CN0099001N1-00901-01301999999ADDMA1102911999999REMMET058METAR EDLW 090820Z 15009KT CAVOK M09/M13 Q1029 RMK ATIS I;
0085104160999992009010908504+51517+007617FM-15+0148EDLW V0209999V00411220001CN0099001N1-00901-01201999999ADDMA1102911999999REMMET058METAR EDLW 090850Z VRB08KT CAVOK M09/M12 Q1029 RMK ATIS J;
0093104160999992009010909204+51517+007617FM-15+0148EDLW V0201501N00211220001CN0099001N1-00701-01101999999ADDMA1103011999999REMMET066METAR EDLW 090920Z 15004KT 110V170 CAVOK M07/M11 Q1030 RMK ATIS K;
0085104160999992009010909504+51517+007617FM-15+0148EDLW V0201401N00211220001CN0099001N1-00701-01101999999ADDMA1103011999999REMMET058METAR EDLW 090950Z 14004KT CAVOK M07/M11 Q1030 RMK ATIS L;
0085104160999992009010910204+51517+007617FM-15+0148EDLW V0201601N00261220001CN0099001N1-00701-01101999999ADDMA1103011999999REMMET058METAR EDLW 091020Z 16005KT CAVOK M07/M11 Q1030 RMK ATIS M;
0085104160999992009010910504+51517+007617FM-15+0148EDLW V0201701N00211220001CN0099001N1-00501-01101999999ADDMA1103011999999REMMET058METAR EDLW 091050Z 17004KT CAVOK M05/M11 Q1030 RMK ATIS N;
0085104160999992009010911204+51517+007617FM-15+0148EDLW V0201201N00151220001CN0099001N1-00301-00901999999ADDMA1103011999999REMMET058METAR EDLW 091120Z 12003KT CAVOK M03/M09 Q1030 RMK ATIS O;
0085104160999992009010911504+51517+007617FM-15+0148EDLW V0200501N00101220001CN0099001N1-00201-00901999999ADDMA1102911999999REMMET058METAR EDLW 091150Z 05002KT CAVOK M02/M09 Q1029 RMK ATIS P;
0085104160999992009010912204+51517+007617FM-15+0148EDLW V0209999C00001220001CN0099001N1-00201-00901999999ADDMA1102911999999REMMET058METAR EDLW 091220Z 00000KT CAVOK M02/M09 Q1029 RMK ATIS Q;
0085104160999992009010912504+51517+007617FM-15+0148EDLW V0209999C00001220001CN0099001N1-00201-00801999999ADDMA1102911999999REMMET058METAR EDLW 091250Z 00000KT CAVOK M02/M08 Q1029 RMK ATIS R;
0085104160999992009010913204+51517+007617FM-15+0148EDLW V0200101N00151220001CN0099001N1-00301-00901999999ADDMA1102911999999REMMET058METAR EDLW 091320Z 01003KT CAVOK M03/M09 Q1029 RMK ATIS S;
0085104160999992009010913504+51517+007617FM-15+0148EDLW V0209999V00101220001CN0099001N1+00001-00701999999ADDMA1102911999999REMMET058METAR EDLW 091350Z VRB02KT CAVOK M00/M07 Q1029 RMK ATIS T;
0085104160999992009010914204+51517+007617FM-15+0148EDLW V0200701N00151220001CN0099001N1-00401-01001999999ADDMA1102911999999REMMET058METAR EDLW 091420Z 07003KT CAVOK M04/M10 Q1029 RMK ATIS U;
0085104160999992009010914504+51517+007617FM-15+0148EDLW V0200501N00211220001CN0099001N1-00401-01001999999ADDMA1102911999999REMMET058METAR EDLW 091450Z 05004KT CAVOK M04/M10 Q1029 RMK ATIS V;
0085104160999992009010915204+51517+007617FM-15+0148EDLW V0209999V00101220001CN0099001N1-00501-01101999999ADDMA1102911999999REMMET058METAR EDLW 091520Z VRB02KT CAVOK M05/M11 Q1029 RMK ATIS W;
0085104160999992009010915504+51517+007617FM-15+0148EDLW V0200501N00101220001CN0099001N1-00701-01201999999ADDMA1102911999999REMMET058METAR EDLW 091550Z 05002KT CAVOK M07/M12 Q1029 RMK ATIS X;
0085104160999992009010916204+51517+007617FM-15+0148EDLW V0200701N00101220001CN0099001N1-00701-01101999999ADDMA1102911999999REMMET058METAR EDLW 091620Z 07002KT CAVOK M07/M11 Q1029 RMK ATIS Y;
0085104160999992009010916504+51517+007617FM-15+0148EDLW V0209999V00101220001CN0099001N1-00701-01101999999ADDMA1102911999999REMMET058METAR EDLW 091650Z VRB02KT CAVOK M07/M11 Q1029 RMK ATIS Z;
0085104160999992009010917204+51517+007617FM-15+0148EDLW V0209999V00151220001CN0099001N1-00601-01101999999ADDMA1102911999999REMMET058METAR EDLW 091720Z VRB03KT CAVOK M06/M11 Q1029 RMK ATIS A;
0085104160999992009010917504+51517+007617FM-15+0148EDLW V0200801N00261220001CN0099001N1-00601-01301999999ADDMA1102911999999REMMET058METAR EDLW 091750Z 08005KT CAVOK M06/M13 Q1029 RMK ATIS B;
0085104160999992009010918204+51517+007617FM-15+0148EDLW V0201101N00151220001CN0099001N1-00601-01301999999ADDMA1102911999999REMMET058METAR EDLW 091820Z 11003KT CAVOK M06/M13 Q1029 RMK ATIS C;
0085104160999992009010918504+51517+007617FM-15+0148EDLW V0200701N00211220001CN0099001N1-00701-01201999999ADDMA1102911999999REMMET058METAR EDLW 091850Z 07004KT CAVOK M07/M12 Q1029 RMK ATIS D;
0085104160999992009010919204+51517+007617FM-15+0148EDLW V0201101N00101220001CN0099001N1-00701-01301999999ADDMA1102911999999REMMET058METAR EDLW 091920Z 11002KT CAVOK M07/M13 Q1029 RMK ATIS E;
0085104160999992009010919504+51517+007617FM-15+0148EDLW V0201301N00151220001CN0099001N1-00701-01301999999ADDMA1102911999999REMMET058METAR EDLW 091950Z 13003KT CAVOK M07/M13 Q1029 RMK ATIS F;
0085104160999992009010920204+51517+007617FM-15+0148EDLW V0201601N00261220001CN0099001N1-00801-01201999999ADDMA1102911999999REMMET058METAR EDLW 092020Z 16005KT CAVOK M08/M12 Q1029 RMK ATIS G;
0085104160999992009010920504+51517+007617FM-15+0148EDLW V0201601N00361220001CN0099001N1-00801-01001999999ADDMA1102911999999REMMET058METAR EDLW 092050Z 16007KT CAVOK M08/M10 Q1029 RMK ATIS H;
0085104160999992009011004204+51517+007617FM-15+0148EDLW V0201501N00571220001CN0099001N1-00901-01201999999ADDMA1102711999999REMMET058METAR EDLW 100420Z 15011KT CAVOK M09/M12 Q1027 RMK ATIS A;
0085104160999992009011004504+51517+007617FM-15+0148EDLW V0201601N00361220001CN0099001N1-01001-01201999999ADDMA1102711999999REMMET058METAR EDLW 100450Z 16007KT CAVOK M10/M12 Q1027 RMK ATIS B;
0085104160999992009011005204+51517+007617FM-15+0148EDLW V0201501N00461220001CN0099001N1-00901-01301999999ADDMA1102711999999REMMET058METAR EDLW 100520Z 15009KT CAVOK M09/M13 Q1027 RMK ATIS C;
0085104160999992009011005504+51517+007617FM-15+0148EDLW V0201201N00151220001CN0099001N1-01001-01401999999ADDMA1102711999999REMMET058METAR EDLW 100550Z 12003KT CAVOK M10/M14 Q1027 RMK ATIS D;
0085104160999992009011006204+51517+007617FM-15+0148EDLW V0209999V00101220001CN0099001N1-01101-01401999999ADDMA1102711999999REMMET058METAR EDLW 100620Z VRB02KT CAVOK M11/M14 Q1027 RMK ATIS E;
0085104160999992009011006504+51517+007617FM-15+0148EDLW V0202001N00151220001CN0099001N1-01001-01401999999ADDMA1102811999999REMMET058METAR EDLW 100650Z 20003KT CAVOK M10/M14 Q1028 RMK ATIS F;
0085104160999992009011007204+51517+007617FM-15+0148EDLW V0201601N00211220001CN0099001N1-01101-01501999999ADDMA1102811999999REMMET058METAR EDLW 100720Z 16004KT CAVOK M11/M15 Q1028 RMK ATIS G;
0093104160999992009011007504+51517+007617FM-15+0148EDLW V0201501N00311220001CN0099001N1-00901-01301999999ADDMA1102811999999REMMET066METAR EDLW 100750Z 15006KT 120V180 CAVOK M09/M13 Q1028 RMK ATIS H;
0085104160999992009011008204+51517+007617FM-15+0148EDLW V0201501N00311220001CN0099001N1-00801-01301999999ADDMA1102811999999REMMET058METAR EDLW 100820Z 15006KT CAVOK M08/M13 Q1028 RMK ATIS I;
0085104160999992009011008504+51517+007617FM-15+0148EDLW V0209999V00101220001CN0099001N1-00801-01301999999ADDMA1102811999999REMMET058METAR EDLW 100850Z VRB02KT CAVOK M08/M13 Q1028 RMK ATIS J;
0093104160999992009011009204+51517+007617FM-15+0148EDLW V0201701N00211220001CN0099001N1-00601-01101999999ADDMA1102811999999REMMET066METAR EDLW 100920Z 17004KT 130V220 CAVOK M06/M11 Q1028 RMK ATIS K;
0085104160999992009011009504+51517+007617FM-15+0148EDLW V0209999V00101220001CN0099001N1-00601-01201999999ADDMA1102811999999REMMET058METAR EDLW 100950Z VRB02KT CAVOK M06/M12 Q1028 RMK ATIS L;
0085104160999992009011010204+51517+007617FM-15+0148EDLW V0209999V00151220001CN0099001N1-00401-01101999999ADDMA1102811999999REMMET058METAR EDLW 101020Z VRB03KT CAVOK M04/M11 Q1028 RMK ATIS M;
0085104160999992009011010504+51517+007617FM-15+0148EDLW V0201501N00211220001CN0099001N1-00201-01001999999ADDMA1102811999999REMMET058METAR EDLW 101050Z 15004KT CAVOK M02/M10 Q1028 RMK ATIS N;
0085104160999992009011011204+51517+007617FM-15+0148EDLW V0201501N00211220001CN0099001N1-00101-01001999999ADDMA1102811999999REMMET058METAR EDLW 101120Z 15004KT CAVOK M01/M10 Q1028 RMK ATIS O;
0084104160999992009011011504+51517+007617FM-15+0148EDLW V0201501N00101220001CN0099001N1+00402-00601999999ADDMA1102811999999REMMET057METAR EDLW 101150Z 15002KT CAVOK 04/M06 Q1028 RMK ATIS P;
0085104160999992009011012204+51517+007617FM-15+0148EDLW V0209999V00151220001CN0099001N1+00001-01001999999ADDMA1102811999999REMMET058METAR EDLW 101220Z VRB03KT CAVOK M00/M10 Q1028 RMK ATIS Q;
0084104160999992009011012504+51517+007617FM-15+0148EDLW V0209999C00001220001CN0099001N1+00101-01101999999ADDMA1102711999999REMMET057METAR EDLW 101250Z 00000KT CAVOK 01/M11 Q1027 RMK ATIS R;
0084104160999992009011013204+51517+007617FM-15+0148EDLW V0209999C00001220001CN0099001N1+00201-00801999999ADDMA1102711999999REMMET057METAR EDLW 101320Z 00000KT CAVOK 02/M08 Q1027 RMK ATIS S;
0084104160999992009011013504+51517+007617FM-15+0148EDLW V0209999V00101220001CN0099001N1+00001-01001999999ADDMA1102711999999REMMET057METAR EDLW 101350Z VRB02KT CAVOK 00/M10 Q1027 RMK ATIS T;
0085104160999992009011014204+51517+007617FM-15+0148EDLW V0209999V00101220001CN0099001N1+00001-01001999999ADDMA1102711999999REMMET058METAR EDLW 101420Z VRB02KT CAVOK M00/M10 Q1027 RMK ATIS V;
0085104160999992009011014504+51517+007617FM-15+0148EDLW V0203401N00051220001CN0099001N1+00001-00901999999ADDMA1102711999999REMMET058METAR EDLW 101450Z 34001KT CAVOK M00/M09 Q1027 RMK ATIS W;
0085104160999992009011015204+51517+007617FM-15+0148EDLW V0209999V00151220001CN0099001N1-00201-01101999999ADDMA1102711999999REMMET058METAR EDLW 101520Z VRB03KT CAVOK M02/M11 Q1027 RMK ATIS X;
0085104160999992009011015504+51517+007617FM-15+0148EDLW V0209999C00001220001CN0099001N1-00301-01101999999ADDMA1102711999999REMMET058METAR EDLW 101550Z 00000KT CAVOK M03/M11 Q1027 RMK ATIS Y;
0085104160999992009011016204+51517+007617FM-15+0148EDLW V0209999V00151220001CN0099001N1-00501-01201999999ADDMA1102711999999REMMET058METAR EDLW 101620Z VRB03KT CAVOK M05/M12 Q1027 RMK ATIS Z;
0085104160999992009011016504+51517+007617FM-15+0148EDLW V0209999C00001220001CN0099001N1-00401-01001999999ADDMA1102711999999REMMET058METAR EDLW 101650Z 00000KT CAVOK M04/M10 Q1027 RMK ATIS A;
0085104160999992009011017204+51517+007617FM-15+0148EDLW V0209999V00101220001CN0099001N1-00501-01001999999ADDMA1102711999999REMMET058METAR EDLW 101720Z VRB02KT CAVOK M05/M10 Q1027 RMK ATIS B;
0093104160999992009011017504+51517+007617FM-15+0148EDLW V0202001N00211220001CN0099001N1-00401-00901999999ADDMA1102611999999REMMET066METAR EDLW 101750Z 20004KT 180V250 CAVOK M04/M09 Q1026 RMK ATIS C;
0085104160999992009011018204+51517+007617FM-15+0148EDLW V0209999V00151220001CN0099001N1-00601-01101999999ADDMA1102711999999REMMET058METAR EDLW 101820Z VRB03KT CAVOK M06/M11 Q1027 RMK ATIS D;
0085104160999992009011018504+51517+007617FM-15+0148EDLW V0202401N00151220001CN0099001N1-00401-00901999999ADDMA1102711999999REMMET058METAR EDLW 101850Z 24003KT CAVOK M04/M09 Q1027 RMK ATIS E;
0085104160999992009011019204+51517+007617FM-15+0148EDLW V0202301N00211220001CN0099001N1-00501-00901999999ADDMA1102811999999REMMET058METAR EDLW 101920Z 23004KT CAVOK M05/M09 Q1028 RMK ATIS F;
0085104160999992009011019504+51517+007617FM-15+0148EDLW V0201701N00361220001CN0099001N1-00401-00801999999ADDMA1102711999999REMMET058METAR EDLW 101950Z 17007KT CAVOK M04/M08 Q1027 RMK ATIS G;
0093104160999992009011020204+51517+007617FM-15+0148EDLW V0201801N00261220001CN0099001N1-00801-01201999999ADDMA1102711999999REMMET066METAR EDLW 102020Z 18005KT 150V220 CAVOK M08/M12 Q1027 RMK ATIS H;
0082104160999992009011020504+51517+007617FM-15+0148EDLW V0203001N00211220001CN0099001N1-00601-01001999999ADDMA1102711999999REMMET055METAR EDLW 102050Z 30004KT 230V330 CAVOK M06/M10 Q1027;
0085104160999992009011104204+51517+007617FM-15+0148EDLW V0201701N00511220001CN0099001N1-00401-00901999999ADDMA1102911999999REMMET058METAR EDLW 110420Z 17010KT CAVOK M04/M09 Q1029 RMK ATIS A;
0085104160999992009011104504+51517+007617FM-15+0148EDLW V0209999V00101220001CN0099001N1-00401-01001999999ADDMA1102911999999REMMET058METAR EDLW 110450Z VRB02KT CAVOK M04/M10 Q1029 RMK ATIS B;
0085104160999992009011105204+51517+007617FM-15+0148EDLW V0202501N00211220001CN0099001N1-00501-01001999999ADDMA1102911999999REMMET058METAR EDLW 110520Z 25004KT CAVOK M05/M10 Q1029 RMK ATIS C;
0085104160999992009011105504+51517+007617FM-15+0148EDLW V0209999V00151220001CN0099001N1-00601-01101999999ADDMA1103011999999REMMET058METAR EDLW 110550Z VRB03KT CAVOK M06/M11 Q1030 RMK ATIS D;
0085104160999992009011106204+51517+007617FM-15+0148EDLW V0201801N00411220001CN0099001N1-00401-00901999999ADDMA1102911999999REMMET058METAR EDLW 110620Z 18008KT CAVOK M04/M09 Q1029 RMK ATIS E;
0085104160999992009011106504+51517+007617FM-15+0148EDLW V0201801N00511220001CN0099001N1-00501-01001999999ADDMA1102911999999REMMET058METAR EDLW 110650Z 18010KT CAVOK M05/M10 Q1029 RMK ATIS F;
0085104160999992009011107204+51517+007617FM-15+0148EDLW V0201701N00411220001CN0099001N1-00401-00901999999ADDMA1102911999999REMMET058METAR EDLW 110720Z 17008KT CAVOK M04/M09 Q1029 RMK ATIS G;
0085104160999992009011107504+51517+007617FM-15+0148EDLW V0201701N00461220001CN0099001N1-00401-01001999999ADDMA1103011999999REMMET058METAR EDLW 110750Z 17009KT CAVOK M04/M10 Q1030 RMK ATIS H;
0085104160999992009011108204+51517+007617FM-15+0148EDLW V0202001N00361220001CN0099001N1-00301-01001999999ADDMA1103011999999REMMET058METAR EDLW 110820Z 20007KT CAVOK M03/M10 Q1030 RMK ATIS I;
0085104160999992009011108504+51517+007617FM-15+0148EDLW V0201901N00311220001CN0099001N1-00201-01001999999ADDMA1103011999999REMMET058METAR EDLW 110850Z 19006KT CAVOK M02/M10 Q1030 RMK ATIS J;
0085104160999992009011109204+51517+007617FM-15+0148EDLW V0201901N00461220001CN0099001N1-00101-00901999999ADDMA1103011999999REMMET058METAR EDLW 110920Z 19009KT CAVOK M01/M09 Q1030 RMK ATIS K;
0085104160999992009011109504+51517+007617FM-15+0148EDLW V0201801N00621220001CN0099001N1+00001-00901999999ADDMA1103011999999REMMET058METAR EDLW 110950Z 18012KT CAVOK M00/M09 Q1030 RMK ATIS L;
0084104160999992009011110204+51517+007617FM-15+0148EDLW V0201901N00621220001CN0099001N1+00101-00801999999ADDMA1103011999999REMMET057METAR EDLW 111020Z 19012KT CAVOK 01/M08 Q1030 RMK ATIS M;
0084104160999992009011110504+51517+007617FM-15+0148EDLW V0201901N00571220001CN0099001N1+00101-00801999999ADDMA1103011999999REMMET057METAR EDLW 111050Z 19011KT CAVOK 01/M08 Q1030 RMK ATIS N;
0084104160999992009011111204+51517+007617FM-15+0148EDLW V0201901N00461220001CN0099001N1+00201-00801999999ADDMA1103011999999REMMET057METAR EDLW 111120Z 19009KT CAVOK 02/M08 Q1030 RMK ATIS O;
0084104160999992009011111504+51517+007617FM-15+0148EDLW V0202201N00411220001CN0099001N1+00301-00701999999ADDMA1102911999999REMMET057METAR EDLW 111150Z 22008KT CAVOK 03/M07 Q1029 RMK ATIS P;
0084104160999992009011112204+51517+007617FM-15+0148EDLW V0202101N00461220001CN0099001N1+00301-00701999999ADDMA1102911999999REMMET057METAR EDLW 111220Z 21009KT CAVOK 03/M07 Q1029 RMK ATIS Q;
0084104160999992009011112504+51517+007617FM-15+0148EDLW V0202001N00361220001CN0099001N1+00301-00701999999ADDMA1102911999999REMMET057METAR EDLW 111250Z 20007KT CAVOK 03/M07 Q1029 RMK ATIS R;
0084104160999992009011113204+51517+007617FM-15+0148EDLW V0202001N00511220001CN0099001N1+00301-00701999999ADDMA1102811999999REMMET057METAR EDLW 111320Z 20010KT CAVOK 03/M07 Q1028 RMK ATIS S;
0084104160999992009011113504+51517+007617FM-15+0148EDLW V0202001N00571220001CN0099001N1+00301-00801999999ADDMA1102811999999REMMET057METAR EDLW 111350Z 20011KT CAVOK 03/M08 Q1028 RMK ATIS T;
0084104160999992009011114204+51517+007617FM-15+0148EDLW V0201901N00511220001CN0099001N1+00401-00801999999ADDMA1102811999999REMMET057METAR EDLW 111420Z 19010KT CAVOK 04/M08 Q1028 RMK ATIS U;
0084104160999992009011114504+51517+007617FM-15+0148EDLW V0202001N00511220001CN0099001N1+00401-00901999999ADDMA1102811999999REMMET057METAR EDLW 111450Z 20010KT CAVOK 04/M09 Q1028 RMK ATIS V;
0084104160999992009011115204+51517+007617FM-15+0148EDLW V0201901N00461220001CN0099001N1+00301-00901999999ADDMA1102811999999REMMET057METAR EDLW 111520Z 19009KT CAVOK 03/M09 Q1028 RMK ATIS W;
0084104160999992009011115504+51517+007617FM-15+0148EDLW V0201901N00461220001CN0099001N1+00201-00901999999ADDMA1102811999999REMMET057METAR EDLW 111550Z 19009KT CAVOK 02/M09 Q1028 RMK ATIS X;
0084104160999992009011116204+51517+007617FM-15+0148EDLW V0201801N00571220001CN0099001N1+00101-00901999999ADDMA1102811999999REMMET057METAR EDLW 111620Z 18011KT CAVOK 01/M09 Q1028 RMK ATIS Y;
0084104160999992009011116504+51517+007617FM-15+0148EDLW V0201801N00721220001CN0099001N1+00101-00901999999ADDMA1102811999999REMMET057METAR EDLW 111650Z 18014KT CAVOK 01/M09 Q1028 RMK ATIS Z;
0084104160999992009011117204+51517+007617FM-15+0148EDLW V0201801N00721220001CN0099001N1+00201-00901999999ADDMA1102811999999REMMET057METAR EDLW 111720Z 18014KT CAVOK 02/M09 Q1028 RMK ATIS A;
0084104160999992009011117504+51517+007617FM-15+0148EDLW V0201901N00571220001CN0099001N1+00101-00901999999ADDMA1102811999999REMMET057METAR EDLW 111750Z 19011KT CAVOK 01/M09 Q1028 RMK ATIS B;
0084104160999992009011118204+51517+007617FM-15+0148EDLW V0201801N00671220001CN0099001N1+00101-00901999999ADDMA1102811999999REMMET057METAR EDLW 111820Z 18013KT CAVOK 01/M09 Q1028 RMK ATIS C;
0084104160999992009011118504+51517+007617FM-15+0148EDLW V0201801N00621220001CN0099001N1+00101-00901999999ADDMA1102811999999REMMET057METAR EDLW 111850Z 18012KT CAVOK 01/M09 Q1028 RMK ATIS D;
0084104160999992009011119204+51517+007617FM-15+0148EDLW V0201801N00721220001CN0099001N1+00001-00901999999ADDMA1102811999999REMMET057METAR EDLW 111920Z 18014KT CAVOK 00/M09 Q1028 RMK ATIS E;
0084104160999992009011119504+51517+007617FM-15+0148EDLW V0201801N00721220001CN0099001N1+00101-00901999999ADDMA1102811999999REMMET057METAR EDLW 111950Z 18014KT CAVOK 01/M09 Q1028 RMK ATIS F;
0084104160999992009011120204+51517+007617FM-15+0148EDLW V0201801N00671220001CN0099001N1+00001-00801999999ADDMA1102811999999REMMET057METAR EDLW 112020Z 18013KT CAVOK 00/M08 Q1028 RMK ATIS G;
0084104160999992009011120504+51517+007617FM-15+0148EDLW V0201801N00671220001CN0099001N1+00001-00801999999ADDMA1102711999999REMMET057METAR EDLW 112050Z 18013KT CAVOK 00/M08 Q1027 RMK ATIS H;
0084104160999992009011204204+51517+007617FM-15+0148EDLW V0201901N00771220001CN0099001N1+00101-00801999999ADDMA1102401999999REMMET057METAR EDLW 120420Z 19015KT CAVOK 01/M08 Q1024 RMK ATIS A;
0084104160999992009011204504+51517+007617FM-15+0148EDLW V0201901N00671220001CN0099001N1+00101-00801999999ADDMA1102301999999REMMET057METAR EDLW 120450Z 19013KT CAVOK 01/M08 Q1023 RMK ATIS B;
0084104160999992009011205204+51517+007617FM-15+0148EDLW V0201901N00671220001CN0099001N1+00101-00801999999ADDMA1102301999999REMMET057METAR EDLW 120520Z 19013KT CAVOK 01/M08 Q1023 RMK ATIS C;
0084104160999992009011205504+51517+007617FM-15+0148EDLW V0201901N00821220001CN0099001N1+00101-00701999999ADDMA1102301999999REMMET057METAR EDLW 120550Z 19016KT CAVOK 01/M07 Q1023 RMK ATIS D;
0084104160999992009011206204+51517+007617FM-15+0148EDLW V0201801N00821220001CN0099001N1+00201-00701999999ADDMA1102201999999REMMET057METAR EDLW 120620Z 18016KT CAVOK 02/M07 Q1022 RMK ATIS E;
0084104160999992009011206504+51517+007617FM-15+0148EDLW V0201901N00771220001CN0099001N1+00201-00701999999ADDMA1102201999999REMMET057METAR EDLW 120650Z 19015KT CAVOK 02/M07 Q1022 RMK ATIS F;
0084104160999992009011207204+51517+007617FM-15+0148EDLW V0201901N00771220001CN0099001N1+00201-00701999999ADDMA1102201999999REMMET057METAR EDLW 120720Z 19015KT CAVOK 02/M07 Q1022 RMK ATIS G;
0084104160999992009011207504+51517+007617FM-15+0148EDLW V0202001N00771220001CN0099001N1+00201-00701999999ADDMA1102201999999REMMET057METAR EDLW 120750Z 20015KT CAVOK 02/M07 Q1022 RMK ATIS H;
0084104160999992009011208204+51517+007617FM-15+0148EDLW V0201901N00821220001CN0099001N1+00301-00701999999ADDMA1102201999999REMMET057METAR EDLW 120820Z 19016KT CAVOK 03/M07 Q1022 RMK ATIS I;
0084104160999992009011208504+51517+007617FM-15+0148EDLW V0201901N00821220001CN0099001N1+00301-00601999999ADDMA1102201999999REMMET057METAR EDLW 120850Z 19016KT CAVOK 03/M06 Q1022 RMK ATIS J;
0084104160999992009011209204+51517+007617FM-15+0148EDLW V0202001N00821220001CN0099001N1+00401-00601999999ADDMA1102201999999REMMET057METAR EDLW 120920Z 20016KT CAVOK 04/M06 Q1022 RMK ATIS K;
0084104160999992009011209504+51517+007617FM-15+0148EDLW V0202001N00821220001CN0099001N1+00401-00601999999ADDMA1102201999999REMMET057METAR EDLW 120950Z 20016KT CAVOK 04/M06 Q1022 RMK ATIS L;
0084104160999992009011210204+51517+007617FM-15+0148EDLW V0202001N00871220001CN0099001N1+00401-00601999999ADDMA1102201999999REMMET057METAR EDLW 121020Z 20017KT CAVOK 04/M06 Q1022 RMK ATIS M;
0084104160999992009011210504+51517+007617FM-15+0148EDLW V0202001N00871220001CN0099001N1+00501-00601999999ADDMA1102101999999REMMET057METAR EDLW 121050Z 20017KT CAVOK 05/M06 Q1021 RMK ATIS N;
0084104160999992009011211204+51517+007617FM-15+0148EDLW V0202001N00871220001CN0099001N1+00501-00601999999ADDMA1102101999999REMMET057METAR EDLW 121120Z 20017KT CAVOK 05/M06 Q1021 RMK ATIS O;
0084104160999992009011211504+51517+007617FM-15+0148EDLW V0202001N00871220001CN0099001N1+00501-00701999999ADDMA1102001999999REMMET057METAR EDLW 121150Z 20017KT CAVOK 05/M07 Q1020 RMK ATIS P;
0084104160999992009011212204+51517+007617FM-15+0148EDLW V0202001N00931220001CN0099001N1+00601-00601999999ADDMA1102001999999REMMET057METAR EDLW 121220Z 20018KT CAVOK 06/M06 Q1020 RMK ATIS Q;
0084104160999992009011212504+51517+007617FM-15+0148EDLW V0202001N00821220001CN0099001N1+00601-00601999999ADDMA1101901999999REMMET057METAR EDLW 121250Z 20016KT CAVOK 06/M06 Q1019 RMK ATIS R;
0084104160999992009011213204+51517+007617FM-15+0148EDLW V0201901N00821220001CN0099001N1+00601-00701999999ADDMA1101801999999REMMET057METAR EDLW 121320Z 19016KT CAVOK 06/M07 Q1018 RMK ATIS S;
0084104160999992009011213504+51517+007617FM-15+0148EDLW V0201901N00821220001CN0099001N1+00601-00701999999ADDMA1101801999999REMMET057METAR EDLW 121350Z 19016KT CAVOK 06/M07 Q1018 RMK ATIS T;
0084104160999992009011214204+51517+007617FM-15+0148EDLW V0201901N00721220001CN0099001N1+00601-00701999999ADDMA1101801999999REMMET057METAR EDLW 121420Z 19014KT CAVOK 06/M07 Q1018 RMK ATIS U;
0084104160999992009011214504+51517+007617FM-15+0148EDLW V0202001N00671220001CN0099001N1+00501-00701999999ADDMA1101801999999REMMET057METAR EDLW 121450Z 20013KT CAVOK 05/M07 Q1018 RMK ATIS V;
0084104160999992009011215204+51517+007617FM-15+0148EDLW V0202101N00621220001CN0099001N1+00501-00601999999ADDMA1101801999999REMMET057METAR EDLW 121520Z 21012KT CAVOK 05/M06 Q1018 RMK ATIS W;
0084104160999992009011215504+51517+007617FM-15+0148EDLW V0202001N00671220001CN0099001N1+00501-00701999999ADDMA1101801999999REMMET057METAR EDLW 121550Z 20013KT CAVOK 05/M07 Q1018 RMK ATIS X;
0084104160999992009011216204+51517+007617FM-15+0148EDLW V0202101N00671220001CN0099001N1+00501-00701999999ADDMA1101801999999REMMET057METAR EDLW 121620Z 21013KT CAVOK 05/M07 Q1018 RMK ATIS Y;
0084104160999992009011216504+51517+007617FM-15+0148EDLW V0202001N00671220001CN0099001N1+00401-00601999999ADDMA1101691999999REMMET057METAR EDLW 121650Z 20013KT CAVOK 04/M06 Q1017 RMK ATIS Z;
0084104160999992009011217204+51517+007617FM-15+0148EDLW V0201901N00671220001CN0099001N1+00401-00601999999ADDMA1101691999999REMMET057METAR EDLW 121720Z 19013KT CAVOK 04/M06 Q1017 RMK ATIS A;
0084104160999992009011217504+51517+007617FM-15+0148EDLW V0201901N00721220001CN0099001N1+00501-00601999999ADDMA1101691999999REMMET057METAR EDLW 121750Z 19014KT CAVOK 05/M06 Q1017 RMK ATIS B;
0084104160999992009011218204+51517+007617FM-15+0148EDLW V0202001N00721220001CN0099001N1+00501-00601999999ADDMA1101591999999REMMET057METAR EDLW 121820Z 20014KT CAVOK 05/M06 Q1016 RMK ATIS C;
0084104160999992009011218504+51517+007617FM-15+0148EDLW V0202001N00721220001CN0099001N1+00501-00501999999ADDMA1101591999999REMMET057METAR EDLW 121850Z 20014KT CAVOK 05/M05 Q1016 RMK ATIS D;
0084104160999992009011219204+51517+007617FM-15+0148EDLW V0201901N00771220001CN0099001N1+00501-00501999999ADDMA1101591999999REMMET057METAR EDLW 121920Z 19015KT CAVOK 05/M05 Q1016 RMK ATIS E;
0084104160999992009011219504+51517+007617FM-15+0148EDLW V0202001N00771220001CN0099001N1+00501-00501999999ADDMA1101591999999REMMET057METAR EDLW 121950Z 20015KT CAVOK 05/M05 Q1016 RMK ATIS F;
0084104160999992009011220204+51517+007617FM-15+0148EDLW V0202001N00821220001CN0099001N1+00401-00401999999ADDMA1101591999999REMMET057METAR EDLW 122020Z 20016KT CAVOK 04/M04 Q1016 RMK ATIS G;
0073104160999992009011220504+51517+007617FM-15+0148EDLW V0202001N00821220001CN0099001N1+00401-00401999999ADDMA1101491999999REMMET046METAR EDLW 122050Z 20016KT CAVOK 04/M04 Q1015;
0132104160999992009011304204+51517+007617FM-15+0148EDLW V0202001N004610069019N0112651N1+00401-00201999999ADDGA1071+006901999GF107991999999999999999999MA1101291999999REMMET063METAR EDLW 130420Z 20009KT 9999 BKN023 04/M02 Q1013 RMK ATIS A;
0132104160999992009011304504+51517+007617FM-15+0148EDLW V0202001N005110066019N0112651N1+00401-00201999999ADDGA1081+006601999GF108991999999999999999999MA1101291999999REMMET063METAR EDLW 130450Z 20010KT 9999 OVC022 04/M02 Q1013 RMK ATIS B;
0132104160999992009011305204+51517+007617FM-15+0148EDLW V0202001N005710063019N0112651N1+00401-00201999999ADDGA1081+006301999GF108991999999999999999999MA1101291999999REMMET063METAR EDLW 130520Z 20011KT 9999 OVC021 04/M02 Q1013 RMK ATIS C;
0132104160999992009011305504+51517+007617FM-15+0148EDLW V0202101N005710072019N0112651N1+00401-00101999999ADDGA1081+007201999GF108991999999999999999999MA1101291999999REMMET063METAR EDLW 130550Z 21011KT 9999 OVC024 04/M01 Q1013 RMK ATIS D;
0132104160999992009011306204+51517+007617FM-15+0148EDLW V0202001N006210057019N0112651N1+00401-00101999999ADDGA1081+005701999GF108991999999999999999999MA1101291999999REMMET063METAR EDLW 130620Z 20012KT 9999 OVC019 04/M01 Q1013 RMK ATIS E;
0132104160999992009011306504+51517+007617FM-15+0148EDLW V0202101N005710054019N0112651N1+00401-00101999999ADDGA1081+005401999GF108991999999999999999999MA1101291999999REMMET063METAR EDLW 130650Z 21011KT 9999 OVC018 04/M01 Q1013 RMK ATIS F;
0132104160999992009011307204+51517+007617FM-15+0148EDLW V0202001N006210054019N0112651N1+00401-00101999999ADDGA1081+005401999GF108991999999999999999999MA1101291999999REMMET063METAR EDLW 130720Z 20012KT 9999 OVC018 04/M01 Q1013 RMK ATIS G;
0155104160999992009011307504+51517+007617FM-15+0148EDLW V0201901N006210075019N0112651N1+00401-00101999999ADDGA1041+003901999GA2071+007501999GF107991999999999999999999MA1101291999999REMMET070METAR EDLW 130750Z 19012KT 9999 SCT013 BKN025 04/M01 Q1013 RMK ATIS H;
0155104160999992009011308204+51517+007617FM-15+0148EDLW V0201901N006710135019N0112651N1+00401+00001999999ADDGA1041+008701999GA2081+013501999GF108991999999999999999999MA1101291999999REMMET070METAR EDLW 130820Z 19013KT 9999 SCT029 OVC045 04/M00 Q1013 RMK ATIS I;
0178104160999992009011308504+51517+007617FM-15+0148EDLW V0202001N007210075019N0112651N1+00401+00001999999ADDGA1041+003001999GA2071+007501999GA3071+013501999GF107991999999999999999999MA1101391999999REMMET077METAR EDLW 130850Z 20014KT 9999 SCT010 BKN025 BKN045 04/M00 Q1014 RMK ATIS J;
0164104160999992009011309204+51517+007617FM-15+0148EDLW V0201901N006710048019N0060001N1+00301+00101999999ADDGA1071+004801999GA2081+008101999GF108991999999999999999999MA1101391999999MW1511REMMET073METAR EDLW 130920Z 19013KT 6000 -DZ BKN016 OVC027 03/01 Q1014 RMK ATIS L;
0165104160999992009011309504+51517+007617FM-15+0148EDLW V0202001N006710048019N0080001N1+00301+00101999999ADDGA1071+004801999GA2081+007801999GF108991999999999999999999MA1101391999999MW1161REMMET074METAR EDLW 130950Z 20013KT 8000 VCSH BKN016 OVC026 03/01 Q1014 RMK ATIS M;
0154104160999992009011310204+51517+007617FM-15+0148EDLW V0202001N006710048019N0112651N1+00401+00001999999ADDGA1071+004801999GA2081+010501999GF108991999999999999999999MA1101391999999REMMET069METAR EDLW 131020Z 20013KT 9999 BKN016 OVC035 04/00 Q1014 RMK ATIS N;
0132104160999992009011310504+51517+007617FM-15+0148EDLW V0202001N005110048019N0112651N1+00401-00101999999ADDGA1071+004801999GF107991999999999999999999MA1101391999999REMMET063METAR EDLW 131050Z 20010KT 9999 BKN016 04/M01 Q1014 RMK ATIS O;
0141104160999992009011311204+51517+007617FM-15+0148EDLW V0202101N004110060019N0112651N1+00501+00001999999ADDGA1071+006001999GF107991999999999999999999MA1101391999999MW1511REMMET066METAR EDLW 131120Z 21008KT 9999 -DZ BKN020 05/00 Q1014 RMK ATIS P;
0083104160999992009011311504+51517+007617FM-15+0148EDLW V0202001N00571220001CN0099001N1+00401+00001999999ADDMA1101291999999REMMET056METAR EDLW 131150Z 20011KT CAVOK 04/00 Q1013 RMK ATIS Q;
0154104160999992009011312204+51517+007617FM-15+0148EDLW V0202001N005110150019N0112651N1+00401+00101999999ADDGA1041+006601999GA2081+015001999GF108991999999999999999999MA1101291999999REMMET069METAR EDLW 131220Z 20010KT 9999 SCT022 OVC055 04/01 Q1013 RMK ATIS R;
0154104160999992009011312504+51517+007617FM-15+0148EDLW V0202001N005110180019N0112651N1+00501+00101999999ADDGA1041+005701999GA2081+018001999GF108991999999999999999999MA1101291999999REMMET069METAR EDLW 131250Z 20010KT 9999 SCT019 OVC065 05/01 Q1013 RMK ATIS S;
0154104160999992009011313204+51517+007617FM-15+0148EDLW V0202001N004110141019N0112651N1+00501+00201999999ADDGA1041+005401999GA2071+014101999GF107991999999999999999999MA1101191999999REMMET069METAR EDLW 131320Z 20008KT 9999 SCT018 BKN047 05/02 Q1012 RMK ATIS T;
0131104160999992009011313504+51517+007617FM-15+0148EDLW V0202001N004110060019N0112651N1+00601+00201999999ADDGA1071+006001999GF107991999999999999999999MA1101191999999REMMET062METAR EDLW 131350Z 20008KT 9999 BKN020 06/02 Q1012 RMK ATIS U;
0154104160999992009011314204+51517+007617FM-15+0148EDLW V0202101N003610150019N0112651N1+00701+00201999999ADDGA1021+006001999GA2071+015001999GF107991999999999999999999MA1101191999999REMMET069METAR EDLW 131420Z 21007KT 9999 FEW020 BKN058 07/02 Q1012 RMK ATIS V;
0083104160999992009011314504+51517+007617FM-15+0148EDLW V0202001N00411220001CN0099001N1+00601+00101999999ADDMA1101191999999REMMET056METAR EDLW 131450Z 20008KT CAVOK 06/01 Q1012 RMK ATIS W;
0154104160999992009011315204+51517+007617FM-15+0148EDLW V0202001N004110450019N0112651N1+00501+00001999999ADDGA1021+006301999GA2071+045001999GF107991999999999999999999MA1101191999999REMMET069METAR EDLW 131520Z 20008KT 9999 FEW021 BKN150 05/00 Q1012 RMK ATIS X;
0131104160999992009011315504+51517+007617FM-15+0148EDLW V0202101N004110096019N0112651N1+00501+00001999999ADDGA1071+009601999GF107991999999999999999999MA1101191999999REMMET062METAR EDLW 131550Z 21008KT 9999 BKN032 05/00 Q1012 RMK ATIS Y;
0132104160999992009011316204+51517+007617FM-15+0148EDLW V0202101N004610093019N0112651N1+00501+00001999999ADDGA1071+009301999GF107991999999999999999999MA1101191999999REMMET063METAR EDLW 131620Z 21009KT 9999 BKN031 05/M00 Q1012 RMK ATIS Z;
0132104160999992009011316504+51517+007617FM-15+0148EDLW V0202001N005110102019N0112651N1+00501-00101999999ADDGA1071+010201999GF107991999999999999999999MA1101191999999REMMET063METAR EDLW 131650Z 20010KT 9999 BKN034 05/M01 Q1012 RMK ATIS A;
0132104160999992009011317204+51517+007617FM-15+0148EDLW V0202101N006210102019N0112651N1+00501-00101999999ADDGA1071+010201999GF107991999999999999999999MA1101191999999REMMET063METAR EDLW 131720Z 21012KT 9999 BKN034 05/M01 Q1012 RMK ATIS B;
0132104160999992009011317504+51517+007617FM-15+0148EDLW V0202001N005710084019N0112651N1+00501-00101999999ADDGA1071+008401999GF107991999999999999999999MA1101191999999REMMET063METAR EDLW 131750Z 20011KT 9999 BKN028 05/M01 Q1012 RMK ATIS C;
0132104160999992009011318204+51517+007617FM-15+0148EDLW V0202001N005710099019N0112651N1+00501-00101999999ADDGA1071+009901999GF107991999999999999999999MA1101191999999REMMET063METAR EDLW 131820Z 20011KT 9999 BKN033 05/M01 Q1012 RMK ATIS D;
0132104160999992009011318504+51517+007617FM-15+0148EDLW V0201901N005710093019N0112651N1+00501-00101999999ADDGA1071+009301999GF107991999999999999999999MA1101191999999REMMET063METAR EDLW 131850Z 19011KT 9999 BKN031 05/M01 Q1012 RMK ATIS E;
0132104160999992009011319204+51517+007617FM-15+0148EDLW V0201901N004610114019N0112651N1+00501-00101999999ADDGA1071+011401999GF107991999999999999999999MA1101191999999REMMET063METAR EDLW 131920Z 19009KT 9999 BKN038 05/M01 Q1012 RMK ATIS F;
0084104160999992009011319504+51517+007617FM-15+0148EDLW V0201901N00411220001CN0099001N1+00501-00101999999ADDMA1101191999999REMMET057METAR EDLW 131950Z 19008KT CAVOK 05/M01 Q1012 RMK ATIS G;
0084104160999992009011320204+51517+007617FM-15+0148EDLW V0201901N00361220001CN0099001N1+00501-00101999999ADDMA1101191999999REMMET057METAR EDLW 132020Z 19007KT CAVOK 05/M01 Q1012 RMK ATIS H;
0084104160999992009011320504+51517+007617FM-15+0148EDLW V0202001N00411220001CN0099001N1+00401-00101999999ADDMA1101191999999REMMET057METAR EDLW 132050Z 20008KT CAVOK 04/M01 Q1012 RMK ATIS I;
0149104160999992009011404204+51517+007617FM-15+0148EDLW V0202001N002110033019N0090001N1+00201+00101999999ADDGA1081+003301999GF108991999999999999999999MA1101191999999MW1511MW2611REMMET068METAR EDLW 140420Z 20004KT 9000 -RADZ OVC011 02/01 Q1012 RMK ATIS A;
0141104160999992009011404504+51517+007617FM-15+0148EDLW V0202101N004610036019N0080001N1+00201+00101999999ADDGA1081+003601999GF108991999999999999999999MA1101191999999MW1611REMMET066METAR EDLW 140450Z 21009KT 8000 -RA OVC012 02/01 Q1012 RMK ATIS B;
0141104160999992009011405204+51517+007617FM-15+0148EDLW V0201901N004110030019N0080001N1+00201+00201999999ADDGA1081+003001999GF108991999999999999999999MA1101191999999MW1611REMMET066METAR EDLW 140520Z 19008KT 8000 -RA OVC010 02/02 Q1012 RMK ATIS C;
0141104160999992009011405504+51517+007617FM-15+0148EDLW V0202001N004610021019N0080001N1+00201+00201999999ADDGA1081+002101999GF108991999999999999999999MA1101191999999MW1611REMMET066METAR EDLW 140550Z 20009KT 8000 -RA OVC007 02/02 Q1012 RMK ATIS D;
0141104160999992009011406204+51517+007617FM-15+0148EDLW V0202101N005110018019N0080001N1+00201+00201999999ADDGA1081+001801999GF108991999999999999999999MA1101191999999MW1511REMMET066METAR EDLW 140620Z 21010KT 8000 -DZ OVC006 02/02 Q1012 RMK ATIS E;
0141104160999992009011406504+51517+007617FM-15+0148EDLW V0202101N004110012019N0080001N1+00201+00201999999ADDGA1081+001201999GF108991999999999999999999MA1101191999999MW1511REMMET066METAR EDLW 140650Z 21008KT 8000 -DZ OVC004 02/02 Q1012 RMK ATIS F;
0150104160999992009011407204+51517+007617FM-15+0148EDLW V0202001N002610009019N0040001N1+00301+00201999999ADDGA1081+000901999GF108991999999999999999999MA1101291999999MW1101MW2511REMMET069METAR EDLW 140720Z 20005KT 4000 -DZ BR OVC003 03/02 Q1013 RMK ATIS G;
0162104160999992009011407504+51517+007617FM-15+0148EDLW V0202001N002610006019N0008001N1+00201+00201999999ADDED199U20009GA1081+000601999GF108991999999999999999999MA1101291999999MW1441REMMET076METAR EDLW 140750Z 20005KT 0800 R24/P2000N FG OVC002 02/02 Q1013 RMK ATIS H;
0162104160999992009011408204+51517+007617FM-15+0148EDLW V0202201N003110006019N0008001N1+00201+00201999999ADDED199U20009GA1081+000601999GF108991999999999999999999MA1101291999999MW1441REMMET076METAR EDLW 140820Z 22006KT 0800 R24/P2000N FG OVC002 02/02 Q1013 RMK ATIS I;
