0122104160999992015010106504+51518+007612FM-15+013099999V0202101N005112200019N004500199+00101-00101999999ADDGF100991999999999999999999MA1103501999999MW1101REMMET063METAR EDLW 010650Z 21010KT 4500 BR NSC 01/M01 Q1035 RMK ATIS A=
0122104160999992015010107204+51518+007612FM-15+013099999V0202001N005112200019N005000199+00101-00101999999ADDGF100991999999999999999999MA1103501999999MW1101REMMET063METAR EDLW 010720Z 20010KT 5000 BR NSC 01/M01 Q1035 RMK ATIS B=
0113104160999992015010107504+51518+007612FM-15+013099999V0201801N004612200019N006000199+00001-00101999999ADDGF100991999999999999999999MA1103401999999REMMET060METAR EDLW 010750Z 18009KT 6000 NSC 00/M01 Q1034 RMK ATIS C=
0113104160999992015010108204+51518+007612FM-15+013099999V0201901N005112200019N007000199+00101-00101999999ADDGF100991999999999999999999MA1103301999999REMMET060METAR EDLW 010820Z 19010KT 7000 NSC 01/M01 Q1033 RMK ATIS D=
0113104160999992015010108504+51518+007612FM-15+013099999V0202001N004112200019N009000199+00101-00101999999ADDGF100991999999999999999999MA1103401999999REMMET060METAR EDLW 010850Z 20008KT 9000 SKC 01/M01 Q1034 RMK ATIS E=
0113104160999992015010109204+51518+007612FM-15+013099999V0202401N004112200019N009000199+00201+00001999999ADDGF100991999999999999999999MA1103501999999REMMET060METAR EDLW 010920Z 24008KT 9000 NSC 02/M00 Q1035 RMK ATIS F=
0084104160999992015010109504+51518+007612FM-15+013099999V0202201N005719999999Y999999999+00201+00001999999ADDMA1103501999999REMMET057METAR EDLW 010950Z 22011KT CAVOK 02/M00 Q1035 RMK ATIS G=
0084104160999992015010110204+51518+007612FM-15+013099999V0202101N005719999999Y999999999+00301-00101999999ADDMA1103501999999REMMET057METAR EDLW 011020Z 21011KT CAVOK 03/M01 Q1035 RMK ATIS H=
0084104160999992015010110504+51518+007612FM-15+013099999V0202101N005719999999Y999999999+00301-00101999999ADDMA1103401999999REMMET057METAR EDLW 011050Z 21011KT CAVOK 03/M01 Q1034 RMK ATIS I=
0084104160999992015010111204+51518+007612FM-15+013099999V0202101N005119999999Y999999999+00401+00001999999ADDMA1103401999999REMMET057METAR EDLW 011120Z 21010KT CAVOK 04/M00 Q1034 RMK ATIS J=
0084104160999992015010111504+51518+007612FM-15+013099999V0202201N006719999999Y999999999+00401-00101999999ADDMA1103301999999REMMET057METAR EDLW 011150Z 22013KT CAVOK 04/M01 Q1033 RMK ATIS K=
0084104160999992015010112204+51518+007612FM-15+013099999V0202101N006219999999Y999999999+00501-00101999999ADDMA1103301999999REMMET057METAR EDLW 011220Z 21012KT CAVOK 05/M01 Q1033 RMK ATIS L=
0084104160999992015010112504+51518+007612FM-15+013099999V0202201N006219999999Y999999999+00501-00101999999ADDMA1103301999999REMMET057METAR EDLW 011250Z 22012KT CAVOK 05/M01 Q1033 RMK ATIS M=
0084104160999992015010113204+51518+007612FM-15+013099999V0202201N006219999999Y999999999+00501-00101999999ADDMA1103301999999REMMET057METAR EDLW 011320Z 22012KT CAVOK 05/M01 Q1033 RMK ATIS N=
0084104160999992015010113504+51518+007612FM-15+013099999V0202201N005719999999Y999999999+00501-00101999999ADDMA1103301999999REMMET057METAR EDLW 011350Z 22011KT CAVOK 05/M01 Q1033 RMK ATIS O=
0084104160999992015010114204+51518+007612FM-15+013099999V0202201N005719999999Y999999999+00401-00101999999ADDMA1103201999999REMMET057METAR EDLW 011420Z 22011KT CAVOK 04/M01 Q1032 RMK ATIS P=
0084104160999992015010114504+51518+007612FM-15+013099999V0202001N005719999999Y999999999+00401-00101999999ADDMA1103201999999REMMET057METAR EDLW 011450Z 20011KT CAVOK 04/M01 Q1032 RMK ATIS Q=
0084104160999992015010115204+51518+007612FM-15+013099999V0202101N005119999999Y999999999+00401-00201999999ADDMA1103201999999REMMET057METAR EDLW 011520Z 21010KT CAVOK 04/M02 Q1032 RMK ATIS R=
0084104160999992015010115504+51518+007612FM-15+013099999V0202001N004619999999Y999999999+00201-00201999999ADDMA1103101999999REMMET057METAR EDLW 011550Z 20009KT CAVOK 02/M02 Q1031 RMK ATIS S=
0084104160999992015010116204+51518+007612FM-15+013099999V0201801N005719999999Y999999999+00201-00201999999ADDMA1103101999999REMMET057METAR EDLW 011620Z 18011KT CAVOK 02/M02 Q1031 RMK ATIS T=
0084104160999992015010116504+51518+007612FM-15+013099999V0201901N008219999999Y999999999+00301-00101999999ADDMA1103001999999REMMET057METAR EDLW 011650Z 19016KT CAVOK 03/M01 Q1030 RMK ATIS U=
0084104160999992015010117204+51518+007612FM-15+013099999V0201901N008819999999Y999999999+00301-00101999999ADDMA1102901999999REMMET057METAR EDLW 011720Z 19017KT CAVOK 03/M01 Q1029 RMK ATIS V=
0084104160999992015010117504+51518+007612FM-15+013099999V0202101N006719999999Y999999999+00301-00101999999ADDMA1103001999999REMMET057METAR EDLW 011750Z 21013KT CAVOK 03/M01 Q1030 RMK ATIS W=
0084104160999992015010118204+51518+007612FM-15+013099999V0202101N005719999999Y999999999+00301-00101999999ADDMA1102901999999REMMET057METAR EDLW 011820Z 21011KT CAVOK 03/M01 Q1029 RMK ATIS X=
0084104160999992015010118504+51518+007612FM-15+013099999V0201901N006219999999Y999999999+00301-00101999999ADDMA1102901999999REMMET057METAR EDLW 011850Z 19012KT CAVOK 03/M01 Q1029 RMK ATIS Y=
0084104160999992015010119204+51518+007612FM-15+013099999V0202101N006219999999Y999999999+00301-00201999999ADDMA1102901999999REMMET057METAR EDLW 011920Z 21012KT CAVOK 03/M02 Q1029 RMK ATIS Z=
0084104160999992015010119504+51518+007612FM-15+013099999V0202001N007219999999Y999999999+00301-00201999999ADDMA1102901999999REMMET057METAR EDLW 011950Z 20014KT CAVOK 03/M02 Q1029 RMK ATIS A=
0084104160999992015010120204+51518+007612FM-15+013099999V0201901N009319999999Y999999999+00301-00201999999ADDMA1102801999999REMMET057METAR EDLW 012020Z 19018KT CAVOK 03/M02 Q1028 RMK ATIS B=
0084104160999992015010120504+51518+007612FM-15+013099999V0201901N009819999999Y999999999+00301-00301999999ADDMA1102701999999REMMET057METAR EDLW 012050Z 19019KT CAVOK 03/M03 Q1027 RMK ATIS C=
0084104160999992015010121204+51518+007612FM-15+013099999V0202001N008819999999Y999999999+00401-00401999999ADDMA1102701999999REMMET057METAR EDLW 012120Z 20017KT CAVOK 04/M04 Q1027 RMK ATIS D=
0084104160999992015010121504+51518+007612FM-15+013099999V0202001N007719999999Y999999999+00401-00401999999ADDMA1102601999999REMMET057METAR EDLW 012150Z 20015KT CAVOK 04/M04 Q1026 RMK ATIS E=
0154104160999992015010204204+51518+007612FM-15+013099999V0202101N009810061019N009999199+00601-00101999999ADDGA1071+006101999GE19MSL   +99999+99999GF199999071999006101999999MA1102101999999REMMET063METAR EDLW 020420Z 21019KT 9999 BKN020 06/M01 Q1021 RMK ATIS A=
0163104160999992015010204504+51518+007612FM-15+013099999V0202201N010810057919N009999199+00501+00101999999ADDGA1071+005791999GE19MSL   +99999+99999GF199999071999005791999999MA1102101999999MW1611REMMET066METAR EDLW 020450Z 22021KT 9999 -RA BKN019 05/01 Q1021 RMK ATIS B=
0163104160999992015010205204+51518+007612FM-15+013099999V0202201N010810054919N009999199+00501+00201999999ADDGA1071+005491999GE19MSL   +99999+99999GF199999071999005491999999MA1102101999999MW1611REMMET066METAR EDLW 020520Z 22021KT 9999 -RA BKN018 05/02 Q1021 RMK ATIS C=
0163104160999992015010205504+51518+007612FM-15+013099999V0202101N009310033519N009999199+00401+00201999999ADDGA1071+003351999GE19MSL   +99999+99999GF199999071999003351999999MA1102101999999MW1611REMMET066METAR EDLW 020550Z 21018KT 9999 -RA BKN011 04/02 Q1021 RMK ATIS D=
0162104160999992015010206204+51518+007612FM-15+013099999V0202101N010310030519N007000199+00501+00301999999ADDGA1071+003051999GE19MSL   +99999+99999GF199999071999003051999999MA1102101999999MW1631REMMET065METAR EDLW 020620Z 21020KT 7000 RA BKN010 05/03 Q1021 RMK ATIS E=
0173104160999992015010206504+51518+007612FM-15+013099999V0202201N010310027419N008000199+00501+00301999999ADDGA1071+002741999GE19MSL   +99999+99999GF199999071999002741999999MA1102101999999MW1611REMMET076METAR EDLW 020650Z 22020KT 8000 -RA BKN009 05/03 Q1021 RERA RMK ATIS      F=
0163104160999992015010207204+51518+007612FM-15+013099999V0202301N008810030519N009999199+00501+00301999999ADDGA1071+003051999GE19MSL   +99999+99999GF199999071999003051999999MA1102101999999MW1611REMMET066METAR EDLW 020720Z 23017KT 9999 -RA BKN010 05/03 Q1021 RMK ATIS G=
0179104160999992015010207504+51518+007612FM-15+013099999V0202201N010810030519N009999199+00601+00401999999ADDGA1071+003051999GE19MSL   +99999+99999GF199999071999003051999999MA1102101999999MW1611OC101601REMMET074METAR EDLW 020750Z 22021G31KT 9999 -RA BKN010 06/04 Q1021 RMK ATIS      H=
0163104160999992015010208204+51518+007612FM-15+013099999V0202201N010810027419N005000199+00601+00401999999ADDGA1071+002741999GE19MSL   +99999+99999GF199999071999002741999999MA1102101999999MW1611REMMET066METAR EDLW 020820Z 22021KT 5000 -RA BKN009 06/04 Q1021 RMK ATIS I=
0163104160999992015010208504+51518+007612FM-15+013099999V0202401N010810027419N009999199+00701+00501999999ADDGA1071+002741999GE19MSL   +99999+99999GF199999071999002741999999MA1102201999999MW1611REMMET066METAR EDLW 020850Z 24021KT 9999 -RA BKN009 07/05 Q1022 RMK ATIS J=
0163104160999992015010209204+51518+007612FM-15+013099999V0202501N009810024419N007000199+00601+00401999999ADDGA1071+002441999GE19MSL   +99999+99999GF199999071999002441999999MA1102301999999MW1611REMMET066METAR EDLW 020920Z 25019KT 7000 -RA BKN008 06/04 Q1023 RMK ATIS K=
0191104160999992015010209504+51518+007612FM-15+013099999V0202401N010810137219N009999199+00701+00501999999ADDGA1041+002441999GA2071+013721999GE19MSL   +99999+99999GF199999041999002441999999MA1102301999999MW1511REMMET078METAR EDLW 020950Z 24021KT 9999 -DZ SCT008 BKN045 07/05 Q1023 RMK ATIS      L=
0164104160999992015010210204+51518+007612FM-15+013099999V0202401N009810137219N009999199+00701+00401999999ADDGA1071+013721999GE19MSL   +99999+99999GF199999071999013721999999MA1102401999999OC101491REMMET065METAR EDLW 021020Z 24019G29KT 9999 BKN045 07/04 Q1024 RMK ATIS M=
0153104160999992015010210504+51518+007612FM-15+013099999V0202401N008810137219N009999199+00701+00401999999ADDGA1071+013721999GE19MSL   +99999+99999GF199999071999013721999999MA1102401999999REMMET062METAR EDLW 021050Z 24017KT 9999 BKN045 07/04 Q1024 RMK ATIS N=
0153104160999992015010211204+51518+007612FM-15+013099999V0202401N008210146319N009999199+00701+00501999999ADDGA1071+014631999GE19MSL   +99999+99999GF199999071999014631999999MA1102401999999REMMET062METAR EDLW 021120Z 24016KT 9999 BKN048 07/05 Q1024 RMK ATIS O=
0142104160999992015010211504+51518+007612FM-15+013099999V0202401N008210097519N009999199+00701+00401999999ADDGA1071+009751999GE19MSL   +99999+99999GF199999071999009751999999MA1102401999999REMMET051METAR EDLW 021150Z 24016KT 9999 BKN032 07/04 Q1024=
0164104160999992015010212204+51518+007612FM-15+013099999V0202501N007710054919N009999199+00801+00401999999ADDGA1071+005491999GE19MSL   +99999+99999GF199999071999005491999999MA1102401999999OC101291REMMET065METAR EDLW 021220Z 25015G25KT 9999 BKN018 08/04 Q1024 RMK ATIS Q=
0153104160999992015010212504+51518+007612FM-15+013099999V0202701N008210088419N009999199+00801+00301999999ADDGA1071+008841999GE19MSL   +99999+99999GF199999071999008841999999MA1102501999999REMMET062METAR EDLW 021250Z 27016KT 9999 BKN029 08/03 Q1025 RMK ATIS R=
0153104160999992015010213204+51518+007612FM-15+013099999V0202701N006710073219N009999199+00801+00301999999ADDGA1071+007321999GE19MSL   +99999+99999GF199999071999007321999999MA1102501999999REMMET062METAR EDLW 021320Z 27013KT 9999 BKN024 08/03 Q1025 RMK ATIS S=
0154104160999992015010213504+51518+007612FM-15+013099999V0202701N009319999999N009999199+00701+00001999999ADDGA1021+010671999GE19MSL   +99999+99999GF199999021999010671999999MA1102501999999REMMET063METAR EDLW 021350Z 27018KT 9999 FEW035 07/M00 Q1025 RMK ATIS T=
0166104160999992015010214204+51518+007612FM-15+013099999V0202701V007719999999N009999199+00701+00001999999ADDGA1021+009141999GE19MSL   +99999+99999GF199999021999009141999999MA1102601999999REMMET075METAR EDLW 021420Z 27015KT 230V290 9999 FEW030 07/00 Q1026 RMK ATIS      U=
0154104160999992015010214504+51518+007612FM-15+013099999V0202601N008219999999N009999199+00701+00001999999ADDGA1021+008531999GE19MSL   +99999+99999GF199999021999008531999999MA1102601999999REMMET063METAR EDLW 021450Z 26016KT 9999 FEW028 07/M00 Q1026 RMK ATIS V=
0154104160999992015010215204+51518+007612FM-15+013099999V0202701N007210109719N009999199+00601+00001999999ADDGA1071+010971999GE19MSL   +99999+99999GF199999071999010971999999MA1102701999999REMMET063METAR EDLW 021520Z 27014KT 9999 BKN036 06/M00 Q1027 RMK ATIS W=
0154104160999992015010215504+51518+007612FM-15+013099999V0202601N007210128019N009999199+00601+00001999999ADDGA1071+012801999GE19MSL   +99999+99999GF199999071999012801999999MA1102701999999REMMET063METAR EDLW 021550Z 26014KT 9999 BKN042 06/M00 Q1027 RMK ATIS X=
0154104160999992015010216204+51518+007612FM-15+013099999V0202701N007210118919N009999199+00601+00001999999ADDGA1071+011891999GE19MSL   +99999+99999GF199999071999011891999999MA1102701999999REMMET063METAR EDLW 021620Z 27014KT 9999 BKN039 06/M00 Q1027 RMK ATIS Y=
0154104160999992015010216504+51518+007612FM-15+013099999V0202701N006710112819N009999199+00601+00001999999ADDGA1071+011281999GE19MSL   +99999+99999GF199999071999011281999999MA1102801999999REMMET063METAR EDLW 021650Z 27013KT 9999 BKN037 06/M00 Q1028 RMK ATIS Z=
0154104160999992015010217204+51518+007612FM-15+013099999V0202701N007210109719N009999199+00601+00001999999ADDGA1071+010971999GE19MSL   +99999+99999GF199999071999010971999999MA1102901999999REMMET063METAR EDLW 021720Z 27014KT 9999 BKN036 06/M00 Q1029 RMK ATIS A=
0154104160999992015010217504+51518+007612FM-15+013099999V0202701N008210109719N009999199+00601-00101999999ADDGA1071+010971999GE19MSL   +99999+99999GF199999071999010971999999MA1102901999999REMMET063METAR EDLW 021750Z 27016KT 9999 BKN036 06/M01 Q1029 RMK ATIS B=
0154104160999992015010218204+51518+007612FM-15+013099999V0202601N006710115819N009999199+00501-00101999999ADDGA1071+011581999GE19MSL   +99999+99999GF199999071999011581999999MA1102901999999REMMET063METAR EDLW 021820Z 26013KT 9999 BKN038 05/M01 Q1029 RMK ATIS C=
0154104160999992015010218504+51518+007612FM-15+013099999V0202601N006710128019N009999199+00501-00101999999ADDGA1071+012801999GE19MSL   +99999+99999GF199999071999012801999999MA1103001999999REMMET063METAR EDLW 021850Z 26013KT 9999 BKN042 05/M01 Q1030 RMK ATIS D=
0143104160999992015010219204+51518+007612FM-15+013099999V0202501N006219999999N009999199+00501+00001999999ADDGA1041+012501999GE19MSL   +99999+99999GF199999041999012501999999MA1103001999999REMMET052METAR EDLW 021920Z 25012KT 9999 SCT041 05/M00 Q1030=
0154104160999992015010219504+51518+007612FM-15+013099999V0202401N006719999999N009999199+00401+00001999999ADDGA1041+012501999GE19MSL   +99999+99999GF199999041999012501999999MA1103001999999REMMET063METAR EDLW 021950Z 24013KT 9999 SCT041 04/M00 Q1030 RMK ATIS F=
0154104160999992015010220204+51518+007612FM-15+013099999V0202501N007219999999N009999199+00401+00001999999ADDGA1041+012501999GE19MSL   +99999+99999GF199999041999012501999999MA1103001999999REMMET063METAR EDLW 022020Z 25014KT 9999 SCT041 04/M00 Q1030 RMK ATIS G=
0154104160999992015010220504+51518+007612FM-15+013099999V0202401N007719999999N009999199+00401+00001999999ADDGA1021+014331999GE19MSL   +99999+99999GF199999021999014331999999MA1103001999999REMMET063METAR EDLW 022050Z 24015KT 9999 FEW047 04/M00 Q1030 RMK ATIS H=
0084104160999992015010221204+51518+007612FM-15+013099999V0202501N007219999999Y999999999+00401-00101999999ADDMA1103001999999REMMET057METAR EDLW 022120Z 25014KT CAVOK 04/M01 Q1030 RMK ATIS I=
0084104160999992015010221504+51518+007612FM-15+013099999V0202401N007219999999Y999999999+00401+00001999999ADDMA1103001999999REMMET057METAR EDLW 022150Z 24014KT CAVOK 04/M00 Q1030 RMK ATIS J=
0084104160999992015010304204+51518+007612FM-15+013099999V0202101N005719999999Y999999999+00301-00101999999ADDMA1102901999999REMMET057METAR EDLW 030420Z 21011KT CAVOK 03/M01 Q1029 RMK ATIS A=
0084104160999992015010304504+51518+007612FM-15+013099999V0202101N005719999999Y999999999+00301-00101999999ADDMA1102801999999REMMET057METAR EDLW 030450Z 21011KT CAVOK 03/M01 Q1028 RMK ATIS B=
0084104160999992015010305204+51518+007612FM-15+013099999V0202101N005119999999Y999999999+00301-00101999999ADDMA1102701999999REMMET057METAR EDLW 030520Z 21010KT CAVOK 03/M01 Q1027 RMK ATIS C=
0092104160999992015010305504+51518+007612FM-15+013099999V0201901V004119999999Y999999999+00301-00101999999ADDMA1102701999999REMMET065METAR EDLW 030550Z 19008KT 170V230 CAVOK 03/M01 Q1027 RMK ATIS D=
0084104160999992015010306204+51518+007612FM-15+013099999V0202101N005119999999Y999999999+00301-00101999999ADDMA1102601999999REMMET057METAR EDLW 030620Z 21010KT CAVOK 03/M01 Q1026 RMK ATIS E=
0084104160999992015010306504+51518+007612FM-15+013099999V0202201N006719999999Y999999999+00401-00101999999ADDMA1102601999999REMMET057METAR EDLW 030650Z 22013KT CAVOK 04/M01 Q1026 RMK ATIS F=
0084104160999992015010307204+51518+007612FM-15+013099999V0202001N005719999999Y999999999+00301-00101999999ADDMA1102601999999REMMET057METAR EDLW 030720Z 20011KT CAVOK 03/M01 Q1026 RMK ATIS G=
0084104160999992015010307504+51518+007612FM-15+013099999V0202101N006219999999Y999999999+00301-00101999999ADDMA1102601999999REMMET057METAR EDLW 030750Z 21012KT CAVOK 03/M01 Q1026 RMK ATIS H=
0084104160999992015010308204+51518+007612FM-15+013099999V0202201N006219999999Y999999999+00301-00101999999ADDMA1102501999999REMMET057METAR EDLW 030820Z 22012KT CAVOK 03/M01 Q1025 RMK ATIS I=
0084104160999992015010308504+51518+007612FM-15+013099999V0202201N008219999999Y999999999+00401-00101999999ADDMA1102501999999REMMET057METAR EDLW 030850Z 22016KT CAVOK 04/M01 Q1025 RMK ATIS J=
0154104160999992015010309204+51518+007612FM-15+013099999V0202201N007719999999N009999199+00401-00101999999ADDGA1041+009751999GE19MSL   +99999+99999GF199999041999009751999999MA1102401999999REMMET063METAR EDLW 030920Z 22015KT 9999 SCT032 04/M01 Q1024 RMK ATIS K=
0163104160999992015010309504+51518+007612FM-15+013099999V0202401N007710054919N009999199+00301+00001999999ADDGA1071+005491999GE19MSL   +99999+99999GF199999071999005491999999MA1102401999999MW1611REMMET066METAR EDLW 030950Z 24015KT 9999 -RA BKN018 03/00 Q1024 RMK ATIS L=
0163104160999992015010310204+51518+007612FM-15+013099999V0202301N007210030519N009000199+00301+00001999999ADDGA1071+003051999GE19MSL   +99999+99999GF199999071999003051999999MA1102401999999MW1611REMMET066METAR EDLW 031020Z 23014KT 9000 -RA BKN010 03/00 Q1024 RMK ATIS M=
0163104160999992015010310504+51518+007612FM-15+013099999V0202201N005710030519N009000199+00201+00101999999ADDGA1071+003051999GE19MSL   +99999+99999GF199999071999003051999999MA1102301999999MW1611REMMET066METAR EDLW 031050Z 22011KT 9000 -RA BKN010 02/01 Q1023 RMK ATIS N=
0163104160999992015010311204+51518+007612FM-15+013099999V0202301N005710027419N006000199+00201+00101999999ADDGA1071+002741999GE19MSL   +99999+99999GF199999071999002741999999MA1102201999999MW1611REMMET066METAR EDLW 031120Z 23011KT 6000 -RA BKN009 02/01 Q1022 RMK ATIS O=
0162104160999992015010311504+51518+007612FM-15+013099999V0202301N005110033519N009999199+00301+00101999999ADDGA1071+003351999GE19MSL   +99999+99999GF199999071999003351999999MA1102101999999MW1531REMMET065METAR EDLW 031150Z 23010KT 9999 DZ BKN011 03/01 Q1021 RMK ATIS P=
0163104160999992015010312204+51518+007612FM-15+013099999V0202201N004610027419N009999199+00301+00101999999ADDGA1071+002741999GE19MSL   +99999+99999GF199999071999002741999999MA1102001999999MW1611REMMET066METAR EDLW 031220Z 22009KT 9999 -RA BKN009 03/01 Q1020 RMK ATIS Q=
0163104160999992015010312504+51518+007612FM-15+013099999V0202101N005110024419N009999199+00201+00101999999ADDGA1071+002441999GE19MSL   +99999+99999GF199999071999002441999999MA1101901999999MW1511REMMET066METAR EDLW 031250Z 21010KT 9999 -DZ BKN008 02/01 Q1019 RMK ATIS R=
0166104160999992015010313204+51518+007612FM-15+013099999V0202001V004110027419N009999199+00201+00001999999ADDGA1071+002741999GE19MSL   +99999+99999GF199999071999002741999999MA1101801999999REMMET075METAR EDLW 031320Z 20008KT 180V240 9999 BKN009 02/00 Q1018 RMK ATIS      S=
0181104160999992015010313504+51518+007612FM-15+013099999V0202101N004110088419N009999199+00301+00001999999ADDGA1041+003351999GA2071+008841999GE19MSL   +99999+99999GF199999041999003351999999MA1101801999999REMMET074METAR EDLW 031350Z 21008KT 9999 SCT011 BKN029 03/00 Q1018 RMK ATIS      T=
0153104160999992015010314204+51518+007612FM-15+013099999V0202201N004110054919N009999199+00201+00001999999ADDGA1071+005491999GE19MSL   +99999+99999GF199999071999005491999999MA1101701999999REMMET062METAR EDLW 031420Z 22008KT 9999 BKN018 02/00 Q1017 RMK ATIS U=
0153104160999992015010314504+51518+007612FM-15+013099999V0202201N003110051819N009999199+00301+00001999999ADDGA1081+005181999GE19MSL   +99999+99999GF199999081999005181999999MA1101701999999REMMET062METAR EDLW 031450Z 22006KT 9999 OVC017 03/00 Q1017 RMK ATIS V=
0153104160999992015010315204+51518+007612FM-15+013099999V0202301N003610048819N009999199+00201+00001999999ADDGA1081+004881999GE19MSL   +99999+99999GF199999081999004881999999MA1101701999999REMMET062METAR EDLW 031520Z 23007KT 9999 OVC016 02/00 Q1017 RMK ATIS W=
0153104160999992015010315504+51518+007612FM-15+013099999V0202201N003110045719N009999199+00201+00001999999ADDGA1081+004571999GE19MSL   +99999+99999GF199999081999004571999999MA1101701999999REMMET062METAR EDLW 031550Z 22006KT 9999 OVC015 02/00 Q1017 RMK ATIS X=
0181104160999992015010316204+51518+007612FM-15+013099999V0202401N003110045719N009999199+00201+00001999999ADDGA1071+004571999GA2071+007921999GE19MSL   +99999+99999GF199999071999004571999999MA1101601999999REMMET074METAR EDLW 031620Z 24006KT 9999 BKN015 BKN026 02/00 Q1016 RMK ATIS      Y=
0165104160999992015010316504+51518+007612FM-15+013099999V0202701N001510051819N009999199+00201+00001999999ADDGA1071+005181999GE19MSL   +99999+99999GF199999071999005181999999MA1101601999999MW1681REMMET068METAR EDLW 031650Z 27003KT 9999 -RASN BKN017 02/00 Q1016 RMK ATIS Z=
0164104160999992015010317204+51518+007612FM-15+013099999V0202601N001510030519N008000199+00201+00001999999ADDGA1071+003051999GE19MSL   +99999+99999GF199999071999003051999999MA1101601999999MW1691REMMET067METAR EDLW 031720Z 26003KT 8000 RASN BKN010 02/00 Q1016 RMK ATIS A=
0165104160999992015010317504+51518+007612FM-15+013099999V0202501N003110018319N008000199+00101+00001999999ADDGA1071+001831999GE19MSL   +99999+99999GF199999071999001831999999MA1101701999999MW1691REMMET068METAR EDLW 031750Z 25006KT 8000 RASN BKN006 01/M00 Q1017 RMK ATIS B=
0177104160999992015010318204+51518+007612FM-15+013099999V0202501N002610015219N009000199+00101+00001999999ADDGA1071+001521999GE19MSL   +99999+99999GF199999071999001521999999MA1101701999999MW1681REMMET080METAR EDLW 031820Z 25005KT 9000 -RASN BKN005 01/00 Q1017 RERASN RMK      ATIS C=
0181104160999992015010318504+51518+007612FM-15+013099999V0202601N003610015219N009000199+00201+00001999999ADDGA1071+001521999GA2071+002741999GE19MSL   +99999+99999GF199999071999001521999999MA1101801999999REMMET074METAR EDLW 031850Z 26007KT 9000 BKN005 BKN009 02/00 Q1018 RMK ATIS      D=
0153104160999992015010319204+51518+007612FM-15+013099999V0202601N003610018319N008000199+00201+00001999999ADDGA1071+001831999GE19MSL   +99999+99999GF199999071999001831999999MA1101801999999REMMET062METAR EDLW 031920Z 26007KT 8000 BKN006 02/00 Q1018 RMK ATIS E=
0153104160999992015010319504+51518+007612FM-15+013099999V0202701N004610015219N009000199+00201+00001999999ADDGA1071+001521999GE19MSL   +99999+99999GF199999071999001521999999MA1101801999999REMMET062METAR EDLW 031950Z 27009KT 9000 BKN005 02/00 Q1018 RMK ATIS F=
0153104160999992015010320204+51518+007612FM-15+013099999V0202601N005110018319N009000199+00201+00101999999ADDGA1071+001831999GE19MSL   +99999+99999GF199999071999001831999999MA1101901999999REMMET062METAR EDLW 032020Z 26010KT 9000 BKN006 02/01 Q1019 RMK ATIS G=
0153104160999992015010320504+51518+007612FM-15+013099999V0202701N006710018319N008000199+00201+00101999999ADDGA1071+001831999GE19MSL   +99999+99999GF199999071999001831999999MA1102001999999REMMET062METAR EDLW 032050Z 27013KT 8000 BKN006 02/01 Q1020 RMK ATIS H=
0153104160999992015010321204+51518+007612FM-15+013099999V0202601N005110015219N008000199+00201+00101999999ADDGA1071+001521999GE19MSL   +99999+99999GF199999071999001521999999MA1102001999999REMMET062METAR EDLW 032120Z 26010KT 8000 BKN005 02/01 Q1020 RMK ATIS I=
0153104160999992015010321504+51518+007612FM-15+013099999V0202601N005110015219N009000199+00201+00101999999ADDGA1071+001521999GE19MSL   +99999+99999GF199999071999001521999999MA1102101999999REMMET062METAR EDLW 032150Z 26010KT 9000 BKN005 02/01 Q1021 RMK ATIS J=
0154104160999992015010404204+51518+007612FM-15+013099999V0202501N004619999999N009999199+00101-00101999999ADDGA1021+013111999GE19MSL   +99999+99999GF199999021999013111999999MA1102701999999REMMET063METAR EDLW 040420Z 25009KT 9999 FEW043 01/M01 Q1027 RMK ATIS A=
0154104160999992015010404504+51518+007612FM-15+013099999V0202501N005119999999N009999199+00101-00101999999ADDGA1021+013411999GE19MSL   +99999+99999GF199999021999013411999999MA1102801999999REMMET063METAR EDLW 040450Z 25010KT 9999 FEW044 01/M01 Q1028 RMK ATIS B=
0167104160999992015010405204+51518+007612FM-15+013099999V0202501V005119999999N009999199+00201+00001999999ADDGA1041+014631999GE19MSL   +99999+99999GF199999041999014631999999MA1102801999999REMMET076METAR EDLW 040520Z 25010KT 230V290 9999 SCT048 02/M00 Q1028 RMK ATIS      C=
0167104160999992015010405504+51518+007612FM-15+013099999V0202601V004110128019N009999199+00201+00001999999ADDGA1071+012801999GE19MSL   +99999+99999GF199999071999012801999999MA1102801999999REMMET076METAR EDLW 040550Z 26008KT 240V300 9999 BKN042 02/M00 Q1028 RMK ATIS      D=
0084104160999992015010406204+51518+007612FM-15+013099999V0202401N004619999999Y999999999+00101-00101999999ADDMA1102901999999REMMET057METAR EDLW 040620Z 24009KT CAVOK 01/M01 Q1029 RMK ATIS E=
0154104160999992015010406504+51518+007612FM-15+013099999V0202601N005119999999N009999199+00101-00101999999ADDGA1041+009141999GE19MSL   +99999+99999GF199999041999009141999999MA1102901999999REMMET063METAR EDLW 040650Z 26010KT 9999 SCT030 01/M01 Q1029 RMK ATIS F=
0154104160999992015010407204+51518+007612FM-15+013099999V0202601N004619999999N009999199+00101-00101999999ADDGA1041+009751999GE19MSL   +99999+99999GF199999041999009751999999MA1102901999999REMMET063METAR EDLW 040720Z 26009KT 9999 SCT032 01/M01 Q1029 RMK ATIS G=
0084104160999992015010407504+51518+007612FM-15+013099999V0202401N005119999999Y999999999+00101-00101999999ADDMA1102901999999REMMET057METAR EDLW 040750Z 24010KT CAVOK 01/M01 Q1029 RMK ATIS H=
0084104160999992015010408204+51518+007612FM-15+013099999V0202501N004619999999Y999999999+00101-00101999999ADDMA1103001999999REMMET057METAR EDLW 040820Z 25009KT CAVOK 01/M01 Q1030 RMK ATIS I=
0167104160999992015010408504+51518+007612FM-15+013099999V0202601V004619999999N009999199+00201-00101999999ADDGA1041+009751999GE19MSL   +99999+99999GF199999041999009751999999MA1103001999999REMMET076METAR EDLW 040850Z 26009KT 230V290 9999 SCT032 02/M01 Q1030 RMK ATIS      J=
0154104160999992015010409204+51518+007612FM-15+013099999V0202601N003619999999N009999199+00201+00001999999ADDGA1041+010361999GE19MSL   +99999+99999GF199999041999010361999999MA1103101999999REMMET063METAR EDLW 040920Z 26007KT 9999 SCT034 02/M00 Q1031 RMK ATIS K=
0154104160999992015010409504+51518+007612FM-15+013099999V0202701N005719999999N009999199+00301+00001999999ADDGA1041+012191999GE19MSL   +99999+99999GF199999041999012191999999MA1103101999999REMMET063METAR EDLW 040950Z 27011KT 9999 SCT040 03/M00 Q1031 RMK ATIS L=
0154104160999992015010410204+51518+007612FM-15+013099999V0202701N005719999999N009999199+00301+00001999999ADDGA1021+010971999GE19MSL   +99999+99999GF199999021999010971999999MA1103201999999REMMET063METAR EDLW 041020Z 27011KT 9999 FEW036 03/M00 Q1032 RMK ATIS M=
0154104160999992015010410504+51518+007612FM-15+013099999V0202701N005719999999N009999199+00401+00001999999ADDGA1021+012801999GE19MSL   +99999+99999GF199999021999012801999999MA1103201999999REMMET063METAR EDLW 041050Z 27011KT 9999 FEW042 04/M00 Q1032 RMK ATIS N=
0083104160999992015010411204+51518+007612FM-15+013099999V0202801N005719999999Y999999999+00401+00001999999ADDMA1103201999999REMMET056METAR EDLW 041120Z 28011KT CAVOK 04/00 Q1032 RMK ATIS O=
0083104160999992015010411504+51518+007612FM-15+013099999V0202801N007719999999Y999999999+00501+00001999999ADDMA1103201999999REMMET056METAR EDLW 041150Z 28015KT CAVOK 05/00 Q1032 RMK ATIS P=
0154104160999992015010412204+51518+007612FM-15+013099999V0202901N007719999999N009999199+00501+00001999999ADDGA1041+014631999GE19MSL   +99999+99999GF199999041999014631999999MA1103201999999REMMET063METAR EDLW 041220Z 29015KT 9999 SCT048 05/M00 Q1032 RMK ATIS Q=
0153104160999992015010412504+51518+007612FM-15+013099999V0202901N006719999999N009999199+00501+00001999999ADDGA1021+009141999GE19MSL   +99999+99999GF199999021999009141999999MA1103201999999REMMET062METAR EDLW 041250Z 29013KT 9999 FEW030 05/00 Q1032 RMK ATIS R=
0153104160999992015010413204+51518+007612FM-15+013099999V0202901N005719999999N009999199+00501+00001999999ADDGA1041+009141999GE19MSL   +99999+99999GF199999041999009141999999MA1103201999999REMMET062METAR EDLW 041320Z 29011KT 9999 SCT030 05/00 Q1032 RMK ATIS S=
0153104160999992015010413504+51518+007612FM-15+013099999V0202901N004619999999N009999199+00501+00001999999ADDGA1041+007921999GE19MSL   +99999+99999GF199999041999007921999999MA1103301999999REMMET062METAR EDLW 041350Z 29009KT 9999 SCT026 05/00 Q1033 RMK ATIS T=
0153104160999992015010414204+51518+007612FM-15+013099999V0202801N005119999999N009999199+00501+00001999999ADDGA1041+007921999GE19MSL   +99999+99999GF199999041999007921999999MA1103301999999REMMET062METAR EDLW 041420Z 28010KT 9999 SCT026 05/00 Q1033 RMK ATIS U=
0153104160999992015010414504+51518+007612FM-15+013099999V0202801N005119999999N009999199+00501+00001999999ADDGA1041+007921999GE19MSL   +99999+99999GF199999041999007921999999MA1103301999999REMMET062METAR EDLW 041450Z 28010KT 9999 SCT026 05/00 Q1033 RMK ATIS V=
0153104160999992015010415204+51518+007612FM-15+013099999V0202701N004119999999N009999199+00401+00001999999ADDGA1041+009141999GE19MSL   +99999+99999GF199999041999009141999999MA1103301999999REMMET062METAR EDLW 041520Z 27008KT 9999 SCT030 04/00 Q1033 RMK ATIS W=
0165104160999992015010415504+51518+007612FM-15+013099999V0202801N004610064019N009999199+00401+00001999999ADDGA1071+006401999GE19MSL   +99999+99999GF199999071999006401999999MA1103401999999MW1801REMMET068METAR EDLW 041550Z 28009KT 9999 -SHRA BKN021 04/00 Q1034 RMK ATIS X=
0164104160999992015010416204+51518+007612FM-15+013099999V0202801N004119999999N009999199+00401+00101999999ADDGA1041+014331999GE19MSL   +99999+99999GF199999041999014331999999MA1103401999999MW1161REMMET067METAR EDLW 041620Z 28008KT 9999 VCSH SCT047 04/01 Q1034 RMK ATIS Y=
0083104160999992015010416504+51518+007612FM-15+013099999V0202701N003619999999Y999999999+00301+00001999999ADDMA1103401999999REMMET056METAR EDLW 041650Z 27007KT CAVOK 03/00 Q1034 RMK ATIS Z=
0084104160999992015010417204+51518+007612FM-15+013099999V0202501N004119999999Y999999999+00201+00001999999ADDMA1103401999999REMMET057METAR EDLW 041720Z 25008KT CAVOK 02/M00 Q1034 RMK ATIS A=
0083104160999992015010417504+51518+007612FM-15+013099999V0202501N004119999999Y999999999+00201+00001999999ADDMA1103401999999REMMET056METAR EDLW 041750Z 25008KT CAVOK 02/00 Q1034 RMK ATIS B=
0084104160999992015010418204+51518+007612FM-15+013099999V0202501N004119999999Y999999999+00201+00001999999ADDMA1103401999999REMMET057METAR EDLW 041820Z 25008KT CAVOK 02/M00 Q1034 RMK ATIS C=
0084104160999992015010418504+51518+007612FM-15+013099999V0202501N004119999999Y999999999+00201+00001999999ADDMA1103401999999REMMET057METAR EDLW 041850Z 25008KT CAVOK 02/M00 Q1034 RMK ATIS D=
0154104160999992015010419204+51518+007612FM-15+013099999V0202401N004119999999N009999199+00201+00001999999ADDGA1021+009141999GE19MSL   +99999+99999GF199999021999009141999999MA1103501999999REMMET063METAR EDLW 041920Z 24008KT 9999 FEW030 02/M00 Q1035 RMK ATIS E=
0153104160999992015010419504+51518+007612FM-15+013099999V0202401N004610097519N009999199+00201+00001999999ADDGA1071+009751999GE19MSL   +99999+99999GF199999071999009751999999MA1103501999999REMMET062METAR EDLW 041950Z 24009KT 9999 BKN032 02/00 Q1035 RMK ATIS F=
0153104160999992015010420204+51518+007612FM-15+013099999V0202401N004610076219N009999199+00201+00101999999ADDGA1071+007621999GE19MSL   +99999+99999GF199999071999007621999999MA1103501999999REMMET062METAR EDLW 042020Z 24009KT 9999 BKN025 02/01 Q1035 RMK ATIS G=
0153104160999992015010420504+51518+007612FM-15+013099999V0202301N004110085319N009999199+00201+00101999999ADDGA1071+008531999GE19MSL   +99999+99999GF199999071999008531999999MA1103501999999REMMET062METAR EDLW 042050Z 23008KT 9999 BKN028 02/01 Q1035 RMK ATIS H=
0153104160999992015010421204+51518+007612FM-15+013099999V0202301N004610091419N009999199+00301+00101999999ADDGA1071+009141999GE19MSL   +99999+99999GF199999071999009141999999MA1103501999999REMMET062METAR EDLW 042120Z 23009KT 9999 BKN030 03/01 Q1035 RMK ATIS I=
0153104160999992015010421504+51518+007612FM-15+013099999V0202401N004610115819N009999199+00301+00101999999ADDGA1071+011581999GE19MSL   +99999+99999GF199999071999011581999999MA1103501999999REMMET062METAR EDLW 042150Z 24009KT 9999 BKN038 03/01 Q1035 RMK ATIS J=
0143104160999992015010504204+51518+007612FM-15+013099999V0202401N005710039619N009999199+00201+00001999999ADDGA1071+003961999GE19MSL   +99999+99999GF199999071999003961999999MA1103401999999REMMET052METAR EDLW 050420Z 24011KT 9999 BKN013 02/M00 Q1034=
0154104160999992015010504504+51518+007612FM-15+013099999V0202401N005110033519N009999199+00201+00001999999ADDGA1071+003351999GE19MSL   +99999+99999GF199999071999003351999999MA1103401999999REMMET063METAR EDLW 050450Z 24010KT 9999 BKN011 02/M00 Q1034 RMK ATIS B=
0154104160999992015010505204+51518+007612FM-15+013099999V0202401N005110033519N009999199+00201-00101999999ADDGA1071+003351999GE19MSL   +99999+99999GF199999071999003351999999MA1103401999999REMMET063METAR EDLW 050520Z 24010KT 9999 BKN011 02/M01 Q1034 RMK ATIS C=
0154104160999992015010505504+51518+007612FM-15+013099999V0202301N005110054919N009999199+00201+00001999999ADDGA1071+005491999GE19MSL   +99999+99999GF199999071999005491999999MA1103301999999REMMET063METAR EDLW 050550Z 23010KT 9999 BKN018 02/M00 Q1033 RMK ATIS D=
0167104160999992015010506204+51518+007612FM-15+013099999V0202401V004610054919N009999199+00201-00101999999ADDGA1071+005491999GE19MSL   +99999+99999GF199999071999005491999999MA1103301999999REMMET076METAR EDLW 050620Z 24009KT 220V280 9999 BKN018 02/M01 Q1033 RMK ATIS      E=
0154104160999992015010506504+51518+007612FM-15+013099999V0202301N005110054919N009999199+00201-00101999999ADDGA1071+005491999GE19MSL   +99999+99999GF199999071999005491999999MA1103301999999REMMET063METAR EDLW 050650Z 23010KT 9999 BKN018 02/M01 Q1033 RMK ATIS F=
0154104160999992015010507204+51518+007612FM-15+013099999V0202401N004610051819N009999199+00201-00101999999ADDGA1071+005181999GE19MSL   +99999+99999GF199999071999005181999999MA1103301999999REMMET063METAR EDLW 050720Z 24009KT 9999 BKN017 02/M01 Q1033 RMK ATIS G=
0167104160999992015010507504+51518+007612FM-15+013099999V0202401V004610051819N009999199+00201-00101999999ADDGA1071+005181999GE19MSL   +99999+99999GF199999071999005181999999MA1103301999999REMMET076METAR EDLW 050750Z 24009KT 200V270 9999 BKN017 02/M01 Q1033 RMK ATIS      H=
0154104160999992015010508204+51518+007612FM-15+013099999V0202401N004610051819N009999199+00201-00101999999ADDGA1071+005181999GE19MSL   +99999+99999GF199999071999005181999999MA1103301999999REMMET063METAR EDLW 050820Z 24009KT 9999 BKN017 02/M01 Q1033 RMK ATIS I=
0154104160999992015010508504+51518+007612FM-15+013099999V0202501N004610051819N009999199+00201-00101999999ADDGA1071+005181999GE19MSL   +99999+99999GF199999071999005181999999MA1103301999999REMMET063METAR EDLW 050850Z 25009KT 9999 BKN017 02/M01 Q1033 RMK ATIS J=
0154104160999992015010509204+51518+007612FM-15+013099999V0202501N004610051819N009999199+00201-00101999999ADDGA1071+005181999GE19MSL   +99999+99999GF199999071999005181999999MA1103301999999REMMET063METAR EDLW 050920Z 25009KT 9999 BKN017 02/M01 Q1033 RMK ATIS K=
0154104160999992015010509504+51518+007612FM-15+013099999V0202501N004610054919N009999199+00301-00101999999ADDGA1071+005491999GE19MSL   +99999+99999GF199999071999005491999999MA1103301999999REMMET063METAR EDLW 050950Z 25009KT 9999 BKN018 03/M01 Q1033 RMK ATIS L=
0154104160999992015010510204+51518+007612FM-15+013099999V0202401N004110054919N009999199+00301-00101999999ADDGA1071+005491999GE19MSL   +99999+99999GF199999071999005491999999MA1103201999999REMMET063METAR EDLW 051020Z 24008KT 9999 BKN018 03/M01 Q1032 RMK ATIS M=
0154104160999992015010510504+51518+007612FM-15+013099999V0202301N004119999999N009999199+00301-00101999999ADDGA1021+006101999GE19MSL   +99999+99999GF199999021999006101999999MA1103201999999REMMET063METAR EDLW 051050Z 23008KT 9999 FEW020 03/M01 Q1032 RMK ATIS N=
0084104160999992015010511204+51518+007612FM-15+013099999V0202301N004619999999Y999999999+00401-00101999999ADDMA1103201999999REMMET057METAR EDLW 051120Z 23009KT CAVOK 04/M01 Q1032 RMK ATIS O=
0084104160999992015010511504+51518+007612FM-15+013099999V0202401N004619999999Y999999999+00401-00101999999ADDMA1103101999999REMMET057METAR EDLW 051150Z 24009KT CAVOK 04/M01 Q1031 RMK ATIS P=
0084104160999992015010512204+51518+007612FM-15+013099999V0202501N005719999999Y999999999+00401-00101999999ADDMA1103101999999REMMET057METAR EDLW 051220Z 25011KT CAVOK 04/M01 Q1031 RMK ATIS Q=
0073104160999992015010512504+51518+007612FM-15+013099999V0202401N004619999999Y999999999+00401-00101999999ADDMA1103001999999REMMET046METAR EDLW 051250Z 24009KT CAVOK 04/M01 Q1030=
0084104160999992015010513204+51518+007612FM-15+013099999V0202501N003619999999Y999999999+00501-00101999999ADDMA1103001999999REMMET057METAR EDLW 051320Z 25007KT CAVOK 05/M01 Q1030 RMK ATIS S=
0084104160999992015010513504+51518+007612FM-15+013099999V0202401N005719999999Y999999999+00401-00201999999ADDMA1103001999999REMMET057METAR EDLW 051350Z 24011KT CAVOK 04/M02 Q1030 RMK ATIS T=
0084104160999992015010514074+51518+007612FM-16+013099999V0202501N006219999999Y999999999+00401-00201999999ADDMA1103001999999REMMET057SPECI EDLW 051407Z 25012KT CAVOK 04/M02 Q1030 RMK ATIS U=
0084104160999992015010514204+51518+007612FM-15+013099999V0202501N005719999999Y999999999+00401-00101999999ADDMA1103001999999REMMET057METAR EDLW 051420Z 25011KT CAVOK 04/M01 Q1030 RMK ATIS V=
0084104160999992015010514504+51518+007612FM-15+013099999V0202401N005119999999Y999999999+00301-00101999999ADDMA1103001999999REMMET057METAR EDLW 051450Z 24010KT CAVOK 03/M01 Q1030 RMK ATIS W=
0154104160999992015010515204+51518+007612FM-15+013099999V0202501N005119999999N009999199+00201-00101999999ADDGA1041+006101999GE19MSL   +99999+99999GF199999041999006101999999MA1103001999999REMMET063METAR EDLW 051520Z 25010KT 9999 SCT020 02/M01 Q1030 RMK ATIS X=
0154104160999992015010515504+51518+007612FM-15+013099999V0202401N006210051819N009999199+00301-00101999999ADDGA1071+005181999GE19MSL   +99999+99999GF199999071999005181999999MA1103001999999REMMET063METAR EDLW 051550Z 24012KT 9999 BKN017 03/M01 Q1030 RMK ATIS Z=
0154104160999992015010516204+51518+007612FM-15+013099999V0202501N006710033519N009999199+00301-00101999999ADDGA1071+003351999GE19MSL   +99999+99999GF199999071999003351999999MA1103001999999REMMET063METAR EDLW 051620Z 25013KT 9999 BKN011 03/M01 Q1030 RMK ATIS A=
0154104160999992015010516504+51518+007612FM-15+013099999V0202501N005710030519N009999199+00201+00001999999ADDGA1071+003051999GE19MSL   +99999+99999GF199999071999003051999999MA1103001999999REMMET063METAR EDLW 051650Z 25011KT 9999 BKN010 02/M00 Q1030 RMK ATIS B=
0154104160999992015010517204+51518+007612FM-15+013099999V0202501N003110030519N009999199+00301+00001999999ADDGA1071+003051999GE19MSL   +99999+99999GF199999071999003051999999MA1103001999999REMMET063METAR EDLW 051720Z 25006KT 9999 BKN010 03/M00 Q1030 RMK ATIS C=
0153104160999992015010517504+51518+007612FM-15+013099999V0202201N002110073219N009999199+00201+00001999999ADDGA1071+007321999GE19MSL   +99999+99999GF199999071999007321999999MA1102901999999REMMET062METAR EDLW 051750Z 22004KT 9999 BKN024 02/00 Q1029 RMK ATIS D=
0153104160999992015010518204+51518+007612FM-15+013099999V0201701N003610085319N009999199+00301+00001999999ADDGA1071+008531999GE19MSL   +99999+99999GF199999071999008531999999MA1102901999999REMMET062METAR EDLW 051820Z 17007KT 9999 BKN028 03/00 Q1029 RMK ATIS E=
0153104160999992015010518504+51518+007612FM-15+013099999V0201701N004610085319N009999199+00301+00001999999ADDGA1071+008531999GE19MSL   +99999+99999GF199999071999008531999999MA1102901999999REMMET062METAR EDLW 051850Z 17009KT 9999 BKN028 03/00 Q1029 RMK ATIS F=
0154104160999992015010519204+51518+007612FM-15+013099999V0201801N004110085319N009999199+00301+00001999999ADDGA1071+008531999GE19MSL   +99999+99999GF199999071999008531999999MA1102901999999REMMET063METAR EDLW 051920Z 18008KT 9999 BKN028 03/M00 Q1029 RMK ATIS G=
0154104160999992015010519504+51518+007612FM-15+013099999V0201801N004110091419N009999199+00301+00001999999ADDGA1071+009141999GE19MSL   +99999+99999GF199999071999009141999999MA1102801999999REMMET063METAR EDLW 051950Z 18008KT 9999 BKN030 03/M00 Q1028 RMK ATIS H=
0154104160999992015010520204+51518+007612FM-15+013099999V0201801N004110091419N009999199+00301+00001999999ADDGA1071+009141999GE19MSL   +99999+99999GF199999071999009141999999MA1102801999999REMMET063METAR EDLW 052020Z 18008KT 9999 BKN030 03/M00 Q1028 RMK ATIS I=
0154104160999992015010520504+51518+007612FM-15+013099999V0201801N003110097519N009999199+00301+00001999999ADDGA1071+009751999GE19MSL   +99999+99999GF199999071999009751999999MA1102801999999REMMET063METAR EDLW 052050Z 18006KT 9999 BKN032 03/M00 Q1028 RMK ATIS J=
0153104160999992015010521204+51518+007612FM-15+013099999V0209999V001010103619N009999199+00301+00001999999ADDGA1071+010361999GE19MSL   +99999+99999GF199999071999010361999999MA1102801999999REMMET062METAR EDLW 052120Z VRB02KT 9999 BKN034 03/00 Q1028 RMK ATIS K=
0153104160999992015010521504+51518+007612FM-15+013099999V0202101N001510106719N009999199+00301+00001999999ADDGA1071+010671999GE19MSL   +99999+99999GF199999071999010671999999MA1102801999999REMMET062METAR EDLW 052150Z 21003KT 9999 BKN035 03/00 Q1028 RMK ATIS L=
0154104160999992015010604204+51518+007612FM-15+013099999V0201701N004610085319N009999199+00301+00001999999ADDGA1071+008531999GE19MSL   +99999+99999GF199999071999008531999999MA1102401999999REMMET063METAR EDLW 060420Z 17009KT 9999 BKN028 03/M00 Q1024 RMK ATIS M=
0154104160999992015010604504+51518+007612FM-15+013099999V0201801N003610082319N009999199+00301+00001999999ADDGA1071+008231999GE19MSL   +99999+99999GF199999071999008231999999MA1102401999999REMMET063METAR EDLW 060450Z 18007KT 9999 BKN027 03/M00 Q1024 RMK ATIS B=
0154104160999992015010605204+51518+007612FM-15+013099999V0201701N003610079219N009999199+00301+00001999999ADDGA1071+007921999GE19MSL   +99999+99999GF199999071999007921999999MA1102401999999REMMET063METAR EDLW 060520Z 17007KT 9999 BKN026 03/M00 Q1024 RMK ATIS C=
0154104160999992015010605504+51518+007612FM-15+013099999V0201701N004110079219N009999199+00301+00001999999ADDGA1071+007921999GE19MSL   +99999+99999GF199999071999007921999999MA1102401999999REMMET063METAR EDLW 060550Z 17008KT 9999 BKN026 03/M00 Q1024 RMK ATIS D=
0154104160999992015010606204+51518+007612FM-15+013099999V0201701N004110079219N009999199+00301+00001999999ADDGA1071+007921999GE19MSL   +99999+99999GF199999071999007921999999MA1102401999999REMMET063METAR EDLW 060620Z 17008KT 9999 BKN026 03/M00 Q1024 RMK ATIS E=
0154104160999992015010606504+51518+007612FM-15+013099999V0201701N003610079219N009999199+00301-00101999999ADDGA1071+007921999GE19MSL   +99999+99999GF199999071999007921999999MA1102401999999REMMET063METAR EDLW 060650Z 17007KT 9999 BKN026 03/M01 Q1024 RMK ATIS F=
0154104160999992015010607204+51518+007612FM-15+013099999V0201701N003119999999N009999199+00201-00101999999ADDGA1021+007921999GE19MSL   +99999+99999GF199999021999007921999999MA1102401999999REMMET063METAR EDLW 060720Z 17006KT 9999 FEW026 02/M01 Q1024 RMK ATIS G=
0084104160999992015010607504+51518+007612FM-15+013099999V0201601N004119999999Y999999999+00201-00101999999ADDMA1102401999999REMMET057METAR EDLW 060750Z 16008KT CAVOK 02/M01 Q1024 RMK ATIS H=
0084104160999992015010608204+51518+007612FM-15+013099999V0201601N003119999999Y999999999+00201-00101999999ADDMA1102301999999REMMET057METAR EDLW 060820Z 16006KT CAVOK 02/M01 Q1023 RMK ATIS I=
0084104160999992015010608504+51518+007612FM-15+013099999V0201401N003619999999Y999999999+00201-00101999999ADDMA1102301999999REMMET057METAR EDLW 060850Z 14007KT CAVOK 02/M01 Q1023 RMK ATIS J=
0084104160999992015010609204+51518+007612FM-15+013099999V0201401N003119999999Y999999999+00301-00101999999ADDMA1102301999999REMMET057METAR EDLW 060920Z 14006KT CAVOK 03/M01 Q1023 RMK ATIS K=
0084104160999992015010609504+51518+007612FM-15+013099999V0201301N002619999999Y999999999+00301-00101999999ADDMA1102301999999REMMET057METAR EDLW 060950Z 13005KT CAVOK 03/M01 Q1023 RMK ATIS L=
0092104160999992015010610204+51518+007612FM-15+013099999V0201601V003119999999Y999999999+00301-00201999999ADDMA1102201999999REMMET065METAR EDLW 061020Z 16006KT 130V190 CAVOK 03/M02 Q1022 RMK ATIS M=
0092104160999992015010610504+51518+007612FM-15+013099999V0201701V002619999999Y999999999+00401-00201999999ADDMA1102201999999REMMET065METAR EDLW 061050Z 17005KT 140V200 CAVOK 04/M02 Q1022 RMK ATIS N=
0084104160999992015010611204+51518+007612FM-15+013099999V0201701N002619999999Y999999999+00401-00201999999ADDMA1102201999999REMMET057METAR EDLW 061120Z 17005KT CAVOK 04/M02 Q1022 RMK ATIS O=
0084104160999992015010611504+51518+007612FM-15+013099999V0209999V001519999999Y999999999+00501-00301999999ADDMA1102101999999REMMET057METAR EDLW 061150Z VRB03KT CAVOK 05/M03 Q1021 RMK ATIS P=
0084104160999992015010612204+51518+007612FM-15+013099999V0209999V001519999999Y999999999+00601-00301999999ADDMA1102101999999REMMET057METAR EDLW 061220Z VRB03KT CAVOK 06/M03 Q1021 RMK ATIS Q=
0084104160999992015010612504+51518+007612FM-15+013099999V0201801N004119999999Y999999999+00601-00501999999ADDMA1102001999999REMMET057METAR EDLW 061250Z 18008KT CAVOK 06/M05 Q1020 RMK ATIS R=
0084104160999992015010613204+51518+007612FM-15+013099999V0202001N004119999999Y999999999+00601-00401999999ADDMA1102001999999REMMET057METAR EDLW 061320Z 20008KT CAVOK 06/M04 Q1020 RMK ATIS S=
0092104160999992015010613504+51518+007612FM-15+013099999V0202001V003619999999Y999999999+00501-00401999999ADDMA1102001999999REMMET065METAR EDLW 061350Z 20007KT 170V230 CAVOK 05/M04 Q1020 RMK ATIS T=
0084104160999992015010614204+51518+007612FM-15+013099999V0201901N003619999999Y999999999+00501-00401999999ADDMA1102001999999REMMET057METAR EDLW 061420Z 19007KT CAVOK 05/M04 Q1020 RMK ATIS U=
0084104160999992015010614504+51518+007612FM-15+013099999V0201901N004619999999Y999999999+00501-00501999999ADDMA1102001999999REMMET057METAR EDLW 061450Z 19009KT CAVOK 05/M05 Q1020 RMK ATIS V=
0084104160999992015010615204+51518+007612FM-15+013099999V0202001N004119999999Y999999999+00401-00401999999ADDMA1102001999999REMMET057METAR EDLW 061520Z 20008KT CAVOK 04/M04 Q1020 RMK ATIS W=
0084104160999992015010615504+51518+007612FM-15+013099999V0202001N004119999999Y999999999+00401-00501999999ADDMA1102001999999REMMET057METAR EDLW 061550Z 20008KT CAVOK 04/M05 Q1020 RMK ATIS X=
0084104160999992015010616204+51518+007612FM-15+013099999V0202201N004619999999Y999999999+00301-00401999999ADDMA1102001999999REMMET057METAR EDLW 061620Z 22009KT CAVOK 03/M04 Q1020 RMK ATIS Y=
0084104160999992015010616504+51518+007612FM-15+013099999V0202301N003619999999Y999999999+00201-00401999999ADDMA1102101999999REMMET057METAR EDLW 061650Z 23007KT CAVOK 02/M04 Q1021 RMK ATIS Z=
0084104160999992015010617204+51518+007612FM-15+013099999V0202401N005719999999Y999999999+00301-00401999999ADDMA1102101999999REMMET057METAR EDLW 061720Z 24011KT CAVOK 03/M04 Q1021 RMK ATIS A=
0084104160999992015010617504+51518+007612FM-15+013099999V0202201N006219999999Y999999999+00301-00401999999ADDMA1102101999999REMMET057METAR EDLW 061750Z 22012KT CAVOK 03/M04 Q1021 RMK ATIS B=
0073104160999992015010618204+51518+007612FM-15+013099999V0202001N005119999999Y999999999+00201-00301999999ADDMA1102101999999REMMET046METAR EDLW 061820Z 20010KT CAVOK 02/M03 Q1021=
0084104160999992015010618504+51518+007612FM-15+013099999V0202101N005719999999Y999999999+00301-00201999999ADDMA1102101999999REMMET057METAR EDLW 061850Z 21011KT CAVOK 03/M02 Q1021 RMK ATIS D=
0154104160999992015010619204+51518+007612FM-15+013099999V0202101N005710064019N009999199+00301-00201999999ADDGA1071+006401999GE19MSL   +99999+99999GF199999071999006401999999MA1102101999999REMMET063METAR EDLW 061920Z 21011KT 9999 BKN021 03/M02 Q1021 RMK ATIS E=
0154104160999992015010619504+51518+007612FM-15+013099999V0202101N006210036619N009999199+00301-00101999999ADDGA1071+003661999GE19MSL   +99999+99999GF199999071999003661999999MA1102101999999REMMET063METAR EDLW 061950Z 21012KT 9999 BKN012 03/M01 Q1021 RMK ATIS F=
0153104160999992015010620204+51518+007612FM-15+013099999V0202101N004610036619N009999199+00301+00001999999ADDGA1071+003661999GE19MSL   +99999+99999GF199999071999003661999999MA1102101999999REMMET062METAR EDLW 062020Z 21009KT 9999 BKN012 03/00 Q1021 RMK ATIS G=
0153104160999992015010620504+51518+007612FM-15+013099999V0202001N005110030519N009999199+00401+00101999999ADDGA1071+003051999GE19MSL   +99999+99999GF199999071999003051999999MA1102101999999REMMET062METAR EDLW 062050Z 20010KT 9999 BKN010 04/01 Q1021 RMK ATIS H=
0153104160999992015010621204+51518+007612FM-15+013099999V0202101N005710030519N009999199+00401+00101999999ADDGA1071+003051999GE19MSL   +99999+99999GF199999071999003051999999MA1102101999999REMMET062METAR EDLW 062120Z 21011KT 9999 BKN010 04/01 Q1021 RMK ATIS I=
0153104160999992015010621504+51518+007612FM-15+013099999V0202201N006710030519N009999199+00401+00101999999ADDGA1071+003051999GE19MSL   +99999+99999GF199999071999003051999999MA1102201999999REMMET062METAR EDLW 062150Z 22013KT 9999 BKN010 04/01 Q1022 RMK ATIS J=
0162104160999992015010704204+51518+007612FM-15+013099999V0202501N004610015219N003500199+00401+00301999999ADDGA1071+001521999GE19MSL   +99999+99999GF199999071999001521999999MA1102501999999MW1531REMMET065METAR EDLW 070420Z 25009KT 3500 DZ BKN005 04/03 Q1025 RMK ATIS A=
0171104160999992015010704504+51518+007612FM-15+013099999V0202601N005110018319N004500199+00401+00301999999ADDGA1081+001831999GE19MSL   +99999+99999GF199999081999001831999999MA1102601999999MW1101MW2531REMMET068METAR EDLW 070450Z 26010KT 4500 DZ BR OVC006 04/03 Q1026 RMK ATIS B=
0171104160999992015010705204+51518+007612FM-15+013099999V0202501N004610018319N004500199+00401+00301999999ADDGA1081+001831999GE19MSL   +99999+99999GF199999081999001831999999MA1102601999999MW1101MW2531REMMET068METAR EDLW 070520Z 25009KT 4500 DZ BR OVC006 04/03 Q1026 RMK ATIS C=
0171104160999992015010705504+51518+007612FM-15+013099999V0202401N004110018319N004000199+00401+00201999999ADDGA1081+001831999GE19MSL   +99999+99999GF199999081999001831999999MA1102501999999MW1101MW2531REMMET068METAR EDLW 070550Z 24008KT 4000 DZ BR OVC006 04/02 Q1025 RMK ATIS D=
0162104160999992015010706204+51518+007612FM-15+013099999V0202501N004610024419N006000199+00401+00301999999ADDGA1081+002441999GE19MSL   +99999+99999GF199999081999002441999999MA1102601999999MW1531REMMET065METAR EDLW 070620Z 25009KT 6000 DZ OVC008 04/03 Q1026 RMK ATIS E=
0162104160999992015010706504+51518+007612FM-15+013099999V0202401N004110024419N006000199+00401+00301999999ADDGA1081+002441999GE19MSL   +99999+99999GF199999081999002441999999MA1102701999999MW1531REMMET065METAR EDLW 070650Z 24008KT 6000 DZ OVC008 04/03 Q1027 RMK ATIS F=
0162104160999992015010707204+51518+007612FM-15+013099999V0202401N004110024419N006000199+00401+00301999999ADDGA1081+002441999GE19MSL   +99999+99999GF199999081999002441999999MA1102701999999MW1531REMMET065METAR EDLW 070720Z 24008KT 6000 DZ OVC008 04/03 Q1027 RMK ATIS G=
0162104160999992015010707504+51518+007612FM-15+013099999V0202401N004610024419N006000199+00401+00301999999ADDGA1081+002441999GE19MSL   +99999+99999GF199999081999002441999999MA1102701999999MW1531REMMET065METAR EDLW 070750Z 24009KT 6000 DZ OVC008 04/03 Q1027 RMK ATIS H=
0153104160999992015010708204+51518+007612FM-15+013099999V0202401N004110027419N007000199+00401+00201999999ADDGA1081+002741999GE19MSL   +99999+99999GF199999081999002741999999MA1102801999999REMMET062METAR EDLW 070820Z 24008KT 7000 OVC009 04/02 Q1028 RMK ATIS I=
0153104160999992015010708504+51518+007612FM-15+013099999V0202301N004619999999N007000199+00401+00201999999ADDGA1041+002131999GE19MSL   +99999+99999GF199999041999002131999999MA1102801999999REMMET062METAR EDLW 070850Z 23009KT 7000 SCT007 04/02 Q1028 RMK ATIS J=
0181104160999992015010709204+51518+007612FM-15+013099999V0202301N00461009141CN007000199+00401+00201999999ADDGA1021+002131999GA2041+009141999GE19MSL   +99999+99999GF199999021999002131999999MA1102801999999REMMET074METAR EDLW 070920Z 23009KT 7000 FEW007 SCT030 04/02 Q1028 RMK ATIS      K=
0153104160999992015010709504+51518+007612FM-15+013099999V0202201N004119999999N009999199+00501+00201999999ADDGA1021+009141999GE19MSL   +99999+99999GF199999021999009141999999MA1102801999999REMMET062METAR EDLW 070950Z 22008KT 9999 FEW030 05/02 Q1028 RMK ATIS L=
0083104160999992015010710204+51518+007612FM-15+013099999V0202301N005119999999Y999999999+00501+00201999999ADDMA1102801999999REMMET056METAR EDLW 071020Z 23010KT CAVOK 05/02 Q1028 RMK ATIS M=
0181104160999992015010710504+51518+007612FM-15+013099999V0202401N00571008231CN009000199+00501+00201999999ADDGA1021+004571999GA2041+008231999GE19MSL   +99999+99999GF199999021999004571999999MA1102801999999REMMET074METAR EDLW 071050Z 24011KT 9000 FEW015 SCT027 05/02 Q1028 RMK ATIS      N=
0165104160999992015010711204+51518+007612FM-15+013099999V0202301N007210051819N009000199+00501+00201999999ADDGA1021+002741999GA2071+005181999GE19MSL   +99999+99999GF199999021999002741999999MA1102801999999REMMET058METAR EDLW 071120Z 23014KT 9000 FEW009 BKN017 05/02 Q1028=
0153104160999992015010711504+51518+007612FM-15+013099999V0202301N005719999999N009999199+00501+00201999999ADDGA1021+004571999GE19MSL   +99999+99999GF199999021999004571999999MA1102701999999REMMET062METAR EDLW 071150Z 23011KT 9999 FEW015 05/02 Q1027 RMK ATIS P=
0072104160999992015010712204+51518+007612FM-15+013099999V0202401N006219999999Y999999999+00501+00201999999ADDMA1102701999999REMMET045METAR EDLW 071220Z 24012KT CAVOK 05/02 Q1027=
0083104160999992015010712504+51518+007612FM-15+013099999V0202401N006719999999Y999999999+00501+00101999999ADDMA1102701999999REMMET056METAR EDLW 071250Z 24013KT CAVOK 05/01 Q1027 RMK ATIS R=
0083104160999992015010713204+51518+007612FM-15+013099999V0202301N005719999999Y999999999+00501+00101999999ADDMA1102701999999REMMET056METAR EDLW 071320Z 23011KT CAVOK 05/01 Q1027 RMK ATIS S=
0153104160999992015010713504+51518+007612FM-15+013099999V0202301N006219999999N009999199+00501+00001999999ADDGA1021+006401999GE19MSL   +99999+99999GF199999021999006401999999MA1102701999999REMMET062METAR EDLW 071350Z 23012KT 9999 FEW021 05/00 Q1027 RMK ATIS T=
0142104160999992015010714204+51518+007612FM-15+013099999V0202201N005119999999N009999199+00501+00101999999ADDGA1021+006711999GE19MSL   +99999+99999GF199999021999006711999999MA1102701999999REMMET051METAR EDLW 071420Z 22010KT 9999 FEW022 05/01 Q1027=
0153104160999992015010714504+51518+007612FM-15+013099999V0202201N005119999999N009999199+00501+00001999999ADDGA1021+008531999GE19MSL   +99999+99999GF199999021999008531999999MA1102701999999REMMET062METAR EDLW 071450Z 22010KT 9999 FEW028 05/00 Q1027 RMK ATIS V=
0154104160999992015010715204+51518+007612FM-15+013099999V0202101N003619999999N009999199+00401+00001999999ADDGA1021+007321999GE19MSL   +99999+99999GF199999021999007321999999MA1102701999999REMMET063METAR EDLW 071520Z 21007KT 9999 FEW024 04/M00 Q1027 RMK ATIS W=
0083104160999992015010715504+51518+007612FM-15+013099999V0202001N003619999999Y999999999+00401+00001999999ADDMA1102701999999REMMET056METAR EDLW 071550Z 20007KT CAVOK 04/00 Q1027 RMK ATIS V=
0083104160999992015010716204+51518+007612FM-15+013099999V0201901N004119999999Y999999999+00301+00101999999ADDMA1102701999999REMMET056METAR EDLW 071620Z 19008KT CAVOK 03/01 Q1027 RMK ATIS W=
0083104160999992015010716504+51518+007612FM-15+013099999V0201901N004619999999Y999999999+00301+00101999999ADDMA1102701999999REMMET056METAR EDLW 071650Z 19009KT CAVOK 03/01 Q1027 RMK ATIS X=
0083104160999992015010717204+51518+007612FM-15+013099999V0202001N004619999999Y999999999+00301+00001999999ADDMA1102701999999REMMET056METAR EDLW 071720Z 20009KT CAVOK 03/00 Q1027 RMK ATIS Y=
0083104160999992015010717504+51518+007612FM-15+013099999V0202001N005719999999Y999999999+00301+00001999999ADDMA1102701999999REMMET056METAR EDLW 071750Z 20011KT CAVOK 03/00 Q1027 RMK ATIS Z=
0084104160999992015010718204+51518+007612FM-15+013099999V0202001N006719999999Y999999999+00301+00001999999ADDMA1102601999999REMMET057METAR EDLW 071820Z 20013KT CAVOK 03/M00 Q1026 RMK ATIS A=
0084104160999992015010718504+51518+007612FM-15+013099999V0201901N005119999999Y999999999+00301+00001999999ADDMA1102601999999REMMET057METAR EDLW 071850Z 19010KT CAVOK 03/M00 Q1026 RMK ATIS B=
0084104160999992015010719204+51518+007612FM-15+013099999V0201901N006719999999Y999999999+00301+00001999999ADDMA1102601999999REMMET057METAR EDLW 071920Z 19013KT CAVOK 03/M00 Q1026 RMK ATIS C=
0154104160999992015010719504+51518+007612FM-15+013099999V0201901N005710085319N009999199+00201-00101999999ADDGA1071+008531999GE19MSL   +99999+99999GF199999071999008531999999MA1102601999999REMMET063METAR EDLW 071950Z 19011KT 9999 BKN028 02/M01 Q1026 RMK ATIS D=
0154104160999992015010720204+51518+007612FM-15+013099999V0201901N006210094519N009999199+00201-00101999999ADDGA1081+009451999GE19MSL   +99999+99999GF199999081999009451999999MA1102601999999REMMET063METAR EDLW 072020Z 19012KT 9999 OVC031 02/M01 Q1026 RMK ATIS E=
0084104160999992015010720504+51518+007612FM-15+013099999V0201901N006719999999Y999999999+00201-00101999999ADDMA1102601999999REMMET057METAR EDLW 072050Z 19013KT CAVOK 02/M01 Q1026 RMK ATIS F=
0084104160999992015010721204+51518+007612FM-15+013099999V0201901N007219999999Y999999999+00201-00101999999ADDMA1102601999999REMMET057METAR EDLW 072120Z 19014KT CAVOK 02/M01 Q1026 RMK ATIS G=
0084104160999992015010721504+51518+007612FM-15+013099999V0201901N008219999999Y999999999+00201-00101999999ADDMA1102601999999REMMET057METAR EDLW 072150Z 19016KT CAVOK 02/M01 Q1026 RMK ATIS H=
0165104160999992015010804204+51518+007612FM-15+013099999V0202101N008210045719N009999199+00401+00201999999ADDGA1071+004571999GE19MSL   +99999+99999GF199999071999004571999999MA1102201999999MW1801REMMET068METAR EDLW 080420Z 21016KT 9999 -SHRA BKN015 04/02 Q1022 RMK ATIS A=
0153104160999992015010804504+51518+007612FM-15+013099999V0202101N008210054919N009999199+00401+00201999999ADDGA1071+005491999GE19MSL   +99999+99999GF199999071999005491999999MA1102201999999REMMET062METAR EDLW 080450Z 21016KT 9999 BKN018 04/02 Q1022 RMK ATIS B=
0165104160999992015010805204+51518+007612FM-15+013099999V0202101N008810045719N009999199+00501+00201999999ADDGA1071+004571999GE19MSL   +99999+99999GF199999071999004571999999MA1102101999999MW1801REMMET068METAR EDLW 080520Z 21017KT 9999 -SHRA BKN015 05/02 Q1021 RMK ATIS C=
0153104160999992015010805504+51518+007612FM-15+013099999V0202101N007710045719N009999199+00501+00201999999ADDGA1071+004571999GE19MSL   +99999+99999GF199999071999004571999999MA1102101999999REMMET062METAR EDLW 080550Z 21015KT 9999 BKN015 05/02 Q1021 RMK ATIS D=
0153104160999992015010806204+51518+007612FM-15+013099999V0202101N007710048819N009999199+00501+00301999999ADDGA1071+004881999GE19MSL   +99999+99999GF199999071999004881999999MA1102101999999REMMET062METAR EDLW 080620Z 21015KT 9999 BKN016 05/03 Q1021 RMK ATIS E=
0153104160999992015010806504+51518+007612FM-15+013099999V0202101N008210045719N009999199+00501+00301999999ADDGA1071+004571999GE19MSL   +99999+99999GF199999071999004571999999MA1102101999999REMMET062METAR EDLW 080650Z 21016KT 9999 BKN015 05/03 Q1021 RMK ATIS F=
0153104160999992015010807204+51518+007612FM-15+013099999V0202101N007710036619N009999199+00501+00301999999ADDGA1071+003661999GE19MSL   +99999+99999GF199999071999003661999999MA1102101999999REMMET062METAR EDLW 080720Z 21015KT 9999 BKN012 05/03 Q1021 RMK ATIS G=
0142104160999992015010807504+51518+007612FM-15+013099999V0202001N007710036619N009999199+00501+00301999999ADDGA1071+003661999GE19MSL   +99999+99999GF199999071999003661999999MA1102101999999REMMET051METAR EDLW 080750Z 20015KT 9999 BKN012 05/03 Q1021=
0164104160999992015010808204+51518+007612FM-15+013099999V0202001N008810048819N009999199+00601+00301999999ADDGA1071+004881999GE19MSL   +99999+99999GF199999071999004881999999MA1102101999999OC101391REMMET065METAR EDLW 080820Z 20017G27KT 9999 BKN016 06/03 Q1021 RMK ATIS I=
0164104160999992015010808504+51518+007612FM-15+013099999V0202001N006710045719N009999199+00601+00301999999ADDGA1071+004571999GE19MSL   +99999+99999GF199999071999004571999999MA1102101999999MW1161REMMET067METAR EDLW 080850Z 20013KT 9999 VCSH BKN015 06/03 Q1021 RMK ATIS J=
0199104160999992015010809204+51518+007612FM-15+013099999V0202101V007710048819N008000199+00601+00401999999ADDGA1041+003051999GA2071+004881999GE19MSL   +99999+99999GF199999041999003051999999MA1102001999999MW1511REMMET086METAR EDLW 080920Z 21015KT 170V230 8000 -DZ SCT010 BKN016 06/04 Q1020      RMK ATIS K=
0153104160999992015010809504+51518+007612FM-15+013099999V0202001N006210054919N009999199+00601+00401999999ADDGA1071+005491999GE19MSL   +99999+99999GF199999071999005491999999MA1102001999999REMMET062METAR EDLW 080950Z 20012KT 9999 BKN018 06/04 Q1020 RMK ATIS L=
0153104160999992015010810204+51518+007612FM-15+013099999V0202001N007210051819N009999199+00701+00401999999ADDGA1071+005181999GE19MSL   +99999+99999GF199999071999005181999999MA1101901999999REMMET062METAR EDLW 081020Z 20014KT 9999 BKN017 07/04 Q1019 RMK ATIS M=
0153104160999992015010810504+51518+007612FM-15+013099999V0202101N007210030519N009999199+00701+00401999999ADDGA1071+003051999GE19MSL   +99999+99999GF199999071999003051999999MA1101901999999REMMET062METAR EDLW 081050Z 21014KT 9999 BKN010 07/04 Q1019 RMK ATIS N=
0163104160999992015010811204+51518+007612FM-15+013099999V0202001N007210039619N006000199+00701+00401999999ADDGA1071+003961999GE19MSL   +99999+99999GF199999071999003961999999MA1101901999999MW1511REMMET066METAR EDLW 081120Z 20014KT 6000 -DZ BKN013 07/04 Q1019 RMK ATIS O=
0172104160999992015010811504+51518+007612FM-15+013099999V0202001N008210030519N006000199+00701+00401999999ADDGA1071+003051999GE19MSL   +99999+99999GF199999071999003051999999MA1101801999999MW1511REMMET075METAR COR EDLW 081150Z 20016KT 6000 -DZ BKN010 07/04 Q1018 RMK ATIS      P=
0193104160999992015010812204+51518+007612FM-15+013099999V0202101N007210061019N009000199+00701+00401999999ADDGA1021+003961999GA2071+006101999GE19MSL   +99999+99999GF199999021999003961999999MA1101801999999MW1801REMMET080METAR EDLW 081220Z 21014KT 9000 -SHRA FEW013 BKN020 07/04 Q1018 RMK      ATIS Q=
0193104160999992015010812504+51518+007612FM-15+013099999V0202101N007710061019N009000199+00701+00501999999ADDGA1041+003051999GA2071+006101999GE19MSL   +99999+99999GF199999041999003051999999MA1101701999999MW1801REMMET080METAR EDLW 081250Z 21015KT 9000 -SHRA SCT010 BKN020 07/05 Q1017 RMK      ATIS R=
0209104160999992015010813204+51518+007612FM-15+013099999V0202101N007710070119N009000199+00701+00501999999ADDGA1041+003051999GA2071+007011999GE19MSL   +99999+99999GF199999041999003051999999MA1101701999999MW1801REMMET096METAR EDLW 081320Z 21015KT 9000 R24/0800VP2000U -SHRA SCT010 BKN023      07/05 Q1017 RMK ATIS S=
0177104160999992015010813504+51518+007612FM-15+013099999V0202101N007210030519N005000199+00701+00501999999ADDGA1071+003051999GE19MSL   +99999+99999GF199999071999003051999999MA1101601999999MW1101MW2511REMMET074METAR EDLW 081350Z 21014KT 5000 -DZ BR BKN010 07/05 Q1016 RMK ATIS      T=
0153104160999992015010814204+51518+007612FM-15+013099999V0202101N006710024419N009999199+00701+00501999999ADDGA1071+002441999GE19MSL   +99999+99999GF199999071999002441999999MA1101601999999REMMET062METAR EDLW 081420Z 21013KT 9999 BKN008 07/05 Q1016 RMK ATIS U=
0165104160999992015010814504+51518+007612FM-15+013099999V0202101N006210024419N009999199+00701+00501999999ADDGA1071+002441999GE19MSL   +99999+99999GF199999071999002441999999MA1101601999999MW1581REMMET068METAR EDLW 081450Z 21012KT 9999 -RADZ BKN008 07/05 Q1016 RMK ATIS V=
0165104160999992015010815204+51518+007612FM-15+013099999V0202101N008810061019N006000199+00801+00601999999ADDGA1071+006101999GE19MSL   +99999+99999GF199999071999006101999999MA1101601999999MW1581REMMET068METAR EDLW 081520Z 21017KT 6000 -RADZ BKN020 08/06 Q1016 RMK ATIS W=
0163104160999992015010815504+51518+007612FM-15+013099999V0202301N006710054919N007000199+00801+00601999999ADDGA1071+005491999GE19MSL   +99999+99999GF199999071999005491999999MA1101601999999MW1611REMMET066METAR EDLW 081550Z 23013KT 7000 -RA BKN018 08/06 Q1016 RMK ATIS X=
0163104160999992015010816204+51518+007612FM-15+013099999V0202301N005710030519N009999199+00801+00601999999ADDGA1071+003051999GE19MSL   +99999+99999GF199999071999003051999999MA1101601999999MW1611REMMET066METAR EDLW 081620Z 23011KT 9999 -RA BKN010 08/06 Q1016 RMK ATIS Y=
0186104160999992015010816504+51518+007612FM-15+013099999V0202201V006210030519N006000199+00801+00601999999ADDGA1071+003051999GE19MSL   +99999+99999GF199999071999003051999999MA1101601999999MW1631OC101131REMMET081METAR EDLW 081650Z 22012G22KT 200V320 6000 RA BKN010 08/06 Q1016 RMK      ATIS Z=
0163104160999992015010817204+51518+007612FM-15+013099999V0202901N007710030519N009999199+00601+00401999999ADDGA1071+003051999GE19MSL   +99999+99999GF199999071999003051999999MA1101801999999MW1611REMMET066METAR EDLW 081720Z 29015KT 9999 -RA BKN010 06/04 Q1018 RMK ATIS A=
0179104160999992015010817504+51518+007612FM-15+013099999V0202901N009810030519N009999199+00601+00301999999ADDGA1071+003051999GE19MSL   +99999+99999GF199999071999003051999999MA1102001999999MW1611OC101541REMMET074METAR EDLW 081750Z 29019G30KT 9999 -RA BKN010 06/03 Q1020 RMK ATIS      B=
0163104160999992015010818204+51518+007612FM-15+013099999V0202901N008810030519N008000199+00501+00301999999ADDGA1071+003051999GE19MSL   +99999+99999GF199999071999003051999999MA1102101999999MW1611REMMET066METAR EDLW 081820Z 29017KT 8000 -RA BKN010 05/03 Q1021 RMK ATIS C=
0163104160999992015010818504+51518+007612FM-15+013099999V0202801N006710033519N009000199+00501+00301999999ADDGA1071+003351999GE19MSL   +99999+99999GF199999071999003351999999MA1102201999999MW1611REMMET066METAR EDLW 081850Z 28013KT 9000 -RA BKN011 05/03 Q1022 RMK ATIS D=
0142104160999992015010819204+51518+007612FM-15+013099999V0202601N006210033519N009999199+00501+00301999999ADDGA1071+003351999GE19MSL   +99999+99999GF199999071999003351999999MA1102301999999REMMET051METAR EDLW 081920Z 26012KT 9999 BKN011 05/03 Q1023=
0166104160999992015010819504+51518+007612FM-15+013099999V0202601V007210030519N009999199+00501+00301999999ADDGA1071+003051999GE19MSL   +99999+99999GF199999071999003051999999MA1102401999999REMMET075METAR EDLW 081950Z 26014KT 230V290 9999 BKN010 05/03 Q1024 RMK ATIS      F=
0153104160999992015010820204+51518+007612FM-15+013099999V0202601N007710030519N009999199+00501+00301999999ADDGA1071+003051999GE19MSL   +99999+99999GF199999071999003051999999MA1102401999999REMMET062METAR EDLW 082020Z 26015KT 9999 BKN010 05/03 Q1024 RMK ATIS G=
0153104160999992015010820504+51518+007612FM-15+013099999V0202501N007710036619N009999199+00501+00301999999ADDGA1071+003661999GE19MSL   +99999+99999GF199999071999003661999999MA1102501999999REMMET062METAR EDLW 082050Z 25015KT 9999 BKN012 05/03 Q1025 RMK ATIS H=
0166104160999992015010821204+51518+007612FM-15+013099999V0202601V007710033519N009999199+00501+00301999999ADDGA1071+003351999GE19MSL   +99999+99999GF199999071999003351999999MA1102501999999REMMET075METAR EDLW 082120Z 26015KT 230V290 9999 BKN011 05/03 Q1025 RMK ATIS      I=
0164104160999992015010904204+51518+007612FM-15+013099999V0202201N011810051819N009999199+00601+00301999999ADDGA1071+005181999GE19MSL   +99999+99999GF199999071999005181999999MA1102001999999OC101701REMMET065METAR EDLW 090420Z 22023G33KT 9999 BKN017 06/03 Q1020 RMK ATIS A=
0164104160999992015010904504+51518+007612FM-15+013099999V0202201N011319999999N009999199+00701+00301999999ADDGA1021+006101999GE19MSL   +99999+99999GF199999021999006101999999MA1102001999999OC101751REMMET065METAR EDLW 090450Z 22022G34KT 9999 FEW020 07/03 Q1020 RMK ATIS B=
0164104160999992015010905204+51518+007612FM-15+013099999V0202201N010819999999N009999199+00701+00301999999ADDGA1041+006101999GE19MSL   +99999+99999GF199999041999006101999999MA1101901999999OC101601REMMET065METAR EDLW 090520Z 22021G31KT 9999 SCT020 07/03 Q1019 RMK ATIS C=
0164104160999992015010905504+51518+007612FM-15+013099999V0202201N011319999999N009999199+00701+00301999999ADDGA1041+006101999GE19MSL   +99999+99999GF199999041999006101999999MA1102001999999OC101961REMMET065METAR EDLW 090550Z 22022G38KT 9999 SCT020 07/03 Q1020 RMK ATIS D=
0164104160999992015010906204+51518+007612FM-15+013099999V0202301N012419999999N009999199+00701+00201999999ADDGA1021+010671999GE19MSL   +99999+99999GF199999021999010671999999MA1101901999999OC102111REMMET065METAR EDLW 090620Z 23024G41KT 9999 FEW035 07/02 Q1019 RMK ATIS E=
0094104160999992015010906504+51518+007612FM-15+013099999V0202201N013919999999Y999999999+00701+00201999999ADDMA1101801999999OC102011REMMET059METAR EDLW 090650Z 22027G39KT CAVOK 07/02 Q1018 RMK ATIS F=
0164104160999992015010907204+51518+007612FM-15+013099999V0202201N013410091419N009999199+00701+00201999999ADDGA1071+009141999GE19MSL   +99999+99999GF199999071999009141999999MA1101701999999OC101851REMMET065METAR EDLW 090720Z 22026G36KT 9999 BKN030 07/02 Q1017 RMK ATIS G=
0164104160999992015010907504+51518+007612FM-15+013099999V0202301N013910061019N009999199+00801+00301999999ADDGA1071+006101999GE19MSL   +99999+99999GF199999071999006101999999MA1101701999999OC101901REMMET065METAR EDLW 090750Z 23027G37KT 9999 BKN020 08/03 Q1017 RMK ATIS H=
0164104160999992015010908204+51518+007612FM-15+013099999V0202301N012910054919N009999199+00701+00301999999ADDGA1071+005491999GE19MSL   +99999+99999GF199999071999005491999999MA1101701999999OC101801REMMET065METAR EDLW 090820Z 23025G35KT 9999 BKN018 07/03 Q1017 RMK ATIS I=
0180104160999992015010908504+51518+007612FM-15+013099999V0202301N015410054919N009999199+00701+00401999999ADDGA1071+005491999GE19MSL   +99999+99999GF199999071999005491999999MA1101601999999MW1161OC102161REMMET075METAR EDLW 090850Z 23030G42KT 9999 VCSH BKN018 07/04 Q1016 RMK ATIS      J=
0179104160999992015010909204+51518+007612FM-15+013099999V0202301N013410048819N009999199+00701+00401999999ADDGA1071+004881999GE19MSL   +99999+99999GF199999071999004881999999MA1101601999999MW1511OC101901REMMET074METAR EDLW 090920Z 23026G37KT 9999 -DZ BKN016 07/04 Q1016 RMK ATIS      K=
0179104160999992015010909504+51518+007612FM-15+013099999V0202301N012410039619N009000199+00701+00501999999ADDGA1071+003961999GE19MSL   +99999+99999GF199999071999003961999999MA1101601999999MW1511OC101801REMMET074METAR EDLW 090950Z 23024G35KT 9000 -DZ BKN013 07/05 Q1016 RMK ATIS      L=
0181104160999992015010910204+51518+007612FM-15+013099999V0202301N012410024419N008000199+00801+00501999999ADDGA1081+002441999GE19MSL   +99999+99999GF199999081999002441999999MA1101501999999MW1801OC101851REMMET076METAR EDLW 091020Z 23024G36KT 8000 -SHRA OVC008 08/05 Q1015 RMK ATIS      M=
0179104160999992015010910504+51518+007612FM-15+013099999V0202401N012410024419N007000199+00801+00601999999ADDGA1081+002441999GE19MSL   +99999+99999GF199999081999002441999999MA1101501999999MW1611OC101751REMMET074METAR EDLW 091050Z 24024G34KT 7000 -RA OVC008 08/06 Q1015 RMK ATIS      N=
0179104160999992015010911204+51518+007612FM-15+013099999V0202401N013410030519N009999199+00901+00601999999ADDGA1081+003051999GE19MSL   +99999+99999GF199999081999003051999999MA1101501999999MW1611OC101961REMMET074METAR EDLW 091120Z 24026G38KT 9999 -RA OVC010 09/06 Q1015 RMK ATIS      O=
0164104160999992015010911504+51518+007612FM-15+013099999V0202401N012410048819N009999199+00901+00601999999ADDGA1071+004881999GE19MSL   +99999+99999GF199999071999004881999999MA1101401999999OC101901REMMET065METAR EDLW 091150Z 24024G37KT 9999 BKN016 09/06 Q1014 RMK ATIS P=
0164104160999992015010912204+51518+007612FM-15+013099999V0202501N011310048819N009999199+00901+00601999999ADDGA1071+004881999GE19MSL   +99999+99999GF199999071999004881999999MA1101501999999OC101801REMMET065METAR EDLW 091220Z 25022G35KT 9999 BKN016 09/06 Q1015 RMK ATIS Q=
0164104160999992015010912504+51518+007612FM-15+013099999V0202601N009310048819N009999199+01001+00601999999ADDGA1071+004881999GE19MSL   +99999+99999GF199999071999004881999999MA1101501999999OC101601REMMET065METAR EDLW 091250Z 26018G31KT 9999 BKN016 10/06 Q1015 RMK ATIS R=
0153104160999992015010913204+51518+007612FM-15+013099999V0202501N010310051819N009999199+01001+00601999999ADDGA1071+005181999GE19MSL   +99999+99999GF199999071999005181999999MA1101501999999REMMET062METAR EDLW 091320Z 25020KT 9999 BKN017 10/06 Q1015 RMK ATIS S=
0163104160999992015010913504+51518+007612FM-15+013099999V0202501N010310054919N009999199+01001+00601999999ADDGA1071+005491999GE19MSL   +99999+99999GF199999071999005491999999MA1101401999999OC101541REMMET064METAR EDLW 091350Z 25020G30KT 9999 BKN018 10/06 Q1014 RMK ATIST=
0153104160999992015010914204+51518+007612FM-15+013099999V0202501N009810054919N009999199+01001+00601999999ADDGA1071+005491999GE19MSL   +99999+99999GF199999071999005491999999MA1101401999999REMMET062METAR EDLW 091420Z 25019KT 9999 BKN018 10/06 Q1014 RMK ATIS U=
0142104160999992015010914504+51518+007612FM-15+013099999V0202601N008210076219N009999199+01001+00601999999ADDGA1071+007621999GE19MSL   +99999+99999GF199999071999007621999999MA1101601999999REMMET051METAR EDLW 091450Z 26016KT 9999 BKN025 10/06 Q1016=
0153104160999992015010915204+51518+007612FM-15+013099999V0202601N008210097519N009999199+01001+00601999999ADDGA1071+009751999GE19MSL   +99999+99999GF199999071999009751999999MA1101601999999REMMET062METAR EDLW 091520Z 26016KT 9999 BKN032 10/06 Q1016 RMK ATIS W=
0164104160999992015010915504+51518+007612FM-15+013099999V0202601N008810097519N009999199+01001+00501999999ADDGA1071+009751999GE19MSL   +99999+99999GF199999071999009751999999MA1101601999999OC101601REMMET065METAR EDLW 091550Z 26017G31KT 9999 BKN032 10/05 Q1016 RMK ATIS X=
0181104160999992015010916204+51518+007612FM-15+013099999V0202701N017010121919N009999199+00901+00201999999ADDGA1071+012191999GE19MSL   +99999+99999GF199999071999012191999999MA1101601999999MW1801OC102371REMMET076METAR EDLW 091620Z 27033G46KT 9999 -SHRA BKN040 09/02 Q1016 RMK ATIS      Y=
0179104160999992015010916504+51518+007612FM-15+013099999V0202701N007710121919N009999199+00901+00201999999ADDGA1071+012191999GE19MSL   +99999+99999GF199999071999012191999999MA1101701999999MW1611OC101291REMMET074METAR EDLW 091650Z 27015G25KT 9999 -RA BKN040 09/02 Q1017 RMK ATIS      Z=
0176104160999992015010917204+51518+007612FM-15+013099999V0202901V003110121919N009999199+00801+00301999999ADDGA1071+012191999GE19MSL   +99999+99999GF199999071999012191999999MA1101601999999MW1611REMMET079METAR EDLW 091720Z 29006KT 250V330 9999 -RA BKN040 08/03 Q1016 RMK      ATIS Z=
0187104160999992015010917364+51518+007612FM-16+013099999V0202601V007210121919N009999199+00801+00201999999ADDGA1071+012191999GE19MSL   +99999+99999GF199999071999012191999999MA1101601999999MW1611OC101341REMMET082SPECI EDLW 091736Z 26014G26KT 220V290 9999 -RA BKN040 08/02 Q1016 RMK      ATIS A=
0163104160999992015010917504+51518+007612FM-15+013099999V0202501N009810109719N009999199+00801+00201999999ADDGA1071+010971999GE19MSL   +99999+99999GF199999071999010971999999MA1101601999999MW1611REMMET066METAR EDLW 091750Z 25019KT 9999 -RA BKN036 08/02 Q1016 RMK ATIS B=
0176104160999992015010918204+51518+007612FM-15+013099999V0202501V005110088419N009999199+00701+00301999999ADDGA1071+008841999GE19MSL   +99999+99999GF199999071999008841999999MA1101501999999MW1611REMMET079METAR EDLW 091820Z 25010KT 230V290 9999 -RA BKN029 07/03 Q1015 RMK      ATIS C=
0191104160999992015010918504+51518+007612FM-15+013099999V0202401N005110085319N009999199+00601+00401999999ADDGA1041+003051999GA2071+008531999GE19MSL   +99999+99999GF199999041999003051999999MA1101401999999MW1611REMMET078METAR EDLW 091850Z 24010KT 9999 -RA SCT010 BKN028 06/04 Q1014 RMK ATIS      D=
0163104160999992015010919204+51518+007612FM-15+013099999V0202101N003610033519N008000199+00601+00401999999ADDGA1071+003351999GE19MSL   +99999+99999GF199999071999003351999999MA1101401999999MW1611REMMET066METAR EDLW 091920Z 21007KT 8000 -RA BKN011 06/04 Q1014 RMK ATIS E=
0163104160999992015010919504+51518+007612FM-15+013099999V0202201N004610027419N008000199+00701+00501999999ADDGA1071+002741999GE19MSL   +99999+99999GF199999071999002741999999MA1101301999999MW1611REMMET066METAR EDLW 091950Z 22009KT 8000 -RA BKN009 07/05 Q1013 RMK ATIS F=
0163104160999992015010920204+51518+007612FM-15+013099999V0202201N006710030519N008000199+00801+00601999999ADDGA1071+003051999GE19MSL   +99999+99999GF199999071999003051999999MA1101201999999MW1611REMMET066METAR EDLW 092020Z 22013KT 8000 -RA BKN010 08/06 Q1012 RMK ATIS G=
0163104160999992015010920504+51518+007612FM-15+013099999V0202201N006710018319N009000199+00801+00601999999ADDGA1081+001831999GE19MSL   +99999+99999GF199999081999001831999999MA1101101999999MW1611REMMET066METAR EDLW 092050Z 22013KT 9000 -RA OVC006 08/06 Q1011 RMK ATIS H=
0142104160999992015010921204+51518+007612FM-15+013099999V0202301N009310027419N008000199+00901+00701999999ADDGA1071+002741999GE19MSL   +99999+99999GF199999071999002741999999MA1101101999999REMMET051METAR EDLW 092120Z 23018KT 8000 BKN009 09/07 Q1011=
0163104160999992015011004204+51518+007612FM-15+013099999V0202501N009310045719N009999199+01301+00901999999ADDGA1071+004571999GE19MSL   +99999+99999GF199999071999004571999999MA1101001999999MW1611REMMET066METAR EDLW 100420Z 25018KT 9999 -RA BKN015 13/09 Q1010 RMK ATIS A=
0164104160999992015011004504+51518+007612FM-15+013099999V0202501N010810045719N009999199+01301+00901999999ADDGA1071+004571999GE19MSL   +99999+99999GF199999071999004571999999MA1100901999999OC101651REMMET065METAR EDLW 100450Z 25021G32KT 9999 BKN015 13/09 Q1009 RMK ATIS B=
0164104160999992015011005204+51518+007612FM-15+013099999V0202401N010310039619N009999199+01201+00901999999ADDGA1071+003961999GE19MSL   +99999+99999GF199999071999003961999999MA1101001999999OC101541REMMET065METAR EDLW 100520Z 24020G30KT 9999 BKN013 12/09 Q1010 RMK ATIS C=
0179104160999992015011005504+51518+007612FM-15+013099999V0202401N012910036619N009999199+01201+00901999999ADDGA1081+003661999GE19MSL   +99999+99999GF199999081999003661999999MA1100901999999MW1511OC101961REMMET074METAR EDLW 100550Z 24025G38KT 9999 -DZ OVC012 12/09 Q1009 RMK ATIS      D=
0164104160999992015011006204+51518+007612FM-15+013099999V0202401N011810042719N009999199+01201+00901999999ADDGA1071+004271999GE19MSL   +99999+99999GF199999071999004271999999MA1100901999999OC102271REMMET065METAR EDLW 100620Z 24023G44KT 9999 BKN014 12/09 Q1009 RMK ATIS E=
0164104160999992015011006504+51518+007612FM-15+013099999V0202501N011810067119N009999199+01201+00801999999ADDGA1071+006711999GE19MSL   +99999+99999GF199999071999006711999999MA1100901999999OC102061REMMET065METAR EDLW 100650Z 25023G40KT 9999 BKN022 12/08 Q1009 RMK ATIS F=
0164104160999992015011007204+51518+007612FM-15+013099999V0202501N010810070119N009999199+01201+00701999999ADDGA1071+007011999GE19MSL   +99999+99999GF199999071999007011999999MA1101001999999OC101801REMMET065METAR EDLW 100720Z 25021G35KT 9999 BKN023 12/07 Q1010 RMK ATIS G=
0164104160999992015011007504+51518+007612FM-15+013099999V0202401N012410070119N009999199+01201+00701999999ADDGA1071+007011999GE19MSL   +99999+99999GF199999071999007011999999MA1100901999999OC101961REMMET065METAR EDLW 100750Z 24024G38KT 9999 BKN023 12/07 Q1009 RMK ATIS H=
0164104160999992015011008204+51518+007612FM-15+013099999V0202501N011810085319N009999199+01201+00701999999ADDGA1071+008531999GE19MSL   +99999+99999GF199999071999008531999999MA1100901999999OC101901REMMET065METAR EDLW 100820Z 25023G37KT 9999 BKN028 12/07 Q1009 RMK ATIS I=
0164104160999992015011008504+51518+007612FM-15+013099999V0202501N013910085319N009999199+01201+00601999999ADDGA1071+008531999GE19MSL   +99999+99999GF199999071999008531999999MA1100901999999OC102111REMMET065METAR EDLW 100850Z 25027G41KT 9999 BKN028 12/06 Q1009 RMK ATIS J=
0164104160999992015011009204+51518+007612FM-15+013099999V0202501N013410076219N009999199+01201+00601999999ADDGA1071+007621999GE19MSL   +99999+99999GF199999071999007621999999MA1100901999999OC102061REMMET065METAR EDLW 100920Z 25026G40KT 9999 BKN025 12/06 Q1009 RMK ATIS K=
0164104160999992015011009504+51518+007612FM-15+013099999V0202401N013410070119N009999199+01201+00601999999ADDGA1071+007011999GE19MSL   +99999+99999GF199999071999007011999999MA1100701999999OC102211REMMET065METAR EDLW 100950Z 24026G43KT 9999 BKN023 12/06 Q1007 RMK ATIS L=
0164104160999992015011010204+51518+007612FM-15+013099999V0202401N013410070119N009999199+01201+00701999999ADDGA1071+007011999GE19MSL   +99999+99999GF199999071999007011999999MA1100701999999OC101901REMMET065METAR EDLW 101020Z 24026G37KT 9999 BKN023 12/07 Q1007 RMK ATIS M=
0179104160999992015011010504+51518+007612FM-15+013099999V0202401N015410067119N009999199+01201+00701999999ADDGA1081+006711999GE19MSL   +99999+99999GF199999081999006711999999MA1100701999999MW1511OC102371REMMET074METAR EDLW 101050Z 24030G46KT 9999 -DZ OVC022 12/07 Q1007 RMK ATIS      N=
0179104160999992015011011204+51518+007612FM-15+013099999V0202401N014410064019N009999199+01201+00701999999ADDGA1081+006401999GE19MSL   +99999+99999GF199999081999006401999999MA1100701999999MW1511OC102111REMMET074METAR EDLW 101120Z 24028G41KT 9999 -DZ OVC021 12/07 Q1007 RMK ATIS      O=
0164104160999992015011011504+51518+007612FM-15+013099999V0202401N016010064019N009999199+01201+00701999999ADDGA1071+006401999GE19MSL   +99999+99999GF199999071999006401999999MA1100601999999OC102371REMMET065METAR EDLW 101150Z 24031G46KT 9999 BKN021 12/07 Q1006 RMK ATIS P=
0191104160999992015011012204+51518+007612FM-15+013099999V0202401N013910057919N005000199+01101+00801999999ADDGA1071+005791999GE19MSL   +99999+99999GF199999071999005791999999MA1100601999999MW1801OC102011REMMET086METAR EDLW 101220Z 24027G39KT 5000 R24/0800N -SHRA BKN019 11/08 Q1006      RMK ATIS Q=
0201104160999992015011012504+51518+007612FM-15+013099999V0202401N013410045719N005000199+01101+00801999999ADDGA1041+003961999GA2081+004571999GE19MSL   +99999+99999GF199999041999003961999999MA1100601999999MW1531OC102011REMMET080METAR EDLW 101250Z 24026G39KT 5000 DZ SCT013 OVC015 11/08 Q1006 RMK      ATIS R=
0188104160999992015011013204+51518+007612FM-15+013099999V0202401N013910030519N004500199+01101+00801999999ADDGA1071+003051999GE19MSL   +99999+99999GF199999071999003051999999MA1100501999999MW1511OC102011REMMET083METAR COR EDLW 101320Z 24027G39KT 4500 -DZ BKN010 11/08 Q1005 REDZ      RMK ATIS S=
0179104160999992015011013504+51518+007612FM-15+013099999V0202401N013910036619N005000199+01101+00801999999ADDGA1071+003661999GE19MSL   +99999+99999GF199999071999003661999999MA1100501999999MW1511OC101961REMMET074METAR EDLW 101350Z 24027G38KT 5000 -DZ BKN012 11/08 Q1005 RMK ATIS      T=
0189104160999992015011014204+51518+007612FM-15+013099999V0202401N011810045719N005000199+01101+00801999999ADDGA1071+004571999GE19MSL   +99999+99999GF199999071999004571999999MA1100501999999MW1611OC101801REMMET084METAR EDLW 101420Z 24023G35KT 5000 R24/0900N -RA BKN015 11/08 Q1005      RMK ATIS U=
0201104160999992015011014504+51518+007612FM-15+013099999V0202501N011810018319N003500199+01101+00801999999ADDGA1071+001831999GA2071+003661999GE19MSL   +99999+99999GF199999071999001831999999MA1100501999999MW1631OC101801REMMET080METAR EDLW 101450Z 25023G35KT 3500 RA BKN006 BKN012 11/08 Q1005 RMK      ATIS V=
0204104160999992015011015204+51518+007612FM-15+013099999V0202901V006210024419N006000199+00701+00501999999ADDGA1071+002441999GA2071+007321999GE19MSL   +99999+99999GF199999071999002441999999MA1100801999999MW1611REMMET091METAR EDLW 101520Z 29012KT 260V330 6000 -RA BKN008 BKN024 07/05 Q1008      RERA RMK ATIS W=
0187104160999992015011015504+51518+007612FM-15+013099999V0202901V006710067119N008000199+00701+00401999999ADDGA1071+006711999GE19MSL   +99999+99999GF199999071999006711999999MA1100901999999MW1611OC101241REMMET082METAR EDLW 101550Z 29013G24KT 250V330 8000 -RA BKN022 07/04 Q1009 RMK      ATIS X=
0187104160999992015011016204+51518+007612FM-15+013099999V0202801V007210125019N009999199+00701+00301999999ADDGA1071+012501999GE19MSL   +99999+99999GF199999071999012501999999MA1101001999999MW1511OC101341REMMET082METAR EDLW 101620Z 28014G26KT 250V320 9999 -DZ BKN041 07/03 Q1010 RMK      ATIS Y=
0199104160999992015011016504+51518+007612FM-15+013099999V0202801V006210189019N009999199+00701+00201999999ADDGA1021+012501999GA2071+018901999GE19MSL   +99999+99999GF199999021999012501999999MA1101101999999MW1511REMMET086METAR EDLW 101650Z 28012KT 250V320 9999 -DZ FEW041 BKN062 07/02 Q1011      RMK ATIS Z=
0102104160999992015011017204+51518+007612FM-15+013099999V0202801V007219999999Y999999999+00701+00001999999ADDMA1101101999999OC101751REMMET067METAR EDLW 101720Z 28014G34KT 250V330 CAVOK 07/00 Q1011 RMK ATIS A=
0103104160999992015011017504+51518+007612FM-15+013099999V0202801V007219999999Y999999999+00701+00001999999ADDMA1101201999999OC101491REMMET068METAR EDLW 101750Z 28014G29KT 240V320 CAVOK 07/M00 Q1012 RMK ATIS B=
0167104160999992015011018204+51518+007612FM-15+013099999V0202701V005719999999N009999199+00601+00001999999ADDGA1021+012191999GE19MSL   +99999+99999GF199999021999012191999999MA1101301999999REMMET076METAR EDLW 101820Z 27011KT 240V310 9999 FEW040 06/M00 Q1013 RMK ATIS      C=
0177104160999992015011018504+51518+007612FM-15+013099999V0202701V006219999999N009999199+00601+00001999999ADDGA1041+009141999GE19MSL   +99999+99999GF199999041999009141999999MA1101301999999OC101131REMMET078METAR EDLW 101850Z 27012G22KT 240V310 9999 SCT030 06/00 Q1013 RMK ATIS      D=
0162104160999992015011019204+51518+007612FM-15+013099999V0202701V007219999999N009999199+00601+00001999999ADDGA1041+009141999GE19MSL   +99999+99999GF199999041999009141999999MA1101301999999OC101241REMMET063METAR EDLW 101920Z 27014G24KT 240V310 9999 SCT030 06/M00 Q1013=
0103104160999992015011019504+51518+007612FM-15+013099999V0202801V006719999999Y999999999+00501-00101999999ADDMA1101401999999OC101181REMMET068METAR EDLW 101950Z 28013G23KT 240V320 CAVOK 05/M01 Q1014 RMK ATIS F=
0092104160999992015011020204+51518+007612FM-15+013099999V0202701V006219999999Y999999999+00501-00201999999ADDMA1101401999999REMMET065METAR EDLW 102020Z 27012KT 230V300 CAVOK 05/M02 Q1014 RMK ATIS G=
0092104160999992015011020504+51518+007612FM-15+013099999V0202601V005719999999Y999999999+00501-00301999999ADDMA1101401999999REMMET065METAR EDLW 102050Z 26011KT 240V300 CAVOK 05/M03 Q1014 RMK ATIS H=
0084104160999992015011021204+51518+007612FM-15+013099999V0202601N006219999999Y999999999+00501-00201999999ADDMA1101401999999REMMET057METAR EDLW 102120Z 26012KT CAVOK 05/M02 Q1014 RMK ATIS I=
0092104160999992015011021504+51518+007612FM-15+013099999V0202501V005119999999Y999999999+00401-00201999999ADDMA1101401999999REMMET065METAR EDLW 102150Z 25010KT 230V290 CAVOK 04/M02 Q1014 RMK ATIS J=
0084104160999992015011104204+51518+007612FM-15+013099999V0202401N008219999999Y999999999+00201-00201999999ADDMA1101201999999REMMET057METAR EDLW 110420Z 24016KT CAVOK 02/M02 Q1012 RMK ATIS K=
0154104160999992015011104504+51518+007612FM-15+013099999V0202501N007219999999N009999199+00301-00201999999ADDGA1041+009141999GE19MSL   +99999+99999GF199999041999009141999999MA1101201999999REMMET063METAR EDLW 110450Z 25014KT 9999 SCT030 03/M02 Q1012 RMK ATIS L=
0154104160999992015011105204+51518+007612FM-15+013099999V0202501N007219999999N009999199+00201-00201999999ADDGA1021+009141999GE19MSL   +99999+99999GF199999021999009141999999MA1101201999999REMMET063METAR EDLW 110520Z 25014KT 9999 FEW030 02/M02 Q1012 RMK ATIS M=
0154104160999992015011105504+51518+007612FM-15+013099999V0202501N007719999999N009999199+00201-00201999999ADDGA1021+007621999GE19MSL   +99999+99999GF199999021999007621999999MA1101201999999REMMET063METAR EDLW 110550Z 25015KT 9999 FEW025 02/M02 Q1012 RMK ATIS N=
0154104160999992015011106204+51518+007612FM-15+013099999V0202501N008819999999N009999199+00201-00101999999ADDGA1021+007621999GE19MSL   +99999+99999GF199999021999007621999999MA1101201999999REMMET063METAR EDLW 110620Z 25017KT 9999 FEW025 02/M01 Q1012 RMK ATIS O=
0165104160999992015011106504+51518+007612FM-15+013099999V0202401N008819999999N009999199+00201-00101999999ADDGA1021+007621999GE19MSL   +99999+99999GF199999021999007621999999MA1101201999999OC101441REMMET066METAR EDLW 110650Z 24017G28KT 9999 FEW025 02/M01 Q1012 RMK ATIS P=
0182104160999992015011107204+51518+007612FM-15+013099999V0202501N00881016761CN009999199+00201-00101999999ADDGA1021+006711999GA2041+016761999GE19MSL   +99999+99999GF199999021999006711999999MA1101201999999REMMET075METAR EDLW 110720Z 25017KT 9999 FEW022 SCT055 02/M01 Q1012 RMK ATIS      Q=
0164104160999992015011107504+51518+007612FM-15+013099999V0202501N009810045719N009999199+00201-00101999999ADDGA1071+004571999GE19MSL   +99999+99999GF199999071999004571999999MA1101301999999MW1611REMMET067METAR EDLW 110750Z 25019KT 9999 -RA BKN015 02/M01 Q1013 RMK ATIS R=
0164104160999992015011108204+51518+007612FM-15+013099999V0202501N009810045719N009999199+00201+00001999999ADDGA1071+004571999GE19MSL   +99999+99999GF199999071999004571999999MA1101301999999MW1611REMMET067METAR EDLW 110820Z 25019KT 9999 -RA BKN015 02/M00 Q1013 RMK ATIS S=
0164104160999992015011108504+51518+007612FM-15+013099999V0202501N007710045719N009999199+00201+00001999999ADDGA1081+004571999GE19MSL   +99999+99999GF199999081999004571999999MA1101401999999MW1611REMMET067METAR EDLW 110850Z 25015KT 9999 -RA OVC015 02/M00 Q1014 RMK ATIS T=
0203104160999992015011109204+51518+007612FM-15+013099999V0202501N008810045719N009999199+00301+00001999999ADDGA1071+004571999GA2071+016761999GE19MSL   +99999+99999GF199999071999004571999999MA1101401999999MW1611OC101391REMMET082METAR EDLW 110920Z 25017G27KT 9999 -RA BKN015 BKN055 03/M00 Q1014 RMK      ATIS U=
0175104160999992015011109504+51518+007612FM-15+013099999V0202501N008810061019N009999199+00301+00001999999ADDGA1071+006101999GA2041+018291999GE19MSL   +99999+99999GF199999071999006101999999MA1101401999999MW1611REMMET062METAR EDLW 110950Z 25017KT 9999 -RA BKN020 SCT060 03/00 Q1014=
0165104160999992015011110204+51518+007612FM-15+013099999V0202501N009310057919N009999199+00301+00001999999ADDGA1071+005791999GE19MSL   +99999+99999GF199999071999005791999999MA1101401999999OC101441REMMET066METAR EDLW 111020Z 25018G28KT 9999 BKN019 03/M00 Q1014 RMK ATIS W=
0212104160999992015011110504+51518+007612FM-15+013099999V0202601V008810085319N009999199+00301+00001999999ADDGA1041+003351999GA2071+008531999GE19MSL   +99999+99999GF199999041999003351999999MA1101501999999MW1811OC101491REMMET091METAR EDLW 111050Z 26017G29KT 230V290 9999 SHRA SCT011 BKN028 03/M00      Q1015 RMK ATIS X=
0210104160999992015011111204+51518+007612FM-15+013099999V0202601N008210173719N009999199+00401+00001999999ADDGA1041+008531999GA2071+017371999GE19MSL   +99999+99999GF199999041999008531999999MA1101501999999MW1801OC101651REMMET089METAR EDLW 111120Z 26016G32KT 9999 -SHRA SCT028 BKN057 04/M00 Q1015      RERA RMK ATIS Y=
0167104160999992015011111504+51518+007612FM-15+013099999V0202601V008810061019N009999199+00401+00001999999ADDGA1071+006101999GE19MSL   +99999+99999GF199999071999006101999999MA1101601999999REMMET076METAR EDLW 111150Z 26017KT 220V280 9999 BKN020 04/M00 Q1016 RMK ATIS      Z=
0204104160999992015011112204+51518+007612FM-15+013099999V0202601N009810076219N009999199+00401-00101999999ADDGA1071+007621999GA2071+013721999GE19MSL   +99999+99999GF199999071999007621999999MA1101601999999MW1161OC101651REMMET083METAR EDLW 111220Z 26019G32KT 9999 VCSH BKN025 BKN045 04/M01 Q1016      RMK ATIS A=
0164104160999992015011112504+51518+007612FM-15+013099999V0202501N010310091419N009999199+00401+00001999999ADDGA1071+009141999GE19MSL   +99999+99999GF199999071999009141999999MA1101601999999MW1611REMMET067METAR EDLW 111250Z 25020KT 9999 -RA BKN030 04/M00 Q1016 RMK ATIS B=
0180104160999992015011113204+51518+007612FM-15+013099999V0202601N009310091419N009999199+00401-00101999999ADDGA1071+009141999GE19MSL   +99999+99999GF199999071999009141999999MA1101601999999MW1611OC101491REMMET075METAR EDLW 111320Z 26018G29KT 9999 -RA BKN030 04/M01 Q1016 RMK ATIS      C=
0180104160999992015011113504+51518+007612FM-15+013099999V0202501N007210088419N009000199+00401+00001999999ADDGA1071+008841999GE19MSL   +99999+99999GF199999071999008841999999MA1101601999999MW1611OC101341REMMET075METAR EDLW 111350Z 25014G26KT 9000 -RA BKN029 04/M00 Q1016 RMK ATIS      D=
0188104160999992015011114204+51518+007612FM-15+013099999V0202601V007210088419N009999199+00401-00101999999ADDGA1071+008841999GE19MSL   +99999+99999GF199999071999008841999999MA1101701999999MW1511OC101241REMMET083METAR EDLW 111420Z 26014G24KT 220V290 9999 -DZ BKN029 04/M01 Q1017      RMK ATIS E=
0188104160999992015011114504+51518+007612FM-15+013099999V0202601V008210088419N009999199+00501-00101999999ADDGA1071+008841999GE19MSL   +99999+99999GF199999071999008841999999MA1101701999999MW1611OC101441REMMET083METAR EDLW 111450Z 26016G28KT 230V290 9999 -RA BKN029 05/M01 Q1017      RMK ATIS F=
0154104160999992015011115204+51518+007612FM-15+013099999V0202501N007710115819N009999199+00501+00001999999ADDGA1071+011581999GE19MSL   +99999+99999GF199999071999011581999999MA1101701999999REMMET063METAR EDLW 111520Z 25015KT 9999 BKN038 05/M00 Q1017 RMK ATIS G=
0178104160999992015011115504+51518+007612FM-15+013099999V0202601V008810091419N009999199+00501+00001999999ADDGA1071+009141999GE19MSL   +99999+99999GF199999071999009141999999MA1101801999999OC101391REMMET079METAR EDLW 111550Z 26017G27KT 230V290 9999 BKN030 05/M00 Q1018 RMK      ATIS H=
0178104160999992015011116204+51518+007612FM-15+013099999V0202601V008810082319N009999199+00501+00001999999ADDGA1071+008231999GE19MSL   +99999+99999GF199999071999008231999999MA1101801999999OC101391REMMET079METAR EDLW 111620Z 26017G27KT 230V290 9999 BKN027 05/M00 Q1018 RMK      ATIS I=
0154104160999992015011116504+51518+007612FM-15+013099999V0202501N009810076219N009999199+00501+00001999999ADDGA1071+007621999GE19MSL   +99999+99999GF199999071999007621999999MA1101801999999REMMET063METAR EDLW 111650Z 25019KT 9999 BKN025 05/M00 Q1018 RMK ATIS J=
0165104160999992015011117204+51518+007612FM-15+013099999V0202501N008810094519N009999199+00501+00001999999ADDGA1071+009451999GE19MSL   +99999+99999GF199999071999009451999999MA1101801999999OC101391REMMET066METAR EDLW 111720Z 25017G27KT 9999 BKN031 05/M00 Q1018 RMK ATIS K=
0165104160999992015011117504+51518+007612FM-15+013099999V0202501N008810070119N009999199+00501+00001999999ADDGA1071+007011999GE19MSL   +99999+99999GF199999071999007011999999MA1101901999999OC101391REMMET066METAR EDLW 111750Z 25017G27KT 9999 BKN023 05/M00 Q1019 RMK ATIS L=
0187104160999992015011118204+51518+007612FM-15+013099999V0202601V008810070119N009999199+00401+00101999999ADDGA1071+007011999GE19MSL   +99999+99999GF199999071999007011999999MA1101901999999MW1611OC101441REMMET082METAR EDLW 111820Z 26017G28KT 230V290 9999 -RA BKN023 04/01 Q1019 RMK      ATIS M=
0179104160999992015011118504+51518+007612FM-15+013099999V0202601N009810085319N009999199+00401+00101999999ADDGA1071+008531999GE19MSL   +99999+99999GF199999071999008531999999MA1101901999999MW1611OC101801REMMET074METAR EDLW 111850Z 26019G35KT 9999 -RA BKN028 04/01 Q1019 RMK ATIS      N=
0179104160999992015011119204+51518+007612FM-15+013099999V0202501N009310064019N009999199+00501+00001999999ADDGA1071+006401999GE19MSL   +99999+99999GF199999071999006401999999MA1101901999999MW1611OC101541REMMET074METAR EDLW 111920Z 25018G30KT 9999 -RA BKN021 05/00 Q1019 RMK ATIS      O=
0179104160999992015011119504+51518+007612FM-15+013099999V0202501N009310082319N009999199+00401+00101999999ADDGA1071+008231999GE19MSL   +99999+99999GF199999071999008231999999MA1101901999999MW1611OC101601REMMET074METAR EDLW 111950Z 25018G31KT 9999 -RA BKN027 04/01 Q1019 RMK ATIS      P=
0179104160999992015011120204+51518+007612FM-15+013099999V0202501N010310067119N009999199+00501+00001999999ADDGA1071+006711999GE19MSL   +99999+99999GF199999071999006711999999MA1101901999999MW1511OC101601REMMET074METAR EDLW 112020Z 25020G31KT 9999 -DZ BKN022 05/00 Q1019 RMK ATIS      Q=
0192104160999992015011120504+51518+007612FM-15+013099999V0202501N009810207319N009999199+00501+00101999999ADDGA1041+006711999GA2071+020731999GE19MSL   +99999+99999GF199999041999006711999999MA1102001999999OC101651REMMET077METAR EDLW 112050Z 25019G32KT 9999 SCT022 BKN068 05/01 Q1020 RMK ATIS      R=
0179104160999992015011121204+51518+007612FM-15+013099999V0202501N009310061019N009999199+00401+00101999999ADDGA1071+006101999GE19MSL   +99999+99999GF199999071999006101999999MA1102001999999MW1611OC101441REMMET074METAR EDLW 112120Z 25018G28KT 9999 -RA BKN020 04/01 Q1020 RMK ATIS      S=
0163104160999992015011121504+51518+007612FM-15+013099999V0202401N008210067119N009999199+00501+00201999999ADDGA1071+006711999GE19MSL   +99999+99999GF199999071999006711999999MA1102001999999MW1611REMMET066METAR EDLW 112150Z 24016KT 9999 -RA BKN022 05/02 Q1020 RMK ATIS T=
0163104160999992015011204204+51518+007612FM-15+013099999V0202401N008210067119N009999199+00601+00301999999ADDGA1071+006711999GE19MSL   +99999+99999GF199999071999006711999999MA1101701999999MW1611REMMET066METAR EDLW 120420Z 24016KT 9999 -RA BKN022 06/03 Q1017 RMK ATIS A=
0163104160999992015011204504+51518+007612FM-15+013099999V0202301N009310061019N009999199+00601+00301999999ADDGA1071+006101999GE19MSL   +99999+99999GF199999071999006101999999MA1101701999999MW1611REMMET066METAR EDLW 120450Z 23018KT 9999 -RA BKN020 06/03 Q1017 RMK ATIS B=
0164104160999992015011205204+51518+007612FM-15+013099999V0202401N009810061019N009999199+00601+00301999999ADDGA1071+006101999GE19MSL   +99999+99999GF199999071999006101999999MA1101701999999OC101601REMMET065METAR EDLW 120520Z 24019G31KT 9999 BKN020 06/03 Q1017 RMK ATIS C=
0179104160999992015011205504+51518+007612FM-15+013099999V0202301N010310061019N009999199+00601+00201999999ADDGA1071+006101999GE19MSL   +99999+99999GF199999071999006101999999MA1101601999999MW1611OC101541REMMET074METAR EDLW 120550Z 23020G30KT 9999 -RA BKN020 06/02 Q1016 RMK ATIS      D=
0153104160999992015011206204+51518+007612FM-15+013099999V0202301N011810061019N009999199+00601+00201999999ADDGA1071+006101999GE19MSL   +99999+99999GF199999071999006101999999MA1101601999999REMMET062METAR EDLW 120620Z 23023KT 9999 BKN020 06/02 Q1016 RMK ATIS E=
0179104160999992015011206504+51518+007612FM-15+013099999V0202301N010810061019N009999199+00601+00301999999ADDGA1071+006101999GE19MSL   +99999+99999GF199999071999006101999999MA1101601999999MW1611OC101601REMMET074METAR EDLW 120650Z 23021G31KT 9999 -RA BKN020 06/03 Q1016 RMK ATIS      F=
0153104160999992015011207204+51518+007612FM-15+013099999V0202301N011310061019N009999199+00601+00201999999ADDGA1071+006101999GE19MSL   +99999+99999GF199999071999006101999999MA1101601999999REMMET062METAR EDLW 120720Z 23022KT 9999 BKN020 06/02 Q1016 RMK ATIS G=
0153104160999992015011207504+51518+007612FM-15+013099999V0202401N011310061019N009999199+00601+00201999999ADDGA1071+006101999GE19MSL   +99999+99999GF199999071999006101999999MA1101601999999REMMET062METAR EDLW 120750Z 24022KT 9999 BKN020 06/02 Q1016 RMK ATIS H=
0163104160999992015011208204+51518+007612FM-15+013099999V0202301N011310067119N009999199+00601+00201999999ADDGA1071+006711999GE19MSL   +99999+99999GF199999071999006711999999MA1101601999999MW1611REMMET066METAR EDLW 120820Z 23022KT 9999 -RA BKN022 06/02 Q1016 RMK ATIS I=
0153104160999992015011208504+51518+007612FM-15+013099999V0202301N010810061019N009999199+00601+00201999999ADDGA1071+006101999GE19MSL   +99999+99999GF199999071999006101999999MA1101601999999REMMET062METAR EDLW 120850Z 23021KT 9999 BKN020 06/02 Q1016 RMK ATIS J=
