0153104160999992014010106204+51518+007612FM-15+013099999V0202001N005110115819N009999199+00501+00201999999ADDGA1071+011581991GE19MSL   +99999+99999GF199999071990011581991991MA1101001999990REMMET062METAR EDLW 010620Z 20010KT 9999 BKN038 05/02 Q1010 RMK ATIS A=
0153104160999992014010106504+51518+007612FM-15+013099999V0201901N005710109719N009999199+00501+00201999999ADDGA1071+010971991GE19MSL   +99999+99999GF199999071990010971991991MA1101001999990REMMET062METAR EDLW 010650Z 19011KT 9999 BKN036 05/02 Q1010 RMK ATIS B=
0153104160999992014010107204+51518+007612FM-15+013099999V0201901N004119999999N009999199+00501+00201999999ADDGA1021+011581991GE19MSL   +99999+99999GF199999021990011581991991MA1101001999990REMMET062METAR EDLW 010720Z 19008KT 9999 FEW038 05/02 Q1010 RMK ATIS C=
0083104160999992014010107504+51518+007612FM-15+013099999V0201901N004119999999Y999999999+00401+00101999999ADDMA1101001999990REMMET056METAR EDLW 010750Z 19008KT CAVOK 04/01 Q1010 RMK ATIS D=
0083104160999992014010108204+51518+007612FM-15+013099999V0202001N005119999999Y999999999+00501+00201999999ADDMA1101001999990REMMET056METAR EDLW 010820Z 20010KT CAVOK 05/02 Q1010 RMK ATIS E=
0083104160999992014010108504+51518+007612FM-15+013099999V0201901N004119999999Y999999999+00501+00201999999ADDMA1101001999990REMMET056METAR EDLW 010850Z 19008KT CAVOK 05/02 Q1010 RMK ATIS F=
0072104160999992014010109204+51518+007612FM-15+013099999V0202001N005719999999Y999999999+00601+00201999999ADDMA1101001999990REMMET045METAR EDLW 010920Z 20011KT CAVOK 06/02 Q1010=
0091104160999992014010109504+51518+007612FM-15+013099999V0202001V006219999999Y999999999+00601+00201999999ADDMA1101001999990REMMET064METAR EDLW 010950Z 20012KT 170V230 CAVOK 06/02 Q1010 RMK ATIS H=
0083104160999992014010110204+51518+007612FM-15+013099999V0202001N006719999999Y999999999+00701+00201999999ADDMA1101001999990REMMET056METAR EDLW 011020Z 20013KT CAVOK 07/02 Q1010 RMK ATIS I=
0083104160999992014010110504+51518+007612FM-15+013099999V0201901N006719999999Y999999999+00701+00201999999ADDMA1101001999990REMMET056METAR EDLW 011050Z 19013KT CAVOK 07/02 Q1010 RMK ATIS J=
0083104160999992014010111204+51518+007612FM-15+013099999V0202001N006719999999Y999999999+00701+00201999999ADDMA1100901999990REMMET056METAR EDLW 011120Z 20013KT CAVOK 07/02 Q1009 RMK ATIS K=
0083104160999992014010111504+51518+007612FM-15+013099999V0201901N006719999999Y999999999+00801+00101999999ADDMA1100901999990REMMET056METAR EDLW 011150Z 19013KT CAVOK 08/01 Q1009 RMK ATIS L=
0153104160999992014010112204+51518+007612FM-15+013099999V0201901N007719999999N009999199+00801+00201999999ADDGA1021+008531991GE19MSL   +99999+99999GF199999021990008531991991MA1100901999990REMMET062METAR EDLW 011220Z 19015KT 9999 FEW028 08/02 Q1009 RMK ATIS M=
0083104160999992014010112504+51518+007612FM-15+013099999V0201901N006219999999Y999999999+00801+00201999999ADDMA1100801999990REMMET056METAR EDLW 011250Z 19012KT CAVOK 08/02 Q1008 RMK ATIS N=
0091104160999992014010113204+51518+007612FM-15+013099999V0201901V006219999999Y999999999+00801+00201999999ADDMA1100801999990REMMET064METAR EDLW 011320Z 19012KT 160V220 CAVOK 08/02 Q1008 RMK ATIS O=
0091104160999992014010113504+51518+007612FM-15+013099999V0201901V006219999999Y999999999+00801+00101999999ADDMA1100801999990REMMET064METAR EDLW 011350Z 19012KT 160V220 CAVOK 08/01 Q1008 RMK ATIS P=
0083104160999992014010114204+51518+007612FM-15+013099999V0201801N005119999999Y999999999+00801+00101999999ADDMA1100801999990REMMET056METAR EDLW 011420Z 18010KT CAVOK 08/01 Q1008 RMK ATIS Q=
0083104160999992014010114504+51518+007612FM-15+013099999V0201701N006219999999Y999999999+00701+00101999999ADDMA1100701999990REMMET056METAR EDLW 011450Z 17012KT CAVOK 07/01 Q1007 RMK ATIS R=
0083104160999992014010115204+51518+007612FM-15+013099999V0201701N005119999999Y999999999+00701+00101999999ADDMA1100701999990REMMET056METAR EDLW 011520Z 17010KT CAVOK 07/01 Q1007 RMK ATIS S=
0083104160999992014010115504+51518+007612FM-15+013099999V0201701N005719999999Y999999999+00701+00101999999ADDMA1100701999990REMMET056METAR EDLW 011550Z 17011KT CAVOK 07/01 Q1007 RMK ATIS T=
0091104160999992014010116204+51518+007612FM-15+013099999V0201701V006719999999Y999999999+00701+00101999999ADDMA1100601999990REMMET064METAR EDLW 011620Z 17013KT 140V200 CAVOK 07/01 Q1006 RMK ATIS U=
0083104160999992014010116504+51518+007612FM-15+013099999V0201701N007719999999Y999999999+00701+00101999999ADDMA1100601999990REMMET056METAR EDLW 011650Z 17015KT CAVOK 07/01 Q1006 RMK ATIS V=
0083104160999992014010117204+51518+007612FM-15+013099999V0201701N007219999999Y999999999+00701+00201999999ADDMA1100501999990REMMET056METAR EDLW 011720Z 17014KT CAVOK 07/02 Q1005 RMK ATIS W=
0083104160999992014010117504+51518+007612FM-15+013099999V0201701N008219999999Y999999999+00801+00201999999ADDMA1100501999990REMMET056METAR EDLW 011750Z 17016KT CAVOK 08/02 Q1005 RMK ATIS X=
0083104160999992014010118204+51518+007612FM-15+013099999V0201701N007219999999Y999999999+00801+00301999999ADDMA1100401999990REMMET056METAR EDLW 011820Z 17014KT CAVOK 08/03 Q1004 RMK ATIS Y=
0083104160999992014010118504+51518+007612FM-15+013099999V0201701N006719999999Y999999999+00801+00301999999ADDMA1100401999990REMMET056METAR EDLW 011850Z 17013KT CAVOK 08/03 Q1004 RMK ATIS Z=
0094104160999992014010119204+51518+007612FM-15+013099999V0201701N006719999999Y999999999+00801+00301999999ADDMA1100401999990OC101181REMMET059METAR EDLW 011920Z 17013G23KT CAVOK 08/03 Q1004 RMK ATIS A=
0094104160999992014010119504+51518+007612FM-15+013099999V0201701N006719999999Y999999999+00801+00301999999ADDMA1100301999990OC101181REMMET059METAR EDLW 011950Z 17013G23KT CAVOK 08/03 Q1003 RMK ATIS B=
0083104160999992014010120204+51518+007612FM-15+013099999V0201701N007719999999Y999999999+00801+00301999999ADDMA1100301999990REMMET056METAR EDLW 012020Z 17015KT CAVOK 08/03 Q1003 RMK ATIS C=
0083104160999992014010120504+51518+007612FM-15+013099999V0201701N008219999999Y999999999+00801+00301999999ADDMA1100201999990REMMET056METAR EDLW 012050Z 17016KT CAVOK 08/03 Q1002 RMK ATIS D=
0083104160999992014010204204+51518+007612FM-15+013099999V0201701N007719999999Y999999999+00901+00501999999ADDMA1099701999990REMMET056METAR EDLW 020420Z 17015KT CAVOK 09/05 Q0997 RMK ATIS A=
0163104160999992014010204504+51518+007612FM-15+013099999V0201701N007719999999N009999199+00901+00501999999ADDGA1041+014631991GE19MSL   +99999+99999GF199999041990014631991991MA1099701999990MW1511REMMET066METAR EDLW 020450Z 17015KT 9999 -DZ SCT048 09/05 Q0997 RMK ATIS B=
0181104160999992014010205204+51518+007612FM-15+013099999V0201801N007710167619N009999199+00901+00501999999ADDGA1021+010361991GA2071+016761991GE19MSL   +99999+99999GF199999021990010361991991MA1099701999990REMMET074METAR EDLW 020520Z 18015KT 9999 FEW034 BKN055 09/05 Q0997 RMK ATIS      C=
0181104160999992014010205504+51518+007612FM-15+013099999V0201801N00881018591CN009999199+00901+00501999999ADDGA1021+006711991GA2041+018591991GE19MSL   +99999+99999GF199999021990006711991991MA1099701999990REMMET074METAR EDLW 020550Z 18017KT 9999 FEW022 SCT061 09/05 Q0997 RMK ATIS      D=
0153104160999992014010206204+51518+007612FM-15+013099999V0201801N007219999999N009999199+00901+00501999999ADDGA1041+011891991GE19MSL   +99999+99999GF199999041990011891991991MA1099701999990REMMET062METAR EDLW 020620Z 18014KT 9999 SCT039 09/05 Q0997 RMK ATIS E=
0122104160999992014010206504+51518+007612FM-15+013099999V0201801N007712200019N009999199+00901+00501999999ADDGF100991999999999999999999MA1099701999990MW1511REMMET063METAR EDLW 020650Z 18015KT 9999 -DZ NSC 09/05 Q0997 RMK ATIS F=
0153104160999992014010207204+51518+007612FM-15+013099999V0201801N006710094519N009999199+00901+00501999999ADDGA1071+009451991GE19MSL   +99999+99999GF199999071990009451991991MA1099701999990REMMET062METAR EDLW 020720Z 18013KT 9999 BKN031 09/05 Q0997 RMK ATIS G=
0153104160999992014010207504+51518+007612FM-15+013099999V0201801N005110109719N009999199+00901+00501999999ADDGA1071+010971991GE19MSL   +99999+99999GF199999071990010971991991MA1099801999990REMMET062METAR EDLW 020750Z 18010KT 9999 BKN036 09/05 Q0998 RMK ATIS H=
0181104160999992014010208204+51518+007612FM-15+013099999V0201901N005110100619N009999199+00901+00501999999ADDGA1021+007011991GA2071+010061991GE19MSL   +99999+99999GF199999021990007011991991MA1099801999990REMMET074METAR EDLW 020820Z 19010KT 9999 FEW023 BKN033 09/05 Q0998 RMK ATIS      I=
0166104160999992014010208504+51518+007612FM-15+013099999V0201801V005710064019N009999199+01001+00501999999ADDGA1071+006401991GE19MSL   +99999+99999GF199999071990006401991991MA1099801999990REMMET075METAR EDLW 020850Z 18011KT 150V210 9999 BKN021 10/05 Q0998 RMK ATIS      J=
0166104160999992014010209204+51518+007612FM-15+013099999V0201801V005710131119N009999199+01001+00501999999ADDGA1071+013111991GE19MSL   +99999+99999GF199999071990013111991991MA1099801999990REMMET075METAR EDLW 020920Z 18011KT 150V220 9999 BKN043 10/05 Q0998 RMK ATIS      K=
0153104160999992014010209504+51518+007612FM-15+013099999V0201801N007719999999N009999199+01001+00501999999ADDGA1041+014631991GE19MSL   +99999+99999GF199999041990014631991991MA1099801999990REMMET062METAR EDLW 020950Z 18015KT 9999 SCT048 10/05 Q0998 RMK ATIS L=
0166104160999992014010210204+51518+007612FM-15+013099999V0202001V005710125019N009999199+01001+00501999999ADDGA1071+012501991GE19MSL   +99999+99999GF199999071990012501991991MA1099801999990REMMET075METAR EDLW 021020Z 20011KT 170V240 9999 BKN041 10/05 Q0998 RMK ATIS      M=
0166104160999992014010210504+51518+007612FM-15+013099999V0202001V008219999999N009999199+01001+00501999999ADDGA1041+012501991GE19MSL   +99999+99999GF199999041990012501991991MA1099801999990REMMET075METAR EDLW 021050Z 20016KT 160V220 9999 SCT041 10/05 Q0998 RMK ATIS      N=
0153104160999992014010211204+51518+007612FM-15+013099999V0201901N008219999999N009999199+01001+00501999999ADDGA1041+006711991GE19MSL   +99999+99999GF199999041990006711991991MA1099701999990REMMET062METAR EDLW 021120Z 19016KT 9999 SCT022 10/05 Q0997 RMK ATIS O=
0163104160999992014010211504+51518+007612FM-15+013099999V0202101N007710076219N009999199+01001+00601999999ADDGA1071+007621991GE19MSL   +99999+99999GF199999071990007621991991MA1099801999990MW1511REMMET066METAR EDLW 021150Z 21015KT 9999 -DZ BKN025 10/06 Q0998 RMK ATIS P=
0191104160999992014010212204+51518+007612FM-15+013099999V0202301N010310121919N009999199+01001+00601999999ADDGA1041+006101991GA2071+012191991GE19MSL   +99999+99999GF199999041990006101991991MA1099901999990MW1611REMMET078METAR EDLW 021220Z 23020KT 9999 -RA SCT020 BKN040 10/06 Q0999 RMK ATIS      Q=
0153104160999992014010212504+51518+007612FM-15+013099999V0202301N008810064019N009999199+01001+00501999999ADDGA1071+006401991GE19MSL   +99999+99999GF199999071990006401991991MA1099901999990REMMET062METAR EDLW 021250Z 23017KT 9999 BKN021 10/05 Q0999 RMK ATIS R=
0153104160999992014010213204+51518+007612FM-15+013099999V0202401N009810125019N009999199+01001+00501999999ADDGA1071+012501991GE19MSL   +99999+99999GF199999071990012501991991MA1100001999990REMMET062METAR EDLW 021320Z 24019KT 9999 BKN041 10/05 Q1000 RMK ATIS S=
0153104160999992014010213504+51518+007612FM-15+013099999V0202301N007710125019N009999199+01001+00501999999ADDGA1071+012501991GE19MSL   +99999+99999GF199999071990012501991991MA1100001999990REMMET062METAR EDLW 021350Z 23015KT 9999 BKN041 10/05 Q1000 RMK ATIS T=
0181104160999992014010214204+51518+007612FM-15+013099999V0202401N00671014941CN009999199+00901+00501999999ADDGA1041+006101991GA2041+014941991GE19MSL   +99999+99999GF199999041990006101991991MA1100101999990REMMET074METAR EDLW 021420Z 24013KT 9999 SCT020 SCT049 09/05 Q1001 RMK ATIS      U=
0153104160999992014010214504+51518+007612FM-15+013099999V0202401N007710097519N009999199+00901+00501999999ADDGA1071+009751991GE19MSL   +99999+99999GF199999071990009751991991MA1100101999990MW1161REMMET056METAR EDLW 021450Z 24015KT 9999 VCSH BKN032 09/05 Q1001=
0192104160999992014010215204+51518+007612FM-15+013099999V0202401N00671012501CN009999199+00901+00501999999ADDGA1041+006101991GA2041+012501991GE19MSL   +99999+99999GF199999041990006101991991MA1100201999990MW1161REMMET079METAR EDLW 021520Z 24013KT 9999 VCSH SCT020 SCT041 09/05 Q1002 RMK      ATIS W=
0153104160999992014010215504+51518+007612FM-15+013099999V0202301N005719999999N009999199+00801+00401999999ADDGA1041+013111991GE19MSL   +99999+99999GF199999041990013111991991MA1100301999990REMMET062METAR EDLW 021550Z 23011KT 9999 SCT043 08/04 Q1003 RMK ATIS X=
0142104160999992014010216204+51518+007612FM-15+013099999V0202201N005719999999N009999199+00801+00401999999ADDGA1021+009751991GE19MSL   +99999+99999GF199999021990009751991991MA1100301999990REMMET051METAR EDLW 021620Z 22011KT 9999 FEW032 08/04 Q1003=
0142104160999992014010216504+51518+007612FM-15+013099999V0202201N006210070119N009999199+00801+00401999999ADDGA1071+007011991GE19MSL   +99999+99999GF199999071990007011991991MA1100401999990REMMET051METAR EDLW 021650Z 22012KT 9999 BKN023 08/04 Q1004=
0153104160999992014010217204+51518+007612FM-15+013099999V0202301N005110094519N009999199+00801+00501999999ADDGA1071+009451991GE19MSL   +99999+99999GF199999071990009451991991MA1100401999990REMMET062METAR EDLW 021720Z 23010KT 9999 BKN031 08/05 Q1004 RMK ATIS A=
0163104160999992014010217504+51518+007612FM-15+013099999V0202201N004619999999N009999199+00701+00401999999ADDGA1041+008531991GE19MSL   +99999+99999GF199999041990008531991991MA1100401999990MW1611REMMET066METAR EDLW 021750Z 22009KT 9999 -RA SCT028 07/04 Q1004 RMK ATIS B=
0163104160999992014010218204+51518+007612FM-15+013099999V0202101N005119999999N009999199+00701+00401999999ADDGA1041+007921991GE19MSL   +99999+99999GF199999041990007921991991MA1100501999990MW1611REMMET066METAR EDLW 021820Z 21010KT 9999 -RA SCT026 07/04 Q1005 RMK ATIS C=
0191104160999992014010218504+51518+007612FM-15+013099999V0202101N005110152419N009999199+00801+00401999999ADDGA1041+007621991GA2071+015241991GE19MSL   +99999+99999GF199999041990007621991991MA1100501999990MW1611REMMET078METAR EDLW 021850Z 21010KT 9999 -RA SCT025 BKN050 08/04 Q1005 RMK ATIS      D=
0191104160999992014010219204+51518+007612FM-15+013099999V0202101N004610155419N009999199+00801+00401999999ADDGA1021+008531991GA2071+015541991GE19MSL   +99999+99999GF199999021990008531991991MA1100501999990MW1611REMMET078METAR EDLW 021920Z 21009KT 9999 -RA FEW028 BKN051 08/04 Q1005 RMK ATIS      E=
0181104160999992014010219504+51518+007612FM-15+013099999V0202201N004610152419N009999199+00701+00401999999ADDGA1021+009141991GA2071+015241991GE19MSL   +99999+99999GF199999021990009141991991MA1100601999990REMMET074METAR EDLW 021950Z 22009KT 9999 FEW030 BKN050 07/04 Q1006 RMK ATIS      F=
0083104160999992014010220204+51518+007612FM-15+013099999V0202101N004119999999Y999999999+00801+00401999999ADDMA1100601999990REMMET056METAR EDLW 022020Z 21008KT CAVOK 08/04 Q1006 RMK ATIS G=
0153104160999992014010220504+51518+007612FM-15+013099999V0202001N004610097519N009999199+00701+00301999999ADDGA1071+009751991GE19MSL   +99999+99999GF199999071990009751991991MA1100601999990REMMET062METAR EDLW 022050Z 20009KT 9999 BKN032 07/03 Q1006 RMK ATIS H=
0083104160999992014010304204+51518+007612FM-15+013099999V0201901N006719999999Y999999999+00701+00401999999ADDMA1100501999990REMMET056METAR EDLW 030420Z 19013KT CAVOK 07/04 Q1005 RMK ATIS A=
0083104160999992014010304504+51518+007612FM-15+013099999V0201801N006219999999Y999999999+00701+00401999999ADDMA1100401999990REMMET056METAR EDLW 030450Z 18012KT CAVOK 07/04 Q1004 RMK ATIS B=
0083104160999992014010305204+51518+007612FM-15+013099999V0201701N005719999999Y999999999+00801+00401999999ADDMA1100401999990REMMET056METAR EDLW 030520Z 17011KT CAVOK 08/04 Q1004 RMK ATIS C=
0083104160999992014010305504+51518+007612FM-15+013099999V0201701N006719999999Y999999999+00801+00401999999ADDMA1100301999990REMMET056METAR EDLW 030550Z 17013KT CAVOK 08/04 Q1003 RMK ATIS D=
0094104160999992014010306204+51518+007612FM-15+013099999V0201801N008219999999Y999999999+00901+00401999999ADDMA1100301999990OC101341REMMET059METAR EDLW 030620Z 18016G26KT CAVOK 09/04 Q1003 RMK ATIS E=
0153104160999992014010306504+51518+007612FM-15+013099999V0201801N008219999999N009999199+00901+00401999999ADDGA1041+014941991GE19MSL   +99999+99999GF199999041990014941991991MA1100301999990REMMET062METAR EDLW 030650Z 18016KT 9999 SCT049 09/04 Q1003 RMK ATIS F=
0083104160999992014010307204+51518+007612FM-15+013099999V0201701N008219999999Y999999999+00901+00401999999ADDMA1100201999990REMMET056METAR EDLW 030720Z 17016KT CAVOK 09/04 Q1002 RMK ATIS G=
0080104160999992014010307504+51518+007612FM-15+013099999V0201801V008219999999Y999999999+00901+00401999999ADDMA1100201999990REMMET053METAR EDLW 030750Z 18016KT 130V200 CAVOK 09/04 Q1002=
0164104160999992014010308204+51518+007612FM-15+013099999V0201801N009310140219N009999199+01001+00401999999ADDGA1071+014021991GE19MSL   +99999+99999GF199999071990014021991991MA1100201999990OC101441REMMET065METAR EDLW 030820Z 18018G28KT 9999 BKN046 10/04 Q1002 RMK ATIS I=
0189104160999992014010308504+51518+007612FM-15+013099999V0201901V008210115819N009999199+01001+00401999999ADDGA1041+003351991GA2071+011581991GE19MSL   +99999+99999GF199999041990003351991991MA1100201999990REMMET082METAR EDLW 030850Z 19016KT 160V220 9999 SCT011 BKN038 10/04 Q1002 RMK      ATIS J=
0166104160999992014010309204+51518+007612FM-15+013099999V0201901V009310118919N009999199+00901+00501999999ADDGA1071+011891991GE19MSL   +99999+99999GF199999071990011891991991MA1100301999990REMMET075METAR EDLW 030920Z 19018KT 160V220 9999 BKN039 09/05 Q1003 RMK ATIS      K=
0153104160999992014010309504+51518+007612FM-15+013099999V0201901N008810097519N009999199+00901+00501999999ADDGA1071+009751991GE19MSL   +99999+99999GF199999071990009751991991MA1100301999990REMMET062METAR EDLW 030950Z 19017KT 9999 BKN032 09/05 Q1003 RMK ATIS L=
0189104160999992014010310204+51518+007612FM-15+013099999V0201901V008810100619N009999199+00901+00501999999ADDGA1041+007321991GA2071+010061991GE19MSL   +99999+99999GF199999041990007321991991MA1100301999990REMMET082METAR EDLW 031020Z 19017KT 170V230 9999 SCT024 BKN033 09/05 Q1003 RMK      ATIS M=
0153104160999992014010310504+51518+007612FM-15+013099999V0201901N008810061019N009999199+00901+00501999999ADDGA1071+006101991GE19MSL   +99999+99999GF199999071990006101991991MA1100301999990REMMET062METAR EDLW 031050Z 19017KT 9999 BKN020 09/05 Q1003 RMK ATIS N=
0153104160999992014010311204+51518+007612FM-15+013099999V0202001N008810091419N009999199+00901+00501999999ADDGA1071+009141991GE19MSL   +99999+99999GF199999071990009141991991MA1100301999990REMMET062METAR EDLW 031120Z 20017KT 9999 BKN030 09/05 Q1003 RMK ATIS O=
0094104160999992014010311504+51518+007612FM-15+013099999V0202001N008219999999Y999999999+01001+00601999999ADDMA1100301999990OC101391REMMET059METAR EDLW 031150Z 20016G27KT CAVOK 10/06 Q1003 RMK ATIS P=
0094104160999992014010312204+51518+007612FM-15+013099999V0202001N007719999999Y999999999+01001+00601999999ADDMA1100301999990OC101291REMMET059METAR EDLW 031220Z 20015G25KT CAVOK 10/06 Q1003 RMK ATIS Q=
0083104160999992014010312504+51518+007612FM-15+013099999V0202001N008819999999Y999999999+01001+00501999999ADDMA1100301999990REMMET056METAR EDLW 031250Z 20017KT CAVOK 10/05 Q1003 RMK ATIS R=
0083104160999992014010313204+51518+007612FM-15+013099999V0202101N007719999999Y999999999+01101+00601999999ADDMA1100301999990REMMET056METAR EDLW 031320Z 21015KT CAVOK 11/06 Q1003 RMK ATIS S=
0083104160999992014010313504+51518+007612FM-15+013099999V0202101N007219999999Y999999999+01101+00501999999ADDMA1100301999990REMMET056METAR EDLW 031350Z 21014KT CAVOK 11/05 Q1003 RMK ATIS T=
0083104160999992014010314204+51518+007612FM-15+013099999V0202001N006719999999Y999999999+01101+00501999999ADDMA1100301999990REMMET056METAR EDLW 031420Z 20013KT CAVOK 11/05 Q1003 RMK ATIS U=
0083104160999992014010314504+51518+007612FM-15+013099999V0202001N007219999999Y999999999+01101+00501999999ADDMA1100301999990REMMET056METAR EDLW 031450Z 20014KT CAVOK 11/05 Q1003 RMK ATIS V=
0083104160999992014010315204+51518+007612FM-15+013099999V0202001N007219999999Y999999999+01101+00501999999ADDMA1100301999990REMMET056METAR EDLW 031520Z 20014KT CAVOK 11/05 Q1003 RMK ATIS W=
0083104160999992014010315504+51518+007612FM-15+013099999V0202001N006719999999Y999999999+01101+00501999999ADDMA1100301999990REMMET056METAR EDLW 031550Z 20013KT CAVOK 11/05 Q1003 RMK ATIS X=
0083104160999992014010316204+51518+007612FM-15+013099999V0202001N008819999999Y999999999+01101+00501999999ADDMA1100301999990REMMET056METAR EDLW 031620Z 20017KT CAVOK 11/05 Q1003 RMK ATIS Y=
0083104160999992014010316504+51518+007612FM-15+013099999V0202001N007219999999Y999999999+01101+00501999999ADDMA1100301999990REMMET056METAR EDLW 031650Z 20014KT CAVOK 11/05 Q1003 RMK ATIS Z=
0083104160999992014010317204+51518+007612FM-15+013099999V0201901N006219999999Y999999999+01101+00501999999ADDMA1100201999990REMMET056METAR EDLW 031720Z 19012KT CAVOK 11/05 Q1002 RMK ATIS A=
0094104160999992014010317504+51518+007612FM-15+013099999V0201901N008219999999Y999999999+01101+00601999999ADDMA1100201999990OC101391REMMET059METAR EDLW 031750Z 19016G27KT CAVOK 11/06 Q1002 RMK ATIS B=
0148104160999992014010318204+51518+007612FM-15+013099999V0202001N009312200019N009999199+01101+00501999999ADDGF100991999999999999999999MA1100201999990MW1131REMMET089METAR EDLW 031820Z 20018KT 9999 VCTS NSC 11/05 Q1002 RMK TS NW OF AD      MOVG NE ATIS C=
0200104160999992014010318384+51518+007612FM-16+013099999V0202001V009810061019N003500199+00801+00101999999ADDGA1071+006101091GE19MSL   +99999+99999GF199999071990006101991991MA1100401999990MW1181MW2971OC102731REMMET089SPECI EDLW 031838Z 20019G53KT 170V300 3500 +TSRA SQ BKN020CB 08/01      Q1004 RMK ATIS D=
0175104160999992014010318504+51518+007612FM-15+013099999V0202501N014910061019N005000199+00401+00201999999ADDGA1071+006101091GE19MSL   +99999+99999GF199999071990006101991991MA1100501999990MW1181MW2951OC102521REMMET064METAR EDLW 031850Z 25029G49KT 5000 TSRA SQ BKN020CB 04/02 Q1005=
0192104160999992014010318544+51518+007612FM-16+013099999V0202501N010810045719N009999199+00501+00301999999ADDGA1071+004571091GE19MSL   +99999+99999GF199999071990004571991991MA1100501999990MW1131MW2611OC101701REMMET081SPECI EDLW 031854Z 25021G33KT 9999 VCTS -RA BKN015CB 05/03 Q1005 RMK      ATIS F=
0186104160999992014010319204+51518+007612FM-15+013099999V0202401N009810076219N009999199+00601+00301999999ADDGA1071+007621091GE19MSL   +99999+99999GF199999071990007621991991MA1100501999990MW1131MW2611REMMET083METAR EDLW 031920Z 24019KT 9999 -RA VCTS BKN025CB 06/03 Q1005 RETS      RMK ATIS G=
0122104160999992014010319504+51518+007612FM-15+013099999V0202301N007712200019N009999199+00701+00301999999ADDGF100991999999999999999999MA1100501999990MW1611REMMET063METAR EDLW 031950Z 23015KT 9999 -RA NSC 07/03 Q1005 RMK ATIS H=
0083104160999992014010320204+51518+007612FM-15+013099999V0202201N006719999999Y999999999+00701+00401999999ADDMA1100501999990REMMET056METAR EDLW 032020Z 22013KT CAVOK 07/04 Q1005 RMK ATIS I=
0083104160999992014010320504+51518+007612FM-15+013099999V0202201N006719999999Y999999999+00701+00401999999ADDMA1100601999990REMMET056METAR EDLW 032050Z 22013KT CAVOK 07/04 Q1006 RMK ATIS J=
0081104160999992014010404204+51518+007612FM-15+013099999V0201901N006719999999Y999999999+00601+00101999999ADDMA1100901999990REMMET054METAR EDLW 040420Z 19013KT CAVOK 06/01 Q1009 RMK ATIS=
0083104160999992014010404504+51518+007612FM-15+013099999V0201901N005119999999Y999999999+00701+00101999999ADDMA1100801999990REMMET056METAR EDLW 040450Z 19010KT CAVOK 07/01 Q1008 RMK ATIS B=
0083104160999992014010405204+51518+007612FM-15+013099999V0201901N006219999999Y999999999+00601+00101999999ADDMA1100801999990REMMET056METAR EDLW 040520Z 19012KT CAVOK 06/01 Q1008 RMK ATIS C=
0083104160999992014010405504+51518+007612FM-15+013099999V0202001N005719999999Y999999999+00601+00201999999ADDMA1100801999990REMMET056METAR EDLW 040550Z 20011KT CAVOK 06/02 Q1008 RMK ATIS D=
0083104160999992014010406204+51518+007612FM-15+013099999V0201801N005119999999Y999999999+00601+00201999999ADDMA1100801999990REMMET056METAR EDLW 040620Z 18010KT CAVOK 06/02 Q1008 RMK ATIS E=
0083104160999992014010406504+51518+007612FM-15+013099999V0202001N005119999999Y999999999+00701+00201999999ADDMA1100701999990REMMET056METAR EDLW 040650Z 20010KT CAVOK 07/02 Q1007 RMK ATIS F=
0083104160999992014010407204+51518+007612FM-15+013099999V0201801N004619999999Y999999999+00701+00201999999ADDMA1100701999990REMMET056METAR EDLW 040720Z 18009KT CAVOK 07/02 Q1007 RMK ATIS G=
0083104160999992014010407504+51518+007612FM-15+013099999V0201801N004619999999Y999999999+00701+00201999999ADDMA1100701999990REMMET056METAR EDLW 040750Z 18009KT CAVOK 07/02 Q1007 RMK ATIS H=
0083104160999992014010408204+51518+007612FM-15+013099999V0201701N005119999999Y999999999+00601+00201999999ADDMA1100701999990REMMET056METAR EDLW 040820Z 17010KT CAVOK 06/02 Q1007 RMK ATIS I=
0083104160999992014010408504+51518+007612FM-15+013099999V0201601N005719999999Y999999999+00701+00201999999ADDMA1100601999990REMMET056METAR EDLW 040850Z 16011KT CAVOK 07/02 Q1006 RMK ATIS J=
0083104160999992014010409204+51518+007612FM-15+013099999V0201701N007219999999Y999999999+00701+00201999999ADDMA1100601999990REMMET056METAR EDLW 040920Z 17014KT CAVOK 07/02 Q1006 RMK ATIS K=
0083104160999992014010409504+51518+007612FM-15+013099999V0201601N006219999999Y999999999+00701+00301999999ADDMA1100501999990REMMET056METAR EDLW 040950Z 16012KT CAVOK 07/03 Q1005 RMK ATIS L=
0083104160999992014010410204+51518+007612FM-15+013099999V0201601N005719999999Y999999999+00801+00301999999ADDMA1100401999990REMMET056METAR EDLW 041020Z 16011KT CAVOK 08/03 Q1004 RMK ATIS M=
0083104160999992014010410504+51518+007612FM-15+013099999V0201501N005119999999Y999999999+00801+00201999999ADDMA1100401999990REMMET056METAR EDLW 041050Z 15010KT CAVOK 08/02 Q1004 RMK ATIS N=
0091104160999992014010411204+51518+007612FM-15+013099999V0201701V007719999999Y999999999+00801+00201999999ADDMA1100301999990REMMET064METAR EDLW 041120Z 17015KT 140V200 CAVOK 08/02 Q1003 RMK ATIS O=
0083104160999992014010411504+51518+007612FM-15+013099999V0201701N007719999999Y999999999+00901+00301999999ADDMA1100301999990REMMET056METAR EDLW 041150Z 17015KT CAVOK 09/03 Q1003 RMK ATIS P=
0083104160999992014010412204+51518+007612FM-15+013099999V0201701N006719999999Y999999999+00901+00301999999ADDMA1100201999990REMMET056METAR EDLW 041220Z 17013KT CAVOK 09/03 Q1002 RMK ATIS Q=
0083104160999992014010412504+51518+007612FM-15+013099999V0201701N006719999999Y999999999+00901+00301999999ADDMA1100101999990REMMET056METAR EDLW 041250Z 17013KT CAVOK 09/03 Q1001 RMK ATIS R=
0083104160999992014010413204+51518+007612FM-15+013099999V0201501N004619999999Y999999999+00901+00301999999ADDMA1100101999990REMMET056METAR EDLW 041320Z 15009KT CAVOK 09/03 Q1001 RMK ATIS S=
0080104160999992014010413504+51518+007612FM-15+013099999V0201401V003119999999Y999999999+01001+00301999999ADDMA1100001999990REMMET053METAR EDLW 041350Z 14006KT 100V160 CAVOK 10/03 Q1000=
0083104160999992014010414204+51518+007612FM-15+013099999V0201601N005119999999Y999999999+01001+00301999999ADDMA1099901999990REMMET056METAR EDLW 041420Z 16010KT CAVOK 10/03 Q0999 RMK ATIS U=
0083104160999992014010414504+51518+007612FM-15+013099999V0201501N005719999999Y999999999+01001+00301999999ADDMA1099901999990REMMET056METAR EDLW 041450Z 15011KT CAVOK 10/03 Q0999 RMK ATIS V=
0091104160999992014010415204+51518+007612FM-15+013099999V0201601V005719999999Y999999999+00901+00301999999ADDMA1099901999990REMMET064METAR EDLW 041520Z 16011KT 130V200 CAVOK 09/03 Q0999 RMK ATIS W=
0083104160999992014010415504+51518+007612FM-15+013099999V0201501N005719999999Y999999999+00901+00301999999ADDMA1099801999990REMMET056METAR EDLW 041550Z 15011KT CAVOK 09/03 Q0998 RMK ATIS X=
0091104160999992014010416204+51518+007612FM-15+013099999V0201601V005119999999Y999999999+00901+00301999999ADDMA1099801999990REMMET064METAR EDLW 041620Z 16010KT 130V190 CAVOK 09/03 Q0998 RMK ATIS Y=
0083104160999992014010416504+51518+007612FM-15+013099999V0201701N006219999999Y999999999+00901+00401999999ADDMA1099801999990REMMET056METAR EDLW 041650Z 17012KT CAVOK 09/04 Q0998 RMK ATIS Z=
0091104160999992014010417204+51518+007612FM-15+013099999V0201601V005119999999Y999999999+00801+00401999999ADDMA1099801999990REMMET064METAR EDLW 041720Z 16010KT 130V190 CAVOK 08/04 Q0998 RMK ATIS A=
0166104160999992014010417504+51518+007612FM-15+013099999V0201701V004619999999N009999199+00801+00401999999ADDGA1041+012191991GE19MSL   +99999+99999GF199999041990012191991991MA1099701999990REMMET075METAR EDLW 041750Z 17009KT 140V210 9999 SCT040 08/04 Q0997 RMK ATIS      B=
0072104160999992014010418204+51518+007612FM-15+013099999V0201601N004119999999Y999999999+00801+00401999999ADDMA1099701999990REMMET045METAR EDLW 041820Z 16008KT CAVOK 08/04 Q0997=
0083104160999992014010418504+51518+007612FM-15+013099999V0201701N004619999999Y999999999+00801+00401999999ADDMA1099701999990REMMET056METAR EDLW 041850Z 17009KT CAVOK 08/04 Q0997 RMK ATIS D=
0091104160999992014010419204+51518+007612FM-15+013099999V0201701V004619999999Y999999999+00801+00401999999ADDMA1099601999990REMMET064METAR EDLW 041920Z 17009KT 140V200 CAVOK 08/04 Q0996 RMK ATIS E=
0083104160999992014010419504+51518+007612FM-15+013099999V0209999V001519999999Y999999999+00701+00401999999ADDMA1099701999990REMMET056METAR EDLW 041950Z VRB03KT CAVOK 07/04 Q0997 RMK ATIS F=
0083104160999992014010420204+51518+007612FM-15+013099999V0201801N004119999999Y999999999+00701+00401999999ADDMA1099601999990REMMET056METAR EDLW 042020Z 18008KT CAVOK 07/04 Q0996 RMK ATIS G=
0083104160999992014010420504+51518+007612FM-15+013099999V0201801N005119999999Y999999999+00801+00401999999ADDMA1099601999990REMMET056METAR EDLW 042050Z 18010KT CAVOK 08/04 Q0996 RMK ATIS H=
0191104160999992014010504204+51518+007612FM-15+013099999V0202301N005110091419N009999199+00701+00501999999ADDGA1041+003051991GA2071+009141991GE19MSL   +99999+99999GF199999041990003051991991MA1099901999990MW1611REMMET078METAR EDLW 050420Z 23010KT 9999 -RA SCT010 BKN030 07/05 Q0999 RMK ATIS      A=
0191104160999992014010504504+51518+007612FM-15+013099999V0202401N005710112819N009999199+00701+00501999999ADDGA1021+003351991GA2071+011281991GE19MSL   +99999+99999GF199999021990003351991991MA1099901999990MW1611REMMET078METAR EDLW 050450Z 24011KT 9999 -RA FEW011 BKN037 07/05 Q0999 RMK ATIS      B=
0176104160999992014010505204+51518+007612FM-15+013099999V0202601V006210021319N009000199+00701+00501999999ADDGA1071+002131991GE19MSL   +99999+99999GF199999071990002131991991MA1100001999990MW1611REMMET079METAR EDLW 050520Z 26012KT 230V290 9000 -RA BKN007 07/05 Q1000 RMK      ATIS C=
0177104160999992014010505504+51518+007612FM-15+013099999V0202701V005110036619N009999199+00701+00401999999ADDGA1071+003661991GE19MSL   +99999+99999GF199999071990003661991991MA1100101999990MW1161REMMET080METAR EDLW 050550Z 27010KT 240V300 9999 VCSH BKN012 07/04 Q1001 RMK      ATIS D=
0153104160999992014010506204+51518+007612FM-15+013099999V0202601N004610054919N009999199+00601+00401999999ADDGA1071+005491991GE19MSL   +99999+99999GF199999071990005491991991MA1100201999990REMMET062METAR EDLW 050620Z 26009KT 9999 BKN018 06/04 Q1002 RMK ATIS E=
0181104160999992014010506504+51518+007612FM-15+013099999V0202601N005110134119N009999199+00601+00401999999ADDGA1021+005491991GA2071+013411991GE19MSL   +99999+99999GF199999021990005491991991MA1100301999990REMMET074METAR EDLW 050650Z 26010KT 9999 FEW018 BKN044 06/04 Q1003 RMK ATIS      F=
0181104160999992014010507204+51518+007612FM-15+013099999V0202501N005110143319N008000199+00601+00401999999ADDGA1041+003351991GA2071+014331991GE19MSL   +99999+99999GF199999041990003351991991MA1100401999990REMMET074METAR EDLW 050720Z 25010KT 8000 SCT011 BKN047 06/04 Q1004 RMK ATIS      G=
0153104160999992014010507504+51518+007612FM-15+013099999V0202401N005719999999N009999199+00601+00301999999ADDGA1041+004271991GE19MSL   +99999+99999GF199999041990004271991991MA1100401999990REMMET062METAR EDLW 050750Z 24011KT 9999 SCT014 06/03 Q1004 RMK ATIS H=
0164104160999992014010508204+51518+007612FM-15+013099999V0202401N006219999999N009000199+00601+00301999999ADDGA1041+003661991GE19MSL   +99999+99999GF199999041990003661991991MA1100501999990MW1161REMMET067METAR EDLW 050820Z 24012KT 9000 VCSH SCT012 06/03 Q1005 RMK ATIS I=
0153104160999992014010508504+51518+007612FM-15+013099999V0202401N006210048819N009999199+00601+00301999999ADDGA1071+004881991GE19MSL   +99999+99999GF199999071990004881991991MA1100501999990REMMET062METAR EDLW 050850Z 24012KT 9999 BKN016 06/03 Q1005 RMK ATIS J=
0153104160999992014010509204+51518+007612FM-15+013099999V0202501N006719999999N009999199+00501+00301999999ADDGA1041+005181991GE19MSL   +99999+99999GF199999041990005181991991MA1100601999990REMMET062METAR EDLW 050920Z 25013KT 9999 SCT017 05/03 Q1006 RMK ATIS K=
0153104160999992014010509504+51518+007612FM-15+013099999V0202401N006210045719N009999199+00601+00301999999ADDGA1071+004571991GE19MSL   +99999+99999GF199999071990004571991991MA1100601999990REMMET062METAR EDLW 050950Z 24012KT 9999 BKN015 06/03 Q1006 RMK ATIS L=
0142104160999992014010510204+51518+007612FM-15+013099999V0202401N005119999999N009999199+00601+00301999999ADDGA1041+004571991GE19MSL   +99999+99999GF199999041990004571991991MA1100701999990REMMET051METAR EDLW 051020Z 24010KT 9999 SCT015 06/03 Q1007=
0153104160999992014010510504+51518+007612FM-15+013099999V0202301N005719999999N009999199+00601+00201999999ADDGA1041+004881991GE19MSL   +99999+99999GF199999041990004881991991MA1100701999990REMMET062METAR EDLW 051050Z 23011KT 9999 SCT016 06/02 Q1007 RMK ATIS N=
0153104160999992014010511204+51518+007612FM-15+013099999V0202201N005119999999N009999199+00701+00301999999ADDGA1021+005491991GE19MSL   +99999+99999GF199999021990005491991991MA1100701999990REMMET062METAR EDLW 051120Z 22010KT 9999 FEW018 07/03 Q1007 RMK ATIS O=
0166104160999992014010511504+51518+007612FM-15+013099999V0202401V006219999999N009999199+00701+00201999999ADDGA1021+006401991GE19MSL   +99999+99999GF199999021990006401991991MA1100701999990REMMET075METAR EDLW 051150Z 24012KT 210V270 9999 FEW021 07/02 Q1007 RMK ATIS      P=
0083104160999992014010512204+51518+007612FM-15+013099999V0202301N006719999999Y999999999+00701+00201999999ADDMA1100701999990REMMET056METAR EDLW 051220Z 23013KT CAVOK 07/02 Q1007 RMK ATIS Q=
0153104160999992014010512504+51518+007612FM-15+013099999V0202401N005719999999N009999199+00701+00201999999ADDGA1041+006711991GE19MSL   +99999+99999GF199999041990006711991991MA1100801999990REMMET062METAR EDLW 051250Z 24011KT 9999 SCT022 07/02 Q1008 RMK ATIS R=
0153104160999992014010513204+51518+007612FM-15+013099999V0202301N007219999999N009999199+00701+00201999999ADDGA1021+006101991GE19MSL   +99999+99999GF199999021990006101991991MA1100801999990REMMET062METAR EDLW 051320Z 23014KT 9999 FEW020 07/02 Q1008 RMK ATIS S=
0153104160999992014010513504+51518+007612FM-15+013099999V0202301N005710076219N009999199+00701+00201999999ADDGA1071+007621991GE19MSL   +99999+99999GF199999071990007621991991MA1100901999990REMMET062METAR EDLW 051350Z 23011KT 9999 BKN025 07/02 Q1009 RMK ATIS T=
0153104160999992014010514204+51518+007612FM-15+013099999V0202301N006719999999N009999199+00701+00201999999ADDGA1021+006711991GE19MSL   +99999+99999GF199999021990006711991991MA1100901999990REMMET062METAR EDLW 051420Z 23013KT 9999 FEW022 07/02 Q1009 RMK ATIS U=
0153104160999992014010514504+51518+007612FM-15+013099999V0202301N004619999999N009999199+00601+00201999999ADDGA1021+007621991GE19MSL   +99999+99999GF199999021990007621991991MA1100901999990REMMET062METAR EDLW 051450Z 23009KT 9999 FEW025 06/02 Q1009 RMK ATIS V=
0083104160999992014010515204+51518+007612FM-15+013099999V0202101N003619999999Y999999999+00601+00101999999ADDMA1101001999990REMMET056METAR EDLW 051520Z 21007KT CAVOK 06/01 Q1010 RMK ATIS W=
0091104160999992014010515504+51518+007612FM-15+013099999V0201901V003119999999Y999999999+00401+00101999999ADDMA1101001999990REMMET064METAR EDLW 051550Z 19006KT 170V230 CAVOK 04/01 Q1010 RMK ATIS X=
0083104160999992014010516204+51518+007612FM-15+013099999V0201801N003119999999Y999999999+00501+00101999999ADDMA1101001999990REMMET056METAR EDLW 051620Z 18006KT CAVOK 05/01 Q1010 RMK ATIS Y=
0083104160999992014010516504+51518+007612FM-15+013099999V0202001N004119999999Y999999999+00501+00101999999ADDMA1101001999990REMMET056METAR EDLW 051650Z 20008KT CAVOK 05/01 Q1010 RMK ATIS Z=
0083104160999992014010517204+51518+007612FM-15+013099999V0202001N003619999999Y999999999+00501+00001999999ADDMA1101001999990REMMET056METAR EDLW 051720Z 20007KT CAVOK 05/00 Q1010 RMK ATIS A=
0083104160999992014010517504+51518+007612FM-15+013099999V0202001N004119999999Y999999999+00401+00001999999ADDMA1101001999990REMMET056METAR EDLW 051750Z 20008KT CAVOK 04/00 Q1010 RMK ATIS B=
0084104160999992014010518204+51518+007612FM-15+013099999V0201901N004619999999Y999999999+00501+00001999999ADDMA1100901999990REMMET057METAR EDLW 051820Z 19009KT CAVOK 05/M00 Q1009 RMK ATIS C=
0084104160999992014010518504+51518+007612FM-15+013099999V0201801N004619999999Y999999999+00501+00001999999ADDMA1100901999990REMMET057METAR EDLW 051850Z 18009KT CAVOK 05/M00 Q1009 RMK ATIS D=
0084104160999992014010519204+51518+007612FM-15+013099999V0201901N004619999999Y999999999+00501+00001999999ADDMA1100901999990REMMET057METAR EDLW 051920Z 19009KT CAVOK 05/M00 Q1009 RMK ATIS E=
0084104160999992014010519504+51518+007612FM-15+013099999V0201901N004619999999Y999999999+00501+00001999999ADDMA1100901999990REMMET057METAR EDLW 051950Z 19009KT CAVOK 05/M00 Q1009 RMK ATIS F=
0073104160999992014010520204+51518+007612FM-15+013099999V0201901N005119999999Y999999999+00501+00001999999ADDMA1100901999990REMMET046METAR EDLW 052020Z 19010KT CAVOK 05/M00 Q1009=
0083104160999992014010520504+51518+007612FM-15+013099999V0201901N006719999999Y999999999+00501+00001999999ADDMA1100901999990REMMET056METAR EDLW 052050Z 19013KT CAVOK 05/00 Q1009 RMK ATIS H=
0083104160999992014010604204+51518+007612FM-15+013099999V0201901N010319999999Y999999999+00801+00301999999ADDMA1100401999990REMMET056METAR EDLW 060420Z 19020KT CAVOK 08/03 Q1004 RMK ATIS A=
0164104160999992014010604504+51518+007612FM-15+013099999V0201901N008819999999N009999199+00801+00301999999ADDGA1041+010061991GE19MSL   +99999+99999GF199999041990010061991991MA1100401999990OC101441REMMET065METAR EDLW 060450Z 19017G28KT 9999 SCT033 08/03 Q1004 RMK ATIS B=
0176104160999992014010605204+51518+007612FM-15+013099999V0202001N009810103619N009999199+00801+00401999999ADDGA1021+008231991GA2071+010361991GE19MSL   +99999+99999GF199999021990008231991991MA1100401999990OC101541REMMET061METAR EDLW 060520Z 20019G30KT 9999 FEW027 BKN034 08/04 Q1004=
0164104160999992014010605504+51518+007612FM-15+013099999V0201901N008810070119N009999199+00801+00401999999ADDGA1071+007011991GE19MSL   +99999+99999GF199999071990007011991991MA1100401999990OC101391REMMET065METAR EDLW 060550Z 19017G27KT 9999 BKN023 08/04 Q1004 RMK ATIS D=
0164104160999992014010606204+51518+007612FM-15+013099999V0201901N008810070119N009999199+00901+00401999999ADDGA1071+007011991GE19MSL   +99999+99999GF199999071990007011991991MA1100501999990OC101441REMMET065METAR EDLW 060620Z 19017G28KT 9999 BKN023 09/04 Q1005 RMK ATIS E=
0153104160999992014010606504+51518+007612FM-15+013099999V0202001N009310079219N009999199+00901+00401999999ADDGA1071+007921991GE19MSL   +99999+99999GF199999071990007921991991MA1100401999990REMMET062METAR EDLW 060650Z 20018KT 9999 BKN026 09/04 Q1004 RMK ATIS F=
0153104160999992014010607204+51518+007612FM-15+013099999V0202001N009810064019N009999199+00901+00401999999ADDGA1071+006401991GE19MSL   +99999+99999GF199999071990006401991991MA1100501999990REMMET062METAR EDLW 060720Z 20019KT 9999 BKN021 09/04 Q1005 RMK ATIS G=
0204104160999992014010607504+51518+007612FM-15+013099999V0201901N01031026521CN009999199+00901+00501999999ADDGA1041+007621991GA2041+026521991GE19MSL   +99999+99999GF199999041990007621991991MA1100401999990MW1801OC101601REMMET083METAR EDLW 060750Z 19020G31KT 9999 -SHRA SCT025 SCT087 09/05 Q1004      RMK ATIS H=
0189104160999992014010608204+51518+007612FM-15+013099999V0202001V010310079219N009999199+00801+00501999999ADDGA1071+007921991GE19MSL   +99999+99999GF199999071990007921991991MA1100501999990MW1801OC101651REMMET084METAR EDLW 060820Z 20020G32KT 160V220 9999 -SHRA BKN026 08/05 Q1005      RMK ATIS I=
0163104160999992014010608504+51518+007612FM-15+013099999V0202001N008810082319N009999199+00801+00501999999ADDGA1071+008231991GE19MSL   +99999+99999GF199999071990008231991991MA1100601999990MW1511REMMET066METAR EDLW 060850Z 20017KT 9999 -DZ BKN027 08/05 Q1006 RMK ATIS J=
0153104160999992014010609204+51518+007612FM-15+013099999V0202001N008810079219N009999199+00801+00501999999ADDGA1071+007921991GE19MSL   +99999+99999GF199999071990007921991991MA1100601999990REMMET062METAR EDLW 060920Z 20017KT 9999 BKN026 08/05 Q1006 RMK ATIS K=
0083104160999992014010609504+51518+007612FM-15+013099999V0201901N008819999999Y999999999+00901+00601999999ADDMA1100601999990REMMET056METAR EDLW 060950Z 19017KT CAVOK 09/06 Q1006 RMK ATIS L=
0083104160999992014010610204+51518+007612FM-15+013099999V0202001N009319999999Y999999999+00901+00601999999ADDMA1100601999990REMMET056METAR EDLW 061020Z 20018KT CAVOK 09/06 Q1006 RMK ATIS M=
0083104160999992014010610504+51518+007612FM-15+013099999V0202001N008219999999Y999999999+01001+00601999999ADDMA1100501999990REMMET056METAR EDLW 061050Z 20016KT CAVOK 10/06 Q1005 RMK ATIS N=
0153104160999992014010611204+51518+007612FM-15+013099999V0202001N009810085319N009999199+01001+00601999999ADDGA1071+008531991GE19MSL   +99999+99999GF199999071990008531991991MA1100601999990REMMET062METAR EDLW 061120Z 20019KT 9999 BKN028 10/06 Q1006 RMK ATIS O=
0153104160999992014010611504+51518+007612FM-15+013099999V0202001N008810085319N009999199+01001+00701999999ADDGA1071+008531991GE19MSL   +99999+99999GF199999071990008531991991MA1100601999990REMMET062METAR EDLW 061150Z 20017KT 9999 BKN028 10/07 Q1006 RMK ATIS P=
0165104160999992014010612204+51518+007612FM-15+013099999V0202001N008210091419N009000199+01101+00701999999ADDGA1071+009141991GE19MSL   +99999+99999GF199999071990009141991991MA1100601999990MW1801REMMET068METAR EDLW 061220Z 20016KT 9000 -SHRA BKN030 11/07 Q1006 RMK ATIS Q=
0153104160999992014010612504+51518+007612FM-15+013099999V0201901N007719999999N009999199+01101+00801999999ADDGA1041+009751991GE19MSL   +99999+99999GF199999041990009751991991MA1100501999990REMMET062METAR EDLW 061250Z 19015KT 9999 SCT032 11/08 Q1005 RMK ATIS R=
0153104160999992014010613204+51518+007612FM-15+013099999V0202001N007719999999N009999199+01101+00801999999ADDGA1021+009751991GE19MSL   +99999+99999GF199999021990009751991991MA1100501999990REMMET062METAR EDLW 061320Z 20015KT 9999 FEW032 11/08 Q1005 RMK ATIS S=
0153104160999992014010613504+51518+007612FM-15+013099999V0201901N006219999999N009999199+01101+00701999999ADDGA1041+011281991GE19MSL   +99999+99999GF199999041990011281991991MA1100501999990REMMET062METAR EDLW 061350Z 19012KT 9999 SCT037 11/07 Q1005 RMK ATIS T=
0142104160999992014010614204+51518+007612FM-15+013099999V0201901N006710137219N009999199+01101+00701999999ADDGA1071+013721991GE19MSL   +99999+99999GF199999071990013721991991MA1100501999990REMMET051METAR EDLW 061420Z 19013KT 9999 BKN045 11/07 Q1005=
0181104160999992014010614504+51518+007612FM-15+013099999V0201901N008210228619N009999199+01201+00701999999ADDGA1021+013411991GA2071+022861991GE19MSL   +99999+99999GF199999021990013411991991MA1100501999990REMMET074METAR EDLW 061450Z 19016KT 9999 FEW044 BKN075 12/07 Q1005 RMK ATIS      V=
0094104160999992014010615204+51518+007612FM-15+013099999V0201901N008819999999Y999999999+01101+00701999999ADDMA1100501999990OC101391REMMET059METAR EDLW 061520Z 19017G27KT CAVOK 11/07 Q1005 RMK ATIS W=
0094104160999992014010615504+51518+007612FM-15+013099999V0201901N008219999999Y999999999+01201+00701999999ADDMA1100501999990OC101391REMMET059METAR EDLW 061550Z 19016G27KT CAVOK 12/07 Q1005 RMK ATIS X=
0083104160999992014010616204+51518+007612FM-15+013099999V0201901N008819999999Y999999999+01201+00701999999ADDMA1100501999990REMMET056METAR EDLW 061620Z 19017KT CAVOK 12/07 Q1005 RMK ATIS Y=
0094104160999992014010616504+51518+007612FM-15+013099999V0201901N007719999999Y999999999+01101+00701999999ADDMA1100501999990OC101291REMMET059METAR EDLW 061650Z 19015G25KT CAVOK 11/07 Q1005 RMK ATIS Z=
0165104160999992014010617204+51518+007612FM-15+013099999V0201801N008819999999N009999199+01101+00701999999ADDGA1041+014631991GE19MSL   +99999+99999GF199999041990014631991991MA1100501999990MW1801REMMET068METAR EDLW 061720Z 18017KT 9999 -SHRA SCT048 11/07 Q1005 RMK ATIS A=
0163104160999992014010617504+51518+007612FM-15+013099999V0201801N008210149419N009999199+01101+00701999999ADDGA1071+014941991GE19MSL   +99999+99999GF199999071990014941991991MA1100401999990MW1511REMMET066METAR EDLW 061750Z 18016KT 9999 -DZ BKN049 11/07 Q1004 RMK ATIS B=
0163104160999992014010618204+51518+007612FM-15+013099999V0201901N008810143319N009999199+01101+00701999999ADDGA1071+014331991GE19MSL   +99999+99999GF199999071990014331991991MA1100401999990MW1511REMMET066METAR EDLW 061820Z 19017KT 9999 -DZ BKN047 11/07 Q1004 RMK ATIS C=
0188104160999992014010618504+51518+007612FM-15+013099999V0201901N008810143319N009999199+01001+00701999999ADDGA1021+005181991GA2071+014331991GE19MSL   +99999+99999GF199999021990005181991991MA1100401999990MW1801OC101391REMMET067METAR EDLW 061850Z 19017G27KT 9999 -SHRA FEW017 BKN047 10/07 Q1004=
0188104160999992014010619204+51518+007612FM-15+013099999V0201901N009810167619N009999199+01101+00701999999ADDGA1021+004571991GA2071+016761991GE19MSL   +99999+99999GF199999021990004571991991MA1100401999990MW1801REMMET075METAR EDLW 061920Z 19019KT 9999 -SHRA FEW015 BKN055 11/07 Q1004 RMK      E=
0083104160999992014010619504+51518+007612FM-15+013099999V0201901N008219999999Y999999999+01001+00701999999ADDMA1100401999990REMMET056METAR EDLW 061950Z 19016KT CAVOK 10/07 Q1004 RMK ATIS F=
0083104160999992014010620204+51518+007612FM-15+013099999V0202001N010319999999Y999999999+01001+00701999999ADDMA1100401999990OC101701REMMET048METAR EDLW 062020Z 20020G33KT CAVOK 10/07 Q1004=
0094104160999992014010620504+51518+007612FM-15+013099999V0201901N009319999999Y999999999+01101+00701999999ADDMA1100401999990OC101541REMMET059METAR EDLW 062050Z 19018G30KT CAVOK 11/07 Q1004 RMK ATIS H=
0072104160999992014010704204+51518+007612FM-15+013099999V0202101N006719999999Y999999999+01001+00501999999ADDMA1101001999990REMMET045METAR EDLW 070420Z 21013KT CAVOK 10/05 Q1010=
0153104160999992014010704504+51518+007612FM-15+013099999V0202001N007210143319N009999199+01001+00501999999ADDGA1071+014331991GE19MSL   +99999+99999GF199999071990014331991991MA1101001999990REMMET062METAR EDLW 070450Z 20014KT 9999 BKN047 10/05 Q1010 RMK ATIS B=
0153104160999992014010705204+51518+007612FM-15+013099999V0202101N006710140219N009999199+01001+00501999999ADDGA1071+014021991GE19MSL   +99999+99999GF199999071990014021991991MA1101001999990REMMET062METAR EDLW 070520Z 21013KT 9999 BKN046 10/05 Q1010 RMK ATIS C=
0153104160999992014010705504+51518+007612FM-15+013099999V0202001N007210125019N009999199+01001+00501999999ADDGA1071+012501991GE19MSL   +99999+99999GF199999071990012501991991MA1101001999990REMMET062METAR EDLW 070550Z 20014KT 9999 BKN041 10/05 Q1010 RMK ATIS D=
0153104160999992014010706204+51518+007612FM-15+013099999V0202101N006710115819N009999199+01001+00501999999ADDGA1071+011581991GE19MSL   +99999+99999GF199999071990011581991991MA1101101999990REMMET062METAR EDLW 070620Z 21013KT 9999 BKN038 10/05 Q1011 RMK ATIS E=
0153104160999992014010706504+51518+007612FM-15+013099999V0202001N006210115819N009999199+00901+00501999999ADDGA1071+011581991GE19MSL   +99999+99999GF199999071990011581991991MA1101101999990REMMET062METAR EDLW 070650Z 20012KT 9999 BKN038 09/05 Q1011 RMK ATIS F=
0083104160999992014010707204+51518+007612FM-15+013099999V0202001N006719999999Y999999999+00901+00401999999ADDMA1101101999990REMMET056METAR EDLW 070720Z 20013KT CAVOK 09/04 Q1011 RMK ATIS G=
0083104160999992014010707504+51518+007612FM-15+013099999V0202001N006719999999Y999999999+00901+00401999999ADDMA1101101999990REMMET056METAR EDLW 070750Z 20013KT CAVOK 09/04 Q1011 RMK ATIS H=
0083104160999992014010708204+51518+007612FM-15+013099999V0202001N006719999999Y999999999+00901+00401999999ADDMA1101201999990REMMET056METAR EDLW 070820Z 20013KT CAVOK 09/04 Q1012 RMK ATIS I=
0072104160999992014010708504+51518+007612FM-15+013099999V0202001N007219999999Y999999999+00901+00401999999ADDMA1101201999990REMMET045METAR EDLW 070850Z 20014KT CAVOK 09/04 Q1012=
0091104160999992014010709204+51518+007612FM-15+013099999V0202101V007719999999Y999999999+01001+00401999999ADDMA1101201999990REMMET064METAR EDLW 070920Z 21015KT 170V230 CAVOK 10/04 Q1012 RMK ATIS K=
0072104160999992014010709504+51518+007612FM-15+013099999V0202101N008219999999Y999999999+01001+00401999999ADDMA1101201999990REMMET045METAR EDLW 070950Z 21016KT CAVOK 10/04 Q1012=
0083104160999992014010710204+51518+007612FM-15+013099999V0202101N008819999999Y999999999+01001+00401999999ADDMA1101201999990REMMET056METAR EDLW 071020Z 21017KT CAVOK 10/04 Q1012 RMK ATIS M=
0083104160999992014010710504+51518+007612FM-15+013099999V0202101N008219999999Y999999999+01101+00401999999ADDMA1101201999990REMMET056METAR EDLW 071050Z 21016KT CAVOK 11/04 Q1012 RMK ATIS N=
0094104160999992014010711204+51518+007612FM-15+013099999V0202101N007219999999Y999999999+01101+00401999999ADDMA1101201999990OC101291REMMET059METAR EDLW 071120Z 21014G25KT CAVOK 11/04 Q1012 RMK ATIS O=
0091104160999992014010711504+51518+007612FM-15+013099999V0202101V007719999999Y999999999+01101+00401999999ADDMA1101201999990REMMET064METAR EDLW 071150Z 21015KT 180V240 CAVOK 11/04 Q1012 RMK ATIS P=
0083104160999992014010712204+51518+007612FM-15+013099999V0202101N007719999999Y999999999+01101+00401999999ADDMA1101101999990REMMET056METAR EDLW 071220Z 21015KT CAVOK 11/04 Q1011 RMK ATIS Q=
0083104160999992014010712504+51518+007612FM-15+013099999V0202101N007219999999Y999999999+01201+00401999999ADDMA1101101999990REMMET056METAR EDLW 071250Z 21014KT CAVOK 12/04 Q1011 RMK ATIS R=
0083104160999992014010713204+51518+007612FM-15+013099999V0202101N006219999999Y999999999+01201+00501999999ADDMA1101201999990REMMET056METAR EDLW 071320Z 21012KT CAVOK 12/05 Q1012 RMK ATIS S=
0083104160999992014010713504+51518+007612FM-15+013099999V0202101N006719999999Y999999999+01201+00501999999ADDMA1101201999990REMMET056METAR EDLW 071350Z 21013KT CAVOK 12/05 Q1012 RMK ATIS T=
0083104160999992014010714204+51518+007612FM-15+013099999V0202001N005719999999Y999999999+01201+00501999999ADDMA1101201999990REMMET056METAR EDLW 071420Z 20011KT CAVOK 12/05 Q1012 RMK ATIS U=
0083104160999992014010714504+51518+007612FM-15+013099999V0202001N004619999999Y999999999+01201+00501999999ADDMA1101201999990REMMET056METAR EDLW 071450Z 20009KT CAVOK 12/05 Q1012 RMK ATIS V=
0083104160999992014010715204+51518+007612FM-15+013099999V0202001N005119999999Y999999999+01101+00501999999ADDMA1101201999990REMMET056METAR EDLW 071520Z 20010KT CAVOK 11/05 Q1012 RMK ATIS W=
0083104160999992014010715504+51518+007612FM-15+013099999V0202001N005119999999Y999999999+01201+00501999999ADDMA1101201999990REMMET056METAR EDLW 071550Z 20010KT CAVOK 12/05 Q1012 RMK ATIS X=
0083104160999992014010716204+51518+007612FM-15+013099999V0202001N005719999999Y999999999+01201+00501999999ADDMA1101201999990REMMET056METAR EDLW 071620Z 20011KT CAVOK 12/05 Q1012 RMK ATIS Y=
0083104160999992014010716504+51518+007612FM-15+013099999V0202001N005719999999Y999999999+01201+00501999999ADDMA1101201999990REMMET056METAR EDLW 071650Z 20011KT CAVOK 12/05 Q1012 RMK ATIS Z=
0163104160999992014010717204+51518+007612FM-15+013099999V0202101N005110128019N009999199+01101+00601999999ADDGA1071+012801991GE19MSL   +99999+99999GF199999071990012801991991MA1101201999990MW1611REMMET066METAR EDLW 071720Z 21010KT 9999 -RA BKN042 11/06 Q1012 RMK ATIS A=
0083104160999992014010717504+51518+007612FM-15+013099999V0202001N005719999999Y999999999+01201+00501999999ADDMA1101201999990REMMET056METAR EDLW 071750Z 20011KT CAVOK 12/05 Q1012 RMK ATIS B=
0083104160999992014010718204+51518+007612FM-15+013099999V0202001N006719999999Y999999999+01201+00501999999ADDMA1101201999990REMMET056METAR EDLW 071820Z 20013KT CAVOK 12/05 Q1012 RMK ATIS C=
0083104160999992014010718504+51518+007612FM-15+013099999V0202101N007219999999Y999999999+01101+00601999999ADDMA1101201999990REMMET056METAR EDLW 071850Z 21014KT CAVOK 11/06 Q1012 RMK ATIS D=
0083104160999992014010719204+51518+007612FM-15+013099999V0202001N006719999999Y999999999+01001+00701999999ADDMA1101301999990REMMET056METAR EDLW 071920Z 20013KT CAVOK 10/07 Q1013 RMK ATIS E=
0083104160999992014010719504+51518+007612FM-15+013099999V0202001N006719999999Y999999999+01101+00701999999ADDMA1101201999990REMMET056METAR EDLW 071950Z 20013KT CAVOK 11/07 Q1012 RMK ATIS F=
0072104160999992014010720204+51518+007612FM-15+013099999V0202001N006719999999Y999999999+01001+00601999999ADDMA1101301999990REMMET045METAR EDLW 072020Z 20013KT CAVOK 10/06 Q1013=
0083104160999992014010720504+51518+007612FM-15+013099999V0202101N006219999999Y999999999+01001+00601999999ADDMA1101301999990REMMET056METAR EDLW 072050Z 21012KT CAVOK 10/06 Q1013 RMK ATIS H=
0153104160999992014010804204+51518+007612FM-15+013099999V0202101N009310100619N009999199+01101+00601999999ADDGA1071+010061991GE19MSL   +99999+99999GF199999071990010061991991MA1101101999990REMMET062METAR EDLW 080420Z 21018KT 9999 BKN033 11/06 Q1011 RMK ATIS A=
0164104160999992014010804504+51518+007612FM-15+013099999V0202201N011310121919N009999199+01101+00601999999ADDGA1071+012191991GE19MSL   +99999+99999GF199999071990012191991991MA1101101999990OC101651REMMET065METAR EDLW 080450Z 22022G32KT 9999 BKN040 11/06 Q1011 RMK ATIS B=
0163104160999992014010805204+51518+007612FM-15+013099999V0202301N009810064019N009999199+01001+00701999999ADDGA1071+006401991GE19MSL   +99999+99999GF199999071990006401991991MA1101201999990MW1611REMMET066METAR EDLW 080520Z 23019KT 9999 -RA BKN021 10/07 Q1012 RMK ATIS C=
0179104160999992014010805504+51518+007612FM-15+013099999V0202501N009310061019N009999199+01001+00701999999ADDGA1071+006101991GE19MSL   +99999+99999GF199999071990006101991991MA1101301999990MW1611OC101441REMMET074METAR EDLW 080550Z 25018G28KT 9999 -RA BKN020 10/07 Q1013 RMK ATIS      D=
0164104160999992014010806204+51518+007612FM-15+013099999V0202501N010310061019N009999199+01001+00601999999ADDGA1071+006101991GE19MSL   +99999+99999GF199999071990006101991991MA1101401999990OC101541REMMET065METAR EDLW 080620Z 25020G30KT 9999 BKN020 10/06 Q1014 RMK ATIS E=
0153104160999992014010806504+51518+007612FM-15+013099999V0202601N009310061019N009999199+01001+00501999999ADDGA1071+006101991GE19MSL   +99999+99999GF199999071990006101991991MA1101501999990OC101541REMMET054METAR EDLW 080650Z 26018G30KT 9999 BKN020 10/05 Q1015=
0153104160999992014010807204+51518+007612FM-15+013099999V0202501N007719999999N009999199+00901+00501999999ADDGA1041+006101991GE19MSL   +99999+99999GF199999041990006101991991MA1101601999990REMMET062METAR EDLW 080720Z 25015KT 9999 SCT020 09/05 Q1016 RMK ATIS G=
0153104160999992014010807504+51518+007612FM-15+013099999V0202401N006210061019N009999199+00901+00501999999ADDGA1071+006101991GE19MSL   +99999+99999GF199999071990006101991991MA1101701999990REMMET062METAR EDLW 080750Z 24012KT 9999 BKN020 09/05 Q1017 RMK ATIS H=
0153104160999992014010808204+51518+007612FM-15+013099999V0202401N006719999999N009999199+00901+00501999999ADDGA1041+006101991GE19MSL   +99999+99999GF199999041990006101991991MA1101701999990REMMET062METAR EDLW 080820Z 24013KT 9999 SCT020 09/05 Q1017 RMK ATIS I=
0153104160999992014010808504+51518+007612FM-15+013099999V0202401N006710061019N009999199+00901+00501999999ADDGA1071+006101991GE19MSL   +99999+99999GF199999071990006101991991MA1101801999990REMMET062METAR EDLW 080850Z 24013KT 9999 BKN020 09/05 Q1018 RMK ATIS J=
0153104160999992014010809204+51518+007612FM-15+013099999V0202301N008210064019N009999199+00901+00501999999ADDGA1071+006401991GE19MSL   +99999+99999GF199999071990006401991991MA1101801999990REMMET062METAR EDLW 080920Z 23016KT 9999 BKN021 09/05 Q1018 RMK ATIS K=
0153104160999992014010809504+51518+007612FM-15+013099999V0202301N008810057919N009999199+00901+00501999999ADDGA1071+005791991GE19MSL   +99999+99999GF199999071990005791991991MA1101801999990REMMET062METAR EDLW 080950Z 23017KT 9999 BKN019 09/05 Q1018 RMK ATIS L=
0153104160999992014010810204+51518+007612FM-15+013099999V0202301N008810061019N009999199+00901+00501999999ADDGA1071+006101991GE19MSL   +99999+99999GF199999071990006101991991MA1101801999990REMMET062METAR EDLW 081020Z 23017KT 9999 BKN020 09/05 Q1018 RMK ATIS M=
0153104160999992014010810504+51518+007612FM-15+013099999V0202401N008810064019N009999199+01001+00501999999ADDGA1071+006401991GE19MSL   +99999+99999GF199999071990006401991991MA1101801999990REMMET062METAR EDLW 081050Z 24017KT 9999 BKN021 10/05 Q1018 RMK ATIS N=
0166104160999992014010811204+51518+007612FM-15+013099999V0202401V007210064019N009999199+01001+00501999999ADDGA1071+006401991GE19MSL   +99999+99999GF199999071990006401991991MA1101801999990REMMET075METAR EDLW 081120Z 24014KT 210V270 9999 BKN021 10/05 Q1018 RMK ATIS      O=
0164104160999992014010811504+51518+007612FM-15+013099999V0202401N006710067119N009999199+01001+00501999999ADDGA1071+006711991GE19MSL   +99999+99999GF199999071990006711991991MA1101801999990OC101181REMMET065METAR EDLW 081150Z 24013G23KT 9999 BKN022 10/05 Q1018 RMK ATIS P=
0153104160999992014010812204+51518+007612FM-15+013099999V0202401N008210085319N009999199+01001+00401999999ADDGA1071+008531991GE19MSL   +99999+99999GF199999071990008531991991MA1101801999990REMMET062METAR EDLW 081220Z 24016KT 9999 BKN028 10/04 Q1018 RMK ATIS Q=
0153104160999992014010812504+51518+007612FM-15+013099999V0202401N008810085319N009999199+01001+00401999999ADDGA1071+008531991GE19MSL   +99999+99999GF199999071990008531991991MA1101801999990REMMET062METAR EDLW 081250Z 24017KT 9999 BKN028 10/04 Q1018 RMK ATIS R=
0153104160999992014010813204+51518+007612FM-15+013099999V0202401N007719999999N009999199+01001+00501999999ADDGA1041+007621991GE19MSL   +99999+99999GF199999041990007621991991MA1101801999990REMMET062METAR EDLW 081320Z 24015KT 9999 SCT025 10/05 Q1018 RMK ATIS S=
0153104160999992014010813504+51518+007612FM-15+013099999V0202401N004619999999N009999199+01101+00501999999ADDGA1041+007621991GE19MSL   +99999+99999GF199999041990007621991991MA1101801999990REMMET062METAR EDLW 081350Z 24009KT 9999 SCT025 11/05 Q1018 RMK ATIS T=
0153104160999992014010814204+51518+007612FM-15+013099999V0202401N007219999999N009999199+01101+00501999999ADDGA1041+009141991GE19MSL   +99999+99999GF199999041990009141991991MA1101801999990REMMET062METAR EDLW 081420Z 24014KT 9999 SCT030 11/05 Q1018 RMK ATIS U=
0142104160999992014010814504+51518+007612FM-15+013099999V0202301N006710100619N009999199+01101+00501999999ADDGA1071+010061991GE19MSL   +99999+99999GF199999071990010061991991MA1101801999990REMMET051METAR EDLW 081450Z 23013KT 9999 BKN033 11/05 Q1018=
0153104160999992014010815204+51518+007612FM-15+013099999V0202401N004610091419N009999199+01001+00501999999ADDGA1071+009141991GE19MSL   +99999+99999GF199999071990009141991991MA1101801999990REMMET062METAR EDLW 081520Z 24009KT 9999 BKN030 10/05 Q1018 RMK ATIS W=
0153104160999992014010815504+51518+007612FM-15+013099999V0202301N005110097519N009999199+01001+00501999999ADDGA1071+009751991GE19MSL   +99999+99999GF199999071990009751991991MA1101801999990REMMET062METAR EDLW 081550Z 23010KT 9999 BKN032 10/05 Q1018 RMK ATIS X=
0083104160999992014010816204+51518+007612FM-15+013099999V0202301N004119999999Y999999999+00901+00401999999ADDMA1101801999990REMMET056METAR EDLW 081620Z 23008KT CAVOK 09/04 Q1018 RMK ATIS Y=
0083104160999992014010816504+51518+007612FM-15+013099999V0202101N003619999999Y999999999+00901+00401999999ADDMA1101801999990REMMET056METAR EDLW 081650Z 21007KT CAVOK 09/04 Q1018 RMK ATIS Z=
0083104160999992014010817204+51518+007612FM-15+013099999V0202001N003619999999Y999999999+00801+00401999999ADDMA1101801999990REMMET056METAR EDLW 081720Z 20007KT CAVOK 08/04 Q1018 RMK ATIS A=
0083104160999992014010817504+51518+007612FM-15+013099999V0202101N004119999999Y999999999+00801+00401999999ADDMA1101801999990REMMET056METAR EDLW 081750Z 21008KT CAVOK 08/04 Q1018 RMK ATIS B=
0083104160999992014010818204+51518+007612FM-15+013099999V0201901N003619999999Y999999999+00701+00301999999ADDMA1101701999990REMMET056METAR EDLW 081820Z 19007KT CAVOK 07/03 Q1017 RMK ATIS C=
0072104160999992014010818504+51518+007612FM-15+013099999V0202001N003619999999Y999999999+00701+00401999999ADDMA1101701999990REMMET045METAR EDLW 081850Z 20007KT CAVOK 07/04 Q1017=
0083104160999992014010819204+51518+007612FM-15+013099999V0201801N002619999999Y999999999+00601+00301999999ADDMA1101701999990REMMET056METAR EDLW 081920Z 18005KT CAVOK 06/03 Q1017 RMK ATIS E=
0072104160999992014010819504+51518+007612FM-15+013099999V0202001N004619999999Y999999999+00701+00401999999ADDMA1101701999990REMMET045METAR EDLW 081950Z 20009KT CAVOK 07/04 Q1017=
0083104160999992014010820204+51518+007612FM-15+013099999V0202001N005119999999Y999999999+00801+00401999999ADDMA1101701999990REMMET056METAR EDLW 082020Z 20010KT CAVOK 08/04 Q1017 RMK ATIS G=
0122104160999992014010904204+51518+007612FM-15+013099999V0202001N006212200019N009999199+01001+00801999999ADDGF100991999999999999999999MA1100901999990MW1611REMMET063METAR EDLW 090420Z 20012KT 9999 -RA NSC 10/08 Q1009 RMK ATIS A=
0163104160999992014010904504+51518+007612FM-15+013099999V0201801N005710149419N009999199+01001+00801999999ADDGA1071+014941991GE19MSL   +99999+99999GF199999071990014941991991MA1100901999990MW1611REMMET066METAR EDLW 090450Z 18011KT 9999 -RA BKN049 10/08 Q1009 RMK ATIS B=
0083104160999992014010905204+51518+007612FM-15+013099999V0201801N005119999999Y999999999+01001+00701999999ADDMA1100801999990REMMET056METAR EDLW 090520Z 18010KT CAVOK 10/07 Q1008 RMK ATIS C=
0083104160999992014010905504+51518+007612FM-15+013099999V0201901N006719999999Y999999999+01001+00701999999ADDMA1100701999990REMMET056METAR EDLW 090550Z 19013KT CAVOK 10/07 Q1007 RMK ATIS D=
0083104160999992014010906204+51518+007612FM-15+013099999V0202001N007219999999Y999999999+01001+00701999999ADDMA1100701999990REMMET056METAR EDLW 090620Z 20014KT CAVOK 10/07 Q1007 RMK ATIS E=
0083104160999992014010906504+51518+007612FM-15+013099999V0202001N007719999999Y999999999+01001+00701999999ADDMA1100601999990REMMET056METAR EDLW 090650Z 20015KT CAVOK 10/07 Q1006 RMK ATIS F=
0083104160999992014010907204+51518+007612FM-15+013099999V0202001N007719999999Y999999999+01001+00701999999ADDMA1100601999990REMMET056METAR EDLW 090720Z 20015KT CAVOK 10/07 Q1006 RMK ATIS G=
0072104160999992014010907504+51518+007612FM-15+013099999V0202001N008819999999Y999999999+01001+00601999999ADDMA1100601999990REMMET045METAR EDLW 090750Z 20017KT CAVOK 10/06 Q1006=
0072104160999992014010908204+51518+007612FM-15+013099999V0201901N010319999999Y999999999+01101+00601999999ADDMA1100501999990REMMET045METAR EDLW 090820Z 19020KT CAVOK 11/06 Q1005=
0083104160999992014010908504+51518+007612FM-15+013099999V0202001N009819999999Y999999999+01101+00601999999ADDMA1100501999990REMMET056METAR EDLW 090850Z 20019KT CAVOK 11/06 Q1005 RMK ATIS J=
0153104160999992014010909204+51518+007612FM-15+013099999V0202101N010310121919N009999199+01101+00601999999ADDGA1071+012191991GE19MSL   +99999+99999GF199999071990012191991991MA1100501999990REMMET062METAR EDLW 090920Z 21020KT 9999 BKN040 11/06 Q1005 RMK ATIS K=
0142104160999992014010909504+51518+007612FM-15+013099999V0202101N009810091419N009999199+01201+00601999999ADDGA1071+009141991GE19MSL   +99999+99999GF199999071990009141991991MA1100501999990REMMET051METAR EDLW 090950Z 21019KT 9999 BKN030 12/06 Q1005=
0153104160999992014010910204+51518+007612FM-15+013099999V0202101N007710097519N009999199+01201+00601999999ADDGA1071+009751991GE19MSL   +99999+99999GF199999071990009751991991MA1100501999990REMMET062METAR EDLW 091020Z 21015KT 9999 BKN032 12/06 Q1005 RMK ATIS M=
0195104160999992014010910504+51518+007612FM-15+013099999V0202101N008810100619N008000199+01101+00701999999ADDGA1021+003351991GA2071+010061991GE19MSL   +99999+99999GF199999021990003351991991MA1100501999990MW1611REMMET082METAR COR EDLW 091050Z 21017KT 8000 -RA FEW011 BKN033 11/07 Q1005 RMK      ATIS N=
0191104160999992014010911204+51518+007612FM-15+013099999V0202101N008210094519N006000199+01001+00801999999ADDGA1021+003051991GA2071+009451991GE19MSL   +99999+99999GF199999021990003051991991MA1100501999990MW1611REMMET078METAR EDLW 091120Z 21016KT 6000 -RA FEW010 BKN031 10/08 Q1005 RMK ATIS      O=
0153104160999992014010911504+51518+007612FM-15+013099999V0202101N007710094519N009999199+01001+00801999999ADDGA1071+009451991GE19MSL   +99999+99999GF199999071990009451991991MA1100401999990REMMET062METAR EDLW 091150Z 21015KT 9999 BKN031 10/08 Q1004 RMK ATIS P=
0177104160999992014010912204+51518+007612FM-15+013099999V0202201V008210073219N009999199+01101+00801999999ADDGA1071+007321991GE19MSL   +99999+99999GF199999071990007321991991MA1100401999990OC101391REMMET078METAR EDLW 091220Z 22016G27KT 190V250 9999 BKN024 11/08 Q1004 RMK ATIS      Q=
0179104160999992014010912504+51518+007612FM-15+013099999V0202301N009810088419N009999199+01101+00701999999ADDGA1071+008841991GE19MSL   +99999+99999GF199999071990008841991991MA1100301999990MW1611OC101491REMMET074METAR EDLW 091250Z 23019G29KT 9999 -RA BKN029 11/07 Q1003 RMK ATIS      R=
0153104160999992014010913204+51518+007612FM-15+013099999V0202301N010310091419N009999199+01101+00601999999ADDGA1071+009141991GE19MSL   +99999+99999GF199999071990009141991991MA1100301999990REMMET062METAR EDLW 091320Z 23020KT 9999 BKN030 11/06 Q1003 RMK ATIS S=
0153104160999992014010913504+51518+007612FM-15+013099999V0202301N011310115819N009999199+01101+00501999999ADDGA1071+011581991GE19MSL   +99999+99999GF199999071990011581991991MA1100301999990OC101751REMMET054METAR EDLW 091350Z 23022G34KT 9999 BKN038 11/05 Q1003=
0181104160999992014010914204+51518+007612FM-15+013099999V0202301N012910091419N009999199+01101+00501999999ADDGA1071+009141991GA2071+012191991GE19MSL   +99999+99999GF199999071990009141991991MA1100201999990REMMET074METAR EDLW 091420Z 23025KT 9999 BKN030 BKN040 11/05 Q1002 RMK ATIS      U=
0176104160999992014010914504+51518+007612FM-15+013099999V0202301N011810097519N009999199+01101+00501999999ADDGA1071+009751991GA2071+012191991GE19MSL   +99999+99999GF199999071990009751991991MA1100201999990MW1161REMMET063METAR EDLW 091450Z 23023KT 9999 VCSH BKN032 BKN040 11/05 Q1002=
0164104160999992014010915204+51518+007612FM-15+013099999V0202301N011310097519N009999199+01101+00501999999ADDGA1071+009751991GE19MSL   +99999+99999GF199999071990009751991991MA1100201999990OC101651REMMET065METAR EDLW 091520Z 23022G32KT 9999 BKN032 11/05 Q1002 RMK ATIS W=
0164104160999992014010915504+51518+007612FM-15+013099999V0202301N012910094519N009999199+01101+00401999999ADDGA1071+009451991GE19MSL   +99999+99999GF199999071990009451991991MA1100201999990OC101801REMMET065METAR EDLW 091550Z 23025G35KT 9999 BKN031 11/04 Q1002 RMK ATIS X=
0153104160999992014010916204+51518+007612FM-15+013099999V0202401N010810088419N009999199+01101+00401999999ADDGA1071+008841991GE19MSL   +99999+99999GF199999071990008841991991MA1100301999990REMMET062METAR EDLW 091620Z 24021KT 9999 BKN029 11/04 Q1003 RMK ATIS Y=
0179104160999992014010916504+51518+007612FM-15+013099999V0202501N009810085319N009999199+01001+00501999999ADDGA1071+008531991GE19MSL   +99999+99999GF199999071990008531991991MA1100301999990MW1611OC101651REMMET074METAR EDLW 091650Z 25019G32KT 9999 -RA BKN028 10/05 Q1003 RMK ATIS      Z=
0192104160999992014010917204+51518+007612FM-15+013099999V0202601N009810103619N009999199+00801+00501999999ADDGA1021+003351991GA2071+010361991GE19MSL   +99999+99999GF199999021990003351991991MA1100401999990OC101601REMMET077METAR EDLW 091720Z 26019G31KT 9999 FEW011 BKN034 08/05 Q1004 RMK ATIS      A=
0187104160999992014010917504+51518+007612FM-15+013099999V0202601V008810036619N009999199+00801+00401999999ADDGA1071+003661991GE19MSL   +99999+99999GF199999071990003661991991MA1100501999990MW1611OC101491REMMET082METAR EDLW 091750Z 26017G29KT 230V300 9999 -RA BKN012 08/04 Q1005 RMK      ATIS B=
0177104160999992014010918204+51518+007612FM-15+013099999V0202701V008210121919N009999199+00701+00301999999ADDGA1071+012191991GE19MSL   +99999+99999GF199999071990012191991991MA1100501999990OC101441REMMET078METAR EDLW 091820Z 27016G28KT 240V300 9999 BKN040 07/03 Q1005 RMK ATIS      C=
0165104160999992014010918504+51518+007612FM-15+013099999V0202601N008210076219N009999199+00701+00301999999ADDGA1071+007621991GE19MSL   +99999+99999GF199999071990007621991991MA1100601999990MW1801REMMET068METAR EDLW 091850Z 26016KT 9999 -SHRA BKN025 07/03 Q1006 RMK ATIS D=
0153104160999992014010919204+51518+007612FM-15+013099999V0202501N008210054919N009999199+00701+00301999999ADDGA1071+005491991GE19MSL   +99999+99999GF199999071990005491991991MA1100701999990REMMET062METAR EDLW 091920Z 25016KT 9999 BKN018 07/03 Q1007 RMK ATIS E=
0153104160999992014010919504+51518+007612FM-15+013099999V0202501N007210048819N009999199+00701+00401999999ADDGA1071+004881991GE19MSL   +99999+99999GF199999071990004881991991MA1100801999990REMMET062METAR EDLW 091950Z 25014KT 9999 BKN016 07/04 Q1008 RMK ATIS F=
0178104160999992014010920204+51518+007612FM-15+013099999V0202601V007210054919N009999199+00601+00301999999ADDGA1071+005491991GE19MSL   +99999+99999GF199999071990005491991991MA1100801999990MW1801REMMET081METAR EDLW 092020Z 26014KT 240V300 9999 -SHRA BKN018 06/03 Q1008 RMK      ATIS G=
0177104160999992014010920504+51518+007612FM-15+013099999V0202601V006210054919N009999199+00601+00301999999ADDGA1071+005491991GE19MSL   +99999+99999GF199999071990005491991991MA1100901999990OC101131REMMET078METAR EDLW 092050Z 26012G22KT 230V300 9999 BKN018 06/03 Q1009 RMK ATIS      H=
0153104160999992014011004204+51518+007612FM-15+013099999V0202501N006710061019N009999199+00501+00201999999ADDGA1071+006101991GE19MSL   +99999+99999GF199999071990006101991991MA1101301999990REMMET062METAR EDLW 100420Z 25013KT 9999 BKN020 05/02 Q1013 RMK ATIS A=
0153104160999992014011004504+51518+007612FM-15+013099999V0202501N006210061019N009999199+00501+00201999999ADDGA1071+006101991GE19MSL   +99999+99999GF199999071990006101991991MA1101301999990REMMET062METAR EDLW 100450Z 25012KT 9999 BKN020 05/02 Q1013 RMK ATIS B=
0142104160999992014011005204+51518+007612FM-15+013099999V0202401N007710054919N009999199+00501+00201999999ADDGA1071+005491991GE19MSL   +99999+99999GF199999071990005491991991MA1101301999990REMMET051METAR EDLW 100520Z 24015KT 9999 BKN018 05/02 Q1013=
0153104160999992014011005504+51518+007612FM-15+013099999V0202401N006710054919N009999199+00501+00201999999ADDGA1071+005491991GE19MSL   +99999+99999GF199999071990005491991991MA1101401999990REMMET062METAR EDLW 100550Z 24013KT 9999 BKN018 05/02 Q1014 RMK ATIS D=
0153104160999992014011006204+51518+007612FM-15+013099999V0202401N007219999999N009999199+00501+00201999999ADDGA1041+004271991GE19MSL   +99999+99999GF199999041990004271991991MA1101401999990REMMET062METAR EDLW 100620Z 24014KT 9999 SCT014 05/02 Q1014 RMK ATIS E=
0153104160999992014011006504+51518+007612FM-15+013099999V0202401N006219999999N009999199+00501+00201999999ADDGA1041+005181991GE19MSL   +99999+99999GF199999041990005181991991MA1101401999990REMMET062METAR EDLW 100650Z 24012KT 9999 SCT017 05/02 Q1014 RMK ATIS F=
0153104160999992014011007204+51518+007612FM-15+013099999V0202301N006210048819N009999199+00401+00201999999ADDGA1071+004881991GE19MSL   +99999+99999GF199999071990004881991991MA1101501999990REMMET062METAR EDLW 100720Z 23012KT 9999 BKN016 04/02 Q1015 RMK ATIS G=
0153104160999992014011007504+51518+007612FM-15+013099999V0202301N006710045719N009999199+00501+00201999999ADDGA1071+004571991GE19MSL   +99999+99999GF199999071990004571991991MA1101501999990REMMET062METAR EDLW 100750Z 23013KT 9999 BKN015 05/02 Q1015 RMK ATIS H=
0153104160999992014011008204+51518+007612FM-15+013099999V0202401N007219999999N009999199+00501+00201999999ADDGA1041+004881991GE19MSL   +99999+99999GF199999041990004881991991MA1101501999990REMMET062METAR EDLW 100820Z 24014KT 9999 SCT016 05/02 Q1015 RMK ATIS I=
0153104160999992014011008504+51518+007612FM-15+013099999V0202401N006219999999N009999199+00501+00201999999ADDGA1041+003961991GE19MSL   +99999+99999GF199999041990003961991991MA1101601999990REMMET062METAR EDLW 100850Z 24012KT 9999 SCT013 05/02 Q1016 RMK ATIS J=
0153104160999992014011009204+51518+007612FM-15+013099999V0202401N006719999999N009999199+00501+00201999999ADDGA1041+003961991GE19MSL   +99999+99999GF199999041990003961991991MA1101601999990REMMET062METAR EDLW 100920Z 24013KT 9999 SCT013 05/02 Q1016 RMK ATIS K=
0153104160999992014011009504+51518+007612FM-15+013099999V0202401N006710045719N009999199+00601+00301999999ADDGA1071+004571991GE19MSL   +99999+99999GF199999071990004571991991MA1101601999990REMMET062METAR EDLW 100950Z 24013KT 9999 BKN015 06/03 Q1016 RMK ATIS L=
0166104160999992014011010204+51518+007612FM-15+013099999V0202401V006210045719N009999199+00601+00301999999ADDGA1071+004571991GE19MSL   +99999+99999GF199999071990004571991991MA1101601999990REMMET075METAR EDLW 101020Z 24012KT 220V280 9999 BKN015 06/03 Q1016 RMK ATIS      M=
0153104160999992014011010504+51518+007612FM-15+013099999V0202501N007210048819N009999199+00601+00301999999ADDGA1071+004881991GE19MSL   +99999+99999GF199999071990004881991991MA1101601999990REMMET062METAR EDLW 101050Z 25014KT 9999 BKN016 06/03 Q1016 RMK ATIS N=
0153104160999992014011011204+51518+007612FM-15+013099999V0202501N006210054919N009999199+00601+00301999999ADDGA1071+005491991GE19MSL   +99999+99999GF199999071990005491991991MA1101601999990REMMET062METAR EDLW 101120Z 25012KT 9999 BKN018 06/03 Q1016 RMK ATIS O=
0153104160999992014011011504+51518+007612FM-15+013099999V0202401N007210061019N009999199+00701+00301999999ADDGA1071+006101991GE19MSL   +99999+99999GF199999071990006101991991MA1101601999990REMMET062METAR EDLW 101150Z 24014KT 9999 BKN020 07/03 Q1016 RMK ATIS P=
0153104160999992014011012204+51518+007612FM-15+013099999V0202401N007210061019N009999199+00701+00201999999ADDGA1071+006101991GE19MSL   +99999+99999GF199999071990006101991991MA1101601999990REMMET062METAR EDLW 101220Z 24014KT 9999 BKN020 07/02 Q1016 RMK ATIS Q=
0153104160999992014011012504+51518+007612FM-15+013099999V0202401N007219999999N009999199+00701+00201999999ADDGA1041+009141991GE19MSL   +99999+99999GF199999041990009141991991MA1101501999990REMMET062METAR EDLW 101250Z 24014KT 9999 SCT030 07/02 Q1015 RMK ATIS R=
0153104160999992014011013204+51518+007612FM-15+013099999V0202501N007219999999N009999199+00801+00201999999ADDGA1041+009751991GE19MSL   +99999+99999GF199999041990009751991991MA1101501999990REMMET062METAR EDLW 101320Z 25014KT 9999 SCT032 08/02 Q1015 RMK ATIS S=
0153104160999992014011013504+51518+007612FM-15+013099999V0202401N007719999999N009999199+00801+00201999999ADDGA1041+009751991GE19MSL   +99999+99999GF199999041990009751991991MA1101601999990REMMET062METAR EDLW 101350Z 24015KT 9999 SCT032 08/02 Q1016 RMK ATIS T=
0153104160999992014011014204+51518+007612FM-15+013099999V0202401N006719999999N009999199+00701+00201999999ADDGA1041+008841991GE19MSL   +99999+99999GF199999041990008841991991MA1101601999990REMMET062METAR EDLW 101420Z 24013KT 9999 SCT029 07/02 Q1016 RMK ATIS U=
0142104160999992014011014504+51518+007612FM-15+013099999V0202401N006219999999N009999199+00701+00101999999ADDGA1021+009141991GE19MSL   +99999+99999GF199999021990009141991991MA1101601999990REMMET051METAR EDLW 101450Z 24012KT 9999 FEW030 07/01 Q1016=
0153104160999992014011015204+51518+007612FM-15+013099999V0202401N005119999999N009999199+00601+00101999999ADDGA1041+011581991GE19MSL   +99999+99999GF199999041990011581991991MA1101601999990REMMET062METAR EDLW 101520Z 24010KT 9999 SCT038 06/01 Q1016 RMK ATIS W=
0153104160999992014011015504+51518+007612FM-15+013099999V0202301N005119999999N009999199+00601+00101999999ADDGA1041+010361991GE19MSL   +99999+99999GF199999041990010361991991MA1101601999990REMMET062METAR EDLW 101550Z 23010KT 9999 SCT034 06/01 Q1016 RMK ATIS X=
0153104160999992014011016204+51518+007612FM-15+013099999V0202301N005119999999N009999199+00601+00201999999ADDGA1041+012191991GE19MSL   +99999+99999GF199999041990012191991991MA1101601999990REMMET062METAR EDLW 101620Z 23010KT 9999 SCT040 06/02 Q1016 RMK ATIS Y=
0083104160999992014011016504+51518+007612FM-15+013099999V0202301N006219999999Y999999999+00601+00201999999ADDMA1101601999990REMMET056METAR EDLW 101650Z 23012KT CAVOK 06/02 Q1016 RMK ATIS Z=
0083104160999992014011017204+51518+007612FM-15+013099999V0202201N004619999999Y999999999+00501+00201999999ADDMA1101601999990REMMET056METAR EDLW 101720Z 22009KT CAVOK 05/02 Q1016 RMK ATIS A=
0153104160999992014011017504+51518+007612FM-15+013099999V0202201N005110121919N009999199+00501+00201999999ADDGA1071+012191991GE19MSL   +99999+99999GF199999071990012191991991MA1101601999990REMMET062METAR EDLW 101750Z 22010KT 9999 BKN040 05/02 Q1016 RMK ATIS B=
0083104160999992014011018204+51518+007612FM-15+013099999V0202201N005119999999Y999999999+00501+00201999999ADDMA1101601999990REMMET056METAR EDLW 101820Z 22010KT CAVOK 05/02 Q1016 RMK ATIS C=
0083104160999992014011018504+51518+007612FM-15+013099999V0202101N004619999999Y999999999+00501+00201999999ADDMA1101601999990REMMET056METAR EDLW 101850Z 21009KT CAVOK 05/02 Q1016 RMK ATIS D=
0083104160999992014011019204+51518+007612FM-15+013099999V0202001N004119999999Y999999999+00501+00201999999ADDMA1101601999990REMMET056METAR EDLW 101920Z 20008KT CAVOK 05/02 Q1016 RMK ATIS E=
0083104160999992014011019504+51518+007612FM-15+013099999V0202201N004619999999Y999999999+00501+00201999999ADDMA1101601999990REMMET056METAR EDLW 101950Z 22009KT CAVOK 05/02 Q1016 RMK ATIS F=
0083104160999992014011020204+51518+007612FM-15+013099999V0202101N005119999999Y999999999+00501+00201999999ADDMA1101601999990REMMET056METAR EDLW 102020Z 21010KT CAVOK 05/02 Q1016 RMK ATIS G=
0083104160999992014011020504+51518+007612FM-15+013099999V0202201N005119999999Y999999999+00501+00201999999ADDMA1101601999990REMMET056METAR EDLW 102050Z 22010KT CAVOK 05/02 Q1016 RMK ATIS H=
0084104160999992014011104204+51518+007612FM-15+013099999V0201901N005119999999Y999999999+00201-00101999999ADDMA1101501999990REMMET057METAR EDLW 110420Z 19010KT CAVOK 02/M01 Q1015 RMK ATIS A=
0092104160999992014011104504+51518+007612FM-15+013099999V0201901V004619999999Y999999999+00201+00001999999ADDMA1101501999990REMMET065METAR EDLW 110450Z 19009KT 170V230 CAVOK 02/M00 Q1015 RMK ATIS B=
0084104160999992014011105204+51518+007612FM-15+013099999V0201901N005119999999Y999999999+00201-00101999999ADDMA1101501999990REMMET057METAR EDLW 110520Z 19010KT CAVOK 02/M01 Q1015 RMK ATIS C=
0084104160999992014011105504+51518+007612FM-15+013099999V0201901N005719999999Y999999999+00201-00101999999ADDMA1101401999990REMMET057METAR EDLW 110550Z 19011KT CAVOK 02/M01 Q1014 RMK ATIS D=
0084104160999992014011106204+51518+007612FM-15+013099999V0201901N005719999999Y999999999+00201-00101999999ADDMA1101401999990REMMET057METAR EDLW 110620Z 19011KT CAVOK 02/M01 Q1014 RMK ATIS E=
0084104160999992014011106504+51518+007612FM-15+013099999V0201901N005119999999Y999999999+00201+00001999999ADDMA1101401999990REMMET057METAR EDLW 110650Z 19010KT CAVOK 02/M00 Q1014 RMK ATIS F=
0083104160999992014011107204+51518+007612FM-15+013099999V0201901N005719999999Y999999999+00301+00001999999ADDMA1101401999990REMMET056METAR EDLW 110720Z 19011KT CAVOK 03/00 Q1014 RMK ATIS G=
0084104160999992014011107394+51518+007612FM-16+013099999V0201901N005719999999Y999999999+00301+00001999999REMMET056SPECI EDLW 110739Z 19011KT CAVOK 03/00 Q1031 RMK ATIS H=EQDQ011031  3APOA  
0084104160999992014011107504+51518+007612FM-15+013099999V0202001N005719999999Y999999999+00201+00001999999ADDMA1101401999990REMMET057METAR EDLW 110750Z 20011KT CAVOK 02/M00 Q1014 RMK ATIS H=
0083104160999992014011108204+51518+007612FM-15+013099999V0201901N005119999999Y999999999+00301+00001999999ADDMA1101401999990REMMET056METAR EDLW 110820Z 19010KT CAVOK 03/00 Q1014 RMK ATIS I=
0083104160999992014011108504+51518+007612FM-15+013099999V0201901N005719999999Y999999999+00301+00101999999ADDMA1101401999990REMMET056METAR EDLW 110850Z 19011KT CAVOK 03/01 Q1014 RMK ATIS J=
0083104160999992014011109204+51518+007612FM-15+013099999V0202001N006719999999Y999999999+00401+00201999999ADDMA1101401999990REMMET056METAR EDLW 110920Z 20013KT CAVOK 04/02 Q1014 RMK ATIS K=
0083104160999992014011109504+51518+007612FM-15+013099999V0202101N006219999999Y999999999+00501+00201999999ADDMA1101401999990REMMET056METAR EDLW 110950Z 21012KT CAVOK 05/02 Q1014 RMK ATIS L=
0072104160999992014011110204+51518+007612FM-15+013099999V0202101N006219999999Y999999999+00601+00201999999ADDMA1101501999990REMMET045METAR EDLW 111020Z 21012KT CAVOK 06/02 Q1015=
0083104160999992014011110504+51518+007612FM-15+013099999V0202301N006719999999Y999999999+00601+00301999999ADDMA1101401999990REMMET056METAR EDLW 111050Z 23013KT CAVOK 06/03 Q1014 RMK ATIS N=
0083104160999992014011111204+51518+007612FM-15+013099999V0202301N008819999999Y999999999+00701+00301999999ADDMA1101401999990REMMET056METAR EDLW 111120Z 23017KT CAVOK 07/03 Q1014 RMK ATIS O=
0083104160999992014011111504+51518+007612FM-15+013099999V0202301N007219999999Y999999999+00801+00301999999ADDMA1101401999990REMMET056METAR EDLW 111150Z 23014KT CAVOK 08/03 Q1014 RMK ATIS E=
0083104160999992014011112204+51518+007612FM-15+013099999V0202301N008219999999Y999999999+00801+00201999999ADDMA1101301999990REMMET056METAR EDLW 111220Z 23016KT CAVOK 08/02 Q1013 RMK ATIS F=
0094104160999992014011112504+51518+007612FM-15+013099999V0202401N006719999999Y999999999+00801+00201999999ADDMA1101301999990OC101241REMMET059METAR EDLW 111250Z 24013G24KT CAVOK 08/02 Q1013 RMK ATIS G=
0191104160999992014011113204+51518+007612FM-15+013099999V0202401N007710064019N006000199+00801+00301999999ADDGA1041+003051991GA2071+006401991GE19MSL   +99999+99999GF199999041990003051991991MA1101301999990MW1611REMMET078METAR EDLW 111320Z 24015KT 6000 -RA SCT010 BKN021 08/03 Q1013 RMK ATIS      H=
0162104160999992014011113504+51518+007612FM-15+013099999V0202501N006210027419N004000199+00601+00401999999ADDGA1071+002741991GE19MSL   +99999+99999GF199999071990002741991991MA1101301999990MW1631REMMET065METAR EDLW 111350Z 25012KT 4000 RA BKN009 06/04 Q1013 RMK ATIS I=
0177104160999992014011114204+51518+007612FM-15+013099999V0202501N007210030519N004000199+00601+00401999999ADDGA1071+003051991GE19MSL   +99999+99999GF199999071990003051991991MA1101401999990MW1101MW2611REMMET074METAR EDLW 111420Z 25014KT 4000 -RA BR BKN010 06/04 Q1014 RMK ATIS      J=
0177104160999992014011114504+51518+007612FM-15+013099999V0202601V007210033519N007000199+00601+00401999999ADDGA1071+003351991GE19MSL   +99999+99999GF199999071990003351991991MA1101401999990OC101391REMMET078METAR EDLW 111450Z 26014G27KT 220V280 7000 BKN011 06/04 Q1014 RMK ATIS      K=
0166104160999992014011115204+51518+007612FM-15+013099999V0202701V006210036619N009999199+00601+00401999999ADDGA1071+003661991GE19MSL   +99999+99999GF199999071990003661991991MA1101501999990REMMET075METAR EDLW 111520Z 27012KT 240V310 9999 BKN012 06/04 Q1015 RMK ATIS      L=
0179104160999992014011115504+51518+007612FM-15+013099999V0202701N007710036619N009999199+00601+00301999999ADDGA1071+003661991GE19MSL   +99999+99999GF199999071990003661991991MA1101501999990MW1611OC101441REMMET074METAR EDLW 111550Z 27015G28KT 9999 -RA BKN012 06/03 Q1015 RMK ATIS      M=
0177104160999992014011116204+51518+007612FM-15+013099999V0203001V005719999999N009000199+00601+00301999999ADDGA1041+004571991GE19MSL   +99999+99999GF199999041990004571991991MA1101601999990OC101181REMMET078METAR EDLW 111620Z 30011G23KT 260V340 9000 SCT015 06/03 Q1016 RMK ATIS      N=
0166104160999992014011116504+51518+007612FM-15+013099999V0202901V002610067119N009999199+00501+00101999999ADDGA1071+006711991GE19MSL   +99999+99999GF199999071990006711991991MA1101701999990REMMET075METAR EDLW 111650Z 29005KT 230V340 9999 BKN022 05/01 Q1017 RMK ATIS      O=
0166104160999992014011117204+51518+007612FM-15+013099999V0202701V003619999999N009999199+00401+00101999999ADDGA1041+007921991GE19MSL   +99999+99999GF199999041990007921991991MA1101801999990REMMET075METAR EDLW 111720Z 27007KT 230V300 9999 SCT026 04/01 Q1018 RMK ATIS      P=
0153104160999992014011117504+51518+007612FM-15+013099999V0202501N004610079219N009999199+00501+00201999999ADDGA1071+007921991GE19MSL   +99999+99999GF199999071990007921991991MA1101901999990REMMET062METAR EDLW 111750Z 25009KT 9999 BKN026 05/02 Q1019 RMK ATIS Q=
0153104160999992014011118204+51518+007612FM-15+013099999V0202501N005110064019N009999199+00501+00201999999ADDGA1071+006401991GE19MSL   +99999+99999GF199999071990006401991991MA1101901999990REMMET062METAR EDLW 111820Z 25010KT 9999 BKN021 05/02 Q1019 RMK ATIS R=
0142104160999992014011118504+51518+007612FM-15+013099999V0202501N004610091419N009999199+00501+00201999999ADDGA1071+009141991GE19MSL   +99999+99999GF199999071990009141991991MA1101901999990REMMET051METAR EDLW 111850Z 25009KT 9999 BKN030 05/02 Q1019=
0153104160999992014011119204+51518+007612FM-15+013099999V0202501N004610085319N009999199+00501+00201999999ADDGA1071+008531991GE19MSL   +99999+99999GF199999071990008531991991MA1102001999990REMMET062METAR EDLW 111920Z 25009KT 9999 BKN028 05/02 Q1020 RMK ATIS T=
0153104160999992014011119504+51518+007612FM-15+013099999V0202501N004619999999N009999199+00401+00201999999ADDGA1041+008231991GE19MSL   +99999+99999GF199999041990008231991991MA1102001999990REMMET062METAR EDLW 111950Z 25009KT 9999 SCT027 04/02 Q1020 RMK ATIS U=
0153104160999992014011120204+51518+007612FM-15+013099999V0202501N004619999999N009999199+00401+00101999999ADDGA1041+009141991GE19MSL   +99999+99999GF199999041990009141991991MA1102101999990REMMET062METAR EDLW 112020Z 25009KT 9999 SCT030 04/01 Q1021 RMK ATIS V=
0083104160999992014011120504+51518+007612FM-15+013099999V0202401N005119999999Y999999999+00401+00101999999ADDMA1102101999990REMMET056METAR EDLW 112050Z 24010KT CAVOK 04/01 Q1021 RMK ATIS W=
0083104160999992014011204204+51518+007612FM-15+013099999V0202201N004119999999Y999999999+00201+00001999999ADDMA1102401999990REMMET056METAR EDLW 120420Z 22008KT CAVOK 02/00 Q1024 RMK ATIS A=
0083104160999992014011204504+51518+007612FM-15+013099999V0202201N005119999999Y999999999+00101+00001999999ADDMA1102401999990REMMET056METAR EDLW 120450Z 22010KT CAVOK 01/00 Q1024 RMK ATIS B=
0083104160999992014011205204+51518+007612FM-15+013099999V0202201N005119999999Y999999999+00101+00001999999ADDMA1102401999990REMMET056METAR EDLW 120520Z 22010KT CAVOK 01/00 Q1024 RMK ATIS C=
0083104160999992014011205504+51518+007612FM-15+013099999V0202201N005119999999Y999999999+00201+00001999999ADDMA1102401999990REMMET056METAR EDLW 120550Z 22010KT CAVOK 02/00 Q1024 RMK ATIS D=
0084104160999992014011206204+51518+007612FM-15+013099999V0202101N003619999999Y999999999+00101+00001999999ADDMA1102401999990REMMET057METAR EDLW 120620Z 21007KT CAVOK 01/M00 Q1024 RMK ATIS E=
0084104160999992014011206504+51518+007612FM-15+013099999V0202001N003619999999Y999999999+00101+00001999999ADDMA1102401999990REMMET057METAR EDLW 120650Z 20007KT CAVOK 01/M00 Q1024 RMK ATIS F=
0088104160999992014011207204+51518+007612FM-15+013099999V0202001N003619999999Y999999999+00101+00001999999ADDMA1102401999990REMMET061METAR COR EDLW 120720Z 20007KT CAVOK 01/M00 Q1024 RMK ATIS G=
0084104160999992014011207504+51518+007612FM-15+013099999V0201901N003619999999Y999999999+00101-00101999999ADDMA1102401999990REMMET057METAR EDLW 120750Z 19007KT CAVOK 01/M01 Q1024 RMK ATIS H=
0084104160999992014011208204+51518+007612FM-15+013099999V0201901N004119999999Y999999999+00101+00001999999ADDMA1102401999990REMMET057METAR EDLW 120820Z 19008KT CAVOK 01/M00 Q1024 RMK ATIS I=
0072104160999992014011208504+51518+007612FM-15+013099999V0201901N004619999999Y999999999+00101+00001999999ADDMA1102501999990REMMET045METAR EDLW 120850Z 19009KT CAVOK 01/00 Q1025=
0072104160999992014011209204+51518+007612FM-15+013099999V0201901N004619999999Y999999999+00201+00101999999ADDMA1102501999990REMMET045METAR EDLW 120920Z 19009KT CAVOK 02/01 Q1025=
0083104160999992014011209504+51518+007612FM-15+013099999V0202001N004119999999Y999999999+00201+00101999999ADDMA1102501999990REMMET056METAR EDLW 120950Z 20008KT CAVOK 02/01 Q1025 RMK ATIS L=
0083104160999992014011210204+51518+007612FM-15+013099999V0202001N004119999999Y999999999+00301+00101999999ADDMA1102501999990REMMET056METAR EDLW 121020Z 20008KT CAVOK 03/01 Q1025 RMK ATIS M=
0083104160999992014011210504+51518+007612FM-15+013099999V0201901N003119999999Y999999999+00401+00101999999ADDMA1102401999990REMMET056METAR EDLW 121050Z 19006KT CAVOK 04/01 Q1024 RMK ATIS N=
0083104160999992014011211204+51518+007612FM-15+013099999V0202001N003619999999Y999999999+00501+00201999999ADDMA1102401999990REMMET056METAR EDLW 121120Z 20007KT CAVOK 05/02 Q1024 RMK ATIS O=
0083104160999992014011211504+51518+007612FM-15+013099999V0202001N003119999999Y999999999+00501+00101999999ADDMA1102301999990REMMET056METAR EDLW 121150Z 20006KT CAVOK 05/01 Q1023 RMK ATIS P=
0083104160999992014011212204+51518+007612FM-15+013099999V0202001N003119999999Y999999999+00501+00101999999ADDMA1102301999990REMMET056METAR EDLW 121220Z 20006KT CAVOK 05/01 Q1023 RMK ATIS Q=
0083104160999992014011212504+51518+007612FM-15+013099999V0202101N002619999999Y999999999+00401+00101999999ADDMA1102301999990REMMET056METAR EDLW 121250Z 21005KT CAVOK 04/01 Q1023 RMK ATIS R=
0083104160999992014011213204+51518+007612FM-15+013099999V0202101N003619999999Y999999999+00501+00001999999ADDMA1102201999990REMMET056METAR EDLW 121320Z 21007KT CAVOK 05/00 Q1022 RMK ATIS S=
0083104160999992014011213504+51518+007612FM-15+013099999V0201901N002619999999Y999999999+00601+00101999999ADDMA1102201999990REMMET056METAR EDLW 121350Z 19005KT CAVOK 06/01 Q1022 RMK ATIS T=
0083104160999992014011214204+51518+007612FM-15+013099999V0201801N002619999999Y999999999+00601+00101999999ADDMA1102201999990REMMET056METAR EDLW 121420Z 18005KT CAVOK 06/01 Q1022 RMK ATIS U=
0084104160999992014011214504+51518+007612FM-15+013099999V0201801N002119999999Y999999999+00401-00101999999ADDMA1102101999990REMMET057METAR EDLW 121450Z 18004KT CAVOK 04/M01 Q1021 RMK ATIS V=
0084104160999992014011215204+51518+007612FM-15+013099999V0201701N001019999999Y999999999+00401+00001999999ADDMA1102101999990REMMET057METAR EDLW 121520Z 17002KT CAVOK 04/M00 Q1021 RMK ATIS W=
0084104160999992014011215504+51518+007612FM-15+013099999V0209999V001519999999Y999999999+00301-00101999999ADDMA1102001999990REMMET057METAR EDLW 121550Z VRB03KT CAVOK 03/M01 Q1020 RMK ATIS X=
0084104160999992014011216204+51518+007612FM-15+013099999V0201001N002119999999Y999999999+00301-00101999999ADDMA1102001999990REMMET057METAR EDLW 121620Z 10004KT CAVOK 03/M01 Q1020 RMK ATIS Y=
0084104160999992014011216504+51518+007612FM-15+013099999V0201201N002619999999Y999999999+00301-00101999999ADDMA1101901999990REMMET057METAR EDLW 121650Z 12005KT CAVOK 03/M01 Q1019 RMK ATIS Z=
0084104160999992014011217204+51518+007612FM-15+013099999V0209999V001519999999Y999999999+00301-00101999999ADDMA1101901999990REMMET057METAR EDLW 121720Z VRB03KT CAVOK 03/M01 Q1019 RMK ATIS A=
0084104160999992014011217504+51518+007612FM-15+013099999V0200701N001519999999Y999999999+00101-00301999999ADDMA1101901999990REMMET057METAR EDLW 121750Z 07003KT CAVOK 01/M03 Q1019 RMK ATIS B=
0084104160999992014011218204+51518+007612FM-15+013099999V0200601N001519999999Y999999999+00001-00201999999ADDMA1101801999990REMMET057METAR EDLW 121820Z 06003KT CAVOK 00/M02 Q1018 RMK ATIS C=
0084104160999992014011218504+51518+007612FM-15+013099999V0200801N001519999999Y999999999+00101-00201999999ADDMA1101801999990REMMET057METAR EDLW 121850Z 08003KT CAVOK 01/M02 Q1018 RMK ATIS D=
0084104160999992014011219204+51518+007612FM-15+013099999V0200901N001019999999Y999999999+00101-00101999999ADDMA1101801999990REMMET057METAR EDLW 121920Z 09002KT CAVOK 01/M01 Q1018 RMK ATIS E=
0084104160999992014011219504+51518+007612FM-15+013099999V0200801N001519999999Y999999999+00101-00201999999ADDMA1101701999990REMMET057METAR EDLW 121950Z 08003KT CAVOK 01/M02 Q1017 RMK ATIS F=
0085104160999992014011220204+51518+007612FM-15+013099999V0200801N002619999999Y999999999+00001-00301999999ADDMA1101701999990REMMET058METAR EDLW 122020Z 08005KT CAVOK M00/M03 Q1017 RMK ATIS G=
0084104160999992014011220504+51518+007612FM-15+013099999V0209999V001019999999Y999999999+00001-00301999999ADDMA1101601999990REMMET057METAR EDLW 122050Z VRB02KT CAVOK 00/M03 Q1016 RMK ATIS H=
0083104160999992014011304204+51518+007612FM-15+013099999V0201901N007719999999Y999999999+00401+00001999999ADDMA1101001999990REMMET056METAR EDLW 130420Z 19015KT CAVOK 04/00 Q1010 RMK ATIS A=
0181104160999992014011304504+51518+007612FM-15+013099999V0201901N00771019511CN009999199+00401+00101999999ADDGA1041+005791991GA2041+019511991GE19MSL   +99999+99999GF199999041990005791991991MA1101001999990REMMET074METAR EDLW 130450Z 19015KT 9999 SCT019 SCT064 04/01 Q1010 RMK ATIS      B=
0083104160999992014011305204+51518+007612FM-15+013099999V0201901N008219999999Y999999999+00401+00101999999ADDMA1101001999990REMMET056METAR EDLW 130520Z 19016KT CAVOK 04/01 Q1010 RMK ATIS C=
0083104160999992014011305504+51518+007612FM-15+013099999V0201901N007719999999Y999999999+00401+00101999999ADDMA1101001999990REMMET056METAR EDLW 130550Z 19015KT CAVOK 04/01 Q1010 RMK ATIS D=
0083104160999992014011306204+51518+007612FM-15+013099999V0201901N007719999999Y999999999+00401+00101999999ADDMA1101001999990REMMET056METAR EDLW 130620Z 19015KT CAVOK 04/01 Q1010 RMK ATIS E=
0153104160999992014011306504+51518+007612FM-15+013099999V0202001N006710048819N009999199+00501+00201999999ADDGA1071+004881991GE19MSL   +99999+99999GF199999071990004881991991MA1101001999990REMMET062METAR EDLW 130650Z 20013KT 9999 BKN016 05/02 Q1010 RMK ATIS F=
0153104160999992014011307204+51518+007612FM-15+013099999V0202101N006210064019N009999199+00501+00201999999ADDGA1071+006401991GE19MSL   +99999+99999GF199999071990006401991991MA1101101999990REMMET062METAR EDLW 130720Z 21012KT 9999 BKN021 05/02 Q1011 RMK ATIS G=
0153104160999992014011307504+51518+007612FM-15+013099999V0202101N006710067119N009999199+00601+00301999999ADDGA1071+006711991GE19MSL   +99999+99999GF199999071990006711991991MA1101101999990REMMET062METAR EDLW 130750Z 21013KT 9999 BKN022 06/03 Q1011 RMK ATIS H=
0153104160999992014011308204+51518+007612FM-15+013099999V0202201N007210094519N009999199+00601+00301999999ADDGA1071+009451991GE19MSL   +99999+99999GF199999071990009451991991MA1101101999990REMMET062METAR EDLW 130820Z 22014KT 9999 BKN031 06/03 Q1011 RMK ATIS I=
0153104160999992014011308504+51518+007612FM-15+013099999V0202201N007210103619N009999199+00601+00301999999ADDGA1071+010361991GE19MSL   +99999+99999GF199999071990010361991991MA1101101999990REMMET062METAR EDLW 130850Z 22014KT 9999 BKN034 06/03 Q1011 RMK ATIS J=
0153104160999992014011309204+51518+007612FM-15+013099999V0202101N006710091419N009999199+00701+00301999999ADDGA1071+009141991GE19MSL   +99999+99999GF199999071990009141991991MA1101101999990REMMET062METAR EDLW 130920Z 21013KT 9999 BKN030 07/03 Q1011 RMK ATIS K=
0153104160999992014011309504+51518+007612FM-15+013099999V0202101N006210067119N009999199+00701+00301999999ADDGA1071+006711991GE19MSL   +99999+99999GF199999071990006711991991MA1101101999990REMMET062METAR EDLW 130950Z 21012KT 9999 BKN022 07/03 Q1011 RMK ATIS L=
0153104160999992014011310204+51518+007612FM-15+013099999V0202201N006710097519N009999199+00701+00301999999ADDGA1071+009751991GE19MSL   +99999+99999GF199999071990009751991991MA1101201999990REMMET062METAR EDLW 131020Z 22013KT 9999 BKN032 07/03 Q1012 RMK ATIS M=
0181104160999992014011310504+51518+007612FM-15+013099999V0202201N006210106719N009999199+00801+00401999999ADDGA1041+006401991GA2071+010671991GE19MSL   +99999+99999GF199999041990006401991991MA1101201999990REMMET074METAR EDLW 131050Z 22012KT 9999 SCT021 BKN035 08/04 Q1012 RMK ATIS      N=
0153104160999992014011311204+51518+007612FM-15+013099999V0202201N005710112819N009999199+00801+00401999999ADDGA1071+011281991GE19MSL   +99999+99999GF199999071990011281991991MA1101101999990REMMET062METAR EDLW 131120Z 22011KT 9999 BKN037 08/04 Q1011 RMK ATIS O=
0189104160999992014011311504+51518+007612FM-15+013099999V0202401V005710100619N009999199+00801+00301999999ADDGA1021+006711991GA2071+010061991GE19MSL   +99999+99999GF199999021990006711991991MA1101101999990REMMET082METAR EDLW 131150Z 24011KT 220V280 9999 FEW022 BKN033 08/03 Q1011 RMK      ATIS P=
0157104160999992014011312204+51518+007612FM-15+013099999V0202301N005110073219N009999199+00801+00401999999ADDGA1071+007321991GE19MSL   +99999+99999GF199999071990007321991991MA1101101999990REMMET066METAR COR EDLW 131220Z 23010KT 9999 BKN024 08/04 Q1011 RMK ATIS Q=
0166104160999992014011312504+51518+007612FM-15+013099999V0202401V005710064019N009999199+00801+00401999999ADDGA1071+006401991GE19MSL   +99999+99999GF199999071990006401991991MA1101101999990REMMET075METAR EDLW 131250Z 24011KT 220V280 9999 BKN021 08/04 Q1011 RMK ATIS      R=
0153104160999992014011313204+51518+007612FM-15+013099999V0202301N005110067119N009999199+00801+00301999999ADDGA1071+006711991GE19MSL   +99999+99999GF199999071990006711991991MA1101001999990REMMET062METAR EDLW 131320Z 23010KT 9999 BKN022 08/03 Q1010 RMK ATIS S=
0153104160999992014011313504+51518+007612FM-15+013099999V0202401N004110076219N009999199+00801+00301999999ADDGA1071+007621991GE19MSL   +99999+99999GF199999071990007621991991MA1101001999990REMMET062METAR EDLW 131350Z 24008KT 9999 BKN025 08/03 Q1010 RMK ATIS T=
0157104160999992014011314204+51518+007612FM-15+013099999V0202101N003610100619N009999199+00801+00401999999ADDGA1071+010061991GE19MSL   +99999+99999GF199999071990010061991991MA1101001999990REMMET066METAR COR EDLW 131420Z 21007KT 9999 BKN033 08/04 Q1010 RMK ATIS U=
0153104160999992014011314504+51518+007612FM-15+013099999V0202101N004110091419N009999199+00801+00401999999ADDGA1071+009141991GE19MSL   +99999+99999GF199999071990009141991991MA1101001999990REMMET062METAR EDLW 131450Z 21008KT 9999 BKN030 08/04 Q1010 RMK ATIS V=
0153104160999992014011315204+51518+007612FM-15+013099999V0201901N003110076219N009999199+00801+00301999999ADDGA1071+007621991GE19MSL   +99999+99999GF199999071990007621991991MA1101001999990REMMET062METAR EDLW 131520Z 19006KT 9999 BKN025 08/03 Q1010 RMK ATIS W=
0153104160999992014011315504+51518+007612FM-15+013099999V0202001N003610070119N009999199+00801+00301999999ADDGA1071+007011991GE19MSL   +99999+99999GF199999071990007011991991MA1101001999990REMMET062METAR EDLW 131550Z 20007KT 9999 BKN023 08/03 Q1010 RMK ATIS X=
0083104160999992014011316204+51518+007612FM-15+013099999V0202001N004119999999Y999999999+00701+00301999999ADDMA1101001999990REMMET056METAR EDLW 131620Z 20008KT CAVOK 07/03 Q1010 RMK ATIS Y=
0153104160999992014011316504+51518+007612FM-15+013099999V0201901N003110085319N009999199+00701+00301999999ADDGA1071+008531991GE19MSL   +99999+99999GF199999071990008531991991MA1101001999990REMMET062METAR EDLW 131650Z 19006KT 9999 BKN028 07/03 Q1010 RMK ATIS Z=
0083104160999992014011317204+51518+007612FM-15+013099999V0201801N004119999999Y999999999+00601+00301999999ADDMA1101001999990REMMET056METAR EDLW 131720Z 18008KT CAVOK 06/03 Q1010 RMK ATIS A=
0083104160999992014011317504+51518+007612FM-15+013099999V0201801N003619999999Y999999999+00501+00101999999ADDMA1101001999990REMMET056METAR EDLW 131750Z 18007KT CAVOK 05/01 Q1010 RMK ATIS B=
0083104160999992014011318204+51518+007612FM-15+013099999V0201801N003119999999Y999999999+00501+00201999999ADDMA1101001999990REMMET056METAR EDLW 131820Z 18006KT CAVOK 05/02 Q1010 RMK ATIS C=
0083104160999992014011318504+51518+007612FM-15+013099999V0201801N002619999999Y999999999+00501+00201999999ADDMA1101001999990REMMET056METAR EDLW 131850Z 18005KT CAVOK 05/02 Q1010 RMK ATIS D=
0083104160999992014011319204+51518+007612FM-15+013099999V0201901N003119999999Y999999999+00501+00201999999ADDMA1101001999990REMMET056METAR EDLW 131920Z 19006KT CAVOK 05/02 Q1010 RMK ATIS E=
0083104160999992014011319504+51518+007612FM-15+013099999V0201801N003619999999Y999999999+00501+00201999999ADDMA1100901999990REMMET056METAR EDLW 131950Z 18007KT CAVOK 05/02 Q1009 RMK ATIS F=
0083104160999992014011320204+51518+007612FM-15+013099999V0201801N004119999999Y999999999+00501+00201999999ADDMA1100901999990REMMET056METAR EDLW 132020Z 18008KT CAVOK 05/02 Q1009 RMK ATIS G=
0083104160999992014011320504+51518+007612FM-15+013099999V0201901N003619999999Y999999999+00401+00201999999ADDMA1100901999990REMMET056METAR EDLW 132050Z 19007KT CAVOK 04/02 Q1009 RMK ATIS H=
