0143104160999992010010104204+51517+007617FM-15+0148EDLW V0200501N004610015019N0080001N1-00201-00201999999ADDGA1081+001501999GF108991999999999999999999MA1099391999999MW1711REMMET068METAR EDLW 010420Z 05009KT 8000 -SN OVC005 M02/M02 Q0994 RMK ATIS A;
0143104160999992010010104504+51517+007617FM-15+0148EDLW V0200401N004110015019N0080001N1-00201-00201999999ADDGA1081+001501999GF108991999999999999999999MA1099391999999MW1711REMMET068METAR EDLW 010450Z 04008KT 8000 -SN OVC005 M02/M02 Q0994 RMK ATIS B;
0143104160999992010010105204+51517+007617FM-15+0148EDLW V0200301N004110015019N0080001N1-00201-00201999999ADDGA1081+001501999GF108991999999999999999999MA1099391999999MW1711REMMET068METAR EDLW 010520Z 03008KT 8000 -SN OVC005 M02/M02 Q0994 RMK ATIS C;
0143104160999992010010105504+51517+007617FM-15+0148EDLW V0200401N004110015019N0080001N1-00201-00201999999ADDGA1081+001501999GF108991999999999999999999MA1099491999999MW1711REMMET068METAR EDLW 010550Z 04008KT 8000 -SN OVC005 M02/M02 Q0995 RMK ATIS D;
0133104160999992010010106204+51517+007617FM-15+0148EDLW V0200301N004610018019N0112651N1-00201-00201999999ADDGA1081+001801999GF108991999999999999999999MA1099491999999REMMET064METAR EDLW 010620Z 03009KT 9999 OVC006 M02/M02 Q0995 RMK ATIS E;
0143104160999992010010106504+51517+007617FM-15+0148EDLW V0200301N004610021019N0112651N1-00201-00201999999ADDGA1081+002101999GF108991999999999999999999MA1099491999999MW1711REMMET068METAR EDLW 010650Z 03009KT 9999 -SN OVC007 M02/M02 Q0995 RMK ATIS F;
0133104160999992010010107204+51517+007617FM-15+0148EDLW V0200401N004610033019N0112651N1-00201-00201999999ADDGA1081+003301999GF108991999999999999999999MA1099491999999REMMET064METAR EDLW 010720Z 04009KT 9999 OVC011 M02/M02 Q0995 RMK ATIS G;
0133104160999992010010107504+51517+007617FM-15+0148EDLW V0200401N004610024019N0112651N1-00201-00201999999ADDGA1081+002401999GF108991999999999999999999MA1099491999999REMMET064METAR EDLW 010750Z 04009KT 9999 OVC008 M02/M02 Q0995 RMK ATIS H;
0133104160999992010010108204+51517+007617FM-15+0148EDLW V0200401N004110024019N0112651N1-00201-00301999999ADDGA1081+002401999GF108991999999999999999999MA1099591999999REMMET064METAR EDLW 010820Z 04008KT 9999 OVC008 M02/M03 Q0996 RMK ATIS I;
0133104160999992010010108504+51517+007617FM-15+0148EDLW V0200401N005110024019N0112651N1-00201-00301999999ADDGA1081+002401999GF108991999999999999999999MA1099591999999REMMET064METAR EDLW 010850Z 04010KT 9999 OVC008 M02/M03 Q0996 RMK ATIS J;
0133104160999992010010109204+51517+007617FM-15+0148EDLW V0200401N004610024019N0112651N1-00201-00301999999ADDGA1081+002401999GF108991999999999999999999MA1099591999999REMMET064METAR EDLW 010920Z 04009KT 9999 OVC008 M02/M03 Q0996 RMK ATIS K;
0133104160999992010010109504+51517+007617FM-15+0148EDLW V0200401N004110024019N0090001N1-00201-00301999999ADDGA1081+002401999GF108991999999999999999999MA1099701999999REMMET064METAR EDLW 010950Z 04008KT 9000 OVC008 M02/M03 Q0997 RMK ATIS L;
0133104160999992010010110204+51517+007617FM-15+0148EDLW V0200401N004610021019N0070001N1-00201-00201999999ADDGA1081+002101999GF108991999999999999999999MA1099701999999REMMET064METAR EDLW 011020Z 04009KT 7000 OVC007 M02/M02 Q0997 RMK ATIS M;
0133104160999992010010110504+51517+007617FM-15+0148EDLW V0200301N004110018019N0060001N1-00201-00201999999ADDGA1081+001801999GF108991999999999999999999MA1099701999999REMMET064METAR EDLW 011050Z 03008KT 6000 OVC006 M02/M02 Q0997 RMK ATIS N;
0133104160999992010010111204+51517+007617FM-15+0148EDLW V0200301N004110018019N0080001N1-00201-00201999999ADDGA1081+001801999GF108991999999999999999999MA1099701999999REMMET064METAR EDLW 011120Z 03008KT 8000 OVC006 M02/M02 Q0997 RMK ATIS O;
0133104160999992010010111504+51517+007617FM-15+0148EDLW V0200301N004610021019N0080001N1-00201-00301999999ADDGA1081+002101999GF108991999999999999999999MA1099701999999REMMET064METAR EDLW 011150Z 03009KT 8000 OVC007 M02/M03 Q0997 RMK ATIS P;
0141104160999992010010112204+51517+007617FM-15+0148EDLW V0200301N004110021019N0080001N1-00201-00301999999ADDGA1081+002101999GF108991999999999999999999MA1099701999999REMMET072METAR EDLW 011220Z 03008KT 350V050 8000 OVC007 M02/M03 Q0997 RMK ATIS Q;
0142104160999992010010112504+51517+007617FM-15+0148EDLW V0200301N005110018019N0040001N1-00201-00201999999ADDGA1081+001801999GF108991999999999999999999MA1099801999999MW1101REMMET067METAR EDLW 011250Z 03010KT 4000 BR OVC006 M02/M02 Q0998 RMK ATIS R;
0142104160999992010010113204+51517+007617FM-15+0148EDLW V0200301N005110012019N0030001N1-00201-00201999999ADDGA1081+001201999GF108991999999999999999999MA1099801999999MW1101REMMET067METAR EDLW 011320Z 03010KT 3000 BR OVC004 M02/M02 Q0998 RMK ATIS S;
0152104160999992010010113504+51517+007617FM-15+0148EDLW V0200301N004610012019N0035001N1-00201-00201999999ADDGA1081+001201999GF108991999999999999999999MA1099801999999MW1101MW2711REMMET071METAR EDLW 011350Z 03009KT 3500 -SN BR OVC004 M02/M02 Q0998 RMK ATIS T;
0152104160999992010010114204+51517+007617FM-15+0148EDLW V0200301N004610018019N0040001N1-00201-00201999999ADDGA1081+001801999GF108991999999999999999999MA1099901999999MW1101MW2711REMMET071METAR EDLW 011420Z 03009KT 4000 -SN BR OVC006 M02/M02 Q0999 RMK ATIS U;
0142104160999992010010114504+51517+007617FM-15+0148EDLW V0200201N003610012019N0020001N1-00201-00201999999ADDGA1081+001201999GF108991999999999999999999MA1099901999999MW1731REMMET067METAR EDLW 011450Z 02007KT 2000 SN OVC004 M02/M02 Q0999 RMK ATIS V;
0152104160999992010010115204+51517+007617FM-15+0148EDLW V0200101N004610015019N0035001N1-00201-00201999999ADDGA1081+001501999GF108991999999999999999999MA1100001999999MW1101MW2711REMMET071METAR EDLW 011520Z 01009KT 3500 -SN BR OVC005 M02/M02 Q1000 RMK ATIS W;
0142104160999992010010115504+51517+007617FM-15+0148EDLW V0200101N004610018019N0030001N1-00201-00201999999ADDGA1081+001801999GF108991999999999999999999MA1100001999999MW1731REMMET067METAR EDLW 011550Z 01009KT 3000 SN OVC006 M02/M02 Q1000 RMK ATIS X;
0142104160999992010010116204+51517+007617FM-15+0148EDLW V0200101N003610018019N0025001N1-00201-00201999999ADDGA1081+001801999GF108991999999999999999999MA1100101999999MW1731REMMET067METAR EDLW 011620Z 01007KT 2500 SN OVC006 M02/M02 Q1001 RMK ATIS Y;
0142104160999992010010116504+51517+007617FM-15+0148EDLW V0200101N004110018019N0030001N1-00201-00301999999ADDGA1081+001801999GF108991999999999999999999MA1100101999999MW1731REMMET067METAR EDLW 011650Z 01008KT 3000 SN OVC006 M02/M03 Q1001 RMK ATIS Z;
0142104160999992010010117204+51517+007617FM-15+0148EDLW V0203601N003610015019N0030001N1-00201-00301999999ADDGA1081+001501999GF108991999999999999999999MA1100201999999MW1731REMMET067METAR EDLW 011720Z 36007KT 3000 SN OVC005 M02/M03 Q1002 RMK ATIS A;
0142104160999992010010117504+51517+007617FM-15+0148EDLW V0200101N003610018019N0030001N1-00301-00301999999ADDGA1081+001801999GF108991999999999999999999MA1100201999999MW1731REMMET067METAR EDLW 011750Z 01007KT 3000 SN OVC006 M03/M03 Q1002 RMK ATIS B;
0142104160999992010010118204+51517+007617FM-15+0148EDLW V0203501N003110024019N0040001N1-00301-00301999999ADDGA1081+002401999GF108991999999999999999999MA1100201999999MW1731REMMET067METAR EDLW 011820Z 35006KT 4000 SN OVC008 M03/M03 Q1002 RMK ATIS C;
0165104160999992010010118504+51517+007617FM-15+0148EDLW V0203501N003610030019N0070001N1-00301-00301999999ADDGA1041+002101999GA2081+003001999GF108991999999999999999999MA1100311999999MW1731REMMET074METAR EDLW 011850Z 35007KT 7000 SN SCT007 OVC010 M03/M03 Q1003 RMK ATIS D;
0143104160999992010010119204+51517+007617FM-15+0148EDLW V0203501N003610021019N0070001N1-00301-00301999999ADDGA1081+002101999GF108991999999999999999999MA1100311999999MW1711REMMET068METAR EDLW 011920Z 35007KT 7000 -SN OVC007 M03/M03 Q1003 RMK ATIS E;
0133104160999992010010119504+51517+007617FM-15+0148EDLW V0203501N003110030019N0090001N1-00301-00301999999ADDGA1081+003001999GF108991999999999999999999MA1100411999999REMMET064METAR EDLW 011950Z 35006KT 9000 OVC010 M03/M03 Q1004 RMK ATIS F;
0133104160999992010010120204+51517+007617FM-15+0148EDLW V0203501N003110021019N0090001N1-00301-00301999999ADDGA1081+002101999GF108991999999999999999999MA1100411999999REMMET064METAR EDLW 012020Z 35006KT 9000 OVC007 M03/M03 Q1004 RMK ATIS G;
0122104160999992010010120504+51517+007617FM-15+0148EDLW V0203501N002610021019N0090001N1-00301-00301999999ADDGA1081+002101999GF108991999999999999999999MA1100511999999REMMET053METAR EDLW 012050Z 35005KT 9000 OVC007 M03/M03 Q1005;
0133104160999992010010204204+51517+007617FM-15+0148EDLW V0202901N005110018019N0080001N1-00401-00501999999ADDGA1081+001801999GF108991999999999999999999MA1101081999999REMMET064METAR EDLW 020420Z 29010KT 8000 OVC006 M04/M05 Q1011 RMK ATIS A;
0133104160999992010010204504+51517+007617FM-15+0148EDLW V0202901N004110021019N0080001N1-00401-00501999999ADDGA1081+002101999GF108991999999999999999999MA1101081999999REMMET064METAR EDLW 020450Z 29008KT 8000 OVC007 M04/M05 Q1011 RMK ATIS B;
0133104160999992010010205204+51517+007617FM-15+0148EDLW V0202801N003110027019N0090001N1-00401-00501999999ADDGA1081+002701999GF108991999999999999999999MA1101081999999REMMET064METAR EDLW 020520Z 28006KT 9000 OVC009 M04/M05 Q1011 RMK ATIS C;
0133104160999992010010205504+51517+007617FM-15+0148EDLW V0202901N003110030019N0090001N1-00401-00501999999ADDGA1081+003001999GF108991999999999999999999MA1101191999999REMMET064METAR EDLW 020550Z 29006KT 9000 OVC010 M04/M05 Q1012 RMK ATIS D;
0133104160999992010010206204+51517+007617FM-15+0148EDLW V0203001N003610039019N0112651N1-00401-00601999999ADDGA1081+003901999GF108991999999999999999999MA1101191999999REMMET064METAR EDLW 020620Z 30007KT 9999 OVC013 M04/M06 Q1012 RMK ATIS E;
0133104160999992010010206504+51517+007617FM-15+0148EDLW V0202901N003610039019N0112651N1-00401-00601999999ADDGA1081+003901999GF108991999999999999999999MA1101291999999REMMET064METAR EDLW 020650Z 29007KT 9999 OVC013 M04/M06 Q1013 RMK ATIS F;
0133104160999992010010207204+51517+007617FM-15+0148EDLW V0203001N002610039019N0090001N1-00401-00601999999ADDGA1081+003901999GF108991999999999999999999MA1101291999999REMMET064METAR EDLW 020720Z 30005KT 9000 OVC013 M04/M06 Q1013 RMK ATIS G;
0133104160999992010010207504+51517+007617FM-15+0148EDLW V0202601N002610042019N0090001N1-00401-00601999999ADDGA1081+004201999GF108991999999999999999999MA1101291999999REMMET064METAR EDLW 020750Z 26005KT 9000 OVC014 M04/M06 Q1013 RMK ATIS H;
0133104160999992010010208204+51517+007617FM-15+0148EDLW V0209999V001510039019N0112651N1-00401-00601999999ADDGA1071+003901999GF107991999999999999999999MA1101291999999REMMET064METAR EDLW 020820Z VRB03KT 9999 BKN013 M04/M06 Q1013 RMK ATIS I;
0141104160999992010010208504+51517+007617FM-15+0148EDLW V0202301N002610039019N0112651N1-00401-00601999999ADDGA1071+003901999GF107991999999999999999999MA1101391999999REMMET072METAR EDLW 020850Z 23005KT 190V250 9999 BKN013 M04/M06 Q1014 RMK ATIS J;
0085104160999992010010209204+51517+007617FM-15+0148EDLW V0202201N002619999999Y0099001N1-00401-00601999999ADDMA1101391999999REMMET058METAR EDLW 020920Z 22005KT CAVOK M04/M06 Q1014 RMK ATIS K;
0133104160999992010010209504+51517+007617FM-15+0148EDLW V0202101N002112200019N0090001N1-00401-00501999999ADDGF100991999999999999999999MA1101391999999REMMET061METAR EDLW 020950Z 21004KT 9000 NSC M04/M05 Q1014 RMK ATIS L;EQDQ01    003SCCGA1
0085104160999992010010210204+51517+007617FM-15+0148EDLW V0201801N003619999999Y0099001N1-00301-00501999999ADDMA1101391999999REMMET058METAR EDLW 021020Z 18007KT CAVOK M03/M05 Q1014 RMK ATIS M;
0085104160999992010010210504+51517+007617FM-15+0148EDLW V0201801N005119999999Y0099001N1-00301-00501999999ADDMA1101391999999REMMET058METAR EDLW 021050Z 18010KT CAVOK M03/M05 Q1014 RMK ATIS N;
0143104160999992010010211504+51517+007617FM-15+0148EDLW V0202101N003112200019N0090001N1-00301-00401999999ADDGA1041+007801999GF104991999999999999999999MA1101491999999MW1711REMMET068METAR EDLW 021150Z 21006KT 9000 -SN SCT026 M03/M04 Q1015 RMK ATIS P;
0133104160999992010010212204+51517+007617FM-15+0148EDLW V0202201N003612200019N0112651N1-00201-00401999999ADDGA1041+007801999GF104991999999999999999999MA1101491999999REMMET064METAR EDLW 021220Z 22007KT 9999 SCT026 M02/M04 Q1015 RMK ATIS Q;
0133104160999992010010212504+51517+007617FM-15+0148EDLW V0202001N003112200019N0112651N1-00101-00301999999ADDGA1041+007801999GF104991999999999999999999MA1101491999999REMMET064METAR EDLW 021250Z 20006KT 9999 SCT026 M01/M03 Q1015 RMK ATIS R;
0156104160999992010010213204+51517+007617FM-15+0148EDLW V0201901N003110126019N0112651N1-00101-00301999999ADDGA1041+006601999GA2071+012601999GF107991999999999999999999MA1101491999999REMMET071METAR EDLW 021320Z 19006KT 9999 SCT022 BKN042 M01/M03 Q1015 RMK ATIS S;
0156104160999992010010213504+51517+007617FM-15+0148EDLW V0201901N003610123019N0090001N1-00101-00301999999ADDGA1041+008101999GA2071+012301999GF107991999999999999999999MA1101491999999REMMET071METAR EDLW 021350Z 19007KT 9000 SCT027 BKN041 M01/M03 Q1015 RMK ATIS T;
0133104160999992010010214504+51517+007617FM-15+0148EDLW V0202201N004610051019N0060001N1+00001-00201999999ADDGA1071+005101999GF107991999999999999999999MA1101491999999REMMET064METAR EDLW 021450Z 22009KT 6000 BKN017 M00/M02 Q1015 RMK ATIS V;
0166104160999992010010215204+51517+007617FM-15+0148EDLW V0202201N004610051019N0050001N1-00101-00201999999ADDGA1021+001801999GA2071+005101999GF107991999999999999999999MA1101591999999MW1711REMMET075METAR EDLW 021520Z 22009KT 5000 -SN FEW006 BKN017 M01/M02 Q1016 RMK ATIS W;
0166104160999992010010215504+51517+007617FM-15+0148EDLW V0202201N004610048019N0040001N1+00001-00201999999ADDGA1021+001801999GA2071+004801999GF107991999999999999999999MA1101591999999MW1711REMMET075METAR EDLW 021550Z 22009KT 4000 -SN FEW006 BKN016 M00/M02 Q1016 RMK ATIS X;
0165104160999992010010216204+51517+007617FM-15+0148EDLW V0202301N004110069019N0030001N1-00101-00101999999ADDGA1041+001801999GA2071+006901999GF107991999999999999999999MA1101591999999MW1731REMMET074METAR EDLW 021620Z 23008KT 3000 SN SCT006 BKN023 M01/M01 Q1016 RMK ATIS Y;
0166104160999992010010216504+51517+007617FM-15+0148EDLW V0202201N004610039019N0090001N1-00101-00101999999ADDGA1021+002701999GA2071+003901999GF107991999999999999999999MA1101591999999MW1711REMMET075METAR EDLW 021650Z 22009KT 9000 -SN FEW009 BKN013 M01/M01 Q1016 RMK ATIS Z;
0133104160999992010010217204+51517+007617FM-15+0148EDLW V0202201N005110033019N0112651N1+00001-00101999999ADDGA1071+003301999GF107991999999999999999999MA1101591999999REMMET064METAR EDLW 021720Z 22010KT 9999 BKN011 M00/M01 Q1016 RMK ATIS A;
0143104160999992010010217504+51517+007617FM-15+0148EDLW V0202201N005710033019N0090001N1+00001-00101999999ADDGA1071+003301999GF107991999999999999999999MA1101591999999MW1711REMMET068METAR EDLW 021750Z 22011KT 9000 -SN BKN011 M00/M01 Q1016 RMK ATIS B;
0143104160999992010010218204+51517+007617FM-15+0148EDLW V0202301N004610033019N0112651N1+00001-00101999999ADDGA1071+003301999GF107991999999999999999999MA1101591999999MW1711REMMET068METAR EDLW 021820Z 23009KT 9999 -SN BKN011 M00/M01 Q1016 RMK ATIS C;
0133104160999992010010218504+51517+007617FM-15+0148EDLW V0202201N005110033019N0112651N1+00001-00101999999ADDGA1071+003301999GF107991999999999999999999MA1101591999999REMMET064METAR EDLW 021850Z 22010KT 9999 BKN011 M00/M01 Q1016 RMK ATIS D;
0132104160999992010010219204+51517+007617FM-15+0148EDLW V0202201N006210030019N0112651N1+00001-00101999999ADDGA1071+003001999GF107991999999999999999999MA1101591999999REMMET063METAR EDLW 021920Z 22012KT 9999 BKN010 00/M01 Q1016 RMK ATIS E;
0155104160999992010010219504+51517+007617FM-15+0148EDLW V0202201N005712200019N0112651N1+00001-00101999999ADDGA1021+003001999GA2041+014401999GF104991999999999999999999MA1101591999999REMMET070METAR EDLW 021950Z 22011KT 9999 FEW010 SCT048 00/M01 Q1016 RMK ATIS F;
0165104160999992010010220204+51517+007617FM-15+0148EDLW V0202301N005110081019N0090001N1+00001-00201999999ADDGA1021+004801999GA2071+008101999GF107991999999999999999999MA1101691999999MW1711REMMET074METAR EDLW 022020Z 23010KT 9000 -SN FEW016 BKN027 00/M02 Q1017 RMK ATIS G;
0154104160999992010010220504+51517+007617FM-15+0148EDLW V0202301N006210066019N0050001N1+00001-00101999999ADDGA1041+003901999GA2071+006601999GF107991999999999999999999MA1101591999999MW1731REMMET063METAR EDLW 022050Z 23012KT 5000 SN SCT013 BKN022 M00/M01 Q1016;
0186104160999992010010304204+51517+007617FM-15+0148EDLW V0209999V000510006019N0012001N1-00101-00101999999ADDED199U20009GA1071+000601999GA2071+002101999GF107991999999999999999999MA1101491999999MW1101MW2711REMMET078METAR EDLW 030420Z VRB01KT 1200 R06/P2000N -SN BR BKN002 BKN007 M01/M01 Q1015;
0196104160999992010010304504+51517+007617FM-15+0148EDLW V0209999V001010006019N0010001N1-00101-00101999999ADDED199U20009GA1041+000301999GA2081+000601999GF108991999999999999999999MA1101591999999MW1731REMMET094METAR EDLW 030450Z VRB02KT 1000 R24/P2000D SN SCT001 OVC002 M01/M01 Q1016 24SNOCLO RMK ATIS B;
0172104160999992010010305204+51517+007617FM-15+0148EDLW V0200301N004110009019N0010001N1-00301-00301999999ADDED199U19009GA1081+000901999GF108991999999999999999999MA1101591999999MW1731REMMET086METAR EDLW 030520Z 03008KT 1000 R06/1900N SN OVC003 M03/M03 Q1016 06SNOCLO RMK ATIS D;
0172104160999992010010305504+51517+007617FM-15+0148EDLW V0200201N004110009019N0010001N1-00401-00401999999ADDED199U18009GA1081+000901999GF108991999999999999999999MA1101591999999MW1731REMMET086METAR EDLW 030550Z 02008KT 1000 R06/1800D SN OVC003 M04/M04 Q1016 06SNOCLO RMK ATIS E;
0143104160999992010010306504+51517+007617FM-15+0148EDLW V0200101N005110018019N0020001N1-00401-00501999999ADDGA1081+001801999GF108991999999999999999999MA1101591999999MW1711REMMET068METAR EDLW 030650Z 01010KT 2000 -SN OVC006 M04/M05 Q1016 RMK ATIS G;
0143104160999992010010307204+51517+007617FM-15+0148EDLW V0200101N005710015019N0020001N1-00501-00501999999ADDGA1081+001501999GF108991999999999999999999MA1101691999999MW1711REMMET068METAR EDLW 030720Z 01011KT 2000 -SN OVC005 M05/M05 Q1017 RMK ATIS H;
0143104160999992010010307504+51517+007617FM-15+0148EDLW V0200201N005110015019N0020001N1-00501-00501999999ADDGA1081+001501999GF108991999999999999999999MA1101801999999MW1711REMMET068METAR EDLW 030750Z 02010KT 2000 -SN OVC005 M05/M05 Q1018 RMK ATIS I;
0142104160999992010010308204+51517+007617FM-15+0148EDLW V0200101N004110018019N0035001N1-00501-00501999999ADDGA1081+001801999GF108991999999999999999999MA1101801999999MW1101REMMET067METAR EDLW 030820Z 01008KT 3500 BR OVC006 M05/M05 Q1018 RMK ATIS J;
0142104160999992010010308504+51517+007617FM-15+0148EDLW V0200101N003610018019N0035001N1-00501-00501999999ADDGA1081+001801999GF108991999999999999999999MA1101801999999MW1101REMMET067METAR EDLW 030850Z 01007KT 3500 BR OVC006 M05/M05 Q1018 RMK ATIS K;
0163104160999992010010309204+51517+007617FM-15+0148EDLW V0203601N003110018019N0035001N1-00501-00501999999ADDED199U14009GA1081+001801999GF108991999999999999999999MA1101901999999MW1101REMMET077METAR EDLW 030920Z 36006KT 3500 R06/1400N BR OVC006 M05/M05 Q1019 RMK ATIS L;
0142104160999992010010309504+51517+007617FM-15+0148EDLW V0203601N004110018019N0040001N1-00501-00501999999ADDGA1081+001801999GF108991999999999999999999MA1101901999999MW1101REMMET067METAR EDLW 030950Z 36008KT 4000 BR OVC006 M05/M05 Q1019 RMK ATIS M;
0165104160999992010010310204+51517+007617FM-15+0148EDLW V0203601N003610063019N0045001N1-00501-00501999999ADDGA1041+002701999GA2071+006301999GF107991999999999999999999MA1101901999999MW1101REMMET074METAR EDLW 031020Z 36007KT 4500 BR SCT009 BKN021 M05/M05 Q1019 RMK ATIS N;
0142104160999992010010310504+51517+007617FM-15+0148EDLW V0203401N004110033019N0040001N1-00401-00501999999ADDGA1071+003301999GF107991999999999999999999MA1101901999999MW1101REMMET067METAR EDLW 031050Z 34008KT 4000 BR BKN011 M04/M05 Q1019 RMK ATIS O;
0142104160999992010010311204+51517+007617FM-15+0148EDLW V0203401N005110042019N0050001N1-00401-00501999999ADDGA1071+004201999GF107991999999999999999999MA1101901999999MW1101REMMET067METAR EDLW 031120Z 34010KT 5000 BR BKN014 M04/M05 Q1019 RMK ATIS P;
0133104160999992010010311504+51517+007617FM-15+0148EDLW V0203401N004610033019N0060001N1-00501-00501999999ADDGA1081+003301999GF108991999999999999999999MA1101901999999REMMET064METAR EDLW 031150Z 34009KT 6000 OVC011 M05/M05 Q1019 RMK ATIS Q;
0133104160999992010010312204+51517+007617FM-15+0148EDLW V0203401N003610027019N0070001N1-00501-00601999999ADDGA1071+002701999GF107991999999999999999999MA1101901999999REMMET064METAR EDLW 031220Z 34007KT 7000 BKN009 M05/M06 Q1019 RMK ATIS R;
0133104160999992010010313204+51517+007617FM-15+0148EDLW V0203401N003610027019N0060001N1-00501-00601999999ADDGA1081+002701999GF108991999999999999999999MA1102001999999REMMET064METAR EDLW 031320Z 34007KT 6000 OVC009 M05/M06 Q1020 RMK ATIS T;
0143104160999992010010313504+51517+007617FM-15+0148EDLW V0203201N003110027019N0060001N1-00501-00601999999ADDGA1081+002701999GF108991999999999999999999MA1102001999999MW1711REMMET068METAR EDLW 031350Z 32006KT 6000 -SN OVC009 M05/M06 Q1020 RMK ATIS U;
0143104160999992010010314204+51517+007617FM-15+0148EDLW V0203301N002610030019N0070001N1-00501-00601999999ADDGA1081+003001999GF108991999999999999999999MA1102001999999MW1711REMMET068METAR EDLW 031420Z 33005KT 7000 -SN OVC010 M05/M06 Q1020 RMK ATIS V;
0151104160999992010010314504+51517+007617FM-15+0148EDLW V0203401N002610036019N0060001N1-00501-00601999999ADDGA1081+003601999GF108991999999999999999999MA1102101999999MW1711REMMET076METAR EDLW 031450Z 34005KT 310V030 6000 -SN OVC012 M05/M06 Q1021 RMK ATIS W;
0152104160999992010010315204+51517+007617FM-15+0148EDLW V0203101N002610024019N0040001N1-00501-00601999999ADDGA1081+002401999GF108991999999999999999999MA1102101999999MW1101MW2711REMMET071METAR EDLW 031520Z 31005KT 4000 -SN BR OVC008 M05/M06 Q1021 RMK ATIS X;
0142104160999992010010315504+51517+007617FM-15+0148EDLW V0203301N002610024019N0025001N1-00501-00601999999ADDGA1081+002401999GF108991999999999999999999MA1102001999999MW1101REMMET067METAR EDLW 031550Z 33005KT 2500 BR OVC008 M05/M06 Q1020 RMK ATIS Y;
0150104160999992010010316204+51517+007617FM-15+0148EDLW V0203401N002110024019N0030001N1-00501-00601999999ADDGA1081+002401999GF108991999999999999999999MA1102101999999MW1101REMMET075METAR EDLW 031620Z 34004KT 320V020 3000 BR OVC008 M05/M06 Q1021 RMK ATIS Z;
0142104160999992010010316504+51517+007617FM-15+0148EDLW V0203501N001010021019N0030001N1-00501-00601999999ADDGA1081+002101999GF108991999999999999999999MA1102101999999MW1101REMMET067METAR EDLW 031650Z 35002KT 3000 BR OVC007 M05/M06 Q1021 RMK ATIS A;
0142104160999992010010317204+51517+007617FM-15+0148EDLW V0203601N001510021019N0030001N1-00501-00501999999ADDGA1081+002101999GF108991999999999999999999MA1102101999999MW1101REMMET067METAR EDLW 031720Z 36003KT 3000 BR OVC007 M05/M05 Q1021 RMK ATIS B;
0142104160999992010010317504+51517+007617FM-15+0148EDLW V0200201N002610018019N0050001N1-00501-00501999999ADDGA1081+001801999GF108991999999999999999999MA1102101999999MW1101REMMET067METAR EDLW 031750Z 02005KT 5000 BR OVC006 M05/M05 Q1021 RMK ATIS C;
0150104160999992010010318204+51517+007617FM-15+0148EDLW V0200301N002610018019N0040001N1-00501-00501999999ADDGA1081+001801999GF108991999999999999999999MA1102101999999MW1101REMMET075METAR EDLW 031820Z 03005KT 350V050 4000 BR OVC006 M05/M05 Q1021 RMK ATIS D;
0152104160999992010010318504+51517+007617FM-15+0148EDLW V0200301N002110021019N0045001N1-00501-00501999999ADDGA1081+002101999GF108991999999999999999999MA1102101999999MW1101MW2711REMMET071METAR EDLW 031850Z 03004KT 4500 -SN BR OVC007 M05/M05 Q1021 RMK ATIS E;
0143104160999992010010319204+51517+007617FM-15+0148EDLW V0200301N002110024019N0070001N1-00501-00501999999ADDGA1081+002401999GF108991999999999999999999MA1102101999999MW1711REMMET068METAR EDLW 031920Z 03004KT 7000 -SN OVC008 M05/M05 Q1021 RMK ATIS F;
0151104160999992010010319504+51517+007617FM-15+0148EDLW V0200201N002110027019N0070001N1-00401-00501999999ADDGA1081+002701999GF108991999999999999999999MA1102101999999MW1711REMMET076METAR EDLW 031950Z 02004KT 330V050 7000 -SN OVC009 M04/M05 Q1021 RMK ATIS G;
0133104160999992010010320204+51517+007617FM-15+0148EDLW V0203501N002110039019N0070001N1-00401-00501999999ADDGA1081+003901999GF108991999999999999999999MA1102101999999REMMET064METAR EDLW 032020Z 35004KT 7000 OVC013 M04/M05 Q1021 RMK ATIS H;
0133104160999992010010320504+51517+007617FM-15+0148EDLW V0203401N002110042019N0070001N1-00401-00501999999ADDGA1081+004201999GF108991999999999999999999MA1102101999999REMMET064METAR EDLW 032050Z 34004KT 7000 OVC014 M04/M05 Q1021 RMK ATIS I;
0133104160999992010010321204+51517+007617FM-15+0148EDLW V0203201N002110054019N0080001N1-00401-00501999999ADDGA1081+005401999GF108991999999999999999999MA1102101999999REMMET064METAR EDLW 032120Z 32004KT 8000 OVC018 M04/M05 Q1021 RMK ATIS J;
0132104160999992010010321504+51517+007617FM-15+0148EDLW V0209999V000510060019N0080001N1-00401-00501999999ADDGA1081+006001999GF108991999999999999999999MA1102101999999MW1711REMMET057METAR EDLW 032150Z VRB01KT 8000 -SN OVC020 M04/M05 Q1021;
0133104160999992010010404204+51517+007617FM-15+0148EDLW V0209999V001010057019N0112651N1-00501-00701999999ADDGA1071+005701999GF107991999999999999999999MA1101901999999REMMET064METAR EDLW 040420Z VRB02KT 9999 BKN019 M05/M07 Q1019 RMK ATIS A;
0133104160999992010010404504+51517+007617FM-15+0148EDLW V0209999C000010057019N0112651N1-00501-00801999999ADDGA1071+005701999GF107991999999999999999999MA1101901999999REMMET064METAR EDLW 040450Z 00000KT 9999 BKN019 M05/M08 Q1019 RMK ATIS B;
0133104160999992010010405204+51517+007617FM-15+0148EDLW V0209999C000010060019N0112651N1-00501-00701999999ADDGA1071+006001999GF107991999999999999999999MA1101901999999REMMET064METAR EDLW 040520Z 00000KT 9999 BKN020 M05/M07 Q1019 RMK ATIS C;
0133104160999992010010405504+51517+007617FM-15+0148EDLW V0209999C000010060019N0112651N1-00501-00701999999ADDGA1071+006001999GF107991999999999999999999MA1101901999999REMMET064METAR EDLW 040550Z 00000KT 9999 BKN020 M05/M07 Q1019 RMK ATIS D;
0133104160999992010010406204+51517+007617FM-15+0148EDLW V0209999V001012200019N0112651N1-00501-00701999999ADDGA1021+006001999GF102991999999999999999999MA1101901999999REMMET064METAR EDLW 040620Z VRB02KT 9999 FEW020 M05/M07 Q1019 RMK ATIS E;
0133104160999992010010406504+51517+007617FM-15+0148EDLW V0209999C000012200019N0112651N1-00601-00801999999ADDGA1021+011101999GF102991999999999999999999MA1101801999999REMMET064METAR EDLW 040650Z 00000KT 9999 FEW037 M06/M08 Q1018 RMK ATIS F;
0133104160999992010010407204+51517+007617FM-15+0148EDLW V0203201N001012200019N0112651N1-00701-00901999999ADDGA1021+012601999GF102991999999999999999999MA1101801999999REMMET064METAR EDLW 040720Z 32002KT 9999 FEW042 M07/M09 Q1018 RMK ATIS G;
0133104160999992010010407504+51517+007617FM-15+0148EDLW V0202601N001012200019N0112651N1-00701-00801999999ADDGA1041+010501999GF104991999999999999999999MA1101801999999REMMET064METAR EDLW 040750Z 26002KT 9999 SCT035 M07/M08 Q1018 RMK ATIS H;
0141104160999992010010408204+51517+007617FM-15+0148EDLW V0202001N002112200019N0112651N1-00601-00701999999ADDGA1041+010201999GF104991999999999999999999MA1101801999999REMMET072METAR EDLW 040820Z 20004KT 180V240 9999 SCT034 M06/M07 Q1018 RMK ATIS I;
0133104160999992010010408504+51517+007617FM-15+0148EDLW V0203101N001512200019N0112651N1-00601-00701999999ADDGA1041+010801999GF104991999999999999999999MA1101801999999REMMET064METAR EDLW 040850Z 31003KT 9999 SCT036 M06/M07 Q1018 RMK ATIS J;
0133104160999992010010409204+51517+007617FM-15+0148EDLW V0202501N002112200019N0112651N1-00501-00701999999ADDGA1041+012001999GF104991999999999999999999MA1101801999999REMMET064METAR EDLW 040920Z 25004KT 9999 SCT040 M05/M07 Q1018 RMK ATIS K;
0133104160999992010010409504+51517+007617FM-15+0148EDLW V0202501N003612200019N0112651N1-00501-00701999999ADDGA1041+008701999GF104991999999999999999999MA1101801999999REMMET064METAR EDLW 040950Z 25007KT 9999 SCT029 M05/M07 Q1018 RMK ATIS L;
0132104160999992010010410204+51517+007617FM-15+0148EDLW V0202401N004110081019N0090001N1-00501-00701999999ADDGA1071+008101999GF107991999999999999999999MA1101691999999MW1711REMMET057METAR EDLW 041020Z 24008KT 9000 -SN BKN027 M05/M07 Q1017;
0143104160999992010010410504+51517+007617FM-15+0148EDLW V0202301N003110090019N0060001N1-00501-00701999999ADDGA1071+009001999GF107991999999999999999999MA1101691999999MW1711REMMET068METAR EDLW 041050Z 23006KT 6000 -SN BKN030 M05/M07 Q1017 RMK ATIS N;
0143104160999992010010411504+51517+007617FM-15+0148EDLW V0202401N003110075019N0060001N1-00501-00601999999ADDGA1071+007501999GF107991999999999999999999MA1101691999999MW1711REMMET068METAR EDLW 041150Z 24006KT 6000 -SN BKN025 M05/M06 Q1017 RMK ATIS P;
0141104160999992010010412204+51517+007617FM-15+0148EDLW V0202401N003110072019N0070001N1-00401-00601999999ADDGA1071+007201999GF107991999999999999999999MA1101591999999REMMET072METAR EDLW 041220Z 24006KT 220V280 7000 BKN024 M04/M06 Q1016 RMK ATIS Q;
0133104160999992010010412504+51517+007617FM-15+0148EDLW V0202301N003110075019N0112651N1-00401-00601999999ADDGA1071+007501999GF107991999999999999999999MA1101591999999REMMET064METAR EDLW 041250Z 23006KT 9999 BKN025 M04/M06 Q1016 RMK ATIS R;
0133104160999992010010413204+51517+007617FM-15+0148EDLW V0202301N003610114019N0112651N1-00401-00601999999ADDGA1071+011401999GF107991999999999999999999MA1101491999999REMMET064METAR EDLW 041320Z 23007KT 9999 BKN038 M04/M06 Q1015 RMK ATIS S;
0133104160999992010010413504+51517+007617FM-15+0148EDLW V0202201N003610105019N0112651N1-00401-00601999999ADDGA1071+010501999GF107991999999999999999999MA1101491999999REMMET064METAR EDLW 041350Z 22007KT 9999 BKN035 M04/M06 Q1015 RMK ATIS T;
0156104160999992010010414204+51517+007617FM-15+0148EDLW V0202401N003610114019N0112651N1-00401-00601999999ADDGA1041+006001999GA2071+011401999GF107991999999999999999999MA1101491999999REMMET071METAR EDLW 041420Z 24007KT 9999 SCT020 BKN038 M04/M06 Q1015 RMK ATIS U;
0133104160999992010010414504+51517+007617FM-15+0148EDLW V0202201N005110051019N0112651N1-00401-00601999999ADDGA1071+005101999GF107991999999999999999999MA1101391999999REMMET064METAR EDLW 041450Z 22010KT 9999 BKN017 M04/M06 Q1014 RMK ATIS V;
0133104160999992010010415204+51517+007617FM-15+0148EDLW V0202001N004610051019N0112651N1-00401-00601999999ADDGA1071+005101999GF107991999999999999999999MA1101391999999REMMET064METAR EDLW 041520Z 20009KT 9999 BKN017 M04/M06 Q1014 RMK ATIS W;
0133104160999992010010415504+51517+007617FM-15+0148EDLW V0202101N004110054019N0112651N1-00401-00601999999ADDGA1071+005401999GF107991999999999999999999MA1101391999999REMMET064METAR EDLW 041550Z 21008KT 9999 BKN018 M04/M06 Q1014 RMK ATIS X;
0133104160999992010010416204+51517+007617FM-15+0148EDLW V0202001N005110051019N0112651N1-00401-00601999999ADDGA1071+005101999GF107991999999999999999999MA1101391999999REMMET064METAR EDLW 041620Z 20010KT 9999 BKN017 M04/M06 Q1014 RMK ATIS Y;
0156104160999992010010416504+51517+007617FM-15+0148EDLW V0202001N004610048019N0112651N1-00401-00601999999ADDGA1041+003901999GA2071+004801999GF107991999999999999999999MA1101391999999REMMET071METAR EDLW 041650Z 20009KT 9999 SCT013 BKN016 M04/M06 Q1014 RMK ATIS Z;
0133104160999992010010417204+51517+007617FM-15+0148EDLW V0202001N004110045019N0112651N1-00401-00501999999ADDGA1071+004501999GF107991999999999999999999MA1101291999999REMMET064METAR EDLW 041720Z 20008KT 9999 BKN015 M04/M05 Q1013 RMK ATIS A;
0133104160999992010010417504+51517+007617FM-15+0148EDLW V0201901N004610045019N0112651N1-00401-00501999999ADDGA1071+004501999GF107991999999999999999999MA1101291999999REMMET064METAR EDLW 041750Z 19009KT 9999 BKN015 M04/M05 Q1013 RMK ATIS B;
0156104160999992010010418204+51517+007617FM-15+0148EDLW V0201901N004610075019N0112651N1-00401-00501999999ADDGA1041+004801999GA2071+007501999GF107991999999999999999999MA1101291999999REMMET071METAR EDLW 041820Z 19009KT 9999 SCT016 BKN025 M04/M05 Q1013 RMK ATIS C;
0133104160999992010010418504+51517+007617FM-15+0148EDLW V0202001N005710066019N0112651N1-00401-00601999999ADDGA1071+006601999GF107991999999999999999999MA1101291999999REMMET064METAR EDLW 041850Z 20011KT 9999 BKN022 M04/M06 Q1013 RMK ATIS D;
0133104160999992010010419204+51517+007617FM-15+0148EDLW V0201901N006210060019N0112651N1-00401-00601999999ADDGA1081+006001999GF108991999999999999999999MA1101191999999REMMET064METAR EDLW 041920Z 19012KT 9999 OVC020 M04/M06 Q1012 RMK ATIS E;
0133104160999992010010419504+51517+007617FM-15+0148EDLW V0201901N006210051019N0112651N1-00401-00601999999ADDGA1081+005101999GF108991999999999999999999MA1101191999999REMMET064METAR EDLW 041950Z 19012KT 9999 OVC017 M04/M06 Q1012 RMK ATIS F;
0133104160999992010010420204+51517+007617FM-15+0148EDLW V0201901N006210051019N0112651N1-00401-00601999999ADDGA1081+005101999GF108991999999999999999999MA1101191999999REMMET064METAR EDLW 042020Z 19012KT 9999 OVC017 M04/M06 Q1012 RMK ATIS G;
0133104160999992010010420504+51517+007617FM-15+0148EDLW V0201901N004610054019N0112651N1-00401-00601999999ADDGA1081+005401999GF108991999999999999999999MA1101191999999REMMET064METAR EDLW 042050Z 19009KT 9999 OVC018 M04/M06 Q1012 RMK ATIS H;
0133104160999992010010504204+51517+007617FM-15+0148EDLW V0201901N005710069019N0112651N1-00301-00501999999ADDGA1071+006901999GF107991999999999999999999MA1100811999999REMMET064METAR EDLW 050420Z 19011KT 9999 BKN023 M03/M05 Q1008 RMK ATIS A;
0133104160999992010010504504+51517+007617FM-15+0148EDLW V0201901N005110066019N0112651N1-00301-00501999999ADDGA1071+006601999GF107991999999999999999999MA1100811999999REMMET064METAR EDLW 050450Z 19010KT 9999 BKN022 M03/M05 Q1008 RMK ATIS B;
0133104160999992010010505204+51517+007617FM-15+0148EDLW V0201901N005110063019N0112651N1-00301-00501999999ADDGA1071+006301999GF107991999999999999999999MA1100811999999REMMET064METAR EDLW 050520Z 19010KT 9999 BKN021 M03/M05 Q1008 RMK ATIS C;
0141104160999992010010505504+51517+007617FM-15+0148EDLW V0202101N002610060019N0112651N1-00301-00401999999ADDGA1071+006001999GF107991999999999999999999MA1100811999999REMMET072METAR EDLW 050550Z 21005KT 170V270 9999 BKN020 M03/M04 Q1008 RMK ATIS D;
0141104160999992010010506204+51517+007617FM-15+0148EDLW V0202001N003110060019N0112651N1-00301-00401999999ADDGA1071+006001999GF107991999999999999999999MA1100711999999REMMET072METAR EDLW 050620Z 20006KT 170V240 9999 BKN020 M03/M04 Q1007 RMK ATIS E;
0133104160999992010010506504+51517+007617FM-15+0148EDLW V0202301N003610069019N0112651N1-00301-00401999999ADDGA1071+006901999GF107991999999999999999999MA1100711999999REMMET064METAR EDLW 050650Z 23007KT 9999 BKN023 M03/M04 Q1007 RMK ATIS F;
0133104160999992010010507204+51517+007617FM-15+0148EDLW V0202101N004110081019N0112651N1-00301-00401999999ADDGA1071+008101999GF107991999999999999999999MA1100711999999REMMET064METAR EDLW 050720Z 21008KT 9999 BKN027 M03/M04 Q1007 RMK ATIS G;
0133104160999992010010507504+51517+007617FM-15+0148EDLW V0201901N004610084019N0112651N1-00301-00401999999ADDGA1071+008401999GF107991999999999999999999MA1100711999999REMMET064METAR EDLW 050750Z 19009KT 9999 BKN028 M03/M04 Q1007 RMK ATIS H;
0133104160999992010010508204+51517+007617FM-15+0148EDLW V0201901N004610075019N0090001N1-00301-00401999999ADDGA1071+007501999GF107991999999999999999999MA1100711999999REMMET064METAR EDLW 050820Z 19009KT 9000 BKN025 M03/M04 Q1007 RMK ATIS I;
0133104160999992010010508504+51517+007617FM-15+0148EDLW V0202101N005712200019N0080001N1-00201-00401999999ADDGA1041+004201999GF104991999999999999999999MA1100711999999REMMET064METAR EDLW 050850Z 21011KT 8000 SCT014 M02/M04 Q1007 RMK ATIS J;
0133104160999992010010509204+51517+007617FM-15+0148EDLW V0201901N003610039019N0090001N1-00201-00401999999ADDGA1071+003901999GF107991999999999999999999MA1100711999999REMMET064METAR EDLW 050920Z 19007KT 9000 BKN013 M02/M04 Q1007 RMK ATIS K;
0133104160999992010010509504+51517+007617FM-15+0148EDLW V0202001N004110030019N0090001N1-00201-00401999999ADDGA1071+003001999GF107991999999999999999999MA1100711999999REMMET064METAR EDLW 050950Z 20008KT 9000 BKN010 M02/M04 Q1007 RMK ATIS L;
0133104160999992010010510204+51517+007617FM-15+0148EDLW V0202001N005710054019N0112651N1-00201-00301999999ADDGA1071+005401999GF107991999999999999999999MA1100611999999REMMET064METAR EDLW 051020Z 20011KT 9999 BKN018 M02/M03 Q1006 RMK ATIS M;
0133104160999992010010510504+51517+007617FM-15+0148EDLW V0202001N004610045019N0112651N1-00201-00301999999ADDGA1071+004501999GF107991999999999999999999MA1100611999999REMMET064METAR EDLW 051050Z 20009KT 9999 BKN015 M02/M03 Q1006 RMK ATIS N;
0133104160999992010010511204+51517+007617FM-15+0148EDLW V0202001N003610033019N0112651N1-00201-00301999999ADDGA1071+003301999GF107991999999999999999999MA1100611999999REMMET064METAR EDLW 051120Z 20007KT 9999 BKN011 M02/M03 Q1006 RMK ATIS O;
0133104160999992010010511504+51517+007617FM-15+0148EDLW V0201901N004110030019N0112651N1-00101-00301999999ADDGA1071+003001999GF107991999999999999999999MA1100611999999REMMET064METAR EDLW 051150Z 19008KT 9999 BKN010 M01/M03 Q1006 RMK ATIS P;
0133104160999992010010512204+51517+007617FM-15+0148EDLW V0202001N003610030019N0112651N1-00101-00301999999ADDGA1071+003001999GF107991999999999999999999MA1100611999999REMMET064METAR EDLW 051220Z 20007KT 9999 BKN010 M01/M03 Q1006 RMK ATIS Q;
0133104160999992010010512504+51517+007617FM-15+0148EDLW V0202101N004110042019N0112651N1-00101-00301999999ADDGA1071+004201999GF107991999999999999999999MA1100511999999REMMET064METAR EDLW 051250Z 21008KT 9999 BKN014 M01/M03 Q1005 RMK ATIS R;
0156104160999992010010513204+51517+007617FM-15+0148EDLW V0201901N004110084019N0112651N1-00101-00301999999ADDGA1041+005401999GA2071+008401999GF107991999999999999999999MA1100511999999REMMET071METAR EDLW 051320Z 19008KT 9999 SCT018 BKN028 M01/M03 Q1005 RMK ATIS S;
0133104160999992010010513504+51517+007617FM-15+0148EDLW V0201901N004610054019N0112651N1-00101-00401999999ADDGA1071+005401999GF107991999999999999999999MA1100511999999REMMET064METAR EDLW 051350Z 19009KT 9999 BKN018 M01/M04 Q1005 RMK ATIS T;
0156104160999992010010514204+51517+007617FM-15+0148EDLW V0201901N004612200019N0112651N1-00201-00401999999ADDGA1041+006001999GA2041+009001999GF104991999999999999999999MA1100511999999REMMET071METAR EDLW 051420Z 19009KT 9999 SCT020 SCT030 M02/M04 Q1005 RMK ATIS U;
0133104160999992010010514504+51517+007617FM-15+0148EDLW V0201901N004110090019N0112651N1-00201-00401999999ADDGA1071+009001999GF107991999999999999999999MA1100511999999REMMET064METAR EDLW 051450Z 19008KT 9999 BKN030 M02/M04 Q1005 RMK ATIS V;
0141104160999992010010515204+51517+007617FM-15+0148EDLW V0201901N004110090019N0112651N1-00201-00401999999ADDGA1071+009001999GF107991999999999999999999MA1100511999999REMMET072METAR EDLW 051520Z 19008KT 160V220 9999 BKN030 M02/M04 Q1005 RMK ATIS W;
0141104160999992010010515504+51517+007617FM-15+0148EDLW V0202401N002110090019N0112651N1-00201-00301999999ADDGA1071+009001999GF107991999999999999999999MA1100511999999REMMET072METAR EDLW 051550Z 24004KT 190V260 9999 BKN030 M02/M03 Q1005 RMK ATIS X;
0133104160999992010010516204+51517+007617FM-15+0148EDLW V0202101N002610075019N0112651N1-00201-00301999999ADDGA1071+007501999GF107991999999999999999999MA1100511999999REMMET064METAR EDLW 051620Z 21005KT 9999 BKN025 M02/M03 Q1005 RMK ATIS Y;
0133104160999992010010516504+51517+007617FM-15+0148EDLW V0202001N002110075019N0112651N1-00201-00301999999ADDGA1071+007501999GF107991999999999999999999MA1100411999999REMMET064METAR EDLW 051650Z 20004KT 9999 BKN025 M02/M03 Q1004 RMK ATIS Z;
0156104160999992010010517204+51517+007617FM-15+0148EDLW V0201801N002610099019N0112651N1-00201-00301999999ADDGA1021+006301999GA2081+009901999GF108991999999999999999999MA1100411999999REMMET071METAR EDLW 051720Z 18005KT 9999 FEW021 OVC033 M02/M03 Q1004 RMK ATIS A;
0132104160999992010010517504+51517+007617FM-15+0148EDLW V0201701N003110105019N0112651N1-00201-00401999999ADDGA1071+010501999GF107991999999999999999999MA1100411999999REMMET063METAR EDLW 051750Z 17006KT 9999 BKN035 M02/M04 Q1004 RMK ATISB;
0084104160999992010010518204+51517+007617FM-15+0148EDLW V0201701N004119999999Y0099001N1-00301-00401999999ADDMA1100411999999REMMET057METAR EDLW 051820Z 17008KT CAVOK M03/M04 Q1004 RMK ATISC;
0093104160999992010010518504+51517+007617FM-15+0148EDLW V0202801N002119999999Y0099001N1-00501-00701999999ADDMA1100411999999REMMET066METAR EDLW 051850Z 28004KT 250V330 CAVOK M05/M07 Q1004 RMK ATIS D;
0085104160999992010010519204+51517+007617FM-15+0148EDLW V0202501N001019999999Y0099001N1-00401-00501999999ADDMA1100411999999REMMET058METAR EDLW 051920Z 25002KT CAVOK M04/M05 Q1004 RMK ATIS E;
0133104160999992010010519504+51517+007617FM-15+0148EDLW V0202401N001512200019N0112651N1-00401-00501999999ADDGA1021+010501999GF102991999999999999999999MA1100411999999REMMET064METAR EDLW 051950Z 24003KT 9999 FEW035 M04/M05 Q1004 RMK ATIS F;
0133104160999992010010520204+51517+007617FM-15+0148EDLW V0202101N002612200019N0112651N1-00401-00501999999ADDGA1041+010501999GF104991999999999999999999MA1100411999999REMMET064METAR EDLW 052020Z 21005KT 9999 SCT035 M04/M05 Q1004 RMK ATIS G;
0133104160999992010010520504+51517+007617FM-15+0148EDLW V0201701N003112200019N0112651N1-00401-00501999999ADDGA1021+010501999GF102991999999999999999999MA1100411999999REMMET064METAR EDLW 052050Z 17006KT 9999 FEW035 M04/M05 Q1004 RMK ATIS H;
0133104160999992010010521204+51517+007617FM-15+0148EDLW V0201801N003612200019N0112651N1-00401-00601999999ADDGA1021+010501999GF102991999999999999999999MA1100311999999REMMET064METAR EDLW 052120Z 18007KT 9999 FEW035 M04/M06 Q1003 RMK ATIS I;
0133104160999992010010603504+51517+007617FM-15+0148EDLW V0201601N003112200019N0112651N1-00701-00801999999ADDGA1041+007201999GF104991999999999999999999MA1100311999999REMMET064METAR EDLW 060350Z 16006KT 9999 SCT024 M07/M08 Q1003 RMK ATIS A;
0133104160999992010010604204+51517+007617FM-15+0148EDLW V0201901N002612200019N0112651N1-00601-00701999999ADDGA1041+007201999GF104991999999999999999999MA1100311999999REMMET064METAR EDLW 060420Z 19005KT 9999 SCT024 M06/M07 Q1003 RMK ATIS B;
0133104160999992010010604504+51517+007617FM-15+0148EDLW V0202001N003112200019N0112651N1-00601-00701999999ADDGA1041+006301999GF104991999999999999999999MA1100311999999REMMET064METAR EDLW 060450Z 20006KT 9999 SCT021 M06/M07 Q1003 RMK ATIS C;
0133104160999992010010605204+51517+007617FM-15+0148EDLW V0202401N001510090019N0112651N1-00501-00701999999ADDGA1071+009001999GF107991999999999999999999MA1100311999999REMMET064METAR EDLW 060520Z 24003KT 9999 BKN030 M05/M07 Q1003 RMK ATIS D;
0133104160999992010010605504+51517+007617FM-15+0148EDLW V0202101N002110093019N0112651N1-00501-00701999999ADDGA1071+009301999GF107991999999999999999999MA1100311999999REMMET064METAR EDLW 060550Z 21004KT 9999 BKN031 M05/M07 Q1003 RMK ATIS E;
0133104160999992010010606204+51517+007617FM-15+0148EDLW V0209999V001512200019N0112651N1-00601-00801999999ADDGA1041+005701999GF104991999999999999999999MA1100311999999REMMET064METAR EDLW 060620Z VRB03KT 9999 SCT019 M06/M08 Q1003 RMK ATIS F;
0133104160999992010010606504+51517+007617FM-15+0148EDLW V0201601N001512200019N0112651N1-00701-00801999999ADDGA1041+008401999GF104991999999999999999999MA1100311999999REMMET064METAR EDLW 060650Z 16003KT 9999 SCT028 M07/M08 Q1003 RMK ATIS G;
0133104160999992010010607204+51517+007617FM-15+0148EDLW V0209999V001012200019N0112651N1-00601-00701999999ADDGA1041+008701999GF104991999999999999999999MA1100311999999REMMET064METAR EDLW 060720Z VRB02KT 9999 SCT029 M06/M07 Q1003 RMK ATIS H;
0133104160999992010010607504+51517+007617FM-15+0148EDLW V0209999V001512200019N0112651N1-00601-00801999999ADDGA1041+008701999GF104991999999999999999999MA1100311999999REMMET064METAR EDLW 060750Z VRB03KT 9999 SCT029 M06/M08 Q1003 RMK ATIS I;
0133104160999992010010608204+51517+007617FM-15+0148EDLW V0209999V001012200019N0112651N1-00601-00801999999ADDGA1021+008701999GF102991999999999999999999MA1100311999999REMMET064METAR EDLW 060820Z VRB02KT 9999 FEW029 M06/M08 Q1003 RMK ATIS J;
0133104160999992010010608504+51517+007617FM-15+0148EDLW V0209999V000512200019N0112651N1-00601-00801999999ADDGA1041+006601999GF104991999999999999999999MA1100311999999REMMET064METAR EDLW 060850Z VRB01KT 9999 SCT022 M06/M08 Q1003 RMK ATIS K;
0156104160999992010010609204+51517+007617FM-15+0148EDLW V0202001N002610096019N0112651N1-00501-00701999999ADDGA1041+007501999GA2071+009601999GF107991999999999999999999MA1100311999999REMMET071METAR EDLW 060920Z 20005KT 9999 SCT025 BKN032 M05/M07 Q1003 RMK ATIS L;
0133104160999992010010609504+51517+007617FM-15+0148EDLW V0209999V000510069019N0070001N1-00401-00601999999ADDGA1071+006901999GF107991999999999999999999MA1100411999999REMMET064METAR EDLW 060950Z VRB01KT 7000 BKN023 M04/M06 Q1004 RMK ATIS M;
0133104160999992010010610204+51517+007617FM-15+0148EDLW V0209999V001510069019N0070001N1-00401-00601999999ADDGA1071+006901999GF107991999999999999999999MA1100311999999REMMET064METAR EDLW 061020Z VRB03KT 7000 BKN023 M04/M06 Q1003 RMK ATIS N;
0133104160999992010010610504+51517+007617FM-15+0148EDLW V0209999V001510084019N0070001N1-00401-00601999999ADDGA1071+008401999GF107991999999999999999999MA1100311999999REMMET064METAR EDLW 061050Z VRB03KT 7000 BKN028 M04/M06 Q1003 RMK ATIS O;
0133104160999992010010611204+51517+007617FM-15+0148EDLW V0209999V001010093019N0070001N1-00301-00501999999ADDGA1071+009301999GF107991999999999999999999MA1100311999999REMMET064METAR EDLW 061120Z VRB02KT 7000 BKN031 M03/M05 Q1003 RMK ATIS P;
0133104160999992010010611504+51517+007617FM-15+0148EDLW V0209999V001010096019N0070001N1-00301-00501999999ADDGA1071+009601999GF107991999999999999999999MA1100311999999REMMET064METAR EDLW 061150Z VRB02KT 7000 BKN032 M03/M05 Q1003 RMK ATIS Q;
0133104160999992010010612204+51517+007617FM-15+0148EDLW V0202301N001510105019N0112651N1-00301-00501999999ADDGA1071+010501999GF107991999999999999999999MA1100311999999REMMET064METAR EDLW 061220Z 23003KT 9999 BKN035 M03/M05 Q1003 RMK ATIS R;
0133104160999992010010612504+51517+007617FM-15+0148EDLW V0202301N001010120019N0112651N1-00201-00501999999ADDGA1071+012001999GF107991999999999999999999MA1100311999999REMMET064METAR EDLW 061250Z 23002KT 9999 BKN040 M02/M05 Q1003 RMK ATIS S;
0133104160999992010010613204+51517+007617FM-15+0148EDLW V0202401N002110123019N0112651N1-00301-00501999999ADDGA1071+012301999GF107991999999999999999999MA1100311999999REMMET064METAR EDLW 061320Z 24004KT 9999 BKN041 M03/M05 Q1003 RMK ATIS T;
0133104160999992010010613504+51517+007617FM-15+0148EDLW V0202501N001512200019N0112651N1-00301-00601999999ADDGA1041+012601999GF104991999999999999999999MA1100311999999REMMET064METAR EDLW 061350Z 25003KT 9999 SCT042 M03/M06 Q1003 RMK ATIS U;
0133104160999992010010614204+51517+007617FM-15+0148EDLW V0202401N002112200019N0090001N1-00401-00601999999ADDGA1041+012901999GF104991999999999999999999MA1100311999999REMMET064METAR EDLW 061420Z 24004KT 9000 SCT043 M04/M06 Q1003 RMK ATIS V;
0141104160999992010010614504+51517+007617FM-15+0148EDLW V0202501N002112200019N0112651N1-00301-00501999999ADDGA1041+014401999GF104991999999999999999999MA1100311999999REMMET072METAR EDLW 061450Z 25004KT 230V290 9999 SCT048 M03/M05 Q1003 RMK ATIS W;
0141104160999992010010615204+51517+007617FM-15+0148EDLW V0202501N002112200019N0112651N1-00401-00601999999ADDGA1021+005101999GF102991999999999999999999MA1100411999999REMMET072METAR EDLW 061520Z 25004KT 230V310 9999 FEW017 M04/M06 Q1004 RMK ATIS X;
0133104160999992010010615504+51517+007617FM-15+0148EDLW V0202301N003112200019N0090001N1-00401-00601999999ADDGA1021+004201999GF102991999999999999999999MA1100411999999REMMET064METAR EDLW 061550Z 23006KT 9000 FEW014 M04/M06 Q1004 RMK ATIS Y;
0085104160999992010010616204+51517+007617FM-15+0148EDLW V0202301N003119999999Y0099001N1-00401-00601999999ADDMA1100411999999REMMET058METAR EDLW 061620Z 23006KT CAVOK M04/M06 Q1004 RMK ATIS Z;
0085104160999992010010616504+51517+007617FM-15+0148EDLW V0202401N002619999999Y0099001N1-00401-00601999999ADDMA1100411999999REMMET058METAR EDLW 061650Z 24005KT CAVOK M04/M06 Q1004 RMK ATIS A;
0133104160999992010010617204+51517+007617FM-15+0148EDLW V0202201N002610075019N0112651N1-00501-00601999999ADDGA1071+007501999GF107991999999999999999999MA1100411999999REMMET064METAR EDLW 061720Z 22005KT 9999 BKN025 M05/M06 Q1004 RMK ATIS B;
0133104160999992010010617504+51517+007617FM-15+0148EDLW V0202201N002110075019N0112651N1-00401-00601999999ADDGA1081+007501999GF108991999999999999999999MA1100411999999REMMET064METAR EDLW 061750Z 22004KT 9999 OVC025 M04/M06 Q1004 RMK ATIS C;
0133104160999992010010618204+51517+007617FM-15+0148EDLW V0202201N002610072019N0112651N1-00401-00501999999ADDGA1081+007201999GF108991999999999999999999MA1100411999999REMMET064METAR EDLW 061820Z 22005KT 9999 OVC024 M04/M05 Q1004 RMK ATIS D;
0133104160999992010010618504+51517+007617FM-15+0148EDLW V0202201N003110075019N0112651N1-00401-00501999999ADDGA1071+007501999GF107991999999999999999999MA1100411999999REMMET064METAR EDLW 061850Z 22006KT 9999 BKN025 M04/M05 Q1004 RMK ATIS E;
0133104160999992010010619204+51517+007617FM-15+0148EDLW V0202101N002610075019N0112651N1-00401-00501999999ADDGA1071+007501999GF107991999999999999999999MA1100511999999REMMET064METAR EDLW 061920Z 21005KT 9999 BKN025 M04/M05 Q1005 RMK ATIS F;
0133104160999992010010619504+51517+007617FM-15+0148EDLW V0209999V001010075019N0112651N1-00401-00501999999ADDGA1071+007501999GF107991999999999999999999MA1100511999999REMMET064METAR EDLW 061950Z VRB02KT 9999 BKN025 M04/M05 Q1005 RMK ATIS G;
0143104160999992010010620204+51517+007617FM-15+0148EDLW V0209999V001010090019N0112651N1-00301-00501999999ADDGA1071+009001999GF107991999999999999999999MA1100511999999MW1711REMMET068METAR EDLW 062020Z VRB02KT 9999 -SN BKN030 M03/M05 Q1005 RMK ATIS H;
0143104160999992010010620504+51517+007617FM-15+0148EDLW V0202101N001510090019N0112651N1-00301-00501999999ADDGA1071+009001999GF107991999999999999999999MA1100511999999MW1711REMMET068METAR EDLW 062050Z 21003KT 9999 -SN BKN030 M03/M05 Q1005 RMK ATIS I;
0150104160999992010010704204+51517+007617FM-15+0148EDLW V0201901N00151000151CN0015001N1-00401-00401999999ADDGA1091+000151999GF109991999999000251999999MA1100611999999MW1101MW2731REMMET069METAR EDLW 070420Z 19003KT 1500 SN BR VV/// M04/M04 Q1006 RMK ATIS A;
0141104160999992010010704504+51517+007617FM-15+0148EDLW V0201901N00211000151CN0015001N1-00401-00401999999ADDGA1091+000151999GF109991999999000251999999MA1100611999999MW1731REMMET066METAR EDLW 070450Z 19004KT 1500 SN VV/// M04/M04 Q1006 RMK ATIS B;
0141104160999992010010705204+51517+007617FM-15+0148EDLW V0201901N00211000151CN0015001N1-00401-00401999999ADDGA1091+000151999GF109991999999000251999999MA1100711999999MW1731REMMET066METAR EDLW 070520Z 19004KT 1500 SN VV/// M04/M04 Q1007 RMK ATIS C;
0141104160999992010010705504+51517+007617FM-15+0148EDLW V0201901N00151000151CN0015001N1-00401-00401999999ADDGA1091+000151999GF109991999999000251999999MA1100711999999MW1731REMMET066METAR EDLW 070550Z 19003KT 1500 SN VV/// M04/M04 Q1007 RMK ATIS D;
0163104160999992010010706204+51517+007617FM-15+0148EDLW V0201901N00151000151CN0012001N1-00401-00401999999ADDED199U20009GA1091+000151999GF109991999999000251999999MA1100711999999MW1731REMMET077METAR EDLW 070620Z 19003KT 1200 R24/P2000N SN VV/// M04/M04 Q1007 RMK ATIS E;
0163104160999992010010706504+51517+007617FM-15+0148EDLW V0209999V00101000151CN0012001N1-00401-00401999999ADDED199U20009GA1091+000151999GF109991999999000251999999MA1100711999999MW1731REMMET077METAR EDLW 070650Z VRB02KT 1200 R24/P2000N SN VV/// M04/M04 Q1007 RMK ATIS F;
0142104160999992010010707504+51517+007617FM-15+0148EDLW V0209999C00001000151CN0020001N1-00401-00401999999ADDGA1091+000151999GF109991999999000251999999MA1100811999999MW1711REMMET067METAR EDLW 070750Z 00000KT 2000 -SN VV/// M04/M04 Q1008 RMK ATIS H;
0141104160999992010010708204+51517+007617FM-15+0148EDLW V0209999C00001000151CN0022001N1-00401-00501999999ADDGA1091+000151999GF109991999999000251999999MA1100811999999MW1101REMMET066METAR EDLW 070820Z 00000KT 2200 BR VV/// M04/M05 Q1008 RMK ATIS I;
0130104160999992010010708504+51517+007617FM-15+0148EDLW V0209999C00001000151CN0022001N1-00401-00501999999ADDGA1091+000151999GF109991999999000251999999MA1100911999999MW1101REMMET055METAR EDLW 070850Z 00000KT 2200 BR VV/// M04/M05 Q1009;
0165104160999992010010709204+51517+007617FM-15+0148EDLW V0209999C000010300019N0033001N1-00401-00401999999ADDGA1021+004801999GA2071+030001999GF107991999999999999999999MA1100911999999MW1101REMMET074METAR EDLW 070920Z 00000KT 3300 BR FEW016 BKN100 M04/M04 Q1009 RMK ATIS K;
0131104160999992010010709504+51517+007617FM-15+0148EDLW V0209999C000010051019N0032001N1-00401-00501999999ADDGA1071+005101999GF107991999999999999999999MA1100911999999MW1101REMMET056METAR EDLW 070950Z 00000KT 3200 BR BKN017 M04/M05 Q1009;
0142104160999992010010710204+51517+007617FM-15+0148EDLW V0209999C000010045019N0035001N1-00301-00401999999ADDGA1081+004501999GF108991999999999999999999MA1100911999999MW1101REMMET067METAR EDLW 071020Z 00000KT 3500 BR OVC015 M03/M04 Q1009 RMK ATIS M;
0142104160999992010010710504+51517+007617FM-15+0148EDLW V0209999V000510054019N0035001N1-00301-00301999999ADDGA1071+005401999GF107991999999999999999999MA1101021999999MW1101REMMET067METAR EDLW 071050Z VRB01KT 3500 BR BKN018 M03/M03 Q1010 RMK ATIS N;
0142104160999992010010711204+51517+007617FM-15+0148EDLW V0201201N001510057019N0030001N1-00201-00301999999ADDGA1081+005701999GF108991999999999999999999MA1101021999999MW1101REMMET067METAR EDLW 071120Z 12003KT 3000 BR OVC019 M02/M03 Q1010 RMK ATIS O;
0142104160999992010010711504+51517+007617FM-15+0148EDLW V0209999V001010096019N0035001N1-00201-00301999999ADDGA1071+009601999GF107991999999999999999999MA1101021999999MW1101REMMET067METAR EDLW 071150Z VRB02KT 3500 BR BKN032 M02/M03 Q1010 RMK ATIS P;
0131104160999992010010712204+51517+007617FM-15+0148EDLW V0209999V001010096019N0050001N1-00201-00601999999ADDGA1071+009601999GF107991999999999999999999MA1101021999999MW1101REMMET056METAR EDLW 071220Z VRB02KT 5000 BR BKN032 M02/M06 Q1010;
0133104160999992010010712504+51517+007617FM-15+0148EDLW V0200501N001012200019N0070001N1-00301-00501999999ADDGA1041+012901999GF104991999999999999999999MA1101021999999REMMET064METAR EDLW 071250Z 05002KT 7000 SCT043 M03/M05 Q1010 RMK ATIS R;
0133104160999992010010713204+51517+007617FM-15+0148EDLW V0200601N001512200019N0070001N1-00301-00501999999ADDGA1041+014101999GF104991999999999999999999MA1101021999999REMMET064METAR EDLW 071320Z 06003KT 7000 SCT047 M03/M05 Q1010 RMK ATIS S;
0133104160999992010010714504+51517+007617FM-15+0148EDLW V0200501N001512200019N0070001N1-00301-00501999999ADDGA1021+003301999GF102991999999999999999999MA1101021999999REMMET064METAR EDLW 071450Z 05003KT 7000 FEW011 M03/M05 Q1010 RMK ATIS V;
0133104160999992010010715204+51517+007617FM-15+0148EDLW V0200601N002112200019N0070001N1-00401-00601999999ADDGA1021+004801999GF102991999999999999999999MA1101021999999REMMET064METAR EDLW 071520Z 06004KT 7000 FEW016 M04/M06 Q1010 RMK ATIS V;
0133104160999992010010715504+51517+007617FM-15+0148EDLW V0200701N002112200019N0070001N1-00501-00601999999ADDGF100991999999999999999999MA1101081999999REMMET061METAR EDLW 071550Z 07004KT 7000 NSC M05/M06 Q1011 RMK ATIS W;EQDQ01    003SCCGA1
0133104160999992010010716204+51517+007617FM-15+0148EDLW V0200701N001512200019N0070001N1-00401-00501999999ADDGF100991999999999999999999MA1101081999999REMMET061METAR EDLW 071620Z 07003KT 7000 NSC M04/M05 Q1011 RMK ATIS X;EQDQ01    003SCCGA1
0142104160999992010010716504+51517+007617FM-15+0148EDLW V0200801N002612200019N0035001N1-00501-00601999999ADDGF100991999999999999999999MA1101081999999MW1101REMMET064METAR EDLW 071650Z 08005KT 3500 BR NSC M05/M06 Q1011 RMK ATIS Z;EQDQ01    003SCCGA1
0142104160999992010010717204+51517+007617FM-15+0148EDLW V0201001N002612200019N0030001N1-00501-00501999999ADDGF100991999999999999999999MA1101191999999MW1101REMMET064METAR EDLW 071720Z 10005KT 3000 BR NSC M05/M05 Q1012 RMK ATIS A;EQDQ01    003SCCGA1
0142104160999992010010717504+51517+007617FM-15+0148EDLW V0209999C000010126019N0030001N1-00601-00601999999ADDGA1071+012601999GF107991999999999999999999MA1101191999999MW1101REMMET067METAR EDLW 071750Z 00000KT 3000 BR BKN042 M06/M06 Q1012 RMK ATIS B;
0142104160999992010010718204+51517+007617FM-15+0148EDLW V0209999V000512200019N0025001N1-00601-00601999999ADDGF100991999999999999999999MA1101291999999MW1101REMMET064METAR EDLW 071820Z VRB01KT 2500 BR NSC M06/M06 Q1013 RMK ATIS C;EQDQ01    003SCCGA1
0158104160999992010010718504+51517+007617FM-15+0148EDLW V0200701N00101000151CN0008001N1-00701-00701999999ADDGA1091+000151999GF109991999999000251999999MA1101291999999MW1491REMMET083METAR EDLW 071850Z 07002KT 0800 R06/1100V1600U FZFG VV/// M07/M07 Q1013 RMK ATIS D;
0159104160999992010010719204+51517+007617FM-15+0148EDLW V0200801N002110021019N0009001N1-00701-00801999999ADDGA1071+002101999GF107991999999999999999999MA1101291999999MW1481REMMET084METAR EDLW 071920Z 08004KT 0900 R06/0200V0400N FZFG BKN007 M07/M08 Q1013 RMK ATIS F;
0142104160999992010010719504+51517+007617FM-15+0148EDLW V0209999V001010018019N0025001N1-00601-00601999999ADDGA1071+001801999GF107991999999999999999999MA1101391999999MW1101REMMET067METAR EDLW 071950Z VRB02KT 2500 BR BKN006 M06/M06 Q1014 RMK ATIS G;
0142104160999992010010720204+51517+007617FM-15+0148EDLW V0200701N001510018019N0035001N1-00501-00501999999ADDGA1071+001801999GF107991999999999999999999MA1101391999999MW1101REMMET067METAR EDLW 072020Z 07003KT 3500 BR BKN006 M05/M05 Q1014 RMK ATIS H;
0141104160999992010010804204+51517+007617FM-15+0148EDLW V0201101N002610054019N0070001N1-00401-00501999999ADDGA1081+005401999GF108991999999999999999999MA1101691999999REMMET072METAR EDLW 080420Z 11005KT 070V130 7000 OVC018 M04/M05 Q1017 RMK ATIS A;
0133104160999992010010804504+51517+007617FM-15+0148EDLW V0200901N002610057019N0070001N1-00401-00501999999ADDGA1081+005701999GF108991999999999999999999MA1101691999999REMMET064METAR EDLW 080450Z 09005KT 7000 OVC019 M04/M05 Q1017 RMK ATIS B;
0133104160999992010010805204+51517+007617FM-15+0148EDLW V0200701N002110057019N0070001N1-00401-00501999999ADDGA1081+005701999GF108991999999999999999999MA1101691999999REMMET064METAR EDLW 080520Z 07004KT 7000 OVC019 M04/M05 Q1017 RMK ATIS C;
0133104160999992010010805504+51517+007617FM-15+0148EDLW V0200901N002110057019N0070001N1-00401-00501999999ADDGA1081+005701999GF108991999999999999999999MA1101691999999REMMET064METAR EDLW 080550Z 09004KT 7000 OVC019 M04/M05 Q1017 RMK ATIS D;
0133104160999992010010806204+51517+007617FM-15+0148EDLW V0200701N002110057019N0070001N1-00401-00501999999ADDGA1081+005701999GF108991999999999999999999MA1101801999999REMMET064METAR EDLW 080620Z 07004KT 7000 OVC019 M04/M05 Q1018 RMK ATIS E;
0133104160999992010010806504+51517+007617FM-15+0148EDLW V0200601N002110054019N0070001N1-00401-00501999999ADDGA1081+005401999GF108991999999999999999999MA1101801999999REMMET064METAR EDLW 080650Z 06004KT 7000 OVC018 M04/M05 Q1018 RMK ATIS F;
0142104160999992010010807204+51517+007617FM-15+0148EDLW V0200501N002110054019N0050001N1-00401-00501999999ADDGA1081+005401999GF108991999999999999999999MA1101801999999MW1101REMMET067METAR EDLW 080720Z 05004KT 5000 BR OVC018 M04/M05 Q1018 RMK ATIS G;
0142104160999992010010807504+51517+007617FM-15+0148EDLW V0209999V001510072019N0050001N1-00401-00501999999ADDGA1071+007201999GF107991999999999999999999MA1101801999999MW1101REMMET067METAR EDLW 080750Z VRB03KT 5000 BR BKN024 M04/M05 Q1018 RMK ATIS H;
0142104160999992010010808204+51517+007617FM-15+0148EDLW V0200501N002110039019N0050001N1-00501-00601999999ADDGA1081+003901999GF108991999999999999999999MA1101801999999MW1101REMMET067METAR EDLW 080820Z 05004KT 5000 BR OVC013 M05/M06 Q1018 RMK ATIS I;
0165104160999992010010808504+51517+007617FM-15+0148EDLW V0200501N003110066019N0045001N1-00401-00501999999ADDGA1041+002401999GA2071+006601999GF107991999999999999999999MA1101901999999MW1101REMMET074METAR EDLW 080850Z 05006KT 4500 BR SCT008 BKN022 M04/M05 Q1019 RMK ATIS J;
0142104160999992010010809204+51517+007617FM-15+0148EDLW V0200501N003610060019N0040001N1-00401-00501999999ADDGA1071+006001999GF107991999999999999999999MA1101901999999MW1101REMMET067METAR EDLW 080920Z 05007KT 4000 BR BKN020 M04/M05 Q1019 RMK ATIS K;
0133104160999992010010809504+51517+007617FM-15+0148EDLW V0200601N003610072019N0070001N1-00401-00601999999ADDGA1071+007201999GF107991999999999999999999MA1101901999999REMMET064METAR EDLW 080950Z 06007KT 7000 BKN024 M04/M06 Q1019 RMK ATIS L;
0141104160999992010010810204+51517+007617FM-15+0148EDLW V0200601N004110069019N0070001N1-00401-00601999999ADDGA1071+006901999GF107991999999999999999999MA1101901999999REMMET072METAR EDLW 081020Z 06008KT 030V090 7000 BKN023 M04/M06 Q1019 RMK ATIS M;
0133104160999992010010810504+51517+007617FM-15+0148EDLW V0200501N004110066019N0060001N1-00401-00601999999ADDGA1071+006601999GF107991999999999999999999MA1101901999999REMMET064METAR EDLW 081050Z 05008KT 6000 BKN022 M04/M06 Q1019 RMK ATIS N;
0133104160999992010010811204+51517+007617FM-15+0148EDLW V0200401N003110069019N0070001N1-00501-00601999999ADDGA1071+006901999GF107991999999999999999999MA1101901999999REMMET064METAR EDLW 081120Z 04006KT 7000 BKN023 M05/M06 Q1019 RMK ATIS O;
0133104160999992010010811504+51517+007617FM-15+0148EDLW V0200401N004112200019N0070001N1-00501-00701999999ADDGF100991999999999999999999MA1101901999999REMMET061METAR EDLW 081150Z 04008KT 7000 NSC M05/M07 Q1019 RMK ATIS P;EQDQ01    003SCCGA1
0133104160999992010010812204+51517+007617FM-15+0148EDLW V0200401N005712200019N0070001N1-00501-00701999999ADDGA1041+004201999GF104991999999999999999999MA1101801999999REMMET064METAR EDLW 081220Z 04011KT 7000 SCT014 M05/M07 Q1018 RMK ATIS Q;
0133104160999992010010812504+51517+007617FM-15+0148EDLW V0200401N005712200019N0090001N1-00501-00701999999ADDGA1041+004201999GF104991999999999999999999MA1101801999999REMMET064METAR EDLW 081250Z 04011KT 9000 SCT014 M05/M07 Q1018 RMK ATIS R;
0141104160999992010010813204+51517+007617FM-15+0148EDLW V0200501N004612200019N0080001N1-00501-00701999999ADDGA1041+004201999GF104991999999999999999999MA1101801999999REMMET072METAR EDLW 081320Z 05009KT 020V080 8000 SCT014 M05/M07 Q1018 RMK ATIS S;
0133104160999992010010813504+51517+007617FM-15+0148EDLW V0200501N004110039019N0080001N1-00501-00601999999ADDGA1071+003901999GF107991999999999999999999MA1101801999999REMMET064METAR EDLW 081350Z 05008KT 8000 BKN013 M05/M06 Q1018 RMK ATIS T;
0133104160999992010010814204+51517+007617FM-15+0148EDLW V0200401N004110045019N0060001N1-00501-00701999999ADDGA1071+004501999GF107991999999999999999999MA1101801999999REMMET064METAR EDLW 081420Z 04008KT 6000 BKN015 M05/M07 Q1018 RMK ATIS U;
0133104160999992010010814504+51517+007617FM-15+0148EDLW V0200401N004610036019N0060001N1-00501-00601999999ADDGA1071+003601999GF107991999999999999999999MA1101801999999REMMET064METAR EDLW 081450Z 04009KT 6000 BKN012 M05/M06 Q1018 RMK ATIS V;
0133104160999992010010815204+51517+007617FM-15+0148EDLW V0200401N005710039019N0112651N1-00401-00601999999ADDGA1071+003901999GF107991999999999999999999MA1101901999999REMMET064METAR EDLW 081520Z 04011KT 9999 BKN013 M04/M06 Q1019 RMK ATIS W;
0133104160999992010010815504+51517+007617FM-15+0148EDLW V0200401N005710033019N0112651N1-00401-00601999999ADDGA1071+003301999GF107991999999999999999999MA1101901999999REMMET064METAR EDLW 081550Z 04011KT 9999 BKN011 M04/M06 Q1019 RMK ATIS V;
0141104160999992010010816204+51517+007617FM-15+0148EDLW V0200501N006710036019N0112651N1-00401-00601999999ADDGA1071+003601999GF107991999999999999999999MA1101901999999REMMET072METAR EDLW 081620Z 05013KT 020V080 9999 BKN012 M04/M06 Q1019 RMK ATIS W;
0133104160999992010010816504+51517+007617FM-15+0148EDLW V0200501N005110036019N0060001N1-00401-00601999999ADDGA1071+003601999GF107991999999999999999999MA1101901999999REMMET064METAR EDLW 081650Z 05010KT 6000 BKN012 M04/M06 Q1019 RMK ATIS X;
0133104160999992010010817204+51517+007617FM-15+0148EDLW V0200601N006210039019N0112651N1-00401-00601999999ADDGA1071+003901999GF107991999999999999999999MA1101901999999REMMET064METAR EDLW 081720Z 06012KT 9999 BKN013 M04/M06 Q1019 RMK ATIS Y;
0143104160999992010010817504+51517+007617FM-15+0148EDLW V0200601N006710042019N0112651N1-00401-00601999999ADDGA1071+004201999GF107991999999999999999999MA1101901999999MW1711REMMET068METAR EDLW 081750Z 06013KT 9999 -SN BKN014 M04/M06 Q1019 RMK ATIS Z;
0133104160999992010010818204+51517+007617FM-15+0148EDLW V0200501N005710039019N0112651N1-00401-00601999999ADDGA1071+003901999GF107991999999999999999999MA1101901999999REMMET064METAR EDLW 081820Z 05011KT 9999 BKN013 M04/M06 Q1019 RMK ATIS A;
0133104160999992010010818504+51517+007617FM-15+0148EDLW V0200401N006210030019N0112651N1-00401-00601999999ADDGA1071+003001999GF107991999999999999999999MA1101901999999REMMET064METAR EDLW 081850Z 04012KT 9999 BKN010 M04/M06 Q1019 RMK ATIS B;
0133104160999992010010819204+51517+007617FM-15+0148EDLW V0200401N005710033019N0112651N1-00501-00601999999ADDGA1071+003301999GF107991999999999999999999MA1101901999999REMMET064METAR EDLW 081920Z 04011KT 9999 BKN011 M05/M06 Q1019 RMK ATIS C;
0133104160999992010010819504+51517+007617FM-15+0148EDLW V0200301N006210030019N0112651N1-00401-00601999999ADDGA1071+003001999GF107991999999999999999999MA1101901999999REMMET064METAR EDLW 081950Z 03012KT 9999 BKN010 M04/M06 Q1019 RMK ATIS D;
0133104160999992010010820204+51517+007617FM-15+0148EDLW V0200401N006710036019N0112651N1-00401-00601999999ADDGA1071+003601999GF107991999999999999999999MA1101901999999REMMET064METAR EDLW 082020Z 04013KT 9999 BKN012 M04/M06 Q1019 RMK ATIS E;
0133104160999992010010820504+51517+007617FM-15+0148EDLW V0200401N007710036019N0112651N1-00401-00601999999ADDGA1071+003601999GF107991999999999999999999MA1101901999999REMMET064METAR EDLW 082050Z 04015KT 9999 BKN012 M04/M06 Q1019 RMK ATIS F;
0133104160999992010010821204+51517+007617FM-15+0148EDLW V0200401N007710036019N0112651N1-00401-00601999999ADDGA1071+003601999GF107991999999999999999999MA1101801999999REMMET064METAR EDLW 082120Z 04015KT 9999 BKN012 M04/M06 Q1018 RMK ATIS G;
0122104160999992010010821504+51517+007617FM-15+0148EDLW V0200501N008210042019N0112651N1-00401-00601999999ADDGA1071+004201999GF107991999999999999999999MA1101801999999REMMET053METAR EDLW 082150Z 05016KT 9999 BKN014 M04/M06 Q1018;
0154104160999992010010904204+51517+007617FM-15+0148EDLW V0200301N007710039019N0060001N1-00401-00401999999ADDGA1071+003901999GF107991999999999999999999MA1101691999999MW1711OC101291REMMET071METAR EDLW 090420Z 03015G25KT 6000 -SN BKN013 M04/M04 Q1017 RMK ATIS A;
0142104160999992010010904504+51517+007617FM-15+0148EDLW V0200301N007710030019N0050001N1-00401-00401999999ADDGA1081+003001999GF108991999999999999999999MA1101591999999MW1731REMMET067METAR EDLW 090450Z 03015KT 5000 SN OVC010 M04/M04 Q1016 RMK ATIS B;
0148104160999992010010905204+51517+007617FM-15+0148EDLW V0200301N007710027019N0035001N1-00401-00401999999ADDGA1081+002701999GF108991999999999999999999MA1101591999999MW1731REMMET073METAR EDLW 090520Z 03015KT 3500 SN OVC009 M04/M04 Q1016 R06/N RMK ATIS C;
0143104160999992010010905504+51517+007617FM-15+0148EDLW V0200301N008210024019N0040001N1-00401-00401999999ADDGA1081+002401999GF108991999999999999999999MA1101591999999MW1711REMMET068METAR EDLW 090550Z 03016KT 4000 -SN OVC008 M04/M04 Q1016 RMK ATIS D;
0143104160999992010010906204+51517+007617FM-15+0148EDLW V0200301N008710021019N0035001N1-00401-00401999999ADDGA1081+002101999GF108991999999999999999999MA1101591999999MW1711REMMET068METAR EDLW 090620Z 03017KT 3500 -SN OVC007 M04/M04 Q1016 RMK ATIS E;
0154104160999992010010906504+51517+007617FM-15+0148EDLW V0200301N008210021019N0035001N1-00401-00401999999ADDGA1081+002101999GF108991999999999999999999MA1101591999999MW1711OC101341REMMET071METAR EDLW 090650Z 03016G26KT 3500 -SN OVC007 M04/M04 Q1016 RMK ATIS F;
0154104160999992010010907204+51517+007617FM-15+0148EDLW V0200301N008210021019N0030001N1-00401-00401999999ADDGA1081+002101999GF108991999999999999999999MA1101591999999MW1711OC101341REMMET071METAR EDLW 090720Z 03016G26KT 3000 -SN OVC007 M04/M04 Q1016 RMK ATIS G;
0143104160999992010010907504+51517+007617FM-15+0148EDLW V0200301N008710018019N0025001N1-00301-00401999999ADDGA1081+001801999GF108991999999999999999999MA1101591999999MW1711REMMET068METAR EDLW 090750Z 03017KT 2500 -SN OVC006 M03/M04 Q1016 RMK ATIS H;
0152104160999992010010908204+51517+007617FM-15+0148EDLW V0200401N007210018019N0018001N1-00301-00301999999ADDGA1081+001801999GF108991999999999999999999MA1101491999999MW1101MW2711REMMET071METAR EDLW 090820Z 04014KT 1800 -SN BR OVC006 M03/M03 Q1015 RMK ATIS I;
0142104160999992010010909204+51517+007617FM-15+0148EDLW V0200401N007710021019N0018001N1-00301-00301999999ADDGA1081+002101999GF108991999999999999999999MA1101491999999MW1731REMMET067METAR EDLW 090920Z 04015KT 1800 SN OVC007 M03/M03 Q1015 RMK ATIS K;
0152104160999992010010909504+51517+007617FM-15+0148EDLW V0200401N007710024019N0018001N1-00301-00301999999ADDGA1081+002401999GF108991999999999999999999MA1101491999999MW1101MW2711REMMET071METAR EDLW 090950Z 04015KT 1800 -SN BR OVC008 M03/M03 Q1015 RMK ATIS L;
0143104160999992010010910204+51517+007617FM-15+0148EDLW V0200401N007210030019N0035001N1-00201-00301999999ADDGA1081+003001999GF108991999999999999999999MA1101491999999MW1711REMMET068METAR EDLW 091020Z 04014KT 3500 -SN OVC010 M02/M03 Q1015 RMK ATIS M;
0143104160999992010010910504+51517+007617FM-15+0148EDLW V0200401N008710036019N0040001N1-00201-00301999999ADDGA1081+003601999GF108991999999999999999999MA1101491999999MW1711REMMET068METAR EDLW 091050Z 04017KT 4000 -SN OVC012 M02/M03 Q1015 RMK ATIS N;
0152104160999992010010911504+51517+007617FM-15+0148EDLW V0200401N007210027019N0018001N1-00201-00301999999ADDGA1081+002701999GF108991999999999999999999MA1101391999999MW1101MW2711REMMET071METAR EDLW 091150Z 04014KT 1800 -SN BR OVC009 M02/M03 Q1014 RMK ATIS P;
0143104160999992010010912204+51517+007617FM-15+0148EDLW V0200401N007710027019N0030001N1-00201-00201999999ADDGA1081+002701999GF108991999999999999999999MA1101291999999MW1711REMMET068METAR EDLW 091220Z 04015KT 3000 -SN OVC009 M02/M02 Q1013 RMK ATIS Q;
0154104160999992010010912504+51517+007617FM-15+0148EDLW V0200401N007710024019N0050001N1-00201-00201999999ADDGA1081+002401999GF108991999999999999999999MA1101291999999MW1711OC101291REMMET071METAR EDLW 091250Z 04015G25KT 5000 -SN OVC008 M02/M02 Q1013 RMK ATIS R;
0143104160999992010010913204+51517+007617FM-15+0148EDLW V0200401N006710024019N0070001N1-00201-00201999999ADDGA1081+002401999GF108991999999999999999999MA1101291999999MW1711REMMET068METAR EDLW 091320Z 04013KT 7000 -SN OVC008 M02/M02 Q1013 RMK ATIS S;
0143104160999992010010913504+51517+007617FM-15+0148EDLW V0200401N006710024019N0060001N1-00201-00201999999ADDGA1071+002401999GF107991999999999999999999MA1101291999999MW1711REMMET068METAR EDLW 091350Z 04013KT 6000 -SN BKN008 M02/M02 Q1013 RMK ATIS T;
0143104160999992010010914204+51517+007617FM-15+0148EDLW V0200401N007710027019N0112651N1-00201-00201999999ADDGA1071+002701999GF107991999999999999999999MA1101291999999MW1711REMMET068METAR EDLW 091420Z 04015KT 9999 -SN BKN009 M02/M02 Q1013 RMK ATIS U;
0143104160999992010010914504+51517+007617FM-15+0148EDLW V0200501N007710042019N0112651N1-00201-00301999999ADDGA1071+004201999GF107991999999999999999999MA1101291999999MW1711REMMET068METAR EDLW 091450Z 05015KT 9999 -SN BKN014 M02/M03 Q1013 RMK ATIS V;
0138104160999992010010915204+51517+007617FM-15+0148EDLW V0200501N007210048019N0112651N1-00201-00301999999ADDGA1071+004801999GF107991999999999999999999MA1101291999999REMMET069METAR EDLW 091520Z 05014KT 9999 BKN016 M02/M03 Q1013 RESN RMK ATIS W;
0132104160999992010010915504+51517+007617FM-15+0148EDLW V0200501N007710063019N0112651N1-00201-00401999999ADDGA1071+006301999GF107991999999999999999999MA1101291999999REMMET063METAR EDLW 091550Z 05015KT 9999 BKN021 M02/M04 Q1013 RMK ATISX;
0143104160999992010010916204+51517+007617FM-15+0148EDLW V0200601N007710060019N0112651N1-00201-00401999999ADDGA1071+006001999GF107991999999999999999999MA1101291999999MW1711REMMET068METAR EDLW 091620Z 06015KT 9999 -SN BKN020 M02/M04 Q1013 RMK ATIS Y;
0143104160999992010010916504+51517+007617FM-15+0148EDLW V0200601N006210060019N0112651N1-00201-00401999999ADDGA1071+006001999GF107991999999999999999999MA1101291999999MW1711REMMET068METAR EDLW 091650Z 06012KT 9999 -SN BKN020 M02/M04 Q1013 RMK ATIS Z;
0143104160999992010010917204+51517+007617FM-15+0148EDLW V0209999V006210060019N0112651N1-00201-00501999999ADDGA1071+006001999GF107991999999999999999999MA1101291999999MW1711REMMET068METAR EDLW 091720Z VRB12KT 9999 -SN BKN020 M02/M05 Q1013 RMK ATIS A;
0143104160999992010010917504+51517+007617FM-15+0148EDLW V0200501N006710060019N0112651N1-00201-00501999999ADDGA1071+006001999GF107991999999999999999999MA1101191999999MW1711REMMET068METAR EDLW 091750Z 05013KT 9999 -SN BKN020 M02/M05 Q1012 RMK ATIS B;
0132104160999992010010918204+51517+007617FM-15+0148EDLW V0200501N006210060019N0112651N1-00201-00501999999ADDGA1071+006001999GF107991999999999999999999MA1101191999999REMMET063METAR EDLW 091820Z 05012KT 9999 BKN020 M02/M05 Q1012 RMK ATISC;
0133104160999992010010918504+51517+007617FM-15+0148EDLW V0200501N006210060019N0112651N1-00201-00501999999ADDGA1071+006001999GF107991999999999999999999MA1101191999999REMMET064METAR EDLW 091850Z 05012KT 9999 BKN020 M02/M05 Q1012 RMK ATIS D;
0133104160999992010010919204+51517+007617FM-15+0148EDLW V0200501N007210060019N0112651N1-00201-00501999999ADDGA1071+006001999GF107991999999999999999999MA1101191999999REMMET064METAR EDLW 091920Z 05014KT 9999 BKN020 M02/M05 Q1012 RMK ATIS E;
0133104160999992010010919504+51517+007617FM-15+0148EDLW V0200601N005710060019N0112651N1-00201-00501999999ADDGA1071+006001999GF107991999999999999999999MA1101191999999REMMET064METAR EDLW 091950Z 06011KT 9999 BKN020 M02/M05 Q1012 RMK ATIS F;
0133104160999992010010920204+51517+007617FM-15+0148EDLW V0200601N006210060019N0112651N1-00201-00501999999ADDGA1071+006001999GF107991999999999999999999MA1101191999999REMMET064METAR EDLW 092020Z 06012KT 9999 BKN020 M02/M05 Q1012 RMK ATIS G;
0133104160999992010010920504+51517+007617FM-15+0148EDLW V0200501N006210060019N0112651N1-00201-00501999999ADDGA1071+006001999GF107991999999999999999999MA1101191999999REMMET064METAR EDLW 092050Z 05012KT 9999 BKN020 M02/M05 Q1012 RMK ATIS H;
0133104160999992010010921204+51517+007617FM-15+0148EDLW V0200501N006710060019N0112651N1-00201-00501999999ADDGA1071+006001999GF107991999999999999999999MA1101191999999REMMET064METAR EDLW 092120Z 05013KT 9999 BKN020 M02/M05 Q1012 RMK ATIS I;
0156104160999992010011004204+51517+007617FM-15+0148EDLW V0200401N003610135019N0112651N1-00201-00401999999ADDGA1021+004201999GA2071+013501999GF107991999999999999999999MA1101191999999REMMET071METAR EDLW 100420Z 04007KT 9999 FEW014 BKN045 M02/M04 Q1012 RMK ATIS A;
0166104160999992010011004504+51517+007617FM-15+0148EDLW V0200501N003610069019N0112651N1-00301-00401999999ADDGA1041+003901999GA2071+006901999GF107991999999999999999999MA1101191999999MW1711REMMET075METAR EDLW 100450Z 05007KT 9999 -SN SCT013 BKN023 M03/M04 Q1012 RMK ATIS B;
0166104160999992010011005204+51517+007617FM-15+0148EDLW V0200401N003110150019N0112651N1-00301-00401999999ADDGA1041+007501999GA2071+015001999GF107991999999999999999999MA1101191999999MW1711REMMET075METAR EDLW 100520Z 04006KT 9999 -SN SCT025 BKN050 M03/M04 Q1012 RMK ATIS C;
0166104160999992010011005504+51517+007617FM-15+0148EDLW V0200401N003610150019N0112651N1-00301-00301999999ADDGA1041+003001999GA2071+015001999GF107991999999999999999999MA1101191999999MW1711REMMET075METAR EDLW 100550Z 04007KT 9999 -SN SCT010 BKN055 M03/M03 Q1012 RMK ATIS D;
0166104160999992010011006204+51517+007617FM-15+0148EDLW V0200401N003110150019N0112651N1-00301-00301999999ADDGA1041+003001999GA2071+015001999GF107991999999999999999999MA1101191999999MW1711REMMET075METAR EDLW 100620Z 04006KT 9999 -SN SCT010 BKN055 M03/M03 Q1012 RMK ATIS E;
0166104160999992010011006504+51517+007617FM-15+0148EDLW V0200401N003610150019N0080001N1-00301-00401999999ADDGA1041+003001999GA2071+015001999GF107991999999999999999999MA1101191999999MW1711REMMET075METAR EDLW 100650Z 04007KT 8000 -SN SCT010 BKN055 M03/M04 Q1012 RMK ATIS F;
0143104160999992010011007204+51517+007617FM-15+0148EDLW V0200401N003610030019N0080001N1-00301-00301999999ADDGA1081+003001999GF108991999999999999999999MA1101291999999MW1711REMMET068METAR EDLW 100720Z 04007KT 8000 -SN OVC010 M03/M03 Q1013 RMK ATIS G;
0143104160999992010011007504+51517+007617FM-15+0148EDLW V0200401N003610021019N0050001N1-00301-00301999999ADDGA1081+002101999GF108991999999999999999999MA1101291999999MW1711REMMET068METAR EDLW 100750Z 04007KT 5000 -SN OVC007 M03/M03 Q1013 RMK ATIS I;
0143104160999992010011008204+51517+007617FM-15+0148EDLW V0200401N003110021019N0040001N1-00301-00301999999ADDGA1081+002101999GF108991999999999999999999MA1101291999999MW1711REMMET068METAR EDLW 100820Z 04006KT 4000 -SN OVC007 M03/M03 Q1013 RMK ATIS J;
0143104160999992010011008504+51517+007617FM-15+0148EDLW V0200401N003110018019N0025001N1-00301-00301999999ADDGA1081+001801999GF108991999999999999999999MA1101391999999MW1711REMMET068METAR EDLW 100850Z 04006KT 2500 -SN OVC006 M03/M03 Q1014 RMK ATIS K;
0143104160999992010011009204+51517+007617FM-15+0148EDLW V0200401N003110018019N0020001N1-00301-00301999999ADDGA1081+001801999GF108991999999999999999999MA1101391999999MW1711REMMET068METAR EDLW 100920Z 04006KT 2000 -SN OVC006 M03/M03 Q1014 RMK ATIS L;
0143104160999992010011009504+51517+007617FM-15+0148EDLW V0200501N002610015019N0030001N1-00301-00301999999ADDGA1081+001501999GF108991999999999999999999MA1101391999999MW1711REMMET068METAR EDLW 100950Z 05005KT 3000 -SN OVC005 M03/M03 Q1014 RMK ATIS M;
0141104160999992010011010204+51517+007617FM-15+0148EDLW V0200401N003110027019N0080001N1-00201-00301999999ADDGA1081+002701999GF108991999999999999999999MA1101391999999REMMET072METAR EDLW 101020Z 04006KT 010V070 8000 OVC009 M02/M03 Q1014 RMK ATIS N;
0133104160999992010011010504+51517+007617FM-15+0148EDLW V0200501N004110030019N0090001N1-00201-00301999999ADDGA1081+003001999GF108991999999999999999999MA1101391999999REMMET064METAR EDLW 101050Z 05008KT 9000 OVC010 M02/M03 Q1014 RMK ATIS O;
0133104160999992010011011204+51517+007617FM-15+0148EDLW V0200501N004110030019N0112651N1-00201-00301999999ADDGA1071+003001999GF107991999999999999999999MA1101391999999REMMET064METAR EDLW 101120Z 05008KT 9999 BKN010 M02/M03 Q1014 RMK ATIS P;
0133104160999992010011011504+51517+007617FM-15+0148EDLW V0200601N004110036019N0112651N1-00201-00301999999ADDGA1071+003601999GF107991999999999999999999MA1101391999999REMMET064METAR EDLW 101150Z 06008KT 9999 BKN012 M02/M03 Q1014 RMK ATIS Q;
0133104160999992010011012204+51517+007617FM-15+0148EDLW V0200601N004110039019N0112651N1-00201-00401999999ADDGA1071+003901999GF107991999999999999999999MA1101391999999REMMET064METAR EDLW 101220Z 06008KT 9999 BKN013 M02/M04 Q1014 RMK ATIS R;
0133104160999992010011012504+51517+007617FM-15+0148EDLW V0200701N004610039019N0112651N1-00201-00401999999ADDGA1071+003901999GF107991999999999999999999MA1101391999999REMMET064METAR EDLW 101250Z 07009KT 9999 BKN013 M02/M04 Q1014 RMK ATIS S;
0156104160999992010011013204+51517+007617FM-15+0148EDLW V0200601N004110150019N0112651N1-00201-00401999999ADDGA1041+004801999GA2071+015001999GF107991999999999999999999MA1101391999999REMMET071METAR EDLW 101320Z 06008KT 9999 SCT016 BKN050 M02/M04 Q1014 RMK ATIS T;
0166104160999992010011013504+51517+007617FM-15+0148EDLW V0200701N004110048019N0090001N1-00201-00401999999ADDGA1021+003601999GA2071+004801999GF107991999999999999999999MA1101491999999MW1711REMMET075METAR EDLW 101350Z 07008KT 9000 -SN FEW012 BKN016 M02/M04 Q1015 RMK ATIS U;
0133104160999992010011014204+51517+007617FM-15+0148EDLW V0200601N003112200019N0090001N1-00201-00401999999ADDGA1021+003601999GF102991999999999999999999MA1101491999999REMMET064METAR EDLW 101420Z 06006KT 9000 FEW012 M02/M04 Q1015 RMK ATIS V;
0085104160999992010011014504+51517+007617FM-15+0148EDLW V0200601N003619999999Y0099001N1-00201-00401999999ADDMA1101491999999REMMET058METAR EDLW 101450Z 06007KT CAVOK M02/M04 Q1015 RMK ATIS W;
0085104160999992010011015204+51517+007617FM-15+0148EDLW V0200601N003619999999Y0099001N1-00201-00401999999ADDMA1101491999999REMMET058METAR EDLW 101520Z 06007KT CAVOK M02/M04 Q1015 RMK ATIS X;
0133104160999992010011015504+51517+007617FM-15+0148EDLW V0200701N003110138019N0090001N1-00201-00401999999ADDGA1081+013801999GF108991999999999999999999MA1101491999999REMMET064METAR EDLW 101550Z 07006KT 9000 OVC046 M02/M04 Q1015 RMK ATIS Y;
0156104160999992010011016204+51517+007617FM-15+0148EDLW V0200601N002610138019N0112651N1-00201-00401999999ADDGA1021+004501999GA2071+013801999GF107991999999999999999999MA1101591999999REMMET071METAR EDLW 101620Z 06005KT 9999 FEW015 BKN046 M02/M04 Q1016 RMK ATIS Z;
0133104160999992010011016504+51517+007617FM-15+0148EDLW V0200601N003610138019N0112651N1-00201-00401999999ADDGA1081+013801999GF108991999999999999999999MA1101591999999REMMET064METAR EDLW 101650Z 06007KT 9999 OVC046 M02/M04 Q1016 RMK ATIS A;
0133104160999992010011017204+51517+007617FM-15+0148EDLW V0200701N003110129019N0112651N1-00201-00401999999ADDGA1081+012901999GF108991999999999999999999MA1101591999999REMMET064METAR EDLW 101720Z 07006KT 9999 OVC043 M02/M04 Q1016 RMK ATIS B;
0133104160999992010011017504+51517+007617FM-15+0148EDLW V0200601N002110126019N0112651N1-00201-00401999999ADDGA1081+012601999GF108991999999999999999999MA1101591999999REMMET064METAR EDLW 101750Z 06004KT 9999 OVC042 M02/M04 Q1016 RMK ATIS C;
0133104160999992010011018204+51517+007617FM-15+0148EDLW V0200701N003110126019N0112651N1-00201-00401999999ADDGA1081+012601999GF108991999999999999999999MA1101591999999REMMET064METAR EDLW 101820Z 07006KT 9999 OVC042 M02/M04 Q1016 RMK ATIS D;
0133104160999992010011018504+51517+007617FM-15+0148EDLW V0200701N003110129019N0112651N1-00201-00401999999ADDGA1081+012901999GF108991999999999999999999MA1101591999999REMMET064METAR EDLW 101850Z 07006KT 9999 OVC043 M02/M04 Q1016 RMK ATIS E;
0085104160999992010011019204+51517+007617FM-15+0148EDLW V0200601N003119999999Y0099001N1-00201-00401999999ADDMA1101691999999REMMET058METAR EDLW 101920Z 06006KT CAVOK M02/M04 Q1017 RMK ATIS F;
0133104160999992010011020204+51517+007617FM-15+0148EDLW V0200601N002612200019N0112651N1-00301-00401999999ADDGA1041+003301999GF104991999999999999999999MA1101691999999REMMET064METAR EDLW 102020Z 06005KT 9999 SCT011 M03/M04 Q1017 RMK ATIS H;
0133104160999992010011020504+51517+007617FM-15+0148EDLW V0200601N003612200019N0112651N1-00301-00401999999ADDGA1021+002701999GF102991999999999999999999MA1101691999999REMMET064METAR EDLW 102050Z 06007KT 9999 FEW009 M03/M04 Q1017 RMK ATIS I;
0153104160999992010011104504+51517+007617FM-15+0148EDLW V0209999V001510018019N0008001N1-00201-00201999999ADDED199U20009GA1071+001801999GF107991999999999999999999MA1101691999999MW1731REMMET067METAR EDLW 110450Z VRB03KT 0800 R24/P2000N SN BKN006 M02/M02 Q1017;
0169104160999992010011105204+51517+007617FM-15+0148EDLW V0202601N001510012019N0011001N1-00201-00201999999ADDED199U20009GA1071+001201999GF107991999999999999999999MA1101691999999MW1101REMMET083METAR EDLW 110520Z 26003KT 1100 R24/P2000N BR BKN004 M02/M02 Q1017 RESN RMK ATIS C;
0174104160999992010011105504+51517+007617FM-15+0148EDLW V0209999V001010012019N0011001N1-00201-00201999999ADDED199U20009GA1071+001201999GF107991999999999999999999MA1101691999999MW1101MW2711REMMET082METAR EDLW 110550Z VRB02KT 1100 R24/P2000N -SN BR BKN004 M02/M02 Q1017 RMK ATIS D;
0142104160999992010011106204+51517+007617FM-15+0148EDLW V0209999V000510039019N0015001N1-00201-00201999999ADDGA1071+003901999GF107991999999999999999999MA1101691999999MW1101REMMET067METAR EDLW 110620Z VRB01KT 1500 BR BKN013 M02/M02 Q1017 RMK ATIS E;
0152104160999992010011106504+51517+007617FM-15+0148EDLW V0209999V001010057019N0018001N1-00201-00201999999ADDGA1071+005701999GF107991999999999999999999MA1101691999999MW1101MW2711REMMET071METAR EDLW 110650Z VRB02KT 1800 -SN BR BKN019 M02/M02 Q1017 RMK ATIS F;
0142104160999992010011107204+51517+007617FM-15+0148EDLW V0209999V001510045019N0025001N1-00201-00201999999ADDGA1071+004501999GF107991999999999999999999MA1101591999999MW1101REMMET067METAR EDLW 110720Z VRB03KT 2500 BR BKN015 M02/M02 Q1016 RMK ATIS G;
0133104160999992010011107504+51517+007617FM-15+0148EDLW V0200501N002610039019N0090001N1-00101-00201999999ADDGA1071+003901999GF107991999999999999999999MA1101591999999REMMET064METAR EDLW 110750Z 05005KT 9000 BKN013 M01/M02 Q1016 RMK ATIS H;
0133104160999992010011108204+51517+007617FM-15+0148EDLW V0200601N002610039019N0112651N1-00101-00201999999ADDGA1071+003901999GF107991999999999999999999MA1101691999999REMMET064METAR EDLW 110820Z 06005KT 9999 BKN013 M01/M02 Q1017 RMK ATIS I;
0133104160999992010011108504+51517+007617FM-15+0148EDLW V0200601N001510036019N0112651N1-00101-00201999999ADDGA1071+003601999GF107991999999999999999999MA1101691999999REMMET064METAR EDLW 110850Z 06003KT 9999 BKN012 M01/M02 Q1017 RMK ATIS J;
0133104160999992010011109204+51517+007617FM-15+0148EDLW V0200701N002610042019N0112651N1-00101-00201999999ADDGA1071+004201999GF107991999999999999999999MA1101691999999REMMET064METAR EDLW 110920Z 07005KT 9999 BKN014 M01/M02 Q1017 RMK ATIS K;
0133104160999992010011109504+51517+007617FM-15+0148EDLW V0200801N003610030019N0112651N1-00101-00301999999ADDGA1071+003001999GF107991999999999999999999MA1101691999999REMMET064METAR EDLW 110950Z 08007KT 9999 BKN010 M01/M03 Q1017 RMK ATIS L;
0156104160999992010011110204+51517+007617FM-15+0148EDLW V0200701N003110054019N0112651N1-00101-00301999999ADDGA1021+003001999GA2071+005401999GF107991999999999999999999MA1101691999999REMMET071METAR EDLW 111020Z 07006KT 9999 FEW010 BKN018 M01/M03 Q1017 RMK ATIS M;
0133104160999992010011110504+51517+007617FM-15+0148EDLW V0200601N003610045019N0112651N1-00101-00301999999ADDGA1071+004501999GF107991999999999999999999MA1101691999999REMMET064METAR EDLW 111050Z 06007KT 9999 BKN015 M01/M03 Q1017 RMK ATIS N;
0133104160999992010011111204+51517+007617FM-15+0148EDLW V0200601N003110036019N0112651N1-00101-00301999999ADDGA1071+003601999GF107991999999999999999999MA1101691999999REMMET064METAR EDLW 111120Z 06006KT 9999 BKN012 M01/M03 Q1017 RMK ATIS O;
0141104160999992010011111504+51517+007617FM-15+0148EDLW V0200601N003110030019N0112651N1-00101-00301999999ADDGA1071+003001999GF107991999999999999999999MA1101591999999REMMET072METAR EDLW 111150Z 06006KT 360V080 9999 BKN010 M01/M03 Q1016 RMK ATIS P;
0133104160999992010011112204+51517+007617FM-15+0148EDLW V0200701N002610039019N0112651N1-00101-00301999999ADDGA1071+003901999GF107991999999999999999999MA1101591999999REMMET064METAR EDLW 111220Z 07005KT 9999 BKN013 M01/M03 Q1016 RMK ATIS Q;
0133104160999992010011112504+51517+007617FM-15+0148EDLW V0200701N003110039019N0112651N1-00101-00301999999ADDGA1071+003901999GF107991999999999999999999MA1101591999999REMMET064METAR EDLW 111250Z 07006KT 9999 BKN013 M01/M03 Q1016 RMK ATIS R;
0133104160999992010011113204+51517+007617FM-15+0148EDLW V0200601N003610045019N0112651N1-00101-00301999999ADDGA1071+004501999GF107991999999999999999999MA1101591999999REMMET064METAR EDLW 111320Z 06007KT 9999 BKN015 M01/M03 Q1016 RMK ATIS S;
0133104160999992010011113504+51517+007617FM-15+0148EDLW V0200401N004110036019N0090001N1-00101-00401999999ADDGA1071+003601999GF107991999999999999999999MA1101591999999REMMET064METAR EDLW 111350Z 04008KT 9000 BKN012 M01/M04 Q1016 RMK ATIS T;
0133104160999992010011114204+51517+007617FM-15+0148EDLW V0200501N003610054019N0090001N1-00201-00401999999ADDGA1071+005401999GF107991999999999999999999MA1101591999999REMMET064METAR EDLW 111420Z 05007KT 9000 BKN018 M02/M04 Q1016 RMK ATIS U;
0133104160999992010011114504+51517+007617FM-15+0148EDLW V0200601N004110063019N0080001N1-00201-00401999999ADDGA1071+006301999GF107991999999999999999999MA1101591999999REMMET064METAR EDLW 111450Z 06008KT 8000 BKN021 M02/M04 Q1016 RMK ATIS V;
0133104160999992010011115204+51517+007617FM-15+0148EDLW V0200701N003610057019N0090001N1-00201-00501999999ADDGA1071+005701999GF107991999999999999999999MA1101691999999REMMET064METAR EDLW 111520Z 07007KT 9000 BKN019 M02/M05 Q1017 RMK ATIS W;
0133104160999992010011115504+51517+007617FM-15+0148EDLW V0200701N004110072019N0090001N1-00201-00501999999ADDGA1071+007201999GF107991999999999999999999MA1101691999999REMMET064METAR EDLW 111550Z 07008KT 9000 BKN024 M02/M05 Q1017 RMK ATIS X;
0156104160999992010011116204+51517+007617FM-15+0148EDLW V0200701N003610141019N0112651N1-00201-00501999999ADDGA1021+007501999GA2071+014101999GF107991999999999999999999MA1101691999999REMMET071METAR EDLW 111620Z 07007KT 9999 FEW025 BKN047 M02/M05 Q1017 RMK ATIS Y;
0133104160999992010011116504+51517+007617FM-15+0148EDLW V0200701N003110135019N0112651N1-00201-00501999999ADDGA1071+013501999GF107991999999999999999999MA1101691999999REMMET064METAR EDLW 111650Z 07006KT 9999 BKN045 M02/M05 Q1017 RMK ATIS Z;
0133104160999992010011117204+51517+007617FM-15+0148EDLW V0200601N003110132019N0112651N1-00201-00501999999ADDGA1071+013201999GF107991999999999999999999MA1101691999999REMMET064METAR EDLW 111720Z 06006KT 9999 BKN044 M02/M05 Q1017 RMK ATIS A;
0133104160999992010011117504+51517+007617FM-15+0148EDLW V0200701N002610129019N0112651N1-00301-00501999999ADDGA1071+012901999GF107991999999999999999999MA1101691999999REMMET064METAR EDLW 111750Z 07005KT 9999 BKN043 M03/M05 Q1017 RMK ATIS B;
0133104160999992010011118204+51517+007617FM-15+0148EDLW V0200701N002110132019N0112651N1-00301-00501999999ADDGA1071+013201999GF107991999999999999999999MA1101691999999REMMET064METAR EDLW 111820Z 07004KT 9999 BKN044 M03/M05 Q1017 RMK ATIS C;
0133104160999992010011118504+51517+007617FM-15+0148EDLW V0200801N002610117019N0112651N1-00301-00501999999ADDGA1071+011701999GF107991999999999999999999MA1101691999999REMMET064METAR EDLW 111850Z 08005KT 9999 BKN039 M03/M05 Q1017 RMK ATIS D;
0133104160999992010011119204+51517+007617FM-15+0148EDLW V0200701N001510111019N0112651N1-00301-00501999999ADDGA1071+011101999GF107991999999999999999999MA1101691999999REMMET064METAR EDLW 111920Z 07003KT 9999 BKN037 M03/M05 Q1017 RMK ATIS E;
0141104160999992010011119504+51517+007617FM-15+0148EDLW V0200701N002110111019N0112651N1-00301-00501999999ADDGA1071+011101999GF107991999999999999999999MA1101691999999REMMET072METAR EDLW 111950Z 07004KT 040V100 9999 BKN037 M03/M05 Q1017 RMK ATIS F;
0133104160999992010011120204+51517+007617FM-15+0148EDLW V0200601N001510105019N0112651N1-00301-00501999999ADDGA1071+010501999GF107991999999999999999999MA1101691999999REMMET064METAR EDLW 112020Z 06003KT 9999 BKN035 M03/M05 Q1017 RMK ATIS G;
0133104160999992010011120504+51517+007617FM-15+0148EDLW V0200501N001510096019N0112651N1-00301-00501999999ADDGA1071+009601999GF107991999999999999999999MA1101691999999REMMET064METAR EDLW 112050Z 05003KT 9999 BKN032 M03/M05 Q1017 RMK ATIS H;
0133104160999992010011121204+51517+007617FM-15+0148EDLW V0200601N002610090019N0112651N1-00301-00501999999ADDGA1071+009001999GF107991999999999999999999MA1101691999999REMMET064METAR EDLW 112120Z 06005KT 9999 BKN030 M03/M05 Q1017 RMK ATIS I;
0186104160999992010011204204+51517+007617FM-15+0148EDLW V0200701N001510150019N0013001N1-00501-00501999999ADDED199U19009GA1021+007501999GA2071+015001999GF107991999999999999999999MA1101691999999MW1101REMMET084METAR EDLW 120420Z 07003KT 1300 R06/1900U BR FEW025 BKN052 M05/M05 Q1017 RMK ATIS A;
0164104160999992010011204504+51517+007617FM-15+0148EDLW V0209999V00051000151CN0008001N1-00601-00601999999ADDED199U05009GA1091+000151999GF109991999999000251999999MA1101691999999MW1491REMMET078METAR EDLW 120450Z VRB01KT 0800 R06/0500D FZFG VV/// M06/M06 Q1017 RMK ATIS B;
0160104160999992010011205204+51517+007617FM-15+0148EDLW V0200801N001512200019N0008001N1-00701-00801999999ADDGF100991999999999999999999MA1101691999999MW1481REMMET082METAR EDLW 120520Z 08003KT 0800 R06/0800VP2000U FZFG NSC M07/M08 Q1017 RMK ATIS C;EQDQ01    003SCCGA1
0166104160999992010011205504+51517+007617FM-15+0148EDLW V0200701N001010120019N0008001N1-00701-00701999999ADDED199U20009GA1071+012001999GF107991999999999999999999MA1101691999999MW1481REMMET080METAR EDLW 120550Z 07002KT 0800 R06/P2000N FZFG BKN040 M07/M07 Q1017 RMK ATIS D;
0164104160999992010011206204+51517+007617FM-15+0148EDLW V0200501N001510120019N0011001N1-00701-00701999999ADDED199U20009GA1071+012001999GF107991999999999999999999MA1101691999999MW1101REMMET078METAR EDLW 120620Z 05003KT 1100 R06/P2000N BR BKN040 M07/M07 Q1017 RMK ATIS E;
0164104160999992010011206504+51517+007617FM-15+0148EDLW V0200701N001010117019N0011001N1-00701-00701999999ADDED199U20009GA1071+011701999GF107991999999999999999999MA1101691999999MW1101REMMET078METAR EDLW 120650Z 07002KT 1100 R06/P2000U BR BKN039 M07/M07 Q1017 RMK ATIS F;
0142104160999992010011207204+51517+007617FM-15+0148EDLW V0209999V001010114019N0017001N1-00601-00701999999ADDGA1071+011401999GF107991999999999999999999MA1101591999999MW1101REMMET067METAR EDLW 120720Z VRB02KT 1700 BR BKN038 M06/M07 Q1016 RMK ATIS G;
0142104160999992010011207504+51517+007617FM-15+0148EDLW V0200701N001010108019N0024001N1-00601-00601999999ADDGA1071+010801999GF107991999999999999999999MA1101591999999MW1101REMMET067METAR EDLW 120750Z 07002KT 2400 BR BKN036 M06/M06 Q1016 RMK ATIS H;
0142104160999992010011208204+51517+007617FM-15+0148EDLW V0200501N001010102019N0025001N1-00601-00601999999ADDGA1071+010201999GF107991999999999999999999MA1101591999999MW1101REMMET067METAR EDLW 120820Z 05002KT 2500 BR BKN034 M06/M06 Q1016 RMK ATIS I;
0133104160999992010011209204+51517+007617FM-15+0148EDLW V0200801N002110099019N0080001N1-00401-00501999999ADDGA1071+009901999GF107991999999999999999999MA1101591999999REMMET064METAR EDLW 120920Z 08004KT 8000 BKN033 M04/M05 Q1016 RMK ATIS K;
0133104160999992010011209504+51517+007617FM-15+0148EDLW V0200901N001510093019N0070001N1-00401-00401999999ADDGA1071+009301999GF107991999999999999999999MA1101591999999REMMET064METAR EDLW 120950Z 09003KT 7000 BKN031 M04/M04 Q1016 RMK ATIS L;
0133104160999992010011210204+51517+007617FM-15+0148EDLW V0200401N001510093019N0060001N1-00401-00401999999ADDGA1071+009301999GF107991999999999999999999MA1101591999999REMMET064METAR EDLW 121020Z 04003KT 6000 BKN031 M04/M04 Q1016 RMK ATIS M;
0133104160999992010011210504+51517+007617FM-15+0148EDLW V0200601N001510090019N0060001N1-00301-00401999999ADDGA1071+009001999GF107991999999999999999999MA1101491999999REMMET064METAR EDLW 121050Z 06003KT 6000 BKN030 M03/M04 Q1015 RMK ATIS N;
0133104160999992010011211504+51517+007617FM-15+0148EDLW V0200601N001510090019N0070001N1-00301-00401999999ADDGA1071+009001999GF107991999999999999999999MA1101491999999REMMET064METAR EDLW 121150Z 06003KT 7000 BKN030 M03/M04 Q1015 RMK ATIS P;
0141104160999992010011212204+51517+007617FM-15+0148EDLW V0201301N003110087019N0112651N1-00201-00601999999ADDGA1071+008701999GF107991999999999999999999MA1101491999999REMMET072METAR EDLW 121220Z 13006KT 110V170 9999 BKN029 M02/M06 Q1015 RMK ATIS Q;
0133104160999992010011212504+51517+007617FM-15+0148EDLW V0201301N003110075019N0112651N1-00201-00601999999ADDGA1071+007501999GF107991999999999999999999MA1101391999999REMMET064METAR EDLW 121250Z 13006KT 9999 BKN025 M02/M06 Q1014 RMK ATIS P;
0133104160999992010011213204+51517+007617FM-15+0148EDLW V0201501N004110075019N0112651N1-00201-00601999999ADDGA1071+007501999GF107991999999999999999999MA1101391999999REMMET064METAR EDLW 121320Z 15008KT 9999 BKN025 M02/M06 Q1014 RMK ATIS Q;
0141104160999992010011213504+51517+007617FM-15+0148EDLW V0201301N004110087019N0112651N1-00201-00601999999ADDGA1071+008701999GF107991999999999999999999MA1101291999999REMMET072METAR EDLW 121350Z 13008KT 100V170 9999 BKN029 M02/M06 Q1013 RMK ATIS R;
0133104160999992010011214204+51517+007617FM-15+0148EDLW V0201201N003110090019N0112651N1-00201-00601999999ADDGA1071+009001999GF107991999999999999999999MA1101291999999REMMET064METAR EDLW 121420Z 12006KT 9999 BKN030 M02/M06 Q1013 RMK ATIS S;
0133104160999992010011214504+51517+007617FM-15+0148EDLW V0201001N004610087019N0112651N1-00201-00501999999ADDGA1071+008701999GF107991999999999999999999MA1101291999999REMMET064METAR EDLW 121450Z 10009KT 9999 BKN029 M02/M05 Q1013 RMK ATIS T;
0133104160999992010011215204+51517+007617FM-15+0148EDLW V0200901N004610087019N0112651N1-00301-00501999999ADDGA1071+008701999GF107991999999999999999999MA1101191999999REMMET064METAR EDLW 121520Z 09009KT 9999 BKN029 M03/M05 Q1012 RMK ATIS U;
0133104160999992010011215504+51517+007617FM-15+0148EDLW V0200801N004610084019N0112651N1-00301-00501999999ADDGA1071+008401999GF107991999999999999999999MA1101191999999REMMET064METAR EDLW 121550Z 08009KT 9999 BKN028 M03/M05 Q1012 RMK ATIS V;
0133104160999992010011216204+51517+007617FM-15+0148EDLW V0200901N004610090019N0112651N1-00301-00501999999ADDGA1071+009001999GF107991999999999999999999MA1101081999999REMMET064METAR EDLW 121620Z 09009KT 9999 BKN030 M03/M05 Q1011 RMK ATIS W;
0133104160999992010011216504+51517+007617FM-15+0148EDLW V0200801N005710096019N0112651N1-00301-00501999999ADDGA1071+009601999GF107991999999999999999999MA1101081999999REMMET064METAR EDLW 121650Z 08011KT 9999 BKN032 M03/M05 Q1011 RMK ATIS X;
0133104160999992010011217204+51517+007617FM-15+0148EDLW V0200801N005110108019N0112651N1-00401-00601999999ADDGA1071+010801999GF107991999999999999999999MA1101081999999REMMET064METAR EDLW 121720Z 08010KT 9999 BKN036 M04/M06 Q1011 RMK ATIS Y;
0133104160999992010011217504+51517+007617FM-15+0148EDLW V0200801N004610111019N0112651N1-00401-00701999999ADDGA1071+011101999GF107991999999999999999999MA1101081999999REMMET064METAR EDLW 121750Z 08009KT 9999 BKN037 M04/M07 Q1011 RMK ATIS Z;
0133104160999992010011218204+51517+007617FM-15+0148EDLW V0200901N004110114019N0112651N1-00501-00701999999ADDGA1071+011401999GF107991999999999999999999MA1101081999999REMMET064METAR EDLW 121820Z 09008KT 9999 BKN038 M05/M07 Q1011 RMK ATIS A;
0133104160999992010011218504+51517+007617FM-15+0148EDLW V0200901N006210120019N0112651N1-00501-00701999999ADDGA1071+012001999GF107991999999999999999999MA1101081999999REMMET064METAR EDLW 121850Z 09012KT 9999 BKN040 M05/M07 Q1011 RMK ATIS B;
0085104160999992010011219204+51517+007617FM-15+0148EDLW V0200801N005119999999Y0099001N1-00501-00701999999ADDMA1101021999999REMMET058METAR EDLW 121920Z 08010KT CAVOK M05/M07 Q1010 RMK ATIS C;
0085104160999992010011219504+51517+007617FM-15+0148EDLW V0200701N005719999999Y0099001N1-00601-00801999999ADDMA1101021999999REMMET058METAR EDLW 121950Z 07011KT CAVOK M06/M08 Q1010 RMK ATIS D;
0085104160999992010011220204+51517+007617FM-15+0148EDLW V0200701N005119999999Y0099001N1-00601-00801999999ADDMA1101021999999REMMET058METAR EDLW 122020Z 07010KT CAVOK M06/M08 Q1010 RMK ATIS E;
0085104160999992010011220504+51517+007617FM-15+0148EDLW V0200701N003619999999Y0099001N1-00701-00801999999ADDMA1101021999999REMMET058METAR EDLW 122050Z 07007KT CAVOK M07/M08 Q1010 RMK ATIS F;
0085104160999992010011304204+51517+007617FM-15+0148EDLW V0200701N004619999999Y0099001N1-00601-00801999999ADDMA1100611999999REMMET058METAR EDLW 130420Z 07009KT CAVOK M06/M08 Q1006 RMK ATIS A;
0085104160999992010011304504+51517+007617FM-15+0148EDLW V0200601N004119999999Y0099001N1-00601-00801999999ADDMA1100611999999REMMET058METAR EDLW 130450Z 06008KT CAVOK M06/M08 Q1006 RMK ATIS B;
0085104160999992010011305204+51517+007617FM-15+0148EDLW V0200601N004119999999Y0099001N1-00601-00801999999ADDMA1100511999999REMMET058METAR EDLW 130520Z 06008KT CAVOK M06/M08 Q1005 RMK ATIS C;
0085104160999992010011305504+51517+007617FM-15+0148EDLW V0200601N004119999999Y0099001N1-00701-00801999999ADDMA1100511999999REMMET058METAR EDLW 130550Z 06008KT CAVOK M07/M08 Q1005 RMK ATIS D;
0085104160999992010011306204+51517+007617FM-15+0148EDLW V0200601N005119999999Y0099001N1-00701-00801999999ADDMA1100511999999REMMET058METAR EDLW 130620Z 06010KT CAVOK M07/M08 Q1005 RMK ATIS E;
0085104160999992010011306504+51517+007617FM-15+0148EDLW V0200701N005119999999Y0099001N1-00701-00901999999ADDMA1100511999999REMMET058METAR EDLW 130650Z 07010KT CAVOK M07/M09 Q1005 RMK ATIS F;
0133104160999992010011307204+51517+007617FM-15+0148EDLW V0200601N003112200019N0080001N1-00701-00901999999ADDGF100991999999999999999999MA1100511999999REMMET061METAR EDLW 130720Z 06006KT 8000 NSC M07/M09 Q1005 RMK ATIS G;EQDQ01    003SCCGA1
0133104160999992010011307504+51517+007617FM-15+0148EDLW V0200501N002112200019N0090001N1-00701-00901999999ADDGF100991999999999999999999MA1100511999999REMMET061METAR EDLW 130750Z 05004KT 9000 NSC M07/M09 Q1005 RMK ATIS H;EQDQ01    003SCCGA1
0085104160999992010011308204+51517+007617FM-15+0148EDLW V0200701N004619999999Y0099001N1-00701-00901999999ADDMA1100611999999REMMET058METAR EDLW 130820Z 07009KT CAVOK M07/M09 Q1006 RMK ATIS I;
0085104160999992010011308504+51517+007617FM-15+0148EDLW V0200701N003619999999Y0099001N1-00701-00901999999ADDMA1100611999999REMMET058METAR EDLW 130850Z 07007KT CAVOK M07/M09 Q1006 RMK ATIS J;
