0137104160999992007010104204+51517+007617FM-15+0148EDLW V0202601N010312200019N0112651N1+00901+00501999999ADDGA1021+009601999GF102991999999999999999999MA1101021999999OC101541REMMET060METAR EDLW 010420Z 26020G30KT 9999 FEW032 09/05 Q1010 RMK A;
0160104160999992007010104504+51517+007617FM-15+0148EDLW V0202501N008212200019N0112651N1+00901+00601999999ADDGA1041+008401999GA2041+030001999GF104991999999999999999999MA1101021999999OC101591REMMET067METAR EDLW 010450Z 25016G31KT 9999 SCT028 SCT100 09/06 Q1010 RMK B;
0149104160999992007010105204+51517+007617FM-15+0148EDLW V0202401N008712200019N0112651N1+00901+00601999999ADDGA1041+008401999GA2041+030001999GF104991999999999999999999MA1101021999999REMMET064METAR EDLW 010520Z 24017KT 9999 SCT028 SCT100 09/06 Q1010 RMK C;
0149104160999992007010105504+51517+007617FM-15+0148EDLW V0202401N008712200019N0112651N1+00901+00601999999ADDGA1041+006901999GA2041+011101999GF104991999999999999999999MA1100911999999REMMET064METAR EDLW 010550Z 24017KT 9999 SCT023 SCT037 09/06 Q1009 RMK D;
0160104160999992007010106204+51517+007617FM-15+0148EDLW V0202401N010312200019N0112651N1+00901+00601999999ADDGA1041+007801999GA2041+014101999GF104991999999999999999999MA1100911999999OC101591REMMET067METAR EDLW 010620Z 24020G31KT 9999 SCT026 SCT047 09/06 Q1009 RMK E;
0149104160999992007010106504+51517+007617FM-15+0148EDLW V0202301N010812200019N0112651N1+00901+00501999999ADDGA1041+007801999GA2041+014101999GF104991999999999999999999MA1100911999999REMMET064METAR EDLW 010650Z 23021KT 9999 SCT026 SCT047 09/05 Q1009 RMK F;
0160104160999992007010107204+51517+007617FM-15+0148EDLW V0202501N010812200019N0112651N1+00901+00401999999ADDGA1021+008701999GA2041+021001999GF104991999999999999999999MA1100911999999OC101851REMMET067METAR EDLW 010720Z 25021G36KT 9999 FEW029 SCT072 09/04 Q1009 RMK G;
0160104160999992007010107504+51517+007617FM-15+0148EDLW V0202401N011810330019N0112651N1+00801+00501999999ADDGA1041+008101999GA2071+033001999GF107991999999999999999999MA1101021999999OC101701REMMET067METAR EDLW 010750Z 24023G33KT 9999 SCT027 BKN110 08/05 Q1010 RMK H;
0149104160999992007010108204+51517+007617FM-15+0148EDLW V0202401N009810330019N0112651N1+00801+00501999999ADDGA1041+008101999GA2071+033001999GF107991999999999999999999MA1101021999999REMMET064METAR EDLW 010820Z 24019KT 9999 SCT027 BKN110 08/05 Q1010 RMK I;
0160104160999992007010108504+51517+007617FM-15+0148EDLW V0202401N009810330019N0112651N1+00801+00501999999ADDGA1041+008401999GA2071+033001999GF107991999999999999999999MA1101021999999OC101651REMMET067METAR EDLW 010850Z 24019G32KT 9999 SCT028 BKN110 08/05 Q1010 RMK J;
0149104160999992007010109204+51517+007617FM-15+0148EDLW V0202301N008710087019N0112651N1+00801+00501999999ADDGA1071+008701999GA2071+033001999GF107991999999999999999999MA1101021999999REMMET064METAR EDLW 010920Z 23017KT 9999 BKN029 BKN110 08/05 Q1010 RMK K;
0149104160999992007010109504+51517+007617FM-15+0148EDLW V0202401N008210330019N0112651N1+00801+00401999999ADDGA1041+006901999GA2071+033001999GF107991999999999999999999MA1101021999999REMMET064METAR EDLW 010950Z 24016KT 9999 SCT023 BKN110 08/04 Q1010 RMK L;
0149104160999992007010110204+51517+007617FM-15+0148EDLW V0202401N009312200019N0112651N1+00801+00401999999ADDGA1021+006601999GA2041+008401999GF104991999999999999999999MA1101021999999REMMET064METAR EDLW 011020Z 24018KT 9999 FEW022 SCT028 08/04 Q1010 RMK M;
0160104160999992007010110504+51517+007617FM-15+0148EDLW V0202401N009312200019N0112651N1+00801+00501999999ADDGA1021+006601999GA2041+008401999GF104991999999999999999999MA1101021999999OC101541REMMET067METAR EDLW 011050Z 24018G30KT 9999 FEW022 SCT028 08/05 Q1010 RMK N;
0149104160999992007010111204+51517+007617FM-15+0148EDLW V0202401N009812200019N0112651N1+00801+00401999999ADDGA1021+006901999GA2041+014401999GF104991999999999999999999MA1100911999999REMMET064METAR EDLW 011120Z 24019KT 9999 FEW023 SCT048 08/04 Q1009 RMK O;
0160104160999992007010111504+51517+007617FM-15+0148EDLW V0202401N010812200019N0112651N1+00701+00401999999ADDGA1041+007501999GA2041+014401999GF104991999999999999999999MA1100911999999OC101591REMMET067METAR EDLW 011150Z 24021G31KT 9999 SCT025 SCT048 07/04 Q1009 RMK P;
0160104160999992007010112204+51517+007617FM-15+0148EDLW V0202501N010812200019N0112651N1+00701+00401999999ADDGA1041+006901999GA2041+014101999GF104991999999999999999999MA1100911999999OC101701REMMET067METAR EDLW 011220Z 25021G33KT 9999 SCT023 SCT047 07/04 Q1009 RMK Q;
0172104160999992007010112504+51517+007617FM-15+0148EDLW V0202601N008710063019N0070001N1+00601+00501999999ADDGA1041+004201999GA2071+006301999GF107991999999999999999999MA1101021999999MW1801OC101491REMMET073METAR EDLW 011250Z 26017G29KT 7000 -SHRA SCT014 BKN021 06/05 Q1010 RMK R;
0149104160999992007010113204+51517+007617FM-15+0148EDLW V0202501N007710075019N0112651N1+00601+00601999999ADDGA1041+004201999GA2071+007501999GF107991999999999999999999MA1101021999999REMMET064METAR EDLW 011320Z 25015KT 9999 SCT014 BKN025 06/06 Q1010 RMK S;
0149104160999992007010113504+51517+007617FM-15+0148EDLW V0202501N008210060019N0112651N1+00601+00501999999ADDGA1041+003901999GA2071+006001999GF107991999999999999999999MA1101081999999REMMET064METAR EDLW 011350Z 25016KT 9999 SCT013 BKN020 06/05 Q1011 RMK T;
0168104160999992007010114204+51517+007617FM-15+0148EDLW V0202601N007710060019N0050001N1+00601+00501999999ADDGA1041+003901999GA2071+006001999GF107991999999999999999999MA1101191999999MW1811REMMET077METAR EDLW 011420Z 26015KT 230V290 5000 SHRA SCT013 BKN020 06/05 Q1012 RMK U;
0157104160999992007010114504+51517+007617FM-15+0148EDLW V0202701N005712200019N0112651N1+00601+00501999999ADDGA1041+007201999GA2041+015001999GF104991999999999999999999MA1101291999999REMMET072METAR EDLW 011450Z 27011KT 240V300 9999 SCT024 SCT054 06/05 Q1013 RMK V;
0171104160999992007010115204+51517+007617FM-15+0148EDLW V0202601N008710147019N0112651N1+00701+00401999999ADDGA1041+006601999GA2071+014701999GF107991999999999999999999MA1101291999999MW1161OC101441REMMET072METAR EDLW 011520Z 26017G28KT 9999 VCSH SCT022 BKN049 07/04 Q1013 RMK W;
0149104160999992007010115504+51517+007617FM-15+0148EDLW V0202601N009810210019N0112651N1+00601+00301999999ADDGA1041+007201999GA2071+021001999GF107991999999999999999999MA1101391999999REMMET064METAR EDLW 011550Z 26019KT 9999 SCT024 BKN076 06/03 Q1014 RMK X;
0157104160999992007010116204+51517+007617FM-15+0148EDLW V0202601N008710138019N0112651N1+00501+00401999999ADDGA1041+006901999GA2071+013801999GF107991999999999999999999MA1101391999999REMMET072METAR EDLW 011620Z 26017KT 230V290 9999 SCT023 BKN046 05/04 Q1014 RMK A;
0149104160999992007010116504+51517+007617FM-15+0148EDLW V0202501N008210150019N0112651N1+00601+00301999999ADDGA1041+008101999GA2071+015001999GF107991999999999999999999MA1101491999999REMMET064METAR EDLW 011650Z 25016KT 9999 SCT027 BKN051 06/03 Q1015 RMK B;
0137104160999992007010117204+51517+007617FM-15+0148EDLW V0202501N008710117019N0112651N1+00601+00301999999ADDGA1071+011701999GF107991999999999999999999MA1101491999999OC101391REMMET060METAR EDLW 011720Z 25017G27KT 9999 BKN039 06/03 Q1015 RMK C;
0126104160999992007010117504+51517+007617FM-15+0148EDLW V0202501N008212200019N0112651N1+00601+00301999999ADDGA1041+008401999GF104991999999999999999999MA1101491999999REMMET057METAR EDLW 011750Z 25016KT 9999 SCT028 06/03 Q1015 RMK D;
0126104160999992007010118204+51517+007617FM-15+0148EDLW V0202401N008212200019N0112651N1+00501+00201999999ADDGA1041+009001999GF104991999999999999999999MA1101491999999REMMET057METAR EDLW 011820Z 24016KT 9999 SCT030 05/02 Q1015 RMK E;
0126104160999992007010118504+51517+007617FM-15+0148EDLW V0202401N009312200019N0112651N1+00501+00301999999ADDGA1041+009001999GF104991999999999999999999MA1101491999999REMMET057METAR EDLW 011850Z 24018KT 9999 SCT030 05/03 Q1015 RMK F;
0078104160999992007010119204+51517+007617FM-15+0148EDLW V0202301N00821999999CN0099001N1+00501+00201999999ADDMA1101491999999REMMET051METAR EDLW 011920Z 23016KT CAVOK 05/02 Q1015 RMK G;
0078104160999992007010119504+51517+007617FM-15+0148EDLW V0202301N00771999999CN0099001N1+00501+00201999999ADDMA1101491999999REMMET051METAR EDLW 011950Z 23015KT CAVOK 05/02 Q1015 RMK H;
0078104160999992007010120204+51517+007617FM-15+0148EDLW V0202301N00821999999CN0099001N1+00501+00201999999ADDMA1101491999999REMMET051METAR EDLW 012020Z 23016KT CAVOK 05/02 Q1015 RMK I;
0078104160999992007010120504+51517+007617FM-15+0148EDLW V0202201N00821999999CN0099001N1+00501+00201999999ADDMA1101391999999REMMET051METAR EDLW 012050Z 22016KT CAVOK 05/02 Q1014 RMK J;
0158104160999992007010204204+51517+007617FM-15+0148EDLW V0202401N007710045019N0112651N1+00401+00401999999ADDGA1021+003001999GA2071+004501999GF107991999999999999999999MA1101191999999MW1631REMMET067METAR EDLW 020420Z 24015KT 9999 RA FEW010 BKN015 04/04 Q1012 RMK A;
0158104160999992007010204504+51517+007617FM-15+0148EDLW V0202601N006210033019N0112651N1+00401+00401999999ADDGA1021+002401999GA2071+003301999GF107991999999999999999999MA1101191999999MW1631REMMET067METAR EDLW 020450Z 26012KT 9999 RA FEW008 BKN011 04/04 Q1012 RMK B;
0154104160999992007010205204+51517+007617FM-15+0148EDLW V0202601N006710036019N0112651N1+00401+00401999999ADDGA1021+002701999GA2071+003601999GF107991999999999999999999MA1101291999999REMMET069METAR EDLW 020520Z 26013KT 9999 FEW009 BKN012 04/04 Q1013 RERA RMK C;
0157104160999992007010205504+51517+007617FM-15+0148EDLW V0202701N006210036019N0112651N1+00401+00401999999ADDGA1021+002701999GA2071+003601999GF107991999999999999999999MA1101391999999REMMET072METAR EDLW 020550Z 27012KT 240V300 9999 FEW009 BKN012 04/04 Q1014 RMK D;
0149104160999992007010206204+51517+007617FM-15+0148EDLW V0202601N006210036019N0112651N1+00401+00401999999ADDGA1021+002701999GA2071+003601999GF107991999999999999999999MA1101391999999REMMET064METAR EDLW 020620Z 26012KT 9999 FEW009 BKN012 04/04 Q1014 RMK E;
0149104160999992007010206504+51517+007617FM-15+0148EDLW V0202601N006210036019N0112651N1+00401+00401999999ADDGA1021+002701999GA2071+003601999GF107991999999999999999999MA1101491999999REMMET064METAR EDLW 020650Z 26012KT 9999 FEW009 BKN012 04/04 Q1015 RMK F;
0149104160999992007010207204+51517+007617FM-15+0148EDLW V0202501N006210036019N0112651N1+00401+00401999999ADDGA1021+002701999GA2071+003601999GF107991999999999999999999MA1101491999999REMMET064METAR EDLW 020720Z 25012KT 9999 FEW009 BKN012 04/04 Q1015 RMK G;
0160104160999992007010207504+51517+007617FM-15+0148EDLW V0202501N006710048019N0112651N1+00401+00401999999ADDGA1021+003601999GA2071+004801999GF107991999999999999999999MA1101491999999MW1161REMMET069METAR EDLW 020750Z 25013KT 9999 VCSH FEW012 BKN016 04/04 Q1015 RMK H;
0149104160999992007010208204+51517+007617FM-15+0148EDLW V0202501N007210066019N0112651N1+00401+00401999999ADDGA1041+003901999GA2071+006601999GF107991999999999999999999MA1101491999999REMMET064METAR EDLW 020820Z 25014KT 9999 SCT013 BKN022 04/04 Q1015 RMK I;
0149104160999992007010208504+51517+007617FM-15+0148EDLW V0202501N007210066019N0112651N1+00401+00401999999ADDGA1041+003901999GA2071+006601999GF107991999999999999999999MA1101591999999REMMET064METAR EDLW 020850Z 25014KT 9999 SCT013 BKN022 04/04 Q1016 RMK J;
0149104160999992007010209204+51517+007617FM-15+0148EDLW V0202501N007710054019N0112651N1+00501+00401999999ADDGA1041+003901999GA2071+005401999GF107991999999999999999999MA1101591999999REMMET064METAR EDLW 020920Z 25015KT 9999 SCT013 BKN018 05/04 Q1016 RMK K;
0149104160999992007010209504+51517+007617FM-15+0148EDLW V0202401N008210054019N0112651N1+00501+00401999999ADDGA1041+003901999GA2071+005401999GF107991999999999999999999MA1101591999999REMMET064METAR EDLW 020950Z 24016KT 9999 SCT013 BKN018 05/04 Q1016 RMK L;
0149104160999992007010210204+51517+007617FM-15+0148EDLW V0202401N008710060019N0112651N1+00501+00301999999ADDGA1041+004501999GA2071+006001999GF107991999999999999999999MA1101591999999REMMET064METAR EDLW 021020Z 24017KT 9999 SCT015 BKN020 05/03 Q1016 RMK M;
0149104160999992007010210504+51517+007617FM-15+0148EDLW V0202401N008210060019N0112651N1+00501+00301999999ADDGA1041+004501999GA2071+006001999GF107991999999999999999999MA1101591999999REMMET064METAR EDLW 021050Z 24016KT 9999 SCT015 BKN020 05/03 Q1016 RMK N;
0149104160999992007010211204+51517+007617FM-15+0148EDLW V0202401N009810060019N0112651N1+00501+00301999999ADDGA1041+005101999GA2071+006001999GF107991999999999999999999MA1101591999999REMMET064METAR EDLW 021120Z 24019KT 9999 SCT017 BKN020 05/03 Q1016 RMK O;
0161104160999992007010211504+51517+007617FM-15+0148EDLW V0202501N007210051019N0112651N1+00401+00401999999ADDGA1041+003601999GA2071+005101999GF107991999999999999999999MA1101591999999MW1801REMMET070METAR EDLW 021150Z 25014KT 9999 -SHRA SCT012 BKN017 04/04 Q1016 RMK P;
0149104160999992007010212204+51517+007617FM-15+0148EDLW V0202401N008210051019N0112651N1+00501+00501999999ADDGA1041+003601999GA2071+005101999GF107991999999999999999999MA1101591999999REMMET064METAR EDLW 021220Z 24016KT 9999 SCT012 BKN017 05/05 Q1016 RMK Q;
0159104160999992007010212504+51517+007617FM-15+0148EDLW V0202501N007210051019N0090001N1+00401+00401999999ADDGA1041+003601999GA2071+005101999GF107991999999999999999999MA1101591999999MW1611REMMET068METAR EDLW 021250Z 25014KT 9000 -RA SCT012 BKN017 04/04 Q1016 RMK R;
0159104160999992007010213204+51517+007617FM-15+0148EDLW V0202501N006710042019N0090001N1+00501+00501999999ADDGA1041+003601999GA2071+004201999GF107991999999999999999999MA1101591999999MW1611REMMET068METAR EDLW 021320Z 25013KT 9000 -RA SCT012 BKN014 05/05 Q1016 RMK S;
0159104160999992007010213504+51517+007617FM-15+0148EDLW V0202501N007710042019N0070001N1+00401+00401999999ADDGA1041+003301999GA2071+004201999GF107991999999999999999999MA1101591999999MW1611REMMET068METAR EDLW 021350Z 25015KT 7000 -RA SCT011 BKN014 04/04 Q1016 RMK T;
0167104160999992007010214204+51517+007617FM-15+0148EDLW V0202401N007210048019N0090001N1+00401+00401999999ADDGA1041+003301999GA2071+004801999GF107991999999999999999999MA1101591999999MW1511MW2611REMMET070METAR EDLW 021420Z 24014KT 9000 -RADZ SCT011 BKN016 04/04 Q1016 RMK U;
0167104160999992007010214504+51517+007617FM-15+0148EDLW V0202401N006710063019N0090001N1+00401+00401999999ADDGA1041+003901999GA2071+006301999GF107991999999999999999999MA1101691999999MW1511MW2611REMMET070METAR EDLW 021450Z 24013KT 9000 -RADZ SCT013 BKN021 04/04 Q1017 RMK V;
0159104160999992007010215204+51517+007617FM-15+0148EDLW V0202401N006210063019N0070001N1+00401+00401999999ADDGA1041+003901999GA2071+006301999GF107991999999999999999999MA1101691999999MW1611REMMET068METAR EDLW 021520Z 24012KT 7000 -RA SCT013 BKN021 04/04 Q1017 RMK W;
0159104160999992007010215504+51517+007617FM-15+0148EDLW V0202601N006710102019N0090001N1+00401+00401999999ADDGA1041+003901999GA2071+010201999GF107991999999999999999999MA1101801999999MW1611REMMET068METAR EDLW 021550Z 26013KT 9000 -RA SCT013 BKN034 04/04 Q1018 RMK X;
0149104160999992007010216204+51517+007617FM-15+0148EDLW V0202301N005710138019N0112651N1+00401+00401999999ADDGA1041+006001999GA2071+013801999GF107991999999999999999999MA1101801999999REMMET064METAR EDLW 021620Z 23011KT 9999 SCT020 BKN046 04/04 Q1018 RMK Z;
0159104160999992007010216504+51517+007617FM-15+0148EDLW V0202401N006710075019N0090001N1+00501+00501999999ADDGA1041+004801999GA2071+007501999GF107991999999999999999999MA1101801999999MW1611REMMET068METAR EDLW 021650Z 24013KT 9000 -RA SCT016 BKN025 05/05 Q1018 RMK A;
0126104160999992007010217204+51517+007617FM-15+0148EDLW V0202601N005710072019N0112651N1+00401+00401999999ADDGA1071+007201999GF107991999999999999999999MA1101901999999REMMET057METAR EDLW 021720Z 26011KT 9999 BKN024 04/04 Q1019 RMK B;
0126104160999992007010217504+51517+007617FM-15+0148EDLW V0202501N005110072019N0112651N1+00401+00401999999ADDGA1071+007201999GF107991999999999999999999MA1101901999999REMMET057METAR EDLW 021750Z 25010KT 9999 BKN024 04/04 Q1019 RMK C;
0159104160999992007010218204+51517+007617FM-15+0148EDLW V0202401N005710150019N0112651N1+00401+00401999999ADDGA1041+007801999GA2071+015001999GF107991999999999999999999MA1102001999999MW1611REMMET068METAR EDLW 021820Z 24011KT 9999 -RA SCT026 BKN050 04/04 Q1020 RMK D;
0161104160999992007010218504+51517+007617FM-15+0148EDLW V0202401N006210090019N0112651N1+00401+00401999999ADDGA1041+003001999GA2071+009001999GF107991999999999999999999MA1102001999999MW1801REMMET070METAR EDLW 021850Z 24012KT 9999 -SHRA SCT010 BKN030 04/04 Q1020 RMK E;
0149104160999992007010219204+51517+007617FM-15+0148EDLW V0202501N005110057019N0090001N1+00401+00401999999ADDGA1041+002701999GA2071+005701999GF107991999999999999999999MA1102101999999REMMET064METAR EDLW 021920Z 25010KT 9000 SCT009 BKN019 04/04 Q1021 RMK F;
0149104160999992007010219504+51517+007617FM-15+0148EDLW V0202601N004610060019N0090001N1+00501+00501999999ADDGA1041+003001999GA2071+006001999GF107991999999999999999999MA1102101999999REMMET064METAR EDLW 021950Z 26009KT 9000 SCT010 BKN020 05/05 Q1021 RMK G;
0149104160999992007010220204+51517+007617FM-15+0148EDLW V0202501N005110042019N0090001N1+00501+00501999999ADDGA1041+002401999GA2071+004201999GF107991999999999999999999MA1102201999999REMMET064METAR EDLW 022020Z 25010KT 9000 SCT008 BKN014 05/05 Q1022 RMK H;
0143104160999992007010220504+51517+007617FM-15+0148EDLW V0202501N005110045019N0112651N1+00501+00501999999ADDGA1041+002701999GA2071+004501999GF107991999999999999999999MA1102201999999REMMET058METAR EDLW 022050Z 25010KT 9999 SCT009 BKN015 05/05 Q1022;
0126104160999992007010304204+51517+007617FM-15+0148EDLW V0202501N004612200019N0112651N1+00301+00301999999ADDGA1041+011401999GF104991999999999999999999MA1102711999999REMMET057METAR EDLW 030420Z 25009KT 9999 SCT038 03/03 Q1027 RMK A;
0149104160999992007010304504+51517+007617FM-15+0148EDLW V0202501N004112200019N0112651N1+00401+00401999999ADDGA1021+003901999GA2041+011401999GF104991999999999999999999MA1102711999999REMMET064METAR EDLW 030450Z 25008KT 9999 FEW013 SCT038 04/04 Q1027 RMK B;
0149104160999992007010305204+51517+007617FM-15+0148EDLW V0202501N004112200019N0112651N1+00401+00401999999ADDGA1021+006301999GA2041+009001999GF104991999999999999999999MA1102711999999REMMET064METAR EDLW 030520Z 25008KT 9999 FEW021 SCT030 04/04 Q1027 RMK C;
0149104160999992007010305504+51517+007617FM-15+0148EDLW V0202401N005112200019N0112651N1+00401+00401999999ADDGA1021+003601999GA2041+005701999GF104991999999999999999999MA1102711999999REMMET064METAR EDLW 030550Z 24010KT 9999 FEW012 SCT019 04/04 Q1027 RMK D;
0126104160999992007010306204+51517+007617FM-15+0148EDLW V0202401N004612200019N0080001N1+00401+00401999999ADDGA1041+011701999GF104991999999999999999999MA1102711999999REMMET057METAR EDLW 030620Z 24009KT 8000 SCT039 04/04 Q1027 RMK E;
0126104160999992007010306504+51517+007617FM-15+0148EDLW V0202301N004612200019N0080001N1+00401+00401999999ADDGA1041+004801999GF104991999999999999999999MA1102711999999REMMET057METAR EDLW 030650Z 23009KT 8000 SCT016 04/04 Q1027 RMK F;
0135104160999992007010307204+51517+007617FM-15+0148EDLW V0202401N004610015019N0045001N1+00401+00401999999ADDGA1071+001501999GF107991999999999999999999MA1102811999999MW1101REMMET060METAR EDLW 030720Z 24009KT 4500 BR BKN005 04/04 Q1028 RMK G;
0149104160999992007010307504+51517+007617FM-15+0148EDLW V0202401N005110102019N0060001N1+00401+00401999999ADDGA1021+001501999GA2071+010201999GF107991999999999999999999MA1102811999999REMMET064METAR EDLW 030750Z 24010KT 6000 FEW005 BKN034 04/04 Q1028 RMK H;
0126104160999992007010308204+51517+007617FM-15+0148EDLW V0202201N005110114019N0060001N1+00501+00501999999ADDGA1071+011401999GF107991999999999999999999MA1102811999999REMMET057METAR EDLW 030820Z 22010KT 6000 BKN038 05/05 Q1028 RMK I;
0149104160999992007010308504+51517+007617FM-15+0148EDLW V0202201N005710120019N0070001N1+00501+00501999999ADDGA1021+007201999GA2071+012001999GF107991999999999999999999MA1102811999999REMMET064METAR EDLW 030850Z 22011KT 7000 FEW024 BKN040 05/05 Q1028 RMK J;
0126104160999992007010309204+51517+007617FM-15+0148EDLW V0202301N005710021019N0090001N1+00501+00501999999ADDGA1071+002101999GF107991999999999999999999MA1102811999999REMMET057METAR EDLW 030920Z 23011KT 9000 BKN007 05/05 Q1028 RMK K;
0149104160999992007010309504+51517+007617FM-15+0148EDLW V0202301N005110117019N0112651N1+00601+00601999999ADDGA1021+002401999GA2071+011701999GF107991999999999999999999MA1102711999999REMMET064METAR EDLW 030950Z 23010KT 9999 FEW008 BKN039 06/06 Q1027 RMK L;
0149104160999992007010310204+51517+007617FM-15+0148EDLW V0202301N006210096019N0112651N1+00601+00601999999ADDGA1021+003601999GA2071+009601999GF107991999999999999999999MA1102711999999REMMET064METAR EDLW 031020Z 23012KT 9999 FEW012 BKN032 06/06 Q1027 RMK M;
0149104160999992007010310504+51517+007617FM-15+0148EDLW V0202301N007210099019N0112651N1+00601+00601999999ADDGA1021+004201999GA2071+009901999GF107991999999999999999999MA1102711999999REMMET064METAR EDLW 031050Z 23014KT 9999 FEW014 BKN033 06/06 Q1027 RMK N;
0149104160999992007010311204+51517+007617FM-15+0148EDLW V0202201N007210087019N0112651N1+00601+00501999999ADDGA1021+004501999GA2071+008701999GF107991999999999999999999MA1102611999999REMMET064METAR EDLW 031120Z 22014KT 9999 FEW015 BKN029 06/05 Q1026 RMK O;
0149104160999992007010311504+51517+007617FM-15+0148EDLW V0202301N007210051019N0112651N1+00601+00501999999ADDGA1021+004501999GA2071+005101999GF107991999999999999999999MA1102611999999REMMET064METAR EDLW 031150Z 23014KT 9999 FEW015 BKN017 06/05 Q1026 RMK P;
0149104160999992007010312204+51517+007617FM-15+0148EDLW V0202301N006710051019N0112651N1+00601+00501999999ADDGA1021+004501999GA2071+005101999GF107991999999999999999999MA1102611999999REMMET064METAR EDLW 031220Z 23013KT 9999 FEW015 BKN017 06/05 Q1026 RMK Q;
0149104160999992007010312504+51517+007617FM-15+0148EDLW V0202301N008210060019N0112651N1+00601+00501999999ADDGA1041+004801999GA2071+006001999GF107991999999999999999999MA1102511999999REMMET064METAR EDLW 031250Z 23016KT 9999 SCT016 BKN020 06/05 Q1025 RMK R;
0149104160999992007010313204+51517+007617FM-15+0148EDLW V0202301N007210150019N0112651N1+00601+00501999999ADDGA1041+005101999GA2071+015001999GF107991999999999999999999MA1102511999999REMMET064METAR EDLW 031320Z 23014KT 9999 SCT017 BKN055 06/05 Q1025 RMK S;
0159104160999992007010313504+51517+007617FM-15+0148EDLW V0202201N006710150019N0112651N1+00601+00501999999ADDGA1041+005401999GA2071+015001999GF107991999999999999999999MA1102401999999MW1511REMMET068METAR EDLW 031350Z 22013KT 9999 -DZ SCT018 BKN053 06/05 Q1024 RMK T;
0149104160999992007010314204+51517+007617FM-15+0148EDLW V0202201N007710144019N0112651N1+00601+00501999999ADDGA1041+005401999GA2071+014401999GF107991999999999999999999MA1102401999999REMMET064METAR EDLW 031420Z 22015KT 9999 SCT018 BKN048 06/05 Q1024 RMK U;
0149104160999992007010314504+51517+007617FM-15+0148EDLW V0202101N006710150019N0112651N1+00601+00501999999ADDGA1041+005401999GA2071+015001999GF107991999999999999999999MA1102401999999REMMET064METAR EDLW 031450Z 21013KT 9999 SCT018 BKN052 06/05 Q1024 RMK V;
0159104160999992007010315204+51517+007617FM-15+0148EDLW V0202101N006210144019N0112651N1+00601+00501999999ADDGA1041+005101999GA2071+014401999GF107991999999999999999999MA1102301999999MW1511REMMET068METAR EDLW 031520Z 21012KT 9999 -DZ SCT017 BKN048 06/05 Q1023 RMK X;
0159104160999992007010315504+51517+007617FM-15+0148EDLW V0202101N006710144019N0112651N1+00601+00601999999ADDGA1041+005101999GA2071+014401999GF107991999999999999999999MA1102301999999MW1511REMMET068METAR EDLW 031550Z 21013KT 9999 -DZ SCT017 BKN048 06/06 Q1023 RMK Y;
0159104160999992007010316204+51517+007617FM-15+0148EDLW V0202101N008710132019N0090001N1+00601+00601999999ADDGA1041+005101999GA2071+013201999GF107991999999999999999999MA1102201999999MW1511REMMET068METAR EDLW 031620Z 21017KT 9000 -DZ SCT017 BKN044 06/06 Q1022 RMK Z;
0167104160999992007010316504+51517+007617FM-15+0148EDLW V0202101N008210150019N0112651N1+00601+00501999999ADDGA1041+011101999GA2071+015001999GF107991999999999999999999MA1102201999999MW1511MW2611REMMET070METAR EDLW 031650Z 21016KT 9999 -RADZ SCT037 BKN059 06/05 Q1022 RMK A;
0167104160999992007010317204+51517+007617FM-15+0148EDLW V0202101N008710150019N0112651N1+00601+00501999999ADDGA1041+007801999GA2071+015001999GF107991999999999999999999MA1102101999999MW1511MW2611REMMET070METAR EDLW 031720Z 21017KT 9999 -RADZ SCT026 BKN056 06/05 Q1021 RMK B;
0149104160999992007010317504+51517+007617FM-15+0148EDLW V0202101N009810150019N0112651N1+00601+00501999999ADDGA1041+006601999GA2071+015001999GF107991999999999999999999MA1102001999999REMMET064METAR EDLW 031750Z 21019KT 9999 SCT022 BKN054 06/05 Q1020 RMK C;
0159104160999992007010318204+51517+007617FM-15+0148EDLW V0202101N008210150019N0112651N1+00701+00501999999ADDGA1041+009301999GA2071+015001999GF107991999999999999999999MA1102001999999MW1511REMMET068METAR EDLW 031820Z 21016KT 9999 -DZ SCT031 BKN056 07/05 Q1020 RMK D;
0149104160999992007010318504+51517+007617FM-15+0148EDLW V0202201N009310180019N0112651N1+00701+00501999999ADDGA1041+006301999GA2071+018001999GF107991999999999999999999MA1101901999999REMMET064METAR EDLW 031850Z 22018KT 9999 SCT021 BKN062 07/05 Q1019 RMK E;
0149104160999992007010319204+51517+007617FM-15+0148EDLW V0202101N008210150019N0112651N1+00701+00501999999ADDGA1021+007501999GA2071+015001999GF107991999999999999999999MA1101901999999REMMET064METAR EDLW 031920Z 21016KT 9999 FEW025 BKN052 07/05 Q1019 RMK F;
0149104160999992007010319504+51517+007617FM-15+0148EDLW V0202101N007710210019N0112651N1+00701+00501999999ADDGA1021+007201999GA2071+021001999GF107991999999999999999999MA1101801999999REMMET064METAR EDLW 031950Z 21015KT 9999 FEW024 BKN070 07/05 Q1018 RMK G;
0149104160999992007010320204+51517+007617FM-15+0148EDLW V0202101N007710180019N0112651N1+00701+00501999999ADDGA1021+006001999GA2071+018001999GF107991999999999999999999MA1101801999999REMMET064METAR EDLW 032020Z 21015KT 9999 FEW020 BKN065 07/05 Q1018 RMK H;
0149104160999992007010320504+51517+007617FM-15+0148EDLW V0202201N009310210019N0112651N1+00701+00501999999ADDGA1041+006901999GA2071+021001999GF107991999999999999999999MA1101801999999REMMET064METAR EDLW 032050Z 22018KT 9999 SCT023 BKN078 07/05 Q1018 RMK I;
0149104160999992007010321204+51517+007617FM-15+0148EDLW V0202201N009310240019N0112651N1+00701+00501999999ADDGA1041+006601999GA2071+024001999GF107991999999999999999999MA1101691999999REMMET064METAR EDLW 032120Z 22018KT 9999 SCT022 BKN084 07/05 Q1017 RMK J;
0149104160999992007010321504+51517+007617FM-15+0148EDLW V0202101N008710210019N0112651N1+00701+00501999999ADDGA1041+006001999GA2071+021001999GF107991999999999999999999MA1101691999999REMMET064METAR EDLW 032150Z 21017KT 9999 SCT020 BKN070 07/05 Q1017 RMK K;
0149104160999992007010322204+51517+007617FM-15+0148EDLW V0202201N007210210019N0112651N1+00701+00501999999ADDGA1041+006301999GA2071+021001999GF107991999999999999999999MA1101591999999REMMET064METAR EDLW 032220Z 22014KT 9999 SCT021 BKN075 07/05 Q1016 RMK L;
0159104160999992007010322504+51517+007617FM-15+0148EDLW V0202101N006210210019N0112651N1+00701+00501999999ADDGA1041+006601999GA2071+021001999GF107991999999999999999999MA1101591999999MW1511REMMET068METAR EDLW 032250Z 21012KT 9999 -DZ SCT022 BKN073 07/05 Q1016 RMK M;
0166104160999992007010404204+51517+007617FM-15+0148EDLW V0202101N008710057019N0080001N1+00601+00601999999ADDGA1041+003001999GA2071+005701999GF107991999999999999999999MA1100911999999MW1531MW2631REMMET069METAR EDLW 040420Z 21017KT 8000 DZRA SCT010 BKN019 06/06 Q1009 RMK A;
0166104160999992007010404504+51517+007617FM-15+0148EDLW V0202101N008710063019N0070001N1+00601+00601999999ADDGA1041+003001999GA2071+006301999GF107991999999999999999999MA1100811999999MW1531MW2631REMMET069METAR EDLW 040450Z 21017KT 7000 DZRA SCT010 BKN021 06/06 Q1008 RMK B;
0159104160999992007010405204+51517+007617FM-15+0148EDLW V0202101N009310051019N0112651N1+00701+00701999999ADDGA1041+003001999GA2071+005101999GF107991999999999999999999MA1100811999999MW1511REMMET068METAR EDLW 040520Z 21018KT 9999 -DZ SCT010 BKN017 07/07 Q1008 RMK C;
0158104160999992007010405504+51517+007617FM-15+0148EDLW V0202101N009310054019N0070001N1+00701+00701999999ADDGA1041+003301999GA2071+005401999GF107991999999999999999999MA1100711999999MW1631REMMET067METAR EDLW 040550Z 21018KT 7000 RA SCT011 BKN018 07/07 Q1007 RMK D;
0160104160999992007010406204+51517+007617FM-15+0148EDLW V0202201N011310066019N0112651N1+00801+00801999999ADDGA1041+003601999GA2071+006601999GF107991999999999999999999MA1100711999999OC101651REMMET067METAR EDLW 040620Z 22022G32KT 9999 SCT012 BKN022 08/08 Q1007 RMK F;
0159104160999992007010406504+51517+007617FM-15+0148EDLW V0202201N010810072019N0112651N1+00801+00801999999ADDGA1041+004501999GA2071+007201999GF107991999999999999999999MA1100611999999MW1611REMMET068METAR EDLW 040650Z 22021KT 9999 -RA SCT015 BKN024 08/08 Q1006 RMK G;
0159104160999992007010407204+51517+007617FM-15+0148EDLW V0202101N009810075019N0112651N1+00701+00701999999ADDGA1041+004201999GA2071+007501999GF107991999999999999999999MA1100611999999MW1611REMMET068METAR EDLW 040720Z 21019KT 9999 -RA SCT014 BKN025 07/07 Q1006 RMK H;
0172104160999992007010407504+51517+007617FM-15+0148EDLW V0202101N01031006601CN0112651N1+00801+00801999999ADDGA1021+004201999GA2041+006601999GA3071+015001999GF107991999999999999999999MA1100611999999REMMET071METAR EDLW 040750Z 21020KT 9999 FEW014 SCT022 BKN055 08/08 Q1006 RMK I;
0159104160999992007010408204+51517+007617FM-15+0148EDLW V0202201N009810078019N0090001N1+00701+00701999999ADDGA1041+004801999GA2071+007801999GF107991999999999999999999MA1100611999999MW1611REMMET068METAR EDLW 040820Z 22019KT 9000 -RA SCT016 BKN026 07/07 Q1006 RMK J;
0159104160999992007010408504+51517+007617FM-15+0148EDLW V0202101N009810069019N0112651N1+00701+00701999999ADDGA1041+005101999GA2071+006901999GF107991999999999999999999MA1100611999999MW1611REMMET068METAR EDLW 040850Z 21019KT 9999 -RA SCT017 BKN023 07/07 Q1006 RMK K;
0149104160999992007010409204+51517+007617FM-15+0148EDLW V0202201N010310066019N0112651N1+00801+00801999999ADDGA1041+005101999GA2071+006601999GF107991999999999999999999MA1100611999999REMMET064METAR EDLW 040920Z 22020KT 9999 SCT017 BKN022 08/08 Q1006 RMK L;
0149104160999992007010409504+51517+007617FM-15+0148EDLW V0202201N009810093019N0112651N1+00801+00801999999ADDGA1041+004201999GA2071+009301999GF107991999999999999999999MA1100611999999REMMET064METAR EDLW 040950Z 22019KT 9999 SCT014 BKN031 08/08 Q1006 RMK M;
0159104160999992007010410204+51517+007617FM-15+0148EDLW V0202301N009810081019N0112651N1+00801+00801999999ADDGA1041+004801999GA2071+008101999GF107991999999999999999999MA1100611999999MW1611REMMET068METAR EDLW 041020Z 23019KT 9999 -RA SCT016 BKN027 08/08 Q1006 RMK N;
0149104160999992007010410504+51517+007617FM-15+0148EDLW V0202301N009810081019N0112651N1+00801+00801999999ADDGA1041+004801999GA2071+008101999GF107991999999999999999999MA1100611999999REMMET064METAR EDLW 041050Z 23019KT 9999 SCT016 BKN027 08/08 Q1006 RMK O;
0149104160999992007010411204+51517+007617FM-15+0148EDLW V0202501N008710075019N0112651N1+00801+00801999999ADDGA1041+004201999GA2071+007501999GF107991999999999999999999MA1100611999999REMMET064METAR EDLW 041120Z 25017KT 9999 SCT014 BKN025 08/08 Q1006 RMK P;
0160104160999992007010411504+51517+007617FM-15+0148EDLW V0202601N008210072019N0112651N1+00801+00701999999ADDGA1041+004801999GA2071+007201999GF107991999999999999999999MA1100611999999OC101341REMMET067METAR EDLW 041150Z 26016G26KT 9999 SCT016 BKN024 08/07 Q1006 RMK Q;
0149104160999992007010412204+51517+007617FM-15+0148EDLW V0202601N007710150019N0112651N1+00901+00601999999ADDGA1041+007801999GA2071+015001999GF107991999999999999999999MA1100611999999REMMET064METAR EDLW 041220Z 26015KT 9999 SCT026 BKN051 09/06 Q1006 RMK R;
0192104160999992007010412504+51517+007617FM-15+0148EDLW V0202601N00721006901CN0112651N1+00801+00701999999ADDGA1021+003601999GA2041+006901999GA3071+015001999GF107991999999999999999999MA1100611999999MW1801REMMET085METAR EDLW 041250Z 26014KT 230V310 9999 -SHRA FEW012 SCT023 BKN051 08/07 Q1006 RMK S;
0184104160999992007010413204+51517+007617FM-15+0148EDLW V0202601N00671006001CN0112651N1+00801+00601999999ADDGA1021+003601999GA2041+006001999GA3071+015001999GF107991999999999999999999MA1100611999999MW1801REMMET077METAR EDLW 041320Z 26013KT 9999 -SHRA FEW012 SCT020 BKN050 08/06 Q1006 RMK T;
0172104160999992007010413504+51517+007617FM-15+0148EDLW V0202501N00721006301CN0112651N1+00801+00701999999ADDGA1021+003001999GA2041+006301999GA3071+015001999GF107991999999999999999999MA1100611999999REMMET071METAR EDLW 041350Z 25014KT 9999 FEW010 SCT021 BKN050 08/07 Q1006 RMK U;
0172104160999992007010414204+51517+007617FM-15+0148EDLW V0202501N008210063019N0112651N1+00801+00601999999ADDGA1021+003001999GA2071+006301999GA3071+015001999GF107991999999999999999999MA1100711999999REMMET071METAR EDLW 041420Z 25016KT 9999 FEW010 BKN021 BKN056 08/06 Q1007 RMK V;
0195104160999992007010414504+51517+007617FM-15+0148EDLW V0202501N009310063019N0112651N1+00801+00601999999ADDGA1021+003001999GA2071+006301999GA3071+015001999GF107991999999999999999999MA1100711999999MW1801OC101441REMMET080METAR EDLW 041450Z 25018G28KT 9999 -SHRA FEW010 BKN021 BKN056 08/06 Q1007 RMK W;
0169104160999992007010415204+51517+007617FM-15+0148EDLW V0202501N008210063019N0112651N1+00701+00701999999ADDGA1021+003001999GA2071+006301999GF107991999999999999999999MA1100711999999MW1801REMMET078METAR EDLW 041520Z 25016KT 230V290 9999 -SHRA FEW010 BKN021 07/07 Q1007 RMK X;
0161104160999992007010415504+51517+007617FM-15+0148EDLW V0202501N007210054019N0112651N1+00701+00701999999ADDGA1021+003001999GA2071+005401999GF107991999999999999999999MA1100811999999MW1801REMMET070METAR EDLW 041550Z 25014KT 9999 -SHRA FEW010 BKN018 07/07 Q1008 RMK X;
0172104160999992007010416204+51517+007617FM-15+0148EDLW V0202501N008210054019N0112651N1+00801+00701999999ADDGA1021+003001999GA2071+005401999GA3071+018001999GF107991999999999999999999MA1100711999999REMMET071METAR EDLW 041620Z 25016KT 9999 FEW010 BKN018 BKN068 08/07 Q1007 RMK Z;
0172104160999992007010416504+51517+007617FM-15+0148EDLW V0202501N008710054019N0112651N1+00801+00701999999ADDGA1021+003001999GA2071+005401999GA3071+011401999GF107991999999999999999999MA1100811999999REMMET071METAR EDLW 041650Z 25017KT 9999 FEW010 BKN018 BKN038 08/07 Q1008 RMK A;
0159104160999992007010417204+51517+007617FM-15+0148EDLW V0202501N008210051019N0112651N1+00701+00701999999ADDGA1021+003301999GA2071+005101999GF107991999999999999999999MA1100811999999MW1611REMMET068METAR EDLW 041720Z 25016KT 9999 -RA FEW011 BKN017 07/07 Q1008 RMK B;
0182104160999992007010417504+51517+007617FM-15+0148EDLW V0202501N00821005101CN0112651N1+00701+00701999999ADDGA1021+003301999GA2041+005101999GA3071+011101999GF107991999999999999999999MA1100811999999MW1611REMMET075METAR EDLW 041750Z 25016KT 9999 -RA FEW011 SCT017 BKN037 07/07 Q1008 RMK C;
0182104160999992007010418204+51517+007617FM-15+0148EDLW V0202501N008210051019N0112651N1+00701+00701999999ADDGA1021+003301999GA2071+005101999GA3071+011101999GF107991999999999999999999MA1100811999999MW1611REMMET075METAR EDLW 041820Z 25016KT 9999 -RA FEW011 BKN017 BKN037 07/07 Q1008 RMK D;
0159104160999992007010418504+51517+007617FM-15+0148EDLW V0202501N008710057019N0112651N1+00701+00701999999ADDGA1021+003001999GA2071+005701999GF107991999999999999999999MA1100911999999MW1611REMMET068METAR EDLW 041850Z 25017KT 9999 -RA FEW010 BKN019 07/07 Q1009 RMK E;
0167104160999992007010419204+51517+007617FM-15+0148EDLW V0202601N007710072019N0112651N1+00701+00701999999ADDGA1021+004201999GA2071+007201999GF107991999999999999999999MA1100911999999MW1611REMMET076METAR EDLW 041920Z 26015KT 230V290 9999 -RA FEW014 BKN024 07/07 Q1009 RMK G;
0149104160999992007010419504+51517+007617FM-15+0148EDLW V0202501N007710066019N0112651N1+00701+00701999999ADDGA1021+005101999GA2071+006601999GF107991999999999999999999MA1100911999999REMMET064METAR EDLW 041950Z 25015KT 9999 FEW017 BKN022 07/07 Q1009 RMK H;
0159104160999992007010420204+51517+007617FM-15+0148EDLW V0202601N009310066019N0112651N1+00701+00701999999ADDGA1021+003901999GA2071+006601999GF107991999999999999999999MA1101021999999MW1611REMMET068METAR EDLW 042020Z 26018KT 9999 -RA FEW013 BKN022 07/07 Q1010 RMK I;
0167104160999992007010420504+51517+007617FM-15+0148EDLW V0202701N006710066019N0112651N1+00701+00701999999ADDGA1021+003901999GA2071+006601999GF107991999999999999999999MA1101021999999MW1611REMMET076METAR EDLW 042050Z 27013KT 230V300 9999 -RA FEW013 BKN022 07/07 Q1010 RMK J;
0170104160999992007010421204+51517+007617FM-15+0148EDLW V0202601N007710060019N0112651N1+00701+00601999999ADDGA1021+003901999GA2071+006001999GF107991999999999999999999MA1101021999999MW1611OC101291REMMET071METAR EDLW 042120Z 26015G25KT 9999 -RA FEW013 BKN020 07/06 Q1010 RMK K;
0172104160999992007010504204+51517+007617FM-15+0148EDLW V0202601N00571006901CN0112651N1+00701+00601999999ADDGA1021+004201999GA2041+006901999GA3071+014701999GF107991999999999999999999MA1101491999999REMMET071METAR EDLW 050420Z 26011KT 9999 FEW014 SCT023 BKN049 07/06 Q1015 RMK A;
0149104160999992007010504504+51517+007617FM-15+0148EDLW V0202501N005710132019N0112651N1+00701+00601999999ADDGA1041+004501999GA2071+013201999GF107991999999999999999999MA1101491999999REMMET064METAR EDLW 050450Z 25011KT 9999 SCT015 BKN044 07/06 Q1015 RMK B;
0172104160999992007010505204+51517+007617FM-15+0148EDLW V0202601N00511008101CN0112651N1+00601+00601999999ADDGA1021+003901999GA2041+008101999GA3071+012901999GF107991999999999999999999MA1101591999999REMMET071METAR EDLW 050520Z 26010KT 9999 FEW013 SCT027 BKN043 06/06 Q1016 RMK C;
0172104160999992007010505504+51517+007617FM-15+0148EDLW V0202501N00571008101CN0112651N1+00601+00601999999ADDGA1021+003901999GA2041+008101999GA3071+012901999GF107991999999999999999999MA1101591999999REMMET071METAR EDLW 050550Z 25011KT 9999 FEW013 SCT027 BKN043 06/06 Q1016 RMK D;
0172104160999992007010506204+51517+007617FM-15+0148EDLW V0202501N00571008101CN0112651N1+00601+00601999999ADDGA1021+004201999GA2041+008101999GA3071+013801999GF107991999999999999999999MA1101591999999REMMET071METAR EDLW 050620Z 25011KT 9999 FEW014 SCT027 BKN046 06/06 Q1016 RMK E;
0149104160999992007010506504+51517+007617FM-15+0148EDLW V0202501N005110135019N0112651N1+00601+00601999999ADDGA1041+004501999GA2071+013501999GF107991999999999999999999MA1101591999999REMMET064METAR EDLW 050650Z 25010KT 9999 SCT015 BKN045 06/06 Q1016 RMK F;
0182104160999992007010507204+51517+007617FM-15+0148EDLW V0202501N00511008701CN0112651N1+00701+00701999999ADDGA1021+003901999GA2041+008701999GA3071+014401999GF107991999999999999999999MA1101691999999MW1611REMMET075METAR EDLW 050720Z 25010KT 9999 -RA FEW013 SCT029 BKN048 07/07 Q1017 RMK G;
0172104160999992007010507504+51517+007617FM-15+0148EDLW V0202501N00571006301CN0112651N1+00701+00701999999ADDGA1021+003901999GA2041+006301999GA3071+014401999GF107991999999999999999999MA1101691999999REMMET071METAR EDLW 050750Z 25011KT 9999 FEW013 SCT021 BKN048 07/07 Q1017 RMK H;
0172104160999992007010508204+51517+007617FM-15+0148EDLW V0202501N00571009301CN0112651N1+00701+00701999999ADDGA1021+005101999GA2041+009301999GA3071+013501999GF107991999999999999999999MA1101691999999REMMET071METAR EDLW 050820Z 25011KT 9999 FEW017 SCT031 BKN045 07/07 Q1017 RMK I;
0149104160999992007010508504+51517+007617FM-15+0148EDLW V0202401N006710108019N0112651N1+00701+00701999999ADDGA1041+006301999GA2071+010801999GF107991999999999999999999MA1101691999999REMMET064METAR EDLW 050850Z 24013KT 9999 SCT021 BKN036 07/07 Q1017 RMK J;
0149104160999992007010509204+51517+007617FM-15+0148EDLW V0202401N006710102019N0112651N1+00701+00701999999ADDGA1041+004801999GA2071+010201999GF107991999999999999999999MA1101691999999REMMET064METAR EDLW 050920Z 24013KT 9999 SCT016 BKN034 07/07 Q1017 RMK K;
0149104160999992007010509504+51517+007617FM-15+0148EDLW V0202401N006210042019N0112651N1+00701+00701999999ADDGA1071+004201999GA2071+018001999GF107991999999999999999999MA1101801999999REMMET064METAR EDLW 050950Z 24012KT 9999 BKN014 BKN067 07/07 Q1018 RMK L;
0149104160999992007010510204+51517+007617FM-15+0148EDLW V0202401N006710042019N0112651N1+00701+00701999999ADDGA1071+004201999GA2071+007801999GF107991999999999999999999MA1101801999999REMMET064METAR EDLW 051020Z 24013KT 9999 BKN014 BKN026 07/07 Q1018 RMK M;
0149104160999992007010510504+51517+007617FM-15+0148EDLW V0202401N007210108019N0112651N1+00801+00701999999ADDGA1041+004501999GA2071+010801999GF107991999999999999999999MA1101801999999REMMET064METAR EDLW 051050Z 24014KT 9999 SCT015 BKN036 08/07 Q1018 RMK N;
0149104160999992007010511204+51517+007617FM-15+0148EDLW V0202301N006710180019N0112651N1+00801+00701999999ADDGA1021+010201999GA2071+018001999GF107991999999999999999999MA1101801999999REMMET064METAR EDLW 051120Z 23013KT 9999 FEW034 BKN068 08/07 Q1018 RMK O;
0149104160999992007010511504+51517+007617FM-15+0148EDLW V0202301N007210102019N0112651N1+00801+00601999999ADDGA1021+005401999GA2071+010201999GF107991999999999999999999MA1101691999999REMMET064METAR EDLW 051150Z 23014KT 9999 FEW018 BKN034 08/06 Q1017 RMK P;
0149104160999992007010512204+51517+007617FM-15+0148EDLW V0202401N007710063019N0112651N1+00801+00601999999ADDGA1071+006301999GA2071+021001999GF107991999999999999999999MA1101691999999REMMET064METAR EDLW 051220Z 24015KT 9999 BKN021 BKN071 08/06 Q1017 RMK R;
0126104160999992007010512504+51517+007617FM-15+0148EDLW V0202401N007710060019N0112651N1+00801+00701999999ADDGA1071+006001999GF107991999999999999999999MA1101691999999REMMET057METAR EDLW 051250Z 24015KT 9999 BKN020 08/07 Q1017 RMK R;
0149104160999992007010513204+51517+007617FM-15+0148EDLW V0202301N008210093019N0112651N1+00801+00701999999ADDGA1021+004201999GA2071+009301999GF107991999999999999999999MA1101691999999REMMET064METAR EDLW 051320Z 23016KT 9999 FEW014 BKN031 08/07 Q1017 RMK T;
0149104160999992007010513504+51517+007617FM-15+0148EDLW V0202301N007210063019N0090001N1+00701+00701999999ADDGA1041+003301999GA2071+006301999GF107991999999999999999999MA1101691999999REMMET064METAR EDLW 051350Z 23014KT 9000 SCT011 BKN021 07/07 Q1017 RMK U;
0149104160999992007010514204+51517+007617FM-15+0148EDLW V0202301N007210063019N0112651N1+00801+00801999999ADDGA1041+003301999GA2071+006301999GF107991999999999999999999MA1101691999999REMMET064METAR EDLW 051420Z 23014KT 9999 SCT011 BKN021 08/08 Q1017 RMK V;
0149104160999992007010514504+51517+007617FM-15+0148EDLW V0202301N007710063019N0112651N1+00801+00801999999ADDGA1041+003901999GA2071+006301999GF107991999999999999999999MA1101691999999REMMET064METAR EDLW 051450Z 23015KT 9999 SCT013 BKN021 08/08 Q1017 RMK W;
0149104160999992007010515204+51517+007617FM-15+0148EDLW V0202301N007710063019N0112651N1+00801+00801999999ADDGA1041+003901999GA2071+006301999GF107991999999999999999999MA1101691999999REMMET064METAR EDLW 051520Z 23015KT 9999 SCT013 BKN021 08/08 Q1017 RMK X;
0149104160999992007010515504+51517+007617FM-15+0148EDLW V0202301N008210084019N0112651N1+00801+00801999999ADDGA1041+005101999GA2071+008401999GF107991999999999999999999MA1101691999999REMMET064METAR EDLW 051550Z 23016KT 9999 SCT017 BKN028 08/08 Q1017 RMK Y;
0159104160999992007010516204+51517+007617FM-15+0148EDLW V0202401N007710069019N0112651N1+00801+00801999999ADDGA1041+003901999GA2071+006901999GF107991999999999999999999MA1101691999999MW1611REMMET068METAR EDLW 051620Z 24015KT 9999 -RA SCT013 BKN023 08/08 Q1017 RMK Z;
0159104160999992007010516504+51517+007617FM-15+0148EDLW V0202301N007710057019N0112651N1+00801+00801999999ADDGA1041+003901999GA2071+005701999GF107991999999999999999999MA1101691999999MW1611REMMET068METAR EDLW 051650Z 23015KT 9999 -RA SCT013 BKN019 08/08 Q1017 RMK A;
0149104160999992007010517204+51517+007617FM-15+0148EDLW V0202301N007710069019N0112651N1+00901+00901999999ADDGA1041+003901999GA2071+006901999GF107991999999999999999999MA1101691999999REMMET064METAR EDLW 051720Z 23015KT 9999 SCT013 BKN023 09/09 Q1017 RMK B;
0149104160999992007010517504+51517+007617FM-15+0148EDLW V0202301N008210057019N0112651N1+00901+00901999999ADDGA1041+003901999GA2071+005701999GF107991999999999999999999MA1101691999999REMMET064METAR EDLW 051750Z 23016KT 9999 SCT013 BKN019 09/09 Q1017 RMK C;
0182104160999992007010518204+51517+007617FM-15+0148EDLW V0202301N00721003901CN0070001N1+00801+00801999999ADDGA1021+002101999GA2041+003901999GA3071+005101999GF107991999999999999999999MA1101691999999MW1511REMMET075METAR EDLW 051820Z 23014KT 7000 -DZ FEW007 SCT013 BKN017 08/08 Q1017 RMK D;
0182104160999992007010518504+51517+007617FM-15+0148EDLW V0202301N00771003901CN0112651N1+00901+00901999999ADDGA1021+002101999GA2041+003901999GA3071+005701999GF107991999999999999999999MA1101691999999MW1511REMMET075METAR EDLW 051850Z 23015KT 9999 -DZ FEW007 SCT013 BKN019 09/09 Q1017 RMK E;
0159104160999992007010519204+51517+007617FM-15+0148EDLW V0202301N007210039019N0070001N1+00801+00801999999ADDGA1021+002101999GA2071+003901999GF107991999999999999999999MA1101691999999MW1511REMMET068METAR EDLW 051920Z 23014KT 7000 -DZ FEW007 BKN013 08/08 Q1017 RMK F;
0159104160999992007010519504+51517+007617FM-15+0148EDLW V0202401N007710039019N0112651N1+00901+00901999999ADDGA1021+002401999GA2071+003901999GF107991999999999999999999MA1101691999999MW1511REMMET068METAR EDLW 051950Z 24015KT 9999 -DZ FEW008 BKN013 09/09 Q1017 RMK G;
0159104160999992007010520204+51517+007617FM-15+0148EDLW V0202301N007710033019N0112651N1+00901+00901999999ADDGA1021+002401999GA2071+003301999GF107991999999999999999999MA1101691999999MW1511REMMET068METAR EDLW 052020Z 23015KT 9999 -DZ FEW008 BKN011 09/09 Q1017 RMK H;
0143104160999992007010520504+51517+007617FM-15+0148EDLW V0202301N008210033019N0112651N1+00901+00901999999ADDGA1021+002401999GA2071+003301999GF107991999999999999999999MA1101691999999REMMET058METAR EDLW 052050Z 23016KT 9999 FEW008 BKN011 09/09 Q1017;
0172104160999992007010604204+51517+007617FM-15+0148EDLW V0202401N00721009601CN0112651N1+00901+00901999999ADDGA1021+004201999GA2041+009601999GA3071+018001999GF107991999999999999999999MA1101691999999REMMET071METAR EDLW 060420Z 24014KT 9999 FEW014 SCT032 BKN065 09/09 Q1017 RMK A;
0149104160999992007010604504+51517+007617FM-15+0148EDLW V0202401N007712200019N0112651N1+01001+01001999999ADDGA1041+004801999GA2041+010801999GF104991999999999999999999MA1101691999999REMMET064METAR EDLW 060450Z 24015KT 9999 SCT016 SCT036 10/10 Q1017 RMK B;
0149104160999992007010605204+51517+007617FM-15+0148EDLW V0202501N007212200019N0112651N1+00901+00901999999ADDGA1041+004201999GA2041+007201999GF104991999999999999999999MA1101691999999REMMET064METAR EDLW 060520Z 25014KT 9999 SCT014 SCT024 09/09 Q1017 RMK C;
0149104160999992007010605504+51517+007617FM-15+0148EDLW V0202401N006712200019N0112651N1+00801+00801999999ADDGA1021+003901999GA2041+015001999GF104991999999999999999999MA1101691999999REMMET064METAR EDLW 060550Z 24013KT 9999 FEW013 SCT054 08/08 Q1017 RMK D;
0126104160999992007010606204+51517+007617FM-15+0148EDLW V0202301N007712200019N0112651N1+00801+00801999999ADDGA1041+004501999GF104991999999999999999999MA1101691999999REMMET057METAR EDLW 060620Z 23015KT 9999 SCT015 08/08 Q1017 RMK E;
0143104160999992007010606504+51517+007617FM-15+0148EDLW V0202401N006712200019N0112651N1+00801+00801999999ADDGA1021+011401999GA2041+015001999GF104991999999999999999999MA1101691999999REMMET058METAR EDLW 060650Z 24013KT 9999 FEW038 SCT054 08/08 Q1017;
0149104160999992007010607204+51517+007617FM-15+0148EDLW V0202501N004612200019N0112651N1+00701+00701999999ADDGA1021+003901999GA2041+015001999GF104991999999999999999999MA1101801999999REMMET064METAR EDLW 060720Z 25009KT 9999 FEW013 SCT054 07/07 Q1018 RMK G;
0143104160999992007010607504+51517+007617FM-15+0148EDLW V0202501N005112200019N0112651N1+00701+00701999999ADDGA1021+004501999GA2041+018001999GF104991999999999999999999MA1101801999999REMMET058METAR EDLW 060750Z 25010KT 9999 FEW015 SCT067 07/07 Q1018;
0149104160999992007010608204+51517+007617FM-15+0148EDLW V0202301N005112200019N0112651N1+00701+00701999999ADDGA1021+004501999GA2041+021001999GF104991999999999999999999MA1101801999999REMMET064METAR EDLW 060820Z 23010KT 9999 FEW015 SCT072 07/07 Q1018 RMK I;
0149104160999992007010608504+51517+007617FM-15+0148EDLW V0202301N004612200019N0112651N1+00701+00701999999ADDGA1021+005701999GA2041+018001999GF104991999999999999999999MA1101801999999REMMET064METAR EDLW 060850Z 23009KT 9999 FEW019 SCT069 07/07 Q1018 RMK J;
0149104160999992007010609204+51517+007617FM-15+0148EDLW V0202201N004612200019N0090001N1+00701+00701999999ADDGA1021+005701999GA2041+015001999GF104991999999999999999999MA1101801999999REMMET064METAR EDLW 060920Z 22009KT 9000 FEW019 SCT059 07/07 Q1018 RMK K;
0149104160999992007010609504+51517+007617FM-15+0148EDLW V0202101N004112200019N0090001N1+00801+00801999999ADDGA1021+005401999GA2041+015001999GF104991999999999999999999MA1101801999999REMMET064METAR EDLW 060950Z 21008KT 9000 FEW018 SCT052 08/08 Q1018 RMK L;
0182104160999992007010610204+51517+007617FM-15+0148EDLW V0202301N00511011401CN0112651N1+00801+00701999999ADDGA1021+003601999GA2041+011401999GA3071+015001999GF107991999999999999999999MA1101801999999MW1611REMMET075METAR EDLW 061020Z 23010KT 9999 -RA FEW012 SCT038 BKN052 08/07 Q1018 RMK M;
0149104160999992007010610504+51517+007617FM-15+0148EDLW V0202301N004610150019N0112651N1+00801+00601999999ADDGA1041+011101999GA2071+015001999GF107991999999999999999999MA1101691999999REMMET064METAR EDLW 061050Z 23009KT 9999 SCT037 BKN052 08/06 Q1017 RMK N;
0149104160999992007010611204+51517+007617FM-15+0148EDLW V0202401N003610099019N0112651N1+00801+00601999999ADDGA1021+006301999GA2071+009901999GF107991999999999999999999MA1101691999999REMMET064METAR EDLW 061120Z 24007KT 9999 FEW021 BKN033 08/06 Q1017 RMK O;
0149104160999992007010611504+51517+007617FM-15+0148EDLW V0202301N004610096019N0112651N1+00801+00601999999ADDGA1021+006901999GA2071+009601999GF107991999999999999999999MA1101691999999REMMET064METAR EDLW 061150Z 23009KT 9999 FEW023 BKN032 08/06 Q1017 RMK P;
0149104160999992007010612204+51517+007617FM-15+0148EDLW V0202301N003610087019N0112651N1+00801+00601999999ADDGA1021+006301999GA2071+008701999GF107991999999999999999999MA1101591999999REMMET064METAR EDLW 061220Z 23007KT 9999 FEW021 BKN029 08/06 Q1016 RMK Q;
0167104160999992007010612504+51517+007617FM-15+0148EDLW V0202301N003110066019N0080001N1+00701+00701999999ADDGA1021+002701999GA2071+006601999GF107991999999999999999999MA1101591999999MW1511REMMET076METAR EDLW 061250Z 23006KT 210V270 8000 -DZ FEW009 BKN022 07/07 Q1016 RMK R;
0167104160999992007010613204+51517+007617FM-15+0148EDLW V0202501N002110042019N0050001N1+00701+00701999999ADDGA1021+001501999GA2071+004201999GF107991999999999999999999MA1101591999999MW1511MW2611REMMET070METAR EDLW 061320Z 25004KT 5000 -RADZ FEW005 BKN014 07/07 Q1016 RMK S;
0190104160999992007010613504+51517+007617FM-15+0148EDLW V0202301N00311003301CN0070001N1+00701+00701999999ADDGA1021+001501999GA2041+003301999GA3071+008401999GF107991999999999999999999MA1101491999999MW1511REMMET083METAR EDLW 061350Z 23006KT 210V270 7000 -DZ FEW005 SCT011 BKN028 07/07 Q1015 RMK T;
0167104160999992007010614204+51517+007617FM-15+0148EDLW V0202301N003110081019N0080001N1+00801+00801999999ADDGA1041+003601999GA2071+008101999GF107991999999999999999999MA1101491999999MW1511MW2611REMMET070METAR EDLW 061420Z 23006KT 8000 -RADZ SCT012 BKN027 08/08 Q1015 RMK U;
0153104160999992007010614504+51517+007617FM-15+0148EDLW V0201701N002610105019N0080001N1+00801+00801999999ADDGA1041+008101999GA2071+010501999GF107991999999999999999999MA1101491999999MW1611REMMET062METAR EDLW 061450Z 17005KT 8000 -RA SCT027 BKN035 08/08 Q1015;
0159104160999992007010615204+51517+007617FM-15+0148EDLW V0201801N002610105019N0070001N1+00801+00801999999ADDGA1041+006601999GA2071+010501999GF107991999999999999999999MA1101391999999MW1611REMMET068METAR EDLW 061520Z 18005KT 7000 -RA SCT022 BKN035 08/08 Q1014 RMK V;
0153104160999992007010615504+51517+007617FM-15+0148EDLW V0202001N001010063019N0060001N1+00701+00701999999ADDGA1041+003901999GA2071+006301999GF107991999999999999999999MA1101391999999MW1611REMMET062METAR EDLW 061550Z 20002KT 6000 -RA SCT013 BKN021 07/07 Q1014;
0167104160999992007010616204+51517+007617FM-15+0148EDLW V0201401N001510084019N0060001N1+00801+00801999999ADDGA1041+003301999GA2071+008401999GF107991999999999999999999MA1101391999999MW1611REMMET076METAR EDLW 061620Z 14003KT 080V170 6000 -RA SCT011 BKN028 08/08 Q1014 RMK X;
0144104160999992007010616504+51517+007617FM-15+0148EDLW V0201301N001510045019N0060001N1+00801+00801999999ADDGA1071+004501999GF107991999999999999999999MA1101291999999MW1511MW2611REMMET063METAR EDLW 061650Z 13003KT 6000 -RADZ BKN015 08/08 Q1013 RMK Z;
0158104160999992007010617204+51517+007617FM-15+0148EDLW V0201201N002610048019N0060001N1+00801+00801999999ADDGA1021+001501999GA2071+004801999GF107991999999999999999999MA1101191999999MW1611REMMET067METAR EDLW 061720Z 12005KT 6000 -RA FEW005 BKN16 08/08 Q1012 RMK A;
0158104160999992007010617504+51517+007617FM-15+0148EDLW V0201301N002110099019N0070001N1+00801+00801999999ADDGA1041+006001999GA2071+009901999GF107991999999999999999999MA1101191999999MW1611REMMET067METAR EDLW 061750Z 13004KT 7000 -RA SCT020 BKN33 08/08 Q1012 RMK B;
0136104160999992007010618204+51517+007617FM-15+0148EDLW V0201701N003110096019N0080001N1+00801+00801999999ADDGA1071+009601999GF107991999999999999999999MA1101081999999MW1611REMMET061METAR EDLW 061820Z 17006KT 8000 -RA BKN032 08/08 Q1011 RMK C;
0167104160999992007010618504+51517+007617FM-15+0148EDLW V0202101N005710084019N0080001N1+01001+01001999999ADDGA1041+004201999GA2071+008401999GF107991999999999999999999MA1101081999999MW1511MW2611REMMET070METAR EDLW 061850Z 21011KT 8000 -RADZ SCT014 BKN028 10/10 Q1011 RMK D;
0167104160999992007010619204+51517+007617FM-15+0148EDLW V0202101N006710072019N0080001N1+01001+01001999999ADDGA1041+003901999GA2071+007201999GF107991999999999999999999MA1101021999999MW1511MW2611REMMET070METAR EDLW 061920Z 21013KT 8000 -RADZ SCT013 BKN024 10/10 Q1010 RMK E;
0159104160999992007010619504+51517+007617FM-15+0148EDLW V0202201N007710069019N0080001N1+01001+01001999999ADDGA1041+003001999GA2071+006901999GF107991999999999999999999MA1101021999999MW1511REMMET068METAR EDLW 061950Z 22015KT 8000 -DZ SCT010 BKN023 10/10 Q1010 RMK F;
0159104160999992007010620204+51517+007617FM-15+0148EDLW V0202201N007210063019N0080001N1+01001+01001999999ADDGA1041+003001999GA2071+006301999GF107991999999999999999999MA1101021999999MW1511REMMET068METAR EDLW 062020Z 22014KT 8000 -DZ SCT010 BKN021 10/10 Q1010 RMK G;
0152104160999992007010620504+51517+007617FM-15+0148EDLW V0202201N006210081019N0080001N1+01001+01001999999ADDGA1041+003601999GA2071+008101999GF107991999999999999999999MA1101021999999MW1631REMMET061METAR EDLW 062050Z 22012KT 8000 RA SCT012 BKN027 10/10 Q1010;
0134104160999992007010704204+51517+007617FM-15+0148EDLW V0202801N005710039019N0112651N1+00701+00701999999ADDGA1071+003901999GF107991999999999999999999MA1101491999999REMMET065METAR EDLW 070420Z 28011KT 250V320 9999 BKN013 07/07 Q1015 RMK A;
0149104160999992007010704504+51517+007617FM-15+0148EDLW V0202701N005110123019N0112651N1+00601+00601999999ADDGA1041+005701999GA2071+012301999GF107991999999999999999999MA1101491999999REMMET064METAR EDLW 070450Z 27010KT 9999 SCT019 BKN041 06/06 Q1015 RMK B;
0149104160999992007010705204+51517+007617FM-15+0148EDLW V0202601N005110108019N0112651N1+00601+00601999999ADDGA1041+004501999GA2071+010801999GF107991999999999999999999MA1101591999999REMMET064METAR EDLW 070520Z 26010KT 9999 SCT015 BKN036 06/06 Q1016 RMK C;
0149104160999992007010705504+51517+007617FM-15+0148EDLW V0202601N005110102019N0112651N1+00601+00601999999ADDGA1041+004501999GA2071+010201999GF107991999999999999999999MA1101591999999REMMET064METAR EDLW 070550Z 26010KT 9999 SCT015 BKN034 06/06 Q1016 RMK D;
0149104160999992007010706204+51517+007617FM-15+0148EDLW V0202401N004110093019N0070001N1+00601+00601999999ADDGA1041+003001999GA2071+009301999GF107991999999999999999999MA1101691999999REMMET064METAR EDLW 070620Z 24008KT 7000 SCT010 BKN031 06/06 Q1017 RMK E;
0149104160999992007010706504+51517+007617FM-15+0148EDLW V0202401N005710105019N0080001N1+00601+00601999999ADDGA1041+003001999GA2071+010501999GF107991999999999999999999MA1101591999999REMMET064METAR EDLW 070650Z 24011KT 8000 SCT010 BKN035 06/06 Q1016 RMK F;
0149104160999992007010707204+51517+007617FM-15+0148EDLW V0202301N005110114019N0112651N1+00601+00601999999ADDGA1041+003001999GA2071+011401999GF107991999999999999999999MA1101691999999REMMET064METAR EDLW 070720Z 23010KT 9999 SCT010 BKN038 06/06 Q1017 RMK G;
0149104160999992007010707504+51517+007617FM-15+0148EDLW V0202301N005710360019N0112651N1+00601+00601999999ADDGA1041+005401999GA2071+036001999GF107991999999999999999999MA1101691999999REMMET064METAR EDLW 070750Z 23011KT 9999 SCT018 BKN120 06/06 Q1017 RMK H;
0149104160999992007010708204+51517+007617FM-15+0148EDLW V0202301N006210360019N0112651N1+00601+00601999999ADDGA1041+005401999GA2071+036001999GF107991999999999999999999MA1101691999999REMMET064METAR EDLW 070820Z 23012KT 9999 SCT018 BKN120 06/06 Q1017 RMK I;
0126104160999992007010708504+51517+007617FM-15+0148EDLW V0202201N006712200019N0112651N1+00601+00601999999ADDGA1021+005101999GF102991999999999999999999MA1101691999999REMMET057METAR EDLW 070850Z 22013KT 9999 FEW017 06/06 Q1017 RMK J;
0149104160999992007010709204+51517+007617FM-15+0148EDLW V0202201N006212200019N0112651N1+00701+00701999999ADDGA1021+005101999GA2041+010201999GF104991999999999999999999MA1101691999999REMMET064METAR EDLW 070920Z 22012KT 9999 FEW017 SCT034 07/07 Q1017 RMK K;
0149104160999992007010709504+51517+007617FM-15+0148EDLW V0202201N007210111019N0112651N1+00701+00601999999ADDGA1021+005101999GA2071+011101999GF107991999999999999999999MA1101691999999REMMET064METAR EDLW 070950Z 22014KT 9999 FEW017 BKN037 07/06 Q1017 RMK L;
0149104160999992007010710204+51517+007617FM-15+0148EDLW V0202201N007210120019N0112651N1+00801+00601999999ADDGA1021+005101999GA2071+012001999GF107991999999999999999999MA1101691999999REMMET064METAR EDLW 071020Z 22014KT 9999 FEW017 BKN040 08/06 Q1017 RMK M;
0149104160999992007010710504+51517+007617FM-15+0148EDLW V0202201N008210120019N0112651N1+00801+00601999999ADDGA1021+005101999GA2071+012001999GF107991999999999999999999MA1101591999999REMMET064METAR EDLW 071050Z 22016KT 9999 FEW017 BKN040 08/06 Q1016 RMK N;
0149104160999992007010711204+51517+007617FM-15+0148EDLW V0202201N008212200019N0112651N1+00801+00601999999ADDGA1021+005101999GA2041+011401999GF104991999999999999999999MA1101591999999REMMET064METAR EDLW 071120Z 22016KT 9999 FEW017 SCT038 08/06 Q1016 RMK O;
0126104160999992007010711504+51517+007617FM-15+0148EDLW V0202201N008212200019N0112651N1+00801+00601999999ADDGA1021+005101999GF102991999999999999999999MA1101591999999REMMET057METAR EDLW 071150Z 22016KT 9999 FEW017 08/06 Q1016 RMK P;
0126104160999992007010712204+51517+007617FM-15+0148EDLW V0202201N007712200019N0112651N1+00801+00601999999ADDGA1021+005101999GF102991999999999999999999MA1101591999999REMMET057METAR EDLW 071220Z 22015KT 9999 FEW017 08/06 Q1016 RMK Q;
0149104160999992007010712504+51517+007617FM-15+0148EDLW V0202201N008212200019N0112651N1+00801+00601999999ADDGA1021+006301999GA2041+013501999GF104991999999999999999999MA1101491999999REMMET064METAR EDLW 071250Z 22016KT 9999 FEW021 SCT045 08/06 Q1015 RMK R;
0149104160999992007010713204+51517+007617FM-15+0148EDLW V0202201N006212200019N0112651N1+00801+00501999999ADDGA1021+006601999GA2041+015001999GF104991999999999999999999MA1101491999999REMMET064METAR EDLW 071320Z 22012KT 9999 FEW022 SCT051 08/05 Q1015 RMK S;
0149104160999992007010713504+51517+007617FM-15+0148EDLW V0202101N006712200019N0112651N1+00801+00501999999ADDGA1021+008401999GA2041+012301999GF104991999999999999999999MA1101491999999REMMET064METAR EDLW 071350Z 21013KT 9999 FEW028 SCT041 08/05 Q1015 RMK T;
0149104160999992007010714204+51517+007617FM-15+0148EDLW V0202101N007712200019N0112651N1+00801+00501999999ADDGA1021+008701999GA2041+015001999GF104991999999999999999999MA1101491999999REMMET064METAR EDLW 071420Z 21015KT 9999 FEW029 SCT055 08/05 Q1015 RMK U;
0149104160999992007010714504+51517+007617FM-15+0148EDLW V0202101N008212200019N0112651N1+00801+00501999999ADDGA1021+009001999GA2041+015001999GF104991999999999999999999MA1101491999999REMMET064METAR EDLW 071450Z 21016KT 9999 FEW030 SCT051 08/05 Q1015 RMK V;
0172104160999992007010715204+51517+007617FM-15+0148EDLW V0202101N00671013201CN0112651N1+00801+00501999999ADDGA1021+009001999GA2041+013201999GA3071+015001999GF107991999999999999999999MA1101491999999REMMET071METAR EDLW 071520Z 21013KT 9999 FEW030 SCT044 BKN053 08/05 Q1015 RMK W;
0149104160999992007010715504+51517+007617FM-15+0148EDLW V0202101N006710180019N0112651N1+00801+00401999999ADDGA1021+009301999GA2071+018001999GF107991999999999999999999MA1101391999999REMMET064METAR EDLW 071550Z 21013KT 9999 FEW031 BKN060 08/04 Q1014 RMK X;
0149104160999992007010716204+51517+007617FM-15+0148EDLW V0202001N006712200019N0112651N1+00801+00401999999ADDGA1021+009301999GA2041+015001999GF104991999999999999999999MA1101391999999REMMET064METAR EDLW 071620Z 20013KT 9999 FEW031 SCT054 08/04 Q1014 RMK Y;
0149104160999992007010716504+51517+007617FM-15+0148EDLW V0202001N006712200019N0112651N1+00801+00401999999ADDGA1021+009301999GA2041+014401999GF104991999999999999999999MA1101391999999REMMET064METAR EDLW 071650Z 20013KT 9999 FEW031 SCT048 08/04 Q1014 RMK Z;
0159104160999992007010717204+51517+007617FM-15+0148EDLW V0202001N006712200019N0112651N1+00801+00401999999ADDGA1041+009301999GA2041+014401999GF104991999999999999999999MA1101391999999MW1611REMMET068METAR EDLW 071720Z 20013KT 9999 -RA SCT031 SCT048 08/04 Q1014 RMK A;
0126104160999992007010717504+51517+007617FM-15+0148EDLW V0202001N006712200019N0112651N1+00701+00401999999ADDGA1041+009001999GF104991999999999999999999MA1101391999999REMMET057METAR EDLW 071750Z 20013KT 9999 SCT030 07/04 Q1014 RMK B;
0149104160999992007010718204+51517+007617FM-15+0148EDLW V0202101N007212200019N0112651N1+00701+00401999999ADDGA1021+008701999GA2041+018001999GF104991999999999999999999MA1101391999999REMMET064METAR EDLW 071820Z 21014KT 9999 FEW029 SCT061 07/04 Q1014 RMK C;
0126104160999992007010718504+51517+007617FM-15+0148EDLW V0202001N007212200019N0112651N1+00701+00401999999ADDGA1021+008701999GF102991999999999999999999MA1101291999999REMMET057METAR EDLW 071850Z 20014KT 9999 FEW029 07/04 Q1013 RMK D;
0126104160999992007010719204+51517+007617FM-15+0148EDLW V0202001N006712200019N0112651N1+00701+00301999999ADDGA1021+009301999GF102991999999999999999999MA1101291999999REMMET057METAR EDLW 071920Z 20013KT 9999 FEW031 07/03 Q1013 RMK E;
0078104160999992007010719504+51517+007617FM-15+0148EDLW V0202001N00621999999CN0099001N1+00701+00301999999ADDMA1101291999999REMMET051METAR EDLW 071950Z 20012KT CAVOK 07/03 Q1013 RMK F;
0078104160999992007010720204+51517+007617FM-15+0148EDLW V0202101N00721999999CN0099001N1+00701+00301999999ADDMA1101291999999REMMET051METAR EDLW 072020Z 21014KT CAVOK 07/03 Q1013 RMK G;
0072104160999992007010720504+51517+007617FM-15+0148EDLW V0202001N00621999999CN0099001N1+00701+00301999999ADDMA1101191999999REMMET045METAR EDLW 072050Z 20012KT CAVOK 07/03 Q1012;
0126104160999992007010804204+51517+007617FM-15+0148EDLW V0202001N009812200019N0112651N1+00801+00401999999ADDGA1021+009301999GF102991999999999999999999MA1100411999999REMMET057METAR EDLW 080420Z 20019KT 9999 FEW031 08/04 Q1004 RMK A;
0078104160999992007010804504+51517+007617FM-15+0148EDLW V0201901N00821999999CN0099001N1+00701+00401999999ADDMA1100411999999REMMET051METAR EDLW 080450Z 19016KT CAVOK 07/04 Q1004 RMK B;
0159104160999992007010805204+51517+007617FM-15+0148EDLW V0201901N009310180019N0112651N1+00701+00501999999ADDGA1041+011401999GA2071+018001999GF107991999999999999999999MA1100311999999MW1611REMMET068METAR EDLW 080520Z 19018KT 9999 -RA SCT038 BKN060 07/05 Q1003 RMK C;
0149104160999992007010805504+51517+007617FM-15+0148EDLW V0202001N009812200019N0112651N1+00801+00501999999ADDGA1021+005101999GA2041+014701999GF104991999999999999999999MA1100311999999REMMET064METAR EDLW 080550Z 20019KT 9999 FEW017 SCT049 08/05 Q1003 RMK D;
0157104160999992007010806204+51517+007617FM-15+0148EDLW V0202001N009810150019N0112651N1+00801+00501999999ADDGA1041+012601999GA2071+015001999GF107991999999999999999999MA1100311999999REMMET072METAR EDLW 080620Z 20019KT 160V220 9999 SCT042 BKN059 08/05 Q1003 RMK E;
0143104160999992007010806504+51517+007617FM-15+0148EDLW V0202001N009310123019N0112651N1+00801+00501999999ADDGA1021+008401999GA2071+012301999GF107991999999999999999999MA1100201999999REMMET058METAR EDLW 080650Z 20018KT 9999 FEW028 BKN041 08/05 Q1002;
0159104160999992007010807204+51517+007617FM-15+0148EDLW V0202001N009810120019N0112651N1+00801+00601999999ADDGA1041+006001999GA2071+012001999GF107991999999999999999999MA1100201999999MW1511REMMET068METAR EDLW 080720Z 20019KT 9999 -DZ SCT020 BKN040 08/06 Q1002 RMK G;
0167104160999992007010807504+51517+007617FM-15+0148EDLW V0201901N009310150019N0112651N1+00801+00701999999ADDGA1041+006001999GA2071+015001999GF107991999999999999999999MA1100201999999MW1511MW2611REMMET070METAR EDLW 080750Z 19018KT 9999 -RADZ SCT020 BKN050 08/07 Q1002 RMK H;
0170104160999992007010808204+51517+007617FM-15+0148EDLW V0202001N008710117019N0112651N1+00801+00701999999ADDGA1041+006601999GA2071+011701999GF107991999999999999999999MA1100201999999MW1511OC101441REMMET071METAR EDLW 080820Z 20017G28KT 9999 -DZ SCT022 BKN039 08/07 Q1002 RMK H;
0160104160999992007010808504+51517+007617FM-15+0148EDLW V0202001N009310087019N0112651N1+00801+00801999999ADDGA1041+004801999GA2071+008701999GF107991999999999999999999MA1100201999999OC101541REMMET067METAR EDLW 080850Z 20018G30KT 9999 SCT016 BKN029 08/08 Q1002 RMK J;
0153104160999992007010809204+51517+007617FM-15+0148EDLW V0202001N008710102019N0112651N1+00901+00801999999ADDGA1041+004501999GA2071+010201999GF107991999999999999999999MA1100201999999MW1511REMMET062METAR EDLW 080920Z 20017KT 9999 -DZ SCT015 BKN034 09/08 Q1002;
0159104160999992007010809504+51517+007617FM-15+0148EDLW V0202001N008210108019N0080001N1+00901+00901999999ADDGA1041+003901999GA2071+010801999GF107991999999999999999999MA1100201999999MW1611REMMET068METAR EDLW 080950Z 20016KT 8000 -RA SCT013 BKN036 09/09 Q1002 RMK L;
0167104160999992007010810204+51517+007617FM-15+0148EDLW V0202101N008210087019N0070001N1+00901+00901999999ADDGA1041+003601999GA2071+008701999GF107991999999999999999999MA1100201999999MW1511MW2611REMMET070METAR EDLW 081020Z 21016KT 7000 -RADZ SCT012 BKN029 09/09 Q1002 RMK M;
0182104160999992007010810504+51517+007617FM-15+0148EDLW V0202201N00871004201CN0060001N1+00901+00901999999ADDGA1021+002701999GA2041+004201999GA3071+007801999GF107991999999999999999999MA1100201999999MW1511REMMET075METAR EDLW 081050Z 22017KT 6000 -DZ FEW009 SCT014 BKN026 09/09 Q1002 RMK N;
0182104160999992007010811204+51517+007617FM-15+0148EDLW V0202101N00871003901CN0112651N1+00901+00901999999ADDGA1021+002701999GA2041+003901999GA3071+011401999GF107991999999999999999999MA1100201999999MW1611REMMET075METAR EDLW 081120Z 21017KT 9999 -RA FEW009 SCT013 BKN038 09/09 Q1002 RMK O;
0159104160999992007010811504+51517+007617FM-15+0148EDLW V0202101N006710075019N0070001N1+00901+00901999999ADDGA1041+004501999GA2071+007501999GF107991999999999999999999MA1100201999999MW1611REMMET068METAR EDLW 081150Z 21013KT 7000 -RA SCT015 BKN025 09/09 Q1002 RMK P;
0159104160999992007010812204+51517+007617FM-15+0148EDLW V0202201N007210090019N0080001N1+00901+00901999999ADDGA1041+003001999GA2071+009001999GF107991999999999999999999MA1100201999999MW1611REMMET068METAR EDLW 081220Z 22014KT 8000 -RA SCT010 BKN030 09/09 Q1002 RMK Q;
0151104160999992007010812504+51517+007617FM-15+0148EDLW V0202601N006212200019N0112651N1+00901+00901999999ADDGA1021+003901999GA2041+010501999GF104991999999999999999999MA1100311999999REMMET066METAR EDLW 081250Z 26012KT 230V290 9999 FEW013 SCT035 09/09 Q1003;
0149104160999992007010813204+51517+007617FM-15+0148EDLW V0202701N005112200019N0112651N1+00901+00901999999ADDGA1041+004201999GA2041+007801999GF104991999999999999999999MA1100311999999REMMET064METAR EDLW 081320Z 27010KT 9999 SCT014 SCT026 09/09 Q1003 RMK S;
0156104160999992007010813504+51517+007617FM-15+0148EDLW V0202801N004112200019N0112651N1+00901+00901999999ADDGA1041+003901999GA2041+008101999GF104991999999999999999999MA1100411999999REMMET071METAR EDLW 081350Z 28008KT 250V310 9999 SCT13 SCT027 09/09 Q1004 RMK T;
0149104160999992007010814204+51517+007617FM-15+0148EDLW V0202701N004612200019N0112651N1+00801+00701999999ADDGA1041+004201999GA2041+009301999GF104991999999999999999999MA1100411999999REMMET064METAR EDLW 081420Z 27009KT 9999 SCT014 SCT031 08/07 Q1004 RMK U;
0149104160999992007010814504+51517+007617FM-15+0148EDLW V0202401N004112200019N0112651N1+00901+00901999999ADDGA1041+004501999GA2041+009301999GF104991999999999999999999MA1100511999999REMMET064METAR EDLW 081450Z 24008KT 9999 SCT015 SCT031 09/09 Q1005 RMK V;
0126104160999992007010815204+51517+007617FM-15+0148EDLW V0202401N006212200019N0112651N1+00801+00701999999ADDGA1041+005401999GF104991999999999999999999MA1100511999999REMMET057METAR EDLW 081520Z 24012KT 9999 SCT018 08/07 Q1005 RMK W;
0120104160999992007010815504+51517+007617FM-15+0148EDLW V0202401N007212200019N0112651N1+00801+00601999999ADDGA1021+005401999GF102991999999999999999999MA1100511999999REMMET051METAR EDLW 081550Z 24014KT 9999 FEW018 08/06 Q1005;
0078104160999992007010816204+51517+007617FM-15+0148EDLW V0202201N00461999999CN0099001N1+00701+00601999999ADDMA1100511999999REMMET051METAR EDLW 081620Z 22009KT CAVOK 07/06 Q1005 RMK Y;
0078104160999992007010816504+51517+007617FM-15+0148EDLW V0202101N00511999999CN0099001N1+00701+00601999999ADDMA1100511999999REMMET051METAR EDLW 081650Z 21010KT CAVOK 07/06 Q1005 RMK Z;
0126104160999992007010817204+51517+007617FM-15+0148EDLW V0202001N004112200019N0112651N1+00701+00701999999ADDGA1021+008101999GF102991999999999999999999MA1100511999999REMMET057METAR EDLW 081720Z 20008KT 9999 FEW027 07/07 Q1005 RMK A;
0143104160999992007010817504+51517+007617FM-15+0148EDLW V0202001N004612200019N0112651N1+00801+00701999999ADDGA1021+014401999GA2041+033001999GF104991999999999999999999MA1100411999999REMMET058METAR EDLW 081750Z 20009KT 9999 FEW048 SCT110 08/07 Q1004;
0149104160999992007010818204+51517+007617FM-15+0148EDLW V0202101N005712200019N0112651N1+00801+00601999999ADDGA1041+013501999GA2041+030001999GF104991999999999999999999MA1100411999999REMMET064METAR EDLW 081820Z 21011KT 9999 SCT045 SCT100 08/06 Q1004 RMK C;
0149104160999992007010818504+51517+007617FM-15+0148EDLW V0202001N005712200019N0112651N1+00801+00601999999ADDGA1021+009901999GA2041+013501999GF104991999999999999999999MA1100411999999REMMET064METAR EDLW 081850Z 20011KT 9999 FEW033 SCT045 08/06 Q1004 RMK D;
0159104160999992007010819204+51517+007617FM-15+0148EDLW V0202001N007212200019N0112651N1+00801+00601999999ADDGA1021+011401999GA2041+015001999GF104991999999999999999999MA1100311999999MW1611REMMET068METAR EDLW 081920Z 20014KT 9999 -RA FEW038 SCT052 08/06 Q1003 RMK E;
0158104160999992007010819504+51517+007617FM-15+0148EDLW V0202101N006712200019N0112651N1+00801+00701999999ADDGA1041+012601999GA2041+015001999GF104991999999999999999999MA1100311999999MW1631REMMET067METAR EDLW 081950Z 21013KT 9999 RA SCT042 SCT053 08/07 Q1003 RMK F;
0149104160999992007010820204+51517+007617FM-15+0148EDLW V0202001N007712200019N0112651N1+00801+00701999999ADDGA1021+005401999GA2041+012601999GF104991999999999999999999MA1100311999999REMMET064METAR EDLW 082020Z 20015KT 9999 FEW018 SCT042 08/07 Q1003 RMK H;
0143104160999992007010820504+51517+007617FM-15+0148EDLW V0202001N009312200019N0112651N1+00801+00801999999ADDGA1021+004801999GA2041+012601999GF104991999999999999999999MA1100201999999REMMET058METAR EDLW 082050Z 20018KT 9999 FEW016 SCT042 08/08 Q1002;
0149104160999992007010904204+51517+007617FM-15+0148EDLW V0202401N012310051019N0112651N1+01201+01201999999ADDGA1021+003601999GA2071+005101999GF107991999999999999999999MA1100511999999REMMET064METAR EDLW 090420Z 24024KT 9999 FEW012 BKN017 12/12 Q1005 RMK A;
0137104160999992007010904504+51517+007617FM-15+0148EDLW V0202401N010810045019N0112651N1+01201+01201999999ADDGA1071+004501999GF107991999999999999999999MA1100511999999OC101751REMMET060METAR EDLW 090450Z 24021G34KT 9999 BKN015 12/12 Q1005 RMK B;
0149104160999992007010905204+51517+007617FM-15+0148EDLW V0202301N010310105019N0112651N1+01201+01201999999ADDGA1021+005101999GA2071+010501999GF107991999999999999999999MA1100511999999REMMET064METAR EDLW 090520Z 23020KT 9999 FEW017 BKN035 12/12 Q1005 RMK C;
0149104160999992007010905504+51517+007617FM-15+0148EDLW V0202401N010810087019N0112651N1+01301+01101999999ADDGA1021+006001999GA2071+008701999GF107991999999999999999999MA1100611999999REMMET064METAR EDLW 090550Z 24021KT 9999 FEW020 BKN029 13/11 Q1006 RMK D;
0160104160999992007010906204+51517+007617FM-15+0148EDLW V0202401N010810111019N0112651N1+01301+01001999999ADDGA1021+006001999GA2071+011101999GF107991999999999999999999MA1100611999999OC101901REMMET067METAR EDLW 090620Z 24021G37KT 9999 FEW020 BKN037 13/10 Q1006 RMK E;
0149104160999992007010906504+51517+007617FM-15+0148EDLW V0202401N012910102019N0112651N1+01301+01001999999ADDGA1021+006001999GA2071+010201999GF107991999999999999999999MA1100611999999REMMET064METAR EDLW 090650Z 24025KT 9999 FEW020 BKN034 13/10 Q1006 RMK F;
0160104160999992007010907204+51517+007617FM-15+0148EDLW V0202401N010310093019N0112651N1+01201+01001999999ADDGA1021+006001999GA2071+009301999GF107991999999999999999999MA1100711999999OC101751REMMET067METAR EDLW 090720Z 24020G34KT 9999 FEW020 BKN031 12/10 Q1007 RMK G;
0149104160999992007010907504+51517+007617FM-15+0148EDLW V0202401N010310072019N0112651N1+01201+01001999999ADDGA1021+005701999GA2071+007201999GF107991999999999999999999MA1100711999999REMMET064METAR EDLW 090750Z 24020KT 9999 FEW019 BKN024 12/10 Q1007 RMK H;
0149104160999992007010908204+51517+007617FM-15+0148EDLW V0202401N009310072019N0112651N1+01201+01001999999ADDGA1021+004801999GA2071+007201999GF107991999999999999999999MA1100711999999REMMET064METAR EDLW 090820Z 24018KT 9999 FEW016 BKN024 12/10 Q1007 RMK I;
0160104160999992007010908504+51517+007617FM-15+0148EDLW V0202401N011310078019N0112651N1+01301+00901999999ADDGA1021+006001999GA2071+007801999GF107991999999999999999999MA1100811999999OC101801REMMET067METAR EDLW 090850Z 24022G35KT 9999 FEW020 BKN026 13/09 Q1008 RMK J;
0154104160999992007010909204+51517+007617FM-15+0148EDLW V0202401N009810084019N0112651N1+01301+00901999999ADDGA1021+006001999GA2071+008401999GF107991999999999999999999MA1100811999999OC101541REMMET061METAR EDLW 090920Z 24019G30KT 9999 FEW020 BKN028 13/09 Q1008;
0149104160999992007010909504+51517+007617FM-15+0148EDLW V0202401N011810135019N0112651N1+01301+00901999999ADDGA1021+008401999GA2071+013501999GF107991999999999999999999MA1100811999999REMMET064METAR EDLW 090950Z 24023KT 9999 FEW028 BKN045 13/09 Q1008 RMK L;
0160104160999992007010910204+51517+007617FM-15+0148EDLW V0202401N011810135019N0112651N1+01301+00901999999ADDGA1021+008401999GA2071+013501999GF107991999999999999999999MA1100911999999OC101751REMMET067METAR EDLW 091020Z 24023G34KT 9999 FEW028 BKN045 13/09 Q1009 RMK N;
0160104160999992007010910504+51517+007617FM-15+0148EDLW V0202401N010310138019N0112651N1+01301+00901999999ADDGA1021+009001999GA2071+013801999GF107991999999999999999999MA1100911999999OC101591REMMET067METAR EDLW 091050Z 24020G31KT 9999 FEW030 BKN046 13/09 Q1009 RMK O;
0160104160999992007010911204+51517+007617FM-15+0148EDLW V0202401N010810084019N0112651N1+01301+00901999999ADDGA1021+007201999GA2071+008401999GF107991999999999999999999MA1100911999999OC101751REMMET067METAR EDLW 091120Z 24021G34KT 9999 FEW024 BKN028 13/09 Q1009 RMK P;
0160104160999992007010911504+51517+007617FM-15+0148EDLW V0202401N011810066019N0112651N1+01201+01001999999ADDGA1021+005101999GA2071+006601999GF107991999999999999999999MA1100911999999OC101951REMMET067METAR EDLW 091150Z 24023G38KT 9999 FEW017 BKN022 12/10 Q1009 RMK Q;
0149104160999992007010912204+51517+007617FM-15+0148EDLW V0202401N010310123019N0112651N1+01301+00801999999ADDGA1021+005701999GA2071+012301999GF107991999999999999999999MA1100911999999REMMET064METAR EDLW 091220Z 24020KT 9999 FEW019 BKN041 13/08 Q1009 RMK R;
0160104160999992007010912504+51517+007617FM-15+0148EDLW V0202501N010810093019N0112651N1+01301+00901999999ADDGA1041+006901999GA2071+009301999GF107991999999999999999999MA1100911999999OC101591REMMET067METAR EDLW 091250Z 25021G31KT 9999 SCT023 BKN031 13/09 Q1009 RMK S;
0160104160999992007010913204+51517+007617FM-15+0148EDLW V0202401N011310132019N0112651N1+01301+00901999999ADDGA1041+008401999GA2071+013201999GF107991999999999999999999MA1100911999999OC101751REMMET067METAR EDLW 091320Z 24022G34KT 9999 SCT028 BKN044 13/09 Q1009 RMK T;
0160104160999992007010913504+51517+007617FM-15+0148EDLW V0202301N011810135019N0112651N1+01301+00801999999ADDGA1041+009001999GA2071+013501999GF107991999999999999999999MA1101021999999OC101801REMMET067METAR EDLW 091350Z 23023G35KT 9999 SCT030 BKN045 13/08 Q1010 RMK U;
0149104160999992007010914204+51517+007617FM-15+0148EDLW V0202401N010810150019N0112651N1+01301+00701999999ADDGA1041+008701999GA2071+015001999GF107991999999999999999999MA1101021999999REMMET064METAR EDLW 091420Z 24021KT 9999 SCT029 BKN052 13/07 Q1010 RMK V;
0160104160999992007010914504+51517+007617FM-15+0148EDLW V0202501N009310150019N0112651N1+01301+00701999999ADDGA1041+009601999GA2071+015001999GF107991999999999999999999MA1101081999999OC101491REMMET067METAR EDLW 091450Z 25018G29KT 9999 SCT032 BKN050 13/07 Q1011 RMK W;
0160104160999992007010915204+51517+007617FM-15+0148EDLW V0202501N009312200019N0112651N1+01301+00701999999ADDGA1041+010801999GA2041+015001999GF104991999999999999999999MA1101081999999OC101651REMMET067METAR EDLW 091520Z 25018G32KT 9999 SCT036 SCT055 13/07 Q1011 RMK X;
0160104160999992007010915504+51517+007617FM-15+0148EDLW V0202301N010810150019N0112651N1+01301+00701999999ADDGA1041+011401999GA2071+015001999GF107991999999999999999999MA1101081999999OC101651REMMET067METAR EDLW 091550Z 23021G32KT 9999 SCT038 BKN054 13/07 Q1011 RMK Y;
0149104160999992007010916204+51517+007617FM-15+0148EDLW V0202401N009810150019N0112651N1+01301+00701999999ADDGA1041+011701999GA2071+015001999GF107991999999999999999999MA1101081999999REMMET064METAR EDLW 091620Z 24019KT 9999 SCT039 BKN053 13/07 Q1011 RMK Z;
0160104160999992007010916504+51517+007617FM-15+0148EDLW V0202401N009312200019N0112651N1+01301+00701999999ADDGA1021+010801999GA2041+015001999GF104991999999999999999999MA1101191999999OC101491REMMET067METAR EDLW 091650Z 24018G29KT 9999 FEW036 SCT057 13/07 Q1012 RMK A;
0149104160999992007010917204+51517+007617FM-15+0148EDLW V0202401N008212200019N0112651N1+01301+00701999999ADDGA1021+010201999GA2041+015001999GF104991999999999999999999MA1101191999999REMMET064METAR EDLW 091720Z 24016KT 9999 FEW034 SCT055 13/07 Q1012 RMK B;
0160104160999992007010917504+51517+007617FM-15+0148EDLW V0202401N010812200019N0112651N1+01301+00701999999ADDGA1021+009901999GA2041+015001999GF104991999999999999999999MA1101191999999OC101801REMMET067METAR EDLW 091750Z 24021G35KT 9999 FEW033 SCT052 13/07 Q1012 RMK C;
0137104160999992007010918204+51517+007617FM-15+0148EDLW V0202401N010312200019N0112651N1+01301+00501999999ADDGA1041+014101999GF104991999999999999999999MA1101191999999OC101591REMMET060METAR EDLW 091820Z 24020G31KT 9999 SCT047 13/05 Q1012 RMK D;
0126104160999992007010918504+51517+007617FM-15+0148EDLW V0202301N009810141019N0112651N1+01301+00601999999ADDGA1071+014101999GF107991999999999999999999MA1101191999999REMMET057METAR EDLW 091850Z 23019KT 9999 BKN047 13/06 Q1012 RMK E;
0137104160999992007010919204+51517+007617FM-15+0148EDLW V0202301N010310135019N0112651N1+01201+00601999999ADDGA1071+013501999GF107991999999999999999999MA1101291999999OC101591REMMET060METAR EDLW 091920Z 23020G31KT 9999 BKN045 12/06 Q1013 RMK F;
0126104160999992007010919504+51517+007617FM-15+0148EDLW V0202301N009810144019N0112651N1+01301+00501999999ADDGA1071+014401999GF107991999999999999999999MA1101291999999REMMET057METAR EDLW 091950Z 23019KT 9999 BKN048 13/05 Q1013 RMK G;
0126104160999992007010920204+51517+007617FM-15+0148EDLW V0202301N010310147019N0112651N1+01301+00501999999ADDGA1071+014701999GF107991999999999999999999MA1101291999999REMMET057METAR EDLW 092020Z 23020KT 9999 BKN049 13/05 Q1013 RMK H;
0137104160999992007010920504+51517+007617FM-15+0148EDLW V0202301N010310147019N0112651N1+01301+00601999999ADDGA1071+014701999GF107991999999999999999999MA1101291999999OC101541REMMET060METAR EDLW 092050Z 23020G30KT 9999 BKN049 13/06 Q1013 RMK I;
0126104160999992007011004204+51517+007617FM-15+0148EDLW V0202201N007710081019N0112651N1+01201+00801999999ADDGA1071+008101999GF107991999999999999999999MA1101291999999REMMET057METAR EDLW 100420Z 22015KT 9999 BKN027 12/08 Q1013 RMK A;
0126104160999992007011004504+51517+007617FM-15+0148EDLW V0202201N008210081019N0112651N1+01201+00701999999ADDGA1071+008101999GF107991999999999999999999MA1101291999999REMMET057METAR EDLW 100450Z 22016KT 9999 BKN027 12/07 Q1013 RMK B;
0149104160999992007011005204+51517+007617FM-15+0148EDLW V0202101N007710180019N0112651N1+01201+00701999999ADDGA1021+008101999GA2071+018001999GF107991999999999999999999MA1101191999999REMMET064METAR EDLW 100520Z 21015KT 9999 FEW027 BKN066 12/07 Q1012 RMK C;
0149104160999992007011005504+51517+007617FM-15+0148EDLW V0202101N008210180019N0112651N1+01201+00701999999ADDGA1021+010801999GA2071+018001999GF107991999999999999999999MA1101191999999REMMET064METAR EDLW 100550Z 21016KT 9999 FEW036 BKN063 12/07 Q1012 RMK D;
0149104160999992007011006204+51517+007617FM-15+0148EDLW V0202101N007710180019N0112651N1+01201+00701999999ADDGA1021+009901999GA2071+018001999GF107991999999999999999999MA1101191999999REMMET064METAR EDLW 100620Z 21015KT 9999 FEW033 BKN065 12/07 Q1012 RMK E;
0149104160999992007011006504+51517+007617FM-15+0148EDLW V0202101N008210180019N0112651N1+01201+00701999999ADDGA1041+009301999GA2071+018001999GF107991999999999999999999MA1101191999999REMMET064METAR EDLW 100650Z 21016KT 9999 SCT031 BKN065 12/07 Q1012 RMK F;
0149104160999992007011007204+51517+007617FM-15+0148EDLW V0202101N008710084019N0112651N1+01201+00701999999ADDGA1021+003301999GA2071+008401999GF107991999999999999999999MA1101191999999REMMET064METAR EDLW 100720Z 21017KT 9999 FEW011 BKN028 12/07 Q1012 RMK G;
0149104160999992007011007504+51517+007617FM-15+0148EDLW V0202201N010310084019N0112651N1+01101+00801999999ADDGA1021+003301999GA2071+008401999GF107991999999999999999999MA1101191999999REMMET064METAR EDLW 100750Z 22020KT 9999 FEW011 BKN028 11/08 Q1012 RMK H;
0149104160999992007011008204+51517+007617FM-15+0148EDLW V0202101N009310150019N0112651N1+01101+00801999999ADDGA1021+005401999GA2071+015001999GF107991999999999999999999MA1101191999999REMMET064METAR EDLW 100820Z 21018KT 9999 FEW018 BKN051 11/08 Q1012 RMK I;
0149104160999992007011008504+51517+007617FM-15+0148EDLW V0202001N008710150019N0112651N1+01201+00801999999ADDGA1021+004501999GA2071+015001999GF107991999999999999999999MA1101191999999REMMET064METAR EDLW 100850Z 20017KT 9999 FEW015 BKN052 12/08 Q1012 RMK J;
0149104160999992007011009204+51517+007617FM-15+0148EDLW V0202101N010810150019N0112651N1+01201+00701999999ADDGA1021+004501999GA2071+015001999GF107991999999999999999999MA1101191999999REMMET064METAR EDLW 100920Z 21021KT 9999 FEW015 BKN052 12/07 Q1012 RMK J;
0149104160999992007011009504+51517+007617FM-15+0148EDLW V0202101N009810180019N0112651N1+01201+00701999999ADDGA1021+009301999GA2071+018001999GF107991999999999999999999MA1101191999999REMMET064METAR EDLW 100950Z 21019KT 9999 FEW031 BKN062 12/07 Q1012 RMK K;
0168104160999992007011010204+51517+007617FM-15+0148EDLW V0202101N010810180019N0112651N1+01201+00601999999ADDGA1021+011101999GA2071+018001999GF107991999999999999999999MA1101191999999OC101651REMMET075METAR EDLW 101020Z 21021G32KT 170V230 9999 FEW037 BKN062 12/06 Q1012 RMK M;
0160104160999992007011010504+51517+007617FM-15+0148EDLW V0202101N011312200019N0112651N1+01201+00601999999ADDGA1021+011101999GA2041+014401999GF104991999999999999999999MA1101081999999OC101751REMMET067METAR EDLW 101050Z 21022G34KT 9999 FEW037 SCT048 12/06 Q1011 RMK N;
0160104160999992007011011204+51517+007617FM-15+0148EDLW V0202101N010812200019N0112651N1+01201+00701999999ADDGA1021+014401999GA2041+030001999GF104991999999999999999999MA1101081999999OC101651REMMET067METAR EDLW 101120Z 21021G32KT 9999 FEW048 SCT100 12/07 Q1011 RMK O;
0160104160999992007011011504+51517+007617FM-15+0148EDLW V0202101N010812200019N0112651N1+01301+00701999999ADDGA1021+014401999GA2041+030001999GF104991999999999999999999MA1101021999999OC101701REMMET067METAR EDLW 101150Z 21021G33KT 9999 FEW048 SCT100 13/07 Q1010 RMK P;
0086104160999992007011012204+51517+007617FM-15+0148EDLW V0202101N01081999999CN0099001N1+01301+00601999999ADDMA1101021999999REMMET059METAR EDLW 101220Z 21021KT 170V230 CAVOK 13/06 Q1010 RMK Q;
0078104160999992007011012504+51517+007617FM-15+0148EDLW V0202101N01081999999CN0099001N1+01301+00601999999ADDMA1100911999999REMMET051METAR EDLW 101250Z 21021KT CAVOK 13/06 Q1009 RMK R;
0078104160999992007011013204+51517+007617FM-15+0148EDLW V0202101N01181999999CN0099001N1+01301+00601999999ADDMA1100911999999REMMET051METAR EDLW 101320Z 21023KT CAVOK 13/06 Q1009 RMK S;
0089104160999992007011013504+51517+007617FM-15+0148EDLW V0202101N00981999999CN0099001N1+01301+00601999999ADDMA1100911999999OC101491REMMET054METAR EDLW 101350Z 21019G29KT CAVOK 13/06 Q1009 RMK T;
0078104160999992007011014204+51517+007617FM-15+0148EDLW V0202101N01031999999CN0099001N1+01301+00601999999ADDMA1100911999999REMMET051METAR EDLW 101420Z 21020KT CAVOK 13/06 Q1009 RMK U;
0078104160999992007011014504+51517+007617FM-15+0148EDLW V0202001N01031999999CN0099001N1+01301+00601999999ADDMA1100811999999REMMET051METAR EDLW 101450Z 20020KT CAVOK 13/06 Q1008 RMK V;
0078104160999992007011015204+51517+007617FM-15+0148EDLW V0202101N00981999999CN0099001N1+01301+00601999999ADDMA1100811999999REMMET051METAR EDLW 101520Z 21019KT CAVOK 13/06 Q1008 RMK W;
0159104160999992007011015504+51517+007617FM-15+0148EDLW V0202201N009310120019N0090001N1+01101+00801999999ADDGA1021+003001999GA2071+012001999GF107991999999999999999999MA1100811999999MW1611REMMET068METAR EDLW 101550Z 22018KT 9000 -RA FEW010 BKN040 11/08 Q1008 RMK X;
0158104160999992007011016204+51517+007617FM-15+0148EDLW V0202301N008710087019N0090001N1+01001+01001999999ADDGA1021+003001999GA2071+008701999GF107991999999999999999999MA1100911999999MW1631REMMET067METAR EDLW 101620Z 23017KT 9000 RA FEW010 BKN029 10/10 Q1009 RMK Y;
0177104160999992007011016504+51517+007617FM-15+0148EDLW V0202601N009810060019N0090001N1+00901+00801999999ADDGA1041+003901999GA2071+006001999GF107991999999999999999999MA1100911999999MW1631OC101701REMMET078METAR EDLW 101650Z 26019G33KT 220V310 9000 RA SCT013 BKN020 09/08 Q1009 RMK Y;
0169104160999992007011017204+51517+007617FM-15+0148EDLW V0202501N009310090019N0090001N1+00901+00901999999ADDGA1041+003901999GA2071+009001999GF107991999999999999999999MA1101021999999MW1631OC101441REMMET070METAR EDLW 101720Z 25018G28KT 9000 RA SCT013 BKN030 09/09 Q1010 RMK A;
0169104160999992007011017504+51517+007617FM-15+0148EDLW V0202401N009810090019N0090001N1+00901+00901999999ADDGA1041+003901999GA2071+009001999GF107991999999999999999999MA1100911999999MW1631OC101591REMMET070METAR EDLW 101750Z 24019G31KT 9000 RA SCT013 BKN030 09/09 Q1009 RMK B;
0169104160999992007011018204+51517+007617FM-15+0148EDLW V0202401N010310090019N0090001N1+00901+00801999999ADDGA1041+003901999GA2071+009001999GF107991999999999999999999MA1101021999999MW1631OC101651REMMET070METAR EDLW 101820Z 24020G32KT 9000 RA SCT013 BKN030 09/08 Q1010 RMK C;
0160104160999992007011018504+51517+007617FM-15+0148EDLW V0202801N008710105019N0112651N1+00801+00601999999ADDGA1071+010501999GF107991999999999999999999MA1101191999999MW1611OC101441REMMET077METAR EDLW 101850Z 28017G28KT 240V310 9999 -RA BKN035 08/06 Q1012 RERA RMK D;
0160104160999992007011019204+51517+007617FM-15+0148EDLW V0202701N008712200019N0112651N1+00701+00401999999ADDGA1041+005401999GA2041+008701999GF104991999999999999999999MA1101291999999OC101441REMMET067METAR EDLW 101920Z 27017G28KT 9999 SCT018 SCT029 07/04 Q1013 RMK E;
0137104160999992007011019504+51517+007617FM-15+0148EDLW V0202701N007712200019N0112651N1+00701+00401999999ADDGA1041+006901999GF104991999999999999999999MA1101391999999OC101341REMMET060METAR EDLW 101950Z 27015G26KT 9999 SCT023 07/04 Q1014 RMK F;
0134104160999992007011020204+51517+007617FM-15+0148EDLW V0202601N007712200019N0112651N1+00601+00401999999ADDGA1041+006901999GF104991999999999999999999MA1101391999999REMMET065METAR EDLW 102020Z 26015KT 230V290 9999 SCT023 06/04 Q1014 RMK G;
0149104160999992007011020504+51517+007617FM-15+0148EDLW V0202501N006712200019N0112651N1+00601+00401999999ADDGA1041+008701999GA2041+015001999GF104991999999999999999999MA1101491999999REMMET064METAR EDLW 102050Z 25013KT 9999 SCT029 SCT059 06/04 Q1015 RMK H;
0149104160999992007011021204+51517+007617FM-15+0148EDLW V0202401N008712200019N0112651N1+00601+00401999999ADDGA1021+008701999GA2041+015001999GF104991999999999999999999MA1101491999999REMMET064METAR EDLW 102120Z 24017KT 9999 FEW029 SCT053 06/04 Q1015 RMK I;
0126104160999992007011104204+51517+007617FM-15+0148EDLW V0202301N009812200019N0112651N1+00501+00201999999ADDGA1041+005701999GF104991999999999999999999MA1101801999999REMMET057METAR EDLW 110420Z 23019KT 9999 SCT019 05/02 Q1018 RMK A;
0137104160999992007011104504+51517+007617FM-15+0148EDLW V0202201N007712200019N0112651N1+00501+00301999999ADDGA1041+005701999GF104991999999999999999999MA1101691999999OC101341REMMET060METAR EDLW 110450Z 22015G26KT 9999 SCT019 05/03 Q1017 RMK B;
0126104160999992007011105204+51517+007617FM-15+0148EDLW V0202201N010812200019N0112651N1+00501+00201999999ADDGA1041+005701999GF104991999999999999999999MA1101591999999REMMET057METAR EDLW 110520Z 22021KT 9999 SCT019 05/02 Q1016 RMK C;
0126104160999992007011105504+51517+007617FM-15+0148EDLW V0202201N010312200019N0112651N1+00601+00201999999ADDGA1041+006301999GF104991999999999999999999MA1101591999999REMMET057METAR EDLW 110550Z 22020KT 9999 SCT021 06/02 Q1016 RMK D;
0149104160999992007011106204+51517+007617FM-15+0148EDLW V0202301N009812200019N0112651N1+00601+00201999999ADDGA1021+006301999GA2041+036001999GF104991999999999999999999MA1101591999999REMMET064METAR EDLW 110620Z 23019KT 9999 FEW021 SCT120 06/02 Q1016 RMK E;
0160104160999992007011106504+51517+007617FM-15+0148EDLW V0202201N011312200019N0112651N1+00601+00101999999ADDGA1021+006301999GA2041+036001999GF104991999999999999999999MA1101491999999OC101651REMMET067METAR EDLW 110650Z 22022G32KT 9999 FEW021 SCT120 06/01 Q1015 RMK F;
0149104160999992007011107204+51517+007617FM-15+0148EDLW V0202201N011310360019N0112651N1+00601+00101999999ADDGA1021+008401999GA2071+036001999GF107991999999999999999999MA1101391999999REMMET064METAR EDLW 110720Z 22022KT 9999 FEW028 BKN120 06/01 Q1014 RMK G;
0078104160999992007011107504+51517+007617FM-15+0148EDLW V0202101N01081999999CN0099001N1+00601+00101999999ADDMA1101291999999REMMET051METAR EDLW 110750Z 21021KT CAVOK 06/01 Q1013 RMK H;
0173104160999992007011108204+51517+007617FM-15+0148EDLW V0202101N01131018001CN0112651N1+00601+00001999999ADDGA1021+009901999GA2041+018001999GA3071+036001999GF107991999999999999999999MA1101291999999REMMET072METAR EDLW 110820Z 21022KT 9999 FEW033 SCT066 BKN120 06/M00 Q1013 RMK I;
0184104160999992007011108504+51517+007617FM-15+0148EDLW V0202201N01081015001CN0112651N1+00601-00101999999ADDGA1021+008401999GA2041+015001999GA3071+036001999GF107991999999999999999999MA1101291999999OC101591REMMET075METAR EDLW 110850Z 22021G31KT 9999 FEW028 SCT056 BKN120 06/M01 Q1013 RMK J;
0173104160999992007011109204+51517+007617FM-15+0148EDLW V0202201N00981015001CN0112651N1+00601-00101999999ADDGA1021+007801999GA2041+015001999GA3071+036001999GF107991999999999999999999MA1101191999999REMMET072METAR EDLW 110920Z 22019KT 9999 FEW026 SCT051 BKN120 06/M01 Q1012 RMK K;
0202104160999992007011109504+51517+007617FM-15+0148EDLW V0202301N01291015001CN0112651N1+00601-00101999999ADDGA1021+004801999GA2041+015001999GA3071+036001999GF107991999999999999999999MA1101191999999MW1611OC101851REMMET087METAR EDLW 110950Z 23025G36KT 200V260 9999 -RA FEW016 SCT051 BKN120 06/M01 Q1012 RMK L;
0194104160999992007011110204+51517+007617FM-15+0148EDLW V0202201N01181018001CN0112651N1+00601-00101999999ADDGA1021+010801999GA2041+018001999GA3071+036001999GF107991999999999999999999MA1101021999999MW1611OC101751REMMET079METAR EDLW 111020Z 22023G34KT 9999 -RA FEW036 SCT062 BKN120 06/M01 Q1010 RMK M;
0193104160999992007011110504+51517+007617FM-15+0148EDLW V0202201N01291014101CN0112651N1+00601+00001999999ADDGA1021+007801999GA2041+014101999GA3071+036001999GF107991999999999999999999MA1100911999999MW1611OC101801REMMET078METAR EDLW 111050Z 22025G35KT 9999 -RA FEW026 SCT047 BKN120 06/00 Q1009 RMK N;
0182104160999992007011111204+51517+007617FM-15+0148EDLW V0202101N01291014101CN0112651N1+00501+00101999999ADDGA1021+004801999GA2041+014101999GA3071+036001999GF107991999999999999999999MA1100711999999MW1611REMMET075METAR EDLW 111120Z 21025KT 9999 -RA FEW016 SCT047 BKN120 05/01 Q1007 RMK O;
0201104160999992007011111504+51517+007617FM-15+0148EDLW V0202201N01341009901CN0070001N1+00501+00201999999ADDGA1021+003601999GA2041+009901999GA3071+036001999GF107991999999999999999999MA1100711999999MW1511MW2611OC101851REMMET080METAR EDLW 111150Z 22026G36KT 7000 -RADZ FEW012 SCT033 BKN120 05/02 Q1007 RMK P;
0169104160999992007011112204+51517+007617FM-15+0148EDLW V0202201N013410105019N0060001N1+00501+00301999999ADDGA1021+003001999GA2071+010501999GF107991999999999999999999MA1100611999999MW1631OC101851REMMET070METAR EDLW 111220Z 22026G36KT 6000 RA FEW010 BKN035 05/03 Q1006 RMK R;
0159104160999992007011112504+51517+007617FM-15+0148EDLW V0202201N012910105019N0060001N1+00501+00401999999ADDGA1021+003001999GA2071+010501999GF107991999999999999999999MA1100511999999MW1631REMMET068METAR EDLW 111250Z 22025KT 6000 RA FEW010 BKN035 05/04 Q1005 RMK SR;
0164104160999992007011113204+51517+007617FM-15+0148EDLW V0202201N012310093019N0112651N1+00601+00401999999ADDGA1021+005701999GA2071+009301999GF107991999999999999999999MA1100411999999MW1611REMMET073METAR EDLW 111320Z 22024KT 9999 -RA FEW019 BKN031 06/04 Q1004 RERA RMK T;
0170104160999992007011113504+51517+007617FM-15+0148EDLW V0202301N013910063019N0112651N1+00701+00501999999ADDGA1021+004801999GA2071+006301999GF107991999999999999999999MA1100411999999MW1611OC102111REMMET071METAR EDLW 111350Z 23027G41KT 9999 -RA FEW016 BKN021 07/05 Q1004 RMK U;
0168104160999992007011114204+51517+007617FM-15+0148EDLW V0202301N015910048019N0060001N1+00701+00601999999ADDED199U12009GA1071+004801999GF107991999999999999999999MA1100311999999MW1611OC102211REMMET074METAR EDLW 111420Z 23031G43KT 6000 R24/1200N -RA BKN016 07/06 Q1003 RMK V;
0168104160999992007011114504+51517+007617FM-15+0148EDLW V0202301N015910048019N0080001N1+00701+00601999999ADDED199U13009GA1071+004801999GF107991999999999999999999MA1100311999999MW1611OC102161REMMET074METAR EDLW 111450Z 23031G42KT 8000 R24/1300N -RA BKN016 07/06 Q1003 RMK W;
0147104160999992007011115204+51517+007617FM-15+0148EDLW V0202301N015410054019N0070001N1+00801+00701999999ADDGA1071+005401999GF107991999999999999999999MA1100201999999MW1611OC102261REMMET064METAR EDLW 111520Z 23030G44KT 7000 -RA BKN018 08/07 Q1002 RMK X;
0147104160999992007011115504+51517+007617FM-15+0148EDLW V0202301N015410054019N0070001N1+00801+00701999999ADDGA1071+005401999GF107991999999999999999999MA1100101999999MW1611OC102161REMMET064METAR EDLW 111550Z 23030G42KT 7000 -RA BKN018 08/07 Q1001 RMK Y;
0167104160999992007011116204+51517+007617FM-15+0148EDLW V0202301N017010054019N0070001N1+00801+00701999999ADDED199U13009GA1071+005401999GF107991999999999999999999MA1100101999999MW1631OC102261REMMET073METAR EDLW 111620Z 23033G44KT 7000 R24/1300N RA BKN018 08/07 Q1001 RMK Z;
0167104160999992007011116504+51517+007617FM-15+0148EDLW V0202401N014910054019N0070001N1+00801+00801999999ADDED199U12009GA1071+005401999GF107991999999999999999999MA1100201999999MW1631OC102161REMMET073METAR EDLW 111650Z 24029G42KT 7000 R24/1200N RA BKN018 08/08 Q1002 RMK A;
0170104160999992007011117204+51517+007617FM-15+0148EDLW V0202801N008210084019N0070001N1+00701+00701999999ADDGA1041+004501999GA2071+008401999GF107991999999999999999999MA1100411999999MW1651OC101341REMMET071METAR EDLW 111720Z 28016G26KT 7000 +RA SCT015 BKN028 07/07 Q1004 RMK C;
0164104160999992007011117504+51517+007617FM-15+0148EDLW V0202501N006210078019N0112651N1+00701+00701999999ADDGA1041+004501999GA2071+007801999GF107991999999999999999999MA1100411999999MW1611REMMET073METAR EDLW 111750Z 25012KT 9999 -RA SCT015 BKN026 07/07 Q1004 RERA RMK D;
0167104160999992007011118204+51517+007617FM-15+0148EDLW V0202501N005710144019N0112651N1+00801+00501999999ADDGA1021+004501999GA2071+014401999GF107991999999999999999999MA1100411999999MW1611REMMET076METAR EDLW 111820Z 25011KT 230V300 9999 -RA FEW015 BKN048 08/05 Q1004 RMK E;
0126104160999992007011118504+51517+007617FM-15+0148EDLW V0202501N010310108019N0112651N1+00801+00501999999ADDGA1071+010801999GF107991999999999999999999MA1100411999999REMMET057METAR EDLW 111850Z 25020KT 9999 BKN036 08/05 Q1004 RMK F;
0126104160999992007011119204+51517+007617FM-15+0148EDLW V0202501N010310108019N0112651N1+00801+00601999999ADDGA1071+010801999GF107991999999999999999999MA1100511999999REMMET057METAR EDLW 111920Z 25020KT 9999 BKN036 08/06 Q1005 RMK G;
0137104160999992007011119504+51517+007617FM-15+0148EDLW V0202601N008710120019N0112651N1+00901+00601999999ADDGA1071+012001999GF107991999999999999999999MA1100611999999OC101541REMMET060METAR EDLW 111950Z 26017G30KT 9999 BKN040 09/06 Q1006 RMK H;
0136104160999992007011120204+51517+007617FM-15+0148EDLW V0202501N009310120019N0112651N1+00801+00601999999ADDGA1071+012001999GF107991999999999999999999MA1100611999999MW1611REMMET061METAR EDLW 112020Z 25018KT 9999 -RA BKN040 08/06 Q1006 RMK I;
0131104160999992007011120504+51517+007617FM-15+0148EDLW V0202601N010310132019N0112651N1+00901+00501999999ADDGA1071+013201999GF107991999999999999999999MA1100711999999OC101541REMMET054METAR EDLW 112050Z 26020G30KT 9999 BKN044 09/05 Q1007;
0126104160999992007011204204+51517+007617FM-15+0148EDLW V0202601N008210084019N0112651N1+00801+00301999999ADDGA1071+008401999GF107991999999999999999999MA1101801999999REMMET057METAR EDLW 120420Z 26016KT 9999 BKN028 08/03 Q1018 RMK A;
0134104160999992007011204504+51517+007617FM-15+0148EDLW V0202701N008710084019N0112651N1+00801+00401999999ADDGA1071+008401999GF107991999999999999999999MA1101801999999REMMET065METAR EDLW 120450Z 27017KT 230V300 9999 BKN028 08/04 Q1018 RMK B;
0126104160999992007011205204+51517+007617FM-15+0148EDLW V0202701N008210084019N0112651N1+00801+00401999999ADDGA1071+008401999GF107991999999999999999999MA1101901999999REMMET057METAR EDLW 120520Z 27016KT 9999 BKN028 08/04 Q1019 RMK C;
0134104160999992007011205504+51517+007617FM-15+0148EDLW V0202601N008210084019N0112651N1+00801+00401999999ADDGA1071+008401999GF107991999999999999999999MA1101901999999REMMET065METAR EDLW 120550Z 26016KT 230V290 9999 BKN028 08/04 Q1019 RMK D;
0134104160999992007011206204+51517+007617FM-15+0148EDLW V0202601N008210084019N0112651N1+00701+00401999999ADDGA1071+008401999GF107991999999999999999999MA1102001999999REMMET065METAR EDLW 120620Z 26016KT 220V280 9999 BKN028 07/04 Q1020 RMK E;
0126104160999992007011206504+51517+007617FM-15+0148EDLW V0202601N007210084019N0112651N1+00701+00401999999ADDGA1071+008401999GF107991999999999999999999MA1102001999999REMMET057METAR EDLW 120650Z 26014KT 9999 BKN028 07/04 Q1020 RMK F;
0126104160999992007011207204+51517+007617FM-15+0148EDLW V0202501N007210084019N0112651N1+00701+00401999999ADDGA1071+008401999GF107991999999999999999999MA1102001999999REMMET057METAR EDLW 120720Z 25014KT 9999 BKN028 07/04 Q1020 RMK G;
0126104160999992007011207504+51517+007617FM-15+0148EDLW V0202401N007710084019N0112651N1+00701+00401999999ADDGA1071+008401999GF107991999999999999999999MA1102101999999REMMET057METAR EDLW 120750Z 24015KT 9999 BKN028 07/04 Q1021 RMK H;
0078104160999992007011208204+51517+007617FM-15+0148EDLW V0202401N00871999999CN0099001N1+00701+00401999999ADDMA1102101999999REMMET051METAR EDLW 120820Z 24017KT CAVOK 07/04 Q1021 RMK I;
0078104160999992007011208504+51517+007617FM-15+0148EDLW V0202401N00821999999CN0099001N1+00701+00401999999ADDMA1102101999999REMMET051METAR EDLW 120850Z 24016KT CAVOK 07/04 Q1021 RMK J;
0078104160999992007011209204+51517+007617FM-15+0148EDLW V0202501N00931999999CN0099001N1+00701+00401999999ADDMA1102101999999REMMET051METAR EDLW 120920Z 25018KT CAVOK 07/04 Q1021 RMK K;
0078104160999992007011209504+51517+007617FM-15+0148EDLW V0202501N00821999999CN0099001N1+00701+00501999999ADDMA1102101999999REMMET051METAR EDLW 120950Z 25016KT CAVOK 07/05 Q1021 RMK L;
