0089104880999992014032118204+51133+013767FM-15+023099999V0202501N006219999999Y999999999+01801+00201999999ADDMA1100801999990REMMET062METAR EDDC 211820Z 25012KT CAVOK 18/02 Q1008 TEMPO 25015G30KT=
0089104880999992014032118504+51133+013767FM-15+023099999V0202501N006219999999Y999999999+01801+00301999999ADDMA1100801999990REMMET062METAR EDDC 211850Z 25012KT CAVOK 18/03 Q1008 TEMPO 25015G30KT=
0089104880999992014032119204+51133+013767FM-15+023099999V0202401N007219999999Y999999999+01701+00301999999ADDMA1100901999990REMMET062METAR EDDC 211920Z 24014KT CAVOK 17/03 Q1009 TEMPO 25015G30KT=
0089104880999992014032119504+51133+013767FM-15+023099999V0202601N007219999999Y999999999+01601+00301999999ADDMA1100901999990REMMET062METAR EDDC 211950Z 26014KT CAVOK 16/03 Q1009 TEMPO 25015G30KT=
0089104880999992014032120204+51133+013767FM-15+023099999V0203001N007219999999Y999999999+01301+00501999999ADDMA1101001999990REMMET062METAR EDDC 212020Z 30014KT CAVOK 13/05 Q1010 TEMPO 30015G30KT=
0089104880999992014032120504+51133+013767FM-15+023099999V0203101N005719999999Y999999999+01201+00401999999ADDMA1101001999990REMMET062METAR EDDC 212050Z 31011KT CAVOK 12/04 Q1010 TEMPO 30015G30KT=
0072104880999992014032121204+51133+013767FM-15+023099999V0203301N003619999999Y999999999+01201+00501999999ADDMA1101001999990REMMET045METAR EDDC 212120Z 33007KT CAVOK 12/05 Q1010=
0072104880999992014032121504+51133+013767FM-15+023099999V0203401N004619999999Y999999999+01001+00501999999ADDMA1101101999990REMMET045METAR EDDC 212150Z 34009KT CAVOK 10/05 Q1011=
0072104880999992014032122204+51133+013767FM-15+023099999V0203501N003619999999Y999999999+00901+00501999999ADDMA1101101999990REMMET045METAR EDDC 212220Z 35007KT CAVOK 09/05 Q1011=
0072104880999992014032122504+51133+013767FM-15+023099999V0203501N003619999999Y999999999+00901+00401999999ADDMA1101101999990REMMET045METAR EDDC 212250Z 35007KT CAVOK 09/04 Q1011=
0072104880999992014032123204+51133+013767FM-15+023099999V0203501N001519999999Y999999999+00801+00401999999ADDMA1101001999990REMMET045METAR EDDC 212320Z 35003KT CAVOK 08/04 Q1010=
0072104880999992014032123504+51133+013767FM-15+023099999V0203301N001519999999Y999999999+00801+00401999999ADDMA1101001999990REMMET045METAR EDDC 212350Z 33003KT CAVOK 08/04 Q1010=
0072104880999992014032200204+51133+013767FM-15+023099999V0209999V001019999999Y999999999+00801+00401999999ADDMA1101001999990REMMET045METAR EDDC 220020Z VRB02KT CAVOK 08/04 Q1010=
0072104880999992014032200504+51133+013767FM-15+023099999V0201401N001519999999Y999999999+00801+00401999999ADDMA1101001999990REMMET045METAR EDDC 220050Z 14003KT CAVOK 08/04 Q1010=
0175104880999992014032201204+51133+013767FM-15+023099999V0201001N001510396219N009999199+00801+00401999999ADDGA1021+009141991GA2071+039621991GE19MSL   +99999+99999GF199999021990009141991991MA1101001999990MW1611REMMET062METAR EDDC 220120Z 10003KT 9999 -RA FEW030 BKN130 08/04 Q1010=
0072104880999992014032201504+51133+013767FM-15+023099999V0201301N002119999999Y999999999+00801+00301999999ADDMA1100901999990REMMET045METAR EDDC 220150Z 13004KT CAVOK 08/03 Q1009=
0072104880999992014032202204+51133+013767FM-15+023099999V0200901N001019999999Y999999999+00801+00301999999ADDMA1100901999990REMMET045METAR EDDC 220220Z 09002KT CAVOK 08/03 Q1009=
0072104880999992014032202504+51133+013767FM-15+023099999V0200101N001519999999Y999999999+00801+00301999999ADDMA1100801999990REMMET045METAR EDDC 220250Z 01003KT CAVOK 08/03 Q1008=
0072104880999992014032203204+51133+013767FM-15+023099999V0200801N002619999999Y999999999+00701+00301999999ADDMA1100801999990REMMET045METAR EDDC 220320Z 08005KT CAVOK 07/03 Q1008=
0072104880999992014032203504+51133+013767FM-15+023099999V0201301N004119999999Y999999999+00801+00301999999ADDMA1100701999990REMMET045METAR EDDC 220350Z 13008KT CAVOK 08/03 Q1007=
0072104880999992014032204204+51133+013767FM-15+023099999V0201401N004619999999Y999999999+00801+00401999999ADDMA1100601999990REMMET045METAR EDDC 220420Z 14009KT CAVOK 08/04 Q1006=
0086104880999992014032204504+51133+013767FM-15+023099999V0201601V003619999999Y999999999+00801+00401999999ADDMA1100601999990REMMET059METAR EDDC 220450Z 16007KT 060V160 CAVOK 08/04 Q1006 NOSIG=
0078104880999992014032205204+51133+013767FM-15+023099999V0201801N005719999999Y999999999+00901+00501999999ADDMA1100601999990REMMET051METAR EDDC 220520Z 18011KT CAVOK 09/05 Q1006 NOSIG=
0194104880999992014032205504+51133+013767FM-15+023099999V0201901N00461018901CN009999199+01001+00501999999ADDGA1021+012801991GA2041+018901991GA3081+039621991GE19MSL   +99999+99999GF199999021990012801991991MA1100701999990REMMET071METAR EDDC 220550Z 19009KT 9999 FEW042 SCT062 OVC130 10/05 Q1007 NOSIG=
0182104880999992014032206204+51133+013767FM-15+023099999V0202201N004110396219N009999199+01101+00601999999ADDGA1041+010361991GA2081+039621991GE19MSL   +99999+99999GF199999041990010361991991MA1100701999990OC101031REMMET067METAR EDDC 220620Z 22008G20KT 9999 SCT034 OVC130 11/06 Q1007 NOSIG=
0194104880999992014032206504+51133+013767FM-15+023099999V0203101N001510256019N009999199+01101+00601999999ADDGA1021+010361991GA2071+025601991GA3081+039621991GE19MSL   +99999+99999GF199999021990010361991991MA1100701999990REMMET071METAR EDDC 220650Z 31003KT 9999 FEW034 BKN084 OVC130 11/06 Q1007 NOSIG=
0194104880999992014032207204+51133+013767FM-15+023099999V0202601N001010219519N009999199+01101+00601999999ADDGA1021+010361991GA2071+021951991GA3081+039621991GE19MSL   +99999+99999GF199999021990010361991991MA1100701999990REMMET071METAR EDDC 220720Z 26002KT 9999 FEW034 BKN072 OVC130 11/06 Q1007 NOSIG=
0181104880999992014032207504+51133+013767FM-15+023099999V0201701N003610167619N009999199+01201+00601999999ADDGA1021+010361991GA2071+016761991GE19MSL   +99999+99999GF199999021990010361991991MA1100601999990MW1611REMMET068METAR EDDC 220750Z 17007KT 9999 -RA FEW034 BKN055 12/06 Q1006 NOSIG=
0078104880999992014032208204+51133+013767FM-15+023099999V0201801N004119999999Y999999999+01201+00601999999ADDMA1100601999990REMMET051METAR EDDC 220820Z 18008KT CAVOK 12/06 Q1006 NOSIG=
0078104880999992014032208504+51133+013767FM-15+023099999V0201701N004119999999Y999999999+01301+00601999999ADDMA1100601999990REMMET051METAR EDDC 220850Z 17008KT CAVOK 13/06 Q1006 NOSIG=
0078104880999992014032209204+51133+013767FM-15+023099999V0201801N004119999999Y999999999+01501+00601999999ADDMA1100501999990REMMET051METAR EDDC 220920Z 18008KT CAVOK 15/06 Q1005 NOSIG=
0078104880999992014032209504+51133+013767FM-15+023099999V0201901N005719999999Y999999999+01501+00601999999ADDMA1100501999990REMMET051METAR EDDC 220950Z 19011KT CAVOK 15/06 Q1005 NOSIG=
0078104880999992014032210204+51133+013767FM-15+023099999V0201701N004619999999Y999999999+01401+00501999999ADDMA1100501999990REMMET051METAR EDDC 221020Z 17009KT CAVOK 14/05 Q1005 NOSIG=
0090104880999992014032210504+51133+013767FM-15+023099999V0201701N004619999999Y999999999+01501+00501999999ADDMA1100401999990REMMET063METAR COR EDDC 221050Z 17009KT CAVOK 15/05 Q1004 BECMG 23015KT=
0086104880999992014032211204+51133+013767FM-15+023099999V0201901N004119999999Y999999999+01601+00601999999ADDMA1100401999990REMMET059METAR EDDC 221120Z 19008KT CAVOK 16/06 Q1004 BECMG 23015KT=
0171104880999992014032211504+51133+013767FM-15+023099999V0202001N006710286519N009999199+01601+00401999999ADDGA1021+012191991GA2071+028651991GE19MSL   +99999+99999GF199999021990012191991991MA1100301999990REMMET064METAR EDDC 221150Z 20013KT 9999 FEW040 BKN094 16/04 Q1003 NOSIG=
0194104880999992014032212204+51133+013767FM-15+023099999V0202101N00621020121CN009999199+01601+00401999999ADDGA1021+013411991GA2041+020121991GA3071+027431991GE19MSL   +99999+99999GF199999021990013411991991MA1100301999990REMMET071METAR EDDC 221220Z 21012KT 9999 FEW044 SCT066 BKN090 16/04 Q1003 NOSIG=
0183104880999992014032212504+51133+013767FM-15+023099999V0202401N005110182919N009999199+01501+00601999999ADDGA1041+011581991GA2071+018291991GE19MSL   +99999+99999GF199999041990011581991991MA1100301999990MW1801REMMET070METAR EDDC 221250Z 24010KT 9999 -SHRA SCT038 BKN060 15/06 Q1003 NOSIG=
0194104880999992014032213204+51133+013767FM-15+023099999V0202401N004110158519N009999199+01301+00801999999ADDGA1041+009751081GA2071+015851991GE19MSL   +99999+99999GF199999041990009751991991MA1100301999990MW1811REMMET081METAR EDDC 221320Z 24008KT 9999 SHRA SCT032TCU BKN052 13/08 Q1003 TEMPO      NSW=
0181104880999992014032213504+51133+013767FM-15+023099999V0203101N007710121919N008000199+01001+00801999999ADDGA1021+006101991GA2071+012191991GE19MSL   +99999+99999GF199999021990006101991991MA1100401999990MW1611REMMET068METAR EDDC 221350Z 31015KT 8000 -RA FEW020 BKN040 10/08 Q1004 NOSIG=
0181104880999992014032214204+51133+013767FM-15+023099999V0203101N003610134119N007000199+01001+00901999999ADDGA1021+002131991GA2071+013411991GE19MSL   +99999+99999GF199999021990002131991991MA1100401999990MW1611REMMET068METAR EDDC 221420Z 31007KT 7000 -RA FEW007 BKN044 10/09 Q1004 NOSIG=
0181104880999992014032214504+51133+013767FM-15+023099999V0202901N003610128019N009000199+01001+00901999999ADDGA1021+001831991GA2081+012801991GE19MSL   +99999+99999GF199999021990001831991991MA1100401999990MW1611REMMET068METAR EDDC 221450Z 29007KT 9000 -RA FEW006 OVC042 10/09 Q1004 NOSIG=
0078104880999992014032215204+51133+013767FM-15+023099999V0203301N002119999999Y999999999+01001+00801999999ADDMA1100301999990REMMET051METAR EDDC 221520Z 33004KT CAVOK 10/08 Q1003 NOSIG=
0078104880999992014032215504+51133+013767FM-15+023099999V0203101N002119999999Y999999999+01001+00801999999ADDMA1100301999990REMMET051METAR EDDC 221550Z 31004KT CAVOK 10/08 Q1003 NOSIG=
0171104880999992014032216204+51133+013767FM-15+023099999V0201701N000510152419N009999199+01001+00801999999ADDGA1021+007011991GA2071+015241991GE19MSL   +99999+99999GF199999021990007011991991MA1100301999990REMMET064METAR EDDC 221620Z 17001KT 9999 FEW023 BKN050 10/08 Q1003 NOSIG=
0181104880999992014032216504+51133+013767FM-15+023099999V0202001N000510189019N009999199+01001+00801999999ADDGA1021+003661991GA2071+018901991GE19MSL   +99999+99999GF199999021990003661991991MA1100301999990MW1611REMMET068METAR EDDC 221650Z 20001KT 9999 -RA FEW012 BKN062 10/08 Q1003 NOSIG=
0171104880999992014032217204+51133+013767FM-15+023099999V0201601N001510225619N009999199+01001+00801999999ADDGA1021+004571991GA2071+022561991GE19MSL   +99999+99999GF199999021990004571991991MA1100301999990REMMET064METAR EDDC 221720Z 16003KT 9999 FEW015 BKN074 10/08 Q1003 NOSIG=
0209104880999992014032217504+51133+013767FM-15+023099999V0201201N00151011891CN009999199+01001+00801999999ADDGA1041+004881991GA2041+011891991GA3071+022561991GE19MSL   +99999+99999GF199999041990004881991991MA1100301999990MW1611REMMET080METAR EDDC 221750Z 12003KT 9999 -RA SCT016 SCT039 BKN074 10/08 Q1003      NOSIG=
0171104880999992014032218204+51133+013767FM-15+023099999V0209999V001010051819N009999199+01001+00801999999ADDGA1071+005181991GA2071+022561991GE19MSL   +99999+99999GF199999071990005181991991MA1100301999990REMMET064METAR EDDC 221820Z VRB02KT 9999 BKN017 BKN074 10/08 Q1003 NOSIG=
0171104880999992014032218504+51133+013767FM-15+023099999V0201601N002610201219N009999199+01001+00801999999ADDGA1041+005181991GA2071+020121991GE19MSL   +99999+99999GF199999041990005181991991MA1100301999990REMMET064METAR EDDC 221850Z 16005KT 9999 SCT017 BKN066 10/08 Q1003 NOSIG=
0181104880999992014032219204+51133+013767FM-15+023099999V0201801N003610140219N009999199+00901+00901999999ADDGA1021+005181991GA2071+014021991GE19MSL   +99999+99999GF199999021990005181991991MA1100301999990MW1611REMMET068METAR EDDC 221920Z 18007KT 9999 -RA FEW017 BKN046 09/09 Q1003 NOSIG=
0194104880999992014032219504+51133+013767FM-15+023099999V0201801N003110146319N009999199+00901+00901999999ADDGA1021+007621991GA2071+014631991GA3071+024381991GE19MSL   +99999+99999GF199999021990007621991991MA1100301999990REMMET071METAR EDDC 221950Z 18006KT 9999 FEW025 BKN048 BKN080 09/09 Q1003 NOSIG=
0209104880999992014032220204+51133+013767FM-15+023099999V0202301N00311012191CN009999199+01001+00801999999ADDGA1021+007621991GA2041+012191991GA3071+018291991GE19MSL   +99999+99999GF199999021990007621991991MA1100301999990MW1611REMMET080METAR EDDC 222020Z 23006KT 9999 -RA FEW025 SCT040 BKN060 10/08 Q1003      NOSIG=
0194104880999992014032220504+51133+013767FM-15+023099999V0202101N002110121919N009999199+01001+00701999999ADDGA1021+007621991GA2071+012191991GA3071+036581991GE19MSL   +99999+99999GF199999021990007621991991MA1100301999990REMMET071METAR EDDC 222050Z 21004KT 9999 FEW025 BKN040 BKN120 10/07 Q1003 NOSIG=
0165104880999992014032221204+51133+013767FM-15+023099999V0202201N002610365819N009999199+00901+00601999999ADDGA1041+012191991GA2071+036581991GE19MSL   +99999+99999GF199999041990012191991991MA1100301999990REMMET058METAR EDDC 222120Z 22005KT 9999 SCT040 BKN120 09/06 Q1003=
0188104880999992014032221504+51133+013767FM-15+023099999V0202401N00361012191CN009999199+00901+00601999999ADDGA1021+009141991GA2041+012191991GA3071+024381991GE19MSL   +99999+99999GF199999021990009141991991MA1100301999990REMMET065METAR EDDC 222150Z 24007KT 9999 FEW030 SCT040 BKN080 09/06 Q1003=
0165104880999992014032222204+51133+013767FM-15+023099999V0202201N002610304819N009999199+00901+00601999999ADDGA1041+012191991GA2071+030481991GE19MSL   +99999+99999GF199999041990012191991991MA1100301999990REMMET058METAR EDDC 222220Z 22005KT 9999 SCT040 BKN100 09/06 Q1003=
0072104880999992014032222504+51133+013767FM-15+023099999V0202201N003119999999Y999999999+00901+00501999999ADDMA1100301999990REMMET045METAR EDDC 222250Z 22006KT CAVOK 09/05 Q1003=
0072104880999992014032223204+51133+013767FM-15+023099999V0202201N003119999999Y999999999+00901+00501999999ADDMA1100301999990REMMET045METAR EDDC 222320Z 22006KT CAVOK 09/05 Q1003=
0072104880999992014032223504+51133+013767FM-15+023099999V0202301N002619999999Y999999999+00901+00501999999ADDMA1100301999990REMMET045METAR EDDC 222350Z 23005KT CAVOK 09/05 Q1003=
0072104880999992014032300204+51133+013767FM-15+023099999V0202401N003119999999Y999999999+00801+00501999999ADDMA1100301999990REMMET045METAR EDDC 230020Z 24006KT CAVOK 08/05 Q1003=
0072104880999992014032300504+51133+013767FM-15+023099999V0202301N003119999999Y999999999+00801+00501999999ADDMA1100301999990REMMET045METAR EDDC 230050Z 23006KT CAVOK 08/05 Q1003=
0165104880999992014032301204+51133+013767FM-15+023099999V0202201N002110335319N009999199+00801+00501999999ADDGA1021+013411991GA2071+033531991GE19MSL   +99999+99999GF199999021990013411991991MA1100301999990REMMET058METAR EDDC 230120Z 22004KT 9999 FEW044 BKN110 08/05 Q1003=
0198104880999992014032301504+51133+013767FM-15+023099999V0202401N002610121919N009999199+00801+00501999999ADDGA1021+007321991GA2071+012191991GA3071+033531991GE19MSL   +99999+99999GF199999021990007321991991MA1100301999990MW1611REMMET069METAR EDDC 230150Z 24005KT 9999 -RA FEW024 BKN040 BKN110 08/05 Q1003=
0175104880999992014032302204+51133+013767FM-15+023099999V0202801N003110073219N009999199+00801+00501999999ADDGA1071+007321991GA2071+012191991GE19MSL   +99999+99999GF199999071990007321991991MA1100301999990MW1611REMMET062METAR EDDC 230220Z 28006KT 9999 -RA BKN024 BKN040 08/05 Q1003=
0142104880999992014032302504+51133+013767FM-15+023099999V0202901N003110082319N009999199+00801+00501999999ADDGA1071+008231991GE19MSL   +99999+99999GF199999071990008231991991MA1100301999990REMMET051METAR EDDC 230250Z 29006KT 9999 BKN027 08/05 Q1003=
0175104880999992014032303204+51133+013767FM-15+023099999V0202901N004110091419N009999199+00701+00401999999ADDGA1021+005181991GA2071+009141991GE19MSL   +99999+99999GF199999021990005181991991MA1100301999990MW1611REMMET062METAR EDDC 230320Z 29008KT 9999 -RA FEW017 BKN030 07/04 Q1003=
0175104880999992014032303504+51133+013767FM-15+023099999V0203001N003610094519N009999199+00601+00401999999ADDGA1041+006101991GA2071+009451991GE19MSL   +99999+99999GF199999041990006101991991MA1100401999990MW1611REMMET062METAR EDDC 230350Z 30007KT 9999 -RA SCT020 BKN031 06/04 Q1004=
0175104880999992014032304204+51133+013767FM-15+023099999V0202901N002610094519N009999199+00601+00301999999ADDGA1041+004571991GA2071+009451991GE19MSL   +99999+99999GF199999041990004571991991MA1100401999990MW1611REMMET062METAR EDDC 230420Z 29005KT 9999 -RA SCT015 BKN031 06/03 Q1004=
0194104880999992014032304504+51133+013767FM-15+023099999V0202901N00261007011CN009999199+00601+00301999999ADDGA1021+004571991GA2041+007011991GA3071+015241991GE19MSL   +99999+99999GF199999021990004571991991MA1100401999990REMMET071METAR EDDC 230450Z 29005KT 9999 FEW015 SCT023 BKN050 06/03 Q1004 NOSIG=
0171104880999992014032305204+51133+013767FM-15+023099999V0202701N002610057919N009999199+00501+00301999999ADDGA1041+004881991GA2071+005791991GE19MSL   +99999+99999GF199999041990004881991991MA1100501999990REMMET064METAR EDDC 230520Z 27005KT 9999 SCT016 BKN019 05/03 Q1005 NOSIG=
0171104880999992014032305504+51133+013767FM-15+023099999V0202901N002110042719N009999199+00501+00301999999ADDGA1071+004271991GA2071+007621991GE19MSL   +99999+99999GF199999071990004271991991MA1100501999990REMMET064METAR EDDC 230550Z 29004KT 9999 BKN014 BKN025 05/03 Q1005 NOSIG=
0171104880999992014032306204+51133+013767FM-15+023099999V0203001N003110061019N009999199+00601+00301999999ADDGA1021+003961991GA2071+006101991GE19MSL   +99999+99999GF199999021990003961991991MA1100501999990REMMET064METAR EDDC 230620Z 30006KT 9999 FEW013 BKN020 06/03 Q1005 NOSIG=
0171104880999992014032306504+51133+013767FM-15+023099999V0202901N002110396219N009999199+00601+00301999999ADDGA1021+004271991GA2081+039621991GE19MSL   +99999+99999GF199999021990004271991991MA1100501999990REMMET064METAR EDDC 230650Z 29004KT 9999 FEW014 OVC130 06/03 Q1005 NOSIG=
0171104880999992014032307204+51133+013767FM-15+023099999V0203001N002610396219N009999199+00601+00301999999ADDGA1021+004571991GA2081+039621991GE19MSL   +99999+99999GF199999021990004571991991MA1100501999990REMMET064METAR EDDC 230720Z 30005KT 9999 FEW015 OVC130 06/03 Q1005 NOSIG=
0171104880999992014032307504+51133+013767FM-15+023099999V0202901N002110426719N009999199+00601+00301999999ADDGA1021+004571991GA2081+042671991GE19MSL   +99999+99999GF199999021990004571991991MA1100601999990REMMET064METAR EDDC 230750Z 29004KT 9999 FEW015 OVC140 06/03 Q1006 NOSIG=
0171104880999992014032308204+51133+013767FM-15+023099999V0203101N002610426719N009999199+00601+00301999999ADDGA1041+005181991GA2081+042671991GE19MSL   +99999+99999GF199999041990005181991991MA1100601999990REMMET064METAR EDDC 230820Z 31005KT 9999 SCT017 OVC140 06/03 Q1006 NOSIG=
0171104880999992014032308504+51133+013767FM-15+023099999V0203101N003610051819N009999199+00601+00201999999ADDGA1071+005181991GA2081+042671991GE19MSL   +99999+99999GF199999071990005181991991MA1100501999990REMMET064METAR EDDC 230850Z 31007KT 9999 BKN017 OVC140 06/02 Q1005 NOSIG=
0171104880999992014032309204+51133+013767FM-15+023099999V0203301N002610051819N009999199+00601+00301999999ADDGA1071+005181991GA2081+042671991GE19MSL   +99999+99999GF199999071990005181991991MA1100501999990REMMET064METAR EDDC 230920Z 33005KT 9999 BKN017 OVC140 06/03 Q1005 NOSIG=
0171104880999992014032309504+51133+013767FM-15+023099999V0203201N002610426719N009999199+00701+00301999999ADDGA1041+005491991GA2081+042671991GE19MSL   +99999+99999GF199999041990005491991991MA1100601999990REMMET064METAR EDDC 230950Z 32005KT 9999 SCT018 OVC140 07/03 Q1006 NOSIG=
0171104880999992014032310204+51133+013767FM-15+023099999V0203401N002610457219N009999199+00701+00301999999ADDGA1041+005491991GA2081+045721991GE19MSL   +99999+99999GF199999041990005491991991MA1100601999990REMMET064METAR EDDC 231020Z 34005KT 9999 SCT018 OVC150 07/03 Q1006 NOSIG=
0171104880999992014032310504+51133+013767FM-15+023099999V0203401N003110457219N009999199+00701+00301999999ADDGA1041+005491991GA2081+045721991GE19MSL   +99999+99999GF199999041990005491991991MA1100501999990REMMET064METAR EDDC 231050Z 34006KT 9999 SCT018 OVC150 07/03 Q1005 NOSIG=
0171104880999992014032311204+51133+013767FM-15+023099999V0203401N002610457219N009999199+00701+00201999999ADDGA1041+005791991GA2081+045721991GE19MSL   +99999+99999GF199999041990005791991991MA1100501999990REMMET064METAR EDDC 231120Z 34005KT 9999 SCT019 OVC150 07/02 Q1005 NOSIG=
0171104880999992014032311504+51133+013767FM-15+023099999V0203401N002610457219N009999199+00701+00201999999ADDGA1041+006101991GA2081+045721991GE19MSL   +99999+99999GF199999041990006101991991MA1100501999990REMMET064METAR EDDC 231150Z 34005KT 9999 SCT020 OVC150 07/02 Q1005 NOSIG=
0194104880999992014032312204+51133+013767FM-15+023099999V0203201N00211025601CN009999199+00701+00301999999ADDGA1021+006101991GA2041+025601991GA3081+045721991GE19MSL   +99999+99999GF199999021990006101991991MA1100501999990REMMET071METAR EDDC 231220Z 32004KT 9999 FEW020 SCT084 OVC150 07/03 Q1005 NOSIG=
0179104880999992014032312504+51133+013767FM-15+023099999V0203201V002110426719N009999199+00701+00201999999ADDGA1021+006711991GA2081+042671991GE19MSL   +99999+99999GF199999021990006711991991MA1100501999990REMMET072METAR EDDC 231250Z 32004KT 300V360 9999 FEW022 OVC140 07/02 Q1005 NOSIG=
0171104880999992014032313204+51133+013767FM-15+023099999V0209999V001010426719N009999199+00701+00201999999ADDGA1021+006711991GA2081+042671991GE19MSL   +99999+99999GF199999021990006711991991MA1100501999990REMMET064METAR EDDC 231320Z VRB02KT 9999 FEW022 OVC140 07/02 Q1005 NOSIG=
0171104880999992014032313504+51133+013767FM-15+023099999V0200401N001010396219N009999199+00701+00201999999ADDGA1021+006401991GA2081+039621991GE19MSL   +99999+99999GF199999021990006401991991MA1100501999990REMMET064METAR EDDC 231350Z 04002KT 9999 FEW021 OVC130 07/02 Q1005 NOSIG=
0209104880999992014032314204+51133+013767FM-15+023099999V0203201N00151015851CN009999199+00701+00201999999ADDGA1021+006401991GA2041+015851991GA3081+039621991GE19MSL   +99999+99999GF199999021990006401991991MA1100501999990MW1611REMMET080METAR EDDC 231420Z 32003KT 9999 -RA FEW021 SCT052 OVC130 07/02 Q1005      NOSIG=
0209104880999992014032314504+51133+013767FM-15+023099999V0209999V00101014631CN009999199+00701+00201999999ADDGA1021+006401991GA2041+014631991GA3081+036581991GE19MSL   +99999+99999GF199999021990006401991991MA1100501999990MW1611REMMET080METAR EDDC 231450Z VRB02KT 9999 -RA FEW021 SCT048 OVC120 07/02 Q1005      NOSIG=
0209104880999992014032315204+51133+013767FM-15+023099999V0200901N00051010671CN009999199+00701+00101999999ADDGA1021+007011991GA2041+010671991GA3081+036581991GE19MSL   +99999+99999GF199999021990007011991991MA1100501999990MW1611REMMET080METAR EDDC 231520Z 09001KT 9999 -RA FEW023 SCT035 OVC120 07/01 Q1005      NOSIG=
0181104880999992014032315504+51133+013767FM-15+023099999V0209999V000510088419N009999199+00701+00101999999ADDGA1021+006711991GA2071+008841991GE19MSL   +99999+99999GF199999021990006711991991MA1100501999990MW1611REMMET068METAR EDDC 231550Z VRB01KT 9999 -RA FEW022 BKN029 07/01 Q1005 NOSIG=
0209104880999992014032316204+51133+013767FM-15+023099999V0201301N00361006401CN009999199+00501+00301999999ADDGA1021+003051991GA2041+006401991GA3071+013411991GE19MSL   +99999+99999GF199999021990003051991991MA1100601999990MW1611REMMET080METAR EDDC 231620Z 13007KT 9999 -RA FEW010 SCT021 BKN044 05/03 Q1006      NOSIG=
0181104880999992014032316504+51133+013767FM-15+023099999V0201301N002610097519N009999199+00401+00301999999ADDGA1021+003351991GA2071+009751991GE19MSL   +99999+99999GF199999021990003351991991MA1100601999990MW1611REMMET068METAR EDDC 231650Z 13005KT 9999 -RA FEW011 BKN032 04/03 Q1006 NOSIG=
0209104880999992014032317204+51133+013767FM-15+023099999V0201301N00211005791CN009999199+00401+00301999999ADDGA1021+002441991GA2041+005791991GA3071+008531991GE19MSL   +99999+99999GF199999021990002441991991MA1100601999990MW1611REMMET080METAR EDDC 231720Z 13004KT 9999 -RA FEW008 SCT019 BKN028 04/03 Q1006      NOSIG=
0216104880999992014032317504+51133+013767FM-15+023099999V0202101N001510039619N007000199+00401+00301999999ADDGA1021+002441991GA2071+003961991GA3081+008531991GE19MSL   +99999+99999GF199999021990002441991991MA1100601999990MW1631REMMET087METAR EDDC 231750Z 21003KT 7000 RA FEW008 BKN013 OVC028 04/03 Q1006      TEMPO 4000 RA=
0191104880999992014032318204+51133+013767FM-15+023099999V0201701N002110082319N009999199+00401+00201999999ADDGA1041+005491991GA2071+008231991GE19MSL   +99999+99999GF199999041990005491991991MA1100701999990MW1611REMMET078METAR EDDC 231820Z 17004KT 9999 -RA SCT018 BKN027 04/02 Q1007 RERA      NOSIG=
0181104880999992014032318504+51133+013767FM-15+023099999V0201501N003110134119N009999199+00401+00301999999ADDGA1071+013411991GA2081+036581991GE19MSL   +99999+99999GF199999071990013411991991MA1100701999990MW1611REMMET068METAR EDDC 231850Z 15006KT 9999 -RA BKN044 OVC120 04/03 Q1007 NOSIG=
0078104880999992014032319204+51133+013767FM-15+023099999V0201501N002119999999Y999999999+00401+00201999999ADDMA1100601999990REMMET051METAR EDDC 231920Z 15004KT CAVOK 04/02 Q1006 NOSIG=
0078104880999992014032319504+51133+013767FM-15+023099999V0201701N002119999999Y999999999+00301+00201999999ADDMA1100601999990REMMET051METAR EDDC 231950Z 17004KT CAVOK 03/02 Q1006 NOSIG=
0078104880999992014032320204+51133+013767FM-15+023099999V0201501N001519999999Y999999999+00301+00201999999ADDMA1100601999990REMMET051METAR EDDC 232020Z 15003KT CAVOK 03/02 Q1006 NOSIG=
0171104880999992014032320504+51133+013767FM-15+023099999V0201901N001510109719N009999199+00301+00201999999ADDGA1071+010971991GA2071+029261991GE19MSL   +99999+99999GF199999071990010971991991MA1100601999990REMMET064METAR EDDC 232050Z 19003KT 9999 BKN036 BKN096 03/02 Q1006 NOSIG=
0165104880999992014032321204+51133+013767FM-15+023099999V0201901N002110103619N009999199+00301+00201999999ADDGA1071+010361991GA2071+030481991GE19MSL   +99999+99999GF199999071990010361991991MA1100701999990REMMET058METAR EDDC 232120Z 19004KT 9999 BKN034 BKN100 03/02 Q1007=
0165104880999992014032321504+51133+013767FM-15+023099999V0202101N003110304819N009999199+00301+00201999999ADDGA1041+009751991GA2071+030481991GE19MSL   +99999+99999GF199999041990009751991991MA1100701999990REMMET058METAR EDDC 232150Z 21006KT 9999 SCT032 BKN100 03/02 Q1007=
0165104880999992014032322204+51133+013767FM-15+023099999V0202201N002610335319N009999199+00301+00201999999ADDGA1041+010061991GA2071+033531991GE19MSL   +99999+99999GF199999041990010061991991MA1100701999990REMMET058METAR EDDC 232220Z 22005KT 9999 SCT033 BKN110 03/02 Q1007=
0188104880999992014032322504+51133+013767FM-15+023099999V0202101N00211010061CN009999199+00301+00201999999ADDGA1021+007011991GA2041+010061991GA3071+036581991GE19MSL   +99999+99999GF199999021990007011991991MA1100601999990REMMET065METAR EDDC 232250Z 21004KT 9999 FEW023 SCT033 BKN120 03/02 Q1006=
0165104880999992014032323204+51133+013767FM-15+023099999V0202101N002610121919N009999199+00301+00201999999ADDGA1071+012191991GA2071+033531991GE19MSL   +99999+99999GF199999071990012191991991MA1100601999990REMMET058METAR EDDC 232320Z 21005KT 9999 BKN040 BKN110 03/02 Q1006=
0142104880999992014032323504+51133+013767FM-15+023099999V0202201N001510121919N009999199+00301+00201999999ADDGA1071+012191991GE19MSL   +99999+99999GF199999071990012191991991MA1100601999990REMMET051METAR EDDC 232350Z 22003KT 9999 BKN040 03/02 Q1006=
0165104880999992014032400204+51133+013767FM-15+023099999V0202501N001510112819N009999199+00401+00201999999ADDGA1021+007621991GA2071+011281991GE19MSL   +99999+99999GF199999021990007621991991MA1100601999990REMMET058METAR EDDC 240020Z 25003KT 9999 FEW025 BKN037 04/02 Q1006=
0152104880999992014032400504+51133+013767FM-15+023099999V0201701N001010112819N009999199+00401+00301999999ADDGA1071+011281991GE19MSL   +99999+99999GF199999071990011281991991MA1100601999990MW1611REMMET055METAR EDDC 240050Z 17002KT 9999 -RA BKN037 04/03 Q1006=
0175104880999992014032401204+51133+013767FM-15+023099999V0202501N002110112819N009999199+00401+00201999999ADDGA1021+008231991GA2071+011281991GE19MSL   +99999+99999GF199999021990008231991991MA1100601999990MW1611REMMET062METAR EDDC 240120Z 25004KT 9999 -RA FEW027 BKN037 04/02 Q1006=
0175104880999992014032401504+51133+013767FM-15+023099999V0202601N001510085319N009999199+00401+00301999999ADDGA1071+008531991GA2071+012191991GE19MSL   +99999+99999GF199999071990008531991991MA1100601999990MW1611REMMET062METAR EDDC 240150Z 26003KT 9999 -RA BKN028 BKN040 04/03 Q1006=
0175104880999992014032402204+51133+013767FM-15+023099999V0203101N002110073219N007000199+00401+00301999999ADDGA1021+005491991GA2071+007321991GE19MSL   +99999+99999GF199999021990005491991991MA1100601999990MW1611REMMET062METAR EDDC 240220Z 31004KT 7000 -RA FEW018 BKN024 04/03 Q1006=
0174104880999992014032402504+51133+013767FM-15+023099999V0202901N002610076219N006000199+00401+00301999999ADDGA1071+007621991GA2071+010361991GE19MSL   +99999+99999GF199999071990007621991991MA1100601999990MW1631REMMET061METAR EDDC 240250Z 29005KT 6000 RA BKN025 BKN034 04/03 Q1006=
0174104880999992014032403204+51133+013767FM-15+023099999V0203101N004610048819N006000199+00401+00301999999ADDGA1071+004881991GA2071+007011991GE19MSL   +99999+99999GF199999071990004881991991MA1100601999990MW1631REMMET061METAR EDDC 240320Z 31009KT 6000 RA BKN016 BKN023 04/03 Q1006=
0208104880999992014032403504+51133+013767FM-15+023099999V0203001N003110054919N007000199+00401+00301999999ADDGA1071+005491991GA2071+009451991GA3081+036581991GE19MSL   +99999+99999GF199999071990005491991991MA1100601999990MW1611REMMET079METAR EDDC 240350Z 30006KT 7000 -RA BKN018 BKN031 OVC120 04/03 Q1006      RERA=
0198104880999992014032404204+51133+013767FM-15+023099999V0203201N004110054919N006000199+00401+00301999999ADDGA1071+005491991GA2041+012191991GA3081+036581991GE19MSL   +99999+99999GF199999071990005491991991MA1100701999990MW1611REMMET069METAR EDDC 240420Z 32008KT 6000 -RA BKN018 SCT040 OVC120 04/03 Q1007=
0228104880999992014032404504+51133+013767FM-15+023099999V0203101N003610115819N003800199+00401+00401999999ADDGA1041+003661991GA2071+011581991GA3081+036581991GE19MSL   +99999+99999GF199999041990003661991991MA1100701999990MW1101MW2611REMMET093METAR EDDC 240450Z 31007KT 3800 -RA BR SCT012 BKN038 OVC120 04/04 Q1007      TEMPO RA BKN012=
0201104880999992014032405204+51133+013767FM-15+023099999V0203001N003110365819N006000199+00401+00301999999ADDGA1041+012191991GA2081+036581991GE19MSL   +99999+99999GF199999041990012191991991MA1100701999990MW1611REMMET088METAR EDDC 240520Z 30006KT 6000 -RA SCT040 OVC120 04/03 Q1007 TEMPO      3000 RA BKN012=
0203104880999992014032405504+51133+013767FM-15+023099999V0203201N003610061019N005000199+00401+00301999999ADDGA1041+003961991GA2071+006101991GE19MSL   +99999+99999GF199999041990003961991991MA1100801999990MW1631REMMET090METAR EDDC 240550Z 32007KT 5000 RA SCT013 BKN020 04/03 Q1008 TEMPO      3000 -RADZ BKN012=
0183104880999992014032406204+51133+013767FM-15+023099999V0203001V002610036619N004000199+00401+00301999999ADDGA1071+003661991GE19MSL   +99999+99999GF199999071990003661991991MA1100801999990MW1611REMMET086METAR EDDC 240620Z 30005KT 160V300 4000 -RA BKN012 04/03 Q1008 RERA      TEMPO BKN007=
0193104880999992014032406504+51133+013767FM-15+023099999V0203201N002610024419N006000199+00401+00301999999ADDGA1041+001831991GA2071+002441991GE19MSL   +99999+99999GF199999041990001831991991MA1100901999990MW1611REMMET080METAR EDDC 240650Z 32005KT 6000 -RA SCT006 BKN008 04/03 Q1009 TEMPO      BKN004=
0193104880999992014032407204+51133+013767FM-15+023099999V0203001N003110024419N006000199+00401+00301999999ADDGA1071+002441991GA2071+004881991GE19MSL   +99999+99999GF199999071990002441991991MA1100901999990MW1611REMMET080METAR EDDC 240720Z 30006KT 6000 -RA BKN008 BKN016 04/03 Q1009 TEMPO      SCT008=
0193104880999992014032407504+51133+013767FM-15+023099999V0202901N003610365819N008000199+00401+00201999999ADDGA1041+002441991GA2071+036581991GE19MSL   +99999+99999GF199999041990002441991991MA1100901999990MW1611REMMET080METAR EDDC 240750Z 29007KT 8000 -RA SCT008 BKN120 04/02 Q1009 TEMPO      BKN008=
0193104880999992014032408204+51133+013767FM-15+023099999V0203001N003610030519N009000199+00401+00201999999ADDGA1071+003051991GA2071+036581991GE19MSL   +99999+99999GF199999071990003051991991MA1100901999990MW1611REMMET080METAR EDDC 240820Z 30007KT 9000 -RA BKN010 BKN120 04/02 Q1009 TEMPO      SCT010=
0193104880999992014032408504+51133+013767FM-15+023099999V0203001N003610030519N008000199+00401+00301999999ADDGA1021+002441991GA2071+003051991GE19MSL   +99999+99999GF199999021990002441991991MA1100901999990MW1611REMMET080METAR EDDC 240850Z 30007KT 8000 -RA FEW008 BKN010 04/03 Q1009 TEMPO      SCT010=
0193104880999992014032409204+51133+013767FM-15+023099999V0203001N003610030519N007000199+00401+00301999999ADDGA1041+002441991GA2071+003051991GE19MSL   +99999+99999GF199999041990002441991991MA1100901999990MW1611REMMET080METAR EDDC 240920Z 30007KT 7000 -RA SCT008 BKN010 04/03 Q1009 TEMPO      BKN008=
0196104880999992014032409504+51133+013767FM-15+023099999V0203001N003610024419N006000199+00401+00301999999ADDGA1021+001831991GA2071+002441991GE19MSL   +99999+99999GF199999021990001831991991MA1101001999990MW1631REMMET083METAR EDDC 240950Z 30007KT 6000 RA FEW006 BKN008 04/03 Q1010 BECMG      NSW BKN010=
0196104880999992014032410204+51133+013767FM-15+023099999V0203101N003610024419N007000199+00401+00301999999ADDGA1021+001831991GA2071+002441991GE19MSL   +99999+99999GF199999021990001831991991MA1101001999990MW1631REMMET083METAR EDDC 241020Z 31007KT 7000 RA FEW006 BKN008 04/03 Q1010 BECMG      NSW BKN010=
0198104880999992014032410504+51133+013767FM-15+023099999V0203301N003610024419N007000199+00401+00301999999ADDGA1021+001831991GA2071+002441991GE19MSL   +99999+99999GF199999021990001831991991MA1101001999990MW1611REMMET085METAR EDDC 241050Z 33007KT 7000 -RA FEW006 BKN008 04/03 Q1010 RERA      BECMG BKN010=
0198104880999992014032411204+51133+013767FM-15+023099999V0203501N003610024419N008000199+00401+00301999999ADDGA1021+001831991GA2071+002441991GE19MSL   +99999+99999GF199999021990001831991991MA1101001999990MW1611REMMET085METAR EDDC 241120Z 35007KT 8000 -RA FEW006 BKN008 04/03 Q1010 RERA      BECMG BKN010=
0193104880999992014032411504+51133+013767FM-15+023099999V0203401N004110024419N008000199+00401+00301999999ADDGA1021+001831991GA2071+002441991GE19MSL   +99999+99999GF199999021990001831991991MA1101001999990MW1611REMMET080METAR EDDC 241150Z 34008KT 8000 -RA FEW006 BKN008 04/03 Q1010 BECMG      BKN010=
0193104880999992014032412204+51133+013767FM-15+023099999V0203401N003110030519N009999199+00401+00301999999ADDGA1021+002441991GA2071+003051991GE19MSL   +99999+99999GF199999021990002441991991MA1101001999990MW1611REMMET080METAR EDDC 241220Z 34006KT 9999 -RA FEW008 BKN010 04/03 Q1010 BECMG      BKN015=
0193104880999992014032412504+51133+013767FM-15+023099999V0203301N003610030519N009999199+00501+00301999999ADDGA1071+003051991GA2081+039621991GE19MSL   +99999+99999GF199999071990003051991991MA1101001999990MW1611REMMET080METAR EDDC 241250Z 33007KT 9999 -RA BKN010 OVC130 05/03 Q1010 BECMG      BKN015=
0181104880999992014032413204+51133+013767FM-15+023099999V0203301N003110396219N009999199+00601+00301999999ADDGA1041+003661991GA2081+039621991GE19MSL   +99999+99999GF199999041990003661991991MA1101001999990MW1611REMMET068METAR EDDC 241320Z 33006KT 9999 -RA SCT012 OVC130 06/03 Q1010 NOSIG=
0171104880999992014032413504+51133+013767FM-15+023099999V0203501N004110396219N009999199+00601+00201999999ADDGA1041+004881991GA2071+039621991GE19MSL   +99999+99999GF199999041990004881991991MA1101001999990REMMET064METAR EDDC 241350Z 35008KT 9999 SCT016 BKN130 06/02 Q1010 NOSIG=
0194104880999992014032414204+51133+013767FM-15+023099999V0203501N00311039621CN009999199+00601+00201999999ADDGA1041+005491991GA2041+039621991GA3071+082301991GE19MSL   +99999+99999GF199999041990005491991991MA1101001999990REMMET071METAR EDDC 241420Z 35006KT 9999 SCT018 SCT130 BKN270 06/02 Q1010 NOSIG=
0194104880999992014032414504+51133+013767FM-15+023099999V0203301N00411012191CN009999199+00601+00201999999ADDGA1041+006101991GA2041+012191991GA3071+039621991GE19MSL   +99999+99999GF199999041990006101991991MA1101001999990REMMET071METAR EDDC 241450Z 33008KT 9999 SCT020 SCT040 BKN130 06/02 Q1010 NOSIG=
0202104880999992014032415204+51133+013767FM-15+023099999V0203301N00311015241CN009999199+00601+00301999999ADDGA1041+005791081GA2041+015241991GA3071+039621991GE19MSL   +99999+99999GF199999041990005791991991MA1101001999990REMMET079METAR EDDC 241520Z 33006KT 9999 SCT019TCU SCT050 BKN130 06/03 Q1010      NOSIG=
0178104880999992014032415504+51133+013767FM-15+023099999V0200401N002610396219N009999199+00601+00201999999ADDGA1041+004571091GA2071+039621991GE19MSL   +99999+99999GF199999041990004571991991MA1101001999990REMMET071METAR EDDC 241550Z 04005KT 9999 SCT015CB BKN130 06/02 Q1010 TEMPO SHRA=
0218104880999992014032416204+51133+013767FM-15+023099999V0200401N00211007011CN009999199+00501+00201999999ADDGA1041+004571091GA2041+007011991GA3071+039621991GE19MSL   +99999+99999GF199999041990004571991991MA1101001999990MW1801REMMET089METAR EDDC 241620Z 04004KT 9999 -SHRA SCT015CB SCT023 BKN130 05/02      Q1010 TEMPO SHRA=
0207104880999992014032416504+51133+013767FM-15+023099999V0203001N004610045719N006000199+00301+00201999999ADDGA1041+002441991GA2071+004571091GE19MSL   +99999+99999GF199999041990002441991991MA1101101999990MW1811REMMET094METAR EDDC 241650Z 30009KT 6000 SHRA SCT008 BKN015CB 03/02 Q1011 TEMPO      4500 NSW BKN012CB=
0194104880999992014032417204+51133+013767FM-15+023099999V0203101N004110036619N004800199+00201+00201999999ADDGA1071+003661991GA2071+006101091GE19MSL   +99999+99999GF199999071990003661991991MA1101101999990MW1811REMMET081METAR EDDC 241720Z 31008KT 4800 SHRA BKN012 BKN020CB 02/02 Q1011 TEMPO      TSRA=
0215104880999992014032417504+51133+013767FM-15+023099999V0202801N00151003661CN007000199+00201+00201999999ADDGA1021+000911991GA2041+003661991GA3081+006101991GE19MSL   +99999+99999GF199999021990000911991991MA1101101999990MW1631REMMET086METAR EDDC 241750Z 28003KT 7000 RA FEW003 SCT012 OVC020 02/02 Q1011      TEMPO BKN012=
0191104880999992014032418204+51133+013767FM-15+023099999V0202701N001010033519N009999199+00301+00201999999ADDGA1021+002441991GA2071+003351991GE19MSL   +99999+99999GF199999021990002441991991MA1101101999990MW1611REMMET078METAR EDDC 241820Z 27002KT 9999 -RA FEW008 BKN011 03/02 Q1011 RERA      NOSIG=
0212104880999992014032418504+51133+013767FM-15+023099999V0202701N002110042719N009999199+00301+00201999999ADDGA1021+002441991GA2071+004271991GA3081+006101991GE19MSL   +99999+99999GF199999021990002441991991MA1101101999990MW1611REMMET083METAR EDDC 241850Z 27004KT 9999 -RA FEW008 BKN014 OVC020 03/02 Q1011      TEMPO RA=
0189104880999992014032419204+51133+013767FM-15+023099999V0202901N001510042719N009999199+00301+00301999999ADDGA1071+004271991GA2081+009751991GE19MSL   +99999+99999GF199999071990004271991991MA1101101999990MW1611REMMET076METAR EDDC 241920Z 29003KT 9999 -RA BKN014 OVC032 03/03 Q1011 TEMPO      RA=
0216104880999992014032419504+51133+013767FM-15+023099999V0203101N001510045719N009999199+00301+00301999999ADDGA1021+002441991GA2071+004571991GA3081+009141991GE19MSL   +99999+99999GF199999021990002441991991MA1101101999990MW1611REMMET087METAR EDDC 241950Z 31003KT 9999 -RA FEW008 BKN015 OVC030 03/03 Q1011      TEMPO BKN012=
0216104880999992014032420204+51133+013767FM-15+023099999V0203101N001510048819N009999199+00301+00301999999ADDGA1021+002131991GA2071+004881991GA3081+007921991GE19MSL   +99999+99999GF199999021990002131991991MA1101101999990MW1611REMMET087METAR EDDC 242020Z 31003KT 9999 -RA FEW007 BKN016 OVC026 03/03 Q1011      TEMPO BKN012=
0181104880999992014032420504+51133+013767FM-15+023099999V0203001N001010012219N009000199+00301+00301999999ADDGA1071+001221991GA2071+004881991GE19MSL   +99999+99999GF199999071990001221991991MA1101101999990MW1611REMMET068METAR EDDC 242050Z 30002KT 9000 -RA BKN004 BKN016 03/03 Q1011 NOSIG=
0175104880999992014032421204+51133+013767FM-15+023099999V0202901N002110018319N008000199+00301+00301999999ADDGA1041+000911991GA2071+001831991GE19MSL   +99999+99999GF199999041990000911991991MA1101101999990MW1611REMMET062METAR EDDC 242120Z 29004KT 8000 -RA SCT003 BKN006 03/03 Q1011=
0175104880999992014032421504+51133+013767FM-15+023099999V0203101N003110021319N008000199+00301+00301999999ADDGA1041+000611991GA2071+002131991GE19MSL   +99999+99999GF199999041990000611991991MA1101101999990MW1611REMMET062METAR EDDC 242150Z 31006KT 8000 -RA SCT002 BKN007 03/03 Q1011=
0175104880999992014032422204+51133+013767FM-15+023099999V0203101N002610009119N008000199+00301+00301999999ADDGA1071+000911991GA2071+001831991GE19MSL   +99999+99999GF199999071990000911991991MA1101101999990MW1611REMMET062METAR EDDC 242220Z 31005KT 8000 -RA BKN003 BKN006 03/03 Q1011=
0169104880999992014032422504+51133+013767FM-15+023099999V0202901N002610051819N009000199+00301+00301999999ADDGA1041+001221991GA2071+005181991GE19MSL   +99999+99999GF199999041990001221991991MA1101101999990REMMET062METAR COR EDDC 242250Z 29005KT 9000 SCT004 BKN017 03/03 Q1011=
0165104880999992014032423204+51133+013767FM-15+023099999V0202901N002110012219N009000199+00301+00301999999ADDGA1071+001221991GA2071+019511991GE19MSL   +99999+99999GF199999071990001221991991MA1101101999990REMMET058METAR EDDC 242320Z 29004KT 9000 BKN004 BKN064 03/03 Q1011=
0188104880999992014032423504+51133+013767FM-15+023099999V0202601N00211018901CN009999199+00301+00301999999ADDGA1021+001221991GA2041+018901991GA3071+023771991GE19MSL   +99999+99999GF199999021990001221991991MA1101101999990REMMET065METAR EDDC 242350Z 26004KT 9999 FEW004 SCT062 BKN078 03/03 Q1011=
0188104880999992014032500204+51133+013767FM-15+023099999V0202901N002110070119N009999199+00301+00301999999ADDGA1021+001831991GA2071+007011991GA3071+018291991GE19MSL   +99999+99999GF199999021990001831991991MA1101101999990REMMET065METAR EDDC 250020Z 29004KT 9999 FEW006 BKN023 BKN060 03/03 Q1011=
0175104880999992014032500504+51133+013767FM-15+023099999V0202901N002110012219N009999199+00301+00301999999ADDGA1071+001221991GA2071+007621991GE19MSL   +99999+99999GF199999071990001221991991MA1101101999990MW1611REMMET062METAR EDDC 250050Z 29004KT 9999 -RA BKN004 BKN025 03/03 Q1011=
0198104880999992014032501204+51133+013767FM-15+023099999V0202901N002110033519N009000199+00301+00301999999ADDGA1041+001221991GA2071+003351991GA3071+006101991GE19MSL   +99999+99999GF199999041990001221991991MA1101101999990MW1611REMMET069METAR EDDC 250120Z 29004KT 9000 -RA SCT004 BKN011 BKN020 03/03 Q1011=
0165104880999992014032501504+51133+013767FM-15+023099999V0202801N002610009119N009000199+00301+00301999999ADDGA1071+000911991GA2071+009141991GE19MSL   +99999+99999GF199999071990000911991991MA1101001999990REMMET058METAR EDDC 250150Z 28005KT 9000 BKN003 BKN030 03/03 Q1010=
0142104880999992014032502204+51133+013767FM-15+023099999V0202901N002610012219N009000199+00301+00301999999ADDGA1071+001221991GE19MSL   +99999+99999GF199999071990001221991991MA1101001999990REMMET051METAR EDDC 250220Z 29005KT 9000 BKN004 03/03 Q1010=
0175104880999992014032502504+51133+013767FM-15+023099999V0202801N002610009119N008000199+00301+00301999999ADDGA1071+000911991GA2071+004881991GE19MSL   +99999+99999GF199999071990000911991991MA1101001999990MW1611REMMET062METAR EDDC 250250Z 28005KT 8000 -RA BKN003 BKN016 03/03 Q1010=
0152104880999992014032503204+51133+013767FM-15+023099999V0202801N002110009119N007000199+00301+00301999999ADDGA1071+000911991GE19MSL   +99999+99999GF199999071990000911991991MA1101001999990MW1611REMMET055METAR EDDC 250320Z 28004KT 7000 -RA BKN003 03/03 Q1010=
0152104880999992014032503504+51133+013767FM-15+023099999V0202901N002610009119N006000199+00301+00301999999ADDGA1071+000911991GE19MSL   +99999+99999GF199999071990000911991991MA1101001999990MW1611REMMET055METAR EDDC 250350Z 29005KT 6000 -RA BKN003 03/03 Q1010=
0152104880999992014032504204+51133+013767FM-15+023099999V0202901N002610012219N006000199+00301+00301999999ADDGA1071+001221991GE19MSL   +99999+99999GF199999071990001221991991MA1101001999990MW1611REMMET055METAR EDDC 250420Z 29005KT 6000 -RA BKN004 03/03 Q1010=
0167104880999992014032504504+51133+013767FM-15+023099999V0202901N002110012219N004000199+00201+00201999999ADDGA1071+001221991GE19MSL   +99999+99999GF199999071990001221991991MA1101001999990MW1101MW2611REMMET064METAR EDDC 250450Z 29004KT 4000 -RA BR BKN004 02/02 Q1010 NOSIG=
0190104880999992014032505204+51133+013767FM-15+023099999V0202601N002110012219N003800199+00201+00201999999ADDGA1071+001221991GA2071+002131991GE19MSL   +99999+99999GF199999071990001221991991MA1101001999990MW1101MW2611REMMET071METAR EDDC 250520Z 26004KT 3800 -RA BR BKN004 BKN007 02/02 Q1010 NOSIG=
0208104880999992014032505504+51133+013767FM-15+023099999V0202601N00211002441CN005000199+00201+00201999999ADDGA1041+000611991GA2041+002441991GA3071+015241991GE19MSL   +99999+99999GF199999041990000611991991MA1101001999990MW1101REMMET079METAR EDDC 250550Z 26004KT 5000 BR SCT002 SCT008 BKN050 02/02 Q1010      NOSIG=
0208104880999992014032506204+51133+013767FM-15+023099999V0202801N00151005791CN005000199+00201+00201999999ADDGA1041+000911991GA2041+005791991GA3071+039621991GE19MSL   +99999+99999GF199999041990000911991991MA1101001999990MW1101REMMET079METAR EDDC 250620Z 28003KT 5000 BR SCT003 SCT019 BKN130 02/02 Q1010      NOSIG=
0208104880999992014032506504+51133+013767FM-15+023099999V0202901N00211002741CN005000199+00301+00301999999ADDGA1021+001221991GA2041+002741991GA3071+039621991GE19MSL   +99999+99999GF199999021990001221991991MA1101001999990MW1101REMMET079METAR EDDC 250650Z 29004KT 5000 BR FEW004 SCT009 BKN130 03/03 Q1010      NOSIG=
0178104880999992014032507204+51133+013767FM-15+023099999V0202701N002610042719N007000199+00301+00201999999ADDGA1041+001221991GA2071+004271991GE19MSL   +99999+99999GF199999041990001221991991MA1101001999990REMMET071METAR EDDC 250720Z 27005KT 7000 SCT004 BKN014 03/02 Q1010 BECMG BKN020=
0155104880999992014032507504+51133+013767FM-15+023099999V0202701N002610021319N006000199+00301+00201999999ADDGA1071+002131991GE19MSL   +99999+99999GF199999071990002131991991MA1101001999990REMMET064METAR EDDC 250750Z 27005KT 6000 BKN007 03/02 Q1010 BECMG BKN012=
0171104880999992014032508204+51133+013767FM-15+023099999V0202701N003110036619N006000199+00401+00301999999ADDGA1041+001521991GA2071+003661991GE19MSL   +99999+99999GF199999041990001521991991MA1101001999990REMMET064METAR EDDC 250820Z 27006KT 6000 SCT005 BKN012 04/03 Q1010 NOSIG=
0171104880999992014032508504+51133+013767FM-15+023099999V0203001N002610030519N006000199+00401+00301999999ADDGA1041+002131991GA2071+003051991GE19MSL   +99999+99999GF199999041990002131991991MA1101001999990REMMET064METAR EDDC 250850Z 30005KT 6000 SCT007 BKN010 04/03 Q1010 NOSIG=
0171104880999992014032509204+51133+013767FM-15+023099999V0202601N003610030519N006000199+00401+00301999999ADDGA1041+001831991GA2071+003051991GE19MSL   +99999+99999GF199999041990001831991991MA1100901999990REMMET064METAR EDDC 250920Z 26007KT 6000 SCT006 BKN010 04/03 Q1009 NOSIG=
0194104880999992014032509504+51133+013767FM-15+023099999V0202701N003610057919N007000199+00501+00301999999ADDGA1041+002441991GA2071+005791991GA3071+012191991GE19MSL   +99999+99999GF199999041990002441991991MA1100901999990REMMET071METAR EDDC 250950Z 27007KT 7000 SCT008 BKN019 BKN040 05/03 Q1009 NOSIG=
0181104880999992014032510204+51133+013767FM-15+023099999V0202801N004610057919N006000199+00401+00201999999ADDGA1041+002441991GA2071+005791991GE19MSL   +99999+99999GF199999041990002441991991MA1100901999990MW1611REMMET068METAR EDDC 251020Z 28009KT 6000 -RA SCT008 BKN019 04/02 Q1009 NOSIG=
0202104880999992014032510504+51133+013767FM-15+023099999V0202601N00261005791CN008000199+00501+00301999999ADDGA1021+002441991GA2041+005791081GA3071+021341991GE19MSL   +99999+99999GF199999021990002441991991MA1100901999990REMMET079METAR EDDC 251050Z 26005KT 8000 FEW008 SCT019TCU BKN070 05/03 Q1009      NOSIG=
0191104880999992014032511204+51133+013767FM-15+023099999V0203101N003610061019N008000199+00601+00201999999ADDGA1041+003661991GA2071+006101081GE19MSL   +99999+99999GF199999041990003661991991MA1100901999990MW1801REMMET078METAR EDDC 251120Z 31007KT 8000 -SHRA SCT012 BKN020TCU 06/02 Q1009      NOSIG=
0191104880999992014032511504+51133+013767FM-15+023099999V0203401N003110061019N009999199+00501+00201999999ADDGA1041+003661991GA2071+006101081GE19MSL   +99999+99999GF199999041990003661991991MA1100901999990MW1801REMMET078METAR EDDC 251150Z 34006KT 9999 -SHRA SCT012 BKN020TCU 05/02 Q1009      NOSIG=
0166104880999992014032512204+51133+013767FM-15+023099999V0201001N001510067119N009999199+00601+00301999999ADDGA1071+006711091GE19MSL   +99999+99999GF199999071990006711991991MA1100801999990MW1161REMMET069METAR EDDC 251220Z 10003KT 9999 VCSH BKN022CB 06/03 Q1008 TEMPO SHRA=
0175104880999992014032512504+51133+013767FM-15+023099999V0202801N002110067119N009999199+00601+00201999999ADDGA1071+006711091GE19MSL   +99999+99999GF199999071990006711991991MA1100801999990MW1161REMMET078METAR COR EDDC 251250Z 28004KT 9999 VCSH BKN022CB 06/02 Q1008 TEMPO      TSRA=
0195104880999992014032513204+51133+013767FM-15+023099999V0203101N003110085319N009999199+00501+00201999999ADDGA1021+005491991GA2071+008531091GE19MSL   +99999+99999GF199999021990005491991991MA1100801999990MW1801REMMET082METAR EDDC 251320Z 31006KT 9999 -SHRA FEW018 BKN028CB 05/02 Q1008 TEMPO      TSRA=
0184104880999992014032513504+51133+013767FM-15+023099999V0203201N00411022561CN009999199+00601+00201999999ADDGA1041+009141081GA2041+022561991GE19MSL   +99999+99999GF199999041990009141991991MA1100801999990REMMET077METAR EDDC 251350Z 32008KT 9999 SCT030TCU SCT074 06/02 Q1008 TEMPO      SHRA=
0191104880999992014032514204+51133+013767FM-15+023099999V0203401N003610396219N009999199+00501+00201999999ADDGA1041+009141081GA2071+039621991GE19MSL   +99999+99999GF199999041990009141991991MA1100801999990MW1801REMMET078METAR EDDC 251420Z 34007KT 9999 -SHRA SCT030TCU BKN130 05/02 Q1008      NOSIG=
0194104880999992014032514504+51133+013767FM-15+023099999V0203401N00261018291CN009999199+00501+00201999999ADDGA1041+009141991GA2041+018291991GA3071+079251991GE19MSL   +99999+99999GF199999041990009141991991MA1100801999990REMMET071METAR EDDC 251450Z 34005KT 9999 SCT030 SCT060 BKN260 05/02 Q1008 NOSIG=
0194104880999992014032515204+51133+013767FM-15+023099999V0203201N00211018291CN009999199+00501+00201999999ADDGA1041+009141991GA2041+018291991GA3071+079251991GE19MSL   +99999+99999GF199999041990009141991991MA1100801999990REMMET071METAR EDDC 251520Z 32004KT 9999 SCT030 SCT060 BKN260 05/02 Q1008 NOSIG=
0194104880999992014032515504+51133+013767FM-15+023099999V0203001N00311015241CN009999199+00601+00201999999ADDGA1021+006101991GA2041+015241991GA3071+079251991GE19MSL   +99999+99999GF199999021990006101991991MA1100901999990REMMET071METAR EDDC 251550Z 30006KT 9999 FEW020 SCT050 BKN260 06/02 Q1009 NOSIG=
0194104880999992014032516204+51133+013767FM-15+023099999V0203101N00411015241CN009999199+00501+00101999999ADDGA1021+007321991GA2041+015241991GA3071+079251991GE19MSL   +99999+99999GF199999021990007321991991MA1100901999990REMMET071METAR EDDC 251620Z 31008KT 9999 FEW024 SCT050 BKN260 05/01 Q1009 NOSIG=
0194104880999992014032516504+51133+013767FM-15+023099999V0203201N00211018291CN009999199+00501+00201999999ADDGA1021+007321991GA2041+018291991GA3071+079251991GE19MSL   +99999+99999GF199999021990007321991991MA1100901999990REMMET071METAR EDDC 251650Z 32004KT 9999 FEW024 SCT060 BKN260 05/02 Q1009 NOSIG=
0078104880999992014032517204+51133+013767FM-15+023099999V0203401N002119999999Y999999999+00501+00201999999ADDMA1100901999990REMMET051METAR EDDC 251720Z 34004KT CAVOK 05/02 Q1009 NOSIG=
0194104880999992014032517504+51133+013767FM-15+023099999V0200601N00101015851CN009999199+00401+00101999999ADDGA1021+013411991GA2041+015851991GA3071+079251991GE19MSL   +99999+99999GF199999021990013411991991MA1100901999990REMMET071METAR EDDC 251750Z 06002KT 9999 FEW044 SCT052 BKN260 04/01 Q1009 NOSIG=
0078104880999992014032518204+51133+013767FM-15+023099999V0200801N001519999999Y999999999+00401+00101999999ADDMA1101001999990REMMET051METAR EDDC 251820Z 08003KT CAVOK 04/01 Q1010 NOSIG=
0171104880999992014032518504+51133+013767FM-15+023099999V0201401N00101079251CN009999199+00401+00101999999ADDGA1021+005791991GA2041+079251991GE19MSL   +99999+99999GF199999021990005791991991MA1101001999990REMMET064METAR EDDC 251850Z 14002KT 9999 FEW019 SCT260 04/01 Q1010 NOSIG=
0171104880999992014032519204+51133+013767FM-15+023099999V0209999V00101014021CN009999199+00301+00101999999ADDGA1021+011581991GA2041+014021991GE19MSL   +99999+99999GF199999021990011581991991MA1101001999990REMMET064METAR EDDC 251920Z VRB02KT 9999 FEW038 SCT046 03/01 Q1010 NOSIG=
0148104880999992014032519504+51133+013767FM-15+023099999V0201401N001010106719N009999199+00301+00101999999ADDGA1071+010671991GE19MSL   +99999+99999GF199999071990010671991991MA1101001999990REMMET057METAR EDDC 251950Z 14002KT 9999 BKN035 03/01 Q1010 NOSIG=
0148104880999992014032520204+51133+013767FM-15+023099999V0209999V001019999999N009999199+00301+00101999999ADDGA1041+011581991GE19MSL   +99999+99999GF199999041990011581991991MA1101001999990REMMET057METAR EDDC 252020Z VRB02KT 9999 SCT038 03/01 Q1010 NOSIG=
0148104880999992014032520504+51133+013767FM-15+023099999V0201901N002119999999N009999199+00201+00101999999ADDGA1021+013411991GE19MSL   +99999+99999GF199999021990013411991991MA1101001999990REMMET057METAR EDDC 252050Z 19004KT 9999 FEW044 02/01 Q1010 NOSIG=
0072104880999992014032521204+51133+013767FM-15+023099999V0201701N002619999999Y999999999+00201+00001999999ADDMA1101001999990REMMET045METAR EDDC 252120Z 17005KT CAVOK 02/00 Q1010=
0072104880999992014032521504+51133+013767FM-15+023099999V0201701N002619999999Y999999999+00201+00001999999ADDMA1101001999990REMMET045METAR EDDC 252150Z 17005KT CAVOK 02/00 Q1010=
0072104880999992014032522204+51133+013767FM-15+023099999V0201701N003619999999Y999999999+00101+00001999999ADDMA1101001999990REMMET045METAR EDDC 252220Z 17007KT CAVOK 01/00 Q1010=
0072104880999992014032522504+51133+013767FM-15+023099999V0201601N003119999999Y999999999+00101+00101999999ADDMA1101001999990REMMET045METAR EDDC 252250Z 16006KT CAVOK 01/01 Q1010=
0072104880999992014032523204+51133+013767FM-15+023099999V0201701N003119999999Y999999999+00101+00001999999ADDMA1101001999990REMMET045METAR EDDC 252320Z 17006KT CAVOK 01/00 Q1010=
0072104880999992014032523504+51133+013767FM-15+023099999V0201701N002619999999Y999999999+00101+00101999999ADDMA1101101999990REMMET045METAR EDDC 252350Z 17005KT CAVOK 01/01 Q1011=
0072104880999992014032600204+51133+013767FM-15+023099999V0201701N003119999999Y999999999+00001+00001999999ADDMA1101101999990REMMET045METAR EDDC 260020Z 17006KT CAVOK 00/00 Q1011=
0072104880999992014032600504+51133+013767FM-15+023099999V0201701N003619999999Y999999999+00001+00001999999ADDMA1101101999990REMMET045METAR EDDC 260050Z 17007KT CAVOK 00/00 Q1011=
0072104880999992014032601204+51133+013767FM-15+023099999V0201601N003119999999Y999999999+00001+00001999999ADDMA1101101999990REMMET045METAR EDDC 260120Z 16006KT CAVOK 00/00 Q1011=
0072104880999992014032601504+51133+013767FM-15+023099999V0201601N003619999999Y999999999+00001+00001999999ADDMA1101101999990REMMET045METAR EDDC 260150Z 16007KT CAVOK 00/00 Q1011=
0121104880999992014032602204+51133+013767FM-15+023099999V0201601N003612200019N009999199-00101-00101999999ADDGF100991999999999999999999MA1101101999990MW1111REMMET062METAR EDDC 260220Z 16007KT 9999 3000SW PRFG NSC M01/M01 Q1011=
0165104880999992014032602504+51133+013767FM-15+023099999V0201701N003619999999N000500199-00101-00101999999ADDGA1041+000301991GE19MSL   +99999+99999GF199999041990000301991991MA1101201999990MW1481REMMET068METAR EDDC 260250Z 17007KT 0500 R04/0700N FZFG SCT001 M01/M01 Q1012=
0165104880999992014032603204+51133+013767FM-15+023099999V0201701N003119999999N000300199-00201-00201999999ADDGA1041+000301991GE19MSL   +99999+99999GF199999041990000301991991MA1101201999990MW1481REMMET068METAR EDDC 260320Z 17006KT 0300 R04/0450N FZFG SCT001 M02/M02 Q1012=
0175104880999992014032603504+51133+013767FM-15+023099999V0201701N003119999999N000500199-00201-00201999999ADDGA1021+000301991GE19MSL   +99999+99999GF199999021990000301991991MA1101201999990MW1481REMMET078METAR EDDC 260350Z 17006KT 0500 R04/0550V0800N FZFG FEW001 M02/M02      Q1012=
0175104880999992014032604204+51133+013767FM-15+023099999V0201701N003119999999N000600199-00201-00201999999ADDGA1021+000301991GE19MSL   +99999+99999GF199999021990000301991991MA1101201999990MW1481REMMET078METAR EDDC 260420Z 17006KT 0600 R04/0500V0800D FZFG FEW001 M02/M02      Q1012=
0187104880999992014032604504+51133+013767FM-15+023099999V0209999V001019999999N000300199-00201-00201999999ADDGA1021+000301991GE19MSL   +99999+99999GF199999021990000301991991MA1101301999990MW1481REMMET090METAR EDDC 260450Z VRB02KT 0300 R22/P2000N FZFG FEW001 M02/M02 Q1013      BECMG 0700 FZFG=
0187104880999992014032605204+51133+013767FM-15+023099999V0201601N001519999999N000300199-00201-00201999999ADDGA1021+000301991GE19MSL   +99999+99999GF199999021990000301991991MA1101301999990MW1481REMMET090METAR EDDC 260520Z 16003KT 0300 R22/P2000N FZFG FEW001 M02/M02 Q1013      BECMG 0700 FZFG=
0146104880999992014032605504+51133+013767FM-15+023099999V0201701N001512200019N000200199-00101-00101999999ADDGF100991999999999999999999MA1101301999990MW1481REMMET087METAR EDDC 260550Z 17003KT 0200 R22/P2000N FZFG NSC M01/M01 Q1013 BECMG      0700 FZFG=
0146104880999992014032606204+51133+013767FM-15+023099999V0201801N001512200019N000100199-00101-00101999999ADDGF100991999999999999999999MA1101301999990MW1481REMMET087METAR EDDC 260620Z 18003KT 0100 R22/P2000N FZFG NSC M01/M01 Q1013 BECMG      0500 FZFG=
0146104880999992014032606504+51133+013767FM-15+023099999V0202001N000512200019N000150199+00001+00001999999ADDGF100991999999999999999999MA1101401999990MW1481REMMET087METAR EDDC 260650Z 20001KT 0150 R22/P2000N FZFG NSC M00/M00 Q1014 BECMG      0500 FZFG=
0146104880999992014032607204+51133+013767FM-15+023099999V0201301N001512200019N003000199+00101+00101999999ADDGF100991999999999999999999MA1101401999990MW1441REMMET087METAR EDDC 260720Z 13003KT 3000 0600S R22/P2000N FG NSC 01/01 Q1014      BECMG 1000 BR=
0078104880999992014032607504+51133+013767FM-15+023099999V0201301N002619999999Y999999999+00401+00401999999ADDMA1101501999990REMMET051METAR EDDC 260750Z 13005KT CAVOK 04/04 Q1015 NOSIG=
0078104880999992014032608204+51133+013767FM-15+023099999V0201401N003119999999Y999999999+00501+00301999999ADDMA1101501999990REMMET051METAR EDDC 260820Z 14006KT CAVOK 05/03 Q1015 NOSIG=
0148104880999992014032608504+51133+013767FM-15+023099999V0201601N003619999999N009999199+00601+00201999999ADDGA1021+003961991GE19MSL   +99999+99999GF199999021990003961991991MA1101501999990REMMET057METAR EDDC 260850Z 16007KT 9999 FEW013 06/02 Q1015 NOSIG=
0156104880999992014032609204+51133+013767FM-15+023099999V0201001V003619999999N009999199+00701+00201999999ADDGA1041+006101991GE19MSL   +99999+99999GF199999041990006101991991MA1101501999990REMMET065METAR EDDC 260920Z 10007KT 070V160 9999 SCT020 07/02 Q1015 NOSIG=
0148104880999992014032609504+51133+013767FM-15+023099999V0201201N003619999999N009999199+00801+00201999999ADDGA1041+007621991GE19MSL   +99999+99999GF199999041990007621991991MA1101501999990REMMET057METAR EDDC 260950Z 12007KT 9999 SCT025 08/02 Q1015 NOSIG=
0148104880999992014032610204+51133+013767FM-15+023099999V0201001N003110097519N009999199+00801+00101999999ADDGA1071+009751991GE19MSL   +99999+99999GF199999071990009751991991MA1101501999990REMMET057METAR EDDC 261020Z 10006KT 9999 BKN032 08/01 Q1015 NOSIG=
0148104880999992014032610504+51133+013767FM-15+023099999V0200901N004110100619N009999199+00801+00101999999ADDGA1071+010061991GE19MSL   +99999+99999GF199999071990010061991991MA1101501999990REMMET057METAR EDDC 261050Z 09008KT 9999 BKN033 08/01 Q1015 NOSIG=
0148104880999992014032611204+51133+013767FM-15+023099999V0200601N005110109719N009999199+00801+00101999999ADDGA1071+010971991GE19MSL   +99999+99999GF199999071990010971991991MA1101501999990REMMET057METAR EDDC 261120Z 06010KT 9999 BKN036 08/01 Q1015 NOSIG=
0148104880999992014032611504+51133+013767FM-15+023099999V0200801N004110100619N009999199+00801+00101999999ADDGA1071+010061991GE19MSL   +99999+99999GF199999071990010061991991MA1101501999990REMMET057METAR EDDC 261150Z 08008KT 9999 BKN033 08/01 Q1015 NOSIG=
0156104880999992014032612204+51133+013767FM-15+023099999V0201001V002119999999N009999199+00901+00101999999ADDGA1041+010061991GE19MSL   +99999+99999GF199999041990010061991991MA1101501999990REMMET065METAR EDDC 261220Z 10004KT 070V140 9999 SCT033 09/01 Q1015 NOSIG=
0172104880999992014032612504+51133+013767FM-15+023099999V0200701N00511020121CN009999199+01001-00101999999ADDGA1041+012191991GA2041+020121991GE19MSL   +99999+99999GF199999041990012191991991MA1101501999990REMMET065METAR EDDC 261250Z 07010KT 9999 SCT040 SCT066 10/M01 Q1015 NOSIG=
0172104880999992014032613204+51133+013767FM-15+023099999V0200601N00511015241CN009999199+00901+00001999999ADDGA1041+012801991GA2041+015241991GE19MSL   +99999+99999GF199999041990012801991991MA1101501999990REMMET065METAR EDDC 261320Z 06010KT 9999 SCT042 SCT050 09/M00 Q1015 NOSIG=
0172104880999992014032613504+51133+013767FM-15+023099999V0200801N00461012801CN009999199+01001+00001999999ADDGA1021+006401991GA2041+012801991GE19MSL   +99999+99999GF199999021990006401991991MA1101501999990REMMET065METAR EDDC 261350Z 08009KT 9999 FEW021 SCT042 10/M00 Q1015 NOSIG=
0171104880999992014032614204+51133+013767FM-15+023099999V0200801N00511017681CN009999199+01001+00101999999ADDGA1041+012191991GA2041+017681991GE19MSL   +99999+99999GF199999041990012191991991MA1101501999990REMMET064METAR EDDC 261420Z 08010KT 9999 SCT040 SCT058 10/01 Q1015 NOSIG=
0152104880999992014032614504+51133+013767FM-15+023099999V0200901N005710121919N009999199+01001-00101999999ADDGA1071+012191081GE19MSL   +99999+99999GF199999071990012191991991MA1101501999990REMMET061METAR EDDC 261450Z 09011KT 9999 BKN040TCU 10/M01 Q1015 NOSIG=
0151104880999992014032615204+51133+013767FM-15+023099999V0200701N005110121919N009999199+00901+00001999999ADDGA1071+012191081GE19MSL   +99999+99999GF199999071990012191991991MA1101501999990REMMET060METAR EDDC 261520Z 07010KT 9999 BKN040TCU 09/00 Q1015 NOSIG=
0149104880999992014032615504+51133+013767FM-15+023099999V0200801N005719999999N009999199+00901+00001999999ADDGA1041+012191991GE19MSL   +99999+99999GF199999041990012191991991MA1101601999990REMMET058METAR EDDC 261550Z 08011KT 9999 SCT040 09/M00 Q1016 NOSIG=
0171104880999992014032616204+51133+013767FM-15+023099999V0200701N00511079251CN009999199+00901+00101999999ADDGA1021+012191991GA2041+079251991GE19MSL   +99999+99999GF199999021990012191991991MA1101601999990REMMET064METAR EDDC 261620Z 07010KT 9999 FEW040 SCT260 09/01 Q1016 NOSIG=
0171104880999992014032616504+51133+013767FM-15+023099999V0200701N00411091441CN009999199+00901+00101999999ADDGA1021+012191991GA2041+091441991GE19MSL   +99999+99999GF199999021990012191991991MA1101601999990REMMET064METAR EDDC 261650Z 07008KT 9999 FEW040 SCT300 09/01 Q1016 NOSIG=
0171104880999992014032617204+51133+013767FM-15+023099999V0200601N00461091441CN009999199+00801+00101999999ADDGA1021+012191991GA2041+091441991GE19MSL   +99999+99999GF199999021990012191991991MA1101601999990REMMET064METAR EDDC 261720Z 06009KT 9999 FEW040 SCT300 08/01 Q1016 NOSIG=
0148104880999992014032617504+51133+013767FM-15+023099999V0200701N005119999999N009999199+00701+00101999999ADDGA1041+012191991GE19MSL   +99999+99999GF199999041990012191991991MA1101601999990REMMET057METAR EDDC 261750Z 07010KT 9999 SCT040 07/01 Q1016 NOSIG=
0171104880999992014032618204+51133+013767FM-15+023099999V0200701N00511027431CN009999199+00701+00101999999ADDGA1021+012191991GA2041+027431991GE19MSL   +99999+99999GF199999021990012191991991MA1101701999990REMMET064METAR EDDC 261820Z 07010KT 9999 FEW040 SCT090 07/01 Q1017 NOSIG=
0078104880999992014032618504+51133+013767FM-15+023099999V0200801N005119999999Y999999999+00701+00101999999ADDMA1101701999990REMMET051METAR EDDC 261850Z 08010KT CAVOK 07/01 Q1017 NOSIG=
0078104880999992014032619204+51133+013767FM-15+023099999V0200801N005119999999Y999999999+00701+00101999999ADDMA1101701999990REMMET051METAR EDDC 261920Z 08010KT CAVOK 07/01 Q1017 NOSIG=
0078104880999992014032619504+51133+013767FM-15+023099999V0200801N005719999999Y999999999+00601+00101999999ADDMA1101701999990REMMET051METAR EDDC 261950Z 08011KT CAVOK 06/01 Q1017 NOSIG=
0078104880999992014032620204+51133+013767FM-15+023099999V0200801N005119999999Y999999999+00601+00101999999ADDMA1101701999990REMMET051METAR EDDC 262020Z 08010KT CAVOK 06/01 Q1017 NOSIG=
0078104880999992014032620504+51133+013767FM-15+023099999V0200801N004619999999Y999999999+00601+00101999999ADDMA1101701999990REMMET051METAR EDDC 262050Z 08009KT CAVOK 06/01 Q1017 NOSIG=
0072104880999992014032621204+51133+013767FM-15+023099999V0200801N004119999999Y999999999+00501+00101999999ADDMA1101801999990REMMET045METAR EDDC 262120Z 08008KT CAVOK 05/01 Q1018=
0072104880999992014032621504+51133+013767FM-15+023099999V0200901N002619999999Y999999999+00501+00101999999ADDMA1101801999990REMMET045METAR EDDC 262150Z 09005KT CAVOK 05/01 Q1018=
0072104880999992014032622204+51133+013767FM-15+023099999V0200701N002619999999Y999999999+00501+00101999999ADDMA1101801999990REMMET045METAR EDDC 262220Z 07005KT CAVOK 05/01 Q1018=
0072104880999992014032622504+51133+013767FM-15+023099999V0200701N003119999999Y999999999+00401+00101999999ADDMA1101701999990REMMET045METAR EDDC 262250Z 07006KT CAVOK 04/01 Q1017=
0101104880999992014032623204+51133+013767FM-15+023099999V0200701N003612200019N009000199+00401+00101999999ADDGF100991999999999999999999MA1101701999990REMMET048METAR EDDC 262320Z 07007KT 9000 NSC 04/01 Q1017=
0072104880999992014032623504+51133+013767FM-15+023099999V0200801N004119999999Y999999999+00401+00101999999ADDMA1101701999990REMMET045METAR EDDC 262350Z 08008KT CAVOK 04/01 Q1017=
0072104880999992014032700204+51133+013767FM-15+023099999V0200701N004119999999Y999999999+00301+00101999999ADDMA1101701999990REMMET045METAR EDDC 270020Z 07008KT CAVOK 03/01 Q1017=
0072104880999992014032700504+51133+013767FM-15+023099999V0200901N003619999999Y999999999+00301+00101999999ADDMA1101701999990REMMET045METAR EDDC 270050Z 09007KT CAVOK 03/01 Q1017=
0072104880999992014032701204+51133+013767FM-15+023099999V0200801N003119999999Y999999999+00301+00101999999ADDMA1101701999990REMMET045METAR EDDC 270120Z 08006KT CAVOK 03/01 Q1017=
0072104880999992014032701504+51133+013767FM-15+023099999V0200801N004119999999Y999999999+00301+00101999999ADDMA1101701999990REMMET045METAR EDDC 270150Z 08008KT CAVOK 03/01 Q1017=
0072104880999992014032702204+51133+013767FM-15+023099999V0200801N004119999999Y999999999+00301+00101999999ADDMA1101601999990REMMET045METAR EDDC 270220Z 08008KT CAVOK 03/01 Q1016=
0072104880999992014032702504+51133+013767FM-15+023099999V0201001N002619999999Y999999999+00201+00101999999ADDMA1101601999990REMMET045METAR EDDC 270250Z 10005KT CAVOK 02/01 Q1016=
0072104880999992014032703204+51133+013767FM-15+023099999V0200801N004619999999Y999999999+00201+00101999999ADDMA1101601999990REMMET045METAR EDDC 270320Z 08009KT CAVOK 02/01 Q1016=
0072104880999992014032703504+51133+013767FM-15+023099999V0200801N003619999999Y999999999+00201+00101999999ADDMA1101601999990REMMET045METAR EDDC 270350Z 08007KT CAVOK 02/01 Q1016=
0101104880999992014032704204+51133+013767FM-15+023099999V0200901N003112200019N008000199+00101+00001999999ADDGF100991999999999999999999MA1101601999990REMMET048METAR EDDC 270420Z 09006KT 8000 NSC 01/00 Q1016=
0115104880999992014032704504+51133+013767FM-15+023099999V0200801N005112200019N006000199+00201+00101999999ADDGF100991999999999999999999MA1101601999990REMMET062METAR EDDC 270450Z 08010KT 6000 NSC 02/01 Q1016 TEMPO 3000 BR=
0115104880999992014032705204+51133+013767FM-15+023099999V0200901N004612200019N006000199+00201+00101999999ADDGF100991999999999999999999MA1101601999990REMMET062METAR EDDC 270520Z 09009KT 6000 NSC 02/01 Q1016 TEMPO 3000 BR=
0115104880999992014032705504+51133+013767FM-15+023099999V0201001N003112200019N006000199+00201+00101999999ADDGF100991999999999999999999MA1101701999990REMMET062METAR EDDC 270550Z 10006KT 6000 NSC 02/01 Q1017 TEMPO 3000 BR=
0107104880999992014032706204+51133+013767FM-15+023099999V0200801N004112200019N008000199+00301+00101999999ADDGF100991999999999999999999MA1101701999990REMMET054METAR EDDC 270620Z 08008KT 8000 NSC 03/01 Q1017 NOSIG=
0107104880999992014032706504+51133+013767FM-15+023099999V0201001N003112200019N009000199+00401+00101999999ADDGF100991999999999999999999MA1101701999990REMMET054METAR EDDC 270650Z 10006KT 9000 NSC 04/01 Q1017 NOSIG=
0107104880999992014032707204+51133+013767FM-15+023099999V0200801N004112200019N009000199+00501+00201999999ADDGF100991999999999999999999MA1101701999990REMMET054METAR EDDC 270720Z 08008KT 9000 NSC 05/02 Q1017 NOSIG=
0078104880999992014032707504+51133+013767FM-15+023099999V0200701N004619999999Y999999999+00601+00201999999ADDMA1101601999990REMMET051METAR EDDC 270750Z 07009KT CAVOK 06/02 Q1016 NOSIG=
0078104880999992014032708204+51133+013767FM-15+023099999V0200701N004619999999Y999999999+00701+00201999999ADDMA1101601999990REMMET051METAR EDDC 270820Z 07009KT CAVOK 07/02 Q1016 NOSIG=
0078104880999992014032708504+51133+013767FM-15+023099999V0200901N006219999999Y999999999+00801+00101999999ADDMA1101601999990REMMET051METAR EDDC 270850Z 09012KT CAVOK 08/01 Q1016 NOSIG=
0078104880999992014032709204+51133+013767FM-15+023099999V0200801N006219999999Y999999999+00901+00201999999ADDMA1101601999990REMMET051METAR EDDC 270920Z 08012KT CAVOK 09/02 Q1016 NOSIG=
0148104880999992014032709504+51133+013767FM-15+023099999V0200801N005119999999N009999199+00901+00201999999ADDGA1021+010061991GE19MSL   +99999+99999GF199999021990010061991991MA1101601999990REMMET057METAR EDDC 270950Z 08010KT 9999 FEW033 09/02 Q1016 NOSIG=
0148104880999992014032710204+51133+013767FM-15+023099999V0200901N005719999999N009999199+01001+00101999999ADDGA1021+010061991GE19MSL   +99999+99999GF199999021990010061991991MA1101601999990REMMET057METAR EDDC 271020Z 09011KT 9999 FEW033 10/01 Q1016 NOSIG=
0148104880999992014032710504+51133+013767FM-15+023099999V0200801N005719999999N009999199+01101+00201999999ADDGA1021+010671991GE19MSL   +99999+99999GF199999021990010671991991MA1101501999990REMMET057METAR EDDC 271050Z 08011KT 9999 FEW035 11/02 Q1015 NOSIG=
0148104880999992014032711204+51133+013767FM-15+023099999V0200801N006219999999N009999199+01201+00201999999ADDGA1021+012191991GE19MSL   +99999+99999GF199999021990012191991991MA1101501999990REMMET057METAR EDDC 271120Z 08012KT 9999 FEW040 12/02 Q1015 NOSIG=
0148104880999992014032711504+51133+013767FM-15+023099999V0200701N006219999999N009999199+01101+00101999999ADDGA1021+012191991GE19MSL   +99999+99999GF199999021990012191991991MA1101501999990REMMET057METAR EDDC 271150Z 07012KT 9999 FEW040 11/01 Q1015 NOSIG=
0149104880999992014032712204+51133+013767FM-15+023099999V0200601N006219999999N009999199+01201+00001999999ADDGA1021+012191991GE19MSL   +99999+99999GF199999021990012191991991MA1101501999990REMMET058METAR EDDC 271220Z 06012KT 9999 FEW040 12/M00 Q1015 NOSIG=
0148104880999992014032712504+51133+013767FM-15+023099999V0200601N007719999999N009999199+01201+00101999999ADDGA1021+013721991GE19MSL   +99999+99999GF199999021990013721991991MA1101401999990REMMET057METAR EDDC 271250Z 06015KT 9999 FEW045 12/01 Q1014 NOSIG=
0148104880999992014032713204+51133+013767FM-15+023099999V0200601N007219999999N009999199+01201+00101999999ADDGA1021+013721991GE19MSL   +99999+99999GF199999021990013721991991MA1101401999990REMMET057METAR EDDC 271320Z 06014KT 9999 FEW045 12/01 Q1014 NOSIG=
0148104880999992014032713504+51133+013767FM-15+023099999V0200601N008219999999N009999199+01201+00201999999ADDGA1021+013721991GE19MSL   +99999+99999GF199999021990013721991991MA1101401999990REMMET057METAR EDDC 271350Z 06016KT 9999 FEW045 12/02 Q1014 NOSIG=
0148104880999992014032714204+51133+013767FM-15+023099999V0200601N008219999999N009999199+01201+00101999999ADDGA1021+013721991GE19MSL   +99999+99999GF199999021990013721991991MA1101401999990REMMET057METAR EDDC 271420Z 06016KT 9999 FEW045 12/01 Q1014 NOSIG=
0148104880999992014032714504+51133+013767FM-15+023099999V0200701N007219999999N009999199+01201+00001999999ADDGA1021+013721991GE19MSL   +99999+99999GF199999021990013721991991MA1101401999990REMMET057METAR EDDC 271450Z 07014KT 9999 FEW045 12/00 Q1014 NOSIG=
0149104880999992014032715204+51133+013767FM-15+023099999V0200801N008219999999N009999199+01201+00001999999ADDGA1021+013721991GE19MSL   +99999+99999GF199999021990013721991991MA1101401999990REMMET058METAR EDDC 271520Z 08016KT 9999 FEW045 12/M00 Q1014 NOSIG=
0148104880999992014032715504+51133+013767FM-15+023099999V0200701N006219999999N009999199+01201+00101999999ADDGA1021+013721991GE19MSL   +99999+99999GF199999021990013721991991MA1101401999990REMMET057METAR EDDC 271550Z 07012KT 9999 FEW045 12/01 Q1014 NOSIG=
0148104880999992014032716204+51133+013767FM-15+023099999V0200701N006719999999N009999199+01101+00101999999ADDGA1021+013721991GE19MSL   +99999+99999GF199999021990013721991991MA1101401999990REMMET057METAR EDDC 271620Z 07013KT 9999 FEW045 11/01 Q1014 NOSIG=
0078104880999992014032716504+51133+013767FM-15+023099999V0200701N005719999999Y999999999+01101+00101999999ADDMA1101401999990REMMET051METAR EDDC 271650Z 07011KT CAVOK 11/01 Q1014 NOSIG=
0078104880999992014032717204+51133+013767FM-15+023099999V0200701N006219999999Y999999999+01001+00101999999ADDMA1101401999990REMMET051METAR EDDC 271720Z 07012KT CAVOK 10/01 Q1014 NOSIG=
0078104880999992014032717504+51133+013767FM-15+023099999V0200701N006719999999Y999999999+00901+00101999999ADDMA1101501999990REMMET051METAR EDDC 271750Z 07013KT CAVOK 09/01 Q1015 NOSIG=
0078104880999992014032718204+51133+013767FM-15+023099999V0200701N006219999999Y999999999+00901+00101999999ADDMA1101501999990REMMET051METAR EDDC 271820Z 07012KT CAVOK 09/01 Q1015 NOSIG=
0078104880999992014032718504+51133+013767FM-15+023099999V0200801N006219999999Y999999999+00901+00101999999ADDMA1101501999990REMMET051METAR EDDC 271850Z 08012KT CAVOK 09/01 Q1015 NOSIG=
0078104880999992014032719204+51133+013767FM-15+023099999V0200701N006719999999Y999999999+00801+00101999999ADDMA1101501999990REMMET051METAR EDDC 271920Z 07013KT CAVOK 08/01 Q1015 NOSIG=
0078104880999992014032719504+51133+013767FM-15+023099999V0200701N006219999999Y999999999+00801+00101999999ADDMA1101601999990REMMET051METAR EDDC 271950Z 07012KT CAVOK 08/01 Q1016 NOSIG=
0078104880999992014032720204+51133+013767FM-15+023099999V0200701N004619999999Y999999999+00801+00101999999ADDMA1101601999990REMMET051METAR EDDC 272020Z 07009KT CAVOK 08/01 Q1016 NOSIG=
0078104880999992014032720504+51133+013767FM-15+023099999V0200701N003119999999Y999999999+00701+00101999999ADDMA1101601999990REMMET051METAR EDDC 272050Z 07006KT CAVOK 07/01 Q1016 NOSIG=
0072104880999992014032721204+51133+013767FM-15+023099999V0200701N003119999999Y999999999+00701+00201999999ADDMA1101601999990REMMET045METAR EDDC 272120Z 07006KT CAVOK 07/02 Q1016=
0072104880999992014032721504+51133+013767FM-15+023099999V0200701N002619999999Y999999999+00601+00101999999ADDMA1101701999990REMMET045METAR EDDC 272150Z 07005KT CAVOK 06/01 Q1017=
0072104880999992014032722204+51133+013767FM-15+023099999V0201001N003119999999Y999999999+00501+00101999999ADDMA1101701999990REMMET045METAR EDDC 272220Z 10006KT CAVOK 05/01 Q1017=
0072104880999992014032722504+51133+013767FM-15+023099999V0200901N003119999999Y999999999+00501+00201999999ADDMA1101701999990REMMET045METAR EDDC 272250Z 09006KT CAVOK 05/02 Q1017=
0072104880999992014032723204+51133+013767FM-15+023099999V0200901N001519999999Y999999999+00501+00201999999ADDMA1101701999990REMMET045METAR EDDC 272320Z 09003KT CAVOK 05/02 Q1017=
0072104880999992014032723504+51133+013767FM-15+023099999V0201101N002119999999Y999999999+00501+00101999999ADDMA1101701999990REMMET045METAR EDDC 272350Z 11004KT CAVOK 05/01 Q1017=
0072104880999992014032800204+51133+013767FM-15+023099999V0201001N002619999999Y999999999+00501+00201999999ADDMA1101701999990REMMET045METAR EDDC 280020Z 10005KT CAVOK 05/02 Q1017=
0072104880999992014032800504+51133+013767FM-15+023099999V0201201N002119999999Y999999999+00401+00201999999ADDMA1101701999990REMMET045METAR EDDC 280050Z 12004KT CAVOK 04/02 Q1017=
0072104880999992014032801204+51133+013767FM-15+023099999V0200801N000519999999Y999999999+00401+00101999999ADDMA1101701999990REMMET045METAR EDDC 280120Z 08001KT CAVOK 04/01 Q1017=
0072104880999992014032801504+51133+013767FM-15+023099999V0200701N002619999999Y999999999+00401+00201999999ADDMA1101701999990REMMET045METAR EDDC 280150Z 07005KT CAVOK 04/02 Q1017=
0072104880999992014032802204+51133+013767FM-15+023099999V0200601N002619999999Y999999999+00301+00101999999ADDMA1101701999990REMMET045METAR EDDC 280220Z 06005KT CAVOK 03/01 Q1017=
0072104880999992014032802504+51133+013767FM-15+023099999V0200501N002119999999Y999999999+00301+00201999999ADDMA1101701999990REMMET045METAR EDDC 280250Z 05004KT CAVOK 03/02 Q1017=
0072104880999992014032803204+51133+013767FM-15+023099999V0200501N001519999999Y999999999+00301+00201999999ADDMA1101701999990REMMET045METAR EDDC 280320Z 05003KT CAVOK 03/02 Q1017=
0101104880999992014032803504+51133+013767FM-15+023099999V0200501N001512200019N008000199+00301+00201999999ADDGF100991999999999999999999MA1101701999990REMMET048METAR EDDC 280350Z 05003KT 8000 NSC 03/02 Q1017=
0101104880999992014032804204+51133+013767FM-15+023099999V0200301N001512200019N006000199+00301+00201999999ADDGF100991999999999999999999MA1101801999990REMMET048METAR EDDC 280420Z 03003KT 6000 NSC 03/02 Q1018=
0141104880999992014032804504+51133+013767FM-15+023099999V0200401N002112200019N004500199+00301+00201999999ADDGF100991999999999999999999MA1101801999990MW1101REMMET082METAR COR EDDC 280450Z 04004KT 4500 BR NSC 03/02 Q1018 TEMPO 2000 -DZ      BKN008=
0116104880999992014032805204+51133+013767FM-15+023099999V0200401N002612200019N004000199+00301+00201999999ADDGF100991999999999999999999MA1101801999990MW1101REMMET057METAR EDDC 280520Z 04005KT 4000 BR NSC 03/02 Q1018 NOSIG=
0116104880999992014032805504+51133+013767FM-15+023099999V0200401N002112200019N003600199+00301+00301999999ADDGF100991999999999999999999MA1101801999990MW1101REMMET057METAR EDDC 280550Z 04004KT 3600 BR NSC 03/03 Q1018 NOSIG=
0180104880999992014032806204+51133+013767FM-15+023099999V0200501N003610176819N003600199+00401+00301999999ADDGA1021+001521991GA2071+017681991GE19MSL   +99999+99999GF199999021990001521991991MA1101801999990MW1101REMMET067METAR EDDC 280620Z 05007KT 3600 BR FEW005 BKN058 04/03 Q1018 NOSIG=
0192104880999992014032806504+51133+013767FM-15+023099999V0200301N002110012219N004000199+00401+00401999999ADDGA1071+001221991GA2071+012801991GE19MSL   +99999+99999GF199999071990001221991991MA1101901999990MW1101REMMET079METAR EDDC 280650Z 03004KT 4000 BR BKN004 BKN042 04/04 Q1019 TEMPO      BKN005=
0164104880999992014032807204+51133+013767FM-15+023099999V0200301N001510012219N003500199+00501+00401999999ADDGA1071+001221991GE19MSL   +99999+99999GF199999071990001221991991MA1101901999990MW1101REMMET067METAR EDDC 280720Z 03003KT 3500 BR BKN004 05/04 Q1019 TEMPO BKN005=
0164104880999992014032807504+51133+013767FM-15+023099999V0200101N001510009119N003200199+00501+00401999999ADDGA1071+000911991GE19MSL   +99999+99999GF199999071990000911991991MA1101901999990MW1101REMMET067METAR EDDC 280750Z 01003KT 3200 BR BKN003 05/04 Q1019 TEMPO BKN005=
0202104880999992014032808204+51133+013767FM-15+023099999V0200401N003110015219N003200199+00501+00401999999ADDGA1041+000911991GA2071+001521991GE19MSL   +99999+99999GF199999041990000911991991MA1101901999990MW1101MW2611REMMET083METAR EDDC 280820Z 04006KT 3200 -RA BR SCT003 BKN005 05/04 Q1019 TEMPO      BKN004=
0192104880999992014032808504+51133+013767FM-15+023099999V0200401N002610021319N003200199+00501+00501999999ADDGA1041+001221991GA2071+002131991GE19MSL   +99999+99999GF199999041990001221991991MA1101901999990MW1101REMMET079METAR EDDC 280850Z 04005KT 3200 BR SCT004 BKN007 05/05 Q1019 TEMPO      BKN004=
0192104880999992014032809204+51133+013767FM-15+023099999V0200501N003110021319N003200199+00601+00501999999ADDGA1041+000911991GA2071+002131991GE19MSL   +99999+99999GF199999041990000911991991MA1102001999990MW1101REMMET079METAR EDDC 280920Z 05006KT 3200 BR SCT003 BKN007 06/05 Q1020 TEMPO      BKN004=
0197104880999992014032809504+51133+013767FM-15+023099999V0200401N003110009119N002600199+00601+00501999999ADDGA1071+000911991GA2071+001831991GE19MSL   +99999+99999GF199999071990000911991991MA1101901999990MW1101REMMET084METAR EDDC 280950Z 04006KT 2600 BR BKN003 BKN006 06/05 Q1019 TEMPO      3000 BKN005=
0204104880999992014032810204+51133+013767FM-15+023099999V0200601N004110015219N004000199+00701+00501999999ADDGA1071+001521991GA2071+002441991GE19MSL   +99999+99999GF199999071990001521991991MA1102001999990MW1101REMMET091METAR EDDC 281020Z 06008KT 4000 BR BKN005 BKN008 07/05 Q1020 BECMG      5000 SCT005 BKN008=
0192104880999992014032810504+51133+013767FM-15+023099999V0200501N003610030519N005000199+00701+00501999999ADDGA1041+002131991GA2071+003051991GE19MSL   +99999+99999GF199999041990002131991991MA1102001999990MW1101REMMET079METAR EDDC 281050Z 05007KT 5000 BR SCT007 BKN010 07/05 Q1020 BECMG      BKN015=
0178104880999992014032811204+51133+013767FM-15+023099999V0200601N003610033519N006000199+00701+00501999999ADDGA1021+002441991GA2071+003351991GE19MSL   +99999+99999GF199999021990002441991991MA1102001999990REMMET071METAR EDDC 281120Z 06007KT 6000 FEW008 BKN011 07/05 Q1020 BECMG BKN015=
0171104880999992014032811504+51133+013767FM-15+023099999V0200601N004610073219N008000199+00801+00601999999ADDGA1041+003961991GA2071+007321991GE19MSL   +99999+99999GF199999041990003961991991MA1102001999990REMMET064METAR EDDC 281150Z 06009KT 8000 SCT013 BKN024 08/06 Q1020 NOSIG=
0171104880999992014032812204+51133+013767FM-15+023099999V0200501N005110731519N009000199+00901+00601999999ADDGA1041+004271991GA2071+073151991GE19MSL   +99999+99999GF199999041990004271991991MA1102001999990REMMET064METAR EDDC 281220Z 05010KT 9000 SCT014 BKN240 09/06 Q1020 NOSIG=
0171104880999992014032812504+51133+013767FM-15+023099999V0200601N005110057919N009999199+00901+00601999999ADDGA1021+004571991GA2071+005791991GE19MSL   +99999+99999GF199999021990004571991991MA1102001999990REMMET064METAR EDDC 281250Z 06010KT 9999 FEW015 BKN019 09/06 Q1020 NOSIG=
0171104880999992014032813204+51133+013767FM-15+023099999V0200601N005110067119N009999199+01001+00501999999ADDGA1021+005491991GA2071+006711991GE19MSL   +99999+99999GF199999021990005491991991MA1102001999990REMMET064METAR EDDC 281320Z 06010KT 9999 FEW018 BKN022 10/05 Q1020 NOSIG=
0148104880999992014032813504+51133+013767FM-15+023099999V0200701N005110070119N009999199+01001+00501999999ADDGA1071+007011991GE19MSL   +99999+99999GF199999071990007011991991MA1102001999990REMMET057METAR EDDC 281350Z 07010KT 9999 BKN023 10/05 Q1020 NOSIG=
0171104880999992014032814204+51133+013767FM-15+023099999V0200501N00571007011CN009999199+01001+00601999999ADDGA1021+005791991GA2041+007011991GE19MSL   +99999+99999GF199999021990005791991991MA1102001999990REMMET064METAR EDDC 281420Z 05011KT 9999 FEW019 SCT023 10/06 Q1020 NOSIG=
0171104880999992014032814504+51133+013767FM-15+023099999V0200601N00461007011CN009999199+01001+00601999999ADDGA1021+005791991GA2041+007011991GE19MSL   +99999+99999GF199999021990005791991991MA1102001999990REMMET064METAR EDDC 281450Z 06009KT 9999 FEW019 SCT023 10/06 Q1020 NOSIG=
0171104880999992014032815204+51133+013767FM-15+023099999V0200901N003610121919N009999199+01001+00501999999ADDGA1021+006711991GA2071+012191991GE19MSL   +99999+99999GF199999021990006711991991MA1102001999990REMMET064METAR EDDC 281520Z 09007KT 9999 FEW022 BKN040 10/05 Q1020 NOSIG=
0171104880999992014032815504+51133+013767FM-15+023099999V0200601N00461011891CN009999199+01001+00501999999ADDGA1021+006711991GA2041+011891991GE19MSL   +99999+99999GF199999021990006711991991MA1102001999990REMMET064METAR EDDC 281550Z 06009KT 9999 FEW022 SCT039 10/05 Q1020 NOSIG=
0148104880999992014032816204+51133+013767FM-15+023099999V0200601N003619999999N009999199+01001+00601999999ADDGA1021+011581991GE19MSL   +99999+99999GF199999021990011581991991MA1102001999990REMMET057METAR EDDC 281620Z 06007KT 9999 FEW038 10/06 Q1020 NOSIG=
0148104880999992014032816504+51133+013767FM-15+023099999V0200601N003619999999N009999199+00901+00601999999ADDGA1021+011891991GE19MSL   +99999+99999GF199999021990011891991991MA1102001999990REMMET057METAR EDDC 281650Z 06007KT 9999 FEW039 09/06 Q1020 NOSIG=
0148104880999992014032817204+51133+013767FM-15+023099999V0200501N003619999999N009999199+00801+00501999999ADDGA1021+011891991GE19MSL   +99999+99999GF199999021990011891991991MA1102001999990REMMET057METAR EDDC 281720Z 05007KT 9999 FEW039 08/05 Q1020 NOSIG=
0148104880999992014032817504+51133+013767FM-15+023099999V0200501N003119999999N009999199+00801+00501999999ADDGA1021+012191991GE19MSL   +99999+99999GF199999021990012191991991MA1102101999990REMMET057METAR EDDC 281750Z 05006KT 9999 FEW040 08/05 Q1021 NOSIG=
0148104880999992014032818204+51133+013767FM-15+023099999V0200501N003619999999N009999199+00801+00501999999ADDGA1021+009751991GE19MSL   +99999+99999GF199999021990009751991991MA1102101999990REMMET057METAR EDDC 281820Z 05007KT 9999 FEW032 08/05 Q1021 NOSIG=
0148104880999992014032818504+51133+013767FM-15+023099999V0200501N003619999999N009999199+00701+00501999999ADDGA1021+009751991GE19MSL   +99999+99999GF199999021990009751991991MA1102101999990REMMET057METAR EDDC 281850Z 05007KT 9999 FEW032 07/05 Q1021 NOSIG=
0107104880999992014032819204+51133+013767FM-15+023099999V0200601N003612200019N008000199+00701+00501999999ADDGF100991999999999999999999MA1102101999990REMMET054METAR EDDC 281920Z 06007KT 8000 NSC 07/05 Q1021 NOSIG=
0107104880999992014032819504+51133+013767FM-15+023099999V0200901N002612200019N007000199+00601+00501999999ADDGF100991999999999999999999MA1102201999990REMMET054METAR EDDC 281950Z 09005KT 7000 NSC 06/05 Q1022 NOSIG=
0115104880999992014032820204+51133+013767FM-15+023099999V0201001N001512200019N006000199+00601+00501999999ADDGF100991999999999999999999MA1102201999990REMMET062METAR EDDC 282020Z 10003KT 6000 NSC 06/05 Q1022 BECMG 3500 BR=
0142104880999992014032820504+51133+013767FM-15+023099999V0200901N001512200019N004500199+00601+00501999999ADDGF100991999999999999999999MA1102201999990MW1101MW2121REMMET077METAR EDDC 282050Z 09003KT 4500 MIFG BR NSC 06/05 Q1022 BECMG 2500      BCFG=
0121104880999992014032821204+51133+013767FM-15+023099999V0201101N001512200019N004500199+00601+00501999999ADDGF100991999999999999999999MA1102201999990MW1101MW2121REMMET056METAR EDDC 282120Z 11003KT 4500 MIFG BR NSC 06/05 Q1022=
0132104880999992014032821504+51133+013767FM-15+023099999V0201001N002612200019N002800199+00501+00501999999ADDGF100991999999999999999999MA1102201999990MW1101MW2111MW3121REMMET061METAR EDDC 282150Z 10005KT 2800 PRFG MIFG BR NSC 05/05 Q1022=
0155104880999992014032822204+51133+013767FM-15+023099999V0200901N003112200019N002800199+00501+00401999999ADDGF100991999999999999999999MA1102201999990MW1101MW2111MW3121REMMET084METAR EDDC 282220Z 09006KT 2800 1400NE R04/P2000N PRFG MIFG BR NSC      05/04 Q1022=
0161104880999992014032822504+51133+013767FM-15+023099999V0200701N003119999999N000500199+00501+00501999999ADDGA1021+000301991GE19MSL   +99999+99999GF199999021990000301991991MA1102301999990MW1441REMMET064METAR EDDC 282250Z 07006KT 0500 R04/0450N FG FEW001 05/05 Q1023=
0161104880999992014032823204+51133+013767FM-15+023099999V0200901N002610003019N000300199+00401+00401999999ADDGA1071+000301991GE19MSL   +99999+99999GF199999071990000301991991MA1102301999990MW1441REMMET064METAR EDDC 282320Z 09005KT 0300 R04/0350N FG BKN001 04/04 Q1023=
0161104880999992014032823504+51133+013767FM-15+023099999V0200901N002619999999N000400199+00301+00301999999ADDGA1021+000301991GE19MSL   +99999+99999GF199999021990000301991991MA1102301999990MW1441REMMET064METAR EDDC 282350Z 09005KT 0400 R04/0325N FG FEW001 03/03 Q1023=
0161104880999992014032900204+51133+013767FM-15+023099999V0209999V001019999999N000200199+00301+00301999999ADDGA1021+000301991GE19MSL   +99999+99999GF199999021990000301991991MA1102301999990MW1441REMMET064METAR EDDC 290020Z VRB02KT 0200 R04/0275N FG FEW001 03/03 Q1023=
0122104880999992014032900504+51133+013767FM-15+023099999V0200801N002619999999N000150199+00301+00301999999ADDGF109991999999999999999999MA1102301999990MW1441REMMET063METAR EDDC 290050Z 08005KT 0150 R04/0300N FG VV/// 03/03 Q1023=
0122104880999992014032901204+51133+013767FM-15+023099999V0201001N001519999999N000150199+00301+00301999999ADDGF109991999999999999999999MA1102301999990MW1441REMMET063METAR EDDC 290120Z 10003KT 0150 R04/0300N FG VV/// 03/03 Q1023=
0122104880999992014032901504+51133+013767FM-15+023099999V0209999V000519999999N000150199+00301+00301999999ADDGF109991999999999999999999MA1102301999990MW1441REMMET063METAR EDDC 290150Z VRB01KT 0150 R04/0325N FG VV/// 03/03 Q1023=
0122104880999992014032902204+51133+013767FM-15+023099999V0200601N000519999999N000150199+00201+00201999999ADDGF109991999999999999999999MA1102301999990MW1441REMMET063METAR EDDC 290220Z 06001KT 0150 R04/0325N FG VV/// 02/02 Q1023=
0127104880999992014032902504+51133+013767FM-15+023099999V0201201N001519999999N000150199+00201+00201999999ADDGF109991999999999999999999MA1102301999990MW1441REMMET068METAR EDDC 290250Z 12003KT 0150 R04/0325V0450N FG VV/// 02/02 Q1023=
0122104880999992014032903204+51133+013767FM-15+023099999V0201601N001019999999N000150199+00201+00201999999ADDGF109991999999999999999999MA1102301999990MW1441REMMET063METAR EDDC 290320Z 16002KT 0150 R04/0400N FG VV/// 02/02 Q1023=
0122104880999992014032903504+51133+013767FM-15+023099999V0201501N002119999999N000150199+00201+00201999999ADDGF109991999999999999999999MA1102301999990MW1441REMMET063METAR EDDC 290350Z 15004KT 0150 R04/0375N FG VV/// 02/02 Q1023=
0122104880999992014032904204+51133+013767FM-15+023099999V0201501N001019999999N000150199+00101+00101999999ADDGF109991999999999999999999MA1102301999990MW1441REMMET063METAR EDDC 290420Z 15002KT 0150 R22/0500N FG VV/// 01/01 Q1023=
0128104880999992014032904504+51133+013767FM-15+023099999V0201901N002119999999N000100199+00101+00101999999ADDGF109991999999999999999999MA1102301999990MW1441REMMET069METAR EDDC 290450Z 19004KT 0100 R22/0450N FG VV/// 01/01 Q1023 NOSIG=
0128104880999992014032905204+51133+013767FM-15+023099999V0201401N001019999999N000050199+00201+00201999999ADDGF109991999999999999999999MA1102301999990MW1441REMMET069METAR EDDC 290520Z 14002KT 0050 R22/0275N FG VV/// 02/02 Q1023 NOSIG=
0128104880999992014032905504+51133+013767FM-15+023099999V0201201N001019999999N000050199+00201+00201999999ADDGF109991999999999999999999MA1102301999990MW1441REMMET069METAR EDDC 290550Z 12002KT 0050 R22/0250N FG VV/// 02/02 Q1023 NOSIG=
0144104880999992014032906204+51133+013767FM-15+023099999V0209999V001012200019N000050199+00201+00201999999ADDGF100991999999999999999999MA1102401999990MW1441REMMET085METAR EDDC 290620Z VRB02KT 0050 R22/0300V0500N FG NSC 02/02 Q1024 BECMG      0500 FG=
0139104880999992014032906504+51133+013767FM-15+023099999V0202001N001512200019N000100199+00301+00301999999ADDGF100991999999999999999999MA1102401999990MW1441REMMET080METAR EDDC 290650Z 20003KT 0100 R22/0650N FG NSC 03/03 Q1024 BECMG      0500 FG=
0144104880999992014032907204+51133+013767FM-15+023099999V0209999V001012200019N000150199+00401+00401999999ADDGF100991999999999999999999MA1102401999990MW1441REMMET085METAR EDDC 290720Z VRB02KT 0150 R22/0700V1200U FG NSC 04/04 Q1024 BECMG      0500 FG=
0140104880999992014032907504+51133+013767FM-15+023099999V0209999V000512200019N000500199+00501+00501999999ADDGF100991999999999999999999MA1102401999990MW1441REMMET081METAR EDDC 290750Z VRB01KT 0500 R22/P2000N FG NSC 05/05 Q1024 BECMG      1000 BR=
0124104880999992014032908204+51133+013767FM-15+023099999V0203101N001512200019N002000199+00601+00601999999ADDGF100991999999999999999999MA1102401999990MW1101REMMET065METAR EDDC 290820Z 31003KT 2000 BR NSC 06/06 Q1024 BECMG 5000 BR=
0116104880999992014032908504+51133+013767FM-15+023099999V0203601N001512200019N005000199+00701+00701999999ADDGF100991999999999999999999MA1102401999990MW1101REMMET057METAR EDDC 290850Z 36003KT 5000 BR NSC 07/07 Q1024 NOSIG=
0107104880999992014032909204+51133+013767FM-15+023099999V0200201N001512200019N006000199+00801+00801999999ADDGF100991999999999999999999MA1102401999990REMMET054METAR EDDC 290920Z 02003KT 6000 NSC 08/08 Q1024 NOSIG=
0107104880999992014032909504+51133+013767FM-15+023099999V0209999V001012200019N006000199+01001+01001999999ADDGF100991999999999999999999MA1102401999990REMMET054METAR EDDC 290950Z VRB02KT 6000 NSC 10/10 Q1024 NOSIG=
0148104880999992014032910204+51133+013767FM-15+023099999V0203501N002119999999N007000199+01201+00901999999ADDGA1021+003961991GE19MSL   +99999+99999GF199999021990003961991991MA1102301999990REMMET057METAR EDDC 291020Z 35004KT 7000 FEW013 12/09 Q1023 NOSIG=
0156104880999992014032910504+51133+013767FM-15+023099999V0200201V002619999999N008000199+01401+00901999999ADDGA1021+006101991GE19MSL   +99999+99999GF199999021990006101991991MA1102301999990REMMET065METAR EDDC 291050Z 02005KT 350V050 8000 FEW020 14/09 Q1023 NOSIG=
0156104880999992014032911204+51133+013767FM-15+023099999V0200401V002619999999N008000199+01501+00801999999ADDGA1021+007011991GE19MSL   +99999+99999GF199999021990007011991991MA1102301999990REMMET065METAR EDDC 291120Z 04005KT 010V080 8000 FEW023 15/08 Q1023 NOSIG=
0148104880999992014032911504+51133+013767FM-15+023099999V0200701N003119999999N009999199+01601+00801999999ADDGA1021+009141991GE19MSL   +99999+99999GF199999021990009141991991MA1102301999990REMMET057METAR EDDC 291150Z 07006KT 9999 FEW030 16/08 Q1023 NOSIG=
0148104880999992014032912204+51133+013767FM-15+023099999V0200701N003619999999N009999199+01701+00701999999ADDGA1021+012191991GE19MSL   +99999+99999GF199999021990012191991991MA1102301999990REMMET057METAR EDDC 291220Z 07007KT 9999 FEW040 17/07 Q1023 NOSIG=
0148104880999992014032912504+51133+013767FM-15+023099999V0200501N005119999999N009999199+01701+00701999999ADDGA1021+012191991GE19MSL   +99999+99999GF199999021990012191991991MA1102201999990REMMET057METAR EDDC 291250Z 05010KT 9999 FEW040 17/07 Q1022 NOSIG=
0148104880999992014032913204+51133+013767FM-15+023099999V0200601N006219999999N009999199+01701+00501999999ADDGA1021+012191991GE19MSL   +99999+99999GF199999021990012191991991MA1102201999990REMMET057METAR EDDC 291320Z 06012KT 9999 FEW040 17/05 Q1022 NOSIG=
0078104880999992014032913504+51133+013767FM-15+023099999V0200601N006719999999Y999999999+01701+00601999999ADDMA1102201999990REMMET051METAR EDDC 291350Z 06013KT CAVOK 17/06 Q1022 NOSIG=
0078104880999992014032914204+51133+013767FM-15+023099999V0200701N005719999999Y999999999+01701+00701999999ADDMA1102201999990REMMET051METAR EDDC 291420Z 07011KT CAVOK 17/07 Q1022 NOSIG=
0107104880999992014032914504+51133+013767FM-15+023099999V0200601N006212200019N008000199+01601+00801999999ADDGF100991999999999999999999MA1102101999990REMMET054METAR EDDC 291450Z 06012KT 8000 NSC 16/08 Q1021 NOSIG=
0107104880999992014032915204+51133+013767FM-15+023099999V0200601N006712200019N007000199+01601+00901999999ADDGF100991999999999999999999MA1102101999990REMMET054METAR EDDC 291520Z 06013KT 7000 NSC 16/09 Q1021 NOSIG=
0107104880999992014032915504+51133+013767FM-15+023099999V0200601N006212200019N007000199+01601+00701999999ADDGF100991999999999999999999MA1102101999990REMMET054METAR EDDC 291550Z 06012KT 7000 NSC 16/07 Q1021 NOSIG=
0107104880999992014032916204+51133+013767FM-15+023099999V0200701N005712200019N007000199+01501+00801999999ADDGF100991999999999999999999MA1102101999990REMMET054METAR EDDC 291620Z 07011KT 7000 NSC 15/08 Q1021 NOSIG=
0107104880999992014032916504+51133+013767FM-15+023099999V0200701N005112200019N008000199+01501+00801999999ADDGF100991999999999999999999MA1102101999990REMMET054METAR EDDC 291650Z 07010KT 8000 NSC 15/08 Q1021 NOSIG=
0107104880999992014032917204+51133+013767FM-15+023099999V0200601N003612200019N007000199+01401+00801999999ADDGF100991999999999999999999MA1102101999990REMMET054METAR EDDC 291720Z 06007KT 7000 NSC 14/08 Q1021 NOSIG=
0107104880999992014032917504+51133+013767FM-15+023099999V0200801N003612200019N007000199+01301+00801999999ADDGF100991999999999999999999MA1102101999990REMMET054METAR EDDC 291750Z 08007KT 7000 NSC 13/08 Q1021 NOSIG=
0107104880999992014032918204+51133+013767FM-15+023099999V0200901N004612200019N008000199+01301+00801999999ADDGF100991999999999999999999MA1102101999990REMMET054METAR EDDC 291820Z 09009KT 8000 NSC 13/08 Q1021 NOSIG=
0107104880999992014032918504+51133+013767FM-15+023099999V0200901N005112200019N008000199+01301+00801999999ADDGF100991999999999999999999MA1102101999990REMMET054METAR EDDC 291850Z 09010KT 8000 NSC 13/08 Q1021 NOSIG=
0107104880999992014032919204+51133+013767FM-15+023099999V0200901N004112200019N009000199+01201+00701999999ADDGF100991999999999999999999MA1102101999990REMMET054METAR EDDC 291920Z 09008KT 9000 NSC 12/07 Q1021 NOSIG=
0107104880999992014032919504+51133+013767FM-15+023099999V0200901N004112200019N009000199+01201+00801999999ADDGF100991999999999999999999MA1102101999990REMMET054METAR EDDC 291950Z 09008KT 9000 NSC 12/08 Q1021 NOSIG=
0107104880999992014032920204+51133+013767FM-15+023099999V0200901N004112200019N008000199+01101+00801999999ADDGF100991999999999999999999MA1102001999990REMMET054METAR EDDC 292020Z 09008KT 8000 NSC 11/08 Q1020 NOSIG=
0107104880999992014032920504+51133+013767FM-15+023099999V0201601N002112200019N006000199+01001+00701999999ADDGF100991999999999999999999MA1102001999990REMMET054METAR EDDC 292050Z 16004KT 6000 NSC 10/07 Q1020 NOSIG=
0101104880999992014032921204+51133+013767FM-15+023099999V0201701N001512200019N006000199+01001+00801999999ADDGF100991999999999999999999MA1102001999990REMMET048METAR EDDC 292120Z 17003KT 6000 NSC 10/08 Q1020=
0101104880999992014032921504+51133+013767FM-15+023099999V0201201N003612200019N006000199+01001+00801999999ADDGF100991999999999999999999MA1102001999990REMMET048METAR EDDC 292150Z 12007KT 6000 NSC 10/08 Q1020=
0110104880999992014032922204+51133+013767FM-15+023099999V0201301N003112200019N005000199+00901+00701999999ADDGF100991999999999999999999MA1102001999990MW1101REMMET051METAR EDDC 292220Z 13006KT 5000 BR NSC 09/07 Q1020=
0110104880999992014032922504+51133+013767FM-15+023099999V0201101N003112200019N005000199+00901+00801999999ADDGF100991999999999999999999MA1102001999990MW1101REMMET051METAR EDDC 292250Z 11006KT 5000 BR NSC 09/08 Q1020=
0110104880999992014032923204+51133+013767FM-15+023099999V0201401N003112200019N005000199+00901+00701999999ADDGF100991999999999999999999MA1102001999990MW1101REMMET051METAR EDDC 292320Z 14006KT 5000 BR NSC 09/07 Q1020=
0110104880999992014032923504+51133+013767FM-15+023099999V0201301N003112200019N005000199+00901+00701999999ADDGF100991999999999999999999MA1101901999990MW1101REMMET051METAR EDDC 292350Z 13006KT 5000 BR NSC 09/07 Q1019=
0110104880999992014033000204+51133+013767FM-15+023099999V0201401N003612200019N005000199+00901+00701999999ADDGF100991999999999999999999MA1101901999990MW1101REMMET051METAR EDDC 300020Z 14007KT 5000 BR NSC 09/07 Q1019=
0110104880999992014033000504+51133+013767FM-15+023099999V0201501N003112200019N005000199+00801+00601999999ADDGF100991999999999999999999MA1101901999990MW1101REMMET051METAR EDDC 300050Z 15006KT 5000 BR NSC 08/06 Q1019=
0110104880999992014033001204+51133+013767FM-15+023099999V0201401N003612200019N005000199+00801+00601999999ADDGF100991999999999999999999MA1101901999990MW1101REMMET051METAR EDDC 300120Z 14007KT 5000 BR NSC 08/06 Q1019=
0110104880999992014033001504+51133+013767FM-15+023099999V0201401N003612200019N005000199+00901+00601999999ADDGF100991999999999999999999MA1101901999990MW1101REMMET051METAR EDDC 300150Z 14007KT 5000 BR NSC 09/06 Q1019=
0110104880999992014033002204+51133+013767FM-15+023099999V0201401N003612200019N005000199+00801+00501999999ADDGF100991999999999999999999MA1101901999990MW1101REMMET051METAR EDDC 300220Z 14007KT 5000 BR NSC 08/05 Q1019=
0101104880999992014033002504+51133+013767FM-15+023099999V0201401N004112200019N008000199+00901+00501999999ADDGF100991999999999999999999MA1101901999990REMMET048METAR EDDC 300250Z 14008KT 8000 NSC 09/05 Q1019=
0101104880999992014033003204+51133+013767FM-15+023099999V0201401N004612200019N009000199+00801+00401999999ADDGF100991999999999999999999MA1101801999990REMMET048METAR EDDC 300320Z 14009KT 9000 NSC 08/04 Q1018=
0107104880999992014033003504+51133+013767FM-15+023099999V0201601N004112200019N009000199+00801+00401999999ADDGF100991999999999999999999MA1101801999990REMMET054METAR EDDC 300350Z 16008KT 9000 NSC 08/04 Q1018 NOSIG=
