0147108600999992012010113504+48717+011533FM-16+0365ETSI V0202501N003610096019N0112651N1+01101+00901999999ADDGA1021+004501999GA2071+009601999GF107991999999999999999999MA1101691999999REMMET062SPECI ETSI 011350Z 25007KT 9999 FEW015 BKN032 11/09 Q1017 BLU;
0170108600999992012010114204+48717+011533FM-15+0365ETSI V0202401N00211010501CN0112651N1+01101+00901999999ADDGA1021+004501999GA2041+010501999GA3071+018001999GF107991999999999999999999MA1101691999999REMMET069METAR ETSI 011420Z 24004KT 9999 FEW015 SCT035 BKN060 11/09 Q1017 BLU;
0147108600999992012010205204+48717+011533FM-15+0365ETSI V0201401N001010420019N0112651N1+00301+00301999999ADDGA1021+039001999GA2081+042001999GF108991999999999999999999MA1101081999999REMMET062METAR ETSI 020520Z 14002KT 9999 FEW130 OVC140 03/03 Q1011 BLU;
0170108600999992012010217204+48717+011533FM-15+0365ETSI V0202901N005110120019N0112651N1+00801+00501999999ADDGA1021+006001999GA2071+012001999GA3071+021001999GF107991999999999999999999MA1101491999999REMMET069METAR ETSI 021720Z 29010KT 9999 FEW020 BKN040 BKN070 08/05 Q1015 BLU;
0147108600999992012010218204+48717+011533FM-15+0365ETSI V0202801N005110150019N0112651N1+00801+00501999999ADDGA1021+007501999GA2071+015001999GF107991999999999999999999MA1101591999999REMMET062METAR ETSI 021820Z 28010KT 9999 FEW025 BKN050 08/05 Q1016 BLU;
0158108600999992012010507204+48717+011533FM-15+0365ETSI V0202501N010810090019N0112651N1+00601+00201999999ADDGA1021+003001999GA2071+009001999GF107991999999999999999999MA1100001999999OC101801REMMET065METAR ETSI 050720Z 25021G35KT 9999 FEW010 BKN030 06/02 Q1000 BLU;
0168108600999992012010508204+48717+011533FM-15+0365ETSI V0202501N011310060019N0112651N1+00501+00201999999ADDGA1021+003001999GA2071+006001999GF107991999999999999999999MA1099901999999MW1611OC101901REMMET069METAR ETSI 050820Z 25022G37KT 9999 -RA FEW010 BKN020 05/02 Q0999 WHT;
0168108600999992012010509204+48717+011533FM-15+0365ETSI V0202601N011810060019N0112651N1+00601+00301999999ADDGA1021+003001999GA2071+006001999GF107991999999999999999999MA1099701999999MW1611OC101901REMMET069METAR ETSI 050920Z 26023G37KT 9999 -RA FEW010 BKN020 06/03 Q0997 WHT;
0147108600999992012010516204+48717+011533FM-15+0365ETSI V0202501N007710060019N0112651N1+00201+00101999999ADDGA1041+004501999GA2081+006001999GF108991999999999999999999MA1099291999999REMMET062METAR ETSI 051620Z 25015KT 9999 SCT015 OVC020 02/01 Q0993 WHT;
0158108600999992012010606054+48717+011533FM-16+0365ETSI V0202801N007710060019N0040001N1+00101+00001999999ADDGA1041+003001999GA2081+006001999GF108991999999999999999999MA1100611999999MW1711REMMET067SPECI ETSI 060605Z 28015KT 4000 -SN SCT010 OVC020 01/M00 Q1006 GRN;
0147108600999992012010606204+48717+011533FM-15+0365ETSI V0202801N007210048019N0112651N1+00101+00001999999ADDGA1021+003001999GA2081+004801999GF108991999999999999999999MA1100611999999REMMET062METAR ETSI 060620Z 28014KT 9999 FEW010 OVC016 01/00 Q1006 WHT;
0151108600999992012010612524+48717+011533FM-16+0365ETSI V0203101N007710030019N0050001N1+00201+00101999999ADDGA1071+003001021GF107991999999999999999999MA1101291999999MW1841OC101341REMMET068SPECI ETSI 061252Z 31015G26KT 5000 SHRASN BKN010TCU 02/01 Q1013 GRN;
0172108600999992012010613004+48717+011533FM-15+0365ETSI V0203201N006212200019N0112651N1+00201+00101999999ADDGA1021+001201021GA2041+004201999GF104991999999999999999999MA1101291999999MW1831REMMET081SPECI ETSI 061259Z 32012KT 9999 -SHRASN FEW004TCU SCT014 02/01 Q1013 RERASN BLU/;
0171108600999992012010613204+48717+011533FM-15+0365ETSI V0203101N005710060019N0112651N1+00301+00201999999ADDGA1021+003001021GA2071+006001999GF107991999999999999999999MA1101291999999MW1831REMMET080METAR ETSI 061320Z 31011KT 9999 -SHRASN FEW010TCU BKN020 03/02 Q1013 RERASN WHT;
0162108600999992012010614204+48717+011533FM-15+0365ETSI V0203101N005112200019N0112651N1+00401+00101999999ADDGA1021+003001021GA2041+007201999GF104991999999999999999999MA1101491999999MW1161REMMET071METAR ETSI 061420Z 31010KT 9999 VCSH FEW010TCU SCT024 04/01 Q1015 BLU/;
0148108600999992012010615204+48717+011533FM-15+0365ETSI V0203201N003112200019N0112651N1+00301+00101999999ADDGA1021+004501999GA2041+006601999GF104991999999999999999999MA1101591999999REMMET063METAR ETSI 061520Z 32006KT 9999 FEW015 SCT022 03/01 Q1016 BLU/;
0148108600999992012010707044+48717+011533FM-16+0365ETSI V0202501N004610057019N0112651N1+00201+00001999999ADDGA1071+005701999GA2071+021001999GF107991999999999999999999MA1102101999999REMMET063SPECI ETSI 070704Z 25009KT 9999 BKN019 BKN070 02/M00 Q1021 WHT;
0171108600999992012010707204+48717+011533FM-15+0365ETSI V0202501N005710135019N0112651N1+00201+00001999999ADDGA1041+005701999GA2071+013501999GA3071+021001999GF107991999999999999999999MA1102001999999REMMET070METAR ETSI 070720Z 25011KT 9999 SCT019 BKN045 BKN070 02/M00 Q1020 BLU;
0164108600999992012010717004+48717+011533FM-16+0365ETSI V0202601N008210030019N0080001N1+00301+00201999999ADDGA1021+001201999GA2081+003001999GF108991999999999999999999MA1101491999999MW1631MW2731REMMET067SPECI ETSI 071700Z 26016KT 8000 RASN FEW004 OVC010 03/02 Q1015 GRN;
0164108600999992012010717204+48717+011533FM-15+0365ETSI V0202501N006210045019N0080001N1+00301+00201999999ADDGA1041+002101999GA2071+004501999GF107991999999999999999999MA1101491999999MW1631MW2731REMMET067METAR ETSI 071720Z 25012KT 8000 RASN SCT007 BKN015 03/02 Q1015 WHT;
0148108600999992012010804034+48717+011533FM-16+0365ETSI V0202601N005112200019N0112651N1+00201+00101999999ADDGA1021+004501999GA2041+012001999GF104991999999999999999999MA1101801999999REMMET063SPECI ETSI 080403Z 26010KT 9999 FEW015 SCT040 02/01 Q1018 BLU/;
0147108600999992012010804204+48717+011533FM-15+0365ETSI V0202501N003610054019N0112651N1+00201+00101999999ADDGA1021+004501999GA2071+005401999GF107991999999999999999999MA1101801999999REMMET062METAR ETSI 080420Z 25007KT 9999 FEW015 BKN018 02/01 Q1018 WHT;
0147108600999992012010804444+48717+011533FM-16+0365ETSI V0202501N003110039019N0112651N1+00201+00101999999ADDGA1021+003001999GA2071+003901999GF107991999999999999999999MA1101801999999REMMET062SPECI ETSI 080444Z 25006KT 9999 FEW010 BKN013 02/01 Q1018 GRN;
0147108600999992012010805064+48717+011533FM-16+0365ETSI V0202701N004610054019N0112651N1+00201+00101999999ADDGA1041+004501999GA2071+005401999GF107991999999999999999999MA1101801999999REMMET062SPECI ETSI 080506Z 27009KT 9999 SCT015 BKN018 02/01 Q1018 WHT;
0147108600999992012010805204+48717+011533FM-15+0365ETSI V0202701N004610045019N0112651N1+00201+00101999999ADDGA1041+003601999GA2071+004501999GF107991999999999999999999MA1101801999999REMMET062METAR ETSI 080520Z 27009KT 9999 SCT012 BKN015 02/01 Q1018 WHT;
0147108600999992012010807204+48717+011533FM-15+0365ETSI V0202601N005110045019N0112651N1+00301+00101999999ADDGA1021+003001999GA2071+004501999GF107991999999999999999999MA1101801999999REMMET062METAR ETSI 080720Z 26010KT 9999 FEW010 BKN015 03/01 Q1018 WHT;
0147108600999992012010809474+48717+011533FM-16+0365ETSI V0202701N005710045019N0112651N1+00301+00201999999ADDGA1041+003001999GA2071+004501999GF107991999999999999999999MA1101801999999REMMET062SPECI ETSI 080947Z 27011KT 9999 SCT010 BKN015 03/02 Q1018 WHT;
0157108600999992012010810204+48717+011533FM-15+0365ETSI V0202801N006710030019N0080001N1+00301+00201999999ADDGA1071+003001999GA2071+006001999GF107991999999999999999999MA1101801999999MW1611REMMET066METAR ETSI 081020Z 28013KT 8000 -RA BKN010 BKN020 03/02 Q1018 GRN;
0157108600999992012010811204+48717+011533FM-15+0365ETSI V0202801N006710030019N0080001N1+00301+00201999999ADDGA1071+003001999GA2071+006001999GF107991999999999999999999MA1101691999999MW1611REMMET066METAR ETSI 081120Z 28013KT 8000 -RA BKN010 BKN020 03/02 Q1017 GRN;
0147108600999992012010814334+48717+011533FM-16+0365ETSI V0202801N004610069019N0112651N1+00301+00201999999ADDGA1021+004501999GA2071+006901999GF107991999999999999999999MA1101901999999REMMET062SPECI ETSI 081433Z 28009KT 9999 FEW015 BKN023 03/02 Q1019 WHT;
0170108600999992012010815204+48717+011533FM-15+0365ETSI V0202801N00511006601CN0112651N1+00301+00201999999ADDGA1021+004501999GA2041+006601999GA3071+009001999GF107991999999999999999999MA1101901999999REMMET069METAR ETSI 081520Z 28010KT 9999 FEW015 SCT022 BKN030 03/02 Q1019 BLU;
0157108600999992012010816204+48717+011533FM-15+0365ETSI V0202801N004610036019N0112651N1+00401+00201999999ADDGA1071+003601999GA2071+015001999GF107991999999999999999999MA1101901999999MW1611REMMET066METAR ETSI 081620Z 28009KT 9999 -RA BKN012 BKN050 04/02 Q1019 GRN;
0180108600999992012010816304+48717+011533FM-16+0365ETSI V0202801N004610060019N0112651N1+00301+00201999999ADDGA1041+003601999GA2071+006001999GA3071+015001999GF107991999999999999999999MA1102001999999MW1611REMMET073SPECI ETSI 081630Z 28009KT 9999 -RA SCT012 BKN020 BKN050 03/02 Q1020 WHT;
0147108600999992012010817204+48717+011533FM-15+0365ETSI V0202801N004610150019N0112651N1+00401+00201999999ADDGA1021+004501999GA2071+015001999GF107991999999999999999999MA1102001999999REMMET062METAR ETSI 081720Z 28009KT 9999 FEW015 BKN050 04/02 Q1020 BLU;
0170108600999992012010818004+48717+011533FM-15+0365ETSI V0202801N00511007501CN0112651N1+00401+00201999999ADDGA1021+004501999GA2041+007501999GA3071+013501999GF107991999999999999999999MA1102001999999REMMET069SPECI ETSI 081756Z 28010KT 9999 FEW015 SCT025 BKN045 04/02 Q1020 BLU;
0170108600999992012010904204+48717+011533FM-15+0365ETSI V0202801N00571005401CN0112651N1+00301+00101999999ADDGA1021+001801999GA2041+005401999GA3071+014101999GF107991999999999999999999MA1102511999999REMMET069METAR ETSI 090420Z 28011KT 9999 FEW006 SCT018 BKN047 03/01 Q1025 BLU;
0165108600999992012010905004+48717+011533FM-12+0365ETSI V0202901N00501001201CN0350001N1+00281+00131102761ADDGA1011+001801071GF107991071051001501999999MA1999999098241MD1210131+9999REMSYN082AAXX  09051 10860 43281 72905 10028 20013 39824 40276 52013 875// 333 81706 87647;
0184108600999992012010905204+48717+011533FM-15+0365ETSI V0202601N00511006001CN0112651N1+00301+00101999999ADDGA1021+001801999GA2041+006001999GA3071+013501999GF107991999999999999999999MA1102611999999REMMET083METAR ETSI 090520Z 26010KT 9999 FEW006 SCT020 BKN045 03/01 Q1026 BLU BLU TEMPO WHT;
0202108600999992012010905464+48717+011533FM-16+0365ETSI V0203001N00411003001CN0070001N1+00201+00101999999ADDGA1021+001501999GA2041+003001999GA3071+005401999GF107991999999999999999999MA1102611999999MW1611MW2711REMMET089SPECI ETSI 090546Z 30008KT 7000 -RASN FEW005 SCT010 BKN018 02/01 Q1026 WHT BLU TEMPO WHT;
0161108600999992012010906204+48717+011533FM-15+0365ETSI V0202801N003610150019N0112651N1+00201+00101999999ADDGA1021+002401999GA2071+015001999GF107991999999999999999999MA1102611999999REMMET076METAR ETSI 090620Z 28007KT 9999 FEW008 BKN050 02/01 Q1026 BLU BLU TEMPO WHT;
0257108600999992012010907004+48717+011533FM-12+0365ETSI V0202801N003010150019N0250001N1+00191+00081102891ADDAY121999AY221999GA1011+002401081GA2071+015001061GF107991071081002501999011MA1999999098351MD1210151+9999MW1231REMSYN136AAXX  09071 10860 41375 72803 10019 20008 39835 40289 52015 72322 878/1 333 81808 87650 555 BOT 10013 20021 30031 40046 50063 999 32///;
0161108600999992012010907204+48717+011533FM-15+0365ETSI V0202901N002610150019N0112651N1+00201+00101999999ADDGA1021+004501999GA2071+015001999GF107991999999999999999999MA1102711999999REMMET076METAR ETSI 090720Z 29005KT 9999 FEW015 BKN050 02/01 Q1027 BLU BLU TEMPO WHT;
0165108600999992012010908004+48717+011533FM-12+0365ETSI V0202601N00301009001CN0250001N1+00191+00071102931ADDGA1011+004501081GF107991071081004501999999MA1999999098391MD1210151+9999REMSYN082AAXX  09081 10860 42475 72603 10019 20007 39839 40293 52015 878// 333 81815 87650;
0161108600999992012010908204+48717+011533FM-15+0365ETSI V0202601N003610150019N0112651N1+00301+00201999999ADDGA1021+004501999GA2071+015001999GF107991999999999999999999MA1102711999999REMMET076METAR ETSI 090820Z 26007KT 9999 FEW015 BKN050 03/02 Q1027 BLU BLU TEMPO WHT;
0161108600999992012010909204+48717+011533FM-15+0365ETSI V0202601N005710150019N0112651N1+00301+00201999999ADDGA1021+003601999GA2071+015001999GF107991999999999999999999MA1102811999999REMMET076METAR ETSI 090920Z 26011KT 9999 FEW012 BKN050 03/02 Q1028 BLU BLU TEMPO WHT;
0165108600999992012010910004+48717+011533FM-12+0365ETSI V0202701N00501009001CN0150001N1+00321+00191103031ADDGA1011+003601081GF107991071081004501999999MA1999999098511MD1210161+9999REMSYN082AAXX  09101 10860 42465 72705 10032 20019 39851 40303 52016 878// 333 81812 87650;
0184108600999992012010910204+48717+011533FM-15+0365ETSI V0202701N005710150019N0112651N1+00401+00201999999ADDGA1021+003601999GA2071+015001999GA3071+033001999GF107991999999999999999999MA1102811999999REMMET083METAR ETSI 091020Z 27011KT 9999 FEW012 BKN050 BKN110 04/02 Q1028 BLU BLU TEMPO WHT;
0187108600999992012010911004+48717+011533FM-12+0365ETSI V0202701N005010150019N0200001N1+00361+00201102981ADDGA1031+003601081GA2071+015001061GF108991071081004501031999MA1999999098471MD1010081+9999REMSYN088AAXX  09111 10860 42470 82705 10036 20020 39847 40298 50008 8783/ 333 83812 87650 87361;
0184108600999992012010911204+48717+011533FM-15+0365ETSI V0202601N006210135019N0112651N1+00401+00201999999ADDGA1021+003601999GA2071+013501999GA3071+033001999GF107991999999999999999999MA1102811999999REMMET083METAR ETSI 091120Z 26012KT 9999 FEW012 BKN045 BKN110 04/02 Q1028 BLU BLU TEMPO GRN;
0184108600999992012010912204+48717+011533FM-15+0365ETSI V0202701N006210060019N0112651N1+00401+00201999999ADDGA1021+003901999GA2071+006001999GA3071+015001999GF107991999999999999999999MA1102711999999REMMET083METAR ETSI 091220Z 27012KT 9999 FEW013 BKN020 BKN050 04/02 Q1027 WHT BLU TEMPO GRN;
0193108600999992012010913004+48717+011533FM-12+0365ETSI V0202701N00601009001CN0140001N1+00411+00211102921ADDAY121999AY221999GA1021+003901081GF108991071081004501999999MA1999999098421MD1510091+9999MW1581REMSYN088AAXX  09131 10860 41464 82706 10041 20021 39842 40292 55009 75822 878// 333 82813 87620;
0179108600999992012010913204+48717+011533FM-15+0365ETSI V0202601N005710060019N0090001N1+00401+00201999999ADDGA1021+003901999GA2071+006001999GF107991999999999999999999MA1102711999999MW1511MW2611REMMET082METAR ETSI 091320Z 26011KT 9000 -DZRA FEW013 BKN020 04/02 Q1027 WHT BLU TEMPO GRN;
0273108600999992012010914004+48717+011533FM-12+0365ETSI V0202701N006010045019N0180001N1+00391+00241102901ADDAY161999AY261999GA1021+003901081GA2051+004501061GA3071+009001061GF108991071081004501999999MA1999999098401MD1710071+9999MW1581REMSYN136AAXX  09141 10860 41468 82706 10039 20024 39840 40290 57007 75866 878// 333 82813 85615 87630 555 BOT 10042 20038 30034 40046 999 32///;
0194108600999992012010914124+48717+011533FM-16+0365ETSI V0202601N005110039019N0112651N1+00401+00201999999ADDGA1021+003301999GA2071+003901999GA3071+007501999GF107991999999999999999999MA1102711999999MW1611REMMET087SPECI ETSI 091412Z 26010KT 9999 -RA FEW011 BKN013 BKN025 04/02 Q1027 GRN WHT TEMPO GRN;
0194108600999992012010914204+48717+011533FM-15+0365ETSI V0202601N005110039019N0112651N1+00401+00201999999ADDGA1021+003301999GA2071+003901999GA3071+007501999GF107991999999999999999999MA1102711999999MW1611REMMET087METAR ETSI 091420Z 26010KT 9999 -RA FEW011 BKN013 BKN025 04/02 Q1027 GRN WHT TEMPO GRN;
0192108600999992012010915204+48717+011533FM-15+0365ETSI V0202501N00361003901CN0112651N1+00401+00201999999ADDGA1021+002401999GA2041+003901999GA3071+004801999GF107991999999999999999999MA1102711999999MW1611REMMET085METAR ETSI 091520Z 25007KT 9999 -RA FEW008 SCT013 BKN016 04/02 Q1027 WHT FCST CANCEL;
0193108600999992012010916004+48717+011533FM-12+0365ETSI V0202401N00301009001CN0150001N1+00361+00241102891ADDAY161999AY261999GA1011+003601081GF108991071081004501999999MA1999999098381MD1710041+9999MW1601REMSYN088AAXX  09161 10860 41465 82403 10036 20024 39838 40289 57004 76066 878// 333 81812 87616;
0157108600999992012010916204+48717+011533FM-15+0365ETSI V0202501N003610039019N0090001N1+00401+00301999999ADDGA1021+001501999GA2071+003901999GF107991999999999999999999MA1102711999999MW1611REMMET066METAR ETSI 091620Z 25007KT 9000 -RA FEW005 BKN013 04/03 Q1027 GRN;
0193108600999992012010917004+48717+011533FM-12+0365ETSI V0202601N00401001201CN0080001N1+00361+00271102931ADDAY161999AY261999GA1021+001501071GF108991071051001501999999MA1999999098421MD1310021+9999MW1611REMSYN088AAXX  09171 10860 41258 82604 10036 20027 39842 40293 53002 76166 875// 333 82705 87612;
0157108600999992012010917204+48717+011533FM-15+0365ETSI V0202601N006210027019N0045001N1+00301+00301999999ADDGA1021+001201999GA2071+002701999GF107991999999999999999999MA1102811999999MW1511REMMET066METAR ETSI 091720Z 26012KT 4500 -DZ FEW004 BKN009 03/03 Q1028 GRN;
0157108600999992012010917324+48717+011533FM-16+0365ETSI V0202601N006210018019N0045001N1+00301+00301999999ADDGA1021+001201999GA2071+001801999GF107991999999999999999999MA1102811999999MW1511REMMET066SPECI ETSI 091732Z 26012KT 4500 -DZ FEW004 BKN006 03/03 Q1028 YLO;
0157108600999992012010918004+48717+011533FM-15+0365ETSI V0202601N006210018019N0050001N1+00301+00301999999ADDGA1021+001201999GA2071+001801999GF107991999999999999999999MA1102711999999MW1511REMMET066SPECI ETSI 091757Z 26012KT 5000 -DZ FEW004 BKN006 03/03 Q1027 YLO;
0179108600999992012011004204+48717+011533FM-15+0365ETSI V0202801N005710021019N0070001N1+00401+00401999999ADDGA1021+001201999GA2071+002101999GA3081+003601999GF108991999999999999999999MA1102911999999MW1631REMMET072METAR ETSI 100420Z 28011KT 7000 RA FEW004 BKN007 OVC012 04/04 Q1029 GRN;
0185108600999992012011004534+48717+011533FM-16+0365ETSI V0202701N00771003001CN0090001N1+00501+00401999999ADDGA1021+001201999GA2041+003001999GA3071+004501999GF107991999999999999999999MA1102911999999MW1611REMMET078SPECI ETSI 100453Z 27015KT 9000 -RA FEW004 SCT010 BKN015 05/04 Q1029 RERA WHT;
0207108600999992012011005004+48717+011533FM-12+0365ETSI V0202701N00701001201CN0090001N1+00441+00391103041ADDAY161999GA1011+001201071GA2031+003001061GF108991071051001501999999MA1999999098541MD1310021+9999MW1611REMSYN094AAXX  10051 10860 41259 82707 10044 20039 39854 40304 53002 7616/ 875// 333 81704 83610 87615;
0189108600999992012011005204+48717+011533FM-15+0365ETSI V0202701N00771006001CN0112651N1+00401+00401999999ADDGA1021+001501999GA2041+006001999GA3071+018001999GF107991999999999999999999MA1102911999999REMMET088METAR ETSI 100520Z 27015KT 9999 FEW005 SCT020 BKN060 04/04 Q1029 RERA BLU BLU TEMPO WHT;
0171108600999992012011006204+48717+011533FM-15+0365ETSI V0202701N006210075019N0112651N1+00501+00401999999ADDGA1041+004501999GA2071+007501999GF107991999999999999999999MA1102911999999MW1611REMMET080METAR ETSI 100620Z 27012KT 9999 -RA SCT015 BKN025 05/04 Q1029 BLU BLU TEMPO WHT;
0279108600999992012011007004+48717+011533FM-12+0365ETSI V0203301N006010060019N0070001N1+00431+00341103171ADDAY161999AY221999GA1011+003001081GA2031+004501061GA3071+006001061GF107991071081004501999999MA1999999098661MD1210151+9999MW1631REMSYN142AAXX  10071 10860 41457 73306 10043 20034 39866 40317 52015 76362 878// 333 81810 83615 87620 555 BOT 10037 20038 30039 40047 50062 999 32///;
0166108600999992012011007204+48717+011533FM-15+0365ETSI V0203001N004110105019N0112651N1+00401+00301999999ADDGA1021+004501999GA2071+010501999GF107991999999999999999999MA1103011999999REMMET081METAR ETSI 100720Z 30008KT 9999 FEW015 BKN035 04/03 Q1030 RERA BLU BLU TEMPO WHT;
0193108600999992012011008004+48717+011533FM-12+0365ETSI V0203101N00301012001CN0300001N1+00401+00281103241ADDAY161999AY221999GA1021+006001081GF106991061081008001001001MA1999999098721MD1210181+9999MW1211REMSYN088AAXX  10081 10860 41580 63103 10040 20028 39872 40324 52018 72162 86800 333 82820 86650;
0161108600999992012011008204+48717+011533FM-15+0365ETSI V0203401N001510150019N0112651N1+00401+00301999999ADDGA1021+006001999GA2071+015001999GF107991999999999999999999MA1103121999999REMMET076METAR ETSI 100820Z 34003KT 9999 FEW020 BKN050 04/03 Q1031 BLU BLU TEMPO WHT;
0161108600999992012011009204+48717+011533FM-15+0365ETSI V0203001N003610105019N0112651N1+00501+00401999999ADDGA1021+004501999GA2071+010501999GF107991999999999999999999MA1103181999999REMMET076METAR ETSI 100920Z 30007KT 9999 FEW015 BKN035 05/04 Q1032 BLU BLU TEMPO WHT;
0165108600999992012011010004+48717+011533FM-12+0365ETSI V0203001N00501009001CN0300001N1+00541+00331103351ADDGA1021+004501081GF106991061081004501001001MA1999999098851MD1210191+9999REMSYN082AAXX  10101 10860 42480 63005 10054 20033 39885 40335 52019 86800 333 82815 86635;
0161108600999992012011010204+48717+011533FM-15+0365ETSI V0203101N003610114019N0112651N1+00501+00301999999ADDGA1021+004501999GA2071+011401999GF107991999999999999999999MA1103181999999REMMET076METAR ETSI 101020Z 31007KT 9999 FEW015 BKN038 05/03 Q1032 BLU BLU TEMPO WHT;
0165108600999992012011011004+48717+011533FM-12+0365ETSI V0203001N004010120019N0300001N1+00551+00311103371ADDGA1041+006001081GF107991071081008001999999MA1999999098871MD1210151+9999REMSYN082AAXX  10111 10860 42580 73004 10055 20031 39887 40337 52015 878// 333 84820 85640;
0161108600999992012011011204+48717+011533FM-15+0365ETSI V0203001N003612200019N0112651N1+00701+00401999999ADDGA1021+004501999GA2041+006001999GF104991999999999999999999MA1103181999999REMMET076METAR ETSI 101120Z 30007KT 9999 FEW015 SCT020 07/04 Q1032 BLU/BLU TEMPO WHT;
0161108600999992012011012204+48717+011533FM-15+0365ETSI V0203101N003612200019N0112651N1+00601+00301999999ADDGA1021+004501999GA2041+006001999GF104991999999999999999999MA1103181999999REMMET076METAR ETSI 101220Z 31007KT 9999 FEW015 SCT020 06/03 Q1032 BLU/BLU TEMPO WHT;
0165108600999992012011013004+48717+011533FM-12+0365ETSI V0203101N004010360019N0400001N1+00741+00271103381ADDGA1011+004501081GF106991041081004501031001MA1999999098911MD1210061+9999REMSYN082AAXX  10131 10860 42482 63104 10074 20027 39891 40338 52006 84830 333 81815 83822;
0161108600999992012011013204+48717+011533FM-15+0365ETSI V0203101N003610360019N0112651N1+00601+00201999999ADDGA1041+006601999GA2071+036001999GF107991999999999999999999MA1103291999999REMMET076METAR ETSI 101320Z 31007KT 9999 SCT022 BKN120 06/02 Q1033 BLU BLU TEMPO WHT;
0223108600999992012011014004+48717+011533FM-12+0365ETSI V0203001N004010360019N0400001N1+00651+00261103411ADDGA1031+009001081GA2051+036001031GF107991041081008001031001MA1999999098931MD1210061+9999REMSYN124AAXX  10141 10860 42582 73004 10065 20026 39893 40341 52006 84830 333 83830 85362 555 BOT 10066 20059 30045 40048 999 31///;
0161108600999992012011014204+48717+011533FM-15+0365ETSI V0203001N003110300019N0112651N1+00601+00301999999ADDGA1021+007501999GA2071+030001999GF107991999999999999999999MA1103291999999REMMET076METAR ETSI 101420Z 30006KT 9999 FEW025 BKN100 06/03 Q1033 BLU BLU TEMPO WHT;
0161108600999992012011015204+48717+011533FM-15+0365ETSI V0202801N002610270019N0112651N1+00601+00301999999ADDGA1021+007501999GA2071+027001999GF107991999999999999999999MA1103291999999REMMET076METAR ETSI 101520Z 28005KT 9999 FEW025 BKN090 06/03 Q1033 BLU BLU TEMPO WHT;
0261108600999992012011016004+48717+011533SY-MT+0365ETSI V0202901N003010240019N0350001N1+00581+00301103501ADDGA1021+013501999GA2071+024001999GF107991011051012501031999MA1103291099001MD1210091+9999REMSYN082AAXX  10161 10860 42681 72903 10058 20030 39900 40350 52009 8153/ 333 81645 87358;MET074SPECI ETSI 101600Z 28006KT 9999 FEW045 BKN080 06/03 Q1033 BLU FCST CANCEL;
0147108600999992012011016204+48717+011533FM-15+0365ETSI V0202701N002610240019N0112651N1+00601+00301999999ADDGA1021+013501999GA2071+024001999GF107991999999999999999999MA1103291999999REMMET062METAR ETSI 101620Z 27005KT 9999 FEW045 BKN080 06/03 Q1033 BLU;
0159108600999992012011017004+48717+011533FM-12+0365ETSI V0202601N002010240019N0300001N1+00501+00281103541ADDGA1071+024001031GF107991071001022501031999MA1999999099031MD1210101+9999REMSYN076AAXX  10171 10860 42880 72602 10050 20028 39903 40354 52010 8703/ 333 87358;
0124108600999992012011017204+48717+011533FM-15+0365ETSI V0202301N002110240019N0112651N1+00501+00301999999ADDGA1071+024001999GF107991999999999999999999MA1103391999999REMMET055METAR ETSI 101720Z 23004KT 9999 BKN080 05/03 Q1034 BLU;
0144108600999992012011104204+48717+011533FM-15+0365ETSI V0202301N001512200019N0045001N1+00201+00201999999ADDGA1041+010501999GF104991999999999999999999MA1103291999999MW1101MW2121REMMET063METAR ETSI 110420Z 23003KT 4500 MIFG BR SCT035 02/02 Q1033 GRN;
0179108600999992012011105004+48717+011533FM-12+0365ETSI V0202201N001012200019N0038001N1+00121+00081103551ADDAY111999GA1011+000901071GF101991011061000751001001MA1999999098971MD1710071+9999MW1121REMSYN082AAXX  11051 10860 41138 12201 10012 20008 39897 40355 57007 7121/ 81600 333 81703;
0167108600999992012011105064+48717+011533FM-16+0365ETSI V0202101N001512200019N0035001N1+00101+00101999999ADDGA1021+000901999GA2041+010501999GF104991999999999999999999MA1103291999999MW1101MW2121REMMET070SPECI ETSI 110506Z 21003KT 3500 MIFG BR FEW003 SCT035 01/01 Q1033 YLO;
0181108600999992012011105204+48717+011533FM-15+0365ETSI V0202801N001512200019N0030001N1+00101+00101999999ADDGA1021+000901999GA2041+010501999GF104991999999999999999999MA1103291999999MW1101MW2121REMMET084METAR ETSI 110520Z 28003KT 3000 MIFG BR FEW003 SCT035 01/01 Q1033 YLO YLO BECMG WHT;
0158108600999992012011105474+48717+011533FM-16+0365ETSI V0203101N001510006019N0020001N1+00101+00101999999ADDGA1071+000601999GF107991999999999999999999MA1103291999999MW1101MW2401REMMET077SPECI ETSI 110547Z 31003KT 2000 VCFG BR BKN002 01/01 Q1033 AMB YLO BECMG WHT;
0170108600999992012011106044+48717+011533FM-16+0365ETSI V0202501N001510006019N0012001N1+00101+00101999999ADDED125U28009GA1071+000601999GF107991999999999999999999MA1103291999999MW1411REMMET084SPECI ETSI 110604Z 25003KT 1200 R25/2800D BCFG BKN002 01/01 Q1033 AMB YLO TEMPO RED;
0167108600999992012011106204+48717+011533FM-15+0365ETSI V0202401N001510003019N0004001N1+00101+00101999999ADDED125U29009GA1091+000301999GF109991999999000251999999MA1103291999999MW1451REMMET081METAR ETSI 110620Z 24003KT 0400 R25/2900D FG VV001 01/01 Q1033 RED YLO TEMPO RED;
0229108600999992012011107004+48717+011533FM-12+0365ETSI V0202701N002010003019N0002001N1+00041+00031103561ADDAY141999AY221999GA1091+000301999GF109991091999999999999999MA1999999098971MD1710021+9999MW1471REMSYN124AAXX  11071 10860 41/02 92702 10004 20003 39897 40356 57002 74742 333 89/01 555 BOT 10012 20022 30037 40050 50062 999 31///;
0171108600999992012011107204+48717+011533FM-15+0365ETSI V0202801N002610003019N0002001N1+00001+00001999999ADDED125U05009GA1091+000301999GF109991999999000251999999MA1103291999999MW1491REMMET085METAR ETSI 110720Z 28005KT 0200 R25/0500N FZFG VV001 M00/M00 Q1033 RED RED BECMG YLO;
0193108600999992012011108004+48717+011533FM-12+0365ETSI V0202601N002010003019N0003001N1-00011-00011103631ADDAY141999AY241999GA1061+000301071GF107991071051000251999999MA1999999099031MD1310061+9999MW1421REMSYN088AAXX  11081 10860 41003 72602 11001 21001 39903 40363 53006 74244 875// 333 86701 87630;
0191108600999992012011108024+48717+011533FM-16+0365ETSI V0202301N001010003019N0006001N1+00001+00001999999ADDED125U19009GA1071+000301999GA2071+009001999GF107991999999999999999999MA1103391999999MW1441REMMET089SPECI ETSI 110802Z 23002KT 0600 R25/1900U FG BKN001 BKN030 00/00 Q1034 RED RED BECMG YLO;
0193108600999992012011108204+48717+011533FM-15+0365ETSI V0202401N001510006019N0010001N1+00001+00001999999ADDED125U37009GA1071+000601999GA2071+009601999GF107991999999999999999999MA1103391999999MW1411REMMET091METAR ETSI 110820Z 24003KT 1000 R25/3700U BCFG BKN002 BKN032 00/00 Q1034 AMB AMB BECMG YLO;
0193108600999992012011108444+48717+011533FM-16+0365ETSI V0202701N002610006019N0016001N1+00001+00001999999ADDED125U27009GA1071+000601999GA2071+009001999GF107991999999999999999999MA1103391999999MW1401REMMET091SPECI ETSI 110844Z 27005KT 1600 R25/2700D VCFG BKN002 BKN030 00/00 Q1034 AMB AMB BECMG YLO;
0171108600999992012011109004+48717+011533FM-15+0365ETSI V0202801N002610090019N0030001N1+00001+00001999999ADDGA1041+000901999GA2071+009001999GF107991999999999999999999MA1103391999999MW1101MW2401REMMET074SPECI ETSI 110856Z 28005KT 3000 VCFG BR SCT003 BKN030 00/00 Q1034 YLO YLO;
0170108600999992012011109204+48717+011533FM-15+0365ETSI V0202601N002610090019N0040001N1+00101+00101999999ADDGA1021+000901999GA2071+009001999GF107991999999999999999999MA1103391999999MW1101REMMET079METAR ETSI 110920Z 26005KT 4000 BR FEW003 BKN030 01/01 Q1034 GRN GRN BECMG WHT;
0294108600999992012011110004+48717+011533SY-MT+0365ETSI V0202501N002010096019N0045001N1+00121+00111103681ADDAY161999AY221999GA1021+000901999GA2071+009601999GF107991071051000751999999MA1103391099101MD1210131+9999MW1101REMSYN088AAXX  11101 10860 41145 72502 10012 20011 39910 40368 52013 71062 875// 333 81703 87632;MET079SPECI ETSI 110955Z 25004KT 5000 BR FEW003 BKN032 01/01 Q1034 WHT WHT BECMG BLU;
0161108600999992012011110204+48717+011533FM-15+0365ETSI V0202701N002610096019N0070001N1+00201+00101999999ADDGA1021+000901999GA2071+009601999GF107991999999999999999999MA1103391999999REMMET076METAR ETSI 111020Z 27005KT 7000 FEW003 BKN032 02/01 Q1034 WHT WHT BECMG BLU;
0159108600999992012011111004+48717+011533FM-12+0365ETSI V0202501N003010105019N0080001N1+00201+00101103631ADDGA1071+010501061GF107991071051012501999999MA1999999099061MD1010031+9999REMSYN076AAXX  11111 10860 42658 72503 10020 20010 39906 40363 50003 875// 333 87635;
0128108600999992012011111204+48717+011533FM-15+0365ETSI V0202601N003110105019N0112651N1+00301+00101999999ADDGA1071+010501999GF107991999999999999999999MA1103391999999REMMET059METAR ETSI 111120Z 26006KT 9999 BKN035 03/01 Q1034 BLU BLU;
0128108600999992012011112204+48717+011533FM-15+0365ETSI V0202601N003110114019N0112651N1+00401+00201999999ADDGA1071+011401999GF107991999999999999999999MA1103291999999REMMET059METAR ETSI 111220Z 26006KT 9999 BKN038 04/02 Q1033 BLU BLU;
0165108600999992012011113004+48717+011533FM-12+0365ETSI V0202701N00401007501CN0140001N1+00381+00191103521ADDGA1021+008101061GF107991071051008001999999MA1999999098991MD1710111+9999REMSYN082AAXX  11131 10860 42564 72704 10038 20019 39899 40352 57011 875// 333 82627 87638;
0151108600999992012011113204+48717+011533FM-15+0365ETSI V0202701N003610114019N0112651N1+00401+00201999999ADDGA1021+008101999GA2071+011401999GF107991999999999999999999MA1103291999999REMMET066METAR ETSI 111320Z 27007KT 9999 FEW027 BKN038 04/02 Q1033 BLU BLU;
0223108600999992012011114004+48717+011533FM-12+0365ETSI V0202701N004010120019N0160001N1+00411+00221103531ADDGA1011+008101081GA2071+012001061GF107991071081008001999999MA1999999099001MD1510061+9999REMSYN124AAXX  11141 10860 42566 72704 10041 20022 39900 40353 55006 878// 333 81827 87640 555 BOT 10046 20042 30038 40050 999 31///;
0128108600999992012011114204+48717+011533FM-15+0365ETSI V0202601N004110114019N0112651N1+00401+00201999999ADDGA1071+011401999GF107991999999999999999999MA1103291999999REMMET059METAR ETSI 111420Z 26008KT 9999 BKN038 04/02 Q1033 BLU BLU;
0136108600999992012011115204+48717+011533FM-15+0365ETSI V0202601N002610135019N0112651N1+00401+00301999999ADDGA1071+013501999GF107991999999999999999999MA1103391999999REMMET067METAR ETSI 111520Z 26005KT 9999 BKN045 04/03 Q1034 BLU FCST CANCEL;
0159108600999992012011116004+48717+011533FM-12+0365ETSI V0202701N002010135019N0180001N1+00421+00261103521ADDGA1071+013501061GF107991071051012501999999MA1999999098991MD1010001+9999REMSYN076AAXX  11161 10860 42668 72702 10042 20026 39899 40352 50000 875// 333 87645;
0124108600999992012011116204+48717+011533FM-15+0365ETSI V0202601N002610135019N0112651N1+00401+00301999999ADDGA1071+013501999GF107991999999999999999999MA1103291999999REMMET055METAR ETSI 111620Z 26005KT 9999 BKN045 04/03 Q1033 BLU;
0159108600999992012011117004+48717+011533FM-12+0365ETSI V0202901N002010135019N0180001N1+00431+00271103561ADDGA1071+013501061GF107991071051012501999999MA1999999099031MD1310031+9999REMSYN076AAXX  11171 10860 42668 72902 10043 20027 39903 40356 53003 875// 333 87645;
0124108600999992012011117204+48717+011533FM-15+0365ETSI V0202601N002610129019N0112651N1+00401+00301999999ADDGA1071+012901999GF107991999999999999999999MA1103391999999REMMET055METAR ETSI 111720Z 26005KT 9999 BKN043 04/03 Q1034 BLU;
0124108600999992012011118204+48717+011533FM-15+0365ETSI V0202601N003610120019N0112651N1+00401+00301999999ADDGA1071+012001999GF107991999999999999999999MA1103391999999REMMET055METAR ETSI 111820Z 26007KT 9999 BKN040 04/03 Q1034 BLU;
0124108600999992012011122104+48717+011533FM-16+0365ETSI V0202101N001010129019N0112651N1+00401+00201999999ADDGA1071+012901999GF107991999999999999999999MA1103391999999REMMET055SPECI ETSI 112210Z 21002KT 9999 BKN043 04/02 Q1034 BLU;
0124108600999992012011122204+48717+011533FM-15+0365ETSI V0202301N001010129019N0112651N1+00401+00201999999ADDGA1071+012901999GF107991999999999999999999MA1103391999999REMMET055METAR ETSI 112220Z 23002KT 9999 BKN043 04/02 Q1034 BLU;
0124108600999992012011123204+48717+011533FM-15+0365ETSI V0202001N001010129019N0112651N1+00301+00201999999ADDGA1071+012901999GF107991999999999999999999MA1103291999999REMMET055METAR ETSI 112320Z 20002KT 9999 BKN043 03/02 Q1033 BLU;
0124108600999992012011204204+48717+011533FM-15+0365ETSI V0202101N001010114019N0112651N1+00101+00101999999ADDGA1071+011401999GF107991999999999999999999MA1103011999999REMMET055METAR ETSI 120420Z 21002KT 9999 BKN038 01/01 Q1030 BLU;
0159108600999992012011205004+48717+011533FM-12+0365ETSI V0202401N001010111019N0100001N1+00081+00051103251ADDGA1071+011101061GF107991071051012501999999MA1999999098681MD1710191+9999REMSYN076AAXX  12051 10860 43660 72401 10008 20005 39868 40325 57019 875// 333 87637;
0162108600999992012011205204+48717+011533FM-15+0365ETSI V0202201N001012200019N0060001N1-00101-00101999999ADDGA1021+001201999GF102991999999999999999999MA1103011999999MW1121MW2401REMMET081METAR ETSI 120520Z 22002KT 6000 VCFG MIFG FEW004 M01/M01 Q1030 WHT WHT TEMPO RED;
0183108600999992012011206104+48717+011533FM-16+0365ETSI V0202201N000512200019N0040001N1-00101-00101999999ADDED125U05509GA1021+001201999GF102991999999999999999999MA1102911999999MW1121MW2401REMMET091SPECI ETSI 120610Z 22001KT 4000 R25/0550N VCFG MIFG FEW004 M01/M01 Q1029 GRN WHT TEMPO RED;
0183108600999992012011206204+48717+011533FM-15+0365ETSI V0202501N000512200019N0035001N1-00101-00101999999ADDED125U06009GA1021+001201999GF102991999999999999999999MA1102911999999MW1121MW2401REMMET091METAR ETSI 120620Z 25001KT 3500 R25/0600N VCFG MIFG FEW004 M01/M01 Q1029 YLO WHT TEMPO RED;
0172108600999992012011206264+48717+011533FM-16+0365ETSI V0202601N000512200019N0004001N1-00101-00101999999ADDED125U04509GA1021+001201999GF102991999999999999999999MA1102911999999MW1481REMMET086SPECI ETSI 120626Z 26001KT 0400 R25/0450N FZFG FEW004 M01/M01 Q1029 RED WHT TEMPO RED;
0172108600999992012011206584+48717+011533FM-16+0365ETSI V0202201N001012200019N0008001N1-00201-00201999999ADDED125U09009GA1021+000901999GF102991999999999999999999MA1102911999999MW1481REMMET086SPECI ETSI 120658Z 22002KT 0800 R25/0900U FZFG FEW003 M02/M02 Q1029 AMB WHT TEMPO RED;
0235108600999992012011207004+48717+011533FM-12+0365ETSI V0202301N001012200019N0004001N1-00181-00191103191ADDAY101011AY201011GA1021+000901071GF103991021061000751001011MA1999999098581MD1710141+9999MW1461REMSYN130AAXX  12071 10860 41104 32301 11018 21019 39858 40319 57014 74600 82601 333 82703 555 BOT 10008 20019 30034 40050 50063 999 31///;
0181108600999992012011207074+48717+011533FM-16+0365ETSI V0202001N001012200019N0025001N1-00201-00201999999ADDED125U09009GA1021+001201999GF102991999999999999999999MA1102911999999MW1101MW2411REMMET089SPECI ETSI 120707Z 20002KT 2500 R25/0900U PRFG BR FEW004 M02/M02 Q1029 YLO WHT TEMPO RED;
0160108600999992012011207204+48717+011533FM-15+0365ETSI V0201901N001512200019N0030001N1-00201-00201999999ADDGA1021+012001999GF102991999999999999999999MA1102911999999MW1101MW2411REMMET079METAR ETSI 120720Z 19003KT 3000 PRFG BR FEW040 M02/M02 Q1029 YLO WHT TEMPO RED;
0267108600999992012011208004+48717+011533SY-MT+0365ETSI V0202201N002012200019N0035001N1-00071-00071103121ADDAY101999AY201999GA1021+001201999GF102991011051012501001011MA1102911098531MD1710151+9999MW1101REMSYN082AAXX  12081 10860 41635 22202 11007 21007 39853 40312 57015 71000 81501 333 81640;MET074SPECI ETSI 120800Z 27003KT 3800 BR FEW004 M00/M00 Q1029 GRN WHT TEMPO RED;
0137108600999992012011208204+48717+011533FM-15+0365ETSI V0203101N001012200019N0035001N1+00001+00001999999ADDGA1021+001201999GF102991999999999999999999MA1102911999999MW1101REMMET062METAR ETSI 120820Z 31002KT 3500 BR FEW004 00/00 Q1029 YLO YLO;
0137108600999992012011208314+48717+011533FM-16+0365ETSI V0202801N001012200019N0025001N1+00001+00001999999ADDGA1041+001201999GF104991999999999999999999MA1102811999999MW1101REMMET062SPECI ETSI 120831Z 28002KT 2500 BR SCT004 00/00 Q1028 YLO YLO;
0137108600999992012011208374+48717+011533FM-16+0365ETSI V0202701N000510015019N0025001N1+00101+00101999999ADDGA1071+001501999GF107991999999999999999999MA1102811999999MW1101REMMET062SPECI ETSI 120837Z 27001KT 2500 BR BKN005 01/01 Q1028 YLO YLO;
0137108600999992012011209204+48717+011533FM-15+0365ETSI V0202601N002112200019N0035001N1+00201+00001999999ADDGA1021+001501999GF102991999999999999999999MA1102811999999MW1101REMMET062METAR ETSI 120920Z 26004KT 3500 BR FEW005 02/00 Q1028 YLO YLO;
0160108600999992012011209494+48717+011533FM-16+0365ETSI V0202701N003112200019N0050001N1+00201+00001999999ADDGA1021+001501999GA2041+090001999GF104991999999999999999999MA1102811999999MW1101REMMET069SPECI ETSI 120949Z 27006KT 5000 BR FEW005 SCT300 02/00 Q1028 WHT WHT;
0193108600999992012011210004+48717+011533FM-12+0365ETSI V0202701N003012200019N0050001N1+00211+00021103021ADDAY111999AY211999GA1011+001501071GF103991011061001501001011MA1999999098481MD1710101+9999MW1101REMSYN088AAXX  12101 10860 41250 32703 10021 20002 39848 40302 57010 71011 81601 333 81705 83080;
0162108600999992012011210184+48717+011533FM-16+0365ETSI V0202801N003612200019N0080001N1+00301+00101999999ADDGA1021+001501999GA2041+090001999GF104991999999999999999999MA1102811999999REMMET077SPECI ETSI 121018Z 28007KT 8000 FEW005 SCT300 03/01 Q1028 BLU/BLU/ TEMPO WHT;
0162108600999992012011210204+48717+011533FM-15+0365ETSI V0202801N003612200019N0080001N1+00301+00101999999ADDGA1021+001501999GA2041+090001999GF104991999999999999999999MA1102711999999REMMET077METAR ETSI 121020Z 28007KT 8000 FEW005 SCT300 03/01 Q1027 BLU/BLU/ TEMPO WHT;
0165108600999992012011211004+48717+011533FM-12+0365ETSI V0202701N003012200019N0090001N1+00291+00061102891ADDGA1011+003001081GF103991031081004501001011MA1999999098371MD1710161+9999REMSYN082AAXX  12111 10860 42459 32703 10029 20006 39837 40289 57016 83801 333 81810 83640;
0162108600999992012011211204+48717+011533FM-15+0365ETSI V0202701N004112200019N0090001N1+00301+00101999999ADDGA1021+001501999GA2041+013501999GF104991999999999999999999MA1102611999999REMMET077METAR ETSI 121120Z 27008KT 9000 FEW005 SCT045 03/01 Q1026 BLU/BLU/ TEMPO WHT;
0136108600999992012011211384+48717+011533FM-16+0365ETSI V0202801N00621001801CN0070001N1+00201+00001999999ADDGA1071+001801999GA2041+013501999MA1102611999999REMMET077SPECI ETSI 121138Z 28012KT 7000 BKN006 SCT045 02/00 Q1026 YLO BLU/ TEMPO GRN;
0139108600999992012011212204+48717+011533FM-15+0365ETSI V0202801N004610021019N0090001N1+00201+00001999999ADDGA1071+002101999GF107991999999999999999999MA1102511999999REMMET070METAR ETSI 121220Z 28009KT 9000 BKN007 02/00 Q1025 GRN BLU/ TEMPO GRN;
0139108600999992012011212374+48717+011533FM-16+0365ETSI V0202801N005112200019N0090001N1+00201+00101999999ADDGA1041+002101999GF104991999999999999999999MA1102511999999REMMET070SPECI ETSI 121237Z 28010KT 9000 SCT007 02/01 Q1025 BLU/BLU/ TEMPO GRN;
0159108600999992012011213004+48717+011533FM-12+0365ETSI V0202801N006012200019N0090001N1+00181-00021102701ADDGA1031+002101061GF104991041051002501001011MA1999999098171MD1710311+9999REMSYN076AAXX  12131 10860 42359 42806 10018 21002 39817 40270 57031 84501 333 83607;
0139108600999992012011213204+48717+011533FM-15+0365ETSI V0202601N005110021019N0090001N1+00201+00001999999ADDGA1071+002101999GF107991999999999999999999MA1102401999999REMMET070METAR ETSI 121320Z 26010KT 9000 BKN007 02/00 Q1024 GRN BLU/ TEMPO GRN;
0201108600999992012011214004+48717+011533FM-12+0365ETSI V0202601N005010024019N0100001N1+00171-00011102611ADDGA1061+002401061GF106991061051002501001001MA1999999098081MD1710291+9999REMSYN118AAXX  12141 10860 42360 62605 10017 21001 39808 40261 57029 86500 333 86608 555 BOT 10047 20043 30035 40049 999 31///;
0139108600999992012011214204+48717+011533FM-15+0365ETSI V0202601N004610027019N0112651N1+00201+00001999999ADDGA1071+002701999GF107991999999999999999999MA1102401999999REMMET070METAR ETSI 121420Z 26009KT 9999 BKN009 02/00 Q1024 GRN GRN TEMPO BLU/;
0128108600999992012011215204+48717+011533FM-15+0365ETSI V0202601N005710024019N0112651N1+00201+00001999999ADDGA1071+002401999GF107991999999999999999999MA1102301999999REMMET059METAR ETSI 121520Z 26011KT 9999 BKN008 02/00 Q1023 GRN GRN;
0232108600999992012011216004+48717+011533SY-MT+0365ETSI V0202601N006010021019N0100001N1+00181+00041102521ADDGA1081+002101999GF199999071061002501999999MA1102301098001MD1710171+9999REMSYN076AAXX  12161 10860 42360 72606 10018 20004 39800 40252 57017 876// 333 87707;MET067SPECI ETSI 121600Z 27012KT 6000 OVC007 02/01 Q1023 GRN FCST CANCEL;
0124108600999992012011216204+48717+011533FM-15+0365ETSI V0202601N004610021019N0060001N1+00201+00101999999ADDGA1081+002101999GF108991999999999999999999MA1102301999999REMMET055METAR ETSI 121620Z 26009KT 6000 OVC007 02/01 Q1023 GRN;
0187108600999992012011217004+48717+011533FM-12+0365ETSI V0202501N005010021019N0060001N1+00171+00061102431ADDAY121999AY221999GA1081+002101071GF108991081061002501999999MA1999999097911MD1710171+9999MW1101REMSYN082AAXX  12171 10860 41356 82505 10017 20006 39791 40243 57017 71022 886// 333 88707;
0124108600999992012011217204+48717+011533FM-15+0365ETSI V0202601N005110021019N0070001N1+00201+00101999999ADDGA1081+002101999GF108991999999999999999999MA1102201999999REMMET055METAR ETSI 121720Z 26010KT 7000 OVC007 02/01 Q1022 GRN;
0147108600999992012011217434+48717+011533FM-16+0365ETSI V0202501N005710060019N0080001N1+00201+00001999999ADDGA1041+002101999GA2071+006001999GF107991999999999999999999MA1102201999999REMMET062SPECI ETSI 121743Z 25011KT 8000 SCT007 BKN020 02/00 Q1022 WHT;
0125108600999992012011304204+48717+011533FM-15+0365ETSI V0202901N005112200019N0112651N1+00301+00001999999ADDGA1021+006001999GF102991999999999999999999MA1102301999999REMMET056METAR ETSI 130420Z 29010KT 9999 FEW020 03/00 Q1023 BLU/;
0159108600999992012011305004+48717+011533FM-12+0365ETSI V0202901N005012200019N0200001N1+00271+00011102571ADDGA1011+006001081GF101991011081008001001001MA1999999098061MD1210051+9999REMSYN076AAXX  13051 10860 43570 12905 10027 20001 39806 40257 52005 81800 333 81820;
0129108600999992012011305204+48717+011533FM-15+0365ETSI V0202801N005112200019N0112651N1+00301+00001999999ADDGA1021+006001999GF102991999999999999999999MA1102401999999REMMET060METAR ETSI 130520Z 28010KT 9999 FEW020 03/00 Q1024 BLU/BLU/;
0130108600999992012011306204+48717+011533FM-15+0365ETSI V0202901N004612200019N0112651N1+00201+00001999999ADDGA1021+006001999GF102991999999999999999999MA1102301999999REMMET061METAR ETSI 130620Z 29009KT 9999 FEW020 02/M00 Q1023 BLU/BLU/;
0207108600999992012011307004+48717+011533FM-12+0365ETSI V0202801N004012200019N0200001N1+00191-00051102531ADDGA1011+006001081GF101991011081008001001001MA1999999098011MD1510021+9999REMSYN124AAXX  13071 10860 42570 12804 10019 21005 39801 40253 55002 81800 333 81820 555 BOT 10006 20017 30032 40048 50062 999 31///;
0140108600999992012011307204+48717+011533FM-15+0365ETSI V0202601N003612200019N0112651N1+00101+00001999999ADDGA1021+006001999GF102991999999999999999999MA1102301999999REMMET071METAR ETSI 130720Z 26007KT 9999 FEW020 01/M00 Q1023 BLU/BLU/ TEMPO WHT;
0165108600999992012011308004+48717+011533FM-12+0365ETSI V0202701N005012200019N0300001N1+00181+00011102531ADDGA1011+006001081GF103991011011008001031001MA1999999098011MD1610051+9999REMSYN082AAXX  13081 10860 42580 32705 10018 20001 39801 40253 56005 81130 333 81820 83360;
0161108600999992012011308204+48717+011533FM-15+0365ETSI V0202701N006710300019N0112651N1+00201+00001999999ADDGA1021+006001999GA2071+030001999GF107991999999999999999999MA1102301999999REMMET076METAR ETSI 130820Z 27013KT 9999 FEW020 BKN100 02/00 Q1023 BLU BLU TEMPO WHT;
0173108600999992012011309204+48717+011533FM-15+0365ETSI V0202801N008710300019N0112651N1+00301-00101999999ADDGA1021+006001999GA2071+030001999GF107991999999999999999999MA1102301999999OC101391REMMET080METAR ETSI 130920Z 28017G27KT 9999 FEW020 BKN100 03/M01 Q1023 BLU BLU TEMPO WHT;
0187108600999992012011310004+48717+011533FM-12+0365ETSI V0202801N009010300019N0600001N1+00341-00031102461ADDGA1011+006001081GA2061+030001031GF106991021081008001031001MA1999999097971MD1810041+9999REMSYN088AAXX  13101 10860 42586 62809 10034 21003 39797 40246 58004 82830 333 81820 86360 91114;
0196108600999992012011310204+48717+011533FM-15+0365ETSI V0202801N008210105019N0112651N1+00401+00001999999ADDGA1021+006001999GA2071+010501999GA3071+030001999GF107991999999999999999999MA1102301999999OC101341REMMET087METAR ETSI 131020Z 28016G26KT 9999 FEW020 BKN035 BKN100 04/M00 Q1023 BLU BLU TEMPO WHT;
0187108600999992012011311004+48717+011533FM-12+0365ETSI V0202801N008010090019N0600001N1+00381-00061102431ADDGA1011+007501081GA2071+009001061GF107991071081008001999999MA1999999097941MD1710071+9999REMSYN088AAXX  13111 10860 42586 72808 10038 21006 39794 40243 57007 878// 333 81825 87630 91114;
0185108600999992012011311204+48717+011533FM-15+0365ETSI V0202801N008210105019N0112651N1+00401-00101999999ADDGA1021+007501999GA2071+010501999GA3071+018001999GF107991999999999999999999MA1102201999999REMMET084METAR ETSI 131120Z 28016KT 9999 FEW025 BKN035 BKN065 04/M01 Q1022 BLU BLU TEMPO WHT;
0211108600999992012011312004+48717+011533FM-16+0365ETSI V0202901N007210060019N0050001N1+00301+00001999999ADDGA1041+003601999GA2071+006001999GA3071+012001999GF107991999999999999999999MA1102201999999MW1611MW2711OC101231REMMET090SPECI ETSI 131200Z 29014G24KT 5000 -SNRA SCT012 BKN020 BKN040 03/00 Q1022 WHT FCST CANCEL;
0196108600999992012011312204+48717+011533FM-15+0365ETSI V0202801N00621007501CN0112651N1+00301+00101999999ADDGA1021+003001999GA2021+004501021GA3041+007501999GA4071+013501999GF107991999999999999999999MA1102201999999REMMET079METAR ETSI 131220Z 28012KT 9999 FEW010 FEW015TCU SCT025 BKN045 03/01 Q1022 BLU;
0237108600999992012011313004+48717+011533FM-12+0365ETSI V0202901N006010150019N0050001N1+00251+00071102401ADDAY171999AY221999GA1011+001501081GA2031+004501081GA3051+015001061GF107991071081001501999999MA1999999097891MD1710081+9999MW1851REMSYN100AAXX  13131 10860 41250 72906 10025 20007 39789 40240 57008 78572 878// 333 81805 83815 85650 91113;
0147108600999992012011313204+48717+011533FM-15+0365ETSI V0202901N006710054019N0112651N1+00301+00101999999ADDGA1021+003001999GA2071+005401999GF107991999999999999999999MA1102201999999REMMET062METAR ETSI 131320Z 29013KT 9999 FEW010 BKN018 03/01 Q1022 WHT;
0251108600999992012011314004+48717+011533FM-12+0365ETSI V0202701N008010054019N0120001N1+00261+00081102391ADDAY181999AY221999GA1031+003001081GA2071+005401081GF107991071021004501999999MA1999999097891MD1810051+9999MW1151REMSYN130AAXX  13141 10860 41462 72708 10026 20008 39789 40239 58005 71582 872// 333 83810 87818 555 BOT 10031 20030 30031 40047 999 31///;
0182108600999992012011314204+48717+011533FM-15+0365ETSI V0203001N00721005401CN0112651N1+00301+00001999999ADDGA1021+003001999GA2041+005401999GA3071+015001999GF107991999999999999999999MA1102201999999MW1851REMMET075METAR ETSI 131420Z 30014KT 9999 -SHSN FEW010 SCT018 BKN050 03/00 Q1022 BLU;
0161108600999992012011314314+48717+011533FM-16+0365ETSI V0202801N006210054019N0112651N1+00201+00001999999ADDGA1021+003001999GA2071+005401999GF107991999999999999999999MA1102201999999MW1831REMMET070SPECI ETSI 131431Z 28012KT 9999 -SHRASN FEW010 BKN018 02/00 Q1022 WHT;
0161108600999992012011314574+48717+011533FM-16+0365ETSI V0202901N006710045019N0030001N1+00301+00001999999ADDGA1021+001501999GA2071+004501021GF107991999999999999999999MA1102301999999MW1861REMMET070SPECI ETSI 131457Z 29013KT 3000 SHSN FEW005 BKN015TCU 03/00 Q1023 YLO;
0160108600999992012011315004+48717+011533FM-15+0365ETSI V0203001N006710021019N0009001N1+00301+00001999999ADDED125U50009GA1071+002101021GF107991999999999999999999MA1102301999999MW1861REMMET074SPECI ETSI 131459Z 30013KT 0900 R25/5000D +SHSN BKN007TCU 03/00 Q1023 AMB;
0123108600999992012011315014+48717+011533FM-16+0365ETSI V0203001N007219999999N0004001N1+00201+00001999999ADDED125U46009MA1102301999999MW1861OC101291REMMET071SPECI ETSI 131501Z 30014G25KT 0400 R25/4600D +SHSN VV 02/M00 Q1023 RED;
0177108600999992012011315104+48717+011533FM-16+0365ETSI V0203101N007212200019N0060001N1+00101+00001999999ADDGA1021+000901999GA2041+004501091GF104991999999999999999999MA1102201999999MW1161OC101291REMMET078SPECI ETSI 131510Z 31014G25KT 6000 VCSH FEW003 SCT015CB 01/M00 Q1022 RESN WHT;
0179108600999992012011315204+48717+011533FM-15+0365ETSI V0203001N006212200019N0112651N1+00101+00001999999ADDGA1021+002101999GA2041+004501021GF104991999999999999999999MA1102301999999MW1161OC101131REMMET080METAR ETSI 131520Z 30012G22KT 9999 VCSH FEW007 SCT015TCU 01/M00 Q1023 RESN BLU/;
0168108600999992012011315414+48717+011533FM-16+0365ETSI V0203001N005710060019N0112651N1+00201-00101999999ADDGA1021+002701999GA2071+006001021GF107991999999999999999999MA1102301999999MW1851REMMET077SPECI ETSI 131541Z 30011KT 9999 -SHSN FEW009 BKN020TCU 02/M01 Q1023 RESN WHT;
0215108600999992012011316004+48717+011533FM-12+0365ETSI V0203201N005012200019N0180001N1+00191-00071102521ADDAY181999AY221999GA1011+002701081GA2031+006001081GF104991041081002501001001MA1999999098001MD1310111+9999MW1151REMSYN094AAXX  13161 10860 41368 43205 10019 21007 39800 40252 53011 71582 84800 333 81809 83820 91113;
0175108600999992012011316204+48717+011533FM-15+0365ETSI V0203001N005112200019N0112651N1+00201-00101999999ADDGA1021+003001999GA2021+006001021GA3041+015001999GF104991999999999999999999MA1102301999999REMMET074METAR ETSI 131620Z 30010KT 9999 FEW010 FEW020TCU SCT050 02/M01 Q1023 BLU/;
0165108600999992012011317004+48717+011533FM-12+0365ETSI V0203001N004012200019N0200001N1+00161-00091102591ADDGA1021+006001061GF105991041051008001001011MA1999999098061MD1210171+9999REMSYN082AAXX  13171 10860 42570 53004 10016 21009 39806 40259 52017 84501 333 82620 83650;
0152108600999992012011317204+48717+011533FM-15+0365ETSI V0202801N004112200019N0112651N1+00201-00101999999ADDGA1021+004501021GA2041+009001999GF104991999999999999999999MA1102401999999REMMET067METAR ETSI 131720Z 28008KT 9999 FEW015TCU SCT030 02/M01 Q1024 BLU/;
0125108600999992012011319284+48717+011533FM-16+0365ETSI V0202801N006210180019N0112651N1+00101-00101999999ADDGA1071+018001999GF107991999999999999999999MA1102401999999REMMET056SPECI ETSI 131928Z 28012KT 9999 BKN065 01/M01 Q1024 BLU;
0125108600999992012011320204+48717+011533FM-15+0365ETSI V0202801N007710180019N0112651N1+00201-00101999999ADDGA1071+018001999GF107991999999999999999999MA1102401999999REMMET056METAR ETSI 132020Z 28015KT 9999 BKN060 02/M01 Q1024 BLU;
0125108600999992012011321204+48717+011533FM-15+0365ETSI V0202801N007210180019N0112651N1+00201-00201999999ADDGA1071+018001999GF107991999999999999999999MA1102401999999REMMET056METAR ETSI 132120Z 28014KT 9999 BKN060 02/M02 Q1024 BLU;
0148108600999992012011407104+48717+011533FM-16+0365ETSI V0202801N005710180019N0112651N1+00101-00201999999ADDGA1021+009001999GA2071+018001999GF107991999999999999999999MA1102401999999REMMET063SPECI ETSI 140710Z 28011KT 9999 FEW030 BKN060 01/M02 Q1024 BLU;
0148108600999992012011407204+48717+011533FM-15+0365ETSI V0202701N006210180019N0112651N1+00101-00201999999ADDGA1021+007501999GA2071+018001999GF107991999999999999999999MA1102401999999REMMET063METAR ETSI 140720Z 27012KT 9999 FEW025 BKN060 01/M02 Q1024 BLU;
0126108600999992012011417064+48717+011533FM-16+0365ETSI V0202701N004112200019N0112651N1+00101-00201999999ADDGA1021+060001999GF102991999999999999999999MA1102401999999REMMET057SPECI ETSI 141706Z 27008KT 9999 FEW200 01/M02 Q1024 BLU/;
0126108600999992012011417204+48717+011533FM-15+0365ETSI V0202601N004112200019N0112651N1+00101-00201999999ADDGA1021+060001999GF102991999999999999999999MA1102401999999REMMET057METAR ETSI 141720Z 26008KT 9999 FEW200 01/M02 Q1024 BLU/;
0127108600999992012011505004+48717+011533FM-15+0365ETSI V0202201N001512200019N0112651N1-00401-00401999999ADDGA1021+066001999GF102991999999999999999999MA1102301999999REMMET058SPECI ETSI 150459Z 22003KT 9999 FEW220 M04/M04 Q1023 BLU/;
0127108600999992012011505204+48717+011533FM-15+0365ETSI V0202301N001512200019N0112651N1-00401-00401999999ADDGA1021+066001999GF102991999999999999999999MA1102401999999REMMET058METAR ETSI 150520Z 23003KT 9999 FEW220 M04/M04 Q1024 BLU/;
0126108600999992012011512324+48717+011533FM-16+0365ETSI V0202701N001012200019N0112651N1+00001-00401999999ADDGA1041+005401999GF104991999999999999999999MA1102301999999REMMET057SPECI ETSI 151232Z 27002KT 9999 SCT018 00/M04 Q1023 BLU/;
0149108600999992012011513204+48717+011533FM-15+0365ETSI V0200701N001512200019N0112651N1+00101-00401999999ADDGA1021+006001999GA2041+009001999GF104991999999999999999999MA1102301999999REMMET064METAR ETSI 151320Z 07003KT 9999 FEW020 SCT030 01/M04 Q1023 BLU/;
0127108600999992012011516484+48717+011533FM-16+0365ETSI V0209999C000012200019N0112651N1-00301-00501999999ADDGA1021+009001999GF102991999999999999999999MA1102301999999REMMET058SPECI ETSI 151648Z 00000KT 9999 FEW030 M03/M05 Q1023 BLU/;
0127108600999992012011517204+48717+011533FM-15+0365ETSI V0200401N001012200019N0112651N1-00301-00501999999ADDGA1021+009001999GF102991999999999999999999MA1102301999999REMMET058METAR ETSI 151720Z 04002KT 9999 FEW030 M03/M05 Q1023 BLU/;
0078108600999992012011604204+48717+011533FM-15+0365ETSI V0200901N000512200019N0112651N1-00801-00801999999ADDMA1102401999999REMMET051METAR ETSI 160420Z 09001KT 9999 M08/M08 Q1024 BLU/;
0143108600999992012011605004+48717+011533FM-12+0365ETSI V0200801N001012200019N0200001N1-00841-00901102821ADDGA1001+999999999GF100991001001999999001001MA1999999098111MD1110011+9999REMSYN060AAXX  16051 10860 43970 00801 11084 21090 39811 40282 51001;
0131108600999992012011605204+48717+011533FM-15+0365ETSI V0200801N000512200019N0112651N1-00801-00801999999ADDGA1021+030001999GF102991999999999999999999MA1102401999999REMMET062METAR ETSI 160520Z 08001KT 9999 FEW100 M08/M08 Q1024 BLU/BLU/;
0131108600999992012011606204+48717+011533FM-15+0365ETSI V0200701N001012200019N0112651N1-00801-00801999999ADDGA1021+030001999GF102991999999999999999999MA1102511999999REMMET062METAR ETSI 160620Z 07002KT 9999 FEW100 M08/M08 Q1025 BLU/BLU/;
0207108600999992012011607004+48717+011533FM-12+0365ETSI V0200601N001012200019N0150001N1-00741-00821102891ADDGA1011+030001031GF101991011001999999031001MA1999999098191MD1310081+9999REMSYN124AAXX  16071 10860 42965 10601 11074 21082 39819 40289 53008 81030 333 81360 555 BOT 11033 21006 30011 40037 50059 999 34///;
0131108600999992012011607204+48717+011533FM-15+0365ETSI V0200901N001012200019N0112651N1-00801-00901999999ADDGA1021+030001999GF102991999999999999999999MA1102511999999REMMET062METAR ETSI 160720Z 09002KT 9999 FEW100 M08/M09 Q1025 BLU/BLU/;
0143108600999992012011608004+48717+011533FM-12+0365ETSI V0200701N001012200019N0200001N1-00701-00781102911ADDGA1001+999999999GF100991001001999999001001MA1999999098221MD1210111+9999REMSYN060AAXX  16081 10860 42970 00701 11070 21078 39822 40291 52011;
0082108600999992012011608204+48717+011533FM-15+0365ETSI V0200801N001512200019N0112651N1-00601-00701999999ADDMA1102511999999REMMET055METAR ETSI 160820Z 08003KT 9999 M06/M07 Q1025 BLU/BLU/;
0082108600999992012011609204+48717+011533FM-15+0365ETSI V0200801N002112200019N0112651N1-00401-00601999999ADDMA1102611999999REMMET055METAR ETSI 160920Z 08004KT 9999 M04/M06 Q1026 BLU/BLU/;
0143108600999992012011610004+48717+011533FM-12+0365ETSI V0200701N002012200019N0250001N1-00361-00571102911ADDGA1001+999999999GF100991001001999999001001MA1999999098281MD1210091+9999REMSYN060AAXX  16101 10860 42975 00702 11036 21057 39828 40291 52009;
0082108600999992012011610204+48717+011533FM-15+0365ETSI V0200801N002112200019N0112651N1-00301-00601999999ADDMA1102611999999REMMET055METAR ETSI 161020Z 08004KT 9999 M03/M06 Q1026 BLU/BLU/;
0159108600999992012011611004+48717+011533FM-12+0365ETSI V0200801N002012200019N0350001N1-00211-00581102861ADDGA1011+004801081GF101991011081004501001011MA1999999098261MD1010041+9999REMSYN076AAXX  16111 10860 42481 10802 11021 21058 39826 40286 50004 81801 333 81816;
0131108600999992012011611204+48717+011533FM-15+0365ETSI V0201101N001512200019N0112651N1-00101-00601999999ADDGA1021+006001999GF102991999999999999999999MA1102611999999REMMET062METAR ETSI 161120Z 11003KT 9999 FEW020 M01/M06 Q1026 BLU/BLU/;
0131108600999992012011612204+48717+011533FM-15+0365ETSI V0200601N001512200019N0112651N1-00101-00601999999ADDGA1021+006001999GF102991999999999999999999MA1102511999999REMMET062METAR ETSI 161220Z 06003KT 9999 FEW020 M01/M06 Q1025 BLU/BLU/;
0159108600999992012011613004+48717+011533FM-12+0365ETSI V0200601N002012200019N0450001N1-00061-00631102771ADDGA1011+006001081GF101991011011008001031001MA1999999098201MD1710081+9999REMSYN076AAXX  16131 10860 42583 10602 11006 21063 39820 40277 57008 81130 333 81820;
0131108600999992012011613204+48717+011533FM-15+0365ETSI V0200801N001512200019N0112651N1-00101-00701999999ADDGA1021+024001999GF102991999999999999999999MA1102511999999REMMET062METAR ETSI 161320Z 08003KT 9999 FEW080 M01/M07 Q1025 BLU/BLU/;
0201108600999992012011614004+48717+011533FM-12+0365ETSI V0200801N002012200019N0550001N1-00031-00751102781ADDGA1011+024001031GF101991011001022501031001MA1999999098211MD1510051+9999REMSYN118AAXX  16141 10860 42885 10802 11003 21075 39821 40278 55005 81030 333 81358 555 BOT 11001 21002 30009 40035 999 34///;
0131108600999992012011614204+48717+011533FM-15+0365ETSI V0200701N002112200019N0112651N1+00001-00701999999ADDGA1021+024001999GF102991999999999999999999MA1102511999999REMMET062METAR ETSI 161420Z 07004KT 9999 FEW080 M00/M07 Q1025 BLU/BLU/;
0131108600999992012011615204+48717+011533FM-15+0365ETSI V0200801N001012200019N0112651N1-00101-00801999999ADDGA1021+024001999GF102991999999999999999999MA1102511999999REMMET062METAR ETSI 161520Z 08002KT 9999 FEW080 M01/M08 Q1025 BLU/BLU/;
0227108600999992012011616004+48717+011533SY-MT+0365ETSI V0200401N001012200019N0400001N1-00171-00731102851ADDGA1011+024001031GF101991011001022501031001MA1102611098251MD1210051+9999REMSYN076AAXX  16161 10860 42882 10401 11017 21073 39825 40285 52005 81030 333 81358;MET062SPECI ETSI 161600Z 04001KT 9999 M02/M07 Q1026 BLU/FCST CANCEL;
0078108600999992012011616204+48717+011533FM-15+0365ETSI V0200701N001012200019N0112651N1-00201-00701999999ADDMA1102611999999REMMET051METAR ETSI 161620Z 07002KT 9999 M02/M07 Q1026 BLU/;
0143108600999992012011617004+48717+011533FM-12+0365ETSI V0200701N001012200019N0350001N1-00321-00711102911ADDGA1001+999999999GF100991001001999999001001MA1999999098291MD1210081+9999REMSYN060AAXX  16171 10860 42981 00701 11032 21071 39829 40291 52008;
0078108600999992012011617204+48717+011533FM-15+0365ETSI V0201801N000512200019N0112651N1-00401-00701999999ADDMA1102611999999REMMET051METAR ETSI 161720Z 18001KT 9999 M04/M07 Q1026 BLU/;
0078108600999992012011621204+48717+011533FM-15+0365ETSI V0201601N001012200019N0112651N1-00601-00701999999ADDMA1102711999999REMMET051METAR ETSI 162120Z 16002KT 9999 M06/M07 Q1027 BLU/;
0127108600999992012011704204+48717+011533FM-15+0365ETSI V0202801N001012200019N0112651N1-00701-00701999999ADDGA1021+069001999GF102991999999999999999999MA1102711999999REMMET058METAR ETSI 170420Z 28002KT 9999 FEW230 M07/M07 Q1027 BLU/;
0159108600999992012011705004+48717+011533FM-12+0365ETSI V0202001N002012200019N0150001N1-00791-00851103151ADDGA1011+069001001GF101991001001999999001011MA1999999098431MD1310021+9999REMSYN076AAXX  17051 10860 43965 12002 11079 21085 39843 40315 53002 80001 333 81073;
0141108600999992012011705204+48717+011533FM-15+0365ETSI V0201701N001512200019N0112651N1-00701-00801999999ADDGA1041+015001999GF104991999999999999999999MA1102811999999REMMET072METAR ETSI 170520Z 17003KT 9999 SCT050 M07/M08 Q1028 BLU/BLU/ TEMPO BLU;
0150108600999992012011706204+48717+011533FM-15+0365ETSI V0209999V001012200019N0090001N1-00701-00801999999ADDGA1021+045001999GA2041+069001999GF104991999999999999999999MA1102811999999REMMET065METAR ETSI 170620Z VRB02KT 9000 FEW150 SCT230 M07/M08 Q1028 BLU/;
0207108600999992012011707004+48717+011533FM-12+0365ETSI V0202101N002012200019N0080001N1-00731-00801103201ADDGA1011+015001061GF103991011051017501031011MA1999999098491MD1210091+9999REMSYN124AAXX  17071 10860 42758 32102 11073 21080 39849 40320 52009 81531 333 81650 555 BOT 11039 21017 30006 40032 50057 999 34///;
0164108600999992012011707204+48717+011533FM-15+0365ETSI V0200601N000512200019N0090001N1-00701-00801999999ADDGA1021+015001999GA2041+045001999GF104991999999999999999999MA1102911999999REMMET079METAR ETSI 170720Z 06001KT 9000 FEW050 SCT150 M07/M08 Q1029 BLU/BLU/ TEMPO BLU;
0165108600999992012011708004+48717+011533FM-12+0365ETSI V0209999V00101036001CN0080001N1-00731-00811103271ADDGA1011+013501061GF107991011051012501031011MA1999999098561MD1310131+9999REMSYN082AAXX  17081 10860 42658 79901 11073 21081 39856 40327 53013 81531 333 81645 85365;
0164108600999992012011708204+48717+011533FM-15+0365ETSI V0202301N001010420019N0080001N1-00601-00701999999ADDGA1021+013501999GA2071+042001999GF107991999999999999999999MA1102911999999REMMET079METAR ETSI 170820Z 23002KT 8000 FEW045 BKN140 M06/M07 Q1029 BLU BLU/ TEMPO BLU;
0187108600999992012011709204+48717+011533FM-15+0365ETSI V0202501N001510420019N0090001N1-00401-00601999999ADDGA1021+012001999GA2071+042001999GA3071+057001999GF107991999999999999999999MA1102911999999REMMET086METAR ETSI 170920Z 25003KT 9000 FEW040 BKN140 BKN190 M04/M06 Q1029 BLU BLU/ TEMPO BLU;
0187108600999992012011710004+48717+011533FM-12+0365ETSI V0202601N003010420019N0090001N1-00391-00551103261ADDGA1011+015001061GA2051+042001031GF107991011051017501031011MA1999999098611MD1210121+9999REMSYN088AAXX  17101 10860 42759 72603 11039 21055 39861 40326 52012 81531 333 81650 85364 85070;
0164108600999992012011710204+48717+011533FM-15+0365ETSI V0202601N002110420019N0090001N1-00301-00501999999ADDGA1021+015001999GA2071+042001999GF107991999999999999999999MA1102911999999REMMET079METAR ETSI 171020Z 26004KT 9000 FEW050 BKN140 M03/M05 Q1029 BLU BLU/ TEMPO BLU;
0165108600999992012011711004+48717+011533FM-12+0365ETSI V0202701N003010450019N0100001N1-00271-00481103221ADDGA1051+045001031GF107991051001999999031021MA1999999098591MD1010031+9999REMSYN082AAXX  17111 10860 42960 72703 11027 21048 39859 40322 50003 85032 333 85365 84070;
0164108600999992012011711204+48717+011533FM-15+0365ETSI V0202701N002610420019N0112651N1-00201-00501999999ADDGA1071+042001999GA2071+075001999GF107991999999999999999999MA1102911999999REMMET079METAR ETSI 171120Z 27005KT 9999 BKN140 BKN250 M02/M05 Q1029 BLU BLU BECMG BLU/;
0154108600999992012011712204+48717+011533FM-15+0365ETSI V0202701N002612200019N0090001N1-00101-00401999999ADDGA1021+042001999GA2041+051001999GF104991999999999999999999MA1102811999999REMMET069METAR ETSI 171220Z 27005KT 9000 FEW140 SCT170 M01/M04 Q1028 BLU/BLU/;
0165108600999992012011713004+48717+011533FM-12+0365ETSI V0202601N003012200019N0100001N1-00101-00461103111ADDGA1031+048001031GF104991031001999999031011MA1999999098511MD1710101+9999REMSYN082AAXX  17131 10860 42960 42603 11010 21046 39851 40311 57010 83031 333 83366 83075;
0154108600999992012011713204+48717+011533FM-15+0365ETSI V0202801N003110750019N0112651N1+00001-00401999999ADDGA1021+042001999GA2071+075001999GF107991999999999999999999MA1102811999999REMMET069METAR ETSI 171320Z 28006KT 9999 FEW140 BKN250 M00/M04 Q1028 BLU/BLU/;
0223108600999992012011714004+48717+011533FM-12+0365ETSI V0202701N003010750019N0120001N1-00011-00431103091ADDGA1021+042001031GA2051+075001001GF105991021001999999031011MA1999999098511MD1610081+9999REMSYN124AAXX  17141 10860 42962 52703 11001 21043 39851 40309 56008 82031 333 82364 85075 555 BOT 11003 21004 30005 40031 999 34///;
0153108600999992012011714204+48717+011533FM-15+0365ETSI V0202601N002112200019N0112651N1+00001-00401999999ADDGA1021+042001999GA2041+051001999GF104991999999999999999999MA1102811999999REMMET068METAR ETSI 171420Z 26004KT 9999 FEW140 SCT170 00/M04 Q1028 BLU/BLU/;
0154108600999992012011715204+48717+011533FM-15+0365ETSI V0202601N002612200019N0112651N1+00001-00401999999ADDGA1021+039001999GA2041+072001999GF104991999999999999999999MA1102811999999REMMET069METAR ETSI 171520Z 26005KT 9999 FEW130 SCT240 M00/M04 Q1028 BLU/BLU/;
0165108600999992012011716004+48717+011533FM-12+0365ETSI V0202601N003019999999N0120001N1-00111-00471103161ADDGA1021+045001031GF105991021001999999031011MA1999999098561MD1310051+9999REMSYN082AAXX  17161 10860 42962 52603 11011 21047 39856 40316 53005 82031 333 82365 84074;
0154108600999992012011716204+48717+011533FM-15+0365ETSI V0202601N002110660019N0112651N1-00201-00501999999ADDGA1041+045001999GA2071+066001999GF107991999999999999999999MA1102911999999REMMET069METAR ETSI 171620Z 26004KT 9999 SCT150 BKN220 M02/M05 Q1029 BLU/BLU/;
0165108600999992012011717004+48717+011533FM-12+0365ETSI V0202601N003010450019N0150001N1-00121-00451103191ADDGA1051+045001031GF107991051001999999031011MA1999999098591MD1310081+9999REMSYN082AAXX  17171 10860 42965 72603 11012 21045 39859 40319 53008 85031 333 85365 86072;
0130108600999992012011717204+48717+011533FM-15+0365ETSI V0202601N002610420019N0112651N1-00101-00401999999ADDGA1071+042001999GF107991999999999999999999MA1102911999999REMMET061METAR ETSI 171720Z 26005KT 9999 BKN140 M01/M04 Q1029 BLU BLU;
0138108600999992012011718104+48717+011533FM-16+0365ETSI V0202601N002110390019N0112651N1-00101-00401999999ADDGA1071+039001999GF107991999999999999999999MA1103011999999REMMET069SPECI ETSI 171810Z 26004KT 9999 BKN130 M01/M04 Q1030 BLU FCST CANCEL;
0078108600999992012011804204+48717+011533FM-15+0365ETSI V0201701N001012200019N0112651N1-00801-00901999999ADDMA1103121999999REMMET051METAR ETSI 180420Z 17002KT 9999 M08/M09 Q1031 BLU/;
0143108600999992012011805004+48717+011533FM-12+0365ETSI V0201501N001012200019N0100001N1-00761-00801103541ADDGA1001+999999999GF100991001001999999001001MA1999999098811MD1310031+9999REMSYN060AAXX  18051 10860 43960 01501 11076 21080 39881 40354 53003;
0092108600999992012011805204+48717+011533FM-15+0365ETSI V0201601N000512200019N0112651N1-00801-00801999999ADDMA1103121999999REMMET065METAR ETSI 180520Z 16001KT 9999 M08/M08 Q1031 BLU/BLU/ TEMPO WHT;
0141108600999992012011806204+48717+011533FM-15+0365ETSI V0201701N001012200019N0070001N1-00801-00801999999ADDGA1021+042001999GF102991999999999999999999MA1103121999999REMMET072METAR ETSI 180620Z 17002KT 7000 FEW140 M08/M08 Q1031 WHT BLU/ TEMPO WHT;
0235108600999992012011807004+48717+011533FM-12+0365ETSI V0202201N001012200019N0070001N1-00771-00831103581ADDAY101999AY201999GA1011+042001031GF101991011001999999031001MA1999999098851MD1210051+9999MW1101REMSYN130AAXX  18071 10860 41957 12201 11077 21083 39885 40358 52005 71000 81030 333 81364 555 BOT 11047 21026 30003 40029 50055 999 34///;
0141108600999992012011807204+48717+011533FM-15+0365ETSI V0201601N000512200019N0070001N1-00801-00901999999ADDGA1021+042001999GF102991999999999999999999MA1103181999999REMMET072METAR ETSI 180720Z 16001KT 7000 FEW140 M08/M09 Q1032 WHT BLU/ TEMPO WHT;
0187108600999992012011808004+48717+011533FM-12+0365ETSI V0209999C000012200019N0070001N1-00721-00781103611ADDAY101999AY201999GA1011+042001031GF101991011001999999031001MA1999999098881MD1210071+9999MW1101REMSYN082AAXX  18081 10860 41957 10000 11072 21078 39888 40361 52007 71000 81030 333 81364;
0141108600999992012011808204+48717+011533FM-15+0365ETSI V0201501N000512200019N0070001N1-00601-00701999999ADDGA1021+042001999GF102991999999999999999999MA1103181999999REMMET072METAR ETSI 180820Z 15001KT 7000 FEW140 M06/M07 Q1032 WHT BLU/ TEMPO WHT;
0131108600999992012011809204+48717+011533FM-15+0365ETSI V0203101N001012200019N0080001N1-00301-00601999999ADDGA1021+090001999GF102991999999999999999999MA1103181999999REMMET062METAR ETSI 180920Z 31002KT 8000 FEW300 M03/M06 Q1032 BLU/BLU/;
0159108600999992012011810004+48717+011533FM-12+0365ETSI V0209999V001012200019N0080001N1-00161-00461103451ADDGA1011+090001001GF101991001001999999001011MA1999999098831MD1810021+9999REMSYN076AAXX  18101 10860 42958 19901 11016 21046 39883 40345 58002 80001 333 81080;
0131108600999992012011810204+48717+011533FM-15+0365ETSI V0209999V001012200019N0112651N1+00001-00401999999ADDGA1021+090001999GF102991999999999999999999MA1103121999999REMMET062METAR ETSI 181020Z VRB02KT 9999 FEW300 M00/M04 Q1031 BLU/BLU/;
0159108600999992012011811004+48717+011533FM-12+0365ETSI V0209999V001012200019N0120001N1+00051-00461103361ADDGA1021+090001001GF102991001001999999001011MA1999999098781MD1710101+9999REMSYN076AAXX  18111 10860 42962 29901 10005 21046 39878 40336 57010 80001 333 82080;
0130108600999992012011811204+48717+011533FM-15+0365ETSI V0209999V001010900019N0112651N1+00101-00501999999ADDGA1071+090001999GF107991999999999999999999MA1103121999999REMMET061METAR ETSI 181120Z VRB02KT 9999 BKN300 01/M05 Q1031 BLU/BLU/;
0130108600999992012011812204+48717+011533FM-15+0365ETSI V0202701N003110900019N0112651N1+00201-00501999999ADDGA1071+090001999GF107991999999999999999999MA1103011999999REMMET061METAR ETSI 181220Z 27006KT 9999 BKN300 02/M05 Q1030 BLU/BLU/;
0159108600999992012011813004+48717+011533FM-12+0365ETSI V0202701N002010900019N0150001N1+00251-00441103191ADDGA1061+090001001GF106991001001999999001011MA1999999098651MD1710181+9999REMSYN076AAXX  18131 10860 42965 62702 10025 21044 39865 40319 57018 80001 333 86080;
0130108600999992012011813204+48717+011533FM-15+0365ETSI V0202801N001010900019N0112651N1+00301-00401999999ADDGA1071+090001999GF107991999999999999999999MA1102911999999REMMET061METAR ETSI 181320Z 28002KT 9999 BKN300 03/M04 Q1029 BLU/BLU/;
0201108600999992012011814004+48717+011533FM-12+0365ETSI V0209999V001012200019N0200001N1+00401-00371103101ADDGA1031+090001001GF103991001001999999001011MA1999999098591MD1710191+9999REMSYN118AAXX  18141 10860 42970 39901 10040 21037 39859 40310 57019 80001 333 83080 555 BOT 11001 21005 30002 40028 999 34///;
0130108600999992012011814204+48717+011533FM-15+0365ETSI V0200901N001012200019N0112651N1+00401-00301999999ADDGA1041+090001999GF104991999999999999999999MA1102911999999REMMET061METAR ETSI 181420Z 09002KT 9999 SCT300 04/M03 Q1029 BLU/BLU/;
0130108600999992012011815204+48717+011533FM-15+0365ETSI V0200201N001510900019N0112651N1+00201-00301999999ADDGA1071+090001999GF107991999999999999999999MA1102911999999REMMET061METAR ETSI 181520Z 02003KT 9999 BKN300 02/M03 Q1029 BLU/BLU/;
0233108600999992012011816004+48717+011533SY-MT+0365ETSI V0200701N001019999999N0200001N1+00051-00351103161ADDGA1041+090001999GF105991001001999999001011MA1102911098591MD1610061+9999REMSYN076AAXX  18161 10860 42970 50701 10005 21035 39859 40316 56006 80001 333 85080;MET068SPECI ETSI 181600Z VRB01KT 9999 SCT300 00/M03 Q1029 BLU/FCST CANCEL;
0127108600999992012011816204+48717+011533FM-15+0365ETSI V0202401N000512200019N0112651N1-00101-00401999999ADDGA1041+090001999GF104991999999999999999999MA1102911999999REMMET058METAR ETSI 181620Z 24001KT 9999 SCT300 M01/M04 Q1029 BLU/;
0159108600999992012011817004+48717+011533FM-12+0365ETSI V0201801N001012200019N0200001N1-00211-00381103201ADDGA1041+090001001GF104991001001999999001011MA1999999098581MD1810011+9999REMSYN076AAXX  18171 10860 42970 41801 11021 21038 39858 40320 58001 80001 333 84080;
0127108600999992012011817204+48717+011533FM-15+0365ETSI V0202001N000512200019N0112651N1-00301-00401999999ADDGA1041+090001999GF104991999999999999999999MA1102911999999REMMET058METAR ETSI 181720Z 20001KT 9999 SCT300 M03/M04 Q1029 BLU/;
0127108600999992012011818204+48717+011533FM-15+0365ETSI V0202001N001012200019N0112651N1-00301-00401999999ADDGA1041+090001999GF104991999999999999999999MA1102811999999REMMET058METAR ETSI 181820Z 20002KT 9999 SCT300 M03/M04 Q1028 BLU/;
0127108600999992012011819204+48717+011533FM-15+0365ETSI V0201601N001010660019N0112651N1-00301-00401999999ADDGA1071+066001999GF107991999999999999999999MA1102811999999REMMET058METAR ETSI 181920Z 16002KT 9999 BKN220 M03/M04 Q1028 BLU/;
0127108600999992012011821534+48717+011533FM-16+0365ETSI V0202501N001510600019N0112651N1-00301-00401999999ADDGA1071+060001999GF107991999999999999999999MA1102711999999REMMET058SPECI ETSI 182153Z 25003KT 9999 BKN200 M03/M04 Q1027 BLU/;
0126108600999992012011822204+48717+011533FM-15+0365ETSI V0209999V001010540019N0112651N1-00301-00401999999ADDGA1071+054001999GF107991999999999999999999MA1102711999999REMMET057METAR ETSI 182220Z VRB02KT 9999 BKN180 M03/M04 Q1027 BLU;
0159108600999992012011903004+48717+011533FM-15+0365ETSI V0202501N004610075019N0060001N1+00201+00001999999ADDGA1021+005401999GA2081+007501999GF108991999999999999999999MA1102401999999MW1661REMMET068SPECI ETSI 190258Z 25009KT 6000 -FZRA FEW018 OVC025 02/00 Q1024 WHT;
0176108600999992012011903204+48717+011533FM-15+0365ETSI V0202601N004610075019N0050001N1+00201+00101999999ADDGA1021+006001999GA2081+007501999GF108991999999999999999999MA1102401999999MW1101MW2531MW3661REMMET073METAR ETSI 190320Z 26009KT 5000 -FZRADZ BR FEW020 OVC025 02/01 Q1024 WHT;
0172108600999992012011904204+48717+011533FM-15+0365ETSI V0202601N003610042019N0070001N1+00201+00101999999ADDGA1021+003001999GA2071+004201999GF107991999999999999999999MA1102401999999MW1511MW2611REMMET075METAR ETSI 190420Z 26007KT 7000 -RADZ FEW010 BKN014 02/01 Q1024 REFZRA GRN;
0185108600999992012011905004+48717+011533FM-12+0365ETSI V0202601N00501001201CN0050001N1+00211+00151102591ADDAY161999GA1011+001501071GF108991081051001501999999MA1999999098071MD1710111+9999MW1611REMSYN088AAXX  19051 10860 41250 82605 10021 20015 39807 40259 57011 7616/ 885// 333 81705 88612;
0179108600999992012011905204+48717+011533FM-15+0365ETSI V0202601N003610027019N0045001N1+00201+00201999999ADDGA1021+001201999GA2081+002701999GF108991999999999999999999MA1102301999999MW1101MW2631REMMET082METAR ETSI 190520Z 26007KT 4500 RA BR FEW004 OVC009 02/02 Q1023 GRN WHT TEMPO YLO;
0179108600999992012011906204+48717+011533FM-15+0365ETSI V0202501N003110066019N0050001N1+00201+00201999999ADDGA1041+003601999GA2081+006601999GF108991999999999999999999MA1102301999999MW1101MW2631REMMET082METAR ETSI 190620Z 25006KT 5000 RA BR SCT012 OVC022 02/02 Q1023 WHT WHT TEMPO YLO;
0257108600999992012011907004+48717+011533FM-12+0365ETSI V0202401N003010066019N0050001N1+00221+00171102521ADDAY161999AY261999GA1031+005401061GA2081+006601051GF108991031051004501021999MA1999999098001MD1710111+9999MW1631REMSYN136AAXX  19071 10860 41450 82403 10022 20017 39800 40252 57011 76366 8352/ 333 83618 88522 555 BOT 11001 21003 30002 40026 50053 999 32///;
0185108600999992012011907094+48717+011533FM-16+0365ETSI V0202501N002610036019N0045001N1+00201+00201999999ADDGA1071+003601999GA2081+006601999GF108991999999999999999999MA1102301999999MW1101MW2611REMMET088SPECI ETSI 190709Z 25005KT 4500 -RA BR BKN012 OVC022 02/02 Q1023 RERA GRN WHT TEMPO YLO;
0185108600999992012011907204+48717+011533FM-15+0365ETSI V0202501N003110036019N0045001N1+00201+00201999999ADDGA1071+003601999GA2081+006601999GF108991999999999999999999MA1102301999999MW1101MW2611REMMET088METAR ETSI 190720Z 25006KT 4500 -RA BR BKN012 OVC022 02/02 Q1023 RERA GRN WHT TEMPO YLO;
0193108600999992012011908004+48717+011533FM-12+0365ETSI V0202501N00301001201CN0040001N1+00241+00191102431ADDAY161999AY261999GA1021+001801071GF108991071051001501999999MA1999999097921MD1710151+9999MW1211REMSYN088AAXX  19081 10860 41240 82503 10024 20019 39792 40243 57015 72166 875// 333 82706 87612;
0180108600999992012011908204+48717+011533FM-15+0365ETSI V0202501N003110060019N0050001N1+00301+00301999999ADDGA1021+004501999GA2081+006001999GF108991999999999999999999MA1102201999999MW1101MW2611REMMET083METAR ETSI 190820Z 25006KT 5000 -RA BR FEW015 OVC020 03/03 Q1022 WHT WHT TEMPO YLO;
0171108600999992012011909204+48717+011533FM-15+0365ETSI V0202401N003610054019N0112651N1+00401+00301999999ADDGA1071+005401999GA2081+006601999GF108991999999999999999999MA1102101999999MW1611REMMET080METAR ETSI 190920Z 24007KT 9999 -RA BKN018 OVC022 04/03 Q1021 WHT WHT TEMPO YLO;
0300108600999992012011910004+48717+011533SY-MT+0365ETSI V0202501N004010042019N0110001N1+00411+00331102231ADDAY161999AY261999GA1071+004201999GA2081+006601999GF108991061051004501021999MA1102101097761MD1710241+9999MW1611MW2631REMSYN088AAXX  19101 10860 41461 82504 10041 20033 39776 40223 57024 76166 8652/ 333 86615 88522;MET079SPECI ETSI 190955Z 25007KT 9999 RA BKN014 OVC022 04/03 Q1021 GRN WHT TEMPO YLO;
0193108600999992012011910204+48717+011533FM-15+0365ETSI V0202501N005710045019N0080001N1+00501+00401999999ADDGA1021+001801999GA2071+004501999GA3081+006001999GF108991999999999999999999MA1102001999999MW1631REMMET086METAR ETSI 191020Z 25011KT 8000 RA FEW006 BKN015 OVC020 05/04 Q1020 WHT WHT TEMPO YLO;
0193108600999992012011911004+48717+011533FM-12+0365ETSI V0202601N00701036001CN0080001N1+00511+00421102121ADDAY161999AY261999GA1031+002401071GF108991031071002501021999MA1999999097671MD1710251+9999MW1611REMSYN088AAXX  19111 10860 41358 82607 10051 20042 39767 40212 57025 76166 8372/ 333 83708 88515;
0210108600999992012011911204+48717+011533FM-15+0365ETSI V0202501N007210045019N0080001N1+00501+00401999999ADDGA1021+002401999GA2071+004501999GA3081+009001999GF108991999999999999999999MA1101901999999MW1611OC101231REMMET095METAR ETSI 191120Z 25014G24KT 8000 -RA FEW008 BKN015 OVC030 05/04 Q1019 RERA WHT WHT TEMPO YLO;
0195108600999992012011912204+48717+011533FM-15+0365ETSI V0202601N00871004501CN0112651N1+00701+00501999999ADDGA1021+001501999GA2041+004501999GA3071+008401999GF107991999999999999999999MA1101691999999OC101651REMMET086METAR ETSI 191220Z 26017G32KT 9999 FEW005 SCT015 BKN028 07/05 Q1017 BLU WHT TEMPO GRN;
0221108600999992012011913004+48717+011533FM-12+0365ETSI V0202601N009010084019N0200001N1+00731+00541101791ADDAY161999AY221999GA1031+004501061GA2071+008401061GF107991071051004501999999MA1999999097391MD1710371+9999MW1611REMSYN100AAXX  19131 10860 41470 72609 10073 20054 39739 40179 57037 76162 875// 333 83615 87628 91014 91116;
0182108600999992012011913204+48717+011533FM-15+0365ETSI V0202501N007710090019N0112651N1+00801+00601999999ADDGA1041+006001999GA2071+009001999GF107991999999999999999999MA1101591999999MW1611OC101291REMMET083METAR ETSI 191320Z 25015G25KT 9999 -RA SCT020 BKN030 08/06 Q1016 BLU WHT TEMPO GRN;
0274108600999992012011914004+48717+011533FM-12+0365ETSI V0202501N008010105019N0100001N1+00771+00581101721ADDAY161999AY261999GA1021+006001061GA2071+010501061GF108991071051008001999999MA1999999097331MD1710341+9999MW1611OA149901501REMSYN142AAXX  19141 10860 41560 82508 10077 20058 39733 40172 57034 76166 875// 333 82620 87635 91015 91115 555 BOT 10018 21001 30002 40026 999 32///;
0182108600999992012011914204+48717+011533FM-15+0365ETSI V0202501N007710105019N0112651N1+00801+00601999999ADDGA1021+006001999GA2071+010501999GF107991999999999999999999MA1101591999999MW1611OC101341REMMET083METAR ETSI 191420Z 25015G26KT 9999 -RA FEW020 BKN035 08/06 Q1016 BLU WHT TEMPO GRN;
0193108600999992012011914364+48717+011533FM-16+0365ETSI V0202501N008210054019N0070001N1+00801+00601999999ADDGA1021+002701999GA2071+005401999GA3071+010501999GF107991999999999999999999MA1101591999999MW1631REMMET086SPECI ETSI 191436Z 25016KT 7000 RA FEW009 BKN018 BKN035 08/06 Q1016 WHT WHT TEMPO GRN;
0190108600999992012011915204+48717+011533FM-15+0365ETSI V0202501N007210060019N0050001N1+00801+00601999999ADDGA1041+004501999GA2081+006001999GF108991999999999999999999MA1101491999999MW1101MW2631OC101391REMMET085METAR ETSI 191520Z 25014G27KT 5000 RA BR SCT015 OVC020 08/06 Q1015 WHT BLU TEMPO GRN;
0298108600999992012011916004+48717+011533SY-MT+0365ETSI V0202601N008010060019N0060001N1+00741+00581101671ADDAY161999AY261999GA1041+003001999GA2071+006001999GF108991071081004501999999MA1101591097281MD1510111+9999MW1631REMSYN094AAXX  19161 10860 41456 82608 10074 20058 39728 40167 55011 76366 878// 333 83810 87620 91115;MET077SPECI ETSI 191600Z 26017KT 6000 RA SCT010 BKN020 08/06 Q1016 WHT FCST CANCEL;
0179108600999992012011916204+48717+011533FM-15+0365ETSI V0202601N007710060019N0070001N1+00701+00601999999ADDGA1021+003001999GA2071+006001999GA3081+010501999GF108991999999999999999999MA1101591999999MW1631REMMET072METAR ETSI 191620Z 26015KT 7000 RA FEW010 BKN020 OVC035 07/06 Q1016 WHT;
0215108600999992012011917004+48717+011533FM-12+0365ETSI V0202701N007010060019N0100001N1+00731+00621101701ADDAY161999AY261999GA1021+004501081GA2051+006001061GF108991051081004501021999MA1999999097301MD1510031+9999MW1611REMSYN094AAXX  19171 10860 41460 82707 10073 20062 39730 40170 55003 76166 8582/ 333 82815 85620 88535;
0185108600999992012011917204+48717+011533FM-15+0365ETSI V0202601N00721006001CN0112651N1+00701+00601999999ADDGA1021+004501999GA2041+006001999GA3071+009001999GF107991999999999999999999MA1101491999999MW1611REMMET078METAR ETSI 191720Z 26014KT 9999 -RA FEW015 SCT020 BKN030 07/06 Q1015 RERA BLU;
0180108600999992012011918204+48717+011533FM-15+0365ETSI V0202501N00621006001CN0112651N1+00801+00601999999ADDGA1041+004501999GA2041+006001999GA3071+010501999GF107991999999999999999999MA1101491999999MW1611REMMET073METAR ETSI 191820Z 25012KT 9999 -RA SCT015 SCT020 BKN035 08/06 Q1015 BLU;
0157108600999992012012004204+48717+011533FM-15+0365ETSI V0202601N003110060019N0112651N1+00401+00301999999ADDGA1021+003601999GA2081+006001999GF108991999999999999999999MA1101081999999MW1611REMMET066METAR ETSI 200420Z 26006KT 9999 -RA FEW012 OVC020 04/03 Q1011 WHT;
0193108600999992012012005004+48717+011533FM-12+0365ETSI V0202501N00401004201CN0150001N1+00361+00281101251ADDAY161999AY221999GA1021+003001071GF108991081051004501999999MA1999999096811MD1710331+9999MW1611REMSYN088AAXX  20051 10860 41465 82504 10036 20028 39681 40125 57033 76162 885// 333 82710 88618;
0181108600999992012012005204+48717+011533FM-15+0365ETSI V0202801N007710054019N0112651N1+00401+00301999999ADDGA1021+003001999GA2081+005401999GF108991999999999999999999MA1101081999999MW1631OC101291REMMET082METAR ETSI 200520Z 28015G25KT 9999 RA FEW010 OVC018 04/03 Q1011 WHT WHT TEMPO GRN;
0166108600999992012012006204+48717+011533FM-15+0365ETSI V0202601N008210045019N0112651N1+00301+00201999999ADDGA1021+003001999GA2081+004501999GF108991999999999999999999MA1101081999999REMMET081METAR ETSI 200620Z 26016KT 9999 FEW010 OVC015 03/02 Q1011 RERA WHT WHT TEMPO GRN;
0197108600999992012012006404+48717+011533FM-16+0365ETSI V0202801N00771004501CN0045001N1+00301+00201999999ADDGA1041+001801999GA2041+004501091GA3081+005401999GF108991999999999999999999MA1101081999999MW1811REMMET090SPECI ETSI 200640Z 28015KT 4500 SHRA SCT006 SCT015CB OVC018 03/02 Q1011 GRN WHT TEMPO GRN;
0213108600999992012012006494+48717+011533FM-16+0365ETSI V0203101N00821004501CN0050001N1+00201+00101999999ADDGA1041+001501999GA2021+004501091GA3081+005401999GF108991999999999999999999MA1101191999999MW1161OC101391REMMET098SPECI ETSI 200649Z 31016G27KT 5000 VCSH SCT005 FEW015CB OVC018 02/01 Q1012 RERA WHT WHT TEMPO GRN;
0215108600999992012012006564+48717+011533FM-16+0365ETSI V0203301N00821003001CN0030001N1+00201+00101999999ADDGA1041+001501999GA2041+003001091GA3081+004201999GF108991999999999999999999MA1101291999999MW1811OC101391REMMET100SPECI ETSI 200656Z 33016G27KT 3000 SHSNRA SCT005 SCT010CB OVC014 02/01 Q1013 RERA YLO WHT TEMPO GRN;
0243108600999992012012007004+48717+011533FM-12+0365ETSI V0203201N008010030019N0030001N1+00241+00101101421ADDAY161011AY221011GA1031+001501081GA2031+003001091GA3081+004201061GF108991081091001501999999MA1999999096961MD1310061+9999MW1841REMSYN106AAXX  20071 10860 41230 83208 10024 20010 39696 40142 53006 78462 889// 333 83805 83910 88614 91014 91114;
0203108600999992012012007054+48717+011533FM-16+0365ETSI V0203301N00671003001CN0020001N1+00101+00001999999ADDGA1041+001501999GA2041+003001091GA3081+003601999GF108991999999999999999999MA1101291999999MW1861REMMET096SPECI ETSI 200705Z 33013KT 2000 SHSN SCT005 SCT010CB OVC012 01/M00 Q1013 RERA YLO BLU TEMPO YLO;
0221108600999992012012007204+48717+011533FM-15+0365ETSI V0203201N004610015019N0018001N1+00101+00001999999ADDED125U36009GA1071+001501999GA2041+003001999GA3081+003601999GF108991999999999999999999MA1101291999999MW1861REMMET103METAR ETSI 200720Z 32009KT 1800 R25/3600U SHSN BKN005 SCT010 OVC012 01/00 Q1013 RERA YLO BLU TEMPO YLO;
0193108600999992012012008004+48717+011533FM-12+0365ETSI V0202801N005010015019N0020001N1+00061+00011101621ADDAY181999AY281999GA1061+001501081GF108991081021001501999999MA1999999097121MD1310311+9999MW1861REMSYN088AAXX  20081 10860 41220 82805 10006 20001 39712 40162 53031 78688 882// 333 86805 88810;
0176108600999992012012008084+48717+011533FM-16+0365ETSI V0202701N005110015019N0040001N1+00101+00101999999ADDGA1071+001501999GA2081+003001999GF108991999999999999999999MA1101391999999MW1711REMMET085SPECI ETSI 200808Z 27010KT 4000 -SN BKN005 OVC010 01/01 Q1014 RESN YLO BLU TEMPO YLO;
0199108600999992012012008204+48717+011533FM-15+0365ETSI V0202801N005710030019N0080001N1+00101+00001999999ADDGA1041+001501999GA2071+003001999GA3081+006601999GF108991999999999999999999MA1101391999999MW1711REMMET092METAR ETSI 200820Z 28011KT 8000 -SN SCT005 BKN010 OVC022 01/00 Q1014 RESN GRN BLU TEMPO GRN;
0194108600999992012012008464+48717+011533FM-16+0365ETSI V0202701N00511003001CN0080001N1+00101+00101999999ADDGA1021+002101999GA2041+003001999GA3071+005401999GF107991999999999999999999MA1101391999999MW1711REMMET087SPECI ETSI 200846Z 27010KT 8000 -SN FEW007 SCT010 BKN018 01/01 Q1014 WHT BLU TEMPO GRN;
0184108600999992012012009204+48717+011533FM-15+0365ETSI V0202601N00621003601CN0112651N1+00101+00001999999ADDGA1021+001801999GA2041+003601999GA3071+006301999GF107991999999999999999999MA1101491999999REMMET083METAR ETSI 200920Z 26012KT 9999 FEW006 SCT012 BKN021 01/00 Q1015 WHT BLU TEMPO GRN;
0184108600999992012012009474+48717+011533FM-16+0365ETSI V0202801N00671003601CN0112651N1+00201+00001999999ADDGA1021+002701999GA2041+003601999GA3071+012001999GF107991999999999999999999MA1101591999999REMMET083SPECI ETSI 200947Z 28013KT 9999 FEW009 SCT012 BKN040 02/00 Q1016 BLU BLU TEMPO GRN;
0193108600999992012012010004+48717+011533FM-12+0365ETSI V0202801N00701006001CN0400001N1+00191+00031101771ADDAY121999AY221999GA1011+002701081GF106991061081002501001011MA1999999097281MD1210321+9999MW1221REMSYN088AAXX  20101 10860 41382 62807 10019 20003 39728 40177 52032 72222 86801 333 81809 85640;
0198108600999992012012010204+48717+011533FM-15+0365ETSI V0202801N006210045019N0112651N1+00301+00001999999ADDGA1021+002701999GA2021+003601021GA3071+004501999GF107991999999999999999999MA1101591999999MW1161REMMET091METAR ETSI 201020Z 28012KT 9999 VCSH FEW009 FEW012TCU BKN015 03/00 Q1016 WHT BLU TEMPO GRN;
0193108600999992012012011004+48717+011533FM-12+0365ETSI V0202801N007010054019N0300001N1+00251+00041101801ADDAY121999AY221999GA1051+005401081GF106991061081004501001001MA1999999097321MD1210201+9999MW1261REMSYN088AAXX  20111 10860 41480 62807 10025 20004 39732 40180 52020 72622 86800 333 85818 83640;
0161108600999992012012011204+48717+011533FM-15+0365ETSI V0202901N006712200019N0112651N1+00301+00001999999ADDGA1041+004501999GA2041+009001999GF104991999999999999999999MA1101591999999REMMET076METAR ETSI 201120Z 29013KT 9999 SCT015 SCT030 03/00 Q1016 BLU/BLU TEMPO GRN;
0160108600999992012012012004+48717+011533FM-16+0365ETSI V0202901N006212200019N0112651N1+00301-00101999999ADDGA1021+006001999GA2041+012001999GF104991999999999999999999MA1101591999999REMMET075SPECI ETSI 201200Z 29012KT 9999 FEW020 SCT040 03/M01 Q1016 BLU/FCST CANCEL;
0160108600999992012012012204+48717+011533FM-15+0365ETSI V0203001N007212200019N0112651N1+00301-00101999999ADDGA1041+006001999GA2041+012001999GF104991999999999999999999MA1101591999999OC101291REMMET067METAR ETSI 201220Z 30014G25KT 9999 SCT020 SCT040 03/M01 Q1016 BLU/;
0215108600999992012012013004+48717+011533FM-12+0365ETSI V0202901N007010180019N0300001N1+00311-00081101801ADDAY121999AY221999GA1011+003001081GA2051+018001061GF107991071081004501999999MA1999999097331MD1010051+9999MW1161REMSYN094AAXX  20131 10860 41480 72907 10031 21008 39733 40180 50005 71622 878// 333 81810 85656 91113;
0185108600999992012012013204+48717+011533FM-15+0365ETSI V0202801N006710075019N0070001N1+00301-00101999999ADDGA1021+003001021GA2071+007501999GA3071+009001999GF107991999999999999999999MA1101591999999MW1161REMMET078METAR ETSI 201320Z 28013KT 7000 VCSH FEW010TCU BKN025 BKN030 03/M01 Q1016 WHT;
0290108600999992012012014004+48717+011533FM-12+0365ETSI V0202601N004010090019N0300001N1+00261+00001101771ADDAY181999AY221999GA1021+003001081GA2051+009001061GA3051+018001061GF107991071081004501999999MA1999999097291MD1810031+9999MW1261OA149901401REMSYN142AAXX  20141 10860 41480 72604 10026 20000 39729 40177 58003 72682 878// 333 82810 85630 85656 91114 555 BOT 10020 20011 30003 40023 999 31///;
0171108600999992012012014204+48717+011533FM-15+0365ETSI V0202701N006710090019N0112651N1+00301+00001999999ADDGA1021+006001999GA2071+009001999GA3071+021001999GF107991999999999999999999MA1101491999999REMMET070METAR ETSI 201420Z 27013KT 9999 FEW020 BKN030 BKN070 03/M00 Q1015 BLU;
0171108600999992012012015204+48717+011533FM-15+0365ETSI V0202601N00621006001CN0112651N1+00301+00001999999ADDGA1021+004501999GA2041+006001999GA3071+030001999GF107991999999999999999999MA1101491999999REMMET070METAR ETSI 201520Z 26012KT 9999 FEW015 SCT020 BKN100 03/M00 Q1015 BLU;
0187108600999992012012016004+48717+011533FM-12+0365ETSI V0202501N006010060019N0300001N1+00211-00021101671ADDGA1011+004501081GA2051+006001061GF107991071081004501999999MA1999999097191MD1710141+9999REMSYN088AAXX  20161 10860 42480 72506 10021 21002 39719 40167 57014 878// 333 81815 85620 87656;
0171108600999992012012016204+48717+011533FM-15+0365ETSI V0202601N00571012001CN0112651N1+00201+00001999999ADDGA1021+006001999GA2041+012001999GA3071+018001999GF107991999999999999999999MA1101391999999REMMET070METAR ETSI 201620Z 26011KT 9999 FEW020 SCT040 BKN060 02/M00 Q1014 BLU;
0187108600999992012012017004+48717+011533FM-12+0365ETSI V0202601N00501036001CN0150001N1+00191-00021101611ADDGA1011+004501081GA2031+015001061GF106991031081004501031001MA1999999097131MD1710161+9999REMSYN088AAXX  20171 10860 42465 62605 10019 21002 39713 40161 57016 83830 333 81815 83650 85358;
0148108600999992012012017204+48717+011533FM-15+0365ETSI V0202601N006710090019N0112651N1+00201+00001999999ADDGA1071+009001999GA2071+024001999GF107991999999999999999999MA1101391999999REMMET063METAR ETSI 201720Z 26013KT 9999 BKN030 BKN080 02/M00 Q1014 BLU;
0134108600999992012012109014+48717+011533FM-16+0365ETSI V0202301N003110036019N0016001N1+00001-00101999999ADDGA1071+003601999GF107991999999999999999999MA1101491999999MW1731REMMET059SPECI ETSI 210901Z 23006KT 1600 SN BKN012 00/M01 Q1015 YLO;
0134108600999992012012109204+48717+011533FM-15+0365ETSI V0202301N002610030019N0016001N1+00001+00001999999ADDGA1071+003001999GF107991999999999999999999MA1101491999999MW1731REMMET059METAR ETSI 210920Z 23005KT 1600 SN BKN010 00/M00 Q1015 YLO;
0133108600999992012012109364+48717+011533FM-16+0365ETSI V0202201N002610015019N0014001N1+00001+00001999999ADDGA1071+001501999GF107991999999999999999999MA1101491999999MW1731REMMET058SPECI ETSI 210936Z 22005KT 1400 SN BKN005 00/00 Q1015 AMB;
0132108600999992012012110074+48717+011533FM-16+0365ETSI V0202101N002610009019N0012001N1+00001+00001999999ADDGA1091+000901999GF109991999999000251999999MA1101391999999MW1731REMMET057SPECI ETSI 211007Z 21005KT 1200 SN VV003 00/00 Q1014 AMB;
0191108600999992012012215404+48717+011533FM-16+0365ETSI V0202601N008710069019N0112651N1+00501+00201999999ADDGA1021+003001999GA2071+006901999GA3081+011401999GF108991999999999999999999MA1100811999999MW1511OC101391REMMET076SPECI ETSI 221540Z 26017G27KT 9999 -DZ FEW010 BKN023 OVC038 05/02 Q1008 WHT;
0188108600999992012012215514+48717+011533FM-16+0365ETSI V0202601N008710060019N0060001N1+00501+00301999999ADDGA1021+003001999GA2071+006001999GA3081+010501999GF108991999999999999999999MA1100911999999MW1511MW2611REMMET075SPECI ETSI 221551Z 26017KT 6000 -RADZ FEW010 BKN020 OVC035 05/03 Q1009 WHT;
0188108600999992012012216204+48717+011533FM-15+0365ETSI V0202601N007710072019N0090001N1+00501+00301999999ADDGA1021+003001999GA2071+007201999GA3071+013501999GF107991999999999999999999MA1100911999999MW1511MW2611REMMET075METAR ETSI 221620Z 26015KT 9000 -DZRA FEW010 BKN024 BKN045 05/03 Q1009 WHT;
0157108600999992012012220004+48717+011533FM-15+0365ETSI V0202601N008710060019N0112651N1+00601+00301999999ADDGA1041+003001999GA2071+006001999GF107991999999999999999999MA1101021999999MW1611REMMET066SPECI ETSI 221959Z 26017KT 9999 -RA SCT010 BKN020 06/03 Q1010 WHT;
0158108600999992012012220204+48717+011533FM-15+0365ETSI V0202601N009310060019N0112651N1+00601+00301999999ADDGA1041+003001999GA2071+006001999GF107991999999999999999999MA1101021999999OC101441REMMET065METAR ETSI 222020Z 26018G28KT 9999 SCT010 BKN020 06/03 Q1010 WHT;
0147108600999992012012221204+48717+011533FM-15+0365ETSI V0202601N010310084019N0112651N1+00601+00301999999ADDGA1021+003001999GA2071+008401999GF107991999999999999999999MA1101081999999REMMET062METAR ETSI 222120Z 26020KT 9999 FEW010 BKN028 06/03 Q1011 BLU;
0191108600999992012012221364+48717+011533FM-16+0365ETSI V0202601N01081006001CN0112651N1+00601+00301999999ADDGA1041+003001999GA2041+006001999GA3071+009001999GF107991999999999999999999MA1101021999999MW1611OC101801REMMET076SPECI ETSI 222136Z 26021G35KT 9999 -RA SCT010 SCT020 BKN030 06/03 Q1010 BLU;
0147108600999992012012304204+48717+011533FM-15+0365ETSI V0202601N004610120019N0112651N1+00501+00201999999ADDGA1021+007501999GA2071+012001999GF107991999999999999999999MA1100811999999REMMET062METAR ETSI 230420Z 26009KT 9999 FEW025 BKN040 05/02 Q1008 BLU;
0171108600999992012012305004+48717+011533FM-12+0365ETSI V0202901N00601009001CN0090001N1+00331+00181101641ADDAY121999GA1021+003001081GF108991071081004501999999MA1999999097181MW1811REMSYN088AAXX  23051 10860 41459 82906 10033 20018 39718 40164 5//// 7812/ 878// 333 82810 87618;
0176108600999992012012305204+48717+011533FM-15+0365ETSI V0203001N005710060019N0112651N1+00301+00201999999ADDGA1021+003601999GA2071+006001999GF107991999999999999999999MA1101491999999MW1611REMMET085METAR ETSI 230520Z 30011KT 9999 -RA FEW012 BKN020 03/02 Q1015 RERA WHT BLU TEMPO WHT;
0166108600999992012012306204+48717+011533FM-15+0365ETSI V0202801N006710135019N0112651N1+00301+00101999999ADDGA1021+007501999GA2071+013501999GF107991999999999999999999MA1101491999999REMMET081METAR ETSI 230620Z 28013KT 9999 FEW025 BKN045 03/01 Q1015 RERA BLU BLU TEMPO WHT;
0265108600999992012012307004+48717+011533FM-12+0365ETSI V0202901N003010120019N0250001N1+00321+00171101721ADDAY121999AY221999GA1011+006001081GA2051+012001061GA3071+021001031GF107991051081008001071999MA1999999097261MW1251REMSYN142AAXX  23071 10860 41575 72903 10032 20017 39726 40172 5//// 72522 8587/ 333 81820 85640 87357 555 BOT 10024 20027 30030 40034 50047 999 32///;
0161108600999992012012307204+48717+011533FM-15+0365ETSI V0202801N003610150019N0112651N1+00301+00201999999ADDGA1021+006001999GA2071+015001999GF107991999999999999999999MA1101591999999REMMET076METAR ETSI 230720Z 28007KT 9999 FEW020 BKN050 03/02 Q1016 BLU BLU TEMPO WHT;
0187108600999992012012308004+48717+011533FM-12+0365ETSI V0202801N00401036001CN0500001N1+00351+00161101731ADDGA1011+006001081GA2031+012001061GF108991031081008001071999MA1999999097271MD1210091+9999REMSYN088AAXX  23081 10860 42584 82804 10035 20016 39727 40173 52009 8387/ 333 81820 83640 87357;
0184108600999992012012308204+48717+011533FM-15+0365ETSI V0202601N002610120019N0112651N1+00401+00201999999ADDGA1021+006001999GA2071+012001999GA3071+021001999GF107991999999999999999999MA1101491999999REMMET083METAR ETSI 230820Z 26005KT 9999 FEW020 BKN040 BKN070 04/02 Q1015 BLU BLU TEMPO WHT;
0184108600999992012012309204+48717+011533FM-15+0365ETSI V0202601N00311007501CN0112651N1+00401+00201999999ADDGA1021+006001999GA2041+007501999GA3071+036001999GF107991999999999999999999MA1101591999999REMMET083METAR ETSI 230920Z 26006KT 9999 FEW020 SCT025 BKN120 04/02 Q1016 BLU BLU TEMPO WHT;
0165108600999992012012310004+48717+011533FM-12+0365ETSI V0202801N00301012001CN0450001N1+00421+00261101721ADDGA1031+006001081GF107991071081008001999999MA1999999097271MD1110011+9999REMSYN082AAXX  23101 10860 42583 72803 10042 20026 39727 40172 51001 878// 333 83820 87635;
0184108600999992012012310204+48717+011533FM-15+0365ETSI V0202601N00411006001CN0112651N1+00501+00301999999ADDGA1021+004501999GA2041+006001999GA3071+018001999GF107991999999999999999999MA1101491999999REMMET083METAR ETSI 231020Z 26008KT 9999 FEW015 SCT020 BKN060 05/03 Q1015 BLU BLU TEMPO WHT;
0187108600999992012012311004+48717+011533FM-12+0365ETSI V0202701N006010360019N0450001N1+00501+00281101681ADDGA1011+004501081GA2031+009001061GF107991031081004501031011MA1999999097251MD1810021+9999REMSYN088AAXX  23111 10860 42483 72706 10050 20028 39725 40168 58002 83831 333 81815 83630 85362;
0184108600999992012012311204+48717+011533FM-15+0365ETSI V0202801N00411012001CN0112651N1+00501+00301999999ADDGA1021+004501999GA2041+012001999GA3071+030001999GF107991999999999999999999MA1101491999999REMMET083METAR ETSI 231120Z 28008KT 9999 FEW015 SCT040 BKN100 05/03 Q1015 BLU BLU TEMPO WHT;
0195108600999992012012312204+48717+011533FM-15+0365ETSI V0202801N004610054019N0112651N1+00501+00301999999ADDGA1021+004501999GA2071+005401999GA3071+013501999GF107991999999999999999999MA1101491999999MW1161REMMET088METAR ETSI 231220Z 28009KT 9999 VCSH FEW015 BKN018 BKN045 05/03 Q1015 WHT BLU TEMPO WHT;
0215108600999992012012313004+48717+011533FM-12+0365ETSI V0202801N006010066019N0150001N1+00451+00201101651ADDAY121999AY221999GA1011+004501081GA2051+006601081GF107991071081004501999999MA1999999097211MD1610061+9999MW1151REMSYN094AAXX  23131 10860 41465 72806 10045 20020 39721 40165 56006 71522 878// 333 81815 85822 87656;
0184108600999992012012313204+48717+011533FM-15+0365ETSI V0202801N00511007501CN0112651N1+00501+00201999999ADDGA1021+004501999GA2041+007501999GA3071+015001999GF107991999999999999999999MA1101491999999REMMET083METAR ETSI 231320Z 28010KT 9999 FEW015 SCT025 BKN050 05/02 Q1015 BLU BLU TEMPO WHT;
0223108600999992012012314004+48717+011533FM-12+0365ETSI V0202601N004010180019N0250001N1+00451+00251101621ADDGA1011+004501081GA2071+018001061GF107991071081004501999999MA1999999097181MD1710071+9999REMSYN124AAXX  23141 10860 42475 72604 10045 20025 39718 40162 57007 878// 333 81815 87656 555 BOT 10047 20042 30035 40035 999 31///;
0184108600999992012012314204+48717+011533FM-15+0365ETSI V0202601N00621006001CN0112651N1+00501+00201999999ADDGA1021+004501999GA2041+006001999GA3071+030001999GF107991999999999999999999MA1101491999999REMMET083METAR ETSI 231420Z 26012KT 9999 FEW015 SCT020 BKN100 05/02 Q1015 BLU BLU TEMPO WHT;
0161108600999992012012315204+48717+011533FM-15+0365ETSI V0202601N005110180019N0112651N1+00401+00201999999ADDGA1021+004501999GA2071+018001999GF107991999999999999999999MA1101491999999REMMET076METAR ETSI 231520Z 26010KT 9999 FEW015 BKN060 04/02 Q1015 BLU BLU TEMPO WHT;
0261108600999992012012316004+48717+011533SY-MT+0365ETSI V0202501N004010330019N0250001N1+00391+00151101661ADDGA1021+004501999GA2071+033001999GF107991021081004501071999MA1101491097211MD1510001+9999REMSYN082AAXX  23161 10860 42475 72504 10039 20015 39721 40166 55000 8287/ 333 81815 87361;MET074SPECI ETSI 231600Z 25008KT 9999 FEW015 BKN110 04/01 Q1015 BLU FCST CANCEL;
0170108600999992012012316204+48717+011533FM-15+0365ETSI V0202501N00361024001CN0112651N1+00401+00201999999ADDGA1021+004501999GA2041+024001999GA3071+030001999GF107991999999999999999999MA1101491999999REMMET069METAR ETSI 231620Z 25007KT 9999 FEW015 SCT080 BKN100 04/02 Q1015 BLU;
0187108600999992012012317004+48717+011533FM-12+0365ETSI V0202701N005010150019N0250001N1+00381+00151101691ADDGA1011+004501081GA2051+015001061GF107991051081004501071999MA1999999097241MD1210061+9999REMSYN088AAXX  23171 10860 42475 72705 10038 20015 39724 40169 52006 8587/ 333 81815 85650 87359;
0170108600999992012012317204+48717+011533FM-15+0365ETSI V0202601N00411015001CN0112651N1+00401+00201999999ADDGA1021+004501999GA2041+015001999GA3071+027001999GF107991999999999999999999MA1101491999999REMMET069METAR ETSI 231720Z 26008KT 9999 FEW015 SCT050 BKN090 04/02 Q1015 BLU;
0170108600999992012012321074+48717+011533FM-16+0365ETSI V0202601N00361012001CN0112651N1+00301+00101999999ADDGA1021+006001999GA2041+012001999GA3071+030001999GF107991999999999999999999MA1101491999999REMMET069SPECI ETSI 232107Z 26007KT 9999 FEW020 SCT040 BKN100 03/01 Q1015 BLU;
