0159108600999992007010204004+48717+011533FM-12+0365ETSI V0209999V001010210019N0180001N1-00061-00131101801ADDGA1081+021001041GF108991081001022501011999MA1999999097281MD1710231+9999REMSYN076AAXX  02041 10860 42868 89901 11006 21013 39728 40180 57023 8801/ 333 88457;
0184108600999992007010204204+48717+011533FM-15+0365ETSI V0202901N000510060019N0112651N1+00001+00001999999ADDGA1021+004501999GA2071+006001999GA3081+021001999GF108991999999999999999999MA1101491999999MW1661REMMET077METAR ETSI 020420Z 29001KT 9999 -FZRA FEW015 BKN020 OVC070 M00/M00 Q1015 WHT;
0215108600999992007010205004+48717+011533FM-12+0365ETSI V0209999V001010105019N0150001N1+00121+00041101721ADDAY161999AY221999GA1031+006001061GA2051+010501061GF108991061051008001021999MA1999999097231MD1710201+9999MW1601REMSYN094AAXX  02051 10860 41565 89901 10012 20004 39723 40172 57020 76062 8652/ 333 83620 85635 88457;
0171108600999992007010205204+48717+011533FM-15+0365ETSI V0209999V001010105019N0112651N1+00101+00001999999ADDGA1041+005401999GA2071+010501999GF107991999999999999999999MA1101491999999MW1611REMMET080METAR ETSI 020520Z VRB02KT 9999 -RA SCT018 BKN035 01/00 Q1015 BLU BLU TEMPO WHT;
0138108600999992007010206204+48717+011533FM-15+0365ETSI V0201701N002110060019N0112651N1+00301+00101999999ADDGA1071+006001999GF107991999999999999999999MA1101391999999REMMET069METAR ETSI 020620Z 17004KT 9999 BKN020 03/01 Q1014 WHT BLU TEMPO GRN;
0257108600999992007010207004+48717+011533FM-12+0365ETSI V0202401N003010060019N0080001N1+00371+00021101551ADDAY121999AY221999GA1021+003001061GA2071+006001061GF108991071051004501999999MA1999999097111MD1710171+9999MW1611REMSYN136AAXX  02071 10860 41458 82403 10037 20002 39711 40155 57017 76122 875// 333 82610 87620 555 BOT 10005 20017 30033 40047 50057 999 31///;
0162108600999992007010207204+48717+011533FM-15+0365ETSI V0202401N005110045019N0112651N1+00401-00101999999ADDGA1021+003001999GA2071+004501999GF107991999999999999999999MA1101391999999REMMET077METAR ETSI 020720Z 24010KT 9999 FEW010 BKN015 04/M01 Q1014 WHT BLU TEMPO GRN;
0171108600999992007010207544+48717+011533FM-16+0365ETSI V0202601N008210036019N0112651N1+00401+00101999999ADDGA1021+003001999GA2081+003601999GF108991999999999999999999MA1101491999999MW1611REMMET080SPECI ETSI 020754Z 26016KT 9999 -RA FEW010 OVC012 04/01 Q1015 GRN BLU TEMPO GRN;
0187108600999992007010208004+48717+011533FM-12+0365ETSI V0202601N007010036019N0120001N1+00401+00031101661ADDAY161999AY221999GA1081+003601061GF108991081051004501999999MA1999999097221MD1510011+9999MW1611REMSYN082AAXX  02081 10860 41462 82607 10040 20003 39722 40166 55001 76162 885// 333 88612;
0148108600999992007010208204+48717+011533FM-15+0365ETSI V0202601N007710030019N0090001N1+00301+00001999999ADDGA1081+003001999GF108991999999999999999999MA1101491999999MW1611REMMET073METAR ETSI 020820Z 26015KT 9000 -RA OVC010 03/00 Q1015 GRN BLU TEMPO GRN;
0170108600999992007010209204+48717+011533FM-15+0365ETSI V0202701N007210027019N0080001N1+00301+00101999999ADDGA1041+001801999GA2081+002701999GF108991999999999999999999MA1101691999999MW1631REMMET079METAR ETSI 020920Z 27014KT 8000 RA SCT006 OVC009 03/01 Q1017 GRN BLU TEMPO GRN;
0193108600999992007010210004+48717+011533FM-12+0365ETSI V0202801N00501002101CN0080001N1+00231+00081101931ADDAY161999AY261999GA1031+002101071GF108991081051002501999999MA1999999097451MD1210341+9999MW1611REMSYN088AAXX  02101 10860 41358 82805 10023 20008 39745 40193 52034 76166 885// 333 83707 88609;
0170108600999992007010210204+48717+011533FM-15+0365ETSI V0202701N006210024019N0080001N1+00201+00101999999ADDGA1041+001801999GA2081+002401999GF108991999999999999999999MA1101801999999MW1631REMMET079METAR ETSI 021020Z 27012KT 8000 RA SCT006 OVC008 02/01 Q1018 GRN BLU TEMPO GRN;
0178108600999992007010210484+48717+011533FM-16+0365ETSI V0202801N007210024019N0040001N1+00201+00001999999ADDGA1041+001801999GA2081+002401999GF108991999999999999999999MA1101901999999MW1631MW2731REMMET081SPECI ETSI 021048Z 28014KT 4000 RASN SCT006 OVC008 02/00 Q1019 GRN BLU TEMPO GRN;
0193108600999992007010211004+48717+011533FM-12+0365ETSI V0202801N00701002101CN0040001N1+00211+00031102061ADDAY161999AY261999GA1031+001801071GF108991081051002501999999MA1999999097571MD1210351+9999MW1691REMSYN088AAXX  02111 10860 41340 82807 10021 20003 39757 40206 52035 76966 885// 333 83706 88608;
0178108600999992007010211204+48717+011533FM-15+0365ETSI V0202801N006210021019N0038001N1+00201+00001999999ADDGA1041+001501999GA2081+002101999GF108991999999999999999999MA1101901999999MW1631MW2731REMMET081METAR ETSI 021120Z 28012KT 3800 SNRA SCT005 OVC007 02/00 Q1019 GRN BLU TEMPO GRN;
0184108600999992007010211424+48717+011533FM-16+0365ETSI V0202801N006210030019N0080001N1+00201+00001999999ADDGA1041+002401999GA2081+003001999GF108991999999999999999999MA1101901999999MW1611MW2711REMMET087SPECI ETSI 021142Z 28012KT 8000 -RASN SCT008 OVC010 02/00 Q1019 RESN GRN BLU TEMPO GRN;
0185108600999992007010304004+48717+011533FM-12+0365ETSI V0202601N005010036019N0150001N1+00321+00111102851ADDAY161999GA1061+003601061GF108991071051004501999999MA1999999098341MD1210161+9999MW1601REMSYN088AAXX  03041 10860 41465 82605 10032 20011 39834 40285 52016 7606/ 875// 333 86612 87621;
0134108600999992007010304204+48717+011533FM-15+0365ETSI V0202601N005110036019N0112651N1+00301+00101999999ADDGA1071+003601999GF107991999999999999999999MA1102711999999MW1611REMMET059METAR ETSI 030420Z 26010KT 9999 -RA BKN012 03/01 Q1027 GRN;
0193108600999992007010305004+48717+011533FM-12+0365ETSI V0202501N00601002101CN0150001N1+00311-00011102881ADDAY161999AY261999GA1021+002401071GF107991071051002501999999MA1999999098371MD1210121+9999MW1601REMSYN088AAXX  03051 10860 41365 72506 10031 21001 39837 40288 52012 76066 875// 333 82708 87610;
0161108600999992007010305204+48717+011533FM-15+0365ETSI V0202601N006710036019N0112651N1+00301+00101999999ADDGA1071+003601999GA2071+015001999GF107991999999999999999999MA1102711999999REMMET076METAR ETSI 030520Z 26013KT 9999 BKN012 BKN050 03/01 Q1027 GRN WHT TEMPO GRN;
0184108600999992007010306204+48717+011533FM-15+0365ETSI V0202601N003110045019N0112651N1+00301+00201999999ADDGA1021+001801999GA2071+004501999GA3071+009001999GF107991999999999999999999MA1102811999999REMMET083METAR ETSI 030620Z 26006KT 9999 FEW006 BKN015 BKN030 03/02 Q1028 WHT WHT TEMPO GRN;
0257108600999992007010307004+48717+011533FM-12+0365ETSI V0202601N005010045019N0080001N1+00331+00181103031ADDAY121999AY221999GA1031+003001061GA2071+004501061GF107991071051004501999999MA1999999098521MD1210181+9999MW1151REMSYN136AAXX  03071 10860 41458 72605 10033 20018 39852 40303 52018 71522 875// 333 83610 87615 555 BOT 10021 20024 30033 40043 50057 999 31///;
0161108600999992007010307204+48717+011533FM-15+0365ETSI V0202501N004610150019N0080001N1+00301+00001999999ADDGA1041+004501999GA2071+015001999GF107991999999999999999999MA1102911999999REMMET076METAR ETSI 030720Z 25009KT 8000 SCT015 BKN050 03/00 Q1029 BLU BLU TEMPO WHT;
0187108600999992007010308004+48717+011533FM-12+0365ETSI V0202501N00401009001CN0100001N1+00331+00111103121ADDGA1011+003601081GA2031+006601061GF107991071081004501999999MA1999999098601MD1210231+9999REMSYN088AAXX  03081 10860 42460 72504 10033 20011 39860 40312 52023 878// 333 81812 83622 87650;
0184108600999992007010308204+48717+011533FM-15+0365ETSI V0202501N00361005401CN0112651N1+00401+00201999999ADDGA1021+003601999GA2041+005401999GA3071+013501999GF107991999999999999999999MA1102911999999REMMET083METAR ETSI 030820Z 25007KT 9999 FEW012 SCT018 BKN045 04/02 Q1029 BLU BLU TEMPO WHT;
0161108600999992007010309204+48717+011533FM-15+0365ETSI V0202601N004610135019N0112651N1+00401+00101999999ADDGA1021+003601999GA2071+013501999GF107991999999999999999999MA1103011999999REMMET076METAR ETSI 030920Z 26009KT 9999 FEW012 BKN045 04/01 Q1030 BLU BLU TEMPO WHT;
0165108600999992007010310004+48717+011533FM-12+0365ETSI V0202601N00501009001CN0150001N1+00441+00211103201ADDGA1011+004501081GF107991071081004501999999MA1999999098701MD1210181+9999REMSYN082AAXX  03101 10860 42465 72605 10044 20021 39870 40320 52018 878// 333 81815 87648;
0151108600999992007010310204+48717+011533FM-15+0365ETSI V0202601N005110135019N0112651N1+00501+00101999999ADDGA1021+003601999GA2071+013501999GF107991999999999999999999MA1103011999999REMMET066METAR ETSI 031020Z 26010KT 9999 FEW012 BKN045 05/01 Q1030 BLU BLU;
0165108600999992007010311004+48717+011533FM-12+0365ETSI V0202701N00601009001CN0180001N1+00491+00161103191ADDGA1011+004501081GF107991071081004501999999MA1999999098701MD1110101+9999REMSYN082AAXX  03111 10860 42468 72706 10049 20016 39870 40319 51010 878// 333 81815 87648;
0151108600999992007010311204+48717+011533FM-15+0365ETSI V0202701N006710144019N0112651N1+00501+00201999999ADDGA1021+003601999GA2071+014401999GF107991999999999999999999MA1103011999999REMMET066METAR ETSI 031120Z 27013KT 9999 FEW012 BKN048 05/02 Q1030 BLU BLU;
0159108600999992007010312004+48717+011533FM-15+0365ETSI V0202701N005710135019N0112651N1+00501+00201999999ADDGA1021+003601999GA2071+013501999GF107991999999999999999999MA1103011999999REMMET074SPECI ETSI 031200Z 27011KT 9999 FEW012 BKN045 05/02 Q1030 BLU FCST CANCEL;
0165108600999992007010404004+48717+011533FM-12+0365ETSI V0201701N002010150019N0300001N1+00181+00151102151ADDGA1051+015001061GF107991051051017501031999MA1999999097651MD1710421+9999REMSYN082AAXX  04041 10860 43780 71702 10018 20015 39765 40215 57042 8553/ 333 85650 86360;
0147108600999992007010404204+48717+011533FM-15+0365ETSI V0201601N002110150019N0112651N1+00201+00101999999ADDGA1071+015001999GA2071+030001999GF107991999999999999999999MA1101901999999REMMET062METAR ETSI 040420Z 16004KT 9999 BKN050 BKN100 02/01 Q1019 BLU;
0159108600999992007010405004+48717+011533FM-12+0365ETSI V0201701N002010150019N0300001N1+00221-00031102041ADDGA1071+015001061GF107991071051017501999999MA1999999097551MD1710381+9999REMSYN076AAXX  04051 10860 42780 71702 10022 21003 39755 40204 57038 875// 333 87650;
0128108600999992007010405204+48717+011533FM-15+0365ETSI V0201701N002110150019N0112651N1+00201+00001999999ADDGA1071+015001999GF107991999999999999999999MA1101801999999REMMET059METAR ETSI 040520Z 17004KT 9999 BKN050 02/00 Q1018 BLU BLU;
0152108600999992007010406204+48717+011533FM-15+0365ETSI V0201801N002110180019N0112651N1+00301+00001999999ADDGA1071+018001999GA2071+033001999GF107991999999999999999999MA1101691999999REMMET067METAR ETSI 040620Z 18004KT 9999 BKN060 BKN110 03/M00 Q1017 BLU BLU;
0165108600999992007010407004+48717+011533FM-12+0365ETSI V0201701N00201036001CN0300001N1+00341-00041101841ADDGA1031+018001061GF107991031051017501031999MA1999999097381MD1710271+9999REMSYN082AAXX  04071 10860 42780 71702 10034 21004 39738 40184 57027 8353/ 333 83656 87361;
0152108600999992007010407204+48717+011533FM-15+0365ETSI V0201701N002110360019N0112651N1+00301-00201999999ADDGA1041+018001999GA2071+036001999GF107991999999999999999999MA1101591999999REMMET067METAR ETSI 040720Z 17004KT 9999 SCT060 BKN120 03/M02 Q1016 BLU BLU;
0165108600999992007010408004+48717+011533FM-12+0365ETSI V0201601N00101036001CN0350001N1+00301-00101101801ADDGA1031+018001061GF107991031051017501031999MA1999999097341MD1710211+9999REMSYN082AAXX  04081 10860 42781 71601 10030 21010 39734 40180 57021 8353/ 333 83656 87361;
0152108600999992007010408204+48717+011533FM-15+0365ETSI V0201401N000510300019N0112651N1+00301+00001999999ADDGA1021+018001999GA2071+030001999GF107991999999999999999999MA1101591999999REMMET067METAR ETSI 040820Z 14001KT 9999 FEW060 BKN100 03/M00 Q1016 BLU BLU;
0175108600999992007010409204+48717+011533FM-15+0365ETSI V0202101N002110180019N0112651N1+00501-00101999999ADDGA1021+006001999GA2071+018001999GA3071+027001999GF107991999999999999999999MA1101491999999REMMET074METAR ETSI 040920Z 21004KT 9999 FEW020 BKN060 BKN090 05/M01 Q1015 BLU BLU;
0187108600999992007010410004+48717+011533FM-12+0365ETSI V0202301N002010180019N0400001N1+00531+00051101651ADDGA1021+010501061GA2051+018001061GF107991051051012501071999MA1999999097231MD1710151+9999REMSYN088AAXX  04101 10860 42682 72302 10053 20005 39723 40165 57015 8557/ 333 82635 85656 87359;
0175108600999992007010410204+48717+011533FM-15+0365ETSI V0202401N003610120019N0112651N1+00601-00201999999ADDGA1021+007501999GA2071+012001999GA3071+018001999GF107991999999999999999999MA1101491999999REMMET074METAR ETSI 041020Z 24007KT 9999 FEW025 BKN040 BKN060 06/M02 Q1015 BLU BLU;
0215108600999992007010411004+48717+011533FM-12+0365ETSI V0202401N006010120019N0180001N1+00681-00271101521ADDAY121999AY221999GA1011+007501061GA2051+012001061GF107991071051008001999999MA1999999097131MD1710211+9999MW1611REMSYN094AAXX  04111 10860 41568 72406 10068 21027 39713 40152 57021 76122 875// 333 81625 85640 87656;
0185108600999992007010411204+48717+011533FM-15+0365ETSI V0202301N00361012001CN0112651N1+00601-00101999999ADDGA1021+007501999GA2041+012001999GA3071+018001999GF107991999999999999999999MA1101291999999MW1611REMMET078METAR ETSI 041120Z 23007KT 9999 -RA FEW025 SCT040 BKN060 06/M01 Q1013 BLU BLU;
0165108600999992007010504004+48717+011533FM-12+0365ETSI V0202601N00701007501CN0550001N1+00601+00261101941ADDGA1031+006001061GF107991071051008001999999MA1999999097521MD1210101+9999REMSYN082AAXX  05041 10860 43585 72607 10060 20026 39752 40194 52010 875// 333 83620 87630;
0124108600999992007010504204+48717+011533FM-15+0365ETSI V0202601N007210060019N0112651N1+00601+00301999999ADDGA1071+006001999GF107991999999999999999999MA1101801999999REMMET055METAR ETSI 050420Z 26014KT 9999 BKN020 06/03 Q1018 WHT;
0159108600999992007010505004+48717+011533FM-12+0365ETSI V0202601N007010060019N0550001N1+00591+00181102001ADDGA1071+006001061GF107991071051008001999999MA1999999097571MD1210111+9999REMSYN076AAXX  05051 10860 42585 72607 10059 20018 39757 40200 52011 875// 333 87620;
0161108600999992007010505204+48717+011533FM-15+0365ETSI V0202601N007210084019N0112651N1+00601+00201999999ADDGA1041+006001999GA2071+008401999GF107991999999999999999999MA1101901999999REMMET076METAR ETSI 050520Z 26014KT 9999 SCT020 BKN028 06/02 Q1019 BLU BLU TEMPO WHT;
0171108600999992007010506204+48717+011533FM-15+0365ETSI V0202601N007210108019N0112651N1+00601+00201999999ADDGA1021+005401999GA2071+010801999GF107991999999999999999999MA1101901999999MW1611REMMET080METAR ETSI 050620Z 26014KT 9999 -RA FEW018 BKN036 06/02 Q1019 BLU BLU TEMPO WHT;
0257108600999992007010507004+48717+011533FM-12+0365ETSI V0202601N007010090019N0550001N1+00561+00151102141ADDAY121999AY221999GA1011+004501071GA2071+009001061GF107991071051004501999999MA1999999097701MD1210181+9999MW1211REMSYN136AAXX  05071 10860 41485 72607 10056 20015 39770 40214 52018 72122 875// 333 81715 87630 555 BOT 10040 20040 30044 40047 50058 999 31///;
0184108600999992007010507204+48717+011533FM-15+0365ETSI V0202601N00771012001CN0112651N1+00601+00201999999ADDGA1021+004501999GA2041+012001999GA3071+018001999GF107991999999999999999999MA1102001999999REMMET083METAR ETSI 050720Z 26015KT 9999 FEW015 SCT040 BKN060 06/02 Q1020 BLU BLU TEMPO WHT;
0215108600999992007010508004+48717+011533FM-12+0365ETSI V0202601N007010090019N0120001N1+00551+00231102221ADDAY121999AY221999GA1011+004501081GA2031+006001061GF107991071081004501999999MA1999999097781MD1210211+9999MW1611REMSYN094AAXX  05081 10860 41462 72607 10055 20023 39778 40222 52021 76122 878// 333 81815 83620 85630;
0174108600999992007010508204+48717+011533FM-15+0365ETSI V0202601N00671012001CN0112651N1+00501+00201999999ADDGA1021+003601999GA2041+012001999GA3071+018001999GF107991999999999999999999MA1102101999999REMMET073METAR ETSI 050820Z 26013KT 9999 FEW012 SCT040 BKN060 05/02 Q1021 BLU BLU;
0161108600999992007010509204+48717+011533FM-15+0365ETSI V0202501N006210180019N0112651N1+00601+00201999999ADDGA1021+003001999GA2071+018001999GF107991999999999999999999MA1102201999999MW1611REMMET070METAR ETSI 050920Z 25012KT 9999 -RA FEW010 BKN060 06/02 Q1022 BLU BLU;
0193108600999992007010510004+48717+011533FM-12+0365ETSI V0202601N00701009001CN0250001N1+00601+00191102361ADDAY121999AY221999GA1011+004501081GF107991071081004501071999MA1999999097921MD1210221+9999MW1211REMSYN088AAXX  05101 10860 41475 72607 10060 20019 39792 40236 52022 72122 8787/ 333 81815 87357;
0151108600999992007010510204+48717+011533FM-15+0365ETSI V0202601N007710210019N0112651N1+00601+00201999999ADDGA1021+005401999GA2071+021001999GF107991999999999999999999MA1102201999999REMMET066METAR ETSI 051020Z 26015KT 9999 FEW018 BKN070 06/02 Q1022 BLU BLU;
0187108600999992007010511004+48717+011533FM-12+0365ETSI V0202601N00701036001CN0250001N1+00621+00231102401ADDGA1011+005401081GA2031+012001061GF107991031081004501071999MA1999999097961MD1210181+9999REMSYN088AAXX  05111 10860 42475 72607 10062 20023 39796 40240 52018 8387/ 333 81818 83640 87357;
0151108600999992007010511204+48717+011533FM-15+0365ETSI V0202601N005710180019N0112651N1+00601+00301999999ADDGA1021+005401999GA2071+018001999GF107991999999999999999999MA1102201999999REMMET066METAR ETSI 051120Z 26011KT 9999 FEW018 BKN060 06/03 Q1022 BLU BLU;
0165108600999992007010804004+48717+011533FM-12+0365ETSI V0200901N001012200019N0100001N1-00141-00201101831ADDGA1011+015001061GF103991011051017501001011MA1999999097291MD1710191+9999REMSYN082AAXX  08041 10860 43760 30901 11014 21020 39729 40183 57019 81501 333 81650 83068;
0149108600999992007010804204+48717+011533FM-15+0365ETSI V0209999V000510540019N0112651N1-00101-00101999999ADDGA1021+015001999GA2071+054001999GF107991999999999999999999MA1101491999999REMMET064METAR ETSI 080420Z VRB01KT 9999 FEW050 BKN180 M01/M01 Q1015 BLU;
0165108600999992007010805004+48717+011533FM-12+0365ETSI V0200601N00101220001CN0100001N1-00131-00201101751ADDGA1011+015001061GF105991011051017501001081MA1999999097221MD1710231+9999REMSYN082AAXX  08051 10860 42760 50601 11013 21020 39722 40175 57023 81508 333 81650 85268;
0153108600999992007010805204+48717+011533FM-15+0365ETSI V0209999V000510480019N0112651N1-00101-00101999999ADDGA1021+015001999GA2071+048001999GF107991999999999999999999MA1101491999999REMMET068METAR ETSI 080520Z VRB01KT 9999 FEW050 BKN160 M01/M01 Q1015 BLU BLU;
0186108600999992007010806204+48717+011533FM-15+0365ETSI V0200101N00101045001CN0112651N1-00101-00101999999ADDGA1021+015001999GA2041+045001999GA3071+057001999GF107991999999999999999999MA1101391999999REMMET085METAR ETSI 080620Z 01002KT 9999 FEW050 SCT150 BKN190 M01/M01 Q1014 BLU BLU TEMPO WHT;
0193108600999992007010807004+48717+011533FM-12+0365ETSI V0200301N00101036001CN0100001N1-00121-00121101661ADDAY121999AY221999GA1011+015001061GF106991011051017501011011MA1999999097131MD1710161+9999MW1111REMSYN088AAXX  08071 10860 41760 60301 11012 21012 39713 40166 57016 71122 81511 333 81650 85465;
0174108600999992007010807204+48717+011533FM-15+0365ETSI V0209999V000510450019N0112651N1-00101-00101999999ADDGA1021+015001999GA2071+045001999GF107991999999999999999999MA1101391999999MW1121REMMET083METAR ETSI 080720Z VRB01KT 9999 MIFG FEW050 BKN150 M01/M01 Q1014 BLU BLU TEMPO WHT;
0187108600999992007010808004+48717+011533FM-12+0365ETSI V0209999C00001036001CN0100001N1-00101-00111101631ADDGA1011+015001061GA2031+027001031GF106991011051017501031011MA1999999097111MD1710111+9999REMSYN088AAXX  08081 10860 42760 60000 11010 21011 39711 40163 57011 81531 333 81650 83359 85075;
0175108600999992007010808204+48717+011533FM-15+0365ETSI V0200701N00101024001CN0112651N1+00001-00101999999ADDGA1021+015001999GA2041+024001999GA3071+030001999GF107991999999999999999999MA1101391999999REMMET074METAR ETSI 080820Z 07002KT 9999 FEW050 SCT080 BKN100 00/M01 Q1014 BLU BLU;
0151108600999992007010809204+48717+011533FM-15+0365ETSI V0200601N001010240019N0112651N1+00201+00101999999ADDGA1021+015001999GA2071+024001999GF107991999999999999999999MA1101291999999REMMET066METAR ETSI 080920Z 06002KT 9999 FEW050 BKN080 02/01 Q1013 BLU BLU;
0187108600999992007010810004+48717+011533FM-12+0365ETSI V0200101N00101036001CN0150001N1+00261+00201101531ADDGA1011+015001061GA2031+021001031GF107991011051017501071999MA1999999097071MD1710061+9999REMSYN088AAXX  08101 10860 42765 70101 10026 20020 39707 40153 57006 8157/ 333 81650 83357 87461;
0174108600999992007010810204+48717+011533FM-15+0365ETSI V0209999C00001024001CN0112651N1+00401+00401999999ADDGA1021+015001999GA2041+024001999GA3071+033001999GF107991999999999999999999MA1101291999999REMMET073METAR ETSI 081020Z 00000KT 9999 FEW050 SCT080 BKN110 04/04 Q1013 BLU BLU;
0187108600999992007010811004+48717+011533FM-12+0365ETSI V0200601N00101036001CN0150001N1+00461+00371101421ADDGA1011+015001061GA2031+024001031GF107991011051017501071999MA1999999097001MD1710111+9999REMSYN088AAXX  08111 10860 42765 70601 10046 20037 39700 40142 57011 8157/ 333 81650 83358 87461;
0174108600999992007010811204+48717+011533FM-15+0365ETSI V0200801N001010270019N0112651N1+00601+00401999999ADDGA1021+012001999GA2071+027001999GA3071+033001999GF107991999999999999999999MA1101191999999REMMET073METAR ETSI 081120Z 08002KT 9999 FEW040 BKN090 BKN110 06/04 Q1012 BLU BLU;
0174108600999992007010812204+48717+011533FM-15+0365ETSI V0202401N003110210019N0112651N1+00901+00401999999ADDGA1021+015001999GA2071+021001999GA3071+033001999GF107991999999999999999999MA1101081999999REMMET073METAR ETSI 081220Z 24006KT 9999 FEW050 BKN070 BKN110 09/04 Q1011 BLU BLU;
0215108600999992007010813004+48717+011533FM-12+0365ETSI V0202301N003010210019N0200001N1+00981+00271101161ADDAY121999AY221999GA1021+012001061GA2051+021001031GF107991021051012501071999MA1999999096831MD1710241+9999MW1611REMSYN094AAXX  08131 10860 41670 72303 10098 20027 39683 40116 57024 76122 8257/ 333 82640 85357 87460;
0174108600999992007010813204+48717+011533FM-15+0365ETSI V0202001N002110210019N0112651N1+01001+00401999999ADDGA1021+012001999GA2071+021001999GA3071+030001999GF107991999999999999999999MA1101081999999REMMET073METAR ETSI 081320Z 20004KT 9999 FEW040 BKN070 BKN100 10/04 Q1011 BLU BLU;
0215108600999992007010814004+48717+011533FM-12+0365ETSI V0202201N00301015001CN0250001N1+01041+00201101101ADDAY121999AY221999GA1021+009001061GA2031+015001061GF107991041051008001071999MA1999999096781MD1710221+9999MW1211REMSYN094AAXX  08141 10860 41575 72203 10104 20020 39678 40110 57022 72122 8457/ 333 82630 83650 85358;
0174108600999992007010814204+48717+011533FM-15+0365ETSI V0202301N004610240019N0112651N1+01101+00201999999ADDGA1021+015001999GA2071+024001999GA3071+033001999GF107991999999999999999999MA1101021999999REMMET073METAR ETSI 081420Z 23009KT 9999 FEW050 BKN080 BKN110 11/02 Q1010 BLU BLU;
0184108600999992007010815204+48717+011533FM-15+0365ETSI V0202401N005710240019N0112651N1+01101+00201999999ADDGA1041+012001999GA2071+024001999GA3071+033001999GF107991999999999999999999MA1101081999999REMMET083METAR ETSI 081520Z 24011KT 9999 SCT040 BKN080 BKN110 11/02 Q1011 BLU BLU TEMPO WHT;
0187108600999992007010816004+48717+011533FM-12+0365ETSI V0202401N005010120019N0300001N1+01041+00271101171ADDGA1011+003001081GA2051+012001061GF107991051081004501031999MA1999999096851MD1310021+9999REMSYN088AAXX  08161 10860 42480 72405 10104 20027 39685 40117 53002 8583/ 333 81810 85640 87358;
0182108600999992007010816204+48717+011533FM-15+0365ETSI V0202401N005710120019N0112651N1+01001+00301999999ADDGA1021+003001999GA2071+012001999GA3071+024001999GF107991999999999999999999MA1101081999999REMMET081METAR ETSI 081620Z 24011KT 9999 FEW010 BKN040 BKN080 10/03 Q1011 BLU FCST CANCEL;
0165108600999992007010817004+48717+011533FM-12+0365ETSI V0202401N00501009001CN0300001N1+01021+00381101231ADDGA1011+003001081GF107991071081004501999999MA1999999096901MD1210121+9999REMSYN082AAXX  08171 10860 42480 72405 10102 20038 39690 40123 52012 878// 333 81810 87640;
0168108600999992007010817204+48717+011533FM-15+0365ETSI V0202401N005710090019N0112651N1+01001+00301999999ADDGA1021+003001999GA2071+009001999GF107991999999999999999999MA1101191999999MW1611OC101131REMMET069METAR ETSI 081720Z 24011G22KT 9999 -RA FEW010 BKN030 10/03 Q1012 BLU;
0157108600999992007010818204+48717+011533FM-15+0365ETSI V0202401N005110120019N0112651N1+00901+00401999999ADDGA1021+003001999GA2071+012001999GF107991999999999999999999MA1101291999999MW1611REMMET066METAR ETSI 081820Z 24010KT 9999 -RA FEW010 BKN040 09/04 Q1013 BLU;
0193108600999992007010819004+48717+011533FM-12+0365ETSI V0202401N00401009001CN0250001N1+00871+00421101351ADDAY161999AY261999GA1011+003001081GF107991071081004501999999MA1999999097001MD1210151+9999MW1611REMSYN088AAXX  08191 10860 41475 72404 10087 20042 39700 40135 52015 76166 878// 333 81810 87640;
0159108600999992007010904004+48717+011533FM-12+0365ETSI V0202501N005010066019N0250001N1+00981+00511101441ADDGA1081+006601061GF108991081051008001999999MA1999999097101MD1210111+9999REMSYN076AAXX  09041 10860 42575 82505 10098 20051 39710 40144 52011 885// 333 88622;
0147108600999992007010904204+48717+011533FM-15+0365ETSI V0202501N005110060019N0112651N1+01001+00501999999ADDGA1041+005101999GA2081+006001999GF108991999999999999999999MA1101391999999REMMET062METAR ETSI 090420Z 25010KT 9999 SCT017 OVC020 10/05 Q1014 WHT;
0165108600999992007010905004+48717+011533FM-12+0365ETSI V0202501N00501004201CN0350001N1+00971+00531101501ADDGA1011+005101061GF108991081051004501999999MA1999999097161MD1210141+9999REMSYN082AAXX  09051 10860 42481 82505 10097 20053 39716 40150 52014 885// 333 81617 88620;
0161108600999992007010905204+48717+011533FM-15+0365ETSI V0202501N005110060019N0112651N1+01001+00501999999ADDGA1021+005101999GA2081+006001999GF108991999999999999999999MA1101491999999REMMET076METAR ETSI 090520Z 25010KT 9999 FEW017 OVC020 10/05 Q1015 WHT BLU TEMPO WHT;
0171108600999992007010906204+48717+011533FM-15+0365ETSI V0202301N003110060019N0112651N1+01001+00501999999ADDGA1021+005101999GA2071+006001999GF107991999999999999999999MA1101491999999MW1611REMMET080METAR ETSI 090620Z 23006KT 9999 -RA FEW017 BKN020 10/05 Q1015 WHT BLU TEMPO WHT;
0193108600999992007010907004+48717+011533FM-12+0365ETSI V0202301N004010063019N0150001N1+00981+00541101611ADDAY161999AY221999GA1051+006301061GF108991071051008001999999MA1999999097261MD1210161+9999MW1611REMSYN088AAXX  09071 10860 41565 82304 10098 20054 39726 40161 52016 76162 875// 333 85621 87630;
0171108600999992007010907204+48717+011533FM-15+0365ETSI V0202401N004110051019N0112651N1+01001+00501999999ADDGA1071+005101999GA2071+008401999GF107991999999999999999999MA1101591999999MW1611REMMET080METAR ETSI 090720Z 24008KT 9999 -RA BKN017 BKN028 10/05 Q1016 WHT BLU TEMPO WHT;
0193108600999992007010908004+48717+011533FM-12+0365ETSI V0202401N004010051019N0150001N1+00951+00491101681ADDAY161999AY261999GA1061+005101061GF108991081051004501999999MA1999999097331MD1210171+9999MW1611REMSYN088AAXX  09081 10860 41465 82404 10095 20049 39733 40168 52017 76166 885// 333 86617 88628;
0194108600999992007010908204+48717+011533FM-15+0365ETSI V0202401N004610045019N0112651N1+00901+00601999999ADDGA1021+003901999GA2071+004501999GA3071+008401999GF107991999999999999999999MA1101691999999MW1611REMMET087METAR ETSI 090820Z 24009KT 9999 -RA FEW013 BKN015 BKN028 09/06 Q1017 WHT BLU TEMPO WHT;
0194108600999992007010909204+48717+011533FM-15+0365ETSI V0202401N003610045019N0112651N1+01001+00601999999ADDGA1041+003901999GA2071+004501999GA3081+018001999GF108991999999999999999999MA1101691999999MW1611REMMET087METAR ETSI 090920Z 24007KT 9999 -RA SCT013 BKN015 OVC060 10/06 Q1017 WHT BLU TEMPO WHT;
0215108600999992007010910004+48717+011533FM-12+0365ETSI V0202401N003010045019N0450001N1+00971+00601101841ADDAY161999AY261999GA1011+003901081GA2051+004501061GF107991071081004501999999MA1999999097481MD1210221+9999MW1601REMSYN094AAXX  09101 10860 41483 72403 10097 20060 39748 40184 52022 76066 878// 333 81813 85615 87656;
0184108600999992007010910204+48717+011533FM-15+0365ETSI V0202301N00361004501CN0112651N1+01001+00701999999ADDGA1021+003901999GA2041+004501999GA3071+009001999GF107991999999999999999999MA1101801999999REMMET083METAR ETSI 091020Z 23007KT 9999 FEW013 SCT015 BKN030 10/07 Q1018 BLU BLU TEMPO WHT;
0215108600999992007010911004+48717+011533FM-12+0365ETSI V0202501N004010090019N0450001N1+01061+00751101811ADDAY121999AY221999GA1011+003901081GA2061+009001061GF107991071081004501999999MA1999999097471MD1210141+9999MW1211REMSYN094AAXX  09111 10860 41483 72504 10106 20075 39747 40181 52014 72122 878// 333 81813 86630 87656;
0184108600999992007010911204+48717+011533FM-15+0365ETSI V0202401N00361006001CN0112651N1+01101+00701999999ADDGA1021+004501999GA2041+006001999GA3071+018001999GF107991999999999999999999MA1101691999999REMMET083METAR ETSI 091120Z 24007KT 9999 FEW015 SCT020 BKN060 11/07 Q1017 BLU BLU TEMPO WHT;
0184108600999992007010912204+48717+011533FM-15+0365ETSI V0202401N004610150019N0112651N1+01101+00601999999ADDGA1021+006001999GA2071+015001999GA3071+024001999GF107991999999999999999999MA1101691999999REMMET083METAR ETSI 091220Z 24009KT 9999 FEW020 BKN058 BKN080 11/06 Q1017 BLU BLU TEMPO WHT;
0187108600999992007010913004+48717+011533FM-12+0365ETSI V0202401N004010120019N0450001N1+01151+00671101791ADDGA1011+006001081GA2051+012001061GF107991051081008001031999MA1999999097461MD1010041+9999REMSYN088AAXX  09131 10860 42583 72404 10115 20067 39746 40179 50004 8583/ 333 81820 85640 87358;
0151108600999992007010913204+48717+011533FM-15+0365ETSI V0202501N003610090019N0112651N1+01201+00801999999ADDGA1021+006001999GA2071+009001999GF107991999999999999999999MA1101801999999REMMET066METAR ETSI 091320Z 25007KT 9999 FEW020 BKN030 12/08 Q1018 BLU BLU;
0165108600999992007010914004+48717+011533FM-12+0365ETSI V0202501N00501012001CN0450001N1+01201+00781101831ADDGA1011+006001081GF107991071081008001999999MA1999999097511MD1310041+9999REMSYN082AAXX  09141 10860 42583 72505 10120 20078 39751 40183 53004 878// 333 81820 87630;
0151108600999992007010914204+48717+011533FM-15+0365ETSI V0202501N004610114019N0112651N1+01201+00801999999ADDGA1021+006001999GA2071+011401999GF107991999999999999999999MA1101801999999REMMET066METAR ETSI 091420Z 25009KT 9999 FEW020 BKN038 12/08 Q1018 BLU BLU;
0174108600999992007010915204+48717+011533FM-15+0365ETSI V0202401N00411007501CN0112651N1+01201+00701999999ADDGA1021+006001999GA2041+007501999GA3071+014101999GF107991999999999999999999MA1101801999999REMMET073METAR ETSI 091520Z 24008KT 9999 FEW020 SCT025 BKN047 12/07 Q1018 BLU BLU;
0165108600999992007010916004+48717+011533FM-12+0365ETSI V0202401N00401036001CN0400001N1+01161+00661101911ADDGA1011+006001081GF105991041081008001041001MA1999999097581MD1210121+9999REMSYN082AAXX  09161 10860 42582 52404 10116 20066 39758 40191 52012 84840 333 81820 84650;
0159108600999992007010916204+48717+011533FM-15+0365ETSI V0202401N002612200019N0112651N1+01001+00801999999ADDGA1021+006001999GA2041+015001999GF104991999999999999999999MA1101901999999REMMET074METAR ETSI 091620Z 24005KT 9999 FEW020 SCT050 10/08 Q1019 BLU+FCST CANCEL;
0159108600999992007010917004+48717+011533FM-12+0365ETSI V0202201N002012200019N0300001N1+01031+00801101971ADDGA1021+015001061GF102991021051017501041001MA1999999097621MD1210111+9999REMSYN076AAXX  09171 10860 42780 22202 10103 20080 39762 40197 52011 82540 333 82650;
0125108600999992007010917204+48717+011533FM-15+0365ETSI V0202301N002112200019N0112651N1+01001+00801999999ADDGA1041+015001999GF104991999999999999999999MA1101901999999REMMET056METAR ETSI 091720Z 23004KT 9999 SCT050 10/08 Q1019 BLU+;
0124108600999992007010918204+48717+011533FM-15+0365ETSI V0202401N003110150019N0112651N1+01101+00701999999ADDGA1071+015001999GF107991999999999999999999MA1102001999999REMMET055METAR ETSI 091820Z 24006KT 9999 BKN050 11/07 Q1020 BLU;
0159108600999992007010919004+48717+011533FM-12+0365ETSI V0202501N005010150019N0300001N1+01141+00741102081ADDGA1051+015001061GF105991051051017501041001MA1999999097741MD1210161+9999REMSYN076AAXX  09191 10860 42780 52505 10114 20074 39774 40208 52016 85540 333 85650;
0177108600999992007011004004+48717+011533FM-12+0365ETSI V0201701N00101012001CN0200001N1+00471+00341102381ADDGA1021+012001061GF105991051051012501001001MA1999999097921MD1810021+9999MW1121REMSYN088AAXX  10041 10860 41670 51701 10047 20034 39792 40238 58002 712// 85500 333 82640 83656;
0136108600999992007011004204+48717+011533FM-15+0365ETSI V0201501N000512200019N0112651N1+00401+00401999999ADDGA1041+012001999GF104991999999999999999999MA1102201999999MW1121REMMET061METAR ETSI 100420Z 15001KT 9999 MIFG SCT040 04/04 Q1022 BLU+;
0187108600999992007011005004+48717+011533FM-12+0365ETSI V0209999V001010120019N0200001N1+00371+00281102391ADDAY121999AY221999GA1071+012001061GF107991071051012501999999MA1999999097911MD1710041+9999MW1121REMSYN082AAXX  10051 10860 41670 79901 10037 20028 39791 40239 57004 71222 875// 333 87640;
0140108600999992007011005204+48717+011533FM-15+0365ETSI V0203001N000510135019N0112651N1+00501+00501999999ADDGA1071+013501999GF107991999999999999999999MA1102201999999MW1121REMMET065METAR ETSI 100520Z 30001KT 9999 MIFG BKN045 05/05 Q1022 BLU BLU+;
0207108600999992007011007004+48717+011533FM-12+0365ETSI V0200701N001010120019N0250001N1+00591+00541102291ADDGA1071+012001061GF107991071051012501999999MA1999999097861MD1710061+9999REMSYN124AAXX  10071 10860 42675 70701 10059 20054 39786 40229 57006 875// 333 87640 555 BOT 10042 20045 30056 40061 50063 999 31///;
0129108600999992007011007204+48717+011533FM-15+0365ETSI V0200201N001010120019N0112651N1+00601+00501999999ADDGA1071+012001999GF107991999999999999999999MA1102201999999REMMET060METAR ETSI 100720Z 02002KT 9999 BKN040 06/05 Q1022 BLU BLU+;
0165108600999992007011008004+48717+011533FM-12+0365ETSI V0209999V001010120019N0300001N1+00621+00491102281ADDGA1061+012001061GF107991061051012501001011MA1999999097851MD1710061+9999REMSYN082AAXX  10081 10860 42680 79901 10062 20049 39785 40228 57006 86501 333 86640 84070;
0145108600999992007011008204+48717+011533FM-15+0365ETSI V0200501N00151220001CN0112651N1+00601+00601999999ADDGA1071+012001999GA2041+060001999MA1102201999999REMMET067METAR ETSI 100820Z 05003KT 9999 BKN040 SCT200 06/06 Q1022 BLU BLU+;EQDQ01+000042SCOTCV
0152108600999992007011009204+48717+011533FM-15+0365ETSI V0200501N001012200019N0112651N1+00901+00701999999ADDGA1021+012001999GA2041+066001999GF104991999999999999999999MA1102201999999REMMET067METAR ETSI 100920Z 05002KT 9999 FEW040 SCT220 09/07 Q1022 BLU+BLU+;
0159108600999992007011010004+48717+011533FM-12+0365ETSI V0202001N001012200019N0400001N1+01141+00581102201ADDGA1011+012001061GF103991011051012501031011MA1999999097851MD1610011+9999REMSYN076AAXX  10101 10860 42682 32001 10114 20058 39785 40220 56001 81531 333 81640;
0129108600999992007011010204+48717+011533FM-15+0365ETSI V0202201N001512200019N0112651N1+01201+00601999999ADDGA1021+013501999GF102991999999999999999999MA1102101999999REMMET060METAR ETSI 101020Z 22003KT 9999 FEW045 12/06 Q1021 BLU+BLU+;
0159108600999992007011011004+48717+011533FM-12+0365ETSI V0202401N003012200019N0550001N1+01291+00631102101ADDGA1021+066001001GF104991031001999999031011MA1999999097781MD1810071+9999REMSYN076AAXX  10111 10860 42985 42403 10129 20063 39778 40210 58007 83031 333 82072;
0152108600999992007011011204+48717+011533FM-15+0365ETSI V0202101N002612200019N0112651N1+01401+00601999999ADDGA1021+036001999GA2041+063001999GF104991999999999999999999MA1102001999999REMMET067METAR ETSI 101120Z 21005KT 9999 FEW120 SCT210 14/06 Q1020 BLU+BLU+;
0152108600999992007011012204+48717+011533FM-15+0365ETSI V0202201N003112200019N0112651N1+01401+00601999999ADDGA1021+009001999GA2041+066001999GF104991999999999999999999MA1101901999999REMMET067METAR ETSI 101220Z 22006KT 9999 FEW030 SCT220 14/06 Q1019 BLU+BLU+;
0165108600999992007011013004+48717+011533FM-12+0365ETSI V0202201N00301036001CN0550001N1+01461+00671101901ADDGA1011+009001081GF106991011011008001031011MA1999999097611MD1710241+9999REMSYN082AAXX  10131 10860 42585 62203 10146 20067 39761 40190 57024 81131 333 81830 85076;
0152108600999992007011013204+48717+011533FM-15+0365ETSI V0202301N002110750019N0112651N1+01401+00601999999ADDGA1021+010501999GA2071+075001999GF107991999999999999999999MA1101901999999REMMET067METAR ETSI 101320Z 23004KT 9999 FEW035 BKN250 14/06 Q1019 BLU+BLU+;
0165108600999992007011014004+48717+011533FM-12+0365ETSI V0202201N00201036001CN0650001N1+01431+00701101881ADDGA1011+010501081GF106991011081012501031011MA1999999097591MD1710191+9999REMSYN082AAXX  10141 10860 42687 62202 10143 20070 39759 40188 57019 81831 333 81835 85073;
0152108600999992007011014204+48717+011533FM-15+0365ETSI V0201901N002112200019N0112651N1+01401+00701999999ADDGA1021+010501999GA2041+051001999GF104991999999999999999999MA1101901999999REMMET067METAR ETSI 101420Z 19004KT 9999 FEW035 SCT170 14/07 Q1019 BLU+BLU+;
0152108600999992007011015204+48717+011533FM-15+0365ETSI V0201701N001512200019N0112651N1+01301+00801999999ADDGA1021+045001999GA2041+060001999GF104991999999999999999999MA1101801999999REMMET067METAR ETSI 101520Z 17003KT 9999 FEW150 SCT200 13/08 Q1018 BLU+BLU+;
0165108600999992007011016004+48717+011533FM-12+0365ETSI V0201801N001012200019N0500001N1+01191+00711101881ADDGA1021+042001031GF104991021001999999031011MA1999999097561MD1610051+9999REMSYN082AAXX  10161 10860 42984 41801 10119 20071 39756 40188 56005 82031 333 82364 83070;
0159108600999992007011016204+48717+011533FM-15+0365ETSI V0201601N001012200019N0112651N1+01001+00601999999ADDGA1021+039001999GA2041+069001999GF104991999999999999999999MA1101901999999REMMET074METAR ETSI 101620Z 16002KT 9999 FEW130 SCT230 10/06 Q1019 BLU+FCST CANCEL;
0165108600999992007011017004+48717+011533FM-12+0365ETSI V0201901N002012200019N0450001N1+00821+00651101961ADDGA1021+039001031GF104991021001999999031011MA1999999097581MD1510011+9999REMSYN082AAXX  10171 10860 42983 41902 10082 20065 39758 40196 55001 82031 333 82363 83073;
0148108600999992007011017204+48717+011533FM-15+0365ETSI V0202201N001512200019N0112651N1+00801+00601999999ADDGA1021+030001999GA2041+069001999GF104991999999999999999999MA1101901999999REMMET063METAR ETSI 101720Z 22003KT 9999 FEW100 SCT230 08/06 Q1019 BLU+;
0125108600999992007011018204+48717+011533FM-15+0365ETSI V0202101N001512200019N0112651N1+01001+00701999999ADDGA1021+030001999GF102991999999999999999999MA1101901999999REMMET056METAR ETSI 101820Z 21003KT 9999 FEW100 10/07 Q1019 BLU+;
0165108600999992007011019004+48717+011533FM-12+0365ETSI V0202201N002012200019N0400001N1+00881+00561102011ADDGA1011+009001061GF104991011051008001031011MA1999999097631MD1210071+9999REMSYN082AAXX  10191 10860 42582 42202 10088 20056 39763 40201 52007 81531 333 81630 83361;
0159108600999992007011104004+48717+011533FM-12+0365ETSI V0202701N004010270019N0300001N1+00791+00451102471ADDGA1051+027001031GF105991051001999999031001MA1999999098061MD1110151+9999REMSYN076AAXX  11041 10860 43980 52704 10079 20045 39806 40247 51015 85030 333 85359;
0148108600999992007011104204+48717+011533FM-15+0365ETSI V0202701N003612200019N0112651N1+00801+00401999999ADDGA1041+009001999GA2041+024001999GF104991999999999999999999MA1102401999999REMMET063METAR ETSI 110420Z 27007KT 9999 SCT030 SCT080 08/04 Q1024 BLU+;
0159108600999992007011105004+48717+011533FM-12+0365ETSI V0202401N002012200019N0300001N1+00591+00331102531ADDGA1031+012001061GF104991031051012501031001MA1999999098081MD1110081+9999REMSYN076AAXX  11051 10860 42680 42402 10059 20033 39808 40253 51008 83530 333 83640;
0129108600999992007011105204+48717+011533FM-15+0365ETSI V0202301N002112200019N0112651N1+00601+00401999999ADDGA1021+012001999GF102991999999999999999999MA1102401999999REMMET060METAR ETSI 110520Z 23004KT 9999 FEW040 06/04 Q1024 BLU+BLU+;
0129108600999992007011106204+48717+011533FM-15+0365ETSI V0202301N001512200019N0112651N1+00601+00301999999ADDGA1041+006901999GF104991999999999999999999MA1102401999999REMMET060METAR ETSI 110620Z 23003KT 9999 SCT023 06/03 Q1024 BLU+BLU+;
0251108600999992007011107004+48717+011533FM-12+0365ETSI V0202601N003010690019N0500001N1+00561+00181102491ADDGA1031+006901061GA2031+018001061GA3061+069001001GF107991031051008001001021MA1999999098041MD1810021+9999REMSYN136AAXX  11071 10860 42584 72603 10056 20018 39804 40249 58002 83502 333 83623 83656 86073 555 BOT 10038 20049 30057 40062 50065 999 31///;
0175108600999992007011107204+48717+011533FM-15+0365ETSI V0202601N00311018001CN0112651N1+00601+00201999999ADDGA1021+007501999GA2041+018001999GA3071+069001999GF107991999999999999999999MA1102301999999REMMET074METAR ETSI 110720Z 26006KT 9999 FEW025 SCT060 BKN230 06/02 Q1023 BLU+BLU+;
0187108600999992007011108004+48717+011533FM-12+0365ETSI V0202701N002010180019N0400001N1+00511+00331102481ADDGA1041+006001061GA2031+018001061GF107991051051008001001021MA1999999098021MD1810061+9999REMSYN088AAXX  11081 10860 42582 72702 10051 20033 39802 40248 58006 85502 333 84620 83656 85073;
0152108600999992007011108204+48717+011533FM-15+0365ETSI V0209999V001010690019N0112651N1+00601+00201999999ADDGA1041+004801999GA2071+069001999GF107991999999999999999999MA1102301999999REMMET067METAR ETSI 110820Z VRB02KT 9999 SCT016 BKN230 06/02 Q1023 BLU+BLU+;
0152108600999992007011109204+48717+011533FM-15+0365ETSI V0202601N002610810019N0112651N1+00701+00201999999ADDGA1021+006001999GA2071+081001999GF107991999999999999999999MA1102301999999REMMET067METAR ETSI 110920Z 26005KT 9999 FEW020 BKN270 07/02 Q1023 BLU+BLU+;
0165108600999992007011110004+48717+011533FM-12+0365ETSI V0202801N00301220001CN0350001N1+00721+00331102341ADDGA1011+006001061GF106991011051008001001011MA1999999097921MD1810121+9999REMSYN082AAXX  11101 10860 42581 62803 10072 20033 39792 40234 58012 81501 333 81620 86072;
0152108600999992007011110204+48717+011533FM-15+0365ETSI V0202701N003110750019N0112651N1+00801+00401999999ADDGA1021+006001999GA2071+075001999GF107991999999999999999999MA1102101999999REMMET067METAR ETSI 111020Z 27006KT 9999 FEW020 BKN250 08/04 Q1021 BLU+BLU+;
0165108600999992007011111004+48717+011533FM-12+0365ETSI V0202701N00301220001CN0300001N1+00901+00471102191ADDGA1011+006001081GF105991011011008001001011MA1999999097811MD1710211+9999REMSYN082AAXX  11111 10860 42580 52703 10090 20047 39781 40219 57021 81101 333 81820 85075;
0152108600999992007011111204+48717+011533FM-15+0365ETSI V0202601N010310750019N0112651N1+01101+00301999999ADDGA1021+009601999GA2071+075001999GF107991999999999999999999MA1102001999999REMMET067METAR ETSI 111120Z 26020KT 9999 FEW032 BKN250 11/03 Q1020 BLU+BLU+;
0172108600999992007011112204+48717+011533FM-15+0365ETSI V0202601N010310750019N0112651N1+01101+00201999999ADDGA1021+011401999GA2071+075001999GF107991999999999999999999MA1101901999999OC101541REMMET079METAR ETSI 111220Z 26020G30KT 9999 FEW038 BKN250 11/02 Q1019 BLU+BLU+BECMG BLU;
0187108600999992007011113004+48717+011533FM-12+0365ETSI V0202601N008010720019N0600001N1+01141+00251101871ADDGA1011+011401081GA2071+072001001GF107991011021012501031011MA1999999097531MD1710391+9999REMSYN088AAXX  11131 10860 42686 72608 10114 20025 39753 40187 57039 81231 333 81838 87074 91115;
0161108600999992007011113204+48717+011533FM-15+0365ETSI V0202601N007710720019N0112651N1+01101+00301999999ADDGA1021+011401999GA2071+072001999GF107991999999999999999999MA1101801999999REMMET076METAR ETSI 111320Z 26015KT 9999 FEW038 BKN240 11/03 Q1018 BLU+BLU+BECMG BLU;
0259108600999992007011114004+48717+011533FM-12+0365ETSI V0202601N008010660019N0600001N1+01101+00331101811ADDGA1011+011401081GA2071+066001021GF107991011021012501031081MA1999999097471MD1710341+9999OA149999999REMSYN130AAXX  11141 10860 42686 72608 10110 20033 39747 40181 57034 81238 333 81838 87272 91113 555 BOT 10073 20062 30061 40061 999 31///;EQDQ01  00672WGOSPD
0185108600999992007011114204+48717+011533FM-15+0365ETSI V0202601N007710420019N0112651N1+01101+00201999999ADDGA1021+011401999GA2071+042001999GA3071+066001999GF107991999999999999999999MA1101691999999OC101291REMMET076METAR ETSI 111420Z 26015G25KT 9999 FEW038 BKN140 BKN220 11/02 Q1017 BLU BLU;
0174108600999992007011115204+48717+011533FM-15+0365ETSI V0202501N006210390019N0112651N1+01101+00201999999ADDGA1021+010501999GA2071+039001999GA3071+066001999GF107991999999999999999999MA1101591999999REMMET073METAR ETSI 111520Z 25012KT 9999 FEW035 BKN130 BKN220 11/02 Q1016 BLU BLU;
0209108600999992007011116004+48717+011533FM-12+0365ETSI V0202401N006010450019N0600001N1+01061-00021101601ADDGA1021+024001031GA2051+045001031GA3071+066001001GF107991061001999999071021MA1999999097261MD1710271+9999REMSYN094AAXX  11161 10860 42986 72406 10106 21002 39726 40160 57027 86072 333 82358 85365 87072 91012;
0183108600999992007011116204+48717+011533FM-15+0365ETSI V0202401N007210450019N0112651N1+01101-00101999999ADDGA1021+024001999GA2071+045001999GA3071+060001999GF107991999999999999999999MA1101491999999REMMET082METAR ETSI 111620Z 24014KT 9999 FEW080 BKN150 BKN200 11/M01 Q1015 BLU FCST CANCEL;
0182108600999992007011117034+48717+011533FM-16+0365ETSI V0202401N01031045001CN0112651N1+01101-00101999999ADDGA1021+015001999GA2041+045001999GA3071+054001999GF107991999999999999999999MA1101391999999OC101851REMMET073SPECI ETSI 111703Z 24020G36KT 9999 FEW050 SCT150 BKN180 11/M01 Q1014 BLU;
0182108600999992007011117204+48717+011533FM-15+0365ETSI V0202401N007710450019N0112651N1+01101-00101999999ADDGA1021+015001999GA2071+045001999GA3071+057001999GF107991999999999999999999MA1101391999999OC101341REMMET073METAR ETSI 111720Z 24015G26KT 9999 FEW050 BKN150 BKN190 11/M01 Q1014 BLU;
0182108600999992007011118084+48717+011533FM-16+0365ETSI V0202501N01131036001CN0112651N1+01101-00101999999ADDGA1021+015001999GA2041+036001999GA3071+057001999GF107991999999999999999999MA1101291999999OC101851REMMET073SPECI ETSI 111808Z 25022G36KT 9999 FEW050 SCT120 BKN190 11/M01 Q1013 BLU;
0182108600999992007011118204+48717+011533FM-15+0365ETSI V0202501N01131036001CN0112651N1+01101-00101999999ADDGA1021+015001999GA2041+036001999GA3071+051001999GF107991999999999999999999MA1101291999999OC101751REMMET073METAR ETSI 111820Z 25022G34KT 9999 FEW050 SCT120 BKN170 11/M01 Q1013 BLU;
0251108600999992007011119004+48717+011533FM-12+0365ETSI V0202501N010010330019N0600001N1+01121-00141101341ADDGA1011+015001061GA2051+033001031GA3071+054001001GF107991011051017501071021MA1999999097021MD1610241+9999OA149999999REMSYN106AAXX  11191 10860 42786 72510 10112 21014 39702 40134 56024 81572 333 81650 85361 87068 91017 91119 91212;EQDQ01  00982WGOSPD
0165108600999992007011204004+48717+011533FM-12+0365ETSI V0202901N008012200019N0300001N1+00781+00211102031ADDGA1011+009001061GF101991011051008001001001MA1999999097631MD1210331+9999REMSYN082AAXX  12041 10860 43580 12908 10078 20021 39763 40203 52033 81500 333 81630 91114;
0125108600999992007011204204+48717+011533FM-15+0365ETSI V0202801N007212200019N0112651N1+00801+00201999999ADDGA1021+015001999GF102991999999999999999999MA1102001999999REMMET056METAR ETSI 120420Z 28014KT 9999 FEW050 08/02 Q1020 BLU+;
0165108600999992007011205004+48717+011533FM-12+0365ETSI V0202801N00701012001CN0300001N1+00761+00141102131ADDGA1011+010501061GF105991051051012501001001MA1999999097721MD1210321+9999REMSYN082AAXX  12051 10860 42680 52807 10076 20014 39772 40213 52032 85500 333 81635 85650;
0157108600999992007011205204+48717+011533FM-15+0365ETSI V0202801N006210090019N0112651N1+00701+00201999999ADDGA1021+005401999GA2071+009001999GF107991999999999999999999MA1102101999999MW1611REMMET066METAR ETSI 120520Z 28012KT 9999 -RA FEW018 BKN030 07/02 Q1021 BLU;
0161108600999992007011206204+48717+011533FM-15+0365ETSI V0202801N007212200019N0112651N1+00701+00201999999ADDGA1041+008401999GA2041+013501999GF104991999999999999999999MA1102201999999REMMET076METAR ETSI 120620Z 28014KT 9999 SCT028 SCT045 07/02 Q1022 BLU+BLU+TEMPO BLU;
0237108600999992007011207004+48717+011533FM-12+0365ETSI V0202701N008010180019N0250001N1+00731+00161102431ADDAY121999AY221999GA1021+009301081GA2051+018001061GA3051+075001001GF107991061081008001001011MA1999999098011MD1210381+9999MW1211REMSYN100AAXX  12071 10860 41575 72708 10073 20016 39801 40243 52038 72122 86801 333 82831 85656 85075 91113;
0161108600999992007011207204+48717+011533FM-15+0365ETSI V0202801N006210750019N0112651N1+00701+00201999999ADDGA1021+009001999GA2071+075001999GF107991999999999999999999MA1102401999999REMMET076METAR ETSI 120720Z 28012KT 9999 FEW030 BKN250 07/02 Q1024 BLU+BLU+TEMPO BLU;
0187108600999992007011208004+48717+011533FM-12+0365ETSI V0202701N00701220001CN0300001N1+00701+00141102561ADDGA1011+008401081GA2031+009001061GF107991031081008001001011MA1999999098131MD1210411+9999REMSYN088AAXX  12081 10860 42580 72707 10070 20014 39813 40256 52041 83801 333 81828 83630 85075;
0161108600999992007011208204+48717+011533FM-15+0365ETSI V0202601N006712200019N0112651N1+00701+00101999999ADDGA1041+015001999GA2041+075001999GF104991999999999999999999MA1102511999999REMMET076METAR ETSI 120820Z 26013KT 9999 SCT050 SCT250 07/01 Q1025 BLU+BLU+TEMPO BLU;
0138108600999992007011209204+48717+011533FM-15+0365ETSI V0202501N006710120019N0112651N1+00701+00101999999ADDGA1071+012001999GF107991999999999999999999MA1102611999999REMMET069METAR ETSI 120920Z 25013KT 9999 BKN040 07/01 Q1026 BLU BLU+TEMPO BLU;
0165108600999992007011210004+48717+011533FM-12+0365ETSI V0202701N008010120019N0300001N1+00811+00061102701ADDGA1071+012001061GF107991071051012501999999MA1999999098281MD1210271+9999REMSYN082AAXX  12101 10860 42680 72708 10081 20006 39828 40270 52027 875// 333 87640 91113;
0138108600999992007011210204+48717+011533FM-15+0365ETSI V0202601N008710120019N0112651N1+00901+00001999999ADDGA1071+012001999GF107991999999999999999999MA1102611999999REMMET069METAR ETSI 121020Z 26017KT 9999 BKN040 09/00 Q1026 BLU BLU+TEMPO BLU;
0159108600999992007011211004+48717+011533FM-12+0365ETSI V0202701N009010105019N0300001N1+00821+00011102731ADDGA1061+010501061GF107991061051012501001011MA1999999098311MD1210181+9999REMSYN076AAXX  12111 10860 42680 72709 10082 20001 39831 40273 52018 86501 333 86635;
0172108600999992007011211204+48717+011533FM-15+0365ETSI V0202701N008712200019N0112651N1+00801+00101999999ADDGA1021+009001999GA2041+012001999GF104991999999999999999999MA1102611999999OC101391REMMET079METAR ETSI 121120Z 27017G27KT 9999 FEW030 SCT040 08/01 Q1026 BLU+BLU+TEMPO BLU;
0162108600999992007011212204+48717+011533FM-15+0365ETSI V0202701N009310420019N0112651N1+00901+00101999999ADDGA1041+015001999GA2071+042001999GF107991999999999999999999MA1102611999999OC101441REMMET069METAR ETSI 121220Z 27018G28KT 9999 SCT050 BKN140 09/01 Q1026 BLU BLU;
0193108600999992007011213004+48717+011533FM-12+0365ETSI V0202801N008010390019N0300001N1+00921+00011102721ADDGA1031+015001061GA2071+039001031GF107991031051017501031999MA1999999098311MD1110031+9999REMSYN094AAXX  12131 10860 42780 72808 10092 20001 39831 40272 51003 8353/ 333 83650 87363 91014 91115;
0159108600999992007011213204+48717+011533FM-15+0365ETSI V0202701N008210360019N0112651N1+00901+00101999999ADDGA1041+013501999GA2071+036001999GF107991999999999999999999MA1102611999999REMMET074METAR ETSI 121320Z 27016KT 9999 SCT045 BKN120 09/01 Q1026 BLU FCST CANCEL;
0170108600999992007011214204+48717+011533FM-15+0365ETSI V0202601N00721024001CN0112651N1+00901+00101999999ADDGA1021+009001999GA2041+024001999GA3071+030001999GF107991999999999999999999MA1102611999999REMMET069METAR ETSI 121420Z 26014KT 9999 FEW030 SCT080 BKN100 09/01 Q1026 BLU;
0147108600999992007011215204+48717+011533FM-15+0365ETSI V0202601N005710240019N0112651N1+00901+00201999999ADDGA1071+024001999GA2071+030001999GF107991999999999999999999MA1102611999999REMMET062METAR ETSI 121520Z 26011KT 9999 BKN080 BKN100 09/02 Q1026 BLU;
0124108600999992007011216204+48717+011533FM-15+0365ETSI V0202601N006210210019N0112651N1+00901+00201999999ADDGA1071+021001999GF107991999999999999999999MA1102611999999REMMET055METAR ETSI 121620Z 26012KT 9999 BKN070 09/02 Q1026 BLU;
0124108600999992007011217204+48717+011533FM-15+0365ETSI V0202401N005110150019N0112651N1+00901+00001999999ADDGA1071+015001999GF107991999999999999999999MA1102611999999REMMET055METAR ETSI 121720Z 24010KT 9999 BKN050 09/00 Q1026 BLU;
0147108600999992007011218204+48717+011533FM-15+0365ETSI V0202401N005710150019N0112651N1+00901+00101999999ADDGA1021+006001999GA2071+015001999GF107991999999999999999999MA1102611999999REMMET062METAR ETSI 121820Z 24011KT 9999 FEW020 BKN050 09/01 Q1026 BLU;
0155108600999992007011504004+48717+011533FM-12+0365ETSI V0201901N001012200019N0009001N1-00371-00391103471ADDGA1001+999999999GF100991001001999999001001MA1999999098821MD1810051+9999MW1481REMSYN066AAXX  15041 10860 41909 01901 11037 21039 39882 40347 58005 748//;
0088108600999992007011504204+48717+011533FM-15+0365ETSI V0209999C000012200019N0025001N1-00401-00501999999ADDMA1103181999999MW1411REMMET055METAR ETSI 150420Z 00000KT 2500 BCFG M04/M05 Q1032 YLO;
0171108600999992007011505004+48717+011533FM-12+0365ETSI V0200401N001012200019N0025001N1-00371-00421103431ADDAY101999AY201999GA1001+999999999GF100991001001999999001001MA1999999098781MD1710111+9999MW1281REMSYN066AAXX  15051 10860 41925 00401 11037 21042 39878 40343 57011 72800;
0102108600999992007011505204+48717+011533FM-15+0365ETSI V0209999C000012200019N0025001N1-00401-00401999999ADDMA1103121999999MW1411REMMET069METAR ETSI 150520Z 00000KT 2500 BCFG M04/M04 Q1031 YLO YLO TEMPO RED;
0111108600999992007011505404+48717+011533FM-16+0365ETSI V0200401N000512200019N0035001N1-00401-00401999999ADDMA1103121999999MW1101MW2401REMMET072SPECI ETSI 150540Z 04001KT 3500 VCFG BR M04/M04 Q1031 YLO YLO TEMPO RED;
0160108600999992007011506204+48717+011533FM-15+0365ETSI V0200701N000512200019N0035001N1-00401-00501999999ADDGA1021+000301999GF102991999999999999999999MA1103121999999MW1101MW2401REMMET079METAR ETSI 150620Z 07001KT 3500 VCFG BR FEW001 M04/M05 Q1031 YLO YLO TEMPO RED;
0356108600999992007011507004+48717+011533SY-MT+0365ETSI V0209999V001012200019N0035001N1-00441-00521103431ADDAY101999AY201999ED199U14009GA1041+000301999GF199999021061000751001001MA1103121098771MD1710051+9999MW1401REMSYN130AAXX  15071 10860 41135 29901 11044 21052 39877 40343 57005 74000 82600 333 82701 555 BOT 10001 20019 30035 40059 50068 999 34///;MET085SPECI ETSI 150700Z VRB01KT 2000 R25/1400 BCFG SCT001 M04/M05 Q1031 YLO YLO TEMPO RED;EQDQ01+000022SCOTCV
0171108600999992007011507124+48717+011533FM-16+0365ETSI V0209999C000010006019N0015001N1-00401-00401999999ADDED199U06509GA1071+000601999GF107991999999999999999999MA1103121999999MW1411REMMET085SPECI ETSI 150712Z 00000KT 1500 R25/0650 BCFG BKN002 M04/M04 Q1031 AMB YLO TEMPO RED;
0171108600999992007011507204+48717+011533FM-15+0365ETSI V0200101N000510003019N0012001N1-00401-00401999999ADDED199U04509GA1071+000301999GF107991999999999999999999MA1103121999999MW1411REMMET085METAR ETSI 150720Z 01001KT 1200 R25/0450 BCFG BKN001 M04/M04 Q1031 RED YLO TEMPO RED;
0187108600999992007011508004+48717+011533FM-12+0365ETSI V0200601N001010003019N0010001N1-00351-00411103481ADDAY121999AY221999GA1051+000301071GF105991051061000751001001MA1999999098831MD1510051+9999MW1411REMSYN082AAXX  15081 10860 41110 50601 11035 21041 39883 40348 55005 74122 85600 333 85701;
0170108600999992007011508104+48717+011533FM-16+0365ETSI V0200701N001010003019N0005001N1-00301-00301999999ADDED199U02509GA1091+000301999GF109991999999000251999999MA1103181999999MW1491REMMET084SPECI ETSI 150810Z 07002KT 0500 R25/0250 FZFG VV001 M03/M03 Q1032 RED YLO TEMPO RED;
0170108600999992007011508204+48717+011533FM-15+0365ETSI V0200701N001010003019N0002001N1-00301-00301999999ADDED199U02509GA1091+000301999GF109991999999000251999999MA1103181999999MW1491REMMET084METAR ETSI 150820Z 07002KT 0200 R25/0250 FZFG VV001 M03/M03 Q1032 RED YLO TEMPO RED;
0171108600999992007011509204+48717+011533FM-15+0365ETSI V0200101N001010003019N0003001N1-00201-00201999999ADDED199U06009GA1071+000301999GF107991999999999999999999MA1103121999999MW1481REMMET085METAR ETSI 150920Z 01002KT 0300 R25/0600 FZFG BKN001 M02/M02 Q1031 RED RED BECMG YLO;
0187108600999992007011510004+48717+011533FM-12+0365ETSI V0200101N001010003019N0004001N1-00191-00221103391ADDAY141999AY241999GA1051+000301071GF105991051061000751001001MA1999999098781MD1010011+9999MW1481REMSYN082AAXX  15101 10860 41104 50101 11019 21022 39878 40339 50001 74844 85600 333 85701;
0171108600999992007011510204+48717+011533FM-15+0365ETSI V0209999V000510003019N0004001N1-00101-00101999999ADDED199U03509GA1071+000301999GF107991999999999999999999MA1103121999999MW1481REMMET085METAR ETSI 151020Z VRB01KT 0400 R25/0350 FZFG BKN001 M01/M01 Q1031 RED RED BECMG YLO;
0171108600999992007011510404+48717+011533FM-16+0365ETSI V0202901N000512200019N0005001N1+00001+00001999999ADDED199U03009GA1041+000601999GF104991999999999999999999MA1103011999999MW1481REMMET085SPECI ETSI 151040Z 29001KT 0500 R25/0300 FZFG SCT002 M00/M00 Q1030 RED RED BECMG YLO;
0287108600999992007011511004+48717+011533SY-MT+0365ETSI V0209999V001012200019N0007001N1+00001+00001103261ADDAY141999AY241999ED199U32009GA1021+000601999GF103991031061000751001001MA1103011098681MD1710151+9999MW1281REMSYN082AAXX  15111 10860 41107 39901 10000 20000 39868 40326 57015 72844 83600 333 83702;MET083SPECI ETSI 151100Z VRB01KT 1200 R25/3200 BCFG FEW002 01/01 Q1030 AMB AMB BECMG YLO;
0169108600999992007011511204+48717+011533FM-15+0365ETSI V0203101N000512200019N0010001N1+00101+00001999999ADDED199U50009GA1021+000601999GF102991999999999999999999MA1103011999999MW1411REMMET083METAR ETSI 151120Z 31001KT 1000 R25/5000 BCFG FEW002 01/00 Q1030 AMB AMB BECMG YLO;
0169108600999992007011511304+48717+011533FM-15+0365ETSI V0203401N001012200019N0016001N1+00101+00101999999ADDED199U99999GA1021+000601999GF102991999999999999999999MA1102911999999MW1401REMMET083SPECI ETSI 151130Z 34002KT 1600 R25/6000 VCFG FEW002 01/01 Q1029 YLO YLO TEMPO AMB;
0174108600999992007011511544+48717+011533FM-16+0365ETSI V0203401N001512200019N0012001N1+00201+00101999999ADDED199U99999GA1021+000601999GF102991999999999999999999MA1102911999999MW1401REMMET088SPECI ETSI 151154Z 34003KT 1200 R25/7000 VCFG FEW002 02/01 Q1029 BLACKAMB YLO TEMPO AMB;
0149108600999992007011512204+48717+011533FM-15+0365ETSI V0203401N001012200019N0050001N1+00301+00201999999ADDGA1021+000601999GF102991999999999999999999MA1102911999999MW1401REMMET074METAR ETSI 151220Z 34002KT 5000 VCFG FEW002 03/02 Q1029 WHT WHT TEMPO AMB;
0129108600999992007011512464+48717+011533FM-16+0365ETSI V0209999V000512200019N0090001N1+00501+00201999999ADDGA1021+075001999GF102991999999999999999999MA1102811999999REMMET060SPECI ETSI 151246Z VRB01KT 9000 FEW250 05/02 Q1028 BLU+BLU+;
0159108600999992007011513004+48717+011533FM-12+0365ETSI V0209999V001012200019N0090001N1+00461+00241102971ADDGA1021+075001001GF102991001001999999001011MA1999999098481MD1710301+9999REMSYN076AAXX  15131 10860 42959 29901 10046 20024 39848 40297 57030 80001 333 82075;
0129108600999992007011513204+48717+011533FM-15+0365ETSI V0200601N001012200019N0112651N1+00601+00201999999ADDGA1021+075001999GF102991999999999999999999MA1102711999999REMMET060METAR ETSI 151320Z 06002KT 9999 FEW250 06/02 Q1027 BLU+BLU+;
0201108600999992007011514004+48717+011533FM-12+0365ETSI V0203601N002012200019N0100001N1+00591+00201102831ADDGA1021+084001001GF102991001001999999001011MA1999999098371MD1710311+9999REMSYN118AAXX  15141 10860 42960 23602 10059 20020 39837 40283 57031 80001 333 82078 555 BOT 10002 20014 30031 40054 999 31///;
0129108600999992007011514204+48717+011533FM-15+0365ETSI V0200101N001512200019N0112651N1+00601+00201999999ADDGA1021+084001999GF102991999999999999999999MA1102611999999REMMET060METAR ETSI 151420Z 01003KT 9999 FEW280 06/02 Q1026 BLU+BLU+;
0140108600999992007011515204+48717+011533FM-15+0365ETSI V0200301N001512200019N0080001N1+00601+00301999999ADDGA1041+084001999GF104991999999999999999999MA1102611999999MW1401REMMET065METAR ETSI 151520Z 03003KT 8000 VCFG SCT280 06/03 Q1026 BLU+BLU+;
0285108600999992007011516004+48717+011533SY-MT+0365ETSI V0200501N001612200019N0080001N1+00441+00161102761ADDAY101999AY201999GA1041+084001999GF199999001001999999001011MA1102611098281MD1710201+9999MW1401REMSYN082AAXX  15161 10860 41958 39901 10044 20016 39828 40276 57020 74000 80001 333 83078;MET073SPECI ETSI 151600Z 05003KT 5000 VCFG SCT280 01/M00 Q1026 WHT FCST CANCEL;EQDQ01+000032SCOTCV
0136108600999992007011516204+48717+011533FM-15+0365ETSI V0209999V000512200019N0035001N1+00001-00101999999ADDGA1041+084001999GF104991999999999999999999MA1102611999999MW1401REMMET061METAR ETSI 151620Z VRB01KT 3500 VCFG SCT280 00/M01 Q1026 YLO;
0137108600999992007011516434+48717+011533FM-16+0365ETSI V0201801N000512200019N0050001N1-00101-00301999999ADDGA1021+084001999GF102991999999999999999999MA1102611999999MW1401REMMET062SPECI ETSI 151643Z 18001KT 5000 VCFG FEW280 M01/M03 Q1026 WHT;
0187108600999992007011517004+48717+011533FM-12+0365ETSI V0201701N001012200019N0050001N1-00141-00341102891ADDAY101999AY201999GA1011+084001001GF101991001001999999001011MA1999999098311MD1510061+9999MW1401REMSYN082AAXX  15171 10860 41950 11701 11014 21034 39831 40289 55006 74000 80001 333 81078;
0158108600999992007011517114+48717+011533FM-16+0365ETSI V0201601N001012200019N0080001N1-00201-00201999999ADDED199U10009GA1021+063001999GF102991999999999999999999MA1102611999999MW1121REMMET072SPECI ETSI 151711Z 16002KT 8000 R25/1000 MIFG FEW210 M02/M02 Q1026 BLU+;
0158108600999992007011517204+48717+011533FM-15+0365ETSI V0201701N001012200019N0080001N1-00201-00201999999ADDED199U13009GA1021+063001999GF102991999999999999999999MA1102611999999MW1121REMMET072METAR ETSI 151720Z 17002KT 8000 R25/1300 MIFG FEW210 M02/M02 Q1026 BLU+;
0138108600999992007011518204+48717+011533FM-15+0365ETSI V0209999C000012200019N0080001N1-00201-00201999999ADDGA1021+090001999GF102991999999999999999999MA1102611999999MW1121REMMET063METAR ETSI 151820Z 00000KT 8000 MIFG FEW300 M02/M02 Q1026 BLU+;
0146108600999992007011518384+48717+011533FM-16+0365ETSI V0202001N000512200019N0050001N1-00301-00301999999ADDGA1021+090001999GF102991999999999999999999MA1102611999999MW1101MW2121REMMET065SPECI ETSI 151838Z 20001KT 5000 MIFG BR FEW300 M03/M03 Q1026 WHT;
0187108600999992007011519004+48717+011533FM-12+0365ETSI V0201901N001012200019N0050001N1-00261-00391102861ADDAY101999AY201999GA1011+090001001GF101991001001999999001011MA1999999098261MD1810021+9999MW1111REMSYN082AAXX  15191 10860 41950 11901 11026 21039 39826 40286 58002 71100 80001 333 81080;
0165108600999992007011604004+48717+011533FM-12+0365ETSI V0202601N003010003019N0006001N1-00011-00011102761ADDGA1091+000301999GF109991091999999999999999MA1999999098201MD1010011+9999MW1491REMSYN076AAXX  16041 10860 41/06 92603 11001 21001 39820 40276 50001 749// 333 89/01;
0156108600999992007011604204+48717+011533FM-15+0365ETSI V0202401N001510003019N0006001N1+00001-00101999999ADDED199U20009GA1091+000301999GF109991999999000251999999MA1102511999999MW1491REMMET070METAR ETSI 160420Z 24003KT 0600 R25/2000 FZFG VV001 M00/M01 Q1025 RED;
0181108600999992007011605004+48717+011533FM-12+0365ETSI V0202301N002010003019N0006001N1+00001-00121102731ADDAY141999AY241999GA1091+000301999GF109991091999999999999999MA1999999098181MD1710041+9999MW1491REMSYN076AAXX  16051 10860 41/06 92302 10000 21012 39818 40273 57004 74944 333 89/01;
0157108600999992007011605204+48717+011533FM-15+0365ETSI V0202101N001510006019N0007001N1+00001-00101999999ADDED199U14009GA1091+000601999GF109991999999000251999999MA1102511999999MW1451REMMET071METAR ETSI 160520Z 21003KT 0700 R25/1400 FG VV002 00/M01 Q1025 RED RED;
0167108600999992007011606034+48717+011533FM-16+0365ETSI V0202301N001510006019N0008001N1+00001-00101999999ADDED199U14009GA1091+000601999GF109991999999000251999999MA1102511999999MW1451REMMET081SPECI ETSI 160603Z 23003KT 0800 R25/1400 FG VV002 00/M01 Q1025 AMB AMB TEMPO RED;
0167108600999992007011606204+48717+011533FM-15+0365ETSI V0202201N002110006019N0008001N1+00001-00101999999ADDED199U19009GA1091+000601999GF109991999999000251999999MA1102511999999MW1451REMMET081METAR ETSI 160620Z 22004KT 0800 R25/1900 FG VV002 00/M01 Q1025 AMB AMB TEMPO RED;
0235108600999992007011607004+48717+011533FM-12+0365ETSI V0202101N002010006019N0009001N1+00011-00031102761ADDAY141999AY241999GA1081+000601071GF108991081061000751999999MA1999999098211MD1310011+9999MW1481REMSYN130AAXX  16071 10860 41109 82102 10001 21003 39821 40276 53001 74844 886// 333 88702 555 BOT 10000 20011 30024 40049 50066 999 31///;
0168108600999992007011607204+48717+011533FM-15+0365ETSI V0201901N001510006019N0009001N1+00001-00101999999ADDED199U00509GA1081+000601999GF108991999999999999999999MA1102511999999MW1441REMMET082METAR ETSI 160720Z 19003KT 0900 R25/0050 FG OVC002 00/M01 Q1025 AMB AMB TEMPO RED;
0187108600999992007011608004+48717+011533FM-12+0365ETSI V0201901N002010006019N0009001N1+00051-00041102791ADDAY141999AY241999GA1081+000601071GF108991081061000751999999MA1999999098241MD1310061+9999MW1481REMSYN082AAXX  16081 10860 41109 81902 10005 21004 39824 40279 53006 74844 886// 333 88702;
0167108600999992007011608014+48717+011533FM-16+0365ETSI V0201801N001010009019N0010001N1+00101+00101999999ADDED199U24009GA1081+000901999GF108991999999999999999999MA1102511999999MW1101REMMET081SPECI ETSI 160801Z 18002KT 1000 R25/2400 BR OVC003 01/01 Q1025 AMB AMB TEMPO RED;
0168108600999992007011608204+48717+011533FM-15+0365ETSI V0201701N001010012019N0013001N1+00101+00001999999ADDED199U26009GA1081+001201999GF108991999999999999999999MA1102611999999MW1101REMMET082METAR ETSI 160820Z 17002KT 1300 R25/2600 BR OVC004 01/M00 Q1026 AMB AMB TEMPO RED;
0177108600999992007011609134+48717+011533FM-16+0365ETSI V0201801N001010006019N0011001N1+00101+00101999999ADDED199U00509GA1081+000601999GF108991999999999999999999MA1102611999999MW1101MW2511REMMET085SPECI ETSI 160913Z 18002KT 1100 R25/0050 -DZ BR OVC002 01/01 Q1026 AMB AMB TEMPO RED;
0177108600999992007011609204+48717+011533FM-15+0365ETSI V0201801N001010006019N0009001N1+00201+00101999999ADDED199U00509GA1081+000601999GF108991999999999999999999MA1102611999999MW1441MW2511REMMET085METAR ETSI 160920Z 18002KT 0900 R25/0050 -DZ FG OVC002 02/01 Q1026 AMB AMB TEMPO RED;
0177108600999992007011609354+48717+011533FM-16+0365ETSI V0201801N001010003019N0007001N1+00201+00101999999ADDED199U00509GA1081+000301999GF108991999999999999999999MA1102611999999MW1441MW2511REMMET085SPECI ETSI 160935Z 18002KT 0700 R25/0050 -DZ FG OVC001 02/01 Q1026 RED AMB TEMPO RED;
0187108600999992007011610004+48717+011533FM-12+0365ETSI V0201901N001010003019N0007001N1+00191+00081102761ADDAY151999AY241999GA1081+000301071GF108991081061000751999999MA1999999098241MD1110031+9999MW1511REMSYN082AAXX  16101 10860 41107 81901 10019 20008 39824 40276 51003 75154 886// 333 88701;
0177108600999992007011610204+48717+011533FM-15+0365ETSI V0202101N001510006019N0009001N1+00201+00101999999ADDED199U11009GA1081+000601999GF108991999999999999999999MA1102511999999MW1441MW2511REMMET085METAR ETSI 161020Z 21003KT 0900 R25/1100 -DZ FG OVC002 02/01 Q1025 AMB AMB TEMPO RED;
0177108600999992007011610274+48717+011533FM-16+0365ETSI V0202301N002110009019N0012001N1+00201+00101999999ADDED199U10009GA1081+000901999GF108991999999999999999999MA1102511999999MW1101MW2511REMMET085SPECI ETSI 161027Z 23004KT 1200 R25/1000 -DZ BR OVC003 02/01 Q1025 AMB AMB TEMPO RED;
0167108600999992007011610474+48717+011533FM-16+0365ETSI V0202301N002110009019N0016001N1+00301+00101999999ADDED199U25009GA1081+000901999GF108991999999999999999999MA1102511999999MW1101REMMET081SPECI ETSI 161047Z 23004KT 1600 R25/2500 BR OVC003 03/01 Q1025 YLO YLO TEMPO RED;
0187108600999992007011611004+48717+011533FM-12+0365ETSI V0202301N002010009019N0016001N1+00251+00051102721ADDAY151999AY241999GA1081+000901071GF108991081061001501999999MA1999999098211MD1810031+9999MW1201REMSYN082AAXX  16111 10860 41216 82302 10025 20005 39821 40272 58003 72054 886// 333 88703;
0147108600999992007011611204+48717+011533FM-15+0365ETSI V0202301N002110012019N0025001N1+00301+00101999999ADDGA1081+001201999GF108991999999999999999999MA1102511999999MW1101REMMET072METAR ETSI 161120Z 23004KT 2500 BR OVC004 03/01 Q1025 YLO YLO TEMPO RED;
0137108600999992007011612004+48717+011533FM-15+0365ETSI V0202401N002110012019N0025001N1+00301+00201999999ADDGA1081+001201999GF108991999999999999999999MA1102511999999MW1101REMMET062SPECI ETSI 161200Z 24004KT 2500 BR OVC004 03/02 Q1025 YLO YLO;
0137108600999992007011612204+48717+011533FM-15+0365ETSI V0202401N001010012019N0025001N1+00301+00201999999ADDGA1081+001201999GF108991999999999999999999MA1102401999999MW1101REMMET062METAR ETSI 161220Z 24002KT 2500 BR OVC004 03/02 Q1024 YLO YLO;
0187108600999992007011613004+48717+011533FM-12+0365ETSI V0202301N002010012019N0025001N1+00321+00181102621ADDAY121999AY221999GA1081+001201071GF108991081061001501999999MA1999999098131MD1710111+9999MW1101REMSYN082AAXX  16131 10860 41225 82302 10032 20018 39813 40262 57011 71022 886// 333 88704;
0137108600999992007011613204+48717+011533FM-15+0365ETSI V0202301N001510012019N0025001N1+00301+00201999999ADDGA1081+001201999GF108991999999999999999999MA1102401999999MW1101REMMET062METAR ETSI 161320Z 23003KT 2500 BR OVC004 03/02 Q1024 YLO YLO;
0187108600999992007011614004+48717+011533FM-12+0365ETSI V0202401N002010012019N0028001N1+00341+00211102591ADDAY121999AY221999GA1081+001201071GF108991081061001501999999MA1999999098101MD1710111+9999MW1101REMSYN082AAXX  16141 10860 41228 82402 10034 20021 39810 40259 57011 71022 886// 333 88704;
0137108600999992007011614204+48717+011533FM-15+0365ETSI V0202301N000510015019N0028001N1+00401+00301999999ADDGA1081+001501999GF108991999999999999999999MA1102401999999MW1101REMMET062METAR ETSI 161420Z 23001KT 2800 BR OVC005 04/03 Q1024 YLO YLO;
0137108600999992007011615204+48717+011533FM-15+0365ETSI V0201401N001510012019N0025001N1+00301+00201999999ADDGA1081+001201999GF108991999999999999999999MA1102401999999MW1101REMMET062METAR ETSI 161520Z 14003KT 2500 BR OVC004 03/02 Q1024 YLO YLO;
0263108600999992007011616004+48717+011533SY-MT+0365ETSI V0201401N00101000901CN0020001N1+00331+00241102551ADDAY121999AY221999GA1071+000901999GF108991071061001501999999MA1102401098061MD1710071+9999MW1101REMSYN082AAXX  16161 10860 41220 81401 10033 20024 39806 40255 57007 71022 876// 333 87704;MET070SPECI ETSI 161600Z 16003KT 2000 BR BKN003 03/02 Q1024 YLO FCST CANCEL;
0133108600999992007011616204+48717+011533FM-15+0365ETSI V0201501N001010009019N0020001N1+00301+00201999999ADDGA1071+000901999GF107991999999999999999999MA1102401999999MW1101REMMET058METAR ETSI 161620Z 15002KT 2000 BR BKN003 03/02 Q1024 YLO;
0153108600999992007011616454+48717+011533FM-15+0365ETSI V0201601N001510006019N0015001N1+00301+00201999999ADDED199U35009GA1081+000601999GF108991999999999999999999MA1102401999999MW1101REMMET067SPECI ETSI 161645Z 16003KT 1500 R25/3500 BR OVC002 03/02 Q1024 AMB;
0187108600999992007011617004+48717+011533FM-12+0365ETSI V0201601N002010006019N0015001N1+00301+00241102591ADDAY121999AY221999GA1081+000601071GF108991081061000751999999MA1999999098091MD1510011+9999MW1101REMSYN082AAXX  16171 10860 41115 81602 10030 20024 39809 40259 55001 71022 886// 333 88702;
0153108600999992007011617204+48717+011533FM-15+0365ETSI V0201601N001510009019N0018001N1+00301+00201999999ADDED199U42009GA1081+000901999GF108991999999999999999999MA1102401999999MW1101REMMET067METAR ETSI 161720Z 16003KT 1800 R25/4200 BR OVC003 03/02 Q1024 YLO;
0133108600999992007011618204+48717+011533FM-15+0365ETSI V0201701N002110009019N0020001N1+00301+00101999999ADDGA1081+000901999GF108991999999999999999999MA1102401999999MW1101REMMET058METAR ETSI 161820Z 17004KT 2000 BR OVC003 03/01 Q1024 YLO;
0162108600999992007011618484+48717+011533FM-16+0365ETSI V0201501N002110006019N0015001N1+00201+00101999999ADDED199U20009GA1081+000601999GF108991999999999999999999MA1102401999999MW1101MW2531REMMET070SPECI ETSI 161848Z 15004KT 1500 R25/2000 DZ BR OVC002 02/01 Q1024 AMB;
0187108600999992007011619004+48717+011533FM-12+0365ETSI V0201501N002010006019N0015001N1+00231+00101102601ADDAY121999AY221999GA1081+000601071GF108991081061000751999999MA1999999098091MD1010031+9999MW1511REMSYN082AAXX  16191 10860 41115 81502 10023 20010 39809 40260 50003 75122 886// 333 88702;
0159108600999992007011704004+48717+011533FM-12+0365ETSI V0200401N001010210019N0090001N1+00181+00181102411ADDGA1071+021001061GF107991071051022501999999MA1999999097901MD1710071+9999REMSYN076AAXX  17041 10860 43859 70401 10018 20018 39790 40241 57007 875// 333 87657;
0147108600999992007011704204+48717+011533FM-15+0365ETSI V0200601N000510210019N0090001N1+00201+00201999999ADDGA1041+010501999GA2071+021001999GF107991999999999999999999MA1102201999999REMMET062METAR ETSI 170420Z 06001KT 9000 SCT035 BKN070 02/02 Q1022 BLU;
0165108600999992007011705004+48717+011533FM-12+0365ETSI V0200801N00101036001CN0090001N1+00201+00121102391ADDGA1031+015001061GF107991031051017501031999MA1999999097891MD1610061+9999REMSYN082AAXX  17051 10860 42759 70801 10020 20012 39789 40239 56006 8353/ 333 83650 87358;
0138108600999992007011705204+48717+011533FM-15+0365ETSI V0200701N000510120019N0090001N1+00201+00101999999ADDGA1071+012001999GF107991999999999999999999MA1102201999999REMMET069METAR ETSI 170520Z 07001KT 9000 BKN040 02/01 Q1022 BLU BLU TEMPO YLO;
0138108600999992007011706204+48717+011533FM-15+0365ETSI V0209999C000010120019N0112651N1+00301+00301999999ADDGA1071+012001999GF107991999999999999999999MA1102201999999REMMET069METAR ETSI 170620Z 00000KT 9999 BKN040 03/03 Q1022 BLU BLU TEMPO YLO;
0235108600999992007011707004+48717+011533FM-12+0365ETSI V0209999V001010150019N0070001N1+00271+00201102381ADDAY121999AY221999GA1071+015001061GF107991071051017501999999MA1999999097891MD1810011+9999MW1211REMSYN130AAXX  17071 10860 41757 79901 10027 20020 39789 40238 58001 72122 875// 333 87650 555 BOT 10021 20024 30032 40047 50063 999 31///;
0148108600999992007011707204+48717+011533FM-15+0365ETSI V0209999C000010141019N0070001N1+00301+00201999999ADDGA1071+014101999GF107991999999999999999999MA1102201999999MW1611REMMET073METAR ETSI 170720Z 00000KT 7000 -RA BKN047 03/02 Q1022 WHT BLU TEMPO YLO;
0193108600999992007011708004+48717+011533FM-12+0365ETSI V0209999V00101036001CN0070001N1+00301+00291102381ADDAY121999AY221999GA1031+013501061GF107991031051012501031999MA1999999097891MD1010001+9999MW1211REMSYN088AAXX  17081 10860 41657 79901 10030 20029 39789 40238 50000 72122 8353/ 333 83645 87358;
0161108600999992007011708204+48717+011533FM-15+0365ETSI V0209999V001010240019N0070001N1+00301+00201999999ADDGA1041+013501999GA2071+024001999GF107991999999999999999999MA1102201999999REMMET076METAR ETSI 170820Z VRB02KT 7000 SCT045 BKN080 03/02 Q1022 WHT BLU TEMPO WHT;
0138108600999992007011709204+48717+011533FM-15+0365ETSI V0209999C000010144019N0090001N1+00401+00401999999ADDGA1071+014401999GF107991999999999999999999MA1102201999999REMMET069METAR ETSI 170920Z 00000KT 9000 BKN048 04/04 Q1022 BLU BLU TEMPO WHT;
0165108600999992007011710004+48717+011533FM-12+0365ETSI V0202401N00101036001CN0090001N1+00561+00441102331ADDGA1031+015001061GF107991031051017501031999MA1999999097891MD1410001+9999REMSYN082AAXX  17101 10860 42759 72401 10056 20044 39789 40233 54000 8353/ 333 83650 85358;
0138108600999992007011710204+48717+011533FM-15+0365ETSI V0203001N001510150019N0090001N1+00701+00501999999ADDGA1071+015001999GF107991999999999999999999MA1102201999999REMMET069METAR ETSI 171020Z 30003KT 9000 BKN050 07/05 Q1022 BLU BLU TEMPO WHT;
0193108600999992007011711004+48717+011533FM-12+0365ETSI V0203001N00201012001CN0090001N1+00721+00581102281ADDAY161999AY221999GA1011+007501081GF107991071081008001999999MA1999999097871MD1810021+9999MW1611REMSYN088AAXX  17111 10860 41559 73002 10072 20058 39787 40228 58002 76162 878// 333 81825 87645;
0171108600999992007011711204+48717+011533FM-15+0365ETSI V0202401N002610135019N0090001N1+00801+00501999999ADDGA1021+007501999GA2071+013501999GF107991999999999999999999MA1102101999999MW1611REMMET080METAR ETSI 171120Z 24005KT 9000 -RA FEW025 BKN045 08/05 Q1021 BLU BLU TEMPO WHT;
0184108600999992007011712204+48717+011533FM-15+0365ETSI V0202301N002610150019N0112651N1+01001+00501999999ADDGA1021+009001999GA2071+015001999GA3071+027001999GF107991999999999999999999MA1102001999999REMMET083METAR ETSI 171220Z 23005KT 9999 FEW030 BKN050 BKN090 10/05 Q1020 BLU BLU TEMPO WHT;
0187108600999992007011713004+48717+011533FM-12+0365ETSI V0202301N00401015001CN0120001N1+01031+00421102071ADDGA1011+009001081GA2041+015001061GF107991041081008001031999MA1999999097711MD1710181+9999REMSYN088AAXX  17131 10860 42562 72304 10103 20042 39771 40207 57018 8483/ 333 81830 84650 87360;
0184108600999992007011713204+48717+011533FM-15+0365ETSI V0202401N00361015001CN0112651N1+01101+00401999999ADDGA1021+009001999GA2041+015001999GA3071+030001999GF107991999999999999999999MA1102001999999REMMET083METAR ETSI 171320Z 24007KT 9999 FEW030 SCT050 BKN100 11/04 Q1020 BLU BLU TEMPO WHT;
0165108600999992007011714004+48717+011533FM-12+0365ETSI V0202301N00401036001CN0180001N1+01081+00391102021ADDGA1031+015001061GF107991031051017501031999MA1999999097671MD1710201+9999REMSYN082AAXX  17141 10860 42768 72304 10108 20039 39767 40202 57020 8353/ 333 83650 87360;
0161108600999992007011714204+48717+011533FM-15+0365ETSI V0202401N004610300019N0112651N1+01101+00301999999ADDGA1021+009001999GA2071+030001999GF107991999999999999999999MA1102001999999REMMET076METAR ETSI 171420Z 24009KT 9999 FEW030 BKN100 11/03 Q1020 BLU BLU TEMPO WHT;
0161108600999992007011715204+48717+011533FM-15+0365ETSI V0202401N003110270019N0112651N1+00901+00501999999ADDGA1021+009001999GA2071+027001999GF107991999999999999999999MA1102001999999REMMET076METAR ETSI 171520Z 24006KT 9999 FEW030 BKN090 09/05 Q1020 BLU BLU TEMPO WHT;
0165108600999992007011716004+48717+011533FM-12+0365ETSI V0202401N00401036001CN0200001N1+00911+00451102041ADDGA1041+012001061GF106991041051012501031001MA1999999097661MD1710051+9999REMSYN082AAXX  17161 10860 42670 62404 10091 20045 39766 40204 57005 84530 333 84640 86359;
0159108600999992007011716204+48717+011533FM-15+0365ETSI V0202401N002610270019N0112651N1+00801+00501999999ADDGA1041+015001999GA2071+027001999GF107991999999999999999999MA1102001999999REMMET074METAR ETSI 171620Z 24005KT 9999 SCT050 BKN090 08/05 Q1020 BLU FCST CANCEL;
0165108600999992007011717004+48717+011533FM-12+0365ETSI V0202301N00301036001CN0200001N1+00861+00281102061ADDGA1031+015001061GF106991031051017501031001MA1999999097671MD1510001+9999REMSYN082AAXX  17171 10860 42770 62303 10086 20028 39767 40206 55000 83530 333 83650 85359;
0148108600999992007011717204+48717+011533FM-15+0365ETSI V0202201N002612200019N0112651N1+00901+00301999999ADDGA1021+015001999GA2041+027001999GF104991999999999999999999MA1101901999999REMMET063METAR ETSI 171720Z 22005KT 9999 FEW050 SCT090 09/03 Q1019 BLU+;
0125108600999992007011718204+48717+011533FM-15+0365ETSI V0202301N002612200019N0112651N1+00901+00301999999ADDGA1021+015001999GF102991999999999999999999MA1101901999999REMMET056METAR ETSI 171820Z 23005KT 9999 FEW050 09/03 Q1019 BLU+;
0159108600999992007011719004+48717+011533FM-12+0365ETSI V0202101N003012200019N0200001N1+00831+00261102021ADDGA1011+015001061GF101991011051017501031001MA1999999097631MD1810031+9999REMSYN076AAXX  17191 10860 42770 12103 10083 20026 39763 40202 58003 81530 333 81650;
0165108600999992007011804004+48717+011533FM-12+0365ETSI V0202401N008010270019N0350001N1+01171+00011101341ADDGA1071+027001031GF108991071001999999071999MA1999999097031MD1710231+9999REMSYN082AAXX  18041 10860 42981 82408 10117 20001 39703 40134 57023 8707/ 333 87359 91113;
0159108600999992007011804204+48717+011533FM-15+0365ETSI V0202401N007210210019N0112651N1+01201+00001999999ADDGA1071+021001999GA2071+030001999GF107991999999999999999999MA1101291999999OC101231REMMET066METAR ETSI 180420Z 24014G24KT 9999 BKN070 BKN100 12/M00 Q1013 BLU;
0193108600999992007011805004+48717+011533FM-12+0365ETSI V0202401N007010240019N0350001N1+01191+00031101281ADDGA1051+024001031GA2071+030001041GF108991071001999999071999MA1999999096971MD1710201+9999REMSYN094AAXX  18051 10860 42981 82407 10119 20003 39697 40128 57020 8707/ 333 85358 87460 91013 91113;
0174108600999992007011805204+48717+011533FM-15+0365ETSI V0202401N007210240019N0112651N1+01201+00001999999ADDGA1041+014401999GA2071+024001999GA3071+030001999GF107991999999999999999999MA1101191999999REMMET073METAR ETSI 180520Z 24014KT 9999 SCT048 BKN080 BKN100 12/00 Q1012 BLU BLU;
0162108600999992007011806204+48717+011533FM-15+0365ETSI V0202401N008710210019N0112651N1+01201+00101999999ADDGA1021+018001999GA2071+021001999GF107991999999999999999999MA1101081999999OC101441REMMET069METAR ETSI 180620Z 24017G28KT 9999 FEW060 BKN070 12/01 Q1011 BLU BLU;
0251108600999992007011807004+48717+011533FM-12+0365ETSI V0202401N010010210019N0350001N1+01201+00171101131ADDGA1021+015001061GA2061+021001031GA3081+039001031GF108991021051017501071999MA1999999096831MD1710201+9999OA149999999REMSYN106AAXX  18071 10860 42781 82410 10120 20017 39683 40113 57020 8257/ 333 82650 86357 88363 91016 91116 91211;EQDQ01  00822WGOSPD
0139108600999992007011807204+48717+011533FM-15+0365ETSI V0202401N010810120019N0112651N1+01201+00201999999ADDGA1071+012001999GF107991999999999999999999MA1101081999999OC101801REMMET062METAR ETSI 180720Z 24021G35KT 9999 BKN040 12/02 Q1011 BLU BLU;
0232108600999992007011808004+48717+011533FM-12+0365ETSI V0202401N009010114019N0400001N1+01211+00231101101ADDGA1011+007501081GA2061+011401061GA3051+021001031GF107991061081008001031999MA1999999096811MD1710161+9999OA149900931REMSYN106AAXX  18081 10860 42582 72409 10121 20023 39681 40110 57016 8683/ 333 81825 86638 85357 91016 91118 91211;
0185108600999992007011808204+48717+011533FM-15+0365ETSI V0202401N00931011401CN0112651N1+01201+00201999999ADDGA1021+007501999GA2041+011401999GA3071+021001999GF107991999999999999999999MA1101021999999OC101701REMMET076METAR ETSI 180820Z 24018G33KT 9999 FEW025 SCT038 BKN070 12/02 Q1010 BLU BLU;
0185108600999992007011809204+48717+011533FM-15+0365ETSI V0202401N01031024001CN0112651N1+01201+00301999999ADDGA1021+009001999GA2041+024001999GA3071+042001999GF107991999999999999999999MA1100911999999OC101801REMMET076METAR ETSI 180920Z 24020G35KT 9999 FEW030 SCT080 BKN140 12/03 Q1009 BLU BLU;
0251108600999992007011810004+48717+011533FM-12+0365ETSI V0202401N010010390019N0550001N1+01271+00271100891ADDGA1011+009001081GA2031+012001061GA3081+039001041GF108991031081008001071999MA1999999096611MD1710221+9999OA149999999REMSYN106AAXX  18101 10860 42585 82410 10127 20027 39661 40089 57022 8387/ 333 81830 83640 88463 91015 91118 91211;EQDQ01  00932WGOSPD
0185108600999992007011810204+48717+011533FM-15+0365ETSI V0202401N00931030001CN0112651N1+01301+00301999999ADDGA1041+012001999GA2041+030001999GA3081+042001999GF108991999999999999999999MA1100811999999OC101591REMMET076METAR ETSI 181020Z 24018G31KT 9999 SCT040 SCT100 OVC140 13/03 Q1008 BLU BLU;
0185108600999992007011811204+48717+011533FM-15+0365ETSI V0202501N01031030001CN0112651N1+01301+00301999999ADDGA1041+012001999GA2041+030001999GA3081+039001999GF108991999999999999999999MA1100711999999OC101751REMMET076METAR ETSI 181120Z 25020G34KT 9999 SCT040 SCT100 OVC130 13/03 Q1007 BLU BLU;
0172108600999992007011812204+48717+011533FM-15+0365ETSI V0202401N010310240019N0112651N1+01401+00301999999ADDGA1021+010501999GA2081+024001999GF108991999999999999999999MA1100611999999MW1611OC101901REMMET073METAR ETSI 181220Z 24020G37KT 9999 -RA FEW035 OVC080 14/03 Q1006 BLU BLU;
0162108600999992007011812514+48717+011533FM-16+0365ETSI V0202501N012310240019N0112651N1+01401+00301999999ADDGA1041+012001999GA2081+024001999GF108991999999999999999999MA1100511999999OC102371REMMET069SPECI ETSI 181251Z 25024G46KT 9999 SCT040 OVC080 14/03 Q1005 BLU BLU;
0257108600999992007011813004+48717+011533FM-12+0365ETSI V0202501N012010240019N0400001N1+01381+00321100531ADDAY121011AY221011GA1031+012001061GA2081+024001041GF108991031081012501011999MA1999999096291MD1710321+9999MW1211OA149999999REMSYN106AAXX  18131 10860 41682 82512 10138 20032 39629 40053 57032 72122 8381/ 333 83640 88458 91020 91120 91212;EQDQ01  01032WGOSPD
0162108600999992007011813204+48717+011533FM-15+0365ETSI V0202501N013410120019N0112651N1+01401+00401999999ADDGA1071+012001999GA2081+033001999GF108991999999999999999999MA1100511999999OC102211REMMET069METAR ETSI 181320Z 25026G43KT 9999 BKN040 OVC110 14/04 Q1005 BLU BLU;
0260108600999992007011814004+48717+011533FM-12+0365ETSI V0202401N011010120019N0300001N1+01391+00321100481ADDGA1071+012001061GF108991071051012501999999MA1999999096241MD1710301+9999OA149901241OA259999999REMSYN136AAXX  18141 10860 42680 82411 10139 20032 39624 40048 57030 875// 333 87640 91021 91124 91214 555 BOT 10084 20071 30062 40054 999 31///;EQDQ01  00722WGOSPD
0185108600999992007011814204+48717+011533FM-15+0365ETSI V0202401N012310300019N0112651N1+01401+00301999999ADDGA1041+012001999GA2071+030001999GA3081+033001999GF108991999999999999999999MA1100411999999OC101901REMMET076METAR ETSI 181420Z 24024G37KT 9999 SCT040 BKN100 OVC110 14/03 Q1004 BLU BLU;
0170108600999992007011815204+48717+011533FM-15+0365ETSI V0202501N011810120019N0112651N1+01401+00401999999ADDGA1071+012001999GA2081+030001999GF108991999999999999999999MA1100411999999OC102161REMMET077METAR ETSI 181520Z 25023G42KT 9999 BKN040 OVC100 14/04 Q1004 BLU FCST CANCEL;
0158108600999992007011815524+48717+011533FM-16+0365ETSI V0202401N013410120019N0112651N1+01401+00201999999ADDGA1071+012001999GA2081+030001999GF108991999999999999999999MA1100311999999OC102831REMMET065SPECI ETSI 181552Z 24026G55KT 9999 BKN040 OVC100 14/02 Q1003 BLU;
0229108600999992007011816004+48717+011533FM-12+0365ETSI V0202401N012010120019N0300001N1+01411+00251100281ADDGA1051+012001061GA2081+030001041GF108991051051012501011999MA1999999096051MD1710271+9999OA149999999REMSYN100AAXX  18161 10860 42680 82412 10141 20025 39605 40028 57027 8551/ 333 85640 88460 91021 91122 91213;EQDQ01  01132WGOSPD
0158108600999992007011816204+48717+011533FM-15+0365ETSI V0202501N012310120019N0112651N1+01401+00301999999ADDGA1071+012001999GA2081+030001999GF108991999999999999999999MA1100201999999OC101851REMMET065METAR ETSI 181620Z 25024G36KT 9999 BKN040 OVC100 14/03 Q1002 BLU;
0207108600999992007011817004+48717+011533FM-12+0365ETSI V0202501N015010120019N0300001N1+01451+00301100211ADDGA1071+012001061GF108991071051012501999999MA1999999095991MD1710251+9999OA149999999REMSYN094AAXX  18171 10860 42680 82515 10145 20030 39599 40021 57025 875// 333 87640 91026 91128 91215;EQDQ01  01442WGOSPD
0135108600999992007011817204+48717+011533FM-15+0365ETSI V0202501N014910120019N0112651N1+01501+00301999999ADDGA1071+012001999GF107991999999999999999999MA1100201999999OC102371REMMET058METAR ETSI 181720Z 25029G46KT 9999 BKN040 15/03 Q1002 BLU;
0181108600999992007011818204+48717+011533FM-15+0365ETSI V0202501N016510120019N0112651N1+01401+00301999999ADDGA1071+012001999GA2071+018001999GA3081+042001999GF108991999999999999999999MA1100101999999OC102731REMMET072METAR ETSI 181820Z 25032G53KT 9999 BKN040 BKN060 OVC140 14/03 Q1001 BLU;
0257108600999992007011819004+48717+011533FM-12+0365ETSI V0202401N015010120019N0300001N1+01391+00341100031ADDAY121999AY221999GA1051+012001061GA2071+018001061GF108991071051012501999999MA1999999095811MD1710241+9999MW1211OA149999999REMSYN106AAXX  18191 10860 41680 82415 10139 20034 39581 40003 57024 72122 875// 333 85640 87656 91024 91127 91216;EQDQ01  01392WGOSPD
0227108600999992007011904004+48717+011533FM-12+0365ETSI V0202801N009010090019N0250001N1+01111+00601100661ADDGA1031+006001081GA2051+009001061GA3071+015001061GF107991071081008001999999MA1999999096371MD1210211+9999MW1611REMSYN106AAXX  19041 10860 41575 72809 10111 20060 39637 40066 52021 761// 878// 333 83820 85630 87650 91016 91116;
0190108600999992007011904204+48717+011533FM-15+0365ETSI V0202801N007210054019N0112651N1+01001+00801999999ADDGA1041+003001999GA2071+005401999GA3071+013501999GF107991999999999999999999MA1100711999999MW1631OC101291REMMET075METAR ETSI 190420Z 28014G25KT 9999 RA SCT010 BKN018 BKN045 10/08 Q1007 WHT;
0237108600999992007011905004+48717+011533FM-12+0365ETSI V0202801N005010054019N0250001N1+00971+00781100661ADDAY161999AY261999GA1041+003001081GA2051+005401061GA3071+013501061GF107991071081004501999999MA1999999096361MD1010081+9999MW1631REMSYN100AAXX  19051 10860 41475 72805 10097 20078 39636 40066 50008 76366 878// 333 84810 85618 87645 91113;
0193108600999992007011905204+48717+011533FM-15+0365ETSI V0202801N003110045019N0070001N1+01001+00901999999ADDGA1041+002401999GA2071+004501999GA3071+013501999GF107991999999999999999999MA1100611999999MW1631REMMET086METAR ETSI 190520Z 28006KT 7000 RA SCT008 BKN015 BKN045 10/09 Q1006 WHT BLU TEMPO GRN;
0194108600999992007011905434+48717+011533FM-16+0365ETSI V0202701N004110036019N0070001N1+00901+00801999999ADDGA1041+001201999GA2071+003601999GA3071+010501999GF107991999999999999999999MA1100611999999MW1651REMMET087SPECI ETSI 190543Z 27008KT 7000 +RA SCT004 BKN012 BKN035 09/08 Q1006 GRN BLU TEMPO GRN;
0194108600999992007011906204+48717+011533FM-15+0365ETSI V0203001N003610045019N0050001N1+00901+00901999999ADDGA1041+001201999GA2071+004501999GA3071+009001999GF107991999999999999999999MA1100611999999MW1651REMMET087METAR ETSI 190620Z 30007KT 5000 +RA SCT004 BKN015 BKN030 09/09 Q1006 WHT BLU TEMPO GRN;
0198108600999992007011906444+48717+011533FM-16+0365ETSI V0203101N003610039019N0040001N1+00901+00901999999ADDGA1041+001201999GA2071+003901999GA3071+009001999GF107991999999999999999999MA1100611999999MW1631REMMET091SPECI ETSI 190644Z 31007KT 4000 RA SCT004 BKN013 BKN030 09/09 Q1006 RERA GRN BLU TEMPO GRN;
0215108600999992007011907004+48717+011533FM-12+0365ETSI V0203101N004010039019N0040001N1+00941+00861100711ADDAY161999AY261999GA1031+001201071GA2051+003901061GF107991071051001501999999MA1999999096401MD1310031+9999MW1631REMSYN094AAXX  19071 10860 41240 73104 10094 20086 39640 40071 53003 76366 875// 333 83704 85613 87630;
0198108600999992007011907204+48717+011533FM-15+0365ETSI V0202901N004110039019N0050001N1+01001+00901999999ADDGA1041+001501999GA2071+003901999GA3071+009001999GF107991999999999999999999MA1100711999999MW1631REMMET091METAR ETSI 190720Z 29008KT 5000 RA SCT005 BKN013 BKN030 10/09 Q1007 RERA GRN BLU TEMPO GRN;
0215108600999992007011908004+48717+011533FM-12+0365ETSI V0202701N008010042019N0070001N1+01141+00891100761ADDAY161999AY261999GA1031+002701081GA2051+004201061GF107991071081002501999999MA1999999096481MD1310121+9999MW1611REMSYN094AAXX  19081 10860 41357 72708 10114 20089 39648 40076 53012 76166 878// 333 83809 85614 87635;
0210108600999992007011908104+48717+011533FM-16+0365ETSI V0202701N008210060019N0070001N1+01201+00901999999ADDGA1041+002701999GA2071+006001999GA3071+010501999GF107991999999999999999999MA1100811999999MW1611OC101341REMMET095SPECI ETSI 190810Z 27016G26KT 7000 -RA SCT009 BKN020 BKN035 12/09 Q1008 RERA WHT BLU TEMPO GRN;
0204108600999992007011908204+48717+011533FM-15+0365ETSI V0202701N008210039019N0070001N1+01201+00901999999ADDGA1041+002701999GA2071+003901999GA3071+010501999GF107991999999999999999999MA1100811999999MW1631OC101441REMMET089METAR ETSI 190820Z 27016G28KT 7000 RA SCT009 BKN013 BKN035 12/09 Q1008 GRN BLU TEMPO GRN;
0230108600999992007011909204+48717+011533FM-15+0365ETSI V0202801N009310039019N0070001N1+01201+00901999999ADDED199U13009GA1041+002701999GA2071+003901999GA3071+010501999GF107991999999999999999999MA1100911999999MW1611OC101651REMMET104METAR ETSI 190920Z 28018G32KT 7000 R25/1300 -RA SCT009 BKN013 BKN035 12/09 Q1009 RERA GRN BLU TEMPO GRN;
0273108600999992007011910004+48717+011533FM-12+0365ETSI V0202701N009010042019N0120001N1+01231+00871100971ADDAY161999AY261999GA1031+003001081GA2051+004201061GA3071+010501061GF107991071081004501999999MA1999999096691MD1210291+9999MW1611OA149999999REMSYN106AAXX  19101 10860 41462 72709 10123 20087 39669 40097 52029 76166 878// 333 83810 85614 87635 91117 91211;EQDQ01  00882WGOSPD
0226108600999992007011910204+48717+011533FM-15+0365ETSI V0202801N010810045019N0060001N1+01201+00801999999ADDED199U15009GA1041+003001999GA2071+004501999GA3071+010501999GF107991999999999999999999MA1101021999999MW1811OC101701REMMET100METAR ETSI 191020Z 28021G33KT 6000 R25/1500 SHRA SCT010 BKN015 BKN035 12/08 Q1010 WHT BLU TEMPO GRN;
0232108600999992007011910364+48717+011533FM-16+0365ETSI V0202701N009810045019N0080001N1+01201+00901999999ADDED199U18009GA1041+003001999GA2071+004501999GA3071+010501999GF107991999999999999999999MA1101021999999MW1801OC101851REMMET106SPECI ETSI 191036Z 27019G36KT 8000 R25/1800 -SHRA SCT010 BKN015 BKN035 12/09 Q1010 RERA WHT BLU TEMPO GRN;
0279108600999992007011911004+48717+011533FM-12+0365ETSI V0202701N011010045019N0090001N1+01271+00821101041ADDAY181999AY261999GA1031+003001081GA2051+004501081GA3071+012001061GF107991071081004501999999MA1999999096761MD1210281+9999MW1801OA149999999REMSYN112AAXX  19111 10860 41459 72711 10127 20082 39676 40104 52028 78086 878// 333 83810 85815 87640 91019 91119 91212;EQDQ01  00982WGOSPD
0212108600999992007011911204+48717+011533FM-15+0365ETSI V0202701N01181006001CN0112651N1+01301+00801999999ADDGA1021+004501999GA2041+006001999GA3071+009001999GF107991999999999999999999MA1101081999999MW1801OC101751REMMET097METAR ETSI 191120Z 27023G34KT 9999 -SHRA FEW015 SCT020 BKN030 13/08 Q1011 RERA BLU BLU TEMPO GRN;
0195108600999992007011912204+48717+011533FM-15+0365ETSI V0202701N01181006001CN0112651N1+01301+00801999999ADDGA1021+004501999GA2041+006001999GA3071+009001999GF107991999999999999999999MA1101191999999OC101751REMMET086METAR ETSI 191220Z 27023G34KT 9999 FEW015 SCT020 BKN030 13/08 Q1012 BLU BLU TEMPO WHT;
0195108600999992007011912404+48717+011533FM-16+0365ETSI V0202801N01131006001CN0112651N1+01301+00701999999ADDGA1021+004501999GA2041+006001999GA3071+009001999GF107991999999999999999999MA1101191999999OC101951REMMET086SPECI ETSI 191240Z 28022G38KT 9999 FEW015 SCT020 BKN030 13/07 Q1012 BLU BLU TEMPO WHT;
0279108600999992007011913004+48717+011533FM-12+0365ETSI V0202801N011010060019N0300001N1+01341+00761101231ADDAY121999AY221999GA1021+004501081GA2031+006001081GA3051+009001061GF107991071081004501999999MA1999999096961MD1210271+9999MW1251OA149999999REMSYN112AAXX  19131 10860 41480 72811 10134 20076 39696 40123 52027 72522 878// 333 82815 83820 85630 91020 91120 91212;EQDQ01  01032WGOSPD
0170108600999992007011913204+48717+011533FM-15+0365ETSI V0202801N011310090019N0112651N1+01401+00701999999ADDGA1041+006001999GA2071+009001999GF107991999999999999999999MA1101291999999OC101951REMMET077METAR ETSI 191320Z 28022G38KT 9999 SCT020 BKN030 14/07 Q1013 BLU FCST CANCEL;
0238108600999992007011914004+48717+011533FM-12+0365ETSI V0202801N010010090019N0300001N1+01331+00691101401ADDAY121999AY221999GA1021+006001081GA2051+009001061GF107991051081008001031999MA1999999097121MD1210361+9999MW1251OA149901081REMSYN106AAXX  19141 10860 41580 72810 10133 20069 39712 40140 52036 72522 8583/ 333 82820 85630 91017 91121 91213;
0162108600999992007011914204+48717+011533FM-15+0365ETSI V0202801N009812200019N0112651N1+01401+00701999999ADDGA1021+006001021GA2041+009001999GF104991999999999999999999MA1101491999999OC101491REMMET069METAR ETSI 191420Z 28019G29KT 9999 FEW020TCU SCT030 14/07 Q1015 BLU+;
0158108600999992007011915204+48717+011533FM-15+0365ETSI V0202801N009810180019N0112651N1+01301+00601999999ADDGA1041+009001999GA2071+018001999GF107991999999999999999999MA1101591999999OC101491REMMET065METAR ETSI 191520Z 28019G29KT 9999 SCT030 BKN060 13/06 Q1016 BLU;
0232108600999992007011916004+48717+011533FM-12+0365ETSI V0202801N009010180019N0300001N1+01331+00541101711ADDGA1011+006001081GA2031+012001061GA3051+018001061GF107991051081008001031001MA1999999097411MD1210451+9999OA149900931REMSYN106AAXX  19161 10860 42580 72809 10133 20054 39741 40171 52045 85830 333 81820 83640 85656 91015 91118 91211;
0181108600999992007011916204+48717+011533FM-15+0365ETSI V0202801N00871012001CN0112651N1+01301+00601999999ADDGA1021+006001999GA2041+012001999GA3071+018001999GF107991999999999999999999MA1101801999999OC101541REMMET072METAR ETSI 191620Z 28017G30KT 9999 FEW020 SCT040 BKN060 13/06 Q1018 BLU;
0210108600999992007011917004+48717+011533FM-12+0365ETSI V0202801N00901036001CN0300001N1+01281+00521101891ADDGA1011+006001081GA2031+015001061GF105991031081008001031011MA1999999097581MD1210461+9999OA149900981REMSYN100AAXX  19171 10860 42580 52809 10128 20052 39758 40189 52046 83831 333 81820 83650 91014 91119 91211;
0136108600999992007011917204+48717+011533FM-15+0365ETSI V0202801N007712200019N0112651N1+01301+00501999999ADDGA1041+010501999GF104991999999999999999999MA1101901999999OC101291REMMET059METAR ETSI 191720Z 28015G25KT 9999 SCT035 13/05 Q1019 BLU+;
0125108600999992007011918204+48717+011533FM-15+0365ETSI V0202701N006712200019N0112651N1+01301+00601999999ADDGA1041+012001999GF104991999999999999999999MA1102001999999REMMET056METAR ETSI 191820Z 27013KT 9999 SCT040 13/06 Q1020 BLU+;
0182108600999992007011919004+48717+011533FM-12+0365ETSI V0202901N006012200019N0300001N1+01251+00511102131ADDGA1031+012001061GF104991031051012501001011MA1999999097801MD1210391+9999OA149900981REMSYN088AAXX  19191 10860 42680 42906 10125 20051 39780 40213 52039 83501 333 83640 91119 91211;
0187108600999992007012204004+48717+011533FM-12+0365ETSI V0202501N00201036001CN0300001N1+00201-00151101931ADDGA1011+012001061GA2031+045001031GF107991011051012501031021MA1999999097441MD1810031+9999REMSYN088AAXX  22041 10860 43680 72502 10020 21015 39744 40193 58003 81532 333 81640 83365 87072;
0172108600999992007012204204+48717+011533FM-15+0365ETSI V0202301N00101045001CN0112651N1+00201+00001999999ADDGA1021+012001999GA2041+045001999GA3071+066001999GF107991999999999999999999MA1101691999999REMMET071METAR ETSI 220420Z 23002KT 9999 FEW040 SCT150 BKN220 02/M00 Q1017 BLU+;
0187108600999992007012205004+48717+011533FM-12+0365ETSI V0202301N002010450019N0300001N1+00161-00101101931ADDGA1011+012001061GA2051+045001031GF107991011051012501031021MA1999999097441MD1510041+9999REMSYN088AAXX  22051 10860 42680 72302 10016 21010 39744 40193 55004 81532 333 81640 85365 87072;
0152108600999992007012205204+48717+011533FM-15+0365ETSI V0201801N001010420019N0112651N1+00201-00101999999ADDGA1021+012001999GA2071+042001999GF107991999999999999999999MA1101691999999REMMET067METAR ETSI 220520Z 18002KT 9999 FEW040 BKN140 02/M01 Q1017 BLU BLU;
0152108600999992007012206204+48717+011533FM-15+0365ETSI V0201601N001010420019N0112651N1+00001+00001999999ADDGA1071+042001999GA2071+075001999GF107991999999999999999999MA1101691999999REMMET067METAR ETSI 220620Z 16002KT 9999 BKN140 BKN250 00/M00 Q1017 BLU BLU;
0207108600999992007012207004+48717+011533FM-12+0365ETSI V0201901N001010360019N0350001N1+00001-00051101901ADDGA1071+036001031GF107991071001999999071999MA1999999097381MD1810031+9999REMSYN124AAXX  22071 10860 42981 71901 10000 21005 39738 40190 58003 8707/ 333 87362 555 BOT 10010 20027 30043 40067 50073 999 31///;
0129108600999992007012207204+48717+011533FM-15+0365ETSI V0201701N001010360019N0112651N1+00001-00101999999ADDGA1071+036001999GF107991999999999999999999MA1101691999999REMMET060METAR ETSI 220720Z 17002KT 9999 BKN120 00/M01 Q1017 BLU BLU;
0159108600999992007012208004+48717+011533FM-12+0365ETSI V0201501N001010330019N0400001N1+00031-00101101891ADDGA1071+033001031GF108991071001999999071999MA1999999097381MD1810031+9999REMSYN076AAXX  22081 10860 42982 81501 10003 21010 39738 40189 58003 8707/ 333 87361;
0175108600999992007012208204+48717+011533FM-15+0365ETSI V0209999C000010450019N0112651N1+00101-00101999999ADDGA1021+033001999GA2071+045001999GA3071+075001999GF107991999999999999999999MA1101591999999REMMET074METAR ETSI 220820Z 00000KT 9999 FEW110 BKN150 BKN250 01/M01 Q1016 BLU BLU;
0152108600999992007012209204+48717+011533FM-15+0365ETSI V0200501N000510390019N0112651N1+00201+00001999999ADDGA1071+039001999GA2071+075001999GF107991999999999999999999MA1101591999999REMMET067METAR ETSI 220920Z 05001KT 9999 BKN130 BKN250 02/M00 Q1016 BLU BLU;
0165108600999992007012210004+48717+011533FM-12+0365ETSI V0201701N001010390019N0450001N1+00281+00071101821ADDGA1051+039001031GF107991051001999999031081MA1999999097351MD1810031+9999REMSYN082AAXX  22101 10860 42983 71701 10028 20007 39735 40182 58003 85038 333 85363 87275;
0152108600999992007012210204+48717+011533FM-15+0365ETSI V0200401N000510330019N0112651N1+00301+00001999999ADDGA1071+033001999GA2071+075001999GF107991999999999999999999MA1101591999999REMMET067METAR ETSI 221020Z 04001KT 9999 BKN110 BKN250 03/M00 Q1016 BLU BLU;
0165108600999992007012211004+48717+011533FM-12+0365ETSI V0201601N001010300019N0400001N1+00391+00051101741ADDGA1061+030001031GF107991061001999999031081MA1999999097291MD1710091+9999REMSYN082AAXX  22111 10860 42982 71601 10039 20005 39729 40174 57009 86038 333 86360 87275;
0174108600999992007012211204+48717+011533FM-15+0365ETSI V0209999V000510390019N0112651N1+00401+00001999999ADDGA1041+030001999GA2071+039001999GA3071+066001999GF107991999999999999999999MA1101491999999REMMET073METAR ETSI 221120Z VRB01KT 9999 SCT100 BKN130 BKN220 04/00 Q1015 BLU BLU;
0175108600999992007012212204+48717+011533FM-15+0365ETSI V0209999V001010300019N0112651N1+00501+00001999999ADDGA1021+001501999GA2071+030001999GA3081+066001999GF108991999999999999999999MA1101491999999REMMET074METAR ETSI 221220Z VRB02KT 9999 FEW005 BKN100 OVC220 05/M00 Q1015 BLU BLU;
