0149108600999992008010307314+48717+011533FM-16+0365ETSI V0200801N003110240019N0060001N1-00401-00701999999ADDGA1021+003001999GA2071+024001999GF107991999999999999999999MA1101081999999REMMET064SPECI ETSI 030731Z 08006KT 6000 FEW010 BKN080 M04/M07 Q1011 WHT;
0149108600999992008010308204+48717+011533FM-15+0365ETSI V0200901N002110240019N0060001N1-00401-00701999999ADDGA1021+003001999GA2071+024001999GF107991999999999999999999MA1101081999999REMMET064METAR ETSI 030820Z 09004KT 6000 FEW010 BKN080 M04/M07 Q1011 WHT;
0149108600999992008010309204+48717+011533FM-15+0365ETSI V0200801N004112200019N0070001N1-00301-00701999999ADDGA1041+024001999GA2041+054001999GF104991999999999999999999MA1101021999999REMMET064METAR ETSI 030920Z 08008KT 7000 SCT080 SCT180 M03/M07 Q1010 WHT;
0126108600999992008010412204+48717+011533FM-15+0365ETSI V0200501N004110750019N0112651N1+00101-00601999999ADDGA1071+075001999GF107991999999999999999999MA1101291999999REMMET057METAR ETSI 041220Z 05008KT 9999 BKN250 01/M06 Q1013 BLU+;
0158108600999992008010508204+48717+011533FM-15+0365ETSI V0200701N003610450019N0040001N1-00301-00601999999ADDGA1041+036001999GA2071+045001999GF107991999999999999999999MA1101391999999MW1101REMMET067METAR ETSI 050820Z 07007KT 4000 BR SCT120 BKN150 M03/M06 Q1014 GRN;
0191108600999992008010607204+48717+011533FM-15+0365ETSI V0202201N00051007501CN0060001N1+00201+00001999999ADDGA1021+004501999GA2041+007501999GA3071+010501999GF107991999999999999999999MA1100911999999MW1121MW2611REMMET078METAR ETSI 060720Z 22001KT 6000 -RA MIFG FEW015 SCT025 BKN035 02/00 Q1009 WHT;
0170108600999992008010608204+48717+011533FM-15+0365ETSI V0202201N00151006001CN0070001N1+00201+00101999999ADDGA1021+004501999GA2041+006001999GA3071+009001999GF107991999999999999999999MA1101021999999REMMET069METAR ETSI 060820Z 22003KT 7000 FEW015 SCT020 BKN030 02/01 Q1010 WHT;
0148108600999992008010616204+48717+011533FM-15+0365ETSI V0202401N003112200019N0112651N1+00301+00201999999ADDGA1021+006001999GA2041+021001999GF104991999999999999999999MA1101691999999REMMET063METAR ETSI 061620Z 24006KT 9999 FEW020 SCT070 03/02 Q1017 BLU+;
0125108600999992008010617204+48717+011533FM-15+0365ETSI V0202401N001512200019N0112651N1+00201+00101999999ADDGA1041+021001999GF104991999999999999999999MA1101801999999REMMET056METAR ETSI 061720Z 24003KT 9999 SCT070 02/01 Q1018 BLU+;
0148108600999992008010618204+48717+011533FM-15+0365ETSI V0202001N001512200019N0112651N1+00201+00001999999ADDGA1021+009001999GA2041+024001999GF104991999999999999999999MA1101901999999REMMET063METAR ETSI 061820Z 20003KT 9999 FEW030 SCT080 02/00 Q1019 BLU+;
0126108600999992008010619204+48717+011533FM-15+0365ETSI V0202101N001012200019N0112651N1+00001+00001999999ADDGA1041+060001999GF104991999999999999999999MA1101901999999REMMET057METAR ETSI 061920Z 21002KT 9999 SCT200 00/M00 Q1019 BLU+;
0135108600999992008010704204+48717+011533FM-15+0365ETSI V0200601N001510090019N0035001N1-00101-00101999999ADDGA1081+009001999GF108991999999999999999999MA1101591999999MW1101REMMET060METAR ETSI 070420Z 06003KT 3500 BR OVC030 M01/M01 Q1016 YLO;
0147108600999992008010704424+48717+011533FM-16+0365ETSI V0200601N001510090019N0035001N1-00101-00201999999ADDGA1081+009001999GF108991999999999999999999MA1101491999999MW1101MW2561REMMET066SPECI ETSI 070442Z 06003KT 3500 -FZDZ BR OVC030 M01/M02 Q1015 YLO;
0179108600999992008010705004+48717+011533FM-12+0365ETSI V0200601N002010090019N0035001N1-00101-00151101781ADDAY121999GA1081+009001061GF108991081051008001999999MA1999999097251MD1710281+9999MW1561REMSYN082AAXX  07051 10860 41535 80602 11010 21015 39725 40178 57028 7562/ 885// 333 88630;
0161108600999992008010705204+48717+011533FM-15+0365ETSI V02099999999990039019N0020001N1+00001-00101999999ADDGA1081+003901999GF108991999999999999999999MA1101491999999MW1101MW2561REMMET080METAR ETSI 070520Z /////KT 2000 -FZDZ BR OVC013 M00/M01 Q1015 YLO YLO BECMG WHT;
0205108600999992008010706204+48717+011533FM-15+0365ETSI V0201001N002110060019N0020001N1+00101+00101999999ADDGA1041+004501999GA2071+006001999GA3081+008101999GF108991999999999999999999MA1101291999999MW1101MW2561REMMET092METAR ETSI 070620Z 10004KT 2000 -FZDZ BR SCT015 BKN020 OVC027 01/01 Q1013 YLO YLO BECMG WHT;
0182108600999992008010706454+48717+011533FM-16+0365ETSI V0200701N002110075019N0030001N1+00101+00001999999ADDGA1021+003001999GA2081+007501999GF108991999999999999999999MA1101291999999MW1101MW2561REMMET085SPECI ETSI 070645Z 07004KT 3000 -FZDZ BR FEW010 OVC025 01/00 Q1013 YLO YLO BECMG WHT;
0193108600999992008010707004+48717+011533FM-12+0365ETSI V0200601N00301009001CN0030001N1+00111+00011101511ADDAY151999AY251999GA1011+003001081GF108991081081004501999999MA1999999097031MD1710341+9999MW1561REMSYN088AAXX  07071 10860 41430 80603 10011 20001 39703 40151 57034 75655 888// 333 81810 88625;
0187108600999992008010707204+48717+011533FM-15+0365ETSI V0200601N002110060019N0020001N1+00201+00201999999ADDGA1021+003001999GA2081+006001999GF108991999999999999999999MA1101291999999MW1101MW2511REMMET090METAR ETSI 070720Z 06004KT 2000 -DZ BR FEW010 OVC020 02/02 Q1013 REFZDZ YLO YLO BECMG WHT;
0315108600999992008010708004+48717+011533SY-MT+0365ETSI V0200901N001010060019N0020001N1+00111+00031101511ADDAY161999AY251999GA1021+003001999GA2081+006001999GF108991081081004501999999MA1101291097031MD1610221+9999MW1101MW2631REMSYN088AAXX  07081 10860 41420 80901 10011 20003 39703 40151 56022 76365 888// 333 81810 88620;MET094SPECI ETSI 070800Z 12002KT 2000 RA BR FEW010 OVC020 01/00 Q1013 REFZDZ BLACKYLO YLO BECMG WHT;
0191108600999992008010708204+48717+011533FM-15+0365ETSI V0201501N001010054019N0025001N1+00201+00101999999ADDGA1021+003001999GA2081+005401999GF108991999999999999999999MA1101291999999MW1101MW2631REMMET094METAR ETSI 070820Z 15002KT 2500 RA BR FEW010 OVC018 02/01 Q1013 REFZDZ BLACKYLO YLO BECMG WHT;
0184108600999992008010708374+48717+011533FM-16+0365ETSI V0201601N001510048019N0030001N1+00301+00101999999ADDGA1021+003001999GA2081+004801999GF108991999999999999999999MA1101291999999MW1101MW2631REMMET087SPECI ETSI 070837Z 16003KT 3000 RA BR FEW010 OVC016 03/01 Q1013 BLACKYLO YLO BECMG WHT;
0179108600999992008010709114+48717+011533FM-16+0365ETSI V0201501N001510045019N0030001N1+00301+00201999999ADDGA1021+003001999GA2081+004501999GF108991999999999999999999MA1101191999999MW1101MW2631REMMET082SPECI ETSI 070911Z 15003KT 3000 RA BR FEW010 OVC015 03/02 Q1012 YLO YLO BECMG WHT;
0185108600999992008010709204+48717+011533FM-15+0365ETSI V0201501N002110039019N0050001N1+00301+00201999999ADDGA1021+001501999GA2081+003901999GF108991999999999999999999MA1101191999999MW1101MW2611REMMET088METAR ETSI 070920Z 15004KT 5000 -RA BR FEW005 OVC013 03/02 Q1012 RERA GRN YLO BECMG WHT;
0193108600999992008010710004+48717+011533FM-12+0365ETSI V0202001N00101006001CN0060001N1+00381+00261101431ADDAY161999AY221999GA1011+001501081GF108991071081001501999999MA1999999097001MD1610031+9999MW1211REMSYN088AAXX  07101 10860 41256 82001 10038 20026 39700 40143 56003 72162 878// 333 81805 87613;
0180108600999992008010710124+48717+011533FM-16+0365ETSI V0202101N001010054019N0045001N1+00401+00401999999ADDGA1071+005401999GA2071+012001999GF107991999999999999999999MA1101291999999MW1101MW2611REMMET083SPECI ETSI 071012Z 21002KT 4500 -RA BR BKN018 BKN040 04/04 Q1013 GRN YLO BECMG WHT;
0172108600999992008010710204+48717+011533FM-15+0365ETSI V0202101N001510057019N0080001N1+00401+00301999999ADDGA1071+005701999GA2071+010801999GF107991999999999999999999MA1101291999999MW1121REMMET081METAR ETSI 071020Z 21003KT 8000 MIFG BKN019 BKN036 04/03 Q1013 WHT WHT TEMPO YLO;
0182108600999992008010710504+48717+011533FM-16+0365ETSI V0202701N003110039019N0040001N1+00501+00401999999ADDGA1071+003901999GA2071+009001999GF107991999999999999999999MA1101391999999MW1401MW2611REMMET085SPECI ETSI 071050Z 27006KT 4000 -RA VCFG BKN013 BKN030 05/04 Q1014 GRN WHT TEMPO YLO;
0193108600999992008010711004+48717+011533FM-12+0365ETSI V0202701N003010039019N0040001N1+00501+00351101511ADDAY161999AY221999GA1051+003901061GF107991071051004501999999MA1999999097091MD1310061+9999MW1611REMSYN088AAXX  07111 10860 41440 72703 10050 20035 39709 40151 53006 76162 875// 333 85613 87630;
0184108600999992008010711124+48717+011533FM-16+0365ETSI V0202701N00571007501CN0112651N1+00601+00301999999ADDGA1021+003001999GA2041+007501999GA3071+018001999GF107991999999999999999999MA1101391999999REMMET083SPECI ETSI 071112Z 27011KT 9999 FEW010 SCT025 BKN060 06/03 Q1014 BLU WHT TEMPO YLO;
0184108600999992008010711204+48717+011533FM-15+0365ETSI V0202601N00571007501CN0112651N1+00601+00301999999ADDGA1021+003001999GA2041+007501999GA3071+018001999GF107991999999999999999999MA1101391999999REMMET083METAR ETSI 071120Z 26011KT 9999 FEW010 SCT025 BKN060 06/03 Q1014 BLU WHT TEMPO YLO;
0139108600999992008010712204+48717+011533FM-15+0365ETSI V0202701N005712200019N0112651N1+00701+00401999999ADDGA1021+003601999GF102991999999999999999999MA1101491999999REMMET070METAR ETSI 071220Z 27011KT 9999 FEW012 07/04 Q1015 BLU+BLU TEMPO BLU+;
0159108600999992008010713004+48717+011533FM-12+0365ETSI V0202801N005012200019N0350001N1+00821+00411101611ADDGA1021+005101081GF102991011011004501031001MA1999999097241MD1210241+9999REMSYN076AAXX  07131 10860 42481 22805 10082 20041 39724 40161 52024 81130 333 82817;
0139108600999992008010713204+48717+011533FM-15+0365ETSI V0202801N005712200019N0112651N1+00901+00301999999ADDGA1021+006001999GF102991999999999999999999MA1101491999999REMMET070METAR ETSI 071320Z 28011KT 9999 FEW020 09/03 Q1015 BLU+BLU TEMPO BLU+;
0159108600999992008010714004+48717+011533FM-12+0365ETSI V0202801N006012200019N0450001N1+00881+00341101671ADDGA1011+007501081GF102991021081008001001001MA1999999097301MD1210211+9999REMSYN076AAXX  07141 10860 42583 22806 10088 20034 39730 40167 52021 82800 333 81825;
0162108600999992008010714204+48717+011533FM-15+0365ETSI V0202801N006710135019N0112651N1+00901+00301999999ADDGA1041+006001999GA2071+013501999GF107991999999999999999999MA1101591999999REMMET077METAR ETSI 071420Z 28013KT 9999 SCT020 BKN045 09/03 Q1016 BLU BLU TEMPO BLU+;
0162108600999992008010715204+48717+011533FM-15+0365ETSI V0202801N006212200019N0112651N1+00601+00301999999ADDGA1021+009001999GA2041+018001999GF104991999999999999999999MA1101801999999REMMET077METAR ETSI 071520Z 28012KT 9999 FEW030 SCT060 06/03 Q1018 BLU+BLU TEMPO BLU+;
0215108600999992008010716004+48717+011533FM-12+0365ETSI V0202701N005012200019N0450001N1+00601+00241101961ADDAY111999AY211999GA1011+010501061GA2031+015001061GF103991031051012501001001MA1999999097541MD1210301+9999MW1251REMSYN094AAXX  07161 10860 41683 32705 10060 20024 39754 40196 52030 72511 83500 333 81635 83650 91113;
0136108600999992008010716204+48717+011533FM-15+0365ETSI V0202401N003112200019N0112651N1+00401+00101999999ADDGA1021+013501999GF102991999999999999999999MA1101901999999REMMET067METAR ETSI 071620Z 24006KT 9999 FEW045 04/01 Q1019 BLU+FCST CANCEL;
0159108600999992008010717004+48717+011533FM-12+0365ETSI V0202601N003012200019N0400001N1+00431+00151102111ADDGA1011+012001061GF101991011051012501001001MA1999999097651MD1210351+9999REMSYN076AAXX  07171 10860 42682 12603 10043 20015 39765 40211 52035 81500 333 81640;
0125108600999992008010717204+48717+011533FM-15+0365ETSI V0202701N006712200019N0112651N1+00501+00101999999ADDGA1021+012001999GF102991999999999999999999MA1102001999999REMMET056METAR ETSI 071720Z 27013KT 9999 FEW040 05/01 Q1020 BLU+;
0076108600999992008010718204+48717+011533FM-15+0365ETSI V0202601N005712200019N0112651N1+00501+00101999999ADDMA1102101999999REMMET049METAR ETSI 071820Z 26011KT 9999 05/01 Q1021 BLU+;
0077108600999992008010719204+48717+011533FM-15+0365ETSI V0202401N002612200019N0112651N1+00201-00101999999ADDMA1102101999999REMMET050METAR ETSI 071920Z 24005KT 9999 02/M01 Q1021 BLU+;
0125108600999992008010804204+48717+011533FM-15+0365ETSI V0202401N003610099019N0112651N1+00401-00101999999ADDGA1071+009901999GF107991999999999999999999MA1102301999999REMMET056METAR ETSI 080420Z 24007KT 9999 BKN033 04/M01 Q1023 BLU;
0185108600999992008010805004+48717+011533FM-12+0365ETSI V0202501N005010084019N0300001N1+00421+00031102521ADDAY121999GA1051+008401061GF107991071051008001999999MA1999999098041MD1310081+9999MW1201REMSYN088AAXX  08051 10860 41580 72505 10042 20003 39804 40252 53008 7202/ 875// 333 85628 87650;
0138108600999992008010805204+48717+011533FM-15+0365ETSI V0202501N003612200019N0112651N1+00401+00001999999ADDGA1041+008401999GF104991999999999999999999MA1102401999999REMMET069METAR ETSI 080520Z 25007KT 9999 SCT028 04/00 Q1024 BLU+BLU+TEMPO BLU;
0162108600999992008010806204+48717+011533FM-15+0365ETSI V0202501N003612200019N0112651N1+00201-00101999999ADDGA1021+009001999GA2041+051001999GF104991999999999999999999MA1102401999999REMMET077METAR ETSI 080620Z 25007KT 9999 FEW030 SCT170 02/M01 Q1024 BLU+BLU+TEMPO BLU;
0207108600999992008010807004+48717+011533FM-12+0365ETSI V0202101N002012200019N0350001N1+00271-00121102651ADDGA1031+009001061GF104991031051008001031001MA1999999098141MD1210151+9999REMSYN124AAXX  08071 10860 42581 42102 10027 21012 39814 40265 52015 83530 333 83630 555 BOT 11004 21002 30007 40020 50039 999 34///;
0155108600999992008010807204+48717+011533FM-15+0365ETSI V0202301N00261220001CN0112651N1+00301-00201999999ADDGA1071+009601999GA2041+012001999MA1102511999999REMMET077METAR ETSI 080720Z 23005KT 9999 BKN032 SCT040 03/M02 Q1025 BLU BLU+TEMPO BLU;EQDQ01+000042SCOTCV
0159108600999992008010808004+48717+011533FM-12+0365ETSI V0202401N003010099019N0350001N1+00271-00071102701ADDGA1051+009901061GF106991051051012501031011MA1999999098191MD1210151+9999REMSYN076AAXX  08081 10860 42681 62403 10027 21007 39819 40270 52015 85531 333 85633;
0161108600999992008010808204+48717+011533FM-15+0365ETSI V0202401N003112200019N0112651N1+00401+00001999999ADDGA1021+009001999GA2041+066001999GF104991999999999999999999MA1102511999999REMMET076METAR ETSI 080820Z 24006KT 9999 FEW030 SCT220 04/00 Q1025 BLU+BLU+TEMPO BLU;
0152108600999992008010809204+48717+011533FM-15+0365ETSI V0202601N003112200019N0112651N1+00501+00001999999ADDGA1021+009001999GA2041+066001999GF104991999999999999999999MA1102511999999REMMET067METAR ETSI 080920Z 26006KT 9999 FEW030 SCT220 05/00 Q1025 BLU+BLU+;
0159108600999992008010810004+48717+011533FM-12+0365ETSI V0202701N004012200019N0400001N1+00501+00071102711ADDGA1011+010501061GF102991011051012501001011MA1999999098241MD1210101+9999REMSYN076AAXX  08101 10860 42682 22704 10050 20007 39824 40271 52010 81501 333 81635;
0129108600999992008010810204+48717+011533FM-15+0365ETSI V0202601N004112200019N0112651N1+00501+00101999999ADDGA1041+066001999GF104991999999999999999999MA1102511999999REMMET060METAR ETSI 081020Z 26008KT 9999 SCT220 05/01 Q1025 BLU+BLU+;
0159108600999992008010811004+48717+011533FM-12+0365ETSI V0202601N003012200019N0400001N1+00571+00081102651ADDGA1011+030001031GF102991011001999999031011MA1999999098191MD1010001+9999REMSYN076AAXX  08111 10860 42982 22603 10057 20008 39819 40265 50000 81031 333 81360;
0129108600999992008010811204+48717+011533FM-15+0365ETSI V0202701N003612200019N0112651N1+00601+00101999999ADDGA1021+066001999GF102991999999999999999999MA1102401999999REMMET060METAR ETSI 081120Z 27007KT 9999 FEW220 06/01 Q1024 BLU+BLU+;
0129108600999992008010812204+48717+011533FM-15+0365ETSI V0202401N002110840019N0112651N1+00701+00101999999ADDGA1071+084001999GF107991999999999999999999MA1102401999999REMMET060METAR ETSI 081220Z 24004KT 9999 BKN280 07/01 Q1024 BLU+BLU+;
0159108600999992008010813004+48717+011533FM-12+0365ETSI V0202201N001010720019N0450001N1+00671+00101102531ADDGA1071+072001001GF107991001001999999001011MA1999999098091MD1710151+9999REMSYN076AAXX  08131 10860 42983 72201 10067 20010 39809 40253 57015 80001 333 87074;
0129108600999992008010813204+48717+011533FM-15+0365ETSI V0202201N001510660019N0112651N1+00701+00101999999ADDGA1071+066001999GF107991999999999999999999MA1102401999999REMMET060METAR ETSI 081320Z 22003KT 9999 BKN220 07/01 Q1024 BLU+BLU+;
0165108600999992008010814004+48717+011533FM-12+0365ETSI V0209999C00001090001CN0450001N1+00681+00041102501ADDGA1011+007501081GF107991011011008001001021MA1999999098071MD1610121+9999REMSYN082AAXX  08141 10860 42583 70000 10068 20004 39807 40250 56012 81102 333 81825 87070;
0152108600999992008010814204+48717+011533FM-15+0365ETSI V0209999C000010600019N0112651N1+00701+00101999999ADDGA1021+007501999GA2071+060001999GF107991999999999999999999MA1102301999999REMMET067METAR ETSI 081420Z 00000KT 9999 FEW025 BKN200 07/01 Q1023 BLU+BLU+;
0152108600999992008010815204+48717+011533FM-15+0365ETSI V0202601N000510480019N0112651N1+00501+00101999999ADDGA1071+048001999GA2071+060001999GF107991999999999999999999MA1102301999999REMMET067METAR ETSI 081520Z 26001KT 9999 BKN160 BKN200 05/01 Q1023 BLU BLU+;
0165108600999992008010816004+48717+011533FM-12+0365ETSI V0209999C000010510019N0400001N1+00431+00141102491ADDGA1051+051001001GF107991001001999999001011MA1999999098021MD1710071+9999REMSYN082AAXX  08161 10860 42982 70000 10043 20014 39802 40249 57007 80001 333 85067 85070;
0136108600999992008010816204+48717+011533FM-15+0365ETSI V0209999C000010540019N0112651N1+00301+00001999999ADDGA1071+054001999GF107991999999999999999999MA1102301999999REMMET067METAR ETSI 081620Z 00000KT 9999 BKN180 03/00 Q1023 BLU FCST CANCEL;
0159108600999992008010817004+48717+011533FM-12+0365ETSI V0209999C000010660019N0400001N1+00171-00031102531ADDGA1071+066001001GF107991001001999999001011MA1999999098011MD1610061+9999REMSYN076AAXX  08171 10860 42982 70000 10017 21003 39801 40253 56006 80001 333 87072;
0126108600999992008010817204+48717+011533FM-15+0365ETSI V0201801N001012200019N0112651N1+00101+00001999999ADDGA1041+066001999GF104991999999999999999999MA1102301999999REMMET057METAR ETSI 081720Z 18002KT 9999 SCT220 01/M00 Q1023 BLU+;
0127108600999992008010818204+48717+011533FM-15+0365ETSI V0201801N001012200019N0112651N1+00001-00101999999ADDGA1041+060001999GF104991999999999999999999MA1102301999999REMMET058METAR ETSI 081820Z 18002KT 9999 SCT200 M00/M01 Q1023 BLU+;
0157108600999992008010904204+48717+011533FM-15+0365ETSI V0202801N001010450019N0112651N1-00401-00501999999ADDED199U17009GA1071+045001999GF107991999999999999999999MA1101901999999MW1121REMMET071METAR ETSI 090420Z 28002KT 9999 R25/1700 MIFG BKN150 M04/M05 Q1019 BLU;
0179108600999992008010905004+48717+011533FM-12+0365ETSI V0201201N001010480019N0100001N1-00371-00461102181ADDAY121999GA1071+048001031GF107991071001999999031999MA1999999097591MD1510071+9999MW1111REMSYN082AAXX  09051 10860 41960 71201 11037 21046 39759 40218 55007 7112/ 8703/ 333 87366;
0171108600999992008010905204+48717+011533FM-15+0365ETSI V0202301N001010480019N0112651N1-00301-00401999999ADDED199U17009GA1071+048001999GF107991999999999999999999MA1101901999999MW1121REMMET085METAR ETSI 090520Z 23002KT 9999 R25/1700 MIFG BKN160 M03/M04 Q1019 BLU BLU BECMG WHT;
0194108600999992008010906204+48717+011533FM-15+0365ETSI V0201501N001010480019N0112651N1-00301-00301999999ADDED199U17009GA1041+042001999GA2071+048001999GF107991999999999999999999MA1101901999999MW1121REMMET092METAR ETSI 090620Z 15002KT 9999 R25/1700 MIFG SCT140 BKN160 M03/M03 Q1019 BLU BLU BECMG WHT;
0229108600999992008010907004+48717+011533FM-12+0365ETSI V0201401N001010540019N0090001N1-00231-00321102201ADDGA1031+048001031GA2071+054001001GF107991031001999999031021MA1999999097631MD1010061+9999REMSYN130AAXX  09071 10860 42959 71401 11023 21032 39763 40220 50006 83032 333 83366 87068 555 BOT 11003 20000 30006 40022 50039 999 34///;
0153108600999992008010907204+48717+011533FM-15+0365ETSI V0209999C000010540019N0112651N1-00201-00201999999ADDGA1021+048001999GA2071+054001999GF107991999999999999999999MA1101901999999REMMET068METAR ETSI 090720Z 00000KT 9999 FEW160 BKN180 M02/M02 Q1019 BLU BLU;
0187108600999992008010908004+48717+011533FM-12+0365ETSI V0201501N001019999999N0120001N1-00241-00241102221ADDGA1021+030001031GA2031+042001031GF107991041001999999071021MA1999999097651MD1510041+9999REMSYN088AAXX  09081 10860 42962 71501 11024 21024 39765 40222 55004 84072 333 82360 83364 87068;
0176108600999992008010908204+48717+011533FM-15+0365ETSI V0209999C000010300019N0112651N1-00201-00301999999ADDGA1021+024001999GA2071+030001999GA3071+054001999GF107991999999999999999999MA1102001999999REMMET075METAR ETSI 090820Z 00000KT 9999 FEW080 BKN100 BKN180 M02/M03 Q1020 BLU BLU;
0153108600999992008010909204+48717+011533FM-15+0365ETSI V0201701N000510180019N0112651N1-00101-00201999999ADDGA1071+018001999GA2071+033001999GF107991999999999999999999MA1102001999999REMMET068METAR ETSI 090920Z 17001KT 9999 BKN060 BKN110 M01/M02 Q1020 BLU BLU;
0165108600999992008010910004+48717+011533FM-12+0365ETSI V0201701N001010180019N0150001N1-00051-00151102251ADDGA1051+018001061GF107991051051017501071999MA1999999097711MD1210081+9999REMSYN082AAXX  09101 10860 42765 71701 11005 21015 39771 40225 52008 8557/ 333 85656 87361;
0152108600999992008010910204+48717+011533FM-15+0365ETSI V0201701N000510150019N0112651N1+00001-00101999999ADDGA1071+015001999GA2071+030001999GF107991999999999999999999MA1102001999999REMMET067METAR ETSI 091020Z 17001KT 9999 BKN050 BKN100 00/M01 Q1020 BLU BLU;
0187108600999992008010911004+48717+011533FM-12+0365ETSI V0209999C000010150019N0200001N1+00061+00061102171ADDGA1011+012001061GA2051+015001061GF107991051051012501031999MA1999999097651MD1010001+9999REMSYN088AAXX  09111 10860 42670 70000 10006 20006 39765 40217 50000 8553/ 333 81640 85650 87358;
0174108600999992008010911204+48717+011533FM-15+0365ETSI V0209999C000010240019N0112651N1+00101+00001999999ADDGA1041+015001999GA2071+024001999GA3071+054001999GF107991999999999999999999MA1101901999999REMMET073METAR ETSI 091120Z 00000KT 9999 SCT050 BKN080 BKN180 01/00 Q1019 BLU BLU;
0128108600999992008010912204+48717+011533FM-15+0365ETSI V0200701N001010129019N0112651N1+00201+00001999999ADDGA1071+012901999GF107991999999999999999999MA1101801999999REMMET059METAR ETSI 091220Z 07002KT 9999 BKN043 02/00 Q1018 BLU BLU;
0159108600999992008010913004+48717+011533FM-12+0365ETSI V0200301N002010117019N0250001N1+00271+00101102021ADDGA1071+011701061GF107991071051012501999999MA1999999097541MD1710171+9999REMSYN076AAXX  09131 10860 42675 70302 10027 20010 39754 40202 57017 875// 333 87639;
0151108600999992008010913204+48717+011533FM-15+0365ETSI V0200401N000510117019N0112651N1+00301+00101999999ADDGA1071+011701999GA2071+018001999GF107991999999999999999999MA1101801999999REMMET066METAR ETSI 091320Z 04001KT 9999 BKN039 BKN060 03/01 Q1018 BLU BLU;
0165108600999992008010914004+48717+011533FM-12+0365ETSI V0200601N00201012001CN0200001N1+00261+00161102001ADDGA1031+012001061GF107991071051012501999999MA1999999097521MD1710131+9999REMSYN082AAXX  09141 10860 42670 70602 10026 20016 39752 40200 57013 875// 333 83640 87650;
0151108600999992008010914204+48717+011533FM-15+0365ETSI V0200501N001510210019N0112651N1+00301+00001999999ADDGA1041+015001999GA2071+021001999GF107991999999999999999999MA1101801999999REMMET066METAR ETSI 091420Z 05003KT 9999 SCT050 BKN070 03/00 Q1018 BLU BLU;
0151108600999992008010915204+48717+011533FM-15+0365ETSI V0200401N001510390019N0112651N1+00201+00001999999ADDGA1021+021001999GA2071+039001999GF107991999999999999999999MA1101801999999REMMET066METAR ETSI 091520Z 04003KT 9999 FEW070 BKN130 02/00 Q1018 BLU BLU;
0165108600999992008010916004+48717+011533FM-12+0365ETSI V0200201N00201090001CN0120001N1+00081-00051102051ADDGA1021+021001061GF105991021051022501031011MA1999999097541MD1510001+9999REMSYN082AAXX  09161 10860 42862 50202 10008 21005 39754 40205 55000 82531 333 82657 83363;
0160108600999992008010916204+48717+011533FM-15+0365ETSI V0201601N001010420019N0090001N1+00001-00101999999ADDGA1021+012001999GA2071+042001999GF107991999999999999999999MA1101801999999REMMET075METAR ETSI 091620Z 16002KT 9000 FEW040 BKN140 00/M01 Q1018 BLU FCST CANCEL;
0159108600999992008010917004+48717+011533FM-12+0365ETSI V0200101N001010111019N0100001N1+00041-00021102091ADDGA1071+011101061GF107991071051012501999999MA1999999097571MD1310051+9999REMSYN076AAXX  09171 10860 42660 70101 10004 21002 39757 40209 53005 875// 333 87637;
0148108600999992008010917204+48717+011533FM-15+0365ETSI V0201401N001510120019N0112651N1+00101-00101999999ADDGA1071+012001999GA2071+030001999GF107991999999999999999999MA1101801999999REMMET063METAR ETSI 091720Z 14003KT 9999 BKN040 BKN100 01/M01 Q1018 BLU;
0124108600999992008011004204+48717+011533FM-15+0365ETSI V0201401N001010051019N0112651N1+00201+00101999999ADDGA1071+005101999GF107991999999999999999999MA1102001999999REMMET055METAR ETSI 100420Z 14002KT 9999 BKN017 02/01 Q1020 WHT;
0159108600999992008011005004+48717+011533FM-12+0365ETSI V0201401N001010057019N0250001N1+00191+00111102241ADDGA1071+005701061GF107991071051004501999999MA1999999097741MD1610051+9999REMSYN076AAXX  10051 10860 43475 71401 10019 20011 39774 40224 56005 875// 333 87619;
0138108600999992008011005204+48717+011533FM-15+0365ETSI V0201501N001010057019N0112651N1+00201+00101999999ADDGA1071+005701999GF107991999999999999999999MA1102001999999REMMET069METAR ETSI 100520Z 15002KT 9999 BKN019 02/01 Q1020 WHT BLU TEMPO WHT;
0161108600999992008011006204+48717+011533FM-15+0365ETSI V0201501N000510069019N0112651N1+00201+00101999999ADDGA1071+006901999GA2071+010201999GF107991999999999999999999MA1102001999999REMMET076METAR ETSI 100620Z 15001KT 9999 BKN023 BKN034 02/01 Q1020 WHT BLU TEMPO WHT;
0229108600999992008011007004+48717+011533FM-12+0365ETSI V0201501N001010105019N0180001N1+00211+00191102261ADDGA1011+007501061GA2071+010501061GF107991071051008001999999MA1999999097761MD1310031+9999REMSYN130AAXX  10071 10860 42568 71501 10021 20019 39776 40226 53003 875// 333 81625 87635 555 BOT 11004 20001 30006 40021 50038 999 34///;
0138108600999992008011007204+48717+011533FM-15+0365ETSI V0200201N001510090019N0112651N1+00201+00201999999ADDGA1071+009001999GF107991999999999999999999MA1102101999999REMMET069METAR ETSI 100720Z 02003KT 9999 BKN030 02/02 Q1021 BLU BLU TEMPO WHT;
0165108600999992008011008004+48717+011533FM-12+0365ETSI V0200201N001012200019N0150001N1+00211+00091102301ADDGA1011+008401061GF105991031051008001001011MA1999999097801MD1210061+9999REMSYN082AAXX  10081 10860 42565 50201 10021 20009 39780 40230 52006 83501 333 81628 83656;
0162108600999992008011008204+48717+011533FM-15+0365ETSI V0200801N000510600019N0112651N1+00201+00101999999ADDGA1021+007501999GA2071+060001999GF107991999999999999999999MA1102101999999REMMET077METAR ETSI 100820Z 08001KT 9999 FEW025 BKN200 02/01 Q1021 BLU+BLU TEMPO BLU+;
0162108600999992008011009204+48717+011533FM-15+0365ETSI V0201401N001012200019N0112651N1+00601+00201999999ADDGA1021+007501999GA2041+060001999GF104991999999999999999999MA1102101999999REMMET077METAR ETSI 100920Z 14002KT 9999 FEW025 SCT200 06/02 Q1021 BLU+BLU TEMPO BLU+;
0165108600999992008011010004+48717+011533FM-12+0365ETSI V0201601N00101036001CN0250001N1+00681+00201102241ADDGA1011+006001081GF107991011081008001031011MA1999999097821MD1110061+9999REMSYN082AAXX  10101 10860 42575 71601 10068 20020 39782 40224 51006 81831 333 81820 86070;
0185108600999992008011010204+48717+011533FM-15+0365ETSI V0202201N00151015001CN0112651N1+00801+00201999999ADDGA1021+007501999GA2041+015001999GA3071+060001999GF107991999999999999999999MA1102101999999REMMET084METAR ETSI 101020Z 22003KT 9999 FEW025 SCT050 BKN200 08/02 Q1021 BLU+BLU TEMPO BLU+;
0165108600999992008011011004+48717+011533FM-12+0365ETSI V0202201N00201036001CN0300001N1+00841+00151102181ADDGA1011+008401081GF107991021081008001031011MA1999999097781MD1810021+9999REMSYN082AAXX  10111 10860 42580 72202 10084 20015 39778 40218 58002 82831 333 81828 87070;
0152108600999992008011011204+48717+011533FM-15+0365ETSI V0201901N002110750019N0112651N1+00901+00301999999ADDGA1041+015001999GA2071+075001999GF107991999999999999999999MA1102101999999REMMET067METAR ETSI 101120Z 19004KT 9999 SCT050 BKN250 09/03 Q1021 BLU+BLU+;
0152108600999992008011012204+48717+011533FM-15+0365ETSI V0202201N002110810019N0112651N1+01001+00301999999ADDGA1041+015001999GA2071+081001999GF107991999999999999999999MA1102001999999REMMET067METAR ETSI 101220Z 22004KT 9999 SCT050 BKN270 10/03 Q1020 BLU+BLU+;
0165108600999992008011013004+48717+011533FM-12+0365ETSI V0202101N00201220001CN0350001N1+00951+00241102021ADDGA1031+015001061GF107991031051017501001011MA1999999097651MD1810171+9999REMSYN082AAXX  10131 10860 42781 72102 10095 20024 39765 40202 58017 83501 333 83650 87077;
0152108600999992008011013204+48717+011533FM-15+0365ETSI V0201801N001010810019N0112651N1+01001+00301999999ADDGA1021+015001999GA2071+081001999GF107991999999999999999999MA1101901999999REMMET067METAR ETSI 101320Z 18002KT 9999 FEW050 BKN270 10/03 Q1019 BLU+BLU+;
0165108600999992008011014004+48717+011533FM-12+0365ETSI V0201401N00101220001CN0350001N1+01061+00371101951ADDGA1021+015001061GF107991031051017501001011MA1999999097601MD1710181+9999REMSYN082AAXX  10141 10860 42781 71401 10106 20037 39760 40195 57018 83501 333 82650 86077;
0152108600999992008011014204+48717+011533FM-15+0365ETSI V0201701N002110810019N0112651N1+01101+00301999999ADDGA1021+015001999GA2071+081001999GF107991999999999999999999MA1101901999999REMMET067METAR ETSI 101420Z 17004KT 9999 FEW050 BKN270 11/03 Q1019 BLU+BLU+;
0152108600999992008011015204+48717+011533FM-15+0365ETSI V0209999C000010780019N0112651N1+00901+00301999999ADDGA1021+015001999GA2071+078001999GF107991999999999999999999MA1101901999999REMMET067METAR ETSI 101520Z 00000KT 9999 FEW050 BKN260 09/03 Q1019 BLU+BLU+;
0165108600999992008011016004+48717+011533FM-12+0365ETSI V0201501N00101036001CN0500001N1+00711+00251101971ADDGA1011+015001061GF106991011051017501031011MA1999999097561MD1810091+9999REMSYN082AAXX  10161 10860 42784 61501 10071 20025 39756 40197 58009 81531 333 81650 85076;
0159108600999992008011016204+48717+011533FM-15+0365ETSI V0209999V000510780019N0112651N1+00601+00301999999ADDGA1041+024001999GA2071+078001999GF107991999999999999999999MA1101801999999REMMET074METAR ETSI 101620Z VRB01KT 9999 SCT080 BKN260 06/03 Q1018 BLU+FCST CANCEL;
0165108600999992008011017004+48717+011533FM-12+0365ETSI V0209999C00001220001CN0400001N1+00421+00201101991ADDGA1021+015001061GF106991021051017501001011MA1999999097541MD1710061+9999REMSYN082AAXX  10171 10860 42782 60000 10042 20020 39754 40199 57006 82501 333 82650 85076;
0148108600999992008011017204+48717+011533FM-15+0365ETSI V0201801N001510810019N0112651N1+00301+00201999999ADDGA1021+015001999GA2071+081001999GF107991999999999999999999MA1101801999999REMMET063METAR ETSI 101720Z 18003KT 9999 FEW050 BKN270 03/02 Q1018 BLU+;
0148108600999992008011018204+48717+011533FM-15+0365ETSI V0201901N001512200019N0112651N1+00501+00101999999ADDGA1021+060001999GA2041+081001999GF104991999999999999999999MA1101801999999REMMET063METAR ETSI 101820Z 19003KT 9999 FEW200 SCT270 05/01 Q1018 BLU+;
0078108600999992008011104204+48717+011533FM-15+0365ETSI V0200201N001012200019N0112651N1-00201-00201999999ADDMA1101591999999REMMET051METAR ETSI 110420Z 02002KT 9999 M02/M02 Q1016 BLU+;
0143108600999992008011105004+48717+011533FM-12+0365ETSI V0209999C000012200019N0100001N1-00261-00371101851ADDGA1001+999999999GF100991001001999999001001MA1999999097291MD1710191+9999REMSYN060AAXX  11051 10860 42960 00000 11026 21037 39729 40185 57019;
0091108600999992008011105204+48717+011533FM-15+0365ETSI V0201501N000512200019N0112651N1-00201-00301999999ADDMA1101591999999REMMET064METAR ETSI 110520Z 15001KT 9999 M02/M03 Q1016 BLU+BLU+TEMPO WHT;
0140108600999992008011106204+48717+011533FM-15+0365ETSI V0200801N001012200019N0112651N1-00201-00301999999ADDGA1021+018001999GF102991999999999999999999MA1101491999999REMMET071METAR ETSI 110620Z 08002KT 9999 FEW060 M02/M03 Q1015 BLU+BLU+TEMPO WHT;
0207108600999992008011107004+48717+011533FM-12+0365ETSI V0200601N002012200019N0400001N1-00271-00361101791ADDGA1021+018001061GF103991021051017501031001MA1999999097231MD1710091+9999REMSYN124AAXX  11071 10860 42782 30602 11027 21036 39723 40179 57009 82530 333 82656 555 BOT 11003 20002 30009 40023 50038 999 34///;
0140108600999992008011107204+48717+011533FM-15+0365ETSI V0200801N002612200019N0112651N1-00201-00401999999ADDGA1021+030001999GF102991999999999999999999MA1101491999999REMMET071METAR ETSI 110720Z 08005KT 9999 FEW100 M02/M04 Q1015 BLU+BLU+TEMPO WHT;
0159108600999992008011108004+48717+011533FM-12+0365ETSI V0200601N002012200019N0400001N1-00111-00301101721ADDGA1021+030001031GF103991021001999999031011MA1999999097191MD1710101+9999REMSYN076AAXX  11081 10860 42982 30602 11011 21030 39719 40172 57010 82031 333 82360;
0130108600999992008011108204+48717+011533FM-15+0365ETSI V0200501N002612200019N0112651N1+00001-00201999999ADDGA1021+030001999GF102991999999999999999999MA1101491999999REMMET061METAR ETSI 110820Z 05005KT 9999 FEW100 00/M02 Q1015 BLU+BLU+;
0130108600999992008011109204+48717+011533FM-15+0365ETSI V0200701N003612200019N0112651N1+00201-00201999999ADDGA1021+027001999GF102991999999999999999999MA1101391999999REMMET061METAR ETSI 110920Z 07007KT 9999 FEW090 02/M02 Q1014 BLU+BLU+;
0165108600999992008011110004+48717+011533FM-12+0365ETSI V0200601N003012200019N0200001N1+00341-00091101571ADDGA1011+027001031GF103991011001999999031011MA1999999097121MD1710111+9999REMSYN082AAXX  11101 10860 42970 30603 10034 21009 39712 40157 57011 81031 333 81359 83078;
0153108600999992008011110204+48717+011533FM-15+0365ETSI V0200401N002112200019N0112651N1+00401-00201999999ADDGA1021+027001999GA2041+084001999GF104991999999999999999999MA1101391999999REMMET068METAR ETSI 111020Z 04004KT 9999 FEW090 SCT280 04/M02 Q1014 BLU+BLU+;
0165108600999992008011111004+48717+011533FM-12+0365ETSI V0200501N003019999999N0200001N1+00471-00131101461ADDGA1011+027001031GF106991011001999999031011MA1999999097041MD1710151+9999REMSYN082AAXX  11111 10860 42970 60503 10047 21013 39704 40146 57015 81031 333 81359 86078;
0152108600999992008011111204+48717+011533FM-15+0365ETSI V0200501N002610840019N0112651N1+00601+00001999999ADDGA1021+027001999GA2071+084001999GF107991999999999999999999MA1101291999999REMMET067METAR ETSI 111120Z 05005KT 9999 FEW090 BKN280 06/00 Q1013 BLU+BLU+;
0153108600999992008011112204+48717+011533FM-15+0365ETSI V0200501N003112200019N0112651N1+00701+00001999999ADDGA1021+027001999GA2041+084001999GF104991999999999999999999MA1101081999999REMMET068METAR ETSI 111220Z 05006KT 9999 FEW090 SCT280 07/M00 Q1011 BLU+BLU+;
0159108600999992008011112304+48717+011533FM-16+0365ETSI V0200601N002612200019N0112651N1+00701+00101999999ADDGA1021+027001999GA2041+084001999GF104991999999999999999999MA1101081999999REMMET074SPECI ETSI 111230Z 06005KT 9999 FEW090 SCT280 07/01 Q1011 BLU+FCST CANCEL;
0165108600999992008011113004+48717+011533FM-12+0365ETSI V0200701N003019999999N0200001N1+00751+00011101181ADDGA1011+027001031GF105991011001999999031011MA1999999096811MD1710311+9999REMSYN082AAXX  11131 10860 42970 50703 10075 20001 39681 40118 57031 81031 333 81359 85078;
0149108600999992008011113204+48717+011533FM-15+0365ETSI V0200601N003110840019N0112651N1+00601+00001999999ADDGA1021+027001999GA2071+084001999GF107991999999999999999999MA1101021999999REMMET064METAR ETSI 111320Z 06006KT 9999 FEW090 BKN280 06/M00 Q1010 BLU+;
0165108600999992008011114004+48717+011533FM-12+0365ETSI V0200601N003019999999N0170001N1+00601+00021101111ADDGA1011+027001031GF105991011001999999031011MA1999999096721MD1710321+9999REMSYN082AAXX  11141 10860 42967 50603 10060 20002 39672 40111 57032 81031 333 81359 85078;
0149108600999992008011114204+48717+011533FM-15+0365ETSI V0200601N003610840019N0112651N1+00501+00001999999ADDGA1021+027001999GA2071+084001999GF107991999999999999999999MA1100911999999REMMET064METAR ETSI 111420Z 06007KT 9999 FEW090 BKN280 05/M00 Q1009 BLU+;
0149108600999992008011115204+48717+011533FM-15+0365ETSI V0200601N003110900019N0112651N1+00301-00201999999ADDGA1021+030001999GA2071+090001999GF107991999999999999999999MA1100811999999REMMET064METAR ETSI 111520Z 06006KT 9999 FEW100 BKN300 03/M02 Q1008 BLU+;
0165108600999992008011116004+48717+011533FM-12+0365ETSI V0200601N003019999999N0100001N1+00161-00091101021ADDGA1011+030001031GF107991011001999999031011MA1999999096571MD1710241+9999REMSYN082AAXX  11161 10860 42960 70603 10016 21009 39657 40102 57024 81031 333 81360 87080;
0149108600999992008011116204+48717+011533FM-15+0365ETSI V0200601N003610900019N0112651N1+00101-00201999999ADDGA1021+030001999GA2071+090001999GF107991999999999999999999MA1100811999999REMMET064METAR ETSI 111620Z 06007KT 9999 FEW100 BKN300 01/M02 Q1008 BLU+;
0165108600999992008011117004+48717+011533FM-12+0365ETSI V0200601N004019999999N0100001N1+00081-00231100981ADDGA1011+030001031GF107991011001999999031011MA1999999096521MD1710201+9999REMSYN082AAXX  11171 10860 42960 70604 10008 21023 39652 40098 57020 81031 333 81360 87080;
0149108600999992008011117204+48717+011533FM-15+0365ETSI V0200701N003610900019N0112651N1+00101-00201999999ADDGA1021+030001999GA2071+090001999GF107991999999999999999999MA1100711999999REMMET064METAR ETSI 111720Z 07007KT 9999 FEW100 BKN300 01/M02 Q1007 BLU+;
0149108600999992008011118204+48717+011533FM-15+0365ETSI V0200601N003110840019N0112651N1+00001-00301999999ADDGA1021+030001999GA2071+084001999GF107991999999999999999999MA1100711999999REMMET064METAR ETSI 111820Z 06006KT 9999 FEW100 BKN280 00/M03 Q1007 BLU+;
0148108600999992008011209204+48717+011533FM-15+0365ETSI V0201801N000510120019N0090001N1+00001-00201999999ADDGA1071+012001999GA2071+030001999GF107991999999999999999999MA1100811999999REMMET063METAR ETSI 120920Z 18001KT 9000 BKN040 BKN100 00/M02 Q1008 BLU;
0125108600999992008011210204+48717+011533FM-15+0365ETSI V0201701N001010150019N0090001N1+00201-00101999999ADDGA1071+015001999GF107991999999999999999999MA1100911999999REMMET056METAR ETSI 121020Z 17002KT 9000 BKN050 02/M01 Q1009 BLU;
0148108600999992008011211204+48717+011533FM-15+0365ETSI V0202601N001510180019N0112651N1+00301+00001999999ADDGA1021+006001999GA2071+018001999GF107991999999999999999999MA1101021999999REMMET063METAR ETSI 121120Z 26003KT 9999 FEW020 BKN060 03/M00 Q1010 BLU;
0125108600999992008011317204+48717+011533FM-15+0365ETSI V0200601N001510033019N0060001N1+00201-00101999999ADDGA1071+003301999GF107991999999999999999999MA1101591999999REMMET056METAR ETSI 131720Z 06003KT 6000 BKN011 02/M01 Q1016 GRN;
0134108600999992008011318204+48717+011533FM-15+0365ETSI V0200401N002610036019N0045001N1+00101-00101999999ADDGA1071+003601999GF107991999999999999999999MA1101591999999MW1101REMMET059METAR ETSI 131820Z 04005KT 4500 BR BKN012 01/M01 Q1016 GRN;
0154108600999992008011404204+48717+011533FM-15+0365ETSI V0201701N000510006019N0015001N1+00001-00101999999ADDED199U23009GA1081+000601999GF108991999999999999999999MA1101291999999MW1101REMMET068METAR ETSI 140420Z 17001KT 1500 R25/2300 BR OVC002 00/M01 Q1013 AMB;
0179108600999992008011405004+48717+011533FM-12+0365ETSI V0201401N002010006019N0014001N1+00011-00081101581ADDAY121999GA1081+000601071GF108991081061000751999999MA1999999097081MD1710041+9999MW1101REMSYN082AAXX  14051 10860 41114 81402 10001 21008 39708 40158 57004 7102/ 886// 333 88702;
0168108600999992008011405204+48717+011533FM-15+0365ETSI V0201601N001010006019N0012001N1+00001+00001999999ADDED199U13009GA1081+000601999GF108991999999999999999999MA1101291999999MW1101REMMET082METAR ETSI 140520Z 16002KT 1200 R25/1300 BR OVC002 00/M00 Q1013 AMB AMB TEMPO RED;
0177108600999992008011406204+48717+011533FM-15+0365ETSI V0201201N001010006019N0012001N1+00001+00001999999ADDED199U20009GA1081+000601999GF108991999999999999999999MA1101291999999MW1101MW2511REMMET085METAR ETSI 140620Z 12002KT 1200 R25/2000 -DZ BR OVC002 M00/M00 Q1013 AMB AMB TPO RED;
0179108600999992008011406354+48717+011533FM-16+0365ETSI V0200801N002110006019N0007001N1+00001-00101999999ADDED199U25009GA1081+000601999GF108991999999999999999999MA1101291999999MW1481MW2511REMMET087SPECI ETSI 140635Z 08004KT 0700 R25/2500 -DZ FZFG OVC002 M00/M01 Q1013 RED AMB TPO RED;
0235108600999992008011407004+48717+011533FM-12+0365ETSI V0200801N001010006019N0007001N1-00041-00091101601ADDAY151999AY221999GA1081+000601071GF108991081061000751999999MA1999999097091MD1510001+9999MW1461REMSYN130AAXX  14071 10860 41107 80801 11004 21009 39709 40160 55000 74652 886// 333 88702 555 BOT 11002 20001 30009 40023 50038 999 31///;
0169108600999992008011407204+48717+011533FM-15+0365ETSI V0202601N001010006019N0008001N1+00001+00001999999ADDED199U10009GA1081+000601999GF108991999999999999999999MA1101391999999MW1481REMMET083METAR ETSI 140720Z 26002KT 0800 R25/1000 FZFG OVC002 M00/M00 Q1014 AMB AMB TPO RED;
0169108600999992008011407474+48717+011533FM-16+0365ETSI V0203401N001010006019N0007001N1+00001-00101999999ADDED199U10009GA1081+000601999GF108991999999999999999999MA1101391999999MW1481REMMET083SPECI ETSI 140747Z 34002KT 0700 R25/1000 FZFG OVC002 M00/M01 Q1014 RED AMB TPO RED;
0187108600999992008011408004+48717+011533FM-12+0365ETSI V0203401N001010006019N0007001N1-00041-00101101641ADDAY141999AY241999GA1081+000601071GF108991081061000751999999MA1999999097131MD1310051+9999MW1441REMSYN082AAXX  14081 10860 41107 83401 11004 21010 39713 40164 53005 74444 886// 333 88702;
0169108600999992008011408204+48717+011533FM-15+0365ETSI V0201101N001010006019N0008001N1+00001+00001999999ADDED199U10009GA1081+000601999GF108991999999999999999999MA1101391999999MW1481REMMET083METAR ETSI 140820Z 11002KT 0800 R25/1000 FZFG OVC002 M00/M00 Q1014 AMB AMB TPO RED;
0161108600999992008011409204+48717+011533FM-15+0365ETSI V0201301N001010006019N0009001N1+00001-00101999999ADDED199U12009GA1081+000601999GF108991999999999999999999MA1101491999999MW1481REMMET075METAR ETSI 140920Z 13002KT 0900 R25/1200 FZFG OVC002 M00/M01 Q1015 AMB AMB;
0187108600999992008011410004+48717+011533FM-12+0365ETSI V0201301N001010006019N0009001N1-00031-00031101701ADDAY141999AY241999GA1081+000601071GF108991081061000751999999MA1999999097191MD1110101+9999MW1441REMSYN082AAXX  14101 10860 41109 81301 11003 21003 39719 40170 51010 74444 886// 333 88702;
0169108600999992008011410204+48717+011533FM-15+0365ETSI V0201601N001010006019N0012001N1+00001+00001999999ADDED199U19009GA1081+000601999GF108991999999999999999999MA1101491999999MW1101REMMET083METAR ETSI 141020Z 16002KT 1200 R25/1900 BR OVC002 M00/M00 Q1015 AMB AMB BECMG YLO;
0169108600999992008011410304+48717+011533FM-16+0365ETSI V0209999V000510006019N0016001N1+00001+00001999999ADDED199U19009GA1081+000601999GF108991999999999999999999MA1101491999999MW1101REMMET083SPECI ETSI 141030Z VRB01KT 1600 R25/1900 BR OVC002 M00/M00 Q1015 AMB AMB BECMG YLO;
0187108600999992008011411004+48717+011533FM-12+0365ETSI V0209999V001010006019N0020001N1-00011-00121101711ADDAY141999AY221999GA1081+000601071GF108991081061000751999999MA1999999097201MD1210071+9999MW1281REMSYN082AAXX  14111 10860 41120 89901 11001 21012 39720 40171 52007 72842 886// 333 88702;
0138108600999992008011411204+48717+011533FM-15+0365ETSI V0202201N002110009019N0030001N1+00001-00101999999ADDGA1081+000901999GF108991999999999999999999MA1101491999999MW1101REMMET063METAR ETSI 141120Z 22004KT 3000 BR OVC003 00/M01 Q1015 YLO YLO;
0148108600999992008011412204+48717+011533FM-15+0365ETSI V0202001N001510009019N0030001N1+00001-00101999999ADDGA1081+000901999GF108991999999999999999999MA1101391999999MW1101MW2511REMMET067METAR ETSI 141220Z 20003KT 3000 -DZ BR OVC003 00/M01 Q1014 YLO YLO;
0187108600999992008011413004+48717+011533FM-12+0365ETSI V0202301N002010009019N0030001N1+00041-00181101661ADDAY151999AY221999GA1081+000901071GF108991081061001501999999MA1999999097161MD1810031+9999MW1511REMSYN082AAXX  14131 10860 41230 82302 10004 21018 39716 40166 58003 75152 886// 333 88703;
0138108600999992008011413204+48717+011533FM-15+0365ETSI V0201901N001510012019N0035001N1+00001-00101999999ADDGA1081+001201999GF108991999999999999999999MA1101391999999MW1101REMMET063METAR ETSI 141320Z 19003KT 3500 BR OVC004 00/M01 Q1014 YLO YLO;
0187108600999992008011414004+48717+011533FM-12+0365ETSI V0201801N001010012019N0040001N1+00041-00091101631ADDAY121999AY221999GA1081+001201071GF108991081061001501999999MA1999999097131MD1810031+9999MW1201REMSYN082AAXX  14141 10860 41240 81801 10004 21009 39713 40163 58003 72022 886// 333 88704;
0138108600999992008011414204+48717+011533FM-15+0365ETSI V0202201N001510015019N0045001N1+00101-00101999999ADDGA1081+001501999GF108991999999999999999999MA1101391999999MW1101REMMET063METAR ETSI 141420Z 22003KT 4500 BR OVC005 01/M01 Q1014 YLO YLO;
0138108600999992008011415004+48717+011533FM-15+0365ETSI V0202201N001010015019N0050001N1+00101-00101999999ADDGA1081+001501999GF108991999999999999999999MA1101391999999MW1101REMMET063SPECI ETSI 141458Z 22002KT 5000 BR OVC005 01/M01 Q1014 YLO YLO;
0138108600999992008011415204+48717+011533FM-15+0365ETSI V0201601N001010015019N0050001N1+00101-00101999999ADDGA1081+001501999GF108991999999999999999999MA1101391999999MW1101REMMET063METAR ETSI 141520Z 16002KT 5000 BR OVC005 01/M01 Q1014 YLO YLO;
0187108600999992008011416004+48717+011533FM-12+0365ETSI V0201701N002010015019N0050001N1+00061-00011101681ADDAY121999AY221999GA1081+001501071GF108991081061001501999999MA1999999097181MD1310021+9999MW1101REMSYN082AAXX  14161 10860 41250 81702 10006 21001 39718 40168 53002 71022 886// 333 88705;
0146108600999992008011416204+48717+011533FM-15+0365ETSI V0201501N001010012019N0050001N1+00101-00101999999ADDGA1081+001201999GF108991999999999999999999MA1101491999999MW1101REMMET071METAR ETSI 141620Z 15002KT 5000 BR OVC004 01/M01 Q1015 YLO FCST CANCEL;
0187108600999992008011417004+48717+011533FM-12+0365ETSI V0201001N001010012019N0050001N1+00031-00121101671ADDAY121999AY221999GA1081+001201071GF108991081061001501999999MA1999999097171MD1010041+9999MW1101REMSYN082AAXX  14171 10860 41250 81001 10003 21012 39717 40167 50004 71022 886// 333 88704;
0134108600999992008011417204+48717+011533FM-15+0365ETSI V0209999V000510012019N0050001N1+00001-00101999999ADDGA1081+001201999GF108991999999999999999999MA1101491999999MW1101REMMET059METAR ETSI 141720Z VRB01KT 5000 BR OVC004 00/M01 Q1015 YLO;
0135108600999992008011418204+48717+011533FM-15+0365ETSI V0201001N001010006019N0040001N1+00001-00101999999ADDGA1081+000601999GF108991999999999999999999MA1101491999999MW1101REMMET060METAR ETSI 141820Z 10002KT 4000 BR OVC002 M00/M01 Q1015 AMB;
0134108600999992008011418454+48717+011533FM-16+0365ETSI V0200901N001510003019N0030001N1+00001-00101999999ADDGA1091+000301999GF109991999999000251999999MA1101391999999MW1101REMMET059SPECI ETSI 141845Z 09003KT 3000 BR VV001 M00/M01 Q1014 RED;
0154108600999992008011418534+48717+011533FM-16+0365ETSI V0200901N001510003019N0015001N1+00001-00201999999ADDED199U14009GA1091+000301999GF109991999999000251999999MA1101491999999MW1101REMMET068SPECI ETSI 141853Z 09003KT 1500 R25/1400 BR VV001 M00/M02 Q1015 RED;
0134108600999992008011419204+48717+011533FM-15+0365ETSI V0201201N001010003019N0020001N1+00001-00101999999ADDGA1091+000301999GF109991999999000251999999MA1101491999999MW1101REMMET059METAR ETSI 141920Z 12002KT 2000 BR VV001 M00/M01 Q1015 RED;
0135108600999992008011504204+48717+011533FM-15+0365ETSI V0201001N001512200019N0050001N1+00001-00201999999ADDGA1041+021001999GF104991999999999999999999MA1101391999999MW1101REMMET060METAR ETSI 150420Z 10003KT 5000 BR SCT070 M00/M02 Q1014 WHT;
0179108600999992008011505004+48717+011533FM-12+0365ETSI V0200401N001012200019N0050001N1-00051-00151101621ADDAY111999GA1031+021001031GF103991031001022501031001MA1999999097111MD1810051+9999MW1101REMSYN082AAXX  15051 10860 41850 30401 11005 21015 39711 40162 58005 7101/ 83030 333 83357;
0149108600999992008011505204+48717+011533FM-15+0365ETSI V0200901N001512200019N0050001N1-00201-00201999999ADDGA1021+021001999GF102991999999999999999999MA1101391999999MW1101REMMET074METAR ETSI 150520Z 09003KT 5000 BR FEW070 M02/M02 Q1014 WHT WHT TEMPO YLO;
0160108600999992008011506204+48717+011533FM-15+0365ETSI V0201401N001012200019N0050001N1-00201-00201999999ADDGA1021+024001999GF102991999999999999999999MA1101391999999MW1101MW2121REMMET079METAR ETSI 150620Z 14002KT 5000 MIFG BR FEW080 M02/M02 Q1014 WHT WHT TEMPO YLO;
0235108600999992008011507004+48717+011533FM-12+0365ETSI V0200901N002012200019N0060001N1-00171-00291101681ADDAY101999AY201999GA1011+024001031GF101991011001022501031011MA1999999097141MD1310011+9999MW1111REMSYN130AAXX  15071 10860 41856 10902 11017 21029 39714 40168 53001 71100 81031 333 81358 555 BOT 10002 20005 30013 40026 50039 999 31///;
0163108600999992008011507204+48717+011533FM-15+0365ETSI V0200901N001512200019N0060001N1-00201-00301999999ADDGA1021+027001999GA2041+069001999GF104991999999999999999999MA1101391999999REMMET078METAR ETSI 150720Z 09003KT 6000 FEW090 SCT230 M02/M03 Q1014 WHT WHT TEMPO YLO;
0187108600999992008011508004+48717+011533FM-12+0365ETSI V0200801N002010600019N0060001N1-00131-00271101671ADDAY111999AY211999GA1071+060001001GF107991001001999999001011MA1999999097131MD1010021+9999MW1101REMSYN082AAXX  15081 10860 41956 70802 11013 21027 39713 40167 50002 71011 80001 333 87070;
0141108600999992008011508204+48717+011533FM-15+0365ETSI V0200701N002110690019N0060001N1-00101-00101999999ADDGA1071+069001999GF107991999999999999999999MA1101391999999REMMET072METAR ETSI 150820Z 07004KT 6000 BKN230 M01/M01 Q1014 WHT WHT BECMG BLU+;
0130108600999992008011509204+48717+011533FM-15+0365ETSI V0200701N002610600019N0090001N1+00101-00101999999ADDGA1071+060001999GF107991999999999999999999MA1101391999999REMMET061METAR ETSI 150920Z 07005KT 9000 BKN200 01/M01 Q1014 BLU+BLU+;
0159108600999992008011510004+48717+011533FM-12+0365ETSI V0200701N002010600019N0090001N1+00151-00101101581ADDGA1071+060001001GF107991001001999999001011MA1999999097091MD1710051+9999REMSYN076AAXX  15101 10860 42959 70702 10015 21010 39709 40158 57005 80001 333 87070;
0130108600999992008011510204+48717+011533FM-15+0365ETSI V0200701N002110600019N0090001N1+00201+00001999999ADDGA1071+060001999GF107991999999999999999999MA1101291999999REMMET061METAR ETSI 151020Z 07004KT 9000 BKN200 02/M00 Q1013 BLU+BLU+;
0247108600999992008011511004+48717+011533SY-MT+0365ETSI V0200601N002010690019N0080001N1+00261-00081101461ADDGA1071+069001999GF107991001001999999001011MA1101291097001MD1810131+9999MW1401REMSYN076AAXX  15111 10860 42958 70602 10026 21008 39700 40146 58013 80001 333 87073;MET076SPECI ETSI 151100Z 07005KT 5000 VCFG BKN230 02/M01 Q1013 WHT BLU+ TEMPO WHT;
0151108600999992008011511204+48717+011533FM-15+0365ETSI V0200701N002610690019N0050001N1+00201-00101999999ADDGA1071+069001999GF107991999999999999999999MA1101191999999MW1401REMMET076METAR ETSI 151120Z 07005KT 5000 VCFG BKN230 02/M01 Q1012 WHT BLU+ TEMPO WHT;
0140108600999992008011512204+48717+011533FM-15+0365ETSI V0200601N002610690019N0080001N1+00401+00001999999ADDGA1071+069001999GF107991999999999999999999MA1101081999999REMMET071METAR ETSI 151220Z 06005KT 8000 BKN230 04/M00 Q1011 BLU+BLU+ TEMPO WHT;
0159108600999992008011513004+48717+011533FM-12+0365ETSI V0200501N003010690019N0090001N1+00441-00011101171ADDGA1071+069001001GF107991001001999999001011MA1999999096751MD1710341+9999REMSYN076AAXX  15131 10860 42959 70503 10044 21001 39675 40117 57034 80001 333 87073;
0163108600999992008011513204+48717+011533FM-15+0365ETSI V0200501N003110840019N0112651N1+00501+00001999999ADDGA1021+024001999GA2071+084001999GF107991999999999999999999MA1100911999999REMMET078METAR ETSI 151320Z 05006KT 9999 FEW080 BKN280 05/M00 Q1009 BLU+BLU+ TEMPO WHT;
0165108600999992008011514004+48717+011533FM-12+0365ETSI V0200401N00301220001CN0100001N1+00391+00021101111ADDGA1011+024001031GF107991011001022501031011MA1999999096681MD1710321+9999REMSYN082AAXX  15141 10860 42860 70403 10039 20002 39668 40111 57032 81031 333 81358 87078;
0163108600999992008011514204+48717+011533FM-15+0365ETSI V0200601N003610840019N0112651N1+00301-00101999999ADDGA1021+024001999GA2071+084001999GF107991999999999999999999MA1100911999999REMMET078METAR ETSI 151420Z 06007KT 9999 FEW080 BKN280 03/M01 Q1009 BLU+BLU+ TEMPO WHT;
0163108600999992008011515204+48717+011533FM-15+0365ETSI V0200501N003110840019N0060001N1+00201-00101999999ADDGA1021+024001999GA2071+084001999GF107991999999999999999999MA1100811999999REMMET078METAR ETSI 151520Z 05006KT 6000 FEW080 BKN280 02/M01 Q1008 WHT BLU+ TEMPO WHT;
0169108600999992008011515574+48717+011533FM-16+0365ETSI V0200701N003610780019N0045001N1+00101-00101999999ADDGA1021+024001999GA2071+078001999GF107991999999999999999999MA1100811999999MW1101REMMET078SPECI ETSI 151557Z 07007KT 4500 BR FEW080 BKN260 01/M01 Q1008 GRN FCST CANCEL;
0193108600999992008011516004+48717+011533FM-12+0365ETSI V0200601N00401220001CN0050001N1+00091-00081100991ADDAY121011AY221011GA1011+024001031GF107991011001022501031011MA1999999096521MD1710231+9999MW1101REMSYN088AAXX  15161 10860 41850 70604 10009 21008 39652 40099 57023 71022 81031 333 81358 87076;
0157108600999992008011516204+48717+011533FM-15+0365ETSI V0200501N003110690019N0035001N1+00101-00201999999ADDGA1021+024001999GA2071+069001999GF107991999999999999999999MA1100711999999MW1101REMMET066METAR ETSI 151620Z 05006KT 3500 BR FEW080 BKN230 01/M02 Q1007 YLO;
0281108600999992008011517004+48717+011533SY-MT+0365ETSI V0200601N00301000601CN0035001N1+00021-00051100961ADDAY121999AY221999GA1071+000601999GA2071+069001999GF107991011001022501031011MA1100711096481MD1710201+9999MW1101REMSYN088AAXX  15171 10860 41835 70603 10002 21005 39648 40096 57020 71022 81031 333 81358 87073;MET066SPECI ETSI 151700Z 06006KT 2000 BR BKN002 BKN230 00/M02 Q1007 AMB;
0134108600999992008011517204+48717+011533FM-15+0365ETSI V0200601N003110006019N0020001N1+00001-00101999999ADDGA1081+000601999GF108991999999999999999999MA1100711999999MW1101REMMET059METAR ETSI 151720Z 06006KT 2000 BR OVC002 00/M01 Q1007 AMB;
0157108600999992008011517404+48717+011533FM-16+0365ETSI V0200801N003110630019N0020001N1+00001-00101999999ADDGA1041+000601999GA2071+063001999GF107991999999999999999999MA1100611999999MW1101REMMET066SPECI ETSI 151740Z 08006KT 2000 BR SCT002 BKN210 00/M01 Q1006 YLO;
0158108600999992008011518024+48717+011533FM-16+0365ETSI V0200701N003110630019N0030001N1+00001-00101999999ADDGA1021+000601999GA2071+063001999GF107991999999999999999999MA1100611999999MW1101REMMET067SPECI ETSI 151802Z 07006KT 3000 BR FEW002 BKN210 M00/M01 Q1006 YLO;
0135108600999992008011518204+48717+011533FM-15+0365ETSI V0200601N002610630019N0030001N1+00001-00101999999ADDGA1071+063001999GF107991999999999999999999MA1100611999999MW1101REMMET060METAR ETSI 151820Z 06005KT 3000 BR BKN210 M00/M01 Q1006 YLO;
0148108600999992008011604204+48717+011533FM-15+0365ETSI V0209999V001010180019N0090001N1+00001-00101999999ADDGA1071+018001999GA2081+027001999GF108991999999999999999999MA1100201999999REMMET063METAR ETSI 160420Z VRB02KT 9000 BKN060 OVC090 00/M01 Q1002 BLU;
0165108600999992008011605004+48717+011533FM-12+0365ETSI V0201401N001010135019N0090001N1+00001-00131100411ADDGA1061+013501061GF108991061051012501031999MA1999999095951MD1310051+9999REMSYN082AAXX  16051 10860 43659 81401 10000 21013 39595 40041 53005 8653/ 333 86645 88358;
0161108600999992008011605204+48717+011533FM-15+0365ETSI V0200601N001010180019N0090001N1+00001+00001999999ADDGA1021+013501999GA2081+018001999GF108991999999999999999999MA1100201999999REMMET076METAR ETSI 160520Z 06002KT 9000 FEW045 OVC060 00/00 Q1002 BLU BLU TEMPO WHT;
0197108600999992008011605384+48717+011533FM-16+0365ETSI V0200201N000510084019N0080001N1+00001-00101999999ADDGA1021+005401999GA2071+008401999GA3081+012001999GF108991999999999999999999MA1100201999999MW1661REMMET090SPECI ETSI 160538Z 02001KT 8000 -FZRA FEW018 BKN028 OVC040 00/M01 Q1002 BLU BLU TEMPO WHT;
0197108600999992008011606204+48717+011533FM-15+0365ETSI V0200501N00211010501CN0080001N1+00001-00101999999ADDGA1021+006001999GA2041+010501999GA3081+013501999GF108991999999999999999999MA1100201999999MW1661REMMET090METAR ETSI 160620Z 05004KT 8000 -FZRA FEW020 SCT035 OVC045 00/M01 Q1002 BLU BLU TEMPO WHT;
0279108600999992008011607004+48717+011533FM-12+0365ETSI V0200801N002010105019N0080001N1+00041-00111100361ADDAY161999AY221999GA1011+006001061GA2051+010501061GA3081+013501061GF108991081051008001999999MA1999999095911MD1810041+9999MW1661REMSYN142AAXX  16071 10860 41558 80802 10004 21011 39591 40036 58004 76662 885// 333 81620 85635 88645 555 BOT 11001 20004 30011 40024 50038 999 34///;
0192108600999992008011607204+48717+011533FM-15+0365ETSI V0200601N00151012001CN0080001N1+00001-00101999999ADDGA1021+006001999GA2041+012001999GA3071+018001999GF107991999999999999999999MA1100101999999REMMET091METAR ETSI 160720Z 06003KT 8000 FEW020 SCT040 BKN060 00/M01 Q1001 REFZRA BLU BLU TEMPO WHT;
0215108600999992008011608004+48717+011533FM-12+0365ETSI V0203601N001010135019N0080001N1+00051-00011100361ADDAY121999AY221999GA1011+006001061GA2051+013501061GF108991071051008001999999MA1999999095911MD1610041+9999MW1241REMSYN094AAXX  16081 10860 41558 83601 10005 21001 39591 40036 56004 72422 875// 333 81620 85645 87656;
0185108600999992008011608204+48717+011533FM-15+0365ETSI V0200101N001510180019N0090001N1+00101+00001999999ADDGA1021+010501999GA2071+018001999GA3071+024001999GF107991999999999999999999MA1100201999999REMMET084METAR ETSI 160820Z 01003KT 9000 FEW035 BKN060 BKN080 01/M00 Q1002 BLU BLU TEMPO WHT;
0185108600999992008011609204+48717+011533FM-15+0365ETSI V0200801N00211018001CN0070001N1+00101-00101999999ADDGA1021+010501999GA2041+018001999GA3071+027001999GF107991999999999999999999MA1100201999999REMMET084METAR ETSI 160920Z 08004KT 7000 FEW035 SCT060 BKN090 01/M01 Q1002 WHT BLU TEMPO WHT;
0215108600999992008011610004+48717+011533FM-12+0365ETSI V0203601N002010180019N0070001N1+00141+00031100461ADDAY121999AY221999GA1011+010501061GA2041+018001061GF107991061051012501031999MA1999999096021MD1310111+9999MW1101REMSYN094AAXX  16101 10860 41657 73602 10014 20003 39602 40046 53011 71022 8653/ 333 81635 84656 87359;
0184108600999992008011610204+48717+011533FM-15+0365ETSI V0200201N00151018001CN0080001N1+00201+00001999999ADDGA1021+012001999GA2041+018001999GA3071+027001999GF107991999999999999999999MA1100311999999REMMET083METAR ETSI 161020Z 02003KT 8000 FEW040 SCT060 BKN090 02/00 Q1003 BLU BLU TEMPO WHT;
0187108600999992008011611004+48717+011533FM-12+0365ETSI V0201801N001010180019N0080001N1+00231+00091100521ADDGA1031+010501061GA2061+018001061GF108991061051012501071999MA1999999096091MD1210181+9999REMSYN088AAXX  16111 10860 42658 81801 10023 20009 39609 40052 52018 8657/ 333 83635 86656 87359;
0194108600999992008011611204+48717+011533FM-15+0365ETSI V0201201N001510120019N0070001N1+00201+00001999999ADDGA1041+006001999GA2071+012001999GA3071+024001999GF107991999999999999999999MA1100311999999MW1611REMMET087METAR ETSI 161120Z 12003KT 7000 -RA SCT020 BKN040 BKN080 02/00 Q1003 WHT BLU TEMPO WHT;
0180108600999992008011612204+48717+011533FM-15+0365ETSI V0200701N001510105019N0030001N1+00301+00101999999ADDGA1041+006001999GA2071+010501999GF107991999999999999999999MA1100311999999MW1101MW2611REMMET083METAR ETSI 161220Z 07003KT 3000 -RA BR SCT020 BKN035 03/01 Q1003 YLO BLU TEMPO YLO;
0203108600999992008011612414+48717+011533FM-16+0365ETSI V0200801N001510105019N0038001N1+00301+00201999999ADDGA1021+000601999GA2071+010501999GA3071+030001999GF107991999999999999999999MA1100201999999MW1101MW2611REMMET090SPECI ETSI 161241Z 08003KT 3800 -RA BR FEW002 BKN035 BKN100 03/02 Q1002 GRN BLU TEMPO YLO;
0215108600999992008011613004+48717+011533FM-12+0365ETSI V0200801N001010135019N0038001N1+00291+00171100441ADDAY161999AY261999GA1031+000601071GA2051+013501061GF108991061051000751071999MA1999999096031MD1010011+9999MW1211REMSYN094AAXX  16131 10860 41138 80801 10029 20017 39603 40044 50001 72166 8657/ 333 83702 85645 87359;
0193108600999992008011613204+48717+011533FM-15+0365ETSI V0209999C000010150019N0038001N1+00301+00201999999ADDGA1041+000601999GA2071+015001999GA3071+024001999GF107991999999999999999999MA1100311999999MW1101REMMET086METAR ETSI 161320Z 00000KT 3800 BR SCT002 BKN050 BKN080 03/02 Q1003 GRN BLU TEMPO YLO;
0273108600999992008011614004+48717+011533FM-12+0365ETSI V0209999C000010180019N0038001N1+00321+00261100461ADDAY121999AY221999GA1031+000601071GA2051+018001061GA3071+024001031GF107991061051000751071999MA1999999096051MD1510041+9999MW1101REMSYN136AAXX  16141 10860 41138 70000 10032 20026 39605 40046 55004 71022 8657/ 333 83702 85656 87358 555 BOT 10008 20007 30013 40024 999 31///;
0193108600999992008011614014+48717+011533FM-16+0365ETSI V0209999V000510180019N0050001N1+00301+00201999999ADDGA1041+000601999GA2071+018001999GA3071+024001999GF107991999999999999999999MA1100311999999MW1101REMMET086SPECI ETSI 161401Z VRB01KT 5000 BR SCT002 BKN060 BKN080 03/02 Q1003 WHT BLU TEMPO YLO;
0193108600999992008011614204+48717+011533FM-15+0365ETSI V0200901N001010180019N0050001N1+00301+00201999999ADDGA1041+000601999GA2071+018001999GA3071+024001999GF107991999999999999999999MA1100311999999MW1101REMMET086METAR ETSI 161420Z 09002KT 5000 BR SCT002 BKN060 BKN080 03/02 Q1003 WHT BLU TEMPO YLO;
0193108600999992008011614374+48717+011533FM-16+0365ETSI V0200701N001510180019N0028001N1+00301+00201999999ADDGA1041+000601999GA2071+018001999GA3071+024001999GF107991999999999999999999MA1100311999999MW1101REMMET086SPECI ETSI 161437Z 07003KT 2800 BR SCT002 BKN060 BKN080 03/02 Q1003 YLO BLU TEMPO YLO;
0224108600999992008011615204+48717+011533FM-15+0365ETSI V0201001N000510240019N0030001N1+00301+00201999999ADDED199U07509GA1021+000601999GA2071+024001999GA3071+030001999GF107991999999999999999999MA1100411999999MW1101MW2121REMMET100METAR ETSI 161520Z 10001KT 3000 R25/0750 MIFG BR FEW002 BKN080 BKN100 03/02 Q1004 YLO BLU TEMPO YLO;
0215108600999992008011616004+48717+011533FM-12+0365ETSI V0209999C00001000301CN0035001N1+00331+00241100571ADDAY121999AY221999GA1011+000301071GA2031+012001061GF108991061051000251071999MA1999999096161MD1310131+9999MW1121REMSYN094AAXX  16161 10860 41035 80000 10033 20024 39616 40057 53013 71222 8657/ 333 81701 83640 85650;
0204108600999992008011616024+48717+011533FM-16+0365ETSI V0209999C00001012001CN0040001N1+00301+00301999999ADDGA1041+000301999GA2041+012001999GA3071+015001999GF107991999999999999999999MA1100411999999MW1101MW2121REMMET091SPECI ETSI 161602Z 00000KT 4000 MIFG BR SCT001 SCT040 BKN050 03/03 Q1004 GRN BLU TEMPO YLO;
0222108600999992008011616204+48717+011533FM-15+0365ETSI V0200401N00051015001CN0050001N1+00301+00301999999ADDED199U16009GA1041+000301999GA2041+015001999GA3071+021001999GF107991999999999999999999MA1100411999999MW1101MW2121REMMET098METAR ETSI 161620Z 04001KT 5000 R25/1600 MIFG BR SCT001 SCT050 BKN070 03/03 Q1004 WHT FCST CANCEL;
0215108600999992008011617004+48717+011533FM-12+0365ETSI V0200801N00101015001CN0100001N1+00241+00161100651ADDAY121999AY221999GA1031+000301071GA2031+015001061GF108991041061000251071999MA1999999096221MD1210171+9999MW1111REMSYN094AAXX  16171 10860 41060 80801 10024 20016 39622 40065 52017 71122 8467/ 333 83701 83650 85357;
0201108600999992008011617204+48717+011533FM-15+0365ETSI V0209999C00001013501CN0112651N1+00201+00201999999ADDED199U13009GA1021+000301999GA2041+013501999GA3071+018001999GF107991999999999999999999MA1100511999999MW1121REMMET083METAR ETSI 161720Z 00000KT 9999 R25/1300 MIFG FEW001 SCT045 BKN060 02/02 Q1005 BLU;
0201108600999992008011618204+48717+011533FM-15+0365ETSI V0201101N00051012001CN0080001N1+00201+00201999999ADDED199U18009GA1021+000301999GA2041+012001999GA3071+018001999GF107991999999999999999999MA1100611999999MW1121REMMET083METAR ETSI 161820Z 11001KT 8000 R25/1800 MIFG FEW001 SCT040 BKN060 02/02 Q1006 BLU;
0170108600999992008011619204+48717+011533FM-15+0365ETSI V0200801N001010150019N0080001N1+00201+00101999999ADDGA1071+015001999GA2071+021001999GA3071+039001999GF107991999999999999999999MA1100611999999REMMET069METAR ETSI 161920Z 08002KT 8000 BKN050 BKN070 BKN130 02/01 Q1006 BLU;
0147108600999992008011620204+48717+011533FM-15+0365ETSI V0200601N001510360019N0080001N1+00201+00201999999ADDGA1021+030001999GA2071+036001999GF107991999999999999999999MA1100611999999REMMET062METAR ETSI 162020Z 06003KT 8000 FEW100 BKN120 02/02 Q1006 BLU;
0147108600999992008011621204+48717+011533FM-15+0365ETSI V0200601N002110390019N0080001N1+00101+00101999999ADDGA1041+030001999GA2071+039001999GF107991999999999999999999MA1100711999999REMMET062METAR ETSI 162120Z 06004KT 8000 SCT100 BKN130 01/01 Q1007 BLU;
0156108600999992008011704204+48717+011533FM-15+0365ETSI V0209999C000010240019N0040001N1+00101+00101999999ADDGA1071+024001999GA2071+030001999GF107991999999999999999999MA1101081999999MW1101REMMET065METAR ETSI 170420Z 00000KT 4000 BR BKN080 BKN100 01/01 Q1011 GRN;
0193108600999992008011705004+48717+011533FM-12+0365ETSI V0209999C000010240019N0040001N1+00021-00011101401ADDAY121999AY221999GA1051+024001031GF107991071001022501071999MA1999999096901MD1210191+9999MW1101REMSYN088AAXX  17051 10860 41840 70000 10002 21001 39690 40140 52019 71022 8707/ 333 85358 85360;
0172108600999992008011705204+48717+011533FM-15+0365ETSI V0209999C000010450019N0025001N1+00001+00001999999ADDGA1041+039001999GA2071+045001999GF107991999999999999999999MA1101191999999MW1101REMMET081METAR ETSI 170520Z 00000KT 2500 BR SCT130 BKN150 M00/M00 Q1012 YLO YLO TEMPO AMB;
0183108600999992008011706084+48717+011533FM-16+0365ETSI V0209999C000010480019N0030001N1+00001-00101999999ADDGA1041+039001999GA2071+048001999GF107991999999999999999999MA1101191999999MW1101MW2121REMMET086SPECI ETSI 170608Z 00000KT 3000 MIFG BR SCT130 BKN160 M00/M01 Q1012 YLO YLO TEMPO AMB;
0183108600999992008011706204+48717+011533FM-15+0365ETSI V0200801N001010480019N0035001N1+00001+00001999999ADDGA1041+039001999GA2071+048001999GF107991999999999999999999MA1101291999999MW1101MW2121REMMET086METAR ETSI 170620Z 08002KT 3500 MIFG BR SCT130 BKN160 M00/M00 Q1013 YLO YLO TEMPO AMB;
0257108600999992008011707004+48717+011533FM-12+0365ETSI V0209999C000010420019N0035001N1-00041-00041101571ADDAY121999AY221999GA1031+018001061GA2071+042001041GF107991031051017501011999MA1999999097051MD1210231+9999MW1111REMSYN136AAXX  17071 10860 41735 70000 11004 21004 39705 40157 52023 71122 8351/ 333 83656 87464 555 BOT 10001 20005 30012 40026 50039 999 34///;
0203108600999992008011707204+48717+011533FM-15+0365ETSI V0209999C000010450019N0013001N1+00001+00001999999ADDED199U13009GA1041+039001999GA2071+045001999GF107991999999999999999999MA1101391999999MW1101MW2401REMMET095METAR ETSI 170720Z 00000KT 1300 R25/1300 VCFG BR SCT130 BKN150 M00/M00 Q1014 AMB YLO TEMPO AMB;
0193108600999992008011708004+48717+011533FM-12+0365ETSI V0209999C00001021001CN0015001N1-00041-00041101631ADDAY121999AY221999GA1031+024001031GF107991071001022501071999MA1999999097111MD1210211+9999MW1401REMSYN088AAXX  17081 10860 41815 70000 11004 21004 39711 40163 52021 74022 8707/ 333 83358 87465;
0184108600999992008011708204+48717+011533FM-15+0365ETSI V0209999C000010510019N0050001N1+00001-00101999999ADDGA1041+024001999GA2071+051001999GF107991999999999999999999MA1101391999999MW1101MW2121REMMET087METAR ETSI 170820Z 00000KT 5000 MIFG BR SCT080 BKN170 M00/M01 Q1014 WHT YLO BECMG BLU+;
0163108600999992008011709204+48717+011533FM-15+0365ETSI V0209999C000012200019N0080001N1+00001+00001999999ADDGA1021+024001999GA2041+051001999GF104991999999999999999999MA1101491999999MW1121REMMET072METAR ETSI 170920Z 00000KT 8000 MIFG FEW080 SCT170 00/00 Q1015 BLU+BLU+;
0165108600999992008011710004+48717+011533FM-12+0365ETSI V0202601N00101090001CN0080001N1+00331+00241101731ADDGA1011+024001031GF106991011001022501031081MA1999999097271MD1210221+9999REMSYN082AAXX  17101 10860 42858 62601 10033 20024 39727 40173 52022 81038 333 81358 84267;
0129108600999992008011710204+48717+011533FM-15+0365ETSI V0202401N001512200019N0112651N1+00401+00101999999ADDGA1021+024001999GF102991999999999999999999MA1101491999999REMMET060METAR ETSI 171020Z 24003KT 9999 FEW080 04/01 Q1015 BLU+BLU+;
0165108600999992008011711004+48717+011533FM-12+0365ETSI V0202501N00201036001CN0120001N1+00491+00351101691ADDGA1011+003601081GF106991011011004501031081MA1999999097251MD1010141+9999REMSYN082AAXX  17111 10860 42462 62502 10049 20035 39725 40169 50014 81138 333 81812 84267;
0152108600999992008011711204+48717+011533FM-15+0365ETSI V0202801N001512200019N0112651N1+00501+00201999999ADDGA1021+004501999GA2041+051001999GF104991999999999999999999MA1101491999999REMMET067METAR ETSI 171120Z 28003KT 9999 FEW015 SCT170 05/02 Q1015 BLU+BLU+;
0152108600999992008011712204+48717+011533FM-15+0365ETSI V0209999V000512200019N0112651N1+00701+00301999999ADDGA1021+004501999GA2041+051001999GF104991999999999999999999MA1101491999999REMMET067METAR ETSI 171220Z VRB01KT 9999 FEW015 SCT170 07/03 Q1015 BLU+BLU+;
0165108600999992008011713004+48717+011533FM-12+0365ETSI V0201401N00101090001CN0180001N1+00631+00221101581ADDGA1011+004801081GF105991011011004501031081MA1999999097171MD1710101+9999REMSYN082AAXX  17131 10860 42468 51401 10063 20022 39717 40158 57010 81138 333 81816 83269;
0152108600999992008011713204+48717+011533FM-15+0365ETSI V0209999V001012200019N0112651N1+00701+00401999999ADDGA1021+004801999GA2041+051001999GF104991999999999999999999MA1101391999999REMMET067METAR ETSI 171320Z VRB02KT 9999 FEW016 SCT170 07/04 Q1014 BLU+BLU+;
0223108600999992008011714004+48717+011533FM-12+0365ETSI V0202301N002010510019N0200001N1+00791+00221101561ADDGA1011+006001081GA2051+051001021GF106991011011008001031081MA1999999097181MD1210071+9999REMSYN124AAXX  17141 10860 42570 62302 10079 20022 39718 40156 52007 81138 333 81820 85267 555 BOT 10039 20022 30020 40026 999 31///;
0152108600999992008011714204+48717+011533FM-15+0365ETSI V0202201N002110600019N0112651N1+00801+00101999999ADDGA1021+006001999GA2071+060001999GF107991999999999999999999MA1101391999999REMMET067METAR ETSI 171420Z 22004KT 9999 FEW020 BKN200 08/01 Q1014 BLU+BLU+;
0152108600999992008011715204+48717+011533FM-15+0365ETSI V0201701N001510720019N0112651N1+00701+00301999999ADDGA1021+007501999GA2071+072001999GF107991999999999999999999MA1101391999999REMMET067METAR ETSI 171520Z 17003KT 9999 FEW025 BKN240 07/03 Q1014 BLU+BLU+;
0261108600999992008011716004+48717+011533SY-MT+0365ETSI V0202001N002010720019N0300001N1+00611+00181101541ADDGA1021+007501999GA2041+072001999GF105991021081008001031081MA1101391097131MD1810041+9999REMSYN082AAXX  17161 10860 42580 52002 10061 20018 39713 40154 58004 82838 333 81825 84274;MET074SPECI ETSI 171600Z 21003KT 9999 FEW025 SCT240 05/03 Q1014 BLU+FCST CANCEL;
0148108600999992008011716204+48717+011533FM-15+0365ETSI V0202401N002112200019N0112651N1+00501+00201999999ADDGA1021+011401999GA2041+060001999GF104991999999999999999999MA1101491999999REMMET063METAR ETSI 171620Z 24004KT 9999 FEW038 SCT200 05/02 Q1015 BLU+;
0165108600999992008011717004+48717+011533FM-12+0365ETSI V0201401N002012200019N0250001N1+00221+00101101611ADDGA1021+011401061GF104991021051012501001081MA1999999097131MD1610051+9999REMSYN082AAXX  17171 10860 42675 41402 10022 20010 39713 40161 56005 82508 333 82638 83270;
0125108600999992008011717204+48717+011533FM-15+0365ETSI V0209999C000012200019N0112651N1+00201+00001999999ADDGA1021+010501999GF102991999999999999999999MA1101391999999REMMET056METAR ETSI 171720Z 00000KT 9999 FEW035 02/00 Q1014 BLU+;
0149108600999992008011718204+48717+011533FM-15+0365ETSI V0201401N001012200019N0112651N1+00001-00101999999ADDGA1021+010501999GA2041+084001999GF104991999999999999999999MA1101391999999REMMET064METAR ETSI 171820Z 14002KT 9999 FEW035 SCT280 00/M01 Q1014 BLU+;
0180108600999992008011804204+48717+011533FM-15+0365ETSI V0202301N00361004201CN0112651N1+00401+00001999999ADDGA1021+003301999GA2041+004201999GA3071+008401999GF107991999999999999999999MA1101391999999MW1611REMMET073METAR ETSI 180420Z 23007KT 9999 -RA FEW011 SCT014 BKN028 04/00 Q1014 BLU;
0207108600999992008011805004+48717+011533FM-12+0365ETSI V0202401N00301009001CN0150001N1+00381+00211101661ADDAY161999GA1011+003301081GA2031+005401061GF108991071081004501999999MA1999999097211MD1310201+9999MW1611REMSYN094AAXX  18051 10860 41465 82403 10038 20021 39721 40166 53020 7616/ 878// 333 81811 83618 87635;
0162108600999992008011805204+48717+011533FM-15+0365ETSI V0202501N004610180019N0112651N1+00401+00201999999ADDGA1021+004501999GA2071+018001999GF107991999999999999999999MA1101491999999REMMET077METAR ETSI 180520Z 25009KT 9999 FEW015 BKN060 04/02 Q1015 BLU BLU+ TEMPO BLU;
0139108600999992008011806204+48717+011533FM-15+0365ETSI V0202401N004112200019N0112651N1+00401+00101999999ADDGA1041+004501999GF104991999999999999999999MA1101491999999REMMET070METAR ETSI 180620Z 24008KT 9999 SCT015 04/01 Q1015 BLU+BLU+ TEMPO BLU;
0207108600999992008011807004+48717+011533FM-12+0365ETSI V0202401N004012200019N0250001N1+00371+00131101761ADDGA1021+004501061GF104991031051004501001011MA1999999097301MD1110181+9999REMSYN124AAXX  18071 10860 42475 42404 10037 20013 39730 40176 51018 83501 333 82615 555 BOT 10009 20011 30018 40027 50039 999 31///;
0139108600999992008011807204+48717+011533FM-15+0365ETSI V0202501N004112200019N0112651N1+00401+00201999999ADDGA1021+004501999GF102991999999999999999999MA1101591999999REMMET070METAR ETSI 180720Z 25008KT 9999 FEW015 04/02 Q1016 BLU+BLU+ TEMPO BLU;
0159108600999992008011808004+48717+011533FM-12+0365ETSI V0202501N006012200019N0250001N1+00531+00151101801ADDGA1011+004501061GF103991021051004501001011MA1999999097371MD1210161+9999REMSYN076AAXX  18081 10860 42475 32506 10053 20015 39737 40180 52016 82501 333 81615;
0162108600999992008011808204+48717+011533FM-15+0365ETSI V0202501N005712200019N0112651N1+00601+00301999999ADDGA1021+004501999GA2041+012001999GF104991999999999999999999MA1101691999999REMMET077METAR ETSI 180820Z 25011KT 9999 FEW015 SCT040 06/03 Q1017 BLU+BLU+ TEMPO BLU;
0185108600999992008011809204+48717+011533FM-15+0365ETSI V0202701N00461010501CN0112651N1+00701+00401999999ADDGA1021+004501999GA2041+010501999GA3071+014401999GF107991999999999999999999MA1101901999999REMMET084METAR ETSI 180920Z 27009KT 9999 FEW015 SCT035 BKN048 07/04 Q1019 BLU BLU+ TEMPO BLU;
0193108600999992008011810004+48717+011533FM-12+0365ETSI V0203001N00301009001CN0120001N1+00701+00451102031ADDAY121999AY221999GA1011+004201081GF107991071081004501999999MA1999999097611MD1210311+9999MW1801REMSYN088AAXX  18101 10860 41462 73003 10070 20045 39761 40203 52031 78022 878// 333 81814 87616;
0161108600999992008011810204+48717+011533FM-15+0365ETSI V0202801N003110060019N0112651N1+00701+00501999999ADDGA1021+004501999GA2071+006001999GF107991999999999999999999MA1101901999999REMMET076METAR ETSI 181020Z 28006KT 9999 FEW015 BKN020 07/05 Q1019 WHT BLU TEMPO WHT;
0193108600999992008011811004+48717+011533FM-12+0365ETSI V0203001N00401009001CN0150001N1+00741+00521102101ADDAY181999AY221999GA1011+004501081GF107991071081004501999999MA1999999097691MD1210321+9999MW1611REMSYN088AAXX  18111 10860 41465 73004 10074 20052 39769 40210 52032 76182 878// 333 81815 87620;
0171108600999992008011811204+48717+011533FM-15+0365ETSI V0203001N005110060019N0112651N1+00701+00401999999ADDGA1021+004501999GA2071+006001999GF107991999999999999999999MA1102001999999MW1611REMMET080METAR ETSI 181120Z 30010KT 9999 -RA FEW015 BKN020 07/04 Q1020 WHT BLU TEMPO WHT;
0169108600999992008011812004+48717+011533FM-15+0365ETSI V0202801N007210090019N0112651N1+00701+00301999999ADDGA1021+006001999GA2071+009001999GF107991999999999999999999MA1102001999999MW1611REMMET078SPECI ETSI 181159Z 28014KT 9999 -RA FEW020 BKN030 07/03 Q1020 BLU FCST CANCEL;
0157108600999992008011812204+48717+011533FM-15+0365ETSI V0202801N006710090019N0112651N1+00701+00401999999ADDGA1021+006001999GA2071+009001999GF107991999999999999999999MA1102101999999MW1611REMMET066METAR ETSI 181220Z 28013KT 9999 -RA FEW020 BKN030 07/04 Q1021 BLU;
0193108600999992008011813004+48717+011533FM-12+0365ETSI V0202801N00601012001CN0120001N1+00701+00351102211ADDAY161999AY261999GA1021+006001081GF107991071081008001999999MA1999999097791MD1210181+9999MW1611REMSYN088AAXX  18131 10860 41562 72806 10070 20035 39779 40221 52018 76166 878// 333 82820 87637;
0181108600999992008011813204+48717+011533FM-15+0365ETSI V0202801N00361018001CN0112651N1+00701+00401999999ADDGA1021+006001999GA2041+018001999GA3071+066001999GF107991999999999999999999MA1102101999999MW1611REMMET074METAR ETSI 181320Z 28007KT 9999 -RA FEW020 SCT060 BKN220 07/04 Q1021 BLU+;
0193108600999992008011814004+48717+011533FM-12+0365ETSI V0202801N00401220001CN0350001N1+00811+00451102201ADDAY121999AY221999GA1011+004501081GF107991011081004501001011MA1999999097791MD1110101+9999MW1211REMSYN088AAXX  18141 10860 41481 72804 10081 20045 39779 40220 51010 72122 81801 333 81815 87072;
0148108600999992008011814204+48717+011533FM-15+0365ETSI V0202001N001510660019N0112651N1+00701+00401999999ADDGA1021+006001999GA2071+066001999GF107991999999999999999999MA1102101999999REMMET063METAR ETSI 181420Z 20003KT 9999 FEW020 BKN220 07/04 Q1021 BLU+;
0148108600999992008011815204+48717+011533FM-15+0365ETSI V0202001N001510600019N0112651N1+00601+00401999999ADDGA1041+007501999GA2071+060001999GF107991999999999999999999MA1102201999999REMMET063METAR ETSI 181520Z 20003KT 9999 SCT025 BKN200 06/04 Q1022 BLU+;
0165108600999992008011816004+48717+011533FM-12+0365ETSI V0202301N002010066019N0300001N1+00591+00451102341ADDGA1051+006601081GF107991071081008001999999MA1999999097891MD1310101+9999REMSYN082AAXX  18161 10860 42580 72302 10059 20045 39789 40234 53010 878// 333 85822 87640;
0170108600999992008011816204+48717+011533FM-15+0365ETSI V0209999V000510066019N0112651N1+00601+00401999999ADDGA1071+006601999GA2041+012001999GA3071+036001999GF107991999999999999999999MA1102201999999REMMET069METAR ETSI 181620Z VRB01KT 9999 BKN022 SCT040 BKN120 06/04 Q1022 WHT;
0165108600999992008011817004+48717+011533FM-12+0365ETSI V0201801N00101036001CN0300001N1+00521+00351102371ADDGA1031+009001061GF108991041051008001011999MA1999999097911MD1210121+9999REMSYN082AAXX  18171 10860 42580 81801 10052 20035 39791 40237 52012 8451/ 333 83630 88460;
0147108600999992008011817204+48717+011533FM-15+0365ETSI V0202301N002110270019N0112651N1+00501+00401999999ADDGA1041+010501999GA2081+027001999GF108991999999999999999999MA1102201999999REMMET062METAR ETSI 181720Z 23004KT 9999 SCT035 OVC090 05/04 Q1022 BLU;
0124108600999992008011912204+48717+011533FM-15+0365ETSI V0202601N008210099019N0112651N1+01201+00501999999ADDGA1071+009901999GF107991999999999999999999MA1102511999999REMMET055METAR ETSI 191220Z 26016KT 9999 BKN033 12/05 Q1025 BLU;
0124108600999992008011913204+48717+011533FM-15+0365ETSI V0202601N007210096019N0112651N1+01201+00601999999ADDGA1071+009601999GF107991999999999999999999MA1102511999999REMMET055METAR ETSI 191320Z 26014KT 9999 BKN032 12/06 Q1025 BLU;
0147108600999992008012021204+48717+011533FM-15+0365ETSI V0202301N003110480019N0112651N1+00701+00101999999ADDGA1021+015001999GA2071+048001999GF107991999999999999999999MA1102511999999REMMET062METAR ETSI 202120Z 23006KT 9999 FEW050 BKN160 07/01 Q1025 BLU;
0148108600999992008012022204+48717+011533FM-15+0365ETSI V0202201N002612200019N0112651N1+00601+00101999999ADDGA1021+008401999GA2041+048001999GF104991999999999999999999MA1102401999999REMMET063METAR ETSI 202220Z 22005KT 9999 FEW028 SCT160 06/01 Q1024 BLU+;
0124108600999992008012104204+48717+011533FM-15+0365ETSI V0202201N002610069019N0112651N1+00601+00101999999ADDGA1081+006901999GF108991999999999999999999MA1102201999999REMMET055METAR ETSI 210420Z 22005KT 9999 OVC023 06/01 Q1022 WHT;
0165108600999992008012105004+48717+011533FM-12+0365ETSI V0202201N002010078019N0250001N1+00641+00171102381ADDGA1061+007801061GF108991081051008001999999MA1999999097941MD1710091+9999REMSYN082AAXX  21051 10860 43575 82202 10064 20017 39794 40238 57009 885// 333 86626 88634;
0151108600999992008012105204+48717+011533FM-15+0365ETSI V0202301N002610105019N0112651N1+00701+00101999999ADDGA1041+008101999GA2081+010501999GF108991999999999999999999MA1102201999999REMMET066METAR ETSI 210520Z 23005KT 9999 SCT027 OVC035 07/01 Q1022 BLU BLU;
0128108600999992008012106204+48717+011533FM-15+0365ETSI V0202401N004110105019N0112651N1+00701+00101999999ADDGA1071+010501999GF107991999999999999999999MA1102201999999REMMET059METAR ETSI 210620Z 24008KT 9999 BKN035 07/01 Q1022 BLU BLU;
0207108600999992008012107004+48717+011533FM-12+0365ETSI V0202401N004010105019N0400001N1+00721+00091102341ADDGA1071+010501061GF107991071051012501999999MA1999999097911MD1610041+9999REMSYN124AAXX  21071 10860 42682 72404 10072 20009 39791 40234 56004 875// 333 87635 555 BOT 10044 20045 30048 40048 50047 999 31///;
0128108600999992008012107204+48717+011533FM-15+0365ETSI V0202401N004110105019N0112651N1+00701+00101999999ADDGA1071+010501999GF107991999999999999999999MA1102201999999REMMET059METAR ETSI 210720Z 24008KT 9999 BKN035 07/01 Q1022 BLU BLU;
0159108600999992008012108004+48717+011533FM-12+0365ETSI V0202401N004010105019N0500001N1+00741+00081102321ADDGA1071+010501061GF107991071051012501999999MA1999999097901MD1710041+9999REMSYN076AAXX  21081 10860 42684 72404 10074 20008 39790 40232 57004 875// 333 87635;
0128108600999992008012108204+48717+011533FM-15+0365ETSI V0202401N004110105019N0112651N1+00801+00101999999ADDGA1071+010501999GF107991999999999999999999MA1102201999999REMMET059METAR ETSI 210820Z 24008KT 9999 BKN035 08/01 Q1022 BLU BLU;
0128108600999992008012109204+48717+011533FM-15+0365ETSI V0202401N004610105019N0112651N1+00801+00101999999ADDGA1071+010501999GF107991999999999999999999MA1102101999999REMMET059METAR ETSI 210920Z 24009KT 9999 BKN035 08/01 Q1021 BLU BLU;
0159108600999992008012110004+48717+011533FM-12+0365ETSI V0202401N005010105019N0550001N1+00831+00071102221ADDGA1071+010501061GF107991071051012501999999MA1999999097821MD1710091+9999REMSYN076AAXX  21101 10860 42685 72405 10083 20007 39782 40222 57009 875// 333 87635;
0128108600999992008012110204+48717+011533FM-15+0365ETSI V0202401N005110105019N0112651N1+00801+00001999999ADDGA1071+010501999GF107991999999999999999999MA1102101999999REMMET059METAR ETSI 211020Z 24010KT 9999 BKN035 08/00 Q1021 BLU BLU;
0159108600999992008012111004+48717+011533FM-12+0365ETSI V0202401N006010114019N0550001N1+00911+00041102131ADDGA1071+011401061GF107991071051012501999999MA1999999097741MD1710161+9999REMSYN076AAXX  21111 10860 42685 72406 10091 20004 39774 40213 57016 875// 333 87638;
0151108600999992008012111204+48717+011533FM-15+0365ETSI V0202401N006210114019N0112651N1+00901+00201999999ADDGA1021+009901999GA2071+011401999GF107991999999999999999999MA1102001999999REMMET066METAR ETSI 211120Z 24012KT 9999 FEW033 BKN038 09/02 Q1020 BLU BLU;
0151108600999992008012112204+48717+011533FM-15+0365ETSI V0202401N006710108019N0112651N1+00901+00101999999ADDGA1021+009001999GA2071+010801999GF107991999999999999999999MA1101901999999REMMET066METAR ETSI 211220Z 24013KT 9999 FEW030 BKN036 09/01 Q1019 BLU BLU;
0165108600999992008012113004+48717+011533FM-12+0365ETSI V0202501N00601012001CN0500001N1+00941+00221101951ADDGA1011+009001081GF106991061081008001001001MA1999999097581MD1710241+9999REMSYN082AAXX  21131 10860 42584 62506 10094 20022 39758 40195 57024 86800 333 81830 86635;
0151108600999992008012113204+48717+011533FM-15+0365ETSI V0202601N006210105019N0112651N1+00901+00201999999ADDGA1021+009001999GA2071+010501999GF107991999999999999999999MA1101801999999REMMET066METAR ETSI 211320Z 26012KT 9999 FEW030 BKN035 09/02 Q1018 BLU BLU;
0223108600999992008012114004+48717+011533FM-12+0365ETSI V0202601N006010105019N0500001N1+00891+00221101891ADDGA1011+009001081GA2061+010501061GF106991061081008001001001MA1999999097511MD1710231+9999REMSYN124AAXX  21141 10860 42584 62606 10089 20022 39751 40189 57023 86800 333 81830 86635 555 BOT 10074 20061 30055 40047 999 31///;
0151108600999992008012114204+48717+011533FM-15+0365ETSI V0202601N006710108019N0112651N1+00901+00201999999ADDGA1021+009001999GA2071+010801999GF107991999999999999999999MA1101691999999REMMET066METAR ETSI 211420Z 26013KT 9999 FEW030 BKN036 09/02 Q1017 BLU BLU;
0128108600999992008012115204+48717+011533FM-15+0365ETSI V0202601N005710108019N0112651N1+00901+00201999999ADDGA1071+010801999GF107991999999999999999999MA1101691999999REMMET059METAR ETSI 211520Z 26011KT 9999 BKN036 09/02 Q1017 BLU BLU;
0159108600999992008012116004+48717+011533FM-12+0365ETSI V0202501N004010111019N0300001N1+00851+00241101731ADDGA1051+011101061GF105991051051012501001001MA1999999097351MD1710231+9999REMSYN076AAXX  21161 10860 42680 52504 10085 20024 39735 40173 57023 85500 333 85637;
0128108600999992008012116204+48717+011533FM-15+0365ETSI V0202401N003110108019N0112651N1+00801+00201999999ADDGA1071+010801999GF107991999999999999999999MA1101591999999REMMET059METAR ETSI 211620Z 24006KT 9999 BKN036 08/02 Q1016 BLU BLU;
0159108600999992008012117004+48717+011533FM-12+0365ETSI V0202301N002010099019N0250001N1+00761+00221101651ADDGA1051+009901061GF105991051051012501001001MA1999999097261MD1710251+9999REMSYN076AAXX  21171 10860 42675 52302 10076 20022 39726 40165 57025 85500 333 85633;
0128108600999992008012117204+48717+011533FM-15+0365ETSI V0202301N002110096019N0112651N1+00801+00201999999ADDGA1071+009601999GF107991999999999999999999MA1101491999999REMMET059METAR ETSI 211720Z 23004KT 9999 BKN032 08/02 Q1015 BLU BLU;
0128108600999992008012118204+48717+011533FM-15+0365ETSI V0202501N002610093019N0112651N1+00701+00201999999ADDGA1071+009301999GF107991999999999999999999MA1101491999999REMMET059METAR ETSI 211820Z 25005KT 9999 BKN031 07/02 Q1015 BLU BLU;
0151108600999992008012119204+48717+011533FM-15+0365ETSI V0202501N004110540019N0112651N1+00601+00201999999ADDGA1041+009001999GA2081+054001999GF108991999999999999999999MA1101391999999REMMET066METAR ETSI 211920Z 25008KT 9999 SCT030 OVC180 06/02 Q1014 BLU BLU;
0151108600999992008012120204+48717+011533FM-15+0365ETSI V0202501N004610540019N0112651N1+00701+00201999999ADDGA1021+009001999GA2081+054001999GF108991999999999999999999MA1101291999999REMMET066METAR ETSI 212020Z 25009KT 9999 FEW030 OVC180 07/02 Q1013 BLU BLU;
0159108600999992008012120264+48717+011533FM-16+0365ETSI V0202501N005110540019N0112651N1+00701+00201999999ADDGA1021+009001999GA2081+054001999GF108991999999999999999999MA1101291999999REMMET074SPECI ETSI 212026Z 25010KT 9999 FEW030 OVC180 07/02 Q1013 BLU FCST CANCEL;
0191108600999992008012204204+48717+011533FM-15+0365ETSI V0202501N008210075019N0112651N1+00801+00401999999ADDGA1021+004201999GA2071+007501999GA3071+011101999GF107991999999999999999999MA1100811999999MW1611OC101491REMMET076METAR ETSI 220420Z 25016G29KT 9999 -RA FEW014 BKN025 BKN037 08/04 Q1008 BLU;
0237108600999992008012205004+48717+011533FM-12+0365ETSI V0202601N007010069019N0120001N1+00681+00431100911ADDAY161999AY261999GA1021+004201081GA2051+006901061GA3071+009601061GF108991081081004501999999MA1999999096541MD1710111+9999MW1631REMSYN100AAXX  22051 10860 41462 82607 10068 20043 39654 40091 57011 76366 888// 333 82814 85623 87632 91116;
0193108600999992008012205204+48717+011533FM-15+0365ETSI V0202701N006210069019N0112651N1+00601+00401999999ADDGA1021+004201999GA2071+006901999GA3071+009601999GF107991999999999999999999MA1100811999999MW1631REMMET086METAR ETSI 220520Z 27012KT 9999 RA FEW014 BKN023 BKN032 06/04 Q1008 WHT BLU TEMPO GRN;
0199108600999992008012206204+48717+011533FM-15+0365ETSI V0202401N00411006001CN0112651N1+00601+00301999999ADDGA1021+003601999GA2041+006001999GA3071+009901999GF107991999999999999999999MA1100811999999MW1611REMMET092METAR ETSI 220620Z 24008KT 9999 -RA FEW012 SCT020 BKN033 06/03 Q1008 RERA BLU BLU TEMPO GRN;
0279108600999992008012207004+48717+011533FM-12+0365ETSI V0202501N007010069019N0120001N1+00681+00361100891ADDAY161999AY261999GA1021+003001081GA2041+006901061GA3071+009901061GF107991071081004501999999MA1999999096521MD1610031+9999MW1611REMSYN142AAXX  22071 10860 41462 72507 10068 20036 39652 40089 56003 76166 878// 333 82810 84623 87633 555 BOT 10050 20049 30052 40049 50048 999 31///;
0194108600999992008012207204+48717+011533FM-15+0365ETSI V0202401N00511006901CN0112651N1+00601+00301999999ADDGA1021+003001999GA2041+006901999GA3071+009901999GF107991999999999999999999MA1100711999999MW1611REMMET087METAR ETSI 220720Z 24010KT 9999 -RA FEW010 SCT023 BKN033 06/03 Q1007 BLU BLU TEMPO GRN;
0215108600999992008012208004+48717+011533FM-12+0365ETSI V0202401N005010060019N0150001N1+00651+00351100861ADDAY161999AY261999GA1021+003001081GA2041+006001061GF107991071081004501999999MA1999999096491MD1710051+9999MW1611REMSYN094AAXX  22081 10860 41465 72405 10065 20035 39649 40086 57005 76166 878// 333 82810 84620 87630;
0171108600999992008012208204+48717+011533FM-15+0365ETSI V0202501N006210084019N0112651N1+00701+00301999999ADDGA1021+003001999GA2071+008401999GF107991999999999999999999MA1100711999999MW1611REMMET080METAR ETSI 220820Z 25012KT 9999 -RA FEW010 BKN028 07/03 Q1007 BLU BLU TEMPO GRN;
0194108600999992008012209204+48717+011533FM-15+0365ETSI V0202401N008710060019N0080001N1+00801+00401999999ADDGA1041+004501999GA2071+006001999GA3071+009601999GF107991999999999999999999MA1100811999999MW1611REMMET087METAR ETSI 220920Z 24017KT 8000 -RA SCT015 BKN020 BKN032 08/04 Q1008 WHT BLU TEMPO GRN;
0237108600999992008012210004+48717+011533FM-12+0365ETSI V0202801N007010060019N0100001N1+00711+00511101041ADDAY161999AY221999GA1031+003301081GA2061+006001061GA3071+009001061GF108991081081004501999999MA1999999096671MD1310151+9999MW1611REMSYN100AAXX  22101 10860 41460 82807 10071 20051 39667 40104 53015 76162 888// 333 83811 86620 87630 91115;
0199108600999992008012210204+48717+011533FM-15+0365ETSI V0202801N006210060019N0112651N1+00701+00501999999ADDGA1041+003301999GA2071+006001999GA3071+008401999GF107991999999999999999999MA1101021999999MW1611REMMET092METAR ETSI 221020Z 28012KT 9999 -RA SCT011 BKN020 BKN028 07/05 Q1010 RERA WHT BLU TEMPO GRN;
0237108600999992008012211004+48717+011533FM-12+0365ETSI V0203301N007010066019N0150001N1+00531+00251101341ADDAY161999AY261999GA1021+003601081GA2051+006601061GA3071+012001061GF108991071081004501999999MA1999999096931MD1010441+9999MW1611REMSYN100AAXX  22111 10860 41465 83307 10053 20025 39693 40134 50044 76166 878// 333 82812 85622 87640 91117;
0194108600999992008012211204+48717+011533FM-15+0365ETSI V0203501N006710060019N0112651N1+00501+00101999999ADDGA1041+003601999GA2071+006001999GA3071+012001999GF107991999999999999999999MA1101391999999MW1611REMMET087METAR ETSI 221120Z 35013KT 9999 -RA SCT012 BKN020 BKN040 05/01 Q1014 WHT BLU TEMPO GRN;
0194108600999992008012211444+48717+011533FM-16+0365ETSI V0203601N006210036019N0112651N1+00401+00101999999ADDGA1021+003001999GA2071+003601999GA3071+006001999GF107991999999999999999999MA1101491999999MW1611REMMET087SPECI ETSI 221144Z 36012KT 9999 -RA FEW010 BKN012 BKN020 04/01 Q1015 GRN BLU TEMPO GRN;
0202108600999992008012212204+48717+011533FM-15+0365ETSI V0203401N00621003901CN0112651N1+00301+00101999999ADDGA1021+003001999GA2041+003901999GA3071+005101999GF107991999999999999999999MA1101591999999MW1611MW2711REMMET089METAR ETSI 221220Z 34012KT 9999 -RASN FEW010 SCT013 BKN017 03/01 Q1016 WHT BLU TEMPO GRN;
0215108600999992008012213004+48717+011533FM-12+0365ETSI V0203301N006010105019N0500001N1+00351-00041101881ADDAY121999AY221999GA1011+006901081GA2061+010501061GF106991061081008001001001MA1999999097411MD1110711+9999MW1231REMSYN094AAXX  22131 10860 41584 63306 10035 21004 39741 40188 51071 72322 86800 333 81823 86635 91011;
0163108600999992008012213204+48717+011533FM-15+0365ETSI V0203401N006712200019N0112651N1+00501-00201999999ADDGA1021+010501999GA2041+013501999GF104991999999999999999999MA1101801999999REMMET078METAR ETSI 221320Z 34013KT 9999 FEW035 SCT045 05/M02 Q1018 BLU+BLU+ TEMPO BLU;
0240108600999992008012214004+48717+011533FM-12+0365ETSI V0203301N005010360019N0500001N1+00471-00121102001ADDGA1011+009601081GA2041+012001061GF105991041081008001031001MA1999999097551MD1110621+9999OA149900671REMSYN130AAXX  22141 10860 42584 53305 10047 21012 39755 40200 51062 84830 333 81832 84640 91113 555 BOT 10052 20051 30053 40049 999 31///;
0153108600999992008012214204+48717+011533FM-15+0365ETSI V0203201N005112200019N0112651N1+00501-00101999999ADDGA1021+008401999GA2041+009001999GF104991999999999999999999MA1101901999999REMMET068METAR ETSI 221420Z 32010KT 9999 FEW028 SCT030 05/M01 Q1019 BLU+BLU+;
0153108600999992008012215204+48717+011533FM-15+0365ETSI V0203401N005112200019N0112651N1+00401-00201999999ADDGA1021+010501999GA2041+013801999GF104991999999999999999999MA1102101999999REMMET068METAR ETSI 221520Z 34010KT 9999 FEW035 SCT046 04/M02 Q1021 BLU+BLU+;
0290108600999992008012216004+48717+011533SY-MT+0365ETSI V0203401N00401018001CN0450001N1+00401-00281102391ADDAY111999AY211999GA1021+014401999GA2041+018001999GF105991051051012501001001MA1102201097911MD1310501+9999MW1221REMSYN088AAXX  22161 10860 41683 53404 10040 21028 39791 40239 53050 72211 85500 333 82645 84650;MET075SPECI ETSI 221600Z 34008KT 9999 FEW048 SCT060 04/M02 Q1022 BLU+FCST CANCEL;
0148108600999992008012216204+48717+011533FM-15+0365ETSI V0203401N003110180019N0112651N1+00401-00201999999ADDGA1021+015001999GA2071+018001999GF107991999999999999999999MA1102301999999REMMET063METAR ETSI 221620Z 34006KT 9999 FEW050 BKN060 04/M02 Q1023 BLU;
0159108600999992008012217004+48717+011533FM-12+0365ETSI V0203101N003010180019N0450001N1+00341-00221102611ADDGA1051+018001061GF105991051051017501001001MA1999999098111MD1210561+9999REMSYN076AAXX  22171 10860 42783 53103 10034 21022 39811 40261 52056 85500 333 85656;
0126108600999992008012217204+48717+011533FM-15+0365ETSI V0203101N004112200019N0112651N1+00301-00301999999ADDGA1041+018001999GF104991999999999999999999MA1102511999999REMMET057METAR ETSI 221720Z 31008KT 9999 SCT060 03/M03 Q1025 BLU+;
0126108600999992008012218204+48717+011533FM-15+0365ETSI V0202901N003112200019N0112651N1+00301-00301999999ADDGA1021+015001999GF102991999999999999999999MA1102611999999REMMET057METAR ETSI 221820Z 29006KT 9999 FEW050 03/M03 Q1026 BLU+;
0127108600999992008012304204+48717+011533FM-15+0365ETSI V0202101N002112200019N0112651N1-00201-00301999999ADDGA1021+015001999GF102991999999999999999999MA1103291999999REMMET058METAR ETSI 230420Z 21004KT 9999 FEW050 M02/M03 Q1033 BLU+;
0159108600999992008012305004+48717+011533FM-12+0365ETSI V0209999V001012200019N0150001N1-00131-00221103581ADDGA1021+015001061GF103991021051017501001011MA1999999098961MD1210101+9999REMSYN076AAXX  23051 10860 42765 39901 11013 21022 39896 40358 52010 82501 333 82650;
0082108600999992008012305204+48717+011533FM-15+0365ETSI V0202201N000512200019N0112651N1-00201-00301999999ADDMA1103291999999REMMET055METAR ETSI 230520Z 22001KT 9999 M02/M03 Q1033 BLU+BLU+;
0142108600999992008012306204+48717+011533FM-15+0365ETSI V0209999C000012200019N0112651N1-00301-00401999999ADDGA1021+015001999GF102991999999999999999999MA1103291999999MW1121REMMET067METAR ETSI 230620Z 00000KT 9999 MIFG FEW050 M03/M04 Q1033 BLU+BLU+;
0207108600999992008012307004+48717+011533FM-12+0365ETSI V0209999C000012200019N0150001N1-00291-00401103651ADDGA1011+015001061GF101991011051017501001011MA1999999099001MD1210101+9999REMSYN124AAXX  23071 10860 42765 10000 11029 21040 39900 40365 52010 81501 333 81650 555 BOT 10002 20013 30028 40046 50050 999 34///;
0142108600999992008012307204+48717+011533FM-15+0365ETSI V0201701N001512200019N0112651N1-00401-00501999999ADDGA1021+015001999GF102991999999999999999999MA1103391999999MW1121REMMET067METAR ETSI 230720Z 17003KT 9999 MIFG FEW050 M04/M05 Q1034 BLU+BLU+;
0159108600999992008012308004+48717+011533FM-12+0365ETSI V0209999C000012200019N0150001N1-00261-00281103661ADDGA1011+015001061GF102991011051017501001011MA1999999099011MD1210051+9999REMSYN076AAXX  23081 10860 42765 20000 11026 21028 39901 40366 52005 81501 333 81650;
0141108600999992008012308204+48717+011533FM-15+0365ETSI V0201701N001512200019N0112651N1-00101-00201999999ADDGA1021+015001999GF102991999999999999999999MA1103291999999REMMET072METAR ETSI 230820Z 17003KT 9999 FEW050 M01/M02 Q1033 BLU+BLU+ BECMG BLU;
0140108600999992008012309204+48717+011533FM-15+0365ETSI V0202501N001512200019N0112651N1+00101-00201999999ADDGA1021+057001999GF102991999999999999999999MA1103291999999REMMET071METAR ETSI 230920Z 25003KT 9999 FEW190 01/M02 Q1033 BLU+BLU+ BECMG BLU;
0159108600999992008012310004+48717+011533FM-12+0365ETSI V0201801N001012200019N0150001N1+00161-00101103581ADDGA1021+057001001GF102991001001999999001011MA1999999099011MD1310011+9999REMSYN076AAXX  23101 10860 42965 21801 10016 21010 39901 40358 53001 80001 333 82069;
0140108600999992008012310204+48717+011533FM-15+0365ETSI V0202701N001512200019N0112651N1+00201-00201999999ADDGA1021+057001999GF102991999999999999999999MA1103291999999REMMET071METAR ETSI 231020Z 27003KT 9999 FEW190 02/M02 Q1033 BLU+BLU+ BECMG BLU;
0159108600999992008012311004+48717+011533FM-12+0365ETSI V0202801N002012200019N0150001N1+00291-00171103521ADDGA1011+030001031GF101991011001999999031011MA1999999098971MD1810041+9999REMSYN076AAXX  23111 10860 42965 12802 10029 21017 39897 40352 58004 81031 333 81360;
0130108600999992008012311204+48717+011533FM-15+0365ETSI V0202601N002612200019N0112651N1+00401-00201999999ADDGA1021+007201999GF102991999999999999999999MA1103291999999REMMET061METAR ETSI 231120Z 26005KT 9999 FEW024 04/M02 Q1033 BLU+BLU+;
0153108600999992008012312204+48717+011533FM-15+0365ETSI V0202201N002112200019N0112651N1+00501-00201999999ADDGA1021+007201999GA2041+060001999GF104991999999999999999999MA1103291999999REMMET068METAR ETSI 231220Z 22004KT 9999 FEW024 SCT200 05/M02 Q1033 BLU+BLU+;
0165108600999992008012313004+48717+011533FM-12+0365ETSI V0202101N003012200019N0350001N1+00481-00451103391ADDGA1011+010501081GF103991011011012501031011MA1999999098881MD1710131+9999REMSYN082AAXX  23131 10860 42681 32103 10048 21045 39888 40339 57013 81131 333 81835 83070;
0153108600999992008012313204+48717+011533FM-15+0365ETSI V0202201N002112200019N0112651N1+00501-00301999999ADDGA1021+010501999GA2041+060001999GF104991999999999999999999MA1103181999999REMMET068METAR ETSI 231320Z 22004KT 9999 FEW035 SCT200 05/M03 Q1032 BLU+BLU+;
0223108600999992008012314004+48717+011533FM-12+0365ETSI V0201801N002012200019N0350001N1+00551-00251103361ADDGA1011+010501081GA2031+060001001GF103991011011012501031011MA1999999098861MD1710111+9999REMSYN124AAXX  23141 10860 42681 31802 10055 21025 39886 40336 57011 81131 333 81835 83070 555 BOT 10004 20012 30023 40042 999 31///;
0153108600999992008012314204+48717+011533FM-15+0365ETSI V0202101N002112200019N0112651N1+00501-00401999999ADDGA1021+033001999GA2041+060001999GF104991999999999999999999MA1103181999999REMMET068METAR ETSI 231420Z 21004KT 9999 FEW110 SCT200 05/M04 Q1032 BLU+BLU+;
0153108600999992008012315204+48717+011533FM-15+0365ETSI V0201801N001512200019N0112651N1+00501-00301999999ADDGA1021+033001999GA2041+060001999GF104991999999999999999999MA1103181999999REMMET068METAR ETSI 231520Z 18003KT 9999 FEW110 SCT200 05/M03 Q1032 BLU+BLU+;
0165108600999992008012316004+48717+011533FM-12+0365ETSI V0201801N001012200019N0350001N1+00381-00331103351ADDGA1011+039001031GF103991011001999999031011MA1999999098821MD1610061+9999REMSYN082AAXX  23161 10860 42981 31801 10038 21033 39882 40335 56006 81031 333 81363 83070;
0176108600999992008012316204+48717+011533FM-15+0365ETSI V0201701N00101039001CN0112651N1+00201-00301999999ADDGA1021+027001999GA2041+039001999GA3071+060001999GF107991999999999999999999MA1103121999999REMMET075METAR ETSI 231620Z 17002KT 9999 FEW090 SCT130 BKN200 02/M03 Q1031 BLU+BLU+;
0187108600999992008012317004+48717+011533FM-12+0365ETSI V0202001N001010270019N0300001N1+00131-00221103411ADDGA1051+027001031GA2031+039001031GF107991061001999999071011MA1999999098841MD1510021+9999REMSYN088AAXX  23171 10860 42980 72001 10013 21022 39884 40341 55002 86071 333 85359 83363 85070;
0183108600999992008012317204+48717+011533FM-15+0365ETSI V0201601N001510270019N0112651N1+00101-00301999999ADDGA1071+027001999GA2041+039001999GA3071+060001999GF107991999999999999999999MA1103121999999REMMET082METAR ETSI 231720Z 16003KT 9999 BKN090 SCT130 BKN200 01/M03 Q1031 BLU FCST CANCEL;
0125108600999992008012318204+48717+011533FM-15+0365ETSI V0201801N000510270019N0112651N1+00101-00201999999ADDGA1071+027001999GF107991999999999999999999MA1103181999999REMMET056METAR ETSI 231820Z 18001KT 9999 BKN090 01/M02 Q1032 BLU;
0148108600999992008012319204+48717+011533FM-15+0365ETSI V0201601N001510210019N0112651N1+00101-00201999999ADDGA1071+021001999GA2071+039001999GF107991999999999999999999MA1103121999999REMMET063METAR ETSI 231920Z 16003KT 9999 BKN070 BKN130 01/M02 Q1031 BLU;
0127108600999992008012404204+48717+011533FM-15+0365ETSI V0209999V001012200019N0112651N1-00101-00301999999ADDGA1041+060001999GF104991999999999999999999MA1103011999999REMMET058METAR ETSI 240420Z VRB02KT 9999 SCT200 M01/M03 Q1030 BLU+;
0159108600999992008012405004+48717+011533FM-12+0365ETSI V0200801N001012200019N0250001N1-00151-00301103271ADDGA1031+060001001GF103991001001999999001011MA1999999098661MD1610071+9999REMSYN076AAXX  24051 10860 43975 30801 11015 21030 39866 40327 56007 80001 333 83070;
0141108600999992008012405204+48717+011533FM-15+0365ETSI V0201101N000512200019N0112651N1-00201-00301999999ADDGA1041+063001999GF104991999999999999999999MA1103011999999REMMET072METAR ETSI 240520Z 11001KT 9999 SCT210 M02/M03 Q1030 BLU+BLU+ TEMPO WHT;
0141108600999992008012406204+48717+011533FM-15+0365ETSI V0201701N001012200019N0112651N1-00201-00401999999ADDGA1021+060001999GF102991999999999999999999MA1103011999999REMMET072METAR ETSI 240620Z 17002KT 9999 FEW200 M02/M04 Q1030 BLU+BLU+ TEMPO WHT;
