0143108600999992013010407204+48717+011533FM-15+0365ETSI V0202801N005110012019N0025001N1+00501+00501999999ADDGA1081+001201999GF108991999999999999999999MA1103491999999MW1101MW2511REMMET062METAR ETSI 040720Z 28010KT 2500 -DZ BR OVC004 05/05 Q1035 YLO;
0189108600999992013010408204+48717+011533FM-15+0365ETSI V0202501N004110024019N0030001N1+00501+00501999999ADDGA1021+001501999GA2071+002401999GA3071+009001999GF107991999999999999999999MA1103491999999MW1101MW2511REMMET076METAR ETSI 040820Z 25008KT 3000 -DZ BR FEW005 BKN008 BKN030 05/05 Q1035 YLO;
0147108600999992013010415204+48717+011533FM-15+0365ETSI V0202801N006710015019N0060001N1+00701+00601999999ADDGA1041+000901999GA2081+001501999GF108991999999999999999999MA1103181999999REMMET062METAR ETSI 041520Z 28013KT 6000 SCT003 OVC005 07/06 Q1032 YLO;
0124108600999992013010613014+48717+011533FM-16+0365ETSI V0202801N005110036019N0112651N1+00501+00301999999ADDGA1081+003601999GF108991999999999999999999MA1102611999999REMMET055SPECI ETSI 061301Z 28010KT 9999 OVC012 05/03 Q1026 GRN;
0147108600999992013010613204+48717+011533FM-15+0365ETSI V0202901N004610042019N0112651N1+00501+00301999999ADDGA1041+003001999GA2081+004201999GF108991999999999999999999MA1102611999999REMMET062METAR ETSI 061320Z 29009KT 9999 SCT010 OVC014 05/03 Q1026 GRN;
0165108600999992013010614204+48717+011533FM-15+0365ETSI V0202901N006210033019N0112651N1+00501+00401999999ADDGA1021+001501999GA2081+003301999GF108991999999999999999999MA1102611999999MW1511MW2611REMMET068METAR ETSI 061420Z 29012KT 9999 -RADZ FEW005 OVC011 05/04 Q1026 GRN;
0147108600999992013010704204+48717+011533FM-15+0365ETSI V0202601N004610051019N0060001N1+00601+00501999999ADDGA1021+003301999GA2071+005101999GF107991999999999999999999MA1102611999999REMMET062METAR ETSI 070420Z 26009KT 6000 FEW011 BKN017 06/05 Q1026 WHT;
0166108600999992013010704574+48717+011533FM-16+0365ETSI V0202701N003610051019N0045001N1+00601+00501999999ADDGA1021+003001999GA2081+005101999GF108991999999999999999999MA1102711999999MW1101MW2511REMMET069SPECI ETSI 070457Z 27007KT 4500 -DZ BR FEW010 OVC017 06/05 Q1027 GRN;
0193108600999992013010705004+48717+011533FM-12+0365ETSI V0202701N00401004201CN0045001N1+00581+00481102821ADDAY151999AY221999GA1021+003001071GF108991081051004501999999MA1999999098351MD1710011+9999MW1501REMSYN088AAXX  07051 10860 41445 82704 10058 20048 39835 40282 57001 75052 885// 333 82710 88617;
0203108600999992013010705204+48717+011533FM-15+0365ETSI V0202701N004110054019N0050001N1+00601+00501999999ADDGA1021+003001999GA2071+005401999GA3081+009901999GF108991999999999999999999MA1102711999999MW1101MW2511REMMET090METAR ETSI 070520Z 27008KT 5000 -DZ BR FEW010 BKN018 OVC033 06/05 Q1027 WHT WHT TEMPO GRN;
0180108600999992013010706204+48717+011533FM-15+0365ETSI V0202701N003610048019N0050001N1+00601+00501999999ADDGA1021+002701999GA2071+004801999GF107991999999999999999999MA1102711999999MW1101MW2511REMMET083METAR ETSI 070620Z 27007KT 5000 -DZ BR FEW009 BKN016 06/05 Q1027 WHT WHT TEMPO GRN;
0215108600999992013010707004+48717+011533FM-12+0365ETSI V0202601N00301002101CN0060001N1+00571+00461102861ADDAY121999AY221999GA1011+002701071GA2031+004801061GF108991081051002501999999MA1999999098391MD1310031+9999MW1201REMSYN094AAXX  07071 10860 41356 82603 10057 20046 39839 40286 53003 72022 885// 333 81709 83616 88634;
0161108600999992013010707204+48717+011533FM-15+0365ETSI V0202801N002610111019N0060001N1+00601+00501999999ADDGA1021+004801999GA2081+011101999GF108991999999999999999999MA1102711999999REMMET076METAR ETSI 070720Z 28005KT 6000 FEW016 OVC037 06/05 Q1027 WHT WHT TEMPO GRN;
0193108600999992013010708004+48717+011533FM-12+0365ETSI V0202801N00301004201CN0070001N1+00571+00431102911ADDAY121999AY221999GA1011+005401061GF108991081051004501999999MA1999999098431MD1310081+9999MW1101REMSYN088AAXX  07081 10860 41457 82803 10057 20043 39843 40291 53008 71022 885// 333 81618 88634;
0161108600999992013010708204+48717+011533FM-15+0365ETSI V0202801N003110105019N0080001N1+00601+00401999999ADDGA1021+003601999GA2081+010501999GF108991999999999999999999MA1102811999999REMMET076METAR ETSI 070820Z 28006KT 8000 FEW012 OVC035 06/04 Q1028 BLU WHT TEMPO GRN;
0128108600999992013010709204+48717+011533FM-15+0365ETSI V0202801N003610105019N0080001N1+00601+00401999999ADDGA1081+010501999GF108991999999999999999999MA1102811999999REMMET059METAR ETSI 070920Z 28007KT 8000 OVC035 06/04 Q1028 BLU BLU;
0159108600999992013010710004+48717+011533FM-12+0365ETSI V0202801N004010099019N0080001N1+00591+00411102991ADDGA1081+009901061GF108991081051012501999999MA1999999098511MD1210121+9999REMSYN076AAXX  07101 10860 42658 82804 10059 20041 39851 40299 52012 885// 333 88633;
0151108600999992013010710204+48717+011533FM-15+0365ETSI V0202801N003110105019N0080001N1+00601+00401999999ADDGA1021+005401999GA2081+010501999GF108991999999999999999999MA1102811999999REMMET066METAR ETSI 071020Z 28006KT 8000 FEW018 OVC035 06/04 Q1028 BLU BLU;
0165108600999992013010711004+48717+011533FM-12+0365ETSI V0202701N00401009001CN0080001N1+00611+00421102961ADDGA1011+004501081GF108991081081004501999999MA1999999098491MD1010061+9999REMSYN082AAXX  07111 10860 42458 82704 10061 20042 39849 40296 50006 888// 333 81815 88636;
0151108600999992013010711204+48717+011533FM-15+0365ETSI V0202701N004110120019N0080001N1+00601+00401999999ADDGA1021+004501999GA2081+012001999GF108991999999999999999999MA1102811999999REMMET066METAR ETSI 071120Z 27008KT 8000 FEW015 OVC040 06/04 Q1028 BLU BLU;
0151108600999992013010712204+48717+011533FM-15+0365ETSI V0202701N003610120019N0080001N1+00601+00401999999ADDGA1021+003001999GA2081+012001999GF108991999999999999999999MA1102711999999REMMET066METAR ETSI 071220Z 27007KT 8000 FEW010 OVC040 06/04 Q1027 BLU BLU;
0165108600999992013010713004+48717+011533FM-12+0365ETSI V0202801N00301009001CN0080001N1+00621+00411102881ADDGA1011+003601081GF108991081081004501999999MA1999999098411MD1710101+9999REMSYN082AAXX  07131 10860 42458 82803 10062 20041 39841 40288 57010 888// 333 81812 88636;
0151108600999992013010713204+48717+011533FM-15+0365ETSI V0202801N002610108019N0090001N1+00601+00401999999ADDGA1021+003601999GA2081+010801999GF108991999999999999999999MA1102711999999REMMET066METAR ETSI 071320Z 28005KT 9000 FEW012 OVC036 06/04 Q1027 BLU BLU;
0165108600999992013010714004+48717+011533FM-12+0365ETSI V0202801N002010090019N0090001N1+00621+00381102881ADDGA1011+003001081GF108991081081004501999999MA1999999098411MD1610081+9999REMSYN082AAXX  07141 10860 42459 82802 10062 20038 39841 40288 56008 888// 333 81810 88630;
0151108600999992013010714204+48717+011533FM-15+0365ETSI V0202501N001510102019N0090001N1+00601+00401999999ADDGA1021+003001999GA2071+010201999GF107991999999999999999999MA1102711999999REMMET066METAR ETSI 071420Z 25003KT 9000 FEW010 BKN034 06/04 Q1027 BLU BLU;
0184108600999992013010715204+48717+011533FM-15+0365ETSI V0202401N001510111019N0080001N1+00501+00401999999ADDGA1021+004501999GA2071+011101999GA3071+042001999GF107991999999999999999999MA1102711999999REMMET083METAR ETSI 071520Z 24003KT 8000 FEW015 BKN037 BKN140 05/04 Q1027 BLU BLU BECMG GRN;
0261108600999992013010716004+48717+011533SY-MT+0365ETSI V0202601N00301009601CN0080001N1+00601+00431102871ADDGA1041+004501999GA2071+009601999GF108991081081004501999999MA1102711098401MD1510011+9999REMSYN082AAXX  07161 10860 42458 82603 10060 20043 39840 40287 55001 888// 333 85815 87632;MET074SPECI ETSI 071600Z 26005KT 8000 SCT015 BKN032 06/04 Q1027 BLU FCST CANCEL;
0147108600999992013010716204+48717+011533FM-15+0365ETSI V0202601N002610096019N0080001N1+00601+00401999999ADDGA1041+004501999GA2071+009601999GF107991999999999999999999MA1102711999999REMMET062METAR ETSI 071620Z 26005KT 8000 SCT015 BKN032 06/04 Q1027 BLU;
0165108600999992013010717004+48717+011533FM-12+0365ETSI V0202501N003010090019N0080001N1+00541+00411102881ADDGA1021+004501081GF108991081081004501999999MA1999999098401MD1510011+9999REMSYN082AAXX  07171 10860 42458 82503 10054 20041 39840 40288 55001 888// 333 82815 87630;
0147108600999992013010717204+48717+011533FM-15+0365ETSI V0202401N001510090019N0080001N1+00501+00401999999ADDGA1021+004501999GA2071+009001999GF107991999999999999999999MA1102711999999REMMET062METAR ETSI 071720Z 24003KT 8000 FEW015 BKN030 05/04 Q1027 BLU;
0154108600999992013010804204+48717+011533FM-15+0365ETSI V0201701N001012200019N0008001N1+00101+00101999999ADDED125U06009GA1021+001201999GF102991999999999999999999MA1102511999999MW1441REMMET068METAR ETSI 080420Z 17002KT 0800 R25/0600N FG FEW004 01/01 Q1025 AMB;
0179108600999992013010805004+48717+011533FM-12+0365ETSI V0201701N002010270019N0008001N1+00111+00111102691ADDAY141999GA1071+027001031GF107991071001999999031999MA1999999098151MD1710171+9999MW1461REMSYN082AAXX  08051 10860 41908 71702 10011 20011 39815 40269 57017 7464/ 8703/ 333 87359;
0177108600999992013010805054+48717+011533FM-16+0365ETSI V0201801N001510330019N0016001N1+00101+00101999999ADDED125U35009GA1041+024001999GA2071+033001999GF107991999999999999999999MA1102401999999MW1101REMMET075SPECI ETSI 080505Z 18003KT 1600 R25/3500U BR SCT080 BKN110 01/01 Q1024 YLO;
0170108600999992013010805204+48717+011533FM-15+0365ETSI V0201601N001010330019N0020001N1+00201+00201999999ADDGA1041+024001999GA2071+033001999GF107991999999999999999999MA1102511999999MW1101REMMET079METAR ETSI 080520Z 16002KT 2000 BR SCT080 BKN110 02/02 Q1025 YLO YLO TEMPO RED;
0147108600999992013010806204+48717+011533FM-15+0365ETSI V0201701N001510300019N0020001N1+00201+00201999999ADDGA1071+030001999GF107991999999999999999999MA1102511999999MW1101REMMET072METAR ETSI 080620Z 17003KT 2000 BR BKN100 02/02 Q1025 YLO YLO TEMPO RED;
0193108600999992013010807004+48717+011533FM-12+0365ETSI V0202201N002010300019N0020001N1+00171+00171102691ADDAY121999AY221999GA1051+030001031GF107991071001999999031999MA1999999098161MD1510051+9999MW1101REMSYN088AAXX  08071 10860 41920 72202 10017 20017 39816 40269 55005 71022 8703/ 333 85360 87362;
0204108600999992013010807204+48717+011533FM-15+0365ETSI V0202501N00151030001CN0020001N1+00201+00201999999ADDGA1041+002401999GA2041+030001999GA3071+036001999GF107991999999999999999999MA1102511999999MW1101MW2121REMMET091METAR ETSI 080720Z 25003KT 2000 MIFG BR SCT008 SCT100 BKN120 02/02 Q1025 YLO YLO TEMPO RED;
0225108600999992013010807364+48717+011533FM-16+0365ETSI V0201901N00151030001CN0015001N1+00101+00101999999ADDED125U06009GA1041+002401999GA2041+030001999GA3071+063001999GF107991999999999999999999MA1102511999999MW1101MW2121REMMET101SPECI ETSI 080736Z 19003KT 1500 R25/0600D MIFG BR SCT008 SCT100 BKN210 01/01 Q1025 AMB YLO TEMPO RED;
0215108600999992013010808004+48717+011533FM-12+0365ETSI V0201401N001010300019N0015001N1+00141+00141102711ADDAY121999AY221999GA1031+003001071GA2031+030001031GF106991061061004501071001MA1999999098171MD1010021+9999MW1111REMSYN094AAXX  08081 10860 41415 61401 10014 20014 39817 40271 50002 71122 86670 333 83710 83360 85462;
0179108600999992013010808014+48717+011533FM-16+0365ETSI V0200801N001010030019N0012001N1+00201+00201999999ADDED125U04509GA1071+003001999GF107991999999999999999999MA1102511999999MW1101MW2121REMMET087SPECI ETSI 080801Z 08002KT 1200 R25/0450N MIFG BR BKN010 02/02 Q1025 AMB YLO TEMPO RED;
0179108600999992013010808204+48717+011533FM-15+0365ETSI V0202201N001010018019N0012001N1+00201+00201999999ADDED125U25009GA1081+001801999GF108991999999999999999999MA1102511999999MW1101MW2121REMMET087METAR ETSI 080820Z 22002KT 1200 R25/2500U MIFG BR OVC006 02/02 Q1025 AMB YLO TEMPO RED;
0137108600999992013010808344+48717+011533FM-16+0365ETSI V0202401N002110015019N0020001N1+00301+00301999999ADDGA1081+001501999GF108991999999999999999999MA1102511999999MW1101REMMET062SPECI ETSI 080834Z 24004KT 2000 BR OVC005 03/03 Q1025 YLO YLO;
0137108600999992013010808434+48717+011533FM-16+0365ETSI V0202501N003110015019N0030001N1+00301+00301999999ADDGA1081+001501999GF108991999999999999999999MA1102511999999MW1101REMMET062SPECI ETSI 080843Z 25006KT 3000 BR OVC005 03/03 Q1025 YLO YLO;
0147108600999992013010809204+48717+011533FM-15+0365ETSI V0202701N003110018019N0038001N1+00301+00301999999ADDGA1081+001801999GF108991999999999999999999MA1102511999999MW1101REMMET072METAR ETSI 080920Z 27006KT 3800 BR OVC006 03/03 Q1025 YLO YLO BECMG GRN;
0187108600999992013010810004+48717+011533FM-12+0365ETSI V0202801N004010018019N0038001N1+00371+00281102711ADDAY121999AY221999GA1081+001801071GF108991081061001501999999MA1999999098211MD1210051+9999MW1101REMSYN082AAXX  08101 10860 41238 82804 10037 20028 39821 40271 52005 71022 886// 333 88706;
0147108600999992013010810204+48717+011533FM-15+0365ETSI V0202701N004110021019N0038001N1+00401+00301999999ADDGA1081+002101999GF108991999999999999999999MA1102511999999MW1101REMMET072METAR ETSI 081020Z 27008KT 3800 BR OVC007 04/03 Q1025 GRN GRN TEMPO YLO;
0187108600999992013010811004+48717+011533FM-12+0365ETSI V0202701N004010021019N0045001N1+00401+00261102651ADDAY121999AY221999GA1081+002101071GF108991081061002501999999MA1999999098161MD1810011+9999MW1101REMSYN082AAXX  08111 10860 41345 82704 10040 20026 39816 40265 58001 71022 886// 333 88707;
0147108600999992013010811204+48717+011533FM-15+0365ETSI V0202501N003610021019N0050001N1+00401+00301999999ADDGA1081+002101999GF108991999999999999999999MA1102401999999MW1101REMMET072METAR ETSI 081120Z 25007KT 5000 BR OVC007 04/03 Q1024 GRN GRN TEMPO YLO;
0138108600999992013010812204+48717+011533FM-15+0365ETSI V0202601N004110027019N0060001N1+00501+00301999999ADDGA1081+002701999GF108991999999999999999999MA1102301999999REMMET069METAR ETSI 081220Z 26008KT 6000 OVC009 05/03 Q1023 GRN GRN TEMPO YLO;
0187108600999992013010813004+48717+011533FM-12+0365ETSI V0202801N004010030019N0060001N1+00481+00271102551ADDAY121999AY221999GA1071+003001061GF108991071051004501999999MA1999999098081MD1610131+9999MW1101REMSYN082AAXX  08131 10860 41456 82804 10048 20027 39808 40255 56013 71022 875// 333 87610;
0161108600999992013010813204+48717+011533FM-15+0365ETSI V0202701N004110039019N0070001N1+00501+00301999999ADDGA1071+003901999GA2081+024001999GF108991999999999999999999MA1102401999999REMMET076METAR ETSI 081320Z 27008KT 7000 BKN013 OVC085 05/03 Q1024 GRN GRN TEMPO YLO;
0229108600999992013010814004+48717+011533FM-12+0365ETSI V0202601N004010033019N0070001N1+00461+00251102591ADDAY121999AY221999GA1071+003301061GF108991071051004501999999MA1999999098111MD1510051+9999MW1101REMSYN124AAXX  08141 10860 41457 82604 10046 20025 39811 40259 55005 71022 875// 333 87611 555 BOT 10046 20045 30043 40053 999 31///;
0161108600999992013010814204+48717+011533FM-15+0365ETSI V0202501N003610033019N0080001N1+00501+00301999999ADDGA1071+003301999GA2071+005701999GF107991999999999999999999MA1102401999999REMMET076METAR ETSI 081420Z 25007KT 8000 BKN011 BKN019 05/03 Q1024 GRN GRN TEMPO YLO;
0159108600999992013010815204+48717+011533FM-15+0365ETSI V0202901N003110042019N0112651N1+00401+00201999999ADDGA1071+004201999GA2081+005401999GF108991999999999999999999MA1102401999999REMMET074METAR ETSI 081520Z 29006KT 9999 BKN014 OVC018 04/02 Q1024 GRN FCST CANCEL;
0159108600999992013010816004+48717+011533FM-12+0365ETSI V0202801N002010042019N0100001N1+00441+00221102651ADDGA1071+004201061GF108991071051004501999999MA1999999098161MD1210081+9999REMSYN076AAXX  08161 10860 42460 82802 10044 20022 39816 40265 52008 875// 333 87614;
0134108600999992013010816204+48717+011533FM-15+0365ETSI V0202501N002610036019N0080001N1+00401+00201999999ADDGA1081+003601999GF108991999999999999999999MA1102511999999MW1611REMMET059METAR ETSI 081620Z 25005KT 8000 -RA OVC012 04/02 Q1025 GRN;
0187108600999992013010817004+48717+011533FM-12+0365ETSI V0202601N003010036019N0070001N1+00421+00241102671ADDAY161999AY221999GA1081+003601061GF108991081051004501999999MA1999999098181MD1310071+9999MW1611REMSYN082AAXX  08171 10860 41457 82603 10042 20024 39818 40267 53007 76162 885// 333 88612;
0166108600999992013010817154+48717+011533FM-16+0365ETSI V0203001N003610012019N0050001N1+00401+00201999999ADDGA1071+001201999GA2081+003601999GF108991999999999999999999MA1102511999999MW1101MW2611REMMET069SPECI ETSI 081715Z 30007KT 5000 -RA BR BKN004 OVC012 04/02 Q1025 YLO;
0166108600999992013010817204+48717+011533FM-15+0365ETSI V0203001N003610012019N0050001N1+00401+00201999999ADDGA1071+001201999GA2081+003601999GF108991999999999999999999MA1102511999999MW1101MW2611REMMET069METAR ETSI 081720Z 30007KT 5000 -RA BR BKN004 OVC012 04/02 Q1025 YLO;
0165108600999992013010817394+48717+011533FM-16+0365ETSI V0202801N002610030019N0050001N1+00401+00201999999ADDGA1041+001201999GA2081+003001999GF108991999999999999999999MA1102511999999MW1101MW2631REMMET068SPECI ETSI 081739Z 28005KT 5000 RA BR SCT004 OVC010 04/02 Q1025 GRN;
0165108600999992013010818204+48717+011533FM-15+0365ETSI V0202801N002110030019N0045001N1+00301+00201999999ADDGA1041+001201999GA2081+003001999GF108991999999999999999999MA1102511999999MW1101MW2631REMMET068METAR ETSI 081820Z 28004KT 4500 RA BR SCT004 OVC010 03/02 Q1025 GRN;
0165108600999992013010818464+48717+011533FM-16+0365ETSI V0202701N002110015019N0040001N1+00301+00301999999ADDGA1071+001501999GA2081+003001999GF108991999999999999999999MA1102511999999MW1101MW2631REMMET068SPECI ETSI 081846Z 27004KT 4000 RA BR BKN005 OVC010 03/03 Q1025 YLO;
0188108600999992013010819134+48717+011533FM-16+0365ETSI V0202801N002110030019N0028001N1+00301+00301999999ADDGA1021+001201999GA2071+003001999GA3081+012001999GF108991999999999999999999MA1102511999999MW1101MW2631REMMET075SPECI ETSI 081913Z 28004KT 2800 RA BR FEW004 BKN010 OVC040 03/03 Q1025 YLO;
0188108600999992013010819204+48717+011533FM-15+0365ETSI V0202801N002110030019N0028001N1+00301+00301999999ADDGA1021+001201999GA2071+003001999GA3081+012001999GF108991999999999999999999MA1102511999999MW1101MW2631REMMET075METAR ETSI 081920Z 28004KT 2800 RA BR FEW004 BKN010 OVC040 03/03 Q1025 YLO;
0143108600999992013010904204+48717+011533FM-15+0365ETSI V0202701N002610009019N0022001N1+00301+00301999999ADDGA1071+000901999GF107991999999999999999999MA1102301999999MW1101MW2511REMMET062METAR ETSI 090420Z 27005KT 2200 -DZ BR BKN003 03/03 Q1023 YLO;
0179108600999992013010905004+48717+011533FM-12+0365ETSI V0202801N003010009019N0022001N1+00281+00281102521ADDAY151999GA1081+000901071GF108991081061000751999999MA1999999098011MD1710081+9999MW1511REMSYN082AAXX  09051 10860 41122 82803 10028 20028 39801 40252 57008 7515/ 886// 333 88703;
0178108600999992013010905204+48717+011533FM-15+0365ETSI V0202501N002110009019N0018001N1+00301+00301999999ADDED125U30009GA1081+000901999GF108991999999999999999999MA1102301999999MW1101MW2511REMMET086METAR ETSI 090520Z 25004KT 1800 R25/3000N -DZ BR OVC003 03/03 Q1023 YLO YLO TEMPO AMB;
0178108600999992013010905404+48717+011533FM-16+0365ETSI V0202501N002610009019N0015001N1+00301+00301999999ADDED125U29009GA1081+000901999GF108991999999999999999999MA1102301999999MW1101MW2511REMMET086SPECI ETSI 090540Z 25005KT 1500 R25/2900N -DZ BR OVC003 03/03 Q1023 AMB YLO TEMPO AMB;
0178108600999992013010906204+48717+011533FM-15+0365ETSI V0202501N002110009019N0016001N1+00301+00301999999ADDED125U27009GA1081+000901999GF108991999999999999999999MA1102201999999MW1101MW2511REMMET086METAR ETSI 090620Z 25004KT 1600 R25/2700U -DZ BR OVC003 03/03 Q1022 YLO YLO TEMPO AMB;
0187108600999992013010907004+48717+011533FM-12+0365ETSI V0202201N002010009019N0018001N1+00271+00271102451ADDAY151999AY251999GA1081+000901071GF108991081061000751999999MA1999999097951MD1710081+9999MW1511REMSYN082AAXX  09071 10860 41118 82202 10027 20027 39795 40245 57008 75155 886// 333 88703;
0157108600999992013010907204+48717+011533FM-15+0365ETSI V0202401N001510009019N0022001N1+00301+00301999999ADDGA1071+000901999GF107991999999999999999999MA1102301999999MW1101MW2511REMMET076METAR ETSI 090720Z 24003KT 2200 -DZ BR BKN003 03/03 Q1023 YLO YLO TEMPO AMB;
0193108600999992013010908004+48717+011533FM-12+0365ETSI V0202501N00201000601CN0028001N1+00301+00251102451ADDAY151999AY251999GA1021+000901071GF108991081061000751999999MA1999999097951MD1610061+9999MW1201REMSYN088AAXX  09081 10860 41128 82502 10030 20025 39795 40245 56006 72055 886// 333 82703 87705;
0170108600999992013010908044+48717+011533FM-16+0365ETSI V0202601N001510018019N0030001N1+00301+00301999999ADDGA1021+000901999GA2071+001801999GF107991999999999999999999MA1102201999999MW1101REMMET079SPECI ETSI 090804Z 26003KT 3000 BR FEW003 BKN006 03/03 Q1022 YLO YLO TEMPO AMB;
0170108600999992013010908204+48717+011533FM-15+0365ETSI V0202401N001010018019N0030001N1+00301+00301999999ADDGA1021+000901999GA2071+001801999GF107991999999999999999999MA1102201999999MW1101REMMET079METAR ETSI 090820Z 24002KT 3000 BR FEW003 BKN006 03/03 Q1022 YLO YLO TEMPO AMB;
0193108600999992013010909204+48717+011533FM-15+0365ETSI V0202201N001510018019N0036001N1+00401+00301999999ADDGA1021+001201999GA2071+001801999GA3081+006001999GF108991999999999999999999MA1102201999999MW1101REMMET086METAR ETSI 090920Z 22003KT 3600 BR FEW004 BKN006 OVC020 04/03 Q1022 YLO YLO BECMG GRN;
0183108600999992013010909304+48717+011533FM-16+0365ETSI V0202401N001010021019N0040001N1+00401+00301999999ADDGA1021+001201999GA2071+002101999GA3081+006001999GF108991999999999999999999MA1102201999999MW1101REMMET076SPECI ETSI 090930Z 24002KT 4000 BR FEW004 BKN007 OVC020 04/03 Q1022 GRN GRN;
0215108600999992013010910004+48717+011533FM-12+0365ETSI V0202401N002010021019N0040001N1+00371+00261102371ADDAY121999AY221999GA1011+001501071GA2061+002101071GF108991081051001501999999MA1999999097891MD1810061+9999MW1101REMSYN094AAXX  09101 10860 41240 82402 10037 20026 39789 40237 58006 71022 885// 333 81705 86707 88622;
0160108600999992013010910204+48717+011533FM-15+0365ETSI V0202401N001510021019N0040001N1+00401+00301999999ADDGA1021+001501999GA2071+002101999GF107991999999999999999999MA1102201999999MW1101REMMET069METAR ETSI 091020Z 24003KT 4000 BR FEW005 BKN007 04/03 Q1022 GRN GRN;
0160108600999992013010910474+48717+011533FM-16+0365ETSI V0202301N001510027019N0050001N1+00401+00301999999ADDGA1041+002101999GA2071+002701999GF107991999999999999999999MA1102101999999MW1101REMMET069SPECI ETSI 091047Z 23003KT 5000 BR SCT007 BKN009 04/03 Q1021 GRN GRN;
0193108600999992013010911004+48717+011533FM-12+0365ETSI V0202401N00201002101CN0050001N1+00421+00251102311ADDAY121999AY221999GA1031+002101071GF107991071051002501999999MA1999999097841MD1710111+9999MW1101REMSYN088AAXX  09111 10860 41350 72402 10042 20025 39784 40231 57011 71022 875// 333 83707 87609;
0183108600999992013010911204+48717+011533FM-15+0365ETSI V0202401N001510027019N0050001N1+00401+00301999999ADDGA1041+002101999GA2071+002701999GA3081+006601999GF108991999999999999999999MA1102101999999MW1101REMMET076METAR ETSI 091120Z 24003KT 5000 BR SCT007 BKN009 OVC022 04/03 Q1021 GRN GRN;
0161108600999992013010912204+48717+011533FM-15+0365ETSI V0202401N001510054019N0060001N1+00501+00301999999ADDGA1041+002101999GA2071+005401999GF107991999999999999999999MA1101901999999REMMET076METAR ETSI 091220Z 24003KT 6000 SCT007 BKN018 05/03 Q1019 WHT GRN TEMPO WHT;
0165108600999992013010913004+48717+011533FM-12+0365ETSI V0202301N00101006001CN0090001N1+00471+00261102051ADDGA1031+002101081GF107991071081002501999999MA1999999097601MD1710291+9999REMSYN082AAXX  09131 10860 42359 72301 10047 20026 39760 40205 57029 878// 333 83807 87618;
0161108600999992013010913204+48717+011533FM-15+0365ETSI V0202701N001010054019N0112651N1+00501+00301999999ADDGA1021+002401999GA2071+005401999GF107991999999999999999999MA1101901999999REMMET076METAR ETSI 091320Z 27002KT 9999 FEW008 BKN018 05/03 Q1019 WHT GRN TEMPO WHT;
0159108600999992013010914004+48717+011533FM-12+0365ETSI V0209999V001010054019N0150001N1+00491+00211102021ADDGA1071+005401061GF107991071051004501999999MA1999999097571MD1710271+9999REMSYN076AAXX  09141 10860 42465 79901 10049 20021 39757 40202 57027 875// 333 87618;
0138108600999992013010914204+48717+011533FM-15+0365ETSI V0202301N001510054019N0112651N1+00501+00201999999ADDGA1071+005401999GF107991999999999999999999MA1101801999999REMMET069METAR ETSI 091420Z 23003KT 9999 BKN018 05/02 Q1018 WHT GRN TEMPO WHT;
0136108600999992013010915204+48717+011533FM-15+0365ETSI V0202801N002110051019N0112651N1+00501+00101999999ADDGA1071+005101999GF107991999999999999999999MA1101801999999REMMET067METAR ETSI 091520Z 28004KT 9999 BKN017 05/01 Q1018 WHT FCST CANCEL;
0159108600999992013010916004+48717+011533FM-12+0365ETSI V0202801N002010051019N0100001N1+00431+00131101951ADDGA1071+005101061GF107991071051004501999999MA1999999097491MD1710111+9999REMSYN076AAXX  09161 10860 42460 72802 10043 20013 39749 40195 57011 875// 333 87617;
0124108600999992013010916204+48717+011533FM-15+0365ETSI V0203001N001510051019N0112651N1+00401+00101999999ADDGA1071+005101999GF107991999999999999999999MA1101691999999REMMET055METAR ETSI 091620Z 30003KT 9999 BKN017 04/01 Q1017 WHT;
0159108600999992013010917004+48717+011533FM-12+0365ETSI V0202401N002010051019N0100001N1+00381+00191101891ADDGA1071+005101061GF107991071051004501999999MA1999999097431MD1710141+9999REMSYN076AAXX  09171 10860 42460 72402 10038 20019 39743 40189 57014 875// 333 87617;
0124108600999992013010917204+48717+011533FM-15+0365ETSI V0202601N001510051019N0112651N1+00401+00201999999ADDGA1071+005101999GF107991999999999999999999MA1101691999999REMMET055METAR ETSI 091720Z 26003KT 9999 BKN017 04/02 Q1017 WHT;
0147108600999992013010918204+48717+011533FM-15+0365ETSI V0202601N004610048019N0112651N1+00301+00201999999ADDGA1021+003601999GA2071+004801999GF107991999999999999999999MA1101591999999REMMET062METAR ETSI 091820Z 26009KT 9999 FEW012 BKN016 03/02 Q1016 WHT;
0147108600999992013010919204+48717+011533FM-15+0365ETSI V0203001N004110042019N0112651N1+00201+00101999999ADDGA1021+001201999GA2071+004201999GF107991999999999999999999MA1101591999999REMMET062METAR ETSI 091920Z 30008KT 9999 FEW004 BKN014 02/01 Q1016 GRN;
0156108600999992013010920024+48717+011533FM-16+0365ETSI V0202601N002610060019N0050001N1+00201+00101999999ADDGA1021+001201999GA2071+006001999GF107991999999999999999999MA1101591999999MW1101REMMET065SPECI ETSI 092002Z 26005KT 5000 BR FEW004 BKN020 02/01 Q1016 WHT;
0156108600999992013010920204+48717+011533FM-15+0365ETSI V0203101N003610015019N0050001N1+00201+00101999999ADDGA1071+001501999GA2071+005401999GF107991999999999999999999MA1101591999999MW1101REMMET065METAR ETSI 092020Z 31007KT 5000 BR BKN005 BKN018 02/01 Q1016 YLO;
0133108600999992013011004204+48717+011533FM-15+0365ETSI V0203101N004110018019N0050001N1+00101+00101999999ADDGA1081+001801999GF108991999999999999999999MA1101391999999MW1101REMMET058METAR ETSI 100420Z 31008KT 5000 BR OVC006 01/01 Q1014 YLO;
0167108600999992013011004304+48717+011533FM-16+0365ETSI V0203101N004610015019N0030001N1+00101+00001999999ADDGA1071+001501999GA2071+003001999GF107991999999999999999999MA1101391999999MW1101MW2401REMMET070SPECI ETSI 100430Z 31009KT 3000 VCFG BR BKN005 BKN010 01/00 Q1014 YLO;
0187108600999992013011005004+48717+011533FM-12+0365ETSI V0203201N005010012019N0040001N1+00141+00051101641ADDAY121999AY221999GA1081+001201061GF108991081051001501999999MA1999999097151MD1710081+9999MW1401REMSYN082AAXX  10051 10860 41240 83205 10014 20005 39715 40164 57008 74022 885// 333 88604;
0158108600999992013011005204+48717+011533FM-15+0365ETSI V0203101N004610015019N0040001N1+00201+00101999999ADDGA1081+001501999GF108991999999999999999999MA1101391999999MW1101MW2401REMMET077METAR ETSI 100520Z 31009KT 4000 VCFG BR OVC005 02/01 Q1014 YLO GRN TEMPO YLO;
0138108600999992013011006004+48717+011533FM-15+0365ETSI V0203201N004110015019N0060001N1+00201+00101999999ADDGA1081+001501999GF108991999999999999999999MA1101391999999REMMET069SPECI ETSI 100559Z 32008KT 6000 OVC005 02/01 Q1014 YLO GRN TEMPO YLO;
0138108600999992013011006204+48717+011533FM-15+0365ETSI V0203101N004110015019N0060001N1+00201+00101999999ADDGA1071+001501999GF107991999999999999999999MA1101391999999REMMET069METAR ETSI 100620Z 31008KT 6000 BKN005 02/01 Q1014 YLO GRN TEMPO YLO;
0187108600999992013011007004+48717+011533FM-12+0365ETSI V0203301N003010018019N0050001N1+00171+00081101621ADDAY121999AY221999GA1081+001801061GF108991081051001501999999MA1999999097141MD1510031+9999MW1101REMSYN082AAXX  10071 10860 41250 83303 10017 20008 39714 40162 55003 71022 885// 333 88606;
0147108600999992013011007204+48717+011533FM-15+0365ETSI V0203101N003110018019N0050001N1+00201+00101999999ADDGA1081+001801999GF108991999999999999999999MA1101391999999MW1101REMMET072METAR ETSI 100720Z 31006KT 5000 BR OVC006 02/01 Q1014 YLO GRN TEMPO YLO;
0187108600999992013011008004+48717+011533FM-12+0365ETSI V0203201N003010018019N0050001N1+00181+00081101621ADDAY121999AY221999GA1081+001801061GF108991081051001501999999MA1999999097141MD1510011+9999MW1101REMSYN082AAXX  10081 10860 41250 83203 10018 20008 39714 40162 55001 71022 885// 333 88606;
0147108600999992013011008204+48717+011533FM-15+0365ETSI V0203001N004110018019N0050001N1+00201+00101999999ADDGA1081+001801999GF108991999999999999999999MA1101391999999MW1101REMMET072METAR ETSI 100820Z 30008KT 5000 BR OVC006 02/01 Q1014 YLO GRN TEMPO YLO;
0170108600999992013011009054+48717+011533FM-16+0365ETSI V0202601N005110135019N0050001N1+00201+00101999999ADDGA1041+002101999GA2071+013501999GF107991999999999999999999MA1101291999999MW1101REMMET079SPECI ETSI 100905Z 26010KT 5000 BR SCT007 BKN045 02/01 Q1013 WHT GRN TEMPO YLO;
0161108600999992013011009174+48717+011533FM-16+0365ETSI V0202901N005710021019N0060001N1+00201+00101999999ADDGA1071+002101999GA2071+013501999GF107991999999999999999999MA1101391999999REMMET076SPECI ETSI 100917Z 29011KT 6000 BKN007 BKN045 02/01 Q1014 GRN GRN TEMPO YLO;
0161108600999992013011009204+48717+011533FM-15+0365ETSI V0203001N006210021019N0060001N1+00201+00101999999ADDGA1071+002101999GA2071+013501999GF107991999999999999999999MA1101391999999REMMET076METAR ETSI 100920Z 30012KT 6000 BKN007 BKN045 02/01 Q1014 GRN GRN TEMPO YLO;
0159108600999992013011010004+48717+011533FM-12+0365ETSI V0202701N005010021019N0080001N1+00261+00121101541ADDGA1071+002101061GF107991071051002501999999MA1999999097071MD1810071+9999REMSYN076AAXX  10101 10860 42358 72705 10026 20012 39707 40154 58007 875// 333 87607;
0138108600999992013011010204+48717+011533FM-15+0365ETSI V0202701N004610021019N0090001N1+00301+00101999999ADDGA1071+002101999GF107991999999999999999999MA1101291999999REMMET069METAR ETSI 101020Z 27009KT 9000 BKN007 03/01 Q1013 GRN GRN TEMPO YLO;
0159108600999992013011011004+48717+011533FM-12+0365ETSI V0202801N005010024019N0090001N1+00271+00111101491ADDGA1081+002401061GF108991081051002501999999MA1999999097031MD1710111+9999REMSYN076AAXX  10111 10860 42359 82805 10027 20011 39703 40149 57011 885// 333 88608;
0138108600999992013011011204+48717+011533FM-15+0365ETSI V0202701N004610027019N0090001N1+00301+00101999999ADDGA1081+002701999GF108991999999999999999999MA1101291999999REMMET069METAR ETSI 101120Z 27009KT 9000 OVC009 03/01 Q1013 GRN GRN TEMPO YLO;
0128108600999992013011012204+48717+011533FM-15+0365ETSI V0202701N005110033019N0112651N1+00301+00101999999ADDGA1071+003301999GF107991999999999999999999MA1101191999999REMMET059METAR ETSI 101220Z 27010KT 9999 BKN011 03/01 Q1012 GRN GRN;
0187108600999992013011013004+48717+011533FM-12+0365ETSI V0202601N006010033019N0100001N1+00351+00141101321ADDAY121999AY221999GA1071+003301061GF107991071051004501999999MA1999999096881MD1710191+9999MW1211REMSYN082AAXX  10131 10860 41460 72606 10035 20014 39688 40132 57019 72122 875// 333 87611;
0151108600999992013011013204+48717+011533FM-15+0365ETSI V0202701N004610033019N0112651N1+00401+00101999999ADDGA1071+003301999GA2071+004801999GF107991999999999999999999MA1101081999999REMMET066METAR ETSI 101320Z 27009KT 9999 BKN011 BKN016 04/01 Q1011 GRN GRN;
0151108600999992013011013414+48717+011533FM-16+0365ETSI V0202601N004110135019N0112651N1+00401+00201999999ADDGA1041+003301999GA2071+013501999GF107991999999999999999999MA1101081999999REMMET066SPECI ETSI 101341Z 26008KT 9999 SCT011 BKN045 04/02 Q1011 BLU GRN;
0165108600999992013011014004+48717+011533FM-12+0365ETSI V0202601N00501009001CN0180001N1+00371+00161101271ADDGA1031+003301081GF107991071081004501999999MA1999999096831MD1710201+9999REMSYN082AAXX  10141 10860 42468 72605 10037 20016 39683 40127 57020 878// 333 83811 87645;
0151108600999992013011014104+48717+011533FM-16+0365ETSI V0202701N004610033019N0112651N1+00401+00201999999ADDGA1071+003301999GA2071+014101999GF107991999999999999999999MA1101081999999REMMET066SPECI ETSI 101410Z 27009KT 9999 BKN011 BKN047 04/02 Q1011 GRN GRN;
0184108600999992013011014204+48717+011533FM-15+0365ETSI V0202701N005110033019N0112651N1+00401+00201999999ADDGA1071+003301999GA2071+007501999GA3071+014101999GF107991999999999999999999MA1101081999999REMMET083METAR ETSI 101420Z 27010KT 9999 BKN011 BKN025 BKN047 04/02 Q1011 GRN WHT TEMPO GRN;
0184108600999992013011014304+48717+011533FM-16+0365ETSI V0202601N004110075019N0112651N1+00401+00101999999ADDGA1041+003301999GA2071+007501999GA3071+014101999GF107991999999999999999999MA1101081999999REMMET083SPECI ETSI 101430Z 26008KT 9999 SCT011 BKN025 BKN047 04/01 Q1011 BLU WHT TEMPO GRN;
0202108600999992013011015204+48717+011533FM-15+0365ETSI V0202601N00461007201CN0112651N1+00401+00101999999ADDGA1021+003301999GA2041+007201999GA3071+013501999GF107991999999999999999999MA1101021999999MW1511MW2611REMMET089METAR ETSI 101520Z 26009KT 9999 -DZRA FEW011 SCT024 BKN045 04/01 Q1010 BLU WHT TEMPO GRN;
0318108600999992013011016004+48717+011533SY-MT+0365ETSI V0202601N00301005101CN0150001N1+00351+00081101211ADDAY161999AY221999GA1021+003301999GA2071+005101999GA3081+013501999GF108991081081004501999999MA1101021096771MD1710111+9999MW1211REMSYN094AAXX  10161 10860 41465 82603 10035 20008 39677 40121 57011 72162 888// 333 82811 84618 88645;MET081SPECI ETSI 101600Z 27007KT 9999 FEW011 BKN017 OVC045 04/01 Q1010 WHT FCST CANCEL;
0170108600999992013011016204+48717+011533FM-15+0365ETSI V0202701N003110045019N0112651N1+00301+00101999999ADDGA1021+003301999GA2071+004501999GA3081+012001999GF108991999999999999999999MA1101021999999REMMET069METAR ETSI 101620Z 27006KT 9999 FEW011 BKN015 OVC040 03/01 Q1010 WHT;
0165108600999992013011016574+48717+011533FM-16+0365ETSI V0203201N003110039019N0112651N1+00301+00101999999ADDGA1021+003001999GA2071+003901999GF107991999999999999999999MA1101021999999MW1511MW2611REMMET068SPECI ETSI 101657Z 32006KT 9999 -DZRA FEW010 BKN013 03/01 Q1010 GRN;
0193108600999992013011017004+48717+011533FM-12+0365ETSI V0203001N00301009001CN0120001N1+00321+00131101201ADDAY121999AY221999GA1011+003001081GF108991081081004501999999MA1999999096761MD1710071+9999MW1581REMSYN088AAXX  10171 10860 41462 83003 10032 20013 39676 40120 57007 75822 888// 333 81810 87615;
0188108600999992013011017204+48717+011533FM-15+0365ETSI V0203501N002610045019N0112651N1+00301+00101999999ADDGA1021+003001999GA2071+004501999GA3071+006601999GF107991999999999999999999MA1101021999999MW1511MW2611REMMET075METAR ETSI 101720Z 35005KT 9999 -DZRA FEW010 BKN015 BKN022 03/01 Q1010 WHT;
0170108600999992013011018004+48717+011533FM-16+0365ETSI V0203001N003610039019N0112651N1+00301+00101999999ADDGA1041+002401999GA2071+003901999GA3071+006601999GF107991999999999999999999MA1101021999999REMMET069SPECI ETSI 101800Z 30007KT 9999 SCT008 BKN013 BKN022 03/01 Q1010 GRN;
0125108600999992013011104204+48717+011533FM-15+0365ETSI V0203201N003610105019N0112651N1+00101-00101999999ADDGA1071+010501999GF107991999999999999999999MA1100811999999REMMET056METAR ETSI 110420Z 32007KT 9999 BKN035 01/M01 Q1008 BLU;
0165108600999992013011105004+48717+011533FM-12+0365ETSI V0203001N00401007501CN0100001N1+00091-00101101091ADDGA1031+006001061GF107991071051008001999999MA1999999096621MD1510051+9999REMSYN082AAXX  11051 10860 43560 73004 10009 21010 39662 40109 55005 875// 333 83620 87635;
0162108600999992013011105204+48717+011533FM-15+0365ETSI V0202701N005110060019N0112651N1+00101-00101999999ADDGA1071+006001999GA2071+009001999GF107991999999999999999999MA1100911999999REMMET077METAR ETSI 110520Z 27010KT 9999 BKN020 BKN030 01/M01 Q1009 WHT BLU TEMPO GRN;
0172108600999992013011106204+48717+011533FM-15+0365ETSI V0203101N004110045019N0060001N1+00101-00101999999ADDGA1071+004501999GA2071+006601999GF107991999999999999999999MA1101021999999MW1711REMMET081METAR ETSI 110620Z 31008KT 6000 -SN BKN015 BKN022 01/M01 Q1010 WHT BLU TEMPO GRN;
0195108600999992013011106424+48717+011533FM-16+0365ETSI V0202701N003610039019N0060001N1+00101-00101999999ADDGA1021+003001999GA2071+003901999GA3071+006601999GF107991999999999999999999MA1101021999999MW1711REMMET088SPECI ETSI 110642Z 27007KT 6000 -SN FEW010 BKN013 BKN022 01/M01 Q1010 GRN BLU TEMPO GRN;
0215108600999992013011107004+48717+011533FM-12+0365ETSI V0202701N004010039019N0060001N1+00091-00051101261ADDAY171999AY271999GA1021+003001071GA2051+003901061GF107991071051004501999999MA1999999096781MD1210201+9999MW1711REMSYN094AAXX  11071 10860 41456 72704 10009 21005 39678 40126 52020 77177 875// 333 82710 85613 87622;
0181108600999992013011107014+48717+011533FM-16+0365ETSI V0202601N003610030019N0045001N1+00101+00001999999ADDGA1071+003001999GA2081+006001999GF108991999999999999999999MA1101081999999MW1101MW2711REMMET084SPECI ETSI 110701Z 26007KT 4500 -SN BR BKN010 OVC020 01/M00 Q1011 GRN BLU TEMPO GRN;
0181108600999992013011107204+48717+011533FM-15+0365ETSI V0202801N003110027019N0045001N1+00101+00001999999ADDGA1071+002701999GA2081+004501999GF108991999999999999999999MA1101081999999MW1101MW2611REMMET084METAR ETSI 110720Z 28006KT 4500 -RA BR BKN009 OVC015 01/M00 Q1011 GRN GRN BECMG BLU;
0172108600999992013011107414+48717+011533FM-16+0365ETSI V0203101N003110027019N0060001N1+00101+00001999999ADDGA1071+002701999GA2081+004501999GF108991999999999999999999MA1101081999999MW1771REMMET081SPECI ETSI 110741Z 31006KT 6000 -SG BKN009 OVC015 01/M00 Q1011 GRN GRN BECMG BLU;
0162108600999992013011107584+48717+011533FM-16+0365ETSI V0203601N003110045019N0112651N1+00101+00001999999ADDGA1041+002401999GA2071+004501999GF107991999999999999999999MA1101081999999REMMET077SPECI ETSI 110758Z 36006KT 9999 SCT008 BKN015 01/M00 Q1011 WHT WHT BECMG BLU;
0215108600999992013011108004+48717+011533FM-12+0365ETSI V0203501N00401006001CN0070001N1+00101-00021101361ADDAY171999AY261999GA1011+001201071GA2031+002401081GF107991071081001501999999MA1999999096881MD1210261+9999MW1771REMSYN094AAXX  11081 10860 41257 73504 10010 21002 39688 40136 52026 77776 878// 333 81704 83808 87610;
0186108600999992013011108204+48717+011533FM-15+0365ETSI V0203201N00411006001CN0112651N1+00101-00201999999ADDGA1021+004501999GA2041+006001999GA3071+013501999GF107991999999999999999999MA1101191999999REMMET085METAR ETSI 110820Z 32008KT 9999 FEW015 SCT020 BKN045 01/M02 Q1012 BLU BLU TEMPO BLU/;
0163108600999992013011109204+48717+011533FM-15+0365ETSI V0203401N004110120019N0112651N1+00101-00301999999ADDGA1021+005101999GA2071+012001999GF107991999999999999999999MA1101291999999REMMET078METAR ETSI 110920Z 34008KT 9999 FEW017 BKN040 01/M03 Q1013 BLU BLU TEMPO BLU/;
0165108600999992013011110004+48717+011533FM-12+0365ETSI V0203601N005012200019N0300001N1+00061-00391101551ADDGA1011+005101081GF103991031081004501001001MA1999999097051MD1210271+9999REMSYN082AAXX  11101 10860 42480 33605 10006 21039 39705 40155 52027 83800 333 81817 83640;
0153108600999992013011110204+48717+011533FM-15+0365ETSI V0203501N004112200019N0112651N1+00101-00401999999ADDGA1021+006601999GA2041+011101999GF104991999999999999999999MA1101291999999REMMET068METAR ETSI 111020Z 35008KT 9999 FEW022 SCT037 01/M04 Q1013 BLU/BLU/;
0159108600999992013011111004+48717+011533FM-12+0365ETSI V0203401N004012200019N0750001N1+00091-00421101571ADDGA1011+006601081GF102991021081008001001001MA1999999097071MD1110191+9999REMSYN076AAXX  11111 10860 42589 23404 10009 21042 39707 40157 51019 82800 333 81822;
0130108600999992013011111204+48717+011533FM-15+0365ETSI V0203001N003612200019N0112651N1+00101-00501999999ADDGA1021+007501999GF102991999999999999999999MA1101391999999REMMET061METAR ETSI 111120Z 30007KT 9999 FEW025 01/M05 Q1014 BLU/BLU/;
0130108600999992013011112204+48717+011533FM-15+0365ETSI V0203201N003612200019N0112651N1+00101-00601999999ADDGA1021+008401999GF102991999999999999999999MA1101391999999REMMET061METAR ETSI 111220Z 32007KT 9999 FEW028 01/M06 Q1014 BLU/BLU/;
0159108600999992013011113004+48717+011533FM-12+0365ETSI V0203201N004012200019N0700001N1+00081-00641101641ADDGA1011+008401081GF102991011011008001001011MA1999999097141MD1210091+9999REMSYN076AAXX  11131 10860 42588 23204 10008 21064 39714 40164 52009 81101 333 81828;
0130108600999992013011113204+48717+011533FM-15+0365ETSI V0203301N003612200019N0112651N1+00101-00601999999ADDGA1021+008401999GF102991999999999999999999MA1101391999999REMMET061METAR ETSI 111320Z 33007KT 9999 FEW028 01/M06 Q1014 BLU/BLU/;
0159108600999992013011114004+48717+011533FM-12+0365ETSI V0203401N004012200019N0650001N1+00061-00641101701ADDGA1011+008401081GF102991011011008001001011MA1999999097191MD1210121+9999REMSYN076AAXX  11141 10860 42587 23404 10006 21064 39719 40170 52012 81101 333 81828;
0130108600999992013011114204+48717+011533FM-15+0365ETSI V0203101N003112200019N0112651N1+00101-00601999999ADDGA1021+008401999GF102991999999999999999999MA1101491999999REMMET061METAR ETSI 111420Z 31006KT 9999 FEW028 01/M06 Q1015 BLU/BLU/;
0131108600999992013011115204+48717+011533FM-15+0365ETSI V0203401N002112200019N0112651N1+00001-00601999999ADDGA1021+008401999GF102991999999999999999999MA1101491999999REMMET062METAR ETSI 111520Z 34004KT 9999 FEW028 M00/M06 Q1015 BLU/BLU/;
0159108600999992013011116004+48717+011533FM-12+0365ETSI V0203101N001012200019N0550001N1-00061-00571101811ADDGA1011+008401081GF102991011011008001001011MA1999999097281MD1210141+9999REMSYN076AAXX  11161 10860 42585 23101 11006 21057 39728 40181 52014 81101 333 81828;
0138108600999992013011116204+48717+011533FM-15+0365ETSI V0202501N001512200019N0112651N1-00101-00501999999ADDGA1021+009001999GF102991999999999999999999MA1101591999999REMMET069METAR ETSI 111620Z 25003KT 9999 FEW030 M01/M05 Q1016 BLU/FCST CANCEL;
0159108600999992013011117004+48717+011533FM-12+0365ETSI V0203301N001012200019N0500001N1-00201-00531101881ADDGA1011+009001061GF102991011051008001001011MA1999999097321MD1210131+9999REMSYN076AAXX  11171 10860 42584 23301 11020 21053 39732 40188 52013 81501 333 81630;
0127108600999992013011117204+48717+011533FM-15+0365ETSI V0202001N001012200019N0112651N1-00201-00501999999ADDGA1021+009001999GF102991999999999999999999MA1101591999999REMMET058METAR ETSI 111720Z 20002KT 9999 FEW030 M02/M05 Q1016 BLU/;
0126108600999992013011117434+48717+011533FM-16+0365ETSI V0201201N001010099019N0112651N1-00201-00401999999ADDGA1071+009901999GF107991999999999999999999MA1101591999999REMMET057SPECI ETSI 111743Z 12002KT 9999 BKN033 M02/M04 Q1016 BLU;
0149108600999992013011307204+48717+011533FM-15+0365ETSI V0200801N003110027019N0112651N1-00401-00601999999ADDGA1071+002701999GA2081+007501999GF108991999999999999999999MA1101391999999REMMET064METAR ETSI 130720Z 08006KT 9999 BKN009 OVC025 M04/M06 Q1014 GRN;
0126108600999992013011308204+48717+011533FM-15+0365ETSI V0200701N003110033019N0112651N1-00401-00601999999ADDGA1071+003301999GF107991999999999999999999MA1101391999999REMMET057METAR ETSI 130820Z 07006KT 9999 BKN011 M04/M06 Q1014 GRN;
0149108600999992013011315204+48717+011533FM-15+0365ETSI V0200901N003110300019N0112651N1-00201-00601999999ADDGA1041+009001999GA2071+030001999GF107991999999999999999999MA1101291999999REMMET064METAR ETSI 131520Z 09006KT 9999 SCT030 BKN100 M02/M06 Q1013 BLU;
0149108600999992013011321204+48717+011533FM-15+0365ETSI V0200901N002610240019N0112651N1-00301-00601999999ADDGA1021+015001999GA2071+024001999GF107991999999999999999999MA1101291999999REMMET064METAR ETSI 132120Z 09005KT 9999 FEW050 BKN080 M03/M06 Q1013 BLU;
0126108600999992013011404204+48717+011533FM-15+0365ETSI V0201401N002110036019N0112651N1-00301-00501999999ADDGA1081+003601999GF108991999999999999999999MA1101191999999REMMET057METAR ETSI 140420Z 14004KT 9999 OVC012 M03/M05 Q1012 GRN;
0159108600999992013011405004+48717+011533FM-12+0365ETSI V0201101N003010036019N0120001N1-00301-00561101431ADDGA1081+003601061GF108991081051004501999999MA1999999096881MD1710091+9999REMSYN076AAXX  14051 10860 43462 81103 11030 21056 39688 40143 57009 885// 333 88612;
0130108600999992013011405204+48717+011533FM-15+0365ETSI V0201001N002110036019N0112651N1-00301-00501999999ADDGA1081+003601999GF108991999999999999999999MA1101081999999REMMET061METAR ETSI 140520Z 10004KT 9999 OVC012 M03/M05 Q1011 GRN GRN;
0130108600999992013011406204+48717+011533FM-15+0365ETSI V0201001N002610039019N0112651N1-00301-00601999999ADDGA1081+003901999GF108991999999999999999999MA1101081999999REMMET061METAR ETSI 140620Z 10005KT 9999 OVC013 M03/M06 Q1011 GRN GRN;
0159108600999992013011407004+48717+011533FM-12+0365ETSI V0201201N002010039019N0090001N1-00291-00541101441ADDGA1081+003901061GF108991081051004501999999MA1999999096891MD1510041+9999REMSYN076AAXX  14071 10860 42459 81202 11029 21054 39689 40144 55004 885// 333 88613;
0130108600999992013011407204+48717+011533FM-15+0365ETSI V0201201N001510039019N0090001N1-00301-00501999999ADDGA1081+003901999GF108991999999999999999999MA1101191999999REMMET061METAR ETSI 140720Z 12003KT 9000 OVC013 M03/M05 Q1012 GRN GRN;
0159108600999992013011408004+48717+011533FM-12+0365ETSI V0201001N002010039019N0090001N1-00281-00531101481ADDGA1081+003901061GF108991081051004501999999MA1999999096931MD1310051+9999REMSYN076AAXX  14081 10860 42459 81002 11028 21053 39693 40148 53005 885// 333 88613;
0130108600999992013011408204+48717+011533FM-15+0365ETSI V0200901N001510039019N0090001N1-00301-00501999999ADDGA1081+003901999GF108991999999999999999999MA1101191999999REMMET061METAR ETSI 140820Z 09003KT 9000 OVC013 M03/M05 Q1012 GRN GRN;
0130108600999992013011409204+48717+011533FM-15+0365ETSI V0201301N001510042019N0090001N1-00201-00601999999ADDGA1081+004201999GF108991999999999999999999MA1101191999999REMMET061METAR ETSI 140920Z 13003KT 9000 OVC014 M02/M06 Q1012 GRN GRN;
0159108600999992013011410004+48717+011533FM-12+0365ETSI V0201501N002010042019N0090001N1-00231-00551101501ADDGA1081+004201061GF108991081051004501999999MA1999999096951MD1210061+9999REMSYN076AAXX  14101 10860 42459 81502 11023 21055 39695 40150 52006 885// 333 88614;
0130108600999992013011410064+48717+011533FM-16+0365ETSI V0202201N001510045019N0090001N1-00201-00501999999ADDGA1081+004501999GF108991999999999999999999MA1101191999999REMMET061SPECI ETSI 141006Z 22003KT 9000 OVC015 M02/M05 Q1012 WHT GRN;
0140108600999992013011410204+48717+011533FM-15+0365ETSI V0202501N001510048019N0090001N1-00201-00601999999ADDGA1081+004801999GF108991999999999999999999MA1101191999999REMMET071METAR ETSI 141020Z 25003KT 9000 OVC016 M02/M06 Q1012 WHT GRN TEMPO WHT;
0159108600999992013011411004+48717+011533FM-12+0365ETSI V0202401N002010048019N0090001N1-00201-00541101461ADDGA1081+004801061GF108991081051004501999999MA1999999096921MD1810011+9999REMSYN076AAXX  14111 10860 42459 82402 11020 21054 39692 40146 58001 885// 333 88616;
0130108600999992013011411204+48717+011533FM-15+0365ETSI V0201901N001510042019N0090001N1-00201-00501999999ADDGA1081+004201999GF108991999999999999999999MA1101081999999REMMET061METAR ETSI 141120Z 19003KT 9000 OVC014 M02/M05 Q1011 GRN GRN;
0140108600999992013011412204+48717+011533FM-15+0365ETSI V0202501N001510042019N0090001N1-00101-00501999999ADDGA1081+004201999GF108991999999999999999999MA1101081999999REMMET071METAR ETSI 141220Z 25003KT 9000 OVC014 M01/M05 Q1011 GRN WHT TEMPO GRN;
0236108600999992013011413004+48717+011533SY-MT+0365ETSI V0209999V00101004501CN0080001N1-00151-00491101341ADDGA1081+004501999GF108991081051004501999999MA1101081096811MD1710141+9999REMSYN076AAXX  14131 10860 42458 89901 11015 21049 39681 40134 57014 885// 333 88614;MET071SPECI ETSI 141300Z 10002KT 8000 OVC015 M02/M05 Q1011 WHT WHT TEMPO GRN;
0140108600999992013011413204+48717+011533FM-15+0365ETSI V0200501N001510045019N0070001N1-00201-00501999999ADDGA1081+004501999GF108991999999999999999999MA1101081999999REMMET071METAR ETSI 141320Z 05003KT 7000 OVC015 M02/M05 Q1011 WHT WHT TEMPO GRN;
0229108600999992013011414004+48717+011533FM-12+0365ETSI V0209999V001010045019N0070001N1-00141-00491101341ADDAY121999AY221999GA1081+004501061GF108991081051004501999999MA1999999096821MD1510101+9999MW1051REMSYN124AAXX  14141 10860 41457 89901 11014 21049 39682 40134 55010 70522 885// 333 88615 555 BOT 10006 20010 30017 40036 999 42///;
0140108600999992013011414204+48717+011533FM-15+0365ETSI V0201001N001510045019N0070001N1-00201-00501999999ADDGA1081+004501999GF108991999999999999999999MA1101081999999REMMET071METAR ETSI 141420Z 10003KT 7000 OVC015 M02/M05 Q1011 WHT WHT TEMPO GRN;
0140108600999992013011415034+48717+011533FM-16+0365ETSI V0203501N001510042019N0070001N1-00201-00401999999ADDGA1081+004201999GF108991999999999999999999MA1101081999999REMMET071SPECI ETSI 141503Z 35003KT 7000 OVC014 M02/M04 Q1011 GRN WHT TEMPO GRN;
0140108600999992013011415204+48717+011533FM-15+0365ETSI V0203101N001510042019N0070001N1-00201-00401999999ADDGA1081+004201999GF108991999999999999999999MA1101081999999REMMET071METAR ETSI 141520Z 31003KT 7000 OVC014 M02/M04 Q1011 GRN WHT TEMPO GRN;
0187108600999992013011416004+48717+011533FM-12+0365ETSI V0203001N002010042019N0070001N1-00171-00441101401ADDAY171999AY221999GA1081+004201061GF108991081051004501999999MA1999999096871MD1210061+9999MW1781REMSYN082AAXX  14161 10860 41457 83002 11017 21044 39687 40140 52006 77872 885// 333 88614;
0140108600999992013011416204+48717+011533FM-15+0365ETSI V0202501N002610042019N0060001N1-00201-00401999999ADDGA1081+004201999GF108991999999999999999999MA1101081999999REMMET071METAR ETSI 141620Z 25005KT 6000 OVC014 M02/M04 Q1011 GRN WHT TEMPO GRN;
0187108600999992013011417004+48717+011533FM-12+0365ETSI V0202601N003010039019N0060001N1-00171-00441101431ADDAY121999AY221999GA1081+003901061GF108991081051004501999999MA1999999096901MD1210081+9999MW1221REMSYN082AAXX  14171 10860 41456 82603 11017 21044 39690 40143 52008 72222 885// 333 88613;
0138108600999992013011417204+48717+011533FM-15+0365ETSI V0202301N001510036019N0060001N1-00201-00401999999ADDGA1081+003601999GF108991999999999999999999MA1101191999999REMMET069METAR ETSI 141720Z 23003KT 6000 OVC012 M02/M04 Q1012 GRN FCST CANCEL;
0172108600999992013011417424+48717+011533FM-16+0365ETSI V0202201N00101004801CN0060001N1-00201-00401999999ADDGA1041+003601999GA2041+004801999GA3071+009001999GF107991999999999999999999MA1101191999999REMMET071SPECI ETSI 141742Z 22002KT 6000 SCT012 SCT016 BKN030 M02/M04 Q1012 WHT;
0126108600999992013011418204+48717+011533FM-15+0365ETSI V0209999V001010054019N0060001N1-00201-00401999999ADDGA1071+005401999GF107991999999999999999999MA1101191999999REMMET057METAR ETSI 141820Z VRB02KT 6000 BKN018 M02/M04 Q1012 WHT;
0149108600999992013011419204+48717+011533FM-15+0365ETSI V0202401N001510090019N0060001N1-00201-00401999999ADDGA1041+005401999GA2071+009001999GF107991999999999999999999MA1101191999999REMMET064METAR ETSI 141920Z 24003KT 6000 SCT018 BKN030 M02/M04 Q1012 WHT;
0127108600999992013011504204+48717+011533FM-15+0365ETSI V0200701N002112200019N0080001N1-00601-00701999999ADDGA1021+066001999GF102991999999999999999999MA1100811999999REMMET058METAR ETSI 150420Z 07004KT 8000 FEW220 M06/M07 Q1008 BLU/;
0187108600999992013011505004+48717+011533FM-12+0365ETSI V0200901N003012200019N0060001N1-00611-00671101121ADDAY101999AY201999GA1031+066001001GF103991001001999999001011MA1999999096531MD1710251+9999MW1101REMSYN082AAXX  15051 10860 41956 30903 11061 21067 39653 40112 57025 71000 80001 333 83072;
0149108600999992013011505204+48717+011533FM-15+0365ETSI V0200801N002112200019N0045001N1-00601-00601999999ADDGA1041+066001999GF104991999999999999999999MA1100711999999MW1101REMMET074METAR ETSI 150520Z 08004KT 4500 BR SCT220 M06/M06 Q1007 GRN GRN TEMPO YLO;
0165108600999992013011506194+48717+011533FM-16+0365ETSI V0201101N00151001201CN0045001N1-00501-00601999999ADDGA1071+001201999GA2041+066001999MA1100711999999MW1101REMMET081SPECI ETSI 150619Z 11003KT 4500 BR BKN004 SCT220 M05/M06 Q1007 YLO GRN TEMPO YLO;EQDQ01+000042SCOTCV
0165108600999992013011506204+48717+011533FM-15+0365ETSI V0201101N00151001201CN0045001N1-00501-00601999999ADDGA1071+001201999GA2041+066001999MA1100711999999MW1101REMMET081METAR ETSI 150620Z 11003KT 4500 BR BKN004 SCT220 M05/M06 Q1007 YLO GRN TEMPO YLO;EQDQ01+000042SCOTCV
0149108600999992013011506444+48717+011533FM-16+0365ETSI V0201301N002610009019N0025001N1-00501-00601999999ADDGA1081+000901999GF108991999999999999999999MA1100711999999MW1101REMMET074SPECI ETSI 150644Z 13005KT 2500 BR OVC003 M05/M06 Q1007 YLO GRN TEMPO YLO;
0187108600999992013011507004+48717+011533FM-12+0365ETSI V0201201N002010009019N0025001N1-00471-00551101011ADDAY111999AY211999GA1081+000901071GF108991081061000751999999MA1999999096451MD1610161+9999MW1101REMSYN082AAXX  15071 10860 41125 81202 11047 21055 39645 40101 56016 71011 886// 333 88703;
0149108600999992013011507204+48717+011533FM-15+0365ETSI V0201001N002610012019N0028001N1-00401-00501999999ADDGA1081+001201999GF108991999999999999999999MA1100711999999MW1101REMMET074METAR ETSI 150720Z 10005KT 2800 BR OVC004 M04/M05 Q1007 YLO GRN TEMPO YLO;
0149108600999992013011507364+48717+011533FM-16+0365ETSI V0200901N002110018019N0030001N1-00401-00401999999ADDGA1081+001801999GF108991999999999999999999MA1100711999999MW1101REMMET074SPECI ETSI 150736Z 09004KT 3000 BR OVC006 M04/M04 Q1007 YLO GRN TEMPO YLO;
0187108600999992013011508004+48717+011533FM-12+0365ETSI V0200701N003010018019N0030001N1-00371-00471100961ADDAY121999AY221999GA1071+001801071GF107991071061001501999999MA1999999096411MD1710121+9999MW1101REMSYN082AAXX  15081 10860 41230 70703 11037 21047 39641 40096 57012 71022 876// 333 87706;
0149108600999992013011508204+48717+011533FM-15+0365ETSI V0200601N002110018019N0030001N1-00301-00501999999ADDGA1071+001801999GF107991999999999999999999MA1100711999999MW1101REMMET074METAR ETSI 150820Z 06004KT 3000 BR BKN006 M03/M05 Q1007 YLO GRN TEMPO YLO;
0149108600999992013011508484+48717+011533FM-16+0365ETSI V0200901N002110021019N0037001N1-00301-00501999999ADDGA1071+002101999GF107991999999999999999999MA1100611999999MW1101REMMET074SPECI ETSI 150848Z 09004KT 3700 BR BKN007 M03/M05 Q1006 GRN GRN TEMPO YLO;
0149108600999992013011509204+48717+011533FM-15+0365ETSI V0200901N002610024019N0045001N1-00301-00401999999ADDGA1071+002401999GF107991999999999999999999MA1100611999999MW1101REMMET074METAR ETSI 150920Z 09005KT 4500 BR BKN008 M03/M04 Q1006 GRN GRN TEMPO YLO;
0193108600999992013011510004+48717+011533FM-12+0365ETSI V0201401N002012200019N0060001N1-00301-00511100881ADDAY111999AY211999GA1011+001501071GF104991041061001501001001MA1999999096351MD1610101+9999MW1101REMSYN088AAXX  15101 10860 41256 41402 11030 21051 39635 40088 56010 71011 84600 333 81705 83608;
0153108600999992013011510144+48717+011533FM-16+0365ETSI V0201201N002112200019N0060001N1-00301-00501999999ADDGA1021+001501999GA2041+002401999GF104991999999999999999999MA1100511999999REMMET068SPECI ETSI 151014Z 12004KT 6000 FEW005 SCT008 M03/M05 Q1005 WHT WHT;
0153108600999992013011510204+48717+011533FM-15+0365ETSI V0201401N002112200019N0060001N1-00301-00501999999ADDGA1021+001501999GA2041+002701999GF104991999999999999999999MA1100511999999REMMET068METAR ETSI 151020Z 14004KT 6000 FEW005 SCT009 M03/M05 Q1005 WHT WHT;
0131108600999992013011510374+48717+011533FM-16+0365ETSI V0201401N002112200019N0080001N1-00301-00501999999ADDGA1021+002401999GF102991999999999999999999MA1100511999999REMMET062SPECI ETSI 151037Z 14004KT 8000 FEW008 M03/M05 Q1005 BLU/BLU/;
0159108600999992013011511004+48717+011533FM-12+0365ETSI V0201701N002012200019N0080001N1-00271-00521100791ADDGA1021+002701081GF104991021011002501031011MA1999999096271MD1710141+9999REMSYN076AAXX  15111 10860 42358 41702 11027 21052 39627 40079 57014 82131 333 82809;
0154108600999992013011511204+48717+011533FM-15+0365ETSI V0201601N001512200019N0080001N1-00201-00501999999ADDGA1021+003001999GA2041+009001999GF104991999999999999999999MA1100511999999REMMET069METAR ETSI 151120Z 16003KT 8000 FEW010 SCT030 M02/M05 Q1005 BLU/BLU/;
0164108600999992013011511354+48717+011533FM-16+0365ETSI V0201401N001510084019N0080001N1-00201-00501999999ADDGA1021+003001999GA2071+008401999GF107991999999999999999999MA1100511999999REMMET079SPECI ETSI 151135Z 14003KT 8000 FEW010 BKN028 M02/M05 Q1005 BLU BLU TEMPO BLU/;
0164108600999992013011512064+48717+011533FM-16+0365ETSI V0201501N002110036019N0080001N1-00201-00501999999ADDGA1071+003601999GA2071+008401999GF107991999999999999999999MA1100411999999REMMET079SPECI ETSI 151206Z 15004KT 8000 BKN012 BKN028 M02/M05 Q1004 GRN GRN TEMPO BLU/;
0186108600999992013011512204+48717+011533FM-15+0365ETSI V0201701N002110033019N0080001N1-00201-00501999999ADDGA1071+003301999GA2041+004501999GA3071+008401999GF107991999999999999999999MA1100411999999REMMET085METAR ETSI 151220Z 17004KT 8000 BKN011 SCT015 BKN028 M02/M05 Q1004 GRN GRN BECMG BLU;
0163108600999992013011512544+48717+011533FM-16+0365ETSI V0202001N002110066019N0090001N1-00201-00501999999ADDGA1041+003901999GA2071+006601999GF107991999999999999999999MA1100411999999REMMET078SPECI ETSI 151254Z 20004KT 9000 SCT013 BKN022 M02/M05 Q1004 WHT WHT BECMG BLU;
0165108600999992013011513004+48717+011533FM-12+0365ETSI V0202001N002010039019N0090001N1-00191-00481100681ADDGA1051+003901081GF107991071081004501999999MA1999999096181MD1710171+9999REMSYN082AAXX  15131 10860 42459 72002 11019 21048 39618 40068 57017 878// 333 85813 87623;
0163108600999992013011513054+48717+011533FM-16+0365ETSI V0203601N001510039019N0090001N1-00201-00501999999ADDGA1071+003901999GA2071+006601999GF107991999999999999999999MA1100411999999REMMET078SPECI ETSI 151305Z 36003KT 9000 BKN013 BKN022 M02/M05 Q1004 GRN WHT TEMPO GRN;
0186108600999992013011513204+48717+011533FM-15+0365ETSI V0202301N002110066019N0090001N1-00201-00501999999ADDGA1041+004201999GA2071+006601999GA3071+030001999GF107991999999999999999999MA1100411999999REMMET085METAR ETSI 151320Z 23004KT 9000 SCT014 BKN022 BKN100 M02/M05 Q1004 WHT WHT TEMPO GRN;
0165108600999992013011514004+48717+011533FM-12+0365ETSI V0202601N00101009001CN0090001N1-00131-00471100711ADDGA1021+004201081GF107991071081004501999999MA1999999096221MD1510051+9999REMSYN082AAXX  15141 10860 42459 72601 11013 21047 39622 40071 55005 878// 333 82814 87620;
0163108600999992013011514204+48717+011533FM-15+0365ETSI V0201801N001510060019N0090001N1-00201-00501999999ADDGA1021+004201999GA2071+006001999GF107991999999999999999999MA1100511999999REMMET078METAR ETSI 151420Z 18003KT 9000 FEW014 BKN020 M02/M05 Q1005 WHT WHT TEMPO GRN;
0140108600999992013011515204+48717+011533FM-15+0365ETSI V0201401N001510054019N0112651N1-00201-00501999999ADDGA1071+005401999GF107991999999999999999999MA1100511999999REMMET071METAR ETSI 151520Z 14003KT 9999 BKN018 M02/M05 Q1005 WHT WHT BECMG GRN;
0159108600999992013011516004+48717+011533FM-12+0365ETSI V0202001N002010045019N0120001N1-00161-00491100771ADDGA1071+004501061GF107991071051004501999999MA1999999096271MD1210091+9999REMSYN076AAXX  15161 10860 42462 72002 11016 21049 39627 40077 52009 875// 333 87615;
0130108600999992013011516204+48717+011533FM-15+0365ETSI V0202101N001510042019N0112651N1-00201-00501999999ADDGA1071+004201999GF107991999999999999999999MA1100511999999REMMET061METAR ETSI 151620Z 21003KT 9999 BKN014 M02/M05 Q1005 GRN GRN;
0159108600999992013011517004+48717+011533FM-12+0365ETSI V0202901N002010042019N0120001N1-00161-00451100791ADDGA1071+004201061GF107991071051004501999999MA1999999096291MD1210071+9999REMSYN076AAXX  15171 10860 42462 72902 11016 21045 39629 40079 52007 875// 333 87614;
0130108600999992013011517204+48717+011533FM-15+0365ETSI V0202301N001510042019N0112651N1-00201-00501999999ADDGA1071+004201999GF107991999999999999999999MA1100511999999REMMET061METAR ETSI 151720Z 23003KT 9999 BKN014 M02/M05 Q1005 GRN GRN;
0138108600999992013011518004+48717+011533FM-15+0365ETSI V0201801N001510042019N0112651N1-00201-00401999999ADDGA1071+004201999GF107991999999999999999999MA1100511999999REMMET069SPECI ETSI 151756Z 18003KT 9999 BKN014 M02/M04 Q1005 GRN FCST CANCEL;
0126108600999992013011518204+48717+011533FM-15+0365ETSI V0201401N001510042019N0112651N1-00201-00401999999ADDGA1071+004201999GF107991999999999999999999MA1100611999999REMMET057METAR ETSI 151820Z 14003KT 9999 BKN014 M02/M04 Q1006 GRN;
0158108600999992013011604204+48717+011533FM-15+0365ETSI V0209999V001010036019N0025001N1-00301-00301999999ADDGA1021+001201999GA2071+003601999GF107991999999999999999999MA1100511999999MW1101REMMET067METAR ETSI 160420Z VRB02KT 2500 BR FEW004 BKN012 M03/M03 Q1005 YLO;
0185108600999992013011605004+48717+011533FM-12+0365ETSI V0209999V00101001201CN0025001N1-00281-00331100771ADDAY121999GA1031+001201071GF108991071051001501999999MA1999999096251MD1710091+9999MW1101REMSYN088AAXX  16051 10860 41225 89901 11028 21033 39625 40077 57009 7102/ 875// 333 83704 87612;
0216108600999992013011605204+48717+011533FM-15+0365ETSI V0200801N001010015019N0018001N1-00301-00301999999ADDED125U50009GA1021+000601999GA2071+001501999GA3071+006601999GF107991999999999999999999MA1100511999999MW1101REMMET098METAR ETSI 160520Z 08002KT 1800 R25/5000U BR FEW002 BKN005 BKN022 M03/M03 Q1005 YLO YLO TEMPO AMB;
0172108600999992013011606204+48717+011533FM-15+0365ETSI V0209999V001010015019N0020001N1-00301-00301999999ADDGA1041+000901999GA2071+001501999GF107991999999999999999999MA1100511999999MW1101REMMET081METAR ETSI 160620Z VRB02KT 2000 BR SCT003 BKN005 M03/M03 Q1005 YLO YLO TEMPO AMB;
0215108600999992013011607004+48717+011533FM-12+0365ETSI V0209999V001010012019N0020001N1-00341-00341100801ADDAY121999AY221999GA1051+001201071GA2051+003301061GF107991071061001501031999MA1999999096271MD1310011+9999MW1101REMSYN094AAXX  16071 10860 41220 79901 11034 21034 39627 40080 53001 71022 8763/ 333 85704 85611 87361;
0195108600999992013011607204+48717+011533FM-15+0365ETSI V0200801N001510144019N0020001N1-00301-00401999999ADDGA1041+001201999GA2071+014401999GA3071+033001999GF107991999999999999999999MA1100511999999MW1101REMMET088METAR ETSI 160720Z 08003KT 2000 BR SCT004 BKN048 BKN110 M03/M04 Q1005 YLO YLO TEMPO AMB;
0149108600999992013011607404+48717+011533FM-16+0365ETSI V0201201N001010012019N0020001N1-00401-00401999999ADDGA1071+001201999GF107991999999999999999999MA1100511999999MW1101REMMET074SPECI ETSI 160740Z 12002KT 2000 BR BKN004 M04/M04 Q1005 YLO YLO TEMPO AMB;
0187108600999992013011608004+48717+011533FM-12+0365ETSI V0201601N001010012019N0020001N1-00361-00411100831ADDAY121999AY221999GA1081+001201071GF108991081061001501999999MA1999999096291MD1310041+9999MW1101REMSYN082AAXX  16081 10860 41220 81601 11036 21041 39629 40083 53004 71022 886// 333 88704;
0139108600999992013011608204+48717+011533FM-15+0365ETSI V0201301N001010012019N0020001N1-00301-00401999999ADDGA1081+001201999GF108991999999999999999999MA1100511999999MW1101REMMET064METAR ETSI 160820Z 13002KT 2000 BR OVC004 M03/M04 Q1005 YLO YLO;
0170108600999992013011609004+48717+011533FM-16+0365ETSI V0201001N001510009019N0015001N1-00301-00301999999ADDED125U27009GA1081+000901999GF108991999999999999999999MA1100511999999MW1101REMMET084SPECI ETSI 160900Z 10003KT 1500 R25/2700U BR OVC003 M03/M03 Q1005 AMB AMB BECMG YLO;
0182108600999992013011609114+48717+011533FM-16+0365ETSI V0201401N001010009019N0007001N1-00301-00301999999ADDED125U34009GA1081+000901999GF108991999999999999999999MA1100611999999MW1481MW2711REMMET090SPECI ETSI 160911Z 14002KT 0700 R25/3400D -SN FZFG OVC003 M03/M03 Q1006 RED RED BECMG YLO;
0182108600999992013011609204+48717+011533FM-15+0365ETSI V0201401N001510012019N0008001N1-00301-00301999999ADDED125U36009GA1081+001201999GF108991999999999999999999MA1100611999999MW1481MW2711REMMET090METAR ETSI 160920Z 14003KT 0800 R25/3600N -SN FZFG OVC004 M03/M03 Q1006 AMB AMB BECMG YLO;
0187108600999992013011610004+48717+011533FM-12+0365ETSI V0201101N002010009019N0008001N1-00271-00321100841ADDAY171999AY241999GA1081+000901071GF108991081061000751999999MA1999999096321MD1210051+9999MW1711REMSYN082AAXX  16101 10860 41108 81102 11027 21032 39632 40084 52005 77174 886// 333 88703;
0170108600999992013011610204+48717+011533FM-15+0365ETSI V0201101N001510012019N0016001N1-00201-00301999999ADDED125U25009GA1081+001201999GF108991999999999999999999MA1100611999999MW1101MW2711REMMET078METAR ETSI 161020Z 11003KT 1600 R25/2500D -SN BR OVC004 M02/M03 Q1006 YLO YLO;
0187108600999992013011611004+48717+011533FM-12+0365ETSI V0201301N002010015019N0016001N1-00201-00291100781ADDAY171999AY271999GA1071+001501061GF108991071051001501999999MA1999999096271MD1810021+9999MW1731REMSYN082AAXX  16111 10860 41216 81302 11020 21029 39627 40078 58002 77377 875// 333 87605;
0179108600999992013011611104+48717+011533FM-16+0365ETSI V0201201N002110015019N0012001N1-00201-00301999999ADDED125U18009GA1071+001501999GF107991999999999999999999MA1100511999999MW1101MW2731REMMET087SPECI ETSI 161110Z 12004KT 1200 R25/1800D SN BR BKN005 M02/M03 Q1005 AMB YLO TEMPO AMB;
0202108600999992013011611204+48717+011533FM-15+0365ETSI V0200801N001510015019N0015001N1-00201-00301999999ADDED125U20009GA1071+001501999GA2071+007501999GF107991999999999999999999MA1100511999999MW1101MW2731REMMET094METAR ETSI 161120Z 08003KT 1500 R25/2000N SN BR BKN005 BKN025 M02/M03 Q1005 AMB YLO TEMPO AMB;
0208108600999992013011611284+48717+011533FM-16+0365ETSI V0200701N001010018019N0017001N1-00101-00301999999ADDED125U21009GA1071+001801999GA2071+007201999GF107991999999999999999999MA1100511999999MW1101MW2711REMMET100SPECI ETSI 161128Z 07002KT 1700 R25/2100N -SN BR BKN006 BKN024 M01/M03 Q1005 RESN YLO YLO TEMPO AMB;
0187108600999992013011611354+48717+011533FM-16+0365ETSI V0200301N001010063019N0020001N1-00101-00301999999ADDGA1041+001801999GA2071+006301999GF107991999999999999999999MA1100511999999MW1101MW2711REMMET090SPECI ETSI 161135Z 03002KT 2000 -SN BR SCT006 BKN021 M01/M03 Q1005 RESN YLO YLO TEMPO AMB;
0164108600999992013011612204+48717+011533FM-15+0365ETSI V0203501N001010018019N0030001N1-00101-00301999999ADDGA1071+001801999GF107991999999999999999999MA1100411999999MW1101MW2711REMMET083METAR ETSI 161220Z 35002KT 3000 -SN BR BKN006 M01/M03 Q1004 RESN YLO YLO TEMPO AMB;
0193108600999992013011613004+48717+011533FM-12+0365ETSI V0200601N00201001201CN0033001N1-00101-00291100661ADDAY171011AY271011GA1011+001501071GF108991081051001501999999MA1999999096171MD1710151+9999MW1711REMSYN088AAXX  16131 10860 41233 80602 11010 21029 39617 40066 57015 77177 885// 333 81705 88609;
0159108600999992013011613204+48717+011533FM-15+0365ETSI V0200401N002610015019N0025001N1-00101-00301999999ADDGA1081+001501999GF108991999999999999999999MA1100411999999MW1101MW2711REMMET078METAR ETSI 161320Z 04005KT 2500 -SN BR OVC005 M01/M03 Q1004 YLO YLO TEMPO AMB;
0182108600999992013011613404+48717+011533FM-16+0365ETSI V0200401N002610030019N0020001N1-00201-00301999999ADDGA1021+001501999GA2081+003001999GF108991999999999999999999MA1100411999999MW1101MW2711REMMET085SPECI ETSI 161340Z 04005KT 2000 -SN BR FEW005 OVC010 M02/M03 Q1004 YLO YLO TEMPO AMB;
0193108600999992013011614004+48717+011533FM-12+0365ETSI V0200401N00301001201CN0025001N1-00161-00281100661ADDAY171999AY271999GA1011+001501071GF108991081051001501999999MA1999999096161MD1610111+9999MW1711REMSYN088AAXX  16141 10860 41225 80403 11016 21028 39616 40066 56011 77177 885// 333 81705 88610;
0182108600999992013011614204+48717+011533FM-15+0365ETSI V0200301N001510030019N0025001N1-00101-00301999999ADDGA1041+001501999GA2081+003001999GF108991999999999999999999MA1100411999999MW1101MW2711REMMET085METAR ETSI 161420Z 03003KT 2500 -SN BR SCT005 OVC010 M01/M03 Q1004 YLO YLO TEMPO AMB;
0182108600999992013011614514+48717+011533FM-16+0365ETSI V0203401N001510015019N0025001N1-00201-00301999999ADDGA1071+001501999GA2081+003301999GF108991999999999999999999MA1100411999999MW1101MW2711REMMET085SPECI ETSI 161451Z 34003KT 2500 -SN BR BKN005 OVC011 M02/M03 Q1004 YLO YLO TEMPO AMB;
0180108600999992013011615004+48717+011533FM-16+0365ETSI V0200101N001510015019N0020001N1-00201-00301999999ADDGA1071+001501999GA2081+003001999GF108991999999999999999999MA1100411999999MW1101MW2711REMMET083SPECI ETSI 161500Z 01003KT 2000 -SN BR BKN005 OVC010 M02/M03 Q1004 YLO FCST CANCEL;
0166108600999992013011615204+48717+011533FM-15+0365ETSI V0200301N001010012019N0014001N1-00201-00301999999ADDED125U26009GA1081+001201999GF108991999999999999999999MA1100411999999MW1101MW2711REMMET074METAR ETSI 161520Z 03002KT 1400 R25/2600U -SN BR OVC004 M02/M03 Q1004 AMB;
0189108600999992013011615384+48717+011533FM-16+0365ETSI V0200101N001010012019N0018001N1-00201-00301999999ADDED125U36009GA1071+001201999GA2081+003301999GF108991999999999999999999MA1100411999999MW1101MW2711REMMET081SPECI ETSI 161538Z 01002KT 1800 R25/3600U -SN BR BKN004 OVC011 M02/M03 Q1004 YLO;
0193108600999992013011616004+48717+011533FM-12+0365ETSI V0203101N001010012019N0018001N1-00181-00261100691ADDAY171011AY271011GA1061+001201071GF108991081051001501999999MA1999999096191MD1310021+9999MW1711REMSYN088AAXX  16161 10860 41218 83101 11018 21026 39619 40069 53002 77177 885// 333 86704 88608;
0189108600999992013011616204+48717+011533FM-15+0365ETSI V0202801N001510021019N0018001N1-00201-00301999999ADDED125U38009GA1021+001201999GA2081+002101999GF108991999999999999999999MA1100411999999MW1101MW2711REMMET081METAR ETSI 161620Z 28003KT 1800 R25/3800N -SN BR FEW004 OVC007 M02/M03 Q1004 YLO;
0193108600999992013011617004+48717+011533FM-12+0365ETSI V0202901N00201001201CN0020001N1-00211-00281100721ADDAY171051AY271051GA1031+001201071GF108991081051001501999999MA1999999096211MD1210051+9999MW1711REMSYN088AAXX  16171 10860 41220 82902 11021 21028 39621 40072 52005 77177 885// 333 83704 88611;
0168108600999992013011617204+48717+011533FM-15+0365ETSI V0202901N002110015019N0020001N1-00201-00301999999ADDGA1071+001501999GA2081+003301999GF108991999999999999999999MA1100511999999MW1101MW2711REMMET071METAR ETSI 161720Z 29004KT 2000 -SN BR BKN005 OVC011 M02/M03 Q1005 YLO;
0165108600999992013011617474+48717+011533FM-16+0365ETSI V0203001N002610012019N0014001N1-00201-00301999999ADDED125U20009GA1081+001201999GF108991999999999999999999MA1100511999999MW1101MW2731REMMET073SPECI ETSI 161747Z 30005KT 1400 R25/2000N SN BR OVC004 M02/M03 Q1005 AMB;
0194108600999992013011618044+48717+011533FM-16+0365ETSI V0202901N002610012019N0016001N1-00301-00301999999ADDED125U24009GA1071+001201999GA2081+003301999GF108991999999999999999999MA1100511999999MW1101MW2711REMMET086SPECI ETSI 161804Z 29005KT 1600 R25/2400U -SN BR BKN004 OVC011 M03/M03 Q1005 RESN YLO;
0194108600999992013011618204+48717+011533FM-15+0365ETSI V0203001N002110012019N0016001N1-00301-00301999999ADDED125U31009GA1071+001201999GA2081+003301999GF108991999999999999999999MA1100511999999MW1101MW2711REMMET086METAR ETSI 161820Z 30004KT 1600 R25/3100U -SN BR BKN004 OVC011 M03/M03 Q1005 RESN YLO;
0202108600999992013011704204+48717+011533FM-15+0365ETSI V0203201N002610042019N0018001N1-00401-00401999999ADDED125U33009GA1021+001801999GA2071+004201999GA3071+006001999GF107991999999999999999999MA1100611999999MW1731REMMET084METAR ETSI 170420Z 32005KT 1800 R25/3300N SN FEW006 BKN014 BKN020 M04/M04 Q1006 YLO;
0207108600999992013011705004+48717+011533FM-12+0365ETSI V0203201N002010042019N0019001N1-00371-00451100941ADDAY171999GA1011+002101071GA2051+004201071GF108991071051002501999999MA1999999096401MD1310061+9999MW1731REMSYN094AAXX  17051 10860 41319 83202 11037 21045 39640 40094 53006 7737/ 875// 333 81707 85714 87618;
0216108600999992013011705204+48717+011533FM-15+0365ETSI V0203101N002110036019N0019001N1-00401-00501999999ADDED125U36009GA1041+002101999GA2071+003601999GA3071+005401999GF107991999999999999999999MA1100711999999MW1731REMMET098METAR ETSI 170520Z 31004KT 1900 R25/3600U SN SCT007 BKN012 BKN018 M04/M05 Q1007 YLO YLO TEMPO AMB;
0230108600999992013011706204+48717+011533FM-15+0365ETSI V0203201N002110027019N0016001N1-00401-00501999999ADDED125U24009GA1041+001201999GA2071+002701999GA3071+004801999GF107991999999999999999999MA1100711999999MW1101MW2731REMMET106METAR ETSI 170620Z 32004KT 1600 R25/2400N SN BR SCT004 BKN009 BKN016 M04/M05 Q1007 BLACKYLO YLO TEMPO AMB;
0230108600999992013011706384+48717+011533FM-16+0365ETSI V0203201N002610012019N0012001N1-00401-00501999999ADDED125U21009GA1071+001201999GA2071+002701999GA3071+004801999GF107991999999999999999999MA1100711999999MW1101MW2731REMMET106SPECI ETSI 170638Z 32005KT 1200 R25/2100N SN BR BKN004 BKN009 BKN016 M04/M05 Q1007 BLACKAMB YLO TEMPO AMB;
0215108600999992013011707004+48717+011533FM-12+0365ETSI V0203201N003010012019N0012001N1-00421-00511101031ADDAY171999AY271999GA1051+001201071GA2051+002701071GF108991081051001501999999MA1999999096471MD1210091+9999MW1731REMSYN094AAXX  17071 10860 41212 83203 11042 21051 39647 40103 52009 77377 885// 333 85704 85709 87618;
0230108600999992013011707024+48717+011533FM-16+0365ETSI V0203201N002610027019N0016001N1-00401-00501999999ADDED125U29009GA1041+001201999GA2071+002701999GA3071+005401999GF107991999999999999999999MA1100711999999MW1101MW2731REMMET106SPECI ETSI 170702Z 32005KT 1600 R25/2900U SN BR SCT004 BKN009 BKN018 M04/M05 Q1007 BLACKYLO YLO TEMPO AMB;
0230108600999992013011707174+48717+011533FM-16+0365ETSI V0203101N002110027019N0013001N1-00401-00501999999ADDED125U20009GA1041+001201999GA2071+002701999GA3071+005401999GF107991999999999999999999MA1100811999999MW1101MW2731REMMET106SPECI ETSI 170717Z 31004KT 1300 R25/2000D SN BR SCT004 BKN009 BKN018 M04/M05 Q1008 BLACKAMB YLO TEMPO AMB;
0230108600999992013011707204+48717+011533FM-15+0365ETSI V0203101N002110027019N0012001N1-00401-00501999999ADDED125U19009GA1041+001201999GA2071+002701999GA3071+005401999GF107991999999999999999999MA1100811999999MW1101MW2731REMMET106METAR ETSI 170720Z 31004KT 1200 R25/1900D SN BR SCT004 BKN009 BKN018 M04/M05 Q1008 BLACKAMB YLO TEMPO AMB;
0230108600999992013011707314+48717+011533FM-16+0365ETSI V0203001N002610012019N0010001N1-00401-00501999999ADDED125U16009GA1071+001201999GA2071+002701999GA3071+005401999GF107991999999999999999999MA1100811999999MW1101MW2731REMMET106SPECI ETSI 170731Z 30005KT 1000 R25/1600D SN BR BKN004 BKN009 BKN018 M04/M05 Q1008 BLACKAMB YLO TEMPO AMB;
0215108600999992013011708004+48717+011533FM-12+0365ETSI V0203001N003010012019N0010001N1-00421-00501101131ADDAY171999AY271999GA1051+001201071GA2051+002701071GF108991081051001501999999MA1999999096571MD1210171+9999MW1731REMSYN094AAXX  17081 10860 41210 83003 11042 21050 39657 40113 52017 77377 885// 333 85704 85709 87618;
0207108600999992013011708204+48717+011533FM-15+0365ETSI V0202901N002110012019N0011001N1-00401-00501999999ADDED125U14009GA1071+001201999GA2071+003001999GF107991999999999999999999MA1100811999999MW1101MW2731REMMET099METAR ETSI 170820Z 29004KT 1100 R25/1400N SN BR BKN004 BKN010 M04/M05 Q1008 BLACKAMB YLO TEMPO AMB;
0207108600999992013011709204+48717+011533FM-15+0365ETSI V0203101N002110012019N0012001N1-00401-00501999999ADDED125U14009GA1071+001201999GA2071+002401999GF107991999999999999999999MA1100911999999MW1101MW2731REMMET099METAR ETSI 170920Z 31004KT 1200 R25/1400D SN BR BKN004 BKN008 M04/M05 Q1009 BLACKAMB YLO TEMPO AMB;
0230108600999992013011709404+48717+011533FM-16+0365ETSI V0203101N002110024019N0014001N1-00401-00501999999ADDED125U15009GA1041+001201999GA2071+002401999GA3071+006001999GF107991999999999999999999MA1100911999999MW1101MW2731REMMET106SPECI ETSI 170940Z 31004KT 1400 R25/1500N SN BR SCT004 BKN008 BKN020 M04/M05 Q1009 BLACKAMB YLO TEMPO AMB;
0215108600999992013011710004+48717+011533FM-12+0365ETSI V0203101N003010024019N0014001N1-00401-00521101181ADDAY171999AY271999GA1031+001201071GA2061+002401071GF108991061061001501021999MA1999999096621MD1210151+9999MW1731REMSYN094AAXX  17101 10860 41214 83103 11040 21052 39662 40118 52015 77377 8662/ 333 83704 86708 88520;
0230108600999992013011710204+48717+011533FM-15+0365ETSI V0203001N002110024019N0011001N1-00401-00501999999ADDED125U12009GA1041+001201999GA2071+002401999GA3081+006001999GF108991999999999999999999MA1100911999999MW1101MW2731REMMET106METAR ETSI 171020Z 30004KT 1100 R25/1200N SN BR SCT004 BKN008 OVC020 M04/M05 Q1009 BLACKAMB YLO TEMPO AMB;
0225108600999992013011710214+48717+011533FM-16+0365ETSI V0203001N002110024019N0011001N1-00401-00501999999ADDED125U12009GA1041+001201999GA2071+002401999GA3081+006001999GF108991999999999999999999MA1100911999999MW1101MW2731REMMET101SPECI ETSI 171021Z 30004KT 1100 R25/1200N SN BR SCT004 BKN008 OVC020 M04/M05 Q1009 AMB YLO TEMPO AMB;
0215108600999992013011711004+48717+011533FM-12+0365ETSI V0203001N003010024019N0011001N1-00371-00491101151ADDAY171999AY271999GA1031+001201071GA2051+002401061GF108991061051001501021999MA1999999096601MD1010031+9999MW1711REMSYN094AAXX  17111 10860 41211 83003 11037 21049 39660 40115 50003 77177 8652/ 333 83704 85608 88520;
0192108600999992013011711204+48717+011533FM-15+0365ETSI V0203001N002610036019N0011001N1-00301-00501999999ADDGA1041+001201999GA2081+003601999GF108991999999999999999999MA1100811999999MW1101MW2711REMMET095METAR ETSI 171120Z 30005KT 1100 -SN BR SCT004 OVC012 M03/M05 Q1008 RESN BLACKAMB YLO TEMPO AMB;
0187108600999992013011712204+48717+011533FM-15+0365ETSI V0202901N002610054019N0011001N1-00301-00501999999ADDGA1041+001201999GA2081+005401999GF108991999999999999999999MA1100811999999MW1101MW2711REMMET090METAR ETSI 171220Z 29005KT 1100 -SN BR SCT004 OVC018 M03/M05 Q1008 BLACKAMB YLO TEMPO AMB;
0193108600999992013011713004+48717+011533FM-12+0365ETSI V0203001N00301036001CN0011001N1-00321-00451101121ADDAY171999AY271999GA1031+001201071GF108991031061001501021999MA1999999096581MD1610041+9999MW1711REMSYN088AAXX  17131 10860 41211 83003 11032 21045 39658 40112 56004 77177 8362/ 333 83704 88518;
0186108600999992013011713204+48717+011533FM-15+0365ETSI V0203001N002110054019N0010001N1-00301-00401999999ADDGA1041+001201999GA2081+005401999GF108991999999999999999999MA1100811999999MW1101MW2731REMMET089METAR ETSI 171320Z 30004KT 1000 SN BR SCT004 OVC018 M03/M04 Q1008 BLACKAMB YLO TEMPO AMB;
0251108600999992013011714004+48717+011533FM-12+0365ETSI V0203001N002010054019N0010001N1-00321-00431101151ADDAY171999AY271999GA1031+001801071GA2081+005401051GF108991031071001501021999MA1999999096601MD1510001+9999MW1711REMSYN130AAXX  17141 10860 41210 83002 11032 21043 39660 40115 55000 77177 8372/ 333 83706 88518 555 BOT 10004 20007 30013 40031 999 47///;
0192108600999992013011714204+48717+011533FM-15+0365ETSI V0203001N002110054019N0010001N1-00301-00401999999ADDGA1041+001801999GA2081+005401999GF108991999999999999999999MA1100911999999MW1101MW2711REMMET095METAR ETSI 171420Z 30004KT 1000 -SN BR SCT006 OVC018 M03/M04 Q1009 RESN BLACKAMB YLO TEMPO AMB;
0177108600999992013011715204+48717+011533FM-15+0365ETSI V0202901N002110054019N0015001N1-00301-00401999999ADDGA1041+001801999GA2081+005401999GF108991999999999999999999MA1100911999999MW1101MW2711REMMET080METAR ETSI 171520Z 29004KT 1500 -SN BR SCT006 OVC018 M03/M04 Q1009 BLACKAMB AMB;
0280108600999992013011716004+48717+011533SY-MT+0365ETSI V0203001N002010060019N0015001N1-00321-00391101221ADDAY171999AY271999GA1081+006001999GF108991081001008001021999MA1100911096671MD1210091+9999MW1101MW2711REMSYN082AAXX  17161 10860 41515 83002 11032 21039 39667 40122 52009 77177 8802/ 333 88520;MET081SPECI ETSI 171600Z 30004KT 1500 -SN BR OVC020 M03/M04 Q1009 BLACKAMB FCST CANCEL;
0196108600999992013011716204+48717+011533FM-15+0365ETSI V0203001N001510054019N0015001N1-00301-00401999999ADDGA1041+003601999GA2071+005401999GA3081+011401999GF108991999999999999999999MA1101021999999MW1101MW2711REMMET083METAR ETSI 171620Z 30003KT 1500 -SN BR SCT012 BKN018 OVC038 M03/M04 Q1010 BLACKAMB;
0187108600999992013011717004+48717+011533FM-12+0365ETSI V0203001N002010060019N0015001N1-00321-00391101271ADDAY171999AY271999GA1081+006001051GF108991081001008001021999MA1999999096721MD1210121+9999MW1711REMSYN082AAXX  17171 10860 41515 83002 11032 21039 39672 40127 52012 77177 8802/ 333 88520;
0150108600999992013011717204+48717+011533FM-15+0365ETSI V0203001N002110060019N0015001N1-00301-00401999999ADDGA1081+006001999GF108991999999999999999999MA1101021999999MW1101MW2711REMMET069METAR ETSI 171720Z 30004KT 1500 -SN BR OVC020 M03/M04 Q1010 BLACKAMB;
0136108600999992013011804204+48717+011533FM-15+0365ETSI V0200201N002110051019N0090001N1-00401-00601999999ADDGA1081+005101999GF108991999999999999999999MA1100911999999MW1711REMMET061METAR ETSI 180420Z 02004KT 9000 -SN OVC017 M04/M06 Q1009 WHT;
0193108600999992013011805004+48717+011533FM-12+0365ETSI V0200301N00201004201CN0090001N1-00421-00581101231ADDAY171999AY221999GA1031+004201061GF108991081051004501999999MA1999999096661MD1710091+9999MW1711REMSYN088AAXX  18051 10860 41459 80302 11042 21058 39666 40123 57009 77172 885// 333 83614 88618;
0163108600999992013011805204+48717+011533FM-15+0365ETSI V0200201N001510060019N0112651N1-00401-00601999999ADDGA1021+003901999GA2081+006001999GF108991999999999999999999MA1100911999999REMMET078METAR ETSI 180520Z 02003KT 9999 FEW013 OVC020 M04/M06 Q1009 WHT WHT TEMPO GRN;
0173108600999992013011806204+48717+011533FM-15+0365ETSI V0200301N001510036019N0090001N1-00401-00601999999ADDGA1071+003601999GA2071+006901999GF107991999999999999999999MA1100911999999MW1711REMMET082METAR ETSI 180620Z 03003KT 9000 -SN BKN012 BKN023 M04/M06 Q1009 GRN WHT TEMPO GRN;
0187108600999992013011807004+48717+011533FM-12+0365ETSI V0200201N002010039019N0080001N1-00441-00601101211ADDAY171999AY221999GA1081+003901061GF108991081051004501999999MA1999999096641MD1610061+9999MW1711REMSYN082AAXX  18071 10860 41458 80202 11044 21060 39664 40121 56006 77172 885// 333 88613;
0150108600999992013011807204+48717+011533FM-15+0365ETSI V0200501N001510039019N0080001N1-00401-00601999999ADDGA1081+003901999GF108991999999999999999999MA1100911999999MW1711REMMET075METAR ETSI 180720Z 05003KT 8000 -SN OVC013 M04/M06 Q1009 GRN WHT TEMPO GRN;
0187108600999992013011808004+48717+011533FM-12+0365ETSI V0200301N002010039019N0080001N1-00441-00621101221ADDAY171999AY271999GA1081+003901061GF108991081051004501999999MA1999999096651MD1510011+9999MW1711REMSYN082AAXX  18081 10860 41458 80302 11044 21062 39665 40122 55001 77177 885// 333 88613;
0150108600999992013011808204+48717+011533FM-15+0365ETSI V0200401N001510045019N0080001N1-00401-00601999999ADDGA1081+004501999GF108991999999999999999999MA1100911999999MW1711REMMET075METAR ETSI 180820Z 04003KT 8000 -SN OVC015 M04/M06 Q1009 WHT WHT TEMPO GRN;
0150108600999992013011808514+48717+011533FM-16+0365ETSI V0200501N001510042019N0080001N1-00401-00601999999ADDGA1081+004201999GF108991999999999999999999MA1100911999999MW1711REMMET075SPECI ETSI 180851Z 05003KT 8000 -SN OVC014 M04/M06 Q1009 GRN WHT TEMPO GRN;
0173108600999992013011809204+48717+011533FM-15+0365ETSI V0200801N002110045019N0080001N1-00401-00601999999ADDGA1041+002401999GA2081+004501999GF108991999999999999999999MA1100911999999MW1711REMMET082METAR ETSI 180920Z 08004KT 8000 -SN SCT008 OVC015 M04/M06 Q1009 WHT WHT TEMPO GRN;
0196108600999992013011809404+48717+011533FM-16+0365ETSI V0200801N00151004501CN0080001N1-00401-00601999999ADDGA1041+002401999GA2041+004501999GA3071+008401999GF107991999999999999999999MA1100911999999MW1711REMMET089SPECI ETSI 180940Z 08003KT 8000 -SN SCT008 SCT015 BKN028 M04/M06 Q1009 BLU BLU TEMPO WHT;
0215108600999992013011810004+48717+011533FM-12+0365ETSI V0201201N002010045019N0080001N1-00401-00631101171ADDAY171999AY271999GA1021+002401081GA2041+004501061GF107991071081002501999999MA1999999096611MD1810031+9999MW1711REMSYN094AAXX  18101 10860 41358 71202 11040 21063 39661 40117 58003 77177 878// 333 82808 84615 87628;
0196108600999992013011810204+48717+011533FM-15+0365ETSI V0201201N00211006601CN0090001N1-00401-00601999999ADDGA1041+002701999GA2041+006601999GA3071+009001999GF107991999999999999999999MA1100811999999MW1711REMMET089METAR ETSI 181020Z 12004KT 9000 -SN SCT009 SCT022 BKN030 M04/M06 Q1008 BLU BLU TEMPO WHT;
0215108600999992013011811004+48717+011533FM-12+0365ETSI V0200801N002010045019N0090001N1-00351-00631101101ADDAY171999AY271999GA1031+002701081GA2051+004501061GF107991071081002501999999MA1999999096551MD1810101+9999MW1711REMSYN094AAXX  18111 10860 41359 70802 11035 21063 39655 40110 58010 77177 878// 333 83809 85615 87630;
0196108600999992013011811204+48717+011533FM-15+0365ETSI V0201301N002110045019N0090001N1-00301-00601999999ADDGA1041+002701999GA2071+004501999GA3071+015001999GF107991999999999999999999MA1100811999999MW1711REMMET089METAR ETSI 181120Z 13004KT 9000 -SN SCT009 BKN015 BKN050 M03/M06 Q1008 WHT BLU TEMPO WHT;
0184108600999992013011811304+48717+011533FM-16+0365ETSI V0201001N002110045019N0090001N1-00401-00601999999ADDGA1041+003001999GA2071+004501999GA3071+015001999GF107991999999999999999999MA1100711999999REMMET083SPECI ETSI 181130Z 10004KT 9000 SCT010 BKN015 BKN050 M04/M06 Q1007 WHT FCST CANCEL;
0172108600999992013011812004+48717+011533FM-16+0365ETSI V0201101N001510030019N0090001N1-00401-00601999999ADDGA1071+003001999GA2071+004501999GA3071+015001999GF107991999999999999999999MA1100711999999REMMET071SPECI ETSI 181200Z 11003KT 9000 BKN010 BKN015 BKN050 M04/M06 Q1007 GRN;
0126108600999992013011812204+48717+011533FM-15+0365ETSI V0201801N002110030019N0090001N1-00301-00601999999ADDGA1071+003001999GF107991999999999999999999MA1100711999999REMMET057METAR ETSI 181220Z 18004KT 9000 BKN010 M03/M06 Q1007 GRN;
0165108600999992013011813004+48717+011533FM-12+0365ETSI V0202001N00201006001CN0090001N1-00351-00581100941ADDGA1011+002401081GF108991081081002501999999MA1999999096401MD1710211+9999REMSYN082AAXX  18131 10860 42359 82002 11035 21058 39640 40094 57021 888// 333 81808 88610;
0149108600999992013011813204+48717+011533FM-15+0365ETSI V0202201N001510033019N0090001N1-00301-00601999999ADDGA1021+002701999GA2081+003301999GF108991999999999999999999MA1100611999999REMMET064METAR ETSI 181320Z 22003KT 9000 FEW009 OVC011 M03/M06 Q1006 GRN;
0159108600999992013011814004+48717+011533FM-12+0365ETSI V0201301N002010033019N0090001N1-00341-00581100911ADDGA1081+003301061GF108991081051004501999999MA1999999096371MD1710181+9999REMSYN076AAXX  18141 10860 42459 81302 11034 21058 39637 40091 57018 885// 333 88611;
0126108600999992013011814204+48717+011533FM-15+0365ETSI V0200601N001010036019N0112651N1-00301-00601999999ADDGA1081+003601999GF108991999999999999999999MA1100611999999REMMET057METAR ETSI 181420Z 06002KT 9999 OVC012 M03/M06 Q1006 GRN;
0126108600999992013011815204+48717+011533FM-15+0365ETSI V0201101N000510036019N0112651N1-00301-00601999999ADDGA1081+003601999GF108991999999999999999999MA1100611999999REMMET057METAR ETSI 181520Z 11001KT 9999 OVC012 M03/M06 Q1006 GRN;
0159108600999992013011816004+48717+011533FM-12+0365ETSI V0200901N002010036019N0100001N1-00361-00611100821ADDGA1081+003601061GF108991081051004501999999MA1999999096281MD1710121+9999REMSYN076AAXX  18161 10860 42460 80902 11036 21061 39628 40082 57012 885// 333 88612;
0126108600999992013011816204+48717+011533FM-15+0365ETSI V0200801N001510036019N0112651N1-00401-00601999999ADDGA1081+003601999GF108991999999999999999999MA1100511999999REMMET057METAR ETSI 181620Z 08003KT 9999 OVC012 M04/M06 Q1005 GRN;
0159108600999992013011817004+48717+011533FM-12+0365ETSI V0201001N002010039019N0100001N1-00371-00621100821ADDGA1081+003901061GF108991081051004501999999MA1999999096281MD1610091+9999REMSYN076AAXX  18171 10860 42460 81002 11037 21062 39628 40082 56009 885// 333 88613;
0126108600999992013011817204+48717+011533FM-15+0365ETSI V0201401N001510039019N0112651N1-00401-00601999999ADDGA1081+003901999GF108991999999999999999999MA1100511999999REMMET057METAR ETSI 181720Z 14003KT 9999 OVC013 M04/M06 Q1005 GRN;
0126108600999992013011818204+48717+011533FM-15+0365ETSI V0201501N001510036019N0090001N1-00401-00601999999ADDGA1081+003601999GF108991999999999999999999MA1100511999999REMMET057METAR ETSI 181820Z 15003KT 9000 OVC012 M04/M06 Q1005 GRN;
0126108600999992013011820204+48717+011533FM-15+0365ETSI V0201001N001510033019N0070001N1-00401-00601999999ADDGA1081+003301999GF108991999999999999999999MA1100311999999REMMET057METAR ETSI 182020Z 10003KT 7000 OVC011 M04/M06 Q1003 GRN;
0126108600999992013011821204+48717+011533FM-15+0365ETSI V0201101N001510036019N0070001N1-00401-00601999999ADDGA1081+003601999GF108991999999999999999999MA1100201999999REMMET057METAR ETSI 182120Z 11003KT 7000 OVC012 M04/M06 Q1002 GRN;
0126108600999992013011906064+48717+011533FM-16+0365ETSI V0201001N002110033019N0080001N1-00501-00701999999ADDGA1071+003301999GF107991999999999999999999MA1099701999999REMMET057SPECI ETSI 190606Z 10004KT 8000 BKN011 M05/M07 Q0997 GRN;
0126108600999992013011906204+48717+011533FM-15+0365ETSI V0200901N002610033019N0080001N1-00501-00701999999ADDGA1071+003301999GF107991999999999999999999MA1099701999999REMMET057METAR ETSI 190620Z 09005KT 8000 BKN011 M05/M07 Q0997 GRN;
0172108600999992013011913204+48717+011533FM-15+0365ETSI V0201301N003110045019N0112651N1-00401-00701999999ADDGA1071+004501999GA2071+009001999GA3071+018001999GF107991999999999999999999MA1099591999999REMMET071METAR ETSI 191320Z 13006KT 9999 BKN015 BKN030 BKN060 M04/M07 Q0996 WHT;
0126108600999992013012016044+48717+011533FM-16+0365ETSI V0201001N001510210019N0080001N1-00301-00601999999ADDGA1081+021001999GF108991999999999999999999MA1099391999999REMMET057SPECI ETSI 201604Z 10003KT 8000 OVC070 M03/M06 Q0994 BLU;
0149108600999992013012016204+48717+011533FM-15+0365ETSI V0201101N001010240019N0080001N1-00301-00601999999ADDGA1021+018001999GA2081+024001999GF108991999999999999999999MA1099391999999REMMET064METAR ETSI 201620Z 11002KT 8000 FEW060 OVC080 M03/M06 Q0994 BLU;
0135108600999992013012104204+48717+011533FM-15+0365ETSI V0202201N001510030019N0040001N1-00401-00501999999ADDGA1081+003001999GF108991999999999999999999MA1099591999999MW1101REMMET060METAR ETSI 210420Z 22003KT 4000 BR OVC010 M04/M05 Q0996 GRN;
0179108600999992013012105004+48717+011533FM-12+0365ETSI V0202401N003010033019N0040001N1-00411-00541099921ADDAY121999GA1081+003301061GF108991081051004501999999MA1999999095411MD1210091+9999MW1101REMSYN082AAXX  21051 10860 41440 82403 11041 21054 39541 49992 52009 7102/ 885// 333 88611;
0149108600999992013012105204+48717+011533FM-15+0365ETSI V0202601N002610036019N0040001N1-00401-00501999999ADDGA1081+003601999GF108991999999999999999999MA1099591999999MW1101REMMET074METAR ETSI 210520Z 26005KT 4000 BR OVC012 M04/M05 Q0996 GRN GRN TEMPO YLO;
0149108600999992013012106204+48717+011533FM-15+0365ETSI V0202401N002110033019N0035001N1-00401-00601999999ADDGA1081+003301999GF108991999999999999999999MA1099591999999MW1101REMMET074METAR ETSI 210620Z 24004KT 3500 BR OVC011 M04/M06 Q0996 YLO GRN TEMPO YLO;
0159108600999992013012106454+48717+011533FM-16+0365ETSI V0202401N001510033019N0025001N1-00401-00601999999ADDGA1081+003301999GF108991999999999999999999MA1099701999999MW1101MW2711REMMET078SPECI ETSI 210645Z 24003KT 2500 -SN BR OVC011 M04/M06 Q0997 YLO GRN TEMPO YLO;
0187108600999992013012107004+48717+011533FM-12+0365ETSI V0202301N002010033019N0025001N1-00411-00551099991ADDAY121999AY221999GA1081+003301061GF108991081051004501999999MA1999999095481MD1310081+9999MW1711REMSYN082AAXX  21071 10860 41425 82302 11041 21055 39548 49999 53008 77122 885// 333 88611;
0179108600999992013012107094+48717+011533FM-16+0365ETSI V0202301N001510045019N0012001N1-00401-00501999999ADDED125U21009GA1081+004501999GF108991999999999999999999MA1099701999999MW1101MW2731REMMET087SPECI ETSI 210709Z 23003KT 1200 R25/2100D SN BR OVC015 M04/M05 Q0997 AMB GRN TEMPO AMB;
0179108600999992013012107204+48717+011533FM-15+0365ETSI V0202301N001510045019N0012001N1-00401-00501999999ADDED125U21009GA1081+004501999GF108991999999999999999999MA1099701999999MW1101MW2731REMMET087METAR ETSI 210720Z 23003KT 1200 R25/2100N SN BR OVC015 M04/M05 Q0997 AMB GRN TEMPO AMB;
0187108600999992013012108004+48717+011533FM-12+0365ETSI V0202401N002010045019N0012001N1-00421-00501100041ADDAY171999AY271999GA1081+004501061GF108991081051004501999999MA1999999095531MD1310121+9999MW1731REMSYN082AAXX  21081 10860 41412 82402 11042 21050 39553 40004 53012 77377 885// 333 88615;
0179108600999992013012108204+48717+011533FM-15+0365ETSI V0202501N002610045019N0012001N1-00401-00501999999ADDED125U16009GA1081+004501999GF108991999999999999999999MA1099801999999MW1101MW2731REMMET087METAR ETSI 210820Z 25005KT 1200 R25/1600N SN BR OVC015 M04/M05 Q0998 AMB GRN TEMPO AMB;
0202108600999992013012109204+48717+011533FM-15+0365ETSI V0202501N003110045019N0012001N1-00401-00501999999ADDED125U17009GA1021+003001999GA2081+004501999GF108991999999999999999999MA1099801999999MW1101MW2731REMMET094METAR ETSI 210920Z 25006KT 1200 R25/1700N SN BR FEW010 OVC015 M04/M05 Q0998 AMB YLO TEMPO AMB;
0193108600999992013012110004+48717+011533FM-12+0365ETSI V0202601N00301004201CN0012001N1-00371-00491100111ADDAY171999AY271999GA1011+003001071GF108991081051004501999999MA1999999095601MD1210121+9999MW1731REMSYN088AAXX  21101 10860 41412 82603 11037 21049 39560 40011 52012 77377 885// 333 81710 88615;
0208108600999992013012110204+48717+011533FM-15+0365ETSI V0202601N001510060019N0018001N1-00301-00501999999ADDED125U22009GA1021+003001999GA2081+006001999GF108991999999999999999999MA1099801999999MW1101MW2711REMMET100METAR ETSI 211020Z 26003KT 1800 R25/2200N -SN BR FEW010 OVC020 M03/M05 Q0998 RESN YLO YLO TEMPO AMB;
0202108600999992013012110324+48717+011533FM-16+0365ETSI V0202601N002110060019N0010001N1-00301-00501999999ADDED125U13009GA1021+003001999GA2081+006001999GF108991999999999999999999MA1099801999999MW1101MW2731REMMET094SPECI ETSI 211032Z 26004KT 1000 R25/1300D SN BR FEW010 OVC020 M03/M05 Q0998 AMB YLO TEMPO AMB;
0193108600999992013012111004+48717+011533FM-12+0365ETSI V0202601N00201004201CN0013001N1-00321-00451100071ADDAY171999AY271999GA1011+003001071GF107991071051004501999999MA1999999095571MD1010041+9999MW1731REMSYN088AAXX  21111 10860 41413 72602 11032 21045 39557 40007 50004 77377 875// 333 81710 87618;
0208108600999992013012111094+48717+011533FM-16+0365ETSI V0202701N002610060019N0016001N1-00301-00501999999ADDED125U22009GA1021+003001999GA2071+006001999GF107991999999999999999999MA1099801999999MW1101MW2711REMMET100SPECI ETSI 211109Z 27005KT 1600 R25/2200N -SN BR FEW010 BKN020 M03/M05 Q0998 RESN YLO YLO TEMPO AMB;
0210108600999992013012111204+48717+011533FM-15+0365ETSI V0202701N00211003901CN0020001N1-00301-00401999999ADDGA1021+002101999GA2041+003901999GA3071+006001999GF107991999999999999999999MA1099801999999MW1101MW2711REMMET097METAR ETSI 211120Z 27004KT 2000 -SN BR FEW007 SCT013 BKN020 M03/M04 Q0998 RESN YLO YLO TEMPO AMB;
0225108600999992013012111374+48717+011533FM-16+0365ETSI V0202601N00261003001CN0011001N1-00301-00401999999ADDED125U21009GA1021+001501999GA2041+003001999GA3071+004201999GF107991999999999999999999MA1099801999999MW1101MW2731REMMET101SPECI ETSI 211137Z 26005KT 1100 R25/2100D SN BR FEW005 SCT010 BKN014 M03/M04 Q0998 AMB YLO TEMPO AMB;
0208108600999992013012111494+48717+011533FM-16+0365ETSI V0202901N002110054019N0016001N1-00301-00401999999ADDED125U13009GA1021+001501999GA2071+005401999GF107991999999999999999999MA1099701999999MW1101MW2711REMMET100SPECI ETSI 211149Z 29004KT 1600 R25/1300D -SN BR FEW005 BKN018 M03/M04 Q0997 RESN YLO YLO TEMPO AMB;
0200108600999992013012112204+48717+011533FM-15+0365ETSI V0203101N00211005401CN0025001N1-00301-00401999999ADDGA1021+003001999GA2041+005401999GA3071+021001999GF107991999999999999999999MA1099701999999MW1101REMMET093METAR ETSI 211220Z 31004KT 2500 BR FEW010 SCT018 BKN070 M03/M04 Q0997 RESN YLO YLO TEMPO AMB;
0172108600999992013012112544+48717+011533FM-16+0365ETSI V0202501N002110210019N0037001N1-00201-00401999999ADDGA1021+002101999GA2071+021001999GF107991999999999999999999MA1099701999999MW1101REMMET081SPECI ETSI 211254Z 25004KT 3700 BR FEW007 BKN070 M02/M04 Q0997 GRN GRN TEMPO AMB;
0193108600999992013012113004+48717+011533FM-12+0365ETSI V0202501N00201002101CN0037001N1-00241-00411099991ADDAY121999AY221999GA1021+002101071GF107991051061002501031999MA1999999095511MD1710091+9999MW1221REMSYN088AAXX  21131 10860 41337 72502 11024 21041 39551 49999 57009 72222 8563/ 333 82707 87357;
0172108600999992013012113204+48717+011533FM-15+0365ETSI V0202501N002110180019N0045001N1-00201-00401999999ADDGA1041+001501999GA2071+018001999GF107991999999999999999999MA1099701999999MW1101REMMET081METAR ETSI 211320Z 25004KT 4500 BR SCT005 BKN060 M02/M04 Q0997 GRN GRN TEMPO AMB;
0215108600999992013012114004+48717+011533FM-12+0365ETSI V0202401N002010135019N0045001N1-00191-00391099971ADDAY121999AY221999GA1031+001501071GA2031+013501061GF107991071051001501999999MA1999999095501MD1710071+9999MW1101REMSYN094AAXX  21141 10860 41245 72402 11019 21039 39550 49997 57007 71022 875// 333 83705 83645 87656;
0195108600999992013012114204+48717+011533FM-15+0365ETSI V0202801N00151015001CN0045001N1-00201-00401999999ADDGA1021+002401999GA2041+015001999GA3071+018001999GF107991999999999999999999MA1099701999999MW1101REMMET088METAR ETSI 211420Z 28003KT 4500 BR FEW008 SCT050 BKN060 M02/M04 Q0997 GRN GRN TEMPO YLO;
0205108600999992013012115014+48717+011533FM-16+0365ETSI V0202501N00151003601CN0050001N1-00201-00301999999ADDGA1021+001801999GA2041+003601999GA3071+018001999GF107991999999999999999999MA1099701999999MW1101MW2711REMMET092SPECI ETSI 211501Z 25003KT 5000 -SN BR FEW006 SCT012 BKN060 M02/M03 Q0997 WHT WHT TEMPO YLO;
0205108600999992013012115104+48717+011533FM-16+0365ETSI V0202401N00151018001CN0040001N1-00201-00301999999ADDGA1021+003001999GA2041+018001999GA3071+024001999GF107991999999999999999999MA1099801999999MW1101MW2711REMMET092SPECI ETSI 211510Z 24003KT 4000 -SN BR FEW010 SCT060 BKN080 M02/M03 Q0998 GRN WHT TEMPO YLO;
0205108600999992013012115204+48717+011533FM-15+0365ETSI V0202501N00151018001CN0040001N1-00201-00301999999ADDGA1021+003001999GA2041+018001999GA3071+024001999GF107991999999999999999999MA1099801999999MW1101MW2711REMMET092METAR ETSI 211520Z 25003KT 4000 -SN BR FEW010 SCT060 BKN080 M02/M03 Q0998 GRN WHT TEMPO YLO;
0323108600999992013012116004+48717+011533SY-MT+0365ETSI V0201901N001010180019N0040001N1-00201-00341100051ADDAY171999AY271999GA1021+001501999GA2041+018001999GA3071+027001999GF107991071051001501031999MA1099801095571MD1310061+9999MW1221REMSYN094AAXX  21161 10860 41240 71901 11020 21034 39557 40005 53006 72277 8753/ 333 82705 83656 86359;MET086SPECI ETSI 211600Z 18002KT 4000 BR FEW005 SCT060 BKN090 M02/M03 Q0998 GRN FCST CANCEL;
0181108600999992013012116204+48717+011533FM-15+0365ETSI V0203301N00151004501CN0040001N1-00301-00301999999ADDGA1021+001501999GA2041+004501999GA3071+027001999GF107991999999999999999999MA1099801999999MW1101REMMET074METAR ETSI 211620Z 33003KT 4000 BR FEW005 SCT015 BKN090 M03/M03 Q0998 GRN;
0193108600999992013012117004+48717+011533FM-12+0365ETSI V0203401N00201001201CN0045001N1-00271-00341100131ADDAY121999AY221999GA1011+001501071GF107991071051001501999999MA1999999095641MD1210141+9999MW1101REMSYN088AAXX  21171 10860 41245 73402 11027 21034 39564 40013 52014 71022 875// 333 81705 87612;
0135108600999992013012117204+48717+011533FM-15+0365ETSI V0203101N001510036019N0050001N1-00201-00301999999ADDGA1081+003601999GF108991999999999999999999MA1099901999999MW1101REMMET060METAR ETSI 211720Z 31003KT 5000 BR OVC012 M02/M03 Q0999 GRN;
0168108600999992013012204204+48717+011533FM-15+0365ETSI V0200901N001510066019N0035001N1-00201-00301999999ADDGA1021+003001999GA2071+006601999GF107991999999999999999999MA1100101999999MW1101MW2711REMMET071METAR ETSI 220420Z 09003KT 3500 -SN BR FEW010 BKN022 M02/M03 Q1001 YLO;
0207108600999992013012205004+48717+011533FM-12+0365ETSI V0200701N002010066019N0035001N1-00221-00291100341ADDAY171999GA1011+003001071GA2051+006601061GF108991081051004501999999MA1999999095851MD1210051+9999MW1711REMSYN094AAXX  22051 10860 41435 80702 11022 21029 39585 40034 52005 7717/ 885// 333 81710 85622 87630;
0195108600999992013012205204+48717+011533FM-15+0365ETSI V0200801N00101006601CN0035001N1-00201-00301999999ADDGA1021+001501999GA2041+006601999GA3071+010501999GF107991999999999999999999MA1100101999999MW1101MW2711REMMET082METAR ETSI 220520Z 08002KT 3500 -SN BR FEW005 SCT022 BKN035 M02/M03 Q1001 YLO YLO;
0162108600999992013012206204+48717+011533FM-15+0365ETSI V0200901N001010108019N0030001N1-00201-00301999999ADDGA1021+003001999GA2071+010801999GF107991999999999999999999MA1100101999999MW1101REMMET071METAR ETSI 220620Z 09002KT 3000 BR FEW010 BKN036 M02/M03 Q1001 YLO YLO;
0172108600999992013012206334+48717+011533FM-16+0365ETSI V0200701N001010108019N0022001N1-00201-00301999999ADDGA1021+003001999GA2071+010801999GF107991999999999999999999MA1100101999999MW1101MW2711REMMET075SPECI ETSI 220633Z 07002KT 2200 -SN BR FEW010 BKN036 M02/M03 Q1001 YLO YLO;
0215108600999992013012207004+48717+011533FM-12+0365ETSI V0200601N001010066019N0018001N1-00191-00251100411ADDAY121999AY221999GA1021+003001071GA2041+006601061GF108991081051004501999999MA1999999095921MD1210081+9999MW1731REMSYN094AAXX  22071 10860 41418 80601 11019 21025 39592 40041 52008 77322 885// 333 82710 84622 87636;
