0120109470999992012010104504+47983+010233FM-15+0629EDJA V0202301N007710018019N0112651N1+00601+00501999999ADDGA1071+001801999GF107991999999999999999999MA1101801999999REMMET051METAR EDJA 010450Z 23015KT 9999 BKN006 06/05 Q1018;
0120109470999992012010105204+47983+010233FM-15+0629EDJA V0202301N007710021019N0112651N1+00601+00501999999ADDGA1071+002101999GF107991999999999999999999MA1101801999999REMMET051METAR EDJA 010520Z 23015KT 9999 BKN007 06/05 Q1018;
0120109470999992012010105504+47983+010233FM-15+0629EDJA V0202201N008210027019N0112651N1+00601+00501999999ADDGA1071+002701999GF107991999999999999999999MA1101801999999REMMET051METAR EDJA 010550Z 22016KT 9999 BKN009 06/05 Q1018;
0130109470999992012010106204+47983+010233FM-15+0629EDJA V0202301N007710033019N0112651N1+00601+00501999999ADDGA1071+003301999GF107991999999999999999999MA1101801999999MW1611REMMET055METAR EDJA 010620Z 23015KT 9999 -RA BKN011 06/05 Q1018;
0120109470999992012010106504+47983+010233FM-15+0629EDJA V0202201N007710036019N0112651N1+00601+00501999999ADDGA1071+003601999GF107991999999999999999999MA1101801999999REMMET051METAR EDJA 010650Z 22015KT 9999 BKN012 06/05 Q1018;
0143109470999992012010107204+47983+010233FM-15+0629EDJA V0202201N005710027019N0112651N1+00601+00501999999ADDGA1071+002701999GA2071+006301999GF107991999999999999999999MA1101801999999REMMET058METAR EDJA 010720Z 22011KT 9999 BKN009 BKN021 06/05 Q1018;
0120109470999992012010108204+47983+010233FM-15+0629EDJA V0202201N007210036019N0112651N1+00701+00601999999ADDGA1071+003601999GF107991999999999999999999MA1101901999999REMMET051METAR EDJA 010820Z 22014KT 9999 BKN012 07/06 Q1019;
0120109470999992012010108504+47983+010233FM-15+0629EDJA V0202201N006210042019N0112651N1+00701+00601999999ADDGA1071+004201999GF107991999999999999999999MA1101901999999REMMET051METAR EDJA 010850Z 22012KT 9999 BKN014 07/06 Q1019;
0120109470999992012010109204+47983+010233FM-15+0629EDJA V0202301N006210042019N0112651N1+00701+00601999999ADDGA1071+004201999GF107991999999999999999999MA1101901999999REMMET051METAR EDJA 010920Z 23012KT 9999 BKN014 07/06 Q1019;
0120109470999992012010109504+47983+010233FM-15+0629EDJA V0202201N007210030019N0112651N1+00801+00601999999ADDGA1071+003001999GF107991999999999999999999MA1101901999999REMMET051METAR EDJA 010950Z 22014KT 9999 BKN010 08/06 Q1019;
0120109470999992012010110204+47983+010233FM-15+0629EDJA V0202301N007710030019N0112651N1+00801+00601999999ADDGA1071+003001999GF107991999999999999999999MA1101901999999REMMET051METAR EDJA 011020Z 23015KT 9999 BKN010 08/06 Q1019;
0120109470999992012010110504+47983+010233FM-15+0629EDJA V0202401N007210054019N0112651N1+00801+00601999999ADDGA1071+005401999GF107991999999999999999999MA1101901999999REMMET051METAR EDJA 011050Z 24014KT 9999 BKN018 08/06 Q1019;
0120109470999992012010111204+47983+010233FM-15+0629EDJA V0202401N007210054019N0112651N1+00801+00601999999ADDGA1071+005401999GF107991999999999999999999MA1101901999999REMMET051METAR EDJA 011120Z 24014KT 9999 BKN018 08/06 Q1019;
0120109470999992012010111504+47983+010233FM-15+0629EDJA V0202301N009312200019N0112651N1+00901+00601999999ADDGA1041+005401999GF104991999999999999999999MA1101901999999REMMET051METAR EDJA 011150Z 23018KT 9999 SCT018 09/06 Q1019;
0143109470999992012010112204+47983+010233FM-15+0629EDJA V0202301N007710120019N0112651N1+00901+00601999999ADDGA1021+003601999GA2071+012001999GF107991999999999999999999MA1101901999999REMMET058METAR EDJA 011220Z 23015KT 9999 FEW012 BKN040 09/06 Q1019;
0143109470999992012010112504+47983+010233FM-15+0629EDJA V0202201N006710114019N0112651N1+00901+00701999999ADDGA1021+004201999GA2071+011401999GF107991999999999999999999MA1101801999999REMMET058METAR EDJA 011250Z 22013KT 9999 FEW014 BKN038 09/07 Q1018;
0143109470999992012010113204+47983+010233FM-15+0629EDJA V0202201N004112200019N0112651N1+00901+00601999999ADDGA1021+005401999GA2041+012601999GF104991999999999999999999MA1101801999999REMMET058METAR EDJA 011320Z 22008KT 9999 FEW018 SCT042 09/06 Q1018;
0143109470999992012010113504+47983+010233FM-15+0629EDJA V0202201N005112200019N0112651N1+00901+00601999999ADDGA1021+005701999GA2041+012301999GF104991999999999999999999MA1101801999999REMMET058METAR EDJA 011350Z 22010KT 9999 FEW019 SCT041 09/06 Q1018;
0143109470999992012010114204+47983+010233FM-15+0629EDJA V0202301N005112200019N0112651N1+00901+00601999999ADDGA1041+008401999GA2041+014401999GF104991999999999999999999MA1101801999999REMMET058METAR EDJA 011420Z 23010KT 9999 SCT028 SCT048 09/06 Q1018;
0120109470999992012010114504+47983+010233FM-15+0629EDJA V0202201N004612200019N0112651N1+00801+00601999999ADDGA1041+013201999GF104991999999999999999999MA1101801999999REMMET051METAR EDJA 011450Z 22009KT 9999 SCT044 08/06 Q1018;
0120109470999992012010115204+47983+010233FM-15+0629EDJA V0202101N004112200019N0112651N1+00701+00501999999ADDGA1041+015001999GF104991999999999999999999MA1101801999999REMMET051METAR EDJA 011520Z 21008KT 9999 SCT050 07/05 Q1018;
0120109470999992012010115504+47983+010233FM-15+0629EDJA V0202101N003612200019N0112651N1+00601+00501999999ADDGA1041+013501999GF104991999999999999999999MA1101801999999REMMET051METAR EDJA 011550Z 21007KT 9999 SCT045 06/05 Q1018;
0120109470999992012010116204+47983+010233FM-15+0629EDJA V0202201N003112200019N0112651N1+00601+00401999999ADDGA1041+012601999GF104991999999999999999999MA1101801999999REMMET051METAR EDJA 011620Z 22006KT 9999 SCT042 06/04 Q1018;
0072109470999992012010116504+47983+010233FM-15+0629EDJA V0202001N003619999999Y0099001N1+00601+00401999999ADDMA1101801999999REMMET045METAR EDJA 011650Z 20007KT CAVOK 06/04 Q1018;
0072109470999992012010117504+47983+010233FM-15+0629EDJA V0202301N004119999999Y0099001N1+00601+00401999999ADDMA1101801999999REMMET045METAR EDJA 011750Z 23008KT CAVOK 06/04 Q1018;
0072109470999992012010118204+47983+010233FM-15+0629EDJA V0202201N004619999999Y0099001N1+00601+00401999999ADDMA1101801999999REMMET045METAR EDJA 011820Z 22009KT CAVOK 06/04 Q1018;
0072109470999992012010118504+47983+010233FM-15+0629EDJA V0202201N007219999999Y0099001N1+00801+00501999999ADDMA1101801999999REMMET045METAR EDJA 011850Z 22014KT CAVOK 08/05 Q1018;
0072109470999992012010119204+47983+010233FM-15+0629EDJA V0202201N006219999999Y0099001N1+00701+00401999999ADDMA1101691999999REMMET045METAR EDJA 011920Z 22012KT CAVOK 07/04 Q1017;
0072109470999992012010119504+47983+010233FM-15+0629EDJA V0202201N006219999999Y0099001N1+00701+00501999999ADDMA1101691999999REMMET045METAR EDJA 011950Z 22012KT CAVOK 07/05 Q1017;
0072109470999992012010120204+47983+010233FM-15+0629EDJA V0202201N005119999999Y0099001N1+00701+00401999999ADDMA1101691999999REMMET045METAR EDJA 012020Z 22010KT CAVOK 07/04 Q1017;
0072109470999992012010120504+47983+010233FM-15+0629EDJA V0202301N003619999999Y0099001N1+00601+00401999999ADDMA1101691999999REMMET045METAR EDJA 012050Z 23007KT CAVOK 06/04 Q1017;
0072109470999992012010204504+47983+010233FM-15+0629EDJA V0202101N003619999999Y0099001N1+00501+00301999999ADDMA1101191999999REMMET045METAR EDJA 020450Z 21007KT CAVOK 05/03 Q1012;
0072109470999992012010205204+47983+010233FM-15+0629EDJA V0202201N004619999999Y0099001N1+00701+00301999999ADDMA1101191999999REMMET045METAR EDJA 020520Z 22009KT CAVOK 07/03 Q1012;
0072109470999992012010205504+47983+010233FM-15+0629EDJA V0202201N005719999999Y0099001N1+00701+00401999999ADDMA1101191999999REMMET045METAR EDJA 020550Z 22011KT CAVOK 07/04 Q1012;
0072109470999992012010206204+47983+010233FM-15+0629EDJA V0202201N005119999999Y0099001N1+00701+00301999999ADDMA1101081999999REMMET045METAR EDJA 020620Z 22010KT CAVOK 07/03 Q1011;
0072109470999992012010206504+47983+010233FM-15+0629EDJA V0202301N005119999999Y0099001N1+00701+00301999999ADDMA1101081999999REMMET045METAR EDJA 020650Z 23010KT CAVOK 07/03 Q1011;
0072109470999992012010207204+47983+010233FM-15+0629EDJA V0202101N004119999999Y0099001N1+00701+00301999999ADDMA1101081999999REMMET045METAR EDJA 020720Z 21008KT CAVOK 07/03 Q1011;
0072109470999992012010207504+47983+010233FM-15+0629EDJA V0202101N003619999999Y0099001N1+00601+00301999999ADDMA1101081999999REMMET045METAR EDJA 020750Z 21007KT CAVOK 06/03 Q1011;
0072109470999992012010208204+47983+010233FM-15+0629EDJA V0202001N004119999999Y0099001N1+00601+00301999999ADDMA1101081999999REMMET045METAR EDJA 020820Z 20008KT CAVOK 06/03 Q1011;
0072109470999992012010208504+47983+010233FM-15+0629EDJA V0202001N003119999999Y0099001N1+00601+00301999999ADDMA1101081999999REMMET045METAR EDJA 020850Z 20006KT CAVOK 06/03 Q1011;
0072109470999992012010209204+47983+010233FM-15+0629EDJA V0202201N004619999999Y0099001N1+00801+00401999999ADDMA1101081999999REMMET045METAR EDJA 020920Z 22009KT CAVOK 08/04 Q1011;
0072109470999992012010209504+47983+010233FM-15+0629EDJA V0202201N005119999999Y0099001N1+00801+00401999999ADDMA1101081999999REMMET045METAR EDJA 020950Z 22010KT CAVOK 08/04 Q1011;
0072109470999992012010210204+47983+010233FM-15+0629EDJA V0202301N007219999999Y0099001N1+00901+00401999999ADDMA1101081999999REMMET045METAR EDJA 021020Z 23014KT CAVOK 09/04 Q1011;
0072109470999992012010210504+47983+010233FM-15+0629EDJA V0202201N007719999999Y0099001N1+00901+00401999999ADDMA1101081999999REMMET045METAR EDJA 021050Z 22015KT CAVOK 09/04 Q1011;
0072109470999992012010211204+47983+010233FM-15+0629EDJA V0202501N008719999999Y0099001N1+00901+00401999999ADDMA1101081999999REMMET045METAR EDJA 021120Z 25017KT CAVOK 09/04 Q1011;
0072109470999992012010211504+47983+010233FM-15+0629EDJA V0202401N006719999999Y0099001N1+00901+00501999999ADDMA1101081999999REMMET045METAR EDJA 021150Z 24013KT CAVOK 09/05 Q1011;
0072109470999992012010212204+47983+010233FM-15+0629EDJA V0202501N007719999999Y0099001N1+01001+00501999999ADDMA1101081999999REMMET045METAR EDJA 021220Z 25015KT CAVOK 10/05 Q1011;
0143109470999992012010212504+47983+010233FM-15+0629EDJA V0202501N009310054019N0112651N1+00901+00501999999ADDGA1071+005401999GA2071+015001999GF107991999999999999999999MA1101081999999REMMET058METAR EDJA 021250Z 25018KT 9999 BKN018 BKN052 09/05 Q1011;
0153109470999992012010213204+47983+010233FM-15+0629EDJA V0202601N008210054019N0112651N1+00801+00501999999ADDGA1071+005401999GA2071+015001999GF107991999999999999999999MA1101191999999MW1611REMMET062METAR EDJA 021320Z 26016KT 9999 -RA BKN018 BKN052 08/05 Q1012;
0153109470999992012010213504+47983+010233FM-15+0629EDJA V0202501N007210054019N0112651N1+00701+00501999999ADDGA1071+005401999GA2071+012001999GF107991999999999999999999MA1101291999999MW1611REMMET062METAR EDJA 021350Z 25014KT 9999 -RA BKN018 BKN040 07/05 Q1013;
0153109470999992012010214204+47983+010233FM-15+0629EDJA V0202501N008210048019N0112651N1+00701+00501999999ADDGA1071+004801999GA2071+009601999GF107991999999999999999999MA1101291999999MW1611REMMET062METAR EDJA 021420Z 25016KT 9999 -RA BKN016 BKN032 07/05 Q1013;
0159109470999992012010214414+47983+010233FM-16+0629EDJA V0202401N006710045019N0112651N1+00601+00401999999ADDGA1071+004501999GA2071+009001999GF107991999999999999999999MA1101391999999MW1611REMMET068SPECI EDJA 021441Z 24013KT 9999 -RA BKN015 BKN030 06/04 Q1014 RMK U;
0143109470999992012010214504+47983+010233FM-15+0629EDJA V0202401N006710120019N0112651N1+00601+00401999999ADDGA1041+004201999GA2071+012001999GF107991999999999999999999MA1101391999999REMMET058METAR EDJA 021450Z 24013KT 9999 SCT014 BKN040 06/04 Q1014;
0143109470999992012010215204+47983+010233FM-15+0629EDJA V0202401N008210090019N0112651N1+00601+00401999999ADDGA1041+004501999GA2071+009001999GF107991999999999999999999MA1101391999999REMMET058METAR EDJA 021520Z 24016KT 9999 SCT015 BKN030 06/04 Q1014;
0153109470999992012010215504+47983+010233FM-15+0629EDJA V0202501N008710150019N0112651N1+00601+00401999999ADDGA1041+006001999GA2071+015001999GF107991999999999999999999MA1101491999999MW1611REMMET062METAR EDJA 021550Z 25017KT 9999 -RA SCT020 BKN050 06/04 Q1015;
0143109470999992012010216204+47983+010233FM-15+0629EDJA V0202301N006210150019N0112651N1+00601+00401999999ADDGA1041+006601999GA2071+015001999GF107991999999999999999999MA1101591999999REMMET058METAR EDJA 021620Z 23012KT 9999 SCT022 BKN052 06/04 Q1016;
0153109470999992012010216504+47983+010233FM-15+0629EDJA V0202301N006710054019N0112651N1+00501+00401999999ADDGA1041+003001999GA2071+005401999GF107991999999999999999999MA1101591999999MW1611REMMET062METAR EDJA 021650Z 23013KT 9999 -RA SCT010 BKN018 05/04 Q1016;
0143109470999992012010217204+47983+010233FM-15+0629EDJA V0202301N006210180019N0112651N1+00501+00301999999ADDGA1021+004501999GA2071+018001999GF107991999999999999999999MA1101591999999REMMET058METAR EDJA 021720Z 23012KT 9999 FEW015 BKN060 05/03 Q1016;
0120109470999992012010217504+47983+010233FM-15+0629EDJA V0202301N006712200019N0112651N1+00501+00301999999ADDGA1041+003901999GF104991999999999999999999MA1101691999999REMMET051METAR EDJA 021750Z 23013KT 9999 SCT013 05/03 Q1017;
0120109470999992012010218204+47983+010233FM-15+0629EDJA V0202301N006712200019N0112651N1+00501+00301999999ADDGA1041+003901999GF104991999999999999999999MA1101691999999REMMET051METAR EDJA 021820Z 23013KT 9999 SCT013 05/03 Q1017;
0120109470999992012010218504+47983+010233FM-15+0629EDJA V0202301N006212200019N0112651N1+00501+00301999999ADDGA1041+003901999GF104991999999999999999999MA1101691999999REMMET051METAR EDJA 021850Z 23012KT 9999 SCT013 05/03 Q1017;
0143109470999992012010219204+47983+010233FM-15+0629EDJA V0202301N005710120019N0112651N1+00401+00301999999ADDGA1021+003301999GA2071+012001999GF107991999999999999999999MA1101801999999REMMET058METAR EDJA 021920Z 23011KT 9999 FEW011 BKN040 04/03 Q1018;
0143109470999992012010219504+47983+010233FM-15+0629EDJA V0202301N006210150019N0112651N1+00401+00201999999ADDGA1021+004201999GA2071+015001999GF107991999999999999999999MA1101801999999REMMET058METAR EDJA 021950Z 23012KT 9999 FEW014 BKN050 04/02 Q1018;
0143109470999992012010220204+47983+010233FM-15+0629EDJA V0202301N005710105019N0112651N1+00401+00301999999ADDGA1021+003301999GA2071+010501999GF107991999999999999999999MA1101901999999REMMET058METAR EDJA 022020Z 23011KT 9999 FEW011 BKN035 04/03 Q1019;
0143109470999992012010220504+47983+010233FM-15+0629EDJA V0202301N005710108019N0112651N1+00401+00301999999ADDGA1041+003001999GA2071+010801999GF107991999999999999999999MA1101901999999REMMET058METAR EDJA 022050Z 23011KT 9999 SCT010 BKN036 04/03 Q1019;
0120109470999992012010305204+47983+010233FM-15+0629EDJA V0202301N006210036019N0112651N1+00301+00101999999ADDGA1071+003601999GF107991999999999999999999MA1102511999999REMMET051METAR EDJA 030520Z 23012KT 9999 BKN012 03/01 Q1025;
0120109470999992012010305504+47983+010233FM-15+0629EDJA V0202401N006710042019N0112651N1+00301+00101999999ADDGA1071+004201999GF107991999999999999999999MA1102511999999REMMET051METAR EDJA 030550Z 24013KT 9999 BKN014 03/01 Q1025;
0121109470999992012010306204+47983+010233FM-15+0629EDJA V0202301N006710060019N0112651N1+00201+00001999999ADDGA1071+006001999GF107991999999999999999999MA1102511999999REMMET052METAR EDJA 030620Z 23013KT 9999 BKN020 02/M00 Q1025;
0127109470999992012010306314+47983+010233FM-16+0629EDJA V0202401N008712200019N0112651N1+00201+00001999999ADDGA1021+006001999GF102991999999999999999999MA1102511999999REMMET058SPECI EDJA 030631Z 24017KT 9999 FEW020 02/M00 Q1025 RMK M;
0121109470999992012010306504+47983+010233FM-15+0629EDJA V0202401N007712200019N0112651N1+00201-00101999999ADDGA1021+006301999GF102991999999999999999999MA1102511999999REMMET052METAR EDJA 030650Z 24015KT 9999 FEW021 02/M01 Q1025;
0121109470999992012010307204+47983+010233FM-15+0629EDJA V0202101N003612200019N0112651N1+00101-00101999999ADDGA1021+006301999GF102991999999999999999999MA1102511999999REMMET052METAR EDJA 030720Z 21007KT 9999 FEW021 01/M01 Q1025;
0073109470999992012010308204+47983+010233FM-15+0629EDJA V0202301N006219999999Y0099001N1+00201+00001999999ADDMA1102401999999REMMET046METAR EDJA 030820Z 23012KT CAVOK 02/M00 Q1024;
0072109470999992012010308504+47983+010233FM-15+0629EDJA V0202201N006219999999Y0099001N1+00301+00001999999ADDMA1102401999999REMMET045METAR EDJA 030850Z 22012KT CAVOK 03/00 Q1024;
0072109470999992012010309204+47983+010233FM-15+0629EDJA V0202201N006219999999Y0099001N1+00301+00001999999ADDMA1102401999999REMMET045METAR EDJA 030920Z 22012KT CAVOK 03/00 Q1024;
0072109470999992012010309504+47983+010233FM-15+0629EDJA V0202201N006219999999Y0099001N1+00401+00001999999ADDMA1102401999999REMMET045METAR EDJA 030950Z 22012KT CAVOK 04/00 Q1024;
0073109470999992012010310204+47983+010233FM-15+0629EDJA V0202401N007719999999Y0099001N1+00401+00001999999ADDMA1102301999999REMMET046METAR EDJA 031020Z 24015KT CAVOK 04/M00 Q1023;
0073109470999992012010310504+47983+010233FM-15+0629EDJA V0202401N007719999999Y0099001N1+00501+00001999999ADDMA1102301999999REMMET046METAR EDJA 031050Z 24015KT CAVOK 05/M00 Q1023;
0073109470999992012010311204+47983+010233FM-15+0629EDJA V0202201N007719999999Y0099001N1+00501-00101999999ADDMA1102201999999REMMET046METAR EDJA 031120Z 22015KT CAVOK 05/M01 Q1022;
0072109470999992012010311504+47983+010233FM-15+0629EDJA V0202201N006219999999Y0099001N1+00601+00101999999ADDMA1102201999999REMMET045METAR EDJA 031150Z 22012KT CAVOK 06/01 Q1022;
0073109470999992012010312204+47983+010233FM-15+0629EDJA V0202201N007219999999Y0099001N1+00601+00001999999ADDMA1102101999999REMMET046METAR EDJA 031220Z 22014KT CAVOK 06/M00 Q1021;
0073109470999992012010312504+47983+010233FM-15+0629EDJA V0202201N008219999999Y0099001N1+00601-00101999999ADDMA1102101999999REMMET046METAR EDJA 031250Z 22016KT CAVOK 06/M01 Q1021;
0073109470999992012010313204+47983+010233FM-15+0629EDJA V0202201N008219999999Y0099001N1+00601-00201999999ADDMA1102001999999REMMET046METAR EDJA 031320Z 22016KT CAVOK 06/M02 Q1020;
0073109470999992012010313504+47983+010233FM-15+0629EDJA V0202201N007719999999Y0099001N1+00601+00001999999ADDMA1102001999999REMMET046METAR EDJA 031350Z 22015KT CAVOK 06/M00 Q1020;
0073109470999992012010314204+47983+010233FM-15+0629EDJA V0202201N007219999999Y0099001N1+00601+00001999999ADDMA1102001999999REMMET046METAR EDJA 031420Z 22014KT CAVOK 06/M00 Q1020;
0073109470999992012010314504+47983+010233FM-15+0629EDJA V0202201N005719999999Y0099001N1+00501-00101999999ADDMA1101901999999REMMET046METAR EDJA 031450Z 22011KT CAVOK 05/M01 Q1019;
0073109470999992012010315204+47983+010233FM-15+0629EDJA V0202201N005719999999Y0099001N1+00501-00201999999ADDMA1101901999999REMMET046METAR EDJA 031520Z 22011KT CAVOK 05/M02 Q1019;
0079109470999992012010315464+47983+010233FM-16+0629EDJA V0202201N006219999999Y0099001N1+00401-00201999999ADDMA1101901999999REMMET052SPECI EDJA 031546Z 22012KT CAVOK 04/M02 Q1019 RMK G;
0073109470999992012010315504+47983+010233FM-15+0629EDJA V0202201N006219999999Y0099001N1+00401-00201999999ADDMA1101901999999REMMET046METAR EDJA 031550Z 22012KT CAVOK 04/M02 Q1019;
0073109470999992012010316204+47983+010233FM-15+0629EDJA V0202201N008219999999Y0099001N1+00501-00301999999ADDMA1101801999999REMMET046METAR EDJA 031620Z 22016KT CAVOK 05/M03 Q1018;
0084109470999992012010316504+47983+010233FM-15+0629EDJA V0202301N011819999999Y0099001N1+00501-00401999999ADDMA1101691999999OC101901REMMET049METAR EDJA 031650Z 23023G37KT CAVOK 05/M04 Q1017;
0073109470999992012010317204+47983+010233FM-15+0629EDJA V0202301N011819999999Y0099001N1+00601-00401999999ADDMA1101801999999REMMET046METAR EDJA 031720Z 23023KT CAVOK 06/M04 Q1018;
0073109470999992012010317504+47983+010233FM-15+0629EDJA V0202301N011819999999Y0099001N1+00501-00301999999ADDMA1101691999999REMMET046METAR EDJA 031750Z 23023KT CAVOK 05/M03 Q1017;
0073109470999992012010318204+47983+010233FM-15+0629EDJA V0202401N010819999999Y0099001N1+00501-00301999999ADDMA1101801999999REMMET046METAR EDJA 031820Z 24021KT CAVOK 05/M03 Q1018;
0073109470999992012010318504+47983+010233FM-15+0629EDJA V0202401N011319999999Y0099001N1+00501-00201999999ADDMA1101801999999REMMET046METAR EDJA 031850Z 24022KT CAVOK 05/M02 Q1018;
0073109470999992012010319204+47983+010233FM-15+0629EDJA V0202401N010319999999Y0099001N1+00501-00101999999ADDMA1101801999999REMMET046METAR EDJA 031920Z 24020KT CAVOK 05/M01 Q1018;
0084109470999992012010319504+47983+010233FM-15+0629EDJA V0202301N011819999999Y0099001N1+00501+00001999999ADDMA1101691999999OC101751REMMET049METAR EDJA 031950Z 23023G34KT CAVOK 05/M00 Q1017;
0073109470999992012010320204+47983+010233FM-15+0629EDJA V0202201N011319999999Y0099001N1+00501+00001999999ADDMA1101691999999REMMET046METAR EDJA 032020Z 22022KT CAVOK 05/M00 Q1017;
0073109470999992012010320504+47983+010233FM-15+0629EDJA V0202101N012919999999Y0099001N1+00501+00001999999ADDMA1101591999999REMMET046METAR EDJA 032050Z 21025KT CAVOK 05/M00 Q1016;
0129109470999992012010404504+47983+010233FM-15+0629EDJA V0202401N009310048019N0090001N1+00601+00401999999ADDGA1071+004801999GF107991999999999999999999MA1101191999999MW1631REMMET054METAR EDJA 040450Z 24018KT 9000 RA BKN016 06/04 Q1012;
0129109470999992012010405204+47983+010233FM-15+0629EDJA V0202901N008210027019N0090001N1+00401+00301999999ADDGA1071+002701999GF107991999999999999999999MA1101291999999MW1631REMMET054METAR EDJA 040520Z 29016KT 9000 RA BKN009 04/03 Q1013;
0129109470999992012010405504+47983+010233FM-15+0629EDJA V0203001N007210066019N0090001N1+00301+00201999999ADDGA1071+006601999GF107991999999999999999999MA1101391999999MW1631REMMET054METAR EDJA 040550Z 30014KT 9000 RA BKN022 03/02 Q1014;
0129109470999992012010406204+47983+010233FM-15+0629EDJA V0202701N006210045019N0070001N1+00301+00201999999ADDGA1071+004501999GF107991999999999999999999MA1101391999999MW1631REMMET054METAR EDJA 040620Z 27012KT 7000 RA BKN015 03/02 Q1014;
0152109470999992012010406504+47983+010233FM-15+0629EDJA V0202701N006710030019N0080001N1+00301+00201999999ADDGA1071+003001999GA2071+004801999GF107991999999999999999999MA1101491999999MW1631REMMET061METAR EDJA 040650Z 27013KT 8000 RA BKN010 BKN016 03/02 Q1015;
0130109470999992012010407204+47983+010233FM-15+0629EDJA V0202501N006210039019N0090001N1+00401+00201999999ADDGA1071+003901999GF107991999999999999999999MA1101591999999MW1611REMMET055METAR EDJA 040720Z 25012KT 9000 -RA BKN013 04/02 Q1016;
0153109470999992012010407504+47983+010233FM-15+0629EDJA V0202501N008210072019N0112651N1+00401+00101999999ADDGA1041+003901999GA2071+007201999GF107991999999999999999999MA1101691999999MW1611REMMET062METAR EDJA 040750Z 25016KT 9999 -RA SCT013 BKN024 04/01 Q1017;
0153109470999992012010408204+47983+010233FM-15+0629EDJA V0202401N009810090019N0112651N1+00401+00201999999ADDGA1041+005101999GA2071+009001999GF107991999999999999999999MA1101801999999MW1611REMMET062METAR EDJA 040820Z 24019KT 9999 -RA SCT017 BKN030 04/02 Q1018;
0143109470999992012010408504+47983+010233FM-15+0629EDJA V0202501N009310075019N0112651N1+00401+00201999999ADDGA1021+005401999GA2071+007501999GF107991999999999999999999MA1101801999999REMMET058METAR EDJA 040850Z 25018KT 9999 FEW018 BKN025 04/02 Q1018;
0154109470999992012010409204+47983+010233FM-15+0629EDJA V0202301N009310081019N0112651N1+00401+00201999999ADDGA1041+003601999GA2071+008101999GF107991999999999999999999MA1101901999999OC101441REMMET061METAR EDJA 040920Z 23018G28KT 9999 SCT012 BKN027 04/02 Q1019;
0166109470999992012010409504+47983+010233FM-15+0629EDJA V0202401N010310048019N0112651N1+00401+00201999999ADDGA1041+003601999GA2071+004801999GA3071+007501999GF107991999999999999999999MA1101901999999REMMET065METAR EDJA 040950Z 24020KT 9999 SCT012 BKN016 BKN025 04/02 Q1019;
0156109470999992012010410094+47983+010233FM-16+0629EDJA V0202501N010810012019N0020001N1+00201-00101999999ADDGA1081+001201999GF108991999999999999999999MA1102001999999MW1651MW2751OC101801REMMET067SPECI EDJA 041009Z 25021G35KT 2000 +RASN OVC004 02/M01 Q1020 RMK J;
0149109470999992012010410204+47983+010233FM-15+0629EDJA V0202701N011810012019N0020001N1+00101-00101999999ADDGA1071+001201999GF107991999999999999999999MA1102001999999MW1631MW2731OC101801REMMET060METAR EDJA 041020Z 27023G35KT 2000 SNRA BKN004 01/M01 Q1020;
0162109470999992012010410504+47983+010233FM-15+0629EDJA V0202601N006710105019N0048001N1+00201+00001999999ADDGA1021+003001999GA2071+010501999GF107991999999999999999999MA1102001999999MW1611MW2711REMMET065METAR EDJA 041050Z 26013KT 4800 -SNRA FEW010 BKN035 02/M00 Q1020;
0120109470999992012010411204+47983+010233FM-15+0629EDJA V0202601N007210150019N0112651N1+00201+00101999999ADDGA1071+015001999GF107991999999999999999999MA1102001999999REMMET051METAR EDJA 041120Z 26014KT 9999 BKN050 02/01 Q1020;
0120109470999992012010411504+47983+010233FM-15+0629EDJA V0202501N007712200019N0112651N1+00401+00101999999ADDGA1041+004501999GF104991999999999999999999MA1102001999999REMMET051METAR EDJA 041150Z 25015KT 9999 SCT015 04/01 Q1020;
0154109470999992012010412204+47983+010233FM-15+0629EDJA V0202701N009810054019N0112651N1+00301+00001999999ADDGA1021+003601999GA2071+005401999GF107991999999999999999999MA1102001999999MW1161REMMET063METAR EDJA 041220Z 27019KT 9999 VCSH FEW012 BKN018 03/00 Q1020;
0147109470999992012010412504+47983+010233FM-15+0629EDJA V0202701N009312200019N0112651N1+00301+00001999999ADDGA1021+004501999GA2041+009001021GF104991999999999999999999MA1102001999999REMMET062METAR EDJA 041250Z 27018KT 9999 FEW015 SCT030TCU 03/M00 Q1020;
0144109470999992012010413204+47983+010233FM-15+0629EDJA V0202801N010312200019N0112651N1+00401+00001999999ADDGA1021+004501999GA2041+009001999GF104991999999999999999999MA1102101999999REMMET059METAR EDJA 041320Z 28020KT 9999 FEW015 SCT030 04/M00 Q1021;
0121109470999992012010413504+47983+010233FM-15+0629EDJA V0202701N009310090019N0112651N1+00301-00101999999ADDGA1071+009001999GF107991999999999999999999MA1102201999999REMMET052METAR EDJA 041350Z 27018KT 9999 BKN030 03/M01 Q1022;
0121109470999992012010414204+47983+010233FM-15+0629EDJA V0202801N008210090019N0112651N1+00301-00101999999ADDGA1071+009001999GF107991999999999999999999MA1102201999999REMMET052METAR EDJA 041420Z 28016KT 9999 BKN030 03/M01 Q1022;
0121109470999992012010414504+47983+010233FM-15+0629EDJA V0202401N006210108019N0112651N1+00301-00101999999ADDGA1071+010801999GF107991999999999999999999MA1102301999999REMMET052METAR EDJA 041450Z 24012KT 9999 BKN036 03/M01 Q1023;
0121109470999992012010415204+47983+010233FM-15+0629EDJA V0202301N006210108019N0112651N1+00301-00201999999ADDGA1071+010801999GF107991999999999999999999MA1102201999999REMMET052METAR EDJA 041520Z 23012KT 9999 BKN036 03/M02 Q1022;
0121109470999992012010415504+47983+010233FM-15+0629EDJA V0202401N006710108019N0112651N1+00201-00101999999ADDGA1071+010801999GF107991999999999999999999MA1102301999999REMMET052METAR EDJA 041550Z 24013KT 9999 BKN036 02/M01 Q1023;
0144109470999992012010416204+47983+010233FM-15+0629EDJA V0202301N005710144019N0112651N1+00201-00101999999ADDGA1041+010501999GA2071+014401999GF107991999999999999999999MA1102301999999REMMET059METAR EDJA 041620Z 23011KT 9999 SCT035 BKN048 02/M01 Q1023;
0121109470999992012010416504+47983+010233FM-15+0629EDJA V0202401N006212200019N0112651N1+00201-00101999999ADDGA1041+014401999GF104991999999999999999999MA1102201999999REMMET052METAR EDJA 041650Z 24012KT 9999 SCT048 02/M01 Q1022;
0121109470999992012010417204+47983+010233FM-15+0629EDJA V0202201N006212200019N0112651N1+00101-00101999999ADDGA1041+013501999GF104991999999999999999999MA1102201999999REMMET052METAR EDJA 041720Z 22012KT 9999 SCT045 01/M01 Q1022;
0073109470999992012010417504+47983+010233FM-15+0629EDJA V0202301N006719999999Y0099001N1+00101-00101999999ADDMA1102301999999REMMET046METAR EDJA 041750Z 23013KT CAVOK 01/M01 Q1023;
0073109470999992012010418204+47983+010233FM-15+0629EDJA V0202401N006719999999Y0099001N1+00101-00101999999ADDMA1102301999999REMMET046METAR EDJA 041820Z 24013KT CAVOK 01/M01 Q1023;
0073109470999992012010418504+47983+010233FM-15+0629EDJA V0202301N007719999999Y0099001N1+00201-00201999999ADDMA1102201999999REMMET046METAR EDJA 041850Z 23015KT CAVOK 02/M02 Q1022;
0073109470999992012010419204+47983+010233FM-15+0629EDJA V0202401N008719999999Y0099001N1+00101-00201999999ADDMA1102201999999REMMET046METAR EDJA 041920Z 24017KT CAVOK 01/M02 Q1022;
0073109470999992012010419504+47983+010233FM-15+0629EDJA V0202301N008219999999Y0099001N1+00101-00201999999ADDMA1102201999999REMMET046METAR EDJA 041950Z 23016KT CAVOK 01/M02 Q1022;
0073109470999992012010420204+47983+010233FM-15+0629EDJA V0202201N008719999999Y0099001N1+00101-00201999999ADDMA1102201999999REMMET046METAR EDJA 042020Z 22017KT CAVOK 01/M02 Q1022;
0084109470999992012010420504+47983+010233FM-15+0629EDJA V0202201N008719999999Y0099001N1+00101-00201999999ADDMA1102101999999OC101441REMMET049METAR EDJA 042050Z 22017G28KT CAVOK 01/M02 Q1021;
0121109470999992012010504504+47983+010233FM-15+0629EDJA V0202301N012310120019N0112651N1+00301-00301999999ADDGA1071+012001999GF107991999999999999999999MA1100711999999REMMET052METAR EDJA 050450Z 23024KT 9999 BKN040 03/M03 Q1007;
0121109470999992012010505204+47983+010233FM-15+0629EDJA V0202301N009810105019N0112651N1+00401-00301999999ADDGA1071+010501999GF107991999999999999999999MA1100611999999REMMET052METAR EDJA 050520Z 23019KT 9999 BKN035 04/M03 Q1006;
0132109470999992012010505504+47983+010233FM-15+0629EDJA V0202401N017510108019N0112651N1+00501-00201999999ADDGA1071+010801999GF107991999999999999999999MA1100611999999OC102371REMMET055METAR EDJA 050550Z 24034G46KT 9999 BKN036 05/M02 Q1006;
0142109470999992012010506204+47983+010233FM-15+0629EDJA V0202301N014910075019N0112651N1+00401-00101999999ADDGA1071+007501999GF107991999999999999999999MA1100511999999MW1611OC102061REMMET059METAR EDJA 050620Z 23029G40KT 9999 -RA BKN025 04/M01 Q1005;
0164109470999992012010506504+47983+010233FM-15+0629EDJA V0202301N013410075019N0112651N1+00401+00001999999ADDGA1041+006001999GA2071+007501999GF107991999999999999999999MA1100511999999MW1611OC101901REMMET065METAR EDJA 050650Z 23026G37KT 9999 -RA SCT020 BKN025 04/00 Q1005;
0141109470999992012010507204+47983+010233FM-15+0629EDJA V0202301N012910048019N0090001N1+00301+00101999999ADDGA1071+004801999GF107991999999999999999999MA1100411999999MW1611OC101901REMMET058METAR EDJA 050720Z 23025G37KT 9000 -RA BKN016 03/01 Q1004;
0153109470999992012010507504+47983+010233FM-15+0629EDJA V0202301N013410036019N0080001N1+00301+00101999999ADDGA1071+003601999GA2071+005401999GF107991999999999999999999MA1100311999999MW1611REMMET062METAR EDJA 050750Z 23026KT 8000 -RA BKN012 BKN018 03/01 Q1003;
0153109470999992012010508204+47983+010233FM-15+0629EDJA V0202201N012910030019N0070001N1+00201+00101999999ADDGA1071+003001999GA2071+004801999GF107991999999999999999999MA1100311999999MW1611REMMET062METAR EDJA 050820Z 22025KT 7000 -RA BKN010 BKN016 02/01 Q1003;
0153109470999992012010508504+47983+010233FM-15+0629EDJA V0202201N012910030019N0070001N1+00201+00101999999ADDGA1071+003001999GA2071+004201999GF107991999999999999999999MA1100201999999MW1611REMMET062METAR EDJA 050850Z 22025KT 7000 -RA BKN010 BKN014 02/01 Q1002;
0164109470999992012010509204+47983+010233FM-15+0629EDJA V0202301N013910036019N0070001N1+00301+00101999999ADDGA1071+003601999GA2071+004801999GF107991999999999999999999MA1100101999999MW1611OC101901REMMET065METAR EDJA 050920Z 23027G37KT 7000 -RA BKN012 BKN016 03/01 Q1001;
0164109470999992012010509504+47983+010233FM-15+0629EDJA V0202301N014410036019N0080001N1+00301+00101999999ADDGA1071+003601999GA2071+004801999GF107991999999999999999999MA1100001999999MW1611OC101951REMMET065METAR EDJA 050950Z 23028G38KT 8000 -RA BKN012 BKN016 03/01 Q1000;
0141109470999992012010510204+47983+010233FM-15+0629EDJA V0202301N015410036019N0112651N1+00401+00101999999ADDGA1071+003601999GF107991999999999999999999MA1099901999999MW1611OC102061REMMET058METAR EDJA 051020Z 23030G40KT 9999 -RA BKN012 04/01 Q0999;
0141109470999992012010510504+47983+010233FM-15+0629EDJA V0202301N014910042019N0112651N1+00401+00101999999ADDGA1071+004201999GF107991999999999999999999MA1099801999999MW1611OC102211REMMET058METAR EDJA 051050Z 23029G43KT 9999 -RA BKN014 04/01 Q0998;
0141109470999992012010511204+47983+010233FM-15+0629EDJA V0202301N015410036019N0112651N1+00401+00201999999ADDGA1071+003601999GF107991999999999999999999MA1099701999999MW1611OC102061REMMET058METAR EDJA 051120Z 23030G40KT 9999 -RA BKN012 04/02 Q0997;
0141109470999992012010512204+47983+010233FM-15+0629EDJA V0202301N014910042019N0112651N1+00401+00201999999ADDGA1071+004201999GF107991999999999999999999MA1099491999999MW1611OC102111REMMET058METAR EDJA 051220Z 23029G41KT 9999 -RA BKN014 04/02 Q0995;
0143109470999992012010512504+47983+010233FM-15+0629EDJA V0202401N017510042019N0112651N1+00401+00101999999ADDGA1071+004201999GF107991999999999999999999MA1099391999999MW1801OC102421REMMET060METAR EDJA 051250Z 24034G47KT 9999 -SHRA BKN014 04/01 Q0994;
0141109470999992012010513204+47983+010233FM-15+0629EDJA V0202301N018010042019N0090001N1+00401+00201999999ADDGA1071+004201999GF107991999999999999999999MA1099291999999MW1611OC102421REMMET058METAR EDJA 051320Z 23035G47KT 9000 -RA BKN014 04/02 Q0993;
0143109470999992012010513504+47983+010233FM-15+0629EDJA V0202301N016510036019N0112651N1+00401+00201999999ADDGA1071+003601999GF107991999999999999999999MA1099191999999MW1801OC102421REMMET060METAR EDJA 051350Z 23032G47KT 9999 -SHRA BKN012 04/02 Q0992;
0134109470999992012010514204+47983+010233FM-15+0629EDJA V0202401N014410039019N0112651N1+00401+00201999999ADDGA1071+003901091GF107991999999999999999999MA1099191999999MW1801REMMET059METAR EDJA 051420Z 24028KT 9999 -SHRA BKN013CB 04/02 Q0992;
0165109470999992012010514414+47983+010233FM-16+0629EDJA V0202401N014910036019N0050001N1+00401+00201999999ADDGA1071+003601091GF107991999999999999999999MA1099191999999MW1101MW2811MW3951OC102061REMMET070SPECI EDJA 051441Z 24029G40KT 5000 TSRA BR BKN012CB 04/02 Q0992 RMK W;
0150109470999992012010514504+47983+010233FM-15+0629EDJA V0202401N015410039019N0040001N1+00401+00201999999ADDGA1071+003901091GF107991999999999999999999MA1099191999999MW1811MW2951OC102061REMMET061METAR EDJA 051450Z 24030G40KT 4000 TSRA BKN013CB 04/02 Q0992;
0153109470999992012010514514+47983+010233FM-16+0629EDJA V0203201N01231000151CN0009001N1+00101-00101999999ADDGA1071+000151999GF107991999999999999999999MA1099601999999MW1971OC101801REMMET070SPECI EDJA 051451Z 32024G35KT 0900 +TSSN BKN0003CB 01/M01 Q0996 RMK A;
0158109470999992012010514524+47983+010233FM-16+0629EDJA V0203201N011310009019N0009001N1+00101-00101999999ADDGA1071+000901091GF107991999999999999999999MA1099591999999MW1881MW2991OC101801REMMET069SPECI EDJA 051452Z 32022G35KT 0900 +TSGS BKN003CB 01/M01 Q0996 RMK Z;
0149109470999992012010515184+47983+010233FM-16+0629EDJA V0203001N008210012019N0011001N1+00001-00101999999ADDGA1081+001201999GF108991999999999999999999MA1099591999999MW1101MW2971REMMET068SPECI EDJA 051518Z 30016KT 1100 +TSSN BR OVC004 M00/M01 Q0996 RMK C;
0151109470999992012010515204+47983+010233FM-15+0629EDJA V0203001N008210012019N0011001N1+00001-00101999999ADDGA1081+001201091GF108991999999999999999999MA1099591999999MW1101MW2171MW3751REMMET064METAR EDJA 051520Z 30016KT 1100 +SNTS BR OVC004CB M00/M01 Q0996;
0145109470999992012010515474+47983+010233FM-16+0629EDJA V0202801N006210012019N0009001N1+00001+00001999999ADDGA1081+001201999GF108991999999999999999999MA1099701999999MW1441MW2731REMMET064SPECI EDJA 051547Z 28012KT 0900 SN FG OVC004 00/M00 Q0997 RMK D;
0143109470999992012010515504+47983+010233FM-15+0629EDJA V0202801N006210012019N0009001N1+00001+00001999999ADDGA1081+001201999GF108991999999999999999999MA1099701999999MW1441MW2951REMMET062METAR EDJA 051550Z 28012KT 0900 RETSSN FG OVC004 00/M00 Q0997;
0153109470999992012010516004+47983+010233FM-15+0629EDJA V0202701N005710012019N0020001N1+00001+00001999999ADDGA1081+001201999GF108991999999999999999999MA1099701999999MW1101MW2731REMMET072SPECI EDJA 051559Z 27011KT 2000 SN BR OVC004 M00/M00 Q0997 RETSSN RMK E;
0158109470999992012010516204+47983+010233FM-15+0629EDJA V0202601N004610012019N0048001N1+00001+00001999999ADDGA1071+001201999GA2071+003001999GF107991999999999999999999MA1099591999999MW1101REMMET067METAR EDJA 051620Z 26009KT 4800 BR BKN004 BKN010 00/M00 Q0996 RESN;
0144109470999992012010516504+47983+010233FM-15+0629EDJA V0202401N005110042019N0070001N1+00001+00001999999ADDGA1071+004201999GA2071+013501999GF107991999999999999999999MA1099701999999REMMET059METAR EDJA 051650Z 24010KT 7000 BKN014 BKN045 00/M00 Q0997;
0150109470999992012010517164+47983+010233FM-16+0629EDJA V0202301N007210048019N0080001N1+00101+00001999999ADDGA1041+003301999GA2071+004801999GF107991999999999999999999MA1099801999999REMMET065SPECI EDJA 051716Z 23014KT 8000 SCT011 BKN016 01/M00 Q0998 RMK K;
0121109470999992012010517204+47983+010233FM-15+0629EDJA V0202301N007210054019N0080001N1+00001+00001999999ADDGA1071+005401999GF107991999999999999999999MA1099901999999REMMET052METAR EDJA 051720Z 23014KT 8000 BKN018 00/M00 Q0999;
0144109470999992012010517504+47983+010233FM-15+0629EDJA V0202301N008210093019N0080001N1+00101+00001999999ADDGA1041+004201999GA2071+009301999GF107991999999999999999999MA1099901999999REMMET059METAR EDJA 051750Z 23016KT 8000 SCT014 BKN031 01/M00 Q0999;
0144109470999992012010518204+47983+010233FM-15+0629EDJA V0202201N008210066019N0080001N1+00101+00001999999ADDGA1041+004201999GA2071+006601999GF107991999999999999999999MA1099901999999REMMET059METAR EDJA 051820Z 22016KT 8000 SCT014 BKN022 01/M00 Q0999;
0161109470999992012010518504+47983+010233FM-15+0629EDJA V0202301N008710048019N0070001N1+00101+00001999999ADDGA1041+001501999GA2071+004801999GF107991999999999999999999MA1099901999999MW1631MW2731REMMET064METAR EDJA 051850Z 23017KT 7000 SNRA SCT005 BKN016 01/M00 Q0999;
0184109470999992012010519204+47983+010233FM-15+0629EDJA V0202401N008210048019N0090001N1+00101+00001999999ADDGA1041+002701999GA2071+004801999GA3071+009001999GF107991999999999999999999MA1100001999999MW1611MW2711REMMET071METAR EDJA 051920Z 24016KT 9000 -SNRA SCT009 BKN016 BKN030 01/00 Q1000;
0144109470999992012010519504+47983+010233FM-15+0629EDJA V0202301N007710051019N0080001N1+00101+00001999999ADDGA1041+003601999GA2071+005101999GF107991999999999999999999MA1100001999999REMMET059METAR EDJA 051950Z 23015KT 8000 SCT012 BKN017 01/M00 Q1000;
0139109470999992012010520204+47983+010233FM-15+0629EDJA V0202301N007210027019N0080001N1+00101+00001999999ADDGA1071+002701999GF107991999999999999999999MA1100001999999MW1611MW2711REMMET058METAR EDJA 052020Z 23014KT 8000 -SNRA BKN009 01/M00 Q1000;
0162109470999992012010520504+47983+010233FM-15+0629EDJA V0202301N007210030019N0090001N1+00101+00001999999ADDGA1071+003001999GA2071+007501999GF107991999999999999999999MA1100001999999MW1611MW2711REMMET065METAR EDJA 052050Z 23014KT 9000 -SNRA BKN010 BKN025 01/M00 Q1000;
0132109470999992012010604504+47983+010233FM-15+0629EDJA V0202601N005710054019N0112651N1-00101-00201999999ADDGA1071+005401999GF107991999999999999999999MA1100811999999MW1711REMMET057METAR EDJA 060450Z 26011KT 9999 -SN BKN018 M01/M02 Q1008;
0132109470999992012010605204+47983+010233FM-15+0629EDJA V0202601N006210048019N0112651N1+00001-00201999999ADDGA1071+004801999GF107991999999999999999999MA1100911999999MW1711REMMET057METAR EDJA 060520Z 26012KT 9999 -SN BKN016 M00/M02 Q1009;
0122109470999992012010605504+47983+010233FM-15+0629EDJA V0202601N006710048019N0112651N1+00001-00201999999ADDGA1071+004801999GF107991999999999999999999MA1100911999999REMMET053METAR EDJA 060550Z 26013KT 9999 BKN016 M00/M02 Q1009;
0122109470999992012010606204+47983+010233FM-15+0629EDJA V0202601N007210063019N0112651N1+00001-00201999999ADDGA1071+006301999GF107991999999999999999999MA1100911999999REMMET053METAR EDJA 060620Z 26014KT 9999 BKN021 M00/M02 Q1009;
0121109470999992012010606504+47983+010233FM-15+0629EDJA V0202701N006710063019N0112651N1+00001-00201999999ADDGA1071+006301999GF107991999999999999999999MA1101021999999REMMET052METAR EDJA 060650Z 27013KT 9999 BKN021 00/M02 Q1010;
0121109470999992012010607204+47983+010233FM-15+0629EDJA V0202601N005712200019N0112651N1+00001-00201999999ADDGA1041+006001999GF104991999999999999999999MA1101081999999REMMET052METAR EDJA 060720Z 26011KT 9999 SCT020 00/M02 Q1011;
0121109470999992012010607504+47983+010233FM-15+0629EDJA V0202601N005110054019N0112651N1+00001-00201999999ADDGA1071+005401999GF107991999999999999999999MA1101081999999REMMET052METAR EDJA 060750Z 26010KT 9999 BKN018 00/M02 Q1011;
0121109470999992012010608204+47983+010233FM-15+0629EDJA V0202601N006710063019N0112651N1+00001-00201999999ADDGA1071+006301999GF107991999999999999999999MA1101081999999REMMET052METAR EDJA 060820Z 26013KT 9999 BKN021 00/M02 Q1011;
0121109470999992012010608504+47983+010233FM-15+0629EDJA V0202601N006710054019N0112651N1+00001-00201999999ADDGA1071+005401999GF107991999999999999999999MA1101191999999REMMET052METAR EDJA 060850Z 26013KT 9999 BKN018 00/M02 Q1012;
0121109470999992012010609204+47983+010233FM-15+0629EDJA V0202501N007210051019N0080001N1+00001-00201999999ADDGA1071+005101999GF107991999999999999999999MA1101291999999REMMET052METAR EDJA 060920Z 25014KT 8000 BKN017 00/M02 Q1013;
0121109470999992012010609504+47983+010233FM-15+0629EDJA V0202601N007710051019N0112651N1+00001-00201999999ADDGA1071+005101999GF107991999999999999999999MA1101291999999REMMET052METAR EDJA 060950Z 26015KT 9999 BKN017 00/M02 Q1013;
0130109470999992012010610204+47983+010233FM-15+0629EDJA V0202701N007710045019N0030001N1+00101-00101999999ADDGA1071+004501999GF107991999999999999999999MA1101291999999MW1731REMMET055METAR EDJA 061020Z 27015KT 3000 SN BKN015 01/M01 Q1013;
0121109470999992012010610504+47983+010233FM-15+0629EDJA V0202701N006210039019N0090001N1+00001-00101999999ADDGA1071+003901999GF107991999999999999999999MA1101391999999REMMET052METAR EDJA 061050Z 27012KT 9000 BKN013 00/M01 Q1014;
0132109470999992012010611204+47983+010233FM-15+0629EDJA V0202801N008210039019N0090001N1+00101-00101999999ADDGA1071+003901999GF107991999999999999999999MA1101391999999MW1161REMMET057METAR EDJA 061120Z 28016KT 9000 VCSH BKN013 01/M01 Q1014;
0138109470999992012010611254+47983+010233FM-16+0629EDJA V0202801N008210030019N0035001N1+00101-00101999999ADDGA1071+003001999GF107991999999999999999999MA1101391999999MW1861REMMET063SPECI EDJA 061125Z 28016KT 3500 SHSN BKN010 01/M01 Q1014 RMK P;
0121109470999992012010611504+47983+010233FM-15+0629EDJA V0202801N008210036019N0112651N1+00001-00101999999ADDGA1071+003601999GF107991999999999999999999MA1101391999999REMMET052METAR EDJA 061150Z 28016KT 9999 BKN012 00/M01 Q1014;
0121109470999992012010612204+47983+010233FM-15+0629EDJA V0202801N006710030019N0060001N1+00101-00101999999ADDGA1071+003001999GF107991999999999999999999MA1101491999999REMMET052METAR EDJA 061220Z 28013KT 6000 BKN010 01/M01 Q1015;
0133109470999992012010612504+47983+010233FM-15+0629EDJA V0202701N006210027019N0112651N1+00101-00101999999ADDGA1071+002701999GF107991999999999999999999MA1101491999999MW1851REMMET058METAR EDJA 061250Z 27012KT 9999 -SHSN BKN009 01/M01 Q1015;
0138109470999992012010613204+47983+010233FM-15+0629EDJA V0202601N004610018019N0030001N1+00001+00001999999ADDGA1071+001801999GF107991999999999999999999MA1101591999999MW1731REMMET063METAR EDJA 061320Z 26009KT 200V270 3000 SN BKN006 00/M00 Q1016;
0130109470999992012010613504+47983+010233FM-15+0629EDJA V0202701N005110021019N0040001N1+00101+00001999999ADDGA1071+002101999GF107991999999999999999999MA1101591999999MW1101REMMET055METAR EDJA 061350Z 27010KT 4000 BR BKN007 01/M00 Q1016;
0132109470999992012010614204+47983+010233FM-15+0629EDJA V0202701N004610018019N0112651N1+00101+00001999999ADDGA1071+001801999GF107991999999999999999999MA1101691999999MW1161REMMET057METAR EDJA 061420Z 27009KT 9999 VCSH BKN006 01/M00 Q1017;
0132109470999992012010614504+47983+010233FM-15+0629EDJA V0202501N004610021019N0112651N1+00101+00001999999ADDGA1071+002101999GF107991999999999999999999MA1101801999999MW1161REMMET057METAR EDJA 061450Z 25009KT 9999 VCSH BKN007 01/M00 Q1018;
0132109470999992012010615204+47983+010233FM-15+0629EDJA V0202601N005710030019N0080001N1+00101+00001999999ADDGA1071+003001999GF107991999999999999999999MA1101801999999MW1161REMMET057METAR EDJA 061520Z 26011KT 8000 VCSH BKN010 01/M00 Q1018;
0145109470999992012010615274+47983+010233FM-16+0629EDJA V0202601N006210018019N0030001N1+00101+00001999999ADDGA1071+001801999GF107991999999999999999999MA1101801999999MW1101MW2731REMMET064SPECI EDJA 061527Z 26012KT 3000 SN BR BKN006 01/M00 Q1018 RMK Y;
0140109470999992012010615504+47983+010233FM-15+0629EDJA V0202701N006210018019N0030001N1+00101+00001999999ADDGA1071+001801999GF107991999999999999999999MA1101901999999MW1101MW2711REMMET059METAR EDJA 061550Z 27012KT 3000 -SN BR BKN006 01/M00 Q1019;
0121109470999992012010616204+47983+010233FM-15+0629EDJA V0202801N006210018019N0060001N1+00101+00001999999ADDGA1071+001801999GF107991999999999999999999MA1102001999999REMMET052METAR EDJA 061620Z 28012KT 6000 BKN006 01/M00 Q1020;
0121109470999992012010617204+47983+010233FM-15+0629EDJA V0202601N005710018019N0112651N1+00101+00001999999ADDGA1071+001801999GF107991999999999999999999MA1102101999999REMMET052METAR EDJA 061720Z 26011KT 9999 BKN006 01/M00 Q1021;
0121109470999992012010617504+47983+010233FM-15+0629EDJA V0202601N005110018019N0112651N1+00101+00001999999ADDGA1071+001801999GF107991999999999999999999MA1102101999999REMMET052METAR EDJA 061750Z 26010KT 9999 BKN006 01/M00 Q1021;
0133109470999992012010618204+47983+010233FM-15+0629EDJA V0202401N005710018019N0112651N1+00101+00001999999ADDGA1071+001801999GF107991999999999999999999MA1102201999999MW1851REMMET058METAR EDJA 061820Z 24011KT 9999 -SHSN BKN006 01/M00 Q1022;
0121109470999992012010619204+47983+010233FM-15+0629EDJA V0202401N005110039019N0112651N1+00101+00001999999ADDGA1071+003901999GF107991999999999999999999MA1102201999999REMMET052METAR EDJA 061920Z 24010KT 9999 BKN013 01/M00 Q1022;
0121109470999992012010619504+47983+010233FM-15+0629EDJA V0202501N005710060019N0112651N1+00101+00001999999ADDGA1071+006001999GF107991999999999999999999MA1102301999999REMMET052METAR EDJA 061950Z 25011KT 9999 BKN020 01/M00 Q1023;
0121109470999992012010620204+47983+010233FM-15+0629EDJA V0202501N007210060019N0112651N1+00101+00001999999ADDGA1071+006001999GF107991999999999999999999MA1102301999999REMMET052METAR EDJA 062020Z 25014KT 9999 BKN020 01/M00 Q1023;
0121109470999992012010704504+47983+010233FM-15+0629EDJA V0202401N008210060019N0112651N1+00001-00301999999ADDGA1071+006001999GF107991999999999999999999MA1102201999999REMMET052METAR EDJA 070450Z 24016KT 9999 BKN020 00/M03 Q1022;
0121109470999992012010705204+47983+010233FM-15+0629EDJA V0202401N009312200019N0112651N1+00001-00301999999ADDGA1041+006001999GF104991999999999999999999MA1102201999999REMMET052METAR EDJA 070520Z 24018KT 9999 SCT020 00/M03 Q1022;
0122109470999992012010705504+47983+010233FM-15+0629EDJA V0202401N007212200019N0112651N1+00001-00301999999ADDGA1041+006001999GF104991999999999999999999MA1102201999999REMMET053METAR EDJA 070550Z 24014KT 9999 SCT020 M00/M03 Q1022;
0122109470999992012010706204+47983+010233FM-15+0629EDJA V0202301N009812200019N0112651N1+00001-00301999999ADDGA1041+006001999GF104991999999999999999999MA1102201999999REMMET053METAR EDJA 070620Z 23019KT 9999 SCT020 M00/M03 Q1022;
0121109470999992012010706504+47983+010233FM-15+0629EDJA V0202401N009312200019N0112651N1+00001-00301999999ADDGA1041+006001999GF104991999999999999999999MA1102201999999REMMET052METAR EDJA 070650Z 24018KT 9999 SCT020 00/M03 Q1022;
0150109470999992012010707204+47983+010233FM-15+0629EDJA V0202201N00981024001CN9999999N1+00001-00301999999ADDGA1021+006001999GA2041+024001999GF106991999999999999999999MA1102201999999OC101541REMMET057METAR EDJA 070720Z 22019G30KT FEW020 SCT080 00/M03 Q1022;
0144109470999992012010707504+47983+010233FM-15+0629EDJA V0202301N008712200019N0112651N1+00001-00301999999ADDGA1021+006001999GA2041+024001999GF104991999999999999999999MA1102201999999REMMET059METAR EDJA 070750Z 23017KT 9999 FEW020 SCT080 00/M03 Q1022;
0121109470999992012010708204+47983+010233FM-15+0629EDJA V0202301N010810141019N0112651N1+00101-00301999999ADDGA1071+014101999GF107991999999999999999999MA1102101999999REMMET052METAR EDJA 070820Z 23021KT 9999 BKN047 01/M03 Q1021;
0136109470999992012010708454+47983+010233FM-16+0629EDJA V0202301N008710108019N0090001N1+00101-00301999999ADDGA1071+010801999GF107991999999999999999999MA1102101999999MW1731REMMET061SPECI EDJA 070845Z 23017KT 9000 SN BKN036 01/M03 Q1021 RMK J;
0121109470999992012010708504+47983+010233FM-15+0629EDJA V0202301N008710075019N0112651N1+00101-00301999999ADDGA1071+007501999GF107991999999999999999999MA1102101999999REMMET052METAR EDJA 070850Z 23017KT 9999 BKN025 01/M03 Q1021;
0141109470999992012010709504+47983+010233FM-15+0629EDJA V0202201N011310090019N0045001N1+00001-00201999999ADDGA1071+009001999GF107991999999999999999999MA1102001999999MW1731OC101651REMMET058METAR EDJA 070950Z 22022G32KT 4500 SN BKN030 00/M02 Q1020;
0165109470999992012010710204+47983+010233FM-15+0629EDJA V0202201N010810090019N0045001N1+00001-00201999999ADDGA1021+003001999GA2071+009001999GF107991999999999999999999MA1102001999999MW1711OC101591REMMET066METAR EDJA 071020Z 22021G31KT 4500 -SN FEW010 BKN030 00/M02 Q1020;
0131109470999992012010710504+47983+010233FM-15+0629EDJA V0202301N012310030019N0028001N1+00001-00201999999ADDGA1081+003001999GF108991999999999999999999MA1101901999999MW1731REMMET056METAR EDJA 071050Z 23024KT 2800 SN OVC010 M00/M02 Q1019;
0177109470999992012010711504+47983+010233FM-15+0629EDJA V0202201N012310015019N0035001N1+00001-00101999999ADDGA1071+001501999GA2071+003901999GF107991999999999999999999MA1101901999999MW1101MW2851OC101751REMMET072METAR EDJA 071150Z 22024G34KT 3500 -SHSN BR BKN005 BKN013 M00/M01 Q1019;
0171109470999992012010712014+47983+010233FM-16+0629EDJA V0202201N012310012019N0012001N1+00001-00101999999ADDGA1071+001201999GA2071+002401999GF107991999999999999999999MA1101801999999MW1101MW2861REMMET074SPECI EDJA 071201Z 22024KT 1200 SHSN BR BKN004 BKN008 M00/M01 Q1018 RMK S;
0155109470999992012010712204+47983+010233FM-15+0629EDJA V0202201N012310030019N0070001N1+00001-00101999999ADDGA1071+003001999GA2071+009001999GF107991999999999999999999MA1101801999999MW1711REMMET064METAR EDJA 071220Z 22024KT 7000 -SN BKN010 BKN030 M00/M01 Q1018;
0166109470999992012010712504+47983+010233FM-15+0629EDJA V0202301N012310024019N0030001N1+00001-00101999999ADDGA1071+002401999GA2071+004801999GF107991999999999999999999MA1101801999999MW1711OC101751REMMET067METAR EDJA 071250Z 23024G34KT 3000 -SN BKN008 BKN016 M00/M01 Q1018;
0131109470999992012010713204+47983+010233FM-15+0629EDJA V0202301N012910033019N0045001N1+00001-00101999999ADDGA1071+003301999GF107991999999999999999999MA1101801999999MW1711REMMET056METAR EDJA 071320Z 23025KT 4500 -SN BKN011 00/M01 Q1018;
0131109470999992012010713504+47983+010233FM-15+0629EDJA V0202201N012910030019N0035001N1+00001-00101999999ADDGA1071+003001999GF107991999999999999999999MA1101691999999MW1711REMMET056METAR EDJA 071350Z 22025KT 3500 -SN BKN010 00/M01 Q1017;
0121109470999992012010714204+47983+010233FM-15+0629EDJA V0202201N011310027019N0112651N1+00001-00101999999ADDGA1071+002701999GF107991999999999999999999MA1101801999999REMMET052METAR EDJA 071420Z 22022KT 9999 BKN009 00/M01 Q1018;
0121109470999992012010714504+47983+010233FM-15+0629EDJA V0202301N010810027019N0112651N1+00101+00001999999ADDGA1071+002701999GF107991999999999999999999MA1101691999999REMMET052METAR EDJA 071450Z 23021KT 9999 BKN009 01/M00 Q1017;
0121109470999992012010715204+47983+010233FM-15+0629EDJA V0202301N010810027019N0112651N1+00101+00001999999ADDGA1071+002701999GF107991999999999999999999MA1101691999999REMMET052METAR EDJA 071520Z 23021KT 9999 BKN009 01/M00 Q1017;
0121109470999992012010715504+47983+010233FM-15+0629EDJA V0202301N010810024019N0090001N1+00101+00001999999ADDGA1071+002401999GF107991999999999999999999MA1101691999999REMMET052METAR EDJA 071550Z 23021KT 9000 BKN008 01/M00 Q1017;
0120109470999992012010716204+47983+010233FM-15+0629EDJA V0202301N010810024019N0112651N1+00101+00001999999ADDGA1071+002401999GF107991999999999999999999MA1101691999999REMMET051METAR EDJA 071620Z 23021KT 9999 BKN008 01/00 Q1017;
0120109470999992012010716504+47983+010233FM-15+0629EDJA V0202301N009810024019N0090001N1+00101+00001999999ADDGA1071+002401999GF107991999999999999999999MA1101691999999REMMET051METAR EDJA 071650Z 23019KT 9000 BKN008 01/00 Q1017;
0120109470999992012010717204+47983+010233FM-15+0629EDJA V0202301N009310024019N0112651N1+00101+00001999999ADDGA1071+002401999GF107991999999999999999999MA1101691999999REMMET051METAR EDJA 071720Z 23018KT 9999 BKN008 01/00 Q1017;
0120109470999992012010717504+47983+010233FM-15+0629EDJA V0202401N008710024019N0090001N1+00201+00001999999ADDGA1071+002401999GF107991999999999999999999MA1101691999999REMMET051METAR EDJA 071750Z 24017KT 9000 BKN008 02/00 Q1017;
0130109470999992012010718204+47983+010233FM-15+0629EDJA V0202301N009310027019N0112651N1+00201+00101999999ADDGA1071+002701999GF107991999999999999999999MA1101691999999MW1611REMMET055METAR EDJA 071820Z 23018KT 9999 -RA BKN009 02/01 Q1017;
0129109470999992012010719204+47983+010233FM-15+0629EDJA V0202401N008710027019N0070001N1+00201+00101999999ADDGA1071+002701999GF107991999999999999999999MA1101801999999MW1631REMMET054METAR EDJA 071920Z 24017KT 7000 RA BKN009 02/01 Q1018;
0130109470999992012010719504+47983+010233FM-15+0629EDJA V0202701N006710030019N0070001N1+00201+00101999999ADDGA1071+003001999GF107991999999999999999999MA1101901999999MW1611REMMET055METAR EDJA 071950Z 27013KT 7000 -RA BKN010 02/01 Q1019;
0153109470999992012010720204+47983+010233FM-15+0629EDJA V0202601N005110150019N0112651N1+00101+00001999999ADDGA1041+003001999GA2071+015001999GF107991999999999999999999MA1101901999999MW1611REMMET062METAR EDJA 072020Z 26010KT 9999 -RA SCT010 BKN050 01/00 Q1019;
0121109470999992012010804504+47983+010233FM-15+0629EDJA V0202501N006210150019N0090001N1+00201-00101999999ADDGA1071+015001999GF107991999999999999999999MA1101901999999REMMET052METAR EDJA 080450Z 25012KT 9000 BKN059 02/M01 Q1019;
0072109470999992012010805204+47983+010233FM-15+0629EDJA V0202501N006712200019N0112651N1+00201-00101999999ADDMA1101901999999REMMET045METAR EDJA 080520Z 25013KT 9999 02/M01 Q1019;
0144109470999992012010805504+47983+010233FM-15+0629EDJA V0202501N006210150019N0090001N1+00201-00101999999ADDGA1041+012001999GA2071+015001999GF107991999999999999999999MA1101901999999REMMET059METAR EDJA 080550Z 25012KT 9000 SCT040 BKN058 02/M01 Q1019;
0144109470999992012010806204+47983+010233FM-15+0629EDJA V0202501N006710150019N0090001N1+00201-00101999999ADDGA1021+003001999GA2071+015001999GF107991999999999999999999MA1101901999999REMMET059METAR EDJA 080620Z 25013KT 9000 FEW010 BKN055 02/M01 Q1019;
0162109470999992012010806504+47983+010233FM-15+0629EDJA V0202301N006210150019N0090001N1+00101+00001999999ADDGA1021+004501999GA2071+015001999GF107991999999999999999999MA1101901999999MW1611MW2711REMMET065METAR EDJA 080650Z 23012KT 9000 -SNRA FEW015 BKN050 01/M00 Q1019;
0139109470999992012010807204+47983+010233FM-15+0629EDJA V0202501N006710036019N0070001N1+00101+00001999999ADDGA1071+003601999GF107991999999999999999999MA1101901999999MW1611MW2711REMMET058METAR EDJA 080720Z 25013KT 7000 -SNRA BKN012 01/M00 Q1019;
0139109470999992012010807504+47983+010233FM-15+0629EDJA V0202401N005710030019N0050001N1+00101+00001999999ADDGA1071+003001999GF107991999999999999999999MA1102001999999MW1611MW2711REMMET058METAR EDJA 080750Z 24011KT 5000 -RASN BKN010 01/M00 Q1020;
0154109470999992012010808204+47983+010233FM-15+0629EDJA V0202401N005110015019N0040001N1+00101+00001999999ADDGA1071+001501999GA2071+007501999GF107991999999999999999999MA1102001999999MW1711REMMET063METAR EDJA 080820Z 24010KT 4000 -SN BKN005 BKN025 01/M00 Q1020;
0153109470999992012010808504+47983+010233FM-15+0629EDJA V0202301N005110030019N0070001N1+00101+00001999999ADDGA1071+003001999GA2071+010501999GF107991999999999999999999MA1102001999999MW1611REMMET062METAR EDJA 080850Z 23010KT 7000 -RA BKN010 BKN035 01/00 Q1020;
0143109470999992012010809204+47983+010233FM-15+0629EDJA V0202401N006210030019N0112651N1+00101+00001999999ADDGA1071+003001999GA2071+012001999GF107991999999999999999999MA1102001999999REMMET058METAR EDJA 080920Z 24012KT 9999 BKN010 BKN040 01/00 Q1020;
0143109470999992012010809504+47983+010233FM-15+0629EDJA V0202401N007710036019N0112651N1+00201+00001999999ADDGA1071+003601999GA2071+009001999GF107991999999999999999999MA1102001999999REMMET058METAR EDJA 080950Z 24015KT 9999 BKN012 BKN030 02/00 Q1020;
0143109470999992012010810204+47983+010233FM-15+0629EDJA V0202501N007210024019N0112651N1+00101+00001999999ADDGA1071+002401999GA2071+009901999GF107991999999999999999999MA1102001999999REMMET058METAR EDJA 081020Z 25014KT 9999 BKN008 BKN033 01/00 Q1020;
0143109470999992012010810504+47983+010233FM-15+0629EDJA V0202601N006710075019N0112651N1+00201+00001999999ADDGA1021+002401999GA2071+007501999GF107991999999999999999999MA1101901999999REMMET058METAR EDJA 081050Z 26013KT 9999 FEW008 BKN025 02/00 Q1019;
0120109470999992012010811504+47983+010233FM-15+0629EDJA V0202701N006710045019N0112651N1+00201+00001999999ADDGA1071+004501999GF107991999999999999999999MA1101901999999REMMET051METAR EDJA 081150Z 27013KT 9999 BKN015 02/00 Q1019;
0120109470999992012010812204+47983+010233FM-15+0629EDJA V0202701N006210045019N0112651N1+00201+00001999999ADDGA1071+004501999GF107991999999999999999999MA1101901999999REMMET051METAR EDJA 081220Z 27012KT 9999 BKN015 02/00 Q1019;
0120109470999992012010812504+47983+010233FM-15+0629EDJA V0202601N006210045019N0112651N1+00201+00001999999ADDGA1071+004501999GF107991999999999999999999MA1101901999999REMMET051METAR EDJA 081250Z 26012KT 9999 BKN015 02/00 Q1019;
0143109470999992012010813204+47983+010233FM-15+0629EDJA V0202601N005110060019N0112651N1+00201+00001999999ADDGA1041+004501999GA2071+006001999GF107991999999999999999999MA1101901999999REMMET058METAR EDJA 081320Z 26010KT 9999 SCT015 BKN020 02/00 Q1019;
0143109470999992012010813504+47983+010233FM-15+0629EDJA V0202601N005710066019N0112651N1+00301+00001999999ADDGA1041+004501999GA2071+006601999GF107991999999999999999999MA1102001999999REMMET058METAR EDJA 081350Z 26011KT 9999 SCT015 BKN022 03/00 Q1020;
0153109470999992012010814204+47983+010233FM-15+0629EDJA V0202701N006210039019N0112651N1+00201+00001999999ADDGA1041+003001999GA2071+003901999GF107991999999999999999999MA1102001999999MW1611REMMET062METAR EDJA 081420Z 27012KT 9999 -RA SCT010 BKN013 02/00 Q1020;
0143109470999992012010814504+47983+010233FM-15+0629EDJA V0202701N005710069019N0090001N1+00201+00001999999ADDGA1041+004801999GA2071+006901999GF107991999999999999999999MA1102001999999REMMET058METAR EDJA 081450Z 27011KT 9000 SCT016 BKN023 02/00 Q1020;
0143109470999992012010815204+47983+010233FM-15+0629EDJA V0202701N004612200019N0090001N1+00201+00001999999ADDGA1041+004201999GA2041+012001999GF104991999999999999999999MA1102101999999REMMET058METAR EDJA 081520Z 27009KT 9000 SCT014 SCT040 02/00 Q1021;
0144109470999992012010815504+47983+010233FM-15+0629EDJA V0202701N004110141019N0112651N1+00101+00001999999ADDGA1041+006001999GA2071+014101999GF107991999999999999999999MA1102101999999REMMET059METAR EDJA 081550Z 27008KT 9999 SCT020 BKN047 01/M00 Q1021;
0144109470999992012010816204+47983+010233FM-15+0629EDJA V0202701N004110144019N0112651N1+00101+00001999999ADDGA1041+005101999GA2071+014401999GF107991999999999999999999MA1102101999999REMMET059METAR EDJA 081620Z 27008KT 9999 SCT017 BKN048 01/M00 Q1021;
0143109470999992012010816504+47983+010233FM-15+0629EDJA V0202401N003110108019N0112651N1+00101+00001999999ADDGA1021+005101999GA2071+010801999GF107991999999999999999999MA1102201999999REMMET058METAR EDJA 081650Z 24006KT 9999 FEW017 BKN036 01/00 Q1022;
0154109470999992012010817204+47983+010233FM-15+0629EDJA V0202501N004610090019N0070001N1+00101+00001999999ADDGA1021+003001999GA2071+009001999GF107991999999999999999999MA1102201999999MW1711REMMET063METAR EDJA 081720Z 25009KT 7000 -SN FEW010 BKN030 01/M00 Q1022;
0144109470999992012010817504+47983+010233FM-15+0629EDJA V0202401N004110129019N0112651N1+00101+00001999999ADDGA1021+002401999GA2071+012901999GF107991999999999999999999MA1102201999999REMMET059METAR EDJA 081750Z 24008KT 9999 FEW008 BKN043 01/M00 Q1022;
0073109470999992012010818204+47983+010233FM-15+0629EDJA V0202501N003619999999Y0099001N1+00101+00001999999ADDMA1102201999999REMMET046METAR EDJA 081820Z 25007KT CAVOK 01/M00 Q1022;
0073109470999992012010818504+47983+010233FM-15+0629EDJA V0202601N003619999999Y0099001N1+00101-00101999999ADDMA1102201999999REMMET046METAR EDJA 081850Z 26007KT CAVOK 01/M01 Q1022;
0121109470999992012010819204+47983+010233FM-15+0629EDJA V0202601N004110141019N0112651N1+00101-00101999999ADDGA1071+014101999GF107991999999999999999999MA1102301999999REMMET052METAR EDJA 081920Z 26008KT 9999 BKN047 01/M01 Q1023;
0121109470999992012010819504+47983+010233FM-15+0629EDJA V0202701N004610129019N0112651N1+00101-00101999999ADDGA1071+012901999GF107991999999999999999999MA1102301999999REMMET052METAR EDJA 081950Z 27009KT 9999 BKN043 01/M01 Q1023;
0144109470999992012010820204+47983+010233FM-15+0629EDJA V0202701N004610138019N0112651N1+00101-00101999999ADDGA1021+003001999GA2071+013801999GF107991999999999999999999MA1102301999999REMMET059METAR EDJA 082020Z 27009KT 9999 FEW010 BKN046 01/M01 Q1023;
0144109470999992012010820504+47983+010233FM-15+0629EDJA V0202601N006210141019N0112651N1+00101+00001999999ADDGA1021+003001999GA2071+014101999GF107991999999999999999999MA1102301999999REMMET059METAR EDJA 082050Z 26012KT 9999 FEW010 BKN047 01/M00 Q1023;
0121109470999992012010904504+47983+010233FM-15+0629EDJA V0202401N004610039019N0080001N1+00101+00001999999ADDGA1071+003901999GF107991999999999999999999MA1102711999999REMMET052METAR EDJA 090450Z 24009KT 8000 BKN013 01/M00 Q1027;
0144109470999992012010905204+47983+010233FM-15+0629EDJA V0202401N004110042019N0090001N1+00101+00001999999ADDGA1071+004201999GA2071+015001999GF107991999999999999999999MA1102711999999REMMET059METAR EDJA 090520Z 24008KT 9000 BKN014 BKN054 01/M00 Q1027;
0144109470999992012010905504+47983+010233FM-15+0629EDJA V0202301N003610042019N0090001N1+00101+00001999999ADDGA1071+004201999GA2071+015001999GF107991999999999999999999MA1102711999999REMMET059METAR EDJA 090550Z 23007KT 9000 BKN014 BKN050 01/M00 Q1027;
0144109470999992012010906204+47983+010233FM-15+0629EDJA V0202401N004610150019N0090001N1+00101+00001999999ADDGA1041+004201999GA2071+015001999GF107991999999999999999999MA1102711999999REMMET059METAR EDJA 090620Z 24009KT 9000 SCT014 BKN053 01/M00 Q1027;
0121109470999992012010906504+47983+010233FM-15+0629EDJA V0202301N003610054019N0090001N1+00101+00001999999ADDGA1071+005401999GF107991999999999999999999MA1102811999999REMMET052METAR EDJA 090650Z 23007KT 9000 BKN018 01/M00 Q1028;
0144109470999992012010907204+47983+010233FM-15+0629EDJA V0202201N004110144019N0090001N1+00101+00001999999ADDGA1041+005101999GA2071+014401999GF107991999999999999999999MA1102811999999REMMET059METAR EDJA 090720Z 22008KT 9000 SCT017 BKN048 01/M00 Q1028;
0144109470999992012010907504+47983+010233FM-15+0629EDJA V0202201N004110132019N0112651N1+00101+00001999999ADDGA1021+005401999GA2071+013201999GF107991999999999999999999MA1102811999999REMMET059METAR EDJA 090750Z 22008KT 9999 FEW018 BKN044 01/M00 Q1028;
0144109470999992012010908204+47983+010233FM-15+0629EDJA V0202301N005110150019N0112651N1+00101+00001999999ADDGA1021+002401999GA2071+015001999GF107991999999999999999999MA1102811999999REMMET059METAR EDJA 090820Z 23010KT 9999 FEW008 BKN052 01/M00 Q1028;
0143109470999992012010908504+47983+010233FM-15+0629EDJA V0202301N005110420019N0112651N1+00101+00001999999ADDGA1021+001801999GA2071+042001999GF107991999999999999999999MA1102811999999REMMET058METAR EDJA 090850Z 23010KT 9999 FEW006 BKN140 01/00 Q1028;
0143109470999992012010909204+47983+010233FM-15+0629EDJA V0202301N006210420019N0112651N1+00201+00001999999ADDGA1041+001801999GA2071+042001999GF107991999999999999999999MA1102811999999REMMET058METAR EDJA 090920Z 23012KT 9999 SCT006 BKN140 02/00 Q1028;
0166109470999992012010909504+47983+010233FM-15+0629EDJA V0202301N00511013501CN0112651N1+00201+00001999999ADDGA1021+001801999GA2041+013501999GA3071+042001999GF107991999999999999999999MA1102911999999REMMET065METAR EDJA 090950Z 23010KT 9999 FEW006 SCT045 BKN140 02/00 Q1029;
0166109470999992012010910204+47983+010233FM-15+0629EDJA V0202401N00571013501CN0112651N1+00201+00101999999ADDGA1021+002701999GA2041+013501999GA3071+030001999GF107991999999999999999999MA1102911999999REMMET065METAR EDJA 091020Z 24011KT 9999 FEW009 SCT045 BKN100 02/01 Q1029;
0143109470999992012010910504+47983+010233FM-15+0629EDJA V0202401N005110240019N0112651N1+00201+00101999999ADDGA1041+013501999GA2071+024001999GF107991999999999999999999MA1102911999999REMMET058METAR EDJA 091050Z 24010KT 9999 SCT045 BKN080 02/01 Q1029;
0143109470999992012010911204+47983+010233FM-15+0629EDJA V0202401N004610144019N0112651N1+00301+00101999999ADDGA1021+003001999GA2071+014401999GF107991999999999999999999MA1102911999999REMMET058METAR EDJA 091120Z 24009KT 9999 FEW010 BKN048 03/01 Q1029;
0143109470999992012010911504+47983+010233FM-15+0629EDJA V0202401N005710120019N0112651N1+00301+00101999999ADDGA1021+003601999GA2071+012001999GF107991999999999999999999MA1102811999999REMMET058METAR EDJA 091150Z 24011KT 9999 FEW012 BKN040 03/01 Q1028;
0155109470999992012010912204+47983+010233FM-15+0629EDJA V0202401N006210120019N0112651N1+00301+00101999999ADDGA1041+003001999GA2071+012001999GF107991999999999999999999MA1102811999999MW1801REMMET064METAR EDJA 091220Z 24012KT 9999 -SHRA SCT010 BKN040 03/01 Q1028;
0143109470999992012010912504+47983+010233FM-15+0629EDJA V0202401N006210120019N0112651N1+00301+00101999999ADDGA1041+003901999GA2071+012001999GF107991999999999999999999MA1102811999999REMMET058METAR EDJA 091250Z 24012KT 9999 SCT013 BKN040 03/01 Q1028;
0130109470999992012010913204+47983+010233FM-15+0629EDJA V0202401N005110033019N0112651N1+00301+00101999999ADDGA1071+003301999GF107991999999999999999999MA1102811999999MW1611REMMET055METAR EDJA 091320Z 24010KT 9999 -RA BKN011 03/01 Q1028;
0120109470999992012010913504+47983+010233FM-15+0629EDJA V0202401N005710033019N0112651N1+00201+00101999999ADDGA1071+003301999GF107991999999999999999999MA1102811999999REMMET051METAR EDJA 091350Z 24011KT 9999 BKN011 02/01 Q1028;
0155109470999992012010914504+47983+010233FM-15+0629EDJA V0202301N006210027019N0112651N1+00201+00101999999ADDGA1071+002701999GA2081+009001999GF108991999999999999999999MA1102811999999MW1801REMMET064METAR EDJA 091450Z 23012KT 9999 -SHRA BKN009 OVC030 02/01 Q1028;
0130109470999992012010915204+47983+010233FM-15+0629EDJA V0202301N006710027019N0070001N1+00201+00101999999ADDGA1071+002701999GF107991999999999999999999MA1102811999999MW1611REMMET055METAR EDJA 091520Z 23013KT 7000 -RA BKN009 02/01 Q1028;
0139109470999992012010915504+47983+010233FM-15+0629EDJA V0202401N006710027019N0050001N1+00201+00101999999ADDGA1081+002701999GF108991999999999999999999MA1102811999999MW1101MW2611REMMET058METAR EDJA 091550Z 24013KT 5000 -RA BR OVC009 02/01 Q1028;
0138109470999992012010916204+47983+010233FM-15+0629EDJA V0202301N007210027019N0045001N1+00201+00101999999ADDGA1071+002701999GF107991999999999999999999MA1102911999999MW1101MW2631REMMET057METAR EDJA 091620Z 23014KT 4500 RA BR BKN009 02/01 Q1029;
0138109470999992012010916504+47983+010233FM-15+0629EDJA V0202401N006710018019N0035001N1+00101+00001999999ADDGA1071+001801999GF107991999999999999999999MA1102911999999MW1101MW2631REMMET057METAR EDJA 091650Z 24013KT 3500 RA BR BKN006 01/00 Q1029;
0129109470999992012010917204+47983+010233FM-15+0629EDJA V0202401N006210018019N0050001N1+00101+00101999999ADDGA1071+001801999GF107991999999999999999999MA1102911999999MW1631REMMET054METAR EDJA 091720Z 24012KT 5000 RA BKN006 01/01 Q1029;
0125109470999992012010917504+47983+010233FM-15+0629EDJA V0202301N005710024019N0112651N1+00201+00101999999ADDGA1071+002401999GF107991999999999999999999MA1102911999999REMMET056METAR EDJA 091750Z 23011KT 9999 BKN008 02/01 Q1029 RERA;
0120109470999992012010918204+47983+010233FM-15+0629EDJA V0202301N007710018019N0112651N1+00201+00101999999ADDGA1071+001801999GF107991999999999999999999MA1103011999999REMMET051METAR EDJA 091820Z 23015KT 9999 BKN006 02/01 Q1030;
0138109470999992012010918504+47983+010233FM-15+0629EDJA V0202301N007710027019N0040001N1+00201+00101999999ADDGA1071+002701999GF107991999999999999999999MA1103011999999MW1101MW2531REMMET057METAR EDJA 091850Z 23015KT 4000 DZ BR BKN009 02/01 Q1030;
0130109470999992012010919204+47983+010233FM-15+0629EDJA V0202401N006710021019N0070001N1+00201+00101999999ADDGA1071+002101999GF107991999999999999999999MA1103011999999MW1511REMMET055METAR EDJA 091920Z 24013KT 7000 -DZ BKN007 02/01 Q1030;
0120109470999992012010919504+47983+010233FM-15+0629EDJA V0202301N006710021019N0112651N1+00201+00101999999ADDGA1071+002101999GF107991999999999999999999MA1103011999999REMMET051METAR EDJA 091950Z 23013KT 9999 BKN007 02/01 Q1030;
0120109470999992012010920204+47983+010233FM-15+0629EDJA V0202301N007210018019N0112651N1+00201+00101999999ADDGA1071+001801999GF107991999999999999999999MA1103011999999REMMET051METAR EDJA 092020Z 23014KT 9999 BKN006 02/01 Q1030;
0120109470999992012010920504+47983+010233FM-15+0629EDJA V0202201N006710018019N0060001N1+00201+00101999999ADDGA1071+001801999GF107991999999999999999999MA1103011999999REMMET051METAR EDJA 092050Z 22013KT 6000 BKN006 02/01 Q1030;
0153109470999992012011004504+47983+010233FM-15+0629EDJA V0202301N006710030019N0070001N1+00201+00101999999ADDGA1071+003001999GA2071+005401999GF107991999999999999999999MA1103121999999MW1611REMMET062METAR EDJA 100450Z 23013KT 7000 -RA BKN010 BKN018 02/01 Q1031;
0153109470999992012011005204+47983+010233FM-15+0629EDJA V0202301N006710024019N0090001N1+00301+00201999999ADDGA1071+002401999GA2071+006001999GF107991999999999999999999MA1103121999999MW1611REMMET062METAR EDJA 100520Z 23013KT 9000 -RA BKN008 BKN020 03/02 Q1031;
0130109470999992012011005504+47983+010233FM-15+0629EDJA V0202401N007210030019N0070001N1+00301+00201999999ADDGA1071+003001999GF107991999999999999999999MA1103121999999MW1611REMMET055METAR EDJA 100550Z 24014KT 7000 -RA BKN010 03/02 Q1031;
0143109470999992012011006204+47983+010233FM-15+0629EDJA V0202401N005710015019N0080001N1+00301+00201999999ADDGA1071+001501999GA2071+005401999GF107991999999999999999999MA1103121999999REMMET058METAR EDJA 100620Z 24011KT 8000 BKN005 BKN018 03/02 Q1031;
0153109470999992012011006504+47983+010233FM-15+0629EDJA V0202301N006210021019N0060001N1+00301+00201999999ADDGA1071+002101999GA2071+004501999GF107991999999999999999999MA1103121999999MW1611REMMET062METAR EDJA 100650Z 23012KT 6000 -RA BKN007 BKN015 03/02 Q1031;
0143109470999992012011007204+47983+010233FM-15+0629EDJA V0202201N007210024019N0080001N1+00301+00201999999ADDGA1041+001201999GA2071+002401999GF107991999999999999999999MA1103121999999REMMET058METAR EDJA 100720Z 22014KT 8000 SCT004 BKN008 03/02 Q1031;
0162109470999992012011007504+47983+010233FM-15+0629EDJA V0202301N005710015019N0050001N1+00301+00201999999ADDGA1071+001501999GA2071+003601999GF107991999999999999999999MA1103181999999MW1101MW2511REMMET065METAR EDJA 100750Z 23011KT 5000 -DZ BR BKN005 BKN012 03/02 Q1032;
0153109470999992012011008204+47983+010233FM-15+0629EDJA V0203201N002110015019N0060001N1+00301+00201999999ADDGA1071+001501999GF107991999999999999999999MA1103291999999MW1101MW2511REMMET072METAR EDJA 100820Z 32004KT 260V360 6000 3000S -DZ BR BKN005 03/02 Q1033;
0167109470999992012011008504+47983+010233FM-15+0629EDJA V0202701N003610015019N0070001N1+00301+00201999999ADDGA1071+001501999GA2071+004501999GF107991999999999999999999MA1103181999999MW1101MW2531REMMET070METAR EDJA 100850Z 27007KT 7000 3000S DZ BR BKN005 BKN015 03/02 Q1032;
0143109470999992012011009204+47983+010233FM-15+0629EDJA V0202301N004110114019N0048001N1+00301+00201999999ADDGA1041+004501999GA2071+011401999GF107991999999999999999999MA1103291999999REMMET058METAR EDJA 100920Z 23008KT 4800 SCT015 BKN038 03/02 Q1033;
0152109470999992012011009504+47983+010233FM-15+0629EDJA V0202101N004110096019N0048001N1+00301+00201999999ADDGA1041+001501999GA2071+009601999GF107991999999999999999999MA1103291999999MW1101REMMET061METAR EDJA 100950Z 21008KT 4800 BR SCT005 BKN032 03/02 Q1033;
0120109470999992012011010204+47983+010233FM-15+0629EDJA V0202201N004110021019N0080001N1+00301+00201999999ADDGA1071+002101999GF107991999999999999999999MA1103291999999REMMET051METAR EDJA 101020Z 22008KT 8000 BKN007 03/02 Q1033;
0132109470999992012011010504+47983+010233FM-15+0629EDJA V0202201N004110012019N0060001N1+00301+00201999999ADDGA1071+001201999GF107991999999999999999999MA1103291999999MW1801REMMET057METAR EDJA 101050Z 22008KT 6000 -SHRA BKN004 03/02 Q1033;
0120109470999992012011011204+47983+010233FM-15+0629EDJA V0202201N004610018019N0060001N1+00301+00301999999ADDGA1071+001801999GF107991999999999999999999MA1103291999999REMMET051METAR EDJA 101120Z 22009KT 6000 BKN006 03/03 Q1033;
0120109470999992012011011504+47983+010233FM-15+0629EDJA V0202301N005110015019N0060001N1+00401+00301999999ADDGA1071+001501999GF107991999999999999999999MA1103291999999REMMET051METAR EDJA 101150Z 23010KT 6000 BKN005 04/03 Q1033;
0120109470999992012011012204+47983+010233FM-15+0629EDJA V0202201N004110015019N0070001N1+00401+00301999999ADDGA1071+001501999GF107991999999999999999999MA1103291999999REMMET051METAR EDJA 101220Z 22008KT 7000 BKN005 04/03 Q1033;
0120109470999992012011012504+47983+010233FM-15+0629EDJA V0202301N005110018019N0070001N1+00401+00301999999ADDGA1071+001801999GF107991999999999999999999MA1103291999999REMMET051METAR EDJA 101250Z 23010KT 7000 BKN006 04/03 Q1033;
0143109470999992012011013204+47983+010233FM-15+0629EDJA V0202201N004610030019N0112651N1+00401+00201999999ADDGA1041+001801999GA2071+003001999GF107991999999999999999999MA1103291999999REMMET058METAR EDJA 101320Z 22009KT 9999 SCT006 BKN010 04/02 Q1033;
0152109470999992012011013504+47983+010233FM-15+0629EDJA V0202401N004610033019N0070001N1+00401+00201999999ADDGA1041+001201999GA2071+003301999GF107991999999999999999999MA1103291999999MW1531REMMET061METAR EDJA 101350Z 24009KT 7000 DZ SCT004 BKN011 04/02 Q1033;
0130109470999992012011014204+47983+010233FM-15+0629EDJA V0202401N003110030019N0070001N1+00401+00201999999ADDGA1071+003001999GF107991999999999999999999MA1103291999999MW1611REMMET055METAR EDJA 101420Z 24006KT 7000 -RA BKN010 04/02 Q1033;
0131109470999992012011014504+47983+010233FM-15+0629EDJA V0202101N005110030019N0050001N1+00301+00301999999ADDGA1071+003001999GF107991999999999999999999MA1103291999999MW1161REMMET056METAR EDJA 101450Z 21010KT 5000 VCSH BKN010 03/03 Q1033;
0143109470999992012011015204+47983+010233FM-15+0629EDJA V0202101N004610135019N0070001N1+00301+00201999999ADDGA1021+002401999GA2071+013501999GF107991999999999999999999MA1103391999999REMMET058METAR EDJA 101520Z 21009KT 7000 FEW008 BKN045 03/02 Q1034;
0143109470999992012011015504+47983+010233FM-15+0629EDJA V0202101N004110135019N0070001N1+00301+00201999999ADDGA1041+002401999GA2071+013501999GF107991999999999999999999MA1103391999999REMMET058METAR EDJA 101550Z 21008KT 7000 SCT008 BKN045 03/02 Q1034;
0143109470999992012011016204+47983+010233FM-15+0629EDJA V0202201N003610084019N0060001N1+00301+00201999999ADDGA1041+001201999GA2081+008401999GF108991999999999999999999MA1103391999999REMMET058METAR EDJA 101620Z 22007KT 6000 SCT004 OVC028 03/02 Q1034;
0143109470999992012011016504+47983+010233FM-15+0629EDJA V0202201N004110018019N0060001N1+00301+00201999999ADDGA1071+001801999GA2081+008401999GF108991999999999999999999MA1103391999999REMMET058METAR EDJA 101650Z 22008KT 6000 BKN006 OVC028 03/02 Q1034;
0120109470999992012011017204+47983+010233FM-15+0629EDJA V0202101N003610018019N0070001N1+00301+00201999999ADDGA1071+001801999GF107991999999999999999999MA1103391999999REMMET051METAR EDJA 101720Z 21007KT 7000 BKN006 03/02 Q1034;
0120109470999992012011017504+47983+010233FM-15+0629EDJA V0202101N002610018019N0060001N1+00301+00201999999ADDGA1071+001801999GF107991999999999999999999MA1103391999999REMMET051METAR EDJA 101750Z 21005KT 6000 BKN006 03/02 Q1034;
0120109470999992012011018204+47983+010233FM-15+0629EDJA V0202001N002110018019N0080001N1+00301+00201999999ADDGA1071+001801999GF107991999999999999999999MA1103391999999REMMET051METAR EDJA 101820Z 20004KT 8000 BKN006 03/02 Q1034;
0143109470999992012011018504+47983+010233FM-15+0629EDJA V0202101N001010018019N0060001N1+00301+00201999999ADDGA1071+001801999GA2071+007201999GF107991999999999999999999MA1103391999999REMMET058METAR EDJA 101850Z 21002KT 6000 BKN006 BKN024 03/02 Q1034;
0143109470999992012011019204+47983+010233FM-15+0629EDJA V0209999V001010018019N0070001N1+00301+00201999999ADDGA1071+001801999GA2071+007201999GF107991999999999999999999MA1103391999999REMMET058METAR EDJA 101920Z VRB02KT 7000 BKN006 BKN024 03/02 Q1034;
0120109470999992012011019504+47983+010233FM-15+0629EDJA V0202101N001012200019N0070001N1+00201+00101999999ADDGA1041+008701999GF104991999999999999999999MA1103391999999REMMET051METAR EDJA 101950Z 21002KT 7000 SCT029 02/01 Q1034;
0126109470999992012011020034+47983+010233FM-16+0629EDJA V0209999V001012200019N0060001N1+00101+00101999999ADDGA1021+008701999GF102991999999999999999999MA1103391999999REMMET057SPECI EDJA 102003Z VRB02KT 6000 FEW029 01/01 Q1034 RMK J;
0120109470999992012011020204+47983+010233FM-15+0629EDJA V0209999C000012200019N0050001N1+00101+00101999999ADDGA1021+008701999GF102991999999999999999999MA1103391999999REMMET051METAR EDJA 102020Z 00000KT 5000 FEW029 01/01 Q1034;
0129109470999992012011020504+47983+010233FM-15+0629EDJA V0201401N001012200019N0027001N1+00101+00001999999ADDGA1021+008701999GF102991999999999999999999MA1103391999999MW1101REMMET054METAR EDJA 102050Z 14002KT 2700 BR FEW029 01/00 Q1034;
0122109470999992012011104504+47983+010233FM-15+0629EDJA V0202301N001512200019N0090001N1-00201-00201999999ADDGF100991999999999999999999MA1103291999999REMMET050METAR EDJA 110450Z 23003KT 9000 NSC M02/M02 Q1033;EQDQ01    003SCCGA1
0122109470999992012011105204+47983+010233FM-15+0629EDJA V0202001N002112200019N0090001N1-00201-00201999999ADDGF100991999999999999999999MA1103291999999REMMET050METAR EDJA 110520Z 20004KT 9000 NSC M02/M02 Q1033;EQDQ01    003SCCGA1
0122109470999992012011105504+47983+010233FM-15+0629EDJA V0202001N001012200019N0090001N1-00201-00301999999ADDGF100991999999999999999999MA1103291999999REMMET050METAR EDJA 110550Z 20002KT 9000 NSC M02/M03 Q1033;EQDQ01    003SCCGA1
0074109470999992012011106204+47983+010233FM-15+0629EDJA V0202301N001019999999Y0099001N1-00301-00301999999ADDMA1103291999999REMMET047METAR EDJA 110620Z 23002KT CAVOK M03/M03 Q1033;
0074109470999992012011106504+47983+010233FM-15+0629EDJA V0202001N002119999999Y0099001N1-00201-00301999999ADDMA1103291999999REMMET047METAR EDJA 110650Z 20004KT CAVOK M02/M03 Q1033;
0074109470999992012011107204+47983+010233FM-15+0629EDJA V0202001N001519999999Y0099001N1-00201-00301999999ADDMA1103291999999REMMET047METAR EDJA 110720Z 20003KT CAVOK M02/M03 Q1033;
0074109470999992012011107504+47983+010233FM-15+0629EDJA V0209999V001519999999Y0099001N1-00201-00301999999ADDMA1103291999999REMMET047METAR EDJA 110750Z VRB03KT CAVOK M02/M03 Q1033;
0074109470999992012011108204+47983+010233FM-15+0629EDJA V0201801N001519999999Y0099001N1-00101-00201999999ADDMA1103291999999REMMET047METAR EDJA 110820Z 18003KT CAVOK M01/M02 Q1033;
0074109470999992012011108504+47983+010233FM-15+0629EDJA V0201901N002119999999Y0099001N1-00101-00201999999ADDMA1103291999999REMMET047METAR EDJA 110850Z 19004KT CAVOK M01/M02 Q1033;
0074109470999992012011109204+47983+010233FM-15+0629EDJA V0209999V001019999999Y0099001N1+00001-00101999999ADDMA1103391999999REMMET047METAR EDJA 110920Z VRB02KT CAVOK M00/M01 Q1034;
0073109470999992012011109504+47983+010233FM-15+0629EDJA V0202201N002119999999Y0099001N1+00101-00101999999ADDMA1103391999999REMMET046METAR EDJA 110950Z 22004KT CAVOK 01/M01 Q1034;
0073109470999992012011110204+47983+010233FM-15+0629EDJA V0202101N002119999999Y0099001N1+00101+00001999999ADDMA1103391999999REMMET046METAR EDJA 111020Z 21004KT CAVOK 01/M00 Q1034;
0072109470999992012011110504+47983+010233FM-15+0629EDJA V0202301N002619999999Y0099001N1+00201+00001999999ADDMA1103391999999REMMET045METAR EDJA 111050Z 23005KT CAVOK 02/00 Q1034;
0072109470999992012011111204+47983+010233FM-15+0629EDJA V0202301N003119999999Y0099001N1+00301+00101999999ADDMA1103391999999REMMET045METAR EDJA 111120Z 23006KT CAVOK 03/01 Q1034;
0072109470999992012011111504+47983+010233FM-15+0629EDJA V0202201N003119999999Y0099001N1+00301+00101999999ADDMA1103391999999REMMET045METAR EDJA 111150Z 22006KT CAVOK 03/01 Q1034;
0144109470999992012011112034+47983+010233FM-16+0629EDJA V0202101N004112200019N0112651N1+00201+00101999999ADDGF100991999999999999999999MA1103391999999MW1121REMMET066SPECI EDJA 111203Z 21008KT 9999 3000SW MIFG NSC 02/01 Q1034 RMK E;EQDQ01    003SCCGA1
0133109470999992012011112124+47983+010233FM-16+0629EDJA V0202101N004610009019N0080001N1+00101+00001999999ADDGA1071+000901999GF107991999999999999999999MA1103391999999REMMET064SPECI EDJA 111212Z 21009KT 8000 3000SW BKN003 01/00 Q1034 RMK F;
0130109470999992012011112204+47983+010233FM-15+0629EDJA V0202101N004610009019N0045001N1+00101+00001999999ADDGA1071+000901999GF107991999999999999999999MA1103391999999MW1101REMMET055METAR EDJA 111220Z 21009KT 4500 BR BKN003 01/M00 Q1034;
0121109470999992012011112504+47983+010233FM-15+0629EDJA V0202101N004110009019N0060001N1+00101+00001999999ADDGA1071+000901999GF107991999999999999999999MA1103391999999REMMET052METAR EDJA 111250Z 21008KT 6000 BKN003 01/M00 Q1034;
0153109470999992012011113504+47983+010233FM-15+0629EDJA V0202201N003110081019N0045001N1+00101+00001999999ADDGA1041+000901999GA2071+008101999GF107991999999999999999999MA1103391999999MW1101REMMET062METAR EDJA 111350Z 22006KT 4500 BR SCT003 BKN027 01/M00 Q1034;
0143109470999992012011114204+47983+010233FM-15+0629EDJA V0202101N003110084019N0090001N1+00101+00001999999ADDGA1041+000901999GA2071+008401999GF107991999999999999999999MA1103391999999REMMET058METAR EDJA 111420Z 21006KT 9000 SCT003 BKN028 01/00 Q1034;
0143109470999992012011114504+47983+010233FM-15+0629EDJA V0201901N003610090019N0080001N1+00101+00001999999ADDGA1021+003601999GA2071+009001999GF107991999999999999999999MA1103391999999REMMET058METAR EDJA 111450Z 19007KT 8000 FEW012 BKN030 01/00 Q1034;
0144109470999992012011115204+47983+010233FM-15+0629EDJA V0202001N003110090019N0070001N1+00101+00001999999ADDGA1021+000901999GA2071+009001999GF107991999999999999999999MA1103391999999REMMET059METAR EDJA 111520Z 20006KT 7000 FEW003 BKN030 01/M00 Q1034;
0121109470999992012011115504+47983+010233FM-15+0629EDJA V0201901N004110090019N0080001N1+00001+00001999999ADDGA1071+009001999GF107991999999999999999999MA1103391999999REMMET052METAR EDJA 111550Z 19008KT 8000 BKN030 00/M00 Q1034;
0121109470999992012011116204+47983+010233FM-15+0629EDJA V0202201N001510090019N0080001N1+00001-00101999999ADDGA1071+009001999GF107991999999999999999999MA1103391999999REMMET052METAR EDJA 111620Z 22003KT 8000 BKN030 00/M01 Q1034;
0122109470999992012011116504+47983+010233FM-15+0629EDJA V0201901N002110090019N0060001N1+00001-00101999999ADDGA1071+009001999GF107991999999999999999999MA1103391999999REMMET053METAR EDJA 111650Z 19004KT 6000 BKN030 M00/M01 Q1034;
0130109470999992012011117204+47983+010233FM-15+0629EDJA V0202501N002110090019N0070001N1+00001-00101999999ADDGA1071+009001999GF107991999999999999999999MA1103391999999REMMET061METAR EDJA 111720Z 25004KT 210V300 7000 BKN030 M00/M01 Q1034;
0122109470999992012011118204+47983+010233FM-15+0629EDJA V0202101N002110090019N0060001N1-00101-00101999999ADDGA1071+009001999GF107991999999999999999999MA1103391999999REMMET053METAR EDJA 111820Z 21004KT 6000 BKN030 M01/M01 Q1034;
0122109470999992012011119504+47983+010233FM-15+0629EDJA V0209999V001510090019N0060001N1-00101-00201999999ADDGA1071+009001999GF107991999999999999999999MA1103391999999REMMET053METAR EDJA 111950Z VRB03KT 6000 BKN030 M01/M02 Q1034;
0122109470999992012011120204+47983+010233FM-15+0629EDJA V0202001N002112200019N0090001N1-00101-00101999999ADDGA1041+009001999GF104991999999999999999999MA1103391999999REMMET053METAR EDJA 112020Z 20004KT 9000 SCT030 M01/M01 Q1034;
0074109470999992012011120504+47983+010233FM-15+0629EDJA V0202001N003119999999Y0099001N1-00101-00101999999ADDMA1103391999999REMMET047METAR EDJA 112050Z 20006KT CAVOK M01/M01 Q1034;
0131109470999992012011204504+47983+010233FM-15+0629EDJA V0202501N003610006019N0040001N1-00501-00501999999ADDGA1071+000601999GF107991999999999999999999MA1103011999999MW1101REMMET056METAR EDJA 120450Z 25007KT 4000 BR BKN002 M05/M05 Q1030;
0131109470999992012011205204+47983+010233FM-15+0629EDJA V0202401N003610003019N0030001N1-00401-00401999999ADDGA1081+000301999GF108991999999999999999999MA1103011999999MW1101REMMET056METAR EDJA 120520Z 24007KT 3000 BR OVC001 M04/M04 Q1030;
0131109470999992012011205504+47983+010233FM-15+0629EDJA V0202301N003110006019N0040001N1-00401-00401999999ADDGA1071+000601999GF107991999999999999999999MA1102911999999MW1101REMMET056METAR EDJA 120550Z 23006KT 4000 BR BKN002 M04/M04 Q1029;
0139109470999992012011206204+47983+010233FM-15+0629EDJA V0202301N002610006019N0020001N1-00401-00401999999ADDGA1071+000601999GF107991999999999999999999MA1102911999999MW1101REMMET064METAR EDJA 120620Z 23005KT 200V260 2000 BR BKN002 M04/M04 Q1029;
0139109470999992012011206244+47983+010233FM-16+0629EDJA V0202301N003610006019N0008001N1-00401-00401999999ADDGA1071+000601999GF107991999999999999999999MA1102911999999MW1481REMMET064SPECI EDJA 120624Z 23007KT 0800 FZFG BKN002 M04/M04 Q1029 RMK A;
0154109470999992012011206504+47983+010233FM-15+0629EDJA V0202001N00411000151CN0006001N1-00401-00401999999ADDED124U15009GA1091+000151999GF109991999999000251999999MA1102911999999MW1491REMMET068METAR EDJA 120650Z 20008KT 0600 R24/P1500D FZFG VV/// M04/M04 Q1029;
0158109470999992012011207204+47983+010233FM-15+0629EDJA V0202001N00361000151CN0005001N1-00301-00301999999ADDED124U11009GA1091+000151999GF109991999999000251999999MA1102911999999MW1491REMMET072METAR EDJA 120720Z 20007KT 0500 R24/1100V1500D FZFG VV/// M03/M03 Q1029;
0153109470999992012011207504+47983+010233FM-15+0629EDJA V0202301N00571000151CN0005001N1-00201-00301999999ADDED124U15009GA1091+000151999GF109991999999000251999999MA1102911999999MW1491REMMET067METAR EDJA 120750Z 23011KT 0500 R24/1500N FZFG VV/// M02/M03 Q1029;
0131109470999992012011209204+47983+010233FM-15+0629EDJA V0202301N005710006019N0012001N1-00201-00201999999ADDGA1071+000601999GF107991999999999999999999MA1102811999999MW1101REMMET056METAR EDJA 120920Z 23011KT 1200 BR BKN002 M02/M02 Q1028;
0131109470999992012011209504+47983+010233FM-15+0629EDJA V0202201N005710009019N0031001N1-00101-00201999999ADDGA1071+000901999GF107991999999999999999999MA1102811999999MW1101REMMET056METAR EDJA 120950Z 22011KT 3100 BR BKN003 M01/M02 Q1028;
0131109470999992012011210204+47983+010233FM-15+0629EDJA V0202301N005110009019N0035001N1-00101-00101999999ADDGA1081+000901999GF108991999999999999999999MA1102811999999MW1101REMMET056METAR EDJA 121020Z 23010KT 3500 BR OVC003 M01/M01 Q1028;
0131109470999992012011210504+47983+010233FM-15+0629EDJA V0202301N004110009019N0035001N1-00101-00101999999ADDGA1081+000901999GF108991999999999999999999MA1102711999999MW1101REMMET056METAR EDJA 121050Z 23008KT 3500 BR OVC003 M01/M01 Q1027;
0131109470999992012011211204+47983+010233FM-15+0629EDJA V0202201N004110009019N0040001N1-00101-00101999999ADDGA1071+000901999GF107991999999999999999999MA1102711999999MW1101REMMET056METAR EDJA 121120Z 22008KT 4000 BR BKN003 M01/M01 Q1027;
0131109470999992012011211504+47983+010233FM-15+0629EDJA V0202201N004610009019N0040001N1-00101-00101999999ADDGA1071+000901999GF107991999999999999999999MA1102611999999MW1101REMMET056METAR EDJA 121150Z 22009KT 4000 BR BKN003 M01/M01 Q1026;
0122109470999992012011212204+47983+010233FM-15+0629EDJA V0202301N004610012019N0060001N1+00001-00101999999ADDGA1071+001201999GF107991999999999999999999MA1102611999999REMMET053METAR EDJA 121220Z 23009KT 6000 BKN004 M00/M01 Q1026;
0121109470999992012011212504+47983+010233FM-15+0629EDJA V0202301N004110012019N0060001N1+00001+00001999999ADDGA1071+001201999GF107991999999999999999999MA1102611999999REMMET052METAR EDJA 121250Z 23008KT 6000 BKN004 00/M00 Q1026;
0121109470999992012011213204+47983+010233FM-15+0629EDJA V0202201N004610015019N0070001N1+00001-00101999999ADDGA1071+001501999GF107991999999999999999999MA1102511999999REMMET052METAR EDJA 121320Z 22009KT 7000 BKN005 00/M01 Q1025;
0121109470999992012011213504+47983+010233FM-15+0629EDJA V0202401N006210018019N0080001N1+00001-00101999999ADDGA1071+001801999GF107991999999999999999999MA1102401999999REMMET052METAR EDJA 121350Z 24012KT 8000 BKN006 00/M01 Q1024;
0122109470999992012011214204+47983+010233FM-15+0629EDJA V0202401N008212200019N0090001N1+00001-00201999999ADDGA1041+002101999GF104991999999999999999999MA1102401999999REMMET053METAR EDJA 121420Z 24016KT 9000 SCT007 M00/M02 Q1024;
0122109470999992012011214504+47983+010233FM-15+0629EDJA V0202501N006712200019N0080001N1-00101-00201999999ADDGA1041+001801999GF104991999999999999999999MA1102511999999REMMET053METAR EDJA 121450Z 25013KT 8000 SCT006 M01/M02 Q1025;
0122109470999992012011215204+47983+010233FM-15+0629EDJA V0202301N005110021019N0080001N1-00101-00201999999ADDGA1071+002101999GF107991999999999999999999MA1102511999999REMMET053METAR EDJA 121520Z 23010KT 8000 BKN007 M01/M02 Q1025;
0122109470999992012011215504+47983+010233FM-15+0629EDJA V0202301N006210018019N0060001N1-00101-00201999999ADDGA1071+001801999GF107991999999999999999999MA1102401999999REMMET053METAR EDJA 121550Z 23012KT 6000 BKN006 M01/M02 Q1024;
0122109470999992012011216204+47983+010233FM-15+0629EDJA V0202201N006710015019N0050001N1-00101-00201999999ADDGA1071+001501999GF107991999999999999999999MA1102401999999REMMET053METAR EDJA 121620Z 22013KT 5000 BKN005 M01/M02 Q1024;
0131109470999992012011217204+47983+010233FM-15+0629EDJA V0202301N008210015019N0050001N1-00101-00201999999ADDGA1071+001501999GF107991999999999999999999MA1102401999999MW1101REMMET056METAR EDJA 121720Z 23016KT 5000 BR BKN005 M01/M02 Q1024;
0122109470999992012011217504+47983+010233FM-15+0629EDJA V0202201N006710015019N0050001N1-00101-00201999999ADDGA1071+001501999GF107991999999999999999999MA1102401999999REMMET053METAR EDJA 121750Z 22013KT 5000 BKN005 M01/M02 Q1024;
0122109470999992012011218204+47983+010233FM-15+0629EDJA V0202301N005110021019N0050001N1+00001-00101999999ADDGA1071+002101999GF107991999999999999999999MA1102511999999REMMET053METAR EDJA 121820Z 23010KT 5000 BKN007 M00/M01 Q1025;
0122109470999992012011218504+47983+010233FM-15+0629EDJA V0202501N004110024019N0060001N1+00001-00101999999ADDGA1071+002401999GF107991999999999999999999MA1102511999999REMMET053METAR EDJA 121850Z 25008KT 6000 BKN008 M00/M01 Q1025;
0122109470999992012011219204+47983+010233FM-15+0629EDJA V0202301N006210024019N0070001N1+00001-00101999999ADDGA1071+002401999GF107991999999999999999999MA1102511999999REMMET053METAR EDJA 121920Z 23012KT 7000 BKN008 M00/M01 Q1025;
0122109470999992012011219504+47983+010233FM-15+0629EDJA V0202201N005710024019N0050001N1+00001-00101999999ADDGA1071+002401999GF107991999999999999999999MA1102511999999REMMET053METAR EDJA 121950Z 22011KT 5000 BKN008 M00/M01 Q1025;
0122109470999992012011220204+47983+010233FM-15+0629EDJA V0202301N005710024019N0050001N1+00001-00101999999ADDGA1071+002401999GF107991999999999999999999MA1102511999999REMMET053METAR EDJA 122020Z 23011KT 5000 BKN008 M00/M01 Q1025;
0121109470999992012011220504+47983+010233FM-15+0629EDJA V0202301N007710090019N0045001N1+00001-00101999999ADDGA1071+009001999GF107991999999999999999999MA1102511999999REMMET052METAR EDJA 122050Z 23015KT 4500 BKN030 00/M01 Q1025;
0121109470999992012011304504+47983+010233FM-15+0629EDJA V0202401N004610024019N0070001N1+00101+00001999999ADDGA1071+002401999GF107991999999999999999999MA1102511999999REMMET052METAR EDJA 130450Z 24009KT 7000 BKN008 01/M00 Q1025;
0121109470999992012011305204+47983+010233FM-15+0629EDJA V0202601N004110024019N0080001N1+00101+00001999999ADDGA1071+002401999GF107991999999999999999999MA1102511999999REMMET052METAR EDJA 130520Z 26008KT 8000 BKN008 01/M00 Q1025;
0144109470999992012011305504+47983+010233FM-15+0629EDJA V0202601N004110024019N0112651N1+00101+00001999999ADDGA1071+002401999GA2071+010801999GF107991999999999999999999MA1102511999999REMMET059METAR EDJA 130550Z 26008KT 9999 BKN008 BKN036 01/M00 Q1025;
0121109470999992012011306204+47983+010233FM-15+0629EDJA V0202501N004610024019N0112651N1+00001-00101999999ADDGA1071+002401999GF107991999999999999999999MA1102511999999REMMET052METAR EDJA 130620Z 25009KT 9999 BKN008 00/M01 Q1025;
0145109470999992012011306504+47983+010233FM-15+0629EDJA V0202501N004112200019N0070001N1+00001-00101999999ADDGA1041+002401999GA2041+009001999GF104991999999999999999999MA1102511999999REMMET060METAR EDJA 130650Z 25008KT 7000 SCT008 SCT030 M00/M01 Q1025;
0144109470999992012011307204+47983+010233FM-15+0629EDJA V0202401N003610090019N0112651N1+00001-00101999999ADDGA1041+002401999GA2071+009001999GF107991999999999999999999MA1102511999999REMMET059METAR EDJA 130720Z 24007KT 9999 SCT008 BKN030 00/M01 Q1025;
0121109470999992012011307504+47983+010233FM-15+0629EDJA V0202501N004110063019N0112651N1+00001-00101999999ADDGA1071+006301999GF107991999999999999999999MA1102511999999REMMET052METAR EDJA 130750Z 25008KT 9999 BKN021 00/M01 Q1025;
0121109470999992012011308204+47983+010233FM-15+0629EDJA V0202401N005110063019N0112651N1+00001-00101999999ADDGA1071+006301999GF107991999999999999999999MA1102511999999REMMET052METAR EDJA 130820Z 24010KT 9999 BKN021 00/M01 Q1025;
0121109470999992012011308504+47983+010233FM-15+0629EDJA V0202301N006212200019N0112651N1+00001-00101999999ADDGA1041+006001999GF104991999999999999999999MA1102511999999REMMET052METAR EDJA 130850Z 23012KT 9999 SCT020 00/M01 Q1025;
0121109470999992012011309204+47983+010233FM-15+0629EDJA V0202401N006212200019N0112651N1+00101-00101999999ADDGA1041+006001999GF104991999999999999999999MA1102511999999REMMET052METAR EDJA 130920Z 24012KT 9999 SCT020 01/M01 Q1025;
0121109470999992012011309504+47983+010233FM-15+0629EDJA V0202501N006712200019N0112651N1+00101-00201999999ADDGA1041+006001999GF104991999999999999999999MA1102511999999REMMET052METAR EDJA 130950Z 25013KT 9999 SCT020 01/M02 Q1025;
0121109470999992012011310204+47983+010233FM-15+0629EDJA V0202501N007712200019N0112651N1+00101-00201999999ADDGA1041+006001999GF104991999999999999999999MA1102511999999REMMET052METAR EDJA 131020Z 25015KT 9999 SCT020 01/M02 Q1025;
0121109470999992012011310504+47983+010233FM-15+0629EDJA V0202501N006712200019N0112651N1+00201-00101999999ADDGA1041+006001999GF104991999999999999999999MA1102511999999REMMET052METAR EDJA 131050Z 25013KT 9999 SCT020 02/M01 Q1025;
0121109470999992012011311204+47983+010233FM-15+0629EDJA V0202601N006710063019N0112651N1+00201-00101999999ADDGA1071+006301999GF107991999999999999999999MA1102511999999REMMET052METAR EDJA 131120Z 26013KT 9999 BKN021 02/M01 Q1025;
0121109470999992012011311504+47983+010233FM-15+0629EDJA V0202601N006210060019N0112651N1+00301-00101999999ADDGA1071+006001999GF107991999999999999999999MA1102401999999REMMET052METAR EDJA 131150Z 26012KT 9999 BKN020 03/M01 Q1024;
0121109470999992012011312204+47983+010233FM-15+0629EDJA V0202501N007210090019N0112651N1+00301-00101999999ADDGA1071+009001999GF107991999999999999999999MA1102401999999REMMET052METAR EDJA 131220Z 25014KT 9999 BKN030 03/M01 Q1024;
0121109470999992012011312504+47983+010233FM-15+0629EDJA V0202501N006712200019N0112651N1+00301-00101999999ADDGA1041+009001999GF104991999999999999999999MA1102401999999REMMET052METAR EDJA 131250Z 25013KT 9999 SCT030 03/M01 Q1024;
0129109470999992012011313204+47983+010233FM-15+0629EDJA V0202601N007212200019N0112651N1+00301-00301999999ADDGA1041+009001999GF104991999999999999999999MA1102401999999REMMET060METAR EDJA 131320Z 26014KT 240V300 9999 SCT030 03/M03 Q1024;
0121109470999992012011313504+47983+010233FM-15+0629EDJA V0202701N007710105019N0112651N1+00301-00301999999ADDGA1071+010501999GF107991999999999999999999MA1102401999999REMMET052METAR EDJA 131350Z 27015KT 9999 BKN035 03/M03 Q1024;
0131109470999992012011314204+47983+010233FM-15+0629EDJA V0202701N007210096019N0112651N1+00301-00301999999ADDGA1071+009601999GF107991999999999999999999MA1102401999999MW1711REMMET056METAR EDJA 131420Z 27014KT 9999 -SN BKN032 03/M03 Q1024;
0127109470999992012011314404+47983+010233FM-16+0629EDJA V0202801N008710099019N0112651N1+00301-00301999999ADDGA1071+009901999GF107991999999999999999999MA1102401999999REMMET058SPECI EDJA 131440Z 28017KT 9999 BKN033 03/M03 Q1024 RMK T;
0121109470999992012011314504+47983+010233FM-15+0629EDJA V0202701N009810087019N0112651N1+00301-00301999999ADDGA1071+008701999GF107991999999999999999999MA1102401999999REMMET052METAR EDJA 131450Z 27019KT 9999 BKN029 03/M03 Q1024;
0121109470999992012011315204+47983+010233FM-15+0629EDJA V0202801N008710135019N0112651N1+00201-00301999999ADDGA1071+013501999GF107991999999999999999999MA1102401999999REMMET052METAR EDJA 131520Z 28017KT 9999 BKN045 02/M03 Q1024;
0144109470999992012011315504+47983+010233FM-15+0629EDJA V0202701N007212200019N0112651N1+00201-00301999999ADDGA1041+006601999GA2041+007501999GF104991999999999999999999MA1102401999999REMMET059METAR EDJA 131550Z 27014KT 9999 SCT022 SCT025 02/M03 Q1024;
0155109470999992012011316204+47983+010233FM-15+0629EDJA V0202901N006710030019N0025001N1+00101-00201999999ADDGA1071+003001999GA2071+006601999GF107991999999999999999999MA1102511999999MW1861REMMET064METAR EDJA 131620Z 29013KT 2500 SHSN BKN010 BKN022 01/M02 Q1025;
0133109470999992012011316504+47983+010233FM-15+0629EDJA V0203101N007710012019N0012001N1+00001-00101999999ADDGA1071+001201999GF107991999999999999999999MA1102511999999MW1861REMMET058METAR EDJA 131650Z 31015KT 1200 SHSN BKN004 M00/M01 Q1025;
0122109470999992012011317204+47983+010233FM-15+0629EDJA V0202801N006710120019N0112651N1-00101-00201999999ADDGA1071+012001999GF107991999999999999999999MA1102511999999REMMET053METAR EDJA 131720Z 28013KT 9999 BKN040 M01/M02 Q1025;
0122109470999992012011317504+47983+010233FM-15+0629EDJA V0202801N004610150019N0112651N1-00101-00201999999ADDGA1071+015001999GF107991999999999999999999MA1102611999999REMMET053METAR EDJA 131750Z 28009KT 9999 BKN050 M01/M02 Q1026;
0122109470999992012011318204+47983+010233FM-15+0629EDJA V0202301N002110150019N0112651N1-00101-00201999999ADDGA1071+015001999GF107991999999999999999999MA1102611999999REMMET053METAR EDJA 131820Z 23004KT 9999 BKN050 M01/M02 Q1026;
0122109470999992012011318504+47983+010233FM-15+0629EDJA V0202301N003110150019N0112651N1-00201-00301999999ADDGA1071+015001999GF107991999999999999999999MA1102611999999REMMET053METAR EDJA 131850Z 23006KT 9999 BKN050 M02/M03 Q1026;
0122109470999992012011319204+47983+010233FM-15+0629EDJA V0202401N002612200019N0112651N1-00201-00301999999ADDGA1041+006901999GF104991999999999999999999MA1102611999999REMMET053METAR EDJA 131920Z 24005KT 9999 SCT023 M02/M03 Q1026;
0122109470999992012011319504+47983+010233FM-15+0629EDJA V0202401N003612200019N0112651N1-00201-00301999999ADDGA1041+014701999GF104991999999999999999999MA1102611999999REMMET053METAR EDJA 131950Z 24007KT 9999 SCT049 M02/M03 Q1026;
0122109470999992012011320204+47983+010233FM-15+0629EDJA V0202301N004112200019N0112651N1-00201-00301999999ADDGA1041+007501999GF104991999999999999999999MA1102611999999REMMET053METAR EDJA 132020Z 23008KT 9999 SCT025 M02/M03 Q1026;
0122109470999992012011404504+47983+010233FM-15+0629EDJA V0202201N004110120019N0112651N1-00101-00401999999ADDGA1071+012001999GF107991999999999999999999MA1102511999999REMMET053METAR EDJA 140450Z 22008KT 9999 BKN040 M01/M04 Q1025;
0122109470999992012011405204+47983+010233FM-15+0629EDJA V0202301N003610120019N0112651N1-00101-00401999999ADDGA1071+012001999GF107991999999999999999999MA1102511999999REMMET053METAR EDJA 140520Z 23007KT 9999 BKN040 M01/M04 Q1025;
0122109470999992012011405504+47983+010233FM-15+0629EDJA V0202301N004110123019N0112651N1-00101-00401999999ADDGA1071+012301999GF107991999999999999999999MA1102511999999REMMET053METAR EDJA 140550Z 23008KT 9999 BKN041 M01/M04 Q1025;
0122109470999992012011406204+47983+010233FM-15+0629EDJA V0202301N003110108019N0112651N1-00101-00401999999ADDGA1071+010801999GF107991999999999999999999MA1102511999999REMMET053METAR EDJA 140620Z 23006KT 9999 BKN036 M01/M04 Q1025;
0122109470999992012011406504+47983+010233FM-15+0629EDJA V0202501N003610102019N0112651N1-00201-00401999999ADDGA1071+010201999GF107991999999999999999999MA1102511999999REMMET053METAR EDJA 140650Z 25007KT 9999 BKN034 M02/M04 Q1025;
0122109470999992012011407204+47983+010233FM-15+0629EDJA V0202601N002610105019N0112651N1-00201-00401999999ADDGA1071+010501999GF107991999999999999999999MA1102511999999REMMET053METAR EDJA 140720Z 26005KT 9999 BKN035 M02/M04 Q1025;
0122109470999992012011407504+47983+010233FM-15+0629EDJA V0202301N003110117019N0112651N1-00201-00301999999ADDGA1071+011701999GF107991999999999999999999MA1102511999999REMMET053METAR EDJA 140750Z 23006KT 9999 BKN039 M02/M03 Q1025;
