0081109470999992014010107504+47989+010240FM-15+062999999V0202201V002619999999Y999999999+00201-00201999999ADDMA1101601999990REMMET054METAR EDJA 010750Z 22005KT 190V260 CAVOK 02/M02 Q1016=
0073109470999992014010108204+47989+010240FM-15+062999999V0202401N003119999999Y999999999+00201-00201999999ADDMA1101601999990REMMET046METAR EDJA 010820Z 24006KT CAVOK 02/M02 Q1016=
0081109470999992014010108504+47989+010240FM-15+062999999V0202101V002119999999Y999999999+00201-00201999999ADDMA1101601999990REMMET054METAR EDJA 010850Z 21004KT 170V250 CAVOK 02/M02 Q1016=
0081109470999992014010109204+47989+010240FM-15+062999999V0202201V002619999999Y999999999+00201-00301999999ADDMA1101601999990REMMET054METAR EDJA 010920Z 22005KT 190V260 CAVOK 02/M03 Q1016=
0081109470999992014010109504+47989+010240FM-15+062999999V0202001V002119999999Y999999999+00301-00101999999ADDMA1101601999990REMMET054METAR EDJA 010950Z 20004KT 160V240 CAVOK 03/M01 Q1016=
0081109470999992014010110204+47989+010240FM-15+062999999V0202001V002619999999Y999999999+00401-00201999999ADDMA1101601999990REMMET054METAR EDJA 011020Z 20005KT 150V240 CAVOK 04/M02 Q1016=
0080109470999992014010111204+47989+010240FM-15+062999999V0202201V003119999999Y999999999+00601+00001999999ADDMA1101501999990REMMET053METAR EDJA 011120Z 22006KT 180V250 CAVOK 06/00 Q1015=
0081109470999992014010111504+47989+010240FM-15+062999999V0202301V002619999999Y999999999+00601+00001999999ADDMA1101401999990REMMET054METAR EDJA 011150Z 23005KT 170V260 CAVOK 06/M00 Q1014=
0080109470999992014010112204+47989+010240FM-15+062999999V0202101V002119999999Y999999999+00601+00101999999ADDMA1101401999990REMMET053METAR EDJA 011220Z 21004KT 160V260 CAVOK 06/01 Q1014=
0072109470999992014010112504+47989+010240FM-15+062999999V0209999V001519999999Y999999999+00601+00101999999ADDMA1101401999990REMMET045METAR EDJA 011250Z VRB03KT CAVOK 06/01 Q1014=
0072109470999992014010113204+47989+010240FM-15+062999999V0202701N001519999999Y999999999+00701+00101999999ADDMA1101401999990REMMET045METAR EDJA 011320Z 27003KT CAVOK 07/01 Q1014=
0072109470999992014010113504+47989+010240FM-15+062999999V0209999V001519999999Y999999999+00601+00201999999ADDMA1101301999990REMMET045METAR EDJA 011350Z VRB03KT CAVOK 06/02 Q1013=
0072109470999992014010114204+47989+010240FM-15+062999999V0209999V001019999999Y999999999+00601+00101999999ADDMA1101301999990REMMET045METAR EDJA 011420Z VRB02KT CAVOK 06/01 Q1013=
0072109470999992014010114504+47989+010240FM-15+062999999V0209999V001019999999Y999999999+00601+00101999999ADDMA1101301999990REMMET045METAR EDJA 011450Z VRB02KT CAVOK 06/01 Q1013=
0072109470999992014010115204+47989+010240FM-15+062999999V0209999V000519999999Y999999999+00401+00101999999ADDMA1101301999990REMMET045METAR EDJA 011520Z VRB01KT CAVOK 04/01 Q1013=
0072109470999992014010115504+47989+010240FM-15+062999999V0201101N001519999999Y999999999+00301+00001999999ADDMA1101301999990REMMET045METAR EDJA 011550Z 11003KT CAVOK 03/00 Q1013=
0073109470999992014010116204+47989+010240FM-15+062999999V0209999V001019999999Y999999999+00201-00101999999ADDMA1101201999990REMMET046METAR EDJA 011620Z VRB02KT CAVOK 02/M01 Q1012=
0073109470999992014010116504+47989+010240FM-15+062999999V0201101N002119999999Y999999999+00101-00101999999ADDMA1101201999990REMMET046METAR EDJA 011650Z 11004KT CAVOK 01/M01 Q1012=
0073109470999992014010117204+47989+010240FM-15+062999999V0201101N003119999999Y999999999+00101+00001999999ADDMA1101201999990REMMET046METAR EDJA 011720Z 11006KT CAVOK 01/M00 Q1012=
0073109470999992014010117504+47989+010240FM-15+062999999V0201001N001519999999Y999999999+00101-00101999999ADDMA1101201999990REMMET046METAR EDJA 011750Z 10003KT CAVOK 01/M01 Q1012=
0074109470999992014010118204+47989+010240FM-15+062999999V0209999V001019999999Y999999999+00001-00101999999ADDMA1101101999990REMMET047METAR EDJA 011820Z VRB02KT CAVOK M00/M01 Q1011=
0074109470999992014010118504+47989+010240FM-15+062999999V0200801N000519999999Y999999999+00001-00101999999ADDMA1101101999990REMMET047METAR EDJA 011850Z 08001KT CAVOK M00/M01 Q1011=
0074109470999992014010119204+47989+010240FM-15+062999999V0200901N002119999999Y999999999-00101-00201999999ADDMA1101101999990REMMET047METAR EDJA 011920Z 09004KT CAVOK M01/M02 Q1011=
0074109470999992014010119504+47989+010240FM-15+062999999V0201101N002119999999Y999999999-00101-00201999999ADDMA1101001999990REMMET047METAR EDJA 011950Z 11004KT CAVOK M01/M02 Q1010=
0074109470999992014010120204+47989+010240FM-15+062999999V0209999V001019999999Y999999999-00101-00201999999ADDMA1101001999990REMMET047METAR EDJA 012020Z VRB02KT CAVOK M01/M02 Q1010=
0074109470999992014010120504+47989+010240FM-15+062999999V0201601N001519999999Y999999999-00101-00201999999ADDMA1100901999990REMMET047METAR EDJA 012050Z 16003KT CAVOK M01/M02 Q1009=
0074109470999992014010121204+47989+010240FM-15+062999999V0202601N001519999999Y999999999-00201-00201999999ADDMA1100901999990REMMET047METAR EDJA 012120Z 26003KT CAVOK M02/M02 Q1009=
0082109470999992014010121504+47989+010240FM-15+062999999V0202201V002119999999Y999999999-00101-00201999999ADDMA1100901999990REMMET055METAR EDJA 012150Z 22004KT 180V250 CAVOK M01/M02 Q1009=
0078109470999992014010204504+47989+010240FM-15+062999999V0202101N003119999999Y999999999+00001-00301999999ADDMA1100601999990REMMET051METAR COR EDJA 020450Z 21006KT CAVOK M00/M03 Q1006=
0074109470999992014010205204+47989+010240FM-15+062999999V0202101N002119999999Y999999999+00001-00301999999ADDMA1100601999990REMMET047METAR EDJA 020520Z 21004KT CAVOK M00/M03 Q1006=
0082109470999992014010205504+47989+010240FM-15+062999999V0201901V002119999999Y999999999+00001-00201999999ADDMA1100601999990REMMET055METAR EDJA 020550Z 19004KT 160V220 CAVOK M00/M02 Q1006=
0073109470999992014010206204+47989+010240FM-15+062999999V0201801N002619999999Y999999999+00201-00301999999ADDMA1100601999990REMMET046METAR EDJA 020620Z 18005KT CAVOK 02/M03 Q1006=
0073109470999992014010206504+47989+010240FM-15+062999999V0209999V001519999999Y999999999+00101-00201999999ADDMA1100601999990REMMET046METAR EDJA 020650Z VRB03KT CAVOK 01/M02 Q1006=
0073109470999992014010207204+47989+010240FM-15+062999999V0202301N002119999999Y999999999+00001-00201999999ADDMA1100701999990REMMET046METAR EDJA 020720Z 23004KT CAVOK 00/M02 Q1007=
0110109470999992014010207504+47989+010240FM-15+062999999V0202101V002112200019N009999199+00101-00201999999ADDGF100991999999999999999999MA1100701999990REMMET057METAR EDJA 020750Z 21004KT 170V240 9999 NSC 01/M02 Q1007=
0102109470999992014010208204+47989+010240FM-15+062999999V0201901N002612200019N009999199+00101-00201999999ADDGF100991999999999999999999MA1100801999990REMMET049METAR EDJA 020820Z 19005KT 9999 NSC 01/M02 Q1008=
0151109470999992014010208504+47989+010240FM-15+062999999V0202001V002119999999N009999199+00201-00201999999ADDGA1041+017681991GE19MSL   +99999+99999GF199999041990017681991991MA1100801999990REMMET060METAR EDJA 020850Z 20004KT 170V230 9999 SCT058 02/M02 Q1008=
0151109470999992014010209204+47989+010240FM-15+062999999V0202001V002119999999N009999199+00301-00101999999ADDGA1041+014631991GE19MSL   +99999+99999GF199999041990014631991991MA1100801999990REMMET060METAR EDJA 020920Z 20004KT 160V240 9999 SCT048 03/M01 Q1008=
0174109470999992014010209504+47989+010240FM-15+062999999V0201901V00211007621CN009999199+00301-00101999999ADDGA1041+004571991GA2041+007621991GE19MSL   +99999+99999GF199999041990004571991991MA1100801999990REMMET067METAR EDJA 020950Z 19004KT 140V230 9999 SCT015 SCT025 03/M01 Q1008=
0142109470999992014010210204+47989+010240FM-15+062999999V0209999V001519999999N009999199+00201+00001999999ADDGA1041+017071991GE19MSL   +99999+99999GF199999041990017071991991MA1100801999990REMMET051METAR EDJA 021020Z VRB03KT 9999 SCT056 02/00 Q1008=
0143109470999992014010210504+47989+010240FM-15+062999999V0209999V001519999999N009999199+00201+00001999999ADDGA1041+014631991GE19MSL   +99999+99999GF199999041990014631991991MA1100801999990REMMET052METAR EDJA 021050Z VRB03KT 9999 SCT048 02/M00 Q1008=
0165109470999992014010211204+47989+010240FM-15+062999999V0209999V001010213419N009999199+00301+00001999999ADDGA1041+013721991GA2071+021341991GE19MSL   +99999+99999GF199999041990013721991991MA1100801999990REMMET058METAR EDJA 021120Z VRB02KT 9999 SCT045 BKN070 03/00 Q1008=
0165109470999992014010211504+47989+010240FM-15+062999999V0202501N00211022861CN009999199+00401+00101999999ADDGA1021+015241991GA2041+022861991GE19MSL   +99999+99999GF199999021990015241991991MA1100801999990REMMET058METAR EDJA 021150Z 25004KT 9999 FEW050 SCT075 04/01 Q1008=
0150109470999992014010212204+47989+010240FM-15+062999999V0202301V005119999999N009999199+00401+00101999999ADDGA1041+014631991GE19MSL   +99999+99999GF199999041990014631991991MA1100801999990REMMET059METAR EDJA 021220Z 23010KT 200V260 9999 SCT048 04/01 Q1008=
0142109470999992014010212504+47989+010240FM-15+062999999V0202201N004619999999N009999199+00401+00001999999ADDGA1041+015851991GE19MSL   +99999+99999GF199999041990015851991991MA1100801999990REMMET051METAR EDJA 021250Z 22009KT 9999 SCT052 04/00 Q1008=
0150109470999992014010213204+47989+010240FM-15+062999999V0202201V004119999999N009999199+00401+00001999999ADDGA1021+012191991GE19MSL   +99999+99999GF199999021990012191991991MA1100801999990REMMET059METAR EDJA 021320Z 22008KT 190V250 9999 FEW040 04/00 Q1008=
0142109470999992014010213504+47989+010240FM-15+062999999V0202301N004619999999N009999199+00401+00101999999ADDGA1041+014021991GE19MSL   +99999+99999GF199999041990014021991991MA1100901999990REMMET051METAR EDJA 021350Z 23009KT 9999 SCT046 04/01 Q1009=
0150109470999992014010214204+47989+010240FM-15+062999999V0202301V004119999999N009999199+00401+00101999999ADDGA1041+014021991GE19MSL   +99999+99999GF199999041990014021991991MA1100901999990REMMET059METAR EDJA 021420Z 23008KT 200V260 9999 SCT046 04/01 Q1009=
0173109470999992014010214504+47989+010240FM-15+062999999V0202401V00311022561CN009999199+00401+00101999999ADDGA1021+013721991GA2041+022561991GE19MSL   +99999+99999GF199999021990013721991991MA1100901999990REMMET066METAR EDJA 021450Z 24006KT 200V260 9999 FEW045 SCT074 04/01 Q1009=
0150109470999992014010215204+47989+010240FM-15+062999999V0202201V002610158519N009999199+00401+00101999999ADDGA1071+015851991GE19MSL   +99999+99999GF199999071990015851991991MA1100901999990REMMET059METAR EDJA 021520Z 22005KT 180V250 9999 BKN052 04/01 Q1009=
0173109470999992014010216204+47989+010240FM-15+062999999V0202101V003110128019N009999199+00401+00101999999ADDGA1071+012801991GA2071+021341991GE19MSL   +99999+99999GF199999071990012801991991MA1101001999990REMMET066METAR EDJA 021620Z 21006KT 180V240 9999 BKN042 BKN070 04/01 Q1010=
0201109470999992014010216504+47989+010240FM-15+062999999V0202301V005110198119N009999199+00501+00101999999ADDGA1021+015241991GA2071+019811991GA3071+024381991GE19MSL   +99999+99999GF199999021990015241991991MA1101001999990REMMET078METAR EDJA 021650Z 23010KT 200V260 9999 FEW050 BKN065 BKN080 05/01      Q1010=
0080109470999992014010217204+47989+010240FM-15+062999999V0202301V004619999999Y999999999+00501+00101999999ADDMA1101101999990REMMET053METAR EDJA 021720Z 23009KT 190V260 CAVOK 05/01 Q1011=
0072109470999992014010217504+47989+010240FM-15+062999999V0202301N003619999999Y999999999+00401+00101999999ADDMA1101101999990REMMET045METAR EDJA 021750Z 23007KT CAVOK 04/01 Q1011=
0150109470999992014010218504+47989+010240FM-15+062999999V0202301V003619999999N009999199+00301+00101999999ADDGA1041+013721991GE19MSL   +99999+99999GF199999041990013721991991MA1101101999990REMMET059METAR EDJA 021850Z 23007KT 200V260 9999 SCT045 03/01 Q1011=
0150109470999992014010219204+47989+010240FM-15+062999999V0202101V003619999999N009999199+00301+00101999999ADDGA1041+013721991GE19MSL   +99999+99999GF199999041990013721991991MA1101101999990REMMET059METAR EDJA 021920Z 21007KT 170V240 9999 SCT045 03/01 Q1011=
0080109470999992014010219504+47989+010240FM-15+062999999V0202101V002619999999Y999999999+00201+00001999999ADDMA1101201999990REMMET053METAR EDJA 021950Z 21005KT 150V230 CAVOK 02/00 Q1012=
0080109470999992014010220204+47989+010240FM-15+062999999V0201901V002619999999Y999999999+00201+00001999999ADDMA1101201999990REMMET053METAR EDJA 022020Z 19005KT 160V230 CAVOK 02/00 Q1012=
0080109470999992014010220504+47989+010240FM-15+062999999V0202001V002619999999Y999999999+00201+00001999999ADDMA1101201999990REMMET053METAR EDJA 022050Z 20005KT 170V230 CAVOK 02/00 Q1012=
0072109470999992014010221204+47989+010240FM-15+062999999V0209999V001519999999Y999999999+00201+00001999999ADDMA1101201999990REMMET045METAR EDJA 022120Z VRB03KT CAVOK 02/00 Q1012=
0074109470999992014010304204+47989+010240FM-15+062999999V0209999V001519999999Y999999999-00101-00201999999ADDMA1101201999990REMMET047METAR EDJA 030420Z VRB03KT CAVOK M01/M02 Q1012=
0082109470999992014010304504+47989+010240FM-15+062999999V0201701V003119999999Y999999999-00101-00201999999ADDMA1101201999990REMMET055METAR EDJA 030450Z 17006KT 120V200 CAVOK M01/M02 Q1012=
0082109470999992014010305204+47989+010240FM-15+062999999V0201701V002119999999Y999999999-00101-00201999999ADDMA1101201999990REMMET055METAR EDJA 030520Z 17004KT 140V210 CAVOK M01/M02 Q1012=
0074109470999992014010305504+47989+010240FM-15+062999999V0209999V000519999999Y999999999+00001-00201999999ADDMA1101201999990REMMET047METAR EDJA 030550Z VRB01KT CAVOK M00/M02 Q1012=
0081109470999992014010306204+47989+010240FM-15+062999999V0201801V002619999999Y999999999+00001-00201999999ADDMA1101201999990REMMET054METAR EDJA 030620Z 18005KT 150V210 CAVOK 00/M02 Q1012=
0073109470999992014010306504+47989+010240FM-15+062999999V0202101N002119999999Y999999999+00001-00201999999ADDMA1101201999990REMMET046METAR EDJA 030650Z 21004KT CAVOK 00/M02 Q1012=
0082109470999992014010307204+47989+010240FM-15+062999999V0201901V002119999999Y999999999+00001-00201999999ADDMA1101201999990REMMET055METAR EDJA 030720Z 19004KT 160V220 CAVOK M00/M02 Q1012=
0082109470999992014010307504+47989+010240FM-15+062999999V0202001V002619999999Y999999999-00101-00301999999ADDMA1101201999990REMMET055METAR EDJA 030750Z 20005KT 150V230 CAVOK M01/M03 Q1012=
0073109470999992014010308204+47989+010240FM-15+062999999V0201901N002119999999Y999999999+00001-00201999999ADDMA1101201999990REMMET046METAR EDJA 030820Z 19004KT CAVOK 00/M02 Q1012=
0081109470999992014010308504+47989+010240FM-15+062999999V0201901V003119999999Y999999999+00101-00201999999ADDMA1101201999990REMMET054METAR EDJA 030850Z 19006KT 150V220 CAVOK 01/M02 Q1012=
0073109470999992014010309204+47989+010240FM-15+062999999V0202201N002619999999Y999999999+00101-00201999999ADDMA1101201999990REMMET046METAR EDJA 030920Z 22005KT CAVOK 01/M02 Q1012=
0081109470999992014010309504+47989+010240FM-15+062999999V0201901V002619999999Y999999999+00201-00101999999ADDMA1101201999990REMMET054METAR EDJA 030950Z 19005KT 150V240 CAVOK 02/M01 Q1012=
0081109470999992014010310504+47989+010240FM-15+062999999V0202401V002619999999Y999999999+00401+00001999999ADDMA1101301999990REMMET054METAR EDJA 031050Z 24005KT 190V270 CAVOK 04/M00 Q1013=
0081109470999992014010311204+47989+010240FM-15+062999999V0202101V002619999999Y999999999+00401+00001999999ADDMA1101301999990REMMET054METAR EDJA 031120Z 21005KT 160V230 CAVOK 04/M00 Q1013=
0081109470999992014010311504+47989+010240FM-15+062999999V0202101V003619999999Y999999999+00501-00101999999ADDMA1101301999990REMMET054METAR EDJA 031150Z 21007KT 180V250 CAVOK 05/M01 Q1013=
0072109470999992014010312204+47989+010240FM-15+062999999V0202401N006219999999Y999999999+00701+00101999999ADDMA1101301999990REMMET045METAR EDJA 031220Z 24012KT CAVOK 07/01 Q1013=
0080109470999992014010312504+47989+010240FM-15+062999999V0202301V004619999999Y999999999+00501+00001999999ADDMA1101301999990REMMET053METAR EDJA 031250Z 23009KT 200V260 CAVOK 05/00 Q1013=
0173109470999992014010313204+47989+010240FM-15+062999999V0202301V00411012191CN009999199+00401+00001999999ADDGA1041+009141991GA2041+012191991GE19MSL   +99999+99999GF199999041990009141991991MA1101401999990REMMET066METAR EDJA 031320Z 23008KT 190V250 9999 SCT030 SCT040 04/00 Q1014=
0160109470999992014010313504+47989+010240FM-15+062999999V0202101V003119999999N009999199+00501+00101999999ADDGA1041+012801991GE19MSL   +99999+99999GF199999041990012801991991MA1101301999990MW1611REMMET063METAR EDJA 031350Z 21006KT 160V250 9999 -RA SCT042 05/01 Q1013=
0160109470999992014010314204+47989+010240FM-15+062999999V0202001V002610140219N009999199+00501+00101999999ADDGA1071+014021991GE19MSL   +99999+99999GF199999071990014021991991MA1101301999990MW1611REMMET063METAR EDJA 031420Z 20005KT 160V260 9999 -RA BKN046 05/01 Q1013=
0150109470999992014010314504+47989+010240FM-15+062999999V0202001V002119999999N009999199+00401+00101999999ADDGA1041+016761991GE19MSL   +99999+99999GF199999041990016761991991MA1101301999990REMMET059METAR EDJA 031450Z 20004KT 150V250 9999 SCT055 04/01 Q1013=
0150109470999992014010315204+47989+010240FM-15+062999999V0201801V002619999999N009999199+00501+00001999999ADDGA1021+018291991GE19MSL   +99999+99999GF199999021990018291991991MA1101301999990REMMET059METAR EDJA 031520Z 18005KT 150V210 9999 FEW060 05/00 Q1013=
0143109470999992014010315504+47989+010240FM-15+062999999V0201801N002119999999N009999199+00401+00001999999ADDGA1041+017681991GE19MSL   +99999+99999GF199999041990017681991991MA1101301999990REMMET052METAR EDJA 031550Z 18004KT 9999 SCT058 04/M00 Q1013=
0174109470999992014010316204+47989+010240FM-15+062999999V0202001V00211018291CN009999199+00401-00101999999ADDGA1021+012501991GA2041+018291991GE19MSL   +99999+99999GF199999021990012501991991MA1101301999990REMMET067METAR EDJA 031620Z 20004KT 170V230 9999 FEW041 SCT060 04/M01 Q1013=
0143109470999992014010316504+47989+010240FM-15+062999999V0202601N001019999999N009999199+00401+00001999999ADDGA1041+014331991GE19MSL   +99999+99999GF199999041990014331991991MA1101401999990REMMET052METAR EDJA 031650Z 26002KT 9999 SCT047 04/M00 Q1014=
0151109470999992014010317204+47989+010240FM-15+062999999V0202001V002119999999N009999199+00401+00001999999ADDGA1041+014631991GE19MSL   +99999+99999GF199999041990014631991991MA1101401999990REMMET060METAR EDJA 031720Z 20004KT 160V230 9999 SCT048 04/M00 Q1014=
0151109470999992014010317504+47989+010240FM-15+062999999V0202201V002619999999N009999199+00401-00101999999ADDGA1041+016761991GE19MSL   +99999+99999GF199999041990016761991991MA1101401999990REMMET060METAR EDJA 031750Z 22005KT 190V250 9999 SCT055 04/M01 Q1014=
0081109470999992014010318204+47989+010240FM-15+062999999V0202101V003119999999Y999999999+00401-00101999999ADDMA1101501999990REMMET054METAR EDJA 031820Z 21006KT 150V250 CAVOK 04/M01 Q1015=
0142109470999992014010318504+47989+010240FM-15+062999999V0202301N006219999999N009999199+00601+00101999999ADDGA1021+017681991GE19MSL   +99999+99999GF199999021990017681991991MA1101501999990REMMET051METAR EDJA 031850Z 23012KT 9999 FEW058 06/01 Q1015=
0153109470999992014010319204+47989+010240FM-15+062999999V0202301N007219999999N009999199+00701+00201999999ADDGA1021+014631991GE19MSL   +99999+99999GF199999021990014631991991MA1101501999990OC101241REMMET054METAR EDJA 031920Z 23014G24KT 9999 FEW048 07/02 Q1015=
0150109470999992014010319504+47989+010240FM-15+062999999V0202101V005119999999N009999199+00601+00201999999ADDGA1041+013721991GE19MSL   +99999+99999GF199999041990013721991991MA1101501999990REMMET059METAR EDJA 031950Z 21010KT 170V270 9999 SCT045 06/02 Q1015=
0150109470999992014010320204+47989+010240FM-15+062999999V0202201V004119999999N009999199+00601+00201999999ADDGA1041+018291991GE19MSL   +99999+99999GF199999041990018291991991MA1101501999990REMMET059METAR EDJA 032020Z 22008KT 190V260 9999 SCT060 06/02 Q1015=
0080109470999992014010320504+47989+010240FM-15+062999999V0202001V003119999999Y999999999+00401+00101999999ADDMA1101501999990REMMET053METAR EDJA 032050Z 20006KT 160V240 CAVOK 04/01 Q1015=
0072109470999992014010404504+47989+010240FM-15+062999999V0209999V001019999999Y999999999+00401+00201999999ADDMA1101401999990REMMET045METAR EDJA 040450Z VRB02KT CAVOK 04/02 Q1014=
0072109470999992014010405204+47989+010240FM-15+062999999V0209999V001519999999Y999999999+00401+00101999999ADDMA1101301999990REMMET045METAR EDJA 040520Z VRB03KT CAVOK 04/01 Q1013=
0080109470999992014010405504+47989+010240FM-15+062999999V0200801V003119999999Y999999999+00201+00101999999ADDMA1101301999990REMMET053METAR EDJA 040550Z 08006KT 050V110 CAVOK 02/01 Q1013=
0072109470999992014010406204+47989+010240FM-15+062999999V0200501N003119999999Y999999999+00301+00101999999ADDMA1101201999990REMMET045METAR EDJA 040620Z 05006KT CAVOK 03/01 Q1012=
0072109470999992014010406504+47989+010240FM-15+062999999V0200901N001519999999Y999999999+00301+00101999999ADDMA1101201999990REMMET045METAR EDJA 040650Z 09003KT CAVOK 03/01 Q1012=
0072109470999992014010407204+47989+010240FM-15+062999999V0200901N003119999999Y999999999+00401+00101999999ADDMA1101101999990REMMET045METAR EDJA 040720Z 09006KT CAVOK 04/01 Q1011=
0072109470999992014010407504+47989+010240FM-15+062999999V0200601N003119999999Y999999999+00401+00101999999ADDMA1101001999990REMMET045METAR EDJA 040750Z 06006KT CAVOK 04/01 Q1010=
0072109470999992014010408204+47989+010240FM-15+062999999V0209999V001519999999Y999999999+00501+00001999999ADDMA1101001999990REMMET045METAR EDJA 040820Z VRB03KT CAVOK 05/00 Q1010=
0080109470999992014010408504+47989+010240FM-15+062999999V0200801V002619999999Y999999999+00601+00001999999ADDMA1100901999990REMMET053METAR EDJA 040850Z 08005KT 050V120 CAVOK 06/00 Q1009=
0143109470999992014010409204+47989+010240FM-15+062999999V0200501N003110128019N009999199+00501+00001999999ADDGA1071+012801991GE19MSL   +99999+99999GF199999071990012801991991MA1100901999990REMMET052METAR EDJA 040920Z 05006KT 9999 BKN042 05/M00 Q1009=
0175109470999992014010409504+47989+010240FM-15+062999999V0200601N002110118919N009999199+00501+00101999999ADDGA1021+005491991GA2071+011891991GE19MSL   +99999+99999GF199999021990005491991991MA1100801999990MW1611REMMET062METAR EDJA 040950Z 06004KT 9999 -RA FEW018 BKN039 05/01 Q1008=
0142109470999992014010410204+47989+010240FM-15+062999999V0200501N003610158519N009999199+00401+00101999999ADDGA1071+015851991GE19MSL   +99999+99999GF199999071990015851991991MA1100701999990REMMET051METAR EDJA 041020Z 05007KT 9999 BKN052 04/01 Q1007=
0175109470999992014010410504+47989+010240FM-15+062999999V0200801N002110231619N009999199+00501+00101999999ADDGA1041+013721991GA2071+023161991GE19MSL   +99999+99999GF199999041990013721991991MA1100701999990MW1611REMMET062METAR EDJA 041050Z 08004KT 9999 -RA SCT045 BKN076 05/01 Q1007=
0164109470999992014010411204+47989+010240FM-15+062999999V0200501V002119999999N009999199+00501+00201999999ADDGA1041+015241991GE19MSL   +99999+99999GF199999041990015241991991MA1100501999990MW1611REMMET067METAR COR EDJA 041120Z 05004KT 030V150 9999 -RA SCT050 05/02 Q1005=
0142109470999992014010411504+47989+010240FM-15+062999999V0209999V001510149419N009999199+00501+00201999999ADDGA1071+014941991GE19MSL   +99999+99999GF199999071990014941991991MA1100401999990REMMET051METAR EDJA 041150Z VRB03KT 9999 BKN049 05/02 Q1004=
0150109470999992014010412204+47989+010240FM-15+062999999V0203201V002110118919N009999199+00501+00301999999ADDGA1071+011891991GE19MSL   +99999+99999GF199999071990011891991991MA1100401999990REMMET059METAR EDJA 041220Z 32004KT 250V030 9999 BKN039 05/03 Q1004=
0165109470999992014010412504+47989+010240FM-15+062999999V0209999V001010146319N009999199+00501+00301999999ADDGA1021+010671991GA2071+014631991GE19MSL   +99999+99999GF199999021990010671991991MA1100301999990REMMET058METAR EDJA 041250Z VRB02KT 9999 FEW035 BKN048 05/03 Q1003=
0188109470999992014010413204+47989+010240FM-15+062999999V0209999V00101012191CN009999199+00501+00301999999ADDGA1021+009141991GA2041+012191991GA3071+015241991GE19MSL   +99999+99999GF199999021990009141991991MA1100301999990REMMET065METAR EDJA 041320Z VRB02KT 9999 FEW030 SCT040 BKN050 05/03 Q1003=
0198109470999992014010413504+47989+010240FM-15+062999999V0209999V00101012191CN009999199+00401+00301999999ADDGA1021+009141991GA2041+012191991GA3071+015241991GE19MSL   +99999+99999GF199999021990009141991991MA1100201999990MW1611REMMET069METAR EDJA 041350Z VRB02KT 9999 -RA FEW030 SCT040 BKN050 04/03 Q1002=
0142109470999992014010414204+47989+010240FM-15+062999999V0209999V001510121919N009999199+00401+00301999999ADDGA1071+012191991GE19MSL   +99999+99999GF199999071990012191991991MA1100201999990REMMET051METAR EDJA 041420Z VRB03KT 9999 BKN040 04/03 Q1002=
0150109470999992014010414504+47989+010240FM-15+062999999V0202201V002110121919N009000199+00401+00301999999ADDGA1071+012191991GE19MSL   +99999+99999GF199999071990012191991991MA1100201999990REMMET059METAR EDJA 041450Z 22004KT 170V280 9000 BKN040 04/03 Q1002=
0165109470999992014010415204+47989+010240FM-15+062999999V0202301N001510158519N007000199+00401+00301999999ADDGA1041+012191991GA2071+015851991GE19MSL   +99999+99999GF199999041990012191991991MA1100201999990REMMET058METAR EDJA 041520Z 23003KT 7000 SCT040 BKN052 04/03 Q1002=
0142109470999992014010415504+47989+010240FM-15+062999999V0202501N002110118919N009999199+00401+00301999999ADDGA1071+011891991GE19MSL   +99999+99999GF199999071990011891991991MA1100201999990REMMET051METAR EDJA 041550Z 25004KT 9999 BKN039 04/03 Q1002=
0142109470999992014010416204+47989+010240FM-15+062999999V0202001N001510118919N009999199+00401+00301999999ADDGA1071+011891991GE19MSL   +99999+99999GF199999071990011891991991MA1100201999990REMMET051METAR EDJA 041620Z 20003KT 9999 BKN039 04/03 Q1002=
0160109470999992014010416504+47989+010240FM-15+062999999V0201901V002110106719N009999199+00401+00301999999ADDGA1071+010671991GE19MSL   +99999+99999GF199999071990010671991991MA1100301999990MW1611REMMET063METAR EDJA 041650Z 19004KT 160V230 9999 -RA BKN035 04/03 Q1003=
0160109470999992014010417204+47989+010240FM-15+062999999V0202101V002110097519N009000199+00401+00301999999ADDGA1071+009751991GE19MSL   +99999+99999GF199999071990009751991991MA1100301999990MW1611REMMET063METAR EDJA 041720Z 21004KT 170V250 9000 -RA BKN032 04/03 Q1003=
0183109470999992014010417504+47989+010240FM-15+062999999V0202001V002610097519N009999199+00401+00401999999ADDGA1041+004571991GA2071+009751991GE19MSL   +99999+99999GF199999041990004571991991MA1100301999990MW1611REMMET070METAR EDJA 041750Z 20005KT 170V240 9999 -RA SCT015 BKN032 04/04 Q1003=
0183109470999992014010418204+47989+010240FM-15+062999999V0202101V003610106719N008000199+00401+00301999999ADDGA1021+001521991GA2071+010671991GE19MSL   +99999+99999GF199999021990001521991991MA1100301999990MW1611REMMET070METAR EDJA 041820Z 21007KT 170V260 8000 -RA FEW005 BKN035 04/03 Q1003=
0160109470999992014010418504+47989+010240FM-15+062999999V0201901V003610106719N008000199+00401+00301999999ADDGA1071+010671991GE19MSL   +99999+99999GF199999071990010671991991MA1100301999990MW1611REMMET063METAR EDJA 041850Z 19007KT 160V230 8000 -RA BKN035 04/03 Q1003=
0150109470999992014010419204+47989+010240FM-15+062999999V0201901V002610109719N009999199+00401+00301999999ADDGA1071+010971991GE19MSL   +99999+99999GF199999071990010971991991MA1100301999990REMMET059METAR EDJA 041920Z 19005KT 160V220 9999 BKN036 04/03 Q1003=
0150109470999992014010419504+47989+010240FM-15+062999999V0201801V003119999999N009999199+00401+00301999999ADDGA1041+010971991GE19MSL   +99999+99999GF199999041990010971991991MA1100201999990REMMET059METAR EDJA 041950Z 18006KT 120V240 9999 SCT036 04/03 Q1002=
0080109470999992014010420204+47989+010240FM-15+062999999V0201701V003119999999Y999999999+00401+00301999999ADDMA1100201999990REMMET053METAR EDJA 042020Z 17006KT 120V210 CAVOK 04/03 Q1002=
0080109470999992014010420504+47989+010240FM-15+062999999V0201701V003619999999Y999999999+00401+00301999999ADDMA1100101999990REMMET053METAR EDJA 042050Z 17007KT 130V220 CAVOK 04/03 Q1001=
0150109470999992014010504504+47989+010240FM-15+062999999V0202401V007210033519N009999199+00401+00201999999ADDGA1071+003351991GE19MSL   +99999+99999GF199999071990003351991991MA1100401999990REMMET059METAR EDJA 050450Z 24014KT 200V260 9999 BKN011 04/02 Q1004=
0160109470999992014010505204+47989+010240FM-15+062999999V0202301V006710036619N009999199+00301+00201999999ADDGA1071+003661991GE19MSL   +99999+99999GF199999071990003661991991MA1100401999990MW1611REMMET063METAR EDJA 050520Z 23013KT 200V260 9999 -RA BKN012 03/02 Q1004=
0160109470999992014010505504+47989+010240FM-15+062999999V0202401V007210030519N009999199+00301+00201999999ADDGA1071+003051991GE19MSL   +99999+99999GF199999071990003051991991MA1100601999990MW1611REMMET063METAR EDJA 050550Z 24014KT 210V270 9999 -RA BKN010 03/02 Q1006=
0160109470999992014010506204+47989+010240FM-15+062999999V0202301V005110024419N009000199+00201+00101999999ADDGA1071+002441991GE19MSL   +99999+99999GF199999071990002441991991MA1100601999990MW1611REMMET063METAR EDJA 050620Z 23010KT 190V250 9000 -RA BKN008 02/01 Q1006=
0160109470999992014010506504+47989+010240FM-15+062999999V0202301V004610027419N009999199+00201+00101999999ADDGA1071+002741991GE19MSL   +99999+99999GF199999071990002741991991MA1100701999990MW1611REMMET063METAR EDJA 050650Z 23009KT 190V250 9999 -RA BKN009 02/01 Q1007=
0159109470999992014010507204+47989+010240FM-15+062999999V0202301V004110033519N009999199+00201+00201999999ADDGA1071+003351991GE19MSL   +99999+99999GF199999071990003351991991MA1100801999990MW1531REMMET062METAR EDJA 050720Z 23008KT 200V260 9999 DZ BKN011 02/02 Q1008=
0151109470999992014010508204+47989+010240FM-15+062999999V0202301N005110027419N009999199+00301+00201999999ADDGA1071+002741991GE19MSL   +99999+99999GF199999071990002741991991MA1100801999990MW1531REMMET054METAR EDJA 050820Z 23010KT 9999 DZ BKN009 03/02 Q1008=
0150109470999992014010508504+47989+010240FM-15+062999999V0202301V004610030519N009999199+00301+00201999999ADDGA1071+003051991GE19MSL   +99999+99999GF199999071990003051991991MA1100901999990REMMET059METAR EDJA 050850Z 23009KT 200V260 9999 BKN010 03/02 Q1009=
0150109470999992014010509204+47989+010240FM-15+062999999V0202301V004610036619N009999199+00301+00201999999ADDGA1071+003661991GE19MSL   +99999+99999GF199999071990003661991991MA1100901999990REMMET059METAR EDJA 050920Z 23009KT 190V260 9999 BKN012 03/02 Q1009=
0150109470999992014010509504+47989+010240FM-15+062999999V0202301V004110036619N009999199+00301+00201999999ADDGA1071+003661991GE19MSL   +99999+99999GF199999071990003661991991MA1101001999990REMMET059METAR EDJA 050950Z 23008KT 200V260 9999 BKN012 03/02 Q1010=
0150109470999992014010510204+47989+010240FM-15+062999999V0202301V004110030519N009999199+00301+00201999999ADDGA1071+003051991GE19MSL   +99999+99999GF199999071990003051991991MA1101001999990REMMET059METAR EDJA 051020Z 23008KT 190V260 9999 BKN010 03/02 Q1010=
0151109470999992014010510504+47989+010240FM-15+062999999V0202301N004110030519N009999199+00301+00201999999ADDGA1071+003051991GE19MSL   +99999+99999GF199999071990003051991991MA1101001999990MW1531REMMET054METAR EDJA 051050Z 23008KT 9999 DZ BKN010 03/02 Q1010=
0150109470999992014010511204+47989+010240FM-15+062999999V0202301V004110024419N009999199+00301+00201999999ADDGA1071+002441991GE19MSL   +99999+99999GF199999071990002441991991MA1101101999990REMMET059METAR EDJA 051120Z 23008KT 200V260 9999 BKN008 03/02 Q1011=
0150109470999992014010511504+47989+010240FM-15+062999999V0202301V003610030519N009999199+00301+00201999999ADDGA1071+003051991GE19MSL   +99999+99999GF199999071990003051991991MA1101001999990REMMET059METAR EDJA 051150Z 23007KT 180V250 9999 BKN010 03/02 Q1010=
0150109470999992014010512204+47989+010240FM-15+062999999V0202201V004110036619N009999199+00301+00201999999ADDGA1071+003661991GE19MSL   +99999+99999GF199999071990003661991991MA1101101999990REMMET059METAR EDJA 051220Z 22008KT 180V250 9999 BKN012 03/02 Q1011=
0173109470999992014010512504+47989+010240FM-15+062999999V0202201V003610070119N009999199+00401+00201999999ADDGA1041+003661991GA2071+007011991GE19MSL   +99999+99999GF199999041990003661991991MA1101101999990REMMET066METAR EDJA 051250Z 22007KT 180V250 9999 SCT012 BKN023 04/02 Q1011=
0201109470999992014010513204+47989+010240FM-15+062999999V0202401V004110045719N009999199+00301+00201999999ADDGA1021+002741991GA2071+004571991GA3071+007011991GE19MSL   +99999+99999GF199999021990002741991991MA1101101999990REMMET078METAR EDJA 051320Z 24008KT 190V270 9999 FEW009 BKN015 BKN023 03/02      Q1011=
0165109470999992014010513504+47989+010240FM-15+062999999V0202301N00361007321CN009999199+00301+00201999999ADDGA1041+004881991GA2041+007321991GE19MSL   +99999+99999GF199999041990004881991991MA1101201999990REMMET058METAR EDJA 051350Z 23007KT 9999 SCT016 SCT024 03/02 Q1012=
0150109470999992014010514204+47989+010240FM-15+062999999V0202201V002619999999N009999199+00301+00201999999ADDGA1041+008841991GE19MSL   +99999+99999GF199999041990008841991991MA1101201999990REMMET059METAR EDJA 051420Z 22005KT 180V260 9999 SCT029 03/02 Q1012=
0173109470999992014010514504+47989+010240FM-15+062999999V0202201V00261009141CN009999199+00301+00201999999ADDGA1021+003661991GA2041+009141991GE19MSL   +99999+99999GF199999021990003661991991MA1101301999990REMMET066METAR EDJA 051450Z 22005KT 180V260 9999 FEW012 SCT030 03/02 Q1013=
0173109470999992014010515504+47989+010240FM-15+062999999V0202201V00211008531CN009999199+00301+00201999999ADDGA1021+004271991GA2041+008531991GE19MSL   +99999+99999GF199999021990004271991991MA1101301999990REMMET066METAR EDJA 051550Z 22004KT 190V250 9999 FEW014 SCT028 03/02 Q1013=
0150109470999992014010516204+47989+010240FM-15+062999999V0202001V002119999999N009999199+00301+00101999999ADDGA1021+009751991GE19MSL   +99999+99999GF199999021990009751991991MA1101401999990REMMET059METAR EDJA 051620Z 20004KT 160V250 9999 FEW032 03/01 Q1014=
0072109470999992014010516504+47989+010240FM-15+062999999V0209999V001519999999Y999999999+00201+00101999999ADDMA1101401999990REMMET045METAR EDJA 051650Z VRB03KT CAVOK 02/01 Q1014=
0072109470999992014010517204+47989+010240FM-15+062999999V0209999V001519999999Y999999999+00201+00101999999ADDMA1101401999990REMMET045METAR EDJA 051720Z VRB03KT CAVOK 02/01 Q1014=
0072109470999992014010517504+47989+010240FM-15+062999999V0201801N002119999999Y999999999+00101+00101999999ADDMA1101501999990REMMET045METAR EDJA 051750Z 18004KT CAVOK 01/01 Q1015=
0080109470999992014010518204+47989+010240FM-15+062999999V0201801V002119999999Y999999999+00101+00101999999ADDMA1101501999990REMMET053METAR EDJA 051820Z 18004KT 150V210 CAVOK 01/01 Q1015=
0072109470999992014010518504+47989+010240FM-15+062999999V0201901N002119999999Y999999999+00101+00001999999ADDMA1101501999990REMMET045METAR EDJA 051850Z 19004KT CAVOK 01/00 Q1015=
0073109470999992014010519204+47989+010240FM-15+062999999V0201901N001519999999Y999999999+00001+00001999999ADDMA1101501999990REMMET046METAR EDJA 051920Z 19003KT CAVOK 00/M00 Q1015=
0073109470999992014010519504+47989+010240FM-15+062999999V0201801N002119999999Y999999999+00001-00101999999ADDMA1101501999990REMMET046METAR EDJA 051950Z 18004KT CAVOK 00/M01 Q1015=
0082109470999992014010604504+47989+010240FM-15+062999999V0201801V002119999999Y999999999-00201-00301999999ADDMA1101501999990REMMET055METAR EDJA 060450Z 18004KT 150V210 CAVOK M02/M03 Q1015=
0074109470999992014010605204+47989+010240FM-15+062999999V0209999V001519999999Y999999999-00201-00301999999ADDMA1101501999990REMMET047METAR EDJA 060520Z VRB03KT CAVOK M02/M03 Q1015=
0082109470999992014010605504+47989+010240FM-15+062999999V0201801V002619999999Y999999999-00301-00401999999ADDMA1101501999990REMMET055METAR EDJA 060550Z 18005KT 140V210 CAVOK M03/M04 Q1015=
0074109470999992014010606204+47989+010240FM-15+062999999V0201801N002619999999Y999999999-00301-00401999999ADDMA1101501999990REMMET047METAR EDJA 060620Z 18005KT CAVOK M03/M04 Q1015=
0082109470999992014010606504+47989+010240FM-15+062999999V0202001V002619999999Y999999999-00201-00301999999ADDMA1101501999990REMMET055METAR EDJA 060650Z 20005KT 160V220 CAVOK M02/M03 Q1015=
0082109470999992014010607204+47989+010240FM-15+062999999V0202101V002119999999Y999999999-00201-00401999999ADDMA1101601999990REMMET055METAR EDJA 060720Z 21004KT 160V250 CAVOK M02/M04 Q1016=
0074109470999992014010607504+47989+010240FM-15+062999999V0209999V001519999999Y999999999-00101-00301999999ADDMA1101601999990REMMET047METAR EDJA 060750Z VRB03KT CAVOK M01/M03 Q1016=
0082109470999992014010608204+47989+010240FM-15+062999999V0202201V002619999999Y999999999+00001-00301999999ADDMA1101601999990REMMET055METAR EDJA 060820Z 22005KT 200V260 CAVOK M00/M03 Q1016=
0081109470999992014010609204+47989+010240FM-15+062999999V0202101V003119999999Y999999999+00101-00201999999ADDMA1101601999990REMMET054METAR EDJA 060920Z 21006KT 170V250 CAVOK 01/M02 Q1016=
0151109470999992014010609504+47989+010240FM-15+062999999V0202001V003119999999N009999199+00101-00101999999ADDGA1021+010671991GE19MSL   +99999+99999GF199999021990010671991991MA1101601999990REMMET060METAR EDJA 060950Z 20006KT 160V230 9999 FEW035 01/M01 Q1016=
0151109470999992014010610204+47989+010240FM-15+062999999V0202001V003619999999N009999199+00201-00101999999ADDGA1021+009451991GE19MSL   +99999+99999GF199999021990009451991991MA1101601999990REMMET060METAR EDJA 061020Z 20007KT 160V230 9999 FEW031 02/M01 Q1016=
0150109470999992014010610504+47989+010240FM-15+062999999V0202001V003119999999N009999199+00301+00001999999ADDGA1021+009451991GE19MSL   +99999+99999GF199999021990009451991991MA1101601999990REMMET059METAR EDJA 061050Z 20006KT 160V230 9999 FEW031 03/00 Q1016=
0081109470999992014010611204+47989+010240FM-15+062999999V0201901V003619999999Y999999999+00401+00001999999ADDMA1101501999990REMMET054METAR EDJA 061120Z 19007KT 150V230 CAVOK 04/M00 Q1015=
0080109470999992014010611504+47989+010240FM-15+062999999V0202101V003619999999Y999999999+00601+00001999999ADDMA1101501999990REMMET053METAR EDJA 061150Z 21007KT 180V250 CAVOK 06/00 Q1015=
0080109470999992014010612204+47989+010240FM-15+062999999V0202001V002619999999Y999999999+00601+00101999999ADDMA1101501999990REMMET053METAR EDJA 061220Z 20005KT 170V240 CAVOK 06/01 Q1015=
0080109470999992014010612504+47989+010240FM-15+062999999V0202001V002619999999Y999999999+00701+00101999999ADDMA1101401999990REMMET053METAR EDJA 061250Z 20005KT 160V230 CAVOK 07/01 Q1014=
0080109470999992014010613204+47989+010240FM-15+062999999V0202001V003119999999Y999999999+00801+00201999999ADDMA1101401999990REMMET053METAR EDJA 061320Z 20006KT 170V230 CAVOK 08/02 Q1014=
0080109470999992014010613504+47989+010240FM-15+062999999V0202001V002119999999Y999999999+00801+00301999999ADDMA1101401999990REMMET053METAR EDJA 061350Z 20004KT 170V230 CAVOK 08/03 Q1014=
0072109470999992014010614204+47989+010240FM-15+062999999V0209999V001519999999Y999999999+00901+00201999999ADDMA1101501999990REMMET045METAR EDJA 061420Z VRB03KT CAVOK 09/02 Q1015=
0072109470999992014010614504+47989+010240FM-15+062999999V0202401N002119999999Y999999999+00801+00301999999ADDMA1101501999990REMMET045METAR EDJA 061450Z 24004KT CAVOK 08/03 Q1015=
0072109470999992014010615204+47989+010240FM-15+062999999V0209999V001019999999Y999999999+00801+00201999999ADDMA1101401999990REMMET045METAR EDJA 061520Z VRB02KT CAVOK 08/02 Q1014=
0072109470999992014010615504+47989+010240FM-15+062999999V0209999V001519999999Y999999999+00701+00301999999ADDMA1101501999990REMMET045METAR EDJA 061550Z VRB03KT CAVOK 07/03 Q1015=
0072109470999992014010616204+47989+010240FM-15+062999999V0209999V001019999999Y999999999+00601+00201999999ADDMA1101401999990REMMET045METAR EDJA 061620Z VRB02KT CAVOK 06/02 Q1014=
0072109470999992014010616504+47989+010240FM-15+062999999V0209999V001019999999Y999999999+00601+00101999999ADDMA1101401999990REMMET045METAR EDJA 061650Z VRB02KT CAVOK 06/01 Q1014=
0073109470999992014010617204+47989+010240FM-15+062999999V0209999V001019999999Y999999999+00601+00001999999ADDMA1101301999990REMMET046METAR EDJA 061720Z VRB02KT CAVOK 06/M00 Q1013=
0072109470999992014010617504+47989+010240FM-15+062999999V0209999V000519999999Y999999999+00401+00101999999ADDMA1101301999990REMMET045METAR EDJA 061750Z VRB01KT CAVOK 04/01 Q1013=
0072109470999992014010618204+47989+010240FM-15+062999999V0209999V000519999999Y999999999+00401+00101999999ADDMA1101301999990REMMET045METAR EDJA 061820Z VRB01KT CAVOK 04/01 Q1013=
0165109470999992014010618504+47989+010240FM-15+062999999V0209999C000010237719N009999199+00301+00101999999ADDGA1021+012191991GA2071+023771991GE19MSL   +99999+99999GF199999021990012191991991MA1101301999990REMMET058METAR EDJA 061850Z 00000KT 9999 FEW040 BKN078 03/01 Q1013=
0142109470999992014010619204+47989+010240FM-15+062999999V0209999V001019999999N009999199+00401+00101999999ADDGA1021+012191991GE19MSL   +99999+99999GF199999021990012191991991MA1101201999990REMMET051METAR EDJA 061920Z VRB02KT 9999 FEW040 04/01 Q1012=
0072109470999992014010619504+47989+010240FM-15+062999999V0202401N003619999999Y999999999+00401+00101999999ADDMA1101301999990REMMET045METAR EDJA 061950Z 24007KT CAVOK 04/01 Q1013=
0072109470999992014010620204+47989+010240FM-15+062999999V0202001N002619999999Y999999999+00401+00101999999ADDMA1101301999990REMMET045METAR EDJA 062020Z 20005KT CAVOK 04/01 Q1013=
0080109470999992014010704204+47989+010240FM-15+062999999V0202101V003119999999Y999999999+00701+00101999999ADDMA1101801999990REMMET053METAR EDJA 070420Z 21006KT 170V250 CAVOK 07/01 Q1018=
0080109470999992014010704504+47989+010240FM-15+062999999V0202101V003119999999Y999999999+00801+00101999999ADDMA1101801999990REMMET053METAR EDJA 070450Z 21006KT 170V260 CAVOK 08/01 Q1018=
0080109470999992014010705204+47989+010240FM-15+062999999V0202101V002619999999Y999999999+00701+00201999999ADDMA1101801999990REMMET053METAR EDJA 070520Z 21005KT 170V260 CAVOK 07/02 Q1018=
0080109470999992014010705504+47989+010240FM-15+062999999V0202101V002119999999Y999999999+00701+00201999999ADDMA1101901999990REMMET053METAR EDJA 070550Z 21004KT 160V270 CAVOK 07/02 Q1019=
0072109470999992014010706204+47989+010240FM-15+062999999V0209999V001519999999Y999999999+00601+00201999999ADDMA1101801999990REMMET045METAR EDJA 070620Z VRB03KT CAVOK 06/02 Q1018=
0080109470999992014010706504+47989+010240FM-15+062999999V0202001V002119999999Y999999999+00701+00101999999ADDMA1101901999990REMMET053METAR EDJA 070650Z 20004KT 160V240 CAVOK 07/01 Q1019=
0080109470999992014010707204+47989+010240FM-15+062999999V0202101V003619999999Y999999999+00701+00101999999ADDMA1101901999990REMMET053METAR EDJA 070720Z 21007KT 180V240 CAVOK 07/01 Q1019=
0080109470999992014010708204+47989+010240FM-15+062999999V0201801V002619999999Y999999999+00501+00201999999ADDMA1101901999990REMMET053METAR EDJA 070820Z 18005KT 150V210 CAVOK 05/02 Q1019=
0072109470999992014010709204+47989+010240FM-15+062999999V0209999V001019999999Y999999999+00901+00301999999ADDMA1102001999990REMMET045METAR EDJA 070920Z VRB02KT CAVOK 09/03 Q1020=
0072109470999992014010710204+47989+010240FM-15+062999999V0209999V001519999999Y999999999+01101+00401999999ADDMA1102001999990REMMET045METAR EDJA 071020Z VRB03KT CAVOK 11/04 Q1020=
0072109470999992014010710504+47989+010240FM-15+062999999V0209999V001519999999Y999999999+01101+00401999999ADDMA1101901999990REMMET045METAR EDJA 071050Z VRB03KT CAVOK 11/04 Q1019=
0080109470999992014010711204+47989+010240FM-15+062999999V0202201V002119999999Y999999999+01201+00301999999ADDMA1101901999990REMMET053METAR EDJA 071120Z 22004KT 160V250 CAVOK 12/03 Q1019=
0072109470999992014010711504+47989+010240FM-15+062999999V0202501N003119999999Y999999999+01201+00101999999ADDMA1101901999990REMMET045METAR EDJA 071150Z 25006KT CAVOK 12/01 Q1019=
0080109470999992014010712204+47989+010240FM-15+062999999V0202401V003119999999Y999999999+01201+00001999999ADDMA1101901999990REMMET053METAR EDJA 071220Z 24006KT 200V260 CAVOK 12/00 Q1019=
0072109470999992014010712504+47989+010240FM-15+062999999V0202301N002119999999Y999999999+01101+00401999999ADDMA1101901999990REMMET045METAR EDJA 071250Z 23004KT CAVOK 11/04 Q1019=
0080109470999992014010713204+47989+010240FM-15+062999999V0202401V002119999999Y999999999+01201+00101999999ADDMA1101901999990REMMET053METAR EDJA 071320Z 24004KT 200V280 CAVOK 12/01 Q1019=
0072109470999992014010713504+47989+010240FM-15+062999999V0209999V001519999999Y999999999+01201+00401999999ADDMA1101901999990REMMET045METAR EDJA 071350Z VRB03KT CAVOK 12/04 Q1019=
0072109470999992014010714204+47989+010240FM-15+062999999V0201901N002619999999Y999999999+01101+00301999999ADDMA1101901999990REMMET045METAR EDJA 071420Z 19005KT CAVOK 11/03 Q1019=
0080109470999992014010715204+47989+010240FM-15+062999999V0201801V002119999999Y999999999+00901+00301999999ADDMA1101901999990REMMET053METAR EDJA 071520Z 18004KT 150V220 CAVOK 09/03 Q1019=
0080109470999992014010715504+47989+010240FM-15+062999999V0202001V002119999999Y999999999+00801+00201999999ADDMA1101901999990REMMET053METAR EDJA 071550Z 20004KT 170V230 CAVOK 08/02 Q1019=
0072109470999992014010716204+47989+010240FM-15+062999999V0209999V001019999999Y999999999+00601+00201999999ADDMA1101901999990REMMET045METAR EDJA 071620Z VRB02KT CAVOK 06/02 Q1019=
0072109470999992014010716504+47989+010240FM-15+062999999V0209999V001019999999Y999999999+00501+00101999999ADDMA1101901999990REMMET045METAR EDJA 071650Z VRB02KT CAVOK 05/01 Q1019=
0072109470999992014010717204+47989+010240FM-15+062999999V0209999V001019999999Y999999999+00501+00201999999ADDMA1101901999990REMMET045METAR EDJA 071720Z VRB02KT CAVOK 05/02 Q1019=
0072109470999992014010717504+47989+010240FM-15+062999999V0209999V001519999999Y999999999+00501+00201999999ADDMA1101901999990REMMET045METAR EDJA 071750Z VRB03KT CAVOK 05/02 Q1019=
0072109470999992014010718204+47989+010240FM-15+062999999V0209999V001519999999Y999999999+00601+00201999999ADDMA1101901999990REMMET045METAR EDJA 071820Z VRB03KT CAVOK 06/02 Q1019=
0072109470999992014010718504+47989+010240FM-15+062999999V0209999V001019999999Y999999999+00601+00201999999ADDMA1101901999990REMMET045METAR EDJA 071850Z VRB02KT CAVOK 06/02 Q1019=
0072109470999992014010719204+47989+010240FM-15+062999999V0209999V000519999999Y999999999+00601+00201999999ADDMA1101901999990REMMET045METAR EDJA 071920Z VRB01KT CAVOK 06/02 Q1019=
0080109470999992014010719504+47989+010240FM-15+062999999V0202001V002119999999Y999999999+00701+00201999999ADDMA1101901999990REMMET053METAR EDJA 071950Z 20004KT 160V240 CAVOK 07/02 Q1019=
0160109470999992014010804504+47989+010240FM-15+062999999V0202101V002110176819N009999199+00601+00201999999ADDGA1071+017681991GE19MSL   +99999+99999GF199999071990017681991991MA1102201999990MW1611REMMET063METAR EDJA 080450Z 21004KT 170V240 9999 -RA BKN058 06/02 Q1022=
0160109470999992014010805204+47989+010240FM-15+062999999V0202001V002110164619N009999199+00601+00301999999ADDGA1071+016461991GE19MSL   +99999+99999GF199999071990016461991991MA1102201999990MW1611REMMET063METAR EDJA 080520Z 20004KT 150V230 9999 -RA BKN054 06/03 Q1022=
0183109470999992014010805504+47989+010240FM-15+062999999V0201901V002610231619N009999199+00601+00301999999ADDGA1021+017681991GA2071+023161991GE19MSL   +99999+99999GF199999021990017681991991MA1102201999990MW1611REMMET070METAR EDJA 080550Z 19005KT 160V220 9999 -RA FEW058 BKN076 06/03 Q1022=
0173109470999992014010806204+47989+010240FM-15+062999999V0202301V002610225619N009999199+00601+00301999999ADDGA1021+016461991GA2071+022561991GE19MSL   +99999+99999GF199999021990016461991991MA1102201999990REMMET066METAR EDJA 080620Z 23005KT 180V260 9999 FEW054 BKN074 06/03 Q1022=
0173109470999992014010806504+47989+010240FM-15+062999999V0202101V003610292619N009999199+00701+00301999999ADDGA1021+017681991GA2071+029261991GE19MSL   +99999+99999GF199999021990017681991991MA1102301999990REMMET066METAR EDJA 080650Z 21007KT 170V240 9999 FEW058 BKN096 07/03 Q1023=
0165109470999992014010807204+47989+010240FM-15+062999999V0202201N00311025911CN009999199+00701+00301999999ADDGA1021+017681991GA2041+025911991GE19MSL   +99999+99999GF199999021990017681991991MA1102301999990REMMET058METAR EDJA 080720Z 22006KT 9999 FEW058 SCT085 07/03 Q1023=
0150109470999992014010807504+47989+010240FM-15+062999999V0202201V003119999999N009999199+00701+00301999999ADDGA1021+016761991GE19MSL   +99999+99999GF199999021990016761991991MA1102301999990REMMET059METAR EDJA 080750Z 22006KT 190V260 9999 FEW055 07/03 Q1023=
0150109470999992014010808204+47989+010240FM-15+062999999V0202201V002619999999N009999199+00601+00301999999ADDGA1021+015241991GE19MSL   +99999+99999GF199999021990015241991991MA1102301999990REMMET059METAR EDJA 080820Z 22005KT 170V250 9999 FEW050 06/03 Q1023=
0150109470999992014010808504+47989+010240FM-15+062999999V0202201V002619999999N009999199+00701+00401999999ADDGA1021+015851991GE19MSL   +99999+99999GF199999021990015851991991MA1102401999990REMMET059METAR EDJA 080850Z 22005KT 190V260 9999 FEW052 07/04 Q1024=
0072109470999992014010809204+47989+010240FM-15+062999999V0202201N003619999999Y999999999+00901+00401999999ADDMA1102401999990REMMET045METAR EDJA 080920Z 22007KT CAVOK 09/04 Q1024=
0080109470999992014010809504+47989+010240FM-15+062999999V0202301V003619999999Y999999999+00901+00401999999ADDMA1102401999990REMMET053METAR EDJA 080950Z 23007KT 200V270 CAVOK 09/04 Q1024=
0080109470999992014010810204+47989+010240FM-15+062999999V0202301V002619999999Y999999999+01001+00401999999ADDMA1102401999990REMMET053METAR EDJA 081020Z 23005KT 200V260 CAVOK 10/04 Q1024=
0080109470999992014010810504+47989+010240FM-15+062999999V0202301V003119999999Y999999999+01101+00401999999ADDMA1102401999990REMMET053METAR EDJA 081050Z 23006KT 200V260 CAVOK 11/04 Q1024=
0072109470999992014010811204+47989+010240FM-15+062999999V0202301N003119999999Y999999999+01101+00401999999ADDMA1102301999990REMMET045METAR EDJA 081120Z 23006KT CAVOK 11/04 Q1023=
0080109470999992014010811504+47989+010240FM-15+062999999V0202301V003619999999Y999999999+01201+00501999999ADDMA1102301999990REMMET053METAR EDJA 081150Z 23007KT 190V260 CAVOK 12/05 Q1023=
0080109470999992014010812204+47989+010240FM-15+062999999V0202301V003619999999Y999999999+01201+00501999999ADDMA1102201999990REMMET053METAR EDJA 081220Z 23007KT 200V260 CAVOK 12/05 Q1022=
0080109470999992014010812504+47989+010240FM-15+062999999V0202401V004119999999Y999999999+01201+00501999999ADDMA1102201999990REMMET053METAR EDJA 081250Z 24008KT 200V260 CAVOK 12/05 Q1022=
0080109470999992014010813204+47989+010240FM-15+062999999V0202401V003119999999Y999999999+01201+00501999999ADDMA1102201999990REMMET053METAR EDJA 081320Z 24006KT 210V270 CAVOK 12/05 Q1022=
0080109470999992014010813504+47989+010240FM-15+062999999V0202301V002619999999Y999999999+01201+00501999999ADDMA1102201999990REMMET053METAR EDJA 081350Z 23005KT 190V250 CAVOK 12/05 Q1022=
0080109470999992014010814204+47989+010240FM-15+062999999V0202401V002119999999Y999999999+01201+00501999999ADDMA1102201999990REMMET053METAR EDJA 081420Z 24004KT 200V270 CAVOK 12/05 Q1022=
0072109470999992014010814504+47989+010240FM-15+062999999V0209999V001519999999Y999999999+01101+00501999999ADDMA1102201999990REMMET045METAR EDJA 081450Z VRB03KT CAVOK 11/05 Q1022=
0072109470999992014010815204+47989+010240FM-15+062999999V0202301N001019999999Y999999999+01001+00401999999ADDMA1102201999990REMMET045METAR EDJA 081520Z 23002KT CAVOK 10/04 Q1022=
0072109470999992014010815504+47989+010240FM-15+062999999V0209999V001019999999Y999999999+00901+00401999999ADDMA1102201999990REMMET045METAR EDJA 081550Z VRB02KT CAVOK 09/04 Q1022=
0072109470999992014010816204+47989+010240FM-15+062999999V0201701N001519999999Y999999999+00701+00401999999ADDMA1102201999990REMMET045METAR EDJA 081620Z 17003KT CAVOK 07/04 Q1022=
0072109470999992014010816504+47989+010240FM-15+062999999V0201601N002119999999Y999999999+00601+00301999999ADDMA1102101999990REMMET045METAR EDJA 081650Z 16004KT CAVOK 06/03 Q1021=
0072109470999992014010817504+47989+010240FM-15+062999999V0209999V000519999999Y999999999+00501+00301999999ADDMA1102101999990REMMET045METAR EDJA 081750Z VRB01KT CAVOK 05/03 Q1021=
0072109470999992014010818504+47989+010240FM-15+062999999V0201701N002119999999Y999999999+00301+00201999999ADDMA1102101999990REMMET045METAR EDJA 081850Z 17004KT CAVOK 03/02 Q1021=
0072109470999992014010819204+47989+010240FM-15+062999999V0201701N002119999999Y999999999+00301+00201999999ADDMA1102101999990REMMET045METAR EDJA 081920Z 17004KT CAVOK 03/02 Q1021=
0080109470999992014010819504+47989+010240FM-15+062999999V0201601V002619999999Y999999999+00301+00201999999ADDMA1102101999990REMMET053METAR EDJA 081950Z 16005KT 130V190 CAVOK 03/02 Q1021=
0072109470999992014010820204+47989+010240FM-15+062999999V0209999V001019999999Y999999999+00301+00201999999ADDMA1102101999990REMMET045METAR EDJA 082020Z VRB02KT CAVOK 03/02 Q1021=
0081109470999992014010904504+47989+010240FM-15+062999999V0202001V002119999999Y999999999+00201+00001999999ADDMA1101701999990REMMET054METAR EDJA 090450Z 20004KT 170V230 CAVOK 02/M00 Q1017=
0072109470999992014010905204+47989+010240FM-15+062999999V0209999V001519999999Y999999999+00301+00001999999ADDMA1101701999990REMMET045METAR EDJA 090520Z VRB03KT CAVOK 03/00 Q1017=
0080109470999992014010905504+47989+010240FM-15+062999999V0202101V002119999999Y999999999+00301+00101999999ADDMA1101701999990REMMET053METAR EDJA 090550Z 21004KT 170V260 CAVOK 03/01 Q1017=
0080109470999992014010906204+47989+010240FM-15+062999999V0201901V002619999999Y999999999+00201+00001999999ADDMA1101701999990REMMET053METAR EDJA 090620Z 19005KT 150V220 CAVOK 02/00 Q1017=
0080109470999992014010906504+47989+010240FM-15+062999999V0201901V002619999999Y999999999+00201+00101999999ADDMA1101601999990REMMET053METAR EDJA 090650Z 19005KT 150V230 CAVOK 02/01 Q1016=
0080109470999992014010907504+47989+010240FM-15+062999999V0202201V002119999999Y999999999+00301+00101999999ADDMA1101601999990REMMET053METAR EDJA 090750Z 22004KT 180V270 CAVOK 03/01 Q1016=
0080109470999992014010908204+47989+010240FM-15+062999999V0202201V003619999999Y999999999+00401+00101999999ADDMA1101601999990REMMET053METAR EDJA 090820Z 22007KT 190V250 CAVOK 04/01 Q1016=
0080109470999992014010908504+47989+010240FM-15+062999999V0202101V004119999999Y999999999+00501+00201999999ADDMA1101601999990REMMET053METAR EDJA 090850Z 21008KT 170V240 CAVOK 05/02 Q1016=
0072109470999992014010909204+47989+010240FM-15+062999999V0202301N004119999999Y999999999+00801+00201999999ADDMA1101601999990REMMET045METAR EDJA 090920Z 23008KT CAVOK 08/02 Q1016=
0080109470999992014010909504+47989+010240FM-15+062999999V0202301V005119999999Y999999999+00901+00201999999ADDMA1101601999990REMMET053METAR EDJA 090950Z 23010KT 190V260 CAVOK 09/02 Q1016=
0080109470999992014010910204+47989+010240FM-15+062999999V0202301V003619999999Y999999999+00901+00201999999ADDMA1101601999990REMMET053METAR EDJA 091020Z 23007KT 200V270 CAVOK 09/02 Q1016=
0080109470999992014010910504+47989+010240FM-15+062999999V0202201V004119999999Y999999999+01001+00301999999ADDMA1101501999990REMMET053METAR EDJA 091050Z 22008KT 200V260 CAVOK 10/03 Q1015=
0080109470999992014010911204+47989+010240FM-15+062999999V0202201V004119999999Y999999999+01101+00201999999ADDMA1101501999990REMMET053METAR EDJA 091120Z 22008KT 180V250 CAVOK 11/02 Q1015=
0080109470999992014010911504+47989+010240FM-15+062999999V0202201V005119999999Y999999999+01101+00201999999ADDMA1101401999990REMMET053METAR EDJA 091150Z 22010KT 180V250 CAVOK 11/02 Q1014=
0080109470999992014010912204+47989+010240FM-15+062999999V0202101V004119999999Y999999999+01101+00201999999ADDMA1101401999990REMMET053METAR EDJA 091220Z 21008KT 170V250 CAVOK 11/02 Q1014=
0080109470999992014010912504+47989+010240FM-15+062999999V0202201V004619999999Y999999999+01201+00101999999ADDMA1101301999990REMMET053METAR EDJA 091250Z 22009KT 180V250 CAVOK 12/01 Q1013=
0080109470999992014010913204+47989+010240FM-15+062999999V0202301V006219999999Y999999999+01201+00001999999ADDMA1101301999990REMMET053METAR EDJA 091320Z 23012KT 190V250 CAVOK 12/00 Q1013=
0080109470999992014010914204+47989+010240FM-15+062999999V0202201V005119999999Y999999999+01001+00001999999ADDMA1101301999990REMMET053METAR EDJA 091420Z 22010KT 190V260 CAVOK 10/00 Q1013=
0072109470999992014010914504+47989+010240FM-15+062999999V0202201N005719999999Y999999999+01001+00001999999ADDMA1101201999990REMMET045METAR EDJA 091450Z 22011KT CAVOK 10/00 Q1012=
0073109470999992014010915204+47989+010240FM-15+062999999V0202401N006219999999Y999999999+01101-00101999999ADDMA1101201999990REMMET046METAR EDJA 091520Z 24012KT CAVOK 11/M01 Q1012=
0073109470999992014010915504+47989+010240FM-15+062999999V0202301N006219999999Y999999999+01101-00101999999ADDMA1101201999990REMMET046METAR EDJA 091550Z 23012KT CAVOK 11/M01 Q1012=
0073109470999992014010916204+47989+010240FM-15+062999999V0202401N006219999999Y999999999+01101-00101999999ADDMA1101201999990REMMET046METAR EDJA 091620Z 24012KT CAVOK 11/M01 Q1012=
0073109470999992014010916504+47989+010240FM-15+062999999V0202401N004619999999Y999999999+01001+00001999999ADDMA1101201999990REMMET046METAR EDJA 091650Z 24009KT CAVOK 10/M00 Q1012=
0073109470999992014010917204+47989+010240FM-15+062999999V0202301N004119999999Y999999999+01001+00001999999ADDMA1101201999990REMMET046METAR EDJA 091720Z 23008KT CAVOK 10/M00 Q1012=
0080109470999992014010917504+47989+010240FM-15+062999999V0202301V004619999999Y999999999+01001+00001999999ADDMA1101201999990REMMET053METAR EDJA 091750Z 23009KT 200V260 CAVOK 10/00 Q1012=
0081109470999992014010918204+47989+010240FM-15+062999999V0202201V005719999999Y999999999+01001+00001999999ADDMA1101201999990REMMET054METAR EDJA 091820Z 22011KT 190V250 CAVOK 10/M00 Q1012=
0073109470999992014010918504+47989+010240FM-15+062999999V0202501N007719999999Y999999999+01001+00001999999ADDMA1101201999990REMMET046METAR EDJA 091850Z 25015KT CAVOK 10/M00 Q1012=
0072109470999992014010919504+47989+010240FM-15+062999999V0202401N006719999999Y999999999+01001+00001999999ADDMA1101201999990REMMET045METAR EDJA 091950Z 24013KT CAVOK 10/00 Q1012=
0080109470999992014010920504+47989+010240FM-15+062999999V0202301V006219999999Y999999999+01001+00101999999ADDMA1101301999990REMMET053METAR EDJA 092050Z 23012KT 180V250 CAVOK 10/01 Q1013=
0152109470999992014011004504+47989+010240FM-15+062999999V0202301N003610051819N009999199+00101+00001999999ADDGA1071+005181991GE19MSL   +99999+99999GF199999071990005181991991MA1101801999990MW1611REMMET055METAR EDJA 100450Z 23007KT 9999 -RA BKN017 01/00 Q1018=
0183109470999992014011005204+47989+010240FM-15+062999999V0202301V004110054919N009999199+00101+00001999999ADDGA1021+001221991GA2071+005491991GE19MSL   +99999+99999GF199999021990001221991991MA1101901999990MW1611REMMET070METAR EDJA 100520Z 23008KT 190V260 9999 -RA FEW004 BKN018 01/00 Q1019=
0173109470999992014011005504+47989+010240FM-15+062999999V0202101V003110064019N009999199+00101+00001999999ADDGA1071+006401991GA2071+007921991GE19MSL   +99999+99999GF199999071990006401991991MA1101901999990REMMET066METAR EDJA 100550Z 21006KT 170V250 9999 BKN021 BKN026 01/00 Q1019=
0160109470999992014011006204+47989+010240FM-15+062999999V0202201V003610061019N009999199+00101+00001999999ADDGA1071+006101991GE19MSL   +99999+99999GF199999071990006101991991MA1101901999990MW1611REMMET063METAR EDJA 100620Z 22007KT 180V250 9999 -RA BKN020 01/00 Q1019=
0173109470999992014011006504+47989+010240FM-15+062999999V0202201V003110076219N009999199+00101+00001999999ADDGA1021+000911991GA2071+007621991GE19MSL   +99999+99999GF199999021990000911991991MA1101901999990REMMET066METAR EDJA 100650Z 22006KT 180V250 9999 FEW003 BKN025 01/00 Q1019=
0173109470999992014011007204+47989+010240FM-15+062999999V0202101V003110085319N009999199+00101+00001999999ADDGA1021+000911991GA2071+008531991GE19MSL   +99999+99999GF199999021990000911991991MA1101901999990REMMET066METAR EDJA 100720Z 21006KT 170V240 9999 FEW003 BKN028 01/00 Q1019=
0150109470999992014011007504+47989+010240FM-15+062999999V0202001V003119999999N009999199+00101+00001999999ADDGA1021+000911991GE19MSL   +99999+99999GF199999021990000911991991MA1102001999990REMMET059METAR EDJA 100750Z 20006KT 160V240 9999 FEW003 01/00 Q1020=
0080109470999992014011008204+47989+010240FM-15+062999999V0202101V002619999999Y999999999+00201+00101999999ADDMA1102001999990REMMET053METAR EDJA 100820Z 21005KT 160V240 CAVOK 02/01 Q1020=
0080109470999992014011008504+47989+010240FM-15+062999999V0202101V003119999999Y999999999+00201+00101999999ADDMA1102001999990REMMET053METAR EDJA 100850Z 21006KT 180V240 CAVOK 02/01 Q1020=
0080109470999992014011009204+47989+010240FM-15+062999999V0202201V002619999999Y999999999+00301+00101999999ADDMA1102001999990REMMET053METAR EDJA 100920Z 22005KT 180V250 CAVOK 03/01 Q1020=
0080109470999992014011009504+47989+010240FM-15+062999999V0202301V003619999999Y999999999+00301+00101999999ADDMA1102001999990REMMET053METAR EDJA 100950Z 23007KT 200V260 CAVOK 03/01 Q1020=
0080109470999992014011010204+47989+010240FM-15+062999999V0202201V003119999999Y999999999+00401+00201999999ADDMA1102001999990REMMET053METAR EDJA 101020Z 22006KT 190V250 CAVOK 04/02 Q1020=
0150109470999992014011010504+47989+010240FM-15+062999999V0202301V003619999999N009999199+00401+00201999999ADDGA1041+003051991GE19MSL   +99999+99999GF199999041990003051991991MA1102001999990REMMET059METAR EDJA 101050Z 23007KT 200V270 9999 SCT010 04/02 Q1020=
0150109470999992014011011204+47989+010240FM-15+062999999V0202301V003119999999N009999199+00501+00201999999ADDGA1041+005491991GE19MSL   +99999+99999GF199999041990005491991991MA1102001999990REMMET059METAR EDJA 101120Z 23006KT 160V260 9999 SCT018 05/02 Q1020=
0142109470999992014011011504+47989+010240FM-15+062999999V0202401N005119999999N009999199+00501+00201999999ADDGA1041+005491991GE19MSL   +99999+99999GF199999041990005491991991MA1101901999990REMMET051METAR EDJA 101150Z 24010KT 9999 SCT018 05/02 Q1019=
0142109470999992014011012204+47989+010240FM-15+062999999V0202501N004610054919N009999199+00501+00201999999ADDGA1071+005491991GE19MSL   +99999+99999GF199999071990005491991991MA1101901999990REMMET051METAR EDJA 101220Z 25009KT 9999 BKN018 05/02 Q1019=
0142109470999992014011012504+47989+010240FM-15+062999999V0202601N004110051819N009999199+00501+00201999999ADDGA1071+005181991GE19MSL   +99999+99999GF199999071990005181991991MA1101901999990REMMET051METAR EDJA 101250Z 26008KT 9999 BKN017 05/02 Q1019=
0142109470999992014011013204+47989+010240FM-15+062999999V0202401N003610054919N009999199+00501+00201999999ADDGA1071+005491991GE19MSL   +99999+99999GF199999071990005491991991MA1101901999990REMMET051METAR EDJA 101320Z 24007KT 9999 BKN018 05/02 Q1019=
0142109470999992014011013504+47989+010240FM-15+062999999V0202501N003619999999N009999199+00501+00101999999ADDGA1041+006711991GE19MSL   +99999+99999GF199999041990006711991991MA1101901999990REMMET051METAR EDJA 101350Z 25007KT 9999 SCT022 05/01 Q1019=
0142109470999992014011014504+47989+010240FM-15+062999999V0202501N003119999999N009999199+00401+00101999999ADDGA1041+006101991GE19MSL   +99999+99999GF199999041990006101991991MA1101901999990REMMET051METAR EDJA 101450Z 25006KT 9999 SCT020 04/01 Q1019=
0165109470999992014011015204+47989+010240FM-15+062999999V0209999V00151024381CN009999199+00401+00101999999ADDGA1041+006101991GA2041+024381991GE19MSL   +99999+99999GF199999041990006101991991MA1101901999990REMMET058METAR EDJA 101520Z VRB03KT 9999 SCT020 SCT080 04/01 Q1019=
0142109470999992014011015504+47989+010240FM-15+062999999V0202001N001519999999N009999199+00301+00101999999ADDGA1021+006101991GE19MSL   +99999+99999GF199999021990006101991991MA1101901999990REMMET051METAR EDJA 101550Z 20003KT 9999 FEW020 03/01 Q1019=
0142109470999992014011016204+47989+010240FM-15+062999999V0201801N001019999999N009999199+00201+00101999999ADDGA1041+018291991GE19MSL   +99999+99999GF199999041990018291991991MA1101901999990REMMET051METAR EDJA 101620Z 18002KT 9999 SCT060 02/01 Q1019=
0072109470999992014011016504+47989+010240FM-15+062999999V0201901N001519999999Y999999999+00201+00101999999ADDMA1101901999990REMMET045METAR EDJA 101650Z 19003KT CAVOK 02/01 Q1019=
0072109470999992014011017204+47989+010240FM-15+062999999V0201901N001519999999Y999999999+00101+00101999999ADDMA1101901999990REMMET045METAR EDJA 101720Z 19003KT CAVOK 01/01 Q1019=
0072109470999992014011017504+47989+010240FM-15+062999999V0202001N001519999999Y999999999+00101+00001999999ADDMA1101901999990REMMET045METAR EDJA 101750Z 20003KT CAVOK 01/00 Q1019=
0073109470999992014011018204+47989+010240FM-15+062999999V0201601N001519999999Y999999999+00001+00001999999ADDMA1101901999990REMMET046METAR EDJA 101820Z 16003KT CAVOK 00/M00 Q1019=
0073109470999992014011018504+47989+010240FM-15+062999999V0209999V001519999999Y999999999+00001+00001999999ADDMA1101901999990REMMET046METAR EDJA 101850Z VRB03KT CAVOK 00/M00 Q1019=
0072109470999992014011019204+47989+010240FM-15+062999999V0209999V001019999999Y999999999+00101+00001999999ADDMA1101901999990REMMET045METAR EDJA 101920Z VRB02KT CAVOK 01/00 Q1019=
0072109470999992014011019504+47989+010240FM-15+062999999V0209999V001019999999Y999999999+00101+00101999999ADDMA1101901999990REMMET045METAR EDJA 101950Z VRB02KT CAVOK 01/01 Q1019=
0072109470999992014011020204+47989+010240FM-15+062999999V0201701N001019999999Y999999999+00101+00101999999ADDMA1101901999990REMMET045METAR EDJA 102020Z 17002KT CAVOK 01/01 Q1019=
0072109470999992014011020504+47989+010240FM-15+062999999V0209999V001019999999Y999999999+00001+00001999999ADDMA1101901999990REMMET045METAR EDJA 102050Z VRB02KT CAVOK 00/00 Q1019=
0072109470999992014011021504+47989+010240FM-15+062999999V0209999V000519999999Y999999999+00101+00001999999ADDMA1101801999990REMMET045METAR EDJA 102150Z VRB01KT CAVOK 01/00 Q1018=
0107109470999992014011104504+47989+010240FM-15+062999999V0202101N001012200019N007000199-00101-00101999999ADDGF100991999999999999999999MA1101701999990REMMET054METAR COR EDJA 110450Z 21002KT 7000 NSC M01/M01 Q1017=
0103109470999992014011105204+47989+010240FM-15+062999999V0209999V001512200019N006000199-00101-00101999999ADDGF100991999999999999999999MA1101601999990REMMET050METAR EDJA 110520Z VRB03KT 6000 NSC M01/M01 Q1016=
0103109470999992014011105504+47989+010240FM-15+062999999V0209999V000512200019N007000199-00101-00101999999ADDGF100991999999999999999999MA1101601999990REMMET050METAR EDJA 110550Z VRB01KT 7000 NSC M01/M01 Q1016=
0103109470999992014011106204+47989+010240FM-15+062999999V0209999V001012200019N006000199-00101-00101999999ADDGF100991999999999999999999MA1101601999990REMMET050METAR EDJA 110620Z VRB02KT 6000 NSC M01/M01 Q1016=
0103109470999992014011106504+47989+010240FM-15+062999999V0201701N001512200019N007000199-00101-00101999999ADDGF100991999999999999999999MA1101601999990REMMET050METAR EDJA 110650Z 17003KT 7000 NSC M01/M01 Q1016=
0103109470999992014011107204+47989+010240FM-15+062999999V0209999V001012200019N009000199-00101-00101999999ADDGF100991999999999999999999MA1101601999990REMMET050METAR EDJA 110720Z VRB02KT 9000 NSC M01/M01 Q1016=
0103109470999992014011107504+47989+010240FM-15+062999999V0209999V001012200019N009000199-00101-00101999999ADDGF100991999999999999999999MA1101601999990REMMET050METAR EDJA 110750Z VRB02KT 9000 NSC M01/M01 Q1016=
0074109470999992014011108204+47989+010240FM-15+062999999V0209999C000019999999Y999999999-00101-00101999999ADDMA1101601999990REMMET047METAR EDJA 110820Z 00000KT CAVOK M01/M01 Q1016=
0102109470999992014011108504+47989+010240FM-15+062999999V0201701N002112200019N009000199+00001+00001999999ADDGF100991999999999999999999MA1101601999990REMMET049METAR EDJA 110850Z 17004KT 9000 NSC 00/M00 Q1016=
0101109470999992014011109204+47989+010240FM-15+062999999V0209999V001012200019N009000199+00101+00101999999ADDGF100991999999999999999999MA1101601999990REMMET048METAR EDJA 110920Z VRB02KT 9000 NSC 01/01 Q1016=
0072109470999992014011109504+47989+010240FM-15+062999999V0209999V001019999999Y999999999+00301+00301999999ADDMA1101701999990REMMET045METAR EDJA 110950Z VRB02KT CAVOK 03/03 Q1017=
0072109470999992014011110204+47989+010240FM-15+062999999V0202501N002119999999Y999999999+00401+00301999999ADDMA1101701999990REMMET045METAR EDJA 111020Z 25004KT CAVOK 04/03 Q1017=
0072109470999992014011110504+47989+010240FM-15+062999999V0209999V001019999999Y999999999+00601+00401999999ADDMA1101701999990REMMET045METAR EDJA 111050Z VRB02KT CAVOK 06/04 Q1017=
0072109470999992014011111204+47989+010240FM-15+062999999V0202401N002119999999Y999999999+00601+00401999999ADDMA1101701999990REMMET045METAR EDJA 111120Z 24004KT CAVOK 06/04 Q1017=
0072109470999992014011111504+47989+010240FM-15+062999999V0202901N002119999999Y999999999+00601+00401999999ADDMA1101701999990REMMET045METAR EDJA 111150Z 29004KT CAVOK 06/04 Q1017=
0072109470999992014011112204+47989+010240FM-15+062999999V0202601N002619999999Y999999999+00801+00401999999ADDMA1101701999990REMMET045METAR EDJA 111220Z 26005KT CAVOK 08/04 Q1017=
0150109470999992014011112504+47989+010240FM-15+062999999V0201901V002119999999N009999199+00701+00401999999ADDGA1021+009141991GE19MSL   +99999+99999GF199999021990009141991991MA1101801999990REMMET059METAR EDJA 111250Z 19004KT 150V240 9999 FEW030 07/04 Q1018=
0183109470999992014011113204+47989+010240FM-15+062999999V0201801V00311012191CN009999199+00601+00401999999ADDGA1021+005491991GA2041+012191991GE19MSL   +99999+99999GF199999021990005491991991MA1101701999990MW1611REMMET070METAR EDJA 111320Z 18006KT 150V210 9999 -RA FEW018 SCT040 06/04 Q1017=
0183109470999992014011113504+47989+010240FM-15+062999999V0202001V003610128019N009000199+00601+00401999999ADDGA1021+004571991GA2071+012801991GE19MSL   +99999+99999GF199999021990004571991991MA1101801999990MW1611REMMET070METAR EDJA 111350Z 20007KT 160V230 9000 -RA FEW015 BKN042 06/04 Q1018=
0183109470999992014011114204+47989+010240FM-15+062999999V0202101V003110115819N008000199+00501+00301999999ADDGA1021+004571991GA2071+011581991GE19MSL   +99999+99999GF199999021990004571991991MA1101801999990MW1611REMMET070METAR EDJA 111420Z 21006KT 160V260 8000 -RA FEW015 BKN038 05/03 Q1018=
0183109470999992014011114504+47989+010240FM-15+062999999V0202101V004610152419N009000199+00501+00301999999ADDGA1041+009141991GA2071+015241991GE19MSL   +99999+99999GF199999041990009141991991MA1101801999990MW1611REMMET070METAR EDJA 111450Z 21009KT 160V240 9000 -RA SCT030 BKN050 05/03 Q1018=
0183109470999992014011115204+47989+010240FM-15+062999999V0202301V005110121919N008000199+00601+00401999999ADDGA1021+005491991GA2071+012191991GE19MSL   +99999+99999GF199999021990005491991991MA1101801999990MW1611REMMET070METAR EDJA 111520Z 23010KT 190V250 8000 -RA FEW018 BKN040 06/04 Q1018=
0183109470999992014011115504+47989+010240FM-15+062999999V0202301V005110115819N008000199+00501+00401999999ADDGA1041+006101991GA2071+011581991GE19MSL   +99999+99999GF199999041990006101991991MA1101901999990MW1611REMMET070METAR EDJA 111550Z 23010KT 200V260 8000 -RA SCT020 BKN038 05/04 Q1019=
0182109470999992014011116204+47989+010240FM-15+062999999V0202401V005110106719N007000199+00501+00401999999ADDGA1041+003351991GA2071+010671991GE19MSL   +99999+99999GF199999041990003351991991MA1101901999990MW1631REMMET069METAR EDJA 111620Z 24010KT 200V270 7000 RA SCT011 BKN035 05/04 Q1019=
0182109470999992014011116504+47989+010240FM-15+062999999V0202201V004110121919N007000199+00501+00401999999ADDGA1021+003051991GA2081+012191991GE19MSL   +99999+99999GF199999021990003051991991MA1101901999990MW1631REMMET069METAR EDJA 111650Z 22008KT 170V260 7000 RA FEW010 OVC040 05/04 Q1019=
0193109470999992014011117204+47989+010240FM-15+062999999V0202201V004110134119N006000199+00501+00401999999ADDGA1041+002441991GA2071+013411991GE19MSL   +99999+99999GF199999041990002441991991MA1101901999990MW1611REMMET080METAR EDJA 111720Z 22008KT 200V260 6000 -RA SCT008 BKN044 05/04 Q1019      RERA=
0173109470999992014011117504+47989+010240FM-15+062999999V0202201V00411015241CN007000199+00501+00401999999ADDGA1021+002441991GA2041+015241991GE19MSL   +99999+99999GF199999021990002441991991MA1101901999990REMMET066METAR EDJA 111750Z 22008KT 190V260 7000 FEW008 SCT050 05/04 Q1019=
0150109470999992014011118204+47989+010240FM-15+062999999V0202301V005110021319N006000199+00501+00401999999ADDGA1071+002131991GE19MSL   +99999+99999GF199999071990002131991991MA1102001999990REMMET059METAR EDJA 111820Z 23010KT 200V270 6000 BKN007 05/04 Q1020=
0142109470999992014011118504+47989+010240FM-15+062999999V0202401N005110027419N006000199+00501+00401999999ADDGA1071+002741991GE19MSL   +99999+99999GF199999071990002741991991MA1102001999990REMMET051METAR EDJA 111850Z 24010KT 6000 BKN009 05/04 Q1020=
0142109470999992014011119204+47989+010240FM-15+062999999V0202401N005710024419N006000199+00501+00401999999ADDGA1071+002441991GE19MSL   +99999+99999GF199999071990002441991991MA1102101999990REMMET051METAR EDJA 111920Z 24011KT 6000 BKN008 05/04 Q1021=
0165109470999992014011119504+47989+010240FM-15+062999999V0202501N005110030519N007000199+00501+00401999999ADDGA1071+003051991GA2071+009451991GE19MSL   +99999+99999GF199999071990003051991991MA1102101999990REMMET058METAR EDJA 111950Z 25010KT 7000 BKN010 BKN031 05/04 Q1021=
0165109470999992014011120204+47989+010240FM-15+062999999V0202401N005110176819N007000199+00501+00401999999ADDGA1041+003051991GA2071+017681991GE19MSL   +99999+99999GF199999041990003051991991MA1102101999990REMMET058METAR EDJA 112020Z 24010KT 7000 SCT010 BKN058 05/04 Q1021=
0165109470999992014011120504+47989+010240FM-15+062999999V0202501N00411016761CN007000199+00501+00401999999ADDGA1021+003051991GA2041+016761991GE19MSL   +99999+99999GF199999021990003051991991MA1102201999990REMMET058METAR EDJA 112050Z 25008KT 7000 FEW010 SCT055 05/04 Q1022=
0161109470999992014011204504+47989+010240FM-15+062999999V0209999C000010091419N002000199+00301+00201999999ADDGA1071+009141991GE19MSL   +99999+99999GF199999071990009141991991MA1102401999990MW1101MW2611REMMET058METAR EDJA 120450Z 00000KT 2000 -RA BR BKN030 03/02 Q1024=
0161109470999992014011205204+47989+010240FM-15+062999999V0200401N001510085319N000250199+00201+00201999999ADDGA1081+008531991GE19MSL   +99999+99999GF199999081990008531991991MA1102401999990MW1441MW2611REMMET058METAR EDJA 120520Z 04003KT 0250 FG -RA OVC028 02/02 Q1024=
0128109470999992014011205504+47989+010240FM-15+062999999V0200501N002119999999N000600199+00201+00201999999ADDGF109991999999999999999999MA1102401999990MW1441REMMET069METAR EDJA 120550Z 05004KT 0600 R24/0800VP2000U FG VV/// 02/02 Q1024=
0162109470999992014011206204+47989+010240FM-15+062999999V0200601N001510085319N000800199+00201+00201999999ADDGA1081+008531991GE19MSL   +99999+99999GF199999081990008531991991MA1102401999990MW1441REMMET065METAR EDJA 120620Z 06003KT 0800 R24/P2000N FG OVC028 02/02 Q1024=
0151109470999992014011207204+47989+010240FM-15+062999999V0200801N002110085319N003500199+00201+00201999999ADDGA1071+008531991GE19MSL   +99999+99999GF199999071990008531991991MA1102401999990MW1101REMMET054METAR EDJA 120720Z 08004KT 3500 BR BKN028 02/02 Q1024=
0151109470999992014011207504+47989+010240FM-15+062999999V0200601N002110085319N004000199+00301+00201999999ADDGA1071+008531991GE19MSL   +99999+99999GF199999071990008531991991MA1102401999990MW1101REMMET054METAR EDJA 120750Z 06004KT 4000 BR BKN028 03/02 Q1024=
0151109470999992014011208204+47989+010240FM-15+062999999V0200601N002610085319N004000199+00301+00201999999ADDGA1071+008531991GE19MSL   +99999+99999GF199999071990008531991991MA1102401999990MW1101REMMET054METAR EDJA 120820Z 06005KT 4000 BR BKN028 03/02 Q1024=
0142109470999992014011208504+47989+010240FM-15+062999999V0200601N002110085319N006000199+00301+00301999999ADDGA1071+008531991GE19MSL   +99999+99999GF199999071990008531991991MA1102401999990REMMET051METAR EDJA 120850Z 06004KT 6000 BKN028 03/03 Q1024=
0142109470999992014011209204+47989+010240FM-15+062999999V0200501N002610067119N006000199+00301+00301999999ADDGA1071+006711991GE19MSL   +99999+99999GF199999071990006711991991MA1102401999990REMMET051METAR EDJA 120920Z 05005KT 6000 BKN022 03/03 Q1024=
0142109470999992014011209504+47989+010240FM-15+062999999V0200601N003110067119N007000199+00401+00301999999ADDGA1071+006711991GE19MSL   +99999+99999GF199999071990006711991991MA1102401999990REMMET051METAR EDJA 120950Z 06006KT 7000 BKN022 04/03 Q1024=
0165109470999992014011210204+47989+010240FM-15+062999999V0200801N003110067119N008000199+00401+00301999999ADDGA1041+002131991GA2071+006711991GE19MSL   +99999+99999GF199999041990002131991991MA1102401999990REMMET058METAR EDJA 121020Z 08006KT 8000 SCT007 BKN022 04/03 Q1024=
0165109470999992014011210504+47989+010240FM-15+062999999V0200501N003110067119N008000199+00501+00301999999ADDGA1041+003051991GA2071+006711991GE19MSL   +99999+99999GF199999041990003051991991MA1102301999990REMMET058METAR EDJA 121050Z 05006KT 8000 SCT010 BKN022 05/03 Q1023=
0142109470999992014011211204+47989+010240FM-15+062999999V0200801N003119999999N009999199+00501+00301999999ADDGA1041+003661991GE19MSL   +99999+99999GF199999041990003661991991MA1102301999990REMMET051METAR EDJA 121120Z 08006KT 9999 SCT012 05/03 Q1023=
0142109470999992014011211504+47989+010240FM-15+062999999V0200501N003619999999N009999199+00501+00301999999ADDGA1041+003351991GE19MSL   +99999+99999GF199999041990003351991991MA1102301999990REMMET051METAR EDJA 121150Z 05007KT 9999 SCT011 05/03 Q1023=
0142109470999992014011212204+47989+010240FM-15+062999999V0200601N003619999999N009999199+00501+00301999999ADDGA1041+004881991GE19MSL   +99999+99999GF199999041990004881991991MA1102201999990REMMET051METAR EDJA 121220Z 06007KT 9999 SCT016 05/03 Q1022=
0142109470999992014011212504+47989+010240FM-15+062999999V0200601N003619999999N009999199+00501+00301999999ADDGA1041+004271991GE19MSL   +99999+99999GF199999041990004271991991MA1102201999990REMMET051METAR EDJA 121250Z 06007KT 9999 SCT014 05/03 Q1022=
0142109470999992014011213204+47989+010240FM-15+062999999V0200701N003119999999N009999199+00501+00301999999ADDGA1041+003961991GE19MSL   +99999+99999GF199999041990003961991991MA1102101999990REMMET051METAR EDJA 121320Z 07006KT 9999 SCT013 05/03 Q1021=
0142109470999992014011213504+47989+010240FM-15+062999999V0200601N003119999999N009999199+00501+00301999999ADDGA1041+004271991GE19MSL   +99999+99999GF199999041990004271991991MA1102101999990REMMET051METAR EDJA 121350Z 06006KT 9999 SCT014 05/03 Q1021=
0142109470999992014011214204+47989+010240FM-15+062999999V0200701N003619999999N009999199+00501+00301999999ADDGA1041+003961991GE19MSL   +99999+99999GF199999041990003961991991MA1102101999990REMMET051METAR EDJA 121420Z 07007KT 9999 SCT013 05/03 Q1021=
0142109470999992014011214504+47989+010240FM-15+062999999V0200701N003619999999N009999199+00501+00201999999ADDGA1021+003961991GE19MSL   +99999+99999GF199999021990003961991991MA1102101999990REMMET051METAR EDJA 121450Z 07007KT 9999 FEW013 05/02 Q1021=
0142109470999992014011215204+47989+010240FM-15+062999999V0200601N003619999999N009999199+00401+00201999999ADDGA1021+003961991GE19MSL   +99999+99999GF199999021990003961991991MA1102001999990REMMET051METAR EDJA 121520Z 06007KT 9999 FEW013 04/02 Q1020=
0072109470999992014011215504+47989+010240FM-15+062999999V0200601N003619999999Y999999999+00301+00201999999ADDMA1102001999990REMMET045METAR EDJA 121550Z 06007KT CAVOK 03/02 Q1020=
0142109470999992014011216204+47989+010240FM-15+062999999V0200601N003119999999N009000199+00201+00101999999ADDGA1021+006101991GE19MSL   +99999+99999GF199999021990006101991991MA1102001999990REMMET051METAR EDJA 121620Z 06006KT 9000 FEW020 02/01 Q1020=
0142109470999992014011216504+47989+010240FM-15+062999999V0200601N002119999999N008000199+00201+00101999999ADDGA1021+007621991GE19MSL   +99999+99999GF199999021990007621991991MA1102001999990REMMET051METAR EDJA 121650Z 06004KT 8000 FEW025 02/01 Q1020=
0142109470999992014011217204+47989+010240FM-15+062999999V0200701N002619999999N006000199+00101+00101999999ADDGA1021+009141991GE19MSL   +99999+99999GF199999021990009141991991MA1102001999990REMMET051METAR EDJA 121720Z 07005KT 6000 FEW030 01/01 Q1020=
0142109470999992014011217504+47989+010240FM-15+062999999V0200601N002619999999N006000199+00101+00001999999ADDGA1021+009141991GE19MSL   +99999+99999GF199999021990009141991991MA1101901999990REMMET051METAR EDJA 121750Z 06005KT 6000 FEW030 01/00 Q1019=
0073109470999992014011218204+47989+010240FM-15+062999999V0200601N002119999999Y999999999+00001+00001999999ADDMA1101901999990REMMET046METAR EDJA 121820Z 06004KT CAVOK 00/M00 Q1019=
0073109470999992014011218504+47989+010240FM-15+062999999V0200701N001519999999Y999999999+00001+00001999999ADDMA1101901999990REMMET046METAR EDJA 121850Z 07003KT CAVOK 00/M00 Q1019=
0130109470999992014011219204+47989+010240FM-15+062999999V0200601N001512200019N000350199-00101-00101999999ADDGF100991999999999999999999MA1101901999990MW1481REMMET071METAR EDJA 121920Z 06003KT 0350 R24/M0350V0500U FZFG SKC M01/M01 Q1019=
0129109470999992014011219504+47989+010240FM-15+062999999V0200601N001512200019N000350199-00101-00201999999ADDGF100991999999999999999999MA1101901999990MW1481REMMET070METAR EDJA 121950Z 06003KT 0350 R24/0400V0500N FZFG NSC M01/M02 Q1019=
0131109470999992014011220504+47989+010240FM-15+062999999V0209999V001019999999N000500199-00201-00201999999ADDGF109991999999999999999999MA1101901999990MW1481REMMET072METAR EDJA 122050Z VRB02KT 0500 R24/0750V1000D FZFG VV/// M02/M02 Q1019=
0139109470999992014011221204+47989+010240FM-15+062999999V0202101V002119999999N000500199-00101-00101999999ADDGF109991999999999999999999MA1101901999990MW1481REMMET080METAR EDJA 122120Z 21004KT 170V250 0500 R24/0600N FZFG VV/// M01/M01      Q1019=
0165109470999992014011304504+47989+010240FM-15+062999999V0202101V002610015219N004800199-00101-00101999999ADDGA1071+001521991GE19MSL   +99999+99999GF199999071990001521991991MA1101601999990MW1101REMMET068METAR COR EDJA 130450Z 21005KT 170V250 4800 BR BKN005 M01/M01 Q1016=
0144109470999992014011305504+47989+010240FM-15+062999999V0202201N003619999999N006000199-00101-00101999999ADDGA1021+001521991GE19MSL   +99999+99999GF199999021990001521991991MA1101601999990REMMET053METAR EDJA 130550Z 22007KT 6000 FEW005 M01/M01 Q1016=
0103109470999992014011306204+47989+010240FM-15+062999999V0202201N003612200019N006000199-00101-00101999999ADDGF100991999999999999999999MA1101601999990REMMET050METAR EDJA 130620Z 22007KT 6000 NSC M01/M01 Q1016=
0111109470999992014011306504+47989+010240FM-15+062999999V0202101V002612200019N008000199-00101-00101999999ADDGF100991999999999999999999MA1101601999990REMMET058METAR EDJA 130650Z 21005KT 180V240 8000 NSC M01/M01 Q1016=
0082109470999992014011307204+47989+010240FM-15+062999999V0202201V002619999999Y999999999+00001-00101999999ADDMA1101601999990REMMET055METAR EDJA 130720Z 22005KT 180V250 CAVOK M00/M01 Q1016=
0082109470999992014011307504+47989+010240FM-15+062999999V0202001V002619999999Y999999999+00001-00101999999ADDMA1101601999990REMMET055METAR EDJA 130750Z 20005KT 170V240 CAVOK M00/M01 Q1016=
0082109470999992014011308204+47989+010240FM-15+062999999V0202301V003119999999Y999999999+00001-00101999999ADDMA1101601999990REMMET055METAR EDJA 130820Z 23006KT 200V260 CAVOK M00/M01 Q1016=
0073109470999992014011308504+47989+010240FM-15+062999999V0202401N002619999999Y999999999+00101+00001999999ADDMA1101601999990REMMET046METAR EDJA 130850Z 24005KT CAVOK 01/M00 Q1016=
0080109470999992014011309204+47989+010240FM-15+062999999V0202001V002119999999Y999999999+00101+00001999999ADDMA1101501999990REMMET053METAR EDJA 130920Z 20004KT 170V250 CAVOK 01/00 Q1015=
0072109470999992014011310204+47989+010240FM-15+062999999V0202301N003619999999Y999999999+00301+00101999999ADDMA1101501999990REMMET045METAR EDJA 131020Z 23007KT CAVOK 03/01 Q1015=
0072109470999992014011310504+47989+010240FM-15+062999999V0202201N002619999999Y999999999+00301+00101999999ADDMA1101501999990REMMET045METAR EDJA 131050Z 22005KT CAVOK 03/01 Q1015=
0081109470999992014011311204+47989+010240FM-15+062999999V0202001V002119999999Y999999999+00301+00001999999ADDMA1101501999990REMMET054METAR EDJA 131120Z 20004KT 160V240 CAVOK 03/M00 Q1015=
0101109470999992014011311504+47989+010240FM-15+062999999V0203101N002612200019N007000199+00401+00301999999ADDGF100991999999999999999999MA1101401999990REMMET048METAR EDJA 131150Z 31005KT 7000 NSC 04/03 Q1014=
0072109470999992014011312204+47989+010240FM-15+062999999V0209999V000519999999Y999999999+00501+00301999999ADDMA1101401999990REMMET045METAR EDJA 131220Z VRB01KT CAVOK 05/03 Q1014=
0072109470999992014011312504+47989+010240FM-15+062999999V0209999V001519999999Y999999999+00501+00201999999ADDMA1101401999990REMMET045METAR EDJA 131250Z VRB03KT CAVOK 05/02 Q1014=
0072109470999992014011313504+47989+010240FM-15+062999999V0201701N002619999999Y999999999+00501+00201999999ADDMA1101301999990REMMET045METAR EDJA 131350Z 17005KT CAVOK 05/02 Q1013=
0072109470999992014011314504+47989+010240FM-15+062999999V0209999V001519999999Y999999999+00501+00201999999ADDMA1101201999990REMMET045METAR EDJA 131450Z VRB03KT CAVOK 05/02 Q1012=
0072109470999992014011315204+47989+010240FM-15+062999999V0209999V001519999999Y999999999+00401+00201999999ADDMA1101201999990REMMET045METAR EDJA 131520Z VRB03KT CAVOK 04/02 Q1012=
0072109470999992014011315504+47989+010240FM-15+062999999V0209999V001519999999Y999999999+00301+00201999999ADDMA1101201999990REMMET045METAR EDJA 131550Z VRB03KT CAVOK 03/02 Q1012=
0072109470999992014011316204+47989+010240FM-15+062999999V0209999V001519999999Y999999999+00301+00201999999ADDMA1101201999990REMMET045METAR EDJA 131620Z VRB03KT CAVOK 03/02 Q1012=
0072109470999992014011316504+47989+010240FM-15+062999999V0202101N002119999999Y999999999+00201+00101999999ADDMA1101201999990REMMET045METAR EDJA 131650Z 21004KT CAVOK 02/01 Q1012=
0142109470999992014011317204+47989+010240FM-15+062999999V0202201N001519999999N009999199+00301+00101999999ADDGA1021+015241991GE19MSL   +99999+99999GF199999021990015241991991MA1101201999990REMMET051METAR EDJA 131720Z 22003KT 9999 FEW050 03/01 Q1012=
0150109470999992014011317504+47989+010240FM-15+062999999V0202201V002110140219N009999199+00301+00201999999ADDGA1071+014021991GE19MSL   +99999+99999GF199999071990014021991991MA1101201999990REMMET059METAR EDJA 131750Z 22004KT 190V250 9999 BKN046 03/02 Q1012=
0142109470999992014011318204+47989+010240FM-15+062999999V0209999V001510100619N009999199+00401+00201999999ADDGA1071+010061991GE19MSL   +99999+99999GF199999071990010061991991MA1101201999990REMMET051METAR EDJA 131820Z VRB03KT 9999 BKN033 04/02 Q1012=
0142109470999992014011319204+47989+010240FM-15+062999999V0209999V001510091419N009999199+00401+00201999999ADDGA1071+009141991GE19MSL   +99999+99999GF199999071990009141991991MA1101201999990REMMET051METAR EDJA 131920Z VRB03KT 9999 BKN030 04/02 Q1012=
0142109470999992014011319504+47989+010240FM-15+062999999V0209999V001510054919N009999199+00401+00201999999ADDGA1071+005491991GE19MSL   +99999+99999GF199999071990005491991991MA1101201999990REMMET051METAR EDJA 131950Z VRB03KT 9999 BKN018 04/02 Q1012=
0142109470999992014011320204+47989+010240FM-15+062999999V0202301N002610048819N009999199+00401+00201999999ADDGA1071+004881991GE19MSL   +99999+99999GF199999071990004881991991MA1101101999990REMMET051METAR EDJA 132020Z 23005KT 9999 BKN016 04/02 Q1011=
0173109470999992014011320504+47989+010240FM-15+062999999V0202201V003110094519N009999199+00401+00201999999ADDGA1041+003051991GA2071+009451991GE19MSL   +99999+99999GF199999041990003051991991MA1101101999990REMMET066METAR EDJA 132050Z 22006KT 180V240 9999 SCT010 BKN031 04/02 Q1011=
0161109470999992014011404204+47989+010240FM-15+062999999V0209999C000010030519N002300199+00201+00201999999ADDGA1071+003051991GE19MSL   +99999+99999GF199999071990003051991991MA1100601999990MW1101MW2611REMMET058METAR EDJA 140420Z 00000KT 2300 -RA BR BKN010 02/02 Q1006=
0161109470999992014011404504+47989+010240FM-15+062999999V0202501N001010030519N001500199+00201+00201999999ADDGA1071+003051991GE19MSL   +99999+99999GF199999071990003051991991MA1100601999990MW1101MW2611REMMET058METAR EDJA 140450Z 25002KT 1500 -RA BR BKN010 02/02 Q1006=
0161109470999992014011405204+47989+010240FM-15+062999999V0202601N000510030519N001400199+00201+00201999999ADDGA1071+003051991GE19MSL   +99999+99999GF199999071990003051991991MA1100501999990MW1101MW2611REMMET058METAR EDJA 140520Z 26001KT 1400 -RA BR BKN010 02/02 Q1005=
0160109470999992014011405504+47989+010240FM-15+062999999V0209999C000010015219N000500199+00201+00201999999ADDGA1071+001521991GE19MSL   +99999+99999GF199999071990001521991991MA1100501999990MW1441MW2631REMMET057METAR EDJA 140550Z 00000KT 0500 RA FG BKN005 02/02 Q1005=
0164109470999992014011406204+47989+010240FM-15+062999999V0200701N000510003019N000600199+00201+00201999999ADDGA1071+000301991GE19MSL   +99999+99999GF199999071990000301991991MA1100501999990MW1441MW2631REMMET061METAR COR EDJA 140620Z 07001KT 0600 RA FG BKN001 02/02 Q1005=
0160109470999992014011406504+47989+010240FM-15+062999999V0200401N001010012219N001100199+00301+00201999999ADDGA1071+001221991GE19MSL   +99999+99999GF199999071990001221991991MA1100501999990MW1101MW2631REMMET057METAR EDJA 140650Z 04002KT 1100 RA BR BKN004 03/02 Q1005=
0183109470999992014011407204+47989+010240FM-15+062999999V0200201N001010012219N001100199+00201+00201999999ADDGA1071+001221991GA2071+003051991GE19MSL   +99999+99999GF199999071990001221991991MA1100501999990MW1101MW2631REMMET064METAR EDJA 140720Z 02002KT 1100 RA BR BKN004 BKN010 02/02 Q1005=
0161109470999992014011407504+47989+010240FM-15+062999999V0200401N001510024419N001300199+00201+00201999999ADDGA1071+002441991GE19MSL   +99999+99999GF199999071990002441991991MA1100501999990MW1101MW2611REMMET058METAR EDJA 140750Z 04003KT 1300 -RA BR BKN008 02/02 Q1005=
0161109470999992014011408204+47989+010240FM-15+062999999V0200601N001010024419N004000199+00201+00201999999ADDGA1071+002441991GE19MSL   +99999+99999GF199999071990002441991991MA1100501999990MW1101MW2611REMMET058METAR EDJA 140820Z 06002KT 4000 -RA BR BKN008 02/02 Q1005=
0175109470999992014011408504+47989+010240FM-15+062999999V0209999V001510042719N007000199+00201+00201999999ADDGA1041+001221991GA2071+004271991GE19MSL   +99999+99999GF199999041990001221991991MA1100501999990MW1611REMMET062METAR EDJA 140850Z VRB03KT 7000 -RA SCT004 BKN014 02/02 Q1005=
0175109470999992014011409204+47989+010240FM-15+062999999V0201101N001510033519N009999199+00201+00201999999ADDGA1041+002131991GA2071+003351991GE19MSL   +99999+99999GF199999041990002131991991MA1100501999990MW1611REMMET062METAR EDJA 140920Z 11003KT 9999 -RA SCT007 BKN011 02/02 Q1005=
0152109470999992014011409504+47989+010240FM-15+062999999V0209999V000510027419N009000199+00201+00101999999ADDGA1071+002741991GE19MSL   +99999+99999GF199999071990002741991991MA1100501999990MW1611REMMET055METAR EDJA 140950Z VRB01KT 9000 -RA BKN009 02/01 Q1005=
0152109470999992014011410204+47989+010240FM-15+062999999V0209999V001010021319N009999199+00201+00101999999ADDGA1071+002131991GE19MSL   +99999+99999GF199999071990002131991991MA1100501999990MW1611REMMET055METAR EDJA 141020Z VRB02KT 9999 -RA BKN007 02/01 Q1005=
0152109470999992014011410504+47989+010240FM-15+062999999V0209999V001510021319N009000199+00101+00001999999ADDGA1071+002131991GE19MSL   +99999+99999GF199999071990002131991991MA1100501999990MW1611REMMET055METAR EDJA 141050Z VRB03KT 9000 -RA BKN007 01/00 Q1005=
0152109470999992014011411204+47989+010240FM-15+062999999V0202501N002110012219N009999199+00101+00101999999ADDGA1071+001221991GE19MSL   +99999+99999GF199999071990001221991991MA1100401999990MW1611REMMET055METAR EDJA 141120Z 25004KT 9999 -RA BKN004 01/01 Q1004=
0152109470999992014011411504+47989+010240FM-15+062999999V0202401N002610018319N008000199+00101+00001999999ADDGA1071+001831991GE19MSL   +99999+99999GF199999071990001831991991MA1100401999990MW1611REMMET055METAR EDJA 141150Z 24005KT 8000 -RA BKN006 01/00 Q1004=
0152109470999992014011412204+47989+010240FM-15+062999999V0202401N002110012219N007000199+00101+00001999999ADDGA1071+001221991GE19MSL   +99999+99999GF199999071990001221991991MA1100401999990MW1711REMMET055METAR EDJA 141220Z 24004KT 7000 -SN BKN004 01/00 Q1004=
0164109470999992014011412504+47989+010240FM-15+062999999V0202301N001510009119N002300199+00001+00001999999ADDGA1071+000911991GE19MSL   +99999+99999GF199999071990000911991991MA1100401999990MW1101MW2681REMMET061METAR EDJA 141250Z 23003KT 2300 -SNRA BR BKN003 00/M00 Q1004=
0177109470999992014011413504+47989+010240FM-15+062999999V0202301N002110018319N002100199+00001+00001999999ADDGA1041+000911991GA2071+001831991GE19MSL   +99999+99999GF199999041990000911991991MA1100501999990MW1711REMMET064METAR EDJA 141350Z 23004KT 2100 -SN SCT003 BKN006 M00/M00 Q1005=
0162109470999992014011414504+47989+010240FM-15+062999999V0202301V002110009119N001800199+00001+00001999999ADDGA1071+000911991GE19MSL   +99999+99999GF199999071990000911991991MA1100501999990MW1711REMMET065METAR EDJA 141450Z 23004KT 200V260 1800 -SN BKN003 M00/M00 Q1005=
0185109470999992014011415204+47989+010240FM-15+062999999V0202301V002610009119N003500199+00001+00001999999ADDGA1071+000911991GA2071+002441991GE19MSL   +99999+99999GF199999071990000911991991MA1100601999990MW1711REMMET072METAR EDJA 141520Z 23005KT 200V260 3500 -SN BKN003 BKN008 M00/M00 Q1006=
0185109470999992014011415504+47989+010240FM-15+062999999V0202301V002610012219N003400199+00001+00001999999ADDGA1071+001221991GA2071+002741991GE19MSL   +99999+99999GF199999071990001221991991MA1100601999990MW1711REMMET072METAR EDJA 141550Z 23005KT 190V250 3400 -SN BKN004 BKN009 M00/M00 Q1006=
0185109470999992014011416204+47989+010240FM-15+062999999V0202301V003110015219N005000199+00001+00001999999ADDGA1071+001521991GA2071+003051991GE19MSL   +99999+99999GF199999071990001521991991MA1100601999990MW1711REMMET072METAR EDJA 141620Z 23006KT 200V260 5000 -SN BKN005 BKN010 M00/M00 Q1006=
0185109470999992014011417204+47989+010240FM-15+062999999V0202201V002610012219N005000199+00001+00001999999ADDGA1071+001221991GA2071+002441991GE19MSL   +99999+99999GF199999071990001221991991MA1100701999990MW1711REMMET072METAR EDJA 141720Z 22005KT 190V250 5000 -SN BKN004 BKN008 M00/M00 Q1007=
0185109470999992014011417504+47989+010240FM-15+062999999V0202301V003610012219N004700199+00001+00001999999ADDGA1071+001221991GA2071+002441991GE19MSL   +99999+99999GF199999071990001221991991MA1100701999990MW1711REMMET072METAR EDJA 141750Z 23007KT 200V260 4700 -SN BKN004 BKN008 M00/M00 Q1007=
0177109470999992014011418204+47989+010240FM-15+062999999V0202301N003110009119N007000199+00001+00001999999ADDGA1071+000911991GA2071+002131991GE19MSL   +99999+99999GF199999071990000911991991MA1100801999990MW1711REMMET064METAR EDJA 141820Z 23006KT 7000 -SN BKN003 BKN007 M00/M00 Q1008=
0184109470999992014011418504+47989+010240FM-15+062999999V0202301V003110021319N006000199+00001+00001999999ADDGA1041+000911991GA2071+002131991GE19MSL   +99999+99999GF199999041990000911991991MA1100801999990MW1711REMMET071METAR EDJA 141850Z 23006KT 190V260 6000 -SN SCT003 BKN007 00/M00 Q1008=
0176109470999992014011419204+47989+010240FM-15+062999999V0202301N003610012219N009000199+00001+00001999999ADDGA1071+001221991GA2071+003661991GE19MSL   +99999+99999GF199999071990001221991991MA1100801999990MW1711REMMET063METAR EDJA 141920Z 23007KT 9000 -SN BKN004 BKN012 00/M00 Q1008=
0184109470999992014011419504+47989+010240FM-15+062999999V0202201V003110012219N007000199+00001+00001999999ADDGA1071+001221991GA2071+003661991GE19MSL   +99999+99999GF199999071990001221991991MA1100901999990MW1711REMMET071METAR EDJA 141950Z 22006KT 180V240 7000 -SN BKN004 BKN012 00/M00 Q1009=
0184109470999992014011420204+47989+010240FM-15+062999999V0202101V002110012219N008000199+00001+00001999999ADDGA1071+001221991GA2071+003661991GE19MSL   +99999+99999GF199999071990001221991991MA1100901999990MW1711REMMET071METAR EDJA 142020Z 21004KT 180V240 8000 -SN BKN004 BKN012 00/M00 Q1009=
0184109470999992014011420504+47989+010240FM-15+062999999V0202201V002110015219N007000199+00001+00001999999ADDGA1071+001521991GA2071+003961991GE19MSL   +99999+99999GF199999071990001521991991MA1100901999990MW1711REMMET071METAR EDJA 142050Z 22004KT 180V250 7000 -SN BKN005 BKN013 00/M00 Q1009=
0150109470999992014011504504+47989+010240FM-15+062999999V0202201V003110042719N007000199+00001+00001999999ADDGA1071+004271991GE19MSL   +99999+99999GF199999071990004271991991MA1101201999990REMMET059METAR EDJA 150450Z 22006KT 190V260 7000 BKN014 00/00 Q1012=
0151109470999992014011505204+47989+010240FM-15+062999999V0202101V002610042719N009999199+00001+00001999999ADDGA1071+004271991GE19MSL   +99999+99999GF199999071990004271991991MA1101201999990REMMET060METAR EDJA 150520Z 21005KT 170V240 9999 BKN014 00/M00 Q1012=
0151109470999992014011505504+47989+010240FM-15+062999999V0202101V002610036619N009999199+00001-00101999999ADDGA1071+003661991GE19MSL   +99999+99999GF199999071990003661991991MA1101201999990REMMET060METAR EDJA 150550Z 21005KT 170V240 9999 BKN012 00/M01 Q1012=
0151109470999992014011506204+47989+010240FM-15+062999999V0202101V002610036619N009999199+00001-00101999999ADDGA1071+003661991GE19MSL   +99999+99999GF199999071990003661991991MA1101201999990REMMET060METAR EDJA 150620Z 21005KT 170V250 9999 BKN012 00/M01 Q1012=
0151109470999992014011506504+47989+010240FM-15+062999999V0202201V002610030519N009999199+00001-00101999999ADDGA1071+003051991GE19MSL   +99999+99999GF199999071990003051991991MA1101201999990REMMET060METAR EDJA 150650Z 22005KT 190V250 9999 BKN010 00/M01 Q1012=
0152109470999992014011507504+47989+010240FM-15+062999999V0202301V002619999999N009999199+00001-00101999999ADDGA1021+003051991GE19MSL   +99999+99999GF199999021990003051991991MA1101301999990REMMET061METAR EDJA 150750Z 23005KT 200V260 9999 FEW010 M00/M01 Q1013=
0144109470999992014011508204+47989+010240FM-15+062999999V0209999V001519999999N009999199+00001-00101999999ADDGA1021+003051991GE19MSL   +99999+99999GF199999021990003051991991MA1101201999990REMMET053METAR EDJA 150820Z VRB03KT 9999 FEW010 M00/M01 Q1012=
0152109470999992014011508504+47989+010240FM-15+062999999V0202201V002619999999N009999199+00001-00101999999ADDGA1041+003051991GE19MSL   +99999+99999GF199999041990003051991991MA1101201999990REMMET061METAR EDJA 150850Z 22005KT 190V260 9999 SCT010 M00/M01 Q1012=
0143109470999992014011509204+47989+010240FM-15+062999999V0202401N003119999999N009999199+00001-00101999999ADDGA1041+002441991GE19MSL   +99999+99999GF199999041990002441991991MA1101301999990REMMET052METAR EDJA 150920Z 24006KT 9999 SCT008 00/M01 Q1013=
0151109470999992014011509504+47989+010240FM-15+062999999V0202401V002619999999N009999199+00001-00101999999ADDGA1041+002441991GE19MSL   +99999+99999GF199999041990002441991991MA1101301999990REMMET060METAR EDJA 150950Z 24005KT 200V260 9999 SCT008 00/M01 Q1013=
0151109470999992014011510204+47989+010240FM-15+062999999V0202101V002619999999N009999199+00001-00101999999ADDGA1041+003051991GE19MSL   +99999+99999GF199999041990003051991991MA1101301999990REMMET060METAR EDJA 151020Z 21005KT 160V240 9999 SCT010 00/M01 Q1013=
0151109470999992014011510504+47989+010240FM-15+062999999V0201901V002619999999N009999199+00101-00101999999ADDGA1041+003051991GE19MSL   +99999+99999GF199999041990003051991991MA1101201999990REMMET060METAR EDJA 151050Z 19005KT 160V220 9999 SCT010 01/M01 Q1012=
0151109470999992014011511204+47989+010240FM-15+062999999V0202001V003119999999N009999199+00101-00101999999ADDGA1041+003051991GE19MSL   +99999+99999GF199999041990003051991991MA1101201999990REMMET060METAR EDJA 151120Z 20006KT 170V230 9999 SCT010 01/M01 Q1012=
0151109470999992014011511504+47989+010240FM-15+062999999V0202101V002619999999N009999199+00101-00101999999ADDGA1021+003661991GE19MSL   +99999+99999GF199999021990003661991991MA1101201999990REMMET060METAR EDJA 151150Z 21005KT 170V250 9999 FEW012 01/M01 Q1012=
0151109470999992014011512204+47989+010240FM-15+062999999V0202001V002619999999N009999199+00101-00101999999ADDGA1021+003051991GE19MSL   +99999+99999GF199999021990003051991991MA1101101999990REMMET060METAR EDJA 151220Z 20005KT 160V240 9999 FEW010 01/M01 Q1011=
0151109470999992014011512504+47989+010240FM-15+062999999V0202101V002119999999N009999199+00201-00101999999ADDGA1021+003961991GE19MSL   +99999+99999GF199999021990003961991991MA1101101999990REMMET060METAR EDJA 151250Z 21004KT 170V250 9999 FEW013 02/M01 Q1011=
0151109470999992014011513204+47989+010240FM-15+062999999V0202001V002619999999N009999199+00201-00101999999ADDGA1021+004271991GE19MSL   +99999+99999GF199999021990004271991991MA1101101999990REMMET060METAR EDJA 151320Z 20005KT 160V240 9999 FEW014 02/M01 Q1011=
0151109470999992014011513504+47989+010240FM-15+062999999V0202001V002119999999N009999199+00301+00001999999ADDGA1021+003661991GE19MSL   +99999+99999GF199999021990003661991991MA1101101999990REMMET060METAR EDJA 151350Z 20004KT 150V230 9999 FEW012 03/M00 Q1011=
0081109470999992014011514204+47989+010240FM-15+062999999V0202101V002619999999Y999999999+00201-00101999999ADDMA1101101999990REMMET054METAR EDJA 151420Z 21005KT 170V240 CAVOK 02/M01 Q1011=
0073109470999992014011514504+47989+010240FM-15+062999999V0209999V001519999999Y999999999+00201+00001999999ADDMA1101101999990REMMET046METAR EDJA 151450Z VRB03KT CAVOK 02/M00 Q1011=
0072109470999992014011515204+47989+010240FM-15+062999999V0209999V001519999999Y999999999+00201+00001999999ADDMA1101101999990REMMET045METAR EDJA 151520Z VRB03KT CAVOK 02/00 Q1011=
0072109470999992014011515504+47989+010240FM-15+062999999V0209999V001019999999Y999999999+00101+00001999999ADDMA1101101999990REMMET045METAR EDJA 151550Z VRB02KT CAVOK 01/00 Q1011=
