0154109470999992008010107204+47983+010233FM-15+0629EDJA V0209999V00051000151CN0003001N1-00601-00701999999ADDED199U03509GA1091+000151999GF109991999999000251999999MA1102301999999MW1491REMMET068METAR EDJA 010720Z VRB01KT 0300 R24/M0350N FZFG VV/// M06/M07 Q1023;
0135109470999992008010107504+47983+010233FM-15+0629EDJA V0201601N001512200019N0003001N1-00601-00701999999ADDMA1102301999999REMMET073METAR EDJA 010750Z 16003KT 0300 R24/M0350V0450U FZFG VV/// M06/M07 Q1023;EQDQ01+000403ATOT  Q02-003503ATOD  
0133109470999992008010108204+47983+010233FM-15+0629EDJA V0200901N003110003019N0009001N1-00501-00501999999ADDGA1071+000301999GF107991999999999999999999MA1102301999999MW1481REMMET058METAR EDJA 010820Z 09006KT 0900 FZFG BKN001 M05/M05 Q1023;
0148109470999992008010108504+47983+010233FM-15+0629EDJA V0200901N00411000151CN0004501N1-00501-00501999999ADDGA1091+000151999GF109991999999000251999999MA1102301999999MW1491REMMET073METAR EDJA 010850Z 09008KT 0450 R24/0800VP1500U FZFG VV/// M05/M05 Q1023;
0141109470999992008010109204+47983+010233FM-15+0629EDJA V0200801N003110006019N0009001N1-00401-00401999999ADDGA1071+000601999GF107991999999999999999999MA1102301999999MW1481REMMET066METAR EDJA 010920Z 08006KT 050V120 0900 FZFG BKN002 M04/M04 Q1023;
0132109470999992008010109504+47983+010233FM-15+0629EDJA V0201001N003610006019N0009001N1-00401-00401999999ADDGA1091+000601999GF109991999999000251999999MA1102301999999MW1491REMMET057METAR EDJA 010950Z 10007KT 0900 FZFG VV002 M04/M04 Q1023;
0139109470999992008010110204+47983+010233FM-15+0629EDJA V0200901N002610009019N0025001N1-00401-00401999999ADDGA1071+000901999GF107991999999999999999999MA1102301999999MW1101REMMET064METAR EDJA 011020Z 09005KT 070V130 2500 BR BKN003 M04/M04 Q1023;
0139109470999992008010110504+47983+010233FM-15+0629EDJA V0201201N002610006019N0025001N1-00401-00401999999ADDGA1071+000601999GF107991999999999999999999MA1102201999999MW1101REMMET064METAR EDJA 011050Z 12005KT 070V140 2500 BR BKN002 M04/M04 Q1022;
0131109470999992008010111204+47983+010233FM-15+0629EDJA V0200901N003110006019N0025001N1-00401-00401999999ADDGA1071+000601999GF107991999999999999999999MA1102201999999MW1101REMMET056METAR EDJA 011120Z 09006KT 2500 BR BKN002 M04/M04 Q1022;
0122109470999992008010111504+47983+010233FM-15+0629EDJA V0200901N003110012019N0030001N1-00401-00401999999ADDGA1071+001201999GF107991999999999999999999MA1102201999999REMMET053METAR EDJA 011150Z 09006KT 3000 BKN004 M04/M04 Q1022;
0122109470999992008010112204+47983+010233FM-15+0629EDJA V0200801N002610015019N0040001N1-00301-00401999999ADDGA1071+001501999GF107991999999999999999999MA1102201999999REMMET053METAR EDJA 011220Z 08005KT 4000 BKN005 M03/M04 Q1022;
0122109470999992008010112504+47983+010233FM-15+0629EDJA V0200701N003110018019N0050001N1-00301-00301999999ADDGA1071+001801999GF107991999999999999999999MA1102101999999REMMET053METAR EDJA 011250Z 07006KT 5000 BKN006 M03/M03 Q1021;
0122109470999992008010113204+47983+010233FM-15+0629EDJA V0200601N004110018019N0060001N1-00301-00401999999ADDGA1071+001801999GF107991999999999999999999MA1102101999999REMMET053METAR EDJA 011320Z 06008KT 6000 BKN006 M03/M04 Q1021;
0122109470999992008010113504+47983+010233FM-15+0629EDJA V0200801N003610021019N0090001N1-00301-00401999999ADDGA1071+002101999GF107991999999999999999999MA1102101999999REMMET053METAR EDJA 011350Z 08007KT 9000 BKN007 M03/M04 Q1021;
0122109470999992008010114204+47983+010233FM-15+0629EDJA V0200801N004110021019N0112651N1-00301-00401999999ADDGA1071+002101999GF107991999999999999999999MA1102101999999REMMET053METAR EDJA 011420Z 08008KT 9999 BKN007 M03/M04 Q1021;
0122109470999992008010114504+47983+010233FM-15+0629EDJA V0200701N003610024019N0080001N1-00301-00401999999ADDGA1071+002401999GF107991999999999999999999MA1102101999999REMMET053METAR EDJA 011450Z 07007KT 8000 BKN008 M03/M04 Q1021;
0122109470999992008010115204+47983+010233FM-15+0629EDJA V0200601N003610027019N0060001N1-00301-00401999999ADDGA1071+002701999GF107991999999999999999999MA1102101999999REMMET053METAR EDJA 011520Z 06007KT 6000 BKN009 M03/M04 Q1021;
0122109470999992008010115504+47983+010233FM-15+0629EDJA V0200601N003110030019N0112651N1-00401-00401999999ADDGA1071+003001999GF107991999999999999999999MA1102101999999REMMET053METAR EDJA 011550Z 06006KT 9999 BKN010 M04/M04 Q1021;
0122109470999992008010116204+47983+010233FM-15+0629EDJA V0200601N003610030019N0112651N1-00401-00401999999ADDGA1071+003001999GF107991999999999999999999MA1102101999999REMMET053METAR EDJA 011620Z 06007KT 9999 BKN010 M04/M04 Q1021;
0122109470999992008010116504+47983+010233FM-15+0629EDJA V0200501N003110036019N0112651N1-00401-00401999999ADDGA1071+003601999GF107991999999999999999999MA1102101999999REMMET053METAR EDJA 011650Z 05006KT 9999 BKN012 M04/M04 Q1021;
0122109470999992008010117204+47983+010233FM-15+0629EDJA V0200501N003610036019N0112651N1-00401-00401999999ADDGA1071+003601999GF107991999999999999999999MA1102101999999REMMET053METAR EDJA 011720Z 05007KT 9999 BKN012 M04/M04 Q1021;
0122109470999992008010117504+47983+010233FM-15+0629EDJA V0200501N003110039019N0112651N1-00401-00401999999ADDGA1071+003901999GF107991999999999999999999MA1102101999999REMMET053METAR EDJA 011750Z 05006KT 9999 BKN013 M04/M04 Q1021;
0122109470999992008010118204+47983+010233FM-15+0629EDJA V0200701N003610042019N0112651N1-00301-00401999999ADDGA1071+004201999GF107991999999999999999999MA1102101999999REMMET053METAR EDJA 011820Z 07007KT 9999 BKN014 M03/M04 Q1021;
0122109470999992008010118504+47983+010233FM-15+0629EDJA V0200701N003610039019N0112651N1-00301-00501999999ADDGA1071+003901999GF107991999999999999999999MA1102101999999REMMET053METAR EDJA 011850Z 07007KT 9999 BKN013 M03/M05 Q1021;
0122109470999992008010119204+47983+010233FM-15+0629EDJA V0200901N004610036019N0112651N1-00301-00501999999ADDGA1071+003601999GF107991999999999999999999MA1102101999999REMMET053METAR EDJA 011920Z 09009KT 9999 BKN012 M03/M05 Q1021;
0122109470999992008010119504+47983+010233FM-15+0629EDJA V0200901N003610036019N0112651N1-00401-00501999999ADDGA1071+003601999GF107991999999999999999999MA1102101999999REMMET053METAR EDJA 011950Z 09007KT 9999 BKN012 M04/M05 Q1021;
0122109470999992008010120204+47983+010233FM-15+0629EDJA V0200901N003610033019N0112651N1-00401-00501999999ADDGA1071+003301999GF107991999999999999999999MA1102101999999REMMET053METAR EDJA 012020Z 09007KT 9999 BKN011 M04/M05 Q1021;
0130109470999992008010204204+47983+010233FM-15+0629EDJA V0201001N004110042019N0112651N1-00501-00601999999ADDGA1071+004201999GF107991999999999999999999MA1101901999999REMMET061METAR EDJA 020420Z 10008KT 060V120 9999 BKN014 M05/M06 Q1019;
0122109470999992008010204504+47983+010233FM-15+0629EDJA V0200901N003110042019N0112651N1-00501-00601999999ADDGA1071+004201999GF107991999999999999999999MA1101901999999REMMET053METAR EDJA 020450Z 09006KT 9999 BKN014 M05/M06 Q1019;
0122109470999992008010205204+47983+010233FM-15+0629EDJA V0200901N002610039019N0112651N1-00501-00601999999ADDGA1071+003901999GF107991999999999999999999MA1101901999999REMMET053METAR EDJA 020520Z 09005KT 9999 BKN013 M05/M06 Q1019;
0130109470999992008010205504+47983+010233FM-15+0629EDJA V0201001N005710045019N0112651N1-00501-00701999999ADDGA1071+004501999GF107991999999999999999999MA1101801999999REMMET061METAR EDJA 020550Z 10011KT 060V120 9999 BKN015 M05/M07 Q1018;
0122109470999992008010206204+47983+010233FM-15+0629EDJA V0201001N004610042019N0112651N1-00501-00701999999ADDGA1071+004201999GF107991999999999999999999MA1101801999999REMMET053METAR EDJA 020620Z 10009KT 9999 BKN014 M05/M07 Q1018;
0122109470999992008010206504+47983+010233FM-15+0629EDJA V0200901N007210042019N0112651N1-00501-00701999999ADDGA1071+004201999GF107991999999999999999999MA1101801999999REMMET053METAR EDJA 020650Z 09014KT 9999 BKN014 M05/M07 Q1018;
0122109470999992008010207204+47983+010233FM-15+0629EDJA V0200901N004110036019N0112651N1-00501-00701999999ADDGA1071+003601999GF107991999999999999999999MA1101801999999REMMET053METAR EDJA 020720Z 09008KT 9999 BKN012 M05/M07 Q1018;
0122109470999992008010207504+47983+010233FM-15+0629EDJA V0201001N005710036019N0112651N1-00601-00701999999ADDGA1071+003601999GF107991999999999999999999MA1101801999999REMMET053METAR EDJA 020750Z 10011KT 9999 BKN012 M06/M07 Q1018;
0122109470999992008010208204+47983+010233FM-15+0629EDJA V0201101N005710033019N0112651N1-00601-00801999999ADDGA1071+003301999GF107991999999999999999999MA1101801999999REMMET053METAR EDJA 020820Z 11011KT 9999 BKN011 M06/M08 Q1018;
0122109470999992008010208504+47983+010233FM-15+0629EDJA V0201001N005710033019N0112651N1-00601-00801999999ADDGA1071+003301999GF107991999999999999999999MA1101691999999REMMET053METAR EDJA 020850Z 10011KT 9999 BKN011 M06/M08 Q1017;
0122109470999992008010209204+47983+010233FM-15+0629EDJA V0201001N005110033019N0112651N1-00601-00801999999ADDGA1071+003301999GF107991999999999999999999MA1101691999999REMMET053METAR EDJA 020920Z 10010KT 9999 BKN011 M06/M08 Q1017;
0122109470999992008010209504+47983+010233FM-15+0629EDJA V0201101N005112200019N0112651N1-00601-00801999999ADDGA1041+003301999GF104991999999999999999999MA1101691999999REMMET053METAR EDJA 020950Z 11010KT 9999 SCT011 M06/M08 Q1017;
0122109470999992008010210204+47983+010233FM-15+0629EDJA V0201101N005112200019N0112651N1-00601-00801999999ADDGA1041+003601999GF104991999999999999999999MA1101691999999REMMET053METAR EDJA 021020Z 11010KT 9999 SCT012 M06/M08 Q1017;
0122109470999992008010211204+47983+010233FM-15+0629EDJA V0201001N004112200019N0112651N1-00601-00801999999ADDGA1041+004201999GF104991999999999999999999MA1101591999999REMMET053METAR EDJA 021120Z 10008KT 9999 SCT014 M06/M08 Q1016;
0122109470999992008010211504+47983+010233FM-15+0629EDJA V0200801N003612200019N0112651N1-00601-00801999999ADDGA1021+004501999GF102991999999999999999999MA1101591999999REMMET053METAR EDJA 021150Z 08007KT 9999 FEW015 M06/M08 Q1016;
0130109470999992008010212204+47983+010233FM-15+0629EDJA V0201001N003612200019N0112651N1-00501-00801999999ADDGA1021+003601999GF102991999999999999999999MA1101491999999REMMET061METAR EDJA 021220Z 10007KT 050V120 9999 FEW012 M05/M08 Q1015;
0130109470999992008010212504+47983+010233FM-15+0629EDJA V0200801N003112200019N0112651N1-00501-00801999999ADDGA1021+003301999GF102991999999999999999999MA1101491999999REMMET061METAR EDJA 021250Z 08006KT 050V120 9999 FEW011 M05/M08 Q1015;
0122109470999992008010213204+47983+010233FM-15+0629EDJA V0200901N003112200019N0112651N1-00501-00701999999ADDGA1021+004801999GF102991999999999999999999MA1101391999999REMMET053METAR EDJA 021320Z 09006KT 9999 FEW016 M05/M07 Q1014;
0074109470999992008010213504+47983+010233FM-15+0629EDJA V0200701N00361220001CN0099001N1-00501-00801999999ADDMA1101391999999REMMET047METAR EDJA 021350Z 07007KT CAVOK M05/M08 Q1014;
0074109470999992008010214204+47983+010233FM-15+0629EDJA V0201001N00311220001CN0099001N1-00501-00801999999ADDMA1101391999999REMMET047METAR EDJA 021420Z 10006KT CAVOK M05/M08 Q1014;
0074109470999992008010214504+47983+010233FM-15+0629EDJA V0200901N00211220001CN0099001N1-00601-00801999999ADDMA1101391999999REMMET047METAR EDJA 021450Z 09004KT CAVOK M06/M08 Q1014;
0074109470999992008010215204+47983+010233FM-15+0629EDJA V0209999V00151220001CN0099001N1-00601-00801999999ADDMA1101391999999REMMET047METAR EDJA 021520Z VRB03KT CAVOK M06/M08 Q1014;
0074109470999992008010215504+47983+010233FM-15+0629EDJA V0201001N00151220001CN0099001N1-00701-00801999999ADDMA1101391999999REMMET047METAR EDJA 021550Z 10003KT CAVOK M07/M08 Q1014;
0074109470999992008010216204+47983+010233FM-15+0629EDJA V0200901N00151220001CN0099001N1-00701-00801999999ADDMA1101391999999REMMET047METAR EDJA 021620Z 09003KT CAVOK M07/M08 Q1014;
0074109470999992008010216504+47983+010233FM-15+0629EDJA V0200901N00151220001CN0099001N1-00801-00801999999ADDMA1101291999999REMMET047METAR EDJA 021650Z 09003KT CAVOK M08/M08 Q1013;
0074109470999992008010217204+47983+010233FM-15+0629EDJA V0200801N00211220001CN0099001N1-00901-01001999999ADDMA1101291999999REMMET047METAR EDJA 021720Z 08004KT CAVOK M09/M10 Q1013;
0073109470999992008010217504+47983+010233FM-15+0629EDJA V0201001N001012200019N0080001N1-01001-01001999999ADDMA1101291999999REMMET046METAR EDJA 021750Z 10002KT 8000 M10/M10 Q1013;
0122109470999992008010218204+47983+010233FM-15+0629EDJA V0209999V001012200019N0080001N1-01001-01101999999ADDGA1041+005401999GF104991999999999999999999MA1101291999999REMMET053METAR EDJA 021820Z VRB02KT 8000 SCT018 M10/M11 Q1013;
0122109470999992008010218504+47983+010233FM-15+0629EDJA V0209999V001012200019N0080001N1-01001-01001999999ADDGA1041+003601999GF104991999999999999999999MA1101291999999REMMET053METAR EDJA 021850Z VRB02KT 8000 SCT012 M10/M10 Q1013;
0122109470999992008010219204+47983+010233FM-15+0629EDJA V0201001N003610030019N0112651N1-00701-00801999999ADDGA1071+003001999GF107991999999999999999999MA1101191999999REMMET053METAR EDJA 021920Z 10007KT 9999 BKN010 M07/M08 Q1012;
0122109470999992008010219504+47983+010233FM-15+0629EDJA V0201001N003610030019N0112651N1-00701-00801999999ADDGA1071+003001999GF107991999999999999999999MA1101191999999REMMET053METAR EDJA 021950Z 10007KT 9999 BKN010 M07/M08 Q1012;
0122109470999992008010220204+47983+010233FM-15+0629EDJA V0200901N005112200019N0090001N1-00701-00801999999ADDGA1041+003001999GF104991999999999999999999MA1101081999999REMMET053METAR EDJA 022020Z 09010KT 9000 SCT010 M07/M08 Q1011;
0122109470999992008010304504+47983+010233FM-15+0629EDJA V0200601N002612200019N0090001N1-00701-00801999999ADDGF100991999999999999999999MA1100711999999REMMET050METAR EDJA 030450Z 06005KT 9000 NSC M07/M08 Q1007;EQDQ01    003SCCGA1
0122109470999992008010305204+47983+010233FM-15+0629EDJA V0200601N002612200019N0090001N1-00701-00801999999ADDGF100991999999999999999999MA1100711999999REMMET050METAR EDJA 030520Z 06005KT 9000 NSC M07/M08 Q1007;EQDQ01    003SCCGA1
0136109470999992008010305504+47983+010233FM-15+0629EDJA V0200501N003612200019N0080001N1-00701-00801999999ADDGF100991999999999999999999MA1100711999999REMMET064METAR EDJA 030550Z 05007KT 8000 NSC FEW046 BKN060 M07/M08 Q1007;EQDQ01    003SCCGA1
0145109470999992008010306204+47983+010233FM-15+0629EDJA V0200701N003110180019N0090001N1-00701-00801999999ADDGA1021+014401999GA2071+018001999GF107991999999999999999999MA1100711999999REMMET060METAR EDJA 030620Z 07006KT 9000 FEW048 BKN060 M07/M08 Q1007;
0074109470999992008010307204+47983+010233FM-15+0629EDJA V0200601N00261220001CN0099001N1-00701-00901999999ADDMA1100711999999REMMET047METAR EDJA 030720Z 06005KT CAVOK M07/M09 Q1007;
0082109470999992008010307504+47983+010233FM-15+0629EDJA V0200501N00211220001CN0099001N1-00701-00901999999ADDMA1100711999999REMMET055METAR EDJA 030750Z 05004KT 010V080 CAVOK M07/M09 Q1007;
0074109470999992008010308204+47983+010233FM-15+0629EDJA V0200601N00311220001CN0099001N1-00701-00901999999ADDMA1100611999999REMMET047METAR EDJA 030820Z 06006KT CAVOK M07/M09 Q1006;
0074109470999992008010308504+47983+010233FM-15+0629EDJA V0200601N00261220001CN0099001N1-00701-00901999999ADDMA1100611999999REMMET047METAR EDJA 030850Z 06005KT CAVOK M07/M09 Q1006;
0074109470999992008010309204+47983+010233FM-15+0629EDJA V0200501N00211220001CN0099001N1-00601-00801999999ADDMA1100611999999REMMET047METAR EDJA 030920Z 05004KT CAVOK M06/M08 Q1006;
0074109470999992008010309504+47983+010233FM-15+0629EDJA V0200601N00261220001CN0099001N1-00601-00801999999ADDMA1100611999999REMMET047METAR EDJA 030950Z 06005KT CAVOK M06/M08 Q1006;
0074109470999992008010310204+47983+010233FM-15+0629EDJA V0200401N00311220001CN0099001N1-00501-00801999999ADDMA1100611999999REMMET047METAR EDJA 031020Z 04006KT CAVOK M05/M08 Q1006;
0074109470999992008010310504+47983+010233FM-15+0629EDJA V0200501N00411220001CN0099001N1-00501-00701999999ADDMA1100511999999REMMET047METAR EDJA 031050Z 05008KT CAVOK M05/M07 Q1005;
0074109470999992008010311204+47983+010233FM-15+0629EDJA V0200501N00411220001CN0099001N1-00401-00701999999ADDMA1100511999999REMMET047METAR EDJA 031120Z 05008KT CAVOK M04/M07 Q1005;
0074109470999992008010311504+47983+010233FM-15+0629EDJA V0200701N00411220001CN0099001N1-00401-00601999999ADDMA1100511999999REMMET047METAR EDJA 031150Z 07008KT CAVOK M04/M06 Q1005;
0074109470999992008010312204+47983+010233FM-15+0629EDJA V0200601N00461220001CN0099001N1-00401-00601999999ADDMA1100411999999REMMET047METAR EDJA 031220Z 06009KT CAVOK M04/M06 Q1004;
0074109470999992008010312504+47983+010233FM-15+0629EDJA V0200501N00411220001CN0099001N1-00301-00601999999ADDMA1100511999999REMMET047METAR EDJA 031250Z 05008KT CAVOK M03/M06 Q1005;
0074109470999992008010313204+47983+010233FM-15+0629EDJA V0200601N00361220001CN0099001N1-00301-00601999999ADDMA1100411999999REMMET047METAR EDJA 031320Z 06007KT CAVOK M03/M06 Q1004;
0074109470999992008010313504+47983+010233FM-15+0629EDJA V0200601N00361220001CN0099001N1-00301-00501999999ADDMA1100411999999REMMET047METAR EDJA 031350Z 06007KT CAVOK M03/M05 Q1004;
0074109470999992008010314204+47983+010233FM-15+0629EDJA V0200601N00361220001CN0099001N1-00301-00601999999ADDMA1100511999999REMMET047METAR EDJA 031420Z 06007KT CAVOK M03/M06 Q1005;
0074109470999992008010314504+47983+010233FM-15+0629EDJA V0200601N00311220001CN0099001N1-00301-00601999999ADDMA1100511999999REMMET047METAR EDJA 031450Z 06006KT CAVOK M03/M06 Q1005;
0122109470999992008010315204+47983+010233FM-15+0629EDJA V0200601N003112200019N0090001N1-00401-00601999999ADDGF100991999999999999999999MA1100511999999REMMET050METAR EDJA 031520Z 06006KT 9000 NSC M04/M06 Q1005;EQDQ01    003SCCGA1
0122109470999992008010315504+47983+010233FM-15+0629EDJA V0200601N002612200019N0090001N1-00401-00501999999ADDGF100991999999999999999999MA1100511999999REMMET050METAR EDJA 031550Z 06005KT 9000 NSC M04/M05 Q1005;EQDQ01    003SCCGA1
0122109470999992008010316204+47983+010233FM-15+0629EDJA V0200701N002612200019N0090001N1-00401-00601999999ADDGF100991999999999999999999MA1100511999999REMMET050METAR EDJA 031620Z 07005KT 9000 NSC M04/M06 Q1005;EQDQ01    003SCCGA1
0122109470999992008010316504+47983+010233FM-15+0629EDJA V0200601N003112200019N0090001N1-00401-00601999999ADDGF100991999999999999999999MA1100511999999REMMET050METAR EDJA 031650Z 06006KT 9000 NSC M04/M06 Q1005;EQDQ01    003SCCGA1
0074109470999992008010317204+47983+010233FM-15+0629EDJA V0200601N00311220001CN0099001N1-00401-00601999999ADDMA1100511999999REMMET047METAR EDJA 031720Z 06006KT CAVOK M04/M06 Q1005;
0074109470999992008010317504+47983+010233FM-15+0629EDJA V0200601N00311220001CN0099001N1-00301-00601999999ADDMA1100511999999REMMET047METAR EDJA 031750Z 06006KT CAVOK M03/M06 Q1005;
0074109470999992008010318204+47983+010233FM-15+0629EDJA V0209999V00151220001CN0099001N1-00401-00601999999ADDMA1100511999999REMMET047METAR EDJA 031820Z VRB03KT CAVOK M04/M06 Q1005;
0074109470999992008010318504+47983+010233FM-15+0629EDJA V0200701N00311220001CN0099001N1-00401-00601999999ADDMA1100511999999REMMET047METAR EDJA 031850Z 07006KT CAVOK M04/M06 Q1005;
0074109470999992008010319204+47983+010233FM-15+0629EDJA V0200401N00211220001CN0099001N1-00401-00701999999ADDMA1100611999999REMMET047METAR EDJA 031920Z 04004KT CAVOK M04/M07 Q1006;
0074109470999992008010319504+47983+010233FM-15+0629EDJA V0200201N00211220001CN0099001N1-00601-00701999999ADDMA1100611999999REMMET047METAR EDJA 031950Z 02004KT CAVOK M06/M07 Q1006;
0122109470999992008010320204+47983+010233FM-15+0629EDJA V0200501N002612200019N0090001N1-00601-00701999999ADDGF100991999999999999999999MA1100611999999REMMET050METAR EDJA 032020Z 05005KT 9000 NSC M06/M07 Q1006;EQDQ01    003SCCGA1
0122109470999992008010320504+47983+010233FM-15+0629EDJA V0209999V001512200019N0080001N1-00601-00601999999ADDGF100991999999999999999999MA1100611999999REMMET050METAR EDJA 032050Z VRB03KT 8000 NSC M06/M06 Q1006;EQDQ01    003SCCGA1
0122109470999992008010404504+47983+010233FM-15+0629EDJA V0200401N001512200019N0060001N1-00901-01001999999ADDGF100991999999999999999999MA1100811999999REMMET050METAR EDJA 040450Z 04003KT 6000 NSC M09/M10 Q1008;EQDQ01    003SCCGA1
0122109470999992008010405204+47983+010233FM-15+0629EDJA V0209999V001512200019N0070001N1-00901-00901999999ADDGF100991999999999999999999MA1100811999999REMMET050METAR EDJA 040520Z VRB03KT 7000 NSC M09/M09 Q1008;EQDQ01    003SCCGA1
0122109470999992008010405504+47983+010233FM-15+0629EDJA V0209999V001012200019N0070001N1-00801-00801999999ADDGF100991999999999999999999MA1100811999999REMMET050METAR EDJA 040550Z VRB02KT 7000 NSC M08/M08 Q1008;EQDQ01    003SCCGA1
0122109470999992008010406204+47983+010233FM-15+0629EDJA V0209999V001012200019N0070001N1-00701-00701999999ADDGF100991999999999999999999MA1100911999999REMMET050METAR EDJA 040620Z VRB02KT 7000 NSC M07/M07 Q1009;EQDQ01    003SCCGA1
0122109470999992008010406504+47983+010233FM-15+0629EDJA V0209999V000512200019N0060001N1-00701-00801999999ADDGF100991999999999999999999MA1100911999999REMMET050METAR EDJA 040650Z VRB01KT 6000 NSC M07/M08 Q1009;EQDQ01    003SCCGA1
0074109470999992008010407504+47983+010233FM-15+0629EDJA V0209999V00101220001CN0099001N1-00801-00901999999ADDMA1101021999999REMMET047METAR EDJA 040750Z VRB02KT CAVOK M08/M09 Q1010;
0074109470999992008010408204+47983+010233FM-15+0629EDJA V0209999V00151220001CN0099001N1-00801-00901999999ADDMA1101021999999REMMET047METAR EDJA 040820Z VRB03KT CAVOK M08/M09 Q1010;
0074109470999992008010408504+47983+010233FM-15+0629EDJA V0209999V00051220001CN0099001N1-00801-00901999999ADDMA1101021999999REMMET047METAR EDJA 040850Z VRB01KT CAVOK M08/M09 Q1010;
0074109470999992008010409504+47983+010233FM-15+0629EDJA V0200601N00101220001CN0099001N1-00601-00701999999ADDMA1101081999999REMMET047METAR EDJA 040950Z 06002KT CAVOK M06/M07 Q1011;
0074109470999992008010410204+47983+010233FM-15+0629EDJA V0209999V00151220001CN0099001N1-00401-00601999999ADDMA1101081999999REMMET047METAR EDJA 041020Z VRB03KT CAVOK M04/M06 Q1011;
0074109470999992008010410504+47983+010233FM-15+0629EDJA V0209999V00151220001CN0099001N1-00301-00501999999ADDMA1101081999999REMMET047METAR EDJA 041050Z VRB03KT CAVOK M03/M05 Q1011;
0074109470999992008010411204+47983+010233FM-15+0629EDJA V0209999V00101220001CN0099001N1-00201-00501999999ADDMA1101081999999REMMET047METAR EDJA 041120Z VRB02KT CAVOK M02/M05 Q1011;
0074109470999992008010411504+47983+010233FM-15+0629EDJA V0209999V00051220001CN0099001N1-00201-00501999999ADDMA1101081999999REMMET047METAR EDJA 041150Z VRB01KT CAVOK M02/M05 Q1011;
0074109470999992008010412204+47983+010233FM-15+0629EDJA V0209999V00101220001CN0099001N1-00201-00401999999ADDMA1101081999999REMMET047METAR EDJA 041220Z VRB02KT CAVOK M02/M04 Q1011;
0074109470999992008010412504+47983+010233FM-15+0629EDJA V0209999V00101220001CN0099001N1-00101-00401999999ADDMA1101081999999REMMET047METAR EDJA 041250Z VRB02KT CAVOK M01/M04 Q1011;
0074109470999992008010413204+47983+010233FM-15+0629EDJA V0209999V00151220001CN0099001N1-00201-00401999999ADDMA1101081999999REMMET047METAR EDJA 041320Z VRB03KT CAVOK M02/M04 Q1011;
0074109470999992008010413504+47983+010233FM-15+0629EDJA V0209999V00151220001CN0099001N1-00201-00401999999ADDMA1101081999999REMMET047METAR EDJA 041350Z VRB03KT CAVOK M02/M04 Q1011;
0074109470999992008010414204+47983+010233FM-15+0629EDJA V0209999V00151220001CN0099001N1-00201-00401999999ADDMA1101191999999REMMET047METAR EDJA 041420Z VRB03KT CAVOK M02/M04 Q1012;
0082109470999992008010415204+47983+010233FM-15+0629EDJA V0201001N00211220001CN0099001N1-00201-00401999999ADDMA1101191999999REMMET055METAR EDJA 041520Z 10004KT 090V160 CAVOK M02/M04 Q1012;
0074109470999992008010415504+47983+010233FM-15+0629EDJA V0209999V00101220001CN0099001N1-00201-00401999999ADDMA1101191999999REMMET047METAR EDJA 041550Z VRB02KT CAVOK M02/M04 Q1012;
0122109470999992008010416204+47983+010233FM-15+0629EDJA V0201801N001012200019N0070001N1-00301-00501999999ADDGF100991999999999999999999MA1101191999999REMMET050METAR EDJA 041620Z 18002KT 7000 NSC M03/M05 Q1012;EQDQ01    003SCCGA1
0122109470999992008010416504+47983+010233FM-15+0629EDJA V0209999C000012200019N0070001N1-00401-00401999999ADDGF100991999999999999999999MA1101191999999REMMET050METAR EDJA 041650Z 00000KT 7000 NSC M04/M04 Q1012;EQDQ01    003SCCGA1
0122109470999992008010417204+47983+010233FM-15+0629EDJA V0209999V001012200019N0070001N1-00501-00601999999ADDGF100991999999999999999999MA1101191999999REMMET050METAR EDJA 041720Z VRB02KT 7000 NSC M05/M06 Q1012;EQDQ01    003SCCGA1
0122109470999992008010417504+47983+010233FM-15+0629EDJA V0209999V001012200019N0060001N1-00401-00501999999ADDGF100991999999999999999999MA1101191999999REMMET050METAR EDJA 041750Z VRB02KT 6000 NSC M04/M05 Q1012;EQDQ01    003SCCGA1
0122109470999992008010418204+47983+010233FM-15+0629EDJA V0209999V000512200019N0060001N1-00501-00601999999ADDGF100991999999999999999999MA1101191999999REMMET050METAR EDJA 041820Z VRB01KT 6000 NSC M05/M06 Q1012;EQDQ01    003SCCGA1
0131109470999992008010418504+47983+010233FM-15+0629EDJA V0209999V001012200019N0050001N1-00401-00401999999ADDGF100991999999999999999999MA1101191999999MW1101REMMET053METAR EDJA 041850Z VRB02KT 5000 BR NSC M04/M04 Q1012;EQDQ01    003SCCGA1
0131109470999992008010419204+47983+010233FM-15+0629EDJA V0209999V001512200019N0050001N1-00501-00501999999ADDGF100991999999999999999999MA1101291999999MW1101REMMET053METAR EDJA 041920Z VRB03KT 5000 BR NSC M05/M05 Q1013;EQDQ01    003SCCGA1
0131109470999992008010419504+47983+010233FM-15+0629EDJA V0209999V001012200019N0050001N1-00501-00601999999ADDGF100991999999999999999999MA1101291999999MW1101REMMET053METAR EDJA 041950Z VRB02KT 5000 BR NSC M05/M06 Q1013;EQDQ01    003SCCGA1
0131109470999992008010420204+47983+010233FM-15+0629EDJA V0209999V001012200019N0050001N1-00501-00601999999ADDGF100991999999999999999999MA1101291999999MW1101REMMET053METAR EDJA 042020Z VRB02KT 5000 BR NSC M05/M06 Q1013;EQDQ01    003SCCGA1
0131109470999992008010420504+47983+010233FM-15+0629EDJA V0209999V001012200019N0050001N1-00501-00601999999ADDGF100991999999999999999999MA1101291999999MW1101REMMET053METAR EDJA 042050Z VRB02KT 5000 BR NSC M05/M06 Q1013;EQDQ01    003SCCGA1
0074109470999992008010504504+47983+010233FM-15+0629EDJA V0209999V00151220001CN0099001N1-00301-00501999999ADDMA1101191999999REMMET047METAR EDJA 050450Z VRB03KT CAVOK M03/M05 Q1012;
0074109470999992008010505204+47983+010233FM-15+0629EDJA V0201501N00261220001CN0099001N1-00301-00501999999ADDMA1101191999999REMMET047METAR EDJA 050520Z 15005KT CAVOK M03/M05 Q1012;
0074109470999992008010505504+47983+010233FM-15+0629EDJA V0201301N00261220001CN0099001N1-00301-00501999999ADDMA1101191999999REMMET047METAR EDJA 050550Z 13005KT CAVOK M03/M05 Q1012;
0074109470999992008010506204+47983+010233FM-15+0629EDJA V0201601N00211220001CN0099001N1-00101-00301999999ADDMA1101191999999REMMET047METAR EDJA 050620Z 16004KT CAVOK M01/M03 Q1012;
0074109470999992008010506504+47983+010233FM-15+0629EDJA V0209999V00101220001CN0099001N1-00201-00301999999ADDMA1101191999999REMMET047METAR EDJA 050650Z VRB02KT CAVOK M02/M03 Q1012;
0074109470999992008010507204+47983+010233FM-15+0629EDJA V0202901N00151220001CN0099001N1-00201-00301999999ADDMA1101191999999REMMET047METAR EDJA 050720Z 29003KT CAVOK M02/M03 Q1012;
0074109470999992008010507504+47983+010233FM-15+0629EDJA V0209999V00101220001CN0099001N1-00101-00301999999ADDMA1101191999999REMMET047METAR EDJA 050750Z VRB02KT CAVOK M01/M03 Q1012;
0074109470999992008010508204+47983+010233FM-15+0629EDJA V0209999V00051220001CN0099001N1-00101-00201999999ADDMA1101191999999REMMET047METAR EDJA 050820Z VRB01KT CAVOK M01/M02 Q1012;
0073109470999992008010509204+47983+010233FM-15+0629EDJA V0209999V00151220001CN0099001N1+00001-00101999999ADDMA1101191999999REMMET046METAR EDJA 050920Z VRB03KT CAVOK 00/M01 Q1012;
0073109470999992008010509504+47983+010233FM-15+0629EDJA V0202501N00361220001CN0099001N1+00201-00101999999ADDMA1101191999999REMMET046METAR EDJA 050950Z 25007KT CAVOK 02/M01 Q1012;
0073109470999992008010510204+47983+010233FM-15+0629EDJA V0202201N00361220001CN0099001N1+00201-00101999999ADDMA1101191999999REMMET046METAR EDJA 051020Z 22007KT CAVOK 02/M01 Q1012;
0073109470999992008010511204+47983+010233FM-15+0629EDJA V0201801N00261220001CN0099001N1+00201-00101999999ADDMA1101191999999REMMET046METAR EDJA 051120Z 18005KT CAVOK 02/M01 Q1012;
0073109470999992008010511504+47983+010233FM-15+0629EDJA V0202001N00151220001CN0099001N1+00301-00101999999ADDMA1101191999999REMMET046METAR EDJA 051150Z 20003KT CAVOK 03/M01 Q1012;
0073109470999992008010512204+47983+010233FM-15+0629EDJA V0201901N00411220001CN0099001N1+00301-00101999999ADDMA1101081999999REMMET046METAR EDJA 051220Z 19008KT CAVOK 03/M01 Q1011;
0073109470999992008010512504+47983+010233FM-15+0629EDJA V0201901N00261220001CN0099001N1+00301-00101999999ADDMA1101081999999REMMET046METAR EDJA 051250Z 19005KT CAVOK 03/M01 Q1011;
0073109470999992008010513204+47983+010233FM-15+0629EDJA V0202001N00361220001CN0099001N1+00201+00001999999ADDMA1101191999999REMMET046METAR EDJA 051320Z 20007KT CAVOK 02/M00 Q1012;
0073109470999992008010513504+47983+010233FM-15+0629EDJA V0202101N00461220001CN0099001N1+00201+00001999999ADDMA1101191999999REMMET046METAR EDJA 051350Z 21009KT CAVOK 02/M00 Q1012;
0073109470999992008010514204+47983+010233FM-15+0629EDJA V0202001N00411220001CN0099001N1+00301+00001999999ADDMA1101191999999REMMET046METAR EDJA 051420Z 20008KT CAVOK 03/M00 Q1012;
0073109470999992008010514504+47983+010233FM-15+0629EDJA V0202001N00411220001CN0099001N1+00201+00001999999ADDMA1101191999999REMMET046METAR EDJA 051450Z 20008KT CAVOK 02/M00 Q1012;
0072109470999992008010515204+47983+010233FM-15+0629EDJA V0202201N00361220001CN0099001N1+00301+00001999999ADDMA1101191999999REMMET045METAR EDJA 051520Z 22007KT CAVOK 03/00 Q1012;
0072109470999992008010515504+47983+010233FM-15+0629EDJA V0202101N00311220001CN0099001N1+00301+00001999999ADDMA1101191999999REMMET045METAR EDJA 051550Z 21006KT CAVOK 03/00 Q1012;
0155109470999992008010516204+47983+010233FM-15+0629EDJA V0202201N003610150019N0112651N1+00301+00001999999ADDGA1041+010501999GA2071+015001999GF107991999999999999999999MA1101191999999MW1801REMMET064METAR EDJA 051620Z 22007KT 9999 -SHRA SCT035 BKN050 03/00 Q1012;
0132109470999992008010516504+47983+010233FM-15+0629EDJA V0202301N005110126019N0112651N1+00301+00101999999ADDGA1071+012601999GF107991999999999999999999MA1101191999999MW1801REMMET057METAR EDJA 051650Z 23010KT 9999 -SHRA BKN042 03/01 Q1012;
0155109470999992008010517204+47983+010233FM-15+0629EDJA V0202201N005110120019N0112651N1+00301+00101999999ADDGA1021+006301999GA2071+012001999GF107991999999999999999999MA1101291999999MW1801REMMET064METAR EDJA 051720Z 22010KT 9999 -SHRA FEW021 BKN040 03/01 Q1013;
0153109470999992008010517504+47983+010233FM-15+0629EDJA V0202001N007210120019N0112651N1+00201+00101999999ADDGA1021+007201999GA2071+012001999GF107991999999999999999999MA1101191999999MW1611REMMET062METAR EDJA 051750Z 20014KT 9999 -RA FEW024 BKN040 02/01 Q1012;
0130109470999992008010518204+47983+010233FM-15+0629EDJA V0201901N005110120019N0112651N1+00201+00101999999ADDGA1071+012001999GF107991999999999999999999MA1101191999999MW1611REMMET055METAR EDJA 051820Z 19010KT 9999 -RA BKN040 02/01 Q1012;
0130109470999992008010518504+47983+010233FM-15+0629EDJA V0201901N004110126019N0112651N1+00201+00101999999ADDGA1071+012601999GF107991999999999999999999MA1101081999999MW1611REMMET055METAR EDJA 051850Z 19008KT 9999 -RA BKN042 02/01 Q1011;
0132109470999992008010519204+47983+010233FM-15+0629EDJA V0202301N004112200019N0112651N1+00201+00101999999ADDGA1041+010501999GF104991999999999999999999MA1101081999999MW1801REMMET057METAR EDJA 051920Z 23008KT 9999 -SHRA SCT035 02/01 Q1011;
0128109470999992008010519504+47983+010233FM-15+0629EDJA V0201301N002112200019N0080001N1+00101+00101999999ADDGA1041+012001999GF104991999999999999999999MA1101081999999REMMET059METAR EDJA 051950Z 13004KT 090V160 8000 SCT040 01/01 Q1011;
0164109470999992008010520204+47983+010233FM-15+0629EDJA V0209999V001510117019N0050001N1+00201+00101999999ADDGA1041+003601999GA2071+011701999GF107991999999999999999999MA1101081999999MW1101MW2801REMMET067METAR EDJA 052020Z VRB03KT 5000 -SHRA BR SCT012 BKN039 02/01 Q1011;
0149109470999992008010520504+47983+010233FM-15+0629EDJA V0202201N002110030019N0048001N1+00101+00101999999ADDGA1071+003001999GF107991999999999999999999MA1101081999999MW1101MW2801REMMET068METAR EDJA 052050Z 22004KT 180V270 4800 -SHRA BR BKN010 01/01 Q1011;
0161109470999992008010604504+47983+010233FM-15+0629EDJA V0201901N004610066019N0080001N1+00001+00001999999ADDGA1021+001501999GA2071+006601999GF107991999999999999999999MA1100811999999MW1611MW2711REMMET064METAR EDJA 060450Z 19009KT 8000 -RASN FEW005 BKN022 00/00 Q1008;
0130109470999992008010605204+47983+010233FM-15+0629EDJA V0201901N006210075019N0080001N1+00101+00101999999ADDGA1071+007501999GF107991999999999999999999MA1100811999999MW1611REMMET055METAR EDJA 060520Z 19012KT 8000 -RA BKN025 01/01 Q1008;
0130109470999992008010605504+47983+010233FM-15+0629EDJA V0202001N005710048019N0112651N1+00101+00101999999ADDGA1071+004801999GF107991999999999999999999MA1100811999999MW1611REMMET055METAR EDJA 060550Z 20011KT 9999 -RA BKN016 01/01 Q1008;
0130109470999992008010606204+47983+010233FM-15+0629EDJA V0202101N005710042019N0112651N1+00201+00101999999ADDGA1071+004201999GF107991999999999999999999MA1100811999999MW1611REMMET055METAR EDJA 060620Z 21011KT 9999 -RA BKN014 02/01 Q1008;
0130109470999992008010606504+47983+010233FM-15+0629EDJA V0202201N005710039019N0112651N1+00201+00101999999ADDGA1071+003901999GF107991999999999999999999MA1100911999999MW1511REMMET055METAR EDJA 060650Z 22011KT 9999 -DZ BKN013 02/01 Q1009;
0130109470999992008010607204+47983+010233FM-15+0629EDJA V0202201N005710069019N0112651N1+00201+00201999999ADDGA1071+006901999GF107991999999999999999999MA1100911999999MW1611REMMET055METAR EDJA 060720Z 22011KT 9999 -RA BKN023 02/02 Q1009;
0155109470999992008010607504+47983+010233FM-15+0629EDJA V0202201N006210069019N0112651N1+00201+00201999999ADDGA1041+004201999GA2071+006901999GF107991999999999999999999MA1101021999999MW1801REMMET064METAR EDJA 060750Z 22012KT 9999 -SHRA SCT014 BKN023 02/02 Q1010;
0132109470999992008010608204+47983+010233FM-15+0629EDJA V0202201N005710060019N0112651N1+00201+00201999999ADDGA1071+006001999GF107991999999999999999999MA1101021999999MW1801REMMET057METAR EDJA 060820Z 22011KT 9999 -SHRA BKN020 02/02 Q1010;
0132109470999992008010608504+47983+010233FM-15+0629EDJA V0202301N005710021019N0112651N1+00301+00301999999ADDGA1071+002101999GF107991999999999999999999MA1101081999999MW1801REMMET057METAR EDJA 060850Z 23011KT 9999 -SHRA BKN007 03/03 Q1011;
0120109470999992008010609204+47983+010233FM-15+0629EDJA V0202301N006210012019N0080001N1+00301+00301999999ADDGA1071+001201999GF107991999999999999999999MA1101081999999REMMET051METAR EDJA 060920Z 23012KT 8000 BKN004 03/03 Q1011;
0130109470999992008010609504+47983+010233FM-15+0629EDJA V0202301N006710015019N0060001N1+00301+00301999999ADDGA1071+001501999GF107991999999999999999999MA1101191999999MW1611REMMET055METAR EDJA 060950Z 23013KT 6000 -RA BKN005 03/03 Q1012;
0155109470999992008010610204+47983+010233FM-15+0629EDJA V0202301N005710057019N0090001N1+00301+00301999999ADDGA1041+001801999GA2071+005701999GF107991999999999999999999MA1101191999999MW1801REMMET064METAR EDJA 061020Z 23011KT 9000 -SHRA SCT006 BKN019 03/03 Q1012;
0143109470999992008010610504+47983+010233FM-15+0629EDJA V0202501N005110096019N0112651N1+00401+00301999999ADDGA1041+002401999GA2071+009601999GF107991999999999999999999MA1101191999999REMMET058METAR EDJA 061050Z 25010KT 9999 SCT008 BKN032 04/03 Q1012;
0155109470999992008010611204+47983+010233FM-15+0629EDJA V0202601N005110087019N0112651N1+00401+00301999999ADDGA1021+003001999GA2071+008701999GF107991999999999999999999MA1101291999999MW1801REMMET064METAR EDJA 061120Z 26010KT 9999 -SHRA FEW010 BKN029 04/03 Q1013;
0153109470999992008010611504+47983+010233FM-15+0629EDJA V0202501N005710054019N0112651N1+00401+00301999999ADDGA1021+003001999GA2071+005401999GF107991999999999999999999MA1101391999999MW1611REMMET062METAR EDJA 061150Z 25011KT 9999 -RA FEW010 BKN018 04/03 Q1014;
0120109470999992008010612204+47983+010233FM-15+0629EDJA V0202401N005112200019N0112651N1+00401+00301999999ADDGA1041+005401999GF104991999999999999999999MA1101391999999REMMET051METAR EDJA 061220Z 24010KT 9999 SCT018 04/03 Q1014;
0143109470999992008010612504+47983+010233FM-15+0629EDJA V0202501N004112200019N0112651N1+00501+00301999999ADDGA1021+003301999GA2041+015001999GF104991999999999999999999MA1101391999999REMMET058METAR EDJA 061250Z 25008KT 9999 FEW011 SCT053 05/03 Q1014;
0151109470999992008010613204+47983+010233FM-15+0629EDJA V0202801N006212200019N0112651N1+00401+00201999999ADDGA1021+003901999GA2041+015001999GF104991999999999999999999MA1101491999999REMMET066METAR EDJA 061320Z 28012KT 250V310 9999 FEW013 SCT055 04/02 Q1015;
0120109470999992008010613504+47983+010233FM-15+0629EDJA V0202801N006712200019N0112651N1+00401+00201999999ADDGA1041+006601999GF104991999999999999999999MA1101491999999REMMET051METAR EDJA 061350Z 28013KT 9999 SCT022 04/02 Q1015;
0120109470999992008010614204+47983+010233FM-15+0629EDJA V0202501N003612200019N0112651N1+00301+00101999999ADDGA1041+009001999GF104991999999999999999999MA1101591999999REMMET051METAR EDJA 061420Z 25007KT 9999 SCT030 03/01 Q1016;
0120109470999992008010614504+47983+010233FM-15+0629EDJA V0202401N003112200019N0112651N1+00401+00201999999ADDGA1041+006001999GF104991999999999999999999MA1101591999999REMMET051METAR EDJA 061450Z 24006KT 9999 SCT020 04/02 Q1016;
0120109470999992008010615204+47983+010233FM-15+0629EDJA V0202301N003112200019N0112651N1+00301+00201999999ADDGA1041+006901999GF104991999999999999999999MA1101691999999REMMET051METAR EDJA 061520Z 23006KT 9999 SCT023 03/02 Q1017;
0120109470999992008010615504+47983+010233FM-15+0629EDJA V0202001N003110090019N0112651N1+00201+00101999999ADDGA1071+009001999GF107991999999999999999999MA1101691999999REMMET051METAR EDJA 061550Z 20006KT 9999 BKN030 02/01 Q1017;
0120109470999992008010616204+47983+010233FM-15+0629EDJA V0202001N004110084019N0112651N1+00201+00101999999ADDGA1071+008401999GF107991999999999999999999MA1101801999999REMMET051METAR EDJA 061620Z 20008KT 9999 BKN028 02/01 Q1018;
0161109470999992008010616504+47983+010233FM-15+0629EDJA V0202401N002610075019N0112651N1+00201+00101999999ADDGA1041+003001999GA2071+007501999GF107991999999999999999999MA1101801999999MW1891REMMET070METAR EDJA 061650Z 24005KT 210V320 9999 -GR SCT010 BKN025 02/01 Q1018;
0120109470999992008010617204+47983+010233FM-15+0629EDJA V0202401N002610060019N0112651N1+00201+00201999999ADDGA1071+006001999GF107991999999999999999999MA1101801999999REMMET051METAR EDJA 061720Z 24005KT 9999 BKN020 02/02 Q1018;
0120109470999992008010617504+47983+010233FM-15+0629EDJA V0202101N003112200019N0112651N1+00101+00101999999ADDGA1041+010501999GF104991999999999999999999MA1101801999999REMMET051METAR EDJA 061750Z 21006KT 9999 SCT035 01/01 Q1018;
0120109470999992008010618204+47983+010233FM-15+0629EDJA V0202101N003610147019N0112651N1+00101+00101999999ADDGA1071+014701999GF107991999999999999999999MA1101901999999REMMET051METAR EDJA 061820Z 21007KT 9999 BKN049 01/01 Q1019;
0072109470999992008010618504+47983+010233FM-15+0629EDJA V0202001N00411220001CN0099001N1+00101+00101999999ADDMA1101901999999REMMET045METAR EDJA 061850Z 20008KT CAVOK 01/01 Q1019;
0072109470999992008010619204+47983+010233FM-15+0629EDJA V0201901N00361220001CN0099001N1+00101+00101999999ADDMA1101901999999REMMET045METAR EDJA 061920Z 19007KT CAVOK 01/01 Q1019;
0120109470999992008010619504+47983+010233FM-15+0629EDJA V0201801N002610144019N0090001N1+00101+00101999999ADDGA1071+014401999GF107991999999999999999999MA1101901999999REMMET051METAR EDJA 061950Z 18005KT 9000 BKN048 01/01 Q1019;
0120109470999992008010620204+47983+010233FM-15+0629EDJA V0209999V000510120019N0070001N1+00101+00101999999ADDGA1071+012001999GF107991999999999999999999MA1101801999999REMMET051METAR EDJA 062020Z VRB01KT 7000 BKN040 01/01 Q1018;
0120109470999992008010620504+47983+010233FM-15+0629EDJA V0201601N001510120019N0080001N1+00101+00101999999ADDGA1071+012001999GF107991999999999999999999MA1101801999999REMMET051METAR EDJA 062050Z 16003KT 8000 BKN040 01/01 Q1018;
0120109470999992008010704504+47983+010233FM-15+0629EDJA V0202101N005110084019N0112651N1+00201+00101999999ADDGA1071+008401999GF107991999999999999999999MA1101391999999REMMET051METAR EDJA 070450Z 21010KT 9999 BKN028 02/01 Q1014;
0072109470999992008010705204+47983+010233FM-15+0629EDJA V0202001N00361220001CN0099001N1+00201+00101999999ADDMA1101291999999REMMET045METAR EDJA 070520Z 20007KT CAVOK 02/01 Q1013;
0130109470999992008010705504+47983+010233FM-15+0629EDJA V0202301N003110111019N0112651N1+00201+00101999999ADDGA1071+011101999GF107991999999999999999999MA1101291999999MW1611REMMET055METAR EDJA 070550Z 23006KT 9999 -RA BKN037 02/01 Q1013;
0129109470999992008010706204+47983+010233FM-15+0629EDJA V0202201N004610069019N0112651N1+00301+00201999999ADDGA1071+006901999GF107991999999999999999999MA1101291999999MW1631REMMET054METAR EDJA 070620Z 22009KT 9999 RA BKN023 03/02 Q1013;
0152109470999992008010706504+47983+010233FM-15+0629EDJA V0202101N005110090019N0112651N1+00301+00201999999ADDGA1041+004501999GA2071+009001999GF107991999999999999999999MA1101291999999MW1631REMMET061METAR EDJA 070650Z 21010KT 9999 RA SCT015 BKN030 03/02 Q1013;
0129109470999992008010707504+47983+010233FM-15+0629EDJA V0202201N007210069019N0080001N1+00401+00301999999ADDGA1071+006901999GF107991999999999999999999MA1101291999999MW1631REMMET054METAR EDJA 070750Z 22014KT 8000 RA BKN023 04/03 Q1013;
0134109470999992008010708504+47983+010233FM-15+0629EDJA V0202201N007210042019N0112651N1+00401+00401999999ADDGA1071+004201999GF107991999999999999999999MA1101391999999MW1631REMMET059METAR EDJA 070850Z 22014KT 9999 RA BKN014 04/04 Q1014 RERA;
0158109470999992008010709204+47983+010233FM-15+0629EDJA V0202201N009310042019N0112651N1+00601+00501999999ADDGA1041+001801999GA2071+004201999GF107991999999999999999999MA1101391999999MW1611REMMET067METAR EDJA 070920Z 22018KT 9999 -RA SCT006 BKN014 06/05 Q1014 RERA;
0120109470999992008010709504+47983+010233FM-15+0629EDJA V0202201N008710030019N0112651N1+00601+00501999999ADDGA1071+003001999GF107991999999999999999999MA1101391999999REMMET051METAR EDJA 070950Z 22017KT 9999 BKN010 06/05 Q1014;
0154109470999992008010710204+47983+010233FM-15+0629EDJA V0202101N008210042019N0080001N1+00601+00501999999ADDGA1041+002101999GA2071+004201999GF107991999999999999999999MA1101391999999MW1811REMMET063METAR EDJA 071020Z 21016KT 8000 SHRA SCT007 BKN014 06/05 Q1014;
0155109470999992008010710504+47983+010233FM-15+0629EDJA V0202301N009810027019N0112651N1+00601+00501999999ADDGA1071+002701999GA2071+010501999GF107991999999999999999999MA1101491999999MW1801REMMET064METAR EDJA 071050Z 23019KT 9999 -SHRA BKN009 BKN035 06/05 Q1015;
0155109470999992008010711204+47983+010233FM-15+0629EDJA V0202201N006710033019N0112651N1+00601+00501999999ADDGA1071+003301999GA2071+007501999GF107991999999999999999999MA1101491999999MW1801REMMET064METAR EDJA 071120Z 22013KT 9999 -SHRA BKN011 BKN025 06/05 Q1015;
0155109470999992008010711504+47983+010233FM-15+0629EDJA V0202601N007710099019N0112651N1+00701+00501999999ADDGA1041+002101999GA2071+009901999GF107991999999999999999999MA1101591999999MW1801REMMET064METAR EDJA 071150Z 26015KT 9999 -SHRA SCT007 BKN033 07/05 Q1016;
0143109470999992008010712204+47983+010233FM-15+0629EDJA V0202601N005710144019N0112651N1+00701+00501999999ADDGA1021+003001999GA2071+014401999GF107991999999999999999999MA1101591999999REMMET058METAR EDJA 071220Z 26011KT 9999 FEW010 BKN048 07/05 Q1016;
0143109470999992008010712504+47983+010233FM-15+0629EDJA V0202401N005710123019N0112651N1+00601+00501999999ADDGA1041+003901999GA2071+012301999GF107991999999999999999999MA1101691999999REMMET058METAR EDJA 071250Z 24011KT 9999 SCT013 BKN041 06/05 Q1017;
0143109470999992008010713204+47983+010233FM-15+0629EDJA V0202301N007712200019N0112651N1+00701+00501999999ADDGA1041+004501999GA2041+008401999GF104991999999999999999999MA1101691999999REMMET058METAR EDJA 071320Z 23015KT 9999 SCT015 SCT028 07/05 Q1017;
0143109470999992008010713504+47983+010233FM-15+0629EDJA V0202301N010312200019N0112651N1+00701+00501999999ADDGA1041+006001999GA2041+013501999GF104991999999999999999999MA1101691999999REMMET058METAR EDJA 071350Z 23020KT 9999 SCT020 SCT045 07/05 Q1017;
0120109470999992008010714204+47983+010233FM-15+0629EDJA V0202501N010312200019N0112651N1+00701+00401999999ADDGA1041+007501999GF104991999999999999999999MA1101801999999REMMET051METAR EDJA 071420Z 25020KT 9999 SCT025 07/04 Q1018;
0120109470999992008010714504+47983+010233FM-15+0629EDJA V0202501N009312200019N0112651N1+00701+00201999999ADDGA1021+009001999GF102991999999999999999999MA1101901999999REMMET051METAR EDJA 071450Z 25018KT 9999 FEW030 07/02 Q1019;
0120109470999992008010715204+47983+010233FM-15+0629EDJA V0202301N007212200019N0112651N1+00501+00201999999ADDGA1021+007501999GF102991999999999999999999MA1101901999999REMMET051METAR EDJA 071520Z 23014KT 9999 FEW025 05/02 Q1019;
0120109470999992008010715504+47983+010233FM-15+0629EDJA V0202201N005712200019N0112651N1+00401+00201999999ADDGA1041+021001999GF104991999999999999999999MA1102001999999REMMET051METAR EDJA 071550Z 22011KT 9999 SCT076 04/02 Q1020;
0120109470999992008010716204+47983+010233FM-15+0629EDJA V0202301N007712200019N0112651N1+00501+00201999999ADDGA1041+013501999GF104991999999999999999999MA1102101999999REMMET051METAR EDJA 071620Z 23015KT 9999 SCT045 05/02 Q1021;
0120109470999992008010716504+47983+010233FM-15+0629EDJA V0202401N006712200019N0112651N1+00401+00201999999ADDGA1041+009001999GF104991999999999999999999MA1102101999999REMMET051METAR EDJA 071650Z 24013KT 9999 SCT030 04/02 Q1021;
0120109470999992008010717204+47983+010233FM-15+0629EDJA V0202301N005112200019N0112651N1+00301+00101999999ADDGA1041+009001999GF104991999999999999999999MA1102201999999REMMET051METAR EDJA 071720Z 23010KT 9999 SCT030 03/01 Q1022;
0072109470999992008010717504+47983+010233FM-15+0629EDJA V0202201N00571220001CN0099001N1+00301+00101999999ADDMA1102201999999REMMET045METAR EDJA 071750Z 22011KT CAVOK 03/01 Q1022;
0072109470999992008010718204+47983+010233FM-15+0629EDJA V0202201N00671220001CN0099001N1+00301+00101999999ADDMA1102201999999REMMET045METAR EDJA 071820Z 22013KT CAVOK 03/01 Q1022;
0072109470999992008010718504+47983+010233FM-15+0629EDJA V0202301N00721220001CN0099001N1+00301+00101999999ADDMA1102201999999REMMET045METAR EDJA 071850Z 23014KT CAVOK 03/01 Q1022;
0072109470999992008010719204+47983+010233FM-15+0629EDJA V0202301N00821220001CN0099001N1+00301+00101999999ADDMA1102201999999REMMET045METAR EDJA 071920Z 23016KT CAVOK 03/01 Q1022;
0072109470999992008010719504+47983+010233FM-15+0629EDJA V0202301N00771220001CN0099001N1+00301+00101999999ADDMA1102201999999REMMET045METAR EDJA 071950Z 23015KT CAVOK 03/01 Q1022;
0072109470999992008010720204+47983+010233FM-15+0629EDJA V0202201N00721220001CN0099001N1+00301+00101999999ADDMA1102301999999REMMET045METAR EDJA 072020Z 22014KT CAVOK 03/01 Q1023;
0072109470999992008010720504+47983+010233FM-15+0629EDJA V0202201N00621220001CN0099001N1+00301+00101999999ADDMA1102201999999REMMET045METAR EDJA 072050Z 22012KT CAVOK 03/01 Q1022;
0073109470999992008010804504+47983+010233FM-15+0629EDJA V0202401N00621220001CN0099001N1+00201+00001999999ADDMA1102511999999REMMET046METAR EDJA 080450Z 24012KT CAVOK 02/M00 Q1025;
0073109470999992008010805204+47983+010233FM-15+0629EDJA V0202201N00671220001CN0099001N1+00201+00001999999ADDMA1102511999999REMMET046METAR EDJA 080520Z 22013KT CAVOK 02/M00 Q1025;
0073109470999992008010805504+47983+010233FM-15+0629EDJA V0202001N00621220001CN0099001N1+00101+00001999999ADDMA1102511999999REMMET046METAR EDJA 080550Z 20012KT CAVOK 01/M00 Q1025;
0073109470999992008010806204+47983+010233FM-15+0629EDJA V0201901N00621220001CN0099001N1+00101-00101999999ADDMA1102511999999REMMET046METAR EDJA 080620Z 19012KT CAVOK 01/M01 Q1025;
0073109470999992008010806504+47983+010233FM-15+0629EDJA V0202001N00571220001CN0099001N1+00101-00101999999ADDMA1102511999999REMMET046METAR EDJA 080650Z 20011KT CAVOK 01/M01 Q1025;
0073109470999992008010807204+47983+010233FM-15+0629EDJA V0201901N00461220001CN0099001N1+00001-00101999999ADDMA1102511999999REMMET046METAR EDJA 080720Z 19009KT CAVOK 00/M01 Q1025;
0073109470999992008010807504+47983+010233FM-15+0629EDJA V0202001N00461220001CN0099001N1+00101-00101999999ADDMA1102511999999REMMET046METAR EDJA 080750Z 20009KT CAVOK 01/M01 Q1025;
0073109470999992008010808204+47983+010233FM-15+0629EDJA V0202001N00361220001CN0099001N1+00101+00001999999ADDMA1102511999999REMMET046METAR EDJA 080820Z 20007KT CAVOK 01/M00 Q1025;
0073109470999992008010808504+47983+010233FM-15+0629EDJA V0202001N00311220001CN0099001N1+00201+00001999999ADDMA1102511999999REMMET046METAR EDJA 080850Z 20006KT CAVOK 02/M00 Q1025;
0072109470999992008010809204+47983+010233FM-15+0629EDJA V0202001N00311220001CN0099001N1+00201+00001999999ADDMA1102511999999REMMET045METAR EDJA 080920Z 20006KT CAVOK 02/00 Q1025;
0072109470999992008010809504+47983+010233FM-15+0629EDJA V0202001N00211220001CN0099001N1+00301+00101999999ADDMA1102511999999REMMET045METAR EDJA 080950Z 20004KT CAVOK 03/01 Q1025;
0072109470999992008010810204+47983+010233FM-15+0629EDJA V0202201N00101220001CN0099001N1+00401+00101999999ADDMA1102511999999REMMET045METAR EDJA 081020Z 22002KT CAVOK 04/01 Q1025;
0072109470999992008010810504+47983+010233FM-15+0629EDJA V0202101N00311220001CN0099001N1+00401+00101999999ADDMA1102401999999REMMET045METAR EDJA 081050Z 21006KT CAVOK 04/01 Q1024;
0072109470999992008010811204+47983+010233FM-15+0629EDJA V0202001N00261220001CN0099001N1+00501+00101999999ADDMA1102401999999REMMET045METAR EDJA 081120Z 20005KT CAVOK 05/01 Q1024;
0072109470999992008010811504+47983+010233FM-15+0629EDJA V0201901N00261220001CN0099001N1+00501+00101999999ADDMA1102401999999REMMET045METAR EDJA 081150Z 19005KT CAVOK 05/01 Q1024;
0072109470999992008010812204+47983+010233FM-15+0629EDJA V0201901N00261220001CN0099001N1+00501+00101999999ADDMA1102301999999REMMET045METAR EDJA 081220Z 19005KT CAVOK 05/01 Q1023;
0072109470999992008010812504+47983+010233FM-15+0629EDJA V0202001N00261220001CN0099001N1+00601+00101999999ADDMA1102301999999REMMET045METAR EDJA 081250Z 20005KT CAVOK 06/01 Q1023;
0072109470999992008010813204+47983+010233FM-15+0629EDJA V0202201N00151220001CN0099001N1+00601+00101999999ADDMA1102301999999REMMET045METAR EDJA 081320Z 22003KT CAVOK 06/01 Q1023;
0072109470999992008010813504+47983+010233FM-15+0629EDJA V0209999V00101220001CN0099001N1+00601+00001999999ADDMA1102201999999REMMET045METAR EDJA 081350Z VRB02KT CAVOK 06/00 Q1022;
0072109470999992008010814204+47983+010233FM-15+0629EDJA V0202401N00051220001CN0099001N1+00601+00101999999ADDMA1102201999999REMMET045METAR EDJA 081420Z 24001KT CAVOK 06/01 Q1022;
0072109470999992008010814504+47983+010233FM-15+0629EDJA V0209999V00101220001CN0099001N1+00501+00101999999ADDMA1102201999999REMMET045METAR EDJA 081450Z VRB02KT CAVOK 05/01 Q1022;
0072109470999992008010815204+47983+010233FM-15+0629EDJA V0203201N00051220001CN0099001N1+00501+00001999999ADDMA1102201999999REMMET045METAR EDJA 081520Z 32001KT CAVOK 05/00 Q1022;
0073109470999992008010815504+47983+010233FM-15+0629EDJA V0209999C00001220001CN0099001N1+00301+00001999999ADDMA1102201999999REMMET046METAR EDJA 081550Z 00000KT CAVOK 03/M00 Q1022;
0073109470999992008010816204+47983+010233FM-15+0629EDJA V0201101N00101220001CN0099001N1+00101+00001999999ADDMA1102201999999REMMET046METAR EDJA 081620Z 11002KT CAVOK 01/M00 Q1022;
0073109470999992008010816504+47983+010233FM-15+0629EDJA V0201301N00101220001CN0099001N1+00001-00101999999ADDMA1102201999999REMMET046METAR EDJA 081650Z 13002KT CAVOK 00/M01 Q1022;
0073109470999992008010817204+47983+010233FM-15+0629EDJA V0201501N00101220001CN0099001N1+00001-00101999999ADDMA1102201999999REMMET046METAR EDJA 081720Z 15002KT CAVOK 00/M01 Q1022;
0074109470999992008010817504+47983+010233FM-15+0629EDJA V0201501N00211220001CN0099001N1+00001-00201999999ADDMA1102201999999REMMET047METAR EDJA 081750Z 15004KT CAVOK M00/M02 Q1022;
0074109470999992008010818204+47983+010233FM-15+0629EDJA V0209999V00051220001CN0099001N1-00101-00201999999ADDMA1102101999999REMMET047METAR EDJA 081820Z VRB01KT CAVOK M01/M02 Q1021;
0074109470999992008010818504+47983+010233FM-15+0629EDJA V0200501N00101220001CN0099001N1-00101-00201999999ADDMA1102101999999REMMET047METAR EDJA 081850Z 05002KT CAVOK M01/M02 Q1021;
0074109470999992008010819204+47983+010233FM-15+0629EDJA V0201401N00101220001CN0099001N1-00101-00201999999ADDMA1102101999999REMMET047METAR EDJA 081920Z 14002KT CAVOK M01/M02 Q1021;
0074109470999992008010819504+47983+010233FM-15+0629EDJA V0201301N00101220001CN0099001N1-00101-00201999999ADDMA1102001999999REMMET047METAR EDJA 081950Z 13002KT CAVOK M01/M02 Q1020;
0074109470999992008010820204+47983+010233FM-15+0629EDJA V0209999V00051220001CN0099001N1-00201-00201999999ADDMA1102001999999REMMET047METAR EDJA 082020Z VRB01KT CAVOK M02/M02 Q1020;
0074109470999992008010820504+47983+010233FM-15+0629EDJA V0200301N00101220001CN0099001N1-00201-00201999999ADDMA1102001999999REMMET047METAR EDJA 082050Z 03002KT CAVOK M02/M02 Q1020;
0073109470999992008010904504+47983+010233FM-15+0629EDJA V0202101N00621220001CN0099001N1+00001-00301999999ADDMA1101801999999REMMET046METAR EDJA 090450Z 21012KT CAVOK 00/M03 Q1018;
0073109470999992008010905204+47983+010233FM-15+0629EDJA V0202201N00461220001CN0099001N1+00001-00201999999ADDMA1101901999999REMMET046METAR EDJA 090520Z 22009KT CAVOK 00/M02 Q1019;
0073109470999992008010905504+47983+010233FM-15+0629EDJA V0202101N00511220001CN0099001N1+00101-00301999999ADDMA1101801999999REMMET046METAR EDJA 090550Z 21010KT CAVOK 01/M03 Q1018;
0073109470999992008010906204+47983+010233FM-15+0629EDJA V0202101N00411220001CN0099001N1+00101-00301999999ADDMA1101801999999REMMET046METAR EDJA 090620Z 21008KT CAVOK 01/M03 Q1018;
0073109470999992008010906504+47983+010233FM-15+0629EDJA V0202101N00461220001CN0099001N1+00101-00301999999ADDMA1101801999999REMMET046METAR EDJA 090650Z 21009KT CAVOK 01/M03 Q1018;
0073109470999992008010907204+47983+010233FM-15+0629EDJA V0202101N00461220001CN0099001N1+00201-00301999999ADDMA1101801999999REMMET046METAR EDJA 090720Z 21009KT CAVOK 02/M03 Q1018;
0073109470999992008010907504+47983+010233FM-15+0629EDJA V0202101N00461220001CN0099001N1+00101-00201999999ADDMA1101801999999REMMET046METAR EDJA 090750Z 21009KT CAVOK 01/M02 Q1018;
0073109470999992008010908204+47983+010233FM-15+0629EDJA V0202101N00461220001CN0099001N1+00201-00201999999ADDMA1101901999999REMMET046METAR EDJA 090820Z 21009KT CAVOK 02/M02 Q1019;
0144109470999992008010908504+47983+010233FM-15+0629EDJA V0202201N004610135019N0112651N1+00201-00201999999ADDGA1021+006301999GA2071+013501999GF107991999999999999999999MA1101901999999REMMET059METAR EDJA 090850Z 22009KT 9999 FEW021 BKN045 02/M02 Q1019;
0179109470999992008010909204+47983+010233FM-15+0629EDJA V0202201N00511009001CN0112651N1+00301-00101999999ADDGA1021+006301999GA2041+009001999GA3071+013501999GF107991999999999999999999MA1101901999999MW1801REMMET072METAR EDJA 090920Z 22010KT 9999 -SHRA FEW021 SCT030 BKN045 03/M01 Q1019;
0121109470999992008010909504+47983+010233FM-15+0629EDJA V0202101N006212200019N0112651N1+00401-00101999999ADDGA1041+012001999GF104991999999999999999999MA1101901999999REMMET052METAR EDJA 090950Z 21012KT 9999 SCT040 04/M01 Q1019;
0072109470999992008010910204+47983+010233FM-15+0629EDJA V0202101N00721220001CN0099001N1+00401+00001999999ADDMA1101901999999REMMET045METAR EDJA 091020Z 21014KT CAVOK 04/00 Q1019;
0072109470999992008010910504+47983+010233FM-15+0629EDJA V0202201N00671220001CN0099001N1+00401+00101999999ADDMA1101901999999REMMET045METAR EDJA 091050Z 22013KT CAVOK 04/01 Q1019;
0120109470999992008010911204+47983+010233FM-15+0629EDJA V0202301N004612200019N0112651N1+00401+00101999999ADDGA1041+012001999GF104991999999999999999999MA1101901999999REMMET051METAR EDJA 091120Z 23009KT 9999 SCT040 04/01 Q1019;
0120109470999992008010911504+47983+010233FM-15+0629EDJA V0202201N006212200019N0112651N1+00501+00101999999ADDGA1041+012001999GF104991999999999999999999MA1101901999999REMMET051METAR EDJA 091150Z 22012KT 9999 SCT040 05/01 Q1019;
0120109470999992008010912204+47983+010233FM-15+0629EDJA V0202201N006212200019N0112651N1+00501+00101999999ADDGA1041+009001999GF104991999999999999999999MA1101901999999REMMET051METAR EDJA 091220Z 22012KT 9999 SCT030 05/01 Q1019;
0120109470999992008010912504+47983+010233FM-15+0629EDJA V0202301N004612200019N0112651N1+00501+00101999999ADDGA1041+009001999GF104991999999999999999999MA1101901999999REMMET051METAR EDJA 091250Z 23009KT 9999 SCT030 05/01 Q1019;
0120109470999992008010913204+47983+010233FM-15+0629EDJA V0202301N004612200019N0112651N1+00501+00201999999ADDGA1041+009001999GF104991999999999999999999MA1101801999999REMMET051METAR EDJA 091320Z 23009KT 9999 SCT030 05/02 Q1018;
0120109470999992008010913504+47983+010233FM-15+0629EDJA V0202201N005112200019N0112651N1+00401+00201999999ADDGA1021+009001999GF102991999999999999999999MA1101801999999REMMET051METAR EDJA 091350Z 22010KT 9999 FEW030 04/02 Q1018;
0120109470999992008010914204+47983+010233FM-15+0629EDJA V0202301N005112200019N0112651N1+00401+00201999999ADDGA1021+010801999GF102991999999999999999999MA1101801999999REMMET051METAR EDJA 091420Z 23010KT 9999 FEW036 04/02 Q1018;
0120109470999992008010914504+47983+010233FM-15+0629EDJA V0202301N004610120019N0112651N1+00401+00201999999ADDGA1071+012001999GF107991999999999999999999MA1101801999999REMMET051METAR EDJA 091450Z 23009KT 9999 BKN040 04/02 Q1018;
0120109470999992008010915204+47983+010233FM-15+0629EDJA V0202201N005710099019N0112651N1+00401+00201999999ADDGA1071+009901999GF107991999999999999999999MA1101801999999REMMET051METAR EDJA 091520Z 22011KT 9999 BKN033 04/02 Q1018;
0120109470999992008010915504+47983+010233FM-15+0629EDJA V0202101N005110093019N0112651N1+00301+00201999999ADDGA1071+009301999GF107991999999999999999999MA1101801999999REMMET051METAR EDJA 091550Z 21010KT 9999 BKN031 03/02 Q1018;
0143109470999992008010916204+47983+010233FM-15+0629EDJA V0202301N003610129019N0112651N1+00301+00201999999ADDGA1041+009601999GA2071+012901999GF107991999999999999999999MA1101801999999REMMET058METAR EDJA 091620Z 23007KT 9999 SCT032 BKN043 03/02 Q1018;
0120109470999992008010916504+47983+010233FM-15+0629EDJA V0202001N004610135019N0112651N1+00201+00101999999ADDGA1071+013501999GF107991999999999999999999MA1101801999999REMMET051METAR EDJA 091650Z 20009KT 9999 BKN045 02/01 Q1018;
0120109470999992008010917204+47983+010233FM-15+0629EDJA V0202101N004610090019N0112651N1+00201+00101999999ADDGA1071+009001999GF107991999999999999999999MA1101901999999REMMET051METAR EDJA 091720Z 21009KT 9999 BKN030 02/01 Q1019;
0143109470999992008010917504+47983+010233FM-15+0629EDJA V0202201N006212200019N0112651N1+00401+00101999999ADDGA1041+010501999GA2041+015001999GF104991999999999999999999MA1101901999999REMMET058METAR EDJA 091750Z 22012KT 9999 SCT035 SCT053 04/01 Q1019;
0120109470999992008010918204+47983+010233FM-15+0629EDJA V0202301N005112200019N0112651N1+00401+00201999999ADDGA1041+010501999GF104991999999999999999999MA1101901999999REMMET051METAR EDJA 091820Z 23010KT 9999 SCT035 04/02 Q1019;
0129109470999992008010918504+47983+010233FM-15+0629EDJA V0202301N008212200019N0112651N1+00401+00201999999ADDGA1041+007501999GF104991999999999999999999MA1101901999999MW1531REMMET054METAR EDJA 091850Z 23016KT 9999 DZ SCT025 04/02 Q1019;
0130109470999992008010919204+47983+010233FM-15+0629EDJA V0202101N007210075019N0112651N1+00401+00201999999ADDGA1071+007501999GF107991999999999999999999MA1102001999999MW1611REMMET055METAR EDJA 091920Z 21014KT 9999 -RA BKN025 04/02 Q1020;
0125109470999992008010919504+47983+010233FM-15+0629EDJA V0202101N007210096019N0112651N1+00401+00301999999ADDGA1071+009601999GF107991999999999999999999MA1102001999999REMMET056METAR EDJA 091950Z 21014KT 9999 BKN032 04/03 Q1020 RERA;
0120109470999992008010920204+47983+010233FM-15+0629EDJA V0202101N005710087019N0112651N1+00401+00201999999ADDGA1071+008701999GF107991999999999999999999MA1102001999999REMMET051METAR EDJA 092020Z 21011KT 9999 BKN029 04/02 Q1020;
0073109470999992008011004504+47983+010233FM-15+0629EDJA V0202101N00461220001CN0099001N1+00201+00001999999ADDMA1102001999999REMMET046METAR EDJA 100450Z 21009KT CAVOK 02/M00 Q1020;
0072109470999992008011005204+47983+010233FM-15+0629EDJA V0202101N00511220001CN0099001N1+00201+00001999999ADDMA1102001999999REMMET045METAR EDJA 100520Z 21010KT CAVOK 02/00 Q1020;
0073109470999992008011005504+47983+010233FM-15+0629EDJA V0202001N00461220001CN0099001N1+00201+00001999999ADDMA1102001999999REMMET046METAR EDJA 100550Z 20009KT CAVOK 02/M00 Q1020;
0073109470999992008011006204+47983+010233FM-15+0629EDJA V0201901N00461220001CN0099001N1+00101+00001999999ADDMA1102001999999REMMET046METAR EDJA 100620Z 19009KT CAVOK 01/M00 Q1020;
0121109470999992008011006504+47983+010233FM-15+0629EDJA V0202001N004612200019N0112651N1+00101+00001999999ADDGA1021+009001999GF102991999999999999999999MA1102001999999REMMET052METAR EDJA 100650Z 20009KT 9999 FEW030 01/M00 Q1020;
0144109470999992008011007204+47983+010233FM-15+0629EDJA V0201901N004612200019N0112651N1+00101+00001999999ADDGA1021+009301999GA2041+014401999GF104991999999999999999999MA1102001999999REMMET059METAR EDJA 100720Z 19009KT 9999 FEW031 SCT048 01/M00 Q1020;
0121109470999992008011007504+47983+010233FM-15+0629EDJA V0202001N004612200019N0112651N1+00101+00001999999ADDGA1021+014401999GF102991999999999999999999MA1102001999999REMMET052METAR EDJA 100750Z 20009KT 9999 FEW048 01/M00 Q1020;
0072109470999992008011008204+47983+010233FM-15+0629EDJA V0202001N00511220001CN0099001N1+00201+00001999999ADDMA1102001999999REMMET045METAR EDJA 100820Z 20010KT CAVOK 02/00 Q1020;
0120109470999992008011008504+47983+010233FM-15+0629EDJA V0201901N004612200019N0112651N1+00301+00101999999ADDGA1021+012601999GF102991999999999999999999MA1102101999999REMMET051METAR EDJA 100850Z 19009KT 9999 FEW042 03/01 Q1021;
0072109470999992008011009204+47983+010233FM-15+0629EDJA V0201901N00461220001CN0099001N1+00501+00101999999ADDMA1102101999999REMMET045METAR EDJA 100920Z 19009KT CAVOK 05/01 Q1021;
0072109470999992008011010204+47983+010233FM-15+0629EDJA V0202001N00461220001CN0099001N1+00601+00201999999ADDMA1102101999999REMMET045METAR EDJA 101020Z 20009KT CAVOK 06/02 Q1021;
0072109470999992008011010504+47983+010233FM-15+0629EDJA V0201901N00361220001CN0099001N1+00701+00301999999ADDMA1102001999999REMMET045METAR EDJA 101050Z 19007KT CAVOK 07/03 Q1020;
0072109470999992008011011204+47983+010233FM-15+0629EDJA V0201901N00361220001CN0099001N1+00801+00201999999ADDMA1102001999999REMMET045METAR EDJA 101120Z 19007KT CAVOK 08/02 Q1020;
0072109470999992008011011504+47983+010233FM-15+0629EDJA V0201901N00361220001CN0099001N1+00801+00301999999ADDMA1102001999999REMMET045METAR EDJA 101150Z 19007KT CAVOK 08/03 Q1020;
0072109470999992008011012204+47983+010233FM-15+0629EDJA V0202101N00361220001CN0099001N1+00801+00401999999ADDMA1101901999999REMMET045METAR EDJA 101220Z 21007KT CAVOK 08/04 Q1019;
0072109470999992008011012504+47983+010233FM-15+0629EDJA V0201701N00211220001CN0099001N1+00801+00401999999ADDMA1101901999999REMMET045METAR EDJA 101250Z 17004KT CAVOK 08/04 Q1019;
0072109470999992008011013204+47983+010233FM-15+0629EDJA V0201901N00311220001CN0099001N1+00701+00401999999ADDMA1101901999999REMMET045METAR EDJA 101320Z 19006KT CAVOK 07/04 Q1019;
0072109470999992008011013504+47983+010233FM-15+0629EDJA V0202101N00211220001CN0099001N1+00801+00401999999ADDMA1101901999999REMMET045METAR EDJA 101350Z 21004KT CAVOK 08/04 Q1019;
0072109470999992008011014204+47983+010233FM-15+0629EDJA V0202101N00261220001CN0099001N1+00701+00301999999ADDMA1101901999999REMMET045METAR EDJA 101420Z 21005KT CAVOK 07/03 Q1019;
0072109470999992008011014504+47983+010233FM-15+0629EDJA V0202101N00311220001CN0099001N1+00701+00301999999ADDMA1101901999999REMMET045METAR EDJA 101450Z 21006KT CAVOK 07/03 Q1019;
0072109470999992008011015204+47983+010233FM-15+0629EDJA V0201901N00311220001CN0099001N1+00501+00201999999ADDMA1101901999999REMMET045METAR EDJA 101520Z 19006KT CAVOK 05/02 Q1019;
0072109470999992008011015504+47983+010233FM-15+0629EDJA V0202101N00311220001CN0099001N1+00401+00101999999ADDMA1101901999999REMMET045METAR EDJA 101550Z 21006KT CAVOK 04/01 Q1019;
0072109470999992008011016204+47983+010233FM-15+0629EDJA V0202001N00311220001CN0099001N1+00301+00101999999ADDMA1101801999999REMMET045METAR EDJA 101620Z 20006KT CAVOK 03/01 Q1018;
0072109470999992008011016504+47983+010233FM-15+0629EDJA V0201501N00211220001CN0099001N1+00201+00101999999ADDMA1101801999999REMMET045METAR EDJA 101650Z 15004KT CAVOK 02/01 Q1018;
0073109470999992008011017504+47983+010233FM-15+0629EDJA V0201601N00151220001CN0099001N1+00101+00001999999ADDMA1101801999999REMMET046METAR EDJA 101750Z 16003KT CAVOK 01/M00 Q1018;
0072109470999992008011018204+47983+010233FM-15+0629EDJA V0201901N00211220001CN0099001N1+00201+00001999999ADDMA1101801999999REMMET045METAR EDJA 101820Z 19004KT CAVOK 02/00 Q1018;
0073109470999992008011018504+47983+010233FM-15+0629EDJA V0201801N00261220001CN0099001N1+00101+00001999999ADDMA1101801999999REMMET046METAR EDJA 101850Z 18005KT CAVOK 01/M00 Q1018;
0073109470999992008011019204+47983+010233FM-15+0629EDJA V0201901N00361220001CN0099001N1+00101+00001999999ADDMA1101801999999REMMET046METAR EDJA 101920Z 19007KT CAVOK 01/M00 Q1018;
0073109470999992008011019504+47983+010233FM-15+0629EDJA V0202001N00361220001CN0099001N1+00101+00001999999ADDMA1101801999999REMMET046METAR EDJA 101950Z 20007KT CAVOK 01/M00 Q1018;
0073109470999992008011020204+47983+010233FM-15+0629EDJA V0209999V00151220001CN0099001N1+00001-00101999999ADDMA1101801999999REMMET046METAR EDJA 102020Z VRB03KT CAVOK 00/M01 Q1018;
0073109470999992008011020504+47983+010233FM-15+0629EDJA V0201501N00261220001CN0099001N1+00101-00101999999ADDMA1101801999999REMMET046METAR EDJA 102050Z 15005KT CAVOK 01/M01 Q1018;
0074109470999992008011104504+47983+010233FM-15+0629EDJA V0201701N00151220001CN0099001N1-00101-00301999999ADDMA1101491999999REMMET047METAR EDJA 110450Z 17003KT CAVOK M01/M03 Q1015;
0074109470999992008011105204+47983+010233FM-15+0629EDJA V0209999V00151220001CN0099001N1-00201-00301999999ADDMA1101491999999REMMET047METAR EDJA 110520Z VRB03KT CAVOK M02/M03 Q1015;
0074109470999992008011105504+47983+010233FM-15+0629EDJA V0201701N00261220001CN0099001N1-00201-00301999999ADDMA1101391999999REMMET047METAR EDJA 110550Z 17005KT CAVOK M02/M03 Q1014;
0074109470999992008011106204+47983+010233FM-15+0629EDJA V0202201N00151220001CN0099001N1-00201-00301999999ADDMA1101391999999REMMET047METAR EDJA 110620Z 22003KT CAVOK M02/M03 Q1014;
0074109470999992008011106504+47983+010233FM-15+0629EDJA V0209999C00001220001CN0099001N1-00101-00301999999ADDMA1101391999999REMMET047METAR EDJA 110650Z 00000KT CAVOK M01/M03 Q1014;
0074109470999992008011107204+47983+010233FM-15+0629EDJA V0201801N00101220001CN0099001N1-00201-00301999999ADDMA1101391999999REMMET047METAR EDJA 110720Z 18002KT CAVOK M02/M03 Q1014;
0074109470999992008011107504+47983+010233FM-15+0629EDJA V0201901N00151220001CN0099001N1-00101-00201999999ADDMA1101291999999REMMET047METAR EDJA 110750Z 19003KT CAVOK M01/M02 Q1013;
0074109470999992008011108204+47983+010233FM-15+0629EDJA V0209999V00101220001CN0099001N1+00001-00201999999ADDMA1101291999999REMMET047METAR EDJA 110820Z VRB02KT CAVOK M00/M02 Q1013;
0073109470999992008011108504+47983+010233FM-15+0629EDJA V0209999V00051220001CN0099001N1+00201-00201999999ADDMA1101291999999REMMET046METAR EDJA 110850Z VRB01KT CAVOK 02/M02 Q1013;
0073109470999992008011109204+47983+010233FM-15+0629EDJA V0209999C00001220001CN0099001N1+00401+00001999999ADDMA1101291999999REMMET046METAR EDJA 110920Z 00000KT CAVOK 04/M00 Q1013;
0072109470999992008011109504+47983+010233FM-15+0629EDJA V0209999C00001220001CN0099001N1+00401+00101999999ADDMA1101191999999REMMET045METAR EDJA 110950Z 00000KT CAVOK 04/01 Q1012;
0072109470999992008011110204+47983+010233FM-15+0629EDJA V0209999C00001220001CN0099001N1+00501+00101999999ADDMA1101081999999REMMET045METAR EDJA 111020Z 00000KT CAVOK 05/01 Q1011;
0072109470999992008011110504+47983+010233FM-15+0629EDJA V0203001N00151220001CN0099001N1+00501+00001999999ADDMA1101081999999REMMET045METAR EDJA 111050Z 30003KT CAVOK 05/00 Q1011;
0072109470999992008011111504+47983+010233FM-15+0629EDJA V0209999V00051220001CN0099001N1+00701+00201999999ADDMA1100911999999REMMET045METAR EDJA 111150Z VRB01KT CAVOK 07/02 Q1009;
0072109470999992008011112204+47983+010233FM-15+0629EDJA V0200101N00151220001CN0099001N1+00801+00201999999ADDMA1100911999999REMMET045METAR EDJA 111220Z 01003KT CAVOK 08/02 Q1009;
0072109470999992008011112504+47983+010233FM-15+0629EDJA V0209999V00101220001CN0099001N1+00901+00301999999ADDMA1100811999999REMMET045METAR EDJA 111250Z VRB02KT CAVOK 09/03 Q1008;
0072109470999992008011113204+47983+010233FM-15+0629EDJA V0209999V00101220001CN0099001N1+00701+00301999999ADDMA1100711999999REMMET045METAR EDJA 111320Z VRB02KT CAVOK 07/03 Q1007;
0072109470999992008011114204+47983+010233FM-15+0629EDJA V0200301N00261220001CN0099001N1+00701+00201999999ADDMA1100711999999REMMET045METAR EDJA 111420Z 03005KT CAVOK 07/02 Q1007;
0072109470999992008011115204+47983+010233FM-15+0629EDJA V0203101N00151220001CN0099001N1+00601+00201999999ADDMA1100611999999REMMET045METAR EDJA 111520Z 31003KT CAVOK 06/02 Q1006;
0072109470999992008011115504+47983+010233FM-15+0629EDJA V0209999V00101220001CN0099001N1+00501+00201999999ADDMA1100611999999REMMET045METAR EDJA 111550Z VRB02KT CAVOK 05/02 Q1006;
0072109470999992008011116204+47983+010233FM-15+0629EDJA V0209999V00101220001CN0099001N1+00401+00101999999ADDMA1100511999999REMMET045METAR EDJA 111620Z VRB02KT CAVOK 04/01 Q1005;
0072109470999992008011116504+47983+010233FM-15+0629EDJA V0209999V00051220001CN0099001N1+00401+00101999999ADDMA1100511999999REMMET045METAR EDJA 111650Z VRB01KT CAVOK 04/01 Q1005;
0072109470999992008011117204+47983+010233FM-15+0629EDJA V0209999V00051220001CN0099001N1+00201+00101999999ADDMA1100511999999REMMET045METAR EDJA 111720Z VRB01KT CAVOK 02/01 Q1005;
0073109470999992008011118204+47983+010233FM-15+0629EDJA V0209999V00101220001CN0099001N1+00101+00001999999ADDMA1100511999999REMMET046METAR EDJA 111820Z VRB02KT CAVOK 01/M00 Q1005;
0073109470999992008011118504+47983+010233FM-15+0629EDJA V0209999V00101220001CN0099001N1+00001-00101999999ADDMA1100411999999REMMET046METAR EDJA 111850Z VRB02KT CAVOK 00/M01 Q1004;
0074109470999992008011119204+47983+010233FM-15+0629EDJA V0209999V00101220001CN0099001N1+00001-00101999999ADDMA1100411999999REMMET047METAR EDJA 111920Z VRB02KT CAVOK M00/M01 Q1004;
0074109470999992008011119504+47983+010233FM-15+0629EDJA V0209999V00101220001CN0099001N1+00001-00101999999ADDMA1100311999999REMMET047METAR EDJA 111950Z VRB02KT CAVOK M00/M01 Q1003;
0073109470999992008011120204+47983+010233FM-15+0629EDJA V0200501N00211220001CN0099001N1+00001-00101999999ADDMA1100311999999REMMET046METAR EDJA 112020Z 05004KT CAVOK 00/M01 Q1003;
0073109470999992008011120504+47983+010233FM-15+0629EDJA V0209999V00101220001CN0099001N1+00001-00101999999ADDMA1100311999999REMMET046METAR EDJA 112050Z VRB02KT CAVOK 00/M01 Q1003;
0072109470999992008011204504+47983+010233FM-15+0629EDJA V0202101N00621220001CN0099001N1+00301+00001999999ADDMA1100411999999REMMET045METAR EDJA 120450Z 21012KT CAVOK 03/00 Q1004;
0072109470999992008011205204+47983+010233FM-15+0629EDJA V0202101N00671220001CN0099001N1+00301+00101999999ADDMA1100511999999REMMET045METAR EDJA 120520Z 21013KT CAVOK 03/01 Q1005;
0072109470999992008011205504+47983+010233FM-15+0629EDJA V0202101N00721220001CN0099001N1+00201+00101999999ADDMA1100511999999REMMET045METAR EDJA 120550Z 21014KT CAVOK 02/01 Q1005;
0120109470999992008011206204+47983+010233FM-15+0629EDJA V0202301N007712200019N0112651N1+00301+00101999999ADDGA1041+006901999GF104991999999999999999999MA1100611999999REMMET051METAR EDJA 120620Z 23015KT 9999 SCT023 03/01 Q1006;
0120109470999992008011206504+47983+010233FM-15+0629EDJA V0202301N008710102019N0112651N1+00301+00001999999ADDGA1071+010201999GF107991999999999999999999MA1100611999999REMMET051METAR EDJA 120650Z 23017KT 9999 BKN034 03/00 Q1006;
0120109470999992008011207204+47983+010233FM-15+0629EDJA V0202301N008210126019N0112651N1+00201+00001999999ADDGA1071+012601999GF107991999999999999999999MA1100711999999REMMET051METAR EDJA 120720Z 23016KT 9999 BKN042 02/00 Q1007;
0130109470999992008011207504+47983+010233FM-15+0629EDJA V0202301N007710138019N0112651N1+00201+00101999999ADDGA1071+013801999GF107991999999999999999999MA1100711999999MW1511REMMET055METAR EDJA 120750Z 23015KT 9999 -DZ BKN046 02/01 Q1007;
0129109470999992008011208204+47983+010233FM-15+0629EDJA V0202301N008210150019N0112651N1+00201+00101999999ADDGA1071+015001999GF107991999999999999999999MA1100811999999MW1531REMMET054METAR EDJA 120820Z 23016KT 9999 DZ BKN055 02/01 Q1008;
0143109470999992008011208504+47983+010233FM-15+0629EDJA V0202201N007210117019N0112651N1+00201+00101999999ADDGA1021+002701999GA2071+011701999GF107991999999999999999999MA1100811999999REMMET058METAR EDJA 120850Z 22014KT 9999 FEW009 BKN039 02/01 Q1008;
0178109470999992008011209204+47983+010233FM-15+0629EDJA V0202301N00721006601CN0112651N1+00201+00101999999ADDGA1021+002401999GA2041+006601999GA3071+013501999GF107991999999999999999999MA1100911999999MW1801REMMET071METAR EDJA 120920Z 23014KT 9999 -SHRA FEW008 SCT022 BKN045 02/01 Q1009;
0178109470999992008011209504+47983+010233FM-15+0629EDJA V0202201N00571006001CN0112651N1+00201+00101999999ADDGA1041+001801999GA2041+006001999GA3071+013501999GF107991999999999999999999MA1100911999999MW1801REMMET071METAR EDJA 120950Z 22011KT 9999 -SHRA SCT006 SCT020 BKN045 02/01 Q1009;
0176109470999992008011210204+47983+010233FM-15+0629EDJA V0202201N00571006601CN0112651N1+00201+00101999999ADDGA1041+001801999GA2041+006601999GA3071+011401999GF107991999999999999999999MA1101021999999MW1611REMMET069METAR EDJA 121020Z 22011KT 9999 -RA SCT006 SCT022 BKN038 02/01 Q1010;
0153109470999992008011210504+47983+010233FM-15+0629EDJA V0202301N005710126019N0112651N1+00201+00101999999ADDGA1041+001801999GA2071+012601999GF107991999999999999999999MA1101021999999MW1511REMMET062METAR EDJA 121050Z 23011KT 9999 -DZ SCT006 BKN042 02/01 Q1010;
0143109470999992008011211204+47983+010233FM-15+0629EDJA V0202301N006210084019N0112651N1+00201+00101999999ADDGA1041+001801999GA2071+008401999GF107991999999999999999999MA1101021999999REMMET058METAR EDJA 121120Z 23012KT 9999 SCT006 BKN028 02/01 Q1010;
0143109470999992008011211504+47983+010233FM-15+0629EDJA V0202301N006710090019N0112651N1+00201+00101999999ADDGA1041+001801999GA2071+009001999GF107991999999999999999999MA1101021999999REMMET058METAR EDJA 121150Z 23013KT 9999 SCT006 BKN030 02/01 Q1010;
0143109470999992008011212204+47983+010233FM-15+0629EDJA V0202301N006210084019N0112651N1+00201+00101999999ADDGA1041+002101999GA2071+008401999GF107991999999999999999999MA1101021999999REMMET058METAR EDJA 121220Z 23012KT 9999 SCT007 BKN028 02/01 Q1010;
0143109470999992008011212504+47983+010233FM-15+0629EDJA V0202301N005710114019N0112651N1+00201+00101999999ADDGA1041+002101999GA2071+011401999GF107991999999999999999999MA1101021999999REMMET058METAR EDJA 121250Z 23011KT 9999 SCT007 BKN038 02/01 Q1010;
0166109470999992008011213204+47983+010233FM-15+0629EDJA V0202301N00571012001CN0112651N1+00201+00101999999ADDGA1041+002401999GA2041+012001999GA3071+027001999GF107991999999999999999999MA1101081999999REMMET065METAR EDJA 121320Z 23011KT 9999 SCT008 SCT040 BKN090 02/01 Q1011;
0143109470999992008011213504+47983+010233FM-15+0629EDJA V0202201N005710270019N0112651N1+00201+00101999999ADDGA1041+002401999GA2071+027001999GF107991999999999999999999MA1101081999999REMMET058METAR EDJA 121350Z 22011KT 9999 SCT008 BKN090 02/01 Q1011;
0153109470999992008011214504+47983+010233FM-15+0629EDJA V0202301N005712200019N0112651N1+00101+00101999999ADDGA1041+002701999GA2041+012001999GF104991999999999999999999MA1101291999999MW1611REMMET062METAR EDJA 121450Z 23011KT 9999 -RA SCT009 SCT040 01/01 Q1013;
0130109470999992008011215204+47983+010233FM-15+0629EDJA V0202301N005110030019N0112651N1+00101+00101999999ADDGA1071+003001999GF107991999999999999999999MA1101291999999MW1611REMMET055METAR EDJA 121520Z 23010KT 9999 -RA BKN010 01/01 Q1013;
0153109470999992008011216504+47983+010233FM-15+0629EDJA V0202101N005110075019N0112651N1+00101+00101999999ADDGA1041+002101999GA2071+007501999GF107991999999999999999999MA1101491999999MW1611REMMET062METAR EDJA 121650Z 21010KT 9999 -RA SCT007 BKN025 01/01 Q1015;
0153109470999992008011217204+47983+010233FM-15+0629EDJA V0202101N004612200019N0112651N1+00101+00001999999ADDGA1041+002401999GA2041+009301999GF104991999999999999999999MA1101491999999MW1611REMMET062METAR EDJA 121720Z 21009KT 9999 -RA SCT008 SCT031 01/00 Q1015;
0143109470999992008011217504+47983+010233FM-15+0629EDJA V0202101N004112200019N0112651N1+00101+00001999999ADDGA1041+002701999GA2041+009001999GF104991999999999999999999MA1101491999999REMMET058METAR EDJA 121750Z 21008KT 9999 SCT009 SCT030 01/00 Q1015;
0143109470999992008011218204+47983+010233FM-15+0629EDJA V0202101N004112200019N0112651N1+00101+00001999999ADDGA1041+002401999GA2041+013501999GF104991999999999999999999MA1101591999999REMMET058METAR EDJA 121820Z 21008KT 9999 SCT008 SCT045 01/00 Q1016;
0143109470999992008011218504+47983+010233FM-15+0629EDJA V0202201N003610132019N0112651N1+00101+00001999999ADDGA1041+001801999GA2071+013201999GF107991999999999999999999MA1101591999999REMMET058METAR EDJA 121850Z 22007KT 9999 SCT006 BKN044 01/00 Q1016;
0143109470999992008011219204+47983+010233FM-15+0629EDJA V0202201N004110090019N0112651N1+00101+00001999999ADDGA1041+001801999GA2071+009001999GF107991999999999999999999MA1101691999999REMMET058METAR EDJA 121920Z 22008KT 9999 SCT006 BKN030 01/00 Q1017;
0120109470999992008011219504+47983+010233FM-15+0629EDJA V0202201N004110021019N0112651N1+00101+00001999999ADDGA1071+002101999GF107991999999999999999999MA1101691999999REMMET051METAR EDJA 121950Z 22008KT 9999 BKN007 01/00 Q1017;
0120109470999992008011220504+47983+010233FM-15+0629EDJA V0202101N004110024019N0080001N1+00101+00101999999ADDGA1071+002401999GF107991999999999999999999MA1101801999999REMMET051METAR EDJA 122050Z 21008KT 8000 BKN008 01/01 Q1018;
0147109470999992008011304204+47983+010233FM-15+0629EDJA V0209999C00001000151CN0006001N1-00101-00101999999ADDGA1091+000151999GF109991999999000251999999MA1101801999999MW1491REMMET072METAR EDJA 130420Z 00000KT 0600 R24/0550V0750D FZFG VV/// M01/M01 Q1018;
0132109470999992008011304504+47983+010233FM-15+0629EDJA V0209999V00151000151CN0015001N1-00101-00101999999ADDGA1091+000151999GF109991999999000251999999MA1101801999999MW1491REMMET057METAR EDJA 130450Z VRB03KT 1500 FZFG VV/// M01/M01 Q1018;
0132109470999992008011305204+47983+010233FM-15+0629EDJA V0200201N00211000151CN0017001N1-00101-00101999999ADDGA1091+000151999GF109991999999000251999999MA1101901999999MW1491REMMET057METAR EDJA 130520Z 02004KT 1700 FZFG VV/// M01/M01 Q1019;
0151109470999992008011305504+47983+010233FM-15+0629EDJA V0200201N00211000151CN0004501N1+00001+00001999999ADDED199U05509GA1091+000151999GF109991999999000251999999MA1101901999999MW1451REMMET065METAR EDJA 130550Z 02004KT 0450 R24/0550N FG VV/// M00/M00 Q1019;
0146109470999992008011306204+47983+010233FM-15+0629EDJA V0200501N00211000151CN0011001N1+00001+00001999999ADDGA1091+000151999GF109991999999000251999999MA1101901999999MW1451REMMET071METAR EDJA 130620Z 05004KT 1100 R24/1100VP1500N FG VV/// M00/M00 Q1019;
0130109470999992008011306504+47983+010233FM-15+0629EDJA V0200601N001510006019N0020001N1+00001+99999999999ADDGA1071+000601999GF107991999999999999999999MA1101901999999MW1101REMMET055METAR EDJA 130650Z 06003KT 2000 BR BKN002 M00/// Q1019;
0130109470999992008011307204+47983+010233FM-15+0629EDJA V0200401N002110006019N0026001N1+00001+99999999999ADDGA1071+000601999GF107991999999999999999999MA1101901999999MW1101REMMET055METAR EDJA 130720Z 04004KT 2600 BR BKN002 M00/// Q1019;
0150109470999992008011308204+47983+010233FM-15+0629EDJA V0200301N00311000151CN0003501N1+00001+99999999999ADDED199U03509GA1091+000151999GF109991999999000251999999MA1101901999999MW1451REMMET064METAR EDJA 130820Z 03006KT 0350 R06/0350N FG VV/// M00/// Q1019;
0150109470999992008011308504+47983+010233FM-15+0629EDJA V0200201N003110009019N0004501N1+00001+99999999999ADDED199U06509GA1071+000901999GF107991999999999999999999MA1101801999999MW1441REMMET064METAR EDJA 130850Z 02006KT 0450 R06/0650U FG BKN003 00/// Q1018;
0129109470999992008011309504+47983+010233FM-15+0629EDJA V0200601N003610012019N0028001N1+00101+00101999999ADDGA1071+001201999GF107991999999999999999999MA1101801999999MW1101REMMET054METAR EDJA 130950Z 06007KT 2800 BR BKN004 01/01 Q1018;
0129109470999992008011310204+47983+010233FM-15+0629EDJA V0200601N003610012019N0032001N1+00101+00101999999ADDGA1071+001201999GF107991999999999999999999MA1101801999999MW1101REMMET054METAR EDJA 131020Z 06007KT 3200 BR BKN004 01/01 Q1018;
0129109470999992008011310504+47983+010233FM-15+0629EDJA V0200501N003110027019N0040001N1+00101+00101999999ADDGA1071+002701999GF107991999999999999999999MA1101691999999MW1101REMMET054METAR EDJA 131050Z 05006KT 4000 BR BKN009 01/01 Q1017;
0120109470999992008011311204+47983+010233FM-15+0629EDJA V0200501N003610042019N0060001N1+00101+00101999999ADDGA1071+004201999GF107991999999999999999999MA1101691999999REMMET051METAR EDJA 131120Z 05007KT 6000 BKN014 01/01 Q1017;
0120109470999992008011311504+47983+010233FM-15+0629EDJA V0200501N003610051019N0070001N1+00201+00101999999ADDGA1071+005101999GF107991999999999999999999MA1101591999999REMMET051METAR EDJA 131150Z 05007KT 7000 BKN017 02/01 Q1016;
0143109470999992008011312204+47983+010233FM-15+0629EDJA V0200601N004610051019N0090001N1+00201+00101999999ADDGA1041+002701999GA2071+005101999GF107991999999999999999999MA1101591999999REMMET058METAR EDJA 131220Z 06009KT 9000 SCT009 BKN017 02/01 Q1016;
0143109470999992008011312504+47983+010233FM-15+0629EDJA V0200601N005112200019N0090001N1+00201+00101999999ADDGA1041+002401999GA2041+006901999GF104991999999999999999999MA1101491999999REMMET058METAR EDJA 131250Z 06010KT 9000 SCT008 SCT023 02/01 Q1015;
0143109470999992008011313204+47983+010233FM-15+0629EDJA V0200601N005112200019N0080001N1+00201+00101999999ADDGA1041+003001999GA2041+006301999GF104991999999999999999999MA1101491999999REMMET058METAR EDJA 131320Z 06010KT 8000 SCT010 SCT021 02/01 Q1015;
0143109470999992008011313504+47983+010233FM-15+0629EDJA V0200701N003612200019N0070001N1+00201+00101999999ADDGA1041+003001999GA2041+006601999GF104991999999999999999999MA1101491999999REMMET058METAR EDJA 131350Z 07007KT 7000 SCT010 SCT022 02/01 Q1015;
0120109470999992008011314204+47983+010233FM-15+0629EDJA V0200701N003610030019N0070001N1+00201+00101999999ADDGA1071+003001999GF107991999999999999999999MA1101491999999REMMET051METAR EDJA 131420Z 07007KT 7000 BKN010 02/01 Q1015;
0120109470999992008011314504+47983+010233FM-15+0629EDJA V0200701N003110030019N0060001N1+00201+00101999999ADDGA1071+003001999GF107991999999999999999999MA1101491999999REMMET051METAR EDJA 131450Z 07006KT 6000 BKN010 02/01 Q1015;
0120109470999992008011315204+47983+010233FM-15+0629EDJA V0200701N003110030019N0070001N1+00201+00101999999ADDGA1071+003001999GF107991999999999999999999MA1101491999999REMMET051METAR EDJA 131520Z 07006KT 7000 BKN010 02/01 Q1015;
0120109470999992008011315504+47983+010233FM-15+0629EDJA V0200801N003110024019N0060001N1+00101+00101999999ADDGA1071+002401999GF107991999999999999999999MA1101491999999REMMET051METAR EDJA 131550Z 08006KT 6000 BKN008 01/01 Q1015;
0129109470999992008011316504+47983+010233FM-15+0629EDJA V0200701N003610015019N0050001N1+00101+00001999999ADDGA1071+001501999GF107991999999999999999999MA1101491999999MW1101REMMET054METAR EDJA 131650Z 07007KT 5000 BR BKN005 01/00 Q1015;
0129109470999992008011317204+47983+010233FM-15+0629EDJA V0200801N003110009019N0038001N1+00101+00001999999ADDGA1071+000901999GF107991999999999999999999MA1101491999999MW1101REMMET054METAR EDJA 131720Z 08006KT 3800 BR BKN003 01/00 Q1015;
0129109470999992008011317504+47983+010233FM-15+0629EDJA V0200801N002610009019N0038001N1+00001+00001999999ADDGA1071+000901999GF107991999999999999999999MA1101491999999MW1101REMMET054METAR EDJA 131750Z 08005KT 3800 BR BKN003 00/00 Q1015;
0129109470999992008011318204+47983+010233FM-15+0629EDJA V0201101N003610012019N0049001N1+00001+00001999999ADDGA1071+001201999GF107991999999999999999999MA1101391999999MW1101REMMET054METAR EDJA 131820Z 11007KT 4900 BR BKN004 00/00 Q1014;
0129109470999992008011318504+47983+010233FM-15+0629EDJA V0201001N003110012019N0050001N1+00101+00001999999ADDGA1071+001201999GF107991999999999999999999MA1101391999999MW1101REMMET054METAR EDJA 131850Z 10006KT 5000 BR BKN004 01/00 Q1014;
0129109470999992008011319204+47983+010233FM-15+0629EDJA V0200901N002610015019N0050001N1+00101+00001999999ADDGA1071+001501999GF107991999999999999999999MA1101391999999MW1101REMMET054METAR EDJA 131920Z 09005KT 5000 BR BKN005 01/00 Q1014;
0121109470999992008011319504+47983+010233FM-15+0629EDJA V0200901N001512200019N0060001N1+00001+00001999999ADDGA1041+001501999GF104991999999999999999999MA1101391999999REMMET052METAR EDJA 131950Z 09003KT 6000 SCT005 00/M00 Q1014;
0131109470999992008011320204+47983+010233FM-15+0629EDJA V0200801N001012200019N0050001N1+00001-00101999999ADDGA1021+001801999GF102991999999999999999999MA1101391999999MW1101REMMET056METAR EDJA 132020Z 08002KT 5000 BR FEW006 M00/M01 Q1014;
0135109470999992008011320504+47983+010233FM-15+0629EDJA V0200901N001012200019N0050001N1+00001-00101999999ADDGF100991999999999999999999MA1101301999999MW1101REMMET057METAR EDJA 132050Z 09002KT 5000 BR NSC SKC M00/M01 Q1013;EQDQ01    003SCCGA1
0153109470999992008011404504+47983+010233FM-15+0629EDJA V0209999V00051000151CN0005001N1-00401-00401999999ADDED199U05509GA1091+000151999GF109991999999000251999999MA1101191999999MW1491REMMET067METAR EDJA 140450Z VRB01KT 0500 R24/0550N FZFG VV/// M04/M04 Q1012;
0153109470999992008011405204+47983+010233FM-15+0629EDJA V0209999V00051000151CN0004501N1-00401-00501999999ADDED199U06509GA1091+000151999GF109991999999000251999999MA1101191999999MW1491REMMET067METAR EDJA 140520Z VRB01KT 0450 R24/0650U FZFG VV/// M04/M05 Q1012;
0132109470999992008011405504+47983+010233FM-15+0629EDJA V0209999C00001000151CN0018001N1-00401-00501999999ADDGA1091+000151999GF109991999999000251999999MA1101191999999MW1491REMMET057METAR EDJA 140550Z 00000KT 1800 FZFG VV/// M04/M05 Q1012;
0122109470999992008011406204+47983+010233FM-15+0629EDJA V0202701N002612200019N0060001N1-00401-00401999999ADDGF100991999999999999999999MA1101191999999REMMET050METAR EDJA 140620Z 27005KT 6000 NSC M04/M04 Q1012;EQDQ01    003SCCGA1
0151109470999992008011406504+47983+010233FM-15+0629EDJA V0202601N003110006019N0016001N1-00401-00401999999ADDGA1071+000601999GF107991999999999999999999MA1101291999999MW1101MW2561REMMET070METAR EDJA 140650Z 26006KT 210V280 1600 -FZDZ BR BKN002 M04/M04 Q1013;
0143109470999992008011407204+47983+010233FM-15+0629EDJA V0202401N002610006019N0025001N1-00301-00301999999ADDGA1071+000601999GF107991999999999999999999MA1101291999999MW1101MW2561REMMET062METAR EDJA 140720Z 24005KT 2500 -FZDZ BR BKN002 M03/M03 Q1013;
0131109470999992008011407504+47983+010233FM-15+0629EDJA V0202201N003610009019N0044001N1-00301-00301999999ADDGA1071+000901999GF107991999999999999999999MA1101291999999MW1101REMMET056METAR EDJA 140750Z 22007KT 4400 BR BKN003 M03/M03 Q1013;
0131109470999992008011408204+47983+010233FM-15+0629EDJA V0202501N004610009019N0020001N1-00301-00301999999ADDGA1071+000901999GF107991999999999999999999MA1101291999999MW1101REMMET056METAR EDJA 140820Z 25009KT 2000 BR BKN003 M03/M03 Q1013;
0154109470999992008011408504+47983+010233FM-15+0629EDJA V0202301N00361000151CN0007501N1-00201-00201999999ADDED199U11009GA1091+000151999GF109991999999000251999999MA1101391999999MW1491REMMET068METAR EDJA 140850Z 23007KT 0750 R24/1100U -FZFG VV/// M02/M02 Q1014;
0152109470999992008011409204+47983+010233FM-15+0629EDJA V0202301N00411000151CN0012001N1-00201-00201999999ADDED199U15009GA1091+000151999GF109991999999000251999999MA1101391999999MW1101REMMET066METAR EDJA 140920Z 23008KT 1200 R24/P1500U BR VV/// M02/M02 Q1014;
0130109470999992008011409504+47983+010233FM-15+0629EDJA V0202201N00511000151CN0025001N1-00101-00101999999ADDGA1091+000151999GF109991999999000251999999MA1101391999999MW1101REMMET055METAR EDJA 140950Z 22010KT 2500 BR VV/// M01/M01 Q1014;
0131109470999992008011410204+47983+010233FM-15+0629EDJA V0202001N004110012019N0050001N1-00101-00101999999ADDGA1071+001201999GF107991999999999999999999MA1101391999999MW1101REMMET056METAR EDJA 141020Z 20008KT 5000 BR BKN004 M01/M01 Q1014;
0122109470999992008011410504+47983+010233FM-15+0629EDJA V0202201N003610012019N0060001N1+00001-00101999999ADDGA1071+001201999GF107991999999999999999999MA1101391999999REMMET053METAR EDJA 141050Z 22007KT 6000 BKN004 M00/M01 Q1014;
0121109470999992008011411204+47983+010233FM-15+0629EDJA V0202201N003112200019N0040001N1+00001+99999999999ADDGA1041+001501999GF104991999999999999999999MA1101391999999REMMET052METAR EDJA 141120Z 22006KT 4000 SCT005 M00/// Q1014;
0120109470999992008011411504+47983+010233FM-15+0629EDJA V0202201N002112200019N0080001N1+00001+00001999999ADDGF100991999999999999999999MA1101291999999REMMET048METAR EDJA 141150Z 22004KT 8000 NSC 00/00 Q1013;EQDQ01    003SCCGA1
0120109470999992008011412204+47983+010233FM-15+0629EDJA V0202001N001512200019N0090001N1+00101+00101999999ADDGF100991999999999999999999MA1101291999999REMMET048METAR EDJA 141220Z 20003KT 9000 NSC 01/01 Q1013;EQDQ01    003SCCGA1
0072109470999992008011412504+47983+010233FM-15+0629EDJA V0202401N00261220001CN0099001N1+00201+00201999999ADDMA1101291999999REMMET045METAR EDJA 141250Z 24005KT CAVOK 02/02 Q1013;
0072109470999992008011413204+47983+010233FM-15+0629EDJA V0202401N00211220001CN0099001N1+00101+00101999999ADDMA1101291999999REMMET045METAR EDJA 141320Z 24004KT CAVOK 01/01 Q1013;
0072109470999992008011413504+47983+010233FM-15+0629EDJA V0209999V00101220001CN0099001N1+00101+00101999999ADDMA1101291999999REMMET045METAR EDJA 141350Z VRB02KT CAVOK 01/01 Q1013;
0072109470999992008011414204+47983+010233FM-15+0629EDJA V0209999V00151220001CN0099001N1+00101+00101999999ADDMA1101291999999REMMET045METAR EDJA 141420Z VRB03KT CAVOK 01/01 Q1013;
0072109470999992008011414504+47983+010233FM-15+0629EDJA V0202001N00101220001CN0099001N1+00101+00101999999ADDMA1101291999999REMMET045METAR EDJA 141450Z 20002KT CAVOK 01/01 Q1013;
0072109470999992008011415204+47983+010233FM-15+0629EDJA V0201601N00211220001CN0099001N1+00101+00101999999ADDMA1101291999999REMMET045METAR EDJA 141520Z 16004KT CAVOK 01/01 Q1013;
0072109470999992008011415504+47983+010233FM-15+0629EDJA V0201801N00151220001CN0099001N1+00101+00101999999ADDMA1101291999999REMMET045METAR EDJA 141550Z 18003KT CAVOK 01/01 Q1013;
0072109470999992008011416204+47983+010233FM-15+0629EDJA V0202001N00211220001CN0099001N1+00101+00101999999ADDMA1101291999999REMMET045METAR EDJA 141620Z 20004KT CAVOK 01/01 Q1013;
0120109470999992008011416504+47983+010233FM-15+0629EDJA V0201801N002112200019N0090001N1+00101+00101999999ADDGF100991999999999999999999MA1101291999999REMMET048METAR EDJA 141650Z 18004KT 9000 NSC 01/01 Q1013;EQDQ01    003SCCGA1
0072109470999992008011417204+47983+010233FM-15+0629EDJA V0201901N00101220001CN0099001N1+00001+00001999999ADDMA1101291999999REMMET045METAR EDJA 141720Z 19002KT CAVOK 00/00 Q1013;
0072109470999992008011417504+47983+010233FM-15+0629EDJA V0202001N00101220001CN0099001N1+00001+00001999999ADDMA1101291999999REMMET045METAR EDJA 141750Z 20002KT CAVOK 00/00 Q1013;
0074109470999992008011418204+47983+010233FM-15+0629EDJA V0201801N00151220001CN0099001N1+00001+00001999999ADDMA1101291999999REMMET047METAR EDJA 141820Z 18003KT CAVOK M00/M00 Q1013;
0074109470999992008011418504+47983+010233FM-15+0629EDJA V0202101N00211220001CN0099001N1+00001+00001999999ADDMA1101291999999REMMET047METAR EDJA 141850Z 21004KT CAVOK M00/M00 Q1013;
0072109470999992008011419204+47983+010233FM-15+0629EDJA V0202201N00261220001CN0099001N1+00001+00001999999ADDMA1101291999999REMMET045METAR EDJA 141920Z 22005KT CAVOK 00/00 Q1013;
0074109470999992008011419504+47983+010233FM-15+0629EDJA V0201701N00211220001CN0099001N1+00001+00001999999ADDMA1101391999999REMMET047METAR EDJA 141950Z 17004KT CAVOK M00/M00 Q1014;
0166109470999992008011420204+47983+010233FM-15+0629EDJA V0201501N00261011701CN0112651N1+00001+00001999999ADDGA1021+007201999GA2041+011701999GA3071+015001999GF107991999999999999999999MA1101291999999REMMET065METAR EDJA 142020Z 15005KT 9999 FEW024 SCT039 BKN051 00/00 Q1013;
0072109470999992008011420504+47983+010233FM-15+0629EDJA V0202301N00211220001CN0099001N1+00101+00101999999ADDMA1101391999999REMMET045METAR EDJA 142050Z 23004KT CAVOK 01/01 Q1014;
0122109470999992008011504504+47983+010233FM-15+0629EDJA V0202401N004112200019N0080001N1+00001-00101999999ADDGF100991999999999999999999MA1101291999999REMMET050METAR EDJA 150450Z 24008KT 8000 NSC M00/M01 Q1013;EQDQ01    003SCCGA1
0122109470999992008011505204+47983+010233FM-15+0629EDJA V0202001N004112200019N0070001N1+00001-00101999999ADDGF100991999999999999999999MA1101291999999REMMET050METAR EDJA 150520Z 20008KT 7000 NSC M00/M01 Q1013;EQDQ01    003SCCGA1
0122109470999992008011505504+47983+010233FM-15+0629EDJA V0201901N004112200019N0080001N1+00001-00101999999ADDGF100991999999999999999999MA1101291999999REMMET050METAR EDJA 150550Z 19008KT 8000 NSC M00/M01 Q1013;EQDQ01    003SCCGA1
0074109470999992008011506204+47983+010233FM-15+0629EDJA V0201701N00361220001CN0099001N1+00001-00101999999ADDMA1101291999999REMMET047METAR EDJA 150620Z 17007KT CAVOK M00/M01 Q1013;
0074109470999992008011506504+47983+010233FM-15+0629EDJA V0202001N00361220001CN0099001N1+00001-00101999999ADDMA1101291999999REMMET047METAR EDJA 150650Z 20007KT CAVOK M00/M01 Q1013;
0074109470999992008011507204+47983+010233FM-15+0629EDJA V0202001N00461220001CN0099001N1-00101-00201999999ADDMA1101291999999REMMET047METAR EDJA 150720Z 20009KT CAVOK M01/M02 Q1013;
0074109470999992008011507504+47983+010233FM-15+0629EDJA V0201901N00461220001CN0099001N1-00101-00201999999ADDMA1101291999999REMMET047METAR EDJA 150750Z 19009KT CAVOK M01/M02 Q1013;
0073109470999992008011508204+47983+010233FM-15+0629EDJA V0202001N00461220001CN0099001N1+00001-00101999999ADDMA1101191999999REMMET046METAR EDJA 150820Z 20009KT CAVOK 00/M01 Q1012;
0073109470999992008011508504+47983+010233FM-15+0629EDJA V0201901N00261220001CN0099001N1+00101+00001999999ADDMA1101191999999REMMET046METAR EDJA 150850Z 19005KT CAVOK 01/M00 Q1012;
0073109470999992008011509204+47983+010233FM-15+0629EDJA V0209999V00101220001CN0099001N1+00201+00001999999ADDMA1101191999999REMMET046METAR EDJA 150920Z VRB02KT CAVOK 02/M00 Q1012;
0072109470999992008011509504+47983+010233FM-15+0629EDJA V0202001N00151220001CN0099001N1+00301+00001999999ADDMA1101191999999REMMET045METAR EDJA 150950Z 20003KT CAVOK 03/00 Q1012;
0072109470999992008011510204+47983+010233FM-15+0629EDJA V0202001N00211220001CN0099001N1+00401+00101999999ADDMA1101191999999REMMET045METAR EDJA 151020Z 20004KT CAVOK 04/01 Q1012;
0072109470999992008011510504+47983+010233FM-15+0629EDJA V0202101N00211220001CN0099001N1+00501+00101999999ADDMA1101081999999REMMET045METAR EDJA 151050Z 21004KT CAVOK 05/01 Q1011;
0072109470999992008011511204+47983+010233FM-15+0629EDJA V0202301N00211220001CN0099001N1+00501+00101999999ADDMA1101081999999REMMET045METAR EDJA 151120Z 23004KT CAVOK 05/01 Q1011;
0072109470999992008011511504+47983+010233FM-15+0629EDJA V0202101N00151220001CN0099001N1+00601+00201999999ADDMA1101021999999REMMET045METAR EDJA 151150Z 21003KT CAVOK 06/02 Q1010;
0072109470999992008011512204+47983+010233FM-15+0629EDJA V0209999V00101220001CN0099001N1+00601+00201999999ADDMA1100911999999REMMET045METAR EDJA 151220Z VRB02KT CAVOK 06/02 Q1009;
0072109470999992008011512504+47983+010233FM-15+0629EDJA V0209999V00051220001CN0099001N1+00701+00101999999ADDMA1100911999999REMMET045METAR EDJA 151250Z VRB01KT CAVOK 07/01 Q1009;
0072109470999992008011513204+47983+010233FM-15+0629EDJA V0209999V00051220001CN0099001N1+00801+00001999999ADDMA1100811999999REMMET045METAR EDJA 151320Z VRB01KT CAVOK 08/00 Q1008;
0072109470999992008011513504+47983+010233FM-15+0629EDJA V0203301N00051220001CN0099001N1+00801+00101999999ADDMA1100811999999REMMET045METAR EDJA 151350Z 33001KT CAVOK 08/01 Q1008;
0072109470999992008011514204+47983+010233FM-15+0629EDJA V0200201N00101220001CN0099001N1+00601+00101999999ADDMA1100711999999REMMET045METAR EDJA 151420Z 02002KT CAVOK 06/01 Q1007;
0072109470999992008011514504+47983+010233FM-15+0629EDJA V0200801N00151220001CN0099001N1+00401+00101999999ADDMA1100711999999REMMET045METAR EDJA 151450Z 08003KT CAVOK 04/01 Q1007;
0072109470999992008011515204+47983+010233FM-15+0629EDJA V0200901N00101220001CN0099001N1+00501+00101999999ADDMA1100711999999REMMET045METAR EDJA 151520Z 09002KT CAVOK 05/01 Q1007;
0072109470999992008011515504+47983+010233FM-15+0629EDJA V0200901N00051220001CN0099001N1+00401+00101999999ADDMA1100611999999REMMET045METAR EDJA 151550Z 09001KT CAVOK 04/01 Q1006;
0072109470999992008011516204+47983+010233FM-15+0629EDJA V0209999C00001220001CN0099001N1+00201+00001999999ADDMA1100611999999REMMET045METAR EDJA 151620Z 00000KT CAVOK 02/00 Q1006;
0073109470999992008011516504+47983+010233FM-15+0629EDJA V0201501N00151220001CN0099001N1+00101+00001999999ADDMA1100611999999REMMET046METAR EDJA 151650Z 15003KT CAVOK 01/M00 Q1006;
0072109470999992008011517204+47983+010233FM-15+0629EDJA V0201401N00261220001CN0099001N1+00101+00001999999ADDMA1100511999999REMMET045METAR EDJA 151720Z 14005KT CAVOK 01/00 Q1005;
0073109470999992008011518204+47983+010233FM-15+0629EDJA V0209999V00151220001CN0099001N1+00001+00001999999ADDMA1100511999999REMMET046METAR EDJA 151820Z VRB03KT CAVOK 00/M00 Q1005;
0073109470999992008011518504+47983+010233FM-15+0629EDJA V0201701N00151220001CN0099001N1+00001-00101999999ADDMA1100411999999REMMET046METAR EDJA 151850Z 17003KT CAVOK 00/M01 Q1004;
0073109470999992008011519504+47983+010233FM-15+0629EDJA V0201401N00261220001CN0099001N1+00001-00101999999ADDMA1100311999999REMMET046METAR EDJA 151950Z 14005KT CAVOK 00/M01 Q1003;
0073109470999992008011520204+47983+010233FM-15+0629EDJA V0201401N00261220001CN0099001N1+00101-00101999999ADDMA1100201999999REMMET046METAR EDJA 152020Z 14005KT CAVOK 01/M01 Q1002;
0073109470999992008011520504+47983+010233FM-15+0629EDJA V0209999V00051220001CN0099001N1+00001-00101999999ADDMA1100201999999REMMET046METAR EDJA 152050Z VRB01KT CAVOK 00/M01 Q1002;
0120109470999992008011604504+47983+010233FM-15+0629EDJA V0202101N004612200019N0112651N1+00201+00001999999ADDGA1041+012601999GF104991999999999999999999MA1100101999999REMMET051METAR EDJA 160450Z 21009KT 9999 SCT042 02/00 Q1001;
0120109470999992008011605204+47983+010233FM-15+0629EDJA V0202001N005712200019N0112651N1+00301+00101999999ADDGA1041+012601999GF104991999999999999999999MA1100101999999REMMET051METAR EDJA 160520Z 20011KT 9999 SCT042 03/01 Q1001;
0155109470999992008011605504+47983+010233FM-15+0629EDJA V0202401N003112200019N0112651N1+00301+00101999999ADDGA1021+006301999GA2041+009901999GF104991999999999999999999MA1100001999999MW1801REMMET064METAR EDJA 160550Z 24006KT 9999 -SHRA FEW021 SCT033 03/01 Q1000;
0128109470999992008011606204+47983+010233FM-15+0629EDJA V0201601N004112200019N0112651N1+00301+00101999999ADDGA1041+012601999GF104991999999999999999999MA1100001999999REMMET059METAR EDJA 160620Z 16008KT 120V190 9999 SCT042 03/01 Q1000;
0072109470999992008011606504+47983+010233FM-15+0629EDJA V0202001N00261220001CN0099001N1+00301+00101999999ADDMA1100001999999REMMET045METAR EDJA 160650Z 20005KT CAVOK 03/01 Q1000;
0166109470999992008011607204+47983+010233FM-15+0629EDJA V0202301N00361011701CN0112651N1+00301+00101999999ADDGA1021+009001999GA2041+011701999GA3071+015001999GF107991999999999999999999MA1100001999999REMMET065METAR EDJA 160720Z 23007KT 9999 FEW030 SCT039 BKN051 03/01 Q1000;
0166109470999992008011607504+47983+010233FM-15+0629EDJA V0209999V00051012601CN0112651N1+00201+00101999999ADDGA1021+009901999GA2041+012601999GA3071+015001999GF107991999999999999999999MA1100001999999REMMET065METAR EDJA 160750Z VRB01KT 9999 FEW033 SCT042 BKN051 02/01 Q1000;
0166109470999992008011608204+47983+010233FM-15+0629EDJA V0203001N00311012601CN0112651N1+00201+00101999999ADDGA1041+009901999GA2041+012601999GA3071+015001999GF107991999999999999999999MA1100101999999REMMET065METAR EDJA 160820Z 30006KT 9999 SCT033 SCT042 BKN054 02/01 Q1001;
0130109470999992008011608504+47983+010233FM-15+0629EDJA V0202601N002610063019N0112651N1+00301+00101999999ADDGA1071+006301999GF107991999999999999999999MA1100101999999MW1611REMMET055METAR EDJA 160850Z 26005KT 9999 -RA BKN021 03/01 Q1001;
0130109470999992008011609204+47983+010233FM-15+0629EDJA V0203001N004110090019N0112651N1+00301+00201999999ADDGA1071+009001999GF107991999999999999999999MA1100101999999MW1611REMMET055METAR EDJA 160920Z 30008KT 9999 -RA BKN030 03/02 Q1001;
