0074109470999992013010104204+47983+010233FM-15+0629EDJA V0201901N003119999999Y0099001N1-00201-00401999999ADDMA1101021999999REMMET047METAR EDJA 010420Z 19006KT CAVOK M02/M04 Q1010;
0074109470999992013010104504+47983+010233FM-15+0629EDJA V0202001N001519999999Y0099001N1-00201-00401999999ADDMA1101021999999REMMET047METAR EDJA 010450Z 20003KT CAVOK M02/M04 Q1010;
0082109470999992013010105204+47983+010233FM-15+0629EDJA V0201801N002119999999Y0099001N1-00101-00301999999ADDMA1101021999999REMMET055METAR EDJA 010520Z 18004KT 150V210 CAVOK M01/M03 Q1010;
0081109470999992013010105504+47983+010233FM-15+0629EDJA V0201801N002619999999Y0099001N1+00101-00301999999ADDMA1101021999999REMMET054METAR EDJA 010550Z 18005KT 140V220 CAVOK 01/M03 Q1010;
0081109470999992013010106204+47983+010233FM-15+0629EDJA V0201801N002619999999Y0099001N1+00101-00201999999ADDMA1101021999999REMMET054METAR EDJA 010620Z 18005KT 150V220 CAVOK 01/M02 Q1010;
0081109470999992013010106504+47983+010233FM-15+0629EDJA V0202001N003119999999Y0099001N1+00201-00301999999ADDMA1100911999999REMMET054METAR EDJA 010650Z 20006KT 160V250 CAVOK 02/M03 Q1009;
0081109470999992013010107204+47983+010233FM-15+0629EDJA V0202101N003619999999Y0099001N1+00201-00301999999ADDMA1101021999999REMMET054METAR EDJA 010720Z 21007KT 170V250 CAVOK 02/M03 Q1010;
0081109470999992013010107504+47983+010233FM-15+0629EDJA V0202101N003119999999Y0099001N1+00201-00301999999ADDMA1101021999999REMMET054METAR EDJA 010750Z 21006KT 170V260 CAVOK 02/M03 Q1010;
0081109470999992013010108204+47983+010233FM-15+0629EDJA V0201901N002619999999Y0099001N1+00101-00201999999ADDMA1101021999999REMMET054METAR EDJA 010820Z 19005KT 170V240 CAVOK 01/M02 Q1010;
0073109470999992013010109204+47983+010233FM-15+0629EDJA V0202201N003619999999Y0099001N1+00301-00201999999ADDMA1101021999999REMMET046METAR EDJA 010920Z 22007KT CAVOK 03/M02 Q1010;
0081109470999992013010109504+47983+010233FM-15+0629EDJA V0202201N004119999999Y0099001N1+00401-00201999999ADDMA1101021999999REMMET054METAR EDJA 010950Z 22008KT 180V240 CAVOK 04/M02 Q1010;
0081109470999992013010110204+47983+010233FM-15+0629EDJA V0202301N006219999999Y0099001N1+00501-00201999999ADDMA1101021999999REMMET054METAR EDJA 011020Z 23012KT 190V250 CAVOK 05/M02 Q1010;
0081109470999992013010110504+47983+010233FM-15+0629EDJA V0202101N004119999999Y0099001N1+00501-00201999999ADDMA1101021999999REMMET054METAR EDJA 011050Z 21008KT 170V250 CAVOK 05/M02 Q1010;
0092109470999992013010111204+47983+010233FM-15+0629EDJA V0202101N004119999999Y0099001N1+00501-00101999999ADDMA1101021999999OC101081REMMET057METAR EDJA 011120Z 21008G21KT 120V240 CAVOK 05/M01 Q1010;
0081109470999992013010111504+47983+010233FM-15+0629EDJA V0202301N005719999999Y0099001N1+00501-00101999999ADDMA1101021999999REMMET054METAR EDJA 011150Z 23011KT 200V260 CAVOK 05/M01 Q1010;
0072109470999992013010112204+47983+010233FM-15+0629EDJA V0202401N007719999999Y0099001N1+00601+00001999999ADDMA1101021999999REMMET045METAR EDJA 011220Z 24015KT CAVOK 06/00 Q1010;
0178109470999992013010113204+47983+010233FM-15+0629EDJA V0202401N00821010501CN0112651N1+00601+00101999999ADDGA1021+006001999GA2041+010501999GA3071+018001999GF107991999999999999999999MA1101021999999MW1801REMMET071METAR EDJA 011320Z 24016KT 9999 -SHRA FEW020 SCT035 BKN060 06/01 Q1010;
0072109470999992013010113504+47983+010233FM-15+0629EDJA V0202301N007219999999Y0099001N1+00501+00201999999ADDMA1101021999999REMMET045METAR EDJA 011350Z 23014KT CAVOK 05/02 Q1010;
0120109470999992013010114204+47983+010233FM-15+0629EDJA V0202301N007212200019N0112651N1+00501+00201999999ADDGA1041+011701999GF104991999999999999999999MA1101021999999REMMET051METAR EDJA 011420Z 23014KT 9999 SCT039 05/02 Q1010;
0163109470999992013010114504+47983+010233FM-15+0629EDJA V0202301N007210150019N0112651N1+00501+00201999999ADDGA1041+007801999GA2071+015001999GF107991999999999999999999MA1101081999999MW1801REMMET072METAR EDJA 011450Z 23014KT 190V250 9999 -SHRA SCT026 BKN050 05/02 Q1011;
0155109470999992013010115204+47983+010233FM-15+0629EDJA V0202301N007210078019N0112651N1+00401+00201999999ADDGA1041+004801999GA2071+007801999GF107991999999999999999999MA1101081999999MW1801REMMET064METAR EDJA 011520Z 23014KT 9999 -SHRA SCT016 BKN026 04/02 Q1011;
0161109470999992013010116504+47983+010233FM-15+0629EDJA V0202301N006210030019N0112651N1+00401+00201999999ADDGA1071+003001999GA2071+012001999GF107991999999999999999999MA1101081999999MW1611REMMET070METAR EDJA 011650Z 23012KT 200V260 9999 -RA BKN010 BKN040 04/02 Q1011;
0153109470999992013010117204+47983+010233FM-15+0629EDJA V0202401N005110030019N0112651N1+00401+00201999999ADDGA1071+003001999GA2071+012001999GF107991999999999999999999MA1101191999999MW1611REMMET062METAR EDJA 011720Z 24010KT 9999 -RA BKN010 BKN040 04/02 Q1012;
0161109470999992013010117504+47983+010233FM-15+0629EDJA V0202301N004610117019N0112651N1+00401+00201999999ADDGA1021+003601999GA2071+011701999GF107991999999999999999999MA1101191999999MW1611REMMET070METAR EDJA 011750Z 23009KT 200V260 9999 -RA FEW012 BKN039 04/02 Q1012;
0161109470999992013010118204+47983+010233FM-15+0629EDJA V0202101N003610117019N0112651N1+00301+00201999999ADDGA1041+002401999GA2071+011701999GF107991999999999999999999MA1101191999999MW1611REMMET070METAR EDJA 011820Z 21007KT 180V260 9999 -RA SCT008 BKN039 03/02 Q1012;
0161109470999992013010118504+47983+010233FM-15+0629EDJA V0202201N004110027019N0112651N1+00301+00201999999ADDGA1071+002701999GA2071+011701999GF107991999999999999999999MA1101191999999MW1611REMMET070METAR EDJA 011850Z 22008KT 190V250 9999 -RA BKN009 BKN039 03/02 Q1012;
0161109470999992013010119204+47983+010233FM-15+0629EDJA V0202201N004110027019N0112651N1+00301+00201999999ADDGA1071+002701999GA2071+011701999GF107991999999999999999999MA1101191999999MW1611REMMET070METAR EDJA 011920Z 22008KT 180V250 9999 -RA BKN009 BKN039 03/02 Q1012;
0161109470999992013010119504+47983+010233FM-15+0629EDJA V0202101N003610030019N0112651N1+00301+00101999999ADDGA1071+003001999GA2071+008701999GF107991999999999999999999MA1101191999999MW1611REMMET070METAR EDJA 011950Z 21007KT 180V240 9999 -RA BKN010 BKN029 03/01 Q1012;
0151109470999992013010120204+47983+010233FM-15+0629EDJA V0202001N003610039019N0112651N1+00201+00101999999ADDGA1021+002401999GA2071+003901999GF107991999999999999999999MA1101291999999REMMET066METAR EDJA 012020Z 20007KT 140V240 9999 FEW008 BKN013 02/01 Q1013;
0151109470999992013010120504+47983+010233FM-15+0629EDJA V0202101N003610042019N0112651N1+00201+00101999999ADDGA1041+002701999GA2071+004201999GF107991999999999999999999MA1101291999999REMMET066METAR EDJA 012050Z 21007KT 160V240 9999 SCT009 BKN014 02/01 Q1013;
0120109470999992013010204204+47983+010233FM-15+0629EDJA V0202401N002610093019N0112651N1+00201+00001999999ADDGA1071+009301999GF107991999999999999999999MA1101901999999REMMET051METAR EDJA 020420Z 24005KT 9999 BKN031 02/00 Q1019;
0120109470999992013010204504+47983+010233FM-15+0629EDJA V0202701N001510096019N0112651N1+00201+00001999999ADDGA1071+009601999GF107991999999999999999999MA1101901999999REMMET051METAR EDJA 020450Z 27003KT 9999 BKN032 02/00 Q1019;
0121109470999992013010205204+47983+010233FM-15+0629EDJA V0202301N002110105019N0112651N1+00101+00001999999ADDGA1071+010501999GF107991999999999999999999MA1101901999999REMMET052METAR EDJA 020520Z 23004KT 9999 BKN035 01/M00 Q1019;
0121109470999992013010205504+47983+010233FM-15+0629EDJA V0209999V001510108019N0112651N1+00101+00001999999ADDGA1071+010801999GF107991999999999999999999MA1102001999999REMMET052METAR EDJA 020550Z VRB03KT 9999 BKN036 01/M00 Q1020;
0121109470999992013010206204+47983+010233FM-15+0629EDJA V0209999V001510114019N0112651N1+00001+00001999999ADDGA1071+011401999GF107991999999999999999999MA1102001999999REMMET052METAR EDJA 020620Z VRB03KT 9999 BKN038 00/M00 Q1020;
0121109470999992013010206504+47983+010233FM-15+0629EDJA V0209999V001512200019N0112651N1+00001+00001999999ADDGA1041+012001999GF104991999999999999999999MA1102101999999REMMET052METAR EDJA 020650Z VRB03KT 9999 SCT040 00/M00 Q1021;
0121109470999992013010207204+47983+010233FM-15+0629EDJA V0201701N002112200019N0112651N1+00001-00101999999ADDGA1021+012001999GF102991999999999999999999MA1102101999999REMMET052METAR EDJA 020720Z 17004KT 9999 FEW040 00/M01 Q1021;
0122109470999992013010207504+47983+010233FM-15+0629EDJA V0201901N002112200019N0112651N1+00001-00101999999ADDGA1021+012001999GF102991999999999999999999MA1102101999999REMMET053METAR EDJA 020750Z 19004KT 9999 FEW040 M00/M01 Q1021;
0081109470999992013010208204+47983+010233FM-15+0629EDJA V0202001N002619999999Y0099001N1+00001+00001999999ADDMA1102201999999REMMET054METAR EDJA 020820Z 20005KT 160V230 CAVOK 00/M00 Q1022;
0121109470999992013010208504+47983+010233FM-15+0629EDJA V0209999V001512200019N0112651N1+00001-00101999999ADDGA1021+000901999GF102991999999999999999999MA1102301999999REMMET052METAR EDJA 020850Z VRB03KT 9999 FEW003 00/M01 Q1023;
0144109470999992013010209204+47983+010233FM-15+0629EDJA V0202301N004110096019N0112651N1+00001+00001999999ADDGA1021+001201999GA2071+009601999GF107991999999999999999999MA1102301999999REMMET059METAR EDJA 020920Z 23008KT 9999 FEW004 BKN032 00/M00 Q1023;
0121109470999992013010209504+47983+010233FM-15+0629EDJA V0202301N003610090019N0112651N1+00101+00001999999ADDGA1071+009001999GF107991999999999999999999MA1102301999999REMMET052METAR EDJA 020950Z 23007KT 9999 BKN030 01/M00 Q1023;
0120109470999992013010210204+47983+010233FM-15+0629EDJA V0202201N004110087019N0112651N1+00101+00001999999ADDGA1071+008701999GF107991999999999999999999MA1102401999999REMMET051METAR EDJA 021020Z 22008KT 9999 BKN029 01/00 Q1024;
0143109470999992013010210504+47983+010233FM-15+0629EDJA V0202201N004110126019N0112651N1+00201+00101999999ADDGA1041+002101999GA2071+012601999GF107991999999999999999999MA1102401999999REMMET058METAR EDJA 021050Z 22008KT 9999 SCT007 BKN042 02/01 Q1024;
0143109470999992013010211204+47983+010233FM-15+0629EDJA V0202401N005110126019N0112651N1+00301+00101999999ADDGA1021+003001999GA2071+012601999GF107991999999999999999999MA1102401999999REMMET058METAR EDJA 021120Z 24010KT 9999 FEW010 BKN042 03/01 Q1024;
0120109470999992013010211504+47983+010233FM-15+0629EDJA V0202401N004610135019N0112651N1+00301+00101999999ADDGA1071+013501999GF107991999999999999999999MA1102401999999REMMET051METAR EDJA 021150Z 24009KT 9999 BKN045 03/01 Q1024;
0143109470999992013010212204+47983+010233FM-15+0629EDJA V0202401N004110126019N0112651N1+00301+00101999999ADDGA1021+003901999GA2071+012601999GF107991999999999999999999MA1102401999999REMMET058METAR EDJA 021220Z 24008KT 9999 FEW013 BKN042 03/01 Q1024;
0143109470999992013010212504+47983+010233FM-15+0629EDJA V0202501N005110126019N0112651N1+00301+00001999999ADDGA1041+003001999GA2071+012601999GF107991999999999999999999MA1102511999999REMMET058METAR EDJA 021250Z 25010KT 9999 SCT010 BKN042 03/00 Q1025;
0121109470999992013010213204+47983+010233FM-15+0629EDJA V0202801N004112200019N0112651N1+00301+00001999999ADDGA1041+003901999GF104991999999999999999999MA1102511999999REMMET052METAR EDJA 021320Z 28008KT 9999 SCT013 03/M00 Q1025;
0121109470999992013010213504+47983+010233FM-15+0629EDJA V0202701N002612200019N0112651N1+00201+00001999999ADDGA1021+004501999GF102991999999999999999999MA1102511999999REMMET052METAR EDJA 021350Z 27005KT 9999 FEW015 02/M00 Q1025;
0144109470999992013010214204+47983+010233FM-15+0629EDJA V0202701N003612200019N0112651N1+00201-00101999999ADDGA1021+004501999GA2041+013501999GF104991999999999999999999MA1102611999999REMMET059METAR EDJA 021420Z 27007KT 9999 FEW015 SCT045 02/M01 Q1026;
0121109470999992013010214504+47983+010233FM-15+0629EDJA V0202301N002612200019N0112651N1+00201+00001999999ADDGA1021+003901999GF102991999999999999999999MA1102611999999REMMET052METAR EDJA 021450Z 23005KT 9999 FEW013 02/M00 Q1026;
0121109470999992013010215204+47983+010233FM-15+0629EDJA V0202401N002612200019N0112651N1+00201+00001999999ADDGA1041+013501999GF104991999999999999999999MA1102611999999REMMET052METAR EDJA 021520Z 24005KT 9999 SCT045 02/M00 Q1026;
0121109470999992013010215504+47983+010233FM-15+0629EDJA V0202101N002112200019N0112651N1+00101+00001999999ADDGA1041+013501999GF104991999999999999999999MA1102711999999REMMET052METAR EDJA 021550Z 21004KT 9999 SCT045 01/M00 Q1027;
0121109470999992013010216204+47983+010233FM-15+0629EDJA V0202001N002112200019N0112651N1+00001-00101999999ADDGA1041+014101999GF104991999999999999999999MA1102711999999REMMET052METAR EDJA 021620Z 20004KT 9999 SCT047 00/M01 Q1027;
0121109470999992013010216504+47983+010233FM-15+0629EDJA V0201901N001512200019N0112651N1+00001-00101999999ADDGA1041+013501999GF104991999999999999999999MA1102811999999REMMET052METAR EDJA 021650Z 19003KT 9999 SCT045 00/M01 Q1028;
0122109470999992013010217204+47983+010233FM-15+0629EDJA V0201901N002612200019N0112651N1-00101-00201999999ADDGA1041+014101999GF104991999999999999999999MA1102811999999REMMET053METAR EDJA 021720Z 19005KT 9999 SCT047 M01/M02 Q1028;
0074109470999992013010218204+47983+010233FM-15+0629EDJA V0201901N002619999999Y0099001N1-00101-00101999999ADDMA1102911999999REMMET047METAR EDJA 021820Z 19005KT CAVOK M01/M01 Q1029;
0130109470999992013010218504+47983+010233FM-15+0629EDJA V0202101N002112200019N0090001N1-00101-00201999999ADDGF100991999999999999999999MA1102911999999REMMET058METAR EDJA 021850Z 21004KT 180V260 9000 SKC M01/M02 Q1029;EQDQ01    003SCCGA1
0122109470999992013010219204+47983+010233FM-15+0629EDJA V0201901N003612200019N0090001N1-00101-00201999999ADDGF100991999999999999999999MA1102911999999REMMET050METAR EDJA 021920Z 19007KT 9000 NSC M01/M02 Q1029;EQDQ01    003SCCGA1
0074109470999992013010219504+47983+010233FM-15+0629EDJA V0209999V001019999999Y0099001N1-00101-00201999999ADDMA1102911999999REMMET047METAR EDJA 021950Z VRB02KT CAVOK M01/M02 Q1029;
0122109470999992013010220204+47983+010233FM-15+0629EDJA V0209999V001512200019N0090001N1-00201-00201999999ADDGF100991999999999999999999MA1103011999999REMMET050METAR EDJA 022020Z VRB03KT 9000 NSC M02/M02 Q1030;EQDQ01    003SCCGA1
0122109470999992013010220504+47983+010233FM-15+0629EDJA V0202001N003612200019N0070001N1-00201-00201999999ADDGF100991999999999999999999MA1103011999999REMMET050METAR EDJA 022050Z 20007KT 7000 NSC M02/M02 Q1030;EQDQ01    003SCCGA1
0074109470999992013010304504+47983+010233FM-15+0629EDJA V0202201N006219999999Y0099001N1-00201-00301999999ADDMA1103181999999REMMET047METAR EDJA 030450Z 22012KT CAVOK M02/M03 Q1032;
0122109470999992013010305204+47983+010233FM-15+0629EDJA V0202201N005112200019N0090001N1-00201-00301999999ADDGA1021+001201999GF102991999999999999999999MA1103291999999REMMET053METAR EDJA 030520Z 22010KT 9000 FEW004 M02/M03 Q1033;
0122109470999992013010305504+47983+010233FM-15+0629EDJA V0202001N005712200019N0070001N1-00101-00201999999ADDGF100991999999999999999999MA1103181999999REMMET050METAR EDJA 030550Z 20011KT 7000 NSC M01/M02 Q1032;EQDQ01    003SCCGA1
0122109470999992013010306204+47983+010233FM-15+0629EDJA V0202201N005110150019N0112651N1-00101-00301999999ADDGA1071+015001999GF107991999999999999999999MA1103181999999REMMET053METAR EDJA 030620Z 22010KT 9999 BKN054 M01/M03 Q1032;
0122109470999992013010306504+47983+010233FM-15+0629EDJA V0202501N004610150019N0112651N1-00101-00201999999ADDGA1071+015001999GF107991999999999999999999MA1103291999999REMMET053METAR EDJA 030650Z 25009KT 9999 BKN052 M01/M02 Q1033;
0074109470999992013010307504+47983+010233FM-15+0629EDJA V0202201N006219999999Y0099001N1+00001-00201999999ADDMA1103291999999REMMET047METAR EDJA 030750Z 22012KT CAVOK M00/M02 Q1033;
0122109470999992013010308204+47983+010233FM-15+0629EDJA V0202201N006210150019N0112651N1+00001-00201999999ADDGA1071+015001999GF107991999999999999999999MA1103291999999REMMET053METAR EDJA 030820Z 22012KT 9999 BKN054 M00/M02 Q1033;
0121109470999992013010308504+47983+010233FM-15+0629EDJA V0202301N007210180019N0112651N1+00001-00301999999ADDGA1071+018001999GF107991999999999999999999MA1103291999999REMMET052METAR EDJA 030850Z 23014KT 9999 BKN061 00/M03 Q1033;
0121109470999992013010309204+47983+010233FM-15+0629EDJA V0202301N007210180019N0112651N1+00101-00201999999ADDGA1071+018001999GF107991999999999999999999MA1103391999999REMMET052METAR EDJA 030920Z 23014KT 9999 BKN061 01/M02 Q1034;
0121109470999992013010309504+47983+010233FM-15+0629EDJA V0202301N009310150019N0112651N1+00101-00201999999ADDGA1071+015001999GF107991999999999999999999MA1103391999999REMMET052METAR EDJA 030950Z 23018KT 9999 BKN058 01/M02 Q1034;
0121109470999992013010310204+47983+010233FM-15+0629EDJA V0202401N009310150019N0112651N1+00101-00201999999ADDGA1071+015001999GF107991999999999999999999MA1103391999999REMMET052METAR EDJA 031020Z 24018KT 9999 BKN054 01/M02 Q1034;
0121109470999992013010310504+47983+010233FM-15+0629EDJA V0202501N006710150019N0112651N1+00201-00201999999ADDGA1071+015001999GF107991999999999999999999MA1103491999999REMMET052METAR EDJA 031050Z 25013KT 9999 BKN053 02/M02 Q1035;
0121109470999992013010311204+47983+010233FM-15+0629EDJA V0202401N006710114019N0112651N1+00201-00201999999ADDGA1071+011401999GF107991999999999999999999MA1103491999999REMMET052METAR EDJA 031120Z 24013KT 9999 BKN038 02/M02 Q1035;
0131109470999992013010311504+47983+010233FM-15+0629EDJA V0202101N007710114019N0112651N1+00101-00101999999ADDGA1071+011401999GF107991999999999999999999MA1103391999999MW1611REMMET056METAR EDJA 031150Z 21015KT 9999 -RA BKN038 01/M01 Q1034;
0131109470999992013010312204+47983+010233FM-15+0629EDJA V0202201N008710105019N0112651N1+00101-00101999999ADDGA1071+010501999GF107991999999999999999999MA1103391999999MW1611REMMET056METAR EDJA 031220Z 22017KT 9999 -RA BKN035 01/M01 Q1034;
0131109470999992013010312504+47983+010233FM-15+0629EDJA V0202201N007710063019N0112651N1+00101-00101999999ADDGA1071+006301999GF107991999999999999999999MA1103391999999MW1611REMMET056METAR EDJA 031250Z 22015KT 9999 -RA BKN021 01/M01 Q1034;
0131109470999992013010313204+47983+010233FM-15+0629EDJA V0202201N007210054019N0112651N1+00101-00101999999ADDGA1071+005401999GF107991999999999999999999MA1103391999999MW1611REMMET056METAR EDJA 031320Z 22014KT 9999 -RA BKN018 01/M01 Q1034;
0131109470999992013010313504+47983+010233FM-15+0629EDJA V0202301N008210051019N0070001N1+00101-00101999999ADDGA1071+005101999GF107991999999999999999999MA1103391999999MW1611REMMET056METAR EDJA 031350Z 23016KT 7000 -RA BKN017 01/M01 Q1034;
0133109470999992013010314204+47983+010233FM-15+0629EDJA V0202301N008210051019N0112651N1+00101-00101999999ADDGA1071+005101999GF107991999999999999999999MA1103391999999MW1801REMMET058METAR EDJA 031420Z 23016KT 9999 -SHRA BKN017 01/M01 Q1034;
0121109470999992013010314504+47983+010233FM-15+0629EDJA V0202301N009310051019N0112651N1+00201-00101999999ADDGA1071+005101999GF107991999999999999999999MA1103391999999REMMET052METAR EDJA 031450Z 23018KT 9999 BKN017 02/M01 Q1034;
0133109470999992013010315204+47983+010233FM-15+0629EDJA V0202301N007710054019N0112651N1+00201-00101999999ADDGA1071+005401999GF107991999999999999999999MA1103491999999MW1801REMMET058METAR EDJA 031520Z 23015KT 9999 -SHRA BKN018 02/M01 Q1035;
0131109470999992013010316084+47983+010233FM-16+0629EDJA V0202301N009310042019N0112651N1+00201-00101999999ADDGA1071+004201999GF107991999999999999999999MA1103491999999MW1611REMMET056SPECI EDJA 031608Z 23018KT 9999 -RA BKN014 02/M01 Q1035;
0131109470999992013010316204+47983+010233FM-15+0629EDJA V0202301N009310042019N0112651N1+00201-00101999999ADDGA1071+004201999GF107991999999999999999999MA1103491999999MW1611REMMET056METAR EDJA 031620Z 23018KT 9999 -RA BKN014 02/M01 Q1035;
0131109470999992013010316504+47983+010233FM-15+0629EDJA V0202201N008210054019N0112651N1+00201+00001999999ADDGA1071+005401999GF107991999999999999999999MA1103491999999MW1611REMMET056METAR EDJA 031650Z 22016KT 9999 -RA BKN018 02/M00 Q1035;
0132109470999992013010317204+47983+010233FM-15+0629EDJA V0202201N008710048019N0112651N1+00201+00001999999ADDGA1071+004801999GF107991999999999999999999MA1103491999999MW1801REMMET057METAR EDJA 031720Z 22017KT 9999 -SHRA BKN016 02/00 Q1035;
0143109470999992013010317504+47983+010233FM-15+0629EDJA V0202101N008210051019N0112651N1+00201+00101999999ADDGA1021+002101999GA2081+005101999GF108991999999999999999999MA1103491999999REMMET058METAR EDJA 031750Z 21016KT 9999 FEW007 OVC017 02/01 Q1035;
0143109470999992013010318204+47983+010233FM-15+0629EDJA V0202301N007710054019N0112651N1+00201+00001999999ADDGA1041+003001999GA2081+005401999GF108991999999999999999999MA1103491999999REMMET058METAR EDJA 031820Z 23015KT 9999 SCT010 OVC018 02/00 Q1035;
0120109470999992013010318504+47983+010233FM-15+0629EDJA V0202301N006710045019N0112651N1+00201+00101999999ADDGA1081+004501999GF108991999999999999999999MA1103591999999REMMET051METAR EDJA 031850Z 23013KT 9999 OVC015 02/01 Q1036;
0143109470999992013010319204+47983+010233FM-15+0629EDJA V0202201N005110045019N0112651N1+00201+00001999999ADDGA1071+004501999GA2081+006301999GF108991999999999999999999MA1103491999999REMMET058METAR EDJA 031920Z 22010KT 9999 BKN015 OVC021 02/00 Q1035;
0121109470999992013010319504+47983+010233FM-15+0629EDJA V0202401N006210063019N0112651N1+00201-00101999999ADDGA1081+006301999GF108991999999999999999999MA1103591999999REMMET052METAR EDJA 031950Z 24012KT 9999 OVC021 02/M01 Q1036;
0154109470999992013010320204+47983+010233FM-15+0629EDJA V0202301N007710063019N0112651N1+00201-00101999999ADDGA1021+003001999GA2081+006301999GF108991999999999999999999MA1103591999999MW1611REMMET063METAR EDJA 032020Z 23015KT 9999 -RA FEW010 OVC021 02/M01 Q1036;
0154109470999992013010320504+47983+010233FM-15+0629EDJA V0202301N005110063019N0112651N1+00201-00101999999ADDGA1021+003001999GA2081+006301999GF108991999999999999999999MA1103591999999MW1611REMMET063METAR EDJA 032050Z 23010KT 9999 -RA FEW010 OVC021 02/M01 Q1036;
0120109470999992013010404504+47983+010233FM-15+0629EDJA V0202201N006210033019N0112651N1+00301+00201999999ADDGA1081+003301999GF108991999999999999999999MA1103591999999REMMET051METAR EDJA 040450Z 22012KT 9999 OVC011 03/02 Q1036;
0120109470999992013010405204+47983+010233FM-15+0629EDJA V0202101N006710036019N0112651N1+00301+00201999999ADDGA1081+003601999GF108991999999999999999999MA1103491999999REMMET051METAR EDJA 040520Z 21013KT 9999 OVC012 03/02 Q1035;
0120109470999992013010406204+47983+010233FM-15+0629EDJA V0202301N005710021019N0112651N1+00301+00201999999ADDGA1071+002101999GF107991999999999999999999MA1103591999999REMMET051METAR EDJA 040620Z 23011KT 9999 BKN007 03/02 Q1036;
0120109470999992013010406504+47983+010233FM-15+0629EDJA V0202301N004610015019N0112651N1+00301+00201999999ADDGA1071+001501999GF107991999999999999999999MA1103591999999REMMET051METAR EDJA 040650Z 23009KT 9999 BKN005 03/02 Q1036;
0120109470999992013010407204+47983+010233FM-15+0629EDJA V0202301N005110015019N0090001N1+00401+00301999999ADDGA1071+001501999GF107991999999999999999999MA1103591999999REMMET051METAR EDJA 040720Z 23010KT 9000 BKN005 04/03 Q1036;
0120109470999992013010407504+47983+010233FM-15+0629EDJA V0202501N004110015019N0090001N1+00401+00301999999ADDGA1071+001501999GF107991999999999999999999MA1103591999999REMMET051METAR EDJA 040750Z 25008KT 9000 BKN005 04/03 Q1036;
0120109470999992013010408204+47983+010233FM-15+0629EDJA V0202401N004110018019N0080001N1+00401+00301999999ADDGA1071+001801999GF107991999999999999999999MA1103591999999REMMET051METAR EDJA 040820Z 24008KT 8000 BKN006 04/03 Q1036;
0143109470999992013010409204+47983+010233FM-15+0629EDJA V0202101N006710060019N0090001N1+00401+00301999999ADDGA1041+001501999GA2071+006001999GF107991999999999999999999MA1103591999999REMMET058METAR EDJA 040920Z 21013KT 9000 SCT005 BKN020 04/03 Q1036;
0120109470999992013010409504+47983+010233FM-15+0629EDJA V0202301N003610018019N0112651N1+00401+00301999999ADDGA1071+001801999GF107991999999999999999999MA1103691999999REMMET051METAR EDJA 040950Z 23007KT 9999 BKN006 04/03 Q1037;
0120109470999992013010410504+47983+010233FM-15+0629EDJA V0202201N004610015019N0112651N1+00401+00301999999ADDGA1071+001501999GF107991999999999999999999MA1103591999999REMMET051METAR EDJA 041050Z 22009KT 9999 BKN005 04/03 Q1036;
0120109470999992013010411204+47983+010233FM-15+0629EDJA V0202201N005710015019N0090001N1+00401+00301999999ADDGA1071+001501999GF107991999999999999999999MA1103591999999REMMET051METAR EDJA 041120Z 22011KT 9000 BKN005 04/03 Q1036;
0120109470999992013010411504+47983+010233FM-15+0629EDJA V0202201N006210015019N0112651N1+00401+00301999999ADDGA1071+001501999GF107991999999999999999999MA1103491999999REMMET051METAR EDJA 041150Z 22012KT 9999 BKN005 04/03 Q1035;
0120109470999992013010412204+47983+010233FM-15+0629EDJA V0202201N006210015019N0112651N1+00501+00301999999ADDGA1071+001501999GF107991999999999999999999MA1103491999999REMMET051METAR EDJA 041220Z 22012KT 9999 BKN005 05/03 Q1035;
0120109470999992013010412504+47983+010233FM-15+0629EDJA V0202301N007210015019N0112651N1+00501+00401999999ADDGA1071+001501999GF107991999999999999999999MA1103491999999REMMET051METAR EDJA 041250Z 23014KT 9999 BKN005 05/04 Q1035;
0120109470999992013010413204+47983+010233FM-15+0629EDJA V0202301N006710015019N0112651N1+00501+00401999999ADDGA1071+001501999GF107991999999999999999999MA1103491999999REMMET051METAR EDJA 041320Z 23013KT 9999 BKN005 05/04 Q1035;
0151109470999992013010413504+47983+010233FM-15+0629EDJA V0202201N00621001501CN0070001N1+00501+00401999999ADDGA1071+001501999GA2071+004501999GF108991999999999999999999MA1103401999999REMMET066METAR EDJA 041350Z 22012KT 7000 300N DZ BKN005 BKN015 05/04 Q1034;
0158109470999992013010414504+47983+010233FM-15+0629EDJA V0202301N004610015019N0080001N1+00501+00401999999ADDGA1071+001501999GA2071+004501999GF107991999999999999999999MA1103391999999MW1611REMMET067METAR EDJA 041450Z 23009KT 8000 -RA BKN005 BKN015 05/04 Q1034 RERA;
0159109470999992013010415204+47983+010233FM-15+0629EDJA V0202401N004610015019N0080001N1+00501+00401999999ADDGA1071+001501999GA2071+004501999GF107991999999999999999999MA1103391999999MW1611REMMET068METAR EDJA 041520Z 24009KT 8000 3000N -RA BKN005 BKN015 05/04 Q1034;
0149109470999992013010415504+47983+010233FM-15+0629EDJA V0202301N006210015019N0090001N1+00501+00401999999ADDGA1071+001501999GA2071+005101999GF107991999999999999999999MA1103391999999REMMET064METAR EDJA 041550Z 23012KT 9000 4500N BKN005 BKN017 05/04 Q1034;
0143109470999992013010416204+47983+010233FM-15+0629EDJA V0202301N005110042019N0112651N1+00501+00401999999ADDGA1041+001501999GA2071+004201999GF107991999999999999999999MA1103391999999REMMET058METAR EDJA 041620Z 23010KT 9999 SCT005 BKN014 05/04 Q1034;
0120109470999992013010416504+47983+010233FM-15+0629EDJA V0202201N005710042019N0080001N1+00501+00401999999ADDGA1071+004201999GF107991999999999999999999MA1103391999999REMMET051METAR EDJA 041650Z 22011KT 8000 BKN014 05/04 Q1034;
0129109470999992013010417204+47983+010233FM-15+0629EDJA V0202201N006210018019N0090001N1+00501+00401999999ADDGA1071+001801999GF107991999999999999999999MA1103391999999MW1531REMMET054METAR EDJA 041720Z 22012KT 9000 DZ BKN006 05/04 Q1034;
0143109470999992013010417504+47983+010233FM-15+0629EDJA V0202301N006210018019N0090001N1+00501+00401999999ADDGA1071+001801999GA2071+004501999GF107991999999999999999999MA1103391999999REMMET058METAR EDJA 041750Z 23012KT 9000 BKN006 BKN015 05/04 Q1034;
0143109470999992013010418204+47983+010233FM-15+0629EDJA V0202301N005710018019N0080001N1+00501+00401999999ADDGA1071+001801999GA2071+003901999GF107991999999999999999999MA1103291999999REMMET058METAR EDJA 041820Z 23011KT 8000 BKN006 BKN013 05/04 Q1033;
0143109470999992013010418504+47983+010233FM-15+0629EDJA V0202301N006710036019N0070001N1+00501+00401999999ADDGA1021+001501999GA2081+003601999GF108991999999999999999999MA1103291999999REMMET058METAR EDJA 041850Z 23013KT 7000 FEW005 OVC012 05/04 Q1033;
0143109470999992013010419204+47983+010233FM-15+0629EDJA V0202401N005110027019N0070001N1+00501+00401999999ADDGA1021+001501999GA2071+002701999GF107991999999999999999999MA1103291999999REMMET058METAR EDJA 041920Z 24010KT 7000 FEW005 BKN009 05/04 Q1033;
0129109470999992013010419504+47983+010233FM-15+0629EDJA V0202301N005110018019N0050001N1+00501+00401999999ADDGA1071+001801999GF107991999999999999999999MA1103291999999MW1101REMMET054METAR EDJA 041950Z 23010KT 5000 BR BKN006 05/04 Q1033;
0152109470999992013010420204+47983+010233FM-15+0629EDJA V0202401N005110036019N0050001N1+00501+00401999999ADDGA1041+001801999GA2071+003601999GF107991999999999999999999MA1103291999999MW1101REMMET061METAR EDJA 042020Z 24010KT 5000 BR SCT006 BKN012 05/04 Q1033;
0129109470999992013010420504+47983+010233FM-15+0629EDJA V0202301N005710051019N0045001N1+00501+00401999999ADDGA1071+005101999GF107991999999999999999999MA1103291999999MW1101REMMET054METAR EDJA 042050Z 23011KT 4500 BR BKN017 05/04 Q1033;
0120109470999992013010504204+47983+010233FM-15+0629EDJA V0202501N007210021019N0090001N1+00501+00401999999ADDGA1081+002101999GF108991999999999999999999MA1103121999999REMMET051METAR EDJA 050420Z 25014KT 9000 OVC007 05/04 Q1031;
0120109470999992013010504504+47983+010233FM-15+0629EDJA V0202601N007710024019N0090001N1+00501+00401999999ADDGA1081+002401999GF108991999999999999999999MA1103011999999REMMET051METAR EDJA 050450Z 26015KT 9000 OVC008 05/04 Q1030;
0120109470999992013010505204+47983+010233FM-15+0629EDJA V0202601N008210021019N0090001N1+00501+00401999999ADDGA1081+002101999GF108991999999999999999999MA1103011999999REMMET051METAR EDJA 050520Z 26016KT 9000 OVC007 05/04 Q1030;
0120109470999992013010505504+47983+010233FM-15+0629EDJA V0202601N007710021019N0112651N1+00501+00401999999ADDGA1081+002101999GF108991999999999999999999MA1103121999999REMMET051METAR EDJA 050550Z 26015KT 9999 OVC007 05/04 Q1031;
0120109470999992013010506204+47983+010233FM-15+0629EDJA V0202501N006210024019N0112651N1+00601+00401999999ADDGA1081+002401999GF108991999999999999999999MA1103121999999REMMET051METAR EDJA 050620Z 25012KT 9999 OVC008 06/04 Q1031;
0130109470999992013010506504+47983+010233FM-15+0629EDJA V0202501N007710030019N0112651N1+00601+00401999999ADDGA1081+003001999GF108991999999999999999999MA1103121999999MW1611REMMET055METAR EDJA 050650Z 25015KT 9999 -RA OVC010 06/04 Q1031;
0130109470999992013010507204+47983+010233FM-15+0629EDJA V0202601N006710030019N0112651N1+00601+00401999999ADDGA1071+003001999GF107991999999999999999999MA1103121999999MW1611REMMET055METAR EDJA 050720Z 26013KT 9999 -RA BKN010 06/04 Q1031;
0120109470999992013010507504+47983+010233FM-15+0629EDJA V0202701N004610027019N0112651N1+00501+00401999999ADDGA1071+002701999GF107991999999999999999999MA1103121999999REMMET051METAR EDJA 050750Z 27009KT 9999 BKN009 05/04 Q1031;
0130109470999992013010508204+47983+010233FM-15+0629EDJA V0202701N005110024019N0112651N1+00501+00401999999ADDGA1071+002401999GF107991999999999999999999MA1103121999999MW1611REMMET055METAR EDJA 050820Z 27010KT 9999 -RA BKN008 05/04 Q1031;
0153109470999992013010508504+47983+010233FM-15+0629EDJA V0202601N006210024019N0090001N1+00501+00401999999ADDGA1071+002401999GA2071+003301999GF107991999999999999999999MA1103121999999MW1611REMMET062METAR EDJA 050850Z 26012KT 9000 -RA BKN008 BKN011 05/04 Q1031;
0162109470999992013010509204+47983+010233FM-15+0629EDJA V0202601N006710021019N0045001N1+00501+00401999999ADDGA1071+002101999GA2071+003901999GF107991999999999999999999MA1103121999999MW1101MW2611REMMET065METAR EDJA 050920Z 26013KT 4500 -RA BR BKN007 BKN013 05/04 Q1031;
0120109470999992013010509504+47983+010233FM-15+0629EDJA V0202601N005110033019N0050001N1+00501+00401999999ADDGA1071+003301999GF107991999999999999999999MA1103121999999REMMET051METAR EDJA 050950Z 26010KT 5000 BKN011 05/04 Q1031;
0130109470999992013010510204+47983+010233FM-15+0629EDJA V0202501N005110021019N0060001N1+00501+00401999999ADDGA1071+002101999GF107991999999999999999999MA1103121999999MW1611REMMET055METAR EDJA 051020Z 25010KT 6000 -RA BKN007 05/04 Q1031;
0153109470999992013010510504+47983+010233FM-15+0629EDJA V0202601N005710015019N0050001N1+00501+00401999999ADDGA1071+001501999GA2071+004201999GF107991999999999999999999MA1103121999999MW1611REMMET062METAR EDJA 051050Z 26011KT 5000 -RA BKN005 BKN014 05/04 Q1031;
0130109470999992013010511204+47983+010233FM-15+0629EDJA V0202601N005110015019N0047001N1+00501+00401999999ADDGA1071+001501999GF107991999999999999999999MA1103121999999MW1611REMMET055METAR EDJA 051120Z 26010KT 4700 -RA BKN005 05/04 Q1031;
0130109470999992013010511504+47983+010233FM-15+0629EDJA V0202701N005110015019N0060001N1+00501+00401999999ADDGA1071+001501999GF107991999999999999999999MA1103011999999MW1611REMMET055METAR EDJA 051150Z 27010KT 6000 -RA BKN005 05/04 Q1030;
0130109470999992013010512204+47983+010233FM-15+0629EDJA V0202701N005110015019N0050001N1+00501+00401999999ADDGA1071+001501999GF107991999999999999999999MA1103011999999MW1611REMMET055METAR EDJA 051220Z 27010KT 5000 -RA BKN005 05/04 Q1030;
0153109470999992013010512504+47983+010233FM-15+0629EDJA V0202701N005710036019N0070001N1+00501+00401999999ADDGA1041+001501999GA2071+003601999GF107991999999999999999999MA1103011999999MW1611REMMET062METAR EDJA 051250Z 27011KT 7000 -RA SCT005 BKN012 05/04 Q1030;
0130109470999992013010513204+47983+010233FM-15+0629EDJA V0202801N003612200019N0070001N1+00501+00401999999ADDGA1041+002101999GF104991999999999999999999MA1103011999999MW1611REMMET055METAR EDJA 051320Z 28007KT 7000 -RA SCT007 05/04 Q1030;
0130109470999992013010513504+47983+010233FM-15+0629EDJA V0202701N003110021019N0050001N1+00501+00401999999ADDGA1071+002101999GF107991999999999999999999MA1103121999999MW1611REMMET055METAR EDJA 051350Z 27006KT 5000 -RA BKN007 05/04 Q1031;
0130109470999992013010514204+47983+010233FM-15+0629EDJA V0202501N004110015019N0060001N1+00501+00401999999ADDGA1071+001501999GF107991999999999999999999MA1103121999999MW1611REMMET055METAR EDJA 051420Z 25008KT 6000 -RA BKN005 05/04 Q1031;
0139109470999992013010515204+47983+010233FM-15+0629EDJA V0202601N004110012019N0045001N1+00501+00401999999ADDGA1071+001201999GF107991999999999999999999MA1103121999999MW1101MW2611REMMET058METAR EDJA 051520Z 26008KT 4500 -RA BR BKN004 05/04 Q1031;
0162109470999992013010515504+47983+010233FM-15+0629EDJA V0202701N002610027019N0045001N1+00501+00401999999ADDGA1041+000901999GA2071+002701999GF107991999999999999999999MA1103121999999MW1101MW2611REMMET065METAR EDJA 051550Z 27005KT 4500 -RA BR SCT003 BKN009 05/04 Q1031;
0152109470999992013010516504+47983+010233FM-15+0629EDJA V0202501N002610015019N0070001N1+00401+00401999999ADDGA1071+001501999GA2071+003901999GF107991999999999999999999MA1103121999999MW1631REMMET061METAR EDJA 051650Z 25005KT 7000 RA BKN005 BKN013 04/04 Q1031;
0153109470999992013010517204+47983+010233FM-15+0629EDJA V0202401N003110021019N0060001N1+00401+00401999999ADDGA1071+002101999GA2071+006001999GF107991999999999999999999MA1103121999999MW1611REMMET062METAR EDJA 051720Z 24006KT 6000 -RA BKN007 BKN020 04/04 Q1031;
0130109470999992013010517504+47983+010233FM-15+0629EDJA V0202401N003110030019N0080001N1+00401+00401999999ADDGA1071+003001999GF107991999999999999999999MA1103121999999MW1611REMMET055METAR EDJA 051750Z 24006KT 8000 -RA BKN010 04/04 Q1031;
0130109470999992013010518204+47983+010233FM-15+0629EDJA V0202201N002610015019N0060001N1+00401+00401999999ADDGA1071+001501999GF107991999999999999999999MA1103181999999MW1611REMMET055METAR EDJA 051820Z 22005KT 6000 -RA BKN005 04/04 Q1032;
0130109470999992013010518504+47983+010233FM-15+0629EDJA V0202201N002610015019N0060001N1+00401+00401999999ADDGA1071+001501999GF107991999999999999999999MA1103181999999MW1611REMMET055METAR EDJA 051850Z 22005KT 6000 -RA BKN005 04/04 Q1032;
0130109470999992013010519204+47983+010233FM-15+0629EDJA V0202301N003110015019N0050001N1+00401+00401999999ADDGA1071+001501999GF107991999999999999999999MA1103181999999MW1611REMMET055METAR EDJA 051920Z 23006KT 5000 -RA BKN005 04/04 Q1032;
0153109470999992013010519504+47983+010233FM-15+0629EDJA V0202401N003110015019N0050001N1+00401+00301999999ADDGA1071+001501999GA2071+006901999GF107991999999999999999999MA1103181999999MW1611REMMET062METAR EDJA 051950Z 24006KT 5000 -RA BKN005 BKN023 04/03 Q1032;
0153109470999992013010520204+47983+010233FM-15+0629EDJA V0202501N003610015019N0050001N1+00401+00301999999ADDGA1071+001501999GA2071+006001999GF107991999999999999999999MA1103181999999MW1611REMMET062METAR EDJA 052020Z 25007KT 5000 -RA BKN005 BKN020 04/03 Q1032;
0130109470999992013010604504+47983+010233FM-15+0629EDJA V0202401N004110015019N0090001N1+00401+00301999999ADDGA1071+001501999GF107991999999999999999999MA1103011999999MW1611REMMET055METAR EDJA 060450Z 24008KT 9000 -RA BKN005 04/03 Q1030;
0139109470999992013010605204+47983+010233FM-15+0629EDJA V0202301N005110012019N0045001N1+00401+00301999999ADDGA1071+001201999GF107991999999999999999999MA1103011999999MW1101MW2611REMMET058METAR EDJA 060520Z 23010KT 4500 -RA BR BKN004 04/03 Q1030;
0120109470999992013010605504+47983+010233FM-15+0629EDJA V0202401N006210012019N0060001N1+00301+00301999999ADDGA1071+001201999GF107991999999999999999999MA1103011999999REMMET051METAR EDJA 060550Z 24012KT 6000 BKN004 03/03 Q1030;
0120109470999992013010606204+47983+010233FM-15+0629EDJA V0202401N004610015019N0070001N1+00401+00301999999ADDGA1071+001501999GF107991999999999999999999MA1103011999999REMMET051METAR EDJA 060620Z 24009KT 7000 BKN005 04/03 Q1030;
0120109470999992013010606504+47983+010233FM-15+0629EDJA V0202401N005110015019N0060001N1+00401+00301999999ADDGA1071+001501999GF107991999999999999999999MA1102911999999REMMET051METAR EDJA 060650Z 24010KT 6000 BKN005 04/03 Q1029;
0120109470999992013010607204+47983+010233FM-15+0629EDJA V0202301N005110018019N0070001N1+00401+00301999999ADDGA1071+001801999GF107991999999999999999999MA1102911999999REMMET051METAR EDJA 060720Z 23010KT 7000 BKN006 04/03 Q1029;
0120109470999992013010607504+47983+010233FM-15+0629EDJA V0202401N004110018019N0070001N1+00401+00301999999ADDGA1071+001801999GF107991999999999999999999MA1102911999999REMMET051METAR EDJA 060750Z 24008KT 7000 BKN006 04/03 Q1029;
0120109470999992013010608204+47983+010233FM-15+0629EDJA V0202401N007210015019N0080001N1+00301+00201999999ADDGA1071+001501999GF107991999999999999999999MA1102811999999REMMET051METAR EDJA 060820Z 24014KT 8000 BKN005 03/02 Q1028;
0120109470999992013010608504+47983+010233FM-15+0629EDJA V0202601N007710015019N0090001N1+00301+00201999999ADDGA1071+001501999GF107991999999999999999999MA1102911999999REMMET051METAR EDJA 060850Z 26015KT 9000 BKN005 03/02 Q1029;
0120109470999992013010609204+47983+010233FM-15+0629EDJA V0202601N008210012019N0070001N1+00301+00201999999ADDGA1071+001201999GF107991999999999999999999MA1102811999999REMMET051METAR EDJA 060920Z 26016KT 7000 BKN004 03/02 Q1028;
0120109470999992013010609504+47983+010233FM-15+0629EDJA V0202601N008710012019N0070001N1+00301+00201999999ADDGA1071+001201999GF107991999999999999999999MA1102911999999REMMET051METAR EDJA 060950Z 26017KT 7000 BKN004 03/02 Q1029;
0129109470999992013010610204+47983+010233FM-15+0629EDJA V0202601N007710009019N0040001N1+00301+00201999999ADDGA1071+000901999GF107991999999999999999999MA1102911999999MW1101REMMET054METAR EDJA 061020Z 26015KT 4000 BR BKN003 03/02 Q1029;
0129109470999992013010610504+47983+010233FM-15+0629EDJA V0202601N007210009019N0030001N1+00301+00201999999ADDGA1071+000901999GF107991999999999999999999MA1102911999999MW1101REMMET054METAR EDJA 061050Z 26014KT 3000 BR BKN003 03/02 Q1029;
0129109470999992013010611204+47983+010233FM-15+0629EDJA V0202601N007210009019N0018001N1+00301+00201999999ADDGA1071+000901999GF107991999999999999999999MA1102811999999MW1101REMMET054METAR EDJA 061120Z 26014KT 1800 BR BKN003 03/02 Q1028;
0129109470999992013010611504+47983+010233FM-15+0629EDJA V0202801N006710009019N0024001N1+00301+00301999999ADDGA1071+000901999GF107991999999999999999999MA1102911999999MW1101REMMET054METAR EDJA 061150Z 28013KT 2400 BR BKN003 03/03 Q1029;
0138109470999992013010612204+47983+010233FM-15+0629EDJA V0202601N006710012019N0045001N1+00301+00301999999ADDGA1071+001201999GF107991999999999999999999MA1102811999999MW1101MW2531REMMET057METAR EDJA 061220Z 26013KT 4500 DZ BR BKN004 03/03 Q1028;
0120109470999992013010612504+47983+010233FM-15+0629EDJA V0202501N005110012019N0060001N1+00301+00201999999ADDGA1071+001201999GF107991999999999999999999MA1102811999999REMMET051METAR EDJA 061250Z 25010KT 6000 BKN004 03/02 Q1028;
0120109470999992013010613204+47983+010233FM-15+0629EDJA V0202501N006210012019N0070001N1+00301+00301999999ADDGA1071+001201999GF107991999999999999999999MA1102811999999REMMET051METAR EDJA 061320Z 25012KT 7000 BKN004 03/03 Q1028;
0120109470999992013010613504+47983+010233FM-15+0629EDJA V0202501N005110018019N0112651N1+00301+00201999999ADDGA1071+001801999GF107991999999999999999999MA1102811999999REMMET051METAR EDJA 061350Z 25010KT 9999 BKN006 03/02 Q1028;
0120109470999992013010614204+47983+010233FM-15+0629EDJA V0202401N004610021019N0112651N1+00301+00201999999ADDGA1071+002101999GF107991999999999999999999MA1102811999999REMMET051METAR EDJA 061420Z 24009KT 9999 BKN007 03/02 Q1028;
0120109470999992013010614504+47983+010233FM-15+0629EDJA V0202501N005710027019N0080001N1+00301+00201999999ADDGA1071+002701999GF107991999999999999999999MA1102811999999REMMET051METAR EDJA 061450Z 25011KT 8000 BKN009 03/02 Q1028;
0120109470999992013010615204+47983+010233FM-15+0629EDJA V0202401N006210021019N0070001N1+00301+00201999999ADDGA1071+002101999GF107991999999999999999999MA1102811999999REMMET051METAR EDJA 061520Z 24012KT 7000 BKN007 03/02 Q1028;
0120109470999992013010615504+47983+010233FM-15+0629EDJA V0202401N006210048019N0112651N1+00301+00201999999ADDGA1071+004801999GF107991999999999999999999MA1102811999999REMMET051METAR EDJA 061550Z 24012KT 9999 BKN016 03/02 Q1028;
0120109470999992013010616204+47983+010233FM-15+0629EDJA V0202301N006710048019N0112651N1+00301+00201999999ADDGA1071+004801999GF107991999999999999999999MA1102811999999REMMET051METAR EDJA 061620Z 23013KT 9999 BKN016 03/02 Q1028;
0120109470999992013010616504+47983+010233FM-15+0629EDJA V0202301N006210042019N0112651N1+00301+00201999999ADDGA1071+004201999GF107991999999999999999999MA1102811999999REMMET051METAR EDJA 061650Z 23012KT 9999 BKN014 03/02 Q1028;
0120109470999992013010617204+47983+010233FM-15+0629EDJA V0202301N006710036019N0112651N1+00301+00201999999ADDGA1071+003601999GF107991999999999999999999MA1102811999999REMMET051METAR EDJA 061720Z 23013KT 9999 BKN012 03/02 Q1028;
0143109470999992013010617504+47983+010233FM-15+0629EDJA V0202301N005710018019N0090001N1+00301+00201999999ADDGA1071+001801999GA2071+003901999GF107991999999999999999999MA1102811999999REMMET058METAR EDJA 061750Z 23011KT 9000 BKN006 BKN013 03/02 Q1028;
0143109470999992013010618204+47983+010233FM-15+0629EDJA V0202301N005710033019N0070001N1+00301+00201999999ADDGA1041+001801999GA2071+003301999GF107991999999999999999999MA1102911999999REMMET058METAR EDJA 061820Z 23011KT 7000 SCT006 BKN011 03/02 Q1029;
0130109470999992013010618504+47983+010233FM-15+0629EDJA V0202401N005710021019N0060001N1+00301+00201999999ADDGA1071+002101999GF107991999999999999999999MA1102811999999MW1611REMMET055METAR EDJA 061850Z 24011KT 6000 -RA BKN007 03/02 Q1028;
0129109470999992013010619204+47983+010233FM-15+0629EDJA V0202401N005710150019N0070001N1+00301+00201999999ADDGA1071+015001999GF107991999999999999999999MA1102811999999MW1531REMMET054METAR EDJA 061920Z 24011KT 7000 DZ BKN050 03/02 Q1028;
0120109470999992013010620204+47983+010233FM-15+0629EDJA V0202201N006210030019N0070001N1+00301+00201999999ADDGA1071+003001999GF107991999999999999999999MA1102811999999REMMET051METAR EDJA 062020Z 22012KT 7000 BKN010 03/02 Q1028;
0130109470999992013010620504+47983+010233FM-15+0629EDJA V0202201N006210018019N0060001N1+00301+00201999999ADDGA1071+001801999GF107991999999999999999999MA1102911999999MW1611REMMET055METAR EDJA 062050Z 22012KT 6000 -RA BKN006 03/02 Q1029;
0129109470999992013010704504+47983+010233FM-15+0629EDJA V0202101N004110033019N0050001N1+00301+00201999999ADDGA1081+003301999GF108991999999999999999999MA1102711999999MW1101REMMET054METAR EDJA 070450Z 21008KT 5000 BR OVC011 03/02 Q1027;
0152109470999992013010705204+47983+010233FM-15+0629EDJA V0202301N003610036019N0050001N1+00301+00201999999ADDGA1021+002101999GA2081+003601999GF108991999999999999999999MA1102711999999MW1101REMMET061METAR EDJA 070520Z 23007KT 5000 BR FEW007 OVC012 03/02 Q1027;
0120109470999992013010705504+47983+010233FM-15+0629EDJA V0202201N003610036019N0060001N1+00301+00201999999ADDGA1071+003601999GF107991999999999999999999MA1102711999999REMMET051METAR EDJA 070550Z 22007KT 6000 BKN012 03/02 Q1027;
0120109470999992013010706204+47983+010233FM-15+0629EDJA V0202201N002610030019N0060001N1+00301+00201999999ADDGA1071+003001999GF107991999999999999999999MA1102711999999REMMET051METAR EDJA 070620Z 22005KT 6000 BKN010 03/02 Q1027;
0120109470999992013010706504+47983+010233FM-15+0629EDJA V0202101N002610033019N0070001N1+00301+00201999999ADDGA1071+003301999GF107991999999999999999999MA1102811999999REMMET051METAR EDJA 070650Z 21005KT 7000 BKN011 03/02 Q1028;
0143109470999992013010707204+47983+010233FM-15+0629EDJA V0202001N003610054019N0060001N1+00301+00201999999ADDGA1071+005401999GA2071+006601999GF107991999999999999999999MA1102811999999REMMET058METAR EDJA 070720Z 20007KT 6000 BKN018 BKN022 03/02 Q1028;
0143109470999992013010707504+47983+010233FM-15+0629EDJA V0202201N002610051019N0070001N1+00301+00201999999ADDGA1041+003901999GA2071+005101999GF107991999999999999999999MA1102811999999REMMET058METAR EDJA 070750Z 22005KT 7000 SCT013 BKN017 03/02 Q1028;
0143109470999992013010708204+47983+010233FM-15+0629EDJA V0201901N001510048019N0060001N1+00301+00201999999ADDGA1041+003601999GA2071+004801999GF107991999999999999999999MA1102811999999REMMET058METAR EDJA 070820Z 19003KT 6000 SCT012 BKN016 03/02 Q1028;
0143109470999992013010708504+47983+010233FM-15+0629EDJA V0201901N002110054019N0070001N1+00301+00201999999ADDGA1041+003601999GA2071+005401999GF107991999999999999999999MA1102811999999REMMET058METAR EDJA 070850Z 19004KT 7000 SCT012 BKN018 03/02 Q1028;
0143109470999992013010709204+47983+010233FM-15+0629EDJA V0202201N002110060019N0070001N1+00301+00201999999ADDGA1041+004201999GA2071+006001999GF107991999999999999999999MA1102911999999REMMET058METAR EDJA 070920Z 22004KT 7000 SCT014 BKN020 03/02 Q1029;
0143109470999992013010709504+47983+010233FM-15+0629EDJA V0202301N001510048019N0070001N1+00401+00201999999ADDGA1041+003001999GA2071+004801999GF107991999999999999999999MA1102911999999REMMET058METAR EDJA 070950Z 23003KT 7000 SCT010 BKN016 04/02 Q1029;
0143109470999992013010710204+47983+010233FM-15+0629EDJA V0209999V001010084019N0060001N1+00401+00201999999ADDGA1041+002401999GA2071+008401999GF107991999999999999999999MA1102911999999REMMET058METAR EDJA 071020Z VRB02KT 6000 SCT008 BKN028 04/02 Q1029;
0120109470999992013010710504+47983+010233FM-15+0629EDJA V0209999V001510027019N0070001N1+00401+00301999999ADDGA1071+002701999GF107991999999999999999999MA1102811999999REMMET051METAR EDJA 071050Z VRB03KT 7000 BKN009 04/03 Q1028;
0143109470999992013010711204+47983+010233FM-15+0629EDJA V0209999V001510027019N0080001N1+00401+00301999999ADDGA1071+002701999GA2071+007801999GF107991999999999999999999MA1102811999999REMMET058METAR EDJA 071120Z VRB03KT 8000 BKN009 BKN026 04/03 Q1028;
0143109470999992013010711504+47983+010233FM-15+0629EDJA V0201901N002110024019N0080001N1+00401+00301999999ADDGA1071+002401999GA2071+008401999GF107991999999999999999999MA1102711999999REMMET058METAR EDJA 071150Z 19004KT 8000 BKN008 BKN028 04/03 Q1027;
0120109470999992013010712204+47983+010233FM-15+0629EDJA V0202001N001512200019N0090001N1+00401+00301999999ADDGA1041+002401999GF104991999999999999999999MA1102711999999REMMET051METAR EDJA 071220Z 20003KT 9000 SCT008 04/03 Q1027;
0120109470999992013010712504+47983+010233FM-15+0629EDJA V0209999V001512200019N0112651N1+00501+00301999999ADDGA1041+003001999GF104991999999999999999999MA1102711999999REMMET051METAR EDJA 071250Z VRB03KT 9999 SCT010 05/03 Q1027;
0120109470999992013010713204+47983+010233FM-15+0629EDJA V0209999V001012200019N0112651N1+00501+00201999999ADDGA1041+002701999GF104991999999999999999999MA1102711999999REMMET051METAR EDJA 071320Z VRB02KT 9999 SCT009 05/02 Q1027;
0120109470999992013010713504+47983+010233FM-15+0629EDJA V0209999V001012200019N0112651N1+00501+00201999999ADDGA1021+003601999GF102991999999999999999999MA1102711999999REMMET051METAR EDJA 071350Z VRB02KT 9999 FEW012 05/02 Q1027;
0143109470999992013010714204+47983+010233FM-15+0629EDJA V0203601N001512200019N0112651N1+00501+00201999999ADDGA1021+003601999GA2041+007201999GF104991999999999999999999MA1102711999999REMMET058METAR EDJA 071420Z 36003KT 9999 FEW012 SCT024 05/02 Q1027;
0120109470999992013010714504+47983+010233FM-15+0629EDJA V0203501N002112200019N0112651N1+00501+00201999999ADDGA1041+006301999GF104991999999999999999999MA1102711999999REMMET051METAR EDJA 071450Z 35004KT 9999 SCT021 05/02 Q1027;
0120109470999992013010715204+47983+010233FM-15+0629EDJA V0209999V001012200019N0080001N1+00401+00301999999ADDGA1041+006601999GF104991999999999999999999MA1102711999999REMMET051METAR EDJA 071520Z VRB02KT 8000 SCT022 04/03 Q1027;
0120109470999992013010715504+47983+010233FM-15+0629EDJA V0201501N002112200019N0090001N1+00401+00301999999ADDGF100991999999999999999999MA1102711999999REMMET048METAR EDJA 071550Z 15004KT 9000 NSC 04/03 Q1027;EQDQ01    003SCCGA1
0120109470999992013010716204+47983+010233FM-15+0629EDJA V0201501N002112200019N0070001N1+00401+00201999999ADDGF100991999999999999999999MA1102711999999REMMET048METAR EDJA 071620Z 15004KT 7000 NSC 04/02 Q1027;EQDQ01    003SCCGA1
0120109470999992013010716504+47983+010233FM-15+0629EDJA V0201301N001512200019N0070001N1+00301+00201999999ADDGF100991999999999999999999MA1102711999999REMMET048METAR EDJA 071650Z 13003KT 7000 SKC 03/02 Q1027;EQDQ01    003SCCGA1
0120109470999992013010717204+47983+010233FM-15+0629EDJA V0209999V001012200019N0060001N1+00301+00201999999ADDGF100991999999999999999999MA1102711999999REMMET048METAR EDJA 071720Z VRB02KT 6000 SKC 03/02 Q1027;EQDQ01    003SCCGA1
0120109470999992013010717504+47983+010233FM-15+0629EDJA V0202901N001012200019N0060001N1+00201+00201999999ADDGF100991999999999999999999MA1102711999999REMMET048METAR EDJA 071750Z 29002KT 6000 NSC 02/02 Q1027;EQDQ01    003SCCGA1
0120109470999992013010718204+47983+010233FM-15+0629EDJA V0200101N001012200019N0060001N1+00201+00201999999ADDGF100991999999999999999999MA1102711999999REMMET048METAR EDJA 071820Z 01002KT 6000 NSC 02/02 Q1027;EQDQ01    003SCCGA1
0129109470999992013010718504+47983+010233FM-15+0629EDJA V0209999C000012200019N0045001N1+00201+00101999999ADDGF100991999999999999999999MA1102711999999MW1101REMMET051METAR EDJA 071850Z 00000KT 4500 BR SKC 02/01 Q1027;EQDQ01    003SCCGA1
0129109470999992013010719204+47983+010233FM-15+0629EDJA V0209999C000012200019N0033001N1+00201+00101999999ADDGF100991999999999999999999MA1102711999999MW1101REMMET051METAR EDJA 071920Z 00000KT 3300 BR NSC 02/01 Q1027;EQDQ01    003SCCGA1
0129109470999992013010719504+47983+010233FM-15+0629EDJA V0201701N000512200019N0034001N1+00201+00101999999ADDGF100991999999999999999999MA1102711999999MW1101REMMET051METAR EDJA 071950Z 17001KT 3400 BR NSC 02/01 Q1027;EQDQ01    003SCCGA1
0129109470999992013010720204+47983+010233FM-15+0629EDJA V0201801N002112200019N0045001N1+00201+00101999999ADDGF100991999999999999999999MA1102711999999MW1101REMMET051METAR EDJA 072020Z 18004KT 4500 BR NSC 02/01 Q1027;EQDQ01    003SCCGA1
0129109470999992013010720504+47983+010233FM-15+0629EDJA V0201601N001012200019N0042001N1+00201+00101999999ADDGF100991999999999999999999MA1102711999999MW1101REMMET051METAR EDJA 072050Z 16002KT 4200 BR NSC 02/01 Q1027;EQDQ01    003SCCGA1
0129109470999992013010804504+47983+010233FM-15+0629EDJA V0202101N002112200019N0045001N1+00101+00001999999ADDGF100991999999999999999999MA1102401999999MW1101REMMET051METAR EDJA 080450Z 21004KT 4500 BR NSC 01/00 Q1024;EQDQ01    003SCCGA1
0129109470999992013010805204+47983+010233FM-15+0629EDJA V0202501N003612200019N0045001N1+00101+00101999999ADDGA1041+001201999GF104991999999999999999999MA1102401999999MW1101REMMET054METAR EDJA 080520Z 25007KT 4500 BR SCT004 01/01 Q1024;
0152109470999992013010805504+47983+010233FM-15+0629EDJA V0202301N003610420019N0045001N1+00101+00101999999ADDGA1041+001501999GA2071+042001999GF107991999999999999999999MA1102401999999MW1101REMMET061METAR EDJA 080550Z 23007KT 4500 BR SCT005 BKN140 01/01 Q1024;
0129109470999992013010806204+47983+010233FM-15+0629EDJA V0202101N002612200019N0050001N1+00101+00001999999ADDGF100991999999999999999999MA1102401999999MW1101REMMET051METAR EDJA 080620Z 21005KT 5000 BR NSC 01/00 Q1024;EQDQ01    003SCCGA1
0129109470999992013010806504+47983+010233FM-15+0629EDJA V0202301N003612200019N0045001N1+00101+00101999999ADDGA1041+001501999GF104991999999999999999999MA1102401999999MW1101REMMET054METAR EDJA 080650Z 23007KT 4500 BR SCT005 01/01 Q1024;
0129109470999992013010807204+47983+010233FM-15+0629EDJA V0202301N002612200019N0045001N1+00101+00001999999ADDGA1041+001501999GF104991999999999999999999MA1102401999999MW1101REMMET054METAR EDJA 080720Z 23005KT 4500 BR SCT005 01/00 Q1024;
0129109470999992013010807504+47983+010233FM-15+0629EDJA V0202301N004110015019N0040001N1+00101+00101999999ADDGA1071+001501999GF107991999999999999999999MA1102511999999MW1101REMMET054METAR EDJA 080750Z 23008KT 4000 BR BKN005 01/01 Q1025;
0129109470999992013010808204+47983+010233FM-15+0629EDJA V0202301N004110015019N0040001N1+00201+00101999999ADDGA1071+001501999GF107991999999999999999999MA1102511999999MW1101REMMET054METAR EDJA 080820Z 23008KT 4000 BR BKN005 02/01 Q1025;
0129109470999992013010808504+47983+010233FM-15+0629EDJA V0202201N003612200019N0045001N1+00201+00101999999ADDGA1041+001501999GF104991999999999999999999MA1102511999999MW1101REMMET054METAR EDJA 080850Z 22007KT 4500 BR SCT005 02/01 Q1025;
0120109470999992013010809204+47983+010233FM-15+0629EDJA V0202301N004110018019N0060001N1+00201+00101999999ADDGA1071+001801999GF107991999999999999999999MA1102511999999REMMET051METAR EDJA 080920Z 23008KT 6000 BKN006 02/01 Q1025;
0129109470999992013010809504+47983+010233FM-15+0629EDJA V0202301N003612200019N0045001N1+00301+00201999999ADDGA1041+001801999GF104991999999999999999999MA1102511999999MW1101REMMET054METAR EDJA 080950Z 23007KT 4500 BR SCT006 03/02 Q1025;
0120109470999992013010810204+47983+010233FM-15+0629EDJA V0202201N004112200019N0060001N1+00301+00201999999ADDGA1041+002101999GF104991999999999999999999MA1102511999999REMMET051METAR EDJA 081020Z 22008KT 6000 SCT007 03/02 Q1025;
0120109470999992013010810504+47983+010233FM-15+0629EDJA V0202201N003612200019N0070001N1+00301+00201999999ADDGA1021+002101999GF102991999999999999999999MA1102511999999REMMET051METAR EDJA 081050Z 22007KT 7000 FEW007 03/02 Q1025;
0072109470999992013010811204+47983+010233FM-15+0629EDJA V0202301N003119999999Y0099001N1+00401+00201999999ADDMA1102511999999REMMET045METAR EDJA 081120Z 23006KT CAVOK 04/02 Q1025;
0120109470999992013010811504+47983+010233FM-15+0629EDJA V0202401N004112200019N0090001N1+00401+00201999999ADDGF100991999999999999999999MA1102401999999REMMET048METAR EDJA 081150Z 24008KT 9000 NSC 04/02 Q1024;EQDQ01    003SCCGA1
0120109470999992013010812204+47983+010233FM-15+0629EDJA V0202401N004112200019N0090001N1+00401+00201999999ADDGF100991999999999999999999MA1102401999999REMMET048METAR EDJA 081220Z 24008KT 9000 NSC 04/02 Q1024;EQDQ01    003SCCGA1
0072109470999992013010812504+47983+010233FM-15+0629EDJA V0202401N004119999999Y0099001N1+00401+00201999999ADDMA1102401999999REMMET045METAR EDJA 081250Z 24008KT CAVOK 04/02 Q1024;
0072109470999992013010813204+47983+010233FM-15+0629EDJA V0202301N003619999999Y0099001N1+00501+00201999999ADDMA1102401999999REMMET045METAR EDJA 081320Z 23007KT CAVOK 05/02 Q1024;
0072109470999992013010813504+47983+010233FM-15+0629EDJA V0202501N003619999999Y0099001N1+00501+00101999999ADDMA1102401999999REMMET045METAR EDJA 081350Z 25007KT CAVOK 05/01 Q1024;
0072109470999992013010814204+47983+010233FM-15+0629EDJA V0202301N003619999999Y0099001N1+00501+00101999999ADDMA1102401999999REMMET045METAR EDJA 081420Z 23007KT CAVOK 05/01 Q1024;
0072109470999992013010814504+47983+010233FM-15+0629EDJA V0202301N004119999999Y0099001N1+00401+00101999999ADDMA1102401999999REMMET045METAR EDJA 081450Z 23008KT CAVOK 04/01 Q1024;
0072109470999992013010815204+47983+010233FM-15+0629EDJA V0202301N005119999999Y0099001N1+00401+00001999999ADDMA1102301999999REMMET045METAR EDJA 081520Z 23010KT CAVOK 04/00 Q1023;
0072109470999992013010815504+47983+010233FM-15+0629EDJA V0202401N002619999999Y0099001N1+00401+00001999999ADDMA1102401999999REMMET045METAR EDJA 081550Z 24005KT CAVOK 04/00 Q1024;
0072109470999992013010816204+47983+010233FM-15+0629EDJA V0202401N003119999999Y0099001N1+00401+00101999999ADDMA1102401999999REMMET045METAR EDJA 081620Z 24006KT CAVOK 04/01 Q1024;
0072109470999992013010816504+47983+010233FM-15+0629EDJA V0202301N002619999999Y0099001N1+00401+00101999999ADDMA1102401999999REMMET045METAR EDJA 081650Z 23005KT CAVOK 04/01 Q1024;
0072109470999992013010817204+47983+010233FM-15+0629EDJA V0202301N003119999999Y0099001N1+00301+00101999999ADDMA1102401999999REMMET045METAR EDJA 081720Z 23006KT CAVOK 03/01 Q1024;
0072109470999992013010817504+47983+010233FM-15+0629EDJA V0202501N001519999999Y0099001N1+00301+00101999999ADDMA1102511999999REMMET045METAR EDJA 081750Z 25003KT CAVOK 03/01 Q1025;
0120109470999992013010818204+47983+010233FM-15+0629EDJA V0202401N002112200019N0090001N1+00301+00101999999ADDGF100991999999999999999999MA1102511999999REMMET048METAR EDJA 081820Z 24004KT 9000 NSC 03/01 Q1025;EQDQ01    003SCCGA1
0120109470999992013010818504+47983+010233FM-15+0629EDJA V0209999C000012200019N0090001N1+00301+00101999999ADDGF100991999999999999999999MA1102511999999REMMET048METAR EDJA 081850Z 00000KT 9000 NSC 03/01 Q1025;EQDQ01    003SCCGA1
0120109470999992013010819204+47983+010233FM-15+0629EDJA V0202501N002112200019N0080001N1+00201+00001999999ADDGF100991999999999999999999MA1102401999999REMMET048METAR EDJA 081920Z 25004KT 8000 NSC 02/00 Q1024;EQDQ01    003SCCGA1
0120109470999992013010819504+47983+010233FM-15+0629EDJA V0202501N002612200019N0080001N1+00201+00001999999ADDGF100991999999999999999999MA1102511999999REMMET048METAR EDJA 081950Z 25005KT 8000 NSC 02/00 Q1025;EQDQ01    003SCCGA1
0120109470999992013010820204+47983+010233FM-15+0629EDJA V0203101N001512200019N0070001N1+00201+00001999999ADDGF100991999999999999999999MA1102511999999REMMET048METAR EDJA 082020Z 31003KT 7000 NSC 02/00 Q1025;EQDQ01    003SCCGA1
0120109470999992013010820504+47983+010233FM-15+0629EDJA V0209999V001512200019N0070001N1+00101+00001999999ADDGF100991999999999999999999MA1102401999999REMMET048METAR EDJA 082050Z VRB03KT 7000 NSC 01/00 Q1024;EQDQ01    003SCCGA1
0138109470999992013010904504+47983+010233FM-15+0629EDJA V0203001N002110015019N0046001N1+00101+00001999999ADDGA1081+001501999GF108991999999999999999999MA1102201999999MW1101REMMET063METAR EDJA 090450Z 30004KT 270V330 4600 BR OVC005 01/M00 Q1022;
0130109470999992013010905204+47983+010233FM-15+0629EDJA V0203001N002110012019N0049001N1+00101+00001999999ADDGA1081+001201999GF108991999999999999999999MA1102201999999MW1101REMMET055METAR EDJA 090520Z 30004KT 4900 BR OVC004 01/M00 Q1022;
0130109470999992013010905504+47983+010233FM-15+0629EDJA V0209999V001010012019N0048001N1+00001+00001999999ADDGA1071+001201999GF107991999999999999999999MA1102201999999MW1101REMMET055METAR EDJA 090550Z VRB02KT 4800 BR BKN004 00/M00 Q1022;
0138109470999992013010906204+47983+010233FM-15+0629EDJA V0201901N002110009019N0041001N1+00001+00001999999ADDGA1071+000901999GF107991999999999999999999MA1102201999999MW1101REMMET063METAR EDJA 090620Z 19004KT 140V200 4100 BR BKN003 00/M00 Q1022;
0161109470999992013010906504+47983+010233FM-15+0629EDJA V0201901N003110006019N0011001N1+00001-00101999999ADDED124U20009GA1071+000601999GF107991999999999999999999MA1102201999999MW1101REMMET075METAR EDJA 090650Z 19006KT 170V250 1100 R24/P2000N BR BKN002 M00/M01 Q1022;
0154109470999992013010906524+47983+010233FM-16+0629EDJA V0202001N00311000151CN0008001N1+00001-00101999999ADDED124U20009GA1091+000151999GF109991999999000251999999MA1102201999999MW1491REMMET068SPECI EDJA 090652Z 20006KT 0800 R24/P2000N FZFG VV/// M00/M01 Q1022;
0159109470999992013010907204+47983+010233FM-15+0629EDJA V0209999V00151000151CN0009001N1+00001-00101999999ADDED124U12009GA1091+000151999GF109991999999000251999999MA1102201999999MW1491REMMET073METAR EDJA 090720Z VRB03KT 0900 R24/1200VP2000D FZFG VV/// M00/M01 Q1022;
0166109470999992013010907504+47983+010233FM-15+0629EDJA V0202101N00211000151CN0005001N1+00001-00101999999ADDED124U10009GA1091+000151999GF109991999999000251999999MA1102201999999MW1491REMMET080METAR EDJA 090750Z 21004KT 180V250 0500 R24/1000V2000U FZFG VV/// M00/M01 Q1022;
0167109470999992013010908504+47983+010233FM-15+0629EDJA V0202001N00261000151CN0008001N1+00001-00101999999ADDED124U09009GA1091+000151999GF109991999999000251999999MA1102101999999MW1491REMMET081METAR EDJA 090850Z 20005KT 140V240 0800 R24/0900VP2000D FZFG VV/// M00/M01 Q1021;
0155109470999992013010909204+47983+010233FM-15+0629EDJA V0202001N003110006019N0009001N1+00001+00001999999ADDED124U20009GA1071+000601999GF107991999999999999999999MA1102101999999MW1481REMMET069METAR EDJA 090920Z 20006KT 0900 R24/P2000N FZFG BKN002 M00/M00 Q1021;
0131109470999992013010909504+47983+010233FM-15+0629EDJA V0209999V001510009019N0030001N1+00001-00101999999ADDGA1071+000901999GF107991999999999999999999MA1102101999999MW1101REMMET056METAR EDJA 090950Z VRB03KT 3000 BR BKN003 M00/M01 Q1021;
0129109470999992013010910204+47983+010233FM-15+0629EDJA V0209999V001512200019N0040001N1+00001+00001999999ADDGA1041+001201999GF104991999999999999999999MA1102101999999MW1101REMMET054METAR EDJA 091020Z VRB03KT 4000 BR SCT004 00/00 Q1021;
0138109470999992013010910504+47983+010233FM-15+0629EDJA V0202201N002112200019N0048001N1+00101-00101999999ADDGA1041+001501999GF104991999999999999999999MA1102001999999MW1101REMMET063METAR EDJA 091050Z 22004KT 190V250 4800 BR SCT005 01/M01 Q1020;
0121109470999992013010911204+47983+010233FM-15+0629EDJA V0209999V001510021019N0070001N1+00101-00101999999ADDGA1071+002101999GF107991999999999999999999MA1102001999999REMMET052METAR EDJA 091120Z VRB03KT 7000 BKN007 01/M01 Q1020;
0121109470999992013010911504+47983+010233FM-15+0629EDJA V0209999V001510021019N0080001N1+00101+00001999999ADDGA1071+002101999GF107991999999999999999999MA1101901999999REMMET052METAR EDJA 091150Z VRB03KT 8000 BKN007 01/M00 Q1019;
0121109470999992013010912204+47983+010233FM-15+0629EDJA V0209999V001512200019N0090001N1+00201-00101999999ADDGA1041+002101999GF104991999999999999999999MA1101901999999REMMET052METAR EDJA 091220Z VRB03KT 9000 SCT007 02/M01 Q1019;
0121109470999992013010912504+47983+010233FM-15+0629EDJA V0209999V001512200019N0112651N1+00201+00001999999ADDGA1021+002401999GF102991999999999999999999MA1101801999999REMMET052METAR EDJA 091250Z VRB03KT 9999 FEW008 02/M00 Q1018;
0080109470999992013010913204+47983+010233FM-15+0629EDJA V0202401N002119999999Y0099001N1+00301+00001999999ADDMA1101801999999REMMET053METAR EDJA 091320Z 24004KT 190V270 CAVOK 03/00 Q1018;
0081109470999992013010913504+47983+010233FM-15+0629EDJA V0202401N002119999999Y0099001N1+00301+00001999999ADDMA1101801999999REMMET054METAR EDJA 091350Z 24004KT 210V270 CAVOK 03/M00 Q1018;
0073109470999992013010914204+47983+010233FM-15+0629EDJA V0202401N002619999999Y0099001N1+00301+00001999999ADDMA1101801999999REMMET046METAR EDJA 091420Z 24005KT CAVOK 03/M00 Q1018;
0073109470999992013010914504+47983+010233FM-15+0629EDJA V0202501N001519999999Y0099001N1+00201+00001999999ADDMA1101801999999REMMET046METAR EDJA 091450Z 25003KT CAVOK 02/M00 Q1018;
0072109470999992013010915204+47983+010233FM-15+0629EDJA V0202101N002119999999Y0099001N1+00201+00001999999ADDMA1101691999999REMMET045METAR EDJA 091520Z 21004KT CAVOK 02/00 Q1017;
0121109470999992013010915504+47983+010233FM-15+0629EDJA V0202201N002112200019N0090001N1+00201+00001999999ADDGF100991999999999999999999MA1101691999999REMMET049METAR EDJA 091550Z 22004KT 9000 SKC 02/M00 Q1017;EQDQ01    003SCCGA1
0121109470999992013010916204+47983+010233FM-15+0629EDJA V0202301N001512200019N0090001N1+00101-00101999999ADDGF100991999999999999999999MA1101691999999REMMET049METAR EDJA 091620Z 23003KT 9000 NSC 01/M01 Q1017;EQDQ01    003SCCGA1
0073109470999992013010916504+47983+010233FM-15+0629EDJA V0202601N001519999999Y0099001N1+00001-00201999999ADDMA1101591999999REMMET046METAR EDJA 091650Z 26003KT CAVOK 00/M02 Q1016;
0073109470999992013010917204+47983+010233FM-15+0629EDJA V0202801N001519999999Y0099001N1+00001-00201999999ADDMA1101591999999REMMET046METAR EDJA 091720Z 28003KT CAVOK 00/M02 Q1016;
0122109470999992013010917504+47983+010233FM-15+0629EDJA V0202501N002112200019N0090001N1+00001-00201999999ADDGF100991999999999999999999MA1101591999999REMMET050METAR EDJA 091750Z 25004KT 9000 NSC M00/M02 Q1016;EQDQ01    003SCCGA1
0122109470999992013010918204+47983+010233FM-15+0629EDJA V0202701N002612200019N0090001N1-00101-00201999999ADDGF100991999999999999999999MA1101691999999REMMET050METAR EDJA 091820Z 27005KT 9000 NSC M01/M02 Q1017;EQDQ01    003SCCGA1
0122109470999992013010918504+47983+010233FM-15+0629EDJA V0202401N003112200019N0080001N1-00101-00201999999ADDGF100991999999999999999999MA1101591999999REMMET050METAR EDJA 091850Z 24006KT 8000 NSC M01/M02 Q1016;EQDQ01    003SCCGA1
0122109470999992013010919204+47983+010233FM-15+0629EDJA V0202401N003112200019N0080001N1+00001-00201999999ADDGF100991999999999999999999MA1101591999999REMMET050METAR EDJA 091920Z 24006KT 8000 NSC M00/M02 Q1016;EQDQ01    003SCCGA1
0122109470999992013010919504+47983+010233FM-15+0629EDJA V0202401N004112200019N0080001N1+00001-00201999999ADDGF100991999999999999999999MA1101591999999REMMET050METAR EDJA 091950Z 24008KT 8000 NSC M00/M02 Q1016;EQDQ01    003SCCGA1
0122109470999992013010920204+47983+010233FM-15+0629EDJA V0202501N003112200019N0080001N1-00101-00201999999ADDGF100991999999999999999999MA1101591999999REMMET050METAR EDJA 092020Z 25006KT 8000 NSC M01/M02 Q1016;EQDQ01    003SCCGA1
0122109470999992013010920504+47983+010233FM-15+0629EDJA V0202201N004112200019N0090001N1-00101-00201999999ADDGF100991999999999999999999MA1101591999999REMMET050METAR EDJA 092050Z 22008KT 9000 NSC M01/M02 Q1016;EQDQ01    003SCCGA1
0145109470999992013011004504+47983+010233FM-15+0629EDJA V0202201N004110030019N0060001N1+00001+00001999999ADDGA1021+001501999GA2071+003001999GF107991999999999999999999MA1101391999999REMMET060METAR EDJA 100450Z 22008KT 6000 FEW005 BKN010 M00/M00 Q1014;
0144109470999992013011005204+47983+010233FM-15+0629EDJA V0202401N003610033019N0060001N1+00001+00001999999ADDGA1041+001801999GA2071+003301999GF107991999999999999999999MA1101391999999REMMET059METAR EDJA 100520Z 24007KT 6000 SCT006 BKN011 00/M00 Q1014;
0144109470999992013011005504+47983+010233FM-15+0629EDJA V0202401N003110033019N0050001N1+00001+00001999999ADDGA1041+001801999GA2071+003301999GF107991999999999999999999MA1101391999999REMMET059METAR EDJA 100550Z 24006KT 5000 SCT006 BKN011 00/M00 Q1014;
0144109470999992013011006204+47983+010233FM-15+0629EDJA V0202301N003610033019N0060001N1+00001+00001999999ADDGA1041+001501999GA2071+003301999GF107991999999999999999999MA1101391999999REMMET059METAR EDJA 100620Z 23007KT 6000 SCT005 BKN011 00/M00 Q1014;
0130109470999992013011006504+47983+010233FM-15+0629EDJA V0202501N003110015019N0045001N1+00001+00001999999ADDGA1071+001501999GF107991999999999999999999MA1101391999999MW1101REMMET055METAR EDJA 100650Z 25006KT 4500 BR BKN005 00/M00 Q1014;
0153109470999992013011007204+47983+010233FM-15+0629EDJA V0202301N004610015019N0060001N1+00001+00001999999ADDGA1071+001501999GA2071+002701999GF107991999999999999999999MA1101391999999MW1101REMMET062METAR EDJA 100720Z 23009KT 6000 BR BKN005 BKN009 00/M00 Q1014;
0153109470999992013011007504+47983+010233FM-15+0629EDJA V0202201N004610015019N0060001N1+00001+00001999999ADDGA1071+001501999GA2071+003001999GF107991999999999999999999MA1101391999999MW1101REMMET062METAR EDJA 100750Z 22009KT 6000 BR BKN005 BKN010 00/M00 Q1014;
0130109470999992013011008204+47983+010233FM-15+0629EDJA V0202301N003110015019N0050001N1+00001+00001999999ADDGA1071+001501999GF107991999999999999999999MA1101391999999MW1101REMMET055METAR EDJA 100820Z 23006KT 5000 BR BKN005 00/M00 Q1014;
0130109470999992013011008504+47983+010233FM-15+0629EDJA V0202301N003610015019N0050001N1+00001+00001999999ADDGA1071+001501999GF107991999999999999999999MA1101391999999MW1101REMMET055METAR EDJA 100850Z 23007KT 5000 BR BKN005 00/M00 Q1014;
0130109470999992013011009204+47983+010233FM-15+0629EDJA V0202301N003110012019N0050001N1+00001+00001999999ADDGA1081+001201999GF108991999999999999999999MA1101391999999MW1101REMMET055METAR EDJA 100920Z 23006KT 5000 BR OVC004 00/M00 Q1014;
0130109470999992013011009504+47983+010233FM-15+0629EDJA V0202201N003610012019N0050001N1+00101+00001999999ADDGA1081+001201999GF108991999999999999999999MA1101391999999MW1101REMMET055METAR EDJA 100950Z 22007KT 5000 BR OVC004 01/M00 Q1014;
0130109470999992013011009524+47983+010233FM-16+0629EDJA V0202101N003610012019N0050001N1+00101+00001999999ADDGA1071+001201999GF107991999999999999999999MA1101291999999MW1101REMMET055SPECI EDJA 100952Z 21007KT 5000 BR BKN004 01/M00 Q1013;
0152109470999992013011010204+47983+010233FM-15+0629EDJA V0202201N004610012019N0050001N1+00101+00001999999ADDGA1021+000901999GA2071+001201999GF107991999999999999999999MA1101291999999MW1101REMMET061METAR EDJA 101020Z 22009KT 5000 BR FEW003 BKN004 01/00 Q1013;
0152109470999992013011010504+47983+010233FM-15+0629EDJA V0202401N006210015019N0050001N1+00101+00001999999ADDGA1041+000901999GA2071+001501999GF107991999999999999999999MA1101291999999MW1101REMMET061METAR EDJA 101050Z 24012KT 5000 BR SCT003 BKN005 01/00 Q1013;
0120109470999992013011011204+47983+010233FM-15+0629EDJA V0202301N007210015019N0080001N1+00101+00101999999ADDGA1071+001501999GF107991999999999999999999MA1101191999999REMMET051METAR EDJA 101120Z 23014KT 8000 BKN005 01/01 Q1012;
0120109470999992013011011504+47983+010233FM-15+0629EDJA V0202301N006710018019N0090001N1+00201+00101999999ADDGA1071+001801999GF107991999999999999999999MA1101191999999REMMET051METAR EDJA 101150Z 23013KT 9000 BKN006 02/01 Q1012;
0120109470999992013011012204+47983+010233FM-15+0629EDJA V0202501N006210018019N0090001N1+00201+00101999999ADDGA1071+001801999GF107991999999999999999999MA1101191999999REMMET051METAR EDJA 101220Z 25012KT 9000 BKN006 02/01 Q1012;
0120109470999992013011012504+47983+010233FM-15+0629EDJA V0202301N005710012019N0080001N1+00101+00001999999ADDGA1071+001201999GF107991999999999999999999MA1101191999999REMMET051METAR EDJA 101250Z 23011KT 8000 BKN004 01/00 Q1012;
0129109470999992013011013204+47983+010233FM-15+0629EDJA V0202301N005110009019N0050001N1+00101+00101999999ADDGA1071+000901999GF107991999999999999999999MA1101191999999MW1101REMMET054METAR EDJA 101320Z 23010KT 5000 BR BKN003 01/01 Q1012;
0120109470999992013011013504+47983+010233FM-15+0629EDJA V0202201N005710012019N0070001N1+00101+00101999999ADDGA1071+001201999GF107991999999999999999999MA1101191999999REMMET051METAR EDJA 101350Z 22011KT 7000 BKN004 01/01 Q1012;
0129109470999992013011014204+47983+010233FM-15+0629EDJA V0202201N005110012019N0050001N1+00101+00101999999ADDGA1071+001201999GF107991999999999999999999MA1101081999999MW1101REMMET054METAR EDJA 101420Z 22010KT 5000 BR BKN004 01/01 Q1011;
0130109470999992013011014504+47983+010233FM-15+0629EDJA V0202201N005710018019N0050001N1+00101+00101999999ADDGA1081+001801999GF108991999999999999999999MA1101081999999MW1611REMMET055METAR EDJA 101450Z 22011KT 5000 -RA OVC006 01/01 Q1011;
0130109470999992013011015204+47983+010233FM-15+0629EDJA V0202201N005710015019N0060001N1+00101+00001999999ADDGA1071+001501999GF107991999999999999999999MA1101081999999MW1611REMMET055METAR EDJA 101520Z 22011KT 6000 -RA BKN005 01/00 Q1011;
0120109470999992013011015504+47983+010233FM-15+0629EDJA V0202401N006210018019N0090001N1+00101+00001999999ADDGA1071+001801999GF107991999999999999999999MA1101081999999REMMET051METAR EDJA 101550Z 24012KT 9000 BKN006 01/00 Q1011;
0120109470999992013011016204+47983+010233FM-15+0629EDJA V0202401N007210018019N0070001N1+00101+00101999999ADDGA1071+001801999GF107991999999999999999999MA1101021999999REMMET051METAR EDJA 101620Z 24014KT 7000 BKN006 01/01 Q1010;
0120109470999992013011016504+47983+010233FM-15+0629EDJA V0202401N006210018019N0112651N1+00101+00001999999ADDGA1071+001801999GF107991999999999999999999MA1101081999999REMMET051METAR EDJA 101650Z 24012KT 9999 BKN006 01/00 Q1011;
0120109470999992013011017204+47983+010233FM-15+0629EDJA V0202401N006210012019N0070001N1+00101+00001999999ADDGA1071+001201999GF107991999999999999999999MA1101081999999REMMET051METAR EDJA 101720Z 24012KT 7000 BKN004 01/00 Q1011;
0120109470999992013011017504+47983+010233FM-15+0629EDJA V0202301N006210012019N0060001N1+00101+00101999999ADDGA1071+001201999GF107991999999999999999999MA1101021999999REMMET051METAR EDJA 101750Z 23012KT 6000 BKN004 01/01 Q1010;
0130109470999992013011018204+47983+010233FM-15+0629EDJA V0202301N006210015019N0060001N1+00101+00101999999ADDGA1071+001501999GF107991999999999999999999MA1101021999999MW1611REMMET055METAR EDJA 101820Z 23012KT 6000 -RA BKN005 01/01 Q1010;
0152109470999992013011018504+47983+010233FM-15+0629EDJA V0202301N005710015019N0050001N1+00101+00001999999ADDGA1071+001501999GA2071+006001999GF107991999999999999999999MA1101021999999MW1731REMMET061METAR EDJA 101850Z 23011KT 5000 SN BKN005 BKN020 01/00 Q1010;
0154109470999992013011019204+47983+010233FM-15+0629EDJA V0202201N005110015019N0060001N1+00001+00001999999ADDGA1071+001501999GA2071+005101999GF107991999999999999999999MA1101021999999MW1711REMMET063METAR EDJA 101920Z 22010KT 6000 -SN BKN005 BKN017 00/M00 Q1010;
0131109470999992013011019504+47983+010233FM-15+0629EDJA V0202601N002110012019N0050001N1+00001+00001999999ADDGA1071+001201999GF107991999999999999999999MA1101021999999MW1711REMMET056METAR EDJA 101950Z 26004KT 5000 -SN BKN004 00/M00 Q1010;
0131109470999992013011020204+47983+010233FM-15+0629EDJA V0202701N001010012019N0043001N1+00001+00001999999ADDGA1071+001201999GF107991999999999999999999MA1101021999999MW1711REMMET056METAR EDJA 102020Z 27002KT 4300 -SN BKN004 00/M00 Q1010;
0121109470999992013011104504+47983+010233FM-15+0629EDJA V0203001N003610063019N0112651N1+00001-00101999999ADDGA1071+006301999GF107991999999999999999999MA1100911999999REMMET052METAR EDJA 110450Z 30007KT 9999 BKN021 00/M01 Q1009;
0121109470999992013011105204+47983+010233FM-15+0629EDJA V0202901N003610069019N0112651N1+00001-00101999999ADDGA1071+006901999GF107991999999999999999999MA1100911999999REMMET052METAR EDJA 110520Z 29007KT 9999 BKN023 00/M01 Q1009;
0121109470999992013011105504+47983+010233FM-15+0629EDJA V0202901N003110090019N0112651N1+00001-00201999999ADDGA1071+009001999GF107991999999999999999999MA1101021999999REMMET052METAR EDJA 110550Z 29006KT 9999 BKN030 00/M02 Q1010;
0122109470999992013011106204+47983+010233FM-15+0629EDJA V0202701N003110096019N0112651N1-00101-00201999999ADDGA1071+009601999GF107991999999999999999999MA1101021999999REMMET053METAR EDJA 110620Z 27006KT 9999 BKN032 M01/M02 Q1010;
0122109470999992013011106504+47983+010233FM-15+0629EDJA V0202401N004110120019N0112651N1-00101-00201999999ADDGA1071+012001999GF107991999999999999999999MA1101021999999REMMET053METAR EDJA 110650Z 24008KT 9999 BKN040 M01/M02 Q1010;
0130109470999992013011107204+47983+010233FM-15+0629EDJA V0202301N002610090019N0112651N1-00101-00201999999ADDGA1071+009001999GF107991999999999999999999MA1101081999999REMMET061METAR EDJA 110720Z 23005KT 200V260 9999 BKN030 M01/M02 Q1011;
0122109470999992013011107504+47983+010233FM-15+0629EDJA V0202301N002610099019N0112651N1+00001-00201999999ADDGA1071+009901999GF107991999999999999999999MA1101081999999REMMET053METAR EDJA 110750Z 23005KT 9999 BKN033 M00/M02 Q1011;
0130109470999992013011108204+47983+010233FM-15+0629EDJA V0202401N002610093019N0112651N1+00001-00201999999ADDGA1071+009301999GF107991999999999999999999MA1101191999999REMMET061METAR EDJA 110820Z 24005KT 200V260 9999 BKN031 M00/M02 Q1012;
0140109470999992013011109204+47983+010233FM-15+0629EDJA V0202201N002610060019N0112651N1+00001-00201999999ADDGA1071+006001999GF107991999999999999999999MA1101191999999MW1711REMMET065METAR EDJA 110920Z 22005KT 190V250 9999 -SN BKN020 M00/M02 Q1012;
0132109470999992013011109504+47983+010233FM-15+0629EDJA V0202501N004110054019N0112651N1+00001-00101999999ADDGA1071+005401999GF107991999999999999999999MA1101291999999MW1711REMMET057METAR EDJA 110950Z 25008KT 9999 -SN BKN018 M00/M01 Q1013;
0121109470999992013011110204+47983+010233FM-15+0629EDJA V0202401N003610048019N0112651N1+00001-00101999999ADDGA1071+004801999GF107991999999999999999999MA1101291999999REMMET052METAR EDJA 111020Z 24007KT 9999 BKN016 00/M01 Q1013;
0154109470999992013011110504+47983+010233FM-15+0629EDJA V0202501N003110048019N0112651N1+00001-00101999999ADDGA1021+004201999GA2071+004801999GF107991999999999999999999MA1101291999999MW1711REMMET063METAR EDJA 111050Z 25006KT 9999 -SN FEW014 BKN016 00/M01 Q1013;
0121109470999992013011111204+47983+010233FM-15+0629EDJA V0202601N002610048019N0112651N1+00001-00101999999ADDGA1071+004801999GF107991999999999999999999MA1101291999999REMMET052METAR EDJA 111120Z 26005KT 9999 BKN016 00/M01 Q1013;
0121109470999992013011111504+47983+010233FM-15+0629EDJA V0202701N003610045019N0112651N1+00001-00101999999ADDGA1071+004501999GF107991999999999999999999MA1101291999999REMMET052METAR EDJA 111150Z 27007KT 9999 BKN015 00/M01 Q1013;
0121109470999992013011112204+47983+010233FM-15+0629EDJA V0202801N003610048019N0112651N1+00001-00101999999ADDGA1071+004801999GF107991999999999999999999MA1101291999999REMMET052METAR EDJA 111220Z 28007KT 9999 BKN016 00/M01 Q1013;
0144109470999992013011112504+47983+010233FM-15+0629EDJA V0202901N002610045019N0070001N1+00001-00101999999ADDGA1071+004501999GA2071+007501999GF107991999999999999999999MA1101291999999REMMET059METAR EDJA 111250Z 29005KT 7000 BKN015 BKN025 00/M01 Q1013;
0178109470999992013011113204+47983+010233FM-15+0629EDJA V0203101N00361003001CN0060001N1+00001-00101999999ADDGA1021+002101999GA2041+003001999GA3071+009001999GF107991999999999999999999MA1101291999999MW1711REMMET071METAR EDJA 111320Z 31007KT 6000 -SN FEW007 SCT010 BKN030 M00/M01 Q1013;
0122109470999992013011113504+47983+010233FM-15+0629EDJA V0202901N003110051019N0045001N1+00001-00101999999ADDGA1071+005101999GF107991999999999999999999MA1101391999999REMMET053METAR EDJA 111350Z 29006KT 4500 BKN017 M00/M01 Q1014;
0154109470999992013011114204+47983+010233FM-15+0629EDJA V0203001N003110060019N0048001N1+00001-00101999999ADDGA1021+003001999GA2071+006001999GF107991999999999999999999MA1101391999999MW1101REMMET063METAR EDJA 111420Z 30006KT 4800 BR FEW010 BKN020 M00/M01 Q1014;
0145109470999992013011114504+47983+010233FM-15+0629EDJA V0202701N002610120019N0070001N1+00001-00101999999ADDGA1041+006001999GA2071+012001999GF107991999999999999999999MA1101391999999REMMET060METAR EDJA 111450Z 27005KT 7000 SCT020 BKN040 M00/M01 Q1014;
0121109470999992013011115204+47983+010233FM-15+0629EDJA V0202701N003110120019N0090001N1+00001-00101999999ADDGA1071+012001999GF107991999999999999999999MA1101391999999REMMET052METAR EDJA 111520Z 27006KT 9000 BKN040 00/M01 Q1014;
0121109470999992013011115504+47983+010233FM-15+0629EDJA V0202601N002610132019N0090001N1+00001-00101999999ADDGA1071+013201999GF107991999999999999999999MA1101391999999REMMET052METAR EDJA 111550Z 26005KT 9000 BKN044 00/M01 Q1014;
0121109470999992013011116204+47983+010233FM-15+0629EDJA V0202501N004110072019N0080001N1+00001-00101999999ADDGA1071+007201999GF107991999999999999999999MA1101491999999REMMET052METAR EDJA 111620Z 25008KT 8000 BKN024 00/M01 Q1015;
0131109470999992013011116504+47983+010233FM-15+0629EDJA V0202501N004110057019N0050001N1+00001-00101999999ADDGA1071+005701999GF107991999999999999999999MA1101491999999MW1711REMMET056METAR EDJA 111650Z 25008KT 5000 -SN BKN019 00/M01 Q1015;
0131109470999992013011117204+47983+010233FM-15+0629EDJA V0202601N003610036019N0050001N1+00001-00101999999ADDGA1071+003601999GF107991999999999999999999MA1101491999999MW1731REMMET056METAR EDJA 111720Z 26007KT 5000 SN BKN012 M00/M01 Q1015;
0132109470999992013011117504+47983+010233FM-15+0629EDJA V0202601N002610012019N0033001N1+00001-00101999999ADDGA1071+001201999GF107991999999999999999999MA1101491999999MW1711REMMET057METAR EDJA 111750Z 26005KT 3300 -SN BKN004 M00/M01 Q1015;
0131109470999992013011118204+47983+010233FM-15+0629EDJA V0202601N003110012019N0060001N1-00101-00101999999ADDGA1071+001201999GF107991999999999999999999MA1101491999999MW1731REMMET056METAR EDJA 111820Z 26006KT 6000 SN BKN004 M01/M01 Q1015;
0122109470999992013011118504+47983+010233FM-15+0629EDJA V0202601N003112200019N0070001N1-00101-00201999999ADDGF100991999999999999999999MA1101491999999REMMET050METAR EDJA 111850Z 26006KT 7000 NSC M01/M02 Q1015;EQDQ01    003SCCGA1
0122109470999992013011119504+47983+010233FM-15+0629EDJA V0202201N003112200019N0070001N1-00101-00201999999ADDGF100991999999999999999999MA1101491999999REMMET050METAR EDJA 111950Z 22006KT 7000 NSC M01/M02 Q1015;EQDQ01    003SCCGA1
0122109470999992013011120204+47983+010233FM-15+0629EDJA V0202301N003112200019N0080001N1-00101-00201999999ADDGF100991999999999999999999MA1101491999999REMMET050METAR EDJA 112020Z 23006KT 8000 NSC M01/M02 Q1015;EQDQ01    003SCCGA1
0122109470999992013011120504+47983+010233FM-15+0629EDJA V0202801N002612200019N0080001N1+00001-00101999999ADDGF100991999999999999999999MA1101491999999REMMET050METAR EDJA 112050Z 28005KT 8000 NSC M00/M01 Q1015;EQDQ01    003SCCGA1
0155109470999992013011204504+47983+010233FM-15+0629EDJA V0202301N004110036019N0050001N1-00101-00101999999ADDGA1071+003601999GA2071+012001999GF107991999999999999999999MA1101391999999MW1711REMMET064METAR EDJA 120450Z 23008KT 5000 -SN BKN012 BKN040 M01/M01 Q1014;
0155109470999992013011205204+47983+010233FM-15+0629EDJA V0202301N004610030019N0035001N1-00101-00101999999ADDGA1071+003001999GA2071+007501999GF107991999999999999999999MA1101391999999MW1711REMMET064METAR EDJA 120520Z 23009KT 3500 -SN BKN010 BKN025 M01/M01 Q1014;
0155109470999992013011205504+47983+010233FM-15+0629EDJA V0202301N004110030019N0030001N1-00101-00101999999ADDGA1071+003001999GA2071+007501999GF107991999999999999999999MA1101391999999MW1711REMMET064METAR EDJA 120550Z 23008KT 3000 -SN BKN010 BKN025 M01/M01 Q1014;
0155109470999992013011206004+47983+010233FM-15+0629EDJA V0202201N004610075019N0040001N1-00101-00101999999ADDGA1041+003001999GA2071+007501999GF107991999999999999999999MA1101391999999MW1711REMMET064SPECI EDJA 120555Z 22009KT 4000 -SN SCT010 BKN025 M01/M01 Q1014;
0155109470999992013011206204+47983+010233FM-15+0629EDJA V0202301N005110036019N0050001N1-00101-00101999999ADDGA1071+003601999GA2071+007501999GF107991999999999999999999MA1101391999999MW1711REMMET064METAR EDJA 120620Z 23010KT 5000 -SN BKN012 BKN025 M01/M01 Q1014;
0155109470999992013011206504+47983+010233FM-15+0629EDJA V0202301N004610090019N0040001N1-00101-00101999999ADDGA1041+003001999GA2071+009001999GF107991999999999999999999MA1101391999999MW1711REMMET064METAR EDJA 120650Z 23009KT 4000 -SN SCT010 BKN030 M01/M01 Q1014;
0155109470999992013011207204+47983+010233FM-15+0629EDJA V0202201N005110105019N0040001N1-00101-00101999999ADDGA1041+002401999GA2071+010501999GF107991999999999999999999MA1101391999999MW1711REMMET064METAR EDJA 120720Z 22010KT 4000 -SN SCT008 BKN035 M01/M01 Q1014;
0155109470999992013011207504+47983+010233FM-15+0629EDJA V0202201N004110075019N0040001N1-00101-00101999999ADDGA1041+003001999GA2071+007501999GF107991999999999999999999MA1101391999999MW1711REMMET064METAR EDJA 120750Z 22008KT 4000 -SN SCT010 BKN025 M01/M01 Q1014;
0155109470999992013011208204+47983+010233FM-15+0629EDJA V0202201N004110075019N0045001N1-00101-00101999999ADDGA1021+002401999GA2071+007501999GF107991999999999999999999MA1101391999999MW1711REMMET064METAR EDJA 120820Z 22008KT 4500 -SN FEW008 BKN025 M01/M01 Q1014;
0145109470999992013011208504+47983+010233FM-15+0629EDJA V0202201N004610036019N0060001N1-00101-00201999999ADDGA1021+002401999GA2071+003601999GF107991999999999999999999MA1101391999999REMMET060METAR EDJA 120850Z 22009KT 6000 FEW008 BKN012 M01/M02 Q1014;
0145109470999992013011209204+47983+010233FM-15+0629EDJA V0202201N003110036019N0060001N1+00001-00101999999ADDGA1021+002401999GA2071+003601999GF107991999999999999999999MA1101391999999REMMET060METAR EDJA 120920Z 22006KT 6000 FEW008 BKN012 M00/M01 Q1014;
0145109470999992013011209504+47983+010233FM-15+0629EDJA V0202201N003610105019N0080001N1+00001-00101999999ADDGA1041+003601999GA2071+010501999GF107991999999999999999999MA1101391999999REMMET060METAR EDJA 120950Z 22007KT 8000 SCT012 BKN035 M00/M01 Q1014;
0122109470999992013011210204+47983+010233FM-15+0629EDJA V0202301N003612200019N0112651N1+00001-00201999999ADDGA1041+010501999GF104991999999999999999999MA1101391999999REMMET053METAR EDJA 121020Z 23007KT 9999 SCT035 M00/M02 Q1014;
0122109470999992013011210504+47983+010233FM-15+0629EDJA V0202301N003612200019N0112651N1-00101-00201999999ADDGA1041+010501999GF104991999999999999999999MA1101391999999REMMET053METAR EDJA 121050Z 23007KT 9999 SCT035 M01/M02 Q1014;
0121109470999992013011211204+47983+010233FM-15+0629EDJA V0202401N003110051019N0112651N1+00001-00201999999ADDGA1071+005101999GF107991999999999999999999MA1101391999999REMMET052METAR EDJA 121120Z 24006KT 9999 BKN017 00/M02 Q1014;
0122109470999992013011211504+47983+010233FM-15+0629EDJA V0202101N002612200019N0112651N1+00001-00201999999ADDGA1021+004501999GF102991999999999999999999MA1101391999999REMMET053METAR EDJA 121150Z 21005KT 9999 FEW015 M00/M02 Q1014;
0121109470999992013011212204+47983+010233FM-15+0629EDJA V0202501N001512200019N0112651N1+00101-00101999999ADDGA1041+005401999GF104991999999999999999999MA1101291999999REMMET052METAR EDJA 121220Z 25003KT 9999 SCT018 01/M01 Q1013;
0121109470999992013011212504+47983+010233FM-15+0629EDJA V0202201N002612200019N0112651N1+00101-00201999999ADDGA1041+005401999GF104991999999999999999999MA1101291999999REMMET052METAR EDJA 121250Z 22005KT 9999 SCT018 01/M02 Q1013;
0144109470999992013011213204+47983+010233FM-15+0629EDJA V0202201N002112200019N0112651N1+00001-00201999999ADDGA1021+005401999GA2041+010801999GF104991999999999999999999MA1101291999999REMMET059METAR EDJA 121320Z 22004KT 9999 FEW018 SCT036 00/M02 Q1013;
0122109470999992013011213504+47983+010233FM-15+0629EDJA V0202201N002112200019N0112651N1+00001-00201999999ADDGA1041+010501999GF104991999999999999999999MA1101291999999REMMET053METAR EDJA 121350Z 22004KT 9999 SCT035 M00/M02 Q1013;
0145109470999992013011214204+47983+010233FM-15+0629EDJA V0209999V001010105019N0112651N1+00001-00201999999ADDGA1041+005101999GA2071+010501999GF107991999999999999999999MA1101391999999REMMET060METAR EDJA 121420Z VRB02KT 9999 SCT017 BKN035 M00/M02 Q1014;
0122109470999992013011214504+47983+010233FM-15+0629EDJA V0209999V001010051019N0112651N1+00001-00201999999ADDGA1071+005101999GF107991999999999999999999MA1101391999999REMMET053METAR EDJA 121450Z VRB02KT 9999 BKN017 M00/M02 Q1014;
0145109470999992013011215204+47983+010233FM-15+0629EDJA V0209999V001510069019N0112651N1+00001-00201999999ADDGA1041+005101999GA2071+006901999GF107991999999999999999999MA1101391999999REMMET060METAR EDJA 121520Z VRB03KT 9999 SCT017 BKN023 M00/M02 Q1014;
0122109470999992013011215504+47983+010233FM-15+0629EDJA V0201801N001010138019N0080001N1+00001-00101999999ADDGA1071+013801999GF107991999999999999999999MA1101291999999REMMET053METAR EDJA 121550Z 18002KT 8000 BKN046 M00/M01 Q1013;
0145109470999992013011216204+47983+010233FM-15+0629EDJA V0209999V001510138019N0060001N1-00101-00201999999ADDGA1041+009001999GA2071+013801999GF107991999999999999999999MA1101291999999REMMET060METAR EDJA 121620Z VRB03KT 6000 SCT030 BKN046 M01/M02 Q1013;
0162109470999992013011216504+47983+010233FM-15+0629EDJA V0200201N002110084019N0030001N1-00101-00201999999ADDGA1041+001501999GA2071+008401999GF107991999999999999999999MA1101291999999MW1101REMMET071METAR EDJA 121650Z 02004KT 300V050 3000 BR SCT005 BKN028 M01/M02 Q1013;
0139109470999992013011217204+47983+010233FM-15+0629EDJA V0200301N002110012019N0034001N1-00101-00101999999ADDGA1071+001201999GF107991999999999999999999MA1101291999999MW1101REMMET064METAR EDJA 121720Z 03004KT 290V070 3400 BR BKN004 M01/M01 Q1013;
0131109470999992013011217504+47983+010233FM-15+0629EDJA V0200301N003110012019N0033001N1-00101-00201999999ADDGA1071+001201999GF107991999999999999999999MA1101291999999MW1101REMMET056METAR EDJA 121750Z 03006KT 3300 BR BKN004 M01/M02 Q1013;
0131109470999992013011218204+47983+010233FM-15+0629EDJA V0200501N002610009019N0031001N1-00101-00201999999ADDGA1081+000901999GF108991999999999999999999MA1101291999999MW1101REMMET056METAR EDJA 121820Z 05005KT 3100 BR OVC003 M01/M02 Q1013;
0131109470999992013011218504+47983+010233FM-15+0629EDJA V0200701N002610009019N0025001N1-00201-00201999999ADDGA1081+000901999GF108991999999999999999999MA1101291999999MW1101REMMET056METAR EDJA 121850Z 07005KT 2500 BR OVC003 M02/M02 Q1013;
0131109470999992013011219204+47983+010233FM-15+0629EDJA V0200601N003110003019N0017001N1-00201-00301999999ADDGA1081+000301999GF108991999999999999999999MA1101291999999MW1101REMMET056METAR EDJA 121920Z 06006KT 1700 BR OVC001 M02/M03 Q1013;
0154109470999992013011219504+47983+010233FM-15+0629EDJA V0200601N00311000151CN0005001N1-00201-00301999999ADDED124U20009GA1091+000151999GF109991999999000251999999MA1101291999999MW1491REMMET068METAR EDJA 121950Z 06006KT 0500 R24/P2000N FZFG VV/// M02/M03 Q1013;
0154109470999992013011220204+47983+010233FM-15+0629EDJA V0200701N00361000151CN0008001N1-00301-00301999999ADDED124U20009GA1091+000151999GF109991999999000251999999MA1101291999999MW1491REMMET068METAR EDJA 122020Z 07007KT 0800 R24/P2000N FZFG VV/// M03/M03 Q1013;
0154109470999992013011220504+47983+010233FM-15+0629EDJA V0200601N00261000151CN0008001N1-00301-00301999999ADDED124U20009GA1091+000151999GF109991999999000251999999MA1101291999999MW1491REMMET068METAR EDJA 122050Z 06005KT 0800 R24/P2000N FZFG VV/// M03/M03 Q1013;
0131109470999992013011304204+47983+010233FM-15+0629EDJA V0200701N002110015019N0050001N1-00201-00301999999ADDGA1071+001501999GF107991999999999999999999MA1101081999999MW1101REMMET056METAR EDJA 130420Z 07004KT 5000 BR BKN005 M02/M03 Q1011;
0131109470999992013011304504+47983+010233FM-15+0629EDJA V0200801N002110018019N0050001N1-00201-00301999999ADDGA1071+001801999GF107991999999999999999999MA1101081999999MW1101REMMET056METAR EDJA 130450Z 08004KT 5000 BR BKN006 M02/M03 Q1011;
0122109470999992013011305204+47983+010233FM-15+0629EDJA V0200701N002610018019N0060001N1-00201-00301999999ADDGA1071+001801999GF107991999999999999999999MA1101081999999REMMET053METAR EDJA 130520Z 07005KT 6000 BKN006 M02/M03 Q1011;
0122109470999992013011305504+47983+010233FM-15+0629EDJA V0200701N003110018019N0060001N1-00201-00301999999ADDGA1071+001801999GF107991999999999999999999MA1101081999999REMMET053METAR EDJA 130550Z 07006KT 6000 BKN006 M02/M03 Q1011;
0131109470999992013011306204+47983+010233FM-15+0629EDJA V0200701N002610015019N0050001N1-00201-00301999999ADDGA1071+001501999GF107991999999999999999999MA1101081999999MW1101REMMET056METAR EDJA 130620Z 07005KT 5000 BR BKN005 M02/M03 Q1011;
0131109470999992013011306504+47983+010233FM-15+0629EDJA V0200701N003110015019N0050001N1-00201-00301999999ADDGA1071+001501999GF107991999999999999999999MA1101081999999MW1101REMMET056METAR EDJA 130650Z 07006KT 5000 BR BKN005 M02/M03 Q1011;
0131109470999992013011307204+47983+010233FM-15+0629EDJA V0200601N003610012019N0050001N1-00301-00301999999ADDGA1071+001201999GF107991999999999999999999MA1101081999999MW1101REMMET056METAR EDJA 130720Z 06007KT 5000 BR BKN004 M03/M03 Q1011;
0122109470999992013011307504+47983+010233FM-15+0629EDJA V0200701N003110012019N0060001N1-00301-00301999999ADDGA1071+001201999GF107991999999999999999999MA1101081999999REMMET053METAR EDJA 130750Z 07006KT 6000 BKN004 M03/M03 Q1011;
0131109470999992013011308204+47983+010233FM-15+0629EDJA V0200701N003110015019N0050001N1-00301-00301999999ADDGA1081+001501999GF108991999999999999999999MA1101081999999MW1101REMMET056METAR EDJA 130820Z 07006KT 5000 BR OVC005 M03/M03 Q1011;
0122109470999992013011308504+47983+010233FM-15+0629EDJA V0200701N003110015019N0060001N1-00301-00301999999ADDGA1081+001501999GF108991999999999999999999MA1101081999999REMMET053METAR EDJA 130850Z 07006KT 6000 OVC005 M03/M03 Q1011;
0132109470999992013011309204+47983+010233FM-15+0629EDJA V0200601N003110021019N0060001N1-00201-00301999999ADDGA1081+002101999GF108991999999999999999999MA1101081999999MW1711REMMET057METAR EDJA 130920Z 06006KT 6000 -SN OVC007 M02/M03 Q1011;
0132109470999992013011309504+47983+010233FM-15+0629EDJA V0200801N003110018019N0070001N1-00201-00301999999ADDGA1081+001801999GF108991999999999999999999MA1101081999999MW1711REMMET057METAR EDJA 130950Z 08006KT 7000 -SN OVC006 M02/M03 Q1011;
0130109470999992013011310204+47983+010233FM-15+0629EDJA V0200801N002110018019N0070001N1-00201-00301999999ADDGA1081+001801999GF108991999999999999999999MA1101081999999REMMET061METAR EDJA 131020Z 08004KT 060V120 7000 OVC006 M02/M03 Q1011;
0122109470999992013011310504+47983+010233FM-15+0629EDJA V0200601N002610018019N0060001N1-00201-00301999999ADDGA1071+001801999GF107991999999999999999999MA1101081999999REMMET053METAR EDJA 131050Z 06005KT 6000 BKN006 M02/M03 Q1011;
0122109470999992013011311204+47983+010233FM-15+0629EDJA V0200501N003110018019N0060001N1-00201-00301999999ADDGA1081+001801999GF108991999999999999999999MA1101081999999REMMET053METAR EDJA 131120Z 05006KT 6000 OVC006 M02/M03 Q1011;
0122109470999992013011311504+47983+010233FM-15+0629EDJA V0200501N003610015019N0060001N1-00201-00301999999ADDGA1081+001501999GF108991999999999999999999MA1101021999999REMMET053METAR EDJA 131150Z 05007KT 6000 OVC005 M02/M03 Q1010;
0122109470999992013011312204+47983+010233FM-15+0629EDJA V0200601N003610018019N0060001N1-00201-00301999999ADDGA1081+001801999GF108991999999999999999999MA1101021999999REMMET053METAR EDJA 131220Z 06007KT 6000 OVC006 M02/M03 Q1010;
0130109470999992013011312504+47983+010233FM-15+0629EDJA V0200601N003110015019N0060001N1-00201-00301999999ADDGA1071+001501999GF107991999999999999999999MA1101021999999REMMET061METAR EDJA 131250Z 06006KT 030V100 6000 BKN005 M02/M03 Q1010;
0122109470999992013011313204+47983+010233FM-15+0629EDJA V0200501N003110018019N0060001N1-00201-00301999999ADDGA1081+001801999GF108991999999999999999999MA1101021999999REMMET053METAR EDJA 131320Z 05006KT 6000 OVC006 M02/M03 Q1010;
0131109470999992013011313504+47983+010233FM-15+0629EDJA V0200601N003110018019N0048001N1-00201-00301999999ADDGA1081+001801999GF108991999999999999999999MA1101021999999MW1101REMMET056METAR EDJA 131350Z 06006KT 4800 BR OVC006 M02/M03 Q1010;
0122109470999992013011314204+47983+010233FM-15+0629EDJA V0200601N003110015019N0060001N1-00201-00301999999ADDGA1071+001501999GF107991999999999999999999MA1101021999999REMMET053METAR EDJA 131420Z 06006KT 6000 BKN005 M02/M03 Q1010;
0131109470999992013011314504+47983+010233FM-15+0629EDJA V0200601N003110015019N0048001N1-00201-00301999999ADDGA1071+001501999GF107991999999999999999999MA1101021999999MW1101REMMET056METAR EDJA 131450Z 06006KT 4800 BR BKN005 M02/M03 Q1010;
0131109470999992013011315504+47983+010233FM-15+0629EDJA V0200601N002610015019N0048001N1-00201-00301999999ADDGA1081+001501999GF108991999999999999999999MA1101021999999MW1101REMMET056METAR EDJA 131550Z 06005KT 4800 BR OVC005 M02/M03 Q1010;
0131109470999992013011316204+47983+010233FM-15+0629EDJA V0200501N003610015019N0040001N1-00201-00301999999ADDGA1081+001501999GF108991999999999999999999MA1101021999999MW1101REMMET056METAR EDJA 131620Z 05007KT 4000 BR OVC005 M02/M03 Q1010;
0131109470999992013011316504+47983+010233FM-15+0629EDJA V0200501N004110012019N0040001N1-00301-00301999999ADDGA1081+001201999GF108991999999999999999999MA1101021999999MW1101REMMET056METAR EDJA 131650Z 05008KT 4000 BR OVC004 M03/M03 Q1010;
0131109470999992013011317204+47983+010233FM-15+0629EDJA V0200601N004110012019N0040001N1-00301-00301999999ADDGA1081+001201999GF108991999999999999999999MA1101021999999MW1101REMMET056METAR EDJA 131720Z 06008KT 4000 BR OVC004 M03/M03 Q1010;
0131109470999992013011317504+47983+010233FM-15+0629EDJA V0200601N004110012019N0030001N1-00301-00301999999ADDGA1081+001201999GF108991999999999999999999MA1101021999999MW1101REMMET056METAR EDJA 131750Z 06008KT 3000 BR OVC004 M03/M03 Q1010;
0131109470999992013011318204+47983+010233FM-15+0629EDJA V0200601N003610012019N0030001N1-00301-00301999999ADDGA1081+001201999GF108991999999999999999999MA1101021999999MW1101REMMET056METAR EDJA 131820Z 06007KT 3000 BR OVC004 M03/M03 Q1010;
0131109470999992013011318504+47983+010233FM-15+0629EDJA V0200501N003610012019N0030001N1-00301-00401999999ADDGA1081+001201999GF108991999999999999999999MA1101021999999MW1101REMMET056METAR EDJA 131850Z 05007KT 3000 BR OVC004 M03/M04 Q1010;
0131109470999992013011319204+47983+010233FM-15+0629EDJA V0200601N003610012019N0028001N1-00301-00301999999ADDGA1081+001201999GF108991999999999999999999MA1101021999999MW1101REMMET056METAR EDJA 131920Z 06007KT 2800 BR OVC004 M03/M03 Q1010;
0131109470999992013011319504+47983+010233FM-15+0629EDJA V0200601N003110009019N0026001N1-00301-00401999999ADDGA1081+000901999GF108991999999999999999999MA1101021999999MW1101REMMET056METAR EDJA 131950Z 06006KT 2600 BR OVC003 M03/M04 Q1010;
0131109470999992013011320204+47983+010233FM-15+0629EDJA V0200501N003610009019N0028001N1-00301-00401999999ADDGA1081+000901999GF108991999999999999999999MA1101021999999MW1101REMMET056METAR EDJA 132020Z 05007KT 2800 BR OVC003 M03/M04 Q1010;
0131109470999992013011320504+47983+010233FM-15+0629EDJA V0200701N003110009019N0038001N1-00301-00401999999ADDGA1081+000901999GF108991999999999999999999MA1101021999999MW1101REMMET056METAR EDJA 132050Z 07006KT 3800 BR OVC003 M03/M04 Q1010;
0122109470999992013011404204+47983+010233FM-15+0629EDJA V0201101N002610015019N0060001N1-00301-00401999999ADDGA1071+001501999GF107991999999999999999999MA1100911999999REMMET053METAR EDJA 140420Z 11005KT 6000 BKN005 M03/M04 Q1009;
0122109470999992013011404504+47983+010233FM-15+0629EDJA V0201001N002610021019N0060001N1-00301-00401999999ADDGA1071+002101999GF107991999999999999999999MA1100911999999REMMET053METAR EDJA 140450Z 10005KT 6000 BKN007 M03/M04 Q1009;
0122109470999992013011405204+47983+010233FM-15+0629EDJA V0201001N002110021019N0060001N1-00301-00401999999ADDGA1071+002101999GF107991999999999999999999MA1100911999999REMMET053METAR EDJA 140520Z 10004KT 6000 BKN007 M03/M04 Q1009;
0122109470999992013011405504+47983+010233FM-15+0629EDJA V0200901N002110018019N0060001N1-00301-00401999999ADDGA1071+001801999GF107991999999999999999999MA1100911999999REMMET053METAR EDJA 140550Z 09004KT 6000 BKN006 M03/M04 Q1009;
0131109470999992013011406204+47983+010233FM-15+0629EDJA V0209999V001510018019N0050001N1-00301-00401999999ADDGA1071+001801999GF107991999999999999999999MA1100911999999MW1101REMMET056METAR EDJA 140620Z VRB03KT 5000 BR BKN006 M03/M04 Q1009;
0131109470999992013011406504+47983+010233FM-15+0629EDJA V0200901N002110021019N0050001N1-00301-00401999999ADDGA1071+002101999GF107991999999999999999999MA1100911999999MW1101REMMET056METAR EDJA 140650Z 09004KT 5000 BR BKN007 M03/M04 Q1009;
0131109470999992013011407204+47983+010233FM-15+0629EDJA V0200701N001010021019N0050001N1-00301-00401999999ADDGA1071+002101999GF107991999999999999999999MA1100911999999MW1101REMMET056METAR EDJA 140720Z 07002KT 5000 BR BKN007 M03/M04 Q1009;
0131109470999992013011407504+47983+010233FM-15+0629EDJA V0200301N001510015019N0050001N1-00301-00301999999ADDGA1071+001501999GF107991999999999999999999MA1100911999999MW1101REMMET056METAR EDJA 140750Z 03003KT 5000 BR BKN005 M03/M03 Q1009;
0131109470999992013011408204+47983+010233FM-15+0629EDJA V0200301N001510018019N0047001N1-00301-00301999999ADDGA1071+001801999GF107991999999999999999999MA1100911999999MW1101REMMET056METAR EDJA 140820Z 03003KT 4700 BR BKN006 M03/M03 Q1009;
0143109470999992013011409204+47983+010233FM-15+0629EDJA V0200501N001010018019N0044001N1-00201-00301999999ADDGA1071+001801999GF107991999999999999999999MA1101021999999MW1101MW2851REMMET062METAR EDJA 140920Z 05002KT 4400 -SHSN BR BKN006 M02/M03 Q1010;
0131109470999992013011409504+47983+010233FM-15+0629EDJA V0209999V000510012019N0050001N1-00201-00301999999ADDGA1071+001201999GF107991999999999999999999MA1101021999999MW1101REMMET056METAR EDJA 140950Z VRB01KT 5000 BR BKN004 M02/M03 Q1010;
0143109470999992013011410204+47983+010233FM-15+0629EDJA V0209999V000510015019N0050001N1-00201-00301999999ADDGA1071+001501999GF107991999999999999999999MA1101021999999MW1101MW2851REMMET062METAR EDJA 141020Z VRB01KT 5000 -SHSN BR BKN005 M02/M03 Q1010;
0143109470999992013011410504+47983+010233FM-15+0629EDJA V0209999C000010015019N0050001N1-00201-00301999999ADDGA1071+001501999GF107991999999999999999999MA1101021999999MW1101MW2851REMMET062METAR EDJA 141050Z 00000KT 5000 -SHSN BR BKN005 M02/M03 Q1010;
