0090101260999992014010100204+53548+007667FM-15+000899999V0201501N003619999999N007000199+00401+00201999999ADDMA1100701999990REMMET063METAR ETNT 010020Z AUTO 15007KT 7000 // ////// 04/02 Q1007 ///=
0090101260999992014010101204+53548+007667FM-15+000899999V0201501N003619999999N007000199+00401+00201999999ADDMA1100701999990REMMET063METAR ETNT 010120Z AUTO 15007KT 7000 // ////// 04/02 Q1007 ///=
0090101260999992014010102204+53548+007667FM-15+000899999V0201501N003619999999N007000199+00401+00201999999ADDMA1100701999990REMMET063METAR ETNT 010220Z AUTO 15007KT 7000 // ////// 04/02 Q1007 ///=
0090101260999992014010103204+53548+007667FM-15+000899999V0201501N003619999999N004500199+00401+00201999999ADDMA1100701999990REMMET063METAR ETNT 010320Z AUTO 15007KT 4500 // ////// 04/02 Q1007 ///=
0090101260999992014010104204+53548+007667FM-15+000899999V0201501N003619999999N004200199+00401+00201999999ADDMA1100701999990REMMET063METAR ETNT 010420Z AUTO 15007KT 4200 // ////// 04/02 Q1007 ///=
0090101260999992014010105204+53548+007667FM-15+000899999V0201501N003619999999N003500199+00401+00201999999ADDMA1100701999990REMMET063METAR ETNT 010520Z AUTO 15007KT 3500 // ////// 04/02 Q1007 ///=
0090101260999992014010106204+53548+007667FM-15+000899999V0201501N003619999999N004000199+00401+00201999999ADDMA1100701999990REMMET063METAR ETNT 010620Z AUTO 15007KT 4000 // ////// 04/02 Q1007 ///=
0090101260999992014010107204+53548+007667FM-15+000899999V0201501N003619999999N004300199+00401+00201999999ADDMA1100801999990REMMET063METAR ETNT 010720Z AUTO 15007KT 4300 // ////// 04/02 Q1008 ///=
0090101260999992014010108204+53548+007667FM-15+000899999V0201501N003619999999N005000199+00401+00201999999ADDMA1100801999990REMMET063METAR ETNT 010820Z AUTO 15007KT 5000 // ////// 04/02 Q1008 ///=
0090101260999992014010109204+53548+007667FM-15+000899999V0201501N003619999999N005000199+00401+00201999999ADDMA1100801999990REMMET063METAR ETNT 010920Z AUTO 15007KT 5000 // ////// 04/02 Q1008 ///=
0090101260999992014010110204+53548+007667FM-15+000899999V0201501N003619999999N006000199+00401+00201999999ADDMA1100801999990REMMET063METAR ETNT 011020Z AUTO 15007KT 6000 // ////// 04/02 Q1008 ///=
0090101260999992014010111204+53548+007667FM-15+000899999V0201501N003619999999N006000199+00401+00201999999ADDMA1100701999990REMMET063METAR ETNT 011120Z AUTO 15007KT 6000 // ////// 04/02 Q1007 ///=
0090101260999992014010112204+53548+007667FM-15+000899999V0201501N003619999999N006000199+00401+00201999999ADDMA1100701999990REMMET063METAR ETNT 011220Z AUTO 15007KT 6000 // ////// 04/02 Q1007 ///=
0090101260999992014010113204+53548+007667FM-15+000899999V0201501N003619999999N006000199+00401+00201999999ADDMA1100601999990REMMET063METAR ETNT 011320Z AUTO 15007KT 6000 // ////// 04/02 Q1006 ///=
0090101260999992014010114204+53548+007667FM-15+000899999V0201501N003619999999N006000199+00401+00201999999ADDMA1100601999990REMMET063METAR ETNT 011420Z AUTO 15007KT 6000 // ////// 04/02 Q1006 ///=
0090101260999992014010115204+53548+007667FM-15+000899999V0201501N003619999999N006000199+00401+00201999999ADDMA1100601999990REMMET063METAR ETNT 011520Z AUTO 15007KT 6000 // ////// 04/02 Q1006 ///=
0090101260999992014010116204+53548+007667FM-15+000899999V0201501N003619999999N006000199+00401+00201999999ADDMA1100501999990REMMET063METAR ETNT 011620Z AUTO 15007KT 6000 // ////// 04/02 Q1005 ///=
0090101260999992014010117204+53548+007667FM-15+000899999V0201501N003619999999N006000199+00401+00201999999ADDMA1100401999990REMMET063METAR ETNT 011720Z AUTO 15007KT 6000 // ////// 04/02 Q1004 ///=
0090101260999992014010118204+53548+007667FM-15+000899999V0201501N003619999999N007000199+00401+00201999999ADDMA1100301999990REMMET063METAR ETNT 011820Z AUTO 15007KT 7000 // ////// 04/02 Q1003 ///=
0090101260999992014010119204+53548+007667FM-15+000899999V0201501N003619999999N006000199+00401+00201999999ADDMA1100201999990REMMET063METAR ETNT 011920Z AUTO 15007KT 6000 // ////// 04/02 Q1002 ///=
0090101260999992014010120204+53548+007667FM-15+000899999V0201501N003619999999N005000199+00401+00201999999ADDMA1100101999990REMMET063METAR ETNT 012020Z AUTO 15007KT 5000 // ////// 04/02 Q1001 ///=
0090101260999992014010121204+53548+007667FM-15+000899999V0201501N003619999999N004800199+00401+00201999999ADDMA1100001999990REMMET063METAR ETNT 012120Z AUTO 15007KT 4800 // ////// 04/02 Q1000 ///=
0090101260999992014010122204+53548+007667FM-15+000899999V0201501N003619999999N006000199+00401+00201999999ADDMA1099901999990REMMET063METAR ETNT 012220Z AUTO 15007KT 6000 // ////// 04/02 Q0999 ///=
0090101260999992014010123204+53548+007667FM-15+000899999V0201501N003619999999N006000199+00401+00201999999ADDMA1099801999990REMMET063METAR ETNT 012320Z AUTO 15007KT 6000 // ////// 04/02 Q0998 ///=
0090101260999992014010200204+53548+007667FM-15+000899999V0201501N003619999999N005000199+00401+00201999999ADDMA1099701999990REMMET063METAR ETNT 020020Z AUTO 15007KT 5000 // ////// 04/02 Q0997 ///=
0090101260999992014010201204+53548+007667FM-15+000899999V0201501N003619999999N006000199+00401+00201999999ADDMA1099701999990REMMET063METAR ETNT 020120Z AUTO 15007KT 6000 // ////// 04/02 Q0997 ///=
0090101260999992014010202204+53548+007667FM-15+000899999V0201501N003619999999N006000199+00401+00201999999ADDMA1099601999990REMMET063METAR ETNT 020220Z AUTO 15007KT 6000 // ////// 04/02 Q0996 ///=
0090101260999992014010203204+53548+007667FM-15+000899999V0201501N003619999999N005000199+00401+00201999999ADDMA1099601999990REMMET063METAR ETNT 020320Z AUTO 15007KT 5000 // ////// 04/02 Q0996 ///=
0090101260999992014010204204+53548+007667FM-15+000899999V0201501N003619999999N006000199+00401+00201999999ADDMA1099501999990REMMET063METAR ETNT 020420Z AUTO 15007KT 6000 // ////// 04/02 Q0995 ///=
0090101260999992014010205204+53548+007667FM-15+000899999V0201501N003619999999N006000199+00401+00201999999ADDMA1099501999990REMMET063METAR ETNT 020520Z AUTO 15007KT 6000 // ////// 04/02 Q0995 ///=
0146101260999992014010206204+53548+007667FM-15+000899999V0201501N003610076219N009999199+00401+00201999999ADDGA1071+007621991GE19MSL   +99999+99999GF199999071990007621991991MA1099501999990REMMET055METAR ETNT 020620Z 15007KT 9999 BKN025 04/02 Q0995 BLU=
0169101260999992014010207204+53548+007667FM-15+000899999V0201601N005710091419N009999199+00801+00601999999ADDGA1071+009141991GA2071+015241991GE19MSL   +99999+99999GF199999071990009141991991MA1099501999990REMMET062METAR ETNT 020720Z 16011KT 9999 BKN030 BKN050 08/06 Q0995 BLU=
0169101260999992014010208204+53548+007667FM-15+000899999V0201601N006710076219N009999199+00901+00601999999ADDGA1071+007621991GA2071+027431991GE19MSL   +99999+99999GF199999071990007621991991MA1099501999990REMMET062METAR ETNT 020820Z 16013KT 9999 BKN025 BKN090 09/06 Q0995 BLU=
0181101260999992014010209204+53548+007667FM-15+000899999V0201801N005710076219N009999199+00901+00701999999ADDGA1071+007621991GA2071+012191991GE19MSL   +99999+99999GF199999071990007621991991MA1099601999990MW1581REMMET068METAR ETNT 020920Z 18011KT 9999 -DZRA BKN025 BKN040 09/07 Q0996 BLU=
0169101260999992014010210204+53548+007667FM-15+000899999V0201701N006210076219N009999199+00901+00701999999ADDGA1071+007621991GA2071+033531991GE19MSL   +99999+99999GF199999071990007621991991MA1099601999990REMMET062METAR ETNT 021020Z 17012KT 9999 BKN025 BKN110 09/07 Q0996 BLU=
0169101260999992014010211204+53548+007667FM-15+000899999V0201801N005710335319N009999199+01001+00701999999ADDGA1041+012191991GA2071+033531991GE19MSL   +99999+99999GF199999041990012191991991MA1099601999990REMMET062METAR ETNT 021120Z 18011KT 9999 SCT040 BKN110 10/07 Q0996 BLU=
0169101260999992014010212204+53548+007667FM-15+000899999V0201801N005710335319N009999199+01001+00701999999ADDGA1041+012191991GA2071+033531991GE19MSL   +99999+99999GF199999041990012191991991MA1099601999990REMMET062METAR ETNT 021220Z 18011KT 9999 SCT040 BKN110 10/07 Q0996 BLU=
0169101260999992014010213204+53548+007667FM-15+000899999V0201801N005710335319N009999199+01001+00701999999ADDGA1041+012191991GA2071+033531991GE19MSL   +99999+99999GF199999041990012191991991MA1099601999990REMMET062METAR ETNT 021320Z 18011KT 9999 SCT040 BKN110 10/07 Q0996 BLU=
0158101260999992014010214204+53548+007667FM-15+000899999V0201801N005710039619N009000199+00901+00801999999ADDGA1071+003961991GE19MSL   +99999+99999GF199999071990003961991991MA1099601999990MW1581REMMET061METAR ETNT 021420Z 18011KT 9000 -RADZ BKN013 09/08 Q0996 GRN=
0181101260999992014010215204+53548+007667FM-15+000899999V0202001N006210027419N006000199+00901+00801999999ADDGA1071+002741991GA2071+004571991GE19MSL   +99999+99999GF199999071990002741991991MA1099701999990MW1581REMMET068METAR ETNT 021520Z 20012KT 6000 -RADZ BKN009 BKN015 09/08 Q0997 GRN=
0146101260999992014010216204+53548+007667FM-15+000899999V0202401N007710045719N009000199+00901+00601999999ADDGA1071+004571991GE19MSL   +99999+99999GF199999071990004571991991MA1099901999990REMMET055METAR ETNT 021620Z 24015KT 9000 BKN015 09/06 Q0999 WHT=
0146101260999992014010217204+53548+007667FM-15+000899999V0202301N006210051819N009999199+00801+00601999999ADDGA1071+005181991GE19MSL   +99999+99999GF199999071990005181991991MA1100001999990REMMET055METAR ETNT 021720Z 23012KT 9999 BKN017 08/06 Q1000 WHT=
0090101260999992014010218204+53548+007667FM-15+000899999V0202301N006219999999N005000199+00801+00601999999ADDMA1100101999990REMMET063METAR ETNT 021820Z AUTO 23012KT 5000 // ////// 08/06 Q1001 ///=
0090101260999992014010219204+53548+007667FM-15+000899999V0202101N004119999999N005000199+00601+00501999999ADDMA1100201999990REMMET063METAR ETNT 021920Z AUTO 21008KT 5000 // ////// 06/05 Q1002 ///=
0090101260999992014010220204+53548+007667FM-15+000899999V0202001N004119999999N005000199+00601+00501999999ADDMA1100201999990REMMET063METAR ETNT 022020Z AUTO 20008KT 5000 // ////// 06/05 Q1002 ///=
0090101260999992014010221204+53548+007667FM-15+000899999V0202001N003619999999N005000199+00601+00501999999ADDMA1100301999990REMMET063METAR ETNT 022120Z AUTO 20007KT 5000 // ////// 06/05 Q1003 ///=
0090101260999992014010222204+53548+007667FM-15+000899999V0202001N004619999999N004700199+00601+00501999999ADDMA1100301999990REMMET063METAR ETNT 022220Z AUTO 20009KT 4700 // ////// 06/05 Q1003 ///=
0090101260999992014010223204+53548+007667FM-15+000899999V0202001N004119999999N004900199+00601+00401999999ADDMA1100401999990REMMET063METAR ETNT 022320Z AUTO 20008KT 4900 // ////// 06/04 Q1004 ///=
0090101260999992014010300204+53548+007667FM-15+000899999V0201801N003119999999N005000199+00501+00401999999ADDMA1100301999990REMMET063METAR ETNT 030020Z AUTO 18006KT 5000 // ////// 05/04 Q1003 ///=
0090101260999992014010301204+53548+007667FM-15+000899999V0201701N003619999999N005000199+00501+00401999999ADDMA1100301999990REMMET063METAR ETNT 030120Z AUTO 17007KT 5000 // ////// 05/04 Q1003 ///=
0090101260999992014010302204+53548+007667FM-15+000899999V0201701N004619999999N005000199+00501+00401999999ADDMA1100301999990REMMET063METAR ETNT 030220Z AUTO 17009KT 5000 // ////// 05/04 Q1003 ///=
0090101260999992014010303204+53548+007667FM-15+000899999V0201701N005719999999N004900199+00501+00401999999ADDMA1100301999990REMMET063METAR ETNT 030320Z AUTO 17011KT 4900 // ////// 05/04 Q1003 ///=
0090101260999992014010304204+53548+007667FM-15+000899999V0201601N004619999999N005000199+00501+00401999999ADDMA1100201999990REMMET063METAR ETNT 030420Z AUTO 16009KT 5000 // ////// 05/04 Q1002 ///=
0090101260999992014010305204+53548+007667FM-15+000899999V0201601N005719999999N005000199+00501+00401999999ADDMA1100101999990REMMET063METAR ETNT 030520Z AUTO 16011KT 5000 // ////// 05/04 Q1001 ///=
0169101260999992014010306204+53548+007667FM-15+000899999V0201601N006710579119N009999199+00601+00401999999ADDGA1041+018291991GA2071+057911991GE19MSL   +99999+99999GF199999041990018291991991MA1100001999990REMMET062METAR ETNT 030620Z 16013KT 9999 SCT060 BKN190 06/04 Q1000 BLU=
0169101260999992014010307204+53548+007667FM-15+000899999V0201501N007210182919N009999199+00601+00401999999ADDGA1071+018291991GA2071+057911991GE19MSL   +99999+99999GF199999071990018291991991MA1100001999990REMMET062METAR ETNT 030720Z 15014KT 9999 BKN060 BKN190 06/04 Q1000 BLU=
0179101260999992014010308204+53548+007667FM-15+000899999V0201601N006710128019N009999199+00701+00501999999ADDGA1041+007621991GA2071+012801991GE19MSL   +99999+99999GF199999041990007621991991MA1099901999990MW1611REMMET066METAR ETNT 030820Z 16013KT 9999 -RA SCT025 BKN042 07/05 Q0999 BLU=
0179101260999992014010309204+53548+007667FM-15+000899999V0201701N006710057919N009999199+00801+00601999999ADDGA1021+003051991GA2071+005791991GE19MSL   +99999+99999GF199999021990003051991991MA1099901999990MW1611REMMET066METAR ETNT 030920Z 17013KT 9999 -RA FEW010 BKN019 08/06 Q0999 WHT=
0158101260999992014010310204+53548+007667FM-15+000899999V0201801N005710042719N009999199+00801+00701999999ADDGA1071+004271991GE19MSL   +99999+99999GF199999071990004271991991MA1099901999990MW1581REMMET061METAR ETNT 031020Z 18011KT 9999 -RADZ BKN014 08/07 Q0999 GRN=
0146101260999992014010311204+53548+007667FM-15+000899999V0202001N007710027419N009999199+00901+00701999999ADDGA1071+002741991GE19MSL   +99999+99999GF199999071990002741991991MA1099901999990REMMET055METAR ETNT 031120Z 20015KT 9999 BKN009 09/07 Q0999 GRN=
0157101260999992014010312204+53548+007667FM-15+000899999V0201901N007710033519N009999199+00901+00801999999ADDGA1071+003351991GE19MSL   +99999+99999GF199999071990003351991991MA1099801999990OC101341REMMET058METAR ETNT 031220Z 19015G26KT 9999 BKN011 09/08 Q0998 GRN=
0169101260999992014010313204+53548+007667FM-15+000899999V0201901N007210039619N009999199+01001+00801999999ADDGA1071+003961991GA2071+006101991GE19MSL   +99999+99999GF199999071990003961991991MA1099801999990REMMET062METAR ETNT 031320Z 19014KT 9999 BKN013 BKN020 10/08 Q0998 GRN=
0169101260999992014010313444+53548+007667FM-16+000899999V0201901N008210274319N009999199+01001+00801999999ADDGA1041+004271991GA2071+027431991GE19MSL   +99999+99999GF199999041990004271991991MA1099801999990REMMET062SPECI ETNT 031344Z 19016KT 9999 SCT014 BKN090 10/08 Q0998 BLU=
0169101260999992014010314204+53548+007667FM-15+000899999V0202001N008210045719N003500199+01001+00801999999ADDGA1071+004571081GE19MSL   +99999+99999GF199999071990004571991991MA1099901999990MW1101MW2811REMMET066METAR ETNT 031420Z 20016KT 3500 SHRA BR BKN015TCU 10/08 Q0999 YLO=
0177101260999992014010314354+53548+007667FM-16+000899999V0201901N005710091419N009999199+01001+00801999999ADDGA1041+004571081GA2071+009141991GE19MSL   +99999+99999GF199999041990004571991991MA1099801999990REMMET070SPECI ETNT 031435Z 19011KT 9999 SCT015TCU BKN030 10/08 Q0998 RERA BLU=
0174101260999992014010315204+53548+007667FM-15+000899999V0202101N008210152419N009999199+01001+00801999999ADDGA1041+007321991GA2071+015241991GE19MSL   +99999+99999GF199999041990007321991991MA1099901999990REMMET067METAR ETNT 031520Z 21016KT 9999 SCT024 BKN050 10/08 Q0999 RERA BLU=
0189101260999992014010316204+53548+007667FM-15+000899999V0202101N004610137219N009999199+01001+00701999999ADDGA1041+006101081GA2071+013721991GE19MSL   +99999+99999GF199999041990006101991991MA1099901999990MW1801REMMET076METAR ETNT 031620Z 21009KT 9999 -SHRA SCT020TCU BKN045 10/07 Q0999      BLU=
0170101260999992014010317204+53548+007667FM-15+000899999V0201801N00311010671CN009999199+00801+00701999999ADDGA1021+006101991GA2041+010671991GE19MSL   +99999+99999GF199999021990006101991991MA1099801999990REMMET063METAR ETNT 031720Z 18006KT 9999 FEW020 SCT035 08/07 Q0998 BLU/=
0090101260999992014010318204+53548+007667FM-15+000899999V0202101N009819999999N000650199+00801+00701999999ADDMA1099901999990REMMET063METAR ETNT 031820Z AUTO 21019KT 0650 // ////// 08/07 Q0999 ///=
0101101260999992014010319204+53548+007667FM-15+000899999V0202001N008819999999N003800199+00801+00501999999ADDMA1099801999990OC101801REMMET066METAR ETNT 031920Z AUTO 20017G35KT 3800 // ////// 08/05 Q0998 ///=
0090101260999992014010320204+53548+007667FM-15+000899999V0202001N006219999999N004400199+00701+00401999999ADDMA1099901999990REMMET063METAR ETNT 032020Z AUTO 20012KT 4400 // ////// 07/04 Q0999 ///=
0090101260999992014010321204+53548+007667FM-15+000899999V0202001N008219999999N004200199+00601+00401999999ADDMA1100001999990REMMET063METAR ETNT 032120Z AUTO 20016KT 4200 // ////// 06/04 Q1000 ///=
0101101260999992014010322204+53548+007667FM-15+000899999V0202101N009319999999N004200199+00701+00401999999ADDMA1100001999990OC101541REMMET066METAR ETNT 032220Z AUTO 21018G30KT 4200 // ////// 07/04 Q1000 ///=
0090101260999992014010323204+53548+007667FM-15+000899999V0202101N008819999999N004200199+00601+00401999999ADDMA1100101999990REMMET063METAR ETNT 032320Z AUTO 21017KT 4200 // ////// 06/04 Q1001 ///=
0090101260999992014010400204+53548+007667FM-15+000899999V0202101N010319999999N004200199+00601+00301999999ADDMA1100201999990REMMET063METAR ETNT 040020Z AUTO 21020KT 4200 // ////// 06/03 Q1002 ///=
0090101260999992014010401204+53548+007667FM-15+000899999V0202101N008819999999N004200199+00601+00301999999ADDMA1100201999990REMMET063METAR ETNT 040120Z AUTO 21017KT 4200 // ////// 06/03 Q1002 ///=
0090101260999992014010402204+53548+007667FM-15+000899999V0202101N008219999999N004200199+00601+00301999999ADDMA1100301999990REMMET063METAR ETNT 040220Z AUTO 21016KT 4200 // ////// 06/03 Q1003 ///=
0090101260999992014010403204+53548+007667FM-15+000899999V0202101N008819999999N004200199+00601+00301999999ADDMA1100401999990REMMET063METAR ETNT 040320Z AUTO 21017KT 4200 // ////// 06/03 Q1004 ///=
0090101260999992014010404204+53548+007667FM-15+000899999V0202201N007719999999N004300199+00701+00301999999ADDMA1100401999990REMMET063METAR ETNT 040420Z AUTO 22015KT 4300 // ////// 07/03 Q1004 ///=
0090101260999992014010405204+53548+007667FM-15+000899999V0202101N007719999999N004000199+00601+00401999999ADDMA1100401999990REMMET063METAR ETNT 040520Z AUTO 21015KT 4000 // ////// 06/04 Q1004 ///=
0090101260999992014010406204+53548+007667FM-15+000899999V0202101N007719999999N004200199+00601+00301999999ADDMA1100501999990REMMET063METAR ETNT 040620Z AUTO 21015KT 4200 // ////// 06/03 Q1005 ///=
0090101260999992014010407204+53548+007667FM-15+000899999V0202001N006719999999N004300199+00601+00301999999ADDMA1100501999990REMMET063METAR ETNT 040720Z AUTO 20013KT 4300 // ////// 06/03 Q1005 ///=
0090101260999992014010408204+53548+007667FM-15+000899999V0201801N004119999999N004300199+00601+00301999999ADDMA1100501999990REMMET063METAR ETNT 040820Z AUTO 18008KT 4300 // ////// 06/03 Q1005 ///=
0090101260999992014010409204+53548+007667FM-15+000899999V0201801N005719999999N005000199+00601+00301999999ADDMA1100401999990REMMET063METAR ETNT 040920Z AUTO 18011KT 5000 // ////// 06/03 Q1004 ///=
0090101260999992014010410204+53548+007667FM-15+000899999V0201801N006219999999N005000199+00701+00301999999ADDMA1100301999990REMMET063METAR ETNT 041020Z AUTO 18012KT 5000 // ////// 07/03 Q1003 ///=
0090101260999992014010411204+53548+007667FM-15+000899999V0201701N005719999999N005000199+00801+00301999999ADDMA1100201999990REMMET063METAR ETNT 041120Z AUTO 17011KT 5000 // ////// 08/03 Q1002 ///=
0090101260999992014010412204+53548+007667FM-15+000899999V0201501N005719999999N006000199+00801+00301999999ADDMA1100101999990REMMET063METAR ETNT 041220Z AUTO 15011KT 6000 // ////// 08/03 Q1001 ///=
0090101260999992014010413204+53548+007667FM-15+000899999V0201401N004619999999N006000199+00701+00401999999ADDMA1100101999990REMMET063METAR ETNT 041320Z AUTO 14009KT 6000 // ////// 07/04 Q1001 ///=
0090101260999992014010414204+53548+007667FM-15+000899999V0201401N005719999999N006000199+00701+00401999999ADDMA1100001999990REMMET063METAR ETNT 041420Z AUTO 14011KT 6000 // ////// 07/04 Q1000 ///=
0090101260999992014010415204+53548+007667FM-15+000899999V0201401N006219999999N006000199+00701+00301999999ADDMA1099901999990REMMET063METAR ETNT 041520Z AUTO 14012KT 6000 // ////// 07/03 Q0999 ///=
0090101260999992014010416204+53548+007667FM-15+000899999V0201301N005119999999N006000199+00701+00301999999ADDMA1099801999990REMMET063METAR ETNT 041620Z AUTO 13010KT 6000 // ////// 07/03 Q0998 ///=
0090101260999992014010417204+53548+007667FM-15+000899999V0201401N005119999999N006000199+00701+00401999999ADDMA1099801999990REMMET063METAR ETNT 041720Z AUTO 14010KT 6000 // ////// 07/04 Q0998 ///=
0090101260999992014010418204+53548+007667FM-15+000899999V0201301N004619999999N006000199+00801+00401999999ADDMA1099701999990REMMET063METAR ETNT 041820Z AUTO 13009KT 6000 // ////// 08/04 Q0997 ///=
0090101260999992014010419204+53548+007667FM-15+000899999V0201401N003119999999N005000199+00701+00401999999ADDMA1099701999990REMMET063METAR ETNT 041920Z AUTO 14006KT 5000 // ////// 07/04 Q0997 ///=
0090101260999992014010420204+53548+007667FM-15+000899999V0201401N003619999999N003900199+00701+00501999999ADDMA1099701999990REMMET063METAR ETNT 042020Z AUTO 14007KT 3900 // ////// 07/05 Q0997 ///=
0090101260999992014010421204+53548+007667FM-15+000899999V0201201N003619999999N004800199+00601+00501999999ADDMA1099601999990REMMET063METAR ETNT 042120Z AUTO 12007KT 4800 // ////// 06/05 Q0996 ///=
0090101260999992014010422204+53548+007667FM-15+000899999V0201201N003619999999N005000199+00501+00401999999ADDMA1099501999990REMMET063METAR ETNT 042220Z AUTO 12007KT 5000 // ////// 05/04 Q0995 ///=
0090101260999992014010423204+53548+007667FM-15+000899999V0201401N002619999999N005000199+00501+00401999999ADDMA1099601999990REMMET063METAR ETNT 042320Z AUTO 14005KT 5000 // ////// 05/04 Q0996 ///=
0090101260999992014010500204+53548+007667FM-15+000899999V0201501N003119999999N005000199+00601+00501999999ADDMA1099501999990REMMET063METAR ETNT 050020Z AUTO 15006KT 5000 // ////// 06/05 Q0995 ///=
0090101260999992014010501204+53548+007667FM-15+000899999V0201701N002119999999N005000199+00601+00501999999ADDMA1099501999990REMMET063METAR ETNT 050120Z AUTO 17004KT 5000 // ////// 06/05 Q0995 ///=
0090101260999992014010502204+53548+007667FM-15+000899999V0201701N002619999999N005000199+00601+00501999999ADDMA1099601999990REMMET063METAR ETNT 050220Z AUTO 17005KT 5000 // ////// 06/05 Q0996 ///=
0090101260999992014010503204+53548+007667FM-15+000899999V0201901N003119999999N005000199+00601+00501999999ADDMA1099601999990REMMET063METAR ETNT 050320Z AUTO 19006KT 5000 // ////// 06/05 Q0996 ///=
0090101260999992014010504204+53548+007667FM-15+000899999V0202201N003619999999N003100199+00701+00601999999ADDMA1099601999990REMMET063METAR ETNT 050420Z AUTO 22007KT 3100 // ////// 07/06 Q0996 ///=
0090101260999992014010505204+53548+007667FM-15+000899999V0202401N004619999999N002900199+00701+00601999999ADDMA1099701999990REMMET063METAR ETNT 050520Z AUTO 24009KT 2900 // ////// 07/06 Q0997 ///=
0090101260999992014010506204+53548+007667FM-15+000899999V0202601N004619999999N004000199+00601+00601999999ADDMA1099801999990REMMET063METAR ETNT 050620Z AUTO 26009KT 4000 // ////// 06/06 Q0998 ///=
0090101260999992014010507204+53548+007667FM-15+000899999V0202501N003619999999N004300199+00601+00501999999ADDMA1100001999990REMMET063METAR ETNT 050720Z AUTO 25007KT 4300 // ////// 06/05 Q1000 ///=
0090101260999992014010508204+53548+007667FM-15+000899999V0202401N004619999999N004400199+00601+00501999999ADDMA1100101999990REMMET063METAR ETNT 050820Z AUTO 24009KT 4400 // ////// 06/05 Q1001 ///=
0090101260999992014010509204+53548+007667FM-15+000899999V0202301N004619999999N004400199+00601+00501999999ADDMA1100201999990REMMET063METAR ETNT 050920Z AUTO 23009KT 4400 // ////// 06/05 Q1002 ///=
0090101260999992014010510204+53548+007667FM-15+000899999V0202301N004619999999N005000199+00601+00401999999ADDMA1100301999990REMMET063METAR ETNT 051020Z AUTO 23009KT 5000 // ////// 06/04 Q1003 ///=
0090101260999992014010511204+53548+007667FM-15+000899999V0202301N004619999999N005000199+00701+00401999999ADDMA1100401999990REMMET063METAR ETNT 051120Z AUTO 23009KT 5000 // ////// 07/04 Q1004 ///=
0090101260999992014010512204+53548+007667FM-15+000899999V0202201N004619999999N005000199+00701+00401999999ADDMA1100401999990REMMET063METAR ETNT 051220Z AUTO 22009KT 5000 // ////// 07/04 Q1004 ///=
0090101260999992014010513204+53548+007667FM-15+000899999V0202201N006719999999N006000199+00701+00401999999ADDMA1100501999990REMMET063METAR ETNT 051320Z AUTO 22013KT 6000 // ////// 07/04 Q1005 ///=
0090101260999992014010514204+53548+007667FM-15+000899999V0202201N005119999999N006000199+00701+00301999999ADDMA1100601999990REMMET063METAR ETNT 051420Z AUTO 22010KT 6000 // ////// 07/03 Q1006 ///=
0090101260999992014010515204+53548+007667FM-15+000899999V0202101N004619999999N005000199+00601+00401999999ADDMA1100701999990REMMET063METAR ETNT 051520Z AUTO 21009KT 5000 // ////// 06/04 Q1007 ///=
0090101260999992014010516204+53548+007667FM-15+000899999V0202101N005719999999N005000199+00501+00301999999ADDMA1100701999990REMMET063METAR ETNT 051620Z AUTO 21011KT 5000 // ////// 05/03 Q1007 ///=
0090101260999992014010517204+53548+007667FM-15+000899999V0202001N004619999999N005000199+00501+00301999999ADDMA1100701999990REMMET063METAR ETNT 051720Z AUTO 20009KT 5000 // ////// 05/03 Q1007 ///=
0090101260999992014010518204+53548+007667FM-15+000899999V0202001N005719999999N005000199+00501+00301999999ADDMA1100701999990REMMET063METAR ETNT 051820Z AUTO 20011KT 5000 // ////// 05/03 Q1007 ///=
0090101260999992014010519204+53548+007667FM-15+000899999V0201901N005119999999N005000199+00501+00301999999ADDMA1100701999990REMMET063METAR ETNT 051920Z AUTO 19010KT 5000 // ////// 05/03 Q1007 ///=
0090101260999992014010520204+53548+007667FM-15+000899999V0201901N004619999999N005000199+00501+00201999999ADDMA1100701999990REMMET063METAR ETNT 052020Z AUTO 19009KT 5000 // ////// 05/02 Q1007 ///=
0090101260999992014010521204+53548+007667FM-15+000899999V0201901N005119999999N006000199+00401+00201999999ADDMA1100701999990REMMET063METAR ETNT 052120Z AUTO 19010KT 6000 // ////// 04/02 Q1007 ///=
0090101260999992014010522204+53548+007667FM-15+000899999V0201701N005119999999N006000199+00401+00101999999ADDMA1100601999990REMMET063METAR ETNT 052220Z AUTO 17010KT 6000 // ////// 04/01 Q1006 ///=
0090101260999992014010523204+53548+007667FM-15+000899999V0201701N005719999999N005000199+00401+00101999999ADDMA1100501999990REMMET063METAR ETNT 052320Z AUTO 17011KT 5000 // ////// 04/01 Q1005 ///=
0090101260999992014010600204+53548+007667FM-15+000899999V0201701N005719999999N006000199+00401+00101999999ADDMA1100401999990REMMET063METAR ETNT 060020Z AUTO 17011KT 6000 // ////// 04/01 Q1004 ///=
0090101260999992014010601204+53548+007667FM-15+000899999V0201701N006719999999N006000199+00401+00101999999ADDMA1100301999990REMMET063METAR ETNT 060120Z AUTO 17013KT 6000 // ////// 04/01 Q1003 ///=
0090101260999992014010602204+53548+007667FM-15+000899999V0201701N007219999999N005000199+00501+00201999999ADDMA1100301999990REMMET063METAR ETNT 060220Z AUTO 17014KT 5000 // ////// 05/02 Q1003 ///=
0090101260999992014010603204+53548+007667FM-15+000899999V0201701N006219999999N001900199+00501+00201999999ADDMA1100201999990REMMET063METAR ETNT 060320Z AUTO 17012KT 1900 // ////// 05/02 Q1002 ///=
0181101260999992014010604204+53548+007667FM-15+000899999V0201701N006710057919N009999199+00501+00401999999ADDGA1071+005791991GA2071+013721991GE19MSL   +99999+99999GF199999071990005791991991MA1100001999990MW1581REMMET068METAR ETNT 060420Z 17013KT 9999 -RADZ BKN019 BKN045 05/04 Q1000 WHT=
0211101260999992014010605204+53548+007667FM-15+000899999V0201801N007710039619N008000199+00601+00401999999ADDGA1071+003961991GA2071+006711991GE19MSL   +99999+99999GF199999071990003961991991MA1100001999990MW1581OC101291REMMET090METAR ETNT 060520Z 18015G25KT 8000 -RADZ BKN013 BKN022 06/04 Q1000      GRN WHT TEMPO GRN=
0177101260999992014010606204+53548+007667FM-15+000899999V0201801N007710027419N008000199+00601+00501999999ADDGA1071+002741991GE19MSL   +99999+99999GF199999071990002741991991MA1100001999990MW1581REMMET080METAR ETNT 060620Z 18015KT 8000 -RADZ BKN009 06/05 Q1000 GRN WHT TEMPO      GRN=
0200101260999992014010607204+53548+007667FM-15+000899999V0201801N007710039619N009999199+00701+00601999999ADDGA1021+002741991GA2071+003961991GE19MSL   +99999+99999GF199999021990002741991991MA1099901999990MW1581REMMET087METAR ETNT 060720Z 18015KT 9999 -RADZ FEW009 BKN013 07/06 Q0999 GRN      WHT TEMPO GRN=
0208101260999992014010607364+53548+007667FM-16+000899999V0201801N007710039619N003500199+00701+00601999999ADDGA1041+003051991GA2071+003961991GE19MSL   +99999+99999GF199999041990003051991991MA1099901999990MW1101MW2591REMMET089SPECI ETNT 060736Z 18015KT 3500 DZRA BR SCT010 BKN013 07/06 Q0999 YLO      WHT TEMPO YLO=
0208101260999992014010607484+53548+007667FM-16+000899999V0201801N007710042719N002500199+00701+00601999999ADDGA1041+003051991GA2071+004271991GE19MSL   +99999+99999GF199999041990003051991991MA1100001999990MW1101MW2591REMMET089SPECI ETNT 060748Z 18015KT 2500 RADZ BR SCT010 BKN014 07/06 Q1000 YLO      WHT TEMPO YLO=
0205101260999992014010608204+53548+007667FM-15+000899999V0201801N006710021319N006000199+00801+00701999999ADDGA1071+002131991GA2071+003051991GE19MSL   +99999+99999GF199999071990002131991991MA1100001999990MW1581REMMET092METAR ETNT 060820Z 18013KT 6000 -RADZ BKN007 BKN010 08/07 Q1000 RERA      GRN WHT TEMPO YLO=
0214101260999992014010608364+53548+007667FM-16+000899999V0201801N006710021319N004000199+00801+00801999999ADDGA1071+002131991GA2071+003661991GE19MSL   +99999+99999GF199999071990002131991991MA1100001999990MW1101MW2581REMMET095SPECI ETNT 060836Z 18013KT 4000 -RADZ BR BKN007 BKN012 08/08 Q1000      RERA GRN WHT TEMPO YLO=
0199101260999992014010609204+53548+007667FM-15+000899999V0202001N009310042719N009999199+01001+00801999999ADDGA1041+003051991GA2071+004271991GE19MSL   +99999+99999GF199999041990003051991991MA1100001999990OC101441REMMET084METAR ETNT 060920Z 20018G28KT 9999 SCT010 BKN014 10/08 Q1000 GRN WHT      TEMPO YLO=
0188101260999992014010610204+53548+007667FM-15+000899999V0202001N009810057919N009999199+01001+00901999999ADDGA1041+004271991GA2071+005791991GE19MSL   +99999+99999GF199999041990004271991991MA1100101999990REMMET081METAR ETNT 061020Z 20019KT 9999 SCT014 BKN019 10/09 Q1001 WHT WHT TEMPO      YLO=
0173101260999992014010611204+53548+007667FM-15+000899999V0202001N008810100619N009999199+01101+00901999999ADDGA1041+004571991GA2071+010061991GE19MSL   +99999+99999GF199999041990004571991991MA1100001999990REMMET066METAR ETNT 061120Z 20017KT 9999 SCT015 BKN033 11/09 Q1000 BLU BLU=
0184101260999992014010612204+53548+007667FM-15+000899999V0202001N007710103619N009999199+01101+00901999999ADDGA1041+005181991GA2071+010361991GE19MSL   +99999+99999GF199999041990005181991991MA1100101999990OC101291REMMET069METAR ETNT 061220Z 20015G25KT 9999 SCT017 BKN034 11/09 Q1001 BLU BLU=
0173101260999992014010613204+53548+007667FM-15+000899999V0201901N008810249919N009999199+01201+00901999999ADDGA1021+006401991GA2071+024991991GE19MSL   +99999+99999GF199999021990006401991991MA1100001999990REMMET066METAR ETNT 061320Z 19017KT 9999 FEW021 BKN082 12/09 Q1000 BLU BLU=
0173101260999992014010614204+53548+007667FM-15+000899999V0201901N007210274319N009999199+01201+00901999999ADDGA1041+012191991GA2071+027431991GE19MSL   +99999+99999GF199999041990012191991991MA1100101999990REMMET066METAR ETNT 061420Z 19014KT 9999 SCT040 BKN090 12/09 Q1001 BLU BLU=
0150101260999992014010615204+53548+007667FM-15+000899999V0201801N006210152419N009999199+01201+00901999999ADDGA1071+015241991GE19MSL   +99999+99999GF199999071990015241991991MA1100101999990REMMET059METAR ETNT 061520Z 18012KT 9999 BKN050 12/09 Q1001 BLU BLU=
0186101260999992014010616204+53548+007667FM-15+000899999V0201801N00671060961CN009999199+01201+00901999999ADDGA1041+015241991GA2041+060961991GE19MSL   +99999+99999GF199999041990015241991991MA1100101999990REMMET079METAR ETNT 061620Z 18013KT 9999 SCT050 SCT200 12/09 Q1001 BLU/FCST      CANCEL=
0147101260999992014010617204+53548+007667FM-15+000899999V0201801N006219999999N009999199+01101+00901999999ADDGA1041+015241991GE19MSL   +99999+99999GF199999041990015241991991MA1100101999990REMMET056METAR ETNT 061720Z 18012KT 9999 SCT050 11/09 Q1001 BLU/=
0170101260999992014010618204+53548+007667FM-15+000899999V0201801N00511060961CN009999199+01101+00901999999ADDGA1021+015241991GA2041+060961991GE19MSL   +99999+99999GF199999021990015241991991MA1100001999990REMMET063METAR ETNT 061820Z 18010KT 9999 FEW050 SCT200 11/09 Q1000 BLU/=
0169101260999992014010619204+53548+007667FM-15+000899999V0201801N006710061019N009999199+01101+00901999999ADDGA1071+006101991GA2041+060961991GE19MSL   +99999+99999GF199999071990006101991991MA1100001999990REMMET062METAR ETNT 061920Z 18013KT 9999 BKN020 SCT200 11/09 Q1000 WHT=
0207101260999992014010619574+53548+007667FM-16+000899999V0202001N007210106719N002000199+01101+00901999999ADDGA1071+010671091GA2041+060961991GE19MSL   +99999+99999GF199999071990010671991991MA1100101999990MW1101MW2811OC101291REMMET080SPECI ETNT 061957Z 20014G25KT 2000 SHRA BR BKN035CB SCT200 11/09 Q1001      YLO=
0204101260999992014010620034+53548+007667FM-16+000899999V0202301N007210106719N005000199+00901+00701999999ADDGA1071+010671091GA2041+060961991GE19MSL   +99999+99999GF199999071990010671991991MA1100101999990MW1801OC101291REMMET083SPECI ETNT 062003Z 23014G25KT 5000 -SHRA BKN035CB SCT200 09/07 Q1001      RERA WHT=
0176101260999992014010620204+53548+007667FM-15+000899999V0202301N004610106719N009999199+01001+00801999999ADDGA1021+006101091GA2071+010671991GE19MSL   +99999+99999GF199999021990006101991991MA1100101999990REMMET069METAR ETNT 062020Z 23009KT 9999 FEW020CB BKN035 10/08 Q1001 RERA BLU=
0183101260999992014010621204+53548+007667FM-15+000899999V0202401N005110106719N009999199+01001+00901999999ADDGA1021+003661091GA2071+010671991GE19MSL   +99999+99999GF199999021990003661991991MA1100101999990MW1801REMMET070METAR ETNT 062120Z 24010KT 9999 -SHRA FEW012CB BKN035 10/09 Q1001 BLU=
0189101260999992014010622204+53548+007667FM-15+000899999V0202301N005710106719N004000199+00901+00801999999ADDGA1021+003661091GA2071+010671991GE19MSL   +99999+99999GF199999021990003661991991MA1100101999990MW1101MW2631REMMET070METAR ETNT 062220Z 23011KT 4000 RA BR FEW012CB BKN035 09/08 Q1001 GRN=
0179101260999992014010623204+53548+007667FM-15+000899999V0202001N005710106719N009999199+00901+00801999999ADDGA1071+010671991GA2081+027431991GE19MSL   +99999+99999GF199999071990010671991991MA1100101999990MW1611REMMET066METAR ETNT 062320Z 20011KT 9999 -RA BKN035 OVC090 09/08 Q1001 BLU=
0170101260999992014010700204+53548+007667FM-15+000899999V0202201N00671060961CN009999199+00901+00701999999ADDGA1041+027431991GA2041+060961991GE19MSL   +99999+99999GF199999041990027431991991MA1100201999990REMMET063METAR ETNT 070020Z 22013KT 9999 SCT090 SCT200 09/07 Q1002 BLU/=
0147101260999992014010701204+53548+007667FM-15+000899999V0202101N006719999999N009999199+00901+00701999999ADDGA1041+060961991GE19MSL   +99999+99999GF199999041990060961991991MA1100301999990REMMET056METAR ETNT 070120Z 21013KT 9999 SCT200 09/07 Q1003 BLU/=
0170101260999992014010702204+53548+007667FM-15+000899999V0202101N007710609619N009999199+00901+00701999999ADDGA1041+010671991GA2071+060961991GE19MSL   +99999+99999GF199999041990010671991991MA1100401999990REMMET063METAR ETNT 070220Z 21015KT 9999 SCT035 BKN200 09/07 Q1004 BLU/=
0170101260999992014010703204+53548+007667FM-15+000899999V0202101N008810609619N009999199+01001+00701999999ADDGA1041+010671991GA2071+060961991GE19MSL   +99999+99999GF199999041990010671991991MA1100401999990REMMET063METAR ETNT 070320Z 21017KT 9999 SCT035 BKN200 10/07 Q1004 BLU/=
0158101260999992014010704204+53548+007667FM-15+000899999V0202101N008219999999N009999199+01001+00701999999ADDGA1041+008841991GE19MSL   +99999+99999GF199999041990008841991991MA1100401999990OC101391REMMET059METAR ETNT 070420Z 21016G27KT 9999 SCT029 10/07 Q1004 BLU/=
0161101260999992014010705204+53548+007667FM-15+000899999V0202201N007210079219N009999199+01001+00701999999ADDGA1071+007921991GE19MSL   +99999+99999GF199999071990007921991991MA1100501999990REMMET070METAR ETNT 070520Z 22014KT 9999 BKN026 10/07 Q1005 BLU BLU/ TEMPO BLU=
0161101260999992014010706204+53548+007667FM-15+000899999V0202101N007210088419N009999199+01001+00701999999ADDGA1071+008841991GE19MSL   +99999+99999GF199999071990008841991991MA1100501999990REMMET070METAR ETNT 070620Z 21014KT 9999 BKN029 10/07 Q1005 BLU BLU/ TEMPO BLU=
0189101260999992014010707204+53548+007667FM-15+000899999V0202101N006710518219N009999199+00901+00601999999ADDGA1041+008841991GA2071+051821991GE19MSL   +99999+99999GF199999041990008841991991MA1100601999990REMMET082METAR ETNT 070720Z 21013KT 9999 SCT029 BKN170 09/06 Q1006 BLU BLU/      TEMPO BLU=
0212101260999992014010708204+53548+007667FM-15+000899999V0202101N008210518219N009999199+00901+00601999999ADDGA1021+008841991GA2071+051821991GA3071+067061991GE19MSL   +99999+99999GF199999021990008841991991MA1100701999990REMMET089METAR ETNT 070820Z 21016KT 9999 FEW029 BKN170 BKN220 09/06 Q1007 BLU      BLU/ TEMPO BLU=
0212101260999992014010709204+53548+007667FM-15+000899999V0202001N00881054861CN009999199+01001+00601999999ADDGA1021+011891991GA2041+054861991GA3071+064011991GE19MSL   +99999+99999GF199999021990011891991991MA1100701999990REMMET089METAR ETNT 070920Z 20017KT 9999 FEW039 SCT180 BKN210 10/06 Q1007 BLU/BLU/      TEMPO BLU=
0200101260999992014010710204+53548+007667FM-15+000899999V0202001N009810152419N009999199+01001+00701999999ADDGA1071+015241991GA2071+064011991GE19MSL   +99999+99999GF199999071990015241991991MA1100701999990OC101491REMMET085METAR ETNT 071020Z 20019G29KT 9999 BKN050 BKN210 10/07 Q1007 BLU BLU/      TEMPO BLU=
0212101260999992014010711204+53548+007667FM-15+000899999V0202001N00931008231CN009999199+01001+00701999999ADDGA1021+006101991GA2041+008231991GA3071+064011991GE19MSL   +99999+99999GF199999021990006101991991MA1100701999990REMMET089METAR ETNT 071120Z 20018KT 9999 FEW020 SCT027 BKN210 10/07 Q1007 BLU/BLU/      TEMPO BLU=
0189101260999992014010712204+53548+007667FM-15+000899999V0202001N010310082319N009999199+01001+00701999999ADDGA1021+006101991GA2071+008231991GE19MSL   +99999+99999GF199999021990006101991991MA1100701999990REMMET082METAR ETNT 071220Z 20020KT 9999 FEW020 BKN027 10/07 Q1007 BLU BLU/      TEMPO BLU=
0212101260999992014010713204+53548+007667FM-15+000899999V0202001N008810121919N009999199+01101+00701999999ADDGA1021+007621991GA2071+012191991GA3071+064011991GE19MSL   +99999+99999GF199999021990007621991991MA1100701999990REMMET089METAR ETNT 071320Z 20017KT 9999 FEW025 BKN040 BKN210 11/07 Q1007 BLU      BLU/ TEMPO BLU=
0189101260999992014010714204+53548+007667FM-15+000899999V0202001N008810152419N009999199+01101+00701999999ADDGA1021+007621991GA2071+015241991GE19MSL   +99999+99999GF199999021990007621991991MA1100701999990REMMET082METAR ETNT 071420Z 20017KT 9999 FEW025 BKN050 11/07 Q1007 BLU BLU/      TEMPO BLU=
0160101260999992014010715204+53548+007667FM-15+000899999V0201901N006710146319N009999199+01101+00701999999ADDGA1071+014631991GE19MSL   +99999+99999GF199999071990014631991991MA1100701999990REMMET069METAR ETNT 071520Z 19013KT 9999 BKN048 11/07 Q1007 BLU BLU TEMPO WHT=
0186101260999992014010716204+53548+007667FM-15+000899999V0202001N007710152419N009999199+01101+00601999999ADDGA1071+015241991GA2071+064011991GE19MSL   +99999+99999GF199999071990015241991991MA1100701999990REMMET079METAR ETNT 071620Z 20015KT 9999 BKN050 BKN210 11/06 Q1007 BLU FCST      CANCEL=
0170101260999992014010717114+53548+007667FM-16+000899999V0202601N009310057919N003000199+00901+00601999999ADDGA1071+005791091GE19MSL   +99999+99999GF199999071990005791991991MA1100801999990MW1811OC102061REMMET065SPECI ETNT 071711Z 26018G40KT 3000 SHRA BKN019CB 09/06 Q1008 YLO=
0204101260999992014010717204+53548+007667FM-15+000899999V0202401N012410121919N009999199+00701+00501999999ADDGA1041+005791091GA2071+012191991GE19MSL   +99999+99999GF199999041990005791991991MA1100801999990MW1801OC102011REMMET083METAR ETNT 071720Z 24024G39KT 9999 -SHRA SCT019CB BKN040 07/05 Q1008      RERA BLU=
0182101260999992014010718204+53548+007667FM-15+000899999V0202201N006210121919N009999199+00901+00601999999ADDGA1021+006101081GA2071+012191991GE19MSL   +99999+99999GF199999021990006101991991MA1100801999990MW1611REMMET069METAR ETNT 071820Z 22012KT 9999 -RA FEW020TCU BKN040 09/06 Q1008 BLU=
0169101260999992014010719204+53548+007667FM-15+000899999V0202101N005710091419N009999199+00901+00701999999ADDGA1071+009141991GA2071+064011991GE19MSL   +99999+99999GF199999071990009141991991MA1100801999990REMMET062METAR ETNT 071920Z 21011KT 9999 BKN030 BKN210 09/07 Q1008 BLU=
0170101260999992014010720204+53548+007667FM-15+000899999V0202101N00671057911CN009999199+00901+00701999999ADDGA1041+009141991GA2041+057911991GE19MSL   +99999+99999GF199999041990009141991991MA1100801999990REMMET063METAR ETNT 072020Z 21013KT 9999 SCT030 SCT190 09/07 Q1008 BLU/=
0147101260999992014010721204+53548+007667FM-15+000899999V0202001N006219999999N009999199+00901+00701999999ADDGA1041+010671991GE19MSL   +99999+99999GF199999041990010671991991MA1100901999990REMMET056METAR ETNT 072120Z 20012KT 9999 SCT035 09/07 Q1009 BLU/=
0170101260999992014010722204+53548+007667FM-15+000899999V0202001N00721057911CN009999199+01001+00701999999ADDGA1021+009751991GA2041+057911991GE19MSL   +99999+99999GF199999021990009751991991MA1100901999990REMMET063METAR ETNT 072220Z 20014KT 9999 FEW032 SCT190 10/07 Q1009 BLU/=
0147101260999992014010723204+53548+007667FM-15+000899999V0202101N006719999999N009999199+00901+00601999999ADDGA1041+009451991GE19MSL   +99999+99999GF199999041990009451991991MA1100901999990REMMET056METAR ETNT 072320Z 21013KT 9999 SCT031 09/06 Q1009 BLU/=
0147101260999992014010800204+53548+007667FM-15+000899999V0202201N007719999999N009999199+01001+00701999999ADDGA1041+009141991GE19MSL   +99999+99999GF199999041990009141991991MA1100901999990REMMET056METAR ETNT 080020Z 22015KT 9999 SCT030 10/07 Q1009 BLU/=
0170101260999992014010801204+53548+007667FM-15+000899999V0202101N00721057911CN009999199+00901+00701999999ADDGA1021+008841991GA2041+057911991GE19MSL   +99999+99999GF199999021990008841991991MA1100901999990REMMET063METAR ETNT 080120Z 21014KT 9999 FEW029 SCT190 09/07 Q1009 BLU/=
0147101260999992014010802204+53548+007667FM-15+000899999V0202001N006219999999N009999199+00901+00701999999ADDGA1041+060961991GE19MSL   +99999+99999GF199999041990060961991991MA1100901999990REMMET056METAR ETNT 080220Z 20012KT 9999 SCT200 09/07 Q1009 BLU/=
0169101260999992014010803204+53548+007667FM-15+000899999V0202101N005110274319N009999199+00901+00701999999ADDGA1021+006711991GA2071+027431991GE19MSL   +99999+99999GF199999021990006711991991MA1100901999990REMMET062METAR ETNT 080320Z 21010KT 9999 FEW022 BKN090 09/07 Q1009 BLU=
0146101260999992014010804204+53548+007667FM-15+000899999V0202101N006210115819N009999199+00901+00701999999ADDGA1071+011581991GE19MSL   +99999+99999GF199999071990011581991991MA1100801999990REMMET055METAR ETNT 080420Z 21012KT 9999 BKN038 09/07 Q1008 BLU=
0175101260999992014010805204+53548+007667FM-15+000899999V0202301N005710109719N009999199+00901+00701999999ADDGA1071+010971991GE19MSL   +99999+99999GF199999071990010971991991MA1100901999990MW1611REMMET078METAR ETNT 080520Z 23011KT 9999 -RA BKN036 09/07 Q1009 BLU BLU TEMPO      WHT=
0160101260999992014010806204+53548+007667FM-15+000899999V0202201N004610100619N009999199+00801+00601999999ADDGA1071+010061991GE19MSL   +99999+99999GF199999071990010061991991MA1100901999990REMMET069METAR ETNT 080620Z 22009KT 9999 BKN033 08/06 Q1009 BLU BLU TEMPO WHT=
0160101260999992014010806214+53548+007667FM-16+000899999V0202201N004610100619N009999199+00801+00601999999ADDGA1071+010061991GE19MSL   +99999+99999GF199999071990010061991991MA1100901999990REMMET069SPECI ETNT 080621Z 22009KT 9999 BKN033 08/06 Q1009 BLU BLU TEMPO WHT=
0188101260999992014010807204+53548+007667FM-15+000899999V0202301N006710054919N009999199+00801+00601999999ADDGA1071+005491991GA2071+011281991GE19MSL   +99999+99999GF199999071990005491991991MA1101101999990REMMET081METAR ETNT 080720Z 23013KT 9999 BKN018 BKN037 08/06 Q1011 WHT BLU TEMPO      WHT=
0161101260999992014010808204+53548+007667FM-15+000899999V0202301N006219999999N009999199+00801+00601999999ADDGA1041+004881991GE19MSL   +99999+99999GF199999041990004881991991MA1101201999990REMMET070METAR ETNT 080820Z 23012KT 9999 SCT016 08/06 Q1012 BLU/BLU/ TEMPO GRN=
0161101260999992014010809204+53548+007667FM-15+000899999V0202301N007210039619N009999199+00901+00701999999ADDGA1071+003961991GE19MSL   +99999+99999GF199999071990003961991991MA1101201999990REMMET070METAR ETNT 080920Z 23014KT 9999 BKN013 09/07 Q1012 GRN BLU/ TEMPO GRN=
0177101260999992014010810204+53548+007667FM-15+000899999V0202401N007710045719N009999199+00901+00701999999ADDGA1071+004571991GE19MSL   +99999+99999GF199999071990004571991991MA1101301999990OC101291REMMET078METAR ETNT 081020Z 24015G25KT 9999 BKN015 09/07 Q1013 WHT BLU/ TEMPO      GRN=
0160101260999992014010811204+53548+007667FM-15+000899999V0202301N008210051819N009999199+00901+00701999999ADDGA1071+005181991GE19MSL   +99999+99999GF199999071990005181991991MA1101301999990REMMET069METAR ETNT 081120Z 23016KT 9999 BKN017 09/07 Q1013 WHT WHT BECMG BLU=
0160101260999992014010812204+53548+007667FM-15+000899999V0202301N007710057919N009999199+00901+00701999999ADDGA1071+005791991GE19MSL   +99999+99999GF199999071990005791991991MA1101301999990REMMET069METAR ETNT 081220Z 23015KT 9999 BKN019 09/07 Q1013 WHT WHT BECMG BLU=
0160101260999992014010813204+53548+007667FM-15+000899999V0202301N008810067119N009999199+01001+00601999999ADDGA1071+006711991GE19MSL   +99999+99999GF199999071990006711991991MA1101301999990REMMET069METAR ETNT 081320Z 23017KT 9999 BKN022 10/06 Q1013 WHT WHT BECMG BLU=
0160101260999992014010814204+53548+007667FM-15+000899999V0202401N008210067119N009999199+01001+00601999999ADDGA1071+006711991GE19MSL   +99999+99999GF199999071990006711991991MA1101301999990REMMET069METAR ETNT 081420Z 24016KT 9999 BKN022 10/06 Q1013 WHT WHT BECMG BLU=
0186101260999992014010815204+53548+007667FM-15+000899999V0202401N007710067119N009999199+00901+00601999999ADDGA1071+006711991GA2041+009141991GE19MSL   +99999+99999GF199999071990006711991991MA1101401999990REMMET079METAR ETNT 081520Z 24015KT 9999 BKN022 SCT030 09/06 Q1014 WHT FCST      CANCEL=
0169101260999992014010816204+53548+007667FM-15+000899999V0202401N006710091419N009999199+00901+00601999999ADDGA1041+006101991GA2071+009141991GE19MSL   +99999+99999GF199999041990006101991991MA1101401999990REMMET062METAR ETNT 081620Z 24013KT 9999 SCT020 BKN030 09/06 Q1014 BLU=
0169101260999992014010817204+53548+007667FM-15+000899999V0202401N005710085319N009999199+00901+00601999999ADDGA1041+005491991GA2071+008531991GE19MSL   +99999+99999GF199999041990005491991991MA1101401999990REMMET062METAR ETNT 081720Z 24011KT 9999 SCT018 BKN028 09/06 Q1014 BLU=
0169101260999992014010818204+53548+007667FM-15+000899999V0202301N005110039619N009999199+00901+00701999999ADDGA1071+003961991GA2071+008531991GE19MSL   +99999+99999GF199999071990003961991991MA1101401999990REMMET062METAR ETNT 081820Z 23010KT 9999 BKN013 BKN028 09/07 Q1014 GRN=
0169101260999992014010819204+53548+007667FM-15+000899999V0202301N005110036619N009999199+00901+00701999999ADDGA1071+003661991GA2071+008231991GE19MSL   +99999+99999GF199999071990003661991991MA1101401999990REMMET062METAR ETNT 081920Z 23010KT 9999 BKN012 BKN027 09/07 Q1014 GRN=
0169101260999992014010820204+53548+007667FM-15+000899999V0202301N004610070119N009999199+00901+00601999999ADDGA1041+003961991GA2071+007011991GE19MSL   +99999+99999GF199999041990003961991991MA1101401999990REMMET062METAR ETNT 082020Z 23009KT 9999 SCT013 BKN023 09/06 Q1014 WHT=
0169101260999992014010821204+53548+007667FM-15+000899999V0202201N004110039619N009999199+00801+00601999999ADDGA1071+003961991GA2071+007011991GE19MSL   +99999+99999GF199999071990003961991991MA1101501999990REMMET062METAR ETNT 082120Z 22008KT 9999 BKN013 BKN023 08/06 Q1015 GRN=
0193101260999992014010823204+53548+007667FM-15+000899999V0201901N00261030481CN008000199+00701+00501999999ADDGA1021+002741991GA2041+030481991GA3071+060961991GE19MSL   +99999+99999GF199999021990002741991991MA1101301999990REMMET070METAR ETNT 082320Z 19005KT 8000 FEW009 SCT100 BKN200 07/05 Q1013 BLU/=
0146101260999992014010900204+53548+007667FM-15+000899999V0201701N002110304819N007000199+00601+00501999999ADDGA1071+030481991GE19MSL   +99999+99999GF199999071990030481991991MA1101201999990REMMET055METAR ETNT 090020Z 17004KT 7000 BKN100 06/05 Q1012 WHT=
0146101260999992014010901204+53548+007667FM-15+000899999V0201601N002610182919N007000199+00601+00501999999ADDGA1071+018291991GE19MSL   +99999+99999GF199999071990018291991991MA1101101999990REMMET055METAR ETNT 090120Z 16005KT 7000 BKN060 06/05 Q1011 WHT=
0146101260999992014010902204+53548+007667FM-15+000899999V0201701N003610182919N009999199+00701+00601999999ADDGA1071+018291991GE19MSL   +99999+99999GF199999071990018291991991MA1100901999990REMMET055METAR ETNT 090220Z 17007KT 9999 BKN060 07/06 Q1009 BLU=
0146101260999992014010903204+53548+007667FM-15+000899999V0201601N004610213419N009999199+00701+00601999999ADDGA1071+021341991GE19MSL   +99999+99999GF199999071990021341991991MA1100701999990REMMET055METAR ETNT 090320Z 16009KT 9999 BKN070 07/06 Q1007 BLU=
0156101260999992014010904204+53548+007667FM-15+000899999V0201701N005710057919N007000199+00801+00701999999ADDGA1071+005791991GE19MSL   +99999+99999GF199999071990005791991991MA1100501999990MW1611REMMET059METAR ETNT 090420Z 17011KT 7000 -RA BKN019 08/07 Q1005 WHT=
0207101260999992014010905204+53548+007667FM-15+000899999V0201801N006210039619N005000199+00801+00701999999ADDGA1021+002741991GA2071+003961991GE19MSL   +99999+99999GF199999021990002741991991MA1100401999990MW1101MW2611REMMET088METAR ETNT 090520Z 18012KT 5000 -RA BR FEW009 BKN013 08/07 Q1004 GRN      WHT TEMPO GRN=
0207101260999992014010906204+53548+007667FM-15+000899999V0201901N006710024419N005000199+00901+00801999999ADDGA1071+002441991GA2071+003351991GE19MSL   +99999+99999GF199999071990002441991991MA1100201999990MW1101MW2611REMMET088METAR ETNT 090620Z 19013KT 5000 -RA BR BKN008 BKN011 09/08 Q1002 GRN      WHT TEMPO GRN=
0207101260999992014010907204+53548+007667FM-15+000899999V0201901N007710024419N003500199+01001+00901999999ADDGA1071+002441991GA2071+003351991GE19MSL   +99999+99999GF199999071990002441991991MA1100101999990MW1101MW2611REMMET088METAR ETNT 090720Z 19015KT 3500 -RA BR BKN008 BKN011 10/09 Q1001 YLO      WHT TEMPO YLO=
0207101260999992014010907384+53548+007667FM-16+000899999V0201801N004610018319N004000199+00901+00901999999ADDGA1071+001831991GA2071+003351991GE19MSL   +99999+99999GF199999071990001831991991MA1100101999990MW1101MW2611REMMET088SPECI ETNT 090738Z 18009KT 4000 -RA BR BKN006 BKN011 09/09 Q1001 YLO      WHT TEMPO YLO=
0197101260999992014010907524+53548+007667FM-16+000899999V0201801N005710021319N004000199+01001+00901999999ADDGA1071+002131991GA2071+003351991GE19MSL   +99999+99999GF199999071990002131991991MA1100001999990MW1101REMMET084SPECI ETNT 090752Z 18011KT 4000 BR BKN007 BKN011 10/09 Q1000 GRN WHT      TEMPO YLO=
0207101260999992014010908204+53548+007667FM-15+000899999V0201901N007210027419N004000199+01001+00901999999ADDGA1071+002741991GA2071+004271991GE19MSL   +99999+99999GF199999071990002741991991MA1100001999990MW1101MW2611REMMET088METAR ETNT 090820Z 19014KT 4000 -RA BR BKN009 BKN014 10/09 Q1000 GRN      WHT TEMPO YLO=
0218101260999992014010908484+53548+007667FM-16+000899999V0202001N008210024419N005000199+01001+00901999999ADDGA1071+002441991GA2081+004271991GE19MSL   +99999+99999GF199999071990002441991991MA1100001999990MW1101MW2611OC101341REMMET091SPECI ETNT 090848Z 20016G26KT 5000 -RA BR BKN008 OVC014 10/09 Q1000      GRN WHT TEMPO YLO=
0209101260999992014010909004+53548+007667FM-16+000899999V0202001N008210027419N003200199+01101+00901999999ADDGA1071+002741991GA2081+004271991GE19MSL   +99999+99999GF199999071990002741991991MA1099901999990MW1101MW2581REMMET090SPECI ETNT 090900Z 20016KT 3200 -RADZ BR BKN009 OVC014 11/09 Q0999      YLO WHT TEMPO YLO=
0209101260999992014010909084+53548+007667FM-16+000899999V0202001N009310027419N004000199+01001+00901999999ADDGA1071+002741991GA2081+004271991GE19MSL   +99999+99999GF199999071990002741991991MA1099901999990MW1101MW2581REMMET090SPECI ETNT 090908Z 20018KT 4000 -RADZ BR BKN009 OVC014 10/09 Q0999      GRN WHT TEMPO YLO=
0220101260999992014010909204+53548+007667FM-15+000899999V0202001N008810027419N004500199+01001+00901999999ADDGA1071+002741991GA2081+004271991GE19MSL   +99999+99999GF199999071990002741991991MA1099901999990MW1101MW2581OC101601REMMET093METAR ETNT 090920Z 20017G31KT 4500 -RADZ BR BKN009 OVC014 10/09 Q0999      GRN WHT TEMPO YLO=
0198101260999992014010909434+53548+007667FM-16+000899999V0202101N009810030519N007000199+01101+00901999999ADDGA1071+003051991GA2081+004571991GE19MSL   +99999+99999GF199999071990003051991991MA1099901999990MW1611REMMET085SPECI ETNT 090943Z 21019KT 7000 -RA BKN010 OVC015 11/09 Q0999 GRN WHT      TEMPO YLO=
0188101260999992014010910084+53548+007667FM-16+000899999V0202101N009310054919N009999199+01101+00901999999ADDGA1041+003661991GA2071+005491991GE19MSL   +99999+99999GF199999041990003661991991MA1099901999990REMMET081SPECI ETNT 091008Z 21018KT 9999 SCT012 BKN018 11/09 Q0999 WHT WHT TEMPO      YLO=
0222101260999992014010910204+53548+007667FM-15+000899999V0202101N009810057919N009999199+01101+00901999999ADDGA1021+003661991GA2071+005791991GA3071+042671991GE19MSL   +99999+99999GF199999021990003661991991MA1099801999990OC101601REMMET091METAR ETNT 091020Z 21019G31KT 9999 FEW012 BKN019 BKN140 11/09 Q0998      WHT WHT TEMPO YLO=
0197101260999992014010911204+53548+007667FM-15+000899999V0202101N008810070119N008000199+01101+00901999999ADDGA1041+005181991GA2071+007011991GE19MSL   +99999+99999GF199999041990005181991991MA1099701999990MW1631REMMET084METAR ETNT 091120Z 21017KT 8000 RA SCT017 BKN023 11/09 Q0997 WHT WHT      TEMPO YLO=
0227101260999992014010911574+53548+007667FM-16+000899999V0202301N010810070119N009999199+01101+00801999999ADDGA1021+004271991GA2071+007011991GA3071+010971991GE19MSL   +99999+99999GF199999021990004271991991MA1099601999990OC101961REMMET096SPECI ETNT 091157Z 23021G38KT 9999 FEW014 BKN023 BKN036 11/08 Q0996      RERA WHT WHT TEMPO YLO=
0204101260999992014010912204+53548+007667FM-15+000899999V0202201N011310064019N009999199+01101+00801999999ADDGA1071+006401991GA2071+010971991GE19MSL   +99999+99999GF199999071990006401991991MA1099601999990OC101701REMMET089METAR ETNT 091220Z 22022G33KT 9999 BKN021 BKN036 11/08 Q0996 RERA WHT      WHT TEMPO YLO=
0211101260999992014010912324+53548+007667FM-16+000899999V0202201N010810064019N004000199+01101+00801999999ADDGA1071+006401991GA2071+010971991GE19MSL   +99999+99999GF199999071990006401991991MA1099601999990MW1801OC101651REMMET090SPECI ETNT 091232Z 22021G32KT 4000 -SHRA BKN021 BKN036 11/08 Q0996      GRN WHT TEMPO YLO=
0211101260999992014010912434+53548+007667FM-16+000899999V0202301N012410064019N005000199+01001+00801999999ADDGA1071+006401991GA2071+010971991GE19MSL   +99999+99999GF199999071990006401991991MA1099601999990MW1801OC101801REMMET090SPECI ETNT 091243Z 23024G35KT 5000 -SHRA BKN021 BKN036 10/08 Q0996      WHT WHT TEMPO YLO=
0199101260999992014010913204+53548+007667FM-15+000899999V0202301N011310067119N009999199+01001+00701999999ADDGA1071+006711991GA2071+012501991GE19MSL   +99999+99999GF199999071990006711991991MA1099501999990OC101851REMMET084METAR ETNT 091320Z 23022G36KT 9999 BKN022 BKN041 10/07 Q0995 WHT WHT      TEMPO YLO=
0211101260999992014010914204+53548+007667FM-15+000899999V0202401N011810051819N009999199+01001+00701999999ADDGA1071+005181991GA2071+007921991GE19MSL   +99999+99999GF199999071990005181991991MA1099501999990MW1801OC101901REMMET090METAR ETNT 091420Z 24023G37KT 9999 -SHRA BKN017 BKN026 10/07 Q0995      WHT WHT TEMPO YLO=
0199101260999992014010915204+53548+007667FM-15+000899999V0202401N010810131119N009999199+00901+00601999999ADDGA1021+005181991GA2071+013111991GE19MSL   +99999+99999GF199999021990005181991991MA1099601999990OC101701REMMET084METAR ETNT 091520Z 24021G33KT 9999 FEW017 BKN043 09/06 Q0996 BLU BLU      TEMPO YLO=
0211101260999992014010915474+53548+007667FM-16+000899999V0202401N011310106719N008000199+00801+00601999999ADDGA1041+005181991GA2071+010671991GE19MSL   +99999+99999GF199999041990005181991991MA1099601999990MW1801OC101961REMMET090SPECI ETNT 091547Z 24022G38KT 8000 -SHRA SCT017 BKN035 08/06 Q0996      BLU BLU TEMPO YLO=
0209101260999992014010916024+53548+007667FM-16+000899999V0202601N011810042719N007000199+00801+00601999999ADDGA1071+004271991GA2071+010671991GE19MSL   +99999+99999GF199999071990004271991991MA1099701999990MW1801OC101851REMMET088SPECI ETNT 091602Z 26023G36KT 7000 -SHRA BKN014 BKN035 08/06 Q0997      GRN FCST CANCEL=
0181101260999992014010916204+53548+007667FM-15+000899999V0202601N011310045719N009000199+00701+00501999999ADDGA1071+004571991GA2071+009751991GE19MSL   +99999+99999GF199999071990004571991991MA1099701999990MW1801REMMET068METAR ETNT 091620Z 26022KT 9000 -SHRA BKN015 BKN032 07/05 Q0997 WHT=
0181101260999992014010917204+53548+007667FM-15+000899999V0202801N009810100619N009999199+00601+00401999999ADDGA1041+004271991GA2071+010061991GE19MSL   +99999+99999GF199999041990004271991991MA1099901999990MW1801REMMET068METAR ETNT 091720Z 28019KT 9999 -SHRA SCT014 BKN033 06/04 Q0999 BLU=
0169101260999992014010918204+53548+007667FM-15+000899999V0202701N007710091419N009999199+00601+00401999999ADDGA1041+004571991GA2071+009141991GE19MSL   +99999+99999GF199999041990004571991991MA1100001999990REMMET062METAR ETNT 091820Z 27015KT 9999 SCT015 BKN030 06/04 Q1000 BLU=
0192101260999992014010919204+53548+007667FM-15+000899999V0202601N00981015241CN009999199+00701+00401999999ADDGA1041+004571991GA2041+015241991GA3071+027431991GE19MSL   +99999+99999GF199999041990004571991991MA1100001999990REMMET069METAR ETNT 091920Z 26019KT 9999 SCT015 SCT050 BKN090 07/04 Q1000 BLU=
0180101260999992014010920204+53548+007667FM-15+000899999V0202601N010310182919N009999199+00701+00401999999ADDGA1041+005181991GA2071+018291991GE19MSL   +99999+99999GF199999041990005181991991MA1100201999990OC101601REMMET065METAR ETNT 092020Z 26020G31KT 9999 SCT017 BKN060 07/04 Q1002 BLU=
0197101260999992014010921204+53548+007667FM-15+000899999V0202701N009310045719N009999199+00601+00401999999ADDGA1071+004571991GA2041+010671991GE19MSL   +99999+99999GF199999071990004571991991MA1100301999990MW1801OC101441REMMET076METAR ETNT 092120Z 27018G28KT 9999 -SHRA BKN015 SCT035 06/04 Q1003      WHT=
0181101260999992014010922204+53548+007667FM-15+000899999V0202601N008810106719N009999199+00701+00501999999ADDGA1041+004571991GA2071+010671991GE19MSL   +99999+99999GF199999041990004571991991MA1100401999990MW1801REMMET068METAR ETNT 092220Z 26017KT 9999 -SHRA SCT015 BKN035 07/05 Q1004 BLU=
0169101260999992014010923204+53548+007667FM-15+000899999V0202501N008210112819N009999199+00701+00401999999ADDGA1021+004571991GA2071+011281991GE19MSL   +99999+99999GF199999021990004571991991MA1100401999990REMMET062METAR ETNT 092320Z 25016KT 9999 FEW015 BKN037 07/04 Q1004 BLU=
0169101260999992014011000204+53548+007667FM-15+000899999V0202501N006210121919N009999199+00701+00401999999ADDGA1021+006101991GA2071+012191991GE19MSL   +99999+99999GF199999021990006101991991MA1100501999990REMMET062METAR ETNT 100020Z 25012KT 9999 FEW020 BKN040 07/04 Q1005 BLU=
0146101260999992014011001204+53548+007667FM-15+000899999V0202501N007210097519N009999199+00701+00401999999ADDGA1071+009751991GE19MSL   +99999+99999GF199999071990009751991991MA1100601999990REMMET055METAR ETNT 100120Z 25014KT 9999 BKN032 07/04 Q1006 BLU=
0146101260999992014011002204+53548+007667FM-15+000899999V0202501N006710121919N009999199+00701+00301999999ADDGA1071+012191991GE19MSL   +99999+99999GF199999071990012191991991MA1100601999990REMMET055METAR ETNT 100220Z 25013KT 9999 BKN040 07/03 Q1006 BLU=
0169101260999992014011003204+53548+007667FM-15+000899999V0202601N007710121919N009999199+00601+00501999999ADDGA1041+004571991GA2071+012191991GE19MSL   +99999+99999GF199999041990004571991991MA1100701999990REMMET062METAR ETNT 100320Z 26015KT 9999 SCT015 BKN040 06/05 Q1007 BLU=
0169101260999992014011004204+53548+007667FM-15+000899999V0202601N009310109719N009999199+00701+00501999999ADDGA1021+004571991GA2071+010971991GE19MSL   +99999+99999GF199999021990004571991991MA1100701999990REMMET062METAR ETNT 100420Z 26018KT 9999 FEW015 BKN036 07/05 Q1007 BLU=
0188101260999992014011005204+53548+007667FM-15+000899999V0202501N007710121919N009999199+00701+00501999999ADDGA1041+004571991GA2071+012191991GE19MSL   +99999+99999GF199999041990004571991991MA1100801999990REMMET081METAR ETNT 100520Z 25015KT 9999 SCT015 BKN040 07/05 Q1008 BLU BLU TEMPO      WHT=
0188101260999992014011006204+53548+007667FM-15+000899999V0202501N008810131119N009999199+00701+00401999999ADDGA1041+004571991GA2071+013111991GE19MSL   +99999+99999GF199999041990004571991991MA1100801999990REMMET081METAR ETNT 100620Z 25017KT 9999 SCT015 BKN043 07/04 Q1008 BLU BLU TEMPO      WHT=
0211101260999992014011007204+53548+007667FM-15+000899999V0202501N00721006101CN009999199+00701+00501999999ADDGA1021+004271991GA2041+006101991GA3071+010671991GE19MSL   +99999+99999GF199999021990004271991991MA1100901999990REMMET088METAR ETNT 100720Z 25014KT 9999 FEW014 SCT020 BKN035 07/05 Q1009 BLU      BLU TEMPO WHT=
0223101260999992014011008204+53548+007667FM-15+000899999V0202401N005710045719N009999199+00601+00501999999ADDGA1021+003351991GA2071+004571991GA3071+012191991GE19MSL   +99999+99999GF199999021990003351991991MA1101001999990MW1801REMMET094METAR ETNT 100820Z 24011KT 9999 -SHRA FEW011 BKN015 BKN040 06/05 Q1010      WHT BLU TEMPO WHT=
0223101260999992014011009204+53548+007667FM-15+000899999V0202401N007210048819N009999199+00601+00501999999ADDGA1021+003351991GA2071+004881991GA3071+012191991GE19MSL   +99999+99999GF199999021990003351991991MA1101101999990MW1801REMMET094METAR ETNT 100920Z 24014KT 9999 -SHRA FEW011 BKN016 BKN040 06/05 Q1011      WHT BLU TEMPO WHT=
0209101260999992014011010204+53548+007667FM-15+000899999V0202501N00771004271CN009999199+00701+00501999999ADDGA1021+003351991GA2041+004271991GA3071+010971991GE19MSL   +99999+99999GF199999021990003351991991MA1101101999990REMMET086METAR ETNT 101020Z 25015KT 9999 FEW011 SCT014 BKN036 07/05 Q1011 BLU      FCST CANCEL=
0169101260999992014011011204+53548+007667FM-15+000899999V0202501N007710103619N009999199+00701+00401999999ADDGA1041+004571991GA2071+010361991GE19MSL   +99999+99999GF199999041990004571991991MA1101101999990REMMET062METAR ETNT 101120Z 25015KT 9999 SCT015 BKN034 07/04 Q1011 BLU=
0169101260999992014011012204+53548+007667FM-15+000899999V0202501N007210097519N009999199+00701+00401999999ADDGA1041+004881991GA2071+009751991GE19MSL   +99999+99999GF199999041990004881991991MA1101101999990REMMET062METAR ETNT 101220Z 25014KT 9999 SCT016 BKN032 07/04 Q1011 BLU=
0169101260999992014011013204+53548+007667FM-15+000899999V0202501N007210067119N009999199+00701+00401999999ADDGA1041+004881991GA2071+006711991GE19MSL   +99999+99999GF199999041990004881991991MA1101101999990REMMET062METAR ETNT 101320Z 25014KT 9999 SCT016 BKN022 07/04 Q1011 WHT=
0169101260999992014011014204+53548+007667FM-15+000899999V0202501N006210064019N009999199+00701+00401999999ADDGA1021+005181991GA2071+006401991GE19MSL   +99999+99999GF199999021990005181991991MA1101201999990REMMET062METAR ETNT 101420Z 25012KT 9999 FEW017 BKN021 07/04 Q1012 WHT=
0169101260999992014011015204+53548+007667FM-15+000899999V0202401N006210128019N009999199+00701+00501999999ADDGA1041+004571991GA2071+012801991GE19MSL   +99999+99999GF199999041990004571991991MA1101201999990REMMET062METAR ETNT 101520Z 24012KT 9999 SCT015 BKN042 07/05 Q1012 BLU=
0169101260999992014011016204+53548+007667FM-15+000899999V0202401N005710131119N009999199+00701+00501999999ADDGA1021+004271991GA2071+013111991GE19MSL   +99999+99999GF199999021990004271991991MA1101201999990REMMET062METAR ETNT 101620Z 24011KT 9999 FEW014 BKN043 07/05 Q1012 BLU=
0170101260999992014011017204+53548+007667FM-15+000899999V0202301N00621012501CN009999199+00601+00401999999ADDGA1021+004571991GA2041+012501991GE19MSL   +99999+99999GF199999021990004571991991MA1101201999990REMMET063METAR ETNT 101720Z 23012KT 9999 FEW015 SCT041 06/04 Q1012 BLU/=
0147101260999992014011018204+53548+007667FM-15+000899999V0202301N004619999999N009999199+00601+00401999999ADDGA1041+004271991GE19MSL   +99999+99999GF199999041990004271991991MA1101301999990REMMET056METAR ETNT 101820Z 23009KT 9999 SCT014 06/04 Q1013 BLU/=
0146101260999992014011018384+53548+007667FM-16+000899999V0202301N004110042719N009999199+00601+00401999999ADDGA1071+004271991GE19MSL   +99999+99999GF199999071990004271991991MA1101301999990REMMET055SPECI ETNT 101838Z 23008KT 9999 BKN014 06/04 Q1013 GRN=
0147101260999992014011019204+53548+007667FM-15+000899999V0202301N004119999999N009999199+00501+00401999999ADDGA1021+004271991GE19MSL   +99999+99999GF199999021990004271991991MA1101301999990REMMET056METAR ETNT 101920Z 23008KT 9999 FEW014 05/04 Q1013 BLU/=
0147101260999992014011020204+53548+007667FM-15+000899999V0202201N003619999999N009999199+00401+00301999999ADDGA1021+004881991GE19MSL   +99999+99999GF199999021990004881991991MA1101301999990REMMET056METAR ETNT 102020Z 22007KT 9999 FEW016 04/03 Q1013 BLU/=
0146101260999992014011021204+53548+007667FM-15+000899999V0202201N003610024419N009999199+00501+00401999999ADDGA1071+002441991GE19MSL   +99999+99999GF199999071990002441991991MA1101301999990REMMET055METAR ETNT 102120Z 22007KT 9999 BKN008 05/04 Q1013 GRN=
0146101260999992014011022204+53548+007667FM-15+000899999V0202301N005110024419N009999199+00601+00501999999ADDGA1071+002441991GE19MSL   +99999+99999GF199999071990002441991991MA1101301999990REMMET055METAR ETNT 102220Z 23010KT 9999 BKN008 06/05 Q1013 GRN=
0146101260999992014011023204+53548+007667FM-15+000899999V0202201N005110024419N009000199+00601+00501999999ADDGA1071+002441991GE19MSL   +99999+99999GF199999071990002441991991MA1101301999990REMMET055METAR ETNT 102320Z 22010KT 9000 BKN008 06/05 Q1013 GRN=
0146101260999992014011100204+53548+007667FM-15+000899999V0202201N005710024419N009000199+00601+00501999999ADDGA1071+002441991GE19MSL   +99999+99999GF199999071990002441991991MA1101201999990REMMET055METAR ETNT 110020Z 22011KT 9000 BKN008 06/05 Q1012 GRN=
0146101260999992014011101204+53548+007667FM-15+000899999V0202201N006210030519N009000199+00701+00501999999ADDGA1071+003051991GE19MSL   +99999+99999GF199999071990003051991991MA1101201999990REMMET055METAR ETNT 110120Z 22012KT 9000 BKN010 07/05 Q1012 GRN=
0146101260999992014011102204+53548+007667FM-15+000899999V0202201N006710027419N009000199+00601+00501999999ADDGA1071+002741991GE19MSL   +99999+99999GF199999071990002741991991MA1101201999990REMMET055METAR ETNT 110220Z 22013KT 9000 BKN009 06/05 Q1012 GRN=
0146101260999992014011103204+53548+007667FM-15+000899999V0202201N006210024419N009999199+00601+00501999999ADDGA1071+002441991GE19MSL   +99999+99999GF199999071990002441991991MA1101201999990REMMET055METAR ETNT 110320Z 22012KT 9999 BKN008 06/05 Q1012 GRN=
0146101260999992014011104204+53548+007667FM-15+000899999V0202201N005710024419N009999199+00601+00501999999ADDGA1071+002441991GE19MSL   +99999+99999GF199999071990002441991991MA1101101999990REMMET055METAR ETNT 110420Z 22011KT 9999 BKN008 06/05 Q1011 GRN=
0156101260999992014011105204+53548+007667FM-15+000899999V0202101N006210021319N007000199+00601+00501999999ADDGA1071+002131991GE19MSL   +99999+99999GF199999071990002131991991MA1101101999990MW1611REMMET059METAR ETNT 110520Z 21012KT 7000 -RA BKN007 06/05 Q1011 GRN=
0156101260999992014011106204+53548+007667FM-15+000899999V0202101N006210021319N006000199+00601+00501999999ADDGA1071+002131991GE19MSL   +99999+99999GF199999071990002131991991MA1101101999990MW1611REMMET059METAR ETNT 110620Z 21012KT 6000 -RA BKN007 06/05 Q1011 GRN=
0165101260999992014011107204+53548+007667FM-15+000899999V0202101N006210021319N004500199+00501+00401999999ADDGA1071+002131991GE19MSL   +99999+99999GF199999071990002131991991MA1101001999990MW1101MW2611REMMET062METAR ETNT 110720Z 21012KT 4500 -RA BR BKN007 05/04 Q1010 GRN=
0166101260999992014011108184+53548+007667FM-16+000899999V0202101N007210018319N004500199+00501+00401999999ADDGA1071+001831991GE19MSL   +99999+99999GF199999071990001831991991MA1101001999990MW1101MW2591REMMET063SPECI ETNT 110818Z 21014KT 4500 RADZ BR BKN006 05/04 Q1010 YLO=
0166101260999992014011108204+53548+007667FM-15+000899999V0202101N007210018319N004500199+00501+00401999999ADDGA1071+001831991GE19MSL   +99999+99999GF199999071990001831991991MA1101001999990MW1101MW2591REMMET063METAR ETNT 110820Z 21014KT 4500 RADZ BR BKN006 05/04 Q1010 YLO=
0166101260999992014011109204+53548+007667FM-15+000899999V0202101N007210018319N004500199+00501+00401999999ADDGA1071+001831991GE19MSL   +99999+99999GF199999071990001831991991MA1101001999990MW1101MW2591REMMET063METAR ETNT 110920Z 21014KT 4500 RADZ BR BKN006 05/04 Q1010 YLO=
0166101260999992014011110204+53548+007667FM-15+000899999V0202101N007710018319N004500199+00501+00401999999ADDGA1071+001831991GE19MSL   +99999+99999GF199999071990001831991991MA1100901999990MW1101MW2591REMMET063METAR ETNT 111020Z 21015KT 4500 RADZ BR BKN006 05/04 Q1009 YLO=
0166101260999992014011111204+53548+007667FM-15+000899999V0202101N007710018319N004500199+00501+00401999999ADDGA1071+001831991GE19MSL   +99999+99999GF199999071990001831991991MA1100901999990MW1101MW2591REMMET063METAR ETNT 111120Z 21015KT 4500 RADZ BR BKN006 05/04 Q1009 YLO=
0166101260999992014011111504+53548+007667FM-16+000899999V0202201N007710018319N006000199+00501+00501999999ADDGA1071+001831991GE19MSL   +99999+99999GF199999071990001831991991MA1100801999990MW1631OC101391REMMET061SPECI ETNT 111150Z 22015G27KT 6000 RA BKN006 05/05 Q1008 YLO=
0178101260999992014011112204+53548+007667FM-15+000899999V0202301N008810018319N006000199+00601+00501999999ADDGA1071+001831991GA2071+004571991GE19MSL   +99999+99999GF199999071990001831991991MA1100801999990MW1631REMMET065METAR ETNT 111220Z 23017KT 6000 RA BKN006 BKN015 06/05 Q1008 YLO=
0223101260999992014011112334+53548+007667FM-16+000899999V0202801N007210045719N009999199+00601+00501999999ADDGA1041+001831991GA2071+004571991GA3081+024381991GE19MSL   +99999+99999GF199999041990001831991991MA1100801999990MW1611OC101241REMMET086SPECI ETNT 111233Z 28014G24KT 9999 -RA SCT006 BKN015 OVC080 06/05 Q1008      RERA WHT=
0202101260999992014011113204+53548+007667FM-15+000899999V0202901N004610076219N009999199+00601+00401999999ADDGA1021+002131991GA2071+007621991GA3081+024381991GE19MSL   +99999+99999GF199999021990002131991991MA1100901999990REMMET079METAR ETNT 111320Z 29009KT 9999 FEW007 BKN025 OVC080 06/04 Q1009 RERA      BLU=
0209101260999992014011114204+53548+007667FM-15+000899999V0203001N004610076219N009999199+00601+00301999999ADDGA1021+005491991GA2071+007621991GA3071+024381991GE19MSL   +99999+99999GF199999021990005491991991MA1101001999990MW1801REMMET080METAR ETNT 111420Z 30009KT 9999 -SHRA FEW018 BKN025 BKN080 06/03 Q1010      BLU=
0173101260999992014011115204+53548+007667FM-15+000899999V0202801N00621033531CN009999199+00601+00301999999ADDGA1021+005491081GA2041+033531991GE19MSL   +99999+99999GF199999021990005491991991MA1101101999990REMMET066METAR ETNT 111520Z 28012KT 9999 FEW018TCU SCT110 06/03 Q1011 BLU/=
0147101260999992014011116204+53548+007667FM-15+000899999V0202801N005719999999N009999199+00601+00301999999ADDGA1021+007621991GE19MSL   +99999+99999GF199999021990007621991991MA1101201999990REMMET056METAR ETNT 111620Z 28011KT 9999 FEW025 06/03 Q1012 BLU/=
0147101260999992014011117204+53548+007667FM-15+000899999V0202801N007219999999N009999199+00601+00201999999ADDGA1021+007621991GE19MSL   +99999+99999GF199999021990007621991991MA1101301999990REMMET056METAR ETNT 111720Z 28014KT 9999 FEW025 06/02 Q1013 BLU/=
0147101260999992014011118204+53548+007667FM-15+000899999V0202701N008219999999N009999199+00501+00201999999ADDGA1021+008531991GE19MSL   +99999+99999GF199999021990008531991991MA1101401999990REMMET056METAR ETNT 111820Z 27016KT 9999 FEW028 05/02 Q1014 BLU/=
0147101260999992014011119204+53548+007667FM-15+000899999V0202701N008819999999N009999199+00601+00101999999ADDGA1041+008841991GE19MSL   +99999+99999GF199999041990008841991991MA1101501999990REMMET056METAR ETNT 111920Z 27017KT 9999 SCT029 06/01 Q1015 BLU/=
0170101260999992014011120204+53548+007667FM-15+000899999V0202801N00721013411CN009999199+00601+00101999999ADDGA1021+009141991GA2041+013411991GE19MSL   +99999+99999GF199999021990009141991991MA1101601999990REMMET063METAR ETNT 112020Z 28014KT 9999 FEW030 SCT044 06/01 Q1016 BLU/=
0158101260999992014011121204+53548+007667FM-15+000899999V0202801N009819999999N009999199+00501+00201999999ADDGA1021+006101991GE19MSL   +99999+99999GF199999021990006101991991MA1101701999990OC101601REMMET059METAR ETNT 112120Z 28019G31KT 9999 FEW020 05/02 Q1017 BLU/=
0170101260999992014011122204+53548+007667FM-15+000899999V0202701N00671057911CN009999199+00501+00201999999ADDGA1021+008231991GA2041+057911991GE19MSL   +99999+99999GF199999021990008231991991MA1101701999990REMMET063METAR ETNT 112220Z 27013KT 9999 FEW027 SCT190 05/02 Q1017 BLU/=
0169101260999992014011123204+53548+007667FM-15+000899999V0202701N006210152419N009999199+00601+00201999999ADDGA1021+008531991GA2071+015241991GE19MSL   +99999+99999GF199999021990008531991991MA1101801999990REMMET062METAR ETNT 112320Z 27012KT 9999 FEW028 BKN050 06/02 Q1018 BLU=
0169101260999992014011200204+53548+007667FM-15+000899999V0202801N006210152419N009999199+00601+00101999999ADDGA1021+009141991GA2071+015241991GE19MSL   +99999+99999GF199999021990009141991991MA1101901999990REMMET062METAR ETNT 120020Z 28012KT 9999 FEW030 BKN050 06/01 Q1019 BLU=
0147101260999992014011201204+53548+007667FM-15+000899999V0202701N005719999999N009999199+00501+00101999999ADDGA1021+009141991GE19MSL   +99999+99999GF199999021990009141991991MA1101901999990REMMET056METAR ETNT 120120Z 27011KT 9999 FEW030 05/01 Q1019 BLU/=
0147101260999992014011202204+53548+007667FM-15+000899999V0202601N004119999999N009999199+00501+00101999999ADDGA1021+014631991GE19MSL   +99999+99999GF199999021990014631991991MA1102001999990REMMET056METAR ETNT 120220Z 26008KT 9999 FEW048 05/01 Q1020 BLU/=
0147101260999992014011203204+53548+007667FM-15+000899999V0202701N004619999999N009999199+00501+00101999999ADDGA1021+007321991GE19MSL   +99999+99999GF199999021990007321991991MA1102001999990REMMET056METAR ETNT 120320Z 27009KT 9999 FEW024 05/01 Q1020 BLU/=
0170101260999992014011204204+53548+007667FM-15+000899999V0202501N00361012501CN009999199+00501+00201999999ADDGA1021+007921991GA2041+012501991GE19MSL   +99999+99999GF199999021990007921991991MA1102101999990REMMET063METAR ETNT 120420Z 25007KT 9999 FEW026 SCT041 05/02 Q1021 BLU/=
0170101260999992014011205204+53548+007667FM-15+000899999V0202401N00311012191CN009999199+00401+00201999999ADDGA1021+008231991GA2041+012191991GE19MSL   +99999+99999GF199999021990008231991991MA1102101999990REMMET063METAR ETNT 120520Z 24006KT 9999 FEW027 SCT040 04/02 Q1021 BLU/=
0147101260999992014011206204+53548+007667FM-15+000899999V0202401N002619999999N009999199+00301+00101999999ADDGA1021+007621991GE19MSL   +99999+99999GF199999021990007621991991MA1102101999990REMMET056METAR ETNT 120620Z 24005KT 9999 FEW025 03/01 Q1021 BLU/=
0170101260999992014011207204+53548+007667FM-15+000899999V0202301N00411012191CN009999199+00301+00101999999ADDGA1021+007621991GA2041+012191991GE19MSL   +99999+99999GF199999021990007621991991MA1102101999990REMMET063METAR ETNT 120720Z 23008KT 9999 FEW025 SCT040 03/01 Q1021 BLU/=
0147101260999992014011208204+53548+007667FM-15+000899999V0202501N003619999999N009999199+00301+00101999999ADDGA1021+008531991GE19MSL   +99999+99999GF199999021990008531991991MA1102201999990REMMET056METAR ETNT 120820Z 25007KT 9999 FEW028 03/01 Q1022 BLU/=
0170101260999992014011209204+53548+007667FM-15+000899999V0202401N00311057911CN009999199+00401+00201999999ADDGA1021+007321991GA2041+057911991GE19MSL   +99999+99999GF199999021990007321991991MA1102201999990REMMET063METAR ETNT 120920Z 24006KT 9999 FEW024 SCT190 04/02 Q1022 BLU/=
0147101260999992014011210204+53548+007667FM-15+000899999V0202501N004119999999N009999199+00501+00201999999ADDGA1021+006711991GE19MSL   +99999+99999GF199999021990006711991991MA1102201999990REMMET056METAR ETNT 121020Z 25008KT 9999 FEW022 05/02 Q1022 BLU/=
0147101260999992014011211204+53548+007667FM-15+000899999V0202501N004619999999N009999199+00501+00301999999ADDGA1021+007011991GE19MSL   +99999+99999GF199999021990007011991991MA1102201999990REMMET056METAR ETNT 121120Z 25009KT 9999 FEW023 05/03 Q1022 BLU/=
0147101260999992014011212204+53548+007667FM-15+000899999V0202601N004619999999N009999199+00701+00301999999ADDGA1021+006401991GE19MSL   +99999+99999GF199999021990006401991991MA1102101999990REMMET056METAR ETNT 121220Z 26009KT 9999 FEW021 07/03 Q1021 BLU/=
0147101260999992014011213204+53548+007667FM-15+000899999V0202501N003119999999N009999199+00601+00301999999ADDGA1021+004571991GE19MSL   +99999+99999GF199999021990004571991991MA1102101999990REMMET056METAR ETNT 121320Z 25006KT 9999 FEW015 06/03 Q1021 BLU/=
0147101260999992014011214204+53548+007667FM-15+000899999V0202601N003119999999N009999199+00601+00301999999ADDGA1021+004271991GE19MSL   +99999+99999GF199999021990004271991991MA1102101999990REMMET056METAR ETNT 121420Z 26006KT 9999 FEW014 06/03 Q1021 BLU/=
0147101260999992014011215204+53548+007667FM-15+000899999V0202301N002619999999N009999199+00401+00201999999ADDGA1021+004571991GE19MSL   +99999+99999GF199999021990004571991991MA1102001999990REMMET056METAR ETNT 121520Z 23005KT 9999 FEW015 04/02 Q1020 BLU/=
0147101260999992014011216204+53548+007667FM-15+000899999V0201901N001519999999N009999199+00301+00201999999ADDGA1021+045721991GE19MSL   +99999+99999GF199999021990045721991991MA1102001999990REMMET056METAR ETNT 121620Z 19003KT 9999 FEW150 03/02 Q1020 BLU/=
0147101260999992014011217204+53548+007667FM-15+000899999V0202101N002610640119N009999199+00201+00101999999ADDGA1071+064011991GE19MSL   +99999+99999GF199999071990064011991991MA1101901999990REMMET056METAR ETNT 121720Z 21005KT 9999 BKN210 02/01 Q1019 BLU/=
0147101260999992014011218204+53548+007667FM-15+000899999V0201801N002110609619N009999199+00101+00101999999ADDGA1071+060961991GE19MSL   +99999+99999GF199999071990060961991991MA1101901999990REMMET056METAR ETNT 121820Z 18004KT 9999 BKN200 01/01 Q1019 BLU/=
0146101260999992014011219204+53548+007667FM-15+000899999V0201701N002610609619N007000199+00101+00001999999ADDGA1071+060961991GE19MSL   +99999+99999GF199999071990060961991991MA1101801999990REMMET055METAR ETNT 121920Z 17005KT 7000 BKN200 01/00 Q1018 WHT=
0165101260999992014011220104+53548+007667FM-16+000899999V0201801N003610609619N000800199+00101+00001999999ADDGA1071+060961991GE19MSL   +99999+99999GF199999071990060961991991MA1101801999990MW1441REMMET068SPECI ETNT 122010Z 18007KT 0800 R26/1800D FG BKN200 01/00 Q1018 AMB=
0165101260999992014011220204+53548+007667FM-15+000899999V0201701N003610609619N000500199+00001+00001999999ADDGA1071+060961991GE19MSL   +99999+99999GF199999071990060961991991MA1101801999990MW1441REMMET068METAR ETNT 122020Z 17007KT 0500 R26/0900D FG BKN200 00/00 Q1018 RED=
0173101260999992014011220524+53548+007667FM-16+000899999V0201701N00261000001WN000500199+00001+00001999999ADDGA1091+000001991GE19MSL   +99999+99999GF109991091990000001991991MA1101701999990MW1481REMMET076SPECI ETNT 122052Z 17005KT 0500 R26/0650N FZFG VV000 M00/M00 Q1017      RED=
0173101260999992014011221204+53548+007667FM-15+000899999V0201501N00311000001WN000500199+00001-00101999999ADDGA1091+000001991GE19MSL   +99999+99999GF109991091990000001991991MA1101701999990MW1481REMMET076METAR ETNT 122120Z 15006KT 0500 R26/0700N FZFG VV000 M00/M01 Q1017      RED=
0173101260999992014011222204+53548+007667FM-15+000899999V0201401N00361000001WN000700199+00001+00001999999ADDGA1091+000001991GE19MSL   +99999+99999GF109991091990000001991991MA1101501999990MW1481REMMET076METAR ETNT 122220Z 14007KT 0700 R26/1100U FZFG VV000 M00/M00 Q1015      RED=
0173101260999992014011222504+53548+007667FM-16+000899999V0201201N00311000301WN000900199+00001+00001999999ADDGA1091+000301991GE19MSL   +99999+99999GF109991091990000301991991MA1101501999990MW1481REMMET076SPECI ETNT 122250Z 12006KT 0900 R26/1900U FZFG VV001 M00/M00 Q1015      RED=
0167101260999992014011223204+53548+007667FM-15+000899999V0201301N002610006119N001500199+00001+00001999999ADDGA1071+000611991GE19MSL   +99999+99999GF199999071990000611991991MA1101501999990MW1101REMMET070METAR ETNT 122320Z 13005KT 1500 R26/6000U BR BKN002 M00/M00 Q1015 AMB=
0157101260999992014011223394+53548+007667FM-16+000899999V0201301N003110006119N002500199+00001+00001999999ADDGA1071+000611991GE19MSL   +99999+99999GF199999071990000611991991MA1101401999990MW1101REMMET060SPECI ETNT 122339Z 13006KT 2500 BR BKN002 M00/M00 Q1014 AMB=
0180101260999992014011300204+53548+007667FM-15+000899999V0201101N003110609619N004000199+00001+00001999999ADDGA1041+000911991GA2071+060961991GE19MSL   +99999+99999GF199999041990000911991991MA1101301999990MW1101REMMET067METAR ETNT 130020Z 11006KT 4000 BR SCT003 BKN200 M00/M00 Q1013 GRN=
0156101260999992014011301204+53548+007667FM-15+000899999V0201201N004110304819N005000199+00001+00001999999ADDGA1071+030481991GE19MSL   +99999+99999GF199999071990030481991991MA1101201999990MW1101REMMET059METAR ETNT 130120Z 12008KT 5000 BR BKN100 00/M00 Q1012 WHT=
0170101260999992014011302204+53548+007667FM-15+000899999V0201301N003110365819N006000199+00001+00001999999ADDGA1021+001521991GA2071+036581991GE19MSL   +99999+99999GF199999021990001521991991MA1101101999990REMMET063METAR ETNT 130220Z 13006KT 6000 FEW005 BKN120 00/M00 Q1011 WHT=
0171101260999992014011303204+53548+007667FM-15+000899999V0201201N003610609619N008000199+00101+00001999999ADDGA1041+033531991GA2071+060961991GE19MSL   +99999+99999GF199999041990033531991991MA1101001999990REMMET064METAR ETNT 130320Z 12007KT 8000 SCT110 BKN200 01/M00 Q1010 BLU/=
0151101260999992014011304204+53548+007667FM-15+000899999V0201401N003610054919N009000199+00101+00001999999ADDGA1071+005491991GE19MSL   +99999+99999GF199999071990005491991991MA1100901999990REMMET060METAR ETNT 130420Z 14007KT 9000 BKN018 01/M00 Q1009 WHT WHT=
0151101260999992014011305204+53548+007667FM-15+000899999V0201501N003610039619N009999199+00201+00001999999ADDGA1071+003961991GE19MSL   +99999+99999GF199999071990003961991991MA1100801999990REMMET060METAR ETNT 130520Z 15007KT 9999 BKN013 02/M00 Q1008 GRN GRN=
0162101260999992014011306204+53548+007667FM-15+000899999V0201501N004110042719N007000199+00201+00001999999ADDGA1071+004271991GE19MSL   +99999+99999GF199999071990004271991991MA1100701999990MW1581REMMET065METAR ETNT 130620Z 15008KT 7000 -RADZ BKN014 02/00 Q1007 GRN GRN=
0170101260999992014011306384+53548+007667FM-16+000899999V0201501N004110039619N004500199+00201+00101999999ADDGA1071+003961991GE19MSL   +99999+99999GF199999071990003961991991MA1100701999990MW1101MW2591REMMET067SPECI ETNT 130638Z 15008KT 4500 RADZ BR BKN013 02/01 Q1007 GRN GRN=
0191101260999992014011307204+53548+007667FM-15+000899999V0201701N004610021319N003500199+00201+00201999999ADDGA1071+002131991GE19MSL   +99999+99999GF199999071990002131991991MA1100701999990MW1101MW2581REMMET088METAR ETNT 130720Z 17009KT 3500 -RADZ BR BKN007 02/02 Q1007 RERA YLO      YLO BECMG GRN=
0191101260999992014011307314+53548+007667FM-16+000899999V0201701N005110015219N002500199+00301+00201999999ADDGA1071+001521991GE19MSL   +99999+99999GF199999071990001521991991MA1100701999990MW1101MW2581REMMET088SPECI ETNT 130731Z 17010KT 2500 -RADZ BR BKN005 03/02 Q1007 RERA YLO      YLO BECMG GRN=
0214101260999992014011308094+53548+007667FM-16+000899999V0201701N004610015219N003500199+00301+00201999999ADDGA1071+001521991GA2071+002131991GE19MSL   +99999+99999GF199999071990001521991991MA1100701999990MW1101MW2581REMMET095SPECI ETNT 130809Z 17009KT 3500 -DZRA BR BKN005 BKN007 03/02 Q1007      REDZ YLO YLO BECMG GRN=
0214101260999992014011308204+53548+007667FM-15+000899999V0201801N005710024419N004000199+00301+00301999999ADDGA1041+001831991GA2071+002441991GE19MSL   +99999+99999GF199999041990001831991991MA1100701999990MW1101MW2581REMMET095METAR ETNT 130820Z 18011KT 4000 -DZRA BR SCT006 BKN008 03/03 Q1007      REDZ GRN GRN TEMPO YLO=
0214101260999992014011308384+53548+007667FM-16+000899999V0201801N005710024419N002500199+00401+00301999999ADDGA1041+001831991GA2071+002441991GE19MSL   +99999+99999GF199999041990001831991991MA1100601999990MW1101MW2581REMMET095SPECI ETNT 130838Z 18011KT 2500 -DZRA BR SCT006 BKN008 04/03 Q1006      REDZ YLO GRN TEMPO YLO=
0209101260999992014011308484+53548+007667FM-16+000899999V0201801N005710012219N002500199+00401+00301999999ADDGA1071+001221991GA2071+002441991GE19MSL   +99999+99999GF199999071990001221991991MA1100601999990MW1101MW2581REMMET090SPECI ETNT 130848Z 18011KT 2500 -DZRA BR BKN004 BKN008 04/03 Q1006      YLO GRN TEMPO YLO=
0184101260999992014011309204+53548+007667FM-15+000899999V0202001N004610018319N004000199+00401+00401999999ADDGA1071+001831991GE19MSL   +99999+99999GF199999071990001831991991MA1100601999990MW1101MW2511REMMET081METAR ETNT 130920Z 20009KT 4000 -DZ BR BKN006 04/04 Q1006 YLO GRN TEMPO      YLO=
0207101260999992014011309414+53548+007667FM-16+000899999V0202001N005710024419N004500199+00501+00501999999ADDGA1021+001831991GA2071+002441991GE19MSL   +99999+99999GF199999021990001831991991MA1100601999990MW1101MW2511REMMET088SPECI ETNT 130941Z 20011KT 4500 -DZ BR FEW006 BKN008 05/05 Q1006 GRN      GRN TEMPO YLO=
0197101260999992014011309424+53548+007667FM-16+000899999V0202001N006210024419N004500199+00501+00501999999ADDGA1021+001831991GA2071+002441991GE19MSL   +99999+99999GF199999021990001831991991MA1100601999990MW1101REMMET084SPECI ETNT 130942Z 20012KT 4500 BR FEW006 BKN008 05/05 Q1006 GRN GRN      TEMPO YLO=
0211101260999992014011310204+53548+007667FM-15+000899999V0202301N007710051819N006000199+00701+00601999999ADDGA1021+003351991GA2071+005181991GA3071+012801991GE19MSL   +99999+99999GF199999021990003351991991MA1100701999990REMMET088METAR ETNT 131020Z 23015KT 6000 FEW011 BKN017 BKN042 07/06 Q1007 WHT      WHT BECMG BLU=
0160101260999992014011310484+53548+007667FM-16+000899999V0202301N006210033519N009999199+00701+00601999999ADDGA1071+003351991GE19MSL   +99999+99999GF199999071990003351991991MA1100701999990REMMET069SPECI ETNT 131048Z 23012KT 9999 BKN011 07/06 Q1007 GRN WHT BECMG BLU=
0188101260999992014011311204+53548+007667FM-15+000899999V0202401N007710067119N009999199+00801+00601999999ADDGA1021+003351991GA2071+006711991GE19MSL   +99999+99999GF199999021990003351991991MA1100701999990REMMET081METAR ETNT 131120Z 24015KT 9999 FEW011 BKN022 08/06 Q1007 WHT WHT BECMG      BLU=
0188101260999992014011312204+53548+007667FM-15+000899999V0202501N005710070119N009999199+00801+00501999999ADDGA1021+005181991GA2071+007011991GE19MSL   +99999+99999GF199999021990005181991991MA1100701999990REMMET081METAR ETNT 131220Z 25011KT 9999 FEW017 BKN023 08/05 Q1007 WHT WHT BECMG      BLU=
0160101260999992014011313204+53548+007667FM-15+000899999V0202401N006710070119N009999199+00801+00501999999ADDGA1071+007011991GE19MSL   +99999+99999GF199999071990007011991991MA1100701999990REMMET069METAR ETNT 131320Z 24013KT 9999 BKN023 08/05 Q1007 WHT BLU TEMPO WHT=
0161101260999992014011313594+53548+007667FM-16+000899999V0202501N005119999999N009999199+00801+00501999999ADDGA1041+007621991GE19MSL   +99999+99999GF199999041990007621991991MA1100701999990REMMET070SPECI ETNT 131359Z 25010KT 9999 SCT025 08/05 Q1007 BLU/BLU/ TEMPO WHT=
0161101260999992014011314204+53548+007667FM-15+000899999V0202401N004119999999N009999199+00801+00501999999ADDGA1021+006401991GE19MSL   +99999+99999GF199999021990006401991991MA1100701999990REMMET070METAR ETNT 131420Z 24008KT 9999 FEW021 08/05 Q1007 BLU/BLU/ TEMPO WHT=
0161101260999992014011315204+53548+007667FM-15+000899999V0202201N002619999999N009999199+00701+00501999999ADDGA1021+008531991GE19MSL   +99999+99999GF199999021990008531991991MA1100701999990REMMET070METAR ETNT 131520Z 22005KT 9999 FEW028 07/05 Q1007 BLU/BLU/ TEMPO WHT=
0161101260999992014011316204+53548+007667FM-15+000899999V0202101N003119999999N009999199+00501+00401999999ADDGA1021+006101991GE19MSL   +99999+99999GF199999021990006101991991MA1100801999990REMMET070METAR ETNT 131620Z 21006KT 9999 FEW020 05/04 Q1008 BLU/BLU/ TEMPO WHT=
0170101260999992014011317204+53548+007667FM-15+000899999V0202001N002619999999N009999199+00501+00401999999ADDGA1041+009141991GE19MSL   +99999+99999GF199999041990009141991991MA1100801999990REMMET079METAR COR ETNT 131720Z 20005KT 9999 SCT030 05/04 Q1008 BLU/BLU/ TEMPO      YLO=
0161101260999992014011318204+53548+007667FM-15+000899999V0202001N002619999999N009999199+00501+00401999999ADDGA1021+010671991GE19MSL   +99999+99999GF199999021990010671991991MA1100801999990REMMET070METAR ETNT 131820Z 20005KT 9999 FEW035 05/04 Q1008 BLU/BLU/ TEMPO YLO=
0161101260999992014011319204+53548+007667FM-15+000899999V0201901N002619999999N009999199+00401+00401999999ADDGA1041+005791991GE19MSL   +99999+99999GF199999041990005791991991MA1100801999990REMMET070METAR ETNT 131920Z 19005KT 9999 SCT019 04/04 Q1008 BLU/BLU/ TEMPO YLO=
0158101260999992014011320204+53548+007667FM-15+000899999V0201801N002619999999N006000199+00401+00401999999ADDGA1041+015241991GE19MSL   +99999+99999GF199999041990015241991991MA1100801999990REMMET067METAR ETNT 132020Z 18005KT 6000 SCT050 04/04 Q1008 WHT FCST CANCEL=
0155101260999992014011320564+53548+007667FM-16+000899999V0201701N002619999999N003500199+00401+00301999999ADDGA1021+015241991GE19MSL   +99999+99999GF199999021990015241991991MA1100801999990MW1101REMMET058SPECI ETNT 132056Z 17005KT 3500 BR FEW050 04/03 Q1008 YLO=
0181101260999992014011321204+53548+007667FM-15+000899999V0201701N002119999999N002500199+00301+00301999999ADDGA1021+030481991GE19MSL   +99999+99999GF199999021990030481991991MA1100801999990MW1101MW2121REMMET078METAR ETNT 132120Z 17004KT 2500 R26/0400D MIFG BR FEW100 03/03 Q1008      YLO=
0165101260999992014011321384+53548+007667FM-16+000899999V0201601N002119999999N000500199+00301+00301999999ADDGA1021+030481991GE19MSL   +99999+99999GF199999021990030481991991MA1100801999990MW1441REMMET068SPECI ETNT 132138Z 16004KT 0500 R26/0900N FG FEW100 03/03 Q1008 RED=
0181101260999992014011322204+53548+007667FM-15+000899999V0201801N002119999999N001200199+00301+00301999999ADDGA1021+018291991GE19MSL   +99999+99999GF199999021990018291991991MA1100801999990MW1101MW2121REMMET078METAR ETNT 132220Z 18004KT 1200 R26/3200U MIFG BR FEW060 03/03 Q1008      AMB=
0095101260999992014011323204+53548+007667FM-15+000899999V0201701N001519999999N002300199+00301+00301999999ADDMA1100801999990MW1101MW2121REMMET056METAR ETNT 132320Z 17003KT 2300 MIFG BR 03/03 Q1008 YLO=
0095101260999992014011400204+53548+007667FM-15+000899999V0201701N002119999999N002500199+00201+00201999999ADDMA1100701999990MW1101MW2121REMMET056METAR ETNT 140020Z 17004KT 2500 MIFG BR 02/02 Q1007 YLO=
0094101260999992014011401004+53548+007667FM-16+000899999V0201201N001019999999N000500199+00201+00201999999ADDMA1100701999990MW1441REMMET061SPECI ETNT 140100Z 12002KT 0500 R26/2600D FG 02/02 Q1007 RED=
0094101260999992014011401204+53548+007667FM-15+000899999V0201401N001519999999N000500199+00201+00201999999ADDMA1100701999990MW1441REMMET061METAR ETNT 140120Z 14003KT 0500 R26/3200U FG 02/02 Q1007 RED=
0094101260999992014011402204+53548+007667FM-15+000899999V0201401N001019999999N000500199+00201+00101999999ADDMA1100701999990MW1441REMMET061METAR ETNT 140220Z 14002KT 0500 R26/5000U FG 02/01 Q1007 RED=
0094101260999992014011403204+53548+007667FM-15+000899999V0201501N001019999999N000400199+00101+00101999999ADDMA1100701999990MW1441REMMET061METAR ETNT 140320Z 15002KT 0400 R26/0800D FG 01/01 Q1007 RED=
0165101260999992014011404204+53548+007667FM-15+000899999V0201301N002119999999N000800199+00101+00101999999ADDGA1021+030481991GE19MSL   +99999+99999GF199999021990030481991991MA1100601999990MW1441REMMET068METAR ETNT 140420Z 13004KT 0800 R26/8000U FG FEW100 01/01 Q1006 AMB=
0181101260999992014011404444+53548+007667FM-16+000899999V0201201N002119999999N001600199+00101+00101999999ADDGA1021+030481991GE19MSL   +99999+99999GF199999021990030481991991MA1100601999990MW1101MW2121REMMET078SPECI ETNT 140444Z 12004KT 1600 R26/6000D MIFG BR FEW100 01/01 Q1006      YLO=
0208101260999992014011405204+53548+007667FM-15+000899999V0201201N00261067061CN002000199+00101+00101999999ADDGA1021+008531991GA2041+067061991GE19MSL   +99999+99999GF199999021990008531991991MA1100601999990MW1101MW2121REMMET089METAR ETNT 140520Z 12005KT 2000 MIFG BR FEW028 SCT220 01/01 Q1006 YLO      YLO TEMPO RED=
0185101260999992014011406204+53548+007667FM-15+000899999V0201301N002110121919N004000199+00201+00201999999ADDGA1071+012191991GE19MSL   +99999+99999GF199999071990012191991991MA1100601999990MW1101MW2121REMMET082METAR ETNT 140620Z 13004KT 4000 MIFG BR BKN040 02/02 Q1006 GRN GRN      TEMPO RED=
0208101260999992014011407204+53548+007667FM-15+000899999V0201401N002110121919N004000199+00201+00201999999ADDGA1041+006101991GA2071+012191991GE19MSL   +99999+99999GF199999041990006101991991MA1100601999990MW1101MW2121REMMET089METAR ETNT 140720Z 14004KT 4000 MIFG BR SCT020 BKN040 02/02 Q1006 GRN      GRN TEMPO YLO=
0197101260999992014011408204+53548+007667FM-15+000899999V0201201N002610137219N005000199+00301+00301999999ADDGA1041+006101991GA2071+013721991GE19MSL   +99999+99999GF199999041990006101991991MA1100701999990MW1101REMMET084METAR ETNT 140820Z 12005KT 5000 BR SCT020 BKN045 03/03 Q1007 WHT WHT      TEMPO GRN=
0188101260999992014011409204+53548+007667FM-15+000899999V0200901N001510152419N006000199+00301+00301999999ADDGA1041+007621991GA2071+015241991GE19MSL   +99999+99999GF199999041990007621991991MA1100701999990REMMET081METAR ETNT 140920Z 09003KT 6000 SCT025 BKN050 03/03 Q1007 WHT WHT BECMG      BLU=
0197101260999992014011410204+53548+007667FM-15+000899999V0201101N002110152419N005000199+00401+00301999999ADDGA1041+007621991GA2071+015241991GE19MSL   +99999+99999GF199999041990007621991991MA1100701999990MW1101REMMET084METAR ETNT 141020Z 11004KT 5000 BR SCT025 BKN050 04/03 Q1007 WHT WHT      BECMG BLU=
0188101260999992014011411204+53548+007667FM-15+000899999V0201001N002110152419N006000199+00401+00401999999ADDGA1021+007621991GA2071+015241991GE19MSL   +99999+99999GF199999021990007621991991MA1100601999990REMMET081METAR ETNT 141120Z 10004KT 6000 FEW025 BKN050 04/04 Q1006 WHT WHT BECMG      BLU=
0197101260999992014011412204+53548+007667FM-15+000899999V0201401N00261015241CN008000199+00601+00401999999ADDGA1021+007621991GA2041+015241991GA3071+070101991GE19MSL   +99999+99999GF199999021990007621991991MA1100601999990REMMET074METAR ETNT 141220Z 14005KT 8000 FEW025 SCT050 BKN230 06/04 Q1006 BLU/BLU/=
0197101260999992014011413204+53548+007667FM-15+000899999V0201101N00261015241CN009999199+00601+00401999999ADDGA1021+007621991GA2041+015241991GA3071+060961991GE19MSL   +99999+99999GF199999021990007621991991MA1100601999990REMMET074METAR ETNT 141320Z 11005KT 9999 FEW025 SCT050 BKN200 06/04 Q1006 BLU/BLU/=
0197101260999992014011414204+53548+007667FM-15+000899999V0201101N00311045721CN009999199+00601+00401999999ADDGA1021+015241991GA2041+045721991GA3071+060961991GE19MSL   +99999+99999GF199999021990015241991991MA1100601999990REMMET074METAR ETNT 141420Z 11006KT 9999 FEW050 SCT150 BKN200 06/04 Q1006 BLU/BLU/=
0197101260999992014011415204+53548+007667FM-15+000899999V0201001N00261045721CN009000199+00501+00301999999ADDGA1021+015241991GA2041+045721991GA3071+060961991GE19MSL   +99999+99999GF199999021990015241991991MA1100701999990REMMET074METAR ETNT 141520Z 10005KT 9000 FEW050 SCT150 BKN200 05/03 Q1007 BLU/BLU/=
0189101260999992014011416204+53548+007667FM-15+000899999V0201101N002610609619N008000199+00401+00301999999ADDGA1041+045721991GA2071+060961991GE19MSL   +99999+99999GF199999041990045721991991MA1100701999990REMMET082METAR ETNT 141620Z 11005KT 8000 SCT150 BKN200 04/03 Q1007 BLU/BLU/      TEMPO GRN=
0188101260999992014011417204+53548+007667FM-15+000899999V0201201N002110609619N007000199+00301+00301999999ADDGA1021+045721991GA2071+060961991GE19MSL   +99999+99999GF199999021990045721991991MA1100701999990REMMET081METAR ETNT 141720Z 12004KT 7000 FEW150 BKN200 03/03 Q1007 WHT WHT TEMPO      YLO=
0188101260999992014011418204+53548+007667FM-15+000899999V0201201N00261060961CN006000199+00301+00201999999ADDGA1021+045721991GA2041+060961991GE19MSL   +99999+99999GF199999021990045721991991MA1100701999990REMMET081METAR ETNT 141820Z 12005KT 6000 FEW150 SCT200 03/02 Q1007 WHT WHT TEMPO      YLO=
0174101260999992014011419204+53548+007667FM-15+000899999V0201201N002110131119N005000199+00301+00301999999ADDGA1071+013111991GE19MSL   +99999+99999GF199999071990013111991991MA1100801999990MW1101REMMET077METAR ETNT 141920Z 12004KT 5000 BR BKN043 03/03 Q1008 WHT WHT TEMPO      YLO=
0167101260999992014011419414+53548+007667FM-16+000899999V0201401N002610128019N005000199+00301+00301999999ADDGA1071+012801991GE19MSL   +99999+99999GF199999071990012801991991MA1100801999990MW1101REMMET070SPECI ETNT 141941Z 14005KT 5000 BR BKN042 03/03 Q1008 WHT FCST CANCEL=
0146101260999992014011420204+53548+007667FM-15+000899999V0201301N002610134119N006000199+00401+00301999999ADDGA1071+013411991GE19MSL   +99999+99999GF199999071990013411991991MA1100801999990REMMET055METAR ETNT 142020Z 13005KT 6000 BKN044 04/03 Q1008 WHT=
0178101260999992014011421204+53548+007667FM-15+000899999V0201001N00261060961CN004000199+00201+00201999999ADDGA1021+012801991GA2041+060961991GE19MSL   +99999+99999GF199999021990012801991991MA1100801999990MW1101REMMET065METAR ETNT 142120Z 10005KT 4000 BR FEW042 SCT200 02/02 Q1008 GRN=
0155101260999992014011422204+53548+007667FM-15+000899999V0201301N001519999999N004500199+00101+00101999999ADDGA1041+060961991GE19MSL   +99999+99999GF199999041990060961991991MA1100701999990MW1101REMMET058METAR ETNT 142220Z 13003KT 4500 BR SCT200 01/01 Q1007 GRN=
0178101260999992014011423204+53548+007667FM-15+000899999V0201101N002110609619N003500199+00101+00101999999ADDGA1041+014021991GA2071+060961991GE19MSL   +99999+99999GF199999041990014021991991MA1100801999990MW1101REMMET065METAR ETNT 142320Z 11004KT 3500 BR SCT046 BKN200 01/01 Q1008 YLO=
0155101260999992014011500204+53548+007667FM-15+000899999V0201301N002110109719N003500199+00201+00101999999ADDGA1071+010971991GE19MSL   +99999+99999GF199999071990010971991991MA1100801999990MW1101REMMET058METAR ETNT 150020Z 13004KT 3500 BR BKN036 02/01 Q1008 YLO=
0155101260999992014011501204+53548+007667FM-15+000899999V0201201N001510103619N004000199+00201+00201999999ADDGA1071+010361991GE19MSL   +99999+99999GF199999071990010361991991MA1100801999990MW1101REMMET058METAR ETNT 150120Z 12003KT 4000 BR BKN034 02/02 Q1008 GRN=
0155101260999992014011502204+53548+007667FM-15+000899999V0201301N002110121919N004500199+00201+00201999999ADDGA1071+012191991GE19MSL   +99999+99999GF199999071990012191991991MA1100801999990MW1101REMMET058METAR ETNT 150220Z 13004KT 4500 BR BKN040 02/02 Q1008 GRN=
0178101260999992014011503204+53548+007667FM-15+000899999V0201401N003110152419N005000199+00301+00201999999ADDGA1041+004881991GA2071+015241991GE19MSL   +99999+99999GF199999041990004881991991MA1100801999990MW1101REMMET065METAR ETNT 150320Z 14006KT 5000 BR SCT016 BKN050 03/02 Q1008 WHT=
0155101260999992014011503554+53548+007667FM-16+000899999V0201501N002610024419N005000199+00301+00201999999ADDGA1071+002441991GE19MSL   +99999+99999GF199999071990002441991991MA1100801999990MW1101REMMET058SPECI ETNT 150355Z 15005KT 5000 BR BKN008 03/02 Q1008 GRN=
0178101260999992014011504204+53548+007667FM-15+000899999V0201501N002610021319N005000199+00301+00301999999ADDGA1071+002131991GA2071+006711991GE19MSL   +99999+99999GF199999071990002131991991MA1100801999990MW1101REMMET065METAR ETNT 150420Z 15005KT 5000 BR BKN007 BKN022 03/03 Q1008 GRN=
0188101260999992014011504374+53548+007667FM-16+000899999V0201701N002110018319N004500199+00301+00301999999ADDGA1071+001831991GA2071+007321991GE19MSL   +99999+99999GF199999071990001831991991MA1100801999990MW1101MW2611REMMET069SPECI ETNT 150437Z 17004KT 4500 -RA BR BKN006 BKN024 03/03 Q1008 YLO=
0188101260999992014011505014+53548+007667FM-16+000899999V0201701N002110076219N004500199+00301+00301999999ADDGA1041+001831991GA2071+007621991GE19MSL   +99999+99999GF199999041990001831991991MA1100701999990MW1101MW2611REMMET069SPECI ETNT 150501Z 17004KT 4500 -RA BR SCT006 BKN025 03/03 Q1007 GRN=
0197101260999992014011505204+53548+007667FM-15+000899999V0201701N001510091419N004500199+00301+00301999999ADDGA1021+001221991GA2071+009141991GE19MSL   +99999+99999GF199999021990001221991991MA1100701999990MW1101REMMET084METAR ETNT 150520Z 17003KT 4500 BR FEW004 BKN030 03/03 Q1007 GRN YLO      TEMPO GRN=
