0126101260999992009010100204+53550+007667FM-15+0012ETNT V0201001N000510063019N0070001N1-00101-00201999999ADDGA1071+006301999GF107991999999999999999999MA1102611999999REMMET057METAR ETNT 010020Z 10001KT 7000 BKN021 M01/M02 Q1026 WHT;
0193101260999992009010101004+53550+007667FM-12+0012ETNT V0201901N00101004201CN0070001N1-00121-00181102661ADDAY121999AY221999GA1011+003601061GF107991071051004501999999MA1999999102511MD1510011+9999MW1101REMSYN088AAXX  01011 10126 41457 71901 11012 21018 30251 40266 55001 71022 875// 333 81612 87624;
0149101260999992009010101204+53550+007667FM-15+0012ETNT V0202401N001510072019N0060001N1-00101-00201999999ADDGA1021+003601999GA2071+007201999GF107991999999999999999999MA1102611999999REMMET064METAR ETNT 010120Z 24003KT 6000 FEW012 BKN024 M01/M02 Q1026 WHT;
0187101260999992009010102004+53550+007667FM-12+0012ETNT V0202401N002010081019N0050001N1-00121-00181102661ADDAY121999AY221999GA1071+008101061GF107991071051008001999999MA1999999102511MD1110011+9999MW1101REMSYN082AAXX  01021 10126 41550 72402 11012 21018 30251 40266 51001 71022 875// 333 87627;
0135101260999992009010102204+53550+007667FM-15+0012ETNT V0202601N002610078019N0050001N1-00101-00201999999ADDGA1071+007801999GF107991999999999999999999MA1102611999999MW1101REMMET060METAR ETNT 010220Z 26005KT 5000 BR BKN026 M01/M02 Q1026 WHT;
0126101260999992009010103204+53550+007667FM-15+0012ETNT V0202601N003610081019N0060001N1-00101-00201999999ADDGA1071+008101999GF107991999999999999999999MA1102611999999REMMET057METAR ETNT 010320Z 26007KT 6000 BKN027 M01/M02 Q1026 WHT;
0187101260999992009010104004+53550+007667FM-12+0012ETNT V0202601N003010078019N0060001N1-00041-00121102661ADDAY121999AY221999GA1071+007801061GF107991071051008001999999MA1999999102511MD1410001+9999MW1101REMSYN082AAXX  01041 10126 41556 72603 11004 21012 30251 40266 54000 71022 875// 333 87626;
0126101260999992009010104204+53550+007667FM-15+0012ETNT V0202301N002110078019N0060001N1+00001+00001999999ADDGA1071+007801999GF107991999999999999999999MA1102611999999REMMET057METAR ETNT 010420Z 23004KT 6000 BKN026 M00/M00 Q1026 WHT;
0187101260999992009010105004+53550+007667FM-12+0012ETNT V0202601N003010072019N0060001N1+00001-00081102641ADDAY121999AY221999GA1071+007201061GF107991071051008001999999MA1999999102491MD1810021+9999MW1101REMSYN082AAXX  01051 10126 41556 72603 10000 21008 30249 40264 58002 71022 875// 333 87624;
0125101260999992009010105204+53550+007667FM-15+0012ETNT V0202601N002610075019N0060001N1+00001-00101999999ADDGA1071+007501999GF107991999999999999999999MA1102611999999REMMET056METAR ETNT 010520Z 26005KT 6000 BKN025 00/M01 Q1026 WHT;
0135101260999992009010106204+53550+007667FM-15+0012ETNT V0202601N003110090019N0060001N1+00001+00001999999ADDGA1071+009001999GF107991999999999999999999MA1102611999999MW1511REMMET060METAR ETNT 010620Z 26006KT 6000 -DZ BKN030 00/M00 Q1026 WHT;
0235101260999992009010107004+53550+007667FM-12+0012ETNT V0202601N003010120019N0060001N1+00031-00021102701ADDAY151999AY221999GA1071+012001061GF108991071051012501999999MA1999999102551MD1310041+9999MW1581REMSYN130AAXX  01071 10126 41656 82603 10003 21002 30255 40270 53004 75852 875// 333 87640 555 BOT 11011 21007 31001 40025 50055 999 34///;
0165101260999992009010107204+53550+007667FM-15+0012ETNT V0202601N002110120019N0060001N1+00001+00001999999ADDGA1041+006001999GA2071+012001999GF107991999999999999999999MA1102711999999MW1511MW2611REMMET068METAR ETNT 010720Z 26004KT 6000 -RADZ SCT020 BKN040 00/00 Q1027 WHT;
0193101260999992009010108004+53550+007667FM-12+0012ETNT V0202601N00201007501CN0050001N1+00031+00001102741ADDAY161999AY261999GA1031+006001061GF108991071051008001999999MA1999999102591MD1210101+9999MW1211REMSYN088AAXX  01081 10126 41550 82602 10003 20000 30259 40274 52010 72166 875// 333 83620 87640;
0156101260999992009010108204+53550+007667FM-15+0012ETNT V0202501N002110120019N0050001N1+00101+00101999999ADDGA1041+006001999GA2071+012001999GF107991999999999999999999MA1102711999999MW1101REMMET065METAR ETNT 010820Z 25004KT 5000 BR SCT020 BKN040 01/01 Q1027 WHT;
0156101260999992009010108294+53550+007667FM-16+0012ETNT V0202501N001510120019N0045001N1+00101+00101999999ADDGA1041+006001999GA2071+012001999GF107991999999999999999999MA1102711999999MW1101REMMET065SPECI ETNT 010829Z 25003KT 4500 BR SCT020 BKN040 01/01 Q1027 GRN;
0133101260999992009010109204+53550+007667FM-15+0012ETNT V0202501N001510060019N0045001N1+00101+00101999999ADDGA1071+006001999GF107991999999999999999999MA1102711999999MW1101REMMET058METAR ETNT 010920Z 25003KT 4500 BR BKN020 01/01 Q1027 GRN;
0187101260999992009010110004+53550+007667FM-12+0012ETNT V0202601N003010120019N0045001N1+00071+00071102741ADDAY121999AY221999GA1071+012001061GF108991071051012501999999MA1999999102591MD1010041+9999MW1101REMSYN082AAXX  01101 10126 41645 82603 10007 20007 30259 40274 50004 71022 875// 333 87640;
0133101260999992009010110204+53550+007667FM-15+0012ETNT V0202501N002610135019N0037001N1+00101+00101999999ADDGA1071+013501999GF107991999999999999999999MA1102711999999MW1101REMMET058METAR ETNT 011020Z 25005KT 3700 BR BKN045 01/01 Q1027 GRN;
0187101260999992009010111004+53550+007667FM-12+0012ETNT V0202601N003010135019N0037001N1+00111+00091102761ADDAY121999AY221999GA1071+013501061GF108991071051012501999999MA1999999102611MD1210021+9999MW1101REMSYN082AAXX  01111 10126 41637 82603 10011 20009 30261 40276 52002 71022 875// 333 87645;
0133101260999992009010111204+53550+007667FM-15+0012ETNT V0202601N002610135019N0037001N1+00101+00101999999ADDGA1071+013501999GF107991999999999999999999MA1102711999999MW1101REMMET058METAR ETNT 011120Z 26005KT 3700 BR BKN045 01/01 Q1027 GRN;
0133101260999992009010112204+53550+007667FM-15+0012ETNT V0202701N003110090019N0037001N1+00201+00201999999ADDGA1071+009001999GF107991999999999999999999MA1102711999999MW1101REMMET058METAR ETNT 011220Z 27006KT 3700 BR BKN030 02/02 Q1027 GRN;
0193101260999992009010113004+53550+007667FM-12+0012ETNT V0202701N00301004201CN0040001N1+00211+00171102731ADDAY121999AY221999GA1031+004501061GF107991071051004501999999MA1999999102581MD1810011+9999MW1581REMSYN088AAXX  01131 10126 41440 72703 10021 20017 30258 40273 58001 75822 875// 333 83615 87630;
0133101260999992009010113204+53550+007667FM-15+0012ETNT V0202701N003610150019N0040001N1+00201+00201999999ADDGA1071+015001999GF107991999999999999999999MA1102711999999MW1101REMMET058METAR ETNT 011320Z 27007KT 4000 BR BKN050 02/02 Q1027 GRN;
0229101260999992009010114004+53550+007667FM-12+0012ETNT V0202701N004012200019N0040001N1+00241+00211102721ADDAY111999AY211999GA1031+015001061GF103991031051017501001001MA1999999102571MD1710041+9999MW1211REMSYN124AAXX  01141 10126 41740 32704 10024 20021 30257 40272 57004 72111 83500 333 83650 555 BOT 11008 21002 31002 40025 999 34///;
0133101260999992009010114204+53550+007667FM-15+0012ETNT V0202801N003112200019N0045001N1+00201+00201999999ADDGA1041+015001999GF104991999999999999999999MA1102711999999MW1101REMMET058METAR ETNT 011420Z 28006KT 4500 BR SCT050 02/02 Q1027 GRN;
0133101260999992009010115204+53550+007667FM-15+0012ETNT V0202901N001012200019N0040001N1+00101+00101999999ADDGA1041+009001999GF104991999999999999999999MA1102711999999MW1101REMMET058METAR ETNT 011520Z 29002KT 4000 BR SCT030 01/01 Q1027 GRN;
0187101260999992009010116004+53550+007667FM-12+0012ETNT V0202601N002012200019N0040001N1+00051+00051102731ADDAY101999AY201999GA1031+009001061GF103991031051008001001001MA1999999102581MD1510001+9999MW1101REMSYN082AAXX  01161 10126 41540 32602 10005 20005 30258 40273 55000 71000 83500 333 83630;
0133101260999992009010116204+53550+007667FM-15+0012ETNT V0202601N001010090019N0040001N1+00101+00101999999ADDGA1071+009001999GF107991999999999999999999MA1102711999999MW1101REMMET058METAR ETNT 011620Z 26002KT 4000 BR BKN030 01/01 Q1027 GRN;
0133101260999992009010116394+53550+007667FM-16+0012ETNT V0202701N001510075019N0030001N1+00101+00101999999ADDGA1071+007501999GF107991999999999999999999MA1102711999999MW1101REMMET058SPECI ETNT 011639Z 27003KT 3000 BR BKN025 01/01 Q1027 YLO;
0187101260999992009010117004+53550+007667FM-12+0012ETNT V0202801N002010090019N0030001N1+00121+00111102721ADDAY111999AY211999GA1071+009001061GF107991071051008001999999MA1999999102571MD1010001+9999MW1101REMSYN082AAXX  01171 10126 41530 72802 10012 20011 30257 40272 50000 71011 875// 333 87630;
0133101260999992009010117204+53550+007667FM-15+0012ETNT V0203401N001510054019N0035001N1+00101+00101999999ADDGA1071+005401999GF107991999999999999999999MA1102711999999MW1101REMMET058METAR ETNT 011720Z 34003KT 3500 BR BKN018 01/01 Q1027 YLO;
0156101260999992009010118204+53550+007667FM-15+0012ETNT V0202601N001012200019N0035001N1+00101+00101999999ADDGA1041+004501999GA2041+009001999GF104991999999999999999999MA1102711999999MW1101REMMET065METAR ETNT 011820Z 26002KT 3500 BR SCT015 SCT030 01/01 Q1027 YLO;
0193101260999992009010119004+53550+007667FM-12+0012ETNT V0202701N00101001201CN0030001N1+00091+00091102721ADDAY121999AY221999GA1021+001801071GF106991061051001501001001MA1999999102571MD1510011+9999MW1101REMSYN088AAXX  01191 10126 41230 62701 10009 20009 30257 40272 55001 71022 86500 333 82706 83618;
0167101260999992009010119204+53550+007667FM-15+0012ETNT V0202901N001010090019N0030001N1+00101+00101999999ADDGA1021+001801999GA2071+009001999GF107991999999999999999999MA1102711999999MW1101MW2121REMMET070METAR ETNT 011920Z 29002KT 3000 MIFG BR FEW006 BKN030 01/01 Q1027 YLO;
0187101260999992009010120004+53550+007667FM-12+0012ETNT V0202701N002010102019N0035001N1+00061+00061102721ADDAY121999AY221999GA1071+010201061GF107991071051012501999999MA1999999102571MD1510001+9999MW1111REMSYN082AAXX  01201 10126 41635 72702 10006 20006 30257 40272 55000 71122 875// 333 87634;
0167101260999992009010120204+53550+007667FM-15+0012ETNT V0202701N001010180019N0040001N1+00101+00101999999ADDGA1041+010201999GA2071+018001999GF107991999999999999999999MA1102611999999MW1101MW2121REMMET070METAR ETNT 012020Z 27002KT 4000 MIFG BR SCT034 BKN060 01/01 Q1026 GRN;
0188101260999992009010121204+53550+007667FM-15+0012ETNT V0202801N001010180019N0035001N1+00101+00101999999ADDED199U09009GA1041+009001999GA2071+018001999GF107991999999999999999999MA1102611999999MW1101MW2121REMMET080METAR ETNT 012120Z 28002KT 3500 R26/0900N MIFG BR SCT030 BKN060 01/01 Q1026 YLO;
0193101260999992009010122004+53550+007667FM-12+0012ETNT V0203001N001010105019N0035001N1+00141+00131102681ADDAY121999AY221999GA1051+010501061GF107991071051012501999999MA1999999102531MD1610041+9999MW1111REMSYN088AAXX  01221 10126 41635 73001 10014 20013 30253 40268 56004 71122 875// 333 85635 87656;
0144101260999992009010122204+53550+007667FM-15+0012ETNT V0203201N001510114019N0035001N1+00101+00101999999ADDGA1071+011401999GF107991999999999999999999MA1102611999999MW1101MW2121REMMET063METAR ETNT 012220Z 32003KT 3500 MIFG BR BKN038 01/01 Q1026 YLO;
0193101260999992009010123004+53550+007667FM-12+0012ETNT V0203401N002010114019N0035001N1+00101+00101102681ADDAY121999AY221999GA1051+011401061GF107991071051012501999999MA1999999102531MD1610041+9999MW1111REMSYN088AAXX  01231 10126 41635 73402 10010 20010 30253 40268 56004 71122 875// 333 85638 87657;
0153101260999992009010123204+53550+007667FM-15+0012ETNT V0200501N001510001519N0005001N1+00101+00101999999ADDED199U05509GA1091+000151999GF109991999999000251999999MA1102611999999MW1451REMMET067METAR ETNT 012320Z 05003KT 0500 R26/0550N FG VV000 01/01 Q1026 RED;
0153101260999992009010200204+53550+007667FM-15+0012ETNT V0209999C000010001519N0002001N1+00001+00001999999ADDED199U04509GA1091+000151999GF109991999999000251999999MA1102611999999MW1451REMMET067METAR ETNT 020020Z 00000KT 0200 R26/0450N FG VV000 00/00 Q1026 RED;
0181101260999992009010201004+53550+007667FM-12+0012ETNT V0201101N001010001519N0002001N1+00021+00021102621ADDAY141999AY241999GA1091+000151999GF109991091999999999999999MA1999999102471MD1810061+9999MW1471REMSYN076AAXX  02011 10126 41/02 91101 10002 20002 30247 40262 58006 74744 333 89/00;
0154101260999992009010201204+53550+007667FM-15+0012ETNT V0200301N000510009019N0005001N1+00001+00001999999ADDED199U09009GA1081+000901999GF108991999999999999999999MA1102611999999MW1441REMMET068METAR ETNT 020120Z 03001KT 0500 R26/0900N FG OVC003 00/00 Q1026 RED;
0177101260999992009010201504+53550+007667FM-16+0012ETNT V0200201N000510009019N0018001N1+00001+00001999999ADDED199U34009GA1071+000901999GA2081+002101999GF108991999999999999999999MA1102611999999MW1101REMMET075SPECI ETNT 020150Z 02001KT 1800 R26/3400N BR BKN003 OVC007 00/00 Q1026 YLO;
0193101260999992009010202004+53550+007667FM-12+0012ETNT V0200201N001010009019N0018001N1+00041+00041102631ADDAY141999AY241999GA1051+000901071GF108991081061000751999999MA1999999102481MD1510051+9999MW1281REMSYN088AAXX  02021 10126 41118 80201 10004 20004 30248 40263 55005 72844 886// 333 85703 88707;
0133101260999992009010202204+53550+007667FM-15+0012ETNT V0203601N000510009019N0022001N1+00001+00001999999ADDGA1071+000901999GF107991999999999999999999MA1102611999999MW1101REMMET058METAR ETNT 020220Z 36001KT 2200 BR BKN003 00/00 Q1026 YLO;
0156101260999992009010203204+53550+007667FM-15+0012ETNT V0200401N001010015019N0040001N1+00001+00001999999ADDGA1071+001501999GA2071+003601999GF107991999999999999999999MA1102611999999MW1101REMMET065METAR ETNT 020320Z 04002KT 4000 BR BKN005 BKN012 00/00 Q1026 YLO;
0187101260999992009010204004+53550+007667FM-12+0012ETNT V0200201N002010018019N0030001N1+00031+00031102651ADDAY121999AY221999GA1071+001801071GF107991071061001501999999MA1999999102501MD1310031+9999MW1101REMSYN082AAXX  02041 10126 41230 70202 10003 20003 30250 40265 53003 71022 876// 333 87706;
0133101260999992009010204204+53550+007667FM-15+0012ETNT V0200201N001510030019N0040001N1+00001+00001999999ADDGA1071+003001999GF107991999999999999999999MA1102611999999MW1101REMMET058METAR ETNT 020420Z 02003KT 4000 BR BKN010 00/00 Q1026 GRN;
0193101260999992009010205004+53550+007667FM-12+0012ETNT V0200101N002010024019N0040001N1+00041+00041102671ADDAY121999AY221999GA1051+002401071GF107991071051002501999999MA1999999102521MD1310031+9999MW1101REMSYN088AAXX  02051 10126 41340 70102 10004 20004 30252 40267 53003 71022 875// 333 85708 87656;
0156101260999992009010205204+53550+007667FM-15+0012ETNT V0200401N002610024019N0045001N1+00001+00001999999ADDGA1071+002401999GA2071+018001999GF107991999999999999999999MA1102611999999MW1101REMMET065METAR ETNT 020520Z 04005KT 4500 BR BKN008 BKN060 00/00 Q1026 GRN;
0156101260999992009010205394+53550+007667FM-16+0012ETNT V0200401N004110180019N0050001N1+00001+00001999999ADDGA1041+002401999GA2071+018001999GF107991999999999999999999MA1102611999999MW1101REMMET065SPECI ETNT 020539Z 04008KT 5000 BR SCT008 BKN060 00/00 Q1026 WHT;
0126101260999992009010206204+53550+007667FM-15+0012ETNT V0200501N004112200019N0070001N1+00001+00001999999ADDGA1041+018001999GF104991999999999999999999MA1102711999999REMMET057METAR ETNT 020620Z 05008KT 7000 SCT060 M00/M00 Q1027 WHT;
0235101260999992009010207004+53550+007667FM-12+0012ETNT V0200501N004012200019N0070001N1-00051-00091102781ADDAY111999AY211999GA1021+018001061GF103991021051017501001011MA1999999102631MD1310131+9999MW1101REMSYN130AAXX  02071 10126 41757 30504 11005 21009 30263 40278 53013 71011 82501 333 82656 555 BOT 11005 21001 30001 40024 50053 999 35///;
0126101260999992009010207204+53550+007667FM-15+0012ETNT V0200501N003112200019N0060001N1-00101-00101999999ADDGA1021+018001999GF102991999999999999999999MA1102811999999REMMET057METAR ETNT 020720Z 05006KT 6000 FEW060 M01/M01 Q1028 WHT;
0187101260999992009010208004+53550+007667FM-12+0012ETNT V0200501N003012200019N0060001N1-00071-00091102851ADDAY101999AY201999GA1011+018001061GF101991011051017501001011MA1999999102701MD1310181+9999MW1101REMSYN082AAXX  02081 10126 41756 10503 11007 21009 30270 40285 53018 71000 81501 333 81656;
0126101260999992009010208204+53550+007667FM-15+0012ETNT V0200501N003112200019N0060001N1-00101-00101999999ADDGA1021+018001999GF102991999999999999999999MA1102811999999REMMET057METAR ETNT 020820Z 05006KT 6000 FEW060 M01/M01 Q1028 WHT;
0126101260999992009010209204+53550+007667FM-15+0012ETNT V0200501N003612200019N0112651N1+00001-00101999999ADDGA1021+018001999GF102991999999999999999999MA1102911999999REMMET057METAR ETNT 020920Z 05007KT 9999 FEW060 00/M01 Q1029 BLU/;
0159101260999992009010210004+53550+007667FM-12+0012ETNT V0200501N003012200019N0150001N1+00071-00101102991ADDGA1011+057001001GF101991001001999999001011MA1999999102841MD1210211+9999REMSYN076AAXX  02101 10126 42965 10503 10007 21010 30284 40299 52021 80001 333 81069;
0126101260999992009010210204+53550+007667FM-15+0012ETNT V0200701N002612200019N0112651N1+00101-00101999999ADDGA1021+057001999GF102991999999999999999999MA1103011999999REMMET057METAR ETNT 021020Z 07005KT 9999 FEW190 01/M01 Q1030 BLU/;
0143101260999992009010211004+53550+007667FM-12+0012ETNT V0200501N003012200019N0200001N1+00121-00171103041ADDGA1001+999999999GF100991001001999999001001MA1999999102891MD1210191+9999REMSYN060AAXX  02111 10126 42970 00503 10012 21017 30289 40304 52019;
0077101260999992009010211204+53550+007667FM-15+0012ETNT V0200401N003612200019N0112651N1+00201-00101999999ADDMA1103011999999REMMET050METAR ETNT 021120Z 04007KT 9999 02/M01 Q1030 BLU/;
0077101260999992009010212204+53550+007667FM-15+0012ETNT V0200601N003112200019N0112651N1+00201-00301999999ADDMA1103011999999REMMET050METAR ETNT 021220Z 06006KT 9999 02/M03 Q1030 BLU/;
0159101260999992009010213004+53550+007667FM-12+0012ETNT V0200601N004012200019N0350001N1+00211-00391103071ADDGA1011+015001061GF101991011051017501001001MA1999999102921MD1110081+9999REMSYN076AAXX  02131 10126 42781 10604 10021 21039 30292 40307 51008 81500 333 81650;
0126101260999992009010213204+53550+007667FM-15+0012ETNT V0200801N002612200019N0112651N1+00201-00401999999ADDGA1021+018001999GF102991999999999999999999MA1103011999999REMMET057METAR ETNT 021320Z 08005KT 9999 FEW060 02/M04 Q1030 BLU/;
0201101260999992009010214004+53550+007667FM-12+0012ETNT V0200801N002012200019N0350001N1+00251-00361103081ADDGA1011+018001061GF101991011051017501001001MA1999999102931MD1210041+9999REMSYN118AAXX  02141 10126 42781 10802 10025 21036 30293 40308 52004 81500 333 81656 555 BOT 11005 21001 30001 40023 999 34///;
0126101260999992009010214204+53550+007667FM-15+0012ETNT V0200401N001012200019N0112651N1+00201-00501999999ADDGA1021+018001999GF102991999999999999999999MA1103011999999REMMET057METAR ETNT 021420Z 04002KT 9999 FEW060 02/M05 Q1030 BLU/;
0127101260999992009010215204+53550+007667FM-15+0012ETNT V0200301N000512200019N0112651N1+00001-00501999999ADDGA1021+018001999GF102991999999999999999999MA1103011999999REMMET058METAR ETNT 021520Z 03001KT 9999 FEW060 M00/M05 Q1030 BLU/;
0159101260999992009010216004+53550+007667FM-12+0012ETNT V0209999C000012200019N0300001N1-00191-00591103121ADDGA1011+018001061GF101991011051017501001001MA1999999102971MD1310051+9999REMSYN076AAXX  02161 10126 42780 10000 11019 21059 30297 40312 53005 81500 333 81656;
0127101260999992009010216204+53550+007667FM-15+0012ETNT V0209999C000012200019N0112651N1-00301-00701999999ADDGA1021+018001999GF102991999999999999999999MA1103121999999REMMET058METAR ETNT 021620Z 00000KT 9999 FEW060 M03/M07 Q1031 BLU/;
0159101260999992009010217004+53550+007667FM-12+0012ETNT V0203201N001012200019N0300001N1-00321-00621103141ADDGA1021+018001061GF102991021051017501001001MA1999999102991MD1210061+9999REMSYN076AAXX  02171 10126 42780 23201 11032 21062 30299 40314 52006 82500 333 82656;
0127101260999992009010217204+53550+007667FM-15+0012ETNT V0203401N001012200019N0112651N1-00301-00501999999ADDGA1021+018001999GF102991999999999999999999MA1103121999999REMMET058METAR ETNT 021720Z 34002KT 9999 FEW060 M03/M05 Q1031 BLU/;
0127101260999992009010218204+53550+007667FM-15+0012ETNT V0202001N001012200019N0112651N1-00501-00601999999ADDGA1021+018001999GF102991999999999999999999MA1103121999999REMMET058METAR ETNT 021820Z 20002KT 9999 FEW060 M05/M06 Q1031 BLU/;
0159101260999992009010219004+53550+007667FM-12+0012ETNT V0202701N001012200019N0200001N1-00491-00621103181ADDGA1031+018001061GF103991031051017501001001MA1999999103021MD1210051+9999REMSYN076AAXX  02191 10126 42770 32701 11049 21062 30302 40318 52005 83500 333 83656;
0127101260999992009010219204+53550+007667FM-15+0012ETNT V0201901N000512200019N0112651N1-00601-00601999999ADDGA1021+018001999GF102991999999999999999999MA1103121999999REMMET058METAR ETNT 021920Z 19001KT 9999 FEW060 M06/M06 Q1031 BLU/;
0159101260999992009010220004+53550+007667FM-12+0012ETNT V0202201N001012200019N0200001N1-00561-00681103161ADDGA1011+018001061GF101991011051017501001001MA1999999103001MD1010011+9999REMSYN076AAXX  02201 10126 42770 12201 11056 21068 30300 40316 50001 81500 333 81656;
0127101260999992009010220204+53550+007667FM-15+0012ETNT V0202101N001512200019N0112651N1-00601-00601999999ADDGA1021+018001999GF102991999999999999999999MA1103121999999REMMET058METAR ETNT 022020Z 21003KT 9999 FEW060 M06/M06 Q1031 BLU/;
0127101260999992009010221204+53550+007667FM-15+0012ETNT V0202201N001012200019N0112651N1-00701-00701999999ADDGA1021+018001999GF102991999999999999999999MA1103121999999REMMET058METAR ETNT 022120Z 22002KT 9999 FEW060 M07/M07 Q1031 BLU/;
0159101260999992009010222004+53550+007667FM-12+0012ETNT V0202301N002010090019N0200001N1-00571-00631103131ADDGA1051+009001061GF105991051051008001001001MA1999999102971MD1710071+9999REMSYN076AAXX  02221 10126 42570 52302 11057 21063 30297 40313 57007 85500 333 85630;
0126101260999992009010222204+53550+007667FM-15+0012ETNT V0202301N002110120019N0112651N1-00601-00601999999ADDGA1071+012001999GF107991999999999999999999MA1103121999999REMMET057METAR ETNT 022220Z 23004KT 9999 BKN040 M06/M06 Q1031 BLU;
0159101260999992009010223004+53550+007667FM-12+0012ETNT V0202201N002010120019N0200001N1-00531-00531103101ADDGA1071+012001061GF107991071051012501999999MA1999999102941MD1710061+9999REMSYN076AAXX  02231 10126 42670 72202 11053 21053 30294 40310 57006 875// 333 87640;
0126101260999992009010223204+53550+007667FM-15+0012ETNT V0202201N002110120019N0112651N1-00501-00501999999ADDGA1071+012001999GF107991999999999999999999MA1103011999999REMMET057METAR ETNT 022320Z 22004KT 9999 BKN040 M05/M05 Q1030 BLU;
0126101260999992009010300204+53550+007667FM-15+0012ETNT V0202201N002110120019N0112651N1-00401-00401999999ADDGA1071+012001999GF107991999999999999999999MA1103011999999REMMET057METAR ETNT 030020Z 22004KT 9999 BKN040 M04/M04 Q1030 BLU;
0159101260999992009010301004+53550+007667FM-12+0012ETNT V0202401N002010120019N0200001N1-00281-00381103011ADDGA1071+012001061GF107991071051012501999999MA1999999102861MD1710091+9999REMSYN076AAXX  03011 10126 42670 72402 11028 21038 30286 40301 57009 875// 333 87640;
0126101260999992009010301204+53550+007667FM-15+0012ETNT V0202501N002610120019N0112651N1-00401-00501999999ADDGA1071+012001999GF107991999999999999999999MA1102911999999REMMET057METAR ETNT 030120Z 25005KT 9999 BKN040 M04/M05 Q1029 BLU;
0159101260999992009010302004+53550+007667FM-12+0012ETNT V0202501N003010120019N0200001N1-00321-00511102951ADDGA1071+012001061GF107991071051012501999999MA1999999102801MD1710141+9999REMSYN076AAXX  03021 10126 42670 72503 11032 21051 30280 40295 57014 875// 333 87640;
0126101260999992009010302204+53550+007667FM-15+0012ETNT V0202501N002110120019N0112651N1-00301-00401999999ADDGA1071+012001999GF107991999999999999999999MA1102911999999REMMET057METAR ETNT 030220Z 25004KT 9999 BKN040 M03/M04 Q1029 BLU;
0126101260999992009010303204+53550+007667FM-15+0012ETNT V0202401N002110120019N0112651N1-00201-00301999999ADDGA1071+012001999GF107991999999999999999999MA1102811999999REMMET057METAR ETNT 030320Z 24004KT 9999 BKN040 M02/M03 Q1028 BLU;
0159101260999992009010304004+53550+007667FM-12+0012ETNT V0202301N002010120019N0200001N1-00211-00331102831ADDGA1071+012001061GF107991071051012501999999MA1999999102681MD1710201+9999REMSYN076AAXX  03041 10126 42670 72302 11021 21033 30268 40283 57020 875// 333 87640;
0126101260999992009010304204+53550+007667FM-15+0012ETNT V0202401N002610120019N0112651N1-00201-00301999999ADDGA1071+012001999GF107991999999999999999999MA1102711999999REMMET057METAR ETNT 030420Z 24005KT 9999 BKN040 M02/M03 Q1027 BLU;
0159101260999992009010305004+53550+007667FM-12+0012ETNT V0202501N003010120019N0200001N1-00181-00311102771ADDGA1071+012001061GF107991071051012501999999MA1999999102621MD1710181+9999REMSYN076AAXX  03051 10126 42670 72503 11018 21031 30262 40277 57018 875// 333 87640;
0126101260999992009010305204+53550+007667FM-15+0012ETNT V0202401N002110120019N0112651N1-00101-00301999999ADDGA1071+012001999GF107991999999999999999999MA1102711999999REMMET057METAR ETNT 030520Z 24004KT 9999 BKN040 M01/M03 Q1027 BLU;
0126101260999992009010306204+53550+007667FM-15+0012ETNT V0202201N002610120019N0112651N1-00101-00301999999ADDGA1071+012001999GF107991999999999999999999MA1102611999999REMMET057METAR ETNT 030620Z 22005KT 9999 BKN040 M01/M03 Q1026 BLU;
0207101260999992009010307004+53550+007667FM-12+0012ETNT V0202501N003010120019N0200001N1-00111-00271102671ADDGA1071+012001061GF107991071051012501999999MA1999999102521MD1710141+9999REMSYN124AAXX  03071 10126 42670 72503 11011 21027 30252 40267 57014 875// 333 87640 555 BOT 11028 21013 30000 40023 50051 999 35///;
0126101260999992009010307204+53550+007667FM-15+0012ETNT V0202401N002610120019N0112651N1-00101-00201999999ADDGA1071+012001999GF107991999999999999999999MA1102611999999REMMET057METAR ETNT 030720Z 24005KT 9999 BKN040 M01/M02 Q1026 BLU;
0159101260999992009010308004+53550+007667FM-12+0012ETNT V0202501N003010120019N0100001N1-00071-00251102651ADDGA1071+012001061GF107991071051012501999999MA1999999102501MD1610121+9999REMSYN076AAXX  03081 10126 42660 72503 11007 21025 30250 40265 56012 875// 333 87640;
0145101260999992009010308014+53550+007667FM-16+0012ETNT V0202601N004610120019N0040001N1+00001-00201999999ADDGA1071+012001999GF107991999999999999999999MA1102611999999MW1101MW2711REMMET064SPECI ETNT 030801Z 26009KT 4000 -SN BR BKN040 M00/M02 Q1026 GRN;
0126101260999992009010308084+53550+007667FM-16+0012ETNT V0202601N004610120019N0112651N1-00101-00201999999ADDGA1071+012001999GF107991999999999999999999MA1102611999999REMMET057SPECI ETNT 030808Z 26009KT 9999 BKN040 M01/M02 Q1026 BLU;
0126101260999992009010308204+53550+007667FM-15+0012ETNT V0202501N003110144019N0112651N1-00101-00201999999ADDGA1071+014401999GF107991999999999999999999MA1102611999999REMMET057METAR ETNT 030820Z 25006KT 9999 BKN048 M01/M02 Q1026 BLU;
0171101260999992009010309204+53550+007667FM-15+0012ETNT V0202401N00361014401CN0112651N1+00001-00101999999ADDGA1021+007501999GA2041+014401999GA3071+048001999GF107991999999999999999999MA1102511999999REMMET070METAR ETNT 030920Z 24007KT 9999 FEW025 SCT048 BKN160 00/M01 Q1025 BLU;
0153101260999992009010309464+53550+007667FM-16+0012ETNT V0202501N004110150019N0025001N1+00001-00101999999ADDGA1041+006001999GA2071+015001999GF107991999999999999999999MA1102511999999REMMET068SPECI ETNT 030946Z 25008KT 2500 SHSN SCT020 BKN050 00/M01 Q1025 YLO;
0180101260999992009010309574+53550+007667FM-16+0012ETNT V0202601N00361015001CN0050001N1+00001-00101999999ADDGA1021+006001021GA2041+015001999GA3071+048001999GF107991999999999999999999MA1102511999999REMMET079SPECI ETNT 030957Z 26007KT 5000 -SHSN FEW020TCU SCT050 BKN160 00/M01 Q1025 WHT;
0215101260999992009010310004+53550+007667FM-12+0012ETNT V0202601N004010150019N0050001N1+00031-00101102541ADDAY181011AY221011GA1021+006001081GA2041+015001061GF107991051081008001031001MA1999999102391MD1710131+9999MW1851REMSYN094AAXX  03101 10126 41550 72604 10003 21010 30239 40254 57013 78582 85830 333 82820 84650 86366;
0176101260999992009010310204+53550+007667FM-15+0012ETNT V0202501N00361015001CN0112651N1+00001-00101999999ADDGA1021+006001999GA2041+015001999GA3071+048001999GF107991999999999999999999MA1102401999999REMMET075METAR ETNT 031020Z 25007KT 9999 FEW020 SCT050 BKN160 00/M01 Q1024 RESN BLU;
0193101260999992009010311004+53550+007667FM-12+0012ETNT V0202601N00501012001CN0150001N1+00111-00011102461ADDAY121999AY221999GA1011+008401081GF107991071081008001999999MA1999999102311MD1810191+9999MW1261REMSYN088AAXX  03111 10126 41565 72605 10011 21001 30231 40246 58019 72622 878// 333 81828 87650;
0162101260999992009010311204+53550+007667FM-15+0012ETNT V0202601N005110135019N0080001N1+00101+00001999999ADDGA1041+003601999GA2071+013501999GF107991999999999999999999MA1102401999999MW1801REMMET071METAR ETNT 031120Z 26010KT 8000 -SHSNRA SCT012 BKN045 01/M00 Q1024 BLU;
0165101260999992009010312204+53550+007667FM-15+0012ETNT V0202601N004610060019N0112651N1+00201+00101999999ADDGA1041+003601999GA2071+006001999GF107991999999999999999999MA1102301999999MW1611MW2711REMMET068METAR ETNT 031220Z 26009KT 9999 -RASN SCT012 BKN020 02/01 Q1023 WHT;
0193101260999992009010313004+53550+007667FM-12+0012ETNT V0202701N00501009001CN0100001N1+00171+00101102301ADDAY161999AY261999GA1031+003601081GF108991071081004501999999MA1999999102151MD1710241+9999MW1681REMSYN088AAXX  03131 10126 41460 82705 10017 20010 30215 40230 57024 76866 878// 333 83812 87620;
0147101260999992009010313204+53550+007667FM-15+0012ETNT V0202601N003610021019N0112651N1+00201+00201999999ADDGA1071+002101999GA2071+006001999GF107991999999999999999999MA1102201999999REMMET062METAR ETNT 031320Z 26007KT 9999 BKN007 BKN020 02/02 Q1022 GRN;
0180101260999992009010313474+53550+007667FM-16+0012ETNT V0202501N00461006001CN0112651N1+00201+00201999999ADDGA1041+002101999GA2041+006001999GA3071+018001999GF107991999999999999999999MA1102201999999MW1611REMMET073SPECI ETNT 031347Z 25009KT 9999 -RA SCT007 SCT020 BKN060 02/02 Q1022 BLU;
0273101260999992009010314004+53550+007667FM-12+0012ETNT V0202501N005010060019N0100001N1+00181+00181102221ADDAY171999AY221999GA1031+002101071GA2041+006001061GA3071+018001061GF108991071051002501999999MA1999999102071MD1710241+9999MW1601REMSYN136AAXX  03141 10126 41360 82505 10018 20018 30207 40222 57024 76072 875// 333 83707 84620 87656 555 BOT 11009 21003 30001 40023 999 34///;
0147101260999992009010314204+53550+007667FM-15+0012ETNT V0202601N005110060019N0112651N1+00201+00201999999ADDGA1071+006001999GA2071+018001999GF107991999999999999999999MA1102101999999REMMET062METAR ETNT 031420Z 26010KT 9999 BKN020 BKN060 02/02 Q1021 WHT;
0157101260999992009010315204+53550+007667FM-15+0012ETNT V0202601N005710060019N0112651N1+00201+00201999999ADDGA1071+006001999GA2071+018001999GF107991999999999999999999MA1102101999999MW1611REMMET066METAR ETNT 031520Z 26011KT 9999 -RA BKN020 BKN060 02/02 Q1021 WHT;
0187101260999992009010316004+53550+007667FM-12+0012ETNT V0202501N005010045019N0100001N1+00211+00171102101ADDAY121999AY221999GA1071+004501061GF108991071051004501999999MA1999999101951MD1710201+9999MW1611REMSYN082AAXX  03161 10126 41460 82505 10021 20017 30195 40210 57020 76122 875// 333 87615;
0134101260999992009010316204+53550+007667FM-15+0012ETNT V0202601N004610045019N0112651N1+00201+00201999999ADDGA1071+004501999GF107991999999999999999999MA1102001999999MW1611REMMET059METAR ETNT 031620Z 26009KT 9999 -RA BKN015 02/02 Q1020 WHT;
0193101260999992009010317004+53550+007667FM-12+0012ETNT V0202601N00501004201CN0100001N1+00191+00181102041ADDAY161999AY261999GA1041+003001071GF108991071051004501999999MA1999999101891MD1710181+9999MW1611REMSYN088AAXX  03171 10126 41460 82605 10019 20018 30189 40204 57018 76166 875// 333 84710 87615;
0133101260999992009010317204+53550+007667FM-15+0012ETNT V0202601N004110024019N0060001N1+00201+00101999999ADDGA1071+002401999GF107991999999999999999999MA1101901999999MW1631REMMET058METAR ETNT 031720Z 26008KT 6000 RA BKN008 02/01 Q1019 GRN;
0133101260999992009010317364+53550+007667FM-16+0012ETNT V0202601N004610018019N0060001N1+00201+00001999999ADDGA1071+001801999GF107991999999999999999999MA1101901999999MW1631REMMET058SPECI ETNT 031736Z 26009KT 6000 RA BKN006 02/00 Q1019 YLO;
0139101260999992009010318204+53550+007667FM-15+0012ETNT V0202601N004110012019N0060001N1+00301+00001999999ADDGA1071+001201999GF107991999999999999999999MA1101901999999MW1611REMMET064METAR ETNT 031820Z 26008KT 6000 -RA BKN004 03/00 Q1019 RERA YLO;
0187101260999992009010319004+53550+007667FM-12+0012ETNT V0202601N005010012019N0060001N1+00331+00191101931ADDAY161999AY261999GA1071+001201071GF108991071061001501999999MA1999999101781MD1710201+9999MW1611REMSYN082AAXX  03191 10126 41256 82605 10033 20019 30178 40193 57020 76166 876// 333 87704;
0139101260999992009010319204+53550+007667FM-15+0012ETNT V0202801N005710015019N0060001N1+00401+00301999999ADDGA1071+001501999GF107991999999999999999999MA1101901999999MW1611REMMET064METAR ETNT 031920Z 28011KT 6000 -RA BKN005 04/03 Q1019 RERA YLO;
0187101260999992009010320004+53550+007667FM-12+0012ETNT V0202801N006010018019N0070001N1+00401+00331101881ADDAY161999AY261999GA1071+001801071GF108991071071001501999999MA1999999101731MD1710161+9999MW1631REMSYN082AAXX  03201 10126 41257 82806 10040 20033 30173 40188 57016 76366 877// 333 87706;
0139101260999992009010320204+53550+007667FM-15+0012ETNT V0202801N005710018019N0070001N1+00401+00001999999ADDGA1071+001801999GF107991999999999999999999MA1101801999999MW1611REMMET064METAR ETNT 032020Z 28011KT 7000 -RA BKN006 04/00 Q1018 RERA YLO;
0134101260999992009010321074+53550+007667FM-16+0012ETNT V0202901N006710027019N0070001N1+00501+00201999999ADDGA1071+002701999GF107991999999999999999999MA1101801999999MW1611REMMET059SPECI ETNT 032107Z 29013KT 7000 -RA BKN009 05/02 Q1018 GRN;
0139101260999992009010321084+53550+007667FM-16+0012ETNT V0202901N006710027019N0070001N1+00501+00301999999ADDGA1071+002701999GF107991999999999999999999MA1101801999999MW1611REMMET064SPECI ETNT 032108Z 29013KT 7000 -RA BKN009 05/03 Q1018 RERA GRN;
0139101260999992009010321204+53550+007667FM-15+0012ETNT V0202901N006210024019N0080001N1+00501+00301999999ADDGA1071+002401999GF107991999999999999999999MA1101801999999MW1611REMMET064METAR ETNT 032120Z 29012KT 8000 -RA BKN008 05/03 Q1018 RERA GRN;
0187101260999992009010322004+53550+007667FM-12+0012ETNT V0202901N007010024019N0080001N1+00461+00461101831ADDAY161999AY261999GA1071+002401071GF108991071061002501999999MA1999999101681MD1710101+9999MW1611REMSYN082AAXX  03221 10126 41358 82907 10046 20046 30168 40183 57010 76166 876// 333 87708;
0139101260999992009010322204+53550+007667FM-15+0012ETNT V0202901N006710024019N0112651N1+00501+00501999999ADDGA1071+002401999GF107991999999999999999999MA1101801999999MW1611REMMET064METAR ETNT 032220Z 29013KT 9999 -RA BKN008 05/05 Q1018 RERA GRN;
0193101260999992009010323004+53550+007667FM-12+0012ETNT V0202901N007010024019N0090001N1+00471+00461101811ADDAY161999AY261999GA1051+002401071GF108991071051002501999999MA1999999101661MD1710071+9999MW1611REMSYN088AAXX  03231 10126 41359 82907 10047 20046 30166 40181 57007 76166 875// 333 85708 87618;
0157101260999992009010323204+53550+007667FM-15+0012ETNT V0202901N006210024019N0090001N1+00501+00501999999ADDGA1071+002401999GA2071+004801999GF107991999999999999999999MA1101691999999MW1611REMMET066METAR ETNT 032320Z 29012KT 9000 -RA BKN008 BKN016 05/05 Q1017 GRN;
0165101260999992009010400204+53550+007667FM-15+0012ETNT V0202801N006710024019N0090001N1+00401+00401999999ADDGA1071+002401999GA2081+005701999GF108991999999999999999999MA1101691999999MW1511MW2611REMMET068METAR ETNT 040020Z 28013KT 9000 -RADZ BKN008 OVC019 04/04 Q1017 GRN;
0193101260999992009010401004+53550+007667FM-12+0012ETNT V0202801N007010024019N0100001N1+00421+00411101731ADDAY161999AY261999GA1061+002401071GF108991081051002501999999MA1999999101581MD1710101+9999MW1581REMSYN088AAXX  04011 10126 41360 82807 10042 20041 30158 40173 57010 75866 885// 333 86708 88620;
0134101260999992009010401204+53550+007667FM-15+0012ETNT V0202801N006710024019N0112651N1+00401+00401999999ADDGA1071+002401999GF107991999999999999999999MA1101591999999MW1611REMMET059METAR ETNT 040120Z 28013KT 9999 -RA BKN008 04/04 Q1016 GRN;
0187101260999992009010402004+53550+007667FM-12+0012ETNT V0202801N007010027019N0100001N1+00411+00401101691ADDAY161999AY261999GA1071+002701071GF108991071071002501999999MA1999999101541MD1710121+9999MW1611REMSYN082AAXX  04021 10126 41360 82807 10041 20040 30154 40169 57012 76166 877// 333 87709;
0142101260999992009010402204+53550+007667FM-15+0012ETNT V0202701N007210024019N0112651N1+00401+00401999999ADDGA1071+002401999GF107991999999999999999999MA1101591999999MW1511MW2611REMMET061METAR ETNT 040220Z 27014KT 9999 -RADZ BKN008 04/04 Q1016 GRN;
0142101260999992009010403204+53550+007667FM-15+0012ETNT V0202801N006210030019N0070001N1+00401+00401999999ADDGA1071+003001999GF107991999999999999999999MA1101591999999MW1511MW2611REMMET061METAR ETNT 040320Z 28012KT 7000 -RADZ BKN010 04/04 Q1016 GRN;
0187101260999992009010404004+53550+007667FM-12+0012ETNT V0202701N007010021019N0060001N1+00371+00371101601ADDAY161999AY261999GA1071+002101071GF108991071071002501999999MA1999999101451MD1710131+9999MW1611REMSYN082AAXX  04041 10126 41356 82707 10037 20037 30145 40160 57013 76166 877// 333 87707;
0143101260999992009010404204+53550+007667FM-15+0012ETNT V0202801N006710018019N0050001N1+00401+00401999999ADDGA1071+001801999GF107991999999999999999999MA1101491999999MW1101MW2611REMMET062METAR ETNT 040420Z 28013KT 5000 -RA BR BKN006 04/04 Q1015 YLO;
0187101260999992009010405004+53550+007667FM-12+0012ETNT V0202801N007010018019N0050001N1+00341+00341101551ADDAY161999AY261999GA1071+001801071GF108991071071001501999999MA1999999101401MD1710141+9999MW1611REMSYN082AAXX  04051 10126 41250 82807 10034 20034 30140 40155 57014 76166 877// 333 87706;
0143101260999992009010405204+53550+007667FM-15+0012ETNT V0202801N006210015019N0050001N1+00301+00301999999ADDGA1071+001501999GF107991999999999999999999MA1101491999999MW1101MW2611REMMET062METAR ETNT 040520Z 28012KT 5000 -RA BR BKN005 03/03 Q1015 YLO;
0166101260999992009010406204+53550+007667FM-15+0012ETNT V0202801N005710015019N0050001N1+00301+00301999999ADDGA1071+001501999GA2071+005401999GF107991999999999999999999MA1101391999999MW1101MW2611REMMET069METAR ETNT 040620Z 28011KT 5000 -RA BR BKN005 BKN018 03/03 Q1014 YLO;
0235101260999992009010407004+53550+007667FM-12+0012ETNT V0202701N005010015019N0050001N1+00341+00301101461ADDAY161999AY261999GA1051+001501071GF108991071071001501999999MA1999999101311MD1710141+9999MW1611REMSYN130AAXX  04071 10126 41250 82705 10034 20030 30131 40146 57014 76166 877// 333 85705 555 BOT 10000 21001 30001 40023 50050 999 32///;
0166101260999992009010407204+53550+007667FM-15+0012ETNT V0202601N005110015019N0050001N1+00301+00201999999ADDGA1071+001501999GA2071+003001999GF107991999999999999999999MA1101391999999MW1101MW2611REMMET069METAR ETNT 040720Z 26010KT 5000 -RA BR BKN005 BKN010 03/02 Q1014 YLO;
0193101260999992009010408004+53550+007667FM-12+0012ETNT V0202701N005010015019N0050001N1+00341+00251101431ADDAY161999AY261999GA1051+001501071GF108991071071001501999999MA1999999101281MD1710121+9999MW1611REMSYN088AAXX  04081 10126 41250 82705 10034 20025 30128 40143 57012 76166 877// 333 85705 87710;
0166101260999992009010408204+53550+007667FM-15+0012ETNT V0202701N005110015019N0050001N1+00401+00301999999ADDGA1071+001501999GA2071+003001999GF107991999999999999999999MA1101391999999MW1101MW2611REMMET069METAR ETNT 040820Z 27010KT 5000 -RA BR BKN005 BKN010 04/03 Q1014 YLO;
0166101260999992009010409204+53550+007667FM-15+0012ETNT V0202701N006210015019N0050001N1+00401+00401999999ADDGA1071+001501999GA2071+003001999GF107991999999999999999999MA1101291999999MW1101MW2611REMMET069METAR ETNT 040920Z 27012KT 5000 -RA BR BKN005 BKN010 04/04 Q1013 YLO;
0193101260999992009010410004+53550+007667FM-12+0012ETNT V0202801N006010015019N0050001N1+00421+00411101371ADDAY161999AY261999GA1051+001501071GF108991071071001501999999MA1999999101221MD1710091+9999MW1611REMSYN088AAXX  04101 10126 41250 82806 10042 20041 30122 40137 57009 76166 877// 333 85705 87710;
0166101260999992009010410204+53550+007667FM-15+0012ETNT V0202801N005710015019N0050001N1+00501+00501999999ADDGA1071+001501999GA2071+003001999GF107991999999999999999999MA1101291999999MW1101MW2611REMMET069METAR ETNT 041020Z 28011KT 5000 -RA BR BKN005 BKN010 05/05 Q1013 YLO;
0187101260999992009010411004+53550+007667FM-12+0012ETNT V0202901N006010018019N0050001N1+00471+00311101311ADDAY161999AY261999GA1071+001801071GF108991071071001501999999MA1999999101161MD1710121+9999MW1611REMSYN082AAXX  04111 10126 41250 82906 10047 20031 30116 40131 57012 76166 877// 333 87706;
0157101260999992009010411204+53550+007667FM-15+0012ETNT V0202901N006210060019N0060001N1+00501+00301999999ADDGA1041+003001999GA2071+006001999GF107991999999999999999999MA1101191999999MW1611REMMET066METAR ETNT 041120Z 29012KT 6000 -RA SCT010 BKN020 05/03 Q1012 WHT;
0157101260999992009010412204+53550+007667FM-15+0012ETNT V0202801N004110060019N0060001N1+00501+00301999999ADDGA1041+003001999GA2071+006001999GF107991999999999999999999MA1101191999999MW1611REMMET066METAR ETNT 041220Z 28008KT 6000 -RA SCT010 BKN020 05/03 Q1012 WHT;
0193101260999992009010413004+53550+007667FM-12+0012ETNT V0202901N00401001201CN0060001N1+00481+00421101211ADDAY161999AY261999GA1041+001201071GF108991071051001501999999MA1999999101061MD1710161+9999MW1611REMSYN088AAXX  04131 10126 41256 82904 10048 20042 30106 40121 57016 76166 875// 333 84704 87615;
0157101260999992009010413204+53550+007667FM-15+0012ETNT V0202901N003610012019N0060001N1+00501+00501999999ADDGA1071+001201999GA2071+004501999GF107991999999999999999999MA1101081999999MW1611REMMET066METAR ETNT 041320Z 29007KT 6000 -RA BKN004 BKN015 05/05 Q1011 YLO;
0251101260999992009010414004+53550+007667FM-12+0012ETNT V0203301N004010027019N0060001N1+00441+00441101211ADDAY161999AY261999GA1041+001201071GA2071+002701071GF108991071071001501999999MA1999999101061MD1610101+9999MW1611REMSYN130AAXX  04141 10126 41256 83304 10044 20044 30106 40121 56010 76166 877// 333 84704 87709 555 BOT 10000 21001 30001 40023 999 32///;
0157101260999992009010414204+53550+007667FM-15+0012ETNT V0203201N003110060019N0060001N1+00401+00401999999ADDGA1041+001201999GA2071+006001999GF107991999999999999999999MA1101081999999MW1611REMMET066METAR ETNT 041420Z 32006KT 6000 -RA SCT004 BKN020 04/04 Q1011 WHT;
0147101260999992009010415204+53550+007667FM-15+0012ETNT V0203301N002110132019N0080001N1+00401+00401999999ADDGA1021+001801999GA2071+013201999GF107991999999999999999999MA1101191999999REMMET062METAR ETNT 041520Z 33004KT 8000 FEW006 BKN044 04/04 Q1012 BLU;
0193101260999992009010416004+53550+007667FM-12+0012ETNT V0203501N00201004201CN0080001N1+00341+00341101251ADDAY161999AY221999GA1021+003001071GF107991071051004501999999MA1999999101101MD1310041+9999MW1611REMSYN088AAXX  04161 10126 41458 73502 10034 20034 30110 40125 53004 76162 875// 333 82710 87650;
0124101260999992009010416204+53550+007667FM-15+0012ETNT V0200201N002110180019N0080001N1+00301+00301999999ADDGA1071+018001999GF107991999999999999999999MA1101191999999REMMET055METAR ETNT 041620Z 02004KT 8000 BKN060 03/03 Q1012 BLU;
0187101260999992009010417004+53550+007667FM-12+0012ETNT V0203601N002010180019N0080001N1+00221+00221101261ADDAY161999AY221999GA1071+018001061GF107991071051017501999999MA1999999101111MD1210051+9999MW1211REMSYN082AAXX  04171 10126 41758 73602 10022 20022 30111 40126 52005 72162 875// 333 87656;
0124101260999992009010417204+53550+007667FM-15+0012ETNT V0200101N000510210019N0112651N1+00201+00201999999ADDGA1071+021001999GF107991999999999999999999MA1101191999999REMMET055METAR ETNT 041720Z 01001KT 9999 BKN070 02/02 Q1012 BLU;
0124101260999992009010418204+53550+007667FM-15+0012ETNT V0200101N002110210019N0112651N1+00201+00101999999ADDGA1071+021001999GF107991999999999999999999MA1101291999999REMMET055METAR ETNT 041820Z 01004KT 9999 BKN070 02/01 Q1013 BLU;
0165101260999992009010419004+53550+007667FM-12+0012ETNT V0200301N00201004201CN0250001N1+00181+00101101341ADDGA1031+003301071GF106991061051004501001001MA1999999101191MD1210091+9999REMSYN082AAXX  04191 10126 42475 60302 10018 20010 30119 40134 52009 86500 333 83711 85657;
0147101260999992009010419204+53550+007667FM-15+0012ETNT V0200401N003610210019N0112651N1+00101+00101999999ADDGA1021+003301999GA2071+021001999GF107991999999999999999999MA1101291999999REMMET062METAR ETNT 041920Z 04007KT 9999 FEW011 BKN070 01/01 Q1013 BLU;
0165101260999992009010420004+53550+007667FM-12+0012ETNT V0200401N00301004201CN0250001N1+00091+00011101391ADDGA1021+003301071GF106991061051004501001001MA1999999101241MD1210131+9999REMSYN082AAXX  04201 10126 42475 60403 10009 20001 30124 40139 52013 86500 333 82711 85657;
0148101260999992009010420204+53550+007667FM-15+0012ETNT V0200301N002112200019N0112651N1+00101+00101999999ADDGA1041+003301999GA2041+021001999GF104991999999999999999999MA1101391999999REMMET063METAR ETNT 042020Z 03004KT 9999 SCT011 SCT070 01/01 Q1014 BLU/;
0124101260999992009010421204+53550+007667FM-15+0012ETNT V0200601N003610054019N0112651N1+00101+00001999999ADDGA1071+005401999GF107991999999999999999999MA1101391999999REMMET055METAR ETNT 042120Z 06007KT 9999 BKN018 01/00 Q1014 WHT;
0159101260999992009010422004+53550+007667FM-12+0012ETNT V0200401N004010048019N0250001N1+00081-00051101501ADDGA1061+004801061GF106991061051004501001001MA1999999101351MD1210161+9999REMSYN076AAXX  04221 10126 42475 60404 10008 21005 30135 40150 52016 86500 333 86616;
0148101260999992009010422204+53550+007667FM-15+0012ETNT V0200501N005110048019N0112651N1+00101-00101999999ADDGA1041+002701999GA2071+004801999GF107991999999999999999999MA1101491999999REMMET063METAR ETNT 042220Z 05010KT 9999 SCT009 BKN016 01/M01 Q1015 WHT;
0165101260999992009010423004+53550+007667FM-12+0012ETNT V0200501N00501002101CN0250001N1+00031-00081101571ADDGA1041+002701071GF107991071051002501999999MA1999999101421MD1210181+9999REMSYN082AAXX  04231 10126 42375 70505 10003 21008 30142 40157 52018 875// 333 84709 87616;
0148101260999992009010423204+53550+007667FM-15+0012ETNT V0200501N005110060019N0112651N1+00001-00101999999ADDGA1041+002701999GA2071+006001999GF107991999999999999999999MA1101491999999REMMET063METAR ETNT 042320Z 05010KT 9999 SCT009 BKN020 00/M01 Q1015 WHT;
0149101260999992009010500204+53550+007667FM-15+0012ETNT V0200601N007210060019N0112651N1+00001-00101999999ADDGA1021+003001999GA2071+006001999GF107991999999999999999999MA1101591999999REMMET064METAR ETNT 050020Z 06014KT 9999 FEW010 BKN020 M00/M01 Q1016 WHT;
0159101260999992009010501004+53550+007667FM-12+0012ETNT V0200601N006012200019N0250001N1-00101-00271101681ADDGA1041+009001061GF104991041051008001001001MA1999999101531MD1210181+9999REMSYN076AAXX  05011 10126 42575 40606 11010 21027 30153 40168 52018 84500 333 84630;
0127101260999992009010501204+53550+007667FM-15+0012ETNT V0200701N006212200019N0112651N1-00101-00301999999ADDGA1041+009001999GF104991999999999999999999MA1101691999999REMMET058METAR ETNT 050120Z 07012KT 9999 SCT030 M01/M03 Q1017 BLU/;
0165101260999992009010502004+53550+007667FM-12+0012ETNT V0200701N00501004201CN0250001N1-00111-00281101771ADDGA1031+003601071GF105991051051004501001001MA1999999101621MD1210201+9999REMSYN082AAXX  05021 10126 42475 50705 11011 21028 30162 40177 52020 85500 333 83712 84636;
0133101260999992009010502204+53550+007667FM-15+0012ETNT V0200601N005112200019N0112651N1-00101-00301999999ADDGA1041+010801999GF104991999999999999999999MA1101691999999REMMET064METAR ETNT 050220Z 06010KT 9999 -SHSN SCT036 M01/M03 Q1017 BLU/;
0127101260999992009010503204+53550+007667FM-15+0012ETNT V0200501N005112200019N0112651N1-00201-00401999999ADDGA1041+006001999GF104991999999999999999999MA1101801999999REMMET058METAR ETNT 050320Z 05010KT 9999 SCT020 M02/M04 Q1018 BLU/;
0159101260999992009010504004+53550+007667FM-12+0012ETNT V0200601N006012200019N0300001N1-00191-00411101931ADDGA1031+006001061GF103991031051008001001001MA1999999101781MD1210251+9999REMSYN076AAXX  05041 10126 42580 30606 11019 21041 30178 40193 52025 83500 333 83620;
0127101260999992009010504204+53550+007667FM-15+0012ETNT V0200601N006212200019N0112651N1-00201-00401999999ADDGA1021+006001999GF102991999999999999999999MA1101901999999REMMET058METAR ETNT 050420Z 06012KT 9999 FEW020 M02/M04 Q1019 BLU/;
0143101260999992009010505004+53550+007667FM-12+0012ETNT V0200601N006012200019N0300001N1-00241-00491101991ADDGA1001+999999999GF100991001001999999001001MA1999999101841MD1210221+9999REMSYN060AAXX  05051 10126 42980 00606 11024 21049 30184 40199 52022;
0082101260999992009010505204+53550+007667FM-15+0012ETNT V0200601N006712200019N0112651N1-00301-00601999999ADDMA1102001999999REMMET055METAR ETNT 050520Z 06013KT 9999 M03/M06 Q1020 BLU/BLU/;
0082101260999992009010506204+53550+007667FM-15+0012ETNT V0200601N005712200019N0112651N1-00301-00601999999ADDMA1102101999999REMMET055METAR ETNT 050620Z 06011KT 9999 M03/M06 Q1021 BLU/BLU/;
0207101260999992009010507004+53550+007667FM-12+0012ETNT V0200501N005012200019N0300001N1-00331-00621102161ADDGA1011+006001081GF101991011081008001001001MA1999999102011MD1210221+9999REMSYN124AAXX  05071 10126 42580 10505 11033 21062 30201 40216 52022 81800 333 81820 555 BOT 11004 20001 30002 40022 50048 999 34///;
0131101260999992009010507204+53550+007667FM-15+0012ETNT V0200501N005112200019N0112651N1-00301-00601999999ADDGA1021+006001999GF102991999999999999999999MA1102201999999REMMET062METAR ETNT 050720Z 05010KT 9999 FEW020 M03/M06 Q1022 BLU/BLU/;
0159101260999992009010508004+53550+007667FM-12+0012ETNT V0200601N006012200019N0300001N1-00341-00621102251ADDGA1011+006001081GF101991011081008001001001MA1999999102101MD1210261+9999REMSYN076AAXX  05081 10126 42580 10606 11034 21062 30210 40225 52026 81800 333 81820;
0131101260999992009010508204+53550+007667FM-15+0012ETNT V0200601N004612200019N0112651N1-00301-00601999999ADDGA1021+006001999GF102991999999999999999999MA1102201999999REMMET062METAR ETNT 050820Z 06009KT 9999 FEW020 M03/M06 Q1022 BLU/BLU/;
0131101260999992009010509204+53550+007667FM-15+0012ETNT V0200601N005112200019N0112651N1-00201-00501999999ADDGA1021+006001999GF102991999999999999999999MA1102301999999REMMET062METAR ETNT 050920Z 06010KT 9999 FEW020 M02/M05 Q1023 BLU/BLU/;
0159101260999992009010510004+53550+007667FM-12+0012ETNT V0200501N006012200019N0300001N1-00171-00531102401ADDGA1011+006001081GF101991011081008001001001MA1999999102251MD1210241+9999REMSYN076AAXX  05101 10126 42580 10506 11017 21053 30225 40240 52024 81800 333 81820;
0131101260999992009010510204+53550+007667FM-15+0012ETNT V0200501N005710066019N0112651N1-00101-00501999999ADDGA1071+006601999GF107991999999999999999999MA1102401999999REMMET062METAR ETNT 051020Z 05011KT 9999 BKN022 M01/M05 Q1024 WHT BLU/;
0159101260999992009010511004+53550+007667FM-12+0012ETNT V0200501N006010060019N0400001N1-00151-00501102451ADDGA1061+006001061GF106991061051008001001001MA1999999102301MD1210201+9999REMSYN076AAXX  05111 10126 42582 60506 11015 21050 30230 40245 52020 86500 333 86620;
0131101260999992009010511204+53550+007667FM-15+0012ETNT V0200601N006210120019N0112651N1-00201-00501999999ADDGA1071+012001999GF107991999999999999999999MA1102401999999REMMET062METAR ETNT 051120Z 06012KT 9999 BKN040 M02/M05 Q1024 BLU BLU/;
0131101260999992009010512204+53550+007667FM-15+0012ETNT V0200601N006712200019N0112651N1-00101-00401999999ADDGA1041+004801999GF104991999999999999999999MA1102401999999REMMET062METAR ETNT 051220Z 06013KT 9999 SCT016 M01/M04 Q1024 BLU/BLU/;
0159101260999992009010513004+53550+007667FM-12+0012ETNT V0200701N006012200019N0400001N1-00101-00401102521ADDGA1031+004801061GF103991031051004501001001MA1999999102371MD1210121+9999REMSYN076AAXX  05131 10126 42482 30706 11010 21040 30237 40252 52012 83500 333 83616;
0131101260999992009010513204+53550+007667FM-15+0012ETNT V0200601N006712200019N0112651N1-00101-00401999999ADDGA1041+004801999GF104991999999999999999999MA1102511999999REMMET062METAR ETNT 051320Z 06013KT 9999 SCT016 M01/M04 Q1025 BLU/BLU/;
0201101260999992009010514004+53550+007667FM-12+0012ETNT V0200601N006012200019N0400001N1-00101-00371102561ADDGA1031+004801061GF103991031051004501001001MA1999999102411MD1210111+9999REMSYN118AAXX  05141 10126 42482 30606 11010 21037 30241 40256 52011 83500 333 83616 555 BOT 11002 20002 30002 40022 999 34///;
0131101260999992009010514204+53550+007667FM-15+0012ETNT V0200601N006712200019N0112651N1-00101-00401999999ADDGA1041+004801999GF104991999999999999999999MA1102611999999REMMET062METAR ETNT 051420Z 06013KT 9999 SCT016 M01/M04 Q1026 BLU/BLU/;
0131101260999992009010515204+53550+007667FM-15+0012ETNT V0200601N005712200019N0112651N1-00201-00401999999ADDGA1041+006601999GF104991999999999999999999MA1102611999999REMMET062METAR ETNT 051520Z 06011KT 9999 SCT022 M02/M04 Q1026 BLU/BLU/;
0159101260999992009010516004+53550+007667FM-12+0012ETNT V0200601N004012200019N0300001N1-00211-00471102681ADDGA1031+006601061GF103991031051008001001001MA1999999102531MD1210161+9999REMSYN076AAXX  05161 10126 42580 30604 11021 21047 30253 40268 52016 83500 333 83622;
0138101260999992009010516034+53550+007667FM-16+0012ETNT V0200601N004112200019N0112651N1-00201-00501999999ADDGA1041+006601999GF104991999999999999999999MA1102611999999REMMET069SPECI ETNT 051603Z 06008KT 9999 SCT022 M02/M05 Q1026 BLU/FCST CANCEL;
0127101260999992009010516204+53550+007667FM-15+0012ETNT V0200601N004612200019N0112651N1-00201-00501999999ADDGA1021+006601999GF102991999999999999999999MA1102711999999REMMET058METAR ETNT 051620Z 06009KT 9999 FEW022 M02/M05 Q1027 BLU/;
0159101260999992009010517004+53550+007667FM-12+0012ETNT V0200601N004012200019N0300001N1-00261-00451102741ADDGA1011+006601061GF101991011051008001001001MA1999999102591MD1210181+9999REMSYN076AAXX  05171 10126 42580 10604 11026 21045 30259 40274 52018 81500 333 81622;
0127101260999992009010517204+53550+007667FM-15+0012ETNT V0200601N003112200019N0112651N1-00301-00401999999ADDGA1021+006601999GF102991999999999999999999MA1102711999999REMMET058METAR ETNT 051720Z 06006KT 9999 FEW022 M03/M04 Q1027 BLU/;
0078101260999992009010518204+53550+007667FM-15+0012ETNT V0200701N003112200019N0112651N1-00301-00501999999ADDMA1102811999999REMMET051METAR ETNT 051820Z 07006KT 9999 M03/M05 Q1028 BLU/;
0143101260999992009010519004+53550+007667FM-12+0012ETNT V0200701N004012200019N0300001N1-00321-00471102831ADDGA1001+999999999GF100991001001999999001001MA1999999102681MD1210151+9999REMSYN060AAXX  05191 10126 42980 00704 11032 21047 30268 40283 52015;
0078101260999992009010519204+53550+007667FM-15+0012ETNT V0200601N002612200019N0112651N1-00301-00501999999ADDMA1102811999999REMMET051METAR ETNT 051920Z 06005KT 9999 M03/M05 Q1028 BLU/;
0143101260999992009010520004+53550+007667FM-12+0012ETNT V0200601N003012200019N0300001N1-00391-00491102881ADDGA1001+999999999GF100991001001999999001001MA1999999102731MD1210141+9999REMSYN060AAXX  05201 10126 42980 00603 11039 21049 30273 40288 52014;
0078101260999992009010520204+53550+007667FM-15+0012ETNT V0200701N002112200019N0112651N1-00401-00501999999ADDMA1102811999999REMMET051METAR ETNT 052020Z 07004KT 9999 M04/M05 Q1028 BLU/;
0078101260999992009010521204+53550+007667FM-15+0012ETNT V0200601N001512200019N0112651N1-00501-00501999999ADDMA1102911999999REMMET051METAR ETNT 052120Z 06003KT 9999 M05/M05 Q1029 BLU/;
0143101260999992009010522004+53550+007667FM-12+0012ETNT V0200701N002012200019N0250001N1-00471-00491102951ADDGA1001+999999999GF100991001001999999001001MA1999999102791MD1210141+9999REMSYN060AAXX  05221 10126 42975 00702 11047 21049 30279 40295 52014;
0078101260999992009010522204+53550+007667FM-15+0012ETNT V0209999C000012200019N0112651N1-00701-00701999999ADDMA1102911999999REMMET051METAR ETNT 052220Z 00000KT 9999 M07/M07 Q1029 BLU/;
0143101260999992009010523004+53550+007667FM-12+0012ETNT V0200701N001012200019N0250001N1-00651-00651102951ADDGA1001+999999999GF100991001001999999001001MA1999999102791MD1110061+9999REMSYN060AAXX  05231 10126 42975 00701 11065 21065 30279 40295 51006;
0078101260999992009010523204+53550+007667FM-15+0012ETNT V0200801N000512200019N0112651N1-00701-00701999999ADDMA1102911999999REMMET051METAR ETNT 052320Z 08001KT 9999 M07/M07 Q1029 BLU/;
0078101260999992009010600204+53550+007667FM-15+0012ETNT V0200201N000512200019N0112651N1-00701-00701999999ADDMA1102911999999REMMET051METAR ETNT 060020Z 02001KT 9999 M07/M07 Q1029 BLU/;
0143101260999992009010601004+53550+007667FM-12+0012ETNT V0209999C000012200019N0250001N1-00851-00851102941ADDGA1001+999999999GF100991001001999999001001MA1999999102781MD1610011+9999REMSYN060AAXX  06011 10126 42975 00000 11085 21085 30278 40294 56001;
0078101260999992009010601204+53550+007667FM-15+0012ETNT V0203401N000512200019N0112651N1-00801-00801999999ADDMA1102911999999REMMET051METAR ETNT 060120Z 34001KT 9999 M08/M08 Q1029 BLU/;
0143101260999992009010602004+53550+007667FM-12+0012ETNT V0200101N001012200019N0250001N1-00851-00851102941ADDGA1001+999999999GF100991001001999999001001MA1999999102781MD1610011+9999REMSYN060AAXX  06021 10126 42975 00101 11085 21085 30278 40294 56001;
0078101260999992009010602204+53550+007667FM-15+0012ETNT V0209999C000012200019N0112651N1-01001-01001999999ADDMA1102911999999REMMET051METAR ETNT 060220Z 00000KT 9999 M10/M10 Q1029 BLU/;
0078101260999992009010603204+53550+007667FM-15+0012ETNT V0203601N000512200019N0112651N1-00901-00901999999ADDMA1102811999999REMMET051METAR ETNT 060320Z 36001KT 9999 M09/M09 Q1028 BLU/;
0143101260999992009010604004+53550+007667FM-12+0012ETNT V0209999C000012200019N0200001N1-01031-01031102911ADDGA1001+999999999GF100991001001999999001001MA1999999102751MD1810031+9999REMSYN060AAXX  06041 10126 42970 00000 11103 21103 30275 40291 58003;
0097101260999992009010604064+53550+007667FM-16+0012ETNT V0202401N000512200019N0040001N1-01001-01001999999ADDMA1102811999999MW1101MW2121REMMET058SPECI ETNT 060406Z 24001KT 4000 MIFG BR M10/M10 Q1028 GRN;
0118101260999992009010604204+53550+007667FM-15+0012ETNT V0202601N000519999999N0010001N1-01001-01001999999ADDED199U24009MA1102811999999MW1101MW2411REMMET068METAR ETNT 060420Z 26001KT 1000 R08/2400N BCFG BR M10/M10 Q1028 AMB;
0173101260999992009010604494+53550+007667FM-16+0012ETNT V0202401N000512200019N0005001N1-01001-01001999999ADDED199U02509GA1041+000151999GF104991999999999999999999MA1102811999999MW1481REMMET087SPECI ETNT 060449Z 24001KT 0500 R08/0250N FZFG SCT000 M10/M10 Q1028 RED BLU/ TEMPO RED;
0187101260999992009010605004+53550+007667FM-12+0012ETNT V0202401N001012200019N0005001N1-01001-01001102871ADDAY101999AY201999GA1031+000151071GF103991031061000251001001MA1999999102711MD1710061+9999MW1481REMSYN082AAXX  06051 10126 41005 32401 11100 21100 30271 40287 57006 74800 83600 333 83700;
0162101260999992009010605204+53550+007667FM-15+0012ETNT V0202201N00101220001CN0003001N1-01001-01001999999ADDED199U04509GA1071+000151999GF107991999999999999999999MA1102811999999MW1481REMMET076METAR ETNT 060520Z 22002KT 0300 R08/0450N FZFG BKN000 M10/M10 Q1028 RED RED;
0162101260999992009010605474+53550+007667FM-16+0012ETNT V0202101N00101220001CN0006001N1-01001-01001999999ADDED199U06509GA1071+000151999GF107991999999999999999999MA1102811999999MW1481REMMET076SPECI ETNT 060547Z 21002KT 0600 R08/0650D FZFG BKN000 M10/M10 Q1028 RED RED;
0173101260999992009010606204+53550+007667FM-15+0012ETNT V0202101N001012200019N0007001N1-01001-01001999999ADDED199U99999GA1021+000151999GF102991999999999999999999MA1102811999999MW1411REMMET087METAR ETNT 060620Z 21002KT 0700 R26/9000U BCFG FEW000 M10/M10 Q1028 RED BLU/ TEMPO RED;
0152101260999992009010606344+53550+007667FM-16+0012ETNT V0202101N001012200019N0112651N1-01001-01001999999ADDGA1021+000151999GF102991999999999999999999MA1102811999999MW1121REMMET077SPECI ETNT 060634Z 21002KT 9999 MIFG FEW000 M10/M10 Q1028 BLU/BLU/ TEMPO RED;
0235101260999992009010607004+53550+007667FM-12+0012ETNT V0202101N001012200019N0150001N1-00951-00951102841ADDAY111999AY211999GA1021+057001001GF102991001001999999001011MA1999999102681MD1710071+9999MW1281REMSYN130AAXX  06071 10126 41965 22101 11095 21095 30268 40284 57007 72811 80001 333 82069 555 BOT 11030 21018 30002 40021 50047 999 34///;
0141101260999992009010607204+53550+007667FM-15+0012ETNT V0202001N001012200019N0112651N1-01001-01001999999ADDGA1021+057001999GF102991999999999999999999MA1102811999999REMMET072METAR ETNT 060720Z 20002KT 9999 FEW190 M10/M10 Q1028 BLU/BLU/ TEMPO RED;
0159101260999992009010608004+53550+007667FM-12+0012ETNT V0202101N002012200019N0350001N1-00931-00941102831ADDGA1021+057001001GF102991001001999999001011MA1999999102671MD1710041+9999REMSYN076AAXX  06081 10126 42981 22102 11093 21094 30267 40283 57004 80001 333 82069;
0131101260999992009010608204+53550+007667FM-15+0012ETNT V0202301N001012200019N0112651N1-00801-00801999999ADDGA1021+057001999GF102991999999999999999999MA1102811999999REMMET062METAR ETNT 060820Z 23002KT 9999 FEW190 M08/M08 Q1028 BLU/BLU/;
0131101260999992009010609204+53550+007667FM-15+0012ETNT V0202401N001512200019N0112651N1-00501-00801999999ADDGA1021+057001999GF102991999999999999999999MA1102711999999REMMET062METAR ETNT 060920Z 24003KT 9999 FEW190 M05/M08 Q1027 BLU/BLU/;
0159101260999992009010610004+53550+007667FM-12+0012ETNT V0202401N001012200019N0400001N1-00481-00481102791ADDGA1021+057001001GF102991001001999999001011MA1999999102641MD1710041+9999REMSYN076AAXX  06101 10126 42982 22401 11048 21048 30264 40279 57004 80001 333 82069;
0131101260999992009010610204+53550+007667FM-15+0012ETNT V0202401N001512200019N0112651N1-00401-00601999999ADDGA1021+057001999GF102991999999999999999999MA1102711999999REMMET062METAR ETNT 061020Z 24003KT 9999 FEW190 M04/M06 Q1027 BLU/BLU/;
0159101260999992009010611004+53550+007667FM-12+0012ETNT V0202401N002012200019N0400001N1-00241-00501102711ADDGA1021+063001001GF102991001001999999001011MA1999999102561MD1710111+9999REMSYN076AAXX  06111 10126 42982 22402 11024 21050 30256 40271 57011 80001 333 82071;
0131101260999992009010611204+53550+007667FM-15+0012ETNT V0202201N003112200019N0112651N1-00201-00501999999ADDGA1021+063001999GF102991999999999999999999MA1102611999999REMMET062METAR ETNT 061120Z 22006KT 9999 FEW210 M02/M05 Q1026 BLU/BLU/;
0131101260999992009010612204+53550+007667FM-15+0012ETNT V0202401N003112200019N0112651N1-00201-00501999999ADDGA1021+063001999GF102991999999999999999999MA1102511999999REMMET062METAR ETNT 061220Z 24006KT 9999 FEW210 M02/M05 Q1025 BLU/BLU/;
0159101260999992009010613004+53550+007667FM-12+0012ETNT V0202401N004012200019N0400001N1-00161-00551102581ADDGA1021+063001001GF102991001001999999001011MA1999999102431MD1710211+9999REMSYN076AAXX  06131 10126 42982 22404 11016 21055 30243 40258 57021 80001 333 82071;
0131101260999992009010613204+53550+007667FM-15+0012ETNT V0202501N003612200019N0112651N1-00201-00601999999ADDGA1021+063001999GF102991999999999999999999MA1102511999999REMMET062METAR ETNT 061320Z 25007KT 9999 FEW210 M02/M06 Q1025 BLU/BLU/;
0201101260999992009010614004+53550+007667FM-12+0012ETNT V0202501N004012200019N0400001N1-00191-00611102521ADDGA1021+063001001GF102991001001999999001011MA1999999102371MD1710191+9999REMSYN118AAXX  06141 10126 42982 22504 11019 21061 30237 40252 57019 80001 333 82071 555 BOT 11010 21004 30002 40021 999 34///;
0131101260999992009010614204+53550+007667FM-15+0012ETNT V0202501N003112200019N0112651N1-00201-00601999999ADDGA1021+039001999GF102991999999999999999999MA1102401999999REMMET062METAR ETNT 061420Z 25006KT 9999 FEW130 M02/M06 Q1024 BLU/BLU/;
0131101260999992009010615204+53550+007667FM-15+0012ETNT V0202401N002612200019N0112651N1-00401-00701999999ADDGA1021+039001999GF102991999999999999999999MA1102401999999REMMET062METAR ETNT 061520Z 24005KT 9999 FEW130 M04/M07 Q1024 BLU/BLU/;
0159101260999992009010616004+53550+007667FM-12+0012ETNT V0202201N002012200019N0350001N1-00581-00731102431ADDGA1011+039001031GF102991011001999999031011MA1999999102271MD1710221+9999REMSYN076AAXX  06161 10126 42981 22202 11058 21073 30227 40243 57022 81031 333 81363;
0138101260999992009010616204+53550+007667FM-15+0012ETNT V0202301N002112200019N0112651N1-00701-00801999999ADDGA1021+039001999GF102991999999999999999999MA1102301999999REMMET069METAR ETNT 061620Z 23004KT 9999 FEW130 M07/M08 Q1023 BLU/FCST CANCEL;
0159101260999992009010617004+53550+007667FM-12+0012ETNT V0202301N003012200019N0350001N1-00621-00751102371ADDGA1011+039001031GF102991011001999999031011MA1999999102211MD1710161+9999REMSYN076AAXX  06171 10126 42981 22303 11062 21075 30221 40237 57016 81031 333 81363;
0127101260999992009010617204+53550+007667FM-15+0012ETNT V0202301N002612200019N0112651N1-00601-00701999999ADDGA1021+063001999GF102991999999999999999999MA1102301999999REMMET058METAR ETNT 061720Z 23005KT 9999 FEW210 M06/M07 Q1023 BLU/;
0126101260999992009010618204+53550+007667FM-15+0012ETNT V0202301N003110450019N0112651N1-00601-00701999999ADDGA1071+045001999GF107991999999999999999999MA1102201999999REMMET057METAR ETNT 061820Z 23006KT 9999 BKN150 M06/M07 Q1022 BLU;
0159101260999992009010619004+53550+007667FM-12+0012ETNT V0202301N003010450019N0350001N1-00531-00691102281ADDGA1071+045001031GF107991071001999999031999MA1999999102131MD1610141+9999REMSYN076AAXX  06191 10126 42981 72303 11053 21069 30213 40228 56014 8703/ 333 87365;
0126101260999992009010619204+53550+007667FM-15+0012ETNT V0202301N003610420019N0112651N1-00501-00701999999ADDGA1071+042001999GF107991999999999999999999MA1102201999999REMMET057METAR ETNT 061920Z 23007KT 9999 BKN140 M05/M07 Q1022 BLU;
0159101260999992009010620004+53550+007667FM-12+0012ETNT V0202301N004010420019N0350001N1-00471-00661102211ADDGA1071+042001031GF107991071001999999031999MA1999999102061MD1810151+9999REMSYN076AAXX  06201 10126 42981 72304 11047 21066 30206 40221 58015 8703/ 333 87364;
0149101260999992009010620204+53550+007667FM-15+0012ETNT V0202301N004110420019N0112651N1-00401-00701999999ADDGA1021+015001999GA2071+042001999GF107991999999999999999999MA1102101999999REMMET064METAR ETNT 062020Z 23008KT 9999 FEW050 BKN140 M04/M07 Q1021 BLU;
0126101260999992009010621204+53550+007667FM-15+0012ETNT V0202401N004610135019N0112651N1-00301-00701999999ADDGA1071+013501999GF107991999999999999999999MA1102001999999REMMET057METAR ETNT 062120Z 24009KT 9999 BKN045 M03/M07 Q1020 BLU;
0159101260999992009010622004+53550+007667FM-12+0012ETNT V0202301N005010132019N0300001N1-00301-00661102051ADDGA1071+013201061GF107991071051012501999999MA1999999101901MD1710231+9999REMSYN076AAXX  06221 10126 42680 72305 11030 21066 30190 40205 57023 875// 333 87644;
0149101260999992009010622204+53550+007667FM-15+0012ETNT V0202301N004610117019N0112651N1-00301-00701999999ADDGA1071+011701999GA2071+018001999GF107991999999999999999999MA1102001999999REMMET064METAR ETNT 062220Z 23009KT 9999 BKN039 BKN060 M03/M07 Q1020 BLU;
0193101260999992009010623004+53550+007667FM-12+0012ETNT V0202301N00501004201CN0250001N1-00281-00721101971ADDAY121999AY221999GA1011+003601061GF107991071051004501999999MA1999999101821MD1710241+9999MW1711REMSYN088AAXX  06231 10126 41475 72305 11028 21072 30182 40197 57024 77122 875// 333 81612 87636;
0159101260999992009010623204+53550+007667FM-15+0012ETNT V0202301N005710180019N0112651N1-00301-00601999999ADDGA1041+009001999GA2071+018001999GF107991999999999999999999MA1101901999999MW1711REMMET068METAR ETNT 062320Z 23011KT 9999 -SN SCT030 BKN060 M03/M06 Q1019 BLU;
0159101260999992009010700204+53550+007667FM-15+0012ETNT V0202301N005710150019N0112651N1-00301-00501999999ADDGA1041+011401999GA2071+015001999GF107991999999999999999999MA1101801999999MW1711REMMET068METAR ETNT 070020Z 23011KT 9999 -SN SCT038 BKN050 M03/M05 Q1018 BLU;
0193101260999992009010701004+53550+007667FM-12+0012ETNT V0202401N00601007501CN0250001N1-00231-00431101791ADDAY171999AY271999GA1041+006301061GF107991071051008001999999MA1999999101641MD1810261+9999MW1711REMSYN088AAXX  07011 10126 41575 72406 11023 21043 30164 40179 58026 77177 875// 333 84621 87640;
0159101260999992009010701204+53550+007667FM-15+0012ETNT V0202401N006710048019N0112651N1-00201-00401999999ADDGA1071+004801999GA2071+009001999GF107991999999999999999999MA1101691999999MW1711REMMET068METAR ETNT 070120Z 24013KT 9999 -SN BKN016 BKN030 M02/M04 Q1017 WHT;
0136101260999992009010701464+53550+007667FM-16+0012ETNT V0202401N007210042019N0112651N1-00201-00301999999ADDGA1071+004201999GF107991999999999999999999MA1101691999999MW1711REMMET061SPECI ETNT 070146Z 24014KT 9999 -SN BKN014 M02/M03 Q1017 GRN;
0187101260999992009010702004+53550+007667FM-12+0012ETNT V0202401N007010042019N0100001N1-00231-00361101731ADDAY171999AY271999GA1071+004201061GF108991071051004501999999MA1999999101581MD1610241+9999MW1711REMSYN082AAXX  07021 10126 41460 82407 11023 21036 30158 40173 56024 77177 875// 333 87614;
0159101260999992009010702204+53550+007667FM-15+0012ETNT V0202401N006210030019N0060001N1-00201-00301999999ADDGA1071+003001999GA2071+004201999GF107991999999999999999999MA1101591999999MW1711REMMET068METAR ETNT 070220Z 24012KT 6000 -SN BKN010 BKN014 M02/M03 Q1016 GRN;
0136101260999992009010703204+53550+007667FM-15+0012ETNT V0202401N005710024019N0050001N1-00201-00201999999ADDGA1071+002401999GF107991999999999999999999MA1101591999999MW1711REMMET061METAR ETNT 070320Z 24011KT 5000 -SN BKN008 M02/M02 Q1016 GRN;
0158101260999992009010703414+53550+007667FM-16+0012ETNT V0202401N005110024019N0025001N1-00201-00201999999ADDGA1041+001501999GA2071+002401999GF107991999999999999999999MA1101591999999MW1731REMMET067SPECI ETNT 070341Z 24010KT 2500 SN SCT005 BKN008 M02/M02 Q1016 YLO;
0193101260999992009010704004+53550+007667FM-12+0012ETNT V0202401N00501001201CN0025001N1-00231-00231101641ADDAY171999AY271999GA1021+001501071GF108991071061001501999999MA1999999101491MD1610151+9999MW1731REMSYN088AAXX  07041 10126 41225 82405 11023 21023 30149 40164 56015 77377 876// 333 82705 87708;
0189101260999992009010704204+53550+007667FM-15+0012ETNT V0202501N004610018019N0015001N1-00201-00201999999ADDED199U20009GA1071+001801999GA2071+002401999GF107991999999999999999999MA1101591999999MW1361MW2731REMMET081METAR ETNT 070420Z 25009KT 1500 R26/2000 SN DRSN BKN006 BKN008 M02/M02 Q1016 AMB;
0187101260999992009010705004+53550+007667FM-12+0012ETNT V0202501N005010018019N0015001N1-00151-00171101621ADDAY171999AY271999GA1071+001801071GF108991071061001501999999MA1999999101471MD1610111+9999MW1711REMSYN082AAXX  07051 10126 41215 82505 11015 21017 30147 40162 56011 77177 876// 333 87706;
0173101260999992009010705204+53550+007667FM-15+0012ETNT V0202501N004610018019N0020001N1-00101-00101999999ADDGA1071+001801999GA2071+012001999GF107991999999999999999999MA1101591999999MW1101MW2711REMMET076METAR ETNT 070520Z 25009KT 2000 -SN BR BKN006 BKN040 M01/M01 Q1016 RESN YLO;
0182101260999992009010705474+53550+007667FM-16+0012ETNT V0202401N003610012019N0025001N1-00101-00101999999ADDGA1071+001201999GA2071+012001999GF107991999999999999999999MA1101491999999MW1101REMMET091SPECI ETNT 070547Z 24007KT 2500 BR BKN004 BKN040 M01/M01 Q1015 RESN BLACKYLO YLO TEMPO AMB;
0200101260999992009010706204+53550+007667FM-15+0012ETNT V0202501N003110069019N0030001N1-00101-00101999999ADDGA1021+001201999GA2071+006901999GA3071+015001999GF107991999999999999999999MA1101591999999MW1101REMMET093METAR ETNT 070620Z 25006KT 3000 BR FEW004 BKN023 BKN050 M01/M01 Q1016 BLACKYLO YLO TEMPO AMB;
0193101260999992009010707004+53550+007667FM-12+0012ETNT V0202601N003010069019N0030001N1-00031-00031101631ADDAY171999AY221999GA1051+006901061GF108991071051008001999999MA1999999101481MD1510011+9999MW1611REMSYN088AAXX  07071 10126 41530 82603 11003 21003 30148 40163 55001 76172 875// 333 85623 87641;
0175101260999992009010707204+53550+007667FM-15+0012ETNT V0202601N003610120019N0040001N1+00001+00001999999ADDGA1021+006901999GA2071+012001999GF107991999999999999999999MA1101591999999MW1101REMMET084METAR ETNT 070720Z 26007KT 4000 BR FEW023 BKN040 00/00 Q1016 BLACKGRN GRN TEMPO YLO;
0193101260999992009010708004+53550+007667FM-12+0012ETNT V0202601N00301007501CN0040001N1+00051+00051101681ADDAY121999AY221999GA1021+006901061GF107991071051008001999999MA1999999101531MD1310061+9999MW1211REMSYN088AAXX  07081 10126 41540 72603 10005 20005 30153 40168 53006 72122 875// 333 82623 87645;
0175101260999992009010708204+53550+007667FM-15+0012ETNT V0202601N002610135019N0050001N1+00101+00101999999ADDGA1021+006901999GA2071+013501999GF107991999999999999999999MA1101691999999MW1101REMMET084METAR ETNT 070820Z 26005KT 5000 BR FEW023 BKN045 01/01 Q1017 BLACKWHT WHT TEMPO GRN;
0185101260999992009010708324+53550+007667FM-16+0012ETNT V0203001N001510135019N0035001N1+00101+00101999999ADDGA1021+003001999GA2071+013501999GF107991999999999999999999MA1101691999999MW1101MW2711REMMET088SPECI ETNT 070832Z 30003KT 3500 -SN BR FEW010 BKN045 01/01 Q1017 BLACKYLO WHT TEMPO GRN;
0207101260999992009010708504+53550+007667FM-16+0012ETNT V0203401N006210060019N0060001N1+00101+00101999999ADDGA1021+002401999GA2071+006001999GA3071+013501999GF107991999999999999999999MA1101691999999MW1511MW2611REMMET094SPECI ETNT 070850Z 34012KT 6000 -DZRA FEW008 BKN020 BKN045 01/01 Q1017 BLACKWHT WHT TEMPO GRN;
0166101260999992009010709204+53550+007667FM-15+0012ETNT V0203401N001010180019N0112651N1+00101+00101999999ADDGA1021+006001999GA2071+018001999GF107991999999999999999999MA1101691999999REMMET081METAR ETNT 070920Z 34002KT 9999 FEW020 BKN060 01/01 Q1017 BLACKBLU BLU TEMPO GRN;
0215101260999992009010710004+53550+007667FM-12+0012ETNT V0203101N003010084019N0150001N1+00171+00171101811ADDAY181999AY271999GA1021+003001071GA2031+008401081GF107991071081004501999999MA1999999101661MD1210181+9999MW1251REMSYN094AAXX  07101 10126 41465 73103 10017 20017 30166 40181 52018 72587 878// 333 82710 83828 87650;
0161101260999992009010710204+53550+007667FM-15+0012ETNT V0203201N001510150019N0112651N1+00301+00201999999ADDGA1021+006001999GA2071+015001999GF107991999999999999999999MA1101801999999REMMET076METAR ETNT 071020Z 32003KT 9999 FEW020 BKN050 03/02 Q1018 BLU BLU TEMPO GRN;
0175101260999992009010710424+53550+007667FM-16+0012ETNT V0203201N003110150019N0070001N1+00201+00201999999ADDGA1021+006001999GA2071+015001999GF107991999999999999999999MA1101801999999MW1831REMMET084SPECI ETNT 071042Z 32006KT 7000 -SHRASN FEW020 BKN050 02/02 Q1018 WHT BLU TEMPO GRN;
0154101260999992009010710564+53550+007667FM-16+0012ETNT V0200101N004110147019N0112651N1+00201+00201999999ADDGA1021+006001021GA2071+014701999GF107991999999999999999999MA1101801999999REMMET069SPECI ETNT 071056Z 01008KT 9999 FEW020TCU BKN049 02/02 Q1018 BLU BLU;
0193101260999992009010711004+53550+007667FM-12+0012ETNT V0203601N00501012001CN0070001N1+00211+00191101871ADDAY181999AY221999GA1021+006001081GF107991071081008001999999MA1999999101721MD1210191+9999MW1831REMSYN088AAXX  07111 10126 41557 73605 10021 20019 30172 40187 52019 78382 878// 333 82820 87650;
0154101260999992009010711204+53550+007667FM-15+0012ETNT V0203401N001510180019N0112651N1+00401+00301999999ADDGA1021+006001021GA2071+018001999GF107991999999999999999999MA1101801999999REMMET069METAR ETNT 071120Z 34003KT 9999 FEW020TCU BKN060 04/03 Q1018 BLU BLU;
0152101260999992009010712204+53550+007667FM-15+0012ETNT V0203401N002612200019N0112651N1+00401+00401999999ADDGA1021+006001999GA2041+015001999GF104991999999999999999999MA1101801999999REMMET067METAR ETNT 071220Z 34005KT 9999 FEW020 SCT050 04/04 Q1018 BLU/BLU/;
0176101260999992009010712334+53550+007667FM-16+0012ETNT V0203301N003610150019N0112651N1+00401+00401999999ADDGA1041+006001999GA2071+015001999GF107991999999999999999999MA1101901999999MW1831REMMET085SPECI ETNT 071233Z 33007KT 9999 -SHRASN SCT020 BKN050 04/04 Q1019 BLU BLU/ TEMPO GRN;
0193101260999992009010713004+53550+007667FM-12+0012ETNT V0203601N00401012001CN0250001N1+00331+00231101931ADDAY121999AY221999GA1031+006001081GF106991061081008001001001MA1999999101781MD1210121+9999MW1261REMSYN088AAXX  07131 10126 41575 63604 10033 20023 30178 40193 52012 72622 86800 333 83820 85650;
0152101260999992009010713204+53550+007667FM-15+0012ETNT V0203501N002612200019N0112651N1+00301+00301999999ADDGA1021+006001999GA2041+018001999GF104991999999999999999999MA1101901999999REMMET067METAR ETNT 071320Z 35005KT 9999 FEW020 SCT060 03/03 Q1019 BLU/BLU/;
0251101260999992009010714004+53550+007667FM-12+0012ETNT V0203101N002010180019N0250001N1+00251+00251101981ADDAY121999AY221999GA1021+006601081GA2041+018001061GF105991051081008001001001MA1999999101831MD1210111+9999MW1261REMSYN130AAXX  07141 10126 41575 53102 10025 20025 30183 40198 52011 72622 85800 333 82822 84656 555 BOT 11003 20000 30001 40021 999 32///;
0129101260999992009010714204+53550+007667FM-15+0012ETNT V0203401N002112200019N0112651N1+00301+00301999999ADDGA1021+006601999GF102991999999999999999999MA1102001999999REMMET060METAR ETNT 071420Z 34004KT 9999 FEW022 03/03 Q1020 BLU/BLU/;
0151101260999992009010715204+53550+007667FM-15+0012ETNT V0203501N000510180019N0112651N1+00201+00201999999ADDGA1021+006601999GA2071+018001999GF107991999999999999999999MA1102101999999REMMET066METAR ETNT 071520Z 35001KT 9999 FEW022 BKN060 02/02 Q1021 BLU BLU;
0165101260999992009010716004+53550+007667FM-12+0012ETNT V0203601N00301012001CN0250001N1+00161+00031102171ADDGA1011+006601081GF105991051081008001001001MA1999999102021MD1210241+9999REMSYN082AAXX  07161 10126 42575 53603 10016 20003 30202 40217 52024 85800 333 81822 85656;
0159101260999992009010716204+53550+007667FM-15+0012ETNT V0203601N001512200019N0112651N1+00101+00001999999ADDGA1021+006601999GA2041+015001999GF104991999999999999999999MA1102101999999REMMET074METAR ETNT 071620Z 36003KT 9999 FEW022 SCT050 01/00 Q1021 BLU/FCST CANCEL;
0165101260999992009010717004+53550+007667FM-12+0012ETNT V0203601N002012200019N0250001N1+00111+00051102241ADDGA1011+006601081GF104991041081008001001001MA1999999102091MD1210261+9999REMSYN082AAXX  07171 10126 42575 43602 10011 20005 30209 40224 52026 84800 333 81822 84649;
0125101260999992009010717204+53550+007667FM-15+0012ETNT V0203501N001512200019N0112651N1+00101+00001999999ADDGA1021+012301999GF102991999999999999999999MA1102201999999REMMET056METAR ETNT 071720Z 35003KT 9999 FEW041 01/00 Q1022 BLU/;
0124101260999992009010718204+53550+007667FM-15+0012ETNT V0200401N001510150019N0112651N1+00001+00001999999ADDGA1071+015001999GF107991999999999999999999MA1102301999999REMMET055METAR ETNT 071820Z 04003KT 9999 BKN050 00/00 Q1023 BLU;
0159101260999992009010719004+53550+007667FM-12+0012ETNT V0203501N001010150019N0250001N1+00041-00011102401ADDGA1061+015001061GF106991061051017501001001MA1999999102251MD1210231+9999REMSYN076AAXX  07191 10126 42775 63501 10004 21001 30225 40240 52023 86500 333 86650;
0127101260999992009010719204+53550+007667FM-15+0012ETNT V0200701N000512200019N0112651N1-00201-00201999999ADDGA1041+014401999GF104991999999999999999999MA1102401999999REMMET058METAR ETNT 071920Z 07001KT 9999 SCT048 M02/M02 Q1024 BLU/;
0159101260999992009010720004+53550+007667FM-12+0012ETNT V0200701N001012200019N0250001N1-00171-00171102481ADDGA1031+014401061GF103991031051012501001001MA1999999102331MD1210231+9999REMSYN076AAXX  07201 10126 42675 30701 11017 21017 30233 40248 52023 83500 333 83648;
0127101260999992009010721204+53550+007667FM-15+0012ETNT V0201801N001012200019N0112651N1-00401-00401999999ADDGA1021+012001999GF102991999999999999999999MA1102511999999REMMET058METAR ETNT 072120Z 18002KT 9999 FEW040 M04/M04 Q1025 BLU/;
0159101260999992009010722004+53550+007667FM-12+0012ETNT V0202201N001012200019N0250001N1-00291-00291102611ADDGA1031+012001061GF103991031051012501001001MA1999999102461MD1210211+9999REMSYN076AAXX  07221 10126 42675 32201 11029 21029 30246 40261 52021 83500 333 83640;
0127101260999992009010722204+53550+007667FM-15+0012ETNT V0202201N000512200019N0112651N1-00301-00301999999ADDGA1041+012001999GF104991999999999999999999MA1102611999999REMMET058METAR ETNT 072220Z 22001KT 9999 SCT040 M03/M03 Q1026 BLU/;
0159101260999992009010723004+53550+007667FM-12+0012ETNT V0201801N001012200019N0250001N1-00391-00391102681ADDGA1031+012001061GF103991031051012501001001MA1999999102531MD1210201+9999REMSYN076AAXX  07231 10126 42675 31801 11039 21039 30253 40268 52020 83500 333 83640;
0127101260999992009010723204+53550+007667FM-15+0012ETNT V0201401N000512200019N0112651N1-00401-00401999999ADDGA1021+013201999GF102991999999999999999999MA1102711999999REMMET058METAR ETNT 072320Z 14001KT 9999 FEW044 M04/M04 Q1027 BLU/;
0127101260999992009010800204+53550+007667FM-15+0012ETNT V0202101N001012200019N0112651N1-00501-00501999999ADDGA1021+013501999GF102991999999999999999999MA1102711999999REMMET058METAR ETNT 080020Z 21002KT 9999 FEW045 M05/M05 Q1027 BLU/;
0159101260999992009010801004+53550+007667FM-12+0012ETNT V0201701N002012200019N0250001N1-00511-00511102791ADDGA1011+013501061GF101991011051012501001001MA1999999102631MD1210171+9999REMSYN076AAXX  08011 10126 42675 11702 11051 21051 30263 40279 52017 81500 333 81645;
0127101260999992009010801204+53550+007667FM-15+0012ETNT V0201901N001012200019N0112651N1-00501-00501999999ADDGA1021+013501999GF102991999999999999999999MA1102811999999REMMET058METAR ETNT 080120Z 19002KT 9999 FEW045 M05/M05 Q1028 BLU/;
0159101260999992009010802004+53550+007667FM-12+0012ETNT V0201901N002012200019N0250001N1-00541-00541102841ADDGA1011+013501061GF101991011051012501001001MA1999999102681MD1210151+9999REMSYN076AAXX  08021 10126 42675 11902 11054 21054 30268 40284 52015 81500 333 81645;
0127101260999992009010802204+53550+007667FM-15+0012ETNT V0201601N001012200019N0112651N1-00501-00501999999ADDGA1021+030001999GF102991999999999999999999MA1102811999999REMMET058METAR ETNT 080220Z 16002KT 9999 FEW100 M05/M05 Q1028 BLU/;
0127101260999992009010803204+53550+007667FM-15+0012ETNT V0202001N002612200019N0112651N1-00501-00501999999ADDGA1021+013501999GF102991999999999999999999MA1102811999999REMMET058METAR ETNT 080320Z 20005KT 9999 FEW045 M05/M05 Q1028 BLU/;
0159101260999992009010804004+53550+007667FM-12+0012ETNT V0202101N002012200019N0250001N1-00471-00471102881ADDGA1021+013501061GF102991021051012501001001MA1999999102721MD1210091+9999REMSYN076AAXX  08041 10126 42675 22102 11047 21047 30272 40288 52009 82500 333 82645;
0127101260999992009010804204+53550+007667FM-15+0012ETNT V0202101N002612200019N0112651N1-00501-00501999999ADDGA1021+013501999GF102991999999999999999999MA1102811999999REMMET058METAR ETNT 080420Z 21005KT 9999 FEW045 M05/M05 Q1028 BLU/;
0159101260999992009010805004+53550+007667FM-12+0012ETNT V0202201N002012200019N0250001N1-00501-00521102851ADDGA1011+013501061GF101991011051012501001001MA1999999102691MD1010011+9999REMSYN076AAXX  08051 10126 42675 12202 11050 21052 30269 40285 50001 81500 333 81645;
0131101260999992009010805204+53550+007667FM-15+0012ETNT V0202201N002612200019N0112651N1-00501-00501999999ADDGA1021+013501999GF102991999999999999999999MA1102811999999REMMET062METAR ETNT 080520Z 22005KT 9999 FEW045 M05/M05 Q1028 BLU/BLU/;
0131101260999992009010806204+53550+007667FM-15+0012ETNT V0202201N002612200019N0112651N1-00501-00501999999ADDGA1021+075001999GF102991999999999999999999MA1102811999999REMMET062METAR ETNT 080620Z 22005KT 9999 FEW250 M05/M05 Q1028 BLU/BLU/;
0207101260999992009010807004+53550+007667FM-12+0012ETNT V0202101N002012200019N0250001N1-00501-00531102881ADDGA1011+012001061GF101991011051012501001011MA1999999102721MD1510001+9999REMSYN124AAXX  08071 10126 42675 12102 11050 21053 30272 40288 55000 81501 333 81640 555 BOT 11036 21024 31001 40021 50046 999 34///;
0131101260999992009010807204+53550+007667FM-15+0012ETNT V0202001N002112200019N0112651N1-00501-00501999999ADDGA1021+012001999GF102991999999999999999999MA1102911999999REMMET062METAR ETNT 080720Z 20004KT 9999 FEW040 M05/M05 Q1029 BLU/BLU/;
0159101260999992009010808004+53550+007667FM-12+0012ETNT V0202001N003012200019N0200001N1-00461-00461102921ADDGA1011+012001061GF101991011051012501001011MA1999999102761MD1210071+9999REMSYN076AAXX  08081 10126 42670 12003 11046 21046 30276 40292 52007 81501 333 81640;
0131101260999992009010808204+53550+007667FM-15+0012ETNT V0202201N002612200019N0112651N1-00401-00401999999ADDGA1021+015001999GF102991999999999999999999MA1102911999999REMMET062METAR ETNT 080820Z 22005KT 9999 FEW050 M04/M04 Q1029 BLU/BLU/;
0141101260999992009010809164+53550+007667FM-16+0012ETNT V0202101N003610450019N0070001N1-00201-00301999999ADDGA1071+045001999GF107991999999999999999999MA1102911999999REMMET072SPECI ETNT 080916Z 21007KT 7000 BKN150 M02/M03 Q1029 WHT BLU/ BECMG RED;
0141101260999992009010809204+53550+007667FM-15+0012ETNT V0202101N003610450019N0070001N1-00201-00301999999ADDGA1071+045001999GF107991999999999999999999MA1102911999999REMMET072METAR ETNT 080920Z 21007KT 7000 BKN150 M02/M03 Q1029 WHT BLU/ BECMG RED;
0187101260999992009010810004+53550+007667FM-12+0012ETNT V0202001N003012200019N0070001N1-00211-00211103001ADDAY111999AY211999GA1011+042001031GF102991011001999999031011MA1999999102851MD1210131+9999MW1101REMSYN082AAXX  08101 10126 41957 22003 11021 21021 30285 40300 52013 71011 81031 333 81364;
0149101260999992009010810204+53550+007667FM-15+0012ETNT V0202101N004112200019N0045001N1-00201-00201999999ADDGA1021+000901999GF102991999999999999999999MA1102911999999MW1101REMMET074METAR ETNT 081020Z 21008KT 4500 BR FEW003 M02/M02 Q1029 GRN GRN BECMG RED;
0149101260999992009010810344+53550+007667FM-16+0012ETNT V0202001N004110009019N0025001N1-00301-00301999999ADDGA1071+000901999GF107991999999999999999999MA1102911999999MW1101REMMET074SPECI ETNT 081034Z 20008KT 2500 BR BKN003 M03/M03 Q1029 YLO YLO BECMG RED;
0187101260999992009010811004+53550+007667FM-12+0012ETNT V0202001N004010009019N0025001N1-00331-00331102991ADDAY111999AY211999GA1071+000901071GF107991071061000751999999MA1999999102841MD1010081+9999MW1101REMSYN082AAXX  08111 10126 41125 72004 11033 21033 30284 40299 50008 71011 876// 333 87703;
0170101260999992009010811204+53550+007667FM-15+0012ETNT V0202101N004110006019N0015001N1-00301-00301999999ADDED199U15009GA1071+000601999GF107991999999999999999999MA1102911999999MW1101REMMET084METAR ETNT 081120Z 21008KT 1500 R26/1500N BR BKN002 M03/M03 Q1029 AMB AMB BECMG RED;
0170101260999992009010812204+53550+007667FM-15+0012ETNT V0202101N004610006019N0026001N1-00301-00301999999ADDED199U19009GA1071+000601999GF107991999999999999999999MA1102911999999MW1101REMMET084METAR ETNT 081220Z 21009KT 2600 R26/1900N BR BKN002 M03/M03 Q1029 AMB AMB TEMPO YLO;
0187101260999992009010813004+53550+007667FM-12+0012ETNT V0202101N005010006019N0030001N1-00241-00241102921ADDAY121999AY221999GA1071+000601071GF107991071061000751999999MA1999999102771MD1810081+9999MW1101REMSYN082AAXX  08131 10126 41130 72105 11024 21024 30277 40292 58008 71022 876// 333 87702;
0169101260999992009010813204+53550+007667FM-15+0012ETNT V0202101N003610006019N0026001N1-00201-00301999999ADDED199U19009GA1071+000601999GF107991999999999999999999MA1102911999999MW1101REMMET083METAR ETNT 081320Z 21007KT 2600 R26/1900 BR BKN002 M02/M03 Q1029 AMB AMB TEMPO YLO;
0229101260999992009010814004+53550+007667FM-12+0012ETNT V0202201N004010006019N0026001N1-00251-00291102931ADDAY121999AY221999GA1071+000601071GF107991071061000751999999MA1999999102781MD1510061+9999MW1101REMSYN124AAXX  08141 10126 41126 72204 11025 21029 30278 40293 55006 71022 876// 333 87702 555 BOT 11010 21006 30000 40020 999 34///;
0170101260999992009010814204+53550+007667FM-15+0012ETNT V0202101N004110006019N0026001N1-00301-00301999999ADDED199U19009GA1071+000601999GF107991999999999999999999MA1102911999999MW1101REMMET084METAR ETNT 081420Z 21008KT 2600 R26/1900N BR BKN002 M03/M03 Q1029 AMB AMB TEMPO YLO;
0149101260999992009010815204+53550+007667FM-15+0012ETNT V0202201N004110006019N0020001N1-00301-00401999999ADDGA1071+000601999GF107991999999999999999999MA1102811999999MW1101REMMET074METAR ETNT 081520Z 22008KT 2000 BR BKN002 M03/M04 Q1028 AMB AMB TEMPO YLO;
0193101260999992009010816004+53550+007667FM-12+0012ETNT V0202201N004010006019N0030001N1-00311-00391102921ADDAY121999AY221999GA1061+000601071GF107991061061000751001011MA1999999102771MD1010001+9999MW1101REMSYN088AAXX  08161 10126 41130 72204 11031 21039 30277 40292 50000 71022 86601 333 86702 84076;
0163101260999992009010816064+53550+007667FM-16+0012ETNT V0202101N00311220001CN0034001N1-00301-00401999999ADDGA1071+000601999GA2041+078001999MA1102911999999MW1101REMMET079SPECI ETNT 081606Z 21006KT 3400 BR BKN002 SCT260 M03/M04 Q1029 AMB FCST CANCEL;EQDQ01+000042SCOTCV
0158101260999992009010816204+53550+007667FM-15+0012ETNT V0202101N003112200019N0034001N1-00301-00401999999ADDGA1021+000601999GA2041+007201999GF104991999999999999999999MA1102911999999MW1101REMMET067METAR ETNT 081620Z 21006KT 3400 BR FEW002 SCT024 M03/M04 Q1029 YLO;
0187101260999992009010817004+53550+007667FM-12+0012ETNT V0202101N003010081019N0035001N1-00371-00431102911ADDAY121999AY221999GA1051+008101061GF105991051051008001001011MA1999999102761MD1710021+9999MW1101REMSYN082AAXX  08171 10126 41535 52103 11037 21043 30276 40291 57002 71022 85501 333 85627;
0135101260999992009010817204+53550+007667FM-15+0012ETNT V0202101N003110081019N0045001N1-00401-00401999999ADDGA1071+008101999GF107991999999999999999999MA1102911999999MW1101REMMET060METAR ETNT 081720Z 21006KT 4500 BR BKN027 M04/M04 Q1029 GRN;
0135101260999992009010818204+53550+007667FM-15+0012ETNT V0202201N003110069019N0050001N1-00301-00301999999ADDGA1071+006901999GF107991999999999999999999MA1102911999999MW1101REMMET060METAR ETNT 081820Z 22006KT 5000 BR BKN023 M03/M03 Q1029 WHT;
0187101260999992009010819004+53550+007667FM-12+0012ETNT V0202201N003010066019N0060001N1-00331-00331102931ADDAY121999AY221999GA1071+006601061GF107991071051008001999999MA1999999102781MD1310011+9999MW1101REMSYN082AAXX  08191 10126 41556 72203 11033 21033 30278 40293 53001 71022 875// 333 87622;
0126101260999992009010819204+53550+007667FM-15+0012ETNT V0202201N003112200019N0060001N1-00401-00401999999ADDGA1041+006001999GF104991999999999999999999MA1102911999999REMMET057METAR ETNT 081920Z 22006KT 6000 SCT020 M04/M04 Q1029 WHT;
0193101260999992009010820004+53550+007667FM-12+0012ETNT V0202201N00301007501CN0060001N1-00431-00441102921ADDAY111999AY211999GA1011+006001061GF106991061051008001001001MA1999999102771MD1010011+9999MW1101REMSYN088AAXX  08201 10126 41556 62203 11043 21044 30277 40292 50001 71011 86500 333 81620 85632;
0149101260999992009010820204+53550+007667FM-15+0012ETNT V0202301N002610096019N0060001N1-00401-00401999999ADDGA1021+006001999GA2071+009601999GF107991999999999999999999MA1102911999999REMMET064METAR ETNT 082020Z 23005KT 6000 FEW020 BKN032 M04/M04 Q1029 WHT;
0126101260999992009010821204+53550+007667FM-15+0012ETNT V0202201N002610093019N0060001N1-00401-00401999999ADDGA1071+009301999GF107991999999999999999999MA1102811999999REMMET057METAR ETNT 082120Z 22005KT 6000 BKN031 M04/M04 Q1028 WHT;
0187101260999992009010822004+53550+007667FM-12+0012ETNT V0202201N004010099019N0060001N1-00441-00441102881ADDAY121999AY221999GA1071+009901061GF107991071051012501999999MA1999999102731MD1610051+9999MW1101REMSYN082AAXX  08221 10126 41656 72204 11044 21044 30273 40288 56005 71022 875// 333 87633;
0126101260999992009010822204+53550+007667FM-15+0012ETNT V0202301N002610099019N0060001N1-00401-00401999999ADDGA1071+009901999GF107991999999999999999999MA1102911999999REMMET057METAR ETNT 082220Z 23005KT 6000 BKN033 M04/M04 Q1029 WHT;
0187101260999992009010823004+53550+007667FM-12+0012ETNT V0202301N003010096019N0060001N1-00421-00421102911ADDAY121999AY221999GA1071+009601061GF107991071051008001999999MA1999999102761MD1510011+9999MW1101REMSYN082AAXX  08231 10126 41556 72303 11042 21042 30276 40291 55001 71022 875// 333 87632;
0126101260999992009010823204+53550+007667FM-15+0012ETNT V0202201N003610096019N0060001N1-00401-00401999999ADDGA1071+009601999GF107991999999999999999999MA1102811999999REMMET057METAR ETNT 082320Z 22007KT 6000 BKN032 M04/M04 Q1028 WHT;
0126101260999992009010900204+53550+007667FM-15+0012ETNT V0202401N005110099019N0070001N1-00301-00401999999ADDGA1071+009901999GF107991999999999999999999MA1102811999999REMMET057METAR ETNT 090020Z 24010KT 7000 BKN033 M03/M04 Q1028 WHT;
0187101260999992009010901004+53550+007667FM-12+0012ETNT V0202501N007010099019N0070001N1-00271-00371102861ADDAY121999AY221999GA1071+009901061GF107991071051012501999999MA1999999102711MD1810021+9999MW1101REMSYN082AAXX  09011 10126 41657 72507 11027 21037 30271 40286 58002 71022 875// 333 87633;
0126101260999992009010901204+53550+007667FM-15+0012ETNT V0202501N006710093019N0112651N1-00301-00401999999ADDGA1071+009301999GF107991999999999999999999MA1102811999999REMMET057METAR ETNT 090120Z 25013KT 9999 BKN031 M03/M04 Q1028 BLU;
0165101260999992009010902004+53550+007667FM-12+0012ETNT V0202501N00701004201CN0100001N1-00271-00371102911ADDGA1031+004201061GF108991071051004501999999MA1999999102761MD1510001+9999REMSYN082AAXX  09021 10126 42460 82507 11027 21037 30276 40291 55000 875// 333 83614 87630;
0149101260999992009010902054+53550+007667FM-16+0012ETNT V0202501N006710039019N0112651N1-00301-00401999999ADDGA1071+003901999GA2071+009001999GF107991999999999999999999MA1102811999999REMMET064SPECI ETNT 090205Z 25013KT 9999 BKN013 BKN030 M03/M04 Q1028 GRN;
0149101260999992009010902204+53550+007667FM-15+0012ETNT V0202501N006710039019N0112651N1-00301-00401999999ADDGA1071+003901999GA2071+009001999GF107991999999999999999999MA1102811999999REMMET064METAR ETNT 090220Z 25013KT 9999 BKN013 BKN030 M03/M04 Q1028 GRN;
0149101260999992009010903204+53550+007667FM-15+0012ETNT V0202501N006710030019N0112651N1-00301-00401999999ADDGA1071+003001999GA2071+009001999GF107991999999999999999999MA1102811999999REMMET064METAR ETNT 090320Z 25013KT 9999 BKN010 BKN030 M03/M04 Q1028 GRN;
0165101260999992009010904004+53550+007667FM-12+0012ETNT V0202501N007010033019N0120001N1-00271-00371102881ADDGA1051+003301071GF108991071051004501999999MA1999999102731MD1010021+9999REMSYN082AAXX  09041 10126 42462 82507 11027 21037 30273 40288 50002 875// 333 85711 87630;
0163101260999992009010904204+53550+007667FM-15+0012ETNT V0202501N006710099019N0112651N1-00301-00401999999ADDGA1021+003001999GA2071+009901999GF107991999999999999999999MA1102811999999REMMET078METAR ETNT 090420Z 25013KT 9999 FEW010 BKN033 M03/M04 Q1028 BLU BLU TEMPO GRN;
0165101260999992009010905004+53550+007667FM-12+0012ETNT V0202501N00701004201CN0150001N1-00271-00371102851ADDGA1011+003001071GF108991071051004501999999MA1999999102701MD1710061+9999REMSYN082AAXX  09051 10126 42465 82507 11027 21037 30270 40285 57006 875// 333 81710 87633;
0140101260999992009010905204+53550+007667FM-15+0012ETNT V0202501N006710099019N0112651N1-00301-00401999999ADDGA1071+009901999GF107991999999999999999999MA1102811999999REMMET071METAR ETNT 090520Z 25013KT 9999 BKN033 M03/M04 Q1028 BLU BLU TEMPO GRN;
0140101260999992009010906204+53550+007667FM-15+0012ETNT V0202501N004110087019N0112651N1-00101-00301999999ADDGA1071+008701999GF107991999999999999999999MA1102811999999REMMET071METAR ETNT 090620Z 25008KT 9999 BKN029 M01/M03 Q1028 BLU BLU TEMPO GRN;
0207101260999992009010907004+53550+007667FM-12+0012ETNT V0202301N004010084019N0150001N1-00131-00271102851ADDGA1071+008401061GF108991071051008001999999MA1999999102701MD1510021+9999REMSYN124AAXX  09071 10126 42565 82304 11013 21027 30270 40285 55002 875// 333 87628 555 BOT 11018 21011 31001 40020 50044 999 34///;
0140101260999992009010907204+53550+007667FM-15+0012ETNT V0202601N001510084019N0112651N1-00101-00201999999ADDGA1071+008401999GF107991999999999999999999MA1102811999999REMMET071METAR ETNT 090720Z 26003KT 9999 BKN028 M01/M02 Q1028 BLU BLU TEMPO GRN;
0159101260999992009010908004+53550+007667FM-12+0012ETNT V0202401N002010075019N0150001N1-00111-00231102901ADDGA1071+007501061GF108991071051008001999999MA1999999102751MD1310021+9999REMSYN076AAXX  09081 10126 42565 82402 11011 21023 30275 40290 53002 875// 333 87625;
0140101260999992009010908204+53550+007667FM-15+0012ETNT V0202301N002110069019N0112651N1-00101-00201999999ADDGA1071+006901999GF107991999999999999999999MA1102911999999REMMET071METAR ETNT 090820Z 23004KT 9999 BKN023 M01/M02 Q1029 WHT BLU TEMPO GRN;
0140101260999992009010909204+53550+007667FM-15+0012ETNT V0202301N003110066019N0112651N1-00101-00401999999ADDGA1071+006601999GF107991999999999999999999MA1102911999999REMMET071METAR ETNT 090920Z 23006KT 9999 BKN022 M01/M04 Q1029 WHT WHT TEMPO GRN;
0159101260999992009010910004+53550+007667FM-12+0012ETNT V0202301N003010066019N0150001N1-00101-00361102981ADDGA1071+006601061GF108991071051008001999999MA1999999102831MD1210131+9999REMSYN076AAXX  09101 10126 42565 82303 11010 21036 30283 40298 52013 875// 333 87622;
0140101260999992009010910204+53550+007667FM-15+0012ETNT V0202301N003110066019N0112651N1-00101-00401999999ADDGA1071+006601999GF107991999999999999999999MA1102911999999REMMET071METAR ETNT 091020Z 23006KT 9999 BKN022 M01/M04 Q1029 WHT WHT TEMPO GRN;
0165101260999992009010911004+53550+007667FM-12+0012ETNT V0202201N00301004201CN0120001N1-00081-00351103011ADDGA1031+004801061GF108991071051004501999999MA1999999102861MD1210111+9999REMSYN082AAXX  09111 10126 42462 82203 11008 21035 30286 40301 52011 875// 333 83616 87624;
0163101260999992009010911204+53550+007667FM-15+0012ETNT V0202301N002610072019N0090001N1-00101-00301999999ADDGA1021+004801999GA2071+007201999GF107991999999999999999999MA1102911999999REMMET078METAR ETNT 091120Z 23005KT 9000 FEW016 BKN024 M01/M03 Q1029 WHT WHT TEMPO GRN;
0150101260999992009010912204+53550+007667FM-15+0012ETNT V0202201N002610051019N0070001N1-00101-00301999999ADDGA1071+005101999GF107991999999999999999999MA1102911999999MW1511REMMET075METAR ETNT 091220Z 22005KT 7000 -DZ BKN017 M01/M03 Q1029 WHT WHT TEMPO GRN;
0138101260999992009010912464+53550+007667FM-16+0012ETNT V0202401N003110051019N0070001N1-00101-00301999999ADDGA1071+005101999GF107991999999999999999999MA1102911999999REMMET069SPECI ETNT 091246Z 24006KT 7000 BKN017 M01/M03 Q1029 WHT FCST CANCEL;
0187101260999992009010913004+53550+007667FM-12+0012ETNT V0202401N003010051019N0070001N1-00081-00311102961ADDAY121999AY221999GA1071+005101061GF108991071051004501999999MA1999999102811MD1810021+9999MW1201REMSYN082AAXX  09131 10126 41457 82403 11008 21031 30281 40296 58002 72022 875// 333 87617;
0136101260999992009010913204+53550+007667FM-15+0012ETNT V0202301N002110048019N0070001N1-00101-00301999999ADDGA1071+004801999GF107991999999999999999999MA1102911999999MW1511REMMET061METAR ETNT 091320Z 23004KT 7000 -DZ BKN016 M01/M03 Q1029 WHT;
0229101260999992009010914004+53550+007667FM-12+0012ETNT V0202401N002010057019N0070001N1-00051-00251102931ADDAY151999AY221999GA1071+005701061GF108991071051004501999999MA1999999102781MD1710121+9999MW1511REMSYN124AAXX  09141 10126 41457 82402 11005 21025 30278 40293 57012 75152 875// 333 87619 555 BOT 11008 21004 30000 40018 999 34///;
0136101260999992009010914204+53550+007667FM-15+0012ETNT V0202301N002110057019N0070001N1+00001-00201999999ADDGA1071+005701999GF107991999999999999999999MA1102911999999MW1511REMMET061METAR ETNT 091420Z 23004KT 7000 -DZ BKN019 M00/M02 Q1029 WHT;
0126101260999992009010915204+53550+007667FM-15+0012ETNT V0202301N002110063019N0070001N1+00001-00201999999ADDGA1071+006301999GF107991999999999999999999MA1102911999999REMMET057METAR ETNT 091520Z 23004KT 7000 BKN021 M00/M02 Q1029 WHT;
0187101260999992009010916004+53550+007667FM-12+0012ETNT V0202401N002010054019N0070001N1-00041-00231102961ADDAY121999AY221999GA1071+005401061GF108991071051004501999999MA1999999102811MD1510001+9999MW1101REMSYN082AAXX  09161 10126 41457 82402 11004 21023 30281 40296 55000 71022 875// 333 87618;
0126101260999992009010916204+53550+007667FM-15+0012ETNT V0202201N001510066019N0070001N1+00001-00201999999ADDGA1071+006601999GF107991999999999999999999MA1102911999999REMMET057METAR ETNT 091620Z 22003KT 7000 BKN022 M00/M02 Q1029 WHT;
0187101260999992009010917004+53550+007667FM-12+0012ETNT V0202201N002010066019N0070001N1-00041-00211102991ADDAY121999AY221999GA1071+006601061GF108991071051008001999999MA1999999102841MD1210061+9999MW1101REMSYN082AAXX  09171 10126 41557 82202 11004 21021 30284 40299 52006 71022 875// 333 87622;
0126101260999992009010917204+53550+007667FM-15+0012ETNT V0202201N002110069019N0080001N1+00001-00201999999ADDGA1071+006901999GF107991999999999999999999MA1102911999999REMMET057METAR ETNT 091720Z 22004KT 8000 BKN023 M00/M02 Q1029 WHT;
0126101260999992009010918204+53550+007667FM-15+0012ETNT V0202201N002110069019N0080001N1+00001-00201999999ADDGA1071+006901999GF107991999999999999999999MA1102911999999REMMET057METAR ETNT 091820Z 22004KT 8000 BKN023 M00/M02 Q1029 WHT;
0159101260999992009010919004+53550+007667FM-12+0012ETNT V0202201N002010072019N0100001N1-00051-00181102981ADDGA1071+007201061GF108991071051008001999999MA1999999102831MD1010031+9999REMSYN076AAXX  09191 10126 42560 82202 11005 21018 30283 40298 50003 875// 333 87624;
0126101260999992009010919204+53550+007667FM-15+0012ETNT V0202301N001510072019N0112651N1+00001-00201999999ADDGA1071+007201999GF107991999999999999999999MA1103011999999REMMET057METAR ETNT 091920Z 23003KT 9999 BKN024 M00/M02 Q1030 WHT;
0159101260999992009010920004+53550+007667FM-12+0012ETNT V0202301N002010069019N0150001N1-00041-00161103021ADDGA1071+006901061GF108991071051008001999999MA1999999102871MD1310031+9999REMSYN076AAXX  09201 10126 42565 82302 11004 21016 30287 40302 53003 875// 333 87623;
0126101260999992009010920204+53550+007667FM-15+0012ETNT V0202401N001510075019N0112651N1+00001-00101999999ADDGA1071+007501999GF107991999999999999999999MA1103011999999REMMET057METAR ETNT 092020Z 24003KT 9999 BKN025 M00/M01 Q1030 BLU;
