0131101624999992011010304204+53417+011783FM-15+0051EDOP V0202801N002110009019N0022001N1-00301-00301999999ADDGA1071+000901999GF107991999999999999999999MA1101901999999MW1101REMMET056METAR EDOP 030420Z 28004KT 2200 BR BKN003 M03/M03 Q1019;
0131101624999992011010304504+53417+011783FM-15+0051EDOP V0202701N002610009019N0024001N1-00301-00301999999ADDGA1071+000901999GF107991999999999999999999MA1101901999999MW1101REMMET056METAR EDOP 030450Z 27005KT 2400 BR BKN003 M03/M03 Q1019;
0131101624999992011010305204+53417+011783FM-15+0051EDOP V0209999V001510009019N0024001N1-00301-00301999999ADDGA1071+000901999GF107991999999999999999999MA1101901999999MW1101REMMET056METAR EDOP 030520Z VRB03KT 2400 BR BKN003 M03/M03 Q1019;
0131101624999992011010305504+53417+011783FM-15+0051EDOP V0202601N002610012019N0025001N1-00301-00301999999ADDGA1071+001201999GF107991999999999999999999MA1101901999999MW1101REMMET056METAR EDOP 030550Z 26005KT 2500 BR BKN004 M03/M03 Q1019;
0139101624999992011010306504+53417+011783FM-15+0051EDOP V0202701N002610012019N0035001N1-00301-00401999999ADDGA1071+001201999GF107991999999999999999999MA1101901999999MW1101REMMET064METAR EDOP 030650Z 27005KT 240V320 3500 BR BKN004 M03/M04 Q1019;
0139101624999992011010307204+53417+011783FM-15+0051EDOP V0202601N003110009019N0042001N1-00401-00401999999ADDGA1071+000901999GF107991999999999999999999MA1102001999999MW1101REMMET064METAR EDOP 030720Z 26006KT 240V330 4200 BR BKN003 M04/M04 Q1020;
0131101624999992011010307504+53417+011783FM-15+0051EDOP V0203001N002610009019N0042001N1-00401-00401999999ADDGA1071+000901999GF107991999999999999999999MA1102001999999MW1101REMMET056METAR EDOP 030750Z 30005KT 4200 BR BKN003 M04/M04 Q1020;
0139101624999992011010308204+53417+011783FM-15+0051EDOP V0202701N002610009019N0045001N1-00401-00401999999ADDGA1071+000901999GF107991999999999999999999MA1102001999999MW1101REMMET064METAR EDOP 030820Z 27005KT 240V300 4500 BR BKN003 M04/M04 Q1020;
0139101624999992011010308504+53417+011783FM-15+0051EDOP V0202701N002610009019N0045001N1-00401-00401999999ADDGA1071+000901999GF107991999999999999999999MA1102001999999MW1101REMMET064METAR EDOP 030850Z 27005KT 240V300 4500 BR BKN003 M04/M04 Q1020;
0131101624999992011010309204+53417+011783FM-15+0051EDOP V0202801N002610009019N0045001N1-00401-00401999999ADDGA1071+000901999GF107991999999999999999999MA1102001999999MW1101REMMET056METAR EDOP 030920Z 28005KT 4500 BR BKN003 M04/M04 Q1020;
0139101624999992011010309504+53417+011783FM-15+0051EDOP V0202801N002610009019N0042001N1-00401-00401999999ADDGA1071+000901999GF107991999999999999999999MA1102001999999MW1101REMMET064METAR EDOP 030950Z 28005KT 240V300 4200 BR BKN003 M04/M04 Q1020;
0131101624999992011010310204+53417+011783FM-15+0051EDOP V0202701N003110009019N0045001N1-00401-00401999999ADDGA1071+000901999GF107991999999999999999999MA1102001999999MW1101REMMET056METAR EDOP 031020Z 27006KT 4500 BR BKN003 M04/M04 Q1020;
0131101624999992011010310504+53417+011783FM-15+0051EDOP V0202601N002610009019N0045001N1-00301-00401999999ADDGA1071+000901999GF107991999999999999999999MA1102001999999MW1101REMMET056METAR EDOP 031050Z 26005KT 4500 BR BKN003 M03/M04 Q1020;
0131101624999992011010311204+53417+011783FM-15+0051EDOP V0202401N003610009019N0045001N1-00301-00301999999ADDGA1071+000901999GF107991999999999999999999MA1102001999999MW1101REMMET056METAR EDOP 031120Z 24007KT 4500 BR BKN003 M03/M03 Q1020;
0131101624999992011010311504+53417+011783FM-15+0051EDOP V0202701N003110012019N0045001N1-00301-00401999999ADDGA1071+001201999GF107991999999999999999999MA1102001999999MW1101REMMET056METAR EDOP 031150Z 27006KT 4500 BR BKN004 M03/M04 Q1020;
0131101624999992011010312204+53417+011783FM-15+0051EDOP V0202401N003610012019N0045001N1-00301-00301999999ADDGA1071+001201999GF107991999999999999999999MA1102001999999MW1101REMMET056METAR EDOP 031220Z 24007KT 4500 BR BKN004 M03/M03 Q1020;
0131101624999992011010312504+53417+011783FM-15+0051EDOP V0202301N004110012019N0045001N1-00301-00301999999ADDGA1071+001201999GF107991999999999999999999MA1102001999999MW1101REMMET056METAR EDOP 031250Z 23008KT 4500 BR BKN004 M03/M03 Q1020;
0130101624999992011010313204+53417+011783FM-15+0051EDOP V0202401N003610015019N0060001N1-00301-00301999999ADDGA1071+001501999GF107991999999999999999999MA1102001999999REMMET061METAR EDOP 031320Z 24007KT 220V280 6000 BKN005 M03/M03 Q1020;
0122101624999992011010313504+53417+011783FM-15+0051EDOP V0202401N003110015019N0060001N1-00301-00301999999ADDGA1071+001501999GF107991999999999999999999MA1102001999999REMMET053METAR EDOP 031350Z 24006KT 6000 BKN005 M03/M03 Q1020;
0122101624999992011010314204+53417+011783FM-15+0051EDOP V0202401N003110018019N0080001N1-00301-00301999999ADDGA1071+001801999GF107991999999999999999999MA1102001999999REMMET053METAR EDOP 031420Z 24006KT 8000 BKN006 M03/M03 Q1020;
0131101624999992011010314504+53417+011783FM-15+0051EDOP V0202301N001512200019N0045001N1-00301-00401999999ADDGA1041+001801999GF104991999999999999999999MA1102001999999MW1101REMMET056METAR EDOP 031450Z 23003KT 4500 BR SCT006 M03/M04 Q1020;
0131101624999992011010315204+53417+011783FM-15+0051EDOP V0202101N001012200019N0045001N1-00401-00401999999ADDGA1041+003001999GF104991999999999999999999MA1102001999999MW1101REMMET056METAR EDOP 031520Z 21002KT 4500 BR SCT010 M04/M04 Q1020;
0122101624999992011010315504+53417+011783FM-15+0051EDOP V0202101N001010030019N0060001N1-00401-00401999999ADDGA1071+003001999GF107991999999999999999999MA1102001999999REMMET053METAR EDOP 031550Z 21002KT 6000 BKN010 M04/M04 Q1020;
0122101624999992011010316204+53417+011783FM-15+0051EDOP V0202601N001510042019N0060001N1-00301-00301999999ADDGA1071+004201999GF107991999999999999999999MA1101901999999REMMET053METAR EDOP 031620Z 26003KT 6000 BKN014 M03/M03 Q1019;
0131101624999992011010404204+53417+011783FM-15+0051EDOP V0202401N004110009019N0045001N1+00001+00001999999ADDGA1071+000901999GF107991999999999999999999MA1101691999999MW1101REMMET056METAR EDOP 040420Z 24008KT 4500 BR BKN003 M00/M00 Q1017;
0131101624999992011010404504+53417+011783FM-15+0051EDOP V0202301N004110012019N0045001N1+00001+00001999999ADDGA1071+001201999GF107991999999999999999999MA1101691999999MW1101REMMET056METAR EDOP 040450Z 23008KT 4500 BR BKN004 M00/M00 Q1017;
0130101624999992011010405204+53417+011783FM-15+0051EDOP V0202401N004110012019N0042001N1+00001+00001999999ADDGA1071+001201999GF107991999999999999999999MA1101591999999MW1101REMMET055METAR EDOP 040520Z 24008KT 4200 BR BKN004 00/M00 Q1016;
0130101624999992011010405504+53417+011783FM-15+0051EDOP V0202401N004110021019N0045001N1+00001+00001999999ADDGA1071+002101999GF107991999999999999999999MA1101591999999MW1101REMMET055METAR EDOP 040550Z 24008KT 4500 BR BKN007 00/M00 Q1016;
0130101624999992011010406204+53417+011783FM-15+0051EDOP V0202401N004110018019N0040001N1+00001+00001999999ADDGA1071+001801999GF107991999999999999999999MA1101591999999MW1101REMMET055METAR EDOP 040620Z 24008KT 4000 BR BKN006 00/M00 Q1016;
0130101624999992011010406504+53417+011783FM-15+0051EDOP V0202301N004110021019N0038001N1+00001+00001999999ADDGA1071+002101999GF107991999999999999999999MA1101591999999MW1101REMMET055METAR EDOP 040650Z 23008KT 3800 BR BKN007 00/M00 Q1016;
0130101624999992011010407204+53417+011783FM-15+0051EDOP V0202301N004610009019N0045001N1+00001-00101999999ADDGA1071+000901999GF107991999999999999999999MA1101591999999MW1101REMMET055METAR EDOP 040720Z 23009KT 4500 BR BKN003 00/M01 Q1016;
0130101624999992011010407504+53417+011783FM-15+0051EDOP V0202301N004610009019N0042001N1+00001-00101999999ADDGA1071+000901999GF107991999999999999999999MA1101691999999MW1101REMMET055METAR EDOP 040750Z 23009KT 4200 BR BKN003 00/M01 Q1017;
0130101624999992011010408204+53417+011783FM-15+0051EDOP V0202301N004610021019N0045001N1+00001-00101999999ADDGA1071+002101999GF107991999999999999999999MA1101691999999MW1101REMMET055METAR EDOP 040820Z 23009KT 4500 BR BKN007 00/M01 Q1017;
0130101624999992011010408504+53417+011783FM-15+0051EDOP V0202301N003610024019N0038001N1+00001-00101999999ADDGA1071+002401999GF107991999999999999999999MA1101691999999MW1101REMMET055METAR EDOP 040850Z 23007KT 3800 BR BKN008 00/M01 Q1017;
0130101624999992011010409204+53417+011783FM-15+0051EDOP V0202301N003610021019N0045001N1+00001-00101999999ADDGA1071+002101999GF107991999999999999999999MA1101691999999MW1101REMMET055METAR EDOP 040920Z 23007KT 4500 BR BKN007 00/M01 Q1017;
0130101624999992011010409504+53417+011783FM-15+0051EDOP V0202201N003110018019N0045001N1+00001-00101999999ADDGA1071+001801999GF107991999999999999999999MA1101691999999MW1101REMMET055METAR EDOP 040950Z 22006KT 4500 BR BKN006 00/M01 Q1017;
0130101624999992011010410204+53417+011783FM-15+0051EDOP V0202201N003610018019N0045001N1+00101-00101999999ADDGA1071+001801999GF107991999999999999999999MA1101691999999MW1101REMMET055METAR EDOP 041020Z 22007KT 4500 BR BKN006 01/M01 Q1017;
0130101624999992011010410504+53417+011783FM-15+0051EDOP V0202201N003610018019N0045001N1+00101-00101999999ADDGA1071+001801999GF107991999999999999999999MA1101591999999MW1101REMMET055METAR EDOP 041050Z 22007KT 4500 BR BKN006 01/M01 Q1016;
0130101624999992011010411204+53417+011783FM-15+0051EDOP V0202201N004110021019N0047001N1+00101-00101999999ADDGA1071+002101999GF107991999999999999999999MA1101591999999MW1101REMMET055METAR EDOP 041120Z 22008KT 4700 BR BKN007 01/M01 Q1016;
0130101624999992011010411504+53417+011783FM-15+0051EDOP V0202101N003610021019N0048001N1+00101-00101999999ADDGA1071+002101999GF107991999999999999999999MA1101591999999MW1101REMMET055METAR EDOP 041150Z 21007KT 4800 BR BKN007 01/M01 Q1016;
0130101624999992011010412204+53417+011783FM-15+0051EDOP V0202201N004610024019N0050001N1+00101-00101999999ADDGA1071+002401999GF107991999999999999999999MA1101591999999MW1101REMMET055METAR EDOP 041220Z 22009KT 5000 BR BKN008 01/M01 Q1016;
0121101624999992011010412504+53417+011783FM-15+0051EDOP V0202101N004110024019N0060001N1+00101-00101999999ADDGA1071+002401999GF107991999999999999999999MA1101591999999REMMET052METAR EDOP 041250Z 21008KT 6000 BKN008 01/M01 Q1016;
0121101624999992011010413204+53417+011783FM-15+0051EDOP V0202201N003610027019N0060001N1+00101-00101999999ADDGA1071+002701999GF107991999999999999999999MA1101591999999REMMET052METAR EDOP 041320Z 22007KT 6000 BKN009 01/M01 Q1016;
0121101624999992011010413504+53417+011783FM-15+0051EDOP V0202201N004110030019N0070001N1+00101-00101999999ADDGA1071+003001999GF107991999999999999999999MA1101591999999REMMET052METAR EDOP 041350Z 22008KT 7000 BKN010 01/M01 Q1016;
0121101624999992011010414204+53417+011783FM-15+0051EDOP V0202201N004610033019N0060001N1+00101-00101999999ADDGA1071+003301999GF107991999999999999999999MA1101591999999REMMET052METAR EDOP 041420Z 22009KT 6000 BKN011 01/M01 Q1016;
0121101624999992011010414504+53417+011783FM-15+0051EDOP V0202101N004110033019N0060001N1+00101-00101999999ADDGA1071+003301999GF107991999999999999999999MA1101591999999REMMET052METAR EDOP 041450Z 21008KT 6000 BKN011 01/M01 Q1016;
0130101624999992011010415204+53417+011783FM-15+0051EDOP V0202001N003610042019N0050001N1+00001-00201999999ADDGA1071+004201999GF107991999999999999999999MA1101591999999MW1101REMMET055METAR EDOP 041520Z 20007KT 5000 BR BKN014 00/M02 Q1016;
0153101624999992011010415504+53417+011783FM-15+0051EDOP V0201801N003112200019N0045001N1+00001-00201999999ADDGA1041+004201999GA2041+018001999GF104991999999999999999999MA1101591999999MW1101REMMET062METAR EDOP 041550Z 18006KT 4500 BR SCT014 SCT060 00/M02 Q1016;
0153101624999992011010416504+53417+011783FM-15+0051EDOP V0201801N004110180019N0045001N1+00001-00201999999ADDGA1021+004501999GA2071+018001999GF107991999999999999999999MA1101491999999MW1101REMMET062METAR EDOP 041650Z 18008KT 4500 BR FEW015 BKN060 00/M02 Q1015;
0074101624999992011010504204+53417+011783FM-15+0051EDOP V0201801N003619999999Y0099001N1-00501-00701999999ADDMA1101391999999REMMET047METAR EDOP 050420Z 18007KT CAVOK M05/M07 Q1014;
0074101624999992011010504504+53417+011783FM-15+0051EDOP V0201801N003119999999Y0099001N1-00501-00701999999ADDMA1101391999999REMMET047METAR EDOP 050450Z 18006KT CAVOK M05/M07 Q1014;
0074101624999992011010505204+53417+011783FM-15+0051EDOP V0201801N003119999999Y0099001N1-00501-00701999999ADDMA1101391999999REMMET047METAR EDOP 050520Z 18006KT CAVOK M05/M07 Q1014;
0074101624999992011010505504+53417+011783FM-15+0051EDOP V0201801N004119999999Y0099001N1-00501-00701999999ADDMA1101391999999REMMET047METAR EDOP 050550Z 18008KT CAVOK M05/M07 Q1014;
0122101624999992011010506504+53417+011783FM-15+0051EDOP V0201701N004612200019N0070001N1-00601-00701999999ADDGF100991999999999999999999MA1101391999999REMMET050METAR EDOP 050650Z 17009KT 7000 NSC M06/M07 Q1014;EQDQ01    003SCCGA1
0130101624999992011010507204+53417+011783FM-15+0051EDOP V0201701N003612200019N0060001N1-00601-00801999999ADDGF100991999999999999999999MA1101391999999REMMET058METAR EDOP 050720Z 17007KT 140V200 6000 NSC M06/M08 Q1014;EQDQ01    003SCCGA1
0130101624999992011010507504+53417+011783FM-15+0051EDOP V0201601N003112200019N0060001N1-00601-00801999999ADDGF100991999999999999999999MA1101391999999REMMET058METAR EDOP 050750Z 16006KT 130V190 6000 NSC M06/M08 Q1014;EQDQ01    003SCCGA1
0130101624999992011010508204+53417+011783FM-15+0051EDOP V0201501N003112200019N0070001N1-00601-00801999999ADDGF100991999999999999999999MA1101391999999REMMET058METAR EDOP 050820Z 15006KT 110V170 7000 NSC M06/M08 Q1014;EQDQ01    003SCCGA1
0122101624999992011010508504+53417+011783FM-15+0051EDOP V0201401N003612200019N0080001N1-00501-00701999999ADDGF100991999999999999999999MA1101391999999REMMET050METAR EDOP 050850Z 14007KT 8000 NSC M05/M07 Q1014;EQDQ01    003SCCGA1
0130101624999992011010509204+53417+011783FM-15+0051EDOP V0201501N003112200019N0090001N1-00501-00701999999ADDGF100991999999999999999999MA1101391999999REMMET058METAR EDOP 050920Z 15006KT 120V180 9000 NSC M05/M07 Q1014;EQDQ01    003SCCGA1
0122101624999992011010509504+53417+011783FM-15+0051EDOP V0201501N004112200019N0090001N1-00501-00701999999ADDGF100991999999999999999999MA1101391999999REMMET050METAR EDOP 050950Z 15008KT 9000 NSC M05/M07 Q1014;EQDQ01    003SCCGA1
0130101624999992011010510204+53417+011783FM-15+0051EDOP V0201701N002112200019N0080001N1-00401-00701999999ADDGF100991999999999999999999MA1101291999999REMMET058METAR EDOP 051020Z 17004KT 140V210 8000 NSC M04/M07 Q1013;EQDQ01    003SCCGA1
0122101624999992011010510504+53417+011783FM-15+0051EDOP V0201701N002612200019N0090001N1-00301-00601999999ADDGF100991999999999999999999MA1101291999999REMMET050METAR EDOP 051050Z 17005KT 9000 NSC M03/M06 Q1013;EQDQ01    003SCCGA1
0130101624999992011010511204+53417+011783FM-15+0051EDOP V0201801N003112200019N0080001N1-00301-00701999999ADDGF100991999999999999999999MA1101291999999REMMET058METAR EDOP 051120Z 18006KT 140V210 8000 NSC M03/M07 Q1013;EQDQ01    003SCCGA1
0122101624999992011010511504+53417+011783FM-15+0051EDOP V0201701N004612200019N0090001N1-00301-00701999999ADDGF100991999999999999999999MA1101291999999REMMET050METAR EDOP 051150Z 17009KT 9000 NSC M03/M07 Q1013;EQDQ01    003SCCGA1
0082101624999992011010512204+53417+011783FM-15+0051EDOP V0201701N004119999999Y0099001N1-00301-00701999999ADDMA1101191999999REMMET055METAR EDOP 051220Z 17008KT 140V200 CAVOK M03/M07 Q1012;
0082101624999992011010512504+53417+011783FM-15+0051EDOP V0201801N004119999999Y0099001N1-00301-00701999999ADDMA1101191999999REMMET055METAR EDOP 051250Z 18008KT 120V200 CAVOK M03/M07 Q1012;
0082101624999992011010513204+53417+011783FM-15+0051EDOP V0201601N003619999999Y0099001N1-00401-00801999999ADDMA1101191999999REMMET055METAR EDOP 051320Z 16007KT 130V200 CAVOK M04/M08 Q1012;
0082101624999992011010513504+53417+011783FM-15+0051EDOP V0201701N003619999999Y0099001N1-00401-00801999999ADDMA1101191999999REMMET055METAR EDOP 051350Z 17007KT 140V200 CAVOK M04/M08 Q1012;
0074101624999992011010514204+53417+011783FM-15+0051EDOP V0201701N003119999999Y0099001N1-00501-00801999999ADDMA1101191999999REMMET047METAR EDOP 051420Z 17006KT CAVOK M05/M08 Q1012;
0074101624999992011010514504+53417+011783FM-15+0051EDOP V0201501N004119999999Y0099001N1-00501-00901999999ADDMA1101081999999REMMET047METAR EDOP 051450Z 15008KT CAVOK M05/M09 Q1011;
0074101624999992011010515204+53417+011783FM-15+0051EDOP V0201601N004119999999Y0099001N1-00501-00901999999ADDMA1101081999999REMMET047METAR EDOP 051520Z 16008KT CAVOK M05/M09 Q1011;
0082101624999992011010515504+53417+011783FM-15+0051EDOP V0201601N003119999999Y0099001N1-00601-00901999999ADDMA1101081999999REMMET055METAR EDOP 051550Z 16006KT 130V190 CAVOK M06/M09 Q1011;
0074101624999992011010516204+53417+011783FM-15+0051EDOP V0201301N003619999999Y0099001N1-00601-00901999999ADDMA1101081999999REMMET047METAR EDOP 051620Z 13007KT CAVOK M06/M09 Q1011;
0082101624999992011010516504+53417+011783FM-15+0051EDOP V0201301N003119999999Y0099001N1-00601-00901999999ADDMA1101021999999REMMET055METAR EDOP 051650Z 13006KT 080V160 CAVOK M06/M09 Q1010;
0153101624999992011010604204+53417+011783FM-15+0051EDOP V0201601N006710096019N0090001N1-00201-00501999999ADDGA1021+003001999GA2071+009601999GF107991999999999999999999MA1099801999999REMMET068METAR EDOP 060420Z 16013KT 130V190 9000 FEW010 BKN032 M02/M05 Q0998;
0145101624999992011010604504+53417+011783FM-15+0051EDOP V0201601N006710084019N0112651N1-00201-00501999999ADDGA1021+006001999GA2071+008401999GF107991999999999999999999MA1099701999999REMMET060METAR EDOP 060450Z 16013KT 9999 FEW020 BKN028 M02/M05 Q0997;
0122101624999992011010605204+53417+011783FM-15+0051EDOP V0201701N007710072019N0090001N1-00101-00501999999ADDGA1071+007201999GF107991999999999999999999MA1099701999999REMMET053METAR EDOP 060520Z 17015KT 9000 BKN024 M01/M05 Q0997;
0134101624999992011010605504+53417+011783FM-15+0051EDOP V0201701N007710075019N0090001N1-00101-00401999999ADDGA1071+007501999GF107991999999999999999999MA1099701999999MW1661REMMET059METAR EDOP 060550Z 17015KT 9000 -FZRA BKN025 M01/M04 Q0997;
0134101624999992011010606204+53417+011783FM-15+0051EDOP V0201701N007210072019N0080001N1-00101-00301999999ADDGA1071+007201999GF107991999999999999999999MA1099701999999MW1661REMMET059METAR EDOP 060620Z 17014KT 8000 -FZRA BKN024 M01/M03 Q0997;
0134101624999992011010606504+53417+011783FM-15+0051EDOP V0201701N007210066019N0070001N1+00001-00301999999ADDGA1071+006601999GF107991999999999999999999MA1099701999999MW1661REMMET059METAR EDOP 060650Z 17014KT 7000 -FZRA BKN022 M00/M03 Q0997;
0134101624999992011010607204+53417+011783FM-15+0051EDOP V0201701N006710066019N0070001N1+00001-00201999999ADDGA1071+006601999GF107991999999999999999999MA1099701999999MW1661REMMET059METAR EDOP 060720Z 17013KT 7000 -FZRA BKN022 M00/M02 Q0997;
0139101624999992011010607504+53417+011783FM-15+0051EDOP V0201701N006210063019N0030001N1+00001-00201999999ADDGA1071+006301999GF107991999999999999999999MA1099701999999MW1631MW2731REMMET058METAR EDOP 060750Z 17012KT 3000 SNRA BKN021 M00/M02 Q0997;
0162101624999992011010608204+53417+011783FM-15+0051EDOP V0201701N006710060019N0022001N1+00001-00101999999ADDGA1041+002101999GA2071+006001999GF107991999999999999999999MA1099701999999MW1631MW2731REMMET065METAR EDOP 060820Z 17013KT 2200 SNRA SCT007 BKN020 M00/M01 Q0997;
0131101624999992011010608504+53417+011783FM-15+0051EDOP V0201801N006210018019N0023001N1+00001-00101999999ADDGA1071+001801999GF107991999999999999999999MA1099701999999MW1711REMMET056METAR EDOP 060850Z 18012KT 2300 -SN BKN006 00/M01 Q0997;
0130101624999992011010609204+53417+011783FM-15+0051EDOP V0201801N005710015019N0040001N1+00001+00001999999ADDGA1071+001501999GF107991999999999999999999MA1099701999999MW1711REMMET055METAR EDOP 060920Z 18011KT 4000 -SN BKN005 00/00 Q0997;
0130101624999992011010609504+53417+011783FM-15+0051EDOP V0201801N006210015019N0030001N1+00101+00001999999ADDGA1071+001501999GF107991999999999999999999MA1099701999999MW1711REMMET055METAR EDOP 060950Z 18012KT 3000 -SN BKN005 01/00 Q0997;
0139101624999992011010610204+53417+011783FM-15+0051EDOP V0201801N005110015019N0035001N1+00101+00101999999ADDGA1071+001501999GF107991999999999999999999MA1099701999999MW1101MW2611REMMET058METAR EDOP 061020Z 18010KT 3500 -RA BR BKN005 01/01 Q0997;
0147101624999992011010610504+53417+011783FM-15+0051EDOP V0201901N005110015019N0038001N1+00101+00101999999ADDGA1071+001501999GF107991999999999999999999MA1099701999999MW1101MW2611REMMET066METAR EDOP 061050Z 19010KT 150V210 3800 -RA BR BKN005 01/01 Q0997;
0129101624999992011010611204+53417+011783FM-15+0051EDOP V0201901N005110015019N0040001N1+00101+00101999999ADDGA1071+001501999GF107991999999999999999999MA1099701999999MW1101REMMET054METAR EDOP 061120Z 19010KT 4000 BR BKN005 01/01 Q0997;
0129101624999992011010611504+53417+011783FM-15+0051EDOP V0202001N004610015019N0040001N1+00101+00101999999ADDGA1071+001501999GF107991999999999999999999MA1099801999999MW1101REMMET054METAR EDOP 061150Z 20009KT 4000 BR BKN005 01/01 Q0998;
0137101624999992011010612204+53417+011783FM-15+0051EDOP V0202001N004610015019N0040001N1+00201+00101999999ADDGA1071+001501999GF107991999999999999999999MA1099801999999MW1101REMMET062METAR EDOP 061220Z 20009KT 170V230 4000 BR BKN005 02/01 Q0998;
0129101624999992011010612504+53417+011783FM-15+0051EDOP V0201801N004110015019N0040001N1+00201+00101999999ADDGA1071+001501999GF107991999999999999999999MA1099801999999MW1101REMMET054METAR EDOP 061250Z 18008KT 4000 BR BKN005 02/01 Q0998;
0137101624999992011010613204+53417+011783FM-15+0051EDOP V0201901N003610015019N0042001N1+00201+00101999999ADDGA1071+001501999GF107991999999999999999999MA1099801999999MW1101REMMET062METAR EDOP 061320Z 19007KT 150V220 4200 BR BKN005 02/01 Q0998;
0137101624999992011010613504+53417+011783FM-15+0051EDOP V0201801N003110015019N0039001N1+00201+00101999999ADDGA1071+001501999GF107991999999999999999999MA1099801999999MW1101REMMET062METAR EDOP 061350Z 18006KT 140V200 3900 BR BKN005 02/01 Q0998;
0129101624999992011010614204+53417+011783FM-15+0051EDOP V0201701N004610015019N0043001N1+00201+00101999999ADDGA1071+001501999GF107991999999999999999999MA1099801999999MW1101REMMET054METAR EDOP 061420Z 17009KT 4300 BR BKN005 02/01 Q0998;
0129101624999992011010614504+53417+011783FM-15+0051EDOP V0201901N003610021019N0046001N1+00201+00101999999ADDGA1071+002101999GF107991999999999999999999MA1099801999999MW1101REMMET054METAR EDOP 061450Z 19007KT 4600 BR BKN007 02/01 Q0998;
0129101624999992011010615204+53417+011783FM-15+0051EDOP V0201701N004610024019N0045001N1+00201+00201999999ADDGA1071+002401999GF107991999999999999999999MA1099801999999MW1101REMMET054METAR EDOP 061520Z 17009KT 4500 BR BKN008 02/02 Q0998;
0129101624999992011010615504+53417+011783FM-15+0051EDOP V0201701N003610024019N0035001N1+00201+00201999999ADDGA1071+002401999GF107991999999999999999999MA1099801999999MW1101REMMET054METAR EDOP 061550Z 17007KT 3500 BR BKN008 02/02 Q0998;
0139101624999992011010616204+53417+011783FM-15+0051EDOP V0201601N003110027019N0038001N1+00201+00201999999ADDGA1071+002701999GF107991999999999999999999MA1099801999999MW1101MW2511REMMET058METAR EDOP 061620Z 16006KT 3800 -DZ BR BKN009 02/02 Q0998;
0162101624999992011010616504+53417+011783FM-15+0051EDOP V0201501N003110030019N0040001N1+00201+00201999999ADDGA1021+001501999GA2071+003001999GF107991999999999999999999MA1099701999999MW1101MW2611REMMET065METAR EDOP 061650Z 15006KT 4000 -RA BR FEW005 BKN010 02/02 Q0997;
0120101624999992011010704204+53417+011783FM-15+0051EDOP V0202701N003610015019N0070001N1+00101+00101999999ADDGA1071+001501999GF107991999999999999999999MA1100311999999REMMET051METAR EDOP 070420Z 27007KT 7000 BKN005 01/01 Q1003;
0120101624999992011010704504+53417+011783FM-15+0051EDOP V0202701N004110015019N0080001N1+00201+00201999999ADDGA1071+001501999GF107991999999999999999999MA1100411999999REMMET051METAR EDOP 070450Z 27008KT 8000 BKN005 02/02 Q1004;
0120101624999992011010705204+53417+011783FM-15+0051EDOP V0202801N004110018019N0080001N1+00201+00101999999ADDGA1071+001801999GF107991999999999999999999MA1100511999999REMMET051METAR EDOP 070520Z 28008KT 8000 BKN006 02/01 Q1005;
0120101624999992011010705504+53417+011783FM-15+0051EDOP V0202901N004110030019N0080001N1+00201+00101999999ADDGA1071+003001999GF107991999999999999999999MA1100511999999REMMET051METAR EDOP 070550Z 29008KT 8000 BKN010 02/01 Q1005;
0120101624999992011010706504+53417+011783FM-15+0051EDOP V0202501N004110018019N0070001N1+00101+00101999999ADDGA1071+001801999GF107991999999999999999999MA1100711999999REMMET051METAR EDOP 070650Z 25008KT 7000 BKN006 01/01 Q1007;
0120101624999992011010707204+53417+011783FM-15+0051EDOP V0202501N004610018019N0050001N1+00101+00101999999ADDGA1071+001801999GF107991999999999999999999MA1100811999999REMMET051METAR EDOP 070720Z 25009KT 5000 BKN006 01/01 Q1008;
0120101624999992011010707504+53417+011783FM-15+0051EDOP V0202401N004110015019N0050001N1+00201+00101999999ADDGA1071+001501999GF107991999999999999999999MA1100811999999REMMET051METAR EDOP 070750Z 24008KT 5000 BKN005 02/01 Q1008;
0129101624999992011010708204+53417+011783FM-15+0051EDOP V0202401N004110015019N0045001N1+00201+00101999999ADDGA1081+001501999GF108991999999999999999999MA1100911999999MW1101REMMET054METAR EDOP 070820Z 24008KT 4500 BR OVC005 02/01 Q1009;
0129101624999992011010708504+53417+011783FM-15+0051EDOP V0202401N003610015019N0045001N1+00101+00101999999ADDGA1071+001501999GF107991999999999999999999MA1100911999999MW1101REMMET054METAR EDOP 070850Z 24007KT 4500 BR BKN005 01/01 Q1009;
0129101624999992011010709204+53417+011783FM-15+0051EDOP V0202301N004110018019N0045001N1+00201+00101999999ADDGA1071+001801999GF107991999999999999999999MA1101021999999MW1101REMMET054METAR EDOP 070920Z 23008KT 4500 BR BKN006 02/01 Q1010;
0120101624999992011010709504+53417+011783FM-15+0051EDOP V0202301N003610018019N0050001N1+00201+00201999999ADDGA1071+001801999GF107991999999999999999999MA1101021999999REMMET051METAR EDOP 070950Z 23007KT 5000 BKN006 02/02 Q1010;
0120101624999992011010710204+53417+011783FM-15+0051EDOP V0202401N003110018019N0060001N1+00201+00101999999ADDGA1071+001801999GF107991999999999999999999MA1101081999999REMMET051METAR EDOP 071020Z 24006KT 6000 BKN006 02/01 Q1011;
0120101624999992011010710504+53417+011783FM-15+0051EDOP V0202401N003110024019N0080001N1+00201+00101999999ADDGA1071+002401999GF107991999999999999999999MA1101081999999REMMET051METAR EDOP 071050Z 24006KT 8000 BKN008 02/01 Q1011;
0120101624999992011010711204+53417+011783FM-15+0051EDOP V0209999V001510024019N0080001N1+00201+00101999999ADDGA1071+002401999GF107991999999999999999999MA1101081999999REMMET051METAR EDOP 071120Z VRB03KT 8000 BKN008 02/01 Q1011;
0120101624999992011010711504+53417+011783FM-15+0051EDOP V0209999V001510024019N0080001N1+00201+00101999999ADDGA1071+002401999GF107991999999999999999999MA1101081999999REMMET051METAR EDOP 071150Z VRB03KT 8000 BKN008 02/01 Q1011;
0120101624999992011010712204+53417+011783FM-15+0051EDOP V0209999V001510024019N0112651N1+00201+00101999999ADDGA1071+002401999GF107991999999999999999999MA1101021999999REMMET051METAR EDOP 071220Z VRB03KT 9999 BKN008 02/01 Q1010;
0120101624999992011010712504+53417+011783FM-15+0051EDOP V0201801N002110024019N0112651N1+00201+00101999999ADDGA1071+002401999GF107991999999999999999999MA1101081999999REMMET051METAR EDOP 071250Z 18004KT 9999 BKN008 02/01 Q1011;
0120101624999992011010713204+53417+011783FM-15+0051EDOP V0201401N002610024019N0112651N1+00201+00101999999ADDGA1071+002401999GF107991999999999999999999MA1101021999999REMMET051METAR EDOP 071320Z 14005KT 9999 BKN008 02/01 Q1010;
0128101624999992011010713504+53417+011783FM-15+0051EDOP V0201201N002110021019N0112651N1+00201+00101999999ADDGA1071+002101999GF107991999999999999999999MA1101021999999REMMET059METAR EDOP 071350Z 12004KT 080V150 9999 BKN007 02/01 Q1010;
0120101624999992011010714204+53417+011783FM-15+0051EDOP V0201101N002610021019N0112651N1+00201+00101999999ADDGA1071+002101999GF107991999999999999999999MA1101021999999REMMET051METAR EDOP 071420Z 11005KT 9999 BKN007 02/01 Q1010;
0128101624999992011010714504+53417+011783FM-15+0051EDOP V0201201N002610021019N0112651N1+00101+00001999999ADDGA1071+002101999GF107991999999999999999999MA1101021999999REMMET059METAR EDOP 071450Z 12005KT 090V150 9999 BKN007 01/00 Q1010;
0120101624999992011010715204+53417+011783FM-15+0051EDOP V0201301N003110024019N0112651N1+00101+00101999999ADDGA1071+002401999GF107991999999999999999999MA1101021999999REMMET051METAR EDOP 071520Z 13006KT 9999 BKN008 01/01 Q1010;
0120101624999992011010715504+53417+011783FM-15+0051EDOP V0201101N003110024019N0112651N1+00101+00101999999ADDGA1071+002401999GF107991999999999999999999MA1101021999999REMMET051METAR EDOP 071550Z 11006KT 9999 BKN008 01/01 Q1010;
0130101624999992011010716204+53417+011783FM-15+0051EDOP V0201101N003610018019N0070001N1+00101+00101999999ADDGA1071+001801999GF107991999999999999999999MA1100911999999MW1511REMMET055METAR EDOP 071620Z 11007KT 7000 -DZ BKN006 01/01 Q1009;
0130101624999992011010716504+53417+011783FM-15+0051EDOP V0201001N003610015019N0060001N1+00101+00101999999ADDGA1071+001501999GF107991999999999999999999MA1100911999999MW1511REMMET055METAR EDOP 071650Z 10007KT 6000 -DZ BKN005 01/01 Q1009;
0139101624999992011010717204+53417+011783FM-15+0051EDOP V0200901N003610012019N0045001N1+00101+00101999999ADDGA1071+001201999GF107991999999999999999999MA1100911999999MW1101MW2511REMMET058METAR EDOP 071720Z 09007KT 4500 -DZ BR BKN004 01/01 Q1009;
0151101624999992011010804204+53417+011783FM-15+0051EDOP V0201501N002612200019N0060001N1+00501+00501999999ADDGA1021+001201999GA2041+007201999GF104991999999999999999999MA1100511999999REMMET066METAR EDOP 080420Z 15005KT 100V180 6000 FEW004 SCT024 05/05 Q1005;
0143101624999992011010804504+53417+011783FM-15+0051EDOP V0201801N003610066019N0060001N1+00401+00401999999ADDGA1021+001201999GA2071+006601999GF107991999999999999999999MA1100511999999REMMET058METAR EDOP 080450Z 18007KT 6000 FEW004 BKN022 04/04 Q1005;
0143101624999992011010805204+53417+011783FM-15+0051EDOP V0201701N003112200019N0060001N1+00401+00401999999ADDGA1021+001201999GA2041+006601999GF104991999999999999999999MA1100511999999REMMET058METAR EDOP 080520Z 17006KT 6000 FEW004 SCT022 04/04 Q1005;
0128101624999992011010805504+53417+011783FM-15+0051EDOP V0201601N003612200019N0060001N1+00501+00401999999ADDGA1021+006601999GF102991999999999999999999MA1100511999999REMMET059METAR EDOP 080550Z 16007KT 130V190 6000 FEW022 05/04 Q1005;
0128101624999992011010806204+53417+011783FM-15+0051EDOP V0201601N003112200019N0060001N1+00401+00401999999ADDGA1021+007501999GF102991999999999999999999MA1100511999999REMMET059METAR EDOP 080620Z 16006KT 130V190 6000 FEW025 04/04 Q1005;
0128101624999992011010806504+53417+011783FM-15+0051EDOP V0201401N003112200019N0050001N1+00501+00501999999ADDGA1021+012001999GF102991999999999999999999MA1100511999999REMMET059METAR EDOP 080650Z 14006KT 110V170 5000 FEW040 05/05 Q1005;
0120101624999992011010807504+53417+011783FM-15+0051EDOP V0201601N003612200019N0050001N1+00501+00401999999ADDGF100991999999999999999999MA1100511999999REMMET048METAR EDOP 080750Z 16007KT 5000 NSC 05/04 Q1005;EQDQ01    003SCCGA1
0120101624999992011010808204+53417+011783FM-15+0051EDOP V0201601N003612200019N0060001N1+00501+00501999999ADDGF100991999999999999999999MA1100511999999REMMET048METAR EDOP 080820Z 16007KT 6000 NSC 05/05 Q1005;EQDQ01    003SCCGA1
0128101624999992011010808504+53417+011783FM-15+0051EDOP V0201701N003112200019N0060001N1+00501+00501999999ADDGA1041+014101999GF104991999999999999999999MA1100511999999REMMET059METAR EDOP 080850Z 17006KT 140V210 6000 SCT047 05/05 Q1005;
0120101624999992011010809204+53417+011783FM-15+0051EDOP V0201601N005112200019N0060001N1+00601+00501999999ADDGF100991999999999999999999MA1100511999999REMMET048METAR EDOP 080920Z 16010KT 6000 NSC 06/05 Q1005;EQDQ01    003SCCGA1
0143101624999992011010809504+53417+011783FM-15+0051EDOP V0201701N006212200019N0060001N1+00501+00501999999ADDGA1021+003001999GA2041+014701999GF104991999999999999999999MA1100511999999REMMET058METAR EDOP 080950Z 17012KT 6000 FEW010 SCT049 05/05 Q1005;
0143101624999992011010810204+53417+011783FM-15+0051EDOP V0201701N005112200019N0060001N1+00601+00601999999ADDGA1021+003001999GA2041+009001999GF104991999999999999999999MA1100411999999REMMET058METAR EDOP 081020Z 17010KT 6000 FEW010 SCT030 06/06 Q1004;
0120101624999992011010810504+53417+011783FM-15+0051EDOP V0201701N005712200019N0060001N1+00601+00601999999ADDGA1041+012001999GF104991999999999999999999MA1100411999999REMMET051METAR EDOP 081050Z 17011KT 6000 SCT040 06/06 Q1004;
0120101624999992011010811204+53417+011783FM-15+0051EDOP V0201701N005712200019N0070001N1+00601+00601999999ADDGF100991999999999999999999MA1100311999999REMMET048METAR EDOP 081120Z 17011KT 7000 NSC 06/06 Q1003;EQDQ01    003SCCGA1
0120101624999992011010811504+53417+011783FM-15+0051EDOP V0201701N006212200019N0080001N1+00701+00601999999ADDGF100991999999999999999999MA1100311999999REMMET048METAR EDOP 081150Z 17012KT 8000 NSC 07/06 Q1003;EQDQ01    003SCCGA1
0120101624999992011010812204+53417+011783FM-15+0051EDOP V0201701N006212200019N0080001N1+00701+00601999999ADDGF100991999999999999999999MA1100311999999REMMET048METAR EDOP 081220Z 17012KT 8000 NSC 07/06 Q1003;EQDQ01    003SCCGA1
0072101624999992011010812504+53417+011783FM-15+0051EDOP V0201801N006719999999Y0099001N1+00801+00601999999ADDMA1100201999999REMMET045METAR EDOP 081250Z 18013KT CAVOK 08/06 Q1002;
0072101624999992011010813204+53417+011783FM-15+0051EDOP V0201701N007219999999Y0099001N1+00801+00701999999ADDMA1100201999999REMMET045METAR EDOP 081320Z 17014KT CAVOK 08/07 Q1002;
0072101624999992011010813504+53417+011783FM-15+0051EDOP V0201701N006719999999Y0099001N1+00701+00601999999ADDMA1100201999999REMMET045METAR EDOP 081350Z 17013KT CAVOK 07/06 Q1002;
0072101624999992011010814204+53417+011783FM-15+0051EDOP V0201701N006719999999Y0099001N1+00801+00601999999ADDMA1100201999999REMMET045METAR EDOP 081420Z 17013KT CAVOK 08/06 Q1002;
0072101624999992011010814504+53417+011783FM-15+0051EDOP V0201801N006719999999Y0099001N1+00701+00601999999ADDMA1100201999999REMMET045METAR EDOP 081450Z 18013KT CAVOK 07/06 Q1002;
0072101624999992011010815504+53417+011783FM-15+0051EDOP V0201801N007719999999Y0099001N1+00801+00501999999ADDMA1100201999999REMMET045METAR EDOP 081550Z 18015KT CAVOK 08/05 Q1002;
0072101624999992011010816204+53417+011783FM-15+0051EDOP V0201801N007719999999Y0099001N1+00801+00501999999ADDMA1100201999999REMMET045METAR EDOP 081620Z 18015KT CAVOK 08/05 Q1002;
0072101624999992011010816504+53417+011783FM-15+0051EDOP V0201801N007719999999Y0099001N1+00801+00501999999ADDMA1100201999999REMMET045METAR EDOP 081650Z 18015KT CAVOK 08/05 Q1002;
0153101624999992011010906204+53417+011783FM-15+0051EDOP V0202001N004110120019N0040001N1+00701+00601999999ADDGA1041+001501999GA2071+012001999GF107991999999999999999999MA1100311999999MW1611REMMET062METAR EDOP 090620Z 20008KT 4000 -RA SCT005 BKN040 07/06 Q1003;
0161101624999992011010906504+53417+011783FM-15+0051EDOP V0202001N004610090019N0040001N1+00701+00601999999ADDGA1021+001501999GA2071+009001999GF107991999999999999999999MA1100411999999MW1611REMMET070METAR EDOP 090650Z 20009KT 170V230 4000 -RA FEW005 BKN030 07/06 Q1004;
0130101624999992011010907504+53417+011783FM-15+0051EDOP V0202201N005710042019N0060001N1+00701+00601999999ADDGA1071+004201999GF107991999999999999999999MA1100411999999MW1611REMMET055METAR EDOP 090750Z 22011KT 6000 -RA BKN014 07/06 Q1004;
0130101624999992011010908204+53417+011783FM-15+0051EDOP V0202201N005110027019N0060001N1+00601+00601999999ADDGA1071+002701999GF107991999999999999999999MA1100511999999MW1611REMMET055METAR EDOP 090820Z 22010KT 6000 -RA BKN009 06/06 Q1005;
0130101624999992011010908504+53417+011783FM-15+0051EDOP V0202801N004110015019N0045001N1+00501+00501999999ADDGA1071+001501999GF107991999999999999999999MA1100511999999MW1611REMMET055METAR EDOP 090850Z 28008KT 4500 -RA BKN005 05/05 Q1005;
0153101624999992011010909204+53417+011783FM-15+0051EDOP V0202801N006210060019N0060001N1+00501+00401999999ADDGA1041+001501999GA2071+006001999GF107991999999999999999999MA1100611999999MW1611REMMET062METAR EDOP 090920Z 28012KT 6000 -RA SCT005 BKN020 05/04 Q1006;
0153101624999992011010909504+53417+011783FM-15+0051EDOP V0202601N004610114019N0090001N1+00401+00301999999ADDGA1021+004801999GA2071+011401999GF107991999999999999999999MA1100611999999MW1511REMMET062METAR EDOP 090950Z 26009KT 9000 -DZ FEW016 BKN038 04/03 Q1006;
0143101624999992011010910204+53417+011783FM-15+0051EDOP V0202401N004110078019N0112651N1+00401+00301999999ADDGA1021+004501999GA2071+007801999GF107991999999999999999999MA1100711999999REMMET058METAR EDOP 091020Z 24008KT 9999 FEW015 BKN026 04/03 Q1007;
0143101624999992011010910504+53417+011783FM-15+0051EDOP V0202401N004110150019N0090001N1+00501+00401999999ADDGA1021+007801999GA2071+015001999GF107991999999999999999999MA1100711999999REMMET058METAR EDOP 091050Z 24008KT 9000 FEW026 BKN057 05/04 Q1007;
0143101624999992011010911204+53417+011783FM-15+0051EDOP V0202501N006212200019N0090001N1+00501+00301999999ADDGA1041+004501999GA2041+018001999GF104991999999999999999999MA1100711999999REMMET058METAR EDOP 091120Z 25012KT 9000 SCT015 SCT062 05/03 Q1007;
0120101624999992011010911504+53417+011783FM-15+0051EDOP V0202401N006210045019N0090001N1+00501+00301999999ADDGA1071+004501999GF107991999999999999999999MA1100811999999REMMET051METAR EDOP 091150Z 24012KT 9000 BKN015 05/03 Q1008;
0120101624999992011010912504+53417+011783FM-15+0051EDOP V0202201N004612200019N0112651N1+00401+00301999999ADDGA1041+004501999GF104991999999999999999999MA1100811999999REMMET051METAR EDOP 091250Z 22009KT 9999 SCT015 04/03 Q1008;
0120101624999992011010913204+53417+011783FM-15+0051EDOP V0202201N004112200019N0090001N1+00501+00301999999ADDGA1021+004501999GF102991999999999999999999MA1100811999999REMMET051METAR EDOP 091320Z 22008KT 9000 FEW015 05/03 Q1008;
0143101624999992011010913504+53417+011783FM-15+0051EDOP V0202301N005712200019N0112651N1+00401+00301999999ADDGA1021+003001999GA2041+004501999GF104991999999999999999999MA1100811999999REMMET058METAR EDOP 091350Z 23011KT 9999 FEW010 SCT015 04/03 Q1008;
0120101624999992011010914204+53417+011783FM-15+0051EDOP V0202301N005712200019N0112651N1+00401+00301999999ADDGA1041+004501999GF104991999999999999999999MA1100911999999REMMET051METAR EDOP 091420Z 23011KT 9999 SCT015 04/03 Q1009;
0143101624999992011010914504+53417+011783FM-15+0051EDOP V0202301N005110075019N0112651N1+00401+00201999999ADDGA1021+004501999GA2071+007501999GF107991999999999999999999MA1100911999999REMMET058METAR EDOP 091450Z 23010KT 9999 FEW015 BKN025 04/02 Q1009;
0120101624999992011010915504+53417+011783FM-15+0051EDOP V0202301N004612200019N0112651N1+00301+00201999999ADDGA1021+006001999GF102991999999999999999999MA1101021999999REMMET051METAR EDOP 091550Z 23009KT 9999 FEW020 03/02 Q1010;
0120101624999992011010916204+53417+011783FM-15+0051EDOP V0202401N003612200019N0112651N1+00301+00101999999ADDGA1041+009001999GF104991999999999999999999MA1101081999999REMMET051METAR EDOP 091620Z 24007KT 9999 SCT030 03/01 Q1011;
0120101624999992011010916504+53417+011783FM-15+0051EDOP V0202401N004612200019N0112651N1+00301+00101999999ADDGA1041+007501999GF104991999999999999999999MA1101081999999REMMET051METAR EDOP 091650Z 24009KT 9999 SCT025 03/01 Q1011;
0074101624999992011011004204+53417+011783FM-15+0051EDOP V0202501N003119999999Y0099001N1+00001-00201999999ADDMA1101801999999REMMET047METAR EDOP 100420Z 25006KT CAVOK M00/M02 Q1018;
0073101624999992011011004504+53417+011783FM-15+0051EDOP V0202401N003119999999Y0099001N1+00101-00101999999ADDMA1101901999999REMMET046METAR EDOP 100450Z 24006KT CAVOK 01/M01 Q1019;
0121101624999992011011005204+53417+011783FM-15+0051EDOP V0202401N004112200019N0112651N1+00101-00101999999ADDGA1021+004801999GF102991999999999999999999MA1101901999999REMMET052METAR EDOP 100520Z 24008KT 9999 FEW016 01/M01 Q1019;
0121101624999992011011005504+53417+011783FM-15+0051EDOP V0202401N004112200019N0112651N1+00101-00101999999ADDGA1021+003901999GF102991999999999999999999MA1101901999999REMMET052METAR EDOP 100550Z 24008KT 9999 FEW013 01/M01 Q1019;
0121101624999992011011006504+53417+011783FM-15+0051EDOP V0202201N003612200019N0112651N1+00101+00001999999ADDGA1041+003001999GF104991999999999999999999MA1102001999999REMMET052METAR EDOP 100650Z 22007KT 9999 SCT010 01/M00 Q1020;
0121101624999992011011007204+53417+011783FM-15+0051EDOP V0202301N005110024019N0090001N1+00101-00101999999ADDGA1071+002401999GF107991999999999999999999MA1102101999999REMMET052METAR EDOP 100720Z 23010KT 9000 BKN008 01/M01 Q1021;
0121101624999992011011007504+53417+011783FM-15+0051EDOP V0202101N005110021019N0070001N1+00101+00001999999ADDGA1071+002101999GF107991999999999999999999MA1102101999999REMMET052METAR EDOP 100750Z 21010KT 7000 BKN007 01/M00 Q1021;
0121101624999992011011008204+53417+011783FM-15+0051EDOP V0202201N004610018019N0060001N1+00101+00001999999ADDGA1071+001801999GF107991999999999999999999MA1102101999999REMMET052METAR EDOP 100820Z 22009KT 6000 BKN006 01/M00 Q1021;
0121101624999992011011008504+53417+011783FM-15+0051EDOP V0202301N004610015019N0050001N1+00101+00001999999ADDGA1071+001501999GF107991999999999999999999MA1102201999999REMMET052METAR EDOP 100850Z 23009KT 5000 BKN005 01/M00 Q1022;
0129101624999992011011009204+53417+011783FM-15+0051EDOP V0202301N004110015019N0045001N1+00101+00001999999ADDGA1071+001501999GF107991999999999999999999MA1102201999999MW1101REMMET054METAR EDOP 100920Z 23008KT 4500 BR BKN005 01/00 Q1022;
0129101624999992011011009504+53417+011783FM-15+0051EDOP V0202301N005110015019N0045001N1+00101+00001999999ADDGA1071+001501999GF107991999999999999999999MA1102201999999MW1101REMMET054METAR EDOP 100950Z 23010KT 4500 BR BKN005 01/00 Q1022;
0129101624999992011011010204+53417+011783FM-15+0051EDOP V0202301N005110015019N0045001N1+00101+00101999999ADDGA1071+001501999GF107991999999999999999999MA1102201999999MW1101REMMET054METAR EDOP 101020Z 23010KT 4500 BR BKN005 01/01 Q1022;
0129101624999992011011010504+53417+011783FM-15+0051EDOP V0202401N005110015019N0045001N1+00101+00101999999ADDGA1071+001501999GF107991999999999999999999MA1102201999999MW1101REMMET054METAR EDOP 101050Z 24010KT 4500 BR BKN005 01/01 Q1022;
0129101624999992011011011204+53417+011783FM-15+0051EDOP V0202401N005110015019N0045001N1+00201+00101999999ADDGA1071+001501999GF107991999999999999999999MA1102201999999MW1101REMMET054METAR EDOP 101120Z 24010KT 4500 BR BKN005 02/01 Q1022;
0129101624999992011011011504+53417+011783FM-15+0051EDOP V0202501N003610018019N0048001N1+00201+00101999999ADDGA1071+001801999GF107991999999999999999999MA1102201999999MW1101REMMET054METAR EDOP 101150Z 25007KT 4800 BR BKN006 02/01 Q1022;
0120101624999992011011012204+53417+011783FM-15+0051EDOP V0202301N004610021019N0060001N1+00201+00101999999ADDGA1071+002101999GF107991999999999999999999MA1102201999999REMMET051METAR EDOP 101220Z 23009KT 6000 BKN007 02/01 Q1022;
0120101624999992011011012504+53417+011783FM-15+0051EDOP V0202301N003110021019N0060001N1+00201+00101999999ADDGA1071+002101999GF107991999999999999999999MA1102201999999REMMET051METAR EDOP 101250Z 23006KT 6000 BKN007 02/01 Q1022;
0120101624999992011011013204+53417+011783FM-15+0051EDOP V0202201N002610024019N0070001N1+00201+00101999999ADDGA1071+002401999GF107991999999999999999999MA1102201999999REMMET051METAR EDOP 101320Z 22005KT 7000 BKN008 02/01 Q1022;
0120101624999992011011013504+53417+011783FM-15+0051EDOP V0202101N002610030019N0112651N1+00201+00101999999ADDGA1071+003001999GF107991999999999999999999MA1102101999999REMMET051METAR EDOP 101350Z 21005KT 9999 BKN010 02/01 Q1021;
0128101624999992011011014204+53417+011783FM-15+0051EDOP V0202001N002610036019N0112651N1+00201+00001999999ADDGA1071+003601999GF107991999999999999999999MA1102201999999REMMET059METAR EDOP 101420Z 20005KT 170V230 9999 BKN012 02/00 Q1022;
0120101624999992011011014504+53417+011783FM-15+0051EDOP V0201501N002112200019N0112651N1+00201+00001999999ADDGA1041+003601999GF104991999999999999999999MA1102201999999REMMET051METAR EDOP 101450Z 15004KT 9999 SCT012 02/00 Q1022;
0121101624999992011011015204+53417+011783FM-15+0051EDOP V0201501N002112200019N0112651N1+00101+00001999999ADDGA1021+004501999GF102991999999999999999999MA1102201999999REMMET052METAR EDOP 101520Z 15004KT 9999 FEW015 01/M00 Q1022;
0122101624999992011011015504+53417+011783FM-15+0051EDOP V0201601N002112200019N0112651N1+00001-00101999999ADDGA1021+004501999GF102991999999999999999999MA1102201999999REMMET053METAR EDOP 101550Z 16004KT 9999 FEW015 M00/M01 Q1022;
0072101624999992011011016204+53417+011783FM-15+0051EDOP V0201401N002619999999Y0099001N1+00001+00001999999ADDMA1102101999999REMMET045METAR EDOP 101620Z 14005KT CAVOK 00/00 Q1021;
0073101624999992011011016504+53417+011783FM-15+0051EDOP V0201601N003119999999Y0099001N1+00101-00101999999ADDMA1102101999999REMMET046METAR EDOP 101650Z 16006KT CAVOK 01/M01 Q1021;
0074101624999992011011104204+53417+011783FM-15+0051EDOP V0201201N003119999999Y0099001N1-00301-00401999999ADDMA1101491999999REMMET047METAR EDOP 110420Z 12006KT CAVOK M03/M04 Q1015;
0074101624999992011011104504+53417+011783FM-15+0051EDOP V0201201N003119999999Y0099001N1-00401-00401999999ADDMA1101391999999REMMET047METAR EDOP 110450Z 12006KT CAVOK M04/M04 Q1014;
0074101624999992011011105204+53417+011783FM-15+0051EDOP V0201201N003619999999Y0099001N1-00301-00401999999ADDMA1101291999999REMMET047METAR EDOP 110520Z 12007KT CAVOK M03/M04 Q1013;
0074101624999992011011105504+53417+011783FM-15+0051EDOP V0201101N003619999999Y0099001N1-00401-00401999999ADDMA1101291999999REMMET047METAR EDOP 110550Z 11007KT CAVOK M04/M04 Q1013;
0122101624999992011011106504+53417+011783FM-15+0051EDOP V0201101N003612200019N0060001N1-00301-00401999999ADDGF100991999999999999999999MA1101191999999REMMET050METAR EDOP 110650Z 11007KT 6000 NSC M03/M04 Q1012;EQDQ01    003SCCGA1
0131101624999992011011107204+53417+011783FM-15+0051EDOP V0201101N003612200019N0040001N1-00401-00401999999ADDGA1021+001501999GF102991999999999999999999MA1101191999999MW1101REMMET056METAR EDOP 110720Z 11007KT 4000 BR FEW005 M04/M04 Q1012;
0131101624999992011011107504+53417+011783FM-15+0051EDOP V0200901N003612200019N0042001N1-00401-00501999999ADDGA1021+001501999GF102991999999999999999999MA1101191999999MW1101REMMET056METAR EDOP 110750Z 09007KT 4200 BR FEW005 M04/M05 Q1012;
0131101624999992011011108204+53417+011783FM-15+0051EDOP V0200901N002612200019N0040001N1-00401-00401999999ADDGA1021+001501999GF102991999999999999999999MA1101081999999MW1101REMMET056METAR EDOP 110820Z 09005KT 4000 BR FEW005 M04/M04 Q1011;
0139101624999992011011108504+53417+011783FM-15+0051EDOP V0201001N002112200019N0042001N1-00301-00301999999ADDGA1021+001801999GF102991999999999999999999MA1101081999999MW1101REMMET064METAR EDOP 110850Z 10004KT 070V140 4200 BR FEW006 M03/M03 Q1011;
0139101624999992011011109204+53417+011783FM-15+0051EDOP V0201001N002112200019N0045001N1-00101-00201999999ADDGA1021+002101999GF102991999999999999999999MA1101081999999MW1101REMMET064METAR EDOP 110920Z 10004KT 070V150 4500 BR FEW007 M01/M02 Q1011;
0162101624999992011011109504+53417+011783FM-15+0051EDOP V0201201N002110048019N0045001N1+00001-00201999999ADDGA1041+002401999GA2071+004801999GF107991999999999999999999MA1101081999999MW1101REMMET071METAR EDOP 110950Z 12004KT 080V190 4500 BR SCT008 BKN016 M00/M02 Q1011;
0138101624999992011011110204+53417+011783FM-15+0051EDOP V0201701N003610024019N0045001N1+00001-00101999999ADDGA1071+002401999GF107991999999999999999999MA1101021999999MW1101REMMET063METAR EDOP 111020Z 17007KT 130V200 4500 BR BKN008 00/M01 Q1010;
0129101624999992011011110504+53417+011783FM-15+0051EDOP V0201701N003110027019N0050001N1+00001-00101999999ADDGA1071+002701999GF107991999999999999999999MA1101021999999REMMET060METAR EDOP 111050Z 17006KT 130V200 5000 BKN009 00/M01 Q1010;
0121101624999992011011111204+53417+011783FM-15+0051EDOP V0201801N003110024019N0060001N1+00001-00101999999ADDGA1071+002401999GF107991999999999999999999MA1100911999999REMMET052METAR EDOP 111120Z 18006KT 6000 BKN008 00/M01 Q1009;
0129101624999992011011111504+53417+011783FM-15+0051EDOP V0201701N002610027019N0060001N1+00001-00101999999ADDGA1071+002701999GF107991999999999999999999MA1100911999999REMMET060METAR EDOP 111150Z 17005KT 140V200 6000 BKN009 00/M01 Q1009;
0129101624999992011011112204+53417+011783FM-15+0051EDOP V0201701N002110024019N0060001N1+00101-00101999999ADDGA1071+002401999GF107991999999999999999999MA1100811999999REMMET060METAR EDOP 111220Z 17004KT 130V210 6000 BKN008 01/M01 Q1008;
0138101624999992011011112504+53417+011783FM-15+0051EDOP V0201501N002610024019N0045001N1+00101-00101999999ADDGA1071+002401999GF107991999999999999999999MA1100811999999MW1101REMMET063METAR EDOP 111250Z 15005KT 130V190 4500 BR BKN008 01/M01 Q1008;
0121101624999992011011113204+53417+011783FM-15+0051EDOP V0201501N003110027019N0060001N1+00101+00001999999ADDGA1071+002701999GF107991999999999999999999MA1100711999999REMMET052METAR EDOP 111320Z 15006KT 6000 BKN009 01/M00 Q1007;
0152101624999992011011113504+53417+011783FM-15+0051EDOP V0201501N003610060019N0060001N1+00101+00001999999ADDGA1041+003001999GA2071+006001999GF107991999999999999999999MA1100711999999REMMET067METAR EDOP 111350Z 15007KT 120V180 6000 SCT010 BKN020 01/M00 Q1007;
0144101624999992011011114204+53417+011783FM-15+0051EDOP V0201601N003610054019N0060001N1+00201+00001999999ADDGA1021+003601999GA2071+005401999GF107991999999999999999999MA1100611999999REMMET059METAR EDOP 111420Z 16007KT 6000 FEW012 BKN018 02/M00 Q1006;
0144101624999992011011114504+53417+011783FM-15+0051EDOP V0201601N003110048019N0060001N1+00201+00001999999ADDGA1041+003001999GA2071+004801999GF107991999999999999999999MA1100611999999REMMET059METAR EDOP 111450Z 16006KT 6000 SCT010 BKN016 02/M00 Q1006;
0121101624999992011011115204+53417+011783FM-15+0051EDOP V0201601N004610045019N0060001N1+00201+00001999999ADDGA1071+004501999GF107991999999999999999999MA1100611999999REMMET052METAR EDOP 111520Z 16009KT 6000 BKN015 02/M00 Q1006;
0121101624999992011011115504+53417+011783FM-15+0051EDOP V0201701N004610045019N0080001N1+00201+00001999999ADDGA1071+004501999GF107991999999999999999999MA1100611999999REMMET052METAR EDOP 111550Z 17009KT 8000 BKN015 02/M00 Q1006;
0120101624999992011011204204+53417+011783FM-15+0051EDOP V0202601N005710030019N0112651N1+00301+00301999999ADDGA1071+003001999GF107991999999999999999999MA1100811999999REMMET051METAR EDOP 120420Z 26011KT 9999 BKN010 03/03 Q1008;
0120101624999992011011204504+53417+011783FM-15+0051EDOP V0202701N006710030019N0112651N1+00301+00101999999ADDGA1071+003001999GF107991999999999999999999MA1100811999999REMMET051METAR EDOP 120450Z 27013KT 9999 BKN010 03/01 Q1008;
0120101624999992011011205204+53417+011783FM-15+0051EDOP V0202701N005710042019N0112651N1+00201+00101999999ADDGA1071+004201999GF107991999999999999999999MA1100911999999REMMET051METAR EDOP 120520Z 27011KT 9999 BKN014 02/01 Q1009;
0120101624999992011011205504+53417+011783FM-15+0051EDOP V0202701N006210054019N0112651N1+00201+00101999999ADDGA1071+005401999GF107991999999999999999999MA1100911999999REMMET051METAR EDOP 120550Z 27012KT 9999 BKN018 02/01 Q1009;
0120101624999992011011206504+53417+011783FM-15+0051EDOP V0202601N005710090019N0112651N1+00201+00001999999ADDGA1071+009001999GF107991999999999999999999MA1101021999999REMMET051METAR EDOP 120650Z 26011KT 9999 BKN030 02/00 Q1010;
0143101624999992011011207204+53417+011783FM-15+0051EDOP V0202601N004610099019N0112651N1+00201+00001999999ADDGA1021+005101999GA2071+009901999GF107991999999999999999999MA1101081999999REMMET058METAR EDOP 120720Z 26009KT 9999 FEW017 BKN033 02/00 Q1011;
0143101624999992011011207504+53417+011783FM-15+0051EDOP V0202601N005710090019N0112651N1+00201+00101999999ADDGA1021+005401999GA2071+009001999GF107991999999999999999999MA1101081999999REMMET058METAR EDOP 120750Z 26011KT 9999 FEW018 BKN030 02/01 Q1011;
0143101624999992011011208204+53417+011783FM-15+0051EDOP V0202601N005710090019N0112651N1+00301+00101999999ADDGA1041+004201999GA2071+009001999GF107991999999999999999999MA1101081999999REMMET058METAR EDOP 120820Z 26011KT 9999 SCT014 BKN030 03/01 Q1011;
0143101624999992011011208504+53417+011783FM-15+0051EDOP V0202501N006710099019N0112651N1+00301+00101999999ADDGA1041+003601999GA2071+009901999GF107991999999999999999999MA1101191999999REMMET058METAR EDOP 120850Z 25013KT 9999 SCT012 BKN033 03/01 Q1012;
0143101624999992011011209204+53417+011783FM-15+0051EDOP V0202601N007710105019N0112651N1+00301+00101999999ADDGA1041+004201999GA2071+010501999GF107991999999999999999999MA1101191999999REMMET058METAR EDOP 120920Z 26015KT 9999 SCT014 BKN035 03/01 Q1012;
0120101624999992011011209504+53417+011783FM-15+0051EDOP V0202501N007210096019N0112651N1+00301+00101999999ADDGA1071+009601999GF107991999999999999999999MA1101191999999REMMET051METAR EDOP 120950Z 25014KT 9999 BKN032 03/01 Q1012;
0143101624999992011011210204+53417+011783FM-15+0051EDOP V0202601N006710099019N0112651N1+00401+00101999999ADDGA1021+004501999GA2071+009901999GF107991999999999999999999MA1101191999999REMMET058METAR EDOP 121020Z 26013KT 9999 FEW015 BKN033 04/01 Q1012;
0120101624999992011011210504+53417+011783FM-15+0051EDOP V0202601N008710042019N0112651N1+00401+00101999999ADDGA1071+004201999GF107991999999999999999999MA1101191999999REMMET051METAR EDOP 121050Z 26017KT 9999 BKN014 04/01 Q1012;
0120101624999992011011211204+53417+011783FM-15+0051EDOP V0202501N007210036019N0112651N1+00401+00101999999ADDGA1071+003601999GF107991999999999999999999MA1101191999999REMMET051METAR EDOP 121120Z 25014KT 9999 BKN012 04/01 Q1012;
0120101624999992011011211504+53417+011783FM-15+0051EDOP V0202501N007710036019N0112651N1+00401+00101999999ADDGA1071+003601999GF107991999999999999999999MA1101191999999REMMET051METAR EDOP 121150Z 25015KT 9999 BKN012 04/01 Q1012;
0120101624999992011011212204+53417+011783FM-15+0051EDOP V0202501N007710039019N0112651N1+00401+00101999999ADDGA1071+003901999GF107991999999999999999999MA1101191999999REMMET051METAR EDOP 121220Z 25015KT 9999 BKN013 04/01 Q1012;
0120101624999992011011212504+53417+011783FM-15+0051EDOP V0202501N007710042019N0112651N1+00301+00101999999ADDGA1071+004201999GF107991999999999999999999MA1101191999999REMMET051METAR EDOP 121250Z 25015KT 9999 BKN014 03/01 Q1012;
0120101624999992011011213204+53417+011783FM-15+0051EDOP V0202601N006710042019N0112651N1+00301+00101999999ADDGA1071+004201999GF107991999999999999999999MA1101191999999REMMET051METAR EDOP 121320Z 26013KT 9999 BKN014 03/01 Q1012;
0120101624999992011011213504+53417+011783FM-15+0051EDOP V0202401N005110042019N0112651N1+00301+00101999999ADDGA1071+004201999GF107991999999999999999999MA1101191999999REMMET051METAR EDOP 121350Z 24010KT 9999 BKN014 03/01 Q1012;
0143101624999992011011214204+53417+011783FM-15+0051EDOP V0202501N004110270019N0112651N1+00301+00101999999ADDGA1041+004201999GA2071+027001999GF107991999999999999999999MA1101191999999REMMET058METAR EDOP 121420Z 25008KT 9999 SCT014 BKN090 03/01 Q1012;
0143101624999992011011214504+53417+011783FM-15+0051EDOP V0202401N004110210019N0112651N1+00301+00101999999ADDGA1021+004201999GA2071+021001999GF107991999999999999999999MA1101191999999REMMET058METAR EDOP 121450Z 24008KT 9999 FEW014 BKN078 03/01 Q1012;
0143101624999992011011215204+53417+011783FM-15+0051EDOP V0202301N004610150019N0112651N1+00301+00001999999ADDGA1021+004201999GA2071+015001999GF107991999999999999999999MA1101191999999REMMET058METAR EDOP 121520Z 23009KT 9999 FEW014 BKN052 03/00 Q1012;
0072101624999992011011215504+53417+011783FM-15+0051EDOP V0202401N003619999999Y0099001N1+00301+00001999999ADDMA1101191999999REMMET045METAR EDOP 121550Z 24007KT CAVOK 03/00 Q1012;
0072101624999992011011216204+53417+011783FM-15+0051EDOP V0202401N003619999999Y0099001N1+00201+00001999999ADDMA1101191999999REMMET045METAR EDOP 121620Z 24007KT CAVOK 02/00 Q1012;
0072101624999992011011216504+53417+011783FM-15+0051EDOP V0202201N004119999999Y0099001N1+00301+00001999999ADDMA1101081999999REMMET045METAR EDOP 121650Z 22008KT CAVOK 03/00 Q1011;
0139101624999992011011304204+53417+011783FM-15+0051EDOP V0202601N000510006019N0020001N1+00201+00201999999ADDGA1081+000601999GF108991999999999999999999MA1100711999999MW1101MW2511REMMET058METAR EDOP 130420Z 26001KT 2000 -DZ BR OVC002 02/02 Q1007;
0160101624999992011011304504+53417+011783FM-15+0051EDOP V0202301N001010006019N0011001N1+00301+00201999999ADDED124U10009GA1081+000601999GF108991999999999999999999MA1100711999999MW1101MW2511REMMET068METAR EDOP 130450Z 23002KT 1100 R24/1000N -DZ BR OVC002 03/02 Q1007;
0160101624999992011011305204+53417+011783FM-15+0051EDOP V0209999V000510006019N0012001N1+00301+00201999999ADDED124U09009GA1081+000601999GF108991999999999999999999MA1100711999999MW1101MW2511REMMET068METAR EDOP 130520Z VRB01KT 1200 R24/0900N -DZ BR OVC002 03/02 Q1007;
0150101624999992011011306204+53417+011783FM-15+0051EDOP V0202401N001510006019N0009001N1+00301+00201999999ADDED124U08009GA1081+000601999GF108991999999999999999999MA1100811999999MW1441REMMET064METAR EDOP 130620Z 24003KT 0900 R24/0800N FG OVC002 03/02 Q1008;
0150101624999992011011306504+53417+011783FM-15+0051EDOP V0202401N002610006019N0007001N1+00301+00301999999ADDED124U06509GA1081+000601999GF108991999999999999999999MA1100811999999MW1441REMMET064METAR EDOP 130650Z 24005KT 0700 R24/0650N FG OVC002 03/03 Q1008;
0150101624999992011011307204+53417+011783FM-15+0051EDOP V0202701N002110006019N0008001N1+00301+00301999999ADDED124U07509GA1081+000601999GF108991999999999999999999MA1100811999999MW1441REMMET064METAR EDOP 130720Z 27004KT 0800 R24/0750N FG OVC002 03/03 Q1008;
0150101624999992011011307504+53417+011783FM-15+0051EDOP V0209999V001010003019N0007001N1+00301+00301999999ADDED124U07009GA1081+000301999GF108991999999999999999999MA1100911999999MW1441REMMET064METAR EDOP 130750Z VRB02KT 0700 R24/0700N FG OVC001 03/03 Q1009;
0150101624999992011011308204+53417+011783FM-15+0051EDOP V0202401N000510003019N0005001N1+00301+00301999999ADDED124U04509GA1081+000301999GF108991999999999999999999MA1100911999999MW1441REMMET064METAR EDOP 130820Z 24001KT 0500 R24/0450N FG OVC001 03/03 Q1009;
0150101624999992011011308504+53417+011783FM-15+0051EDOP V0209999C000010003019N0005001N1+00301+00301999999ADDED124U05509GA1081+000301999GF108991999999999999999999MA1100911999999MW1441REMMET064METAR EDOP 130850Z 00000KT 0500 R24/0550N FG OVC001 03/03 Q1009;
0150101624999992011011309204+53417+011783FM-15+0051EDOP V0202101N001010003019N0009001N1+00301+00301999999ADDED124U09009GA1081+000301999GF108991999999999999999999MA1100911999999MW1441REMMET064METAR EDOP 130920Z 21002KT 0900 R24/0900N FG OVC001 03/03 Q1009;
0155101624999992011011309504+53417+011783FM-15+0051EDOP V0209999V000510006019N0009001N1+00301+00301999999ADDED124U08009GA1081+000601999GF108991999999999999999999MA1100911999999MW1441REMMET069METAR EDOP 130950Z VRB01KT 0900 R24/0800V1100D FG OVC002 03/03 Q1009;
0150101624999992011011310204+53417+011783FM-15+0051EDOP V0209999V001010006019N0009001N1+00401+00301999999ADDED124U11009GA1071+000601999GF107991999999999999999999MA1100911999999MW1441REMMET064METAR EDOP 131020Z VRB02KT 0900 R24/1100N FG BKN002 04/03 Q1009;
0173101624999992011011310504+53417+011783FM-15+0051EDOP V0201601N001010009019N0009001N1+00401+00301999999ADDED124U12009GA1041+000301999GA2071+000901999GF107991999999999999999999MA1100911999999MW1441REMMET071METAR EDOP 131050Z 16002KT 0900 R24/1200N FG SCT001 BKN003 04/03 Q1009;
0152101624999992011011311204+53417+011783FM-15+0051EDOP V0201601N002110006019N0015001N1+00301+00301999999ADDGA1041+000301999GA2071+000601999GF107991999999999999999999MA1100911999999MW1101REMMET061METAR EDOP 131120Z 16004KT 1500 BR SCT001 BKN002 03/03 Q1009;
0150101624999992011011311504+53417+011783FM-15+0051EDOP V0209999V001510006019N0012001N1+00301+00301999999ADDED124U12009GA1071+000601999GF107991999999999999999999MA1100911999999MW1101REMMET064METAR EDOP 131150Z VRB03KT 1200 R24/1200U BR BKN002 03/03 Q1009;
0152101624999992011011312204+53417+011783FM-15+0051EDOP V0201801N001510024019N0030001N1+00401+00301999999ADDGA1041+000601999GA2071+002401999GF107991999999999999999999MA1100811999999MW1101REMMET061METAR EDOP 131220Z 18003KT 3000 BR SCT002 BKN008 04/03 Q1008;
0152101624999992011011312504+53417+011783FM-15+0051EDOP V0201701N001010027019N0030001N1+00401+00401999999ADDGA1041+000901999GA2071+002701999GF107991999999999999999999MA1100811999999MW1101REMMET061METAR EDOP 131250Z 17002KT 3000 BR SCT003 BKN009 04/04 Q1008;
0152101624999992011011313204+53417+011783FM-15+0051EDOP V0201401N001510015019N0032001N1+00401+00401999999ADDGA1021+000601999GA2071+001501999GF107991999999999999999999MA1100811999999MW1101REMMET061METAR EDOP 131320Z 14003KT 3200 BR FEW002 BKN005 04/04 Q1008;
0152101624999992011011313504+53417+011783FM-15+0051EDOP V0201201N001510024019N0035001N1+00401+00401999999ADDGA1021+000601999GA2071+002401999GF107991999999999999999999MA1100811999999MW1101REMMET061METAR EDOP 131350Z 12003KT 3500 BR FEW002 BKN008 04/04 Q1008;
0152101624999992011011314204+53417+011783FM-15+0051EDOP V0201301N002110180019N0023001N1+00401+00401999999ADDGA1021+000301999GA2071+018001999GF107991999999999999999999MA1100811999999MW1101REMMET061METAR EDOP 131420Z 13004KT 2300 BR FEW001 BKN060 04/04 Q1008;
0129101624999992011011314504+53417+011783FM-15+0051EDOP V0201401N002610006019N0015001N1+00401+00401999999ADDGA1071+000601999GF107991999999999999999999MA1100811999999MW1101REMMET054METAR EDOP 131450Z 14005KT 1500 BR BKN002 04/04 Q1008;
0129101624999992011011315204+53417+011783FM-15+0051EDOP V0201201N003610003019N0015001N1+00401+00301999999ADDGA1071+000301999GF107991999999999999999999MA1100711999999MW1101REMMET054METAR EDOP 131520Z 12007KT 1500 BR BKN001 04/03 Q1007;
0139101624999992011011315504+53417+011783FM-15+0051EDOP V0201201N004110006019N0015001N1+00401+00301999999ADDGA1071+000601999GF107991999999999999999999MA1100711999999MW1101MW2611REMMET058METAR EDOP 131550Z 12008KT 1500 -RA BR BKN002 04/03 Q1007;
0139101624999992011011316204+53417+011783FM-15+0051EDOP V0201301N004110006019N0030001N1+00401+00301999999ADDGA1071+000601999GF107991999999999999999999MA1100711999999MW1101MW2611REMMET058METAR EDOP 131620Z 13008KT 3000 -RA BR BKN002 04/03 Q1007;
0139101624999992011011316504+53417+011783FM-15+0051EDOP V0201301N003610006019N0035001N1+00401+00301999999ADDGA1071+000601999GF107991999999999999999999MA1100611999999MW1101MW2611REMMET058METAR EDOP 131650Z 13007KT 3500 -RA BR BKN002 04/03 Q1006;
0130101624999992011011404204+53417+011783FM-15+0051EDOP V0202601N004610012019N0080001N1+00901+00901999999ADDGA1071+001201999GF107991999999999999999999MA1100711999999MW1511REMMET055METAR EDOP 140420Z 26009KT 8000 -DZ BKN004 09/09 Q1007;
0130101624999992011011404504+53417+011783FM-15+0051EDOP V0202501N003610006019N0060001N1+00801+00801999999ADDGA1071+000601999GF107991999999999999999999MA1100711999999MW1511REMMET055METAR EDOP 140450Z 25007KT 6000 -DZ BKN002 08/08 Q1007;
0130101624999992011011405204+53417+011783FM-15+0051EDOP V0202501N002610006019N0050001N1+00901+00801999999ADDGA1071+000601999GF107991999999999999999999MA1100711999999MW1511REMMET055METAR EDOP 140520Z 25005KT 5000 -DZ BKN002 09/08 Q1007;
0130101624999992011011405504+53417+011783FM-15+0051EDOP V0202401N002110015019N0050001N1+00801+00801999999ADDGA1071+001501999GF107991999999999999999999MA1100711999999MW1511REMMET055METAR EDOP 140550Z 24004KT 5000 -DZ BKN005 08/08 Q1007;
0129101624999992011011406504+53417+011783FM-15+0051EDOP V0202401N003110009019N0030001N1+00901+00901999999ADDGA1071+000901999GF107991999999999999999999MA1100811999999MW1101REMMET054METAR EDOP 140650Z 24006KT 3000 BR BKN003 09/09 Q1008;
0156101624999992011011407204+53417+011783FM-15+0051EDOP V0202201N003610006019N0011001N1+00901+00901999999ADDED124U11009GA1081+000601999GF108991999999999999999999MA1100811999999MW1101REMMET070METAR EDOP 140720Z 22007KT 1100 R24/1100VP1500U BR OVC002 09/09 Q1008;
0151101624999992011011407504+53417+011783FM-15+0051EDOP V0202101N002610006019N0012001N1+00901+00901999999ADDED124U15009GA1071+000601999GF107991999999999999999999MA1100811999999MW1101REMMET065METAR EDOP 140750Z 21005KT 1200 R24/P1500N BR BKN002 09/09 Q1008;
0129101624999992011011408204+53417+011783FM-15+0051EDOP V0202301N004110009019N0015001N1+00901+00901999999ADDGA1071+000901999GF107991999999999999999999MA1100811999999MW1531REMMET054METAR EDOP 140820Z 23008KT 1500 DZ BKN003 09/09 Q1008;
0130101624999992011011408504+53417+011783FM-15+0051EDOP V0202301N004110006019N0015001N1+00901+00901999999ADDGA1071+000601999GF107991999999999999999999MA1100811999999MW1511REMMET055METAR EDOP 140850Z 23008KT 1500 -DZ BKN002 09/09 Q1008;
0130101624999992011011409204+53417+011783FM-15+0051EDOP V0202301N004610009019N0020001N1+00901+00901999999ADDGA1071+000901999GF107991999999999999999999MA1100811999999MW1511REMMET055METAR EDOP 140920Z 23009KT 2000 -DZ BKN003 09/09 Q1008;
0130101624999992011011409504+53417+011783FM-15+0051EDOP V0202301N004110012019N0030001N1+00901+00901999999ADDGA1071+001201999GF107991999999999999999999MA1100811999999MW1511REMMET055METAR EDOP 140950Z 23008KT 3000 -DZ BKN004 09/09 Q1008;
0129101624999992011011410204+53417+011783FM-15+0051EDOP V0202301N004610012019N0030001N1+00901+00901999999ADDGA1071+001201999GF107991999999999999999999MA1100811999999MW1531REMMET054METAR EDOP 141020Z 23009KT 3000 DZ BKN004 09/09 Q1008;
0129101624999992011011410504+53417+011783FM-15+0051EDOP V0202201N004610012019N0030001N1+00901+00901999999ADDGA1071+001201999GF107991999999999999999999MA1100811999999MW1101REMMET054METAR EDOP 141050Z 22009KT 3000 BR BKN004 09/09 Q1008;
0129101624999992011011411204+53417+011783FM-15+0051EDOP V0202301N004110012019N0021001N1+00901+00901999999ADDGA1071+001201999GF107991999999999999999999MA1100711999999MW1101REMMET054METAR EDOP 141120Z 23008KT 2100 BR BKN004 09/09 Q1007;
0138101624999992011011411504+53417+011783FM-15+0051EDOP V0202301N004110012019N0025001N1+01001+00901999999ADDGA1071+001201999GF107991999999999999999999MA1100711999999MW1101MW2631REMMET057METAR EDOP 141150Z 23008KT 2500 RA BR BKN004 10/09 Q1007;
0144101624999992011011412204+53417+011783FM-15+0051EDOP V0202301N004110012019N0035001N1+01001+01001999999ADDGA1071+001201999GF107991999999999999999999MA1100711999999MW1101MW2611REMMET063METAR EDOP 141220Z 23008KT 3500 -RA BR BKN004 10/10 Q1007 RERA;
0139101624999992011011412504+53417+011783FM-15+0051EDOP V0202301N004610012019N0030001N1+01001+01001999999ADDGA1071+001201999GF107991999999999999999999MA1100711999999MW1101MW2611REMMET058METAR EDOP 141250Z 23009KT 3000 -RA BR BKN004 10/10 Q1007;
0139101624999992011011413204+53417+011783FM-15+0051EDOP V0202401N004610012019N0023001N1+01001+01001999999ADDGA1071+001201999GF107991999999999999999999MA1100611999999MW1101MW2611REMMET058METAR EDOP 141320Z 24009KT 2300 -RA BR BKN004 10/10 Q1006;
0139101624999992011011413504+53417+011783FM-15+0051EDOP V0202301N004110012019N0022001N1+01001+01001999999ADDGA1071+001201999GF107991999999999999999999MA1100611999999MW1101MW2611REMMET058METAR EDOP 141350Z 23008KT 2200 -RA BR BKN004 10/10 Q1006;
0139101624999992011011414204+53417+011783FM-15+0051EDOP V0202501N004610015019N0022001N1+01001+01001999999ADDGA1071+001501999GF107991999999999999999999MA1100611999999MW1101MW2611REMMET058METAR EDOP 141420Z 25009KT 2200 -RA BR BKN005 10/10 Q1006;
0139101624999992011011414504+53417+011783FM-15+0051EDOP V0202401N003610009019N0034001N1+01001+01001999999ADDGA1071+000901999GF107991999999999999999999MA1100611999999MW1101MW2611REMMET058METAR EDOP 141450Z 24007KT 3400 -RA BR BKN003 10/10 Q1006;
0139101624999992011011415204+53417+011783FM-15+0051EDOP V0202401N005710015019N0033001N1+01001+01001999999ADDGA1071+001501999GF107991999999999999999999MA1100611999999MW1101MW2611REMMET058METAR EDOP 141520Z 24011KT 3300 -RA BR BKN005 10/10 Q1006;
0139101624999992011011415504+53417+011783FM-15+0051EDOP V0202401N005110009019N0030001N1+01001+01001999999ADDGA1071+000901999GF107991999999999999999999MA1100611999999MW1101MW2611REMMET058METAR EDOP 141550Z 24010KT 3000 -RA BR BKN003 10/10 Q1006;
0139101624999992011011416204+53417+011783FM-15+0051EDOP V0202401N005710012019N0030001N1+01001+01001999999ADDGA1071+001201999GF107991999999999999999999MA1100711999999MW1101MW2611REMMET058METAR EDOP 141620Z 24011KT 3000 -RA BR BKN004 10/10 Q1007;
0139101624999992011011416504+53417+011783FM-15+0051EDOP V0202401N006210012019N0040001N1+01001+01001999999ADDGA1071+001201999GF107991999999999999999999MA1100711999999MW1101MW2511REMMET058METAR EDOP 141650Z 24012KT 4000 -DZ BR BKN004 10/10 Q1007;
0130101624999992011011504204+53417+011783FM-15+0051EDOP V0202501N005710018019N0112651N1+00801+00801999999ADDGA1071+001801999GF107991999999999999999999MA1101081999999MW1611REMMET055METAR EDOP 150420Z 25011KT 9999 -RA BKN006 08/08 Q1011;
0130101624999992011011504504+53417+011783FM-15+0051EDOP V0202601N005710030019N0112651N1+00801+00801999999ADDGA1071+003001999GF107991999999999999999999MA1101191999999MW1611REMMET055METAR EDOP 150450Z 26011KT 9999 -RA BKN010 08/08 Q1012;
0120101624999992011011505204+53417+011783FM-15+0051EDOP V0202601N006210036019N0112651N1+00801+00701999999ADDGA1071+003601999GF107991999999999999999999MA1101191999999REMMET051METAR EDOP 150520Z 26012KT 9999 BKN012 08/07 Q1012;
0143101624999992011011505504+53417+011783FM-15+0051EDOP V0202601N005710060019N0112651N1+00701+00601999999ADDGA1041+003901999GA2071+006001999GF107991999999999999999999MA1101291999999REMMET058METAR EDOP 150550Z 26011KT 9999 SCT013 BKN020 07/06 Q1013;
0143101624999992011011506204+53417+011783FM-15+0051EDOP V0202601N005110090019N0112651N1+00701+00601999999ADDGA1041+003601999GA2071+009001999GF107991999999999999999999MA1101291999999REMMET058METAR EDOP 150620Z 26010KT 9999 SCT012 BKN030 07/06 Q1013;
0143101624999992011011506504+53417+011783FM-15+0051EDOP V0202501N005110084019N0112651N1+00701+00701999999ADDGA1041+003901999GA2071+008401999GF107991999999999999999999MA1101391999999REMMET058METAR EDOP 150650Z 25010KT 9999 SCT013 BKN028 07/07 Q1014;
0120101624999992011011508204+53417+011783FM-15+0051EDOP V0202601N006210030019N0112651N1+00701+00601999999ADDGA1071+003001999GF107991999999999999999999MA1101491999999REMMET051METAR EDOP 150820Z 26012KT 9999 BKN010 07/06 Q1015;
0120101624999992011011508504+53417+011783FM-15+0051EDOP V0202601N006210030019N0112651N1+00701+00601999999ADDGA1071+003001999GF107991999999999999999999MA1101591999999REMMET051METAR EDOP 150850Z 26012KT 9999 BKN010 07/06 Q1016;
0120101624999992011011509204+53417+011783FM-15+0051EDOP V0202601N005710042019N0112651N1+00701+00601999999ADDGA1071+004201999GF107991999999999999999999MA1101591999999REMMET051METAR EDOP 150920Z 26011KT 9999 BKN014 07/06 Q1016;
0143101624999992011011509504+53417+011783FM-15+0051EDOP V0202601N006710090019N0112651N1+00801+00601999999ADDGA1041+004501999GA2071+009001999GF107991999999999999999999MA1101691999999REMMET058METAR EDOP 150950Z 26013KT 9999 SCT015 BKN030 08/06 Q1017;
0143101624999992011011510204+53417+011783FM-15+0051EDOP V0202601N006210075019N0112651N1+00801+00501999999ADDGA1041+004201999GA2071+007501999GF107991999999999999999999MA1101801999999REMMET058METAR EDOP 151020Z 26012KT 9999 SCT014 BKN025 08/05 Q1018;
0143101624999992011011510504+53417+011783FM-15+0051EDOP V0202601N006710075019N0112651N1+00801+00501999999ADDGA1041+004801999GA2071+007501999GF107991999999999999999999MA1101801999999REMMET058METAR EDOP 151050Z 26013KT 9999 SCT016 BKN025 08/05 Q1018;
0120101624999992011011511204+53417+011783FM-15+0051EDOP V0202601N007710054019N0112651N1+00801+00501999999ADDGA1071+005401999GF107991999999999999999999MA1101801999999REMMET051METAR EDOP 151120Z 26015KT 9999 BKN018 08/05 Q1018;
0120101624999992011011511504+53417+011783FM-15+0051EDOP V0202501N007710054019N0112651N1+00701+00401999999ADDGA1071+005401999GF107991999999999999999999MA1101801999999REMMET051METAR EDOP 151150Z 25015KT 9999 BKN018 07/04 Q1018;
0120101624999992011011512204+53417+011783FM-15+0051EDOP V0202501N005112200019N0112651N1+00701+00401999999ADDGA1041+004501999GF104991999999999999999999MA1101801999999REMMET051METAR EDOP 151220Z 25010KT 9999 SCT015 07/04 Q1018;
0120101624999992011011512504+53417+011783FM-15+0051EDOP V0202501N005712200019N0112651N1+00801+00501999999ADDGA1041+004501999GF104991999999999999999999MA1101901999999REMMET051METAR EDOP 151250Z 25011KT 9999 SCT015 08/05 Q1019;
0120101624999992011011513204+53417+011783FM-15+0051EDOP V0202401N005712200019N0112651N1+00801+00501999999ADDGA1041+004501999GF104991999999999999999999MA1101901999999REMMET051METAR EDOP 151320Z 24011KT 9999 SCT015 08/05 Q1019;
0120101624999992011011513504+53417+011783FM-15+0051EDOP V0202301N004610051019N0112651N1+00801+00501999999ADDGA1071+005101999GF107991999999999999999999MA1101901999999REMMET051METAR EDOP 151350Z 23009KT 9999 BKN017 08/05 Q1019;
0120101624999992011011514204+53417+011783FM-15+0051EDOP V0202101N003610051019N0112651N1+00801+00501999999ADDGA1071+005101999GF107991999999999999999999MA1101901999999REMMET051METAR EDOP 151420Z 21007KT 9999 BKN017 08/05 Q1019;
0120101624999992011011514504+53417+011783FM-15+0051EDOP V0202101N004110048019N0112651N1+00801+00501999999ADDGA1071+004801999GF107991999999999999999999MA1101901999999REMMET051METAR EDOP 151450Z 21008KT 9999 BKN016 08/05 Q1019;
0120101624999992011011515204+53417+011783FM-15+0051EDOP V0202001N003110045019N0112651N1+00801+00501999999ADDGA1071+004501999GF107991999999999999999999MA1101901999999REMMET051METAR EDOP 151520Z 20006KT 9999 BKN015 08/05 Q1019;
0120101624999992011011515504+53417+011783FM-15+0051EDOP V0201801N003110045019N0112651N1+00701+00501999999ADDGA1071+004501999GF107991999999999999999999MA1101901999999REMMET051METAR EDOP 151550Z 18006KT 9999 BKN015 07/05 Q1019;
0120101624999992011011516204+53417+011783FM-15+0051EDOP V0201901N003112200019N0112651N1+00701+00501999999ADDGA1041+004801999GF104991999999999999999999MA1101901999999REMMET051METAR EDOP 151620Z 19006KT 9999 SCT016 07/05 Q1019;
0143101624999992011011516504+53417+011783FM-15+0051EDOP V0201901N002612200019N0112651N1+00701+00601999999ADDGA1041+004501999GA2041+013501999GF104991999999999999999999MA1101901999999REMMET058METAR EDOP 151650Z 19005KT 9999 SCT015 SCT045 07/06 Q1019;
0120101624999992011011604204+53417+011783FM-15+0051EDOP V0202201N006210069019N0112651N1+00801+00501999999ADDGA1071+006901999GF107991999999999999999999MA1101901999999REMMET051METAR EDOP 160420Z 22012KT 9999 BKN023 08/05 Q1019;
0120101624999992011011604504+53417+011783FM-15+0051EDOP V0202301N006210069019N0112651N1+00801+00501999999ADDGA1071+006901999GF107991999999999999999999MA1101901999999REMMET051METAR EDOP 160450Z 23012KT 9999 BKN023 08/05 Q1019;
0120101624999992011011605204+53417+011783FM-15+0051EDOP V0202301N006210084019N0112651N1+00801+00501999999ADDGA1071+008401999GF107991999999999999999999MA1102001999999REMMET051METAR EDOP 160520Z 23012KT 9999 BKN028 08/05 Q1020;
0120101624999992011011605504+53417+011783FM-15+0051EDOP V0202301N006210096019N0112651N1+00801+00501999999ADDGA1071+009601999GF107991999999999999999999MA1102001999999REMMET051METAR EDOP 160550Z 23012KT 9999 BKN032 08/05 Q1020;
0120101624999992011011606204+53417+011783FM-15+0051EDOP V0202301N005710090019N0112651N1+00701+00401999999ADDGA1071+009001999GF107991999999999999999999MA1102001999999REMMET051METAR EDOP 160620Z 23011KT 9999 BKN030 07/04 Q1020;
0120101624999992011011606504+53417+011783FM-15+0051EDOP V0202201N006210093019N0112651N1+00701+00401999999ADDGA1071+009301999GF107991999999999999999999MA1102001999999REMMET051METAR EDOP 160650Z 22012KT 9999 BKN031 07/04 Q1020;
0120101624999992011011607204+53417+011783FM-15+0051EDOP V0202301N005110093019N0112651N1+00701+00401999999ADDGA1071+009301999GF107991999999999999999999MA1102001999999REMMET051METAR EDOP 160720Z 23010KT 9999 BKN031 07/04 Q1020;
0120101624999992011011607504+53417+011783FM-15+0051EDOP V0202201N005710084019N0112651N1+00801+00401999999ADDGA1071+008401999GF107991999999999999999999MA1102001999999REMMET051METAR EDOP 160750Z 22011KT 9999 BKN028 08/04 Q1020;
0120101624999992011011608204+53417+011783FM-15+0051EDOP V0202101N005710084019N0112651N1+00801+00401999999ADDGA1071+008401999GF107991999999999999999999MA1102101999999REMMET051METAR EDOP 160820Z 21011KT 9999 BKN028 08/04 Q1021;
0120101624999992011011608504+53417+011783FM-15+0051EDOP V0202001N005110081019N0112651N1+00801+00401999999ADDGA1071+008101999GF107991999999999999999999MA1102101999999REMMET051METAR EDOP 160850Z 20010KT 9999 BKN027 08/04 Q1021;
0120101624999992011011609204+53417+011783FM-15+0051EDOP V0202001N004610090019N0112651N1+00801+00401999999ADDGA1071+009001999GF107991999999999999999999MA1102101999999REMMET051METAR EDOP 160920Z 20009KT 9999 BKN030 08/04 Q1021;
0120101624999992011011609504+53417+011783FM-15+0051EDOP V0202001N005710075019N0112651N1+00801+00401999999ADDGA1071+007501999GF107991999999999999999999MA1102101999999REMMET051METAR EDOP 160950Z 20011KT 9999 BKN025 08/04 Q1021;
0120101624999992011011610204+53417+011783FM-15+0051EDOP V0202001N005710081019N0112651N1+00801+00401999999ADDGA1071+008101999GF107991999999999999999999MA1102101999999REMMET051METAR EDOP 161020Z 20011KT 9999 BKN027 08/04 Q1021;
0120101624999992011011610504+53417+011783FM-15+0051EDOP V0202001N006210099019N0112651N1+00801+00501999999ADDGA1071+009901999GF107991999999999999999999MA1102001999999REMMET051METAR EDOP 161050Z 20012KT 9999 BKN033 08/05 Q1020;
0143101624999992011011611204+53417+011783FM-15+0051EDOP V0202101N005710120019N0112651N1+00801+00501999999ADDGA1041+008401999GA2071+012001999GF107991999999999999999999MA1102101999999REMMET058METAR EDOP 161120Z 21011KT 9999 SCT028 BKN040 08/05 Q1021;
0120101624999992011011611504+53417+011783FM-15+0051EDOP V0202101N005110060019N0112651N1+00901+00501999999ADDGA1071+006001999GF107991999999999999999999MA1102101999999REMMET051METAR EDOP 161150Z 21010KT 9999 BKN020 09/05 Q1021;
0120101624999992011011612204+53417+011783FM-15+0051EDOP V0202101N005710054019N0112651N1+00901+00501999999ADDGA1071+005401999GF107991999999999999999999MA1102001999999REMMET051METAR EDOP 161220Z 21011KT 9999 BKN018 09/05 Q1020;
0120101624999992011011612504+53417+011783FM-15+0051EDOP V0202001N004610066019N0112651N1+00901+00501999999ADDGA1071+006601999GF107991999999999999999999MA1102001999999REMMET051METAR EDOP 161250Z 20009KT 9999 BKN022 09/05 Q1020;
0143101624999992011011613204+53417+011783FM-15+0051EDOP V0202101N005712200019N0112651N1+00901+00501999999ADDGA1041+006001999GA2041+013501999GF104991999999999999999999MA1102101999999REMMET058METAR EDOP 161320Z 21011KT 9999 SCT020 SCT045 09/05 Q1021;
0143101624999992011011613504+53417+011783FM-15+0051EDOP V0202201N005112200019N0112651N1+00901+00501999999ADDGA1021+006001999GA2041+013501999GF104991999999999999999999MA1102101999999REMMET058METAR EDOP 161350Z 22010KT 9999 FEW020 SCT045 09/05 Q1021;
0143101624999992011011614204+53417+011783FM-15+0051EDOP V0202201N004112200019N0112651N1+00901+00501999999ADDGA1021+007501999GA2041+013501999GF104991999999999999999999MA1102101999999REMMET058METAR EDOP 161420Z 22008KT 9999 FEW025 SCT045 09/05 Q1021;
0143101624999992011011614504+53417+011783FM-15+0051EDOP V0202201N004612200019N0112651N1+00901+00601999999ADDGA1021+009001999GA2041+014401999GF104991999999999999999999MA1102101999999REMMET058METAR EDOP 161450Z 22009KT 9999 FEW030 SCT048 09/06 Q1021;
0143101624999992011011615204+53417+011783FM-15+0051EDOP V0202001N004612200019N0112651N1+00901+00601999999ADDGA1021+009001999GA2041+015001999GF104991999999999999999999MA1102101999999REMMET058METAR EDOP 161520Z 20009KT 9999 FEW030 SCT050 09/06 Q1021;
0143101624999992011011615504+53417+011783FM-15+0051EDOP V0201901N005710150019N0112651N1+00901+00601999999ADDGA1021+009001999GA2071+015001999GF107991999999999999999999MA1102101999999REMMET058METAR EDOP 161550Z 19011KT 9999 FEW030 BKN050 09/06 Q1021;
0072101624999992011011616204+53417+011783FM-15+0051EDOP V0202001N005719999999Y0099001N1+00901+00501999999ADDMA1102101999999REMMET045METAR EDOP 161620Z 20011KT CAVOK 09/05 Q1021;
0072101624999992011011616504+53417+011783FM-15+0051EDOP V0201901N005119999999Y0099001N1+00901+00601999999ADDMA1102101999999REMMET045METAR EDOP 161650Z 19010KT CAVOK 09/06 Q1021;
0072101624999992011011704204+53417+011783FM-15+0051EDOP V0202101N003619999999Y0099001N1+00701+00401999999ADDMA1102101999999REMMET045METAR EDOP 170420Z 21007KT CAVOK 07/04 Q1021;
0072101624999992011011704504+53417+011783FM-15+0051EDOP V0202201N004119999999Y0099001N1+00701+00401999999ADDMA1102201999999REMMET045METAR EDOP 170450Z 22008KT CAVOK 07/04 Q1022;
0080101624999992011011705204+53417+011783FM-15+0051EDOP V0202101N003119999999Y0099001N1+00701+00401999999ADDMA1102201999999REMMET053METAR EDOP 170520Z 21006KT 180V250 CAVOK 07/04 Q1022;
0072101624999992011011705504+53417+011783FM-15+0051EDOP V0201901N003619999999Y0099001N1+00601+00401999999ADDMA1102101999999REMMET045METAR EDOP 170550Z 19007KT CAVOK 06/04 Q1021;
0072101624999992011011706504+53417+011783FM-15+0051EDOP V0202101N003119999999Y0099001N1+00601+00401999999ADDMA1102201999999REMMET045METAR EDOP 170650Z 21006KT CAVOK 06/04 Q1022;
0072101624999992011011707204+53417+011783FM-15+0051EDOP V0202101N003619999999Y0099001N1+00601+00401999999ADDMA1102201999999REMMET045METAR EDOP 170720Z 21007KT CAVOK 06/04 Q1022;
0072101624999992011011707504+53417+011783FM-15+0051EDOP V0202101N003619999999Y0099001N1+00601+00401999999ADDMA1102201999999REMMET045METAR EDOP 170750Z 21007KT CAVOK 06/04 Q1022;
0072101624999992011011708204+53417+011783FM-15+0051EDOP V0202201N003619999999Y0099001N1+00701+00401999999ADDMA1102101999999REMMET045METAR EDOP 170820Z 22007KT CAVOK 07/04 Q1021;
0072101624999992011011708504+53417+011783FM-15+0051EDOP V0202301N003619999999Y0099001N1+00701+00401999999ADDMA1102101999999REMMET045METAR EDOP 170850Z 23007KT CAVOK 07/04 Q1021;
0072101624999992011011709204+53417+011783FM-15+0051EDOP V0202401N004619999999Y0099001N1+00701+00401999999ADDMA1102101999999REMMET045METAR EDOP 170920Z 24009KT CAVOK 07/04 Q1021;
0072101624999992011011709504+53417+011783FM-15+0051EDOP V0202301N004119999999Y0099001N1+00801+00401999999ADDMA1102201999999REMMET045METAR EDOP 170950Z 23008KT CAVOK 08/04 Q1022;
0143101624999992011011710204+53417+011783FM-15+0051EDOP V0202301N003610180019N0112651N1+00801+00401999999ADDGA1041+004201999GA2071+018001999GF107991999999999999999999MA1102201999999REMMET058METAR EDOP 171020Z 23007KT 9999 SCT014 BKN060 08/04 Q1022;
0120101624999992011011710504+53417+011783FM-15+0051EDOP V0202101N002610048019N0112651N1+00801+00401999999ADDGA1071+004801999GF107991999999999999999999MA1102201999999REMMET051METAR EDOP 171050Z 21005KT 9999 BKN016 08/04 Q1022;
0120101624999992011011711204+53417+011783FM-15+0051EDOP V0202001N002610042019N0112651N1+00801+00401999999ADDGA1071+004201999GF107991999999999999999999MA1102201999999REMMET051METAR EDOP 171120Z 20005KT 9999 BKN014 08/04 Q1022;
0128101624999992011011711504+53417+011783FM-15+0051EDOP V0202001N002110039019N0112651N1+00801+00401999999ADDGA1071+003901999GF107991999999999999999999MA1102201999999REMMET059METAR EDOP 171150Z 20004KT 170V250 9999 BKN013 08/04 Q1022;
0120101624999992011011712204+53417+011783FM-15+0051EDOP V0201801N002110045019N0112651N1+00801+00401999999ADDGA1071+004501999GF107991999999999999999999MA1102101999999REMMET051METAR EDOP 171220Z 18004KT 9999 BKN015 08/04 Q1021;
0120101624999992011011712504+53417+011783FM-15+0051EDOP V0201601N003112200019N0112651N1+00801+00501999999ADDGA1041+004201999GF104991999999999999999999MA1102101999999REMMET051METAR EDOP 171250Z 16006KT 9999 SCT014 08/05 Q1021;
0120101624999992011011713204+53417+011783FM-15+0051EDOP V0201801N002612200019N0112651N1+00801+00501999999ADDGA1041+004501999GF104991999999999999999999MA1102101999999REMMET051METAR EDOP 171320Z 18005KT 9999 SCT015 08/05 Q1021;
0143101624999992011011713504+53417+011783FM-15+0051EDOP V0201701N002612200019N0112651N1+00801+00501999999ADDGA1021+004501999GA2041+013501999GF104991999999999999999999MA1102101999999REMMET058METAR EDOP 171350Z 17005KT 9999 FEW015 SCT045 08/05 Q1021;
0143101624999992011011714204+53417+011783FM-15+0051EDOP V0201701N002610135019N0112651N1+00801+00501999999ADDGA1021+004501999GA2071+013501999GF107991999999999999999999MA1102101999999REMMET058METAR EDOP 171420Z 17005KT 9999 FEW015 BKN045 08/05 Q1021;
0143101624999992011011714504+53417+011783FM-15+0051EDOP V0201701N003110150019N0112651N1+00701+00501999999ADDGA1021+006001999GA2071+015001999GF107991999999999999999999MA1102101999999REMMET058METAR EDOP 171450Z 17006KT 9999 FEW020 BKN050 07/05 Q1021;
0143101624999992011011715204+53417+011783FM-15+0051EDOP V0201701N003110180019N0112651N1+00701+00401999999ADDGA1021+006601999GA2071+018001999GF107991999999999999999999MA1102101999999REMMET058METAR EDOP 171520Z 17006KT 9999 FEW022 BKN060 07/04 Q1021;
0143101624999992011011715504+53417+011783FM-15+0051EDOP V0201801N002110150019N0112651N1+00701+00401999999ADDGA1021+005101999GA2071+015001999GF107991999999999999999999MA1102001999999REMMET058METAR EDOP 171550Z 18004KT 9999 FEW017 BKN055 07/04 Q1020;
0143101624999992011011716204+53417+011783FM-15+0051EDOP V0202101N002612200019N0112651N1+00701+00501999999ADDGA1041+005401999GA2041+015001999GF104991999999999999999999MA1102001999999REMMET058METAR EDOP 171620Z 21005KT 9999 SCT018 SCT050 07/05 Q1020;
0143101624999992011011716504+53417+011783FM-15+0051EDOP V0201901N002612200019N0112651N1+00701+00501999999ADDGA1041+005401999GA2041+013501999GF104991999999999999999999MA1102001999999REMMET058METAR EDOP 171650Z 19005KT 9999 SCT018 SCT045 07/05 Q1020;
0120101624999992011011804204+53417+011783FM-15+0051EDOP V0202301N006210036019N0112651N1+00701+00601999999ADDGA1071+003601999GF107991999999999999999999MA1101691999999REMMET051METAR EDOP 180420Z 23012KT 9999 BKN012 07/06 Q1017;
0120101624999992011011804504+53417+011783FM-15+0051EDOP V0202301N006210036019N0112651N1+00701+00601999999ADDGA1071+003601999GF107991999999999999999999MA1101691999999REMMET051METAR EDOP 180450Z 23012KT 9999 BKN012 07/06 Q1017;
0120101624999992011011805204+53417+011783FM-15+0051EDOP V0202501N006710033019N0112651N1+00701+00601999999ADDGA1071+003301999GF107991999999999999999999MA1101801999999REMMET051METAR EDOP 180520Z 25013KT 9999 BKN011 07/06 Q1018;
0120101624999992011011805504+53417+011783FM-15+0051EDOP V0203201N006710030019N0112651N1+00601+00301999999ADDGA1071+003001999GF107991999999999999999999MA1101901999999REMMET051METAR EDOP 180550Z 32013KT 9999 BKN010 06/03 Q1019;
0151101624999992011011806504+53417+011783FM-15+0051EDOP V0203101N003610069019N0112651N1+00501+00201999999ADDGA1041+003601999GA2071+006901999GF107991999999999999999999MA1102001999999REMMET066METAR EDOP 180650Z 31007KT 270V340 9999 SCT012 BKN023 05/02 Q1020;
0120101624999992011011807204+53417+011783FM-15+0051EDOP V0202701N003610051019N0112651N1+00501+00201999999ADDGA1071+005101999GF107991999999999999999999MA1102101999999REMMET051METAR EDOP 180720Z 27007KT 9999 BKN017 05/02 Q1021;
0120101624999992011011807504+53417+011783FM-15+0051EDOP V0202801N003610051019N0112651N1+00501+00301999999ADDGA1071+005101999GF107991999999999999999999MA1102101999999REMMET051METAR EDOP 180750Z 28007KT 9999 BKN017 05/03 Q1021;
0143101624999992011011808204+53417+011783FM-15+0051EDOP V0202801N003110090019N0112651N1+00501+00301999999ADDGA1041+004201999GA2071+009001999GF107991999999999999999999MA1102101999999REMMET058METAR EDOP 180820Z 28006KT 9999 SCT014 BKN030 05/03 Q1021;
0143101624999992011011808504+53417+011783FM-15+0051EDOP V0202701N003610096019N0112651N1+00501+00301999999ADDGA1041+003901999GA2071+009601999GF107991999999999999999999MA1102101999999REMMET058METAR EDOP 180850Z 27007KT 9999 SCT013 BKN032 05/03 Q1021;
0143101624999992011011809204+53417+011783FM-15+0051EDOP V0202701N004110084019N0112651N1+00501+00301999999ADDGA1041+003901999GA2071+008401999GF107991999999999999999999MA1102101999999REMMET058METAR EDOP 180920Z 27008KT 9999 SCT013 BKN028 05/03 Q1021;
0143101624999992011011809504+53417+011783FM-15+0051EDOP V0202601N004610090019N0112651N1+00501+00301999999ADDGA1021+003001999GA2071+009001999GF107991999999999999999999MA1102201999999REMMET058METAR EDOP 180950Z 26009KT 9999 FEW010 BKN030 05/03 Q1022;
0143101624999992011011810204+53417+011783FM-15+0051EDOP V0202701N004110090019N0112651N1+00501+00301999999ADDGA1021+003001999GA2071+009001999GF107991999999999999999999MA1102201999999REMMET058METAR EDOP 181020Z 27008KT 9999 FEW010 BKN030 05/03 Q1022;
0120101624999992011011810504+53417+011783FM-15+0051EDOP V0202801N004110084019N0112651N1+00501+00301999999ADDGA1071+008401999GF107991999999999999999999MA1102201999999REMMET051METAR EDOP 181050Z 28008KT 9999 BKN028 05/03 Q1022;
0120101624999992011011811204+53417+011783FM-15+0051EDOP V0202701N003110081019N0112651N1+00601+00301999999ADDGA1071+008101999GF107991999999999999999999MA1102201999999REMMET051METAR EDOP 181120Z 27006KT 9999 BKN027 06/03 Q1022;
0120101624999992011011811504+53417+011783FM-15+0051EDOP V0202601N003610084019N0112651N1+00601+00201999999ADDGA1071+008401999GF107991999999999999999999MA1102201999999REMMET051METAR EDOP 181150Z 26007KT 9999 BKN028 06/02 Q1022;
0120101624999992011011812204+53417+011783FM-15+0051EDOP V0202701N003610090019N0112651N1+00601+00201999999ADDGA1071+009001999GF107991999999999999999999MA1102201999999REMMET051METAR EDOP 181220Z 27007KT 9999 BKN030 06/02 Q1022;
0143101624999992011011812504+53417+011783FM-15+0051EDOP V0202601N004110090019N0112651N1+00601+00201999999ADDGA1021+005101999GA2071+009001999GF107991999999999999999999MA1102201999999REMMET058METAR EDOP 181250Z 26008KT 9999 FEW017 BKN030 06/02 Q1022;
0143101624999992011011813204+53417+011783FM-15+0051EDOP V0202701N003610090019N0112651N1+00601+00201999999ADDGA1041+005401999GA2071+009001999GF107991999999999999999999MA1102201999999REMMET058METAR EDOP 181320Z 27007KT 9999 SCT018 BKN030 06/02 Q1022;
0151101624999992011011813504+53417+011783FM-15+0051EDOP V0202801N003110090019N0112651N1+00601+00201999999ADDGA1021+004801999GA2071+009001999GF107991999999999999999999MA1102201999999REMMET066METAR EDOP 181350Z 28006KT 250V320 9999 FEW016 BKN030 06/02 Q1022;
0143101624999992011011814204+53417+011783FM-15+0051EDOP V0209999V001510090019N0112651N1+00601+00201999999ADDGA1041+007201999GA2071+009001999GF107991999999999999999999MA1102201999999REMMET058METAR EDOP 181420Z VRB03KT 9999 SCT024 BKN030 06/02 Q1022;
0143101624999992011011814504+53417+011783FM-15+0051EDOP V0202901N002110075019N0112651N1+00501+00201999999ADDGA1021+004501999GA2071+007501999GF107991999999999999999999MA1102201999999REMMET058METAR EDOP 181450Z 29004KT 9999 FEW015 BKN025 05/02 Q1022;
0120101624999992011011815204+53417+011783FM-15+0051EDOP V0203101N001510048019N0112651N1+00501+00201999999ADDGA1071+004801999GF107991999999999999999999MA1102201999999REMMET051METAR EDOP 181520Z 31003KT 9999 BKN016 05/02 Q1022;
0120101624999992011011815504+53417+011783FM-15+0051EDOP V0209999V001510075019N0112651N1+00501+00201999999ADDGA1071+007501999GF107991999999999999999999MA1102201999999REMMET051METAR EDOP 181550Z VRB03KT 9999 BKN025 05/02 Q1022;
0120101624999992011011816204+53417+011783FM-15+0051EDOP V0202701N002110096019N0112651N1+00501+00201999999ADDGA1071+009601999GF107991999999999999999999MA1102201999999REMMET051METAR EDOP 181620Z 27004KT 9999 BKN032 05/02 Q1022;
0143101624999992011011816504+53417+011783FM-15+0051EDOP V0209999V001510114019N0112651N1+00401+00201999999ADDGA1041+008701999GA2071+011401999GF107991999999999999999999MA1102201999999REMMET058METAR EDOP 181650Z VRB03KT 9999 SCT029 BKN038 04/02 Q1022;
0128101624999992011011904204+53417+011783FM-15+0051EDOP V0203001N002610060019N0112651N1+00301+00101999999ADDGA1071+006001999GF107991999999999999999999MA1102401999999REMMET059METAR EDOP 190420Z 30005KT 260V330 9999 BKN020 03/01 Q1024;
0120101624999992011011904504+53417+011783FM-15+0051EDOP V0203001N002110066019N0112651N1+00301+00101999999ADDGA1071+006601999GF107991999999999999999999MA1102401999999REMMET051METAR EDOP 190450Z 30004KT 9999 BKN022 03/01 Q1024;
0120101624999992011011905204+53417+011783FM-15+0051EDOP V0202801N001510075019N0112651N1+00301+00101999999ADDGA1071+007501999GF107991999999999999999999MA1102401999999REMMET051METAR EDOP 190520Z 28003KT 9999 BKN025 03/01 Q1024;
0120101624999992011011905504+53417+011783FM-15+0051EDOP V0202501N001512200019N0112651N1+00201+00101999999ADDGA1041+009001999GF104991999999999999999999MA1102401999999REMMET051METAR EDOP 190550Z 25003KT 9999 SCT030 02/01 Q1024;
0120101624999992011011906504+53417+011783FM-15+0051EDOP V0202801N002110045019N0112651N1+00201+00201999999ADDGA1071+004501999GF107991999999999999999999MA1102401999999REMMET051METAR EDOP 190650Z 28004KT 9999 BKN015 02/02 Q1024;
0153101624999992011011907204+53417+011783FM-15+0051EDOP V0202601N003110045019N0112651N1+00201+00201999999ADDGA1041+003001999GA2071+004501999GF107991999999999999999999MA1102401999999MW1511REMMET062METAR EDOP 190720Z 26006KT 9999 -DZ SCT010 BKN015 02/02 Q1024;
0143101624999992011011907504+53417+011783FM-15+0051EDOP V0202801N002110045019N0090001N1+00201+00201999999ADDGA1041+002401999GA2071+004501999GF107991999999999999999999MA1102401999999REMMET058METAR EDOP 190750Z 28004KT 9000 SCT008 BKN015 02/02 Q1024;
0151101624999992011011908204+53417+011783FM-15+0051EDOP V0203001N003110045019N0112651N1+00301+00201999999ADDGA1021+003001999GA2071+004501999GF107991999999999999999999MA1102401999999REMMET066METAR EDOP 190820Z 30006KT 260V320 9999 FEW010 BKN015 03/02 Q1024;
0120101624999992011011908504+53417+011783FM-15+0051EDOP V0202901N003110045019N0112651N1+00301+00101999999ADDGA1071+004501999GF107991999999999999999999MA1102511999999REMMET051METAR EDOP 190850Z 29006KT 9999 BKN015 03/01 Q1025;
0130101624999992011011909204+53417+011783FM-15+0051EDOP V0202801N003110045019N0090001N1+00201+00101999999ADDGA1071+004501999GF107991999999999999999999MA1102511999999MW1511REMMET055METAR EDOP 190920Z 28006KT 9000 -DZ BKN015 02/01 Q1025;
0120101624999992011011909504+53417+011783FM-15+0051EDOP V0202601N003112200019N0112651N1+00301+00201999999ADDGA1041+004501999GF104991999999999999999999MA1102401999999REMMET051METAR EDOP 190950Z 26006KT 9999 SCT015 03/02 Q1024;
0143101624999992011011910204+53417+011783FM-15+0051EDOP V0202801N003110045019N0112651N1+00301+00201999999ADDGA1041+003001999GA2071+004501999GF107991999999999999999999MA1102401999999REMMET058METAR EDOP 191020Z 28006KT 9999 SCT010 BKN015 03/02 Q1024;
0143101624999992011011910504+53417+011783FM-15+0051EDOP V0202701N003110045019N0112651N1+00401+00301999999ADDGA1021+003001999GA2071+004501999GF107991999999999999999999MA1102401999999REMMET058METAR EDOP 191050Z 27006KT 9999 FEW010 BKN015 04/03 Q1024;
0143101624999992011011911204+53417+011783FM-15+0051EDOP V0202701N003610045019N0112651N1+00401+00201999999ADDGA1041+003001999GA2071+004501999GF107991999999999999999999MA1102401999999REMMET058METAR EDOP 191120Z 27007KT 9999 SCT010 BKN015 04/02 Q1024;
0120101624999992011011911504+53417+011783FM-15+0051EDOP V0202901N003110045019N0112651N1+00401+00101999999ADDGA1071+004501999GF107991999999999999999999MA1102401999999REMMET051METAR EDOP 191150Z 29006KT 9999 BKN015 04/01 Q1024;
0120101624999992011011912204+53417+011783FM-15+0051EDOP V0202801N004112200019N0112651N1+00401+00101999999ADDGA1041+004501999GF104991999999999999999999MA1102401999999REMMET051METAR EDOP 191220Z 28008KT 9999 SCT015 04/01 Q1024;
0151101624999992011011912504+53417+011783FM-15+0051EDOP V0202801N002610108019N0112651N1+00401+00101999999ADDGA1041+004501999GA2071+010801999GF107991999999999999999999MA1102401999999REMMET066METAR EDOP 191250Z 28005KT 260V320 9999 SCT015 BKN036 04/01 Q1024;
0154101624999992011011913204+53417+011783FM-15+0051EDOP V0202701N004112200019N0112651N1+00201+00201999999ADDGA1041+004201999GA2041+012001999GF104991999999999999999999MA1102401999999MW1161REMMET063METAR EDOP 191320Z 27008KT 9999 VCSH SCT014 SCT040 02/02 Q1024;
0143101624999992011011913504+53417+011783FM-15+0051EDOP V0202701N002112200019N0112651N1+00201+00201999999ADDGA1021+004501999GA2041+014401999GF104991999999999999999999MA1102401999999REMMET058METAR EDOP 191350Z 27004KT 9999 FEW015 SCT048 02/02 Q1024;
0120101624999992011011914204+53417+011783FM-15+0051EDOP V0202601N002612200019N0112651N1+00201+00201999999ADDGA1021+009001999GF102991999999999999999999MA1102401999999REMMET051METAR EDOP 191420Z 26005KT 9999 FEW030 02/02 Q1024;
0120101624999992011011914504+53417+011783FM-15+0051EDOP V0202601N003112200019N0112651N1+00201+00201999999ADDGA1041+005101999GF104991999999999999999999MA1102401999999REMMET051METAR EDOP 191450Z 26006KT 9999 SCT017 02/02 Q1024;
0120101624999992011011915204+53417+011783FM-15+0051EDOP V0202601N002112200019N0112651N1+00101+00101999999ADDGA1021+010501999GF102991999999999999999999MA1102401999999REMMET051METAR EDOP 191520Z 26004KT 9999 FEW035 01/01 Q1024;
0143101624999992011011915504+53417+011783FM-15+0051EDOP V0202801N002612200019N0112651N1+00101+00101999999ADDGA1021+004801999GA2041+012901999GF104991999999999999999999MA1102401999999REMMET058METAR EDOP 191550Z 28005KT 9999 FEW016 SCT043 01/01 Q1024;
0122101624999992011011916204+53417+011783FM-15+0051EDOP V0202701N002112200019N0112651N1+00001-00101999999ADDGA1021+013501999GF102991999999999999999999MA1102401999999REMMET053METAR EDOP 191620Z 27004KT 9999 FEW045 M00/M01 Q1024;
0143101624999992011011916504+53417+011783FM-15+0051EDOP V0202701N002112200019N0112651N1+00001+00001999999ADDGA1021+005101999GA2041+013501999GF104991999999999999999999MA1102401999999REMMET058METAR EDOP 191650Z 27004KT 9999 FEW017 SCT045 00/00 Q1024;
0121101624999992011012004204+53417+011783FM-15+0051EDOP V0203501N002610042019N0112651N1+00001-00201999999ADDGA1071+004201999GF107991999999999999999999MA1102611999999REMMET052METAR EDOP 200420Z 35005KT 9999 BKN014 00/M02 Q1026;
0130101624999992011012004504+53417+011783FM-15+0051EDOP V0203401N002610045019N0112651N1+00001-00201999999ADDGA1071+004501999GF107991999999999999999999MA1102611999999REMMET061METAR EDOP 200450Z 34005KT 310V010 9999 BKN015 M00/M02 Q1026;
0130101624999992011012005204+53417+011783FM-15+0051EDOP V0203501N002110045019N0112651N1+00001-00201999999ADDGA1071+004501999GF107991999999999999999999MA1102611999999REMMET061METAR EDOP 200520Z 35004KT 310V030 9999 BKN015 M00/M02 Q1026;
0130101624999992011012005504+53417+011783FM-15+0051EDOP V0203501N003110045019N0112651N1+00001-00201999999ADDGA1071+004501999GF107991999999999999999999MA1102611999999REMMET061METAR EDOP 200550Z 35006KT 320V030 9999 BKN015 M00/M02 Q1026;
0130101624999992011012006504+53417+011783FM-15+0051EDOP V0200101N003110045019N0112651N1+00001-00201999999ADDGA1071+004501999GF107991999999999999999999MA1102711999999REMMET061METAR EDOP 200650Z 01006KT 340V050 9999 BKN015 M00/M02 Q1027;
0130101624999992011012007204+53417+011783FM-15+0051EDOP V0203601N002610045019N0112651N1+00001-00201999999ADDGA1071+004501999GF107991999999999999999999MA1102711999999REMMET061METAR EDOP 200720Z 36005KT 330V040 9999 BKN015 M00/M02 Q1027;
0122101624999992011012007504+53417+011783FM-15+0051EDOP V0203401N002610045019N0112651N1+00001-00201999999ADDGA1071+004501999GF107991999999999999999999MA1102711999999REMMET053METAR EDOP 200750Z 34005KT 9999 BKN015 M00/M02 Q1027;
0145101624999992011012008204+53417+011783FM-15+0051EDOP V0203501N002610045019N0112651N1+00001-00201999999ADDGA1041+003301999GA2071+004501999GF107991999999999999999999MA1102811999999REMMET060METAR EDOP 200820Z 35005KT 9999 SCT011 BKN015 M00/M02 Q1028;
0145101624999992011012008504+53417+011783FM-15+0051EDOP V0203401N002610060019N0080001N1+00001-00201999999ADDGA1041+003001999GA2071+006001999GF107991999999999999999999MA1102811999999REMMET060METAR EDOP 200850Z 34005KT 8000 SCT010 BKN020 M00/M02 Q1028;
0152101624999992011012009204+53417+011783FM-15+0051EDOP V0203601N003110045019N0112651N1+00001-00201999999ADDGA1021+003001999GA2071+004501999GF107991999999999999999999MA1102811999999REMMET067METAR EDOP 200920Z 36006KT 330V030 9999 FEW010 BKN015 00/M02 Q1028;
0129101624999992011012009504+53417+011783FM-15+0051EDOP V0203601N002610054019N0112651N1+00001-00201999999ADDGA1071+005401999GF107991999999999999999999MA1102811999999REMMET060METAR EDOP 200950Z 36005KT 320V030 9999 BKN018 00/M02 Q1028;
0129101624999992011012010204+53417+011783FM-15+0051EDOP V0200101N002110045019N0112651N1+00001-00301999999ADDGA1071+004501999GF107991999999999999999999MA1102811999999REMMET060METAR EDOP 201020Z 01004KT 310V040 9999 BKN015 00/M03 Q1028;
0129101624999992011012010504+53417+011783FM-15+0051EDOP V0203601N003110048019N0112651N1+00001-00301999999ADDGA1071+004801999GF107991999999999999999999MA1102811999999REMMET060METAR EDOP 201050Z 36006KT 330V030 9999 BKN016 00/M03 Q1028;
0129101624999992011012011204+53417+011783FM-15+0051EDOP V0203601N002610051019N0112651N1+00001-00301999999ADDGA1071+005101999GF107991999999999999999999MA1102811999999REMMET060METAR EDOP 201120Z 36005KT 310V050 9999 BKN017 00/M03 Q1028;
