0121102240999992013010100204+53050+008800FM-15+0005EDDW V0202101N007210072019N0112651N1+00901+00701999999ADDGF107991999999999999999999MA1100001999999MW1611REMMET062METAR EDDW 010020Z 21014KT 9999 -RA SCT019 BKN024 09/07 Q1000;
0119102240999992013010100504+53050+008800FM-15+0005EDDW V0202201N008210048019N0112651N1+00901+00701999999ADDGF107991999999999999999999MA1099901999999MW1611REMMET060METAR EDDW 010050Z 22016KT 9999 -RA BKN016 09/07 Q0999 RERA;
0114102240999992013010101204+53050+008800FM-15+0005EDDW V0202201N008210045019N0112651N1+00901+00701999999ADDGF107991999999999999999999MA1099901999999MW1611REMMET055METAR EDDW 010120Z 22016KT 9999 -RA BKN015 09/07 Q0999;
0114102240999992013010101504+53050+008800FM-15+0005EDDW V0202101N006710042019N0112651N1+00901+00701999999ADDGF107991999999999999999999MA1099901999999MW1611REMMET055METAR EDDW 010150Z 21013KT 9999 -RA BKN014 09/07 Q0999;
0114102240999992013010102204+53050+008800FM-15+0005EDDW V0202101N007710036019N0112651N1+00901+00701999999ADDGF107991999999999999999999MA1099901999999MW1611REMMET055METAR EDDW 010220Z 21015KT 9999 -RA BKN012 09/07 Q0999;
0114102240999992013010102504+53050+008800FM-15+0005EDDW V0202201N007710033019N0112651N1+00801+00701999999ADDGF107991999999999999999999MA1099901999999MW1611REMMET055METAR EDDW 010250Z 22015KT 9999 -RA BKN011 08/07 Q0999;
0114102240999992013010103204+53050+008800FM-15+0005EDDW V0202101N006210033019N0112651N1+00801+00701999999ADDGF107991999999999999999999MA1099801999999MW1611REMMET055METAR EDDW 010320Z 21012KT 9999 -RA BKN011 08/07 Q0998;
0135102240999992013010103504+53050+008800FM-15+0005EDDW V0202201N007210036019N0112651N1+00801+00701999999ADDGF107991999999999999999999MA1099801999999MW1611REMMET076METAR EDDW 010350Z 22014KT 9999 -RA BKN012 08/07 Q0998 BECMG 4000 RA BKN008;
0135102240999992013010104204+53050+008800FM-15+0005EDDW V0202201N006710033019N0112651N1+00801+00701999999ADDGF107991999999999999999999MA1099801999999MW1611REMMET076METAR EDDW 010420Z 22013KT 9999 -RA BKN011 08/07 Q0998 BECMG 4000 RA BKN008;
0131102240999992013010104504+53050+008800FM-15+0005EDDW V0202201N006710036019N0112651N1+00801+00701999999ADDGF107991999999999999999999MA1099801999999MW1631REMMET072METAR EDDW 010450Z 22013KT 9999 RA BKN012 08/07 Q0998 BECMG 4000 BKN008;
0140102240999992013010105204+53050+008800FM-15+0005EDDW V0202201N006710036019N0112651N1+00801+00701999999ADDGF107991999999999999999999MA1099801999999MW1611REMMET081METAR EDDW 010520Z 22013KT 9999 -RA BKN012 08/07 Q0998 RERA BECMG 4000 RA BKN008;
0135102240999992013010105504+53050+008800FM-15+0005EDDW V0202201N006210033019N0112651N1+00801+00701999999ADDGF107991999999999999999999MA1099801999999MW1611REMMET076METAR EDDW 010550Z 22012KT 9999 -RA BKN011 08/07 Q0998 BECMG 4000 RA BKN008;
0127102240999992013010106204+53050+008800FM-15+0005EDDW V0202201N006210030019N0112651N1+00801+00701999999ADDGF107991999999999999999999MA1099801999999MW1611REMMET068METAR EDDW 010620Z 22012KT 9999 -RA BKN010 08/07 Q0998 BECMG BKN008;
0127102240999992013010106504+53050+008800FM-15+0005EDDW V0202201N005710030019N0112651N1+00801+00701999999ADDGF107991999999999999999999MA1099801999999MW1611REMMET068METAR EDDW 010650Z 22011KT 9999 -RA BKN010 08/07 Q0998 BECMG BKN008;
0127102240999992013010107204+53050+008800FM-15+0005EDDW V0202101N005710033019N0112651N1+00801+00701999999ADDGF107991999999999999999999MA1099801999999MW1611REMMET068METAR EDDW 010720Z 21011KT 9999 -RA BKN011 08/07 Q0998 BECMG BKN008;
0127102240999992013010107504+53050+008800FM-15+0005EDDW V0202101N005110033019N0112651N1+00801+00701999999ADDGF107991999999999999999999MA1099801999999MW1611REMMET068METAR EDDW 010750Z 21010KT 9999 -RA BKN011 08/07 Q0998 BECMG BKN008;
0117102240999992013010108204+53050+008800FM-15+0005EDDW V0202201N006210030019N0112651N1+00801+00701999999ADDGF107991999999999999999999MA1099901999999REMMET064METAR EDDW 010820Z 22012KT 9999 BKN010 08/07 Q0999 BECMG BKN008;
0117102240999992013010108504+53050+008800FM-15+0005EDDW V0202201N005710030019N0112651N1+00801+00701999999ADDGF107991999999999999999999MA1099901999999REMMET064METAR EDDW 010850Z 22011KT 9999 BKN010 08/07 Q0999 BECMG BKN008;
0110102240999992013010109204+53050+008800FM-15+0005EDDW V0202201N005110027019N0112651N1+00801+00701999999ADDGF107991999999999999999999MA1099901999999REMMET057METAR EDDW 010920Z 22010KT 9999 BKN009 08/07 Q0999 NOSIG;
0110102240999992013010109504+53050+008800FM-15+0005EDDW V0202201N005710027019N0112651N1+00801+00701999999ADDGF107991999999999999999999MA1099901999999REMMET057METAR EDDW 010950Z 22011KT 9999 BKN009 08/07 Q0999 NOSIG;
0110102240999992013010110204+53050+008800FM-15+0005EDDW V0202201N005110024019N0112651N1+00801+00701999999ADDGF107991999999999999999999MA1099901999999REMMET057METAR EDDW 011020Z 22010KT 9999 BKN008 08/07 Q0999 NOSIG;
0143102240999992013010110504+53050+008800FM-15+0005EDDW V0202201N004610027019N0060001N1+00801+00701999999ADDGF107991999999999999999999MA1099901999999MW1511MW2611REMMET078METAR EDDW 011050Z 22009KT 6000 -RADZ FEW005 BKN009 08/07 Q0999 TEMPO 4000 RA;
0131102240999992013010111204+53050+008800FM-15+0005EDDW V0202501N004110021019N0060001N1+00801+00701999999ADDGF107991999999999999999999MA1100001999999MW1631REMMET072METAR EDDW 011120Z 25008KT 6000 RA BKN007 BKN029 08/07 Q1000 TEMPO 4000;
0133102240999992013010111504+53050+008800FM-15+0005EDDW V0202801N005710012019N0080001N1+00801+00701999999ADDGF107991999999999999999999MA1100001999999MW1631REMMET074METAR EDDW 011150Z 28011KT 8000 RA BKN004 BKN029 08/07 Q1000 BECMG BKN007;
0134102240999992013010112204+53050+008800FM-15+0005EDDW V0202801N003110027019N0112651N1+00801+00701999999ADDGF107991999999999999999999MA1100001999999MW1611REMMET075METAR EDDW 011220Z 28006KT 9999 -RA SCT004 BKN009 08/07 Q1000 BECMG BKN012;
0139102240999992013010112504+53050+008800FM-15+0005EDDW V0202801N00361011101CN0112651N1+00801+00701999999ADDGF107991999999999999999999MA1100101999999MW1611REMMET080METAR EDDW 011250Z 28007KT 9999 -RA SCT008 SCT037 BKN120 08/07 Q1001 RERA NOSIG;
0134102240999992013010113204+53050+008800FM-15+0005EDDW V0202601N00311011101CN0112651N1+00701+00601999999ADDGF107991999999999999999999MA1100101999999MW1611REMMET075METAR EDDW 011320Z 26006KT 9999 -RA SCT004 SCT037 BKN120 07/06 Q1001 NOSIG;
0137102240999992013010113504+53050+008800FM-15+0005EDDW V0202601N002610015019N0070001N1+00701+00701999999ADDGF107991999999999999999999MA1100101999999MW1631REMMET078METAR EDDW 011350Z 26005KT 7000 RA BKN005 BKN012 07/07 Q1001 BECMG NSW BKN012;
0139102240999992013010114204+53050+008800FM-15+0005EDDW V0202801N00151005401CN0112651N1+00701+00601999999ADDGF107991999999999999999999MA1100201999999MW1611REMMET080METAR EDDW 011420Z 28003KT 9999 -RA FEW005 SCT018 BKN120 07/06 Q1002 RERA NOSIG;
0117102240999992013010114504+53050+008800FM-15+0005EDDW V0202801N004610036019N0112651N1+00701+00601999999ADDGF107991999999999999999999MA1100201999999REMMET064METAR EDDW 011450Z 28009KT 9999 BKN012 BKN120 07/06 Q1002 NOSIG;
0124102240999992013010115204+53050+008800FM-15+0005EDDW V0202701N005110180019N0112651N1+00701+00501999999ADDGF107991999999999999999999MA1100311999999REMMET071METAR EDDW 011520Z 27010KT 9999 SCT013 BKN060 BKN120 07/05 Q1003 NOSIG;
0134102240999992013010115504+53050+008800FM-15+0005EDDW V0202701N00411004501CN0112651N1+00701+00501999999ADDGF107991999999999999999999MA1100311999999MW1611REMMET075METAR EDDW 011550Z 27008KT 9999 -RA FEW009 SCT015 BKN120 07/05 Q1003 NOSIG;
0127102240999992013010116204+53050+008800FM-15+0005EDDW V0202601N005110045019N0112651N1+00701+00501999999ADDGF107991999999999999999999MA1100411999999MW1611REMMET068METAR EDDW 011620Z 26010KT 9999 -RA BKN015 BKN120 07/05 Q1004 NOSIG;
0117102240999992013010116504+53050+008800FM-15+0005EDDW V0202501N004110360019N0112651N1+00601+00401999999ADDGF107991999999999999999999MA1100411999999REMMET064METAR EDDW 011650Z 25008KT 9999 SCT015 BKN120 06/04 Q1004 NOSIG;
0117102240999992013010117204+53050+008800FM-15+0005EDDW V0202501N004110360019N0112651N1+00501+00301999999ADDGF107991999999999999999999MA1100411999999REMMET064METAR EDDW 011720Z 25008KT 9999 FEW015 BKN120 05/03 Q1004 NOSIG;
0110102240999992013010117504+53050+008800FM-15+0005EDDW V0202501N003612200019N0112651N1+00401+00301999999ADDGF102991999999999999999999MA1100511999999REMMET057METAR EDDW 011750Z 25007KT 9999 FEW022 04/03 Q1005 NOSIG;
0110102240999992013010118204+53050+008800FM-15+0005EDDW V0202501N004612200019N0112651N1+00501+00301999999ADDGF102991999999999999999999MA1100611999999REMMET057METAR EDDW 011820Z 25009KT 9999 FEW022 05/03 Q1006 NOSIG;
0110102240999992013010118504+53050+008800FM-15+0005EDDW V0202401N004112200019N0112651N1+00401+00301999999ADDGF102991999999999999999999MA1100611999999REMMET057METAR EDDW 011850Z 24008KT 9999 FEW022 04/03 Q1006 NOSIG;
0078102240999992013010119204+53050+008800FM-15+0005EDDW V0202401N004619999999Y0099001N1+00401+00201999999ADDMA1100611999999REMMET051METAR EDDW 011920Z 24009KT CAVOK 04/02 Q1006 NOSIG;
0110102240999992013010119504+53050+008800FM-15+0005EDDW V0202401N005112200019N0112651N1+00401+00201999999ADDGF102991999999999999999999MA1100711999999REMMET057METAR EDDW 011950Z 24010KT 9999 FEW048 04/02 Q1007 NOSIG;
0078102240999992013010120204+53050+008800FM-15+0005EDDW V0202401N005719999999Y0099001N1+00401+00201999999ADDMA1100711999999REMMET051METAR EDDW 012020Z 24011KT CAVOK 04/02 Q1007 NOSIG;
0110102240999992013010120504+53050+008800FM-15+0005EDDW V0202401N006212200019N0112651N1+00401+00301999999ADDGF104991999999999999999999MA1100711999999REMMET057METAR EDDW 012050Z 24012KT 9999 SCT042 04/03 Q1007 NOSIG;
0104102240999992013010121204+53050+008800FM-15+0005EDDW V0202401N005712200019N0112651N1+00401+00301999999ADDGF104991999999999999999999MA1100711999999REMMET051METAR EDDW 012120Z 24011KT 9999 SCT046 04/03 Q1007;
0104102240999992013010121504+53050+008800FM-15+0005EDDW V0202401N006210138019N0112651N1+00501+00301999999ADDGF107991999999999999999999MA1100811999999REMMET051METAR EDDW 012150Z 24012KT 9999 BKN046 05/03 Q1008;
0104102240999992013010122204+53050+008800FM-15+0005EDDW V0202401N006210126019N0112651N1+00401+00201999999ADDGF107991999999999999999999MA1100811999999REMMET051METAR EDDW 012220Z 24012KT 9999 BKN042 04/02 Q1008;
0104102240999992013010122504+53050+008800FM-15+0005EDDW V0202301N005110126019N0112651N1+00501+00301999999ADDGF107991999999999999999999MA1100811999999REMMET051METAR EDDW 012250Z 23010KT 9999 BKN042 05/03 Q1008;
0111102240999992013010123204+53050+008800FM-15+0005EDDW V0202301N005110126019N0112651N1+00401+00301999999ADDGF107991999999999999999999MA1100811999999REMMET058METAR EDDW 012320Z 23010KT 9999 FEW016 BKN042 04/03 Q1008;
0104102240999992013010123504+53050+008800FM-15+0005EDDW V0202301N005710045019N0112651N1+00501+00301999999ADDGF107991999999999999999999MA1100811999999REMMET051METAR EDDW 012350Z 23011KT 9999 BKN015 05/03 Q1008;
0111102240999992013010200204+53050+008800FM-15+0005EDDW V0202301N005710126019N0112651N1+00501+00301999999ADDGF107991999999999999999999MA1100811999999REMMET058METAR EDDW 020020Z 23011KT 9999 SCT015 BKN042 05/03 Q1008;
0104102240999992013010200504+53050+008800FM-15+0005EDDW V0202401N006710045019N0112651N1+00501+00301999999ADDGF107991999999999999999999MA1100911999999REMMET051METAR EDDW 020050Z 24013KT 9999 BKN015 05/03 Q1009;
0104102240999992013010201204+53050+008800FM-15+0005EDDW V0202401N006710042019N0112651N1+00501+00301999999ADDGF107991999999999999999999MA1100911999999REMMET051METAR EDDW 020120Z 24013KT 9999 BKN014 05/03 Q1009;
0104102240999992013010201504+53050+008800FM-15+0005EDDW V0202401N007210036019N0112651N1+00501+00301999999ADDGF107991999999999999999999MA1101021999999REMMET051METAR EDDW 020150Z 24014KT 9999 BKN012 05/03 Q1010;
0104102240999992013010202204+53050+008800FM-15+0005EDDW V0202401N007710045019N0112651N1+00501+00301999999ADDGF107991999999999999999999MA1101021999999REMMET051METAR EDDW 020220Z 24015KT 9999 BKN015 05/03 Q1010;
0114102240999992013010202504+53050+008800FM-15+0005EDDW V0202401N007210045019N0112651N1+00401+00301999999ADDGF107991999999999999999999MA1101021999999MW1611REMMET055METAR EDDW 020250Z 24014KT 9999 -RA BKN015 04/03 Q1010;
0121102240999992013010203204+53050+008800FM-15+0005EDDW V0202401N007210045019N0112651N1+00401+00301999999ADDGF107991999999999999999999MA1101021999999MW1611REMMET062METAR EDDW 020320Z 24014KT 9999 -RA FEW010 BKN015 04/03 Q1010;
0157102240999992013010203504+53050+008800FM-15+0005EDDW V0202501N006210054019N0112651N1+00501+00301999999ADDGF107991999999999999999999MA1101081999999MW1801REMMET098METAR EDDW 020350Z 25012KT 9999 -SHRA FEW010 BKN018 05/03 Q1011 TEMPO 25015G25KT 4500 SHRA BKN008;
0157102240999992013010204204+53050+008800FM-15+0005EDDW V0202501N007210054019N0112651N1+00501+00301999999ADDGF107991999999999999999999MA1101081999999MW1801REMMET098METAR EDDW 020420Z 25014KT 9999 -SHRA FEW010 BKN018 05/03 Q1011 TEMPO 25015G25KT 4500 SHRA BKN008;
0145102240999992013010204504+53050+008800FM-15+0005EDDW V0202501N006710054019N0112651N1+00501+00301999999ADDGF107991999999999999999999MA1101191999999REMMET092METAR EDDW 020450Z 25013KT 9999 FEW010 BKN018 05/03 Q1012 TEMPO 25015G25KT 4500 SHRA BKN008;
0145102240999992013010205204+53050+008800FM-15+0005EDDW V0202501N006710075019N0112651N1+00501+00401999999ADDGF107991999999999999999999MA1101191999999REMMET092METAR EDDW 020520Z 25013KT 9999 FEW013 BKN025 05/04 Q1012 TEMPO 25015G25KT 4500 SHRA BKN008;
0155102240999992013010205504+53050+008800FM-15+0005EDDW V0202601N006210075019N0112651N1+00501+00401999999ADDGF107991999999999999999999MA1101291999999MW1611REMMET096METAR EDDW 020550Z 26012KT 9999 -RA FEW013 BKN025 05/04 Q1013 TEMPO 25015G25KT 4500 SHRA BKN012;
0145102240999992013010206204+53050+008800FM-15+0005EDDW V0202601N006210105019N0112651N1+00501+00401999999ADDGF107991999999999999999999MA1101291999999REMMET092METAR EDDW 020620Z 26012KT 9999 FEW011 BKN035 05/04 Q1013 TEMPO 25015G25KT 4500 SHRA BKN012;
0162102240999992013010206504+53050+008800FM-15+0005EDDW V0202701N007210039019N0112651N1+00501+00401999999ADDGF107991999999999999999999MA1101391999999MW1611REMMET103METAR EDDW 020650Z 27014KT 9999 -RA FEW005 BKN013 BKN030 05/04 Q1014 TEMPO 25015G25KT 4500 SHRA BKN015;
0155102240999992013010207204+53050+008800FM-15+0005EDDW V0202701N006710090019N0112651N1+00501+00301999999ADDGF107991999999999999999999MA1101391999999MW1611REMMET096METAR EDDW 020720Z 27013KT 9999 -RA FEW011 BKN030 05/03 Q1014 TEMPO 25015G25KT 4500 SHRA BKN012;
0161102240999992013010207504+53050+008800FM-15+0005EDDW V0202601N00621004201CN0090001N1+00501+00301999999ADDGF107991999999999999999999MA1101491999999MW1811REMMET102METAR EDDW 020750Z 26012KT 9000 SHRA FEW008 SCT014TCU BKN035 05/03 Q1015 TEMPO 25015G25KT 4500 BKN012;
0159102240999992013010208204+53050+008800FM-15+0005EDDW V0202501N00571003901CN0112651N1+00501+00401999999ADDGF107991999999999999999999MA1101491999999MW1801REMMET100METAR EDDW 020820Z 25011KT 9999 -SHRA FEW008 SCT013 BKN035 05/04 Q1015 RERA TEMPO 25015G25KT BKN012;
0109102240999992013010208504+53050+008800FM-15+0005EDDW V0202601N00671003001CN0112651N1+00601+00401999999ADDMA1101591999999REMMET082METAR EDDW 020850Z 26013KT 9999 BKN010 SCT035 06/04 Q1016 TEMPO 25015G25KT BKN015;
0109102240999992013010209204+53050+008800FM-15+0005EDDW V0202601N00621003001CN0112651N1+00601+00401999999ADDMA1101691999999REMMET082METAR EDDW 020920Z 26012KT 9999 BKN010 SCT035 06/04 Q1017 TEMPO 25015G25KT BKN015;
0128102240999992013010209504+53050+008800FM-15+0005EDDW V0202501N006212200019N0112651N1+00601+00401999999ADDGF104991999999999999999999MA1101691999999REMMET075METAR EDDW 020950Z 25012KT 9999 FEW010 SCT035 06/04 Q1017 TEMPO 25015G25KT;
0109102240999992013010210204+53050+008800FM-15+0005EDDW V0202601N00671003001CN0112651N1+00601+00401999999ADDMA1101801999999REMMET082METAR EDDW 021020Z 26013KT 9999 BKN010 SCT035 06/04 Q1018 TEMPO 25015G25KT BKN015;
0147102240999992013010210504+53050+008800FM-15+0005EDDW V0202501N006210090019N0112651N1+00601+00501999999ADDGF107991999999999999999999MA1101801999999MW1801REMMET088METAR EDDW 021050Z 25012KT 9999 -SHRA SCT010 BKN030 06/05 Q1018 TEMPO 25015G25KT BKN010;
0135102240999992013010211204+53050+008800FM-15+0005EDDW V0202501N005710090019N0112651N1+00601+00501999999ADDGF107991999999999999999999MA1101901999999REMMET082METAR EDDW 021120Z 25011KT 9999 SCT010 BKN030 06/05 Q1019 TEMPO 25015G25KT BKN010;
0124102240999992013010211504+53050+008800FM-15+0005EDDW V0202601N006210036019N0112651N1+00701+00501999999ADDGF107991999999999999999999MA1101901999999REMMET071METAR EDDW 021150Z 26012KT 9999 BKN012 BKN040 07/05 Q1019 BECMG BKN015;
0124102240999992013010212204+53050+008800FM-15+0005EDDW V0202501N006710039019N0112651N1+00701+00501999999ADDGF107991999999999999999999MA1101901999999REMMET071METAR EDDW 021220Z 25013KT 9999 BKN013 BKN040 07/05 Q1019 TEMPO BKN015;
0098102240999992013010212504+53050+008800FM-15+0005EDDW V0202601N00621003901CN0112651N1+00701+00501999999ADDMA1101901999999REMMET071METAR EDDW 021250Z 26012KT 9999 BKN013 SCT040 07/05 Q1019 TEMPO BKN015;
0098102240999992013010213204+53050+008800FM-15+0005EDDW V0202601N00671003901CN0112651N1+00701+00501999999ADDMA1102001999999REMMET071METAR EDDW 021320Z 26013KT 9999 BKN013 SCT040 07/05 Q1020 TEMPO BKN015;
0091102240999992013010213504+53050+008800FM-15+0005EDDW V0202501N00511003901CN0112651N1+00701+00501999999ADDMA1102001999999REMMET064METAR EDDW 021350Z 25010KT 9999 BKN013 SCT040 07/05 Q1020 NOSIG;
0117102240999992013010214204+53050+008800FM-15+0005EDDW V0202501N006710120019N0112651N1+00701+00501999999ADDGF107991999999999999999999MA1102001999999REMMET064METAR EDDW 021420Z 25013KT 9999 FEW013 BKN040 07/05 Q1020 NOSIG;
0117102240999992013010214504+53050+008800FM-15+0005EDDW V0202501N006210135019N0112651N1+00701+00401999999ADDGF107991999999999999999999MA1102101999999REMMET064METAR EDDW 021450Z 25012KT 9999 FEW014 BKN045 07/04 Q1021 NOSIG;
0117102240999992013010215204+53050+008800FM-15+0005EDDW V0202501N005112200019N0112651N1+00601+00401999999ADDGF104991999999999999999999MA1102101999999REMMET064METAR EDDW 021520Z 25010KT 9999 FEW014 SCT045 06/04 Q1021 NOSIG;
0124102240999992013010215504+53050+008800FM-15+0005EDDW V0202401N00411006001CN0112651N1+00601+00401999999ADDGF107991999999999999999999MA1102101999999REMMET071METAR EDDW 021550Z 24008KT 9999 FEW013 SCT020 BKN040 06/04 Q1021 NOSIG;
0124102240999992013010216204+53050+008800FM-15+0005EDDW V0202401N00511006001CN0112651N1+00601+00401999999ADDGF107991999999999999999999MA1102101999999REMMET071METAR EDDW 021620Z 24010KT 9999 FEW013 SCT020 BKN040 06/04 Q1021 NOSIG;
0110102240999992013010216504+53050+008800FM-15+0005EDDW V0202401N005710120019N0112651N1+00601+00401999999ADDGF107991999999999999999999MA1102201999999REMMET057METAR EDDW 021650Z 24011KT 9999 BKN040 06/04 Q1022 NOSIG;
0117102240999992013010217204+53050+008800FM-15+0005EDDW V0202401N004610120019N0112651N1+00601+00401999999ADDGF107991999999999999999999MA1102201999999REMMET064METAR EDDW 021720Z 24009KT 9999 FEW020 BKN040 06/04 Q1022 NOSIG;
0117102240999992013010217504+53050+008800FM-15+0005EDDW V0202401N005110108019N0112651N1+00601+00401999999ADDGF107991999999999999999999MA1102201999999REMMET064METAR EDDW 021750Z 24010KT 9999 FEW020 BKN036 06/04 Q1022 NOSIG;
0110102240999992013010218204+53050+008800FM-15+0005EDDW V0202301N004110108019N0112651N1+00601+00401999999ADDGF107991999999999999999999MA1102301999999REMMET057METAR EDDW 021820Z 23008KT 9999 BKN036 06/04 Q1023 NOSIG;
0117102240999992013010218504+53050+008800FM-15+0005EDDW V0202301N005110111019N0112651N1+00601+00401999999ADDGF107991999999999999999999MA1102301999999REMMET064METAR EDDW 021850Z 23010KT 9999 SCT018 BKN037 06/04 Q1023 NOSIG;
0117102240999992013010219204+53050+008800FM-15+0005EDDW V0202201N003610096019N0112651N1+00601+00401999999ADDGF107991999999999999999999MA1102301999999REMMET064METAR EDDW 021920Z 22007KT 9999 SCT018 BKN032 06/04 Q1023 NOSIG;
0124102240999992013010219504+53050+008800FM-15+0005EDDW V0202201N004110096019N0112651N1+00601+00401999999ADDGF107991999999999999999999MA1102301999999REMMET071METAR EDDW 021950Z 22008KT 9999 FEW018 BKN032 06/04 Q1023 TEMPO BKN014;
0117102240999992013010220204+53050+008800FM-15+0005EDDW V0202301N004610063019N0112651N1+00601+00401999999ADDGF107991999999999999999999MA1102301999999REMMET064METAR EDDW 022020Z 23009KT 9999 BKN021 06/04 Q1023 TEMPO BKN014;
0117102240999992013010220504+53050+008800FM-15+0005EDDW V0202301N004110045019N0112651N1+00601+00401999999ADDGF107991999999999999999999MA1102301999999REMMET064METAR EDDW 022050Z 23008KT 9999 BKN015 06/04 Q1023 BECMG BKN014;
0111102240999992013010221204+53050+008800FM-15+0005EDDW V0202301N005110084019N0112651N1+00601+00401999999ADDGF107991999999999999999999MA1102301999999REMMET058METAR EDDW 022120Z 23010KT 9999 SCT015 BKN028 06/04 Q1023;
0121102240999992013010221504+53050+008800FM-15+0005EDDW V0202301N005110066019N0112651N1+00601+00501999999ADDGF107991999999999999999999MA1102201999999MW1611REMMET062METAR EDDW 022150Z 23010KT 9999 -RA FEW015 BKN022 06/05 Q1022;
0114102240999992013010222204+53050+008800FM-15+0005EDDW V0202201N004610036019N0112651N1+00601+00501999999ADDGF107991999999999999999999MA1102201999999MW1611REMMET055METAR EDDW 022220Z 22009KT 9999 -RA BKN012 06/05 Q1022;
0121102240999992013010222504+53050+008800FM-15+0005EDDW V0202201N004610036019N0112651N1+00601+00501999999ADDGF107991999999999999999999MA1102201999999MW1611REMMET062METAR EDDW 022250Z 22009KT 9999 -RA FEW003 BKN012 06/05 Q1022;
0121102240999992013010223204+53050+008800FM-15+0005EDDW V0202201N004610036019N0112651N1+00601+00501999999ADDGF107991999999999999999999MA1102201999999MW1611REMMET062METAR EDDW 022320Z 22009KT 9999 -RA FEW003 BKN012 06/05 Q1022;
0121102240999992013010223504+53050+008800FM-15+0005EDDW V0202201N005710027019N0112651N1+00601+00501999999ADDGF107991999999999999999999MA1102201999999MW1611REMMET062METAR EDDW 022350Z 22011KT 9999 -RA SCT006 BKN009 06/05 Q1022;
0121102240999992013010300204+53050+008800FM-15+0005EDDW V0202201N005710033019N0112651N1+00601+00501999999ADDGF107991999999999999999999MA1102101999999MW1611REMMET062METAR EDDW 030020Z 22011KT 9999 -RA SCT006 BKN011 06/05 Q1021;
0104102240999992013010300504+53050+008800FM-15+0005EDDW V0202201N006710024019N0112651N1+00601+00501999999ADDGF107991999999999999999999MA1102101999999REMMET051METAR EDDW 030050Z 22013KT 9999 BKN008 06/05 Q1021;
0104102240999992013010301204+53050+008800FM-15+0005EDDW V0202201N006710021019N0112651N1+00601+00501999999ADDGF107991999999999999999999MA1102101999999REMMET051METAR EDDW 030120Z 22013KT 9999 BKN007 06/05 Q1021;
0104102240999992013010301504+53050+008800FM-15+0005EDDW V0202201N006710021019N0112651N1+00601+00501999999ADDGF107991999999999999999999MA1102101999999REMMET051METAR EDDW 030150Z 22013KT 9999 BKN007 06/05 Q1021;
0114102240999992013010302204+53050+008800FM-15+0005EDDW V0202301N007710015019N0112651N1+00601+00501999999ADDGF107991999999999999999999MA1102001999999MW1611REMMET055METAR EDDW 030220Z 23015KT 9999 -RA BKN005 06/05 Q1020;
0114102240999992013010302504+53050+008800FM-15+0005EDDW V0202401N007710009019N0112651N1+00701+00601999999ADDGF107991999999999999999999MA1102001999999MW1611REMMET055METAR EDDW 030250Z 24015KT 9999 -RA BKN003 07/06 Q1020;
0122102240999992013010303204+53050+008800FM-15+0005EDDW V0202401N008210018019N0112651N1+00701+00601999999ADDGF107991999999999999999999MA1102001999999MW1511MW2611REMMET057METAR EDDW 030320Z 24016KT 9999 -RADZ BKN006 07/06 Q1020;
0156102240999992013010303504+53050+008800FM-15+0005EDDW V0202401N008210018019N0060001N1+00701+00601999999ADDGF107991999999999999999999MA1102001999999MW1511MW2611REMMET091METAR EDDW 030350Z 24016KT 6000 -RADZ BKN006 07/06 Q1020 TEMPO 24015G25KT 4000 RADZ BKN004;
0148102240999992013010304204+53050+008800FM-15+0005EDDW V0202501N008210021019N0060001N1+00801+00701999999ADDGF107991999999999999999999MA1102101999999MW1511REMMET089METAR EDDW 030420Z 25016KT 6000 -DZ BKN007 08/07 Q1021 TEMPO 24015G25KT 4000 RADZ BKN004;
0148102240999992013010304504+53050+008800FM-15+0005EDDW V0202501N007210015019N0050001N1+00801+00701999999ADDGF107991999999999999999999MA1102101999999MW1511REMMET089METAR EDDW 030450Z 25014KT 5000 -DZ BKN005 08/07 Q1021 TEMPO 24015G25KT 4000 RADZ BKN004;
0148102240999992013010305204+53050+008800FM-15+0005EDDW V0202501N008210015019N0050001N1+00801+00701999999ADDGF107991999999999999999999MA1102101999999MW1511REMMET089METAR EDDW 030520Z 25016KT 5000 -DZ BKN005 08/07 Q1021 TEMPO 24015G25KT 4000 RADZ BKN004;
0136102240999992013010305504+53050+008800FM-15+0005EDDW V0202501N007210012019N0035001N1+00801+00801999999ADDGF107991999999999999999999MA1102001999999MW1511REMMET077METAR EDDW 030550Z 25014KT 3500 -DZ BKN004 08/08 Q1020 TEMPO 24015G25KT RADZ;
0164102240999992013010306204+53050+008800FM-15+0005EDDW V0202501N007210018019N0040001N1+00901+00801999999ADDGF107991999999999999999999MA1102101999999MW1101MW2511REMMET099METAR EDDW 030620Z 25014KT 4000 -DZ BR SCT004 BKN006 09/08 Q1021 TEMPO 24015G25KT 2500 DZRA BKN004;
0164102240999992013010306504+53050+008800FM-15+0005EDDW V0202601N007710015019N0040001N1+00901+00801999999ADDGF107991999999999999999999MA1102101999999MW1101MW2511REMMET099METAR EDDW 030650Z 26015KT 4000 -DZ BR SCT004 BKN005 09/08 Q1021 TEMPO 24015G25KT 2500 DZRA BKN004;
0164102240999992013010307504+53050+008800FM-15+0005EDDW V0202601N007710021019N0038001N1+00901+00901999999ADDGF107991999999999999999999MA1102201999999MW1101MW2511REMMET099METAR EDDW 030750Z 26015KT 3800 -DZ BR SCT005 BKN007 09/09 Q1022 TEMPO 24015G25KT 2500 DZRA BKN004;
0164102240999992013010308204+53050+008800FM-15+0005EDDW V0202501N007710021019N0038001N1+01001+00901999999ADDGF107991999999999999999999MA1102201999999MW1101MW2511REMMET099METAR EDDW 030820Z 25015KT 3800 -DZ BR SCT004 BKN007 10/09 Q1022 TEMPO 24015G25KT 2500 DZRA BKN004;
0164102240999992013010308504+53050+008800FM-15+0005EDDW V0202601N008710024019N0038001N1+01001+00901999999ADDGF107991999999999999999999MA1102201999999MW1101MW2511REMMET099METAR EDDW 030850Z 26017KT 3800 -DZ BR SCT004 BKN008 10/09 Q1022 TEMPO 24015G25KT 2500 DZRA BKN004;
0164102240999992013010309204+53050+008800FM-15+0005EDDW V0202701N008210018019N0032001N1+01001+00901999999ADDGF107991999999999999999999MA1102301999999MW1101MW2511REMMET099METAR EDDW 030920Z 27016KT 3200 -DZ BR SCT003 BKN006 10/09 Q1023 TEMPO 24015G25KT 2500 DZRA BKN004;
0152102240999992013010309504+53050+008800FM-15+0005EDDW V0202701N007710018019N0040001N1+01001+00901999999ADDGF107991999999999999999999MA1102301999999MW1101MW2511REMMET087METAR EDDW 030950Z 27015KT 4000 -DZ BR SCT003 BKN006 10/09 Q1023 TEMPO 24015G25KT 6000;
0137102240999992013010310204+53050+008800FM-15+0005EDDW V0202701N007710021019N0050001N1+01001+00901999999ADDGF107991999999999999999999MA1102301999999MW1101REMMET078METAR EDDW 031020Z 27015KT 5000 BR FEW004 BKN007 10/09 Q1023 TEMPO 28015G25KT;
0128102240999992013010310504+53050+008800FM-15+0005EDDW V0202601N008210024019N0060001N1+01101+00901999999ADDGF107991999999999999999999MA1102301999999REMMET075METAR EDDW 031050Z 26016KT 6000 BKN008 BKN011 11/09 Q1023 TEMPO 28015G25KT;
0128102240999992013010311204+53050+008800FM-15+0005EDDW V0202701N008210024019N0070001N1+01101+00901999999ADDGF107991999999999999999999MA1102401999999REMMET075METAR EDDW 031120Z 27016KT 7000 BKN008 11/09 Q1024 TEMPO 28015G25KT BKN010;
0138102240999992013010311504+53050+008800FM-15+0005EDDW V0202701N008210027019N0080001N1+01101+00901999999ADDGF107991999999999999999999MA1102301999999MW1511REMMET079METAR EDDW 031150Z 27016KT 8000 -DZ BKN009 11/09 Q1023 TEMPO 28015G25KT BKN012;
0128102240999992013010312204+53050+008800FM-15+0005EDDW V0202601N007210027019N0112651N1+01101+00901999999ADDGF107991999999999999999999MA1102401999999REMMET075METAR EDDW 031220Z 26014KT 9999 BKN009 11/09 Q1024 TEMPO 28015G25KT BKN012;
0128102240999992013010312504+53050+008800FM-15+0005EDDW V0202601N007210024019N0112651N1+01101+00901999999ADDGF107991999999999999999999MA1102401999999REMMET075METAR EDDW 031250Z 26014KT 9999 BKN008 11/09 Q1024 TEMPO 28015G25KT BKN012;
0128102240999992013010313204+53050+008800FM-15+0005EDDW V0202601N007210024019N0112651N1+01001+00901999999ADDGF107991999999999999999999MA1102401999999REMMET075METAR EDDW 031320Z 26014KT 9999 BKN008 10/09 Q1024 TEMPO 28015G25KT BKN012;
0138102240999992013010313504+53050+008800FM-15+0005EDDW V0202701N007210024019N0112651N1+01001+00901999999ADDGF107991999999999999999999MA1102401999999MW1511REMMET079METAR EDDW 031350Z 27014KT 9999 -DZ BKN008 BKN010 10/09 Q1024 TEMPO 28015G25KT;
0138102240999992013010314204+53050+008800FM-15+0005EDDW V0202701N006710024019N0112651N1+01001+00901999999ADDGF107991999999999999999999MA1102401999999MW1511REMMET079METAR EDDW 031420Z 27013KT 9999 -DZ BKN008 BKN010 10/09 Q1024 TEMPO 28015G25KT;
0134102240999992013010314504+53050+008800FM-15+0005EDDW V0202701N006710024019N0070001N1+01001+00901999999ADDGF107991999999999999999999MA1102511999999MW1511REMMET075METAR EDDW 031450Z 27013KT 7000 -DZ BKN008 BKN011 10/09 Q1025 TEMPO BKN012;
0151102240999992013010315204+53050+008800FM-15+0005EDDW V0202801N006710024019N0035001N1+01001+00901999999ADDGF107991999999999999999999MA1102611999999MW1101MW2531REMMET086METAR EDDW 031520Z 28013KT 3500 DZ BR BKN008 BKN011 10/09 Q1026 TEMPO 8000 NSW BKN010;
0152102240999992013010315504+53050+008800FM-15+0005EDDW V0202901N006710024019N0040001N1+01001+00901999999ADDGF107991999999999999999999MA1102611999999MW1101MW2511REMMET087METAR EDDW 031550Z 29013KT 4000 -DZ BR BKN008 BKN011 10/09 Q1026 TEMPO 8000 NSW BKN010;
0143102240999992013010316204+53050+008800FM-15+0005EDDW V0203001N006710015019N0040001N1+01001+00901999999ADDGF107991999999999999999999MA1102711999999MW1101MW2511REMMET078METAR EDDW 031620Z 30013KT 4000 -DZ BR BKN005 BKN008 10/09 Q1027 TEMPO BKN010;
0148102240999992013010316504+53050+008800FM-15+0005EDDW V0202801N005710015019N0070001N1+00901+00901999999ADDGF107991999999999999999999MA1102711999999MW1101MW2511REMMET083METAR EDDW 031650Z 28011KT 7000 -DZ BR BKN005 BKN008 09/09 Q1027 REDZ TEMPO BKN010;
0117102240999992013010317204+53050+008800FM-15+0005EDDW V0202701N005110024019N0112651N1+00901+00801999999ADDGF107991999999999999999999MA1102711999999REMMET064METAR EDDW 031720Z 27010KT 9999 BKN008 09/08 Q1027 TEMPO BKN010;
0117102240999992013010317504+53050+008800FM-15+0005EDDW V0202701N005110024019N0112651N1+00901+00801999999ADDGF107991999999999999999999MA1102711999999REMMET064METAR EDDW 031750Z 27010KT 9999 BKN008 09/08 Q1027 TEMPO BKN010;
0131102240999992013010318204+53050+008800FM-15+0005EDDW V0202701N00571003001CN0112651N1+00901+00801999999ADDGF107991999999999999999999MA1102711999999REMMET078METAR EDDW 031820Z 27011KT 9999 FEW006 SCT010 BKN035 09/08 Q1027 TEMPO BKN010;
0124102240999992013010318504+53050+008800FM-15+0005EDDW V0202801N006210024019N0112651N1+00901+00801999999ADDGF107991999999999999999999MA1102811999999REMMET071METAR EDDW 031850Z 28012KT 9999 FEW006 BKN008 09/08 Q1028 TEMPO BKN010;
0124102240999992013010319204+53050+008800FM-15+0005EDDW V0202801N006210024019N0112651N1+00901+00801999999ADDGF107991999999999999999999MA1102811999999REMMET071METAR EDDW 031920Z 28012KT 9999 FEW006 BKN008 09/08 Q1028 TEMPO BKN010;
0124102240999992013010319504+53050+008800FM-15+0005EDDW V0202901N00511002701CN0112651N1+00901+00801999999ADDGF107991999999999999999999MA1102911999999REMMET071METAR EDDW 031950Z 29010KT 9999 FEW006 SCT009 BKN048 09/08 Q1029 NOSIG;
0117102240999992013010320204+53050+008800FM-15+0005EDDW V0202701N004112200019N0112651N1+00901+00801999999ADDGF104991999999999999999999MA1102911999999REMMET064METAR EDDW 032020Z 27008KT 9999 FEW009 SCT048 09/08 Q1029 NOSIG;
0117102240999992013010320504+53050+008800FM-15+0005EDDW V0202801N005110138019N0112651N1+00801+00701999999ADDGF107991999999999999999999MA1102911999999REMMET064METAR EDDW 032050Z 28010KT 9999 FEW009 BKN046 08/07 Q1029 NOSIG;
0111102240999992013010321204+53050+008800FM-15+0005EDDW V0202801N005110138019N0112651N1+00801+00701999999ADDGF107991999999999999999999MA1103011999999REMMET058METAR EDDW 032120Z 28010KT 9999 FEW009 BKN046 08/07 Q1030;
0104102240999992013010321504+53050+008800FM-15+0005EDDW V0202701N005112200019N0112651N1+00801+00701999999ADDGF104991999999999999999999MA1103011999999REMMET051METAR EDDW 032150Z 27010KT 9999 SCT046 08/07 Q1030;
0072102240999992013010322204+53050+008800FM-15+0005EDDW V0202701N004619999999Y0099001N1+00701+00601999999ADDMA1103011999999REMMET045METAR EDDW 032220Z 27009KT CAVOK 07/06 Q1030;
0111102240999992013010322504+53050+008800FM-15+0005EDDW V0202701N005712200019N0112651N1+00701+00601999999ADDGF104991999999999999999999MA1103011999999REMMET058METAR EDDW 032250Z 27011KT 9999 FEW008 SCT130 07/06 Q1030;
0104102240999992013010323204+53050+008800FM-15+0005EDDW V0202701N006210024019N0112651N1+00801+00601999999ADDGF107991999999999999999999MA1103011999999REMMET051METAR EDDW 032320Z 27012KT 9999 BKN008 08/06 Q1030;
0104102240999992013010323504+53050+008800FM-15+0005EDDW V0202701N005110024019N0112651N1+00701+00601999999ADDGF107991999999999999999999MA1103121999999REMMET051METAR EDDW 032350Z 27010KT 9999 BKN008 07/06 Q1031;
0104102240999992013010400204+53050+008800FM-15+0005EDDW V0202701N005710024019N0112651N1+00701+00601999999ADDGF107991999999999999999999MA1103011999999REMMET051METAR EDDW 040020Z 27011KT 9999 BKN008 07/06 Q1030;
0104102240999992013010400504+53050+008800FM-15+0005EDDW V0202701N005110024019N0112651N1+00801+00601999999ADDGF107991999999999999999999MA1103011999999REMMET051METAR EDDW 040050Z 27010KT 9999 BKN008 08/06 Q1030;
0104102240999992013010401204+53050+008800FM-15+0005EDDW V0202701N005710030019N0112651N1+00801+00601999999ADDGF107991999999999999999999MA1103011999999REMMET051METAR EDDW 040120Z 27011KT 9999 BKN010 08/06 Q1030;
0104102240999992013010401504+53050+008800FM-15+0005EDDW V0202701N006210030019N0112651N1+00801+00601999999ADDGF107991999999999999999999MA1103121999999REMMET051METAR EDDW 040150Z 27012KT 9999 BKN010 08/06 Q1031;
0104102240999992013010402204+53050+008800FM-15+0005EDDW V0202701N005110018019N0112651N1+00801+00701999999ADDGF107991999999999999999999MA1103011999999REMMET051METAR EDDW 040220Z 27010KT 9999 BKN006 08/07 Q1030;
0104102240999992013010402504+53050+008800FM-15+0005EDDW V0202701N006710018019N0112651N1+00801+00701999999ADDGF107991999999999999999999MA1103011999999REMMET051METAR EDDW 040250Z 27013KT 9999 BKN006 08/07 Q1030;
0104102240999992013010403204+53050+008800FM-15+0005EDDW V0202801N007710018019N0112651N1+00801+00701999999ADDGF107991999999999999999999MA1103011999999REMMET051METAR EDDW 040320Z 28015KT 9999 BKN006 08/07 Q1030;
0117102240999992013010403504+53050+008800FM-15+0005EDDW V0202701N005710015019N0112651N1+00801+00701999999ADDGF107991999999999999999999MA1103011999999REMMET064METAR EDDW 040350Z 27011KT 9999 BKN005 08/07 Q1030 TEMPO BKN004;
0117102240999992013010404204+53050+008800FM-15+0005EDDW V0202701N006710018019N0112651N1+00901+00701999999ADDGF107991999999999999999999MA1103011999999REMMET064METAR EDDW 040420Z 27013KT 9999 BKN006 09/07 Q1030 TEMPO BKN004;
0117102240999992013010404504+53050+008800FM-15+0005EDDW V0202701N007210018019N0112651N1+00901+00801999999ADDGF107991999999999999999999MA1103011999999REMMET064METAR EDDW 040450Z 27014KT 9999 BKN006 09/08 Q1030 TEMPO BKN004;
0117102240999992013010405204+53050+008800FM-15+0005EDDW V0202701N007210018019N0112651N1+00901+00801999999ADDGF107991999999999999999999MA1102911999999REMMET064METAR EDDW 040520Z 27014KT 9999 BKN006 09/08 Q1029 TEMPO BKN004;
0118102240999992013010405504+53050+008800FM-15+0005EDDW V0202701N005710012019N0112651N1+00901+00801999999ADDGF107991999999999999999999MA1102911999999REMMET065METAR EDDW 040550Z 27011KT 9999 BKN004 09/08 Q1029 TEMPO 3500 BR;
0118102240999992013010406204+53050+008800FM-15+0005EDDW V0202701N005710015019N0060001N1+00901+00801999999ADDGF107991999999999999999999MA1102911999999REMMET065METAR EDDW 040620Z 27011KT 6000 BKN005 09/08 Q1029 TEMPO 3500 BR;
0125102240999992013010406504+53050+008800FM-15+0005EDDW V0202701N005110012019N0050001N1+00901+00801999999ADDGF107991999999999999999999MA1102911999999MW1511REMMET066METAR EDDW 040650Z 27010KT 5000 -DZ BKN004 09/08 Q1029 TEMPO 3500;
0132102240999992013010407204+53050+008800FM-15+0005EDDW V0202701N005710012019N0050001N1+00901+00801999999ADDGF107991999999999999999999MA1103011999999MW1511REMMET073METAR EDDW 040720Z 27011KT 5000 -DZ BKN004 BKN006 09/08 Q1030 TEMPO 3500;
0136102240999992013010407504+53050+008800FM-15+0005EDDW V0202701N006210009019N0030001N1+00901+00901999999ADDGF107991999999999999999999MA1103011999999MW1101MW2511REMMET071METAR EDDW 040750Z 27012KT 3000 -DZ BR BKN003 BKN005 09/09 Q1030 NOSIG;
0136102240999992013010408204+53050+008800FM-15+0005EDDW V0202701N006710009019N0028001N1+00901+00901999999ADDGF107991999999999999999999MA1103011999999MW1101MW2511REMMET071METAR EDDW 040820Z 27013KT 2800 -DZ BR BKN003 BKN005 09/09 Q1030 NOSIG;
0136102240999992013010408504+53050+008800FM-15+0005EDDW V0202701N007210009019N0027001N1+00901+00901999999ADDGF107991999999999999999999MA1103011999999MW1101MW2511REMMET071METAR EDDW 040850Z 27014KT 2700 -DZ BR BKN003 BKN005 09/09 Q1030 NOSIG;
0136102240999992013010409204+53050+008800FM-15+0005EDDW V0202701N007710012019N0028001N1+00901+00901999999ADDGF107991999999999999999999MA1103011999999MW1101MW2511REMMET071METAR EDDW 040920Z 27015KT 2800 -DZ BR BKN004 BKN006 09/09 Q1030 NOSIG;
0136102240999992013010409504+53050+008800FM-15+0005EDDW V0202601N007210012019N0028001N1+00901+00901999999ADDGF107991999999999999999999MA1103011999999MW1101MW2511REMMET071METAR EDDW 040950Z 26014KT 2800 -DZ BR BKN004 BKN006 09/09 Q1030 NOSIG;
0136102240999992013010410204+53050+008800FM-15+0005EDDW V0202701N008210009019N0027001N1+00901+00901999999ADDGF107991999999999999999999MA1103011999999MW1101MW2511REMMET071METAR EDDW 041020Z 27016KT 2700 -DZ BR BKN003 BKN005 09/09 Q1030 NOSIG;
0129102240999992013010410504+53050+008800FM-15+0005EDDW V0202701N009310009019N0027001N1+00901+00901999999ADDGF107991999999999999999999MA1103011999999MW1101MW2511REMMET064METAR EDDW 041050Z 27018KT 2700 -DZ BR BKN003 09/09 Q1030 NOSIG;
0129102240999992013010411204+53050+008800FM-15+0005EDDW V0202701N009310009019N0027001N1+00901+00901999999ADDGF107991999999999999999999MA1102911999999MW1101MW2511REMMET064METAR EDDW 041120Z 27018KT 2700 -DZ BR BKN003 09/09 Q1029 NOSIG;
0124102240999992013010411504+53050+008800FM-15+0005EDDW V0202801N009310012019N0045001N1+00901+00801999999ADDGF107991999999999999999999MA1102911999999MW1101REMMET065METAR EDDW 041150Z 28018KT 4500 BR BKN004 09/08 Q1029 TEMPO 2500;
0131102240999992013010412204+53050+008800FM-15+0005EDDW V0202801N008710015019N0048001N1+00901+00801999999ADDGF107991999999999999999999MA1102911999999MW1101REMMET072METAR EDDW 041220Z 28017KT 4800 BR BKN005 09/08 Q1029 TEMPO 2500 BKN004;
0131102240999992013010412504+53050+008800FM-15+0005EDDW V0202801N008210015019N0048001N1+01001+00901999999ADDGF107991999999999999999999MA1102911999999MW1101REMMET072METAR EDDW 041250Z 28016KT 4800 BR BKN005 10/09 Q1029 TEMPO 2500 BKN004;
0131102240999992013010413204+53050+008800FM-15+0005EDDW V0202801N007210015019N0048001N1+01001+00901999999ADDGF107991999999999999999999MA1102911999999MW1101REMMET072METAR EDDW 041320Z 28014KT 4800 BR BKN005 10/09 Q1029 TEMPO 2500 BKN004;
0131102240999992013010413504+53050+008800FM-15+0005EDDW V0202801N007710015019N0048001N1+01001+00901999999ADDGF107991999999999999999999MA1102911999999MW1101REMMET072METAR EDDW 041350Z 28015KT 4800 BR BKN005 10/09 Q1029 TEMPO 2500 BKN004;
0131102240999992013010414204+53050+008800FM-15+0005EDDW V0202801N007710015019N0048001N1+01001+00901999999ADDGF107991999999999999999999MA1102911999999MW1101REMMET072METAR EDDW 041420Z 28015KT 4800 BR BKN005 10/09 Q1029 TEMPO 2500 BKN004;
0126102240999992013010414504+53050+008800FM-15+0005EDDW V0202801N007710018019N0048001N1+01001+00901999999ADDGF107991999999999999999999MA1102911999999MW1101REMMET067METAR EDDW 041450Z 28015KT 4800 BR BKN006 10/09 Q1029 TEMPO BKN004;
0126102240999992013010415204+53050+008800FM-15+0005EDDW V0202801N008210018019N0050001N1+01001+00901999999ADDGF107991999999999999999999MA1102911999999MW1101REMMET067METAR EDDW 041520Z 28016KT 5000 BR BKN006 10/09 Q1029 TEMPO BKN004;
0126102240999992013010415504+53050+008800FM-15+0005EDDW V0202801N009810018019N0050001N1+01001+00801999999ADDGF107991999999999999999999MA1102911999999MW1101REMMET067METAR EDDW 041550Z 28019KT 5000 BR BKN006 10/08 Q1029 TEMPO BKN004;
0117102240999992013010416204+53050+008800FM-15+0005EDDW V0202901N008210018019N0060001N1+01001+00801999999ADDGF107991999999999999999999MA1102911999999REMMET064METAR EDDW 041620Z 29016KT 6000 BKN006 10/08 Q1029 TEMPO BKN004;
0117102240999992013010416504+53050+008800FM-15+0005EDDW V0202901N007710018019N0060001N1+01001+00801999999ADDGF107991999999999999999999MA1102911999999REMMET064METAR EDDW 041650Z 29015KT 6000 BKN006 10/08 Q1029 TEMPO BKN004;
0110102240999992013010417204+53050+008800FM-15+0005EDDW V0202901N007710024019N0080001N1+01001+00801999999ADDGF107991999999999999999999MA1102911999999REMMET057METAR EDDW 041720Z 29015KT 8000 BKN008 10/08 Q1029 NOSIG;
0110102240999992013010417504+53050+008800FM-15+0005EDDW V0202901N007710027019N0112651N1+01001+00801999999ADDGF107991999999999999999999MA1102911999999REMMET057METAR EDDW 041750Z 29015KT 9999 BKN009 10/08 Q1029 NOSIG;
0110102240999992013010418204+53050+008800FM-15+0005EDDW V0202901N008210027019N0112651N1+01001+00801999999ADDGF107991999999999999999999MA1102911999999REMMET057METAR EDDW 041820Z 29016KT 9999 BKN009 10/08 Q1029 NOSIG;
0110102240999992013010418504+53050+008800FM-15+0005EDDW V0202901N007210027019N0112651N1+00901+00801999999ADDGF108991999999999999999999MA1102911999999REMMET057METAR EDDW 041850Z 29014KT 9999 OVC009 09/08 Q1029 NOSIG;
0110102240999992013010419204+53050+008800FM-15+0005EDDW V0202901N006710027019N0112651N1+00901+00801999999ADDGF108991999999999999999999MA1102911999999REMMET057METAR EDDW 041920Z 29013KT 9999 OVC009 09/08 Q1029 NOSIG;
0110102240999992013010419504+53050+008800FM-15+0005EDDW V0202801N006710027019N0112651N1+00901+00801999999ADDGF108991999999999999999999MA1102911999999REMMET057METAR EDDW 041950Z 28013KT 9999 OVC009 09/08 Q1029 NOSIG;
0120102240999992013010420204+53050+008800FM-15+0005EDDW V0202901N007710024019N0112651N1+00901+00801999999ADDGF108991999999999999999999MA1102811999999MW1611REMMET061METAR EDDW 042020Z 29015KT 9999 -RA OVC008 09/08 Q1028 NOSIG;
0110102240999992013010420504+53050+008800FM-15+0005EDDW V0202801N007710024019N0112651N1+00901+00801999999ADDGF108991999999999999999999MA1102911999999REMMET057METAR EDDW 042050Z 28015KT 9999 OVC008 09/08 Q1029 NOSIG;
0104102240999992013010421204+53050+008800FM-15+0005EDDW V0202901N007210024019N0112651N1+00901+00701999999ADDGF108991999999999999999999MA1102911999999REMMET051METAR EDDW 042120Z 29014KT 9999 OVC008 09/07 Q1029;
0104102240999992013010421504+53050+008800FM-15+0005EDDW V0202801N007210021019N0112651N1+00901+00701999999ADDGF108991999999999999999999MA1102811999999REMMET051METAR EDDW 042150Z 28014KT 9999 OVC007 09/07 Q1028;
0104102240999992013010422204+53050+008800FM-15+0005EDDW V0202801N007210021019N0112651N1+00901+00701999999ADDGF108991999999999999999999MA1102811999999REMMET051METAR EDDW 042220Z 28014KT 9999 OVC007 09/07 Q1028;
0104102240999992013010422504+53050+008800FM-15+0005EDDW V0202801N008210021019N0112651N1+00901+00701999999ADDGF108991999999999999999999MA1102811999999REMMET051METAR EDDW 042250Z 28016KT 9999 OVC007 09/07 Q1028;
0104102240999992013010423204+53050+008800FM-15+0005EDDW V0202901N007210021019N0112651N1+00901+00701999999ADDGF108991999999999999999999MA1102811999999REMMET051METAR EDDW 042320Z 29014KT 9999 OVC007 09/07 Q1028;
0104102240999992013010423504+53050+008800FM-15+0005EDDW V0202901N006710024019N0112651N1+00901+00701999999ADDGF108991999999999999999999MA1102811999999REMMET051METAR EDDW 042350Z 29013KT 9999 OVC008 09/07 Q1028;
0114102240999992013010500204+53050+008800FM-15+0005EDDW V0202901N008210027019N0112651N1+00901+00701999999ADDGF108991999999999999999999MA1102811999999MW1511REMMET055METAR EDDW 050020Z 29016KT 9999 -DZ OVC009 09/07 Q1028;
0104102240999992013010500504+53050+008800FM-15+0005EDDW V0202901N007710027019N0112651N1+00901+00701999999ADDGF108991999999999999999999MA1102811999999REMMET051METAR EDDW 050050Z 29015KT 9999 OVC009 09/07 Q1028;
0104102240999992013010501204+53050+008800FM-15+0005EDDW V0202901N007710027019N0112651N1+00901+00701999999ADDGF108991999999999999999999MA1102811999999REMMET051METAR EDDW 050120Z 29015KT 9999 OVC009 09/07 Q1028;
0104102240999992013010501504+53050+008800FM-15+0005EDDW V0202901N006210024019N0112651N1+00901+00701999999ADDGF108991999999999999999999MA1102911999999REMMET051METAR EDDW 050150Z 29012KT 9999 OVC008 09/07 Q1029;
0104102240999992013010502204+53050+008800FM-15+0005EDDW V0202901N006710024019N0112651N1+00901+00701999999ADDGF108991999999999999999999MA1102811999999REMMET051METAR EDDW 050220Z 29013KT 9999 OVC008 09/07 Q1028;
0104102240999992013010502504+53050+008800FM-15+0005EDDW V0202901N006710021019N0112651N1+00801+00701999999ADDGF108991999999999999999999MA1102911999999REMMET051METAR EDDW 050250Z 29013KT 9999 OVC007 08/07 Q1029;
0104102240999992013010503204+53050+008800FM-15+0005EDDW V0202901N006210018019N0112651N1+00801+00701999999ADDGF108991999999999999999999MA1102911999999REMMET051METAR EDDW 050320Z 29012KT 9999 OVC006 08/07 Q1029;
0110102240999992013010503504+53050+008800FM-15+0005EDDW V0202901N006710015019N0080001N1+00801+00701999999ADDGF108991999999999999999999MA1102911999999REMMET057METAR EDDW 050350Z 29013KT 8000 OVC005 08/07 Q1029 NOSIG;
0117102240999992013010504204+53050+008800FM-15+0005EDDW V0202901N006710015019N0080001N1+00801+00701999999ADDGF108991999999999999999999MA1102911999999REMMET064METAR EDDW 050420Z 29013KT 8000 OVC005 08/07 Q1029 TEMPO BKN004;
0119102240999992013010504504+53050+008800FM-15+0005EDDW V0202901N006210012019N0060001N1+00801+00701999999ADDGF108991999999999999999999MA1102911999999REMMET066METAR EDDW 050450Z 29012KT 6000 OVC004 08/07 Q1029 TEMPO 4000 -DZ;
0137102240999992013010505204+53050+008800FM-15+0005EDDW V0202901N006710009019N0040001N1+00801+00701999999ADDGF108991999999999999999999MA1102911999999MW1101MW2511REMMET072METAR EDDW 050520Z 29013KT 4000 -DZ BR OVC003 08/07 Q1029 TEMPO 2500 DZ;
0127102240999992013010505504+53050+008800FM-15+0005EDDW V0202901N006710009019N0045001N1+00801+00701999999ADDGF108991999999999999999999MA1102911999999MW1101REMMET068METAR EDDW 050550Z 29013KT 4500 BR OVC003 08/07 Q1029 TEMPO 2500 DZ;
0127102240999992013010506204+53050+008800FM-15+0005EDDW V0202901N007210009019N0049001N1+00801+00701999999ADDGF108991999999999999999999MA1102911999999MW1101REMMET068METAR EDDW 050620Z 29014KT 4900 BR OVC003 08/07 Q1029 TEMPO 2500 DZ;
0119102240999992013010506504+53050+008800FM-15+0005EDDW V0203001N006210009019N0049001N1+00801+00701999999ADDGF108991999999999999999999MA1102911999999MW1101REMMET060METAR EDDW 050650Z 30012KT 4900 BR OVC003 08/07 Q1029 NOSIG;
0119102240999992013010507204+53050+008800FM-15+0005EDDW V0203101N005710009019N0050001N1+00801+00701999999ADDGF108991999999999999999999MA1102911999999MW1101REMMET060METAR EDDW 050720Z 31011KT 5000 BR OVC003 08/07 Q1029 NOSIG;
0119102240999992013010507504+53050+008800FM-15+0005EDDW V0203001N005710012019N0050001N1+00801+00701999999ADDGF108991999999999999999999MA1103011999999MW1101REMMET060METAR EDDW 050750Z 30011KT 5000 BR OVC004 08/07 Q1030 NOSIG;
0136102240999992013010508204+53050+008800FM-15+0005EDDW V0203001N005710015019N0050001N1+00801+00701999999ADDGF108991999999999999999999MA1103011999999MW1101MW2611REMMET071METAR EDDW 050820Z 30011KT 5000 -RA BR OVC005 08/07 Q1030 TEMPO BKN004;
0110102240999992013010508504+53050+008800FM-15+0005EDDW V0203101N007210015019N0070001N1+00801+00701999999ADDGF108991999999999999999999MA1103011999999REMMET057METAR EDDW 050850Z 31014KT 7000 OVC005 08/07 Q1030 NOSIG;
0110102240999992013010509204+53050+008800FM-15+0005EDDW V0203101N006710015019N0080001N1+00801+00701999999ADDGF108991999999999999999999MA1103011999999REMMET057METAR EDDW 050920Z 31013KT 8000 OVC005 08/07 Q1030 NOSIG;
0127102240999992013010509504+53050+008800FM-15+0005EDDW V0203101N007210015019N0050001N1+00801+00701999999ADDGF108991999999999999999999MA1103011999999MW1511REMMET068METAR EDDW 050950Z 31014KT 5000 -DZ FEW004 OVC005 08/07 Q1030 NOSIG;
0127102240999992013010510204+53050+008800FM-15+0005EDDW V0203001N007210018019N0050001N1+00801+00701999999ADDGF108991999999999999999999MA1103011999999MW1511REMMET068METAR EDDW 051020Z 30014KT 5000 -DZ SCT005 OVC006 08/07 Q1030 NOSIG;
0117102240999992013010510504+53050+008800FM-15+0005EDDW V0203001N006710021019N0080001N1+00801+00701999999ADDGF108991999999999999999999MA1103011999999REMMET064METAR EDDW 051050Z 30013KT 8000 FEW005 OVC007 08/07 Q1030 NOSIG;
0124102240999992013010511204+53050+008800FM-15+0005EDDW V0203001N006710015019N0070001N1+00801+00701999999ADDGF108991999999999999999999MA1103011999999REMMET071METAR EDDW 051120Z 30013KT 7000 FEW003 BKN005 OVC007 08/07 Q1030 NOSIG;
0134102240999992013010511504+53050+008800FM-15+0005EDDW V0203001N005710015019N0050001N1+00801+00701999999ADDGF108991999999999999999999MA1103011999999MW1511REMMET075METAR EDDW 051150Z 30011KT 5000 -DZ FEW004 BKN005 OVC007 08/07 Q1030 NOSIG;
0134102240999992013010512204+53050+008800FM-15+0005EDDW V0203001N005710015019N0050001N1+00801+00701999999ADDGF108991999999999999999999MA1103011999999MW1511REMMET075METAR EDDW 051220Z 30011KT 5000 -DZ FEW004 BKN005 OVC007 08/07 Q1030 NOSIG;
0117102240999992013010512504+53050+008800FM-15+0005EDDW V0203001N005710012019N0070001N1+00801+00701999999ADDGF108991999999999999999999MA1103011999999REMMET064METAR EDDW 051250Z 30011KT 7000 BKN004 OVC007 08/07 Q1030 NOSIG;
0117102240999992013010513204+53050+008800FM-15+0005EDDW V0203101N006710012019N0070001N1+00801+00701999999ADDGF108991999999999999999999MA1103011999999REMMET064METAR EDDW 051320Z 31013KT 7000 BKN004 OVC007 08/07 Q1030 NOSIG;
0110102240999992013010513504+53050+008800FM-15+0005EDDW V0203101N005710012019N0090001N1+00801+00701999999ADDGF108991999999999999999999MA1103011999999REMMET057METAR EDDW 051350Z 31011KT 9000 OVC004 08/07 Q1030 NOSIG;
0120102240999992013010514204+53050+008800FM-15+0005EDDW V0203001N005710009019N0050001N1+00801+00701999999ADDGF108991999999999999999999MA1103011999999MW1511REMMET061METAR EDDW 051420Z 30011KT 5000 -DZ OVC003 08/07 Q1030 NOSIG;
0120102240999992013010514504+53050+008800FM-15+0005EDDW V0203001N005710012019N0060001N1+00801+00701999999ADDGF108991999999999999999999MA1103011999999MW1511REMMET061METAR EDDW 051450Z 30011KT 6000 -DZ OVC004 08/07 Q1030 NOSIG;
0110102240999992013010515204+53050+008800FM-15+0005EDDW V0203001N005110021019N0090001N1+00801+00701999999ADDGF108991999999999999999999MA1103121999999REMMET057METAR EDDW 051520Z 30010KT 9000 OVC007 08/07 Q1031 NOSIG;
0127102240999992013010515504+53050+008800FM-15+0005EDDW V0203101N004110009019N0050001N1+00801+00701999999ADDGF108991999999999999999999MA1103121999999MW1511REMMET068METAR EDDW 051550Z 31008KT 5000 -DZ BKN003 OVC009 08/07 Q1031 NOSIG;
0127102240999992013010516204+53050+008800FM-15+0005EDDW V0202901N003110018019N0050001N1+00701+00701999999ADDGF108991999999999999999999MA1103121999999MW1511REMMET068METAR EDDW 051620Z 29006KT 5000 -DZ BKN006 OVC008 07/07 Q1031 NOSIG;
0124102240999992013010516504+53050+008800FM-15+0005EDDW V0202901N003610021019N0090001N1+00801+00701999999ADDGF108991999999999999999999MA1103011999999REMMET071METAR EDDW 051650Z 29007KT 9000 FEW006 BKN007 OVC010 08/07 Q1030 NOSIG;
0134102240999992013010517204+53050+008800FM-15+0005EDDW V0202801N004110015019N0080001N1+00801+00701999999ADDGF108991999999999999999999MA1103011999999MW1511REMMET075METAR EDDW 051720Z 28008KT 8000 -DZ FEW003 BKN005 OVC009 08/07 Q1030 NOSIG;
0134102240999992013010517504+53050+008800FM-15+0005EDDW V0202801N004110018019N0080001N1+00701+00601999999ADDGF108991999999999999999999MA1103011999999MW1511REMMET075METAR EDDW 051750Z 28008KT 8000 -DZ FEW003 BKN006 OVC009 07/06 Q1030 NOSIG;
0134102240999992013010518204+53050+008800FM-15+0005EDDW V0202801N004110018019N0080001N1+00701+00601999999ADDGF108991999999999999999999MA1103011999999MW1511REMMET075METAR EDDW 051820Z 28008KT 8000 -DZ FEW003 BKN006 OVC009 07/06 Q1030 NOSIG;
0134102240999992013010518504+53050+008800FM-15+0005EDDW V0202801N005110018019N0112651N1+00701+00601999999ADDGF108991999999999999999999MA1103011999999MW1511REMMET075METAR EDDW 051850Z 28010KT 9999 -DZ FEW003 BKN006 OVC009 07/06 Q1030 NOSIG;
0134102240999992013010519204+53050+008800FM-15+0005EDDW V0203001N004110018019N0112651N1+00701+00601999999ADDGF108991999999999999999999MA1103011999999MW1511REMMET075METAR EDDW 051920Z 30008KT 9999 -DZ FEW003 BKN006 OVC009 07/06 Q1030 NOSIG;
0134102240999992013010519504+53050+008800FM-15+0005EDDW V0202901N003610018019N0112651N1+00701+00601999999ADDGF108991999999999999999999MA1103011999999MW1511REMMET075METAR EDDW 051950Z 29007KT 9999 -DZ FEW003 BKN006 OVC009 07/06 Q1030 NOSIG;
0127102240999992013010520204+53050+008800FM-15+0005EDDW V0202801N004610018019N0112651N1+00701+00601999999ADDGF107991999999999999999999MA1103011999999MW1511REMMET068METAR EDDW 052020Z 28009KT 9999 -DZ BKN006 BKN011 07/06 Q1030 NOSIG;
0127102240999992013010520504+53050+008800FM-15+0005EDDW V0202801N003610018019N0112651N1+00701+00601999999ADDGF107991999999999999999999MA1103011999999MW1511REMMET068METAR EDDW 052050Z 28007KT 9999 -DZ BKN006 BKN012 07/06 Q1030 NOSIG;
0121102240999992013010521204+53050+008800FM-15+0005EDDW V0202701N003610018019N0112651N1+00701+00601999999ADDGF107991999999999999999999MA1103011999999MW1511REMMET062METAR EDDW 052120Z 27007KT 9999 -DZ BKN006 BKN008 07/06 Q1030;
0121102240999992013010521504+53050+008800FM-15+0005EDDW V0202801N003610009019N0112651N1+00701+00601999999ADDGF107991999999999999999999MA1103011999999MW1511REMMET062METAR EDDW 052150Z 28007KT 9999 -DZ BKN003 BKN006 07/06 Q1030;
0128102240999992013010522204+53050+008800FM-15+0005EDDW V0202801N004110018019N0112651N1+00701+00601999999ADDGF107991999999999999999999MA1103011999999MW1511REMMET069METAR EDDW 052220Z 28008KT 9999 -DZ FEW003 BKN006 BKN015 07/06 Q1030;
0121102240999992013010522504+53050+008800FM-15+0005EDDW V0202701N003610018019N0112651N1+00701+00601999999ADDGF107991999999999999999999MA1103011999999MW1511REMMET062METAR EDDW 052250Z 27007KT 9999 -DZ SCT003 BKN006 07/06 Q1030;
0121102240999992013010523204+53050+008800FM-15+0005EDDW V0202801N004110018019N0112651N1+00701+00601999999ADDGF107991999999999999999999MA1103011999999MW1511REMMET062METAR EDDW 052320Z 28008KT 9999 -DZ SCT003 BKN006 07/06 Q1030;
0121102240999992013010523504+53050+008800FM-15+0005EDDW V0202601N004610024019N0112651N1+00701+00601999999ADDGF107991999999999999999999MA1102911999999MW1511REMMET062METAR EDDW 052350Z 26009KT 9999 -DZ SCT004 BKN008 07/06 Q1029;
0128102240999992013010600204+53050+008800FM-15+0005EDDW V0202601N00361002401CN0112651N1+00701+00601999999ADDGF107991999999999999999999MA1102911999999MW1511REMMET069METAR EDDW 060020Z 26007KT 9999 -DZ FEW004 SCT008 BKN015 07/06 Q1029;
0121102240999992013010600504+53050+008800FM-15+0005EDDW V0202501N003110012019N0112651N1+00701+00601999999ADDGF107991999999999999999999MA1102911999999MW1511REMMET062METAR EDDW 060050Z 25006KT 9999 -DZ BKN004 BKN007 07/06 Q1029;
0121102240999992013010601204+53050+008800FM-15+0005EDDW V0202401N004110015019N0080001N1+00701+00601999999ADDGF107991999999999999999999MA1102811999999MW1511REMMET062METAR EDDW 060120Z 24008KT 8000 -DZ FEW003 BKN005 07/06 Q1028;
0121102240999992013010601504+53050+008800FM-15+0005EDDW V0202301N003110015019N0080001N1+00601+00601999999ADDGF107991999999999999999999MA1102811999999MW1511REMMET062METAR EDDW 060150Z 23006KT 8000 -DZ BKN005 BKN017 06/06 Q1028;
0121102240999992013010602204+53050+008800FM-15+0005EDDW V0202401N004110015019N0080001N1+00601+00601999999ADDGF107991999999999999999999MA1102811999999MW1511REMMET062METAR EDDW 060220Z 24008KT 8000 -DZ BKN005 BKN008 06/06 Q1028;
0121102240999992013010602504+53050+008800FM-15+0005EDDW V0202401N003610012019N0080001N1+00601+00601999999ADDGF107991999999999999999999MA1102711999999MW1511REMMET062METAR EDDW 060250Z 24007KT 8000 -DZ BKN004 BKN008 06/06 Q1027;
0121102240999992013010603204+53050+008800FM-15+0005EDDW V0202401N004110012019N0080001N1+00701+00601999999ADDGF107991999999999999999999MA1102711999999MW1511REMMET062METAR EDDW 060320Z 24008KT 8000 -DZ BKN004 BKN006 07/06 Q1027;
0127102240999992013010603504+53050+008800FM-15+0005EDDW V0202501N004110018019N0060001N1+00701+00601999999ADDGF107991999999999999999999MA1102611999999MW1511REMMET068METAR EDDW 060350Z 25008KT 6000 -DZ BKN006 BKN020 07/06 Q1026 NOSIG;
0117102240999992013010604204+53050+008800FM-15+0005EDDW V0202601N004610018019N0060001N1+00701+00601999999ADDGF107991999999999999999999MA1102611999999REMMET064METAR EDDW 060420Z 26009KT 6000 BKN006 BKN009 07/06 Q1026 NOSIG;
0127102240999992013010604504+53050+008800FM-15+0005EDDW V0202601N005110018019N0060001N1+00701+00601999999ADDGF107991999999999999999999MA1102611999999MW1511REMMET068METAR EDDW 060450Z 26010KT 6000 -DZ BKN006 BKN009 07/06 Q1026 NOSIG;
0127102240999992013010605204+53050+008800FM-15+0005EDDW V0202701N004610024019N0060001N1+00801+00701999999ADDGF107991999999999999999999MA1102611999999MW1511REMMET068METAR EDDW 060520Z 27009KT 6000 -DZ BKN008 BKN010 08/07 Q1026 NOSIG;
0127102240999992013010605504+53050+008800FM-15+0005EDDW V0202701N005710024019N0060001N1+00801+00701999999ADDGF107991999999999999999999MA1102611999999MW1511REMMET068METAR EDDW 060550Z 27011KT 6000 -DZ BKN008 BKN019 08/07 Q1026 NOSIG;
0125102240999992013010606204+53050+008800FM-15+0005EDDW V0202801N006210033019N0060001N1+00801+00701999999ADDGF107991999999999999999999MA1102611999999REMMET072METAR EDDW 060620Z 28012KT 6000 BKN011 08/07 Q1026 TEMPO 4000 BR BKN007;
0132102240999992013010606504+53050+008800FM-15+0005EDDW V0202801N006210036019N0060001N1+00801+00701999999ADDGF107991999999999999999999MA1102611999999REMMET079METAR EDDW 060650Z 28012KT 6000 SCT008 BKN012 08/07 Q1026 TEMPO 4000 BR BKN007;
0132102240999992013010607204+53050+008800FM-15+0005EDDW V0202901N005710036019N0060001N1+00801+00701999999ADDGF107991999999999999999999MA1102611999999REMMET079METAR EDDW 060720Z 29011KT 6000 SCT008 BKN012 08/07 Q1026 TEMPO 4000 BR BKN007;
0110102240999992013010607504+53050+008800FM-15+0005EDDW V0202801N005110024019N0060001N1+00801+00701999999ADDGF107991999999999999999999MA1102611999999REMMET057METAR EDDW 060750Z 28010KT 6000 BKN008 08/07 Q1026 NOSIG;
0110102240999992013010608204+53050+008800FM-15+0005EDDW V0202701N004610024019N0060001N1+00801+00701999999ADDGF107991999999999999999999MA1102611999999REMMET057METAR EDDW 060820Z 27009KT 6000 BKN008 08/07 Q1026 NOSIG;
0110102240999992013010608504+53050+008800FM-15+0005EDDW V0202801N005710021019N0060001N1+00801+00701999999ADDGF107991999999999999999999MA1102511999999REMMET057METAR EDDW 060850Z 28011KT 6000 BKN007 08/07 Q1025 NOSIG;
0110102240999992013010609204+53050+008800FM-15+0005EDDW V0202801N006710018019N0060001N1+00801+00701999999ADDGF107991999999999999999999MA1102511999999REMMET057METAR EDDW 060920Z 28013KT 6000 BKN006 08/07 Q1025 NOSIG;
0110102240999992013010609504+53050+008800FM-15+0005EDDW V0202801N005710018019N0060001N1+00801+00701999999ADDGF107991999999999999999999MA1102511999999REMMET057METAR EDDW 060950Z 28011KT 6000 BKN006 08/07 Q1025 NOSIG;
0110102240999992013010610204+53050+008800FM-15+0005EDDW V0202801N006210018019N0060001N1+00801+00701999999ADDGF107991999999999999999999MA1102511999999REMMET057METAR EDDW 061020Z 28012KT 6000 BKN006 08/07 Q1025 NOSIG;
0125102240999992013010610504+53050+008800FM-15+0005EDDW V0202801N006710018019N0038001N1+00801+00701999999ADDGF107991999999999999999999MA1102511999999MW1511REMMET066METAR EDDW 061050Z 28013KT 3800 -DZ BKN006 08/07 Q1025 BECMG 5000;
0120102240999992013010611204+53050+008800FM-15+0005EDDW V0202901N006710018019N0045001N1+00801+00701999999ADDGF107991999999999999999999MA1102511999999MW1511REMMET061METAR EDDW 061120Z 29013KT 4500 -DZ BKN006 08/07 Q1025 NOSIG;
0120102240999992013010611504+53050+008800FM-15+0005EDDW V0203001N007210018019N0047001N1+00801+00701999999ADDGF107991999999999999999999MA1102511999999MW1511REMMET061METAR EDDW 061150Z 30014KT 4700 -DZ BKN006 08/07 Q1025 NOSIG;
0120102240999992013010612204+53050+008800FM-15+0005EDDW V0203001N006710018019N0050001N1+00801+00801999999ADDGF107991999999999999999999MA1102511999999MW1511REMMET061METAR EDDW 061220Z 30013KT 5000 -DZ BKN006 08/08 Q1025 NOSIG;
0110102240999992013010612504+53050+008800FM-15+0005EDDW V0203001N007210018019N0070001N1+00801+00801999999ADDGF107991999999999999999999MA1102511999999REMMET057METAR EDDW 061250Z 30014KT 7000 BKN006 08/08 Q1025 NOSIG;
0110102240999992013010613204+53050+008800FM-15+0005EDDW V0203101N006210015019N0080001N1+00901+00801999999ADDGF107991999999999999999999MA1102511999999REMMET057METAR EDDW 061320Z 31012KT 8000 BKN005 09/08 Q1025 NOSIG;
0129102240999992013010613504+53050+008800FM-15+0005EDDW V0203101N005710015019N0042001N1+00901+00801999999ADDGF107991999999999999999999MA1102511999999MW1101MW2511REMMET064METAR EDDW 061350Z 31011KT 4200 -DZ BR BKN005 09/08 Q1025 NOSIG;
0136102240999992013010614204+53050+008800FM-15+0005EDDW V0203101N006710015019N0028001N1+00801+00801999999ADDGF107991999999999999999999MA1102511999999MW1101MW2511REMMET071METAR EDDW 061420Z 31013KT 2800 -DZ BR FEW003 BKN005 08/08 Q1025 NOSIG;
0127102240999992013010614504+53050+008800FM-15+0005EDDW V0203101N007710024019N0112651N1+00801+00701999999ADDGF107991999999999999999999MA1102511999999MW1511REMMET068METAR EDDW 061450Z 31015KT 9999 -DZ SCT006 BKN008 08/07 Q1025 NOSIG;
0117102240999992013010615204+53050+008800FM-15+0005EDDW V0203001N007210024019N0112651N1+00801+00701999999ADDGF107991999999999999999999MA1102511999999REMMET064METAR EDDW 061520Z 30014KT 9999 SCT006 BKN008 08/07 Q1025 NOSIG;
0110102240999992013010615504+53050+008800FM-15+0005EDDW V0203001N006710024019N0112651N1+00801+00701999999ADDGF107991999999999999999999MA1102611999999REMMET057METAR EDDW 061550Z 30013KT 9999 BKN008 08/07 Q1026 NOSIG;
0110102240999992013010616204+53050+008800FM-15+0005EDDW V0203001N005710021019N0112651N1+00801+00701999999ADDGF107991999999999999999999MA1102611999999REMMET057METAR EDDW 061620Z 30011KT 9999 BKN007 08/07 Q1026 NOSIG;
0110102240999992013010616504+53050+008800FM-15+0005EDDW V0203001N005110024019N0112651N1+00801+00701999999ADDGF107991999999999999999999MA1102611999999REMMET057METAR EDDW 061650Z 30010KT 9999 BKN008 08/07 Q1026 NOSIG;
0110102240999992013010617204+53050+008800FM-15+0005EDDW V0203001N006710012019N0080001N1+00801+00701999999ADDGF107991999999999999999999MA1102611999999REMMET057METAR EDDW 061720Z 30013KT 8000 BKN004 08/07 Q1026 NOSIG;
0127102240999992013010617504+53050+008800FM-15+0005EDDW V0203101N007210015019N0045001N1+00701+00701999999ADDGF107991999999999999999999MA1102611999999MW1511REMMET068METAR EDDW 061750Z 31014KT 4500 -DZ SCT003 BKN005 07/07 Q1026 NOSIG;
0120102240999992013010618204+53050+008800FM-15+0005EDDW V0203101N008210012019N0090001N1+00701+00601999999ADDGF107991999999999999999999MA1102611999999MW1511REMMET061METAR EDDW 061820Z 31016KT 9000 -DZ BKN004 07/06 Q1026 NOSIG;
0127102240999992013010618504+53050+008800FM-15+0005EDDW V0203201N006710012019N0080001N1+00701+00601999999ADDGF107991999999999999999999MA1102711999999MW1511REMMET068METAR EDDW 061850Z 32013KT 8000 -DZ BKN004 BKN009 07/06 Q1027 NOSIG;
0127102240999992013010619204+53050+008800FM-15+0005EDDW V0203101N005710009019N0080001N1+00701+00601999999ADDGF107991999999999999999999MA1102711999999MW1511REMMET068METAR EDDW 061920Z 31011KT 8000 -DZ BKN003 BKN005 07/06 Q1027 NOSIG;
0127102240999992013010619504+53050+008800FM-15+0005EDDW V0203101N005710030019N0080001N1+00701+00601999999ADDGF107991999999999999999999MA1102711999999MW1511REMMET068METAR EDDW 061950Z 31011KT 8000 -DZ SCT005 BKN010 07/06 Q1027 NOSIG;
0117102240999992013010620204+53050+008800FM-15+0005EDDW V0203101N005710024019N0090001N1+00701+00501999999ADDGF107991999999999999999999MA1102711999999REMMET064METAR EDDW 062020Z 31011KT 9000 SCT005 BKN008 07/05 Q1027 NOSIG;
0117102240999992013010620504+53050+008800FM-15+0005EDDW V0203101N005110015019N0112651N1+00601+00501999999ADDGF107991999999999999999999MA1102711999999REMMET064METAR EDDW 062050Z 31010KT 9999 FEW003 BKN005 06/05 Q1027 NOSIG;
0110102240999992013010621204+53050+008800FM-15+0005EDDW V0203101N005710012019N0112651N1+00601+00501999999ADDGF107991999999999999999999MA1102711999999REMMET057METAR EDDW 062120Z 31011KT 9999 BKN004 06/05 Q1027 NOSIG;
0117102240999992013010621504+53050+008800FM-15+0005EDDW V0203201N005710021019N0112651N1+00601+00501999999ADDGF107991999999999999999999MA1102711999999REMMET064METAR EDDW 062150Z 32011KT 9999 SCT003 BKN007 06/05 Q1027 NOSIG;
0111102240999992013010622204+53050+008800FM-15+0005EDDW V0203101N005710030019N0112651N1+00601+00501999999ADDGF107991999999999999999999MA1102811999999REMMET058METAR EDDW 062220Z 31011KT 9999 SCT004 BKN010 06/05 Q1028;
0111102240999992013010622504+53050+008800FM-15+0005EDDW V0203001N005110018019N0112651N1+00601+00501999999ADDGF107991999999999999999999MA1102711999999REMMET058METAR EDDW 062250Z 30010KT 9999 FEW003 BKN006 06/05 Q1027;
0104102240999992013010623204+53050+008800FM-15+0005EDDW V0203001N004110015019N0112651N1+00601+00501999999ADDGF107991999999999999999999MA1102811999999REMMET051METAR EDDW 062320Z 30008KT 9999 BKN005 06/05 Q1028;
0104102240999992013010623504+53050+008800FM-15+0005EDDW V0203001N003610012019N0112651N1+00601+00501999999ADDGF107991999999999999999999MA1102811999999REMMET051METAR EDDW 062350Z 30007KT 9999 BKN004 06/05 Q1028;
0104102240999992013010700204+53050+008800FM-15+0005EDDW V0203001N003110012019N0112651N1+00601+00501999999ADDGF107991999999999999999999MA1102711999999REMMET051METAR EDDW 070020Z 30006KT 9999 BKN004 06/05 Q1027;
0104102240999992013010700504+53050+008800FM-15+0005EDDW V0202901N003110012019N0112651N1+00601+00501999999ADDGF107991999999999999999999MA1102711999999REMMET051METAR EDDW 070050Z 29006KT 9999 BKN004 06/05 Q1027;
0104102240999992013010701204+53050+008800FM-15+0005EDDW V0203001N004110012019N0112651N1+00601+00501999999ADDGF107991999999999999999999MA1102811999999REMMET051METAR EDDW 070120Z 30008KT 9999 BKN004 06/05 Q1028;
0104102240999992013010701504+53050+008800FM-15+0005EDDW V0202901N003610012019N0112651N1+00601+00501999999ADDGF107991999999999999999999MA1102811999999REMMET051METAR EDDW 070150Z 29007KT 9999 BKN004 06/05 Q1028;
0114102240999992013010702204+53050+008800FM-15+0005EDDW V0203001N003610012019N0112651N1+00601+00501999999ADDGF107991999999999999999999MA1102711999999MW1511REMMET055METAR EDDW 070220Z 30007KT 9999 -DZ BKN004 06/05 Q1027;
0114102240999992013010702504+53050+008800FM-15+0005EDDW V0203101N003110018019N0112651N1+00601+00501999999ADDGF107991999999999999999999MA1102711999999MW1511REMMET055METAR EDDW 070250Z 31006KT 9999 -DZ BKN006 06/05 Q1027;
0104102240999992013010703204+53050+008800FM-15+0005EDDW V0202801N002610018019N0112651N1+00601+00501999999ADDGF107991999999999999999999MA1102711999999REMMET051METAR EDDW 070320Z 28005KT 9999 BKN006 06/05 Q1027;
0110102240999992013010703504+53050+008800FM-15+0005EDDW V0202901N003610021019N0112651N1+00601+00501999999ADDGF107991999999999999999999MA1102711999999REMMET057METAR EDDW 070350Z 29007KT 9999 BKN007 06/05 Q1027 NOSIG;
0110102240999992013010704204+53050+008800FM-15+0005EDDW V0203001N004110021019N0112651N1+00601+00501999999ADDGF107991999999999999999999MA1102711999999REMMET057METAR EDDW 070420Z 30008KT 9999 BKN007 06/05 Q1027 NOSIG;
0124102240999992013010705504+53050+008800FM-15+0005EDDW V0202801N001510030019N0112651N1+00601+00501999999ADDGF107991999999999999999999MA1102711999999REMMET071METAR EDDW 070550Z 28003KT 9999 FEW004 BKN010 06/05 Q1027 TEMPO BKN008;
0117102240999992013010706204+53050+008800FM-15+0005EDDW V0201901N001010027019N0112651N1+00601+00501999999ADDGF107991999999999999999999MA1102711999999REMMET064METAR EDDW 070620Z 19002KT 9999 FEW003 BKN009 06/05 Q1027 NOSIG;
0110102240999992013010706504+53050+008800FM-15+0005EDDW V0202201N001510027019N0112651N1+00601+00501999999ADDGF107991999999999999999999MA1102711999999REMMET057METAR EDDW 070650Z 22003KT 9999 BKN009 06/05 Q1027 NOSIG;
0110102240999992013010707204+53050+008800FM-15+0005EDDW V0202301N001510027019N0112651N1+00601+00501999999ADDGF107991999999999999999999MA1102711999999REMMET057METAR EDDW 070720Z 23003KT 9999 BKN009 06/05 Q1027 NOSIG;
0110102240999992013010707504+53050+008800FM-15+0005EDDW V0202401N001510027019N0112651N1+00601+00501999999ADDGF107991999999999999999999MA1102711999999REMMET057METAR EDDW 070750Z 24003KT 9999 BKN009 06/05 Q1027 NOSIG;
0110102240999992013010708204+53050+008800FM-15+0005EDDW V0202501N002610027019N0112651N1+00601+00501999999ADDGF107991999999999999999999MA1102711999999REMMET057METAR EDDW 070820Z 25005KT 9999 BKN009 06/05 Q1027 NOSIG;
0110102240999992013010708504+53050+008800FM-15+0005EDDW V0202501N002610027019N0112651N1+00601+00501999999ADDGF107991999999999999999999MA1102711999999REMMET057METAR EDDW 070850Z 25005KT 9999 BKN009 06/05 Q1027 NOSIG;
0110102240999992013010709204+53050+008800FM-15+0005EDDW V0202501N002610027019N0112651N1+00601+00501999999ADDGF107991999999999999999999MA1102711999999REMMET057METAR EDDW 070920Z 25005KT 9999 BKN009 06/05 Q1027 NOSIG;
0110102240999992013010709504+53050+008800FM-15+0005EDDW V0202501N002110027019N0112651N1+00601+00501999999ADDGF107991999999999999999999MA1102811999999REMMET057METAR EDDW 070950Z 25004KT 9999 BKN009 06/05 Q1028 NOSIG;
0110102240999992013010710204+53050+008800FM-15+0005EDDW V0202301N001510027019N0112651N1+00601+00501999999ADDGF107991999999999999999999MA1102811999999REMMET057METAR EDDW 071020Z 23003KT 9999 BKN009 06/05 Q1028 NOSIG;
0110102240999992013010710504+53050+008800FM-15+0005EDDW V0202201N002110021019N0112651N1+00701+00501999999ADDGF107991999999999999999999MA1102711999999REMMET057METAR EDDW 071050Z 22004KT 9999 BKN007 07/05 Q1027 NOSIG;
0125102240999992013010711204+53050+008800FM-15+0005EDDW V0202301N002110018019N0070001N1+00701+00601999999ADDGF107991999999999999999999MA1102711999999REMMET072METAR EDDW 071120Z 23004KT 7000 BKN006 BKN018 07/06 Q1027 BECMG 4500 BR;
0125102240999992013010711504+53050+008800FM-15+0005EDDW V0202101N002110018019N0060001N1+00701+00601999999ADDGF107991999999999999999999MA1102711999999REMMET072METAR EDDW 071150Z 21004KT 6000 BKN006 BKN014 07/06 Q1027 BECMG 4500 BR;
0125102240999992013010712204+53050+008800FM-15+0005EDDW V0202201N002610018019N0060001N1+00701+00601999999ADDGF107991999999999999999999MA1102711999999REMMET072METAR EDDW 071220Z 22005KT 6000 BKN006 BKN012 07/06 Q1027 BECMG 4500 BR;
0118102240999992013010712504+53050+008800FM-15+0005EDDW V0202101N002610018019N0060001N1+00701+00601999999ADDGF107991999999999999999999MA1102611999999REMMET065METAR EDDW 071250Z 21005KT 6000 BKN006 07/06 Q1026 BECMG 4500 BR;
0141102240999992013010713204+53050+008800FM-15+0005EDDW V0202001N002610015019N0050001N1+00701+00601999999ADDGF107991999999999999999999MA1102611999999MW1101MW2511REMMET076METAR EDDW 071320Z 20005KT 5000 -DZ BR BKN005 07/06 Q1026 TEMPO 4500 BKN004;
0129102240999992013010713504+53050+008800FM-15+0005EDDW V0202001N002610012019N0040001N1+00701+00701999999ADDGF107991999999999999999999MA1102611999999MW1101MW2511REMMET064METAR EDDW 071350Z 20005KT 4000 -DZ BR BKN004 07/07 Q1026 NOSIG;
0126102240999992013010714204+53050+008800FM-15+0005EDDW V0202101N002110012019N0040001N1+00701+00701999999ADDGF107991999999999999999999MA1102611999999MW1101REMMET067METAR EDDW 071420Z 21004KT 4000 BR BKN004 BKN006 07/07 Q1026 NOSIG;
0133102240999992013010714504+53050+008800FM-15+0005EDDW V0202101N002110018019N0042001N1+00801+00701999999ADDGF107991999999999999999999MA1102611999999MW1101REMMET074METAR EDDW 071450Z 21004KT 4200 BR BKN006 BKN009 08/07 Q1026 TEMPO BKN004;
0148102240999992013010715204+53050+008800FM-15+0005EDDW V0202201N002610018019N0035001N1+00801+00701999999ADDGF107991999999999999999999MA1102611999999MW1101MW2511REMMET083METAR EDDW 071520Z 22005KT 3500 -DZ BR SCT004 BKN006 08/07 Q1026 TEMPO 2500 BKN004;
0138102240999992013010715504+53050+008800FM-15+0005EDDW V0202201N002610018019N0032001N1+00701+00701999999ADDGF107991999999999999999999MA1102611999999MW1101REMMET079METAR EDDW 071550Z 22005KT 3200 BR SCT004 BKN006 07/07 Q1026 TEMPO 2500 BKN004;
0138102240999992013010716204+53050+008800FM-15+0005EDDW V0202201N002610018019N0035001N1+00701+00701999999ADDGF107991999999999999999999MA1102611999999MW1101REMMET079METAR EDDW 071620Z 22005KT 3500 BR SCT004 BKN006 07/07 Q1026 TEMPO 2500 BKN004;
0138102240999992013010716504+53050+008800FM-15+0005EDDW V0202301N002110018019N0035001N1+00701+00701999999ADDGF107991999999999999999999MA1102611999999MW1101REMMET079METAR EDDW 071650Z 23004KT 3500 BR SCT004 BKN006 07/07 Q1026 TEMPO 2500 BKN004;
0131102240999992013010717204+53050+008800FM-15+0005EDDW V0202301N002110012019N0035001N1+00701+00701999999ADDGF107991999999999999999999MA1102611999999MW1101REMMET072METAR EDDW 071720Z 23004KT 3500 BR BKN004 BKN008 07/07 Q1026 TEMPO 2500;
0126102240999992013010717504+53050+008800FM-15+0005EDDW V0202101N002110012019N0028001N1+00701+00701999999ADDGF107991999999999999999999MA1102511999999MW1101REMMET067METAR EDDW 071750Z 21004KT 2800 BR BKN004 BKN008 07/07 Q1025 NOSIG;
0126102240999992013010718204+53050+008800FM-15+0005EDDW V0202101N002610009019N0028001N1+00701+00701999999ADDGF107991999999999999999999MA1102511999999MW1101REMMET067METAR EDDW 071820Z 21005KT 2800 BR BKN003 BKN007 07/07 Q1025 NOSIG;
0126102240999992013010718504+53050+008800FM-15+0005EDDW V0202001N002610006019N0028001N1+00701+00701999999ADDGF107991999999999999999999MA1102511999999MW1101REMMET067METAR EDDW 071850Z 20005KT 2800 BR BKN002 BKN007 07/07 Q1025 NOSIG;
0119102240999992013010719204+53050+008800FM-15+0005EDDW V0202101N002610018019N0028001N1+00801+00701999999ADDGF107991999999999999999999MA1102511999999MW1101REMMET060METAR EDDW 071920Z 21005KT 2800 BR BKN006 08/07 Q1025 NOSIG;
0129102240999992013010719504+53050+008800FM-15+0005EDDW V0202201N002610012019N0025001N1+00701+00701999999ADDGF107991999999999999999999MA1102511999999MW1101MW2511REMMET064METAR EDDW 071950Z 22005KT 2500 -DZ BR BKN004 07/07 Q1025 NOSIG;
0119102240999992013010720204+53050+008800FM-15+0005EDDW V0202201N003110018019N0028001N1+00701+00701999999ADDGF107991999999999999999999MA1102511999999MW1101REMMET060METAR EDDW 072020Z 22006KT 2800 BR BKN006 07/07 Q1025 NOSIG;
0126102240999992013010720504+53050+008800FM-15+0005EDDW V0202201N002610012019N0032001N1+00701+00701999999ADDGF107991999999999999999999MA1102511999999MW1101REMMET067METAR EDDW 072050Z 22005KT 3200 BR BKN004 BKN010 07/07 Q1025 NOSIG;
0113102240999992013010721204+53050+008800FM-15+0005EDDW V0202201N002610015019N0035001N1+00701+00701999999ADDGF107991999999999999999999MA1102511999999MW1101REMMET054METAR EDDW 072120Z 22005KT 3500 BR BKN005 07/07 Q1025;
0113102240999992013010721504+53050+008800FM-15+0005EDDW V0202201N003610015019N0035001N1+00701+00701999999ADDGF107991999999999999999999MA1102401999999MW1101REMMET054METAR EDDW 072150Z 22007KT 3500 BR BKN005 07/07 Q1024;
0113102240999992013010722204+53050+008800FM-15+0005EDDW V0202301N004110018019N0032001N1+00701+00701999999ADDGF107991999999999999999999MA1102401999999MW1101REMMET054METAR EDDW 072220Z 23008KT 3200 BR BKN006 07/07 Q1024;
0123102240999992013010722504+53050+008800FM-15+0005EDDW V0202301N004110018019N0030001N1+00701+00701999999ADDGF107991999999999999999999MA1102401999999MW1101MW2511REMMET058METAR EDDW 072250Z 23008KT 3000 -DZ BR BKN006 07/07 Q1024;
0123102240999992013010723204+53050+008800FM-15+0005EDDW V0202401N004110018019N0030001N1+00701+00601999999ADDGF107991999999999999999999MA1102401999999MW1101MW2511REMMET058METAR EDDW 072320Z 24008KT 3000 -DZ BR BKN006 07/06 Q1024;
0120102240999992013010723504+53050+008800FM-15+0005EDDW V0202401N003610036019N0030001N1+00701+00601999999ADDGF107991999999999999999999MA1102301999999MW1101REMMET061METAR EDDW 072350Z 24007KT 3000 BR SCT006 BKN012 07/06 Q1023;
0120102240999992013010800204+53050+008800FM-15+0005EDDW V0202401N004110027019N0033001N1+00701+00601999999ADDGF107991999999999999999999MA1102301999999MW1101REMMET061METAR EDDW 080020Z 24008KT 3300 BR SCT006 BKN009 07/06 Q1023;
0120102240999992013010800504+53050+008800FM-15+0005EDDW V0202501N004610018019N0030001N1+00701+00601999999ADDGF107991999999999999999999MA1102301999999MW1101REMMET061METAR EDDW 080050Z 25009KT 3000 BR BKN006 BKN011 07/06 Q1023;
0113102240999992013010801204+53050+008800FM-15+0005EDDW V0202501N004110033019N0030001N1+00701+00601999999ADDGF107991999999999999999999MA1102301999999MW1101REMMET054METAR EDDW 080120Z 25008KT 3000 BR BKN011 07/06 Q1023;
0113102240999992013010801504+53050+008800FM-15+0005EDDW V0202501N004110030019N0028001N1+00701+00601999999ADDGF107991999999999999999999MA1102301999999MW1101REMMET054METAR EDDW 080150Z 25008KT 2800 BR BKN010 07/06 Q1023;
0113102240999992013010802204+53050+008800FM-15+0005EDDW V0202501N004110027019N0028001N1+00701+00601999999ADDGF107991999999999999999999MA1102301999999MW1101REMMET054METAR EDDW 080220Z 25008KT 2800 BR BKN009 07/06 Q1023;
0113102240999992013010802504+53050+008800FM-15+0005EDDW V0202501N004610027019N0035001N1+00701+00601999999ADDGF107991999999999999999999MA1102301999999MW1101REMMET054METAR EDDW 080250Z 25009KT 3500 BR BKN009 07/06 Q1023;
0113102240999992013010803204+53050+008800FM-15+0005EDDW V0202401N004610027019N0035001N1+00701+00601999999ADDGF107991999999999999999999MA1102201999999MW1101REMMET054METAR EDDW 080320Z 24009KT 3500 BR BKN009 07/06 Q1022;
0136102240999992013010803504+53050+008800FM-15+0005EDDW V0202501N004610024019N0035001N1+00701+00601999999ADDGF107991999999999999999999MA1102301999999MW1101MW2511REMMET071METAR EDDW 080350Z 25009KT 3500 -DZ BR BKN008 07/06 Q1023 TEMPO BKN004;
0126102240999992013010804204+53050+008800FM-15+0005EDDW V0202501N004610021019N0035001N1+00701+00601999999ADDGF107991999999999999999999MA1102201999999MW1101REMMET067METAR EDDW 080420Z 25009KT 3500 BR BKN007 07/06 Q1022 TEMPO BKN004;
0138102240999992013010804504+53050+008800FM-15+0005EDDW V0202601N005110015019N0035001N1+00601+00601999999ADDGF107991999999999999999999MA1102201999999MW1101REMMET079METAR EDDW 080450Z 26010KT 3500 BR FEW002 BKN005 06/06 Q1022 TEMPO 2500 BKN004;
0126102240999992013010805204+53050+008800FM-15+0005EDDW V0202501N004110015019N0030001N1+00601+00601999999ADDGF107991999999999999999999MA1102201999999MW1101REMMET067METAR EDDW 080520Z 25008KT 3000 BR FEW003 BKN005 06/06 Q1022 NOSIG;
0144102240999992013010805504+53050+008800FM-15+0005EDDW V0202501N004110012019N0030001N1+00601+00601999999ADDGF107991999999999999999999MA1102201999999MW1101MW2511MW3611REMMET073METAR EDDW 080550Z 25008KT 3000 -RADZ BR BKN004 BKN009 06/06 Q1022 NOSIG;
0142102240999992013010806204+53050+008800FM-15+0005EDDW V0202401N004110015019N0040001N1+00701+00601999999ADDGF107991999999999999999999MA1102201999999MW1101REMMET083METAR EDDW 080620Z 24008KT 4000 BR BKN005 BKN007 07/06 Q1022 TEMPO 2000 -DZ BKN003;
0083102240999992013010806504+53050+008800AUTO +0005EDDW V0202401N005112200019N9999999N1+00601+00601999999ADDMA1102201999999REMMET056METAR EDDW 080650Z AUTO 24010KT //// // /// 06/06 Q1022;
0144102240999992013010807204+53050+008800FM-15+0005EDDW V0202401N005110012019N0030001N1+00701+00601999999ADDGF107991999999999999999999MA1102201999999MW1101MW2511REMMET079METAR EDDW 080720Z 24010KT 3000 -DZ BR BKN004 BKN006 07/06 Q1022 TEMPO 2000 DZ;
0151102240999992013010807504+53050+008800FM-15+0005EDDW V0202401N004610015019N0030001N1+00701+00601999999ADDGF107991999999999999999999MA1102201999999MW1101MW2511REMMET086METAR EDDW 080750Z 24009KT 3000 -DZ BR BKN005 BKN008 07/06 Q1022 TEMPO 2000 DZ BKN003;
0142102240999992013010808204+53050+008800FM-15+0005EDDW V0202401N004110018019N0050001N1+00701+00601999999ADDGF107991999999999999999999MA1102201999999MW1511REMMET083METAR EDDW 080820Z 24008KT 5000 -DZ BKN006 BKN009 07/06 Q1022 TEMPO 2000 DZ BKN003;
0142102240999992013010808504+53050+008800FM-15+0005EDDW V0202501N005110015019N0040001N1+00701+00601999999ADDGF107991999999999999999999MA1102201999999MW1511REMMET083METAR EDDW 080850Z 25010KT 4000 -DZ BKN005 BKN008 07/06 Q1022 TEMPO 2000 DZ BKN003;
0133102240999992013010809204+53050+008800FM-15+0005EDDW V0202501N004610015019N0025001N1+00701+00601999999ADDGF107991999999999999999999MA1102201999999MW1531REMMET074METAR EDDW 080920Z 25009KT 2500 DZ BKN005 BKN008 07/06 Q1022 TEMPO BKN003;
0133102240999992013010809504+53050+008800FM-15+0005EDDW V0202501N004110012019N0022001N1+00701+00601999999ADDGF107991999999999999999999MA1102201999999MW1531REMMET074METAR EDDW 080950Z 25008KT 2200 DZ BKN004 BKN007 07/06 Q1022 TEMPO BKN005;
0133102240999992013010810204+53050+008800FM-15+0005EDDW V0202501N004110012019N0022001N1+00701+00601999999ADDGF107991999999999999999999MA1102201999999MW1531REMMET074METAR EDDW 081020Z 25008KT 2200 DZ BKN004 BKN007 07/06 Q1022 TEMPO BKN005;
0141102240999992013010810504+53050+008800FM-15+0005EDDW V0202501N004610012019N0022001N1+00701+00601999999ADDGF107991999999999999999999MA1102201999999MW1531MW2631REMMET076METAR EDDW 081050Z 25009KT 2200 DZRA BKN004 BKN007 07/06 Q1022 TEMPO BKN005;
0141102240999992013010811204+53050+008800FM-15+0005EDDW V0202501N005110012019N0025001N1+00701+00601999999ADDGF107991999999999999999999MA1102201999999MW1531MW2631REMMET076METAR EDDW 081120Z 25010KT 2500 DZRA BKN004 BKN007 07/06 Q1022 TEMPO BKN005;
0141102240999992013010811504+53050+008800FM-15+0005EDDW V0202501N004610012019N0028001N1+00701+00601999999ADDGF107991999999999999999999MA1102201999999MW1531MW2631REMMET076METAR EDDW 081150Z 25009KT 2800 RADZ BKN004 BKN007 07/06 Q1022 TEMPO BKN005;
0133102240999992013010812204+53050+008800FM-15+0005EDDW V0202401N005110021019N0025001N1+00701+00601999999ADDGF107991999999999999999999MA1102201999999MW1631REMMET074METAR EDDW 081220Z 24010KT 2500 RA SCT004 BKN007 07/06 Q1022 TEMPO BKN004;
0157102240999992013010812504+53050+008800FM-15+0005EDDW V0202501N004610024019N0040001N1+00701+00601999999ADDGF107991999999999999999999MA1102201999999MW1511MW2611REMMET092METAR EDDW 081250Z 25009KT 4000 -RADZ SCT005 BKN008 07/06 Q1022 RERA TEMPO 2500 DZRA BKN004;
0133102240999992013010813204+53050+008800FM-15+0005EDDW V0202601N004610024019N0025001N1+00701+00701999999ADDGF107991999999999999999999MA1102201999999MW1631REMMET074METAR EDDW 081320Z 26009KT 2500 RA SCT005 BKN008 07/07 Q1022 TEMPO BKN004;
0138102240999992013010813504+53050+008800FM-15+0005EDDW V0202601N005710012019N0025001N1+00701+00701999999ADDGF107991999999999999999999MA1102201999999MW1511MW2611REMMET073METAR EDDW 081350Z 26011KT 2500 -RADZ BKN004 07/07 Q1022 RERA TEMPO RADZ;
0125102240999992013010814204+53050+008800FM-15+0005EDDW V0202601N004110012019N0025001N1+00701+00701999999ADDGF107991999999999999999999MA1102201999999MW1511REMMET066METAR EDDW 081420Z 26008KT 2500 -DZ BKN004 07/07 Q1022 TEMPO RADZ;
0148102240999992013010814504+53050+008800FM-15+0005EDDW V0202501N004110024019N0022001N1+00801+00701999999ADDGF107991999999999999999999MA1102201999999MW1101MW2511REMMET083METAR EDDW 081450Z 25008KT 2200 -DZ BR SCT006 BKN008 08/07 Q1022 TEMPO RADZ BKN004;
0148102240999992013010815204+53050+008800FM-15+0005EDDW V0202401N004110024019N0020001N1+00801+00701999999ADDGF107991999999999999999999MA1102101999999MW1101MW2511REMMET083METAR EDDW 081520Z 24008KT 2000 -DZ BR SCT006 BKN008 08/07 Q1021 TEMPO RADZ BKN004;
0133102240999992013010815504+53050+008800FM-15+0005EDDW V0202501N004110021019N0022001N1+00801+00801999999ADDGF107991999999999999999999MA1102201999999MW1101REMMET074METAR EDDW 081550Z 25008KT 2200 BR SCT004 BKN007 08/08 Q1022 TEMPO BKN004;
0143102240999992013010816204+53050+008800FM-15+0005EDDW V0202501N003110021019N0025001N1+00801+00801999999ADDGF107991999999999999999999MA1102201999999MW1101MW2511REMMET078METAR EDDW 081620Z 25006KT 2500 -DZ BR SCT004 BKN007 08/08 Q1022 TEMPO BKN004;
0143102240999992013010816504+53050+008800FM-15+0005EDDW V0202501N003110021019N0028001N1+00801+00701999999ADDGF107991999999999999999999MA1102201999999MW1101MW2511REMMET078METAR EDDW 081650Z 25006KT 2800 -DZ BR SCT004 BKN007 08/07 Q1022 TEMPO BKN004;
0143102240999992013010817204+53050+008800FM-15+0005EDDW V0202501N003110021019N0035001N1+00801+00701999999ADDGF107991999999999999999999MA1102201999999MW1101MW2511REMMET078METAR EDDW 081720Z 25006KT 3500 -DZ BR SCT004 BKN007 08/07 Q1022 TEMPO BKN004;
0142102240999992013010817504+53050+008800FM-15+0005EDDW V0202501N002610021019N0030001N1+00801+00701999999ADDGF107991999999999999999999MA1102201999999MW1511MW2611REMMET077METAR EDDW 081750Z 25005KT 3000 -DZRA SCT004 BKN007 08/07 Q1022 TEMPO BKN004;
0126102240999992013010818204+53050+008800FM-15+0005EDDW V0202401N002610012019N0025001N1+00801+00801999999ADDGF107991999999999999999999MA1102201999999MW1531REMMET067METAR EDDW 081820Z 24005KT 2500 DZ BKN004 BKN006 08/08 Q1022 NOSIG;
0143102240999992013010818504+53050+008800FM-15+0005EDDW V0202301N003110009019N0022001N1+00801+00801999999ADDGF107991999999999999999999MA1102201999999MW1101MW2531MW3631REMMET072METAR EDDW 081850Z 23006KT 2200 RADZ BR BKN003 BKN006 08/08 Q1022 NOSIG;
0143102240999992013010819204+53050+008800FM-15+0005EDDW V0202401N003110012019N0025001N1+00801+00801999999ADDGF107991999999999999999999MA1102201999999MW1101MW2531MW3631REMMET072METAR EDDW 081920Z 24006KT 2500 RADZ BR BKN004 BKN006 08/08 Q1022 NOSIG;
0143102240999992013010819504+53050+008800FM-15+0005EDDW V0202401N004110012019N0028001N1+00801+00801999999ADDGF107991999999999999999999MA1102201999999MW1101MW2531MW3631REMMET072METAR EDDW 081950Z 24008KT 2800 RADZ BR BKN004 BKN006 08/08 Q1022 NOSIG;
0143102240999992013010820204+53050+008800FM-15+0005EDDW V0202401N004110012019N0028001N1+00801+00801999999ADDGF107991999999999999999999MA1102201999999MW1101MW2531MW3631REMMET072METAR EDDW 082020Z 24008KT 2800 RADZ BR BKN004 BKN006 08/08 Q1022 NOSIG;
0143102240999992013010820504+53050+008800FM-15+0005EDDW V0202401N003610012019N0025001N1+00801+00801999999ADDGF107991999999999999999999MA1102201999999MW1101MW2531MW3631REMMET072METAR EDDW 082050Z 24007KT 2500 RADZ BR BKN004 BKN006 08/08 Q1022 NOSIG;
0137102240999992013010821204+53050+008800FM-15+0005EDDW V0202401N003610012019N0025001N1+00801+00801999999ADDGF107991999999999999999999MA1102201999999MW1101MW2531MW3631REMMET066METAR EDDW 082120Z 24007KT 2500 RADZ BR BKN004 BKN006 08/08 Q1022;
0137102240999992013010821504+53050+008800FM-15+0005EDDW V0202401N003610012019N0025001N1+00801+00801999999ADDGF107991999999999999999999MA1102201999999MW1101MW2531MW3631REMMET066METAR EDDW 082150Z 24007KT 2500 RADZ BR BKN004 BKN006 08/08 Q1022;
0129102240999992013010822204+53050+008800FM-15+0005EDDW V0202401N004110012019N0025001N1+00801+00701999999ADDGF107991999999999999999999MA1102101999999MW1101MW2531REMMET064METAR EDDW 082220Z 24008KT 2500 DZ BR BKN004 BKN006 08/07 Q1021;
0129102240999992013010822504+53050+008800FM-15+0005EDDW V0202401N004110012019N0025001N1+00801+00801999999ADDGF107991999999999999999999MA1102101999999MW1101MW2531REMMET064METAR EDDW 082250Z 24008KT 2500 DZ BR BKN004 BKN007 08/08 Q1021;
0122102240999992013010823204+53050+008800FM-15+0005EDDW V0202401N004110009019N0025001N1+00801+00801999999ADDGF107991999999999999999999MA1102101999999MW1101MW2531REMMET057METAR EDDW 082320Z 24008KT 2500 DZ BR BKN003 08/08 Q1021;
0135102240999992013010823504+53050+008800FM-15+0005EDDW V0202401N004610009019N0025001N1+00801+00701999999ADDGF107991999999999999999999MA1102101999999MW1101MW2511REMMET070METAR EDDW 082350Z 24009KT 2500 -DZ BR BKN003 BKN006 08/07 Q1021 REDZ;
0123102240999992013010900204+53050+008800FM-15+0005EDDW V0202301N004110009019N0030001N1+00801+00801999999ADDGF107991999999999999999999MA1102101999999MW1101MW2511REMMET058METAR EDDW 090020Z 23008KT 3000 -DZ BR BKN003 08/08 Q1021;
0113102240999992013010900504+53050+008800FM-15+0005EDDW V0202401N004110009019N0030001N1+00801+00701999999ADDGF107991999999999999999999MA1102001999999MW1101REMMET054METAR EDDW 090050Z 24008KT 3000 BR BKN003 08/07 Q1020;
0113102240999992013010901204+53050+008800FM-15+0005EDDW V0202401N004610009019N0030001N1+00801+00701999999ADDGF107991999999999999999999MA1102001999999MW1101REMMET054METAR EDDW 090120Z 24009KT 3000 BR BKN003 08/07 Q1020;
0120102240999992013010901504+53050+008800FM-15+0005EDDW V0202301N004110009019N0030001N1+00701+00701999999ADDGF107991999999999999999999MA1102001999999MW1101REMMET061METAR EDDW 090150Z 23008KT 3000 BR BKN003 BKN006 07/07 Q1020;
0120102240999992013010902204+53050+008800FM-15+0005EDDW V0202401N004110009019N0032001N1+00701+00701999999ADDGF107991999999999999999999MA1102001999999MW1101REMMET061METAR EDDW 090220Z 24008KT 3200 BR BKN003 BKN006 07/07 Q1020;
0120102240999992013010902504+53050+008800FM-15+0005EDDW V0202401N004610009019N0032001N1+00701+00701999999ADDGF107991999999999999999999MA1102001999999MW1101REMMET061METAR EDDW 090250Z 24009KT 3200 BR BKN003 BKN006 07/07 Q1020;
0120102240999992013010903204+53050+008800FM-15+0005EDDW V0202301N004610009019N0032001N1+00701+00701999999ADDGF107991999999999999999999MA1101901999999MW1101REMMET061METAR EDDW 090320Z 23009KT 3200 BR BKN003 BKN006 07/07 Q1019;
0126102240999992013010903504+53050+008800FM-15+0005EDDW V0202301N004610009019N0028001N1+00701+00701999999ADDGF107991999999999999999999MA1101901999999MW1101REMMET067METAR EDDW 090350Z 23009KT 2800 BR BKN003 BKN006 07/07 Q1019 NOSIG;
0126102240999992013010904204+53050+008800FM-15+0005EDDW V0202301N004110012019N0028001N1+00701+00701999999ADDGF107991999999999999999999MA1101901999999MW1101REMMET067METAR EDDW 090420Z 23008KT 2800 BR BKN004 BKN006 07/07 Q1019 NOSIG;
0126102240999992013010904504+53050+008800FM-15+0005EDDW V0202201N004110012019N0028001N1+00701+00701999999ADDGF107991999999999999999999MA1101901999999MW1101REMMET067METAR EDDW 090450Z 22008KT 2800 BR BKN004 BKN006 07/07 Q1019 NOSIG;
0136102240999992013010905204+53050+008800FM-15+0005EDDW V0202301N004110012019N0028001N1+00701+00601999999ADDGF107991999999999999999999MA1101801999999MW1101MW2511REMMET071METAR EDDW 090520Z 23008KT 2800 -DZ BR BKN004 BKN006 07/06 Q1018 NOSIG;
0141102240999992013010905504+53050+008800FM-15+0005EDDW V0202301N004610009019N0024001N1+00701+00701999999ADDGF107991999999999999999999MA1101801999999MW1101MW2511REMMET076METAR EDDW 090550Z 23009KT 2400 -DZ BR BKN003 BKN005 07/07 Q1018 REDZ NOSIG;
0139102240999992013010906204+53050+008800FM-15+0005EDDW V0202301N004610012019N0040001N1+00701+00601999999ADDGF107991999999999999999999MA1101801999999MW1101MW2511REMMET074METAR EDDW 090620Z 23009KT 4000 -DZ BR BKN004 07/06 Q1018 TEMPO 2500 RADZ;
0143102240999992013010906504+53050+008800FM-15+0005EDDW V0202301N004610018019N0050001N1+00701+00601999999ADDGF107991999999999999999999MA1101801999999MW1101REMMET084METAR EDDW 090650Z 23009KT 5000 BR FEW004 BKN006 07/06 Q1018 TEMPO 2500 RADZ BKN004;
0144102240999992013010907204+53050+008800FM-15+0005EDDW V0202301N005710018019N0040001N1+00701+00601999999ADDGF107991999999999999999999MA1101801999999MW1511REMMET085METAR EDDW 090720Z 23011KT 4000 -DZ FEW004 BKN006 07/06 Q1018 TEMPO 2500 RADZ BKN004;
0125102240999992013010907504+53050+008800FM-15+0005EDDW V0202201N005110012019N0029001N1+00701+00601999999ADDGF107991999999999999999999MA1101691999999MW1511REMMET066METAR EDDW 090750Z 22010KT 2900 -DZ BKN004 07/06 Q1017 REDZ NOSIG;
0130102240999992013010908204+53050+008800FM-15+0005EDDW V0202301N005110012019N0045001N1+00601+00601999999ADDGF107991999999999999999999MA1101691999999MW1511REMMET071METAR EDDW 090820Z 23010KT 4500 -DZ BKN004 06/06 Q1017 TEMPO 2500 DZRA;
0137102240999992013010908504+53050+008800FM-15+0005EDDW V0202301N005710015019N0035001N1+00601+00601999999ADDGF107991999999999999999999MA1101691999999MW1511REMMET078METAR EDDW 090850Z 23011KT 3500 -DZ BKN005 06/06 Q1017 TEMPO 2500 DZRA BKN004;
0137102240999992013010909204+53050+008800FM-15+0005EDDW V0202301N005710015019N0040001N1+00601+00601999999ADDGF107991999999999999999999MA1101691999999MW1511REMMET078METAR EDDW 090920Z 23011KT 4000 -DZ BKN005 06/06 Q1017 TEMPO 2500 DZRA BKN004;
0139102240999992013010909504+53050+008800FM-15+0005EDDW V0202301N005110015019N0040001N1+00601+00601999999ADDGF107991999999999999999999MA1101691999999MW1531MW2631REMMET074METAR EDDW 090950Z 23010KT 4000 RADZ BKN005 06/06 Q1017 TEMPO 2500 BKN004;
0150102240999992013010910204+53050+008800FM-15+0005EDDW V0202301N005710015019N0042001N1+00601+00601999999ADDGF107991999999999999999999MA1101591999999MW1511MW2611REMMET085METAR EDDW 091020Z 23011KT 4200 -RADZ BKN005 06/06 Q1016 RERA TEMPO 2500 RADZ BKN004;
0140102240999992013010910504+53050+008800FM-15+0005EDDW V0202301N005110015019N0080001N1+00601+00601999999ADDGF107991999999999999999999MA1101591999999MW1611REMMET081METAR EDDW 091050Z 23010KT 8000 -RA BKN005 06/06 Q1016 RERA TEMPO 4000 RA BKN004;
0140102240999992013010911204+53050+008800FM-15+0005EDDW V0202301N005710015019N0080001N1+00701+00601999999ADDGF107991999999999999999999MA1101491999999MW1611REMMET081METAR EDDW 091120Z 23011KT 8000 -RA BKN005 07/06 Q1015 RERA TEMPO 4000 RA BKN004;
0131102240999992013010911504+53050+008800FM-15+0005EDDW V0202401N005710018019N0070001N1+00701+00601999999ADDGF107991999999999999999999MA1101491999999MW1631REMMET072METAR EDDW 091150Z 24011KT 7000 RA BKN006 07/06 Q1015 TEMPO 4000 BKN004;
0131102240999992013010912204+53050+008800FM-15+0005EDDW V0202401N005710018019N0060001N1+00701+00601999999ADDGF107991999999999999999999MA1101491999999MW1631REMMET072METAR EDDW 091220Z 24011KT 6000 RA BKN006 07/06 Q1015 TEMPO 4000 BKN004;
0131102240999992013010912504+53050+008800FM-15+0005EDDW V0202501N005110018019N0060001N1+00701+00601999999ADDGF107991999999999999999999MA1101391999999MW1631REMMET072METAR EDDW 091250Z 25010KT 6000 RA BKN006 07/06 Q1014 TEMPO 4000 BKN004;
0138102240999992013010913204+53050+008800FM-15+0005EDDW V0202601N005110018019N0070001N1+00701+00601999999ADDGF108991999999999999999999MA1101391999999MW1631REMMET079METAR EDDW 091320Z 26010KT 7000 RA BKN006 OVC015 07/06 Q1014 TEMPO 4000 BKN004;
0133102240999992013010913504+53050+008800FM-15+0005EDDW V0202701N004110018019N0112651N1+00801+00701999999ADDGF107991999999999999999999MA1101391999999MW1611REMMET074METAR EDDW 091350Z 27008KT 9999 -RA BKN006 08/07 Q1014 RERA BECMG 31012KT;
0127102240999992013010914204+53050+008800FM-15+0005EDDW V0202901N004610012019N0050001N1+00801+00701999999ADDGF107991999999999999999999MA1101391999999MW1631REMMET068METAR EDDW 091420Z 29009KT 5000 RA BKN004 08/07 Q1014 BECMG 31012KT;
0139102240999992013010914504+53050+008800FM-15+0005EDDW V0203001N004110012019N0080001N1+00801+00701999999ADDGF107991999999999999999999MA1101391999999MW1611REMMET080METAR EDDW 091450Z 30008KT 8000 -RA BKN004 BKN008 08/07 Q1014 RERA TEMPO BKN008;
0129102240999992013010915204+53050+008800FM-15+0005EDDW V0203301N004110012019N0112651N1+00801+00701999999ADDGF107991999999999999999999MA1101391999999REMMET076METAR EDDW 091520Z 33008KT 9999 BKN004 BKN008 08/07 Q1014 REDZ BECMG BKN008;
0124102240999992013010915504+53050+008800FM-15+0005EDDW V0203301N005710033019N0112651N1+00801+00601999999ADDGF107991999999999999999999MA1101391999999REMMET071METAR EDDW 091550Z 33011KT 9999 SCT006 BKN011 08/06 Q1014 TEMPO BKN008;
0128102240999992013010916204+53050+008800FM-15+0005EDDW V0203101N004110024019N0112651N1+00801+00601999999ADDGF107991999999999999999999MA1101391999999MW1511REMMET069METAR EDDW 091620Z 31008KT 9999 -DZ BKN008 08/06 Q1014 TEMPO 4000 DZ;
0135102240999992013010916504+53050+008800FM-15+0005EDDW V0203001N004110024019N0112651N1+00701+00601999999ADDGF107991999999999999999999MA1101391999999MW1511REMMET076METAR EDDW 091650Z 30008KT 9999 -DZ FEW005 BKN008 07/06 Q1014 TEMPO 4000 DZ;
0135102240999992013010917204+53050+008800FM-15+0005EDDW V0203101N004110024019N0112651N1+00701+00601999999ADDGF107991999999999999999999MA1101391999999MW1511REMMET076METAR EDDW 091720Z 31008KT 9999 -DZ FEW005 BKN008 07/06 Q1014 TEMPO 4000 DZ;
0124102240999992013010917504+53050+008800FM-15+0005EDDW V0203101N005110045019N0112651N1+00701+00501999999ADDGF107991999999999999999999MA1101391999999REMMET071METAR EDDW 091750Z 31010KT 9999 FEW005 BKN015 07/05 Q1014 TEMPO BKN008;
0124102240999992013010918204+53050+008800FM-15+0005EDDW V0203201N006210042019N0112651N1+00701+00501999999ADDGF107991999999999999999999MA1101391999999REMMET071METAR EDDW 091820Z 32012KT 9999 FEW009 BKN014 07/05 Q1014 TEMPO BKN008;
0124102240999992013010918504+53050+008800FM-15+0005EDDW V0203001N004110045019N0112651N1+00601+00501999999ADDGF107991999999999999999999MA1101391999999REMMET071METAR EDDW 091850Z 30008KT 9999 FEW011 BKN015 06/05 Q1014 TEMPO BKN008;
0124102240999992013010919204+53050+008800FM-15+0005EDDW V0203001N003110054019N0112651N1+00601+00501999999ADDGF107991999999999999999999MA1101391999999REMMET071METAR EDDW 091920Z 30006KT 9999 FEW013 BKN018 06/05 Q1014 TEMPO BKN008;
0124102240999992013010919504+53050+008800FM-15+0005EDDW V0203001N004610054019N0112651N1+00601+00501999999ADDGF107991999999999999999999MA1101391999999REMMET071METAR EDDW 091950Z 30009KT 9999 SCT007 BKN018 06/05 Q1014 TEMPO BKN007;
0131102240999992013010920204+53050+008800FM-15+0005EDDW V0203001N00461003901CN0112651N1+00601+00501999999ADDGF107991999999999999999999MA1101391999999REMMET078METAR EDDW 092020Z 30009KT 9999 FEW007 SCT013 BKN018 06/05 Q1014 TEMPO BKN007;
0131102240999992013010920504+53050+008800FM-15+0005EDDW V0202901N004610036019N0112651N1+00601+00501999999ADDGF107991999999999999999999MA1101391999999REMMET078METAR EDDW 092050Z 29009KT 9999 FEW007 BKN012 BKN018 06/05 Q1014 TEMPO BKN007;
0111102240999992013010921204+53050+008800FM-15+0005EDDW V0202901N004612200019N0112651N1+00501+00401999999ADDGF104991999999999999999999MA1101391999999REMMET058METAR EDDW 092120Z 29009KT 9999 FEW007 SCT017 05/04 Q1014;
0111102240999992013010921504+53050+008800FM-15+0005EDDW V0202801N004112200019N0112651N1+00501+00401999999ADDGF104991999999999999999999MA1101391999999REMMET058METAR EDDW 092150Z 28008KT 9999 FEW007 SCT015 05/04 Q1014;
0104102240999992013010922204+53050+008800FM-15+0005EDDW V0202801N003610024019N0112651N1+00501+00401999999ADDGF107991999999999999999999MA1101291999999REMMET051METAR EDDW 092220Z 28007KT 9999 BKN008 05/04 Q1013;
0104102240999992013010922504+53050+008800FM-15+0005EDDW V0202701N003112200019N0112651N1+00301+00201999999ADDGF102991999999999999999999MA1101291999999REMMET051METAR EDDW 092250Z 27006KT 9999 FEW009 03/02 Q1013;
0104102240999992013010923204+53050+008800FM-15+0005EDDW V0202701N003112200019N0112651N1+00301+00301999999ADDGF102991999999999999999999MA1101291999999REMMET051METAR EDDW 092320Z 27006KT 9999 FEW009 03/03 Q1013;
0111102240999992013010923504+53050+008800FM-15+0005EDDW V0202701N003110114019N0112651N1+00401+00401999999ADDGF107991999999999999999999MA1101291999999REMMET058METAR EDDW 092350Z 27006KT 9999 FEW009 BKN038 04/04 Q1013;
0111102240999992013011000204+53050+008800FM-15+0005EDDW V0202701N004110120019N0112651N1+00501+00401999999ADDGF107991999999999999999999MA1101291999999REMMET058METAR EDDW 100020Z 27008KT 9999 FEW009 BKN040 05/04 Q1013;
0111102240999992013011000504+53050+008800FM-15+0005EDDW V0202601N004610129019N0112651N1+00501+00401999999ADDGF107991999999999999999999MA1101191999999REMMET058METAR EDDW 100050Z 26009KT 9999 SCT003 BKN043 05/04 Q1012;
0104102240999992013011001204+53050+008800FM-15+0005EDDW V0202601N004112200019N0112651N1+00401+00401999999ADDGF102991999999999999999999MA1101191999999REMMET051METAR EDDW 100120Z 26008KT 9999 FEW003 04/04 Q1012;
0111102240999992013011001504+53050+008800FM-15+0005EDDW V0202601N005110120019N0112651N1+00501+00401999999ADDGF107991999999999999999999MA1101191999999REMMET058METAR EDDW 100150Z 26010KT 9999 SCT004 BKN040 05/04 Q1012;
0104102240999992013011002204+53050+008800FM-15+0005EDDW V0202701N005110015019N0112651N1+00501+00401999999ADDGF107991999999999999999999MA1101191999999REMMET051METAR EDDW 100220Z 27010KT 9999 BKN005 05/04 Q1012;
0104102240999992013011002504+53050+008800FM-15+0005EDDW V0202801N004110018019N0112651N1+00501+00401999999ADDGF107991999999999999999999MA1101191999999REMMET051METAR EDDW 100250Z 28008KT 9999 BKN006 05/04 Q1012;
0111102240999992013011003204+53050+008800FM-15+0005EDDW V0202801N007712200019N0112651N1+00501+00301999999ADDGF104991999999999999999999MA1101081999999REMMET058METAR EDDW 100320Z 28015KT 9999 FEW006 SCT040 05/03 Q1011;
