0204104160999992006010104204+51517+007617FM-15+0148EDLW V0202001N00411006601CN0090001N1+00401+00301999999ADDGA1045+005101999GA2075+006601999GF107991999999999999999999MA1099901999999MW1611REMMET062EDLW 010420Z 20008KT 9000 -RA SCT017 BKN022 04/03 Q0999 RMK A;EQDQ01+000000PRSWM1Q02+000000PRSWM3Q03+000000PRSWM4
0184104160999992006010104504+51517+007617FM-15+0148EDLW V0202001N004610063059N0112651N1+00401+00301999999ADDGA1045+004505999GA2075+006305999MA1099901999999REMMET058EDLW 010450Z 20009KT 9999 SCT015 BKN021 04/03 Q0999 RMK B;EQDQ01+000000PRSWM1Q02+000000PRSWM2Q03+000000PRSWM3Q04+000000PRSWM4
0186104160999992006010105204+51517+007617FM-15+0148EDLW V0202001N00461004801CN0090001N1+00401+00301999999ADDGA1075+004801999GF107991999999999999999999MA1099901999999MW1631REMMET060METAR EDLW 010520Z 20009KT 9000 RA BKN016 04/03 Q0999 RMK C;EQDQ01+000000PRSWM1Q02+000000PRSWM3Q03+000000PRSWM4
0209104160999992006010105504+51517+007617FM-15+0148EDLW V0202001N00461015605CN0112651N1+00301+00201999999ADDGA1045+006601999GA2075+015605999GF107991999999999999999999MA1099901999999MW1611REMMET067EDLW 010550Z 20009KT 9999 -RA SCT022 BKN052 03/02 Q0999 RERA RMK D;EQDQ01+000000PRSWM1Q02+000000PRSWM3Q03+000000PRSWM4
0210104160999992006010106204+51517+007617FM-15+0148EDLW V0202001N00461016505CN0112651N1+00301+00201999999ADDGA1025+006601999GA2075+016505999GF107991999999999999999999MA1099901999999REMMET058EDLW 010620Z 20009KT 9999 FEW022 BKN055 03/02 Q0999 RMK E;EQDQ01+000000PRSWM1Q02+000000PRSWM2Q03+000000PRSWM3Q04+000000PRSWM4
0184104160999992006010106504+51517+007617FM-15+0148EDLW V0202001N004110168059N0112651N1+00301+00201999999ADDGA1045+005705999GA2075+016805999MA1100001999999REMMET058EDLW 010650Z 20008KT 9999 SCT019 BKN056 03/02 Q1000 RMK E;EQDQ01+000000PRSWM1Q02+000000PRSWM2Q03+000000PRSWM3Q04+000000PRSWM4
0210104160999992006010107204+51517+007617FM-15+0148EDLW V0201901N00461016205CN0112651N1+00401+00201999999ADDGA1025+005701999GA2075+016205999GF107991999999999999999999MA1100001999999REMMET058EDLW 010720Z 19009KT 9999 FEW019 BKN054 04/02 Q1000 RMK F;EQDQ01+000000PRSWM1Q02+000000PRSWM2Q03+000000PRSWM3Q04+000000PRSWM4
0139104160999992006010107504+51517+007617FM-15+0148EDLW V0202001N00571999999CY0099001N1+00401+00201999999ADDMA1100101999999REMMET045EDLW 010750Z 20011KT CAVOK 04/02 Q1001 RMK G;EQDQ01+000000PRSWM1Q02+000000PRSWM2Q03+000000PRSWM3Q04+000000PRSWM4
0139104160999992006010108204+51517+007617FM-15+0148EDLW V0202001N00461999999CY0099001N1+00401+00201999999ADDMA1100101999999REMMET045EDLW 010820Z 20009KT CAVOK 04/02 Q1001 RMK H;EQDQ01+000000PRSWM1Q02+000000PRSWM2Q03+000000PRSWM3Q04+000000PRSWM4
0209104160999992006010108504+51517+007617FM-15+0148EDLW V0202101N004612200019N0112651N1+00401+00201999999ADDGA1025+007201999GA2071+015001999GF107991999999999999999999MA1100201999999REMMET057EDLW 010850Z 21009KT 9999 FEW024 BKN54 04/02 Q1002 RMK I;EQDQ01+000000PRSWM1Q02+000000PRSWM2Q03+000000PRSWM3Q04+000000PRSWM4
0233104160999992006010109204+51517+007617FM-15+0148EDLW V0202101N00571013201CN0112651N1+00401+00201999999ADDGA1025+007201999GA2045+013201999GA3075+017405999GF107991999999999999999999MA1100201999999REMMET065EDLW 010920Z 21011KT 9999 FEW024 SCT044 BKN058 04/02 Q1002 RMK J;EQDQ01+000000PRSWM1Q02+000000PRSWM2Q03+000000PRSWM3Q04+000000PRSWM4
0210104160999992006010109504+51517+007617FM-15+0148EDLW V0202001N00411018001CN0112651N1+00401+00201999999ADDGA1025+007201999GA2075+018001999GF107991999999999999999999MA1100201999999REMMET058EDLW 010950Z 20008KT 9999 FEW024 BKN060 04/02 Q1002 RMK K;EQDQ01+000000PRSWM1Q02+000000PRSWM2Q03+000000PRSWM3Q04+000000PRSWM4
0216104160999992006010110204+51517+007617FM-15+0148EDLW V0202001N00461018905CN0112651N1+00501+00301999999ADDGA1025+007201999GA2075+018905999GF107991999999999999999999MA1100201999999REMMET064METAR EDLW 011020Z 20009KT 9999 FEW024 BKN063 05/03 Q1002 RMK L;EQDQ01+000000PRSWM1Q02+000000PRSWM2Q03+000000PRSWM3Q04+000000PRSWM4
0139104160999992006010110504+51517+007617FM-15+0148EDLW V0202001N00511999999CY0099001N1+00501+00301999999ADDMA1100201999999REMMET045EDLW 011050Z 20010KT CAVOK 05/03 Q1002 RMK M;EQDQ01+000000PRSWM1Q02+000000PRSWM2Q03+000000PRSWM3Q04+000000PRSWM4
0139104160999992006010111204+51517+007617FM-15+0148EDLW V0202001N00411999999CY0099001N1+00501+00301999999ADDMA1100201999999REMMET045EDLW 011120Z 20008KT CAVOK 05/03 Q1002 RMK N;EQDQ01+000000PRSWM1Q02+000000PRSWM2Q03+000000PRSWM3Q04+000000PRSWM4
0139104160999992006010111504+51517+007617FM-15+0148EDLW V0202001N00411999999CY0099001N1+00601+00301999999ADDMA1100201999999REMMET045EDLW 011150Z 20008KT CAVOK 06/03 Q1002 RMK O;EQDQ01+000000PRSWM1Q02+000000PRSWM2Q03+000000PRSWM3Q04+000000PRSWM4
0226104160999992006010112204+51517+007617FM-15+0148EDLW V0202001N00621999999CN0112651N1+00601+00201999999ADDGA1025+005701999GA2045+018905999GF104991999999999999999999MA1100311999999REMMET058EDLW 011220Z 20012KT 9999 FEW019 SCT063 06/02 Q1003 RMK P;EQDQ01+000000PRSWM1Q02+000000PRSWM2Q03+000000PRSWM3Q04+000000PRSWM4P01 018903SCOCIG
0161104160999992006010112504+51517+007617FM-15+0148EDLW V0202001N004612200019N0112651N1+00601+00201999999ADDGA1045+012905999MA1100301999999REMMET051EDLW 011250Z 20009KT 9999 SCT043 06/02 Q1003 RMK Q;EQDQ01+000000PRSWM1Q02+000000PRSWM2Q03+000000PRSWM3Q04+000000PRSWM4
0161104160999992006010113204+51517+007617FM-15+0148EDLW V0202001N004612200019N0112651N1+00601+00201999999ADDGA1045+012905999MA1100301999999REMMET051EDLW 011320Z 20009KT 9999 SCT043 06/02 Q1003 RMK R;EQDQ01+000000PRSWM1Q02+000000PRSWM2Q03+000000PRSWM3Q04+000000PRSWM4
0145104160999992006010113504+51517+007617FM-15+0148EDLW V0201801N00461999999CY0099001N1+00601+00201999999ADDMA1100311999999REMMET051METAR EDLW 011350Z 18009KT CAVOK 06/02 Q1003 RMK S;EQDQ01+000000PRSWM1Q02+000000PRSWM2Q03+000000PRSWM3Q04+000000PRSWM4
0139104160999992006010114204+51517+007617FM-15+0148EDLW V0202001N00361999999CY0099001N1+00601+00201999999ADDMA1100311999999REMMET045EDLW 011420Z 20007KT CAVOK 06/02 Q1003 RMK T;EQDQ01+000000PRSWM1Q02+000000PRSWM2Q03+000000PRSWM3Q04+000000PRSWM4
0234104160999992006010114504+51517+007617FM-15+0148EDLW V0202201N00151999999CN0112651N1+00601+00201999999ADDGA1025+010201999GA2045+018001999GF104991999999999999999999MA1100411999999REMMET066EDLW 011450Z 22003KT 190V250 9999 FEW034 SCT060 06/02 Q1004 RMK U;EQDQ01+000000PRSWM1Q02+000000PRSWM2Q03+000000PRSWM3Q04+000000PRSWM4P01 018003SCOCIG
0187104160999992006010115204+51517+007617FM-15+0148EDLW V0202001N00101009901CN0112651N1+00501+00201999999ADDGA1075+009901999GF107991999999999999999999MA1100511999999REMMET051EDLW 011520Z 20002KT 9999 BKN033 05/02 Q1005 RMK V;EQDQ01+000000PRSWM1Q02+000000PRSWM2Q03+000000PRSWM3Q04+000000PRSWM4
0195104160999992006010115504+51517+007617FM-15+0148EDLW V0201701N00211009901CN0112651N1+00501+00201999999ADDGA1075+009901999GF107991999999999999999999MA1100511999999REMMET059EDLW 011550Z 17004KT 140V260 9999 BKN033 05/02 Q1005 RMK W;EQDQ01+000000PRSWM1Q02+000000PRSWM2Q03+000000PRSWM3Q04+000000PRSWM4
0187104160999992006010116204+51517+007617FM-15+0148EDLW V0201501N00211010501CN0112651N1+00501+00101999999ADDGA1075+010501999GF107991999999999999999999MA1100511999999REMMET051METAR EDLW 011620Z 15004KT 9999 BKN035 05/01 Q1005;EQDQ01+000000PRSWM1Q02+000000PRSWM2Q03+000000PRSWM3Q04+000000PRSWM4
0187104160999992006010116504+51517+007617FM-15+0148EDLW V0201901N00151011101CN0112651N1+00501+00101999999ADDGA1075+011101999GF107991999999999999999999MA1100611999999REMMET051EDLW 011650Z 19003KT 9999 BKN037 05/01 Q1006 RMK Y;EQDQ01+000000PRSWM1Q02+000000PRSWM2Q03+000000PRSWM3Q04+000000PRSWM4
0187104160999992006010117204+51517+007617FM-15+0148EDLW V0201601N00101011101CN0112651N1+00401+00101999999ADDGA1075+011101999GF107991999999999999999999MA1100611999999REMMET051EDLW 011720Z 16002KT 9999 BKN037 04/01 Q1006 RMK Z;EQDQ01+000000PRSWM1Q02+000000PRSWM2Q03+000000PRSWM3Q04+000000PRSWM4
0187104160999992006010118504+51517+007617FM-15+0148EDLW V0201001N00151010501CN0112651N1+00401+00101999999ADDGA1075+010501999GF107991999999999999999999MA1100811999999REMMET051EDLW 011850Z 10003KT 9999 BKN035 04/01 Q1008 RMK C;EQDQ01+000000PRSWM1Q02+000000PRSWM2Q03+000000PRSWM3Q04+000000PRSWM4
0187104160999992006010119204+51517+007617FM-15+0148EDLW V0201001N00151010201CN0112651N1+00201+00001999999ADDGA1075+010201999GF107991999999999999999999MA1100811999999REMMET051EDLW 011920Z 10003KT 9999 BKN034 02/00 Q1008 RMK D;EQDQ01+000000PRSWM1Q02+000000PRSWM2Q03+000000PRSWM3Q04+000000PRSWM4
0187104160999992006010119504+51517+007617FM-15+0148EDLW V0201301N00261010201CN0112651N1+00201+00101999999ADDGA1075+010201999GF107991999999999999999999MA1100811999999REMMET051EDLW 011950Z 13005KT 9999 BKN034 02/01 Q1008 RMK E;EQDQ01+000000PRSWM1Q02+000000PRSWM2Q03+000000PRSWM3Q04+000000PRSWM4
0139104160999992006010120204+51517+007617FM-15+0148EDLW V0201501N00261999999CY0099001N1+00201+00001999999ADDMA1100911999999REMMET045EDLW 012020Z 15005KT CAVOK 02/00 Q1009 RMK F;EQDQ01+000000PRSWM1Q02+000000PRSWM2Q03+000000PRSWM3Q04+000000PRSWM4
0196104160999992006010120504+51517+007617FM-15+0148EDLW V0201401N00151010501CN0112651N1+00101+00001999999ADDGA1075+010501999GF107991999999999999999999MA1101021999999REMMET060EDLW 012050Z 14003KT 110V270 9999 BKN035 01/M00 Q1010 RMK G;EQDQ01+000000PRSWM1Q02+000000PRSWM2Q03+000000PRSWM3Q04+000000PRSWM4
0161104160999992006010121204+51517+007617FM-15+0148EDLW V0201601N002612200019N0112651N1+00101+00001999999ADDGA1045+010505999MA1101001999999REMMET051EDLW 012120Z 16005KT 9999 SCT035 01/00 Q1010 RMK H;EQDQ01+000000PRSWM1Q02+000000PRSWM2Q03+000000PRSWM3Q04+000000PRSWM4
0187104160999992006010204204+51517+007617FM-15+0148EDLW V0203101N00101010801CN0112651N1+00001+00001999999ADDGA1075+010801999GF107991999999999999999999MA1101591999999REMMET051EDLW 020420Z 31002KT 9999 BKN036 00/00 Q1016 RMK A;EQDQ01+000000PRSWM1Q02+000000PRSWM2Q03+000000PRSWM3Q04+000000PRSWM4
0210104160999992006010204504+51517+007617FM-15+0148EDLW V0202201N00101011401CN0112651N1+00001+00001999999ADDGA1025+009001999GA2075+011401999GF107991999999999999999999MA1101591999999REMMET058EDLW 020450Z 22002KT 9999 FEW030 BKN038 00/00 Q1016 RMK B;EQDQ01+000000PRSWM1Q02+000000PRSWM2Q03+000000PRSWM3Q04+000000PRSWM4
0210104160999992006010205204+51517+007617FM-15+0148EDLW V0201701N00211011401CN0112651N1+00001+00001999999ADDGA1025+004501999GA2075+011401999GF107991999999999999999999MA1101691999999REMMET058EDLW 020520Z 17004KT 9999 FEW015 BKN038 00/00 Q1017 RMK C;EQDQ01+000000PRSWM1Q02+000000PRSWM2Q03+000000PRSWM3Q04+000000PRSWM4
0210104160999992006010205504+51517+007617FM-15+0148EDLW V0201801N00151011401CN0112651N1+00001+00001999999ADDGA1025+006601999GA2075+011401999GF107991999999999999999999MA1101691999999REMMET058EDLW 020550Z 18003KT 9999 FEW022 BKN038 00/00 Q1017 RMK D;EQDQ01+000000PRSWM1Q02+000000PRSWM2Q03+000000PRSWM3Q04+000000PRSWM4
0210104160999992006010206204+51517+007617FM-15+0148EDLW V0202101N00151010801CN0112651N1+00101+00101999999ADDGA1025+006601999GA2075+010801999GF107991999999999999999999MA1101691999999REMMET058EDLW 020620Z 21003KT 9999 FEW022 BKN036 01/01 Q1017 RMK E;EQDQ01+000000PRSWM1Q02+000000PRSWM2Q03+000000PRSWM3Q04+000000PRSWM4
0187104160999992006010206504+51517+007617FM-15+0148EDLW V0202401N00101010801CN0112651N1+00101+00101999999ADDGA1075+010801999GF107991999999999999999999MA1101801999999REMMET051EDLW 020650Z 24002KT 9999 BKN036 01/01 Q1018 RMK F;EQDQ01+000000PRSWM1Q02+000000PRSWM2Q03+000000PRSWM3Q04+000000PRSWM4
0187104160999992006010207204+51517+007617FM-15+0148EDLW V0209999V00151010801CN0070001N1+00001+00001999999ADDGA1075+010801999GF107991999999999999999999MA1101801999999REMMET051EDLW 020720Z VRB03KT 7000 BKN036 00/00 Q1018 RMK G;EQDQ01+000000PRSWM1Q02+000000PRSWM2Q03+000000PRSWM3Q04+000000PRSWM4
0219104160999992006010207504+51517+007617FM-15+0148EDLW V0202701N00051999999CN0040001N1+00001+00001999999ADDGA1045+003601999GA2045+010801999GF104991999999999999999999MA1101801999999MW1101REMMET061EDLW 020750Z 27001KT 4000 BR SCT012 SCT036 00/00 Q1018 RMK H;EQDQ01+000000PRSWM1Q02+000000PRSWM3Q03+000000PRSWM4P01 010803SCOCIG
0219104160999992006010208204+51517+007617FM-15+0148EDLW V0203001N00151999999CN0030001N1+00001+00001999999ADDGA1025+001501999GA2045+010801999GF104991999999999999999999MA1101901999999MW1101REMMET061EDLW 020820Z 30003KT 3000 BR FEW005 SCT036 00/00 Q1019 RMK I;EQDQ01+000000PRSWM1Q02+000000PRSWM3Q03+000000PRSWM4P01 010803SCOCIG
0203104160999992006010208504+51517+007617FM-15+0148EDLW V0202901N00151001201CN0025001N1+00101+00101999999ADDGA1025+000601999GA2075+001201999GF107991999999999999999999MA1102001999999MW1101REMMET061EDLW 020850Z 29003KT 2500 BR FEW002 BKN004 01/01 Q1020 RMK J;EQDQ01+000000PRSWM1Q02+000000PRSWM3Q03+000000PRSWM4
0180104160999992006010209204+51517+007617FM-15+0148EDLW V0209999V00101000601CN0020001N1+00101+00101999999ADDGA1075+000601999GF107991999999999999999999MA1102001999999MW1101REMMET054EDLW 020920Z VRB02KT 2000 BR BKN002 01/01 Q1020 RMK K;EQDQ01+000000PRSWM1Q02+000000PRSWM3Q03+000000PRSWM4
0214104160999992006010209504+51517+007617FM-15+0148EDLW V0203401N00151000301CN0006001N1+00101+00101999999ADDED124U08009GA1075+000301999GF107991999999999999999999MA1102001999999MW1441REMMET077EDLW 020950Z 34003KT 300V010 0600 R24/0800V1400D FG BKN001 01/01 Q1020 RMK L;EQDQ01+000000PRSWM1Q02+000000PRSWM3Q03+000000PRSWM4
0201104160999992006010210204+51517+007617FM-15+0148EDLW V0203501N00101000301CN0004001N1+00101+00101999999ADDED124U06009GA1075+000301999GF107991999999999999999999MA1102101999999MW1441REMMET064EDLW 021020Z 35002KT 0400 R24/0600N FG BKN001 01/01 Q1021 RMK N;EQDQ01+000000PRSWM1Q02+000000PRSWM3Q03+000000PRSWM4
0201104160999992006010210504+51517+007617FM-15+0148EDLW V0203301N00261000301CN0004001N1+00101+00101999999ADDED106U03759GA1075+000301999GF107991999999999999999999MA1102101999999MW1441REMMET064EDLW 021050Z 33005KT 0400 R06/0375N FG BKN001 01/01 Q1021 RMK O;EQDQ01+000000PRSWM1Q02+000000PRSWM3Q03+000000PRSWM4
0201104160999992006010211204+51517+007617FM-15+0148EDLW V0203401N00101000301CN0002001N1+00101+00101999999ADDED106U03259GA1075+000301999GF107991999999999999999999MA1102101999999MW1441REMMET064EDLW 021120Z 34002KT 0200 R06/0325N FG BKN001 01/01 Q1021 RMK P;EQDQ01+000000PRSWM1Q02+000000PRSWM3Q03+000000PRSWM4
0211104160999992006010211504+51517+007617FM-15+0148EDLW V0201501N00051000151CN0002001N1+00101+00101999999ADDED106U03259GA1091+000151999GF109991999999000251999999MA1102101999999MW1451REMMET074METAR EDLW 021150Z 15001KT 0200 R06/0325V0400N FG VV/// 01/01 Q1021 RMK Q;EQDQ01+000000PRSWM1Q02+000000PRSWM3Q03+000000PRSWM4
0207104160999992006010212204+51517+007617FM-15+0148EDLW V0201901N00151000301CN0008001N1+00201+00201999999ADDED106U09009GA1075+000301999GF107991999999999999999999MA1102101999999MW1441REMMET070METAR EDLW 021220Z 19003KT 0800 R06/0900VP1500N FG BKN001 02/02 Q1021;EQDQ01+000000PRSWM1Q02+000000PRSWM3Q03+000000PRSWM4
0180104160999992006010212504+51517+007617FM-15+0148EDLW V0202201N00151000601CN0015001N1+00201+00201999999ADDGA1075+000601999GF107991999999999999999999MA1102101999999MW1101REMMET054EDLW 021250Z 22003KT 1500 BR BKN002 02/02 Q1021 RMK T;EQDQ01+000000PRSWM1Q02+000000PRSWM3Q03+000000PRSWM4
0180104160999992006010213204+51517+007617FM-15+0148EDLW V0202201N00211000901CN0015001N1+00201+00201999999ADDGA1075+000901999GF107991999999999999999999MA1102201999999MW1101REMMET054EDLW 021320Z 22004KT 1500 BR BKN003 02/02 Q1022 RMK W;EQDQ01+000000PRSWM1Q02+000000PRSWM3Q03+000000PRSWM4
0203104160999992006010213504+51517+007617FM-15+0148EDLW V0202301N00211005101CN0030001N1+00201+00201999999ADDGA1025+000901999GA2075+005101999GF107991999999999999999999MA1102201999999MW1101REMMET061EDLW 021350Z 23004KT 3000 BR FEW003 BKN017 02/02 Q1022 RMK X;EQDQ01+000000PRSWM1Q02+000000PRSWM3Q03+000000PRSWM4
0180104160999992006010214204+51517+007617FM-15+0148EDLW V0202801N00151001201CN0020001N1+00201+00201999999ADDGA1075+001201999GF107991999999999999999999MA1102201999999MW1101REMMET054EDLW 021420Z 28003KT 2000 BR BKN004 02/02 Q1022 RMK Y;EQDQ01+000000PRSWM1Q02+000000PRSWM3Q03+000000PRSWM4
0180104160999992006010215504+51517+007617FM-15+0148EDLW V0202601N00151001201CN0020001N1+00201+00201999999ADDGA1075+001201999GF107991999999999999999999MA1102301999999MW1101REMMET054EDLW 021550Z 26003KT 2000 BR BKN004 02/02 Q1023 RMK B;EQDQ01+000000PRSWM1Q02+000000PRSWM3Q03+000000PRSWM4
0180104160999992006010216204+51517+007617FM-15+0148EDLW V0202501N00151001201CN0040001N1+00301+00301999999ADDGA1075+001201999GF107991999999999999999999MA1102301999999MW1101REMMET054EDLW 021620Z 25003KT 4000 BR BKN004 03/03 Q1023 RMK C;EQDQ01+000000PRSWM1Q02+000000PRSWM3Q03+000000PRSWM4
0188104160999992006010216504+51517+007617FM-15+0148EDLW V0203001N00211000901CN0035001N1+00301+00301999999ADDGA1075+000901999GF107991999999999999999999MA1102301999999MW1101REMMET062EDLW 021650Z 30004KT 270V340 3500 BR BKN003 03/03 Q1023 RMK D;EQDQ01+000000PRSWM1Q02+000000PRSWM3Q03+000000PRSWM4
0188104160999992006010217204+51517+007617FM-15+0148EDLW V0203001N00211000901CN0015001N1+00301+00301999999ADDGA1075+000901999GF107991999999999999999999MA1102401999999MW1101REMMET062EDLW 021720Z 30004KT 250V330 1500 BR BKN003 03/03 Q1024 RMK E;EQDQ01+000000PRSWM1Q02+000000PRSWM3Q03+000000PRSWM4
0188104160999992006010217504+51517+007617FM-15+0148EDLW V0202901N00151000901CN0015001N1+00301+00301999999ADDGA1075+000901999GF107991999999999999999999MA1102401999999MW1101REMMET062EDLW 021750Z 29003KT 260V330 1500 BR BKN003 03/03 Q1024 RMK F;EQDQ01+000000PRSWM1Q02+000000PRSWM3Q03+000000PRSWM4
0180104160999992006010218204+51517+007617FM-15+0148EDLW V0202801N00101000901CN0015001N1+00301+00301999999ADDGA1075+000901999GF107991999999999999999999MA1102401999999MW1101REMMET054EDLW 021820Z 28002KT 1500 BR BKN003 03/03 Q1024 RMK G;EQDQ01+000000PRSWM1Q02+000000PRSWM3Q03+000000PRSWM4
0180104160999992006010218504+51517+007617FM-15+0148EDLW V0202801N00101000901CN0030001N1+00301+00301999999ADDGA1075+000901999GF107991999999999999999999MA1102401999999MW1101REMMET054EDLW 021850Z 28002KT 3000 BR BKN003 03/03 Q1024 RMK H;EQDQ01+000000PRSWM1Q02+000000PRSWM3Q03+000000PRSWM4
0180104160999992006010219204+51517+007617FM-15+0148EDLW V0202801N00151000901CN0030001N1+00301+00301999999ADDGA1075+000901999GF107991999999999999999999MA1102511999999MW1101REMMET054EDLW 021920Z 28003KT 3000 BR BKN003 03/03 Q1025 RMK I;EQDQ01+000000PRSWM1Q02+000000PRSWM3Q03+000000PRSWM4
0180104160999992006010219504+51517+007617FM-15+0148EDLW V0203001N00151000901CN0030001N1+00301+00301999999ADDGA1075+000901999GF107991999999999999999999MA1102511999999MW1101REMMET054EDLW 021950Z 30003KT 3000 BR BKN003 03/03 Q1025 RMK J;EQDQ01+000000PRSWM1Q02+000000PRSWM3Q03+000000PRSWM4
0180104160999992006010220204+51517+007617FM-15+0148EDLW V0203101N00211000901CN0030001N1+00301+00301999999ADDGA1075+000901999GF107991999999999999999999MA1102511999999MW1101REMMET054EDLW 022020Z 31004KT 3000 BR BKN003 03/03 Q1025 RMK K;EQDQ01+000000PRSWM1Q02+000000PRSWM3Q03+000000PRSWM4
0211104160999992006010220504+51517+007617FM-15+0148EDLW V0203301N00151000901CN0040001N1+00301+00301999999ADDGA1025+000601999GA2075+000901999GF107991999999999999999999MA1102511999999MW1101REMMET069EDLW 022050Z 33003KT 300V010 4000 BR FEW002 BKN003 03/03 Q1025 RMK L;EQDQ01+000000PRSWM1Q02+000000PRSWM3Q03+000000PRSWM4
0211104160999992006010221204+51517+007617FM-15+0148EDLW V0203501N00211000901CN0040001N1+00201+00201999999ADDGA1025+000601999GA2075+000901999GF107991999999999999999999MA1102511999999MW1101REMMET069EDLW 022120Z 35004KT 310V040 4000 BR FEW002 BKN003 02/02 Q1025 RMK M;EQDQ01+000000PRSWM1Q02+000000PRSWM3Q03+000000PRSWM4
0195104160999992006010304204+51517+007617FM-15+0148EDLW V0201801N00211010201CN0090001N1-00101-00101999999ADDGA1075+010201999GF107991999999999999999999MA1102711999999REMMET059METAR EDLW 030420Z 18004KT 9000 BKN034 M01/M01 Q1027 RMK A;EQDQ01+000000PRSWM1Q02+000000PRSWM2Q03+000000PRSWM3Q04+000000PRSWM4
0212104160999992006010304504+51517+007617FM-15+0148EDLW V0202001N00151008701CN0090001N1+00001+00001999999ADDGA1025+006001999GA2075+008701999GF107991999999999999999999MA1102711999999REMMET060EDLW 030450Z 20003KT 9000 FEW020 BKN029 M00/M00 Q1027 RMK B;EQDQ01+000000PRSWM1Q02+000000PRSWM2Q03+000000PRSWM3Q04+000000PRSWM4
0218104160999992006010305204+51517+007617FM-15+0148EDLW V0202601N00101009301CN0090001N1+00001+00001999999ADDGA1025+004801999GA2075+009301999GF107991999999999999999999MA1102811999999REMMET066METAR EDLW 030520Z 26002KT 9000 FEW016 BKN031 M00/M00 Q1028 RMK C;EQDQ01+000000PRSWM1Q02+000000PRSWM2Q03+000000PRSWM3Q04+000000PRSWM4
0186104160999992006010305504+51517+007617FM-15+0148EDLW V0202701N001010111059N0070001N1+00001+00001999999ADDGA1045+005405999GA2075+011105999MA1102801999999REMMET060EDLW 030550Z 27002KT 7000 SCT018 BKN037 M00/M00 Q1028 RMK D;EQDQ01+000000PRSWM1Q02+000000PRSWM2Q03+000000PRSWM3Q04+000000PRSWM4
0206104160999992006010306204+51517+007617FM-15+0148EDLW V0202801N00151006301CN0070001N1+00001+00001999999ADDGA1045+003601999GA2075+006301999GF107991999999999999999999MA1102811999999MW1711REMMET064EDLW 030620Z 28003KT 7000 -SN SCT012 BKN021 M00/M00 Q1028 RMK F;EQDQ01+000000PRSWM1Q02+000000PRSWM3Q03+000000PRSWM4
0187104160999992006010306504+51517+007617FM-15+0148EDLW V0202501N00101004801CN0080001N1+00001+00001999999ADDGA1075+004801999GF107991999999999999999999MA1102811999999REMMET051EDLW 030650Z 25002KT 8000 BKN016 00/00 Q1028 RMK G;EQDQ01+000000PRSWM1Q02+000000PRSWM2Q03+000000PRSWM3Q04+000000PRSWM4
0184104160999992006010307204+51517+007617FM-15+0148EDLW V0202501N001510060059N0060001N1+00001+00001999999ADDGA1045+004205999GA2075+006005999MA1102801999999REMMET058EDLW 030720Z 25003KT 6000 SCT014 BKN020 00/00 Q1028 RMK H;EQDQ01+000000PRSWM1Q02+000000PRSWM2Q03+000000PRSWM3Q04+000000PRSWM4
0203104160999992006010307504+51517+007617FM-15+0148EDLW V0202401N00151006901CN0050001N1+00001+00001999999ADDGA1045+004201999GA2075+006901999GF107991999999999999999999MA1102811999999MW1101REMMET061EDLW 030750Z 24003KT 5000 BR SCT014 BKN023 00/00 Q1028 RMK I;EQDQ01+000000PRSWM1Q02+000000PRSWM3Q03+000000PRSWM4
0203104160999992006010308204+51517+007617FM-15+0148EDLW V0202101N00101007201CN0050001N1+00001+00001999999ADDGA1045+005701999GA2075+007201999GF107991999999999999999999MA1102911999999MW1101REMMET061EDLW 030820Z 21002KT 5000 BR SCT019 BKN024 00/00 Q1029 RMK J;EQDQ01+000000PRSWM1Q02+000000PRSWM3Q03+000000PRSWM4
0210104160999992006010308504+51517+007617FM-15+0148EDLW V0201901N00101006601CN0070001N1+00001+00001999999ADDGA1025+001801999GA2075+006601999GF107991999999999999999999MA1102911999999REMMET058EDLW 030850Z 19002KT 7000 FEW006 BKN022 00/00 Q1029 RMK K;EQDQ01+000000PRSWM1Q02+000000PRSWM2Q03+000000PRSWM3Q04+000000PRSWM4
0195104160999992006010309204+51517+007617FM-15+0148EDLW V0201601N00151005701CN0080001N1+00101+00101999999ADDGA1075+005701999GF107991999999999999999999MA1102911999999REMMET059EDLW 030920Z 16003KT 120V190 8000 BKN019 01/01 Q1029 RMK L;EQDQ01+000000PRSWM1Q02+000000PRSWM2Q03+000000PRSWM3Q04+000000PRSWM4
0187104160999992006010309504+51517+007617FM-15+0148EDLW V0201701N00151005701CN0080001N1+00101+00101999999ADDGA1075+005701999GF107991999999999999999999MA1102911999999REMMET051EDLW 030950Z 17003KT 8000 BKN019 01/01 Q1029 RMK M;EQDQ01+000000PRSWM1Q02+000000PRSWM2Q03+000000PRSWM3Q04+000000PRSWM4
0226104160999992006010310204+51517+007617FM-15+0148EDLW V0202201N00151999999CN0080001N1+00201+00201999999ADDGA1025+005401999GA2045+020405999GF104991999999999999999999MA1102911999999REMMET058EDLW 031020Z 22003KT 8000 FEW018 SCT068 02/02 Q1029 RMK N;EQDQ01+000000PRSWM1Q02+000000PRSWM2Q03+000000PRSWM3Q04+000000PRSWM4P01 020403SCOCIG
0142104160999992006010310504+51517+007617FM-15+0148EDLW V0202301N001012200019N0080001N1+00301+00201999999ADDMA1102911999999REMMET048EDLW 031050Z 23002KT 8000 NSC 03/02 Q1029 RMK O;EQDQ01+000000PRSWM1Q02+000000PRSWM2Q03+000000PRSWM3Q04+000000PRSWM4
0184104160999992006010311204+51517+007617FM-15+0148EDLW V0203501N000510054059N0080001N1+00301+00101999999ADDGA1045+002105999GA2075+005405999MA1102901999999REMMET058EDLW 031120Z 35001KT 8000 SCT007 BKN018 03/01 Q1029 RMK P;EQDQ01+000000PRSWM1Q02+000000PRSWM2Q03+000000PRSWM3Q04+000000PRSWM4
0184104160999992006010311504+51517+007617FM-15+0148EDLW V0201901N002110054059N0070001N1+00201+00201999999ADDGA1045+002105999GA2075+005405999MA1102901999999REMMET058EDLW 031150Z 19004KT 7000 SCT007 BKN018 02/02 Q1029 RMK Q;EQDQ01+000000PRSWM1Q02+000000PRSWM2Q03+000000PRSWM3Q04+000000PRSWM4
0184104160999992006010312204+51517+007617FM-15+0148EDLW V0201601N001510054059N0070001N1+00201+00201999999ADDGA1045+003005999GA2075+005405999MA1102901999999REMMET058EDLW 031220Z 16003KT 7000 SCT010 BKN018 02/02 Q1029 RMK R;EQDQ01+000000PRSWM1Q02+000000PRSWM2Q03+000000PRSWM3Q04+000000PRSWM4
0184104160999992006010312504+51517+007617FM-15+0148EDLW V0209999V001010051059N0080001N1+00301+00201999999ADDGA1045+002705999GA2075+005105999MA1102901999999REMMET058EDLW 031250Z VRB02KT 8000 SCT009 BKN017 03/02 Q1029 RMK S;EQDQ01+000000PRSWM1Q02+000000PRSWM2Q03+000000PRSWM3Q04+000000PRSWM4
0184104160999992006010313204+51517+007617FM-15+0148EDLW V0201201N001510060059N0070001N1+00301+00201999999ADDGA1045+003605999GA2075+006005999MA1102901999999REMMET058EDLW 031320Z 12003KT 7000 SCT012 BKN020 03/02 Q1029 RMK T;EQDQ01+000000PRSWM1Q02+000000PRSWM2Q03+000000PRSWM3Q04+000000PRSWM4
0190104160999992006010313504+51517+007617FM-15+0148EDLW V0200801N001010054059N0060001N1+00201+00201999999ADDGA1045+003605999GA2075+005405999MA1102901999999REMMET064METAR EDLW 031350Z 08002KT 6000 SCT012 BKN018 02/02 Q1029 RMK U;EQDQ01+000000PRSWM1Q02+000000PRSWM2Q03+000000PRSWM3Q04+000000PRSWM4
0203104160999992006010314204+51517+007617FM-15+0148EDLW V0201301N00051006301CN0050001N1+00201+00201999999ADDGA1045+003001999GA2075+006301999GF107991999999999999999999MA1102911999999MW1101REMMET061EDLW 031420Z 13001KT 5000 BR SCT010 BKN021 02/02 Q1029 RMK V;EQDQ01+000000PRSWM1Q02+000000PRSWM3Q03+000000PRSWM4
0203104160999992006010314504+51517+007617FM-15+0148EDLW V0201201N00151006901CN0050001N1+00201+00201999999ADDGA1045+004801999GA2075+006901999GF107991999999999999999999MA1103011999999MW1101REMMET061EDLW 031450Z 12003KT 5000 BR SCT016 BKN023 02/02 Q1030 RMK W;EQDQ01+000000PRSWM1Q02+000000PRSWM3Q03+000000PRSWM4
0203104160999992006010315204+51517+007617FM-15+0148EDLW V0201201N00151010501CN0050001N1+00201+00201999999ADDGA1045+003601999GA2075+010501999GF107991999999999999999999MA1103011999999MW1101REMMET061EDLW 031520Z 12003KT 5000 BR SCT012 BKN035 02/02 Q1030 RMK X;EQDQ01+000000PRSWM1Q02+000000PRSWM3Q03+000000PRSWM4
0203104160999992006010315504+51517+007617FM-15+0148EDLW V0201001N00151006301CN0045001N1+00201+00201999999ADDGA1045+003001999GA2075+006301999GF107991999999999999999999MA1103011999999MW1101REMMET061EDLW 031550Z 10003KT 4500 BR SCT010 BKN021 02/02 Q1030 RMK Y;EQDQ01+000000PRSWM1Q02+000000PRSWM3Q03+000000PRSWM4
0203104160999992006010316204+51517+007617FM-15+0148EDLW V0201301N00151005101CN0045001N1+00201+00201999999ADDGA1045+003601999GA2075+005101999GF107991999999999999999999MA1103011999999MW1101REMMET061EDLW 031620Z 13003KT 4500 BR SCT012 BKN017 02/02 Q1030 RMK Z;EQDQ01+000000PRSWM1Q02+000000PRSWM3Q03+000000PRSWM4
0203104160999992006010316504+51517+007617FM-15+0148EDLW V0201701N00211009301CN0045001N1+00201+00201999999ADDGA1045+004201999GA2075+009301999GF107991999999999999999999MA1103011999999MW1101REMMET061EDLW 031650Z 17004KT 4500 BR SCT014 BKN031 02/02 Q1030 RMK A;EQDQ01+000000PRSWM1Q02+000000PRSWM3Q03+000000PRSWM4
0180104160999992006010317204+51517+007617FM-15+0148EDLW V0201901N00361008701CN0045001N1+00101+00001999999ADDGA1075+008701999GF107991999999999999999999MA1103011999999MW1101REMMET054EDLW 031720Z 19007KT 4500 BR BKN029 01/00 Q1030 RMK B;EQDQ01+000000PRSWM1Q02+000000PRSWM3Q03+000000PRSWM4
0142104160999992006010317504+51517+007617FM-15+0148EDLW V0201801N002612200019N0070001N1+00101+00101999999ADDMA1103011999999REMMET048EDLW 031750Z 18005KT 7000 NSC 01/01 Q1030 RMK C;EQDQ01+000000PRSWM1Q02+000000PRSWM2Q03+000000PRSWM3Q04+000000PRSWM4
0120104160999992006010318204+51517+007617FM-15+0148EDLW V0202101N00211009001CN0090001N1+00101+00101999999ADDGA1075+009001999GF107991999999999999999999MA1103011999999REMMET051EDLW 031820Z 21004KT 9000 BKN030 01/01 Q1030 RMK D;
0120104160999992006010318504+51517+007617FM-15+0148EDLW V0201801N00151009601CN0090001N1+00101+00101999999ADDGA1075+009601999GF107991999999999999999999MA1103011999999REMMET051EDLW 031850Z 18003KT 9000 BKN032 01/01 Q1030 RMK E;
0120104160999992006010319204+51517+007617FM-15+0148EDLW V0200801N00101009901CN0090001N1+00101+00101999999ADDGA1075+009901999GF107991999999999999999999MA1103011999999REMMET051EDLW 031920Z 08002KT 9000 BKN033 01/01 Q1030 RMK F;
0120104160999992006010319504+51517+007617FM-15+0148EDLW V0200901N00151010501CN0090001N1+00101+00101999999ADDGA1075+010501999GF107991999999999999999999MA1103011999999REMMET051EDLW 031950Z 09003KT 9000 BKN035 01/01 Q1030 RMK G;
0075104160999992006010320204+51517+007617FM-15+0148EDLW V0201301N001512200019N0090001N1+00101+00101999999ADDMA1103011999999REMMET048EDLW 032020Z 13003KT 9000 NSC 01/01 Q1030 RMK H;
0075104160999992006010320504+51517+007617FM-15+0148EDLW V0202101N000512200019N0090001N1+00101+00101999999ADDMA1103011999999REMMET048EDLW 032050Z 21001KT 9000 NSC 01/01 Q1030 RMK I;
0075104160999992006010321204+51517+007617FM-15+0148EDLW V0201601N002112200019N0090001N1+00101+00101999999ADDMA1103011999999REMMET048EDLW 032120Z 16004KT 9000 NSC 01/01 Q1030 RMK J;
0072104160999992006010321504+51517+007617FM-15+0148EDLW V0201601N00151999999CY0099001N1+00001+00001999999ADDMA1103011999999REMMET045EDLW 032150Z 16003KT CAVOK 00/00 Q1030 RMK K;
0195104160999992006010404204+51517+007617FM-15+0148EDLW V0200201N00101012601CN0080001N1-00101-00101999999ADDGA1075+012601999GF107991999999999999999999MA1103011999999REMMET059METAR EDLW 040420Z 02002KT 8000 BKN042 M01/M01 Q1030 RMK A;EQDQ01+000000PRSWM1Q02+000000PRSWM2Q03+000000PRSWM3Q04+000000PRSWM4
0189104160999992006010404504+51517+007617FM-15+0148EDLW V0200401N00101012601CN0080001N1-00101-00101999999ADDGA1075+012601999GF107991999999999999999999MA1103011999999REMMET053EDLW 040450Z 04002KT 8000 BKN042 M01/M01 Q1030 RMK B;EQDQ01+000000PRSWM1Q02+000000PRSWM2Q03+000000PRSWM3Q04+000000PRSWM4
0192104160999992006010405204+51517+007617FM-15+0148EDLW V0200501N001510138059N0080001N1-00101-00101999999ADDGA1045+003005999GA2075+013805999MA1103001999999REMMET066METAR EDLW 040520Z 05003KT 8000 SCT010 BKN046 M01/M01 Q1030 RMK C;EQDQ01+000000PRSWM1Q02+000000PRSWM2Q03+000000PRSWM3Q04+000000PRSWM4
0218104160999992006010405504+51517+007617FM-15+0148EDLW V0200501N00151015001CN0080001N1-00101-00101999999ADDGA1025+003001999GA2075+015001999GF107991999999999999999999MA1103011999999REMMET066METAR EDLW 040550Z 05003KT 8000 FEW010 BKN050 M01/M01 Q1030 RMK D;EQDQ01+000000PRSWM1Q02+000000PRSWM2Q03+000000PRSWM3Q04+000000PRSWM4
0212104160999992006010406204+51517+007617FM-15+0148EDLW V0200501N00211015001CN0080001N1-00101-00101999999ADDGA1025+003001999GA2075+015001999GF107991999999999999999999MA1103011999999REMMET060EDLW 040620Z 05004KT 8000 FEW010 BKN050 M01/M01 Q1030 RMK E;EQDQ01+000000PRSWM1Q02+000000PRSWM2Q03+000000PRSWM3Q04+000000PRSWM4
0212104160999992006010406504+51517+007617FM-15+0148EDLW V0200501N00211015001CN0080001N1-00101-00101999999ADDGA1025+003001999GA2075+015001999GF107991999999999999999999MA1103011999999REMMET060EDLW 040650Z 05004KT 8000 FEW010 BKN050 M01/M01 Q1030 RMK F;EQDQ01+000000PRSWM1Q02+000000PRSWM2Q03+000000PRSWM3Q04+000000PRSWM4
0212104160999992006010407204+51517+007617FM-15+0148EDLW V0200701N00261015001CN0080001N1-00101-00101999999ADDGA1025+003001999GA2075+015001999GF107991999999999999999999MA1103121999999REMMET060EDLW 040720Z 07005KT 8000 FEW010 BKN050 M01/M01 Q1031 RMK G;EQDQ01+000000PRSWM1Q02+000000PRSWM2Q03+000000PRSWM3Q04+000000PRSWM4
0205104160999992006010407504+51517+007617FM-15+0148EDLW V0200601N00311015001CN0050001N1+00001+00001999999ADDGA1025+007201999GA2075+015001999GF107991999999999999999999MA1103121999999MW1101REMMET063EDLW 040750Z 06006KT 5000 BR FEW024 BKN050 M00/M00 Q1031 RMK H;EQDQ01+000000PRSWM1Q02+000000PRSWM3Q03+000000PRSWM4
0205104160999992006010408204+51517+007617FM-15+0148EDLW V0200801N00261015001CN0050001N1+00001+00001999999ADDGA1025+007201999GA2075+015001999GF107991999999999999999999MA1103121999999MW1101REMMET063EDLW 040820Z 08005KT 5000 BR FEW024 BKN050 M00/M00 Q1031 RMK I;EQDQ01+000000PRSWM1Q02+000000PRSWM3Q03+000000PRSWM4
0205104160999992006010408504+51517+007617FM-15+0148EDLW V0200501N00311013801CN0050001N1+00001+00001999999ADDGA1025+007201999GA2075+013801999GF107991999999999999999999MA1103121999999MW1101REMMET063EDLW 040850Z 05006KT 5000 BR FEW024 BKN046 M00/M00 Q1031 RMK J;EQDQ01+000000PRSWM1Q02+000000PRSWM3Q03+000000PRSWM4
0199104160999992006010409204+51517+007617FM-15+0148EDLW V0200601N00311013201CN0050001N1+00001+00001999999ADDGA1025+007201999GA2075+013201999GF107991999999999999999999MA1103121999999MW1101REMMET057EDLW 040920Z 06006KT 5000 BR FEW024 BKN044 M00/M00 Q1031;EQDQ01+000000PRSWM1Q02+000000PRSWM3Q03+000000PRSWM4
0204104160999992006010409504+51517+007617FM-15+0148EDLW V0200601N00261013201CN0060001N1+00001+00001999999ADDGA1025+007201999GA2075+013201999GF107991999999999999999999MA1103121999999REMMET052EDLW 040950Z 06005KT 6000 FEW024 BKN044 00/00 Q1031;EQDQ01+000000PRSWM1Q02+000000PRSWM2Q03+000000PRSWM3Q04+000000PRSWM4
0181104160999992006010410204+51517+007617FM-15+0148EDLW V0200701N00361014701CN0080001N1+00001+00001999999ADDGA1075+014701999GF107991999999999999999999MA1103121999999REMMET045EDLW 041020Z 07007KT 8000 BKN049 00/00 Q1031;EQDQ01+000000PRSWM1Q02+000000PRSWM2Q03+000000PRSWM3Q04+000000PRSWM4
0181104160999992006010410504+51517+007617FM-15+0148EDLW V0200601N00411013501CN0080001N1+00001+00001999999ADDGA1075+013501999GF107991999999999999999999MA1103121999999REMMET045EDLW 041050Z 06008KT 8000 BKN045 00/00 Q1031;EQDQ01+000000PRSWM1Q02+000000PRSWM2Q03+000000PRSWM3Q04+000000PRSWM4
0187104160999992006010411204+51517+007617FM-15+0148EDLW V0200701N00311013501CN0080001N1+00101+00101999999ADDGA1075+013501999GF107991999999999999999999MA1103121999999REMMET051EDLW 041120Z 07006KT 8000 BKN045 01/01 Q1031 RMK O;EQDQ01+000000PRSWM1Q02+000000PRSWM2Q03+000000PRSWM3Q04+000000PRSWM4
0187104160999992006010411504+51517+007617FM-15+0148EDLW V0200601N00311013501CN0080001N1+00101+00001999999ADDGA1075+013501999GF107991999999999999999999MA1103011999999REMMET051EDLW 041150Z 06006KT 8000 BKN045 01/00 Q1030 RMK P;EQDQ01+000000PRSWM1Q02+000000PRSWM2Q03+000000PRSWM3Q04+000000PRSWM4
0170104160999992006010412204+51517+007617FM-15+0148EDLW V0200601N003112200019N0090001N1+00201+00001999999ADDGA1045+013505999MA1103001999999REMMET060EDLW 041220Z 06006KT 030V090 9000 SCT045 02/M00 Q1030 RMK Q;EQDQ01+000000PRSWM1Q02+000000PRSWM2Q03+000000PRSWM3Q04+000000PRSWM4
0227104160999992006010412504+51517+007617FM-15+0148EDLW V0200801N00411999999CN0112651N1+00201-00101999999ADDGA1025+006601999GA2045+013501999GF104991999999999999999999MA1103011999999REMMET059EDLW 041250Z 08008KT 9999 FEW022 SCT045 02/M01 Q1030 RMK R;EQDQ01+000000PRSWM1Q02+000000PRSWM2Q03+000000PRSWM3Q04+000000PRSWM4P01 013503SCOCIG
0185104160999992006010413204+51517+007617FM-15+0148EDLW V0200601N004610135059N0112651N1+00201-00101999999ADDGA1045+006605999GA2045+013505999MA1103001999999REMMET059EDLW 041320Z 06009KT 9999 SCT022 SCT045 02/M01 Q1030 RMK S;EQDQ01+000000PRSWM1Q02+000000PRSWM2Q03+000000PRSWM3Q04+000000PRSWM4
0188104160999992006010413504+51517+007617FM-15+0148EDLW V0200701N00361007801CN0112651N1+00201-00101999999ADDGA1075+007801999GF107991999999999999999999MA1103011999999REMMET052EDLW 041350Z 07007KT 9999 BKN026 02/M01 Q1030 RMK T;EQDQ01+000000PRSWM1Q02+000000PRSWM2Q03+000000PRSWM3Q04+000000PRSWM4
0211104160999992006010414204+51517+007617FM-15+0148EDLW V0200701N00361006001CN0112651N1+00101-00101999999ADDGA1025+004201999GA2075+006001999GF107991999999999999999999MA1103011999999REMMET059EDLW 041420Z 07007KT 9999 FEW014 BKN020 01/M01 Q1030 RMK U;EQDQ01+000000PRSWM1Q02+000000PRSWM2Q03+000000PRSWM3Q04+000000PRSWM4
0211104160999992006010414504+51517+007617FM-15+0148EDLW V0200701N00411006001CN0112651N1+00101+00001999999ADDGA1025+003601999GA2075+006001999GF107991999999999999999999MA1103011999999REMMET059EDLW 041450Z 07008KT 9999 FEW012 BKN020 01/M00 Q1030 RMK V;EQDQ01+000000PRSWM1Q02+000000PRSWM2Q03+000000PRSWM3Q04+000000PRSWM4
0211104160999992006010415204+51517+007617FM-15+0148EDLW V0200901N00411009001CN0112651N1+00101-00101999999ADDGA1025+003601999GA2075+009001999GF107991999999999999999999MA1103011999999REMMET059EDLW 041520Z 09008KT 9999 FEW012 BKN030 01/M01 Q1030 RMK W;EQDQ01+000000PRSWM1Q02+000000PRSWM2Q03+000000PRSWM3Q04+000000PRSWM4
0211104160999992006010415504+51517+007617FM-15+0148EDLW V0200901N00411009001CN0112651N1+00101-00101999999ADDGA1025+003601999GA2075+009001999GF107991999999999999999999MA1102911999999REMMET059EDLW 041550Z 09008KT 9999 FEW012 BKN030 01/M01 Q1029 RMK X;EQDQ01+000000PRSWM1Q02+000000PRSWM2Q03+000000PRSWM3Q04+000000PRSWM4
0211104160999992006010416204+51517+007617FM-15+0148EDLW V0200701N00411009001CN0112651N1+00101-00101999999ADDGA1025+006001999GA2075+009001999GF107991999999999999999999MA1102911999999REMMET059EDLW 041620Z 07008KT 9999 FEW020 BKN030 01/M01 Q1029 RMK Y;EQDQ01+000000PRSWM1Q02+000000PRSWM2Q03+000000PRSWM3Q04+000000PRSWM4
0212104160999992006010416504+51517+007617FM-15+0148EDLW V0200701N00461008401CN0112651N1+00001-00201999999ADDGA1025+004501999GA2075+008401999GF107991999999999999999999MA1102911999999REMMET060EDLW 041650Z 07009KT 9999 FEW015 BKN028 M00/M02 Q1029 RMK Z;EQDQ01+000000PRSWM1Q02+000000PRSWM2Q03+000000PRSWM3Q04+000000PRSWM4
0212104160999992006010417204+51517+007617FM-15+0148EDLW V0200701N00511008401CN0112651N1+00001-00101999999ADDGA1025+004501999GA2075+008401999GF107991999999999999999999MA1103011999999REMMET060EDLW 041720Z 07010KT 9999 FEW015 BKN028 M00/M01 Q1030 RMK A;EQDQ01+000000PRSWM1Q02+000000PRSWM2Q03+000000PRSWM3Q04+000000PRSWM4
0186104160999992006010417504+51517+007617FM-15+0148EDLW V0200701N004610150059N0112651N1-00101-00101999999ADDGA1045+008405999GA2045+015005999MA1102901999999REMMET060EDLW 041750Z 07009KT 9999 SCT028 SCT050 M01/M01 Q1029 RMK C;EQDQ01+000000PRSWM1Q02+000000PRSWM2Q03+000000PRSWM3Q04+000000PRSWM4
0186104160999992006010418204+51517+007617FM-15+0148EDLW V0200701N004610150059N0112651N1-00101-00101999999ADDGA1045+008405999GA2075+015005999MA1103001999999REMMET060EDLW 041820Z 07009KT 9999 SCT028 BKN050 M01/M01 Q1030 RMK D;EQDQ01+000000PRSWM1Q02+000000PRSWM2Q03+000000PRSWM3Q04+000000PRSWM4
0212104160999992006010418504+51517+007617FM-15+0148EDLW V0200701N00411015001CN0112651N1-00101-00101999999ADDGA1025+008401999GA2075+015001999GF107991999999999999999999MA1102911999999REMMET060EDLW 041850Z 07008KT 9999 FEW028 BKN050 M01/M01 Q1029 RMK E;EQDQ01+000000PRSWM1Q02+000000PRSWM2Q03+000000PRSWM3Q04+000000PRSWM4
0141104160999992006010419204+51517+007617FM-15+0148EDLW V0200801N00411999999CY0099001N1-00101-00101999999ADDMA1102911999999REMMET047EDLW 041920Z 08008KT CAVOK M01/M01 Q1029 RMK F;EQDQ01+000000PRSWM1Q02+000000PRSWM2Q03+000000PRSWM3Q04+000000PRSWM4
0141104160999992006010419504+51517+007617FM-15+0148EDLW V0200701N00361999999CY0099001N1-00201-00201999999ADDMA1102911999999REMMET047EDLW 041950Z 07007KT CAVOK M02/M02 Q1029 RMK G;EQDQ01+000000PRSWM1Q02+000000PRSWM2Q03+000000PRSWM3Q04+000000PRSWM4
0141104160999992006010420204+51517+007617FM-15+0148EDLW V0200701N00411999999CY0099001N1-00101-00101999999ADDMA1102911999999REMMET047EDLW 042020Z 07008KT CAVOK M01/M01 Q1029 RMK H;EQDQ01+000000PRSWM1Q02+000000PRSWM2Q03+000000PRSWM3Q04+000000PRSWM4
0228104160999992006010420504+51517+007617FM-15+0148EDLW V0200601N00461999999CN0112651N1-00101-00101999999ADDGA1025+002401999GA2045+014401999GF104991999999999999999999MA1102911999999REMMET060EDLW 042050Z 06009KT 9999 FEW008 SCT048 M01/M01 Q1029 RMK I;EQDQ01+000000PRSWM1Q02+000000PRSWM2Q03+000000PRSWM3Q04+000000PRSWM4P01 014403SCOCIG
0212104160999992006010421204+51517+007617FM-15+0148EDLW V0200701N00461013801CN0112651N1-00101-00101999999ADDGA1025+002401999GA2075+013801999GF107991999999999999999999MA1102911999999REMMET060EDLW 042120Z 07009KT 9999 FEW008 BKN046 M01/M01 Q1029 RMK J;EQDQ01+000000PRSWM1Q02+000000PRSWM2Q03+000000PRSWM3Q04+000000PRSWM4
0189104160999992006010504204+51517+007617FM-15+0148EDLW V0200501N00621009601CN0112651N1-00101-00301999999ADDGA1075+009601999GF107991999999999999999999MA1102511999999REMMET053EDLW 050420Z 05012KT 9999 BKN032 M01/M03 Q1025 RMK A;EQDQ01+000000PRSWM1Q02+000000PRSWM2Q03+000000PRSWM3Q04+000000PRSWM4
0192104160999992006010504504+51517+007617FM-15+0148EDLW V0200601N005710087059N0112651N1-00101-00201999999ADDGA1045+005405999GA2075+008705999MA1102501999999REMMET066METAR EDLW 050450Z 06011KT 9999 SCT018 BKN029 M01/M02 Q1025 RMK B;EQDQ01+000000PRSWM1Q02+000000PRSWM2Q03+000000PRSWM3Q04+000000PRSWM4
0186104160999992006010505204+51517+007617FM-15+0148EDLW V0200601N005710066059N0112651N1-00101-00201999999ADDGA1045+003005999GA2075+006605999MA1102501999999REMMET060EDLW 050520Z 06011KT 9999 SCT010 BKN022 M01/M02 Q1025 RMK C;EQDQ01+000000PRSWM1Q02+000000PRSWM2Q03+000000PRSWM3Q04+000000PRSWM4
0186104160999992006010505504+51517+007617FM-15+0148EDLW V0200601N005710054059N0112651N1-00101-00101999999ADDGA1045+002705999GA2075+005405999MA1102401999999REMMET060EDLW 050550Z 06011KT 9999 SCT009 BKN018 M01/M01 Q1024 RMK D;EQDQ01+000000PRSWM1Q02+000000PRSWM2Q03+000000PRSWM3Q04+000000PRSWM4
0189104160999992006010506204+51517+007617FM-15+0148EDLW V0200601N00621002401CN0112651N1-00101-00101999999ADDGA1075+002401999GF107991999999999999999999MA1102401999999REMMET053EDLW 050620Z 06012KT 9999 BKN008 M01/M01 Q1024 RMK E;EQDQ01+000000PRSWM1Q02+000000PRSWM2Q03+000000PRSWM3Q04+000000PRSWM4
0189104160999992006010506504+51517+007617FM-15+0148EDLW V0200601N00621002401CN0112651N1-00101-00101999999ADDGA1075+002401999GF107991999999999999999999MA1102401999999REMMET053EDLW 050650Z 06012KT 9999 BKN008 M01/M01 Q1024 RMK F;EQDQ01+000000PRSWM1Q02+000000PRSWM2Q03+000000PRSWM3Q04+000000PRSWM4
0189104160999992006010507204+51517+007617FM-15+0148EDLW V0200601N00511002401CN0112651N1-00101-00101999999ADDGA1075+002401999GF107991999999999999999999MA1102401999999REMMET053EDLW 050720Z 06010KT 9999 BKN008 M01/M01 Q1024 RMK G;EQDQ01+000000PRSWM1Q02+000000PRSWM2Q03+000000PRSWM3Q04+000000PRSWM4
0189104160999992006010507504+51517+007617FM-15+0148EDLW V0200601N00571002401CN0112651N1-00101-00101999999ADDGA1075+002401999GF107991999999999999999999MA1102401999999REMMET053EDLW 050750Z 06011KT 9999 BKN008 M01/M01 Q1024 RMK H;EQDQ01+000000PRSWM1Q02+000000PRSWM2Q03+000000PRSWM3Q04+000000PRSWM4
0189104160999992006010508204+51517+007617FM-15+0148EDLW V0200601N00621002101CN0080001N1+00001+00001999999ADDGA1075+002101999GF107991999999999999999999MA1102301999999REMMET053EDLW 050820Z 06012KT 8000 BKN007 M00/M00 Q1023 RMK I;EQDQ01+000000PRSWM1Q02+000000PRSWM2Q03+000000PRSWM3Q04+000000PRSWM4
0189104160999992006010508504+51517+007617FM-15+0148EDLW V0200601N00511002101CN0080001N1+00001+00001999999ADDGA1075+002101999GF107991999999999999999999MA1102301999999REMMET053EDLW 050850Z 06010KT 8000 BKN007 M00/M00 Q1023 RMK J;EQDQ01+000000PRSWM1Q02+000000PRSWM2Q03+000000PRSWM3Q04+000000PRSWM4
0189104160999992006010509204+51517+007617FM-15+0148EDLW V0200601N00511002101CN0080001N1+00001+00001999999ADDGA1075+002101999GF107991999999999999999999MA1102301999999REMMET053EDLW 050920Z 06010KT 8000 BKN007 M00/M00 Q1023 RMK K;EQDQ01+000000PRSWM1Q02+000000PRSWM2Q03+000000PRSWM3Q04+000000PRSWM4
0189104160999992006010509504+51517+007617FM-15+0148EDLW V0200701N00571002101CN0112651N1+00001+00001999999ADDGA1075+002101999GF107991999999999999999999MA1102301999999REMMET053EDLW 050950Z 07011KT 9999 BKN007 M00/M00 Q1023 RMK L;EQDQ01+000000PRSWM1Q02+000000PRSWM2Q03+000000PRSWM3Q04+000000PRSWM4
0188104160999992006010510204+51517+007617FM-15+0148EDLW V0200701N00511002101CN0112651N1+00001+00001999999ADDGA1075+002101999GF107991999999999999999999MA1102201999999REMMET052EDLW 051020Z 07010KT 9999 BKN007 00/M00 Q1022 RMK M;EQDQ01+000000PRSWM1Q02+000000PRSWM2Q03+000000PRSWM3Q04+000000PRSWM4
0185104160999992006010510504+51517+007617FM-15+0148EDLW V0200701N006210036059N0112651N1+00001-00101999999ADDGA1045+002405999GA2075+003605999MA1102201999999REMMET059EDLW 051050Z 07012KT 9999 SCT008 BKN012 00/M01 Q1022 RMK N;EQDQ01+000000PRSWM1Q02+000000PRSWM2Q03+000000PRSWM3Q04+000000PRSWM4
0185104160999992006010511204+51517+007617FM-15+0148EDLW V0200701N005710045059N0112651N1+00001+00001999999ADDGA1045+003005999GA2075+004505999MA1102201999999REMMET059EDLW 051120Z 07011KT 9999 SCT010 BKN015 00/M00 Q1022 RMK O;EQDQ01+000000PRSWM1Q02+000000PRSWM2Q03+000000PRSWM3Q04+000000PRSWM4
0185104160999992006010511504+51517+007617FM-15+0148EDLW V0200701N006710045059N0112651N1+00101-00101999999ADDGA1045+003005999GA2075+004505999MA1102101999999REMMET059EDLW 051150Z 07013KT 9999 SCT010 BKN015 01/M01 Q1021 RMK P;EQDQ01+000000PRSWM1Q02+000000PRSWM2Q03+000000PRSWM3Q04+000000PRSWM4
0188104160999992006010512204+51517+007617FM-15+0148EDLW V0200601N00671004501CN0112651N1+00101-00101999999ADDGA1075+004501999GF107991999999999999999999MA1102101999999REMMET052EDLW 051220Z 06013KT 9999 BKN015 01/M01 Q1021 RMK Q;EQDQ01+000000PRSWM1Q02+000000PRSWM2Q03+000000PRSWM3Q04+000000PRSWM4
0188104160999992006010512504+51517+007617FM-15+0148EDLW V0200701N00571003601CN0112651N1+00101-00101999999ADDGA1075+003601999GF107991999999999999999999MA1102001999999REMMET052EDLW 051250Z 07011KT 9999 BKN012 01/M01 Q1020 RMK R;EQDQ01+000000PRSWM1Q02+000000PRSWM2Q03+000000PRSWM3Q04+000000PRSWM4
0188104160999992006010513204+51517+007617FM-15+0148EDLW V0200701N00621003601CN0112651N1+00101-00101999999ADDGA1075+003601999GF107991999999999999999999MA1102001999999REMMET052EDLW 051320Z 07012KT 9999 BKN012 01/M01 Q1020 RMK S;EQDQ01+000000PRSWM1Q02+000000PRSWM2Q03+000000PRSWM3Q04+000000PRSWM4
0188104160999992006010513504+51517+007617FM-15+0148EDLW V0200701N00621003601CN0112651N1+00101-00101999999ADDGA1075+003601999GF107991999999999999999999MA1102001999999REMMET052EDLW 051350Z 07012KT 9999 BKN012 01/M01 Q1020 RMK T;EQDQ01+000000PRSWM1Q02+000000PRSWM2Q03+000000PRSWM3Q04+000000PRSWM4
0188104160999992006010514204+51517+007617FM-15+0148EDLW V0200701N00571004801CN0112651N1+00101+00001999999ADDGA1075+004801999GF107991999999999999999999MA1102001999999REMMET052EDLW 051420Z 07011KT 9999 BKN016 01/M00 Q1020 RMK U;EQDQ01+000000PRSWM1Q02+000000PRSWM2Q03+000000PRSWM3Q04+000000PRSWM4
0188104160999992006010514504+51517+007617FM-15+0148EDLW V0200701N00511004801CN0112651N1+00101-00101999999ADDGA1075+004801999GF107991999999999999999999MA1102001999999REMMET052EDLW 051450Z 07010KT 9999 BKN016 01/M01 Q1020 RMK V;EQDQ01+000000PRSWM1Q02+000000PRSWM2Q03+000000PRSWM3Q04+000000PRSWM4
0188104160999992006010515204+51517+007617FM-15+0148EDLW V0200601N00511005401CN0112651N1+00101-00101999999ADDGA1075+005401999GF107991999999999999999999MA1102001999999REMMET052EDLW 051520Z 06010KT 9999 BKN018 01/M01 Q1020 RMK W;EQDQ01+000000PRSWM1Q02+000000PRSWM2Q03+000000PRSWM3Q04+000000PRSWM4
0211104160999992006010515504+51517+007617FM-15+0148EDLW V0200601N00511006601CN0112651N1+00101+00001999999ADDGA1025+005401999GA2075+006601999GF107991999999999999999999MA1102001999999REMMET059EDLW 051550Z 06010KT 9999 FEW018 BKN022 01/M00 Q1020 RMK X;EQDQ01+000000PRSWM1Q02+000000PRSWM2Q03+000000PRSWM3Q04+000000PRSWM4
0205104160999992006010516204+51517+007617FM-15+0148EDLW V0200701N00511007201CN0112651N1+00101+00001999999ADDGA1025+005401999GA2075+007201999GF107991999999999999999999MA1101901999999REMMET053EDLW 051620Z 07010KT 9999 FEW018 BKN024 01/M00 Q1019;EQDQ01+000000PRSWM1Q02+000000PRSWM2Q03+000000PRSWM3Q04+000000PRSWM4
0182104160999992006010516504+51517+007617FM-15+0148EDLW V0200601N00411007801CN0112651N1+00101-00101999999ADDGA1075+007801999GF107991999999999999999999MA1101901999999REMMET046EDLW 051650Z 06008KT 9999 BKN026 01/M01 Q1019;EQDQ01+000000PRSWM1Q02+000000PRSWM2Q03+000000PRSWM3Q04+000000PRSWM4
0182104160999992006010517204+51517+007617FM-15+0148EDLW V0200801N00571007801CN0112651N1+00101-00101999999ADDGA1075+007801999GF107991999999999999999999MA1102001999999REMMET046EDLW 051720Z 08011KT 9999 BKN026 01/M01 Q1020;EQDQ01+000000PRSWM1Q02+000000PRSWM2Q03+000000PRSWM3Q04+000000PRSWM4
0182104160999992006010517504+51517+007617FM-15+0148EDLW V0200701N00571007201CN0112651N1+00101-00101999999ADDGA1075+007201999GF107991999999999999999999MA1101901999999REMMET046EDLW 051750Z 07011KT 9999 BKN024 01/M01 Q1019;EQDQ01+000000PRSWM1Q02+000000PRSWM2Q03+000000PRSWM3Q04+000000PRSWM4
0182104160999992006010518204+51517+007617FM-15+0148EDLW V0200801N00671007201CN0112651N1+00101-00101999999ADDGA1075+007201999GF107991999999999999999999MA1101901999999REMMET046EDLW 051820Z 08013KT 9999 BKN024 01/M01 Q1019;EQDQ01+000000PRSWM1Q02+000000PRSWM2Q03+000000PRSWM3Q04+000000PRSWM4
0182104160999992006010518504+51517+007617FM-15+0148EDLW V0200801N00571007201CN0112651N1+00101-00101999999ADDGA1075+007201999GF107991999999999999999999MA1101901999999REMMET046EDLW 051850Z 08011KT 9999 BKN024 01/M01 Q1019;EQDQ01+000000PRSWM1Q02+000000PRSWM2Q03+000000PRSWM3Q04+000000PRSWM4
0188104160999992006010519204+51517+007617FM-15+0148EDLW V0200701N00571007201CN0112651N1+00101-00101999999ADDGA1075+007201999GF107991999999999999999999MA1101901999999REMMET052EDLW 051920Z 07011KT 9999 BKN024 01/M01 Q1019 RMK E;EQDQ01+000000PRSWM1Q02+000000PRSWM2Q03+000000PRSWM3Q04+000000PRSWM4
0188104160999992006010519504+51517+007617FM-15+0148EDLW V0200701N00411007201CN0112651N1+00101-00101999999ADDGA1075+007201999GF107991999999999999999999MA1101901999999REMMET052EDLW 051950Z 07008KT 9999 BKN024 01/M01 Q1019 RMK F;EQDQ01+000000PRSWM1Q02+000000PRSWM2Q03+000000PRSWM3Q04+000000PRSWM4
0188104160999992006010520204+51517+007617FM-15+0148EDLW V0200701N00461007201CN0112651N1+00101-00101999999ADDGA1075+007201999GF107991999999999999999999MA1101901999999REMMET052EDLW 052020Z 07009KT 9999 BKN024 01/M01 Q1019 RMK G;EQDQ01+000000PRSWM1Q02+000000PRSWM2Q03+000000PRSWM3Q04+000000PRSWM4
0188104160999992006010520504+51517+007617FM-15+0148EDLW V0200601N00571007201CN0112651N1+00101+00001999999ADDGA1075+007201999GF107991999999999999999999MA1101901999999REMMET052EDLW 052050Z 06011KT 9999 BKN024 01/M00 Q1019 RMK H;EQDQ01+000000PRSWM1Q02+000000PRSWM2Q03+000000PRSWM3Q04+000000PRSWM4
0188104160999992006010604204+51517+007617FM-15+0148EDLW V0200801N00571006601CN0112651N1+00101+00001999999ADDGA1075+006601999GF107991999999999999999999MA1102001999999REMMET052EDLW 060420Z 08011KT 9999 BKN022 01/M00 Q1020 RMK A;EQDQ01+000000PRSWM1Q02+000000PRSWM2Q03+000000PRSWM3Q04+000000PRSWM4
0188104160999992006010604504+51517+007617FM-15+0148EDLW V0200801N00511006601CN0112651N1+00101+00001999999ADDGA1075+006601999GF107991999999999999999999MA1102001999999REMMET052EDLW 060450Z 08010KT 9999 BKN022 01/M00 Q1020 RMK B;EQDQ01+000000PRSWM1Q02+000000PRSWM2Q03+000000PRSWM3Q04+000000PRSWM4
0194104160999992006010605204+51517+007617FM-15+0148EDLW V0200801N00511007501CN0112651N1+00101-00101999999ADDGA1075+007501999GF107991999999999999999999MA1102001999999REMMET058METAR EDLW 060520Z 08010KT 9999 BKN025 01/M01 Q1020 RMK C;EQDQ01+000000PRSWM1Q02+000000PRSWM2Q03+000000PRSWM3Q04+000000PRSWM4
0188104160999992006010605504+51517+007617FM-15+0148EDLW V0200701N00511007501CN0112651N1+00101+00001999999ADDGA1075+007501999GF107991999999999999999999MA1102001999999REMMET052EDLW 060550Z 07010KT 9999 BKN025 01/M00 Q1020 RMK D;EQDQ01+000000PRSWM1Q02+000000PRSWM2Q03+000000PRSWM3Q04+000000PRSWM4
0188104160999992006010606204+51517+007617FM-15+0148EDLW V0200801N00571006901CN0080001N1+00101+00001999999ADDGA1075+006901999GF107991999999999999999999MA1102001999999REMMET052EDLW 060620Z 08011KT 8000 BKN023 01/M00 Q1020 RMK E;EQDQ01+000000PRSWM1Q02+000000PRSWM2Q03+000000PRSWM3Q04+000000PRSWM4
0188104160999992006010606504+51517+007617FM-15+0148EDLW V0200801N00411006901CN0080001N1+00101+00001999999ADDGA1075+006901999GF107991999999999999999999MA1102101999999REMMET052EDLW 060650Z 08008KT 8000 BKN023 01/M00 Q1021 RMK F;EQDQ01+000000PRSWM1Q02+000000PRSWM2Q03+000000PRSWM3Q04+000000PRSWM4
0196104160999992006010607204+51517+007617FM-15+0148EDLW V0200901N00411006901CN0080001N1+00101-00101999999ADDGA1075+006901999GF107991999999999999999999MA1102101999999REMMET060EDLW 060720Z 09008KT 060V120 8000 BKN023 01/M01 Q1021 RMK G;EQDQ01+000000PRSWM1Q02+000000PRSWM2Q03+000000PRSWM3Q04+000000PRSWM4
0188104160999992006010607504+51517+007617FM-15+0148EDLW V0200901N00511006901CN0080001N1+00101+00001999999ADDGA1075+006901999GF107991999999999999999999MA1102101999999REMMET052EDLW 060750Z 09010KT 8000 BKN023 01/M00 Q1021 RMK H;EQDQ01+000000PRSWM1Q02+000000PRSWM2Q03+000000PRSWM3Q04+000000PRSWM4
0188104160999992006010608204+51517+007617FM-15+0148EDLW V0200901N00511006901CN0080001N1+00101+00001999999ADDGA1075+006901999GF107991999999999999999999MA1102101999999REMMET052EDLW 060820Z 09010KT 8000 BKN023 01/M00 Q1021 RMK I;EQDQ01+000000PRSWM1Q02+000000PRSWM2Q03+000000PRSWM3Q04+000000PRSWM4
0187104160999992006010608504+51517+007617FM-15+0148EDLW V0200901N00511008101CN0080001N1+00101+00001999999ADDGA1075+008101999GF107991999999999999999999MA1102201999999REMMET051EDLW 060850Z 09010KT 8000 BKN027 01/00 Q1022 RMK J;EQDQ01+000000PRSWM1Q02+000000PRSWM2Q03+000000PRSWM3Q04+000000PRSWM4
0187104160999992006010609204+51517+007617FM-15+0148EDLW V0200801N00411007201CN0070001N1+00101+00001999999ADDGA1075+007201999GF107991999999999999999999MA1102201999999REMMET051EDLW 060920Z 08008KT 7000 BKN024 01/00 Q1022 RMK K;EQDQ01+000000PRSWM1Q02+000000PRSWM2Q03+000000PRSWM3Q04+000000PRSWM4
0188104160999992006010609504+51517+007617FM-15+0148EDLW V0200801N00461007201CN0070001N1+00101+00001999999ADDGA1075+007201999GF107991999999999999999999MA1102201999999REMMET052EDLW 060950Z 08009KT 7000 BKN024 01/M00 Q1022 RMK L;EQDQ01+000000PRSWM1Q02+000000PRSWM2Q03+000000PRSWM3Q04+000000PRSWM4
0187104160999992006010610204+51517+007617FM-15+0148EDLW V0200801N00511007801CN0070001N1+00101+00001999999ADDGA1075+007801999GF107991999999999999999999MA1102201999999REMMET051EDLW 061020Z 08010KT 7000 BKN026 01/00 Q1022 RMK M;EQDQ01+000000PRSWM1Q02+000000PRSWM2Q03+000000PRSWM3Q04+000000PRSWM4
0187104160999992006010610504+51517+007617FM-15+0148EDLW V0200701N00511007801CN0070001N1+00101+00001999999ADDGA1075+007801999GF107991999999999999999999MA1102201999999REMMET051EDLW 061050Z 07010KT 7000 BKN026 01/00 Q1022 RMK N;EQDQ01+000000PRSWM1Q02+000000PRSWM2Q03+000000PRSWM3Q04+000000PRSWM4
0210104160999992006010611204+51517+007617FM-15+0148EDLW V0200801N00461006901CN0070001N1+00101+00001999999ADDGA1025+002701999GA2075+006901999GF107991999999999999999999MA1102201999999REMMET058EDLW 061120Z 08009KT 7000 FEW009 BKN023 01/00 Q1022 RMK O;EQDQ01+000000PRSWM1Q02+000000PRSWM2Q03+000000PRSWM3Q04+000000PRSWM4
0187104160999992006010611504+51517+007617FM-15+0148EDLW V0200601N00411006901CN0070001N1+00101+00101999999ADDGA1075+006901999GF107991999999999999999999MA1102201999999REMMET051EDLW 061150Z 06008KT 7000 BKN023 01/01 Q1022 RMK P;EQDQ01+000000PRSWM1Q02+000000PRSWM2Q03+000000PRSWM3Q04+000000PRSWM4
0210104160999992006010612204+51517+007617FM-15+0148EDLW V0200701N00361006301CN0070001N1+00101+00101999999ADDGA1025+002701999GA2075+006301999GF107991999999999999999999MA1102201999999REMMET058EDLW 061220Z 07007KT 7000 FEW009 BKN021 01/01 Q1022 RMK Q;EQDQ01+000000PRSWM1Q02+000000PRSWM2Q03+000000PRSWM3Q04+000000PRSWM4
0210104160999992006010612504+51517+007617FM-15+0148EDLW V0200601N00411006301CN0060001N1+00101+00101999999ADDGA1025+002701999GA2075+006301999GF107991999999999999999999MA1102201999999REMMET058EDLW 061250Z 06008KT 6000 FEW009 BKN021 01/01 Q1022 RMK R;EQDQ01+000000PRSWM1Q02+000000PRSWM2Q03+000000PRSWM3Q04+000000PRSWM4
0210104160999992006010613204+51517+007617FM-15+0148EDLW V0200701N00461006301CN0060001N1+00101+00101999999ADDGA1025+002401999GA2075+006301999GF107991999999999999999999MA1102201999999REMMET058EDLW 061320Z 07009KT 6000 FEW008 BKN021 01/01 Q1022 RMK S;EQDQ01+000000PRSWM1Q02+000000PRSWM2Q03+000000PRSWM3Q04+000000PRSWM4
0203104160999992006010613504+51517+007617FM-15+0148EDLW V0200701N00361006601CN0050001N1+00101+00101999999ADDGA1045+002701999GA2075+006601999GF107991999999999999999999MA1102201999999MW1101REMMET061EDLW 061350Z 07007KT 5000 BR SCT009 BKN022 01/01 Q1022 RMK T;EQDQ01+000000PRSWM1Q02+000000PRSWM3Q03+000000PRSWM4
0203104160999992006010614204+51517+007617FM-15+0148EDLW V0200601N00411006901CN0050001N1+00101+00101999999ADDGA1045+002701999GA2075+006901999GF107991999999999999999999MA1102201999999MW1101REMMET061EDLW 061420Z 06008KT 5000 BR SCT009 BKN023 01/01 Q1022 RMK U;EQDQ01+000000PRSWM1Q02+000000PRSWM3Q03+000000PRSWM4
0203104160999992006010614504+51517+007617FM-15+0148EDLW V0200701N00411006601CN0040001N1+00101+00101999999ADDGA1045+003001999GA2075+006601999GF107991999999999999999999MA1102201999999MW1101REMMET061EDLW 061450Z 07008KT 4000 BR SCT010 BKN022 01/01 Q1022 RMK V;EQDQ01+000000PRSWM1Q02+000000PRSWM3Q03+000000PRSWM4
0203104160999992006010615204+51517+007617FM-15+0148EDLW V0200601N00411007201CN0040001N1+00101+00101999999ADDGA1045+002101999GA2075+007201999GF107991999999999999999999MA1102301999999MW1101REMMET061EDLW 061520Z 06008KT 4000 BR SCT007 BKN024 01/01 Q1023 RMK W;EQDQ01+000000PRSWM1Q02+000000PRSWM3Q03+000000PRSWM4
0203104160999992006010615504+51517+007617FM-15+0148EDLW V0200601N00461004201CN0050001N1+00101+00101999999ADDGA1045+002401999GA2075+004201999GF107991999999999999999999MA1102301999999MW1101REMMET061EDLW 061550Z 06009KT 5000 BR SCT008 BKN014 01/01 Q1023 RMK X;EQDQ01+000000PRSWM1Q02+000000PRSWM3Q03+000000PRSWM4
0190104160999992006010616204+51517+007617FM-15+0148EDLW V0200601N004610072059N0070001N1+00101+00101999999ADDGA1045+002405999GA2075+007205999MA1102301999999REMMET064METAR EDLW 061620Z 06009KT 7000 SCT008 BKN024 01/01 Q1023 RMK Y;EQDQ01+000000PRSWM1Q02+000000PRSWM2Q03+000000PRSWM3Q04+000000PRSWM4
0187104160999992006010616504+51517+007617FM-15+0148EDLW V0200701N00511006901CN0070001N1+00101+00101999999ADDGA1075+006901999GF107991999999999999999999MA1102301999999REMMET051EDLW 061650Z 07010KT 7000 BKN023 01/01 Q1023 RMK Z;EQDQ01+000000PRSWM1Q02+000000PRSWM2Q03+000000PRSWM3Q04+000000PRSWM4
0187104160999992006010617204+51517+007617FM-15+0148EDLW V0200701N00461006901CN0070001N1+00101+00101999999ADDGA1075+006901999GF107991999999999999999999MA1102301999999REMMET051EDLW 061720Z 07009KT 7000 BKN023 01/01 Q1023 RMK A;EQDQ01+000000PRSWM1Q02+000000PRSWM2Q03+000000PRSWM3Q04+000000PRSWM4
0187104160999992006010617504+51517+007617FM-15+0148EDLW V0200701N00571006901CN0070001N1+00101+00101999999ADDGA1075+006901999GF107991999999999999999999MA1102301999999REMMET051EDLW 061750Z 07011KT 7000 BKN023 01/01 Q1023 RMK B;EQDQ01+000000PRSWM1Q02+000000PRSWM2Q03+000000PRSWM3Q04+000000PRSWM4
0187104160999992006010618204+51517+007617FM-15+0148EDLW V0200801N00571006601CN0070001N1+00101+00101999999ADDGA1075+006601999GF107991999999999999999999MA1102301999999REMMET051EDLW 061820Z 08011KT 7000 BKN022 01/01 Q1023 RMK C;EQDQ01+000000PRSWM1Q02+000000PRSWM2Q03+000000PRSWM3Q04+000000PRSWM4
0187104160999992006010618504+51517+007617FM-15+0148EDLW V0200801N00511006601CN0070001N1+00101+00101999999ADDGA1075+006601999GF107991999999999999999999MA1102301999999REMMET051EDLW 061850Z 08010KT 7000 BKN022 01/01 Q1023 RMK D;EQDQ01+000000PRSWM1Q02+000000PRSWM2Q03+000000PRSWM3Q04+000000PRSWM4
0187104160999992006010619204+51517+007617FM-15+0148EDLW V0200801N00511006601CN0080001N1+00101+00101999999ADDGA1075+006601999GF107991999999999999999999MA1102401999999REMMET051EDLW 061920Z 08010KT 8000 BKN022 01/01 Q1024 RMK E;EQDQ01+000000PRSWM1Q02+000000PRSWM2Q03+000000PRSWM3Q04+000000PRSWM4
0187104160999992006010619504+51517+007617FM-15+0148EDLW V0200701N00511006301CN0080001N1+00101+00101999999ADDGA1075+006301999GF107991999999999999999999MA1102401999999REMMET051EDLW 061950Z 07010KT 8000 BKN021 01/01 Q1024 RMK F;EQDQ01+000000PRSWM1Q02+000000PRSWM2Q03+000000PRSWM3Q04+000000PRSWM4
0210104160999992006010620204+51517+007617FM-15+0148EDLW V0200701N00621006001CN0080001N1+00101+00101999999ADDGA1025+002101999GA2085+006001999GF108991999999999999999999MA1102401999999REMMET058EDLW 062020Z 07012KT 8000 FEW007 OVC020 01/01 Q1024 RMK G;EQDQ01+000000PRSWM1Q02+000000PRSWM2Q03+000000PRSWM3Q04+000000PRSWM4
0210104160999992006010620504+51517+007617FM-15+0148EDLW V0200701N00621006001CN0080001N1+00101+00101999999ADDGA1025+002101999GA2085+006001999GF108991999999999999999999MA1102401999999REMMET058EDLW 062050Z 07012KT 8000 FEW007 OVC020 01/01 Q1024 RMK H;EQDQ01+000000PRSWM1Q02+000000PRSWM2Q03+000000PRSWM3Q04+000000PRSWM4
0210104160999992006010621204+51517+007617FM-15+0148EDLW V0200701N00571006001CN0080001N1+00101+00101999999ADDGA1025+002101999GA2085+006001999GF108991999999999999999999MA1102401999999REMMET058EDLW 062120Z 07011KT 8000 FEW007 OVC020 01/01 Q1024 RMK I;EQDQ01+000000PRSWM1Q02+000000PRSWM2Q03+000000PRSWM3Q04+000000PRSWM4
0187104160999992006010704204+51517+007617FM-15+0148EDLW V0200801N00311006901CN0080001N1+00001+00001999999ADDGA1075+006901999GF107991999999999999999999MA1102511999999REMMET051EDLW 070420Z 08006KT 8000 BKN023 00/00 Q1025 RMK A;EQDQ01+000000PRSWM1Q02+000000PRSWM2Q03+000000PRSWM3Q04+000000PRSWM4
0187104160999992006010704504+51517+007617FM-15+0148EDLW V0200701N00311006901CN0080001N1+00101+00101999999ADDGA1075+006901999GF107991999999999999999999MA1102511999999REMMET051EDLW 070450Z 07006KT 8000 BKN023 01/01 Q1025 RMK B;EQDQ01+000000PRSWM1Q02+000000PRSWM2Q03+000000PRSWM3Q04+000000PRSWM4
0187104160999992006010705204+51517+007617FM-15+0148EDLW V0200801N00361006901CN0080001N1+00101+00101999999ADDGA1075+006901999GF107991999999999999999999MA1102511999999REMMET051EDLW 070520Z 08007KT 8000 BKN023 01/01 Q1025 RMK C;EQDQ01+000000PRSWM1Q02+000000PRSWM2Q03+000000PRSWM3Q04+000000PRSWM4
0187104160999992006010705504+51517+007617FM-15+0148EDLW V0200901N00361006901CN0080001N1+00101+00001999999ADDGA1075+006901999GF107991999999999999999999MA1102511999999REMMET051EDLW 070550Z 09007KT 8000 BKN023 01/00 Q1025 RMK D;EQDQ01+000000PRSWM1Q02+000000PRSWM2Q03+000000PRSWM3Q04+000000PRSWM4
0187104160999992006010706204+51517+007617FM-15+0148EDLW V0200701N00311006901CN0080001N1+00101+00101999999ADDGA1075+006901999GF107991999999999999999999MA1102511999999REMMET051EDLW 070620Z 07006KT 8000 BKN023 01/01 Q1025 RMK E;EQDQ01+000000PRSWM1Q02+000000PRSWM2Q03+000000PRSWM3Q04+000000PRSWM4
0187104160999992006010706504+51517+007617FM-15+0148EDLW V0200701N00261006301CN0090001N1+00101+00001999999ADDGA1075+006301999GF107991999999999999999999MA1102511999999REMMET051EDLW 070650Z 07005KT 9000 BKN021 01/00 Q1025 RMK F;EQDQ01+000000PRSWM1Q02+000000PRSWM2Q03+000000PRSWM3Q04+000000PRSWM4
0187104160999992006010707204+51517+007617FM-15+0148EDLW V0200601N00311006301CN0080001N1+00101+00101999999ADDGA1075+006301999GF107991999999999999999999MA1102611999999REMMET051EDLW 070720Z 06006KT 8000 BKN021 01/01 Q1026 RMK G;EQDQ01+000000PRSWM1Q02+000000PRSWM2Q03+000000PRSWM3Q04+000000PRSWM4
0187104160999992006010707504+51517+007617FM-15+0148EDLW V0200701N00261006301CN0080001N1+00101+00101999999ADDGA1075+006301999GF107991999999999999999999MA1102611999999REMMET051EDLW 070750Z 07005KT 8000 BKN021 01/01 Q1026 RMK H;EQDQ01+000000PRSWM1Q02+000000PRSWM2Q03+000000PRSWM3Q04+000000PRSWM4
0187104160999992006010708204+51517+007617FM-15+0148EDLW V0200701N00261006301CN0080001N1+00101+00101999999ADDGA1075+006301999GF107991999999999999999999MA1102611999999REMMET051EDLW 070820Z 07005KT 8000 BKN021 01/01 Q1026 RMK I;EQDQ01+000000PRSWM1Q02+000000PRSWM2Q03+000000PRSWM3Q04+000000PRSWM4
0187104160999992006010708504+51517+007617FM-15+0148EDLW V0200601N00151006001CN0090001N1+00101+00101999999ADDGA1075+006001999GF107991999999999999999999MA1102611999999REMMET051EDLW 070850Z 06003KT 9000 BKN020 01/01 Q1026 RMK J;EQDQ01+000000PRSWM1Q02+000000PRSWM2Q03+000000PRSWM3Q04+000000PRSWM4
0187104160999992006010709204+51517+007617FM-15+0148EDLW V0200601N00211006001CN0090001N1+00101+00001999999ADDGA1075+006001999GF107991999999999999999999MA1102711999999REMMET051EDLW 070920Z 06004KT 9000 BKN020 01/00 Q1027 RMK K;EQDQ01+000000PRSWM1Q02+000000PRSWM2Q03+000000PRSWM3Q04+000000PRSWM4
0187104160999992006010709504+51517+007617FM-15+0148EDLW V0200801N00211006001CN0090001N1+00201+00001999999ADDGA1075+006001999GF107991999999999999999999MA1102711999999REMMET051EDLW 070950Z 08004KT 9000 BKN020 02/00 Q1027 RMK L;EQDQ01+000000PRSWM1Q02+000000PRSWM2Q03+000000PRSWM3Q04+000000PRSWM4
0187104160999992006010710204+51517+007617FM-15+0148EDLW V0200601N00261005401CN0090001N1+00101+00101999999ADDGA1075+005401999GF107991999999999999999999MA1102711999999REMMET051EDLW 071020Z 06005KT 9000 BKN018 01/01 Q1027 RMK M;EQDQ01+000000PRSWM1Q02+000000PRSWM2Q03+000000PRSWM3Q04+000000PRSWM4
0187104160999992006010710504+51517+007617FM-15+0148EDLW V0200901N00261005401CN0090001N1+00201+00001999999ADDGA1075+005401999GF107991999999999999999999MA1102711999999REMMET051EDLW 071050Z 09005KT 9000 BKN018 02/00 Q1027 RMK N;EQDQ01+000000PRSWM1Q02+000000PRSWM2Q03+000000PRSWM3Q04+000000PRSWM4
0187104160999992006010711204+51517+007617FM-15+0148EDLW V0201001N00311005401CN0090001N1+00201+00001999999ADDGA1075+005401999GF107991999999999999999999MA1102711999999REMMET051EDLW 071120Z 10006KT 9000 BKN018 02/00 Q1027 RMK O;EQDQ01+000000PRSWM1Q02+000000PRSWM2Q03+000000PRSWM3Q04+000000PRSWM4
0187104160999992006010711504+51517+007617FM-15+0148EDLW V0201001N00261005401CN0090001N1+00201+00001999999ADDGA1075+005401999GF107991999999999999999999MA1102711999999REMMET051EDLW 071150Z 10005KT 9000 BKN018 02/00 Q1027 RMK P;EQDQ01+000000PRSWM1Q02+000000PRSWM2Q03+000000PRSWM3Q04+000000PRSWM4
0187104160999992006010712204+51517+007617FM-15+0148EDLW V0201001N00261005401CN0090001N1+00201+00001999999ADDGA1075+005401999GF107991999999999999999999MA1102611999999REMMET051EDLW 071220Z 10005KT 9000 BKN018 02/00 Q1026 RMK Q;EQDQ01+000000PRSWM1Q02+000000PRSWM2Q03+000000PRSWM3Q04+000000PRSWM4
0187104160999992006010712504+51517+007617FM-15+0148EDLW V0200901N00361005101CN0090001N1+00201+00001999999ADDGA1075+005101999GF107991999999999999999999MA1102611999999REMMET051EDLW 071250Z 09007KT 9000 BKN017 02/00 Q1026 RMK R;EQDQ01+000000PRSWM1Q02+000000PRSWM2Q03+000000PRSWM3Q04+000000PRSWM4
0187104160999992006010713204+51517+007617FM-15+0148EDLW V0200901N00361005101CN0090001N1+00201+00001999999ADDGA1075+005101999GF107991999999999999999999MA1102611999999REMMET051EDLW 071320Z 09007KT 9000 BKN017 02/00 Q1026 RMK S;EQDQ01+000000PRSWM1Q02+000000PRSWM2Q03+000000PRSWM3Q04+000000PRSWM4
0187104160999992006010713504+51517+007617FM-15+0148EDLW V0200701N00411004801CN0090001N1+00201+00001999999ADDGA1075+004801999GF107991999999999999999999MA1102611999999REMMET051EDLW 071350Z 07008KT 9000 BKN016 02/00 Q1026 RMK T;EQDQ01+000000PRSWM1Q02+000000PRSWM2Q03+000000PRSWM3Q04+000000PRSWM4
0187104160999992006010714204+51517+007617FM-15+0148EDLW V0200801N00361004801CN0080001N1+00201+00001999999ADDGA1075+004801999GF107991999999999999999999MA1102611999999REMMET051EDLW 071420Z 08007KT 8000 BKN016 02/00 Q1026 RMK U;EQDQ01+000000PRSWM1Q02+000000PRSWM2Q03+000000PRSWM3Q04+000000PRSWM4
0187104160999992006010714504+51517+007617FM-15+0148EDLW V0200801N00311004801CN0070001N1+00101+00001999999ADDGA1075+004801999GF107991999999999999999999MA1102611999999REMMET051EDLW 071450Z 08006KT 7000 BKN016 01/00 Q1026 RMK V;EQDQ01+000000PRSWM1Q02+000000PRSWM2Q03+000000PRSWM3Q04+000000PRSWM4
0187104160999992006010715204+51517+007617FM-15+0148EDLW V0200801N00311004801CN0070001N1+00101+00001999999ADDGA1075+004801999GF107991999999999999999999MA1102611999999REMMET051EDLW 071520Z 08006KT 7000 BKN016 01/00 Q1026 RMK W;EQDQ01+000000PRSWM1Q02+000000PRSWM2Q03+000000PRSWM3Q04+000000PRSWM4
0187104160999992006010715504+51517+007617FM-15+0148EDLW V0200901N00261004801CN0060001N1+00101+00001999999ADDGA1075+004801999GF107991999999999999999999MA1102711999999REMMET051EDLW 071550Z 09005KT 6000 BKN016 01/00 Q1027 RMK X;EQDQ01+000000PRSWM1Q02+000000PRSWM2Q03+000000PRSWM3Q04+000000PRSWM4
0187104160999992006010716204+51517+007617FM-15+0148EDLW V0200901N00261004801CN0060001N1+00101+00001999999ADDGA1075+004801999GF107991999999999999999999MA1102711999999REMMET051EDLW 071620Z 09005KT 6000 BKN016 01/00 Q1027 RMK Z;EQDQ01+000000PRSWM1Q02+000000PRSWM2Q03+000000PRSWM3Q04+000000PRSWM4
0187104160999992006010716504+51517+007617FM-15+0148EDLW V0200801N00211005101CN0090001N1+00101+00101999999ADDGA1075+005101999GF107991999999999999999999MA1102711999999REMMET051EDLW 071650Z 08004KT 9000 BKN017 01/01 Q1027 RMK A;EQDQ01+000000PRSWM1Q02+000000PRSWM2Q03+000000PRSWM3Q04+000000PRSWM4
0187104160999992006010717204+51517+007617FM-15+0148EDLW V0200801N00211004801CN0090001N1+00101+00101999999ADDGA1075+004801999GF107991999999999999999999MA1102711999999REMMET051EDLW 071720Z 08004KT 9000 BKN016 01/01 Q1027 RMK B;EQDQ01+000000PRSWM1Q02+000000PRSWM2Q03+000000PRSWM3Q04+000000PRSWM4
0187104160999992006010717504+51517+007617FM-15+0148EDLW V0200901N00211005101CN0090001N1+00101+00001999999ADDGA1075+005101999GF107991999999999999999999MA1102711999999REMMET051EDLW 071750Z 09004KT 9000 BKN017 01/00 Q1027 RMK C;EQDQ01+000000PRSWM1Q02+000000PRSWM2Q03+000000PRSWM3Q04+000000PRSWM4
0187104160999992006010718204+51517+007617FM-15+0148EDLW V0200801N00261004801CN0090001N1+00101+00001999999ADDGA1075+004801999GF107991999999999999999999MA1102711999999REMMET051EDLW 071820Z 08005KT 9000 BKN016 01/00 Q1027 RMK D;EQDQ01+000000PRSWM1Q02+000000PRSWM2Q03+000000PRSWM3Q04+000000PRSWM4
0187104160999992006010718504+51517+007617FM-15+0148EDLW V0200801N00211004801CN0090001N1+00101+00001999999ADDGA1075+004801999GF107991999999999999999999MA1102711999999REMMET051EDLW 071850Z 08004KT 9000 BKN016 01/00 Q1027 RMK E;EQDQ01+000000PRSWM1Q02+000000PRSWM2Q03+000000PRSWM3Q04+000000PRSWM4
0187104160999992006010719204+51517+007617FM-15+0148EDLW V0200801N00211004801CN0090001N1+00101+00001999999ADDGA1075+004801999GF107991999999999999999999MA1102711999999REMMET051EDLW 071920Z 08004KT 9000 BKN016 01/00 Q1027 RMK F;EQDQ01+000000PRSWM1Q02+000000PRSWM2Q03+000000PRSWM3Q04+000000PRSWM4
0188104160999992006010719504+51517+007617FM-15+0148EDLW V0201201N00261004801CN0090001N1+00201-00101999999ADDGA1075+004801999GF107991999999999999999999MA1102711999999REMMET052EDLW 071950Z 12005KT 9000 BKN016 02/M01 Q1027 RMK G;EQDQ01+000000PRSWM1Q02+000000PRSWM2Q03+000000PRSWM3Q04+000000PRSWM4
0196104160999992006010720204+51517+007617FM-15+0148EDLW V0201201N00261004801CN0090001N1+00201-00101999999ADDGA1075+004801999GF107991999999999999999999MA1102711999999REMMET060EDLW 072020Z 12005KT 080V140 9000 BKN016 02/M01 Q1027 RMK H;EQDQ01+000000PRSWM1Q02+000000PRSWM2Q03+000000PRSWM3Q04+000000PRSWM4
0196104160999992006010720504+51517+007617FM-15+0148EDLW V0201401N00311004801CN0090001N1+00201-00101999999ADDGA1075+004801999GF107991999999999999999999MA1102711999999REMMET060EDLW 072050Z 14006KT 110V170 9000 BKN016 02/M01 Q1027 RMK I;EQDQ01+000000PRSWM1Q02+000000PRSWM2Q03+000000PRSWM3Q04+000000PRSWM4
0187104160999992006010804204+51517+007617FM-15+0148EDLW V0200701N00361006901CN0112651N1+00101+00001999999ADDGA1075+006901999GF107991999999999999999999MA1102611999999REMMET051EDLW 080420Z 07007KT 9999 BKN023 01/00 Q1026 RMK A;EQDQ01+000000PRSWM1Q02+000000PRSWM2Q03+000000PRSWM3Q04+000000PRSWM4
0187104160999992006010804504+51517+007617FM-15+0148EDLW V0200801N00411006901CN0112651N1+00101+00001999999ADDGA1075+006901999GF107991999999999999999999MA1102611999999REMMET051EDLW 080450Z 08008KT 9999 BKN023 01/00 Q1026 RMK B;EQDQ01+000000PRSWM1Q02+000000PRSWM2Q03+000000PRSWM3Q04+000000PRSWM4
0187104160999992006010805204+51517+007617FM-15+0148EDLW V0200701N00461006901CN0112651N1+00101+00001999999ADDGA1075+006901999GF107991999999999999999999MA1102611999999REMMET051EDLW 080520Z 07009KT 9999 BKN023 01/00 Q1026 RMK C;EQDQ01+000000PRSWM1Q02+000000PRSWM2Q03+000000PRSWM3Q04+000000PRSWM4
0187104160999992006010805504+51517+007617FM-15+0148EDLW V0200701N00461006901CN0112651N1+00101+00001999999ADDGA1075+006901999GF107991999999999999999999MA1102611999999REMMET051EDLW 080550Z 07009KT 9999 BKN023 01/00 Q1026 RMK D;EQDQ01+000000PRSWM1Q02+000000PRSWM2Q03+000000PRSWM3Q04+000000PRSWM4
0193104160999992006010806204+51517+007617FM-15+0148EDLW V0200701N00461006901CN0080001N1+00101+00001999999ADDGA1075+006901999GF107991999999999999999999MA1102611999999REMMET057METAR EDLW 080620Z 07009KT 8000 BKN023 01/00 Q1026 RMK E;EQDQ01+000000PRSWM1Q02+000000PRSWM2Q03+000000PRSWM3Q04+000000PRSWM4
0187104160999992006010806504+51517+007617FM-15+0148EDLW V0200801N00411006901CN0080001N1+00101+00001999999ADDGA1075+006901999GF107991999999999999999999MA1102611999999REMMET051EDLW 080650Z 08008KT 8000 BKN023 01/00 Q1026 RMK F;EQDQ01+000000PRSWM1Q02+000000PRSWM2Q03+000000PRSWM3Q04+000000PRSWM4
0187104160999992006010807204+51517+007617FM-15+0148EDLW V0200801N00411006901CN0080001N1+00101+00001999999ADDGA1075+006901999GF107991999999999999999999MA1102611999999REMMET051EDLW 080720Z 08008KT 8000 BKN023 01/00 Q1026 RMK G;EQDQ01+000000PRSWM1Q02+000000PRSWM2Q03+000000PRSWM3Q04+000000PRSWM4
0193104160999992006010807504+51517+007617FM-15+0148EDLW V0200901N00411006901CN0080001N1+00101+00001999999ADDGA1075+006901999GF107991999999999999999999MA1102611999999REMMET057METAR EDLW 080750Z 09008KT 8000 BKN023 01/00 Q1026 RMK H;EQDQ01+000000PRSWM1Q02+000000PRSWM2Q03+000000PRSWM3Q04+000000PRSWM4
0187104160999992006010808204+51517+007617FM-15+0148EDLW V0200801N00411006901CN0070001N1+00101+00001999999ADDGA1075+006901999GF107991999999999999999999MA1102711999999REMMET051EDLW 080820Z 08008KT 7000 BKN023 01/00 Q1027 RMK I;EQDQ01+000000PRSWM1Q02+000000PRSWM2Q03+000000PRSWM3Q04+000000PRSWM4
0187104160999992006010808504+51517+007617FM-15+0148EDLW V0200701N00361006901CN0070001N1+00101+00001999999ADDGA1075+006901999GF107991999999999999999999MA1102711999999REMMET051EDLW 080850Z 07007KT 7000 BKN023 01/00 Q1027 RMK J;EQDQ01+000000PRSWM1Q02+000000PRSWM2Q03+000000PRSWM3Q04+000000PRSWM4
0187104160999992006010809204+51517+007617FM-15+0148EDLW V0200701N00361006901CN0070001N1+00101+00001999999ADDGA1075+006901999GF107991999999999999999999MA1102711999999REMMET051EDLW 080920Z 07007KT 7000 BKN023 01/00 Q1027 RMK K;EQDQ01+000000PRSWM1Q02+000000PRSWM2Q03+000000PRSWM3Q04+000000PRSWM4
0195104160999992006010809504+51517+007617FM-15+0148EDLW V0201001N00211006901CN0070001N1+00201+00001999999ADDGA1075+006901999GF107991999999999999999999MA1102711999999REMMET059EDLW 080950Z 10004KT 070V140 7000 BKN023 02/00 Q1027 RMK L;EQDQ01+000000PRSWM1Q02+000000PRSWM2Q03+000000PRSWM3Q04+000000PRSWM4
0187104160999992006010810204+51517+007617FM-15+0148EDLW V0200701N00211006901CN0070001N1+00201+00101999999ADDGA1075+006901999GF107991999999999999999999MA1102711999999REMMET051EDLW 081020Z 07004KT 7000 BKN023 02/01 Q1027 RMK M;EQDQ01+000000PRSWM1Q02+000000PRSWM2Q03+000000PRSWM3Q04+000000PRSWM4
0195104160999992006010810504+51517+007617FM-15+0148EDLW V0200601N00211006901CN0070001N1+00201+00101999999ADDGA1075+006901999GF107991999999999999999999MA1102711999999REMMET059EDLW 081050Z 06004KT 030V110 7000 BKN023 02/01 Q1027 RMK N;EQDQ01+000000PRSWM1Q02+000000PRSWM2Q03+000000PRSWM3Q04+000000PRSWM4
0196104160999992006010811204+51517+007617FM-15+0148EDLW V0201401N00311006901CN0070001N1+00301-00101999999ADDGA1075+006901999GF107991999999999999999999MA1102711999999REMMET060METAR EDLW 081120Z 14006KT 110V170 7000 BKN023 03/M01 Q1027;EQDQ01+000000PRSWM1Q02+000000PRSWM2Q03+000000PRSWM3Q04+000000PRSWM4
0188104160999992006010811504+51517+007617FM-15+0148EDLW V0201301N00361006901CN0080001N1+00301-00101999999ADDGA1075+006901999GF107991999999999999999999MA1102711999999REMMET052EDLW 081150Z 13007KT 8000 BKN023 03/M01 Q1027 RMK P;EQDQ01+000000PRSWM1Q02+000000PRSWM2Q03+000000PRSWM3Q04+000000PRSWM4
0196104160999992006010812204+51517+007617FM-15+0148EDLW V0201301N00361006901CN0112651N1+00301-00101999999ADDGA1075+006901999GF107991999999999999999999MA1102711999999REMMET060EDLW 081220Z 13007KT 100V170 9999 BKN023 03/M01 Q1027 RMK Q;EQDQ01+000000PRSWM1Q02+000000PRSWM2Q03+000000PRSWM3Q04+000000PRSWM4
0188104160999992006010812504+51517+007617FM-15+0148EDLW V0201201N00361006901CN0112651N1+00301-00101999999ADDGA1075+006901999GF107991999999999999999999MA1102711999999REMMET052EDLW 081250Z 12007KT 9999 BKN023 03/M01 Q1027 RMK R;EQDQ01+000000PRSWM1Q02+000000PRSWM2Q03+000000PRSWM3Q04+000000PRSWM4
0188104160999992006010813204+51517+007617FM-15+0148EDLW V0201201N00411006901CN0112651N1+00301-00101999999ADDGA1075+006901999GF107991999999999999999999MA1102711999999REMMET052EDLW 081320Z 12008KT 9999 BKN023 03/M01 Q1027 RMK S;EQDQ01+000000PRSWM1Q02+000000PRSWM2Q03+000000PRSWM3Q04+000000PRSWM4
0188104160999992006010813504+51517+007617FM-15+0148EDLW V0201301N00311006601CN0112651N1+00301-00101999999ADDGA1075+006601999GF107991999999999999999999MA1102711999999REMMET052EDLW 081350Z 13006KT 9999 BKN022 03/M01 Q1027 RMK T;EQDQ01+000000PRSWM1Q02+000000PRSWM2Q03+000000PRSWM3Q04+000000PRSWM4
0188104160999992006010814204+51517+007617FM-15+0148EDLW V0201201N00361006601CN0112651N1+00301-00101999999ADDGA1075+006601999GF107991999999999999999999MA1102711999999REMMET052EDLW 081420Z 12007KT 9999 BKN022 03/M01 Q1027 RMK U;EQDQ01+000000PRSWM1Q02+000000PRSWM2Q03+000000PRSWM3Q04+000000PRSWM4
0188104160999992006010814504+51517+007617FM-15+0148EDLW V0201201N00311006601CN0112651N1+00301-00101999999ADDGA1075+006601999GF107991999999999999999999MA1102711999999REMMET052EDLW 081450Z 12006KT 9999 BKN022 03/M01 Q1027 RMK V;EQDQ01+000000PRSWM1Q02+000000PRSWM2Q03+000000PRSWM3Q04+000000PRSWM4
0188104160999992006010815204+51517+007617FM-15+0148EDLW V0201201N00311006601CN0112651N1+00301-00101999999ADDGA1075+006601999GF107991999999999999999999MA1102711999999REMMET052EDLW 081520Z 12006KT 9999 BKN022 03/M01 Q1027 RMK W;EQDQ01+000000PRSWM1Q02+000000PRSWM2Q03+000000PRSWM3Q04+000000PRSWM4
0188104160999992006010815504+51517+007617FM-15+0148EDLW V0201101N00261006601CN0112651N1+00201-00201999999ADDGA1075+006601999GF107991999999999999999999MA1102811999999REMMET052EDLW 081550Z 11005KT 9999 BKN022 02/M02 Q1028 RMK X;EQDQ01+000000PRSWM1Q02+000000PRSWM2Q03+000000PRSWM3Q04+000000PRSWM4
0188104160999992006010816204+51517+007617FM-15+0148EDLW V0201101N00261006601CN0112651N1+00101-00201999999ADDGA1075+006601999GF107991999999999999999999MA1102811999999REMMET052EDLW 081620Z 11005KT 9999 BKN022 01/M02 Q1028 RMK Y;EQDQ01+000000PRSWM1Q02+000000PRSWM2Q03+000000PRSWM3Q04+000000PRSWM4
0162104160999992006010816504+51517+007617FM-15+0148EDLW V0201201N002612200019N0112651N1+00101-00201999999ADDGA1045+006605999MA1102801999999REMMET052EDLW 081650Z 12005KT 9999 SCT022 01/M02 Q1028 RMK Z;EQDQ01+000000PRSWM1Q02+000000PRSWM2Q03+000000PRSWM3Q04+000000PRSWM4
0140104160999992006010817204+51517+007617FM-15+0148EDLW V0201101N00211999999CY0099001N1+00101-00301999999ADDMA1102811999999REMMET046EDLW 081720Z 11004KT CAVOK 01/M03 Q1028 RMK A;EQDQ01+000000PRSWM1Q02+000000PRSWM2Q03+000000PRSWM3Q04+000000PRSWM4
0141104160999992006010817504+51517+007617FM-15+0148EDLW V0201101N00311999999CY0099001N1+00001-00301999999ADDMA1102811999999REMMET047EDLW 081750Z 11006KT CAVOK M00/M03 Q1028 RMK B;EQDQ01+000000PRSWM1Q02+000000PRSWM2Q03+000000PRSWM3Q04+000000PRSWM4
0141104160999992006010818204+51517+007617FM-15+0148EDLW V0201201N00261999999CY0099001N1+00001-00301999999ADDMA1102811999999REMMET047EDLW 081820Z 12005KT CAVOK M00/M03 Q1028 RMK C;EQDQ01+000000PRSWM1Q02+000000PRSWM2Q03+000000PRSWM3Q04+000000PRSWM4
0141104160999992006010818504+51517+007617FM-15+0148EDLW V0201201N00261999999CY0099001N1+00001-00301999999ADDMA1102811999999REMMET047EDLW 081850Z 12005KT CAVOK M00/M03 Q1028 RMK D;EQDQ01+000000PRSWM1Q02+000000PRSWM2Q03+000000PRSWM3Q04+000000PRSWM4
0141104160999992006010819204+51517+007617FM-15+0148EDLW V0201201N00211999999CY0099001N1+00001-00301999999ADDMA1102911999999REMMET047EDLW 081920Z 12004KT CAVOK M00/M03 Q1029 RMK E;EQDQ01+000000PRSWM1Q02+000000PRSWM2Q03+000000PRSWM3Q04+000000PRSWM4
0141104160999992006010819504+51517+007617FM-15+0148EDLW V0201301N00211999999CY0099001N1+00001-00301999999ADDMA1102911999999REMMET047METAR EDLW 081950Z 13004KT CAVOK M00/M03 Q1029;EQDQ01+000000PRSWM1Q02+000000PRSWM2Q03+000000PRSWM3Q04+000000PRSWM4
0141104160999992006010820204+51517+007617FM-15+0148EDLW V0201201N00211999999CY0099001N1+00001-00301999999ADDMA1102911999999REMMET047EDLW 082020Z 12004KT CAVOK M00/M03 Q1029 RMK G;EQDQ01+000000PRSWM1Q02+000000PRSWM2Q03+000000PRSWM3Q04+000000PRSWM4
0149104160999992006010820504+51517+007617FM-15+0148EDLW V0201301N00261999999CY0099001N1-00101-00201999999ADDMA1102911999999REMMET055EDLW 082050Z 13005KT 050V140 CAVOK M01/M02 Q1029 RMK H;EQDQ01+000000PRSWM1Q02+000000PRSWM2Q03+000000PRSWM3Q04+000000PRSWM4
0074104160999992006010904204+51517+007617FM-15+0148EDLW V0202701N00051999999CY0099001N1-00401-00401999999ADDMA1102811999999REMMET047EDLW 090420Z 27001KT CAVOK M04/M04 Q1028 RMK A;
0080104160999992006010904504+51517+007617FM-15+0148EDLW V0200601N00101999999CY0099001N1-00401-00401999999ADDMA1102811999999REMMET053METAR EDLW 090450Z 06002KT CAVOK M04/M04 Q1028 RMK B;
0080104160999992006010905204+51517+007617FM-15+0148EDLW V0200801N00101999999CY0099001N1-00401-00401999999ADDMA1102811999999REMMET053METAR EDLW 090520Z 08002KT CAVOK M04/M04 Q1028 RMK C;
0074104160999992006010905504+51517+007617FM-15+0148EDLW V0200601N00151999999CY0099001N1-00401-00401999999ADDMA1102811999999REMMET047EDLW 090550Z 06003KT CAVOK M04/M04 Q1028 RMK D;
0074104160999992006010906204+51517+007617FM-15+0148EDLW V0201201N00151999999CY0099001N1-00401-00401999999ADDMA1102811999999REMMET047EDLW 090620Z 12003KT CAVOK M04/M04 Q1028 RMK E;
0074104160999992006010906504+51517+007617FM-15+0148EDLW V0209999V00101999999CY0099001N1-00401-00401999999ADDMA1102811999999REMMET047EDLW 090650Z VRB02KT CAVOK M04/M04 Q1028 RMK F;
0077104160999992006010907204+51517+007617FM-15+0148EDLW V0201701N003112200019N0090001N1-00301-00401999999ADDMA1102811999999REMMET050EDLW 090720Z 17006KT 9000 NSC M03/M04 Q1028 RMK G;
0083104160999992006010907504+51517+007617FM-15+0148EDLW V0201801N003112200019N0090001N1-00301-00401999999ADDMA1102811999999REMMET056METAR EDLW 090750Z 18006KT 9000 NSC M03/M04 Q1028 RMK H;
0077104160999992006010908204+51517+007617FM-15+0148EDLW V0209999V000512200019N0090001N1-00201-00301999999ADDMA1102811999999REMMET050EDLW 090820Z VRB01KT 9000 NSC M02/M03 Q1028 RMK I;
0074104160999992006010908504+51517+007617FM-15+0148EDLW V0201201N00101999999CY0099001N1-00201-00201999999ADDMA1102811999999REMMET047EDLW 090850Z 12002KT CAVOK M02/M02 Q1028 RMK K;
0074104160999992006010909204+51517+007617FM-15+0148EDLW V0200301N00051999999CY0099001N1-00101-00201999999ADDMA1102911999999REMMET047EDLW 090920Z 03001KT CAVOK M01/M02 Q1029 RMK L;
0073104160999992006010909504+51517+007617FM-15+0148EDLW V0200701N00101999999CY0099001N1+00001-00101999999ADDMA1102911999999REMMET046EDLW 090950Z 07002KT CAVOK 00/M01 Q1029 RMK M;
0073104160999992006010910204+51517+007617FM-15+0148EDLW V0203401N00051999999CY0099001N1+00001-00101999999ADDMA1102811999999REMMET046EDLW 091020Z 34001KT CAVOK 00/M01 Q1028 RMK N;
0072104160999992006010910504+51517+007617FM-15+0148EDLW V0200601N00051999999CY0099001N1+00201+00001999999ADDMA1102811999999REMMET045EDLW 091050Z 06001KT CAVOK 02/00 Q1028 RMK O;
0073104160999992006010911204+51517+007617FM-15+0148EDLW V0201401N00101999999CY0099001N1+00301-00101999999ADDMA1102811999999REMMET046EDLW 091120Z 14002KT CAVOK 03/M01 Q1028 RMK P;
0073104160999992006010911504+51517+007617FM-15+0148EDLW V0203401N00051999999CY0099001N1+00301-00101999999ADDMA1102711999999REMMET046EDLW 091150Z 34001KT CAVOK 03/M01 Q1027 RMK Q;
0073104160999992006010912204+51517+007617FM-15+0148EDLW V0200101N00101999999CY0099001N1+00301+00001999999ADDMA1102711999999REMMET046EDLW 091220Z 01002KT CAVOK 03/M00 Q1027 RMK R;
0073104160999992006010912504+51517+007617FM-15+0148EDLW V0200301N00211999999CY0099001N1+00301-00101999999ADDMA1102711999999REMMET046EDLW 091250Z 03004KT CAVOK 03/M01 Q1027 RMK S;
0073104160999992006010913204+51517+007617FM-15+0148EDLW V0200401N00151999999CY0099001N1+00301+00001999999ADDMA1102711999999REMMET046EDLW 091320Z 04003KT CAVOK 03/M00 Q1027 RMK T;
0073104160999992006010913504+51517+007617FM-15+0148EDLW V0200401N00151999999CY0099001N1+00301-00101999999ADDMA1102711999999REMMET046EDLW 091350Z 04003KT CAVOK 03/M01 Q1027 RMK U;
0073104160999992006010914204+51517+007617FM-15+0148EDLW V0200401N00151999999CY0099001N1+00301-00101999999ADDMA1102711999999REMMET046EDLW 091420Z 04003KT CAVOK 03/M01 Q1027 RMK V;
0073104160999992006010914504+51517+007617FM-15+0148EDLW V0200501N00151999999CY0099001N1+00201-00101999999ADDMA1102711999999REMMET046EDLW 091450Z 05003KT CAVOK 02/M01 Q1027 RMK W;
0073104160999992006010915204+51517+007617FM-15+0148EDLW V0200501N00211999999CY0099001N1+00001-00201999999ADDMA1102711999999REMMET046EDLW 091520Z 05004KT CAVOK 00/M02 Q1027 RMK X;
0074104160999992006010915504+51517+007617FM-15+0148EDLW V0200701N00151999999CY0099001N1+00001-00201999999ADDMA1102711999999REMMET047EDLW 091550Z 07003KT CAVOK M00/M02 Q1027 RMK Y;
0077104160999992006010916204+51517+007617FM-15+0148EDLW V0200701N001512200019N0080001N1-00101-00201999999ADDMA1102711999999REMMET050EDLW 091620Z 07003KT 8000 NSC M01/M02 Q1027 RMK Z;
0077104160999992006010916504+51517+007617FM-15+0148EDLW V0200801N001512200019N0080001N1-00101-00301999999ADDMA1102711999999REMMET050EDLW 091650Z 08003KT 8000 NSC M01/M03 Q1027 RMK A;
0085104160999992006010917204+51517+007617FM-15+0148EDLW V0201401N001512200019N0090001N1+00001-00201999999ADDMA1102711999999REMMET058EDLW 091720Z 14003KT 070V160 9000 NSC M00/M02 Q1027 RMK B;
0074104160999992006010917504+51517+007617FM-15+0148EDLW V0201701N00311999999CY0099001N1-00101-00201999999ADDMA1102711999999REMMET047EDLW 091750Z 17006KT CAVOK M01/M02 Q1027 RMK C;
0074104160999992006010918204+51517+007617FM-15+0148EDLW V0201701N00261999999CY0099001N1-00101-00301999999ADDMA1102711999999REMMET047EDLW 091820Z 17005KT CAVOK M01/M03 Q1027 RMK D;
0080104160999992006010918504+51517+007617FM-15+0148EDLW V0201701N00311999999CY0099001N1-00201-00201999999ADDMA1102711999999REMMET053METAR EDLW 091850Z 17006KT CAVOK M02/M02 Q1027 RMK E;
0074104160999992006010919204+51517+007617FM-15+0148EDLW V0201701N00311999999CY0099001N1-00201-00301999999ADDMA1102711999999REMMET047EDLW 091920Z 17006KT CAVOK M02/M03 Q1027 RMK F;
0082104160999992006010919504+51517+007617FM-15+0148EDLW V0202401N00151999999CY0099001N1-00301-00401999999ADDMA1102711999999REMMET055EDLW 091950Z 24003KT 180V310 CAVOK M03/M04 Q1027 RMK G;
0074104160999992006010920204+51517+007617FM-15+0148EDLW V0202201N00151999999CY0099001N1-00201-00401999999ADDMA1102811999999REMMET047EDLW 092020Z 22003KT CAVOK M02/M04 Q1028 RMK H;
0074104160999992006010920504+51517+007617FM-15+0148EDLW V0202001N00151999999CY0099001N1-00201-00401999999ADDMA1102811999999REMMET047EDLW 092050Z 20003KT CAVOK M02/M04 Q1028 RMK I;
0155104160999992006011004204+51517+007617FM-15+0148EDLW V0202201N00211999999CY0099001N1-00101-00401999999ADDMA1102711999999REMMET061METAR EDLW 100420Z 22004KT 160V270 CAVOK M01/M04 Q1027 RMK A;EQDQ01+000000PRSWM1Q02+000000PRSWM2Q03+000000PRSWM3Q04+000000PRSWM4
0141104160999992006011004504+51517+007617FM-15+0148EDLW V0201701N00571999999CY0099001N1-00101-00401999999ADDMA1102711999999REMMET047EDLW 100450Z 17011KT CAVOK M01/M04 Q1027 RMK B;EQDQ01+000000PRSWM1Q02+000000PRSWM2Q03+000000PRSWM3Q04+000000PRSWM4
0141104160999992006011005204+51517+007617FM-15+0148EDLW V0201701N00571999999CY0099001N1-00101-00401999999ADDMA1102711999999REMMET047EDLW 100520Z 17011KT CAVOK M01/M04 Q1027 RMK C;EQDQ01+000000PRSWM1Q02+000000PRSWM2Q03+000000PRSWM3Q04+000000PRSWM4
0141104160999992006011005504+51517+007617FM-15+0148EDLW V0202601N00101999999CY0099001N1-00101-00401999999ADDMA1102811999999REMMET047EDLW 100550Z 26002KT CAVOK M01/M04 Q1028 RMK D;EQDQ01+000000PRSWM1Q02+000000PRSWM2Q03+000000PRSWM3Q04+000000PRSWM4
0149104160999992006011006204+51517+007617FM-15+0148EDLW V0202301N00151999999CY0099001N1-00101-00401999999ADDMA1102811999999REMMET055EDLW 100620Z 23003KT 190V280 CAVOK M01/M04 Q1028 RMK E;EQDQ01+000000PRSWM1Q02+000000PRSWM2Q03+000000PRSWM3Q04+000000PRSWM4
0141104160999992006011006504+51517+007617FM-15+0148EDLW V0201801N00211999999CY0099001N1-00101-00401999999ADDMA1102811999999REMMET047EDLW 100650Z 18004KT CAVOK M01/M04 Q1028 RMK F;EQDQ01+000000PRSWM1Q02+000000PRSWM2Q03+000000PRSWM3Q04+000000PRSWM4
0144104160999992006011007204+51517+007617FM-15+0148EDLW V0201701N006212200019N0090001N1-00101-00401999999ADDMA1102811999999REMMET050EDLW 100720Z 17012KT 9000 NSC M01/M04 Q1028 RMK G;EQDQ01+000000PRSWM1Q02+000000PRSWM2Q03+000000PRSWM3Q04+000000PRSWM4
0144104160999992006011007504+51517+007617FM-15+0148EDLW V0201701N005712200019N0090001N1-00101-00401999999ADDMA1102811999999REMMET050EDLW 100750Z 17011KT 9000 NSC M01/M04 Q1028 RMK H;EQDQ01+000000PRSWM1Q02+000000PRSWM2Q03+000000PRSWM3Q04+000000PRSWM4
0144104160999992006011008204+51517+007617FM-15+0148EDLW V0201701N005712200019N0090001N1-00101-00401999999ADDMA1102811999999REMMET050EDLW 100820Z 17011KT 9000 NSC M01/M04 Q1028 RMK I;EQDQ01+000000PRSWM1Q02+000000PRSWM2Q03+000000PRSWM3Q04+000000PRSWM4
0144104160999992006011008504+51517+007617FM-15+0148EDLW V0201701N005112200019N0090001N1+00001-00401999999ADDMA1102911999999REMMET050EDLW 100850Z 17010KT 9000 NSC M00/M04 Q1029 RMK J;EQDQ01+000000PRSWM1Q02+000000PRSWM2Q03+000000PRSWM3Q04+000000PRSWM4
0143104160999992006011009204+51517+007617FM-15+0148EDLW V0201801N006712200019N0090001N1+00101-00401999999ADDMA1102911999999REMMET049EDLW 100920Z 18013KT 9000 NSC 01/M04 Q1029 RMK K;EQDQ01+000000PRSWM1Q02+000000PRSWM2Q03+000000PRSWM3Q04+000000PRSWM4
0143104160999992006011009504+51517+007617FM-15+0148EDLW V0201801N006212200019N0090001N1+00101-00301999999ADDMA1102911999999REMMET049EDLW 100950Z 18012KT 9000 NSC 01/M03 Q1029 RMK L;EQDQ01+000000PRSWM1Q02+000000PRSWM2Q03+000000PRSWM3Q04+000000PRSWM4
0143104160999992006011010204+51517+007617FM-15+0148EDLW V0201801N006212200019N0090001N1+00201-00301999999ADDMA1102911999999REMMET049EDLW 101020Z 18012KT 9000 NSC 02/M03 Q1029 RMK M;EQDQ01+000000PRSWM1Q02+000000PRSWM2Q03+000000PRSWM3Q04+000000PRSWM4
0143104160999992006011010504+51517+007617FM-15+0148EDLW V0201801N006212200019N0090001N1+00301-00301999999ADDMA1102811999999REMMET049EDLW 101050Z 18012KT 9000 NSC 03/M03 Q1028 RMK N;EQDQ01+000000PRSWM1Q02+000000PRSWM2Q03+000000PRSWM3Q04+000000PRSWM4
0143104160999992006011011204+51517+007617FM-15+0148EDLW V0201801N005712200019N0090001N1+00401-00201999999ADDMA1102811999999REMMET049EDLW 101120Z 18011KT 9000 NSC 04/M02 Q1028 RMK O;EQDQ01+000000PRSWM1Q02+000000PRSWM2Q03+000000PRSWM3Q04+000000PRSWM4
0143104160999992006011011504+51517+007617FM-15+0148EDLW V0201901N005112200019N0090001N1+00401-00101999999ADDMA1102811999999REMMET049EDLW 101150Z 19010KT 9000 NSC 04/M01 Q1028 RMK P;EQDQ01+000000PRSWM1Q02+000000PRSWM2Q03+000000PRSWM3Q04+000000PRSWM4
0143104160999992006011012204+51517+007617FM-15+0148EDLW V0201901N004612200019N0090001N1+00501-00101999999ADDMA1102811999999REMMET049EDLW 101220Z 19009KT 9000 NSC 05/M01 Q1028 RMK Q;EQDQ01+000000PRSWM1Q02+000000PRSWM2Q03+000000PRSWM3Q04+000000PRSWM4
0137104160999992006011012504+51517+007617FM-15+0148EDLW V0202201N003112200019N0090001N1+00501+00001999999ADDMA1102811999999REMMET043EDLW 101250Z 22006KT 9000 NSC 05/M00 Q1028;EQDQ01+000000PRSWM1Q02+000000PRSWM2Q03+000000PRSWM3Q04+000000PRSWM4
0137104160999992006011013204+51517+007617FM-15+0148EDLW V0202001N003112200019N0080001N1+00501-00101999999ADDMA1102811999999REMMET043EDLW 101320Z 20006KT 8000 NSC 05/M01 Q1028;EQDQ01+000000PRSWM1Q02+000000PRSWM2Q03+000000PRSWM3Q04+000000PRSWM4
0137104160999992006011013504+51517+007617FM-15+0148EDLW V0202101N003112200019N0080001N1+00501-00101999999ADDMA1102811999999REMMET043EDLW 101350Z 21006KT 8000 NSC 05/M01 Q1028;EQDQ01+000000PRSWM1Q02+000000PRSWM2Q03+000000PRSWM3Q04+000000PRSWM4
0137104160999992006011014204+51517+007617FM-15+0148EDLW V0202001N002612200019N0080001N1+00401-00101999999ADDMA1102711999999REMMET043EDLW 101420Z 20005KT 8000 NSC 04/M01 Q1027;EQDQ01+000000PRSWM1Q02+000000PRSWM2Q03+000000PRSWM3Q04+000000PRSWM4
0137104160999992006011014504+51517+007617FM-15+0148EDLW V0202001N004112200019N0080001N1+00401-00201999999ADDMA1102711999999REMMET043EDLW 101450Z 20008KT 8000 NSC 04/M02 Q1027;EQDQ01+000000PRSWM1Q02+000000PRSWM2Q03+000000PRSWM3Q04+000000PRSWM4
0137104160999992006011015204+51517+007617FM-15+0148EDLW V0201901N003112200019N0080001N1+00301-00201999999ADDMA1102711999999REMMET043EDLW 101520Z 19006KT 8000 NSC 03/M02 Q1027;EQDQ01+000000PRSWM1Q02+000000PRSWM2Q03+000000PRSWM3Q04+000000PRSWM4
0140104160999992006011015504+51517+007617FM-15+0148EDLW V0201801N00361999999CY0099001N1+00301-00201999999ADDMA1102711999999REMMET046EDLW 101550Z 18007KT CAVOK 03/M02 Q1027 RMK X;EQDQ01+000000PRSWM1Q02+000000PRSWM2Q03+000000PRSWM3Q04+000000PRSWM4
0140104160999992006011016204+51517+007617FM-15+0148EDLW V0202001N00311999999CY0099001N1+00301-00201999999ADDMA1102711999999REMMET046EDLW 101620Z 20006KT CAVOK 03/M02 Q1027 RMK Y;EQDQ01+000000PRSWM1Q02+000000PRSWM2Q03+000000PRSWM3Q04+000000PRSWM4
0140104160999992006011016504+51517+007617FM-15+0148EDLW V0201801N00411999999CY0099001N1+00301-00201999999ADDMA1102711999999REMMET046EDLW 101650Z 18008KT CAVOK 03/M02 Q1027 RMK Z;EQDQ01+000000PRSWM1Q02+000000PRSWM2Q03+000000PRSWM3Q04+000000PRSWM4
0140104160999992006011017204+51517+007617FM-15+0148EDLW V0201801N00511999999CY0099001N1+00301-00201999999ADDMA1102711999999REMMET046EDLW 101720Z 18010KT CAVOK 03/M02 Q1027 RMK A;EQDQ01+000000PRSWM1Q02+000000PRSWM2Q03+000000PRSWM3Q04+000000PRSWM4
0140104160999992006011019204+51517+007617FM-15+0148EDLW V0201801N00671999999CY0099001N1+00201-00301999999ADDMA1102611999999REMMET046EDLW 101920Z 18013KT CAVOK 02/M03 Q1026 RMK E;EQDQ01+000000PRSWM1Q02+000000PRSWM2Q03+000000PRSWM3Q04+000000PRSWM4
0140104160999992006011019504+51517+007617FM-15+0148EDLW V0201701N00671999999CY0099001N1+00301-00301999999ADDMA1102611999999REMMET046EDLW 101950Z 17013KT CAVOK 03/M03 Q1026 RMK F;EQDQ01+000000PRSWM1Q02+000000PRSWM2Q03+000000PRSWM3Q04+000000PRSWM4
0140104160999992006011020204+51517+007617FM-15+0148EDLW V0201701N00621999999CY0099001N1+00301-00301999999ADDMA1102611999999REMMET046EDLW 102020Z 17012KT CAVOK 03/M03 Q1026 RMK G;EQDQ01+000000PRSWM1Q02+000000PRSWM2Q03+000000PRSWM3Q04+000000PRSWM4
0140104160999992006011104204+51517+007617FM-15+0148EDLW V0202001N00671999999CY0099001N1+00201-00401999999ADDMA1102401999999REMMET046EDLW 110420Z 20013KT CAVOK 02/M04 Q1024 RMK A;EQDQ01+000000PRSWM1Q02+000000PRSWM2Q03+000000PRSWM3Q04+000000PRSWM4
0140104160999992006011104504+51517+007617FM-15+0148EDLW V0202001N00721999999CY0099001N1+00201-00401999999ADDMA1102401999999REMMET046EDLW 110450Z 20014KT CAVOK 02/M04 Q1024 RMK B;EQDQ01+000000PRSWM1Q02+000000PRSWM2Q03+000000PRSWM3Q04+000000PRSWM4
0140104160999992006011105204+51517+007617FM-15+0148EDLW V0202001N00821999999CY0099001N1+00201-00301999999ADDMA1102401999999REMMET046EDLW 110520Z 20016KT CAVOK 02/M03 Q1024 RMK C;EQDQ01+000000PRSWM1Q02+000000PRSWM2Q03+000000PRSWM3Q04+000000PRSWM4
0140104160999992006011105504+51517+007617FM-15+0148EDLW V0201901N00721999999CY0099001N1+00201-00301999999ADDMA1102301999999REMMET046EDLW 110550Z 19014KT CAVOK 02/M03 Q1023 RMK D;EQDQ01+000000PRSWM1Q02+000000PRSWM2Q03+000000PRSWM3Q04+000000PRSWM4
0140104160999992006011106204+51517+007617FM-15+0148EDLW V0202001N00671999999CY0099001N1+00201-00301999999ADDMA1102401999999REMMET046EDLW 110620Z 20013KT CAVOK 02/M03 Q1024 RMK E;EQDQ01+000000PRSWM1Q02+000000PRSWM2Q03+000000PRSWM3Q04+000000PRSWM4
0140104160999992006011106504+51517+007617FM-15+0148EDLW V0202001N00771999999CY0099001N1+00201-00301999999ADDMA1102301999999REMMET046EDLW 110650Z 20015KT CAVOK 02/M03 Q1023 RMK F;EQDQ01+000000PRSWM1Q02+000000PRSWM2Q03+000000PRSWM3Q04+000000PRSWM4
0140104160999992006011107204+51517+007617FM-15+0148EDLW V0202001N00821999999CY0099001N1+00201-00301999999ADDMA1102301999999REMMET046EDLW 110720Z 20016KT CAVOK 02/M03 Q1023 RMK G;EQDQ01+000000PRSWM1Q02+000000PRSWM2Q03+000000PRSWM3Q04+000000PRSWM4
0140104160999992006011107504+51517+007617FM-15+0148EDLW V0201901N00821999999CY0099001N1+00201-00301999999ADDMA1102301999999REMMET046EDLW 110750Z 19016KT CAVOK 02/M03 Q1023 RMK H;EQDQ01+000000PRSWM1Q02+000000PRSWM2Q03+000000PRSWM3Q04+000000PRSWM4
0140104160999992006011108204+51517+007617FM-15+0148EDLW V0201901N00821999999CY0099001N1+00201-00301999999ADDMA1102401999999REMMET046EDLW 110820Z 19016KT CAVOK 02/M03 Q1024 RMK I;EQDQ01+000000PRSWM1Q02+000000PRSWM2Q03+000000PRSWM3Q04+000000PRSWM4
0140104160999992006011108504+51517+007617FM-15+0148EDLW V0201901N00771999999CY0099001N1+00301-00301999999ADDMA1102401999999REMMET046EDLW 110850Z 19015KT CAVOK 03/M03 Q1024 RMK J;EQDQ01+000000PRSWM1Q02+000000PRSWM2Q03+000000PRSWM3Q04+000000PRSWM4
0140104160999992006011109204+51517+007617FM-15+0148EDLW V0202001N00721999999CY0099001N1+00301-00201999999ADDMA1102401999999REMMET046EDLW 110920Z 20014KT CAVOK 03/M02 Q1024 RMK K;EQDQ01+000000PRSWM1Q02+000000PRSWM2Q03+000000PRSWM3Q04+000000PRSWM4
0140104160999992006011109504+51517+007617FM-15+0148EDLW V0202001N00821999999CY0099001N1+00401-00201999999ADDMA1102401999999REMMET046EDLW 110950Z 20016KT CAVOK 04/M02 Q1024 RMK L;EQDQ01+000000PRSWM1Q02+000000PRSWM2Q03+000000PRSWM3Q04+000000PRSWM4
0140104160999992006011110204+51517+007617FM-15+0148EDLW V0202101N00771999999CY0099001N1+00501-00201999999ADDMA1102401999999REMMET046EDLW 111020Z 21015KT CAVOK 05/M02 Q1024 RMK M;EQDQ01+000000PRSWM1Q02+000000PRSWM2Q03+000000PRSWM3Q04+000000PRSWM4
0140104160999992006011110504+51517+007617FM-15+0148EDLW V0202101N00721999999CY0099001N1+00501-00201999999ADDMA1102401999999REMMET046EDLW 111050Z 21014KT CAVOK 05/M02 Q1024 RMK N;EQDQ01+000000PRSWM1Q02+000000PRSWM2Q03+000000PRSWM3Q04+000000PRSWM4
0140104160999992006011111204+51517+007617FM-15+0148EDLW V0202101N00671999999CY0099001N1+00501-00201999999ADDMA1102401999999REMMET046EDLW 111120Z 21013KT CAVOK 05/M02 Q1024 RMK O;EQDQ01+000000PRSWM1Q02+000000PRSWM2Q03+000000PRSWM3Q04+000000PRSWM4
0140104160999992006011111504+51517+007617FM-15+0148EDLW V0202201N00721999999CY0099001N1+00501-00101999999ADDMA1102401999999REMMET046EDLW 111150Z 22014KT CAVOK 05/M01 Q1024 RMK P;EQDQ01+000000PRSWM1Q02+000000PRSWM2Q03+000000PRSWM3Q04+000000PRSWM4
0140104160999992006011112204+51517+007617FM-15+0148EDLW V0202101N00771999999CY0099001N1+00501-00101999999ADDMA1102301999999REMMET046EDLW 111220Z 21015KT CAVOK 05/M01 Q1023 RMK Q;EQDQ01+000000PRSWM1Q02+000000PRSWM2Q03+000000PRSWM3Q04+000000PRSWM4
0140104160999992006011112504+51517+007617FM-15+0148EDLW V0202101N00721999999CY0099001N1+00501-00101999999ADDMA1102301999999REMMET046EDLW 111250Z 21014KT CAVOK 05/M01 Q1023 RMK R;EQDQ01+000000PRSWM1Q02+000000PRSWM2Q03+000000PRSWM3Q04+000000PRSWM4
0185104160999992006011113204+51517+007617FM-15+0148EDLW V0202101N007710108059N0112651N1+00501-00101999999ADDGA1045+006305999GA2075+010805999MA1102301999999REMMET059EDLW 111320Z 21015KT 9999 SCT021 BKN036 05/M01 Q1023 RMK S;EQDQ01+000000PRSWM1Q02+000000PRSWM2Q03+000000PRSWM3Q04+000000PRSWM4
0140104160999992006011113504+51517+007617FM-15+0148EDLW V0202101N00721999999CY0099001N1+00501-00101999999ADDMA1102301999999REMMET046EDLW 111350Z 21014KT CAVOK 05/M01 Q1023 RMK T;EQDQ01+000000PRSWM1Q02+000000PRSWM2Q03+000000PRSWM3Q04+000000PRSWM4
0205104160999992006011114204+51517+007617FM-15+0148EDLW V0202001N00671017405CN0112651N1+00401+00001999999ADDGA1045+010801999GA2075+017405999GF107991999999999999999999MA1102301999999MW1611REMMET063EDLW 111420Z 20013KT 9999 -RA SCT036 BKN058 04/M00 Q1023 RMK U;EQDQ01+000000PRSWM1Q02+000000PRSWM3Q03+000000PRSWM4
0204104160999992006011114504+51517+007617FM-15+0148EDLW V0202001N00671015605CN0112651N1+00401+00001999999ADDGA1045+009901999GA2075+015605999GF107991999999999999999999MA1102301999999MW1611REMMET062EDLW 111450Z 20013KT 9999 -RA SCT033 BKN052 04/00 Q1023 RMK V;EQDQ01+000000PRSWM1Q02+000000PRSWM3Q03+000000PRSWM4
0223104160999992006011115204+51517+007617FM-15+0148EDLW V0202001N00671020405CN0112651N1+00401+00001999999ADDGA1045+013801999GA2075+020405999GF107991999999999999999999MA1102301999999MW1611OC101231REMMET073EDLW 111520Z 20013G24KT 150V220 9999 -RA SCT046 BKN068 04/00 Q1023 RMK W;EQDQ01+000000PRSWM1Q02+000000PRSWM3Q03+000000PRSWM4
