0141104160999992012010104204+51517+007617FM-15+0148EDLW V0202301N006710027019N0112651N1+01101+00901999999ADDGA1081+002701999GF108991999999999999999999MA1101021999999MW1511REMMET066METAR EDLW 010420Z 23013KT 9999 -DZ OVC009 11/09 Q1010 RMK ATIS A;
0141104160999992012010104504+51517+007617FM-15+0148EDLW V0202301N007710027019N0112651N1+01101+00901999999ADDGA1071+002701999GF107991999999999999999999MA1100911999999MW1511REMMET066METAR EDLW 010450Z 23015KT 9999 -DZ BKN009 11/09 Q1009 RMK ATIS B;
0141104160999992012010105204+51517+007617FM-15+0148EDLW V0202201N007710030019N0112651N1+01101+00901999999ADDGA1071+003001999GF107991999999999999999999MA1100911999999MW1611REMMET066METAR EDLW 010520Z 22015KT 9999 -RA BKN010 11/09 Q1009 RMK ATIS C;
0131104160999992012010105504+51517+007617FM-15+0148EDLW V0202101N006710030019N0112651N1+01101+00901999999ADDGA1071+003001999GF107991999999999999999999MA1100911999999REMMET062METAR EDLW 010550Z 21013KT 9999 BKN010 11/09 Q1009 RMK ATIS D;
0140104160999992012010106204+51517+007617FM-15+0148EDLW V0202301N007210018019N0060001N1+01101+01001999999ADDGA1071+001801999GF107991999999999999999999MA1101021999999MW1531REMMET065METAR EDLW 010620Z 23014KT 6000 DZ BKN006 11/10 Q1010 RMK ATIS E;
0141104160999992012010106504+51517+007617FM-15+0148EDLW V0202201N006710024019N0080001N1+01101+01001999999ADDGA1071+002401999GF107991999999999999999999MA1101021999999MW1511REMMET066METAR EDLW 010650Z 22013KT 8000 -DZ BKN008 11/10 Q1010 RMK ATIS F;
0141104160999992012010107204+51517+007617FM-15+0148EDLW V0202301N008210024019N0060001N1+01101+01001999999ADDGA1071+002401999GF107991999999999999999999MA1101021999999MW1511REMMET066METAR EDLW 010720Z 23016KT 6000 -DZ BKN008 11/10 Q1010 RMK ATIS G;
0141104160999992012010107504+51517+007617FM-15+0148EDLW V0202301N008210024019N0112651N1+01101+01001999999ADDGA1071+002401999GF107991999999999999999999MA1101021999999MW1511REMMET066METAR EDLW 010750Z 23016KT 9999 -DZ BKN008 11/10 Q1010 RMK ATIS H;
0141104160999992012010108204+51517+007617FM-15+0148EDLW V0202301N007710030019N0080001N1+01201+01001999999ADDGA1071+003001999GF107991999999999999999999MA1101021999999MW1611REMMET066METAR EDLW 010820Z 23015KT 8000 -RA BKN010 12/10 Q1010 RMK ATIS I;
0131104160999992012010108504+51517+007617FM-15+0148EDLW V0202301N006710030019N0112651N1+01101+01001999999ADDGA1071+003001999GF107991999999999999999999MA1101021999999REMMET062METAR EDLW 010850Z 23013KT 9999 BKN010 11/10 Q1010 RMK ATIS J;
0131104160999992012010109204+51517+007617FM-15+0148EDLW V0202301N007210027019N0112651N1+01101+01001999999ADDGA1071+002701999GF107991999999999999999999MA1101021999999REMMET062METAR EDLW 010920Z 23014KT 9999 BKN009 11/10 Q1010 RMK ATIS K;
0141104160999992012010109504+51517+007617FM-15+0148EDLW V0202301N006710021019N0070001N1+01201+01001999999ADDGA1071+002101999GF107991999999999999999999MA1101021999999MW1611REMMET066METAR EDLW 010950Z 23013KT 7000 -RA BKN007 12/10 Q1010 RMK ATIS L;
0140104160999992012010110204+51517+007617FM-15+0148EDLW V0202301N006710024019N0040001N1+01201+01101999999ADDGA1071+002401999GF107991999999999999999999MA1101021999999MW1101REMMET065METAR EDLW 011020Z 23013KT 4000 BR BKN008 12/11 Q1010 RMK ATIS M;
0141104160999992012010110504+51517+007617FM-15+0148EDLW V0202301N007710030019N0080001N1+01201+01101999999ADDGA1071+003001999GF107991999999999999999999MA1101021999999MW1611REMMET066METAR EDLW 011050Z 23015KT 8000 -RA BKN010 12/11 Q1010 RMK ATIS N;
0141104160999992012010111204+51517+007617FM-15+0148EDLW V0202401N007710024019N0060001N1+01201+01101999999ADDGA1081+002401999GF108991999999999999999999MA1101021999999MW1611REMMET066METAR EDLW 011120Z 24015KT 6000 -RA OVC008 12/11 Q1010 RMK ATIS O;
0131104160999992012010111504+51517+007617FM-15+0148EDLW V0202201N007210024019N0090001N1+01201+01101999999ADDGA1071+002401999GF107991999999999999999999MA1101021999999REMMET062METAR EDLW 011150Z 22014KT 9000 BKN008 12/11 Q1010 RMK ATIS P;
0131104160999992012010112204+51517+007617FM-15+0148EDLW V0202301N006210024019N0112651N1+01201+01101999999ADDGA1071+002401999GF107991999999999999999999MA1101021999999REMMET062METAR EDLW 011220Z 23012KT 9999 BKN008 12/11 Q1010 RMK ATIS Q;
0141104160999992012010112504+51517+007617FM-15+0148EDLW V0202301N006710024019N0070001N1+01201+01101999999ADDGA1081+002401999GF108991999999999999999999MA1100911999999MW1511REMMET066METAR EDLW 011250Z 23013KT 7000 -DZ OVC008 12/11 Q1009 RMK ATIS R;
0131104160999992012010113204+51517+007617FM-15+0148EDLW V0202301N006710030019N0090001N1+01201+01101999999ADDGA1071+003001999GF107991999999999999999999MA1100911999999REMMET062METAR EDLW 011320Z 23013KT 9000 BKN010 12/11 Q1009 RMK ATIS S;
0131104160999992012010113504+51517+007617FM-15+0148EDLW V0202201N005110027019N0060001N1+01201+01101999999ADDGA1071+002701999GF107991999999999999999999MA1100911999999REMMET062METAR EDLW 011350Z 22010KT 6000 BKN009 12/11 Q1009 RMK ATIS T;
0150104160999992012010114504+51517+007617FM-15+0148EDLW V0202201N006210018019N0040001N1+01201+01101999999ADDGA1071+001801999GF107991999999999999999999MA1100911999999MW1101MW2611REMMET069METAR EDLW 011450Z 22012KT 4000 -RA BR BKN006 12/11 Q1009 RMK ATIS V;
0131104160999992012010115204+51517+007617FM-15+0148EDLW V0202101N006710021019N0070001N1+01201+01101999999ADDGA1071+002101999GF107991999999999999999999MA1100911999999REMMET062METAR EDLW 011520Z 21013KT 7000 BKN007 12/11 Q1009 RMK ATIS W;
0154104160999992012010115504+51517+007617FM-15+0148EDLW V0202101N006210054019N0112651N1+01201+01101999999ADDGA1021+002701999GA2071+005401999GF107991999999999999999999MA1100811999999REMMET069METAR EDLW 011550Z 21012KT 9999 FEW009 BKN018 12/11 Q1008 RMK ATIS X;
0154104160999992012010116204+51517+007617FM-15+0148EDLW V0202101N006210063019N0112651N1+01201+01101999999ADDGA1041+004201999GA2071+006301999GF107991999999999999999999MA1100811999999REMMET069METAR EDLW 011620Z 21012KT 9999 SCT014 BKN021 12/11 Q1008 RMK ATIS Y;
0154104160999992012010116504+51517+007617FM-15+0148EDLW V0202001N005710063019N0112651N1+01201+01101999999ADDGA1021+003001999GA2071+006301999GF107991999999999999999999MA1100811999999REMMET069METAR EDLW 011650Z 20011KT 9999 FEW010 BKN021 12/11 Q1008 RMK ATIS Z;
0154104160999992012010117204+51517+007617FM-15+0148EDLW V0202001N004610093019N0112651N1+01201+01101999999ADDGA1021+004801999GA2071+009301999GF107991999999999999999999MA1100711999999REMMET069METAR EDLW 011720Z 20009KT 9999 FEW016 BKN031 12/11 Q1007 RMK ATIS A;
0131104160999992012010117504+51517+007617FM-15+0148EDLW V0202001N006210048019N0112651N1+01201+01001999999ADDGA1071+004801999GF107991999999999999999999MA1100711999999REMMET062METAR EDLW 011750Z 20012KT 9999 BKN016 12/10 Q1007 RMK ATIS B;
0131104160999992012010118204+51517+007617FM-15+0148EDLW V0202001N007212200019N0112651N1+01201+01001999999ADDGA1041+007501999GF104991999999999999999999MA1100711999999REMMET062METAR EDLW 011820Z 20014KT 9999 SCT025 12/10 Q1007 RMK ATIS C;
0131104160999992012010118504+51517+007617FM-15+0148EDLW V0202001N008712200019N0112651N1+01201+01001999999ADDGA1041+006001999GF104991999999999999999999MA1100611999999REMMET062METAR EDLW 011850Z 20017KT 9999 SCT020 12/10 Q1006 RMK ATIS D;
0131104160999992012010119204+51517+007617FM-15+0148EDLW V0202101N008212200019N0112651N1+01301+01001999999ADDGA1041+009001999GF104991999999999999999999MA1100611999999REMMET062METAR EDLW 011920Z 21016KT 9999 SCT030 13/10 Q1006 RMK ATIS E;
0131104160999992012010119504+51517+007617FM-15+0148EDLW V0202001N008212200019N0112651N1+01301+01001999999ADDGA1041+010501999GF104991999999999999999999MA1100511999999REMMET062METAR EDLW 011950Z 20016KT 9999 SCT035 13/10 Q1005 RMK ATIS F;
0131104160999992012010120204+51517+007617FM-15+0148EDLW V0202001N008212200019N0112651N1+01301+01001999999ADDGA1041+006001999GF104991999999999999999999MA1100511999999REMMET062METAR EDLW 012020Z 20016KT 9999 SCT020 13/10 Q1005 RMK ATIS G;
0131104160999992012010120504+51517+007617FM-15+0148EDLW V0202001N008212200019N0112651N1+01301+01001999999ADDGA1021+006001999GF102991999999999999999999MA1100411999999REMMET062METAR EDLW 012050Z 20016KT 9999 FEW020 13/10 Q1004 RMK ATIS H;
0164104160999992012010204204+51517+007617FM-15+0148EDLW V0202301N005710129019N0112651N1+00901+00801999999ADDGA1041+003301999GA2071+012901999GF107991999999999999999999MA1100411999999MW1611REMMET073METAR EDLW 020420Z 23011KT 9999 -RA SCT011 BKN043 09/08 Q1004 RMK ATIS A;
0164104160999992012010204504+51517+007617FM-15+0148EDLW V0202101N005710063019N0112651N1+00901+00801999999ADDGA1021+003901999GA2071+006301999GF107991999999999999999999MA1100411999999MW1611REMMET073METAR EDLW 020450Z 21011KT 9999 -RA FEW013 BKN021 09/08 Q1004 RMK ATIS B;
0164104160999992012010205204+51517+007617FM-15+0148EDLW V0202201N005710051019N0112651N1+00901+00801999999ADDGA1041+003301999GA2071+005101999GF107991999999999999999999MA1100411999999MW1611REMMET073METAR EDLW 020520Z 22011KT 9999 -RA SCT011 BKN017 09/08 Q1004 RMK ATIS C;
0164104160999992012010205504+51517+007617FM-15+0148EDLW V0202201N005710051019N0112651N1+00901+00801999999ADDGA1041+003301999GA2071+005101999GF107991999999999999999999MA1100411999999MW1611REMMET073METAR EDLW 020550Z 22011KT 9999 -RA SCT011 BKN017 09/08 Q1004 RMK ATIS D;
0164104160999992012010206204+51517+007617FM-15+0148EDLW V0202301N006210051019N0112651N1+00901+00801999999ADDGA1041+003001999GA2071+005101999GF107991999999999999999999MA1100411999999MW1611REMMET073METAR EDLW 020620Z 23012KT 9999 -RA SCT010 BKN017 09/08 Q1004 RMK ATIS E;
0164104160999992012010206504+51517+007617FM-15+0148EDLW V0202201N006210150019N0112651N1+00901+00801999999ADDGA1041+007501999GA2071+015001999GF107991999999999999999999MA1100411999999MW1611REMMET073METAR EDLW 020650Z 22012KT 9999 -RA SCT025 BKN050 09/08 Q1004 RMK ATIS F;
0149104160999992012010207204+51517+007617FM-15+0148EDLW V0202401N006710045019N0112651N1+00801+00601999999ADDGA1071+004501999GF107991999999999999999999MA1100511999999MW1611REMMET074METAR EDLW 020720Z 24013KT 210V290 9999 -RA BKN015 08/06 Q1005 RMK ATIS G;
0141104160999992012010207504+51517+007617FM-15+0148EDLW V0202601N004610105019N0112651N1+00701+00601999999ADDGA1071+010501999GF107991999999999999999999MA1100511999999MW1611REMMET066METAR EDLW 020750Z 26009KT 9999 -RA BKN035 07/06 Q1005 RMK ATIS H;
0141104160999992012010208204+51517+007617FM-15+0148EDLW V0202601N004110144019N0112651N1+00701+00601999999ADDGA1071+014401999GF107991999999999999999999MA1100611999999MW1611REMMET066METAR EDLW 020820Z 26008KT 9999 -RA BKN048 07/06 Q1006 RMK ATIS I;
0141104160999992012010208504+51517+007617FM-15+0148EDLW V0202301N004110120019N0112651N1+00701+00601999999ADDGA1071+012001999GF107991999999999999999999MA1100611999999MW1611REMMET066METAR EDLW 020850Z 23008KT 9999 -RA BKN040 07/06 Q1006 RMK ATIS J;
0141104160999992012010209204+51517+007617FM-15+0148EDLW V0202001N004110129019N0112651N1+00701+00601999999ADDGA1071+012901999GF107991999999999999999999MA1100611999999MW1611REMMET066METAR EDLW 020920Z 20008KT 9999 -RA BKN043 07/06 Q1006 RMK ATIS K;
0141104160999992012010209504+51517+007617FM-15+0148EDLW V0202101N005110135019N0112651N1+00701+00501999999ADDGA1071+013501999GF107991999999999999999999MA1100611999999MW1611REMMET066METAR EDLW 020950Z 21010KT 9999 -RA BKN045 07/05 Q1006 RMK ATIS L;
0154104160999992012010210204+51517+007617FM-15+0148EDLW V0202201N005710150019N0112651N1+00701+00501999999ADDGA1021+010501999GA2071+015001999GF107991999999999999999999MA1100711999999REMMET069METAR EDLW 021020Z 22011KT 9999 FEW035 BKN050 07/05 Q1007 RMK ATIS M;
0154104160999992012010210504+51517+007617FM-15+0148EDLW V0202301N005710120019N0112651N1+00701+00501999999ADDGA1021+004501999GA2071+012001999GF107991999999999999999999MA1100711999999REMMET069METAR EDLW 021050Z 23011KT 9999 FEW015 BKN040 07/05 Q1007 RMK ATIS N;
0154104160999992012010211204+51517+007617FM-15+0148EDLW V0202401N005710120019N0112651N1+00701+00501999999ADDGA1021+006001999GA2071+012001999GF107991999999999999999999MA1100711999999REMMET069METAR EDLW 021120Z 24011KT 9999 FEW020 BKN040 07/05 Q1007 RMK ATIS O;
0154104160999992012010211504+51517+007617FM-15+0148EDLW V0202501N004610120019N0112651N1+00701+00501999999ADDGA1021+004501999GA2071+012001999GF107991999999999999999999MA1100711999999REMMET069METAR EDLW 021150Z 25009KT 9999 FEW015 BKN040 07/05 Q1007 RMK ATIS P;
0154104160999992012010212204+51517+007617FM-15+0148EDLW V0202401N005710078019N0112651N1+00801+00601999999ADDGA1041+004801999GA2071+007801999GF107991999999999999999999MA1100711999999REMMET069METAR EDLW 021220Z 24011KT 9999 SCT016 BKN026 08/06 Q1007 RMK ATIS Q;
0131104160999992012010212504+51517+007617FM-15+0148EDLW V0202501N005710069019N0112651N1+00801+00501999999ADDGA1071+006901999GF107991999999999999999999MA1100811999999REMMET062METAR EDLW 021250Z 25011KT 9999 BKN023 08/05 Q1008 RMK ATIS R;
0131104160999992012010213204+51517+007617FM-15+0148EDLW V0202501N005710051019N0112651N1+00801+00501999999ADDGA1071+005101999GF107991999999999999999999MA1100811999999REMMET062METAR EDLW 021320Z 25011KT 9999 BKN017 08/05 Q1008 RMK ATIS S;
0131104160999992012010213504+51517+007617FM-15+0148EDLW V0202401N005712200019N0112651N1+00801+00501999999ADDGA1041+004501999GF104991999999999999999999MA1100911999999REMMET062METAR EDLW 021350Z 24011KT 9999 SCT015 08/05 Q1009 RMK ATIS T;
0131104160999992012010214204+51517+007617FM-15+0148EDLW V0202401N005712200019N0112651N1+00701+00401999999ADDGA1041+004501999GF104991999999999999999999MA1100911999999REMMET062METAR EDLW 021420Z 24011KT 9999 SCT015 07/04 Q1009 RMK ATIS U;
0131104160999992012010214504+51517+007617FM-15+0148EDLW V0202301N005712200019N0112651N1+00701+00401999999ADDGA1041+004501999GF104991999999999999999999MA1100911999999REMMET062METAR EDLW 021450Z 23011KT 9999 SCT015 07/04 Q1009 RMK ATIS V;
0131104160999992012010215204+51517+007617FM-15+0148EDLW V0202301N006210051019N0112651N1+00701+00401999999ADDGA1071+005101999GF107991999999999999999999MA1101021999999REMMET062METAR EDLW 021520Z 23012KT 9999 BKN017 07/04 Q1010 RMK ATIS W;
0131104160999992012010215504+51517+007617FM-15+0148EDLW V0202401N005710057019N0112651N1+00701+00401999999ADDGA1071+005701999GF107991999999999999999999MA1101021999999REMMET062METAR EDLW 021550Z 24011KT 9999 BKN019 07/04 Q1010 RMK ATIS X;
0131104160999992012010216204+51517+007617FM-15+0148EDLW V0202401N005112200019N0112651N1+00701+00401999999ADDGA1041+006001999GF104991999999999999999999MA1101021999999REMMET062METAR EDLW 021620Z 24010KT 9999 SCT020 07/04 Q1010 RMK ATIS Y;
0131104160999992012010216504+51517+007617FM-15+0148EDLW V0202401N005712200019N0112651N1+00701+00301999999ADDGA1041+007501999GF104991999999999999999999MA1101081999999REMMET062METAR EDLW 021650Z 24011KT 9999 SCT025 07/03 Q1011 RMK ATIS Z;
0131104160999992012010217204+51517+007617FM-15+0148EDLW V0202301N006710075019N0112651N1+00701+00301999999ADDGA1071+007501999GF107991999999999999999999MA1101191999999REMMET062METAR EDLW 021720Z 23013KT 9999 BKN025 07/03 Q1012 RMK ATIS A;
0161104160999992012010217244+51517+007617FM-16+0148EDLW V0202901N006210045019N0050001N1+00601+00301999999ADDGA1071+004501999GF107991999999999999999999MA1101191999999MW1811OC101131REMMET078SPECI EDLW 021724Z 29012G22KT 250V310 5000 SHRA BKN015 06/03 Q1012 RMK ATIS B;
0143104160999992012010217504+51517+007617FM-15+0148EDLW V0202501N005710075019N0070001N1+00501+00301999999ADDGA1071+007501999GF107991999999999999999999MA1101291999999MW1801REMMET068METAR EDLW 021750Z 25011KT 7000 -SHRA BKN025 05/03 Q1013 RMK ATIS C;
0141104160999992012010218204+51517+007617FM-15+0148EDLW V0202401N006210075019N0112651N1+00501+00401999999ADDGA1071+007501999GF107991999999999999999999MA1101291999999MW1611REMMET066METAR EDLW 021820Z 24012KT 9999 -RA BKN025 05/04 Q1013 RMK ATIS D;
0142104160999992012010218504+51517+007617FM-15+0148EDLW V0202501N005710081019N0112651N1+00501+00301999999ADDGA1071+008101999GF107991999999999999999999MA1101291999999MW1161REMMET067METAR EDLW 021850Z 25011KT 9999 VCSH BKN027 05/03 Q1013 RMK ATIS E;
0131104160999992012010219204+51517+007617FM-15+0148EDLW V0202501N005110066019N0112651N1+00501+00301999999ADDGA1071+006601999GF107991999999999999999999MA1101391999999REMMET062METAR EDLW 021920Z 25010KT 9999 BKN022 05/03 Q1014 RMK ATIS F;
0131104160999992012010219504+51517+007617FM-15+0148EDLW V0202301N005712200019N0112651N1+00501+00301999999ADDGA1041+007801999GF104991999999999999999999MA1101391999999REMMET062METAR EDLW 021950Z 23011KT 9999 SCT026 05/03 Q1014 RMK ATIS G;
0083104160999992012010220204+51517+007617FM-15+0148EDLW V0202501N006219999999Y0099001N1+00501+00101999999ADDMA1101391999999REMMET056METAR EDLW 022020Z 25012KT CAVOK 05/01 Q1014 RMK ATIS H;
0072104160999992012010220504+51517+007617FM-15+0148EDLW V0202401N005719999999Y0099001N1+00501+00201999999ADDMA1101491999999REMMET045METAR EDLW 022050Z 24011KT CAVOK 05/02 Q1015;
0083104160999992012010304204+51517+007617FM-15+0148EDLW V0202001N007219999999Y0099001N1+00501+00101999999ADDMA1101491999999REMMET056METAR EDLW 030420Z 20014KT CAVOK 05/01 Q1015 RMK ATIS A;
0083104160999992012010304504+51517+007617FM-15+0148EDLW V0202001N008219999999Y0099001N1+00501+00101999999ADDMA1101491999999REMMET056METAR EDLW 030450Z 20016KT CAVOK 05/01 Q1015 RMK ATIS B;
0083104160999992012010305204+51517+007617FM-15+0148EDLW V0202001N009319999999Y0099001N1+00501+00101999999ADDMA1101491999999REMMET056METAR EDLW 030520Z 20018KT CAVOK 05/01 Q1015 RMK ATIS C;
0083104160999992012010305504+51517+007617FM-15+0148EDLW V0202001N009819999999Y0099001N1+00501+00101999999ADDMA1101391999999REMMET056METAR EDLW 030550Z 20019KT CAVOK 05/01 Q1014 RMK ATIS D;
0083104160999992012010306204+51517+007617FM-15+0148EDLW V0202001N009319999999Y0099001N1+00501+00101999999ADDMA1101291999999REMMET056METAR EDLW 030620Z 20018KT CAVOK 05/01 Q1013 RMK ATIS E;
0083104160999992012010306504+51517+007617FM-15+0148EDLW V0202001N009819999999Y0099001N1+00501+00101999999ADDMA1101291999999REMMET056METAR EDLW 030650Z 20019KT CAVOK 05/01 Q1013 RMK ATIS F;
0094104160999992012010307204+51517+007617FM-15+0148EDLW V0202001N010819999999Y0099001N1+00501+00101999999ADDMA1101191999999OC101651REMMET059METAR EDLW 030720Z 20021G32KT CAVOK 05/01 Q1012 RMK ATIS G;
0094104160999992012010307504+51517+007617FM-15+0148EDLW V0202001N010819999999Y0099001N1+00501+00101999999ADDMA1101191999999OC101591REMMET059METAR EDLW 030750Z 20021G31KT CAVOK 05/01 Q1012 RMK ATIS H;
0094104160999992012010308204+51517+007617FM-15+0148EDLW V0202001N010819999999Y0099001N1+00501+00101999999ADDMA1101081999999OC101651REMMET059METAR EDLW 030820Z 20021G32KT CAVOK 05/01 Q1011 RMK ATIS I;
0175104160999992012010308504+51517+007617FM-15+0148EDLW V0202001N011310150019N0112651N1+00501+00201999999ADDGA1021+006901999GA2071+015001999GF107991999999999999999999MA1101021999999MW1611OC101701REMMET076METAR EDLW 030850Z 20022G33KT 9999 -RA FEW023 BKN053 05/02 Q1010 RMK ATIS J;
0165104160999992012010309204+51517+007617FM-15+0148EDLW V0202001N011310150019N0112651N1+00601+00201999999ADDGA1021+006901999GA2071+015001999GF107991999999999999999999MA1100911999999OC101651REMMET072METAR EDLW 030920Z 20022G32KT 9999 FEW023 BKN052 06/02 Q1009 RMK ATIS K;
0165104160999992012010309504+51517+007617FM-15+0148EDLW V0201901N013410129019N0112651N1+00601+00301999999ADDGA1041+006301999GA2071+012901999GF107991999999999999999999MA1100811999999OC102011REMMET072METAR EDLW 030950Z 19026G39KT 9999 SCT021 BKN043 06/03 Q1008 RMK ATIS L;
0175104160999992012010310204+51517+007617FM-15+0148EDLW V0202001N012310105019N0080001N1+00601+00301999999ADDGA1041+004201999GA2071+010501999GF107991999999999999999999MA1100711999999MW1511OC101751REMMET076METAR EDLW 031020Z 20024G34KT 8000 -DZ SCT014 BKN035 06/03 Q1007 RMK ATIS M;
0152104160999992012010310504+51517+007617FM-15+0148EDLW V0202001N013910063019N0112651N1+00601+00301999999ADDGA1071+006301999GF107991999999999999999999MA1100611999999MW1511OC102011REMMET069METAR EDLW 031050Z 20027G39KT 9999 -DZ BKN021 06/03 Q1006 RMK ATIS N;
0152104160999992012010311204+51517+007617FM-15+0148EDLW V0202001N012910069019N0112651N1+00701+00301999999ADDGA1071+006901999GF107991999999999999999999MA1100611999999MW1511OC102161REMMET069METAR EDLW 031120Z 20025G42KT 9999 -DZ BKN023 07/03 Q1006 RMK ATIS O;
0142104160999992012010311504+51517+007617FM-15+0148EDLW V0202001N011810075019N0112651N1+00701+00301999999ADDGA1071+007501999GF107991999999999999999999MA1100511999999OC101851REMMET065METAR EDLW 031150Z 20023G36KT 9999 BKN025 07/03 Q1005 RMK ATIS P;
0142104160999992012010312204+51517+007617FM-15+0148EDLW V0202001N012910060019N0112651N1+00801+00401999999ADDGA1071+006001999GF107991999999999999999999MA1100411999999OC102061REMMET065METAR EDLW 031220Z 20025G40KT 9999 BKN020 08/04 Q1004 RMK ATIS Q;
0142104160999992012010312504+51517+007617FM-15+0148EDLW V0202001N012910090019N0112651N1+00801+00401999999ADDGA1071+009001999GF107991999999999999999999MA1100311999999OC101901REMMET065METAR EDLW 031250Z 20025G37KT 9999 BKN030 08/04 Q1003 RMK ATIS R;
0165104160999992012010313204+51517+007617FM-15+0148EDLW V0202001N012910090019N0112651N1+00801+00401999999ADDGA1021+003001999GA2071+009001999GF107991999999999999999999MA1100311999999OC102011REMMET072METAR EDLW 031320Z 20025G39KT 9999 FEW010 BKN030 08/04 Q1003 RMK ATIS S;
0165104160999992012010313504+51517+007617FM-15+0148EDLW V0202101N012910090019N0112651N1+00801+00401999999ADDGA1021+003001999GA2071+009001999GF107991999999999999999999MA1100311999999OC101901REMMET072METAR EDLW 031350Z 21025G37KT 9999 FEW010 BKN030 08/04 Q1003 RMK ATIS T;
0165104160999992012010314204+51517+007617FM-15+0148EDLW V0202101N013410105019N0112651N1+00801+00501999999ADDGA1021+003001999GA2071+010501999GF107991999999999999999999MA1100201999999OC102161REMMET072METAR EDLW 031420Z 21026G42KT 9999 FEW010 BKN035 08/05 Q1002 RMK ATIS U;
0165104160999992012010314504+51517+007617FM-15+0148EDLW V0202001N012310090019N0112651N1+00801+00501999999ADDGA1021+003001999GA2071+009001999GF107991999999999999999999MA1100101999999OC101851REMMET072METAR EDLW 031450Z 20024G36KT 9999 FEW010 BKN030 08/05 Q1001 RMK ATIS V;
0175104160999992012010315204+51517+007617FM-15+0148EDLW V0202001N012910090019N0090001N1+00801+00501999999ADDGA1041+003001999GA2071+009001999GF107991999999999999999999MA1100001999999MW1611OC101801REMMET076METAR EDLW 031520Z 20025G35KT 9000 -RA SCT010 BKN030 08/05 Q1000 RMK ATIS W;
0175104160999992012010315504+51517+007617FM-15+0148EDLW V0202001N011810075019N0070001N1+00901+00601999999ADDGA1041+003001999GA2071+007501999GF107991999999999999999999MA1100001999999MW1611OC101801REMMET076METAR EDLW 031550Z 20023G35KT 7000 -RA SCT010 BKN025 09/06 Q1000 RMK ATIS X;
0174104160999992012010316204+51517+007617FM-15+0148EDLW V0202101N011810075019N0070001N1+00901+00601999999ADDGA1041+003001999GA2071+007501999GF107991999999999999999999MA1099901999999MW1631OC101801REMMET075METAR EDLW 031620Z 21023G35KT 7000 RA SCT010 BKN025 09/06 Q0999 RMK ATIS Y;
0175104160999992012010317204+51517+007617FM-15+0148EDLW V0202101N012310060019N0090001N1+01001+00701999999ADDGA1041+003001999GA2071+006001999GF107991999999999999999999MA1099901999999MW1611OC101751REMMET076METAR EDLW 031720Z 21024G34KT 9000 -RA SCT010 BKN020 10/07 Q0999 RMK ATIS A;
0174104160999992012010317504+51517+007617FM-15+0148EDLW V0202301N014910060019N0090001N1+01101+00801999999ADDGA1041+003001999GA2071+006001999GF107991999999999999999999MA1099901999999MW1631OC102371REMMET075METAR EDLW 031750Z 23029G46KT 9000 RA SCT010 BKN020 11/08 Q0999 RMK ATIS B;
0159104160999992012010318244+51517+007617FM-16+0148EDLW V0202701N010810045019N0050001N1+00901+00601999999ADDGA1071+004501999GF107991999999999999999999MA1100201999999MW1631OC102061REMMET076SPECI EDLW 031824Z 27021G40KT 240V310 5000 RA BKN015 09/06 Q1002 RMK ATIS D;
0157104160999992012010318504+51517+007617FM-15+0148EDLW V0202701N009810135019N0112651N1+00901+00501999999ADDGA1071+013501999GF107991999999999999999999MA1100201999999MW1611OC101491REMMET074METAR EDLW 031850Z 27019G29KT 9999 -RA BKN045 09/05 Q1002 RERA RMK ATIS E;
0131104160999992012010319204+51517+007617FM-15+0148EDLW V0202501N007712200019N0112651N1+00801+00401999999ADDGA1041+013501999GF104991999999999999999999MA1100311999999REMMET062METAR EDLW 031920Z 25015KT 9999 SCT045 08/04 Q1003 RMK ATIS F;
0131104160999992012010319504+51517+007617FM-15+0148EDLW V0202501N007212200019N0112651N1+00901+00501999999ADDGA1041+009001999GF104991999999999999999999MA1100311999999REMMET062METAR EDLW 031950Z 25014KT 9999 SCT030 09/05 Q1003 RMK ATIS G;
0142104160999992012010319524+51517+007617FM-16+0148EDLW V0202401N009310090019N0112651N1+00901+00401999999ADDGA1071+009001999GF107991999999999999999999MA1100311999999OC101591REMMET065SPECI EDLW 031952Z 24018G31KT 9999 BKN030 09/04 Q1003 RMK ATIS H;
0142104160999992012010320204+51517+007617FM-15+0148EDLW V0202501N011310096019N0112651N1+00901+00301999999ADDGA1071+009601999GF107991999999999999999999MA1100411999999OC101651REMMET065METAR EDLW 032020Z 25022G32KT 9999 BKN032 09/03 Q1004 RMK ATIS I;
0142104160999992012010320504+51517+007617FM-15+0148EDLW V0202501N010810093019N0112651N1+00801+00301999999ADDGA1071+009301999GF107991999999999999999999MA1100411999999OC101591REMMET065METAR EDLW 032050Z 25021G31KT 9999 BKN031 08/03 Q1004 RMK ATIS J;
0131104160999992012010404204+51517+007617FM-15+0148EDLW V0202301N008212200019N0112651N1+00501+00001999999ADDGA1041+010501999GF104991999999999999999999MA1100611999999REMMET062METAR EDLW 040420Z 23016KT 9999 SCT035 05/00 Q1006 RMK ATIS A;
0131104160999992012010404504+51517+007617FM-15+0148EDLW V0202301N009312200019N0112651N1+00501+00101999999ADDGA1041+009001999GF104991999999999999999999MA1100611999999REMMET062METAR EDLW 040450Z 23018KT 9999 SCT030 05/01 Q1006 RMK ATIS B;
0151104160999992012010405204+51517+007617FM-15+0148EDLW V0202401N009810081019N0112651N1+00501+00101999999ADDGA1071+008101999GF107991999999999999999999MA1100611999999MW1631OC101541REMMET068METAR EDLW 040520Z 24019G30KT 9999 RA BKN027 05/01 Q1006 RMK ATIS C;
0180104160999992012010405504+51517+007617FM-15+0148EDLW V0202501N009812200019N0112651N1+00501+00201999999ADDGA1041+008401999GA2041+012601999GF104991999999999999999999MA1100711999999MW1611OC101541REMMET081METAR EDLW 040550Z 25019G30KT 9999 -RA SCT028 SCT042 05/02 Q1007 RERA RMK ATIS D;
0151104160999992012010406204+51517+007617FM-15+0148EDLW V0202501N009810063019N0070001N1+00501+00201999999ADDGA1071+006301999GF107991999999999999999999MA1100711999999MW1631OC101491REMMET068METAR EDLW 040620Z 25019G29KT 7000 RA BKN021 05/02 Q1007 RMK ATIS E;
0157104160999992012010406504+51517+007617FM-15+0148EDLW V0202501N009810081019N0112651N1+00401+00201999999ADDGA1071+008101999GF107991999999999999999999MA1100811999999MW1611OC101541REMMET074METAR EDLW 040650Z 25019G30KT 9999 -RA BKN027 04/02 Q1008 RERA RMK ATIS F;
0173104160999992012010407204+51517+007617FM-15+0148EDLW V0202601N007710180019N0112651N1+00501+00201999999ADDGA1041+004801999GA2071+018001999GF107991999999999999999999MA1100911999999OC101341REMMET080METAR EDLW 040720Z 26015G26KT 230V290 9999 SCT016 BKN061 05/02 Q1009 RMK ATIS G;
0131104160999992012010407504+51517+007617FM-15+0148EDLW V0202601N007210099019N0112651N1+00501+00201999999ADDGA1071+009901999GF107991999999999999999999MA1101021999999REMMET062METAR EDLW 040750Z 26014KT 9999 BKN033 05/02 Q1010 RMK ATIS H;
0141104160999992012010408204+51517+007617FM-15+0148EDLW V0202501N008710060019N0112651N1+00501+00201999999ADDGA1071+006001999GF107991999999999999999999MA1101081999999MW1611REMMET066METAR EDLW 040820Z 25017KT 9999 -RA BKN020 05/02 Q1011 RMK ATIS I;
0149104160999992012010408504+51517+007617FM-15+0148EDLW V0202601N006210039019N0080001N1+00501+00201999999ADDGA1071+003901999GF107991999999999999999999MA1101191999999MW1611REMMET074METAR EDLW 040850Z 26012KT 230V300 8000 -RA BKN013 05/02 Q1012 RMK ATIS J;
0164104160999992012010409014+51517+007617FM-16+0148EDLW V0202601N006710138019N0112651N1+00401+00301999999ADDGA1041+004201999GA2071+013801999GF107991999999999999999999MA1101191999999MW1611REMMET073SPECI EDLW 040901Z 26013KT 9999 -RA SCT014 BKN046 04/03 Q1012 RMK ATIS K;
0141104160999992012010409204+51517+007617FM-15+0148EDLW V0202601N006210054019N0112651N1+00401+00201999999ADDGA1071+005401999GF107991999999999999999999MA1101291999999MW1611REMMET066METAR EDLW 040920Z 26012KT 9999 -RA BKN018 04/02 Q1013 RMK ATIS L;
0154104160999992012010409504+51517+007617FM-15+0148EDLW V0202501N007210135019N0112651N1+00501+00201999999ADDGA1041+006001999GA2071+013501999GF107991999999999999999999MA1101291999999REMMET069METAR EDLW 040950Z 25014KT 9999 SCT020 BKN045 05/02 Q1013 RMK ATIS M;
0131104160999992012010410204+51517+007617FM-15+0148EDLW V0202601N007710060019N0112651N1+00501+00201999999ADDGA1071+006001999GF107991999999999999999999MA1101291999999REMMET062METAR EDLW 041020Z 26015KT 9999 BKN020 05/02 Q1013 RMK ATIS N;
0149104160999992012010410504+51517+007617FM-15+0148EDLW V0202501N007710063019N0112651N1+00501+00201999999ADDGA1071+006301999GF107991999999999999999999MA1101291999999MW1611REMMET074METAR EDLW 041050Z 25015KT 220V280 9999 -RA BKN021 05/02 Q1013 RMK ATIS O;
0162104160999992012010411204+51517+007617FM-15+0148EDLW V0202601N007710120019N0112651N1+00601+00101999999ADDGA1041+008401999GA2071+012001999GF107991999999999999999999MA1101391999999REMMET077METAR EDLW 041120Z 26015KT 230V300 9999 SCT028 BKN040 06/01 Q1014 RMK ATIS P;
0173104160999992012010411504+51517+007617FM-15+0148EDLW V0202601N007210180019N0112651N1+00601+00201999999ADDGA1041+008401999GA2071+018001999GF107991999999999999999999MA1101391999999OC101291REMMET080METAR EDLW 041150Z 26014G25KT 230V290 9999 SCT028 BKN060 06/02 Q1014 RMK ATIS Q;
0165104160999992012010412204+51517+007617FM-15+0148EDLW V0202501N008210150019N0112651N1+00601+00201999999ADDGA1021+007501999GA2071+015001999GF107991999999999999999999MA1101391999999OC101391REMMET072METAR EDLW 041220Z 25016G27KT 9999 FEW025 BKN051 06/02 Q1014 RMK ATIS R;
0131104160999992012010412504+51517+007617FM-15+0148EDLW V0202501N008710096019N0112651N1+00601+00101999999ADDGA1071+009601999GF107991999999999999999999MA1101391999999REMMET062METAR EDLW 041250Z 25017KT 9999 BKN032 06/01 Q1014 RMK ATIS S;
0131104160999992012010413204+51517+007617FM-15+0148EDLW V0202501N008210081019N0112651N1+00601+00101999999ADDGA1071+008101999GF107991999999999999999999MA1101391999999REMMET062METAR EDLW 041320Z 25016KT 9999 BKN027 06/01 Q1014 RMK ATIS T;
0131104160999992012010413504+51517+007617FM-15+0148EDLW V0202501N008210090019N0112651N1+00601+00101999999ADDGA1071+009001999GF107991999999999999999999MA1101391999999REMMET062METAR EDLW 041350Z 25016KT 9999 BKN030 06/01 Q1014 RMK ATIS U;
0131104160999992012010414204+51517+007617FM-15+0148EDLW V0202401N009812200019N0112651N1+00601+00101999999ADDGA1041+007501999GF104991999999999999999999MA1101391999999REMMET062METAR EDLW 041420Z 24019KT 9999 SCT025 06/01 Q1014 RMK ATIS V;
0154104160999992012010414504+51517+007617FM-15+0148EDLW V0202401N009310150019N0112651N1+00601+00101999999ADDGA1021+007501999GA2071+015001999GF107991999999999999999999MA1101391999999REMMET069METAR EDLW 041450Z 24018KT 9999 FEW025 BKN054 06/01 Q1014 RMK ATIS W;
0142104160999992012010415204+51517+007617FM-15+0148EDLW V0202401N008710084019N0112651N1+00601+00201999999ADDGA1071+008401999GF107991999999999999999999MA1101391999999OC101391REMMET065METAR EDLW 041520Z 24017G27KT 9999 BKN028 06/02 Q1014 RMK ATIS X;
0083104160999992012010415504+51517+007617FM-15+0148EDLW V0202401N009819999999Y0099001N1+00601+00101999999ADDMA1101391999999REMMET056METAR EDLW 041550Z 24019KT CAVOK 06/01 Q1014 RMK ATIS Y;
0154104160999992012010416204+51517+007617FM-15+0148EDLW V0202301N010310150019N0112651N1+00601+00101999999ADDGA1041+009001999GA2071+015001999GF107991999999999999999999MA1101391999999REMMET069METAR EDLW 041620Z 23020KT 9999 SCT030 BKN050 06/01 Q1014 RMK ATIS Z;
0131104160999992012010416504+51517+007617FM-15+0148EDLW V0202301N010810126019N0112651N1+00601+00101999999ADDGA1071+012601999GF107991999999999999999999MA1101291999999REMMET062METAR EDLW 041650Z 23021KT 9999 BKN042 06/01 Q1013 RMK ATIS A;
0131104160999992012010417204+51517+007617FM-15+0148EDLW V0202301N009810144019N0112651N1+00601+00101999999ADDGA1071+014401999GF107991999999999999999999MA1101291999999REMMET062METAR EDLW 041720Z 23019KT 9999 BKN048 06/01 Q1013 RMK ATIS B;
0131104160999992012010417504+51517+007617FM-15+0148EDLW V0202301N010810129019N0112651N1+00601+00101999999ADDGA1071+012901999GF107991999999999999999999MA1101191999999REMMET062METAR EDLW 041750Z 23021KT 9999 BKN043 06/01 Q1012 RMK ATIS C;
0165104160999992012010418204+51517+007617FM-15+0148EDLW V0202301N010310150019N0112651N1+00601+00201999999ADDGA1041+007501999GA2071+015001999GF107991999999999999999999MA1101191999999OC101541REMMET072METAR EDLW 041820Z 23020G30KT 9999 SCT025 BKN052 06/02 Q1012 RMK ATIS D;
0131104160999992012010418504+51517+007617FM-15+0148EDLW V0202401N009810084019N0112651N1+00601+00101999999ADDGA1071+008401999GF107991999999999999999999MA1101081999999REMMET062METAR EDLW 041850Z 24019KT 9999 BKN028 06/01 Q1011 RMK ATIS E;
0154104160999992012010419204+51517+007617FM-15+0148EDLW V0202301N011810075019N0112651N1+00601+00201999999ADDGA1071+007501999GF107991999999999999999999MA1101021999999MW1801OC101751REMMET071METAR EDLW 041920Z 23023G34KT 9999 -SHRA BKN025 06/02 Q1010 RMK ATIS F;
0141104160999992012010419504+51517+007617FM-15+0148EDLW V0202301N011310063019N0112651N1+00601+00201999999ADDGA1071+006301999GF107991999999999999999999MA1100911999999MW1611REMMET066METAR EDLW 041950Z 23022KT 9999 -RA BKN021 06/02 Q1009 RMK ATIS G;
0152104160999992012010420204+51517+007617FM-15+0148EDLW V0202301N012310066019N0112651N1+00701+00201999999ADDGA1071+006601999GF107991999999999999999999MA1100811999999MW1611OC101851REMMET069METAR EDLW 042020Z 23024G36KT 9999 -RA BKN022 07/02 Q1008 RMK ATIS H;
0131104160999992012010420504+51517+007617FM-15+0148EDLW V0202301N011810060019N0112651N1+00601+00301999999ADDGA1071+006001999GF107991999999999999999999MA1100711999999REMMET062METAR EDLW 042050Z 23023KT 9999 BKN020 06/03 Q1007 RMK ATIS I;
0141104160999992012010421204+51517+007617FM-15+0148EDLW V0202201N012310057019N0112651N1+00601+00301999999ADDGA1071+005701999GF107991999999999999999999MA1100511999999MW1611REMMET066METAR EDLW 042120Z 22024KT 9999 -RA BKN019 06/03 Q1005 RMK ATIS J;
0152104160999992012010504504+51517+007617FM-15+0148EDLW V0202501N014910030019N0060001N1+00801+00601999999ADDGA1071+003001999GF107991999999999999999999MA1098981999999MW1611OC102061REMMET069METAR EDLW 050450Z 25029G40KT 6000 -RA BKN010 08/06 Q0990 RMK ATIS B;
0152104160999992012010505204+51517+007617FM-15+0148EDLW V0202501N013410033019N0060001N1+00801+00601999999ADDGA1071+003301999GF107991999999999999999999MA1098921999999MW1611OC102111REMMET069METAR EDLW 050520Z 25026G41KT 6000 -RA BKN011 08/06 Q0989 RMK ATIS C;
0151104160999992012010505504+51517+007617FM-15+0148EDLW V0202501N011810030019N0060001N1+00801+00601999999ADDGA1071+003001999GF107991999999999999999999MA1098921999999MW1631OC101751REMMET068METAR EDLW 050550Z 25023G34KT 6000 RA BKN010 08/06 Q0989 RMK ATIS D;
0165104160999992012010506204+51517+007617FM-15+0148EDLW V0202401N013910054019N0112651N1+00801+00601999999ADDGA1071+005401091GF107991999999999999999999MA1098711999999MW1171MW2611OC102061REMMET076METAR EDLW 050620Z 24027G40KT 9999 -RA VCTS BKN018CB 08/06 Q0987 RMK ATIS E;
0192104160999992012010506244+51517+007617FM-16+0148EDLW V0203101N011310003019N0030001N1+00801+00601999999ADDGA1071+000301091GF107991999999999999999999MA1098921999999MW1171MW2651OC101651REMMET084SPECI EDLW 050624Z 31022G32KT 280V350 3000 +RASN TS BKN001CB 08/06 Q0989 RMK ATIS F;EQDQ01+000752PRSWM2
0173104160999992012010506504+51517+007617FM-15+0148EDLW V0202901N007710024019N0080001N1+00101+00101999999ADDGA1071+002401091GF107991999999999999999999MA1098981999999MW1171MW2611OC101391REMMET084METAR EDLW 050650Z 29015G27KT 260V320 8000 -RA VCTS BKN008CB 01/01 Q0990 RMK ATIS G;
0160104160999992012010507204+51517+007617FM-15+0148EDLW V0202701N004112200019N0050001N1+00301+00201999999ADDGA1041+006301999GF104991999999999999999999MA1098921999999MW1171MW2611REMMET079METAR EDLW 050720Z 27008KT 240V300 5000 -RA VCTS SCT021 03/02 Q0989 RMK ATIS H;
0160104160999992012010507504+51517+007617FM-15+0148EDLW V0202701N007210054019N0080001N1+00401+00401999999ADDGA1071+005401999GF107991999999999999999999MA1098921999999MW1611OC101291REMMET077METAR EDLW 050750Z 27014G25KT 240V310 8000 -RA BKN018 04/04 Q0989 RMK ATIS I;
0142104160999992012010508204+51517+007617FM-15+0148EDLW V0202601N009310093019N0112651N1+00501+00301999999ADDGA1071+009301999GF107991999999999999999999MA1098711999999OC101591REMMET065METAR EDLW 050820Z 26018G31KT 9999 BKN031 05/03 Q0987 RMK ATIS J;
0131104160999992012010508504+51517+007617FM-15+0148EDLW V0202601N008210096019N0112651N1+00601+00301999999ADDGA1071+009601999GF107991999999999999999999MA1098711999999REMMET062METAR EDLW 050850Z 26016KT 9999 BKN032 06/03 Q0987 RMK ATIS K;
0131104160999992012010509204+51517+007617FM-15+0148EDLW V0202501N008210078019N0112651N1+00601+00401999999ADDGA1071+007801999GF107991999999999999999999MA1098711999999REMMET062METAR EDLW 050920Z 25016KT 9999 BKN026 06/04 Q0987 RMK ATIS L;
0139104160999992012010509504+51517+007617FM-15+0148EDLW V0202601N008210060019N0112651N1+00701+00401999999ADDGA1071+006001999GF107991999999999999999999MA1098711999999REMMET070METAR EDLW 050950Z 26016KT 230V290 9999 BKN020 07/04 Q0987 RMK ATIS M;
0150104160999992012010510204+51517+007617FM-15+0148EDLW V0202801N009310075019N0112651N1+00701+00301999999ADDGA1071+007501999GF107991999999999999999999MA1098611999999OC101751REMMET073METAR EDLW 051020Z 28018G34KT 240V300 9999 BKN025 07/03 Q0986 RMK ATIS N;
0139104160999992012010510504+51517+007617FM-15+0148EDLW V0202701N007710075019N0112651N1+00701+00301999999ADDGA1071+007501999GF107991999999999999999999MA1098711999999REMMET070METAR EDLW 051050Z 27015KT 240V330 9999 BKN025 07/03 Q0987 RMK ATIS O;
0150104160999992012010511204+51517+007617FM-15+0148EDLW V0202801N009810087019N0112651N1+00801+00301999999ADDGA1071+008701999GF107991999999999999999999MA1098611999999OC101541REMMET073METAR EDLW 051120Z 28019G30KT 250V310 9999 BKN029 08/03 Q0986 RMK ATIS P;
0164104160999992012010511424+51517+007617FM-16+0148EDLW V0202801N009310075019N0050001N1+00701+00201999999ADDGA1071+007501091GF107991999999999999999999MA1098711999999MW1821OC101701REMMET081SPECI EDLW 051142Z 28018G33KT 240V320 5000 +SHRA BKN025CB 07/02 Q0987 RMK ATIS Q;
0150104160999992012010512204+51517+007617FM-15+0148EDLW V0202901N007712200019N0112651N1+00601+00301999999ADDGA1041+012001999GF104991999999999999999999MA1098711999999OC101341REMMET073METAR EDLW 051220Z 29015G26KT 260V330 9999 SCT040 06/03 Q0987 RMK ATIS S;
0150104160999992012010512504+51517+007617FM-15+0148EDLW V0202801N009812200019N0112651N1+00701+00101999999ADDGA1041+009001999GF104991999999999999999999MA1098711999999OC101751REMMET073METAR EDLW 051250Z 28019G34KT 260V320 9999 SCT030 07/01 Q0987 RMK ATIS T;
0161104160999992012010513204+51517+007617FM-15+0148EDLW V0202901N007710090019N0112651N1+00601+00201999999ADDGA1071+009001999GF107991999999999999999999MA1098821999999MW1161OC101341REMMET078METAR EDLW 051320Z 29015G26KT 250V310 9999 VCSH BKN030 06/02 Q0988 RMK ATIS U;
0160104160999992012010513504+51517+007617FM-15+0148EDLW V0203001N006710090019N0112651N1+00701+00201999999ADDGA1071+009001999GF107991999999999999999999MA1098921999999MW1611OC101231REMMET077METAR EDLW 051350Z 30013G24KT 260V330 9999 -RA BKN030 07/02 Q0989 RMK ATIS V;
0160104160999992012010514204+51517+007617FM-15+0148EDLW V0202801N008210075019N0112651N1+00601+00201999999ADDGA1071+007501999GF107991999999999999999999MA1098921999999MW1611OC101491REMMET077METAR EDLW 051420Z 28016G29KT 240V320 9999 -RA BKN025 06/02 Q0989 RMK ATIS W;
0150104160999992012010514504+51517+007617FM-15+0148EDLW V0202801N008710084019N0112651N1+00601+00201999999ADDGA1071+008401999GF107991999999999999999999MA1098921999999MW1161OC101491REMMET067METAR EDLW 051450Z 28017G29KT 240V310 9999 VCSH BKN028 06/02 Q0989;
0149104160999992012010515504+51517+007617FM-15+0148EDLW V0202801N006710075019N0080001N1+00401+00201999999ADDGA1071+007501999GF107991999999999999999999MA1099091999999MW1611REMMET074METAR EDLW 051550Z 28013KT 250V330 8000 -RA BKN025 04/02 Q0991 RMK ATIS Z;
0150104160999992012010516204+51517+007617FM-15+0148EDLW V0202701N007212200019N0112651N1+00401+00201999999ADDGA1041+006001999GF104991999999999999999999MA1099191999999MW1161REMMET075METAR EDLW 051620Z 27014KT 240V310 9999 VCSH SCT020 04/02 Q0992 RMK ATIS A;
0161104160999992012010516504+51517+007617FM-15+0148EDLW V0202801N007210060019N0112651N1+00501+00201999999ADDGA1071+006001999GF107991999999999999999999MA1099291999999MW1161OC101231REMMET078METAR EDLW 051650Z 28014G24KT 250V320 9999 VCSH BKN020 05/02 Q0993 RMK ATIS B;
0162104160999992012010517204+51517+007617FM-15+0148EDLW V0202801N006210057019N0112651N1+00501+00201999999ADDGA1071+005701999GF107991999999999999999999MA1099391999999MW1801OC101131REMMET079METAR EDLW 051720Z 28012G22KT 240V320 9999 -SHRA BKN019 05/02 Q0994 RMK ATIS C;
0139104160999992012010517504+51517+007617FM-15+0148EDLW V0202801N005710060019N0112651N1+00401+00201999999ADDGA1071+006001999GF107991999999999999999999MA1099391999999REMMET070METAR EDLW 051750Z 28011KT 250V310 9999 BKN020 04/02 Q0994 RMK ATIS D;
0150104160999992012010518204+51517+007617FM-15+0148EDLW V0202701N006210090019N0112651N1+00401+00201999999ADDGA1071+009001999GF107991999999999999999999MA1099491999999OC101131REMMET073METAR EDLW 051820Z 27012G22KT 250V310 9999 BKN030 04/02 Q0995 RMK ATIS E;
0139104160999992012010518504+51517+007617FM-15+0148EDLW V0202701N006712200019N0112651N1+00401+00101999999ADDGA1041+009001999GF104991999999999999999999MA1099591999999REMMET070METAR EDLW 051850Z 27013KT 240V300 9999 SCT030 04/01 Q0996 RMK ATIS F;
0139104160999992012010519204+51517+007617FM-15+0148EDLW V0202801N005712200019N0112651N1+00401+00201999999ADDGA1041+009001999GF104991999999999999999999MA1099701999999REMMET070METAR EDLW 051920Z 28011KT 250V320 9999 SCT030 04/02 Q0997 RMK ATIS G;
0139104160999992012010519504+51517+007617FM-15+0148EDLW V0202901N006712200019N0112651N1+00401+00101999999ADDGA1041+009001999GF104991999999999999999999MA1099701999999REMMET070METAR EDLW 051950Z 29013KT 260V320 9999 SCT030 04/01 Q0997 RMK ATIS H;
0160104160999992012010520204+51517+007617FM-15+0148EDLW V0202901N006212200019N0112651N1+00401+00101999999ADDGA1041+009001999GF104991999999999999999999MA1099801999999MW1511OC101441REMMET077METAR EDLW 052020Z 29012G28KT 260V330 9999 -DZ SCT030 04/01 Q0998 RMK ATIS I;
0150104160999992012010520504+51517+007617FM-15+0148EDLW V0202901N006712200019N0112651N1+00401+00001999999ADDGA1041+009301999GF104991999999999999999999MA1099901999999OC101181REMMET073METAR EDLW 052050Z 29013G23KT 260V320 9999 SCT031 04/00 Q0999 RMK ATIS J;
0131104160999992012010604204+51517+007617FM-15+0148EDLW V0202701N006712200019N0112651N1+00401+00201999999ADDGA1041+005401999GF104991999999999999999999MA1100611999999REMMET062METAR EDLW 060420Z 27013KT 9999 SCT018 04/02 Q1006 RMK ATIS A;
0139104160999992012010604504+51517+007617FM-15+0148EDLW V0202801N005110048019N0112651N1+00401+00201999999ADDGA1071+004801999GF107991999999999999999999MA1100711999999REMMET070METAR EDLW 060450Z 28010KT 250V340 9999 BKN016 04/02 Q1007 RMK ATIS B;
0139104160999992012010605204+51517+007617FM-15+0148EDLW V0202801N005710057019N0112651N1+00501+00201999999ADDGA1071+005701999GF107991999999999999999999MA1100711999999REMMET070METAR EDLW 060520Z 28011KT 250V320 9999 BKN019 05/02 Q1007 RMK ATIS C;
0150104160999992012010605504+51517+007617FM-15+0148EDLW V0203001N007210120019N0112651N1+00501+00201999999ADDGA1071+012001999GF107991999999999999999999MA1100811999999OC101341REMMET073METAR EDLW 060550Z 30014G26KT 260V330 9999 BKN040 05/02 Q1008 RMK ATIS D;
0162104160999992012010606204+51517+007617FM-15+0148EDLW V0202901N006710120019N0112651N1+00501+00201999999ADDGA1041+004201999GA2071+012001999GF107991999999999999999999MA1100911999999REMMET077METAR EDLW 060620Z 29013KT 260V320 9999 SCT014 BKN040 05/02 Q1009 RMK ATIS E;
0150104160999992012010606504+51517+007617FM-15+0148EDLW V0203001N006710081019N0112651N1+00501+00201999999ADDGA1071+008101999GF107991999999999999999999MA1100911999999OC101341REMMET073METAR EDLW 060650Z 30013G26KT 270V340 9999 BKN027 05/02 Q1009 RMK ATIS F;
0139104160999992012010607204+51517+007617FM-15+0148EDLW V0202901N005710054019N0112651N1+00501+00201999999ADDGA1071+005401999GF107991999999999999999999MA1101021999999REMMET070METAR EDLW 060720Z 29011KT 250V320 9999 BKN018 05/02 Q1010 RMK ATIS G;
0150104160999992012010607504+51517+007617FM-15+0148EDLW V0203101N006212200019N0112651N1+00501+00201999999ADDGA1041+011101999GF104991999999999999999999MA1101081999999OC101131REMMET073METAR EDLW 060750Z 31012G22KT 260V330 9999 SCT037 05/02 Q1011 RMK ATIS H;
0151104160999992012010608204+51517+007617FM-15+0148EDLW V0202901N005112200019N0112651N1+00501+00201999999ADDGA1041+005101999GF104991999999999999999999MA1101191999999MW1801REMMET076METAR EDLW 060820Z 29010KT 260V320 9999 -SHRA SCT017 05/02 Q1012 RMK ATIS I;
0162104160999992012010608504+51517+007617FM-15+0148EDLW V0202901N005112200019N0112651N1+00501+00201999999ADDGA1021+006001999GA2041+009601999GF104991999999999999999999MA1101291999999REMMET077METAR EDLW 060850Z 29010KT 250V330 9999 FEW020 SCT032 05/02 Q1013 RMK ATIS J;
0139104160999992012010609204+51517+007617FM-15+0148EDLW V0203001N005110123019N0112651N1+00501+00201999999ADDGA1071+012301999GF107991999999999999999999MA1101291999999REMMET070METAR EDLW 060920Z 30010KT 260V320 9999 BKN041 05/02 Q1013 RMK ATIS K;
0139104160999992012010609504+51517+007617FM-15+0148EDLW V0202901N004610057019N0112651N1+00501+00301999999ADDGA1071+005701999GF107991999999999999999999MA1101391999999REMMET070METAR EDLW 060950Z 29009KT 260V320 9999 BKN019 05/03 Q1014 RMK ATIS L;
0149104160999992012010610204+51517+007617FM-15+0148EDLW V0203101N004610060019N0070001N1+00501+00301999999ADDGA1071+006001999GF107991999999999999999999MA1101491999999MW1611REMMET074METAR EDLW 061020Z 31009KT 260V340 7000 -RA BKN020 05/03 Q1015 RMK ATIS M;
0151104160999992012010610504+51517+007617FM-15+0148EDLW V0203201N004110054019N0112651N1+00501+00401999999ADDGA1071+005401999GF107991999999999999999999MA1101491999999MW1801REMMET076METAR EDLW 061050Z 32008KT 270V020 9999 -SHRA BKN018 05/04 Q1015 RMK ATIS N;
0139104160999992012010611204+51517+007617FM-15+0148EDLW V0203001N004112200019N0112651N1+00601+00301999999ADDGA1041+006001999GF104991999999999999999999MA1101591999999REMMET070METAR EDLW 061120Z 30008KT 270V330 9999 SCT020 06/03 Q1016 RMK ATIS O;
0150104160999992012010612204+51517+007617FM-15+0148EDLW V0203001N004110063019N0112651N1+00601+00301999999ADDGA1071+006301999GF107991999999999999999999MA1101591999999MW1161REMMET075METAR EDLW 061220Z 30008KT 260V330 9999 VCSH BKN021 06/03 Q1016 RMK ATIS Q;
0150104160999992012010612504+51517+007617FM-15+0148EDLW V0203001N005712200019N0112651N1+00701+00301999999ADDGA1041+006001999GF104991999999999999999999MA1101691999999OC101081REMMET073METAR EDLW 061250Z 30011G21KT 270V330 9999 SCT020 07/03 Q1017 RMK ATIS R;
0162104160999992012010613204+51517+007617FM-15+0148EDLW V0203001N005112200019N0112651N1+00601+00301999999ADDGA1021+006901999GA2041+014401999GF104991999999999999999999MA1101691999999REMMET077METAR EDLW 061320Z 30010KT 260V330 9999 FEW023 SCT048 06/03 Q1017 RMK ATIS S;
0151104160999992012010613504+51517+007617FM-15+0148EDLW V0203001N005112200019N0112651N1+00701+00301999999ADDGA1041+008701999GF104991999999999999999999MA1101801999999MW1801REMMET076METAR EDLW 061350Z 30010KT 260V330 9999 -SHRA SCT029 07/03 Q1018 RMK ATIS T;
0139104160999992012010614204+51517+007617FM-15+0148EDLW V0203101N003110078019N0112651N1+00701+00301999999ADDGA1071+007801999GF107991999999999999999999MA1101801999999REMMET070METAR EDLW 061420Z 31006KT 270V360 9999 BKN026 07/03 Q1018 RMK ATIS U;
0161104160999992012010614284+51517+007617FM-16+0148EDLW V0203301N006210084019N0060001N1+00601+00101999999ADDGA1071+008401999GF107991999999999999999999MA1101801999999MW1811OC101291REMMET078SPECI EDLW 061428Z 33012G25KT 270V030 6000 SHRA BKN028 06/01 Q1018 RMK ATIS V;
0139104160999992012010615204+51517+007617FM-15+0148EDLW V0202901N003112200019N0112651N1+00401+00301999999ADDGA1041+012001999GF104991999999999999999999MA1101901999999REMMET070METAR EDLW 061520Z 29006KT 240V340 9999 SCT040 04/03 Q1019 RMK ATIS X;
0139104160999992012010615504+51517+007617FM-15+0148EDLW V0202801N003112200019N0112651N1+00501+00301999999ADDGA1041+013801999GF104991999999999999999999MA1101901999999REMMET070METAR EDLW 061550Z 28006KT 250V310 9999 SCT046 05/03 Q1019 RMK ATIS Y;
0150104160999992012010616204+51517+007617FM-15+0148EDLW V0203201N004110057019N0080001N1+00601+00301999999ADDGA1071+005701999GF107991999999999999999999MA1101901999999MW1811REMMET075METAR EDLW 061620Z 32008KT 250V020 8000 SHRA BKN019 06/03 Q1019 RMK ATIS Z;
0139104160999992012010616504+51517+007617FM-15+0148EDLW V0202901N002612200019N0112651N1+00501+00301999999ADDGA1041+006601999GF104991999999999999999999MA1102001999999REMMET070METAR EDLW 061650Z 29005KT 260V330 9999 SCT022 05/03 Q1020 RMK ATIS A;
0162104160999992012010617204+51517+007617FM-15+0148EDLW V0202601N003612200019N0112651N1+00501+00201999999ADDGA1021+006001999GA2041+014701999GF104991999999999999999999MA1102001999999REMMET077METAR EDLW 061720Z 26007KT 230V290 9999 FEW020 SCT049 05/02 Q1020 RMK ATIS B;
0139104160999992012010617504+51517+007617FM-15+0148EDLW V0202701N003612200019N0112651N1+00501+00201999999ADDGA1041+013801999GF104991999999999999999999MA1102001999999REMMET070METAR EDLW 061750Z 27007KT 240V320 9999 SCT046 05/02 Q1020 RMK ATIS C;
0162104160999992012010618204+51517+007617FM-15+0148EDLW V0202501N003110135019N0112651N1+00501+00201999999ADDGA1021+006001999GA2071+013501999GF107991999999999999999999MA1102001999999REMMET077METAR EDLW 061820Z 25006KT 230V290 9999 FEW020 BKN045 05/02 Q1020 RMK ATIS D;
0143104160999992012010618504+51517+007617FM-15+0148EDLW V0202601N003610045019N0090001N1+00501+00201999999ADDGA1071+004501999GF107991999999999999999999MA1102101999999MW1801REMMET068METAR EDLW 061850Z 26007KT 9000 -SHRA BKN015 05/02 Q1021 RMK ATIS E;
0150104160999992012010619204+51517+007617FM-15+0148EDLW V0202401N004110045019N0112651N1+00501+00301999999ADDGA1071+004501999GF107991999999999999999999MA1102101999999MW1161REMMET075METAR EDLW 061920Z 24008KT 210V270 9999 VCSH BKN015 05/03 Q1021 RMK ATIS F;
0139104160999992012010619504+51517+007617FM-15+0148EDLW V0202501N003610033019N0112651N1+00501+00301999999ADDGA1071+003301999GF107991999999999999999999MA1102101999999REMMET070METAR EDLW 061950Z 25007KT 220V280 9999 BKN011 05/03 Q1021 RMK ATIS G;
0131104160999992012010620204+51517+007617FM-15+0148EDLW V0202401N005110033019N0112651N1+00501+00301999999ADDGA1071+003301999GF107991999999999999999999MA1102101999999REMMET062METAR EDLW 062020Z 24010KT 9999 BKN011 05/03 Q1021 RMK ATIS H;
0131104160999992012010620504+51517+007617FM-15+0148EDLW V0202501N004110120019N0112651N1+00501+00301999999ADDGA1071+012001999GF107991999999999999999999MA1102101999999REMMET062METAR EDLW 062050Z 25008KT 9999 BKN040 05/03 Q1021 RMK ATIS I;
0149104160999992012010704204+51517+007617FM-15+0148EDLW V0202201N008710030019N0080001N1+00401+00301999999ADDGA1071+003001999GF107991999999999999999999MA1101391999999MW1511MW2611REMMET068METAR EDLW 070420Z 22017KT 8000 -RADZ BKN010 04/03 Q1014 RMK ATIS A;
0141104160999992012010704504+51517+007617FM-15+0148EDLW V0202201N008710030019N0080001N1+00501+00301999999ADDGA1081+003001999GF108991999999999999999999MA1101291999999MW1511REMMET066METAR EDLW 070450Z 22017KT 8000 -DZ OVC010 05/03 Q1013 RMK ATIS B;
0140104160999992012010705204+51517+007617FM-15+0148EDLW V0202201N008210027019N0050001N1+00501+00401999999ADDGA1081+002701999GF108991999999999999999999MA1101291999999MW1531REMMET065METAR EDLW 070520Z 22016KT 5000 DZ OVC009 05/04 Q1013 RMK ATIS C;
0140104160999992012010705504+51517+007617FM-15+0148EDLW V0202201N007710024019N0060001N1+00501+00401999999ADDGA1081+002401999GF108991999999999999999999MA1101191999999MW1531REMMET065METAR EDLW 070550Z 22015KT 6000 DZ OVC008 05/04 Q1012 RMK ATIS D;
0140104160999992012010706204+51517+007617FM-15+0148EDLW V0202201N008710024019N0060001N1+00601+00501999999ADDGA1081+002401999GF108991999999999999999999MA1101191999999MW1531REMMET065METAR EDLW 070620Z 22017KT 6000 DZ OVC008 06/05 Q1012 RMK ATIS E;
0140104160999992012010707504+51517+007617FM-15+0148EDLW V0202401N008710024019N0080001N1+00701+00601999999ADDGA1081+002401999GF108991999999999999999999MA1101081999999MW1531REMMET065METAR EDLW 070750Z 24017KT 8000 DZ OVC008 07/06 Q1011 RMK ATIS H;
0141104160999992012010708204+51517+007617FM-15+0148EDLW V0202401N008210024019N0090001N1+00701+00601999999ADDGA1081+002401999GF108991999999999999999999MA1101081999999MW1511REMMET066METAR EDLW 070820Z 24016KT 9000 -DZ OVC008 07/06 Q1011 RMK ATIS I;
0141104160999992012010708504+51517+007617FM-15+0148EDLW V0202501N007710024019N0090001N1+00701+00601999999ADDGA1071+002401999GF107991999999999999999999MA1101081999999MW1511REMMET066METAR EDLW 070850Z 25015KT 9000 -DZ BKN008 07/06 Q1011 RMK ATIS J;
0140104160999992012010709204+51517+007617FM-15+0148EDLW V0202601N006710024019N0060001N1+00701+00601999999ADDGA1071+002401999GF107991999999999999999999MA1101081999999MW1531REMMET065METAR EDLW 070920Z 26013KT 6000 DZ BKN008 07/06 Q1011 RMK ATIS K;
0139104160999992012010709504+51517+007617FM-15+0148EDLW V0202701N006710036019N0112651N1+00801+00601999999ADDGA1071+003601999GF107991999999999999999999MA1101191999999REMMET070METAR EDLW 070950Z 27013KT 230V310 9999 BKN012 08/06 Q1012 RMK ATIS L;
0139104160999992012010710204+51517+007617FM-15+0148EDLW V0202801N005710060019N0112651N1+00801+00501999999ADDGA1071+006001999GF107991999999999999999999MA1101191999999REMMET070METAR EDLW 071020Z 28011KT 240V310 9999 BKN020 08/05 Q1012 RMK ATIS M;
0139104160999992012010710504+51517+007617FM-15+0148EDLW V0202701N006210051019N0112651N1+00801+00501999999ADDGA1071+005101999GF107991999999999999999999MA1101191999999REMMET070METAR EDLW 071050Z 27012KT 240V310 9999 BKN017 08/05 Q1012 RMK ATIS N;
0150104160999992012010711204+51517+007617FM-15+0148EDLW V0202701N005710057019N0112651N1+00701+00501999999ADDGA1071+005701999GF107991999999999999999999MA1101191999999OC101081REMMET073METAR EDLW 071120Z 27011G21KT 240V300 9999 BKN019 07/05 Q1012 RMK ATIS O;
0139104160999992012010711504+51517+007617FM-15+0148EDLW V0202701N006710054019N0112651N1+00701+00401999999ADDGA1071+005401999GF107991999999999999999999MA1101191999999REMMET070METAR EDLW 071150Z 27013KT 240V300 9999 BKN018 07/04 Q1012 RMK ATIS P;
0148104160999992012010712204+51517+007617FM-15+0148EDLW V0202701N006210057019N0080001N1+00701+00401999999ADDGA1071+005701999GF107991999999999999999999MA1101191999999MW1531REMMET073METAR EDLW 071220Z 27012KT 240V310 8000 DZ BKN019 07/04 Q1012 RMK ATIS Q;
0150104160999992012010712504+51517+007617FM-15+0148EDLW V0202701N005710060019N0112651N1+00701+00401999999ADDGA1071+006001999GF107991999999999999999999MA1101191999999MW1161REMMET075METAR EDLW 071250Z 27011KT 240V300 9999 VCSH BKN020 07/04 Q1012 RMK ATIS R;
0150104160999992012010713204+51517+007617FM-15+0148EDLW V0202801N005712200019N0112651N1+00701+00401999999ADDGA1041+005401999GF104991999999999999999999MA1101191999999MW1161REMMET075METAR EDLW 071320Z 28011KT 240V320 9999 VCSH SCT018 07/04 Q1012 RMK ATIS S;
0151104160999992012010713504+51517+007617FM-15+0148EDLW V0202801N006212200019N0112651N1+00601+00401999999ADDGA1021+006001999GF102991999999999999999999MA1101191999999MW1801REMMET076METAR EDLW 071350Z 28012KT 240V320 9999 -SHRA FEW020 06/04 Q1012 RMK ATIS T;
0174104160999992012010714204+51517+007617FM-15+0148EDLW V0202701N005710060019N0112651N1+00701+00401999999ADDGA1021+003001999GA2071+006001999GF107991999999999999999999MA1101191999999MW1801REMMET083METAR EDLW 071420Z 27011KT 240V310 9999 -SHRA FEW010 BKN020 07/04 Q1012 RMK ATIS U;
0184104160999992012010714284+51517+007617FM-16+0148EDLW V0202801N006710060019N0045001N1+00601+00401999999ADDGA1041+003001999GA2071+006001999GF107991999999999999999999MA1101291999999MW1811OC101491REMMET085SPECI EDLW 071428Z 28013G29KT 240V320 4500 SHRA SCT010 BKN020 06/04 Q1013 RMK ATIS V;
0174104160999992012010714504+51517+007617FM-15+0148EDLW V0203001N005712200019N0112651N1+00601+00401999999ADDGA1041+003001999GA2041+006001999GF104991999999999999999999MA1101291999999MW1801REMMET083METAR EDLW 071450Z 30011KT 250V330 9999 -SHRA SCT010 SCT020 06/04 Q1013 RMK ATIS W;
0161104160999992012010715234+51517+007617FM-16+0148EDLW V0202901N006210030019N0030001N1+00601+00401999999ADDGA1071+003001999GF107991999999999999999999MA1101391999999MW1811OC101131REMMET078SPECI EDLW 071523Z 29012G22KT 260V320 3000 SHRA BKN010 06/04 Q1014 RMK ATIS Y;
0159104160999992012010715504+51517+007617FM-15+0148EDLW V0203101N007710030019N0112651N1+00501+00301999999ADDGA1071+003001999GF107991999999999999999999MA1101391999999MW1801OC101341REMMET076METAR EDLW 071550Z 31015G26KT 9999 -SHRA BKN010 05/03 Q1014 RERA RMK ATIS Z;
0150104160999992012010716204+51517+007617FM-15+0148EDLW V0203101N004110036019N0112651N1+00601+00401999999ADDGA1071+003601999GF107991999999999999999999MA1101491999999OC100931REMMET073METAR EDLW 071620Z 31008G18KT 240V340 9999 BKN012 06/04 Q1015 RMK ATIS A;
0139104160999992012010716504+51517+007617FM-15+0148EDLW V0202701N004610042019N0112651N1+00601+00401999999ADDGA1071+004201999GF107991999999999999999999MA1101491999999REMMET070METAR EDLW 071650Z 27009KT 240V310 9999 BKN014 06/04 Q1015 RMK ATIS B;
0150104160999992012010717204+51517+007617FM-15+0148EDLW V0202801N004610042019N0112651N1+00601+00301999999ADDGA1071+004201999GF107991999999999999999999MA1101491999999OC101031REMMET073METAR EDLW 071720Z 28009G20KT 250V320 9999 BKN014 06/03 Q1015 RMK ATIS C;
0139104160999992012010717504+51517+007617FM-15+0148EDLW V0202701N005110042019N0112651N1+00601+00301999999ADDGA1071+004201999GF107991999999999999999999MA1101491999999REMMET070METAR EDLW 071750Z 27010KT 240V310 9999 BKN014 06/03 Q1015 RMK ATIS D;
0139104160999992012010718204+51517+007617FM-15+0148EDLW V0203201N004610036019N0112651N1+00501+00301999999ADDGA1071+003601999GF107991999999999999999999MA1101591999999REMMET070METAR EDLW 071820Z 32009KT 260V020 9999 BKN012 05/03 Q1016 RMK ATIS E;
0144104160999992012010718504+51517+007617FM-15+0148EDLW V0202801N004610051019N0112651N1+00501+00301999999ADDGA1071+005101999GF107991999999999999999999MA1101591999999REMMET075METAR EDLW 071850Z 28009KT 250V310 9999 BKN017 05/03 Q1016 RERA RMK ATIS G;
0131104160999992012010719204+51517+007617FM-15+0148EDLW V0202701N004610066019N0112651N1+00501+00301999999ADDGA1071+006601999GF107991999999999999999999MA1101591999999REMMET062METAR EDLW 071920Z 27009KT 9999 BKN022 05/03 Q1016 RMK ATIS H;
0139104160999992012010719504+51517+007617FM-15+0148EDLW V0202701N005112200019N0112651N1+00501+00301999999ADDGA1041+012901999GF104991999999999999999999MA1101591999999REMMET070METAR EDLW 071950Z 27010KT 240V310 9999 SCT043 05/03 Q1016 RMK ATIS I;
0131104160999992012010720204+51517+007617FM-15+0148EDLW V0202601N004612200019N0112651N1+00501+00301999999ADDGA1041+012301999GF104991999999999999999999MA1101691999999REMMET062METAR EDLW 072020Z 26009KT 9999 SCT041 05/03 Q1017 RMK ATIS J;
0139104160999992012010720504+51517+007617FM-15+0148EDLW V0202701N004112200019N0112651N1+00501+00301999999ADDGA1041+013501999GF104991999999999999999999MA1101691999999REMMET070METAR EDLW 072050Z 27008KT 240V300 9999 SCT045 05/03 Q1017 RMK ATIS K;
0152104160999992012010804204+51517+007617FM-15+0148EDLW V0202801N005110030019N0080001N1+00501+00301999999ADDGA1071+003001999GF107991999999999999999999MA1101691999999MW1611OC101031REMMET069METAR EDLW 080420Z 28010G20KT 8000 -RA BKN010 05/03 Q1017 RMK ATIS A;
0131104160999992012010805204+51517+007617FM-15+0148EDLW V0202601N004110060019N0112651N1+00501+00301999999ADDGA1071+006001999GF107991999999999999999999MA1101591999999REMMET062METAR EDLW 080520Z 26008KT 9999 BKN020 05/03 Q1016 RMK ATIS C;
0131104160999992012010805504+51517+007617FM-15+0148EDLW V0202501N005112200019N0112651N1+00501+00301999999ADDGA1041+004501999GF104991999999999999999999MA1101591999999REMMET062METAR EDLW 080550Z 25010KT 9999 SCT015 05/03 Q1016 RMK ATIS D;
0131104160999992012010806204+51517+007617FM-15+0148EDLW V0202501N004612200019N0112651N1+00501+00401999999ADDGA1041+008401999GF104991999999999999999999MA1101691999999REMMET062METAR EDLW 080620Z 25009KT 9999 SCT028 05/04 Q1017 RMK ATIS E;
0131104160999992012010806504+51517+007617FM-15+0148EDLW V0202601N004610045019N0112651N1+00501+00401999999ADDGA1071+004501999GF107991999999999999999999MA1101691999999REMMET062METAR EDLW 080650Z 26009KT 9999 BKN015 05/04 Q1017 RMK ATIS F;
0131104160999992012010807204+51517+007617FM-15+0148EDLW V0202601N004610042019N0112651N1+00501+00401999999ADDGA1071+004201999GF107991999999999999999999MA1101691999999REMMET062METAR EDLW 080720Z 26009KT 9999 BKN014 05/04 Q1017 RMK ATIS G;
0131104160999992012010807504+51517+007617FM-15+0148EDLW V0202601N005110042019N0112651N1+00501+00401999999ADDGA1071+004201999GF107991999999999999999999MA1101691999999REMMET062METAR EDLW 080750Z 26010KT 9999 BKN014 05/04 Q1017 RMK ATIS H;
0131104160999992012010808204+51517+007617FM-15+0148EDLW V0202501N004612200019N0112651N1+00501+00401999999ADDGA1041+004801999GF104991999999999999999999MA1101801999999REMMET062METAR EDLW 080820Z 25009KT 9999 SCT016 05/04 Q1018 RMK ATIS I;
0142104160999992012010809204+51517+007617FM-15+0148EDLW V0202601N005710048019N0112651N1+00601+00401999999ADDGA1071+004801999GF107991999999999999999999MA1101801999999MW1161REMMET067METAR EDLW 080920Z 26011KT 9999 VCSH BKN016 06/04 Q1018 RMK ATIS K;
0142104160999992012010809504+51517+007617FM-15+0148EDLW V0202701N005110045019N0112651N1+00601+00401999999ADDGA1071+004501999GF107991999999999999999999MA1101801999999MW1161REMMET067METAR EDLW 080950Z 27010KT 9999 VCSH BKN015 06/04 Q1018 RMK ATIS L;
0150104160999992012010810204+51517+007617FM-15+0148EDLW V0202701N005110048019N0112651N1+00601+00401999999ADDGA1071+004801999GF107991999999999999999999MA1101801999999MW1161REMMET075METAR EDLW 081020Z 27010KT 240V300 9999 VCSH BKN016 06/04 Q1018 RMK ATIS M;
0143104160999992012010810504+51517+007617FM-15+0148EDLW V0202701N005710045019N0112651N1+00601+00401999999ADDGA1071+004501999GF107991999999999999999999MA1101801999999MW1801REMMET068METAR EDLW 081050Z 27011KT 9999 -SHRA BKN015 06/04 Q1018 RMK ATIS N;
0131104160999992012010811204+51517+007617FM-15+0148EDLW V0202701N006210054019N0112651N1+00601+00401999999ADDGA1071+005401999GF107991999999999999999999MA1101801999999REMMET062METAR EDLW 081120Z 27012KT 9999 BKN018 06/04 Q1018 RMK ATIS O;
0142104160999992012010811504+51517+007617FM-15+0148EDLW V0202801N005710054019N0112651N1+00701+00401999999ADDGA1071+005401999GF107991999999999999999999MA1101801999999OC101131REMMET065METAR EDLW 081150Z 28011G22KT 9999 BKN018 07/04 Q1018 RMK ATIS P;
0151104160999992012010812204+51517+007617FM-15+0148EDLW V0202701N006710045019N0112651N1+00601+00401999999ADDGA1071+004501999GF107991999999999999999999MA1101801999999MW1801REMMET076METAR EDLW 081220Z 27013KT 240V300 9999 -SHRA BKN015 06/04 Q1018 RMK ATIS Q;
0150104160999992012010813204+51517+007617FM-15+0148EDLW V0202901N004610105019N0112651N1+00601+00401999999ADDGA1071+010501999GF107991999999999999999999MA1101801999999MW1161REMMET075METAR EDLW 081320Z 29009KT 250V330 9999 VCSH BKN035 06/04 Q1018 RMK ATIS S;
0151104160999992012010813504+51517+007617FM-15+0148EDLW V0202801N005110045019N0112651N1+00601+00401999999ADDGA1071+004501999GF107991999999999999999999MA1101901999999MW1801REMMET076METAR EDLW 081350Z 28010KT 260V330 9999 -SHRA BKN015 06/04 Q1019 RMK ATIS T;
0164104160999992012010814204+51517+007617FM-15+0148EDLW V0202801N004610060019N0112651N1+00601+00401999999ADDGA1041+004801999GA2071+006001999GF107991999999999999999999MA1101901999999MW1611REMMET073METAR EDLW 081420Z 28009KT 9999 -RA SCT016 BKN020 06/04 Q1019 RMK ATIS U;
0150104160999992012010814504+51517+007617FM-15+0148EDLW V0202801N005110063019N0112651N1+00601+00401999999ADDGA1071+006301999GF107991999999999999999999MA1102001999999MW1161REMMET075METAR EDLW 081450Z 28010KT 250V310 9999 VCSH BKN021 06/04 Q1020 RMK ATIS V;
0131104160999992012010815204+51517+007617FM-15+0148EDLW V0202801N005110126019N0112651N1+00601+00401999999ADDGA1071+012601999GF107991999999999999999999MA1102001999999REMMET062METAR EDLW 081520Z 28010KT 9999 BKN042 06/04 Q1020 RMK ATIS W;
0154104160999992012010815504+51517+007617FM-15+0148EDLW V0202801N003610114019N0112651N1+00601+00401999999ADDGA1041+009601999GA2071+011401999GF107991999999999999999999MA1102001999999REMMET069METAR EDLW 081550Z 28007KT 9999 SCT032 BKN038 06/04 Q1020 RMK ATIS X;
0139104160999992012010816204+51517+007617FM-15+0148EDLW V0202801N004110048019N0112651N1+00601+00401999999ADDGA1071+004801999GF107991999999999999999999MA1102101999999REMMET070METAR EDLW 081620Z 28008KT 250V320 9999 BKN016 06/04 Q1021 RMK ATIS Y;
0139104160999992012010816504+51517+007617FM-15+0148EDLW V0202901N003610102019N0112651N1+00601+00401999999ADDGA1071+010201999GF107991999999999999999999MA1102101999999REMMET070METAR EDLW 081650Z 29007KT 260V320 9999 BKN034 06/04 Q1021 RMK ATIS Z;
0139104160999992012010817204+51517+007617FM-15+0148EDLW V0202701N003610072019N0112651N1+00501+00401999999ADDGA1071+007201999GF107991999999999999999999MA1102201999999REMMET070METAR EDLW 081720Z 27007KT 240V300 9999 BKN024 05/04 Q1022 RMK ATIS A;
0139104160999992012010817504+51517+007617FM-15+0148EDLW V0202701N003110060019N0112651N1+00501+00301999999ADDGA1071+006001999GF107991999999999999999999MA1102201999999REMMET070METAR EDLW 081750Z 27006KT 250V310 9999 BKN020 05/03 Q1022 RMK ATIS B;
0164104160999992012010818204+51517+007617FM-15+0148EDLW V0202701N004610069019N0090001N1+00501+00401999999ADDGA1041+004201999GA2071+006901999GF107991999999999999999999MA1102201999999MW1611REMMET073METAR EDLW 081820Z 27009KT 9000 -RA SCT014 BKN023 05/04 Q1022 RMK ATIS C;
0151104160999992012010818504+51517+007617FM-15+0148EDLW V0202901N003610105019N0112651N1+00501+00301999999ADDGA1071+010501999GF107991999999999999999999MA1102301999999MW1801REMMET076METAR EDLW 081850Z 29007KT 250V340 9999 -SHRA BKN035 05/03 Q1023 RMK ATIS D;
0139104160999992012010819204+51517+007617FM-15+0148EDLW V0202801N003110120019N0112651N1+00501+00301999999ADDGA1071+012001999GF107991999999999999999999MA1102301999999REMMET070METAR EDLW 081920Z 28006KT 250V320 9999 BKN040 05/03 Q1023 RMK ATIS E;
0139104160999992012010819504+51517+007617FM-15+0148EDLW V0202701N003610030019N0112651N1+00501+00401999999ADDGA1071+003001999GF107991999999999999999999MA1102301999999REMMET070METAR EDLW 081950Z 27007KT 240V300 9999 BKN010 05/04 Q1023 RMK ATIS F;
0139104160999992012010820204+51517+007617FM-15+0148EDLW V0202801N003610105019N0112651N1+00501+00401999999ADDGA1071+010501999GF107991999999999999999999MA1102401999999REMMET070METAR EDLW 082020Z 28007KT 250V310 9999 BKN035 05/04 Q1024 RMK ATIS G;
0139104160999992012010820504+51517+007617FM-15+0148EDLW V0202801N003110060019N0112651N1+00501+00401999999ADDGA1071+006001999GF107991999999999999999999MA1102401999999REMMET070METAR EDLW 082050Z 28006KT 250V330 9999 BKN020 05/04 Q1024 RMK ATIS H;
0137104160999992012010821204+51517+007617FM-15+0148EDLW V0202801N002610120019N0112651N1+00501+00401999999ADDGA1071+012001999GF107991999999999999999999MA1102401999999REMMET068METAR EDLW 082120Z 28005KT 250V330 9999 BKN040 05/04 Q1024 RMK ATIS;
0131104160999992012010904204+51517+007617FM-15+0148EDLW V0202401N003610018019N0060001N1+00501+00501999999ADDGA1071+001801999GF107991999999999999999999MA1102511999999REMMET062METAR EDLW 090420Z 24007KT 6000 BKN006 05/05 Q1025 RMK ATIS A;
0164104160999992012010904504+51517+007617FM-15+0148EDLW V0202301N004610150019N0060001N1+00501+00401999999ADDGA1021+011701999GA2071+015001999GF107991999999999999999999MA1102511999999MW1611REMMET073METAR EDLW 090450Z 23009KT 6000 -RA FEW039 BKN053 05/04 Q1025 RMK ATIS B;
0141104160999992012010905204+51517+007617FM-15+0148EDLW V0202201N004610048019N0060001N1+00501+00401999999ADDGA1071+004801999GF107991999999999999999999MA1102511999999MW1611REMMET066METAR EDLW 090520Z 22009KT 6000 -RA BKN016 05/04 Q1025 RMK ATIS C;
0141104160999992012010905504+51517+007617FM-15+0148EDLW V0202101N004110024019N0060001N1+00501+00501999999ADDGA1071+002401999GF107991999999999999999999MA1102511999999MW1611REMMET066METAR EDLW 090550Z 21008KT 6000 -RA BKN008 05/05 Q1025 RMK ATIS D;
0164104160999992012010906204+51517+007617FM-15+0148EDLW V0202101N004110060019N0060001N1+00501+00501999999ADDGA1021+002701999GA2071+006001999GF107991999999999999999999MA1102511999999MW1611REMMET073METAR EDLW 090620Z 21008KT 6000 -RA FEW009 BKN020 05/05 Q1025 RMK ATIS E;
0163104160999992012010906504+51517+007617FM-15+0148EDLW V0202101N004610048019N0050001N1+00501+00501999999ADDGA1041+002101999GA2071+004801999GF107991999999999999999999MA1102511999999MW1531REMMET072METAR EDLW 090650Z 21009KT 5000 DZ SCT007 BKN016 05/05 Q1025 RMK ATIS F;
0163104160999992012010907204+51517+007617FM-15+0148EDLW V0202101N005110027019N0030001N1+00501+00501999999ADDGA1041+001201999GA2071+002701999GF107991999999999999999999MA1102401999999MW1531REMMET072METAR EDLW 090720Z 21010KT 3000 DZ SCT004 BKN009 05/05 Q1024 RMK ATIS G;
0146104160999992012010907504+51517+007617FM-15+0148EDLW V0202101N004610027019N0035001N1+00601+00501999999ADDGA1071+002701999GF107991999999999999999999MA1102511999999MW1511REMMET071METAR EDLW 090750Z 21009KT 3500 -DZ BKN009 06/05 Q1025 REDZ RMK ATIS H;
0150104160999992012010908204+51517+007617FM-15+0148EDLW V0202201N005110018019N0035001N1+00601+00501999999ADDGA1071+001801999GF107991999999999999999999MA1102511999999MW1101MW2611REMMET069METAR EDLW 090820Z 22010KT 3500 -RA BR BKN006 06/05 Q1025 RMK ATIS I;
0141104160999992012010908504+51517+007617FM-15+0148EDLW V0202301N005110018019N0050001N1+00601+00501999999ADDGA1071+001801999GF107991999999999999999999MA1102511999999MW1611REMMET066METAR EDLW 090850Z 23010KT 5000 -RA BKN006 06/05 Q1025 RMK ATIS J;
0141104160999992012010909204+51517+007617FM-15+0148EDLW V0202301N005710012019N0020001N1+00601+00601999999ADDGA1071+001201999GF107991999999999999999999MA1102511999999MW1511REMMET066METAR EDLW 090920Z 23011KT 2000 -DZ BKN004 06/06 Q1025 RMK ATIS K;
0141104160999992012010909504+51517+007617FM-15+0148EDLW V0202501N005110009019N0020001N1+00601+00601999999ADDGA1071+000901999GF107991999999999999999999MA1102511999999MW1511REMMET066METAR EDLW 090950Z 25010KT 2000 -DZ BKN003 06/06 Q1025 RMK ATIS L;
0162104160999992012010910204+51517+007617FM-15+0148EDLW V0202501N004610003019N0007001N1+00701+00601999999ADDED124U16009GA1081+000301999GF108991999999999999999999MA1102511999999MW1511REMMET076METAR EDLW 091020Z 25009KT 0700 R24/1600N -DZ OVC001 07/06 Q1025 RMK ATIS M;
0179104160999992012010910504+51517+007617FM-15+0148EDLW V0202601N004610006019N0025001N1+00701+00601999999ADDED124U14009GA1081+000601999GF108991999999999999999999MA1102511999999MW1101MW2511REMMET087METAR EDLW 091050Z 26009KT 230V290 2500 R24/1400N -DZ BR OVC002 07/06 Q1025 RMK ATIS N;
0131104160999992012010911204+51517+007617FM-15+0148EDLW V0202501N004110018019N0060001N1+00701+00701999999ADDGA1071+001801999GF107991999999999999999999MA1102511999999REMMET062METAR EDLW 091120Z 25008KT 6000 BKN006 07/07 Q1025 RMK ATIS O;
0131104160999992012010911504+51517+007617FM-15+0148EDLW V0202501N005110018019N0060001N1+00801+00701999999ADDGA1071+001801999GF107991999999999999999999MA1102511999999REMMET062METAR EDLW 091150Z 25010KT 6000 BKN006 08/07 Q1025 RMK ATIS P;
0131104160999992012010912204+51517+007617FM-15+0148EDLW V0202601N004110027019N0060001N1+00801+00701999999ADDGA1081+002701999GF108991999999999999999999MA1102511999999REMMET062METAR EDLW 091220Z 26008KT 6000 OVC009 08/07 Q1025 RMK ATIS Q;
0131104160999992012010912504+51517+007617FM-15+0148EDLW V0202501N005110027019N0070001N1+00801+00701999999ADDGA1081+002701999GF108991999999999999999999MA1102511999999REMMET062METAR EDLW 091250Z 25010KT 7000 OVC009 08/07 Q1025 RMK ATIS R;
0131104160999992012010913204+51517+007617FM-15+0148EDLW V0202501N004610027019N0070001N1+00801+00601999999ADDGA1071+002701999GF107991999999999999999999MA1102511999999REMMET062METAR EDLW 091320Z 25009KT 7000 BKN009 08/06 Q1025 RMK ATIS S;
0154104160999992012010913504+51517+007617FM-15+0148EDLW V0202401N004610033019N0060001N1+00801+00701999999ADDGA1071+003301999GA2071+011401999GF107991999999999999999999MA1102511999999REMMET069METAR EDLW 091350Z 24009KT 6000 BKN011 BKN038 08/07 Q1025 RMK ATIS T;
0154104160999992012010914204+51517+007617FM-15+0148EDLW V0202501N004610036019N0060001N1+00801+00601999999ADDGA1071+003601999GA2071+011101999GF107991999999999999999999MA1102511999999REMMET069METAR EDLW 091420Z 25009KT 6000 BKN012 BKN037 08/06 Q1025 RMK ATIS U;
0131104160999992012010914504+51517+007617FM-15+0148EDLW V0202601N004610033019N0070001N1+00801+00601999999ADDGA1081+003301999GF108991999999999999999999MA1102511999999REMMET062METAR EDLW 091450Z 26009KT 7000 OVC011 08/06 Q1025 RMK ATIS V;
0143104160999992012010915204+51517+007617FM-15+0148EDLW V0202501N004610120019N0070001N1+00801+00601999999ADDGA1071+012001999GF107991999999999999999999MA1102511999999MW1801REMMET068METAR EDLW 091520Z 25009KT 7000 -SHRA BKN040 08/06 Q1025 RMK ATIS W;
0131104160999992012010915504+51517+007617FM-15+0148EDLW V0202401N005110123019N0060001N1+00801+00601999999ADDGA1081+012301999GF108991999999999999999999MA1102511999999REMMET062METAR EDLW 091550Z 24010KT 6000 OVC041 08/06 Q1025 RMK ATIS X;
0154104160999992012010917204+51517+007617FM-15+0148EDLW V0202501N005710045019N0080001N1+00801+00601999999ADDGA1071+004501999GA2081+006301999GF108991999999999999999999MA1102511999999REMMET069METAR EDLW 091720Z 25011KT 8000 BKN015 OVC021 08/06 Q1025 RMK ATIS A;
0131104160999992012010917504+51517+007617FM-15+0148EDLW V0202501N005710048019N0090001N1+00801+00601999999ADDGA1071+004801999GF107991999999999999999999MA1102611999999REMMET062METAR EDLW 091750Z 25011KT 9000 BKN016 08/06 Q1026 RMK ATIS B;
0139104160999992012010918204+51517+007617FM-15+0148EDLW V0202601N004110036019N0112651N1+00801+00601999999ADDGA1081+003601999GF108991999999999999999999MA1102611999999REMMET070METAR EDLW 091820Z 26008KT 240V300 9999 OVC012 08/06 Q1026 RMK ATIS C;
0131104160999992012010918504+51517+007617FM-15+0148EDLW V0202501N004610045019N0112651N1+00801+00601999999ADDGA1071+004501999GF107991999999999999999999MA1102611999999REMMET062METAR EDLW 091850Z 25009KT 9999 BKN015 08/06 Q1026 RMK ATIS D;
0141104160999992012010919204+51517+007617FM-15+0148EDLW V0202601N004610027019N0080001N1+00701+00601999999ADDGA1071+002701999GF107991999999999999999999MA1102611999999MW1511REMMET066METAR EDLW 091920Z 26009KT 8000 -DZ BKN009 07/06 Q1026 RMK ATIS E;
0141104160999992012010919504+51517+007617FM-15+0148EDLW V0202601N004610015019N0060001N1+00701+00701999999ADDGA1081+001501999GF108991999999999999999999MA1102711999999MW1511REMMET066METAR EDLW 091950Z 26009KT 6000 -DZ OVC005 07/07 Q1027 RMK ATIS F;
0149104160999992012010920204+51517+007617FM-15+0148EDLW V0202601N004610015019N0045001N1+00801+00701999999ADDGA1081+001501999GF108991999999999999999999MA1102711999999MW1511REMMET074METAR EDLW 092020Z 26009KT 220V280 4500 -DZ OVC005 08/07 Q1027 RMK ATIS G;
0149104160999992012010920504+51517+007617FM-15+0148EDLW V0202701N005110015019N0045001N1+00801+00701999999ADDGA1081+001501999GF108991999999999999999999MA1102711999999MW1511REMMET074METAR EDLW 092050Z 27010KT 240V300 4500 -DZ OVC005 08/07 Q1027 RMK ATIS H;
0131104160999992012011004204+51517+007617FM-15+0148EDLW V0202801N003610024019N0112651N1+00601+00501999999ADDGA1071+002401999GF107991999999999999999999MA1103011999999REMMET062METAR EDLW 100420Z 28007KT 9999 BKN008 06/05 Q1030 RMK ATIS A;
0139104160999992012011004504+51517+007617FM-15+0148EDLW V0202801N002610024019N0112651N1+00601+00501999999ADDGA1071+002401999GF107991999999999999999999MA1103121999999REMMET070METAR EDLW 100450Z 28005KT 240V320 9999 BKN008 06/05 Q1031 RMK ATIS B;
0162104160999992012011005204+51517+007617FM-15+0148EDLW V0202901N002610126019N0112651N1+00601+00501999999ADDGA1041+002401999GA2071+012601999GF107991999999999999999999MA1103121999999REMMET077METAR EDLW 100520Z 29005KT 260V330 9999 SCT008 BKN042 06/05 Q1031 RMK ATIS C;
0139104160999992012011005504+51517+007617FM-15+0148EDLW V0202701N003112200019N0112651N1+00601+00501999999ADDGA1041+003001999GF104991999999999999999999MA1103121999999REMMET070METAR EDLW 100550Z 27006KT 230V300 9999 SCT010 06/05 Q1031 RMK ATIS D;
0162104160999992012011006204+51517+007617FM-15+0148EDLW V0202901N002110045019N0112651N1+00601+00501999999ADDGA1041+002401999GA2071+004501999GF107991999999999999999999MA1103121999999REMMET077METAR EDLW 100620Z 29004KT 260V320 9999 SCT008 BKN015 06/05 Q1031 RMK ATIS E;
0154104160999992012011006504+51517+007617FM-15+0148EDLW V0209999V001510048019N0112651N1+00601+00501999999ADDGA1041+003001999GA2071+004801999GF107991999999999999999999MA1103121999999REMMET069METAR EDLW 100650Z VRB03KT 9999 SCT010 BKN016 06/05 Q1031 RMK ATIS F;
0131104160999992012011007204+51517+007617FM-15+0148EDLW V0209999V001010039019N0090001N1+00601+00501999999ADDGA1071+003901999GF107991999999999999999999MA1103121999999REMMET062METAR EDLW 100720Z VRB02KT 9000 BKN013 06/05 Q1031 RMK ATIS G;
0154104160999992012011007504+51517+007617FM-15+0148EDLW V0202501N001510036019N0090001N1+00601+00501999999ADDGA1041+002101999GA2071+003601999GF107991999999999999999999MA1103181999999REMMET069METAR EDLW 100750Z 25003KT 9000 SCT007 BKN012 06/05 Q1032 RMK ATIS H;
0131104160999992012011008204+51517+007617FM-15+0148EDLW V0209999V001510033019N0112651N1+00601+00501999999ADDGA1071+003301999GF107991999999999999999999MA1103181999999REMMET062METAR EDLW 100820Z VRB03KT 9999 BKN011 06/05 Q1032 RMK ATIS I;
0139104160999992012011008504+51517+007617FM-15+0148EDLW V0202801N002110030019N0112651N1+00601+00501999999ADDGA1071+003001999GF107991999999999999999999MA1103181999999REMMET070METAR EDLW 100850Z 28004KT 220V330 9999 BKN010 06/05 Q1032 RMK ATIS J;
0154104160999992012011009204+51517+007617FM-15+0148EDLW V0202601N002610111019N0112651N1+00601+00501999999ADDGA1021+003001999GA2071+011101999GF107991999999999999999999MA1103291999999REMMET069METAR EDLW 100920Z 26005KT 9999 FEW010 BKN037 06/05 Q1033 RMK ATIS K;
0131104160999992012011009504+51517+007617FM-15+0148EDLW V0202401N002610108019N0090001N1+00601+00501999999ADDGA1071+010801999GF107991999999999999999999MA1103291999999REMMET062METAR EDLW 100950Z 24005KT 9000 BKN036 06/05 Q1033 RMK ATIS L;
0131104160999992012011010204+51517+007617FM-15+0148EDLW V0202301N003112200019N0090001N1+00701+00501999999ADDGA1041+003601999GF104991999999999999999999MA1103181999999REMMET062METAR EDLW 101020Z 23006KT 9000 SCT012 07/05 Q1032 RMK ATIS M;
0131104160999992012011010504+51517+007617FM-15+0148EDLW V0202201N003110027019N0070001N1+00701+00501999999ADDGA1071+002701999GF107991999999999999999999MA1103181999999REMMET062METAR EDLW 101050Z 22006KT 7000 BKN009 07/05 Q1032 RMK ATIS N;
0154104160999992012011011204+51517+007617FM-15+0148EDLW V0202401N003610048019N0112651N1+00701+00501999999ADDGA1041+003001999GA2071+004801999GF107991999999999999999999MA1103181999999REMMET069METAR EDLW 101120Z 24007KT 9999 SCT010 BKN016 07/05 Q1032 RMK ATIS O;
0139104160999992012011012204+51517+007617FM-15+0148EDLW V0202701N003610051019N0112651N1+00701+00401999999ADDGA1071+005101999GF107991999999999999999999MA1103181999999REMMET070METAR EDLW 101220Z 27007KT 240V320 9999 BKN017 07/04 Q1032 RMK ATIS Q;
0139104160999992012011012504+51517+007617FM-15+0148EDLW V0202601N003610051019N0112651N1+00701+00401999999ADDGA1071+005101999GF107991999999999999999999MA1103181999999REMMET070METAR EDLW 101250Z 26007KT 230V310 9999 BKN017 07/04 Q1032 RMK ATIS R;
0139104160999992012011013204+51517+007617FM-15+0148EDLW V0202601N004110060019N0112651N1+00801+00401999999ADDGA1071+006001999GF107991999999999999999999MA1103181999999REMMET070METAR EDLW 101320Z 26008KT 230V290 9999 BKN020 08/04 Q1032 RMK ATIS T;
0139104160999992012011013504+51517+007617FM-15+0148EDLW V0202601N002610063019N0112651N1+00801+00401999999ADDGA1071+006301999GF107991999999999999999999MA1103181999999REMMET070METAR EDLW 101350Z 26005KT 220V300 9999 BKN021 08/04 Q1032 RMK ATIS U;
0139104160999992012011014204+51517+007617FM-15+0148EDLW V0202501N003612200019N0112651N1+00701+00301999999ADDGA1041+009301999GF104991999999999999999999MA1103181999999REMMET070METAR EDLW 101420Z 25007KT 220V280 9999 SCT031 07/03 Q1032 RMK ATIS V;
0131104160999992012011014504+51517+007617FM-15+0148EDLW V0202501N003110090019N0112651N1+00701+00401999999ADDGA1071+009001999GF107991999999999999999999MA1103181999999REMMET062METAR EDLW 101450Z 25006KT 9999 BKN030 07/04 Q1032 RMK ATIS W;
0131104160999992012011015204+51517+007617FM-15+0148EDLW V0202401N003610096019N0112651N1+00701+00401999999ADDGA1071+009601999GF107991999999999999999999MA1103181999999REMMET062METAR EDLW 101520Z 24007KT 9999 BKN032 07/04 Q1032 RMK ATIS X;
0131104160999992012011015504+51517+007617FM-15+0148EDLW V0202401N003610093019N0112651N1+00701+00401999999ADDGA1071+009301999GF107991999999999999999999MA1103181999999REMMET062METAR EDLW 101550Z 24007KT 9999 BKN031 07/04 Q1032 RMK ATIS Y;
0131104160999992012011016204+51517+007617FM-15+0148EDLW V0202401N003610099019N0112651N1+00801+00401999999ADDGA1071+009901999GF107991999999999999999999MA1103181999999REMMET062METAR EDLW 101620Z 24007KT 9999 BKN033 08/04 Q1032 RMK ATIS Z;
0131104160999992012011016504+51517+007617FM-15+0148EDLW V0202201N003610099019N0112651N1+00701+00401999999ADDGA1071+009901999GF107991999999999999999999MA1103181999999REMMET062METAR EDLW 101650Z 22007KT 9999 BKN033 07/04 Q1032 RMK ATIS A;
0131104160999992012011017204+51517+007617FM-15+0148EDLW V0202101N004610093019N0112651N1+00701+00301999999ADDGA1071+009301999GF107991999999999999999999MA1103181999999REMMET062METAR EDLW 101720Z 21009KT 9999 BKN031 07/03 Q1032 RMK ATIS B;
0131104160999992012011017504+51517+007617FM-15+0148EDLW V0202101N004110096019N0112651N1+00701+00301999999ADDGA1071+009601999GF107991999999999999999999MA1103181999999REMMET062METAR EDLW 101750Z 21008KT 9999 BKN032 07/03 Q1032 RMK ATIS C;
0131104160999992012011018204+51517+007617FM-15+0148EDLW V0202001N004610096019N0112651N1+00801+00301999999ADDGA1071+009601999GF107991999999999999999999MA1103181999999REMMET062METAR EDLW 101820Z 20009KT 9999 BKN032 08/03 Q1032 RMK ATIS D;
0131104160999992012011018504+51517+007617FM-15+0148EDLW V0202101N004110102019N0112651N1+00801+00301999999ADDGA1071+010201999GF107991999999999999999999MA1103181999999REMMET062METAR EDLW 101850Z 21008KT 9999 BKN034 08/03 Q1032 RMK ATIS E;
0131104160999992012011019204+51517+007617FM-15+0148EDLW V0202001N004610102019N0112651N1+00801+00301999999ADDGA1071+010201999GF107991999999999999999999MA1103181999999REMMET062METAR EDLW 101920Z 20009KT 9999 BKN034 08/03 Q1032 RMK ATIS F;
0131104160999992012011019504+51517+007617FM-15+0148EDLW V0202101N005710105019N0112651N1+00801+00301999999ADDGA1071+010501999GF107991999999999999999999MA1103181999999REMMET062METAR EDLW 101950Z 21011KT 9999 BKN035 08/03 Q1032 RMK ATIS G;
0131104160999992012011020204+51517+007617FM-15+0148EDLW V0202201N006210102019N0112651N1+00801+00301999999ADDGA1071+010201999GF107991999999999999999999MA1103181999999REMMET062METAR EDLW 102020Z 22012KT 9999 BKN034 08/03 Q1032 RMK ATIS H;
0154104160999992012011020504+51517+007617FM-15+0148EDLW V0202201N005710057019N0112651N1+00801+00301999999ADDGA1071+005701999GA2071+010201999GF107991999999999999999999MA1103181999999REMMET069METAR EDLW 102050Z 22011KT 9999 BKN019 BKN034 08/03 Q1032 RMK ATIS I;
0131104160999992012011104204+51517+007617FM-15+0148EDLW V0202301N004610120019N0112651N1+00801+00401999999ADDGA1071+012001999GF107991999999999999999999MA1103121999999REMMET062METAR EDLW 110420Z 23009KT 9999 BKN040 08/04 Q1031 RMK ATIS A;
0131104160999992012011104504+51517+007617FM-15+0148EDLW V0202401N005110048019N0112651N1+00801+00401999999ADDGA1071+004801999GF107991999999999999999999MA1103121999999REMMET062METAR EDLW 110450Z 24010KT 9999 BKN016 08/04 Q1031 RMK ATIS B;
0154104160999992012011105204+51517+007617FM-15+0148EDLW V0202401N005110126019N0112651N1+00801+00501999999ADDGA1021+005401999GA2071+012601999GF107991999999999999999999MA1103011999999REMMET069METAR EDLW 110520Z 24010KT 9999 FEW018 BKN042 08/05 Q1030 RMK ATIS C;
0131104160999992012011105504+51517+007617FM-15+0148EDLW V0202401N005710129019N0112651N1+00801+00501999999ADDGA1071+012901999GF107991999999999999999999MA1103011999999REMMET062METAR EDLW 110550Z 24011KT 9999 BKN043 08/05 Q1030 RMK ATIS D;
0131104160999992012011106204+51517+007617FM-15+0148EDLW V0202401N005110123019N0112651N1+00801+00501999999ADDGA1071+012301999GF107991999999999999999999MA1103121999999REMMET062METAR EDLW 110620Z 24010KT 9999 BKN041 08/05 Q1031 RMK ATIS E;
0131104160999992012011106504+51517+007617FM-15+0148EDLW V0202501N004610045019N0112651N1+00801+00501999999ADDGA1071+004501999GF107991999999999999999999MA1103121999999REMMET062METAR EDLW 110650Z 25009KT 9999 BKN015 08/05 Q1031 RMK ATIS F;
0154104160999992012011107204+51517+007617FM-15+0148EDLW V0202401N005710117019N0112651N1+00801+00501999999ADDGA1021+003901999GA2071+011701999GF107991999999999999999999MA1103121999999REMMET069METAR EDLW 110720Z 24011KT 9999 FEW013 BKN039 08/05 Q1031 RMK ATIS G;
0154104160999992012011107504+51517+007617FM-15+0148EDLW V0202401N005710111019N0112651N1+00801+00501999999ADDGA1021+003301999GA2071+011101999GF107991999999999999999999MA1103121999999REMMET069METAR EDLW 110750Z 24011KT 9999 FEW011 BKN037 08/05 Q1031 RMK ATIS H;
0131104160999992012011108204+51517+007617FM-15+0148EDLW V0202401N005710141019N0112651N1+00801+00501999999ADDGA1071+014101999GF107991999999999999999999MA1103121999999REMMET062METAR EDLW 110820Z 24011KT 9999 BKN047 08/05 Q1031 RMK ATIS J;
0131104160999992012011108504+51517+007617FM-15+0148EDLW V0202501N006710045019N0112651N1+00801+00601999999ADDGA1071+004501999GF107991999999999999999999MA1103121999999REMMET062METAR EDLW 110850Z 25013KT 9999 BKN015 08/06 Q1031 RMK ATIS K;
0131104160999992012011109204+51517+007617FM-15+0148EDLW V0202501N005110060019N0112651N1+00801+00601999999ADDGA1071+006001999GF107991999999999999999999MA1103121999999REMMET062METAR EDLW 110920Z 25010KT 9999 BKN020 08/06 Q1031 RMK ATIS L;
0154104160999992012011109504+51517+007617FM-15+0148EDLW V0202501N005110066019N0112651N1+00901+00601999999ADDGA1041+004501999GA2071+006601999GF107991999999999999999999MA1103181999999REMMET069METAR EDLW 110950Z 25010KT 9999 SCT015 BKN022 09/06 Q1032 RMK ATIS M;
0154104160999992012011110204+51517+007617FM-15+0148EDLW V0202501N005110126019N0112651N1+00901+00501999999ADDGA1041+006301999GA2071+012601999GF107991999999999999999999MA1103181999999REMMET069METAR EDLW 111020Z 25010KT 9999 SCT021 BKN042 09/05 Q1032 RMK ATIS N;
0154104160999992012011110504+51517+007617FM-15+0148EDLW V0202501N006210120019N0112651N1+00901+00501999999ADDGA1041+004801999GA2081+012001999GF108991999999999999999999MA1103121999999REMMET069METAR EDLW 111050Z 25012KT 9999 SCT016 OVC040 09/05 Q1031 RMK ATIS O;
0162104160999992012011111204+51517+007617FM-15+0148EDLW V0202501N005110120019N0112651N1+00901+00501999999ADDGA1021+004801999GA2071+012001999GF107991999999999999999999MA1103121999999REMMET077METAR EDLW 111120Z 25010KT 230V290 9999 FEW016 BKN040 09/05 Q1031 RMK ATIS P;
0154104160999992012011111504+51517+007617FM-15+0148EDLW V0202501N006210120019N0112651N1+00901+00501999999ADDGA1021+005101999GA2071+012001999GF107991999999999999999999MA1103121999999REMMET069METAR EDLW 111150Z 25012KT 9999 FEW017 BKN040 09/05 Q1031 RMK ATIS Q;
0131104160999992012011112204+51517+007617FM-15+0148EDLW V0202501N006712200019N0112651N1+00901+00501999999ADDGA1041+009601999GF104991999999999999999999MA1103121999999REMMET062METAR EDLW 111220Z 25013KT 9999 SCT032 09/05 Q1031 RMK ATIS R;
0154104160999992012011112504+51517+007617FM-15+0148EDLW V0202501N006710090019N0112651N1+00901+00501999999ADDGA1041+006001999GA2071+009001999GF107991999999999999999999MA1103121999999REMMET069METAR EDLW 111250Z 25013KT 9999 SCT020 BKN030 09/05 Q1031 RMK ATIS S;
0154104160999992012011113204+51517+007617FM-15+0148EDLW V0202501N006210060019N0112651N1+00901+00501999999ADDGA1021+004501999GA2071+006001999GF107991999999999999999999MA1103121999999REMMET069METAR EDLW 111320Z 25012KT 9999 FEW015 BKN020 09/05 Q1031 RMK ATIS T;
0131104160999992012011113504+51517+007617FM-15+0148EDLW V0202501N004610048019N0112651N1+00901+00501999999ADDGA1071+004801999GF107991999999999999999999MA1103121999999REMMET062METAR EDLW 111350Z 25009KT 9999 BKN016 09/05 Q1031 RMK ATIS U;
0131104160999992012011114204+51517+007617FM-15+0148EDLW V0202501N004610042019N0112651N1+00901+00601999999ADDGA1081+004201999GF108991999999999999999999MA1103121999999REMMET062METAR EDLW 111420Z 25009KT 9999 OVC014 09/06 Q1031 RMK ATIS V;
0131104160999992012011114504+51517+007617FM-15+0148EDLW V0202401N005710039019N0112651N1+00901+00501999999ADDGA1081+003901999GF108991999999999999999999MA1103121999999REMMET062METAR EDLW 111450Z 24011KT 9999 OVC013 09/05 Q1031 RMK ATIS W;
0131104160999992012011115204+51517+007617FM-15+0148EDLW V0202501N005710039019N0112651N1+00801+00601999999ADDGA1081+003901999GF108991999999999999999999MA1103121999999REMMET062METAR EDLW 111520Z 25011KT 9999 OVC013 08/06 Q1031 RMK ATIS X;
0131104160999992012011115504+51517+007617FM-15+0148EDLW V0202501N004610030019N0070001N1+00801+00601999999ADDGA1081+003001999GF108991999999999999999999MA1103121999999REMMET062METAR EDLW 111550Z 25009KT 7000 OVC010 08/06 Q1031 RMK ATIS Y;
0141104160999992012011116504+51517+007617FM-15+0148EDLW V0202401N004610018019N0045001N1+00801+00701999999ADDGA1081+001801999GF108991999999999999999999MA1103121999999MW1511REMMET066METAR EDLW 111650Z 24009KT 4500 -DZ OVC006 08/07 Q1031 RMK ATIS A;
0141104160999992012011117204+51517+007617FM-15+0148EDLW V0202401N005710015019N0030001N1+00801+00701999999ADDGA1081+001501999GF108991999999999999999999MA1103121999999MW1511REMMET066METAR EDLW 111720Z 24011KT 3000 -DZ OVC005 08/07 Q1031 RMK ATIS B;
0141104160999992012011117504+51517+007617FM-15+0148EDLW V0202301N005110018019N0040001N1+00801+00701999999ADDGA1081+001801999GF108991999999999999999999MA1103121999999MW1511REMMET066METAR EDLW 111750Z 23010KT 4000 -DZ OVC006 08/07 Q1031 RMK ATIS C;
0150104160999992012011118204+51517+007617FM-15+0148EDLW V0202401N005110015019N0050001N1+00801+00701999999ADDGA1071+001501999GF107991999999999999999999MA1103121999999MW1101MW2511REMMET069METAR EDLW 111820Z 24010KT 5000 -DZ BR BKN005 08/07 Q1031 RMK ATIS D;
0141104160999992012011118504+51517+007617FM-15+0148EDLW V0202401N004610018019N0070001N1+00801+00701999999ADDGA1071+001801999GF107991999999999999999999MA1103121999999MW1511REMMET066METAR EDLW 111850Z 24009KT 7000 -DZ BKN006 08/07 Q1031 RMK ATIS E;
0141104160999992012011119204+51517+007617FM-15+0148EDLW V0202301N005110021019N0070001N1+00801+00701999999ADDGA1071+002101999GF107991999999999999999999MA1103121999999MW1511REMMET066METAR EDLW 111920Z 23010KT 7000 -DZ BKN007 08/07 Q1031 RMK ATIS F;
0173104160999992012011119504+51517+007617FM-15+0148EDLW V0202301N005110018019N0050001N1+00801+00701999999ADDGA1041+001201999GA2071+001801999GF107991999999999999999999MA1103121999999MW1101MW2511REMMET076METAR EDLW 111950Z 23010KT 5000 -DZ BR SCT004 BKN006 08/07 Q1031 RMK ATIS G;
0141104160999992012011120204+51517+007617FM-15+0148EDLW V0202401N005110021019N0070001N1+00801+00701999999ADDGA1071+002101999GF107991999999999999999999MA1103121999999MW1511REMMET066METAR EDLW 112020Z 24010KT 7000 -DZ BKN007 08/07 Q1031 RMK ATIS H;
0131104160999992012011120504+51517+007617FM-15+0148EDLW V0202301N005110021019N0112651N1+00801+00701999999ADDGA1071+002101999GF107991999999999999999999MA1103121999999REMMET062METAR EDLW 112050Z 23010KT 9999 BKN007 08/07 Q1031 RMK ATIS I;
0131104160999992012011204204+51517+007617FM-15+0148EDLW V0202401N008210027019N0112651N1+00801+00601999999ADDGA1071+002701999GF107991999999999999999999MA1102511999999REMMET062METAR EDLW 120420Z 24016KT 9999 BKN009 08/06 Q1025 RMK ATIS A;
0131104160999992012011204504+51517+007617FM-15+0148EDLW V0202301N008710030019N0112651N1+00801+00601999999ADDGA1071+003001999GF107991999999999999999999MA1102511999999REMMET062METAR EDLW 120450Z 23017KT 9999 BKN010 08/06 Q1025 RMK ATIS B;
0131104160999992012011205204+51517+007617FM-15+0148EDLW V0202401N009310030019N0112651N1+00801+00601999999ADDGA1071+003001999GF107991999999999999999999MA1102401999999REMMET062METAR EDLW 120520Z 24018KT 9999 BKN010 08/06 Q1024 RMK ATIS C;
0131104160999992012011205504+51517+007617FM-15+0148EDLW V0202301N008710030019N0112651N1+00801+00601999999ADDGA1071+003001999GF107991999999999999999999MA1102401999999REMMET062METAR EDLW 120550Z 23017KT 9999 BKN010 08/06 Q1024 RMK ATIS D;
0131104160999992012011206204+51517+007617FM-15+0148EDLW V0202301N010310027019N0112651N1+00801+00601999999ADDGA1071+002701999GF107991999999999999999999MA1102301999999REMMET062METAR EDLW 120620Z 23020KT 9999 BKN009 08/06 Q1023 RMK ATIS E;
0131104160999992012011206504+51517+007617FM-15+0148EDLW V0202301N009310033019N0112651N1+00701+00501999999ADDGA1071+003301999GF107991999999999999999999MA1102301999999REMMET062METAR EDLW 120650Z 23018KT 9999 BKN011 07/05 Q1023 RMK ATIS F;
0131104160999992012011207204+51517+007617FM-15+0148EDLW V0202401N008710036019N0112651N1+00701+00501999999ADDGA1071+003601999GF107991999999999999999999MA1102301999999REMMET062METAR EDLW 120720Z 24017KT 9999 BKN012 07/05 Q1023 RMK ATIS G;
0131104160999992012011207504+51517+007617FM-15+0148EDLW V0202301N010310039019N0112651N1+00701+00501999999ADDGA1071+003901999GF107991999999999999999999MA1102201999999REMMET062METAR EDLW 120750Z 23020KT 9999 BKN013 07/05 Q1022 RMK ATIS H;
0154104160999992012011209204+51517+007617FM-15+0148EDLW V0202301N009312200019N0112651N1+00801+00501999999ADDGA1021+005401999GA2041+021001999GF104991999999999999999999MA1102201999999REMMET069METAR EDLW 120920Z 23018KT 9999 FEW018 SCT075 08/05 Q1022 RMK ATIS K;
0154104160999992012011209504+51517+007617FM-15+0148EDLW V0202301N011312200019N0112651N1+00801+00501999999ADDGA1021+005701999GA2041+021001999GF104991999999999999999999MA1102101999999REMMET069METAR EDLW 120950Z 23022KT 9999 FEW019 SCT075 08/05 Q1021 RMK ATIS L;
0131104160999992012011210204+51517+007617FM-15+0148EDLW V0202301N011312200019N0112651N1+00801+00501999999ADDGA1041+005701999GF104991999999999999999999MA1102101999999REMMET062METAR EDLW 121020Z 23022KT 9999 SCT019 08/05 Q1021 RMK ATIS M;
0142104160999992012011210504+51517+007617FM-15+0148EDLW V0202301N011812200019N0112651N1+00801+00501999999ADDGA1041+006301999GF104991999999999999999999MA1102001999999OC101751REMMET065METAR EDLW 121050Z 23023G34KT 9999 SCT021 08/05 Q1020 RMK ATIS N;
0142104160999992012011211204+51517+007617FM-15+0148EDLW V0202401N012912200019N0112651N1+00901+00501999999ADDGA1041+006301999GF104991999999999999999999MA1101901999999OC101801REMMET065METAR EDLW 121120Z 24025G35KT 9999 SCT021 09/05 Q1019 RMK ATIS O;
0131104160999992012011211504+51517+007617FM-15+0148EDLW V0202501N010810057019N0112651N1+00801+00501999999ADDGA1071+005701999GF107991999999999999999999MA1101901999999REMMET062METAR EDLW 121150Z 25021KT 9999 BKN019 08/05 Q1019 RMK ATIS P;
0140104160999992012011212014+51517+007617FM-16+0148EDLW V0202401N010810048019N0035001N1+00801+00501999999ADDGA1071+004801999GF107991999999999999999999MA1101901999999MW1531REMMET065SPECI EDLW 121201Z 24021KT 3500 DZ BKN016 08/05 Q1019 RMK ATIS Q;
0140104160999992012011213204+51517+007617FM-15+0148EDLW V0202401N010310024019N0040001N1+00801+00601999999ADDGA1081+002401999GF108991999999999999999999MA1101801999999MW1631REMMET065METAR EDLW 121320Z 24020KT 4000 RA OVC008 08/06 Q1018 RMK ATIS T;
0152104160999992012011213504+51517+007617FM-15+0148EDLW V0202501N010310027019N0045001N1+00801+00601999999ADDGA1081+002701999GF108991999999999999999999MA1101691999999MW1511OC101751REMMET069METAR EDLW 121350Z 25020G34KT 4500 -DZ OVC009 08/06 Q1017 RMK ATIS U;
0173104160999992012011214004+51517+007617FM-15+0148EDLW V0202501N010310027019N0045001N1+00801+00701999999ADDED124U07509GA1081+002701999GF108991999999999999999999MA1101691999999MW1511OC101651REMMET079SPECI EDLW 121359Z 25020G32KT 4500 R24/0750D -DZ OVC009 08/07 Q1017 RMK ATIS V;
0160104160999992012011215204+51517+007617FM-15+0148EDLW V0202701N007710036019N0090001N1+00801+00701999999ADDGA1071+003601999GF107991999999999999999999MA1101801999999MW1611OC101541REMMET077METAR EDLW 121520Z 27015G30KT 240V310 9000 -RA BKN012 08/07 Q1018 RMK ATIS X;
0139104160999992012011215504+51517+007617FM-15+0148EDLW V0202801N005710045019N0112651N1+00801+00601999999ADDGA1071+004501999GF107991999999999999999999MA1101801999999REMMET070METAR EDLW 121550Z 28011KT 250V320 9999 BKN015 08/06 Q1018 RMK ATIS X;
0139104160999992012011216204+51517+007617FM-15+0148EDLW V0202701N005110045019N0112651N1+00801+00601999999ADDGA1071+004501999GF107991999999999999999999MA1101901999999REMMET070METAR EDLW 121620Z 27010KT 240V320 9999 BKN015 08/06 Q1019 RMK ATIS Y;
0139104160999992012011216504+51517+007617FM-15+0148EDLW V0202901N005110048019N0112651N1+00801+00501999999ADDGA1071+004801999GF107991999999999999999999MA1101901999999REMMET070METAR EDLW 121650Z 29010KT 240V320 9999 BKN016 08/05 Q1019 RMK ATIS Z;
0159104160999992012011216534+51517+007617FM-16+0148EDLW V0203101N007210045019N0090001N1+00801+00501999999ADDGA1071+004501999GF107991999999999999999999MA1101901999999MW1631OC101231REMMET076SPECI EDLW 121653Z 31014G24KT 270V350 9000 RA BKN015 08/05 Q1019 RMK ATIS A;
0136104160999992012011217204+51517+007617FM-15+0148EDLW V0203001N005712200019N0112651N1+00701+00501999999ADDGA1041+004501999GF104991999999999999999999MA1102001999999REMMET067METAR EDLW 121720Z 30011KT 9999 SCT015 07/05 Q1020 RERA RMK ATIS B;
0131104160999992012011217504+51517+007617FM-15+0148EDLW V0203001N005710105019N0112651N1+00701+00401999999ADDGA1071+010501999GF107991999999999999999999MA1102001999999REMMET062METAR EDLW 121750Z 30011KT 9999 BKN035 07/04 Q1020 RMK ATIS C;
0162104160999992012011218204+51517+007617FM-15+0148EDLW V0202901N005110126019N0112651N1+00701+00401999999ADDGA1041+006301999GA2071+012601999GF107991999999999999999999MA1102101999999REMMET077METAR EDLW 121820Z 29010KT 270V330 9999 SCT021 BKN042 07/04 Q1021 RMK ATIS D;
0150104160999992012011218504+51517+007617FM-15+0148EDLW V0202901N005112200019N0112651N1+00601+00301999999ADDGA1041+009001999GF104991999999999999999999MA1102101999999OC101031REMMET073METAR EDLW 121850Z 29010G20KT 270V330 9999 SCT030 06/03 Q1021 RMK ATIS E;
0091104160999992012011219204+51517+007617FM-15+0148EDLW V0203101N005119999999Y0099001N1+00601+00201999999ADDMA1102101999999REMMET064METAR EDLW 121920Z 31010KT 270V340 CAVOK 06/02 Q1021 RMK ATIS F;
0131104160999992012011219504+51517+007617FM-15+0148EDLW V0202901N004112200019N0112651N1+00501+00301999999ADDGA1041+008401999GF104991999999999999999999MA1102201999999REMMET062METAR EDLW 121950Z 29008KT 9999 SCT028 05/03 Q1022 RMK ATIS G;
0139104160999992012011220204+51517+007617FM-15+0148EDLW V0202901N005712200019N0112651N1+00601+00301999999ADDGA1041+006301999GF104991999999999999999999MA1102201999999REMMET070METAR EDLW 122020Z 29011KT 260V320 9999 SCT021 06/03 Q1022 RMK ATIS H;
0128104160999992012011220504+51517+007617FM-15+0148EDLW V0202901N004610063019N0112651N1+00501+00201999999ADDGA1071+006301999GF107991999999999999999999MA1102301999999REMMET059METAR EDLW 122050Z 29009KT 260V330 9999 BKN021 05/02 Q1023;
0141104160999992012011304204+51517+007617FM-15+0148EDLW V0202601N005710030019N0112651N1+00301+00201999999ADDGA1071+003001999GF107991999999999999999999MA1102301999999MW1611REMMET066METAR EDLW 130420Z 26011KT 9999 -RA BKN010 03/02 Q1023 RMK ATIS A;
0139104160999992012011304504+51517+007617FM-15+0148EDLW V0202701N005110039019N0112651N1+00301+00201999999ADDGA1071+003901999GF107991999999999999999999MA1102301999999REMMET070METAR EDLW 130450Z 27010KT 240V300 9999 BKN013 03/02 Q1023 RMK ATIS B;
0139104160999992012011305204+51517+007617FM-15+0148EDLW V0202701N004610030019N0112651N1+00301+00201999999ADDGA1071+003001999GF107991999999999999999999MA1102301999999REMMET070METAR EDLW 130520Z 27009KT 240V300 9999 BKN010 03/02 Q1023 RMK ATIS C;
