0131104160999992011010104204+51517+007617FM-15+0148EDLW V0202501N004110033019N0080001N1+00201+00101999999ADDGA1071+003301999GF107991999999999999999999MA1102001999999REMMET062METAR EDLW 010420Z 25008KT 8000 BKN011 02/01 Q1020 RMK ATIS A;
0141104160999992011010104504+51517+007617FM-15+0148EDLW V0202501N005110018019N0070001N1+00201+00101999999ADDGA1071+001801999GF107991999999999999999999MA1102001999999MW1511REMMET066METAR EDLW 010450Z 25010KT 7000 -DZ BKN006 02/01 Q1020 RMK ATIS B;
0140104160999992011010105204+51517+007617FM-15+0148EDLW V0202401N005710018019N0050001N1+00201+00101999999ADDGA1071+001801999GF107991999999999999999999MA1101901999999MW1101REMMET065METAR EDLW 010520Z 24011KT 5000 BR BKN006 02/01 Q1019 RMK ATIS C;
0140104160999992011010105504+51517+007617FM-15+0148EDLW V0202501N005110012019N0050001N1+00201+00101999999ADDGA1071+001201999GF107991999999999999999999MA1101901999999MW1101REMMET065METAR EDLW 010550Z 25010KT 5000 BR BKN004 02/01 Q1019 RMK ATIS D;
0140104160999992011010106204+51517+007617FM-15+0148EDLW V0202501N004110006019N0040001N1+00201+00101999999ADDGA1071+000601999GF107991999999999999999999MA1101901999999MW1101REMMET065METAR EDLW 010620Z 25008KT 4000 BR BKN002 02/01 Q1019 RMK ATIS E;
0140104160999992011010106504+51517+007617FM-15+0148EDLW V0202401N006210006019N0040001N1+00201+00101999999ADDGA1071+000601999GF107991999999999999999999MA1101901999999MW1101REMMET065METAR EDLW 010650Z 24012KT 4000 BR BKN002 02/01 Q1019 RMK ATIS F;
0140104160999992011010107204+51517+007617FM-15+0148EDLW V0202301N006710009019N0025001N1+00201+00101999999ADDGA1071+000901999GF107991999999999999999999MA1101901999999MW1101REMMET065METAR EDLW 010720Z 23013KT 2500 BR BKN003 02/01 Q1019 RMK ATIS G;
0150104160999992011010107504+51517+007617FM-15+0148EDLW V0202401N006210009019N0030001N1+00201+00101999999ADDGA1071+000901999GF107991999999999999999999MA1101901999999MW1101MW2511REMMET069METAR EDLW 010750Z 24012KT 3000 -DZ BR BKN003 02/01 Q1019 RMK ATIS H;
0150104160999992011010108204+51517+007617FM-15+0148EDLW V0202401N006210015019N0030001N1+00201+00101999999ADDGA1071+001501999GF107991999999999999999999MA1101901999999MW1101MW2511REMMET069METAR EDLW 010820Z 24012KT 3000 -DZ BR BKN005 02/01 Q1019 RMK ATIS I;
0161104160999992011010109204+51517+007617FM-15+0148EDLW V0202401N006210012019N0040001N1+00201+00201999999ADDED124U14009GA1071+001201999GF107991999999999999999999MA1101901999999MW1101REMMET075METAR EDLW 010920Z 24012KT 4000 R24/1400N BR BKN004 02/02 Q1019 RMK ATIS K;
0140104160999992011010109504+51517+007617FM-15+0148EDLW V0202501N005710012019N0035001N1+00201+00201999999ADDGA1071+001201999GF107991999999999999999999MA1101901999999MW1101REMMET065METAR EDLW 010950Z 25011KT 3500 BR BKN004 02/02 Q1019 RMK ATIS L;
0140104160999992011010110204+51517+007617FM-15+0148EDLW V0202501N005710012019N0045001N1+00201+00201999999ADDGA1071+001201999GF107991999999999999999999MA1101901999999MW1101REMMET065METAR EDLW 011020Z 25011KT 4500 BR BKN004 02/02 Q1019 RMK ATIS M;
0150104160999992011010110504+51517+007617FM-15+0148EDLW V0202501N006210012019N0040001N1+00201+00201999999ADDGA1081+001201999GF108991999999999999999999MA1101901999999MW1101MW2611REMMET069METAR EDLW 011050Z 25012KT 4000 -RA BR OVC004 02/02 Q1019 RMK ATIS N;
0176104160999992011010111204+51517+007617FM-15+0148EDLW V0202501N004610012019N0045001N1+00201+00201999999ADDED124U09009GA1081+001201999GF108991999999999999999999MA1101901999999MW1101MW2611REMMET084METAR EDLW 011120Z 25009KT 4500 R24/0900V1300N -RA BR OVC004 02/02 Q1019 RMK ATIS O;
0150104160999992011010111504+51517+007617FM-15+0148EDLW V0202501N005110012019N0045001N1+00201+00201999999ADDGA1071+001201999GF107991999999999999999999MA1101801999999MW1101MW2611REMMET069METAR EDLW 011150Z 25010KT 4500 -RA BR BKN004 02/02 Q1018 RMK ATIS P;
0150104160999992011010112204+51517+007617FM-15+0148EDLW V0202601N004110006019N0030001N1+00201+00201999999ADDGA1081+000601999GF108991999999999999999999MA1101801999999MW1101MW2611REMMET069METAR EDLW 011220Z 26008KT 3000 -RA BR OVC002 02/02 Q1018 RMK ATIS Q;
0171104160999992011010112504+51517+007617FM-15+0148EDLW V0202701N004110006019N0020001N1+00201+00201999999ADDED124U12009GA1081+000601999GF108991999999999999999999MA1101801999999MW1101MW2611REMMET079METAR EDLW 011250Z 27008KT 2000 R24/1200N -RA BR OVC002 02/02 Q1018 RMK ATIS R;
0169104160999992011010113204+51517+007617FM-15+0148EDLW V0202701N003610003019N0010001N1+00201+00201999999ADDED124U10009GA1081+000301999GF108991999999999999999999MA1101801999999MW1101REMMET083METAR EDLW 011320Z 27007KT 250V310 1000 R24/1000D BR OVC001 02/02 Q1018 RMK ATIS S;
0169104160999992011010113504+51517+007617FM-15+0148EDLW V0202801N003110006019N0015001N1+00201+00201999999ADDED124U13009GA1081+000601999GF108991999999999999999999MA1101801999999MW1101REMMET083METAR EDLW 011350Z 28006KT 240V310 1500 R24/1300N BR OVC002 02/02 Q1018 RMK ATIS T;
0161104160999992011010114204+51517+007617FM-15+0148EDLW V0202701N002610012019N0018001N1+00201+00201999999ADDED124U13009GA1081+001201999GF108991999999999999999999MA1101801999999MW1101REMMET075METAR EDLW 011420Z 27005KT 1800 R24/1300N BR OVC004 02/02 Q1018 RMK ATIS U;
0140104160999992011010114504+51517+007617FM-15+0148EDLW V0209999V002610009019N0018001N1+00201+00201999999ADDGA1081+000901999GF108991999999999999999999MA1101901999999MW1101REMMET065METAR EDLW 011450Z VRB05KT 1800 BR OVC003 02/02 Q1019 RMK ATIS V;
0148104160999992011010115204+51517+007617FM-15+0148EDLW V0202801N002610009019N0020001N1+00201+00201999999ADDGA1081+000901999GF108991999999999999999999MA1101901999999MW1101REMMET073METAR EDLW 011520Z 28005KT 250V310 2000 BR OVC003 02/02 Q1019 RMK ATIS W;
0148104160999992011010115504+51517+007617FM-15+0148EDLW V0202901N002610009019N0020001N1+00201+00201999999ADDGA1081+000901999GF108991999999999999999999MA1101901999999MW1101REMMET073METAR EDLW 011550Z 29005KT 250V320 2000 BR OVC003 02/02 Q1019 RMK ATIS X;
0148104160999992011010116204+51517+007617FM-15+0148EDLW V0202701N002610009019N0020001N1+00201+00101999999ADDGA1081+000901999GF108991999999999999999999MA1101901999999MW1101REMMET073METAR EDLW 011620Z 27005KT 240V320 2000 BR OVC003 02/01 Q1019 RMK ATIS Y;
0148104160999992011010116504+51517+007617FM-15+0148EDLW V0202701N002110009019N0020001N1+00201+00101999999ADDGA1081+000901999GF108991999999999999999999MA1101901999999MW1101REMMET073METAR EDLW 011650Z 27004KT 240V300 2000 BR OVC003 02/01 Q1019 RMK ATIS Z;
0171104160999992011010117204+51517+007617FM-15+0148EDLW V0202801N002110060019N0040001N1+00101+00101999999ADDGA1041+001201999GA2071+006001999GF107991999999999999999999MA1101901999999MW1101REMMET080METAR EDLW 011720Z 28004KT 250V310 4000 BR SCT004 BKN020 01/01 Q1019 RMK ATIS A;
0148104160999992011010117504+51517+007617FM-15+0148EDLW V0202801N002610021019N0040001N1+00101+00101999999ADDGA1071+002101999GF107991999999999999999999MA1101901999999MW1101REMMET073METAR EDLW 011750Z 28005KT 250V310 4000 BR BKN007 01/01 Q1019 RMK ATIS B;
0162104160999992011010118204+51517+007617FM-15+0148EDLW V0202701N002612200019N0060001N1+00101+00001999999ADDGA1041+001801999GA2041+006001999GF104991999999999999999999MA1102001999999REMMET077METAR EDLW 011820Z 27005KT 250V310 6000 SCT006 SCT020 01/00 Q1020 RMK ATIS C;
0139104160999992011010118504+51517+007617FM-15+0148EDLW V0202701N002612200019N0080001N1+00101+00001999999ADDGA1021+006001999GF102991999999999999999999MA1102001999999REMMET070METAR EDLW 011850Z 27005KT 230V300 8000 FEW020 01/00 Q1020 RMK ATIS D;
0131104160999992011010119204+51517+007617FM-15+0148EDLW V0202701N002612200019N0080001N1+00001+00001999999ADDGF100991999999999999999999MA1102001999999REMMET059METAR EDLW 011920Z 27005KT 8000 NSC 00/00 Q1020 RMK ATIS E;EQDQ01    003SCCGA1
0133104160999992011010119504+51517+007617FM-15+0148EDLW V0202401N003112200019N0080001N1+00001-00101999999ADDGA1041+008101999GF104991999999999999999999MA1102001999999REMMET064METAR EDLW 011950Z 24006KT 8000 SCT027 M00/M01 Q1020 RMK ATIS F;
0131104160999992011010120204+51517+007617FM-15+0148EDLW V0202601N002610075019N0080001N1+00101+00001999999ADDGA1071+007501999GF107991999999999999999999MA1102001999999REMMET062METAR EDLW 012020Z 26005KT 8000 BKN025 01/00 Q1020 RMK ATIS G;
0120104160999992011010120504+51517+007617FM-15+0148EDLW V0202601N002610099019N0080001N1+00101+00001999999ADDGA1071+009901999GF107991999999999999999999MA1102001999999REMMET051METAR EDLW 012050Z 26005KT 8000 BKN033 01/00 Q1020;
0133104160999992011010204204+51517+007617FM-15+0148EDLW V0202501N004110090019N0060001N1-00101-00101999999ADDGA1071+009001999GF107991999999999999999999MA1102001999999REMMET064METAR EDLW 020420Z 25008KT 6000 BKN030 M01/M01 Q1020 RMK ATIS A;
0133104160999992011010204504+51517+007617FM-15+0148EDLW V0202601N002610144019N0112651N1+00001-00101999999ADDGA1071+014401999GF107991999999999999999999MA1102101999999REMMET064METAR EDLW 020450Z 26005KT 9999 BKN048 M00/M01 Q1021 RMK ATIS B;
0156104160999992011010205204+51517+007617FM-15+0148EDLW V0202701N003110111019N0112651N1+00001-00101999999ADDGA1041+006001999GA2071+011101999GF107991999999999999999999MA1102101999999REMMET071METAR EDLW 020520Z 27006KT 9999 SCT020 BKN037 M00/M01 Q1021 RMK ATIS C;
0156104160999992011010205504+51517+007617FM-15+0148EDLW V0202601N003610111019N0112651N1+00001-00101999999ADDGA1041+002101999GA2071+011101999GF107991999999999999999999MA1102101999999REMMET071METAR EDLW 020550Z 26007KT 9999 SCT007 BKN037 M00/M01 Q1021 RMK ATIS D;
0156104160999992011010206204+51517+007617FM-15+0148EDLW V0202601N003110114019N0112651N1-00101-00101999999ADDGA1021+002401999GA2071+011401999GF107991999999999999999999MA1102101999999REMMET071METAR EDLW 020620Z 26006KT 9999 FEW008 BKN038 M01/M01 Q1021 RMK ATIS E;
0164104160999992011010206504+51517+007617FM-15+0148EDLW V0202701N003110120019N0112651N1+00001-00101999999ADDGA1041+001801999GA2071+012001999GF107991999999999999999999MA1102101999999REMMET079METAR EDLW 020650Z 27006KT 240V310 9999 SCT006 BKN040 M00/M01 Q1021 RMK ATIS F;
0156104160999992011010207204+51517+007617FM-15+0148EDLW V0202601N003610087019N0112651N1+00001-00101999999ADDGA1041+002401999GA2071+008701999GF107991999999999999999999MA1102101999999REMMET071METAR EDLW 020720Z 26007KT 9999 SCT008 BKN029 M00/M01 Q1021 RMK ATIS G;
0140104160999992011010207504+51517+007617FM-15+0148EDLW V0202701N003610021019N0112651N1+00001-00101999999ADDGA1071+002101999GF107991999999999999999999MA1102101999999REMMET071METAR EDLW 020750Z 27007KT 240V310 9999 BKN007 00/M01 Q1021 RMK ATIS H;
0140104160999992011010208204+51517+007617FM-15+0148EDLW V0202701N002610021019N0112651N1+00001-00101999999ADDGA1071+002101999GF107991999999999999999999MA1102201999999REMMET071METAR EDLW 020820Z 27005KT 230V310 9999 BKN007 00/M01 Q1022 RMK ATIS I;
0140104160999992011010208504+51517+007617FM-15+0148EDLW V0202501N003110024019N0090001N1+00001+00001999999ADDGA1071+002401999GF107991999999999999999999MA1102201999999REMMET071METAR EDLW 020850Z 25006KT 180V290 9000 BKN008 00/M00 Q1022 RMK ATIS J;
0163104160999992011010209204+51517+007617FM-15+0148EDLW V0202701N003610120019N0090001N1+00001-00101999999ADDGA1021+002401999GA2071+012001999GF107991999999999999999999MA1102201999999REMMET078METAR EDLW 020920Z 27007KT 240V300 9000 FEW008 BKN040 00/M01 Q1022 RMK ATIS K;
0140104160999992011010209504+51517+007617FM-15+0148EDLW V0202601N003110021019N0090001N1+00101+00001999999ADDGA1071+002101999GF107991999999999999999999MA1102201999999REMMET071METAR EDLW 020950Z 26006KT 240V300 9000 BKN007 01/M00 Q1022 RMK ATIS L;
0140104160999992011010210204+51517+007617FM-15+0148EDLW V0202601N003610021019N0112651N1+00101+00001999999ADDGA1071+002101999GF107991999999999999999999MA1102201999999REMMET071METAR EDLW 021020Z 26007KT 230V290 9999 BKN007 01/M00 Q1022 RMK ATIS M;
0139104160999992011010210504+51517+007617FM-15+0148EDLW V0202601N003610018019N0070001N1+00101+00001999999ADDGA1071+001801999GF107991999999999999999999MA1102201999999REMMET070METAR EDLW 021050Z 26007KT 230V290 7000 BKN006 01/00 Q1022 RMK ATIS N;
0140104160999992011010211504+51517+007617FM-15+0148EDLW V0202701N004112200019N0080001N1+00101+00001999999ADDGA1041+001801999GF104991999999999999999999MA1102201999999REMMET071METAR EDLW 021150Z 27008KT 240V300 8000 SCT006 01/M00 Q1022 RMK ATIS Q;
0139104160999992011010212204+51517+007617FM-15+0148EDLW V0202701N003112200019N0080001N1+00101+00001999999ADDGA1041+002101999GF104991999999999999999999MA1102201999999REMMET070METAR EDLW 021220Z 27006KT 240V300 8000 SCT007 01/00 Q1022 RMK ATIS R;
0131104160999992011010212504+51517+007617FM-15+0148EDLW V0202601N003612200019N0090001N1+00201+00001999999ADDGA1041+003601999GF104991999999999999999999MA1102201999999REMMET062METAR EDLW 021250Z 26007KT 9000 SCT012 02/00 Q1022 RMK ATIS S;
0132104160999992011010213204+51517+007617FM-15+0148EDLW V0202501N003612200019N0112651N1+00101+00001999999ADDGA1021+002701999GF102991999999999999999999MA1102201999999REMMET063METAR EDLW 021320Z 25007KT 9999 FEW009 01/M00 Q1022 RMK ATIS T;
0140104160999992011010214204+51517+007617FM-15+0148EDLW V0202701N003112200019N0112651N1+00201+00001999999ADDGA1041+005101999GF104991999999999999999999MA1102201999999REMMET071METAR EDLW 021420Z 27006KT 240V300 9999 SCT017 02/M00 Q1022 RMK ATIS V;
0139104160999992011010214504+51517+007617FM-15+0148EDLW V0202801N003610048019N0112651N1+00201+00001999999ADDGA1071+004801999GF107991999999999999999999MA1102201999999REMMET070METAR EDLW 021450Z 28007KT 240V320 9999 BKN016 02/00 Q1022 RMK ATIS W;
0140104160999992011010215204+51517+007617FM-15+0148EDLW V0202801N003610057019N0112651N1+00201+00001999999ADDGA1071+005701999GF107991999999999999999999MA1102201999999REMMET071METAR EDLW 021520Z 28007KT 250V320 9999 BKN019 02/M00 Q1022 RMK ATIS X;
0132104160999992011010215504+51517+007617FM-15+0148EDLW V0202701N003110054019N0112651N1+00201+00001999999ADDGA1071+005401999GF107991999999999999999999MA1102201999999REMMET063METAR EDLW 021550Z 27006KT 9999 BKN018 02/M00 Q1022 RMK ATIS Y;
0132104160999992011010216204+51517+007617FM-15+0148EDLW V0202801N003112200019N0112651N1+00201+00001999999ADDGA1041+004201999GF104991999999999999999999MA1102201999999REMMET063METAR EDLW 021620Z 28006KT 9999 SCT014 02/M00 Q1022 RMK ATIS Z;
0131104160999992011010216504+51517+007617FM-15+0148EDLW V0202601N003112200019N0112651N1+00201+00001999999ADDGA1041+003901999GF104991999999999999999999MA1102201999999REMMET062METAR EDLW 021650Z 26006KT 9999 SCT013 02/00 Q1022 RMK ATIS A;
0131104160999992011010217204+51517+007617FM-15+0148EDLW V0202701N003112200019N0112651N1+00201+00001999999ADDGA1041+004801999GF104991999999999999999999MA1102201999999REMMET062METAR EDLW 021720Z 27006KT 9999 SCT016 02/00 Q1022 RMK ATIS B;
0154104160999992011010217504+51517+007617FM-15+0148EDLW V0202701N003610135019N0112651N1+00101+00001999999ADDGA1041+006001999GA2071+013501999GF107991999999999999999999MA1102201999999REMMET069METAR EDLW 021750Z 27007KT 9999 SCT020 BKN045 01/00 Q1022 RMK ATIS C;
0139104160999992011010218204+51517+007617FM-15+0148EDLW V0202701N003112200019N0112651N1+00101+00001999999ADDGA1041+005101999GF104991999999999999999999MA1102201999999REMMET070METAR EDLW 021820Z 27006KT 240V300 9999 SCT017 01/00 Q1022 RMK ATIS D;
0131104160999992011010218504+51517+007617FM-15+0148EDLW V0202701N003610129019N0112651N1+00101+00001999999ADDGA1071+012901999GF107991999999999999999999MA1102201999999REMMET062METAR EDLW 021850Z 27007KT 9999 BKN043 01/00 Q1022 RMK ATIS E;
0084104160999992011010219204+51517+007617FM-15+0148EDLW V0202701N003619999999Y0099001N1+00101+00001999999ADDMA1102201999999REMMET057METAR EDLW 021920Z 27007KT CAVOK 01/M00 Q1022 RMK ATIS F;
0155104160999992011010219504+51517+007617FM-15+0148EDLW V0202701N003610132019N0112651N1+00101+00001999999ADDGA1041+002701999GA2071+013201999GF107991999999999999999999MA1102301999999REMMET070METAR EDLW 021950Z 27007KT 9999 SCT009 BKN044 01/M00 Q1023 RMK ATIS G;
0155104160999992011010220204+51517+007617FM-15+0148EDLW V0202601N003110114019N0112651N1+00101+00001999999ADDGA1041+006601999GA2071+011401999GF107991999999999999999999MA1102301999999REMMET070METAR EDLW 022020Z 26006KT 9999 SCT022 BKN038 01/M00 Q1023 RMK ATIS H;
0132104160999992011010220504+51517+007617FM-15+0148EDLW V0202601N003112200019N0112651N1+00101+00001999999ADDGA1041+008401999GF104991999999999999999999MA1102301999999REMMET063METAR EDLW 022050Z 26006KT 9999 SCT028 01/M00 Q1023 RMK ATIS I;
0132104160999992011010304204+51517+007617FM-15+0148EDLW V0202601N003610015019N0090001N1+00001+00001999999ADDGA1081+001501999GF108991999999999999999999MA1102301999999REMMET063METAR EDLW 030420Z 26007KT 9000 OVC005 00/M00 Q1023 RMK ATIS A;
0132104160999992011010304504+51517+007617FM-15+0148EDLW V0202601N002610015019N0070001N1+00001+00001999999ADDGA1081+001501999GF108991999999999999999999MA1102301999999REMMET063METAR EDLW 030450Z 26005KT 7000 OVC005 00/M00 Q1023 RMK ATIS B;
0132104160999992011010305204+51517+007617FM-15+0148EDLW V0202501N002610015019N0070001N1+00001+00001999999ADDGA1081+001501999GF108991999999999999999999MA1102301999999REMMET063METAR EDLW 030520Z 25005KT 7000 OVC005 00/M00 Q1023 RMK ATIS C;
0150104160999992011010305504+51517+007617FM-15+0148EDLW V0202601N002610015019N0060001N1+00001+00001999999ADDGA1081+001501999GF108991999999999999999999MA1102301999999MW1711REMMET075METAR EDLW 030550Z 26005KT 230V290 6000 -SN OVC005 00/M00 Q1023 RMK ATIS D;
0150104160999992011010306204+51517+007617FM-15+0148EDLW V0202601N002610012019N0060001N1+00001+00001999999ADDGA1081+001201999GF108991999999999999999999MA1102301999999MW1711REMMET075METAR EDLW 030620Z 26005KT 230V300 6000 -SN OVC004 00/M00 Q1023 RMK ATIS E;
0132104160999992011010306504+51517+007617FM-15+0148EDLW V0202601N003110012019N0060001N1+00001+00001999999ADDGA1081+001201999GF108991999999999999999999MA1102301999999REMMET063METAR EDLW 030650Z 26006KT 6000 OVC004 00/M00 Q1023 RMK ATIS F;
0140104160999992011010307204+51517+007617FM-15+0148EDLW V0202501N002610015019N0060001N1+00001+00001999999ADDGA1081+001501999GF108991999999999999999999MA1102301999999REMMET071METAR EDLW 030720Z 25005KT 170V310 6000 OVC005 00/M00 Q1023 RMK ATIS G;
0149104160999992011010307504+51517+007617FM-15+0148EDLW V0202701N003110012019N0035001N1+00001+00001999999ADDGA1081+001201999GF108991999999999999999999MA1102301999999MW1101REMMET074METAR EDLW 030750Z 27006KT 250V310 3500 BR OVC004 00/M00 Q1023 RMK ATIS H;
0149104160999992011010308204+51517+007617FM-15+0148EDLW V0202701N003110012019N0050001N1+00001+00001999999ADDGA1071+001201999GF107991999999999999999999MA1102301999999MW1101REMMET074METAR EDLW 030820Z 27006KT 230V300 5000 BR BKN004 00/M00 Q1023 RMK ATIS I;
0141104160999992011010308504+51517+007617FM-15+0148EDLW V0202601N003110012019N0050001N1+00001-00101999999ADDGA1071+001201999GF107991999999999999999999MA1102301999999MW1101REMMET066METAR EDLW 030850Z 26006KT 5000 BR BKN004 00/M01 Q1023 RMK ATIS J;
0141104160999992011010309204+51517+007617FM-15+0148EDLW V0202501N004110012019N0050001N1+00001-00101999999ADDGA1071+001201999GF107991999999999999999999MA1102301999999MW1101REMMET066METAR EDLW 030920Z 25008KT 5000 BR BKN004 00/M01 Q1023 RMK ATIS K;
0141104160999992011010309504+51517+007617FM-15+0148EDLW V0202501N003110012019N0040001N1+00001+00001999999ADDGA1081+001201999GF108991999999999999999999MA1102301999999MW1101REMMET066METAR EDLW 030950Z 25006KT 4000 BR OVC004 00/M00 Q1023 RMK ATIS L;
0185104160999992011010310204+51517+007617FM-15+0148EDLW V0202501N003610012019N0015001N1+00001+00001999999ADDED124U13009GA1041+000901999GA2081+001201999GF108991999999999999999999MA1102301999999MW1101REMMET083METAR EDLW 031020Z 25007KT 1500 R24/1300N BR SCT003 OVC004 00/M00 Q1023 RMK ATIS M;
0164104160999992011010310504+51517+007617FM-15+0148EDLW V0202401N004110012019N0025001N1+00001+00001999999ADDGA1041+000901999GA2081+001201999GF108991999999999999999999MA1102301999999MW1101REMMET073METAR EDLW 031050Z 24008KT 2500 BR SCT003 OVC004 00/M00 Q1023 RMK ATIS N;
0141104160999992011010311204+51517+007617FM-15+0148EDLW V0202401N003610012019N0020001N1+00001+00001999999ADDGA1081+001201999GF108991999999999999999999MA1102301999999MW1101REMMET066METAR EDLW 031120Z 24007KT 2000 BR OVC004 00/M00 Q1023 RMK ATIS O;
0141104160999992011010311504+51517+007617FM-15+0148EDLW V0202401N003110012019N0025001N1+00001+00001999999ADDGA1081+001201999GF108991999999999999999999MA1102301999999MW1101REMMET066METAR EDLW 031150Z 24006KT 2500 BR OVC004 00/M00 Q1023 RMK ATIS P;
0140104160999992011010312204+51517+007617FM-15+0148EDLW V0202401N003610012019N0025001N1+00101+00001999999ADDGA1081+001201999GF108991999999999999999999MA1102301999999MW1101REMMET065METAR EDLW 031220Z 24007KT 2500 BR OVC004 01/00 Q1023 RMK ATIS Q;
0162104160999992011010312504+51517+007617FM-15+0148EDLW V0202401N003110012019N0030001N1+00101+00001999999ADDED124U13009GA1081+001201999GF108991999999999999999999MA1102301999999MW1101REMMET076METAR EDLW 031250Z 24006KT 3000 R24/1300N BR OVC004 01/M00 Q1023 RMK ATIS R;
0141104160999992011010313204+51517+007617FM-15+0148EDLW V0202401N003610021019N0050001N1+00101+00001999999ADDGA1071+002101999GF107991999999999999999999MA1102201999999MW1101REMMET066METAR EDLW 031320Z 24007KT 5000 BR BKN007 01/M00 Q1022 RMK ATIS S;
0141104160999992011010313504+51517+007617FM-15+0148EDLW V0202401N004610021019N0050001N1+00101+00001999999ADDGA1071+002101999GF107991999999999999999999MA1102201999999MW1101REMMET066METAR EDLW 031350Z 24009KT 5000 BR BKN007 01/M00 Q1022 RMK ATIS T;
0132104160999992011010314204+51517+007617FM-15+0148EDLW V0202501N003610021019N0060001N1+00101+00001999999ADDGA1071+002101999GF107991999999999999999999MA1102301999999REMMET063METAR EDLW 031420Z 25007KT 6000 BKN007 01/M00 Q1023 RMK ATIS U;
0132104160999992011010314504+51517+007617FM-15+0148EDLW V0202401N003610021019N0060001N1+00001-00101999999ADDGA1071+002101999GF107991999999999999999999MA1102201999999REMMET063METAR EDLW 031450Z 24007KT 6000 BKN007 00/M01 Q1022 RMK ATIS V;
0141104160999992011010315204+51517+007617FM-15+0148EDLW V0202301N003610021019N0050001N1+00001-00101999999ADDGA1071+002101999GF107991999999999999999999MA1102301999999MW1101REMMET066METAR EDLW 031520Z 23007KT 5000 BR BKN007 00/M01 Q1023 RMK ATIS W;
0141104160999992011010315504+51517+007617FM-15+0148EDLW V0202501N002610018019N0045001N1+00001+00001999999ADDGA1071+001801999GF107991999999999999999999MA1102201999999MW1101REMMET066METAR EDLW 031550Z 25005KT 4500 BR BKN006 00/M00 Q1022 RMK ATIS X;
0141104160999992011010316204+51517+007617FM-15+0148EDLW V0202201N002112200019N0070001N1+00001-00101999999ADDGA1041+002101999GF104991999999999999999999MA1102201999999REMMET072METAR EDLW 031620Z 22004KT 190V250 7000 SCT007 M00/M01 Q1022 RMK ATIS Y;
0133104160999992011010316504+51517+007617FM-15+0148EDLW V0202401N002612200019N0080001N1-00101-00101999999ADDGA1041+002101999GF104991999999999999999999MA1102201999999REMMET064METAR EDLW 031650Z 24005KT 8000 SCT007 M01/M01 Q1022 RMK ATIS Z;
0133104160999992011010317204+51517+007617FM-15+0148EDLW V0202301N003110021019N0090001N1-00101-00101999999ADDGA1071+002101999GF107991999999999999999999MA1102201999999REMMET064METAR EDLW 031720Z 23006KT 9000 BKN007 M01/M01 Q1022 RMK ATIS A;
0133104160999992011010317504+51517+007617FM-15+0148EDLW V0202401N003110024019N0090001N1-00101-00101999999ADDGA1071+002401999GF107991999999999999999999MA1102201999999REMMET064METAR EDLW 031750Z 24006KT 9000 BKN008 M01/M01 Q1022 RMK ATIS B;
0133104160999992011010318204+51517+007617FM-15+0148EDLW V0202401N002110030019N0090001N1-00101-00101999999ADDGA1071+003001999GF107991999999999999999999MA1102201999999REMMET064METAR EDLW 031820Z 24004KT 9000 BKN010 M01/M01 Q1022 RMK ATIS C;
0156104160999992011010318504+51517+007617FM-15+0148EDLW V0202601N002110066019N0090001N1-00101-00201999999ADDGA1021+004201999GA2071+006601999GF107991999999999999999999MA1102201999999REMMET071METAR EDLW 031850Z 26004KT 9000 FEW014 BKN022 M01/M02 Q1022 RMK ATIS D;
0133104160999992011010319204+51517+007617FM-15+0148EDLW V0202401N002610024019N0112651N1-00101-00201999999ADDGA1071+002401999GF107991999999999999999999MA1102201999999REMMET064METAR EDLW 031920Z 24005KT 9999 BKN008 M01/M02 Q1022 RMK ATIS E;
0133104160999992011010319504+51517+007617FM-15+0148EDLW V0202101N003610030019N0112651N1+00001-00201999999ADDGA1071+003001999GF107991999999999999999999MA1102101999999REMMET064METAR EDLW 031950Z 21007KT 9999 BKN010 M00/M02 Q1021 RMK ATIS F;
0133104160999992011010320204+51517+007617FM-15+0148EDLW V0201901N003110036019N0112651N1-00101-00201999999ADDGA1071+003601999GF107991999999999999999999MA1102101999999REMMET064METAR EDLW 032020Z 19006KT 9999 BKN012 M01/M02 Q1021 RMK ATIS G;
0085104160999992011010320504+51517+007617FM-15+0148EDLW V0202001N003619999999Y0099001N1+00001-00201999999ADDMA1102101999999REMMET058METAR EDLW 032050Z 20007KT CAVOK M00/M02 Q1021 RMK ATIS G;
0142104160999992011010404204+51517+007617FM-15+0148EDLW V0202301N004610036019N0025001N1+00001+00001999999ADDGA1071+003601999GF107991999999999999999999MA1101901999999MW1711REMMET067METAR EDLW 040420Z 23009KT 2500 -SN BKN012 00/M00 Q1019 RMK ATIS A;
0155104160999992011010404504+51517+007617FM-15+0148EDLW V0202201N004110150019N0070001N1+00001-00101999999ADDGA1041+004501999GA2071+015001999GF107991999999999999999999MA1101801999999REMMET070METAR EDLW 040450Z 22008KT 7000 SCT015 BKN050 00/M01 Q1018 RMK ATIS B;
0165104160999992011010405204+51517+007617FM-15+0148EDLW V0202201N004610210019N0070001N1+00001-00101999999ADDGA1041+003001999GA2081+021001999GF108991999999999999999999MA1101801999999MW1711REMMET074METAR EDLW 040520Z 22009KT 7000 -SN SCT010 OVC070 00/M01 Q1018 RMK ATIS C;
0165104160999992011010405504+51517+007617FM-15+0148EDLW V0202101N004110210019N0080001N1+00001-00101999999ADDGA1041+004501999GA2071+021001999GF107991999999999999999999MA1101801999999MW1711REMMET074METAR EDLW 040550Z 21008KT 8000 -SN SCT015 BKN070 00/M01 Q1018 RMK ATIS D;
0165104160999992011010406204+51517+007617FM-15+0148EDLW V0202201N004610210019N0080001N1+00001-00101999999ADDGA1041+004201999GA2071+021001999GF107991999999999999999999MA1101801999999MW1711REMMET074METAR EDLW 040620Z 22009KT 8000 -SN SCT014 BKN071 00/M01 Q1018 RMK ATIS E;
0132104160999992011010406504+51517+007617FM-15+0148EDLW V0202301N004612200019N0070001N1+00001-00101999999ADDGF100991999999999999999999MA1101801999999REMMET060METAR EDLW 040650Z 23009KT 7000 NSC 00/M01 Q1018 RMK ATIS F;EQDQ01    003SCCGA1
0155104160999992011010407204+51517+007617FM-15+0148EDLW V0202201N004110210019N0080001N1+00001-00101999999ADDGA1021+004501999GA2081+021001999GF108991999999999999999999MA1101801999999REMMET070METAR EDLW 040720Z 22008KT 8000 FEW015 OVC070 00/M01 Q1018 RMK ATIS G;
0156104160999992011010407504+51517+007617FM-15+0148EDLW V0202201N004110210019N0070001N1+00001-00101999999ADDGA1021+003901999GA2081+021001999GF108991999999999999999999MA1101801999999REMMET071METAR EDLW 040750Z 22008KT 7000 FEW013 OVC070 M00/M01 Q1018 RMK ATIS H;
0156104160999992011010408204+51517+007617FM-15+0148EDLW V0202101N003110180019N0070001N1+00001-00201999999ADDGA1021+003601999GA2081+018001999GF108991999999999999999999MA1101801999999REMMET071METAR EDLW 040820Z 21006KT 7000 FEW012 OVC068 M00/M02 Q1018 RMK ATIS I;
0085104160999992011010408504+51517+007617FM-15+0148EDLW V0202101N004119999999Y0099001N1+00001-00201999999ADDMA1101801999999REMMET058METAR EDLW 040850Z 21008KT CAVOK M00/M02 Q1018 RMK ATIS J;
0085104160999992011010409204+51517+007617FM-15+0148EDLW V0202101N003619999999Y0099001N1-00101-00201999999ADDMA1101801999999REMMET058METAR EDLW 040920Z 21007KT CAVOK M01/M02 Q1018 RMK ATIS K;
0085104160999992011010409504+51517+007617FM-15+0148EDLW V0202001N004119999999Y0099001N1+00001-00201999999ADDMA1101801999999REMMET058METAR EDLW 040950Z 20008KT CAVOK M00/M02 Q1018 RMK ATIS L;
0084104160999992011010410204+51517+007617FM-15+0148EDLW V0202001N004619999999Y0099001N1+00001-00201999999ADDMA1101801999999REMMET057METAR EDLW 041020Z 20009KT CAVOK 00/M02 Q1018 RMK ATIS M;
0084104160999992011010410504+51517+007617FM-15+0148EDLW V0202101N005119999999Y0099001N1+00001-00301999999ADDMA1101801999999REMMET057METAR EDLW 041050Z 21010KT CAVOK 00/M03 Q1018 RMK ATIS N;
0084104160999992011010411204+51517+007617FM-15+0148EDLW V0202101N004119999999Y0099001N1+00101-00301999999ADDMA1101691999999REMMET057METAR EDLW 041120Z 21008KT CAVOK 01/M03 Q1017 RMK ATIS O;
0132104160999992011010411504+51517+007617FM-15+0148EDLW V0202001N005112200019N0112651N1+00101-00301999999ADDGA1021+004801999GF102991999999999999999999MA1101691999999REMMET063METAR EDLW 041150Z 20010KT 9999 FEW016 01/M03 Q1017 RMK ATIS P;
0132104160999992011010412204+51517+007617FM-15+0148EDLW V0202001N004612200019N0112651N1+00101-00301999999ADDGA1021+005401999GF102991999999999999999999MA1101691999999REMMET063METAR EDLW 041220Z 20009KT 9999 FEW018 01/M03 Q1017 RMK ATIS Q;
0132104160999992011010412504+51517+007617FM-15+0148EDLW V0202101N005712200019N0112651N1+00101-00301999999ADDGA1021+005401999GF102991999999999999999999MA1101691999999REMMET063METAR EDLW 041250Z 21011KT 9999 FEW018 01/M03 Q1017 RMK ATIS R;
0084104160999992011010413204+51517+007617FM-15+0148EDLW V0202101N004619999999Y0099001N1+00101-00301999999ADDMA1101691999999REMMET057METAR EDLW 041320Z 21009KT CAVOK 01/M03 Q1017 RMK ATIS S;
0084104160999992011010413504+51517+007617FM-15+0148EDLW V0202201N004119999999Y0099001N1+00001-00301999999ADDMA1101691999999REMMET057METAR EDLW 041350Z 22008KT CAVOK 00/M03 Q1017 RMK ATIS T;
0084104160999992011010414204+51517+007617FM-15+0148EDLW V0202301N003119999999Y0099001N1+00001-00301999999ADDMA1101591999999REMMET057METAR EDLW 041420Z 23006KT CAVOK 00/M03 Q1016 RMK ATIS U;
0085104160999992011010414504+51517+007617FM-15+0148EDLW V0202101N002619999999Y0099001N1+00001-00401999999ADDMA1101591999999REMMET058METAR EDLW 041450Z 21005KT CAVOK M00/M04 Q1016 RMK ATIS V;
0085104160999992011010415204+51517+007617FM-15+0148EDLW V0202001N003619999999Y0099001N1-00101-00401999999ADDMA1101591999999REMMET058METAR EDLW 041520Z 20007KT CAVOK M01/M04 Q1016 RMK ATIS W;
0085104160999992011010415504+51517+007617FM-15+0148EDLW V0202101N003119999999Y0099001N1-00101-00401999999ADDMA1101591999999REMMET058METAR EDLW 041550Z 21006KT CAVOK M01/M04 Q1016 RMK ATIS X;
0085104160999992011010416204+51517+007617FM-15+0148EDLW V0202001N004119999999Y0099001N1-00101-00401999999ADDMA1101591999999REMMET058METAR EDLW 041620Z 20008KT CAVOK M01/M04 Q1016 RMK ATIS Y;
0085104160999992011010416504+51517+007617FM-15+0148EDLW V0201801N005719999999Y0099001N1-00101-00401999999ADDMA1101591999999REMMET058METAR EDLW 041650Z 18011KT CAVOK M01/M04 Q1016 RMK ATIS Z;
0085104160999992011010417204+51517+007617FM-15+0148EDLW V0201801N006719999999Y0099001N1-00101-00401999999ADDMA1101591999999REMMET058METAR EDLW 041720Z 18013KT CAVOK M01/M04 Q1016 RMK ATIS A;
0085104160999992011010417504+51517+007617FM-15+0148EDLW V0201801N005119999999Y0099001N1-00201-00501999999ADDMA1101591999999REMMET058METAR EDLW 041750Z 18010KT CAVOK M02/M05 Q1016 RMK ATIS B;
0085104160999992011010418204+51517+007617FM-15+0148EDLW V0201901N005119999999Y0099001N1-00201-00501999999ADDMA1101491999999REMMET058METAR EDLW 041820Z 19010KT CAVOK M02/M05 Q1015 RMK ATIS C;
0085104160999992011010418504+51517+007617FM-15+0148EDLW V0201901N003619999999Y0099001N1-00201-00501999999ADDMA1101591999999REMMET058METAR EDLW 041850Z 19007KT CAVOK M02/M05 Q1016 RMK ATIS D;
0085104160999992011010419204+51517+007617FM-15+0148EDLW V0201901N003619999999Y0099001N1-00301-00501999999ADDMA1101591999999REMMET058METAR EDLW 041920Z 19007KT CAVOK M03/M05 Q1016 RMK ATIS E;
0085104160999992011010419504+51517+007617FM-15+0148EDLW V0201901N004119999999Y0099001N1-00201-00501999999ADDMA1101591999999REMMET058METAR EDLW 041950Z 19008KT CAVOK M02/M05 Q1016 RMK ATIS F;
0085104160999992011010420204+51517+007617FM-15+0148EDLW V0201801N005119999999Y0099001N1-00201-00501999999ADDMA1101591999999REMMET058METAR EDLW 042020Z 18010KT CAVOK M02/M05 Q1016 RMK ATIS G;
0074104160999992011010420504+51517+007617FM-15+0148EDLW V0201701N006219999999Y0099001N1-00301-00501999999ADDMA1101491999999REMMET047METAR EDLW 042050Z 17012KT CAVOK M03/M05 Q1015;
0085104160999992011010504204+51517+007617FM-15+0148EDLW V0201801N006219999999Y0099001N1-00401-00601999999ADDMA1101291999999REMMET058METAR EDLW 050420Z 18012KT CAVOK M04/M06 Q1013 RMK ATIS A;
0085104160999992011010504504+51517+007617FM-15+0148EDLW V0201701N006219999999Y0099001N1-00401-00601999999ADDMA1101291999999REMMET058METAR EDLW 050450Z 17012KT CAVOK M04/M06 Q1013 RMK ATIS B;
0085104160999992011010505204+51517+007617FM-15+0148EDLW V0201701N006719999999Y0099001N1-00401-00601999999ADDMA1101191999999REMMET058METAR EDLW 050520Z 17013KT CAVOK M04/M06 Q1012 RMK ATIS C;
0085104160999992011010505504+51517+007617FM-15+0148EDLW V0201801N005119999999Y0099001N1-00401-00601999999ADDMA1101191999999REMMET058METAR EDLW 050550Z 18010KT CAVOK M04/M06 Q1012 RMK ATIS D;
0085104160999992011010506204+51517+007617FM-15+0148EDLW V0201701N005119999999Y0099001N1-00401-00601999999ADDMA1101191999999REMMET058METAR EDLW 050620Z 17010KT CAVOK M04/M06 Q1012 RMK ATIS E;
0085104160999992011010506504+51517+007617FM-15+0148EDLW V0201701N005719999999Y0099001N1-00401-00601999999ADDMA1101191999999REMMET058METAR EDLW 050650Z 17011KT CAVOK M04/M06 Q1012 RMK ATIS F;
0085104160999992011010507204+51517+007617FM-15+0148EDLW V0201701N006219999999Y0099001N1-00401-00601999999ADDMA1101191999999REMMET058METAR EDLW 050720Z 17012KT CAVOK M04/M06 Q1012 RMK ATIS G;
0085104160999992011010507504+51517+007617FM-15+0148EDLW V0201701N008219999999Y0099001N1-00401-00601999999ADDMA1101191999999REMMET058METAR EDLW 050750Z 17016KT CAVOK M04/M06 Q1012 RMK ATIS H;
0085104160999992011010508204+51517+007617FM-15+0148EDLW V0201801N007719999999Y0099001N1-00401-00601999999ADDMA1101191999999REMMET058METAR EDLW 050820Z 18015KT CAVOK M04/M06 Q1012 RMK ATIS I;
0085104160999992011010508504+51517+007617FM-15+0148EDLW V0201801N005719999999Y0099001N1-00301-00701999999ADDMA1101191999999REMMET058METAR EDLW 050850Z 18011KT CAVOK M03/M07 Q1012 RMK ATIS J;
0093104160999992011010509204+51517+007617FM-15+0148EDLW V0201801N004619999999Y0099001N1-00301-00701999999ADDMA1101081999999REMMET066METAR EDLW 050920Z 18009KT 150V220 CAVOK M03/M07 Q1011 RMK ATIS K;
0085104160999992011010509504+51517+007617FM-15+0148EDLW V0201801N005119999999Y0099001N1-00301-00701999999ADDMA1101081999999REMMET058METAR EDLW 050950Z 18010KT CAVOK M03/M07 Q1011 RMK ATIS L;
0085104160999992011010510204+51517+007617FM-15+0148EDLW V0201701N006219999999Y0099001N1-00201-00701999999ADDMA1101081999999REMMET058METAR EDLW 051020Z 17012KT CAVOK M02/M07 Q1011 RMK ATIS M;
0085104160999992011010510504+51517+007617FM-15+0148EDLW V0201801N006719999999Y0099001N1-00201-00701999999ADDMA1101081999999REMMET058METAR EDLW 051050Z 18013KT CAVOK M02/M07 Q1011 RMK ATIS N;
0085104160999992011010511204+51517+007617FM-15+0148EDLW V0201701N008219999999Y0099001N1-00201-00701999999ADDMA1101021999999REMMET058METAR EDLW 051120Z 17016KT CAVOK M02/M07 Q1010 RMK ATIS O;
0085104160999992011010511504+51517+007617FM-15+0148EDLW V0201601N005119999999Y0099001N1-00101-00701999999ADDMA1101021999999REMMET058METAR EDLW 051150Z 16010KT CAVOK M01/M07 Q1010 RMK ATIS P;
0085104160999992011010512204+51517+007617FM-15+0148EDLW V0201601N005119999999Y0099001N1-00201-00701999999ADDMA1101021999999REMMET058METAR EDLW 051220Z 16010KT CAVOK M02/M07 Q1010 RMK ATIS Q;
0085104160999992011010512504+51517+007617FM-15+0148EDLW V0201501N004119999999Y0099001N1-00101-00701999999ADDMA1100911999999REMMET058METAR EDLW 051250Z 15008KT CAVOK M01/M07 Q1009 RMK ATIS R;
0133104160999992011010513204+51517+007617FM-15+0148EDLW V0201701N004612200019N0112651N1-00101-00701999999ADDGA1041+011701999GF104991999999999999999999MA1100911999999REMMET064METAR EDLW 051320Z 17009KT 9999 SCT039 M01/M07 Q1009 RMK ATIS S;
0133104160999992011010513504+51517+007617FM-15+0148EDLW V0201701N005110123019N0112651N1-00101-00701999999ADDGA1071+012301999GF107991999999999999999999MA1100911999999REMMET064METAR EDLW 051350Z 17010KT 9999 BKN041 M01/M07 Q1009 RMK ATIS T;
0133104160999992011010514204+51517+007617FM-15+0148EDLW V0201601N005712200019N0112651N1-00101-00601999999ADDGA1041+012301999GF104991999999999999999999MA1100811999999REMMET064METAR EDLW 051420Z 16011KT 9999 SCT041 M01/M06 Q1008 RMK ATIS U;
0093104160999992011010514504+51517+007617FM-15+0148EDLW V0201601N004619999999Y0099001N1-00101-00701999999ADDMA1100711999999REMMET066METAR EDLW 051450Z 16009KT 130V190 CAVOK M01/M07 Q1007 RMK ATIS V;
0085104160999992011010515204+51517+007617FM-15+0148EDLW V0201601N004619999999Y0099001N1-00101-00701999999ADDMA1100711999999REMMET058METAR EDLW 051520Z 16009KT CAVOK M01/M07 Q1007 RMK ATIS W;
0085104160999992011010515504+51517+007617FM-15+0148EDLW V0201701N004619999999Y0099001N1-00201-00701999999ADDMA1100711999999REMMET058METAR EDLW 051550Z 17009KT CAVOK M02/M07 Q1007 RMK ATIS X;
0085104160999992011010516204+51517+007617FM-15+0148EDLW V0202001N002619999999Y0099001N1-00201-00601999999ADDMA1100611999999REMMET058METAR EDLW 051620Z 20005KT CAVOK M02/M06 Q1006 RMK ATIS Y;
0085104160999992011010516504+51517+007617FM-15+0148EDLW V0201701N003619999999Y0099001N1-00201-00601999999ADDMA1100611999999REMMET058METAR EDLW 051650Z 17007KT CAVOK M02/M06 Q1006 RMK ATIS Z;
0093104160999992011010517204+51517+007617FM-15+0148EDLW V0201801N003619999999Y0099001N1-00201-00601999999ADDMA1100611999999REMMET066METAR EDLW 051720Z 18007KT 150V210 CAVOK M02/M06 Q1006 RMK ATIS A;
0085104160999992011010517504+51517+007617FM-15+0148EDLW V0201801N004619999999Y0099001N1-00201-00601999999ADDMA1100511999999REMMET058METAR EDLW 051750Z 18009KT CAVOK M02/M06 Q1005 RMK ATIS B;
0085104160999992011010518204+51517+007617FM-15+0148EDLW V0201801N006719999999Y0099001N1-00101-00501999999ADDMA1100411999999REMMET058METAR EDLW 051820Z 18013KT CAVOK M01/M05 Q1004 RMK ATIS C;
0085104160999992011010518504+51517+007617FM-15+0148EDLW V0201801N007219999999Y0099001N1-00101-00501999999ADDMA1100311999999REMMET058METAR EDLW 051850Z 18014KT CAVOK M01/M05 Q1003 RMK ATIS D;
0084104160999992011010519204+51517+007617FM-15+0148EDLW V0201801N008219999999Y0099001N1+00001-00501999999ADDMA1100311999999REMMET057METAR EDLW 051920Z 18016KT CAVOK 00/M05 Q1003 RMK ATIS E;
0084104160999992011010519504+51517+007617FM-15+0148EDLW V0201901N006219999999Y0099001N1+00101-00401999999ADDMA1100311999999REMMET057METAR EDLW 051950Z 19012KT CAVOK 01/M04 Q1003 RMK ATIS F;
0095104160999992011010520204+51517+007617FM-15+0148EDLW V0201801N007719999999Y0099001N1+00101-00301999999ADDMA1100201999999OC101341REMMET060METAR EDLW 052020Z 18015G26KT CAVOK 01/M03 Q1002 RMK ATIS G;
0073104160999992011010520504+51517+007617FM-15+0148EDLW V0201801N008719999999Y0099001N1+00101-00201999999ADDMA1100101999999REMMET046METAR EDLW 052050Z 18017KT CAVOK 01/M02 Q1001;
0141104160999992011010604204+51517+007617FM-15+0148EDLW V0201901N007210090019N0112651N1+00301+00101999999ADDGA1071+009001999GF107991999999999999999999MA1099591999999MW1611REMMET066METAR EDLW 060420Z 19014KT 9999 -RA BKN030 03/01 Q0996 RMK ATIS A;
0141104160999992011010604504+51517+007617FM-15+0148EDLW V0201901N007210066019N0112651N1+00301+00101999999ADDGA1071+006601999GF107991999999999999999999MA1099591999999MW1611REMMET066METAR EDLW 060450Z 19014KT 9999 -RA BKN022 03/01 Q0996 RMK ATIS B;
0141104160999992011010605204+51517+007617FM-15+0148EDLW V0202001N007210066019N0112651N1+00301+00201999999ADDGA1071+006601999GF107991999999999999999999MA1099591999999MW1611REMMET066METAR EDLW 060520Z 20014KT 9999 -RA BKN022 03/02 Q0996 RMK ATIS C;
0141104160999992011010605504+51517+007617FM-15+0148EDLW V0202001N006210060019N0112651N1+00301+00201999999ADDGA1071+006001999GF107991999999999999999999MA1099591999999MW1611REMMET066METAR EDLW 060550Z 20012KT 9999 -RA BKN020 03/02 Q0996 RMK ATIS D;
0141104160999992011010606204+51517+007617FM-15+0148EDLW V0202101N006210054019N0112651N1+00401+00201999999ADDGA1071+005401999GF107991999999999999999999MA1099591999999MW1611REMMET066METAR EDLW 060620Z 21012KT 9999 -RA BKN018 04/02 Q0996 RMK ATIS E;
0141104160999992011010606504+51517+007617FM-15+0148EDLW V0202101N006210054019N0112651N1+00401+00301999999ADDGA1071+005401999GF107991999999999999999999MA1099701999999MW1611REMMET066METAR EDLW 060650Z 21012KT 9999 -RA BKN018 04/03 Q0997 RMK ATIS F;
0141104160999992011010607204+51517+007617FM-15+0148EDLW V0202101N005110048019N0112651N1+00401+00301999999ADDGA1071+004801999GF107991999999999999999999MA1099701999999MW1611REMMET066METAR EDLW 060720Z 21010KT 9999 -RA BKN016 04/03 Q0997 RMK ATIS G;
0141104160999992011010607504+51517+007617FM-15+0148EDLW V0202001N006210033019N0112651N1+00401+00301999999ADDGA1071+003301999GF107991999999999999999999MA1099701999999MW1611REMMET066METAR EDLW 060750Z 20012KT 9999 -RA BKN011 04/03 Q0997 RMK ATIS H;
0141104160999992011010608204+51517+007617FM-15+0148EDLW V0202101N005710033019N0112651N1+00401+00301999999ADDGA1071+003301999GF107991999999999999999999MA1099701999999MW1611REMMET066METAR EDLW 060820Z 21011KT 9999 -RA BKN011 04/03 Q0997 RMK ATIS I;
0131104160999992011010608504+51517+007617FM-15+0148EDLW V0202001N005710033019N0112651N1+00401+00301999999ADDGA1081+003301999GF108991999999999999999999MA1099801999999REMMET062METAR EDLW 060850Z 20011KT 9999 OVC011 04/03 Q0998 RMK ATIS J;
0141104160999992011010609204+51517+007617FM-15+0148EDLW V0202001N005110042019N0112651N1+00401+00301999999ADDGA1071+004201999GF107991999999999999999999MA1099801999999MW1611REMMET066METAR EDLW 060920Z 20010KT 9999 -RA BKN014 04/03 Q0998 RMK ATIS K;
0141104160999992011010609504+51517+007617FM-15+0148EDLW V0202001N004610045019N0112651N1+00401+00301999999ADDGA1071+004501999GF107991999999999999999999MA1099801999999MW1611REMMET066METAR EDLW 060950Z 20009KT 9999 -RA BKN015 04/03 Q0998 RMK ATIS L;
0131104160999992011010610204+51517+007617FM-15+0148EDLW V0201901N005110030019N0112651N1+00401+00301999999ADDGA1071+003001999GF107991999999999999999999MA1099801999999REMMET062METAR EDLW 061020Z 19010KT 9999 BKN010 04/03 Q0998 RMK ATIS M;
0131104160999992011010610504+51517+007617FM-15+0148EDLW V0202001N005710033019N0112651N1+00501+00301999999ADDGA1071+003301999GF107991999999999999999999MA1099801999999REMMET062METAR EDLW 061050Z 20011KT 9999 BKN011 05/03 Q0998 RMK ATIS N;
0131104160999992011010611204+51517+007617FM-15+0148EDLW V0202001N005710099019N0112651N1+00501+00401999999ADDGA1071+009901999GF107991999999999999999999MA1099701999999REMMET062METAR EDLW 061120Z 20011KT 9999 BKN033 05/04 Q0997 RMK ATIS O;
0141104160999992011010611504+51517+007617FM-15+0148EDLW V0201901N004610090019N0112651N1+00501+00401999999ADDGA1071+009001999GF107991999999999999999999MA1099701999999MW1611REMMET066METAR EDLW 061150Z 19009KT 9999 -RA BKN030 05/04 Q0997 RMK ATIS P;
0131104160999992011010612204+51517+007617FM-15+0148EDLW V0201901N005110075019N0112651N1+00501+00401999999ADDGA1081+007501999GF108991999999999999999999MA1099701999999REMMET062METAR EDLW 061220Z 19010KT 9999 OVC025 05/04 Q0997 RMK ATIS Q;
0131104160999992011010612504+51517+007617FM-15+0148EDLW V0202001N005110060019N0112651N1+00601+00401999999ADDGA1071+006001999GF107991999999999999999999MA1099591999999REMMET062METAR EDLW 061250Z 20010KT 9999 BKN020 06/04 Q0996 RMK ATIS R;
0131104160999992011010613204+51517+007617FM-15+0148EDLW V0201901N006210084019N0112651N1+00601+00401999999ADDGA1071+008401999GF107991999999999999999999MA1099591999999REMMET062METAR EDLW 061320Z 19012KT 9999 BKN028 06/04 Q0996 RMK ATIS S;
0141104160999992011010613504+51517+007617FM-15+0148EDLW V0201901N006710075019N0112651N1+00601+00401999999ADDGA1081+007501999GF108991999999999999999999MA1099591999999MW1611REMMET066METAR EDLW 061350Z 19013KT 9999 -RA OVC025 06/04 Q0996 RMK ATIS T;
0164104160999992011010614204+51517+007617FM-15+0148EDLW V0201901N006710135019N0112651N1+00601+00401999999ADDGA1041+009001999GA2081+013501999GF108991999999999999999999MA1099491999999MW1611REMMET073METAR EDLW 061420Z 19013KT 9999 -RA SCT030 OVC045 06/04 Q0995 RMK ATIS U;
0164104160999992011010614504+51517+007617FM-15+0148EDLW V0201901N007210135019N0112651N1+00601+00401999999ADDGA1041+007501999GA2081+013501999GF108991999999999999999999MA1099491999999MW1611REMMET073METAR EDLW 061450Z 19014KT 9999 -RA SCT025 OVC045 06/04 Q0995 RMK ATIS V;
0141104160999992011010615204+51517+007617FM-15+0148EDLW V0201901N006710081019N0112651N1+00601+00401999999ADDGA1081+008101999GF108991999999999999999999MA1099491999999MW1611REMMET066METAR EDLW 061520Z 19013KT 9999 -RA OVC027 06/04 Q0995 RMK ATIS W;
0141104160999992011010615504+51517+007617FM-15+0148EDLW V0201901N007210084019N0112651N1+00601+00401999999ADDGA1081+008401999GF108991999999999999999999MA1099491999999MW1611REMMET066METAR EDLW 061550Z 19014KT 9999 -RA OVC028 06/04 Q0995 RMK ATIS X;
0164104160999992011010616204+51517+007617FM-15+0148EDLW V0202001N007210150019N0112651N1+00601+00401999999ADDGA1041+010501999GA2081+015001999GF108991999999999999999999MA1099491999999MW1611REMMET073METAR EDLW 061620Z 20014KT 9999 -RA SCT035 OVC050 06/04 Q0995 RMK ATIS Y;
0164104160999992011010616504+51517+007617FM-15+0148EDLW V0202001N006710090019N0112651N1+00601+00501999999ADDGA1071+009001999GA2081+018001999GF108991999999999999999999MA1099491999999MW1611REMMET073METAR EDLW 061650Z 20013KT 9999 -RA BKN030 OVC060 06/05 Q0995 RMK ATIS Z;
0141104160999992011010617204+51517+007617FM-15+0148EDLW V0201901N006210090019N0112651N1+00601+00501999999ADDGA1081+009001999GF108991999999999999999999MA1099391999999MW1611REMMET066METAR EDLW 061720Z 19012KT 9999 -RA OVC030 06/05 Q0994 RMK ATIS A;
0164104160999992011010617504+51517+007617FM-15+0148EDLW V0201901N006710078019N0112651N1+00601+00501999999ADDGA1021+004501999GA2081+007801999GF108991999999999999999999MA1099391999999MW1611REMMET073METAR EDLW 061750Z 19013KT 9999 -RA FEW015 OVC026 06/05 Q0994 RMK ATIS B;
0141104160999992011010618204+51517+007617FM-15+0148EDLW V0202001N006710075019N0112651N1+00601+00501999999ADDGA1081+007501999GF108991999999999999999999MA1099391999999MW1611REMMET066METAR EDLW 061820Z 20013KT 9999 -RA OVC025 06/05 Q0994 RMK ATIS C;
0141104160999992011010618504+51517+007617FM-15+0148EDLW V0202001N007710066019N0112651N1+00601+00501999999ADDGA1081+006601999GF108991999999999999999999MA1099391999999MW1611REMMET066METAR EDLW 061850Z 20015KT 9999 -RA OVC022 06/05 Q0994 RMK ATIS D;
0141104160999992011010619204+51517+007617FM-15+0148EDLW V0202001N008210060019N0112651N1+00701+00601999999ADDGA1081+006001999GF108991999999999999999999MA1099391999999MW1611REMMET066METAR EDLW 061920Z 20016KT 9999 -RA OVC020 07/06 Q0994 RMK ATIS E;
0141104160999992011010619504+51517+007617FM-15+0148EDLW V0202001N007210066019N0112651N1+00701+00601999999ADDGA1081+006601999GF108991999999999999999999MA1099391999999MW1611REMMET066METAR EDLW 061950Z 20014KT 9999 -RA OVC022 07/06 Q0994 RMK ATIS F;
0141104160999992011010620204+51517+007617FM-15+0148EDLW V0202001N008710069019N0112651N1+00801+00601999999ADDGA1081+006901999GF108991999999999999999999MA1099391999999MW1611REMMET066METAR EDLW 062020Z 20017KT 9999 -RA OVC023 08/06 Q0994 RMK ATIS G;
0141104160999992011010620504+51517+007617FM-15+0148EDLW V0202001N008710069019N0112651N1+00801+00601999999ADDGA1081+006901999GF108991999999999999999999MA1099391999999MW1611REMMET066METAR EDLW 062050Z 20017KT 9999 -RA OVC023 08/06 Q0994 RMK ATIS H;
0141104160999992011010621204+51517+007617FM-15+0148EDLW V0202101N010310072019N0112651N1+00901+00601999999ADDGA1081+007201999GF108991999999999999999999MA1099491999999MW1611REMMET066METAR EDLW 062120Z 21020KT 9999 -RA OVC024 09/06 Q0995 RMK ATIS I;
0141104160999992011010621504+51517+007617FM-15+0148EDLW V0202201N010310060019N0112651N1+00901+00701999999ADDGA1081+006001999GF108991999999999999999999MA1099591999999MW1611REMMET066METAR EDLW 062150Z 22020KT 9999 -RA OVC020 09/07 Q0996 RMK ATIS J;
0141104160999992011010622204+51517+007617FM-15+0148EDLW V0202301N011310048019N0112651N1+00901+00701999999ADDGA1081+004801999GF108991999999999999999999MA1099701999999MW1511REMMET066METAR EDLW 062220Z 23022KT 9999 -DZ OVC016 09/07 Q0997 RMK ATIS K;
0164104160999992011010622504+51517+007617FM-15+0148EDLW V0202601N007710075019N0112651N1+00801+00701999999ADDGA1041+003001999GA2081+007501999GF108991999999999999999999MA1099801999999MW1511REMMET073METAR EDLW 062250Z 26015KT 9999 -DZ SCT010 OVC025 08/07 Q0998 RMK ATIS L;
0141104160999992011010623204+51517+007617FM-15+0148EDLW V0202601N006210030019N0112651N1+00701+00501999999ADDGA1081+003001999GF108991999999999999999999MA1099901999999MW1511REMMET066METAR EDLW 062320Z 26012KT 9999 -DZ OVC010 07/05 Q0999 RMK ATIS M;
0141104160999992011010623504+51517+007617FM-15+0148EDLW V0202701N005710021019N0112651N1+00601+00501999999ADDGA1081+002101999GF108991999999999999999999MA1100001999999MW1511REMMET066METAR EDLW 062350Z 27011KT 9999 -DZ OVC007 06/05 Q1000 RMK ATIS N;
0164104160999992011010700204+51517+007617FM-15+0148EDLW V0202801N004610012019N0112651N1+00401+00401999999ADDGA1041+000901999GA2081+001201999GF108991999999999999999999MA1100101999999MW1511REMMET073METAR EDLW 070020Z 28009KT 9999 -DZ SCT003 OVC004 04/04 Q1001 RMK ATIS O;
0162104160999992011010700504+51517+007617FM-15+0148EDLW V0202801N004110003019N0007001N1+00401+00301999999ADDED124U20009GA1081+000301999GF108991999999999999999999MA1100311999999MW1441REMMET076METAR EDLW 070050Z 28008KT 0700 R24/P2000N FG OVC001 04/03 Q1003 RMK ATIS P;
0142104160999992011010701204+51517+007617FM-15+0148EDLW V0202601N003610003019N0020001N1+00301+00301999999ADDGA1081+000301999GF108991999999999999999999MA1100411999999MW1411REMMET067METAR EDLW 070120Z 26007KT 2000 BCFG OVC001 03/03 Q1004 RMK ATIS Q;
0140104160999992011010701504+51517+007617FM-15+0148EDLW V0202501N002610003019N0035001N1+00401+00301999999ADDGA1081+000301999GF108991999999999999999999MA1100411999999MW1101REMMET065METAR EDLW 070150Z 25005KT 3500 BR OVC001 04/03 Q1004 RMK ATIS R;
0154104160999992011010702204+51517+007617FM-15+0148EDLW V0202501N001510096019N0080001N1+00301+00301999999ADDGA1041+001501999GA2081+009601999GF108991999999999999999999MA1100511999999REMMET069METAR EDLW 070220Z 25003KT 8000 SCT005 OVC032 03/03 Q1005 RMK ATIS S;
0131104160999992011010704204+51517+007617FM-15+0148EDLW V0202301N001510072019N0112651N1+00301+00301999999ADDGA1071+007201999GF107991999999999999999999MA1100611999999REMMET062METAR EDLW 070420Z 23003KT 9999 BKN024 03/03 Q1006 RMK ATIS A;
0131104160999992011010704504+51517+007617FM-15+0148EDLW V0209999V001010084019N0112651N1+00301+00301999999ADDGA1071+008401999GF107991999999999999999999MA1100711999999REMMET062METAR EDLW 070450Z VRB02KT 9999 BKN028 03/03 Q1007 RMK ATIS B;
0131104160999992011010705204+51517+007617FM-15+0148EDLW V0201401N001510084019N0090001N1+00301+00301999999ADDGA1071+008401999GF107991999999999999999999MA1100711999999REMMET062METAR EDLW 070520Z 14003KT 9000 BKN028 03/03 Q1007 RMK ATIS C;
0131104160999992011010705504+51517+007617FM-15+0148EDLW V0201401N002110105019N0090001N1+00301+00301999999ADDGA1071+010501999GF107991999999999999999999MA1100711999999REMMET062METAR EDLW 070550Z 14004KT 9000 BKN035 03/03 Q1007 RMK ATIS D;
0162104160999992011010706204+51517+007617FM-15+0148EDLW V0201401N002110105019N0090001N1+00301+00301999999ADDGA1041+003601999GA2071+010501999GF107991999999999999999999MA1100711999999REMMET077METAR EDLW 070620Z 14004KT 120V180 9000 SCT012 BKN035 03/03 Q1007 RMK ATIS E;
0154104160999992011010706504+51517+007617FM-15+0148EDLW V0201101N002110105019N0090001N1+00301+00301999999ADDGA1041+003601999GA2071+010501999GF107991999999999999999999MA1100711999999REMMET069METAR EDLW 070650Z 11004KT 9000 SCT012 BKN035 03/03 Q1007 RMK ATIS F;
0141104160999992011010707204+51517+007617FM-15+0148EDLW V0201001N002610075019N0050001N1+00301+00301999999ADDGA1071+007501999GF107991999999999999999999MA1100711999999MW1611REMMET066METAR EDLW 070720Z 10005KT 5000 -RA BKN025 03/03 Q1007 RMK ATIS G;
0154104160999992011010707504+51517+007617FM-15+0148EDLW V0200801N002610066019N0060001N1+00301+00301999999ADDGA1041+003001999GA2071+006601999GF107991999999999999999999MA1100711999999REMMET069METAR EDLW 070750Z 08005KT 6000 SCT010 BKN022 03/03 Q1007 RMK ATIS H;
0140104160999992011010708204+51517+007617FM-15+0148EDLW V0201001N002610051019N0050001N1+00401+00301999999ADDGA1071+005101999GF107991999999999999999999MA1100711999999MW1101REMMET065METAR EDLW 070820Z 10005KT 5000 BR BKN017 04/03 Q1007 RMK ATIS I;
0140104160999992011010708504+51517+007617FM-15+0148EDLW V0201001N003610042019N0030001N1+00401+00301999999ADDGA1071+004201999GF107991999999999999999999MA1100711999999MW1101REMMET065METAR EDLW 070850Z 10007KT 3000 BR BKN014 04/03 Q1007 RMK ATIS J;
0150104160999992011010709204+51517+007617FM-15+0148EDLW V0200801N003110045019N0025001N1+00401+00301999999ADDGA1071+004501999GF107991999999999999999999MA1100711999999MW1101MW2611REMMET069METAR EDLW 070920Z 08006KT 2500 -RA BR BKN015 04/03 Q1007 RMK ATIS K;
0150104160999992011010709504+51517+007617FM-15+0148EDLW V0201101N003110042019N0020001N1+00401+00301999999ADDGA1071+004201999GF107991999999999999999999MA1100711999999MW1101MW2611REMMET069METAR EDLW 070950Z 11006KT 2000 -RA BR BKN014 04/03 Q1007 RMK ATIS L;
0149104160999992011010710204+51517+007617FM-15+0148EDLW V0200701N002610051019N0035001N1+00401+00301999999ADDGA1071+005101999GF107991999999999999999999MA1100611999999MW1101MW2531REMMET068METAR EDLW 071020Z 07005KT 3500 DZ BR BKN017 04/03 Q1006 RMK ATIS M;
0140104160999992011010710504+51517+007617FM-15+0148EDLW V0200701N002110057019N0045001N1+00401+00401999999ADDGA1071+005701999GF107991999999999999999999MA1100611999999MW1101REMMET065METAR EDLW 071050Z 07004KT 4500 BR BKN019 04/04 Q1006 RMK ATIS N;
0140104160999992011010711204+51517+007617FM-15+0148EDLW V0201001N002110069019N0050001N1+00501+00501999999ADDGA1071+006901999GF107991999999999999999999MA1100611999999MW1101REMMET065METAR EDLW 071120Z 10004KT 5000 BR BKN023 05/05 Q1006 RMK ATIS O;
0131104160999992011010711504+51517+007617FM-15+0148EDLW V0209999V001510066019N0060001N1+00501+00501999999ADDGA1071+006601999GF107991999999999999999999MA1100511999999REMMET062METAR EDLW 071150Z VRB03KT 6000 BKN022 05/05 Q1005 RMK ATIS P;
0139104160999992011010712204+51517+007617FM-15+0148EDLW V0201201N002110075019N0070001N1+00501+00501999999ADDGA1071+007501999GF107991999999999999999999MA1100511999999REMMET070METAR EDLW 071220Z 12004KT 070V140 7000 BKN025 05/05 Q1005 RMK ATIS Q;
0154104160999992011010712504+51517+007617FM-15+0148EDLW V0201901N004110120019N0112651N1+00901+00701999999ADDGA1021+007501999GA2071+012001999GF107991999999999999999999MA1100511999999REMMET069METAR EDLW 071250Z 19008KT 9999 FEW025 BKN040 09/07 Q1005 RMK ATIS R;
0131104160999992011010713204+51517+007617FM-15+0148EDLW V0201801N004112200019N0112651N1+00901+00701999999ADDGA1021+012001999GF102991999999999999999999MA1100511999999REMMET062METAR EDLW 071320Z 18008KT 9999 FEW040 09/07 Q1005 RMK ATIS S;
0131104160999992011010713504+51517+007617FM-15+0148EDLW V0201901N004610048019N0112651N1+00901+00701999999ADDGA1071+004801999GF107991999999999999999999MA1100511999999REMMET062METAR EDLW 071350Z 19009KT 9999 BKN016 09/07 Q1005 RMK ATIS T;
0131104160999992011010714204+51517+007617FM-15+0148EDLW V0201901N003110048019N0112651N1+00901+00701999999ADDGA1071+004801999GF107991999999999999999999MA1100511999999REMMET062METAR EDLW 071420Z 19006KT 9999 BKN016 09/07 Q1005 RMK ATIS U;
0131104160999992011010714504+51517+007617FM-15+0148EDLW V0201901N003610075019N0112651N1+00901+00701999999ADDGA1071+007501999GF107991999999999999999999MA1100511999999REMMET062METAR EDLW 071450Z 19007KT 9999 BKN025 09/07 Q1005 RMK ATIS V;
0131104160999992011010715204+51517+007617FM-15+0148EDLW V0201901N004610126019N0090001N1+00901+00801999999ADDGA1071+012601999GF107991999999999999999999MA1100511999999REMMET062METAR EDLW 071520Z 19009KT 9000 BKN042 09/08 Q1005 RMK ATIS W;
0141104160999992011010715504+51517+007617FM-15+0148EDLW V0201901N005110129019N0090001N1+00901+00801999999ADDGA1071+012901999GF107991999999999999999999MA1100511999999MW1611REMMET066METAR EDLW 071550Z 19010KT 9000 -RA BKN043 09/08 Q1005 RMK ATIS X;
0164104160999992011010716204+51517+007617FM-15+0148EDLW V0201901N003610180019N0112651N1+00901+00801999999ADDGA1021+009001999GA2081+018001999GF108991999999999999999999MA1100511999999MW1611REMMET073METAR EDLW 071620Z 19007KT 9999 -RA FEW030 OVC060 09/08 Q1005 RMK ATIS Y;
0141104160999992011010716504+51517+007617FM-15+0148EDLW V0201801N004610105019N0112651N1+00901+00801999999ADDGA1081+010501999GF108991999999999999999999MA1100411999999MW1611REMMET066METAR EDLW 071650Z 18009KT 9999 -RA OVC035 09/08 Q1004 RMK ATIS Z;
0141104160999992011010717204+51517+007617FM-15+0148EDLW V0201901N003610090019N0112651N1+00901+00701999999ADDGA1081+009001999GF108991999999999999999999MA1100411999999MW1611REMMET066METAR EDLW 071720Z 19007KT 9999 -RA OVC030 09/07 Q1004 RMK ATIS A;
0141104160999992011010717504+51517+007617FM-15+0148EDLW V0201901N004110090019N0112651N1+00901+00801999999ADDGA1071+009001999GF107991999999999999999999MA1100411999999MW1611REMMET066METAR EDLW 071750Z 19008KT 9999 -RA BKN030 09/08 Q1004 RMK ATIS B;
0154104160999992011010718204+51517+007617FM-15+0148EDLW V0201901N005710210019N0112651N1+00901+00801999999ADDGA1041+007501999GA2071+021001999GF107991999999999999999999MA1100511999999REMMET069METAR EDLW 071820Z 19011KT 9999 SCT025 BKN070 09/08 Q1005 RMK ATIS C;
0131104160999992011010718504+51517+007617FM-15+0148EDLW V0202001N006710057019N0112651N1+00901+00801999999ADDGA1071+005701999GF107991999999999999999999MA1100511999999REMMET062METAR EDLW 071850Z 20013KT 9999 BKN019 09/08 Q1005 RMK ATIS D;
0131104160999992011010719204+51517+007617FM-15+0148EDLW V0202001N006710090019N0112651N1+00901+00701999999ADDGA1081+009001999GF108991999999999999999999MA1100511999999REMMET062METAR EDLW 071920Z 20013KT 9999 OVC030 09/07 Q1005 RMK ATIS E;
0131104160999992011010719504+51517+007617FM-15+0148EDLW V0202001N006210114019N0112651N1+00901+00701999999ADDGA1081+011401999GF108991999999999999999999MA1100511999999REMMET062METAR EDLW 071950Z 20012KT 9999 OVC038 09/07 Q1005 RMK ATIS F;
0131104160999992011010720204+51517+007617FM-15+0148EDLW V0202001N006212200019N0112651N1+00901+00701999999ADDGA1041+010501999GF104991999999999999999999MA1100511999999REMMET062METAR EDLW 072020Z 20012KT 9999 SCT035 09/07 Q1005 RMK ATIS G;
0072104160999992011010720504+51517+007617FM-15+0148EDLW V0202001N006219999999Y0099001N1+00901+00701999999ADDMA1100511999999REMMET045METAR EDLW 072050Z 20012KT CAVOK 09/07 Q1005;
0083104160999992011010804204+51517+007617FM-15+0148EDLW V0201801N006219999999Y0099001N1+01001+00801999999ADDMA1100411999999REMMET056METAR EDLW 080420Z 18012KT CAVOK 10/08 Q1004 RMK ATIS A;
0091104160999992011010804504+51517+007617FM-15+0148EDLW V0201901N006719999999Y0099001N1+01001+00801999999ADDMA1100311999999REMMET064METAR EDLW 080450Z 19013KT 160V220 CAVOK 10/08 Q1003 RMK ATIS B;
0083104160999992011010805204+51517+007617FM-15+0148EDLW V0202001N008219999999Y0099001N1+01001+00801999999ADDMA1100411999999REMMET056METAR EDLW 080520Z 20016KT CAVOK 10/08 Q1004 RMK ATIS C;
0154104160999992011010806204+51517+007617FM-15+0148EDLW V0202101N008210150019N0112651N1+01101+00801999999ADDGA1041+010801999GA2071+015001999GF107991999999999999999999MA1100411999999REMMET069METAR EDLW 080620Z 21016KT 9999 SCT036 BKN053 11/08 Q1004 RMK ATIS E;
0172104160999992011010806504+51517+007617FM-15+0148EDLW V0201901N006210210019N0112651N1+01001+00801999999ADDGA1021+012901999GA2071+021001999GF107991999999999999999999MA1100411999999MW1611REMMET081METAR EDLW 080650Z 19012KT 160V220 9999 -RA FEW043 BKN075 10/08 Q1004 RMK ATIS F;
0083104160999992011010807204+51517+007617FM-15+0148EDLW V0201701N006219999999Y0099001N1+01001+00801999999ADDMA1100411999999REMMET056METAR EDLW 080720Z 17012KT CAVOK 10/08 Q1004 RMK ATIS G;
0083104160999992011010807504+51517+007617FM-15+0148EDLW V0201801N006719999999Y0099001N1+01001+00701999999ADDMA1100311999999REMMET056METAR EDLW 080750Z 18013KT CAVOK 10/07 Q1003 RMK ATIS H;
0083104160999992011010808204+51517+007617FM-15+0148EDLW V0201901N006719999999Y0099001N1+01001+00701999999ADDMA1100311999999REMMET056METAR EDLW 080820Z 19013KT CAVOK 10/07 Q1003 RMK ATIS I;
0083104160999992011010808504+51517+007617FM-15+0148EDLW V0201801N007219999999Y0099001N1+01101+00801999999ADDMA1100311999999REMMET056METAR EDLW 080850Z 18014KT CAVOK 11/08 Q1003 RMK ATIS J;
0083104160999992011010809204+51517+007617FM-15+0148EDLW V0201801N008719999999Y0099001N1+01101+00801999999ADDMA1100201999999REMMET056METAR EDLW 080920Z 18017KT CAVOK 11/08 Q1002 RMK ATIS K;
0094104160999992011010809504+51517+007617FM-15+0148EDLW V0201901N008719999999Y0099001N1+01201+00701999999ADDMA1100201999999OC101541REMMET059METAR EDLW 080950Z 19017G30KT CAVOK 12/07 Q1002 RMK ATIS L;
0094104160999992011010810204+51517+007617FM-15+0148EDLW V0202001N009819999999Y0099001N1+01201+00701999999ADDMA1100201999999OC101541REMMET059METAR EDLW 081020Z 20019G30KT CAVOK 12/07 Q1002 RMK ATIS M;
0094104160999992011010810504+51517+007617FM-15+0148EDLW V0202001N010319999999Y0099001N1+01201+00601999999ADDMA1100201999999OC101541REMMET059METAR EDLW 081050Z 20020G30KT CAVOK 12/06 Q1002 RMK ATIS N;
0094104160999992011010811204+51517+007617FM-15+0148EDLW V0202001N009819999999Y0099001N1+01201+00601999999ADDMA1100201999999OC101491REMMET059METAR EDLW 081120Z 20019G29KT CAVOK 12/06 Q1002 RMK ATIS O;
0154104160999992011010811504+51517+007617FM-15+0148EDLW V0202101N010310150019N0112651N1+01201+00601999999ADDGA1041+008101999GA2071+015001999GF107991999999999999999999MA1100201999999REMMET069METAR EDLW 081150Z 21020KT 9999 SCT027 BKN055 12/06 Q1002 RMK ATIS P;
0177104160999992011010812204+51517+007617FM-15+0148EDLW V0202101N010310123019N0090001N1+01201+00601999999ADDGA1041+004201999GA2071+012301999GF107991999999999999999999MA1100201999999MW1801OC101541REMMET078METAR EDLW 081220Z 21020G30KT 9000 -SHRA SCT014 BKN041 12/06 Q1002 RMK ATIS Q;
0166104160999992011010812504+51517+007617FM-15+0148EDLW V0202101N009810150019N0112651N1+01101+00701999999ADDGA1041+005401999GA2071+015001999GF107991999999999999999999MA1100201999999MW1801REMMET075METAR EDLW 081250Z 21019KT 9999 -SHRA SCT018 BKN054 11/07 Q1002 RMK ATIS R;
0164104160999992011010813204+51517+007617FM-15+0148EDLW V0202001N006710150019N0112651N1+01101+00701999999ADDGA1041+003001999GA2071+015001999GF107991999999999999999999MA1100201999999MW1611REMMET073METAR EDLW 081320Z 20013KT 9999 -RA SCT010 BKN058 11/07 Q1002 RMK ATIS S;
0142104160999992011010813504+51517+007617FM-15+0148EDLW V0202101N007710144019N0112651N1+01101+00701999999ADDGA1071+014401999GF107991999999999999999999MA1100201999999MW1161REMMET067METAR EDLW 081350Z 21015KT 9999 VCSH BKN048 11/07 Q1002 RMK ATIS T;
0143104160999992011010814204+51517+007617FM-15+0148EDLW V0202101N008710129019N0112651N1+01101+00701999999ADDGA1071+012901999GF107991999999999999999999MA1100201999999MW1801REMMET068METAR EDLW 081420Z 21017KT 9999 -SHRA BKN043 11/07 Q1002 RMK ATIS U;
0143104160999992011010814504+51517+007617FM-15+0148EDLW V0202201N006712200019N0112651N1+01001+00701999999ADDGF100991999999999999999999MA1100311999999MW1801REMMET065METAR EDLW 081450Z 22013KT 9999 -SHRA NSC 10/07 Q1003 RMK ATIS V;EQDQ01    003SCCGA1
0154104160999992011010815204+51517+007617FM-15+0148EDLW V0202101N008210180019N0112651N1+01101+00601999999ADDGA1021+013501999GA2071+018001999GF107991999999999999999999MA1100311999999REMMET069METAR EDLW 081520Z 21016KT 9999 FEW045 BKN060 11/06 Q1003 RMK ATIS W;
0142104160999992011010815504+51517+007617FM-15+0148EDLW V0202201N008710144019N0112651N1+01201+00601999999ADDGA1071+014401999GF107991999999999999999999MA1100311999999OC101391REMMET065METAR EDLW 081550Z 22017G27KT 9999 BKN048 12/06 Q1003 RMK ATIS X;
0131104160999992011010816204+51517+007617FM-15+0148EDLW V0202201N009310135019N0112651N1+01101+00601999999ADDGA1071+013501999GF107991999999999999999999MA1100311999999REMMET062METAR EDLW 081620Z 22018KT 9999 BKN045 11/06 Q1003 RMK ATIS Y;
0142104160999992011010816504+51517+007617FM-15+0148EDLW V0202201N009810120019N0112651N1+01101+00601999999ADDGA1071+012001999GF107991999999999999999999MA1100311999999OC101491REMMET065METAR EDLW 081650Z 22019G29KT 9999 BKN040 11/06 Q1003 RMK ATIS Z;
0131104160999992011010817204+51517+007617FM-15+0148EDLW V0202101N009810120019N0112651N1+01101+00601999999ADDGA1071+012001999GF107991999999999999999999MA1100311999999REMMET062METAR EDLW 081720Z 21019KT 9999 BKN040 11/06 Q1003 RMK ATIS A;
0094104160999992011010817504+51517+007617FM-15+0148EDLW V0202201N009819999999Y0099001N1+01101+00601999999ADDMA1100411999999OC101541REMMET059METAR EDLW 081750Z 22019G30KT CAVOK 11/06 Q1004 RMK ATIS B;
0083104160999992011010818204+51517+007617FM-15+0148EDLW V0202101N006719999999Y0099001N1+01001+00601999999ADDMA1100411999999REMMET056METAR EDLW 081820Z 21013KT CAVOK 10/06 Q1004 RMK ATIS C;
0149104160999992011010818504+51517+007617FM-15+0148EDLW V0202401N002610096019N0112651N1+01001+00601999999ADDGA1071+009601999GF107991999999999999999999MA1100411999999MW1611REMMET074METAR EDLW 081850Z 24005KT 210V270 9999 -RA BKN032 10/06 Q1004 RMK ATIS D;
0148104160999992011010819504+51517+007617FM-15+0148EDLW V0202601N004610060019N0080001N1+00901+00801999999ADDGA1071+006001999GF107991999999999999999999MA1100511999999MW1631REMMET073METAR EDLW 081950Z 26009KT 240V310 8000 RA BKN020 09/08 Q1005 RMK ATIS F;
0140104160999992011010820204+51517+007617FM-15+0148EDLW V0202401N005710120019N0080001N1+00901+00701999999ADDGA1071+012001999GF107991999999999999999999MA1100511999999MW1631REMMET065METAR EDLW 082020Z 24011KT 8000 RA BKN040 09/07 Q1005 RMK ATIS G;
0140104160999992011010820504+51517+007617FM-15+0148EDLW V0202301N006210090019N0112651N1+00901+00701999999ADDGA1071+009001999GF107991999999999999999999MA1100511999999MW1631REMMET065METAR EDLW 082050Z 23012KT 9999 RA BKN030 09/07 Q1005 RMK ATIS H;
0141104160999992011010904204+51517+007617FM-15+0148EDLW V0202701N006210027019N0112651N1+00601+00501999999ADDGA1071+002701999GF107991999999999999999999MA1100511999999MW1611REMMET066METAR EDLW 090420Z 27012KT 9999 -RA BKN009 06/05 Q1005 RMK ATIS A;
0140104160999992011010904504+51517+007617FM-15+0148EDLW V0202701N005710036019N0050001N1+00601+00401999999ADDGA1071+003601999GF107991999999999999999999MA1100611999999MW1631REMMET065METAR EDLW 090450Z 27011KT 5000 RA BKN012 06/04 Q1006 RMK ATIS B;
0141104160999992011010905204+51517+007617FM-15+0148EDLW V0202601N004610036019N0090001N1+00501+00401999999ADDGA1071+003601999GF107991999999999999999999MA1100611999999MW1611REMMET066METAR EDLW 090520Z 26009KT 9000 -RA BKN012 05/04 Q1006 RMK ATIS C;
0141104160999992011010905504+51517+007617FM-15+0148EDLW V0202401N004610054019N0112651N1+00501+00301999999ADDGA1071+005401999GF107991999999999999999999MA1100611999999MW1611REMMET066METAR EDLW 090550Z 24009KT 9999 -RA BKN018 05/03 Q1006 RMK ATIS D;
0141104160999992011010906204+51517+007617FM-15+0148EDLW V0202501N005110045019N0112651N1+00401+00301999999ADDGA1071+004501999GF107991999999999999999999MA1100711999999MW1611REMMET066METAR EDLW 090620Z 25010KT 9999 -RA BKN015 04/03 Q1007 RMK ATIS E;
0141104160999992011010906504+51517+007617FM-15+0148EDLW V0202301N005710048019N0090001N1+00401+00301999999ADDGA1071+004801999GF107991999999999999999999MA1100711999999MW1611REMMET066METAR EDLW 090650Z 23011KT 9000 -RA BKN016 04/03 Q1007 RMK ATIS F;
0131104160999992011010907204+51517+007617FM-15+0148EDLW V0202101N005110051019N0112651N1+00401+00301999999ADDGA1071+005101999GF107991999999999999999999MA1100811999999REMMET062METAR EDLW 090720Z 21010KT 9999 BKN017 04/03 Q1008 RMK ATIS G;
0141104160999992011010907504+51517+007617FM-15+0148EDLW V0202201N005710081019N0112651N1+00401+00301999999ADDGA1071+008101999GF107991999999999999999999MA1100811999999MW1611REMMET066METAR EDLW 090750Z 22011KT 9999 -RA BKN027 04/03 Q1008 RMK ATIS H;
0131104160999992011010908204+51517+007617FM-15+0148EDLW V0202101N005112200019N0112651N1+00401+00301999999ADDGA1041+009001999GF104991999999999999999999MA1100811999999REMMET062METAR EDLW 090820Z 21010KT 9999 SCT030 04/03 Q1008 RMK ATIS I;
0083104160999992011010908504+51517+007617FM-15+0148EDLW V0202201N005719999999Y0099001N1+00401+00201999999ADDMA1100911999999REMMET056METAR EDLW 090850Z 22011KT CAVOK 04/02 Q1009 RMK ATIS J;
0083104160999992011010909204+51517+007617FM-15+0148EDLW V0202201N006219999999Y0099001N1+00401+00201999999ADDMA1100911999999REMMET056METAR EDLW 090920Z 22012KT CAVOK 04/02 Q1009 RMK ATIS K;
0083104160999992011010909504+51517+007617FM-15+0148EDLW V0202201N006219999999Y0099001N1+00401+00201999999ADDMA1101021999999REMMET056METAR EDLW 090950Z 22012KT CAVOK 04/02 Q1010 RMK ATIS L;
0083104160999992011010910204+51517+007617FM-15+0148EDLW V0202201N005719999999Y0099001N1+00501+00201999999ADDMA1101021999999REMMET056METAR EDLW 091020Z 22011KT CAVOK 05/02 Q1010 RMK ATIS M;
0083104160999992011010910504+51517+007617FM-15+0148EDLW V0202401N006719999999Y0099001N1+00501+00201999999ADDMA1101021999999REMMET056METAR EDLW 091050Z 24013KT CAVOK 05/02 Q1010 RMK ATIS N;
0083104160999992011010911204+51517+007617FM-15+0148EDLW V0202401N007219999999Y0099001N1+00501+00201999999ADDMA1101021999999REMMET056METAR EDLW 091120Z 24014KT CAVOK 05/02 Q1010 RMK ATIS O;
0131104160999992011010911504+51517+007617FM-15+0148EDLW V0202401N007212200019N0112651N1+00501+00201999999ADDGA1021+005701999GF102991999999999999999999MA1101021999999REMMET062METAR EDLW 091150Z 24014KT 9999 FEW019 05/02 Q1010 RMK ATIS P;
0131104160999992011010912204+51517+007617FM-15+0148EDLW V0202401N005110057019N0112651N1+00501+00201999999ADDGA1071+005701999GF107991999999999999999999MA1101081999999REMMET062METAR EDLW 091220Z 24010KT 9999 BKN019 05/02 Q1011 RMK ATIS Q;
0131104160999992011010912504+51517+007617FM-15+0148EDLW V0202401N005710057019N0112651N1+00501+00201999999ADDGA1071+005701999GF107991999999999999999999MA1101081999999REMMET062METAR EDLW 091250Z 24011KT 9999 BKN019 05/02 Q1011 RMK ATIS R;
0131104160999992011010913204+51517+007617FM-15+0148EDLW V0202301N005712200019N0112651N1+00501+00201999999ADDGA1041+005701999GF104991999999999999999999MA1101081999999REMMET062METAR EDLW 091320Z 23011KT 9999 SCT019 05/02 Q1011 RMK ATIS S;
0131104160999992011010913504+51517+007617FM-15+0148EDLW V0202401N006210060019N0112651N1+00501+00201999999ADDGA1071+006001999GF107991999999999999999999MA1101191999999REMMET062METAR EDLW 091350Z 24012KT 9999 BKN020 05/02 Q1012 RMK ATIS T;
0131104160999992011010914204+51517+007617FM-15+0148EDLW V0202401N005710060019N0112651N1+00501+00201999999ADDGA1071+006001999GF107991999999999999999999MA1101191999999REMMET062METAR EDLW 091420Z 24011KT 9999 BKN020 05/02 Q1012 RMK ATIS U;
0131104160999992011010914504+51517+007617FM-15+0148EDLW V0202501N004610090019N0112651N1+00501+00201999999ADDGA1071+009001999GF107991999999999999999999MA1101291999999REMMET062METAR EDLW 091450Z 25009KT 9999 BKN030 05/02 Q1013 RMK ATIS V;
0131104160999992011010915204+51517+007617FM-15+0148EDLW V0202301N004610063019N0112651N1+00501+00201999999ADDGA1071+006301999GF107991999999999999999999MA1101291999999REMMET062METAR EDLW 091520Z 23009KT 9999 BKN021 05/02 Q1013 RMK ATIS W;
0131104160999992011010915504+51517+007617FM-15+0148EDLW V0202301N004610060019N0112651N1+00501+00101999999ADDGA1071+006001999GF107991999999999999999999MA1101291999999REMMET062METAR EDLW 091550Z 23009KT 9999 BKN020 05/01 Q1013 RMK ATIS X;
0083104160999992011010916204+51517+007617FM-15+0148EDLW V0202301N004619999999Y0099001N1+00401+00101999999ADDMA1101391999999REMMET056METAR EDLW 091620Z 23009KT CAVOK 04/01 Q1014 RMK ATIS Y;
0083104160999992011010916504+51517+007617FM-15+0148EDLW V0202201N004119999999Y0099001N1+00301+00101999999ADDMA1101391999999REMMET056METAR EDLW 091650Z 22008KT CAVOK 03/01 Q1014 RMK ATIS Z;
0083104160999992011010917204+51517+007617FM-15+0148EDLW V0202201N004619999999Y0099001N1+00301+00101999999ADDMA1101491999999REMMET056METAR EDLW 091720Z 22009KT CAVOK 03/01 Q1015 RMK ATIS A;
0083104160999992011010917504+51517+007617FM-15+0148EDLW V0202201N004119999999Y0099001N1+00201+00001999999ADDMA1101491999999REMMET056METAR EDLW 091750Z 22008KT CAVOK 02/00 Q1015 RMK ATIS B;
0083104160999992011010918204+51517+007617FM-15+0148EDLW V0202201N004119999999Y0099001N1+00301+00001999999ADDMA1101591999999REMMET056METAR EDLW 091820Z 22008KT CAVOK 03/00 Q1016 RMK ATIS C;
0083104160999992011010918504+51517+007617FM-15+0148EDLW V0202101N003619999999Y0099001N1+00201+00001999999ADDMA1101591999999REMMET056METAR EDLW 091850Z 21007KT CAVOK 02/00 Q1016 RMK ATIS D;
0084104160999992011010919204+51517+007617FM-15+0148EDLW V0202101N003619999999Y0099001N1+00201+00001999999ADDMA1101691999999REMMET057METAR EDLW 091920Z 21007KT CAVOK 02/M00 Q1017 RMK ATIS E;
0084104160999992011010919504+51517+007617FM-15+0148EDLW V0202001N003619999999Y0099001N1+00201+00001999999ADDMA1101691999999REMMET057METAR EDLW 091950Z 20007KT CAVOK 02/M00 Q1017 RMK ATIS F;
0084104160999992011010920204+51517+007617FM-15+0148EDLW V0202201N004119999999Y0099001N1+00201+00001999999ADDMA1101691999999REMMET057METAR EDLW 092020Z 22008KT CAVOK 02/M00 Q1017 RMK ATIS G;
0084104160999992011010920504+51517+007617FM-15+0148EDLW V0202001N003619999999Y0099001N1+00201+00001999999ADDMA1101801999999REMMET057METAR EDLW 092050Z 20007KT CAVOK 02/M00 Q1018 RMK ATIS H;
0141104160999992011011004204+51517+007617FM-15+0148EDLW V0201901N004612200019N0050001N1+00001-00101999999ADDGF100991999999999999999999MA1102101999999MW1101REMMET063METAR EDLW 100420Z 19009KT 5000 BR NSC 00/M01 Q1021 RMK ATIS A;EQDQ01    003SCCGA1
0132104160999992011011004504+51517+007617FM-15+0148EDLW V0201901N005112200019N0060001N1+00001-00101999999ADDGF100991999999999999999999MA1102101999999REMMET060METAR EDLW 100450Z 19010KT 6000 NSC 00/M01 Q1021 RMK ATIS B;EQDQ01    003SCCGA1
0132104160999992011011005204+51517+007617FM-15+0148EDLW V0201901N005712200019N0060001N1+00001-00101999999ADDGF100991999999999999999999MA1102101999999REMMET060METAR EDLW 100520Z 19011KT 6000 NSC 00/M01 Q1021 RMK ATIS C;EQDQ01    003SCCGA1
0132104160999992011011005504+51517+007617FM-15+0148EDLW V0201901N004612200019N0060001N1+00001-00101999999ADDGF100991999999999999999999MA1102101999999REMMET060METAR EDLW 100550Z 19009KT 6000 NSC 00/M01 Q1021 RMK ATIS D;EQDQ01    003SCCGA1
0141104160999992011011006204+51517+007617FM-15+0148EDLW V0201801N004612200019N0050001N1+00001-00101999999ADDGF100991999999999999999999MA1102101999999MW1101REMMET063METAR EDLW 100620Z 18009KT 5000 BR NSC 00/M01 Q1021 RMK ATIS E;EQDQ01    003SCCGA1
0132104160999992011011006504+51517+007617FM-15+0148EDLW V0201901N004612200019N0070001N1+00001-00101999999ADDGF100991999999999999999999MA1102101999999REMMET060METAR EDLW 100650Z 19009KT 7000 NSC 00/M01 Q1021 RMK ATIS F;EQDQ01    003SCCGA1
0132104160999992011011007204+51517+007617FM-15+0148EDLW V0201801N004112200019N0070001N1+00001-00101999999ADDGF100991999999999999999999MA1102101999999REMMET060METAR EDLW 100720Z 18008KT 7000 NSC 00/M01 Q1021 RMK ATIS G;EQDQ01    003SCCGA1
0132104160999992011011007504+51517+007617FM-15+0148EDLW V0201801N004112200019N0090001N1+00001-00101999999ADDGF100991999999999999999999MA1102201999999REMMET060METAR EDLW 100750Z 18008KT 9000 NSC 00/M01 Q1022 RMK ATIS H;EQDQ01    003SCCGA1
0084104160999992011011008204+51517+007617FM-15+0148EDLW V0201701N004119999999Y0099001N1+00101-00101999999ADDMA1102201999999REMMET057METAR EDLW 100820Z 17008KT CAVOK 01/M01 Q1022 RMK ATIS I;
0092104160999992011011008504+51517+007617FM-15+0148EDLW V0201701N003619999999Y0099001N1+00101-00101999999ADDMA1102201999999REMMET065METAR EDLW 100850Z 17007KT 150V210 CAVOK 01/M01 Q1022 RMK ATIS J;
0084104160999992011011009204+51517+007617FM-15+0148EDLW V0201801N004119999999Y0099001N1+00101-00101999999ADDMA1102201999999REMMET057METAR EDLW 100920Z 18008KT CAVOK 01/M01 Q1022 RMK ATIS K;
0084104160999992011011009504+51517+007617FM-15+0148EDLW V0201801N003619999999Y0099001N1+00201+00001999999ADDMA1102201999999REMMET057METAR EDLW 100950Z 18007KT CAVOK 02/M00 Q1022 RMK ATIS L;
0084104160999992011011010204+51517+007617FM-15+0148EDLW V0201701N003619999999Y0099001N1+00301+00001999999ADDMA1102201999999REMMET057METAR EDLW 101020Z 17007KT CAVOK 03/M00 Q1022 RMK ATIS M;
0083104160999992011011010504+51517+007617FM-15+0148EDLW V0201901N003619999999Y0099001N1+00301+00001999999ADDMA1102201999999REMMET056METAR EDLW 101050Z 19007KT CAVOK 03/00 Q1022 RMK ATIS N;
0084104160999992011011011204+51517+007617FM-15+0148EDLW V0201801N003619999999Y0099001N1+00401+00001999999ADDMA1102201999999REMMET057METAR EDLW 101120Z 18007KT CAVOK 04/M00 Q1022 RMK ATIS O;
0091104160999992011011011504+51517+007617FM-15+0148EDLW V0201801N002619999999Y0099001N1+00401+00001999999ADDMA1102101999999REMMET064METAR EDLW 101150Z 18005KT 090V220 CAVOK 04/00 Q1021 RMK ATIS P;
0092104160999992011011012204+51517+007617FM-15+0148EDLW V0201701N003119999999Y0099001N1+00501-00101999999ADDMA1102101999999REMMET065METAR EDLW 101220Z 17006KT 140V210 CAVOK 05/M01 Q1021 RMK ATIS Q;
0092104160999992011011012504+51517+007617FM-15+0148EDLW V0201801N002619999999Y0099001N1+00501-00201999999ADDMA1102101999999REMMET065METAR EDLW 101250Z 18005KT 150V220 CAVOK 05/M02 Q1021 RMK ATIS R;
0084104160999992011011013204+51517+007617FM-15+0148EDLW V0202001N004119999999Y0099001N1+00501-00201999999ADDMA1102001999999REMMET057METAR EDLW 101320Z 20008KT CAVOK 05/M02 Q1020 RMK ATIS S;
0084104160999992011011013504+51517+007617FM-15+0148EDLW V0202001N003619999999Y0099001N1+00401-00201999999ADDMA1102001999999REMMET057METAR EDLW 101350Z 20007KT CAVOK 04/M02 Q1020 RMK ATIS T;
0084104160999992011011014204+51517+007617FM-15+0148EDLW V0202001N004119999999Y0099001N1+00401-00301999999ADDMA1102001999999REMMET057METAR EDLW 101420Z 20008KT CAVOK 04/M03 Q1020 RMK ATIS U;
0084104160999992011011014504+51517+007617FM-15+0148EDLW V0201901N003619999999Y0099001N1+00301-00301999999ADDMA1102001999999REMMET057METAR EDLW 101450Z 19007KT CAVOK 03/M03 Q1020 RMK ATIS V;
0084104160999992011011015204+51517+007617FM-15+0148EDLW V0201901N002119999999Y0099001N1+00301-00301999999ADDMA1102001999999REMMET057METAR EDLW 101520Z 19004KT CAVOK 03/M03 Q1020 RMK ATIS W;
0084104160999992011011015504+51517+007617FM-15+0148EDLW V0201701N002619999999Y0099001N1+00201-00301999999ADDMA1102001999999REMMET057METAR EDLW 101550Z 17005KT CAVOK 02/M03 Q1020 RMK ATIS X;
0084104160999992011011016204+51517+007617FM-15+0148EDLW V0201601N002619999999Y0099001N1+00101-00301999999ADDMA1101901999999REMMET057METAR EDLW 101620Z 16005KT CAVOK 01/M03 Q1019 RMK ATIS Y;
0084104160999992011011016504+51517+007617FM-15+0148EDLW V0201601N003119999999Y0099001N1+00201-00301999999ADDMA1101901999999REMMET057METAR EDLW 101650Z 16006KT CAVOK 02/M03 Q1019 RMK ATIS Z;
0084104160999992011011017204+51517+007617FM-15+0148EDLW V0201801N004619999999Y0099001N1+00101-00301999999ADDMA1101901999999REMMET057METAR EDLW 101720Z 18009KT CAVOK 01/M03 Q1019 RMK ATIS A;
0084104160999992011011017504+51517+007617FM-15+0148EDLW V0201801N003119999999Y0099001N1+00101-00301999999ADDMA1101801999999REMMET057METAR EDLW 101750Z 18006KT CAVOK 01/M03 Q1018 RMK ATIS B;
0084104160999992011011018204+51517+007617FM-15+0148EDLW V0201801N004119999999Y0099001N1+00101-00201999999ADDMA1101801999999REMMET057METAR EDLW 101820Z 18008KT CAVOK 01/M02 Q1018 RMK ATIS C;
0084104160999992011011018504+51517+007617FM-15+0148EDLW V0201801N003119999999Y0099001N1+00001-00301999999ADDMA1101801999999REMMET057METAR EDLW 101850Z 18006KT CAVOK 00/M03 Q1018 RMK ATIS D;
0084104160999992011011019204+51517+007617FM-15+0148EDLW V0201701N004619999999Y0099001N1+00101-00201999999ADDMA1101801999999REMMET057METAR EDLW 101920Z 17009KT CAVOK 01/M02 Q1018 RMK ATIS E;
0084104160999992011011019504+51517+007617FM-15+0148EDLW V0201701N004119999999Y0099001N1+00101-00301999999ADDMA1101691999999REMMET057METAR EDLW 101950Z 17008KT CAVOK 01/M03 Q1017 RMK ATIS F;
0092104160999992011011020204+51517+007617FM-15+0148EDLW V0201701N004619999999Y0099001N1+00001-00301999999ADDMA1101691999999REMMET065METAR EDLW 102020Z 17009KT 160V220 CAVOK 00/M03 Q1017 RMK ATIS G;
0084104160999992011011020504+51517+007617FM-15+0148EDLW V0201801N004119999999Y0099001N1+00001-00301999999ADDMA1101691999999REMMET057METAR EDLW 102050Z 18008KT CAVOK 00/M03 Q1017 RMK ATIS H;
0084104160999992011011104204+51517+007617FM-15+0148EDLW V0201601N006219999999Y0099001N1+00101-00301999999ADDMA1101021999999REMMET057METAR EDLW 110420Z 16012KT CAVOK 01/M03 Q1010 RMK ATIS A;
0084104160999992011011104504+51517+007617FM-15+0148EDLW V0201601N005719999999Y0099001N1+00101-00301999999ADDMA1100911999999REMMET057METAR EDLW 110450Z 16011KT CAVOK 01/M03 Q1009 RMK ATIS B;
0084104160999992011011105204+51517+007617FM-15+0148EDLW V0201601N006219999999Y0099001N1+00101-00301999999ADDMA1100911999999REMMET057METAR EDLW 110520Z 16012KT CAVOK 01/M03 Q1009 RMK ATIS C;
0092104160999992011011105504+51517+007617FM-15+0148EDLW V0201601N004619999999Y0099001N1+00201-00201999999ADDMA1100811999999REMMET065METAR EDLW 110550Z 16009KT 130V190 CAVOK 02/M02 Q1008 RMK ATIS D;
0092104160999992011011106204+51517+007617FM-15+0148EDLW V0202001N002619999999Y0099001N1+00201-00201999999ADDMA1100811999999REMMET065METAR EDLW 110620Z 20005KT 140V260 CAVOK 02/M02 Q1008 RMK ATIS E;
0084104160999992011011106504+51517+007617FM-15+0148EDLW V0201701N008219999999Y0099001N1+00201-00201999999ADDMA1100711999999REMMET057METAR EDLW 110650Z 17016KT CAVOK 02/M02 Q1007 RMK ATIS F;
0132104160999992011011107204+51517+007617FM-15+0148EDLW V0201801N006712200019N0112651N1+00201-00201999999ADDGA1041+006001999GF104991999999999999999999MA1100711999999REMMET063METAR EDLW 110720Z 18013KT 9999 SCT020 02/M02 Q1007 RMK ATIS G;
0140104160999992011011107504+51517+007617FM-15+0148EDLW V0201801N005710060019N0112651N1+00201-00101999999ADDGA1071+006001999GF107991999999999999999999MA1100711999999REMMET071METAR EDLW 110750Z 18011KT 150V210 9999 BKN020 02/M01 Q1007 RMK ATIS H;
0140104160999992011011108204+51517+007617FM-15+0148EDLW V0201901N003612200019N0112651N1+00301-00101999999ADDGA1041+005701999GF104991999999999999999999MA1100611999999REMMET071METAR EDLW 110820Z 19007KT 140V230 9999 SCT019 03/M01 Q1006 RMK ATIS I;
0140104160999992011011109204+51517+007617FM-15+0148EDLW V0201801N006712200019N0112651N1+00301+00001999999ADDGA1041+005701999GF104991999999999999999999MA1100611999999REMMET071METAR EDLW 110920Z 18013KT 150V220 9999 SCT019 03/M00 Q1006 RMK ATIS K;
0143104160999992011011109504+51517+007617FM-15+0148EDLW V0201901N006212200019N0112651N1+00401+00001999999ADDGA1041+005701999GF104991999999999999999999MA1100611999999OC101231REMMET066METAR EDLW 110950Z 19012G24KT 9999 SCT019 04/M00 Q1006 RMK ATIS L;
0131104160999992011011110204+51517+007617FM-15+0148EDLW V0201801N007212200019N0112651N1+00401+00001999999ADDGA1041+006001999GF104991999999999999999999MA1100511999999REMMET062METAR EDLW 111020Z 18014KT 9999 SCT020 04/00 Q1005 RMK ATIS M;
0155104160999992011011110504+51517+007617FM-15+0148EDLW V0201901N007210210019N0112651N1+00401+00001999999ADDGA1021+006001999GA2071+021001999GF107991999999999999999999MA1100511999999REMMET070METAR EDLW 111050Z 19014KT 9999 FEW020 BKN070 04/M00 Q1005 RMK ATIS N;
0155104160999992011011111204+51517+007617FM-15+0148EDLW V0201801N008710180019N0112651N1+00501+00001999999ADDGA1021+013501999GA2071+018001999GF107991999999999999999999MA1100411999999REMMET070METAR EDLW 111120Z 18017KT 9999 FEW045 BKN060 05/M00 Q1004 RMK ATIS O;
0092104160999992011011111504+51517+007617FM-15+0148EDLW V0201801N007719999999Y0099001N1+00501+00001999999ADDMA1100411999999REMMET065METAR EDLW 111150Z 18015KT 140V200 CAVOK 05/M00 Q1004 RMK ATIS P;
0131104160999992011011112204+51517+007617FM-15+0148EDLW V0201801N006212200019N0112651N1+00601+00001999999ADDGA1041+009001999GF104991999999999999999999MA1100311999999REMMET062METAR EDLW 111220Z 18012KT 9999 SCT030 06/00 Q1003 RMK ATIS Q;
0139104160999992011011112504+51517+007617FM-15+0148EDLW V0201901N006712200019N0112651N1+00501+00101999999ADDGA1041+009001999GF104991999999999999999999MA1100311999999REMMET070METAR EDLW 111250Z 19013KT 160V230 9999 SCT030 05/01 Q1003 RMK ATIS R;
0131104160999992011011113204+51517+007617FM-15+0148EDLW V0201901N007210090019N0112651N1+00501+00101999999ADDGA1071+009001999GF107991999999999999999999MA1100311999999REMMET062METAR EDLW 111320Z 19014KT 9999 BKN030 05/01 Q1003 RMK ATIS S;
0131104160999992011011113504+51517+007617FM-15+0148EDLW V0201901N008210069019N0112651N1+00501+00101999999ADDGA1071+006901999GF107991999999999999999999MA1100311999999REMMET062METAR EDLW 111350Z 19016KT 9999 BKN023 05/01 Q1003 RMK ATIS T;
0131104160999992011011114204+51517+007617FM-15+0148EDLW V0201901N007710069019N0112651N1+00501+00101999999ADDGA1071+006901999GF107991999999999999999999MA1100311999999REMMET062METAR EDLW 111420Z 19015KT 9999 BKN023 05/01 Q1003 RMK ATIS U;
0131104160999992011011114504+51517+007617FM-15+0148EDLW V0202001N008210072019N0112651N1+00501+00201999999ADDGA1071+007201999GF107991999999999999999999MA1100311999999REMMET062METAR EDLW 111450Z 20016KT 9999 BKN024 05/02 Q1003 RMK ATIS V;
0131104160999992011011115204+51517+007617FM-15+0148EDLW V0202001N007710066019N0112651N1+00501+00201999999ADDGA1071+006601999GF107991999999999999999999MA1100411999999REMMET062METAR EDLW 111520Z 20015KT 9999 BKN022 05/02 Q1004 RMK ATIS W;
0131104160999992011011115504+51517+007617FM-15+0148EDLW V0202001N007210060019N0112651N1+00501+00201999999ADDGA1071+006001999GF107991999999999999999999MA1100411999999REMMET062METAR EDLW 111550Z 20014KT 9999 BKN020 05/02 Q1004 RMK ATIS X;
0131104160999992011011116204+51517+007617FM-15+0148EDLW V0202001N006710039019N0112651N1+00501+00201999999ADDGA1071+003901999GF107991999999999999999999MA1100411999999REMMET062METAR EDLW 111620Z 20013KT 9999 BKN013 05/02 Q1004 RMK ATIS Y;
0131104160999992011011116504+51517+007617FM-15+0148EDLW V0202201N006710039019N0112651N1+00501+00301999999ADDGA1071+003901999GF107991999999999999999999MA1100511999999REMMET062METAR EDLW 111650Z 22013KT 9999 BKN013 05/03 Q1005 RMK ATIS Z;
0131104160999992011011117204+51517+007617FM-15+0148EDLW V0202201N008210030019N0112651N1+00501+00301999999ADDGA1071+003001999GF107991999999999999999999MA1100511999999REMMET062METAR EDLW 111720Z 22016KT 9999 BKN010 05/03 Q1005 RMK ATIS A;
0131104160999992011011117504+51517+007617FM-15+0148EDLW V0202301N007710024019N0112651N1+00501+00301999999ADDGA1071+002401999GF107991999999999999999999MA1100611999999REMMET062METAR EDLW 111750Z 23015KT 9999 BKN008 05/03 Q1006 RMK ATIS B;
0131104160999992011011118204+51517+007617FM-15+0148EDLW V0202301N007710021019N0112651N1+00501+00401999999ADDGA1071+002101999GF107991999999999999999999MA1100611999999REMMET062METAR EDLW 111820Z 23015KT 9999 BKN007 05/04 Q1006 RMK ATIS C;
0131104160999992011011118504+51517+007617FM-15+0148EDLW V0202401N006210021019N0112651N1+00501+00401999999ADDGA1071+002101999GF107991999999999999999999MA1100711999999REMMET062METAR EDLW 111850Z 24012KT 9999 BKN007 05/04 Q1007 RMK ATIS D;
0131104160999992011011119204+51517+007617FM-15+0148EDLW V0202401N006710018019N0090001N1+00501+00401999999ADDGA1071+001801999GF107991999999999999999999MA1100711999999REMMET062METAR EDLW 111920Z 24013KT 9000 BKN006 05/04 Q1007 RMK ATIS E;
0131104160999992011011119504+51517+007617FM-15+0148EDLW V0202401N007710018019N0090001N1+00601+00401999999ADDGA1071+001801999GF107991999999999999999999MA1100811999999REMMET062METAR EDLW 111950Z 24015KT 9000 BKN006 06/04 Q1008 RMK ATIS F;
0083104160999992011011120204+51517+007617FM-15+0148EDLW V0202401N007719999999Y0099001N1+00601+00501999999ADDMA1100811999999REMMET056METAR EDLW 112020Z 24015KT CAVOK 06/05 Q1008 RMK ATIS G;
0131104160999992011011120504+51517+007617FM-15+0148EDLW V0202501N007710018019N0112651N1+00601+00501999999ADDGA1071+001801999GF107991999999999999999999MA1100811999999REMMET062METAR EDLW 112050Z 25015KT 9999 BKN006 06/05 Q1008 RMK ATIS H;
0172104160999992011011204204+51517+007617FM-15+0148EDLW V0202701N004110030019N0112651N1+00401+00301999999ADDGA1071+003001999GA2071+004201999GF107991999999999999999999MA1101591999999MW1511REMMET081METAR EDLW 120420Z 27008KT 240V330 9999 -DZ BKN010 BKN014 04/03 Q1016 RMK ATIS A;
0164104160999992011011204504+51517+007617FM-15+0148EDLW V0202601N003110039019N0112651N1+00401+00301999999ADDGA1071+003901999GA2071+004801999GF107991999999999999999999MA1101591999999MW1511REMMET073METAR EDLW 120450Z 26006KT 9999 -DZ BKN013 BKN016 04/03 Q1016 RMK ATIS B;
0164104160999992011011205204+51517+007617FM-15+0148EDLW V0202601N003612200019N0112651N1+00401+00301999999ADDGA1041+002401999GA2041+005101999GF104991999999999999999999MA1101591999999MW1511REMMET073METAR EDLW 120520Z 26007KT 9999 -DZ SCT008 SCT017 04/03 Q1016 RMK ATIS C;
0164104160999992011011205504+51517+007617FM-15+0148EDLW V0202501N004110045019N0112651N1+00401+00301999999ADDGA1041+003001999GA2071+004501999GF107991999999999999999999MA1101591999999MW1511REMMET073METAR EDLW 120550Z 25008KT 9999 -DZ SCT010 BKN015 04/03 Q1016 RMK ATIS D;
0164104160999992011011206204+51517+007617FM-15+0148EDLW V0202501N004610054019N0112651N1+00401+00201999999ADDGA1041+002101999GA2071+005401999GF107991999999999999999999MA1101691999999MW1611REMMET073METAR EDLW 120620Z 25009KT 9999 -RA SCT007 BKN018 04/02 Q1017 RMK ATIS E;
0164104160999992011011206504+51517+007617FM-15+0148EDLW V0202401N005110075019N0112651N1+00401+00201999999ADDGA1041+004501999GA2071+007501999GF107991999999999999999999MA1101691999999MW1611REMMET073METAR EDLW 120650Z 24010KT 9999 -RA SCT015 BKN025 04/02 Q1017 RMK ATIS F;
0164104160999992011011207204+51517+007617FM-15+0148EDLW V0202301N005110120019N0112651N1+00301+00201999999ADDGA1041+007501999GA2071+012001999GF107991999999999999999999MA1101691999999MW1611REMMET073METAR EDLW 120720Z 23010KT 9999 -RA SCT025 BKN040 03/02 Q1017 RMK ATIS G;
0141104160999992011011207504+51517+007617FM-15+0148EDLW V0202201N005710120019N0112651N1+00301+00201999999ADDGA1071+012001999GF107991999999999999999999MA1101691999999MW1511REMMET066METAR EDLW 120750Z 22011KT 9999 -DZ BKN040 03/02 Q1017 RMK ATIS H;
0154104160999992011011208204+51517+007617FM-15+0148EDLW V0202201N004610270019N0112651N1+00301+00201999999ADDGA1041+011101999GA2071+027001999GF107991999999999999999999MA1101691999999REMMET069METAR EDLW 120820Z 22009KT 9999 SCT037 BKN095 03/02 Q1017 RMK ATIS I;
0154104160999992011011208504+51517+007617FM-15+0148EDLW V0202201N004610270019N0112651N1+00401+00201999999ADDGA1041+010501999GA2071+027001999GF107991999999999999999999MA1101691999999REMMET069METAR EDLW 120850Z 22009KT 9999 SCT035 BKN095 04/02 Q1017 RMK ATIS J;
0154104160999992011011209204+51517+007617FM-15+0148EDLW V0202101N005110270019N0112651N1+00401+00201999999ADDGA1041+010501999GA2071+027001999GF107991999999999999999999MA1101691999999REMMET069METAR EDLW 120920Z 21010KT 9999 SCT035 BKN095 04/02 Q1017 RMK ATIS K;
0154104160999992011011209504+51517+007617FM-15+0148EDLW V0202101N004610270019N0112651N1+00401+00201999999ADDGA1021+003901999GA2071+027001999GF107991999999999999999999MA1101691999999REMMET069METAR EDLW 120950Z 21009KT 9999 FEW013 BKN095 04/02 Q1017 RMK ATIS L;
0131104160999992011011210204+51517+007617FM-15+0148EDLW V0202001N004110108019N0112651N1+00401+00201999999ADDGA1071+010801999GF107991999999999999999999MA1101591999999REMMET062METAR EDLW 121020Z 20008KT 9999 BKN036 04/02 Q1016 RMK ATIS M;
0131104160999992011011210504+51517+007617FM-15+0148EDLW V0201901N004610087019N0112651N1+00401+00201999999ADDGA1071+008701999GF107991999999999999999999MA1101591999999REMMET062METAR EDLW 121050Z 19009KT 9999 BKN029 04/02 Q1016 RMK ATIS N;
0131104160999992011011211204+51517+007617FM-15+0148EDLW V0201901N005110075019N0112651N1+00501+00201999999ADDGA1071+007501999GF107991999999999999999999MA1101491999999REMMET062METAR EDLW 121120Z 19010KT 9999 BKN025 05/02 Q1015 RMK ATIS O;
0141104160999992011011211504+51517+007617FM-15+0148EDLW V0202001N005110057019N0112651N1+00401+00201999999ADDGA1071+005701999GF107991999999999999999999MA1101491999999MW1611REMMET066METAR EDLW 121150Z 20010KT 9999 -RA BKN019 04/02 Q1015 RMK ATIS P;
0164104160999992011011212204+51517+007617FM-15+0148EDLW V0202001N006210105019N0080001N1+00401+00201999999ADDGA1041+005401999GA2071+010501999GF107991999999999999999999MA1101391999999MW1611REMMET073METAR EDLW 121220Z 20012KT 8000 -RA SCT018 BKN035 04/02 Q1014 RMK ATIS Q;
0141104160999992011011212504+51517+007617FM-15+0148EDLW V0202001N004110045019N0090001N1+00401+00201999999ADDGA1071+004501999GF107991999999999999999999MA1101391999999MW1611REMMET066METAR EDLW 121250Z 20008KT 9000 -RA BKN015 04/02 Q1014 RMK ATIS R;
0164104160999992011011213204+51517+007617FM-15+0148EDLW V0201901N004110081019N0112651N1+00401+00201999999ADDGA1041+004501999GA2081+008101999GF108991999999999999999999MA1101291999999MW1611REMMET073METAR EDLW 121320Z 19008KT 9999 -RA SCT015 OVC027 04/02 Q1013 RMK ATIS S;
0164104160999992011011213504+51517+007617FM-15+0148EDLW V0201901N005110069019N0112651N1+00401+00301999999ADDGA1041+005701999GA2071+006901999GF107991999999999999999999MA1101191999999MW1611REMMET073METAR EDLW 121350Z 19010KT 9999 -RA SCT019 BKN023 04/03 Q1012 RMK ATIS T;
0149104160999992011011214204+51517+007617FM-15+0148EDLW V0202101N005710051019N0112651N1+00501+00301999999ADDGA1071+005101999GF107991999999999999999999MA1101191999999MW1611REMMET074METAR EDLW 121420Z 21011KT 170V250 9999 -RA BKN017 05/03 Q1012 RMK ATIS U;
0141104160999992011011214504+51517+007617FM-15+0148EDLW V0202001N006710066019N0112651N1+00501+00301999999ADDGA1071+006601999GF107991999999999999999999MA1101081999999MW1611REMMET066METAR EDLW 121450Z 20013KT 9999 -RA BKN022 05/03 Q1011 RMK ATIS V;
0131104160999992011011215204+51517+007617FM-15+0148EDLW V0202001N006210048019N0112651N1+00501+00301999999ADDGA1071+004801999GF107991999999999999999999MA1101081999999REMMET062METAR EDLW 121520Z 20012KT 9999 BKN016 05/03 Q1011 RMK ATIS W;
0149104160999992011011215504+51517+007617FM-15+0148EDLW V0202001N006710051019N0045001N1+00501+00401999999ADDGA1071+005101999GF107991999999999999999999MA1101081999999MW1101MW2531REMMET068METAR EDLW 121550Z 20013KT 4500 DZ BR BKN017 05/04 Q1011 RMK ATIS X;
0131104160999992011011216204+51517+007617FM-15+0148EDLW V0202101N006710048019N0112651N1+00501+00401999999ADDGA1071+004801999GF107991999999999999999999MA1101021999999REMMET062METAR EDLW 121620Z 21013KT 9999 BKN016 05/04 Q1010 RMK ATIS Y;
0131104160999992011011216504+51517+007617FM-15+0148EDLW V0202001N007210048019N0112651N1+00601+00401999999ADDGA1071+004801999GF107991999999999999999999MA1101021999999REMMET062METAR EDLW 121650Z 20014KT 9999 BKN016 06/04 Q1010 RMK ATIS Z;
0141104160999992011011217204+51517+007617FM-15+0148EDLW V0202001N007210045019N0112651N1+00601+00501999999ADDGA1071+004501999GF107991999999999999999999MA1101021999999MW1611REMMET066METAR EDLW 121720Z 20014KT 9999 -RA BKN015 06/05 Q1010 RMK ATIS A;
0141104160999992011011217504+51517+007617FM-15+0148EDLW V0202101N007210045019N0112651N1+00601+00501999999ADDGA1071+004501999GF107991999999999999999999MA1101021999999MW1611REMMET066METAR EDLW 121750Z 21014KT 9999 -RA BKN015 06/05 Q1010 RMK ATIS B;
0141104160999992011011218204+51517+007617FM-15+0148EDLW V0202101N007710042019N0112651N1+00601+00501999999ADDGA1071+004201999GF107991999999999999999999MA1101021999999MW1611REMMET066METAR EDLW 121820Z 21015KT 9999 -RA BKN014 06/05 Q1010 RMK ATIS C;
0131104160999992011011218504+51517+007617FM-15+0148EDLW V0202001N008710042019N0112651N1+00701+00501999999ADDGA1071+004201999GF107991999999999999999999MA1100911999999REMMET062METAR EDLW 121850Z 20017KT 9999 BKN014 07/05 Q1009 RMK ATIS D;
0141104160999992011011219204+51517+007617FM-15+0148EDLW V0202101N007710036019N0112651N1+00701+00601999999ADDGA1071+003601999GF107991999999999999999999MA1100911999999MW1611REMMET066METAR EDLW 121920Z 21015KT 9999 -RA BKN012 07/06 Q1009 RMK ATIS E;
0141104160999992011011219504+51517+007617FM-15+0148EDLW V0202101N007210039019N0112651N1+00701+00601999999ADDGA1071+003901999GF107991999999999999999999MA1100911999999MW1611REMMET066METAR EDLW 121950Z 21014KT 9999 -RA BKN013 07/06 Q1009 RMK ATIS F;
0141104160999992011011220204+51517+007617FM-15+0148EDLW V0202201N008210033019N0112651N1+00701+00601999999ADDGA1071+003301999GF107991999999999999999999MA1100911999999MW1611REMMET066METAR EDLW 122020Z 22016KT 9999 -RA BKN011 07/06 Q1009 RMK ATIS G;
0141104160999992011011220504+51517+007617FM-15+0148EDLW V0202201N008710039019N0112651N1+00701+00601999999ADDGA1071+003901999GF107991999999999999999999MA1100911999999MW1611REMMET066METAR EDLW 122050Z 22017KT 9999 -RA BKN013 07/06 Q1009 RMK ATIS H;
0150104160999992011011304204+51517+007617FM-15+0148EDLW V0202401N003110015019N0040001N1+00901+00801999999ADDGA1071+001501999GF107991999999999999999999MA1101021999999MW1101MW2611REMMET069METAR EDLW 130420Z 24006KT 4000 -RA BR BKN005 09/08 Q1010 RMK ATIS A;
0140104160999992011011304504+51517+007617FM-15+0148EDLW V0202301N002610015019N0030001N1+00901+00901999999ADDGA1071+001501999GF107991999999999999999999MA1101021999999MW1631REMMET065METAR EDLW 130450Z 23005KT 3000 RA BKN005 09/09 Q1010 RMK ATIS B;
0140104160999992011011305204+51517+007617FM-15+0148EDLW V0202201N003110009019N0045001N1+00901+00901999999ADDGA1071+000901999GF107991999999999999999999MA1101021999999MW1631REMMET065METAR EDLW 130520Z 22006KT 4500 RA BKN003 09/09 Q1010 RMK ATIS C;
0140104160999992011011306204+51517+007617FM-15+0148EDLW V0202201N004610012019N0045001N1+01001+00901999999ADDGA1071+001201999GF107991999999999999999999MA1101021999999MW1631REMMET065METAR EDLW 130620Z 22009KT 4500 RA BKN004 10/09 Q1010 RMK ATIS E;
0139104160999992011011307204+51517+007617FM-15+0148EDLW V0202201N004610015019N0050001N1+01001+00901999999ADDGA1071+001501999GF107991999999999999999999MA1101021999999MW1631REMMET064METAR EDLW 130720Z 22009KT 5000 RA BKN005 10/09 Q1010 RMK ATISG;
0146104160999992011011307504+51517+007617FM-15+0148EDLW V0202301N004610027019N0060001N1+01001+00901999999ADDGA1071+002701999GF107991999999999999999999MA1101021999999MW1611REMMET071METAR EDLW 130750Z 23009KT 6000 -RA BKN009 10/09 Q1010 RERA RMK ATIS H;
0163104160999992011011308204+51517+007617FM-15+0148EDLW V0202301N004610030019N0050001N1+01001+00901999999ADDGA1041+001501999GA2071+003001999GF107991999999999999999999MA1101021999999MW1631REMMET072METAR EDLW 130820Z 23009KT 5000 RA SCT005 BKN010 10/09 Q1010 RMK ATIS I;
0146104160999992011011308504+51517+007617FM-15+0148EDLW V0202301N005110021019N0060001N1+01001+00901999999ADDGA1071+002101999GF107991999999999999999999MA1100911999999MW1611REMMET071METAR EDLW 130850Z 23010KT 6000 -RA BKN007 10/09 Q1009 RERA RMK ATIS J;
0141104160999992011011309204+51517+007617FM-15+0148EDLW V0202301N005710021019N0050001N1+01001+00901999999ADDGA1071+002101999GF107991999999999999999999MA1100911999999MW1611REMMET066METAR EDLW 130920Z 23011KT 5000 -RA BKN007 10/09 Q1009 RMK ATIS K;
0141104160999992011011309504+51517+007617FM-15+0148EDLW V0202301N005110015019N0060001N1+01001+00901999999ADDGA1071+001501999GF107991999999999999999999MA1101021999999MW1611REMMET066METAR EDLW 130950Z 23010KT 6000 -RA BKN005 10/09 Q1010 RMK ATIS J;
0141104160999992011011310204+51517+007617FM-15+0148EDLW V0202401N006210018019N0070001N1+01001+00901999999ADDGA1071+001801999GF107991999999999999999999MA1100911999999MW1611REMMET066METAR EDLW 131020Z 24012KT 7000 -RA BKN006 10/09 Q1009 RMK ATIS K;
0141104160999992011011310504+51517+007617FM-15+0148EDLW V0202401N006210018019N0060001N1+01101+01001999999ADDGA1071+001801999GF107991999999999999999999MA1100911999999MW1611REMMET066METAR EDLW 131050Z 24012KT 6000 -RA BKN006 11/10 Q1009 RMK ATIS L;
0176104160999992011011312204+51517+007617FM-15+0148EDLW V0202501N006210012019N0025001N1+01101+01001999999ADDED124U11009GA1071+001201999GF107991999999999999999999MA1100911999999MW1101MW2611REMMET084METAR EDLW 131220Z 25012KT 2500 R24/1100D -RA BR BKN004 11/10 Q1009 RERA RMK ATIS O;
0150104160999992011011313204+51517+007617FM-15+0148EDLW V0202501N006710012019N0030001N1+01101+01001999999ADDGA1071+001201999GF107991999999999999999999MA1100911999999MW1101MW2611REMMET069METAR EDLW 131320Z 25013KT 3000 -RA BR BKN004 11/10 Q1009 RMK ATIS Q;
0150104160999992011011313504+51517+007617FM-15+0148EDLW V0202501N006210015019N0030001N1+01101+01001999999ADDGA1071+001501999GF107991999999999999999999MA1100911999999MW1101MW2611REMMET069METAR EDLW 131350Z 25012KT 3000 -RA BR BKN005 11/10 Q1009 RMK ATIS R;
0141104160999992011011314204+51517+007617FM-15+0148EDLW V0202401N007210012019N0080001N1+01101+01001999999ADDGA1071+001201999GF107991999999999999999999MA1100911999999MW1611REMMET066METAR EDLW 131420Z 24014KT 8000 -RA BKN004 11/10 Q1009 RMK ATIS S;
