0085108520999992014032118204+48425+010932FM-15+046299999V0203201N004119999999Y999999999+01401+00101999999ADDMA1101201999990REMMET058METAR EDMA 211820Z 32008KT CAVOK 14/01 Q1012 RMK ATIS GOL=
0085108520999992014032118504+48425+010932FM-15+046299999V0203501N003619999999Y999999999+01301+00101999999ADDMA1101201999990REMMET058METAR EDMA 211850Z 35007KT CAVOK 13/01 Q1012 RMK ATIS HOT=
0085108520999992014032119204+48425+010932FM-15+046299999V0203301N001519999999Y999999999+01201+00101999999ADDMA1101201999990REMMET058METAR EDMA 211920Z 33003KT CAVOK 12/01 Q1012 RMK ATIS IND=
0085108520999992014032119504+48425+010932FM-15+046299999V0209999V001019999999Y999999999+01201+00101999999ADDMA1101301999990REMMET058METAR EDMA 211950Z VRB02KT CAVOK 12/01 Q1013 RMK ATIS JUL=
0085108520999992014032205504+48425+010932FM-15+046299999V0201501N003119999999Y999999999+00701+00101999999ADDMA1100801999990REMMET058METAR EDMA 220550Z 15006KT CAVOK 07/01 Q1008 RMK ATIS DEL=
0085108520999992014032206204+48425+010932FM-15+046299999V0201601N003119999999Y999999999+00701+00201999999ADDMA1100801999990REMMET058METAR EDMA 220620Z 16006KT CAVOK 07/02 Q1008 RMK ATIS ECH=
0085108520999992014032206504+48425+010932FM-15+046299999V0201501N002119999999Y999999999+00801+00201999999ADDMA1100801999990REMMET058METAR EDMA 220650Z 15004KT CAVOK 08/02 Q1008 RMK ATIS FOX=
0085108520999992014032207204+48425+010932FM-15+046299999V0201601N002619999999Y999999999+00901+00201999999ADDMA1100801999990REMMET058METAR EDMA 220720Z 16005KT CAVOK 09/02 Q1008 RMK ATIS GOL=
0085108520999992014032207504+48425+010932FM-15+046299999V0201501N002619999999Y999999999+01001+00301999999ADDMA1100701999990REMMET058METAR EDMA 220750Z 15005KT CAVOK 10/03 Q1007 RMK ATIS HOT=
0093108520999992014032208204+48425+010932FM-15+046299999V0201601V002119999999Y999999999+01201+00301999999ADDMA1100701999990REMMET066METAR EDMA 220820Z 16004KT 120V200 CAVOK 12/03 Q1007 RMK ATIS IND=
0093108520999992014032208504+48425+010932FM-15+046299999V0202501V001519999999Y999999999+01501+00401999999ADDMA1100701999990REMMET066METAR EDMA 220850Z 25003KT 200V330 CAVOK 15/04 Q1007 RMK ATIS JUL=
0093108520999992014032209204+48425+010932FM-15+046299999V0203001V001519999999Y999999999+01501+00401999999ADDMA1100701999990REMMET066METAR EDMA 220920Z 30003KT 250V050 CAVOK 15/04 Q1007 RMK ATIS KIL=
0085108520999992014032209504+48425+010932FM-15+046299999V0209999V001019999999Y999999999+01701+00401999999ADDMA1100601999990REMMET058METAR EDMA 220950Z VRB02KT CAVOK 17/04 Q1006 RMK ATIS LIM=
0080108520999992014032210204+48425+010932FM-15+046299999V0202301V002119999999Y999999999+01701+00401999999ADDMA1100601999990REMMET053METAR EDMA 221020Z 23004KT 170V330 CAVOK 17/04 Q1006=
0093108520999992014032210504+48425+010932FM-15+046299999V0202601V003619999999Y999999999+01701+00501999999ADDMA1100601999990REMMET066METAR EDMA 221050Z 26007KT 230V330 CAVOK 17/05 Q1006 RMK ATIS NOV=
0085108520999992014032211204+48425+010932FM-15+046299999V0203001N006719999999Y999999999+01501+00501999999ADDMA1100601999990REMMET058METAR EDMA 221120Z 30013KT CAVOK 15/05 Q1006 RMK ATIS OSC=
0155108520999992014032211504+48425+010932FM-15+046299999V0203101N008819999999N009999199+01301+00501999999ADDGA1041+011891991GE19MSL   +99999+99999GF199999041990011891991991MA1100601999990REMMET064METAR EDMA 221150Z 31017KT 9999 SCT039 13/05 Q1006 RMK ATIS PAP=
0183108520999992014032212204+48425+010932FM-15+046299999V0203001N007710176819N009999199+01301+00501999999ADDGA1041+010061991GA2071+017681991GE19MSL   +99999+99999GF199999041990010061991991MA1100601999990REMMET076METAR EDMA 221220Z 30015KT 9999 SCT033 BKN058 13/05 Q1006 RMK ATIS      QUE=
0155108520999992014032212504+48425+010932FM-15+046299999V0202801N008219999999N009999199+01301+00401999999ADDGA1021+010361991GE19MSL   +99999+99999GF199999021990010361991991MA1100601999990REMMET064METAR EDMA 221250Z 28016KT 9999 FEW034 13/04 Q1006 RMK ATIS ROM=
0155108520999992014032213204+48425+010932FM-15+046299999V0202901N007219999999N009999199+01301+00401999999ADDGA1021+010061991GE19MSL   +99999+99999GF199999021990010061991991MA1100601999990REMMET064METAR EDMA 221320Z 29014KT 9999 FEW033 13/04 Q1006 RMK ATIS SIE=
0183108520999992014032213504+48425+010932FM-15+046299999V0203101N005710173719N009999199+01201+00401999999ADDGA1021+008841991GA2071+017371991GE19MSL   +99999+99999GF199999021990008841991991MA1100501999990REMMET076METAR EDMA 221350Z 31011KT 9999 FEW029 BKN057 12/04 Q1005 RMK ATIS      TAN=
0183108520999992014032214204+48425+010932FM-15+046299999V0203201N004610173719N009999199+01201+00401999999ADDGA1021+008841991GA2071+017371991GE19MSL   +99999+99999GF199999021990008841991991MA1100501999990REMMET076METAR EDMA 221420Z 32009KT 9999 FEW029 BKN057 12/04 Q1005 RMK ATIS      UNI=
0191108520999992014032214504+48425+010932FM-15+046299999V0203001V003110134119N009999199+01101+00401999999ADDGA1021+009141991GA2071+013411991GE19MSL   +99999+99999GF199999021990009141991991MA1100501999990REMMET084METAR EDMA 221450Z 30006KT 280V340 9999 FEW030 BKN044 11/04 Q1005 RMK      ATIS VIC=
0175108520999992014032215204+48425+010932FM-15+046299999V0203001N003610076219N009000199+01101+00501999999ADDGA1071+007621991GA2081+016151991GE19MSL   +99999+99999GF199999071990007621991991MA1100501999990MW1611REMMET062METAR EDMA 221520Z 30007KT 9000 -RA BKN025 OVC053 11/05 Q1005=
0193108520999992014032215504+48425+010932FM-15+046299999V0203201N003110048819N008000199+01001+00601999999ADDGA1071+004881991GA2081+005791991GE19MSL   +99999+99999GF199999071990004881991991MA1100501999990MW1611REMMET080METAR EDMA 221550Z 32006KT 8000 -RA BKN016 OVC019 10/06 Q1005 RMK ATIS      X-R=
0192108520999992014032216204+48425+010932FM-15+046299999V0203101N003610085319N005000199+00901+00801999999ADDGA1071+008531991GA2081+010061991GE19MSL   +99999+99999GF199999071990008531991991MA1100601999990MW1631REMMET079METAR EDMA 221620Z 31007KT 5000 RA BKN028 OVC033 09/08 Q1006 RMK ATIS      YAN=
0192108520999992014032216504+48425+010932FM-15+046299999V0202701N002610039619N006000199+00901+00901999999ADDGA1071+003961991GA2081+010061991GE19MSL   +99999+99999GF199999071990003961991991MA1100601999990MW1631REMMET079METAR EDMA 221650Z 27005KT 6000 RA BKN013 OVC033 09/09 Q1006 RMK ATIS      ZUL=
0192108520999992014032217204+48425+010932FM-15+046299999V0202501N002610021319N008000199+00801+00801999999ADDGA1071+002131991GA2081+011891991GE19MSL   +99999+99999GF199999071990002131991991MA1100601999990MW1631REMMET079METAR EDMA 221720Z 25005KT 8000 RA BKN007 OVC039 08/08 Q1006 RMK ATIS      ALF=
0216108520999992014032217504+48425+010932FM-15+046299999V0202301N002610073219N009999199+00801+00801999999ADDGA1021+003351991GA2071+007321991GA3081+011581991GE19MSL   +99999+99999GF199999021990003351991991MA1100601999990MW1611REMMET087METAR EDMA 221750Z 23005KT 9999 -RA FEW011 BKN024 OVC038 08/08 Q1006      RMK ATIS BRA=
0193108520999992014032218204+48425+010932FM-15+046299999V0202201N005710097519N009999199+00801+00701999999ADDGA1041+002131991GA2071+009751991GE19MSL   +99999+99999GF199999041990002131991991MA1100601999990MW1611REMMET080METAR EDMA 221820Z 22011KT 9999 -RA SCT007 BKN032 08/07 Q1006 RMK ATIS      CHA=
0164108520999992014032218504+48425+010932FM-15+046299999V0202001N005110091419N009999199+00701+00601999999ADDGA1081+009141991GE19MSL   +99999+99999GF199999081990009141991991MA1100601999990MW1631REMMET067METAR EDMA 221850Z 20010KT 9999 RA OVC030 07/06 Q1006 RMK ATIS DEL=
0165108520999992014032219204+48425+010932FM-15+046299999V0202001N005710091419N009999199+00701+00601999999ADDGA1071+009141991GE19MSL   +99999+99999GF199999071990009141991991MA1100601999990MW1611REMMET068METAR EDMA 221920Z 20011KT 9999 -RA BKN030 07/06 Q1006 RMK ATIS ECH=
0193108520999992014032219504+48425+010932FM-15+046299999V0202201N004610100619N009999199+00701+00601999999ADDGA1021+006101991GA2071+010061991GE19MSL   +99999+99999GF199999021990006101991991MA1100701999990MW1611REMMET080METAR EDMA 221950Z 22009KT 9999 -RA FEW020 BKN033 07/06 Q1007 RMK ATIS      FOX=
0193108520999992014032304504+48425+010932FM-15+046299999V0202001N002110079219N009000199+00401+00401999999ADDGA1071+007921991GA2081+012801991GE19MSL   +99999+99999GF199999071990007921991991MA1100601999990MW1511REMMET080METAR EDMA 230450Z 20004KT 9000 -DZ BKN026 OVC042 04/04 Q1006 RMK ATIS      X-R=
0164108520999992014032307504+48425+010932FM-15+046299999V0202401N003110042719N008000199+00401+00401999999ADDGA1081+004271991GE19MSL   +99999+99999GF199999081990004271991991MA1100601999990MW1631REMMET067METAR EDMA 230750Z 24006KT 8000 RA OVC014 04/04 Q1006 RMK ATIS DEL=
0164108520999992014032308204+48425+010932FM-15+046299999V0202401N003610042719N007000199+00401+00401999999ADDGA1081+004271991GE19MSL   +99999+99999GF199999081990004271991991MA1100601999990MW1631REMMET067METAR EDMA 230820Z 24007KT 7000 RA OVC014 04/04 Q1006 RMK ATIS ECH=
0164108520999992014032308504+48425+010932FM-15+046299999V0202501N003610042719N007000199+00401+00401999999ADDGA1081+004271991GE19MSL   +99999+99999GF199999081990004271991991MA1100601999990MW1631REMMET067METAR EDMA 230850Z 25007KT 7000 RA OVC014 04/04 Q1006 RMK ATIS FOX=
0192108520999992014032309204+48425+010932FM-15+046299999V0202801N003110027419N007000199+00401+00401999999ADDGA1071+002741991GA2081+003661991GE19MSL   +99999+99999GF199999071990002741991991MA1100601999990MW1631REMMET079METAR EDMA 230920Z 28006KT 7000 RA BKN009 OVC012 04/04 Q1006 RMK ATIS      GOL=
0164108520999992014032309504+48425+010932FM-15+046299999V0200101N003610036619N007000199+00301+00301999999ADDGA1081+003661991GE19MSL   +99999+99999GF199999081990003661991991MA1100601999990MW1631REMMET067METAR EDMA 230950Z 01007KT 7000 RA OVC012 03/03 Q1006 RMK ATIS HOT=
0200108520999992014032310204+48425+010932FM-15+046299999V0203101V003110051819N007000199+00301+00301999999ADDGA1041+003051991GA2081+005181991GE19MSL   +99999+99999GF199999041990003051991991MA1100601999990MW1631REMMET087METAR EDMA 231020Z 31006KT 280V340 7000 RA SCT010 OVC017 03/03 Q1006      RMK ATIS IND=
0200108520999992014032310504+48425+010932FM-15+046299999V0203301V004110051819N009000199+00301+00301999999ADDGA1041+003051991GA2081+005181991GE19MSL   +99999+99999GF199999041990003051991991MA1100601999990MW1631REMMET087METAR EDMA 231050Z 33008KT 300V010 9000 RA SCT010 OVC017 03/03 Q1006      RMK ATIS JUL=
0198108520999992014032311204+48425+010932FM-15+046299999V0203301N003110070119N009999199+00401+00301999999ADDGA1041+003661991GA2071+007011991GE19MSL   +99999+99999GF199999041990003661991991MA1100601999990MW1611REMMET085METAR EDMA 231120Z 33006KT 9999 -RA SCT012 BKN023 04/03 Q1006 RERA      RMK ATIS KIL=
0193108520999992014032311504+48425+010932FM-15+046299999V0203501N003110094519N009999199+00401+00301999999ADDGA1041+003661991GA2071+009451991GE19MSL   +99999+99999GF199999041990003661991991MA1100601999990MW1611REMMET080METAR EDMA 231150Z 35006KT 9999 -RA SCT012 BKN031 04/03 Q1006 RMK ATIS      LIM=
0191108520999992014032312204+48425+010932FM-15+046299999V0200101V003610088419N009999199+00401+00301999999ADDGA1041+003051991GA2071+008841991GE19MSL   +99999+99999GF199999041990003051991991MA1100601999990REMMET084METAR EDMA 231220Z 01007KT 340V040 9999 SCT010 BKN029 04/03 Q1006 RMK      ATIS MIK=
0200108520999992014032312504+48425+010932FM-15+046299999V0203101V003110088419N009999199+00401+00301999999ADDGA1021+001521991GA2071+008841991GE19MSL   +99999+99999GF199999021990001521991991MA1100601999990MW1531REMMET087METAR EDMA 231250Z 31006KT 260V360 9999 DZ FEW005 BKN029 04/03 Q1006      RMK ATIS NOV=
0191108520999992014032313204+48425+010932FM-15+046299999V0200101V002110088419N009999199+00501+00201999999ADDGA1021+003661991GA2071+008841991GE19MSL   +99999+99999GF199999021990003661991991MA1100601999990REMMET084METAR EDMA 231320Z 01004KT 330V040 9999 FEW012 BKN029 05/02 Q1006 RMK      ATIS OSC=
0193108520999992014032313504+48425+010932FM-15+046299999V0203601N005110094519N009999199+00301+00201999999ADDGA1041+003661991GA2071+009451991GE19MSL   +99999+99999GF199999041990003661991991MA1100601999990MW1511REMMET080METAR EDMA 231350Z 36010KT 9999 -DZ SCT012 BKN031 03/02 Q1006 RMK ATIS      PAP=
0168108520999992014032314204+48425+010932FM-15+046299999V0202001V001510121919N009999199+00401+00301999999ADDGA1071+012191991GE19MSL   +99999+99999GF199999071990012191991991MA1100601999990REMMET077METAR EDMA 231420Z 20003KT 160V240 9999 BKN040 04/03 Q1006 RMK ATIS      QUE=
0201108520999992014032314504+48425+010932FM-15+046299999V0202601V001510121919N009999199+00401+00301999999ADDGA1041+003351991GA2071+012191991GE19MSL   +99999+99999GF199999041990003351991991MA1100701999990MW1611REMMET088METAR EDMA 231450Z 26003KT 190V340 9999 -RA SCT011 BKN040 04/03 Q1007      RMK ATIS ROM=
0188108520999992014032315204+48425+010932FM-15+046299999V0202101N002110088419N009999199+00401+00301999999ADDGA1021+003051991GA2071+008841991GE19MSL   +99999+99999GF199999021990003051991991MA1100701999990REMMET081METAR EDMA 231520Z 21004KT 9999 FEW010 BKN029 04/03 Q1007 RERA RMK      ATIS SIE=
0191108520999992014032315504+48425+010932FM-15+046299999V0202101V001510185919N009999199+00401+00301999999ADDGA1021+003961991GA2071+018591991GE19MSL   +99999+99999GF199999021990003961991991MA1100701999990REMMET084METAR EDMA 231550Z 21003KT 170V230 9999 FEW013 BKN061 04/03 Q1007 RMK      ATIS TAN=
0216108520999992014032316204+48425+010932FM-15+046299999V0202101N00211007621CN009999199+00401+00301999999ADDGA1021+002741991GA2041+007621991GA3071+018591991GE19MSL   +99999+99999GF199999021990002741991991MA1100701999990MW1511REMMET087METAR EDMA 231620Z 21004KT 9999 -DZ FEW009 SCT025 BKN061 04/03 Q1007      RMK ATIS UNI=
0206108520999992014032316504+48425+010932FM-15+046299999V0202201N00311010671CN009999199+00401+00301999999ADDGA1021+003351991GA2041+010671991GA3071+020121991GE19MSL   +99999+99999GF199999021990003351991991MA1100701999990REMMET083METAR EDMA 231650Z 22006KT 9999 FEW011 SCT035 BKN066 04/03 Q1007 RMK      ATIS VIC=
0206108520999992014032317204+48425+010932FM-15+046299999V0202401N00261008531CN009999199+00301+00201999999ADDGA1021+003051991GA2041+008531991GA3071+019201991GE19MSL   +99999+99999GF199999021990003051991991MA1100701999990REMMET083METAR EDMA 231720Z 24005KT 9999 FEW010 SCT028 BKN063 03/02 Q1007 RMK      ATIS WHI=
0224108520999992014032317504+48425+010932FM-15+046299999V0202001V00151008231CN009999199+00301+00301999999ADDGA1021+002441991GA2041+008231991GA3071+019201991GE19MSL   +99999+99999GF199999021990002441991991MA1100701999990MW1511REMMET095METAR EDMA 231750Z 20003KT 150V250 9999 -DZ FEW008 SCT027 BKN063 03/03      Q1007 RMK ATIS X-R=
0216108520999992014032318204+48425+010932FM-15+046299999V0209999V00101008231CN009999199+00301+00301999999ADDGA1021+002441991GA2041+008231991GA3071+020421991GE19MSL   +99999+99999GF199999021990002441991991MA1100701999990MW1511REMMET087METAR EDMA 231820Z VRB02KT 9999 -DZ FEW008 SCT027 BKN067 03/03 Q1007      RMK ATIS YAN=
0216108520999992014032318504+48425+010932FM-15+046299999V0209999V00101008231CN009999199+00301+00301999999ADDGA1021+002441991GA2041+008231991GA3071+013411991GE19MSL   +99999+99999GF199999021990002441991991MA1100701999990MW1511REMMET087METAR EDMA 231850Z VRB02KT 9999 -DZ FEW008 SCT027 BKN044 03/03 Q1007      RMK ATIS ZUL=
0198108520999992014032319204+48425+010932FM-15+046299999V0201501N00261008231CN009999199+00201+00201999999ADDGA1021+001221991GA2041+008231991GA3071+022861991GE19MSL   +99999+99999GF199999021990001221991991MA1100801999990MW1511REMMET069METAR EDMA 231920Z 15005KT 9999 -DZ FEW004 SCT027 BKN075 02/02 Q1008=
0216108520999992014032319504+48425+010932FM-15+046299999V0201901N00211011891CN009999199+00201+00201999999ADDGA1021+001831991GA2041+011891991GA3071+023161991GE19MSL   +99999+99999GF199999021990001831991991MA1100801999990MW1511REMMET087METAR EDMA 231950Z 19004KT 9999 -DZ FEW006 SCT039 BKN076 02/02 Q1008      RMK ATIS BRA=
0183108520999992014032405204+48425+010932FM-15+046299999V0202601N002610192019N009000199+00201+00201999999ADDGA1041+011581991GA2071+019201991GE19MSL   +99999+99999GF199999041990011581991991MA1101001999990REMMET076METAR EDMA 240520Z 26005KT 9000 SCT038 BKN063 02/02 Q1010 RMK ATIS      UNI=
0183108520999992014032405504+48425+010932FM-15+046299999V0202701N002110170719N009000199+00201+00201999999ADDGA1041+011281991GA2071+017071991GE19MSL   +99999+99999GF199999041990011281991991MA1101001999990REMMET076METAR EDMA 240550Z 27004KT 9000 SCT037 BKN056 02/02 Q1010 RMK ATIS      VIC=
0183108520999992014032406204+48425+010932FM-15+046299999V0202601N003110213419N009000199+00201+00201999999ADDGA1041+015241991GA2071+021341991GE19MSL   +99999+99999GF199999041990015241991991MA1101001999990REMMET076METAR EDMA 240620Z 26006KT 9000 SCT050 BKN070 02/02 Q1010 RMK ATIS      WHI=
0183108520999992014032406504+48425+010932FM-15+046299999V0202701N003110170719N009000199+00301+00201999999ADDGA1041+014631991GA2071+017071991GE19MSL   +99999+99999GF199999041990014631991991MA1101101999990REMMET076METAR EDMA 240650Z 27006KT 9000 SCT048 BKN056 03/02 Q1011 RMK ATIS      X-R=
0085108520999992014032407204+48425+010932FM-15+046299999V0202701N004119999999Y999999999+00301+00201999999ADDMA1101101999990REMMET058METAR EDMA 240720Z 27008KT CAVOK 03/02 Q1011 RMK ATIS YAN=
0183108520999992014032407504+48425+010932FM-15+046299999V0202801N004610237719N009999199+00301+00201999999ADDGA1021+003351991GA2071+023771991GE19MSL   +99999+99999GF199999021990003351991991MA1101101999990REMMET076METAR EDMA 240750Z 28009KT 9999 FEW011 BKN078 03/02 Q1011 RMK ATIS      ZUL=
0165108520999992014032408204+48425+010932FM-15+046299999V0202801N004110246919N009999199+00401+00301999999ADDGA1041+003351991GA2071+024691991GE19MSL   +99999+99999GF199999041990003351991991MA1101101999990REMMET058METAR EDMA 240820Z 28008KT 9999 SCT011 BKN081 04/03 Q1011=
0183108520999992014032408504+48425+010932FM-15+046299999V0202901N004610246919N009999199+00401+00101999999ADDGA1041+003661991GA2071+024691991GE19MSL   +99999+99999GF199999041990003661991991MA1101101999990REMMET076METAR EDMA 240850Z 29009KT 9999 SCT012 BKN081 04/01 Q1011 RMK ATIS      BRA=
0183108520999992014032409204+48425+010932FM-15+046299999V0202901N004110246919N009999199+00501+00101999999ADDGA1041+004571991GA2071+024691991GE19MSL   +99999+99999GF199999041990004571991991MA1101101999990REMMET076METAR EDMA 240920Z 29008KT 9999 SCT015 BKN081 05/01 Q1011 RMK ATIS      CHA=
0191108520999992014032409504+48425+010932FM-15+046299999V0202801V003610085319N009999199+00501+00201999999ADDGA1041+004571991GA2071+008531991GE19MSL   +99999+99999GF199999041990004571991991MA1101101999990REMMET084METAR EDMA 240950Z 28007KT 250V320 9999 SCT015 BKN028 05/02 Q1011 RMK      ATIS DEL=
0215108520999992014032410204+48425+010932FM-15+046299999V0202801V004110097519N009999199+00601+00001999999ADDGA1041+006711991GA2071+009751991GA3071+025301991GE19MSL   +99999+99999GF199999041990006711991991MA1101101999990REMMET092METAR EDMA 241020Z 28008KT 250V320 9999 SCT022 BKN032 BKN083 06/M00      Q1011 RMK ATIS ECH=
0202108520999992014032410504+48425+010932FM-15+046299999V0202901V002610070119N009999199+00501-00101999999ADDGA1071+007011991GA2071+019811991GE19MSL   +99999+99999GF199999071990007011991991MA1101101999990MW1791REMMET089METAR EDMA 241050Z 29005KT 240V350 9999 -PL BKN023 BKN065 05/M01 Q1011      RMK ATIS FOX=
0183108520999992014032411204+48425+010932FM-15+046299999V0202501N004110076219N009999199+00601+00101999999ADDGA1071+007621991GA2071+019201991GE19MSL   +99999+99999GF199999071990007621991991MA1101101999990REMMET076METAR EDMA 241120Z 25008KT 9999 BKN025 BKN063 06/01 Q1011 RMK ATIS      GOL=
0219108520999992014032411504+48425+010932FM-15+046299999V0203501N007210094519N007000199+00401-00101999999ADDGA1041+003051991GA2071+009451991GA3071+022861991GE19MSL   +99999+99999GF199999041990003051991991MA1101101999990MW1681REMMET090METAR EDMA 241150Z 35014KT 7000 -RASN SCT010 BKN031 BKN075 04/M01 Q1011      RMK ATIS HOT=
0213108520999992014032412204+48425+010932FM-15+046299999V0203501N00511008531CN009999199+00301+00201999999ADDGA1021+002441991GA2041+008531991GA3071+016151991GE19MSL   +99999+99999GF199999021990002441991991MA1101101999990REMMET090METAR EDMA 241220Z 35010KT 9999 FEW008 SCT028 BKN053 03/02 Q1011 RERASN      RMK ATIS IND=
0168108520999992014032412504+48425+010932FM-15+046299999V0202901V002110131119N009999199+00401+00001999999ADDGA1071+013111991GE19MSL   +99999+99999GF199999071990013111991991MA1101101999990REMMET077METAR EDMA 241250Z 29004KT 240V020 9999 BKN043 04/00 Q1011 RMK ATIS      JUL=
0169108520999992014032413204+48425+010932FM-15+046299999V0203201V003610131119N009999199+00601-00401999999ADDGA1071+013111991GE19MSL   +99999+99999GF199999071990013111991991MA1101101999990REMMET078METAR EDMA 241320Z 32007KT 230V350 9999 BKN043 06/M04 Q1011 RMK ATIS      KIL=
0169108520999992014032413504+48425+010932FM-15+046299999V0202801V002119999999N009999199+00701-00301999999ADDGA1041+013111991GE19MSL   +99999+99999GF199999041990013111991991MA1101001999990REMMET078METAR EDMA 241350Z 28004KT 240V320 9999 SCT043 07/M03 Q1010 RMK ATIS      LIM=
0151108520999992014032414204+48425+010932FM-15+046299999V0202601V003119999999N009999199+00801-00201999999ADDGA1041+013111991GE19MSL   +99999+99999GF199999041990013111991991MA1101001999990REMMET060METAR EDMA 241420Z 26006KT 220V310 9999 SCT043 08/M02 Q1010=
0169108520999992014032414504+48425+010932FM-15+046299999V0203001V002619999999N009999199+00701-00301999999ADDGA1041+013111991GE19MSL   +99999+99999GF199999041990013111991991MA1101001999990REMMET078METAR EDMA 241450Z 30005KT 230V350 9999 SCT043 07/M03 Q1010 RMK ATIS      NOV=
0156108520999992014032415204+48425+010932FM-15+046299999V0203101N004619999999N009999199+00701-00301999999ADDGA1041+013111991GE19MSL   +99999+99999GF199999041990013111991991MA1101001999990REMMET065METAR EDMA 241520Z 31009KT 9999 SCT043 07/M03 Q1010 RMK ATIS OSC=
0137108520999992014032415504+48425+010932FM-15+046299999V0202901V003619999999N009999199+99999+99999999999ADDMA1101001999990REMMET091METAR EDMA 241550Z 29007KT 240V330 9999 SH RA SCT026 BKN058 06/M02      Q1010 RMK ATIS PAP=EQDD01      0ADE693
0128108520999992014032416204+48425+010932FM-15+046299999V0202401N005719999999N009999199+00501+00001999999ADDMA1101101999990REMMET082METAR EDMA 241620Z 24011KT 9999 SH RA SCT026 BKN058 05/00 Q1011 RMK      ATIS QUE=EQDD01      0ADE693
0129108520999992014032416504+48425+010932FM-15+046299999V0202401N005119999999N009999199+00301+00001999999ADDMA1101101999990REMMET083METAR EDMA 241650Z 24010KT 9999 SH RA SCT026 BKN058 03/M00 Q1011 RMK      ATIS ROM=EQDD01      0ADE693
0167108520999992014032417204+48425+010932FM-15+046299999V0202401N004110167619N009999199+00301+00001999999ADDGA1071+016761991GE19MSL   +99999+99999GF199999071990016761991991MA1101101999990MW1161REMMET070METAR EDMA 241720Z 24008KT 9999 VCSH BKN055 03/M00 Q1011 RMK ATIS SIE=
0167108520999992014032417504+48425+010932FM-15+046299999V0202401N004110146319N009999199+00301+00001999999ADDGA1071+014631991GE19MSL   +99999+99999GF199999071990014631991991MA1101101999990MW1161REMMET070METAR EDMA 241750Z 24008KT 9999 VCSH BKN048 03/M00 Q1011 RMK ATIS TAN=
0155108520999992014032418204+48425+010932FM-15+046299999V0202401N002610128019N009999199+00301+00101999999ADDGA1071+012801991GE19MSL   +99999+99999GF199999071990012801991991MA1101201999990REMMET064METAR EDMA 241820Z 24005KT 9999 BKN042 03/01 Q1012 RMK ATIS UNI=
0216108520999992014032418504+48425+010932FM-15+046299999V0202501N00311007011CN008000199+00301+00201999999ADDGA1021+003051991GA2041+007011991GA3071+010671991GE19MSL   +99999+99999GF199999021990003051991991MA1101201999990MW1511REMMET087METAR EDMA 241850Z 25006KT 8000 -DZ FEW010 SCT023 BKN035 03/02 Q1012      RMK ATIS VIC=
0085108520999992014032419204+48425+010932FM-15+046299999V0202501N003119999999Y999999999+00301+00101999999ADDMA1101201999990REMMET058METAR EDMA 241920Z 25006KT CAVOK 03/01 Q1012 RMK ATIS WHI=
0085108520999992014032419504+48425+010932FM-15+046299999V0202401N003119999999Y999999999+00201+00201999999ADDMA1101201999990REMMET058METAR EDMA 241950Z 24006KT CAVOK 02/02 Q1012 RMK ATIS X-R=
0155108520999992014032505204+48425+010932FM-15+046299999V0202501N001510036619N009000199+00101+00101999999ADDGA1081+003661991GE19MSL   +99999+99999GF199999081990003661991991MA1101101999990REMMET064METAR EDMA 250520Z 25003KT 9000 OVC012 01/01 Q1011 RMK ATIS QUE=
0155108520999992014032505504+48425+010932FM-15+046299999V0209999V001010042719N009000199+00101+00101999999ADDGA1081+004271991GE19MSL   +99999+99999GF199999081990004271991991MA1101101999990REMMET064METAR EDMA 250550Z VRB02KT 9000 OVC014 01/01 Q1011 RMK ATIS ROM=
0168108520999992014032506204+48425+010932FM-15+046299999V0202701V001510042719N009000199+00201+00101999999ADDGA1081+004271991GE19MSL   +99999+99999GF199999081990004271991991MA1101101999990REMMET077METAR EDMA 250620Z 27003KT 230V300 9000 OVC014 02/01 Q1011 RMK ATIS      SIE=
0155108520999992014032506504+48425+010932FM-15+046299999V0202601N001510042719N009000199+00201+00101999999ADDGA1081+004271991GE19MSL   +99999+99999GF199999081990004271991991MA1101101999990REMMET064METAR EDMA 250650Z 26003KT 9000 OVC014 02/01 Q1011 RMK ATIS TAN=
0155108520999992014032507204+48425+010932FM-15+046299999V0202701N001510042719N009000199+00201+00101999999ADDGA1081+004271991GE19MSL   +99999+99999GF199999081990004271991991MA1101001999990REMMET064METAR EDMA 250720Z 27003KT 9000 OVC014 02/01 Q1010 RMK ATIS UNI=
0168108520999992014032507504+48425+010932FM-15+046299999V0203201V001510036619N009000199+00301+00101999999ADDGA1081+003661991GE19MSL   +99999+99999GF199999081990003661991991MA1101001999990REMMET077METAR EDMA 250750Z 32003KT 290V360 9000 OVC012 03/01 Q1010 RMK ATIS      VIC=
0156108520999992014032508204+48425+010932FM-15+046299999V0209999V001010036619N009000199+00301-00101999999ADDGA1081+003661991GE19MSL   +99999+99999GF199999081990003661991991MA1101001999990REMMET065METAR EDMA 250820Z VRB02KT 9000 OVC012 03/M01 Q1010 RMK ATIS WHI=
0156108520999992014032508504+48425+010932FM-15+046299999V0209999V001010039619N009000199+00401+00001999999ADDGA1081+003961991GE19MSL   +99999+99999GF199999081990003961991991MA1101001999990REMMET065METAR EDMA 250850Z VRB02KT 9000 OVC013 04/M00 Q1010 RMK ATIS X-R=
0192108520999992014032509204+48425+010932FM-15+046299999V0203001V001510061019N009000199+00401+00001999999ADDGA1041+004571991GA2071+006101991GE19MSL   +99999+99999GF199999041990004571991991MA1101001999990REMMET085METAR EDMA 250920Z 30003KT 190V340 9000 SCT015 BKN020 04/M00 Q1010      RMK ATIS YAN=
0156108520999992014032509504+48425+010932FM-15+046299999V0209999V001019999999N009000199+00601+00001999999ADDGA1041+005181991GE19MSL   +99999+99999GF199999041990005181991991MA1100901999990REMMET065METAR EDMA 250950Z VRB02KT 9000 SCT017 06/M00 Q1009 RMK ATIS ZUL=
0156108520999992014032510204+48425+010932FM-15+046299999V0209999V001519999999N009999199+00601+00001999999ADDGA1041+007321991GE19MSL   +99999+99999GF199999041990007321991991MA1100901999990REMMET065METAR EDMA 251020Z VRB03KT 9999 SCT024 06/M00 Q1009 RMK ATIS ALF=
0174108520999992014032510504+48425+010932FM-15+046299999V0200601V001510137219N009999199+00501-00201999999ADDGA1041+008531991GA2071+013721991GE19MSL   +99999+99999GF199999041990008531991991MA1100901999990REMMET067METAR EDMA 251050Z 06003KT 010V120 9999 SCT028 BKN045 05/M02 Q1009=
0184108520999992014032511204+48425+010932FM-15+046299999V0209999V001010137219N009999199+00601-00101999999ADDGA1041+008531991GA2071+013721991GE19MSL   +99999+99999GF199999041990008531991991MA1100901999990REMMET077METAR EDMA 251120Z VRB02KT 9999 SCT028 BKN045 06/M01 Q1009 RMK ATIS      BRA=
0184108520999992014032511504+48425+010932FM-15+046299999V0209999V001010121919N009999199+00601-00101999999ADDGA1041+008231991GA2071+012191991GE19MSL   +99999+99999GF199999041990008231991991MA1100801999990REMMET077METAR EDMA 251150Z VRB02KT 9999 SCT027 BKN040 06/M01 Q1008 RMK ATIS      DEL=
0192108520999992014032512204+48425+010932FM-15+046299999V0201201V004110189019N009999199+00601-00101999999ADDGA1041+011281991GA2071+018901991GE19MSL   +99999+99999GF199999041990011281991991MA1100801999990REMMET085METAR EDMA 251220Z 12008KT 090V150 9999 SCT037 BKN062 06/M01 Q1008      RMK ATIS ECH=
0184108520999992014032512504+48425+010932FM-15+046299999V0201401N003610237719N009999199+00501-00201999999ADDGA1041+011281991GA2071+023771991GE19MSL   +99999+99999GF199999041990011281991991MA1100801999990REMMET077METAR EDMA 251250Z 14007KT 9999 SCT037 BKN078 05/M02 Q1008 RMK ATIS      FOX=
0184108520999992014032513204+48425+010932FM-15+046299999V0201701N003610137219N009999199+00601-00201999999ADDGA1021+007921991GA2071+013721991GE19MSL   +99999+99999GF199999021990007921991991MA1100801999990REMMET077METAR EDMA 251320Z 17007KT 9999 FEW026 BKN045 06/M02 Q1008 RMK ATIS      GOL=
0203108520999992014032513504+48425+010932FM-15+046299999V0201601V003610149419N007000199+00601-00201999999ADDGA1021+009451991GA2071+014941991GE19MSL   +99999+99999GF199999021990009451991991MA1100801999990MW1161REMMET090METAR EDMA 251350Z 16007KT 120V180 7000 VCSH FEW031 BKN049 06/M02 Q1008      RMK ATIS HOT=
0195108520999992014032514204+48425+010932FM-15+046299999V0202801N003610225619N009999199+00601-00301999999ADDGA1021+009141991GA2071+022561991GE19MSL   +99999+99999GF199999021990009141991991MA1100801999990MW1161REMMET082METAR EDMA 251420Z 28007KT 9999 VCSH FEW030 BKN074 06/M03 Q1008 RMK      ATIS IND=
0203108520999992014032514504+48425+010932FM-15+046299999V0203201V006210192019N009999199+00401-00101999999ADDGA1021+004571991GA2071+019201991GE19MSL   +99999+99999GF199999021990004571991991MA1100801999990MW1161REMMET090METAR EDMA 251450Z 32012KT 280V350 9999 VCSH FEW015 BKN063 04/M01 Q1008      RMK ATIS JUL=
0155108520999992014032515204+48425+010932FM-15+046299999V0203301N004619999999N009999199+00401+00001999999ADDGA1021+009141991GE19MSL   +99999+99999GF199999021990009141991991MA1100801999990REMMET064METAR EDMA 251520Z 33009KT 9999 FEW030 04/00 Q1008 RMK ATIS KIL=
0155108520999992014032515504+48425+010932FM-15+046299999V0203401N004119999999N009999199+00301+00001999999ADDGA1021+014021991GE19MSL   +99999+99999GF199999021990014021991991MA1100801999990REMMET064METAR EDMA 251550Z 34008KT 9999 FEW046 03/00 Q1008 RMK ATIS LIM=
0169108520999992014032516204+48425+010932FM-15+046299999V0200201V003619999999N009999199+00401+00001999999ADDGA1021+010971991GE19MSL   +99999+99999GF199999021990010971991991MA1100801999990REMMET078METAR EDMA 251620Z 02007KT 360V060 9999 FEW036 04/M00 Q1008 RMK ATIS      NOV=
0186108520999992014032516504+48425+010932FM-15+046299999V0200401N00411014631CN009999199+00401+00001999999ADDGA1021+004571991GA2041+014631091GE19MSL   +99999+99999GF199999021990004571991991MA1100801999990REMMET079METAR EDMA 251650Z 04008KT 9999 FEW015 SCT048CB 04/M00 Q1008 RMK ATIS      OSC=
0156108520999992014032517504+48425+010932FM-15+046299999V0201001N002619999999N009999199+00301-00101999999ADDGA1041+012191991GE19MSL   +99999+99999GF199999041990012191991991MA1100801999990REMMET065METAR EDMA 251750Z 10005KT 9999 SCT040 03/M01 Q1008 RMK ATIS ALF=
0183108520999992014032518204+48425+010932FM-15+046299999V0201401N00151012191CN009999199+00201+00101999999ADDGA1021+006711991GA2041+012191991GE19MSL   +99999+99999GF199999021990006711991991MA1100801999990REMMET076METAR EDMA 251820Z 14003KT 9999 FEW022 SCT040 02/01 Q1008 RMK ATIS      BRA=
0085108520999992014032518504+48425+010932FM-15+046299999V0200701N001519999999Y999999999+00101+00101999999ADDMA1100901999990REMMET058METAR EDMA 251850Z 07003KT CAVOK 01/01 Q1009 RMK ATIS CHA=
0085108520999992014032519204+48425+010932FM-15+046299999V0201001N001019999999Y999999999+00101+00101999999ADDMA1100901999990REMMET058METAR EDMA 251920Z 10002KT CAVOK 01/01 Q1009 RMK ATIS DEL=
0085108520999992014032519504+48425+010932FM-15+046299999V0201101N001019999999Y999999999+00001+00001999999ADDMA1100901999990REMMET058METAR EDMA 251950Z 11002KT CAVOK 00/00 Q1009 RMK ATIS ECH=
0184108520999992014032604504+48425+010932FM-15+046299999V0200501N002610003019N000550199-00201-00201999999ADDGA1081+000301991GE19MSL   +99999+99999GF199999081990000301991991MA1100901999990MW1481REMMET087METAR EDMA 260450Z 05005KT 0550 R07/P1700N FZFG OVC001 M02/M02 Q1009      RMK ATIS WHI=
0190108520999992014032605204+48425+010932FM-15+046299999V0200401V002110006119N001300199-00201-00201999999ADDGA1081+000611991GE19MSL   +99999+99999GF199999081990000611991991MA1100901999990MW1101REMMET093METAR EDMA 260520Z 04004KT 010V070 1300 R07/P2000D BR OVC002 M02/M02      Q1009 RMK ATIS X-R=
0183108520999992014032605504+48425+010932FM-15+046299999V0200401N002610003019N000500199-00101-00101999999ADDGA1081+000301991GE19MSL   +99999+99999GF199999081990000301991991MA1101001999990MW1481REMMET086METAR EDMA 260550Z 04005KT 0500 R07/1300N FZFG OVC001 M01/M01 Q1010      RMK ATIS YAN=
0188108520999992014032606204+48425+010932FM-15+046299999V0200401N002610003019N000600199-00101-00101999999ADDGA1081+000301991GE19MSL   +99999+99999GF199999081990000301991991MA1101001999990MW1481REMMET091METAR EDMA 260620Z 04005KT 0600 R07/0800V1400U FZFG OVC001 M01/M01      Q1010 RMK ATIS ALF=
0183108520999992014032606504+48425+010932FM-15+046299999V0200301N002610006119N000900199-00101-00101999999ADDGA1081+000611991GE19MSL   +99999+99999GF199999081990000611991991MA1101001999990MW1481REMMET086METAR EDMA 260650Z 03005KT 0900 R07/1300N FZFG OVC002 M01/M01 Q1010      RMK ATIS BRA=
0181108520999992014032607204+48425+010932FM-15+046299999V0200301N002110009119N001200199+00001+00001999999ADDGA1081+000911991GE19MSL   +99999+99999GF199999081990000911991991MA1101001999990MW1101REMMET084METAR EDMA 260720Z 03004KT 1200 R07/1600N BR OVC003 M00/M00 Q1010 RMK      ATIS CHA=
0164108520999992014032607504+48425+010932FM-15+046299999V0200201N002110018319N001700199+00101+00101999999ADDGA1081+001831991GE19MSL   +99999+99999GF199999081990001831991991MA1101001999990MW1101REMMET067METAR EDMA 260750Z 02004KT 1700 BR OVC006 01/01 Q1010 RMK ATIS ECH=
0177108520999992014032608204+48425+010932FM-15+046299999V0200301V002110024419N004500199+00201+00201999999ADDGA1081+002441991GE19MSL   +99999+99999GF199999081990002441991991MA1101101999990MW1101REMMET080METAR EDMA 260820Z 03004KT 340V120 4500 BR OVC008 02/02 Q1011 RMK ATIS      FOX=
0177108520999992014032608504+48425+010932FM-15+046299999V0200901V003110030519N004500199+00301+00101999999ADDGA1071+003051991GE19MSL   +99999+99999GF199999071990003051991991MA1101101999990MW1101REMMET080METAR EDMA 260850Z 09006KT 050V130 4500 BR BKN010 03/01 Q1011 RMK ATIS      GOL=
0191108520999992014032609204+48425+010932FM-15+046299999V0200801V003610036619N006000199+00401+00201999999ADDGA1071+003661991GA2071+004881991GE19MSL   +99999+99999GF199999071990003661991991MA1101101999990REMMET084METAR EDMA 260920Z 08007KT 040V110 6000 BKN012 BKN016 04/02 Q1011 RMK      ATIS HOT=
0168108520999992014032609504+48425+010932FM-15+046299999V0200701V004610048819N009000199+00501+00101999999ADDGA1071+004881991GE19MSL   +99999+99999GF199999071990004881991991MA1101101999990REMMET077METAR EDMA 260950Z 07009KT 030V100 9000 BKN016 05/01 Q1011 RMK ATIS      IND=
0168108520999992014032610204+48425+010932FM-15+046299999V0200901V003610082319N009999199+00701+00201999999ADDGA1071+008231991GE19MSL   +99999+99999GF199999071990008231991991MA1101001999990REMMET077METAR EDMA 261020Z 09007KT 040V120 9999 BKN027 07/02 Q1010 RMK ATIS      JUL=
0174108520999992014032610504+48425+010932FM-15+046299999V0200901V00461009141CN009999199+00601+00001999999ADDGA1041+007921991GA2041+009141991GE19MSL   +99999+99999GF199999041990007921991991MA1101001999990REMMET067METAR EDMA 261050Z 09009KT 020V130 9999 SCT026 SCT030 06/M00 Q1010=
0156108520999992014032611204+48425+010932FM-15+046299999V0200801N004619999999N009999199+00701+00001999999ADDGA1041+009141991GE19MSL   +99999+99999GF199999041990009141991991MA1101001999990REMMET065METAR EDMA 261120Z 08009KT 9999 SCT030 07/M00 Q1010 RMK ATIS LIM=
0169108520999992014032611504+48425+010932FM-15+046299999V0200701V004619999999N009999199+00801-00101999999ADDGA1041+010671991GE19MSL   +99999+99999GF199999041990010671991991MA1101001999990REMMET078METAR EDMA 261150Z 07009KT 050V110 9999 SCT035 08/M01 Q1010 RMK ATIS      MIK=
0168108520999992014032612204+48425+010932FM-15+046299999V0200801V004119999999N009999199+00901+00001999999ADDGA1041+010671991GE19MSL   +99999+99999GF199999041990010671991991MA1101001999990REMMET077METAR EDMA 261220Z 08008KT 040V130 9999 SCT035 09/00 Q1010 RMK ATIS      NOV=
0168108520999992014032612504+48425+010932FM-15+046299999V0200801V004119999999N009999199+01001+00101999999ADDGA1041+011281991GE19MSL   +99999+99999GF199999041990011281991991MA1101001999990REMMET077METAR EDMA 261250Z 08008KT 050V140 9999 SCT037 10/01 Q1010 RMK ATIS      OSC=
0169108520999992014032613204+48425+010932FM-15+046299999V0200701V005119999999N009999199+00901-00201999999ADDGA1041+011281991GE19MSL   +99999+99999GF199999041990011281991991MA1101001999990REMMET078METAR EDMA 261320Z 07010KT 040V100 9999 SCT037 09/M02 Q1010 RMK ATIS      PAP=
0169108520999992014032613504+48425+010932FM-15+046299999V0200801V004119999999N009999199+01001-00101999999ADDGA1021+013721991GE19MSL   +99999+99999GF199999021990013721991991MA1101001999990REMMET078METAR EDMA 261350Z 08008KT 050V110 9999 FEW045 10/M01 Q1010 RMK ATIS      QUE=
0156108520999992014032614204+48425+010932FM-15+046299999V0200701N005119999999N009999199+00901-00101999999ADDGA1021+013721991GE19MSL   +99999+99999GF199999021990013721991991MA1101001999990REMMET065METAR EDMA 261420Z 07010KT 9999 FEW045 09/M01 Q1010 RMK ATIS ROM=
0156108520999992014032614504+48425+010932FM-15+046299999V0201201N004619999999N009999199+01001-00101999999ADDGA1021+013721991GE19MSL   +99999+99999GF199999021990013721991991MA1101001999990REMMET065METAR EDMA 261450Z 12009KT 9999 FEW045 10/M01 Q1010 RMK ATIS SIE=
0094108520999992014032615204+48425+010932FM-15+046299999V0200701V004619999999Y999999999+01001-00101999999ADDMA1101001999990REMMET067METAR EDMA 261520Z 07009KT 040V110 CAVOK 10/M01 Q1010 RMK ATIS TAN=
0094108520999992014032615504+48425+010932FM-15+046299999V0200901V004619999999Y999999999+01001-00101999999ADDMA1101001999990REMMET067METAR EDMA 261550Z 09009KT 060V120 CAVOK 10/M01 Q1010 RMK ATIS UNI=
0086108520999992014032616204+48425+010932FM-15+046299999V0200901N004119999999Y999999999+00901-00201999999ADDMA1101001999990REMMET059METAR EDMA 261620Z 09008KT CAVOK 09/M02 Q1010 RMK ATIS VIC=
0086108520999992014032616504+48425+010932FM-15+046299999V0200801N003619999999Y999999999+00901-00101999999ADDMA1101001999990REMMET059METAR EDMA 261650Z 08007KT CAVOK 09/M01 Q1010 RMK ATIS WHI=
0086108520999992014032617204+48425+010932FM-15+046299999V0200801N002619999999Y999999999+00701-00101999999ADDMA1101001999990REMMET059METAR EDMA 261720Z 08005KT CAVOK 07/M01 Q1010 RMK ATIS X-R=
0086108520999992014032617504+48425+010932FM-15+046299999V0200701N002619999999Y999999999+00601-00201999999ADDMA1101001999990REMMET059METAR EDMA 261750Z 07005KT CAVOK 06/M02 Q1010 RMK ATIS YAN=
0086108520999992014032618204+48425+010932FM-15+046299999V0200701N002619999999Y999999999+00501-00101999999ADDMA1101101999990REMMET059METAR EDMA 261820Z 07005KT CAVOK 05/M01 Q1011 RMK ATIS ZUL=
0086108520999992014032618504+48425+010932FM-15+046299999V0200801N003119999999Y999999999+00501-00201999999ADDMA1101101999990REMMET059METAR EDMA 261850Z 08006KT CAVOK 05/M02 Q1011 RMK ATIS ALF=
0086108520999992014032619204+48425+010932FM-15+046299999V0200701N003119999999Y999999999+00501-00201999999ADDMA1101101999990REMMET059METAR EDMA 261920Z 07006KT CAVOK 05/M02 Q1011 RMK ATIS BRA=
0086108520999992014032619504+48425+010932FM-15+046299999V0200701N003619999999Y999999999+00501-00201999999ADDMA1101101999990REMMET059METAR EDMA 261950Z 07007KT CAVOK 05/M02 Q1011 RMK ATIS CHA=
0074108520999992014032704504+48425+010932FM-15+046299999V0200601N001019999999Y999999999-00101-00201999999ADDMA1101001999990REMMET047METAR EDMA 270450Z 06002KT CAVOK M01/M02 Q1010=
0087108520999992014032705204+48425+010932FM-15+046299999V0203601N001019999999Y999999999-00101-00101999999ADDMA1101001999990REMMET060METAR EDMA 270520Z 36002KT CAVOK M01/M01 Q1010 RMK ATIS BRA=
0087108520999992014032705504+48425+010932FM-15+046299999V0203501N001519999999Y999999999-00101-00201999999ADDMA1101001999990REMMET060METAR EDMA 270550Z 35003KT CAVOK M01/M02 Q1010 RMK ATIS CHA=
0086108520999992014032706204+48425+010932FM-15+046299999V0200501N001519999999Y999999999+00101-00101999999ADDMA1101001999990REMMET059METAR EDMA 270620Z 05003KT CAVOK 01/M01 Q1010 RMK ATIS DEL=
0086108520999992014032706504+48425+010932FM-15+046299999V0209999V000519999999Y999999999+00201-00101999999ADDMA1101101999990REMMET059METAR EDMA 270650Z VRB01KT CAVOK 02/M01 Q1011 RMK ATIS ECH=
0086108520999992014032707204+48425+010932FM-15+046299999V0209999V001019999999Y999999999+00301-00101999999ADDMA1101101999990REMMET059METAR EDMA 270720Z VRB02KT CAVOK 03/M01 Q1011 RMK ATIS FOX=
0081108520999992014032707504+48425+010932FM-15+046299999V0200601V001519999999Y999999999+00501-00101999999ADDMA1101001999990REMMET054METAR EDMA 270750Z 06003KT 360V110 CAVOK 05/M01 Q1010=
0094108520999992014032708204+48425+010932FM-15+046299999V0200601V001519999999Y999999999+00601-00101999999ADDMA1101001999990REMMET067METAR EDMA 270820Z 06003KT 010V100 CAVOK 06/M01 Q1010 RMK ATIS HOT=
0086108520999992014032708504+48425+010932FM-15+046299999V0209999V001019999999Y999999999+00701-00101999999ADDMA1101001999990REMMET059METAR EDMA 270850Z VRB02KT CAVOK 07/M01 Q1010 RMK ATIS IND=
0094108520999992014032709204+48425+010932FM-15+046299999V0200601V002619999999Y999999999+00801-00101999999ADDMA1101001999990REMMET067METAR EDMA 270920Z 06005KT 010V110 CAVOK 08/M01 Q1010 RMK ATIS JUL=
0094108520999992014032709504+48425+010932FM-15+046299999V0200601V002619999999Y999999999+00901-00101999999ADDMA1101001999990REMMET067METAR EDMA 270950Z 06005KT 020V110 CAVOK 09/M01 Q1010 RMK ATIS KIL=
0094108520999992014032710204+48425+010932FM-15+046299999V0200501V003119999999Y999999999+01001-00101999999ADDMA1101001999990REMMET067METAR EDMA 271020Z 05006KT 010V100 CAVOK 10/M01 Q1010 RMK ATIS LIM=
0094108520999992014032710504+48425+010932FM-15+046299999V0200701V004119999999Y999999999+01101-00101999999ADDMA1101001999990REMMET067METAR EDMA 271050Z 07008KT 030V110 CAVOK 11/M01 Q1010 RMK ATIS MIK=
0085108520999992014032711204+48425+010932FM-15+046299999V0200601N004119999999Y999999999+01101+00001999999ADDMA1101001999990REMMET058METAR EDMA 271120Z 06008KT CAVOK 11/00 Q1010 RMK ATIS NOV=
0094108520999992014032711504+48425+010932FM-15+046299999V0200901V004619999999Y999999999+01301-00101999999ADDMA1101001999990REMMET067METAR EDMA 271150Z 09009KT 030V130 CAVOK 13/M01 Q1010 RMK ATIS OSC=
0086108520999992014032712204+48425+010932FM-15+046299999V0201201N005719999999Y999999999+01201-00201999999ADDMA1100901999990REMMET059METAR EDMA 271220Z 12011KT CAVOK 12/M02 Q1009 RMK ATIS PAP=
0094108520999992014032712504+48425+010932FM-15+046299999V0200701V004119999999Y999999999+01301-00301999999ADDMA1100901999990REMMET067METAR EDMA 271250Z 07008KT 050V120 CAVOK 13/M03 Q1009 RMK ATIS QUE=
0094108520999992014032713204+48425+010932FM-15+046299999V0201001V004619999999Y999999999+01301-00201999999ADDMA1100901999990REMMET067METAR EDMA 271320Z 10009KT 050V140 CAVOK 13/M02 Q1009 RMK ATIS ROM=
0094108520999992014032713504+48425+010932FM-15+046299999V0200901V004619999999Y999999999+01301-00301999999ADDMA1100901999990REMMET067METAR EDMA 271350Z 09009KT 050V130 CAVOK 13/M03 Q1009 RMK ATIS SIE=
0094108520999992014032714204+48425+010932FM-15+046299999V0200901V003119999999Y999999999+01401-00301999999ADDMA1100901999990REMMET067METAR EDMA 271420Z 09006KT 040V130 CAVOK 14/M03 Q1009 RMK ATIS TAN=
0094108520999992014032714504+48425+010932FM-15+046299999V0200901V004119999999Y999999999+01401-00401999999ADDMA1100801999990REMMET067METAR EDMA 271450Z 09008KT 050V130 CAVOK 14/M04 Q1008 RMK ATIS UNI=
0086108520999992014032715204+48425+010932FM-15+046299999V0200801N004619999999Y999999999+01401-00301999999ADDMA1100801999990REMMET059METAR EDMA 271520Z 08009KT CAVOK 14/M03 Q1008 RMK ATIS VIC=
0094108520999992014032715504+48425+010932FM-15+046299999V0200801V004619999999Y999999999+01401-00101999999ADDMA1100801999990REMMET067METAR EDMA 271550Z 08009KT 040V110 CAVOK 14/M01 Q1008 RMK ATIS WHI=
0086108520999992014032716204+48425+010932FM-15+046299999V0200801N005119999999Y999999999+01301-00201999999ADDMA1100901999990REMMET059METAR EDMA 271620Z 08010KT CAVOK 13/M02 Q1009 RMK ATIS X-R=
0086108520999992014032716504+48425+010932FM-15+046299999V0200701N005119999999Y999999999+01301-00201999999ADDMA1100901999990REMMET059METAR EDMA 271650Z 07010KT CAVOK 13/M02 Q1009 RMK ATIS YAN=
0086108520999992014032717204+48425+010932FM-15+046299999V0200801N003119999999Y999999999+01101-00201999999ADDMA1100901999990REMMET059METAR EDMA 271720Z 08006KT CAVOK 11/M02 Q1009 RMK ATIS ZUL=
0086108520999992014032717504+48425+010932FM-15+046299999V0200601N002619999999Y999999999+00901-00101999999ADDMA1100901999990REMMET059METAR EDMA 271750Z 06005KT CAVOK 09/M01 Q1009 RMK ATIS ALF=
0086108520999992014032718204+48425+010932FM-15+046299999V0200701N003119999999Y999999999+00801+00001999999ADDMA1101001999990REMMET059METAR EDMA 271820Z 07006KT CAVOK 08/M00 Q1010 RMK ATIS BRA=
0086108520999992014032718504+48425+010932FM-15+046299999V0200501N002619999999Y999999999+00801-00101999999ADDMA1101001999990REMMET059METAR EDMA 271850Z 05005KT CAVOK 08/M01 Q1010 RMK ATIS CHA=
0086108520999992014032719204+48425+010932FM-15+046299999V0200601N003119999999Y999999999+00701-00101999999ADDMA1101001999990REMMET059METAR EDMA 271920Z 06006KT CAVOK 07/M01 Q1010 RMK ATIS DEL=
0086108520999992014032719504+48425+010932FM-15+046299999V0200701N003619999999Y999999999+00701-00101999999ADDMA1101001999990REMMET059METAR EDMA 271950Z 07007KT CAVOK 07/M01 Q1010 RMK ATIS ECH=
0085108520999992014032805504+48425+010932FM-15+046299999V0209999V001019999999Y999999999+00101+00001999999ADDMA1101401999990REMMET058METAR EDMA 280550Z VRB02KT CAVOK 01/00 Q1014 RMK ATIS YAN=
0085108520999992014032806204+48425+010932FM-15+046299999V0200601N001519999999Y999999999+00201+00101999999ADDMA1101401999990REMMET058METAR EDMA 280620Z 06003KT CAVOK 02/01 Q1014 RMK ATIS ZUL=
0093108520999992014032806504+48425+010932FM-15+046299999V0200601V001519999999Y999999999+00501+00101999999ADDMA1101501999990REMMET066METAR EDMA 280650Z 06003KT 030V090 CAVOK 05/01 Q1015 RMK ATIS ALF=
0085108520999992014032807204+48425+010932FM-15+046299999V0200501N002619999999Y999999999+00701+00101999999ADDMA1101501999990REMMET058METAR EDMA 280720Z 05005KT CAVOK 07/01 Q1015 RMK ATIS BRA=
0093108520999992014032807504+48425+010932FM-15+046299999V0200701V003619999999Y999999999+00801+00001999999ADDMA1101501999990REMMET066METAR EDMA 280750Z 07007KT 030V100 CAVOK 08/00 Q1015 RMK ATIS CHA=
0080108520999992014032808204+48425+010932FM-15+046299999V0200901V002619999999Y999999999+00901+00201999999ADDMA1101501999990REMMET053METAR EDMA 280820Z 09005KT 030V130 CAVOK 09/02 Q1015=
0093108520999992014032808504+48425+010932FM-15+046299999V0200701V002619999999Y999999999+00901+00201999999ADDMA1101501999990REMMET066METAR EDMA 280850Z 07005KT 030V150 CAVOK 09/02 Q1015 RMK ATIS ECH=
0093108520999992014032809204+48425+010932FM-15+046299999V0200901V002619999999Y999999999+01101+00201999999ADDMA1101501999990REMMET066METAR EDMA 280920Z 09005KT 010V150 CAVOK 11/02 Q1015 RMK ATIS FOX=
0093108520999992014032809504+48425+010932FM-15+046299999V0200701V003119999999Y999999999+01101+00201999999ADDMA1101501999990REMMET066METAR EDMA 280950Z 07006KT 030V110 CAVOK 11/02 Q1015 RMK ATIS GOL=
0085108520999992014032810204+48425+010932FM-15+046299999V0209999V003119999999Y999999999+01201+00201999999ADDMA1101601999990REMMET058METAR EDMA 281020Z VRB06KT CAVOK 12/02 Q1016 RMK ATIS HOT=
0093108520999992014032810504+48425+010932FM-15+046299999V0201301V003619999999Y999999999+01301+00201999999ADDMA1101601999990REMMET066METAR EDMA 281050Z 13007KT 100V170 CAVOK 13/02 Q1016 RMK ATIS IND=
0093108520999992014032811204+48425+010932FM-15+046299999V0201001V004119999999Y999999999+01301+00201999999ADDMA1101601999990REMMET066METAR EDMA 281120Z 10008KT 040V140 CAVOK 13/02 Q1016 RMK ATIS JUL=
0093108520999992014032811504+48425+010932FM-15+046299999V0201001V005119999999Y999999999+01401+00101999999ADDMA1101601999990REMMET066METAR EDMA 281150Z 10010KT 070V140 CAVOK 14/01 Q1016 RMK ATIS KIL=
0093108520999992014032812204+48425+010932FM-15+046299999V0201001V004619999999Y999999999+01401+00201999999ADDMA1101501999990REMMET066METAR EDMA 281220Z 10009KT 060V140 CAVOK 14/02 Q1015 RMK ATIS LIM=
0085108520999992014032812504+48425+010932FM-15+046299999V0201101N004619999999Y999999999+01501+00101999999ADDMA1101501999990REMMET058METAR EDMA 281250Z 11009KT CAVOK 15/01 Q1015 RMK ATIS MIK=
0085108520999992014032813204+48425+010932FM-15+046299999V0201201N004619999999Y999999999+01501+00201999999ADDMA1101601999990REMMET058METAR EDMA 281320Z 12009KT CAVOK 15/02 Q1016 RMK ATIS NOV=
0093108520999992014032813504+48425+010932FM-15+046299999V0201201V004119999999Y999999999+01501+00101999999ADDMA1101501999990REMMET066METAR EDMA 281350Z 12008KT 070V180 CAVOK 15/01 Q1015 RMK ATIS OSC=
0093108520999992014032814204+48425+010932FM-15+046299999V0201401V003619999999Y999999999+01501+00201999999ADDMA1101501999990REMMET066METAR EDMA 281420Z 14007KT 100V170 CAVOK 15/02 Q1015 RMK ATIS PAP=
0093108520999992014032814504+48425+010932FM-15+046299999V0201101V003119999999Y999999999+01501+00101999999ADDMA1101501999990REMMET066METAR EDMA 281450Z 11006KT 080V150 CAVOK 15/01 Q1015 RMK ATIS QUE=
0094108520999992014032815204+48425+010932FM-15+046299999V0201101V004119999999Y999999999+01501+00001999999ADDMA1101501999990REMMET067METAR EDMA 281520Z 11008KT 070V140 CAVOK 15/M00 Q1015 RMK ATIS ROM=
0094108520999992014032815504+48425+010932FM-15+046299999V0201101V004119999999Y999999999+01501+00001999999ADDMA1101501999990REMMET067METAR EDMA 281550Z 11008KT 080V150 CAVOK 15/M00 Q1015 RMK ATIS SIE=
0093108520999992014032816204+48425+010932FM-15+046299999V0200901V003619999999Y999999999+01401+00101999999ADDMA1101601999990REMMET066METAR EDMA 281620Z 09007KT 050V130 CAVOK 14/01 Q1016 RMK ATIS TAN=
0085108520999992014032816504+48425+010932FM-15+046299999V0200801N003119999999Y999999999+01401+00101999999ADDMA1101601999990REMMET058METAR EDMA 281650Z 08006KT CAVOK 14/01 Q1016 RMK ATIS UNI=
0085108520999992014032817204+48425+010932FM-15+046299999V0200901N003619999999Y999999999+01301+00101999999ADDMA1101601999990REMMET058METAR EDMA 281720Z 09007KT CAVOK 13/01 Q1016 RMK ATIS VIC=
0085108520999992014032817504+48425+010932FM-15+046299999V0200801N002619999999Y999999999+01001+00101999999ADDMA1101601999990REMMET058METAR EDMA 281750Z 08005KT CAVOK 10/01 Q1016 RMK ATIS WHI=
0085108520999992014032818204+48425+010932FM-15+046299999V0200801N003119999999Y999999999+00901+00201999999ADDMA1101701999990REMMET058METAR EDMA 281820Z 08006KT CAVOK 09/02 Q1017 RMK ATIS X-R=
0085108520999992014032818504+48425+010932FM-15+046299999V0200801N003119999999Y999999999+00901+00201999999ADDMA1101701999990REMMET058METAR EDMA 281850Z 08006KT CAVOK 09/02 Q1017 RMK ATIS YAN=
0085108520999992014032819204+48425+010932FM-15+046299999V0200501N003619999999Y999999999+00901+00201999999ADDMA1101701999990REMMET058METAR EDMA 281920Z 05007KT CAVOK 09/02 Q1017 RMK ATIS ZUL=
0085108520999992014032819504+48425+010932FM-15+046299999V0200601N004619999999Y999999999+00901+00201999999ADDMA1101801999990REMMET058METAR EDMA 281950Z 06009KT CAVOK 09/02 Q1018 RMK ATIS ALF=
0085108520999992014032905504+48425+010932FM-15+046299999V0209999V000519999999Y999999999+00101+00101999999ADDMA1102001999990REMMET058METAR EDMA 290550Z VRB01KT CAVOK 01/01 Q1020 RMK ATIS VIC=
0085108520999992014032906204+48425+010932FM-15+046299999V0200301N001519999999Y999999999+00301+00201999999ADDMA1102001999990REMMET058METAR EDMA 290620Z 03003KT CAVOK 03/02 Q1020 RMK ATIS WHI=
0085108520999992014032906504+48425+010932FM-15+046299999V0200101N001519999999Y999999999+00601+00401999999ADDMA1102001999990REMMET058METAR EDMA 290650Z 01003KT CAVOK 06/04 Q1020 RMK ATIS X-R=
0093108520999992014032907204+48425+010932FM-15+046299999V0200601V002119999999Y999999999+00701+00201999999ADDMA1102001999990REMMET066METAR EDMA 290720Z 06004KT 030V100 CAVOK 07/02 Q1020 RMK ATIS YAN=
0093108520999992014032907504+48425+010932FM-15+046299999V0200701V002619999999Y999999999+00901+00201999999ADDMA1102001999990REMMET066METAR EDMA 290750Z 07005KT 050V110 CAVOK 09/02 Q1020 RMK ATIS ZUL=
0093108520999992014032908204+48425+010932FM-15+046299999V0201501V001519999999Y999999999+00901+00201999999ADDMA1102001999990REMMET066METAR EDMA 290820Z 15003KT 030V200 CAVOK 09/02 Q1020 RMK ATIS ALF=
0072108520999992014032908504+48425+010932FM-15+046299999V0209999V001519999999Y999999999+01101+00301999999ADDMA1102001999990REMMET045METAR EDMA 290850Z VRB03KT CAVOK 11/03 Q1020=
0072108520999992014032909204+48425+010932FM-15+046299999V0209999V001519999999Y999999999+01201+00301999999ADDMA1102001999990REMMET045METAR EDMA 290920Z VRB03KT CAVOK 12/03 Q1020=
0093108520999992014032909504+48425+010932FM-15+046299999V0200601V003619999999Y999999999+01301+00301999999ADDMA1102001999990REMMET066METAR EDMA 290950Z 06007KT 020V100 CAVOK 13/03 Q1020 RMK ATIS DEL=
0097108520999992014032910204+48425+010932FM-15+046299999V0200701V004119999999Y999999999+01401+00201999999ADDMA1102001999990REMMET070METAR COR EDMA 291020Z 07008KT 030V110 CAVOK 14/02 Q1020 RMK ATIS FOX=
0085108520999992014032910504+48425+010932FM-15+046299999V0200801N004619999999Y999999999+01501+00101999999ADDMA1102001999990REMMET058METAR EDMA 291050Z 08009KT CAVOK 15/01 Q1020 RMK ATIS GOL=
0093108520999992014032911204+48425+010932FM-15+046299999V0200901V004119999999Y999999999+01601+00101999999ADDMA1102001999990REMMET066METAR EDMA 291120Z 09008KT 030V120 CAVOK 16/01 Q1020 RMK ATIS HOT=
0094108520999992014032912204+48425+010932FM-15+046299999V0200901V004619999999Y999999999+01601+00001999999ADDMA1101901999990REMMET067METAR EDMA 291220Z 09009KT 050V150 CAVOK 16/M00 Q1019 RMK ATIS ALF=
0093108520999992014032912504+48425+010932FM-15+046299999V0200901V004119999999Y999999999+01701+00101999999ADDMA1101901999990REMMET066METAR EDMA 291250Z 09008KT 050V160 CAVOK 17/01 Q1019 RMK ATIS BRA=
0093108520999992014032913204+48425+010932FM-15+046299999V0201201V004119999999Y999999999+01701+00001999999ADDMA1101901999990REMMET066METAR EDMA 291320Z 12008KT 080V150 CAVOK 17/00 Q1019 RMK ATIS CHA=
0094108520999992014032913504+48425+010932FM-15+046299999V0200901V004119999999Y999999999+01701+00001999999ADDMA1101801999990REMMET067METAR EDMA 291350Z 09008KT 050V140 CAVOK 17/M00 Q1018 RMK ATIS DEL=
0094108520999992014032914204+48425+010932FM-15+046299999V0200901V004619999999Y999999999+01701+00001999999ADDMA1101801999990REMMET067METAR EDMA 291420Z 09009KT 030V130 CAVOK 17/M00 Q1018 RMK ATIS ECH=
0093108520999992014032914504+48425+010932FM-15+046299999V0200801V003619999999Y999999999+01701+00201999999ADDMA1101801999990REMMET066METAR EDMA 291450Z 08007KT 040V120 CAVOK 17/02 Q1018 RMK ATIS FOX=
0093108520999992014032915204+48425+010932FM-15+046299999V0200901V004119999999Y999999999+01701+00101999999ADDMA1101801999990REMMET066METAR EDMA 291520Z 09008KT 050V130 CAVOK 17/01 Q1018 RMK ATIS GOL=
0093108520999992014032915504+48425+010932FM-15+046299999V0200801V003619999999Y999999999+01701+00101999999ADDMA1101801999990REMMET066METAR EDMA 291550Z 08007KT 030V100 CAVOK 17/01 Q1018 RMK ATIS HOT=
0085108520999992014032916204+48425+010932FM-15+046299999V0200801N004619999999Y999999999+01701+00201999999ADDMA1101801999990REMMET058METAR EDMA 291620Z 08009KT CAVOK 17/02 Q1018 RMK ATIS IND=
0085108520999992014032916504+48425+010932FM-15+046299999V0200801N003619999999Y999999999+01601+00201999999ADDMA1101701999990REMMET058METAR EDMA 291650Z 08007KT CAVOK 16/02 Q1017 RMK ATIS JUL=
0085108520999992014032917204+48425+010932FM-15+046299999V0200801N003119999999Y999999999+01401+00201999999ADDMA1101801999990REMMET058METAR EDMA 291720Z 08006KT CAVOK 14/02 Q1018 RMK ATIS KIL=
0085108520999992014032917504+48425+010932FM-15+046299999V0200701N002119999999Y999999999+01301+00201999999ADDMA1101801999990REMMET058METAR EDMA 291750Z 07004KT CAVOK 13/02 Q1018 RMK ATIS LIM=
0085108520999992014032918204+48425+010932FM-15+046299999V0200401N001019999999Y999999999+01101+00201999999ADDMA1101801999990REMMET058METAR EDMA 291820Z 04002KT CAVOK 11/02 Q1018 RMK ATIS MIK=
0085108520999992014032918504+48425+010932FM-15+046299999V0200401N002119999999Y999999999+01001+00201999999ADDMA1101801999990REMMET058METAR EDMA 291850Z 04004KT CAVOK 10/02 Q1018 RMK ATIS NOV=
0085108520999992014032919204+48425+010932FM-15+046299999V0200801N001519999999Y999999999+00801+00201999999ADDMA1101801999990REMMET058METAR EDMA 291920Z 08003KT CAVOK 08/02 Q1018 RMK ATIS OSC=
0085108520999992014032919504+48425+010932FM-15+046299999V0200701N001519999999Y999999999+00701+00201999999ADDMA1101801999990REMMET058METAR EDMA 291950Z 07003KT CAVOK 07/02 Q1018 RMK ATIS PAP=
0085108520999992014033006504+48425+010932FM-15+046299999V0201901N001019999999Y999999999+00501+00401999999ADDMA1101701999990REMMET058METAR EDMA 300650Z 19002KT CAVOK 05/04 Q1017 RMK ATIS LIM=
0093108520999992014033007204+48425+010932FM-15+046299999V0201801V001519999999Y999999999+00601+00401999999ADDMA1101701999990REMMET066METAR EDMA 300720Z 18003KT 150V220 CAVOK 06/04 Q1017 RMK ATIS MIK=
0085108520999992014033007504+48425+010932FM-15+046299999V0209999V001019999999Y999999999+00801+00301999999ADDMA1101801999990REMMET058METAR EDMA 300750Z VRB02KT CAVOK 08/03 Q1018 RMK ATIS NOV=
0085108520999992014033008204+48425+010932FM-15+046299999V0209999V000519999999Y999999999+01101+00401999999ADDMA1101701999990REMMET058METAR EDMA 300820Z VRB01KT CAVOK 11/04 Q1017 RMK ATIS OSC=
0085108520999992014033008504+48425+010932FM-15+046299999V0209999V000519999999Y999999999+01201+00401999999ADDMA1101701999990REMMET058METAR EDMA 300850Z VRB01KT CAVOK 12/04 Q1017 RMK ATIS PAP=
0085108520999992014033009204+48425+010932FM-15+046299999V0209999V001019999999Y999999999+01301+00501999999ADDMA1101701999990REMMET058METAR EDMA 300920Z VRB02KT CAVOK 13/05 Q1017 RMK ATIS QUE=
0085108520999992014033009504+48425+010932FM-15+046299999V0209999V001019999999Y999999999+01501+00401999999ADDMA1101701999990REMMET058METAR EDMA 300950Z VRB02KT CAVOK 15/04 Q1017 RMK ATIS ROM=
0085108520999992014033010204+48425+010932FM-15+046299999V0209999V001019999999Y999999999+01601+00401999999ADDMA1101701999990REMMET058METAR EDMA 301020Z VRB02KT CAVOK 16/04 Q1017 RMK ATIS SIE=
0085108520999992014033010504+48425+010932FM-15+046299999V0209999V001019999999Y999999999+01701+00201999999ADDMA1101601999990REMMET058METAR EDMA 301050Z VRB02KT CAVOK 17/02 Q1016 RMK ATIS TAN=
0093108520999992014033011204+48425+010932FM-15+046299999V0203501V001519999999Y999999999+01701+00301999999ADDMA1101601999990REMMET066METAR EDMA 301120Z 35003KT 260V070 CAVOK 17/03 Q1016 RMK ATIS UNI=
0085108520999992014033011504+48425+010932FM-15+046299999V0209999V001519999999Y999999999+01801+00201999999ADDMA1101601999990REMMET058METAR EDMA 301150Z VRB03KT CAVOK 18/02 Q1016 RMK ATIS VIC=
0093108520999992014033012204+48425+010932FM-15+046299999V0203201V002119999999Y999999999+01901+00301999999ADDMA1101601999990REMMET066METAR EDMA 301220Z 32004KT 220V360 CAVOK 19/03 Q1016 RMK ATIS WHI=
0085108520999992014033012504+48425+010932FM-15+046299999V0209999V001519999999Y999999999+01901+00201999999ADDMA1101501999990REMMET058METAR EDMA 301250Z VRB03KT CAVOK 19/02 Q1015 RMK ATIS X-R=
0093108520999992014033013204+48425+010932FM-15+046299999V0200401V002119999999Y999999999+01901+00401999999ADDMA1101501999990REMMET066METAR EDMA 301320Z 04004KT 320V080 CAVOK 19/04 Q1015 RMK ATIS YAN=
0093108520999992014033013504+48425+010932FM-15+046299999V0203601V002119999999Y999999999+01901+00301999999ADDMA1101501999990REMMET066METAR EDMA 301350Z 36004KT 310V100 CAVOK 19/03 Q1015 RMK ATIS ZUL=
0085108520999992014033014204+48425+010932FM-15+046299999V0209999V002119999999Y999999999+02001+00201999999ADDMA1101501999990REMMET058METAR EDMA 301420Z VRB04KT CAVOK 20/02 Q1015 RMK ATIS ALF=
0085108520999992014033014504+48425+010932FM-15+046299999V0209999V002119999999Y999999999+01901+00101999999ADDMA1101501999990REMMET058METAR EDMA 301450Z VRB04KT CAVOK 19/01 Q1015 RMK ATIS BRA=
0090108520999992014033015204+48425+010932FM-15+046299999V0200301N003119999999Y999999999+01901+00001999999ADDMA1101501999990REMMET063METAR EDMA 301520Z 03006KT CAVOK 19/00 Q1015 REUP RMK ATIS CHA=
0086108520999992014033015504+48425+010932FM-15+046299999V0200201N002619999999Y999999999+01901+00001999999ADDMA1101501999990REMMET059METAR EDMA 301550Z 02005KT CAVOK 19/M00 Q1015 RMK ATIS DEL=
0085108520999992014033016204+48425+010932FM-15+046299999V0200401N002619999999Y999999999+01801+00401999999ADDMA1101401999990REMMET058METAR EDMA 301620Z 04005KT CAVOK 18/04 Q1014 RMK ATIS ECH=
0085108520999992014033016504+48425+010932FM-15+046299999V0200401N002619999999Y999999999+01701+00401999999ADDMA1101501999990REMMET058METAR EDMA 301650Z 04005KT CAVOK 17/04 Q1015 RMK ATIS GOL=
0085108520999992014033017204+48425+010932FM-15+046299999V0200501N002119999999Y999999999+01601+00401999999ADDMA1101501999990REMMET058METAR EDMA 301720Z 05004KT CAVOK 16/04 Q1015 RMK ATIS HOT=
0085108520999992014033017504+48425+010932FM-15+046299999V0200701N001019999999Y999999999+01201+00401999999ADDMA1101501999990REMMET058METAR EDMA 301750Z 07002KT CAVOK 12/04 Q1015 RMK ATIS IND=
0085108520999992014033018204+48425+010932FM-15+046299999V0200901N002119999999Y999999999+01001+00401999999ADDMA1101501999990REMMET058METAR EDMA 301820Z 09004KT CAVOK 10/04 Q1015 RMK ATIS JUL=
0085108520999992014033018504+48425+010932FM-15+046299999V0200801N002119999999Y999999999+00901+00301999999ADDMA1101501999990REMMET058METAR EDMA 301850Z 08004KT CAVOK 09/03 Q1015 RMK ATIS KIL=
0085108520999992014033104204+48425+010932FM-15+046299999V0201501N001519999999Y999999999+00401+00301999999ADDMA1101401999990REMMET058METAR EDMA 310420Z 15003KT CAVOK 04/03 Q1014 RMK ATIS DEL=
0085108520999992014033104504+48425+010932FM-15+046299999V0201401N002119999999Y999999999+00401+00301999999ADDMA1101401999990REMMET058METAR EDMA 310450Z 14004KT CAVOK 04/03 Q1014 RMK ATIS ECH=
0085108520999992014033105204+48425+010932FM-15+046299999V0201401N002119999999Y999999999+00301+00201999999ADDMA1101501999990REMMET058METAR EDMA 310520Z 14004KT CAVOK 03/02 Q1015 RMK ATIS FOX=
0085108520999992014033105504+48425+010932FM-15+046299999V0201401N001519999999Y999999999+00301+00201999999ADDMA1101501999990REMMET058METAR EDMA 310550Z 14003KT CAVOK 03/02 Q1015 RMK ATIS GOL=
0085108520999992014033106204+48425+010932FM-15+046299999V0201401N002119999999Y999999999+00401+00301999999ADDMA1101501999990REMMET058METAR EDMA 310620Z 14004KT CAVOK 04/03 Q1015 RMK ATIS HOT=
0085108520999992014033106504+48425+010932FM-15+046299999V0201501N002119999999Y999999999+00501+00401999999ADDMA1101501999990REMMET058METAR EDMA 310650Z 15004KT CAVOK 05/04 Q1015 RMK ATIS IND=
0085108520999992014033107204+48425+010932FM-15+046299999V0201401N001519999999Y999999999+00601+00401999999ADDMA1101501999990REMMET058METAR EDMA 310720Z 14003KT CAVOK 06/04 Q1015 RMK ATIS JUL=
0076108520999992014033107504+48425+010932FM-15+046299999V0209999V001019999999Y999999999+00701+00301999999ADDMA1101501999990REMMET049METAR COR EDMA 310750Z VRB02KT CAVOK 07/03 Q1015=
0085108520999992014033108204+48425+010932FM-15+046299999V0209999V001019999999Y999999999+00901+00301999999ADDMA1101501999990REMMET058METAR EDMA 310820Z VRB02KT CAVOK 09/03 Q1015 RMK ATIS MIK=
0085108520999992014033108504+48425+010932FM-15+046299999V0209999V001019999999Y999999999+01101+00301999999ADDMA1101501999990REMMET058METAR EDMA 310850Z VRB02KT CAVOK 11/03 Q1015 RMK ATIS NOV=
0093108520999992014033109204+48425+010932FM-15+046299999V0202601V002119999999Y999999999+01401+00301999999ADDMA1101501999990REMMET066METAR EDMA 310920Z 26004KT 230V310 CAVOK 14/03 Q1015 RMK ATIS OSC=
0093108520999992014033109504+48425+010932FM-15+046299999V0202401V002619999999Y999999999+01401+00301999999ADDMA1101501999990REMMET066METAR EDMA 310950Z 24005KT 210V270 CAVOK 14/03 Q1015 RMK ATIS PAP=
0093108520999992014033110204+48425+010932FM-15+046299999V0202301V002119999999Y999999999+01601+00301999999ADDMA1101501999990REMMET066METAR EDMA 311020Z 23004KT 200V260 CAVOK 16/03 Q1015 RMK ATIS QUE=
0093108520999992014033110504+48425+010932FM-15+046299999V0202501V001519999999Y999999999+01802+00301999999ADDMA1101501999990REMMET066METAR EDMA 311050Z 25003KT 170V330 CAVOK 18/03 Q1015 RMK ATIS ROM=
0085108520999992014033111204+48425+010932FM-15+046299999V0209999V002119999999Y999999999+01801+00301999999ADDMA1101501999990REMMET058METAR EDMA 311120Z VRB04KT CAVOK 18/03 Q1015 RMK ATIS SIE=
0093108520999992014033111504+48425+010932FM-15+046299999V0203301V003119999999Y999999999+01701+00201999999ADDMA1101501999990REMMET066METAR EDMA 311150Z 33006KT 300V010 CAVOK 17/02 Q1015 RMK ATIS TAN=
0085108520999992014033112204+48425+010932FM-15+046299999V0203401N003619999999Y999999999+01701+00101999999ADDMA1101501999990REMMET058METAR EDMA 311220Z 34007KT CAVOK 17/01 Q1015 RMK ATIS UNI=
0085108520999992014033112504+48425+010932FM-15+046299999V0203301N003119999999Y999999999+01701+00201999999ADDMA1101401999990REMMET058METAR EDMA 311250Z 33006KT CAVOK 17/02 Q1014 RMK ATIS VIC=
0093108520999992014033113204+48425+010932FM-15+046299999V0203001V003119999999Y999999999+01701+00201999999ADDMA1101401999990REMMET066METAR EDMA 311320Z 30006KT 270V350 CAVOK 17/02 Q1014 RMK ATIS WHI=
0085108520999992014033113504+48425+010932FM-15+046299999V0203101N003119999999Y999999999+01701+00301999999ADDMA1101401999990REMMET058METAR EDMA 311350Z 31006KT CAVOK 17/03 Q1014 RMK ATIS X-R=
0093108520999992014033114204+48425+010932FM-15+046299999V0203401V002619999999Y999999999+01701+00301999999ADDMA1101401999990REMMET066METAR EDMA 311420Z 34005KT 300V020 CAVOK 17/03 Q1014 RMK ATIS YAN=
0093108520999992014033114504+48425+010932FM-15+046299999V0203501V002119999999Y999999999+01701+00301999999ADDMA1101401999990REMMET066METAR EDMA 311450Z 35004KT 320V020 CAVOK 17/03 Q1014 RMK ATIS ZUL=
0085108520999992014033115204+48425+010932FM-15+046299999V0203601N002119999999Y999999999+01601+00301999999ADDMA1101401999990REMMET058METAR EDMA 311520Z 36004KT CAVOK 16/03 Q1014 RMK ATIS ALF=
0080108520999992014033115504+48425+010932FM-15+046299999V0203601V001519999999Y999999999+01601+00401999999ADDMA1101301999990REMMET053METAR EDMA 311550Z 36003KT 330V040 CAVOK 16/04 Q1013=
0085108520999992014033116204+48425+010932FM-15+046299999V0200201N000519999999Y999999999+01601+00301999999ADDMA1101301999990REMMET058METAR EDMA 311620Z 02001KT CAVOK 16/03 Q1013 RMK ATIS CHA=
0085108520999992014033116504+48425+010932FM-15+046299999V0203601N000519999999Y999999999+01601+00301999999ADDMA1101301999990REMMET058METAR EDMA 311650Z 36001KT CAVOK 16/03 Q1013 RMK ATIS DEL=
0085108520999992014033117204+48425+010932FM-15+046299999V0200701N001519999999Y999999999+01301+00701999999ADDMA1101301999990REMMET058METAR EDMA 311720Z 07003KT CAVOK 13/07 Q1013 RMK ATIS ECH=
0085108520999992014033117504+48425+010932FM-15+046299999V0200901N001019999999Y999999999+01101+00701999999ADDMA1101401999990REMMET058METAR EDMA 311750Z 09002KT CAVOK 11/07 Q1014 RMK ATIS FOX=
0085108520999992014033118204+48425+010932FM-15+046299999V0200801N001519999999Y999999999+01001+00601999999ADDMA1101401999990REMMET058METAR EDMA 311820Z 08003KT CAVOK 10/06 Q1014 RMK ATIS GOL=
0085108520999992014033118504+48425+010932FM-15+046299999V0209999V001019999999Y999999999+00901+00601999999ADDMA1101401999990REMMET058METAR EDMA 311850Z VRB02KT CAVOK 09/06 Q1014 RMK ATIS HOT=
0085108520999992014040104204+48425+010932FM-15+046299999V0201301N001519999999Y999999999+00401+00401999999ADDMA1101401999990REMMET058METAR EDMA 010420Z 13003KT CAVOK 04/04 Q1014 RMK ATIS ALF=
0085108520999992014040104504+48425+010932FM-15+046299999V0201501N001519999999Y999999999+00401+00401999999ADDMA1101401999990REMMET058METAR EDMA 010450Z 15003KT CAVOK 04/04 Q1014 RMK ATIS BRA=
0085108520999992014040105204+48425+010932FM-15+046299999V0201401N002119999999Y999999999+00401+00401999999ADDMA1101401999990REMMET058METAR EDMA 010520Z 14004KT CAVOK 04/04 Q1014 RMK ATIS CHA=
0085108520999992014040105504+48425+010932FM-15+046299999V0201301N002119999999Y999999999+00401+00401999999ADDMA1101401999990REMMET058METAR EDMA 010550Z 13004KT CAVOK 04/04 Q1014 RMK ATIS DEL=
0085108520999992014040106204+48425+010932FM-15+046299999V0201401N002119999999Y999999999+00401+00401999999ADDMA1101401999990REMMET058METAR EDMA 010620Z 14004KT CAVOK 04/04 Q1014 RMK ATIS ECH=
0085108520999992014040106504+48425+010932FM-15+046299999V0201401N001519999999Y999999999+00701+00301999999ADDMA1101401999990REMMET058METAR EDMA 010650Z 14003KT CAVOK 07/03 Q1014 RMK ATIS FOX=
0089108520999992014040107204+48425+010932FM-15+046299999V0209999V001019999999Y999999999+00801+00401999999ADDMA1101401999990REMMET062METAR COR EDMA 010720Z VRB02KT CAVOK 08/04 Q1014 RMK ATIS HOT=
0085108520999992014040107504+48425+010932FM-15+046299999V0209999V001019999999Y999999999+01001+00401999999ADDMA1101401999990REMMET058METAR EDMA 010750Z VRB02KT CAVOK 10/04 Q1014 RMK ATIS IND=
0093108520999992014040108204+48425+010932FM-15+046299999V0201601V001519999999Y999999999+01101+00501999999ADDMA1101401999990REMMET066METAR EDMA 010820Z 16003KT 120V210 CAVOK 11/05 Q1014 RMK ATIS JUL=
0085108520999992014040108504+48425+010932FM-15+046299999V0209999V001019999999Y999999999+01401+00501999999ADDMA1101401999990REMMET058METAR EDMA 010850Z VRB02KT CAVOK 14/05 Q1014 RMK ATIS KIL=
0085108520999992014040109204+48425+010932FM-15+046299999V0209999V001019999999Y999999999+01501+00401999999ADDMA1101401999990REMMET058METAR EDMA 010920Z VRB02KT CAVOK 15/04 Q1014 RMK ATIS LIM=
0085108520999992014040109504+48425+010932FM-15+046299999V0209999V000519999999Y999999999+01501+00401999999ADDMA1101401999990REMMET058METAR EDMA 010950Z VRB01KT CAVOK 15/04 Q1014 RMK ATIS MIK=
0085108520999992014040110204+48425+010932FM-15+046299999V0209999V001019999999Y999999999+01601+00401999999ADDMA1101301999990REMMET058METAR EDMA 011020Z VRB02KT CAVOK 16/04 Q1013 RMK ATIS NOV=
0085108520999992014040110504+48425+010932FM-15+046299999V0209999V000519999999Y999999999+01701+00501999999ADDMA1101301999990REMMET058METAR EDMA 011050Z VRB01KT CAVOK 17/05 Q1013 RMK ATIS OSC=
0093108520999992014040111204+48425+010932FM-15+046299999V0200201V001519999999Y999999999+01701+00401999999ADDMA1101301999990REMMET066METAR EDMA 011120Z 02003KT 290V070 CAVOK 17/04 Q1013 RMK ATIS PAP=
0085108520999992014040111504+48425+010932FM-15+046299999V0209999V001019999999Y999999999+01801+00401999999ADDMA1101301999990REMMET058METAR EDMA 011150Z VRB02KT CAVOK 18/04 Q1013 RMK ATIS QUE=
0085108520999992014040112204+48425+010932FM-15+046299999V0209999V001019999999Y999999999+01901+00401999999ADDMA1101201999990REMMET058METAR EDMA 011220Z VRB02KT CAVOK 19/04 Q1012 RMK ATIS ROM=
0085108520999992014040112504+48425+010932FM-15+046299999V0209999V001519999999Y999999999+01901+00301999999ADDMA1101201999990REMMET058METAR EDMA 011250Z VRB03KT CAVOK 19/03 Q1012 RMK ATIS SIE=
0085108520999992014040113204+48425+010932FM-15+046299999V0209999V001519999999Y999999999+01901+00401999999ADDMA1101101999990REMMET058METAR EDMA 011320Z VRB03KT CAVOK 19/04 Q1011 RMK ATIS TAN=
0097108520999992014040113504+48425+010932FM-15+046299999V0200101V002619999999Y999999999+01901+00301999999ADDMA1101101999990REMMET070METAR COR EDMA 011350Z 01005KT 340V090 CAVOK 19/03 Q1011 RMK ATIS VIC=
0085108520999992014040114204+48425+010932FM-15+046299999V0209999V001519999999Y999999999+01901+00201999999ADDMA1101101999990REMMET058METAR EDMA 011420Z VRB03KT CAVOK 19/02 Q1011 RMK ATIS WHI=
0093108520999992014040114504+48425+010932FM-15+046299999V0200401V003119999999Y999999999+01901+00101999999ADDMA1101101999990REMMET066METAR EDMA 011450Z 04006KT 350V090 CAVOK 19/01 Q1011 RMK ATIS X-R=
0093108520999992014040115204+48425+010932FM-15+046299999V0200401V002619999999Y999999999+01801+00201999999ADDMA1101001999990REMMET066METAR EDMA 011520Z 04005KT 360V070 CAVOK 18/02 Q1010 RMK ATIS YAN=
0093108520999992014040115504+48425+010932FM-15+046299999V0200301V001519999999Y999999999+01801+00201999999ADDMA1101001999990REMMET066METAR EDMA 011550Z 03003KT 350V080 CAVOK 18/02 Q1010 RMK ATIS ZUL=
0085108520999992014040116204+48425+010932FM-15+046299999V0200601N001519999999Y999999999+01701+00201999999ADDMA1101101999990REMMET058METAR EDMA 011620Z 06003KT CAVOK 17/02 Q1011 RMK ATIS ALF=
0085108520999992014040116504+48425+010932FM-15+046299999V0200401N001019999999Y999999999+01701+00201999999ADDMA1101101999990REMMET058METAR EDMA 011650Z 04002KT CAVOK 17/02 Q1011 RMK ATIS BRA=
0085108520999992014040117204+48425+010932FM-15+046299999V0200601N001519999999Y999999999+01401+00501999999ADDMA1101101999990REMMET058METAR EDMA 011720Z 06003KT CAVOK 14/05 Q1011 RMK ATIS CHA=
0085108520999992014040117504+48425+010932FM-15+046299999V0200701N001519999999Y999999999+01201+00501999999ADDMA1101101999990REMMET058METAR EDMA 011750Z 07003KT CAVOK 12/05 Q1011 RMK ATIS DEL=
0085108520999992014040118204+48425+010932FM-15+046299999V0200601N001519999999Y999999999+01101+00401999999ADDMA1101101999990REMMET058METAR EDMA 011820Z 06003KT CAVOK 11/04 Q1011 RMK ATIS ECH=
0085108520999992014040118504+48425+010932FM-15+046299999V0200801N002119999999Y999999999+01001+00401999999ADDMA1101101999990REMMET058METAR EDMA 011850Z 08004KT CAVOK 10/04 Q1011 RMK ATIS FOX=
0085108520999992014040203504+48425+010932FM-15+046299999V0201601N002119999999Y999999999+00501+00401999999ADDMA1101101999990REMMET058METAR EDMA 020350Z 16004KT CAVOK 05/04 Q1011 RMK ATIS X-R=
0085108520999992014040204204+48425+010932FM-15+046299999V0201401N002119999999Y999999999+00401+00301999999ADDMA1101101999990REMMET058METAR EDMA 020420Z 14004KT CAVOK 04/03 Q1011 RMK ATIS YAN=
0085108520999992014040204504+48425+010932FM-15+046299999V0201601N001519999999Y999999999+00401+00301999999ADDMA1101101999990REMMET058METAR EDMA 020450Z 16003KT CAVOK 04/03 Q1011 RMK ATIS ZUL=
0085108520999992014040205204+48425+010932FM-15+046299999V0201301N002119999999Y999999999+00401+00401999999ADDMA1101101999990REMMET058METAR EDMA 020520Z 13004KT CAVOK 04/04 Q1011 RMK ATIS ALF=
0085108520999992014040205504+48425+010932FM-15+046299999V0201601N002619999999Y999999999+00501+00401999999ADDMA1101101999990REMMET058METAR EDMA 020550Z 16005KT CAVOK 05/04 Q1011 RMK ATIS BRA=
0085108520999992014040206204+48425+010932FM-15+046299999V0201701N002119999999Y999999999+00601+00501999999ADDMA1101101999990REMMET058METAR EDMA 020620Z 17004KT CAVOK 06/05 Q1011 RMK ATIS CHA=
0085108520999992014040206504+48425+010932FM-15+046299999V0201601N002119999999Y999999999+00801+00501999999ADDMA1101101999990REMMET058METAR EDMA 020650Z 16004KT CAVOK 08/05 Q1011 RMK ATIS DEL=
0085108520999992014040207204+48425+010932FM-15+046299999V0201601N002619999999Y999999999+00901+00501999999ADDMA1101101999990REMMET058METAR EDMA 020720Z 16005KT CAVOK 09/05 Q1011 RMK ATIS ECH=
0093108520999992014040207504+48425+010932FM-15+046299999V0201701V002119999999Y999999999+01101+00501999999ADDMA1101101999990REMMET066METAR EDMA 020750Z 17004KT 120V190 CAVOK 11/05 Q1011 RMK ATIS FOX=
0093108520999992014040208204+48425+010932FM-15+046299999V0201601V001519999999Y999999999+01301+00601999999ADDMA1101101999990REMMET066METAR EDMA 020820Z 16003KT 100V230 CAVOK 13/06 Q1011 RMK ATIS GOL=
0072108520999992014040208504+48425+010932FM-15+046299999V0209999V001019999999Y999999999+01501+00601999999ADDMA1101101999990REMMET045METAR EDMA 020850Z VRB02KT CAVOK 15/06 Q1011=
0085108520999992014040209204+48425+010932FM-15+046299999V0209999V001019999999Y999999999+01601+00601999999ADDMA1101001999990REMMET058METAR EDMA 020920Z VRB02KT CAVOK 16/06 Q1010 RMK ATIS IND=
0085108520999992014040209504+48425+010932FM-15+046299999V0209999V001519999999Y999999999+01701+00601999999ADDMA1101001999990REMMET058METAR EDMA 020950Z VRB03KT CAVOK 17/06 Q1010 RMK ATIS JUL=
0072108520999992014040210204+48425+010932FM-15+046299999V0209999V001019999999Y999999999+01801+00501999999ADDMA1101001999990REMMET045METAR EDMA 021020Z VRB02KT CAVOK 18/05 Q1010=
0085108520999992014040210504+48425+010932FM-15+046299999V0209999V002119999999Y999999999+01901+00501999999ADDMA1100901999990REMMET058METAR EDMA 021050Z VRB04KT CAVOK 19/05 Q1009 RMK ATIS LIM=
0085108520999992014040211204+48425+010932FM-15+046299999V0209999V001019999999Y999999999+01901+00501999999ADDMA1100901999990REMMET058METAR EDMA 021120Z VRB02KT CAVOK 19/05 Q1009 RMK ATIS MIK=
0085108520999992014040211504+48425+010932FM-15+046299999V0209999V001519999999Y999999999+02001+00501999999ADDMA1100901999990REMMET058METAR EDMA 021150Z VRB03KT CAVOK 20/05 Q1009 RMK ATIS NOV=
0085108520999992014040212204+48425+010932FM-15+046299999V0209999V002619999999Y999999999+02001+00401999999ADDMA1100901999990REMMET058METAR EDMA 021220Z VRB05KT CAVOK 20/04 Q1009 RMK ATIS PAP=
0085108520999992014040212504+48425+010932FM-15+046299999V0209999V001519999999Y999999999+02101+00501999999ADDMA1100801999990REMMET058METAR EDMA 021250Z VRB03KT CAVOK 21/05 Q1008 RMK ATIS QUE=
0085108520999992014040213204+48425+010932FM-15+046299999V0209999V002119999999Y999999999+02101+00501999999ADDMA1100801999990REMMET058METAR EDMA 021320Z VRB04KT CAVOK 21/05 Q1008 RMK ATIS ROM=
0085108520999992014040213504+48425+010932FM-15+046299999V0209999V001019999999Y999999999+02101+00201999999ADDMA1100801999990REMMET058METAR EDMA 021350Z VRB02KT CAVOK 21/02 Q1008 RMK ATIS SIE=
0093108520999992014040214204+48425+010932FM-15+046299999V0202601V003619999999Y999999999+02101+00401999999ADDMA1100701999990REMMET066METAR EDMA 021420Z 26007KT 170V310 CAVOK 21/04 Q1007 RMK ATIS TAN=
0093108520999992014040214504+48425+010932FM-15+046299999V0200601V001519999999Y999999999+02101+00301999999ADDMA1100701999990REMMET066METAR EDMA 021450Z 06003KT 010V110 CAVOK 21/03 Q1007 RMK ATIS UNI=
0085108520999992014040215204+48425+010932FM-15+046299999V0209999V001019999999Y999999999+02101+00201999999ADDMA1100701999990REMMET058METAR EDMA 021520Z VRB02KT CAVOK 21/02 Q1007 RMK ATIS VIC=
0085108520999992014040215504+48425+010932FM-15+046299999V0209999V000519999999Y999999999+02101+00101999999ADDMA1100601999990REMMET058METAR EDMA 021550Z VRB01KT CAVOK 21/01 Q1006 RMK ATIS WHI=
0085108520999992014040216204+48425+010932FM-15+046299999V0209999V000519999999Y999999999+02101+00201999999ADDMA1100601999990REMMET058METAR EDMA 021620Z VRB01KT CAVOK 21/02 Q1006 RMK ATIS X-R=
0085108520999992014040217204+48425+010932FM-15+046299999V0209999V001019999999Y999999999+01701+00601999999ADDMA1100701999990REMMET058METAR EDMA 021720Z VRB02KT CAVOK 17/06 Q1007 RMK ATIS ZUL=
0085108520999992014040217504+48425+010932FM-15+046299999V0200401N001519999999Y999999999+01301+00601999999ADDMA1100701999990REMMET058METAR EDMA 021750Z 04003KT CAVOK 13/06 Q1007 RMK ATIS ALF=
0085108520999992014040218204+48425+010932FM-15+046299999V0200601N001519999999Y999999999+01201+00501999999ADDMA1100701999990REMMET058METAR EDMA 021820Z 06003KT CAVOK 12/05 Q1007 RMK ATIS BRA=
0085108520999992014040218504+48425+010932FM-15+046299999V0200701N001519999999Y999999999+01101+00501999999ADDMA1100701999990REMMET058METAR EDMA 021850Z 07003KT CAVOK 11/05 Q1007 RMK ATIS CHA=
0085108520999992014040303504+48425+010932FM-15+046299999V0201401N002119999999Y999999999+00601+00401999999ADDMA1100601999990REMMET058METAR EDMA 030350Z 14004KT CAVOK 06/04 Q1006 RMK ATIS UNI=
0085108520999992014040304204+48425+010932FM-15+046299999V0201501N002619999999Y999999999+00601+00501999999ADDMA1100601999990REMMET058METAR EDMA 030420Z 15005KT CAVOK 06/05 Q1006 RMK ATIS VIC=
0085108520999992014040304504+48425+010932FM-15+046299999V0201501N002619999999Y999999999+00601+00501999999ADDMA1100601999990REMMET058METAR EDMA 030450Z 15005KT CAVOK 06/05 Q1006 RMK ATIS WHI=
0085108520999992014040305204+48425+010932FM-15+046299999V0201401N002619999999Y999999999+00601+00501999999ADDMA1100601999990REMMET058METAR EDMA 030520Z 14005KT CAVOK 06/05 Q1006 RMK ATIS X-R=
0085108520999992014040305504+48425+010932FM-15+046299999V0201501N001019999999Y999999999+00601+00401999999ADDMA1100701999990REMMET058METAR EDMA 030550Z 15002KT CAVOK 06/04 Q1007 RMK ATIS YAN=
0085108520999992014040306204+48425+010932FM-15+046299999V0201401N001519999999Y999999999+00701+00601999999ADDMA1100701999990REMMET058METAR EDMA 030620Z 14003KT CAVOK 07/06 Q1007 RMK ATIS ZUL=
0093108520999992014040306504+48425+010932FM-15+046299999V0201501V002119999999Y999999999+00901+00401999999ADDMA1100701999990REMMET066METAR EDMA 030650Z 15004KT 100V180 CAVOK 09/04 Q1007 RMK ATIS ALF=
0093108520999992014040307204+48425+010932FM-15+046299999V0201501V002619999999Y999999999+01101+00401999999ADDMA1100601999990REMMET066METAR EDMA 030720Z 15005KT 110V200 CAVOK 11/04 Q1006 RMK ATIS BRA=
0085108520999992014040307504+48425+010932FM-15+046299999V0209999V001019999999Y999999999+01101+00501999999ADDMA1100701999990REMMET058METAR EDMA 030750Z VRB02KT CAVOK 11/05 Q1007 RMK ATIS CHA=
0085108520999992014040308204+48425+010932FM-15+046299999V0209999V000519999999Y999999999+01301+00401999999ADDMA1100701999990REMMET058METAR EDMA 030820Z VRB01KT CAVOK 13/04 Q1007 RMK ATIS DEL=
0085108520999992014040308504+48425+010932FM-15+046299999V0209999V001019999999Y999999999+01501+00501999999ADDMA1100701999990REMMET058METAR EDMA 030850Z VRB02KT CAVOK 15/05 Q1007 RMK ATIS ECH=
0085108520999992014040309204+48425+010932FM-15+046299999V0209999V001019999999Y999999999+01701+00401999999ADDMA1100601999990REMMET058METAR EDMA 030920Z VRB02KT CAVOK 17/04 Q1006 RMK ATIS FOX=
0085108520999992014040309504+48425+010932FM-15+046299999V0209999V001019999999Y999999999+01901+00401999999ADDMA1100601999990REMMET058METAR EDMA 030950Z VRB02KT CAVOK 19/04 Q1006 RMK ATIS GOL=
0085108520999992014040310204+48425+010932FM-15+046299999V0209999V001019999999Y999999999+01901+00401999999ADDMA1100601999990REMMET058METAR EDMA 031020Z VRB02KT CAVOK 19/04 Q1006 RMK ATIS HOT=
0085108520999992014040310504+48425+010932FM-15+046299999V0209999V001019999999Y999999999+02101+00501999999ADDMA1100601999990REMMET058METAR EDMA 031050Z VRB02KT CAVOK 21/05 Q1006 RMK ATIS IND=
0104108520999992014040311204+48425+010932FM-15+046299999V0201501V002119999999N002100199+02101+00201999999ADDMA1100601999990REMMET077METAR EDMA 031120Z 15004KT 100V190 2100 ////// 21/02 Q1006 RMK ATIS      JUL=
0093108520999992014040311504+48425+010932FM-15+046299999V0201601V002119999999Y999999999+02101+00301999999ADDMA1100601999990REMMET066METAR EDMA 031150Z 16004KT 070V200 CAVOK 21/03 Q1006 RMK ATIS KIL=
0093108520999992014040312204+48425+010932FM-15+046299999V0201301V002619999999Y999999999+02001+00401999999ADDMA1100601999990REMMET066METAR EDMA 031220Z 13005KT 080V170 CAVOK 20/04 Q1006 RMK ATIS LIM=
0093108520999992014040312504+48425+010932FM-15+046299999V0201001V002119999999Y999999999+02101+00401999999ADDMA1100501999990REMMET066METAR EDMA 031250Z 10004KT 030V140 CAVOK 21/04 Q1005 RMK ATIS MIK=
0093108520999992014040313204+48425+010932FM-15+046299999V0200801V002619999999Y999999999+02101+00201999999ADDMA1100501999990REMMET066METAR EDMA 031320Z 08005KT 050V120 CAVOK 21/02 Q1005 RMK ATIS NOV=
0093108520999992014040313504+48425+010932FM-15+046299999V0201001V003619999999Y999999999+02101+00201999999ADDMA1100501999990REMMET066METAR EDMA 031350Z 10007KT 060V130 CAVOK 21/02 Q1005 RMK ATIS OSC=
0093108520999992014040314204+48425+010932FM-15+046299999V0200701V003119999999Y999999999+02101+00201999999ADDMA1100501999990REMMET066METAR EDMA 031420Z 07006KT 040V100 CAVOK 21/02 Q1005 RMK ATIS PAP=
0085108520999992014040314504+48425+010932FM-15+046299999V0200601N003119999999Y999999999+02001+00401999999ADDMA1100501999990REMMET058METAR EDMA 031450Z 06006KT CAVOK 20/04 Q1005 RMK ATIS QUE=
0085108520999992014040315204+48425+010932FM-15+046299999V0200701N002619999999Y999999999+02001+00301999999ADDMA1100501999990REMMET058METAR EDMA 031520Z 07005KT CAVOK 20/03 Q1005 RMK ATIS ROM=
0085108520999992014040315504+48425+010932FM-15+046299999V0200701N002619999999Y999999999+02001+00201999999ADDMA1100501999990REMMET058METAR EDMA 031550Z 07005KT CAVOK 20/02 Q1005 RMK ATIS SIE=
0085108520999992014040316204+48425+010932FM-15+046299999V0200501N001519999999Y999999999+01901+00401999999ADDMA1100501999990REMMET058METAR EDMA 031620Z 05003KT CAVOK 19/04 Q1005 RMK ATIS TAN=
0085108520999992014040316504+48425+010932FM-15+046299999V0200401N002119999999Y999999999+01701+00401999999ADDMA1100501999990REMMET058METAR EDMA 031650Z 04004KT CAVOK 17/04 Q1005 RMK ATIS UNI=
0085108520999992014040317204+48425+010932FM-15+046299999V0200701N001019999999Y999999999+01701+00501999999ADDMA1100501999990REMMET058METAR EDMA 031720Z 07002KT CAVOK 17/05 Q1005 RMK ATIS VIC=
0085108520999992014040317504+48425+010932FM-15+046299999V0200901N001519999999Y999999999+01501+00501999999ADDMA1100501999990REMMET058METAR EDMA 031750Z 09003KT CAVOK 15/05 Q1005 RMK ATIS WHI=
0085108520999992014040318204+48425+010932FM-15+046299999V0209999V001019999999Y999999999+01401+00501999999ADDMA1100501999990REMMET058METAR EDMA 031820Z VRB02KT CAVOK 14/05 Q1005 RMK ATIS X-R=
0085108520999992014040318504+48425+010932FM-15+046299999V0200801N001519999999Y999999999+01401+00501999999ADDMA1100501999990REMMET058METAR EDMA 031850Z 08003KT CAVOK 14/05 Q1005 RMK ATIS YAN=
0085108520999992014040404504+48425+010932FM-15+046299999V0209999V001019999999Y999999999+00801+00701999999ADDMA1100501999990REMMET058METAR EDMA 040450Z VRB02KT CAVOK 08/07 Q1005 RMK ATIS SIE=
0085108520999992014040405204+48425+010932FM-15+046299999V0200601N001519999999Y999999999+00701+00601999999ADDMA1100501999990REMMET058METAR EDMA 040520Z 06003KT CAVOK 07/06 Q1005 RMK ATIS TAN=
0085108520999992014040405504+48425+010932FM-15+046299999V0201501N001519999999Y999999999+00901+00701999999ADDMA1100501999990REMMET058METAR EDMA 040550Z 15003KT CAVOK 09/07 Q1005 RMK ATIS UNI=
0085108520999992014040406204+48425+010932FM-15+046299999V0200501N002119999999Y999999999+01001+00601999999ADDMA1100501999990REMMET058METAR EDMA 040620Z 05004KT CAVOK 10/06 Q1005 RMK ATIS VIC=
0085108520999992014040406504+48425+010932FM-15+046299999V0209999V001019999999Y999999999+01101+00701999999ADDMA1100601999990REMMET058METAR EDMA 040650Z VRB02KT CAVOK 11/07 Q1006 RMK ATIS WHI=
0085108520999992014040407204+48425+010932FM-15+046299999V0209999V001019999999Y999999999+01201+00701999999ADDMA1100601999990REMMET058METAR EDMA 040720Z VRB02KT CAVOK 12/07 Q1006 RMK ATIS X-R=
0093108520999992014040407504+48425+010932FM-15+046299999V0201001V001519999999Y999999999+01301+00601999999ADDMA1100601999990REMMET066METAR EDMA 040750Z 10003KT 070V130 CAVOK 13/06 Q1006 RMK ATIS YAN=
0093108520999992014040408204+48425+010932FM-15+046299999V0201501V002619999999Y999999999+01301+00601999999ADDMA1100601999990REMMET066METAR EDMA 040820Z 15005KT 120V180 CAVOK 13/06 Q1006 RMK ATIS ZUL=
0093108520999992014040408504+48425+010932FM-15+046299999V0200801V002119999999Y999999999+01401+00601999999ADDMA1100601999990REMMET066METAR EDMA 040850Z 08004KT 050V150 CAVOK 14/06 Q1006 RMK ATIS ALF=
0093108520999992014040409204+48425+010932FM-15+046299999V0201001V002119999999Y999999999+01501+00601999999ADDMA1100601999990REMMET066METAR EDMA 040920Z 10004KT 040V140 CAVOK 15/06 Q1006 RMK ATIS CHA=
0093108520999992014040409504+48425+010932FM-15+046299999V0201201V002619999999Y999999999+01601+00501999999ADDMA1100601999990REMMET066METAR EDMA 040950Z 12005KT 040V180 CAVOK 16/05 Q1006 RMK ATIS DEL=
0093108520999992014040410204+48425+010932FM-15+046299999V0200901V002619999999Y999999999+01701+00401999999ADDMA1100601999990REMMET066METAR EDMA 041020Z 09005KT 030V140 CAVOK 17/04 Q1006 RMK ATIS ECH=
0093108520999992014040410504+48425+010932FM-15+046299999V0200901V002619999999Y999999999+01801+00601999999ADDMA1100601999990REMMET066METAR EDMA 041050Z 09005KT 040V150 CAVOK 18/06 Q1006 RMK ATIS FOX=
0093108520999992014040411204+48425+010932FM-15+046299999V0200601V003119999999Y999999999+01801+00601999999ADDMA1100601999990REMMET066METAR EDMA 041120Z 06006KT 020V100 CAVOK 18/06 Q1006 RMK ATIS GOL=
0093108520999992014040411504+48425+010932FM-15+046299999V0200601V003119999999Y999999999+01801+00701999999ADDMA1100601999990REMMET066METAR EDMA 041150Z 06006KT 010V100 CAVOK 18/07 Q1006 RMK ATIS HOT=
0093108520999992014040412204+48425+010932FM-15+046299999V0200701V003119999999Y999999999+01801+00701999999ADDMA1100601999990REMMET066METAR EDMA 041220Z 07006KT 040V100 CAVOK 18/07 Q1006 RMK ATIS IND=
0093108520999992014040412504+48425+010932FM-15+046299999V0201101V003119999999Y999999999+01901+00801999999ADDMA1100601999990REMMET066METAR EDMA 041250Z 11006KT 350V150 CAVOK 19/08 Q1006 RMK ATIS JUL=
0093108520999992014040413204+48425+010932FM-15+046299999V0201101V002619999999Y999999999+01901+00701999999ADDMA1100501999990REMMET066METAR EDMA 041320Z 11005KT 070V200 CAVOK 19/07 Q1005 RMK ATIS KIL=
0093108520999992014040413504+48425+010932FM-15+046299999V0200701V004119999999Y999999999+01901+00701999999ADDMA1100501999990REMMET066METAR EDMA 041350Z 07008KT 020V140 CAVOK 19/07 Q1005 RMK ATIS LIM=
0085108520999992014040414204+48425+010932FM-15+046299999V0201101N004119999999Y999999999+01901+00701999999ADDMA1100501999990REMMET058METAR EDMA 041420Z 11008KT CAVOK 19/07 Q1005 RMK ATIS MIK=
0085108520999992014040414504+48425+010932FM-15+046299999V0201401N003119999999Y999999999+01801+00801999999ADDMA1100601999990REMMET058METAR EDMA 041450Z 14006KT CAVOK 18/08 Q1006 RMK ATIS NOV=
0085108520999992014040415204+48425+010932FM-15+046299999V0201301N003119999999Y999999999+01801+00701999999ADDMA1100501999990REMMET058METAR EDMA 041520Z 13006KT CAVOK 18/07 Q1005 RMK ATIS OSC=
0085108520999992014040415504+48425+010932FM-15+046299999V0201501N002619999999Y999999999+01801+00701999999ADDMA1100601999990REMMET058METAR EDMA 041550Z 15005KT CAVOK 18/07 Q1006 RMK ATIS PAP=
0085108520999992014040416204+48425+010932FM-15+046299999V0201301N003119999999Y999999999+01701+00701999999ADDMA1100601999990REMMET058METAR EDMA 041620Z 13006KT CAVOK 17/07 Q1006 RMK ATIS QUE=
0085108520999992014040416504+48425+010932FM-15+046299999V0201501N002619999999Y999999999+01601+00701999999ADDMA1100601999990REMMET058METAR EDMA 041650Z 15005KT CAVOK 16/07 Q1006 RMK ATIS ROM=
0085108520999992014040417204+48425+010932FM-15+046299999V0201201N002619999999Y999999999+01501+00701999999ADDMA1100601999990REMMET058METAR EDMA 041720Z 12005KT CAVOK 15/07 Q1006 RMK ATIS SIE=
0085108520999992014040417504+48425+010932FM-15+046299999V0201501N001519999999Y999999999+01501+00601999999ADDMA1100601999990REMMET058METAR EDMA 041750Z 15003KT CAVOK 15/06 Q1006 RMK ATIS TAN=
0085108520999992014040418204+48425+010932FM-15+046299999V0209999V000519999999Y999999999+01201+00701999999ADDMA1100701999990REMMET058METAR EDMA 041820Z VRB01KT CAVOK 12/07 Q1007 RMK ATIS UNI=
0085108520999992014040418504+48425+010932FM-15+046299999V0209999V001019999999Y999999999+01101+00701999999ADDMA1100701999990REMMET058METAR EDMA 041850Z VRB02KT CAVOK 11/07 Q1007 RMK ATIS VIC=
0085108520999992014040504504+48425+010932FM-15+046299999V0201601N001019999999Y999999999+00701+00701999999ADDMA1101001999990REMMET058METAR EDMA 050450Z 16002KT CAVOK 07/07 Q1010 RMK ATIS PAP=
0085108520999992014040505204+48425+010932FM-15+046299999V0201301N001019999999Y999999999+00701+00601999999ADDMA1101001999990REMMET058METAR EDMA 050520Z 13002KT CAVOK 07/06 Q1010 RMK ATIS QUE=
0085108520999992014040505504+48425+010932FM-15+046299999V0209999V000519999999Y999999999+00801+00701999999ADDMA1101101999990REMMET058METAR EDMA 050550Z VRB01KT CAVOK 08/07 Q1011 RMK ATIS ROM=
0085108520999992014040506204+48425+010932FM-15+046299999V0202401N002119999999Y999999999+00901+00801999999ADDMA1101101999990REMMET058METAR EDMA 050620Z 24004KT CAVOK 09/08 Q1011 RMK ATIS SIE=
0085108520999992014040506504+48425+010932FM-15+046299999V0202401N002119999999Y999999999+01001+00801999999ADDMA1101101999990REMMET058METAR EDMA 050650Z 24004KT CAVOK 10/08 Q1011 RMK ATIS TAN=
0085108520999992014040507204+48425+010932FM-15+046299999V0202501N002619999999Y999999999+01101+00801999999ADDMA1101201999990REMMET058METAR EDMA 050720Z 25005KT CAVOK 11/08 Q1012 RMK ATIS UNI=
0085108520999992014040507504+48425+010932FM-15+046299999V0202501N003619999999Y999999999+01201+00801999999ADDMA1101201999990REMMET058METAR EDMA 050750Z 25007KT CAVOK 12/08 Q1012 RMK ATIS VIC=
0085108520999992014040508204+48425+010932FM-15+046299999V0202701N004119999999Y999999999+01201+00801999999ADDMA1101201999990REMMET058METAR EDMA 050820Z 27008KT CAVOK 12/08 Q1012 RMK ATIS WHI=
0072108520999992014040508504+48425+010932FM-15+046299999V0202701N004119999999Y999999999+01201+00801999999ADDMA1101201999990REMMET045METAR EDMA 050850Z 27008KT CAVOK 12/08 Q1012=
0155108520999992014040509204+48425+010932FM-15+046299999V0202701N003610048819N009000199+01301+00801999999ADDGA1071+004881991GE19MSL   +99999+99999GF199999071990004881991991MA1101301999990REMMET064METAR EDMA 050920Z 27007KT 9000 BKN016 13/08 Q1013 RMK ATIS YAN=
0155108520999992014040509504+48425+010932FM-15+046299999V0202701N004610051819N009000199+01301+00801999999ADDGA1071+005181991GE19MSL   +99999+99999GF199999071990005181991991MA1101301999990REMMET064METAR EDMA 050950Z 27009KT 9000 BKN017 13/08 Q1013 RMK ATIS ALF=
0168108520999992014040510204+48425+010932FM-15+046299999V0202701V003610054919N009000199+01401+00801999999ADDGA1071+005491991GE19MSL   +99999+99999GF199999071990005491991991MA1101301999990REMMET077METAR EDMA 051020Z 27007KT 250V310 9000 BKN018 14/08 Q1013 RMK ATIS      BRA=
0155108520999992014040510504+48425+010932FM-15+046299999V0202701N003110061019N008000199+01401+00901999999ADDGA1071+006101991GE19MSL   +99999+99999GF199999071990006101991991MA1101301999990REMMET064METAR EDMA 051050Z 27006KT 8000 BKN020 14/09 Q1013 RMK ATIS CHA=
0155108520999992014040511204+48425+010932FM-15+046299999V0202601N003110067119N009000199+01501+00901999999ADDGA1071+006711991GE19MSL   +99999+99999GF199999071990006711991991MA1101301999990REMMET064METAR EDMA 051120Z 26006KT 9000 BKN022 15/09 Q1013 RMK ATIS DEL=
0155108520999992014040511504+48425+010932FM-15+046299999V0202701N003110067119N009000199+01501+00901999999ADDGA1071+006711991GE19MSL   +99999+99999GF199999071990006711991991MA1101301999990REMMET064METAR EDMA 051150Z 27006KT 9000 BKN022 15/09 Q1013 RMK ATIS ECH=
0191108520999992014040512204+48425+010932FM-15+046299999V0202801V003110076219N009000199+01501+00901999999ADDGA1071+007621991GA2071+009141991GE19MSL   +99999+99999GF199999071990007621991991MA1101401999990REMMET084METAR EDMA 051220Z 28006KT 240V330 9000 BKN025 BKN030 15/09 Q1014 RMK      ATIS FOX=
0168108520999992014040512504+48425+010932FM-15+046299999V0202801V003610109719N009000199+01501+00901999999ADDGA1071+010971991GE19MSL   +99999+99999GF199999071990010971991991MA1101401999990REMMET077METAR EDMA 051250Z 28007KT 250V320 9000 BKN036 15/09 Q1014 RMK ATIS      GOL=
0155108520999992014040513204+48425+010932FM-15+046299999V0202601N003110082319N009999199+01601+00801999999ADDGA1071+008231991GE19MSL   +99999+99999GF199999071990008231991991MA1101301999990REMMET064METAR EDMA 051320Z 26006KT 9999 BKN027 16/08 Q1013 RMK ATIS HOT=
0191108520999992014040513504+48425+010932FM-15+046299999V0202401V003110082319N009999199+01601+00801999999ADDGA1071+008231991GA2071+013111991GE19MSL   +99999+99999GF199999071990008231991991MA1101401999990REMMET084METAR EDMA 051350Z 24006KT 220V280 9999 BKN027 BKN043 16/08 Q1014 RMK      ATIS IND=
0183108520999992014040514204+48425+010932FM-15+046299999V0202601N003610082319N009999199+01601+00901999999ADDGA1071+008231991GA2071+014631991GE19MSL   +99999+99999GF199999071990008231991991MA1101401999990REMMET076METAR EDMA 051420Z 26007KT 9999 BKN027 BKN048 16/09 Q1014 RMK ATIS      JUL=
0183108520999992014040514504+48425+010932FM-15+046299999V0202801N004110131119N009999199+01601+00901999999ADDGA1041+008231991GA2071+013111991GE19MSL   +99999+99999GF199999041990008231991991MA1101401999990REMMET076METAR EDMA 051450Z 28008KT 9999 SCT027 BKN043 16/09 Q1014 RMK ATIS      KIL=
0085108520999992014040515204+48425+010932FM-15+046299999V0202801N005719999999Y999999999+01501+00801999999ADDMA1101401999990REMMET058METAR EDMA 051520Z 28011KT CAVOK 15/08 Q1014 RMK ATIS LIM=
0085108520999992014040515504+48425+010932FM-15+046299999V0202801N004619999999Y999999999+01501+00801999999ADDMA1101401999990REMMET058METAR EDMA 051550Z 28009KT CAVOK 15/08 Q1014 RMK ATIS MIK=
0183108520999992014040516204+48425+010932FM-15+046299999V0203001N004110170719N009999199+01501+00801999999ADDGA1021+012191991GA2071+017071991GE19MSL   +99999+99999GF199999021990012191991991MA1101401999990REMMET076METAR EDMA 051620Z 30008KT 9999 FEW040 BKN056 15/08 Q1014 RMK ATIS      NOV=
0085108520999992014040516504+48425+010932FM-15+046299999V0202801N003619999999Y999999999+01501+00801999999ADDMA1101501999990REMMET058METAR EDMA 051650Z 28007KT CAVOK 15/08 Q1015 RMK ATIS OSC=
0155108520999992014040517204+48425+010932FM-15+046299999V0202801N003619999999N009000199+01401+00901999999ADDGA1041+013721991GE19MSL   +99999+99999GF199999041990013721991991MA1101501999990REMMET064METAR EDMA 051720Z 28007KT 9000 SCT045 14/09 Q1015 RMK ATIS PAP=
0085108520999992014040517504+48425+010932FM-15+046299999V0202801N003119999999Y999999999+01301+00901999999ADDMA1101501999990REMMET058METAR EDMA 051750Z 28006KT CAVOK 13/09 Q1015 RMK ATIS QUE=
0183108520999992014040518204+48425+010932FM-15+046299999V0202801N003110189019N009000199+01301+00901999999ADDGA1041+011281991GA2071+018901991GE19MSL   +99999+99999GF199999041990011281991991MA1101601999990REMMET076METAR EDMA 051820Z 28006KT 9000 SCT037 BKN062 13/09 Q1016 RMK ATIS      ROM=
0155108520999992014040518504+48425+010932FM-15+046299999V0202701N003110100619N009000199+01301+00901999999ADDGA1071+010061991GE19MSL   +99999+99999GF199999071990010061991991MA1101601999990REMMET064METAR EDMA 051850Z 27006KT 9000 BKN033 13/09 Q1016 RMK ATIS SIE=
0192108520999992014040606504+48425+010932FM-15+046299999V0209999V000510112819N003200199+01001+01001999999ADDGA1021+004271991GA2081+011281991GE19MSL   +99999+99999GF199999021990004271991991MA1102001999990MW1101REMMET079METAR EDMA 060650Z VRB01KT 3200 BR FEW014 OVC037 10/10 Q1020 RMK ATIS      QUE=
0192108520999992014040607204+48425+010932FM-15+046299999V0202701N002110112819N003200199+01101+01101999999ADDGA1041+003351991GA2081+011281991GE19MSL   +99999+99999GF199999041990003351991991MA1102001999990MW1101REMMET079METAR EDMA 060720Z 27004KT 3200 BR SCT011 OVC037 11/11 Q1020 RMK ATIS      ROM=
0164108520999992014040607504+48425+010932FM-15+046299999V0202701N002610033519N003000199+01201+01101999999ADDGA1071+003351991GE19MSL   +99999+99999GF199999071990003351991991MA1102001999990MW1101REMMET067METAR EDMA 060750Z 27005KT 3000 BR BKN011 12/11 Q1020 RMK ATIS SIE=
0151108520999992014040608204+48425+010932FM-15+046299999V0202701N002610030519N003000199+01201+01101999999ADDGA1081+003051991GE19MSL   +99999+99999GF199999081990003051991991MA1102001999990MW1101REMMET054METAR EDMA 060820Z 27005KT 3000 BR OVC010 12/11 Q1020=
0183108520999992014040608504+48425+010932FM-15+046299999V0203401N002110033519N005000199+01201+01101999999ADDGA1071+003351991GA2081+004271991GE19MSL   +99999+99999GF199999071990003351991991MA1102001999990REMMET076METAR EDMA 060850Z 34004KT 5000 BKN011 OVC014 12/11 Q1020 RMK ATIS      UNI=
0183108520999992014040609204+48425+010932FM-15+046299999V0209999V001010033519N005000199+01301+01001999999ADDGA1071+003351991GA2081+006711991GE19MSL   +99999+99999GF199999071990003351991991MA1102001999990REMMET076METAR EDMA 060920Z VRB02KT 5000 BKN011 OVC022 13/10 Q1020 RMK ATIS      VIC=
0191108520999992014040609504+48425+010932FM-15+046299999V0202601V001510061019N006000199+01401+00901999999ADDGA1071+006101991GA2081+007621991GE19MSL   +99999+99999GF199999071990006101991991MA1102001999990REMMET084METAR EDMA 060950Z 26003KT 210V320 6000 BKN020 OVC025 14/09 Q1020 RMK      ATIS WHI=
0155108520999992014040610204+48425+010932FM-15+046299999V0209999V001510097519N007000199+01501+00901999999ADDGA1071+009751991GE19MSL   +99999+99999GF199999071990009751991991MA1102001999990REMMET064METAR EDMA 061020Z VRB03KT 7000 BKN032 15/09 Q1020 RMK ATIS X-R=
0191108520999992014040610504+48425+010932FM-15+046299999V0202101V002110140219N008000199+01501+00901999999ADDGA1041+006711991GA2071+014021991GE19MSL   +99999+99999GF199999041990006711991991MA1102001999990REMMET084METAR EDMA 061050Z 21004KT 160V320 8000 SCT022 BKN046 15/09 Q1020 RMK      ATIS YAN=
