0087108520999992015010205504+48425+010932FM-15+046299999V0201701N003119999999Y999999999-00701-00701999999ADDMA1103101999999REMMET060METAR EDMA 020550Z 17006KT CAVOK M07/M07 Q1031 RMK ATIS OSC=
0087108520999992015010206204+48425+010932FM-15+046299999V0201501N003119999999Y999999999-00701-00701999999ADDMA1103101999999REMMET060METAR EDMA 020620Z 15006KT CAVOK M07/M07 Q1031 RMK ATIS PAP=
0087108520999992015010206504+48425+010932FM-15+046299999V0201601N002119999999Y999999999-00601-00601999999ADDMA1103001999999REMMET060METAR EDMA 020650Z 16004KT CAVOK M06/M06 Q1030 RMK ATIS QUE=
0087108520999992015010207204+48425+010932FM-15+046299999V0209999V001019999999Y999999999-00601-00701999999ADDMA1103101999999REMMET060METAR EDMA 020720Z VRB02KT CAVOK M06/M07 Q1031 RMK ATIS ROM=
0095108520999992015010207504+48425+010932FM-15+046299999V0201401V001519999999Y999999999-00601-00601999999ADDMA1103101999999REMMET068METAR EDMA 020750Z 14003KT 120V180 CAVOK M06/M06 Q1031 RMK ATIS SIE=
0095108520999992015010208204+48425+010932FM-15+046299999V0201901V001519999999Y999999999-00301-00301999999ADDMA1103001999999REMMET068METAR EDMA 020820Z 19003KT 130V230 CAVOK M03/M03 Q1030 RMK ATIS TAN=
0095108520999992015010208504+48425+010932FM-15+046299999V0202501V002619999999Y999999999+00001-00301999999ADDMA1103101999999REMMET068METAR EDMA 020850Z 25005KT 220V290 CAVOK M00/M03 Q1031 RMK ATIS UNI=
0094108520999992015010209204+48425+010932FM-15+046299999V0202601V001519999999Y999999999+00201-00301999999ADDMA1103101999999REMMET067METAR EDMA 020920Z 26003KT 200V310 CAVOK 02/M03 Q1031 RMK ATIS VIC=
0086108520999992015010209504+48425+010932FM-15+046299999V0209999V000519999999Y999999999+00301-00301999999ADDMA1103101999999REMMET059METAR EDMA 020950Z VRB01KT CAVOK 03/M03 Q1031 RMK ATIS WHI=
0194108520999992015010210204+48425+010932FM-15+046299999V0202501N005110109719N009999199+00301-00201999999ADDGA1041+006101999GA2071+010971999GE19MSL   +99999+99999GF199999041999006101999999MA1103001999999MW1611REMMET081METAR EDMA 021020Z 25010KT 9999 -RA SCT020 BKN036 03/M02 Q1030 RMK      ATIS X-R=
0166108520999992015010210504+48425+010932FM-15+046299999V0202401N007210103619N008000199+00201-00201999999ADDGA1071+010361999GE19MSL   +99999+99999GF199999071999010361999999MA1103001999999MW1611REMMET069METAR EDMA 021050Z 24014KT 8000 -RA BKN034 02/M02 Q1030 RMK ATIS YAN=
0166108520999992015010211204+48425+010932FM-15+046299999V0202401N007710128019N007000199+00201-00101999999ADDGA1071+012801999GE19MSL   +99999+99999GF199999071999012801999999MA1102901999999MW1611REMMET069METAR EDMA 021120Z 24015KT 7000 -RA BKN042 02/M01 Q1029 RMK ATIS ZUL=
0178108520999992015010211504+48425+010932FM-15+046299999V0202601V003610128019N007000199+00201+00001999999ADDGA1071+012801999GE19MSL   +99999+99999GF199999071999012801999999MA1103001999999MW1611REMMET081METAR EDMA 021150Z 26007KT 220V310 7000 -RA BKN042 02/00 Q1030 RMK      ATIS ALF=
0165108520999992015010212204+48425+010932FM-15+046299999V0202701N006210094519N007000199+00201+00101999999ADDGA1081+009451999GE19MSL   +99999+99999GF199999081999009451999999MA1103001999999MW1611REMMET068METAR EDMA 021220Z 27012KT 7000 -RA OVC031 02/01 Q1030 RMK ATIS BRA=
0177108520999992015010212504+48425+010932FM-15+046299999V0202701V005110094519N005000199+00201+00101999999ADDGA1081+009451999GE19MSL   +99999+99999GF199999081999009451999999MA1102901999999MW1631REMMET080METAR EDMA 021250Z 27010KT 240V300 5000 RA OVC031 02/01 Q1029 RMK ATIS      CHA=
0175108520999992015010213204+48425+010932FM-15+046299999V0202501N007710094519N009999199+00201+00201999999ADDGA1081+009451999GE19MSL   +99999+99999GF199999081999009451999999MA1102901999999MW1611REMMET078METAR EDMA 021320Z 25015KT 9999 -RA OVC031 02/02 Q1029 RERA RMK ATIS      DEL=
0155108520999992015010213504+48425+010932FM-15+046299999V0202501N006210079219N009999199+00301+00101999999ADDGA1081+007921999GE19MSL   +99999+99999GF199999081999007921999999MA1102901999999REMMET064METAR EDMA 021350Z 25012KT 9999 OVC026 03/01 Q1029 RMK ATIS ECH=
0193108520999992015010214204+48425+010932FM-15+046299999V0202501N008210079219N009999199+00301+00101999999ADDGA1071+007921999GA2081+009451999GE19MSL   +99999+99999GF199999071999007921999999MA1102901999999MW1611REMMET080METAR EDMA 021420Z 25016KT 9999 -RA BKN026 OVC031 03/01 Q1029 RMK ATIS      FOX=
0165108520999992015010214504+48425+010932FM-15+046299999V0202501N007210076219N009999199+00301+00201999999ADDGA1081+007621999GE19MSL   +99999+99999GF199999081999007621999999MA1103001999999MW1611REMMET068METAR EDMA 021450Z 25014KT 9999 -RA OVC025 03/02 Q1030 RMK ATIS GOL=
0155108520999992015010215204+48425+010932FM-15+046299999V0202601N007210067119N009999199+00301+00201999999ADDGA1081+006711999GE19MSL   +99999+99999GF199999081999006711999999MA1103001999999REMMET064METAR EDMA 021520Z 26014KT 9999 OVC022 03/02 Q1030 RMK ATIS HOT=
0165108520999992015010215504+48425+010932FM-15+046299999V0202601N006710057919N008000199+00301+00101999999ADDGA1081+005791999GE19MSL   +99999+99999GF199999081999005791999999MA1103101999999MW1611REMMET068METAR EDMA 021550Z 26013KT 8000 -RA OVC019 03/01 Q1031 RMK ATIS IND=
0194108520999992015010216204+48425+010932FM-15+046299999V0202501N007210054919N009999199+00301+00201999999ADDGA1071+005491999GA2081+007321999GE19MSL   +99999+99999GF199999071999005491999999MA1103101999999OC101241REMMET079METAR EDMA 021620Z 25014G24KT 9999 BKN018 OVC024 03/02 Q1031 RMK ATIS      JUL=
0155108520999992015010216504+48425+010932FM-15+046299999V0202501N006710051819N009999199+00301+00201999999ADDGA1081+005181999GE19MSL   +99999+99999GF199999081999005181999999MA1103101999999REMMET064METAR EDMA 021650Z 25013KT 9999 OVC017 03/02 Q1031 RMK ATIS KIL=
0155108520999992015010217204+48425+010932FM-15+046299999V0202601N006710048819N009999199+00301+00201999999ADDGA1081+004881999GE19MSL   +99999+99999GF199999081999004881999999MA1103101999999REMMET064METAR EDMA 021720Z 26013KT 9999 OVC016 03/02 Q1031 RMK ATIS LIM=
0183108520999992015010217504+48425+010932FM-15+046299999V0202601N006210048819N009999199+00301+00201999999ADDGA1021+003661999GA2081+004881999GE19MSL   +99999+99999GF199999021999003661999999MA1103201999999REMMET076METAR EDMA 021750Z 26012KT 9999 FEW012 OVC016 03/02 Q1032 RMK ATIS      MIK=
0183108520999992015010218204+48425+010932FM-15+046299999V0202601N005710030519N009999199+00301+00201999999ADDGA1071+003051999GA2081+004571999GE19MSL   +99999+99999GF199999071999003051999999MA1103201999999REMMET076METAR EDMA 021820Z 26011KT 9999 BKN010 OVC015 03/02 Q1032 RMK ATIS      NOV=
0183108520999992015010218504+48425+010932FM-15+046299999V0202601N006210121919N009999199+00301+00201999999ADDGA1021+003051999GA2071+012191999GE19MSL   +99999+99999GF199999021999003051999999MA1103201999999REMMET076METAR EDMA 021850Z 26012KT 9999 FEW010 BKN040 03/02 Q1032 RMK ATIS      OSC=
0155108520999992015010219204+48425+010932FM-15+046299999V0202501N006210070119N009999199+00201+00201999999ADDGA1071+007011999GE19MSL   +99999+99999GF199999071999007011999999MA1103201999999REMMET064METAR EDMA 021920Z 25012KT 9999 BKN023 02/02 Q1032 RMK ATIS PAP=
0183108520999992015010219504+48425+010932FM-15+046299999V0202501N005110079219N009999199+00301+00301999999ADDGA1021+002131999GA2071+007921999GE19MSL   +99999+99999GF199999021999002131999999MA1103301999999REMMET076METAR EDMA 021950Z 25010KT 9999 FEW007 BKN026 03/03 Q1033 RMK ATIS      QUE=
0118108520999992015010305504+48425+010932FM-15+046299999V0202001N001512200019N008000199+00001+00001999999ADDGF100991999999999999999999MA1103201999999MW1111REMMET059METAR COR EDMA 030550Z 20003KT 8000 BCFG NSC M00/M00 Q1032=
0127108520999992015010306204+48425+010932FM-15+046299999V0202101N002112200019N008000199+00001+00001999999ADDGF100991999999999999999999MA1103101999999MW1111REMMET068METAR EDMA 030620Z 21004KT 8000 BCFG NSC M00/M00 Q1031 RMK ATIS CHA=
0157108520999992015010306504+48425+010932FM-15+046299999V0201601N001010030519N006000199-00101-00101999999ADDGA1071+003051999GE19MSL   +99999+99999GF199999071999003051999999MA1103201999999REMMET066METAR EDMA 030650Z 16002KT 6000 BKN010 M01/M01 Q1032 RMK ATIS ECH=
0157108520999992015010307204+48425+010932FM-15+046299999V0201501N002110030519N006000199+00001+00001999999ADDGA1071+003051999GE19MSL   +99999+99999GF199999071999003051999999MA1103101999999REMMET066METAR EDMA 030720Z 15004KT 6000 BKN010 M00/M00 Q1031 RMK ATIS FOX=
0155108520999992015010307504+48425+010932FM-15+046299999V0201501N002619999999N007000199+00001+00001999999ADDGA1041+004271999GE19MSL   +99999+99999GF199999041999004271999999MA1103001999999REMMET064METAR EDMA 030750Z 15005KT 7000 SCT014 00/00 Q1030 RMK ATIS GOL=
0171108520999992015010308204+48425+010932FM-15+046299999V0201501N001519999999N007000199+00001+00001999999ADDGA1021+004271999GE19MSL   +99999+99999GF199999021999004271999999MA1103001999999REMMET080METAR EDMA 030820Z 15003KT 7000 R07/P2000N FEW014 00/00 Q1030 RMK ATIS      HOT=
0122108520999992015010308504+48425+010932FM-15+046299999V0201401V002112200019N007000199+00001+00001999999ADDGF100991999999999999999999MA1102901999999REMMET069METAR EDMA 030850Z 14004KT 100V220 7000 NSC 00/00 Q1029 RMK ATIS IND=
0114108520999992015010309204+48425+010932FM-15+046299999V0201401N002612200019N008000199+00101+00101999999ADDGF100991999999999999999999MA1102901999999REMMET061METAR EDMA 030920Z 14005KT 8000 NSC 01/01 Q1029 RMK ATIS JUL=
0093108520999992015010309504+48425+010932FM-15+046299999V0201501V002619999999Y999999999+00101+00101999999ADDMA1102801999999REMMET066METAR EDMA 030950Z 15005KT 120V210 CAVOK 01/01 Q1028 RMK ATIS KIL=
0085108520999992015010310204+48425+010932FM-15+046299999V0201801N002619999999Y999999999+00201+00201999999ADDMA1102701999999REMMET058METAR EDMA 031020Z 18005KT CAVOK 02/02 Q1027 RMK ATIS LIM=
0159108520999992015010310504+48425+010932FM-15+046299999V0209999V001010030519N009999199+00301+00201999999ADDGA1071+003051999GE19MSL   +99999+99999GF199999071999003051999999MA1102601999999REMMET068METAR COR EDMA 031050Z VRB02KT 9999 BKN010 03/02 Q1026 RMK ATIS NOV=
0168108520999992015010311204+48425+010932FM-15+046299999V0202901V002110033519N009999199+00201+00201999999ADDGA1081+003351999GE19MSL   +99999+99999GF199999081999003351999999MA1102601999999REMMET077METAR EDMA 031120Z 29004KT 260V330 9999 OVC011 02/02 Q1026 RMK ATIS      OSC=
0155108520999992015010311504+48425+010932FM-15+046299999V0202701N004110036619N009999199+00301+00201999999ADDGA1081+003661999GE19MSL   +99999+99999GF199999081999003661999999MA1102501999999REMMET064METAR EDMA 031150Z 27008KT 9999 OVC012 03/02 Q1025 RMK ATIS PAP=
0155108520999992015010312204+48425+010932FM-15+046299999V0202601N003110030519N009999199+00301+00201999999ADDGA1081+003051999GE19MSL   +99999+99999GF199999081999003051999999MA1102401999999REMMET064METAR EDMA 031220Z 26006KT 9999 OVC010 03/02 Q1024 RMK ATIS QUE=
0142108520999992015010312504+48425+010932FM-15+046299999V0202701N004110030519N008000199+00301+00201999999ADDGA1081+003051999GE19MSL   +99999+99999GF199999081999003051999999MA1102401999999REMMET051METAR EDMA 031250Z 27008KT 8000 OVC010 03/02 Q1024=
0164108520999992015010312564+48425+010932FM-16+046299999V0202701N006210024419N004500199+00301+00201999999ADDGA1081+002441999GE19MSL   +99999+99999GF199999081999002441999999MA1102401999999MW1631REMMET067SPECI EDMA 031256Z 27012KT 4500 RA OVC008 03/02 Q1024 RMK ATIS SIE=
0164108520999992015010313204+48425+010932FM-15+046299999V0202701N005710018319N005000199+00201+00201999999ADDGA1081+001831999GE19MSL   +99999+99999GF199999081999001831999999MA1102301999999MW1631REMMET067METAR EDMA 031320Z 27011KT 5000 RA OVC006 02/02 Q1023 RMK ATIS TAN=
0166108520999992015010313504+48425+010932FM-15+046299999V0202401N002110018319N002000199+00101+00101999999ADDGA1081+001831999GE19MSL   +99999+99999GF199999081999001831999999MA1102201999999MW1691REMMET069METAR EDMA 031350Z 24004KT 2000 RASN OVC006 01/01 Q1022 RMK ATIS UNI=
0204108520999992015010314204+48425+010932FM-15+046299999V0201601N002110045719N002500199+00001+00001999999ADDGA1041+001521999GA2081+004571999GE19MSL   +99999+99999GF199999041999001521999999MA1102001999999MW1691REMMET091METAR EDMA 031420Z 16004KT 2500 R25/1700N RASN SCT005 OVC015 00/00      Q1020 RMK ATIS VIC=
0164108520999992015010314504+48425+010932FM-15+046299999V0201501N002610024419N001800199+00001+00001999999ADDGA1081+002441999GE19MSL   +99999+99999GF199999081999002441999999MA1101901999999MW1731REMMET067METAR EDMA 031450Z 15005KT 1800 SN OVC008 00/00 Q1019 RMK ATIS WHI=
0177108520999992015010315204+48425+010932FM-15+046299999V0201001V001510012219N004000199+00101+00101999999ADDGA1081+001221999GE19MSL   +99999+99999GF199999081999001221999999MA1101801999999MW1631REMMET080METAR EDMA 031520Z 10003KT 070V140 4000 RA OVC004 01/01 Q1018 RMK ATIS      X-R=
0200108520999992015010315504+48425+010932FM-15+046299999V0200401V002610015219N005000199+00001+00001999999ADDGA1071+001521999GA2081+003351999GE19MSL   +99999+99999GF199999071999001521999999MA1101801999999MW1631REMMET087METAR EDMA 031550Z 04005KT 010V090 5000 RA BKN005 OVC011 00/00 Q1018      RMK ATIS YAN=
0206108520999992015010316204+48425+010932FM-15+046299999V0200801V001510021319N008000199+00101+00101999999ADDGA1071+002131999GA2081+003051999GE19MSL   +99999+99999GF199999071999002131999999MA1101801999999MW1611REMMET093METAR EDMA 031620Z 08003KT 040V130 8000 -RA BKN007 OVC010 01/01 Q1018      RERA RMK ATIS ZUL=
0165108520999992015010316504+48425+010932FM-15+046299999V0201301N001510024419N008000199+00001+00001999999ADDGA1081+002441999GE19MSL   +99999+99999GF199999081999002441999999MA1101701999999MW1611REMMET068METAR EDMA 031650Z 13003KT 8000 -RA OVC008 00/00 Q1017 RMK ATIS ALF=
0165108520999992015010317204+48425+010932FM-15+046299999V0201301N001010021319N006000199+00101+00101999999ADDGA1081+002131999GE19MSL   +99999+99999GF199999081999002131999999MA1101701999999MW1611REMMET068METAR EDMA 031720Z 13002KT 6000 -RA OVC007 01/01 Q1017 RMK ATIS BRA=
0166108520999992015010317504+48425+010932FM-15+046299999V0201401N002110021319N004000199+00101+00101999999ADDGA1081+002131999GE19MSL   +99999+99999GF199999081999002131999999MA1101601999999MW1691REMMET069METAR EDMA 031750Z 14004KT 4000 RASN OVC007 01/01 Q1016 RMK ATIS CHA=
0185108520999992015010318204+48425+010932FM-15+046299999V0201701N002610018319N004000199+00201+00201999999ADDGA1081+001831999GE19MSL   +99999+99999GF199999081999001831999999MA1101501999999MW1101MW2631REMMET082METAR EDMA 031820Z 17005KT 4000 RA BR OVC006 02/02 Q1015 RERASN RMK      ATIS DEL=
0184108520999992015010318504+48425+010932FM-15+046299999V0202101N002110018319N004500199+00301+00301999999ADDGA1081+001831999GE19MSL   +99999+99999GF199999081999001831999999MA1101401999999MW1101MW2611REMMET081METAR EDMA 031850Z 21004KT 4500 -RA BR OVC006 03/03 Q1014 RERA RMK      ATIS ECH=
0165108520999992015010319204+48425+010932FM-15+046299999V0202501N003610024419N005000199+00401+00401999999ADDGA1081+002441999GE19MSL   +99999+99999GF199999081999002441999999MA1101301999999MW1611REMMET068METAR EDMA 031920Z 25007KT 5000 -RA OVC008 04/04 Q1013 RMK ATIS FOX=
0203108520999992015010319504+48425+010932FM-15+046299999V0202501N011310030519N005000199+00501+00501999999ADDGA1071+003051999GA2081+004571999GE19MSL   +99999+99999GF199999071999003051999999MA1101301999999MW1631REMMET090METAR EDMA 031950Z 25022KT 5000 R25/P2000N RA BKN010 OVC015 05/05 Q1013      RMK ATIS GOL=
0156108520999992015010407504+48425+010932FM-15+046299999V0202701N003619999999N009999199+00101+00001999999ADDGA1041+011581999GE19MSL   +99999+99999GF199999041999011581999999MA1102901999999REMMET065METAR EDMA 040750Z 27007KT 9999 SCT038 01/M00 Q1029 RMK ATIS FOX=
0155108520999992015010408204+48425+010932FM-15+046299999V0202701N004110112819N009999199+00101+00001999999ADDGA1071+011281999GE19MSL   +99999+99999GF199999071999011281999999MA1102901999999REMMET064METAR EDMA 040820Z 27008KT 9999 BKN037 01/00 Q1029 RMK ATIS GOL=
0156108520999992015010408504+48425+010932FM-15+046299999V0202701N004610118919N009999199+00101-00101999999ADDGA1071+011891999GE19MSL   +99999+99999GF199999071999011891999999MA1102901999999REMMET065METAR EDMA 040850Z 27009KT 9999 BKN039 01/M01 Q1029 RMK ATIS HOT=
0156108520999992015010409204+48425+010932FM-15+046299999V0202701N005710109719N009999199+00101-00201999999ADDGA1071+010971999GE19MSL   +99999+99999GF199999071999010971999999MA1103001999999REMMET065METAR EDMA 040920Z 27011KT 9999 BKN036 01/M02 Q1030 RMK ATIS IND=
0156108520999992015010409504+48425+010932FM-15+046299999V0202701N005710131119N009999199+00101-00201999999ADDGA1071+013111999GE19MSL   +99999+99999GF199999071999013111999999MA1103101999999REMMET065METAR EDMA 040950Z 27011KT 9999 BKN043 01/M02 Q1031 RMK ATIS JUL=
0156108520999992015010410204+48425+010932FM-15+046299999V0202701N006219999999N009999199+00101-00201999999ADDGA1041+013721999GE19MSL   +99999+99999GF199999041999013721999999MA1103001999999REMMET065METAR EDMA 041020Z 27012KT 9999 SCT045 01/M02 Q1030 RMK ATIS KIL=
0156108520999992015010410504+48425+010932FM-15+046299999V0202601N005119999999N009999199+00101-00201999999ADDGA1041+013721999GE19MSL   +99999+99999GF199999041999013721999999MA1103101999999REMMET065METAR EDMA 041050Z 26010KT 9999 SCT045 01/M02 Q1031 RMK ATIS LIM=
0156108520999992015010411204+48425+010932FM-15+046299999V0202601N006210134119N009999199+00201-00301999999ADDGA1071+013411999GE19MSL   +99999+99999GF199999071999013411999999MA1103101999999REMMET065METAR EDMA 041120Z 26012KT 9999 BKN044 02/M03 Q1031 RMK ATIS MIK=
0156108520999992015010411504+48425+010932FM-15+046299999V0202701N006210134119N009999199+00201-00301999999ADDGA1071+013411999GE19MSL   +99999+99999GF199999071999013411999999MA1103001999999REMMET065METAR EDMA 041150Z 27012KT 9999 BKN044 02/M03 Q1030 RMK ATIS NOV=
0156108520999992015010412204+48425+010932FM-15+046299999V0202601N005710137219N009999199+00201-00201999999ADDGA1071+013721999GE19MSL   +99999+99999GF199999071999013721999999MA1103101999999REMMET065METAR EDMA 041220Z 26011KT 9999 BKN045 02/M02 Q1031 RMK ATIS OSC=
0156108520999992015010412504+48425+010932FM-15+046299999V0202701N005710140219N009999199+00201-00201999999ADDGA1071+014021999GE19MSL   +99999+99999GF199999071999014021999999MA1103101999999REMMET065METAR EDMA 041250Z 27011KT 9999 BKN046 02/M02 Q1031 RMK ATIS PAP=
0086108520999992015010413204+48425+010932FM-15+046299999V0202701N006219999999Y999999999+00201-00201999999ADDMA1103101999999REMMET059METAR EDMA 041320Z 27012KT CAVOK 02/M02 Q1031 RMK ATIS QUE=
0156108520999992015010413504+48425+010932FM-15+046299999V0202701N007210140219N009999199+00201-00201999999ADDGA1071+014021999GE19MSL   +99999+99999GF199999071999014021999999MA1103101999999REMMET065METAR EDMA 041350Z 27014KT 9999 BKN046 02/M02 Q1031 RMK ATIS ROM=
0156108520999992015010414204+48425+010932FM-15+046299999V0202701N006210140219N009999199+00201-00101999999ADDGA1071+014021999GE19MSL   +99999+99999GF199999071999014021999999MA1103101999999REMMET065METAR EDMA 041420Z 27012KT 9999 BKN046 02/M01 Q1031 RMK ATIS SIE=
0184108520999992015010414504+48425+010932FM-15+046299999V0202601N005110140219N009999199+00201-00101999999ADDGA1021+012501999GA2071+014021999GE19MSL   +99999+99999GF199999021999012501999999MA1103201999999REMMET077METAR EDMA 041450Z 26010KT 9999 FEW041 BKN046 02/M01 Q1032 RMK ATIS      TAN=
0086108520999992015010415204+48425+010932FM-15+046299999V0202701N005119999999Y999999999+00201-00201999999ADDMA1103201999999REMMET059METAR EDMA 041520Z 27010KT CAVOK 02/M02 Q1032 RMK ATIS UNI=
0086108520999992015010415504+48425+010932FM-15+046299999V0202701N005119999999Y999999999+00201-00201999999ADDMA1103201999999REMMET059METAR EDMA 041550Z 27010KT CAVOK 02/M02 Q1032 RMK ATIS VIC=
0073108520999992015010416204+48425+010932FM-15+046299999V0202801N004619999999Y999999999+00201-00201999999ADDMA1103201999999REMMET046METAR EDMA 041620Z 28009KT CAVOK 02/M02 Q1032=
0184108520999992015010416504+48425+010932FM-15+046299999V0202701N004110152419N009999199+00101-00201999999ADDGA1021+007011999GA2071+015241999GE19MSL   +99999+99999GF199999021999007011999999MA1103301999999REMMET077METAR EDMA 041650Z 27008KT 9999 FEW023 BKN050 01/M02 Q1033 RMK ATIS      X-R=
0086108520999992015010417204+48425+010932FM-15+046299999V0202701N005719999999Y999999999+00201-00201999999ADDMA1103301999999REMMET059METAR EDMA 041720Z 27011KT CAVOK 02/M02 Q1033 RMK ATIS YAN=
0184108520999992015010417504+48425+010932FM-15+046299999V0202801N005110137219N009999199+00101-00201999999ADDGA1021+007321999GA2071+013721999GE19MSL   +99999+99999GF199999021999007321999999MA1103301999999REMMET077METAR EDMA 041750Z 28010KT 9999 FEW024 BKN045 01/M02 Q1033 RMK ATIS      ZUL=
0184108520999992015010418204+48425+010932FM-15+046299999V0202701N005110158519N009999199+00201-00201999999ADDGA1021+006401999GA2071+015851999GE19MSL   +99999+99999GF199999021999006401999999MA1103301999999REMMET077METAR EDMA 041820Z 27010KT 9999 FEW021 BKN052 02/M02 Q1033 RMK ATIS      ALF=
0207108520999992015010418504+48425+010932FM-15+046299999V0202601N00511013721CN009999199+00201-00201999999ADDGA1021+006401999GA2041+013721999GA3071+015541999GE19MSL   +99999+99999GF199999021999006401999999MA1103301999999REMMET084METAR EDMA 041850Z 26010KT 9999 FEW021 SCT045 BKN051 02/M02 Q1033 RMK      ATIS BRA=
0184108520999992015010419204+48425+010932FM-15+046299999V0202701N005110155419N009999199+00101-00201999999ADDGA1021+006401999GA2071+015541999GE19MSL   +99999+99999GF199999021999006401999999MA1103301999999REMMET077METAR EDMA 041920Z 27010KT 9999 FEW021 BKN051 01/M02 Q1033 RMK ATIS      CHA=
0166108520999992015010419504+48425+010932FM-15+046299999V0202701N005710173719N009999199+00101-00101999999ADDGA1021+006101999GA2071+017371999GE19MSL   +99999+99999GF199999021999006101999999MA1103401999999REMMET059METAR EDMA 041950Z 27011KT 9999 FEW020 BKN057 01/M01 Q1034=
0157108520999992015010505504+48425+010932FM-15+046299999V0202501N003110140219N009000199+00001-00101999999ADDGA1071+014021999GE19MSL   +99999+99999GF199999071999014021999999MA1103401999999REMMET066METAR EDMA 050550Z 25006KT 9000 BKN046 M00/M01 Q1034 RMK ATIS YAN=
0157108520999992015010506204+48425+010932FM-15+046299999V0202401N002610128019N009000199-00101-00201999999ADDGA1071+012801999GE19MSL   +99999+99999GF199999071999012801999999MA1103401999999REMMET066METAR EDMA 050620Z 24005KT 9000 BKN042 M01/M02 Q1034 RMK ATIS ZUL=
0157108520999992015010506504+48425+010932FM-15+046299999V0202301N003110128019N009999199-00101-00101999999ADDGA1071+012801999GE19MSL   +99999+99999GF199999071999012801999999MA1103401999999REMMET066METAR EDMA 050650Z 23006KT 9999 BKN042 M01/M01 Q1034 RMK ATIS ALF=
0087108520999992015010507204+48425+010932FM-15+046299999V0202401N003119999999Y999999999-00101-00201999999ADDMA1103401999999REMMET060METAR EDMA 050720Z 24006KT CAVOK M01/M02 Q1034 RMK ATIS BRA=
0087108520999992015010507504+48425+010932FM-15+046299999V0202501N003119999999Y999999999-00101-00201999999ADDMA1103401999999REMMET060METAR EDMA 050750Z 25006KT CAVOK M01/M02 Q1034 RMK ATIS CHA=
0087108520999992015010508204+48425+010932FM-15+046299999V0202501N003619999999Y999999999-00101-00201999999ADDMA1103301999999REMMET060METAR EDMA 050820Z 25007KT CAVOK M01/M02 Q1033 RMK ATIS DEL=
0087108520999992015010508504+48425+010932FM-15+046299999V0202501N003119999999Y999999999-00101-00201999999ADDMA1103301999999REMMET060METAR EDMA 050850Z 25006KT CAVOK M01/M02 Q1033 RMK ATIS ECH=
0087108520999992015010509204+48425+010932FM-15+046299999V0202401N003119999999Y999999999-00101-00201999999ADDMA1103301999999REMMET060METAR EDMA 050920Z 24006KT CAVOK M01/M02 Q1033 RMK ATIS FOX=
0086108520999992015010509504+48425+010932FM-15+046299999V0202501N002619999999Y999999999+00001-00301999999ADDMA1103301999999REMMET059METAR EDMA 050950Z 25005KT CAVOK 00/M03 Q1033 RMK ATIS GOL=
0094108520999992015010510204+48425+010932FM-15+046299999V0202601V001519999999Y999999999+00101-00401999999ADDMA1103301999999REMMET067METAR EDMA 051020Z 26003KT 220V300 CAVOK 01/M04 Q1033 RMK ATIS HOT=
0086108520999992015010510504+48425+010932FM-15+046299999V0202401N002119999999Y999999999+00201-00401999999ADDMA1103301999999REMMET059METAR EDMA 051050Z 24004KT CAVOK 02/M04 Q1033 RMK ATIS IND=
0086108520999992015010511204+48425+010932FM-15+046299999V0202401N003119999999Y999999999+00301-00401999999ADDMA1103201999999REMMET059METAR EDMA 051120Z 24006KT CAVOK 03/M04 Q1032 RMK ATIS JUL=
0086108520999992015010511504+48425+010932FM-15+046299999V0202501N003119999999Y999999999+00301-00401999999ADDMA1103101999999REMMET059METAR EDMA 051150Z 25006KT CAVOK 03/M04 Q1031 RMK ATIS KIL=
0086108520999992015010512204+48425+010932FM-15+046299999V0202601N004119999999Y999999999+00401-00501999999ADDMA1103101999999REMMET059METAR EDMA 051220Z 26008KT CAVOK 04/M05 Q1031 RMK ATIS LIM=
0086108520999992015010512504+48425+010932FM-15+046299999V0202701N004119999999Y999999999+00401-00501999999ADDMA1103101999999REMMET059METAR EDMA 051250Z 27008KT CAVOK 04/M05 Q1031 RMK ATIS MIK=
0086108520999992015010513204+48425+010932FM-15+046299999V0202501N003619999999Y999999999+00401-00501999999ADDMA1103001999999REMMET059METAR EDMA 051320Z 25007KT CAVOK 04/M05 Q1030 RMK ATIS NOV=
0086108520999992015010513504+48425+010932FM-15+046299999V0202601N005119999999Y999999999+00401-00601999999ADDMA1103001999999REMMET059METAR EDMA 051350Z 26010KT CAVOK 04/M06 Q1030 RMK ATIS OSC=
0086108520999992015010514204+48425+010932FM-15+046299999V0202601N004119999999Y999999999+00401-00501999999ADDMA1103001999999REMMET059METAR EDMA 051420Z 26008KT CAVOK 04/M05 Q1030 RMK ATIS PAP=
0086108520999992015010514504+48425+010932FM-15+046299999V0202701N002119999999Y999999999+00301-00401999999ADDMA1103001999999REMMET059METAR EDMA 051450Z 27004KT CAVOK 03/M04 Q1030 RMK ATIS QUE=
0086108520999992015010515204+48425+010932FM-15+046299999V0202601N002619999999Y999999999+00301-00501999999ADDMA1103001999999REMMET059METAR EDMA 051520Z 26005KT CAVOK 03/M05 Q1030 RMK ATIS ROM=
0086108520999992015010515504+48425+010932FM-15+046299999V0202501N002619999999Y999999999+00201-00501999999ADDMA1103001999999REMMET059METAR EDMA 051550Z 25005KT CAVOK 02/M05 Q1030 RMK ATIS SIE=
0086108520999992015010516204+48425+010932FM-15+046299999V0209999V001019999999Y999999999+00101-00501999999ADDMA1103001999999REMMET059METAR EDMA 051620Z VRB02KT CAVOK 01/M05 Q1030 RMK ATIS TAN=
0086108520999992015010516504+48425+010932FM-15+046299999V0201901N001019999999Y999999999+00001-00401999999ADDMA1103001999999REMMET059METAR EDMA 051650Z 19002KT CAVOK 00/M04 Q1030 RMK ATIS UNI=
0087108520999992015010517204+48425+010932FM-15+046299999V0209999V000519999999Y999999999-00101-00401999999ADDMA1103001999999REMMET060METAR EDMA 051720Z VRB01KT CAVOK M01/M04 Q1030 RMK ATIS VIC=
0087108520999992015010517504+48425+010932FM-15+046299999V0209999V000519999999Y999999999-00101-00401999999ADDMA1103001999999REMMET060METAR EDMA 051750Z VRB01KT CAVOK M01/M04 Q1030 RMK ATIS WHI=
0087108520999992015010518204+48425+010932FM-15+046299999V0209999V001019999999Y999999999+00001-00501999999ADDMA1103001999999REMMET060METAR EDMA 051820Z VRB02KT CAVOK M00/M05 Q1030 RMK ATIS X-R=
0086108520999992015010518504+48425+010932FM-15+046299999V0209999V000519999999Y999999999+00001-00501999999ADDMA1103001999999REMMET059METAR EDMA 051850Z VRB01KT CAVOK 00/M05 Q1030 RMK ATIS YAN=
0095108520999992015010519204+48425+010932FM-15+046299999V0201601V001519999999Y999999999-00201-00401999999ADDMA1103001999999REMMET068METAR EDMA 051920Z 16003KT 110V200 CAVOK M02/M04 Q1030 RMK ATIS ZUL=
0095108520999992015010519504+48425+010932FM-15+046299999V0201901V001519999999Y999999999-00201-00501999999ADDMA1102901999999REMMET068METAR EDMA 051950Z 19003KT 150V220 CAVOK M02/M05 Q1029 RMK ATIS ALF=
0087108520999992015010607504+48425+010932FM-15+046299999V0201601N001019999999Y999999999-00401-00401999999ADDMA1102501999999REMMET060METAR EDMA 060750Z 16002KT CAVOK M04/M04 Q1025 RMK ATIS YAN=
0091108520999992015010608204+48425+010932FM-15+046299999V0209999V001019999999Y999999999-00301-00401999999ADDMA1102501999999REMMET064METAR COR EDMA 060820Z VRB02KT CAVOK M03/M04 Q1025 RMK ATIS ALF=
0087108520999992015010608504+48425+010932FM-15+046299999V0201701N001019999999Y999999999-00201-00401999999ADDMA1102501999999REMMET060METAR EDMA 060850Z 17002KT CAVOK M02/M04 Q1025 RMK ATIS BRA=
0095108520999992015010609204+48425+010932FM-15+046299999V0200901V001519999999Y999999999-00101-00301999999ADDMA1102501999999REMMET068METAR EDMA 060920Z 09003KT 040V120 CAVOK M01/M03 Q1025 RMK ATIS CHA=
0108108520999992015010609504+48425+010932FM-15+046299999V0201201V001519999999N001400199+00101-00401999999ADDMA1102501999999REMMET081METAR EDMA 060950Z 12003KT 080V150 1400 R25/1400N 01/M04 Q1025 RMK      ATIS ECH=
0086108520999992015010610204+48425+010932FM-15+046299999V0209999V001019999999Y999999999+00201-00401999999ADDMA1102501999999REMMET059METAR EDMA 061020Z VRB02KT CAVOK 02/M04 Q1025 RMK ATIS GOL=
0086108520999992015010610504+48425+010932FM-15+046299999V0209999V000519999999Y999999999+00401-00401999999ADDMA1102501999999REMMET059METAR EDMA 061050Z VRB01KT CAVOK 04/M04 Q1025 RMK ATIS HOT=
0086108520999992015010611204+48425+010932FM-15+046299999V0209999V000519999999Y999999999+00401-00401999999ADDMA1102401999999REMMET059METAR EDMA 061120Z VRB01KT CAVOK 04/M04 Q1024 RMK ATIS IND=
0086108520999992015010611504+48425+010932FM-15+046299999V0202301N001519999999Y999999999+00401-00401999999ADDMA1102401999999REMMET059METAR EDMA 061150Z 23003KT CAVOK 04/M04 Q1024 RMK ATIS JUL=
0086108520999992015010612204+48425+010932FM-15+046299999V0202001N002119999999Y999999999+00401-00301999999ADDMA1102401999999REMMET059METAR EDMA 061220Z 20004KT CAVOK 04/M03 Q1024 RMK ATIS KIL=
0094108520999992015010612504+48425+010932FM-15+046299999V0201601V001519999999Y999999999+00401-00401999999ADDMA1102301999999REMMET067METAR EDMA 061250Z 16003KT 120V200 CAVOK 04/M04 Q1023 RMK ATIS LIM=
0086108520999992015010613204+48425+010932FM-15+046299999V0201501N001519999999Y999999999+00501-00301999999ADDMA1102301999999REMMET059METAR EDMA 061320Z 15003KT CAVOK 05/M03 Q1023 RMK ATIS MIK=
0094108520999992015010613504+48425+010932FM-15+046299999V0201001V001519999999Y999999999+00401-00201999999ADDMA1102301999999REMMET067METAR EDMA 061350Z 10003KT 040V140 CAVOK 04/M02 Q1023 RMK ATIS NOV=
0086108520999992015010614204+48425+010932FM-15+046299999V0200501N001019999999Y999999999+00401-00301999999ADDMA1102301999999REMMET059METAR EDMA 061420Z 05002KT CAVOK 04/M03 Q1023 RMK ATIS OSC=
0086108520999992015010614504+48425+010932FM-15+046299999V0201201N001019999999Y999999999+00301-00201999999ADDMA1102301999999REMMET059METAR EDMA 061450Z 12002KT CAVOK 03/M02 Q1023 RMK ATIS PAP=
0086108520999992015010615204+48425+010932FM-15+046299999V0201201N002119999999Y999999999+00101-00201999999ADDMA1102301999999REMMET059METAR EDMA 061520Z 12004KT CAVOK 01/M02 Q1023 RMK ATIS QUE=
0086108520999992015010615504+48425+010932FM-15+046299999V0201001N001519999999Y999999999+00001-00201999999ADDMA1102301999999REMMET059METAR EDMA 061550Z 10003KT CAVOK 00/M02 Q1023 RMK ATIS ROM=
0087108520999992015010616204+48425+010932FM-15+046299999V0209999V000519999999Y999999999-00101-00201999999ADDMA1102301999999REMMET060METAR EDMA 061620Z VRB01KT CAVOK M01/M02 Q1023 RMK ATIS SIE=
0087108520999992015010616504+48425+010932FM-15+046299999V0200801N001019999999Y999999999-00101-00201999999ADDMA1102301999999REMMET060METAR EDMA 061650Z 08002KT CAVOK M01/M02 Q1023 RMK ATIS TAN=
0087108520999992015010617204+48425+010932FM-15+046299999V0200901N001519999999Y999999999-00201-00201999999ADDMA1102301999999REMMET060METAR EDMA 061720Z 09003KT CAVOK M02/M02 Q1023 RMK ATIS UNI=
0087108520999992015010617504+48425+010932FM-15+046299999V0209999V000519999999Y999999999-00101-00201999999ADDMA1102401999999REMMET060METAR EDMA 061750Z VRB01KT CAVOK M01/M02 Q1024 RMK ATIS VIC=
0087108520999992015010618204+48425+010932FM-15+046299999V0209999V001019999999Y999999999-00201-00201999999ADDMA1102401999999REMMET060METAR EDMA 061820Z VRB02KT CAVOK M02/M02 Q1024 RMK ATIS WHI=
0087108520999992015010618504+48425+010932FM-15+046299999V0201201N001519999999Y999999999-00201-00201999999ADDMA1102401999999REMMET060METAR EDMA 061850Z 12003KT CAVOK M02/M02 Q1024 RMK ATIS X-R=
0087108520999992015010619204+48425+010932FM-15+046299999V0203001N001519999999Y999999999-00201-00201999999ADDMA1102401999999REMMET060METAR EDMA 061920Z 30003KT CAVOK M02/M02 Q1024 RMK ATIS YAN=
0087108520999992015010619504+48425+010932FM-15+046299999V0209999V000519999999Y999999999-00201-00201999999ADDMA1102401999999REMMET060METAR EDMA 061950Z VRB01KT CAVOK M02/M02 Q1024 RMK ATIS ZUL=
0160108520999992015010705504+48425+010932FM-15+046299999V0209999V001010054919N009999199+00001+00001999999ADDGA1081+005491999GE19MSL   +99999+99999GF199999081999005491999999MA1102701999999REMMET069METAR COR EDMA 070550Z VRB02KT 9999 OVC018 00/M00 Q1027 RMK ATIS UNI=
0184108520999992015010706204+48425+010932FM-15+046299999V0202101N002110054919N009999199+00101+00001999999ADDGA1021+004571999GA2081+005491999GE19MSL   +99999+99999GF199999021999004571999999MA1102701999999REMMET077METAR EDMA 070620Z 21004KT 9999 FEW015 OVC018 01/M00 Q1027 RMK ATIS      VIC=
0160108520999992015010706504+48425+010932FM-15+046299999V0202401N002110057919N009999199+00201+00001999999ADDGA1071+005791999GE19MSL   +99999+99999GF199999071999005791999999MA1102801999999REMMET069METAR COR EDMA 070650Z 24004KT 9999 BKN019 02/M00 Q1028 RMK ATIS X-R=
0184108520999992015010707204+48425+010932FM-15+046299999V0202401N003110051819N009999199+00201+00001999999ADDGA1071+005181999GA2071+008231999GE19MSL   +99999+99999GF199999071999005181999999MA1102801999999REMMET077METAR EDMA 070720Z 24006KT 9999 BKN017 BKN027 02/M00 Q1028 RMK ATIS      BRA=
0166108520999992015010707504+48425+010932FM-15+046299999V0202601N002610061019N009999199+00201+00001999999ADDGA1071+006101999GE19MSL   +99999+99999GF199999071999006101999999MA1102801999999MW1611REMMET069METAR EDMA 070750Z 26005KT 9999 -RA BKN020 02/M00 Q1028 RMK ATIS CHA=
0178108520999992015010708204+48425+010932FM-15+046299999V0202601V002110051819N009999199+00201+00101999999ADDGA1081+005181999GE19MSL   +99999+99999GF199999081999005181999999MA1102901999999MW1611REMMET081METAR EDMA 070820Z 26004KT 230V290 9999 -RA OVC017 02/01 Q1029 RMK      ATIS DEL=
0167108520999992015010708504+48425+010932FM-15+046299999V0202601N002610039619N008000199+00201+00101999999ADDGA1081+003961999GE19MSL   +99999+99999GF199999081999003961999999MA1102901999999MW1681REMMET070METAR EDMA 070850Z 26005KT 8000 -SNRA OVC013 02/01 Q1029 RMK ATIS ECH=
0183108520999992015010709204+48425+010932FM-15+046299999V0202601N003110033519N008000199+00101+00101999999ADDGA1021+002131999GA2071+003351999GE19MSL   +99999+99999GF199999021999002131999999MA1102901999999REMMET076METAR EDMA 070920Z 26006KT 8000 FEW007 BKN011 01/01 Q1029 RMK ATIS      FOX=
0155108520999992015010709504+48425+010932FM-15+046299999V0202801N003110033519N009000199+00201+00201999999ADDGA1081+003351999GE19MSL   +99999+99999GF199999081999003351999999MA1102901999999REMMET064METAR EDMA 070950Z 28006KT 9000 OVC011 02/02 Q1029 RMK ATIS GOL=
0155108520999992015010710204+48425+010932FM-15+046299999V0202701N003610030519N009999199+00201+00201999999ADDGA1081+003051999GE19MSL   +99999+99999GF199999081999003051999999MA1102901999999REMMET064METAR EDMA 071020Z 27007KT 9999 OVC010 02/02 Q1029 RMK ATIS HOT=
0155108520999992015010710504+48425+010932FM-15+046299999V0202801N003110024419N009999199+00201+00201999999ADDGA1081+002441999GE19MSL   +99999+99999GF199999081999002441999999MA1102901999999REMMET064METAR EDMA 071050Z 28006KT 9999 OVC008 02/02 Q1029 RMK ATIS IND=
0155108520999992015010711204+48425+010932FM-15+046299999V0202501N002610030519N009999199+00201+00201999999ADDGA1081+003051999GE19MSL   +99999+99999GF199999081999003051999999MA1102901999999REMMET064METAR EDMA 071120Z 25005KT 9999 OVC010 02/02 Q1029 RMK ATIS JUL=
0183108520999992015010711504+48425+010932FM-15+046299999V0202501N003610030519N009999199+00201+00201999999ADDGA1021+001831999GA2081+003051999GE19MSL   +99999+99999GF199999021999001831999999MA1102901999999REMMET076METAR EDMA 071150Z 25007KT 9999 FEW006 OVC010 02/02 Q1029 RMK ATIS      KIL=
0206108520999992015010712204+48425+010932FM-15+046299999V0202601N003610027419N009999199+00201+00201999999ADDGA1021+001831999GA2071+002741999GA3081+009141999GE19MSL   +99999+99999GF199999021999001831999999MA1102901999999REMMET083METAR EDMA 071220Z 26007KT 9999 FEW006 BKN009 OVC030 02/02 Q1029 RMK      ATIS LIM=
0183108520999992015010712504+48425+010932FM-15+046299999V0202701N003110100619N009999199+00201+00201999999ADDGA1041+004571999GA2071+010061999GE19MSL   +99999+99999GF199999041999004571999999MA1102901999999REMMET076METAR EDMA 071250Z 27006KT 9999 SCT015 BKN033 02/02 Q1029 RMK ATIS      MIK=
0191108520999992015010713204+48425+010932FM-15+046299999V0203001V00261009451CN009999199+00301+00201999999ADDGA1021+004571999GA2041+009451999GE19MSL   +99999+99999GF199999021999004571999999MA1102901999999REMMET084METAR EDMA 071320Z 30005KT 270V330 9999 FEW015 SCT031 03/02 Q1029 RMK      ATIS NOV=
0183108520999992015010713504+48425+010932FM-15+046299999V0202901N00311009751CN009999199+00301+00001999999ADDGA1021+004571999GA2041+009751999GE19MSL   +99999+99999GF199999021999004571999999MA1102901999999REMMET076METAR EDMA 071350Z 29006KT 9999 FEW015 SCT032 03/00 Q1029 RMK ATIS      OSC=
0166108520999992015010714204+48425+010932FM-15+046299999V0203201N00261009451CN009999199+00301-00101999999ADDGA1021+004571999GA2041+009451999GE19MSL   +99999+99999GF199999021999004571999999MA1102901999999REMMET059METAR EDMA 071420Z 32005KT 9999 FEW015 SCT031 03/M01 Q1029=
0184108520999992015010714504+48425+010932FM-15+046299999V0203301N00261011281CN009999199+00201-00101999999ADDGA1021+005491999GA2041+011281999GE19MSL   +99999+99999GF199999021999005491999999MA1103001999999REMMET077METAR EDMA 071450Z 33005KT 9999 FEW018 SCT037 02/M01 Q1030 RMK ATIS      QUE=
0191108520999992015010715204+48425+010932FM-15+046299999V0200301V00211010061CN009999199+00101+00001999999ADDGA1021+004571999GA2041+010061999GE19MSL   +99999+99999GF199999021999004571999999MA1103001999999REMMET084METAR EDMA 071520Z 03004KT 350V060 9999 FEW015 SCT033 01/00 Q1030 RMK      ATIS ROM=
0155108520999992015010715504+48425+010932FM-15+046299999V0200701N001519999999N009999199+00001+00001999999ADDGA1041+010671999GE19MSL   +99999+99999GF199999041999010671999999MA1103001999999REMMET064METAR EDMA 071550Z 07003KT 9999 SCT035 00/00 Q1030 RMK ATIS SIE=
0157108520999992015010716204+48425+010932FM-15+046299999V0209999V000519999999N009999199+00001+00001999999ADDGA1041+009451999GE19MSL   +99999+99999GF199999041999009451999999MA1103001999999REMMET066METAR EDMA 071620Z VRB01KT 9999 SCT031 M00/M00 Q1030 RMK ATIS TAN=
0157108520999992015010716504+48425+010932FM-15+046299999V0209999V001019999999N009999199-00101-00101999999ADDGA1041+010361999GE19MSL   +99999+99999GF199999041999010361999999MA1103001999999REMMET066METAR EDMA 071650Z VRB02KT 9999 SCT034 M01/M01 Q1030 RMK ATIS UNI=
0157108520999992015010717204+48425+010932FM-15+046299999V0201901N002119999999N009999199-00101-00101999999ADDGA1041+010061999GE19MSL   +99999+99999GF199999041999010061999999MA1103001999999REMMET066METAR EDMA 071720Z 19004KT 9999 SCT033 M01/M01 Q1030 RMK ATIS VIC=
0173108520999992015010717504+48425+010932FM-15+046299999V0209999V000519999999N009999199-00101-00101999999ADDGA1041+010061999GE19MSL   +99999+99999GF199999041999010061999999MA1103101999999REMMET082METAR EDMA 071750Z VRB01KT 9999 R25/P2000N SCT033 M01/M01 Q1031 RMK      ATIS WHI=
0173108520999992015010718204+48425+010932FM-15+046299999V0201001N002119999999N009999199-00201-00201999999ADDGA1021+010061999GE19MSL   +99999+99999GF199999021999010061999999MA1103001999999REMMET082METAR EDMA 071820Z 10004KT 9999 R25/P2000N FEW033 M02/M02 Q1030 RMK      ATIS X-R=
0173108520999992015010718504+48425+010932FM-15+046299999V0201301N001519999999N009999199-00101-00101999999ADDGA1021+010061999GE19MSL   +99999+99999GF199999021999010061999999MA1103001999999REMMET082METAR EDMA 071850Z 13003KT 9999 R25/P2000N FEW033 M01/M01 Q1030 RMK      ATIS YAN=
0173108520999992015010719204+48425+010932FM-15+046299999V0201301N002119999999N009999199-00201-00201999999ADDGA1021+009451999GE19MSL   +99999+99999GF199999021999009451999999MA1103001999999REMMET082METAR EDMA 071920Z 13004KT 9999 R25/P2000N FEW031 M02/M02 Q1030 RMK      ATIS ZUL=
0157108520999992015010719504+48425+010932FM-15+046299999V0200701N001019999999N009999199-00201-00201999999ADDGA1021+009141999GE19MSL   +99999+99999GF199999021999009141999999MA1103001999999REMMET066METAR EDMA 071950Z 07002KT 9999 FEW030 M02/M02 Q1030 RMK ATIS ALF=
0155108520999992015010805504+48425+010932FM-15+046299999V0202301N003610103619N009999199+00301+00101999999ADDGA1071+010361999GE19MSL   +99999+99999GF199999071999010361999999MA1102901999999REMMET064METAR EDMA 080550Z 23007KT 9999 BKN034 03/01 Q1029 RMK ATIS UNI=
0183108520999992015010806204+48425+010932FM-15+046299999V0202201N003110243819N009999199+00201+00101999999ADDGA1041+011281999GA2071+024381999GE19MSL   +99999+99999GF199999041999011281999999MA1102901999999REMMET076METAR EDMA 080620Z 22006KT 9999 SCT037 BKN080 02/01 Q1029 RMK ATIS      VIC=
0085108520999992015010806504+48425+010932FM-15+046299999V0202201N003119999999Y999999999+00301+00001999999ADDMA1102901999999REMMET058METAR EDMA 080650Z 22006KT CAVOK 03/00 Q1029 RMK ATIS WHI=
0085108520999992015010807204+48425+010932FM-15+046299999V0202301N002619999999Y999999999+00301+00001999999ADDMA1102901999999REMMET058METAR EDMA 080720Z 23005KT CAVOK 03/00 Q1029 RMK ATIS X-R=
0085108520999992015010807504+48425+010932FM-15+046299999V0202501N002119999999Y999999999+00301+00001999999ADDMA1102901999999REMMET058METAR EDMA 080750Z 25004KT CAVOK 03/00 Q1029 RMK ATIS YAN=
0183108520999992015010808204+48425+010932FM-15+046299999V0202401N003110207319N009999199+00301+00001999999ADDGA1021+010671999GA2071+020731999GE19MSL   +99999+99999GF199999021999010671999999MA1102901999999REMMET076METAR EDMA 080820Z 24006KT 9999 FEW035 BKN068 03/00 Q1029 RMK ATIS      ZUL=
0085108520999992015010808504+48425+010932FM-15+046299999V0202501N002619999999Y999999999+00401+00001999999ADDMA1102901999999REMMET058METAR EDMA 080850Z 25005KT CAVOK 04/00 Q1029 RMK ATIS ALF=
0085108520999992015010809204+48425+010932FM-15+046299999V0202401N003119999999Y999999999+00401+00001999999ADDMA1102901999999REMMET058METAR EDMA 080920Z 24006KT CAVOK 04/00 Q1029 RMK ATIS BRA=
0085108520999992015010809504+48425+010932FM-15+046299999V0202301N003119999999Y999999999+00501+00101999999ADDMA1102901999999REMMET058METAR EDMA 080950Z 23006KT CAVOK 05/01 Q1029 RMK ATIS CHA=
0085108520999992015010810204+48425+010932FM-15+046299999V0202401N004119999999Y999999999+00501+00101999999ADDMA1102901999999REMMET058METAR EDMA 081020Z 24008KT CAVOK 05/01 Q1029 RMK ATIS DEL=
0183108520999992015010810504+48425+010932FM-15+046299999V0202301N004610167619N009999199+00601+00101999999ADDGA1021+011891999GA2071+016761999GE19MSL   +99999+99999GF199999021999011891999999MA1102801999999REMMET076METAR EDMA 081050Z 23009KT 9999 FEW039 BKN055 06/01 Q1028 RMK ATIS      ECH=
0085108520999992015010811204+48425+010932FM-15+046299999V0202501N004619999999Y999999999+00601+00101999999ADDMA1102801999999REMMET058METAR EDMA 081120Z 25009KT CAVOK 06/01 Q1028 RMK ATIS FOX=
0183108520999992015010811504+48425+010932FM-15+046299999V0202501N005110167619N009999199+00701+00201999999ADDGA1021+008841999GA2071+016761999GE19MSL   +99999+99999GF199999021999008841999999MA1102701999999REMMET076METAR EDMA 081150Z 25010KT 9999 FEW029 BKN055 07/02 Q1027 RMK ATIS      GOL=
0085108520999992015010812204+48425+010932FM-15+046299999V0202601N005119999999Y999999999+00701+00101999999ADDMA1102701999999REMMET058METAR EDMA 081220Z 26010KT CAVOK 07/01 Q1027 RMK ATIS HOT=
0183108520999992015010812504+48425+010932FM-15+046299999V0202601N003610182919N009999199+00701+00101999999ADDGA1021+013411999GA2071+018291999GE19MSL   +99999+99999GF199999021999013411999999MA1102701999999REMMET076METAR EDMA 081250Z 26007KT 9999 FEW044 BKN060 07/01 Q1027 RMK ATIS      IND=
0183108520999992015010813204+48425+010932FM-15+046299999V0202401N005110182919N009999199+00701+00201999999ADDGA1021+013721999GA2071+018291999GE19MSL   +99999+99999GF199999021999013721999999MA1102601999999REMMET076METAR EDMA 081320Z 24010KT 9999 FEW045 BKN060 07/02 Q1026 RMK ATIS      JUL=
0183108520999992015010813504+48425+010932FM-15+046299999V0202501N005710207319N009999199+00801+00101999999ADDGA1021+013721999GA2071+020731999GE19MSL   +99999+99999GF199999021999013721999999MA1102601999999REMMET076METAR EDMA 081350Z 25011KT 9999 FEW045 BKN068 08/01 Q1026 RMK ATIS      KIL=
0155108520999992015010814204+48425+010932FM-15+046299999V0202501N005719999999N009999199+00801+00101999999ADDGA1021+014631999GE19MSL   +99999+99999GF199999021999014631999999MA1102601999999REMMET064METAR EDMA 081420Z 25011KT 9999 FEW048 08/01 Q1026 RMK ATIS LIM=
0155108520999992015010814504+48425+010932FM-15+046299999V0202401N005719999999N009999199+00701+00101999999ADDGA1021+010671999GE19MSL   +99999+99999GF199999021999010671999999MA1102601999999REMMET064METAR EDMA 081450Z 24011KT 9999 FEW035 07/01 Q1026 RMK ATIS MIK=
0085108520999992015010815204+48425+010932FM-15+046299999V0202501N006219999999Y999999999+00701+00101999999ADDMA1102601999999REMMET058METAR EDMA 081520Z 25012KT CAVOK 07/01 Q1026 RMK ATIS NOV=
0085108520999992015010815504+48425+010932FM-15+046299999V0202401N005719999999Y999999999+00701+00101999999ADDMA1102601999999REMMET058METAR EDMA 081550Z 24011KT CAVOK 07/01 Q1026 RMK ATIS OSC=
0085108520999992015010816204+48425+010932FM-15+046299999V0202401N007219999999Y999999999+00701+00101999999ADDMA1102601999999REMMET058METAR EDMA 081620Z 24014KT CAVOK 07/01 Q1026 RMK ATIS PAP=
0085108520999992015010816504+48425+010932FM-15+046299999V0202301N006719999999Y999999999+00701+00101999999ADDMA1102601999999REMMET058METAR EDMA 081650Z 23013KT CAVOK 07/01 Q1026 RMK ATIS QUE=
0085108520999992015010817204+48425+010932FM-15+046299999V0202401N008219999999Y999999999+00801+00101999999ADDMA1102501999999REMMET058METAR EDMA 081720Z 24016KT CAVOK 08/01 Q1025 RMK ATIS ROM=
0085108520999992015010817504+48425+010932FM-15+046299999V0202401N008819999999Y999999999+00801+00101999999ADDMA1102501999999REMMET058METAR EDMA 081750Z 24017KT CAVOK 08/01 Q1025 RMK ATIS SIE=
0155108520999992015010818204+48425+010932FM-15+046299999V0202401N008219999999N009999199+00801+00101999999ADDGA1021+011891999GE19MSL   +99999+99999GF199999021999011891999999MA1102501999999REMMET064METAR EDMA 081820Z 24016KT 9999 FEW039 08/01 Q1025 RMK ATIS TAN=
0181108520999992015010818504+48425+010932FM-15+046299999V0202501N010810118919N009999199+00801+00201999999ADDGA1071+011891999GE19MSL   +99999+99999GF199999071999011891999999MA1102501999999MW1611OC101601REMMET076METAR EDMA 081850Z 25021G31KT 9999 -RA BKN039 08/02 Q1025 RMK ATIS      UNI=
0204108520999992015010819204+48425+010932FM-15+046299999V0202501N009310121919N009999199+00701+00201999999ADDGA1071+012191999GA2081+015851999GE19MSL   +99999+99999GF199999071999012191999999MA1102601999999MW1611OC101441REMMET083METAR EDMA 081920Z 25018G28KT 9999 -RA BKN040 OVC052 07/02 Q1026 RMK      ATIS VIC=
0204108520999992015010819504+48425+010932FM-15+046299999V0202401N011810112819N009999199+00801+00201999999ADDGA1071+011281999GA2081+014331999GE19MSL   +99999+99999GF199999071999011281999999MA1102601999999MW1611OC101701REMMET083METAR EDMA 081950Z 24023G33KT 9999 -RA BKN037 OVC047 08/02 Q1026 RMK      ATIS WHI=
0085108520999992015010905504+48425+010932FM-15+046299999V0202601N004619999999Y999999999+00501+00301999999ADDMA1103101999999REMMET058METAR EDMA 090550Z 26009KT CAVOK 05/03 Q1031 RMK ATIS QUE=
0085108520999992015010906204+48425+010932FM-15+046299999V0202501N005719999999Y999999999+00501+00301999999ADDMA1103001999999REMMET058METAR EDMA 090620Z 25011KT CAVOK 05/03 Q1030 RMK ATIS ROM=
0085108520999992015010906504+48425+010932FM-15+046299999V0202401N008219999999Y999999999+00601+00301999999ADDMA1102901999999REMMET058METAR EDMA 090650Z 24016KT CAVOK 06/03 Q1029 RMK ATIS SIE=
0085108520999992015010907204+48425+010932FM-15+046299999V0202601N007219999999Y999999999+00601+00201999999ADDMA1102901999999REMMET058METAR EDMA 090720Z 26014KT CAVOK 06/02 Q1029 RMK ATIS TAN=
0096108520999992015010907504+48425+010932FM-15+046299999V0202501N005719999999Y999999999+00601+00201999999ADDMA1102901999999OC101131REMMET061METAR EDMA 090750Z 25011G22KT CAVOK 06/02 Q1029 RMK ATIS UNI=
0085108520999992015010908204+48425+010932FM-15+046299999V0202301N005719999999Y999999999+00601+00201999999ADDMA1102801999999REMMET058METAR EDMA 090820Z 23011KT CAVOK 06/02 Q1028 RMK ATIS VIC=
0183108520999992015010908504+48425+010932FM-15+046299999V0202401N00771025301CN009999199+00601+00201999999ADDGA1021+012191999GA2041+025301999GE19MSL   +99999+99999GF199999021999012191999999MA1102701999999REMMET076METAR EDMA 090850Z 24015KT 9999 FEW040 SCT083 06/02 Q1027 RMK ATIS      WHI=
0085108520999992015010909204+48425+010932FM-15+046299999V0202601N005719999999Y999999999+00601+00201999999ADDMA1102701999999REMMET058METAR EDMA 090920Z 26011KT CAVOK 06/02 Q1027 RMK ATIS X-R=
0085108520999992015010909504+48425+010932FM-15+046299999V0202401N006719999999Y999999999+00701+00201999999ADDMA1102601999999REMMET058METAR EDMA 090950Z 24013KT CAVOK 07/02 Q1026 RMK ATIS YAN=
0085108520999992015010910204+48425+010932FM-15+046299999V0202501N008819999999Y999999999+00701+00101999999ADDMA1102601999999REMMET058METAR EDMA 091020Z 25017KT CAVOK 07/01 Q1026 RMK ATIS ZUL=
0085108520999992015010910504+48425+010932FM-15+046299999V0202501N009319999999Y999999999+00801+00101999999ADDMA1102501999999REMMET058METAR EDMA 091050Z 25018KT CAVOK 08/01 Q1025 RMK ATIS ALF=
0085108520999992015010911204+48425+010932FM-15+046299999V0202501N008219999999Y999999999+00801+00101999999ADDMA1102401999999REMMET058METAR EDMA 091120Z 25016KT CAVOK 08/01 Q1024 RMK ATIS BRA=
0086108520999992015010911504+48425+010932FM-15+046299999V0202501N010819999999Y999999999+00801+00001999999ADDMA1102301999999REMMET059METAR EDMA 091150Z 25021KT CAVOK 08/M00 Q1023 RMK ATIS CHA=
0097108520999992015010912204+48425+010932FM-15+046299999V0202501N011319999999Y999999999+00801-00101999999ADDMA1102301999999OC101751REMMET062METAR EDMA 091220Z 25022G34KT CAVOK 08/M01 Q1023 RMK ATIS DEL=
0167108520999992015010912504+48425+010932FM-15+046299999V0202501N009819999999N009999199+00801-00101999999ADDGA1041+010971999GE19MSL   +99999+99999GF199999041999010971999999MA1102301999999OC101491REMMET068METAR EDMA 091250Z 25019G29KT 9999 SCT036 08/M01 Q1023 RMK ATIS ECH=
0167108520999992015010913204+48425+010932FM-15+046299999V0202501N010810103619N009999199+00901+00001999999ADDGA1071+010361999GE19MSL   +99999+99999GF199999071999010361999999MA1102201999999OC101651REMMET068METAR EDMA 091320Z 25021G32KT 9999 BKN034 09/M00 Q1022 RMK ATIS FOX=
0166108520999992015010913504+48425+010932FM-15+046299999V0202501N011810097519N009999199+00901+00101999999ADDGA1071+009751999GE19MSL   +99999+99999GF199999071999009751999999MA1102201999999OC101751REMMET067METAR EDMA 091350Z 25023G34KT 9999 BKN032 09/01 Q1022 RMK ATIS ALF=
0166108520999992015010914204+48425+010932FM-15+046299999V0202501N010310097519N009999199+00901+00101999999ADDGA1071+009751999GE19MSL   +99999+99999GF199999071999009751999999MA1102201999999OC101701REMMET067METAR EDMA 091420Z 25020G33KT 9999 BKN032 09/01 Q1022 RMK ATIS BRA=
0166108520999992015010915204+48425+010932FM-15+046299999V0202501N011810076219N009999199+00801+00201999999ADDGA1081+007621999GE19MSL   +99999+99999GF199999081999007621999999MA1102201999999OC101701REMMET067METAR EDMA 091520Z 25023G33KT 9999 OVC025 08/02 Q1022 RMK ATIS ALF=
0181108520999992015010915504+48425+010932FM-15+046299999V0202501N012410061019N009999199+00801+00301999999ADDGA1081+006101999GE19MSL   +99999+99999GF199999081999006101999999MA1102201999999MW1511OC101901REMMET076METAR EDMA 091550Z 25024G37KT 9999 -DZ OVC020 08/03 Q1022 RMK ATIS      BRA=
0181108520999992015010916204+48425+010932FM-15+046299999V0202501N011810048819N009999199+00701+00301999999ADDGA1081+004881999GE19MSL   +99999+99999GF199999081999004881999999MA1102201999999MW1511OC101701REMMET076METAR EDMA 091620Z 25023G33KT 9999 -DZ OVC016 07/03 Q1022 RMK ATIS      CHA=
0166108520999992015010916504+48425+010932FM-15+046299999V0202501N011810085319N009999199+00801+00301999999ADDGA1081+008531999GE19MSL   +99999+99999GF199999081999008531999999MA1102101999999OC101751REMMET067METAR EDMA 091650Z 25023G34KT 9999 OVC028 08/03 Q1021 RMK ATIS DEL=
0166108520999992015010917204+48425+010932FM-15+046299999V0202501N010810048819N009999199+00801+00401999999ADDGA1081+004881999GE19MSL   +99999+99999GF199999081999004881999999MA1102201999999OC101601REMMET067METAR EDMA 091720Z 25021G31KT 9999 OVC016 08/04 Q1022 RMK ATIS ECH=
0181108520999992015010917504+48425+010932FM-15+046299999V0202601N009810042719N009999199+00801+00501999999ADDGA1081+004271999GE19MSL   +99999+99999GF199999081999004271999999MA1102201999999MW1511OC101651REMMET076METAR EDMA 091750Z 26019G32KT 9999 -DZ OVC014 08/05 Q1022 RMK ATIS      FOX=
0193108520999992015010918204+48425+010932FM-15+046299999V0202501N010810042719N009999199+00701+00701999999ADDGA1071+004271999GA2081+010361999GE19MSL   +99999+99999GF199999071999004271999999MA1102201999999MW1511REMMET080METAR EDMA 091820Z 25021KT 9999 -DZ BKN014 OVC034 07/07 Q1022 RMK ATIS      GOL=
0193108520999992015010918504+48425+010932FM-15+046299999V0202501N010310033519N009999199+00701+00701999999ADDGA1071+003351999GA2081+008531999GE19MSL   +99999+99999GF199999071999003351999999MA1102201999999MW1611REMMET080METAR EDMA 091850Z 25020KT 9999 -RA BKN011 OVC028 07/07 Q1022 RMK ATIS      HOT=
0204108520999992015010919204+48425+010932FM-15+046299999V0202501N010310033519N009999199+00701+00701999999ADDGA1071+003351999GA2081+008531999GE19MSL   +99999+99999GF199999071999003351999999MA1102101999999MW1611OC101601REMMET083METAR EDMA 091920Z 25020G31KT 9999 -RA BKN011 OVC028 07/07 Q1021 RMK      ATIS IND=
0193108520999992015010919504+48425+010932FM-15+046299999V0202501N009310030519N009999199+00701+00701999999ADDGA1071+003051999GA2081+008531999GE19MSL   +99999+99999GF199999071999003051999999MA1102101999999MW1611REMMET080METAR EDMA 091950Z 25018KT 9999 -RA BKN010 OVC028 07/07 Q1021 RMK ATIS      JUL=
0183108520999992015011005504+48425+010932FM-15+046299999V0202601N010310094519N009999199+01201+00801999999ADDGA1021+005491999GA2081+009451999GE19MSL   +99999+99999GF199999021999005491999999MA1101901999999REMMET076METAR EDMA 100550Z 26020KT 9999 FEW018 OVC031 12/08 Q1019 RMK ATIS      ECH=
0194108520999992015011006204+48425+010932FM-15+046299999V0202501N010810094519N009999199+01201+00901999999ADDGA1021+007921999GA2081+009451999GE19MSL   +99999+99999GF199999021999007921999999MA1101901999999OC101601REMMET079METAR EDMA 100620Z 25021G31KT 9999 FEW026 OVC031 12/09 Q1019 RMK ATIS      FOX=
0194108520999992015011006504+48425+010932FM-15+046299999V0202401N013410094519N009999199+01201+00901999999ADDGA1021+006401999GA2071+009451999GE19MSL   +99999+99999GF199999021999006401999999MA1101901999999OC101851REMMET079METAR EDMA 100650Z 24026G36KT 9999 FEW021 BKN031 12/09 Q1019 RMK ATIS      GOL=
0166108520999992015011007204+48425+010932FM-15+046299999V0202501N011810057919N009999199+01201+00801999999ADDGA1071+005791999GE19MSL   +99999+99999GF199999071999005791999999MA1101901999999OC101701REMMET067METAR EDMA 100720Z 25023G33KT 9999 BKN019 12/08 Q1019 RMK ATIS HOT=
0166108520999992015011007504+48425+010932FM-15+046299999V0202501N012410064019N009999199+01201+00801999999ADDGA1071+006401999GE19MSL   +99999+99999GF199999071999006401999999MA1101901999999OC101851REMMET067METAR EDMA 100750Z 25024G36KT 9999 BKN021 12/08 Q1019 RMK ATIS IND=
0194108520999992015011008204+48425+010932FM-15+046299999V0202501N012410121919N009999199+01301+00801999999ADDGA1041+007621999GA2071+012191999GE19MSL   +99999+99999GF199999041999007621999999MA1101901999999OC101901REMMET079METAR EDMA 100820Z 25024G37KT 9999 SCT025 BKN040 13/08 Q1019 RMK ATIS      JUL=
0166108520999992015011008504+48425+010932FM-15+046299999V0202601N011819999999N009999199+01301+00701999999ADDGA1021+007921999GE19MSL   +99999+99999GF199999021999007921999999MA1101901999999OC101801REMMET067METAR EDMA 100850Z 26023G35KT 9999 FEW026 13/07 Q1019 RMK ATIS KIL=
0179108520999992015011009204+48425+010932FM-15+046299999V0202601V009819999999N009999199+01301+00801999999ADDGA1021+007321999GE19MSL   +99999+99999GF199999021999007321999999MA1101901999999OC101541REMMET080METAR EDMA 100920Z 26019G30KT 220V280 9999 FEW024 13/08 Q1019 RMK ATIS      LIM=
0179108520999992015011009504+48425+010932FM-15+046299999V0202501V009319999999N009999199+01401+00801999999ADDGA1021+008841999GE19MSL   +99999+99999GF199999021999008841999999MA1101801999999OC101491REMMET080METAR EDMA 100950Z 25018G29KT 230V290 9999 FEW029 14/08 Q1018 RMK ATIS      MIK=
0166108520999992015011010204+48425+010932FM-15+046299999V0202501N012919999999N009999199+01401+00701999999ADDGA1021+008531999GE19MSL   +99999+99999GF199999021999008531999999MA1101701999999OC101901REMMET067METAR EDMA 101020Z 25025G37KT 9999 FEW028 14/07 Q1017 RMK ATIS NOV=
0166108520999992015011010504+48425+010932FM-15+046299999V0202601N012419999999N009999199+01401+00701999999ADDGA1021+008531999GE19MSL   +99999+99999GF199999021999008531999999MA1101601999999OC101961REMMET067METAR EDMA 101050Z 26024G38KT 9999 FEW028 14/07 Q1016 RMK ATIS OSC=
0166108520999992015011011204+48425+010932FM-15+046299999V0202601N012419999999N009999199+01501+00701999999ADDGA1021+009751999GE19MSL   +99999+99999GF199999021999009751999999MA1101601999999OC102161REMMET067METAR EDMA 101120Z 26024G42KT 9999 FEW032 15/07 Q1016 RMK ATIS PAP=
0166108520999992015011011504+48425+010932FM-15+046299999V0202601N014419999999N009999199+01501+00601999999ADDGA1021+009751999GE19MSL   +99999+99999GF199999021999009751999999MA1101501999999OC102061REMMET067METAR EDMA 101150Z 26028G40KT 9999 FEW032 15/06 Q1015 RMK ATIS QUE=
0166108520999992015011012204+48425+010932FM-15+046299999V0202601N012919999999N009999199+01501+00601999999ADDGA1021+010671999GE19MSL   +99999+99999GF199999021999010671999999MA1101601999999OC102011REMMET067METAR EDMA 101220Z 26025G39KT 9999 FEW035 15/06 Q1016 RMK ATIS ROM=
0155108520999992015011012504+48425+010932FM-15+046299999V0202601N009819999999N009999199+01501+00601999999ADDGA1021+010671999GE19MSL   +99999+99999GF199999021999010671999999MA1101501999999REMMET064METAR EDMA 101250Z 26019KT 9999 FEW035 15/06 Q1015 RMK ATIS SIE=
0155108520999992015011013204+48425+010932FM-15+046299999V0202601N011319999999N009999199+01401+00601999999ADDGA1021+010671999GE19MSL   +99999+99999GF199999021999010671999999MA1101501999999REMMET064METAR EDMA 101320Z 26022KT 9999 FEW035 14/06 Q1015 RMK ATIS TAN=
0166108520999992015011013504+48425+010932FM-15+046299999V0202601N011819999999N009999199+01501+00601999999ADDGA1041+011581999GE19MSL   +99999+99999GF199999041999011581999999MA1101501999999OC101701REMMET067METAR EDMA 101350Z 26023G33KT 9999 SCT038 15/06 Q1015 RMK ATIS UNI=
0166108520999992015011014204+48425+010932FM-15+046299999V0202601N011319999999N009999199+01501+00501999999ADDGA1021+013111999GE19MSL   +99999+99999GF199999021999013111999999MA1101601999999OC101751REMMET067METAR EDMA 101420Z 26022G34KT 9999 FEW043 15/05 Q1016 RMK ATIS VIC=
0166108520999992015011014504+48425+010932FM-15+046299999V0202601N009319999999N009999199+01401+00501999999ADDGA1021+014021999GE19MSL   +99999+99999GF199999021999014021999999MA1101501999999OC101701REMMET067METAR EDMA 101450Z 26018G33KT 9999 FEW046 14/05 Q1015 RMK ATIS WHI=
0155108520999992015011015204+48425+010932FM-15+046299999V0202601N009819999999N009999199+01401+00501999999ADDGA1021+014631999GE19MSL   +99999+99999GF199999021999014631999999MA1101501999999REMMET064METAR EDMA 101520Z 26019KT 9999 FEW048 14/05 Q1015 RMK ATIS X-R=
0096108520999992015011015504+48425+010932FM-15+046299999V0202501N010819999999Y999999999+01301+00601999999ADDMA1101401999999OC101601REMMET061METAR EDMA 101550Z 25021G31KT CAVOK 13/06 Q1014 RMK ATIS YAN=
0155108520999992015011016204+48425+010932FM-15+046299999V0202501N009810091419N009999199+01301+00601999999ADDGA1071+009141999GE19MSL   +99999+99999GF199999071999009141999999MA1101501999999REMMET064METAR EDMA 101620Z 25019KT 9999 BKN030 13/06 Q1015 RMK ATIS ZUL=
0155108520999992015011016504+48425+010932FM-15+046299999V0202601N009810134119N009999199+01401+00601999999ADDGA1071+013411999GE19MSL   +99999+99999GF199999071999013411999999MA1101501999999REMMET064METAR EDMA 101650Z 26019KT 9999 BKN044 14/06 Q1015 RMK ATIS ALF=
0155108520999992015011017204+48425+010932FM-15+046299999V0202601N011310143319N009999199+01401+00601999999ADDGA1071+014331999GE19MSL   +99999+99999GF199999071999014331999999MA1101501999999REMMET064METAR EDMA 101720Z 26022KT 9999 BKN047 14/06 Q1015 RMK ATIS BRA=
0166108520999992015011017504+48425+010932FM-15+046299999V0202601N010310143319N009999199+01401+00601999999ADDGA1071+014331999GE19MSL   +99999+99999GF199999071999014331999999MA1101501999999OC101601REMMET067METAR EDMA 101750Z 26020G31KT 9999 BKN047 14/06 Q1015 RMK ATIS CHA=
0166108520999992015011018204+48425+010932FM-15+046299999V0202501N010310143319N009999199+01301+00501999999ADDGA1081+014331999GE19MSL   +99999+99999GF199999081999014331999999MA1101501999999OC101651REMMET067METAR EDMA 101820Z 25020G32KT 9999 OVC047 13/05 Q1015 RMK ATIS DEL=
0166108520999992015011018504+48425+010932FM-15+046299999V0202601N009310146319N009999199+01301+00501999999ADDGA1081+014631999GE19MSL   +99999+99999GF199999081999014631999999MA1101501999999OC101651REMMET067METAR EDMA 101850Z 26018G32KT 9999 OVC048 13/05 Q1015 RMK ATIS ECH=
0155108520999992015011019204+48425+010932FM-15+046299999V0202601N010810125019N009999199+01301+00501999999ADDGA1081+012501999GE19MSL   +99999+99999GF199999081999012501999999MA1101501999999REMMET064METAR EDMA 101920Z 26021KT 9999 OVC041 13/05 Q1015 RMK ATIS FOX=
0166108520999992015011019504+48425+010932FM-15+046299999V0202601N011310140219N009999199+01301+00501999999ADDGA1081+014021999GE19MSL   +99999+99999GF199999081999014021999999MA1101401999999OC101851REMMET067METAR EDMA 101950Z 26022G36KT 9999 OVC046 13/05 Q1014 RMK ATIS GOL=
0216108520999992015011107504+48425+010932FM-15+046299999V0203201N003610057919N009999199+00201+00201999999ADDGA1041+002131999GA2071+005791999GA3081+007621999GE19MSL   +99999+99999GF199999041999002131999999MA1101701999999MW1611REMMET087METAR EDMA 110750Z 32007KT 9999 -RA SCT007 BKN019 OVC025 02/02 Q1017      RMK ATIS FOX=
0216108520999992015011108204+48425+010932FM-15+046299999V0202701N006210091419N009999199+00301+00101999999ADDGA1041+004571999GA2071+009141999GA3081+012501999GE19MSL   +99999+99999GF199999041999004571999999MA1101801999999MW1611REMMET087METAR EDMA 110820Z 27012KT 9999 -RA SCT015 BKN030 OVC041 03/01 Q1018      RMK ATIS GOL=
0184108520999992015011108504+48425+010932FM-15+046299999V0202701N008810094519N009999199+00301-00101999999ADDGA1041+006101999GA2071+009451999GE19MSL   +99999+99999GF199999041999006101999999MA1101901999999REMMET077METAR EDMA 110850Z 27017KT 9999 SCT020 BKN031 03/M01 Q1019 RMK ATIS      HOT=
0184108520999992015011109204+48425+010932FM-15+046299999V0202601N006210121919N009999199+00301-00101999999ADDGA1041+009141999GA2071+012191999GE19MSL   +99999+99999GF199999041999009141999999MA1102001999999REMMET077METAR EDMA 110920Z 26012KT 9999 SCT030 BKN040 03/M01 Q1020 RMK ATIS      IND=
0156108520999992015011109504+48425+010932FM-15+046299999V0202701N009319999999N009999199+00301-00201999999ADDGA1041+009141999GE19MSL   +99999+99999GF199999041999009141999999MA1102101999999REMMET065METAR EDMA 110950Z 27018KT 9999 SCT030 03/M02 Q1021 RMK ATIS JUL=
0195108520999992015011110204+48425+010932FM-15+046299999V0202601N007210103619N009999199+00301-00201999999ADDGA1021+003051999GA2071+010361999GE19MSL   +99999+99999GF199999021999003051999999MA1102101999999OC101241REMMET080METAR EDMA 111020Z 26014G24KT 9999 FEW010 BKN034 03/M02 Q1021 RMK ATIS      KIL=
0198108520999992015011110504+48425+010932FM-15+046299999V0202601N009810103619N008000199+00301-00201999999ADDGA1021+006101999GA2071+010361999GE19MSL   +99999+99999GF199999021999006101999999MA1102101999999MW1831REMMET085METAR EDMA 111050Z 26019KT 8000 -SHRASN FEW020 BKN034 03/M02 Q1021      RMK ATIS LIM=
0179108520999992015011111204+48425+010932FM-15+046299999V0202801V007710061019N008000199+00201+00001999999ADDGA1071+006101999GE19MSL   +99999+99999GF199999071999006101999999MA1102201999999OC101291REMMET080METAR EDMA 111120Z 28015G25KT 230V300 8000 BKN020 02/00 Q1022 RMK ATIS      MIK=
0156108520999992015011111504+48425+010932FM-15+046299999V0202601N009319999999N009999199+00401+00001999999ADDGA1041+006101999GE19MSL   +99999+99999GF199999041999006101999999MA1102101999999REMMET065METAR EDMA 111150Z 26018KT 9999 SCT020 04/M00 Q1021 RMK ATIS NOV=
0156108520999992015011112204+48425+010932FM-15+046299999V0202501N009319999999N009999199+00301-00101999999ADDGA1041+005181999GE19MSL   +99999+99999GF199999041999005181999999MA1102101999999REMMET065METAR EDMA 111220Z 25018KT 9999 SCT017 03/M01 Q1021 RMK ATIS OSC=
0209108520999992015011112504+48425+010932FM-15+046299999V0202601N010310079219N008000199+00301-00101999999ADDGA1041+004271999GA2071+007921999GE19MSL   +99999+99999GF199999041999004271999999MA1102001999999MW1831OC101601REMMET088METAR EDMA 111250Z 26020G31KT 8000 -SHRASN SCT014 BKN026 03/M01 Q1020      RMK ATIS PAP=
0197108520999992015011113204+48425+010932FM-15+046299999V0202601N009310061019N006000199+00201+00001999999ADDGA1071+006101091GA2081+008841999GE19MSL   +99999+99999GF199999071999006101999999MA1102001999999MW1861REMMET084METAR EDMA 111320Z 26018KT 6000 SHSN BKN020CB OVC029 02/M00 Q1020 RMK      ATIS QUE=
0141108520999992015011113264+48425+010932FM-16+046299999V0203001N008219999999N000900199+99999+99999999999ADDMA1102105999999MW1865MW2905REMMET083SPECI EDMA 111326Z 30016KT 0900 SHSNGR SCT005 OVC016 02/00 Q1021 RMK      ATIS ROM=EQDD01      0ADE735
0179108520999992015011113504+48425+010932FM-15+046299999V0202801N008210030519N008000199+00101+00101999999ADDGA1071+003051999GE19MSL   +99999+99999GF199999071999003051999999MA1102101999999MW1851REMMET082METAR EDMA 111350Z 28016KT 8000 -SHSN BKN010 01/01 Q1021 RESHSN RMK      ATIS SIE=
0166108520999992015011114204+48425+010932FM-15+046299999V0202801N008219999999N009999199+00101+00101999999ADDGA1021+003051999GE19MSL   +99999+99999GF199999021999003051999999MA1102101999999OC101391REMMET067METAR EDMA 111420Z 28016G27KT 9999 FEW010 01/01 Q1021 RMK ATIS TAN=
0156108520999992015011114504+48425+010932FM-15+046299999V0202801N008219999999N009999199+00201+00001999999ADDGA1021+005791999GE19MSL   +99999+99999GF199999021999005791999999MA1102201999999REMMET065METAR EDMA 111450Z 28016KT 9999 FEW019 02/M00 Q1022 RMK ATIS UNI=
0156108520999992015011115204+48425+010932FM-15+046299999V0202801N006719999999N009999199+00201-00101999999ADDGA1021+005791999GE19MSL   +99999+99999GF199999021999005791999999MA1102201999999REMMET065METAR EDMA 111520Z 28013KT 9999 FEW019 02/M01 Q1022 RMK ATIS VIC=
0184108520999992015011115504+48425+010932FM-15+046299999V0202701N00721016761CN009999199+00201-00101999999ADDGA1021+003961999GA2041+016761999GE19MSL   +99999+99999GF199999021999003961999999MA1102301999999REMMET077METAR EDMA 111550Z 27014KT 9999 FEW013 SCT055 02/M01 Q1023 RMK ATIS      WHI=
0156108520999992015011116204+48425+010932FM-15+046299999V0202701N008219999999N009999199+00201-00201999999ADDGA1021+003051999GE19MSL   +99999+99999GF199999021999003051999999MA1102301999999REMMET065METAR EDMA 111620Z 27016KT 9999 FEW010 02/M02 Q1023 RMK ATIS X-R=
0156108520999992015011116504+48425+010932FM-15+046299999V0202701N008219999999N009999199+00201-00201999999ADDGA1021+007621999GE19MSL   +99999+99999GF199999021999007621999999MA1102301999999REMMET065METAR EDMA 111650Z 27016KT 9999 FEW025 02/M02 Q1023 RMK ATIS YAN=
0156108520999992015011117204+48425+010932FM-15+046299999V0202701N007219999999N009999199+00201-00301999999ADDGA1021+008531999GE19MSL   +99999+99999GF199999021999008531999999MA1102301999999REMMET065METAR EDMA 111720Z 27014KT 9999 FEW028 02/M03 Q1023 RMK ATIS ZUL=
0184108520999992015011118504+48425+010932FM-15+046299999V0202501N006710115819N009999199+00201-00301999999ADDGA1071+011581999GA2081+017071999GE19MSL   +99999+99999GF199999071999011581999999MA1102401999999REMMET077METAR EDMA 111850Z 25013KT 9999 BKN038 OVC056 02/M03 Q1024 RMK ATIS      ALF=
0184108520999992015011119204+48425+010932FM-15+046299999V0202501N007210131119N009999199+00201-00301999999ADDGA1071+013111999GA2081+015541999GE19MSL   +99999+99999GF199999071999013111999999MA1102401999999REMMET077METAR EDMA 111920Z 25014KT 9999 BKN043 OVC051 02/M03 Q1024 RMK ATIS      BRA=
0156108520999992015011119504+48425+010932FM-15+046299999V0202601N009310143319N009999199+00201-00301999999ADDGA1081+014331999GE19MSL   +99999+99999GF199999081999014331999999MA1102501999999REMMET065METAR EDMA 111950Z 26018KT 9999 OVC047 02/M03 Q1025 RMK ATIS CHA=
0086108520999992015011204504+48425+010932FM-15+046299999V0202501N010819999999Y999999999+00401-00301999999ADDMA1102501999999REMMET059METAR EDMA 120450Z 25021KT CAVOK 04/M03 Q1025 RMK ATIS VIC=
0086108520999992015011205204+48425+010932FM-15+046299999V0202501N011819999999Y999999999+00401-00301999999ADDMA1102501999999REMMET059METAR EDMA 120520Z 25023KT CAVOK 04/M03 Q1025 RMK ATIS WHI=
0097108520999992015011205504+48425+010932FM-15+046299999V0202501N011319999999Y999999999+00401-00401999999ADDMA1102501999999OC101651REMMET062METAR EDMA 120550Z 25022G32KT CAVOK 04/M04 Q1025 RMK ATIS X-R=
0086108520999992015011206204+48425+010932FM-15+046299999V0202401N009319999999Y999999999+00301-00301999999ADDMA1102601999999REMMET059METAR EDMA 120620Z 24018KT CAVOK 03/M03 Q1026 RMK ATIS YAN=
0086108520999992015011206504+48425+010932FM-15+046299999V0202401N006719999999Y999999999+00301-00301999999ADDMA1102601999999REMMET059METAR EDMA 120650Z 24013KT CAVOK 03/M03 Q1026 RMK ATIS ZUL=
0086108520999992015011207204+48425+010932FM-15+046299999V0202501N007719999999Y999999999+00301-00301999999ADDMA1102601999999REMMET059METAR EDMA 120720Z 25015KT CAVOK 03/M03 Q1026 RMK ATIS ALF=
0086108520999992015011207504+48425+010932FM-15+046299999V0202501N006719999999Y999999999+00301-00301999999ADDMA1102601999999REMMET059METAR EDMA 120750Z 25013KT CAVOK 03/M03 Q1026 RMK ATIS BRA=
0086108520999992015011208204+48425+010932FM-15+046299999V0202501N006719999999Y999999999+00301-00301999999ADDMA1102601999999REMMET059METAR EDMA 120820Z 25013KT CAVOK 03/M03 Q1026 RMK ATIS CHA=
0086108520999992015011208504+48425+010932FM-15+046299999V0202401N007219999999Y999999999+00301-00301999999ADDMA1102601999999REMMET059METAR EDMA 120850Z 24014KT CAVOK 03/M03 Q1026 RMK ATIS DEL=
0086108520999992015011209204+48425+010932FM-15+046299999V0202401N007719999999Y999999999+00301-00301999999ADDMA1102601999999REMMET059METAR EDMA 120920Z 24015KT CAVOK 03/M03 Q1026 RMK ATIS ECH=
0086108520999992015011209504+48425+010932FM-15+046299999V0202501N006719999999Y999999999+00401-00301999999ADDMA1102601999999REMMET059METAR EDMA 120950Z 25013KT CAVOK 04/M03 Q1026 RMK ATIS FOX=
0086108520999992015011210204+48425+010932FM-15+046299999V0202401N006219999999Y999999999+00301-00301999999ADDMA1102501999999REMMET059METAR EDMA 121020Z 24012KT CAVOK 03/M03 Q1025 RMK ATIS GOL=
0086108520999992015011210504+48425+010932FM-15+046299999V0202501N007219999999Y999999999+00401-00301999999ADDMA1102501999999REMMET059METAR EDMA 121050Z 25014KT CAVOK 04/M03 Q1025 RMK ATIS HOT=
0086108520999992015011211204+48425+010932FM-15+046299999V0202601N006219999999Y999999999+00401-00301999999ADDMA1102501999999REMMET059METAR EDMA 121120Z 26012KT CAVOK 04/M03 Q1025 RMK ATIS IND=
0086108520999992015011211504+48425+010932FM-15+046299999V0202601N006219999999Y999999999+00401-00301999999ADDMA1102401999999REMMET059METAR EDMA 121150Z 26012KT CAVOK 04/M03 Q1024 RMK ATIS JUL=
0086108520999992015011212204+48425+010932FM-15+046299999V0202601N006719999999Y999999999+00401-00301999999ADDMA1102401999999REMMET059METAR EDMA 121220Z 26013KT CAVOK 04/M03 Q1024 RMK ATIS KIL=
0086108520999992015011212504+48425+010932FM-15+046299999V0202601N004619999999Y999999999+00401-00301999999ADDMA1102301999999REMMET059METAR EDMA 121250Z 26009KT CAVOK 04/M03 Q1023 RMK ATIS LIM=
0086108520999992015011213204+48425+010932FM-15+046299999V0202501N004119999999Y999999999+00501-00201999999ADDMA1102301999999REMMET059METAR EDMA 121320Z 25008KT CAVOK 05/M02 Q1023 RMK ATIS MIK=
0086108520999992015011213504+48425+010932FM-15+046299999V0202401N003619999999Y999999999+00501-00201999999ADDMA1102301999999REMMET059METAR EDMA 121350Z 24007KT CAVOK 05/M02 Q1023 RMK ATIS NOV=
0094108520999992015011214204+48425+010932FM-15+046299999V0202501V003619999999Y999999999+00501-00301999999ADDMA1102301999999REMMET067METAR EDMA 121420Z 25007KT 220V300 CAVOK 05/M03 Q1023 RMK ATIS OSC=
0086108520999992015011214504+48425+010932FM-15+046299999V0202401N003619999999Y999999999+00501-00301999999ADDMA1102201999999REMMET059METAR EDMA 121450Z 24007KT CAVOK 05/M03 Q1022 RMK ATIS PAP=
0086108520999992015011215204+48425+010932FM-15+046299999V0202401N004119999999Y999999999+00501-00401999999ADDMA1102201999999REMMET059METAR EDMA 121520Z 24008KT CAVOK 05/M04 Q1022 RMK ATIS QUE=
0086108520999992015011215504+48425+010932FM-15+046299999V0202401N004619999999Y999999999+00501-00401999999ADDMA1102201999999REMMET059METAR EDMA 121550Z 24009KT CAVOK 05/M04 Q1022 RMK ATIS ROM=
0086108520999992015011216204+48425+010932FM-15+046299999V0202501N004619999999Y999999999+00501-00501999999ADDMA1102201999999REMMET059METAR EDMA 121620Z 25009KT CAVOK 05/M05 Q1022 RMK ATIS SIE=
0086108520999992015011216504+48425+010932FM-15+046299999V0202601N005119999999Y999999999+00501-00601999999ADDMA1102101999999REMMET059METAR EDMA 121650Z 26010KT CAVOK 05/M06 Q1021 RMK ATIS TAN=
0086108520999992015011217204+48425+010932FM-15+046299999V0202601N005119999999Y999999999+00501-00601999999ADDMA1102201999999REMMET059METAR EDMA 121720Z 26010KT CAVOK 05/M06 Q1022 RMK ATIS UNI=
0086108520999992015011217504+48425+010932FM-15+046299999V0202601N005119999999Y999999999+00601-00701999999ADDMA1102101999999REMMET059METAR EDMA 121750Z 26010KT CAVOK 06/M07 Q1021 RMK ATIS VIC=
0086108520999992015011218204+48425+010932FM-15+046299999V0202501N003619999999Y999999999+00501-00601999999ADDMA1102201999999REMMET059METAR EDMA 121820Z 25007KT CAVOK 05/M06 Q1022 RMK ATIS WHI=
0086108520999992015011218504+48425+010932FM-15+046299999V0209999V001019999999Y999999999+00401-00701999999ADDMA1102201999999REMMET059METAR EDMA 121850Z VRB02KT CAVOK 04/M07 Q1022 RMK ATIS X-R=
0086108520999992015011219204+48425+010932FM-15+046299999V0202601N003119999999Y999999999+00401-00701999999ADDMA1102201999999REMMET059METAR EDMA 121920Z 26006KT CAVOK 04/M07 Q1022 RMK ATIS YAN=
0086108520999992015011219504+48425+010932FM-15+046299999V0202501N002619999999Y999999999+00401-00701999999ADDMA1102201999999REMMET059METAR EDMA 121950Z 25005KT CAVOK 04/M07 Q1022 RMK ATIS ZUL=
0095108520999992015011304504+48425+010932FM-15+046299999V0201201V001519999999Y999999999-00101-00601999999ADDMA1102001999999REMMET068METAR EDMA 130450Z 12003KT 060V160 CAVOK M01/M06 Q1020 RMK ATIS SIE=
0087108520999992015011305204+48425+010932FM-15+046299999V0201401N001519999999Y999999999+00001-00701999999ADDMA1101901999999REMMET060METAR EDMA 130520Z 14003KT CAVOK M00/M07 Q1019 RMK ATIS TAN=
0087108520999992015011305504+48425+010932FM-15+046299999V0209999V001019999999Y999999999-00201-00701999999ADDMA1101901999999REMMET060METAR EDMA 130550Z VRB02KT CAVOK M02/M07 Q1019 RMK ATIS UNI=
0087108520999992015011306204+48425+010932FM-15+046299999V0209999V001019999999Y999999999-00101-00701999999ADDMA1101901999999REMMET060METAR EDMA 130620Z VRB02KT CAVOK M01/M07 Q1019 RMK ATIS VIC=
0086108520999992015011306504+48425+010932FM-15+046299999V0201701N004119999999Y999999999+00101-00701999999ADDMA1101901999999REMMET059METAR EDMA 130650Z 17008KT CAVOK 01/M07 Q1019 RMK ATIS WHI=
0086108520999992015011307204+48425+010932FM-15+046299999V0201701N003619999999Y999999999+00101-00701999999ADDMA1101801999999REMMET059METAR EDMA 130720Z 17007KT CAVOK 01/M07 Q1018 RMK ATIS X-R=
0086108520999992015011307504+48425+010932FM-15+046299999V0201801N003619999999Y999999999+00201-00701999999ADDMA1101801999999REMMET059METAR EDMA 130750Z 18007KT CAVOK 02/M07 Q1018 RMK ATIS YAN=
0086108520999992015011308204+48425+010932FM-15+046299999V0202001N004119999999Y999999999+00501-00701999999ADDMA1101801999999REMMET059METAR EDMA 130820Z 20008KT CAVOK 05/M07 Q1018 RMK ATIS ZUL=
0086108520999992015011308504+48425+010932FM-15+046299999V0202001N003119999999Y999999999+00701-00701999999ADDMA1101801999999REMMET059METAR EDMA 130850Z 20006KT CAVOK 07/M07 Q1018 RMK ATIS ALF=
0086108520999992015011309204+48425+010932FM-15+046299999V0201701N002619999999Y999999999+00801-00701999999ADDMA1101801999999REMMET059METAR EDMA 130920Z 17005KT CAVOK 08/M07 Q1018 RMK ATIS BRA=
0086108520999992015011309504+48425+010932FM-15+046299999V0209999V001019999999Y999999999+01001-00501999999ADDMA1101801999999REMMET059METAR EDMA 130950Z VRB02KT CAVOK 10/M05 Q1018 RMK ATIS CHA=
0086108520999992015011310204+48425+010932FM-15+046299999V0209999V002619999999Y999999999+01201-00801999999ADDMA1101701999999REMMET059METAR EDMA 131020Z VRB05KT CAVOK 12/M08 Q1017 RMK ATIS DEL=
0086108520999992015011310504+48425+010932FM-15+046299999V0202401N005119999999Y999999999+01201-00701999999ADDMA1101701999999REMMET059METAR EDMA 131050Z 24010KT CAVOK 12/M07 Q1017 RMK ATIS ECH=
0086108520999992015011311204+48425+010932FM-15+046299999V0202401N005719999999Y999999999+01201-00801999999ADDMA1101601999999REMMET059METAR EDMA 131120Z 24011KT CAVOK 12/M08 Q1016 RMK ATIS FOX=
0086108520999992015011311504+48425+010932FM-15+046299999V0202401N005719999999Y999999999+01301-00901999999ADDMA1101601999999REMMET059METAR EDMA 131150Z 24011KT CAVOK 13/M09 Q1016 RMK ATIS GOL=
0086108520999992015011312204+48425+010932FM-15+046299999V0202301N005119999999Y999999999+01301-00901999999ADDMA1101501999999REMMET059METAR EDMA 131220Z 23010KT CAVOK 13/M09 Q1015 RMK ATIS HOT=
0086108520999992015011312504+48425+010932FM-15+046299999V0202401N007219999999Y999999999+01301-00901999999ADDMA1101501999999REMMET059METAR EDMA 131250Z 24014KT CAVOK 13/M09 Q1015 RMK ATIS IND=
0086108520999992015011313204+48425+010932FM-15+046299999V0202401N006719999999Y999999999+01401-00801999999ADDMA1101401999999REMMET059METAR EDMA 131320Z 24013KT CAVOK 14/M08 Q1014 RMK ATIS JUL=
0097108520999992015011313504+48425+010932FM-15+046299999V0202501N006719999999Y999999999+01401-00801999999ADDMA1101401999999OC101181REMMET062METAR EDMA 131350Z 25013G23KT CAVOK 14/M08 Q1014 RMK ATIS KIL=
0086108520999992015011314204+48425+010932FM-15+046299999V0202501N006719999999Y999999999+01301-00901999999ADDMA1101401999999REMMET059METAR EDMA 131420Z 25013KT CAVOK 13/M09 Q1014 RMK ATIS LIM=
0086108520999992015011314504+48425+010932FM-15+046299999V0202401N006219999999Y999999999+01201-00801999999ADDMA1101401999999REMMET059METAR EDMA 131450Z 24012KT CAVOK 12/M08 Q1014 RMK ATIS MIK=
0086108520999992015011315204+48425+010932FM-15+046299999V0202501N005119999999Y999999999+01101-00701999999ADDMA1101401999999REMMET059METAR EDMA 131520Z 25010KT CAVOK 11/M07 Q1014 RMK ATIS NOV=
0086108520999992015011315504+48425+010932FM-15+046299999V0202401N004619999999Y999999999+00801-00601999999ADDMA1101401999999REMMET059METAR EDMA 131550Z 24009KT CAVOK 08/M06 Q1014 RMK ATIS OSC=
0086108520999992015011316204+48425+010932FM-15+046299999V0202401N005119999999Y999999999+00901-00701999999ADDMA1101401999999REMMET059METAR EDMA 131620Z 24010KT CAVOK 09/M07 Q1014 RMK ATIS PAP=
0086108520999992015011316504+48425+010932FM-15+046299999V0202301N003619999999Y999999999+00901-00701999999ADDMA1101401999999REMMET059METAR EDMA 131650Z 23007KT CAVOK 09/M07 Q1014 RMK ATIS QUE=
0086108520999992015011317204+48425+010932FM-15+046299999V0202301N003619999999Y999999999+00901-00701999999ADDMA1101401999999REMMET059METAR EDMA 131720Z 23007KT CAVOK 09/M07 Q1014 RMK ATIS ROM=
0086108520999992015011317504+48425+010932FM-15+046299999V0202201N004619999999Y999999999+00901-00701999999ADDMA1101401999999REMMET059METAR EDMA 131750Z 22009KT CAVOK 09/M07 Q1014 RMK ATIS SIE=
0086108520999992015011318204+48425+010932FM-15+046299999V0202301N005119999999Y999999999+00901-00601999999ADDMA1101401999999REMMET059METAR EDMA 131820Z 23010KT CAVOK 09/M06 Q1014 RMK ATIS TAN=
0086108520999992015011318504+48425+010932FM-15+046299999V0202401N005119999999Y999999999+00901-00501999999ADDMA1101401999999REMMET059METAR EDMA 131850Z 24010KT CAVOK 09/M05 Q1014 RMK ATIS UNI=
0086108520999992015011319204+48425+010932FM-15+046299999V0202401N004619999999Y999999999+00701-00501999999ADDMA1101401999999REMMET059METAR EDMA 131920Z 24009KT CAVOK 07/M05 Q1014 RMK ATIS VIC=
0086108520999992015011319504+48425+010932FM-15+046299999V0202301N005719999999Y999999999+00901-00601999999ADDMA1101401999999REMMET059METAR EDMA 131950Z 23011KT CAVOK 09/M06 Q1014 RMK ATIS WHI=
0114108520999992015011404504+48425+010932FM-15+046299999V0202501N007212200019N008000199+00901+00101999999ADDGF100991999999999999999999MA1101301999999REMMET061METAR EDMA 140450Z 25014KT 8000 NSC 09/01 Q1013 RMK ATIS OSC=
0155108520999992015011405204+48425+010932FM-15+046299999V0202601N006710100619N008000199+00901+00101999999ADDGA1071+010061999GE19MSL   +99999+99999GF199999071999010061999999MA1101401999999REMMET064METAR EDMA 140520Z 26013KT 8000 BKN033 09/01 Q1014 RMK ATIS PAP=
0183108520999992015011405504+48425+010932FM-15+046299999V0202501N004110100619N008000199+00801+00201999999ADDGA1071+010061999GA2071+015851999GE19MSL   +99999+99999GF199999071999010061999999MA1101401999999REMMET076METAR EDMA 140550Z 25008KT 8000 BKN033 BKN052 08/02 Q1014 RMK ATIS      QUE=
0183108520999992015011406204+48425+010932FM-15+046299999V0202301N005110094519N009000199+00801+00201999999ADDGA1071+009451999GA2071+033531999GE19MSL   +99999+99999GF199999071999009451999999MA1101401999999REMMET076METAR EDMA 140620Z 23010KT 9000 BKN031 BKN110 08/02 Q1014 RMK ATIS      ROM=
0155108520999992015011406504+48425+010932FM-15+046299999V0202301N003110149419N009999199+00701+00201999999ADDGA1071+014941999GE19MSL   +99999+99999GF199999071999014941999999MA1101401999999REMMET064METAR EDMA 140650Z 23006KT 9999 BKN049 07/02 Q1014 RMK ATIS SIE=
0155108520999992015011407204+48425+010932FM-15+046299999V0202201N002610100619N009999199+00701+00201999999ADDGA1071+010061999GE19MSL   +99999+99999GF199999071999010061999999MA1101401999999REMMET064METAR EDMA 140720Z 22005KT 9999 BKN033 07/02 Q1014 RMK ATIS TAN=
0155108520999992015011407504+48425+010932FM-15+046299999V0202201N003610128019N009999199+00801+00201999999ADDGA1071+012801999GE19MSL   +99999+99999GF199999071999012801999999MA1101501999999REMMET064METAR EDMA 140750Z 22007KT 9999 BKN042 08/02 Q1015 RMK ATIS UNI=
0197108520999992015011408204+48425+010932FM-15+046299999V0202501N006210030519N001700199+00701+00301999999ADDGA1071+003051999GA2081+006711999GE19MSL   +99999+99999GF199999071999003051999999MA1101501999999MW1651REMMET084METAR COR EDMA 140820Z 25012KT 1700 +RA BKN010 OVC022 07/03 Q1015 RMK      ATIS WHI=
0203108520999992015011408504+48425+010932FM-15+046299999V0202801N008810030519N009999199+00401+00301999999ADDGA1071+003051999GA2081+010671999GE19MSL   +99999+99999GF199999071999003051999999MA1101601999999MW1631OC101541REMMET082METAR EDMA 140850Z 28017G30KT 9999 RA BKN010 OVC035 04/03 Q1016 RMK      ATIS X-R=
0188108520999992015011409204+48425+010932FM-15+046299999V0202401N005710094519N009999199+00501+00101999999ADDGA1071+009451999GA2081+015541999GE19MSL   +99999+99999GF199999071999009451999999MA1101601999999REMMET081METAR EDMA 140920Z 24011KT 9999 BKN031 OVC051 05/01 Q1016 RERA RMK      ATIS YAN=
0155108520999992015011409504+48425+010932FM-15+046299999V0202601N005119999999N009999199+00501+00101999999ADDGA1041+010671999GE19MSL   +99999+99999GF199999041999010671999999MA1101601999999REMMET064METAR EDMA 140950Z 26010KT 9999 SCT035 05/01 Q1016 RMK ATIS ZUL=
0155108520999992015011410204+48425+010932FM-15+046299999V0202501N004619999999N009999199+00501+00201999999ADDGA1041+010671999GE19MSL   +99999+99999GF199999041999010671999999MA1101601999999REMMET064METAR EDMA 141020Z 25009KT 9999 SCT035 05/02 Q1016 RMK ATIS ALF=
0155108520999992015011410504+48425+010932FM-15+046299999V0202501N005119999999N009999199+00501+00301999999ADDGA1021+010671999GE19MSL   +99999+99999GF199999021999010671999999MA1101601999999REMMET064METAR EDMA 141050Z 25010KT 9999 FEW035 05/03 Q1016 RMK ATIS BRA=
0183108520999992015011411204+48425+010932FM-15+046299999V0202601N00511011581CN009999199+00601+00301999999ADDGA1021+010671999GA2041+011581999GE19MSL   +99999+99999GF199999021999010671999999MA1101601999999REMMET076METAR EDMA 141120Z 26010KT 9999 FEW035 SCT038 06/03 Q1016 RMK ATIS      CHA=
0183108520999992015011411504+48425+010932FM-15+046299999V0202701N00361011581CN009999199+00601+00301999999ADDGA1021+010671999GA2041+011581999GE19MSL   +99999+99999GF199999021999010671999999MA1101601999999REMMET076METAR EDMA 141150Z 27007KT 9999 FEW035 SCT038 06/03 Q1016 RMK ATIS      DEL=
0183108520999992015011412204+48425+010932FM-15+046299999V0202301N00311017071CN009999199+00501+00301999999ADDGA1021+007621999GA2041+017071999GE19MSL   +99999+99999GF199999021999007621999999MA1101601999999REMMET076METAR EDMA 141220Z 23006KT 9999 FEW025 SCT056 05/03 Q1016 RMK ATIS      ECH=
0183108520999992015011412504+48425+010932FM-15+046299999V0202201N005710243819N009999199+00601+00101999999ADDGA1021+007011999GA2071+024381999GE19MSL   +99999+99999GF199999021999007011999999MA1101501999999REMMET076METAR EDMA 141250Z 22011KT 9999 FEW023 BKN080 06/01 Q1015 RMK ATIS      FOX=
0085108520999992015011413204+48425+010932FM-15+046299999V0202301N004619999999Y999999999+00601+00101999999ADDMA1101501999999REMMET058METAR EDMA 141320Z 23009KT CAVOK 06/01 Q1015 RMK ATIS GOL=
0155108520999992015011413504+48425+010932FM-15+046299999V0202101N006219999999N009999199+00601+00201999999ADDGA1021+005181999GE19MSL   +99999+99999GF199999021999005181999999MA1101501999999REMMET064METAR EDMA 141350Z 21012KT 9999 FEW017 06/02 Q1015 RMK ATIS HOT=
0183108520999992015011414204+48425+010932FM-15+046299999V0202101N00411013721CN009999199+00601+00201999999ADDGA1021+007621999GA2041+013721999GE19MSL   +99999+99999GF199999021999007621999999MA1101501999999REMMET076METAR EDMA 141420Z 21008KT 9999 FEW025 SCT045 06/02 Q1015 RMK ATIS      IND=
0183108520999992015011414504+48425+010932FM-15+046299999V0202201N006210073219N009999199+00601+00101999999ADDGA1021+006401999GA2071+007321999GE19MSL   +99999+99999GF199999021999006401999999MA1101501999999REMMET076METAR EDMA 141450Z 22012KT 9999 FEW021 BKN024 06/01 Q1015 RMK ATIS      JUL=
0155108520999992015011415204+48425+010932FM-15+046299999V0202401N007719999999N009999199+00601+00101999999ADDGA1021+006401999GE19MSL   +99999+99999GF199999021999006401999999MA1101401999999REMMET064METAR EDMA 141520Z 24015KT 9999 FEW021 06/01 Q1014 RMK ATIS KIL=
0183108520999992015011415504+48425+010932FM-15+046299999V0202401N00571018291CN009999199+00501+00101999999ADDGA1021+005791999GA2041+018291999GE19MSL   +99999+99999GF199999021999005791999999MA1101401999999REMMET076METAR EDMA 141550Z 24011KT 9999 FEW019 SCT060 05/01 Q1014 RMK ATIS      LIM=
0155108520999992015011416204+48425+010932FM-15+046299999V0202301N006219999999N009999199+00501+00101999999ADDGA1041+007921999GE19MSL   +99999+99999GF199999041999007921999999MA1101501999999REMMET064METAR EDMA 141620Z 23012KT 9999 SCT026 05/01 Q1015 RMK ATIS MIK=
0215108520999992015011416334+48425+010932FM-16+046299999V0203001N01241006101CN005000199+00301-00101999999ADDGA1021+001221999GA2041+006101999GE19MSL   +99999+99999GF199999021999001221999999MA1101601999999MW1171MW2691OC101801REMMET088SPECI EDMA 141633Z 30024G35KT 5000 TS SNRA FEW004 SCT020 03/M01 Q1016      RMK ATIS NOV=
0211108520999992015011416504+48425+010932FM-15+046299999V0202701N00881006101CN008000199+00301+00201999999ADDGA1041+003051999GA2041+006101999GE19MSL   +99999+99999GF199999041999003051999999MA1101601999999MW1611OC101391REMMET090METAR EDMA 141650Z 27017G27KT 8000 -RA SCT010 SCT020 03/02 Q1016 RETSSN      RMK ATIS OSC=
0085108520999992015011417204+48425+010932FM-15+046299999V0202601N008819999999Y999999999+00301+00201999999ADDMA1101701999999REMMET058METAR EDMA 141720Z 26017KT CAVOK 03/02 Q1017 RMK ATIS PAP=
0155108520999992015011417504+48425+010932FM-15+046299999V0202601N005719999999N009999199+00201+00101999999ADDGA1021+009451999GE19MSL   +99999+99999GF199999021999009451999999MA1101701999999REMMET064METAR EDMA 141750Z 26011KT 9999 FEW031 02/01 Q1017 RMK ATIS QUE=
0085108520999992015011418204+48425+010932FM-15+046299999V0202601N007719999999Y999999999+00301+00001999999ADDMA1101701999999REMMET058METAR EDMA 141820Z 26015KT CAVOK 03/00 Q1017 RMK ATIS ROM=
0086108520999992015011418504+48425+010932FM-15+046299999V0202701N007219999999Y999999999+00301-00101999999ADDMA1101801999999REMMET059METAR EDMA 141850Z 27014KT CAVOK 03/M01 Q1018 RMK ATIS SIE=
0086108520999992015011419204+48425+010932FM-15+046299999V0202601N007219999999Y999999999+00301-00101999999ADDMA1101901999999REMMET059METAR EDMA 141920Z 26014KT CAVOK 03/M01 Q1019 RMK ATIS TAN=
0086108520999992015011419504+48425+010932FM-15+046299999V0202601N005119999999Y999999999+00301-00101999999ADDMA1101901999999REMMET059METAR EDMA 141950Z 26010KT CAVOK 03/M01 Q1019 RMK ATIS UNI=
0085108520999992015011504504+48425+010932FM-15+046299999V0201801N004119999999Y999999999+00101+00101999999ADDMA1101501999999REMMET058METAR EDMA 150450Z 18008KT CAVOK 01/01 Q1015 RMK ATIS MIK=
0085108520999992015011505204+48425+010932FM-15+046299999V0201701N003619999999Y999999999+00101+00101999999ADDMA1101501999999REMMET058METAR EDMA 150520Z 17007KT CAVOK 01/01 Q1015 RMK ATIS NOV=
0085108520999992015011505504+48425+010932FM-15+046299999V0201701N003119999999Y999999999+00001+00001999999ADDMA1101401999999REMMET058METAR EDMA 150550Z 17006KT CAVOK 00/00 Q1014 RMK ATIS OSC=
0085108520999992015011506204+48425+010932FM-15+046299999V0201701N003619999999Y999999999+00101+00101999999ADDMA1101401999999REMMET058METAR EDMA 150620Z 17007KT CAVOK 01/01 Q1014 RMK ATIS PAP=
0085108520999992015011506504+48425+010932FM-15+046299999V0201701N003119999999Y999999999+00101+00101999999ADDMA1101401999999REMMET058METAR EDMA 150650Z 17006KT CAVOK 01/01 Q1014 RMK ATIS QUE=
0085108520999992015011507204+48425+010932FM-15+046299999V0201501N001519999999Y999999999+00101+00101999999ADDMA1101401999999REMMET058METAR EDMA 150720Z 15003KT CAVOK 01/01 Q1014 RMK ATIS ROM=
0085108520999992015011507504+48425+010932FM-15+046299999V0201601N003619999999Y999999999+00101+00001999999ADDMA1101401999999REMMET058METAR EDMA 150750Z 16007KT CAVOK 01/00 Q1014 RMK ATIS SIE=
0086108520999992015011508204+48425+010932FM-15+046299999V0201801N003619999999Y999999999+00101+00001999999ADDMA1101401999999REMMET059METAR EDMA 150820Z 18007KT CAVOK 01/M00 Q1014 RMK ATIS TAN=
0094108520999992015011508504+48425+010932FM-15+046299999V0201701V003119999999Y999999999+00201-00101999999ADDMA1101401999999REMMET067METAR EDMA 150850Z 17006KT 140V210 CAVOK 02/M01 Q1014 RMK ATIS UNI=
0086108520999992015011509204+48425+010932FM-15+046299999V0201601N003619999999Y999999999+00301-00101999999ADDMA1101301999999REMMET059METAR EDMA 150920Z 16007KT CAVOK 03/M01 Q1013 RMK ATIS VIC=
0086108520999992015011509504+48425+010932FM-15+046299999V0201701N004619999999Y999999999+00401+00001999999ADDMA1101301999999REMMET059METAR EDMA 150950Z 17009KT CAVOK 04/M00 Q1013 RMK ATIS WHI=
0086108520999992015011510204+48425+010932FM-15+046299999V0201701N004119999999Y999999999+00401+00001999999ADDMA1101301999999REMMET059METAR EDMA 151020Z 17008KT CAVOK 04/M00 Q1013 RMK ATIS X-R=
0086108520999992015011510504+48425+010932FM-15+046299999V0201801N004119999999Y999999999+00501-00101999999ADDMA1101201999999REMMET059METAR EDMA 151050Z 18008KT CAVOK 05/M01 Q1012 RMK ATIS YAN=
0086108520999992015011511204+48425+010932FM-15+046299999V0201701N003119999999Y999999999+00601+00001999999ADDMA1101201999999REMMET059METAR EDMA 151120Z 17006KT CAVOK 06/M00 Q1012 RMK ATIS ZUL=
0086108520999992015011511504+48425+010932FM-15+046299999V0201701N003119999999Y999999999+00701+00001999999ADDMA1101201999999REMMET059METAR EDMA 151150Z 17006KT CAVOK 07/M00 Q1012 RMK ATIS ALF=
0086108520999992015011512204+48425+010932FM-15+046299999V0201701N003619999999Y999999999+00701+00001999999ADDMA1101101999999REMMET059METAR EDMA 151220Z 17007KT CAVOK 07/M00 Q1011 RMK ATIS BRA=
0085108520999992015011512504+48425+010932FM-15+046299999V0201801N003619999999Y999999999+00701+00101999999ADDMA1101101999999REMMET058METAR EDMA 151250Z 18007KT CAVOK 07/01 Q1011 RMK ATIS CHA=
0086108520999992015011513204+48425+010932FM-15+046299999V0201601N003619999999Y999999999+00801+00001999999ADDMA1101001999999REMMET059METAR EDMA 151320Z 16007KT CAVOK 08/M00 Q1010 RMK ATIS DEL=
0086108520999992015011513504+48425+010932FM-15+046299999V0201501N003619999999Y999999999+00701-00101999999ADDMA1101001999999REMMET059METAR EDMA 151350Z 15007KT CAVOK 07/M01 Q1010 RMK ATIS ECH=
0086108520999992015011514204+48425+010932FM-15+046299999V0201601N003119999999Y999999999+00701-00101999999ADDMA1101001999999REMMET059METAR EDMA 151420Z 16006KT CAVOK 07/M01 Q1010 RMK ATIS FOX=
0086108520999992015011514504+48425+010932FM-15+046299999V0201601N002619999999Y999999999+00701+00001999999ADDMA1100901999999REMMET059METAR EDMA 151450Z 16005KT CAVOK 07/M00 Q1009 RMK ATIS GOL=
0085108520999992015011515204+48425+010932FM-15+046299999V0201501N001019999999Y999999999+00701+00001999999ADDMA1100901999999REMMET058METAR EDMA 151520Z 15002KT CAVOK 07/00 Q1009 RMK ATIS HOT=
0085108520999992015011515504+48425+010932FM-15+046299999V0201701N001519999999Y999999999+00601+00001999999ADDMA1100901999999REMMET058METAR EDMA 151550Z 17003KT CAVOK 06/00 Q1009 RMK ATIS IND=
0085108520999992015011516204+48425+010932FM-15+046299999V0209999V001019999999Y999999999+00501+00001999999ADDMA1100901999999REMMET058METAR EDMA 151620Z VRB02KT CAVOK 05/00 Q1009 RMK ATIS JUL=
0085108520999992015011516504+48425+010932FM-15+046299999V0201601N001519999999Y999999999+00501+00101999999ADDMA1100901999999REMMET058METAR EDMA 151650Z 16003KT CAVOK 05/01 Q1009 RMK ATIS KIL=
0085108520999992015011517204+48425+010932FM-15+046299999V0201601N002119999999Y999999999+00501+00001999999ADDMA1100901999999REMMET058METAR EDMA 151720Z 16004KT CAVOK 05/00 Q1009 RMK ATIS LIM=
0085108520999992015011517504+48425+010932FM-15+046299999V0209999V001019999999Y999999999+00401+00101999999ADDMA1100901999999REMMET058METAR EDMA 151750Z VRB02KT CAVOK 04/01 Q1009 RMK ATIS MIK=
0086108520999992015011518204+48425+010932FM-15+046299999V0201501N002619999999Y999999999+00501+00001999999ADDMA1100801999999REMMET059METAR EDMA 151820Z 15005KT CAVOK 05/M00 Q1008 RMK ATIS NOV=
0086108520999992015011518504+48425+010932FM-15+046299999V0201601N002119999999Y999999999+00401-00101999999ADDMA1100801999999REMMET059METAR EDMA 151850Z 16004KT CAVOK 04/M01 Q1008 RMK ATIS OSC=
0086108520999992015011519204+48425+010932FM-15+046299999V0209999V001019999999Y999999999+00401-00101999999ADDMA1100801999999REMMET059METAR EDMA 151920Z VRB02KT CAVOK 04/M01 Q1008 RMK ATIS PAP=
0094108520999992015011519504+48425+010932FM-15+046299999V0201801V001519999999Y999999999+00201-00101999999ADDMA1100801999999REMMET067METAR EDMA 151950Z 18003KT 140V250 CAVOK 02/M01 Q1008 RMK ATIS QUE=
0086108520999992015011606504+48425+010932FM-15+046299999V0201401N002119999999Y999999999+00001-00101999999ADDMA1100801999999REMMET059METAR EDMA 160650Z 14004KT CAVOK 00/M01 Q1008 RMK ATIS MIK=
0086108520999992015011607204+48425+010932FM-15+046299999V0201501N002119999999Y999999999+00001+00001999999ADDMA1100801999999REMMET059METAR EDMA 160720Z 15004KT CAVOK 00/M00 Q1008 RMK ATIS NOV=
0086108520999992015011607504+48425+010932FM-15+046299999V0201901N002119999999Y999999999+00101+00001999999ADDMA1100801999999REMMET059METAR EDMA 160750Z 19004KT CAVOK 01/M00 Q1008 RMK ATIS OSC=
0094108520999992015011608204+48425+010932FM-15+046299999V0201501V001519999999Y999999999+00201+00001999999ADDMA1100801999999REMMET067METAR EDMA 160820Z 15003KT 090V180 CAVOK 02/M00 Q1008 RMK ATIS PAP=
0085108520999992015011608504+48425+010932FM-15+046299999V0209999V000519999999Y999999999+00201+00001999999ADDMA1100801999999REMMET058METAR EDMA 160850Z VRB01KT CAVOK 02/00 Q1008 RMK ATIS QUE=
0093108520999992015011609204+48425+010932FM-15+046299999V0201501V001519999999Y999999999+00201+00101999999ADDMA1100801999999REMMET066METAR EDMA 160920Z 15003KT 120V190 CAVOK 02/01 Q1008 RMK ATIS ROM=
0094108520999992015011609504+48425+010932FM-15+046299999V0201601V002119999999Y999999999+00301-00101999999ADDMA1100801999999REMMET067METAR EDMA 160950Z 16004KT 120V220 CAVOK 03/M01 Q1008 RMK ATIS SIE=
0086108520999992015011610204+48425+010932FM-15+046299999V0202301N001519999999Y999999999+00301-00101999999ADDMA1100801999999REMMET059METAR EDMA 161020Z 23003KT CAVOK 03/M01 Q1008 RMK ATIS TAN=
0086108520999992015011610504+48425+010932FM-15+046299999V0200501N001019999999Y999999999+00301-00101999999ADDMA1100801999999REMMET059METAR EDMA 161050Z 05002KT CAVOK 03/M01 Q1008 RMK ATIS UNI=
0086108520999992015011611204+48425+010932FM-15+046299999V0203601N001019999999Y999999999+00401-00101999999ADDMA1100701999999REMMET059METAR EDMA 161120Z 36002KT CAVOK 04/M01 Q1007 RMK ATIS VIC=
0094108520999992015011611504+48425+010932FM-15+046299999V0203301V002119999999Y999999999+00501+00001999999ADDMA1100701999999REMMET067METAR EDMA 161150Z 33004KT 300V010 CAVOK 05/M00 Q1007 RMK ATIS WHI=
0093108520999992015011612204+48425+010932FM-15+046299999V0203601V001519999999Y999999999+00501+00001999999ADDMA1100701999999REMMET066METAR EDMA 161220Z 36003KT 330V030 CAVOK 05/00 Q1007 RMK ATIS X-R=
0093108520999992015011612504+48425+010932FM-15+046299999V0200201V002619999999Y999999999+00501+00001999999ADDMA1100601999999REMMET066METAR EDMA 161250Z 02005KT 320V040 CAVOK 05/00 Q1006 RMK ATIS YAN=
0086108520999992015011613204+48425+010932FM-15+046299999V0200301N003119999999Y999999999+00501+00001999999ADDMA1100601999999REMMET059METAR EDMA 161320Z 03006KT CAVOK 05/M00 Q1006 RMK ATIS ZUL=
0085108520999992015011613504+48425+010932FM-15+046299999V0200501N002619999999Y999999999+00501+00001999999ADDMA1100501999999REMMET058METAR EDMA 161350Z 05005KT CAVOK 05/00 Q1005 RMK ATIS ALF=
0085108520999992015011614204+48425+010932FM-15+046299999V0200601N002119999999Y999999999+00501+00001999999ADDMA1100501999999REMMET058METAR EDMA 161420Z 06004KT CAVOK 05/00 Q1005 RMK ATIS BRA=
0085108520999992015011614504+48425+010932FM-15+046299999V0209999V001019999999Y999999999+00501+00001999999ADDMA1100501999999REMMET058METAR EDMA 161450Z VRB02KT CAVOK 05/00 Q1005 RMK ATIS CHA=
0085108520999992015011615204+48425+010932FM-15+046299999V0200201N001519999999Y999999999+00401+00101999999ADDMA1100501999999REMMET058METAR EDMA 161520Z 02003KT CAVOK 04/01 Q1005 RMK ATIS DEL=
0085108520999992015011615504+48425+010932FM-15+046299999V0200301N001519999999Y999999999+00301+00101999999ADDMA1100501999999REMMET058METAR EDMA 161550Z 03003KT CAVOK 03/01 Q1005 RMK ATIS ECH=
0093108520999992015011616204+48425+010932FM-15+046299999V0200701V001519999999Y999999999+00201+00101999999ADDMA1100501999999REMMET066METAR EDMA 161620Z 07003KT 010V090 CAVOK 02/01 Q1005 RMK ATIS FOX=
0093108520999992015011616504+48425+010932FM-15+046299999V0200501V001519999999Y999999999+00201+00101999999ADDMA1100501999999REMMET066METAR EDMA 161650Z 05003KT 330V080 CAVOK 02/01 Q1005 RMK ATIS GOL=
0085108520999992015011617204+48425+010932FM-15+046299999V0200301N001519999999Y999999999+00301+00201999999ADDMA1100501999999REMMET058METAR EDMA 161720Z 03003KT CAVOK 03/02 Q1005 RMK ATIS HOT=
0085108520999992015011617504+48425+010932FM-15+046299999V0209999V001019999999Y999999999+00201+00201999999ADDMA1100501999999REMMET058METAR EDMA 161750Z VRB02KT CAVOK 02/02 Q1005 RMK ATIS IND=
0085108520999992015011618204+48425+010932FM-15+046299999V0203301N003119999999Y999999999+00201+00201999999ADDMA1100501999999REMMET058METAR EDMA 161820Z 33006KT CAVOK 02/02 Q1005 RMK ATIS JUL=
0085108520999992015011618504+48425+010932FM-15+046299999V0203401N002619999999Y999999999+00201+00201999999ADDMA1100501999999REMMET058METAR EDMA 161850Z 34005KT CAVOK 02/02 Q1005 RMK ATIS KIL=
0085108520999992015011619204+48425+010932FM-15+046299999V0203301N002119999999Y999999999+00101+00101999999ADDMA1100501999999REMMET058METAR EDMA 161920Z 33004KT CAVOK 01/01 Q1005 RMK ATIS LIM=
