0135108600999992011010415304+48717+011533FM-16+0365ETSI V0200601N001510066019N0035001N1-00501-00501999999ADDGA1071+006601999GF107991999999999999999999MA1101691999999MW1101REMMET060SPECI ETSI 041530Z 06003KT 3500 BR BKN022 M05/M05 Q1017 YLO;
0135108600999992011010416204+48717+011533FM-15+0365ETSI V0200701N001510069019N0040001N1-00501-00501999999ADDGA1071+006901999GF107991999999999999999999MA1101691999999MW1101REMMET060METAR ETSI 041620Z 07003KT 4000 BR BKN023 M05/M05 Q1017 GRN;
0192108600999992011010710484+48717+011533FM-16+0365ETSI V0200601N00151011401CN0020001N1+00301+00301999999ADDGA1021+000301999GA2041+011401999GA3071+018001999GF107991999999999999999999MA1101291999999MW1121MW2401REMMET079SPECI ETSI 071048Z 06003KT 2000 VCFG MIFG FEW001 SCT038 BKN060 03/03 Q1013 YLO;
0189108600999992011010711114+48717+011533FM-16+0365ETSI V0200601N00211011401CN0014001N1+00301+00301999999ADDGA1021+000301999GA2041+011401999GA3071+018001999GF107991999999999999999999MA1101291999999MW1101MW2611REMMET076SPECI ETSI 071111Z 06004KT 1400 -RA BR FEW001 SCT038 BKN060 03/03 Q1013 AMB;
0189108600999992011010711204+48717+011533FM-15+0365ETSI V0200801N00211009001CN0014001N1+00301+00301999999ADDGA1021+000301999GA2041+009001999GA3071+018001999GF107991999999999999999999MA1101291999999MW1101MW2611REMMET076METAR ETSI 071120Z 08004KT 1400 -RA BR FEW001 SCT030 BKN060 03/03 Q1013 AMB;
0166108600999992011010712204+48717+011533FM-15+0365ETSI V0200701N002610180019N0016001N1+00301+00301999999ADDGA1021+000301999GA2071+018001999GF107991999999999999999999MA1101191999999MW1101MW2611REMMET069METAR ETSI 071220Z 07005KT 1600 -RA BR FEW001 BKN060 03/03 Q1012 YLO;
0166108600999992011010716204+48717+011533FM-15+0365ETSI V0200601N003110210019N0015001N1+00201+00201999999ADDGA1021+000301999GA2071+021001999GF107991999999999999999999MA1101191999999MW1101MW2611REMMET069METAR ETSI 071620Z 06006KT 1500 -RA BR FEW001 BKN070 02/02 Q1012 AMB;
0133108600999992011010717204+48717+011533FM-15+0365ETSI V0200601N002110210019N0018001N1+00201+00201999999ADDGA1071+021001999GF107991999999999999999999MA1101191999999MW1101REMMET058METAR ETSI 071720Z 06004KT 1800 BR BKN070 02/02 Q1012 YLO;
0135108600999992011010810204+48717+011533FM-15+0365ETSI V0200901N001510180019N0012001N1+00201+00201999999ADDGA1071+018001999GF107991999999999999999999MA1101391999999MW1401REMMET060METAR ETSI 081020Z 09003KT 1200 VCFG BKN060 02/02 Q1014 AMB;
0133108600999992011010811204+48717+011533FM-15+0365ETSI V0200601N001512200019N0010001N1+00501+00501999999ADDGA1041+024001999GF104991999999999999999999MA1101391999999MW1101REMMET058METAR ETSI 081120Z 06003KT 1000 BR SCT080 05/05 Q1014 AMB;
0135108600999992011010812004+48717+011533FM-15+0365ETSI V0200301N001012200019N0045001N1+00701+00401999999ADDGA1041+030001999GF104991999999999999999999MA1101291999999MW1401REMMET060SPECI ETSI 081156Z 03002KT 4500 VCFG SCT100 07/04 Q1013 GRN;
0135108600999992011010812204+48717+011533FM-15+0365ETSI V0200201N001012200019N0045001N1+00701+00401999999ADDGA1041+030001999GF104991999999999999999999MA1101291999999MW1401REMMET060METAR ETSI 081220Z 02002KT 4500 VCFG SCT100 07/04 Q1013 GRN;
0133108600999992011010819324+48717+011533FM-16+0365ETSI V0200701N002110240019N0004001N1+00101+00101999999ADDGA1071+024001999GF107991999999999999999999MA1101291999999MW1441REMMET058SPECI ETSI 081932Z 07004KT 0400 FG BKN080 01/01 Q1013 RED;
0135108600999992011010908204+48717+011533FM-15+0365ETSI V0200901N001510480019N0035001N1+00001+00001999999ADDGA1071+048001999GF107991999999999999999999MA1101291999999MW1401REMMET060METAR ETSI 090820Z 09003KT 3500 VCFG BKN160 00/00 Q1013 YLO;
0135108600999992011010909204+48717+011533FM-15+0365ETSI V0200601N001010420019N0035001N1+00101+00101999999ADDGA1071+042001999GF107991999999999999999999MA1101291999999MW1401REMMET060METAR ETSI 090920Z 06002KT 3500 VCFG BKN140 01/01 Q1013 YLO;
0158108600999992011010910204+48717+011533FM-15+0365ETSI V0200701N001010720019N0040001N1+00201+00201999999ADDGA1041+042001999GA2071+072001999GF107991999999999999999999MA1101191999999MW1401REMMET067METAR ETSI 091020Z 07002KT 4000 VCFG SCT140 BKN240 02/02 Q1012 GRN;
0157108600999992011010920004+48717+011533FM-15+0365ETSI V0202101N001010096019N0070001N1+00101+00101999999ADDGA1041+005401999GA2071+009601999GF107991999999999999999999MA1101591999999MW1611REMMET066SPECI ETSI 091959Z 21002KT 7000 -RA SCT018 BKN032 01/01 Q1016 WHT;
0157108600999992011010920204+48717+011533FM-15+0365ETSI V0202601N001010096019N0070001N1+00201+00201999999ADDGA1041+005401999GA2071+009601999GF107991999999999999999999MA1101591999999MW1611REMMET066METAR ETSI 092020Z 26002KT 7000 -RA SCT018 BKN032 02/02 Q1016 WHT;
0147108600999992011011004204+48717+011533FM-15+0365ETSI V0202601N001510090019N0112651N1+00101+00101999999ADDGA1071+009001999GA2071+030001999GF107991999999999999999999MA1102001999999REMMET062METAR ETSI 100420Z 26003KT 9999 BKN030 BKN100 01/01 Q1020 BLU;
0187108600999992011011005004+48717+011533FM-12+0365ETSI V0202701N002010090019N0150001N1+00091+00061102261ADDGA1051+009001061GA2031+015001061GF107991061051008001031999MA1999999097731MD1210061+9999REMSYN088AAXX  10051 10860 43565 72702 10009 20006 39773 40226 52006 8653/ 333 85630 83650 87360;
0161108600999992011011005204+48717+011533FM-15+0365ETSI V0202601N001510090019N0112651N1+00101+00101999999ADDGA1021+003001999GA2071+009001999GF107991999999999999999999MA1102001999999REMMET076METAR ETSI 100520Z 26003KT 9999 FEW010 BKN030 01/01 Q1020 BLU BLU TEMPO GRN;
0161108600999992011011005374+48717+011533FM-16+0365ETSI V0202801N001510030019N0112651N1+00101+00101999999ADDGA1071+003001999GA2071+009001999GF107991999999999999999999MA1102001999999REMMET076SPECI ETSI 100537Z 28003KT 9999 BKN010 BKN030 01/01 Q1020 GRN BLU TEMPO GRN;
0138108600999992011011006204+48717+011533FM-15+0365ETSI V0202601N001510021019N0090001N1+00101+00101999999ADDGA1071+002101999GF107991999999999999999999MA1102101999999REMMET069METAR ETSI 100620Z 26003KT 9000 BKN007 01/01 Q1021 GRN BLU TEMPO GRN;
0235108600999992011011007004+48717+011533FM-12+0365ETSI V0202901N001010021019N0070001N1+00091+00061102361ADDAY121999AY221999GA1071+002101061GF107991071051002501999999MA1999999097831MD1210131+9999MW1101REMSYN130AAXX  10071 10860 41357 72901 10009 20006 39783 40236 52013 71022 875// 333 87607 555 BOT 10002 20004 30009 40024 50042 999 42///;
0138108600999992011011007204+48717+011533FM-15+0365ETSI V0203401N000510021019N0070001N1+00101+00101999999ADDGA1081+002101999GF108991999999999999999999MA1102201999999REMMET069METAR ETSI 100720Z 34001KT 7000 OVC007 01/01 Q1022 GRN BLU TEMPO GRN;
0187108600999992011011008004+48717+011533FM-12+0365ETSI V0209999C000010021019N0070001N1+00111+00071102411ADDAY121999AY221999GA1081+002101061GF108991081051002501999999MA1999999097881MD1210151+9999MW1101REMSYN082AAXX  10081 10860 41357 80000 10011 20007 39788 40241 52015 71022 885// 333 88607;
0138108600999992011011008204+48717+011533FM-15+0365ETSI V0209999C000010021019N0070001N1+00101+00101999999ADDGA1081+002101999GF108991999999999999999999MA1102201999999REMMET069METAR ETSI 100820Z 00000KT 7000 OVC007 01/01 Q1022 GRN BLU TEMPO GRN;
0138108600999992011011009204+48717+011533FM-15+0365ETSI V0203601N001010024019N0070001N1+00101+00101999999ADDGA1081+002401999GF108991999999999999999999MA1102201999999REMMET069METAR ETSI 100920Z 36002KT 7000 OVC008 01/01 Q1022 GRN BLU TEMPO GRN;
0187108600999992011011010004+48717+011533FM-12+0365ETSI V0209999C000010027019N0070001N1+00161+00041102441ADDAY121999AY221999GA1081+002701061GF108991081051002501999999MA1999999097921MD1210091+9999MW1101REMSYN082AAXX  10101 10860 41357 80000 10016 20004 39792 40244 52009 71022 885// 333 88609;
0138108600999992011011010204+48717+011533FM-15+0365ETSI V0200101N001510021019N0080001N1+00201+00001999999ADDGA1081+002101999GF108991999999999999999999MA1102201999999REMMET069METAR ETSI 101020Z 01003KT 8000 OVC007 02/00 Q1022 GRN BLU TEMPO GRN;
0159108600999992011011011004+48717+011533FM-12+0365ETSI V0203201N002010021019N0080001N1+00201+00061102411ADDGA1081+002101061GF108991081051002501999999MA1999999097901MD1010021+9999REMSYN076AAXX  10111 10860 42358 83202 10020 20006 39790 40241 50002 885// 333 88607;
0161108600999992011011011204+48717+011533FM-15+0365ETSI V0200301N001010021019N0080001N1+00201+00001999999ADDGA1021+001801999GA2081+002101999GF108991999999999999999999MA1102201999999REMMET076METAR ETSI 101120Z 03002KT 8000 FEW006 OVC007 02/00 Q1022 GRN BLU TEMPO GRN;
0128108600999992011011012204+48717+011533FM-15+0365ETSI V0203001N001510021019N0080001N1+00201+00101999999ADDGA1081+002101999GF108991999999999999999999MA1102101999999REMMET059METAR ETSI 101220Z 30003KT 8000 OVC007 02/01 Q1021 GRN GRN;
0187108600999992011011013004+48717+011533FM-12+0365ETSI V0202901N002010027019N0080001N1+00231+00051102281ADDAY171999AY271999GA1071+002701061GF107991071051002501999999MA1999999097781MD1810141+9999MW1501REMSYN082AAXX  10131 10860 41358 72902 10023 20005 39778 40228 58014 75077 875// 333 87609;
0169108600999992011011013204+48717+011533FM-15+0365ETSI V0202701N001010027019N0080001N1+00201+00101999999ADDGA1021+001801999GA2071+002701999GF107991999999999999999999MA1102101999999MW1611MW2711REMMET072METAR ETSI 101320Z 27002KT 8000 -SNRA FEW006 BKN009 02/01 Q1021 GRN GRN;
0251108600999992011011014004+48717+011533FM-12+0365ETSI V0202601N001010027019N0080001N1+00211+00061102281ADDAY171999AY251999GA1011+002101071GA2071+002701061GF107991071051002501999999MA1999999097771MD1610131+9999MW1231REMSYN130AAXX  10141 10860 41358 72601 10021 20006 39777 40228 56013 72375 875// 333 81707 87609 555 BOT 10002 20005 30009 40023 999 42///;
0128108600999992011011014204+48717+011533FM-15+0365ETSI V0202601N001510027019N0080001N1+00201+00101999999ADDGA1071+002701999GF107991999999999999999999MA1102001999999REMMET059METAR ETSI 101420Z 26003KT 8000 BKN009 02/01 Q1020 GRN GRN;
0128108600999992011011015204+48717+011533FM-15+0365ETSI V0202401N001010036019N0080001N1+00201+00101999999ADDGA1071+003601999GF107991999999999999999999MA1102001999999REMMET059METAR ETSI 101520Z 24002KT 8000 BKN012 02/01 Q1020 GRN GRN;
0159108600999992011011016004+48717+011533FM-12+0365ETSI V0209999V001010033019N0080001N1+00121+00051102231ADDGA1081+003301061GF108991081051004501999999MA1999999097711MD1810071+9999REMSYN076AAXX  10161 10860 42458 89901 10012 20005 39771 40223 58007 885// 333 88611;
0136108600999992011011016204+48717+011533FM-15+0365ETSI V0209999C000010033019N0080001N1+00101+00101999999ADDGA1081+003301999GF108991999999999999999999MA1102001999999REMMET067METAR ETSI 101620Z 00000KT 8000 OVC011 01/01 Q1020 GRN FCST CANCEL;
0159108600999992011011017004+48717+011533FM-12+0365ETSI V0200101N001010036019N0080001N1+00111+00071102191ADDGA1081+003601061GF108991081051004501999999MA1999999097671MD1810101+9999REMSYN076AAXX  10171 10860 42458 80101 10011 20007 39767 40219 58010 885// 333 88612;
0156108600999992011011017204+48717+011533FM-15+0365ETSI V0201801N001510027019N0050001N1+00101+00101999999ADDGA1021+001801999GA2081+002701999GF108991999999999999999999MA1102001999999MW1101REMMET065METAR ETSI 101720Z 18003KT 5000 BR FEW006 OVC009 01/01 Q1020 GRN;
0156108600999992011011018204+48717+011533FM-15+0365ETSI V0201901N001010021019N0050001N1+00101+00101999999ADDGA1071+002101999GA2081+003001999GF108991999999999999999999MA1101901999999MW1101REMMET065METAR ETSI 101820Z 19002KT 5000 BR BKN007 OVC010 01/01 Q1019 GRN;
0136108600999992011011104004+48717+011533FM-16+0365ETSI V0209999V000510003019N0004001N1+00101+00101999999ADDGA1091+000301999GF109991999999000251999999MA1101491999999MW1451REMMET061SPECI ETSI 110400Z VRB01KT 0400 FG VV001 01/01 Q1015 RED RED;
0136108600999992011011104204+48717+011533FM-15+0365ETSI V0202801N000510003019N0004001N1+00101+00101999999ADDGA1091+000301999GF109991999999000251999999MA1101491999999MW1451REMMET061METAR ETSI 110420Z 28001KT 0400 FG VV001 01/01 Q1015 RED RED;
0180108600999992011011105204+48717+011533FM-15+0365ETSI V0201001N001010012019N0005001N1+00101+00101999999ADDGA1041+000301999GA2081+001201999GF108991999999999999999999MA1101391999999MW1441MW2511REMMET083METAR ETSI 110520Z 10002KT 0500 -DZ FG SCT001 OVC004 01/01 Q1014 RED AMB TEMPO RED;
0180108600999992011011105334+48717+011533FM-16+0365ETSI V0201301N001010012019N0008001N1+00001+00001999999ADDGA1021+000301999GA2081+001201999GF108991999999999999999999MA1101391999999MW1441MW2511REMMET083SPECI ETSI 110533Z 13002KT 0800 -DZ FG FEW001 OVC004 00/00 Q1014 AMB AMB TEMPO RED;
0157108600999992011011106204+48717+011533FM-15+0365ETSI V0202001N001010009019N0012001N1+00101+00101999999ADDGA1081+000901999GF108991999999999999999999MA1101391999999MW1101MW2511REMMET076METAR ETSI 110620Z 20002KT 1200 -DZ BR OVC003 01/01 Q1014 AMB AMB TEMPO RED;
0147108600999992011011106454+48717+011533FM-16+0365ETSI V0209999V000510009019N0005001N1+00101+00101999999ADDGA1081+000901999GF108991999999999999999999MA1101391999999MW1441REMMET072SPECI ETSI 110645Z VRB01KT 0500 FG OVC003 01/01 Q1014 RED AMB TEMPO RED;
0235108600999992011011107004+48717+011533FM-12+0365ETSI V0209999V001010009019N0005001N1+00061+00051101591ADDAY151999AY221999GA1081+000901061GF108991081051000751999999MA1999999097091MD1710111+9999MW1461REMSYN130AAXX  11071 10860 41105 89901 10006 20005 39709 40159 57011 74652 885// 333 88603 555 BOT 10002 20004 30009 40023 50042 999 42///;
0193108600999992011011107204+48717+011533FM-15+0365ETSI V0201101N00101001201CN0008001N1+00101+00101999999ADDGA1021+000301999GA2041+001201999GA3081+001801999GF108991999999999999999999MA1101291999999MW1441REMMET086METAR ETSI 110720Z 11002KT 0800 FG FEW001 SCT004 OVC006 01/01 Q1013 AMB AMB TEMPO RED;
0170108600999992011011107444+48717+011533FM-16+0365ETSI V0201501N001510018019N0016001N1+00101+00101999999ADDGA1041+001201999GA2081+001801999GF108991999999999999999999MA1101291999999MW1101REMMET079SPECI ETSI 110744Z 15003KT 1600 BR SCT004 OVC006 01/01 Q1013 YLO AMB TEMPO RED;
0193108600999992011011108004+48717+011533FM-12+0365ETSI V0201501N00201001201CN0016001N1+00061+00061101541ADDAY141999AY221999GA1031+001201071GF108991081051001501999999MA1999999097041MD1710111+9999MW1281REMSYN088AAXX  11081 10860 41216 81502 10006 20006 39704 40154 57011 72842 885// 333 83704 88606;
0160108600999992011011108204+48717+011533FM-15+0365ETSI V0201901N001510018019N0025001N1+00101+00101999999ADDGA1071+001801999GA2081+003301999GF108991999999999999999999MA1101291999999MW1101REMMET069METAR ETSI 110820Z 19003KT 2500 BR BKN006 OVC011 01/01 Q1013 YLO YLO;
0160108600999992011011108434+48717+011533FM-16+0365ETSI V0201901N001010018019N0030001N1+00101+00101999999ADDGA1071+001801999GA2081+003001999GF108991999999999999999999MA1101291999999MW1101REMMET069SPECI ETSI 110843Z 19002KT 3000 BR BKN006 OVC010 01/01 Q1013 YLO YLO;
0160108600999992011011109014+48717+011533FM-16+0365ETSI V0202101N002110024019N0040001N1+00101+00101999999ADDGA1041+001801999GA2081+002401999GF108991999999999999999999MA1101291999999MW1101REMMET069SPECI ETSI 110901Z 21004KT 4000 BR SCT006 OVC008 01/01 Q1013 GRN GRN;
0160108600999992011011109204+48717+011533FM-15+0365ETSI V0202201N002610024019N0050001N1+00101+00101999999ADDGA1041+001801999GA2081+002401999GF108991999999999999999999MA1101291999999MW1101REMMET069METAR ETSI 110920Z 22005KT 5000 BR SCT006 OVC008 01/01 Q1013 GRN GRN;
0193108600999992011011110004+48717+011533FM-12+0365ETSI V0202101N00201001201CN0060001N1+00101+00071101481ADDAY121999AY221999GA1031+001501071GF108991081051001501999999MA1999999096991MD1710101+9999MW1101REMSYN088AAXX  11101 10860 41256 82102 10010 20007 39699 40148 57010 71022 885// 333 83705 88607;
0138108600999992011011110014+48717+011533FM-16+0365ETSI V0202101N002110015019N0060001N1+00101+00101999999ADDGA1081+001501999GF108991999999999999999999MA1101191999999REMMET069SPECI ETSI 111001Z 21004KT 6000 OVC005 01/01 Q1012 YLO GRN TEMPO YLO;
0138108600999992011011110204+48717+011533FM-15+0365ETSI V0202301N002610018019N0060001N1+00101+00101999999ADDGA1081+001801999GF108991999999999999999999MA1101191999999REMMET069METAR ETSI 111020Z 23005KT 6000 OVC006 01/01 Q1012 YLO GRN TEMPO YLO;
0187108600999992011011111004+48717+011533FM-12+0365ETSI V0201701N002010015019N0050001N1+00091+00041101381ADDAY121999AY221999GA1081+001501071GF108991081061001501999999MA1999999096891MD1710151+9999MW1511REMSYN082AAXX  11111 10860 41250 81702 10009 20004 39689 40138 57015 75122 886// 333 88705;
0147108600999992011011111084+48717+011533FM-16+0365ETSI V0201801N001510015019N0045001N1+00101+00001999999ADDGA1081+001501999GF108991999999999999999999MA1101081999999MW1101REMMET072SPECI ETSI 111108Z 18003KT 4500 BR OVC005 01/00 Q1011 YLO GRN TEMPO YLO;
0147108600999992011011111204+48717+011533FM-15+0365ETSI V0202201N001510015019N0050001N1+00101+00101999999ADDGA1081+001501999GF108991999999999999999999MA1101081999999MW1101REMMET072METAR ETSI 111120Z 22003KT 5000 BR OVC005 01/01 Q1011 YLO GRN TEMPO YLO;
0137108600999992011011111324+48717+011533FM-16+0365ETSI V0202401N001010015019N0050001N1+00101+00001999999ADDGA1081+001501999GF108991999999999999999999MA1101081999999MW1101REMMET062SPECI ETSI 111132Z 24002KT 5000 BR OVC005 01/00 Q1011 YLO YLO;
0137108600999992011011112204+48717+011533FM-15+0365ETSI V0202001N002110015019N0050001N1+00101+00001999999ADDGA1081+001501999GF108991999999999999999999MA1101021999999MW1101REMMET062METAR ETSI 111220Z 20004KT 5000 BR OVC005 01/00 Q1010 YLO YLO;
0187108600999992011011113004+48717+011533FM-12+0365ETSI V0201801N002010015019N0050001N1+00111+00031101211ADDAY121999AY221999GA1081+001501071GF108991081061001501999999MA1999999096731MD1710261+9999MW1101REMSYN082AAXX  11131 10860 41250 81802 10011 20003 39673 40121 57026 71022 886// 333 88705;
0137108600999992011011113204+48717+011533FM-15+0365ETSI V0202101N002610015019N0050001N1+00101+00001999999ADDGA1081+001501999GF108991999999999999999999MA1101021999999MW1101REMMET062METAR ETSI 111320Z 21005KT 5000 BR OVC005 01/00 Q1010 YLO YLO;
0229108600999992011011114004+48717+011533FM-12+0365ETSI V0201501N002010015019N0050001N1+00111+00041101191ADDAY121999AY221999GA1081+001501071GF108991081061001501999999MA1999999096711MD1710181+9999MW1101REMSYN124AAXX  11141 10860 41250 81502 10011 20004 39671 40119 57018 71022 886// 333 88705 555 BOT 10002 20005 30009 40023 999 42///;
0137108600999992011011114204+48717+011533FM-15+0365ETSI V0201901N002110015019N0050001N1+00101+00001999999ADDGA1081+001501999GF108991999999999999999999MA1101021999999MW1101REMMET062METAR ETSI 111420Z 19004KT 5000 BR OVC005 01/00 Q1010 YLO YLO;
0137108600999992011011115204+48717+011533FM-15+0365ETSI V0202801N001010015019N0050001N1+00101+00001999999ADDGA1081+001501999GF108991999999999999999999MA1101021999999MW1101REMMET062METAR ETSI 111520Z 28002KT 5000 BR OVC005 01/00 Q1010 YLO YLO;
0145108600999992011011115544+48717+011533FM-16+0365ETSI V0202201N001510012019N0045001N1+00101+00001999999ADDGA1081+001201999GF108991999999999999999999MA1101021999999MW1101REMMET070SPECI ETSI 111554Z 22003KT 4500 BR OVC004 01/00 Q1010 YLO FCST CANCEL;
0187108600999992011011116004+48717+011533FM-12+0365ETSI V0202101N002010012019N0045001N1+00091+00031101231ADDAY121999AY221999GA1081+001201071GF108991081061001501999999MA1999999096751MD1310021+9999MW1101REMSYN082AAXX  11161 10860 41245 82102 10009 20003 39675 40123 53002 71022 886// 333 88704;
0133108600999992011011116204+48717+011533FM-15+0365ETSI V0202401N003110012019N0050001N1+00101+00101999999ADDGA1081+001201999GF108991999999999999999999MA1101081999999MW1101REMMET058METAR ETSI 111620Z 24006KT 5000 BR OVC004 01/01 Q1011 YLO;
0187108600999992011011117004+48717+011533FM-12+0365ETSI V0202401N003010015019N0060001N1+00081+00031101321ADDAY121999AY221999GA1081+001501071GF108991081061001501999999MA1999999096831MD1310121+9999MW1101REMSYN082AAXX  11171 10860 41256 82403 10008 20003 39683 40132 53012 71022 886// 333 88705;
0124108600999992011011117204+48717+011533FM-15+0365ETSI V0202401N002610015019N0070001N1+00101+00101999999ADDGA1081+001501999GF108991999999999999999999MA1101081999999REMMET055METAR ETSI 111720Z 24005KT 7000 OVC005 01/01 Q1011 YLO;
0124108600999992011011118054+48717+011533FM-16+0365ETSI V0202101N002110021019N0070001N1+00101+00101999999ADDGA1081+002101999GF108991999999999999999999MA1101191999999REMMET055SPECI ETSI 111805Z 21004KT 7000 OVC007 01/01 Q1012 GRN;
0124108600999992011011118204+48717+011533FM-15+0365ETSI V0202101N002610021019N0070001N1+00101+00101999999ADDGA1081+002101999GF108991999999999999999999MA1101191999999REMMET055METAR ETSI 111820Z 21005KT 7000 OVC007 01/01 Q1012 GRN;
0147108600999992011011119034+48717+011533FM-16+0365ETSI V0201601N001510111019N0080001N1+00101+00001999999ADDGA1041+002401999GA2071+011101999GF107991999999999999999999MA1101191999999REMMET062SPECI ETSI 111903Z 16003KT 8000 SCT008 BKN037 01/00 Q1012 BLU;
0147108600999992011011119204+48717+011533FM-15+0365ETSI V0201401N001510108019N0060001N1+00101+00101999999ADDGA1041+002401999GA2071+010801999GF107991999999999999999999MA1101191999999REMMET062METAR ETSI 111920Z 14003KT 6000 SCT008 BKN036 01/01 Q1012 WHT;
0124108600999992011011120204+48717+011533FM-15+0365ETSI V0201401N001010057019N0060001N1+00101+00101999999ADDGA1071+005701999GF107991999999999999999999MA1101291999999REMMET055METAR ETSI 112020Z 14002KT 6000 BKN019 01/01 Q1013 WHT;
0124108600999992011011121204+48717+011533FM-15+0365ETSI V0202201N002610042019N0070001N1+00201+00101999999ADDGA1071+004201999GF107991999999999999999999MA1101291999999REMMET055METAR ETSI 112120Z 22005KT 7000 BKN014 02/01 Q1013 GRN;
0147108600999992011011204204+48717+011533FM-15+0365ETSI V0202401N003110042019N0070001N1+00401+00301999999ADDGA1071+004201999GA2071+006901999GF107991999999999999999999MA1101591999999REMMET062METAR ETSI 120420Z 24006KT 7000 BKN014 BKN023 04/03 Q1016 GRN;
0185108600999992011011205004+48717+011533FM-12+0365ETSI V0202401N004010039019N0070001N1+00381+00281101831ADDAY121999GA1051+003901061GF108991081051004501999999MA1999999097371MD1210151+9999MW1101REMSYN088AAXX  12051 10860 41457 82404 10038 20028 39737 40183 52015 7102/ 885// 333 85613 88622;
0161108600999992011011205204+48717+011533FM-15+0365ETSI V0202501N004110039019N0070001N1+00401+00301999999ADDGA1071+003901999GA2081+007201999GF108991999999999999999999MA1101691999999REMMET076METAR ETSI 120520Z 25008KT 7000 BKN013 OVC024 04/03 Q1017 GRN BLU TEMPO GRN;
0161108600999992011011206204+48717+011533FM-15+0365ETSI V0202601N003610066019N0070001N1+00401+00301999999ADDGA1041+004201999GA2071+006601999GF107991999999999999999999MA1101801999999REMMET076METAR ETSI 120620Z 26007KT 7000 SCT014 BKN022 04/03 Q1018 WHT BLU TEMPO GRN;
0251108600999992011011207004+48717+011533FM-12+0365ETSI V0202501N004010105019N0100001N1+00381+00241101981ADDGA1031+007501061GA2051+010501061GA3071+015001061GF107991071051008001999999MA1999999097511MD1210181+9999REMSYN136AAXX  12071 10860 42560 72504 10038 20024 39751 40198 52018 875// 333 83625 85635 87650 555 BOT 10002 20004 30009 40023 50041 999 42///;
0194108600999992011011207204+48717+011533FM-15+0365ETSI V0202501N00461007501CN0112651N1+00401+00201999999ADDGA1021+004501999GA2041+007501999GA3071+009001999GF107991999999999999999999MA1101801999999MW1611REMMET087METAR ETSI 120720Z 25009KT 9999 -RA FEW015 SCT025 BKN030 04/02 Q1018 BLU BLU TEMPO GRN;
0215108600999992011011208004+48717+011533FM-12+0365ETSI V0202701N004010069019N0100001N1+00371+00201102091ADDAY161999AY221999GA1011+004501061GA2051+006901061GF108991071051004501999999MA1999999097621MD1210251+9999MW1601REMSYN094AAXX  12081 10860 41460 82704 10037 20020 39762 40209 52025 76062 875// 333 81615 85623 87635;
0184108600999992011011208204+48717+011533FM-15+0365ETSI V0202601N004110069019N0112651N1+00401+00201999999ADDGA1021+004501999GA2071+006901999GA3071+010501999GF107991999999999999999999MA1101901999999REMMET083METAR ETSI 120820Z 26008KT 9999 FEW015 BKN023 BKN035 04/02 Q1019 WHT BLU TEMPO GRN;
0161108600999992011011209204+48717+011533FM-15+0365ETSI V0202801N003110120019N0112651N1+00401+00201999999ADDGA1021+003601999GA2071+012001999GF107991999999999999999999MA1102001999999REMMET076METAR ETSI 120920Z 28006KT 9999 FEW012 BKN040 04/02 Q1020 BLU BLU TEMPO WHT;
0187108600999992011011210004+48717+011533FM-12+0365ETSI V0202401N003010105019N0250001N1+00411+00151102201ADDGA1011+003601081GA2051+010501061GF107991071081004501999999MA1999999097731MD1210221+9999REMSYN088AAXX  12101 10860 42475 72403 10041 20015 39773 40220 52022 878// 333 81812 85635 87650;
0184108600999992011011210204+48717+011533FM-15+0365ETSI V0202601N00311006901CN0112651N1+00401+00101999999ADDGA1021+003601999GA2041+006901999GA3071+012601999GF107991999999999999999999MA1102001999999REMMET083METAR ETSI 121020Z 26006KT 9999 FEW012 SCT023 BKN042 04/01 Q1020 BLU BLU TEMPO WHT;
0187108600999992011011211004+48717+011533FM-12+0365ETSI V0202401N004010096019N0250001N1+00421+00091102201ADDGA1011+006001081GA2051+009601061GF107991051081008001031999MA1999999097731MD1110111+9999REMSYN088AAXX  12111 10860 42575 72404 10042 20009 39773 40220 51011 8583/ 333 81820 85632 87361;
0161108600999992011011211204+48717+011533FM-15+0365ETSI V0202501N004110075019N0112651N1+00401+00101999999ADDGA1021+006001999GA2071+007501999GF107991999999999999999999MA1102001999999REMMET076METAR ETSI 121120Z 25008KT 9999 FEW020 BKN025 04/01 Q1020 BLU BLU TEMPO WHT;
0161108600999992011011212204+48717+011533FM-15+0365ETSI V0202601N003110069019N0112651N1+00401+00101999999ADDGA1021+006001999GA2071+006901999GF107991999999999999999999MA1102001999999REMMET076METAR ETSI 121220Z 26006KT 9999 FEW020 BKN023 04/01 Q1020 WHT BLU TEMPO WHT;
0165108600999992011011213004+48717+011533FM-12+0365ETSI V0202501N00301012001CN0250001N1+00401+00111102121ADDGA1011+006001081GF107991071081008001999999MA1999999097651MD1810081+9999REMSYN082AAXX  12131 10860 42575 72503 10040 20011 39765 40212 58008 878// 333 81820 87623;
0184108600999992011011213204+48717+011533FM-15+0365ETSI V0202401N00261006901CN0112651N1+00401+00101999999ADDGA1021+004501999GA2041+006901999GA3071+012001999GF107991999999999999999999MA1101901999999REMMET083METAR ETSI 121320Z 24005KT 9999 FEW015 SCT023 BKN040 04/01 Q1019 BLU BLU TEMPO WHT;
0245108600999992011011214004+48717+011533FM-12+0365ETSI V0202401N002010090019N0250001N1+00421+00171102091ADDGA1011+004501081GA2051+009001061GA3071+030001031GF107991051081004501031999MA1999999097631MD1710101+9999REMSYN130AAXX  12141 10860 42475 72402 10042 20017 39763 40209 57010 8583/ 333 81815 85630 87360 555 BOT 10002 20004 30009 40023 999 42///;
0184108600999992011011214204+48717+011533FM-15+0365ETSI V0202501N002110069019N0112651N1+00401+00201999999ADDGA1021+004501999GA2071+006901999GA3071+009001999GF107991999999999999999999MA1101901999999REMMET083METAR ETSI 121420Z 25004KT 9999 FEW015 BKN023 BKN030 04/02 Q1019 WHT BLU TEMPO WHT;
0171108600999992011011215204+48717+011533FM-15+0365ETSI V0202201N001510120019N0112651N1+00401+00201999999ADDGA1021+006001999GA2071+012001999GF107991999999999999999999MA1101901999999MW1611REMMET080METAR ETSI 121520Z 22003KT 9999 -RA FEW020 BKN040 04/02 Q1019 BLU BLU TEMPO WHT;
0193108600999992011011216004+48717+011533FM-12+0365ETSI V0202401N00401009001CN0150001N1+00481+00201102051ADDAY161999AY221999GA1011+003001081GF108991081081004501999999MA1999999097601MD1710051+9999MW1611REMSYN088AAXX  12161 10860 41465 82404 10048 20020 39760 40205 57005 76162 888// 333 81810 88620;
0194108600999992011011216204+48717+011533FM-15+0365ETSI V0202501N004110060019N0112651N1+00401+00201999999ADDGA1021+003001999GA2071+006001999GA3081+021001999GF108991999999999999999999MA1101901999999MW1611REMMET087METAR ETSI 121620Z 25008KT 9999 -RA FEW010 BKN020 OVC070 04/02 Q1019 WHT BLU TEMPO WHT;
0215108600999992011011217004+48717+011533FM-12+0365ETSI V0202501N005010060019N0150001N1+00421+00241102041ADDAY161999AY261999GA1011+003001081GA2051+006001061GF108991051081004501011999MA1999999097581MD1710051+9999MW1611REMSYN094AAXX  12171 10860 41465 82505 10042 20024 39758 40204 57005 76166 8581/ 333 81810 85620 88457;
0169108600999992011011217204+48717+011533FM-15+0365ETSI V0202401N004610060019N0112651N1+00401+00201999999ADDGA1021+003001999GA2071+006001999GF107991999999999999999999MA1101801999999MW1611REMMET078METAR ETSI 121720Z 24009KT 9999 -RA FEW010 BKN020 04/02 Q1018 WHT FCST CANCEL;
0180108600999992011011217414+48717+011533FM-16+0365ETSI V0202301N004110033019N0112651N1+00401+00201999999ADDGA1021+002401999GA2071+003301999GA3071+004801999GF107991999999999999999999MA1101801999999MW1611REMMET073SPECI ETSI 121741Z 23008KT 9999 -RA FEW008 BKN011 BKN016 04/02 Q1018 GRN;
0157108600999992011011218204+48717+011533FM-15+0365ETSI V0202401N003610045019N0112651N1+00401+00301999999ADDGA1041+003001999GA2081+004501999GF108991999999999999999999MA1101801999999MW1611REMMET066METAR ETSI 121820Z 24007KT 9999 -RA SCT010 OVC015 04/03 Q1018 WHT;
0124108600999992011011220204+48717+011533FM-15+0365ETSI V0202501N004110063019N0112651N1+00501+00301999999ADDGA1081+006301999GF108991999999999999999999MA1101691999999REMMET055METAR ETSI 122020Z 25008KT 9999 OVC021 05/03 Q1017 WHT;
0157108600999992011011304204+48717+011533FM-15+0365ETSI V0202601N005710036019N0080001N1+00601+00601999999ADDGA1021+001801999GA2071+003601999GF107991999999999999999999MA1101291999999MW1611REMMET066METAR ETSI 130420Z 26011KT 8000 -RA FEW006 BKN012 06/06 Q1013 GRN;
0193108600999992011011305004+48717+011533FM-12+0365ETSI V0202601N00601001201CN0070001N1+00651+00561101491ADDAY161999AY261999GA1021+001801071GF108991081051001501999999MA1999999097091MD1510021+9999MW1611REMSYN088AAXX  13051 10860 41257 82606 10065 20056 39709 40149 55002 76166 885// 333 82706 88610;
0161108600999992011011305204+48717+011533FM-15+0365ETSI V0202601N004610030019N0070001N1+00701+00601999999ADDGA1021+001801999GA2081+003001999GF108991999999999999999999MA1101291999999MW1611REMMET070METAR ETSI 130520Z 26009KT 7000 -RA FEW006 OVC010 07/06 Q1013 GRN GRN;
0161108600999992011011306204+48717+011533FM-15+0365ETSI V0202601N005110030019N0070001N1+00701+00601999999ADDGA1041+001501999GA2081+003001999GF108991999999999999999999MA1101391999999MW1611REMMET070METAR ETSI 130620Z 26010KT 7000 -RA SCT005 OVC010 07/06 Q1014 GRN GRN;
0263108600999992011011307004+48717+011533FM-12+0365ETSI V0202601N004010036019N0060001N1+00721+00651101511ADDAY161999AY261999GA1041+001501071GA2081+003601061GF108991081051001501999999MA1999999097121MD1210041+9999MW1631REMSYN142AAXX  13071 10860 41256 82604 10072 20065 39712 40151 52004 76366 885// 333 84705 88612 555 BOT 10050 20039 30026 40024 50041 999 32/// 41///;
0166108600999992011011307204+48717+011533FM-15+0365ETSI V0202601N004610036019N0090001N1+00701+00701999999ADDGA1041+001501999GA2081+003601999GF108991999999999999999999MA1101391999999MW1611REMMET075METAR ETSI 130720Z 26009KT 9000 -RA SCT005 OVC012 07/07 Q1014 RERA GRN GRN;
0193108600999992011011308004+48717+011533FM-12+0365ETSI V0202601N00401001201CN0090001N1+00741+00661101541ADDAY161999AY261999GA1031+001501071GF108991081051001501999999MA1999999097151MD1310061+9999MW1631REMSYN088AAXX  13081 10860 41259 82604 10074 20066 39715 40154 53006 76366 885// 333 83705 88612;
0165108600999992011011308064+48717+011533FM-16+0365ETSI V0202601N004610036019N0080001N1+00801+00701999999ADDGA1041+001501999GA2081+003601999GF108991999999999999999999MA1101391999999MW1631REMMET074SPECI ETSI 130806Z 26009KT 8000 RA SCT005 OVC012 08/07 Q1014 RERA GRN GRN;
0165108600999992011011308204+48717+011533FM-15+0365ETSI V0202601N004610036019N0090001N1+00801+00701999999ADDGA1021+001801999GA2081+003601999GF108991999999999999999999MA1101391999999MW1631REMMET074METAR ETSI 130820Z 26009KT 9000 RA FEW006 OVC012 08/07 Q1014 RERA GRN GRN;
0183108600999992011011309204+48717+011533FM-15+0365ETSI V0202601N005110039019N0080001N1+00801+00701999999ADDGA1021+001801999GA2071+003901999GA3081+006601999GF108991999999999999999999MA1101391999999MW1631REMMET076METAR ETSI 130920Z 26010KT 8000 RA FEW006 BKN013 OVC022 08/07 Q1014 GRN GRN;
0215108600999992011011310004+48717+011533FM-12+0365ETSI V0202601N005010039019N0120001N1+00821+00731101541ADDAY161999AY261999GA1021+001801071GA2061+003901061GF108991061051001501021999MA1999999097161MD1210041+9999MW1631REMSYN094AAXX  13101 10860 41262 82605 10082 20073 39716 40154 52004 76366 8652/ 333 82706 86613 88525;
0183108600999992011011310204+48717+011533FM-15+0365ETSI V0202601N004110039019N0112651N1+00801+00701999999ADDGA1021+001801999GA2071+003901999GA3081+007501999GF108991999999999999999999MA1101391999999MW1631REMMET076METAR ETSI 131020Z 26008KT 9999 RA FEW006 BKN013 OVC025 08/07 Q1014 GRN GRN;
0215108600999992011011311004+48717+011533FM-12+0365ETSI V0202601N005010042019N0120001N1+00841+00741101521ADDAY161999AY261999GA1021+001801071GA2051+004201061GF108991061051001501021999MA1999999097151MD1010001+9999MW1631REMSYN094AAXX  13111 10860 41262 82605 10084 20074 39715 40152 50000 76366 8652/ 333 82706 85614 88527;
0183108600999992011011311204+48717+011533FM-15+0365ETSI V0202601N005110042019N0112651N1+00901+00801999999ADDGA1021+001801999GA2071+004201999GA3081+008401999GF108991999999999999999999MA1101391999999MW1631REMMET076METAR ETSI 131120Z 26010KT 9999 RA FEW006 BKN014 OVC028 09/08 Q1014 GRN GRN;
0189108600999992011011312204+48717+011533FM-15+0365ETSI V0202601N005110039019N0112651N1+00901+00801999999ADDGA1021+002101999GA2071+003901999GA3081+008401999GF108991999999999999999999MA1101291999999MW1611REMMET082METAR ETSI 131220Z 26010KT 9999 -RA FEW007 BKN013 OVC028 09/08 Q1013 RERA GRN GRN;
0215108600999992011011313004+48717+011533FM-12+0365ETSI V0202601N005010039019N0100001N1+00911+00811101431ADDAY161999AY261999GA1021+002101071GA2061+003901061GF108991061051002501021999MA1999999097071MD1710091+9999MW1631REMSYN094AAXX  13131 10860 41360 82605 10091 20081 39707 40143 57009 76366 8652/ 333 82707 86613 88528;
0183108600999992011011313204+48717+011533FM-15+0365ETSI V0202601N005710036019N0112651N1+01001+00801999999ADDGA1021+002401999GA2071+003601999GA3081+007801999GF108991999999999999999999MA1101291999999MW1631REMMET076METAR ETSI 131320Z 26011KT 9999 RA FEW008 BKN012 OVC026 10/08 Q1013 GRN GRN;
0279108600999992011011314004+48717+011533FM-12+0365ETSI V0202601N006010042019N0120001N1+00991+00841101401ADDAY161999AY261999GA1021+002401071GA2061+004201061GA3081+007501051GF108991061051002501021999MA1999999097061MD1710091+9999MW1611REMSYN142AAXX  13141 10860 41362 82606 10099 20084 39706 40140 57009 76166 8652/ 333 82708 86614 88525 555 BOT 10079 20063 30041 40027 999 32/// 4////;
0189108600999992011011314074+48717+011533FM-16+0365ETSI V0202601N006210045019N0112651N1+01001+00901999999ADDGA1021+002401999GA2071+004501999GA3081+007501999GF108991999999999999999999MA1101291999999MW1611REMMET082SPECI ETSI 131407Z 26012KT 9999 -RA FEW008 BKN015 OVC025 10/09 Q1013 RERA WHT GRN;
0189108600999992011011314204+48717+011533FM-15+0365ETSI V0202601N006210045019N0112651N1+01001+00801999999ADDGA1021+002401999GA2071+004501999GA3081+007501999GF108991999999999999999999MA1101291999999MW1611REMMET082METAR ETSI 131420Z 26012KT 9999 -RA FEW008 BKN015 OVC025 10/08 Q1013 RERA WHT GRN;
0184108600999992011011315204+48717+011533FM-15+0365ETSI V0202601N005110045019N0112651N1+01001+00801999999ADDGA1021+002401999GA2071+004501999GA3081+007501999GF108991999999999999999999MA1101391999999MW1611REMMET077METAR ETSI 131520Z 26010KT 9999 -RA FEW008 BKN015 OVC025 10/08 Q1014 WHT GRN;
0322108600999992011011316004+48717+011533SY-MT+0365ETSI V0202601N005010045019N0120001N1+00941+00801101531ADDAY161999AY261999GA1021+002401999GA2071+004501999GA3081+007501999GF108991061051002501021999MA1101391097171MD1310101+9999MW1611REMSYN094AAXX  13161 10860 41362 82605 10094 20080 39717 40153 53010 76166 8652/ 333 82708 86615 88525;MET085SPECI ETSI 131600Z 26010KT 9999 -RA FEW008 BKN015 OVC025 09/08 Q1014 WHT FCST CANCEL;
0180108600999992011011316204+48717+011533FM-15+0365ETSI V0202601N004610039019N0112651N1+00901+00801999999ADDGA1021+002401999GA2071+003901999GA3081+007501999GF108991999999999999999999MA1101391999999MW1611REMMET073METAR ETSI 131620Z 26009KT 9999 -RA FEW008 BKN013 OVC025 09/08 Q1014 GRN;
0193108600999992011011317004+48717+011533FM-12+0365ETSI V0202601N00501002101CN0120001N1+00951+00821101551ADDAY161999AY261999GA1011+002401071GF108991071051002501999999MA1999999097191MD1210131+9999MW1611REMSYN088AAXX  13171 10860 41362 82605 10095 20082 39719 40155 52013 76166 875// 333 81708 87614;
0157108600999992011011317204+48717+011533FM-15+0365ETSI V0202601N005110045019N0112651N1+01001+00801999999ADDGA1021+002401999GA2071+004501999GF107991999999999999999999MA1101491999999MW1611REMMET066METAR ETSI 131720Z 26010KT 9999 -RA FEW008 BKN015 10/08 Q1015 WHT;
0165108600999992011011318204+48717+011533FM-15+0365ETSI V0202601N006210039019N0080001N1+01001+00801999999ADDGA1021+002401999GA2071+003901999GF107991999999999999999999MA1101491999999MW1511MW2611REMMET068METAR ETSI 131820Z 26012KT 8000 -RADZ FEW008 BKN013 10/08 Q1015 GRN;
0147108600999992011011404204+48717+011533FM-15+0365ETSI V0202601N004110057019N0112651N1+01001+00801999999ADDGA1021+004501999GA2071+005701999GF107991999999999999999999MA1101691999999REMMET062METAR ETSI 140420Z 26008KT 9999 FEW015 BKN019 10/08 Q1017 WHT;
0187108600999992011011405004+48717+011533FM-12+0365ETSI V0202501N006010045019N0300001N1+00991+00821101791ADDAY121999AY221999GA1071+004501061GF107991071051004501999999MA1999999097431MD1210061+9999MW1211REMSYN082AAXX  14051 10860 41480 72506 10099 20082 39743 40179 52006 72122 875// 333 87615;
0161108600999992011011405204+48717+011533FM-15+0365ETSI V0202501N005710069019N0112651N1+01001+00801999999ADDGA1041+004501999GA2071+006901999GF107991999999999999999999MA1101691999999REMMET076METAR ETSI 140520Z 25011KT 9999 SCT015 BKN023 10/08 Q1017 WHT WHT TEMPO GRN;
0185108600999992011011406204+48717+011533FM-15+0365ETSI V0202601N004610096019N0112651N1+01001+00801999999ADDGA1041+003901999GA2071+009601999GA3071+015001999GF107991999999999999999999MA1101801999999REMMET084METAR ETSI 140620Z 26009KT 9999 SCT013 BKN032 BKN050 10/08 Q1018 BLU BLU/ TEMPO GRN;
0251108600999992011011407004+48717+011533FM-12+0365ETSI V0202701N004010084019N0300001N1+00971+00771101881ADDGA1011+003601081GA2051+008401061GA3071+015001061GF107991071081004501999999MA1999999097511MD1210101+9999REMSYN136AAXX  14071 10860 42480 72704 10097 20077 39751 40188 52010 878// 333 81812 85628 87650 555 BOT 10077 20070 30058 40039 50041 999 31///;
0185108600999992011011407204+48717+011533FM-15+0365ETSI V0202601N005110069019N0112651N1+01001+00701999999ADDGA1021+003601999GA2071+006901999GA3071+012001999GF107991999999999999999999MA1101801999999REMMET084METAR ETSI 140720Z 26010KT 9999 FEW012 BKN023 BKN040 10/07 Q1018 WHT BLU/ TEMPO GRN;
0165108600999992011011408004+48717+011533FM-12+0365ETSI V0202601N00501009001CN0400001N1+00961+00731101931ADDGA1011+003601081GF107991071081004501999999MA1999999097561MD1210131+9999REMSYN082AAXX  14081 10860 42482 72605 10096 20073 39756 40193 52013 878// 333 81812 87622;
0162108600999992011011408204+48717+011533FM-15+0365ETSI V0202401N004110066019N0112651N1+01001+00701999999ADDGA1021+003601999GA2071+006601999GF107991999999999999999999MA1101901999999REMMET077METAR ETSI 140820Z 24008KT 9999 FEW012 BKN022 10/07 Q1019 WHT BLU/ TEMPO WHT;
0184108600999992011011409204+48717+011533FM-15+0365ETSI V0202501N005710072019N0112651N1+01001+00701999999ADDGA1021+005401999GA2071+007201999GA3071+009601999GF107991999999999999999999MA1101901999999REMMET083METAR ETSI 140920Z 25011KT 9999 FEW018 BKN024 BKN032 10/07 Q1019 WHT BLU TEMPO WHT;
0187108600999992011011410004+48717+011533FM-12+0365ETSI V0202501N00601009001CN0550001N1+01031+00731101951ADDGA1011+005401081GA2031+006601061GF107991071081004501999999MA1999999097591MD1210081+9999REMSYN088AAXX  14101 10860 42485 72506 10103 20073 39759 40195 52008 878// 333 81818 83622 87627;
0161108600999992011011410204+48717+011533FM-15+0365ETSI V0202601N004610063019N0112651N1+01001+00701999999ADDGA1021+005401999GA2071+006301999GF107991999999999999999999MA1101901999999REMMET076METAR ETSI 141020Z 26009KT 9999 FEW018 BKN021 10/07 Q1019 WHT BLU TEMPO WHT;
0159108600999992011011411004+48717+011533FM-12+0365ETSI V0202601N004010066019N0400001N1+01051+00731101941ADDGA1071+006601061GF107991071051008001999999MA1999999097581MD1010021+9999REMSYN076AAXX  14111 10860 42582 72604 10105 20073 39758 40194 50002 875// 333 87622;
0138108600999992011011411204+48717+011533FM-15+0365ETSI V0202501N004110069019N0112651N1+01001+00701999999ADDGA1071+006901999GF107991999999999999999999MA1101801999999REMMET069METAR ETSI 141120Z 25008KT 9999 BKN023 10/07 Q1018 WHT BLU TEMPO WHT;
0159108600999992011011412204+48717+011533FM-15+0365ETSI V0202601N004610090019N0112651N1+01101+00801999999ADDGA1041+006001999GA2071+009001999GF107991999999999999999999MA1101801999999REMMET074METAR ETSI 141220Z 26009KT 9999 SCT020 BKN030 11/08 Q1018 BLU FCST CANCEL;
0165108600999992011011413004+48717+011533FM-12+0365ETSI V0202601N00401007501CN0400001N1+01091+00771101861ADDGA1031+006001061GF107991071051008001999999MA1999999097511MD1710081+9999REMSYN082AAXX  14131 10860 42582 72604 10109 20077 39751 40186 57008 875// 333 83620 87630;
0147108600999992011011413204+48717+011533FM-15+0365ETSI V0202601N004610090019N0112651N1+01101+00701999999ADDGA1021+006001999GA2071+009001999GF107991999999999999999999MA1101801999999REMMET062METAR ETSI 141320Z 26009KT 9999 FEW020 BKN030 11/07 Q1018 BLU;
0223108600999992011011414004+48717+011533FM-12+0365ETSI V0202601N004010105019N0400001N1+01071+00741101851ADDGA1021+006001061GA2071+010501061GF107991071051008001999999MA1999999097501MD1710081+9999REMSYN124AAXX  14141 10860 42582 72604 10107 20074 39750 40185 57008 875// 333 82620 87635 555 BOT 10092 20082 30064 40043 999 31///;
0147108600999992011011414204+48717+011533FM-15+0365ETSI V0202701N003610090019N0112651N1+01001+00701999999ADDGA1021+006001999GA2071+009001999GF107991999999999999999999MA1101801999999REMMET062METAR ETSI 141420Z 27007KT 9999 FEW020 BKN030 10/07 Q1018 BLU;
0147108600999992011011415204+48717+011533FM-15+0365ETSI V0202401N003110105019N0112651N1+01001+00701999999ADDGA1021+006001999GA2071+010501999GF107991999999999999999999MA1101801999999REMMET062METAR ETSI 141520Z 24006KT 9999 FEW020 BKN035 10/07 Q1018 BLU;
0165108600999992011011416004+48717+011533FM-12+0365ETSI V0202301N00301012001CN0400001N1+00951+00721101901ADDGA1011+006001081GF107991071081008001999999MA1999999097531MD1310021+9999REMSYN082AAXX  14161 10860 42582 72303 10095 20072 39753 40190 53002 878// 333 81820 87635;
0147108600999992011011416204+48717+011533FM-15+0365ETSI V0202501N002610105019N0112651N1+01001+00701999999ADDGA1021+006001999GA2071+010501999GF107991999999999999999999MA1101801999999REMMET062METAR ETSI 141620Z 25005KT 9999 FEW020 BKN035 10/07 Q1018 BLU;
0159108600999992011011417004+48717+011533FM-12+0365ETSI V0202501N003010114019N0400001N1+00881+00581101901ADDGA1071+011401061GF107991071051012501999999MA1999999097521MD1010021+9999REMSYN076AAXX  14171 10860 42682 72503 10088 20058 39752 40190 50002 875// 333 87638;
0125108600999992011011417204+48717+011533FM-15+0365ETSI V0202401N003112200019N0112651N1+00801+00501999999ADDGA1041+012001999GF104991999999999999999999MA1101801999999REMMET056METAR ETSI 141720Z 24006KT 9999 SCT040 08/05 Q1018 BLU/;
0148108600999992011011418204+48717+011533FM-15+0365ETSI V0202401N003612200019N0112651N1+00701+00501999999ADDGA1021+012001999GA2041+072001999GF104991999999999999999999MA1101801999999REMMET063METAR ETSI 141820Z 24007KT 9999 FEW040 SCT240 07/05 Q1018 BLU/;
0124108600999992011011422204+48717+011533FM-15+0365ETSI V0202501N003610120019N0112651N1+00701+00501999999ADDGA1071+012001999GF107991999999999999999999MA1101691999999REMMET055METAR ETSI 142220Z 25007KT 9999 BKN040 07/05 Q1017 BLU;
0124108600999992011011423204+48717+011533FM-15+0365ETSI V0202401N004610150019N0112651N1+00601+00501999999ADDGA1071+015001999GF107991999999999999999999MA1101691999999REMMET055METAR ETSI 142320Z 24009KT 9999 BKN050 06/05 Q1017 BLU;
0170108600999992011011505204+48717+011533FM-15+0365ETSI V0202701N004610081019N0112651N1+00801+00501999999ADDGA1021+003301999GA2071+008101999GA3071+012001999GF107991999999999999999999MA1102201999999REMMET069METAR ETSI 150520Z 27009KT 9999 FEW011 BKN027 BKN040 08/05 Q1022 BLU;
0148108600999992011011510204+48717+011533FM-15+0365ETSI V0202701N004112200019N0112651N1+00801+00401999999ADDGA1021+006001999GA2041+015001999GF104991999999999999999999MA1102611999999REMMET063METAR ETSI 151020Z 27008KT 9999 FEW020 SCT050 08/04 Q1026 BLU/;
0148108600999992011011511204+48717+011533FM-15+0365ETSI V0202801N004112200019N0112651N1+00901+00401999999ADDGA1021+006001999GA2041+015001999GF104991999999999999999999MA1102611999999REMMET063METAR ETSI 151120Z 28008KT 9999 FEW020 SCT050 09/04 Q1026 BLU/;
0171108600999992011011512204+48717+011533FM-15+0365ETSI V0203001N00721010501CN0112651N1+00901+00301999999ADDGA1021+006001999GA2041+010501999GA3071+075001999GF107991999999999999999999MA1102611999999REMMET070METAR ETSI 151220Z 30014KT 9999 FEW020 SCT035 BKN250 09/03 Q1026 BLU/;
0171108600999992011011513204+48717+011533FM-15+0365ETSI V0202901N00361015001CN0112651N1+01001+00201999999ADDGA1021+006001999GA2041+015001999GA3071+075001999GF107991999999999999999999MA1102611999999REMMET070METAR ETSI 151320Z 29007KT 9999 FEW020 SCT050 BKN250 10/02 Q1026 BLU/;
0171108600999992011011514204+48717+011533FM-15+0365ETSI V0203301N00311015001CN0112651N1+01001+00301999999ADDGA1021+006001999GA2041+015001999GA3071+075001999GF107991999999999999999999MA1102611999999REMMET070METAR ETSI 151420Z 33006KT 9999 FEW020 SCT050 BKN250 10/03 Q1026 BLU/;
0171108600999992011011515204+48717+011533FM-15+0365ETSI V0202501N00211012001CN0112651N1+00801+00401999999ADDGA1021+006001999GA2041+012001999GA3071+075001999GF107991999999999999999999MA1102611999999REMMET070METAR ETSI 151520Z 25004KT 9999 FEW020 SCT040 BKN250 08/04 Q1026 BLU/;
0171108600999992011011516204+48717+011533FM-15+0365ETSI V0202301N00211027001CN0112651N1+00701+00301999999ADDGA1021+009001999GA2041+027001999GA3071+075001999GF107991999999999999999999MA1102711999999REMMET070METAR ETSI 151620Z 23004KT 9999 FEW030 SCT090 BKN250 07/03 Q1027 BLU/;
0148108600999992011011517204+48717+011533FM-15+0365ETSI V0202001N002110660019N0112651N1+00401+00301999999ADDGA1021+009001999GA2071+066001999GF107991999999999999999999MA1102611999999REMMET063METAR ETSI 151720Z 20004KT 9999 FEW030 BKN220 04/03 Q1026 BLU/;
0171108600999992011011518204+48717+011533FM-15+0365ETSI V0202101N00151027001CN0112651N1+00501+00301999999ADDGA1021+009001999GA2041+027001999GA3071+066001999GF107991999999999999999999MA1102711999999REMMET070METAR ETSI 151820Z 21003KT 9999 FEW030 SCT090 BKN220 05/03 Q1027 BLU/;
0125108600999992011011612204+48717+011533FM-15+0365ETSI V0200301N001012200019N0112651N1+00901+00401999999ADDGA1041+060001999GF104991999999999999999999MA1102711999999REMMET056METAR ETSI 161220Z 03002KT 9999 SCT200 09/04 Q1027 BLU/;
0125108600999992011011613204+48717+011533FM-15+0365ETSI V0209999V001012200019N0112651N1+00901+00401999999ADDGA1021+060001999GF102991999999999999999999MA1102711999999REMMET056METAR ETSI 161320Z VRB02KT 9999 FEW200 09/04 Q1027 BLU/;
0087108600999992011011618064+48717+011533FM-16+0365ETSI V0209999C000012200019N0112651N1+00101+00101999999ADDMA1102611999999MW1121REMMET054SPECI ETSI 161806Z 00000KT 9999 MIFG 01/01 Q1026 BLU/;
0087108600999992011011618204+48717+011533FM-15+0365ETSI V0209999C000012200019N0112651N1+00101+00101999999ADDMA1102611999999MW1121REMMET054METAR ETSI 161820Z 00000KT 9999 MIFG 01/01 Q1026 BLU/;
0088108600999992011011623244+48717+011533FM-16+0365ETSI V0209999C000012200019N0002001N1-00101-00101999999ADDMA1102611999999MW1481REMMET055SPECI ETSI 162324Z 00000KT 0200 FZFG M01/M01 Q1026 RED;
0088108600999992011011700204+48717+011533FM-15+0365ETSI V0209999V000512200019N0001501N1-00101-00101999999ADDMA1102611999999MW1481REMMET055METAR ETSI 170020Z VRB01KT 0150 FZFG M01/M01 Q1026 RED;
0136108600999992011011704204+48717+011533FM-15+0365ETSI V0203201N001010003019N0001501N1-00101-00101999999ADDGA1091+000301999GF109991999999000251999999MA1102611999999MW1491REMMET061METAR ETSI 170420Z 32002KT 0150 FZFG VV001 M01/M01 Q1026 RED;
0181108600999992011011705004+48717+011533FM-12+0365ETSI V0209999C000010003019N0001001N1-00161-00161102931ADDAY141999AY241999GA1091+000301999GF109991091999999999999999MA1999999098331MD1710021+9999MW1491REMSYN076AAXX  17051 10860 41/01 90000 11016 21016 39833 40293 57002 74944 333 89/01;
0140108600999992011011705204+48717+011533FM-15+0365ETSI V0203301N000510003019N0001501N1-00201-00201999999ADDGA1091+000301999GF109991999999000251999999MA1102611999999MW1491REMMET065METAR ETSI 170520Z 33001KT 0150 FZFG VV001 M02/M02 Q1026 RED RED;
0140108600999992011011706204+48717+011533FM-15+0365ETSI V0209999V000510003019N0002001N1-00201-00201999999ADDGA1091+000301999GF109991999999000251999999MA1102611999999MW1491REMMET065METAR ETSI 170620Z VRB01KT 0200 FZFG VV001 M02/M02 Q1026 RED RED;
0229108600999992011011707004+48717+011533FM-12+0365ETSI V0202601N001010003019N0002001N1-00191-00191102951ADDAY141999AY241999GA1091+000301999GF109991091999999999999999MA1999999098351MD1310011+9999MW1491REMSYN124AAXX  17071 10860 41/02 92601 11019 21019 39835 40295 53001 74944 333 89/01 555 BOT 10006 20015 30028 40047 50052 999 35///;
0140108600999992011011707204+48717+011533FM-15+0365ETSI V0202701N001010003019N0001501N1-00201-00201999999ADDGA1091+000301999GF109991999999000251999999MA1102611999999MW1491REMMET065METAR ETSI 170720Z 27002KT 0150 FZFG VV001 M02/M02 Q1026 RED RED;
0181108600999992011011708004+48717+011533FM-12+0365ETSI V0201401N001010003019N0001001N1-00191-00201102941ADDAY141999AY241999GA1091+000301999GF109991091999999999999999MA1999999098341MD1010011+9999MW1491REMSYN076AAXX  17081 10860 41/01 91401 11019 21020 39834 40294 50001 74944 333 89/01;
0150108600999992011011708204+48717+011533FM-15+0365ETSI V0203001N001010003019N0001501N1-00201-00201999999ADDGA1091+000301999GF109991999999000251999999MA1102611999999MW1491REMMET075METAR ETSI 170820Z 30002KT 0150 FZFG VV001 M02/M02 Q1026 RED RED BECMG AMB;
0150108600999992011011709204+48717+011533FM-15+0365ETSI V0202701N001010003019N0001501N1-00201-00201999999ADDGA1091+000301999GF109991999999000251999999MA1102611999999MW1491REMMET075METAR ETSI 170920Z 27002KT 0150 FZFG VV001 M02/M02 Q1026 RED RED BECMG AMB;
0150108600999992011011710204+48717+011533FM-15+0365ETSI V0209999V000510003019N0001501N1-00101-00101999999ADDGA1091+000301999GF109991999999000251999999MA1102611999999MW1491REMMET075METAR ETSI 171020Z VRB01KT 0150 FZFG VV001 M01/M01 Q1026 RED RED BECMG AMB;
0181108600999992011011711004+48717+011533FM-12+0365ETSI V0201101N001010003019N0001001N1-00081-00081102871ADDAY141999AY241999GA1091+000301999GF109991091999999999999999MA1999999098291MD1710051+9999MW1491REMSYN076AAXX  17111 10860 41/01 91101 11008 21008 39829 40287 57005 74944 333 89/01;
0150108600999992011011711204+48717+011533FM-15+0365ETSI V0200201N001010003019N0002001N1+00001+00001999999ADDGA1091+000301999GF109991999999000251999999MA1102611999999MW1491REMMET075METAR ETSI 171120Z 02002KT 0200 FZFG VV001 M00/M00 Q1026 RED RED BECMG AMB;
0150108600999992011011712204+48717+011533FM-15+0365ETSI V0200701N001010003019N0002001N1+00001+00001999999ADDGA1091+000301999GF109991999999000251999999MA1102511999999MW1491REMMET075METAR ETSI 171220Z 07002KT 0200 FZFG VV001 M00/M00 Q1025 RED RED BECMG AMB;
0181108600999992011011713004+48717+011533FM-12+0365ETSI V0203601N001010003019N0002001N1-00011-00021102741ADDAY141999AY241999GA1091+000301999GF109991091999999999999999MA1999999098181MD1710141+9999MW1491REMSYN076AAXX  17131 10860 41/02 93601 11001 21002 39818 40274 57014 74944 333 89/01;
0136108600999992011011713204+48717+011533FM-15+0365ETSI V0203601N001510003019N0002001N1+00001+00001999999ADDGA1091+000301999GF109991999999000251999999MA1102511999999MW1451REMMET061METAR ETSI 171320Z 36003KT 0200 FG VV001 00/00 Q1025 RED RED;
0136108600999992011011714204+48717+011533FM-15+0365ETSI V0200501N001010003019N0001501N1+00101+00101999999ADDGA1091+000301999GF109991999999000251999999MA1102511999999MW1451REMMET061METAR ETSI 171420Z 05002KT 0150 FG VV001 01/01 Q1025 RED RED;
0136108600999992011011715204+48717+011533FM-15+0365ETSI V0209999V001010003019N0001501N1+00001+00001999999ADDGA1091+000301999GF109991999999000251999999MA1102511999999MW1451REMMET061METAR ETSI 171520Z VRB02KT 0150 FG VV001 00/00 Q1025 RED RED;
0256108600999992011011716004+48717+011533SY-MT+0365ETSI V0203001N002010003019N0001001N1+00021+00021102771ADDAY141999AY241999GA1091+000301999GF109991091999000151999999MA1102511098211MD1310031+9999MW1471REMSYN076AAXX  17161 10860 41/01 93002 10002 20002 39821 40277 53003 74744 333 89/01;MET069SPECI ETSI 171600Z VRB01KT 0100 FG VV001 00/00 Q1025 RED FCST CANCEL;
0132108600999992011011716204+48717+011533FM-15+0365ETSI V0209999C000010003019N0001001N1+00001+00001999999ADDGA1091+000301999GF109991999999000251999999MA1102511999999MW1451REMMET057METAR ETSI 171620Z 00000KT 0100 FG VV001 00/00 Q1025 RED;
0181108600999992011011717004+48717+011533FM-12+0365ETSI V0209999C000010003019N0001001N1-00011-00011102801ADDAY141999AY241999GA1091+000301999GF109991091999999999999999MA1999999098231MD1210061+9999MW1491REMSYN076AAXX  17171 10860 41/01 90000 11001 21001 39823 40280 52006 74944 333 89/01;
0136108600999992011011717204+48717+011533FM-15+0365ETSI V0201501N001010003019N0001001N1+00001+00001999999ADDGA1091+000301999GF109991999999000251999999MA1102511999999MW1491REMMET061METAR ETSI 171720Z 15002KT 0100 FZFG VV001 M00/M00 Q1025 RED;
0181108600999992011011804204+48717+011533FM-15+0365ETSI V0200501N001510135019N0050001N1+00001+00001999999ADDGA1021+008401999GA2071+013501999GA3071+018001999GF107991999999999999999999MA1102611999999MW1101REMMET074METAR ETSI 180420Z 05003KT 5000 BR FEW028 BKN045 BKN060 M00/M00 Q1026 WHT;
0193108600999992011011805004+48717+011533FM-12+0365ETSI V0201001N002010075019N0050001N1-00021-00031102851ADDAY121999AY221999GA1051+007501061GF107991071051008001999999MA1999999098281MD1710051+9999MW1101REMSYN088AAXX  18051 10860 41550 71002 11002 21003 39828 40285 57005 71022 875// 333 85625 87650;
0207108600999992011011805204+48717+011533FM-15+0365ETSI V0209999C000010090019N0050001N1+00001+00001999999ADDGA1021+007501999GA2071+009001999GA3071+015001999GF107991999999999999999999MA1102611999999MW1101MW2661REMMET094METAR ETSI 180520Z 00000KT 5000 -FZRA BR FEW025 BKN030 BKN050 M00/M00 Q1026 WHT WHT TEMPO GRN;
0193108600999992011011806204+48717+011533FM-15+0365ETSI V0200801N00051011401CN0060001N1+00001+00001999999ADDGA1021+006601999GA2041+011401999GA3071+018001999GF107991999999999999999999MA1102611999999REMMET092METAR ETSI 180620Z 08001KT 6000 FEW022 SCT038 BKN060 M00/M00 Q1026 REFZRA WHT WHT TEMPO GRN;
0279108600999992011011807004+48717+011533FM-12+0365ETSI V0209999V001010180019N0060001N1+00001-00011102851ADDAY121999AY221999GA1011+006601061GA2031+009901061GA3071+018001061GF107991071051008001999999MA1999999098281MD1510011+9999MW1101REMSYN142AAXX  18071 10860 41556 79901 10000 21001 39828 40285 55001 71022 875// 333 81622 83633 87656 555 BOT 10011 20017 30025 40042 50052 999 31///;
0184108600999992011011807204+48717+011533FM-15+0365ETSI V0201001N00211011401CN0060001N1+00001+00001999999ADDGA1021+007501999GA2041+011401999GA3071+018001999GF107991999999999999999999MA1102611999999REMMET083METAR ETSI 180720Z 10004KT 6000 FEW025 SCT038 BKN060 00/00 Q1026 WHT WHT TEMPO GRN;
0215108600999992011011808004+48717+011533FM-12+0365ETSI V0209999V00101007501CN0050001N1+00061+00051102841ADDAY121999AY221999GA1011+006601061GA2031+008701061GF107991071051008001999999MA1999999098281MD1510001+9999MW1601REMSYN094AAXX  18081 10860 41550 79901 10006 20005 39828 40284 55000 76022 875// 333 81622 83629 87645;
0193108600999992011011808204+48717+011533FM-15+0365ETSI V0201601N00101008701CN0050001N1+00101+00101999999ADDGA1021+006601999GA2041+008701999GA3071+014401999GF107991999999999999999999MA1102611999999MW1101REMMET086METAR ETSI 180820Z 16002KT 5000 BR FEW022 SCT029 BKN048 01/01 Q1026 WHT WHT TEMPO GRN;
0193108600999992011011809204+48717+011533FM-15+0365ETSI V0200601N00101009001CN0040001N1+00201+00201999999ADDGA1021+000301999GA2041+009001999GA3071+015001999GF107991999999999999999999MA1102611999999MW1101REMMET086METAR ETSI 180920Z 06002KT 4000 BR FEW001 SCT030 BKN050 02/02 Q1026 GRN WHT TEMPO GRN;
0193108600999992011011810004+48717+011533FM-12+0365ETSI V0201001N00101000301CN0040001N1+00251+00251102791ADDAY121999AY221999GA1011+000301061GF107991071051000251999999MA1999999098271MD1810011+9999MW1211REMSYN088AAXX  18101 10860 41040 71001 10025 20025 39827 40279 58001 72122 875// 333 81601 87645;
0170108600999992011011810204+48717+011533FM-15+0365ETSI V0209999C000010126019N0038001N1+00301+00301999999ADDGA1021+000901999GA2071+012601999GF107991999999999999999999MA1102611999999MW1101REMMET079METAR ETSI 181020Z 00000KT 3800 BR FEW003 BKN042 03/03 Q1026 GRN WHT TEMPO GRN;
0193108600999992011011811004+48717+011533FM-12+0365ETSI V0209999V00101000601CN0040001N1+00361+00351102771ADDAY121999AY221999GA1011+000901071GF107991071051000751999999MA1999999098271MD1610011+9999MW1581REMSYN088AAXX  18111 10860 41140 79901 10036 20035 39827 40277 56001 75822 875// 333 81703 87642;
0188108600999992011011811204+48717+011533FM-15+0365ETSI V0200801N000510135019N0038001N1+00401+00401999999ADDGA1021+000901999GA2071+013501999GF107991999999999999999999MA1102511999999MW1101MW2511MW3611REMMET085METAR ETSI 181120Z 08001KT 3800 -RADZ BR FEW003 BKN045 04/04 Q1025 GRN GRN BECMG WHT;
0211108600999992011011811484+48717+011533FM-16+0365ETSI V0203601N00151009001CN0030001N1+00401+00401999999ADDGA1021+000901999GA2041+009001999GA3071+013201999GF107991999999999999999999MA1102511999999MW1101MW2511MW3611REMMET092SPECI ETSI 181148Z 36003KT 3000 -RADZ BR FEW003 SCT030 BKN044 04/04 Q1025 YLO GRN TEMPO YLO;
0170108600999992011011812204+48717+011533FM-15+0365ETSI V0200301N001010114019N0035001N1+00501+00501999999ADDGA1021+000901999GA2071+011401999GF107991999999999999999999MA1102401999999MW1101REMMET079METAR ETSI 181220Z 03002KT 3500 BR FEW003 BKN038 05/05 Q1024 YLO GRN TEMPO YLO;
0193108600999992011011813004+48717+011533FM-12+0365ETSI V0200301N00201001201CN0035001N1+00481+00461102571ADDAY121999AY221999GA1011+001201071GF108991081051001501999999MA1999999098091MD1810181+9999MW1211REMSYN088AAXX  18131 10860 41235 80302 10048 20046 39809 40257 58018 72122 885// 333 81704 87638;
0211108600999992011011813204+48717+011533FM-15+0365ETSI V0209999C00001007501CN0035001N1+00501+00501999999ADDGA1021+001201999GA2041+007501999GA3071+011401999GF107991999999999999999999MA1102401999999MW1101MW2511MW3611REMMET092METAR ETSI 181320Z 00000KT 3500 -DZRA BR FEW004 SCT025 BKN038 05/05 Q1024 YLO GRN TEMPO YLO;
0273108600999992011011814004+48717+011533FM-12+0365ETSI V0200801N001010105019N0035001N1+00481+00461102571ADDAY161999AY221999GA1011+001501071GA2031+007501061GA3071+010501061GF108991081051001501999999MA1999999098091MD1610181+9999MW1581REMSYN136AAXX  18141 10860 41235 80801 10048 20046 39809 40257 56018 75862 885// 333 81705 83625 87635 555 BOT 10055 20046 30033 40041 999 31///;
0211108600999992011011814204+48717+011533FM-15+0365ETSI V0201101N001510105019N0035001N1+00501+00501999999ADDGA1021+001501999GA2071+010501999GA3071+015001999GF107991999999999999999999MA1102401999999MW1101MW2511MW3611REMMET092METAR ETSI 181420Z 11003KT 3500 -DZRA BR FEW005 BKN035 BKN050 05/05 Q1024 YLO GRN TEMPO YLO;
0193108600999992011011815204+48717+011533FM-15+0365ETSI V0201401N001510120019N0040001N1+00501+00501999999ADDGA1041+007501999GA2071+012001999GA3071+018001999GF107991999999999999999999MA1102401999999MW1101REMMET086METAR ETSI 181520Z 14003KT 4000 BR SCT025 BKN040 BKN060 05/05 Q1024 GRN GRN BECMG YLO;
0193108600999992011011815444+48717+011533FM-16+0365ETSI V0201601N001510120019N0009001N1+00501+00501999999ADDGA1021+007501999GA2071+012001999GA3071+018001999GF107991999999999999999999MA1102401999999MW1441REMMET086SPECI ETSI 181544Z 16003KT 0900 FG FEW025 BKN040 BKN060 05/05 Q1024 AMB GRN TEMPO RED;
0309108600999992011011816004+48717+011533SY-MT+0365ETSI V0201901N002010120019N0009001N1+00461+00461102571ADDAY121999AY221999GA1021+007501999GA2071+012001999GF107991071051008001999999MA1102401098091MD1510001+9999MW1101MW2461REMSYN094AAXX  18161 10860 41509 71902 10046 20046 39809 40257 55000 74622 875// 333 82625 85640 87656;MET082SPECI ETSI 181600Z VRB01KT 1000 VCFG BR FEW025 BKN040 05/05 Q1024 AMB FCST CANCEL;
0167108600999992011011816204+48717+011533FM-15+0365ETSI V0200201N000510135019N0012001N1+00501+00501999999ADDGA1021+007501999GA2071+013501999GF107991999999999999999999MA1102401999999MW1101MW2401REMMET070METAR ETSI 181620Z 02001KT 1200 VCFG BR FEW025 BKN045 05/05 Q1024 AMB;
0193108600999992011011817004+48717+011533FM-12+0365ETSI V0200601N00201007501CN0012001N1+00441+00411102561ADDAY141999AY221999GA1021+007501061GF107991071051008001999999MA1999999098081MD1710011+9999MW1581REMSYN088AAXX  18171 10860 41512 70602 10044 20041 39808 40256 57001 75842 875// 333 82625 87645;
0167108600999992011011817204+48717+011533FM-15+0365ETSI V0209999V000510150019N0015001N1+00401+00401999999ADDGA1021+007501999GA2071+015001999GF107991999999999999999999MA1102401999999MW1101MW2401REMMET070METAR ETSI 181720Z VRB01KT 1500 VCFG BR FEW025 BKN050 04/04 Q1024 AMB;
0147108600999992011011904204+48717+011533FM-15+0365ETSI V0202401N002610060019N0112651N1+00301+00301999999ADDGA1071+006001999GA2071+024001999GF107991999999999999999999MA1102301999999REMMET062METAR ETSI 190420Z 24005KT 9999 BKN020 BKN080 03/03 Q1023 WHT;
0165108600999992011011905004+48717+011533FM-12+0365ETSI V0202601N002010060019N0150001N1+00271+00271102501ADDGA1051+006001061GF107991051051008001031001MA1999999097991MD1710081+9999REMSYN082AAXX  19051 10860 43565 72602 10027 20027 39799 40250 57008 85530 333 85620 85358;
0157108600999992011011905204+48717+011533FM-15+0365ETSI V0202601N003110045019N0112651N1+00301+00301999999ADDGA1021+003301999GA2071+004501999GF107991999999999999999999MA1102301999999MW1611REMMET066METAR ETSI 190520Z 26006KT 9999 -RA FEW011 BKN015 03/03 Q1023 WHT;
0170108600999992011011905424+48717+011533FM-16+0365ETSI V0202901N005110060019N0112651N1+00301+00301999999ADDGA1041+002701999GA2071+006001999GF107991999999999999999999MA1102301999999MW1631REMMET079SPECI ETSI 190542Z 29010KT 9999 RA SCT009 BKN020 03/03 Q1023 WHT WHT TEMPO GRN;
0189108600999992011011906204+48717+011533FM-15+0365ETSI V0202701N002610045019N0112651N1+00301+00201999999ADDGA1041+003001999GA2071+004501999GA3071+009001999GF107991999999999999999999MA1102401999999REMMET088METAR ETSI 190620Z 27005KT 9999 SCT010 BKN015 BKN030 03/02 Q1024 RERA WHT WHT TEMPO GRN;
0138108600999992011011906364+48717+011533FM-16+0365ETSI V0202601N002110030019N0112651N1+00301+00201999999ADDGA1071+003001999GF107991999999999999999999MA1102401999999REMMET069SPECI ETSI 190636Z 26004KT 9999 BKN010 03/02 Q1024 GRN WHT TEMPO GRN;
0257108600999992011011907004+48717+011533FM-12+0365ETSI V0202801N003010030019N0150001N1+00291+00221102571ADDAY161999AY221999GA1011+002101081GA2071+003001061GF108991071081002501999999MA1999999098061MD1310051+9999MW1211REMSYN136AAXX  19071 10860 41365 82803 10029 20022 39806 40257 53005 72162 878// 333 81807 87610 555 BOT 10021 20022 30027 40042 50051 999 31///;
0161108600999992011011907204+48717+011533FM-15+0365ETSI V0203101N004110036019N0112651N1+00301+00201999999ADDGA1021+002101999GA2071+003601999GF107991999999999999999999MA1102401999999REMMET076METAR ETSI 190720Z 31008KT 9999 FEW007 BKN012 03/02 Q1024 GRN WHT TEMPO GRN;
0165108600999992011011908004+48717+011533FM-12+0365ETSI V0203201N00401009001CN0200001N1+00231+00121102681ADDGA1011+003001081GF108991071081004501999999MA1999999098161MD1210171+9999REMSYN082AAXX  19081 10860 42470 83204 10023 20012 39816 40268 52017 878// 333 81810 87614;
0161108600999992011011908204+48717+011533FM-15+0365ETSI V0203201N004110039019N0112651N1+00201+00101999999ADDGA1021+003001999GA2071+003901999GF107991999999999999999999MA1102511999999REMMET076METAR ETSI 190820Z 32008KT 9999 FEW010 BKN013 02/01 Q1025 GRN WHT TEMPO GRN;
0184108600999992011011909004+48717+011533FM-16+0365ETSI V0203301N00361004201CN0112651N1+00301+00101999999ADDGA1021+003001999GA2041+004201999GA3071+015001999GF107991999999999999999999MA1102511999999REMMET083SPECI ETSI 190900Z 33007KT 9999 FEW010 SCT014 BKN050 03/01 Q1025 BLU WHT TEMPO GRN;
0184108600999992011011909204+48717+011533FM-15+0365ETSI V0203301N00411004501CN0112651N1+00301+00101999999ADDGA1021+003001999GA2041+004501999GA3071+015001999GF107991999999999999999999MA1102511999999REMMET083METAR ETSI 190920Z 33008KT 9999 FEW010 SCT015 BKN050 03/01 Q1025 BLU WHT TEMPO GRN;
0187108600999992011011910004+48717+011533FM-12+0365ETSI V0203201N00401006001CN0250001N1+00271+00111102781ADDGA1011+002101081GA2031+003301061GF107991071081002501999999MA1999999098261MD1210201+9999REMSYN088AAXX  19101 10860 42375 73204 10027 20011 39826 40278 52020 878// 333 81807 83611 85650;
0184108600999992011011910204+48717+011533FM-15+0365ETSI V0203201N003610060019N0112651N1+00301+00101999999ADDGA1021+003001999GA2071+006001999GA3071+015001999GF107991999999999999999999MA1102611999999REMMET083METAR ETSI 191020Z 32007KT 9999 FEW010 BKN020 BKN050 03/01 Q1026 WHT WHT TEMPO GRN;
0187108600999992011011911004+48717+011533FM-12+0365ETSI V0203201N004010054019N0250001N1+00281+00071102791ADDGA1011+003001081GA2051+005401081GF107991071081004501999999MA1999999098271MD1210111+9999REMSYN088AAXX  19111 10860 42475 73204 10028 20007 39827 40279 52011 878// 333 81810 85818 86650;
0184108600999992011011911204+48717+011533FM-15+0365ETSI V0203201N00411004501CN0112651N1+00301+00101999999ADDGA1021+003001999GA2041+004501999GA3071+009901999GF107991999999999999999999MA1102611999999REMMET083METAR ETSI 191120Z 32008KT 9999 FEW010 SCT015 BKN033 03/01 Q1026 BLU BLU TEMPO WHT;
0161108600999992011011912204+48717+011533FM-15+0365ETSI V0203301N003610114019N0112651N1+00301+00001999999ADDGA1021+003601999GA2071+011401999GF107991999999999999999999MA1102511999999REMMET076METAR ETSI 191220Z 33007KT 9999 FEW012 BKN038 03/00 Q1025 BLU BLU TEMPO GRN;
0187108600999992011011913004+48717+011533FM-12+0365ETSI V0203101N00301009001CN0250001N1+00301-00011102721ADDGA1011+003601081GA2031+006601081GF107991071081004501999999MA1999999098211MD1810051+9999REMSYN088AAXX  19131 10860 42475 73103 10030 21001 39821 40272 58005 878// 333 81812 83822 87645;
0185108600999992011011913204+48717+011533FM-15+0365ETSI V0203201N00311006001CN0112651N1+00301+00001999999ADDGA1021+003601999GA2041+006001999GA3071+015001999GF107991999999999999999999MA1102511999999REMMET084METAR ETSI 191320Z 32006KT 9999 FEW012 SCT020 BKN050 03/M00 Q1025 BLU BLU TEMPO GRN;
0223108600999992011011914004+48717+011533FM-12+0365ETSI V0203301N003010150019N0250001N1+00291-00051102731ADDGA1011+005101081GA2071+015001061GF107991071081004501999999MA1999999098221MD1510051+9999REMSYN124AAXX  19141 10860 42475 73303 10029 21005 39822 40273 55005 878// 333 81817 87650 555 BOT 10036 20036 30033 40041 999 31///;
0191108600999992011011914204+48717+011533FM-15+0365ETSI V0203201N00311008401CN0112651N1+00301-00101999999ADDGA1021+005101999GA2041+008401999GA3071+015001999GF107991999999999999999999MA1102511999999REMMET090METAR ETSI 191420Z 32006KT 9999 -SHSN FEW017 SCT028 BKN050 03/M01 Q1025 BLU BLU TEMPO GRN;
0162108600999992011011915204+48717+011533FM-15+0365ETSI V0203201N003110150019N0112651N1+00301-00101999999ADDGA1021+005401999GA2071+015001999GF107991999999999999999999MA1102611999999REMMET077METAR ETSI 191520Z 32006KT 9999 FEW018 BKN050 03/M01 Q1026 BLU BLU TEMPO GRN;
0165108600999992011011916004+48717+011533FM-12+0365ETSI V0203101N00301009001CN0250001N1+00231-00111102791ADDGA1011+005401081GF107991071081004501999999MA1999999098261MD1210051+9999REMSYN082AAXX  19161 10860 42475 73103 10023 21011 39826 40279 52005 878// 333 81818 87650;
0162108600999992011011916204+48717+011533FM-15+0365ETSI V0203101N002610150019N0112651N1+00201-00101999999ADDGA1021+005401999GA2071+015001999GF107991999999999999999999MA1102611999999REMMET077METAR ETSI 191620Z 31005KT 9999 FEW018 BKN050 02/M01 Q1026 BLU BLU TEMPO GRN;
0165108600999992011011917004+48717+011533FM-12+0365ETSI V0202801N00301012001CN0250001N1+00221-00081102801ADDGA1011+006001081GF107991071081008001999999MA1999999098271MD1210051+9999REMSYN082AAXX  19171 10860 42575 72803 10022 21008 39827 40280 52005 878// 333 81820 87656;
0137108600999992011011917204+48717+011533FM-15+0365ETSI V0202901N002610180019N0112651N1+00201-00101999999ADDGA1071+018001999GF107991999999999999999999MA1102611999999REMMET068METAR ETSI 191720Z 29005KT 9999 BKN060 02/M01 Q1026 BLU FCST CANCEL;
0125108600999992011011918204+48717+011533FM-15+0365ETSI V0202701N001510180019N0112651N1+00101-00101999999ADDGA1071+018001999GF107991999999999999999999MA1102611999999REMMET056METAR ETSI 191820Z 27003KT 9999 BKN060 01/M01 Q1026 BLU;
0148108600999992011011919204+48717+011533FM-15+0365ETSI V0202801N001510123019N0112651N1+00101-00101999999ADDGA1071+012301999GA2071+018001999GF107991999999999999999999MA1102611999999REMMET063METAR ETSI 191920Z 28003KT 9999 BKN041 BKN065 01/M01 Q1026 BLU;
0125108600999992011011920204+48717+011533FM-15+0365ETSI V0202701N001510090019N0112651N1+00101-00101999999ADDGA1071+009001999GF107991999999999999999999MA1102611999999REMMET056METAR ETSI 192020Z 27003KT 9999 BKN030 01/M01 Q1026 BLU;
0171108600999992011011921204+48717+011533FM-15+0365ETSI V0202701N002110084019N0112651N1+00101-00101999999ADDGA1021+005701999GA2071+008401999GA3071+018001999GF107991999999999999999999MA1102511999999REMMET070METAR ETSI 192120Z 27004KT 9999 FEW019 BKN028 BKN065 01/M01 Q1025 BLU;
0126108600999992011012004204+48717+011533FM-15+0365ETSI V0202601N001510045019N0112651N1+00001-00201999999ADDGA1071+004501999GF107991999999999999999999MA1102401999999REMMET057METAR ETSI 200420Z 26003KT 9999 BKN015 M00/M02 Q1024 WHT;
0159108600999992011012005004+48717+011533FM-12+0365ETSI V0202101N001010048019N0150001N1-00021-00151102611ADDGA1071+004801061GF107991071051004501999999MA1999999098051MD1710071+9999REMSYN076AAXX  20051 10860 43465 72101 11002 21015 39805 40261 57007 875// 333 87616;
0140108600999992011012005204+48717+011533FM-15+0365ETSI V0209999C000010048019N0112651N1+00001-00101999999ADDGA1071+004801999GF107991999999999999999999MA1102301999999REMMET071METAR ETSI 200520Z 00000KT 9999 BKN016 M00/M01 Q1023 WHT WHT TEMPO YLO;
0139108600999992011012006204+48717+011533FM-15+0365ETSI V0202301N001510060019N0112651N1+00001-00201999999ADDGA1071+006001999GF107991999999999999999999MA1102301999999REMMET070METAR ETSI 200620Z 23003KT 9999 BKN020 00/M02 Q1023 WHT WHT TEMPO YLO;
0235108600999992011012007004+48717+011533FM-12+0365ETSI V0202001N002010045019N0100001N1-00021-00161102601ADDAY121999AY221999GA1071+004501061GF107991071051004501999999MA1999999098041MD1510031+9999MW1771REMSYN130AAXX  20071 10860 41460 72002 11002 21016 39804 40260 55003 77722 875// 333 87615 555 BOT 10004 20011 30021 40040 50051 999 31///;
0140108600999992011012007204+48717+011533FM-15+0365ETSI V0202401N002110054019N0112651N1+00001-00201999999ADDGA1071+005401999GF107991999999999999999999MA1102301999999REMMET071METAR ETSI 200720Z 24004KT 9999 BKN018 M00/M02 Q1023 WHT WHT TEMPO YLO;
0193108600999992011012008004+48717+011533FM-12+0365ETSI V0202401N002010060019N0120001N1-00011-00161102601ADDAY121999AY221999GA1051+006001061GF107991061051008001031999MA1999999098041MD1510011+9999MW1201REMSYN088AAXX  20081 10860 41562 72402 11001 21016 39804 40260 55001 72022 8653/ 333 85620 87357;
0195108600999992011012008204+48717+011533FM-15+0365ETSI V0202401N002610069019N0112651N1+00001-00201999999ADDGA1021+003001999GA2071+006901999GA3071+015001999GF107991999999999999999999MA1102301999999MW1771REMMET088METAR ETSI 200820Z 24005KT 9999 -SG FEW010 BKN023 BKN050 00/M02 Q1023 WHT WHT TEMPO YLO;
0172108600999992011012009204+48717+011533FM-15+0365ETSI V0202901N002610030019N0112651N1+00001-00201999999ADDGA1071+003001999GA2071+006901999GF107991999999999999999999MA1102401999999MW1771REMMET081METAR ETSI 200920Z 29005KT 9999 -SG BKN010 BKN023 00/M02 Q1024 GRN WHT TEMPO YLO;
0193108600999992011012010004+48717+011533FM-12+0365ETSI V0203101N003010036019N0120001N1+00041-00171102621ADDAY171999AY271999GA1051+003601081GF107991071081004501999999MA1999999098071MD1310031+9999MW1771REMSYN088AAXX  20101 10860 41462 73103 10004 21017 39807 40262 53003 77777 878// 333 85812 87620;
0172108600999992011012010204+48717+011533FM-15+0365ETSI V0203001N002110030019N0112651N1+00101-00101999999ADDGA1071+003001999GA2071+006001999GF107991999999999999999999MA1102401999999MW1771REMMET081METAR ETSI 201020Z 30004KT 9999 -SG BKN010 BKN020 01/M01 Q1024 GRN WHT TEMPO YLO;
0193108600999992011012011004+48717+011533FM-12+0365ETSI V0202401N002010030019N0120001N1+00051-00141102631ADDAY171999AY221999GA1051+003001081GF107991071081004501999999MA1999999098081MD1210041+9999MW1221REMSYN088AAXX  20111 10860 41462 72402 10005 21014 39808 40263 52004 72272 878// 333 85810 87620;
0162108600999992011012011204+48717+011533FM-15+0365ETSI V0202201N001010069019N0112651N1+00101-00101999999ADDGA1041+003001999GA2071+006901999GF107991999999999999999999MA1102401999999REMMET077METAR ETSI 201120Z 22002KT 9999 SCT010 BKN023 01/M01 Q1024 WHT WHT TEMPO YLO;
0185108600999992011012012204+48717+011533FM-15+0365ETSI V0202401N00151007501CN0112651N1+00201-00201999999ADDGA1041+003901999GA2041+007501999GA3071+015001999GF107991999999999999999999MA1102301999999REMMET084METAR ETSI 201220Z 24003KT 9999 SCT013 SCT025 BKN050 02/M02 Q1023 BLU BLU TEMPO YLO;
0165108600999992011012013004+48717+011533FM-12+0365ETSI V0209999V001010360019N0150001N1+00161-00301102571ADDGA1011+003001081GF106991041021004501031001MA1999999098041MD1810031+9999REMSYN082AAXX  20131 10860 42465 69901 10016 21030 39804 40257 58003 84230 333 81810 83822;
0165108600999992011012013204+48717+011533FM-15+0365ETSI V0209999V000512200019N0112651N1+00201-00401999999ADDGA1021+004501021GA2041+013501999GF104991999999999999999999MA1102301999999REMMET080METAR ETSI 201320Z VRB01KT 9999 FEW015TCU SCT045 02/M04 Q1023 BLU/BLU TEMPO YLO;
0223108600999992011012014004+48717+011533FM-12+0365ETSI V0200301N002012200019N0150001N1+00211-00331102581ADDGA1021+007501081GA2031+030001031GF104991021021008001031001MA1999999098061MD1510021+9999REMSYN124AAXX  20141 10860 42565 40302 10021 21033 39806 40258 55002 82230 333 82825 83360 555 BOT 10044 20033 30024 40038 999 31///;
0162108600999992011012014204+48717+011533FM-15+0365ETSI V0203501N001512200019N0112651N1+00201-00301999999ADDGA1021+007501999GA2041+010501999GF104991999999999999999999MA1102401999999REMMET077METAR ETSI 201420Z 35003KT 9999 FEW025 SCT035 02/M03 Q1024 BLU/BLU TEMPO YLO;
0162108600999992011012015204+48717+011533FM-15+0365ETSI V0203601N001012200019N0112651N1+00101-00301999999ADDGA1021+006001999GA2041+009001999GF104991999999999999999999MA1102401999999REMMET077METAR ETSI 201520Z 36002KT 9999 FEW020 SCT030 01/M03 Q1024 BLU/BLU TEMPO YLO;
0176108600999992011012015434+48717+011533FM-16+0365ETSI V0203501N001510075019N0045001N1+00001-00301999999ADDGA1021+004501021GA2071+007501999GF107991999999999999999999MA1102401999999MW1161REMMET085SPECI ETSI 201543Z 35003KT 4500 VCSH FEW015TCU BKN025 00/M03 Q1024 GRN BLU TEMPO YLO;
0176108600999992011012015474+48717+011533FM-16+0365ETSI V0203501N002110075019N0035001N1+00101-00201999999ADDGA1021+004501021GA2071+007501999GF107991999999999999999999MA1102401999999MW1161REMMET085SPECI ETSI 201547Z 35004KT 3500 VCSH FEW015TCU BKN025 01/M02 Q1024 YLO BLU TEMPO YLO;
0299108600999992011012016004+48717+011533SY-MT+0365ETSI V0203601N002010024019N0035001N1+00051-00241102651ADDAY121999AY221999GA1071+002401021GA2071+006001999GF105991051081004501001001MA1102401098101MD1210061+9999MW1151REMSYN088AAXX  20161 10860 41435 53602 10005 21024 39810 40265 52006 71522 85800 333 82815 85620;MET084SPECI ETSI 201555Z 03006KT 0900 +SHSN BKN008TCU BKN020 01/M02 Q1024 AMB FCST CANCEL;
0157108600999992011012016204+48717+011533FM-15+0365ETSI V0200701N002610090019N0016001N1+00001+00001999999ADDGA1041+002401021GA2071+009001999GF107991999999999999999999MA1102401999999REMMET072METAR ETSI 201620Z 07005KT 1600 SHSN SCT008TCU BKN030 M00/M00 Q1024 YLO;
0163108600999992011012016274+48717+011533FM-16+0365ETSI V0200801N002110045019N0040001N1-00101-00101999999ADDGA1021+002401021GA2071+004501999GF107991999999999999999999MA1102401999999REMMET078SPECI ETSI 201627Z 08004KT 4000 -SHSN FEW008TCU BKN015 M01/M01 Q1024 RESN GRN;
0191108600999992011012016324+48717+011533FM-16+0365ETSI V0200901N00211004501CN0060001N1-00101-00101999999ADDGA1021+002401021GA2041+004501999GA3071+006001999GF107991999999999999999999MA1102401999999MW1161REMMET084SPECI ETSI 201632Z 09004KT 6000 VCSH FEW008TCU SCT015 BKN020 M01/M01 RESN Q1024 WHT;
0215108600999992011012017004+48717+011533FM-12+0365ETSI V0201201N001010060019N0080001N1-00081-00121102731ADDAY181999AY221999GA1021+003001081GA2031+006001081GF106991061081004501001001MA1999999098151MD1210091+9999MW1261REMSYN094AAXX  20171 10860 41458 61201 11008 21012 39815 40273 52009 72682 86800 333 82810 83820 85640;
0177108600999992011012017204+48717+011533FM-15+0365ETSI V0200401N00101007501CN0112651N1-00101-00101999999ADDGA1021+003001999GA2041+007501999GA3071+015001999GF107991999999999999999999MA1102511999999REMMET076METAR ETSI 201720Z 04002KT 9999 FEW010 SCT025 BKN050 M01/M01 Q1025 RESN BLU;
0182108600999992011012020204+48717+011533FM-15+0365ETSI V0200201N002110084019N0112651N1+00001-00201999999ADDGA1021+005701999GA2071+008401999GA3071+015001999GF107991999999999999999999MA1102611999999MW1711REMMET075METAR ETSI 202020Z 02004KT 9999 -SN FEW019 BKN028 BKN055 M00/M02 Q1026 BLU;
0159108600999992011012021204+48717+011533FM-15+0365ETSI V0200201N002610150019N0112651N1+00001-00301999999ADDGA1041+004501999GA2071+015001999GF107991999999999999999999MA1102611999999MW1711REMMET068METAR ETSI 202120Z 02005KT 9999 -SN SCT015 BKN055 M00/M03 Q1026 BLU;
0127108600999992011012104204+48717+011533FM-15+0365ETSI V0200201N002112200019N0112651N1-00301-00401999999ADDGA1021+015001999GF102991999999999999999999MA1102811999999REMMET058METAR ETSI 210420Z 02004KT 9999 FEW050 M03/M04 Q1028 BLU/;
0159108600999992011012105004+48717+011533FM-12+0365ETSI V0200301N002012200019N0200001N1-00271-00431103151ADDGA1011+018001061GF101991011051017501001021MA1999999098521MD1310061+9999REMSYN076AAXX  21051 10860 43770 10302 11027 21043 39852 40315 53006 81502 333 81656;
0141108600999992011012105204+48717+011533FM-15+0365ETSI V0200201N002112200019N0112651N1-00301-00401999999ADDGA1041+018001999GF104991999999999999999999MA1102911999999REMMET072METAR ETSI 210520Z 02004KT 9999 SCT060 M03/M04 Q1029 BLU/BLU/ BECMG BLU;
0141108600999992011012106204+48717+011533FM-15+0365ETSI V0200301N002112200019N0112651N1-00301-00501999999ADDGA1021+003601999GF102991999999999999999999MA1102911999999REMMET072METAR ETSI 210620Z 03004KT 9999 FEW012 M03/M05 Q1029 BLU/BLU/ BECMG BLU;
0207108600999992011012107004+48717+011533FM-12+0365ETSI V0200401N002012200019N0180001N1-00331-00481103221ADDGA1011+003601081GF103991031081004501001011MA1999999098581MD1210091+9999REMSYN124AAXX  21071 10860 42468 30402 11033 21048 39858 40322 52009 83801 333 81812 555 BOT 10000 20007 30018 40037 50051 999 46///;
0141108600999992011012107204+48717+011533FM-15+0365ETSI V0200401N001012200019N0112651N1-00401-00501999999ADDGA1021+018001999GF102991999999999999999999MA1102911999999REMMET072METAR ETSI 210720Z 04002KT 9999 FEW060 M04/M05 Q1029 BLU/BLU/ BECMG BLU;
0159108600999992011012108004+48717+011533FM-12+0365ETSI V0200401N002012200019N0180001N1-00311-00471103261ADDGA1011+018001061GF101991011051017501001001MA1999999098621MD1210101+9999REMSYN076AAXX  21081 10860 42768 10402 11031 21047 39862 40326 52010 81500 333 81656;
0141108600999992011012108204+48717+011533FM-15+0365ETSI V0200301N002112200019N0112651N1-00301-00501999999ADDGA1021+018001999GF102991999999999999999999MA1103011999999REMMET072METAR ETSI 210820Z 03004KT 9999 FEW060 M03/M05 Q1030 BLU/BLU/ BECMG BLU;
0141108600999992011012109204+48717+011533FM-15+0365ETSI V0200401N003112200019N0112651N1-00101-00501999999ADDGA1021+004501999GF102991999999999999999999MA1103011999999REMMET072METAR ETSI 210920Z 04006KT 9999 FEW015 M01/M05 Q1030 BLU/BLU TEMPO BLU/;
0159108600999992011012110004+48717+011533FM-12+0365ETSI V0200301N004012200019N0350001N1-00111-00441103271ADDGA1021+004501081GF102991021081004501001001MA1999999098671MD1210091+9999REMSYN076AAXX  21101 10860 42481 20304 11011 21044 39867 40327 52009 82800 333 82815;
0141108600999992011012110204+48717+011533FM-15+0365ETSI V0200301N003612200019N0112651N1-00101-00501999999ADDGA1021+005101999GF102991999999999999999999MA1103011999999REMMET072METAR ETSI 211020Z 03007KT 9999 FEW017 M01/M05 Q1030 BLU/BLU TEMPO BLU/;
0159108600999992011012111004+48717+011533FM-12+0365ETSI V0200401N004012200019N0400001N1-00031-00491103241ADDGA1031+006001081GF103991031081008001001001MA1999999098651MD1010031+9999REMSYN076AAXX  21111 10860 42582 30404 11003 21049 39865 40324 50003 83800 333 83820;
0141108600999992011012111204+48717+011533FM-15+0365ETSI V0200501N003112200019N0112651N1+00001-00501999999ADDGA1041+006601999GF104991999999999999999999MA1103011999999REMMET072METAR ETSI 211120Z 05006KT 9999 SCT022 M00/M05 Q1030 BLU/BLU/ TEMPO BLU;
0161108600999992011012111304+48717+011533FM-16+0365ETSI V0200401N003612200019N0112651N1+00001-00501999999ADDGA1041+006601999GA2041+011401999GF104991999999999999999999MA1103011999999REMMET076SPECI ETSI 211130Z 04007KT 9999 SCT022 SCT038 M00/M05 Q1030 BLU/FCST CANCEL;
0149108600999992011012112204+48717+011533FM-15+0365ETSI V0200501N003110096019N0112651N1-00101-00501999999ADDGA1041+006001999GA2071+009601999GF107991999999999999999999MA1102911999999REMMET064METAR ETSI 211220Z 05006KT 9999 SCT020 BKN032 M01/M05 Q1029 BLU;
0165108600999992011012113004+48717+011533FM-12+0365ETSI V0200201N00301012001CN0350001N1-00081-00471103191ADDGA1041+006001081GF107991071081008001999999MA1999999098591MD1710081+9999REMSYN082AAXX  21131 10860 42581 70203 11008 21047 39859 40319 57008 878// 333 84820 87632;
0149108600999992011012113204+48717+011533FM-15+0365ETSI V0200501N003610090019N0112651N1-00101-00501999999ADDGA1041+006001999GA2071+009001999GF107991999999999999999999MA1102911999999REMMET064METAR ETSI 211320Z 05007KT 9999 SCT020 BKN030 M01/M05 Q1029 BLU;
0223108600999992011012114004+48717+011533FM-12+0365ETSI V0200401N004010102019N0350001N1-00091-00551103181ADDGA1031+007201081GA2071+010201061GF107991071081008001999999MA1999999098581MD1710071+9999REMSYN124AAXX  21141 10860 42581 70404 11009 21055 39858 40318 57007 878// 333 83824 87634 555 BOT 10000 20006 30015 40035 999 46///;
0149108600999992011012114204+48717+011533FM-15+0365ETSI V0200301N003110108019N0112651N1-00101-00601999999ADDGA1021+007201999GA2071+010801999GF107991999999999999999999MA1102911999999REMMET064METAR ETSI 211420Z 03006KT 9999 FEW024 BKN036 M01/M06 Q1029 BLU;
0149108600999992011012115204+48717+011533FM-15+0365ETSI V0200401N003110105019N0112651N1-00101-00501999999ADDGA1021+006001999GA2071+010501999GF107991999999999999999999MA1102911999999REMMET064METAR ETSI 211520Z 04006KT 9999 FEW020 BKN035 M01/M05 Q1029 BLU;
0165108600999992011012116004+48717+011533FM-12+0365ETSI V0200201N00301012001CN0350001N1-00111-00531103191ADDGA1021+006001081GF107991071081008001999999MA1999999098591MD1510001+9999REMSYN082AAXX  21161 10860 42581 70203 11011 21053 39859 40319 55000 878// 333 82820 87635;
0149108600999992011012116204+48717+011533FM-15+0365ETSI V0200401N003110096019N0112651N1-00101-00701999999ADDGA1021+006001999GA2071+009601999GF107991999999999999999999MA1102911999999REMMET064METAR ETSI 211620Z 04006KT 9999 FEW020 BKN032 M01/M07 Q1029 BLU;
0165108600999992011012117004+48717+011533FM-12+0365ETSI V0200301N00201012001CN0300001N1-00121-00651103221ADDGA1011+006001081GF107991071081008001999999MA1999999098621MD1310041+9999REMSYN082AAXX  21171 10860 42580 70302 11012 21065 39862 40322 53004 878// 333 81820 87630;
0149108600999992011012117204+48717+011533FM-15+0365ETSI V0200101N003110090019N0112651N1-00101-00601999999ADDGA1021+006001999GA2071+009001999GF107991999999999999999999MA1103011999999REMMET064METAR ETSI 211720Z 01006KT 9999 FEW020 BKN030 M01/M06 Q1030 BLU;
0159108600999992011012118204+48717+011533FM-15+0365ETSI V0200301N003110090019N0112651N1-00201-00601999999ADDGA1021+004501999GA2071+009001999GF107991999999999999999999MA1103011999999MW1711REMMET068METAR ETSI 211820Z 03006KT 9999 -SN FEW015 BKN030 M02/M06 Q1030 BLU;
0182108600999992011012207204+48717+011533FM-15+0365ETSI V0200601N00211009001CN0090001N1-00301-00501999999ADDGA1021+003001999GA2041+009001999GA3071+012901999GF107991999999999999999999MA1102911999999MW1711REMMET075METAR ETSI 220720Z 06004KT 9000 -SN FEW010 SCT030 BKN043 M03/M05 Q1029 BLU;
0182108600999992011012208204+48717+011533FM-15+0365ETSI V0200701N00261010501CN0112651N1-00301-00501999999ADDGA1021+003001999GA2041+010501999GA3071+014101999GF107991999999999999999999MA1102911999999MW1711REMMET075METAR ETSI 220820Z 07005KT 9999 -SN FEW010 SCT035 BKN047 M03/M05 Q1029 BLU;
0126108600999992011012316514+48717+011533FM-16+0365ETSI V0202701N003110054019N0112651N1-00201-00501999999ADDGA1081+005401999GF108991999999999999999999MA1102301999999REMMET057SPECI ETSI 231651Z 27006KT 9999 OVC018 M02/M05 Q1023 WHT;
0126108600999992011012317204+48717+011533FM-15+0365ETSI V0202601N003110051019N0112651N1-00201-00601999999ADDGA1081+005101999GF108991999999999999999999MA1102301999999REMMET057METAR ETSI 231720Z 26006KT 9999 OVC017 M02/M06 Q1023 WHT;
0159108600999992011012404204+48717+011533FM-15+0365ETSI V0202601N003110015019N0045001N1-00201-00201999999ADDGA1071+001501999GA2081+004201999GF108991999999999999999999MA1102101999999MW1711REMMET068METAR ETSI 240420Z 26006KT 4500 -SN BKN005 OVC014 M02/M02 Q1021 YLO;
0158108600999992011012404594+48717+011533FM-16+0365ETSI V0202601N004110015019N0020001N1-00201-00201999999ADDGA1071+001501999GA2081+003601999GF108991999999999999999999MA1102101999999MW1731REMMET067SPECI ETSI 240459Z 26008KT 2000 SN BKN005 OVC012 M02/M02 Q1021 YLO;
0185108600999992011012405004+48717+011533FM-12+0365ETSI V0202601N004010015019N0045001N1-00201-00241102411ADDAY171999GA1051+001501071GF108991081051001501999999MA1999999097831MD1710051+9999MW1711REMSYN088AAXX  24051 10860 41245 82604 11020 21024 39783 40241 57005 7717/ 885// 333 85705 88612;
0187108600999992011012405204+48717+011533FM-15+0365ETSI V0202601N003610036019N0035001N1-00201-00201999999ADDGA1041+001501999GA2081+003601999GF108991999999999999999999MA1102101999999MW1101MW2711REMMET090METAR ETSI 240520Z 26007KT 3500 -SN BR SCT005 OVC012 M02/M02 Q1021 RESN YLO GRN TEMPO YLO;
0181108600999992011012406004+48717+011533FM-15+0365ETSI V0202501N004110036019N0025001N1-00201-00201999999ADDGA1041+001501999GA2081+003601999GF108991999999999999999999MA1102101999999MW1101MW2731REMMET084SPECI ETSI 240555Z 25008KT 2500 SN BR SCT005 OVC012 M02/M02 Q1021 YLO GRN TEMPO YLO;
0187108600999992011012406204+48717+011533FM-15+0365ETSI V0202601N004110036019N0025001N1-00201-00201999999ADDGA1041+001501999GA2081+003601999GF108991999999999999999999MA1102101999999MW1101MW2711REMMET090METAR ETSI 240620Z 26008KT 2500 -SN BR SCT005 OVC012 M02/M02 Q1021 RESN YLO GRN TEMPO YLO;
0279108600999992011012407004+48717+011533FM-12+0365ETSI V0202601N004010036019N0025001N1-00211-00211102421ADDAY171999AY271999GA1031+001501071GA2061+003601061GA3081+010501061GF108991081051001501999999MA1999999097841MD1510001+9999MW1711REMSYN142AAXX  24071 10860 41225 82604 11021 21021 39784 40242 55000 77177 885// 333 83705 86612 88635 555 BOT 11005 21002 30005 40026 50046 999 47///;
0182108600999992011012407204+48717+011533FM-15+0365ETSI V0202601N003610039019N0025001N1-00201-00201999999ADDGA1041+001501999GA2081+003901999GF108991999999999999999999MA1102101999999MW1101MW2711REMMET085METAR ETSI 240720Z 26007KT 2500 -SN BR SCT005 OVC013 M02/M02 Q1021 YLO GRN TEMPO YLO;
0182108600999992011012407444+48717+011533FM-16+0365ETSI V0202501N003610036019N0037001N1-00201-00201999999ADDGA1021+001501999GA2081+003601999GF108991999999999999999999MA1102201999999MW1101MW2711REMMET085SPECI ETSI 240744Z 25007KT 3700 -SN BR FEW005 OVC012 M02/M02 Q1022 GRN GRN TEMPO YLO;
0193108600999992011012408004+48717+011533FM-12+0365ETSI V0202501N00401001201CN0037001N1-00191-00241102451ADDAY171999AY271999GA1021+001501071GF108991081051001501999999MA1999999097871MD1310041+9999MW1711REMSYN088AAXX  24081 10860 41237 82504 11019 21024 39787 40245 53004 77177 885// 333 82705 88612;
0182108600999992011012408204+48717+011533FM-15+0365ETSI V0202601N003610033019N0030001N1-00201-00201999999ADDGA1021+001501999GA2081+003301999GF108991999999999999999999MA1102101999999MW1101MW2711REMMET085METAR ETSI 240820Z 26007KT 3000 -SN BR FEW005 OVC011 M02/M02 Q1021 YLO GRN TEMPO YLO;
0181108600999992011012408484+48717+011533FM-16+0365ETSI V0202601N004110033019N0025001N1-00201-00201999999ADDGA1021+001501999GA2081+003301999GF108991999999999999999999MA1102201999999MW1101MW2731REMMET084SPECI ETSI 240848Z 26008KT 2500 SN BR FEW005 OVC011 M02/M02 Q1022 YLO GRN TEMPO YLO;
0187108600999992011012409114+48717+011533FM-16+0365ETSI V0202601N003610033019N0030001N1-00201-00201999999ADDGA1021+001501999GA2081+003301999GF108991999999999999999999MA1102201999999MW1101MW2711REMMET090SPECI ETSI 240911Z 26007KT 3000 -SN BR FEW005 OVC011 M02/M02 Q1022 RESN YLO GRN TEMPO YLO;
0187108600999992011012409204+48717+011533FM-15+0365ETSI V0202601N003610033019N0035001N1-00101-00101999999ADDGA1021+001501999GA2081+003301999GF108991999999999999999999MA1102201999999MW1101MW2711REMMET090METAR ETSI 240920Z 26007KT 3500 -SN BR FEW005 OVC011 M01/M01 Q1022 RESN YLO GRN TEMPO YLO;
0181108600999992011012409534+48717+011533FM-16+0365ETSI V0202601N003610033019N0025001N1-00101-00101999999ADDGA1041+001501999GA2081+003301999GF108991999999999999999999MA1102201999999MW1101MW2731REMMET084SPECI ETSI 240953Z 26007KT 2500 SN BR SCT005 OVC011 M01/M01 Q1022 YLO GRN TEMPO YLO;
0193108600999992011012410004+48717+011533FM-12+0365ETSI V0202601N00401001201CN0025001N1-00141-00191102441ADDAY171999AY271999GA1031+001501071GF108991081051001501999999MA1999999097871MD1110031+9999MW1731REMSYN088AAXX  24101 10860 41225 82604 11014 21019 39787 40244 51003 77377 885// 333 83705 88611;
0181108600999992011012410204+48717+011533FM-15+0365ETSI V0202601N003610015019N0020001N1-00101-00101999999ADDGA1071+001501999GA2081+003301999GF108991999999999999999999MA1102201999999MW1101MW2731REMMET084METAR ETSI 241020Z 26007KT 2000 SN BR BKN005 OVC011 M01/M01 Q1022 YLO GRN TEMPO YLO;
0150108600999992011012410334+48717+011533FM-16+0365ETSI V0202601N003610015019N0009001N1-00101-00101999999ADDGA1081+001501999GF108991999999999999999999MA1102101999999MW1751REMMET075SPECI ETSI 241033Z 26007KT 0900 +SN OVC005 M01/M01 Q1021 AMB GRN TEMPO YLO;
0158108600999992011012410434+48717+011533FM-16+0365ETSI V0202501N004110015019N0016001N1-00101-00101999999ADDGA1081+001501999GF108991999999999999999999MA1102101999999MW1101MW2731REMMET077SPECI ETSI 241043Z 25008KT 1600 SN BR OVC005 M01/M01 Q1021 YLO GRN TEMPO YLO;
0187108600999992011012411004+48717+011533FM-12+0365ETSI V0202501N004010015019N0022001N1-00131-00181102401ADDAY171999AY271999GA1081+001501061GF108991081051001501999999MA1999999097831MD1810031+9999MW1731REMSYN082AAXX  24111 10860 41222 82504 11013 21018 39783 40240 58003 77377 885// 333 88605;
0187108600999992011012411204+48717+011533FM-15+0365ETSI V0202601N003610015019N0025001N1-00101-00101999999ADDGA1071+001501999GA2081+003301999GF108991999999999999999999MA1102101999999MW1101MW2711REMMET090METAR ETSI 241120Z 26007KT 2500 -SN BR BKN005 OVC011 M01/M01 Q1021 RESN YLO GRN TEMPO YLO;
0182108600999992011012412204+48717+011533FM-15+0365ETSI V0202501N003610015019N0028001N1-00101-00201999999ADDGA1071+001501999GA2081+003301999GF108991999999999999999999MA1102101999999MW1101MW2711REMMET085METAR ETSI 241220Z 25007KT 2800 -SN BR BKN005 OVC011 M01/M02 Q1021 YLO GRN TEMPO YLO;
0193108600999992011012413004+48717+011533FM-12+0365ETSI V0202601N004010015019N0025001N1-00111-00161102311ADDAY171999AY271999GA1061+001501061GF108991081051001501999999MA1999999097751MD1710121+9999MW1731REMSYN088AAXX  24131 10860 41225 82604 11011 21016 39775 40231 57012 77377 885// 333 86605 88611;
0187108600999992011012413204+48717+011533FM-15+0365ETSI V0202601N003110015019N0028001N1-00101-00101999999ADDGA1071+001501999GA2081+003301999GF108991999999999999999999MA1102001999999MW1101MW2711REMMET090METAR ETSI 241320Z 26006KT 2800 -SN BR BKN005 OVC011 M01/M01 Q1020 RESN YLO GRN TEMPO YLO;
0382108600999992011012414004+48717+011533SY-MT+0365ETSI V0202501N003010024019N0035001N1-00081-00141102301ADDAY171999AY271999GA1041+001501999GA2071+002401999GA3081+004201999GF108991081051001501999999MA1102001097741MD1610091+9999MW1101MW2711REMSYN136AAXX  24141 10860 41235 82503 11008 21014 39774 40230 56009 77177 885// 333 83705 85608 88614 555 BOT 11003 21002 30005 40025 999 47///;MET097SPECI ETSI 241355Z 25007KT 3500 -SN BR SCT005 BKN008 OVC014 M01/M01 Q1020 RESN YLO GRN TEMPO YLO;
0205108600999992011012414204+48717+011533FM-15+0365ETSI V0202501N00361002401CN0033001N1-00101-00101999999ADDGA1021+001501999GA2041+002401999GA3081+004501999GF108991999999999999999999MA1102001999999MW1101MW2711REMMET092METAR ETSI 241420Z 25007KT 3300 -SN BR FEW005 SCT008 OVC015 M01/M01 Q1020 YLO GRN TEMPO YLO;
0204108600999992011012415204+48717+011533FM-15+0365ETSI V0202601N00361002701CN0020001N1-00101-00101999999ADDGA1021+001501999GA2041+002701999GA3081+004201999GF108991999999999999999999MA1102001999999MW1101MW2731REMMET091METAR ETSI 241520Z 26007KT 2000 SN BR FEW005 SCT009 OVC014 M01/M01 Q1020 YLO GRN TEMPO YLO;
0215108600999992011012416004+48717+011533FM-12+0365ETSI V0202601N004010027019N0020001N1-00071-00101102311ADDAY171999AY271999GA1031+001501071GA2051+002701061GF108991081051001501999999MA1999999097751MD1510001+9999MW1711REMSYN094AAXX  24161 10860 41220 82604 11007 21010 39775 40231 55000 77177 885// 333 83705 85609 88614;
0185108600999992011012416074+48717+011533FM-16+0365ETSI V0202601N003110027019N0020001N1-00101-00101999999ADDGA1041+001501999GA2081+002701999GF108991999999999999999999MA1102001999999MW1101MW2711REMMET088SPECI ETSI 241607Z 26006KT 2000 -SN BR SCT005 OVC009 M01/M01 Q1020 RESN YLO FCST CANCEL;
0196108600999992011012416204+48717+011533FM-15+0365ETSI V0202601N003110027019N0022001N1-00101-00101999999ADDGA1021+001501999GA2071+002701999GA3081+003901999GF108991999999999999999999MA1102001999999MW1101MW2711REMMET083METAR ETSI 241620Z 26006KT 2200 -SN BR FEW005 BKN009 OVC013 M01/M01 Q1020 RESN YLO;
0191108600999992011012416554+48717+011533FM-16+0365ETSI V0202501N003610042019N0035001N1-00101-00101999999ADDGA1021+001501999GA2071+004201999GA3081+007501999GF108991999999999999999999MA1102001999999MW1101MW2711REMMET078SPECI ETSI 241655Z 25007KT 3500 -SN BR FEW005 BKN014 OVC025 M01/M01 Q1020 YLO;
0321108600999992011012417004+48717+011533SY-MT+0365ETSI V0202501N004010045019N0035001N1-00071-00101102291ADDAY171999AY271999GA1021+001501999GA2071+004501999GA3081+007501999GF108991081051001501999999MA1102001097741MD1010001+9999MW1101MW2711REMSYN094AAXX  24171 10860 41235 82504 11007 21010 39774 40229 50000 77177 885// 333 81705 86615 88625;MET078SPECI ETSI 241655Z 25007KT 3500 -SN BR FEW005 BKN015 OVC025 M01/M01 Q1020 YLO;
0168108600999992011012417204+48717+011533FM-15+0365ETSI V0202501N003610042019N0035001N1+00001+00001999999ADDGA1021+001501999GA2081+004201999GF108991999999999999999999MA1102001999999MW1101MW2711REMMET071METAR ETSI 241720Z 25007KT 3500 -SN BR FEW005 OVC014 M00/M00 Q1020 YLO;
0167108600999992011012417334+48717+011533FM-16+0365ETSI V0202501N003610036019N0025001N1+00001+00001999999ADDGA1021+001501999GA2081+003601999GF108991999999999999999999MA1102001999999MW1101MW2731REMMET070SPECI ETSI 241733Z 25007KT 2500 SN BR FEW005 OVC012 M00/M00 Q1020 YLO;
0173108600999992011012418004+48717+011533FM-15+0365ETSI V0202501N003610036019N0035001N1+00001+00001999999ADDGA1021+001501999GA2081+003601999GF108991999999999999999999MA1102001999999MW1101MW2711REMMET076SPECI ETSI 241756Z 25007KT 3500 -SN BR FEW005 OVC012 M00/M00 Q1020 RESN YLO;
0173108600999992011012418084+48717+011533FM-16+0365ETSI V0202501N003610036019N0040001N1+00001+00001999999ADDGA1021+001501999GA2081+003601999GF108991999999999999999999MA1102001999999MW1101MW2711REMMET076SPECI ETSI 241808Z 25007KT 4000 -SN BR FEW005 OVC012 M00/M00 Q1020 RESN GRN;
0173108600999992011012418204+48717+011533FM-15+0365ETSI V0202501N003610036019N0040001N1+00001+00001999999ADDGA1021+001501999GA2081+003601999GF108991999999999999999999MA1102001999999MW1101MW2711REMMET076METAR ETSI 241820Z 25007KT 4000 -SN BR FEW005 OVC012 M00/M00 Q1020 RESN GRN;
0168108600999992011012421204+48717+011533FM-15+0365ETSI V0202501N002610030019N0045001N1+00001+00001999999ADDGA1021+001501999GA2081+003001999GF108991999999999999999999MA1102001999999MW1101MW2711REMMET071METAR ETSI 242120Z 25005KT 4500 -SN BR FEW005 OVC010 M00/M00 Q1020 GRN;
0158108600999992011012422204+48717+011533FM-15+0365ETSI V0202501N003110021019N0045001N1+00001-00101999999ADDGA1071+002101999GA2081+003601999GF108991999999999999999999MA1101901999999MW1101REMMET067METAR ETSI 242220Z 25006KT 4500 BR BKN007 OVC012 M00/M01 Q1019 GRN;
0172108600999992011012504204+48717+011533FM-15+0365ETSI V0202501N003610021019N0040001N1+00001-00101999999ADDGA1021+001501999GA2081+002101999GF108991999999999999999999MA1101591999999MW1101MW2771REMMET075METAR ETSI 250420Z 25007KT 4000 -SG BR FEW005 OVC007 00/M01 Q1016 RESN GRN;
0185108600999992011012505004+48717+011533FM-12+0365ETSI V0202501N00401001201CN0040001N1+00011-00051101831ADDAY171999GA1021+001501071GF108991081051001501999999MA1999999097311MD1710181+9999MW1771REMSYN088AAXX  25051 10860 41240 82504 10001 21005 39731 40183 57018 7777/ 885// 333 82705 88607;
0181108600999992011012505204+48717+011533FM-15+0365ETSI V0202601N003610021019N0040001N1+00001+00001999999ADDGA1021+001501999GA2081+002101999GF108991999999999999999999MA1101591999999MW1101MW2771REMMET084METAR ETSI 250520Z 26007KT 4000 -SG BR FEW005 OVC007 00/M00 Q1016 GRN GRN TEMPO YLO;
0180108600999992011012505444+48717+011533FM-16+0365ETSI V0202601N003610018019N0038001N1+00001+00001999999ADDGA1021+001501999GA2081+001801999GF108991999999999999999999MA1101591999999MW1101MW2731REMMET083SPECI ETSI 250544Z 26007KT 3800 SN BR FEW005 OVC006 00/M00 Q1016 YLO GRN TEMPO YLO;
0186108600999992011012506204+48717+011533FM-15+0365ETSI V0202501N004110015019N0038001N1+00001+00001999999ADDGA1071+001501999GA2081+002401999GF108991999999999999999999MA1101491999999MW1101MW2711REMMET089METAR ETSI 250620Z 25008KT 3800 -SN BR BKN005 OVC008 00/M00 Q1015 RESN YLO GRN TEMPO YLO;
0180108600999992011012506254+48717+011533FM-16+0365ETSI V0202501N004610015019N0035001N1+00001+00001999999ADDGA1071+001501999GA2081+002401999GF108991999999999999999999MA1101491999999MW1101MW2731REMMET083SPECI ETSI 250625Z 25009KT 3500 SN BR BKN005 OVC008 00/M00 Q1015 YLO GRN TEMPO YLO;
0257108600999992011012507004+48717+011533FM-12+0365ETSI V0202501N004010015019N0035001N1+00031-00031101771ADDAY171999AY271999GA1051+001501071GA2081+002401061GF108991081051001501999999MA1999999097261MD1710121+9999MW1711REMSYN136AAXX  25071 10860 41235 82504 10003 21003 39726 40177 57012 77177 885// 333 85705 88608 555 BOT 11002 21001 30005 40024 50044 999 47///;
0209108600999992011012507204+48717+011533FM-15+0365ETSI V0202501N004110021019N0038001N1+00001+00001999999ADDGA1041+001501999GA2071+002101999GA3071+003001999GF107991999999999999999999MA1101491999999MW1101MW2711REMMET096METAR ETSI 250720Z 25008KT 3800 -SN BR SCT005 BKN007 BKN010 00/M00 Q1015 RESN GRN GRN TEMPO YLO;
0204108600999992011012507494+48717+011533FM-16+0365ETSI V0202501N004110024019N0035001N1+00001-00101999999ADDGA1041+001501999GA2071+002401999GA3071+003001999GF107991999999999999999999MA1101491999999MW1101MW2711REMMET091SPECI ETSI 250749Z 25008KT 3500 -SN BR SCT005 BKN008 BKN010 00/M01 Q1015 YLO GRN TEMPO YLO;
0215108600999992011012508004+48717+011533FM-12+0365ETSI V0202501N004010024019N0035001N1+00041-00061101741ADDAY171999AY271999GA1031+001501071GA2061+002401061GF108991081051001501999999MA1999999097231MD1710081+9999MW1711REMSYN094AAXX  25081 10860 41235 82504 10004 21006 39723 40174 57008 77177 885// 333 83705 86608 87610;
0194108600999992011012508204+48717+011533FM-15+0365ETSI V0202601N00361002401CN0040001N1+00101+00001999999ADDGA1021+001801999GA2041+002401999GA3071+003001999GF107991999999999999999999MA1101491999999MW1101REMMET087METAR ETSI 250820Z 26007KT 4000 BR FEW006 SCT008 BKN010 01/M00 Q1015 GRN GRN TEMPO YLO;
