0131109470999992011010107204+47983+010233FM-15+0629EDJA V0202401N002610009019N0035001N1-00101-00201999999ADDGA1071+000901999GF107991999999999999999999MA1102001999999MW1101REMMET056METAR EDJA 010720Z 24005KT 3500 BR BKN003 M01/M02 Q1020;
0131109470999992011010107504+47983+010233FM-15+0629EDJA V0202201N002110009019N0040001N1-00101-00201999999ADDGA1071+000901999GF107991999999999999999999MA1102001999999MW1101REMMET056METAR EDJA 010750Z 22004KT 4000 BR BKN003 M01/M02 Q1020;
0131109470999992011010108204+47983+010233FM-15+0629EDJA V0202201N002610006019N0035001N1-00101-00201999999ADDGA1071+000601999GF107991999999999999999999MA1102001999999MW1101REMMET056METAR EDJA 010820Z 22005KT 3500 BR BKN002 M01/M02 Q1020;
0131109470999992011010108504+47983+010233FM-15+0629EDJA V0202301N002610006019N0030001N1-00101-00101999999ADDGA1071+000601999GF107991999999999999999999MA1102001999999MW1101REMMET056METAR EDJA 010850Z 23005KT 3000 BR BKN002 M01/M01 Q1020;
0131109470999992011010109204+47983+010233FM-15+0629EDJA V0202301N003110012019N0030001N1-00101-00101999999ADDGA1071+001201999GF107991999999999999999999MA1102001999999MW1101REMMET056METAR EDJA 010920Z 23006KT 3000 BR BKN004 M01/M01 Q1020;
0131109470999992011010109504+47983+010233FM-15+0629EDJA V0202401N004610012019N0040001N1+00001-00101999999ADDGA1071+001201999GF107991999999999999999999MA1101901999999MW1101REMMET056METAR EDJA 010950Z 24009KT 4000 BR BKN004 M00/M01 Q1019;
0131109470999992011010110204+47983+010233FM-15+0629EDJA V0202401N004610012019N0045001N1+00001-00101999999ADDGA1081+001201999GF108991999999999999999999MA1101901999999MW1101REMMET056METAR EDJA 011020Z 24009KT 4500 BR OVC004 M00/M01 Q1019;
0139109470999992011010111204+47983+010233FM-15+0629EDJA V0202201N003610009019N0040001N1-00101-00101999999ADDGA1071+000901999GF107991999999999999999999MA1101901999999MW1101REMMET064METAR EDJA 011120Z 22007KT 190V260 4000 BR BKN003 M01/M01 Q1019;
0131109470999992011010111504+47983+010233FM-15+0629EDJA V0202301N003610009019N0050001N1-00101-00101999999ADDGA1071+000901999GF107991999999999999999999MA1101801999999MW1101REMMET056METAR EDJA 011150Z 23007KT 5000 BR BKN003 M01/M01 Q1018;
0131109470999992011010112204+47983+010233FM-15+0629EDJA V0202501N003610015019N0050001N1+00001-00101999999ADDGA1081+001501999GF108991999999999999999999MA1101801999999MW1101REMMET056METAR EDJA 011220Z 25007KT 5000 BR OVC005 M00/M01 Q1018;
0131109470999992011010112504+47983+010233FM-15+0629EDJA V0202401N004610015019N0050001N1-00101-00101999999ADDGA1081+001501999GF108991999999999999999999MA1101801999999MW1101REMMET056METAR EDJA 011250Z 24009KT 5000 BR OVC005 M01/M01 Q1018;
0139109470999992011010113204+47983+010233FM-15+0629EDJA V0203101N002110015019N0050001N1-00101-00201999999ADDGA1081+001501999GF108991999999999999999999MA1101801999999MW1101REMMET064METAR EDJA 011320Z 31004KT 240V330 5000 BR OVC005 M01/M02 Q1018;
0139109470999992011010113504+47983+010233FM-15+0629EDJA V0203001N002110012019N0050001N1-00101-00201999999ADDGA1081+001201999GF108991999999999999999999MA1101801999999MW1101REMMET064METAR EDJA 011350Z 30004KT 260V330 5000 BR OVC004 M01/M02 Q1018;
0131109470999992011010114204+47983+010233FM-15+0629EDJA V0203101N002110009019N0046001N1-00101-00201999999ADDGA1081+000901999GF108991999999999999999999MA1101801999999MW1101REMMET056METAR EDJA 011420Z 31004KT 4600 BR OVC003 M01/M02 Q1018;
0131109470999992011010115204+47983+010233FM-15+0629EDJA V0203301N002110006019N0027001N1-00201-00201999999ADDGA1081+000601999GF108991999999999999999999MA1101801999999MW1101REMMET056METAR EDJA 011520Z 33004KT 2700 BR OVC002 M02/M02 Q1018;
0143109470999992011010116204+47983+010233FM-15+0629EDJA V0209999V001510009019N0050001N1-00201-00201999999ADDGA1081+000901999GF108991999999999999999999MA1101801999999MW1101MW2561REMMET062METAR EDJA 011620Z VRB03KT 5000 -FZDZ BR OVC003 M02/M02 Q1018;
0143109470999992011010116504+47983+010233FM-15+0629EDJA V0203101N001510009019N0040001N1-00201-00201999999ADDGA1081+000901999GF108991999999999999999999MA1101801999999MW1101MW2561REMMET062METAR EDJA 011650Z 31003KT 4000 -FZDZ BR OVC003 M02/M02 Q1018;
0143109470999992011010117204+47983+010233FM-15+0629EDJA V0209999V001010006019N0036001N1-00201-00201999999ADDGA1081+000601999GF108991999999999999999999MA1101801999999MW1101MW2561REMMET062METAR EDJA 011720Z VRB02KT 3600 -FZDZ BR OVC002 M02/M02 Q1018;
0143109470999992011010117504+47983+010233FM-15+0629EDJA V0209999V001010012019N0037001N1-00201-00201999999ADDGA1081+001201999GF108991999999999999999999MA1101801999999MW1101MW2561REMMET062METAR EDJA 011750Z VRB02KT 3700 -FZDZ BR OVC004 M02/M02 Q1018;
0143109470999992011010118204+47983+010233FM-15+0629EDJA V0202901N001510012019N0034001N1-00201-00201999999ADDGA1081+001201999GF108991999999999999999999MA1101801999999MW1101MW2561REMMET062METAR EDJA 011820Z 29003KT 3400 -FZDZ BR OVC004 M02/M02 Q1018;
0143109470999992011010118504+47983+010233FM-15+0629EDJA V0203101N002110012019N0037001N1-00201-00201999999ADDGA1081+001201999GF108991999999999999999999MA1101801999999MW1101MW2561REMMET062METAR EDJA 011850Z 31004KT 3700 -FZDZ BR OVC004 M02/M02 Q1018;
0143109470999992011010119204+47983+010233FM-15+0629EDJA V0209999V001510018019N0038001N1-00201-00201999999ADDGA1081+001801999GF108991999999999999999999MA1101801999999MW1101MW2561REMMET062METAR EDJA 011920Z VRB03KT 3800 -FZDZ BR OVC006 M02/M02 Q1018;
0143109470999992011010119504+47983+010233FM-15+0629EDJA V0203001N002610018019N0045001N1-00201-00201999999ADDGA1081+001801999GF108991999999999999999999MA1101801999999MW1101MW2561REMMET062METAR EDJA 011950Z 30005KT 4500 -FZDZ BR OVC006 M02/M02 Q1018;
0151109470999992011010120204+47983+010233FM-15+0629EDJA V0203101N002610024019N0050001N1-00201-00201999999ADDGA1081+002401999GF108991999999999999999999MA1101801999999MW1101MW2561REMMET070METAR EDJA 012020Z 31005KT 280V350 5000 -FZDZ BR OVC008 M02/M02 Q1018;
0153109470999992011010120504+47983+010233FM-15+0629EDJA V0202501N002110015019N0112651N1-00201-00201999999ADDGA1071+001501999GA2071+005401999GF107991999999999999999999MA1101801999999REMMET068METAR EDJA 012050Z 25004KT 210V290 9999 BKN005 BKN018 M02/M02 Q1018;
0122109470999992011010204504+47983+010233FM-15+0629EDJA V0202401N001510018019N0060001N1-00201-00201999999ADDGA1071+001801999GF107991999999999999999999MA1101691999999REMMET053METAR EDJA 020450Z 24003KT 6000 BKN006 M02/M02 Q1017;
0122109470999992011010205204+47983+010233FM-15+0629EDJA V0202701N001510018019N0050001N1-00201-00201999999ADDGA1071+001801999GF107991999999999999999999MA1101691999999REMMET053METAR EDJA 020520Z 27003KT 5000 BKN006 M02/M02 Q1017;
0122109470999992011010205504+47983+010233FM-15+0629EDJA V0203001N001010015019N0060001N1-00201-00201999999ADDGA1071+001501999GF107991999999999999999999MA1101801999999REMMET053METAR EDJA 020550Z 30002KT 6000 BKN005 M02/M02 Q1018;
0132109470999992011010206204+47983+010233FM-15+0629EDJA V0203201N001510021019N0060001N1-00201-00201999999ADDGA1071+002101999GF107991999999999999999999MA1101801999999MW1711REMMET057METAR EDJA 020620Z 32003KT 6000 -SN BKN007 M02/M02 Q1018;
0132109470999992011010206504+47983+010233FM-15+0629EDJA V0203201N001510021019N0050001N1-00201-00201999999ADDGA1071+002101999GF107991999999999999999999MA1101801999999MW1711REMMET057METAR EDJA 020650Z 32003KT 5000 -SN BKN007 M02/M02 Q1018;
0141109470999992011010207204+47983+010233FM-15+0629EDJA V0203401N001510018019N0030001N1-00201-00201999999ADDGA1071+001801999GF107991999999999999999999MA1101801999999MW1101MW2711REMMET060METAR EDJA 020720Z 34003KT 3000 BR -SN BKN006 M02/M02 Q1018;
0141109470999992011010207504+47983+010233FM-15+0629EDJA V0203201N001010021019N0030001N1-00201-00201999999ADDGA1071+002101999GF107991999999999999999999MA1101801999999MW1101MW2711REMMET060METAR EDJA 020750Z 32002KT 3000 BR -SN BKN007 M02/M02 Q1018;
0141109470999992011010208204+47983+010233FM-15+0629EDJA V0203301N001010024019N0030001N1-00201-00201999999ADDGA1071+002401999GF107991999999999999999999MA1101901999999MW1101MW2711REMMET060METAR EDJA 020820Z 33002KT 3000 BR -SN BKN008 M02/M02 Q1019;
0141109470999992011010208504+47983+010233FM-15+0629EDJA V0203401N001010021019N0034001N1-00201-00201999999ADDGA1071+002101999GF107991999999999999999999MA1101901999999MW1101MW2711REMMET060METAR EDJA 020850Z 34002KT 3400 BR -SN BKN007 M02/M02 Q1019;
0164109470999992011010209204+47983+010233FM-15+0629EDJA V0209999V000510075019N0040001N1-00201-00201999999ADDGA1041+001801999GA2071+007501999GF107991999999999999999999MA1101901999999MW1101MW2711REMMET067METAR EDJA 020920Z VRB01KT 4000 BR -SN SCT006 BKN025 M02/M02 Q1019;
0155109470999992011010209504+47983+010233FM-15+0629EDJA V0203101N001510096019N0050001N1-00101-00201999999ADDGA1041+002701999GA2071+009601999GF107991999999999999999999MA1101901999999MW1711REMMET064METAR EDJA 020950Z 31003KT 5000 -SN SCT009 BKN032 M01/M02 Q1019;
0145109470999992011010210204+47983+010233FM-15+0629EDJA V0203101N002110090019N0060001N1-00101-00201999999ADDGA1021+003001999GA2071+009001999GF107991999999999999999999MA1101901999999REMMET060METAR EDJA 021020Z 31004KT 6000 FEW010 BKN030 M01/M02 Q1019;
0145109470999992011010210504+47983+010233FM-15+0629EDJA V0209999V001510105019N0070001N1-00101-00301999999ADDGA1021+003001999GA2071+010501999GF107991999999999999999999MA1101901999999REMMET060METAR EDJA 021050Z VRB03KT 7000 FEW010 BKN035 M01/M03 Q1019;
0145109470999992011010211204+47983+010233FM-15+0629EDJA V0203201N001510120019N0080001N1-00201-00301999999ADDGA1021+003601999GA2071+012001999GF107991999999999999999999MA1101901999999REMMET060METAR EDJA 021120Z 32003KT 8000 FEW012 BKN040 M02/M03 Q1019;
0122109470999992011010211504+47983+010233FM-15+0629EDJA V0209999V001010120019N0112651N1-00201-00301999999ADDGA1071+012001999GF107991999999999999999999MA1101901999999REMMET053METAR EDJA 021150Z VRB02KT 9999 BKN040 M02/M03 Q1019;
0145109470999992011010212204+47983+010233FM-15+0629EDJA V0202601N001010180019N0112651N1-00101-00401999999ADDGA1021+005401999GA2071+018001999GF107991999999999999999999MA1101901999999REMMET060METAR EDJA 021220Z 26002KT 9999 FEW018 BKN062 M01/M04 Q1019;
0122109470999992011010212504+47983+010233FM-15+0629EDJA V0209999V001012200019N0112651N1-00101-00401999999ADDGA1041+009001999GF104991999999999999999999MA1101901999999REMMET053METAR EDJA 021250Z VRB02KT 9999 SCT030 M01/M04 Q1019;
0122109470999992011010213204+47983+010233FM-15+0629EDJA V0200601N001010075019N0112651N1-00101-00401999999ADDGA1071+007501999GF107991999999999999999999MA1101901999999REMMET053METAR EDJA 021320Z 06002KT 9999 BKN025 M01/M04 Q1019;
0122109470999992011010213504+47983+010233FM-15+0629EDJA V0200401N001012200019N0112651N1-00101-00401999999ADDGA1041+004501999GF104991999999999999999999MA1101901999999REMMET053METAR EDJA 021350Z 04002KT 9999 SCT015 M01/M04 Q1019;
0122109470999992011010214204+47983+010233FM-15+0629EDJA V0200501N001512200019N0112651N1-00201-00401999999ADDGA1041+004501999GF104991999999999999999999MA1101901999999REMMET053METAR EDJA 021420Z 05003KT 9999 SCT015 M02/M04 Q1019;
0122109470999992011010214504+47983+010233FM-15+0629EDJA V0200401N001512200019N0112651N1-00201-00401999999ADDGA1041+004501999GF104991999999999999999999MA1102001999999REMMET053METAR EDJA 021450Z 04003KT 9999 SCT015 M02/M04 Q1020;
0130109470999992011010215204+47983+010233FM-15+0629EDJA V0203401N002112200019N0112651N1-00301-00501999999ADDGA1041+003601999GF104991999999999999999999MA1102001999999REMMET061METAR EDJA 021520Z 34004KT 310V020 9999 SCT012 M03/M05 Q1020;
0122109470999992011010215504+47983+010233FM-15+0629EDJA V0200101N002112200019N0112651N1-00401-00501999999ADDGA1041+010501999GF104991999999999999999999MA1102001999999REMMET053METAR EDJA 021550Z 01004KT 9999 SCT035 M04/M05 Q1020;
0122109470999992011010216204+47983+010233FM-15+0629EDJA V0209999V001010051019N0080001N1-00401-00501999999ADDGA1071+005101999GF107991999999999999999999MA1102001999999REMMET053METAR EDJA 021620Z VRB02KT 8000 BKN017 M04/M05 Q1020;
0122109470999992011010216504+47983+010233FM-15+0629EDJA V0203401N001010057019N0060001N1-00401-00501999999ADDGA1071+005701999GF107991999999999999999999MA1102001999999REMMET053METAR EDJA 021650Z 34002KT 6000 BKN019 M04/M05 Q1020;
0122109470999992011010217204+47983+010233FM-15+0629EDJA V0202701N001012200019N0070001N1-00601-00701999999ADDGF100991999999999999999999MA1102101999999REMMET050METAR EDJA 021720Z 27002KT 7000 NSC M06/M07 Q1021;EQDQ01    003SCCGA1
0122109470999992011010217504+47983+010233FM-15+0629EDJA V0202201N000512200019N0060001N1-00601-00601999999ADDGF100991999999999999999999MA1102101999999REMMET050METAR EDJA 021750Z 22001KT 6000 NSC M06/M06 Q1021;EQDQ01    003SCCGA1
0133109470999992011010218204+47983+010233FM-15+0629EDJA V0202401N001012200019N0112651N1-00701-00801999999ADDGF100991999999999999999999MA1102101999999MW1121REMMET055METAR EDJA 021820Z 24002KT 9999 MIFG NSC M07/M08 Q1021;EQDQ01    003SCCGA1
0161109470999992011010218504+47983+010233FM-15+0629EDJA V0201701N001512200019N0045001N1-00901-01001999999ADDED199U03509GF100991999999999999999999MA1102101999999MW1411REMMET072METAR EDJA 021850Z 17003KT 4500 0800E R24/M0350N PRFG NSC M09/M10 Q1021;EQDQ01    003SCCGA1
0139109470999992011010219204+47983+010233FM-15+0629EDJA V0201801N001512200019N0045001N1-01101-01201999999ADDMA1102101999999REMMET077METAR EDJA 021920Z 18003KT 4500 0900E R24/M0350V0450N PRFG NSC M11/M12 Q1021;EQDQ01+000403ATOT  Q02-003503ATOD  
0155109470999992011010219504+47983+010233FM-15+0629EDJA V0201801N001512200019N0008001N1-01001-01101999999ADDED199U03509GF100991999999999999999999MA1102101999999MW1481REMMET066METAR EDJA 021950Z 18003KT 0800 R24/M0350D FZFG NSC M10/M11 Q1021;EQDQ01    003SCCGA1
0156109470999992011010220204+47983+010233FM-15+0629EDJA V0201901N002112200019N0008001N1-01201-01301999999ADDED199U03509GF100991999999999999999999MA1102101999999MW1481REMMET067METAR EDJA 022020Z 19004KT 0800 R24/M0350N -FZFG NSC M12/M13 Q1021;EQDQ01    003SCCGA1
0159109470999992011010220504+47983+010233FM-15+0629EDJA V0201801N002112200019N0009001N1-01201-01301999999ADDED124U07509GF100991999999999999999999MA1102101999999MW1481REMMET070METAR EDJA 022050Z 18004KT 0900 R24/0750V1200U FZFG NSC M12/M13 Q1021;EQDQ01    003SCCGA1
0122109470999992011010304504+47983+010233FM-15+0629EDJA V0202101N003110084019N0112651N1-00701-00801999999ADDGA1071+008401999GF107991999999999999999999MA1102101999999REMMET053METAR EDJA 030450Z 21006KT 9999 BKN028 M07/M08 Q1021;
0122109470999992011010305204+47983+010233FM-15+0629EDJA V0202201N002610087019N0112651N1-00701-00801999999ADDGA1071+008701999GF107991999999999999999999MA1102101999999REMMET053METAR EDJA 030520Z 22005KT 9999 BKN029 M07/M08 Q1021;
0145109470999992011010305504+47983+010233FM-15+0629EDJA V0202301N001510150019N0112651N1-00701-00801999999ADDGA1041+003001999GA2071+015001999GF107991999999999999999999MA1102101999999REMMET060METAR EDJA 030550Z 23003KT 9999 SCT010 BKN054 M07/M08 Q1021;
0145109470999992011010306204+47983+010233FM-15+0629EDJA V0209999C000010150019N0112651N1-00701-00701999999ADDGA1041+003601999GA2071+015001999GF107991999999999999999999MA1102101999999REMMET060METAR EDJA 030620Z 00000KT 9999 SCT012 BKN055 M07/M07 Q1021;
0145109470999992011010306504+47983+010233FM-15+0629EDJA V0202001N002110150019N0112651N1-00701-00701999999ADDGA1021+003601999GA2071+015001999GF107991999999999999999999MA1102101999999REMMET060METAR EDJA 030650Z 20004KT 9999 FEW012 BKN055 M07/M07 Q1021;
0074109470999992011010307204+47983+010233FM-15+0629EDJA V0202001N002619999999Y0099001N1-00801-00801999999ADDMA1102201999999REMMET047METAR EDJA 030720Z 20005KT CAVOK M08/M08 Q1022;
0074109470999992011010307504+47983+010233FM-15+0629EDJA V0209999V001019999999Y0099001N1-00901-01001999999ADDMA1102201999999REMMET047METAR EDJA 030750Z VRB02KT CAVOK M09/M10 Q1022;
0074109470999992011010308204+47983+010233FM-15+0629EDJA V0201801N001519999999Y0099001N1-01001-01001999999ADDMA1102201999999REMMET047METAR EDJA 030820Z 18003KT CAVOK M10/M10 Q1022;
0074109470999992011010308504+47983+010233FM-15+0629EDJA V0201901N002119999999Y0099001N1-00901-01001999999ADDMA1102201999999REMMET047METAR EDJA 030850Z 19004KT CAVOK M09/M10 Q1022;
0074109470999992011010309204+47983+010233FM-15+0629EDJA V0201901N002619999999Y0099001N1-00801-00801999999ADDMA1102201999999REMMET047METAR EDJA 030920Z 19005KT CAVOK M08/M08 Q1022;
0074109470999992011010309504+47983+010233FM-15+0629EDJA V0209999V001019999999Y0099001N1-00701-00701999999ADDMA1102201999999REMMET047METAR EDJA 030950Z VRB02KT CAVOK M07/M07 Q1022;
0074109470999992011010310204+47983+010233FM-15+0629EDJA V0202501N001519999999Y0099001N1-00501-00601999999ADDMA1102201999999REMMET047METAR EDJA 031020Z 25003KT CAVOK M05/M06 Q1022;
0074109470999992011010310504+47983+010233FM-15+0629EDJA V0202201N003119999999Y0099001N1-00601-00701999999ADDMA1102201999999REMMET047METAR EDJA 031050Z 22006KT CAVOK M06/M07 Q1022;
0074109470999992011010311204+47983+010233FM-15+0629EDJA V0202101N004119999999Y0099001N1-00601-00701999999ADDMA1102101999999REMMET047METAR EDJA 031120Z 21008KT CAVOK M06/M07 Q1021;
0074109470999992011010311504+47983+010233FM-15+0629EDJA V0202201N003119999999Y0099001N1-00601-00701999999ADDMA1102101999999REMMET047METAR EDJA 031150Z 22006KT CAVOK M06/M07 Q1021;
0074109470999992011010312204+47983+010233FM-15+0629EDJA V0202601N001519999999Y0099001N1-00401-00601999999ADDMA1102101999999REMMET047METAR EDJA 031220Z 26003KT CAVOK M04/M06 Q1021;
0074109470999992011010312504+47983+010233FM-15+0629EDJA V0202001N001019999999Y0099001N1-00401-00701999999ADDMA1102101999999REMMET047METAR EDJA 031250Z 20002KT CAVOK M04/M07 Q1021;
0122109470999992011010313204+47983+010233FM-15+0629EDJA V0202001N000512200019N0112651N1-00301-00601999999ADDGA1021+004501999GF102991999999999999999999MA1102101999999REMMET053METAR EDJA 031320Z 20001KT 9999 FEW015 M03/M06 Q1021;
0122109470999992011010313504+47983+010233FM-15+0629EDJA V0209999C000012200019N0112651N1-00301-00601999999ADDGA1021+004501999GF102991999999999999999999MA1102101999999REMMET053METAR EDJA 031350Z 00000KT 9999 FEW015 M03/M06 Q1021;
0074109470999992011010314204+47983+010233FM-15+0629EDJA V0200101N001519999999Y0099001N1-00301-00601999999ADDMA1102101999999REMMET047METAR EDJA 031420Z 01003KT CAVOK M03/M06 Q1021;
0074109470999992011010314504+47983+010233FM-15+0629EDJA V0200101N002619999999Y0099001N1-00501-00701999999ADDMA1102101999999REMMET047METAR EDJA 031450Z 01005KT CAVOK M05/M07 Q1021;
0122109470999992011010315204+47983+010233FM-15+0629EDJA V0200201N002612200019N0112651N1-00501-00701999999ADDGA1021+009001999GF102991999999999999999999MA1102001999999REMMET053METAR EDJA 031520Z 02005KT 9999 FEW030 M05/M07 Q1020;
0122109470999992011010315504+47983+010233FM-15+0629EDJA V0200501N002112200019N0112651N1-00501-00601999999ADDGA1021+004201999GF102991999999999999999999MA1102001999999REMMET053METAR EDJA 031550Z 05004KT 9999 FEW014 M05/M06 Q1020;
0122109470999992011010316204+47983+010233FM-15+0629EDJA V0200401N001510033019N0090001N1-00501-00601999999ADDGA1071+003301999GF107991999999999999999999MA1102001999999REMMET053METAR EDJA 031620Z 04003KT 9000 BKN011 M05/M06 Q1020;
0122109470999992011010316504+47983+010233FM-15+0629EDJA V0209999V001510033019N0080001N1-00601-00601999999ADDGA1071+003301999GF107991999999999999999999MA1102001999999REMMET053METAR EDJA 031650Z VRB03KT 8000 BKN011 M06/M06 Q1020;
0130109470999992011010317204+47983+010233FM-15+0629EDJA V0200801N002112200019N0112651N1-00601-00701999999ADDGA1021+003301999GF102991999999999999999999MA1102001999999REMMET061METAR EDJA 031720Z 08004KT 040V110 9999 FEW011 M06/M07 Q1020;
0133109470999992011010317504+47983+010233FM-15+0629EDJA V0201001N001012200019N0050001N1-00801-00801999999ADDGF100991999999999999999999MA1102001999999MW1411REMMET055METAR EDJA 031750Z 10002KT 5000 BCFG NSC M08/M08 Q1020;EQDQ01    003SCCGA1
0133109470999992011010318204+47983+010233FM-15+0629EDJA V0201501N001512200019N0050001N1-00901-01001999999ADDGF100991999999999999999999MA1102001999999MW1411REMMET055METAR EDJA 031820Z 15003KT 5000 BCFG NSC M09/M10 Q1020;EQDQ01    003SCCGA1
0133109470999992011010318504+47983+010233FM-15+0629EDJA V0209999V001512200019N0060001N1-00901-01001999999ADDGF100991999999999999999999MA1102001999999MW1121REMMET055METAR EDJA 031850Z VRB03KT 6000 MIFG NSC M09/M10 Q1020;EQDQ01    003SCCGA1
0155109470999992011010319204+47983+010233FM-15+0629EDJA V0200201N001012200019N0003001N1-01301-01401999999ADDED199U03509GA1041+002401999GF104991999999999999999999MA1102001999999MW1481REMMET069METAR EDJA 031920Z 02002KT 0300 R24/M0350N FZFG SCT008 M13/M14 Q1020;
0139109470999992011010319504+47983+010233FM-15+0629EDJA V0200901N002110024019N0034001N1-00801-00901999999ADDGA1071+002401999GF107991999999999999999999MA1102001999999MW1101REMMET064METAR EDJA 031950Z 09004KT 060V120 3400 BR BKN008 M08/M09 Q1020;
0122109470999992011010320204+47983+010233FM-15+0629EDJA V0201001N002110018019N0090001N1-00701-00801999999ADDGA1071+001801999GF107991999999999999999999MA1102001999999REMMET053METAR EDJA 032020Z 10004KT 9000 BKN006 M07/M08 Q1020;
0122109470999992011010320504+47983+010233FM-15+0629EDJA V0201101N003110018019N0090001N1-00601-00701999999ADDGA1071+001801999GF107991999999999999999999MA1102001999999REMMET053METAR EDJA 032050Z 11006KT 9000 BKN006 M06/M07 Q1020;
0122109470999992011010404504+47983+010233FM-15+0629EDJA V0200801N002110021019N0112651N1-00701-00801999999ADDGA1081+002101999GF108991999999999999999999MA1101801999999REMMET053METAR EDJA 040450Z 08004KT 9999 OVC007 M07/M08 Q1018;
0122109470999992011010405204+47983+010233FM-15+0629EDJA V0202201N003110021019N0112651N1-00801-00901999999ADDGA1081+002101999GF108991999999999999999999MA1101801999999REMMET053METAR EDJA 040520Z 22006KT 9999 OVC007 M08/M09 Q1018;
0122109470999992011010405504+47983+010233FM-15+0629EDJA V0202001N004610024019N0112651N1-00901-01001999999ADDGA1081+002401999GF108991999999999999999999MA1101801999999REMMET053METAR EDJA 040550Z 20009KT 9999 OVC008 M09/M10 Q1018;
0122109470999992011010406204+47983+010233FM-15+0629EDJA V0201801N003610024019N0112651N1-00901-00901999999ADDGA1081+002401999GF108991999999999999999999MA1101801999999REMMET053METAR EDJA 040620Z 18007KT 9999 OVC008 M09/M09 Q1018;
0122109470999992011010406504+47983+010233FM-15+0629EDJA V0201601N002610021019N0070001N1-00801-00901999999ADDGA1071+002101999GF107991999999999999999999MA1101691999999REMMET053METAR EDJA 040650Z 16005KT 7000 BKN007 M08/M09 Q1017;
0122109470999992011010407204+47983+010233FM-15+0629EDJA V0201001N001510024019N0050001N1-00801-00901999999ADDGA1071+002401999GF107991999999999999999999MA1101691999999REMMET053METAR EDJA 040720Z 10003KT 5000 BKN008 M08/M09 Q1017;
0122109470999992011010407504+47983+010233FM-15+0629EDJA V0201001N002110027019N0050001N1-00801-00901999999ADDGA1071+002701999GF107991999999999999999999MA1101691999999REMMET053METAR EDJA 040750Z 10004KT 5000 BKN009 M08/M09 Q1017;
0122109470999992011010408204+47983+010233FM-15+0629EDJA V0201201N001510027019N0060001N1-00801-00901999999ADDGA1081+002701999GF108991999999999999999999MA1101691999999REMMET053METAR EDJA 040820Z 12003KT 6000 OVC009 M08/M09 Q1017;
0122109470999992011010408504+47983+010233FM-15+0629EDJA V0201601N001510027019N0060001N1-00801-00901999999ADDGA1071+002701999GF107991999999999999999999MA1101691999999REMMET053METAR EDJA 040850Z 16003KT 6000 BKN009 M08/M09 Q1017;
0122109470999992011010409204+47983+010233FM-15+0629EDJA V0201301N001010027019N0060001N1-00801-00901999999ADDGA1081+002701999GF108991999999999999999999MA1101691999999REMMET053METAR EDJA 040920Z 13002KT 6000 OVC009 M08/M09 Q1017;
0122109470999992011010409504+47983+010233FM-15+0629EDJA V0201701N000510024019N0070001N1-00701-00901999999ADDGA1071+002401999GF107991999999999999999999MA1101691999999REMMET053METAR EDJA 040950Z 17001KT 7000 BKN008 M07/M09 Q1017;
0122109470999992011010410204+47983+010233FM-15+0629EDJA V0200201N001010024019N0070001N1-00701-00901999999ADDGA1081+002401999GF108991999999999999999999MA1101691999999REMMET053METAR EDJA 041020Z 02002KT 7000 OVC008 M07/M09 Q1017;
0122109470999992011010411204+47983+010233FM-15+0629EDJA V0202401N001010027019N0080001N1-00601-00801999999ADDGA1071+002701999GF107991999999999999999999MA1101691999999REMMET053METAR EDJA 041120Z 24002KT 8000 BKN009 M06/M08 Q1017;
0122109470999992011010411504+47983+010233FM-15+0629EDJA V0209999C000010027019N0090001N1-00501-00801999999ADDGA1081+002701999GF108991999999999999999999MA1101591999999REMMET053METAR EDJA 041150Z 00000KT 9000 OVC009 M05/M08 Q1016;
0122109470999992011010412204+47983+010233FM-15+0629EDJA V0209999C000010027019N0112651N1-00501-00801999999ADDGA1081+002701999GF108991999999999999999999MA1101591999999REMMET053METAR EDJA 041220Z 00000KT 9999 OVC009 M05/M08 Q1016;
0122109470999992011010412504+47983+010233FM-15+0629EDJA V0209999V000510027019N0112651N1-00601-00801999999ADDGA1071+002701999GF107991999999999999999999MA1101591999999REMMET053METAR EDJA 041250Z VRB01KT 9999 BKN009 M06/M08 Q1016;
0122109470999992011010413204+47983+010233FM-15+0629EDJA V0209999V001010027019N0090001N1-00601-00801999999ADDGA1071+002701999GF107991999999999999999999MA1101591999999REMMET053METAR EDJA 041320Z VRB02KT 9000 BKN009 M06/M08 Q1016;
0122109470999992011010413504+47983+010233FM-15+0629EDJA V0209999V001010027019N0090001N1-00501-00801999999ADDGA1081+002701999GF108991999999999999999999MA1101491999999REMMET053METAR EDJA 041350Z VRB02KT 9000 OVC009 M05/M08 Q1015;
0122109470999992011010414204+47983+010233FM-15+0629EDJA V0209999V001510030019N0080001N1-00601-00801999999ADDGA1081+003001999GF108991999999999999999999MA1101491999999REMMET053METAR EDJA 041420Z VRB03KT 8000 OVC010 M06/M08 Q1015;
0122109470999992011010414504+47983+010233FM-15+0629EDJA V0202101N001510036019N0090001N1-00601-00801999999ADDGA1071+003601999GF107991999999999999999999MA1101491999999REMMET053METAR EDJA 041450Z 21003KT 9000 BKN012 M06/M08 Q1015;
0074109470999992011010415204+47983+010233FM-15+0629EDJA V0201401N000519999999Y0099001N1-00601-00801999999ADDMA1101491999999REMMET047METAR EDJA 041520Z 14001KT CAVOK M06/M08 Q1015;
0122109470999992011010415504+47983+010233FM-15+0629EDJA V0209999C000010135019N0090001N1-00701-00801999999ADDGA1071+013501999GF107991999999999999999999MA1101491999999REMMET053METAR EDJA 041550Z 00000KT 9000 BKN045 M07/M08 Q1015;
0122109470999992011010416204+47983+010233FM-15+0629EDJA V0203501N001510135019N0070001N1-00701-00801999999ADDGA1071+013501999GF107991999999999999999999MA1101491999999REMMET053METAR EDJA 041620Z 35003KT 7000 BKN045 M07/M08 Q1015;
0122109470999992011010417204+47983+010233FM-15+0629EDJA V0200101N001510126019N0070001N1-00701-00801999999ADDGA1071+012601999GF107991999999999999999999MA1101491999999REMMET053METAR EDJA 041720Z 01003KT 7000 BKN042 M07/M08 Q1015;
0131109470999992011010417504+47983+010233FM-15+0629EDJA V0200201N001512200019N0050001N1-00801-00901999999ADDGF100991999999999999999999MA1101491999999MW1101REMMET053METAR EDJA 041750Z 02003KT 5000 BR NSC M08/M09 Q1015;EQDQ01    003SCCGA1
0131109470999992011010418204+47983+010233FM-15+0629EDJA V0203501N002112200019N0050001N1-00801-00901999999ADDGA1041+015001999GF104991999999999999999999MA1101491999999MW1101REMMET056METAR EDJA 041820Z 35004KT 5000 BR SCT055 M08/M09 Q1015;
0131109470999992011010418504+47983+010233FM-15+0629EDJA V0209999V000512200019N0050001N1-00801-00901999999ADDGA1041+013501999GF104991999999999999999999MA1101491999999MW1101REMMET056METAR EDJA 041850Z VRB01KT 5000 BR SCT045 M08/M09 Q1015;
0145109470999992011010419204+47983+010233FM-15+0629EDJA V0209999V000510180019N0070001N1-00801-00901999999ADDGA1041+010801999GA2071+018001999GF107991999999999999999999MA1101491999999REMMET060METAR EDJA 041920Z VRB01KT 7000 SCT036 BKN063 M08/M09 Q1015;
0122109470999992011010419504+47983+010233FM-15+0629EDJA V0209999V000512200019N0060001N1-00801-00901999999ADDGF100991999999999999999999MA1101491999999REMMET050METAR EDJA 041950Z VRB01KT 6000 NSC M08/M09 Q1015;EQDQ01    003SCCGA1
0122109470999992011010420204+47983+010233FM-15+0629EDJA V0203601N001010147019N0060001N1-00801-00901999999ADDGA1071+014701999GF107991999999999999999999MA1101491999999REMMET053METAR EDJA 042020Z 36002KT 6000 BKN049 M08/M09 Q1015;
0154109470999992011010420504+47983+010233FM-15+0629EDJA V0200901N000510012019N0047001N1-00801-00901999999ADDGA1071+001201999GA2071+014401999GF107991999999999999999999MA1101491999999MW1101REMMET063METAR EDJA 042050Z 09001KT 4700 BR BKN004 BKN048 M08/M09 Q1015;
0154109470999992011010504504+47983+010233FM-15+0629EDJA V0209999C000010123019N0044001N1-01101-01201999999ADDGA1041+006301999GA2071+012301999GF107991999999999999999999MA1101291999999MW1101REMMET063METAR EDJA 050450Z 00000KT 4400 BR SCT021 BKN041 M11/M12 Q1013;
0154109470999992011010505204+47983+010233FM-15+0629EDJA V0209999C000010123019N0060001N1-01001-01001999999ADDGA1041+006001999GA2071+012301999GF107991999999999999999999MA1101291999999MW1101REMMET063METAR EDJA 050520Z 00000KT 6000 BR SCT020 BKN041 M10/M10 Q1013;
0122109470999992011010505504+47983+010233FM-15+0629EDJA V0209999V001010132019N0080001N1-00901-01001999999ADDGA1071+013201999GF107991999999999999999999MA1101391999999REMMET053METAR EDJA 050550Z VRB02KT 8000 BKN044 M09/M10 Q1014;
0122109470999992011010506204+47983+010233FM-15+0629EDJA V0202001N003110132019N0112651N1-01001-01001999999ADDGA1071+013201999GF107991999999999999999999MA1101391999999REMMET053METAR EDJA 050620Z 20006KT 9999 BKN044 M10/M10 Q1014;
0122109470999992011010506504+47983+010233FM-15+0629EDJA V0202001N003110132019N0112651N1-01001-01101999999ADDGA1071+013201999GF107991999999999999999999MA1101391999999REMMET053METAR EDJA 050650Z 20006KT 9999 BKN044 M10/M11 Q1014;
0122109470999992011010507204+47983+010233FM-15+0629EDJA V0201801N001010120019N0112651N1-00901-01001999999ADDGA1071+012001999GF107991999999999999999999MA1101391999999REMMET053METAR EDJA 050720Z 18002KT 9999 BKN040 M09/M10 Q1014;
0122109470999992011010507504+47983+010233FM-15+0629EDJA V0201901N001010120019N0112651N1-00901-01001999999ADDGA1071+012001999GF107991999999999999999999MA1101391999999REMMET053METAR EDJA 050750Z 19002KT 9999 BKN040 M09/M10 Q1014;
0122109470999992011010508204+47983+010233FM-15+0629EDJA V0209999C000010120019N0112651N1-00801-00901999999ADDGA1071+012001999GF107991999999999999999999MA1101391999999REMMET053METAR EDJA 050820Z 00000KT 9999 BKN040 M08/M09 Q1014;
0122109470999992011010508504+47983+010233FM-15+0629EDJA V0209999C000010120019N0112651N1-00701-00801999999ADDGA1071+012001999GF107991999999999999999999MA1101391999999REMMET053METAR EDJA 050850Z 00000KT 9999 BKN040 M07/M08 Q1014;
0122109470999992011010509204+47983+010233FM-15+0629EDJA V0209999V000512200019N0112651N1-00601-00801999999ADDGA1041+012001999GF104991999999999999999999MA1101391999999REMMET053METAR EDJA 050920Z VRB01KT 9999 SCT040 M06/M08 Q1014;
0074109470999992011010509504+47983+010233FM-15+0629EDJA V0209999V001019999999Y0099001N1-00501-00901999999ADDMA1101391999999REMMET047METAR EDJA 050950Z VRB02KT CAVOK M05/M09 Q1014;
0122109470999992011010510204+47983+010233FM-15+0629EDJA V0202001N002612200019N0112651N1-00401-00901999999ADDGA1021+011701999GF102991999999999999999999MA1101291999999REMMET053METAR EDJA 051020Z 20005KT 9999 FEW039 M04/M09 Q1013;
0074109470999992011010510504+47983+010233FM-15+0629EDJA V0201801N003119999999Y0099001N1-00401-00801999999ADDMA1101291999999REMMET047METAR EDJA 051050Z 18006KT CAVOK M04/M08 Q1013;
0122109470999992011010511204+47983+010233FM-15+0629EDJA V0201901N002112200019N0112651N1-00301-00701999999ADDGA1021+011701999GF102991999999999999999999MA1101191999999REMMET053METAR EDJA 051120Z 19004KT 9999 FEW039 M03/M07 Q1012;
0074109470999992011010511504+47983+010233FM-15+0629EDJA V0201901N002119999999Y0099001N1-00201-00601999999ADDMA1101191999999REMMET047METAR EDJA 051150Z 19004KT CAVOK M02/M06 Q1012;
0074109470999992011010512204+47983+010233FM-15+0629EDJA V0209999V001019999999Y0099001N1-00101-00601999999ADDMA1101191999999REMMET047METAR EDJA 051220Z VRB02KT CAVOK M01/M06 Q1012;
0074109470999992011010512504+47983+010233FM-15+0629EDJA V0202101N004119999999Y0099001N1-00201-00701999999ADDMA1101081999999REMMET047METAR EDJA 051250Z 21008KT CAVOK M02/M07 Q1011;
0074109470999992011010513204+47983+010233FM-15+0629EDJA V0202001N003119999999Y0099001N1-00301-00601999999ADDMA1101081999999REMMET047METAR EDJA 051320Z 20006KT CAVOK M03/M06 Q1011;
0074109470999992011010513504+47983+010233FM-15+0629EDJA V0202001N003619999999Y0099001N1-00201-00701999999ADDMA1101081999999REMMET047METAR EDJA 051350Z 20007KT CAVOK M02/M07 Q1011;
0074109470999992011010514204+47983+010233FM-15+0629EDJA V0201901N002119999999Y0099001N1-00401-00701999999ADDMA1101081999999REMMET047METAR EDJA 051420Z 19004KT CAVOK M04/M07 Q1011;
0074109470999992011010514504+47983+010233FM-15+0629EDJA V0202101N001519999999Y0099001N1-00201-00701999999ADDMA1101081999999REMMET047METAR EDJA 051450Z 21003KT CAVOK M02/M07 Q1011;
0074109470999992011010515204+47983+010233FM-15+0629EDJA V0201801N001019999999Y0099001N1-00301-00701999999ADDMA1101081999999REMMET047METAR EDJA 051520Z 18002KT CAVOK M03/M07 Q1011;
0074109470999992011010515504+47983+010233FM-15+0629EDJA V0200501N001019999999Y0099001N1-00501-00701999999ADDMA1101081999999REMMET047METAR EDJA 051550Z 05002KT CAVOK M05/M07 Q1011;
0074109470999992011010516204+47983+010233FM-15+0629EDJA V0201501N001019999999Y0099001N1-00401-00501999999ADDMA1101081999999REMMET047METAR EDJA 051620Z 15002KT CAVOK M04/M05 Q1011;
0074109470999992011010516504+47983+010233FM-15+0629EDJA V0201501N002119999999Y0099001N1-00501-00601999999ADDMA1101081999999REMMET047METAR EDJA 051650Z 15004KT CAVOK M05/M06 Q1011;
0074109470999992011010517204+47983+010233FM-15+0629EDJA V0201501N001019999999Y0099001N1-00601-01001999999ADDMA1101081999999REMMET047METAR EDJA 051720Z 15002KT CAVOK M06/M10 Q1011;
0073109470999992011010517504+47983+010233FM-15+0629EDJA V0209999C000012200019N0090001N1-00901-00901999999ADDMA1101021999999REMMET046METAR EDJA 051750Z 00000KT 9000 M09/M09 Q1010;
0073109470999992011010518204+47983+010233FM-15+0629EDJA V0201701N001512200019N0060001N1-00801-00801999999ADDMA1101021999999REMMET046METAR EDJA 051820Z 17003KT 6000 M08/M08 Q1010;
0073109470999992011010518504+47983+010233FM-15+0629EDJA V0201801N001012200019N0050001N1-00801-00801999999ADDMA1101021999999REMMET046METAR EDJA 051850Z 18002KT 5000 M08/M08 Q1010;
0074109470999992011010519504+47983+010233FM-15+0629EDJA V0201601N001019999999Y0099001N1-00801-00901999999ADDMA1101021999999REMMET047METAR EDJA 051950Z 16002KT CAVOK M08/M09 Q1010;
0074109470999992011010520204+47983+010233FM-15+0629EDJA V0201701N001519999999Y0099001N1-00701-00801999999ADDMA1101021999999REMMET047METAR EDJA 052020Z 17003KT CAVOK M07/M08 Q1010;
0122109470999992011010604504+47983+010233FM-15+0629EDJA V0201501N003610141019N0112651N1-00201-00501999999ADDGA1071+014101999GF107991999999999999999999MA1100611999999REMMET053METAR EDJA 060450Z 15007KT 9999 BKN047 M02/M05 Q1006;
0122109470999992011010605204+47983+010233FM-15+0629EDJA V0201901N002110144019N0112651N1-00201-00401999999ADDGA1071+014401999GF107991999999999999999999MA1100611999999REMMET053METAR EDJA 060520Z 19004KT 9999 BKN048 M02/M04 Q1006;
0122109470999992011010605504+47983+010233FM-15+0629EDJA V0209999V001510132019N0112651N1-00101-00401999999ADDGA1071+013201999GF107991999999999999999999MA1100611999999REMMET053METAR EDJA 060550Z VRB03KT 9999 BKN044 M01/M04 Q1006;
0122109470999992011010606204+47983+010233FM-15+0629EDJA V0202001N006210144019N0112651N1-00101-00501999999ADDGA1071+014401999GF107991999999999999999999MA1100611999999REMMET053METAR EDJA 060620Z 20012KT 9999 BKN048 M01/M05 Q1006;
0121109470999992011010606504+47983+010233FM-15+0629EDJA V0202001N005710099019N0112651N1+00001-00401999999ADDGA1071+009901999GF107991999999999999999999MA1100611999999REMMET052METAR EDJA 060650Z 20011KT 9999 BKN033 00/M04 Q1006;
0131109470999992011010607204+47983+010233FM-15+0629EDJA V0202001N005110123019N0112651N1+00001-00301999999ADDGA1071+012301999GF107991999999999999999999MA1100711999999MW1611REMMET056METAR EDJA 060720Z 20010KT 9999 -RA BKN041 00/M03 Q1007;
0133109470999992011010607504+47983+010233FM-15+0629EDJA V0202001N006210123019N0112651N1+00101-00301999999ADDGA1071+012301999GF107991999999999999999999MA1100711999999MW1661REMMET058METAR EDJA 060750Z 20012KT 9999 -FZRA BKN041 01/M03 Q1007;
0121109470999992011010608204+47983+010233FM-15+0629EDJA V0201901N003610126019N0112651N1+00201-00201999999ADDGA1071+012601999GF107991999999999999999999MA1100711999999REMMET052METAR EDJA 060820Z 19007KT 9999 BKN042 02/M02 Q1007;
0121109470999992011010608504+47983+010233FM-15+0629EDJA V0201901N005710105019N0112651N1+00201-00201999999ADDGA1071+010501999GF107991999999999999999999MA1100711999999REMMET052METAR EDJA 060850Z 19011KT 9999 BKN035 02/M02 Q1007;
0121109470999992011010609204+47983+010233FM-15+0629EDJA V0201901N006210150019N0112651N1+00301-00301999999ADDGA1071+015001999GF107991999999999999999999MA1100611999999REMMET052METAR EDJA 060920Z 19012KT 9999 BKN053 03/M03 Q1006;
0121109470999992011010609504+47983+010233FM-15+0629EDJA V0202201N004110105019N0112651N1+00201-00201999999ADDGA1071+010501999GF107991999999999999999999MA1100711999999REMMET052METAR EDJA 060950Z 22008KT 9999 BKN035 02/M02 Q1007;
0121109470999992011010610204+47983+010233FM-15+0629EDJA V0202201N004612200019N0112651N1+00301-00201999999ADDGA1041+010501999GF104991999999999999999999MA1100711999999REMMET052METAR EDJA 061020Z 22009KT 9999 SCT035 03/M02 Q1007;
0121109470999992011010610504+47983+010233FM-15+0629EDJA V0202101N004612200019N0112651N1+00301-00201999999ADDGA1041+015001999GF104991999999999999999999MA1100711999999REMMET052METAR EDJA 061050Z 21009KT 9999 SCT052 03/M02 Q1007;
0121109470999992011010611204+47983+010233FM-15+0629EDJA V0202001N005112200019N0112651N1+00301-00301999999ADDGA1041+015001999GF104991999999999999999999MA1100711999999REMMET052METAR EDJA 061120Z 20010KT 9999 SCT052 03/M03 Q1007;
0121109470999992011010611504+47983+010233FM-15+0629EDJA V0201901N005112200019N0112651N1+00301-00201999999ADDGA1021+015001999GF102991999999999999999999MA1100611999999REMMET052METAR EDJA 061150Z 19010KT 9999 FEW052 03/M02 Q1006;
0121109470999992011010612204+47983+010233FM-15+0629EDJA V0202101N004612200019N0112651N1+00301-00101999999ADDGA1021+015001999GF102991999999999999999999MA1100611999999REMMET052METAR EDJA 061220Z 21009KT 9999 FEW055 03/M01 Q1006;
0073109470999992011010612504+47983+010233FM-15+0629EDJA V0202201N005119999999Y0099001N1+00301-00101999999ADDMA1100611999999REMMET046METAR EDJA 061250Z 22010KT CAVOK 03/M01 Q1006;
0073109470999992011010613204+47983+010233FM-15+0629EDJA V0202201N005119999999Y0099001N1+00301+00001999999ADDMA1100611999999REMMET046METAR EDJA 061320Z 22010KT CAVOK 03/M00 Q1006;
0144109470999992011010613504+47983+010233FM-15+0629EDJA V0202101N006210144019N0112651N1+00301+00001999999ADDGA1041+006601999GA2071+014401999GF107991999999999999999999MA1100611999999REMMET059METAR EDJA 061350Z 21012KT 9999 SCT022 BKN048 03/M00 Q1006;
0154109470999992011010614204+47983+010233FM-15+0629EDJA V0201901N006210144019N0112651N1+00301+00001999999ADDGA1041+006001999GA2071+014401999GF107991999999999999999999MA1100611999999MW1611REMMET063METAR EDJA 061420Z 19012KT 9999 -RA SCT020 BKN048 03/M00 Q1006;
0144109470999992011010614504+47983+010233FM-15+0629EDJA V0202401N005110150019N0112651N1+00301+00001999999ADDGA1041+010501999GA2071+015001999GF107991999999999999999999MA1100611999999REMMET059METAR EDJA 061450Z 24010KT 9999 SCT035 BKN051 03/M00 Q1006;
0121109470999992011010615204+47983+010233FM-15+0629EDJA V0202301N004610150019N0112651N1+00301-00101999999ADDGA1071+015001999GF107991999999999999999999MA1100611999999REMMET052METAR EDJA 061520Z 23009KT 9999 BKN052 03/M01 Q1006;
0073109470999992011010615504+47983+010233FM-15+0629EDJA V0202101N003619999999Y0099001N1+00301+00001999999ADDMA1100611999999REMMET046METAR EDJA 061550Z 21007KT CAVOK 03/M00 Q1006;
0121109470999992011010616204+47983+010233FM-15+0629EDJA V0201801N005110150019N0112651N1+00301-00101999999ADDGA1071+015001999GF107991999999999999999999MA1100611999999REMMET052METAR EDJA 061620Z 18010KT 9999 BKN050 03/M01 Q1006;
0121109470999992011010616504+47983+010233FM-15+0629EDJA V0201901N006210120019N0112651N1+00301-00101999999ADDGA1071+012001999GF107991999999999999999999MA1100611999999REMMET052METAR EDJA 061650Z 19012KT 9999 BKN040 03/M01 Q1006;
0121109470999992011010617204+47983+010233FM-15+0629EDJA V0201801N005710150019N0112651N1+00301-00101999999ADDGA1071+015001999GF107991999999999999999999MA1100611999999REMMET052METAR EDJA 061720Z 18011KT 9999 BKN055 03/M01 Q1006;
0073109470999992011010617504+47983+010233FM-15+0629EDJA V0202201N004119999999Y0099001N1+00301-00101999999ADDMA1100611999999REMMET046METAR EDJA 061750Z 22008KT CAVOK 03/M01 Q1006;
0130109470999992011010618204+47983+010233FM-15+0629EDJA V0202301N006712200019N0070001N1+00301+00001999999ADDGA1041+012001999GF104991999999999999999999MA1100811999999MW1631REMMET055METAR EDJA 061820Z 23013KT 7000 RA SCT040 03/M00 Q1008;
0125109470999992011010618504+47983+010233FM-15+0629EDJA V0201801N006712200019N0112651N1+00301+00001999999ADDGA1041+012001999GF104991999999999999999999MA1100711999999REMMET056METAR EDJA 061850Z 18013KT 9999 SCT040 03/00 Q1007 RERA;
0120109470999992011010619204+47983+010233FM-15+0629EDJA V0201901N006712200019N0112651N1+00301+00001999999ADDGA1041+012001999GF104991999999999999999999MA1100811999999REMMET051METAR EDJA 061920Z 19013KT 9999 SCT040 03/00 Q1008;
0120109470999992011010619504+47983+010233FM-15+0629EDJA V0202001N005712200019N0112651N1+00301+00101999999ADDGA1041+012001999GF104991999999999999999999MA1100811999999REMMET051METAR EDJA 061950Z 20011KT 9999 SCT040 03/01 Q1008;
0120109470999992011010620204+47983+010233FM-15+0629EDJA V0202001N005710120019N0112651N1+00301+00101999999ADDGA1071+012001999GF107991999999999999999999MA1100811999999REMMET051METAR EDJA 062020Z 20011KT 9999 BKN040 03/01 Q1008;
0120109470999992011010620504+47983+010233FM-15+0629EDJA V0202101N005710120019N0112651N1+00301+00101999999ADDGA1071+012001999GF107991999999999999999999MA1100811999999REMMET051METAR EDJA 062050Z 21011KT 9999 BKN040 03/01 Q1008;
0130109470999992011010704504+47983+010233FM-15+0629EDJA V0201901N006210090019N0050001N1+00301+00201999999ADDGA1071+009001999GF107991999999999999999999MA1101081999999MW1611REMMET055METAR EDJA 070450Z 19012KT 5000 -RA BKN030 03/02 Q1011;
0130109470999992011010705204+47983+010233FM-15+0629EDJA V0202001N005110090019N0112651N1+00301+00201999999ADDGA1071+009001999GF107991999999999999999999MA1101191999999MW1611REMMET055METAR EDJA 070520Z 20010KT 9999 -RA BKN030 03/02 Q1012;
0130109470999992011010705504+47983+010233FM-15+0629EDJA V0202101N004110090019N0112651N1+00301+00201999999ADDGA1071+009001999GF107991999999999999999999MA1101191999999MW1611REMMET055METAR EDJA 070550Z 21008KT 9999 -RA BKN030 03/02 Q1012;
0130109470999992011010706204+47983+010233FM-15+0629EDJA V0202001N003110090019N0112651N1+00301+00201999999ADDGA1071+009001999GF107991999999999999999999MA1101191999999MW1611REMMET055METAR EDJA 070620Z 20006KT 9999 -RA BKN030 03/02 Q1012;
0153109470999992011010706504+47983+010233FM-15+0629EDJA V0201901N004610150019N0112651N1+00301+00201999999ADDGA1021+009001999GA2071+015001999GF107991999999999999999999MA1101191999999MW1611REMMET062METAR EDJA 070650Z 19009KT 9999 -RA FEW030 BKN050 03/02 Q1012;
0130109470999992011010707204+47983+010233FM-15+0629EDJA V0201901N005110120019N0112651N1+00301+00301999999ADDGA1071+012001999GF107991999999999999999999MA1101291999999MW1611REMMET055METAR EDJA 070720Z 19010KT 9999 -RA BKN040 03/03 Q1013;
0155109470999992011010708204+47983+010233FM-15+0629EDJA V0202001N004610270019N0112651N1+00301+00201999999ADDGA1041+012601999GA2071+027001999GF107991999999999999999999MA1101191999999MW1801REMMET064METAR EDJA 070820Z 20009KT 9999 -SHRA SCT042 BKN090 03/02 Q1012;
0155109470999992011010708504+47983+010233FM-15+0629EDJA V0201901N003110270019N0112651N1+00301+00201999999ADDGA1041+018001999GA2071+027001999GF107991999999999999999999MA1101191999999MW1801REMMET064METAR EDJA 070850Z 19006KT 9999 -SHRA SCT060 BKN090 03/02 Q1012;
0143109470999992011010709204+47983+010233FM-15+0629EDJA V0202001N005110180019N0112651N1+00301+00201999999ADDGA1021+009001999GA2071+018001999GF107991999999999999999999MA1101191999999REMMET058METAR EDJA 070920Z 20010KT 9999 FEW030 BKN060 03/02 Q1012;
0072109470999992011010710204+47983+010233FM-15+0629EDJA V0202001N003119999999Y0099001N1+00301+00101999999ADDMA1101191999999REMMET045METAR EDJA 071020Z 20006KT CAVOK 03/01 Q1012;
0072109470999992011010710504+47983+010233FM-15+0629EDJA V0209999C000019999999Y0099001N1+00501+00301999999ADDMA1101191999999REMMET045METAR EDJA 071050Z 00000KT CAVOK 05/03 Q1012;
0072109470999992011010711204+47983+010233FM-15+0629EDJA V0202701N001019999999Y0099001N1+00301+00201999999ADDMA1101191999999REMMET045METAR EDJA 071120Z 27002KT CAVOK 03/02 Q1012;
0072109470999992011010711504+47983+010233FM-15+0629EDJA V0209999C000019999999Y0099001N1+00401+00201999999ADDMA1101081999999REMMET045METAR EDJA 071150Z 00000KT CAVOK 04/02 Q1011;
0072109470999992011010712204+47983+010233FM-15+0629EDJA V0201901N001519999999Y0099001N1+00401+00301999999ADDMA1101191999999REMMET045METAR EDJA 071220Z 19003KT CAVOK 04/03 Q1012;
0072109470999992011010712504+47983+010233FM-15+0629EDJA V0201601N001019999999Y0099001N1+00501+00301999999ADDMA1101081999999REMMET045METAR EDJA 071250Z 16002KT CAVOK 05/03 Q1011;
0072109470999992011010713204+47983+010233FM-15+0629EDJA V0200201N001019999999Y0099001N1+00501+00301999999ADDMA1101081999999REMMET045METAR EDJA 071320Z 02002KT CAVOK 05/03 Q1011;
0072109470999992011010713504+47983+010233FM-15+0629EDJA V0209999V001019999999Y0099001N1+00601+00301999999ADDMA1101081999999REMMET045METAR EDJA 071350Z VRB02KT CAVOK 06/03 Q1011;
0072109470999992011010714204+47983+010233FM-15+0629EDJA V0209999V001019999999Y0099001N1+00401+00201999999ADDMA1101081999999REMMET045METAR EDJA 071420Z VRB02KT CAVOK 04/02 Q1011;
0072109470999992011010714504+47983+010233FM-15+0629EDJA V0201801N002119999999Y0099001N1+00401+00201999999ADDMA1101081999999REMMET045METAR EDJA 071450Z 18004KT CAVOK 04/02 Q1011;
0072109470999992011010715504+47983+010233FM-15+0629EDJA V0201601N001519999999Y0099001N1+00501+00301999999ADDMA1101081999999REMMET045METAR EDJA 071550Z 16003KT CAVOK 05/03 Q1011;
0072109470999992011010716504+47983+010233FM-15+0629EDJA V0201601N002619999999Y0099001N1+00301+00101999999ADDMA1101081999999REMMET045METAR EDJA 071650Z 16005KT CAVOK 03/01 Q1011;
0072109470999992011010717504+47983+010233FM-15+0629EDJA V0209999V001019999999Y0099001N1+00201+00101999999ADDMA1101191999999REMMET045METAR EDJA 071750Z VRB02KT CAVOK 02/01 Q1012;
0072109470999992011010718204+47983+010233FM-15+0629EDJA V0209999V001019999999Y0099001N1+00401+00301999999ADDMA1101191999999REMMET045METAR EDJA 071820Z VRB02KT CAVOK 04/03 Q1012;
0072109470999992011010718504+47983+010233FM-15+0629EDJA V0202001N002619999999Y0099001N1+00401+00201999999ADDMA1101191999999REMMET045METAR EDJA 071850Z 20005KT CAVOK 04/02 Q1012;
0072109470999992011010719204+47983+010233FM-15+0629EDJA V0201901N002619999999Y0099001N1+00301+00101999999ADDMA1101291999999REMMET045METAR EDJA 071920Z 19005KT CAVOK 03/01 Q1013;
0072109470999992011010719504+47983+010233FM-15+0629EDJA V0202001N004119999999Y0099001N1+00301+00101999999ADDMA1101191999999REMMET045METAR EDJA 071950Z 20008KT CAVOK 03/01 Q1012;
0072109470999992011010720204+47983+010233FM-15+0629EDJA V0202001N004619999999Y0099001N1+00401+00201999999ADDMA1101191999999REMMET045METAR EDJA 072020Z 20009KT CAVOK 04/02 Q1012;
0072109470999992011010804504+47983+010233FM-15+0629EDJA V0201901N001519999999Y0099001N1+00301+00101999999ADDMA1101191999999REMMET045METAR EDJA 080450Z 19003KT CAVOK 03/01 Q1012;
0072109470999992011010805204+47983+010233FM-15+0629EDJA V0209999V001019999999Y0099001N1+00201+00101999999ADDMA1101191999999REMMET045METAR EDJA 080520Z VRB02KT CAVOK 02/01 Q1012;
0120109470999992011010805504+47983+010233FM-15+0629EDJA V0201801N002112200019N0112651N1+00201+00101999999ADDGA1021+010801999GF102991999999999999999999MA1101291999999REMMET051METAR EDJA 080550Z 18004KT 9999 FEW036 02/01 Q1013;
0120109470999992011010806204+47983+010233FM-15+0629EDJA V0209999V001010090019N0112651N1+00301+00101999999ADDGA1071+009001999GF107991999999999999999999MA1101291999999REMMET051METAR EDJA 080620Z VRB02KT 9999 BKN030 03/01 Q1013;
0120109470999992011010806504+47983+010233FM-15+0629EDJA V0209999V001510063019N0112651N1+00301+00101999999ADDGA1071+006301999GF107991999999999999999999MA1101391999999REMMET051METAR EDJA 080650Z VRB03KT 9999 BKN021 03/01 Q1014;
0130109470999992011010807204+47983+010233FM-15+0629EDJA V0202001N004110108019N0112651N1+00301+00201999999ADDGA1071+010801999GF107991999999999999999999MA1101391999999MW1611REMMET055METAR EDJA 080720Z 20008KT 9999 -RA BKN036 03/02 Q1014;
0130109470999992011010807504+47983+010233FM-15+0629EDJA V0202301N002610129019N0112651N1+00401+00301999999ADDGA1071+012901999GF107991999999999999999999MA1101391999999MW1611REMMET055METAR EDJA 080750Z 23005KT 9999 -RA BKN043 04/03 Q1014;
0155109470999992011010808204+47983+010233FM-15+0629EDJA V0202001N002110210019N0112651N1+00401+00301999999ADDGA1041+012601999GA2071+021001999GF107991999999999999999999MA1101491999999MW1801REMMET064METAR EDJA 080820Z 20004KT 9999 -SHRA SCT042 BKN078 04/03 Q1015;
0143109470999992011010808504+47983+010233FM-15+0629EDJA V0202001N004110147019N0112651N1+00401+00401999999ADDGA1041+009001999GA2071+014701999GF107991999999999999999999MA1101491999999REMMET058METAR EDJA 080850Z 20008KT 9999 SCT030 BKN049 04/04 Q1015;
0120109470999992011010809204+47983+010233FM-15+0629EDJA V0201801N003612200019N0112651N1+00501+00401999999ADDGA1041+014701999GF104991999999999999999999MA1101391999999REMMET051METAR EDJA 080920Z 18007KT 9999 SCT049 05/04 Q1014;
0072109470999992011010809504+47983+010233FM-15+0629EDJA V0201801N004619999999Y0099001N1+00501+00401999999ADDMA1101391999999REMMET045METAR EDJA 080950Z 18009KT CAVOK 05/04 Q1014;
0072109470999992011010810204+47983+010233FM-15+0629EDJA V0202001N005719999999Y0099001N1+00601+00401999999ADDMA1101391999999REMMET045METAR EDJA 081020Z 20011KT CAVOK 06/04 Q1014;
0072109470999992011010810504+47983+010233FM-15+0629EDJA V0202001N005119999999Y0099001N1+00501+00301999999ADDMA1101391999999REMMET045METAR EDJA 081050Z 20010KT CAVOK 05/03 Q1014;
0072109470999992011010811204+47983+010233FM-15+0629EDJA V0202001N004119999999Y0099001N1+00501+00301999999ADDMA1101291999999REMMET045METAR EDJA 081120Z 20008KT CAVOK 05/03 Q1013;
0072109470999992011010811504+47983+010233FM-15+0629EDJA V0202101N004119999999Y0099001N1+00601+00401999999ADDMA1101291999999REMMET045METAR EDJA 081150Z 21008KT CAVOK 06/04 Q1013;
0120109470999992011010812204+47983+010233FM-15+0629EDJA V0202101N004112200019N0112651N1+00701+00501999999ADDGA1041+009001999GF104991999999999999999999MA1101291999999REMMET051METAR EDJA 081220Z 21008KT 9999 SCT030 07/05 Q1013;
0072109470999992011010812504+47983+010233FM-15+0629EDJA V0202201N004119999999Y0099001N1+00701+00401999999ADDMA1101291999999REMMET045METAR EDJA 081250Z 22008KT CAVOK 07/04 Q1013;
0072109470999992011010813204+47983+010233FM-15+0629EDJA V0202101N003619999999Y0099001N1+00801+00501999999ADDMA1101291999999REMMET045METAR EDJA 081320Z 21007KT CAVOK 08/05 Q1013;
0072109470999992011010813504+47983+010233FM-15+0629EDJA V0201901N003619999999Y0099001N1+00901+00501999999ADDMA1101191999999REMMET045METAR EDJA 081350Z 19007KT CAVOK 09/05 Q1012;
0072109470999992011010814204+47983+010233FM-15+0629EDJA V0202101N003619999999Y0099001N1+00701+00501999999ADDMA1101191999999REMMET045METAR EDJA 081420Z 21007KT CAVOK 07/05 Q1012;
0072109470999992011010814504+47983+010233FM-15+0629EDJA V0202101N004119999999Y0099001N1+00801+00401999999ADDMA1101291999999REMMET045METAR EDJA 081450Z 21008KT CAVOK 08/04 Q1013;
0072109470999992011010815204+47983+010233FM-15+0629EDJA V0201801N003619999999Y0099001N1+00601+00301999999ADDMA1101291999999REMMET045METAR EDJA 081520Z 18007KT CAVOK 06/03 Q1013;
0072109470999992011010815504+47983+010233FM-15+0629EDJA V0201601N004619999999Y0099001N1+00501+00201999999ADDMA1101291999999REMMET045METAR EDJA 081550Z 16009KT CAVOK 05/02 Q1013;
0072109470999992011010816204+47983+010233FM-15+0629EDJA V0209999V001019999999Y0099001N1+00501+00201999999ADDMA1101291999999REMMET045METAR EDJA 081620Z VRB02KT CAVOK 05/02 Q1013;
0072109470999992011010817204+47983+010233FM-15+0629EDJA V0201701N002619999999Y0099001N1+00501+00201999999ADDMA1101391999999REMMET045METAR EDJA 081720Z 17005KT CAVOK 05/02 Q1014;
0072109470999992011010817504+47983+010233FM-15+0629EDJA V0201501N004119999999Y0099001N1+00301+00101999999ADDMA1101291999999REMMET045METAR EDJA 081750Z 15008KT CAVOK 03/01 Q1013;
0072109470999992011010818204+47983+010233FM-15+0629EDJA V0201401N003619999999Y0099001N1+00401+00201999999ADDMA1101291999999REMMET045METAR EDJA 081820Z 14007KT CAVOK 04/02 Q1013;
0072109470999992011010818504+47983+010233FM-15+0629EDJA V0201501N004119999999Y0099001N1+00401+00201999999ADDMA1101291999999REMMET045METAR EDJA 081850Z 15008KT CAVOK 04/02 Q1013;
0072109470999992011010819204+47983+010233FM-15+0629EDJA V0201601N004119999999Y0099001N1+00301+00101999999ADDMA1101291999999REMMET045METAR EDJA 081920Z 16008KT CAVOK 03/01 Q1013;
0072109470999992011010819504+47983+010233FM-15+0629EDJA V0201501N003619999999Y0099001N1+00301+00101999999ADDMA1101291999999REMMET045METAR EDJA 081950Z 15007KT CAVOK 03/01 Q1013;
0072109470999992011010820204+47983+010233FM-15+0629EDJA V0201401N004619999999Y0099001N1+00301+00101999999ADDMA1101291999999REMMET045METAR EDJA 082020Z 14009KT CAVOK 03/01 Q1013;
0072109470999992011010820504+47983+010233FM-15+0629EDJA V0201601N003619999999Y0099001N1+00201+00001999999ADDMA1101291999999REMMET045METAR EDJA 082050Z 16007KT CAVOK 02/00 Q1013;
0073109470999992011010904504+47983+010233FM-15+0629EDJA V0202101N004119999999Y0099001N1+00301-00101999999ADDMA1101081999999REMMET046METAR EDJA 090450Z 21008KT CAVOK 03/M01 Q1011;
0073109470999992011010905204+47983+010233FM-15+0629EDJA V0202101N005719999999Y0099001N1+00401+00001999999ADDMA1101081999999REMMET046METAR EDJA 090520Z 21011KT CAVOK 04/M00 Q1011;
0072109470999992011010905504+47983+010233FM-15+0629EDJA V0202001N006219999999Y0099001N1+00401+00001999999ADDMA1101081999999REMMET045METAR EDJA 090550Z 20012KT CAVOK 04/00 Q1011;
0072109470999992011010906204+47983+010233FM-15+0629EDJA V0202101N005119999999Y0099001N1+00401+00101999999ADDMA1101191999999REMMET045METAR EDJA 090620Z 21010KT CAVOK 04/01 Q1012;
0072109470999992011010906504+47983+010233FM-15+0629EDJA V0202101N003619999999Y0099001N1+00401+00101999999ADDMA1101191999999REMMET045METAR EDJA 090650Z 21007KT CAVOK 04/01 Q1012;
0072109470999992011010907204+47983+010233FM-15+0629EDJA V0201801N003619999999Y0099001N1+00301+00101999999ADDMA1101191999999REMMET045METAR EDJA 090720Z 18007KT CAVOK 03/01 Q1012;
0072109470999992011010907504+47983+010233FM-15+0629EDJA V0201501N001519999999Y0099001N1+00301+00001999999ADDMA1101191999999REMMET045METAR EDJA 090750Z 15003KT CAVOK 03/00 Q1012;
0072109470999992011010908204+47983+010233FM-15+0629EDJA V0201601N002619999999Y0099001N1+00301+00101999999ADDMA1101191999999REMMET045METAR EDJA 090820Z 16005KT CAVOK 03/01 Q1012;
0072109470999992011010908504+47983+010233FM-15+0629EDJA V0201901N002619999999Y0099001N1+00401+00101999999ADDMA1101191999999REMMET045METAR EDJA 090850Z 19005KT CAVOK 04/01 Q1012;
0072109470999992011010909204+47983+010233FM-15+0629EDJA V0202001N004619999999Y0099001N1+00401+00001999999ADDMA1101191999999REMMET045METAR EDJA 090920Z 20009KT CAVOK 04/00 Q1012;
0072109470999992011010909504+47983+010233FM-15+0629EDJA V0201801N005119999999Y0099001N1+00701+00201999999ADDMA1101291999999REMMET045METAR EDJA 090950Z 18010KT CAVOK 07/02 Q1013;
0072109470999992011010910204+47983+010233FM-15+0629EDJA V0201901N004119999999Y0099001N1+00701+00201999999ADDMA1101291999999REMMET045METAR EDJA 091020Z 19008KT CAVOK 07/02 Q1013;
0072109470999992011010910504+47983+010233FM-15+0629EDJA V0202001N004619999999Y0099001N1+00701+00201999999ADDMA1101291999999REMMET045METAR EDJA 091050Z 20009KT CAVOK 07/02 Q1013;
0072109470999992011010911204+47983+010233FM-15+0629EDJA V0202001N004619999999Y0099001N1+00701+00201999999ADDMA1101291999999REMMET045METAR EDJA 091120Z 20009KT CAVOK 07/02 Q1013;
0072109470999992011010911504+47983+010233FM-15+0629EDJA V0202001N004619999999Y0099001N1+00701+00201999999ADDMA1101291999999REMMET045METAR EDJA 091150Z 20009KT CAVOK 07/02 Q1013;
0072109470999992011010912204+47983+010233FM-15+0629EDJA V0202401N004119999999Y0099001N1+00801+00301999999ADDMA1101191999999REMMET045METAR EDJA 091220Z 24008KT CAVOK 08/03 Q1012;
0072109470999992011010912504+47983+010233FM-15+0629EDJA V0202101N003119999999Y0099001N1+00801+00201999999ADDMA1101291999999REMMET045METAR EDJA 091250Z 21006KT CAVOK 08/02 Q1013;
0072109470999992011010913204+47983+010233FM-15+0629EDJA V0202201N003619999999Y0099001N1+00801+00301999999ADDMA1101291999999REMMET045METAR EDJA 091320Z 22007KT CAVOK 08/03 Q1013;
0072109470999992011010913504+47983+010233FM-15+0629EDJA V0202401N003619999999Y0099001N1+00801+00201999999ADDMA1101291999999REMMET045METAR EDJA 091350Z 24007KT CAVOK 08/02 Q1013;
0072109470999992011010914204+47983+010233FM-15+0629EDJA V0202301N004619999999Y0099001N1+00701+00301999999ADDMA1101291999999REMMET045METAR EDJA 091420Z 23009KT CAVOK 07/03 Q1013;
0072109470999992011010914504+47983+010233FM-15+0629EDJA V0202301N004119999999Y0099001N1+00601+00201999999ADDMA1101291999999REMMET045METAR EDJA 091450Z 23008KT CAVOK 06/02 Q1013;
0072109470999992011010915204+47983+010233FM-15+0629EDJA V0202401N004619999999Y0099001N1+00701+00301999999ADDMA1101291999999REMMET045METAR EDJA 091520Z 24009KT CAVOK 07/03 Q1013;
0143109470999992011010915504+47983+010233FM-15+0629EDJA V0202401N003110180019N0112651N1+00601+00301999999ADDGA1021+008401999GA2071+018001999GF107991999999999999999999MA1101391999999REMMET058METAR EDJA 091550Z 24006KT 9999 FEW028 BKN065 06/03 Q1014;
0120109470999992011010916204+47983+010233FM-15+0629EDJA V0202301N005110072019N0112651N1+00601+00301999999ADDGA1071+007201999GF107991999999999999999999MA1101391999999REMMET051METAR EDJA 091620Z 23010KT 9999 BKN024 06/03 Q1014;
0120109470999992011010916504+47983+010233FM-15+0629EDJA V0202301N004110069019N0112651N1+00501+00301999999ADDGA1071+006901999GF107991999999999999999999MA1101391999999REMMET051METAR EDJA 091650Z 23008KT 9999 BKN023 05/03 Q1014;
0120109470999992011010917204+47983+010233FM-15+0629EDJA V0202001N005112200019N0112651N1+00501+00301999999ADDGA1041+013201999GF104991999999999999999999MA1101391999999REMMET051METAR EDJA 091720Z 20010KT 9999 SCT044 05/03 Q1014;
0120109470999992011010917504+47983+010233FM-15+0629EDJA V0202201N005710126019N0112651N1+00501+00301999999ADDGA1071+012601999GF107991999999999999999999MA1101391999999REMMET051METAR EDJA 091750Z 22011KT 9999 BKN042 05/03 Q1014;
0120109470999992011010918204+47983+010233FM-15+0629EDJA V0202101N005110126019N0112651N1+00501+00301999999ADDGA1071+012601999GF107991999999999999999999MA1101491999999REMMET051METAR EDJA 091820Z 21010KT 9999 BKN042 05/03 Q1015;
0120109470999992011010918504+47983+010233FM-15+0629EDJA V0202101N004110063019N0112651N1+00501+00401999999ADDGA1071+006301999GF107991999999999999999999MA1101491999999REMMET051METAR EDJA 091850Z 21008KT 9999 BKN021 05/04 Q1015;
0143109470999992011010919204+47983+010233FM-15+0629EDJA V0202401N002610063019N0112651N1+00501+00401999999ADDGA1071+006301999GA2071+014401999GF107991999999999999999999MA1101491999999REMMET058METAR EDJA 091920Z 24005KT 9999 BKN021 BKN048 05/04 Q1015;
0143109470999992011010919504+47983+010233FM-15+0629EDJA V0202001N002610051019N0112651N1+00501+00301999999ADDGA1071+005101999GA2071+012601999GF107991999999999999999999MA1101491999999REMMET058METAR EDJA 091950Z 20005KT 9999 BKN017 BKN042 05/03 Q1015;
0120109470999992011010920204+47983+010233FM-15+0629EDJA V0202201N003610054019N0112651N1+00501+00401999999ADDGA1071+005401999GF107991999999999999999999MA1101591999999REMMET051METAR EDJA 092020Z 22007KT 9999 BKN018 05/04 Q1016;
0120109470999992011010920504+47983+010233FM-15+0629EDJA V0202201N004610072019N0112651N1+00501+00401999999ADDGA1071+007201999GF107991999999999999999999MA1101591999999REMMET051METAR EDJA 092050Z 22009KT 9999 BKN024 05/04 Q1016;
0161109470999992011011004504+47983+010233FM-15+0629EDJA V0200601N002610030019N0050001N1+00001+00001999999ADDGA1071+003001999GA2071+009601999GF107991999999999999999999MA1101901999999MW1631MW2731REMMET064METAR EDJA 100450Z 06005KT 5000 SNRA BKN010 BKN032 00/M00 Q1019;
0153109470999992011011005204+47983+010233FM-15+0629EDJA V0200301N001510030019N0050001N1+00001+00001999999ADDGA1071+003001999GA2071+009001999GF107991999999999999999999MA1101901999999MW1731REMMET062METAR EDJA 100520Z 03003KT 5000 SN BKN010 BKN030 00/M00 Q1019;
0139109470999992011011005504+47983+010233FM-15+0629EDJA V0200701N001510018019N0035001N1+00001+00001999999ADDGA1071+001801999GF107991999999999999999999MA1102001999999MW1611MW2711REMMET058METAR EDJA 100550Z 07003KT 3500 -SNRA BKN006 00/M00 Q1020;
0161109470999992011011006204+47983+010233FM-15+0629EDJA V0200701N002110036019N0040001N1+00001+00001999999ADDGA1071+003601999GA2071+011401999GF107991999999999999999999MA1102001999999MW1631MW2731REMMET064METAR EDJA 100620Z 07004KT 4000 SNRA BKN012 BKN038 00/M00 Q1020;
0154109470999992011011006504+47983+010233FM-15+0629EDJA V0200701N002110036019N0050001N1+00001+00001999999ADDGA1071+003601999GA2071+008401999GF107991999999999999999999MA1102001999999MW1711REMMET063METAR EDJA 100650Z 07004KT 5000 -SN BKN012 BKN028 00/M00 Q1020;
0162109470999992011011007204+47983+010233FM-15+0629EDJA V0200501N002110030019N0042001N1+00001+00001999999ADDGA1071+003001999GA2071+007501999GF107991999999999999999999MA1102001999999MW1611MW2711REMMET065METAR EDJA 100720Z 05004KT 4200 -RASN BKN010 BKN025 00/M00 Q1020;
0163109470999992011011007504+47983+010233FM-15+0629EDJA V0200601N002110036019N0050001N1+00001-00101999999ADDGA1071+003601999GA2071+007501999GF107991999999999999999999MA1102101999999MW1611MW2711REMMET066METAR EDJA 100750Z 06004KT 5000 -RASN BKN012 BKN025 M00/M01 Q1021;
0145109470999992011011008204+47983+010233FM-15+0629EDJA V0200801N001510042019N0050001N1+00001+00001999999ADDGA1071+004201999GA2071+008401999GF107991999999999999999999MA1102101999999REMMET060METAR EDJA 100820Z 08003KT 5000 BKN014 BKN028 M00/M00 Q1021;
0153109470999992011011008504+47983+010233FM-15+0629EDJA V0200701N002110042019N0045001N1+00001+00001999999ADDGA1041+001801999GA2071+004201999GF107991999999999999999999MA1102101999999MW1101REMMET062METAR EDJA 100850Z 07004KT 4500 BR SCT006 BKN014 00/M00 Q1021;
0153109470999992011011009204+47983+010233FM-15+0629EDJA V0200701N002110042019N0045001N1+00001+00001999999ADDGA1021+001501999GA2071+004201999GF107991999999999999999999MA1102101999999MW1101REMMET062METAR EDJA 100920Z 07004KT 4500 BR FEW005 BKN014 00/M00 Q1021;
0154109470999992011011009504+47983+010233FM-15+0629EDJA V0200701N002110042019N0112651N1+00001+00001999999ADDGA1021+001501999GA2071+004201999GF107991999999999999999999MA1102101999999MW1711REMMET063METAR EDJA 100950Z 07004KT 9999 -SN FEW005 BKN014 00/M00 Q1021;
0154109470999992011011010204+47983+010233FM-15+0629EDJA V0200601N002110036019N0060001N1+00101+00001999999ADDGA1071+003601999GA2071+006601999GF107991999999999999999999MA1102101999999MW1711REMMET063METAR EDJA 101020Z 06004KT 6000 -SN BKN012 BKN022 01/M00 Q1021;
0154109470999992011011010504+47983+010233FM-15+0629EDJA V0200801N002610042019N0050001N1+00101+00001999999ADDGA1041+001801999GA2071+004201999GF107991999999999999999999MA1102001999999MW1711REMMET063METAR EDJA 101050Z 08005KT 5000 -SN SCT006 BKN014 01/M00 Q1020;
0144109470999992011011011204+47983+010233FM-15+0629EDJA V0200801N003610066019N0090001N1+00101+00001999999ADDGA1041+001801999GA2071+006601999GF107991999999999999999999MA1102001999999REMMET059METAR EDJA 101120Z 08007KT 9000 SCT006 BKN022 01/M00 Q1020;
0121109470999992011011011504+47983+010233FM-15+0629EDJA V0200801N002612200019N0112651N1+00101+00001999999ADDGA1041+002101999GF104991999999999999999999MA1102001999999REMMET052METAR EDJA 101150Z 08005KT 9999 SCT007 01/M00 Q1020;
0120109470999992011011012204+47983+010233FM-15+0629EDJA V0200701N003110021019N0112651N1+00101+00001999999ADDGA1071+002101999GF107991999999999999999999MA1101901999999REMMET051METAR EDJA 101220Z 07006KT 9999 BKN007 01/00 Q1019;
0120109470999992011011012504+47983+010233FM-15+0629EDJA V0200601N003110024019N0112651N1+00101+00001999999ADDGA1071+002401999GF107991999999999999999999MA1101901999999REMMET051METAR EDJA 101250Z 06006KT 9999 BKN008 01/00 Q1019;
0120109470999992011011013204+47983+010233FM-15+0629EDJA V0200701N003110018019N0112651N1+00101+00001999999ADDGA1071+001801999GF107991999999999999999999MA1101901999999REMMET051METAR EDJA 101320Z 07006KT 9999 BKN006 01/00 Q1019;
0120109470999992011011013504+47983+010233FM-15+0629EDJA V0200601N002610018019N0112651N1+00101+00001999999ADDGA1071+001801999GF107991999999999999999999MA1101901999999REMMET051METAR EDJA 101350Z 06005KT 9999 BKN006 01/00 Q1019;
0120109470999992011011014204+47983+010233FM-15+0629EDJA V0200901N002610021019N0112651N1+00101+00001999999ADDGA1071+002101999GF107991999999999999999999MA1101901999999REMMET051METAR EDJA 101420Z 09005KT 9999 BKN007 01/00 Q1019;
0120109470999992011011014504+47983+010233FM-15+0629EDJA V0200801N002110018019N0112651N1+00101+00001999999ADDGA1071+001801999GF107991999999999999999999MA1101901999999REMMET051METAR EDJA 101450Z 08004KT 9999 BKN006 01/00 Q1019;
0120109470999992011011015204+47983+010233FM-15+0629EDJA V0201001N003110018019N0112651N1+00101+00001999999ADDGA1071+001801999GF107991999999999999999999MA1101801999999REMMET051METAR EDJA 101520Z 10006KT 9999 BKN006 01/00 Q1018;
0121109470999992011011015504+47983+010233FM-15+0629EDJA V0200801N003110012019N0080001N1+00101+00001999999ADDGA1071+001201999GF107991999999999999999999MA1101801999999REMMET052METAR EDJA 101550Z 08006KT 8000 BKN004 01/M00 Q1018;
0121109470999992011011016204+47983+010233FM-15+0629EDJA V0200701N003110012019N0060001N1+00001+00001999999ADDGA1081+001201999GF108991999999999999999999MA1101801999999REMMET052METAR EDJA 101620Z 07006KT 6000 OVC004 00/M00 Q1018;
0130109470999992011011016504+47983+010233FM-15+0629EDJA V0200601N003110009019N0050001N1+00001+00001999999ADDGA1071+000901999GF107991999999999999999999MA1101801999999MW1101REMMET055METAR EDJA 101650Z 06006KT 5000 BR BKN003 00/M00 Q1018;
0130109470999992011011017204+47983+010233FM-15+0629EDJA V0200701N002110009019N0040001N1+00001+00001999999ADDGA1071+000901999GF107991999999999999999999MA1101801999999MW1101REMMET055METAR EDJA 101720Z 07004KT 4000 BR BKN003 00/M00 Q1018;
0130109470999992011011017504+47983+010233FM-15+0629EDJA V0200801N003110006019N0035001N1+00001+00001999999ADDGA1071+000601999GF107991999999999999999999MA1101801999999MW1101REMMET055METAR EDJA 101750Z 08006KT 3500 BR BKN002 00/M00 Q1018;
0129109470999992011011018204+47983+010233FM-15+0629EDJA V0200801N00361000151CN0020001N1+00001+00001999999ADDGA1091+000151999GF109991999999000251999999MA1101691999999MW1101REMMET054METAR EDJA 101820Z 08007KT 2000 BR VV/// 00/M00 Q1017;
0129109470999992011011018504+47983+010233FM-15+0629EDJA V0201001N00211000151CN0009001N1+00001+00001999999ADDGA1091+000151999GF109991999999000251999999MA1101691999999MW1451REMMET054METAR EDJA 101850Z 10004KT 0900 FG VV/// 00/M00 Q1017;
0138109470999992011011019204+47983+010233FM-15+0629EDJA V0200701N002610006019N0015001N1+00001+00001999999ADDGA1071+000601999GF107991999999999999999999MA1101691999999MW1101REMMET063METAR EDJA 101920Z 07005KT 040V100 1500 BR BKN002 00/M00 Q1017;
0130109470999992011011019504+47983+010233FM-15+0629EDJA V0200901N003110006019N0010001N1+00001+00001999999ADDGA1071+000601999GF107991999999999999999999MA1101691999999MW1101REMMET055METAR EDJA 101950Z 09006KT 1000 BR BKN002 00/M00 Q1017;
0130109470999992011011020204+47983+010233FM-15+0629EDJA V0200701N001510006019N0035001N1+00001+00001999999ADDGA1071+000601999GF107991999999999999999999MA1101691999999MW1101REMMET055METAR EDJA 102020Z 07003KT 3500 BR BKN002 00/M00 Q1017;
0130109470999992011011020504+47983+010233FM-15+0629EDJA V0200801N002110006019N0020001N1+00001+00001999999ADDGA1071+000601999GF107991999999999999999999MA1101591999999MW1101REMMET055METAR EDJA 102050Z 08004KT 2000 BR BKN002 00/M00 Q1016;
0131109470999992011011104504+47983+010233FM-15+0629EDJA V0202401N003610012019N0060001N1+00101+00001999999ADDGA1081+001201999GF108991999999999999999999MA1101291999999MW1511REMMET056METAR EDJA 110450Z 24007KT 6000 -DZ OVC004 01/M00 Q1013;
0131109470999992011011105204+47983+010233FM-15+0629EDJA V0202401N004610009019N0050001N1+00001+00001999999ADDGA1081+000901999GF108991999999999999999999MA1101291999999MW1511REMMET056METAR EDJA 110520Z 24009KT 5000 -DZ OVC003 00/M00 Q1013;
0121109470999992011011105504+47983+010233FM-15+0629EDJA V0202301N003610009019N0050001N1+00001+00001999999ADDGA1081+000901999GF108991999999999999999999MA1101191999999REMMET052METAR EDJA 110550Z 23007KT 5000 OVC003 00/M00 Q1012;
0130109470999992011011106204+47983+010233FM-15+0629EDJA V0202201N004610009019N0045001N1+00001+00001999999ADDGA1081+000901999GF108991999999999999999999MA1101191999999MW1511REMMET055METAR EDJA 110620Z 22009KT 4500 -DZ OVC003 00/00 Q1012;
0129109470999992011011106504+47983+010233FM-15+0629EDJA V0202401N004110009019N0025001N1+00001+00001999999ADDGA1081+000901999GF108991999999999999999999MA1101191999999MW1101REMMET054METAR EDJA 110650Z 24008KT 2500 BR OVC003 00/00 Q1012;
0129109470999992011011107204+47983+010233FM-15+0629EDJA V0202201N004610006019N0015001N1+00001+00001999999ADDGA1071+000601999GF107991999999999999999999MA1101191999999MW1101REMMET054METAR EDJA 110720Z 22009KT 1500 BR BKN002 00/00 Q1012;
0129109470999992011011107504+47983+010233FM-15+0629EDJA V0202201N004110012019N0040001N1+00001+00001999999ADDGA1081+001201999GF108991999999999999999999MA1101191999999MW1101REMMET054METAR EDJA 110750Z 22008KT 4000 BR OVC004 00/00 Q1012;
0129109470999992011011108204+47983+010233FM-15+0629EDJA V0202201N003610012019N0050001N1+00101+00001999999ADDGA1071+001201999GF107991999999999999999999MA1101191999999MW1101REMMET054METAR EDJA 110820Z 22007KT 5000 BR BKN004 01/00 Q1012;
0129109470999992011011108504+47983+010233FM-15+0629EDJA V0202301N003610012019N0050001N1+00101+00001999999ADDGA1081+001201999GF108991999999999999999999MA1101081999999MW1101REMMET054METAR EDJA 110850Z 23007KT 5000 BR OVC004 01/00 Q1011;
0129109470999992011011109204+47983+010233FM-15+0629EDJA V0202001N004110012019N0050001N1+00101+00001999999ADDGA1081+001201999GF108991999999999999999999MA1101081999999MW1101REMMET054METAR EDJA 110920Z 20008KT 5000 BR OVC004 01/00 Q1011;
0129109470999992011011109504+47983+010233FM-15+0629EDJA V0202101N004110012019N0050001N1+00101+00001999999ADDGA1081+001201999GF108991999999999999999999MA1101081999999MW1101REMMET054METAR EDJA 110950Z 21008KT 5000 BR OVC004 01/00 Q1011;
0129109470999992011011110204+47983+010233FM-15+0629EDJA V0202201N003610012019N0050001N1+00101+00001999999ADDGA1081+001201999GF108991999999999999999999MA1101081999999MW1101REMMET054METAR EDJA 111020Z 22007KT 5000 BR OVC004 01/00 Q1011;
0137109470999992011011110504+47983+010233FM-15+0629EDJA V0202201N003110012019N0045001N1+00101+00001999999ADDGA1081+001201999GF108991999999999999999999MA1101021999999MW1101REMMET062METAR EDJA 111050Z 22006KT 190V250 4500 BR OVC004 01/00 Q1010;
0129109470999992011011111204+47983+010233FM-15+0629EDJA V0202201N002610012019N0050001N1+00101+00001999999ADDGA1081+001201999GF108991999999999999999999MA1101021999999MW1101REMMET054METAR EDJA 111120Z 22005KT 5000 BR OVC004 01/00 Q1010;
0129109470999992011011111504+47983+010233FM-15+0629EDJA V0201901N003110012019N0040001N1+00101+00101999999ADDGA1081+001201999GF108991999999999999999999MA1100911999999MW1101REMMET054METAR EDJA 111150Z 19006KT 4000 BR OVC004 01/01 Q1009;
0137109470999992011011112204+47983+010233FM-15+0629EDJA V0201901N002110009019N0030001N1+00101+00001999999ADDGA1081+000901999GF108991999999999999999999MA1100911999999MW1101REMMET062METAR EDJA 111220Z 19004KT 170V240 3000 BR OVC003 01/00 Q1009;
0137109470999992011011112504+47983+010233FM-15+0629EDJA V0202101N002610009019N0030001N1+00101+00001999999ADDGA1081+000901999GF108991999999999999999999MA1100911999999MW1101REMMET062METAR EDJA 111250Z 21005KT 180V240 3000 BR OVC003 01/00 Q1009;
0129109470999992011011113204+47983+010233FM-15+0629EDJA V0209999V001510009019N0030001N1+00101+00001999999ADDGA1081+000901999GF108991999999999999999999MA1100811999999MW1101REMMET054METAR EDJA 111320Z VRB03KT 3000 BR OVC003 01/00 Q1008;
0137109470999992011011113504+47983+010233FM-15+0629EDJA V0202401N002110009019N0031001N1+00101+00001999999ADDGA1081+000901999GF108991999999999999999999MA1100911999999MW1101REMMET062METAR EDJA 111350Z 24004KT 210V270 3100 BR OVC003 01/00 Q1009;
0129109470999992011011114204+47983+010233FM-15+0629EDJA V0202501N002610009019N0032001N1+00101+00001999999ADDGA1081+000901999GF108991999999999999999999MA1100911999999MW1101REMMET054METAR EDJA 111420Z 25005KT 3200 BR OVC003 01/00 Q1009;
0129109470999992011011114504+47983+010233FM-15+0629EDJA V0202301N004610015019N0045001N1+00101+00101999999ADDGA1081+001501999GF108991999999999999999999MA1100911999999MW1101REMMET054METAR EDJA 111450Z 23009KT 4500 BR OVC005 01/01 Q1009;
0129109470999992011011115204+47983+010233FM-15+0629EDJA V0202301N005110018019N0045001N1+00101+00101999999ADDGA1081+001801999GF108991999999999999999999MA1100911999999MW1101REMMET054METAR EDJA 111520Z 23010KT 4500 BR OVC006 01/01 Q1009;
0129109470999992011011115504+47983+010233FM-15+0629EDJA V0202301N004610018019N0045001N1+00101+00101999999ADDGA1081+001801999GF108991999999999999999999MA1101021999999MW1101REMMET054METAR EDJA 111550Z 23009KT 4500 BR OVC006 01/01 Q1010;
0120109470999992011011116204+47983+010233FM-15+0629EDJA V0202101N005110021019N0060001N1+00101+00001999999ADDGA1071+002101999GF107991999999999999999999MA1101021999999REMMET051METAR EDJA 111620Z 21010KT 6000 BKN007 01/00 Q1010;
0143109470999992011011116504+47983+010233FM-15+0629EDJA V0202001N004610024019N0090001N1+00101+00001999999ADDGA1071+002401999GA2071+006301999GF107991999999999999999999MA1101021999999REMMET058METAR EDJA 111650Z 20009KT 9000 BKN008 BKN021 01/00 Q1010;
0120109470999992011011117204+47983+010233FM-15+0629EDJA V0202001N004110042019N0080001N1+00101+00001999999ADDGA1071+004201999GF107991999999999999999999MA1101021999999REMMET051METAR EDJA 111720Z 20008KT 8000 BKN014 01/00 Q1010;
0120109470999992011011117504+47983+010233FM-15+0629EDJA V0202101N004112200019N0112651N1+00201+00101999999ADDGA1041+004201999GF104991999999999999999999MA1101081999999REMMET051METAR EDJA 111750Z 21008KT 9999 SCT014 02/01 Q1011;
0120109470999992011011118204+47983+010233FM-15+0629EDJA V0202301N006210021019N0090001N1+00201+00101999999ADDGA1071+002101999GF107991999999999999999999MA1101081999999REMMET051METAR EDJA 111820Z 23012KT 9000 BKN007 02/01 Q1011;
0130109470999992011011118504+47983+010233FM-15+0629EDJA V0202301N005710024019N0090001N1+00201+00101999999ADDGA1071+002401999GF107991999999999999999999MA1101081999999MW1611REMMET055METAR EDJA 111850Z 23011KT 9000 -RA BKN008 02/01 Q1011;
0130109470999992011011119204+47983+010233FM-15+0629EDJA V0202301N006710024019N0112651N1+00201+00101999999ADDGA1071+002401999GF107991999999999999999999MA1101191999999MW1611REMMET055METAR EDJA 111920Z 23013KT 9999 -RA BKN008 02/01 Q1012;
0153109470999992011011119504+47983+010233FM-15+0629EDJA V0202301N006710039019N0080001N1+00201+00101999999ADDGA1041+002401999GA2071+003901999GF107991999999999999999999MA1101191999999MW1611REMMET062METAR EDJA 111950Z 23013KT 8000 -RA SCT008 BKN013 02/01 Q1012;
0130109470999992011011120204+47983+010233FM-15+0629EDJA V0202301N006210024019N0080001N1+00201+00101999999ADDGA1071+002401999GF107991999999999999999999MA1101291999999MW1611REMMET055METAR EDJA 112020Z 23012KT 8000 -RA BKN008 02/01 Q1013;
0130109470999992011011120504+47983+010233FM-15+0629EDJA V0202201N005710024019N0112651N1+00101+00101999999ADDGA1071+002401999GF107991999999999999999999MA1101291999999MW1611REMMET055METAR EDJA 112050Z 22011KT 9999 -RA BKN008 01/01 Q1013;
0120109470999992011011204504+47983+010233FM-15+0629EDJA V0202201N007210018019N0112651N1+00301+00201999999ADDGA1081+001801999GF108991999999999999999999MA1101801999999REMMET051METAR EDJA 120450Z 22014KT 9999 OVC006 03/02 Q1018;
0120109470999992011011205204+47983+010233FM-15+0629EDJA V0202301N006210021019N0090001N1+00301+00201999999ADDGA1071+002101999GF107991999999999999999999MA1101801999999REMMET051METAR EDJA 120520Z 23012KT 9000 BKN007 03/02 Q1018;
0130109470999992011011205504+47983+010233FM-15+0629EDJA V0202301N005710021019N0080001N1+00301+00201999999ADDGA1071+002101999GF107991999999999999999999MA1101901999999MW1611REMMET055METAR EDJA 120550Z 23011KT 8000 -RA BKN007 03/02 Q1019;
0120109470999992011011206204+47983+010233FM-15+0629EDJA V0202301N005710024019N0070001N1+00301+00301999999ADDGA1071+002401999GF107991999999999999999999MA1101901999999REMMET051METAR EDJA 120620Z 23011KT 7000 BKN008 03/03 Q1019;
0153109470999992011011206504+47983+010233FM-15+0629EDJA V0202301N005710024019N0080001N1+00301+00301999999ADDGA1071+002401999GA2071+006601999GF107991999999999999999999MA1101901999999MW1611REMMET062METAR EDJA 120650Z 23011KT 8000 -RA BKN008 BKN022 03/03 Q1019;
0153109470999992011011207204+47983+010233FM-15+0629EDJA V0202301N005710024019N0080001N1+00301+00301999999ADDGA1071+002401999GA2071+005401999GF107991999999999999999999MA1101901999999MW1611REMMET062METAR EDJA 120720Z 23011KT 8000 -RA BKN008 BKN018 03/03 Q1019;
0153109470999992011011207504+47983+010233FM-15+0629EDJA V0202601N008210030019N0070001N1+00301+00201999999ADDGA1041+001201999GA2071+003001999GF107991999999999999999999MA1102001999999MW1611REMMET062METAR EDJA 120750Z 26016KT 7000 -RA SCT004 BKN010 03/02 Q1020;
0153109470999992011011208204+47983+010233FM-15+0629EDJA V0202501N007710042019N0112651N1+00301+00101999999ADDGA1071+004201999GA2071+007801999GF107991999999999999999999MA1102001999999MW1611REMMET062METAR EDJA 120820Z 25015KT 9999 -RA BKN014 BKN026 03/01 Q1020;
0153109470999992011011208504+47983+010233FM-15+0629EDJA V0202501N006210042019N0112651N1+00301+00201999999ADDGA1071+004201999GA2071+007501999GF107991999999999999999999MA1102001999999MW1611REMMET062METAR EDJA 120850Z 25012KT 9999 -RA BKN014 BKN025 03/02 Q1020;
0143109470999992011011209204+47983+010233FM-15+0629EDJA V0202501N005110048019N0112651N1+00301+00201999999ADDGA1041+002701999GA2071+004801999GF107991999999999999999999MA1102101999999REMMET058METAR EDJA 120920Z 25010KT 9999 SCT009 BKN016 03/02 Q1021;
0143109470999992011011209504+47983+010233FM-15+0629EDJA V0202401N005112200019N0112651N1+00401+00201999999ADDGA1041+003001999GA2041+004501999GF104991999999999999999999MA1102101999999REMMET058METAR EDJA 120950Z 24010KT 9999 SCT010 SCT015 04/02 Q1021;
0143109470999992011011210204+47983+010233FM-15+0629EDJA V0202301N006712200019N0112651N1+00401+00201999999ADDGA1041+003001999GA2041+009001999GF104991999999999999999999MA1102101999999REMMET058METAR EDJA 121020Z 23013KT 9999 SCT010 SCT030 04/02 Q1021;
0120109470999992011011210504+47983+010233FM-15+0629EDJA V0202301N006710048019N0112651N1+00401+00201999999ADDGA1071+004801999GF107991999999999999999999MA1102001999999REMMET051METAR EDJA 121050Z 23013KT 9999 BKN016 04/02 Q1020;
0120109470999992011011211204+47983+010233FM-15+0629EDJA V0202301N006210051019N0112651N1+00401+00201999999ADDGA1071+005101999GF107991999999999999999999MA1102001999999REMMET051METAR EDJA 121120Z 23012KT 9999 BKN017 04/02 Q1020;
0120109470999992011011211504+47983+010233FM-15+0629EDJA V0202301N005710051019N0112651N1+00401+00201999999ADDGA1071+005101999GF107991999999999999999999MA1102001999999REMMET051METAR EDJA 121150Z 23011KT 9999 BKN017 04/02 Q1020;
0143109470999992011011212204+47983+010233FM-15+0629EDJA V0202301N006210093019N0112651N1+00401+00201999999ADDGA1041+004501999GA2071+009301999GF107991999999999999999999MA1102001999999REMMET058METAR EDJA 121220Z 23012KT 9999 SCT015 BKN031 04/02 Q1020;
0120109470999992011011212504+47983+010233FM-15+0629EDJA V0202401N007710063019N0112651N1+00401+00201999999ADDGA1071+006301999GF107991999999999999999999MA1102001999999REMMET051METAR EDJA 121250Z 24015KT 9999 BKN021 04/02 Q1020;
0120109470999992011011213204+47983+010233FM-15+0629EDJA V0202301N006710048019N0112651N1+00401+00201999999ADDGA1071+004801999GF107991999999999999999999MA1101901999999REMMET051METAR EDJA 121320Z 23013KT 9999 BKN016 04/02 Q1019;
0143109470999992011011213504+47983+010233FM-15+0629EDJA V0202301N008210120019N0112651N1+00401+00201999999ADDGA1041+006001999GA2071+012001999GF107991999999999999999999MA1102001999999REMMET058METAR EDJA 121350Z 23016KT 9999 SCT020 BKN040 04/02 Q1020;
0130109470999992011011214504+47983+010233FM-15+0629EDJA V0202301N006210036019N0070001N1+00401+00201999999ADDGA1071+003601999GF107991999999999999999999MA1102001999999MW1611REMMET055METAR EDJA 121450Z 23012KT 7000 -RA BKN012 04/02 Q1020;
0130109470999992011011215204+47983+010233FM-15+0629EDJA V0202301N007210036019N0070001N1+00301+00201999999ADDGA1071+003601999GF107991999999999999999999MA1102001999999MW1611REMMET055METAR EDJA 121520Z 23014KT 7000 -RA BKN012 03/02 Q1020;
0130109470999992011011215504+47983+010233FM-15+0629EDJA V0202301N006710027019N0070001N1+00301+00201999999ADDGA1071+002701999GF107991999999999999999999MA1101901999999MW1611REMMET055METAR EDJA 121550Z 23013KT 7000 -RA BKN009 03/02 Q1019;
0130109470999992011011216204+47983+010233FM-15+0629EDJA V0202301N007710030019N0070001N1+00301+00201999999ADDGA1071+003001999GF107991999999999999999999MA1101901999999MW1611REMMET055METAR EDJA 121620Z 23015KT 7000 -RA BKN010 03/02 Q1019;
0130109470999992011011216504+47983+010233FM-15+0629EDJA V0202301N007710030019N0070001N1+00301+00201999999ADDGA1071+003001999GF107991999999999999999999MA1101901999999MW1611REMMET055METAR EDJA 121650Z 23015KT 7000 -RA BKN010 03/02 Q1019;
0120109470999992011011217204+47983+010233FM-15+0629EDJA V0202301N008210030019N0080001N1+00301+00201999999ADDGA1071+003001999GF107991999999999999999999MA1101901999999REMMET051METAR EDJA 121720Z 23016KT 8000 BKN010 03/02 Q1019;
0120109470999992011011217504+47983+010233FM-15+0629EDJA V0202301N009310030019N0080001N1+00301+00201999999ADDGA1071+003001999GF107991999999999999999999MA1101901999999REMMET051METAR EDJA 121750Z 23018KT 8000 BKN010 03/02 Q1019;
0120109470999992011011218204+47983+010233FM-15+0629EDJA V0202201N007710105019N0112651N1+00301+00201999999ADDGA1071+010501999GF107991999999999999999999MA1101901999999REMMET051METAR EDJA 121820Z 22015KT 9999 BKN035 03/02 Q1019;
0120109470999992011011218504+47983+010233FM-15+0629EDJA V0202201N008710105019N0112651N1+00301+00201999999ADDGA1071+010501999GF107991999999999999999999MA1101801999999REMMET051METAR EDJA 121850Z 22017KT 9999 BKN035 03/02 Q1018;
0143109470999992011011219504+47983+010233FM-15+0629EDJA V0202201N009310105019N0112651N1+00401+00201999999ADDGA1021+003601999GA2071+010501999GF107991999999999999999999MA1101801999999REMMET058METAR EDJA 121950Z 22018KT 9999 FEW012 BKN035 04/02 Q1018;
0143109470999992011011220204+47983+010233FM-15+0629EDJA V0202201N008710105019N0112651N1+00401+00201999999ADDGA1021+003001999GA2071+010501999GF107991999999999999999999MA1101801999999REMMET058METAR EDJA 122020Z 22017KT 9999 FEW010 BKN035 04/02 Q1018;
0143109470999992011011220504+47983+010233FM-15+0629EDJA V0202201N008210105019N0112651N1+00401+00301999999ADDGA1021+003001999GA2071+010501999GF107991999999999999999999MA1101801999999REMMET058METAR EDJA 122050Z 22016KT 9999 FEW010 BKN035 04/03 Q1018;
0120109470999992011011304504+47983+010233FM-15+0629EDJA V0202301N010810024019N0112651N1+00701+00601999999ADDGA1071+002401999GF107991999999999999999999MA1101591999999REMMET051METAR EDJA 130450Z 23021KT 9999 BKN008 07/06 Q1016;
0120109470999992011011305204+47983+010233FM-15+0629EDJA V0202201N010810027019N0112651N1+00701+00601999999ADDGA1071+002701999GF107991999999999999999999MA1101591999999REMMET051METAR EDJA 130520Z 22021KT 9999 BKN009 07/06 Q1016;
0120109470999992011011305504+47983+010233FM-15+0629EDJA V0202301N011310027019N0112651N1+00701+00601999999ADDGA1071+002701999GF107991999999999999999999MA1101591999999REMMET051METAR EDJA 130550Z 23022KT 9999 BKN009 07/06 Q1016;
0129109470999992011011306204+47983+010233FM-15+0629EDJA V0202301N011310027019N0112651N1+00701+00601999999ADDGA1071+002701999GF107991999999999999999999MA1101591999999MW1631REMMET054METAR EDJA 130620Z 23022KT 9999 RA BKN009 07/06 Q1016;
0129109470999992011011306504+47983+010233FM-15+0629EDJA V0202301N011310027019N0112651N1+00701+00601999999ADDGA1071+002701999GF107991999999999999999999MA1101591999999MW1631REMMET054METAR EDJA 130650Z 23022KT 9999 RA BKN009 07/06 Q1016;
0129109470999992011011307204+47983+010233FM-15+0629EDJA V0202201N011810027019N0112651N1+00701+00601999999ADDGA1071+002701999GF107991999999999999999999MA1101591999999MW1631REMMET054METAR EDJA 130720Z 22023KT 9999 RA BKN009 07/06 Q1016;
0129109470999992011011307504+47983+010233FM-15+0629EDJA V0202301N010810030019N0070001N1+00701+00601999999ADDGA1071+003001999GF107991999999999999999999MA1101591999999MW1631REMMET054METAR EDJA 130750Z 23021KT 7000 RA BKN010 07/06 Q1016;
0129109470999992011011308204+47983+010233FM-15+0629EDJA V0202301N010310027019N0112651N1+00701+00601999999ADDGA1071+002701999GF107991999999999999999999MA1101691999999MW1631REMMET054METAR EDJA 130820Z 23020KT 9999 RA BKN009 07/06 Q1017;
0132109470999992011011308504+47983+010233FM-15+0629EDJA V0202301N010310030019N0112651N1+00701+00601999999ADDGA1071+003001999GF107991999999999999999999MA1101691999999MW1801REMMET057METAR EDJA 130850Z 23020KT 9999 -SHRA BKN010 07/06 Q1017;
0129109470999992011011309204+47983+010233FM-15+0629EDJA V0202301N010310027019N0112651N1+00801+00601999999ADDGA1071+002701999GF107991999999999999999999MA1101691999999MW1631REMMET054METAR EDJA 130920Z 23020KT 9999 RA BKN009 08/06 Q1017;
0129109470999992011011309504+47983+010233FM-15+0629EDJA V0202301N011310027019N0112651N1+00801+00701999999ADDGA1071+002701999GF107991999999999999999999MA1101691999999MW1631REMMET054METAR EDJA 130950Z 23022KT 9999 RA BKN009 08/07 Q1017;
0135109470999992011011310204+47983+010233FM-15+0629EDJA V0202301N011810027019N0112651N1+00801+00701999999ADDGA1071+002701999GF107991999999999999999999MA1101691999999MW1611REMMET060METAR EDJA 131020Z 23023KT 9999 -RA BKN009 08/07 Q1017 RERA;
0141109470999992011011310504+47983+010233FM-15+0629EDJA V0202301N011310024019N0112651N1+00801+00701999999ADDGA1071+002401999GF107991999999999999999999MA1101691999999MW1611OC101701REMMET058METAR EDJA 131050Z 23022G33KT 9999 -RA BKN008 08/07 Q1017;
0130109470999992011011311204+47983+010233FM-15+0629EDJA V0202401N010810027019N0112651N1+00801+00701999999ADDGA1071+002701999GF107991999999999999999999MA1101691999999MW1611REMMET055METAR EDJA 131120Z 24021KT 9999 -RA BKN009 08/07 Q1017;
0130109470999992011011311504+47983+010233FM-15+0629EDJA V0202301N011310027019N0112651N1+00801+00701999999ADDGA1071+002701999GF107991999999999999999999MA1101691999999MW1611REMMET055METAR EDJA 131150Z 23022KT 9999 -RA BKN009 08/07 Q1017;
0130109470999992011011312204+47983+010233FM-15+0629EDJA V0202301N009810030019N0112651N1+00801+00701999999ADDGA1071+003001999GF107991999999999999999999MA1101691999999MW1611REMMET055METAR EDJA 131220Z 23019KT 9999 -RA BKN010 08/07 Q1017;
0130109470999992011011312504+47983+010233FM-15+0629EDJA V0202401N008710030019N0112651N1+00801+00701999999ADDGA1071+003001999GF107991999999999999999999MA1101691999999MW1611REMMET055METAR EDJA 131250Z 24017KT 9999 -RA BKN010 08/07 Q1017;
0141109470999992011011313204+47983+010233FM-15+0629EDJA V0202401N009810030019N0112651N1+00801+00701999999ADDGA1071+003001999GF107991999999999999999999MA1101691999999MW1611OC101541REMMET058METAR EDJA 131320Z 24019G30KT 9999 -RA BKN010 08/07 Q1017;
0130109470999992011011313504+47983+010233FM-15+0629EDJA V0202301N009310036019N0112651N1+00801+00701999999ADDGA1071+003601999GF107991999999999999999999MA1101691999999MW1611REMMET055METAR EDJA 131350Z 23018KT 9999 -RA BKN012 08/07 Q1017;
0153109470999992011011314204+47983+010233FM-15+0629EDJA V0202301N008710144019N0112651N1+00801+00701999999ADDGA1041+003601999GA2071+014401999GF107991999999999999999999MA1101691999999MW1611REMMET062METAR EDJA 131420Z 23017KT 9999 -RA SCT012 BKN048 08/07 Q1017;
0153109470999992011011314504+47983+010233FM-15+0629EDJA V0202301N008210066019N0112651N1+00801+00701999999ADDGA1041+004801999GA2071+006601999GF107991999999999999999999MA1101801999999MW1611REMMET062METAR EDJA 131450Z 23016KT 9999 -RA SCT016 BKN022 08/07 Q1018;
0153109470999992011011315204+47983+010233FM-15+0629EDJA V0202201N008710144019N0112651N1+00801+00701999999ADDGA1041+004201999GA2071+014401999GF107991999999999999999999MA1101691999999MW1611REMMET062METAR EDJA 131520Z 22017KT 9999 -RA SCT014 BKN048 08/07 Q1017;
0153109470999992011011315504+47983+010233FM-15+0629EDJA V0202201N009310138019N0112651N1+00801+00701999999ADDGA1021+004501999GA2071+013801999GF107991999999999999999999MA1101801999999MW1611REMMET062METAR EDJA 131550Z 22018KT 9999 -RA FEW015 BKN046 08/07 Q1018;
0153109470999992011011316204+47983+010233FM-15+0629EDJA V0202301N009810129019N0112651N1+00801+00701999999ADDGA1041+003001999GA2071+012901999GF107991999999999999999999MA1101801999999MW1611REMMET062METAR EDJA 131620Z 23019KT 9999 -RA SCT010 BKN043 08/07 Q1018;
0120109470999992011011316504+47983+010233FM-15+0629EDJA V0202301N008710123019N0112651N1+00801+00701999999ADDGA1071+012301999GF107991999999999999999999MA1101801999999REMMET051METAR EDJA 131650Z 23017KT 9999 BKN041 08/07 Q1018;
0130109470999992011011317204+47983+010233FM-15+0629EDJA V0202301N008710090019N0112651N1+00801+00701999999ADDGA1071+009001999GF107991999999999999999999MA1101801999999MW1611REMMET055METAR EDJA 131720Z 23017KT 9999 -RA BKN030 08/07 Q1018;
0120109470999992011011317504+47983+010233FM-15+0629EDJA V0202301N009310147019N0112651N1+00801+00701999999ADDGA1071+014701999GF107991999999999999999999MA1101801999999REMMET051METAR EDJA 131750Z 23018KT 9999 BKN049 08/07 Q1018;
0130109470999992011011318204+47983+010233FM-15+0629EDJA V0202201N008210135019N0112651N1+00801+00701999999ADDGA1071+013501999GF107991999999999999999999MA1101801999999MW1611REMMET055METAR EDJA 131820Z 22016KT 9999 -RA BKN045 08/07 Q1018;
0120109470999992011011318504+47983+010233FM-15+0629EDJA V0202301N008710147019N0112651N1+00801+00701999999ADDGA1071+014701999GF107991999999999999999999MA1101801999999REMMET051METAR EDJA 131850Z 23017KT 9999 BKN049 08/07 Q1018;
0120109470999992011011319204+47983+010233FM-15+0629EDJA V0202301N008210147019N0112651N1+00801+00701999999ADDGA1071+014701999GF107991999999999999999999MA1101801999999REMMET051METAR EDJA 131920Z 23016KT 9999 BKN049 08/07 Q1018;
0143109470999992011011319504+47983+010233FM-15+0629EDJA V0202201N008710135019N0112651N1+00801+00701999999ADDGA1041+003901999GA2071+013501999GF107991999999999999999999MA1101801999999REMMET058METAR EDJA 131950Z 22017KT 9999 SCT013 BKN045 08/07 Q1018;
0120109470999992011011320204+47983+010233FM-15+0629EDJA V0202201N007710045019N0112651N1+00801+00701999999ADDGA1071+004501999GF107991999999999999999999MA1101801999999REMMET051METAR EDJA 132020Z 22015KT 9999 BKN015 08/07 Q1018;
0120109470999992011011320504+47983+010233FM-15+0629EDJA V0202201N008210030019N0112651N1+00801+00701999999ADDGA1071+003001999GF107991999999999999999999MA1101801999999REMMET051METAR EDJA 132050Z 22016KT 9999 BKN010 08/07 Q1018;
0130109470999992011011404504+47983+010233FM-15+0629EDJA V0202201N007710111019N0112651N1+00801+00601999999ADDGA1071+011101999GF107991999999999999999999MA1101901999999MW1611REMMET055METAR EDJA 140450Z 22015KT 9999 -RA BKN037 08/06 Q1019;
0148109470999992011011405204+47983+010233FM-15+0629EDJA V0202401N005710117019N0112651N1+00801+00601999999ADDGA1041+003901999GA2071+011701999GF107991999999999999999999MA1102001999999REMMET063METAR EDJA 140520Z 24011KT 9999 SCT013 BKN039 08/06 Q1020 RERA;
0143109470999992011011405504+47983+010233FM-15+0629EDJA V0202301N007210150019N0112651N1+00801+00601999999ADDGA1041+010501999GA2071+015001999GF107991999999999999999999MA1101901999999REMMET058METAR EDJA 140550Z 23014KT 9999 SCT035 BKN056 08/06 Q1019;
0143109470999992011011406204+47983+010233FM-15+0629EDJA V0202301N006212200019N0112651N1+00701+00601999999ADDGA1041+011101999GA2041+015001999GF104991999999999999999999MA1102001999999REMMET058METAR EDJA 140620Z 23012KT 9999 SCT037 SCT053 07/06 Q1020;
0072109470999992011011406504+47983+010233FM-15+0629EDJA V0202301N005719999999Y0099001N1+00701+00501999999ADDMA1102001999999REMMET045METAR EDJA 140650Z 23011KT CAVOK 07/05 Q1020;
0120109470999992011011407204+47983+010233FM-15+0629EDJA V0202501N004112200019N0112651N1+00601+00501999999ADDGA1021+005401999GF102991999999999999999999MA1102001999999REMMET051METAR EDJA 140720Z 25008KT 9999 FEW018 06/05 Q1020;
0120109470999992011011407504+47983+010233FM-15+0629EDJA V0202301N003612200019N0112651N1+00601+00501999999ADDGA1021+005401999GF102991999999999999999999MA1102001999999REMMET051METAR EDJA 140750Z 23007KT 9999 FEW018 06/05 Q1020;
0120109470999992011011408204+47983+010233FM-15+0629EDJA V0202401N004112200019N0112651N1+00701+00601999999ADDGA1021+003001999GF102991999999999999999999MA1102001999999REMMET051METAR EDJA 140820Z 24008KT 9999 FEW010 07/06 Q1020;
0120109470999992011011408504+47983+010233FM-15+0629EDJA V0202501N003610072019N0112651N1+00801+00601999999ADDGA1071+007201999GF107991999999999999999999MA1102001999999REMMET051METAR EDJA 140850Z 25007KT 9999 BKN024 08/06 Q1020;
0120109470999992011011409204+47983+010233FM-15+0629EDJA V0202401N004610069019N0112651N1+00801+00601999999ADDGA1071+006901999GF107991999999999999999999MA1102001999999REMMET051METAR EDJA 140920Z 24009KT 9999 BKN023 08/06 Q1020;
0120109470999992011011409504+47983+010233FM-15+0629EDJA V0202501N004612200019N0112651N1+00901+00601999999ADDGA1041+007201999GF104991999999999999999999MA1102001999999REMMET051METAR EDJA 140950Z 25009KT 9999 SCT024 09/06 Q1020;
0120109470999992011011410204+47983+010233FM-15+0629EDJA V0202501N007712200019N0112651N1+01001+00701999999ADDGA1041+007801999GF104991999999999999999999MA1102001999999REMMET051METAR EDJA 141020Z 25015KT 9999 SCT026 10/07 Q1020;
0120109470999992011011410504+47983+010233FM-15+0629EDJA V0202401N007712200019N0112651N1+01001+00601999999ADDGA1021+007801999GF102991999999999999999999MA1102001999999REMMET051METAR EDJA 141050Z 24015KT 9999 FEW026 10/06 Q1020;
0120109470999992011011411204+47983+010233FM-15+0629EDJA V0202501N008712200019N0112651N1+01001+00501999999ADDGA1041+008401999GF104991999999999999999999MA1101901999999REMMET051METAR EDJA 141120Z 25017KT 9999 SCT028 10/05 Q1019;
0120109470999992011011411504+47983+010233FM-15+0629EDJA V0202601N008210090019N0112651N1+00901+00601999999ADDGA1071+009001999GF107991999999999999999999MA1101901999999REMMET051METAR EDJA 141150Z 26016KT 9999 BKN030 09/06 Q1019;
0120109470999992011011412204+47983+010233FM-15+0629EDJA V0202601N006710054019N0112651N1+00901+00601999999ADDGA1071+005401999GF107991999999999999999999MA1101901999999REMMET051METAR EDJA 141220Z 26013KT 9999 BKN018 09/06 Q1019;
0120109470999992011011412504+47983+010233FM-15+0629EDJA V0202601N007210066019N0112651N1+00901+00501999999ADDGA1071+006601999GF107991999999999999999999MA1101901999999REMMET051METAR EDJA 141250Z 26014KT 9999 BKN022 09/05 Q1019;
0120109470999992011011413204+47983+010233FM-15+0629EDJA V0202501N007210060019N0112651N1+00901+00501999999ADDGA1071+006001999GF107991999999999999999999MA1101901999999REMMET051METAR EDJA 141320Z 25014KT 9999 BKN020 09/05 Q1019;
0120109470999992011011413504+47983+010233FM-15+0629EDJA V0202601N006710066019N0112651N1+00901+00501999999ADDGA1071+006601999GF107991999999999999999999MA1101901999999REMMET051METAR EDJA 141350Z 26013KT 9999 BKN022 09/05 Q1019;
0120109470999992011011414204+47983+010233FM-15+0629EDJA V0202401N005710084019N0112651N1+00901+00501999999ADDGA1071+008401999GF107991999999999999999999MA1101901999999REMMET051METAR EDJA 141420Z 24011KT 9999 BKN028 09/05 Q1019;
0120109470999992011011414504+47983+010233FM-15+0629EDJA V0202401N005110087019N0112651N1+00801+00501999999ADDGA1071+008701999GF107991999999999999999999MA1101901999999REMMET051METAR EDJA 141450Z 24010KT 9999 BKN029 08/05 Q1019;
0120109470999992011011415204+47983+010233FM-15+0629EDJA V0202401N004610087019N0112651N1+00801+00501999999ADDGA1071+008701999GF107991999999999999999999MA1101901999999REMMET051METAR EDJA 141520Z 24009KT 9999 BKN029 08/05 Q1019;
0120109470999992011011415504+47983+010233FM-15+0629EDJA V0202401N003610084019N0112651N1+00801+00501999999ADDGA1071+008401999GF107991999999999999999999MA1101901999999REMMET051METAR EDJA 141550Z 24007KT 9999 BKN028 08/05 Q1019;
0120109470999992011011416204+47983+010233FM-15+0629EDJA V0202401N003110093019N0112651N1+00801+00501999999ADDGA1071+009301999GF107991999999999999999999MA1101901999999REMMET051METAR EDJA 141620Z 24006KT 9999 BKN031 08/05 Q1019;
0120109470999992011011416504+47983+010233FM-15+0629EDJA V0202401N004110087019N0112651N1+00801+00401999999ADDGA1071+008701999GF107991999999999999999999MA1101901999999REMMET051METAR EDJA 141650Z 24008KT 9999 BKN029 08/04 Q1019;
0120109470999992011011417204+47983+010233FM-15+0629EDJA V0202401N005110084019N0112651N1+00801+00401999999ADDGA1071+008401999GF107991999999999999999999MA1101901999999REMMET051METAR EDJA 141720Z 24010KT 9999 BKN028 08/04 Q1019;
0120109470999992011011417504+47983+010233FM-15+0629EDJA V0202201N003110087019N0112651N1+00701+00501999999ADDGA1071+008701999GF107991999999999999999999MA1101901999999REMMET051METAR EDJA 141750Z 22006KT 9999 BKN029 07/05 Q1019;
0120109470999992011011418204+47983+010233FM-15+0629EDJA V0202201N003110087019N0112651N1+00701+00501999999ADDGA1071+008701999GF107991999999999999999999MA1101801999999REMMET051METAR EDJA 141820Z 22006KT 9999 BKN029 07/05 Q1018;
0120109470999992011011418504+47983+010233FM-15+0629EDJA V0202301N003612200019N0112651N1+00601+00401999999ADDGA1041+007801999GF104991999999999999999999MA1101801999999REMMET051METAR EDJA 141850Z 23007KT 9999 SCT026 06/04 Q1018;
0120109470999992011011419204+47983+010233FM-15+0629EDJA V0202201N003112200019N0112651N1+00501+00401999999ADDGA1041+008701999GF104991999999999999999999MA1101801999999REMMET051METAR EDJA 141920Z 22006KT 9999 SCT029 05/04 Q1018;
0120109470999992011011419504+47983+010233FM-15+0629EDJA V0202101N003610075019N0112651N1+00501+00401999999ADDGA1071+007501999GF107991999999999999999999MA1101801999999REMMET051METAR EDJA 141950Z 21007KT 9999 BKN025 05/04 Q1018;
0120109470999992011011420204+47983+010233FM-15+0629EDJA V0202101N003610075019N0112651N1+00501+00401999999ADDGA1071+007501999GF107991999999999999999999MA1101801999999REMMET051METAR EDJA 142020Z 21007KT 9999 BKN025 05/04 Q1018;
0120109470999992011011420504+47983+010233FM-15+0629EDJA V0202001N003110075019N0112651N1+00501+00401999999ADDGA1071+007501999GF107991999999999999999999MA1101801999999REMMET051METAR EDJA 142050Z 20006KT 9999 BKN025 05/04 Q1018;
0153109470999992011011504504+47983+010233FM-15+0629EDJA V0202801N005710036019N0060001N1+00501+00401999999ADDGA1021+001501999GA2071+003601999GF107991999999999999999999MA1102301999999MW1611REMMET062METAR EDJA 150450Z 28011KT 6000 -RA FEW005 BKN012 05/04 Q1023;
0143109470999992011011505204+47983+010233FM-15+0629EDJA V0202501N005110090019N0112651N1+00601+00401999999ADDGA1041+004501999GA2071+009001999GF107991999999999999999999MA1102401999999REMMET058METAR EDJA 150520Z 25010KT 9999 SCT015 BKN030 06/04 Q1024;
0143109470999992011011505504+47983+010233FM-15+0629EDJA V0202301N004110090019N0112651N1+00601+00401999999ADDGA1021+003001999GA2071+009001999GF107991999999999999999999MA1102401999999REMMET058METAR EDJA 150550Z 23008KT 9999 FEW010 BKN030 06/04 Q1024;
0130109470999992011011506204+47983+010233FM-15+0629EDJA V0202501N005110075019N0112651N1+00601+00401999999ADDGA1071+007501999GF107991999999999999999999MA1102511999999MW1611REMMET055METAR EDJA 150620Z 25010KT 9999 -RA BKN025 06/04 Q1025;
0130109470999992011011506504+47983+010233FM-15+0629EDJA V0202401N005712200019N0112651N1+00601+00401999999ADDGA1041+003901999GF104991999999999999999999MA1102611999999MW1611REMMET055METAR EDJA 150650Z 24011KT 9999 -RA SCT013 06/04 Q1026;
0143109470999992011011507204+47983+010233FM-15+0629EDJA V0202301N005710045019N0112651N1+00501+00401999999ADDGA1041+003001999GA2071+004501999GF107991999999999999999999MA1102611999999REMMET058METAR EDJA 150720Z 23011KT 9999 SCT010 BKN015 05/04 Q1026;
