0072109470999992007082015504+47983+010233FM-15+0644EDJA V0202101N00101220001CN0099001N1+01401+01201999999ADDMA1100811999999REMMET045METAR EDJA 201550Z 21002KT CAVOK 14/12 Q1008;
0072109470999992007082016204+47983+010233FM-15+0644EDJA V0202401N00211220001CN0099001N1+01401+01201999999ADDMA1100811999999REMMET045METAR EDJA 201620Z 24004KT CAVOK 14/12 Q1008;
0143109470999992007082017504+47983+010233FM-15+0644EDJA V0202801N001512200019N0112651N1+01401+01201999999ADDGA1021+005401999GA2041+009901999GF104991999999999999999999MA1100711999999REMMET058METAR EDJA 201750Z 28003KT 9999 FEW018 SCT033 14/12 Q1007;
0120109470999992007082018504+47983+010233FM-15+0644EDJA V0202601N001012200019N0090001N1+01301+01201999999ADDGA1041+003001999GF104991999999999999999999MA1100711999999REMMET051METAR EDJA 201850Z 26002KT 9000 SCT010 13/12 Q1007;
0072109470999992007082019504+47983+010233FM-15+0644EDJA V0203101N00101220001CN0099001N1+01301+01201999999ADDMA1100711999999REMMET045METAR EDJA 201950Z 31002KT CAVOK 13/12 Q1007;
0137109470999992007082103504+47983+010233FM-15+0644EDJA V0200201N002110012019N0050001N1+01201+01201999999ADDGA1071+001201999GF107991999999999999999999MA1100511999999MW1101REMMET062METAR EDJA 210350Z 02004KT 350V070 5000 BR BKN004 12/12 Q1005;
0129109470999992007082104204+47983+010233FM-15+0644EDJA V0200201N002110015019N0040001N1+01201+01201999999ADDGA1071+001501999GF107991999999999999999999MA1100511999999MW1101REMMET054METAR EDJA 210420Z 02004KT 4000 BR BKN005 12/12 Q1005;
0129109470999992007082104504+47983+010233FM-15+0644EDJA V0200601N001510012019N0040001N1+01201+01201999999ADDGA1071+001201999GF107991999999999999999999MA1100511999999MW1101REMMET054METAR EDJA 210450Z 06003KT 4000 BR BKN004 12/12 Q1005;
0129109470999992007082105204+47983+010233FM-15+0644EDJA V0209999C000010012019N0050001N1+01201+01201999999ADDGA1071+001201999GF107991999999999999999999MA1100511999999MW1101REMMET054METAR EDJA 210520Z 00000KT 5000 BR BKN004 12/12 Q1005;
0120109470999992007082105504+47983+010233FM-15+0644EDJA V0209999V001010018019N0080001N1+01301+01201999999ADDGA1071+001801999GF107991999999999999999999MA1100511999999REMMET051METAR EDJA 210550Z VRB02KT 8000 BKN006 13/12 Q1005;
0120109470999992007082106504+47983+010233FM-15+0644EDJA V0209999V000510039019N0112651N1+01301+01201999999ADDGA1071+003901999GF107991999999999999999999MA1100511999999REMMET051METAR EDJA 210650Z VRB01KT 9999 BKN013 13/12 Q1005;
0143109470999992007082107504+47983+010233FM-15+0644EDJA V0209999V001510051019N0112651N1+01401+01201999999ADDGA1041+003601999GA2071+005101999GF107991999999999999999999MA1100511999999REMMET058METAR EDJA 210750Z VRB03KT 9999 SCT012 BKN017 14/12 Q1005;
0143109470999992007082108504+47983+010233FM-15+0644EDJA V0209999V001512200019N0112651N1+01501+01201999999ADDGA1021+004501999GA2041+006901999GF104991999999999999999999MA1100611999999REMMET058METAR EDJA 210850Z VRB03KT 9999 FEW015 SCT023 15/12 Q1006;
0128109470999992007082109504+47983+010233FM-15+0644EDJA V0200401N002112200019N0112651N1+01701+01201999999ADDGA1041+008701999GF104991999999999999999999MA1100511999999REMMET059METAR EDJA 210950Z 04004KT 350V100 9999 SCT029 17/12 Q1005;
0128109470999992007082110504+47983+010233FM-15+0644EDJA V0200501N002112200019N0112651N1+01901+01201999999ADDGA1041+008701999GF104991999999999999999999MA1100511999999REMMET059METAR EDJA 211050Z 05004KT 350V110 9999 SCT029 19/12 Q1005;
0128109470999992007082111504+47983+010233FM-15+0644EDJA V0200201N003610093019N0112651N1+01601+01301999999ADDGA1071+009301999GF107991999999999999999999MA1100611999999REMMET059METAR EDJA 211150Z 02007KT 330V050 9999 BKN031 16/13 Q1006;
0143109470999992007082112504+47983+010233FM-15+0644EDJA V0203601N003610090019N0112651N1+01701+01301999999ADDGA1021+005401999GA2071+009001999GF107991999999999999999999MA1100611999999REMMET058METAR EDJA 211250Z 36007KT 9999 FEW018 BKN030 17/13 Q1006;
0151109470999992007082113504+47983+010233FM-15+0644EDJA V0203501N002110144019N0112651N1+01701+01301999999ADDGA1021+009001999GA2071+014401999GF107991999999999999999999MA1100711999999REMMET066METAR EDJA 211350Z 35004KT 330V030 9999 FEW030 BKN048 17/13 Q1007;
0129109470999992007082114504+47983+010233FM-15+0644EDJA V0202901N004110048019N0050001N1+01501+01301999999ADDGA1071+004801999GF107991999999999999999999MA1100711999999MW1631REMMET054METAR EDJA 211450Z 29008KT 5000 RA BKN016 15/13 Q1007;
0151109470999992007082115504+47983+010233FM-15+0644EDJA V0200501N002610270019N0112651N1+01501+01401999999ADDGA1021+005401999GA2071+027001999GF107991999999999999999999MA1100711999999REMMET066METAR EDJA 211550Z 05005KT 360V110 9999 FEW018 BKN090 15/14 Q1007;
0120109470999992007082116504+47983+010233FM-15+0644EDJA V0209999V000512200019N0112651N1+01601+01201999999ADDGA1021+005401999GF102991999999999999999999MA1100711999999REMMET051METAR EDJA 211650Z VRB01KT 9999 FEW018 16/12 Q1007;
0072109470999992007082117504+47983+010233FM-15+0644EDJA V0209999V00101220001CN0099001N1+01401+01301999999ADDMA1100711999999REMMET045METAR EDJA 211750Z VRB02KT CAVOK 14/13 Q1007;
0120109470999992007082118504+47983+010233FM-15+0644EDJA V0209999V000512200019N0112651N1+01301+01201999999ADDGA1021+013501999GF102991999999999999999999MA1100811999999REMMET051METAR EDJA 211850Z VRB01KT 9999 FEW045 13/12 Q1008;
0072109470999992007082119504+47983+010233FM-15+0644EDJA V0209999V00101220001CN0099001N1+01301+01301999999ADDMA1100811999999REMMET045METAR EDJA 211950Z VRB02KT CAVOK 13/13 Q1008;
0120109470999992007082203504+47983+010233FM-15+0644EDJA V0202301N003112200019N0090001N1+01201+01101999999ADDGA1041+014401999GF104991999999999999999999MA1100911999999REMMET051METAR EDJA 220350Z 23006KT 9000 SCT048 12/11 Q1009;
0120109470999992007082204504+47983+010233FM-15+0644EDJA V0202401N003612200019N0112651N1+01201+01101999999ADDGA1041+015001999GF104991999999999999999999MA1101021999999REMMET051METAR EDJA 220450Z 24007KT 9999 SCT054 12/11 Q1010;
0120109470999992007082205504+47983+010233FM-15+0644EDJA V0202401N003612200019N0090001N1+01201+01101999999ADDGA1041+015001999GF104991999999999999999999MA1101021999999REMMET051METAR EDJA 220550Z 24007KT 9000 SCT053 12/11 Q1010;
0120109470999992007082206204+47983+010233FM-15+0644EDJA V0202201N003112200019N0112651N1+01301+01201999999ADDGA1041+015001999GF104991999999999999999999MA1101021999999REMMET051METAR EDJA 220620Z 22006KT 9999 SCT053 13/12 Q1010;
0120109470999992007082206504+47983+010233FM-15+0644EDJA V0202301N003612200019N0112651N1+01301+01201999999ADDGA1021+003901999GF102991999999999999999999MA1101021999999REMMET051METAR EDJA 220650Z 23007KT 9999 FEW013 13/12 Q1010;
0072109470999992007082207204+47983+010233FM-15+0644EDJA V0202001N00461220001CN0099001N1+01501+01201999999ADDMA1101021999999REMMET045METAR EDJA 220720Z 20009KT CAVOK 15/12 Q1010;
0120109470999992007082207504+47983+010233FM-15+0644EDJA V0202101N003612200019N0112651N1+01601+01201999999ADDGA1021+005401999GF102991999999999999999999MA1101081999999REMMET051METAR EDJA 220750Z 21007KT 9999 FEW018 16/12 Q1011;
0072109470999992007082208204+47983+010233FM-15+0644EDJA V0202301N00411220001CN0099001N1+01501+01101999999ADDMA1101081999999REMMET045METAR EDJA 220820Z 23008KT CAVOK 15/11 Q1011;
0128109470999992007082208504+47983+010233FM-15+0644EDJA V0202501N003112200019N0112651N1+01601+01201999999ADDGA1041+006901999GF104991999999999999999999MA1101081999999REMMET059METAR EDJA 220850Z 25006KT 210V280 9999 SCT023 16/12 Q1011;
0128109470999992007082209204+47983+010233FM-15+0644EDJA V0202301N003112200019N0112651N1+01701+01101999999ADDGA1041+007801999GF104991999999999999999999MA1101081999999REMMET059METAR EDJA 220920Z 23006KT 180V270 9999 SCT026 17/11 Q1011;
0128109470999992007082209504+47983+010233FM-15+0644EDJA V0202801N003112200019N0112651N1+01701+01101999999ADDGA1041+008401999GF104991999999999999999999MA1101081999999REMMET059METAR EDJA 220950Z 28006KT 250V320 9999 SCT028 17/11 Q1011;
0143109470999992007082210204+47983+010233FM-15+0644EDJA V0209999V001512200019N0112651N1+01701+01001999999ADDGA1041+008701999GA2041+012601999GF104991999999999999999999MA1101081999999REMMET058METAR EDJA 221020Z VRB03KT 9999 SCT029 SCT042 17/10 Q1011;
0080109470999992007082210504+47983+010233FM-15+0644EDJA V0202701N00311220001CN0099001N1+01801+01101999999ADDMA1101081999999REMMET053METAR EDJA 221050Z 27006KT 220V320 CAVOK 18/11 Q1011;
0080109470999992007082211504+47983+010233FM-15+0644EDJA V0203101N00211220001CN0099001N1+01901+01001999999ADDMA1101081999999REMMET053METAR EDJA 221150Z 31004KT 240V030 CAVOK 19/10 Q1011;
0120109470999992007082212204+47983+010233FM-15+0644EDJA V0209999V001012200019N0112651N1+02001+01101999999ADDGA1021+010801999GF102991999999999999999999MA1101081999999REMMET051METAR EDJA 221220Z VRB02KT 9999 FEW036 20/11 Q1011;
0120109470999992007082212504+47983+010233FM-15+0644EDJA V0209999V000512200019N0112651N1+02101+01101999999ADDGA1021+011401999GF102991999999999999999999MA1101081999999REMMET051METAR EDJA 221250Z VRB01KT 9999 FEW038 21/11 Q1011;
0120109470999992007082213504+47983+010233FM-15+0644EDJA V0202901N002612200019N0112651N1+02001+01101999999ADDGA1021+011101999GF102991999999999999999999MA1101081999999REMMET051METAR EDJA 221350Z 29005KT 9999 FEW037 20/11 Q1011;
0120109470999992007082214204+47983+010233FM-15+0644EDJA V0209999V001512200019N0112651N1+02001+01101999999ADDGA1041+011101999GF104991999999999999999999MA1101081999999REMMET051METAR EDJA 221420Z VRB03KT 9999 SCT037 20/11 Q1011;
0072109470999992007082214504+47983+010233FM-15+0644EDJA V0209999V00101220001CN0099001N1+02001+01101999999ADDMA1101081999999REMMET045METAR EDJA 221450Z VRB02KT CAVOK 20/11 Q1011;
0120109470999992007082215204+47983+010233FM-15+0644EDJA V0209999V001512200019N0112651N1+02001+01201999999ADDGA1021+011701999GF102991999999999999999999MA1101081999999REMMET051METAR EDJA 221520Z VRB03KT 9999 FEW039 20/12 Q1011;
0120109470999992007082215504+47983+010233FM-15+0644EDJA V0209999V001512200019N0112651N1+02001+01201999999ADDGA1021+012301999GF102991999999999999999999MA1101081999999REMMET051METAR EDJA 221550Z VRB03KT 9999 FEW041 20/12 Q1011;
0120109470999992007082216504+47983+010233FM-15+0644EDJA V0209999V001012200019N0112651N1+02001+01201999999ADDGA1021+012001999GF102991999999999999999999MA1101081999999REMMET051METAR EDJA 221650Z VRB02KT 9999 FEW040 20/12 Q1011;
0120109470999992007082218204+47983+010233FM-15+0644EDJA V0200301N001012200019N0112651N1+01701+01501999999ADDGA1041+011401999GF104991999999999999999999MA1101191999999REMMET051METAR EDJA 221820Z 03002KT 9999 SCT038 17/15 Q1012;
0120109470999992007082218504+47983+010233FM-15+0644EDJA V0200501N001010138019N0112651N1+01601+01401999999ADDGA1071+013801999GF107991999999999999999999MA1101191999999REMMET051METAR EDJA 221850Z 05002KT 9999 BKN046 16/14 Q1012;
0140109470999992007082219504+47983+010233FM-15+0644EDJA V0202901N004110114019N0050001N1+01601+01401999999ADDGA1071+011401999GF107991999999999999999999MA1101191999999MW1171MW2631REMMET059METAR EDJA 221950Z 29008KT 5000 RA VCTS BKN038 16/14 Q1012;
0131109470999992007082303504+47983+010233FM-15+0644EDJA V0202701N003110063019N0080001N1+01401+01301999999ADDGA1071+006301091GF107991999999999999999999MA1101291999999MW1171REMMET056METAR EDJA 230350Z 27006KT 8000 TS BKN021CB 14/13 Q1013;
0143109470999992007082304504+47983+010233FM-15+0644EDJA V0202701N003610144019N0080001N1+01301+01301999999ADDGA1041+001501999GA2071+014401999GF107991999999999999999999MA1101391999999REMMET058METAR EDJA 230450Z 27007KT 8000 SCT005 BKN048 13/13 Q1014;
0128109470999992007082305504+47983+010233FM-15+0644EDJA V0203201N002112200019N0112651N1+01301+01201999999ADDGA1041+001801999GF104991999999999999999999MA1101491999999REMMET059METAR EDJA 230550Z 32004KT 280V350 9999 SCT006 13/12 Q1015;
0120109470999992007082306204+47983+010233FM-15+0644EDJA V0209999V001512200019N0112651N1+01301+01201999999ADDGA1041+002701999GF104991999999999999999999MA1101491999999REMMET051METAR EDJA 230620Z VRB03KT 9999 SCT009 13/12 Q1015;
0120109470999992007082306504+47983+010233FM-15+0644EDJA V0209999V001012200019N0112651N1+01501+01301999999ADDGA1041+002701999GF104991999999999999999999MA1101491999999REMMET051METAR EDJA 230650Z VRB02KT 9999 SCT009 15/13 Q1015;
0120109470999992007082307504+47983+010233FM-15+0644EDJA V0209999V001512200019N0112651N1+01701+01201999999ADDGA1021+003901999GF102991999999999999999999MA1101491999999REMMET051METAR EDJA 230750Z VRB03KT 9999 FEW013 17/12 Q1015;
0120109470999992007082308204+47983+010233FM-15+0644EDJA V0209999V001012200019N0112651N1+01801+01301999999ADDGA1021+005401999GF102991999999999999999999MA1101491999999REMMET051METAR EDJA 230820Z VRB02KT 9999 FEW018 18/13 Q1015;
0120109470999992007082308504+47983+010233FM-15+0644EDJA V0202501N002112200019N0112651N1+01701+01101999999ADDGA1021+005401999GF102991999999999999999999MA1101591999999REMMET051METAR EDJA 230850Z 25004KT 9999 FEW018 17/11 Q1016;
0120109470999992007082309204+47983+010233FM-15+0644EDJA V0202601N003112200019N0112651N1+01801+01301999999ADDGA1021+006001999GF102991999999999999999999MA1101591999999REMMET051METAR EDJA 230920Z 26006KT 9999 FEW020 18/13 Q1016;
0120109470999992007082309504+47983+010233FM-15+0644EDJA V0209999V001012200019N0112651N1+02001+01201999999ADDGA1021+009001999GF102991999999999999999999MA1101591999999REMMET051METAR EDJA 230950Z VRB02KT 9999 FEW030 20/12 Q1016;
0120109470999992007082310504+47983+010233FM-15+0644EDJA V0209999V002112200019N0112651N1+02001+01301999999ADDGA1021+009001999GF102991999999999999999999MA1101491999999REMMET051METAR EDJA 231050Z VRB04KT 9999 FEW030 20/13 Q1015;
0120109470999992007082311504+47983+010233FM-15+0644EDJA V0201101N002112200019N0112651N1+02001+01301999999ADDGA1021+009601999GF102991999999999999999999MA1101491999999REMMET051METAR EDJA 231150Z 11004KT 9999 FEW032 20/13 Q1015;
0120109470999992007082312504+47983+010233FM-15+0644EDJA V0209999V001012200019N0112651N1+02101+01301999999ADDGA1021+012301999GF102991999999999999999999MA1101491999999REMMET051METAR EDJA 231250Z VRB02KT 9999 FEW041 21/13 Q1015;
0120109470999992007082313204+47983+010233FM-15+0644EDJA V0209999V001512200019N0112651N1+02101+01201999999ADDGA1021+012601999GF102991999999999999999999MA1101591999999REMMET051METAR EDJA 231320Z VRB03KT 9999 FEW042 21/12 Q1016;
0120109470999992007082313504+47983+010233FM-15+0644EDJA V0203601N002112200019N0112651N1+02101+01401999999ADDGA1021+012901999GF102991999999999999999999MA1101591999999REMMET051METAR EDJA 231350Z 36004KT 9999 FEW043 21/14 Q1016;
0120109470999992007082314204+47983+010233FM-15+0644EDJA V0203601N002112200019N0112651N1+02001+01201999999ADDGA1021+014401999GF102991999999999999999999MA1101591999999REMMET051METAR EDJA 231420Z 36004KT 9999 FEW048 20/12 Q1016;
0072109470999992007082314504+47983+010233FM-15+0644EDJA V0200101N00261220001CN0099001N1+02001+01401999999ADDMA1101491999999REMMET045METAR EDJA 231450Z 01005KT CAVOK 20/14 Q1015;
0072109470999992007082316204+47983+010233FM-15+0644EDJA V0200901N00261220001CN0099001N1+02001+01401999999ADDMA1101591999999REMMET045METAR EDJA 231620Z 09005KT CAVOK 20/14 Q1016;
0072109470999992007082317204+47983+010233FM-15+0644EDJA V0201401N00211220001CN0099001N1+01901+01401999999ADDMA1101691999999REMMET045METAR EDJA 231720Z 14004KT CAVOK 19/14 Q1017;
0072109470999992007082317504+47983+010233FM-15+0644EDJA V0201501N00101220001CN0099001N1+01801+01401999999ADDMA1101691999999REMMET045METAR EDJA 231750Z 15002KT CAVOK 18/14 Q1017;
0072109470999992007082318204+47983+010233FM-15+0629EDJA V0200201N00101220001CN0099001N1+01601+01401999999ADDMA1101691999999REMMET045METAR EDJA 231820Z 02002KT CAVOK 16/14 Q1017;
0072109470999992007082318504+47983+010233FM-15+0629EDJA V0201101N00101220001CN0099001N1+01501+01401999999ADDMA1101801999999REMMET045METAR EDJA 231850Z 11002KT CAVOK 15/14 Q1018;
0072109470999992007082319204+47983+010233FM-15+0629EDJA V0209999C00001220001CN0099001N1+01501+01401999999ADDMA1101801999999REMMET045METAR EDJA 231920Z 00000KT CAVOK 15/14 Q1018;
0072109470999992007082403504+47983+010233FM-15+0629EDJA V0201901N00101220001CN0099001N1+00901+00901999999ADDMA1102201999999REMMET045METAR EDJA 240350Z 19002KT CAVOK 09/09 Q1022;
0072109470999992007082404504+47983+010233FM-15+0629EDJA V0202001N00101220001CN0099001N1+01001+00901999999ADDMA1102201999999REMMET045METAR EDJA 240450Z 20002KT CAVOK 10/09 Q1022;
0072109470999992007082405504+47983+010233FM-15+0629EDJA V0209999C00001220001CN0099001N1+01201+01201999999ADDMA1102301999999REMMET045METAR EDJA 240550Z 00000KT CAVOK 12/12 Q1023;
0070109470999992007082406504+47983+010233FM-15+0629EDJA V0209999V00051220001CN0099001N1+01601+01301999999ADDMA1102301999999REMMET043METAR EDJA 240650Z VRB01 CAVOK 16/13 Q1023;
0072109470999992007082407504+47983+010233FM-15+0629EDJA V0209999V00151220001CN0099001N1+01701+01301999999ADDMA1102401999999REMMET045METAR EDJA 240750Z VRB03KT CAVOK 17/13 Q1024;
0072109470999992007082408504+47983+010233FM-15+0629EDJA V0200201N00211220001CN0099001N1+01901+01501999999ADDMA1102511999999REMMET045METAR EDJA 240850Z 02004KT CAVOK 19/15 Q1025;
0080109470999992007082409504+47983+010233FM-15+0629EDJA V0200701N00261220001CN0099001N1+02101+01401999999ADDMA1102401999999REMMET053METAR EDJA 240950Z 07005KT 010V120 CAVOK 21/14 Q1024;
0120109470999992007082410504+47983+010233FM-15+0629EDJA V0200501N004112200019N0112651N1+02101+01401999999ADDGA1021+009001999GF102991999999999999999999MA1102401999999REMMET051METAR EDJA 241050Z 05008KT 9999 FEW030 21/14 Q1024;
0128109470999992007082411504+47983+010233FM-15+0629EDJA V0200601N003612200019N0112651N1+02201+01301999999ADDGA1021+011701999GF102991999999999999999999MA1102511999999REMMET059METAR EDJA 241150Z 06007KT 020V100 9999 FEW039 22/13 Q1025;
0080109470999992007082412504+47983+010233FM-15+0629EDJA V0200901N00411220001CN0099001N1+02301+01301999999ADDMA1102401999999REMMET053METAR EDJA 241250Z 09008KT 040V130 CAVOK 23/13 Q1024;
0082109470999992007082414504+47983+010233FM-15+0629EDJA V0200501N003712200019N9999999N1+02301+01301999999ADDMA1102401999999REMMET055METAR EDJA 241450Z 05007KT 020V080 FEW048 23/13 Q1024/;
0072109470999992007082416504+47983+010233FM-15+0629EDJA V0200701N00261220001CN0099001N1+02101+01401999999ADDMA1102401999999REMMET045METAR EDJA 241650Z 07005KT CAVOK 21/14 Q1024;
0072109470999992007082417504+47983+010233FM-15+0629EDJA V0200601N00261220001CN0099001N1+02001+01401999999ADDMA1102511999999REMMET045METAR EDJA 241750Z 06005KT CAVOK 20/14 Q1025;
0072109470999992007082418504+47983+010233FM-15+0629EDJA V0200501N00151220001CN0099001N1+01701+01401999999ADDMA1102611999999REMMET045METAR EDJA 241850Z 05003KT CAVOK 17/14 Q1026;
0072109470999992007082503504+47983+010233FM-15+0629EDJA V0209999V00101220001CN0099001N1+01001+01001999999ADDMA1102811999999REMMET045METAR EDJA 250350Z VRB02KT CAVOK 10/10 Q1028;
0072109470999992007082504504+47983+010233FM-15+0629EDJA V0209999V00151220001CN0099001N1+01001+01001999999ADDMA1102811999999REMMET045METAR EDJA 250450Z VRB03KT CAVOK 10/10 Q1028;
0072109470999992007082505504+47983+010233FM-15+0629EDJA V0209999V00151220001CN0099001N1+01201+01201999999ADDMA1102811999999REMMET045METAR EDJA 250550Z VRB03KT CAVOK 12/12 Q1028;
0072109470999992007082506504+47983+010233FM-15+0629EDJA V0209999V00151220001CN0099001N1+01701+01401999999ADDMA1102911999999REMMET045METAR EDJA 250650Z VRB03KT CAVOK 17/14 Q1029;
0072109470999992007082507504+47983+010233FM-15+0629EDJA V0209999V00051220001CN0099001N1+01901+01401999999ADDMA1102911999999REMMET045METAR EDJA 250750Z VRB01KT CAVOK 19/14 Q1029;
0072109470999992007082508504+47983+010233FM-15+0629EDJA V0209999V00101220001CN0099001N1+02101+01401999999ADDMA1102911999999REMMET045METAR EDJA 250850Z VRB02KT CAVOK 21/14 Q1029;
0072109470999992007082509504+47983+010233FM-15+0629EDJA V0209999V00211220001CN0099001N1+02201+01401999999ADDMA1102911999999REMMET045METAR EDJA 250950Z VRB04KT CAVOK 22/14 Q1029;
0080109470999992007082510504+47983+010233FM-15+0629EDJA V0200301N00261220001CN0099001N1+02301+01501999999ADDMA1103011999999REMMET053METAR EDJA 251050Z 03005KT 350V070 CAVOK 23/15 Q1030;
0080109470999992007082511204+47983+010233FM-15+0629EDJA V0200201N00261220001CN0099001N1+02301+01401999999ADDMA1102911999999REMMET053METAR EDJA 251120Z 02005KT 330V060 CAVOK 23/14 Q1029;
0072109470999992007082512204+47983+010233FM-15+0629EDJA V0209999V00151220001CN0099001N1+02501+01501999999ADDMA1102911999999REMMET045METAR EDJA 251220Z VRB03KT CAVOK 25/15 Q1029;
0080109470999992007082513204+47983+010233FM-15+0629EDJA V0203601N00211220001CN0099001N1+02501+01401999999ADDMA1102911999999REMMET053METAR EDJA 251320Z 36004KT 260V060 CAVOK 25/14 Q1029;
0072109470999992007082513504+47983+010233FM-15+0629EDJA V0209999V00151220001CN0099001N1+02501+01401999999ADDMA1102911999999REMMET045METAR EDJA 251350Z VRB03KT CAVOK 25/14 Q1029;
0072109470999992007082514204+47983+010233FM-15+0629EDJA V0209999V00101220001CN0099001N1+02501+01401999999ADDMA1102911999999REMMET045METAR EDJA 251420Z VRB02KT CAVOK 25/14 Q1029;
0072109470999992007082515204+47983+010233FM-15+0629EDJA V0209999V00101220001CN0099001N1+02501+01301999999ADDMA1102911999999REMMET045METAR EDJA 251520Z VRB02KT CAVOK 25/13 Q1029;
0072109470999992007082515504+47983+010233FM-15+0629EDJA V0200201N00151220001CN0099001N1+02501+01201999999ADDMA1102911999999REMMET045METAR EDJA 251550Z 02003KT CAVOK 25/12 Q1029;
0072109470999992007082516204+47983+010233FM-15+0629EDJA V0209999V00151220001CN0099001N1+02501+01201999999ADDMA1102911999999REMMET045METAR EDJA 251620Z VRB03KT CAVOK 25/12 Q1029;
0072109470999992007082517204+47983+010233FM-15+0629EDJA V0200301N00211220001CN0099001N1+02401+01401999999ADDMA1102811999999REMMET045METAR EDJA 251720Z 03004KT CAVOK 24/14 Q1028;
0072109470999992007082518504+47983+010233FM-15+0629EDJA V0200901N00101220001CN0099001N1+01701+01501999999ADDMA1102911999999REMMET045METAR EDJA 251850Z 09002KT CAVOK 17/15 Q1029;
0072109470999992007082519504+47983+010233FM-15+0629EDJA V0209999V00051220001CN0099001N1+01601+01501999999ADDMA1102911999999REMMET045METAR EDJA 251950Z VRB01KT CAVOK 16/15 Q1029;
0074109470999992007082603204+47983+010233FM-15+0629EDJA V0201901N00151220001CN0099001N1+01101+01101999999ADDMA1102801999999REMMET047METAR EDJA 260320Z 19003KT CAVOK12 11/11 Q1028;
0072109470999992007082604204+47983+010233FM-15+0629EDJA V0201901N00101220001CN0099001N1+01101+01101999999ADDMA1102811999999REMMET045METAR EDJA 260420Z 19002KT CAVOK 11/11 Q1028;
0072109470999992007082604504+47983+010233FM-15+0629EDJA V0209999V00101220001CN0099001N1+01101+01101999999ADDMA1102811999999REMMET045METAR EDJA 260450Z VRB02KT CAVOK 11/11 Q1028;
0072109470999992007082605204+47983+010233FM-15+0629EDJA V0201901N00211220001CN0099001N1+01201+01201999999ADDMA1102811999999REMMET045METAR EDJA 260520Z 19004KT CAVOK 12/12 Q1028;
0072109470999992007082605504+47983+010233FM-15+0629EDJA V0209999V00151220001CN0099001N1+01401+01301999999ADDMA1102811999999REMMET045METAR EDJA 260550Z VRB03KT CAVOK 14/13 Q1028;
0072109470999992007082606504+47983+010233FM-15+0629EDJA V0209999V00151220001CN0099001N1+01801+01501999999ADDMA1102811999999REMMET045METAR EDJA 260650Z VRB03KT CAVOK 18/15 Q1028;
0080109470999992007082607504+47983+010233FM-15+0629EDJA V0202201N00261220001CN0099001N1+02001+01501999999ADDMA1102811999999REMMET053METAR EDJA 260750Z 22005KT 180V260 CAVOK 20/15 Q1028;
0072109470999992007082608504+47983+010233FM-15+0629EDJA V0202501N00311220001CN0099001N1+02201+01401999999ADDMA1102811999999REMMET045METAR EDJA 260850Z 25006KT CAVOK 22/14 Q1028;
0080109470999992007082609504+47983+010233FM-15+0629EDJA V0202601N00211220001CN0099001N1+02301+01601999999ADDMA1102811999999REMMET053METAR EDJA 260950Z 26004KT 220V340 CAVOK 23/16 Q1028;
0128109470999992007082610504+47983+010233FM-15+0629EDJA V0202801N003112200019N0112651N1+02401+01401999999ADDGA1021+012001999GF102991999999999999999999MA1102811999999REMMET059METAR EDJA 261050Z 28006KT 250V310 9999 FEW040 24/14 Q1028;
0128109470999992007082611204+47983+010233FM-15+0629EDJA V0202401N002612200019N0112651N1+02601+01401999999ADDGA1021+012001999GF102991999999999999999999MA1102711999999REMMET059METAR EDJA 261120Z 24005KT 190V280 9999 FEW040 26/14 Q1027;
0128109470999992007082611504+47983+010233FM-15+0629EDJA V0202601N003612200019N0112651N1+02501+01301999999ADDGA1021+012001999GF102991999999999999999999MA1102711999999REMMET059METAR EDJA 261150Z 26007KT 210V300 9999 FEW040 25/13 Q1027;
0128109470999992007082612504+47983+010233FM-15+0629EDJA V0202701N004612200019N0112651N1+02601+01401999999ADDGA1021+015001999GF102991999999999999999999MA1102711999999REMMET059METAR EDJA 261250Z 27009KT 240V300 9999 FEW055 26/14 Q1027;
0080109470999992007082613204+47983+010233FM-15+0629EDJA V0202601N00461220001CN0099001N1+02601+01201999999ADDMA1102711999999REMMET053METAR EDJA 261320Z 26009KT 220V290 CAVOK 26/12 Q1027;
0080109470999992007082613504+47983+010233FM-15+0629EDJA V0202401N00361220001CN0099001N1+02601+01301999999ADDMA1102711999999REMMET053METAR EDJA 261350Z 24007KT 180V270 CAVOK 26/13 Q1027;
0080109470999992007082614204+47983+010233FM-15+0629EDJA V0202501N00411220001CN0099001N1+02501+01401999999ADDMA1102611999999REMMET053METAR EDJA 261420Z 25008KT 210V280 CAVOK 25/14 Q1026;
0080109470999992007082614504+47983+010233FM-15+0629EDJA V0202701N00211220001CN0099001N1+02501+01501999999ADDMA1102611999999REMMET053METAR EDJA 261450Z 27004KT 230V340 CAVOK 25/15 Q1026;
0080109470999992007082615504+47983+010233FM-15+0629EDJA V0202401N00361220001CN0099001N1+02501+01401999999ADDMA1102611999999REMMET053METAR EDJA 261550Z 24007KT 200V260 CAVOK 25/14 Q1026;
0080109470999992007082616204+47983+010233FM-15+0629EDJA V0202401N00261220001CN0099001N1+02501+01401999999ADDMA1102611999999REMMET053METAR EDJA 261620Z 24005KT 190V290 CAVOK 25/14 Q1026;
0072109470999992007082616504+47983+010233FM-15+0629EDJA V0209999V00151220001CN0099001N1+02301+01501999999ADDMA1102611999999REMMET045METAR EDJA 261650Z VRB03KT CAVOK 23/15 Q1026;
0072109470999992007082617204+47983+010233FM-15+0629EDJA V0209999V00151220001CN0099001N1+02301+01601999999ADDMA1102611999999REMMET045METAR EDJA 261720Z VRB03KT CAVOK 23/16 Q1026;
0072109470999992007082617504+47983+010233FM-15+0629EDJA V0201901N00151220001CN0099001N1+02101+01601999999ADDMA1102611999999REMMET045METAR EDJA 261750Z 19003KT CAVOK 21/16 Q1026;
0120109470999992007082618504+47983+010233FM-15+0629EDJA V0209999V000512200019N0112651N1+01801+01601999999ADDGA1021+015001999GF102991999999999999999999MA1102611999999REMMET051METAR EDJA 261850Z VRB01KT 9999 FEW054 18/16 Q1026;
0072109470999992007082619504+47983+010233FM-15+0629EDJA V0200901N00101220001CN0099001N1+01701+01501999999ADDMA1102611999999REMMET045METAR EDJA 261950Z 09002KT CAVOK 17/15 Q1026;
0072109470999992007082703504+47983+010233FM-15+0629EDJA V0201701N00211220001CN0099001N1+01101+01101999999ADDMA1102301999999REMMET045METAR EDJA 270350Z 17004KT CAVOK 11/11 Q1023;
0072109470999992007082704504+47983+010233FM-15+0629EDJA V0201701N00051220001CN0099001N1+01101+01001999999ADDMA1102301999999REMMET045METAR EDJA 270450Z 17001KT CAVOK 11/10 Q1023;
0072109470999992007082707204+47983+010233FM-15+0629EDJA V0209999V00051220001CN0099001N1+01801+01501999999ADDMA1102301999999REMMET045METAR EDJA 270720Z VRB01KT CAVOK 18/15 Q1023;
0072109470999992007082707504+47983+010233FM-15+0629EDJA V0209999C00001220001CN0099001N1+01801+01401999999ADDMA1102301999999REMMET045METAR EDJA 270750Z 00000KT CAVOK 18/14 Q1023;
0072109470999992007082708204+47983+010233FM-15+0629EDJA V0209999V00101220001CN0099001N1+01901+01401999999ADDMA1102301999999REMMET045METAR EDJA 270820Z VRB02KT CAVOK 19/14 Q1023;
0072109470999992007082708504+47983+010233FM-15+0629EDJA V0209999V00101220001CN0099001N1+01901+01401999999ADDMA1102301999999REMMET045METAR EDJA 270850Z VRB02KT CAVOK 19/14 Q1023;
0072109470999992007082709504+47983+010233FM-15+0629EDJA V0209999V00151220001CN0099001N1+02101+01501999999ADDMA1102301999999REMMET045METAR EDJA 270950Z VRB03KT CAVOK 21/15 Q1023;
0072109470999992007082710204+47983+010233FM-15+0629EDJA V0209999V00101220001CN0099001N1+02101+01501999999ADDMA1102301999999REMMET045METAR EDJA 271020Z VRB02KT CAVOK 21/15 Q1023;
0072109470999992007082710504+47983+010233FM-15+0629EDJA V0202301N00211220001CN0099001N1+02201+01401999999ADDMA1102201999999REMMET045METAR EDJA 271050Z 23004KT CAVOK 22/14 Q1022;
0080109470999992007082711504+47983+010233FM-15+0629EDJA V0202301N00311220001CN0099001N1+02401+01601999999ADDMA1102201999999REMMET053METAR EDJA 271150Z 23006KT 190V260 CAVOK 24/16 Q1022;
0080109470999992007082712204+47983+010233FM-15+0629EDJA V0202601N00261220001CN0099001N1+02301+01501999999ADDMA1102101999999REMMET053METAR EDJA 271220Z 26005KT 200V320 CAVOK 23/15 Q1021;
0120109470999992007082712504+47983+010233FM-15+0629EDJA V0209999V001512200019N0112651N1+02401+01401999999ADDGA1021+014401999GF102991999999999999999999MA1102101999999REMMET051METAR EDJA 271250Z VRB03KT 9999 FEW048 24/14 Q1021;
0120109470999992007082713504+47983+010233FM-15+0629EDJA V0202601N004112200019N0112651N1+02501+01601999999ADDGA1021+012601999GF102991999999999999999999MA1102001999999REMMET051METAR EDJA 271350Z 26008KT 9999 FEW042 25/16 Q1020;
0080109470999992007082714204+47983+010233FM-15+0629EDJA V0202401N00211220001CN0099001N1+02401+01501999999ADDMA1102001999999REMMET053METAR EDJA 271420Z 24004KT 210V280 CAVOK 24/15 Q1020;
0080109470999992007082715504+47983+010233FM-15+0629EDJA V0202401N00361220001CN0099001N1+02401+01501999999ADDMA1101901999999REMMET053METAR EDJA 271550Z 24007KT 200V310 CAVOK 24/15 Q1019;
0092109470999992007082716504+47983+010233FM-15+0629EDJA V0202201N99999220001CN0099001N1+02301+01501999999ADDMA1101901999999REMMET046METAR EDJA 271650Z 220085KT CAVOK 23/15 Q1019;EQDQ01+004373WOSPD 
0120109470999992007082718204+47983+010233FM-15+0629EDJA V0209999V001512200019N0112651N1+01901+01501999999ADDGA1041+010801999GF104991999999999999999999MA1102001999999REMMET051METAR EDJA 271820Z VRB03KT 9999 SCT036 19/15 Q1020;
0132109470999992007082718504+47983+010233FM-15+0629EDJA V0209999V001010108019N0112651N1+01901+01601999999ADDGA1071+010801999GF107991999999999999999999MA1102001999999MW1801REMMET057METAR EDJA 271850Z VRB02KT 9999 -SHRA BKN036 19/16 Q1020;
0120109470999992007082719204+47983+010233FM-15+0629EDJA V0209999V001510108019N0112651N1+01901+01501999999ADDGA1081+010801999GF108991999999999999999999MA1102001999999REMMET051METAR EDJA 271920Z VRB03KT 9999 OVC036 19/15 Q1020;
0120109470999992007082719504+47983+010233FM-15+0629EDJA V0200101N001010117019N0112651N1+01901+01501999999ADDGA1081+011701999GF108991999999999999999999MA1102001999999REMMET051METAR EDJA 271950Z 01002KT 9999 OVC039 19/15 Q1020;
0130109470999992007082818204+47983+010233FM-15+0629EDJA V0209999V001010090019N0090001N1+01601+01401999999ADDGA1071+009001999GF107991999999999999999999MA1101691999999MW1611REMMET055METAR EDJA 281820Z VRB02KT 9000 -RA BKN030 16/14 Q1017;
0120109470999992007082819204+47983+010233FM-15+0629EDJA V0201001N002610075019N0080001N1+01601+01401999999ADDGA1071+007501999GF107991999999999999999999MA1101691999999REMMET051METAR EDJA 281920Z 10005KT 8000 BKN025 16/14 Q1017;
0152109470999992007082904504+47983+010233FM-15+0629EDJA V0209999V000510060019N0030001N1+01401+01401999999ADDGA1021+000901999GA2071+006001999GF107991999999999999999999MA1101291999999MW1101REMMET061METAR EDJA 290450Z VRB01KT 3000 BR FEW003 BKN020 14/14 Q1013;
0162109470999992007082905504+47983+010233FM-15+0629EDJA V0200701N002610030019N0035001N1+01401+01301999999ADDGA1041+000901999GA2071+003001999GF107991999999999999999999MA1101191999999MW1811REMMET071METAR EDJA 290550Z 07005KT 010V100 3500 SHRA SCT003 BKN010 14/13 Q1012;
0161109470999992007082906204+47983+010233FM-15+0629EDJA V0201601N002110060019N0060001N1+01401+01401999999ADDGA1021+004501999GA2081+006001999GF108991999999999999999999MA1101191999999MW1611REMMET070METAR EDJA 290620Z 16004KT 120V190 6000 -RA FEW015 OVC020 14/14 Q1012;
0137109470999992007082906504+47983+010233FM-15+0629EDJA V0202401N002110018019N0035001N1+01401+01401999999ADDGA1071+001801999GF107991999999999999999999MA1101291999999MW1631REMMET062METAR EDJA 290650Z 24004KT 200V260 3500 RA BKN006 14/14 Q1013;
0160109470999992007082907204+47983+010233FM-15+0629EDJA V0202001N002612200019N0045001N1+01501+01401999999ADDGA1021+003001999GA2041+006901999GF104991999999999999999999MA1101291999999MW1631REMMET069METAR EDJA 290720Z 20005KT 160V220 4500 RA FEW010 SCT023 15/14 Q1013;
0153109470999992007082907504+47983+010233FM-15+0629EDJA V0202001N003610126019N0045001N1+01501+01501999999ADDGA1021+003001999GA2071+012601999GF107991999999999999999999MA1101291999999MW1611REMMET062METAR EDJA 290750Z 20007KT 4500 -RA FEW010 BKN042 15/15 Q1013;
0143109470999992007082908204+47983+010233FM-15+0629EDJA V0202201N002610126019N0070001N1+01601+01501999999ADDGA1041+003001999GA2071+012601999GF107991999999999999999999MA1101291999999REMMET058METAR EDJA 290820Z 22005KT 7000 SCT010 BKN042 16/15 Q1013;
0101109470999992007082908504+47983+010233FM-15+0629EDJA V0202501N002612200019N9999999N1+01601+01501999999ADDMA1101301999999REMMET074METAR EDJA 290850Z 25005KT 210V290 -SHRA FEW010 SCT030 BKN045 16/15 Q1013;
0086109470999992007082909204+47983+010233FM-15+0629EDJA V0209999V001512200019N9999999N1+01601+01501999999ADDMA1101301999999REMMET059METAR EDJA 290920Z VRB03KT -SHRA SCT010 BKN040 16/15 Q1013;
0120109470999992007082909504+47983+010233FM-15+0629EDJA V0202401N003110030019N0112651N1+01701+01501999999ADDGA1071+003001999GF107991999999999999999999MA1101291999999REMMET051METAR EDJA 290950Z 24006KT 9999 BKN010 17/15 Q1013;
0086109470999992007082910204+47983+010233FM-15+0629EDJA V0202501N002112200019N0060001N1+01601+01501999999ADDMA1101301999999REMMET059METAR EDJA 291020Z 25004KT 200V290 6000 BKB010 16/15 Q1013;
0128109470999992007082910504+47983+010233FM-15+0629EDJA V0202501N003610021019N0112651N1+01701+01501999999ADDGA1071+002101999GF107991999999999999999999MA1101291999999REMMET059METAR EDJA 291050Z 25007KT 210V310 9999 BKN007 17/15 Q1013;
0155109470999992007082911204+47983+010233FM-15+0629EDJA V0203101N003110018019N0045001N1+01601+01501999999ADDGA1021+001201999GA2071+001801999GF107991999999999999999999MA1101291999999MW1801REMMET064METAR EDJA 291120Z 31006KT 4500 -SHRA FEW004 BKN006 16/15 Q1013;
0143109470999992007082911504+47983+010233FM-15+0629EDJA V0209999V001510036019N0050001N1+01601+01401999999ADDGA1041+001801999GA2071+003601999GF107991999999999999999999MA1101291999999REMMET058METAR EDJA 291150Z VRB03KT 5000 SCT006 BKN012 16/14 Q1013;
0086109470999992007082912204+47983+010233FM-15+0629EDJA V0209999V001512200019N9999999N1+01601+01501999999ADDMA1101301999999REMMET059METAR EDJA 291220Z VRB03KT -SHRA FEW006 BKN012 16/15 Q1013;
0120109470999992007082912504+47983+010233FM-15+0629EDJA V0203301N002610012019N0035001N1+01601+01501999999ADDGA1071+001201999GF107991999999999999999999MA1101291999999REMMET051METAR EDJA 291250Z 33005KT 3500 BKN004 16/15 Q1013;
0152109470999992007082913204+47983+010233FM-15+0629EDJA V0200101N003610012019N0020001N1+01501+01401999999ADDGA1041+000301999GA2071+001201999GF107991999999999999999999MA1101291999999MW1101REMMET061METAR EDJA 291320Z 01007KT 2000 BR SCT001 BKN004 15/14 Q1013;
0150109470999992007082914204+47983+010233FM-15+0629EDJA V0200101N003610006019N0010001N1+01401+01301999999ADDED199U14009GA1081+000601999GF108991999999999999999999MA1101391999999MW1441REMMET064METAR EDJA 291420Z 01007KT 1000 R24/1400N FG OVC002 14/13 Q1014;
0129109470999992007082915204+47983+010233FM-15+0629EDJA V0203501N002610003019N0015001N1+01301+01301999999ADDGA1081+000301999GF108991999999999999999999MA1101391999999MW1101REMMET054METAR EDJA 291520Z 35005KT 1500 BR OVC001 13/13 Q1014;
0129109470999992007082915504+47983+010233FM-15+0629EDJA V0200101N004110003019N0040001N1+01301+01301999999ADDGA1081+000301999GF108991999999999999999999MA1101391999999MW1101REMMET054METAR EDJA 291550Z 01008KT 4000 BR OVC001 13/13 Q1014;
0139109470999992007082916504+47983+010233FM-15+0629EDJA V0203501N002610009019N0040001N1+01201+01201999999ADDGA1071+000901999GF107991999999999999999999MA1101491999999MW1101MW2611REMMET058METAR EDJA 291650Z 35005KT 4000 -RA BR BKN003 12/12 Q1015;
0139109470999992007082917504+47983+010233FM-15+0629EDJA V0200201N002110012019N0035001N1+01201+01201999999ADDGA1071+001201999GF107991999999999999999999MA1101491999999MW1101MW2611REMMET058METAR EDJA 291750Z 02004KT 3500 -RA BR BKN004 12/12 Q1015;
0139109470999992007082918204+47983+010233FM-15+0629EDJA V0200601N001010012019N0040001N1+01201+01201999999ADDGA1071+001201999GF107991999999999999999999MA1101491999999MW1101MW2611REMMET058METAR EDJA 291820Z 06002KT 4000 -RA BR BKN004 12/12 Q1015;
0162109470999992007082918504+47983+010233FM-15+0629EDJA V0209999V001510015019N0040001N1+01201+01201999999ADDGA1041+000601999GA2071+001501999GF107991999999999999999999MA1101591999999MW1101MW2611REMMET065METAR EDJA 291850Z VRB03KT 4000 -RA BR SCT002 BKN005 12/12 Q1016;
0139109470999992007082919204+47983+010233FM-15+0629EDJA V0200201N003110009019N0040001N1+01201+01201999999ADDGA1071+000901999GF107991999999999999999999MA1101591999999MW1101MW2611REMMET058METAR EDJA 291920Z 02006KT 4000 -RA BR BKN003 12/12 Q1016;
0129109470999992007082919504+47983+010233FM-15+0629EDJA V0200201N002110012019N0040001N1+01201+01201999999ADDGA1071+001201999GF107991999999999999999999MA1101591999999MW1101REMMET054METAR EDJA 291950Z 02004KT 4000 BR BKN004 12/12 Q1016;
0129109470999992007083003204+47983+010233FM-15+0629EDJA V0200401N003110009019N0035001N1+01201+01201999999ADDGA1081+000901999GF108991999999999999999999MA1101491999999MW1101REMMET054METAR EDJA 300320Z 04006KT 3500 BR OVC003 12/12 Q1015;
0129109470999992007083003504+47983+010233FM-15+0629EDJA V0200401N003610009019N0035001N1+01201+01201999999ADDGA1081+000901999GF108991999999999999999999MA1101491999999MW1101REMMET054METAR EDJA 300350Z 04007KT 3500 BR OVC003 12/12 Q1015;
0129109470999992007083004204+47983+010233FM-15+0629EDJA V0200401N004110009019N0035001N1+01201+01201999999ADDGA1081+000901999GF108991999999999999999999MA1101391999999MW1101REMMET054METAR EDJA 300420Z 04008KT 3500 BR OVC003 12/12 Q1014;
0129109470999992007083004504+47983+010233FM-15+0629EDJA V0200401N003610009019N0035001N1+01201+01101999999ADDGA1081+000901999GF108991999999999999999999MA1101491999999MW1101REMMET054METAR EDJA 300450Z 04007KT 3500 BR OVC003 12/11 Q1015;
0129109470999992007083005204+47983+010233FM-15+0629EDJA V0200501N004110009019N0020001N1+01201+01101999999ADDGA1081+000901999GF108991999999999999999999MA1101491999999MW1101REMMET054METAR EDJA 300520Z 05008KT 2000 BR OVC003 12/11 Q1015;
0129109470999992007083005504+47983+010233FM-15+0629EDJA V0200501N004110009019N0030001N1+01201+01201999999ADDGA1081+000901999GF108991999999999999999999MA1101491999999MW1101REMMET054METAR EDJA 300550Z 05008KT 3000 BR OVC003 12/12 Q1015;
0129109470999992007083006504+47983+010233FM-15+0629EDJA V0200401N004110012019N0040001N1+01201+01101999999ADDGA1081+001201999GF108991999999999999999999MA1101491999999MW1101REMMET054METAR EDJA 300650Z 04008KT 4000 BR OVC004 12/11 Q1015;
0129109470999992007083007504+47983+010233FM-15+0629EDJA V0200601N004110015019N0045001N1+01201+01101999999ADDGA1081+001501999GF108991999999999999999999MA1101491999999MW1101REMMET054METAR EDJA 300750Z 06008KT 4500 BR OVC005 12/11 Q1015;
0120109470999992007083008504+47983+010233FM-15+0629EDJA V0200601N003610021019N0050001N1+01201+01101999999ADDGA1081+002101999GF108991999999999999999999MA1101591999999REMMET051METAR EDJA 300850Z 06007KT 5000 OVC007 12/11 Q1016;
0120109470999992007083009504+47983+010233FM-15+0629EDJA V0200401N004610024019N0060001N1+01301+01201999999ADDGA1081+002401999GF108991999999999999999999MA1101591999999REMMET051METAR EDJA 300950Z 04009KT 6000 OVC008 13/12 Q1016;
0120109470999992007083010504+47983+010233FM-15+0629EDJA V0200301N004610039019N0070001N1+01401+01201999999ADDGA1071+003901999GF107991999999999999999999MA1101591999999REMMET051METAR EDJA 301050Z 03009KT 7000 BKN013 14/12 Q1016;
0143109470999992007083011504+47983+010233FM-15+0629EDJA V0200401N004110114019N0090001N1+01401+01201999999ADDGA1041+003901999GA2071+011401999GF107991999999999999999999MA1101691999999REMMET058METAR EDJA 301150Z 04008KT 9000 SCT013 BKN038 14/12 Q1017;
0143109470999992007083012504+47983+010233FM-15+0629EDJA V0200401N003610108019N0112651N1+01501+01201999999ADDGA1041+005401999GA2071+010801999GF107991999999999999999999MA1101691999999REMMET058METAR EDJA 301250Z 04007KT 9999 SCT018 BKN036 15/12 Q1017;
0143109470999992007083013504+47983+010233FM-15+0629EDJA V0200401N002610123019N0112651N1+01601+01201999999ADDGA1041+006601999GA2071+012301999GF107991999999999999999999MA1101691999999REMMET058METAR EDJA 301350Z 04005KT 9999 SCT022 BKN041 16/12 Q1017;
0072109470999992007083014504+47983+010233FM-15+0629EDJA V0200101N00261220001CN0099001N1+01601+01101999999ADDMA1101691999999REMMET045METAR EDJA 301450Z 01005KT CAVOK 16/11 Q1017;
0072109470999992007083015504+47983+010233FM-15+0629EDJA V0209999V00151220001CN0099001N1+01601+01101999999ADDMA1101801999999REMMET045METAR EDJA 301550Z VRB03KT CAVOK 16/11 Q1018;
0072109470999992007083016504+47983+010233FM-15+0629EDJA V0209999V00151220001CN0099001N1+01601+01101999999ADDMA1101801999999REMMET045METAR EDJA 301650Z VRB03KT CAVOK 16/11 Q1018;
0072109470999992007083017504+47983+010233FM-15+0629EDJA V0201601N00151220001CN0099001N1+01301+01201999999ADDMA1101901999999REMMET045METAR EDJA 301750Z 16003KT CAVOK 13/12 Q1019;
0120109470999992007083018504+47983+010233FM-15+0629EDJA V0201701N001512200019N0060001N1+01201+01201999999ADDGA1041+012001999GF104991999999999999999999MA1101901999999REMMET051METAR EDJA 301850Z 17003KT 6000 SCT040 12/12 Q1019;
0143109470999992007083019204+47983+010233FM-15+0629EDJA V0202001N001510180019N0060001N1+01201+01201999999ADDGA1041+009601999GA2071+018001999GF107991999999999999999999MA1102001999999REMMET058METAR EDJA 301920Z 20003KT 6000 SCT032 BKN060 12/12 Q1020;
0144109470999992007083103504+47983+010233FM-15+0629EDJA V0202701N00101000151CN0003001N1+00601+00601999999ADDGA1091+000151999GF109991999999000251999999MA1102001999999MW1451REMMET069METAR EDJA 310350Z 27002KT 0300 R24/0650VP1500D FG VV/// 06/06 Q1020;
0149109470999992007083104204+47983+010233FM-15+0629EDJA V0201801N00151000151CN0005001N1+00601+00601999999ADDED199U06009GA1091+000151999GF109991999999000251999999MA1102001999999MW1451REMMET063METAR EDJA 310420Z 18003KT 0500 R24/0600N FG VV/// 06/06 Q1020;
0095109470999992007083104504+47983+010233FM-15+0629EDJA V0202001N002112200019N0003001N1+00601+00601999999ADDMA1102001999999REMMET068METAR EDJA 310450Z 20004KT 0300 R24/M350V0600N FG VV/// 06/06 Q1020;
0144109470999992007083105204+47983+010233FM-15+0629EDJA V0201901N00151000151CN0004001N1+00601+00601999999ADDGA1091+000151999GF109991999999000251999999MA1102101999999MW1451REMMET069METAR EDJA 310520Z 19003KT 0400 R24/0800VP1500D FG VV/// 06/06 Q1021;
0150109470999992007083105504+47983+010233FM-15+0629EDJA V0201901N00151000151CN0005001N1+00701+00701999999ADDED199U15009GA1091+000151999GF109991999999000251999999MA1102101999999MW1451REMMET064METAR EDJA 310550Z 19003KT 0500 R24/P1500D FG VV/// 07/07 Q1021;
0137109470999992007083106504+47983+010233FM-15+0629EDJA V0202101N002110132019N0030001N1+01001+01001999999ADDGA1071+013201999GF107991999999999999999999MA1102101999999MW1101REMMET062METAR EDJA 310650Z 21004KT 170V230 3000 BR BKN044 10/10 Q1021;
0120109470999992007083108504+47983+010233FM-15+0629EDJA V0202801N002110120019N0112651N1+01301+01001999999ADDGA1071+012001999GF107991999999999999999999MA1102101999999REMMET051METAR EDJA 310850Z 28004KT 9999 BKN040 13/10 Q1021;
0120109470999992007083109504+47983+010233FM-15+0629EDJA V0209999V001510090019N0112651N1+01401+00901999999ADDGA1071+009001999GF107991999999999999999999MA1102101999999REMMET051METAR EDJA 310950Z VRB03KT 9999 BKN030 14/09 Q1021;
0120109470999992007083110504+47983+010233FM-15+0629EDJA V0202501N001510144019N0112651N1+01501+00901999999ADDGA1071+014401999GF107991999999999999999999MA1102101999999REMMET051METAR EDJA 311050Z 25003KT 9999 BKN048 15/09 Q1021;
0128109470999992007083111504+47983+010233FM-15+0629EDJA V0202801N002612200019N0112651N1+01601+01101999999ADDGA1021+007201999GF102991999999999999999999MA1102001999999REMMET059METAR EDJA 311150Z 28005KT 200V330 9999 FEW024 16/11 Q1020;
0128109470999992007083112504+47983+010233FM-15+0629EDJA V0202101N002612200019N0112651N1+01601+01001999999ADDGA1021+008101999GF102991999999999999999999MA1102001999999REMMET059METAR EDJA 311250Z 21005KT 170V270 9999 FEW027 16/10 Q1020;
0151109470999992007083113504+47983+010233FM-15+0629EDJA V0202601N003112200019N0112651N1+01801+01101999999ADDGA1021+009001999GA2041+013501999GF104991999999999999999999MA1102001999999REMMET066METAR EDJA 311350Z 26006KT 220V300 9999 FEW030 SCT045 18/11 Q1020;
0080109470999992007083114504+47983+010233FM-15+0629EDJA V0203001N00261220001CN0099001N1+01701+01001999999ADDMA1102001999999REMMET053METAR EDJA 311450Z 30005KT 370V330 CAVOK 17/10 Q1020;
0072109470999992007083115204+47983+010233FM-15+0629EDJA V0203101N00261220001CN0099001N1+01601+01001999999ADDMA1102001999999REMMET045METAR EDJA 311520Z 31005KT CAVOK 16/10 Q1020;
0072109470999992007083116204+47983+010233FM-15+0629EDJA V0202901N00311220001CN0099001N1+01601+01101999999ADDMA1102001999999REMMET045METAR EDJA 311620Z 29006KT CAVOK 16/11 Q1020;
0120109470999992007083116504+47983+010233FM-15+0629EDJA V0202701N002610135019N0112651N1+01601+01101999999ADDGA1071+013501999GF107991999999999999999999MA1102001999999REMMET051METAR EDJA 311650Z 27005KT 9999 BKN045 16/11 Q1020;
0120109470999992007083117204+47983+010233FM-15+0629EDJA V0202601N003110135019N0112651N1+01601+01001999999ADDGA1071+013501999GF107991999999999999999999MA1102001999999REMMET051METAR EDJA 311720Z 26006KT 9999 BKN045 16/10 Q1020;
0120109470999992007083117504+47983+010233FM-15+0629EDJA V0202801N003610144019N0112651N1+01501+01101999999ADDGA1071+014401999GF107991999999999999999999MA1102001999999REMMET051METAR EDJA 311750Z 28007KT 9999 BKN048 15/11 Q1020;
0120109470999992007083118504+47983+010233FM-15+0629EDJA V0202601N002110126019N0112651N1+01401+01101999999ADDGA1071+012601999GF107991999999999999999999MA1102001999999REMMET051METAR EDJA 311850Z 26004KT 9999 BKN042 14/11 Q1020;
0120109470999992007083119504+47983+010233FM-15+0629EDJA V0202101N002110147019N0112651N1+01301+01201999999ADDGA1071+014701999GF107991999999999999999999MA1102101999999REMMET051METAR EDJA 311950Z 21004KT 9999 BKN049 13/12 Q1021;
0120109470999992007090103504+47983+010233FM-15+0629EDJA V0202601N003610111019N0112651N1+01201+01001999999ADDGA1071+011101999GF107991999999999999999999MA1102001999999REMMET051METAR EDJA 010350Z 26007KT 9999 BKN037 12/10 Q1020;
0130109470999992007090104504+47983+010233FM-15+0629EDJA V0202501N003110078019N0112651N1+01201+01001999999ADDGA1071+007801999GF107991999999999999999999MA1102101999999MW1611REMMET055METAR EDJA 010450Z 25006KT 9999 -RA BKN026 12/10 Q1021;
0143109470999992007090105504+47983+010233FM-15+0629EDJA V0202301N003110096019N0112651N1+01201+01001999999ADDGA1041+005401999GA2071+009601999GF107991999999999999999999MA1102101999999REMMET058METAR EDJA 010550Z 23006KT 9999 SCT018 BKN032 12/10 Q1021;
0120109470999992007090106504+47983+010233FM-15+0629EDJA V0202401N003110054019N0112651N1+01201+01001999999ADDGA1071+005401999GF107991999999999999999999MA1102101999999REMMET051METAR EDJA 010650Z 24006KT 9999 BKN018 12/10 Q1021;
0120109470999992007090107504+47983+010233FM-15+0629EDJA V0202501N004110051019N0112651N1+01301+01101999999ADDGA1071+005101999GF107991999999999999999999MA1102201999999REMMET051METAR EDJA 010750Z 25008KT 9999 BKN017 13/11 Q1022;
0120109470999992007090108204+47983+010233FM-15+0629EDJA V0202601N004110054019N0112651N1+01401+01001999999ADDGA1071+005401999GF107991999999999999999999MA1102201999999REMMET051METAR EDJA 010820Z 26008KT 9999 BKN018 14/10 Q1022;
0120109470999992007090108504+47983+010233FM-15+0629EDJA V0202601N004110057019N0112651N1+01301+01001999999ADDGA1071+005701999GF107991999999999999999999MA1102201999999REMMET051METAR EDJA 010850Z 26008KT 9999 BKN019 13/10 Q1022;
0143109470999992007090109504+47983+010233FM-15+0629EDJA V0202401N003610114019N0112651N1+01401+01101999999ADDGA1041+005401999GA2071+011401999GF107991999999999999999999MA1102201999999REMMET058METAR EDJA 010950Z 24007KT 9999 SCT018 BKN038 14/11 Q1022;
0120109470999992007090111504+47983+010233FM-15+0629EDJA V0202501N004612200019N0112651N1+01701+01101999999ADDGA1041+008401999GF104991999999999999999999MA1102201999999REMMET051METAR EDJA 011150Z 25009KT 9999 SCT028 17/11 Q1022;
0128109470999992007090112504+47983+010233FM-15+0629EDJA V0202501N003612200019N0112651N1+01601+01101999999ADDGA1041+009001999GF104991999999999999999999MA1102201999999REMMET059METAR EDJA 011250Z 25007KT 210V290 9999 SCT030 16/11 Q1022;
0130109470999992007090113204+47983+010233FM-15+0629EDJA V0203101N004112200019N0112651N1+01501+01201999999ADDGA1041+009001999GF104991999999999999999999MA1102201999999MW1611REMMET055METAR EDJA 011320Z 31008KT 9999 -RA SCT030 15/12 Q1022;
0120109470999992007090113504+47983+010233FM-15+0629EDJA V0209999V001512200019N0112651N1+01601+01301999999ADDGA1041+009001999GF104991999999999999999999MA1102101999999REMMET051METAR EDJA 011350Z VRB03KT 9999 SCT030 16/13 Q1021;
0077109470999992007090114204+47983+010233FM-15+0629EDJA V0202101N002612200019N0112651N1+01801+01101999999ADDMA1102101999999REMMET050METAR EDJA 011420Z 21005KT 9999 CAVOK 18/11 Q1021;
0077109470999992007090114504+47983+010233FM-15+0629EDJA V0202101N003112200019N0112651N1+01801+01101999999ADDMA1102101999999REMMET050METAR EDJA 011450Z 21006KT 9999 CAVOK 18/11 Q1021;
0120109470999992007090115204+47983+010233FM-15+0629EDJA V0202401N004612200019N0112651N1+01701+01001999999ADDGA1041+012001999GF104991999999999999999999MA1102101999999REMMET051METAR EDJA 011520Z 24009KT 9999 SCT040 17/10 Q1021;
0128109470999992007090115504+47983+010233FM-15+0629EDJA V0202601N006212200019N0112651N1+01701+01001999999ADDGA1041+011401999GF104991999999999999999999MA1102101999999REMMET059METAR EDJA 011550Z 26012KT 230V290 9999 SCT038 17/10 Q1021;
0072109470999992007090116204+47983+010233FM-15+0629EDJA V0202401N00361220001CN0099001N1+01501+01101999999ADDMA1102101999999REMMET045METAR EDJA 011620Z 24007KT CAVOK 15/11 Q1021;
0072109470999992007090116504+47983+010233FM-15+0629EDJA V0202401N00411220001CN0099001N1+01501+01101999999ADDMA1102101999999REMMET045METAR EDJA 011650Z 24008KT CAVOK 15/11 Q1021;
0072109470999992007090117204+47983+010233FM-15+0629EDJA V0202301N00311220001CN0099001N1+01501+01101999999ADDMA1102101999999REMMET045METAR EDJA 011720Z 23006KT CAVOK 15/11 Q1021;
0120109470999992007090117504+47983+010233FM-15+0629EDJA V0202201N002612200019N0112651N1+01401+01201999999ADDGA1041+013501999GF104991999999999999999999MA1102201999999REMMET051METAR EDJA 011750Z 22005KT 9999 SCT045 14/12 Q1022;
0072109470999992007090119204+47983+010233FM-15+0629EDJA V0209999V00051220001CN0099001N1+01401+01201999999ADDMA1102201999999REMMET045METAR EDJA 011920Z VRB01KT CAVOK 14/12 Q1022;
0072109470999992007090119504+47983+010233FM-15+0629EDJA V0209999V00051220001CN0099001N1+01301+01201999999ADDMA1102301999999REMMET045METAR EDJA 011950Z VRB01KT CAVOK 13/12 Q1023;
0120109470999992007090203504+47983+010233FM-15+0629EDJA V0201701N001512200019N0070001N1+00901+00801999999ADDGF100991999999999999999999MA1102101999999REMMET048METAR EDJA 020350Z 17003KT 7000 NSC 09/08 Q1021;EQDQ01    003SCCGA1
0129109470999992007090204504+47983+010233FM-15+0629EDJA V0201701N001512200019N0050001N1+00801+00801999999ADDGF100991999999999999999999MA1102101999999MW1101REMMET051METAR EDJA 020450Z 17003KT 5000 BR NSC 08/08 Q1021;EQDQ01    003SCCGA1
0120109470999992007090205504+47983+010233FM-15+0629EDJA V0201601N001012200019N0080001N1+01101+01101999999ADDGF100991999999999999999999MA1102101999999REMMET048METAR EDJA 020550Z 16002KT 8000 NSC 11/11 Q1021;EQDQ01    003SCCGA1
0072109470999992007090206504+47983+010233FM-15+0629EDJA V0201801N00101220001CN0099001N1+01301+01201999999ADDMA1102101999999REMMET045METAR EDJA 020650Z 18002KT CAVOK 13/12 Q1021;
0155109470999992007090207504+47983+010233FM-15+0629EDJA V0209999V001512200019N0112651N1+01501+01201999999ADDGA1021+007201999GF102991999999999999999999MA1999999999999REMMET051METAR EDJA 020750Z VRB03KT 9999 FEW024 15/12 Q1012;EQDQ01+101193APOA  Q02 101203APOA  
0120109470999992007090208504+47983+010233FM-15+0629EDJA V0209999V001012200019N0112651N1+01601+01001999999ADDGA1021+008101999GF102991999999999999999999MA1102101999999REMMET051METAR EDJA 020850Z VRB02KT 9999 FEW027 16/10 Q1021;
0120109470999992007090209504+47983+010233FM-15+0629EDJA V0202801N002612200019N0112651N1+01701+01001999999ADDGA1041+008101999GF104991999999999999999999MA1102101999999REMMET051METAR EDJA 020950Z 28005KT 9999 SCT027 17/10 Q1021;
0131109470999992007090210504+47983+010233FM-15+0629EDJA V0203001N002110090019N0112651N1+01701+00901999999ADDGA1071+009001999GF107991999999999999999999MA1102101999999REMMET062METAR EDJA 021050Z 30004KT 250V020 9999 BKN030 17/09 Q1021///;
0128109470999992007090211504+47983+010233FM-15+0629EDJA V0202901N003110108019N0112651N1+01801+00901999999ADDGA1071+010801999GF107991999999999999999999MA1102001999999REMMET059METAR EDJA 021150Z 29006KT 260V320 9999 BKN036 18/09 Q1020;
0072109470999992007090213204+47983+010233FM-15+0629EDJA V0203001N00311220001CN0099001N1+01901+00901999999ADDMA1102001999999REMMET045METAR EDJA 021320Z 30006KT CAVOK 19/09 Q1020;
0072109470999992007090213504+47983+010233FM-15+0629EDJA V0203001N00261220001CN0099001N1+01901+00801999999ADDMA1101901999999REMMET045METAR EDJA 021350Z 30005KT CAVOK 19/08 Q1019;
0128109470999992007090214504+47983+010233FM-15+0629EDJA V0203001N002612200019N0112651N1+01901+01001999999ADDGA1041+014401999GF104991999999999999999999MA1101901999999REMMET059METAR EDJA 021450Z 30005KT 270V340 9999 SCT048 19/10 Q1019;
0080109470999992007090215504+47983+010233FM-15+0629EDJA V0203301N00211220001CN0099001N1+01801+01001999999ADDMA1101901999999REMMET053METAR EDJA 021550Z 33004KT 290V360 CAVOK 18/10 Q1019;
0072109470999992007090216504+47983+010233FM-15+0629EDJA V0209999V00101220001CN0099001N1+01801+01001999999ADDMA1101801999999REMMET045METAR EDJA 021650Z VRB02KT CAVOK 18/10 Q1018;
0072109470999992007090217204+47983+010233FM-15+0629EDJA V0200201N00151220001CN0099001N1+01701+01101999999ADDMA1101801999999REMMET045METAR EDJA 021720Z 02003KT CAVOK 17/11 Q1018;
0072109470999992007090217504+47983+010233FM-15+0629EDJA V0209999C00001220001CN0099001N1+01501+01101999999ADDMA1101801999999REMMET045METAR EDJA 021750Z 00000KT CAVOK 15/11 Q1018;
0072109470999992007090218204+47983+010233FM-15+0629EDJA V0209999V00151220001CN0099001N1+01401+01201999999ADDMA1101801999999REMMET045METAR EDJA 021820Z VRB03KT CAVOK 14/12 Q1018;
0072109470999992007090218504+47983+010233FM-15+0629EDJA V0201601N00151220001CN0099001N1+01301+01201999999ADDMA1101901999999REMMET045METAR EDJA 021850Z 16003KT CAVOK 13/12 Q1019;
0072109470999992007090219504+47983+010233FM-15+0629EDJA V0209999V00051220001CN0099001N1+01301+01201999999ADDMA1101901999999REMMET045METAR EDJA 021950Z VRB01KT CAVOK 13/12 Q1019;
0120109470999992007090304204+47983+010233FM-15+0629EDJA V0202101N004110180019N0112651N1+01201+01101999999ADDGA1071+018001999GF107991999999999999999999MA1101591999999REMMET051METAR EDJA 030420Z 21008KT 9999 BKN069 12/11 Q1016;
0120109470999992007090305504+47983+010233FM-15+0629EDJA V0202101N004610180019N0112651N1+01301+01101999999ADDGA1071+018001999GF107991999999999999999999MA1101591999999REMMET051METAR EDJA 030550Z 21009KT 9999 BKN069 13/11 Q1016;
0073109470999992007090306204+47983+010233FM-15+0629EDJA V0202201N004712200019N9999999N1+01401+01201999999ADDMA1101601999999REMMET046METAR EDJA 030620Z 22009KT SCT067 14/12 Q1016;
0072109470999992007090306504+47983+010233FM-15+0629EDJA V0202301N00511220001CN0099001N1+01501+01201999999ADDMA1101491999999REMMET045METAR EDJA 030650Z 23010KT CAVOK 15/12 Q1015;
0083109470999992007090307504+47983+010233FM-15+0629EDJA V0202401N00621220001CN0099001N1+01601+01201999999ADDMA1101491999999OC101131REMMET048METAR EDJA 030750Z 24012G22KT CAVOK 16/12 Q1015;
0073109470999992007090308204+47983+010233FM-15+0629EDJA V02099999999992200019N0099001N1+01701+01201999999ADDMA1101501999999REMMET046METAR EDJA 030820Z 23015G25 CAVOK 17/12 Q1015;
0120109470999992007090309204+47983+010233FM-15+0629EDJA V0202601N008712200019N0112651N1+01701+01101999999ADDGA1041+009001999GF104991999999999999999999MA1101491999999REMMET051METAR EDJA 030920Z 26017KT 9999 SCT030 17/11 Q1015;
0120109470999992007090309504+47983+010233FM-15+0629EDJA V0202501N009312200019N0112651N1+01701+01101999999ADDGA1041+015001999GF104991999999999999999999MA1101391999999REMMET051METAR EDJA 030950Z 25018KT 9999 SCT052 17/11 Q1014;
0143109470999992007090310504+47983+010233FM-15+0629EDJA V0202501N007710150019N0112651N1+01701+01101999999ADDGA1021+009901999GA2071+015001999GF107991999999999999999999MA1101391999999REMMET058METAR EDJA 031050Z 25015KT 9999 FEW033 BKN054 17/11 Q1014;
0143109470999992007090311204+47983+010233FM-15+0629EDJA V0202401N008710150019N0112651N1+01701+01001999999ADDGA1021+011701999GA2071+015001999GF107991999999999999999999MA1101391999999REMMET058METAR EDJA 031120Z 24017KT 9999 FEW039 BKN052 17/10 Q1014;
0143109470999992007090311504+47983+010233FM-15+0629EDJA V0202501N007210150019N0112651N1+01601+01001999999ADDGA1021+011701999GA2071+015001999GF107991999999999999999999MA1101391999999REMMET058METAR EDJA 031150Z 25014KT 9999 FEW039 BKN057 16/10 Q1014;
0153109470999992007090312204+47983+010233FM-15+0629EDJA V0202601N007710180019N0090001N1+01501+01101999999ADDGA1021+009901999GA2081+018001999GF108991999999999999999999MA1101391999999MW1611REMMET062METAR EDJA 031220Z 26015KT 9000 -RA FEW033 OVC060 15/11 Q1014;
0130109470999992007090312504+47983+010233FM-15+0629EDJA V0202601N004610180019N0112651N1+01501+01201999999ADDGA1081+018001999GF108991999999999999999999MA1101391999999MW1611REMMET055METAR EDJA 031250Z 26009KT 9999 -RA OVC067 15/12 Q1014;
0155109470999992007090313204+47983+010233FM-15+0629EDJA V0202401N005710180019N0112651N1+01501+01201999999ADDGA1021+014401999GA2081+018001999GF108991999999999999999999MA1101391999999MW1801REMMET064METAR EDJA 031320Z 24011KT 9999 -SHRA FEW048 OVC060 15/12 Q1014;
0155109470999992007090313504+47983+010233FM-15+0629EDJA V0202501N005110210019N0112651N1+01401+01201999999ADDGA1021+009901999GA2081+021001999GF108991999999999999999999MA1101391999999MW1801REMMET064METAR EDJA 031350Z 25010KT 9999 -SHRA FEW033 OVC070 14/12 Q1014;
0164109470999992007090314204+47983+010233FM-15+0629EDJA V0202601N005712200019N0090001N1+01401+01201999999ADDGA1021+014401999GA2041+018001999GF104991999999999999999999MA1101391999999MW1611OC101081REMMET065METAR EDJA 031420Z 26011G21KT 9000 -RA FEW048 SCT060 14/12 Q1014;
0129109470999992007090314504+47983+010233FM-15+0629EDJA V0202601N004110180019N0080001N1+01301+01201999999ADDGA1081+018001999GF108991999999999999999999MA1101391999999MW1631REMMET054METAR EDJA 031450Z 26008KT 8000 RA OVC060 13/12 Q1014;
0152109470999992007090315504+47983+010233FM-15+0629EDJA V0202701N006710105019N0050001N1+01201+01101999999ADDGA1021+007501999GA2071+010501999GF107991999999999999999999MA1101391999999MW1631REMMET061METAR EDJA 031550Z 27013KT 5000 RA FEW025 BKN035 12/11 Q1014;
0153109470999992007090316504+47983+010233FM-15+0629EDJA V0200101N006210042019N0030001N1+00901+00801999999ADDGA1021+001501999GA2081+004201999GF108991999999999999999999MA1101491999999MW1611REMMET062METAR EDJA 031650Z 01012KT 3000 -RA FEW005 OVC014 09/08 Q1015;
0129109470999992007090317504+47983+010233FM-15+0629EDJA V0201701N001510144019N0035001N1+00901+00801999999ADDGA1081+014401999GF108991999999999999999999MA1101491999999MW1631REMMET054METAR EDJA 031750Z 17003KT 3500 RA OVC048 09/08 Q1015;
0130109470999992007090318504+47983+010233FM-15+0629EDJA V0201501N002110150019N0050001N1+00901+00901999999ADDGA1081+015001999GF108991999999999999999999MA1101491999999MW1611REMMET055METAR EDJA 031850Z 15004KT 5000 -RA OVC051 09/09 Q1015;
0130109470999992007090319504+47983+010233FM-15+0629EDJA V0201901N002112200019N0060001N1+00901+00901999999ADDGA1041+015001999GF104991999999999999999999MA1101591999999MW1611REMMET055METAR EDJA 031950Z 19004KT 6000 -RA SCT050 09/09 Q1016;
0143109470999992007090403504+47983+010233FM-15+0629EDJA V0202801N002610051019N0090001N1+00801+00801999999ADDGA1041+002401999GA2071+005101999GF107991999999999999999999MA1101801999999REMMET058METAR EDJA 040350Z 28005KT 9000 SCT008 BKN017 08/08 Q1018;
0143109470999992007090404504+47983+010233FM-15+0629EDJA V0209999V001010078019N0060001N1+00801+00801999999ADDGA1041+002401999GA2071+007801999GF107991999999999999999999MA1101801999999REMMET058METAR EDJA 040450Z VRB02KT 6000 SCT008 BKN026 08/08 Q1018;
0080109470999992007090405504+47983+010233FM-15+0629EDJA V0203001N001612200019N9999999N1+00801+00801999999ADDMA1101801999999REMMET053METAR EDJA 040550Z 30003KT SCT008 BKN025 08/08 Q1018;
0166109470999992007090406204+47983+010233FM-15+0629EDJA V0203101N00261004501CN0080001N1+00901+00801999999ADDGA1021+002401999GA2041+004501999GA3071+006601999GF107991999999999999999999MA1101901999999REMMET065METAR EDJA 040620Z 31005KT 8000 FEW008 SCT015 BKN022 09/08 Q1019;
0166109470999992007090406504+47983+010233FM-15+0629EDJA V0203301N002610048019N0112651N1+00901+00801999999ADDGA1021+002701999GA2071+004801999GA3071+006901999GF107991999999999999999999MA1101901999999REMMET065METAR EDJA 040650Z 33005KT 9999 FEW009 BKN016 BKN023 09/08 Q1019;
0087109470999992007090407204+47983+010233FM-15+0629EDJA V02099999999992200019N0112651N1+01001+00801999999ADDMA1101901999999REMMET060METAR EDJA 040720Z 310V020KT 9999 SCT012 SCT017 10/08 Q1019;
0153109470999992007090407504+47983+010233FM-15+0629EDJA V0203101N004610075019N0112651N1+01001+00801999999ADDGA1041+003901999GA2071+007501999GF107991999999999999999999MA1101901999999MW1611REMMET062METAR EDJA 040750Z 31009KT 9999 -RA SCT013 BKN025 10/08 Q1019;
0162109470999992007090408504+47983+010233FM-15+0629EDJA V0203601N005712200019N0112651N1+01001+00601999999ADDGA1041+006601999GA2041+013201999GF104991999999999999999999MA1101901999999MW1801REMMET071METAR EDJA 040850Z 36011KT 340V040 9999 -SHRA SCT022 SCT044 0/06 Q1019;
0151109470999992007090409504+47983+010233FM-15+0629EDJA V0203301N002112200019N0112651N1+01001+00701999999ADDGA1041+003901999GA2041+007501999GF104991999999999999999999MA1101901999999REMMET066METAR EDJA 040950Z 33004KT 270V070 9999 SCT013 SCT025 10/07 Q1019;
0142109470999992007090410504+47983+010233FM-15+0629EDJA V0203301N007712200019N0112651N1+01101+00701999999ADDGA1041+004201999GA2041+008401999GF104991999999999999999999MA1101901999999REMMET057METAR EDJA 041050Z 33015KT 9999 SCT014 SCT28 11/07 Q1019;
0120109470999992007090411504+47983+010233FM-15+0629EDJA V0203201N006712200019N0112651N1+01101+00401999999ADDGA1041+011401999GF104991999999999999999999MA1101901999999REMMET051METAR EDJA 041150Z 32013KT 9999 SCT038 11/04 Q1019;
0120109470999992007090412204+47983+010233FM-15+0629EDJA V0203201N005712200019N0112651N1+01201+00501999999ADDGA1041+010501999GF104991999999999999999999MA1101901999999REMMET051METAR EDJA 041220Z 32011KT 9999 SCT035 12/05 Q1019;
0120109470999992007090412504+47983+010233FM-15+0629EDJA V0203201N006212200019N0112651N1+01201+00401999999ADDGA1041+013501999GF104991999999999999999999MA1101901999999REMMET051METAR EDJA 041250Z 32012KT 9999 SCT045 12/04 Q1019;
0120109470999992007090413204+47983+010233FM-15+0629EDJA V0203501N006712200019N0112651N1+01101+00501999999ADDGA1041+011401999GF104991999999999999999999MA1102001999999REMMET051METAR EDJA 041320Z 35013KT 9999 SCT038 11/05 Q1020;
0120109470999992007090414504+47983+010233FM-15+0629EDJA V0202901N006712200019N0112651N1+01101+00501999999ADDGA1041+009901999GF104991999999999999999999MA1102001999999REMMET051METAR EDJA 041450Z 29013KT 9999 SCT033 11/05 Q1020;
0120109470999992007090503504+47983+010233FM-15+0629EDJA V0202701N004110060019N0112651N1+00601+00501999999ADDGA1071+006001999GF107991999999999999999999MA1102511999999REMMET051METAR EDJA 050350Z 27008KT 9999 BKN020 06/05 Q1025;
0120109470999992007090504204+47983+010233FM-15+0629EDJA V0202901N004110054019N0060001N1+00601+00501999999ADDGA1071+005401999GF107991999999999999999999MA1102511999999REMMET051METAR EDJA 050420Z 29008KT 6000 BKN018 06/05 Q1025;
0143109470999992007090504504+47983+010233FM-15+0629EDJA V0202601N002112200019N0070001N1+00601+00501999999ADDGA1041+004501999GA2041+010501999GF104991999999999999999999MA1102511999999REMMET058METAR EDJA 050450Z 26004KT 7000 SCT015 SCT035 06/05 Q1025;
0143109470999992007090505504+47983+010233FM-15+0629EDJA V0202701N004612200019N0080001N1+00601+00501999999ADDGA1041+006001999GA2041+012601999GF104991999999999999999999MA1102511999999REMMET058METAR EDJA 050550Z 27009KT 8000 SCT020 SCT042 06/05 Q1025;
0143109470999992007090506204+47983+010233FM-15+0629EDJA V0202601N004610126019N0112651N1+00601+00501999999ADDGA1021+003001999GA2071+012601999GF107991999999999999999999MA1102511999999REMMET058METAR EDJA 050620Z 26009KT 9999 FEW010 BKN042 06/05 Q1025;
0143109470999992007090506504+47983+010233FM-15+0629EDJA V0202801N004112200019N0112651N1+00701+00601999999ADDGA1041+006001999GA2041+014701999GF104991999999999999999999MA1102511999999REMMET058METAR EDJA 050650Z 28008KT 9999 SCT020 SCT049 07/06 Q1025;
0120109470999992007090507504+47983+010233FM-15+0629EDJA V0202901N006212200019N0112651N1+00701+00601999999ADDGA1041+006001999GF104991999999999999999999MA1102511999999REMMET051METAR EDJA 050750Z 29012KT 9999 SCT020 07/06 Q1025;
0143109470999992007090508504+47983+010233FM-15+0629EDJA V0202901N007210138019N0112651N1+00801+00601999999ADDGA1041+004201999GA2071+013801999GF107991999999999999999999MA1102611999999REMMET058METAR EDJA 050850Z 29014KT 9999 SCT014 BKN046 08/06 Q1026;
0143109470999992007090509504+47983+010233FM-15+0629EDJA V0203001N004610075019N0112651N1+00801+00601999999ADDGA1041+004501999GA2071+007501999GF107991999999999999999999MA1102611999999REMMET058METAR EDJA 050950Z 30009KT 9999 SCT015 BKN025 08/06 Q1026;
0143109470999992007090511504+47983+010233FM-15+0629EDJA V0203101N006212200019N0112651N1+01001+00701999999ADDGA1041+004501999GA2041+009601999GF104991999999999999999999MA1102611999999REMMET058METAR EDJA 051150Z 31012KT 9999 SCT015 SCT032 10/07 Q1026;
0143109470999992007090512504+47983+010233FM-15+0629EDJA V0203101N005112200019N0112651N1+01101+00701999999ADDGA1041+005701999GA2041+009601999GF104991999999999999999999MA1102611999999REMMET058METAR EDJA 051250Z 31010KT 9999 SCT019 SCT032 11/07 Q1026;
0147109470999992007090513504+47983+010233FM-15+0629EDJA V0200101N00821220001CN0060001N1+00801+00501999999ADDGA1071+004801999GA2041+009301999MA1102711999999MW1811REMMET063METAR EDJA 051350Z 01016KT 6000 SHRA BKN016 SCT031 08/05 Q1027;EQDQ01+000042SCOTCV
0120109470999992007090514504+47983+010233FM-15+0629EDJA V0202901N003612200019N0112651N1+00801+00601999999ADDGA1041+013501999GF104991999999999999999999MA1102711999999REMMET051METAR EDJA 051450Z 29007KT 9999 SCT045 08/06 Q1027;
0151109470999992007090515204+47983+010233FM-15+0629EDJA V0202801N003612200019N0112651N1+00801+00601999999ADDGA1021+004501999GA2041+018001999GF104991999999999999999999MA1102711999999REMMET066METAR EDJA 051520Z 28007KT 260V320 9999 FEW015 SCT068 08/06 Q1027;
0128109470999992007090515504+47983+010233FM-15+0629EDJA V0202901N003612200019N0112651N1+00901+00701999999ADDGA1021+005401999GF102991999999999999999999MA1102711999999REMMET059METAR EDJA 051550Z 29007KT 240V330 9999 FEW018 09/07 Q1027;
0128109470999992007090516204+47983+010233FM-15+0629EDJA V0202801N003610060019N0112651N1+00901+00701999999ADDGA1071+006001999GF107991999999999999999999MA1102711999999REMMET059METAR EDJA 051620Z 28007KT 220V320 9999 BKN020 09/07 Q1027;
0120109470999992007090516504+47983+010233FM-15+0629EDJA V0202901N003110210019N0112651N1+00901+00701999999ADDGA1071+021001999GF107991999999999999999999MA1102711999999REMMET051METAR EDJA 051650Z 29006KT 9999 BKN077 09/07 Q1027;
0143109470999992007090517504+47983+010233FM-15+0629EDJA V0202601N002112200019N0112651N1+00801+00601999999ADDGA1021+015001999GA2041+021001999GF104991999999999999999999MA1102711999999REMMET058METAR EDJA 051750Z 26004KT 9999 FEW055 SCT074 08/06 Q1027;
0072109470999992007090519504+47983+010233FM-15+0629EDJA V0201901N00261220001CN0099001N1+00501+00501999999ADDMA1102811999999REMMET045METAR EDJA 051950Z 19005KT CAVOK 05/05 Q1028;
0072109470999992007090603504+47983+010233FM-15+0629EDJA V0202201N00211220001CN0099001N1+00501+00401999999ADDMA1102611999999REMMET045METAR EDJA 060350Z 22004KT CAVOK 05/04 Q1026;
0120109470999992007090604204+47983+010233FM-15+0629EDJA V0202101N002612200019N0080001N1+00501+00401999999ADDGF100991999999999999999999MA1102611999999REMMET048METAR EDJA 060420Z 21005KT 8000 NSC 05/04 Q1026;EQDQ01    003SCCGA1
0120109470999992007090604504+47983+010233FM-15+0629EDJA V0201901N002612200019N0080001N1+00501+00501999999ADDGF100991999999999999999999MA1102611999999REMMET048METAR EDJA 060450Z 19005KT 8000 NSC 05/05 Q1026;EQDQ01    003SCCGA1
0120109470999992007090605204+47983+010233FM-15+0629EDJA V0202001N002612200019N0070001N1+00601+00501999999ADDGA1041+014101999GF104991999999999999999999MA1102611999999REMMET051METAR EDJA 060520Z 20005KT 7000 SCT047 06/05 Q1026;
0143109470999992007090606204+47983+010233FM-15+0629EDJA V0202201N004110150019N0060001N1+00601+00601999999ADDGA1021+001801999GA2071+015001999GF107991999999999999999999MA1102611999999REMMET058METAR EDJA 060620Z 22008KT 6000 FEW006 BKN055 06/06 Q1026;
0143109470999992007090607504+47983+010233FM-15+0629EDJA V0202601N004110270019N0080001N1+00701+00601999999ADDGA1021+001801999GA2071+027001999GF107991999999999999999999MA1102611999999REMMET058METAR EDJA 060750Z 26008KT 8000 FEW006 BKN095 07/06 Q1026;
0143109470999992007090608504+47983+010233FM-15+0629EDJA V0202401N003610240019N0080001N1+00801+00701999999ADDGA1021+003001999GA2071+024001999GF107991999999999999999999MA1102611999999REMMET058METAR EDJA 060850Z 24007KT 8000 FEW010 BKN089 08/07 Q1026;
0143109470999992007090609504+47983+010233FM-15+0629EDJA V0202601N004110240019N0112651N1+00901+00601999999ADDGA1041+004501999GA2071+024001999GF107991999999999999999999MA1102611999999REMMET058METAR EDJA 060950Z 26008KT 9999 SCT015 BKN082 09/06 Q1026;
0143109470999992007090610504+47983+010233FM-15+0629EDJA V0202601N004610240019N0112651N1+01001+00601999999ADDGA1041+006001999GA2071+024001999GF107991999999999999999999MA1102611999999REMMET058METAR EDJA 061050Z 26009KT 9999 SCT020 BKN081 10/06 Q1026;
0151109470999992007090611504+47983+010233FM-15+0629EDJA V0202501N003612200019N0112651N1+01101+00701999999ADDGA1041+009301999GA2041+024001999GF104991999999999999999999MA1102611999999REMMET066METAR EDJA 061150Z 25007KT 200V280 9999 SCT031 SCT085 11/07 Q1026;
0120109470999992007090612504+47983+010233FM-15+0629EDJA V0202201N004610084019N0112651N1+01101+00701999999ADDGA1071+008401999GF107991999999999999999999MA1102511999999REMMET051METAR EDJA 061250Z 22009KT 9999 BKN028 11/07 Q1025;
0128109470999992007090613504+47983+010233FM-15+0629EDJA V0202301N003110084019N0112651N1+01101+00701999999ADDGA1071+008401999GF107991999999999999999999MA1102511999999REMMET059METAR EDJA 061350Z 23006KT 180V270 9999 BKN028 11/07 Q1025;
0120109470999992007090614504+47983+010233FM-15+0629EDJA V0202401N004110090019N0112651N1+01201+00701999999ADDGA1071+009001999GF107991999999999999999999MA1102511999999REMMET051METAR EDJA 061450Z 24008KT 9999 BKN030 12/07 Q1025;
0120109470999992007090615204+47983+010233FM-15+0629EDJA V0202501N004610081019N0112651N1+01101+00701999999ADDGA1071+008101999GF107991999999999999999999MA1102511999999REMMET051METAR EDJA 061520Z 25009KT 9999 BKN027 11/07 Q1025;
0120109470999992007090615504+47983+010233FM-15+0629EDJA V0202601N004610084019N0112651N1+01101+00701999999ADDGA1071+008401999GF107991999999999999999999MA1102511999999REMMET051METAR EDJA 061550Z 26009KT 9999 BKN028 11/07 Q1025;
0129109470999992007090616504+47983+010233FM-15+0629EDJA V0202701N004110063019N0050001N1+01001+00901999999ADDGA1081+006301999GF108991999999999999999999MA1102511999999MW1531REMMET054METAR EDJA 061650Z 27008KT 5000 DZ OVC021 10/09 Q1025;
0139109470999992007090617204+47983+010233FM-15+0629EDJA V0202701N004110060019N0028001N1+01001+00901999999ADDGA1081+006001999GF108991999999999999999999MA1102511999999MW1101MW2611REMMET058METAR EDJA 061720Z 27008KT 2800 -RA BR OVC020 10/09 Q1025;
0139109470999992007090617504+47983+010233FM-15+0629EDJA V0202501N004110054019N0030001N1+01001+00901999999ADDGA1071+005401999GF107991999999999999999999MA1102611999999MW1101MW2611REMMET058METAR EDJA 061750Z 25008KT 3000 -RA BR BKN018 10/09 Q1026;
0139109470999992007090618204+47983+010233FM-15+0629EDJA V0202301N003610048019N0050001N1+00901+00901999999ADDGA1071+004801999GF107991999999999999999999MA1102611999999MW1101MW2611REMMET058METAR EDJA 061820Z 23007KT 5000 -RA BR BKN016 09/09 Q1026;
0139109470999992007090618504+47983+010233FM-15+0629EDJA V0202301N002610045019N0030001N1+00901+00901999999ADDGA1071+004501999GF107991999999999999999999MA1102611999999MW1101MW2611REMMET058METAR EDJA 061850Z 23005KT 3000 -RA BR BKN015 09/09 Q1026;
0139109470999992007090619204+47983+010233FM-15+0629EDJA V0202301N003110030019N0034001N1+00901+00901999999ADDGA1071+003001999GF107991999999999999999999MA1102611999999MW1101MW2611REMMET058METAR EDJA 061920Z 23006KT 3400 -RA BR BKN010 09/09 Q1026;
0152109470999992007090703504+47983+010233FM-15+0629EDJA V0202101N003610270019N0040001N1+00901+00901999999ADDGA1041+001201999GA2071+027001999GF107991999999999999999999MA1102511999999MW1101REMMET061METAR EDJA 070350Z 21007KT 4000 BR SCT004 BKN090 09/09 Q1025;
0152109470999992007090704504+47983+010233FM-15+0629EDJA V0202301N003110027019N0030001N1+01001+00901999999ADDGA1041+001201999GA2071+002701999GF107991999999999999999999MA1102511999999MW1101REMMET061METAR EDJA 070450Z 23006KT 3000 BR SCT004 BKN009 10/09 Q1025;
0152109470999992007090705504+47983+010233FM-15+0629EDJA V0202401N003110027019N0035001N1+01001+00901999999ADDGA1041+000601999GA2071+002701999GF107991999999999999999999MA1102611999999MW1101REMMET061METAR EDJA 070550Z 24006KT 3500 BR SCT002 BKN009 10/09 Q1026;
0152109470999992007090706504+47983+010233FM-15+0629EDJA V0202501N002610027019N0035001N1+01001+01001999999ADDGA1041+000901999GA2071+002701999GF107991999999999999999999MA1102611999999MW1101REMMET061METAR EDJA 070650Z 25005KT 3500 BR SCT003 BKN009 10/10 Q1026;
0152109470999992007090707204+47983+010233FM-15+0629EDJA V0202601N003110033019N0040001N1+01101+01001999999ADDGA1041+001801999GA2071+003301999GF107991999999999999999999MA1102611999999MW1101REMMET061METAR EDJA 070720Z 26006KT 4000 BR SCT006 BKN011 11/10 Q1026;
0143109470999992007090707504+47983+010233FM-15+0629EDJA V0202901N003610042019N0080001N1+01101+01001999999ADDGA1041+001801999GA2071+004201999GF107991999999999999999999MA1102611999999REMMET058METAR EDJA 070750Z 29007KT 8000 SCT006 BKN014 11/10 Q1026;
0143109470999992007090708204+47983+010233FM-15+0629EDJA V0202901N004110048019N0090001N1+01101+00901999999ADDGA1041+002401999GA2071+004801999GF107991999999999999999999MA1102611999999REMMET058METAR EDJA 070820Z 29008KT 9000 SCT008 BKN016 11/09 Q1026;
0143109470999992007090708504+47983+010233FM-15+0629EDJA V0203001N003610045019N0090001N1+01101+00901999999ADDGA1041+003001999GA2071+004501999GF107991999999999999999999MA1102611999999REMMET058METAR EDJA 070850Z 30007KT 9000 SCT010 BKN015 11/09 Q1026;
0143109470999992007090709204+47983+010233FM-15+0629EDJA V0203201N005110081019N0090001N1+01101+00901999999ADDGA1041+004201999GA2071+008101999GF107991999999999999999999MA1102611999999REMMET058METAR EDJA 070920Z 32010KT 9000 SCT014 BKN027 11/09 Q1026;
0143109470999992007090709504+47983+010233FM-15+0629EDJA V0203101N004112200019N0112651N1+01201+00901999999ADDGA1041+004501999GA2041+009001999GF104991999999999999999999MA1102611999999REMMET058METAR EDJA 070950Z 31008KT 9999 SCT015 SCT030 12/09 Q1026;
0120109470999992007090710204+47983+010233FM-15+0629EDJA V0202901N004112200019N0112651N1+01201+00901999999ADDGA1041+013501999GF104991999999999999999999MA1102511999999REMMET051METAR EDJA 071020Z 29008KT 9999 SCT045 12/09 Q1025;
0120109470999992007090710504+47983+010233FM-15+0629EDJA V0202801N005112200019N0112651N1+01301+00801999999ADDGA1041+007501999GF104991999999999999999999MA1102511999999REMMET051METAR EDJA 071050Z 28010KT 9999 SCT025 13/08 Q1025;
0128109470999992007090711204+47983+010233FM-15+0629EDJA V0203201N002610120019N0112651N1+01401+00801999999ADDGA1071+012001999GF107991999999999999999999MA1102511999999REMMET059METAR EDJA 071120Z 32005KT 260V360 9999 BKN040 14/08 Q1025;
0143109470999992007090711504+47983+010233FM-15+0629EDJA V0203201N002610114019N0112651N1+01401+00701999999ADDGA1041+007501999GA2071+011401999GF107991999999999999999999MA1102511999999REMMET058METAR EDJA 071150Z 32005KT 9999 SCT025 BKN038 14/07 Q1025;
0151109470999992007090712204+47983+010233FM-15+0629EDJA V0203201N003110120019N0112651N1+01401+00801999999ADDGA1021+009001999GA2071+012001999GF107991999999999999999999MA1102511999999REMMET066METAR EDJA 071220Z 32006KT 280V350 9999 FEW030 BKN040 14/08 Q1025;
0143109470999992007090712504+47983+010233FM-15+0629EDJA V0203101N004110120019N0112651N1+01401+00801999999ADDGA1021+009001999GA2071+012001999GF107991999999999999999999MA1102611999999REMMET058METAR EDJA 071250Z 31008KT 9999 FEW030 BKN040 14/08 Q1026;
0143109470999992007090713204+47983+010233FM-15+0629EDJA V0203301N004110120019N0112651N1+01401+00901999999ADDGA1021+007501999GA2071+012001999GF107991999999999999999999MA1102611999999REMMET058METAR EDJA 071320Z 33008KT 9999 FEW025 BKN040 14/09 Q1026;
0151109470999992007090713504+47983+010233FM-15+0629EDJA V0203201N003110126019N0112651N1+01401+00901999999ADDGA1021+007501999GA2071+012601999GF107991999999999999999999MA1102511999999REMMET066METAR EDJA 071350Z 32006KT 270V350 9999 FEW025 BKN042 14/09 Q1025;
0143109470999992007090714204+47983+010233FM-15+0629EDJA V0203101N003110120019N0112651N1+01301+00901999999ADDGA1021+007501999GA2081+012001999GF108991999999999999999999MA1102511999999REMMET058METAR EDJA 071420Z 31006KT 9999 FEW025 OVC040 13/09 Q1025;
0143109470999992007090714504+47983+010233FM-15+0629EDJA V0203101N004610099019N0112651N1+01301+01001999999ADDGA1021+007201999GA2081+009901999GF108991999999999999999999MA1102511999999REMMET058METAR EDJA 071450Z 31009KT 9999 FEW024 OVC033 13/10 Q1025;
0143109470999992007090715504+47983+010233FM-15+0629EDJA V0203001N004110081019N0112651N1+01301+00901999999ADDGA1021+005401999GA2071+008101999GF107991999999999999999999MA1102611999999REMMET058METAR EDJA 071550Z 30008KT 9999 FEW018 BKN027 13/09 Q1026;
0154109470999992007090716504+47983+010233FM-15+0629EDJA V0203001N002610081019N0045001N1+01201+01001999999ADDGA1041+005401999GA2071+008101999GF107991999999999999999999MA1102611999999MW1811REMMET063METAR EDJA 071650Z 30005KT 4500 SHRA SCT018 BKN027 12/10 Q1026;
0177109470999992007090717504+47983+010233FM-15+0629EDJA V0202701N00211003601CN0050001N1+01101+01101999999ADDGA1021+001501999GA2041+003601999GA3071+006001999GF107991999999999999999999MA1102611999999MW1811REMMET070METAR EDJA 071750Z 27004KT 5000 SHRA FEW005 SCT012 BKN020 11/11 Q1026;
0160109470999992007090718504+47983+010233FM-15+0629EDJA V0202701N001510072019N0060001N1+01101+01101999999ADDGA1021+003001999GA2071+007201999GF107991999999999999999999MA1102611999999MW1801REMMET069METAR EDJA 071850Z 27003KT 6000 -SHRA FEW010 BKN024 11/11 Q1026 RERA;
0120109470999992007090719504+47983+010233FM-15+0629EDJA V0202001N001510039019N0070001N1+01101+01101999999ADDGA1071+003901999GF107991999999999999999999MA1102611999999REMMET051METAR EDJA 071950Z 20003KT 7000 BKN013 11/11 Q1026;
0152109470999992007090803504+47983+010233FM-15+0629EDJA V0202401N001010270019N0050001N1+01001+00901999999ADDGA1041+004501999GA2071+027001999GF107991999999999999999999MA1102511999999MW1101REMMET061METAR EDJA 080350Z 24002KT 5000 BR SCT015 BKN093 10/09 Q1025;
0129109470999992007090804504+47983+010233FM-15+0629EDJA V0202101N001512200019N0050001N1+00901+00901999999ADDGA1041+014701999GF104991999999999999999999MA1102511999999MW1101REMMET054METAR EDJA 080450Z 21003KT 5000 BR SCT049 09/09 Q1025;
0129109470999992007090805504+47983+010233FM-15+0629EDJA V0202001N001510141019N0041001N1+01001+00901999999ADDGA1071+014101999GF107991999999999999999999MA1102511999999MW1101REMMET054METAR EDJA 080550Z 20003KT 4100 BR BKN047 10/09 Q1025;
0129109470999992007090806204+47983+010233FM-15+0629EDJA V0202001N001010135019N0045001N1+01001+01001999999ADDGA1071+013501999GF107991999999999999999999MA1102511999999MW1101REMMET054METAR EDJA 080620Z 20002KT 4500 BR BKN045 10/10 Q1025;
0129109470999992007090806504+47983+010233FM-15+0629EDJA V0202201N001510135019N0045001N1+01101+01101999999ADDGA1071+013501999GF107991999999999999999999MA1102511999999MW1101REMMET054METAR EDJA 080650Z 22003KT 4500 BR BKN045 11/11 Q1025;
0143109470999992007090807204+47983+010233FM-15+0629EDJA V0202201N001510129019N0070001N1+01101+01101999999ADDGA1041+004501999GA2071+012901999GF107991999999999999999999MA1102511999999REMMET058METAR EDJA 080720Z 22003KT 7000 SCT015 BKN043 11/11 Q1025;
0143109470999992007090807504+47983+010233FM-15+0629EDJA V0209999V001512200019N0080001N1+01201+01101999999ADDGA1041+003601999GA2041+005401999GF104991999999999999999999MA1102511999999REMMET058METAR EDJA 080750Z VRB03KT 8000 SCT012 SCT018 12/11 Q1025;
0143109470999992007090808204+47983+010233FM-15+0629EDJA V0209999V001512200019N0080001N1+01201+01101999999ADDGA1041+003301999GA2041+012601999GF104991999999999999999999MA1102511999999REMMET058METAR EDJA 080820Z VRB03KT 8000 SCT011 SCT042 12/11 Q1025;
0143109470999992007090809204+47983+010233FM-15+0629EDJA V0203301N002112200019N0112651N1+01301+01101999999ADDGA1041+004501999GA2041+012601999GF104991999999999999999999MA1102511999999REMMET058METAR EDJA 080920Z 33004KT 9999 SCT015 SCT042 13/11 Q1025;
0143109470999992007090809504+47983+010233FM-15+0629EDJA V0203301N002612200019N0112651N1+01301+01001999999ADDGA1041+004501999GA2041+009901999GF104991999999999999999999MA1102511999999REMMET058METAR EDJA 080950Z 33005KT 9999 SCT015 SCT033 13/10 Q1025;
0143109470999992007090810204+47983+010233FM-15+0629EDJA V0203301N001512200019N0112651N1+01401+01001999999ADDGA1041+005401999GA2041+009301999GF104991999999999999999999MA1102511999999REMMET058METAR EDJA 081020Z 33003KT 9999 SCT018 SCT031 14/10 Q1025;
0151109470999992007090810504+47983+010233FM-15+0629EDJA V0203201N003610123019N0112651N1+01401+01001999999ADDGA1021+004501999GA2071+012301999GF107991999999999999999999MA1102401999999REMMET066METAR EDJA 081050Z 32007KT 280V360 9999 FEW015 BKN041 14/10 Q1024;
0166109470999992007090811204+47983+010233FM-15+0629EDJA V0203101N00311006601CN0112651N1+01401+00901999999ADDGA1021+004501999GA2041+006601999GA3071+012601999GF107991999999999999999999MA1102401999999REMMET065METAR EDJA 081120Z 31006KT 9999 FEW015 SCT022 BKN042 14/09 Q1024;
0120109470999992007090811504+47983+010233FM-15+0629EDJA V0203001N003610120019N0112651N1+01501+01001999999ADDGA1071+012001999GF107991999999999999999999MA1102401999999REMMET051METAR EDJA 081150Z 30007KT 9999 BKN040 15/10 Q1024;
0120109470999992007090812504+47983+010233FM-15+0629EDJA V0203101N003610120019N0112651N1+01401+01001999999ADDGA1071+012001999GF107991999999999999999999MA1102401999999REMMET051METAR EDJA 081250Z 31007KT 9999 BKN040 14/10 Q1024;
0120109470999992007090813204+47983+010233FM-15+0629EDJA V0203001N003610120019N0112651N1+01501+01001999999ADDGA1071+012001999GF107991999999999999999999MA1102401999999REMMET051METAR EDJA 081320Z 30007KT 9999 BKN040 15/10 Q1024;
0120109470999992007090816504+47983+010233FM-15+0629EDJA V0202601N002610135019N0112651N1+01401+01001999999ADDGA1071+013501999GF107991999999999999999999MA1102201999999REMMET051METAR EDJA 081650Z 26005KT 9999 BKN045 14/10 Q1022;
0130109470999992007090818504+47983+010233FM-15+0629EDJA V0203101N002110075019N0112651N1+01301+01101999999ADDGA1071+007501999GF107991999999999999999999MA1102301999999MW1611REMMET055METAR EDJA 081850Z 31004KT 9999 -RA BKN025 13/11 Q1023;
0129109470999992007090903504+47983+010233FM-15+0629EDJA V0201901N001510135019N0045001N1+01101+01001999999ADDGA1071+013501999GF107991999999999999999999MA1102001999999MW1101REMMET054METAR EDJA 090350Z 19003KT 4500 BR BKN045 11/10 Q1020;
0152109470999992007090904204+47983+010233FM-15+0629EDJA V0202101N001510144019N0045001N1+01101+01001999999ADDGA1021+005401999GA2071+014401999GF107991999999999999999999MA1102001999999MW1101REMMET061METAR EDJA 090420Z 21003KT 4500 BR FEW018 BKN048 11/10 Q1020;
0152109470999992007090904504+47983+010233FM-15+0629EDJA V0202201N001510150019N0045001N1+01101+01001999999ADDGA1041+005401999GA2071+015001999GF107991999999999999999999MA1102001999999MW1101REMMET061METAR EDJA 090450Z 22003KT 4500 BR SCT018 BKN054 11/10 Q1020;
0129109470999992007090905504+47983+010233FM-15+0629EDJA V0202101N002610144019N0045001N1+01101+01001999999ADDGA1071+014401999GF107991999999999999999999MA1102001999999MW1101REMMET054METAR EDJA 090550Z 21005KT 4500 BR BKN048 11/10 Q1020;
0120109470999992007090906504+47983+010233FM-15+0629EDJA V0202301N002612200019N0080001N1+01201+01101999999ADDGA1021+010801999GF102991999999999999999999MA1102001999999REMMET051METAR EDJA 090650Z 23005KT 8000 FEW036 12/11 Q1020;
0120109470999992007090907504+47983+010233FM-15+0629EDJA V0202401N002112200019N0090001N1+01301+01101999999ADDGA1021+003601999GF102991999999999999999999MA1102001999999REMMET051METAR EDJA 090750Z 24004KT 9000 FEW012 13/11 Q1020;
0143109470999992007090908504+47983+010233FM-15+0629EDJA V0202201N003110150019N0080001N1+01401+01101999999ADDGA1041+004501999GA2071+015001999GF107991999999999999999999MA1102001999999REMMET058METAR EDJA 090850Z 22006KT 8000 SCT015 BKN054 14/11 Q1020;
0086109470999992007090910504+47983+010233FM-15+0629EDJA V0203501N004712200019N9999999N1+01301+01001999999ADDMA1102001999999REMMET059METAR EDJA 091050Z 35009KT -SHRA SCT027 BKN048 13/10 Q1020;
0151109470999992007090911504+47983+010233FM-15+0629EDJA V0203101N002612200019N0112651N1+01401+01001999999ADDGA1021+003601999GA2041+012601999GF104991999999999999999999MA1102001999999REMMET066METAR EDJA 091150Z 31005KT 270V350 9999 FEW012 SCT042 14/10 Q1020;
0143109470999992007090912504+47983+010233FM-15+0629EDJA V0202601N002612200019N0112651N1+01501+01001999999ADDGA1021+008401999GA2041+015001999GF104991999999999999999999MA1102001999999REMMET058METAR EDJA 091250Z 26005KT 9999 FEW028 SCT058 15/10 Q1020;
0143109470999992007090913504+47983+010233FM-15+0629EDJA V0203001N004112200019N0112651N1+01601+01001999999ADDGA1021+008401999GA2041+014101999GF104991999999999999999999MA1101901999999REMMET058METAR EDJA 091350Z 30008KT 9999 FEW028 SCT047 16/10 Q1019;
0120109470999992007090914504+47983+010233FM-15+0629EDJA V0203401N003612200019N0112651N1+01501+01001999999ADDGA1041+014701999GF104991999999999999999999MA1102001999999REMMET051METAR EDJA 091450Z 34007KT 9999 SCT049 15/10 Q1020;
0120109470999992007090915504+47983+010233FM-15+0629EDJA V0203101N003612200019N0112651N1+01501+00901999999ADDGA1041+014101999GF104991999999999999999999MA1102001999999REMMET051METAR EDJA 091550Z 31007KT 9999 SCT047 15/09 Q1020;
0143109470999992007090916504+47983+010233FM-15+0629EDJA V0203501N002612200019N0112651N1+01401+01001999999ADDGA1041+014401999GA2041+018001999GF104991999999999999999999MA1102001999999REMMET058METAR EDJA 091650Z 35005KT 9999 SCT048 SCT069 14/10 Q1020;
0072109470999992007090917504+47983+010233FM-15+0629EDJA V0203001N00151220001CN0099001N1+01201+01001999999ADDMA1102001999999REMMET045METAR EDJA 091750Z 30003KT CAVOK 12/10 Q1020;
0143109470999992007090918504+47983+010233FM-15+0629EDJA V0203201N001512200019N0112651N1+01201+01001999999ADDGA1041+009601999GA2041+014401999GF104991999999999999999999MA1102101999999REMMET058METAR EDJA 091850Z 32003KT 9999 SCT032 SCT048 12/10 Q1021;
0143109470999992007090919204+47983+010233FM-15+0629EDJA V0200401N001012200019N0112651N1+01101+01001999999ADDGA1041+009601999GA2041+013501999GF104991999999999999999999MA1102101999999REMMET058METAR EDJA 091920Z 04002KT 9999 SCT032 SCT045 11/10 Q1021;
0143109470999992007090919504+47983+010233FM-15+0629EDJA V0209999V001012200019N0112651N1+01201+00901999999ADDGA1041+010501999GA2041+013801999GF104991999999999999999999MA1102101999999REMMET058METAR EDJA 091950Z VRB02KT 9999 SCT035 SCT046 12/09 Q1021;
0129109470999992007091003204+47983+010233FM-15+0629EDJA V0209999V001012200019N0045001N1+00601+00601999999ADDGF100991999999999999999999MA1101901999999MW1101REMMET051METAR EDJA 100320Z VRB02KT 4500 BR SKC 06/06 Q1019;EQDQ01    003SCCGA1
0129109470999992007091003504+47983+010233FM-15+0629EDJA V0201701N001512200019N0045001N1+00601+00601999999ADDGF100991999999999999999999MA1101901999999MW1101REMMET051METAR EDJA 100350Z 17003KT 4500 BR SKC 06/06 Q1019;EQDQ01    003SCCGA1
0129109470999992007091004204+47983+010233FM-15+0629EDJA V0209999C000012200019N0045001N1+00501+00501999999ADDGF100991999999999999999999MA1101901999999MW1441REMMET051METAR EDJA 100420Z 00000KT 4500 FG NSC 05/05 Q1019;EQDQ01    003SCCGA1
0120109470999992007091004504+47983+010233FM-15+0629EDJA V0209999C000012200019N0050001N1+00501+00501999999ADDGF100991999999999999999999MA1101901999999REMMET048METAR EDJA 100450Z 00000KT 5000 NSC 05/05 Q1019;EQDQ01    003SCCGA1
0129109470999992007091005204+47983+010233FM-15+0629EDJA V0209999V001012200019N0045001N1+00501+00501999999ADDGF100991999999999999999999MA1101901999999MW1101REMMET051METAR EDJA 100520Z VRB02KT 4500 BR NSC 05/05 Q1019;EQDQ01    003SCCGA1
0129109470999992007091005504+47983+010233FM-15+0629EDJA V0201801N001012200019N0045001N1+00601+00601999999ADDGF100991999999999999999999MA1101901999999MW1101REMMET051METAR EDJA 100550Z 18002KT 4500 BR NSC 06/06 Q1019;EQDQ01    003SCCGA1
0120109470999992007091006504+47983+010233FM-15+0629EDJA V0202101N001512200019N0070001N1+00901+00901999999ADDGA1021+002701999GF102991999999999999999999MA1101801999999REMMET051METAR EDJA 100650Z 21003KT 7000 FEW009 09/09 Q1018;
0120109470999992007091007504+47983+010233FM-15+0629EDJA V0202301N004112200019N0090001N1+01001+00901999999ADDGA1041+001801999GF104991999999999999999999MA1101801999999REMMET051METAR EDJA 100750Z 23008KT 9000 SCT006 10/09 Q1018;
0120109470999992007091009504+47983+010233FM-15+0629EDJA V0202301N004112200019N0112651N1+01401+01001999999ADDGA1041+006301999GF104991999999999999999999MA1101801999999REMMET051METAR EDJA 100950Z 23008KT 9999 SCT021 14/10 Q1018;
0120109470999992007091010504+47983+010233FM-15+0629EDJA V0202601N007212200019N0112651N1+01501+00901999999ADDGA1041+007201999GF104991999999999999999999MA1101691999999REMMET051METAR EDJA 101050Z 26014KT 9999 SCT024 15/09 Q1017;
0120109470999992007091011504+47983+010233FM-15+0629EDJA V0202601N007712200019N0112651N1+01601+00901999999ADDGA1021+010501999GF102991999999999999999999MA1101591999999REMMET051METAR EDJA 101150Z 26015KT 9999 FEW035 16/09 Q1016;
0120109470999992007091012504+47983+010233FM-15+0629EDJA V0202501N007712200019N0112651N1+01501+00901999999ADDGA1021+010501999GF102991999999999999999999MA1101591999999REMMET051METAR EDJA 101250Z 25015KT 9999 FEW035 15/09 Q1016;
0120109470999992007091013504+47983+010233FM-15+0629EDJA V0202401N006212200019N0112651N1+01501+00901999999ADDGA1021+009601999GF102991999999999999999999MA1101491999999REMMET051METAR EDJA 101350Z 24012KT 9999 FEW032 15/09 Q1015;
0120109470999992007091014504+47983+010233FM-15+0629EDJA V0202801N006210093019N0112651N1+01401+00901999999ADDGA1071+009301999GF107991999999999999999999MA1101491999999REMMET051METAR EDJA 101450Z 28012KT 9999 BKN031 14/09 Q1015;
0120109470999992007091015504+47983+010233FM-15+0629EDJA V0202901N005110090019N0112651N1+01301+00801999999ADDGA1071+009001999GF107991999999999999999999MA1101491999999REMMET051METAR EDJA 101550Z 29010KT 9999 BKN030 13/08 Q1015;
0120109470999992007091016204+47983+010233FM-15+0629EDJA V0202801N005110096019N0112651N1+01301+00801999999ADDGA1071+009601999GF107991999999999999999999MA1101491999999REMMET051METAR EDJA 101620Z 28010KT 9999 BKN032 13/08 Q1015;
0155109470999992007091016504+47983+010233FM-15+0629EDJA V0202601N005710147019N0112651N1+01301+00701999999ADDGA1021+008401999GA2071+014701999GF107991999999999999999999MA1101491999999MW1801REMMET064METAR EDJA 101650Z 26011KT 9999 -SHRA FEW028 BKN049 13/07 Q1015;
0072109470999992007091017504+47983+010233FM-15+0629EDJA V0202301N00511220001CN0099001N1+01301+00801999999ADDMA1101391999999REMMET045METAR EDJA 101750Z 23010KT CAVOK 13/08 Q1014;
0120109470999992007091018504+47983+010233FM-15+0629EDJA V0202401N004110141019N0112651N1+01301+00901999999ADDGA1071+014101999GF107991999999999999999999MA1101491999999REMMET051METAR EDJA 101850Z 24008KT 9999 BKN047 13/09 Q1015;
0120109470999992007091103504+47983+010233FM-15+0629EDJA V0203001N004612200019N0112651N1+00801+00701999999ADDGA1041+012601999GF104991999999999999999999MA1101691999999REMMET051METAR EDJA 110350Z 30009KT 9999 SCT042 08/07 Q1017;
0120109470999992007091104204+47983+010233FM-15+0629EDJA V0202801N004112200019N0112651N1+00801+00701999999ADDGA1021+006001999GF102991999999999999999999MA1101691999999REMMET051METAR EDJA 110420Z 28008KT 9999 FEW020 08/07 Q1017;
0143109470999992007091104504+47983+010233FM-15+0629EDJA V0202801N003612200019N0112651N1+00801+00701999999ADDGA1041+009001999GA2041+014701999GF104991999999999999999999MA1101801999999REMMET058METAR EDJA 110450Z 28007KT 9999 SCT030 SCT049 08/07 Q1018;
0120109470999992007091105204+47983+010233FM-15+0629EDJA V0202401N003612200019N0112651N1+00801+00701999999ADDGA1041+009001999GF104991999999999999999999MA1101801999999REMMET051METAR EDJA 110520Z 24007KT 9999 SCT030 08/07 Q1018;
0120109470999992007091106204+47983+010233FM-15+0629EDJA V0202401N004612200019N0112651N1+00901+00701999999ADDGA1041+006001999GF104991999999999999999999MA1101901999999REMMET051METAR EDJA 110620Z 24009KT 9999 SCT020 09/07 Q1019;
0120109470999992007091107504+47983+010233FM-15+0629EDJA V0202701N004612200019N0112651N1+01001+00701999999ADDGA1041+006001999GF104991999999999999999999MA1102001999999REMMET051METAR EDJA 110750Z 27009KT 9999 SCT020 10/07 Q1020;
0143109470999992007091108504+47983+010233FM-15+0629EDJA V0202501N005710087019N0112651N1+01101+00701999999ADDGA1041+005401999GA2071+008701999GF107991999999999999999999MA1102001999999REMMET058METAR EDJA 110850Z 25011KT 9999 SCT018 BKN029 11/07 Q1020;
0143109470999992007091109504+47983+010233FM-15+0629EDJA V0202501N005112200019N0112651N1+01101+00701999999ADDGA1041+006001999GA2041+009001999GF104991999999999999999999MA1102101999999REMMET058METAR EDJA 110950Z 25010KT 9999 SCT020 SCT030 11/07 Q1021;
0143109470999992007091110504+47983+010233FM-15+0629EDJA V0202301N004112200019N0112651N1+01101+00701999999ADDGA1041+006601999GA2041+010501999GF104991999999999999999999MA1102101999999REMMET058METAR EDJA 111050Z 23008KT 9999 SCT022 SCT035 11/07 Q1021;
0155109470999992007091112204+47983+010233FM-15+0629EDJA V0202901N004110105019N0112651N1+01101+00901999999ADDGA1041+003901999GA2071+010501999GF107991999999999999999999MA1102101999999MW1801REMMET064METAR EDJA 111220Z 29008KT 9999 -SHRA SCT013 BKN035 11/09 Q1021;
0086109470999992007091112504+47983+010233FM-15+0629EDJA V0202801N002612200019N9999999N1+01101+00801999999ADDMA1102101999999REMMET059METAR EDJA 111250Z 28005KT -SHRA FEW018 BKN027 11/08 Q1021;
0143109470999992007091113504+47983+010233FM-15+0629EDJA V0202501N003610144019N0112651N1+01201+00901999999ADDGA1021+006301999GA2071+014401999GF107991999999999999999999MA1102101999999REMMET058METAR EDJA 111350Z 25007KT 9999 FEW021 BKN048 12/09 Q1021;
0120109470999992007091114204+47983+010233FM-15+0629EDJA V0202501N003112200019N0112651N1+01201+00801999999ADDGA1041+007501999GF104991999999999999999999MA1102101999999REMMET051METAR EDJA 111420Z 25006KT 9999 SCT025 12/08 Q1021;
0143109470999992007091114504+47983+010233FM-15+0629EDJA V0202401N004112200019N0112651N1+01301+00801999999ADDGA1041+007501999GA2041+013501999GF104991999999999999999999MA1102201999999REMMET058METAR EDJA 111450Z 24008KT 9999 SCT025 SCT045 13/08 Q1022;
0143109470999992007091115204+47983+010233FM-15+0629EDJA V0209999V001512200019N0112651N1+01201+00801999999ADDGA1041+007201999GA2041+012601999GF104991999999999999999999MA1102201999999REMMET058METAR EDJA 111520Z VRB03KT 9999 SCT024 SCT042 12/08 Q1022;
0143109470999992007091115504+47983+010233FM-15+0629EDJA V0203101N002110144019N0112651N1+01201+00701999999ADDGA1041+008101999GA2071+014401999GF107991999999999999999999MA1102201999999REMMET058METAR EDJA 111550Z 31004KT 9999 SCT027 BKN048 12/07 Q1022;
0166109470999992007091116204+47983+010233FM-15+0629EDJA V0203301N00101007201CN0112651N1+01201+00801999999ADDGA1021+005401999GA2041+007201999GA3071+014401999GF107991999999999999999999MA1102201999999REMMET065METAR EDJA 111620Z 33002KT 9999 FEW018 SCT024 BKN048 12/08 Q1022;
0120109470999992007091116504+47983+010233FM-15+0629EDJA V0209999V001510144019N0112651N1+01201+00801999999ADDGA1071+014401999GF107991999999999999999999MA1102201999999REMMET051METAR EDJA 111650Z VRB03KT 9999 BKN048 12/08 Q1022;
0120109470999992007091117204+47983+010233FM-15+0629EDJA V0202401N001512200019N0112651N1+01101+00901999999ADDGA1021+007201999GF102991999999999999999999MA1102301999999REMMET051METAR EDJA 111720Z 24003KT 9999 FEW024 11/09 Q1023;
0072109470999992007091117504+47983+010233FM-15+0629EDJA V0202001N00151220001CN0099001N1+01101+00901999999ADDMA1102301999999REMMET045METAR EDJA 111750Z 20003KT CAVOK 11/09 Q1023;
0072109470999992007091118204+47983+010233FM-15+0629EDJA V0209999V00101220001CN0099001N1+01001+00801999999ADDMA1102301999999REMMET045METAR EDJA 111820Z VRB02KT CAVOK 10/08 Q1023;
0072109470999992007091118504+47983+010233FM-15+0629EDJA V0202901N00101220001CN0099001N1+01001+00801999999ADDMA1102401999999REMMET045METAR EDJA 111850Z 29002KT CAVOK 10/08 Q1024;
0072109470999992007091119204+47983+010233FM-15+0629EDJA V0209999V00101220001CN0099001N1+00901+00801999999ADDMA1102401999999REMMET045METAR EDJA 111920Z VRB02KT CAVOK 09/08 Q1024;
0072109470999992007091119504+47983+010233FM-15+0629EDJA V0209999V00151220001CN0099001N1+00901+00801999999ADDMA1102401999999REMMET045METAR EDJA 111950Z VRB03KT CAVOK 09/08 Q1024;
0129109470999992007091203504+47983+010233FM-15+0629EDJA V0201701N001512200019N0046001N1+00601+00501999999ADDGF100991999999999999999999MA1102401999999MW1101REMMET051METAR EDJA 120350Z 17003KT 4600 BR NSC 06/05 Q1024;EQDQ01    003SCCGA1
0131109470999992007091204204+47983+010233FM-15+0629EDJA V0201801N001512200019N0060001N1+00501+00501999999ADDGF100991999999999999999999MA1102401999999MW1411REMMET053METAR EDJA 120420Z 18003KT 6000 BCFG NSC 05/05 Q1024;EQDQ01    003SCCGA1
0120109470999992007091204504+47983+010233FM-15+0629EDJA V0201501N001512200019N0080001N1+00501+00501999999ADDGF100991999999999999999999MA1102401999999REMMET048METAR EDJA 120450Z 15003KT 8000 NSC 05/05 Q1024;EQDQ01    003SCCGA1
0072109470999992007091205504+47983+010233FM-15+0629EDJA V0209999C00001220001CN0099001N1+00501+00501999999ADDMA1102401999999REMMET045METAR EDJA 120550Z 00000KT CAVOK 05/05 Q1024;
0072109470999992007091206504+47983+010233FM-15+0629EDJA V0200401N00101220001CN0099001N1+00901+00801999999ADDMA1102511999999REMMET045METAR EDJA 120650Z 04002KT CAVOK 09/08 Q1025;
0072109470999992007091207504+47983+010233FM-15+0629EDJA V0200501N00261220001CN0099001N1+01201+00901999999ADDMA1102511999999REMMET045METAR EDJA 120750Z 05005KT CAVOK 12/09 Q1025;
0072109470999992007091208204+47983+010233FM-15+0629EDJA V0200501N00311220001CN0099001N1+01301+01001999999ADDMA1102511999999REMMET045METAR EDJA 120820Z 05006KT CAVOK 13/10 Q1025;
0120109470999992007091208504+47983+010233FM-15+0629EDJA V0200501N003112200019N0112651N1+01401+01001999999ADDGA1021+004201999GF102991999999999999999999MA1102511999999REMMET051METAR EDJA 120850Z 05006KT 9999 FEW014 14/10 Q1025;
0120109470999992007091209204+47983+010233FM-15+0629EDJA V0200601N003112200019N0112651N1+01401+01001999999ADDGA1021+005401999GF102991999999999999999999MA1102511999999REMMET051METAR EDJA 120920Z 06006KT 9999 FEW018 14/10 Q1025;
0128109470999992007091209504+47983+010233FM-15+0629EDJA V0200501N003612200019N0112651N1+01401+01001999999ADDGA1021+006001999GF102991999999999999999999MA1102511999999REMMET059METAR EDJA 120950Z 05007KT 030V110 9999 FEW020 14/10 Q1025;
0128109470999992007091210204+47983+010233FM-15+0629EDJA V0200601N003612200019N0112651N1+01601+01101999999ADDGA1041+006001999GF104991999999999999999999MA1102511999999REMMET059METAR EDJA 121020Z 06007KT 010V100 9999 SCT020 16/11 Q1025;
