0168100465999992007010100204+54367+010133FM-15+0032EDHK V0201901N008210045019N0080001N1+00801+00601999999ADDGA1041+002401999GA2071+004501999GF107991999999999999999999MA1100201999999MW1611OC101491REMMET069METAR EDHK 010020Z 19016G29KT 8000 -RA SCT008 BKN015 08/06 Q1002 WHT;
0180100465999992007010101204+54367+010133FM-15+0032EDHK V0202201N007710054019N0080001N1+00901+00701999999ADDGA1041+002101999GA2071+005401999GA3071+012001999GF107991999999999999999999MA1100001999999MW1611REMMET073METAR EDHK 010120Z 22015KT 8000 -RA SCT007 BKN018 BKN040 09/07 Q1000 WHT;
0135100465999992007010102204+54367+010133FM-15+0032EDHK V0202301N008710096019N0112651N1+01001+00701999999ADDGA1071+009601999GF107991999999999999999999MA1100001999999OC101391REMMET058METAR EDHK 010220Z 23017G27KT 9999 BKN032 10/07 Q1000 BLU;
0136100465999992007010103204+54367+010133FM-15+0032EDHK V0202301N010312200019N0112651N1+00901+00501999999ADDGA1041+075001999GF104991999999999999999999MA1099901999999OC101751REMMET059METAR EDHK 010320Z 23020G34KT 9999 SCT250 09/05 Q0999 BLU+;
0159100465999992007010105204+54367+010133FM-15+0032EDHK V0202301N009812200019N0112651N1+00901+00401999999ADDGA1041+007501999GA2041+051001999GF104991999999999999999999MA1099901999999OC101701REMMET066METAR EDHK 010520Z 23019G33KT 9999 SCT025 SCT170 09/04 Q0999 BLU+;
0135100465999992007010106204+54367+010133FM-15+0032EDHK V0202301N006210066019N0112651N1+00901+00401999999ADDGA1071+006601999GF107991999999999999999999MA1099801999999OC101851REMMET058METAR EDHK 010620Z 23012G36KT 9999 BKN022 09/04 Q0998 WHT;
0158100465999992007010107204+54367+010133FM-15+0032EDHK V0202401N010810150019N0112651N1+00901+00401999999ADDGA1041+006001999GA2071+015001999GF107991999999999999999999MA1099801999999OC101951REMMET065METAR EDHK 010720Z 24021G38KT 9999 SCT020 BKN050 09/04 Q0998 BLU;
0158100465999992007010108204+54367+010133FM-15+0032EDHK V0202301N011310150019N0112651N1+00801+00401999999ADDGA1041+006001999GA2071+015001999GF107991999999999999999999MA1099801999999OC101951REMMET065METAR EDHK 010820Z 23022G38KT 9999 SCT020 BKN050 08/04 Q0998 BLU;
0158100465999992007010109204+54367+010133FM-15+0032EDHK V0202321N006210150019N0112651N1+00801+00401999999ADDGA1041+006001999GA2071+015001999GF107991999999999999999999MA1099801999999OC101861REMMET065METAR EDHK 010920Z 23212G36KT 9999 SCT020 BKN050 08/04 Q0998 BLU;
0158100465999992007010110204+54367+010133FM-15+0032EDHK V0202301N011310150019N0112651N1+00801+00401999999ADDGA1041+006001999GA2071+015001999GF107991999999999999999999MA1099901999999OC101851REMMET065METAR EDHK 011020Z 23022G36KT 9999 SCT020 BKN050 08/04 Q0999 BLU;
0158100465999992007010111204+54367+010133FM-15+0032EDHK V0202401N010310150019N0112651N1+00901+00401999999ADDGA1041+006001999GA2071+015001999GF107991999999999999999999MA1099901999999OC101901REMMET065METAR EDHK 011120Z 24020G37KT 9999 SCT020 BKN050 09/04 Q0999 BLU;
0158100465999992007010112204+54367+010133FM-15+0032EDHK V0202401N010810150019N0112651N1+00901+00401999999ADDGA1041+006001999GA2071+015001999GF107991999999999999999999MA1099901999999OC101801REMMET065METAR EDHK 011220Z 24021G35KT 9999 SCT020 BKN050 09/04 Q0999 BLU;
0158100465999992007010113204+54367+010133FM-15+0032EDHK V0202401N009810150019N0112651N1+00901+00401999999ADDGA1041+006901999GA2071+015001999GF107991999999999999999999MA1099901999999OC101541REMMET065METAR EDHK 011320Z 24019G30KT 9999 SCT023 BKN050 09/04 Q0999 BLU;
0138100465999992007010114204+54367+010133FM-15+0032EDHK V0202501N010312200019N0112651N1+00701+00301999999ADDGA1041+006901091GF104991999999999999999999MA1100001999999OC101591REMMET061METAR EDHK 011420Z 25020G31KT 9999 SCT023CB 07/03 Q1000 BLU+;
0151100465999992007010115204+54367+010133FM-15+0032EDHK V0202401N009312200019N0112651N1+00801+00301999999ADDGA1021+006901021GA2041+015001999GF104991999999999999999999MA1100001999999REMMET066METAR EDHK 011520Z 24018KT 9999 FEW023TCU SCT050 08/03 Q1000 BLU+;
0159100465999992007010116204+54367+010133FM-15+0032EDHK V0202401N008712200019N0112651N1+00701+00301999999ADDGA1021+006601999GA2041+015001999GF104991999999999999999999MA1100201999999OC101441REMMET066METAR EDHK 011620Z 24017G28KT 9999 FEW022 SCT050 07/03 Q1002 BLU+;
0158100465999992007010116484+54367+010133FM-16+0032EDHK V0202501N010310150019N0112651N1+00701+00301999999ADDGA1041+006601999GA2071+015001999GF107991999999999999999999MA1100311999999OC101801REMMET065SPECI EDHK 011648Z 25020G35KT 9999 SCT022 BKN050 07/03 Q1003 BLU;
0158100465999992007010117204+54367+010133FM-15+0032EDHK V0202501N010310150019N0112651N1+00701+00301999999ADDGA1021+006601999GA2071+015001999GF107991999999999999999999MA1100201999999OC101591REMMET065METAR EDHK 011720Z 25020G31KT 9999 FEW022 BKN050 07/03 Q1002 BLU;
0150100465999992007010118204+54367+010133FM-15+0032EDHK V0202401N008710660019N0112651N1+00601+00301999999ADDGA1021+006601091GA2071+066001999GF107991999999999999999999MA1100311999999REMMET065METAR EDHK 011820Z 24017KT 9999 FEW022CB BKN220 06/03 Q1003 BLU+;
0147100465999992007010119204+54367+010133FM-15+0032EDHK V0202501N008710090019N0112651N1+00701+00201999999ADDGA1021+006001999GA2071+009001999GF107991999999999999999999MA1100311999999REMMET062METAR EDHK 011920Z 25017KT 9999 FEW020 BKN030 07/02 Q1003 BLU;
0148100465999992007010120204+54367+010133FM-15+0032EDHK V0202501N008712200019N0112651N1+00701+00201999999ADDGA1021+006001999GA2041+009001999GF104991999999999999999999MA1100411999999REMMET063METAR EDHK 012020Z 25017KT 9999 FEW020 SCT030 07/02 Q1004 BLU+;
0128100465999992007010121204+54367+010133FM-15+0032EDHK V0202401N008712200019N0112651N1+00601+00201999999ADDGA1021+006001021GF102991999999999999999999MA1100511999999REMMET059METAR EDHK 012120Z 24017KT 9999 FEW020TCU 06/02 Q1005 BLU+;
0128100465999992007010122204+54367+010133FM-15+0032EDHK V0202401N008212200019N0112651N1+00601+00201999999ADDGA1021+006001021GF102991999999999999999999MA1100511999999REMMET059METAR EDHK 012220Z 24016KT 9999 FEW020TCU 06/02 Q1005 BLU+;
0178100465999992007010123204+54367+010133FM-15+0032EDHK V0202401N00721015001CN0112651N1+00501+00201999999ADDGA1021+005101021GA2041+015001999GA3071+027001999GF107991999999999999999999MA1100511999999REMMET077METAR EDHK 012320Z 24014KT 9999 FEW017TCU SCT050 BKN090 05/02 Q1005 RERA BLU;
0147100465999992007010200204+54367+010133FM-15+0032EDHK V0202201N004610060019N0112651N1+00601+00301999999ADDGA1071+006001999GA2071+009001999GF107991999999999999999999MA1100511999999REMMET062METAR EDHK 020020Z 22009KT 9999 BKN020 BKN030 06/03 Q1005 WHT;
0147100465999992007010201204+54367+010133FM-15+0032EDHK V0202101N005110060019N0112651N1+00501+00301999999ADDGA1071+006001999GA2071+021001999GF107991999999999999999999MA1100511999999REMMET062METAR EDHK 020120Z 21010KT 9999 BKN020 BKN070 05/03 Q1005 WHT;
0170100465999992007010202204+54367+010133FM-15+0032EDHK V0202201N005710210019N0112651N1+00501+00301999999ADDGA1041+006001999GA2071+021001999GA3071+036001999GF107991999999999999999999MA1100511999999REMMET069METAR EDHK 020220Z 22011KT 9999 SCT020 BKN070 BKN120 05/03 Q1005 BLU;
0161100465999992007010203204+54367+010133FM-15+0032EDHK V0202301N006210063019N0112651N1+00501+00301999999ADDGA1041+003601021GA2071+006301999GF107991999999999999999999MA1100511999999OC101131REMMET068METAR EDHK 020320Z 23012G22KT 9999 SCT012TCU BKN021 05/03 Q1005 WHT;
0187100465999992007010204204+54367+010133FM-15+0032EDHK V0202401N005710030019N0112651N1+00401+00201999999ADDGA1071+003001999GA2041+005401021GA3071+009001999GF107991999999999999999999MA1100611999999REMMET086METAR EDHK 020420Z 24011KT 9999 BKN010 SCT018TCU BKN030 04/02 Q1006 GRN GRN BECMG BLU;
0187100465999992007010205204+54367+010133FM-15+0032EDHK V0202301N006210030019N0112651N1+00401+00201999999ADDGA1071+003001999GA2041+006001021GA3071+015001999GF107991999999999999999999MA1100611999999REMMET086METAR EDHK 020520Z 23012KT 9999 BKN010 SCT020TCU BKN050 04/02 Q1006 GRN GRN BECMG BLU;
0161100465999992007010206204+54367+010133FM-15+0032EDHK V0202301N005110030019N0112651N1+00401+00201999999ADDGA1071+003001999GA2071+015001999GF107991999999999999999999MA1100611999999REMMET076METAR EDHK 020620Z 23010KT 9999 BKN010 BKN050 04/02 Q1006 GRN GRN BECMG BLU;
0161100465999992007010207014+54367+010133FM-16+0032EDHK V0202301N005110090019N0112651N1+00401+00201999999ADDGA1041+002701999GA2071+009001999GF107991999999999999999999MA1100711999999REMMET076SPECI EDHK 020701Z 23010KT 9999 SCT009 BKN030 04/02 Q1007 BLU BLU TEMPO WHT;
0161100465999992007010207204+54367+010133FM-15+0032EDHK V0202301N005110090019N0112651N1+00401+00201999999ADDGA1041+002401999GA2071+009001999GF107991999999999999999999MA1100611999999REMMET076METAR EDHK 020720Z 23010KT 9999 SCT008 BKN030 04/02 Q1006 BLU BLU TEMPO WHT;
0163100465999992007010208204+54367+010133FM-15+0032EDHK V0202301N004612200019N0112651N1+00401+00301999999ADDGA1041+004501091GA2041+009001999GF104991999999999999999999MA1100611999999REMMET078METAR EDHK 020820Z 23009KT 9999 SCT015CB SCT030 04/03 Q1006 BLU+BLU TEMPO WHT;
0163100465999992007010209204+54367+010133FM-15+0032EDHK V0202201N003612200019N0112651N1+00501+00301999999ADDGA1021+004501091GA2041+066001999GF104991999999999999999999MA1100611999999REMMET078METAR EDHK 020920Z 22007KT 9999 FEW015CB SCT220 05/03 Q1006 BLU+BLU TEMPO WHT;
0163100465999992007010210204+54367+010133FM-15+0032EDHK V0202401N004610150019N0112651N1+00601+00301999999ADDGA1041+005401091GA2071+015001999GF107991999999999999999999MA1100711999999REMMET078METAR EDHK 021020Z 24009KT 9999 SCT018CB BKN050 06/03 Q1007 BLU BLU TEMPO WHT;
0163100465999992007010211204+54367+010133FM-15+0032EDHK V0202301N004110660019N0112651N1+00801+00401999999ADDGA1021+006001091GA2071+066001999GF107991999999999999999999MA1100711999999REMMET078METAR EDHK 021120Z 23008KT 9999 FEW020CB BKN220 08/04 Q1007 BLU+BLU TEMPO WHT;
0186100465999992007010212204+54367+010133FM-15+0032EDHK V0202401N00621045001CN0112651N1+00701+00301999999ADDGA1041+006001091GA2041+045001999GA3071+066001999GF107991999999999999999999MA1100811999999REMMET085METAR EDHK 021220Z 24012KT 9999 SCT020CB SCT150 BKN220 07/03 Q1008 BLU+BLU TEMPO WHT;
0198100465999992007010213204+54367+010133FM-15+0032EDHK V0202501N00671015001CN0112651N1+00701+00301999999ADDGA1041+006001091GA2041+015001999GA3071+045001999GF107991999999999999999999MA1100811999999MW1801REMMET091METAR EDHK 021320Z 25013KT 9999 -SHRA SCT020CB SCT050 BKN150 07/03 Q1008 BLU BLU TEMPO WHT;
0174100465999992007010214204+54367+010133FM-15+0032EDHK V0202701N008710060019N0070001N1+00601+00301999999ADDGA1041+003001999GA2071+006001091GF107991999999999999999999MA1100911999999MW1811REMMET083METAR EDHK 021420Z 27017KT 7000 SHRA SCT010 BKN020CB 06/03 Q1009 WHT BLU TEMPO WHT;
0169100465999992007010215204+54367+010133FM-15+0032EDHK V0202401N004612200019N0112651N1+00401+00201999999ADDGA1021+006001091GA2041+045001999GF104991999999999999999999MA1101021999999REMMET084METAR EDHK 021520Z 24009KT 9999 FEW020CB SCT150 04/02 Q1010 RERA/ BLU+BLU+TEMPO GRN;
0140100465999992007010216204+54367+010133FM-15+0032EDHK V0202401N004612200019N0112651N1+00401+00201999999ADDGA1021+006001091GF102991999999999999999999MA1101081999999REMMET071METAR EDHK 021620Z 24009KT 9999 FEW020CB 04/02 Q1011 BLU+BLU+TEMPO GRN;
0138100465999992007010217204+54367+010133FM-15+0032EDHK V0202401N005712200019N0112651N1+00401+00201999999ADDGA1041+002401999GF104991999999999999999999MA1101191999999REMMET069METAR EDHK 021720Z 24011KT 9999 SCT008 04/02 Q1012 BLU+BLU+TEMPO GRN;
0138100465999992007010218204+54367+010133FM-15+0032EDHK V0202401N005112200019N0112651N1+00401+00201999999ADDGA1021+009001999GF102991999999999999999999MA1101291999999REMMET069METAR EDHK 021820Z 24010KT 9999 FEW030 04/02 Q1013 BLU+BLU+TEMPO GRN;
0159100465999992007010219204+54367+010133FM-15+0032EDHK V0202501N005712200019N0112651N1+00501+00301999999ADDGA1021+009001999GA2041+039001999GF104991999999999999999999MA1101291999999REMMET074METAR EDHK 021920Z 25011KT 9999 FEW030 SCT130 05/03 Q1013 BLU+FCST CANCEL;
0147100465999992007010220204+54367+010133FM-15+0032EDHK V0202501N005110330019N0112651N1+00501+00301999999ADDGA1021+008401999GA2071+033001999GF107991999999999999999999MA1101391999999REMMET062METAR EDHK 022020Z 25010KT 9999 FEW028 BKN110 05/03 Q1014 BLU;
0125100465999992007010221204+54367+010133FM-15+0032EDHK V0202701N006712200019N0112651N1+00501+00201999999ADDGA1021+008401999GF102991999999999999999999MA1101391999999REMMET056METAR EDHK 022120Z 27013KT 9999 FEW028 05/02 Q1014 BLU+;
0125100465999992007010222204+54367+010133FM-15+0032EDHK V0202701N005712200019N0112651N1+00501+00201999999ADDGA1021+008401999GF102991999999999999999999MA1101591999999REMMET056METAR EDHK 022220Z 27011KT 9999 FEW028 05/02 Q1016 BLU+;
0125100465999992007010223204+54367+010133FM-15+0032EDHK V0202601N005712200019N0112651N1+00501+00201999999ADDGA1021+008401999GF102991999999999999999999MA1101591999999REMMET056METAR EDHK 022320Z 26011KT 9999 FEW028 05/02 Q1016 BLU+;
0125100465999992007010300204+54367+010133FM-15+0032EDHK V0202601N006212200019N0112651N1+00501+00301999999ADDGA1021+008401999GF102991999999999999999999MA1101691999999REMMET056METAR EDHK 030020Z 26012KT 9999 FEW028 05/03 Q1017 BLU+;
0125100465999992007010301204+54367+010133FM-15+0032EDHK V0202401N004112200019N0112651N1+00501+00301999999ADDGA1021+007501999GF102991999999999999999999MA1101801999999REMMET056METAR EDHK 030120Z 24008KT 9999 FEW025 05/03 Q1018 BLU+;
0125100465999992007010302204+54367+010133FM-15+0032EDHK V0202501N003612200019N0112651N1+00501+00201999999ADDGA1021+007501999GF102991999999999999999999MA1101901999999REMMET056METAR EDHK 030220Z 25007KT 9999 FEW025 05/02 Q1019 BLU+;
0125100465999992007010303204+54367+010133FM-15+0032EDHK V0202501N004112200019N0112651N1+00501+00201999999ADDGA1021+007501999GF102991999999999999999999MA1101901999999REMMET056METAR EDHK 030320Z 25008KT 9999 FEW025 05/02 Q1019 BLU+;
0129100465999992007010304204+54367+010133FM-15+0032EDHK V0202601N005712200019N0112651N1+00501+00301999999ADDGA1041+008401999GF104991999999999999999999MA1102001999999REMMET060METAR EDHK 030420Z 26011KT 9999 SCT028 05/03 Q1020 BLU+BLU+;
0152100465999992007010305204+54367+010133FM-15+0032EDHK V0202501N004612200019N0112651N1+00501+00201999999ADDGA1021+008401999GA2041+072001999GF104991999999999999999999MA1102001999999REMMET067METAR EDHK 030520Z 25009KT 9999 FEW028 SCT240 05/02 Q1020 BLU+BLU+;
0175100465999992007010306204+54367+010133FM-15+0032EDHK V0202501N00411045001CN0112651N1+00501+00201999999ADDGA1021+009001999GA2041+045001999GA3071+072001999GF107991999999999999999999MA1102001999999REMMET074METAR EDHK 030620Z 25008KT 9999 FEW030 SCT150 BKN240 05/02 Q1020 BLU+BLU+;
0180100465999992007010307204+54367+010133FM-15+0032EDHK V0202401N00361045001CN0112651N1+00401+00201999999ADDGA1021+015001999GA2041+045001999GA3071+075001999GF107991999999999999999999MA1102001999999REMMET079METAR EDHK 030720Z 24007KT 9999 FEW050 SCT150 BKN250 04/02 Q1020 RERA BLU+BLU+;
0175100465999992007010308204+54367+010133FM-15+0032EDHK V0202401N00411045001CN0112651N1+00501+00301999999ADDGA1021+012001999GA2041+045001999GA3071+075001999GF107991999999999999999999MA1102001999999REMMET074METAR EDHK 030820Z 24008KT 9999 FEW040 SCT150 BKN250 05/03 Q1020 BLU+BLU+;
0175100465999992007010309204+54367+010133FM-15+0032EDHK V0202401N00511048001CN0112651N1+00601+00401999999ADDGA1021+006001999GA2041+048001999GA3071+069001999GF107991999999999999999999MA1102101999999REMMET074METAR EDHK 030920Z 24010KT 9999 FEW020 SCT160 BKN230 06/04 Q1021 BLU+BLU+;
0175100465999992007010310204+54367+010133FM-15+0032EDHK V0202301N00511045001CN0112651N1+00601+00401999999ADDGA1021+003001999GA2041+045001999GA3071+069001999GF107991999999999999999999MA1102101999999REMMET074METAR EDHK 031020Z 23010KT 9999 FEW010 SCT150 BKN230 06/04 Q1021 BLU+BLU+;
0151100465999992007010311204+54367+010133FM-15+0032EDHK V0202401N005710360019N0112651N1+00701+00401999999ADDGA1021+004501999GA2071+036001999GF107991999999999999999999MA1102001999999REMMET066METAR EDHK 031120Z 24011KT 9999 FEW015 BKN120 07/04 Q1020 BLU BLU;
0174100465999992007010312204+54367+010133FM-15+0032EDHK V0202301N00621004501CN0112651N1+00701+00401999999ADDGA1021+003001999GA2041+004501999GA3071+030001999GF107991999999999999999999MA1101901999999REMMET073METAR EDHK 031220Z 23012KT 9999 FEW010 SCT015 BKN100 07/04 Q1019 BLU BLU;
0161100465999992007010313104+54367+010133FM-16+0032EDHK V0202301N006210036019N0112651N1+00701+00401999999ADDGA1071+003601999GA2071+027001999GF107991999999999999999999MA1101801999999REMMET076SPECI EDHK 031310Z 23012KT 9999 BKN012 BKN090 07/04 Q1018 GRN WHT TEMPO GRN;
0161100465999992007010313204+54367+010133FM-15+0032EDHK V0202301N005710036019N0112651N1+00701+00401999999ADDGA1071+003601999GA2071+027001999GF107991999999999999999999MA1101801999999REMMET076METAR EDHK 031320Z 23011KT 9999 BKN012 BKN090 07/04 Q1018 GRN WHT TEMPO GRN;
0194100465999992007010314004+54367+010133FM-15+0032EDHK V0202301N00621012001CN0112651N1+00701+00401999999ADDGA1041+004501999GA2041+012001999GA3081+024001999GF108991999999999999999999MA1101801999999MW1611REMMET087SPECI EDHK 031400Z 23012KT 9999 -RA SCT015 SCT040 OVC080 07/04 Q1018 WHT WHT TEMPO GRN;
0194100465999992007010314204+54367+010133FM-15+0032EDHK V0202301N00671004801CN0070001N1+00601+00301999999ADDGA1021+003301999GA2041+004801999GA3081+024001999GF108991999999999999999999MA1101801999999MW1611REMMET087METAR EDHK 031420Z 23013KT 7000 -RA FEW011 SCT016 OVC080 06/03 Q1018 WHT WHT TEMPO GRN;
0194100465999992007010315204+54367+010133FM-15+0032EDHK V0202201N006210045019N0070001N1+00601+00301999999ADDGA1021+003001999GA2071+004501999GA3071+012001999GF107991999999999999999999MA1101691999999MW1611REMMET087METAR EDHK 031520Z 22012KT 7000 -RA FEW010 BKN015 BKN040 06/03 Q1017 WHT WHT TEMPO YLO;
0194100465999992007010316054+54367+010133FM-16+0032EDHK V0202101N006210036019N0070001N1+00501+00301999999ADDGA1021+002401999GA2071+003601999GA3071+007501999GF107991999999999999999999MA1101591999999MW1611REMMET087SPECI EDHK 031605Z 21012KT 7000 -RA FEW008 BKN012 BKN025 05/03 Q1016 GRN WHT TEMPO YLO;
0171100465999992007010316204+54367+010133FM-15+0032EDHK V0202201N006210036019N0070001N1+00601+00401999999ADDGA1041+002401999GA2071+003601999GF107991999999999999999999MA1101491999999MW1611REMMET080METAR EDHK 031620Z 22012KT 7000 -RA SCT008 BKN012 06/04 Q1015 GRN WHT TEMPO YLO;
0179100465999992007010317074+54367+010133FM-16+0032EDHK V0202101N005710024019N0045001N1+00601+00401999999ADDGA1071+002401999GA2071+003601999GF107991999999999999999999MA1101391999999MW1101MW2631REMMET082SPECI EDHK 031707Z 21011KT 4500 RA BR BKN008 BKN012 06/04 Q1014 GRN WHT TEMPO YLO;
0179100465999992007010317204+54367+010133FM-15+0032EDHK V0202101N006710024019N0045001N1+00601+00401999999ADDGA1021+001801999GA2071+002401999GF107991999999999999999999MA1101391999999MW1101MW2631REMMET082METAR EDHK 031720Z 21013KT 4500 RA BR FEW006 BKN008 06/04 Q1014 GRN WHT TEMPO YLO;
0162100465999992007010317454+54367+010133FM-15+0032EDHK V0202201N006710021019N0050001N1+00601+00401999999ADDGA1071+002101999GF107991999999999999999999MA1101391999999MW1101MW2511REMMET081SPECI EDHK 031745Z 22013KT 5000 -DZ BR BKN007 06/04 Q1014 RERA GRN WHT TEMPO YLO;
0185100465999992007010318204+54367+010133FM-15+0032EDHK V0202201N005710021019N0050001N1+00601+00401999999ADDGA1021+001801999GA2071+002101999GF107991999999999999999999MA1101291999999MW1101MW2511REMMET088METAR EDHK 031820Z 22011KT 5000 -DZ BR FEW006 BKN007 06/04 Q1013 RERA GRN WHT TEMPO YLO;
0157100465999992007010319014+54367+010133FM-16+0032EDHK V0202201N006210018019N0040001N1+00601+00501999999ADDGA1071+001801999GF107991999999999999999999MA1101291999999MW1101MW2511REMMET076SPECI EDHK 031901Z 22012KT 4000 -DZ BR BKN006 06/05 Q1013 YLO WHT TEMPO YLO;
0155100465999992007010319204+54367+010133FM-15+0032EDHK V0202201N006210018019N0040001N1+00601+00501999999ADDGA1071+001801999GF107991999999999999999999MA1101191999999MW1101MW2511REMMET074METAR EDHK 031920Z 22012KT 4000 -DZ BR BKN006 06/05 Q1012 YLO FCST CANCEL;
0142100465999992007010320204+54367+010133FM-15+0032EDHK V0202201N006710018019N0030001N1+00701+00501999999ADDGA1071+001801999GF107991999999999999999999MA1101081999999MW1101MW2531REMMET061METAR EDHK 032020Z 22013KT 3000 DZ BR BKN006 07/05 Q1011 YLO;
0148100465999992007010321204+54367+010133FM-15+0032EDHK V0202201N006710018019N0040001N1+00701+00601999999ADDGA1071+001801999GF107991999999999999999999MA1101021999999MW1101MW2511REMMET067METAR EDHK 032120Z 22013KT 4000 -DZ BR BKN006 07/06 Q1010 REDZ YLO;
0124100465999992007010322204+54367+010133FM-15+0032EDHK V0202201N006710021019N0060001N1+00701+00601999999ADDGA1071+002101999GF107991999999999999999999MA1100911999999REMMET055METAR EDHK 032220Z 22013KT 6000 BKN007 07/06 Q1009 GRN;
0135100465999992007010323204+54367+010133FM-15+0032EDHK V0202201N007210027019N0080001N1+00801+00601999999ADDGA1071+002701999GF107991999999999999999999MA1100811999999OC101291REMMET058METAR EDHK 032320Z 22014G25KT 8000 BKN009 08/06 Q1008 GRN;
0135100465999992007010400204+54367+010133FM-15+0032EDHK V0202201N007710027019N0112651N1+00801+00601999999ADDGA1071+002701999GF107991999999999999999999MA1100611999999OC101341REMMET058METAR EDHK 040020Z 22015G26KT 9999 BKN009 08/06 Q1006 GRN;
0124100465999992007010401204+54367+010133FM-15+0032EDHK V0202201N007710030019N0112651N1+00801+00601999999ADDGA1071+003001999GF107991999999999999999999MA1100611999999REMMET055METAR EDHK 040120Z 22015KT 9999 BKN010 08/06 Q1006 GRN;
0161100465999992007010401454+54367+010133FM-15+0032EDHK V0202101N007210021019N0040001N1+00801+00601999999ADDGA1071+002101999GF107991999999999999999999MA1100511999999MW1101MW2531MW3631OC101291REMMET066SPECI EDHK 040145Z 21014G25KT 4000 DZRA BR BKN007 08/06 Q1005 GRN;
0147100465999992007010402024+54367+010133FM-16+0032EDHK V0202101N007710021019N0060001N1+00801+00601999999ADDGA1071+002101999GF107991999999999999999999MA1100411999999MW1511MW2611REMMET066SPECI EDHK 040202Z 21015KT 6000 -DZRA BKN007 08/06 Q1004 REDZ GRN;
0150100465999992007010402204+54367+010133FM-15+0032EDHK V0202101N007210021019N0060001N1+00801+00601999999ADDGA1071+002101999GF107991999999999999999999MA1100411999999MW1511OC101291REMMET067METAR EDHK 040220Z 21014G25KT 6000 -DZ BKN007 08/06 Q1004 REDZ GRN;
0134100465999992007010403204+54367+010133FM-15+0032EDHK V0202101N006210024019N0070001N1+00801+00601999999ADDGA1071+002401999GF107991999999999999999999MA1100311999999MW1511REMMET059METAR EDHK 040320Z 21012KT 7000 -DZ BKN008 08/06 Q1003 GRN;
0128100465999992007010404204+54367+010133FM-15+0032EDHK V0202101N007210030019N0070001N1+00801+00601999999ADDGA1071+003001999GF107991999999999999999999MA1100101999999REMMET059METAR EDHK 040420Z 21014KT 7000 BKN010 08/06 Q1001 GRN GRN;
0138100465999992007010405204+54367+010133FM-15+0032EDHK V0202101N006210030019N0080001N1+00801+00601999999ADDGA1071+003001999GF107991999999999999999999MA1100101999999MW1611REMMET063METAR EDHK 040520Z 21012KT 8000 -RA BKN010 08/06 Q1001 GRN GRN;
0176100465999992007010406204+54367+010133FM-15+0032EDHK V0202101N006710030019N0080001N1+00801+00601999999ADDGA1021+002101999GA2071+003001999GF107991999999999999999999MA1099901999999MW1611REMMET085METAR EDHK 040620Z 21013KT 8000 -RA FEW007 BKN010 08/06 Q0999 RERA GRN WHT TEMPO GRN;
0179100465999992007010407204+54367+010133FM-15+0032EDHK V0202101N006210024019N0050001N1+00801+00601999999ADDGA1071+002401999GA2071+003601999GF107991999999999999999999MA1099801999999MW1101MW2631REMMET082METAR EDHK 040720Z 21012KT 5000 RA BR BKN008 BKN012 08/06 Q0998 GRN WHT TEMPO GRN;
0179100465999992007010407404+54367+010133FM-16+0032EDHK V0202001N006710021019N0045001N1+00801+00601999999ADDGA1071+002101999GA2071+003001999GF107991999999999999999999MA1099801999999MW1101MW2631REMMET082SPECI EDHK 040740Z 20013KT 4500 RA BR BKN007 BKN010 08/06 Q0998 GRN WHT TEMPO GRN;
0187100465999992007010408004+54367+010133FM-15+0032EDHK V0202101N006710021019N0070001N1+00801+00601999999ADDGA1071+002101999GA2071+003601999GF107991999999999999999999MA1099701999999MW1611OC101291REMMET088SPECI EDHK 040757Z 21013G25KT 7000 -RA BKN007 BKN012 08/06 Q0997 RERA GRN WHT TEMPO GRN;
0199100465999992007010408204+54367+010133FM-15+0032EDHK V0202101N006710027019N0060001N1+00801+00601999999ADDGA1021+001801999GA2071+002701999GA3071+004801999GF107991999999999999999999MA1099701999999MW1611REMMET092METAR EDHK 040820Z 21013KT 6000 -RA FEW006 BKN009 BKN016 08/06 Q0997 RERA GRN GRN TEMPO YLO;
0211100465999992007010408464+54367+010133FM-16+0032EDHK V0202201N006210027019N0045001N1+00801+00601999999ADDGA1021+001801999GA2071+002701999GA3071+003901999GF107991999999999999999999MA1099701999999MW1101MW2511MW3611REMMET092SPECI EDHK 040846Z 22012KT 4500 -RADZ BR FEW006 BKN009 BKN013 08/06 Q0997 GRN GRN TEMPO YLO;
0202100465999992007010409204+54367+010133FM-15+0032EDHK V0202201N005710027019N0060001N1+00801+00701999999ADDGA1021+002101999GA2071+002701999GA3071+004201999GF107991999999999999999999MA1099701999999MW1511MW2611REMMET089METAR EDHK 040920Z 22011KT 6000 -RADZ FEW007 BKN009 BKN014 08/07 Q0997 GRN GRN TEMPO YLO;
0202100465999992007010409354+54367+010133FM-16+0032EDHK V0202101N005710024019N0040001N1+00801+00701999999ADDGA1021+001801999GA2071+002401999GA3071+003601999GF107991999999999999999999MA1099701999999MW1101MW2631REMMET089SPECI EDHK 040935Z 21011KT 4000 RA BR FEW006 BKN008 BKN012 08/07 Q0997 GRN GRN TEMPO YLO;
0208100465999992007010409504+54367+010133FM-15+0032EDHK V0202101N005710027019N0050001N1+00801+00701999999ADDGA1021+001801999GA2071+002701999GA3071+003601999GF107991999999999999999999MA1099701999999MW1101MW2611REMMET095SPECI EDHK 040950Z 21011KT 5000 -RA BR FEW006 BKN009 BKN012 08/07 Q0997 RERA GRN GRN TEMPO YLO;
0208100465999992007010410204+54367+010133FM-15+0032EDHK V0202201N006210024019N0050001N1+00901+00701999999ADDGA1021+001801999GA2071+002401999GA3071+003301999GF107991999999999999999999MA1099701999999MW1101MW2611REMMET095METAR EDHK 041020Z 22012KT 5000 -RA BR FEW006 BKN008 BKN011 09/07 Q0997 RERA GRN GRN TEMPO YLO;
0184100465999992007010411204+54367+010133FM-15+0032EDHK V0202401N007710036019N0090001N1+00901+00701999999ADDGA1021+002401999GA2071+003601999GA3071+015001999GF107991999999999999999999MA1099701999999REMMET083METAR EDHK 041120Z 24015KT 9000 FEW008 BKN012 BKN050 09/07 Q0997 GRN GRN BECMG BLU;
0202100465999992007010412204+54367+010133FM-15+0032EDHK V0202301N00771003601CN0060001N1+00901+00601999999ADDGA1021+003001999GA2041+003601999GA3071+004801999GF107991999999999999999999MA1099591999999MW1511MW2611REMMET089METAR EDHK 041220Z 23015KT 6000 -RADZ FEW010 SCT012 BKN016 09/06 Q0996 WHT BLU TEMPO GRN;
0204100465999992007010413204+54367+010133FM-15+0032EDHK V0202301N008210042019N0050001N1+00801+00601999999ADDGA1021+003001999GA2071+004201999GF107991999999999999999999MA1099591999999MW1101MW2511MW3611OC101391REMMET093METAR EDHK 041320Z 23016G27KT 5000 -RADZ BR FEW010 BKN014 08/06 Q0996 RERA GRN WHT TEMPO GRN;
0179100465999992007010414074+54367+010133FM-16+0032EDHK V0202301N007710042019N0042001N1+00801+00601999999ADDGA1041+003001999GA2071+004201999GF107991999999999999999999MA1099591999999MW1101MW2631REMMET082SPECI EDHK 041407Z 23015KT 4200 RA BR SCT010 BKN014 08/06 Q0996 GRN WHT TEMPO GRN;
0185100465999992007010414204+54367+010133FM-15+0032EDHK V0202301N007710042019N0050001N1+00801+00601999999ADDGA1041+003001999GA2071+004201999GF107991999999999999999999MA1099591999999MW1101MW2611REMMET088METAR EDHK 041420Z 23015KT 5000 -RA BR SCT010 BKN014 08/06 Q0996 RERA GRN WHT TEMPO GRN;
0203100465999992007010415204+54367+010133FM-15+0032EDHK V0202301N00771003601CN0050001N1+00801+00601999999ADDGA1021+002701999GA2041+003601999GA3071+004501999GF107991999999999999999999MA1099591999999MW1101MW2611REMMET090METAR EDHK 041520Z 23015KT 5000 -RA BR FEW009 SCT012 BKN015 08/06 Q0996 WHT WHT TEMPO GRN;
0180100465999992007010416204+54367+010133FM-15+0032EDHK V0202401N007710042019N0045001N1+00801+00601999999ADDGA1021+002101999GA2071+004201999GF107991999999999999999999MA1099591999999MW1101MW2611REMMET083METAR EDHK 041620Z 24015KT 4500 -RA BR FEW007 BKN014 08/06 Q0996 GRN WHT TEMPO GRN;
0194100465999992007010417204+54367+010133FM-15+0032EDHK V0202401N00821003901CN0060001N1+00801+00601999999ADDGA1021+003001999GA2041+003901999GA3071+004501999GF107991999999999999999999MA1099591999999MW1611REMMET087METAR EDHK 041720Z 24016KT 6000 -RA FEW010 SCT013 BKN015 08/06 Q0996 WHT WHT TEMPO GRN;
0184100465999992007010418204+54367+010133FM-15+0032EDHK V0202401N00771004501CN0080001N1+00801+00601999999ADDGA1021+003001999GA2041+004501999GA3071+012001999GF107991999999999999999999MA1099591999999REMMET083METAR EDHK 041820Z 24015KT 8000 FEW010 SCT015 BKN040 08/06 Q0996 BLU WHT TEMPO GRN;
0193100465999992007010419004+54367+010133FM-15+0032EDHK V0202501N008210045019N0112651N1+00801+00501999999ADDGA1071+004501999GA2041+009001999GA3071+024001999GF107991999999999999999999MA1099701999999OC101441REMMET084SPECI EDHK 041900Z 25016G28KT 9999 BKN015 SCT030 BKN080 08/05 Q0997 WHT FCST CANCEL;
0181100465999992007010422204+54367+010133FM-15+0032EDHK V0202601N009810048019N0070001N1+00801+00601999999ADDGA1021+003301999GA2071+004801999GA3071+010501999GF107991999999999999999999MA1099901999999OC101541REMMET072METAR EDHK 042220Z 26019G30KT 7000 FEW011 BKN016 BKN035 08/06 Q0999 WHT;
0170100465999992007010423204+54367+010133FM-15+0032EDHK V0202601N008710045019N0090001N1+00801+00601999999ADDGA1041+002701999GA2071+004501999GA3071+011101999GF107991999999999999999999MA1100001999999REMMET069METAR EDHK 042320Z 26017KT 9000 SCT009 BKN015 BKN037 08/06 Q1000 WHT;
0159100465999992007010500204+54367+010133FM-15+0032EDHK V0202701N008210048019N0090001N1+00801+00601999999ADDGA1021+002701999GA2071+004801999GF107991999999999999999999MA1100101999999MW1801REMMET068METAR EDHK 050020Z 27016KT 9000 -SHRA FEW009 BKN016 08/06 Q1001 WHT;
0125100465999992007010501204+54367+010133FM-15+0032EDHK V0202801N009312200019N0112651N1+00801+00501999999ADDGA1021+005101999GF102991999999999999999999MA1100201999999REMMET056METAR EDHK 050120Z 28018KT 9999 FEW017 08/05 Q1002 BLU+;
0148100465999992007010502204+54367+010133FM-15+0032EDHK V0202701N007712200019N0112651N1+00801+00401999999ADDGA1041+005401999GA2041+011401999GF104991999999999999999999MA1100311999999REMMET063METAR EDHK 050220Z 27015KT 9999 SCT018 SCT038 08/04 Q1003 BLU+;
0147100465999992007010503204+54367+010133FM-15+0032EDHK V0202701N007210135019N0112651N1+00701+00401999999ADDGA1021+005401999GA2071+013501999GF107991999999999999999999MA1100411999999REMMET062METAR EDHK 050320Z 27014KT 9999 FEW018 BKN045 07/04 Q1004 BLU;
0173100465999992007010504204+54367+010133FM-15+0032EDHK V0202801N006710114019N0112651N1+00701+00401999999ADDGA1041+005401999GA2071+011401999GF107991999999999999999999MA1100511999999MW1801REMMET082METAR EDHK 050420Z 28013KT 9999 -SHRA SCT018 BKN038 07/04 Q1005 BLU BLU+TEMPO BLU;
0161100465999992007010505204+54367+010133FM-15+0032EDHK V0202701N006712200019N0112651N1+00701+00301999999ADDGA1041+006001999GA2041+012601999GF104991999999999999999999MA1100611999999REMMET076METAR EDHK 050520Z 27013KT 9999 SCT020 SCT042 07/03 Q1006 BLU+BLU+TEMPO BLU;
0162100465999992007010506204+54367+010133FM-15+0032EDHK V0202501N005112200019N0112651N1+00701+00301999999ADDGA1021+005401999GA2041+012001999GF104991999999999999999999MA1100711999999REMMET077METAR EDHK 050620Z 25010KT 9999 FEW018 SCT040 07/03 Q1007 BLU+BLU+ TEMPO BLU;
0151100465999992007010507204+54367+010133FM-15+0032EDHK V0202701N004610129019N0112651N1+00701+00301999999ADDGA1021+005401999GA2071+012901999GF107991999999999999999999MA1100811999999REMMET066METAR EDHK 050720Z 27009KT 9999 FEW018 BKN043 07/03 Q1008 BLU BLU;
0128100465999992007010508204+54367+010133FM-15+0032EDHK V0202601N006710120019N0112651N1+00701+00301999999ADDGA1071+012001999GF107991999999999999999999MA1100811999999REMMET059METAR EDHK 050820Z 26013KT 9999 BKN040 07/03 Q1008 BLU BLU;
0151100465999992007010509204+54367+010133FM-15+0032EDHK V0202601N006212200019N0112651N1+00801+00301999999ADDGA1041+011401999GA2041+039001999GF104991999999999999999999MA1101021999999REMMET066METAR EDHK 050920Z 26012KT 9999 SCT038 SCT130 08/03 Q1010 BLU+BLU;
0151100465999992007010510204+54367+010133FM-15+0032EDHK V0202501N005110126019N0112651N1+00801+00301999999ADDGA1021+004201999GA2071+012601999GF107991999999999999999999MA1101021999999REMMET066METAR EDHK 051020Z 25010KT 9999 FEW014 BKN042 08/03 Q1010 BLU BLU;
0184100465999992007010511204+54367+010133FM-15+0032EDHK V0202401N005110135019N0112651N1+00801+00401999999ADDGA1021+004501999GA2071+013501999GA3071+033001999GF107991999999999999999999MA1101081999999REMMET083METAR EDHK 051120Z 24010KT 9999 FEW015 BKN045 BKN110 08/04 Q1011 BLU BLU TEMPO WHT;
0184100465999992007010512204+54367+010133FM-15+0032EDHK V0202501N007210120019N0112651N1+00801+00501999999ADDGA1041+004801999GA2071+012001999GA3071+030001999GF107991999999999999999999MA1101021999999REMMET083METAR EDHK 051220Z 25014KT 9999 SCT016 BKN040 BKN100 08/05 Q1010 BLU BLU TEMPO WHT;
0171100465999992007010513204+54367+010133FM-15+0032EDHK V0202501N005710051019N0112651N1+00701+00401999999ADDGA1071+005101999GA2071+012601999GF107991999999999999999999MA1101021999999MW1611REMMET080METAR EDHK 051320Z 25011KT 9999 -RA BKN017 BKN042 07/04 Q1010 WHT BLU TEMPO WHT;
0169100465999992007010514004+54367+010133FM-15+0032EDHK V0202401N006210060019N0112651N1+00801+00501999999ADDGA1071+006001999GA2071+011401999GF107991999999999999999999MA1101021999999MW1611REMMET078SPECI EDHK 051400Z 24012KT 9999 -RA BKN020 BKN038 08/05 Q1010 WHT FCST CANCEL;
0157100465999992007010514204+54367+010133FM-15+0032EDHK V0202401N004610048019N0112651N1+00701+00401999999ADDGA1071+004801999GA2071+011101999GF107991999999999999999999MA1101081999999MW1611REMMET066METAR EDHK 051420Z 24009KT 9999 -RA BKN016 BKN037 07/04 Q1011 WHT;
0124100465999992007010515204+54367+010133FM-15+0032EDHK V0202201N003610099019N0112651N1+00701+00501999999ADDGA1071+009901999GF107991999999999999999999MA1101021999999REMMET055METAR EDHK 051520Z 22007KT 9999 BKN033 07/05 Q1010 BLU;
0157100465999992007010516064+54367+010133FM-16+0032EDHK V0202201N004610024019N0080001N1+00701+00501999999ADDGA1071+002401999GA2071+009001999GF107991999999999999999999MA1101021999999MW1611REMMET066SPECI EDHK 051606Z 22009KT 8000 -RA BKN008 BKN030 07/05 Q1010 GRN;
0134100465999992007010516204+54367+010133FM-15+0032EDHK V0202201N004610021019N0080001N1+00701+00501999999ADDGA1071+002101999GF107991999999999999999999MA1101021999999MW1611REMMET059METAR EDHK 051620Z 22009KT 8000 -RA BKN007 07/05 Q1010 GRN;
0151100465999992007010517204+54367+010133FM-15+0032EDHK V0202301N005710018019N0050001N1+00701+00601999999ADDGA1071+001801999GF107991999999999999999999MA1101021999999MW1101MW2511MW3611REMMET064METAR EDHK 051720Z 23011KT 5000 -RADZ BR BKN006 07/06 Q1010 YLO;
0147100465999992007010518204+54367+010133FM-15+0032EDHK V0202301N005110036019N0090001N1+00801+00601999999ADDGA1071+003601999GA2071+012001999GF107991999999999999999999MA1101021999999REMMET062METAR EDHK 051820Z 23010KT 9000 BKN012 BKN040 08/06 Q1010 GRN;
0143100465999992007010519144+54367+010133FM-16+0032EDHK V0202201N005110021019N0045001N1+00801+00601999999ADDGA1071+002101999GF107991999999999999999999MA1101021999999MW1101MW2511REMMET062SPECI EDHK 051914Z 22010KT 4500 -DZ BR BKN007 08/06 Q1010 GRN;
0163100465999992007010519204+54367+010133FM-15+0032EDHK V0202201N005710015019N0030001N1+00801+00601999999ADDED199U38009GA1071+001501999GF107991999999999999999999MA1101021999999MW1101MW2531REMMET071METAR EDHK 051920Z 22011KT 3000 R26/3800N DZ BR BKN005 08/06 Q1010 YLO;
0142100465999992007010520204+54367+010133FM-15+0032EDHK V0202301N005710015019N0020001N1+00801+00601999999ADDGA1071+001501999GF107991999999999999999999MA1101021999999MW1101MW2531REMMET061METAR EDHK 052020Z 23011KT 2000 DZ BR BKN005 08/06 Q1010 YLO;
0171100465999992007010521204+54367+010133FM-15+0032EDHK V0202301N006210021019N0045001N1+00801+00701999999ADDGA1041+001501999GA2071+002101999GF107991999999999999999999MA1101021999999MW1101MW2511REMMET074METAR EDHK 052120Z 23012KT 4500 -DZ BR SCT005 BKN007 08/07 Q1010 REDZ GRN;
0171100465999992007010521404+54367+010133FM-16+0032EDHK V0202401N006210021019N0050001N1+00801+00701999999ADDGA1021+001501999GA2071+002101999GF107991999999999999999999MA1101021999999MW1101MW2511REMMET074SPECI EDHK 052140Z 24012KT 5000 -DZ BR FEW005 BKN007 08/07 Q1010 REDZ GRN;
0147100465999992007010522204+54367+010133FM-15+0032EDHK V0202401N005710030019N0070001N1+00901+00701999999ADDGA1041+002101999GA2071+003001999GF107991999999999999999999MA1101021999999REMMET062METAR EDHK 052220Z 24011KT 7000 SCT007 BKN010 09/07 Q1010 GRN;
0147100465999992007010523204+54367+010133FM-15+0032EDHK V0202401N005110030019N0070001N1+00901+00701999999ADDGA1071+003001999GA2071+010501999GF107991999999999999999999MA1101021999999REMMET062METAR EDHK 052320Z 24010KT 7000 BKN010 BKN035 09/07 Q1010 GRN;
0148100465999992007010600204+54367+010133FM-15+0032EDHK V0202501N005712200019N0090001N1+00801+00601999999ADDGA1041+003001999GA2041+008101999GF104991999999999999999999MA1101021999999REMMET063METAR EDHK 060020Z 25011KT 9000 SCT010 SCT027 08/06 Q1010 BLU+;
0147100465999992007010601204+54367+010133FM-15+0032EDHK V0202501N006210030019N0090001N1+00801+00601999999ADDGA1071+003001999GA2071+005401999GF107991999999999999999999MA1101081999999REMMET062METAR EDHK 060120Z 25012KT 9000 BKN010 BKN018 08/06 Q1011 GRN;
0147100465999992007010602204+54367+010133FM-15+0032EDHK V0202501N005710048019N0112651N1+00801+00501999999ADDGA1041+003001999GA2071+004801999GF107991999999999999999999MA1101081999999REMMET062METAR EDHK 060220Z 25011KT 9999 SCT010 BKN016 08/05 Q1011 WHT;
0147100465999992007010603204+54367+010133FM-15+0032EDHK V0202401N004110054019N0112651N1+00701+00501999999ADDGA1041+003001999GA2071+005401999GF107991999999999999999999MA1101191999999REMMET062METAR EDHK 060320Z 24008KT 9999 SCT010 BKN018 07/05 Q1012 WHT;
0171100465999992007010604204+54367+010133FM-15+0032EDHK V0202401N00311004501CN0112651N1+00601+00401999999ADDGA1021+002101999GA2041+004501999GA3071+066001999GF107991999999999999999999MA1101191999999REMMET070METAR EDHK 060420Z 24006KT 9999 FEW007 SCT015 BKN220 06/04 Q1012 BLU+;
0148100465999992007010605204+54367+010133FM-15+0032EDHK V0202301N003612200019N0112651N1+00501+00401999999ADDGA1021+002101999GA2041+066001999GF104991999999999999999999MA1101291999999REMMET063METAR EDHK 060520Z 23007KT 9999 FEW007 SCT220 05/04 Q1013 BLU+;
0125100465999992007010606204+54367+010133FM-15+0032EDHK V0202101N003112200019N0112651N1+00501+00401999999ADDGA1041+075001999GF104991999999999999999999MA1101191999999REMMET056METAR EDHK 060620Z 21006KT 9999 SCT250 05/04 Q1012 BLU+;
0148100465999992007010607204+54367+010133FM-15+0032EDHK V0202301N004110810019N0112651N1+00501+00401999999ADDGA1021+006001999GA2071+081001999GF107991999999999999999999MA1101291999999REMMET063METAR EDHK 060720Z 23008KT 9999 FEW020 BKN270 05/04 Q1013 BLU+;
0148100465999992007010608204+54367+010133FM-15+0032EDHK V0202401N003610810019N0112651N1+00601+00501999999ADDGA1041+001801999GA2071+081001999GF107991999999999999999999MA1101291999999REMMET063METAR EDHK 060820Z 24007KT 9999 SCT006 BKN270 06/05 Q1013 BLU+;
0148100465999992007010609204+54367+010133FM-15+0032EDHK V0202301N004110810019N0080001N1+00601+00501999999ADDGA1041+001501999GA2071+081001999GF107991999999999999999999MA1101291999999REMMET063METAR EDHK 060920Z 23008KT 8000 SCT005 BKN270 06/05 Q1013 BLU+;
0147100465999992007010609434+54367+010133FM-16+0032EDHK V0202301N005110027019N0080001N1+00701+00601999999ADDGA1041+001501999GA2071+002701999GF107991999999999999999999MA1101291999999REMMET062SPECI EDHK 060943Z 23010KT 8000 SCT005 BKN009 07/06 Q1013 GRN;
0147100465999992007010610204+54367+010133FM-15+0032EDHK V0202301N004110027019N0080001N1+00701+00601999999ADDGA1071+002701999GA2071+015001999GF107991999999999999999999MA1101291999999REMMET062METAR EDHK 061020Z 23008KT 8000 BKN009 BKN050 07/06 Q1013 GRN;
0147100465999992007010611004+54367+010133FM-15+0032EDHK V0202301N004610180019N0090001N1+00701+00601999999ADDGA1041+003601999GA2071+018001999GF107991999999999999999999MA1101291999999REMMET062SPECI EDHK 061056Z 23009KT 9000 SCT012 BKN060 07/06 Q1013 BLU;
0147100465999992007010611204+54367+010133FM-15+0032EDHK V0202301N004610027019N0112651N1+00701+00601999999ADDGA1071+002701999GA2071+018001999GF107991999999999999999999MA1101291999999REMMET062METAR EDHK 061120Z 23009KT 9999 BKN009 BKN060 07/06 Q1013 GRN;
0124100465999992007010612204+54367+010133FM-15+0032EDHK V0202301N004610021019N0112651N1+00801+00601999999ADDGA1071+002101999GF107991999999999999999999MA1101291999999REMMET055METAR EDHK 061220Z 23009KT 9999 BKN007 08/06 Q1013 GRN;
0124100465999992007010613204+54367+010133FM-15+0032EDHK V0202301N005110021019N0112651N1+00701+00501999999ADDGA1071+002101999GF107991999999999999999999MA1101291999999REMMET055METAR EDHK 061320Z 23010KT 9999 BKN007 07/05 Q1013 GRN;
0147100465999992007010614204+54367+010133FM-15+0032EDHK V0202201N003610024019N0112651N1+00701+00501999999ADDGA1071+002401999GA2071+006001999GF107991999999999999999999MA1101291999999REMMET062METAR EDHK 061420Z 22007KT 9999 BKN008 BKN020 07/05 Q1013 GRN;
0124100465999992007010615204+54367+010133FM-15+0032EDHK V0202201N003610036019N0112651N1+00701+00501999999ADDGA1071+003601999GF107991999999999999999999MA1101291999999REMMET055METAR EDHK 061520Z 22007KT 9999 BKN012 07/05 Q1013 GRN;
0124100465999992007010616204+54367+010133FM-15+0032EDHK V0202201N003610036019N0112651N1+00701+00501999999ADDGA1071+003601999GF107991999999999999999999MA1101191999999REMMET055METAR EDHK 061620Z 22007KT 9999 BKN012 07/05 Q1012 GRN;
0124100465999992007010617204+54367+010133FM-15+0032EDHK V0202201N003610042019N0112651N1+00701+00501999999ADDGA1071+004201999GF107991999999999999999999MA1101191999999REMMET055METAR EDHK 061720Z 22007KT 9999 BKN014 07/05 Q1012 GRN;
0124100465999992007010618204+54367+010133FM-15+0032EDHK V0202001N002610039019N0112651N1+00701+00401999999ADDGA1071+003901999GF107991999999999999999999MA1101081999999REMMET055METAR EDHK 061820Z 20005KT 9999 BKN013 07/04 Q1011 GRN;
0147100465999992007010619204+54367+010133FM-15+0032EDHK V0202101N003110027019N0112651N1+00701+00501999999ADDGA1071+002701999GA2071+004801999GF107991999999999999999999MA1101081999999REMMET062METAR EDHK 061920Z 21006KT 9999 BKN009 BKN016 07/05 Q1011 GRN;
0124100465999992007010620204+54367+010133FM-15+0032EDHK V0202101N002110030019N0112651N1+00701+00401999999ADDGA1071+003001999GF107991999999999999999999MA1101021999999REMMET055METAR EDHK 062020Z 21004KT 9999 BKN010 07/04 Q1010 GRN;
0157100465999992007010621204+54367+010133FM-15+0032EDHK V0202001N002610024019N0070001N1+00601+00401999999ADDGA1071+002401999GA2071+005401999GF107991999999999999999999MA1101021999999MW1611REMMET066METAR EDHK 062120Z 20005KT 7000 -RA BKN008 BKN018 06/04 Q1010 GRN;
0166100465999992007010622204+54367+010133FM-15+0032EDHK V0202201N002610027019N0050001N1+00601+00401999999ADDGA1071+002701999GA2071+007501999GF107991999999999999999999MA1101021999999MW1101MW2611REMMET069METAR EDHK 062220Z 22005KT 5000 -RA BR BKN009 BKN025 06/04 Q1010 GRN;
0170100465999992007010623204+54367+010133FM-15+0032EDHK V0202201N00211009001CN0070001N1+00501+00401999999ADDGA1041+002401999GA2041+009001999GA3071+018001999GF107991999999999999999999MA1100911999999REMMET069METAR EDHK 062320Z 22004KT 7000 SCT008 SCT030 BKN060 05/04 Q1009 WHT;
0147100465999992007010700204+54367+010133FM-15+0032EDHK V0202201N002110180019N0080001N1+00501+00401999999ADDGA1041+006601999GA2071+018001999GF107991999999999999999999MA1100911999999REMMET062METAR EDHK 070020Z 22004KT 8000 SCT022 BKN060 05/04 Q1009 BLU;
0147100465999992007010701204+54367+010133FM-15+0032EDHK V0202201N002610150019N0080001N1+00501+00301999999ADDGA1041+006001999GA2071+015001999GF107991999999999999999999MA1100911999999REMMET062METAR EDHK 070120Z 22005KT 8000 SCT020 BKN050 05/03 Q1009 BLU;
0147100465999992007010702204+54367+010133FM-15+0032EDHK V0202401N003610150019N0070001N1+00401+00301999999ADDGA1021+006001999GA2071+015001999GF107991999999999999999999MA1100911999999REMMET062METAR EDHK 070220Z 24007KT 7000 FEW020 BKN050 04/03 Q1009 WHT;
0124100465999992007010703204+54367+010133FM-15+0032EDHK V0202401N003112200019N0060001N1+00301+00201999999ADDGA1021+015001999GF102991999999999999999999MA1101021999999REMMET055METAR EDHK 070320Z 24006KT 6000 FEW050 03/02 Q1010 WHT;
0124100465999992007010704204+54367+010133FM-15+0032EDHK V0202401N003612200019N0060001N1+00301+00201999999ADDGA1021+003001999GF102991999999999999999999MA1101021999999REMMET055METAR EDHK 070420Z 24007KT 6000 FEW010 03/02 Q1010 WHT;
0124100465999992007010705204+54367+010133FM-15+0032EDHK V0202401N003612200019N0070001N1+00301+00201999999ADDGA1021+003001999GF102991999999999999999999MA1101021999999REMMET055METAR EDHK 070520Z 24007KT 7000 FEW010 03/02 Q1010 WHT;
0147100465999992007010706204+54367+010133FM-15+0032EDHK V0202301N003612200019N0070001N1+00401+00301999999ADDGA1041+009001999GA2041+066001999GF104991999999999999999999MA1101081999999REMMET062METAR EDHK 070620Z 23007KT 7000 SCT030 SCT220 04/03 Q1011 WHT;
0147100465999992007010707204+54367+010133FM-15+0032EDHK V0202301N005110090019N0112651N1+00501+00401999999ADDGA1021+002701999GA2071+009001999GF107991999999999999999999MA1101081999999REMMET062METAR EDHK 070720Z 23010KT 9999 FEW009 BKN030 05/04 Q1011 BLU;
0148100465999992007010708204+54367+010133FM-15+0032EDHK V0202201N003612200019N0112651N1+00501+00401999999ADDGA1021+002401999GA2041+009001999GF104991999999999999999999MA1101191999999REMMET063METAR EDHK 070820Z 22007KT 9999 FEW008 SCT030 05/04 Q1012 BLU+;
0148100465999992007010709204+54367+010133FM-15+0032EDHK V0202001N004110720019N0112651N1+00501+00401999999ADDGA1021+002401999GA2071+072001999GF107991999999999999999999MA1101191999999REMMET063METAR EDHK 070920Z 20008KT 9999 FEW008 BKN240 05/04 Q1012 BLU+;
0124100465999992007010710094+54367+010133FM-16+0032EDHK V0202201N005110033019N0112651N1+00601+00401999999ADDGA1071+003301999GF107991999999999999999999MA1101191999999REMMET055SPECI EDHK 071009Z 22010KT 9999 BKN011 06/04 Q1012 GRN;
0147100465999992007010710204+54367+010133FM-15+0032EDHK V0202101N005110030019N0112651N1+00601+00401999999ADDGA1071+003001999GA2071+072001999GF107991999999999999999999MA1101191999999REMMET062METAR EDHK 071020Z 21010KT 9999 BKN010 BKN240 06/04 Q1012 GRN;
0133100465999992007010711204+54367+010133FM-15+0032EDHK V0202201N005710018019N0050001N1+00501+00301999999ADDGA1071+001801999GF107991999999999999999999MA1101081999999MW1101REMMET058METAR EDHK 071120Z 22011KT 5000 BR BKN006 05/03 Q1011 YLO;
0124100465999992007010712204+54367+010133FM-15+0032EDHK V0202001N005110024019N0070001N1+00601+00401999999ADDGA1071+002401999GF107991999999999999999999MA1101081999999REMMET055METAR EDHK 071220Z 20010KT 7000 BKN008 06/04 Q1011 GRN;
0124100465999992007010713204+54367+010133FM-15+0032EDHK V0202001N004610027019N0070001N1+00601+00401999999ADDGA1071+002701999GF107991999999999999999999MA1101021999999REMMET055METAR EDHK 071320Z 20009KT 7000 BKN009 06/04 Q1010 GRN;
0151100465999992007010713404+54367+010133FM-16+0032EDHK V0201901N005110024019N0040001N1+00701+00401999999ADDGA1071+002401999GF107991999999999999999999MA1100911999999MW1101MW2511MW3611REMMET064SPECI EDHK 071340Z 19010KT 4000 -RADZ BR BKN008 07/04 Q1009 GRN;
0143100465999992007010714204+54367+010133FM-15+0032EDHK V0202001N005710021019N0040001N1+00701+00501999999ADDGA1071+002101999GF107991999999999999999999MA1100911999999MW1101MW2611REMMET062METAR EDHK 071420Z 20011KT 4000 -RA BR BKN007 07/05 Q1009 GRN;
0151100465999992007010714334+54367+010133FM-16+0032EDHK V0202001N005110018019N0025001N1+00701+00501999999ADDGA1071+001801999GF107991999999999999999999MA1100911999999MW1101MW2511MW3611REMMET064SPECI EDHK 071433Z 20010KT 2500 -RADZ BR BKN006 07/05 Q1009 YLO;
0151100465999992007010715204+54367+010133FM-15+0032EDHK V0202001N005110015019N0020001N1+00701+00501999999ADDGA1071+001501999GF107991999999999999999999MA1100911999999MW1101MW2511MW3611REMMET064METAR EDHK 071520Z 20010KT 2000 -DZRA BR BKN005 07/05 Q1009 YLO;
0151100465999992007010716204+54367+010133FM-15+0032EDHK V0202101N005110015019N0028001N1+00701+00601999999ADDGA1071+001501999GF107991999999999999999999MA1100911999999MW1101MW2511MW3611REMMET064METAR EDHK 071620Z 21010KT 2800 -RADZ BR BKN005 07/06 Q1009 YLO;
0143100465999992007010716364+54367+010133FM-16+0032EDHK V0202101N005710018019N0040001N1+00801+00601999999ADDGA1071+001801999GF107991999999999999999999MA1100811999999MW1101MW2611REMMET062SPECI EDHK 071636Z 21011KT 4000 -RA BR BKN006 08/06 Q1008 YLO;
0151100465999992007010717204+54367+010133FM-15+0032EDHK V0202101N005710018019N0040001N1+00801+00601999999ADDGA1071+001801999GF107991999999999999999999MA1100811999999MW1101MW2511MW3611REMMET064METAR EDHK 071720Z 21011KT 4000 -DZRA BR BKN006 08/06 Q1008 YLO;
0151100465999992007010718204+54367+010133FM-15+0032EDHK V0202101N005710021019N0040001N1+00801+00601999999ADDGA1071+002101999GF107991999999999999999999MA1100811999999MW1101MW2511MW3611REMMET064METAR EDHK 071820Z 21011KT 4000 -DZRA BR BKN007 08/06 Q1008 GRN;
0166100465999992007010718324+54367+010133FM-16+0032EDHK V0202101N005110018019N0040001N1+00801+00601999999ADDGA1071+001801999GA2071+003601999GF107991999999999999999999MA1100811999999MW1101MW2611REMMET069SPECI EDHK 071832Z 21010KT 4000 -RA BR BKN006 BKN012 08/06 Q1008 YLO;
0165100465999992007010719204+54367+010133FM-15+0032EDHK V0202101N005110018019N0030001N1+00801+00601999999ADDGA1071+001801999GA2071+003601999GF107991999999999999999999MA1100811999999MW1101MW2631REMMET068METAR EDHK 071920Z 21010KT 3000 RA BR BKN006 BKN012 08/06 Q1008 YLO;
0148100465999992007010720204+54367+010133FM-15+0032EDHK V0202101N005710018019N0060001N1+00801+00601999999ADDGA1071+001801999GF107991999999999999999999MA1100811999999MW1101MW2611REMMET067METAR EDHK 072020Z 21011KT 6000 -RA BR BKN006 08/06 Q1008 RERA YLO;
0143100465999992007010721204+54367+010133FM-15+0032EDHK V0202101N005710018019N0050001N1+00801+00601999999ADDGA1071+001801999GF107991999999999999999999MA1100711999999MW1101MW2611REMMET062METAR EDHK 072120Z 21011KT 5000 -RA BR BKN006 08/06 Q1007 YLO;
0124100465999992007010722204+54367+010133FM-15+0032EDHK V0202101N005710018019N0070001N1+00801+00601999999ADDGA1071+001801999GF107991999999999999999999MA1100711999999REMMET055METAR EDHK 072220Z 21011KT 7000 BKN006 08/06 Q1007 YLO;
0124100465999992007010722344+54367+010133FM-16+0032EDHK V0202101N006210030019N0112651N1+00801+00601999999ADDGA1071+003001999GF107991999999999999999999MA1100711999999REMMET055SPECI EDHK 072234Z 21012KT 9999 BKN010 08/06 Q1007 GRN;
0124100465999992007010723204+54367+010133FM-15+0032EDHK V0202101N005710036019N0112651N1+00801+00601999999ADDGA1071+003601999GF107991999999999999999999MA1100711999999REMMET055METAR EDHK 072320Z 21011KT 9999 BKN012 08/06 Q1007 GRN;
0124100465999992007010800204+54367+010133FM-15+0032EDHK V0202001N004610042019N0112651N1+00801+00601999999ADDGA1071+004201999GF107991999999999999999999MA1100711999999REMMET055METAR EDHK 080020Z 20009KT 9999 BKN014 08/06 Q1007 GRN;
0124100465999992007010801204+54367+010133FM-15+0032EDHK V0202001N005110048019N0112651N1+00801+00501999999ADDGA1071+004801999GF107991999999999999999999MA1100611999999REMMET055METAR EDHK 080120Z 20010KT 9999 BKN016 08/05 Q1006 WHT;
0124100465999992007010802204+54367+010133FM-15+0032EDHK V0202001N005710045019N0112651N1+00801+00601999999ADDGA1071+004501999GF107991999999999999999999MA1100611999999REMMET055METAR EDHK 080220Z 20011KT 9999 BKN015 08/06 Q1006 WHT;
0170100465999992007010803204+54367+010133FM-15+0032EDHK V0201901N00511015001CN0112651N1+00701+00401999999ADDGA1021+004501999GA2041+015001999GA3071+036001999GF107991999999999999999999MA1100511999999REMMET069METAR EDHK 080320Z 19010KT 9999 FEW015 SCT050 BKN120 07/04 Q1005 BLU;
0151100465999992007010804204+54367+010133FM-15+0032EDHK V0201901N005110360019N0112651N1+00701+00301999999ADDGA1041+015001999GA2071+036001999GF107991999999999999999999MA1100411999999REMMET066METAR EDHK 080420Z 19010KT 9999 SCT050 BKN120 07/03 Q1004 BLU BLU;
0184100465999992007010805204+54367+010133FM-15+0032EDHK V0201901N005110150019N0112651N1+00701+00301999999ADDGA1021+007501999GA2071+015001999GA3071+036001999GF107991999999999999999999MA1100101999999REMMET083METAR EDHK 080520Z 19010KT 9999 FEW025 BKN050 BKN120 07/03 Q1001 BLU BLU BECMG WHT;
0194100465999992007010806204+54367+010133FM-15+0032EDHK V0201901N00621015001CN0112651N1+00701+00301999999ADDGA1021+003001999GA2041+015001999GA3071+024001999GF107991999999999999999999MA1100001999999MW1611REMMET087METAR EDHK 080620Z 19012KT 9999 -RA FEW010 SCT050 BKN080 07/03 Q1000 BLU BLU BECMG WHT;
0148100465999992007010807204+54367+010133FM-15+0032EDHK V0201801N005110120019N0112651N1+00601+00301999999ADDGA1071+012001999GF107991999999999999999999MA1099901999999MW1611REMMET073METAR EDHK 080720Z 18010KT 9999 -RA BKN040 06/03 Q0999 BLU BLU BECMG WHT;
0161100465999992007010808204+54367+010133FM-15+0032EDHK V0201801N005710120019N0112651N1+00701+00401999999ADDGA1021+006601999GA2071+012001999GF107991999999999999999999MA1099801999999REMMET076METAR EDHK 080820Z 18011KT 9999 FEW022 BKN040 07/04 Q0998 BLU BLU BECMG WHT;
0159100465999992007010809024+54367+010133FM-16+0032EDHK V0201901N007210042019N0112651N1+00701+00401999999ADDGA1071+004201999GF107991999999999999999999MA1099801999999MW1611OC101291REMMET076SPECI EDHK 080902Z 19014G25KT 9999 -RA BKN014 07/04 Q0998 GRN WHT TEMPO YLO;
0156100465999992007010809204+54367+010133FM-15+0032EDHK V0201901N007210042019N0090001N1+00701+00401999999ADDGA1071+004201999GF107991999999999999999999MA1099801999999MW1511MW2611REMMET075METAR EDHK 080920Z 19014KT 9000 -RADZ BKN014 07/04 Q0998 GRN WHT TEMPO YLO;
0182100465999992007010810204+54367+010133FM-15+0032EDHK V0202001N006710042019N0112651N1+00701+00501999999ADDGA1021+003001999GA2071+004201999GF107991999999999999999999MA1099701999999MW1611OC101181REMMET083METAR EDHK 081020Z 20013G23KT 9999 -RA FEW010 BKN014 07/05 Q0997 GRN WHT TEMPO YLO;
0194100465999992007010811204+54367+010133FM-15+0032EDHK V0202001N006710036019N0090001N1+00701+00501999999ADDGA1021+003001999GA2071+003601999GA3071+009001999GF107991999999999999999999MA1099591999999MW1611REMMET087METAR EDHK 081120Z 20013KT 9000 -RA FEW010 BKN012 BKN030 07/05 Q0996 GRN WHT TEMPO YLO;
0194100465999992007010812204+54367+010133FM-15+0032EDHK V0202301N006210045019N0112651N1+00801+00601999999ADDGA1021+003001999GA2071+004501999GA3071+009001999GF107991999999999999999999MA1099701999999MW1611REMMET087METAR EDHK 081220Z 23012KT 9999 -RA FEW010 BKN015 BKN030 08/06 Q0997 WHT WHT TEMPO GRN;
0161100465999992007010813204+54367+010133FM-15+0032EDHK V0202401N005710120019N0112651N1+00801+00601999999ADDGA1041+004501999GA2071+012001999GF107991999999999999999999MA1099701999999REMMET076METAR EDHK 081320Z 24011KT 9999 SCT015 BKN040 08/06 Q0997 BLU BLU TEMPO GRN;
0161100465999992007010814204+54367+010133FM-15+0032EDHK V0202401N006210120019N0112651N1+00801+00501999999ADDGA1021+004501999GA2071+012001999GF107991999999999999999999MA1099801999999REMMET076METAR EDHK 081420Z 24012KT 9999 FEW015 BKN040 08/05 Q0998 BLU BLU TEMPO GRN;
0161100465999992007010815204+54367+010133FM-15+0032EDHK V0202301N004610120019N0112651N1+00801+00401999999ADDGA1021+006001999GA2071+012001999GF107991999999999999999999MA1099901999999REMMET076METAR EDHK 081520Z 23009KT 9999 FEW020 BKN040 08/04 Q0999 BLU BLU TEMPO GRN;
0161100465999992007010816204+54367+010133FM-15+0032EDHK V0202301N005110150019N0112651N1+00701+00401999999ADDGA1021+006001999GA2071+015001999GF107991999999999999999999MA1100001999999REMMET076METAR EDHK 081620Z 23010KT 9999 FEW020 BKN050 07/04 Q1000 BLU BLU TEMPO GRN;
0161100465999992007010817204+54367+010133FM-15+0032EDHK V0202201N004610150019N0112651N1+00601+00401999999ADDGA1021+004501999GA2071+015001999GF107991999999999999999999MA1100001999999REMMET076METAR EDHK 081720Z 22009KT 9999 FEW015 BKN050 06/04 Q1000 BLU BLU TEMPO GRN;
0161100465999992007010818204+54367+010133FM-15+0032EDHK V0202201N004610570019N0112651N1+00601+00401999999ADDGA1021+004501999GA2071+057001999GF107991999999999999999999MA1100001999999REMMET076METAR EDHK 081820Z 22009KT 9999 FEW015 BKN190 06/04 Q1000 BLU BLU TEMPO GRN;
0136100465999992007010819204+54367+010133FM-15+0032EDHK V0202101N004112200019N0112651N1+00501+00301999999ADDGA1041+042001999GF104991999999999999999999MA1100001999999REMMET067METAR EDHK 081920Z 21008KT 9999 SCT140 05/03 Q1000 BLU+FCST CANCEL;
0121100465999992007010820204+54367+010133FM-15+0032EDHK V0202001N00461220001CN0112651N1+00601+00301999999ADDGA1071+039001999GA2041+057001999MA1100001999999REMMET062METAR EDHK 082020Z 20009KT 9999 BKN130 SCT190 06/03 Q1000 BLU;
0147100465999992007010821204+54367+010133FM-15+0032EDHK V0201901N004610270019N0112651N1+00601+00301999999ADDGA1071+027001999GA2071+039001999GF107991999999999999999999MA1100001999999REMMET062METAR EDHK 082120Z 19009KT 9999 BKN090 BKN130 06/03 Q1000 BLU;
0170100465999992007010822204+54367+010133FM-15+0032EDHK V0201901N004610300019N0112651N1+00601+00401999999ADDGA1041+011401999GA2071+030001999GA3071+036001999GF107991999999999999999999MA1099901999999REMMET069METAR EDHK 082220Z 19009KT 9999 SCT038 BKN100 BKN120 06/04 Q0999 BLU;
0157100465999992007010823204+54367+010133FM-15+0032EDHK V0201901N005110150019N0070001N1+00701+00401999999ADDGA1071+015001999GA2071+021001999GF107991999999999999999999MA1099801999999MW1611REMMET066METAR EDHK 082320Z 19010KT 7000 -RA BKN050 BKN070 07/04 Q0998 WHT;
0174100465999992007010900094+54367+010133FM-16+0032EDHK V0201801N005710030019N0045001N1+00701+00501999999ADDGA1071+003001999GA2071+006001999GF107991999999999999999999MA1099701999999MW1101MW2511MW3611REMMET071SPECI EDHK 090009Z 18011KT 4500 -RADZ BR BKN010 BKN020 07/05 Q0997 GRN;
0151100465999992007010900204+54367+010133FM-15+0032EDHK V0201801N005710027019N0045001N1+00701+00501999999ADDGA1071+002701999GF107991999999999999999999MA1099701999999MW1101MW2511MW3611REMMET064METAR EDHK 090020Z 18011KT 4500 -DZRA BR BKN009 07/05 Q0997 GRN;
0143100465999992007010901204+54367+010133FM-15+0032EDHK V0201901N006210021019N0050001N1+00801+00601999999ADDGA1071+002101999GF107991999999999999999999MA1099701999999MW1101MW2511REMMET062METAR EDHK 090120Z 19012KT 5000 -DZ BR BKN007 08/06 Q0997 GRN;
0151100465999992007010901464+54367+010133FM-16+0032EDHK V0202001N005110018019N0040001N1+00801+00601999999ADDGA1071+001801999GF107991999999999999999999MA1099701999999MW1101MW2511MW3611REMMET064SPECI EDHK 090146Z 20010KT 4000 -DZRA BR BKN006 08/06 Q0997 YLO;
0154100465999992007010902204+54367+010133FM-15+0032EDHK V0202101N005110018019N0045001N1+00801+00701999999ADDGA1071+001801999GF107991999999999999999999MA1099701999999MW1101MW2511OC101181REMMET065METAR EDHK 090220Z 21010G23KT 4500 -DZ BR BKN006 08/07 Q0997 YLO;
0143100465999992007010903204+54367+010133FM-15+0032EDHK V0202101N005710018019N0045001N1+00901+00801999999ADDGA1071+001801999GF107991999999999999999999MA1099701999999MW1511MW2611REMMET062METAR EDHK 090320Z 21011KT 4500 -DZ RA BKN006 09/08 Q0997 YLO;
0165100465999992007010904204+54367+010133FM-15+0032EDHK V0202101N005710015019N0045001N1+01001+00801999999ADDGA1071+001501999GF107991999999999999999999MA1099701999999MW1101MW2511MW3611REMMET078METAR EDHK 090420Z 21011KT 4500 -DZRA BR BKN005 10/08 Q0997 YLO GRN TEMPO YLO;
0170100465999992007010905204+54367+010133FM-15+0032EDHK V0202001N004610018019N0045001N1+01001+00901999999ADDGA1071+001801999GF107991999999999999999999MA1099701999999MW1101MW2511MW3611REMMET083METAR EDHK 090520Z 20009KT 4500 -RADZ BR BKN006 10/09 Q0997 RERA YLO GRN TEMPO YLO;
0164100465999992007010906204+54367+010133FM-15+0032EDHK V0202201N005710018019N0030001N1+01101+00901999999ADDGA1071+001801999GF107991999999999999999999MA1099701999999MW1101MW2531MW3631REMMET077METAR EDHK 090620Z 22011KT 3000 DZRA BR BKN006 11/09 Q0997 YLO GRN TEMPO YLO;
0181100465999992007010907074+54367+010133FM-16+0032EDHK V0202201N007210018019N0045001N1+01101+01001999999ADDGA1071+001801999GF107991999999999999999999MA1099801999999MW1101MW2511MW3611OC101231REMMET086SPECI EDHK 090707Z 22014G24KT 4500 -DZRA BR BKN006 11/10 Q0998 REDZ YLO GRN TEMPO YLO;
0143100465999992007010907204+54367+010133FM-15+0032EDHK V0202301N007710021019N0060001N1+01201+01001999999ADDGA1071+002101999GF107991999999999999999999MA1099801999999REMMET074METAR EDHK 090720Z 23015KT 6000 BKN007 12/10 Q0998 REDZ GRN GRN TEMPO YLO;
0184100465999992007010908204+54367+010133FM-15+0032EDHK V0202201N008210039019N0112651N1+01201+01001999999ADDGA1041+002401999GA2071+003901999GA3071+010501999GF107991999999999999999999MA1099801999999REMMET083METAR EDHK 090820Z 22016KT 9999 SCT008 BKN013 BKN035 12/10 Q0998 GRN GRN BECMG BLU;
0149100465999992007010909204+54367+010133FM-15+0032EDHK V0202301N009810045019N0112651N1+01201+01001999999ADDGA1071+004501999GF107991999999999999999999MA1099901999999OC101591REMMET072METAR EDHK 090920Z 23019G31KT 9999 BKN015 12/10 Q0999 WHT GRN BECMG BLU;
0172100465999992007010910204+54367+010133FM-15+0032EDHK V0202201N008710120019N0112651N1+01201+00801999999ADDGA1041+004501999GA2071+012001999GF107991999999999999999999MA1099901999999OC101591REMMET079METAR EDHK 091020Z 22017G31KT 9999 SCT015 BKN040 12/08 Q0999 BLU BLU TEMPO GRN;
0161100465999992007010911204+54367+010133FM-15+0032EDHK V0202301N010310120019N0112651N1+01201+00801999999ADDGA1041+006001999GA2071+012001999GF107991999999999999999999MA1100001999999REMMET076METAR EDHK 091120Z 23020KT 9999 SCT020 BKN040 12/08 Q1000 BLU BLU TEMPO GRN;
0172100465999992007010912204+54367+010133FM-15+0032EDHK V0202301N010310108019N0112651N1+01201+00701999999ADDGA1021+006601999GA2071+010801999GF107991999999999999999999MA1099901999999OC101801REMMET079METAR EDHK 091220Z 23020G35KT 9999 FEW022 BKN036 12/07 Q0999 BLU BLU TEMPO WHT;
0146100465999992007010914204+54367+010133FM-15+0032EDHK V0202301N010310081019N0112651N1+01201+00701999999ADDGA1021+006001999GA2071+008101999GF107991999999999999999999OC101751REMMET068METAR EDHK 091420Z 23020G34KT 9999 FEW020 BKN027 12/07 1001 BLU BLU;
0162100465999992007010915204+54367+010133FM-15+0032EDHK V0202301N009810078019N0112651N1+01301+00701999999ADDGA1021+005401999GA2071+007801999GF107991999999999999999999MA1100101999999OC101591REMMET069METAR EDHK 091520Z 23019G31KT 9999 FEW018 BKN026 13/07 Q1001 BLU BLU;
0179100465999992007010916204+54367+010133FM-15+0032EDHK V0202301N009310075019N0070001N1+01101+00701999999ADDGA1041+004501999GA2071+007501999GF107991999999999999999999MA1100201999999MW1511MW2611REMMET082METAR EDHK 091620Z 23018KT 7000 -RADZ SCT015 BKN025 11/07 Q1002 WHT BLU TEMPO WHT;
0161100465999992007010917204+54367+010133FM-15+0032EDHK V0202201N008710075019N0112651N1+01201+00801999999ADDGA1021+003601999GA2071+007501999GF107991999999999999999999MA1100311999999REMMET076METAR EDHK 091720Z 22017KT 9999 FEW012 BKN025 12/08 Q1003 BLU BLU TEMPO WHT;
0149100465999992007010918204+54367+010133FM-15+0032EDHK V0202201N008210075019N0112651N1+01201+00801999999ADDGA1071+007501999GF107991999999999999999999MA1100311999999OC101341REMMET072METAR EDHK 091820Z 22016G26KT 9999 BKN025 12/08 Q1003 BLU BLU TEMPO WHT;
0177100465999992007010919004+54367+010133FM-15+0032EDHK V0202201N008210069019N0060001N1+01101+00801999999ADDGA1021+003001999GA2071+006901999GF107991999999999999999999MA1100411999999MW1511MW2611REMMET080SPECI EDHK 091900Z 22016KT 6000 -DZRA FEW010 BKN023 11/08 Q1004 WHT FCST CANCEL;
0173100465999992007010919204+54367+010133FM-15+0032EDHK V0202201N007210060019N0050001N1+01101+00801999999ADDGA1041+003001999GA2071+006001999GF107991999999999999999999MA1100411999999MW1101MW2531MW3631REMMET070METAR EDHK 091920Z 22014KT 5000 RADZ BR SCT010 BKN020 11/08 Q1004 WHT;
0184100465999992007010920204+54367+010133FM-15+0032EDHK V0202201N008210045019N0040001N1+01101+00901999999ADDGA1021+002701999GA2071+004501999GF107991999999999999999999MA1100411999999MW1101MW2531MW3631OC101341REMMET073METAR EDHK 092020Z 22016G26KT 4000 RADZ BR FEW009 BKN015 11/09 Q1004 GRN;
0190100465999992007010921204+54367+010133FM-15+0032EDHK V0202301N008210027019N0045001N1+01101+00901999999ADDGA1071+002701999GA2071+004501999GF107991999999999999999999MA1100511999999MW1101MW2511MW3611OC101391REMMET079METAR EDHK 092120Z 23016G27KT 4500 -DZRA BR BKN009 BKN015 11/09 Q1005 RERA GRN;
0150100465999992007010922204+54367+010133FM-15+0032EDHK V0202301N007210024019N0030001N1+01101+00901999999ADDGA1071+002401999GF107991999999999999999999MA1100511999999MW1101MW2531MW3631REMMET063METAR EDHK 092220Z 23014KT 3000 DZRA BR BKN008 11/09 Q1005 YLO;
0150100465999992007010923204+54367+010133FM-15+0032EDHK V0202201N006710024019N0030001N1+01101+00901999999ADDGA1071+002401999GF107991999999999999999999MA1100511999999MW1101MW2531MW3631REMMET063METAR EDHK 092320Z 22013KT 3000 DZRA BR BKN008 11/09 Q1005 YLO;
0190100465999992007011000204+54367+010133FM-15+0032EDHK V0202201N008210039019N0045001N1+01101+00901999999ADDGA1041+002401999GA2071+003901999GF107991999999999999999999MA1100511999999MW1101MW2511MW3611OC101491REMMET079METAR EDHK 100020Z 22016G29KT 4500 -RADZ BR SCT008 BKN013 11/09 Q1005 RERA GRN;
0158100465999992007011001014+54367+010133FM-16+0032EDHK V0202201N009810039019N0060001N1+01101+00901999999ADDGA1071+003901999GA2071+010501999GF107991999999999999999999MA1100511999999OC101541REMMET065SPECI EDHK 100101Z 22019G30KT 6000 BKN013 BKN035 11/09 Q1005 GRN;
0124100465999992007011001204+54367+010133FM-15+0032EDHK V0202201N007710039019N0070001N1+01101+00901999999ADDGA1071+003901999GF107991999999999999999999MA1100511999999REMMET055METAR EDHK 100120Z 22015KT 7000 BKN013 11/09 Q1005 GRN;
0158100465999992007011002204+54367+010133FM-15+0032EDHK V0202201N008210090019N0112651N1+01201+00801999999ADDGA1041+004501999GA2071+009001999GF107991999999999999999999MA1100511999999OC101391REMMET065METAR EDHK 100220Z 22016G27KT 9999 SCT015 BKN030 12/08 Q1005 BLU;
0145100465999992007011003204+54367+010133FM-15+0032EDHK V0202201N008210069019N0080001N1+01201+00701999999ADDGA1071+006901999GF107991999999999999999999MA1100511999999MW1511OC101391REMMET062METAR EDHK 100320Z 22016G27KT 8000 -DZ BKN023 12/07 Q1005 WHT;
0179100465999992007011004204+54367+010133FM-15+0032EDHK V0202201N006210030019N0060001N1+01001+00801999999ADDGA1071+003001999GA2071+005101999GF107991999999999999999999MA1100511999999MW1511MW2611REMMET082METAR EDHK 100420Z 22012KT 6000 -RADZ BKN010 BKN017 10/08 Q1005 GRN WHT TEMPO GRN;
0179100465999992007011005204+54367+010133FM-15+0032EDHK V0202201N006710039019N0060001N1+01101+00801999999ADDGA1041+003001999GA2071+003901999GF107991999999999999999999MA1100511999999MW1511MW2611REMMET082METAR EDHK 100520Z 22013KT 6000 -RADZ SCT010 BKN013 11/08 Q1005 GRN WHT TEMPO GRN;
0190100465999992007011006204+54367+010133FM-15+0032EDHK V0202101N008210051019N0070001N1+01101+00801999999ADDGA1021+003301999GA2071+005101999GF107991999999999999999999MA1100511999999MW1511MW2611OC101341REMMET085METAR EDHK 100620Z 21016G26KT 7000 -RADZ FEW011 BKN017 11/08 Q1005 WHT WHT TEMPO GRN;
0179100465999992007011007204+54367+010133FM-15+0032EDHK V0202101N007210057019N0070001N1+01101+00901999999ADDGA1021+003901999GA2071+005701999GF107991999999999999999999MA1100511999999MW1511MW2611REMMET082METAR EDHK 100720Z 21014KT 7000 -RADZ FEW013 BKN019 11/09 Q1005 WHT WHT TEMPO GRN;
0161100465999992007011008204+54367+010133FM-15+0032EDHK V0202101N008210075019N0080001N1+01201+00801999999ADDGA1021+006001999GA2071+007501999GF107991999999999999999999MA1100511999999REMMET076METAR EDHK 100820Z 21016KT 8000 FEW020 BKN025 12/08 Q1005 BLU BLU TEMPO GRN;
0172100465999992007011009204+54367+010133FM-15+0032EDHK V0202101N008210081019N0112651N1+01301+00801999999ADDGA1071+008101999GA2071+013501999GF107991999999999999999999MA1100411999999OC101341REMMET079METAR EDHK 100920Z 21016G26KT 9999 BKN027 BKN045 13/08 Q1004 BLU BLU TEMPO GRN;
0199100465999992007011010204+54367+010133FM-15+0032EDHK V0202101N007710042019N0045001N1+01101+00801999999ADDGA1021+003001999GA2071+004201999GF107991999999999999999999MA1100411999999MW1101MW2511MW3611OC101441REMMET088METAR EDHK 101020Z 21015G28KT 4500 -RADZ BR FEW010 BKN014 11/08 Q1004 GRN GRN TEMPO YLO;
0188100465999992007011010444+54367+010133FM-16+0032EDHK V0202001N006710045019N0050001N1+01101+00901999999ADDGA1021+002701999GA2071+004501999GF107991999999999999999999MA1100411999999MW1101MW2511MW3611REMMET085SPECI EDHK 101044Z 20013KT 5000 -RADZ BR FEW009 BKN015 11/09 Q1004 WHT WHT BECMG GRN;
0190100465999992007011011204+54367+010133FM-15+0032EDHK V0202101N007710060019N0060001N1+01101+00901999999ADDGA1021+003001999GA2071+006001999GF107991999999999999999999MA1100411999999MW1511MW2611OC101341REMMET085METAR EDHK 101120Z 21015G26KT 6000 -RADZ FEW010 BKN020 11/09 Q1004 WHT WHT BECMG GRN;
0194100465999992007011012204+54367+010133FM-15+0032EDHK V0202101N00671006901CN0090001N1+01101+00801999999ADDGA1021+003301999GA2041+006901999GA3071+009301999GF107991999999999999999999MA1100201999999MW1611REMMET087METAR EDHK 101220Z 21013KT 9000 -RA FEW011 SCT023 BKN031 11/08 Q1002 BLU WHT BECMG GRN;
0198100465999992007011012374+54367+010133FM-16+0032EDHK V0202101N008210051019N0045001N1+01101+00801999999ADDGA1041+003001999GA2071+005101999GF107991999999999999999999MA1100201999999MW1101MW2531MW3631OC101491REMMET087SPECI EDHK 101237Z 21016G29KT 4500 DZRA BR SCT010 BKN017 11/08 Q1002 GRN WHT TEMPO YLO;
0204100465999992007011012504+54367+010133FM-15+0032EDHK V0202201N008710051019N0050001N1+01101+00801999999ADDGA1041+003001999GA2071+005101999GF107991999999999999999999MA1100201999999MW1101MW2511MW3611OC101801REMMET093SPECI EDHK 101250Z 22017G35KT 5000 -DZRA BR SCT010 BKN017 11/08 Q1002 REDZ WHT WHT TEMPO YLO;
0207100465999992007011013204+54367+010133FM-15+0032EDHK V0202301N006710042019N0050001N1+01101+00801999999ADDGA1021+002101999GA2071+004201999GA3071+006901999GF107991999999999999999999MA1100201999999MW1101MW2631REMMET094METAR EDHK 101320Z 23013KT 5000 RA BR FEW007 BKN014 BKN023 11/08 Q1002 REDZ GRN WHT TEMPO YLO;
0202100465999992007011013374+54367+010133FM-16+0032EDHK V0202201N006710036019N0042001N1+01101+00801999999ADDGA1021+002101999GA2071+003601999GA3071+006001999GF107991999999999999999999MA1100201999999MW1101MW2631REMMET089SPECI EDHK 101337Z 22013KT 4200 RA BR FEW007 BKN012 BKN020 11/08 Q1002 GRN WHT TEMPO YLO;
0187100465999992007011014004+54367+010133FM-15+0032EDHK V0202201N006710072019N0070001N1+01101+00901999999ADDGA1041+004501999GA2071+007201999GF107991999999999999999999MA1100101999999MW1611OC101491REMMET088SPECI EDHK 101400Z 22013G29KT 7000 -RA SCT015 BKN024 11/09 Q1001 RERA WHT WHT TEMPO YLO;
0187100465999992007011014204+54367+010133FM-15+0032EDHK V0202201N007210057019N0090001N1+01101+00801999999ADDGA1071+005701999GA2071+013501999GF107991999999999999999999MA1100201999999MW1611OC101341REMMET088METAR EDHK 101420Z 22014G26KT 9000 -RA BKN019 BKN045 11/08 Q1002 RERA WHT BLU TEMPO YLO;
0179100465999992007011014414+54367+010133FM-16+0032EDHK V0202201N006210048019N0042001N1+01101+00801999999ADDGA1041+002701999GA2071+004801999GF107991999999999999999999MA1100101999999MW1101MW2631REMMET082SPECI EDHK 101441Z 22012KT 4200 RA BR SCT009 BKN016 11/08 Q1001 GRN BLU TEMPO YLO;
0219100465999992007011015004+54367+010133FM-15+0032EDHK V0202201N007210069019N0050001N1+01001+00801999999ADDGA1041+003601999GA2071+006901999GA3071+012901999GF107991999999999999999999MA1100101999999MW1101MW2611OC101341REMMET098SPECI EDHK 101500Z 22014G26KT 5000 -RA BR SCT012 BKN023 BKN043 10/08 Q1001 RERA WHT BLU TEMPO YLO;
0190100465999992007011015104+54367+010133FM-16+0032EDHK V0202301N006710030019N0045001N1+01001+00801999999ADDGA1071+003001999GA2071+005401999GF107991999999999999999999MA1100101999999MW1101MW2631OC101291REMMET085SPECI EDHK 101510Z 23013G25KT 4500 RA BR BKN010 BKN018 10/08 Q1001 GRN BLU TEMPO YLO;
0199100465999992007011015204+54367+010133FM-15+0032EDHK V0202301N00671004801CN0070001N1+01001+00801999999ADDGA1021+003001999GA2041+004801999GA3081+024001999GF108991999999999999999999MA1100101999999MW1611REMMET092METAR EDHK 101520Z 23013KT 7000 -RA FEW010 SCT016 OVC080 10/08 Q1001 RERA WHT BLU TEMPO YLO;
0205100465999992007011016204+54367+010133FM-15+0032EDHK V0202201N00671006001CN0112651N1+01001+00701999999ADDGA1021+003601999GA2041+006001999GA3071+014401999GF107991999999999999999999MA1100001999999MW1611OC101231REMMET090METAR EDHK 101620Z 22013G24KT 9999 -RA FEW012 SCT020 BKN048 10/07 Q1000 BLU BLU TEMPO YLO;
0213100465999992007011017204+54367+010133FM-15+0032EDHK V0202201N006210045019N0050001N1+00901+00701999999ADDGA1021+003001999GA2071+004501999GA3071+007201999GF107991999999999999999999MA1100001999999MW1101MW2631OC101131REMMET092METAR EDHK 101720Z 22012G22KT 5000 RA BR FEW010 BKN015 BKN024 09/07 Q1000 WHT BLU TEMPO YLO;
0190100465999992007011017264+54367+010133FM-16+0032EDHK V0202301N006710030019N0030001N1+00901+00701999999ADDGA1041+001201999GA2071+003001999GF107991999999999999999999MA1100001999999MW1101MW2631OC101541REMMET085SPECI EDHK 101726Z 23013G30KT 3000 RA BR SCT004 BKN010 09/07 Q1000 YLO BLU TEMPO YLO;
0199100465999992007011018034+54367+010133FM-16+0032EDHK V0202301N007210048019N0060001N1+00801+00501999999ADDGA1041+003001999GA2071+004801999GA3071+009601999GF107991999999999999999999MA1100001999999MW1611REMMET092SPECI EDHK 101803Z 23014KT 6000 -RA SCT010 BKN016 BKN032 08/05 Q1000 RERA WHT BLU TEMPO YLO;
0208100465999992007011018204+54367+010133FM-15+0032EDHK V0202301N006710039019N0050001N1+00701+00501999999ADDGA1041+002701999GA2071+003901999GA3071+007501999GF107991999999999999999999MA1100001999999MW1101MW2611REMMET095METAR EDHK 101820Z 23013KT 5000 -RA BR SCT009 BKN013 BKN025 07/05 Q1000 RERA GRN BLU TEMPO YLO;
0182100465999992007011019154+54367+010133FM-16+0032EDHK V0202701N008210042019N0090001N1+00701+00401999999ADDGA1021+003001999GA2071+004201999GA3071+009001999GF107991999999999999999999MA1100101999999REMMET081SPECI EDHK 101915Z 27016KT 9000 FEW010 BKN014 BKN030 07/04 Q1001 BLU FCST CANCEL;
0170100465999992007011019204+54367+010133FM-15+0032EDHK V0202601N00821004201CN0112651N1+00701+00401999999ADDGA1021+003601999GA2041+004201999GA3071+009001999GF107991999999999999999999MA1100101999999REMMET069METAR EDHK 101920Z 26016KT 9999 FEW012 SCT014 BKN030 07/04 Q1001 BLU;
0147100465999992007011020204+54367+010133FM-15+0032EDHK V0202401N007710120019N0112651N1+00701+00401999999ADDGA1041+005401999GA2071+012001999GF107991999999999999999999MA1100311999999REMMET062METAR EDHK 102020Z 24015KT 9999 SCT018 BKN040 07/04 Q1003 BLU;
0170100465999992007011021204+54367+010133FM-15+0032EDHK V0202401N00931012601CN0112651N1+00601+00301999999ADDGA1041+004501999GA2041+012601999GA3071+024001999GF107991999999999999999999MA1100411999999REMMET069METAR EDHK 102120Z 24018KT 9999 SCT015 SCT042 BKN080 06/03 Q1004 BLU;
0148100465999992007011022204+54367+010133FM-15+0032EDHK V0202301N007712200019N0112651N1+00601+00301999999ADDGA1021+006001999GA2041+012001999GF104991999999999999999999MA1100411999999REMMET063METAR EDHK 102220Z 23015KT 9999 FEW020 SCT040 06/03 Q1004 BLU+;
0148100465999992007011023204+54367+010133FM-15+0032EDHK V0202401N006712200019N0112651N1+00601+00301999999ADDGA1021+005401999GA2041+007501999GF104991999999999999999999MA1100511999999REMMET063METAR EDHK 102320Z 24013KT 9999 FEW018 SCT025 06/03 Q1005 BLU+;
0148100465999992007011100204+54367+010133FM-15+0032EDHK V0202401N007712200019N0112651N1+00601+00301999999ADDGA1021+004501999GA2041+006601999GF104991999999999999999999MA1100611999999REMMET063METAR EDHK 110020Z 24015KT 9999 FEW015 SCT022 06/03 Q1006 BLU+;
0158100465999992007011101204+54367+010133FM-15+0032EDHK V0202501N008710060019N0112651N1+00601+00301999999ADDGA1021+003601999GA2071+006001999GF107991999999999999999999MA1100711999999OC101441REMMET065METAR EDHK 110120Z 25017G28KT 9999 FEW012 BKN020 06/03 Q1007 BLU;
0180100465999992007011102204+54367+010133FM-15+0032EDHK V0202401N00721006001CN0060001N1+00601+00301999999ADDGA1021+004501999GA2041+006001999GA3071+012001999GF107991999999999999999999MA1100711999999MW1611REMMET073METAR EDHK 110220Z 24014KT 6000 -RA FEW015 SCT020 BKN040 06/03 Q1007 WHT;
0147100465999992007011103204+54367+010133FM-15+0032EDHK V0202501N008710114019N0080001N1+00601+00301999999ADDGA1021+004501999GA2071+011401999GF107991999999999999999999MA1100811999999REMMET062METAR EDHK 110320Z 25017KT 8000 FEW015 BKN038 06/03 Q1008 BLU;
0174100465999992007011104204+54367+010133FM-15+0032EDHK V0202301N00621006601CN0112651N1+00601+00301999999ADDGA1021+004501999GA2041+006601999GA3071+012001999GF107991999999999999999999MA1100711999999REMMET073METAR EDHK 110420Z 23012KT 9999 FEW015 SCT022 BKN040 06/03 Q1007 BLU BLU;
0174100465999992007011105204+54367+010133FM-15+0032EDHK V0202201N00821006001CN0112651N1+00601+00301999999ADDGA1021+003601999GA2041+006001999GA3071+012001999GF107991999999999999999999MA1100711999999REMMET073METAR EDHK 110520Z 22016KT 9999 FEW012 SCT020 BKN040 06/03 Q1007 BLU BLU;
0195100465999992007011106204+54367+010133FM-15+0032EDHK V0202201N00771012001CN0112651N1+00601+00201999999ADDGA1041+005701999GA2041+012001999GA3071+024001999GF107991999999999999999999MA1100711999999OC101651REMMET086METAR EDHK 110620Z 22015G32KT 9999 SCT019 SCT040 BKN080 06/02 Q1007 BLU BLU BECMG WHT;
0205100465999992007011107204+54367+010133FM-15+0032EDHK V0202201N006710066019N0112651N1+00501+00101999999ADDGA1021+003001999GA2071+006601999GA3071+015001999GF107991999999999999999999MA1100511999999MW1611OC101391REMMET090METAR EDHK 110720Z 22013G27KT 9999 -RA FEW010 BKN022 BKN050 05/01 Q1005 WHT WHT TEMPO YLO;
0187100465999992007011108204+54367+010133FM-15+0032EDHK V0202001N008210054019N0080001N1+00501+00201999999ADDGA1041+003601999GA2071+005401999GF107991999999999999999999MA1100201999999MW1611OC101441REMMET088METAR EDHK 110820Z 20016G28KT 8000 -RA SCT012 BKN018 05/02 Q1002 RERA WHT WHT TEMPO YLO;
0204100465999992007011108504+54367+010133FM-15+0032EDHK V0202001N008210039019N0080001N1+00501+00201999999ADDGA1021+003001999GA2071+003901999GA3071+006301999GF107991999999999999999999MA1100101999999MW1631OC101391REMMET089SPECI EDHK 110850Z 20016G27KT 8000 RA FEW010 BKN013 BKN021 05/02 Q1001 GRN WHT TEMPO YLO;
0204100465999992007011109004+54367+010133FM-15+0032EDHK V0202001N008710039019N0080001N1+00401+00201999999ADDGA1021+003001999GA2071+003901999GA3071+006301999GF107991999999999999999999MA1100101999999MW1631OC101851REMMET089SPECI EDHK 110859Z 20017G36KT 8000 RA FEW010 BKN013 BKN021 04/02 Q1001 GRN WHT TEMPO YLO;
0181100465999992007011109204+54367+010133FM-15+0032EDHK V0202001N010810030019N0070001N1+00401+00201999999ADDGA1071+003001999GA2071+004501999GF107991999999999999999999MA1100001999999MW1631OC101801REMMET082METAR EDHK 110920Z 20021G35KT 7000 RA BKN010 BKN015 04/02 Q1000 GRN WHT TEMPO YLO;
0210100465999992007011110204+54367+010133FM-15+0032EDHK V0202101N01081003901CN0090001N1+00401+00201999999ADDGA1021+003001999GA2041+003901999GA3071+006901999GF107991999999999999999999MA1099701999999MW1611OC101801REMMET095METAR EDHK 111020Z 21021G35KT 9000 -RA FEW010 SCT013 BKN023 04/02 Q0997 RERA WHT WHT TEMPO YLO;
0199100465999992007011110464+54367+010133FM-16+0032EDHK V0202101N009310039019N0050001N1+00501+00201999999ADDGA1041+003001999GA2071+003901999GF107991999999999999999999MA1099591999999MW1101MW2511MW3611OC101651REMMET088SPECI EDHK 111046Z 21018G32KT 5000 -RADZ BR SCT010 BKN013 05/02 Q0996 GRN WHT TEMPO YLO;
0190100465999992007011111094+54367+010133FM-16+0032EDHK V0202101N009810036019N0042001N1+00501+00201999999ADDGA1021+003001999GA2071+003601999GF107991999999999999999999MA1099591999999MW1101MW2631OC101651REMMET085SPECI EDHK 111109Z 21019G32KT 4200 RA BR FEW010 BKN012 05/02 Q0996 GRN WHT TEMPO YLO;
0190100465999992007011111204+54367+010133FM-15+0032EDHK V0202101N011310036019N0042001N1+00501+00201999999ADDGA1021+003001999GA2071+003601999GF107991999999999999999999MA1099491999999MW1101MW2631OC101801REMMET085METAR EDHK 111120Z 21022G35KT 4200 RA BR FEW010 BKN012 05/02 Q0995 GRN WHT TEMPO YLO;
0181100465999992007011112204+54367+010133FM-15+0032EDHK V0202101N010310042019N0060001N1+00501+00301999999ADDGA1041+003001999GA2071+004201999GF107991999999999999999999MA1099391999999MW1631OC101651REMMET082METAR EDHK 111220Z 21020G32KT 6000 RA SCT010 BKN014 05/03 Q0994 GRN WHT TEMPO YLO;
0181100465999992007011112504+54367+010133FM-15+0032EDHK V0202101N008210045019N0070001N1+00501+00301999999ADDGA1041+003001999GA2071+004501999GF107991999999999999999999MA1099191999999MW1631OC101491REMMET082SPECI EDHK 111250Z 21016G29KT 7000 RA SCT010 BKN015 05/03 Q0992 WHT WHT TEMPO YLO;
0181100465999992007011113204+54367+010133FM-15+0032EDHK V0201201N009810048019N0070001N1+00601+00301999999ADDGA1041+003001999GA2071+004801999GF107991999999999999999999MA1099091999999MW1631OC101701REMMET082METAR EDHK 111320Z 12019G33KT 7000 RA SCT010 BKN016 06/03 Q0991 WHT WHT TEMPO YLO;
0181100465999992007011113504+54367+010133FM-15+0032EDHK V0202101N010310048019N0070001N1+00601+00401999999ADDGA1041+003301999GA2071+004801999GF107991999999999999999999MA1098982999999MW1631OC102011REMMET082SPECI EDHK 111350Z 21020G39KT 7000 RA SCT011 BKN016 06/04 Q0990 WHT WHT TEMPO YLO;
0190100465999992007011114204+54367+010133FM-15+0032EDHK V0202501N007210030019N0050001N1+00601+00401999999ADDGA1071+003001999GA2071+004801999GF107991999999999999999999MA1098982999999MW1101MW2631OC101291REMMET085METAR EDHK 111420Z 25014G25KT 5000 RA BR BKN010 BKN016 06/04 Q0990 GRN WHT TEMPO YLO;
0166100465999992007011115204+54367+010133FM-15+0032EDHK V0202201N005710120019N0080001N1+00501+00401999999ADDGA1041+003001999GA2071+012001999GF107991999999999999999999MA1098981999999MW1611REMMET075METAR EDHK 111520Z 22011KT 8000 -RA SCT010 BKN040 05/04 Q0990 RERA BLU BLU;
0151100465999992007011116204+54367+010133FM-15+0032EDHK V0202201N006710210019N0112651N1+00601+00401999999ADDGA1021+004501999GA2071+021001999GF107991999999999999999999MA1098981999999REMMET066METAR EDHK 111620Z 22013KT 9999 FEW015 BKN070 06/04 Q0990 BLU BLU;
0138100465999992007011117204+54367+010133FM-15+0032EDHK V0202301N008212200019N0112651N1+00701+00501999999ADDGA1041+005401999GF104991999999999999999999MA1099091999999REMMET069METAR EDHK 111720Z 23016KT 9999 SCT018 07/05 Q0991 BLU+BLU TEMPO WHT;
0161100465999992007011118204+54367+010133FM-15+0032EDHK V0202401N007710180019N0112651N1+00801+00401999999ADDGA1041+008401999GA2071+018001999GF107991999999999999999999MA1099091999999REMMET076METAR EDHK 111820Z 24015KT 9999 SCT028 BKN060 08/04 Q0991 BLU BLU TEMPO WHT;
0190100465999992007011119004+54367+010133FM-15+0032EDHK V0202401N010810150019N0080001N1+00801+00501999999ADDGA1041+004801021GA2071+015001999GF107991999999999999999999MA1099091999999MW1801OC101701REMMET091SPECI EDHK 111900Z 24021G33KT 8000 -SHRA SCT016TCU BKN050 08/05 Q0991 RERA BLU FCST CANCEL;
0167100465999992007011119204+54367+010133FM-15+0032EDHK V0202401N008212200019N0112651N1+00801+00501999999ADDGA1021+004801021GA2041+018001999GF104991999999999999999999MA1099091999999OC101391REMMET074METAR EDHK 111920Z 24016G27KT 9999 FEW016TCU SCT060 08/05 Q0991 RERA BLU+;
0149100465999992007011119414+54367+010133FM-16+0032EDHK V0202401N010810057019N0040001N1+00801+00401999999ADDGA1071+005701021GF107991999999999999999999MA1099091999999MW1811OC101951REMMET066SPECI EDHK 111941Z 24021G38KT 4000 SHRA BKN019TCU 08/04 Q0991 GRN;
0167100465999992007011120004+54367+010133FM-15+0032EDHK V0202401N010810180019N0060001N1+00801+00501999999ADDGA1041+005701021GA2071+018001999GF107991999999999999999999MA1099091999999MW1801REMMET076SPECI EDHK 112000Z 24021KT 6000 -SHRA SCT019TCU BKN060 08/05 Q0991 RERA WHT;
0110100465999992007011120204+54367+010133FM-15+0032EDHK V0202401N009312200019N9999999N1+00801+00501999999ADDMA1099201999999OC101601REMMET075METAR EDHK 112020Z 24018G31KT FEW019TCU SCT040 BKN060 08/05 Q0992 RERA BLU;
0172100465999992007011121204+54367+010133FM-15+0032EDHK V0202401N011810180019N0060001N1+00801+00501999999ADDGA1041+007201021GA2071+018001999GF107991999999999999999999MA1099091999999MW1811OC101951REMMET073METAR EDHK 112120Z 24023G38KT 6000 SHRA SCT024TCU BKN060 08/05 Q0991 WHT;
0172100465999992007011122004+54367+010133FM-15+0032EDHK V0202501N011810060019N0035001N1+00801+00501999999ADDGA1021+003001999GA2071+006001021GF107991999999999999999999MA1099191999999MW1811OC101901REMMET073SPECI EDHK 112158Z 25023G37KT 3500 SHRA FEW010 BKN020TCU 08/05 Q0992 YLO;
0166100465999992007011122134+54367+010133FM-16+0032EDHK V0202501N013410090019N0090001N1+00801+00501999999ADDGA1021+006001021GA2071+009001999GF107991999999999999999999MA1099191999999OC102111REMMET073SPECI EDHK 112213Z 25026G41KT 9000 FEW020TCU BKN030 08/05 Q0992 RERA BLU;
0178100465999992007011122204+54367+010133FM-15+0032EDHK V0202501N012910105019N0060001N1+00801+00501999999ADDGA1041+006001021GA2071+010501999GF107991999999999999999999MA1099191999999MW1801OC102011REMMET079METAR EDHK 112220Z 25025G39KT 6000 -SHRA SCT020TCU BKN035 08/05 Q0992 RERA WHT;
0172100465999992007011123004+54367+010133FM-15+0032EDHK V0202501N013410060019N0040001N1+00801+00401999999ADDGA1021+003601999GA2071+006001021GF107991999999999999999999MA1099291999999MW1811OC101951REMMET073SPECI EDHK 112300Z 25026G38KT 4000 SHRA FEW012 BKN020TCU 08/04 Q0993 GRN;
0164100465999992007011123204+54367+010133FM-15+0032EDHK V0202601N012912200019N0112651N1+00801+00501999999ADDGA1041+007501999GA2041+015001999GF104991999999999999999999MA1099391999999OC101901REMMET071METAR EDHK 112320Z 26025G37KT 9999 SCT025 SCT050 08/05 Q0994 RERA BLU+;
0149100465999992007011123394+54367+010133FM-16+0032EDHK V0202601N013410066019N0040001N1+00901+00401999999ADDGA1071+006601021GF107991999999999999999999MA1099491999999MW1811OC102011REMMET066SPECI EDHK 112339Z 26026G39KT 4000 SHRA BKN022TCU 09/04 Q0995 GRN;
0155100465999992007011200024+54367+010133FM-16+0032EDHK V0202601N013910150019N0112651N1+00801+00401999999ADDGA1021+006301021GA2071+015001999GF107991999999999999999999MA1099491999999REMMET070SPECI EDHK 120002Z 26027KT 9999 FEW021TCU BKN050 08/04 Q0995 RERA BLU;
0141100465999992007011200204+54367+010133FM-15+0032EDHK V0202701N014912200019N0112651N1+00901+00301999999ADDGA1041+015001999GF104991999999999999999999MA1099491999999OC102061REMMET064METAR EDHK 120020Z 27029G40KT 9999 SCT050 09/03 Q0995 RERA BLU+;
0159100465999992007011200294+54367+010133FM-16+0032EDHK V0202601N012912200019N0112651N1+00901+00301999999ADDGA1021+007801999GA2041+015001999GF104991999999999999999999MA1099491999999OC102471REMMET066SPECI EDHK 120029Z 26025G48KT 9999 FEW026 SCT050 09/03 Q0995 BLU+;
0158100465999992007011201204+54367+010133FM-15+0032EDHK V0202601N015910180019N0112651N1+00801+00301999999ADDGA1041+008401999GA2071+018001999GF107991999999999999999999MA1099701999999OC102311REMMET065METAR EDHK 120120Z 26031G45KT 9999 SCT028 BKN060 08/03 Q0997 BLU;
0172100465999992007011201454+54367+010133FM-15+0032EDHK V0202701N015910054019N0035001N1+00801+00301999999ADDGA1041+002701999GA2071+005401021GF107991999999999999999999MA1099801999999MW1811OC102371REMMET073SPECI EDHK 120145Z 27031G46KT 3500 SHRA SCT009 BKN018TCU 08/03 Q0998 YLO;
0167100465999992007011202044+54367+010133FM-16+0032EDHK V0202701N014912200019N0112651N1+00801+00301999999ADDGA1021+005401021GA2041+010201999GF104991999999999999999999MA1099901999999OC102371REMMET074SPECI EDHK 120204Z 27029G46KT 9999 FEW018TCU SCT034 08/03 Q0999 RERA BLU+;
0167100465999992007011202204+54367+010133FM-15+0032EDHK V0202701N013912200019N0112651N1+00701+00201999999ADDGA1021+005401021GA2041+010201999GF104991999999999999999999MA1099901999999OC102061REMMET074METAR EDHK 120220Z 27027G40KT 9999 FEW018TCU SCT034 07/02 Q0999 RERA BLU+;
0136100465999992007011203204+54367+010133FM-15+0032EDHK V0202701N013412200019N0112651N1+00701+00201999999ADDGA1021+011401999GF102991999999999999999999MA1100001999999OC101951REMMET059METAR EDHK 120320Z 27026G38KT 9999 FEW038 07/02 Q1000 BLU+;
0149100465999992007011204204+54367+010133FM-15+0032EDHK V0202701N013912200019N0112651N1+00801+00101999999ADDGA1021+012001999GF102991999999999999999999MA1100311999999OC102011REMMET072METAR EDHK 120420Z 27027G39KT 9999 FEW040 08/01 Q1003 BLU+BLU+TEMPO BLU;
0172100465999992007011205204+54367+010133FM-15+0032EDHK V0202701N013412200019N0112651N1+00801+00201999999ADDGA1021+009001999GA2041+014401999GF104991999999999999999999MA1100511999999OC102311REMMET079METAR EDHK 120520Z 27026G45KT 9999 FEW030 SCT048 08/02 Q1005 BLU+BLU+TEMPO BLU;
0149100465999992007011206204+54367+010133FM-15+0032EDHK V0202701N010812200019N0112651N1+00801+00201999999ADDGA1041+010201999GF104991999999999999999999MA1100711999999OC101801REMMET072METAR EDHK 120620Z 27021G35KT 9999 SCT034 08/02 Q1007 BLU+BLU+TEMPO BLU;
0149100465999992007011207204+54367+010133FM-15+0032EDHK V0202601N010812200019N0112651N1+00701+00201999999ADDGA1021+010201999GF102991999999999999999999MA1100911999999OC101591REMMET072METAR EDHK 120720Z 26021G31KT 9999 FEW034 07/02 Q1009 BLU+BLU+TEMPO BLU;
0149100465999992007011208204+54367+010133FM-15+0032EDHK V0202601N009312200019N0112651N1+00701+00301999999ADDGA1021+006601999GF102991999999999999999999MA1101021999999OC101541REMMET072METAR EDHK 120820Z 26018G30KT 9999 FEW022 07/03 Q1010 BLU+BLU+TEMPO BLU;
0163100465999992007011209204+54367+010133FM-15+0032EDHK V0202501N008212200019N0112651N1+00801+00301999999ADDGA1021+006001999GA2041+045001999GF104991999999999999999999MA1101192999999OC101491REMMET070METAR EDHK 120920Z 25016G29KT 9999 FEW020 SCT150 08/03 Q1012 BLU+BLU+;
0152100465999992007011210204+54367+010133FM-15+0032EDHK V0202501N008712200019N0112651N1+00801+00301999999ADDGA1021+006001999GA2041+039001999GF104991999999999999999999MA1101192999999REMMET067METAR EDHK 121020Z 25017KT 9999 FEW020 SCT130 08/03 Q1012 BLU+BLU+;
0152100465999992007011211204+54367+010133FM-15+0032EDHK V0202401N007210360019N0112651N1+00801+00401999999ADDGA1021+006001999GA2071+036001999GF107991999999999999999999MA1101191999999REMMET067METAR EDHK 121120Z 24014KT 9999 FEW020 BKN120 08/04 Q1012 BLU BLU+;
0138100465999992007011212204+54367+010133FM-15+0032EDHK V0202401N006710060019N0112651N1+00901+00401999999ADDGA1071+006001999GF107991999999999999999999MA1101191999999REMMET069METAR EDHK 121220Z 24013KT 9999 BKN020 09/04 Q1012 WHT BLU TEMPO WHT;
0149100465999992007011213204+54367+010133FM-15+0032EDHK V0202301N008210045019N0070001N1+00801+00401999999ADDGA1071+004501999GF107991999999999999999999MA1101081999999OC101341REMMET072METAR EDHK 121320Z 23016G26KT 7000 BKN015 08/04 Q1011 WHT BLU TEMPO WHT;
0143100465999992007011214204+54367+010133FM-15+0032EDHK V0202201N007710045019N0050001N1+00801+00401999999ADDGA1071+004501999GF107991999999999999999999MA1101021999999MW1051MW2611REMMET062METAR EDHK 121420Z 22015KT 5000 -RA HZ BKN015 08/04 Q1010 WHT;
0143100465999992007011215204+54367+010133FM-15+0032EDHK V0202201N007210042019N0050001N1+00701+00401999999ADDGA1071+004201999GF107991999999999999999999MA1100811999999MW1101MW2611REMMET062METAR EDHK 121520Z 22014KT 5000 -RA BR BKN014 07/04 Q1008 GRN;
0154100465999992007011216204+54367+010133FM-15+0032EDHK V0202201N007710030019N0040001N1+00701+00501999999ADDGA1071+003001999GF107991999999999999999999MA1100711999999MW1101MW2611OC101491REMMET065METAR EDHK 121620Z 22015G29KT 4000 -RA BR BKN010 07/05 Q1007 GRN;
0154100465999992007011217204+54367+010133FM-15+0032EDHK V0202201N010310027019N0050001N1+00801+00601999999ADDGA1071+002701999GF107991999999999999999999MA1100611999999MW1101MW2611OC101801REMMET065METAR EDHK 121720Z 22020G35KT 5000 -RA BR BKN009 08/06 Q1006 GRN;
0162100465999992007011218204+54367+010133FM-15+0032EDHK V0202301N011810021019N0035001N1+00901+00701999999ADDGA1071+002101999GF107991999999999999999999MA1100511999999MW1101MW2511MW3611OC101801REMMET067METAR EDHK 121820Z 23023G35KT 3500 -RADZ BR BKN007 09/07 Q1005 YLO;
0144100465999992007011219204+54367+010133FM-15+0032EDHK V0202301N010810030019N0050001N1+01001+00801999999ADDGA1071+003001999GF107991999999999999999999MA1100411999999MW1101OC101651REMMET061METAR EDHK 121920Z 23021G32KT 5000 BR BKN010 10/08 Q1004 GRN;
0162100465999992007011220204+54367+010133FM-15+0032EDHK V0202401N011310030019N0030001N1+01001+00801999999ADDGA1071+003001999GF107991999999999999999999MA1100411999999MW1101MW2511MW3611OC101851REMMET067METAR EDHK 122020Z 24022G36KT 3000 -RADZ BR BKN010 10/08 Q1004 YLO;
0162100465999992007011221204+54367+010133FM-15+0032EDHK V0202401N010310030019N0040001N1+01001+00801999999ADDGA1071+003001999GF107991999999999999999999MA1100311999999MW1101MW2511MW3611OC102011REMMET067METAR EDHK 122120Z 24020G39KT 4000 -RADZ BR BKN010 10/08 Q1003 GRN;
0162100465999992007011222204+54367+010133FM-15+0032EDHK V0202401N012910027019N0030001N1+01101+00801999999ADDGA1071+002701999GF107991999999999999999999MA1100311999999MW1101MW2511MW3611OC102011REMMET067METAR EDHK 122220Z 24025G39KT 3000 -RADZ BR BKN009 11/08 Q1003 YLO;
0158100465999992007011223204+54367+010133FM-15+0032EDHK V0202401N013410060019N0060001N1+01101+00801999999ADDGA1041+003001999GA2071+006001999GF107991999999999999999999MA1100311999999OC102261REMMET065METAR EDHK 122320Z 24026G44KT 6000 SCT010 BKN020 11/08 Q1003 WHT;
0158100465999992007011300204+54367+010133FM-15+0032EDHK V0202401N014910051019N0080001N1+01101+00701999999ADDGA1041+003001999GA2071+005101999GF107991999999999999999999MA1100311999999OC102111REMMET065METAR EDHK 130020Z 24029G41KT 8000 SCT010 BKN017 11/07 Q1003 WHT;
0135100465999992007011300504+54367+010133FM-15+0032EDHK V0202501N015410057019N0080001N1+01101+00701999999ADDGA1071+005701999GF107991999999999999999999MA1100411999999OC102371REMMET058SPECI EDHK 130050Z 25030G46KT 8000 BKN019 11/07 Q1004 WHT;
0135100465999992007011301204+54367+010133FM-15+0032EDHK V0202501N013910057019N0080001N1+01101+00701999999ADDGA1071+005701999GF107991999999999999999999MA1100411999999OC102261REMMET058METAR EDHK 130120Z 25027G44KT 8000 BKN019 11/07 Q1004 WHT;
0124100465999992007011302204+54367+010133FM-15+0032EDHK V0202501N011810051019N0080001N1+01101+00701999999ADDGA1071+005101999GF107991999999999999999999MA1100611999999REMMET055METAR EDHK 130220Z 25023KT 8000 BKN017 11/07 Q1006 WHT;
0124100465999992007011303204+54367+010133FM-15+0032EDHK V0202601N011810060019N0080001N1+01101+00601999999ADDGA1071+006001999GF107991999999999999999999MA1100611999999REMMET055METAR EDHK 130320Z 26023KT 8000 BKN020 11/06 Q1006 WHT;
0135100465999992007011304204+54367+010133FM-15+0032EDHK V0202501N013410066019N0112651N1+01001+00501999999ADDGA1071+006601999GF107991999999999999999999MA1100711999999OC101901REMMET058METAR EDHK 130420Z 25026G37KT 9999 BKN022 10/05 Q1007 WHT;
0124100465999992007011305204+54367+010133FM-15+0032EDHK V0202501N011810060019N0112651N1+01001+00501999999ADDGA1071+006001999GF107991999999999999999999MA1100811999999REMMET055METAR EDHK 130520Z 25023KT 9999 BKN020 10/05 Q1008 WHT;
0135100465999992007011306204+54367+010133FM-15+0032EDHK V0202501N011810075019N0112651N1+01001+00501999999ADDGA1071+007501999GF107991999999999999999999MA1100911999999OC101951REMMET058METAR EDHK 130620Z 25023G38KT 9999 BKN025 10/05 Q1009 BLU;
0135100465999992007011307204+54367+010133FM-15+0032EDHK V0202501N012310075019N0112651N1+01001+00401999999ADDGA1071+007501999GF107991999999999999999999MA1101021999999OC101801REMMET058METAR EDHK 130720Z 25024G35KT 9999 BKN025 10/04 Q1010 BLU;
0135100465999992007011308204+54367+010133FM-15+0032EDHK V0202501N012310075019N0112651N1+01001+00501999999ADDGA1071+007501999GF107991999999999999999999MA1101081999999OC101851REMMET058METAR EDHK 130820Z 25024G36KT 9999 BKN025 10/05 Q1011 BLU;
0135100465999992007011309204+54367+010133FM-15+0032EDHK V0202501N010810060019N0070001N1+01001+00501999999ADDGA1071+006001999GF107991999999999999999999MA1101191999999OC101951REMMET058METAR EDHK 130920Z 25021G38KT 7000 BKN020 10/05 Q1012 WHT;
0124100465999992007011310204+54367+010133FM-15+0032EDHK V0202601N009810060019N0070001N1+00901+00501999999ADDGA1071+006001999GF107991999999999999999999MA1101191999999REMMET055METAR EDHK 131020Z 26019KT 7000 BKN020 09/05 Q1012 WHT;
0124100465999992007011311204+54367+010133FM-15+0032EDHK V0202601N009310057019N0070001N1+00901+00501999999ADDGA1071+005701999GF107991999999999999999999MA1101191999999REMMET055METAR EDHK 131120Z 26018KT 7000 BKN019 09/05 Q1012 WHT;
0124100465999992007011312204+54367+010133FM-15+0032EDHK V0202501N009310078019N0112651N1+00901+00401999999ADDGA1071+007801999GF107991999999999999999999MA1101391999999REMMET055METAR EDHK 131220Z 25018KT 9999 BKN026 09/04 Q1014 BLU;
0124100465999992007011313204+54367+010133FM-15+0032EDHK V0202601N008210060019N0112651N1+00901+00401999999ADDGA1071+006001999GF107991999999999999999999MA1101391999999REMMET055METAR EDHK 131320Z 26016KT 9999 BKN020 09/04 Q1014 WHT;
0124100465999992007011314204+54367+010133FM-15+0032EDHK V0202401N005110060019N0112651N1+00901+00501999999ADDGA1071+006001999GF107991999999999999999999MA1101391999999REMMET055METAR EDHK 131420Z 24010KT 9999 BKN020 09/05 Q1014 WHT;
0148100465999992007011315204+54367+010133FM-15+0032EDHK V0202301N005112200019N0090001N1+00801+00501999999ADDGA1041+004801999GA2041+078001999GF104991999999999999999999MA1101391999999REMMET063METAR EDHK 131520Z 23010KT 9000 SCT016 SCT260 08/05 Q1014 BLU+;
0124100465999992007011316204+54367+010133FM-15+0032EDHK V0202001N003110108019N0060001N1+00801+00501999999ADDGA1071+010801999GF107991999999999999999999MA1101291999999REMMET055METAR EDHK 131620Z 20006KT 6000 BKN036 08/05 Q1013 WHT;
0151100465999992007011317204+54367+010133FM-15+0032EDHK V0201901N004110030019N0032001N1+00801+00501999999ADDGA1071+003001999GF107991999999999999999999MA1101191999999MW1101MW2511MW3611REMMET064METAR EDHK 131720Z 19008KT 3200 -DZRA BR BKN010 08/05 Q1012 YLO;
0151100465999992007011318204+54367+010133FM-15+0032EDHK V0201901N004110015019N0030001N1+00801+00601999999ADDGA1071+001501999GF107991999999999999999999MA1101081999999MW1101MW2511MW3611REMMET064METAR EDHK 131820Z 19008KT 3000 -DZRA BR BKN005 08/06 Q1011 YLO;
0143100465999992007011319204+54367+010133FM-15+0032EDHK V0202201N005710018019N0045001N1+00901+00701999999ADDGA1071+001801999GF107991999999999999999999MA1101021999999MW1101MW2511REMMET062METAR EDHK 131920Z 22011KT 4500 -DZ BR BKN006 09/07 Q1010 YLO;
0154100465999992007011320204+54367+010133FM-15+0032EDHK V0202201N007210021019N0050001N1+00901+00701999999ADDGA1071+002101999GF107991999999999999999999MA1100911999999MW1101MW2511OC101291REMMET065METAR EDHK 132020Z 22014G25KT 5000 -DZ BR BKN007 09/07 Q1009 GRN;
0199100465999992007011321204+54367+010133FM-15+0032EDHK V0202101N007710039019N0060001N1+00901+00701999999ADDGA1041+002101999GA2071+003901999GA3071+009001999GF107991999999999999999999MA1100811999999MW1511MW2611OC101291REMMET078METAR EDHK 132120Z 21015G25KT 6000 -DZRA SCT007 BKN013 BKN030 09/07 Q1008 GRN;
0153100465999992007011322204+54367+010133FM-15+0032EDHK V0202201N006710030019N0060001N1+00901+00701999999ADDGA1071+003001999GF107991999999999999999999MA1100711999999MW1511MW2611OC101291REMMET064METAR EDHK 132220Z 22013G25KT 6000 -DZRA BKN010 09/07 Q1007 GRN;
0168100465999992007011323204+54367+010133FM-15+0032EDHK V0202201N007710042019N0070001N1+01001+00601999999ADDGA1071+004201999GA2071+013501999GF107991999999999999999999MA1100611999999MW1511OC101391REMMET069METAR EDHK 132320Z 22015G27KT 7000 -DZ BKN014 BKN045 10/06 Q1006 GRN;
0145100465999992007011400204+54367+010133FM-15+0032EDHK V0202201N008710042019N0090001N1+01001+00701999999ADDGA1071+004201999GF107991999999999999999999MA1100411999999MW1511OC101491REMMET062METAR EDHK 140020Z 22017G29KT 9000 -DZ BKN014 10/07 Q1004 GRN;
0162100465999992007011401204+54367+010133FM-15+0032EDHK V0202201N008210018019N0040001N1+00901+00701999999ADDGA1071+001801999GF107991999999999999999999MA1100411999999MW1101MW2511MW3611OC101491REMMET067METAR EDHK 140120Z 22016G29KT 4000 -DZRA BR BKN006 09/07 Q1004 YLO;
0153100465999992007011401474+54367+010133FM-16+0032EDHK V0202201N010310021019N0040001N1+00901+00701999999ADDGA1071+002101999GF107991999999999999999999MA1100311999999MW1101MW2631OC101801REMMET064SPECI EDHK 140147Z 22020G35KT 4000 RA BR BKN007 09/07 Q1003 GRN;
0153100465999992007011402204+54367+010133FM-15+0032EDHK V0202401N010810030019N0040001N1+00901+00701999999ADDGA1071+003001999GF107991999999999999999999MA1100311999999MW1101MW2631OC102261REMMET064METAR EDHK 140220Z 24021G44KT 4000 RA BR BKN010 09/07 Q1003 GRN;
0149100465999992007011402404+54367+010133FM-16+0032EDHK V0202501N013410036019N0050001N1+00901+00601999999ADDGA1071+003601999GF107991999999999999999999MA1100511999999MW1101OC102311REMMET066SPECI EDHK 140240Z 25026G45KT 5000 BR BKN012 09/06 Q1005 RERA GRN;
