0151100465999992015010111204+54380+010145FM-15+003199999V0202401N007710018319N004700199+00301+00201999999ADDGA1081+001831999GE19MSL   +99999+99999GF199999081999001831999999MA1102601999999MW1101REMMET054METAR EDHK 011120Z 24015KT 4700 BR OVC006 03/02 Q1026=
0151100465999992015010111504+54380+010145FM-15+003199999V0202401N007210018319N004400199+00301+00201999999ADDGA1081+001831999GE19MSL   +99999+99999GF199999081999001831999999MA1102701999999MW1101REMMET054METAR EDHK 011150Z 24014KT 4400 BR OVC006 03/02 Q1027=
0151100465999992015010112204+54380+010145FM-15+003199999V0202401N007210018319N004300199+00301+00201999999ADDGA1081+001831999GE19MSL   +99999+99999GF199999081999001831999999MA1102601999999MW1101REMMET054METAR EDHK 011220Z 24014KT 4300 BR OVC006 03/02 Q1026=
0165100465999992015010207204+54380+010145FM-15+003199999V0202501N010810021319N009999199+00801+00701999999ADDGA1081+002131999GE19MSL   +99999+99999GF199999081999002131999999MA1100701999999MW1581OC101701REMMET060METAR EDHK 020720Z 25021G33KT 9999 -RADZ OVC007 08/07 Q1007=
0188100465999992015010207504+54380+010145FM-15+003199999V0202501N010310024419N009999199+00801+00701999999ADDGA1071+002441999GA2081+004571999GE19MSL   +99999+99999GF199999071999002441999999MA1100701999999MW1581OC101541REMMET067METAR EDHK 020750Z 25020G30KT 9999 -RADZ BKN008 OVC015 08/07 Q1007=
0176100465999992015010208204+54380+010145FM-15+003199999V0202601N012410030519N009999199+00901+00701999999ADDGA1071+003051999GA2071+005491999GE19MSL   +99999+99999GF199999071999003051999999MA1100801999999OC101901REMMET061METAR EDHK 020820Z 26024G37KT 9999 BKN010 BKN018 09/07 Q1008=
0176100465999992015010208504+54380+010145FM-15+003199999V0202601N011810057919N009999199+00901+00601999999ADDGA1041+004881999GA2071+005791999GE19MSL   +99999+99999GF199999041999004881999999MA1100801999999OC101801REMMET061METAR EDHK 020850Z 26023G35KT 9999 SCT016 BKN019 09/06 Q1008=
0176100465999992015010209204+54380+010145FM-15+003199999V0202701N011310076219N009999199+00801+00501999999ADDGA1021+006101999GA2071+007621999GE19MSL   +99999+99999GF199999021999006101999999MA1100901999999OC101751REMMET061METAR EDHK 020920Z 27022G34KT 9999 FEW020 BKN025 08/05 Q1009=
0176100465999992015010209504+54380+010145FM-15+003199999V0202701N012910085319N009999199+00801+00401999999ADDGA1041+006401999GA2071+008531999GE19MSL   +99999+99999GF199999041999006401999999MA1101001999999OC101801REMMET061METAR EDHK 020950Z 27025G35KT 9999 SCT021 BKN028 08/04 Q1010=
0176100465999992015010210204+54380+010145FM-15+003199999V0202701N012910103619N009999199+00801+00301999999ADDGA1041+007621999GA2071+010361999GE19MSL   +99999+99999GF199999041999007621999999MA1101001999999OC101801REMMET061METAR EDHK 021020Z 27025G35KT 9999 SCT025 BKN034 08/03 Q1010=
0153100465999992015010210504+54380+010145FM-15+003199999V0202701N011810091419N009999199+00701+00301999999ADDGA1071+009141999GE19MSL   +99999+99999GF199999071999009141999999MA1101101999999OC101851REMMET054METAR EDHK 021050Z 27023G36KT 9999 BKN030 07/03 Q1011=
0142100465999992015010211204+54380+010145FM-15+003199999V0202701N012419999999N009999199+00701+00301999999ADDGA1041+008841999GE19MSL   +99999+99999GF199999041999008841999999MA1101101999999REMMET051METAR EDHK 021120Z 27024KT 9999 SCT029 07/03 Q1011=
0153100465999992015010211504+54380+010145FM-15+003199999V0202701N013410091419N009999199+00701+00201999999ADDGA1071+009141999GE19MSL   +99999+99999GF199999071999009141999999MA1101101999999OC102061REMMET054METAR EDHK 021150Z 27026G40KT 9999 BKN030 07/02 Q1011=
0153100465999992015010212204+54380+010145FM-15+003199999V0202701N012919999999N009999199+00701+00201999999ADDGA1041+008841999GE19MSL   +99999+99999GF199999041999008841999999MA1101201999999OC101901REMMET054METAR EDHK 021220Z 27025G37KT 9999 SCT029 07/02 Q1012=
0153100465999992015010212504+54380+010145FM-15+003199999V0202701N012910100619N009999199+00701+00101999999ADDGA1071+010061999GE19MSL   +99999+99999GF199999071999010061999999MA1101201999999OC102011REMMET054METAR EDHK 021250Z 27025G39KT 9999 BKN033 07/01 Q1012=
0176100465999992015010213204+54380+010145FM-15+003199999V0202701N01181009451CN009999199+00601+00201999999ADDGA1021+007921999GA2041+009451999GE19MSL   +99999+99999GF199999021999007921999999MA1101201999999OC101801REMMET061METAR EDHK 021320Z 27023G35KT 9999 FEW026 SCT031 06/02 Q1012=
0176100465999992015010213504+54380+010145FM-15+003199999V0202701N01181009141CN009999199+00601+00201999999ADDGA1021+007321999GA2041+009141999GE19MSL   +99999+99999GF199999021999007321999999MA1101301999999OC101751REMMET061METAR EDHK 021350Z 27023G34KT 9999 FEW024 SCT030 06/02 Q1013=
0153100465999992015010214204+54380+010145FM-15+003199999V0202701N010819999999N009999199+00601+00201999999ADDGA1041+008531999GE19MSL   +99999+99999GF199999041999008531999999MA1101301999999OC101601REMMET054METAR EDHK 021420Z 27021G31KT 9999 SCT028 06/02 Q1013=
0165100465999992015010214504+54380+010145FM-15+003199999V0202701N011310143319N009999199+00601+00201999999ADDGA1021+008231999GA2071+014331999GE19MSL   +99999+99999GF199999021999008231999999MA1101401999999REMMET058METAR EDHK 021450Z 27022KT 9999 FEW027 BKN047 06/02 Q1014=
0180100465999992015010215204+54380+010145FM-15+003199999V0202801N010310070119N009999199+00501+00201999999ADDGA1021+003961999GA2071+007011081GE19MSL   +99999+99999GF199999021999003961999999MA1101401999999MW1801REMMET067METAR EDHK 021520Z 28020KT 9999 -SHRA FEW013 BKN023TCU 05/02 Q1014=
0186100465999992015010307204+54380+010145FM-15+003199999V0202401N010310061019N009999199+00401+00201999999ADDGA1041+004571999GA2081+006101999GE19MSL   +99999+99999GF199999041999004571999999MA1101401999999MW1611OC101651REMMET065METAR EDHK 030720Z 24020G32KT 9999 -RA SCT015 OVC020 04/02 Q1014=
0186100465999992015010307504+54380+010145FM-15+003199999V0202401N010810054919N009999199+00401+00201999999ADDGA1041+004571999GA2071+005491999GE19MSL   +99999+99999GF199999041999004571999999MA1101401999999MW1611OC101651REMMET065METAR EDHK 030750Z 24021G32KT 9999 -RA SCT015 BKN018 04/02 Q1014=
0186100465999992015010308204+54380+010145FM-15+003199999V0202501N009810045719N009999199+00401+00201999999ADDGA1071+004571999GA2081+005491999GE19MSL   +99999+99999GF199999071999004571999999MA1101301999999MW1611OC101541REMMET065METAR EDHK 030820Z 25019G30KT 9999 -RA BKN015 OVC018 04/02 Q1013=
0175100465999992015010308504+54380+010145FM-15+003199999V0202501N009810048819N009999199+00401+00201999999ADDGA1021+004271999GA2081+004881999GE19MSL   +99999+99999GF199999021999004271999999MA1101301999999MW1611REMMET062METAR EDHK 030850Z 25019KT 9999 -RA FEW014 OVC016 04/02 Q1013=
0175100465999992015010309204+54380+010145FM-15+003199999V0202501N009310045719N009999199+00401+00301999999ADDGA1071+004571999GA2081+006711999GE19MSL   +99999+99999GF199999071999004571999999MA1101301999999MW1611REMMET062METAR EDHK 030920Z 25018KT 9999 -RA BKN015 OVC022 04/03 Q1013=
0175100465999992015010309504+54380+010145FM-15+003199999V0202501N009810036619N009999199+00401+00301999999ADDGA1071+003661999GA2081+005491999GE19MSL   +99999+99999GF199999071999003661999999MA1101301999999MW1611REMMET062METAR EDHK 030950Z 25019KT 9999 -RA BKN012 OVC018 04/03 Q1013=
0186100465999992015010310204+54380+010145FM-15+003199999V0202401N008210033519N009000199+00401+00301999999ADDGA1071+003351999GA2081+005791999GE19MSL   +99999+99999GF199999071999003351999999MA1101201999999MW1611OC101441REMMET065METAR EDHK 031020Z 24016G28KT 9000 -RA BKN011 OVC019 04/03 Q1012=
0163100465999992015010310504+54380+010145FM-15+003199999V0202501N008210024419N009999199+00401+00301999999ADDGA1081+002441999GE19MSL   +99999+99999GF199999081999002441999999MA1101201999999MW1611OC101441REMMET058METAR EDHK 031050Z 25016G28KT 9999 -RA OVC008 04/03 Q1012=
0152100465999992015010311204+54380+010145FM-15+003199999V0202501N008210021319N009999199+00501+00401999999ADDGA1081+002131999GE19MSL   +99999+99999GF199999081999002131999999MA1101101999999MW1611REMMET055METAR EDHK 031120Z 25016KT 9999 -RA OVC007 05/04 Q1011=
0165100465999992015010311504+54380+010145FM-15+003199999V0202501N008210024419N009999199+00501+00401999999ADDGA1071+002441999GA2081+005491999GE19MSL   +99999+99999GF199999071999002441999999MA1101101999999REMMET058METAR EDHK 031150Z 25016KT 9999 BKN008 OVC018 05/04 Q1011=
0165100465999992015010312204+54380+010145FM-15+003199999V0202501N008210024419N009999199+00501+00401999999ADDGA1071+002441999GA2081+004571999GE19MSL   +99999+99999GF199999071999002441999999MA1101001999999REMMET058METAR EDHK 031220Z 25016KT 9999 BKN008 OVC015 05/04 Q1010=
0179100465999992015010312504+54380+010145FM-15+003199999V0203201N007710027419N004500199+00401+00301999999ADDGA1071+002741081GA2081+004571999GE19MSL   +99999+99999GF199999071999002741999999MA1101001999999MW1811REMMET066METAR EDHK 031250Z 32015KT 4500 SHRA BKN009TCU OVC015 04/03 Q1010=
0180100465999992015010313204+54380+010145FM-15+003199999V0202801N007210094519N009999199+00401+00301999999ADDGA1021+003661081GA2081+009451999GE19MSL   +99999+99999GF199999021999003661999999MA1101001999999MW1801REMMET067METAR EDHK 031320Z 28014KT 9999 -SHRA FEW012TCU OVC031 04/03 Q1010=
0142100465999992015010313504+54380+010145FM-15+003199999V0202701N006210131119N009999199+00401+00301999999ADDGA1081+013111999GE19MSL   +99999+99999GF199999081999013111999999MA1101001999999REMMET051METAR EDHK 031350Z 27012KT 9999 OVC043 04/03 Q1010=
0175100465999992015010314204+54380+010145FM-15+003199999V0202701N006210067119N009999199+00401+00301999999ADDGA1041+004271999GA2081+006711999GE19MSL   +99999+99999GF199999041999004271999999MA1101001999999MW1611REMMET062METAR EDHK 031420Z 27012KT 9999 -RA SCT014 OVC022 04/03 Q1010=
0165100465999992015010314504+54380+010145FM-15+003199999V0202701N005110033519N009999199+00401+00301999999ADDGA1071+003351999GA2081+005491999GE19MSL   +99999+99999GF199999071999003351999999MA1101001999999REMMET058METAR EDHK 031450Z 27010KT 9999 BKN011 OVC018 04/03 Q1010=
0165100465999992015010315204+54380+010145FM-15+003199999V0202601N005710033519N009999199+00401+00301999999ADDGA1071+003351999GA2081+007921999GE19MSL   +99999+99999GF199999071999003351999999MA1100901999999REMMET058METAR EDHK 031520Z 26011KT 9999 BKN011 OVC026 04/03 Q1009=
0073100465999992015010407204+54380+010145FM-15+003199999V0203001N005719999999Y999999999+00301+00001999999ADDMA1102101999999REMMET046METAR EDHK 040720Z 30011KT CAVOK 03/M00 Q1021=
0073100465999992015010407504+54380+010145FM-15+003199999V0203001N006219999999Y999999999+00301+00001999999ADDMA1102101999999REMMET046METAR EDHK 040750Z 30012KT CAVOK 03/M00 Q1021=
0072100465999992015010408204+54380+010145FM-15+003199999V0202901N006219999999Y999999999+00301+00001999999ADDMA1102201999999REMMET045METAR EDHK 040820Z 29012KT CAVOK 03/00 Q1022=
0072100465999992015010408504+54380+010145FM-15+003199999V0202901N006219999999Y999999999+00301+00001999999ADDMA1102201999999REMMET045METAR EDHK 040850Z 29012KT CAVOK 03/00 Q1022=
0072100465999992015010409204+54380+010145FM-15+003199999V0202901N006219999999Y999999999+00301+00101999999ADDMA1102301999999REMMET045METAR EDHK 040920Z 29012KT CAVOK 03/01 Q1023=
0072100465999992015010409504+54380+010145FM-15+003199999V0203001N006219999999Y999999999+00401+00101999999ADDMA1102301999999REMMET045METAR EDHK 040950Z 30012KT CAVOK 04/01 Q1023=
0072100465999992015010410204+54380+010145FM-15+003199999V0202901N005719999999Y999999999+00401+00101999999ADDMA1102401999999REMMET045METAR EDHK 041020Z 29011KT CAVOK 04/01 Q1024=
0072100465999992015010410504+54380+010145FM-15+003199999V0202901N006219999999Y999999999+00401+00101999999ADDMA1102401999999REMMET045METAR EDHK 041050Z 29012KT CAVOK 04/01 Q1024=
0142100465999992015010411204+54380+010145FM-15+003199999V0203001N006219999999N009999199+00501+00101999999ADDGA1021+005181999GE19MSL   +99999+99999GF199999021999005181999999MA1102401999999REMMET051METAR EDHK 041120Z 30012KT 9999 FEW017 05/01 Q1024=
0142100465999992015010411504+54380+010145FM-15+003199999V0203001N006719999999N009999199+00501+00101999999ADDGA1021+005491999GE19MSL   +99999+99999GF199999021999005491999999MA1102401999999REMMET051METAR EDHK 041150Z 30013KT 9999 FEW018 05/01 Q1024=
0072100465999992015010412204+54380+010145FM-15+003199999V0203001N007219999999Y999999999+00501+00101999999ADDMA1102401999999REMMET045METAR EDHK 041220Z 30014KT CAVOK 05/01 Q1024=
0150100465999992015010412504+54380+010145FM-15+003199999V0203101V007719999999N009999199+00501+00001999999ADDGA1021+009141999GE19MSL   +99999+99999GF199999021999009141999999MA1102501999999REMMET059METAR EDHK 041250Z 31015KT 280V340 9999 FEW030 05/00 Q1025=
0073100465999992015010413204+54380+010145FM-15+003199999V0203101N007719999999Y999999999+00501+00001999999ADDMA1102501999999REMMET046METAR EDHK 041320Z 31015KT CAVOK 05/M00 Q1025=
0073100465999992015010413504+54380+010145FM-15+003199999V0203101N007219999999Y999999999+00501+00001999999ADDMA1102501999999REMMET046METAR EDHK 041350Z 31014KT CAVOK 05/M00 Q1025=
0073100465999992015010414204+54380+010145FM-15+003199999V0203101N006719999999Y999999999+00501-00101999999ADDMA1102601999999REMMET046METAR EDHK 041420Z 31013KT CAVOK 05/M01 Q1026=
0073100465999992015010414504+54380+010145FM-15+003199999V0203001N005719999999Y999999999+00401+00001999999ADDMA1102601999999REMMET046METAR EDHK 041450Z 30011KT CAVOK 04/M00 Q1026=
0072100465999992015010415204+54380+010145FM-15+003199999V0203001N005719999999Y999999999+00401+00001999999ADDMA1102701999999REMMET045METAR EDHK 041520Z 30011KT CAVOK 04/00 Q1027=
0072100465999992015010415504+54380+010145FM-15+003199999V0203001N005719999999Y999999999+00401+00101999999ADDMA1102701999999REMMET045METAR EDHK 041550Z 30011KT CAVOK 04/01 Q1027=
0072100465999992015010416204+54380+010145FM-15+003199999V0202901N005119999999Y999999999+00301+00001999999ADDMA1102701999999REMMET045METAR EDHK 041620Z 29010KT CAVOK 03/00 Q1027=
0072100465999992015010416504+54380+010145FM-15+003199999V0202801N004119999999Y999999999+00201+00001999999ADDMA1102701999999REMMET045METAR EDHK 041650Z 28008KT CAVOK 02/00 Q1027=
0072100465999992015010417204+54380+010145FM-15+003199999V0202801N004119999999Y999999999+00201+00001999999ADDMA1102801999999REMMET045METAR EDHK 041720Z 28008KT CAVOK 02/00 Q1028=
0165100465999992015010417504+54380+010145FM-15+003199999V0202701N00361015241CN009999199+00301+00101999999ADDGA1021+008841999GA2041+015241999GE19MSL   +99999+99999GF199999021999008841999999MA1102801999999REMMET058METAR EDHK 041750Z 27007KT 9999 FEW029 SCT050 03/01 Q1028=
0142100465999992015010418204+54380+010145FM-15+003199999V0202701N004119999999N009999199+00201+00001999999ADDGA1021+010671999GE19MSL   +99999+99999GF199999021999010671999999MA1102801999999REMMET051METAR EDHK 041820Z 27008KT 9999 FEW035 02/00 Q1028=
0072100465999992015010418504+54380+010145FM-15+003199999V0202701N003619999999Y999999999+00201+00001999999ADDMA1102801999999REMMET045METAR EDHK 041850Z 27007KT CAVOK 02/00 Q1028=
0072100465999992015010419204+54380+010145FM-15+003199999V0202701N003619999999Y999999999+00201+00101999999ADDMA1102801999999REMMET045METAR EDHK 041920Z 27007KT CAVOK 02/01 Q1028=
0072100465999992015010419504+54380+010145FM-15+003199999V0202601N004619999999Y999999999+00301+00101999999ADDMA1102801999999REMMET045METAR EDHK 041950Z 26009KT CAVOK 03/01 Q1028=
0142100465999992015010506204+54380+010145FM-15+003199999V0202701N006210076219N009999199+00501+00301999999ADDGA1081+007621999GE19MSL   +99999+99999GF199999081999007621999999MA1102601999999REMMET051METAR EDHK 050620Z 27012KT 9999 OVC025 05/03 Q1026=
0142100465999992015010506504+54380+010145FM-15+003199999V0202801N005710088419N009999199+00501+00301999999ADDGA1081+008841999GE19MSL   +99999+99999GF199999081999008841999999MA1102601999999REMMET051METAR EDHK 050650Z 28011KT 9999 OVC029 05/03 Q1026=
0142100465999992015010507204+54380+010145FM-15+003199999V0202901N005710088419N009999199+00501+00301999999ADDGA1081+008841999GE19MSL   +99999+99999GF199999081999008841999999MA1102601999999REMMET051METAR EDHK 050720Z 29011KT 9999 OVC029 05/03 Q1026=
0142100465999992015010507504+54380+010145FM-15+003199999V0202801N005710088419N009999199+00501+00301999999ADDGA1081+008841999GE19MSL   +99999+99999GF199999081999008841999999MA1102601999999REMMET051METAR EDHK 050750Z 28011KT 9999 OVC029 05/03 Q1026=
0142100465999992015010508204+54380+010145FM-15+003199999V0202801N005110082319N009999199+00501+00301999999ADDGA1081+008231999GE19MSL   +99999+99999GF199999081999008231999999MA1102601999999REMMET051METAR EDHK 050820Z 28010KT 9999 OVC027 05/03 Q1026=
0165100465999992015010508504+54380+010145FM-15+003199999V0202701N004610079219N009999199+00501+00301999999ADDGA1021+006401999GA2071+007921999GE19MSL   +99999+99999GF199999021999006401999999MA1102601999999REMMET058METAR EDHK 050850Z 27009KT 9999 FEW021 BKN026 05/03 Q1026=
0142100465999992015010509204+54380+010145FM-15+003199999V0202701N003610070119N009999199+00501+00301999999ADDGA1081+007011999GE19MSL   +99999+99999GF199999081999007011999999MA1102601999999REMMET051METAR EDHK 050920Z 27007KT 9999 OVC023 05/03 Q1026=
0142100465999992015010509504+54380+010145FM-15+003199999V0202701N004110073219N009999199+00501+00301999999ADDGA1081+007321999GE19MSL   +99999+99999GF199999081999007321999999MA1102601999999REMMET051METAR EDHK 050950Z 27008KT 9999 OVC024 05/03 Q1026=
0142100465999992015010510204+54380+010145FM-15+003199999V0202701N004610070119N009999199+00501+00301999999ADDGA1081+007011999GE19MSL   +99999+99999GF199999081999007011999999MA1102601999999REMMET051METAR EDHK 051020Z 27009KT 9999 OVC023 05/03 Q1026=
0150100465999992015010510504+54380+010145FM-15+003199999V0202701V004110067119N009999199+00501+00301999999ADDGA1081+006711999GE19MSL   +99999+99999GF199999081999006711999999MA1102701999999REMMET059METAR EDHK 051050Z 27008KT 240V300 9999 OVC022 05/03 Q1027=
0142100465999992015010511204+54380+010145FM-15+003199999V0202701N003610067119N009999199+00501+00301999999ADDGA1081+006711999GE19MSL   +99999+99999GF199999081999006711999999MA1102701999999REMMET051METAR EDHK 051120Z 27007KT 9999 OVC022 05/03 Q1027=
0142100465999992015010511504+54380+010145FM-15+003199999V0202601N004610070119N009999199+00501+00301999999ADDGA1081+007011999GE19MSL   +99999+99999GF199999081999007011999999MA1102601999999REMMET051METAR EDHK 051150Z 26009KT 9999 OVC023 05/03 Q1026=
0142100465999992015010512204+54380+010145FM-15+003199999V0202801N003110057919N009999199+00501+00301999999ADDGA1081+005791999GE19MSL   +99999+99999GF199999081999005791999999MA1102601999999REMMET051METAR EDHK 051220Z 28006KT 9999 OVC019 05/03 Q1026=
0142100465999992015010512504+54380+010145FM-15+003199999V0202701N003610057919N009999199+00501+00301999999ADDGA1081+005791999GE19MSL   +99999+99999GF199999081999005791999999MA1102701999999REMMET051METAR EDHK 051250Z 27007KT 9999 OVC019 05/03 Q1027=
0142100465999992015010513204+54380+010145FM-15+003199999V0202601N004110067119N009999199+00501+00301999999ADDGA1081+006711999GE19MSL   +99999+99999GF199999081999006711999999MA1102701999999REMMET051METAR EDHK 051320Z 26008KT 9999 OVC022 05/03 Q1027=
0142100465999992015010513504+54380+010145FM-15+003199999V0202701N004610070119N009999199+00501+00301999999ADDGA1081+007011999GE19MSL   +99999+99999GF199999081999007011999999MA1102601999999REMMET051METAR EDHK 051350Z 27009KT 9999 OVC023 05/03 Q1026=
0142100465999992015010514204+54380+010145FM-15+003199999V0202601N003110067119N009999199+00501+00301999999ADDGA1081+006711999GE19MSL   +99999+99999GF199999081999006711999999MA1102601999999REMMET051METAR EDHK 051420Z 26006KT 9999 OVC022 05/03 Q1026=
0142100465999992015010514504+54380+010145FM-15+003199999V0202501N002610073219N009999199+00501+00301999999ADDGA1081+007321999GE19MSL   +99999+99999GF199999081999007321999999MA1102601999999REMMET051METAR EDHK 051450Z 25005KT 9999 OVC024 05/03 Q1026=
0142100465999992015010515204+54380+010145FM-15+003199999V0202601N003110082319N009999199+00501+00201999999ADDGA1081+008231999GE19MSL   +99999+99999GF199999081999008231999999MA1102601999999REMMET051METAR EDHK 051520Z 26006KT 9999 OVC027 05/02 Q1026=
0142100465999992015010515504+54380+010145FM-15+003199999V0202501N003110079219N009999199+00501+00301999999ADDGA1081+007921999GE19MSL   +99999+99999GF199999081999007921999999MA1102601999999REMMET051METAR EDHK 051550Z 25006KT 9999 OVC026 05/03 Q1026=
0174100465999992015010607204+54380+010145FM-15+003199999V0201601N002110094519N005000199+00301+00201999999ADDGA1021+001831999GA2081+009451999GE19MSL   +99999+99999GF199999021999001831999999MA1102401999999MW1101REMMET061METAR EDHK 060720Z 16004KT 5000 BR FEW006 OVC031 03/02 Q1024=
0151100465999992015010607504+54380+010145FM-15+003199999V0201601N003110097519N003900199+00301+00201999999ADDGA1081+009751999GE19MSL   +99999+99999GF199999081999009751999999MA1102401999999MW1101REMMET054METAR EDHK 060750Z 16006KT 3900 BR OVC032 03/02 Q1024=
0174100465999992015010608204+54380+010145FM-15+003199999V0201601N003110100619N003800199+00201+00101999999ADDGA1041+001521999GA2081+010061999GE19MSL   +99999+99999GF199999041999001521999999MA1102401999999MW1101REMMET061METAR EDHK 060820Z 16006KT 3800 BR SCT005 OVC033 02/01 Q1024=
0182100465999992015010608504+54380+010145FM-15+003199999V0201701V003110097519N004500199+00301+00201999999ADDGA1021+001521999GA2081+009751999GE19MSL   +99999+99999GF199999021999001521999999MA1102401999999MW1101REMMET069METAR EDHK 060850Z 17006KT 140V200 4500 BR FEW005 OVC032 03/02 Q1024=
0151100465999992015010609204+54380+010145FM-15+003199999V0201601N004110100619N005000199+00301+00201999999ADDGA1071+010061999GE19MSL   +99999+99999GF199999071999010061999999MA1102401999999MW1101REMMET054METAR EDHK 060920Z 16008KT 5000 BR BKN033 03/02 Q1024=
0150100465999992015010609504+54380+010145FM-15+003199999V0201701V003610106719N007000199+00301+00101999999ADDGA1081+010671999GE19MSL   +99999+99999GF199999081999010671999999MA1102401999999REMMET059METAR EDHK 060950Z 17007KT 140V200 7000 OVC035 03/01 Q1024=
0142100465999992015010610204+54380+010145FM-15+003199999V0201601N003610103619N007000199+00301+00201999999ADDGA1081+010361999GE19MSL   +99999+99999GF199999081999010361999999MA1102401999999REMMET051METAR EDHK 061020Z 16007KT 7000 OVC034 03/02 Q1024=
0142100465999992015010610504+54380+010145FM-15+003199999V0201701N004610103619N008000199+00301+00101999999ADDGA1081+010361999GE19MSL   +99999+99999GF199999081999010361999999MA1102401999999REMMET051METAR EDHK 061050Z 17009KT 8000 OVC034 03/01 Q1024=
0173100465999992015010611204+54380+010145FM-15+003199999V0201701V004110100619N009000199+00301+00201999999ADDGA1021+003051999GA2081+010061999GE19MSL   +99999+99999GF199999021999003051999999MA1102401999999REMMET066METAR EDHK 061120Z 17008KT 140V200 9000 FEW010 OVC033 03/02 Q1024=
0165100465999992015010611504+54380+010145FM-15+003199999V0201801N004110097519N009000199+00301+00101999999ADDGA1021+003051999GA2081+009751999GE19MSL   +99999+99999GF199999021999003051999999MA1102301999999REMMET058METAR EDHK 061150Z 18008KT 9000 FEW010 OVC032 03/01 Q1023=
0173100465999992015010612204+54380+010145FM-15+003199999V0201801V003610094519N009000199+00401+00101999999ADDGA1021+003351999GA2081+009451999GE19MSL   +99999+99999GF199999021999003351999999MA1102301999999REMMET066METAR EDHK 061220Z 18007KT 150V210 9000 FEW011 OVC031 04/01 Q1023=
0173100465999992015010612504+54380+010145FM-15+003199999V0201701V003610097519N009999199+00301+00101999999ADDGA1021+003351999GA2081+009751999GE19MSL   +99999+99999GF199999021999003351999999MA1102201999999REMMET066METAR EDHK 061250Z 17007KT 140V200 9999 FEW011 OVC032 03/01 Q1022=
0150100465999992015010613204+54380+010145FM-15+003199999V0201701V003610094519N009999199+00401+00001999999ADDGA1081+009451999GE19MSL   +99999+99999GF199999081999009451999999MA1102201999999REMMET059METAR EDHK 061320Z 17007KT 140V210 9999 OVC031 04/00 Q1022=
0165100465999992015010613504+54380+010145FM-15+003199999V0201601N004110091419N009999199+00301+00001999999ADDGA1021+006101999GA2081+009141999GE19MSL   +99999+99999GF199999021999006101999999MA1102201999999REMMET058METAR EDHK 061350Z 16008KT 9999 FEW020 OVC030 03/00 Q1022=
0165100465999992015010614204+54380+010145FM-15+003199999V0201601N004110085319N009999199+00301+00001999999ADDGA1021+006401999GA2071+008531999GE19MSL   +99999+99999GF199999021999006401999999MA1102101999999REMMET058METAR EDHK 061420Z 16008KT 9999 FEW021 BKN028 03/00 Q1021=
0165100465999992015010614504+54380+010145FM-15+003199999V0201601N004610085319N009999199+00301+00001999999ADDGA1021+005181999GA2071+008531999GE19MSL   +99999+99999GF199999021999005181999999MA1102101999999REMMET058METAR EDHK 061450Z 16009KT 9999 FEW017 BKN028 03/00 Q1021=
0142100465999992015010615204+54380+010145FM-15+003199999V0201601N004619999999N009999199+00301+00001999999ADDGA1021+004571999GE19MSL   +99999+99999GF199999021999004571999999MA1102101999999REMMET051METAR EDHK 061520Z 16009KT 9999 FEW015 03/00 Q1021=
0142100465999992015010707204+54380+010145FM-15+003199999V0202601N004119999999N009999199+00401+00301999999ADDGA1021+009141999GE19MSL   +99999+99999GF199999021999009141999999MA1102101999999REMMET051METAR EDHK 070720Z 26008KT 9999 FEW030 04/03 Q1021=
0142100465999992015010707504+54380+010145FM-15+003199999V0202601N004119999999N009999199+00301+00301999999ADDGA1021+009451999GE19MSL   +99999+99999GF199999021999009451999999MA1102101999999REMMET051METAR EDHK 070750Z 26008KT 9999 FEW031 03/03 Q1021=
0142100465999992015010708204+54380+010145FM-15+003199999V0202501N004119999999N009999199+00301+00301999999ADDGA1021+009451999GE19MSL   +99999+99999GF199999021999009451999999MA1102101999999REMMET051METAR EDHK 070820Z 25008KT 9999 FEW031 03/03 Q1021=
0072100465999992015010708504+54380+010145FM-15+003199999V0202501N004119999999Y999999999+00401+00301999999ADDMA1102101999999REMMET045METAR EDHK 070850Z 25008KT CAVOK 04/03 Q1021=
0072100465999992015010709204+54380+010145FM-15+003199999V0202501N004119999999Y999999999+00401+00301999999ADDMA1102201999999REMMET045METAR EDHK 070920Z 25008KT CAVOK 04/03 Q1022=
0072100465999992015010709504+54380+010145FM-15+003199999V0202501N003619999999Y999999999+00401+00301999999ADDMA1102201999999REMMET045METAR EDHK 070950Z 25007KT CAVOK 04/03 Q1022=
0142100465999992015010710204+54380+010145FM-15+003199999V0202501N004119999999N009999199+00501+00301999999ADDGA1021+006711999GE19MSL   +99999+99999GF199999021999006711999999MA1102201999999REMMET051METAR EDHK 071020Z 25008KT 9999 FEW022 05/03 Q1022=
0165100465999992015010710504+54380+010145FM-15+003199999V0202501N00361007321CN009999199+00501+00301999999ADDGA1021+006401999GA2041+007321999GE19MSL   +99999+99999GF199999021999006401999999MA1102201999999REMMET058METAR EDHK 071050Z 25007KT 9999 FEW021 SCT024 05/03 Q1022=
0142100465999992015010711204+54380+010145FM-15+003199999V0202501N004619999999N009999199+00601+00301999999ADDGA1041+003961999GE19MSL   +99999+99999GF199999041999003961999999MA1102201999999REMMET051METAR EDHK 071120Z 25009KT 9999 SCT013 06/03 Q1022=
0165100465999992015010711504+54380+010145FM-15+003199999V0202501N00461005181CN009999199+00601+00401999999ADDGA1041+004271999GA2041+005181999GE19MSL   +99999+99999GF199999041999004271999999MA1102201999999REMMET058METAR EDHK 071150Z 25009KT 9999 SCT014 SCT017 06/04 Q1022=
0173100465999992015010712204+54380+010145FM-15+003199999V0202501V005110070119N009999199+00601+00401999999ADDGA1041+003961999GA2071+007011999GE19MSL   +99999+99999GF199999041999003961999999MA1102201999999REMMET066METAR EDHK 071220Z 25010KT 210V280 9999 SCT013 BKN023 06/04 Q1022=
0165100465999992015010712504+54380+010145FM-15+003199999V0202501N00511005181CN009999199+00601+00301999999ADDGA1041+003961999GA2041+005181999GE19MSL   +99999+99999GF199999041999003961999999MA1102201999999REMMET058METAR EDHK 071250Z 25010KT 9999 SCT013 SCT017 06/03 Q1022=
0165100465999992015010713204+54380+010145FM-15+003199999V0202401N004610054919N009999199+00601+00401999999ADDGA1041+003661999GA2071+005491999GE19MSL   +99999+99999GF199999041999003661999999MA1102201999999REMMET058METAR EDHK 071320Z 24009KT 9999 SCT012 BKN018 06/04 Q1022=
0165100465999992015010713504+54380+010145FM-15+003199999V0202401N005710067119N009999199+00601+00301999999ADDGA1021+004881999GA2071+006711999GE19MSL   +99999+99999GF199999021999004881999999MA1102201999999REMMET058METAR EDHK 071350Z 24011KT 9999 FEW016 BKN022 06/03 Q1022=
0173100465999992015010714204+54380+010145FM-15+003199999V0202301V004610088419N009999199+00501+00301999999ADDGA1041+004571999GA2071+008841999GE19MSL   +99999+99999GF199999041999004571999999MA1102201999999REMMET066METAR EDHK 071420Z 23009KT 200V270 9999 SCT015 BKN029 05/03 Q1022=
0165100465999992015010714504+54380+010145FM-15+003199999V0202501N005710054919N009999199+00501+00301999999ADDGA1021+003961999GA2071+005491999GE19MSL   +99999+99999GF199999021999003961999999MA1102201999999REMMET058METAR EDHK 071450Z 25011KT 9999 FEW013 BKN018 05/03 Q1022=
0161100465999992015010807204+54380+010145FM-15+003199999V0202201N006210012219N003200199+00401+00301999999ADDGA1081+001221999GE19MSL   +99999+99999GF199999081999001221999999MA1101401999999MW1101MW2511REMMET058METAR EDHK 080720Z 22012KT 3200 -DZ BR OVC004 04/03 Q1014=
0161100465999992015010807504+54380+010145FM-15+003199999V0202201N006210012219N002800199+00401+00301999999ADDGA1081+001221999GE19MSL   +99999+99999GF199999081999001221999999MA1101401999999MW1101MW2511REMMET058METAR EDHK 080750Z 22012KT 2800 -DZ BR OVC004 04/03 Q1014=
0161100465999992015010808204+54380+010145FM-15+003199999V0202201N005710009119N002400199+00401+00301999999ADDGA1081+000911999GE19MSL   +99999+99999GF199999081999000911999999MA1101401999999MW1101MW2511REMMET058METAR EDHK 080820Z 22011KT 2400 -DZ BR OVC003 04/03 Q1014=
0169100465999992015010808504+54380+010145FM-15+003199999V0202201V005110009119N002400199+00401+00401999999ADDGA1081+000911999GE19MSL   +99999+99999GF199999081999000911999999MA1101401999999MW1101MW2511REMMET066METAR EDHK 080850Z 22010KT 190V250 2400 -DZ BR OVC003 04/04 Q1014=
0169100465999992015010809204+54380+010145FM-15+003199999V0202201V005110012219N003300199+00501+00401999999ADDGA1081+001221999GE19MSL   +99999+99999GF199999081999001221999999MA1101401999999MW1101MW2511REMMET066METAR EDHK 080920Z 22010KT 190V250 3300 -DZ BR OVC004 05/04 Q1014=
0161100465999992015010809504+54380+010145FM-15+003199999V0202201N005110009119N002900199+00501+00501999999ADDGA1081+000911999GE19MSL   +99999+99999GF199999081999000911999999MA1101301999999MW1101MW2511REMMET058METAR EDHK 080950Z 22010KT 2900 -DZ BR OVC003 05/05 Q1013=
0169100465999992015010810204+54380+010145FM-15+003199999V0202201V005710009119N002900199+00501+00501999999ADDGA1081+000911999GE19MSL   +99999+99999GF199999081999000911999999MA1101301999999MW1101MW2511REMMET066METAR EDHK 081020Z 22011KT 190V250 2900 -DZ BR OVC003 05/05 Q1013=
0161100465999992015010810504+54380+010145FM-15+003199999V0202201N005710009119N003100199+00501+00501999999ADDGA1081+000911999GE19MSL   +99999+99999GF199999081999000911999999MA1101301999999MW1101MW2511REMMET058METAR EDHK 081050Z 22011KT 3100 -DZ BR OVC003 05/05 Q1013=
0152100465999992015010811204+54380+010145FM-15+003199999V0202201N005710015219N006000199+00601+00501999999ADDGA1081+001521999GE19MSL   +99999+99999GF199999081999001521999999MA1101301999999MW1511REMMET055METAR EDHK 081120Z 22011KT 6000 -DZ OVC005 06/05 Q1013=
0152100465999992015010811504+54380+010145FM-15+003199999V0202301N005710015219N008000199+00601+00501999999ADDGA1081+001521999GE19MSL   +99999+99999GF199999081999001521999999MA1101301999999MW1511REMMET055METAR EDHK 081150Z 23011KT 8000 -DZ OVC005 06/05 Q1013=
0152100465999992015010812204+54380+010145FM-15+003199999V0202301N005710012219N008000199+00601+00601999999ADDGA1081+001221999GE19MSL   +99999+99999GF199999081999001221999999MA1101201999999MW1511REMMET055METAR EDHK 081220Z 23011KT 8000 -DZ OVC004 06/06 Q1012=
0152100465999992015010812504+54380+010145FM-15+003199999V0202401N004610018319N009000199+00701+00601999999ADDGA1081+001831999GE19MSL   +99999+99999GF199999081999001831999999MA1101101999999MW1511REMMET055METAR EDHK 081250Z 24009KT 9000 -DZ OVC006 07/06 Q1011=
0142100465999992015010813204+54380+010145FM-15+003199999V0202401N005710021319N009999199+00701+00601999999ADDGA1081+002131999GE19MSL   +99999+99999GF199999081999002131999999MA1101101999999REMMET051METAR EDHK 081320Z 24011KT 9999 OVC007 07/06 Q1011=
0142100465999992015010813504+54380+010145FM-15+003199999V0202501N005710021319N009000199+00701+00601999999ADDGA1081+002131999GE19MSL   +99999+99999GF199999081999002131999999MA1101101999999REMMET051METAR EDHK 081350Z 25011KT 9000 OVC007 07/06 Q1011=
0152100465999992015010814204+54380+010145FM-15+003199999V0202501N006210018319N007000199+00701+00601999999ADDGA1081+001831999GE19MSL   +99999+99999GF199999081999001831999999MA1101201999999MW1511REMMET055METAR EDHK 081420Z 25012KT 7000 -DZ OVC006 07/06 Q1012=
0211100465999992015010814504+54380+010145FM-15+003199999V0202501V007210036619N008000199+00701+00601999999ADDGA1041+001831999GA2071+003661999GA3081+007621999GE19MSL   +99999+99999GF199999041999001831999999MA1101201999999MW1511REMMET082METAR EDHK 081450Z 25014KT 220V280 8000 -DZ SCT006 BKN012 OVC025 07/06      Q1012=
0194100465999992015010907204+54380+010145FM-15+003199999V0202301N009310018319N004900199+00501+00401999999ADDGA1071+001831999GA2081+003661999GE19MSL   +99999+99999GF199999071999001831999999MA1100301999999MW1101MW2631OC101601REMMET067METAR EDHK 090720Z 23018G31KT 4900 RA BR BKN006 OVC012 05/04 Q1003=
0194100465999992015010907504+54380+010145FM-15+003199999V0202301N009310021319N004900199+00601+00501999999ADDGA1071+002131999GA2081+004271999GE19MSL   +99999+99999GF199999071999002131999999MA1100101999999MW1101MW2631OC101491REMMET067METAR EDHK 090750Z 23018G29KT 4900 RA BR BKN007 OVC014 06/05 Q1001=
0194100465999992015010908204+54380+010145FM-15+003199999V0202301N011810027419N004700199+00701+00601999999ADDGA1041+002131999GA2081+002741999GE19MSL   +99999+99999GF199999041999002131999999MA1100001999999MW1101MW2631OC101901REMMET067METAR EDHK 090820Z 23023G37KT 4700 RA BR SCT007 OVC009 07/06 Q1000=
0186100465999992015010908504+54380+010145FM-15+003199999V0202501N012410057919N009999199+00701+00601999999ADDGA1041+002741999GA2081+005791999GE19MSL   +99999+99999GF199999041999002741999999MA1099901999999MW1611OC102011REMMET065METAR EDHK 090850Z 25024G39KT 9999 -RA SCT009 OVC019 07/06 Q0999=
0194100465999992015010909204+54380+010145FM-15+003199999V0202601N014410061019N004800199+00801+00501999999ADDGA1021+004271999GA2081+006101999GE19MSL   +99999+99999GF199999021999004271999999MA1099801999999MW1101MW2631OC102321REMMET067METAR EDHK 090920Z 26028G45KT 4800 RA BR FEW014 OVC020 08/05 Q0998=
0175100465999992015010909504+54380+010145FM-15+003199999V0202901N013410039619N004200199+00501+00401999999ADDGA1081+003961091GE19MSL   +99999+99999GF199999081999003961999999MA1099901999999MW1101MW2951OC101901REMMET064METAR EDHK 090950Z 29026G37KT 4200 TSRA BR OVC013CB 05/04 Q0999=
0191100465999992015010910204+54380+010145FM-15+003199999V0202801N011310064019N009999199+00601+00401999999ADDGA1071+006401999GA2081+010361999GE19MSL   +99999+99999GF199999071999006401999999MA1100001999999MW1611OC101851REMMET070METAR EDHK 091020Z 28022G36KT 9999 -RA BKN021 OVC034 06/04 Q1000 RETS=
0186100465999992015010910504+54380+010145FM-15+003199999V0202901N01441007921CN009000199+00501+00201999999ADDGA1021+006711999GA2041+007921999GE19MSL   +99999+99999GF199999021999006711999999MA1100001999999MW1611OC102111REMMET065METAR EDHK 091050Z 29028G41KT 9000 -RA FEW022 SCT026 05/02 Q1000=
0142100465999992015010911204+54380+010145FM-15+003199999V0202701N011810100619N009999199+00601+00301999999ADDGA1081+010061999GE19MSL   +99999+99999GF199999081999010061999999MA1100001999999REMMET051METAR EDHK 091120Z 27023KT 9999 OVC033 06/03 Q1000=
0153100465999992015010911504+54380+010145FM-15+003199999V0202701N013910082319N009999199+00801+00301999999ADDGA1071+008231999GE19MSL   +99999+99999GF199999071999008231999999MA1099901999999OC101901REMMET054METAR EDHK 091150Z 27027G37KT 9999 BKN027 08/03 Q0999=
0176100465999992015010912204+54380+010145FM-15+003199999V0202801N013910088419N009999199+00701+00301999999ADDGA1041+007621999GA2071+008841999GE19MSL   +99999+99999GF199999041999007621999999MA1099901999999OC102011REMMET061METAR EDHK 091220Z 28027G39KT 9999 SCT025 BKN029 07/03 Q0999=
0165100465999992015010912504+54380+010145FM-15+003199999V0202801N012910100619N009999199+00701+00301999999ADDGA1041+008231999GA2081+010061999GE19MSL   +99999+99999GF199999041999008231999999MA1100001999999REMMET058METAR EDHK 091250Z 28025KT 9999 SCT027 OVC033 07/03 Q1000=
0176100465999992015010913204+54380+010145FM-15+003199999V0202801N011310112819N009999199+00701+00301999999ADDGA1041+008231999GA2071+011281999GE19MSL   +99999+99999GF199999041999008231999999MA1100001999999OC101751REMMET061METAR EDHK 091320Z 28022G34KT 9999 SCT027 BKN037 07/03 Q1000=
0176100465999992015010913504+54380+010145FM-15+003199999V0202801N011810100619N009999199+00701+00301999999ADDGA1021+008841999GA2081+010061999GE19MSL   +99999+99999GF199999021999008841999999MA1100101999999OC101851REMMET061METAR EDHK 091350Z 28023G36KT 9999 FEW029 OVC033 07/03 Q1001=
0176100465999992015010914204+54380+010145FM-15+003199999V0202801N012910103619N009999199+00701+00201999999ADDGA1071+010361999GA2081+014941999GE19MSL   +99999+99999GF199999071999010361999999MA1100101999999OC101901REMMET061METAR EDHK 091420Z 28025G37KT 9999 BKN034 OVC049 07/02 Q1001=
0176100465999992015010914504+54380+010145FM-15+003199999V0202801N011810097519N009999199+00701+00301999999ADDGA1021+007921999GA2071+009751999GE19MSL   +99999+99999GF199999021999007921999999MA1100101999999OC101751REMMET061METAR EDHK 091450Z 28023G34KT 9999 FEW026 BKN032 07/03 Q1001=
0165100465999992015010915204+54380+010145FM-15+003199999V0202801N012410131119N009999199+00701+00201999999ADDGA1041+009751999GA2081+013111999GE19MSL   +99999+99999GF199999041999009751999999MA1100201999999REMMET058METAR EDHK 091520Z 28024KT 9999 SCT032 OVC043 07/02 Q1002=
0163100465999992015011007204+54380+010145FM-15+003199999V0202501N010810030519N009999199+01001+00901999999ADDGA1081+003051999GE19MSL   +99999+99999GF199999081999003051999999MA1099501999999MW1511OC101701REMMET058METAR EDHK 100720Z 25021G33KT 9999 -DZ OVC010 10/09 Q0995=
0158100465999992015011007504+54380+010145FM-15+003199999V0202501N012410030519N009999199+01001+00901999999ADDGA1081+003051999GE19MSL   +99999+99999GF199999081999003051999999MA1099501999999OC102061REMMET059METAR EDHK 100750Z 25024G40KT 9999 OVC010 10/09 Q0995 RERA=
0153100465999992015011008204+54380+010145FM-15+003199999V0202501N012910030519N009999199+01101+00901999999ADDGA1081+003051999GE19MSL   +99999+99999GF199999081999003051999999MA1099401999999OC101961REMMET054METAR EDHK 100820Z 25025G38KT 9999 OVC010 11/09 Q0994=
0153100465999992015011008504+54380+010145FM-15+003199999V0202601N013910033519N009999199+01101+00901999999ADDGA1081+003351999GE19MSL   +99999+99999GF199999081999003351999999MA1099301999999OC102061REMMET054METAR EDHK 100850Z 26027G40KT 9999 OVC011 11/09 Q0993=
0142100465999992015011009204+54380+010145FM-15+003199999V0202501N014410036619N009999199+01101+00801999999ADDGA1081+003661999GE19MSL   +99999+99999GF199999081999003661999999MA1099301999999REMMET051METAR EDHK 100920Z 25028KT 9999 OVC012 11/08 Q0993=
0176100465999992015011009504+54380+010145FM-15+003199999V0202501N014410042719N009999199+01101+00801999999ADDGA1071+004271999GA2081+007011999GE19MSL   +99999+99999GF199999071999004271999999MA1099201999999OC102011REMMET061METAR EDHK 100950Z 25028G39KT 9999 BKN014 OVC023 11/08 Q0992=
0197100465999992015011010204+54380+010145FM-15+003199999V0202501N013910033519N002800199+01001+00901999999ADDGA1071+003351999GA2081+005491999GE19MSL   +99999+99999GF199999071999003351999999MA1099201999999MW1101MW2581OC102211REMMET070METAR EDHK 101020Z 25027G43KT 2800 -DZRA BR BKN011 OVC018 10/09 Q0992=
0188100465999992015011010504+54380+010145FM-15+003199999V0202501N014910027419N007000199+01001+00901999999ADDGA1071+002741999GA2081+005181999GE19MSL   +99999+99999GF199999071999002741999999MA1099101999999MW1581OC102211REMMET067METAR EDHK 101050Z 25029G43KT 7000 -DZRA BKN009 OVC017 10/09 Q0991=
0197100465999992015011011204+54380+010145FM-15+003199999V0202501N013410024419N002800199+01001+00901999999ADDGA1071+002441999GA2081+004271999GE19MSL   +99999+99999GF199999071999002441999999MA1099001999999MW1101MW2581OC101901REMMET070METAR EDHK 101120Z 25026G37KT 2800 -DZRA BR BKN008 OVC014 10/09 Q0990=
0188100465999992015011011504+54380+010145FM-15+003199999V0202601N014910033519N008000199+01001+00901999999ADDGA1071+003351999GA2081+004571999GE19MSL   +99999+99999GF199999071999003351999999MA1099001999999MW1581OC102271REMMET067METAR EDHK 101150Z 26029G44KT 8000 -DZRA BKN011 OVC015 10/09 Q0990=
0201100465999992015011012204+54380+010145FM-15+003199999V0202701V016510027419N008000199+00901+00601999999ADDGA1071+002741999GA2081+012191999GE19MSL   +99999+99999GF199999071999002741999999MA1099101999999MW1581OC102421REMMET080METAR EDHK 101220Z 27032G47KT 230V290 8000 -DZRA BKN009 OVC040 09/06      Q0991=
0181100465999992015011012504+54380+010145FM-15+003199999V0202701N013910076219N009999199+00901+00501999999ADDGA1071+007621999GA2071+011581999GE19MSL   +99999+99999GF199999071999007621999999MA1099001999999OC102061REMMET066METAR EDHK 101250Z 27027G40KT 9999 BKN025 BKN038 09/05 Q0990 RERA=
0199100465999992015011013204+54380+010145FM-15+003199999V0202701N01651017071CN009999199+00901+00401999999ADDGA1041+008841999GA2041+017071999GA3071+028351999GE19MSL   +99999+99999GF199999041999008841999999MA1099101999999OC102211REMMET068METAR EDHK 101320Z 27032G43KT 9999 SCT029 SCT056 BKN093 09/04 Q0991=
0176100465999992015011013504+54380+010145FM-15+003199999V0202701N014910091419N009999199+00801+00401999999ADDGA1021+007621999GA2071+009141999GE19MSL   +99999+99999GF199999021999007621999999MA1099201999999OC102161REMMET061METAR EDHK 101350Z 27029G42KT 9999 FEW025 BKN030 08/04 Q0992=
0176100465999992015011014204+54380+010145FM-15+003199999V0202701N01541012801CN009999199+00801+00201999999ADDGA1041+009751999GA2041+012801999GE19MSL   +99999+99999GF199999041999009751999999MA1099201999999OC102271REMMET061METAR EDHK 101420Z 27030G44KT 9999 SCT032 SCT042 08/02 Q0992=
0153100465999992015011014504+54380+010145FM-15+003199999V0202701N013419999999N009999199+00701+00201999999ADDGA1041+009751999GE19MSL   +99999+99999GF199999041999009751999999MA1099301999999OC102161REMMET054METAR EDHK 101450Z 27026G42KT 9999 SCT032 07/02 Q0993=
0199100465999992015011107204+54380+010145FM-15+003199999V0202701N00931009451CN009999199+00301+00001999999ADDGA1021+007321999GA2041+009451999GA3071+026821999GE19MSL   +99999+99999GF199999021999007321999999MA1099901999999MW1161REMMET070METAR EDHK 110720Z 27018KT 9999 VCSH FEW024 SCT031 BKN088 03/00 Q0999=
0176100465999992015011107504+54380+010145FM-15+003199999V0202601N00721009451CN009999199+00301+00001999999ADDGA1041+007321999GA2041+009451999GE19MSL   +99999+99999GF199999041999007321999999MA1099901999999MW1161REMMET063METAR EDHK 110750Z 26014KT 9999 VCSH SCT024 SCT031 03/00 Q0999=
0188100465999992015011108204+54380+010145FM-15+003199999V0202601N008810079219N009999199+00301+00101999999ADDGA1071+007921999GA2071+020731999GE19MSL   +99999+99999GF199999071999007921999999MA1099901999999MW1801OC101391REMMET067METAR EDHK 110820Z 26017G27KT 9999 -SHRA BKN026 BKN068 03/01 Q0999=
0216100465999992015011108504+54380+010145FM-15+003199999V0202701N00881018901CN009999199+00401-00101999999ADDGA1021+011581999GA2041+018901999GA3071+039621999GE19MSL   +99999+99999GF199999021999011581999999MA1100001999999MW1161OC101391REMMET079METAR EDHK 110850Z 27017G27KT 9999 VCSH FEW038 SCT062 BKN130 04/M01      Q1000=
0166100465999992015011109204+54380+010145FM-15+003199999V0202601N00771036581CN009999199+00401+00001999999ADDGA1041+010061999GA2041+036581999GE19MSL   +99999+99999GF199999041999010061999999MA1100001999999REMMET059METAR EDHK 110920Z 26015KT 9999 SCT033 SCT120 04/M00 Q1000=
0173100465999992015011109504+54380+010145FM-15+003199999V0202801V007210100619N009999199+00401+00001999999ADDGA1041+008531999GA2071+010061999GE19MSL   +99999+99999GF199999041999008531999999MA1100001999999REMMET066METAR EDHK 110950Z 28014KT 250V310 9999 SCT028 BKN033 04/00 Q1000=
0166100465999992015011110204+54380+010145FM-15+003199999V0202701N00931023161CN009999199+00401-00101999999ADDGA1041+009141999GA2041+023161999GE19MSL   +99999+99999GF199999041999009141999999MA1100001999999REMMET059METAR EDHK 111020Z 27018KT 9999 SCT030 SCT076 04/M01 Q1000=
0177100465999992015011110504+54380+010145FM-15+003199999V0202701N008210298719N009999199+00401-00101999999ADDGA1021+010061999GA2071+029871999GE19MSL   +99999+99999GF199999021999010061999999MA1100001999999OC101341REMMET062METAR EDHK 111050Z 27016G26KT 9999 FEW033 BKN098 04/M01 Q1000=
0165100465999992015011111204+54380+010145FM-15+003199999V0202701N010810256019N009999199+00401+00001999999ADDGA1041+007621999GA2071+025601999GE19MSL   +99999+99999GF199999041999007621999999MA1100101999999REMMET058METAR EDHK 111120Z 27021KT 9999 SCT025 BKN084 04/00 Q1001=
0165100465999992015011111504+54380+010145FM-15+003199999V0202701N00881026211CN009999199+00501+00001999999ADDGA1041+012501999GA2041+026211999GE19MSL   +99999+99999GF199999041999012501999999MA1100101999999REMMET058METAR EDHK 111150Z 27017KT 9999 SCT041 SCT086 05/00 Q1001=
0187100465999992015011112204+54380+010145FM-15+003199999V0202701N010810109719N009999199+00601+00001999999ADDGA1071+010971999GA2071+018291999GE19MSL   +99999+99999GF199999071999010971999999MA1100101999999MW1161OC101651REMMET066METAR EDHK 111220Z 27021G32KT 9999 VCSH BKN036 BKN060 06/00 Q1001=
0143100465999992015011112504+54380+010145FM-15+003199999V0202801N012919999999N009999199+00401-00101999999ADDGA1041+007621999GE19MSL   +99999+99999GF199999041999007621999999MA1100101999999REMMET052METAR EDHK 111250Z 28025KT 9999 SCT025 04/M01 Q1001=
0187100465999992015011113204+54380+010145FM-15+003199999V0202901N012410048819N009999199+00301+00101999999ADDGA1021+004271999GA2071+004881999GE19MSL   +99999+99999GF199999021999004271999999MA1100201999999MW1161OC101851REMMET066METAR EDHK 111320Z 29024G36KT 9999 VCSH FEW014 BKN016 03/01 Q1002=
0176100465999992015011113504+54380+010145FM-15+003199999V0202701N00771016461CN009999199+00301+00101999999ADDGA1021+005791999GA2041+016461999GE19MSL   +99999+99999GF199999021999005791999999MA1100201999999MW1161REMMET063METAR EDHK 111350Z 27015KT 9999 VCSH FEW019 SCT054 03/01 Q1002=
0188100465999992015011114204+54380+010145FM-15+003199999V0202701N010310048819N009999199+00301+00101999999ADDGA1071+004881999GA2071+009451999GE19MSL   +99999+99999GF199999071999004881999999MA1100301999999MW1801OC101701REMMET067METAR EDHK 111420Z 27020G33KT 9999 -SHRA BKN016 BKN031 03/01 Q1003=
0199100465999992015011114504+54380+010145FM-15+003199999V0202701N00881007621CN009999199+00301+00101999999ADDGA1021+004271999GA2041+007621999GA3071+020731999GE19MSL   +99999+99999GF199999021999004271999999MA1100301999999MW1161REMMET070METAR EDHK 111450Z 27017KT 9999 VCSH FEW014 SCT025 BKN068 03/01 Q1003=
0142100465999992015011207204+54380+010145FM-15+003199999V0202501N010310045719N009999199+00601+00401999999ADDGA1081+004571999GE19MSL   +99999+99999GF199999081999004571999999MA1100501999999REMMET051METAR EDHK 120720Z 25020KT 9999 OVC015 06/04 Q1005=
0153100465999992015011207504+54380+010145FM-15+003199999V0202501N010310045719N009999199+00701+00401999999ADDGA1081+004571999GE19MSL   +99999+99999GF199999081999004571999999MA1100501999999OC101541REMMET054METAR EDHK 120750Z 25020G30KT 9999 OVC015 07/04 Q1005=
0171100465999992015011208204+54380+010145FM-15+003199999V0202401V009310042719N009999199+00601+00401999999ADDGA1081+004271999GE19MSL   +99999+99999GF199999081999004271999999MA1100501999999MW1611OC101441REMMET066METAR EDHK 120820Z 24018G28KT 210V270 9999 -RA OVC014 06/04 Q1005=
0199100465999992015011208504+54380+010145FM-15+003199999V0202401V008810036619N009999199+00601+00401999999ADDGA1071+003661999GA2081+005791999GE19MSL   +99999+99999GF199999071999003661999999MA1100401999999MW1611OC101441REMMET078METAR EDHK 120850Z 24017G28KT 210V270 9999 -RA BKN012 OVC019 06/04      Q1004=
0201100465999992015011209204+54380+010145FM-15+003199999V0202401V008810045719N009999199+00601+00401999999ADDGA1041+003661999GA2081+004571999GE19MSL   +99999+99999GF199999041999003661999999MA1100401999999MW1581OC101541REMMET080METAR EDHK 120920Z 24017G30KT 210V270 9999 -DZRA SCT012 OVC015 06/04      Q1004=
0165100465999992015011209504+54380+010145FM-15+003199999V0202401N010310048819N009999199+00701+00401999999ADDGA1081+004881999GE19MSL   +99999+99999GF199999081999004881999999MA1100301999999MW1581OC101541REMMET060METAR EDHK 120950Z 24020G30KT 9999 -DZRA OVC016 07/04 Q1003=
0188100465999992015011210204+54380+010145FM-15+003199999V0202401N009310048819N009999199+00701+00401999999ADDGA1071+004881999GA2081+007011999GE19MSL   +99999+99999GF199999071999004881999999MA1100301999999MW1581OC101541REMMET067METAR EDHK 121020Z 24018G30KT 9999 -DZRA BKN016 OVC023 07/04 Q1003=
0188100465999992015011210504+54380+010145FM-15+003199999V0202401N009810042719N009999199+00701+00501999999ADDGA1071+004271999GA2081+006401999GE19MSL   +99999+99999GF199999071999004271999999MA1100301999999MW1581OC101541REMMET067METAR EDHK 121050Z 24019G30KT 9999 -DZRA BKN014 OVC021 07/05 Q1003=
0201100465999992015011211204+54380+010145FM-15+003199999V0202501V010810042719N009000199+00701+00501999999ADDGA1071+004271999GA2081+006101999GE19MSL   +99999+99999GF199999071999004271999999MA1100201999999MW1581OC101751REMMET080METAR EDHK 121120Z 25021G34KT 200V270 9000 -DZRA BKN014 OVC020 07/05      Q1002=
0188100465999992015011211504+54380+010145FM-15+003199999V0202401N010310036619N008000199+00701+00501999999ADDGA1071+003661999GA2081+006101999GE19MSL   +99999+99999GF199999071999003661999999MA1100201999999MW1581OC101701REMMET067METAR EDHK 121150Z 24020G33KT 8000 -DZRA BKN012 OVC020 07/05 Q1002=
0188100465999992015011212204+54380+010145FM-15+003199999V0202501N012410033519N009000199+00701+00501999999ADDGA1071+003351999GA2081+005791999GE19MSL   +99999+99999GF199999071999003351999999MA1100201999999MW1581OC101851REMMET067METAR EDHK 121220Z 25024G36KT 9000 -DZRA BKN011 OVC019 07/05 Q1002=
0188100465999992015011212504+54380+010145FM-15+003199999V0202401N011810045719N009999199+00701+00501999999ADDGA1071+004571999GA2081+007011999GE19MSL   +99999+99999GF199999071999004571999999MA1100101999999MW1581OC102061REMMET067METAR EDHK 121250Z 24023G40KT 9999 -DZRA BKN015 OVC023 07/05 Q1001=
0188100465999992015011213204+54380+010145FM-15+003199999V0202401N011810039619N007000199+00701+00601999999ADDGA1071+003961999GA2081+006101999GE19MSL   +99999+99999GF199999071999003961999999MA1100101999999MW1581OC101901REMMET067METAR EDHK 121320Z 24023G37KT 7000 -DZRA BKN013 OVC020 07/06 Q1001=
0210100465999992015011213504+54380+010145FM-15+003199999V0202401V009810024419N003500199+00701+00601999999ADDGA1071+002441999GA2081+004271999GE19MSL   +99999+99999GF199999071999002441999999MA1100101999999MW1101MW2581OC101601REMMET083METAR EDHK 121350Z 24019G31KT 210V270 3500 -DZRA BR BKN008 OVC014 07/06      Q1001=
0210100465999992015011214204+54380+010145FM-15+003199999V0202401V011810024419N003500199+00701+00601999999ADDGA1071+002441999GA2081+004271999GE19MSL   +99999+99999GF199999071999002441999999MA1100101999999MW1101MW2581OC101801REMMET083METAR EDHK 121420Z 24023G35KT 210V270 3500 -DZRA BR BKN008 OVC014 07/06      Q1001=
0197100465999992015011214504+54380+010145FM-15+003199999V0202501N009810021319N003500199+00701+00601999999ADDGA1071+002131999GA2081+003961999GE19MSL   +99999+99999GF199999071999002131999999MA1100101999999MW1101MW2581OC101751REMMET070METAR EDHK 121450Z 25019G34KT 3500 -DZRA BR BKN007 OVC013 07/06 Q1001=
0152100465999992015011307204+54380+010145FM-15+003199999V0202101N006210021319N007000199+00801+00701999999ADDGA1081+002131999GE19MSL   +99999+99999GF199999081999002131999999MA1099801999999MW1611REMMET055METAR EDHK 130720Z 21012KT 7000 -RA OVC007 08/07 Q0998=
0175100465999992015011307504+54380+010145FM-15+003199999V0202101N006710024419N006000199+00801+00701999999ADDGA1071+002441999GA2081+004271999GE19MSL   +99999+99999GF199999071999002441999999MA1099801999999MW1611REMMET062METAR EDHK 130750Z 21013KT 6000 -RA BKN008 OVC014 08/07 Q0998=
0152100465999992015011308204+54380+010145FM-15+003199999V0202301N006210021319N009000199+00901+00801999999ADDGA1081+002131999GE19MSL   +99999+99999GF199999081999002131999999MA1099801999999MW1611REMMET055METAR EDHK 130820Z 23012KT 9000 -RA OVC007 09/08 Q0998=
0160100465999992015011308504+54380+010145FM-15+003199999V0202301V007710024419N007000199+00901+00801999999ADDGA1081+002441999GE19MSL   +99999+99999GF199999081999002441999999MA1099801999999MW1611REMMET063METAR EDHK 130850Z 23015KT 200V260 7000 -RA OVC008 09/08 Q0998=
0183100465999992015011309204+54380+010145FM-15+003199999V0202201V006710024419N009000199+00901+00801999999ADDGA1071+002441999GA2081+005181999GE19MSL   +99999+99999GF199999071999002441999999MA1099801999999MW1611REMMET070METAR EDHK 130920Z 22013KT 200V260 9000 -RA BKN008 OVC017 09/08 Q0998=
0175100465999992015011309504+54380+010145FM-15+003199999V0202301N007210024419N009999199+00901+00801999999ADDGA1071+002441999GA2081+004571999GE19MSL   +99999+99999GF199999071999002441999999MA1099801999999MW1611REMMET062METAR EDHK 130950Z 23014KT 9999 -RA BKN008 OVC015 09/08 Q0998=
0183100465999992015011310204+54380+010145FM-15+003199999V0202401V007210024419N008000199+00901+00801999999ADDGA1071+002441999GA2081+005181999GE19MSL   +99999+99999GF199999071999002441999999MA1099801999999MW1611REMMET070METAR EDHK 131020Z 24014KT 200V260 8000 -RA BKN008 OVC017 09/08 Q0998=
0176100465999992015011310504+54380+010145FM-15+003199999V0202201N008210149419N009999199+00901+00801999999ADDGA1041+002131999GA2071+014941999GE19MSL   +99999+99999GF199999041999002131999999MA1099701999999OC101341REMMET061METAR EDHK 131050Z 22016G26KT 9999 SCT007 BKN049 09/08 Q0997=
0165100465999992015011311204+54380+010145FM-15+003199999V0202401N007210164619N009999199+00901+00701999999ADDGA1041+003351999GA2071+016461999GE19MSL   +99999+99999GF199999041999003351999999MA1099701999999REMMET058METAR EDHK 131120Z 24014KT 9999 SCT011 BKN054 09/07 Q0997=
0173100465999992015011311504+54380+010145FM-15+003199999V0202401V006710155419N009999199+00901+00701999999ADDGA1041+003351999GA2071+015541999GE19MSL   +99999+99999GF199999041999003351999999MA1099701999999REMMET066METAR EDHK 131150Z 24013KT 200V260 9999 SCT011 BKN051 09/07 Q0997=
0171100465999992015011312204+54380+010145FM-15+003199999V0202601V008810045719N009000199+00801+00501999999ADDGA1081+004571999GE19MSL   +99999+99999GF199999081999004571999999MA1099701999999MW1611OC101441REMMET066METAR EDHK 131220Z 26017G28KT 230V290 9000 -RA OVC015 08/05 Q0997=
0177100465999992015011312504+54380+010145FM-15+003199999V0202501N007710094519N009999199+00701+00501999999ADDGA1041+007621999GA2071+009451999GE19MSL   +99999+99999GF199999041999007621999999MA1099801999999MW1581REMMET064METAR EDHK 131250Z 25015KT 9999 -RADZ SCT025 BKN031 07/05 Q0998=
0175100465999992015011313204+54380+010145FM-15+003199999V0202501N005710048819N008000199+00601+00501999999ADDGA1041+003961999GA2071+004881999GE19MSL   +99999+99999GF199999041999003961999999MA1099801999999MW1511REMMET062METAR EDHK 131320Z 25011KT 8000 -DZ SCT013 BKN016 06/05 Q0998=
0198100465999992015011313504+54380+010145FM-15+003199999V0202501N005710051819N009999199+00601+00401999999ADDGA1041+003961999GA2071+005181999GA3081+012191999GE19MSL   +99999+99999GF199999041999003961999999MA1099801999999MW1611REMMET069METAR EDHK 131350Z 25011KT 9999 -RA SCT013 BKN017 OVC040 06/04 Q0998=
0175100465999992015011314204+54380+010145FM-15+003199999V0202501N004610134119N009999199+00601+00401999999ADDGA1041+007321999GA2071+013411999GE19MSL   +99999+99999GF199999041999007321999999MA1099801999999MW1611REMMET062METAR EDHK 131420Z 25009KT 9999 -RA SCT024 BKN044 06/04 Q0998=
0175100465999992015011314504+54380+010145FM-15+003199999V0202301N004110161519N009999199+00601+00501999999ADDGA1041+013721999GA2081+016151999GE19MSL   +99999+99999GF199999041999013721999999MA1099801999999MW1611REMMET062METAR EDHK 131450Z 23008KT 9999 -RA SCT045 OVC053 06/05 Q0998=
0175100465999992015011315204+54380+010145FM-15+003199999V0202301N004110045719N006000199+00601+00501999999ADDGA1041+002441999GA2071+004571999GE19MSL   +99999+99999GF199999041999002441999999MA1099801999999MW1611REMMET062METAR EDHK 131520Z 23008KT 6000 -RA SCT008 BKN015 06/05 Q0998=
0188100465999992015011315504+54380+010145FM-15+003199999V0202401N004110039619N009999199+00601+00501999999ADDGA1021+002131999GA2071+003961999GA3081+018901999GE19MSL   +99999+99999GF199999021999002131999999MA1099801999999REMMET065METAR EDHK 131550Z 24008KT 9999 FEW007 BKN013 OVC062 06/05 Q0998=
0111100465999992015011316204+54380+010145FM-15+003199999V0202301N004612200019N009999199+00601+00501999999ADDGF100991999999999999999999MA1099901999999MW1611REMMET052METAR EDHK 131620Z 23009KT 9999 -RA NSC 06/05 Q0999=
0198100465999992015011316504+54380+010145FM-15+003199999V0202401N00571008231CN009999199+00601+00401999999ADDGA1021+006711999GA2041+008231999GA3081+011581999GE19MSL   +99999+99999GF199999021999006711999999MA1099901999999MW1611REMMET069METAR EDHK 131650Z 24011KT 9999 -RA FEW022 SCT027 OVC038 06/04 Q0999=
0175100465999992015011317204+54380+010145FM-15+003199999V0202401N004610204219N009999199+00501+00401999999ADDGA1021+005791999GA2081+020421999GE19MSL   +99999+99999GF199999021999005791999999MA1099901999999MW1611REMMET062METAR EDHK 131720Z 24009KT 9999 -RA FEW019 OVC067 05/04 Q0999=
0188100465999992015011317504+54380+010145FM-15+003199999V0202301N00411016461CN009999199+00501+00301999999ADDGA1021+008841999GA2041+016461999GA3071+021641999GE19MSL   +99999+99999GF199999021999008841999999MA1099901999999REMMET065METAR EDHK 131750Z 23008KT 9999 FEW029 SCT054 BKN071 05/03 Q0999=
0188100465999992015011318204+54380+010145FM-15+003199999V0202201N004610103619N009999199+00501+00301999999ADDGA1041+007321999GA2071+010361999GA3081+016461999GE19MSL   +99999+99999GF199999041999007321999999MA1100001999999REMMET065METAR EDHK 131820Z 22009KT 9999 SCT024 BKN034 OVC054 05/03 Q1000=
0188100465999992015011318504+54380+010145FM-15+003199999V0202201N004610073219N009999199+00501+00301999999ADDGA1021+003661999GA2071+007321999GA3081+017681999GE19MSL   +99999+99999GF199999021999003661999999MA1100001999999REMMET065METAR EDHK 131850Z 22009KT 9999 FEW012 BKN024 OVC058 05/03 Q1000=
0142100465999992015011319204+54380+010145FM-15+003199999V0202301N004619999999N009999199+00501+00301999999ADDGA1021+007621999GE19MSL   +99999+99999GF199999021999007621999999MA1100001999999REMMET051METAR EDHK 131920Z 23009KT 9999 FEW025 05/03 Q1000=
0142100465999992015011319504+54380+010145FM-15+003199999V0202301N004119999999N009999199+00401+00301999999ADDGA1021+003351999GE19MSL   +99999+99999GF199999021999003351999999MA1100001999999REMMET051METAR EDHK 131950Z 23008KT 9999 FEW011 04/03 Q1000=
0165100465999992015011320204+54380+010145FM-15+003199999V0202201N003610426719N009999199+00401+00301999999ADDGA1041+003351999GA2071+042671999GE19MSL   +99999+99999GF199999041999003351999999MA1100001999999REMMET058METAR EDHK 132020Z 22007KT 9999 SCT011 BKN140 04/03 Q1000=
0072100465999992015011320504+54380+010145FM-15+003199999V0202101N004119999999Y999999999+00401+00301999999ADDMA1099901999999REMMET045METAR EDHK 132050Z 21008KT CAVOK 04/03 Q0999=
0072100465999992015011321204+54380+010145FM-15+003199999V0202201N004619999999Y999999999+00401+00301999999ADDMA1100001999999REMMET045METAR EDHK 132120Z 22009KT CAVOK 04/03 Q1000=
0072100465999992015011321504+54380+010145FM-15+003199999V0202101N004619999999Y999999999+00401+00301999999ADDMA1100001999999REMMET045METAR EDHK 132150Z 21009KT CAVOK 04/03 Q1000=
0165100465999992015011322204+54380+010145FM-15+003199999V0202101N004110097519N009999199+00401+00301999999ADDGA1021+002131999GA2071+009751999GE19MSL   +99999+99999GF199999021999002131999999MA1100001999999REMMET058METAR EDHK 132220Z 21008KT 9999 FEW007 BKN032 04/03 Q1000=
0198100465999992015011407204+54380+010145FM-15+003199999V0202301N006210097519N009999199+00301+00201999999ADDGA1041+003051999GA2071+009751999GA3071+018291999GE19MSL   +99999+99999GF199999041999003051999999MA1100001999999MW1611REMMET069METAR EDHK 140720Z 23012KT 9999 -RA SCT010 BKN032 BKN060 03/02 Q1000=
0176100465999992015011407504+54380+010145FM-15+003199999V0202301N006710030519N009999199+00301+00201999999ADDGA1071+003051999GA2081+005181999GE19MSL   +99999+99999GF199999071999003051999999MA1100001999999MW1161REMMET063METAR EDHK 140750Z 23013KT 9999 VCSH BKN010 OVC017 03/02 Q1000=
0176100465999992015011408204+54380+010145FM-15+003199999V0202701N005110027419N009999199+00301+00101999999ADDGA1071+002741999GA2071+005181999GE19MSL   +99999+99999GF199999071999002741999999MA1100001999999MW1161REMMET063METAR EDHK 140820Z 27010KT 9999 VCSH BKN009 BKN017 03/01 Q1000=
0196100465999992015011408504+54380+010145FM-15+003199999V0202701V006210033519N009999199+00201+00101999999ADDGA1041+002741081GA2071+003351999GE19MSL   +99999+99999GF199999041999002741999999MA1100001999999MW1711REMMET083METAR EDHK 140850Z 27012KT 230V290 9999 -SN SCT009TCU BKN011 02/01      Q1000 REGR=
0193100465999992015011409204+54380+010145FM-15+003199999V0202401V006710042719N009999199+00401+00201999999ADDGA1041+003351081GA2071+004271999GE19MSL   +99999+99999GF199999041999003351999999MA1100001999999MW1681REMMET080METAR EDHK 140920Z 24013KT 210V280 9999 -SNRA SCT011TCU BKN014 04/02      Q1000=
0207100465999992015011409504+54380+010145FM-15+003199999V0202701V007210027419N004300199+00101+00001999999ADDGA1041+002131999GA2071+002741081GE19MSL   +99999+99999GF199999041999002131999999MA1100101999999MW1101MW2611REMMET088METAR EDHK 140950Z 27014KT 240V300 4300 1900SE -RA BR SCT007 BKN009TCU      01/00 Q1001=
0178100465999992015011410204+54380+010145FM-15+003199999V0202401N006710045719N009999199+00201+00101999999ADDGA1041+002441081GA2071+004571999GE19MSL   +99999+99999GF199999041999002441999999MA1100101999999MW1611REMMET065METAR EDHK 141020Z 24013KT 9999 -RA SCT008TCU BKN015 02/01 Q1001=
0145100465999992015011410504+54380+010145FM-15+003199999V0202501N008819999999N004000199+99999+99999999999ADDMA1100205999999MW1815MW2885OC101441REMMET079METAR COR EDHK 141050Z 25017G28KT 4000 SHGSRA SCT008CB BKN018 02/01      Q1002=EQDD01      0ADE735
0195100465999992015011411204+54380+010145FM-15+003199999V0202501N00721003961CN009999199+00201+00101999999ADDGA1021+002131999GA2041+003961081GE19MSL   +99999+99999GF199999021999002131999999MA1100201999999MW1161REMMET082METAR COR EDHK 141120Z 25014KT 9999 VCSH FEW007 SCT013TCU 02/01 Q1002      RESHGS=
0145100465999992015011411504+54380+010145FM-15+003199999V0202401N005719999999N009999199+00301+00101999999ADDGA1041+010061081GE19MSL   +99999+99999GF199999041999010061999999MA1100201999999REMMET054METAR EDHK 141150Z 24011KT 9999 SCT033TCU 03/01 Q1002=
0156100465999992015011412204+54380+010145FM-15+003199999V0202401N005119999999N009999199+00301+00101999999ADDGA1041+007011081GE19MSL   +99999+99999GF199999041999007011999999MA1100201999999MW1161REMMET059METAR EDHK 141220Z 24010KT 9999 VCSH SCT023TCU 03/01 Q1002=
0188100465999992015011412504+54380+010145FM-15+003199999V0202401N00571014021CN009999199+00301+00201999999ADDGA1021+005791999GA2041+014021999GA3071+051821999GE19MSL   +99999+99999GF199999021999005791999999MA1100201999999REMMET065METAR EDHK 141250Z 24011KT 9999 FEW019 SCT046 BKN170 03/02 Q1002=
0201100465999992015011413204+54380+010145FM-15+003199999V0202401V00511006711CN009999199+00401+00101999999ADDGA1041+004881999GA2041+006711999GA3071+008841999GE19MSL   +99999+99999GF199999041999004881999999MA1100201999999REMMET078METAR EDHK 141320Z 24010KT 210V270 9999 SCT016 SCT022 BKN029 04/01      Q1002=
0183100465999992015011413504+54380+010145FM-15+003199999V0202301V005110051819N009999199+00401+00101999999ADDGA1071+005181999GA2081+007621999GE19MSL   +99999+99999GF199999071999005181999999MA1100301999999MW1611REMMET070METAR EDHK 141350Z 23010KT 190V250 9999 -RA BKN017 OVC025 04/01 Q1003=
0177100465999992015011414204+54380+010145FM-15+003199999V0202301N005110054919N009999199+00401+00101999999ADDGA1021+004571999GA2071+005491999GE19MSL   +99999+99999GF199999021999004571999999MA1100301999999MW1801REMMET064METAR EDHK 141420Z 23010KT 9999 -SHRA FEW015 BKN018 04/01 Q1003=
0165100465999992015011414504+54380+010145FM-15+003199999V0202301N005110088419N009999199+00401+00101999999ADDGA1041+006101999GA2071+008841999GE19MSL   +99999+99999GF199999041999006101999999MA1100301999999REMMET058METAR EDHK 141450Z 23010KT 9999 SCT020 BKN029 04/01 Q1003=
0165100465999992015011415204+54380+010145FM-15+003199999V0202301N005110579119N009999199+00301+00101999999ADDGA1041+005791999GA2071+057911999GE19MSL   +99999+99999GF199999041999005791999999MA1100401999999REMMET058METAR EDHK 141520Z 23010KT 9999 SCT019 BKN190 03/01 Q1004=
0175100465999992015011507204+54380+010145FM-15+003199999V0201701N007710054919N009999199+00301+00101999999ADDGA1041+003661999GA2081+005491999GE19MSL   +99999+99999GF199999041999003661999999MA1099801999999MW1611REMMET062METAR EDHK 150720Z 17015KT 9999 -RA SCT012 OVC018 03/01 Q0998=
0175100465999992015011507504+54380+010145FM-15+003199999V0201701N007710036619N009999199+00301+00201999999ADDGA1071+003661999GA2081+009451999GE19MSL   +99999+99999GF199999071999003661999999MA1099801999999MW1611REMMET062METAR EDHK 150750Z 17015KT 9999 -RA BKN012 OVC031 03/02 Q0998=
0175100465999992015011508204+54380+010145FM-15+003199999V0201701N008210027419N009999199+00301+00201999999ADDGA1071+002741999GA2081+009751999GE19MSL   +99999+99999GF199999071999002741999999MA1099701999999MW1611REMMET062METAR EDHK 150820Z 17016KT 9999 -RA BKN009 OVC032 03/02 Q0997=
0175100465999992015011508504+54380+010145FM-15+003199999V0201701N008210021319N008000199+00301+00201999999ADDGA1071+002131999GA2081+008531999GE19MSL   +99999+99999GF199999071999002131999999MA1099601999999MW1611REMMET062METAR EDHK 150850Z 17016KT 8000 -RA BKN007 OVC028 03/02 Q0996=
0183100465999992015011509204+54380+010145FM-15+003199999V0201801V007210018319N008000199+00401+00301999999ADDGA1071+001831999GA2081+004271999GE19MSL   +99999+99999GF199999071999001831999999MA1099601999999MW1611REMMET070METAR EDHK 150920Z 18014KT 150V220 8000 -RA BKN006 OVC014 04/03 Q0996=
0222100465999992015011509504+54380+010145FM-15+003199999V0201801V007210033519N009999199+00401+00401999999ADDGA1041+001831999GA2071+003351999GA3081+005791999GE19MSL   +99999+99999GF199999041999001831999999MA1099601999999MW1611OC101241REMMET085METAR EDHK 150950Z 18014G24KT 150V210 9999 -RA SCT006 BKN011 OVC019      04/04 Q0996=
0175100465999992015011510204+54380+010145FM-15+003199999V0201801N007710024419N009999199+00501+00401999999ADDGA1071+002441999GA2081+006401999GE19MSL   +99999+99999GF199999071999002441999999MA1099501999999MW1611REMMET062METAR EDHK 151020Z 18015KT 9999 -RA BKN008 OVC021 05/04 Q0995=
0186100465999992015011510504+54380+010145FM-15+003199999V0201801N007710024419N009999199+00501+00401999999ADDGA1071+002441999GA2081+003961999GE19MSL   +99999+99999GF199999071999002441999999MA1099401999999MW1611OC101291REMMET065METAR EDHK 151050Z 18015G25KT 9999 -RA BKN008 OVC013 05/04 Q0994=
0186100465999992015011511204+54380+010145FM-15+003199999V0201901N008810027419N009999199+00601+00501999999ADDGA1071+002741999GA2081+004881999GE19MSL   +99999+99999GF199999071999002741999999MA1099401999999MW1611OC101491REMMET065METAR EDHK 151120Z 19017G29KT 9999 -RA BKN009 OVC016 06/05 Q0994=
0175100465999992015011511504+54380+010145FM-15+003199999V0201901N007210030519N009999199+00601+00501999999ADDGA1071+003051999GA2081+004881999GE19MSL   +99999+99999GF199999071999003051999999MA1099401999999MW1611REMMET062METAR EDHK 151150Z 19014KT 9999 -RA BKN010 OVC016 06/05 Q0994=
0222100465999992015011512204+54380+010145FM-15+003199999V0201901V007710051819N009999199+00601+00501999999ADDGA1021+003051999GA2071+005181999GA3081+007321999GE19MSL   +99999+99999GF199999021999003051999999MA1099301999999MW1611OC101291REMMET085METAR EDHK 151220Z 19015G25KT 170V230 9999 -RA FEW010 BKN017 OVC024      06/05 Q0993=
0175100465999992015011512504+54380+010145FM-15+003199999V0201901N007210045719N009999199+00701+00601999999ADDGA1021+002741999GA2081+004571999GE19MSL   +99999+99999GF199999021999002741999999MA1099301999999MW1611REMMET062METAR EDHK 151250Z 19014KT 9999 -RA FEW009 OVC015 07/06 Q0993=
0186100465999992015011513204+54380+010145FM-15+003199999V0202001N007710054919N009999199+00701+00601999999ADDGA1021+003961999GA2081+005491999GE19MSL   +99999+99999GF199999021999003961999999MA1099301999999MW1611OC101291REMMET065METAR EDHK 151320Z 20015G25KT 9999 -RA FEW013 OVC018 07/06 Q0993=
0198100465999992015011513504+54380+010145FM-15+003199999V0201901N007210064019N009999199+00701+00601999999ADDGA1021+003961999GA2071+006401999GA3081+010361999GE19MSL   +99999+99999GF199999021999003961999999MA1099201999999MW1611REMMET069METAR EDHK 151350Z 19014KT 9999 -RA FEW013 BKN021 OVC034 07/06 Q0992=
0209100465999992015011514204+54380+010145FM-15+003199999V0201901N007210042719N009999199+00801+00601999999ADDGA1071+004271999GA2071+006401999GA3081+008531999GE19MSL   +99999+99999GF199999071999004271999999MA1099201999999MW1611OC101391REMMET072METAR EDHK 151420Z 19014G27KT 9999 -RA BKN014 BKN021 OVC028 08/06 Q0992=
0209100465999992015011514504+54380+010145FM-15+003199999V0201901N007210036619N009999199+00801+00601999999ADDGA1071+003661999GA2071+008231999GA3081+010361999GE19MSL   +99999+99999GF199999071999003661999999MA1099201999999MW1611OC101291REMMET072METAR EDHK 151450Z 19014G25KT 9999 -RA BKN012 BKN027 OVC034 08/06 Q0992=
0198100465999992015011515204+54380+010145FM-15+003199999V0202001N007210039619N009999199+00701+00601999999ADDGA1021+003351999GA2071+003961999GA3081+007621999GE19MSL   +99999+99999GF199999021999003351999999MA1099201999999MW1611REMMET069METAR EDHK 151520Z 20014KT 9999 -RA FEW011 BKN013 OVC025 07/06 Q0992=
0173100465999992015011607204+54380+010145FM-15+003199999V0202201V007710100619N009999199+00601+00101999999ADDGA1021+008231999GA2081+010061999GE19MSL   +99999+99999GF199999021999008231999999MA1099901999999REMMET066METAR EDHK 160720Z 22015KT 200V260 9999 FEW027 OVC033 06/01 Q0999=
0161100465999992015011607504+54380+010145FM-15+003199999V0202301V007710085319N009999199+00601+00101999999ADDGA1081+008531999GE19MSL   +99999+99999GF199999081999008531999999MA1099901999999OC101291REMMET062METAR EDHK 160750Z 23015G25KT 200V260 9999 OVC028 06/01 Q0999=
0142100465999992015011608204+54380+010145FM-15+003199999V0202301N007210085319N009999199+00601+00101999999ADDGA1081+008531999GE19MSL   +99999+99999GF199999081999008531999999MA1100001999999REMMET051METAR EDHK 160820Z 23014KT 9999 OVC028 06/01 Q1000=
0153100465999992015011608504+54380+010145FM-15+003199999V0202301N007210082319N009999199+00601+00101999999ADDGA1071+008231999GE19MSL   +99999+99999GF199999071999008231999999MA1100001999999OC101491REMMET054METAR EDHK 160850Z 23014G29KT 9999 BKN027 06/01 Q1000=
0142100465999992015011609204+54380+010145FM-15+003199999V0202301N007210079219N009999199+00601+00101999999ADDGA1071+007921999GE19MSL   +99999+99999GF199999071999007921999999MA1100101999999REMMET051METAR EDHK 160920Z 23014KT 9999 BKN026 06/01 Q1001=
0161100465999992015011609504+54380+010145FM-15+003199999V0202301V007710073219N009999199+00601+00101999999ADDGA1071+007321999GE19MSL   +99999+99999GF199999071999007321999999MA1100101999999OC101341REMMET062METAR EDHK 160950Z 23015G26KT 200V260 9999 BKN024 06/01 Q1001=
0150100465999992015011610204+54380+010145FM-15+003199999V0202301V006710070119N009999199+00601+00101999999ADDGA1071+007011999GE19MSL   +99999+99999GF199999071999007011999999MA1100201999999REMMET059METAR EDHK 161020Z 23013KT 200V260 9999 BKN023 06/01 Q1002=
0161100465999992015011610504+54380+010145FM-15+003199999V0202301V006710064019N009999199+00601+00201999999ADDGA1071+006401999GE19MSL   +99999+99999GF199999071999006401999999MA1100201999999OC101241REMMET062METAR EDHK 161050Z 23013G24KT 200V260 9999 BKN021 06/02 Q1002=
0142100465999992015011611204+54380+010145FM-15+003199999V0202201N006710067119N009999199+00601+00201999999ADDGA1071+006711999GE19MSL   +99999+99999GF199999071999006711999999MA1100201999999REMMET051METAR EDHK 161120Z 22013KT 9999 BKN022 06/02 Q1002=
0153100465999992015011611504+54380+010145FM-15+003199999V0202301N006719999999N009999199+00601+00201999999ADDGA1041+006711999GE19MSL   +99999+99999GF199999041999006711999999MA1100201999999OC101181REMMET054METAR EDHK 161150Z 23013G23KT 9999 SCT022 06/02 Q1002=
0173100465999992015011612204+54380+010145FM-15+003199999V0202201V006710106719N009999199+00601+00201999999ADDGA1021+007011999GA2071+010671999GE19MSL   +99999+99999GF199999021999007011999999MA1100201999999REMMET066METAR EDHK 161220Z 22013KT 190V260 9999 FEW023 BKN035 06/02 Q1002=
0150100465999992015011612504+54380+010145FM-15+003199999V0202301V006719999999N009999199+00601+00201999999ADDGA1041+007321999GE19MSL   +99999+99999GF199999041999007321999999MA1100201999999REMMET059METAR EDHK 161250Z 23013KT 190V260 9999 SCT024 06/02 Q1002=
0142100465999992015011613204+54380+010145FM-15+003199999V0202301N006710076219N009999199+00601+00201999999ADDGA1071+007621999GE19MSL   +99999+99999GF199999071999007621999999MA1100201999999REMMET051METAR EDHK 161320Z 23013KT 9999 BKN025 06/02 Q1002=
0165100465999992015011613504+54380+010145FM-15+003199999V0202301N006210094519N009999199+00601+00201999999ADDGA1021+007921999GA2071+009451999GE19MSL   +99999+99999GF199999021999007921999999MA1100301999999REMMET058METAR EDHK 161350Z 23012KT 9999 FEW026 BKN031 06/02 Q1003=
0165100465999992015011614204+54380+010145FM-15+003199999V0202401N007710073219N009999199+00601+00201999999ADDGA1071+007321999GA2081+009751999GE19MSL   +99999+99999GF199999071999007321999999MA1100301999999REMMET058METAR EDHK 161420Z 24015KT 9999 BKN024 OVC032 06/02 Q1003=
0142100465999992015011614504+54380+010145FM-15+003199999V0202401N006210082319N009999199+00601+00201999999ADDGA1081+008231999GE19MSL   +99999+99999GF199999081999008231999999MA1100301999999REMMET051METAR EDHK 161450Z 24012KT 9999 OVC027 06/02 Q1003=
0150100465999992015011615204+54380+010145FM-15+003199999V0202301V005119999999N009999199+00601+00201999999ADDGA1041+007621999GE19MSL   +99999+99999GF199999041999007621999999MA1100301999999REMMET059METAR EDHK 161520Z 23010KT 200V260 9999 SCT025 06/02 Q1003=
0073100465999992015011707204+54380+010145FM-15+003199999V0202301N003619999999Y999999999+00201+00001999999ADDMA1100801999999REMMET046METAR EDHK 170720Z 23007KT CAVOK 02/M00 Q1008=
0073100465999992015011707504+54380+010145FM-15+003199999V0202301N003619999999Y999999999+00201-00101999999ADDMA1100801999999REMMET046METAR EDHK 170750Z 23007KT CAVOK 02/M01 Q1008=
0073100465999992015011708204+54380+010145FM-15+003199999V0202301N004119999999Y999999999+00201-00101999999ADDMA1100801999999REMMET046METAR EDHK 170820Z 23008KT CAVOK 02/M01 Q1008=
0073100465999992015011708504+54380+010145FM-15+003199999V0202201N003619999999Y999999999+00201-00101999999ADDMA1100901999999REMMET046METAR EDHK 170850Z 22007KT CAVOK 02/M01 Q1009=
0081100465999992015011709204+54380+010145FM-15+003199999V0202301V005719999999Y999999999+00201+00001999999ADDMA1100901999999REMMET054METAR EDHK 170920Z 23011KT 200V260 CAVOK 02/M00 Q1009=
0142100465999992015011709504+54380+010145FM-15+003199999V0202401N005119999999N009999199+00301+00001999999ADDGA1021+013721999GE19MSL   +99999+99999GF199999021999013721999999MA1100901999999REMMET051METAR EDHK 170950Z 24010KT 9999 FEW045 03/00 Q1009=
0072100465999992015011710204+54380+010145FM-15+003199999V0202301N004619999999Y999999999+00401+00001999999ADDMA1100901999999REMMET045METAR EDHK 171020Z 23009KT CAVOK 04/00 Q1009=
0143100465999992015011710504+54380+010145FM-15+003199999V0202401N005719999999N009999199+00401+00001999999ADDGA1021+013721999GE19MSL   +99999+99999GF199999021999013721999999MA1101001999999REMMET052METAR EDHK 171050Z 24011KT 9999 FEW045 04/M00 Q1010=
0142100465999992015011711204+54380+010145FM-15+003199999V0202401N006719999999N009999199+00401+00001999999ADDGA1021+008231999GE19MSL   +99999+99999GF199999021999008231999999MA1101001999999REMMET051METAR EDHK 171120Z 24013KT 9999 FEW027 04/00 Q1010=
0142100465999992015011711504+54380+010145FM-15+003199999V0202401N007719999999N009999199+00401+00001999999ADDGA1021+005181999GE19MSL   +99999+99999GF199999021999005181999999MA1101001999999REMMET051METAR EDHK 171150Z 24015KT 9999 FEW017 04/00 Q1010=
0150100465999992015011712204+54380+010145FM-15+003199999V0202401V007219999999N009999199+00401+00101999999ADDGA1021+005181999GE19MSL   +99999+99999GF199999021999005181999999MA1101001999999REMMET059METAR EDHK 171220Z 24014KT 210V270 9999 FEW017 04/01 Q1010=
0176100465999992015011712504+54380+010145FM-15+003199999V0202401N00771007011CN009999199+00401+00101999999ADDGA1041+004571999GA2041+007011999GE19MSL   +99999+99999GF199999041999004571999999MA1101001999999MW1161REMMET063METAR EDHK 171250Z 24015KT 9999 VCSH SCT015 SCT023 04/01 Q1010=
0142100465999992015011713204+54380+010145FM-15+003199999V0202401N007219999999N009999199+00401+00101999999ADDGA1021+004571999GE19MSL   +99999+99999GF199999021999004571999999MA1101001999999REMMET051METAR EDHK 171320Z 24014KT 9999 FEW015 04/01 Q1010=
0142100465999992015011713504+54380+010145FM-15+003199999V0202401N006719999999N009999199+00401+00101999999ADDGA1021+005491999GE19MSL   +99999+99999GF199999021999005491999999MA1101001999999REMMET051METAR EDHK 171350Z 24013KT 9999 FEW018 04/01 Q1010=
0145100465999992015011714204+54380+010145FM-15+003199999V0202401N006719999999N009999199+00401+00001999999ADDGA1041+014021081GE19MSL   +99999+99999GF199999041999014021999999MA1101001999999REMMET054METAR EDHK 171420Z 24013KT 9999 SCT046TCU 04/00 Q1010=
0145100465999992015011714504+54380+010145FM-15+003199999V0202401N006219999999N009999199+00401+00001999999ADDGA1021+006711081GE19MSL   +99999+99999GF199999021999006711999999MA1101101999999REMMET054METAR EDHK 171450Z 24012KT 9999 FEW022TCU 04/00 Q1011=
0142100465999992015011715204+54380+010145FM-15+003199999V0202401N005719999999N009999199+00401+00001999999ADDGA1021+006401999GE19MSL   +99999+99999GF199999021999006401999999MA1101101999999REMMET051METAR EDHK 171520Z 24011KT 9999 FEW021 04/00 Q1011=
0166100465999992015011807204+54380+010145FM-15+003199999V0202001N004110073219N007000199+00101-00101999999ADDGA1021+004571999GA2081+007321999GE19MSL   +99999+99999GF199999021999004571999999MA1101201999999REMMET059METAR EDHK 180720Z 20008KT 7000 FEW015 OVC024 01/M01 Q1012=
0166100465999992015011807504+54380+010145FM-15+003199999V0202101N004610061019N008000199+00101-00101999999ADDGA1021+004271999GA2081+006101999GE19MSL   +99999+99999GF199999021999004271999999MA1101201999999REMMET059METAR EDHK 180750Z 21009KT 8000 FEW014 OVC020 01/M01 Q1012=
0174100465999992015011808204+54380+010145FM-15+003199999V0202101V004610051819N008000199+00201-00101999999ADDGA1021+004271999GA2081+005181999GE19MSL   +99999+99999GF199999021999004271999999MA1101201999999REMMET067METAR EDHK 180820Z 21009KT 170V240 8000 FEW014 OVC017 02/M01 Q1012=
0143100465999992015011808504+54380+010145FM-15+003199999V0202101N005110045719N008000199+00201-00101999999ADDGA1081+004571999GE19MSL   +99999+99999GF199999081999004571999999MA1101201999999REMMET052METAR EDHK 180850Z 21010KT 8000 OVC015 02/M01 Q1012=
0151100465999992015011809204+54380+010145FM-15+003199999V0202001V004110039619N009000199+00201-00101999999ADDGA1081+003961999GE19MSL   +99999+99999GF199999081999003961999999MA1101201999999REMMET060METAR EDHK 180920Z 20008KT 160V230 9000 OVC013 02/M01 Q1012=
0143100465999992015011809504+54380+010145FM-15+003199999V0202101N005710036619N008000199+00101-00101999999ADDGA1081+003661999GE19MSL   +99999+99999GF199999081999003661999999MA1101301999999REMMET052METAR EDHK 180950Z 21011KT 8000 OVC012 01/M01 Q1013=
0151100465999992015011810204+54380+010145FM-15+003199999V0202101V004610036619N009000199+00101-00101999999ADDGA1081+003661999GE19MSL   +99999+99999GF199999081999003661999999MA1101301999999REMMET060METAR EDHK 181020Z 21009KT 170V230 9000 OVC012 01/M01 Q1013=
0143100465999992015011810504+54380+010145FM-15+003199999V0202101N004110036619N009000199+00101-00101999999ADDGA1081+003661999GE19MSL   +99999+99999GF199999081999003661999999MA1101301999999REMMET052METAR EDHK 181050Z 21008KT 9000 OVC012 01/M01 Q1013=
0151100465999992015011811204+54380+010145FM-15+003199999V0202101V004610033519N008000199+00201-00101999999ADDGA1081+003351999GE19MSL   +99999+99999GF199999081999003351999999MA1101301999999REMMET060METAR EDHK 181120Z 21009KT 170V240 8000 OVC011 02/M01 Q1013=
0151100465999992015011811504+54380+010145FM-15+003199999V0202001V004110033519N008000199+00201-00101999999ADDGA1081+003351999GE19MSL   +99999+99999GF199999081999003351999999MA1101201999999REMMET060METAR EDHK 181150Z 20008KT 170V230 8000 OVC011 02/M01 Q1012=
0143100465999992015011812204+54380+010145FM-15+003199999V0202101N004610033519N008000199+00101-00101999999ADDGA1081+003351999GE19MSL   +99999+99999GF199999081999003351999999MA1101201999999REMMET052METAR EDHK 181220Z 21009KT 8000 OVC011 01/M01 Q1012=
0143100465999992015011812504+54380+010145FM-15+003199999V0202201N005710033519N009000199+00101-00101999999ADDGA1081+003351999GE19MSL   +99999+99999GF199999081999003351999999MA1101201999999REMMET052METAR EDHK 181250Z 22011KT 9000 OVC011 01/M01 Q1012=
0151100465999992015011813204+54380+010145FM-15+003199999V0202101V004110036619N008000199+00201-00101999999ADDGA1081+003661999GE19MSL   +99999+99999GF199999081999003661999999MA1101201999999REMMET060METAR EDHK 181320Z 21008KT 180V240 8000 OVC012 02/M01 Q1012=
0143100465999992015011813504+54380+010145FM-15+003199999V0202001N003610036619N008000199+00201-00101999999ADDGA1081+003661999GE19MSL   +99999+99999GF199999081999003661999999MA1101201999999REMMET052METAR EDHK 181350Z 20007KT 8000 OVC012 02/M01 Q1012=
0151100465999992015011814204+54380+010145FM-15+003199999V0202001V003110033519N009000199+00201-00101999999ADDGA1081+003351999GE19MSL   +99999+99999GF199999081999003351999999MA1101201999999REMMET060METAR EDHK 181420Z 20006KT 170V240 9000 OVC011 02/M01 Q1012=
0151100465999992015011814504+54380+010145FM-15+003199999V0201801V003110030519N008000199+00201+00001999999ADDGA1081+003051999GE19MSL   +99999+99999GF199999081999003051999999MA1101201999999REMMET060METAR EDHK 181450Z 18006KT 160V220 8000 OVC010 02/M00 Q1012=
0151100465999992015011815204+54380+010145FM-15+003199999V0201901V003110030519N008000199+00201+00001999999ADDGA1081+003051999GE19MSL   +99999+99999GF199999081999003051999999MA1101201999999REMMET060METAR EDHK 181520Z 19006KT 150V220 8000 OVC010 02/M00 Q1012=
0164100465999992015011907204+54380+010145FM-15+003199999V0201701N001510009119N004000199+00001+00001999999ADDGA1081+000911999GE19MSL   +99999+99999GF199999081999000911999999MA1101201999999MW1101MW2681REMMET061METAR EDHK 190720Z 17003KT 4000 -SNRA BR OVC003 00/M00 Q1012=
0162100465999992015011907504+54380+010145FM-15+003199999V0209999V001510009119N002000199+00001+00001999999ADDGA1081+000911999GE19MSL   +99999+99999GF199999081999000911999999MA1101201999999MW1101MW2711REMMET059METAR EDHK 190750Z VRB03KT 2000 -SN BR OVC003 00/M00 Q1012=
0185100465999992015011908204+54380+010145FM-15+003199999V0201701N002110009119N002900199+00001+00001999999ADDGA1071+000911999GA2081+004571999GE19MSL   +99999+99999GF199999071999000911999999MA1101201999999MW1101MW2711REMMET066METAR EDHK 190820Z 17004KT 2900 -SN BR BKN003 OVC015 00/M00 Q1012=
0184100465999992015011908504+54380+010145FM-15+003199999V0201801V002110042719N003400199+00001+00001999999ADDGA1041+001221999GA2081+004271999GE19MSL   +99999+99999GF199999041999001221999999MA1101301999999MW1711REMMET071METAR EDHK 190850Z 18004KT 150V210 3400 -SN SCT004 OVC014 00/M00 Q1013=
0174100465999992015011909204+54380+010145FM-15+003199999V0201801V002110027419N006000199+00001+00001999999ADDGA1021+002131999GA2081+002741999GE19MSL   +99999+99999GF199999021999002131999999MA1101301999999REMMET067METAR EDHK 190920Z 18004KT 140V200 6000 FEW007 OVC009 00/M00 Q1013=
0143100465999992015011909504+54380+010145FM-15+003199999V0201801N002610021319N008000199+00001+00001999999ADDGA1081+002131999GE19MSL   +99999+99999GF199999081999002131999999MA1101301999999REMMET052METAR EDHK 190950Z 18005KT 8000 OVC007 00/M00 Q1013=
0151100465999992015011910204+54380+010145FM-15+003199999V0201901V002110021319N009000199+00001-00101999999ADDGA1081+002131999GE19MSL   +99999+99999GF199999081999002131999999MA1101301999999REMMET060METAR EDHK 191020Z 19004KT 140V230 9000 OVC007 00/M01 Q1013=
0189100465999992015011910504+54380+010145FM-15+003199999V0201801N002610030519N009000199+00001-00101999999ADDGA1021+002441999GA2071+003051999GA3071+017071999GE19MSL   +99999+99999GF199999021999002441999999MA1101201999999REMMET066METAR EDHK 191050Z 18005KT 9000 FEW008 BKN010 BKN056 00/M01 Q1012=
0189100465999992015011911204+54380+010145FM-15+003199999V0201901N002110027419N009000199+00101-00101999999ADDGA1041+002131999GA2071+002741999GA3071+012501999GE19MSL   +99999+99999GF199999041999002131999999MA1101201999999REMMET066METAR EDHK 191120Z 19004KT 9000 SCT007 BKN009 BKN041 01/M01 Q1012=
0189100465999992015011911504+54380+010145FM-15+003199999V0201801N002110033519N009999199+00101-00101999999ADDGA1041+002131999GA2071+003351999GA3071+015541999GE19MSL   +99999+99999GF199999041999002131999999MA1101201999999REMMET066METAR EDHK 191150Z 18004KT 9999 SCT007 BKN011 BKN051 01/M01 Q1012=
0166100465999992015011912204+54380+010145FM-15+003199999V0201801N002610125019N009999199+00101-00101999999ADDGA1041+002441999GA2071+012501999GE19MSL   +99999+99999GF199999041999002441999999MA1101201999999REMMET059METAR EDHK 191220Z 18005KT 9999 SCT008 BKN041 01/M01 Q1012=
0166100465999992015011912504+54380+010145FM-15+003199999V0201701N002110121919N009999199+00101-00101999999ADDGA1041+002441999GA2071+012191999GE19MSL   +99999+99999GF199999041999002441999999MA1101201999999REMMET059METAR EDHK 191250Z 17004KT 9999 SCT008 BKN040 01/M01 Q1012=
0174100465999992015011913204+54380+010145FM-15+003199999V0201701V002110021319N009000199+00101-00101999999ADDGA1071+002131999GA2081+012191999GE19MSL   +99999+99999GF199999071999002131999999MA1101201999999REMMET067METAR EDHK 191320Z 17004KT 140V210 9000 BKN007 OVC040 01/M01 Q1012=
0151100465999992015011913504+54380+010145FM-15+003199999V0201801V002110021319N009999199+00101-00101999999ADDGA1081+002131999GE19MSL   +99999+99999GF199999081999002131999999MA1101201999999REMMET060METAR EDHK 191350Z 18004KT 140V210 9999 OVC007 01/M01 Q1012=
0174100465999992015011914204+54380+010145FM-15+003199999V0201801V002110024419N009000199+00101-00101999999ADDGA1071+002441999GA2071+009141999GE19MSL   +99999+99999GF199999071999002441999999MA1101101999999REMMET067METAR EDHK 191420Z 18004KT 150V210 9000 BKN008 BKN030 01/M01 Q1011=
0166100465999992015011914504+54380+010145FM-15+003199999V0201701N002110021319N008000199+00101-00101999999ADDGA1071+002131999GA2081+008531999GE19MSL   +99999+99999GF199999071999002131999999MA1101101999999REMMET059METAR EDHK 191450Z 17004KT 8000 BKN007 OVC028 01/M01 Q1011=
0174100465999992015011915204+54380+010145FM-15+003199999V0201701V002110070119N009000199+00001-00101999999ADDGA1041+002131999GA2081+007011999GE19MSL   +99999+99999GF199999041999002131999999MA1101101999999REMMET067METAR EDHK 191520Z 17004KT 140V200 9000 SCT007 OVC023 00/M01 Q1011=
0153100465999992015012007204+54380+010145FM-15+003199999V0203501N000510006119N001500199+00001-00101999999ADDGA1081+000611999GE19MSL   +99999+99999GF199999081999000611999999MA1101101999999MW1731REMMET056METAR EDHK 200720Z 35001KT 1500 SN OVC002 M00/M01 Q1011=
0164100465999992015012007504+54380+010145FM-15+003199999V0202801N001010006119N001400199-00101-00101999999ADDGA1081+000611999GE19MSL   +99999+99999GF199999081999000611999999MA1101101999999MW1731REMMET067METAR EDHK 200750Z 28002KT 1400 R26/P2000D SN OVC002 M01/M01 Q1011=
0201100465999992015012008204+54380+010145FM-15+003199999V0203001N001010009119N001200199-00101-00101999999ADDGA1071+000911999GA2081+003351999GE19MSL   +99999+99999GF199999071999000911999999MA1101101999999MW1101MW2711REMMET082METAR EDHK 200820Z 30002KT 1200 R26/2000N -SN BR BKN003 OVC011 M01/M01      Q1011=
0201100465999992015012008504+54380+010145FM-15+003199999V0202901N001510018319N001100199+00001-00101999999ADDGA1071+001831999GA2081+003351999GE19MSL   +99999+99999GF199999071999001831999999MA1101101999999MW1101MW2711REMMET082METAR EDHK 200850Z 29003KT 1100 R26/2000N -SN BR BKN006 OVC011 M00/M01      Q1011=
0201100465999992015012009204+54380+010145FM-15+003199999V0202801N001510018319N001100199+00001-00101999999ADDGA1021+000611999GA2081+001831999GE19MSL   +99999+99999GF199999021999000611999999MA1101101999999MW1101MW2711REMMET082METAR EDHK 200920Z 28003KT 1100 R26/1800N -SN BR FEW002 OVC006 M00/M01      Q1011=
0173100465999992015012009504+54380+010145FM-15+003199999V0202801N001510021319N001100199+00001-00101999999ADDGA1081+002131999GE19MSL   +99999+99999GF199999081999002131999999MA1101101999999MW1101MW2711REMMET070METAR EDHK 200950Z 28003KT 1100 R26/1600N -SN BR OVC007 M00/M01 Q1011=
0201100465999992015012010204+54380+010145FM-15+003199999V0202701N001510024419N001100199+00001-00101999999ADDGA1041+000301999GA2081+002441999GE19MSL   +99999+99999GF199999041999000301999999MA1101101999999MW1101MW2711REMMET082METAR EDHK 201020Z 27003KT 1100 R26/1700N -SN BR SCT001 OVC008 M00/M01      Q1011=
0214100465999992015012010504+54380+010145FM-15+003199999V0202701N003110024419N001500199+00001-00101999999ADDGA1041+000301999GA2071+002441999GA3081+004271999GE19MSL   +99999+99999GF199999041999000301999999MA1101101999999MW1101MW2711REMMET079METAR EDHK 201050Z 27006KT 1500 -SN BR SCT001 BKN008 OVC014 M00/M01      Q1011=
0163100465999992015012011204+54380+010145FM-15+003199999V0202801N003110006119N002000199+00001-00101999999ADDGA1081+000611999GE19MSL   +99999+99999GF199999081999000611999999MA1101101999999MW1101MW2711REMMET060METAR EDHK 201120Z 28006KT 2000 -SN BR OVC002 M00/M01 Q1011=
0163100465999992015012011504+54380+010145FM-15+003199999V0202801N003110006119N002000199+00001-00101999999ADDGA1081+000611999GE19MSL   +99999+99999GF199999081999000611999999MA1101101999999MW1101MW2711REMMET060METAR EDHK 201150Z 28006KT 2000 -SN BR OVC002 M00/M01 Q1011=
0184100465999992015012012204+54380+010145FM-15+003199999V0202701N002110003019N001400199-00101-00101999999ADDGA1081+000301999GE19MSL   +99999+99999GF199999081999000301999999MA1101101999999MW1101MW2711REMMET081METAR EDHK 201220Z 27004KT 1400 R26/1500VP2000U -SN BR OVC001 M01/M01      Q1011=
0153100465999992015012012504+54380+010145FM-15+003199999V0202601N002610003019N002200199-00101-00101999999ADDGA1081+000301999GE19MSL   +99999+99999GF199999081999000301999999MA1101101999999MW1101REMMET056METAR EDHK 201250Z 26005KT 2200 BR OVC001 M01/M01 Q1011=
0178100465999992015012013204+54380+010145FM-15+003199999V0202701V003110003019N000400199-00101-00101999999ADDGA1081+000301999GE19MSL   +99999+99999GF199999081999000301999999MA1101101999999MW1481REMMET081METAR EDHK 201320Z 27006KT 240V310 0400 R26/0700D FZFG OVC001 M01/M01      Q1011=
0169100465999992015012013504+54380+010145FM-15+003199999V0202801N00261000301WN000350199-00101-00101999999ADDGA1091+000301999GE19MSL   +99999+99999GF109991091999000301999999MA1101101999999MW1481REMMET072METAR EDHK 201350Z 28005KT 0350 R26/0550V0900U FZFG VV001 M01/M01 Q1011=
0169100465999992015012014204+54380+010145FM-15+003199999V0202801N00261000001WN000300199-00201-00201999999ADDGA1091+000001999GE19MSL   +99999+99999GF109991091999000001999999MA1101101999999MW1481REMMET072METAR EDHK 201420Z 28005KT 0300 R26/0800V1300D FZFG VV000 M02/M02 Q1011=
0175100465999992015012014504+54380+010145FM-15+003199999V0202701N003610003019N000400199-00201-00201999999ADDGA1071+000301999GE19MSL   +99999+99999GF199999071999000301999999MA1101101999999MW1481REMMET078METAR EDHK 201450Z 27007KT 0400 R26/0550V0750N FZFG BKN001 M02/M02      Q1011=
0177100465999992015012015204+54380+010145FM-15+003199999V0202601V00261000001WN000200199-00201-00201999999ADDGA1091+000001999GE19MSL   +99999+99999GF109991091999000001999999MA1101101999999MW1481REMMET080METAR EDHK 201520Z 26005KT 220V280 0200 R26/0650D FZFG VV000 M02/M02      Q1011=
0165100465999992015012107204+54380+010145FM-15+003199999V0202201V002110009119N003600199-00201-00201999999ADDGA1081+000911999GE19MSL   +99999+99999GF199999081999000911999999MA1101501999999MW1101REMMET068METAR COR EDHK 210720Z 22004KT 180V240 3600 BR OVC003 M02/M02 Q1015=
0153100465999992015012107504+54380+010145FM-15+003199999V0202201N002110006119N003000199-00201-00201999999ADDGA1081+000611999GE19MSL   +99999+99999GF199999081999000611999999MA1101501999999MW1101REMMET056METAR EDHK 210750Z 22004KT 3000 BR OVC002 M02/M02 Q1015=
0167100465999992015012108204+54380+010145FM-15+003199999V0202201V002610003019N000900199-00201-00201999999ADDGA1081+000301999GE19MSL   +99999+99999GF199999081999000301999999MA1101501999999MW1481REMMET070METAR COR EDHK 210820Z 22005KT 190V250 0900 FZFG OVC001 M02/M02 Q1015=
0163100465999992015012108504+54380+010145FM-15+003199999V0202001V002110003019N000900199-00201-00201999999ADDGA1081+000301999GE19MSL   +99999+99999GF199999081999000301999999MA1101601999999MW1481REMMET066METAR EDHK 210850Z 20004KT 170V240 0900 FZFG OVC001 M02/M02 Q1016=
0161100465999992015012109204+54380+010145FM-15+003199999V0201701V002110003019N001500199-00201-00201999999ADDGA1081+000301999GE19MSL   +99999+99999GF199999081999000301999999MA1101601999999MW1101REMMET064METAR EDHK 210920Z 17004KT 120V190 1500 BR OVC001 M02/M02 Q1016=
0153100465999992015012109504+54380+010145FM-15+003199999V0209999V001510006119N001500199-00201-00201999999ADDGA1081+000611999GE19MSL   +99999+99999GF199999081999000611999999MA1101601999999MW1101REMMET056METAR EDHK 210950Z VRB03KT 1500 BR OVC002 M02/M02 Q1016=
0153100465999992015012110204+54380+010145FM-15+003199999V0209999V001510006119N002000199-00201-00201999999ADDGA1081+000611999GE19MSL   +99999+99999GF199999081999000611999999MA1101601999999MW1101REMMET056METAR EDHK 211020Z VRB03KT 2000 BR OVC002 M02/M02 Q1016=
0161100465999992015012110504+54380+010145FM-15+003199999V0201801V002110006119N003000199-00201-00201999999ADDGA1081+000611999GE19MSL   +99999+99999GF199999081999000611999999MA1101601999999MW1101REMMET064METAR EDHK 211050Z 18004KT 150V210 3000 BR OVC002 M02/M02 Q1016=
0153100465999992015012111204+54380+010145FM-15+003199999V0209999V001510009119N004000199-00201-00201999999ADDGA1081+000911999GE19MSL   +99999+99999GF199999081999000911999999MA1101601999999MW1101REMMET056METAR EDHK 211120Z VRB03KT 4000 BR OVC003 M02/M02 Q1016=
0161100465999992015012111504+54380+010145FM-15+003199999V0202401V003110015219N004000199-00201-00301999999ADDGA1081+001521999GE19MSL   +99999+99999GF199999081999001521999999MA1101601999999MW1101REMMET064METAR EDHK 211150Z 24006KT 180V260 4000 BR OVC005 M02/M03 Q1016=
0161100465999992015012112204+54380+010145FM-15+003199999V0202401V002110012219N004800199-00201-00301999999ADDGA1081+001221999GE19MSL   +99999+99999GF199999081999001221999999MA1101601999999MW1101REMMET064METAR EDHK 211220Z 24004KT 190V280 4800 BR OVC004 M02/M03 Q1016=
0153100465999992015012112504+54380+010145FM-15+003199999V0202301N002610012219N004900199-00201-00301999999ADDGA1081+001221999GE19MSL   +99999+99999GF199999081999001221999999MA1101601999999MW1101REMMET056METAR EDHK 211250Z 23005KT 4900 BR OVC004 M02/M03 Q1016=
0144100465999992015012113204+54380+010145FM-15+003199999V0209999V001510015219N006000199-00201-00301999999ADDGA1081+001521999GE19MSL   +99999+99999GF199999081999001521999999MA1101601999999REMMET053METAR EDHK 211320Z VRB03KT 6000 OVC005 M02/M03 Q1016=
0144100465999992015012113504+54380+010145FM-15+003199999V0209999C000010015219N005000199-00101-00301999999ADDGA1081+001521999GE19MSL   +99999+99999GF199999081999001521999999MA1101601999999REMMET053METAR EDHK 211350Z 00000KT 5000 OVC005 M01/M03 Q1016=
0144100465999992015012114204+54380+010145FM-15+003199999V0209999V000510015219N005000199-00201-00301999999ADDGA1081+001521999GE19MSL   +99999+99999GF199999081999001521999999MA1101601999999REMMET053METAR EDHK 211420Z VRB01KT 5000 OVC005 M02/M03 Q1016=
0144100465999992015012114504+54380+010145FM-15+003199999V0209999V001010015219N005000199-00201-00301999999ADDGA1081+001521999GE19MSL   +99999+99999GF199999081999001521999999MA1101601999999REMMET053METAR EDHK 211450Z VRB02KT 5000 OVC005 M02/M03 Q1016=
0144100465999992015012115204+54380+010145FM-15+003199999V0200201N001510018319N006000199-00201-00301999999ADDGA1081+001831999GE19MSL   +99999+99999GF199999081999001831999999MA1101601999999REMMET053METAR EDHK 211520Z 02003KT 6000 OVC006 M02/M03 Q1016=
0103100465999992015012207204+54380+010145FM-15+003199999V0203301N001512200019N006000199-00401-00501999999ADDGF100991999999999999999999MA1102001999999REMMET050METAR EDHK 220720Z 33003KT 6000 NSC M04/M05 Q1020=
0144100465999992015012207504+54380+010145FM-15+003199999V0200201N002119999999N006000199-00201-00301999999ADDGA1021+003961999GE19MSL   +99999+99999GF199999021999003961999999MA1102001999999REMMET053METAR EDHK 220750Z 02004KT 6000 FEW013 M02/M03 Q1020=
0144100465999992015012208204+54380+010145FM-15+003199999V0200701N001019999999N006000199-00201-00301999999ADDGA1021+004271999GE19MSL   +99999+99999GF199999021999004271999999MA1102101999999REMMET053METAR EDHK 220820Z 07002KT 6000 FEW014 M02/M03 Q1021=
0153100465999992015012208504+54380+010145FM-15+003199999V0200901N001019999999N004200199-00201-00201999999ADDGA1021+003961999GE19MSL   +99999+99999GF199999021999003961999999MA1102101999999MW1101REMMET056METAR EDHK 220850Z 09002KT 4200 BR FEW013 M02/M02 Q1021=
0176100465999992015012209204+54380+010145FM-15+003199999V0201201N002110009119N001900199-00101-00201999999ADDGA1041+000301999GA2071+000911999GE19MSL   +99999+99999GF199999041999000301999999MA1102101999999MW1101REMMET063METAR EDHK 220920Z 12004KT 1900 BR SCT001 BKN003 M01/M02 Q1021=
0177100465999992015012209504+54380+010145FM-15+003199999V0200801N002110003019N000250199-00201-00201999999ADDGA1071+000301999GE19MSL   +99999+99999GF199999071999000301999999MA1102101999999MW1481REMMET080METAR EDHK 220950Z 08004KT 0250 0200SE R26/0400N FZFG BKN001 M02/M02      Q1021=
0182100465999992015012210204+54380+010145FM-15+003199999V0209999V001510003019N000250199-00201-00201999999ADDGA1071+000301999GE19MSL   +99999+99999GF199999071999000301999999MA1102101999999MW1481REMMET085METAR EDHK 221020Z VRB03KT 0250 0200SE R26/0300V0500N FZFG BKN001 M02/M02      Q1021=
0164100465999992015012210504+54380+010145FM-15+003199999V0209999V00051000001WN000200199-00101-00201999999ADDGA1091+000001999GE19MSL   +99999+99999GF109991091999000001999999MA1102101999999MW1481REMMET067METAR EDHK 221050Z VRB01KT 0200 R26/0275N FZFG VV000 M01/M02 Q1021=
0165100465999992015012211204+54380+010145FM-15+003199999V0209999C00001000001WN000150199-00201-00201999999ADDGA1091+000001999GE19MSL   +99999+99999GF109991091999000001999999MA1102101999999MW1481REMMET068METAR EDHK 221120Z 00000KT 0150 R08/M0200N FZFG VV000 M02/M02 Q1021=
0165100465999992015012211504+54380+010145FM-15+003199999V0209999C000010003019N000200199-00101-00101999999ADDGA1081+000301999GE19MSL   +99999+99999GF199999081999000301999999MA1102101999999MW1481REMMET068METAR EDHK 221150Z 00000KT 0200 R08/0225N FZFG OVC001 M01/M01 Q1021=
0165100465999992015012212204+54380+010145FM-15+003199999V0209999C000010003019N000200199-00101-00101999999ADDGA1081+000301999GE19MSL   +99999+99999GF199999081999000301999999MA1102101999999MW1481REMMET068METAR EDHK 221220Z 00000KT 0200 R08/0275N FZFG OVC001 M01/M01 Q1021=
0165100465999992015012212504+54380+010145FM-15+003199999V0209999V001010003019N000200199-00101-00101999999ADDGA1081+000301999GE19MSL   +99999+99999GF199999081999000301999999MA1102101999999MW1481REMMET068METAR EDHK 221250Z VRB02KT 0200 R08/0200N FZFG OVC001 M01/M01 Q1021=
0165100465999992015012213204+54380+010145FM-15+003199999V0209999V001010003019N000200199-00101-00201999999ADDGA1081+000301999GE19MSL   +99999+99999GF199999081999000301999999MA1102101999999MW1481REMMET068METAR EDHK 221320Z VRB02KT 0200 R08/0250N FZFG OVC001 M01/M02 Q1021=
0176100465999992015012213504+54380+010145FM-15+003199999V0209999V00051000001WN000250199-00101-00201999999ADDGA1091+000001999GE19MSL   +99999+99999GF109991091999000001999999MA1102101999999MW1481REMMET079METAR EDHK 221350Z VRB01KT 0250 0200SW R08/0375N FZFG VV000 M01/M02      Q1021=
