0156100465999992011010100204+54367+010133FM-15+0031EDHK V0202501N008710039019N0050001N1+00301+00201999999ADDGA1021+001801999GA2071+003901999GF107991999999999999999999MA1101081999999MW1101REMMET065METAR EDHK 010020Z 25017KT 5000 BR FEW006 BKN013 03/02 Q1011 GRN;
0167100465999992011010101114+54367+010133FM-16+0031EDHK V0202501N009310033019N0035001N1+00301+00201999999ADDGA1041+001801999GA2071+003301999GF107991999999999999999999MA1101021999999MW1101OC101491REMMET068SPECI EDHK 010111Z 25018G29KT 3500 BR SCT006 BKN011 03/02 Q1010 YLO;
0144100465999992011010101204+54367+010133FM-15+0031EDHK V0202501N009810018019N0032001N1+00301+00201999999ADDGA1071+001801999GF107991999999999999999999MA1101021999999MW1101OC101491REMMET061METAR EDHK 010120Z 25019G29KT 3200 BR BKN006 03/02 Q1010 YLO;
0151100465999992011010101444+54367+010133FM-16+0031EDHK V0202501N009310015019N0022001N1+00301+00201999999ADDGA1071+001501999GF107991999999999999999999MA1100911999999MW1101MW2511MW3611REMMET064SPECI EDHK 010144Z 25018KT 2200 -RADZ BR BKN005 03/02 Q1009 YLO;
0151100465999992011010102204+54367+010133FM-15+0031EDHK V0202501N008210012019N0020001N1+00301+00301999999ADDGA1071+001201999GF107991999999999999999999MA1100911999999MW1101MW2511MW3611REMMET064METAR EDHK 010220Z 25016KT 2000 -RADZ BR BKN004 03/03 Q1009 YLO;
0173100465999992011010103204+54367+010133FM-15+0031EDHK V0202601N008710018019N0018001N1+00401+00301999999ADDGA1041+001201999GA2071+001801999GF107991999999999999999999MA1100811999999MW1101MW2531MW3631REMMET070METAR EDHK 010320Z 26017KT 1800 RADZ BR SCT004 BKN006 04/03 Q1008 YLO;
0190100465999992011010103404+54367+010133FM-16+0031EDHK V0202701N009810021019N0030001N1+00401+00301999999ADDGA1041+001501999GA2071+002101999GF107991999999999999999999MA1100811999999MW1101MW2511MW3611OC101491REMMET079SPECI EDHK 010340Z 27019G29KT 3000 -RADZ BR SCT005 BKN007 04/03 Q1008 RERA YLO;
0161100465999992011010104124+54367+010133FM-16+0031EDHK V0202701N007710030019N0045001N1+00301+00201999999ADDGA1021+001801999GA2071+003001999GF107991999999999999999999MA1100811999999MW1101REMMET070SPECI EDHK 010412Z 27015KT 4500 BR FEW006 BKN010 03/02 Q1008 RERA GRN;
0161100465999992011010104204+54367+010133FM-15+0031EDHK V0202701N008210036019N0050001N1+00301+00201999999ADDGA1071+003601999GA2071+011401999GF107991999999999999999999MA1100811999999MW1101REMMET070METAR EDHK 010420Z 27016KT 5000 BR BKN012 BKN038 03/02 Q1008 RERA GRN;
0147100465999992011010104374+54367+010133FM-16+0031EDHK V0202701N008210051019N0060001N1+00301+00201999999ADDGA1041+003601999GA2071+005101999GF107991999999999999999999MA1100811999999REMMET062SPECI EDHK 010437Z 27016KT 6000 SCT012 BKN017 03/02 Q1008 WHT;
0124100465999992011010105204+54367+010133FM-15+0031EDHK V0202601N009312200019N0070001N1+00301+00101999999ADDGA1021+057001999GF102991999999999999999999MA1100811999999REMMET055METAR EDHK 010520Z 26018KT 7000 FEW190 03/01 Q1008 WHT;
0125100465999992011010106204+54367+010133FM-15+0031EDHK V0202701N009312200019N0080001N1+00301+00001999999ADDGA1021+060001999GF102991999999999999999999MA1100811999999REMMET056METAR EDHK 010620Z 27018KT 8000 FEW200 03/00 Q1008 BLU/;
0136100465999992011010107204+54367+010133FM-15+0031EDHK V0202801N009812200019N0112651N1+00301+00001999999ADDGA1021+006001999GF102991999999999999999999MA1100811999999OC101541REMMET059METAR EDHK 010720Z 28019G30KT 9999 FEW020 03/00 Q1008 BLU/;
0125100465999992011010108204+54367+010133FM-15+0031EDHK V0202801N009312200019N0112651N1+00301+00001999999ADDGA1021+060001999GF102991999999999999999999MA1100911999999REMMET056METAR EDHK 010820Z 28018KT 9999 FEW200 03/00 Q1009 BLU/;
0137100465999992011010109204+54367+010133FM-15+0031EDHK V0202801N009312200019N0112651N1+00301+00001999999ADDGA1021+006001999GF102991999999999999999999MA1100911999999OC101441REMMET060METAR EDHK 010920Z 28018G28KT 9999 FEW020 03/M00 Q1009 BLU/;
0126100465999992011010110204+54367+010133FM-15+0031EDHK V0202801N008712200019N0112651N1+00301+00001999999ADDGA1021+006001999GF102991999999999999999999MA1100911999999REMMET057METAR EDHK 011020Z 28017KT 9999 FEW020 03/M00 Q1009 BLU/;
0126100465999992011010111204+54367+010133FM-15+0031EDHK V0202801N008212200019N0112651N1+00301+00001999999ADDGA1021+006001999GF102991999999999999999999MA1101021999999REMMET057METAR EDHK 011120Z 28016KT 9999 FEW020 03/M00 Q1010 BLU/;
0126100465999992011010112204+54367+010133FM-15+0031EDHK V0202901N007712200019N0112651N1+00301-00101999999ADDGA1041+009001999GF104991999999999999999999MA1101021999999REMMET057METAR EDHK 011220Z 29015KT 9999 SCT030 03/M01 Q1010 BLU/;
0126100465999992011010113204+54367+010133FM-15+0031EDHK V0202801N007712200019N0112651N1+00301+00001999999ADDGA1021+009001999GF102991999999999999999999MA1101021999999REMMET057METAR EDHK 011320Z 28015KT 9999 FEW030 03/M00 Q1010 BLU/;
0126100465999992011010114204+54367+010133FM-15+0031EDHK V0202801N007212200019N0112651N1+00201+00001999999ADDGA1021+009001999GF102991999999999999999999MA1101021999999REMMET057METAR EDHK 011420Z 28014KT 9999 FEW030 02/M00 Q1010 BLU/;
0126100465999992011010115204+54367+010133FM-15+0031EDHK V0202801N005712200019N0112651N1+00201+00001999999ADDGA1021+009001999GF102991999999999999999999MA1101081999999REMMET057METAR EDHK 011520Z 28011KT 9999 FEW030 02/M00 Q1011 BLU/;
0126100465999992011010116204+54367+010133FM-15+0031EDHK V0202701N004112200019N0112651N1+00101-00101999999ADDGA1021+066001999GF102991999999999999999999MA1101191999999REMMET057METAR EDHK 011620Z 27008KT 9999 FEW220 01/M01 Q1012 BLU/;
0126100465999992011010117204+54367+010133FM-15+0031EDHK V0202601N004612200019N0112651N1+00101-00101999999ADDGA1021+060001999GF102991999999999999999999MA1101191999999REMMET057METAR EDHK 011720Z 26009KT 9999 FEW200 01/M01 Q1012 BLU/;
0126100465999992011010118204+54367+010133FM-15+0031EDHK V0202801N005712200019N0112651N1+00101-00201999999ADDGA1021+060001999GF102991999999999999999999MA1101191999999REMMET057METAR EDHK 011820Z 28011KT 9999 FEW200 01/M02 Q1012 BLU/;
0126100465999992011010119204+54367+010133FM-15+0031EDHK V0202801N005712200019N0112651N1+00101-00201999999ADDGA1021+060001999GF102991999999999999999999MA1101191999999REMMET057METAR EDHK 011920Z 28011KT 9999 FEW200 01/M02 Q1012 BLU/;
0126100465999992011010120204+54367+010133FM-15+0031EDHK V0202601N004112200019N0112651N1+00001-00201999999ADDGA1021+060001999GF102991999999999999999999MA1101291999999REMMET057METAR EDHK 012020Z 26008KT 9999 FEW200 00/M02 Q1013 BLU/;
0127100465999992011010121204+54367+010133FM-15+0031EDHK V0202601N004112200019N0112651N1+00001-00301999999ADDGA1021+060001999GF102991999999999999999999MA1101291999999REMMET058METAR EDHK 012120Z 26008KT 9999 FEW200 M00/M03 Q1013 BLU/;
0127100465999992011010122204+54367+010133FM-15+0031EDHK V0202701N003612200019N0112651N1-00101-00201999999ADDGA1021+003001999GF102991999999999999999999MA1101291999999REMMET058METAR EDHK 012220Z 27007KT 9999 FEW010 M01/M02 Q1013 BLU/;
0127100465999992011010123204+54367+010133FM-15+0031EDHK V0202601N003612200019N0112651N1-00101-00201999999ADDGA1021+002401999GF102991999999999999999999MA1101291999999REMMET058METAR EDHK 012320Z 26007KT 9999 FEW008 M01/M02 Q1013 BLU/;
0127100465999992011010200204+54367+010133FM-15+0031EDHK V0202601N004112200019N0112651N1-00101-00201999999ADDGA1021+002401999GF102991999999999999999999MA1101291999999REMMET058METAR EDHK 020020Z 26008KT 9999 FEW008 M01/M02 Q1013 BLU/;
0127100465999992011010201204+54367+010133FM-15+0031EDHK V0202701N003112200019N0112651N1-00201-00301999999ADDGA1021+002401999GF102991999999999999999999MA1101291999999REMMET058METAR EDHK 020120Z 27006KT 9999 FEW008 M02/M03 Q1013 BLU/;
0127100465999992011010202204+54367+010133FM-15+0031EDHK V0202701N004112200019N0112651N1-00101-00201999999ADDGA1021+001501999GF102991999999999999999999MA1101291999999REMMET058METAR EDHK 020220Z 27008KT 9999 FEW005 M01/M02 Q1013 BLU/;
0127100465999992011010203204+54367+010133FM-15+0031EDHK V0202701N004112200019N0112651N1-00101-00201999999ADDGA1021+060001999GF102991999999999999999999MA1101391999999REMMET058METAR EDHK 020320Z 27008KT 9999 FEW200 M01/M02 Q1014 BLU/;
0127100465999992011010204204+54367+010133FM-15+0031EDHK V0202901N004612200019N0112651N1-00101-00201999999ADDGA1021+060001999GF102991999999999999999999MA1101391999999REMMET058METAR EDHK 020420Z 29009KT 9999 FEW200 M01/M02 Q1014 BLU/;
0127100465999992011010205204+54367+010133FM-15+0031EDHK V0202901N004112200019N0112651N1-00201-00301999999ADDGA1021+060001999GF102991999999999999999999MA1101391999999REMMET058METAR EDHK 020520Z 29008KT 9999 FEW200 M02/M03 Q1014 BLU/;
0127100465999992011010206204+54367+010133FM-15+0031EDHK V0202601N003112200019N0112651N1-00201-00301999999ADDGA1021+060001999GF102991999999999999999999MA1101491999999REMMET058METAR EDHK 020620Z 26006KT 9999 FEW200 M02/M03 Q1015 BLU/;
0078100465999992011010207204+54367+010133FM-15+0031EDHK V0202801N003112200019N0112651N1-00401-00401999999ADDMA1101491999999REMMET051METAR EDHK 020720Z 28006KT 9999 M04/M04 Q1015 BLU/;
0078100465999992011010208204+54367+010133FM-15+0031EDHK V0202701N004112200019N0112651N1-00201-00301999999ADDMA1101491999999REMMET051METAR EDHK 020820Z 27008KT 9999 M02/M03 Q1015 BLU/;
0127100465999992011010209204+54367+010133FM-15+0031EDHK V0202701N004112200019N0112651N1-00201-00301999999ADDGA1021+004501999GF102991999999999999999999MA1101591999999REMMET058METAR EDHK 020920Z 27008KT 9999 FEW015 M02/M03 Q1016 BLU/;
0127100465999992011010210204+54367+010133FM-15+0031EDHK V0202701N004112200019N0112651N1-00101-00201999999ADDGA1021+004501999GF102991999999999999999999MA1101591999999REMMET058METAR EDHK 021020Z 27008KT 9999 FEW015 M01/M02 Q1016 BLU/;
0126100465999992011010211204+54367+010133FM-15+0031EDHK V0202601N004112200019N0112651N1+00001-00101999999ADDGA1021+060001999GF102991999999999999999999MA1101591999999REMMET057METAR EDHK 021120Z 26008KT 9999 FEW200 00/M01 Q1016 BLU/;
0077100465999992011010212204+54367+010133FM-15+0031EDHK V0202701N004112200019N0112651N1+00001-00101999999ADDMA1101591999999REMMET050METAR EDHK 021220Z 27008KT 9999 00/M01 Q1016 BLU/;
0077100465999992011010213204+54367+010133FM-15+0031EDHK V0202601N003112200019N0112651N1+00101-00101999999ADDMA1101591999999REMMET050METAR EDHK 021320Z 26006KT 9999 01/M01 Q1016 BLU/;
0077100465999992011010214204+54367+010133FM-15+0031EDHK V0202601N003612200019N0112651N1+00101-00201999999ADDMA1101591999999REMMET050METAR EDHK 021420Z 26007KT 9999 01/M02 Q1016 BLU/;
0127100465999992011010215204+54367+010133FM-15+0031EDHK V0202701N003112200019N0112651N1-00101-00301999999ADDGA1021+057001999GF102991999999999999999999MA1101591999999REMMET058METAR EDHK 021520Z 27006KT 9999 FEW190 M01/M03 Q1016 BLU/;
0135100465999992011010216204+54367+010133FM-15+0031EDHK V0202601N002612200019N0050001N1-00201-00301999999ADDGA1021+009901999GF102991999999999999999999MA1101691999999MW1101REMMET060METAR EDHK 021620Z 26005KT 5000 BR FEW033 M02/M03 Q1017 WHT;
0127100465999992011010217204+54367+010133FM-15+0031EDHK V0202601N003112200019N0080001N1-00201-00301999999ADDGA1021+057001999GF102991999999999999999999MA1101691999999REMMET058METAR EDHK 021720Z 26006KT 8000 FEW190 M02/M03 Q1017 BLU/;
0127100465999992011010218204+54367+010133FM-15+0031EDHK V0202601N002612200019N0080001N1-00201-00301999999ADDGA1021+060001999GF102991999999999999999999MA1101691999999REMMET058METAR EDHK 021820Z 26005KT 8000 FEW200 M02/M03 Q1017 BLU/;
0078100465999992011010219204+54367+010133FM-15+0031EDHK V0202501N002112200019N0080001N1-00301-00401999999ADDMA1101691999999REMMET051METAR EDHK 021920Z 25004KT 8000 M03/M04 Q1017 BLU/;
0078100465999992011010220204+54367+010133FM-15+0031EDHK V0202601N003112200019N0080001N1-00501-00601999999ADDMA1101801999999REMMET051METAR EDHK 022020Z 26006KT 8000 M05/M06 Q1018 BLU/;
0078100465999992011010221204+54367+010133FM-15+0031EDHK V0202701N003112200019N0080001N1-00401-00501999999ADDMA1101801999999REMMET051METAR EDHK 022120Z 27006KT 8000 M04/M05 Q1018 BLU/;
0078100465999992011010222204+54367+010133FM-15+0031EDHK V0202801N001512200019N0080001N1-00401-00501999999ADDMA1101801999999REMMET051METAR EDHK 022220Z 28003KT 8000 M04/M05 Q1018 BLU/;
0077100465999992011010223204+54367+010133FM-15+0031EDHK V0202501N002112200019N0070001N1-00401-00401999999ADDMA1101801999999REMMET050METAR EDHK 022320Z 25004KT 7000 M04/M04 Q1018 WHT;
0097100465999992011010223484+54367+010133FM-16+0031EDHK V0202601N002112200019N0040001N1-00501-00601999999ADDMA1101801999999MW1101MW2121REMMET058SPECI EDHK 022348Z 26004KT 4000 MIFG BR M05/M06 Q1018 GRN;
0146100465999992011010300204+54367+010133FM-15+0031EDHK V0202501N001012200019N0030001N1-00601-00701999999ADDGA1021+001201999GF102991999999999999999999MA1101801999999MW1101MW2121REMMET065METAR EDHK 030020Z 25002KT 3000 MIFG BR FEW004 M06/M07 Q1018 YLO;
0137100465999992011010300504+54367+010133FM-16+0031EDHK V0202401N001510003019N0008001N1-00501-00601999999ADDGA1071+000301999GF107991999999999999999999MA1101901999999MW1481REMMET062SPECI EDHK 030050Z 24003KT 0800 FZFG BKN001 M05/M06 Q1019 RED;
0137100465999992011010301204+54367+010133FM-15+0031EDHK V0202601N002110003019N0006001N1-00501-00601999999ADDGA1071+000301999GF107991999999999999999999MA1101901999999MW1481REMMET062METAR EDHK 030120Z 26004KT 0600 FZFG BKN001 M05/M06 Q1019 RED;
0137100465999992011010302204+54367+010133FM-15+0031EDHK V0202501N001512200019N0005001N1-00501-00601999999ADDGA1041+000301999GF104991999999999999999999MA1101901999999MW1481REMMET062METAR EDHK 030220Z 25003KT 0500 FZFG SCT001 M05/M06 Q1019 RED;
0146100465999992011010302484+54367+010133FM-16+0031EDHK V0202301N001012200019N0014001N1-00601-00601999999ADDGA1021+000301999GF102991999999999999999999MA1101901999999MW1101MW2121REMMET065SPECI EDHK 030248Z 23002KT 1400 MIFG BR FEW001 M06/M06 Q1019 AMB;
0146100465999992011010303004+54367+010133FM-15+0031EDHK V0202201N001012200019N0014001N1-00601-00601999999ADDGA1021+000301999GF102991999999999999999999MA1101901999999MW1101MW2121REMMET065SPECI EDHK 030258Z 22002KT 1400 MIFG BR FEW001 M06/M06 Q1019 AMB;
0146100465999992011010303204+54367+010133FM-15+0031EDHK V0202201N001012200019N0040001N1-00601-00701999999ADDGA1021+000301999GF102991999999999999999999MA1101901999999MW1101MW2121REMMET065METAR EDHK 030320Z 22002KT 4000 MIFG BR FEW001 M06/M07 Q1019 GRN;
0146100465999992011010304204+54367+010133FM-15+0031EDHK V0202201N000512200019N0025001N1-00701-00801999999ADDGA1021+000301999GF102991999999999999999999MA1101901999999MW1101MW2401REMMET065METAR EDHK 030420Z 22001KT 2500 VCFG BR FEW001 M07/M08 Q1019 YLO;
0160100465999992011010305204+54367+010133FM-15+0031EDHK V0202401N001512200019N0020001N1-00601-00701999999ADDGA1021+000301999GF102991999999999999999999MA1101901999999MW1101MW2401REMMET079METAR EDHK 030520Z 24003KT 2000 VCFG BR FEW001 M06/M07 Q1019 YLO YLO TEMPO RED;
0160100465999992011010306204+54367+010133FM-15+0031EDHK V0202201N001512200019N0025001N1-00701-00801999999ADDGA1021+000301999GF102991999999999999999999MA1101901999999MW1101MW2401REMMET079METAR EDHK 030620Z 22003KT 2500 VCFG BR FEW001 M07/M08 Q1019 YLO YLO TEMPO RED;
0149100465999992011010307204+54367+010133FM-15+0031EDHK V0202201N001512200019N0020001N1-00701-00801999999ADDGA1021+000301999GF102991999999999999999999MA1101901999999MW1101REMMET074METAR EDHK 030720Z 22003KT 2000 BR FEW001 M07/M08 Q1019 YLO YLO TEMPO RED;
0181100465999992011010308204+54367+010133FM-15+0031EDHK V0202001N001512200019N0018001N1-00701-00801999999ADDED126U23009GA1041+000301999GF104991999999999999999999MA1101901999999MW1101MW2401REMMET089METAR EDHK 030820Z 20003KT 1800 R26/2300D VCFG BR SCT001 M07/M08 Q1019 YLO YLO TEMPO RED;
0149100465999992011010309004+54367+010133FM-15+0031EDHK V0202301N001512200019N0030001N1-00701-00801999999ADDGA1021+000301999GF102991999999999999999999MA1101901999999MW1101REMMET074SPECI EDHK 030859Z 23003KT 3000 BR FEW001 M07/M08 Q1019 YLO YLO TEMPO RED;
0173100465999992011010309204+54367+010133FM-15+0031EDHK V0202201N001512200019N0037001N1-00601-00701999999ADDGA1021+000301999GA2041+006901999GF104991999999999999999999MA1101901999999MW1101REMMET082METAR EDHK 030920Z 22003KT 3700 BR FEW001 SCT023 M06/M07 Q1019 GRN GRN BECMG BLU/;
0150100465999992011010310204+54367+010133FM-15+0031EDHK V0202101N001012200019N0050001N1-00501-00501999999ADDGA1021+007801999GF102991999999999999999999MA1101901999999MW1101REMMET075METAR EDHK 031020Z 21002KT 5000 BR FEW026 M05/M05 Q1019 WHT WHT BECMG BLU/;
0164100465999992011010311204+54367+010133FM-15+0031EDHK V0202201N002112200019N0070001N1-00301-00301999999ADDGA1021+001201999GA2041+006001999GF104991999999999999999999MA1101901999999REMMET079METAR EDHK 031120Z 22004KT 7000 FEW004 SCT020 M03/M03 Q1019 WHT BLU/ TEMPO WHT;
0154100465999992011010312204+54367+010133FM-15+0031EDHK V0202201N001512200019N0080001N1-00201-00301999999ADDGA1041+007801999GA2041+060001999GF104991999999999999999999MA1101901999999REMMET069METAR EDHK 031220Z 22003KT 8000 SCT026 SCT200 M02/M03 Q1019 BLU/BLU/;
0177100465999992011010313204+54367+010133FM-15+0031EDHK V0202401N00261048001CN0080001N1-00101-00201999999ADDGA1021+008401999GA2041+048001999GA3071+060001999GF107991999999999999999999MA1101901999999REMMET076METAR EDHK 031320Z 24005KT 8000 FEW028 SCT160 BKN200 M01/M02 Q1019 BLU/BLU/;
0176100465999992011010314204+54367+010133FM-15+0031EDHK V0202401N00311048001CN0080001N1-00101-00201999999ADDGA1021+008401999GA2041+048001999GA3071+054001999GF107991999999999999999999MA1101801999999REMMET075METAR EDHK 031420Z 24006KT 8000 FEW028 SCT160 BKN180 M01/M02 Q1018 BLU BLU;
0186100465999992011010315204+54367+010133FM-15+0031EDHK V0202401N00261045001CN0080001N1-00101-00201999999ADDGA1021+008401999GA2041+045001999GA3071+054001999GF107991999999999999999999MA1101801999999REMMET085METAR EDHK 031520Z 24005KT 8000 FEW028 SCT150 BKN180 M01/M02 Q1018 BLU BLU BECMG WHT;
0186100465999992011010316204+54367+010133FM-15+0031EDHK V0202201N002610450019N0080001N1-00101-00201999999ADDGA1021+006901999GA2071+045001999GA3071+054001999GF107991999999999999999999MA1101801999999REMMET085METAR EDHK 031620Z 22005KT 8000 FEW023 BKN150 BKN180 M01/M02 Q1018 BLU BLU BECMG WHT;
0176100465999992011010317204+54367+010133FM-15+0031EDHK V0202301N00311018001CN0070001N1-00101-00201999999ADDGA1021+006001999GA2041+018001999GA3071+042001999GF107991999999999999999999MA1101801999999REMMET075METAR EDHK 031720Z 23006KT 7000 FEW020 SCT060 BKN140 M01/M02 Q1018 WHT WHT;
0185100465999992011010318204+54367+010133FM-15+0031EDHK V0202301N00311018001CN0050001N1-00101-00201999999ADDGA1041+000601999GA2041+018001999GA3071+042001999GF107991999999999999999999MA1101801999999MW1101REMMET078METAR EDHK 031820Z 23006KT 5000 BR SCT002 SCT060 BKN140 M01/M02 Q1018 WHT WHT;
0149100465999992011010319004+54367+010133FM-15+0031EDHK V0202401N003610003019N0018001N1-00101-00201999999ADDGA1071+000301999GF107991999999999999999999MA1101801999999MW1101REMMET074SPECI EDHK 031856Z 24007KT 1800 BR BKN001 M01/M02 Q1018 RED WHT TEMPO RED;
0149100465999992011010319204+54367+010133FM-15+0031EDHK V0202401N003610003019N0006001N1-00101-00101999999ADDGA1081+000301999GF108991999999999999999999MA1101801999999MW1481REMMET074METAR EDHK 031920Z 24007KT 0600 FZFG OVC001 M01/M01 Q1018 RED FCST CANCEL;
0136100465999992011010320204+54367+010133FM-15+0031EDHK V0202401N004110001519N0009001N1+00001+00001999999ADDGA1091+000151999GF109991999999000251999999MA1101691999999MW1491REMMET061METAR EDHK 032020Z 24008KT 0900 FZFG VV000 M00/M00 Q1017 RED;
0135100465999992011010320384+54367+010133FM-16+0031EDHK V0202401N004110006019N0020001N1+00001+00001999999ADDGA1071+000601999GF107991999999999999999999MA1101691999999MW1101REMMET060SPECI EDHK 032038Z 24008KT 2000 BR BKN002 M00/M00 Q1017 AMB;
0135100465999992011010321204+54367+010133FM-15+0031EDHK V0202301N003610006019N0025001N1+00001+00001999999ADDGA1071+000601999GF107991999999999999999999MA1101691999999MW1101REMMET060METAR EDHK 032120Z 23007KT 2500 BR BKN002 M00/M00 Q1017 AMB;
0135100465999992011010322204+54367+010133FM-15+0031EDHK V0202301N003610006019N0025001N1+00001+00001999999ADDGA1071+000601999GF107991999999999999999999MA1101691999999MW1101REMMET060METAR EDHK 032220Z 23007KT 2500 BR BKN002 M00/M00 Q1017 AMB;
0134100465999992011010323204+54367+010133FM-15+0031EDHK V0202401N004110006019N0025001N1+00001-00101999999ADDGA1071+000601999GF107991999999999999999999MA1101691999999MW1101REMMET059METAR EDHK 032320Z 24008KT 2500 BR BKN002 00/M01 Q1017 AMB;
0137100465999992011010323434+54367+010133FM-16+0031EDHK V0202401N003610003019N0007001N1+00001+00001999999ADDGA1071+000301999GF107991999999999999999999MA1101691999999MW1481REMMET062SPECI EDHK 032343Z 24007KT 0700 FZFG BKN001 M00/M00 Q1017 RED;
0136100465999992011010400204+54367+010133FM-15+0031EDHK V0202401N003110003019N0007001N1+00001+00001999999ADDGA1091+000301999GF109991999999000251999999MA1101691999999MW1491REMMET061METAR EDHK 040020Z 24006KT 0700 FZFG VV001 M00/M00 Q1017 RED;
0133100465999992011010400424+54367+010133FM-16+0031EDHK V0202301N003610006019N0025001N1+00001+00001999999ADDGA1071+000601999GF107991999999999999999999MA1101691999999MW1101REMMET058SPECI EDHK 040042Z 23007KT 2500 BR BKN002 00/00 Q1017 AMB;
0133100465999992011010401204+54367+010133FM-15+0031EDHK V0202301N003610009019N0027001N1+00001+00001999999ADDGA1071+000901999GF107991999999999999999999MA1101591999999MW1101REMMET058METAR EDHK 040120Z 23007KT 2700 BR BKN003 00/00 Q1016 YLO;
0133100465999992011010402204+54367+010133FM-15+0031EDHK V0202301N003610009019N0028001N1+00001+00001999999ADDGA1071+000901999GF107991999999999999999999MA1101591999999MW1101REMMET058METAR EDHK 040220Z 23007KT 2800 BR BKN003 00/00 Q1016 YLO;
0133100465999992011010403204+54367+010133FM-15+0031EDHK V0202301N003610006019N0020001N1+00001+00001999999ADDGA1071+000601999GF107991999999999999999999MA1101591999999MW1101REMMET058METAR EDHK 040320Z 23007KT 2000 BR BKN002 00/00 Q1016 AMB;
0134100465999992011010403404+54367+010133FM-16+0031EDHK V0202301N003110006019N0014001N1+00001+00001999999ADDGA1071+000601999GF107991999999999999999999MA1101591999999MW1101REMMET059SPECI EDHK 040340Z 23006KT 1400 BR BKN002 00/M00 Q1016 AMB;
0133100465999992011010404204+54367+010133FM-15+0031EDHK V0202201N003110006019N0014001N1+00001+00001999999ADDGA1071+000601999GF107991999999999999999999MA1101491999999MW1101REMMET058METAR EDHK 040420Z 22006KT 1400 BR BKN002 00/00 Q1015 AMB;
0148100465999992011010405204+54367+010133FM-15+0031EDHK V0202301N003610009019N0032001N1+00001+00001999999ADDGA1071+000901999GF107991999999999999999999MA1101491999999MW1101REMMET073METAR EDHK 040520Z 23007KT 3200 BR BKN003 00/M00 Q1015 YLO YLO TEMPO AMB;
0148100465999992011010406204+54367+010133FM-15+0031EDHK V0202301N003110009019N0033001N1+00001+00001999999ADDGA1071+000901999GF107991999999999999999999MA1101491999999MW1101REMMET073METAR EDHK 040620Z 23006KT 3300 BR BKN003 00/M00 Q1015 YLO YLO TEMPO AMB;
0148100465999992011010407204+54367+010133FM-15+0031EDHK V0202201N003110012019N0022001N1+00001+00001999999ADDGA1071+001201999GF107991999999999999999999MA1101491999999MW1101REMMET073METAR EDHK 040720Z 22006KT 2200 BR BKN004 00/M00 Q1015 YLO YLO TEMPO AMB;
0148100465999992011010408204+54367+010133FM-15+0031EDHK V0202001N003110012019N0020001N1+00001+00001999999ADDGA1071+001201999GF107991999999999999999999MA1101491999999MW1101REMMET073METAR EDHK 040820Z 20006KT 2000 BR BKN004 00/M00 Q1015 YLO YLO TEMPO AMB;
0171100465999992011010409204+54367+010133FM-15+0031EDHK V0202101N004110015019N0030001N1+00001-00101999999ADDGA1021+001201999GA2071+001501999GF107991999999999999999999MA1101491999999MW1101REMMET080METAR EDHK 040920Z 21008KT 3000 BR FEW004 BKN005 00/M01 Q1015 YLO YLO TEMPO AMB;
0171100465999992011010410044+54367+010133FM-16+0031EDHK V0202001N003610018019N0035001N1+00001-00101999999ADDGA1021+001201999GA2071+001801999GF107991999999999999999999MA1101491999999MW1101REMMET080SPECI EDHK 041004Z 20007KT 3500 BR FEW004 BKN006 00/M01 Q1015 YLO YLO TEMPO AMB;
0171100465999992011010410204+54367+010133FM-15+0031EDHK V0202001N003610018019N0040001N1+00001-00101999999ADDGA1071+001801999GA2071+015001999GF107991999999999999999999MA1101491999999MW1101REMMET080METAR EDHK 041020Z 20007KT 4000 BR BKN006 BKN050 00/M01 Q1015 YLO YLO TEMPO AMB;
0171100465999992011010411204+54367+010133FM-15+0031EDHK V0202001N004110021019N0045001N1+00101-00101999999ADDGA1071+002101999GA2071+015001999GF107991999999999999999999MA1101391999999MW1101REMMET080METAR EDHK 041120Z 20008KT 4500 BR BKN007 BKN050 01/M01 Q1014 GRN YLO TEMPO AMB;
0171100465999992011010412204+54367+010133FM-15+0031EDHK V0201901N005110120019N0040001N1+00101-00101999999ADDGA1041+002401999GA2071+012001999GF107991999999999999999999MA1101291999999MW1101REMMET080METAR EDHK 041220Z 19010KT 4000 BR SCT008 BKN040 01/M01 Q1013 GRN YLO TEMPO AMB;
0171100465999992011010413204+54367+010133FM-15+0031EDHK V0202001N004610105019N0045001N1+00101-00101999999ADDGA1021+002401999GA2071+010501999GF107991999999999999999999MA1101291999999MW1101REMMET080METAR EDHK 041320Z 20009KT 4500 BR FEW008 BKN035 01/M01 Q1013 GRN YLO TEMPO AMB;
0148100465999992011010414014+54367+010133FM-16+0031EDHK V0202001N004110120019N0050001N1+00101-00101999999ADDGA1071+012001999GF107991999999999999999999MA1101291999999MW1101REMMET073SPECI EDHK 041401Z 20008KT 5000 BR BKN040 01/M01 Q1013 WHT WHT TEMPO YLO;
0171100465999992011010414204+54367+010133FM-15+0031EDHK V0202001N004110120019N0050001N1+00101-00101999999ADDGA1021+006001999GA2071+012001999GF107991999999999999999999MA1101291999999MW1101REMMET080METAR EDHK 041420Z 20008KT 5000 BR FEW020 BKN040 01/M01 Q1013 WHT WHT TEMPO YLO;
0139100465999992011010415204+54367+010133FM-15+0031EDHK V0202001N005110054019N0060001N1+00101-00201999999ADDGA1071+005401999GF107991999999999999999999MA1101291999999REMMET070METAR EDHK 041520Z 20010KT 6000 BKN018 01/M02 Q1013 WHT WHT TEMPO YLO;
0162100465999992011010416204+54367+010133FM-15+0031EDHK V0202001N004610048019N0060001N1+00101-00201999999ADDGA1071+004801999GA2071+012001999GF107991999999999999999999MA1101291999999REMMET077METAR EDHK 041620Z 20009KT 6000 BKN016 BKN040 01/M02 Q1013 WHT WHT TEMPO YLO;
0160100465999992011010417204+54367+010133FM-15+0031EDHK V0202001N005110150019N0060001N1+00101-00201999999ADDGA1071+015001999GA2071+024001999GF107991999999999999999999MA1101191999999REMMET075METAR EDHK 041720Z 20010KT 6000 BKN050 BKN080 01/M02 Q1012 WHT FCST CANCEL;
0141100465999992011010418204+54367+010133FM-15+0031EDHK V0202001N00511220001CN0060001N1+00101-00301999999ADDGA1071+015001999GA2041+024001999MA1101191999999REMMET063METAR EDHK 041820Z 20010KT 6000 BKN050 SCT080 01/M03 Q1012 WHT;EQDQ01+000042SCOTCV
0148100465999992011010419204+54367+010133FM-15+0031EDHK V0202101N005110240019N0080001N1+00101-00401999999ADDGA1041+015001999GA2071+024001999GF107991999999999999999999MA1101191999999REMMET063METAR EDHK 041920Z 21010KT 8000 SCT050 BKN080 01/M04 Q1012 BLU;
0171100465999992011010420204+54367+010133FM-15+0031EDHK V0202101N00461013501CN0080001N1+00101-00401999999ADDGA1021+009001999GA2041+013501999GA3071+024001999GF107991999999999999999999MA1101191999999REMMET070METAR EDHK 042020Z 21009KT 8000 FEW030 SCT045 BKN080 01/M04 Q1012 BLU;
0171100465999992011010421204+54367+010133FM-15+0031EDHK V0202001N005110180019N0080001N1+00101-00301999999ADDGA1021+009001999GA2071+018001999GA3071+024001999GF107991999999999999999999MA1101191999999REMMET070METAR EDHK 042120Z 20010KT 8000 FEW030 BKN060 BKN080 01/M03 Q1012 BLU;
0148100465999992011010422204+54367+010133FM-15+0031EDHK V0202001N005110180019N0080001N1+00001-00301999999ADDGA1041+012001999GA2071+018001999GF107991999999999999999999MA1101191999999REMMET063METAR EDHK 042220Z 20010KT 8000 SCT040 BKN060 00/M03 Q1012 BLU;
0148100465999992011010423204+54367+010133FM-15+0031EDHK V0202001N004610090019N0080001N1+00001-00401999999ADDGA1071+009001999GA2071+015001999GF107991999999999999999999MA1101191999999REMMET063METAR EDHK 042320Z 20009KT 8000 BKN030 BKN050 00/M04 Q1012 BLU;
0150100465999992011010500204+54367+010133FM-15+0031EDHK V0202101N004612200019N0090001N1+00001-00401999999ADDGA1041+009001999GA2041+018001999GF104991999999999999999999MA1101191999999REMMET065METAR EDHK 050020Z 21009KT 9000 SCT030 SCT060 M00/M04 Q1012 BLU/;
0149100465999992011010501204+54367+010133FM-15+0031EDHK V0201901N005110150019N0112651N1+00001-00401999999ADDGA1021+009001999GA2071+015001999GF107991999999999999999999MA1101081999999REMMET064METAR EDHK 050120Z 19010KT 9999 FEW030 BKN050 M00/M04 Q1011 BLU;
0172100465999992011010502204+54367+010133FM-15+0031EDHK V0202001N00511015001CN0112651N1-00101-00401999999ADDGA1021+009001999GA2041+015001999GA3071+027001999GF107991999999999999999999MA1101081999999REMMET071METAR EDHK 050220Z 20010KT 9999 FEW030 SCT050 BKN090 M01/M04 Q1011 BLU;
0149100465999992011010503204+54367+010133FM-15+0031EDHK V0202001N005110270019N0112651N1-00101-00501999999ADDGA1021+009001999GA2071+027001999GF107991999999999999999999MA1101081999999REMMET064METAR EDHK 050320Z 20010KT 9999 FEW030 BKN090 M01/M05 Q1011 BLU;
0149100465999992011010504204+54367+010133FM-15+0031EDHK V0202001N005110270019N0112651N1-00101-00501999999ADDGA1021+015001999GA2071+027001999GF107991999999999999999999MA1101081999999REMMET064METAR EDHK 050420Z 20010KT 9999 FEW050 BKN090 M01/M05 Q1011 BLU;
0186100465999992011010505204+54367+010133FM-15+0031EDHK V0202001N00461015001CN0112651N1-00201-00501999999ADDGA1021+006001999GA2041+015001999GA3071+024001999GF107991999999999999999999MA1101081999999REMMET085METAR EDHK 050520Z 20009KT 9999 FEW020 SCT050 BKN080 M02/M05 Q1011 BLU BLU TEMPO GRN;
0186100465999992011010506204+54367+010133FM-15+0031EDHK V0201901N00461015001CN0112651N1-00201-00501999999ADDGA1041+004501999GA2041+015001999GA3071+024001999GF107991999999999999999999MA1101021999999REMMET085METAR EDHK 050620Z 19009KT 9999 SCT015 SCT050 BKN080 M02/M05 Q1010 BLU BLU TEMPO GRN;
0160100465999992011010507204+54367+010133FM-15+0031EDHK V0201901N004610054019N0112651N1-00201-00601999999ADDGA1071+005401999GA2071+030001999GF107991999999999999999999MA1101081999999OC100981REMMET067METAR EDHK 050720Z 19009G19KT 9999 BKN018 BKN100 M02/M06 Q1011 WHT;
0163100465999992011010508204+54367+010133FM-15+0031EDHK V0201901N005110300019N0112651N1-00201-00601999999ADDGA1041+015001999GA2071+030001999GF107991999999999999999999MA1101021999999REMMET078METAR EDHK 050820Z 19010KT 9999 SCT050 BKN100 M02/M06 Q1010 BLU BLU TEMPO GRN;
0163100465999992011010509204+54367+010133FM-15+0031EDHK V0202001N005110300019N0112651N1-00201-00601999999ADDGA1021+015001999GA2071+030001999GF107991999999999999999999MA1101021999999REMMET078METAR EDHK 050920Z 20010KT 9999 FEW050 BKN100 M02/M06 Q1010 BLU BLU TEMPO GRN;
0163100465999992011010510204+54367+010133FM-15+0031EDHK V0201901N004610300019N0112651N1-00201-00601999999ADDGA1021+015001999GA2071+030001999GF107991999999999999999999MA1101021999999REMMET078METAR EDHK 051020Z 19009KT 9999 FEW050 BKN100 M02/M06 Q1010 BLU BLU TEMPO GRN;
0163100465999992011010511204+54367+010133FM-15+0031EDHK V0201801N004610330019N0112651N1-00101-00601999999ADDGA1071+033001999GA2071+066001999GF107991999999999999999999MA1101021999999REMMET078METAR EDHK 051120Z 18009KT 9999 BKN110 BKN220 M01/M06 Q1010 BLU BLU TEMPO GRN;
0163100465999992011010512204+54367+010133FM-15+0031EDHK V0202001N004110330019N0112651N1-00101-00601999999ADDGA1071+033001999GA2071+060001999GF107991999999999999999999MA1100911999999REMMET078METAR EDHK 051220Z 20008KT 9999 BKN110 BKN200 M01/M06 Q1009 BLU BLU TEMPO GRN;
0163100465999992011010513204+54367+010133FM-15+0031EDHK V0201701N004110360019N0112651N1-00101-00601999999ADDGA1071+036001999GA2071+060001999GF107991999999999999999999MA1100811999999REMMET078METAR EDHK 051320Z 17008KT 9999 BKN120 BKN200 M01/M06 Q1008 BLU BLU TEMPO GRN;
0153100465999992011010514204+54367+010133FM-15+0031EDHK V0201701N004110420019N0112651N1-00101-00601999999ADDGA1071+042001999GA2071+060001999GF107991999999999999999999MA1100811999999REMMET068METAR EDHK 051420Z 17008KT 9999 BKN140 BKN200 M01/M06 Q1008 BLU BLU;
0153100465999992011010515204+54367+010133FM-15+0031EDHK V0201601N004110390019N0080001N1-00101-00601999999ADDGA1071+039001999GA2071+060001999GF107991999999999999999999MA1100811999999REMMET068METAR EDHK 051520Z 16008KT 8000 BKN130 BKN200 M01/M06 Q1008 BLU BLU;
0153100465999992011010516204+54367+010133FM-15+0031EDHK V0201601N004110570019N0080001N1-00201-00601999999ADDGA1041+039001999GA2071+057001999GF107991999999999999999999MA1100711999999REMMET068METAR EDHK 051620Z 16008KT 8000 SCT130 BKN190 M02/M06 Q1007 BLU BLU;
0163100465999992011010517204+54367+010133FM-15+0031EDHK V0201601N004610570019N0080001N1-00301-00601999999ADDGA1041+039001999GA2071+057001999GF107991999999999999999999MA1100611999999REMMET078METAR EDHK 051720Z 16009KT 8000 SCT130 BKN190 M03/M06 Q1006 BLU BLU TEMPO GRN;
0163100465999992011010518204+54367+010133FM-15+0031EDHK V0201501N004110660019N0080001N1-00301-00601999999ADDGA1021+039001999GA2071+066001999GF107991999999999999999999MA1100511999999REMMET078METAR EDHK 051820Z 15008KT 8000 FEW130 BKN220 M03/M06 Q1005 BLU/BLU TEMPO GRN;
0138100465999992011010519204+54367+010133FM-15+0031EDHK V0201601N004112200019N0080001N1-00401-00701999999ADDGA1041+066001999GF104991999999999999999999MA1100511999999REMMET069METAR EDHK 051920Z 16008KT 8000 SCT220 M04/M07 Q1005 BLU/FCST CANCEL;
0150100465999992011010520204+54367+010133FM-15+0031EDHK V0201601N005112200019N0080001N1-00401-00701999999ADDGA1041+012001999GA2041+066001999GF104991999999999999999999MA1100411999999REMMET065METAR EDHK 052020Z 16010KT 8000 SCT040 SCT220 M04/M07 Q1004 BLU/;
0150100465999992011010521204+54367+010133FM-15+0031EDHK V0201501N004612200019N0080001N1-00401-00701999999ADDGA1041+012001999GA2041+066001999GF104991999999999999999999MA1100311999999REMMET065METAR EDHK 052120Z 15009KT 8000 SCT040 SCT220 M04/M07 Q1003 BLU/;
0150100465999992011010522204+54367+010133FM-15+0031EDHK V0201601N004112200019N0080001N1-00501-00801999999ADDGA1021+036001999GA2041+060001999GF104991999999999999999999MA1100201999999REMMET065METAR EDHK 052220Z 16008KT 8000 FEW120 SCT200 M05/M08 Q1002 BLU/;
0173100465999992011010523204+54367+010133FM-15+0031EDHK V0201601N00411039001CN0080001N1-00401-00801999999ADDGA1021+015001999GA2041+039001999GA3071+060001999GF107991999999999999999999MA1100001999999REMMET072METAR EDHK 052320Z 16008KT 8000 FEW050 SCT130 BKN200 M04/M08 Q1000 BLU/;
0126100465999992011010600204+54367+010133FM-15+0031EDHK V0201501N004110120019N0080001N1-00401-00701999999ADDGA1071+012001999GF107991999999999999999999MA1099801999999REMMET057METAR EDHK 060020Z 15008KT 8000 BKN040 M04/M07 Q0998 BLU;
0136100465999992011010601204+54367+010133FM-15+0031EDHK V0201701N004610090019N0045001N1-00401-00701999999ADDGA1071+009001999GF107991999999999999999999MA1099701999999MW1711REMMET061METAR EDHK 060120Z 17009KT 4500 -SN BKN030 M04/M07 Q0997 GRN;
0158100465999992011010601324+54367+010133FM-16+0031EDHK V0201701N004610060019N0030001N1-00401-00601999999ADDGA1041+001501999GA2071+006001999GF107991999999999999999999MA1099701999999MW1731REMMET067SPECI EDHK 060132Z 17009KT 3000 SN SCT005 BKN020 M04/M06 Q0997 YLO;
0135100465999992011010602004+54367+010133FM-15+0031EDHK V0201601N004110015019N0020001N1-00401-00501999999ADDGA1071+001501999GF107991999999999999999999MA1099701999999MW1731REMMET060SPECI EDHK 060155Z 16008KT 2000 SN BKN005 M04/M05 Q0997 YLO;
0135100465999992011010602204+54367+010133FM-15+0031EDHK V0201601N005110015019N0020001N1-00401-00501999999ADDGA1071+001501999GF107991999999999999999999MA1099591999999MW1731REMMET060METAR EDHK 060220Z 16010KT 2000 SN BKN005 M04/M05 Q0996 YLO;
0158100465999992011010603204+54367+010133FM-15+0031EDHK V0201801N004110015019N0025001N1-00301-00301999999ADDGA1071+001501999GA2071+006001999GF107991999999999999999999MA1099491999999MW1731REMMET067METAR EDHK 060320Z 18008KT 2500 SN BKN005 BKN020 M03/M03 Q0995 YLO;
0173100465999992011010604204+54367+010133FM-15+0031EDHK V0201801N004110060019N0030001N1-00101-00201999999ADDGA1041+002401999GA2071+006001999GF107991999999999999999999MA1099391999999MW1101MW2711REMMET076METAR EDHK 060420Z 18008KT 3000 -SN BR SCT008 BKN020 M01/M02 Q0994 RESN YLO;
0159100465999992011010605204+54367+010133FM-15+0031EDHK V0201801N004610018019N0025001N1-00101-00201999999ADDGA1071+001801999GF107991999999999999999999MA1099291999999MW1101MW2711REMMET078METAR EDHK 060520Z 18009KT 2500 -SN BR BKN006 M01/M02 Q0993 YLO YLO TEMPO AMB;
0159100465999992011010606204+54367+010133FM-15+0031EDHK V0201801N004610015019N0020001N1+00001-00101999999ADDGA1071+001501999GF107991999999999999999999MA1099291999999MW1101MW2711REMMET078METAR EDHK 060620Z 18009KT 2000 -SN BR BKN005 M00/M01 Q0993 YLO YLO TEMPO AMB;
0163100465999992011010606414+54367+010133FM-16+0031EDHK V0201901N004110015019N0025001N1+00001+00001999999ADDGA1071+001501999GF107991999999999999999999MA1099291999999MW1101MW2711REMMET082SPECI EDHK 060641Z 19008KT 2500 -SN BR BKN005 00/M00 Q0993 BLACKYLO YLO TEMPO AMB;
0170100465999992011010607204+54367+010133FM-15+0031EDHK V0202001N004110015019N0030001N1+00101+00001999999ADDGA1071+001501999GF107991999999999999999999MA1099391999999MW1101MW2611MW3711REMMET083METAR EDHK 060720Z 20008KT 3000 -SNRA BR BKN005 01/00 Q0994 BLACKYLO YLO TEMPO AMB;
0170100465999992011010608094+54367+010133FM-16+0031EDHK V0202001N004110015019N0025001N1+00101+00101999999ADDGA1071+001501999GF107991999999999999999999MA1099391999999MW1101MW2611MW3711REMMET083SPECI EDHK 060809Z 20008KT 2500 -RASN BR BKN005 01/01 Q0994 BLACKYLO YLO TEMPO AMB;
0152100465999992011010608204+54367+010133FM-15+0031EDHK V0202001N004110015019N0030001N1+00101+00101999999ADDGA1071+001501999GF107991999999999999999999MA1099391999999MW1101REMMET077METAR EDHK 060820Z 20008KT 3000 BR BKN005 01/01 Q0994 BLACKYLO YLO TEMPO AMB;
0173100465999992011010609094+54367+010133FM-16+0031EDHK V0202101N004110012019N0018001N1+00201+00201999999ADDED126U22009GA1071+001201999GF107991999999999999999999MA1099391999999MW1101REMMET087SPECI EDHK 060909Z 21008KT 1800 R26/2200D BR BKN004 02/02 Q0994 BLACKYLO YLO TEMPO AMB;
0173100465999992011010609204+54367+010133FM-15+0031EDHK V0202101N004610009019N0012001N1+00201+00201999999ADDED126U21009GA1071+000901999GF107991999999999999999999MA1099391999999MW1101REMMET087METAR EDHK 060920Z 21009KT 1200 R26/2100N BR BKN003 02/02 Q0994 BLACKAMB YLO TEMPO AMB;
0173100465999992011010610204+54367+010133FM-15+0031EDHK V0202201N004110006019N0010001N1+00201+00201999999ADDED126U16009GA1081+000601999GF108991999999999999999999MA1099491999999MW1101REMMET087METAR EDHK 061020Z 22008KT 1000 R26/1600N BR OVC002 02/02 Q0995 BLACKAMB YLO TEMPO AMB;
0168100465999992011010610274+54367+010133FM-16+0031EDHK V0202201N004110006019N0010001N1+00201+00201999999ADDED126U17009GA1081+000601999GF108991999999999999999999MA1099491999999MW1101REMMET082SPECI EDHK 061027Z 22008KT 1000 R26/1700N BR OVC002 02/02 Q0995 AMB YLO TEMPO AMB;
0147100465999992011010610504+54367+010133FM-16+0031EDHK V0202101N004110009019N0020001N1+00201+00201999999ADDGA1081+000901999GF108991999999999999999999MA1099491999999MW1101REMMET072SPECI EDHK 061050Z 21008KT 2000 BR OVC003 02/02 Q0995 YLO YLO TEMPO AMB;
0147100465999992011010611204+54367+010133FM-15+0031EDHK V0202401N003610009019N0025001N1+00301+00201999999ADDGA1081+000901999GF108991999999999999999999MA1099491999999MW1101REMMET072METAR EDHK 061120Z 24007KT 2500 BR OVC003 03/02 Q0995 YLO YLO TEMPO AMB;
0147100465999992011010612204+54367+010133FM-15+0031EDHK V0202201N003610012019N0035001N1+00301+00201999999ADDGA1071+001201999GF107991999999999999999999MA1099491999999MW1101REMMET072METAR EDHK 061220Z 22007KT 3500 BR BKN004 03/02 Q0995 YLO AMB TEMPO YLO;
0168100465999992011010613204+54367+010133FM-15+0031EDHK V0202001N003110006019N0015001N1+00201+00201999999ADDED126U20009GA1081+000601999GF108991999999999999999999MA1099491999999MW1101REMMET082METAR EDHK 061320Z 20006KT 1500 R26/2000D BR OVC002 02/02 Q0995 AMB AMB TEMPO YLO;
0168100465999992011010614204+54367+010133FM-15+0031EDHK V0202001N003610006019N0015001N1+00201+00201999999ADDED126U31009GA1081+000601999GF108991999999999999999999MA1099591999999MW1101REMMET082METAR EDHK 061420Z 20007KT 1500 R26/3100U BR OVC002 02/02 Q0996 AMB AMB TEMPO YLO;
0147100465999992011010614534+54367+010133FM-16+0031EDHK V0202001N003110009019N0020001N1+00201+00201999999ADDGA1081+000901999GF108991999999999999999999MA1099491999999MW1101REMMET072SPECI EDHK 061453Z 20006KT 2000 BR OVC003 02/02 Q0995 YLO AMB TEMPO YLO;
0147100465999992011010615204+54367+010133FM-15+0031EDHK V0202001N003110012019N0025001N1+00201+00201999999ADDGA1081+001201999GF108991999999999999999999MA1099491999999MW1101REMMET072METAR EDHK 061520Z 20006KT 2500 BR OVC004 02/02 Q0995 YLO AMB TEMPO YLO;
0170100465999992011010616204+54367+010133FM-15+0031EDHK V0201801N003110012019N0030001N1+00201+00201999999ADDGA1071+001201999GA2071+002401999GF107991999999999999999999MA1099491999999MW1101REMMET079METAR EDHK 061620Z 18006KT 3000 BR BKN004 BKN008 02/02 Q0995 YLO AMB TEMPO YLO;
0145100465999992011010617204+54367+010133FM-15+0031EDHK V0201701N001510006019N0020001N1+00201+00201999999ADDGA1071+000601999GF107991999999999999999999MA1099491999999MW1101REMMET070METAR EDHK 061720Z 17003KT 2000 BR BKN002 02/02 Q0995 AMB FCST CANCEL;
0132100465999992011010617434+54367+010133FM-16+0031EDHK V0201501N001510003019N0007001N1+00201+00101999999ADDGA1091+000301999GF109991999999000251999999MA1099491999999MW1451REMMET057SPECI EDHK 061743Z 15003KT 0700 FG VV001 02/01 Q0995 RED;
0132100465999992011010618204+54367+010133FM-15+0031EDHK V0201401N001510001519N0003001N1+00201+00101999999ADDGA1091+000151999GF109991999999000251999999MA1099491999999MW1451REMMET057METAR EDHK 061820Z 14003KT 0300 FG VV000 02/01 Q0995 RED;
0132100465999992011010619204+54367+010133FM-15+0031EDHK V0201501N001510001519N0005001N1+00201+00101999999ADDGA1091+000151999GF109991999999000251999999MA1099491999999MW1451REMMET057METAR EDHK 061920Z 15003KT 0500 FG VV000 02/01 Q0995 RED;
0143100465999992011010620204+54367+010133FM-15+0031EDHK V0201501N001010003019N0018001N1+00201+00201999999ADDGA1071+000301999GF107991999999999999999999MA1099491999999MW1101MW2511REMMET062METAR EDHK 062020Z 15002KT 1800 -DZ BR BKN001 02/02 Q0995 RED;
0174100465999992011010620394+54367+010133FM-16+0031EDHK V0201501N001010012019N0035001N1+00201+00201999999ADDGA1071+001201999GA2071+005401999GF107991999999999999999999MA1099491999999MW1101MW2511MW3611REMMET071SPECI EDHK 062039Z 15002KT 3500 -RADZ BR BKN004 BKN018 02/02 Q0995 YLO;
0151100465999992011010621204+54367+010133FM-15+0031EDHK V0201401N001510036019N0028001N1+00201+00201999999ADDGA1071+003601999GF107991999999999999999999MA1099491999999MW1101MW2511MW3611REMMET064METAR EDHK 062120Z 14003KT 2800 -RADZ BR BKN012 02/02 Q0995 YLO;
0174100465999992011010621414+54367+010133FM-16+0031EDHK V0201001N001010009019N0007001N1+00101+00101999999ADDGA1071+000901999GA2071+003601999GF107991999999999999999999MA1099491999999MW1441MW2511MW3611REMMET071SPECI EDHK 062141Z 10002KT 0700 -DZRA FG BKN003 BKN012 01/01 Q0995 RED;
0143100465999992011010622204+54367+010133FM-15+0031EDHK V0209999V000510030019N0007001N1+00101+00101999999ADDGA1071+003001999GF107991999999999999999999MA1099491999999MW1441MW2611REMMET062METAR EDHK 062220Z VRB01KT 0700 -RA FG BKN010 01/01 Q0995 RED;
0156100465999992011010623204+54367+010133FM-15+0031EDHK V0203201N000510030019N0006001N1+00101+00101999999ADDGA1071+003001999GA2071+012001999GF107991999999999999999999MA1099491999999MW1441REMMET065METAR EDHK 062320Z 32001KT 0600 FG BKN010 BKN040 01/01 Q0995 RED;
0156100465999992011010700204+54367+010133FM-15+0031EDHK V0202801N002110030019N0020001N1+00101+00101999999ADDGA1071+003001999GA2071+006001999GF107991999999999999999999MA1099701999999MW1101REMMET065METAR EDHK 070020Z 28004KT 2000 BR BKN010 BKN020 01/01 Q0997 YLO;
0133100465999992011010701204+54367+010133FM-15+0031EDHK V0202801N003610003019N0007001N1+00101+00101999999ADDGA1081+000301999GF108991999999999999999999MA1099801999999MW1441REMMET058METAR EDHK 070120Z 28007KT 0700 FG OVC001 01/01 Q0998 RED;
0156100465999992011010702204+54367+010133FM-15+0031EDHK V0202701N004610009019N0028001N1+00201+00201999999ADDGA1071+000901999GA2071+002701999GF107991999999999999999999MA1100001999999MW1101REMMET065METAR EDHK 070220Z 27009KT 2800 BR BKN003 BKN009 02/02 Q1000 YLO;
0133100465999992011010703204+54367+010133FM-15+0031EDHK V0202501N004110006019N0025001N1+00201+00201999999ADDGA1071+000601999GF107991999999999999999999MA1100101999999MW1101REMMET058METAR EDHK 070320Z 25008KT 2500 BR BKN002 02/02 Q1001 AMB;
0133100465999992011010704204+54367+010133FM-15+0031EDHK V0202401N003610009019N0032001N1+00201+00201999999ADDGA1071+000901999GF107991999999999999999999MA1100201999999MW1101REMMET058METAR EDHK 070420Z 24007KT 3200 BR BKN003 02/02 Q1002 YLO;
0133100465999992011010704484+54367+010133FM-16+0031EDHK V0202401N003610006019N0032001N1+00201+00201999999ADDGA1071+000601999GF107991999999999999999999MA1100311999999MW1101REMMET058SPECI EDHK 070448Z 24007KT 3200 BR BKN002 02/02 Q1003 AMB;
0137100465999992011010705204+54367+010133FM-15+0031EDHK V0202401N004110006019N0032001N1+00201+00201999999ADDGA1071+000601999GF107991999999999999999999MA1100411999999MW1101REMMET062METAR EDHK 070520Z 24008KT 3200 BR BKN002 02/02 Q1004 AMB AMB;
0148100465999992011010706084+54367+010133FM-16+0031EDHK V0202401N002612200019N0050001N1+00101+00101999999ADDGA1041+000901999GF104991999999999999999999MA1100511999999MW1101REMMET073SPECI EDHK 070608Z 24005KT 5000 BR SCT003 01/01 Q1005 WHT WHT BECMG BLU/;
0139100465999992011010706204+54367+010133FM-15+0031EDHK V0202401N002612200019N0070001N1+00101+00101999999ADDGA1021+000901999GF102991999999999999999999MA1100511999999REMMET070METAR EDHK 070620Z 24005KT 7000 FEW003 01/01 Q1005 WHT WHT BECMG BLU/;
0129100465999992011010707204+54367+010133FM-15+0031EDHK V0202501N002612200019N0080001N1+00101+00001999999ADDGA1021+018001999GF102991999999999999999999MA1100711999999REMMET060METAR EDHK 070720Z 25005KT 8000 FEW060 01/00 Q1007 BLU/BLU/;
0154100465999992011010708204+54367+010133FM-15+0031EDHK V0203001N001512200019N0112651N1+00001-00101999999ADDGA1021+018001999GA2041+060001999GF104991999999999999999999MA1100711999999REMMET069METAR EDHK 070820Z 30003KT 9999 FEW060 SCT200 M00/M01 Q1007 BLU/BLU/;
0153100465999992011010709204+54367+010133FM-15+0031EDHK V0202101N002610600019N0112651N1+00001+00001999999ADDGA1021+018001999GA2071+060001999GF107991999999999999999999MA1100911999999REMMET068METAR EDHK 070920Z 21005KT 9999 FEW060 BKN200 00/M00 Q1009 BLU/BLU/;
0153100465999992011010710204+54367+010133FM-15+0031EDHK V0202101N002110600019N0090001N1+00101+00001999999ADDGA1021+018001999GA2071+060001999GF107991999999999999999999MA1100911999999REMMET068METAR EDHK 071020Z 21004KT 9000 FEW060 BKN200 01/M00 Q1009 BLU/BLU/;
0171100465999992011010711204+54367+010133FM-15+0031EDHK V0201901N002110420019N0040001N1+00101+00001999999ADDGA1041+003001999GA2071+042001999GF107991999999999999999999MA1101021999999MW1101REMMET080METAR EDHK 071120Z 19004KT 4000 BR SCT010 BKN140 01/M00 Q1010 GRN GRN BECMG AMB;
0171100465999992011010711294+54367+010133FM-16+0031EDHK V0201801N002110390019N0023001N1+00101+00001999999ADDGA1041+000901999GA2071+039001999GF107991999999999999999999MA1101021999999MW1101REMMET080SPECI EDHK 071129Z 18004KT 2300 BR SCT003 BKN130 01/M00 Q1010 YLO YLO BECMG RED;
0171100465999992011010711354+54367+010133FM-16+0031EDHK V0201601N002110009019N0020001N1+00101+00001999999ADDGA1071+000901999GA2071+039001999GF107991999999999999999999MA1101021999999MW1101REMMET080SPECI EDHK 071135Z 16004KT 2000 BR BKN003 BKN130 01/M00 Q1010 YLO YLO BECMG RED;
0138100465999992011010712004+54367+010133FM-15+0031EDHK V0201501N002610003019N0020001N1+00001+00001999999ADDGA1071+000301999GF107991999999999999999999MA1101021999999MW1101REMMET063SPECI EDHK 071159Z 15005KT 2000 BR BKN001 00/M00 Q1010 RED RED;
0194100465999992011010712204+54367+010133FM-15+0031EDHK V0201601N003110009019N0023001N1+00001+00001999999ADDGA1041+000301999GA2071+000901999GA3071+012001999GF107991999999999999999999MA1100911999999MW1101REMMET087METAR EDHK 071220Z 16006KT 2300 BR SCT001 BKN003 BKN040 00/M00 Q1009 YLO YLO TEMPO RED;
0171100465999992011010712354+54367+010133FM-16+0031EDHK V0201501N003110003019N0014001N1+00001-00101999999ADDGA1071+000301999GA2071+012001999GF107991999999999999999999MA1100911999999MW1101REMMET080SPECI EDHK 071235Z 15006KT 1400 BR BKN001 BKN040 00/M01 Q1009 RED YLO TEMPO RED;
0172100465999992011010713204+54367+010133FM-15+0031EDHK V0201401N002110003019N0005001N1+00001-00101999999ADDED108U08009GA1071+000301999GF107991999999999999999999MA1100911999999MW1481REMMET086METAR EDHK 071320Z 14004KT 0500 R08/0800D FZFG BKN001 M00/M01 Q1009 RED YLO TEMPO RED;
0170100465999992011010714204+54367+010133FM-15+0031EDHK V0201601N002110003019N0005001N1+00001+00001999999ADDED108U12009GA1071+000301999GF107991999999999999999999MA1100911999999MW1481REMMET084METAR EDHK 071420Z 16004KT 0500 R08/1200U FZFG BKN001 M00/M00 Q1009 RED FCST CANCEL;
0156100465999992011010714324+54367+010133FM-16+0031EDHK V0201501N002110003019N0010001N1+00001-00101999999ADDED108U33009GA1071+000301999GF107991999999999999999999MA1100911999999MW1101REMMET070SPECI EDHK 071432Z 15004KT 1000 R08/3300U BR BKN001 M00/M01 Q1009 RED;
0156100465999992011010714434+54367+010133FM-16+0031EDHK V0201201N001510006019N0010001N1+00001-00101999999ADDED108U28009GA1071+000601999GF107991999999999999999999MA1100911999999MW1101REMMET070SPECI EDHK 071443Z 12003KT 1000 R08/2800D BR BKN002 M00/M01 Q1009 AMB;
0156100465999992011010715204+54367+010133FM-15+0031EDHK V0201301N001510006019N0014001N1+00001-00101999999ADDED108U47009GA1071+000601999GF107991999999999999999999MA1100911999999MW1101REMMET070METAR EDHK 071520Z 13003KT 1400 R08/4700N BR BKN002 M00/M01 Q1009 AMB;
0157100465999992011010716204+54367+010133FM-15+0031EDHK V0201201N002110012019N0020001N1+00101+00001999999ADDGA1071+001201999GA2071+018001999GF107991999999999999999999MA1100811999999MW1101REMMET066METAR EDHK 071620Z 12004KT 2000 BR BKN004 BKN060 01/M00 Q1008 YLO;
0179100465999992011010717204+54367+010133FM-15+0031EDHK V0201101N00261004501CN0022001N1+00101+00001999999ADDGA1041+001201999GA2041+004501999GA3071+011101999GF107991999999999999999999MA1100711999999MW1101REMMET072METAR EDHK 071720Z 11005KT 2200 BR SCT004 SCT015 BKN037 01/00 Q1007 YLO;
0189100465999992011010717384+54367+010133FM-16+0031EDHK V0201001N00311004501CN0030001N1+00101+00001999999ADDGA1041+001201999GA2041+004501999GA3071+011101999GF107991999999999999999999MA1100711999999MW1101MW2611REMMET076SPECI EDHK 071738Z 10006KT 3000 -RA BR SCT004 SCT015 BKN037 01/00 Q1007 YLO;
0166100465999992011010718204+54367+010133FM-15+0031EDHK V0201101N002610018019N0050001N1+00101+00101999999ADDGA1071+001801999GA2071+009001999GF107991999999999999999999MA1100711999999MW1101MW2511REMMET069METAR EDHK 071820Z 11005KT 5000 -DZ BR BKN006 BKN030 01/01 Q1007 YLO;
0133100465999992011010719204+54367+010133FM-15+0031EDHK V0201001N003610018019N0050001N1+00101+00001999999ADDGA1071+001801999GF107991999999999999999999MA1100611999999MW1101REMMET058METAR EDHK 071920Z 10007KT 5000 BR BKN006 01/00 Q1006 YLO;
0143100465999992011010720004+54367+010133FM-16+0031EDHK V0201001N003110009019N0025001N1+00101+00101999999ADDGA1071+000901999GF107991999999999999999999MA1100511999999MW1101MW2511REMMET062SPECI EDHK 072000Z 10006KT 2500 -DZ BR BKN003 01/01 Q1005 YLO;
0143100465999992011010720204+54367+010133FM-15+0031EDHK V0201001N003110009019N0030001N1+00101+00101999999ADDGA1071+000901999GF107991999999999999999999MA1100511999999MW1101MW2511REMMET062METAR EDHK 072020Z 10006KT 3000 -DZ BR BKN003 01/01 Q1005 YLO;
0124100465999992011010723204+54367+010133FM-15+0031EDHK V0201501N003610012019N0070001N1+00201+00101999999ADDGA1071+001201999GF107991999999999999999999MA1100411999999REMMET055METAR EDHK 072320Z 15007KT 7000 BKN004 02/01 Q1004 YLO;
0143100465999992011010800204+54367+010133FM-15+0031EDHK V0201401N002110003019N0025001N1+00201+00101999999ADDGA1071+000301999GF107991999999999999999999MA1100411999999MW1101MW2511REMMET062METAR EDHK 080020Z 14004KT 2500 -DZ BR BKN001 02/01 Q1004 RED;
0143100465999992011010801204+54367+010133FM-15+0031EDHK V0201601N003110003019N0025001N1+00301+00301999999ADDGA1071+000301999GF107991999999999999999999MA1100311999999MW1101MW2511REMMET062METAR EDHK 080120Z 16006KT 2500 -DZ BR BKN001 03/03 Q1003 RED;
0143100465999992011010802054+54367+010133FM-16+0031EDHK V0201701N002110003019N0009001N1+00301+00301999999ADDGA1071+000301999GF107991999999999999999999MA1100311999999MW1441MW2511REMMET062SPECI EDHK 080205Z 17004KT 0900 -DZ FG BKN001 03/03 Q1003 RED;
0132100465999992011010802204+54367+010133FM-15+0031EDHK V0201701N002610003019N0004001N1+00301+00301999999ADDGA1091+000301999GF109991999999000251999999MA1100311999999MW1451REMMET057METAR EDHK 080220Z 17005KT 0400 FG VV001 03/03 Q1003 RED;
0132100465999992011010803204+54367+010133FM-15+0031EDHK V0201601N002610001519N0002001N1+00401+00401999999ADDGA1091+000151999GF109991999999000251999999MA1100311999999MW1451REMMET057METAR EDHK 080320Z 16005KT 0200 FG VV000 04/04 Q1003 RED;
0132100465999992011010803544+54367+010133FM-16+0031EDHK V0201801N003110003019N0008001N1+00401+00401999999ADDGA1091+000301999GF109991999999000251999999MA1100311999999MW1451REMMET057SPECI EDHK 080354Z 18006KT 0800 FG VV001 04/04 Q1003 RED;
0132100465999992011010804204+54367+010133FM-15+0031EDHK V0201701N003110003019N0012001N1+00501+00501999999ADDGA1091+000301999GF109991999999000251999999MA1100201999999MW1101REMMET057METAR EDHK 080420Z 17006KT 1200 BR VV001 05/05 Q1002 RED;
0132100465999992011010804374+54367+010133FM-16+0031EDHK V0201801N002610003019N0005001N1+00501+00501999999ADDGA1091+000301999GF109991999999000251999999MA1100201999999MW1451REMMET057SPECI EDHK 080437Z 18005KT 0500 FG VV001 05/05 Q1002 RED;
0156100465999992011010805204+54367+010133FM-15+0031EDHK V0201801N003110009019N0012001N1+00501+00501999999ADDGA1071+000901999GA2071+005401999GF107991999999999999999999MA1100201999999MW1101REMMET065METAR EDHK 080520Z 18006KT 1200 BR BKN003 BKN018 05/05 Q1002 AMB;
0156100465999992011010806204+54367+010133FM-15+0031EDHK V0201701N002610012019N0015001N1+00601+00601999999ADDGA1071+001201999GA2071+012001999GF107991999999999999999999MA1100201999999MW1101REMMET065METAR EDHK 080620Z 17005KT 1500 BR BKN004 BKN040 06/06 Q1002 AMB;
0166100465999992011010807204+54367+010133FM-15+0031EDHK V0201801N003610015019N0020001N1+00601+00601999999ADDGA1071+001501999GA2071+013501999GF107991999999999999999999MA1100201999999MW1101MW2611REMMET069METAR EDHK 080720Z 18007KT 2000 -RA BR BKN005 BKN045 06/06 Q1002 YLO;
0166100465999992011010807284+54367+010133FM-16+0031EDHK V0201801N003110150019N0021001N1+00601+00601999999ADDGA1041+001501999GA2071+015001999GF107991999999999999999999MA1100201999999MW1101MW2611REMMET069SPECI EDHK 080728Z 18006KT 2100 -RA BR SCT005 BKN050 06/06 Q1002 YLO;
0156100465999992011010808204+54367+010133FM-15+0031EDHK V0201701N003110180019N0025001N1+00601+00501999999ADDGA1041+001501999GA2071+018001999GF107991999999999999999999MA1100101999999MW1101REMMET065METAR EDHK 080820Z 17006KT 2500 BR SCT005 BKN060 06/05 Q1001 YLO;
0133100465999992011010809034+54367+010133FM-16+0031EDHK V0201901N004110150019N0040001N1+00601+00501999999ADDGA1071+015001999GF107991999999999999999999MA1100101999999MW1101REMMET058SPECI EDHK 080903Z 19008KT 4000 BR BKN050 06/05 Q1001 GRN;
0133100465999992011010809204+54367+010133FM-15+0031EDHK V0201501N003110090019N0050001N1+00601+00501999999ADDGA1071+009001999GF107991999999999999999999MA1100101999999MW1101REMMET058METAR EDHK 080920Z 15006KT 5000 BR BKN030 06/05 Q1001 WHT;
0156100465999992011010810204+54367+010133FM-15+0031EDHK V0201701N003610360019N0050001N1+00601+00501999999ADDGA1021+002401999GA2071+036001999GF107991999999999999999999MA1100001999999MW1101REMMET065METAR EDHK 081020Z 17007KT 5000 BR FEW008 BKN120 06/05 Q1000 WHT;
0171100465999992011010811204+54367+010133FM-15+0031EDHK V0201701N00411036001CN0080001N1+00701+00601999999ADDGA1021+002401999GA2041+036001999GA3071+072001999GF107991999999999999999999MA1099901999999REMMET070METAR EDHK 081120Z 17008KT 8000 FEW008 SCT120 BKN240 07/06 Q0999 BLU/;
0171100465999992011010812204+54367+010133FM-15+0031EDHK V0201701N00361042001CN0112651N1+00801+00601999999ADDGA1021+003601999GA2041+042001999GA3071+066001999GF107991999999999999999999MA1099801999999REMMET070METAR EDHK 081220Z 17007KT 9999 FEW012 SCT140 BKN220 08/06 Q0998 BLU/;
0170100465999992011010813204+54367+010133FM-15+0031EDHK V0201801N005110420019N0112651N1+00901+00601999999ADDGA1041+012001999GA2071+042001999GA3071+066001999GF107991999999999999999999MA1099801999999REMMET069METAR EDHK 081320Z 18010KT 9999 SCT040 BKN140 BKN220 09/06 Q0998 BLU;
0170100465999992011010814204+54367+010133FM-15+0031EDHK V0201701N00461015001CN0112651N1+00901+00601999999ADDGA1021+003901999GA2041+015001999GA3071+036001999GF107991999999999999999999MA1099701999999REMMET069METAR EDHK 081420Z 17009KT 9999 FEW013 SCT050 BKN120 09/06 Q0997 BLU;
0170100465999992011010815204+54367+010133FM-15+0031EDHK V0201801N005110120019N0090001N1+00901+00601999999ADDGA1021+004501999GA2071+012001999GA3071+036001999GF107991999999999999999999MA1099701999999REMMET069METAR EDHK 081520Z 18010KT 9000 FEW015 BKN040 BKN120 09/06 Q0997 BLU;
0147100465999992011010816204+54367+010133FM-15+0031EDHK V0201901N006210150019N0070001N1+01001+00601999999ADDGA1041+012001999GA2071+015001999GF107991999999999999999999MA1099701999999REMMET062METAR EDHK 081620Z 19012KT 7000 SCT040 BKN055 10/06 Q0997 WHT;
0147100465999992011010817204+54367+010133FM-15+0031EDHK V0201901N005710150019N0112651N1+00901+00601999999ADDGA1041+010501999GA2071+015001999GF107991999999999999999999MA1099701999999REMMET062METAR EDHK 081720Z 19011KT 9999 SCT035 BKN055 09/06 Q0997 BLU;
0180100465999992011010818204+54367+010133FM-15+0031EDHK V0202101N00721007501CN0090001N1+00901+00601999999ADDGA1021+003001999GA2041+007501999GA3071+015001999GF107991999999999999999999MA1099801999999MW1611REMMET073METAR EDHK 081820Z 21014KT 9000 -RA FEW010 SCT025 BKN050 09/06 Q0998 BLU;
0166100465999992011010819204+54367+010133FM-15+0031EDHK V0202301N006210060019N0050001N1+00801+00601999999ADDGA1041+003001999GA2071+006001999GF107991999999999999999999MA1099901999999MW1101MW2611REMMET069METAR EDHK 081920Z 23012KT 5000 -RA BR SCT010 BKN020 08/06 Q0999 WHT;
0147100465999992011010820204+54367+010133FM-15+0031EDHK V0202301N007210048019N0112651N1+00801+00501999999ADDGA1071+004801999GA2071+012001999GF107991999999999999999999MA1100001999999REMMET062METAR EDHK 082020Z 23014KT 9999 BKN016 BKN040 08/05 Q1000 WHT;
0124100465999992011010820344+54367+010133FM-16+0031EDHK V0202401N007710030019N0112651N1+00701+00501999999ADDGA1071+003001999GF107991999999999999999999MA1100001999999REMMET055SPECI EDHK 082034Z 24015KT 9999 BKN010 07/05 Q1000 GRN;
0124100465999992011010821204+54367+010133FM-15+0031EDHK V0202401N007210045019N0090001N1+00501+00201999999ADDGA1071+004501999GF107991999999999999999999MA1100101999999REMMET055METAR EDHK 082120Z 24014KT 9000 BKN015 05/02 Q1001 WHT;
0125100465999992011010822204+54367+010133FM-15+0031EDHK V0202301N005712200019N0112651N1+00401+00201999999ADDGA1021+006001999GF102991999999999999999999MA1100201999999REMMET056METAR EDHK 082220Z 23011KT 9999 FEW020 04/02 Q1002 BLU/;
0125100465999992011010823204+54367+010133FM-15+0031EDHK V0202401N005712200019N0112651N1+00401+00101999999ADDGA1041+015001999GF104991999999999999999999MA1100201999999REMMET056METAR EDHK 082320Z 24011KT 9999 SCT050 04/01 Q1002 BLU/;
0125100465999992011010900204+54367+010133FM-15+0031EDHK V0202401N004112200019N0112651N1+00301+00101999999ADDGA1021+013501999GF102991999999999999999999MA1100201999999REMMET056METAR EDHK 090020Z 24008KT 9999 FEW045 03/01 Q1002 BLU/;
0147100465999992011010901204+54367+010133FM-15+0031EDHK V0202001N001510240019N0112651N1+00301+00101999999ADDGA1041+015001999GA2071+024001999GF107991999999999999999999MA1100311999999REMMET062METAR EDHK 090120Z 20003KT 9999 SCT050 BKN080 03/01 Q1003 BLU;
0124100465999992011010902204+54367+010133FM-15+0031EDHK V0201801N001510114019N0112651N1+00301+00101999999ADDGA1071+011401999GF107991999999999999999999MA1100201999999REMMET055METAR EDHK 090220Z 18003KT 9999 BKN038 03/01 Q1002 BLU;
0124100465999992011010903204+54367+010133FM-15+0031EDHK V0201801N002110099019N0112651N1+00301+00101999999ADDGA1071+009901999GF107991999999999999999999MA1100201999999REMMET055METAR EDHK 090320Z 18004KT 9999 BKN033 03/01 Q1002 BLU;
0147100465999992011010904204+54367+010133FM-15+0031EDHK V0202001N002110360019N0070001N1+00301+00101999999ADDGA1041+015001999GA2071+036001999GF107991999999999999999999MA1100201999999REMMET062METAR EDHK 090420Z 20004KT 7000 SCT050 BKN120 03/01 Q1002 WHT;
0147100465999992011010905204+54367+010133FM-15+0031EDHK V0202101N002610390019N0060001N1+00301+00201999999ADDGA1041+018001999GA2071+039001999GF107991999999999999999999MA1100201999999REMMET062METAR EDHK 090520Z 21005KT 6000 SCT060 BKN130 03/02 Q1002 WHT;
0170100465999992011010906204+54367+010133FM-15+0031EDHK V0202201N00261018001CN0070001N1+00301+00101999999ADDGA1041+006901999GA2041+018001999GA3071+039001999GF107991999999999999999999MA1100201999999REMMET069METAR EDHK 090620Z 22005KT 7000 SCT023 SCT060 BKN130 03/01 Q1002 WHT;
0147100465999992011010907204+54367+010133FM-15+0031EDHK V0202101N002110390019N0070001N1+00201+00101999999ADDGA1021+006001999GA2071+039001999GF107991999999999999999999MA1100311999999REMMET062METAR EDHK 090720Z 21004KT 7000 FEW020 BKN130 02/01 Q1003 WHT;
0171100465999992011010908204+54367+010133FM-15+0031EDHK V0202101N00361045001CN0080001N1+00201+00101999999ADDGA1021+018001999GA2041+045001999GA3071+069001999GF107991999999999999999999MA1100411999999REMMET070METAR EDHK 090820Z 21007KT 8000 FEW060 SCT150 BKN230 02/01 Q1004 BLU/;
0171100465999992011010909204+54367+010133FM-15+0031EDHK V0202101N00361036001CN0090001N1+00201+00101999999ADDGA1021+006001999GA2041+036001999GA3071+060001999GF107991999999999999999999MA1100411999999REMMET070METAR EDHK 090920Z 21007KT 9000 FEW020 SCT120 BKN200 02/01 Q1004 BLU/;
0148100465999992011010910204+54367+010133FM-15+0031EDHK V0202201N004610600019N0112651N1+00301+00101999999ADDGA1021+033001999GA2071+060001999GF107991999999999999999999MA1100411999999REMMET063METAR EDHK 091020Z 22009KT 9999 FEW110 BKN200 03/01 Q1004 BLU/;
0124100465999992011010911204+54367+010133FM-15+0031EDHK V0202201N006210045019N0112651N1+00401+00101999999ADDGA1071+004501999GF107991999999999999999999MA1100511999999REMMET055METAR EDHK 091120Z 22012KT 9999 BKN015 04/01 Q1005 WHT;
0124100465999992011010912204+54367+010133FM-15+0031EDHK V0202201N006210045019N0112651N1+00401+00101999999ADDGA1071+004501999GF107991999999999999999999MA1100511999999REMMET055METAR EDHK 091220Z 22012KT 9999 BKN015 04/01 Q1005 WHT;
0124100465999992011010913204+54367+010133FM-15+0031EDHK V0202301N005110066019N0112651N1+00401+00101999999ADDGA1071+006601999GF107991999999999999999999MA1100611999999REMMET055METAR EDHK 091320Z 23010KT 9999 BKN022 04/01 Q1006 WHT;
0124100465999992011010914204+54367+010133FM-15+0031EDHK V0202301N005110060019N0112651N1+00401+00001999999ADDGA1071+006001999GF107991999999999999999999MA1100711999999REMMET055METAR EDHK 091420Z 23010KT 9999 BKN020 04/00 Q1007 WHT;
0124100465999992011010915204+54367+010133FM-15+0031EDHK V0202301N006210054019N0112651N1+00401+00001999999ADDGA1071+005401999GF107991999999999999999999MA1100711999999REMMET055METAR EDHK 091520Z 23012KT 9999 BKN018 04/00 Q1007 WHT;
0124100465999992011010916204+54367+010133FM-15+0031EDHK V0202201N006710060019N0112651N1+00401+00001999999ADDGA1071+006001999GF107991999999999999999999MA1100811999999REMMET055METAR EDHK 091620Z 22013KT 9999 BKN020 04/00 Q1008 WHT;
0168100465999992011010917204+54367+010133FM-15+0031EDHK V0202401N006710045019N0112651N1+00301+00101999999ADDGA1071+004501999GA2071+009001999GF107991999999999999999999MA1100911999999MW1611OC101231REMMET069METAR EDHK 091720Z 24013G24KT 9999 -RA BKN015 BKN030 03/01 Q1009 WHT;
0148100465999992011010918204+54367+010133FM-15+0031EDHK V0202301N006712200019N0112651N1+00301+00101999999ADDGA1021+006001999GA2041+010501999GF104991999999999999999999MA1100911999999REMMET063METAR EDHK 091820Z 23013KT 9999 FEW020 SCT035 03/01 Q1009 BLU/;
0147100465999992011010919204+54367+010133FM-15+0031EDHK V0202301N007210099019N0112651N1+00301+00101999999ADDGA1021+004501999GA2071+009901999GF107991999999999999999999MA1101021999999REMMET062METAR EDHK 091920Z 23014KT 9999 FEW015 BKN033 03/01 Q1010 BLU;
0147100465999992011010920204+54367+010133FM-15+0031EDHK V0202401N006710090019N0112651N1+00301+00101999999ADDGA1041+003601999GA2071+009001999GF107991999999999999999999MA1101081999999REMMET062METAR EDHK 092020Z 24013KT 9999 SCT012 BKN030 03/01 Q1011 BLU;
0147100465999992011010921204+54367+010133FM-15+0031EDHK V0202401N005710084019N0112651N1+00301+00101999999ADDGA1021+003601999GA2071+008401999GF107991999999999999999999MA1101191999999REMMET062METAR EDHK 092120Z 24011KT 9999 FEW012 BKN028 03/01 Q1012 BLU;
0147100465999992011010922204+54367+010133FM-15+0031EDHK V0202401N004610120019N0112651N1+00301+00001999999ADDGA1021+003601999GA2071+012001999GF107991999999999999999999MA1101291999999REMMET062METAR EDHK 092220Z 24009KT 9999 FEW012 BKN040 03/00 Q1013 BLU;
0148100465999992011010923204+54367+010133FM-15+0031EDHK V0202301N005112200019N0112651N1+00201+00001999999ADDGA1021+003001999GA2041+009901999GF104991999999999999999999MA1101391999999REMMET063METAR EDHK 092320Z 23010KT 9999 FEW010 SCT033 02/00 Q1014 BLU/;
0148100465999992011011000204+54367+010133FM-15+0031EDHK V0202301N004112200019N0112651N1+00201+00001999999ADDGA1021+003001999GA2041+060001999GF104991999999999999999999MA1101391999999REMMET063METAR EDHK 100020Z 23008KT 9999 FEW010 SCT200 02/00 Q1014 BLU/;
0148100465999992011011001204+54367+010133FM-15+0031EDHK V0202201N003612200019N0112651N1+00201+00001999999ADDGA1041+002401999GA2041+011401999GF104991999999999999999999MA1101491999999REMMET063METAR EDHK 100120Z 22007KT 9999 SCT008 SCT038 02/00 Q1015 BLU/;
0121100465999992011011002074+54367+010133FM-16+0031EDHK V0202401N00411002401CN0090001N1+00201+00101999999ADDGA1071+002401999GA2041+011401999MA1101491999999REMMET062SPECI EDHK 100207Z 24008KT 9000 BKN008 SCT038 02/01 Q1015 GRN;
0121100465999992011011002084+54367+010133FM-16+0031EDHK V0202401N00411002401CN0090001N1+00201+00101999999ADDGA1071+002401999GA2041+010501999MA1101491999999REMMET062SPECI EDHK 100208Z 24008KT 9000 BKN008 SCT035 02/01 Q1015 GRN;
0124100465999992011011002204+54367+010133FM-15+0031EDHK V0202301N004110024019N0090001N1+00301+00101999999ADDGA1071+002401999GF107991999999999999999999MA1101591999999REMMET055METAR EDHK 100220Z 23008KT 9000 BKN008 03/01 Q1016 GRN;
0124100465999992011011003204+54367+010133FM-15+0031EDHK V0202301N005710027019N0090001N1+00301+00101999999ADDGA1071+002701999GF107991999999999999999999MA1101591999999REMMET055METAR EDHK 100320Z 23011KT 9000 BKN009 03/01 Q1016 GRN;
0124100465999992011011004204+54367+010133FM-15+0031EDHK V0202301N005710024019N0090001N1+00301+00101999999ADDGA1071+002401999GF107991999999999999999999MA1101691999999REMMET055METAR EDHK 100420Z 23011KT 9000 BKN008 03/01 Q1017 GRN;
0138100465999992011011005204+54367+010133FM-15+0031EDHK V0202301N004110018019N0090001N1+00201+00101999999ADDGA1071+001801999GF107991999999999999999999MA1101691999999REMMET069METAR EDHK 100520Z 23008KT 9000 BKN006 02/01 Q1017 YLO GRN TEMPO YLO;
0138100465999992011011006204+54367+010133FM-15+0031EDHK V0202301N004610021019N0090001N1+00201+00101999999ADDGA1071+002101999GF107991999999999999999999MA1101801999999REMMET069METAR EDHK 100620Z 23009KT 9000 BKN007 02/01 Q1018 GRN GRN TEMPO YLO;
0138100465999992011011006364+54367+010133FM-16+0031EDHK V0202501N003610018019N0090001N1+00201+00101999999ADDGA1071+001801999GF107991999999999999999999MA1101801999999REMMET069SPECI EDHK 100636Z 25007KT 9000 BKN006 02/01 Q1018 YLO GRN TEMPO YLO;
0138100465999992011011007204+54367+010133FM-15+0031EDHK V0202301N004110015019N0080001N1+00201+00101999999ADDGA1071+001501999GF107991999999999999999999MA1101901999999REMMET069METAR EDHK 100720Z 23008KT 8000 BKN005 02/01 Q1019 YLO GRN TEMPO YLO;
0138100465999992011011008204+54367+010133FM-15+0031EDHK V0202201N004110015019N0080001N1+00201+00101999999ADDGA1071+001501999GF107991999999999999999999MA1101901999999REMMET069METAR EDHK 100820Z 22008KT 8000 BKN005 02/01 Q1019 YLO GRN TEMPO YLO;
0147100465999992011011009204+54367+010133FM-15+0031EDHK V0202201N003610012019N0050001N1+00101+00001999999ADDGA1081+001201999GF108991999999999999999999MA1102001999999MW1101REMMET072METAR EDHK 100920Z 22007KT 5000 BR OVC004 01/00 Q1020 YLO GRN TEMPO YLO;
0147100465999992011011010004+54367+010133FM-15+0031EDHK V0202101N004110009019N0040001N1+00101+00001999999ADDGA1081+000901999GF108991999999999999999999MA1102001999999MW1101REMMET072SPECI EDHK 100957Z 21008KT 4000 BR OVC003 01/00 Q1020 YLO GRN TEMPO YLO;
0147100465999992011011010204+54367+010133FM-15+0031EDHK V0202101N003610009019N0028001N1+00101+00001999999ADDGA1081+000901999GF108991999999999999999999MA1102001999999MW1101REMMET072METAR EDHK 101020Z 21007KT 2800 BR OVC003 01/00 Q1020 YLO YLO TEMPO RED;
0147100465999992011011011204+54367+010133FM-15+0031EDHK V0202001N003110009019N0028001N1+00101+00001999999ADDGA1081+000901999GF108991999999999999999999MA1102001999999MW1101REMMET072METAR EDHK 101120Z 20006KT 2800 BR OVC003 01/00 Q1020 YLO YLO TEMPO RED;
0147100465999992011011012084+54367+010133FM-16+0031EDHK V0202101N004110006019N0020001N1+00101+00001999999ADDGA1081+000601999GF108991999999999999999999MA1102001999999MW1101REMMET072SPECI EDHK 101208Z 21008KT 2000 BR OVC002 01/00 Q1020 AMB YLO TEMPO RED;
0168100465999992011011012164+54367+010133FM-16+0031EDHK V0202101N003610006019N0014001N1+00101+00001999999ADDED126U17009GA1081+000601999GF108991999999999999999999MA1102001999999MW1101REMMET082SPECI EDHK 101216Z 21007KT 1400 R26/1700D BR OVC002 01/00 Q1020 AMB YLO TEMPO RED;
0168100465999992011011012204+54367+010133FM-15+0031EDHK V0202101N004110006019N0012001N1+00101+00001999999ADDED126U21009GA1081+000601999GF108991999999999999999999MA1102001999999MW1101REMMET082METAR EDHK 101220Z 21008KT 1200 R26/2100N BR OVC002 01/00 Q1020 AMB YLO TEMPO RED;
0168100465999992011011012494+54367+010133FM-16+0031EDHK V0202001N003610006019N0016001N1+00101+00001999999ADDED126U28009GA1081+000601999GF108991999999999999999999MA1102001999999MW1101REMMET082SPECI EDHK 101249Z 20007KT 1600 R26/2800N BR OVC002 01/00 Q1020 AMB YLO TEMPO RED;
0147100465999992011011013084+54367+010133FM-16+0031EDHK V0202001N003610009019N0030001N1+00101+00001999999ADDGA1081+000901999GF108991999999999999999999MA1102001999999MW1101REMMET072SPECI EDHK 101308Z 20007KT 3000 BR OVC003 01/00 Q1020 YLO YLO TEMPO RED;
0147100465999992011011013204+54367+010133FM-15+0031EDHK V0202001N004110012019N0035001N1+00101+00001999999ADDGA1081+001201999GF108991999999999999999999MA1102001999999MW1101REMMET072METAR EDHK 101320Z 20008KT 3500 BR OVC004 01/00 Q1020 YLO YLO TEMPO RED;
0170100465999992011011014204+54367+010133FM-15+0031EDHK V0202101N002610015019N0040001N1+00101+00001999999ADDGA1041+000901999GA2071+001501999GF107991999999999999999999MA1102001999999MW1101REMMET079METAR EDHK 101420Z 21005KT 4000 BR SCT003 BKN005 01/00 Q1020 YLO YLO TEMPO WHT;
0170100465999992011011015204+54367+010133FM-15+0031EDHK V0202101N003610018019N0040001N1+00101+00001999999ADDGA1041+000901999GA2071+001801999GF107991999999999999999999MA1102001999999MW1101REMMET079METAR EDHK 101520Z 21007KT 4000 BR SCT003 BKN006 01/00 Q1020 YLO YLO TEMPO WHT;
0171100465999992011011016204+54367+010133FM-15+0031EDHK V0201901N003610021019N0050001N1+00101+00001999999ADDGA1041+001501999GA2071+002101999GF107991999999999999999999MA1101901999999MW1101REMMET080METAR EDHK 101620Z 19007KT 5000 BR SCT005 BKN007 01/M00 Q1019 GRN YLO TEMPO WHT;
0159100465999992011011017204+54367+010133FM-15+0031EDHK V0201801N003110027019N0060001N1+00201+00001999999ADDGA1041+002101999GA2071+002701999GF107991999999999999999999MA1101901999999REMMET074METAR EDHK 101720Z 18006KT 6000 SCT007 BKN009 02/00 Q1019 GRN FCST CANCEL;
0157100465999992011011018204+54367+010133FM-15+0031EDHK V0201801N002612200019N0050001N1+00101+00001999999ADDGA1021+001801999GA2041+002701999GF104991999999999999999999MA1101901999999MW1101REMMET066METAR EDHK 101820Z 18005KT 5000 BR FEW006 SCT009 01/M00 Q1019 WHT;
0134100465999992011011019204+54367+010133FM-15+0031EDHK V0201801N003112200019N0050001N1+00101+00001999999ADDGA1021+030001999GF102991999999999999999999MA1101801999999MW1101REMMET059METAR EDHK 101920Z 18006KT 5000 BR FEW100 01/M00 Q1018 WHT;
0125100465999992011011020204+54367+010133FM-15+0031EDHK V0201701N003112200019N0060001N1+00101+00001999999ADDGA1021+030001999GF102991999999999999999999MA1101801999999REMMET056METAR EDHK 102020Z 17006KT 6000 FEW100 01/M00 Q1018 WHT;
0125100465999992011011021204+54367+010133FM-15+0031EDHK V0201601N003112200019N0060001N1+00101-00101999999ADDGA1021+060001999GF102991999999999999999999MA1101691999999REMMET056METAR EDHK 102120Z 16006KT 6000 FEW200 01/M01 Q1017 WHT;
0148100465999992011011022204+54367+010133FM-15+0031EDHK V0201701N002612200019N0060001N1+00101-00101999999ADDGA1021+030001999GA2041+060001999GF104991999999999999999999MA1101691999999REMMET063METAR EDHK 102220Z 17005KT 6000 FEW100 SCT200 01/M01 Q1017 WHT;
0125100465999992011011023204+54367+010133FM-15+0031EDHK V0201601N003112200019N0060001N1+00101-00201999999ADDGA1021+060001999GF102991999999999999999999MA1101691999999REMMET056METAR EDHK 102320Z 16006KT 6000 FEW200 01/M02 Q1017 WHT;
0125100465999992011011100204+54367+010133FM-15+0031EDHK V0201601N002612200019N0070001N1+00001-00201999999ADDGA1021+060001999GF102991999999999999999999MA1101591999999REMMET056METAR EDHK 110020Z 16005KT 7000 FEW200 00/M02 Q1016 WHT;
0126100465999992011011101204+54367+010133FM-15+0031EDHK V0201401N002112200019N0070001N1-00101-00201999999ADDGA1021+060001999GF102991999999999999999999MA1101491999999REMMET057METAR EDHK 110120Z 14004KT 7000 FEW200 M01/M02 Q1015 WHT;
0127100465999992011011102204+54367+010133FM-15+0031EDHK V0201401N003112200019N0080001N1-00101-00301999999ADDGA1021+060001999GF102991999999999999999999MA1101391999999REMMET058METAR EDHK 110220Z 14006KT 8000 FEW200 M01/M03 Q1014 BLU/;
0127100465999992011011103204+54367+010133FM-15+0031EDHK V0201501N003112200019N0080001N1-00101-00301999999ADDGA1021+060001999GF102991999999999999999999MA1101291999999REMMET058METAR EDHK 110320Z 15006KT 8000 FEW200 M01/M03 Q1013 BLU/;
0078100465999992011011104204+54367+010133FM-15+0031EDHK V0201501N003112200019N0080001N1-00201-00301999999ADDMA1101191999999REMMET051METAR EDHK 110420Z 15006KT 8000 M02/M03 Q1012 BLU/;
0141100465999992011011105204+54367+010133FM-15+0031EDHK V0201401N002112200019N0080001N1-00201-00301999999ADDGA1041+063001999GF104991999999999999999999MA1101081999999REMMET072METAR EDHK 110520Z 14004KT 8000 SCT210 M02/M03 Q1011 BLU/BLU/ TEMPO YLO;
0141100465999992011011105454+54367+010133FM-16+0031EDHK V0201501N003112200019N0080001N1-00201-00301999999ADDGA1041+063001999GF104991999999999999999999MA1101081999999REMMET072SPECI EDHK 110545Z 15006KT 8000 SCT210 M02/M03 Q1011 BLU/BLU/ TEMPO YLO;
0141100465999992011011106004+54367+010133FM-15+0031EDHK V0201501N003112200019N0060001N1-00201-00301999999ADDGA1041+060001999GF104991999999999999999999MA1101081999999REMMET072SPECI EDHK 110559Z 15006KT 6000 SCT200 M02/M03 Q1011 WHT BLU/ TEMPO YLO;
0141100465999992011011106204+54367+010133FM-15+0031EDHK V0201501N003612200019N0060001N1-00201-00301999999ADDGA1041+060001999GF104991999999999999999999MA1101021999999REMMET072METAR EDHK 110620Z 15007KT 6000 SCT200 M02/M03 Q1010 WHT BLU/ TEMPO YLO;
0150100465999992011011107004+54367+010133FM-15+0031EDHK V0201601N003610018019N0045001N1-00201-00301999999ADDGA1071+001801999GF107991999999999999999999MA1101021999999MW1101REMMET075SPECI EDHK 110659Z 16007KT 4500 BR BKN006 M02/M03 Q1010 YLO BLU/ TEMPO YLO;
0150100465999992011011107204+54367+010133FM-15+0031EDHK V0201601N003610015019N0035001N1-00101-00201999999ADDGA1071+001501999GF107991999999999999999999MA1101021999999MW1101REMMET075METAR EDHK 110720Z 16007KT 3500 BR BKN005 M01/M02 Q1010 YLO BLU/ TEMPO YLO;
0150100465999992011011108074+54367+010133FM-16+0031EDHK V0201601N003610018019N0040001N1-00101-00201999999ADDGA1071+001801999GF107991999999999999999999MA1100911999999MW1101REMMET075SPECI EDHK 110807Z 16007KT 4000 BR BKN006 M01/M02 Q1009 YLO BLU/ TEMPO YLO;
0150100465999992011011108204+54367+010133FM-15+0031EDHK V0201701N003610018019N0050001N1-00101-00201999999ADDGA1071+001801999GF107991999999999999999999MA1101021999999MW1101REMMET075METAR EDHK 110820Z 17007KT 5000 BR BKN006 M01/M02 Q1010 YLO BLU/ TEMPO YLO;
0141100465999992011011109204+54367+010133FM-15+0031EDHK V0201601N004610021019N0060001N1-00101-00201999999ADDGA1071+002101999GF107991999999999999999999MA1100911999999REMMET072METAR EDHK 110920Z 16009KT 6000 BKN007 M01/M02 Q1009 GRN BLU/ TEMPO YLO;
0141100465999992011011110204+54367+010133FM-15+0031EDHK V0201501N004110027019N0070001N1+00001-00301999999ADDGA1071+002701999GF107991999999999999999999MA1100811999999REMMET072METAR EDHK 111020Z 15008KT 7000 BKN009 M00/M03 Q1008 GRN BLU/ TEMPO YLO;
0164100465999992011011110474+54367+010133FM-16+0031EDHK V0201501N004610600019N0070001N1+00001-00301999999ADDGA1041+002701999GA2071+060001999GF107991999999999999999999MA1100711999999REMMET079SPECI EDHK 111047Z 15009KT 7000 SCT009 BKN200 M00/M03 Q1007 WHT BLU/ TEMPO YLO;
0140100465999992011011111204+54367+010133FM-15+0031EDHK V0201501N004610027019N0060001N1-00101-00301999999ADDGA1071+002701999GF107991999999999999999999MA1100711999999REMMET071METAR EDHK 111120Z 15009KT 6000 BKN009 M01/M03 Q1007 GRN BLU TEMPO GRN;
0140100465999992011011112204+54367+010133FM-15+0031EDHK V0201601N004610027019N0060001N1-00101-00301999999ADDGA1071+002701999GF107991999999999999999999MA1100611999999REMMET071METAR EDHK 111220Z 16009KT 6000 BKN009 M01/M03 Q1006 GRN BLU TEMPO GRN;
0140100465999992011011113204+54367+010133FM-15+0031EDHK V0201501N002610027019N0060001N1+00001-00201999999ADDGA1071+002701999GF107991999999999999999999MA1100511999999REMMET071METAR EDHK 111320Z 15005KT 6000 BKN009 M00/M02 Q1005 GRN BLU TEMPO GRN;
0139100465999992011011114204+54367+010133FM-15+0031EDHK V0201401N003110030019N0060001N1+00001-00201999999ADDGA1071+003001999GF107991999999999999999999MA1100411999999REMMET070METAR EDHK 111420Z 14006KT 6000 BKN010 00/M02 Q1004 GRN BLU TEMPO GRN;
0139100465999992011011115204+54367+010133FM-15+0031EDHK V0201501N003610030019N0060001N1+00001-00201999999ADDGA1071+003001999GF107991999999999999999999MA1100411999999REMMET070METAR EDHK 111520Z 15007KT 6000 BKN010 00/M02 Q1004 GRN BLU TEMPO GRN;
0186100465999992011011116204+54367+010133FM-15+0031EDHK V0201401N003110060019N0070001N1+00001-00201999999ADDGA1041+003001999GA2071+006001999GA3071+036001999GF107991999999999999999999MA1100411999999REMMET085METAR EDHK 111620Z 14006KT 7000 SCT010 BKN020 BKN120 M00/M02 Q1004 WHT BLU TEMPO GRN;
0183100465999992011011117204+54367+010133FM-15+0031EDHK V0201501N003610066019N0070001N1+00001-00201999999ADDGA1021+003001999GA2071+006601999GA3071+036001999GF107991999999999999999999MA1100311999999REMMET082METAR EDHK 111720Z 15007KT 7000 FEW010 BKN022 BKN120 00/M02 Q1003 WHT FCST CANCEL;
0167100465999992011011117434+54367+010133FM-16+0031EDHK V0201601N003110066019N0040001N1+00001-00101999999ADDGA1021+003001999GA2071+006601999GF107991999999999999999999MA1100311999999MW1101MW2711REMMET070SPECI EDHK 111743Z 16006KT 4000 -SN BR FEW010 BKN022 00/M01 Q1003 GRN;
0167100465999992011011118204+54367+010133FM-15+0031EDHK V0201601N003610063019N0035001N1+00001-00101999999ADDGA1041+003001999GA2071+006301999GF107991999999999999999999MA1100311999999MW1101MW2711REMMET070METAR EDHK 111820Z 16007KT 3500 -SN BR SCT010 BKN021 00/M01 Q1003 YLO;
0144100465999992011011119064+54367+010133FM-16+0031EDHK V0201701N003110015019N0030001N1+00101+00001999999ADDGA1071+001501999GF107991999999999999999999MA1100311999999MW1101MW2711REMMET063SPECI EDHK 111906Z 17006KT 3000 -SN BR BKN005 01/M00 Q1003 YLO;
0144100465999992011011119204+54367+010133FM-15+0031EDHK V0201701N003610015019N0030001N1+00101+00001999999ADDGA1071+001501999GF107991999999999999999999MA1100311999999MW1101MW2511REMMET063METAR EDHK 111920Z 17007KT 3000 -DZ BR BKN005 01/M00 Q1003 YLO;
0151100465999992011011119494+54367+010133FM-16+0031EDHK V0201801N003110015019N0028001N1+00101+00001999999ADDGA1071+001501999GF107991999999999999999999MA1100311999999MW1101MW2611MW3711REMMET064SPECI EDHK 111949Z 18006KT 2800 -RASN BR BKN005 01/00 Q1003 YLO;
0143100465999992011011120204+54367+010133FM-15+0031EDHK V0201901N003110012019N0037001N1+00101+00101999999ADDGA1071+001201999GF107991999999999999999999MA1100311999999MW1101MW2511REMMET062METAR EDHK 112020Z 19006KT 3700 -DZ BR BKN004 01/01 Q1003 YLO;
0143100465999992011011121204+54367+010133FM-15+0031EDHK V0202101N003610012019N0050001N1+00201+00101999999ADDGA1071+001201999GF107991999999999999999999MA1100311999999MW1101MW2511REMMET062METAR EDHK 112120Z 21007KT 5000 -DZ BR BKN004 02/01 Q1003 YLO;
0143100465999992011011121464+54367+010133FM-16+0031EDHK V0202101N004110012019N0040001N1+00201+00101999999ADDGA1071+001201999GF107991999999999999999999MA1100311999999MW1101MW2511REMMET062SPECI EDHK 112146Z 21008KT 4000 -DZ BR BKN004 02/01 Q1003 YLO;
0143100465999992011011122204+54367+010133FM-15+0031EDHK V0202301N004110009019N0028001N1+00201+00101999999ADDGA1081+000901999GF108991999999999999999999MA1100311999999MW1101MW2511REMMET062METAR EDHK 112220Z 23008KT 2800 -DZ BR OVC003 02/01 Q1003 YLO;
0143100465999992011011123204+54367+010133FM-15+0031EDHK V0202401N004610009019N0028001N1+00201+00101999999ADDGA1081+000901999GF108991999999999999999999MA1100311999999MW1101MW2511REMMET062METAR EDHK 112320Z 24009KT 2800 -DZ BR OVC003 02/01 Q1003 YLO;
0143100465999992011011200204+54367+010133FM-15+0031EDHK V0202401N005710009019N0028001N1+00201+00201999999ADDGA1081+000901999GF108991999999999999999999MA1100311999999MW1101MW2511REMMET062METAR EDHK 120020Z 24011KT 2800 -DZ BR OVC003 02/02 Q1003 YLO;
0156100465999992011011201204+54367+010133FM-15+0031EDHK V0202501N004610048019N0050001N1+00201+00201999999ADDGA1041+001201999GA2071+004801999GF107991999999999999999999MA1100411999999MW1101REMMET065METAR EDHK 120120Z 25009KT 5000 BR SCT004 BKN016 02/02 Q1004 WHT;
0147100465999992011011202204+54367+010133FM-15+0031EDHK V0202601N005110024019N0070001N1+00201+00101999999ADDGA1071+002401999GA2071+009001999GF107991999999999999999999MA1100511999999REMMET062METAR EDHK 120220Z 26010KT 7000 BKN008 BKN030 02/01 Q1005 GRN;
0147100465999992011011203204+54367+010133FM-15+0031EDHK V0202601N005710024019N0080001N1+00201+00101999999ADDGA1071+002401999GA2071+009001999GF107991999999999999999999MA1100611999999REMMET062METAR EDHK 120320Z 26011KT 8000 BKN008 BKN030 02/01 Q1006 GRN;
0148100465999992011011204204+54367+010133FM-15+0031EDHK V0202601N005712200019N0090001N1+00201+00101999999ADDGA1041+003301999GA2041+008401999GF104991999999999999999999MA1100711999999REMMET063METAR EDHK 120420Z 26011KT 9000 SCT011 SCT028 02/01 Q1007 BLU/;
0139100465999992011011205204+54367+010133FM-15+0031EDHK V0202501N005710075019N0112651N1+00301+00101999999ADDGA1071+007501999GF107991999999999999999999MA1100811999999REMMET070METAR EDHK 120520Z 25011KT 9999 BKN025 03/01 Q1008 BLU BLU/ TEMPO WHT;
0162100465999992011011206204+54367+010133FM-15+0031EDHK V0202501N006212200019N0112651N1+00301+00101999999ADDGA1021+003001999GA2041+006601999GF104991999999999999999999MA1100911999999REMMET077METAR EDHK 120620Z 25012KT 9999 FEW010 SCT022 03/01 Q1009 BLU/BLU/ TEMPO WHT;
0139100465999992011011207204+54367+010133FM-15+0031EDHK V0202601N005112200019N0112651N1+00301+00101999999ADDGA1021+003001999GF102991999999999999999999MA1100911999999REMMET070METAR EDHK 120720Z 26010KT 9999 FEW010 03/01 Q1009 BLU/BLU/ TEMPO WHT;
0139100465999992011011208204+54367+010133FM-15+0031EDHK V0202501N005112200019N0112651N1+00301+00101999999ADDGA1021+003001999GF102991999999999999999999MA1101021999999REMMET070METAR EDHK 120820Z 25010KT 9999 FEW010 03/01 Q1010 BLU/BLU/ TEMPO WHT;
0162100465999992011011209204+54367+010133FM-15+0031EDHK V0202401N005710069019N0112651N1+00301+00201999999ADDGA1021+003001999GA2071+006901999GF107991999999999999999999MA1101021999999REMMET077METAR EDHK 120920Z 24011KT 9999 FEW010 BKN023 03/02 Q1010 WHT BLU/ TEMPO WHT;
0161100465999992011011210024+54367+010133FM-16+0031EDHK V0202401N004610024019N0112651N1+00401+00201999999ADDGA1071+002401999GA2071+006001999GF107991999999999999999999MA1101081999999REMMET076SPECI EDHK 121002Z 24009KT 9999 BKN008 BKN020 04/02 Q1011 GRN BLU TEMPO YLO;
0138100465999992011011210204+54367+010133FM-15+0031EDHK V0202601N005110018019N0112651N1+00301+00201999999ADDGA1071+001801999GF107991999999999999999999MA1101081999999REMMET069METAR EDHK 121020Z 26010KT 9999 BKN006 03/02 Q1011 YLO BLU TEMPO YLO;
0138100465999992011011211204+54367+010133FM-15+0031EDHK V0202501N006210021019N0090001N1+00401+00201999999ADDGA1071+002101999GF107991999999999999999999MA1101021999999REMMET069METAR EDHK 121120Z 25012KT 9000 BKN007 04/02 Q1010 GRN BLU TEMPO YLO;
0138100465999992011011212204+54367+010133FM-15+0031EDHK V0202401N006210021019N0080001N1+00301+00201999999ADDGA1071+002101999GF107991999999999999999999MA1101081999999REMMET069METAR EDHK 121220Z 24012KT 8000 BKN007 03/02 Q1011 GRN BLU TEMPO YLO;
0138100465999992011011213204+54367+010133FM-15+0031EDHK V0202401N005110018019N0080001N1+00301+00201999999ADDGA1071+001801999GF107991999999999999999999MA1101081999999REMMET069METAR EDHK 121320Z 24010KT 8000 BKN006 03/02 Q1011 YLO BLU TEMPO YLO;
0138100465999992011011214204+54367+010133FM-15+0031EDHK V0202301N004110018019N0060001N1+00301+00201999999ADDGA1071+001801999GF107991999999999999999999MA1101081999999REMMET069METAR EDHK 121420Z 23008KT 6000 BKN006 03/02 Q1011 YLO BLU TEMPO YLO;
0161100465999992011011215054+54367+010133FM-16+0031EDHK V0202201N004110090019N0080001N1+00301+00101999999ADDGA1041+001801999GA2071+009001999GF107991999999999999999999MA1101021999999REMMET076SPECI EDHK 121505Z 22008KT 8000 SCT006 BKN030 03/01 Q1010 BLU BLU TEMPO YLO;
0184100465999992011011215204+54367+010133FM-15+0031EDHK V0202101N003610090019N0080001N1+00301+00101999999ADDGA1041+001801999GA2071+009001999GA3071+021001999GF107991999999999999999999MA1101021999999REMMET083METAR EDHK 121520Z 21007KT 8000 SCT006 BKN030 BKN070 03/01 Q1010 BLU BLU TEMPO YLO;
0161100465999992011011216204+54367+010133FM-15+0031EDHK V0202201N002610045019N0080001N1+00201+00101999999ADDGA1071+004501999GA2071+018001999GF107991999999999999999999MA1101021999999REMMET076METAR EDHK 121620Z 22005KT 8000 BKN015 BKN060 02/01 Q1010 WHT BLU TEMPO YLO;
0182100465999992011011217204+54367+010133FM-15+0031EDHK V0202001N002610150019N0090001N1+00201+00101999999ADDGA1041+004501999GA2071+015001999GA3071+024001999GF107991999999999999999999MA1100911999999REMMET081METAR EDHK 121720Z 20005KT 9000 SCT015 BKN050 BKN080 02/01 Q1009 BLU FCST CANCEL;
0170100465999992011011218204+54367+010133FM-15+0031EDHK V0202001N00211015001CN0090001N1+00201+00101999999ADDGA1021+004501999GA2041+015001999GA3071+027001999GF107991999999999999999999MA1100811999999REMMET069METAR EDHK 121820Z 20004KT 9000 FEW015 SCT050 BKN090 02/01 Q1008 BLU;
0124100465999992011011219204+54367+010133FM-15+0031EDHK V0201701N002110024019N0090001N1+00201+00101999999ADDGA1071+002401999GF107991999999999999999999MA1100811999999REMMET055METAR EDHK 121920Z 17004KT 9000 BKN008 02/01 Q1008 GRN;
0134100465999992011011220204+54367+010133FM-15+0031EDHK V0201601N002110015019N0060001N1+00201+00101999999ADDGA1071+001501999GF107991999999999999999999MA1100711999999MW1611REMMET059METAR EDHK 122020Z 16004KT 6000 -RA BKN005 02/01 Q1007 YLO;
0133100465999992011011221204+54367+010133FM-15+0031EDHK V0201501N002610012019N0035001N1+00201+00101999999ADDGA1071+001201999GF107991999999999999999999MA1100711999999MW1101REMMET058METAR EDHK 122120Z 15005KT 3500 BR BKN004 02/01 Q1007 YLO;
0133100465999992011011222204+54367+010133FM-15+0031EDHK V0201601N002110009019N0030001N1+00201+00101999999ADDGA1071+000901999GF107991999999999999999999MA1100611999999MW1101REMMET058METAR EDHK 122220Z 16004KT 3000 BR BKN003 02/01 Q1006 YLO;
0133100465999992011011223204+54367+010133FM-15+0031EDHK V0201501N002110009019N0030001N1+00201+00101999999ADDGA1071+000901999GF107991999999999999999999MA1100611999999MW1101REMMET058METAR EDHK 122320Z 15004KT 3000 BR BKN003 02/01 Q1006 YLO;
0133100465999992011011300204+54367+010133FM-15+0031EDHK V0201801N001510006019N0025001N1+00201+00201999999ADDGA1071+000601999GF107991999999999999999999MA1100611999999MW1101REMMET058METAR EDHK 130020Z 18003KT 2500 BR BKN002 02/02 Q1006 AMB;
0133100465999992011011301204+54367+010133FM-15+0031EDHK V0201601N001010006019N0014001N1+00201+00201999999ADDGA1071+000601999GF107991999999999999999999MA1100611999999MW1101REMMET058METAR EDHK 130120Z 16002KT 1400 BR BKN002 02/02 Q1006 AMB;
0132100465999992011011302204+54367+010133FM-15+0031EDHK V0201701N001510003019N0008001N1+00201+00201999999ADDGA1091+000301999GF109991999999000251999999MA1100611999999MW1451REMMET057METAR EDHK 130220Z 17003KT 0800 FG VV001 02/02 Q1006 RED;
0132100465999992011011303204+54367+010133FM-15+0031EDHK V0201601N001010003019N0006001N1+00301+00301999999ADDGA1091+000301999GF109991999999000251999999MA1100611999999MW1451REMMET057METAR EDHK 130320Z 16002KT 0600 FG VV001 03/03 Q1006 RED;
0132100465999992011011304204+54367+010133FM-15+0031EDHK V0201601N001010001519N0003001N1+00201+00201999999ADDGA1091+000151999GF109991999999000251999999MA1100611999999MW1451REMMET057METAR EDHK 130420Z 16002KT 0300 FG VV000 02/02 Q1006 RED;
0136100465999992011011305204+54367+010133FM-15+0031EDHK V0202001N001510001519N0004001N1+00301+00301999999ADDGA1091+000151999GF109991999999000251999999MA1100711999999MW1451REMMET061METAR EDHK 130520Z 20003KT 0400 FG VV000 03/03 Q1007 RED RED;
0157100465999992011011306204+54367+010133FM-15+0031EDHK V0201601N001010003019N0005001N1+00301+00301999999ADDED126U14009GA1091+000301999GF109991999999000251999999MA1100711999999MW1451REMMET071METAR EDHK 130620Z 16002KT 0500 R26/1400D FG VV001 03/03 Q1007 RED RED;
0157100465999992011011307204+54367+010133FM-15+0031EDHK V0201601N001010001519N0004001N1+00301+00301999999ADDED126U11009GA1091+000151999GF109991999999000251999999MA1100811999999MW1451REMMET071METAR EDHK 130720Z 16002KT 0400 R26/1100N FG VV000 03/03 Q1008 RED RED;
0157100465999992011011308204+54367+010133FM-15+0031EDHK V0201601N001510001519N0003001N1+00301+00301999999ADDED126U13009GA1091+000151999GF109991999999000251999999MA1100811999999MW1451REMMET071METAR EDHK 130820Z 16003KT 0300 R26/1300U FG VV000 03/03 Q1008 RED RED;
0167100465999992011011309204+54367+010133FM-15+0031EDHK V0201701N001510003019N0008001N1+00301+00301999999ADDED126U14009GA1091+000301999GF109991999999000251999999MA1100811999999MW1451REMMET081METAR EDHK 130920Z 17003KT 0800 R26/1400N FG VV001 03/03 Q1008 RED RED TEMPO YLO;
0168100465999992011011309414+54367+010133FM-16+0031EDHK V0201901N001510003019N0015001N1+00301+00301999999ADDED126U19009GA1081+000301999GF108991999999999999999999MA1100811999999MW1101REMMET082SPECI EDHK 130941Z 19003KT 1500 R26/1900N BR OVC001 03/03 Q1008 RED RED TEMPO YLO;
0168100465999992011011310204+54367+010133FM-15+0031EDHK V0201801N001010006019N0018001N1+00301+00301999999ADDED126U24009GA1081+000601999GF108991999999999999999999MA1100811999999MW1101REMMET082METAR EDHK 131020Z 18002KT 1800 R26/2400U BR OVC002 03/03 Q1008 AMB RED TEMPO YLO;
0224100465999992011011311204+54367+010133FM-15+0031EDHK V0201601N002110009019N0014001N1+00301+00301999999ADDED108U26009GA1021+000301999GA2071+000901999GA3071+003901999GF107991999999999999999999MA1100711999999MW1101MW2511REMMET100METAR EDHK 131120Z 16004KT 1400 R08/2600U -DZ BR FEW001 BKN003 BKN013 03/03 Q1007 AMB YLO TEMPO RED;
0191100465999992011011312204+54367+010133FM-15+0031EDHK V0201501N001510009019N0018001N1+00301+00301999999ADDED108U26009GA1021+000301999GA2071+000901999GF107991999999999999999999MA1100711999999MW1101REMMET089METAR EDHK 131220Z 15003KT 1800 R08/2600N BR FEW001 BKN003 03/03 Q1007 YLO YLO TEMPO RED;
0191100465999992011011312354+54367+010133FM-16+0031EDHK V0201701N001010006019N0018001N1+00301+00301999999ADDED108U28009GA1021+000301999GA2071+000601999GF107991999999999999999999MA1100711999999MW1101REMMET089SPECI EDHK 131235Z 17002KT 1800 R08/2800D BR FEW001 BKN002 03/03 Q1007 AMB YLO TEMPO RED;
0191100465999992011011313204+54367+010133FM-15+0031EDHK V0201401N001510006019N0014001N1+00301+00301999999ADDED108U37009GA1021+000301999GA2071+000601999GF107991999999999999999999MA1100611999999MW1101REMMET089METAR EDHK 131320Z 14003KT 1400 R08/3700N BR FEW001 BKN002 03/03 Q1006 AMB YLO TEMPO RED;
0167100465999992011011314004+54367+010133FM-15+0031EDHK V0201401N002110003019N0007001N1+00301+00301999999ADDED108U23009GA1091+000301999GF109991999999000251999999MA1100611999999MW1451REMMET081SPECI EDHK 131355Z 14004KT 0700 R08/2300D FG VV001 03/03 Q1006 RED YLO TEMPO RED;
0167100465999992011011314204+54367+010133FM-15+0031EDHK V0201401N002110003019N0005001N1+00301+00301999999ADDED108U16009GA1091+000301999GF109991999999000251999999MA1100611999999MW1451REMMET081METAR EDHK 131420Z 14004KT 0500 R08/1600N FG VV001 03/03 Q1006 RED YLO TEMPO RED;
0177100465999992011011315204+54367+010133FM-15+0031EDHK V0201101N002110003019N0005001N1+00301+00301999999ADDED108U44009GA1091+000301999GF109991999999000251999999MA1100511999999MW1451MW2611REMMET085METAR EDHK 131520Z 11004KT 0500 R08/4400U -RA FG VV001 03/03 Q1005 RED YLO TEMPO RED;
0178100465999992011011315294+54367+010133FM-16+0031EDHK V0201201N002110006019N0016001N1+00301+00301999999ADDED108U99999GA1071+000601999GF107991999999999999999999MA1100511999999MW1101MW2611REMMET086SPECI EDHK 131529Z 12004KT 1600 R08/6000U -RA BR BKN002 03/03 Q1005 AMB YLO TEMPO RED;
0162100465999992011011316204+54367+010133FM-15+0031EDHK V0201401N003110009019N0028001N1+00301+00301999999ADDGA1071+000901999GF107991999999999999999999MA1100511999999MW1101MW2611REMMET081METAR EDHK 131620Z 14006KT 2800 -RA BR BKN003 03/03 Q1005 RERA YLO YLO TEMPO RED;
0178100465999992011011317014+54367+010133FM-16+0031EDHK V0201401N003110012019N0028001N1+00301+00301999999ADDGA1071+001201999GA2071+005401999GF107991999999999999999999MA1100411999999MW1101MW2611REMMET081SPECI EDHK 131701Z 14006KT 2800 -RA BR BKN004 BKN018 03/03 Q1004 YLO FCST CANCEL;
0166100465999992011011317204+54367+010133FM-15+0031EDHK V0201501N002110012019N0028001N1+00301+00301999999ADDGA1071+001201999GA2071+004801999GF107991999999999999999999MA1100411999999MW1101MW2611REMMET069METAR EDHK 131720Z 15004KT 2800 -RA BR BKN004 BKN016 03/03 Q1004 YLO;
0166100465999992011011317284+54367+010133FM-16+0031EDHK V0201401N002610012019N0032001N1+00301+00301999999ADDGA1071+001201999GA2071+004501999GF107991999999999999999999MA1100411999999MW1101MW2611REMMET069SPECI EDHK 131728Z 14005KT 3200 -RA BR BKN004 BKN015 03/03 Q1004 YLO;
0151100465999992011011318204+54367+010133FM-15+0031EDHK V0201101N001510012019N0035001N1+00301+00301999999ADDGA1071+001201999GF107991999999999999999999MA1100411999999MW1101MW2511MW3611REMMET064METAR EDHK 131820Z 11003KT 3500 -DZRA BR BKN004 03/03 Q1004 YLO;
0143100465999992011011319204+54367+010133FM-15+0031EDHK V0201501N002610009019N0035001N1+00301+00301999999ADDGA1071+000901999GF107991999999999999999999MA1100311999999MW1101MW2511REMMET062METAR EDHK 131920Z 15005KT 3500 -DZ BR BKN003 03/03 Q1003 YLO;
0143100465999992011011320204+54367+010133FM-15+0031EDHK V0202201N003610006019N0030001N1+00401+00401999999ADDGA1071+000601999GF107991999999999999999999MA1100411999999MW1101MW2511REMMET062METAR EDHK 132020Z 22007KT 3000 -DZ BR BKN002 04/04 Q1004 AMB;
0132100465999992011011320424+54367+010133FM-16+0031EDHK V0202301N004610003019N0005001N1+00501+00501999999ADDGA1091+000301999GF109991999999000251999999MA1100411999999MW1451REMMET057SPECI EDHK 132042Z 23009KT 0500 FG VV001 05/05 Q1004 RED;
0133100465999992011011321074+54367+010133FM-16+0031EDHK V0202301N004110003019N0012001N1+00501+00501999999ADDGA1071+000301999GF107991999999999999999999MA1100411999999MW1101REMMET058SPECI EDHK 132107Z 23008KT 1200 BR BKN001 05/05 Q1004 RED;
0133100465999992011011321204+54367+010133FM-15+0031EDHK V0202301N004610006019N0030001N1+00501+00501999999ADDGA1071+000601999GF107991999999999999999999MA1100411999999MW1101REMMET058METAR EDHK 132120Z 23009KT 3000 BR BKN002 05/05 Q1004 AMB;
0132100465999992011011322114+54367+010133FM-16+0031EDHK V0202301N005110003019N0008001N1+00501+00501999999ADDGA1091+000301999GF109991999999000251999999MA1100411999999MW1451REMMET057SPECI EDHK 132211Z 23010KT 0800 FG VV001 05/05 Q1004 RED;
0142100465999992011011322204+54367+010133FM-15+0031EDHK V0202301N005110003019N0007001N1+00501+00501999999ADDGA1091+000301999GF109991999999000251999999MA1100411999999MW1451MW2511REMMET061METAR EDHK 132220Z 23010KT 0700 -DZ FG VV001 05/05 Q1004 RED;
0143100465999992011011323204+54367+010133FM-15+0031EDHK V0202401N004610009019N0020001N1+00601+00601999999ADDGA1071+000901999GF107991999999999999999999MA1100411999999MW1101MW2511REMMET062METAR EDHK 132320Z 24009KT 2000 -DZ BR BKN003 06/06 Q1004 YLO;
0133100465999992011011400204+54367+010133FM-15+0031EDHK V0202301N004610006019N0025001N1+00601+00601999999ADDGA1071+000601999GF107991999999999999999999MA1100511999999MW1101REMMET058METAR EDHK 140020Z 23009KT 2500 BR BKN002 06/06 Q1005 AMB;
0133100465999992011011401204+54367+010133FM-15+0031EDHK V0202401N004610003019N0012001N1+00501+00501999999ADDGA1071+000301999GF107991999999999999999999MA1100511999999MW1101REMMET058METAR EDHK 140120Z 24009KT 1200 BR BKN001 05/05 Q1005 RED;
0132100465999992011011402204+54367+010133FM-15+0031EDHK V0202401N004110003019N0005001N1+00501+00501999999ADDGA1091+000301999GF109991999999000251999999MA1100511999999MW1451REMMET057METAR EDHK 140220Z 24008KT 0500 FG VV001 05/05 Q1005 RED;
0132100465999992011011403204+54367+010133FM-15+0031EDHK V0202401N003110003019N0003001N1+00501+00501999999ADDGA1091+000301999GF109991999999000251999999MA1100511999999MW1451REMMET057METAR EDHK 140320Z 24006KT 0300 FG VV001 05/05 Q1005 RED;
0132100465999992011011404204+54367+010133FM-15+0031EDHK V0202301N003610003019N0006001N1+00501+00501999999ADDGA1091+000301999GF109991999999000251999999MA1100611999999MW1451REMMET057METAR EDHK 140420Z 23007KT 0600 FG VV001 05/05 Q1006 RED;
0136100465999992011011405204+54367+010133FM-15+0031EDHK V0202301N003610003019N0006001N1+00601+00601999999ADDGA1091+000301999GF109991999999000251999999MA1100611999999MW1451REMMET061METAR EDHK 140520Z 23007KT 0600 FG VV001 06/06 Q1006 RED RED;
0157100465999992011011406204+54367+010133FM-15+0031EDHK V0202301N004110003019N0007001N1+00601+00601999999ADDED126U21009GA1091+000301999GF109991999999000251999999MA1100611999999MW1451REMMET071METAR EDHK 140620Z 23008KT 0700 R26/2100D FG VV001 06/06 Q1006 RED RED;
0157100465999992011011407204+54367+010133FM-15+0031EDHK V0202401N004110003019N0006001N1+00601+00601999999ADDED126U22009GA1091+000301999GF109991999999000251999999MA1100611999999MW1451REMMET071METAR EDHK 140720Z 24008KT 0600 R26/2200N FG VV001 06/06 Q1006 RED RED;
0157100465999992011011408204+54367+010133FM-15+0031EDHK V0202401N003610003019N0006001N1+00601+00601999999ADDED126U15009GA1091+000301999GF109991999999000251999999MA1100611999999MW1451REMMET071METAR EDHK 140820Z 24007KT 0600 R26/1500N FG VV001 06/06 Q1006 RED RED;
0157100465999992011011409054+54367+010133FM-16+0031EDHK V0202301N002610001519N0002001N1+00601+00601999999ADDED126U07509GA1091+000151999GF109991999999000251999999MA1100611999999MW1451REMMET071SPECI EDHK 140905Z 23005KT 0200 R26/0750N FG VV000 06/06 Q1006 RED RED;
0167100465999992011011409204+54367+010133FM-15+0031EDHK V0202201N003110001519N0001001N1+00601+00601999999ADDED126U04009GA1091+000151999GF109991999999000251999999MA1100611999999MW1451MW2611REMMET075METAR EDHK 140920Z 22006KT 0100 R26/0400N -RA FG VV000 06/06 Q1006 RED RED;
0167100465999992011011410054+54367+010133FM-16+0031EDHK V0202201N002110003019N0007001N1+00701+00701999999ADDED126U12009GA1091+000301999GF109991999999000251999999MA1100611999999MW1451MW2611REMMET075SPECI EDHK 141005Z 22004KT 0700 R26/1200U -RA FG VV001 07/07 Q1006 RED RED;
0167100465999992011011410204+54367+010133FM-15+0031EDHK V0202301N002610003019N0012001N1+00701+00701999999ADDED126U32009GA1091+000301999GF109991999999000251999999MA1100611999999MW1101MW2611REMMET075METAR EDHK 141020Z 23005KT 1200 R26/3200U -RA BR VV001 07/07 Q1006 RED RED;
