0169101260999992015010100204+53548+007667FM-15+000899999V0202201N00361057911CN006000199+00101+00001999999ADDGA1021+006101999GA2041+057911999GE19MSL   +99999+99999GF199999021999006101999999MA1103201999999REMMET062METAR ETNT 010020Z 22007KT 6000 FEW020 SCT190 01/00 Q1032 WHT=
0155101260999992015010101204+53548+007667FM-15+000899999V0202201N005710061019N005000199+00201+00101999999ADDGA1071+006101999GE19MSL   +99999+99999GF199999071999006101999999MA1103101999999MW1101REMMET058METAR ETNT 010120Z 22011KT 5000 BR BKN020 02/01 Q1031 WHT=
0155101260999992015010102204+53548+007667FM-15+000899999V0202101N005110057919N005000199+00301+00201999999ADDGA1071+005791999GE19MSL   +99999+99999GF199999071999005791999999MA1103101999999MW1101REMMET058METAR ETNT 010220Z 21010KT 5000 BR BKN019 03/02 Q1031 WHT=
0178101260999992015010103204+53548+007667FM-15+000899999V0202201N00571060961CN005000199+00201+00101999999ADDGA1021+006101999GA2041+060961999GE19MSL   +99999+99999GF199999021999006101999999MA1103101999999MW1101REMMET065METAR ETNT 010320Z 22011KT 5000 BR FEW020 SCT200 02/01 Q1031 WHT=
0155101260999992015010104204+53548+007667FM-15+000899999V0202201N004619999999N005000199+00201+00101999999ADDGA1041+060961999GE19MSL   +99999+99999GF199999041999060961999999MA1103101999999MW1101REMMET058METAR ETNT 010420Z 22009KT 5000 BR SCT200 02/01 Q1031 WHT=
0178101260999992015010105204+53548+007667FM-15+000899999V0202201N005710609619N005000199+00201+00101999999ADDGA1021+002131999GA2071+060961999GE19MSL   +99999+99999GF199999021999002131999999MA1103001999999MW1101REMMET065METAR ETNT 010520Z 22011KT 5000 BR FEW007 BKN200 02/01 Q1030 WHT=
0178101260999992015010106204+53548+007667FM-15+000899999V0202101N00671060961CN005000199+00201+00101999999ADDGA1021+002131999GA2041+060961999GE19MSL   +99999+99999GF199999021999002131999999MA1103001999999MW1101REMMET065METAR ETNT 010620Z 21013KT 5000 BR FEW007 SCT200 02/01 Q1030 WHT=
0178101260999992015010107064+53548+007667FM-16+000899999V0202201N00571060961CN004000199+00201+00001999999ADDGA1021+002131999GA2041+060961999GE19MSL   +99999+99999GF199999021999002131999999MA1103001999999MW1101REMMET065SPECI ETNT 010706Z 22011KT 4000 BR FEW007 SCT200 02/00 Q1030 GRN=
0178101260999992015010107204+53548+007667FM-15+000899999V0202201N00621004881CN004000199+00201+00101999999ADDGA1021+002441999GA2041+004881999GE19MSL   +99999+99999GF199999021999002441999999MA1103001999999MW1101REMMET065METAR ETNT 010720Z 22012KT 4000 BR FEW008 SCT016 02/01 Q1030 GRN=
0155101260999992015010108204+53548+007667FM-15+000899999V0202201N006710030519N004000199+00201+00101999999ADDGA1071+003051999GE19MSL   +99999+99999GF199999071999003051999999MA1103001999999MW1101REMMET058METAR ETNT 010820Z 22013KT 4000 BR BKN010 02/01 Q1030 GRN=
0155101260999992015010109204+53548+007667FM-15+000899999V0202101N007710021319N004000199+00201+00101999999ADDGA1071+002131999GE19MSL   +99999+99999GF199999071999002131999999MA1103001999999MW1101REMMET058METAR ETNT 010920Z 21015KT 4000 BR BKN007 02/01 Q1030 GRN=
0155101260999992015010110204+53548+007667FM-15+000899999V0202201N007710021319N004000199+00301+00101999999ADDGA1071+002131999GE19MSL   +99999+99999GF199999071999002131999999MA1102901999999MW1101REMMET058METAR ETNT 011020Z 22015KT 4000 BR BKN007 03/01 Q1029 GRN=
0166101260999992015010111204+53548+007667FM-15+000899999V0202201N007210021319N004000199+00301+00101999999ADDGA1081+002131999GE19MSL   +99999+99999GF199999081999002131999999MA1102901999999MW1101OC101241REMMET061METAR ETNT 011120Z 22014G24KT 4000 BR OVC007 03/01 Q1029 GRN=
0155101260999992015010112204+53548+007667FM-15+000899999V0202201N006210027419N004000199+00401+00201999999ADDGA1081+002741999GE19MSL   +99999+99999GF199999081999002741999999MA1102801999999MW1101REMMET058METAR ETNT 011220Z 22012KT 4000 BR OVC009 04/02 Q1028 GRN=
0146101260999992015010112314+53548+007667FM-16+000899999V0202201N007210030519N006000199+00401+00201999999ADDGA1081+003051999GE19MSL   +99999+99999GF199999081999003051999999MA1102801999999REMMET055SPECI ETNT 011231Z 22014KT 6000 OVC010 04/02 Q1028 GRN=
0146101260999992015010113204+53548+007667FM-15+000899999V0202101N008210030519N006000199+00401+00201999999ADDGA1081+003051999GE19MSL   +99999+99999GF199999081999003051999999MA1102701999999REMMET055METAR ETNT 011320Z 21016KT 6000 OVC010 04/02 Q1027 GRN=
0157101260999992015010114204+53548+007667FM-15+000899999V0202201N008210027419N006000199+00401+00201999999ADDGA1081+002741999GE19MSL   +99999+99999GF199999081999002741999999MA1102701999999OC101391REMMET058METAR ETNT 011420Z 22016G27KT 6000 OVC009 04/02 Q1027 GRN=
0146101260999992015010115204+53548+007667FM-15+000899999V0202301N007710027419N006000199+00401+00201999999ADDGA1081+002741999GE19MSL   +99999+99999GF199999081999002741999999MA1102601999999REMMET055METAR ETNT 011520Z 23015KT 6000 OVC009 04/02 Q1026 GRN=
0146101260999992015010116204+53548+007667FM-15+000899999V0202201N008210030519N006000199+00401+00201999999ADDGA1081+003051999GE19MSL   +99999+99999GF199999081999003051999999MA1102501999999REMMET055METAR ETNT 011620Z 22016KT 6000 OVC010 04/02 Q1025 GRN=
0169101260999992015010117204+53548+007667FM-15+000899999V0202201N009310045719N008000199+00401+00101999999ADDGA1071+004571999GA2071+048771999GE19MSL   +99999+99999GF199999071999004571999999MA1102401999999REMMET062METAR ETNT 011720Z 22018KT 8000 BKN015 BKN160 04/01 Q1024 WHT=
0192101260999992015010118204+53548+007667FM-15+000899999V0202101N00981051821CN009999199+00301+00001999999ADDGA1021+004571999GA2041+051821999GA3071+054861999GE19MSL   +99999+99999GF199999021999004571999999MA1102301999999REMMET069METAR ETNT 011820Z 21019KT 9999 FEW015 SCT170 BKN180 03/00 Q1023 BLU=
0170101260999992015010119204+53548+007667FM-15+000899999V0202101N009810609619N009999199+00401+00001999999ADDGA1041+045721999GA2071+060961999GE19MSL   +99999+99999GF199999041999045721999999MA1102201999999REMMET063METAR ETNT 011920Z 21019KT 9999 SCT150 BKN200 04/00 Q1022 BLU+=
0180101260999992015010120204+53548+007667FM-15+000899999V0202101N010810335319N009999199+00401+00101999999ADDGA1071+033531999GA2071+060961999GE19MSL   +99999+99999GF199999071999033531999999MA1102101999999OC101651REMMET065METAR ETNT 012020Z 21021G32KT 9999 BKN110 BKN200 04/01 Q1021 BLU=
0180101260999992015010121204+53548+007667FM-15+000899999V0202101N011810304819N009999199+00501+00101999999ADDGA1071+030481999GA2071+060961999GE19MSL   +99999+99999GF199999071999030481999999MA1101901999999OC101701REMMET065METAR ETNT 012120Z 21023G33KT 9999 BKN100 BKN200 05/01 Q1019 BLU=
0218101260999992015010121454+53548+007667FM-16+000899999V0202201N011310182919N009000199+00501+00101999999ADDGA1041+006101999GA2071+018291999GA3081+027431999GE19MSL   +99999+99999GF199999041999006101999999MA1101901999999MW1611OC101801REMMET081SPECI ETNT 012145Z 22022G35KT 9000 -RA SCT020 BKN060 OVC090 05/01 Q1019      BLU=
0217101260999992015010122204+53548+007667FM-15+000899999V0202201N012410152419N006000199+00401+00201999999ADDGA1041+005491999GA2071+015241999GA3081+024381999GE19MSL   +99999+99999GF199999041999005491999999MA1101801999999MW1631OC101901REMMET080METAR ETNT 012220Z 22024G37KT 6000 RA SCT018 BKN050 OVC080 04/02 Q1018      WHT=
0215101260999992015010123204+53548+007667FM-15+000899999V0202201N011310152419N005000199+00401+00201999999ADDGA1021+005491999GA2071+015241999GA3081+024381999GE19MSL   +99999+99999GF199999021999005491999999MA1101701999999MW1101MW2631REMMET080METAR ETNT 012320Z 22022KT 5000 RA BR FEW018 BKN050 OVC080 04/02 Q1017      WHT=
0226101260999992015010200054+53548+007667FM-16+000899999V0202201N011310054919N004000199+00401+00201999999ADDGA1041+003351999GA2071+005491999GA3081+015241999GE19MSL   +99999+99999GF199999041999003351999999MA1101601999999MW1101MW2631OC101651REMMET083SPECI ETNT 020005Z 22022G32KT 4000 RA BR SCT011 BKN018 OVC050 04/02      Q1016 GRN=
0189101260999992015010200204+53548+007667FM-15+000899999V0202201N011310030519N006000199+00401+00301999999ADDGA1071+003051999GA2081+015241999GE19MSL   +99999+99999GF199999071999003051999999MA1101601999999MW1631OC101701REMMET068METAR ETNT 020020Z 22022G33KT 6000 RA BKN010 OVC050 04/03 Q1016 GRN=
0162101260999992015010201204+53548+007667FM-15+000899999V0202201N010810033519N009999199+00401+00301999999ADDGA1071+003351999GE19MSL   +99999+99999GF199999071999003351999999MA1101501999999OC101651REMMET063METAR ETNT 020120Z 22021G32KT 9999 BKN011 04/03 Q1015 RERA GRN=
0175101260999992015010202174+53548+007667FM-16+000899999V0202201N010810027419N003500199+00501+00401999999ADDGA1071+002741999GE19MSL   +99999+99999GF199999071999002741999999MA1101401999999MW1101MW2631OC101651REMMET064SPECI ETNT 020217Z 22021G32KT 3500 RA BR BKN009 05/04 Q1014 YLO=
0175101260999992015010202204+53548+007667FM-15+000899999V0202201N010810024419N003000199+00501+00401999999ADDGA1071+002441999GE19MSL   +99999+99999GF199999071999002441999999MA1101401999999MW1101MW2631OC101601REMMET064METAR ETNT 020220Z 22021G31KT 3000 RA BR BKN008 05/04 Q1014 YLO=
0172101260999992015010203174+53548+007667FM-16+000899999V0202301N011810024419N006000199+00601+00501999999ADDGA1071+002441999GE19MSL   +99999+99999GF199999071999002441999999MA1101301999999MW1611OC101851REMMET067SPECI ETNT 020317Z 23023G36KT 6000 -RA BKN008 06/05 Q1013 RERA GRN=
0172101260999992015010203204+53548+007667FM-15+000899999V0202301N011810024419N006000199+00601+00501999999ADDGA1071+002441999GE19MSL   +99999+99999GF199999071999002441999999MA1101301999999MW1611OC101851REMMET067METAR ETNT 020320Z 23023G36KT 6000 -RA BKN008 06/05 Q1013 RERA GRN=
0175101260999992015010203504+53548+007667FM-16+000899999V0202301N013410021319N003000199+00601+00501999999ADDGA1071+002131999GE19MSL   +99999+99999GF199999071999002131999999MA1101301999999MW1101MW2631OC101901REMMET064SPECI ETNT 020350Z 23026G37KT 3000 RA BR BKN007 06/05 Q1013 YLO=
0177101260999992015010204204+53548+007667FM-15+000899999V0202301N012410021319N003000199+00601+00501999999ADDGA1071+002131999GE19MSL   +99999+99999GF199999071999002131999999MA1101201999999MW1101MW2591OC101851REMMET066METAR ETNT 020420Z 23024G36KT 3000 RADZ BR BKN007 06/05 Q1012 YLO=
0188101260999992015010204484+53548+007667FM-16+000899999V0202301N012410021319N004500199+00601+00601999999ADDGA1071+002131999GE19MSL   +99999+99999GF199999071999002131999999MA1101201999999MW1101MW2581OC101751REMMET077SPECI ETNT 020448Z 23024G34KT 4500 -RADZ BR BKN007 06/06 Q1012 RERA      GRN=
0188101260999992015010205204+53548+007667FM-15+000899999V0202301N011810018319N004500199+00701+00601999999ADDGA1071+001831999GE19MSL   +99999+99999GF199999071999001831999999MA1101201999999MW1101MW2581OC101801REMMET077METAR ETNT 020520Z 23023G35KT 4500 -RADZ BR BKN006 07/06 Q1012 RERA      YLO=
0197101260999992015010206074+53548+007667FM-16+000899999V0202401N010310021319N006000199+00801+00701999999ADDGA1071+002131999GA2071+013721999GE19MSL   +99999+99999GF199999071999002131999999MA1101201999999MW1581OC101601REMMET076SPECI ETNT 020607Z 24020G31KT 6000 -RADZ BKN007 BKN045 08/07 Q1012      GRN=
0197101260999992015010206204+53548+007667FM-15+000899999V0202401N010810021319N009999199+00901+00701999999ADDGA1071+002131999GA2071+013721999GE19MSL   +99999+99999GF199999071999002131999999MA1101301999999MW1581OC101601REMMET076METAR ETNT 020620Z 24021G31KT 9999 -RADZ BKN007 BKN045 09/07 Q1013      GRN=
0208101260999992015010207084+53548+007667FM-16+000899999V0202501N011810045719N009999199+00901+00801999999ADDGA1041+002131999GA2071+004571999GA3071+012191999GE19MSL   +99999+99999GF199999041999002131999999MA1101301999999OC101901REMMET077SPECI ETNT 020708Z 25023G37KT 9999 SCT007 BKN015 BKN040 09/08 Q1013      WHT=
0192101260999992015010207204+53548+007667FM-15+000899999V0202601N011810045719N009999199+00901+00701999999ADDGA1021+002131999GA2071+004571999GA3071+015241999GE19MSL   +99999+99999GF199999021999002131999999MA1101401999999REMMET069METAR ETNT 020720Z 26023KT 9999 FEW007 BKN015 BKN050 09/07 Q1014 WHT=
0170101260999992015010208204+53548+007667FM-15+000899999V0202601N011810640119N009999199+00901+00501999999ADDGA1021+002441999GA2071+064011999GE19MSL   +99999+99999GF199999021999002441999999MA1101501999999REMMET063METAR ETNT 020820Z 26023KT 9999 FEW008 BKN210 09/05 Q1015 BLU+=
0181101260999992015010209204+53548+007667FM-15+000899999V0202801N010810640119N009999199+00801+00301999999ADDGA1021+007921999GA2071+064011999GE19MSL   +99999+99999GF199999021999007921999999MA1101601999999OC101701REMMET066METAR ETNT 020920Z 28021G33KT 9999 FEW026 BKN210 08/03 Q1016 BLU+=
0181101260999992015010209484+53548+007667FM-16+000899999V0202801N01131064011CN009999199+00801+00201999999ADDGA1021+007921999GA2041+064011999GE19MSL   +99999+99999GF199999021999007921999999MA1101701999999OC101651REMMET066SPECI ETNT 020948Z 28022G32KT 9999 FEW026 SCT210 08/02 Q1017 BLU+=
0181101260999992015010210204+53548+007667FM-15+000899999V0202801N01391064011CN009999199+00801+00101999999ADDGA1021+007921999GA2041+064011999GE19MSL   +99999+99999GF199999021999007921999999MA1101701999999OC101901REMMET066METAR ETNT 021020Z 28027G37KT 9999 FEW026 SCT210 08/01 Q1017 BLU+=
0147101260999992015010211204+53548+007667FM-15+000899999V0202801N012419999999N009999199+00801+00201999999ADDGA1021+010361999GE19MSL   +99999+99999GF199999021999010361999999MA1101801999999REMMET056METAR ETNT 021120Z 28024KT 9999 FEW034 08/02 Q1018 BLU+=
0170101260999992015010212204+53548+007667FM-15+000899999V0202701N01341011891CN009999199+00801+00201999999ADDGA1021+005491999GA2041+011891999GE19MSL   +99999+99999GF199999021999005491999999MA1101801999999REMMET063METAR ETNT 021220Z 27026KT 9999 FEW018 SCT039 08/02 Q1018 BLU+=
0180101260999992015010212284+53548+007667FM-16+000899999V0202801N012410118919N009999199+00801+00201999999ADDGA1021+005491999GA2071+011891999GE19MSL   +99999+99999GF199999021999005491999999MA1101901999999OC101801REMMET065SPECI ETNT 021228Z 28024G35KT 9999 FEW018 BKN039 08/02 Q1019 BLU=
0180101260999992015010213204+53548+007667FM-15+000899999V0202701N013410137219N009999199+00701+00201999999ADDGA1021+005491999GA2071+013721999GE19MSL   +99999+99999GF199999021999005491999999MA1101901999999OC101901REMMET065METAR ETNT 021320Z 27026G37KT 9999 FEW018 BKN045 07/02 Q1019 BLU=
0169101260999992015010214204+53548+007667FM-15+000899999V0202701N013410128019N009999199+00701+00201999999ADDGA1021+006101999GA2071+012801999GE19MSL   +99999+99999GF199999021999006101999999MA1102001999999REMMET062METAR ETNT 021420Z 27026KT 9999 FEW020 BKN042 07/02 Q1020 BLU=
0170101260999992015010215204+53548+007667FM-15+000899999V0202701N01341014941CN009999199+00701+00101999999ADDGA1021+006101999GA2041+014941999GE19MSL   +99999+99999GF199999021999006101999999MA1102001999999REMMET063METAR ETNT 021520Z 27026KT 9999 FEW020 SCT049 07/01 Q1020 BLU+=
0180101260999992015010216204+53548+007667FM-15+000899999V0202701N011810152419N009999199+00701+00201999999ADDGA1021+006101999GA2071+015241999GE19MSL   +99999+99999GF199999021999006101999999MA1102101999999OC101751REMMET065METAR ETNT 021620Z 27023G34KT 9999 FEW020 BKN050 07/02 Q1021 BLU=
0181101260999992015010217004+53548+007667FM-16+000899999V0202701N01341015241CN009999199+00701+00201999999ADDGA1021+006101999GA2041+015241999GE19MSL   +99999+99999GF199999021999006101999999MA1102201999999OC101851REMMET066SPECI ETNT 021700Z 27026G36KT 9999 FEW020 SCT050 07/02 Q1022 BLU+=
0198101260999992015010217204+53548+007667FM-15+000899999V0202701N01181015241CN009999199+00701+00201999999ADDGA1021+006101999GA2041+015241999GE19MSL   +99999+99999GF199999021999006101999999MA1102201999999MW1801OC101751REMMET077METAR ETNT 021720Z 27023G34KT 9999 -SHRA FEW020 SCT050 07/02 Q1022      BLU+=
0170101260999992015010218204+53548+007667FM-15+000899999V0202701N01081012191CN009999199+00601+00201999999ADDGA1041+006101999GA2041+012191999GE19MSL   +99999+99999GF199999041999006101999999MA1102201999999REMMET063METAR ETNT 021820Z 27021KT 9999 SCT020 SCT040 06/02 Q1022 BLU+=
0170101260999992015010219204+53548+007667FM-15+000899999V0202701N00981013721CN009999199+00601+00101999999ADDGA1021+006101999GA2041+013721999GE19MSL   +99999+99999GF199999021999006101999999MA1102301999999REMMET063METAR ETNT 021920Z 27019KT 9999 FEW020 SCT045 06/01 Q1023 BLU+=
0147101260999992015010220204+53548+007667FM-15+000899999V0202801N011319999999N009999199+00601+00101999999ADDGA1041+015241999GE19MSL   +99999+99999GF199999041999015241999999MA1102301999999REMMET056METAR ETNT 022020Z 28022KT 9999 SCT050 06/01 Q1023 BLU+=
0158101260999992015010221204+53548+007667FM-15+000899999V0202801N011319999999N009999199+00601+00101999999ADDGA1041+015241999GE19MSL   +99999+99999GF199999041999015241999999MA1102401999999OC101701REMMET059METAR ETNT 022120Z 28022G33KT 9999 SCT050 06/01 Q1024 BLU+=
0182101260999992015010222204+53548+007667FM-15+000899999V0202801N01131057911CN009999199+00601+00001999999ADDGA1021+015241999GA2041+057911999GE19MSL   +99999+99999GF199999021999015241999999MA1102401999999OC101651REMMET067METAR ETNT 022220Z 28022G32KT 9999 FEW050 SCT190 06/M00 Q1024 BLU+=
0170101260999992015010223204+53548+007667FM-15+000899999V0202701N00981060961CN009999199+00601+00101999999ADDGA1021+015241999GA2041+060961999GE19MSL   +99999+99999GF199999021999015241999999MA1102501999999REMMET063METAR ETNT 022320Z 27019KT 9999 FEW050 SCT200 06/01 Q1025 BLU+=
0181101260999992015010300204+53548+007667FM-15+000899999V0202701N00981057911CN009999199+00601+00101999999ADDGA1041+013721999GA2041+057911999GE19MSL   +99999+99999GF199999041999013721999999MA1102501999999OC101541REMMET066METAR ETNT 030020Z 27019G30KT 9999 SCT045 SCT190 06/01 Q1025 BLU+=
0170101260999992015010301204+53548+007667FM-15+000899999V0202601N00821060961CN009999199+00601+00201999999ADDGA1041+008231999GA2041+060961999GE19MSL   +99999+99999GF199999041999008231999999MA1102501999999REMMET063METAR ETNT 030120Z 26016KT 9999 SCT027 SCT200 06/02 Q1025 BLU+=
0170101260999992015010302204+53548+007667FM-15+000899999V0202601N00821057911CN009999199+00501+00201999999ADDGA1041+007321999GA2041+057911999GE19MSL   +99999+99999GF199999041999007321999999MA1102401999999REMMET063METAR ETNT 030220Z 26016KT 9999 SCT024 SCT190 05/02 Q1024 BLU+=
0170101260999992015010303204+53548+007667FM-15+000899999V0202401N00621057911CN009999199+00501+00201999999ADDGA1021+007321999GA2041+057911999GE19MSL   +99999+99999GF199999021999007321999999MA1102301999999REMMET063METAR ETNT 030320Z 24012KT 9999 FEW024 SCT190 05/02 Q1023 BLU+=
0147101260999992015010304204+53548+007667FM-15+000899999V0202401N007719999999N009999199+00401+00201999999ADDGA1041+057911999GE19MSL   +99999+99999GF199999041999057911999999MA1102201999999REMMET056METAR ETNT 030420Z 24015KT 9999 SCT190 04/02 Q1022 BLU+=
0147101260999992015010305204+53548+007667FM-15+000899999V0202401N007219999999N009999199+00401+00101999999ADDGA1041+064011999GE19MSL   +99999+99999GF199999041999064011999999MA1102101999999REMMET056METAR ETNT 030520Z 24014KT 9999 SCT210 04/01 Q1021 BLU+=
0147101260999992015010306204+53548+007667FM-15+000899999V0202301N007719999999N009999199+00401+00101999999ADDGA1041+064011999GE19MSL   +99999+99999GF199999041999064011999999MA1102001999999REMMET056METAR ETNT 030620Z 23015KT 9999 SCT210 04/01 Q1020 BLU+=
0146101260999992015010307204+53548+007667FM-15+000899999V0202401N007710548619N009999199+00401+00101999999ADDGA1071+054861999GE19MSL   +99999+99999GF199999071999054861999999MA1101901999999REMMET055METAR ETNT 030720Z 24015KT 9999 BKN180 04/01 Q1019 BLU=
0146101260999992015010308204+53548+007667FM-15+000899999V0202301N008810457219N009999199+00401+00101999999ADDGA1071+045721999GE19MSL   +99999+99999GF199999071999045721999999MA1101901999999REMMET055METAR ETNT 030820Z 23017KT 9999 BKN150 04/01 Q1019 BLU=
0146101260999992015010309204+53548+007667FM-15+000899999V0202401N008210457219N009999199+00501+00201999999ADDGA1071+045721999GE19MSL   +99999+99999GF199999071999045721999999MA1101801999999REMMET055METAR ETNT 030920Z 24016KT 9999 BKN150 05/02 Q1018 BLU=
0157101260999992015010310204+53548+007667FM-15+000899999V0202401N008210106719N009999199+00501+00201999999ADDGA1071+010671999GE19MSL   +99999+99999GF199999071999010671999999MA1101701999999OC101341REMMET058METAR ETNT 031020Z 24016G26KT 9999 BKN035 05/02 Q1017 BLU=
0146101260999992015010311204+53548+007667FM-15+000899999V0202401N008210054919N009999199+00501+00201999999ADDGA1071+005491999GE19MSL   +99999+99999GF199999071999005491999999MA1101601999999REMMET055METAR ETNT 031120Z 24016KT 9999 BKN018 05/02 Q1016 WHT=
0157101260999992015010312204+53548+007667FM-15+000899999V0202501N009310057919N009999199+00601+00301999999ADDGA1071+005791999GE19MSL   +99999+99999GF199999071999005791999999MA1101501999999OC101491REMMET058METAR ETNT 031220Z 25018G29KT 9999 BKN019 06/03 Q1015 WHT=
0146101260999992015010313204+53548+007667FM-15+000899999V0202501N008810051819N009999199+00601+00301999999ADDGA1071+005181999GE19MSL   +99999+99999GF199999071999005181999999MA1101501999999REMMET055METAR ETNT 031320Z 25017KT 9999 BKN017 06/03 Q1015 WHT=
0180101260999992015010314204+53548+007667FM-15+000899999V0202501N008810076219N009999199+00501+00301999999ADDGA1041+004571999GA2071+007621999GE19MSL   +99999+99999GF199999041999004571999999MA1101401999999OC101441REMMET065METAR ETNT 031420Z 25017G28KT 9999 SCT015 BKN025 05/03 Q1014 BLU=
0189101260999992015010315204+53548+007667FM-15+000899999V0202501N007710076219N009999199+00501+00301999999ADDGA1041+004271081GA2071+007621999GE19MSL   +99999+99999GF199999041999004271999999MA1101401999999MW1801REMMET076METAR ETNT 031520Z 25015KT 9999 -SHRA SCT014TCU BKN025 05/03 Q1014      BLU=
0195101260999992015010316204+53548+007667FM-15+000899999V0202601N007210054919N005000199+00401+00301999999ADDGA1041+002741081GA2071+005491999GE19MSL   +99999+99999GF199999041999002741999999MA1101401999999MW1101MW2631REMMET076METAR ETNT 031620Z 26014KT 5000 RA BR SCT009TCU BKN018 04/03 Q1014      WHT=
0189101260999992015010317204+53548+007667FM-15+000899999V0202801N006210045719N008000199+00501+00401999999ADDGA1041+002741999GA2071+004571999GE19MSL   +99999+99999GF199999041999002741999999MA1101401999999MW1611REMMET076METAR ETNT 031720Z 28012KT 8000 -RA SCT009 BKN015 05/04 Q1014 RERA      WHT=
0192101260999992015010318204+53548+007667FM-15+000899999V0202801N00411009751CN009999199+00401+00301999999ADDGA1021+003051999GA2041+009751999GA3071+015241999GE19MSL   +99999+99999GF199999021999003051999999MA1101401999999REMMET069METAR ETNT 031820Z 28008KT 9999 FEW010 SCT032 BKN050 04/03 Q1014 BLU=
0147101260999992015010319204+53548+007667FM-15+000899999V0203001N004619999999N009999199+00401+00101999999ADDGA1021+009751999GE19MSL   +99999+99999GF199999021999009751999999MA1101501999999REMMET056METAR ETNT 031920Z 30009KT 9999 FEW032 04/01 Q1015 BLU+=
0170101260999992015010320204+53548+007667FM-15+000899999V0203001N00511015241CN009999199+00401+00001999999ADDGA1021+009751999GA2041+015241999GE19MSL   +99999+99999GF199999021999009751999999MA1101601999999REMMET063METAR ETNT 032020Z 30010KT 9999 FEW032 SCT050 04/00 Q1016 BLU+=
0158101260999992015010321204+53548+007667FM-15+000899999V0203201N006219999999N009999199+00501+00001999999ADDGA1021+009751999GE19MSL   +99999+99999GF199999021999009751999999MA1101701999999OC101131REMMET059METAR ETNT 032120Z 32012G22KT 9999 FEW032 05/00 Q1017 BLU+=
0147101260999992015010322204+53548+007667FM-15+000899999V0202901N005719999999N009999199+00401+00101999999ADDGA1021+007321999GE19MSL   +99999+99999GF199999021999007321999999MA1101801999999REMMET056METAR ETNT 032220Z 29011KT 9999 FEW024 04/01 Q1018 BLU+=
0182101260999992015010323204+53548+007667FM-15+000899999V0203001N00571015241CN009999199+00501+00101999999ADDGA1021+007921999GA2041+015241999GE19MSL   +99999+99999GF199999021999007921999999MA1101901999999MW1801REMMET069METAR ETNT 032320Z 30011KT 9999 -SHRA FEW026 SCT050 05/01 Q1019 BLU+=
0170101260999992015010400204+53548+007667FM-15+000899999V0203001N00571012501CN009999199+00501+00201999999ADDGA1021+007921999GA2041+012501999GE19MSL   +99999+99999GF199999021999007921999999MA1102001999999REMMET063METAR ETNT 040020Z 30011KT 9999 FEW026 SCT041 05/02 Q1020 BLU+=
0170101260999992015010401204+53548+007667FM-15+000899999V0203001N00571014021CN009999199+00501+00101999999ADDGA1021+007621999GA2041+014021999GE19MSL   +99999+99999GF199999021999007621999999MA1102101999999REMMET063METAR ETNT 040120Z 30011KT 9999 FEW025 SCT046 05/01 Q1021 BLU+=
0170101260999992015010402204+53548+007667FM-15+000899999V0203001N00511013411CN009999199+00501+00201999999ADDGA1021+007011999GA2041+013411999GE19MSL   +99999+99999GF199999021999007011999999MA1102201999999REMMET063METAR ETNT 040220Z 30010KT 9999 FEW023 SCT044 05/02 Q1022 BLU+=
0147101260999992015010403204+53548+007667FM-15+000899999V0203001N005719999999N009999199+00401+00101999999ADDGA1021+007011999GE19MSL   +99999+99999GF199999021999007011999999MA1102301999999REMMET056METAR ETNT 040320Z 30011KT 9999 FEW023 04/01 Q1023 BLU+=
0147101260999992015010404204+53548+007667FM-15+000899999V0203101N005719999999N009999199+00501+00201999999ADDGA1021+007621999GE19MSL   +99999+99999GF199999021999007621999999MA1102301999999REMMET056METAR ETNT 040420Z 31011KT 9999 FEW025 05/02 Q1023 BLU+=
0147101260999992015010405204+53548+007667FM-15+000899999V0203101N005719999999N009999199+00501+00101999999ADDGA1021+007621999GE19MSL   +99999+99999GF199999021999007621999999MA1102401999999REMMET056METAR ETNT 040520Z 31011KT 9999 FEW025 05/01 Q1024 BLU+=
0147101260999992015010406204+53548+007667FM-15+000899999V0203101N007219999999N009999199+00501+00101999999ADDGA1021+007621999GE19MSL   +99999+99999GF199999021999007621999999MA1102501999999REMMET056METAR ETNT 040620Z 31014KT 9999 FEW025 05/01 Q1025 BLU+=
0170101260999992015010407204+53548+007667FM-15+000899999V0203301N00361013721CN009999199+00401+00101999999ADDGA1021+007621999GA2041+013721999GE19MSL   +99999+99999GF199999021999007621999999MA1102601999999REMMET063METAR ETNT 040720Z 33007KT 9999 FEW025 SCT045 04/01 Q1026 BLU+=
0170101260999992015010408204+53548+007667FM-15+000899999V0203101N00571012191CN009999199+00501+00101999999ADDGA1021+007621999GA2041+012191999GE19MSL   +99999+99999GF199999021999007621999999MA1102701999999REMMET063METAR ETNT 040820Z 31011KT 9999 FEW025 SCT040 05/01 Q1027 BLU+=
0147101260999992015010409204+53548+007667FM-15+000899999V0203001N004619999999N009999199+00501+00101999999ADDGA1021+007621999GE19MSL   +99999+99999GF199999021999007621999999MA1102801999999REMMET056METAR ETNT 040920Z 30009KT 9999 FEW025 05/01 Q1028 BLU+=
0147101260999992015010410204+53548+007667FM-15+000899999V0203101N005119999999N009999199+00601+00201999999ADDGA1021+007621999GE19MSL   +99999+99999GF199999021999007621999999MA1102801999999REMMET056METAR ETNT 041020Z 31010KT 9999 FEW025 06/02 Q1028 BLU+=
0170101260999992015010411204+53548+007667FM-15+000899999V0203101N00511012191CN009999199+00501+00101999999ADDGA1021+007621999GA2041+012191999GE19MSL   +99999+99999GF199999021999007621999999MA1102901999999REMMET063METAR ETNT 041120Z 31010KT 9999 FEW025 SCT040 05/01 Q1029 BLU+=
0147101260999992015010412204+53548+007667FM-15+000899999V0203001N005719999999N009999199+00601+00201999999ADDGA1021+007621999GE19MSL   +99999+99999GF199999021999007621999999MA1103001999999REMMET056METAR ETNT 041220Z 30011KT 9999 FEW025 06/02 Q1030 BLU+=
0170101260999992015010413204+53548+007667FM-15+000899999V0203001N00461012191CN009999199+00601+00201999999ADDGA1021+007621999GA2041+012191999GE19MSL   +99999+99999GF199999021999007621999999MA1103001999999REMMET063METAR ETNT 041320Z 30009KT 9999 FEW025 SCT040 06/02 Q1030 BLU+=
0147101260999992015010414204+53548+007667FM-15+000899999V0203001N004619999999N009999199+00601+00201999999ADDGA1021+007621999GE19MSL   +99999+99999GF199999021999007621999999MA1103001999999REMMET056METAR ETNT 041420Z 30009KT 9999 FEW025 06/02 Q1030 BLU+=
0170101260999992015010415204+53548+007667FM-15+000899999V0202801N00461057911CN009999199+00401+00301999999ADDGA1021+007621999GA2041+057911999GE19MSL   +99999+99999GF199999021999007621999999MA1103101999999REMMET063METAR ETNT 041520Z 28009KT 9999 FEW025 SCT190 04/03 Q1031 BLU+=
0147101260999992015010416204+53548+007667FM-15+000899999V0202801N004619999999N009999199+00401+00201999999ADDGA1021+007621999GE19MSL   +99999+99999GF199999021999007621999999MA1103101999999REMMET056METAR ETNT 041620Z 28009KT 9999 FEW025 04/02 Q1031 BLU+=
0147101260999992015010417204+53548+007667FM-15+000899999V0202601N003619999999N009999199+00401+00201999999ADDGA1021+006101999GE19MSL   +99999+99999GF199999021999006101999999MA1103101999999REMMET056METAR ETNT 041720Z 26007KT 9999 FEW020 04/02 Q1031 BLU+=
0147101260999992015010418204+53548+007667FM-15+000899999V0202801N004619999999N009999199+00401+00201999999ADDGA1041+010671999GE19MSL   +99999+99999GF199999041999010671999999MA1103201999999REMMET056METAR ETNT 041820Z 28009KT 9999 SCT035 04/02 Q1032 BLU+=
0147101260999992015010419204+53548+007667FM-15+000899999V0202601N004119999999N009999199+00401+00201999999ADDGA1041+010671999GE19MSL   +99999+99999GF199999041999010671999999MA1103201999999REMMET056METAR ETNT 041920Z 26008KT 9999 SCT035 04/02 Q1032 BLU+=
0146101260999992015010420204+53548+007667FM-15+000899999V0202601N004610118919N009999199+00401+00201999999ADDGA1071+011891999GE19MSL   +99999+99999GF199999071999011891999999MA1103201999999REMMET055METAR ETNT 042020Z 26009KT 9999 BKN039 04/02 Q1032 BLU=
0147101260999992015010421204+53548+007667FM-15+000899999V0202501N003619999999N009999199+00301+00201999999ADDGA1021+011891999GE19MSL   +99999+99999GF199999021999011891999999MA1103201999999REMMET056METAR ETNT 042120Z 25007KT 9999 FEW039 03/02 Q1032 BLU+=
0147101260999992015010422204+53548+007667FM-15+000899999V0202601N005719999999N009999199+00301+00101999999ADDGA1021+011891999GE19MSL   +99999+99999GF199999021999011891999999MA1103101999999REMMET056METAR ETNT 042220Z 26011KT 9999 FEW039 03/01 Q1031 BLU+=
0147101260999992015010423204+53548+007667FM-15+000899999V0202501N005119999999N009999199+00301+00201999999ADDGA1021+011891999GE19MSL   +99999+99999GF199999021999011891999999MA1103101999999REMMET056METAR ETNT 042320Z 25010KT 9999 FEW039 03/02 Q1031 BLU+=
0147101260999992015010500204+53548+007667FM-15+000899999V0202601N006219999999N009999199+00301+00101999999ADDGA1041+011891999GE19MSL   +99999+99999GF199999041999011891999999MA1103101999999REMMET056METAR ETNT 050020Z 26012KT 9999 SCT039 03/01 Q1031 BLU+=
0147101260999992015010501204+53548+007667FM-15+000899999V0202501N004119999999N009999199+00201+00101999999ADDGA1041+011891999GE19MSL   +99999+99999GF199999041999011891999999MA1103101999999REMMET056METAR ETNT 050120Z 25008KT 9999 SCT039 02/01 Q1031 BLU+=
0147101260999992015010502204+53548+007667FM-15+000899999V0202501N003619999999N009999199+00201+00001999999ADDGA1041+064011999GE19MSL   +99999+99999GF199999041999064011999999MA1103101999999REMMET056METAR ETNT 050220Z 25007KT 9999 SCT210 02/00 Q1031 BLU+=
0147101260999992015010503204+53548+007667FM-15+000899999V0202501N003619999999N009999199+00201+00001999999ADDGA1041+064011999GE19MSL   +99999+99999GF199999041999064011999999MA1103001999999REMMET056METAR ETNT 050320Z 25007KT 9999 SCT210 02/00 Q1030 BLU+=
0148101260999992015010504204+53548+007667FM-15+000899999V0202401N003619999999N009999199+00201+00001999999ADDGA1021+060961999GE19MSL   +99999+99999GF199999021999060961999999MA1103001999999REMMET057METAR ETNT 050420Z 24007KT 9999 FEW200 02/M00 Q1030 BLU+=
0167101260999992015010505204+53548+007667FM-15+000899999V0202401N004119999999N009999199+00101+00001999999ADDGA1021+060961999GE19MSL   +99999+99999GF199999021999060961999999MA1103001999999REMMET076METAR ETNT 050520Z 24008KT 9999 FEW200 01/M00 Q1030 BLU+BLU+ BECMG      GRN=
0160101260999992015010506204+53548+007667FM-15+000899999V0202401N003610042719N007000199+00201+00101999999ADDGA1071+004271999GE19MSL   +99999+99999GF199999071999004271999999MA1103001999999REMMET069METAR ETNT 050620Z 24007KT 7000 BKN014 02/01 Q1030 GRN GRN TEMPO YLO=
0197101260999992015010507204+53548+007667FM-15+000899999V0202401N004610042719N005000199+00301+00201999999ADDGA1021+002131999GA2071+004271999GE19MSL   +99999+99999GF199999021999002131999999MA1103001999999MW1101REMMET084METAR ETNT 050720Z 24009KT 5000 BR FEW007 BKN014 03/02 Q1030 GRN GRN      TEMPO YLO=
0188101260999992015010508204+53548+007667FM-15+000899999V0202501N004610048819N007000199+00401+00201999999ADDGA1021+002441999GA2071+004881999GE19MSL   +99999+99999GF199999021999002441999999MA1103001999999REMMET081METAR ETNT 050820Z 25009KT 7000 FEW008 BKN016 04/02 Q1030 WHT WHT TEMPO      YLO=
0160101260999992015010509204+53548+007667FM-15+000899999V0202501N004610057919N009999199+00401+00201999999ADDGA1071+005791999GE19MSL   +99999+99999GF199999071999005791999999MA1102901999999REMMET069METAR ETNT 050920Z 25009KT 9999 BKN019 04/02 Q1029 WHT WHT TEMPO GRN=
0160101260999992015010510204+53548+007667FM-15+000899999V0202501N004610061019N009999199+00401+00301999999ADDGA1071+006101999GE19MSL   +99999+99999GF199999071999006101999999MA1102901999999REMMET069METAR ETNT 051020Z 25009KT 9999 BKN020 04/03 Q1029 WHT WHT TEMPO GRN=
0160101260999992015010511204+53548+007667FM-15+000899999V0202501N005110067119N009999199+00501+00201999999ADDGA1071+006711999GE19MSL   +99999+99999GF199999071999006711999999MA1102901999999REMMET069METAR ETNT 051120Z 25010KT 9999 BKN022 05/02 Q1029 WHT WHT TEMPO GRN=
0160101260999992015010512204+53548+007667FM-15+000899999V0202501N005110067119N008000199+00501+00301999999ADDGA1071+006711999GE19MSL   +99999+99999GF199999071999006711999999MA1102801999999REMMET069METAR ETNT 051220Z 25010KT 8000 BKN022 05/03 Q1028 WHT WHT TEMPO GRN=
0160101260999992015010513204+53548+007667FM-15+000899999V0202401N004110064019N008000199+00501+00201999999ADDGA1071+006401999GE19MSL   +99999+99999GF199999071999006401999999MA1102801999999REMMET069METAR ETNT 051320Z 24008KT 8000 BKN021 05/02 Q1028 WHT WHT TEMPO GRN=
0160101260999992015010514204+53548+007667FM-15+000899999V0202201N002110067119N006000199+00401+00301999999ADDGA1071+006711999GE19MSL   +99999+99999GF199999071999006711999999MA1102801999999REMMET069METAR ETNT 051420Z 22004KT 6000 BKN022 04/03 Q1028 WHT WHT TEMPO GRN=
0160101260999992015010515204+53548+007667FM-15+000899999V0202001N002610064019N006000199+00401+00201999999ADDGA1071+006401999GE19MSL   +99999+99999GF199999071999006401999999MA1102801999999REMMET069METAR ETNT 051520Z 20005KT 6000 BKN021 04/02 Q1028 WHT WHT TEMPO GRN=
0160101260999992015010516204+53548+007667FM-15+000899999V0202001N003610067119N007000199+00401+00201999999ADDGA1071+006711999GE19MSL   +99999+99999GF199999071999006711999999MA1102801999999REMMET069METAR ETNT 051620Z 20007KT 7000 BKN022 04/02 Q1028 WHT WHT TEMPO GRN=
0160101260999992015010517204+53548+007667FM-15+000899999V0202201N004610079219N008000199+00401+00201999999ADDGA1071+007921999GE19MSL   +99999+99999GF199999071999007921999999MA1102701999999REMMET069METAR ETNT 051720Z 22009KT 8000 BKN026 04/02 Q1027 BLU BLU BECMG WHT=
0188101260999992015010517454+53548+007667FM-16+000899999V0202101N003610024419N008000199+00401+00201999999ADDGA1071+002441999GA2071+007921999GE19MSL   +99999+99999GF199999071999002441999999MA1102701999999REMMET081SPECI ETNT 051745Z 21007KT 8000 BKN008 BKN026 04/02 Q1027 GRN WHT TEMPO      GRN=
0188101260999992015010518204+53548+007667FM-15+000899999V0202201N004610024419N006000199+00301+00201999999ADDGA1071+002441999GA2071+007921999GE19MSL   +99999+99999GF199999071999002441999999MA1102701999999REMMET081METAR ETNT 051820Z 22009KT 6000 BKN008 BKN026 03/02 Q1027 GRN WHT TEMPO      GRN=
0197101260999992015010519204+53548+007667FM-15+000899999V0202201N004610021319N005000199+00301+00101999999ADDGA1071+002131999GA2071+007921999GE19MSL   +99999+99999GF199999071999002131999999MA1102701999999MW1101REMMET084METAR ETNT 051920Z 22009KT 5000 BR BKN007 BKN026 03/01 Q1027 GRN WHT      TEMPO GRN=
0197101260999992015010520204+53548+007667FM-15+000899999V0202001N003110021319N005000199+00201+00101999999ADDGA1071+002131999GA2071+007621999GE19MSL   +99999+99999GF199999071999002131999999MA1102701999999MW1101REMMET084METAR ETNT 052020Z 20006KT 5000 BR BKN007 BKN025 02/01 Q1027 GRN WHT      TEMPO GRN=
0195101260999992015010521204+53548+007667FM-15+000899999V0202101N003610021319N005000199+00201+00101999999ADDGA1071+002131999GA2071+008531999GE19MSL   +99999+99999GF199999071999002131999999MA1102701999999MW1101REMMET082METAR ETNT 052120Z 21007KT 5000 BR BKN007 BKN028 02/01 Q1027 GRN FCST      CANCEL=
0178101260999992015010521504+53548+007667FM-16+000899999V0202001N003610082319N005000199+00201+00101999999ADDGA1041+002131999GA2071+008231999GE19MSL   +99999+99999GF199999041999002131999999MA1102701999999MW1101REMMET065SPECI ETNT 052150Z 20007KT 5000 BR SCT007 BKN027 02/01 Q1027 WHT=
0178101260999992015010522204+53548+007667FM-15+000899999V0202001N003110021319N005000199+00201+00101999999ADDGA1071+002131999GA2071+008231999GE19MSL   +99999+99999GF199999071999002131999999MA1102701999999MW1101REMMET065METAR ETNT 052220Z 20006KT 5000 BR BKN007 BKN027 02/01 Q1027 GRN=
0155101260999992015010523204+53548+007667FM-15+000899999V0202001N003110018319N004500199+00201+00101999999ADDGA1081+001831999GE19MSL   +99999+99999GF199999081999001831999999MA1102601999999MW1101REMMET058METAR ETNT 052320Z 20006KT 4500 BR OVC006 02/01 Q1026 YLO=
0155101260999992015010600204+53548+007667FM-15+000899999V0202001N003110018319N004500199+00201+00101999999ADDGA1081+001831999GE19MSL   +99999+99999GF199999081999001831999999MA1102601999999MW1101REMMET058METAR ETNT 060020Z 20006KT 4500 BR OVC006 02/01 Q1026 YLO=
0155101260999992015010601204+53548+007667FM-15+000899999V0202001N003110018319N004500199+00301+00201999999ADDGA1081+001831999GE19MSL   +99999+99999GF199999081999001831999999MA1102501999999MW1101REMMET058METAR ETNT 060120Z 20006KT 4500 BR OVC006 03/02 Q1025 YLO=
0155101260999992015010602204+53548+007667FM-15+000899999V0201901N003110018319N004500199+00301+00201999999ADDGA1081+001831999GE19MSL   +99999+99999GF199999081999001831999999MA1102501999999MW1101REMMET058METAR ETNT 060220Z 19006KT 4500 BR OVC006 03/02 Q1025 YLO=
0206101260999992015010603204+53548+007667FM-15+000899999V0201801N003110018319N004500199+00301+00201999999ADDGA1071+001831999GA2071+002741999GA3071+009141999GE19MSL   +99999+99999GF199999071999001831999999MA1102501999999MW1101REMMET077METAR ETNT 060320Z 18006KT 4500 BR BKN006 BKN009 BKN030 03/02 Q1025      YLO=
0197101260999992015010604204+53548+007667FM-15+000899999V0201901N003110018319N004500199+00301+00201999999ADDGA1071+001831999GA2071+009751999GE19MSL   +99999+99999GF199999071999001831999999MA1102401999999MW1101REMMET084METAR ETNT 060420Z 19006KT 4500 BR BKN006 BKN032 03/02 Q1024 YLO GRN      TEMPO YLO=
0197101260999992015010605204+53548+007667FM-15+000899999V0201801N003110018319N004500199+00301+00201999999ADDGA1071+001831999GA2071+009751999GE19MSL   +99999+99999GF199999071999001831999999MA1102301999999MW1101REMMET084METAR ETNT 060520Z 18006KT 4500 BR BKN006 BKN032 03/02 Q1023 YLO GRN      TEMPO YLO=
0197101260999992015010606204+53548+007667FM-15+000899999V0201801N003610021319N004500199+00301+00201999999ADDGA1071+002131999GA2071+009751999GE19MSL   +99999+99999GF199999071999002131999999MA1102301999999MW1101REMMET084METAR ETNT 060620Z 18007KT 4500 BR BKN007 BKN032 03/02 Q1023 GRN GRN      TEMPO YLO=
0197101260999992015010607204+53548+007667FM-15+000899999V0201801N003610091419N004500199+00301+00201999999ADDGA1041+002131999GA2071+009141999GE19MSL   +99999+99999GF199999041999002131999999MA1102301999999MW1101REMMET084METAR ETNT 060720Z 18007KT 4500 BR SCT007 BKN030 03/02 Q1023 GRN GRN      TEMPO YLO=
0174101260999992015010608204+53548+007667FM-15+000899999V0201701N004110091419N004500199+00301+00101999999ADDGA1071+009141999GE19MSL   +99999+99999GF199999071999009141999999MA1102301999999MW1101REMMET077METAR ETNT 060820Z 17008KT 4500 BR BKN030 03/01 Q1023 GRN GRN BECMG      WHT=
0174101260999992015010608434+53548+007667FM-16+000899999V0201701N004110097519N005000199+00301+00101999999ADDGA1071+009751999GE19MSL   +99999+99999GF199999071999009751999999MA1102301999999MW1101REMMET077SPECI ETNT 060843Z 17008KT 5000 BR BKN032 03/01 Q1023 WHT WHT TEMPO      GRN=
0188101260999992015010609204+53548+007667FM-15+000899999V0201801N003610094519N007000199+00301+00101999999ADDGA1041+003961999GA2071+009451999GE19MSL   +99999+99999GF199999041999003961999999MA1102301999999REMMET081METAR ETNT 060920Z 18007KT 7000 SCT013 BKN031 03/01 Q1023 WHT WHT TEMPO      GRN=
0173101260999992015010609474+53548+007667FM-16+000899999V0201801N003610088419N008000199+00401+00101999999ADDGA1021+003961999GA2071+008841999GE19MSL   +99999+99999GF199999021999003961999999MA1102301999999REMMET066SPECI ETNT 060947Z 18007KT 8000 FEW013 BKN029 04/01 Q1023 BLU BLU=
0150101260999992015010610204+53548+007667FM-15+000899999V0201701N004110088419N009999199+00401+00101999999ADDGA1071+008841999GE19MSL   +99999+99999GF199999071999008841999999MA1102301999999REMMET059METAR ETNT 061020Z 17008KT 9999 BKN029 04/01 Q1023 BLU BLU=
0150101260999992015010611204+53548+007667FM-15+000899999V0201701N003110091419N009999199+00401+00101999999ADDGA1071+009141999GE19MSL   +99999+99999GF199999071999009141999999MA1102201999999REMMET059METAR ETNT 061120Z 17006KT 9999 BKN030 04/01 Q1022 BLU BLU=
0150101260999992015010612204+53548+007667FM-15+000899999V0201501N003110091419N009999199+00401+00201999999ADDGA1071+009141999GE19MSL   +99999+99999GF199999071999009141999999MA1102101999999REMMET059METAR ETNT 061220Z 15006KT 9999 BKN030 04/02 Q1021 BLU BLU=
0150101260999992015010613204+53548+007667FM-15+000899999V0201501N004110091419N009999199+00501+00201999999ADDGA1071+009141999GE19MSL   +99999+99999GF199999071999009141999999MA1102001999999REMMET059METAR ETNT 061320Z 15008KT 9999 BKN030 05/02 Q1020 BLU BLU=
0173101260999992015010614204+53548+007667FM-15+000899999V0201401N003610518219N009999199+00401+00201999999ADDGA1021+009141999GA2071+051821999GE19MSL   +99999+99999GF199999021999009141999999MA1101901999999REMMET066METAR ETNT 061420Z 14007KT 9999 FEW030 BKN170 04/02 Q1019 BLU BLU=
0189101260999992015010615204+53548+007667FM-15+000899999V0201601N003610731519N009999199+00301+00101999999ADDGA1041+051821999GA2071+073151999GE19MSL   +99999+99999GF199999041999051821999999MA1101901999999REMMET082METAR ETNT 061520Z 16007KT 9999 SCT170 BKN240 03/01 Q1019 BLU+BLU TEMPO      BLU+=
0186101260999992015010616034+53548+007667FM-16+000899999V0201601N002610731519N009000199+00301+00101999999ADDGA1021+051821999GA2071+073151999GE19MSL   +99999+99999GF199999021999051821999999MA1101901999999REMMET079SPECI ETNT 061603Z 16005KT 9000 FEW170 BKN240 03/01 Q1019 BLU+FCST      CANCEL=
0170101260999992015010616204+53548+007667FM-15+000899999V0201501N002610731519N009000199+00201+00101999999ADDGA1021+051821999GA2071+073151999GE19MSL   +99999+99999GF199999021999051821999999MA1101901999999REMMET063METAR ETNT 061620Z 15005KT 9000 FEW170 BKN240 02/01 Q1019 BLU+=
0169101260999992015010617204+53548+007667FM-15+000899999V0201601N004110335319N008000199+00301+00101999999ADDGA1071+033531999GA2071+067061999GE19MSL   +99999+99999GF199999071999033531999999MA1101901999999REMMET062METAR ETNT 061720Z 16008KT 8000 BKN110 BKN220 03/01 Q1019 BLU=
0169101260999992015010618204+53548+007667FM-15+000899999V0201801N003610335319N007000199+00301+00101999999ADDGA1041+012801999GA2071+033531999GE19MSL   +99999+99999GF199999041999012801999999MA1101801999999REMMET062METAR ETNT 061820Z 18007KT 7000 SCT042 BKN110 03/01 Q1018 WHT=
0169101260999992015010619204+53548+007667FM-15+000899999V0202101N004110091419N007000199+00301+00101999999ADDGA1021+007621999GA2071+009141999GE19MSL   +99999+99999GF199999021999007621999999MA1101901999999REMMET062METAR ETNT 061920Z 21008KT 7000 FEW025 BKN030 03/01 Q1019 WHT=
0169101260999992015010620204+53548+007667FM-15+000899999V0202101N005110027419N009999199+00201+00001999999ADDGA1071+002741999GA2071+005181999GE19MSL   +99999+99999GF199999071999002741999999MA1101801999999REMMET062METAR ETNT 062020Z 21010KT 9999 BKN009 BKN017 02/00 Q1018 GRN=
0167101260999992015010620474+53548+007667FM-16+000899999V0202101N004610027419N005000199+00201+00001999999ADDGA1071+002741999GE19MSL   +99999+99999GF199999071999002741999999MA1101801999999MW1101MW2581REMMET064SPECI ETNT 062047Z 21009KT 5000 -RADZ BR BKN009 02/00 Q1018 GRN=
0189101260999992015010621204+53548+007667FM-15+000899999V0202101N004610024419N003000199+00201+00101999999ADDGA1021+001831999GA2071+002441999GE19MSL   +99999+99999GF199999021999001831999999MA1101901999999MW1101MW2591REMMET070METAR ETNT 062120Z 21009KT 3000 DZRA BR FEW006 BKN008 02/01 Q1019 YLO=
0200101260999992015010621424+53548+007667FM-16+000899999V0202101N004610015219N002500199+00201+00101999999ADDGA1071+001521999GA2071+002131999GE19MSL   +99999+99999GF199999071999001521999999MA1101901999999MW1101MW2581REMMET081SPECI ETNT 062142Z 21009KT 2500 -DZRA BR BKN005 BKN007 02/01 Q1019      REDZ YLO=
0200101260999992015010622204+53548+007667FM-15+000899999V0202301N004610012219N004000199+00201+00101999999ADDGA1071+001221999GA2071+002131999GE19MSL   +99999+99999GF199999071999001221999999MA1101901999999MW1101MW2581REMMET081METAR ETNT 062220Z 23009KT 4000 -DZRA BR BKN004 BKN007 02/01 Q1019      REDZ YLO=
0165101260999992015010623204+53548+007667FM-15+000899999V0202401N005110009119N002500199+00301+00201999999ADDGA1071+000911999GE19MSL   +99999+99999GF199999071999000911999999MA1101901999999MW1101MW2511REMMET062METAR ETNT 062320Z 24010KT 2500 -DZ BR BKN003 03/02 Q1019 YLO=
0188101260999992015010700204+53548+007667FM-15+000899999V0202501N003110015219N003000199+00401+00301999999ADDGA1041+000911999GA2071+001521999GE19MSL   +99999+99999GF199999041999000911999999MA1101901999999MW1101MW2511REMMET069METAR ETNT 070020Z 25006KT 3000 -DZ BR SCT003 BKN005 04/03 Q1019 YLO=
0188101260999992015010701204+53548+007667FM-15+000899999V0202701N004110070119N004000199+00501+00401999999ADDGA1021+001521999GA2071+007011999GE19MSL   +99999+99999GF199999021999001521999999MA1102001999999MW1101MW2511REMMET069METAR ETNT 070120Z 27008KT 4000 -DZ BR FEW005 BKN023 05/04 Q1020 GRN=
0169101260999992015010701444+53548+007667FM-16+000899999V0202901N003610091419N008000199+00501+00501999999ADDGA1021+003051999GA2071+009141999GE19MSL   +99999+99999GF199999021999003051999999MA1102001999999REMMET062SPECI ETNT 070144Z 29007KT 8000 FEW010 BKN030 05/05 Q1020 BLU=
0146101260999992015010702204+53548+007667FM-15+000899999V0202701N003110085319N009999199+00501+00401999999ADDGA1071+008531999GE19MSL   +99999+99999GF199999071999008531999999MA1102101999999REMMET055METAR ETNT 070220Z 27006KT 9999 BKN028 05/04 Q1021 BLU=
0146101260999992015010703204+53548+007667FM-15+000899999V0202701N003110088419N009999199+00501+00401999999ADDGA1071+008841999GE19MSL   +99999+99999GF199999071999008841999999MA1102201999999REMMET055METAR ETNT 070320Z 27006KT 9999 BKN029 05/04 Q1022 BLU=
0161101260999992015010704204+53548+007667FM-15+000899999V0202601N003110100619N009999199+00501+00401999999ADDGA1071+010061999GE19MSL   +99999+99999GF199999071999010061999999MA1102201999999REMMET070METAR ETNT 070420Z 26006KT 9999 BKN033 05/04 Q1022 BLU BLU+ TEMPO BLU=
0161101260999992015010705204+53548+007667FM-15+000899999V0202701N003619999999N009999199+00501+00301999999ADDGA1041+011581999GE19MSL   +99999+99999GF199999041999011581999999MA1102301999999REMMET070METAR ETNT 070520Z 27007KT 9999 SCT038 05/03 Q1023 BLU+BLU TEMPO BLU+=
0161101260999992015010706204+53548+007667FM-15+000899999V0202501N003610115819N009999199+00401+00301999999ADDGA1071+011581999GE19MSL   +99999+99999GF199999071999011581999999MA1102401999999REMMET070METAR ETNT 070620Z 25007KT 9999 BKN038 04/03 Q1024 BLU BLU TEMPO BLU+=
0174101260999992015010707204+53548+007667FM-15+000899999V0202401N00361060961CN009999199+00301+00201999999ADDGA1021+011581999GA2041+060961999GE19MSL   +99999+99999GF199999021999011581999999MA1102401999999REMMET067METAR ETNT 070720Z 24007KT 9999 FEW038 SCT200 03/02 Q1024 BLU+BLU+=
0174101260999992015010708204+53548+007667FM-15+000899999V0202301N00311060961CN009999199+00201+00201999999ADDGA1021+011581999GA2041+060961999GE19MSL   +99999+99999GF199999021999011581999999MA1102401999999REMMET067METAR ETNT 070820Z 23006KT 9999 FEW038 SCT200 02/02 Q1024 BLU+BLU+=
0151101260999992015010709204+53548+007667FM-15+000899999V0202301N003619999999N009999199+00401+00201999999ADDGA1021+060961999GE19MSL   +99999+99999GF199999021999060961999999MA1102401999999REMMET060METAR ETNT 070920Z 23007KT 9999 FEW200 04/02 Q1024 BLU+BLU+=
0151101260999992015010710204+53548+007667FM-15+000899999V0202301N004619999999N009999199+00401+00201999999ADDGA1021+004881999GE19MSL   +99999+99999GF199999021999004881999999MA1102401999999REMMET060METAR ETNT 071020Z 23009KT 9999 FEW016 04/02 Q1024 BLU+BLU+=
0151101260999992015010711204+53548+007667FM-15+000899999V0202301N005119999999N009999199+00501+00301999999ADDGA1021+003051999GE19MSL   +99999+99999GF199999021999003051999999MA1102401999999REMMET060METAR ETNT 071120Z 23010KT 9999 FEW010 05/03 Q1024 BLU+BLU+=
0174101260999992015010712204+53548+007667FM-15+000899999V0202301N00621004271CN009999199+00601+00401999999ADDGA1021+003051999GA2041+004271999GE19MSL   +99999+99999GF199999021999003051999999MA1102401999999REMMET067METAR ETNT 071220Z 23012KT 9999 FEW010 SCT014 06/04 Q1024 BLU+BLU+=
0189101260999992015010713204+53548+007667FM-15+000899999V0202201N004610121919N009999199+00601+00401999999ADDGA1041+004271999GA2071+012191999GE19MSL   +99999+99999GF199999041999004271999999MA1102301999999REMMET082METAR ETNT 071320Z 22009KT 9999 SCT014 BKN040 06/04 Q1023 BLU BLU+      TEMPO BLU=
0188101260999992015010714204+53548+007667FM-15+000899999V0202201N005110079219N009999199+00601+00401999999ADDGA1021+004271999GA2071+007921999GE19MSL   +99999+99999GF199999021999004271999999MA1102301999999REMMET081METAR ETNT 071420Z 22010KT 9999 FEW014 BKN026 06/04 Q1023 BLU BLU TEMPO      WHT=
0158101260999992015010715204+53548+007667FM-15+000899999V0202101N006210054919N009999199+00601+00301999999ADDGA1071+005491999GE19MSL   +99999+99999GF199999071999005491999999MA1102301999999REMMET067METAR ETNT 071520Z 21012KT 9999 BKN018 06/03 Q1023 WHT FCST CANCEL=
0146101260999992015010716204+53548+007667FM-15+000899999V0202201N006710051819N009999199+00601+00301999999ADDGA1071+005181999GE19MSL   +99999+99999GF199999071999005181999999MA1102301999999REMMET055METAR ETNT 071620Z 22013KT 9999 BKN017 06/03 Q1023 WHT=
0146101260999992015010717204+53548+007667FM-15+000899999V0202101N006710057919N009999199+00501+00301999999ADDGA1071+005791999GE19MSL   +99999+99999GF199999071999005791999999MA1102301999999REMMET055METAR ETNT 071720Z 21013KT 9999 BKN019 05/03 Q1023 WHT=
0169101260999992015010718204+53548+007667FM-15+000899999V0202001N006710518219N009999199+00501+00201999999ADDGA1041+005791999GA2071+051821999GE19MSL   +99999+99999GF199999041999005791999999MA1102201999999REMMET062METAR ETNT 071820Z 20013KT 9999 SCT019 BKN170 05/02 Q1022 BLU=
0146101260999992015010719204+53548+007667FM-15+000899999V0202001N007210518219N009999199+00501+00201999999ADDGA1071+051821999GE19MSL   +99999+99999GF199999071999051821999999MA1102201999999REMMET055METAR ETNT 071920Z 20014KT 9999 BKN170 05/02 Q1022 BLU=
0146101260999992015010720204+53548+007667FM-15+000899999V0202001N008210243819N009999199+00401+00201999999ADDGA1071+024381999GE19MSL   +99999+99999GF199999071999024381999999MA1102101999999REMMET055METAR ETNT 072020Z 20016KT 9999 BKN080 04/02 Q1021 BLU=
0208101260999992015010721204+53548+007667FM-15+000899999V0202001N008810182919N009999199+00401+00201999999ADDGA1021+003661999GA2071+018291999GA3081+024381999GE19MSL   +99999+99999GF199999021999003661999999MA1102101999999OC101441REMMET077METAR ETNT 072120Z 20017G28KT 9999 FEW012 BKN060 OVC080 04/02 Q1021      BLU=
0192101260999992015010722204+53548+007667FM-15+000899999V0202001N009810152419N009999199+00401+00201999999ADDGA1021+003661999GA2071+015241999GA3081+027431999GE19MSL   +99999+99999GF199999021999003661999999MA1102001999999REMMET069METAR ETNT 072220Z 20019KT 9999 FEW012 BKN050 OVC090 04/02 Q1020 BLU=
0169101260999992015010723204+53548+007667FM-15+000899999V0202001N009310128019N009999199+00401+00101999999ADDGA1021+003661999GA2071+012801999GE19MSL   +99999+99999GF199999021999003661999999MA1101901999999REMMET062METAR ETNT 072320Z 20018KT 9999 FEW012 BKN042 04/01 Q1019 BLU=
0180101260999992015010800204+53548+007667FM-15+000899999V0202101N010310079219N009999199+00401+00101999999ADDGA1021+003661999GA2071+007921999GE19MSL   +99999+99999GF199999021999003661999999MA1101801999999OC101541REMMET065METAR ETNT 080020Z 21020G30KT 9999 FEW012 BKN026 04/01 Q1018 BLU=
0190101260999992015010800464+53548+007667FM-16+000899999V0202101N010310036619N009999199+00401+00101999999ADDGA1071+003661999GA2071+007921999GE19MSL   +99999+99999GF199999071999003661999999MA1101901999999MW1611OC101601REMMET069SPECI ETNT 080046Z 21020G31KT 9999 -RA BKN012 BKN026 04/01 Q1019 GRN=
0156101260999992015010801204+53548+007667FM-15+000899999V0202101N010310033519N006000199+00301+00201999999ADDGA1071+003351999GE19MSL   +99999+99999GF199999071999003351999999MA1101801999999MW1611REMMET059METAR ETNT 080120Z 21020KT 6000 -RA BKN011 03/02 Q1018 GRN=
0188101260999992015010802204+53548+007667FM-15+000899999V0202101N008810018319N004500199+00301+00201999999ADDGA1071+001831999GE19MSL   +99999+99999GF199999071999001831999999MA1101701999999MW1101MW2581OC101441REMMET077METAR ETNT 080220Z 21017G28KT 4500 -RADZ BR BKN006 03/02 Q1017 RERA      YLO=
0167101260999992015010803204+53548+007667FM-15+000899999V0202201N009810018319N003500199+00301+00201999999ADDGA1071+001831999GE19MSL   +99999+99999GF199999071999001831999999MA1101701999999MW1101MW2581REMMET064METAR ETNT 080320Z 22019KT 3500 -RADZ BR BKN006 03/02 Q1017 YLO=
0164101260999992015010804204+53548+007667FM-15+000899999V0202101N009810015219N002500199+00401+00301999999ADDGA1071+001521999GE19MSL   +99999+99999GF199999071999001521999999MA1101601999999MW1101MW2531REMMET061METAR ETNT 080420Z 21019KT 2500 DZ BR BKN005 04/03 Q1016 YLO=
0194101260999992015010805204+53548+007667FM-15+000899999V0202201N008210012219N002000199+00401+00401999999ADDGA1071+001221999GE19MSL   +99999+99999GF199999071999001221999999MA1101601999999MW1101MW2531OC101391REMMET083METAR ETNT 080520Z 22016G27KT 2000 DZ BR BKN004 04/04 Q1016 YLO GRN      TEMPO YLO=
0183101260999992015010806204+53548+007667FM-15+000899999V0202201N007710012219N002000199+00501+00401999999ADDGA1071+001221999GE19MSL   +99999+99999GF199999071999001221999999MA1101501999999MW1101MW2531REMMET080METAR ETNT 080620Z 22015KT 2000 DZ BR BKN004 05/04 Q1015 YLO GRN TEMPO      YLO=
0179101260999992015010807204+53548+007667FM-15+000899999V0202201N007710012219N002200199+00601+00501999999ADDGA1071+001221999GE19MSL   +99999+99999GF199999071999001221999999MA1101501999999MW1101MW2531OC101291REMMET068METAR ETNT 080720Z 22015G25KT 2200 DZ BR BKN004 06/05 Q1015 YLO YLO=
0193101260999992015010807334+53548+007667FM-16+000899999V0202201N007210012219N001400199+00601+00501999999ADDGA1071+001221999GE19MSL   +99999+99999GF199999071999001221999999MA1101501999999MW1101MW2531REMMET090SPECI ETNT 080733Z 22014KT 1400 R26/3800D DZ BR BKN004 06/05 Q1015      AMB YLO TEMPO AMB=
0183101260999992015010807424+53548+007667FM-16+000899999V0202201N007710012219N002000199+00601+00501999999ADDGA1071+001221999GE19MSL   +99999+99999GF199999071999001221999999MA1101501999999MW1101MW2531REMMET080SPECI ETNT 080742Z 22015KT 2000 DZ BR BKN004 06/05 Q1015 YLO YLO TEMPO      AMB=
0183101260999992015010807534+53548+007667FM-16+000899999V0202201N007710012219N003000199+00601+00501999999ADDGA1071+001221999GE19MSL   +99999+99999GF199999071999001221999999MA1101501999999MW1101MW2531REMMET080SPECI ETNT 080753Z 22015KT 3000 DZ BR BKN004 06/05 Q1015 YLO YLO TEMPO      AMB=
0193101260999992015010808064+53548+007667FM-16+000899999V0202201N008210012219N001600199+00601+00501999999ADDGA1071+001221999GE19MSL   +99999+99999GF199999071999001221999999MA1101501999999MW1101MW2531REMMET090SPECI ETNT 080806Z 22016KT 1600 R26/2900D DZ BR BKN004 06/05 Q1015      YLO YLO TEMPO AMB=
0183101260999992015010808204+53548+007667FM-15+000899999V0202201N007210015219N002500199+00601+00601999999ADDGA1071+001521999GE19MSL   +99999+99999GF199999071999001521999999MA1101501999999MW1101MW2531REMMET080METAR ETNT 080820Z 22014KT 2500 DZ BR BKN005 06/06 Q1015 YLO YLO TEMPO      AMB=
0204101260999992015010809204+53548+007667FM-15+000899999V0202201N006710009119N001500199+00601+00601999999ADDGA1071+000911999GE19MSL   +99999+99999GF199999071999000911999999MA1101501999999MW1101MW2531OC101181REMMET093METAR ETNT 080920Z 22013G23KT 1500 R26/1900D DZ BR BKN003 06/06 Q1015      AMB YLO TEMPO AMB=
0183101260999992015010809454+53548+007667FM-16+000899999V0202201N007210012219N002000199+00601+00601999999ADDGA1071+001221999GE19MSL   +99999+99999GF199999071999001221999999MA1101501999999MW1101MW2531REMMET080SPECI ETNT 080945Z 22014KT 2000 DZ BR BKN004 06/06 Q1015 YLO YLO TEMPO      AMB=
0189101260999992015010810204+53548+007667FM-15+000899999V0202201N007210012219N003500199+00701+00601999999ADDGA1071+001221999GE19MSL   +99999+99999GF199999071999001221999999MA1101501999999MW1101MW2511REMMET086METAR ETNT 081020Z 22014KT 3500 -DZ BR BKN004 07/06 Q1015 REDZ YLO      YLO TEMPO AMB=
0184101260999992015010811204+53548+007667FM-15+000899999V0202201N004610009119N002500199+00701+00601999999ADDGA1071+000911999GE19MSL   +99999+99999GF199999071999000911999999MA1101401999999MW1101MW2511REMMET081METAR ETNT 081120Z 22009KT 2500 -DZ BR BKN003 07/06 Q1014 YLO YLO TEMPO      AMB=
0174101260999992015010812204+53548+007667FM-15+000899999V0202301N005110012219N004500199+00701+00701999999ADDGA1071+001221999GE19MSL   +99999+99999GF199999071999001221999999MA1101301999999MW1101REMMET077METAR ETNT 081220Z 23010KT 4500 BR BKN004 07/07 Q1013 YLO YLO TEMPO      AMB=
0197101260999992015010813204+53548+007667FM-15+000899999V0202601N006210024419N005000199+00801+00701999999ADDGA1041+001221999GA2071+002441999GE19MSL   +99999+99999GF199999041999001221999999MA1101401999999MW1101REMMET084METAR ETNT 081320Z 26012KT 5000 BR SCT004 BKN008 08/07 Q1014 GRN GRN      TEMPO YLO=
0221101260999992015010814204+53548+007667FM-15+000899999V0203001N004110042719N006000199+00601+00501999999ADDGA1021+002441999GA2071+004271999GA3071+009141999GE19MSL   +99999+99999GF199999021999002441999999MA1101401999999MW1611REMMET092METAR ETNT 081420Z 30008KT 6000 -RA FEW008 BKN014 BKN030 06/05 Q1014      GRN GRN TEMPO YLO=
0198101260999992015010814424+53548+007667FM-16+000899999V0202801N004610061019N006000199+00601+00501999999ADDGA1041+003661999GA2071+006101999GE19MSL   +99999+99999GF199999041999003661999999MA1101401999999MW1611REMMET085SPECI ETNT 081442Z 28009KT 6000 -RA SCT012 BKN020 06/05 Q1014 WHT WHT      TEMPO YLO=
0198101260999992015010815204+53548+007667FM-15+000899999V0202801N005110048819N006000199+00601+00501999999ADDGA1041+003051999GA2071+004881999GE19MSL   +99999+99999GF199999041999003051999999MA1101501999999MW1611REMMET085METAR ETNT 081520Z 28010KT 6000 -RA SCT010 BKN016 06/05 Q1015 WHT WHT      TEMPO YLO=
0186101260999992015010816204+53548+007667FM-15+000899999V0202501N003110115819N009999199+00601+00501999999ADDGA1021+005491999GA2071+011581999GE19MSL   +99999+99999GF199999021999005491999999MA1101501999999REMMET079METAR ETNT 081620Z 25006KT 9999 FEW018 BKN038 06/05 Q1015 BLU FCST      CANCEL=
0192101260999992015010817204+53548+007667FM-15+000899999V0202701N006210061019N009999199+00601+00401999999ADDGA1021+004271999GA2071+006101999GA3071+021341999GE19MSL   +99999+99999GF199999021999004271999999MA1101601999999REMMET069METAR ETNT 081720Z 27012KT 9999 FEW014 BKN020 BKN070 06/04 Q1016 WHT=
0146101260999992015010818204+53548+007667FM-15+000899999V0202701N006710548619N009999199+00601+00501999999ADDGA1071+054861999GE19MSL   +99999+99999GF199999071999054861999999MA1101601999999REMMET055METAR ETNT 081820Z 27013KT 9999 BKN180 06/05 Q1016 BLU=
0147101260999992015010819204+53548+007667FM-15+000899999V0202701N006719999999N009999199+00501+00401999999ADDGA1041+054861999GE19MSL   +99999+99999GF199999041999054861999999MA1101801999999REMMET056METAR ETNT 081920Z 27013KT 9999 SCT180 05/04 Q1018 BLU+=
0147101260999992015010820204+53548+007667FM-15+000899999V0202701N007719999999N009999199+00601+00401999999ADDGA1041+006711999GE19MSL   +99999+99999GF199999041999006711999999MA1101901999999REMMET056METAR ETNT 082020Z 27015KT 9999 SCT022 06/04 Q1019 BLU+=
0147101260999992015010821204+53548+007667FM-15+000899999V0202601N006719999999N009999199+00501+00401999999ADDGA1041+060961999GE19MSL   +99999+99999GF199999041999060961999999MA1101901999999REMMET056METAR ETNT 082120Z 26013KT 9999 SCT200 05/04 Q1019 BLU+=
0147101260999992015010822204+53548+007667FM-15+000899999V0202501N005719999999N009999199+00501+00401999999ADDGA1041+060961999GE19MSL   +99999+99999GF199999041999060961999999MA1101901999999REMMET056METAR ETNT 082220Z 25011KT 9999 SCT200 05/04 Q1019 BLU+=
0147101260999992015010823204+53548+007667FM-15+000899999V0202401N006719999999N009999199+00501+00301999999ADDGA1041+006101999GE19MSL   +99999+99999GF199999041999006101999999MA1101901999999REMMET056METAR ETNT 082320Z 24013KT 9999 SCT020 05/03 Q1019 BLU+=
0170101260999992015010900204+53548+007667FM-15+000899999V0202401N00771060961CN009999199+00501+00301999999ADDGA1021+006101999GA2041+060961999GE19MSL   +99999+99999GF199999021999006101999999MA1101901999999REMMET063METAR ETNT 090020Z 24015KT 9999 FEW020 SCT200 05/03 Q1019 BLU+=
0169101260999992015010901204+53548+007667FM-15+000899999V0202401N006710304819N009999199+00501+00301999999ADDGA1071+030481999GA2041+060961999GE19MSL   +99999+99999GF199999071999030481999999MA1101901999999REMMET062METAR ETNT 090120Z 24013KT 9999 BKN100 SCT200 05/03 Q1019 BLU=
0170101260999992015010902204+53548+007667FM-15+000899999V0202301N00821060961CN009999199+00501+00401999999ADDGA1041+003661999GA2041+060961999GE19MSL   +99999+99999GF199999041999003661999999MA1101701999999REMMET063METAR ETNT 090220Z 23016KT 9999 SCT012 SCT200 05/04 Q1017 BLU+=
0146101260999992015010903204+53548+007667FM-15+000899999V0202201N008210042719N009999199+00601+00401999999ADDGA1071+004271999GE19MSL   +99999+99999GF199999071999004271999999MA1101401999999REMMET055METAR ETNT 090320Z 22016KT 9999 BKN014 06/04 Q1014 GRN=
0180101260999992015010904204+53548+007667FM-15+000899999V0202201N010310243819N009999199+00601+00401999999ADDGA1041+004271999GA2071+024381999GE19MSL   +99999+99999GF199999041999004271999999MA1101301999999OC101601REMMET065METAR ETNT 090420Z 22020G31KT 9999 SCT014 BKN080 06/04 Q1013 BLU=
0208101260999992015010904444+53548+007667FM-16+000899999V0202201N012410106719N009999199+00601+00401999999ADDGA1041+004271999GA2071+010671999GA3071+024381999GE19MSL   +99999+99999GF199999041999004271999999MA1101101999999OC101851REMMET077SPECI ETNT 090444Z 22024G36KT 9999 SCT014 BKN035 BKN080 06/04 Q1011      BLU=
0176101260999992015010905204+53548+007667FM-15+000899999V0202301N010810051819N009999199+00701+00401999999ADDGA1071+005181999GE19MSL   +99999+99999GF199999071999005181999999MA1101001999999OC101751REMMET077METAR ETNT 090520Z 23021G34KT 9999 BKN017 07/04 Q1010 WHT BLU TEMPO      GRN=
0176101260999992015010906204+53548+007667FM-15+000899999V0202301N014410048819N009999199+00701+00501999999ADDGA1071+004881999GE19MSL   +99999+99999GF199999071999004881999999MA1100701999999OC102111REMMET077METAR ETNT 090620Z 23028G41KT 9999 BKN016 07/05 Q1007 WHT BLU TEMPO      GRN=
0176101260999992015010906304+53548+007667FM-16+000899999V0202301N014410042719N009999199+00701+00501999999ADDGA1071+004271999GE19MSL   +99999+99999GF199999071999004271999999MA1100701999999OC102631REMMET077SPECI ETNT 090630Z 23028G51KT 9999 BKN014 07/05 Q1007 GRN BLU TEMPO      GRN=
0176101260999992015010907204+53548+007667FM-15+000899999V0202401N014410048819N009999199+00801+00601999999ADDGA1071+004881999GE19MSL   +99999+99999GF199999071999004881999999MA1100602999999OC102161REMMET077METAR ETNT 090720Z 24028G42KT 9999 BKN016 08/06 Q1006 WHT BLU TEMPO      GRN=
0209101260999992015010908204+53548+007667FM-15+000899999V0202501N012410091419N009999199+00901+00601999999ADDGA1041+005491999GA2071+009141999GE19MSL   +99999+99999GF199999041999005491999999MA1100701999999MW1611OC101961REMMET088METAR ETNT 090820Z 25024G38KT 9999 -RA SCT018 BKN030 09/06 Q1007 BLU      BLU TEMPO GRN=
0199101260999992015010909204+53548+007667FM-15+000899999V0202501N016010061019N009999199+01001+00601999999ADDGA1071+006101999GA2071+012191999GE19MSL   +99999+99999GF199999071999006101999999MA1100601999999OC102271REMMET084METAR ETNT 090920Z 25031G44KT 9999 BKN020 BKN040 10/06 Q1006 WHT BLU      TEMPO GRN=
0199101260999992015010910004+53548+007667FM-16+000899999V0202601N016510061019N009999199+01001+00601999999ADDGA1071+006101999GA2071+012191999GE19MSL   +99999+99999GF199999071999006101999999MA1100601999999OC102731REMMET084SPECI ETNT 091000Z 26032G53KT 9999 BKN020 BKN040 10/06 Q1006 WHT BLU      TEMPO GRN=
0222101260999992015010910204+53548+007667FM-15+000899999V0202601N01901012191CN009999199+01001+00601999999ADDGA1041+006101999GA2041+012191999GA3081+045721999GE19MSL   +99999+99999GF199999041999006101999999MA1100601999999OC102681REMMET091METAR ETNT 091020Z 26037G52KT 9999 SCT020 SCT040 OVC150 10/06 Q1006      BLU BLU TEMPO GRN=
0222101260999992015010910404+53548+007667FM-16+000899999V0202601N02061012191CN009999199+01001+00601999999ADDGA1041+006101999GA2041+012191999GA3081+045721999GE19MSL   +99999+99999GF199999041999006101999999MA1100601999999OC103091REMMET091SPECI ETNT 091040Z 26040G60KT 9999 SCT020 SCT040 OVC150 10/06 Q1006      BLU BLU TEMPO GRN=
0220101260999992015010911204+53548+007667FM-15+000899999V0202701N018510091419N009999199+01001+00501999999ADDGA1021+006101999GA2071+009141999GA3071+045721999GE19MSL   +99999+99999GF199999021999006101999999MA1100601999999OC102421REMMET089METAR ETNT 091120Z 27036G47KT 9999 FEW020 BKN030 BKN150 10/05 Q1006      BLU FCST CANCEL=
0180101260999992015010912204+53548+007667FM-15+000899999V0202701N017010396219N009999199+00901+00501999999ADDGA1021+009141999GA2081+039621999GE19MSL   +99999+99999GF199999021999009141999999MA1100701999999OC102371REMMET065METAR ETNT 091220Z 27033G46KT 9999 FEW030 OVC130 09/05 Q1007 BLU=
0180101260999992015010913204+53548+007667FM-15+000899999V0202701N016010426719N009999199+00901+00401999999ADDGA1021+012191999GA2081+042671999GE19MSL   +99999+99999GF199999021999012191999999MA1100701999999OC102271REMMET065METAR ETNT 091320Z 27031G44KT 9999 FEW040 OVC140 09/04 Q1007 BLU=
0208101260999992015010914204+53548+007667FM-15+000899999V0202701N016010121919N009999199+00901+00401999999ADDGA1021+006711999GA2071+012191999GA3081+039621999GE19MSL   +99999+99999GF199999021999006711999999MA1100801999999OC102111REMMET077METAR ETNT 091420Z 27031G41KT 9999 FEW022 BKN040 OVC130 09/04 Q1008      BLU=
0169101260999992015010915204+53548+007667FM-15+000899999V0202601N014410121919N009999199+00801+00401999999ADDGA1071+012191999GA2081+036581999GE19MSL   +99999+99999GF199999071999012191999999MA1100801999999REMMET062METAR ETNT 091520Z 26028KT 9999 BKN040 OVC120 08/04 Q1008 BLU=
0180101260999992015010916204+53548+007667FM-15+000899999V0202701N014910365819N009999199+00801+00401999999ADDGA1021+010671999GA2081+036581999GE19MSL   +99999+99999GF199999021999010671999999MA1100901999999OC102061REMMET065METAR ETNT 091620Z 27029G40KT 9999 FEW035 OVC120 08/04 Q1009 BLU=
0181101260999992015010917204+53548+007667FM-15+000899999V0202601N013910112819N009999199+00901+00401999999ADDGA1071+011281999GA2081+036581999GE19MSL   +99999+99999GF199999071999011281999999MA1100901999999MW1581REMMET068METAR ETNT 091720Z 26027KT 9999 -RADZ BKN037 OVC120 09/04 Q1009 BLU=
0181101260999992015010918204+53548+007667FM-15+000899999V0202601N010810152419N009999199+00901+00301999999ADDGA1021+006711999GA2071+015241999GE19MSL   +99999+99999GF199999021999006711999999MA1100901999999MW1581REMMET068METAR ETNT 091820Z 26021KT 9999 -RADZ FEW022 BKN050 09/03 Q1009 BLU=
0181101260999992015010919204+53548+007667FM-15+000899999V0202501N008210088419N009999199+00601+00401999999ADDGA1021+003051999GA2071+008841999GE19MSL   +99999+99999GF199999021999003051999999MA1100901999999MW1581REMMET068METAR ETNT 091920Z 25016KT 9999 -RADZ FEW010 BKN029 06/04 Q1009 BLU=
0169101260999992015010920204+53548+007667FM-15+000899999V0202301N006210097519N009999199+00601+00401999999ADDGA1021+003051999GA2071+009751999GE19MSL   +99999+99999GF199999021999003051999999MA1100701999999REMMET062METAR ETNT 092020Z 23012KT 9999 FEW010 BKN032 06/04 Q1007 BLU=
0191101260999992015010921204+53548+007667FM-15+000899999V0202101N005710048819N007000199+00501+00501999999ADDGA1041+001221999GA2071+004881999GE19MSL   +99999+99999GF199999041999001221999999MA1100601999999MW1581REMMET078METAR ETNT 092120Z 21011KT 7000 -RADZ SCT004 BKN016 05/05 Q1006 RERA      WHT=
0195101260999992015010921284+53548+007667FM-16+000899999V0202001N005110036619N004500199+00501+00501999999ADDGA1041+000911999GA2071+003661999GE19MSL   +99999+99999GF199999041999000911999999MA1100601999999MW1101MW2581REMMET076SPECI ETNT 092128Z 20010KT 4500 -RADZ BR SCT003 BKN012 05/05 Q1006      GRN=
0167101260999992015010921374+53548+007667FM-16+000899999V0202001N004610012219N004500199+00501+00501999999ADDGA1071+001221999GE19MSL   +99999+99999GF199999071999001221999999MA1100601999999MW1101MW2581REMMET064SPECI ETNT 092137Z 20009KT 4500 -RADZ BR BKN004 05/05 Q1006 YLO=
0166101260999992015010922204+53548+007667FM-15+000899999V0202001N004610012219N003800199+00501+00501999999ADDGA1071+001221999GE19MSL   +99999+99999GF199999071999001221999999MA1100501999999MW1101MW2591REMMET063METAR ETNT 092220Z 20009KT 3800 DZRA BR BKN004 05/05 Q1005 YLO=
0189101260999992015010923204+53548+007667FM-15+000899999V0202201N004110012219N003500199+00601+00601999999ADDGA1071+001221999GA2071+002131999GE19MSL   +99999+99999GF199999071999001221999999MA1100401999999MW1101MW2591REMMET070METAR ETNT 092320Z 22008KT 3500 DZRA BR BKN004 BKN007 06/06 Q1004 YLO=
0205101260999992015011000134+53548+007667FM-16+000899999V0202601N011310012219N003000199+01101+01001999999ADDGA1071+001221999GA2071+001831999GE19MSL   +99999+99999GF199999071999001221999999MA1100301999999MW1101MW2591OC101801REMMET078SPECI ETNT 100013Z 26022G35KT 3000 DZRA BR BKN004 BKN006 11/10 Q1003      YLO=
0211101260999992015011000204+53548+007667FM-15+000899999V0202701N014910021319N004000199+01101+01101999999ADDGA1041+001221999GA2071+002131999GE19MSL   +99999+99999GF199999041999001221999999MA1100301999999MW1101MW2581OC102161REMMET084METAR ETNT 100020Z 27029G42KT 4000 -DZRA BR SCT004 BKN007 11/11 Q1003      REDZ GRN=
0206101260999992015011000504+53548+007667FM-16+000899999V0202701N016010024419N004000199+01201+01101999999ADDGA1041+001221999GA2071+002441999GE19MSL   +99999+99999GF199999041999001221999999MA1100301999999MW1101MW2581OC102321REMMET079SPECI ETNT 100050Z 27031G45KT 4000 -DZRA BR SCT004 BKN008 12/11 Q1003      GRN=
0206101260999992015011001204+53548+007667FM-15+000899999V0202601N014910030519N005000199+01201+01101999999ADDGA1021+001521999GA2071+003051999GE19MSL   +99999+99999GF199999021999001521999999MA1100301999999MW1101MW2581OC102061REMMET079METAR ETNT 100120Z 26029G40KT 5000 -DZRA BR FEW005 BKN010 12/11 Q1003      GRN=
0197101260999992015011002204+53548+007667FM-15+000899999V0202601N016010030519N007000199+01201+01001999999ADDGA1021+001521999GA2071+003051999GE19MSL   +99999+99999GF199999021999001521999999MA1100301999999MW1581OC102211REMMET076METAR ETNT 100220Z 26031G43KT 7000 -DZRA FEW005 BKN010 12/10 Q1003      GRN=
0146101260999992015011003204+53548+007667FM-15+000899999V0202601N012910042719N009999199+01201+01001999999ADDGA1071+004271999GE19MSL   +99999+99999GF199999071999004271999999MA1100301999999REMMET055METAR ETNT 100320Z 26025KT 9999 BKN014 12/10 Q1003 GRN=
0180101260999992015011003354+53548+007667FM-16+000899999V0202501N011810042719N009999199+01201+01001999999ADDGA1071+004271999GA2071+012191999GE19MSL   +99999+99999GF199999071999004271999999MA1100301999999OC101801REMMET065SPECI ETNT 100335Z 25023G35KT 9999 BKN014 BKN040 12/10 Q1003 GRN=
0180101260999992015011004204+53548+007667FM-15+000899999V0202501N011310042719N009999199+01201+01001999999ADDGA1071+004271999GA2071+011581999GE19MSL   +99999+99999GF199999071999004271999999MA1100301999999OC101701REMMET065METAR ETNT 100420Z 25022G33KT 9999 BKN014 BKN038 12/10 Q1003 GRN=
0157101260999992015011005204+53548+007667FM-15+000899999V0202501N012910036619N009999199+01201+00901999999ADDGA1071+003661999GE19MSL   +99999+99999GF199999071999003661999999MA1100201999999OC102011REMMET058METAR ETNT 100520Z 25025G39KT 9999 BKN012 12/09 Q1002 GRN=
0157101260999992015011006204+53548+007667FM-15+000899999V0202501N013910039619N009999199+01201+01001999999ADDGA1071+003961999GE19MSL   +99999+99999GF199999071999003961999999MA1100101999999OC102111REMMET058METAR ETNT 100620Z 25027G41KT 9999 BKN013 12/10 Q1001 GRN=
0157101260999992015011006284+53548+007667FM-16+000899999V0202501N014410033519N009999199+01201+01001999999ADDGA1071+003351999GE19MSL   +99999+99999GF199999071999003351999999MA1100001999999OC102011REMMET058SPECI ETNT 100628Z 25028G39KT 9999 BKN011 12/10 Q1000 GRN=
0157101260999992015011006584+53548+007667FM-16+000899999V0202501N013910036619N009999199+01201+01001999999ADDGA1071+003661999GE19MSL   +99999+99999GF199999071999003661999999MA1100001999999OC102421REMMET058SPECI ETNT 100658Z 25027G47KT 9999 BKN012 12/10 Q1000 GRN=
0157101260999992015011007204+53548+007667FM-15+000899999V0202501N015410045719N009999199+01201+00901999999ADDGA1071+004571999GE19MSL   +99999+99999GF199999071999004571999999MA1100001999999OC102271REMMET058METAR ETNT 100720Z 25030G44KT 9999 BKN015 12/09 Q1000 WHT=
0157101260999992015011008204+53548+007667FM-15+000899999V0202401N013410048819N009999199+01201+00901999999ADDGA1071+004881999GE19MSL   +99999+99999GF199999071999004881999999MA1099901999999OC101961REMMET058METAR ETNT 100820Z 24026G38KT 9999 BKN016 12/09 Q0999 WHT=
0157101260999992015011009204+53548+007667FM-15+000899999V0202401N014910045719N009999199+01201+00901999999ADDGA1071+004571999GE19MSL   +99999+99999GF199999071999004571999999MA1099801999999OC102271REMMET058METAR ETNT 100920Z 24029G44KT 9999 BKN015 12/09 Q0998 WHT=
0157101260999992015011009254+53548+007667FM-16+000899999V0202401N014910045719N009999199+01201+00901999999ADDGA1071+004571999GE19MSL   +99999+99999GF199999071999004571999999MA1099801999999OC102161REMMET058SPECI ETNT 100925Z 24029G42KT 9999 BKN015 12/09 Q0998 WHT=
0190101260999992015011009574+53548+007667FM-16+000899999V0202401N015410045719N004000199+01201+00801999999ADDGA1071+004571999GE19MSL   +99999+99999GF199999071999004571999999MA1099801999999MW1101MW2631OC102271REMMET079SPECI ETNT 100957Z 24030G44KT 4000 R26/1600D RA BR BKN015 12/08 Q0998      GRN=
0172101260999992015011010204+53548+007667FM-15+000899999V0202401N013910045719N009999199+01101+00901999999ADDGA1071+004571999GE19MSL   +99999+99999GF199999071999004571999999MA1099801999999MW1611OC102271REMMET067METAR ETNT 101020Z 24027G44KT 9999 -RA BKN015 11/09 Q0998 RERA WHT=
0172101260999992015011010254+53548+007667FM-16+000899999V0202401N014410045719N009999199+01101+00901999999ADDGA1071+004571999GE19MSL   +99999+99999GF199999071999004571999999MA1099701999999MW1611OC102321REMMET067SPECI ETNT 101025Z 24028G45KT 9999 -RA BKN015 11/09 Q0997 RERA WHT=
0176101260999992015011011204+53548+007667FM-15+000899999V0202401N013410042719N005000199+01101+00901999999ADDGA1071+004271999GE19MSL   +99999+99999GF199999071999004271999999MA1099701999999MW1101MW2611OC102011REMMET065METAR ETNT 101120Z 24026G39KT 5000 -RA BR BKN014 11/09 Q0997 GRN=
0190101260999992015011011504+53548+007667FM-16+000899999V0202601N017510036619N003000199+01101+00901999999ADDGA1071+003661999GE19MSL   +99999+99999GF199999071999003661999999MA1099701999999MW1101MW2631OC102571REMMET079SPECI ETNT 101150Z 26034G50KT 3000 R26/1300N RA BR BKN012 11/09 Q0997      YLO=
0200101260999992015011012024+53548+007667FM-16+000899999V0202701N018510121919N009999199+00901+00601999999ADDGA1041+003661999GA2071+012191999GE19MSL   +99999+99999GF199999041999003661999999MA1099801999999MW1611OC102781REMMET079SPECI ETNT 101202Z 27036G54KT 9999 -RA SCT012 BKN040 09/06 Q0998 RERA      BLU=
0185101260999992015011012204+53548+007667FM-15+000899999V0202801N014910137219N009999199+00901+00401999999ADDGA1021+003661999GA2071+013721999GE19MSL   +99999+99999GF199999021999003661999999MA1099801999999OC102011REMMET070METAR ETNT 101220Z 28029G39KT 9999 FEW012 BKN045 09/04 Q0998 RERA BLU=
0180101260999992015011012304+53548+007667FM-16+000899999V0202801N014410152419N009999199+00901+00301999999ADDGA1021+004271999GA2071+015241999GE19MSL   +99999+99999GF199999021999004271999999MA1099801999999OC101961REMMET065SPECI ETNT 101230Z 28028G38KT 9999 FEW014 BKN050 09/03 Q0998 BLU=
0181101260999992015011013204+53548+007667FM-15+000899999V0202801N01651021341CN009999199+00901+00301999999ADDGA1021+004881999GA2041+021341999GE19MSL   +99999+99999GF199999021999004881999999MA1099901999999OC102421REMMET066METAR ETNT 101320Z 28032G47KT 9999 FEW016 SCT070 09/03 Q0999 BLU+=
0181101260999992015011014204+53548+007667FM-15+000899999V0202801N016010640119N009999199+00801+00201999999ADDGA1021+004881999GA2071+064011999GE19MSL   +99999+99999GF199999021999004881999999MA1100001999999OC102211REMMET066METAR ETNT 101420Z 28031G43KT 9999 FEW016 BKN210 08/02 Q1000 BLU+=
0181101260999992015011015204+53548+007667FM-15+000899999V0202801N016010640119N009999199+00701+00001999999ADDGA1021+006101999GA2071+064011999GE19MSL   +99999+99999GF199999021999006101999999MA1100201999999OC102271REMMET066METAR ETNT 101520Z 28031G44KT 9999 FEW020 BKN210 07/00 Q1002 BLU+=
0181101260999992015011015294+53548+007667FM-16+000899999V0202801N01651064011CN009999199+00701+00001999999ADDGA1021+006101999GA2041+064011999GE19MSL   +99999+99999GF199999021999006101999999MA1100201999999OC102421REMMET066SPECI ETNT 101529Z 28032G47KT 9999 FEW020 SCT210 07/00 Q1002 BLU+=
0171101260999992015011016204+53548+007667FM-15+000899999V0202801N01651064011CN009999199+00701+00001999999ADDGA1021+006101999GA2041+064011999GE19MSL   +99999+99999GF199999021999006101999999MA1100301999999REMMET064METAR ETNT 101620Z 28032KT 9999 FEW020 SCT210 07/M00 Q1003 BLU+=
0186101260999992015011017204+53548+007667FM-15+000899999V0202801N01541064011CN009999199+00701+00001999999ADDGA1041+012191999GA2041+064011999GE19MSL   +99999+99999GF199999041999012191999999MA1100401999999OC102321REMMET071METAR COR ETNT 101720Z 28030G45KT 9999 SCT040 SCT210 07/M00 Q1004 BLU+=
0198101260999992015011018204+53548+007667FM-15+000899999V0202801N014410182919N009999199+00601+00001999999ADDGA1041+009751999GA2071+018291999GE19MSL   +99999+99999GF199999041999009751999999MA1100501999999MW1581OC101961REMMET077METAR ETNT 101820Z 28028G38KT 9999 -RADZ SCT032 BKN060 06/M00 Q1005      BLU=
0182101260999992015011019204+53548+007667FM-15+000899999V0202801N01491060961CN009999199+00601-00101999999ADDGA1021+012191999GA2041+060961999GE19MSL   +99999+99999GF199999021999012191999999MA1100601999999OC102111REMMET067METAR ETNT 101920Z 28029G41KT 9999 FEW040 SCT200 06/M01 Q1006 BLU+=
0171101260999992015011020204+53548+007667FM-15+000899999V0202701N01391060961CN009999199+00601-00101999999ADDGA1021+009141999GA2041+060961999GE19MSL   +99999+99999GF199999021999009141999999MA1100601999999REMMET064METAR ETNT 102020Z 27027KT 9999 FEW030 SCT200 06/M01 Q1006 BLU+=
0159101260999992015011021204+53548+007667FM-15+000899999V0202801N012919999999N009999199+00601-00101999999ADDGA1021+010671999GE19MSL   +99999+99999GF199999021999010671999999MA1100701999999OC101801REMMET060METAR ETNT 102120Z 28025G35KT 9999 FEW035 06/M01 Q1007 BLU+=
0148101260999992015011022204+53548+007667FM-15+000899999V0202701N013919999999N009999199+00601-00101999999ADDGA1041+010671999GE19MSL   +99999+99999GF199999041999010671999999MA1100701999999REMMET057METAR ETNT 102220Z 27027KT 9999 SCT035 06/M01 Q1007 BLU+=
0182101260999992015011023204+53548+007667FM-15+000899999V0202701N01391060961CN009999199+00501-00101999999ADDGA1021+009141999GA2041+060961999GE19MSL   +99999+99999GF199999021999009141999999MA1100701999999OC101901REMMET067METAR ETNT 102320Z 27027G37KT 9999 FEW030 SCT200 05/M01 Q1007 BLU+=
0182101260999992015011100204+53548+007667FM-15+000899999V0202701N01241064011CN009999199+00501+00001999999ADDGA1021+009141999GA2041+064011999GE19MSL   +99999+99999GF199999021999009141999999MA1100701999999OC101801REMMET067METAR ETNT 110020Z 27024G35KT 9999 FEW030 SCT210 05/M00 Q1007 BLU+=
0180101260999992015011101204+53548+007667FM-15+000899999V0202601N011810152419N009999199+00601+00001999999ADDGA1021+008531999GA2071+015241999GE19MSL   +99999+99999GF199999021999008531999999MA1100601999999OC101701REMMET065METAR ETNT 110120Z 26023G33KT 9999 FEW028 BKN050 06/00 Q1006 BLU=
0169101260999992015011102204+53548+007667FM-15+000899999V0202601N012910152419N009999199+00601+00001999999ADDGA1021+008231999GA2071+015241999GE19MSL   +99999+99999GF199999021999008231999999MA1100601999999REMMET062METAR ETNT 110220Z 26025KT 9999 FEW027 BKN050 06/00 Q1006 BLU=
0183101260999992015011103204+53548+007667FM-15+000899999V0202601N009810152419N009999199+00501+00001999999ADDGA1021+008231081GA2071+015241999GE19MSL   +99999+99999GF199999021999008231999999MA1100501999999OC101541REMMET068METAR ETNT 110320Z 26019G30KT 9999 FEW027TCU BKN050 05/00 Q1005 BLU=
0172101260999992015011104204+53548+007667FM-15+000899999V0202601N010810152419N009999199+00401+00001999999ADDGA1021+007621081GA2071+015241999GE19MSL   +99999+99999GF199999021999007621999999MA1100501999999REMMET065METAR ETNT 110420Z 26021KT 9999 FEW025TCU BKN050 04/00 Q1005 BLU=
0169101260999992015011105204+53548+007667FM-15+000899999V0202601N008210121919N009999199+00401+00101999999ADDGA1021+006101999GA2071+012191999GE19MSL   +99999+99999GF199999021999006101999999MA1100501999999REMMET062METAR ETNT 110520Z 26016KT 9999 FEW020 BKN040 04/01 Q1005 BLU=
0208101260999992015011106204+53548+007667FM-15+000899999V0202701N01131015241CN009999199+00401+00001999999ADDGA1021+006711999GA2041+015241999GA3071+039621999GE19MSL   +99999+99999GF199999021999006711999999MA1100501999999OC101651REMMET077METAR ETNT 110620Z 27022G32KT 9999 FEW022 SCT050 BKN130 04/00 Q1005      BLU=
0169101260999992015011107204+53548+007667FM-15+000899999V0202701N011810121919N009999199+00501+00101999999ADDGA1041+007321999GA2071+012191999GE19MSL   +99999+99999GF199999041999007321999999MA1100501999999REMMET062METAR ETNT 110720Z 27023KT 9999 SCT024 BKN040 05/01 Q1005 BLU=
0189101260999992015011108204+53548+007667FM-15+000899999V0202801N012410152419N009999199+00501+00001999999ADDGA1041+007621081GA2071+015241999GE19MSL   +99999+99999GF199999041999007621999999MA1100601999999MW1801REMMET076METAR ETNT 110820Z 28024KT 9999 -SHRA SCT025TCU BKN050 05/00 Q1006      BLU=
0211101260999992015011109014+53548+007667FM-16+000899999V0202801N01241006101CN009999199+00401+00101999999ADDGA1021+003051999GA2041+006101091GA3071+010971999GE19MSL   +99999+99999GF199999021999003051999999MA1100601999999MW1871REMMET082SPECI ETNT 110901Z 28024KT 9999 -SHGS FEW010 SCT020CB BKN036 04/01      Q1006 BLU=
0192101260999992015011109204+53548+007667FM-15+000899999V0202801N01291007321CN009999199+00501+00101999999ADDGA1021+003051999GA2041+007321999GA3071+010971999GE19MSL   +99999+99999GF199999021999003051999999MA1100601999999REMMET069METAR ETNT 110920Z 28025KT 9999 FEW010 SCT024 BKN036 05/01 Q1006 BLU=
0181101260999992015011109414+53548+007667FM-16+000899999V0202801N01491007621CN009999199+00501+00001999999ADDGA1021+003051999GA2041+007621999GE19MSL   +99999+99999GF199999021999003051999999MA1100601999999OC102111REMMET066SPECI ETNT 110941Z 28029G41KT 9999 FEW010 SCT025 05/00 Q1006 BLU+=
0173101260999992015011110204+53548+007667FM-15+000899999V0202801N01181012191CN009999199+00601+00001999999ADDGA1041+007621081GA2041+012191999GE19MSL   +99999+99999GF199999041999007621999999MA1100701999999REMMET066METAR ETNT 111020Z 28023KT 9999 SCT025TCU SCT040 06/00 Q1007 BLU+=
0171101260999992015011111204+53548+007667FM-15+000899999V0202801N01601018291CN009999199+00601+00001999999ADDGA1041+009141999GA2041+018291999GE19MSL   +99999+99999GF199999041999009141999999MA1100801999999REMMET064METAR ETNT 111120Z 28031KT 9999 SCT030 SCT060 06/M00 Q1008 BLU+=
0181101260999992015011112204+53548+007667FM-15+000899999V0202801N014910152419N009999199+00701+00001999999ADDGA1041+009751999GA2071+015241999GE19MSL   +99999+99999GF199999041999009751999999MA1100801999999OC102061REMMET066METAR ETNT 111220Z 28029G40KT 9999 SCT032 BKN050 07/M00 Q1008 BLU=
0181101260999992015011113204+53548+007667FM-15+000899999V0202801N014910134119N009999199+00701+00001999999ADDGA1021+007621999GA2071+013411999GE19MSL   +99999+99999GF199999021999007621999999MA1100901999999OC102011REMMET066METAR ETNT 111320Z 28029G39KT 9999 FEW025 BKN044 07/M00 Q1009 BLU=
0180101260999992015011114204+53548+007667FM-15+000899999V0202801N014910152419N009999199+00601+00001999999ADDGA1021+009141999GA2071+015241999GE19MSL   +99999+99999GF199999021999009141999999MA1100901999999OC102321REMMET065METAR ETNT 111420Z 28029G45KT 9999 FEW030 BKN050 06/00 Q1009 BLU=
0180101260999992015011115204+53548+007667FM-15+000899999V0202801N013910152419N009999199+00601+00101999999ADDGA1041+008231999GA2071+015241999GE19MSL   +99999+99999GF199999041999008231999999MA1101001999999OC101961REMMET065METAR ETNT 111520Z 28027G38KT 9999 SCT027 BKN050 06/01 Q1010 BLU=
0192101260999992015011116204+53548+007667FM-15+000899999V0202801N01441012191CN009999199+00601+00201999999ADDGA1021+006711999GA2041+012191999GA3071+045721999GE19MSL   +99999+99999GF199999021999006711999999MA1101101999999REMMET069METAR ETNT 111620Z 28028KT 9999 FEW022 SCT040 BKN150 06/02 Q1011 BLU=
0157101260999992015011117204+53548+007667FM-15+000899999V0202801N011810061019N009999199+00701+00301999999ADDGA1071+006101999GE19MSL   +99999+99999GF199999071999006101999999MA1101101999999OC101751REMMET058METAR ETNT 111720Z 28023G34KT 9999 BKN020 07/03 Q1011 WHT=
0209101260999992015011118204+53548+007667FM-15+000899999V0202801N010310137219N008000199+00501+00301999999ADDGA1041+004571999GA2071+013721999GA3071+027431999GE19MSL   +99999+99999GF199999041999004571999999MA1101201999999MW1801REMMET080METAR ETNT 111820Z 28020KT 8000 -SHRA SCT015 BKN045 BKN090 05/03 Q1012      BLU=
0192101260999992015011119204+53548+007667FM-15+000899999V0202701N013410121919N009999199+00601+00401999999ADDGA1041+003961999GA2071+012191999GA3071+027431999GE19MSL   +99999+99999GF199999041999003961999999MA1101201999999REMMET069METAR ETNT 111920Z 27026KT 9999 SCT013 BKN040 BKN090 06/04 Q1012 BLU=
0156101260999992015011120204+53548+007667FM-15+000899999V0202801N008810045719N008000199+00601+00401999999ADDGA1071+004571999GE19MSL   +99999+99999GF199999071999004571999999MA1101201999999MW1611REMMET059METAR ETNT 112020Z 28017KT 8000 -RA BKN015 06/04 Q1012 WHT=
0180101260999992015011121204+53548+007667FM-15+000899999V0202601N010810061019N009999199+00601+00401999999ADDGA1071+006101999GA2071+012191999GE19MSL   +99999+99999GF199999071999006101999999MA1101301999999OC101601REMMET065METAR ETNT 112120Z 26021G31KT 9999 BKN020 BKN040 06/04 Q1013 WHT=
0157101260999992015011122204+53548+007667FM-15+000899999V0202601N010310061019N009999199+00701+00301999999ADDGA1071+006101999GE19MSL   +99999+99999GF199999071999006101999999MA1101401999999OC101601REMMET058METAR ETNT 112220Z 26020G31KT 9999 BKN020 07/03 Q1014 WHT=
0157101260999992015011123204+53548+007667FM-15+000899999V0202501N009310070119N009999199+00601+00301999999ADDGA1071+007011999GE19MSL   +99999+99999GF199999071999007011999999MA1101301999999OC101441REMMET058METAR ETNT 112320Z 25018G28KT 9999 BKN023 06/03 Q1013 WHT=
0192101260999992015011200204+53548+007667FM-15+000899999V0202501N009810091419N009999199+00601+00301999999ADDGA1021+006101999GA2071+009141999GA3071+021341999GE19MSL   +99999+99999GF199999021999006101999999MA1101301999999REMMET069METAR ETNT 120020Z 25019KT 9999 FEW020 BKN030 BKN070 06/03 Q1013 BLU=
0169101260999992015011201204+53548+007667FM-15+000899999V0202501N009310054919N009999199+00701+00401999999ADDGA1071+005491999GA2071+009141999GE19MSL   +99999+99999GF199999071999005491999999MA1101201999999REMMET062METAR ETNT 120120Z 25018KT 9999 BKN018 BKN030 07/04 Q1012 WHT=
0146101260999992015011202204+53548+007667FM-15+000899999V0202501N009310045719N009999199+00701+00401999999ADDGA1071+004571999GE19MSL   +99999+99999GF199999071999004571999999MA1101201999999REMMET055METAR ETNT 120220Z 25018KT 9999 BKN015 07/04 Q1012 WHT=
0169101260999992015011202504+53548+007667FM-16+000899999V0202401N008810045719N009999199+00701+00401999999ADDGA1071+004571999GA2071+018291999GE19MSL   +99999+99999GF199999071999004571999999MA1101101999999REMMET062SPECI ETNT 120250Z 24017KT 9999 BKN015 BKN060 07/04 Q1011 WHT=
0169101260999992015011203204+53548+007667FM-15+000899999V0202401N008210045719N009999199+00701+00401999999ADDGA1071+004571999GA2071+019811999GE19MSL   +99999+99999GF199999071999004571999999MA1101101999999REMMET062METAR ETNT 120320Z 24016KT 9999 BKN015 BKN065 07/04 Q1011 WHT=
0199101260999992015011204204+53548+007667FM-15+000899999V0202401N009810051819N009999199+00701+00401999999ADDGA1071+005181999GA2071+013721999GE19MSL   +99999+99999GF199999071999005181999999MA1101001999999OC101491REMMET084METAR ETNT 120420Z 24019G29KT 9999 BKN017 BKN045 07/04 Q1010 WHT WHT      TEMPO GRN=
0176101260999992015011205204+53548+007667FM-15+000899999V0202301N008810057919N009999199+00701+00401999999ADDGA1071+005791999GE19MSL   +99999+99999GF199999071999005791999999MA1100901999999OC101441REMMET077METAR ETNT 120520Z 23017G28KT 9999 BKN019 07/04 Q1009 WHT WHT TEMPO      GRN=
0160101260999992015011206204+53548+007667FM-15+000899999V0202401N010310057919N009999199+00701+00401999999ADDGA1071+005791999GE19MSL   +99999+99999GF199999071999005791999999MA1100901999999REMMET069METAR ETNT 120620Z 24020KT 9999 BKN019 07/04 Q1009 WHT WHT TEMPO GRN=
0176101260999992015011207204+53548+007667FM-15+000899999V0202401N010310067119N009999199+00801+00401999999ADDGA1071+006711999GE19MSL   +99999+99999GF199999071999006711999999MA1100801999999OC101541REMMET077METAR ETNT 120720Z 24020G30KT 9999 BKN022 08/04 Q1008 WHT WHT TEMPO      GRN=
0186101260999992015011207514+53548+007667FM-16+000899999V0202301N011310067119N009999199+00801+00401999999ADDGA1071+006711999GE19MSL   +99999+99999GF199999071999006711999999MA1100801999999MW1611OC101801REMMET081SPECI ETNT 120751Z 23022G35KT 9999 -RA BKN022 08/04 Q1008 WHT WHT TEMPO      GRN=
0211101260999992015011208204+53548+007667FM-15+000899999V0202301N010810057919N009000199+00701+00401999999ADDGA1041+004271999GA2071+005791999GE19MSL   +99999+99999GF199999041999004271999999MA1100801999999MW1581OC101701REMMET090METAR ETNT 120820Z 23021G33KT 9000 -RADZ SCT014 BKN019 07/04 Q1008      WHT WHT TEMPO GRN=
0232101260999992015011209204+53548+007667FM-15+000899999V0202301N011810057919N009000199+00701+00501999999ADDGA1041+003661999GA2071+005791999GA3071+012501999GE19MSL   +99999+99999GF199999041999003661999999MA1100701999999MW1611OC101801REMMET095METAR ETNT 120920Z 23023G35KT 9000 -RA SCT012 BKN019 BKN041 07/05 Q1007      WHT WHT TEMPO GRN=
0198101260999992015011209324+53548+007667FM-16+000899999V0202301N011810036619N007000199+00701+00501999999ADDGA1071+003661999GA2071+005791999GE19MSL   +99999+99999GF199999071999003661999999MA1100701999999MW1611REMMET085SPECI ETNT 120932Z 23023KT 7000 -RA BKN012 BKN019 07/05 Q1007 GRN WHT      TEMPO GRN=
0209101260999992015011210034+53548+007667FM-16+000899999V0202301N010810024419N009000199+00701+00601999999ADDGA1071+002441999GA2071+006101999GE19MSL   +99999+99999GF199999071999002441999999MA1100601999999MW1611OC101651REMMET088SPECI ETNT 121003Z 23021G32KT 9000 -RA BKN008 BKN020 07/06 Q1006 GRN      WHT TEMPO GRN=
0209101260999992015011210204+53548+007667FM-15+000899999V0202301N012410036619N008000199+00701+00601999999ADDGA1071+003661999GA2081+009451999GE19MSL   +99999+99999GF199999071999003661999999MA1100601999999MW1611OC101901REMMET088METAR ETNT 121020Z 23024G37KT 8000 -RA BKN012 OVC031 07/06 Q1006 GRN      WHT TEMPO GRN=
0208101260999992015011211204+53548+007667FM-15+000899999V0202301N012910030519N007000199+00701+00601999999ADDGA1071+003051999GA2081+006401999GE19MSL   +99999+99999GF199999071999003051999999MA1100501999999MW1631OC101901REMMET087METAR ETNT 121120Z 23025G37KT 7000 RA BKN010 OVC021 07/06 Q1005 GRN      WHT TEMPO GRN=
0208101260999992015011211334+53548+007667FM-16+000899999V0202401N010810030519N009000199+00701+00601999999ADDGA1071+003051999GA2081+006401999GE19MSL   +99999+99999GF199999071999003051999999MA1100501999999MW1631OC101651REMMET087SPECI ETNT 121133Z 24021G32KT 9000 RA BKN010 OVC021 07/06 Q1005 GRN      WHT TEMPO GRN=
0208101260999992015011212204+53548+007667FM-15+000899999V0202301N011310030519N008000199+00701+00601999999ADDGA1071+003051999GA2081+006401999GE19MSL   +99999+99999GF199999071999003051999999MA1100401999999MW1631OC101701REMMET087METAR ETNT 121220Z 23022G33KT 8000 RA BKN010 OVC021 07/06 Q1004 GRN      WHT TEMPO GRN=
0208101260999992015011212234+53548+007667FM-16+000899999V0202301N011310030519N008000199+00701+00601999999ADDGA1071+003051999GA2081+006401999GE19MSL   +99999+99999GF199999071999003051999999MA1100501999999MW1631OC101851REMMET087SPECI ETNT 121223Z 23022G36KT 8000 RA BKN010 OVC021 07/06 Q1005 GRN      WHT TEMPO GRN=
0197101260999992015011213204+53548+007667FM-15+000899999V0202301N011810033519N008000199+00701+00601999999ADDGA1071+003351999GA2081+005491999GE19MSL   +99999+99999GF199999071999003351999999MA1100401999999MW1631REMMET084METAR ETNT 121320Z 23023KT 8000 RA BKN011 OVC018 07/06 Q1004 GRN WHT      TEMPO GRN=
0214101260999992015011214204+53548+007667FM-15+000899999V0202301N010310033519N009000199+00801+00601999999ADDGA1071+003351999GA2071+005791999GE19MSL   +99999+99999GF199999071999003351999999MA1100401999999MW1611OC101541REMMET093METAR ETNT 121420Z 23020G30KT 9000 -RA BKN011 BKN019 08/06 Q1004 RERA      GRN WHT TEMPO GRN=
0209101260999992015011215204+53548+007667FM-15+000899999V0202401N009310033519N009999199+00801+00701999999ADDGA1071+003351999GA2071+005791999GE19MSL   +99999+99999GF199999071999003351999999MA1100501999999MW1611OC101491REMMET088METAR ETNT 121520Z 24018G29KT 9999 -RA BKN011 BKN019 08/07 Q1005 GRN      WHT TEMPO GRN=
0199101260999992015011216204+53548+007667FM-15+000899999V0202301N009310033519N005000199+00801+00701999999ADDGA1071+003351999GA2071+004881999GE19MSL   +99999+99999GF199999071999003351999999MA1100501999999MW1101MW2581REMMET080METAR ETNT 121620Z 23018KT 5000 -RADZ BR BKN011 BKN016 08/07 Q1005      GRN GRN=
0199101260999992015011217204+53548+007667FM-15+000899999V0202301N009310024419N006000199+00801+00701999999ADDGA1071+002441999GA2071+004271999GE19MSL   +99999+99999GF199999071999002441999999MA1100401999999MW1591REMMET086METAR ETNT 121720Z 23018KT 6000 RADZ BKN008 BKN014 08/07 Q1004 GRN      GRN TEMPO YLO=
0216101260999992015011218204+53548+007667FM-15+000899999V0202301N010810027419N006000199+00801+00701999999ADDGA1071+002741999GA2071+004271999GE19MSL   +99999+99999GF199999071999002741999999MA1100501999999MW1581OC101601REMMET095METAR ETNT 121820Z 23021G31KT 6000 -RADZ BKN009 BKN014 08/07 Q1005      REDZ GRN GRN TEMPO YLO=
0205101260999992015011219204+53548+007667FM-15+000899999V0202301N009310027419N006000199+00901+00701999999ADDGA1071+002741999GA2071+004271999GE19MSL   +99999+99999GF199999071999002741999999MA1100501999999MW1581REMMET092METAR ETNT 121920Z 23018KT 6000 -RADZ BKN009 BKN014 09/07 Q1005 REDZ      GRN GRN TEMPO YLO=
0225101260999992015011220204+53548+007667FM-15+000899999V0202401N009810024419N005000199+00901+00801999999ADDGA1071+002441999GA2071+003661999GE19MSL   +99999+99999GF199999071999002441999999MA1100501999999MW1101MW2581OC101541REMMET098METAR ETNT 122020Z 24019G30KT 5000 -RADZ BR BKN008 BKN012 09/08 Q1005      REDZ GRN GRN TEMPO YLO=
0212101260999992015011220434+53548+007667FM-16+000899999V0202401N009810024419N005000199+00901+00801999999ADDGA1071+002441999GA2071+003661999GE19MSL   +99999+99999GF199999071999002441999999MA1100501999999MW1101MW2581REMMET093SPECI ETNT 122043Z 24019KT 5000 -RADZ BR BKN008 BKN012 09/08 Q1005      REDZ GRN FCST CANCEL=
0199101260999992015011221204+53548+007667FM-15+000899999V0202401N007710021319N005000199+00901+00801999999ADDGA1071+002131999GA2071+003661999GE19MSL   +99999+99999GF199999071999002131999999MA1100501999999MW1101MW2581REMMET080METAR COR ETNT 122120Z 24015KT 5000 -RADZ BR BKN007 BKN012 09/08 Q1005      GRN=
0195101260999992015011222204+53548+007667FM-15+000899999V0202701N007210054919N005000199+00701+00601999999ADDGA1041+002131999GA2071+005491999GE19MSL   +99999+99999GF199999041999002131999999MA1100501999999MW1101MW2581REMMET076METAR ETNT 122220Z 27014KT 5000 -RADZ BR SCT007 BKN018 07/06 Q1005      WHT=
0167101260999992015011223204+53548+007667FM-15+000899999V0202601N004610054919N005000199+00501+00301999999ADDGA1071+005491999GE19MSL   +99999+99999GF199999071999005491999999MA1100501999999MW1101MW2581REMMET064METAR ETNT 122320Z 26009KT 5000 -RADZ BR BKN018 05/03 Q1005 WHT=
0167101260999992015011300204+53548+007667FM-15+000899999V0202501N002610070119N005000199+00501+00401999999ADDGA1071+007011999GE19MSL   +99999+99999GF199999071999007011999999MA1100501999999MW1101MW2581REMMET064METAR ETNT 130020Z 25005KT 5000 -RADZ BR BKN023 05/04 Q1005 WHT=
0188101260999992015011301204+53548+007667FM-15+000899999V0201901N002610048819N004000199+00501+00401999999ADDGA1041+000911999GA2071+004881999GE19MSL   +99999+99999GF199999041999000911999999MA1100401999999MW1101MW2511REMMET069METAR ETNT 130120Z 19005KT 4000 -DZ BR SCT003 BKN016 05/04 Q1004 GRN=
0188101260999992015011302204+53548+007667FM-15+000899999V0201801N003610009119N004000199+00501+00501999999ADDGA1071+000911999GA2071+003961999GE19MSL   +99999+99999GF199999071999000911999999MA1100301999999MW1101MW2511REMMET069METAR ETNT 130220Z 18007KT 4000 -DZ BR BKN003 BKN013 05/05 Q1003 YLO=
0167101260999992015011303204+53548+007667FM-15+000899999V0202001N005110018319N004000199+00801+00701999999ADDGA1071+001831999GE19MSL   +99999+99999GF199999071999001831999999MA1100201999999MW1101MW2581REMMET064METAR ETNT 130320Z 20010KT 4000 -DZRA BR BKN006 08/07 Q1002 YLO=
0167101260999992015011304204+53548+007667FM-15+000899999V0202101N008810018319N005000199+00901+00801999999ADDGA1071+001831999GE19MSL   +99999+99999GF199999071999001831999999MA1100101999999MW1101MW2581REMMET064METAR ETNT 130420Z 21017KT 5000 -DZRA BR BKN006 09/08 Q1001 YLO=
0197101260999992015011305204+53548+007667FM-15+000899999V0202101N010310021319N005000199+00901+00801999999ADDGA1071+002131999GE19MSL   +99999+99999GF199999071999002131999999MA1100001999999MW1101MW2581OC101651REMMET086METAR ETNT 130520Z 21020G32KT 5000 -RADZ BR BKN007 09/08 Q1000 GRN      GRN TEMPO YLO=
0197101260999992015011305494+53548+007667FM-16+000899999V0202201N010310021319N005000199+00901+00801999999ADDGA1071+002131999GE19MSL   +99999+99999GF199999071999002131999999MA1099901999999MW1101MW2581OC101851REMMET086SPECI ETNT 130549Z 22020G36KT 5000 -RADZ BR BKN007 09/08 Q0999 GRN      GRN TEMPO YLO=
0197101260999992015011306204+53548+007667FM-15+000899999V0202301N008810021319N005000199+00901+00801999999ADDGA1071+002131999GE19MSL   +99999+99999GF199999071999002131999999MA1099901999999MW1101MW2581OC101391REMMET086METAR ETNT 130620Z 23017G27KT 5000 -RADZ BR BKN007 09/08 Q0999 GRN      GRN TEMPO YLO=
0186101260999992015011307204+53548+007667FM-15+000899999V0202201N008210027419N005000199+00901+00901999999ADDGA1071+002741999GE19MSL   +99999+99999GF199999071999002741999999MA1099901999999MW1101MW2581REMMET083METAR ETNT 130720Z 22016KT 5000 -DZRA BR BKN009 09/09 Q0999 GRN GRN      TEMPO YLO=
0186101260999992015011308204+53548+007667FM-15+000899999V0202201N009310027419N005000199+00901+00801999999ADDGA1071+002741999GE19MSL   +99999+99999GF199999071999002741999999MA1099901999999MW1101MW2581REMMET083METAR ETNT 130820Z 22018KT 5000 -DZRA BR BKN009 09/08 Q0999 GRN GRN      TEMPO YLO=
0214101260999992015011309204+53548+007667FM-15+000899999V0202201N008210030519N005000199+00901+00801999999ADDGA1021+002131999GA2071+003051999GE19MSL   +99999+99999GF199999021999002131999999MA1099901999999MW1101MW2581REMMET095METAR ETNT 130920Z 22016KT 5000 -RADZ BR FEW007 BKN010 09/08 Q0999      RERA GRN GRN TEMPO YLO=
