0145101360999992007010100204+53767+008667FM-15+0032ETMN V0202301N009310021019N0080001N1+01001+00901999999ADDGA1071+002101999GF107991999999999999999999MA1100201999999MW1611OC101541REMMET062METAR ETMN 010020Z 23018G30KT 8000 -RA BKN007 10/09 Q1002 GRN;
0251101360999992007010101004+53767+008667FM-12+0032ETMN V0202401N011010021019N0120001N1+01021+00901100221ADDAY161999AY221999GA1051+002101071GA2071+003001071GF108991071071002501999999MA1999999099841MD1610541+9999MW1211OA149999999REMSYN100AAXX  01011 10136 41362 82411 10102 20090 39984 40022 56054 72162 877// 333 85707 87710 91116 91211;EQDQ01  00822WGOSPD
0147101360999992007010101204+53767+008667FM-15+0032ETMN V0202601N011310054019N0112651N1+01101+00801999999ADDGA1041+002701999GA2071+005401999GF107991999999999999999999MA1100201999999REMMET062METAR ETMN 010120Z 26022KT 9999 SCT009 BKN018 11/08 Q1002 WHT;
0245101360999992007010102004+53767+008667FM-12+0032ETMN V0202601N010010300019N0180001N1+00981+00651100211ADDGA1031+004501061GA2041+030001031GA3051+066001001GF107991031051004501031021MA1999999099831MD1610301+9999OA149999999REMSYN100AAXX  01021 10136 42468 72610 10098 20065 39983 40021 56030 83532 333 83615 84360 85072 91117 91212;EQDQ01  00882WGOSPD
0148101360999992007010102204+53767+008667FM-15+0032ETMN V0202601N011312200019N0112651N1+01001+00601999999ADDGA1041+007201999GA2041+066001999GF104991999999999999999999MA1100201999999REMMET063METAR ETMN 010220Z 26022KT 9999 SCT024 SCT220 10/06 Q1002 BLU+;
0148101360999992007010103204+53767+008667FM-15+0032ETMN V0202601N009812200019N0112651N1+00901+00401999999ADDGA1021+006001999GA2041+066001999GF104991999999999999999999MA1100201999999REMMET063METAR ETMN 010320Z 26019KT 9999 FEW020 SCT220 09/04 Q1002 BLU+;
0201101360999992007010104004+53767+008667FM-12+0032ETMN V0202501N010012200019N0250001N1+00861+00491100171ADDGA1031+007501061GF104991031051008001031011MA1999999099791MD1810051+9999OA149999999REMSYN088AAXX  01041 10136 42575 42510 10086 20049 39979 40017 58005 83531 333 83625 91115 91211;EQDQ01  00772WGOSPD
0159101360999992007010104204+53767+008667FM-15+0032ETMN V0202501N010312200019N0112651N1+00901+00501999999ADDGA1041+007501999GA2041+066001999GF104991999999999999999999MA1100101999999OC101651REMMET066METAR ETMN 010420Z 25020G32KT 9999 SCT025 SCT220 09/05 Q1001 BLU+;
0201101360999992007010105004+53767+008667FM-12+0032ETMN V0202501N011010075019N0250001N1+00861+00491100121ADDGA1071+007501061GF107991071051008001999999MA1999999099741MD1810091+9999OA149999999REMSYN088AAXX  01051 10136 42575 72511 10086 20049 39974 40012 58009 875// 333 87625 91117 91212;EQDQ01  00882WGOSPD
0135101360999992007010105204+53767+008667FM-15+0032ETMN V0202501N011310069019N0112651N1+00901+00501999999ADDGA1071+006901999GF107991999999999999999999MA1100001999999OC101751REMMET058METAR ETMN 010520Z 25022G34KT 9999 BKN023 09/05 Q1000 WHT;
0135101360999992007010106204+53767+008667FM-15+0032ETMN V0202501N011810069019N0112651N1+00801+00401999999ADDGA1071+006901999GF107991999999999999999999MA1100001999999OC101751REMMET058METAR ETMN 010620Z 25023G34KT 9999 BKN023 08/04 Q1000 WHT;
0207101360999992007010107004+53767+008667FM-12+0032ETMN V0202601N011010075019N0200001N1+00801+00431100111ADDGA1051+007501061GF105991051051008001001001MA1999999099731MD1510061+9999OA149999999REMSYN094AAXX  01071 10136 42570 52611 10080 20043 39973 40011 55006 85500 333 85625 91017 91119 91213;EQDQ01  00982WGOSPD
0135101360999992007010107204+53767+008667FM-15+0032ETMN V0202501N012310072019N0112651N1+00801+00401999999ADDGA1071+007201999GF107991999999999999999999MA1100101999999OC101801REMMET058METAR ETMN 010720Z 25024G35KT 9999 BKN024 08/04 Q1001 WHT;
0207101360999992007010108004+53767+008667FM-12+0032ETMN V0202601N014010072019N0200001N1+00811+00391100141ADDGA1071+007201061GF107991071051008001999999MA1999999099761MD1310021+9999OA149999999REMSYN094AAXX  01081 10136 42570 72614 10081 20039 39976 40014 53002 875// 333 87624 91019 91121 91214;EQDQ01  01082WGOSPD
0125101360999992007010108204+53767+008667FM-15+0032ETMN V0202601N012912200019N0112651N1+00801+00401999999ADDGA1041+007501999GF104991999999999999999999MA1100101999999REMMET056METAR ETMN 010820Z 26025KT 9999 SCT025 08/04 Q1001 BLU+;
0136101360999992007010109204+53767+008667FM-15+0032ETMN V0202601N012312200019N0112651N1+00801+00401999999ADDGA1041+007801999GF104991999999999999999999MA1100201999999OC101751REMMET059METAR ETMN 010920Z 26024G34KT 9999 SCT026 08/04 Q1002 BLU+;
0207101360999992007010110004+53767+008667FM-12+0032ETMN V0202601N013012200019N0200001N1+00801+00391100251ADDGA1031+008101061GF103991031051008001001001MA1999999099871MD1210141+9999OA149999999REMSYN094AAXX  01101 10136 42570 32613 10080 20039 39987 40025 52014 83500 333 83627 91019 91119 91213;EQDQ01  00982WGOSPD
0159101360999992007010110204+53767+008667FM-15+0032ETMN V0202601N012912200019N0112651N1+00801+00401999999ADDGA1021+007501999GA2041+012001999GF104991999999999999999999MA1100201999999OC101851REMMET066METAR ETMN 011020Z 26025G36KT 9999 FEW025 SCT040 08/04 Q1002 BLU+;
0229101360999992007010111004+53767+008667FM-12+0032ETMN V0202601N012010126019N0250001N1+00821+00411100291ADDGA1011+007501081GA2051+012601061GF105991051081008001001001MA1999999099911MD1210151+9999OA149999999REMSYN100AAXX  01111 10136 42575 52612 10082 20041 39991 40029 52015 85800 333 81825 85642 91017 91118 91213;EQDQ01  00932WGOSPD
0159101360999992007010111204+53767+008667FM-15+0032ETMN V0202601N011812200019N0112651N1+00801+00401999999ADDGA1021+007501999GA2041+013501999GF104991999999999999999999MA1100311999999OC101701REMMET066METAR ETMN 011120Z 26023G33KT 9999 FEW025 SCT045 08/04 Q1003 BLU+;
0148101360999992007010112204+53767+008667FM-15+0032ETMN V0202601N010312200019N0112651N1+00801+00401999999ADDGA1021+007501999GA2041+013501999GF104991999999999999999999MA1100311999999REMMET063METAR ETMN 011220Z 26020KT 9999 FEW025 SCT045 08/04 Q1003 BLU+;
0223101360999992007010113004+53767+008667FM-12+0032ETMN V0202601N01001013801CN0180001N1+00811+00411100301ADDGA1021+007201081GA2031+013801061GF106991041081008001001011MA1999999099921MD1010051+9999OA149999999REMSYN094AAXX  01131 10136 42568 62610 10081 20041 39992 40030 50005 84801 333 82824 83646 91116 91211;EQDQ01  00822WGOSPD
0151101360999992007010113204+53767+008667FM-15+0032ETMN V0202701N010812200019N0112651N1+00801+00401999999ADDGA1021+007201021GA2041+066001999GF104991999999999999999999MA1100311999999REMMET066METAR ETMN 011320Z 27021KT 9999 FEW024TCU SCT220 08/04 Q1003 BLU+;
0292101360999992007010114004+53767+008667FM-12+0032ETMN V0202701N010010150019N0140001N1+00791+00381100341ADDGA1021+006601081GA2041+015001061GF107991051081008001001011MA1999999099961MD1210051+9999OA149999999OA259999999REMSYN136AAXX  01141 10136 42564 72710 10079 20038 39996 40034 52005 85801 333 82822 84650 91116 91212 555 BOT 10065 20069 30068 40072 999 31///;EQDQ01  00822WGOSPDQ02  00622WGOSPD
0150101360999992007010114204+53767+008667FM-15+0032ETMN V0202701N010312200019N0112651N1+00801+00401999999ADDGA1041+006001091GA2041+015001999GF104991999999999999999999MA1100311999999REMMET065METAR ETMN 011420Z 27020KT 9999 SCT020CB SCT050 08/04 Q1003 BLU+;
0138101360999992007010115204+53767+008667FM-15+0032ETMN V0202801N010812200019N0112651N1+00701+00301999999ADDGA1041+006001091GF104991999999999999999999MA1100411999999MW1161REMMET063METAR ETMN 011520Z 28021KT 9999 VCSH SCT020CB 07/03 Q1004 BLU+;
0229101360999992007010116004+53767+008667FM-12+0032ETMN V0202801N011012200019N0130001N1+00721+00321100501ADDAY121999AY221999GA1021+006001091GF104991031091008001001011MA1999999100121MD1210201+9999MW1251OA149999999REMSYN094AAXX  01161 10136 41563 42811 10072 20032 30012 40050 52020 72522 83901 333 82920 91116 91212;EQDQ01  00822WGOSPD
0127101360999992007010116204+53767+008667FM-15+0032ETMN V0202801N010312200019N0112651N1+00701+00301999999ADDGA1021+006301091GF102991999999999999999999MA1100511999999REMMET058METAR ETMN 011620Z 28020KT 9999 FEW021CB 07/03 Q1005 BLU+;
0138101360999992007010116274+53767+008667FM-16+0032ETMN V0202801N012312200019N0112651N1+00701+00301999999ADDGA1021+007501091GF102991999999999999999999MA1100511999999OC102011REMMET061SPECI ETMN 011627Z 28024G39KT 9999 FEW025CB 07/03 Q1005 BLU+;
0229101360999992007010117004+53767+008667FM-12+0032ETMN V0202801N011010060019N0150001N1+00681+00361100601ADDAY181999AY221999GA1051+006001091GF105991051091008001001001MA1999999100221MD1210261+9999MW1871OA149999999REMSYN094AAXX  01171 10136 41565 52811 10068 20036 30022 40060 52026 78782 85900 333 85920 91120 91214;EQDQ01  01032WGOSPD
0127101360999992007010117204+53767+008667FM-15+0032ETMN V0202801N010312200019N0112651N1+00701+00301999999ADDGA1021+006001091GF102991999999999999999999MA1100611999999REMMET058METAR ETMN 011720Z 28020KT 9999 FEW020CB 07/03 Q1006 BLU+;
0156101360999992007010117364+53767+008667FM-16+0032ETMN V0202801N009810054019N0040001N1+00701+00301999999ADDGA1071+005401091GF107991999999999999999999MA1100611999999MW1811MW2881OC101591REMMET067SPECI ETMN 011736Z 28019G31KT 4000 SHRAGS BKN018CB 07/03 Q1006 GRN;
0155101360999992007010117484+53767+008667FM-16+0032ETMN V0202901N010812200019N0112651N1+00601+00301999999ADDGA1021+006001091GA2041+045001999GF104991999999999999999999MA1100611999999REMMET070SPECI ETMN 011748Z 29021KT 9999 FEW020CB SCT150 06/03 Q1006 RERA BLU+;
0165101360999992007010118204+53767+008667FM-15+0032ETMN V0202801N009810105019N0112651N1+00701+00401999999ADDGA1021+006001091GA2071+010501999GF107991999999999999999999MA1100711999999OC101651REMMET072METAR ETMN 011820Z 28019G32KT 9999 FEW020CB BKN035 07/04 Q1007 RERA BLU;
0229101360999992007010119004+53767+008667FM-12+0032ETMN V0202601N010012200019N0150001N1+00701+00331100761ADDAY111999AY211999GA1021+012901061GF102991021051012501001001MA1999999100381MD1210261+9999MW1251OA149999999REMSYN094AAXX  01191 10136 41665 22610 10070 20033 30038 40076 52026 72511 82500 333 82643 91117 91211;EQDQ01  00882WGOSPD
0167101360999992007010119204+53767+008667FM-15+0032ETMN V0202601N009310105019N0080001N1+00601+00401999999ADDGA1041+006001091GA2071+010501999GF107991999999999999999999MA1100711999999MW1801MW2951REMMET070METAR ETMN 011920Z 26018KT 8000 -TSRA SCT020CB BKN035 06/04 Q1007 BLU;
0172101360999992007010120204+53767+008667FM-15+0032ETMN V0202701N010310120019N0080001N1+00601+00301999999ADDGA1041+006001091GA2071+012001999GF107991999999999999999999MA1100811999999MW1801OC101701REMMET073METAR ETMN 012020Z 27020G33KT 8000 -SHRA SCT020CB BKN040 06/03 Q1008 BLU;
0150101360999992007010121204+53767+008667FM-15+0032ETMN V0202601N009312200019N0112651N1+00601+00301999999ADDGA1021+006001091GA2041+018001999GF104991999999999999999999MA1100811999999REMMET065METAR ETMN 012120Z 26018KT 9999 FEW020CB SCT060 06/03 Q1008 BLU+;
0229101360999992007010122004+53767+008667FM-12+0032ETMN V0202601N009012200019N0150001N1+00651+00321100801ADDGA1011+006001091GA2041+012001061GF104991041091008001001001MA1999999100421MD1110041+9999OA149999999REMSYN100AAXX  01221 10136 42565 42609 10065 20032 30042 40080 51004 84900 333 81920 84640 91014 91117 91213;EQDQ01  00882WGOSPD
0150101360999992007010122204+53767+008667FM-15+0032ETMN V0202401N007212200019N0112651N1+00601+00301999999ADDGA1021+006001091GA2041+018001999GF104991999999999999999999MA1100811999999REMMET065METAR ETMN 012220Z 24014KT 9999 FEW020CB SCT060 06/03 Q1008 BLU+;
0187101360999992007010123004+53767+008667FM-12+0032ETMN V0202401N007012200019N0150001N1+00571+00331100781ADDGA1011+006001081GA2031+018001061GF103991031081008001001001MA1999999100401MD1810021+9999REMSYN088AAXX  01231 10136 42565 32407 10057 20033 30040 40078 58002 83800 333 81820 83656 91113;
0140101360999992007010123204+53767+008667FM-15+0032ETMN V0202501N008212200019N0112651N1+00601+00301999999ADDGA1041+006001021GF104991999999999999999999MA1100811999999MW1801REMMET065METAR ETMN 012320Z 25016KT 9999 -SHRA SCT020TCU 06/03 Q1008 BLU+;
0148101360999992007010200204+53767+008667FM-15+0032ETMN V0202501N008712200019N0112651N1+00601+00401999999ADDGA1021+006001999GA2041+012001999GF104991999999999999999999MA1100811999999REMMET063METAR ETMN 020020Z 25017KT 9999 FEW020 SCT040 06/04 Q1008 BLU+;
0165101360999992007010201004+53767+008667FM-12+0032ETMN V0202501N008010120019N0100001N1+00601+00371100761ADDGA1021+006001081GF105991051081008001001001MA1999999100381MD1710041+9999REMSYN082AAXX  02011 10136 42560 52508 10060 20037 30038 40076 57004 85800 333 82820 85640;
0166101360999992007010201204+53767+008667FM-15+0032ETMN V0202601N009310120019N0090001N1+00501+00301999999ADDGA1041+003601091GA2071+012001999GF107991999999999999999999MA1100711999999MW1801REMMET075METAR ETMN 020120Z 26018KT 9000 -SHRA SCT012CB BKN040 05/03 Q1007 RERA BLU;
0273101360999992007010202004+53767+008667FM-12+0032ETMN V0202501N012010090019N0090001N1+00551+00281100731ADDAY181999AY261999GA1011+003601081GA2051+009001061GA3071+015001061GF107991071081004501999999MA1999999100341MD1810061+9999MW1611OA149999999REMSYN106AAXX  02021 10136 41459 72512 10055 20028 30034 40073 58006 76186 878// 333 81812 85630 87650 91116 91212;EQDQ01  00822WGOSPD
0134101360999992007010202204+53767+008667FM-15+0032ETMN V0202601N010810060019N0090001N1+00501+00301999999ADDGA1071+006001999GF107991999999999999999999MA1100811999999MW1611REMMET059METAR ETMN 020220Z 26021KT 9000 -RA BKN020 05/03 Q1008 WHT;
0165101360999992007010203204+53767+008667FM-15+0032ETMN V0202701N006710054019N0050001N1+00401+00301999999ADDGA1041+002101999GA2071+005401999GF107991999999999999999999MA1100811999999MW1101MW2631REMMET068METAR ETMN 020320Z 27013KT 5000 RA BR SCT007 BKN018 04/03 Q1008 WHT;
0215101360999992007010204004+53767+008667FM-12+0032ETMN V0202401N00601002101CN0080001N1+00321+00231100771ADDAY161999AY221999GA1011+002401071GA2031+007501061GF107991071051002501999999MA1999999100381MD1010001+9999MW1211REMSYN094AAXX  02041 10136 41358 72406 10032 20023 30038 40077 50000 72162 875// 333 81708 83625 87657;
0170101360999992007010204204+53767+008667FM-15+0032ETMN V0202601N00671007501CN0090001N1+00401+00301999999ADDGA1021+002101999GA2041+007501999GA3071+018001999GF107991999999999999999999MA1100711999999REMMET069METAR ETMN 020420Z 26013KT 9000 FEW007 SCT025 BKN060 04/03 Q1007 BLU;
0187101360999992007010205004+53767+008667FM-12+0032ETMN V0202501N007010270019N0120001N1+00371+00261100781ADDGA1021+005401081GA2051+027001031GF107991021021004501071999MA1999999100391MD1010051+9999REMSYN088AAXX  02051 10136 42462 72507 10037 20026 30039 40078 50005 8227/ 333 82818 85359 87464;
0189101360999992007010205204+53767+008667FM-15+0032ETMN V0202501N00671005101CN0112651N1+00401+00301999999ADDGA1041+002101999GA2041+005101999GA3071+012001999GF107991999999999999999999MA1100711999999REMMET088METAR ETMN 020520Z 25013KT 9999 SCT007 SCT017 BKN040 04/03 Q1007 RERA BLU BLU+TEMPO GRN;
0172101360999992007010206204+53767+008667FM-15+0032ETMN V0202601N008210180019N0090001N1+00501+00301999999ADDGA1041+007501999GA2071+018001999GF107991999999999999999999MA1100811999999MW1161REMMET081METAR ETMN 020620Z 26016KT 9000 VCSH SCT025 BKN060 05/03 Q1008 BLU BLU+TEMPO GRN;
0279101360999992007010207004+53767+008667FM-12+0032ETMN V0202601N008010540019N0100001N1+00451+00311100881ADDAY121999AY221999GA1011+004201091GA2031+006001081GA3051+054001001GF107991041091004501001021MA1999999100491MD1310111+9999MW1151REMSYN142AAXX  02071 10136 41460 72608 10045 20031 30049 40088 53011 71522 84902 333 81914 83820 85068 555 BOT 10042 20054 30060 40071 50081 999 31///;
0174101360999992007010207204+53767+008667FM-15+0032ETMN V0202601N005710150019N0112651N1+00401+00301999999ADDGA1021+003001091GA2071+015001999GF107991999999999999999999MA1100811999999MW1161REMMET083METAR ETMN 020720Z 26011KT 9999 VCSH FEW010CB BKN050 04/03 Q1008 BLU BLU+TEMPO GRN;
0193101360999992007010208004+53767+008667FM-12+0032ETMN V0202601N00801004201CN0080001N1+00471+00321100921ADDAY121999AY221999GA1021+003301091GF107991071091004501999999MA1999999100531MD1210141+9999MW1871REMSYN088AAXX  02081 10136 41458 72608 10047 20032 30053 40092 52014 78722 879// 333 82911 85625;
0186101360999992007010208204+53767+008667FM-15+0032ETMN V0202501N00571009001CN0112651N1+00501+00301999999ADDGA1021+004501091GA2041+009001999GA3071+063001999GF107991999999999999999999MA1100911999999REMMET085METAR ETMN 020820Z 25011KT 9999 FEW015CB SCT030 BKN210 05/03 Q1009 BLU+BLU+TEMPO WHT;
0163101360999992007010209204+53767+008667FM-15+0032ETMN V0202601N006710180019N0112651N1+00501+00301999999ADDGA1041+006001091GA2071+018001999GF107991999999999999999999MA1100911999999REMMET078METAR ETMN 020920Z 26013KT 9999 SCT020CB BKN060 05/03 Q1009 BLU BLU+TEMPO WHT;
0193101360999992007010210004+53767+008667FM-12+0032ETMN V0202601N00801004201CN0150001N1+00541+00351100971ADDAY181999AY221999GA1021+004801091GF106991061091004501001001MA1999999100581MD1110091+9999MW1251REMSYN088AAXX  02101 10136 41465 62608 10054 20035 30058 40097 51009 72582 86900 333 82916 85630;
0186101360999992007010210204+53767+008667FM-15+0032ETMN V0202501N00671010501CN0112651N1+00601+00401999999ADDGA1021+006001091GA2041+010501999GA3071+063001999GF107991999999999999999999MA1101021999999REMMET085METAR ETMN 021020Z 25013KT 9999 FEW020CB SCT035 BKN210 06/04 Q1010 BLU+BLU+TEMPO WHT;
0187101360999992007010211004+53767+008667FM-12+0032ETMN V0202501N00701220001CN0170001N1+00571+00381101041ADDGA1011+006001091GA2031+009001061GF107991031091008001001011MA1999999100651MD1210121+9999REMSYN088AAXX  02111 10136 42567 72507 10057 20038 30065 40104 52012 83901 333 81920 83630 86072;
0186101360999992007010211204+53767+008667FM-15+0032ETMN V0202501N006710630019N0112651N1+00601+00401999999ADDGA1021+003901999GA2021+006001091GA3071+063001999GF107991999999999999999999MA1101021999999REMMET085METAR ETMN 021120Z 25013KT 9999 FEW013 FEW020CB BKN210 06/04 Q1010 BLU+BLU+TEMPO WHT;
0186101360999992007010212204+53767+008667FM-15+0032ETMN V0202601N00931015001CN0112651N1+00601+00401999999ADDGA1021+007501091GA2041+015001999GA3071+063001999GF107991999999999999999999MA1101021999999REMMET085METAR ETMN 021220Z 26018KT 9999 FEW025CB SCT050 BKN210 06/04 Q1010 BLU+BLU+TEMPO WHT;
0215101360999992007010213004+53767+008667FM-12+0032ETMN V0202601N008010072019N0080001N1+00571+00371101091ADDAY121999AY221999GA1031+003601081GA2031+007201091GF107991071091004501999999MA1999999100701MD1210121+9999MW1801REMSYN094AAXX  02131 10136 41458 72608 10057 20037 30070 40109 52012 78022 879// 333 83812 83924 87650;
0175101360999992007010213204+53767+008667FM-15+0032ETMN V0202601N007710072019N0090001N1+00601+00401999999ADDGA1041+004501091GA2071+007201999GF107991999999999999999999MA1101081999999MW1801REMMET084METAR ETMN 021320Z 26015KT 9000 -SHRA SCT015CB BKN024 06/04 Q1011 WHT BLU+TEMPO WHT;
0273101360999992007010214004+53767+008667FM-12+0032ETMN V0202601N006010039019N0090001N1+00531+00381101141ADDAY181999AY221999GA1021+002101081GA2031+003901081GA3071+009001061GF108991071081002501999999MA1999999100751MD1310101+9999MW1611REMSYN136AAXX  02141 10136 41359 82606 10053 20038 30075 40114 53010 76182 878// 333 82807 83813 87630 555 BOT 10052 20058 30059 40068 999 32///;
0171101360999992007010214204+53767+008667FM-15+0032ETMN V0202601N006710072019N0112651N1+00501+00401999999ADDGA1041+003001999GA2071+007201999GF107991999999999999999999MA1101081999999MW1611REMMET080METAR ETMN 021420Z 26013KT 9999 -RA SCT010 BKN024 05/04 Q1011 WHT BLU+TEMPO WHT;
0170101360999992007010214544+53767+008667FM-16+0032ETMN V0202601N005110021019N0080001N1+00501+00401999999ADDGA1071+002101999GA2071+006901999GF107991999999999999999999MA1101191999999MW1631REMMET079SPECI ETMN 021454Z 26010KT 8000 RA BKN007 BKN023 05/04 Q1012 GRN BLU+TEMPO GRN;
0199101360999992007010215204+53767+008667FM-15+0032ETMN V0202601N006210048019N0112651N1+00501+00401999999ADDGA1021+002101999GA2071+004801999GA3071+007201999GF107991999999999999999999MA1101191999999MW1611REMMET092METAR ETMN 021520Z 26012KT 9999 -RA FEW007 BKN016 BKN024 05/04 Q1012 RERA WHT BLU+TEMPO GRN;
0193101360999992007010216004+53767+008667FM-12+0032ETMN V0202701N004012200019N0150001N1+00531+00381101311ADDAY161999AY221999GA1011+004501081GF104991021081004501001011MA1999999100921MD1210221+9999MW1211REMSYN088AAXX  02161 10136 41465 42704 10053 20038 30092 40131 52022 72162 82801 333 81815 83069;
0138101360999992007010216204+53767+008667FM-15+0032ETMN V0202601N003110045019N0112651N1+00601+00401999999ADDGA1071+004501999GF107991999999999999999999MA1101291999999REMMET069METAR ETMN 021620Z 26006KT 9999 BKN015 06/04 Q1013 WHT BLU+TEMPO GRN;
0159101360999992007010217004+53767+008667FM-12+0032ETMN V0202801N005010045019N0250001N1+00561+00431101451ADDGA1051+004501081GF105991051021004501001001MA1999999101061MD1210311+9999REMSYN076AAXX  02171 10136 42475 52805 10056 20043 30106 40145 52031 85200 333 85815;
0138101360999992007010217204+53767+008667FM-15+0032ETMN V0202801N003612200019N0112651N1+00501+00401999999ADDGA1021+004501999GF102991999999999999999999MA1101391999999REMMET069METAR ETMN 021720Z 28007KT 9999 FEW015 05/04 Q1014 BLU+BLU+TEMPO GRN;
0138101360999992007010218204+53767+008667FM-15+0032ETMN V0202901N004112200019N0112651N1+00501+00301999999ADDGA1021+004501999GF102991999999999999999999MA1101591999999REMMET069METAR ETMN 021820Z 29008KT 9999 FEW015 05/03 Q1016 BLU+BLU+TEMPO GRN;
0159101360999992007010219004+53767+008667FM-12+0032ETMN V0202901N005012200019N0250001N1+00501+00351101641ADDGA1011+004501081GF102991011081004501001011MA1999999101251MD1210331+9999REMSYN076AAXX  02191 10136 42475 22905 10050 20035 30125 40164 52033 81801 333 81815;
0159101360999992007010219204+53767+008667FM-15+0032ETMN V0203001N005712200019N0112651N1+00601+00401999999ADDGA1021+004501999GA2041+057001999GF104991999999999999999999MA1101591999999REMMET074METAR ETMN 021920Z 30011KT 9999 FEW015 SCT190 06/04 Q1016 BLU+FCST CANCEL;
0148101360999992007010219454+53767+008667FM-15+0032ETMN V0203001N005712200019N0112651N1+00601+00401999999ADDGA1021+004501999GA2041+057001999GF104991999999999999999999MA1101691999999REMMET063SPECI ETMN 021945Z 30011KT 9999 FEW015 SCT190 06/04 Q1017 BLU+;
0165101360999992007010220004+53767+008667FM-12+0032ETMN V0203001N006012200019N0250001N1+00591+00411101741ADDGA1011+004501081GF103991011081004501001011MA1999999101351MD1210291+9999REMSYN082AAXX  02201 10136 42475 33006 10059 20041 30135 40174 52029 81801 333 81815 83069;
0148101360999992007010220204+53767+008667FM-15+0032ETMN V0203001N006212200019N0112651N1+00601+00401999999ADDGA1021+007501999GA2041+057001999GF104991999999999999999999MA1101691999999REMMET063METAR ETMN 022020Z 30012KT 9999 FEW025 SCT190 06/04 Q1017 BLU+;
0125101360999992007010220504+53767+008667FM-15+0032ETMN V0203001N006212200019N0112651N1+00601+00401999999ADDGA1021+007501999GF102991999999999999999999MA1101801999999REMMET056SPECI ETMN 022050Z 30012KT 9999 FEW025 06/04 Q1018 BLU+;
0148101360999992007010221204+53767+008667FM-15+0032ETMN V0203001N005712200019N0112651N1+00601+00401999999ADDGA1021+007501999GA2041+039001999GF104991999999999999999999MA1101801999999REMMET063METAR ETMN 022120Z 30011KT 9999 FEW025 SCT130 06/04 Q1018 BLU+;
0159101360999992007010222004+53767+008667FM-12+0032ETMN V0203001N007012200019N0200001N1+00651+00431101871ADDGA1011+006001081GF103991011051008001031011MA1999999101481MD1210231+9999REMSYN076AAXX  02221 10136 42570 33007 10065 20043 30148 40187 52023 81531 333 81820;
0148101360999992007010222204+53767+008667FM-15+0032ETMN V0203001N008212200019N0112651N1+00701+00401999999ADDGA1021+007501999GA2041+013501999GF104991999999999999999999MA1101901999999REMMET063METAR ETMN 022220Z 30016KT 9999 FEW025 SCT045 07/04 Q1019 BLU+;
0171101360999992007010222404+53767+008667FM-16+0032ETMN V0203001N009312200019N0050001N1+00801+00401999999ADDGA1021+005401091GA2041+012001999GF104991999999999999999999MA1102001999999MW1811OC101651REMMET072SPECI ETMN 022240Z 30018G32KT 5000 SHRA FEW018CB SCT040 08/04 Q1020 WHT;
0221101360999992007010223004+53767+008667FM-12+0032ETMN V0203001N010010075019N0150001N1+00611+00311101971ADDAY111999AY211999GA1011+004501091GA2041+007501061GF105991051091004501001001MA1999999101581MD1210231+9999MW1251REMSYN100AAXX  02231 10136 41465 53010 10061 20031 30158 40197 52023 72511 85900 333 81915 84625 91016 91116;
0153101360999992007010223204+53767+008667FM-15+0032ETMN V0203001N006712200019N0112651N1+00601+00401999999ADDGA1021+006001999GA2041+012001999GF104991999999999999999999MA1102001999999REMMET068METAR ETMN 022320Z 30013KT 9999 FEW020 SCT040 06/04 Q1020 RETS BLU+;
0125101360999992007010300204+53767+008667FM-15+0032ETMN V0203001N006712200019N0112651N1+00701+00401999999ADDGA1021+006601999GF102991999999999999999999MA1102001999999REMMET056METAR ETMN 030020Z 30013KT 9999 FEW022 07/04 Q1020 BLU+;
0165101360999992007010301004+53767+008667FM-12+0032ETMN V0202901N00601012001CN0200001N1+00661+00431102101ADDGA1021+006001081GF105991051081008001001001MA1999999101711MD1210231+9999REMSYN082AAXX  03011 10136 42570 52906 10066 20043 30171 40210 52023 85800 333 82820 83630;
0125101360999992007010301204+53767+008667FM-15+0032ETMN V0203101N005112200019N0112651N1+00701+00401999999ADDGA1021+006001999GF102991999999999999999999MA1102101999999REMMET056METAR ETMN 030120Z 31010KT 9999 FEW020 07/04 Q1021 BLU+;
0165101360999992007010302004+53767+008667FM-12+0032ETMN V0203001N005012200019N0150001N1+00651+00411102191ADDGA1021+006601081GF106991041081008001001011MA1999999101801MD1210221+9999REMSYN082AAXX  03021 10136 42565 63005 10065 20041 30180 40219 52022 84801 333 82822 83635;
0125101360999992007010302204+53767+008667FM-15+0032ETMN V0203001N005712200019N0112651N1+00601+00401999999ADDGA1021+006901999GF102991999999999999999999MA1102201999999REMMET056METAR ETMN 030220Z 30011KT 9999 FEW023 06/04 Q1022 BLU+;
0171101360999992007010303204+53767+008667FM-15+0032ETMN V0202901N00571013501CN0112651N1+00601+00401999999ADDGA1021+006601999GA2041+013501999GA3071+063001999GF107991999999999999999999MA1102201999999REMMET070METAR ETMN 030320Z 29011KT 9999 FEW022 SCT045 BKN210 06/04 Q1022 BLU+;
0165101360999992007010304004+53767+008667FM-12+0032ETMN V0202901N00701075001CN0200001N1+00611+00361102241ADDGA1011+007501081GF107991021081008001001021MA1999999101851MD1210141+9999REMSYN082AAXX  03041 10136 42570 72907 10061 20036 30185 40224 52014 82802 333 81825 87071;
0148101360999992007010304204+53767+008667FM-15+0032ETMN V0202901N005110720019N0112651N1+00601+00401999999ADDGA1021+013501999GA2071+072001999GF107991999999999999999999MA1102201999999REMMET063METAR ETMN 030420Z 29010KT 9999 FEW045 BKN240 06/04 Q1022 BLU+;
0165101360999992007010305004+53767+008667FM-12+0032ETMN V0202901N00601075001CN0200001N1+00611+00351102271ADDGA1011+013501061GF106991011051012501001021MA1999999101881MD1210081+9999REMSYN082AAXX  03051 10136 42670 62906 10061 20035 30188 40227 52008 81502 333 81645 86071;
0152101360999992007010305204+53767+008667FM-15+0032ETMN V0202701N004610630019N0112651N1+00601+00401999999ADDGA1021+013501999GA2071+063001999GF107991999999999999999999MA1102201999999REMMET067METAR ETMN 030520Z 27009KT 9999 FEW045 BKN210 06/04 Q1022 BLU+BLU+;
0152101360999992007010306204+53767+008667FM-15+0032ETMN V0202501N005110630019N0112651N1+00501+00401999999ADDGA1021+015001999GA2071+063001999GF107991999999999999999999MA1102301999999REMMET067METAR ETMN 030620Z 25010KT 9999 FEW050 BKN210 05/04 Q1023 BLU+BLU+;
0229101360999992007010307004+53767+008667FM-12+0032ETMN V0202601N006010630019N0200001N1+00551+00381102321ADDGA1011+004801081GA2071+063001001GF107991011081004501001021MA1999999101931MD1210081+9999REMSYN130AAXX  03071 10136 42470 72606 10055 20038 30193 40232 52008 81802 333 81816 87071 555 BOT 10042 20052 30055 40066 50079 999 31///;
0152101360999992007010307204+53767+008667FM-15+0032ETMN V0202601N006710630019N0112651N1+00601+00401999999ADDGA1021+005701999GA2071+063001999GF107991999999999999999999MA1102301999999REMMET067METAR ETMN 030720Z 26013KT 9999 FEW019 BKN210 06/04 Q1023 BLU+BLU+;
0165101360999992007010308004+53767+008667FM-12+0032ETMN V0202501N00601075001CN0150001N1+00481+00351102331ADDGA1011+005701081GF106991011081008001001021MA1999999101941MD1210061+9999REMSYN082AAXX  03081 10136 42565 62506 10048 20035 30194 40233 52006 81802 333 81819 86071;
0152101360999992007010308204+53767+008667FM-15+0032ETMN V0202501N005710630019N0112651N1+00501+00401999999ADDGA1021+006001999GA2071+063001999GF107991999999999999999999MA1102301999999REMMET067METAR ETMN 030820Z 25011KT 9999 FEW020 BKN210 05/04 Q1023 BLU+BLU+;
0184101360999992007010309204+53767+008667FM-15+0032ETMN V0202601N00571042001CN0112651N1+00601+00401999999ADDGA1021+006001999GA2041+042001999GA3071+063001999GF107991999999999999999999MA1102301999999REMMET083METAR ETMN 030920Z 26011KT 9999 FEW020 SCT140 BKN210 06/04 Q1023 BLU+BLU+BECMG BLU;
0187101360999992007010310004+53767+008667FM-12+0032ETMN V0202501N007010330019N0250001N1+00561+00351102341ADDGA1011+006001081GA2061+033001031GF107991011021008001031021MA1999999101951MD1210021+9999REMSYN088AAXX  03101 10136 42575 72507 10056 20035 30195 40234 52002 81232 333 81820 86361 86071;
0151101360999992007010310204+53767+008667FM-15+0032ETMN V0202501N006210300019N0112651N1+00601+00401999999ADDGA1021+006001999GA2071+030001999GF107991999999999999999999MA1102301999999REMMET066METAR ETMN 031020Z 25012KT 9999 FEW020 BKN100 06/04 Q1023 BLU BLU;
0165101360999992007010311004+53767+008667FM-12+0032ETMN V0202401N006010300019N0200001N1+00571+00401102251ADDGA1011+006001081GF107991011011008001071999MA1999999101861MD1810081+9999REMSYN082AAXX  03111 10136 42570 72406 10057 20040 30186 40225 58008 8117/ 333 81820 87360;
0151101360999992007010311204+53767+008667FM-15+0032ETMN V0202401N005710270019N0112651N1+00601+00401999999ADDGA1021+003001999GA2071+027001999GF107991999999999999999999MA1102201999999REMMET066METAR ETMN 031120Z 24011KT 9999 FEW010 BKN090 06/04 Q1022 BLU BLU;
0161101360999992007010312204+53767+008667FM-15+0032ETMN V0202401N006210051019N0112651N1+00601+00401999999ADDGA1041+003001999GA2071+005101999GF107991999999999999999999MA1102101999999REMMET076METAR ETMN 031220Z 24012KT 9999 SCT010 BKN017 06/04 Q1021 WHT BLU TEMPO GRN;
0138101360999992007010312404+53767+008667FM-16+0032ETMN V0202301N005710036019N0112651N1+00601+00401999999ADDGA1071+003601999GF107991999999999999999999MA1102101999999REMMET069SPECI ETMN 031240Z 23011KT 9999 BKN012 06/04 Q1021 GRN BLU TEMPO GRN;
0159101360999992007010313004+53767+008667FM-12+0032ETMN V0202301N006010036019N0150001N1+00611+00441102041ADDGA1071+003601071GF108991071061004501999999MA1999999101651MD1710301+9999REMSYN076AAXX  03131 10136 42465 82306 10061 20044 30165 40204 57030 876// 333 87712;
0148101360999992007010313204+53767+008667FM-15+0032ETMN V0202401N005710039019N0080001N1+00601+00501999999ADDGA1071+003901999GF107991999999999999999999MA1102001999999MW1611REMMET073METAR ETMN 031320Z 24011KT 8000 -RA BKN013 06/05 Q1020 GRN BLU TEMPO GRN;
0171101360999992007010313304+53767+008667FM-15+0032ETMN V0202301N006210132019N0070001N1+00601+00501999999ADDGA1041+003601999GA2071+013201999GF107991999999999999999999MA1102001999999MW1611REMMET080SPECI ETMN 031330Z 23012KT 7000 -RA SCT012 BKN044 06/05 Q1020 WHT BLU TEMPO GRN;
0193101360999992007010314004+53767+008667FM-12+0032ETMN V0202201N00601004201CN0070001N1+00611+00471101991ADDAY161999AY221999GA1031+003601071GF108991071051004501999999MA1999999101601MD1710261+9999MW1611REMSYN088AAXX  03141 10136 41457 82206 10061 20047 30160 40199 57026 76162 875// 333 83712 87637;
0180101360999992007010314204+53767+008667FM-15+0032ETMN V0202201N005710105019N0050001N1+00601+00501999999ADDGA1041+003601999GA2071+010501999GF107991999999999999999999MA1101901999999MW1101MW2611REMMET083METAR ETMN 031420Z 22011KT 5000 -RA BR SCT012 BKN035 06/05 Q1019 WHT WHT TEMPO YLO;
0156101360999992007010315204+53767+008667FM-15+0032ETMN V0202201N007210039019N0045001N1+00601+00501999999ADDGA1071+003901999GF107991999999999999999999MA1101801999999MW1101MW2631REMMET075METAR ETMN 031520Z 22014KT 4500 RA BR BKN013 06/05 Q1018 GRN WHT TEMPO YLO;
0187101360999992007010316004+53767+008667FM-12+0032ETMN V0202301N007010021019N0045001N1+00571+00471101761ADDAY161999AY261999GA1071+002101071GF108991071071002501999999MA1999999101371MD1710281+9999MW1631REMSYN082AAXX  03161 10136 41345 82307 10057 20047 30137 40176 57028 76366 877// 333 87707;
0156101360999992007010316204+53767+008667FM-15+0032ETMN V0202301N007210015019N0040001N1+00601+00501999999ADDGA1071+001501999GF107991999999999999999999MA1101691999999MW1101MW2631REMMET075METAR ETMN 031620Z 23014KT 4000 RA BR BKN005 06/05 Q1017 YLO WHT TEMPO YLO;
0187101360999992007010317004+53767+008667FM-12+0032ETMN V0202301N008010012019N0045001N1+00591+00501101631ADDAY161999AY261999GA1071+001201071GF108991071071001501999999MA1999999101241MD1710361+9999MW1611REMSYN082AAXX  03171 10136 41245 82308 10059 20050 30124 40163 57036 76166 877// 333 87704;
0162101360999992007010317204+53767+008667FM-15+0032ETMN V0202301N007710012019N0045001N1+00601+00501999999ADDGA1071+001201999GF107991999999999999999999MA1101591999999MW1101MW2611REMMET081METAR ETMN 031720Z 23015KT 4500 -RA BR BKN004 06/05 Q1016 RERA YLO WHT TEMPO YLO;
0157101360999992007010318204+53767+008667FM-15+0032ETMN V0202301N007710012019N0040001N1+00701+00601999999ADDGA1071+001201999GF107991999999999999999999MA1101491999999MW1101MW2511REMMET076METAR ETMN 031820Z 23015KT 4000 -DZ BR BKN004 07/06 Q1015 YLO GRN TEMPO YLO;
0187101360999992007010319004+53767+008667FM-12+0032ETMN V0202401N007010012019N0040001N1+00661+00581101441ADDAY151999AY251999GA1071+001201071GF108991071071001501999999MA1999999101051MD1710321+9999MW1511REMSYN082AAXX  03191 10136 41240 82407 10066 20058 30105 40144 57032 75155 877// 333 87704;
0157101360999992007010319204+53767+008667FM-15+0032ETMN V0202301N007710009019N0037001N1+00701+00601999999ADDGA1071+000901999GF107991999999999999999999MA1101291999999MW1101MW2511REMMET076METAR ETMN 031920Z 23015KT 3700 -DZ BR BKN003 07/06 Q1013 YLO GRN TEMPO YLO;
0187101360999992007010320004+53767+008667FM-12+0032ETMN V0202401N008010009019N0037001N1+00691+00611101291ADDAY151999AY251999GA1071+000901071GF108991071071001501999999MA1999999100901MD1710341+9999MW1511REMSYN082AAXX  03201 10136 41237 82408 10069 20061 30090 40129 57034 75155 877// 333 87703;
0155101360999992007010320204+53767+008667FM-15+0032ETMN V0202401N009310012019N0037001N1+00701+00601999999ADDGA1071+001201999GF107991999999999999999999MA1101191999999MW1101MW2511REMMET074METAR ETMN 032020Z 24018KT 3700 -DZ BR BKN004 07/06 Q1012 YLO FCST CANCEL;
0143101360999992007010321204+53767+008667FM-15+0032ETMN V0202301N008710015019N0040001N1+00701+00601999999ADDGA1071+001501999GF107991999999999999999999MA1101081999999MW1101MW2511REMMET062METAR ETMN 032120Z 23017KT 4000 -DZ BR BKN005 07/06 Q1011 YLO;
0193101360999992007010322004+53767+008667FM-12+0032ETMN V0202301N008010015019N0040001N1+00721+00621101071ADDAY151999AY251999GA1071+001501071GF108991071071001501999999MA1999999100681MD1710371+9999MW1511REMSYN088AAXX  03221 10136 41240 82308 10072 20062 30068 40107 57037 75155 877// 333 87705 91113;
0143101360999992007010322204+53767+008667FM-15+0032ETMN V0202301N008710015019N0040001N1+00701+00601999999ADDGA1071+001501999GF107991999999999999999999MA1101021999999MW1101MW2511REMMET062METAR ETMN 032220Z 23017KT 4000 -DZ BR BKN005 07/06 Q1010 YLO;
0193101360999992007010323004+53767+008667FM-12+0032ETMN V0202301N009010015019N0040001N1+00721+00631100951ADDAY151999AY251999GA1071+001501071GF108991071071001501999999MA1999999100571MD1710331+9999MW1511REMSYN088AAXX  03231 10136 41240 82309 10072 20063 30057 40095 57033 75155 877// 333 87705 91114;
0143101360999992007010323204+53767+008667FM-15+0032ETMN V0202301N007710015019N0037001N1+00701+00601999999ADDGA1071+001501999GF107991999999999999999999MA1100911999999MW1101MW2511REMMET062METAR ETMN 032320Z 23015KT 3700 -DZ BR BKN005 07/06 Q1009 YLO;
0124101360999992007010400204+53767+008667FM-15+0032ETMN V0202301N008210021019N0060001N1+00801+00601999999ADDGA1071+002101999GF107991999999999999999999MA1100711999999REMMET055METAR ETMN 040020Z 23016KT 6000 BKN007 08/06 Q1007 GRN;
0267101360999992007010401004+53767+008667SY-MT+0032ETMN V0202401N009010024019N0045001N1+00771+00611100661ADDAY121999AY221999GA1071+002401999GF108991071071002501999999MA1100611100281MD1710041+9999MW1101MW2501REMSYN088AAXX  04011 10136 41345 82409 10077 20061 30028 40066 57004 75022 877// 333 87708 91113;MET062SPECI ETMN 040100Z 24017KT 4500 -DZ BR BKN008 08/06 Q1006 GRN;
0134101360999992007010401204+53767+008667FM-15+0032ETMN V0202301N009310024019N0060001N1+00801+00601999999ADDGA1071+002401999GF107991999999999999999999MA1100611999999MW1511REMMET059METAR ETMN 040120Z 23018KT 6000 -DZ BKN008 08/06 Q1006 GRN;
0193101360999992007010402004+53767+008667FM-12+0032ETMN V0202301N009010030019N0060001N1+00791+00601100571ADDAY121999AY221999GA1071+003001071GF108991071061004501999999MA1999999100191MD1810381+9999MW1201REMSYN088AAXX  04021 10136 41456 82309 10079 20060 30019 40057 58038 72022 876// 333 87710 91116;
0124101360999992007010402204+53767+008667FM-15+0032ETMN V0202301N008210036019N0060001N1+00801+00601999999ADDGA1071+003601999GF107991999999999999999999MA1100511999999REMMET055METAR ETMN 040220Z 23016KT 6000 BKN012 08/06 Q1005 GRN;
0143101360999992007010403204+53767+008667FM-15+0032ETMN V0202301N009810027019N0048001N1+00801+00601999999ADDGA1071+002701999GF107991999999999999999999MA1100311999999MW1101MW2511REMMET062METAR ETMN 040320Z 23019KT 4800 -DZ BR BKN009 08/06 Q1003 GRN;
0199101360999992007010404004+53767+008667FM-12+0032ETMN V0202301N009010030019N0045001N1+00781+00601100331ADDAY121999AY221999GA1071+003001071GF108991071071004501999999MA1999999099951MD1710331+9999MW1201REMSYN094AAXX  04041 10136 41445 82309 10078 20060 39995 40033 57033 72022 877// 333 87710 91014 91114;
0124101360999992007010404204+53767+008667FM-15+0032ETMN V0202301N008710024019N0060001N1+00801+00601999999ADDGA1071+002401999GF107991999999999999999999MA1100201999999REMMET055METAR ETMN 040420Z 23017KT 6000 BKN008 08/06 Q1002 GRN;
0193101360999992007010405004+53767+008667FM-12+0032ETMN V0202301N009010027019N0060001N1+00791+00621100171ADDAY151999AY221999GA1071+002701071GF108991071071004501999999MA1999999099791MD1710401+9999MW1611REMSYN088AAXX  04051 10136 41456 82309 10079 20062 39979 40017 57040 76152 877// 333 87709 91115;
0157101360999992007010405204+53767+008667FM-15+0032ETMN V0202201N008210024019N0050001N1+00801+00601999999ADDGA1071+002401999GF107991999999999999999999MA1100101999999MW1101MW2611REMMET076METAR ETMN 040520Z 22016KT 5000 -RA BR BKN008 08/06 Q1001 GRN WHT TEMPO GRN;
0148101360999992007010406204+53767+008667FM-15+0032ETMN V0202501N008710021019N0060001N1+00801+00701999999ADDGA1071+002101999GF107991999999999999999999MA1100001999999MW1611REMMET073METAR ETMN 040620Z 25017KT 6000 -RA BKN007 08/07 Q1000 GRN WHT TEMPO GRN;
0193101360999992007010407004+53767+008667FM-12+0032ETMN V0202201N009010024019N0060001N1+00821+00681099981ADDAY161999AY261999GA1071+002401071GF108991071071002501999999MA1999999099601MD1710351+9999MW1611REMSYN088AAXX  04071 10136 41356 82209 10082 20068 39960 49998 57035 76166 877// 333 87708 91114;
0157101360999992007010407204+53767+008667FM-15+0032ETMN V0202301N008210024019N0050001N1+00801+00701999999ADDGA1071+002401999GF107991999999999999999999MA1099901999999MW1101MW2611REMMET076METAR ETMN 040720Z 23016KT 5000 -RA BR BKN008 08/07 Q0999 GRN WHT TEMPO GRN;
0164101360999992007010407354+53767+008667FM-16+0032ETMN V0202301N008710021019N0035001N1+00801+00701999999ADDGA1071+002101999GF107991999999999999999999MA1099901999999MW1101MW2531MW3631REMMET077SPECI ETMN 040735Z 23017KT 3500 DZRA BR BKN007 08/07 Q0999 YLO WHT TEMPO GRN;
0165101360999992007010407454+53767+008667FM-15+0032ETMN V0202401N008710021019N0045001N1+00801+00701999999ADDGA1071+002101999GF107991999999999999999999MA1099901999999MW1101MW2511MW3611REMMET078SPECI ETMN 040745Z 24017KT 4500 -DZRA BR BKN007 08/07 Q0999 GRN WHT TEMPO GRN;
0193101360999992007010408004+53767+008667FM-12+0032ETMN V0202401N009010021019N0045001N1+00821+00721099951ADDAY161999AY261999GA1071+002101071GF108991071071002501999999MA1999999099571MD1710221+9999MW1581REMSYN088AAXX  04081 10136 41345 82409 10082 20072 39957 49995 57022 75866 877// 333 87707 91113;
0153101360999992007010408204+53767+008667FM-15+0032ETMN V0202401N008710024019N0060001N1+00801+00701999999ADDGA1071+002401999GF107991999999999999999999MA1099901999999MW1611REMMET078METAR ETMN 040820Z 24017KT 6000 -RA BKN008 08/07 Q0999 RERA GRN WHT TEMPO GRN;
0179101360999992007010409204+53767+008667FM-15+0032ETMN V0202401N007210039019N0080001N1+00901+00701999999ADDGA1041+002401999GA2071+003901999GF107991999999999999999999MA1099901999999MW1511MW2611REMMET082METAR ETMN 040920Z 24014KT 8000 -RADZ SCT008 BKN013 09/07 Q0999 GRN GRN BECMG BLU;
0193101360999992007010410004+53767+008667FM-12+0032ETMN V0202501N00801009001CN0090001N1+00871+00741099931ADDAY161999AY221999GA1031+003001081GF108991071081004501999999MA1999999099551MD1510051+9999MW1801REMSYN088AAXX  04101 10136 41459 82508 10087 20074 39955 49993 55005 78062 878// 333 83810 87613;
0184101360999992007010410054+53767+008667FM-16+0032ETMN V0202601N009310054019N0112651N1+00901+00701999999ADDGA1021+003001999GA2071+005401999GA3071+011101999GF107991999999999999999999MA1099901999999REMMET083SPECI ETMN 041005Z 26018KT 9999 FEW010 BKN018 BKN037 09/07 Q0999 WHT WHT BECMG BLU;
0184101360999992007010410204+53767+008667FM-15+0032ETMN V0202601N00981004501CN0112651N1+00901+00701999999ADDGA1021+003001999GA2041+004501999GA3071+013501999GF107991999999999999999999MA1099901999999REMMET083METAR ETMN 041020Z 26019KT 9999 FEW010 SCT015 BKN045 09/07 Q0999 BLU BLU TEMPO GRN;
0251101360999992007010411004+53767+008667FM-12+0032ETMN V0202601N011010135019N0150001N1+00901+00611099961ADDAY121999AY221999GA1041+006001081GA2071+013501061GF107991071081008001999999MA1999999099581MD1310011+9999MW1251OA149999999REMSYN100AAXX  04111 10136 41565 72611 10090 20061 39958 49996 53001 72522 878// 333 84820 87645 91114 91211;EQDQ01  00722WGOSPD
0161101360999992007010411204+53767+008667FM-15+0032ETMN V0202601N010310054019N0112651N1+00901+00601999999ADDGA1071+005401999GA2071+015001999GF107991999999999999999999MA1099901999999REMMET076METAR ETMN 041120Z 26020KT 9999 BKN018 BKN057 09/06 Q0999 WHT BLU TEMPO GRN;
0161101360999992007010412204+53767+008667FM-15+0032ETMN V0202601N011310054019N0112651N1+00901+00601999999ADDGA1071+005401999GA2071+012001999GF107991999999999999999999MA1099901999999REMMET076METAR ETMN 041220Z 26022KT 9999 BKN018 BKN040 09/06 Q0999 WHT BLU TEMPO GRN;
0257101360999992007010413004+53767+008667FM-12+0032ETMN V0202601N010010051019N0080001N1+00831+00631099901ADDAY121999AY221999GA1061+005101081GA2071+012001061GF107991071081004501999999MA1999999099521MD1810031+9999MW1801OA149999999REMSYN106AAXX  04131 10136 41458 72610 10083 20063 39952 49990 58003 78022 878// 333 86817 87640 91015 91115 91212;EQDQ01  00772WGOSPD
0173101360999992007010413204+53767+008667FM-15+0032ETMN V0202601N010310045019N0080001N1+00801+00601999999ADDGA1071+004501999GA2071+012001999GF107991999999999999999999MA1099901999999MW1801REMMET082METAR ETMN 041320Z 26020KT 8000 -SHRA BKN015 BKN040 08/06 Q0999 WHT BLU TEMPO GRN;
0273101360999992007010414004+53767+008667FM-12+0032ETMN V0202601N011010045019N0060001N1+00821+00641099911ADDAY181999AY221999GA1031+003001071GA2051+004501081GA3071+010501061GF108991071081004501999999MA1999999099531MD1710051+9999MW1801OA149999999REMSYN106AAXX  04141 10136 41456 82611 10082 20064 39953 49991 57005 78082 878// 333 83710 85815 87635 91115 91212;EQDQ01  00772WGOSPD
0173101360999992007010414204+53767+008667FM-15+0032ETMN V0202601N010310045019N0080001N1+00801+00601999999ADDGA1041+003001999GA2071+004501999GF107991999999999999999999MA1099901999999MW1801REMMET082METAR ETMN 041420Z 26020KT 8000 -SHRA SCT010 BKN015 08/06 Q0999 WHT BLU TEMPO GRN;
0161101360999992007010414454+53767+008667FM-15+0032ETMN V0202601N010310045019N0080001N1+00801+00601999999ADDGA1041+003001999GA2071+004501999GF107991999999999999999999MA1099901999999REMMET076SPECI ETMN 041445Z 26020KT 8000 SCT010 BKN015 08/06 Q0999 WHT WHT TEMPO GRN;
0184101360999992007010415204+53767+008667FM-15+0032ETMN V0202601N011310033019N0060001N1+00801+00601999999ADDGA1071+003301999GA2071+004801999GF107991999999999999999999MA1099901999999MW1801OC101651REMMET085METAR ETMN 041520Z 26022G32KT 6000 -SHRA BKN011 BKN016 08/06 Q0999 GRN WHT TEMPO GRN;
0251101360999992007010416004+53767+008667FM-12+0032ETMN V0202601N011010030019N0050001N1+00831+00621099971ADDAY181999AY221999GA1051+003001071GA2071+004501021GF107991071021004501999999MA1999999099591MD1210071+9999MW1251OA149999999REMSYN100AAXX  04161 10136 41450 72611 10083 20062 39959 49997 52007 72582 872// 333 85710 87215 91116 91212;EQDQ01  00822WGOSPD
0161101360999992007010416204+53767+008667FM-15+0032ETMN V0202601N011310036019N0060001N1+00801+00601999999ADDGA1071+003601999GF107991999999999999999999MA1099901999999MW1801OC101651REMMET078METAR ETMN 041620Z 26022G32KT 6000 -SHRA BKN012 08/06 Q0999 GRN WHT TEMPO GRN;
0257101360999992007010417004+53767+008667FM-12+0032ETMN V0202601N012010036019N0060001N1+00821+00621099991ADDAY181999AY221999GA1051+003601081GA2071+006001061GF107991071081004501999999MA1999999099611MD1310081+9999MW1801OA149999999REMSYN106AAXX  04171 10136 41456 72612 10082 20062 39961 49999 53008 78082 878// 333 85812 87620 91017 91117 91212;EQDQ01  00882WGOSPD
0161101360999992007010417204+53767+008667FM-15+0032ETMN V0202601N010810030019N0060001N1+00801+00601999999ADDGA1071+003001999GF107991999999999999999999MA1100001999999MW1801OC101591REMMET078METAR ETMN 041720Z 26021G31KT 6000 -SHRA BKN010 08/06 Q1000 GRN WHT TEMPO GRN;
0172101360999992007010418204+53767+008667FM-15+0032ETMN V0202701N009810150019N0070001N1+00801+00601999999ADDGA1041+003601999GA2071+015001999GF107991999999999999999999MA1100001999999OC101491REMMET079METAR ETMN 041820Z 27019G29KT 7000 SCT012 BKN050 08/06 Q1000 WHT WHT TEMPO GRN;
0251101360999992007010419004+53767+008667FM-12+0032ETMN V0202701N008010180019N0080001N1+00781+00521100021ADDAY121999AY221999GA1031+005101081GA2071+018001061GF107991071081004501999999MA1999999099641MD1210051+9999MW1251OA149999999REMSYN100AAXX  04191 10136 41458 72708 10078 20052 39964 40002 52005 72522 878// 333 83817 87656 91114 91211;EQDQ01  00722WGOSPD
0161101360999992007010419204+53767+008667FM-15+0032ETMN V0202701N008710180019N0090001N1+00801+00501999999ADDGA1041+004501999GA2071+018001999GF107991999999999999999999MA1100001999999REMMET076METAR ETMN 041920Z 27017KT 9000 SCT015 BKN060 08/05 Q1000 BLU BLU TEMPO GRN;
0187101360999992007010420004+53767+008667FM-12+0032ETMN V0202801N010010210019N0090001N1+00771+00511100171ADDGA1031+006001081GA2071+021001061GF107991071081008001999999MA1999999099791MD1210181+9999REMSYN088AAXX  04201 10136 42559 72810 10077 20051 39979 40017 52018 878// 333 83820 87657 91115;
0173101360999992007010420204+53767+008667FM-15+0032ETMN V0202901N009810180019N0080001N1+00801+00501999999ADDGA1041+006001999GA2071+018001999GF107991999999999999999999MA1100101999999MW1801REMMET082METAR ETMN 042020Z 29019KT 8000 -SHRA SCT020 BKN060 08/05 Q1001 BLU BLU TEMPO GRN;
0161101360999992007010421204+53767+008667FM-15+0032ETMN V0202801N009810111019N0090001N1+00801+00601999999ADDGA1041+004501999GA2071+011101999GF107991999999999999999999MA1100201999999REMMET076METAR ETMN 042120Z 28019KT 9000 SCT015 BKN037 08/06 Q1002 BLU BLU TEMPO GRN;
0273101360999992007010422004+53767+008667FM-12+0032ETMN V0202901N011010045019N0080001N1+00761+00601100331ADDAY121999AY221999GA1031+002401081GA2031+004501081GA3071+009001061GF107991071081002501999999MA1999999099951MD1210311+9999MW1801OA149999999REMSYN106AAXX  04221 10136 41358 72911 10076 20060 39995 40033 52031 78022 878// 333 83808 83815 87630 91115 91212;EQDQ01  00772WGOSPD
0196101360999992007010422204+53767+008667FM-15+0032ETMN V0202901N01031004501CN0080001N1+00801+00601999999ADDGA1041+001501999GA2041+004501999GA3071+012601999GF107991999999999999999999MA1100311999999MW1801REMMET089METAR ETMN 042220Z 29020KT 8000 -SHRA SCT005 SCT015 BKN042 08/06 Q1003 BLU BLU TEMPO GRN;
0150101360999992007010422404+53767+008667FM-16+0032ETMN V0202901N010310021019N0080001N1+00801+00601999999ADDGA1071+002101999GF107991999999999999999999MA1100311999999MW1801REMMET075SPECI ETMN 042240Z 29020KT 8000 -SHRA BKN007 08/06 Q1003 GRN BLU TEMPO GRN;
0229101360999992007010423004+53767+008667FM-12+0032ETMN V0202901N011010021019N0070001N1+00781+00641100421ADDAY181999AY221999GA1071+002101071GF108991071071002501999999MA1999999100041MD1210251+9999MW1801OA149999999REMSYN094AAXX  04231 10136 41357 82911 10078 20064 30004 40042 52025 78082 877// 333 87707 91115 91211;EQDQ01  00772WGOSPD
0173101360999992007010423204+53767+008667FM-15+0032ETMN V0202801N010310021019N0060001N1+00801+00701999999ADDGA1041+001501999GA2071+002101999GF107991999999999999999999MA1100411999999MW1801REMMET082METAR ETMN 042320Z 28020KT 6000 -SHRA SCT005 BKN007 08/07 Q1004 GRN BLU TEMPO GRN;
0161101360999992007010500204+53767+008667FM-15+0032ETMN V0203001N009310111019N0080001N1+00801+00701999999ADDGA1041+002101999GA2071+011101999GF107991999999999999999999MA1100511999999REMMET076METAR ETMN 050020Z 30018KT 8000 SCT007 BKN037 08/07 Q1005 BLU BLU TEMPO GRN;
0215101360999992007010501004+53767+008667FM-12+0032ETMN V0202901N009010129019N0080001N1+00821+00661100591ADDAY121999AY221999GA1031+003901081GA2071+012901061GF107991071081004501999999MA1999999100211MD1210261+9999MW1251REMSYN094AAXX  05011 10136 41458 72909 10082 20066 30021 40059 52026 72522 878// 333 83813 87643 91114;
0173101360999992007010501204+53767+008667FM-15+0032ETMN V0202901N010310042019N0070001N1+00801+00701999999ADDGA1071+004201999GA2071+010501999GF107991999999999999999999MA1100611999999MW1801REMMET082METAR ETMN 050120Z 29020KT 7000 -SHRA BKN014 BKN035 08/07 Q1006 GRN BLU TEMPO GRN;
0118101360999992007010501474+53767+008667FM-16+0032ETMN V02099999999992200019N0030221N1+99999+99999999999ADDMA1100601999999REMMET091SPECI ETMN 050147Z 3022G37KT 6000 -SHRA SCT007 BKN012 BKN030 08/07 Q1006 GRN BLU TEMPO GRN;
0279101360999992007010502004+53767+008667FM-12+0032ETMN V0203001N012010036019N0060001N1+00791+00651100651ADDAY181999AY221999GA1031+002101081GA2051+003601081GA3071+009001061GF107991071081002501999999MA1999999100271MD1210231+9999MW1801OA149999999REMSYN112AAXX  05021 10136 41356 73012 10079 20065 30027 40065 52023 78082 878// 333 83807 85812 87630 91019 91119 91212;EQDQ01  00982WGOSPD
0201101360999992007010502204+53767+008667FM-15+0032ETMN V0203101N008710045019N0060001N1+00801+00701999999ADDGA1021+003001999GA2071+004501999GA3071+009001999GF107991999999999999999999MA1100711999999MW1801REMMET094METAR ETMN 050220Z 31017KT 6000 -SHRA FEW010 BKN015 BKN030 08/07 Q1007 RERA WHT BLU TEMPO GRN;
0138101360999992007010503204+53767+008667FM-15+0032ETMN V0203001N007712200019N0112651N1+00701+00501999999ADDGA1021+004801999GF102991999999999999999999MA1100811999999REMMET069METAR ETMN 050320Z 30015KT 9999 FEW016 07/05 Q1008 BLU+BLU TEMPO GRN;
0165101360999992007010504004+53767+008667FM-12+0032ETMN V0202901N00801009001CN0120001N1+00781+00581100871ADDGA1031+004501081GF107991071081004501999999MA1999999100491MD1210281+9999REMSYN082AAXX  05041 10136 42462 72908 10078 20058 30049 40087 52028 878// 333 83815 87640;
0138101360999992007010504204+53767+008667FM-15+0032ETMN V0202901N007210054019N0112651N1+00801+00601999999ADDGA1071+005401999GF107991999999999999999999MA1100911999999REMMET069METAR ETMN 050420Z 29014KT 9999 BKN018 08/06 Q1009 WHT BLU TEMPO GRN;
0159101360999992007010505004+53767+008667FM-12+0032ETMN V0203001N008010105019N0120001N1+00731+00481100991ADDGA1071+010501061GF107991071051012501999999MA1999999100611MD1210341+9999REMSYN076AAXX  05051 10136 42662 73008 10073 20048 30061 40099 52034 875// 333 87635;
0161101360999992007010505204+53767+008667FM-15+0032ETMN V0203001N007210099019N0112651N1+00801+00501999999ADDGA1041+004501999GA2071+009901999GF107991999999999999999999MA1101021999999REMMET076METAR ETMN 050520Z 30014KT 9999 SCT015 BKN033 08/05 Q1010 BLU BLU TEMPO WHT;
0161101360999992007010506204+53767+008667FM-15+0032ETMN V0202801N006710126019N0112651N1+00701+00401999999ADDGA1021+004501999GA2071+012601999GF107991999999999999999999MA1101021999999REMMET076METAR ETMN 050620Z 28013KT 9999 FEW015 BKN042 07/04 Q1010 BLU BLU TEMPO WHT;
0257101360999992007010507004+53767+008667FM-12+0032ETMN V0202801N007010126019N0100001N1+00731+00541101051ADDAY121999AY221999GA1011+004501081GA2061+012601061GF106991061081004501001001MA1999999100671MD1210181+9999MW1801REMSYN136AAXX  05071 10136 41460 62807 10073 20054 30067 40105 52018 78022 86800 333 81815 86642 555 BOT 10062 20068 30069 40070 50076 999 31///;
0161101360999992007010507204+53767+008667FM-15+0032ETMN V0202701N006210120019N0080001N1+00701+00401999999ADDGA1021+004501999GA2071+012001999GF107991999999999999999999MA1101081999999REMMET076METAR ETMN 050720Z 27012KT 8000 FEW015 BKN040 07/04 Q1011 BLU BLU TEMPO WHT;
0193101360999992007010508004+53767+008667FM-12+0032ETMN V0202601N00701009001CN0080001N1+00721+00561101231ADDAY121999AY221999GA1021+004501081GF107991071081004501999999MA1999999100841MD1210231+9999MW1251REMSYN088AAXX  05081 10136 41458 72607 10072 20056 30084 40123 52023 72522 878// 333 82815 87636;
0161101360999992007010508204+53767+008667FM-15+0032ETMN V0202701N005710108019N0090001N1+00701+00401999999ADDGA1021+004501999GA2071+010801999GF107991999999999999999999MA1101191999999REMMET076METAR ETMN 050820Z 27011KT 9000 FEW015 BKN036 07/04 Q1012 BLU BLU TEMPO WHT;
0161101360999992007010509204+53767+008667FM-15+0032ETMN V0202601N006710105019N0112651N1+00701+00401999999ADDGA1021+004501999GA2071+010501999GF107991999999999999999999MA1101291999999REMMET076METAR ETMN 050920Z 26013KT 9999 FEW015 BKN035 07/04 Q1013 BLU BLU TEMPO WHT;
0193101360999992007010510004+53767+008667FM-12+0032ETMN V0202601N008010090019N0100001N1+00741+00501101311ADDAY121999AY221999GA1011+004501081GF107991071081004501999999MA1999999100921MD1210251+9999MW1251REMSYN088AAXX  05101 10136 41460 72608 10074 20050 30092 40131 52025 72522 878// 333 81815 87630;
0174101360999992007010510204+53767+008667FM-15+0032ETMN V0202601N00871010501CN0112651N1+00801+00501999999ADDGA1021+004501999GA2041+010501999GA3071+060001999GF107991999999999999999999MA1101291999999REMMET073METAR ETMN 051020Z 26017KT 9999 FEW015 SCT035 BKN200 08/05 Q1013 BLU+BLU;
0165101360999992007010511004+53767+008667FM-12+0032ETMN V0202601N00901030001CN0100001N1+00771+00531101361ADDGA1011+004501081GF107991011011004501031041MA1999999100971MD1210131+9999REMSYN082AAXX  05111 10136 42460 72609 10077 20053 30097 40136 52013 81134 333 81815 86070;
0161101360999992007010511204+53767+008667FM-15+0032ETMN V0202501N006710126019N0112651N1+00801+00501999999ADDGA1041+003601999GA2071+012601999GF107991999999999999999999MA1101291999999REMMET076METAR ETMN 051120Z 25013KT 9999 SCT012 BKN042 08/05 Q1013 BLU BLU TEMPO GRN;
0203101360999992007010512204+53767+008667FM-15+0032ETMN V0202601N007710129019N0112651N1+00801+00501999999ADDGA1021+006001999GA2071+012901999GA3071+030001999GF107991999999999999999999MA1101291999999MW1611REMMET096METAR ETMN 051220Z 26015KT 9999 -RA FEW020 BKN043 BKN100 08/05 Q101308/05 Q1013 BLU FCST CANCEL;
0193101360999992007010513004+53767+008667FM-12+0032ETMN V0202501N00601007501CN0180001N1+00751+00561101301ADDAY161011AY221011GA1011+007501061GF108991071051008001999999MA1999999100911MD1810011+9999MW1211REMSYN088AAXX  05131 10136 41568 82506 10075 20056 30091 40130 58001 72162 875// 333 81625 87635;
0157101360999992007010513114+53767+008667FM-16+0032ETMN V0202501N005110033019N0070001N1+00801+00601999999ADDGA1041+001801999GA2071+003301999GF107991999999999999999999MA1101291999999MW1511REMMET066SPECI ETMN 051311Z 25010KT 7000 -DZ SCT006 BKN011 08/06 Q1013 GRN;
0166101360999992007010513204+53767+008667FM-15+0032ETMN V0202401N005710027019N0035001N1+00701+00601999999ADDGA1021+001801999GA2071+002701999GF107991999999999999999999MA1101191999999MW1101MW2511REMMET069METAR ETMN 051320Z 24011KT 3500 -DZ BR FEW006 BKN009 07/06 Q1012 YLO;
0143101360999992007010513454+53767+008667FM-15+0032ETMN V0202401N005710015019N0050001N1+00701+00601999999ADDGA1071+001501999GF107991999999999999999999MA1101291999999MW1101MW2511REMMET062SPECI ETMN 051345Z 24011KT 5000 -DZ BR BKN005 07/06 Q1013 YLO;
0229101360999992007010514004+53767+008667FM-12+0032ETMN V0202401N006010015019N0050001N1+00731+00621101301ADDAY151999AY221999GA1071+001501071GF108991071071001501999999MA1999999100911MD1610061+9999MW1511REMSYN124AAXX  05141 10136 41250 82406 10073 20062 30091 40130 56006 75152 877// 333 87705 555 BOT 10071 20072 30070 40072 999 31///;
0133101360999992007010514204+53767+008667FM-15+0032ETMN V0202401N006210021019N0050001N1+00801+00601999999ADDGA1071+002101999GF107991999999999999999999MA1101191999999MW1101REMMET058METAR ETMN 051420Z 24012KT 5000 BR BKN007 08/06 Q1012 GRN;
0170101360999992007010514474+53767+008667FM-16+0032ETMN V0202401N005710045019N0070001N1+00801+00601999999ADDGA1021+002401999GA2071+004501999GA3071+010501999GF107991999999999999999999MA1101191999999REMMET069SPECI ETMN 051447Z 24011KT 7000 FEW008 BKN015 BKN035 08/06 Q1012 WHT;
0179101360999992007010515204+53767+008667FM-15+0032ETMN V0202401N006210051019N0050001N1+00801+00601999999ADDGA1021+002401999GA2071+005101999GA3071+010201999GF107991999999999999999999MA1101191999999MW1101REMMET072METAR ETMN 051520Z 24012KT 5000 BR FEW008 BKN017 BKN034 08/06 Q1012 WHT;
0193101360999992007010516004+53767+008667FM-12+0032ETMN V0202401N00701004201CN0060001N1+00781+00621101241ADDAY151999AY221999GA1031+004501061GF108991071051004501999999MA1999999100861MD1810051+9999MW1201REMSYN088AAXX  05161 10136 41456 82407 10078 20062 30086 40124 58005 72052 875// 333 83615 87633;
0147101360999992007010516204+53767+008667FM-15+0032ETMN V0202401N006210120019N0060001N1+00801+00601999999ADDGA1041+005101999GA2071+012001999GF107991999999999999999999MA1101191999999REMMET062METAR ETMN 051620Z 24012KT 6000 SCT017 BKN040 08/06 Q1012 WHT;
0159101360999992007010517004+53767+008667FM-12+0032ETMN V0202401N007010045019N0080001N1+00801+00621101251ADDGA1071+004501061GF108991071051004501999999MA1999999100871MD1510041+9999REMSYN076AAXX  05171 10136 42458 82407 10080 20062 30087 40125 55004 875// 333 87615;
0166101360999992007010517204+53767+008667FM-15+0032ETMN V0202401N006710036019N0030001N1+00801+00601999999ADDGA1021+002101999GA2071+003601999GF107991999999999999999999MA1101191999999MW1101MW2511REMMET069METAR ETMN 051720Z 24013KT 3000 -DZ BR FEW007 BKN012 08/06 Q1012 YLO;
0148101360999992007010518064+53767+008667FM-16+0032ETMN V0202401N006210012019N0025001N1+00801+00701999999ADDGA1071+001201999GF107991999999999999999999MA1101191999999MW1101MW2511REMMET067SPECI ETMN 051806Z 24012KT 2500 -DZ BR BKN004 08/07 Q1012 REDZ YLO;
0148101360999992007010518204+53767+008667FM-15+0032ETMN V0202401N006710009019N0020001N1+00801+00701999999ADDGA1071+000901999GF107991999999999999999999MA1101191999999MW1101MW2511REMMET067METAR ETMN 051820Z 24013KT 2000 -DZ BR BKN003 08/07 Q1012 REDZ YLO;
0187101360999992007010519004+53767+008667FM-12+0032ETMN V0202401N007010009019N0020001N1+00791+00701101211ADDAY151999AY251999GA1071+000901071GF108991071071001501999999MA1999999100831MD1810031+9999MW1511REMSYN082AAXX  05191 10136 41220 82407 10079 20070 30083 40121 58003 75155 877// 333 87703;
0143101360999992007010519204+53767+008667FM-15+0032ETMN V0202401N006710012019N0030001N1+00801+00701999999ADDGA1071+001201999GF107991999999999999999999MA1101191999999MW1101MW2511REMMET062METAR ETMN 051920Z 24013KT 3000 -DZ BR BKN004 08/07 Q1012 YLO;
0143101360999992007010519504+53767+008667FM-15+0032ETMN V0202401N007710012019N0025001N1+00801+00701999999ADDGA1071+001201999GF107991999999999999999999MA1101191999999MW1101MW2511REMMET062SPECI ETMN 051950Z 24015KT 2500 -DZ BR BKN004 08/07 Q1012 YLO;
0187101360999992007010520004+53767+008667FM-12+0032ETMN V0202401N008010012019N0025001N1+00801+00701101221ADDAY151999AY251999GA1071+001201071GF108991071071001501999999MA1999999100841MD1510031+9999MW1511REMSYN082AAXX  05201 10136 41225 82408 10080 20070 30084 40122 55003 75155 877// 333 87704;
0143101360999992007010520204+53767+008667FM-15+0032ETMN V0202501N007210012019N0025001N1+00801+00801999999ADDGA1071+001201999GF107991999999999999999999MA1101191999999MW1101MW2511REMMET062METAR ETMN 052020Z 25014KT 2500 -DZ BR BKN004 08/08 Q1012 YLO;
0143101360999992007010521204+53767+008667FM-15+0032ETMN V0202601N007210009019N0030001N1+00801+00801999999ADDGA1071+000901999GF107991999999999999999999MA1101191999999MW1101MW2611REMMET062METAR ETMN 052120Z 26014KT 3000 -RA BR BKN003 08/08 Q1012 YLO;
0187101360999992007010522004+53767+008667FM-12+0032ETMN V0202601N007010009019N0040001N1+00841+00771101241ADDAY161999AY251999GA1071+000901071GF108991071071001501999999MA1999999100861MD1210031+9999MW1511REMSYN082AAXX  05221 10136 41240 82607 10084 20077 30086 40124 52003 75165 877// 333 87703;
0151101360999992007010522204+53767+008667FM-15+0032ETMN V0202601N008210012019N0040001N1+00901+00801999999ADDGA1071+001201999GF107991999999999999999999MA1101191999999MW1101MW2511MW3611REMMET064METAR ETMN 052220Z 26016KT 4000 -DZRA BR BKN004 09/08 Q1012 YLO;
0157101360999992007010522454+53767+008667FM-15+0032ETMN V0202601N008210012019N0070001N1+00901+00801999999ADDGA1071+001201999GA2071+006601999GF107991999999999999999999MA1101191999999MW1511REMMET066SPECI ETMN 052245Z 26016KT 7000 -DZ BKN004 BKN022 09/08 Q1012 YLO;
0170101360999992007010523104+53767+008667FM-16+0032ETMN V0202601N00821002701CN0070001N1+00901+00801999999ADDGA1021+001501999GA2041+002701999GA3071+006901999GF107991999999999999999999MA1101191999999REMMET069SPECI ETMN 052310Z 26016KT 7000 FEW005 SCT009 BKN023 09/08 Q1012 WHT;
0170101360999992007010523204+53767+008667FM-15+0032ETMN V0202601N00771002701CN0080001N1+00901+00801999999ADDGA1021+002101999GA2041+002701999GA3071+007201999GF107991999999999999999999MA1101191999999REMMET069METAR ETMN 052320Z 26015KT 8000 FEW007 SCT009 BKN024 09/08 Q1012 WHT;
0148101360999992007010600204+53767+008667FM-15+0032ETMN V0202701N006212200019N0080001N1+00801+00701999999ADDGA1021+001501999GA2041+013501999GF104991999999999999999999MA1101291999999REMMET063METAR ETMN 060020Z 27012KT 8000 FEW005 SCT045 08/07 Q1013 BLU+;
0165101360999992007010601004+53767+008667FM-12+0032ETMN V0202801N006012200019N0080001N1+00761+00661101341ADDGA1011+003001071GF103991031051004501001001MA1999999100951MD1210091+9999REMSYN082AAXX  06011 10136 42458 32806 10076 20066 30095 40134 52009 83500 333 81710 83650;
0125101360999992007010601204+53767+008667FM-15+0032ETMN V0202801N005112200019N0080001N1+00701+00601999999ADDGA1041+013501999GF104991999999999999999999MA1101291999999REMMET056METAR ETMN 060120Z 28010KT 8000 SCT045 07/06 Q1013 BLU+;
0159101360999992007010602004+53767+008667FM-12+0032ETMN V0202701N004012200019N0080001N1+00751+00641101391ADDGA1031+024001031GF103991031001999999031001MA1999999101001MD1210121+9999REMSYN076AAXX  06021 10136 42958 32704 10075 20064 30100 40139 52012 83030 333 83358;
0125101360999992007010602204+53767+008667FM-15+0032ETMN V0202601N004112200019N0080001N1+00701+00601999999ADDGA1041+024001999GF104991999999999999999999MA1101391999999REMMET056METAR ETMN 060220Z 26008KT 8000 SCT080 07/06 Q1014 BLU+;
0125101360999992007010603204+53767+008667FM-15+0032ETMN V0202601N004112200019N0080001N1+00601+00501999999ADDGA1041+024001999GF104991999999999999999999MA1101391999999REMMET056METAR ETMN 060320Z 26008KT 8000 SCT080 06/05 Q1014 BLU+;
0159101360999992007010604004+53767+008667FM-12+0032ETMN V0202601N004012200019N0080001N1+00601+00491101411ADDGA1031+024001031GF103991031001999999031001MA1999999101021MD1110071+9999REMSYN076AAXX  06041 10136 42958 32604 10060 20049 30102 40141 51007 83030 333 83358;
0125101360999992007010604204+53767+008667FM-15+0032ETMN V0202401N003612200019N0080001N1+00601+00501999999ADDGA1041+024001999GF104991999999999999999999MA1101391999999REMMET056METAR ETMN 060420Z 24007KT 8000 SCT080 06/05 Q1014 BLU+;
0159101360999992007010605004+53767+008667FM-12+0032ETMN V0202501N004010240019N0080001N1+00681+00571101441ADDGA1051+024001031GF105991051001999999031001MA1999999101051MD1210051+9999REMSYN076AAXX  06051 10136 42958 52504 10068 20057 30105 40144 52005 85030 333 85358;
0124101360999992007010605204+53767+008667FM-15+0032ETMN V0202501N003610210019N0080001N1+00701+00601999999ADDGA1071+021001999GF107991999999999999999999MA1101391999999REMMET055METAR ETMN 060520Z 25007KT 8000 BKN070 07/06 Q1014 BLU;
0158101360999992007010606204+53767+008667FM-15+0032ETMN V0202501N003110660019N0060001N1+00601+00501999999ADDGA1021+001201999GA2071+066001999GF107991999999999999999999MA1101391999999MW1121REMMET067METAR ETMN 060620Z 25006KT 6000 MIFG FEW004 BKN220 06/05 Q1014 WHT;
0193101360999992007010607004+53767+008667FM-12+0032ETMN V0202501N003010750019N0050001N1+00611+00541101431ADDAY121999AY221999GA1041+001201071GF107991041061001501001021MA1999999101041MD1010021+9999MW1101REMSYN088AAXX  06071 10136 41250 72503 10061 20054 30104 40143 50002 71022 84602 333 84704 87075;
0156101360999992007010607204+53767+008667FM-15+0032ETMN V0202601N005110570019N0037001N1+00601+00601999999ADDGA1021+001201999GA2071+057001999GF107991999999999999999999MA1101391999999MW1101REMMET065METAR ETMN 060720Z 26010KT 3700 BR FEW004 BKN190 06/06 Q1014 GRN;
0124101360999992007010607484+53767+008667FM-16+0032ETMN V0202601N005110600019N0070001N1+00601+00501999999ADDGA1071+060001999GF107991999999999999999999MA1101391999999REMMET055SPECI ETMN 060748Z 26010KT 7000 BKN200 06/05 Q1014 WHT;
0159101360999992007010608004+53767+008667FM-12+0032ETMN V0202601N005010600019N0070001N1+00621+00541101471ADDGA1071+060001001GF107991001001999999001021MA1999999101081MD1310031+9999REMSYN076AAXX  06081 10136 41957 72605 10062 20054 30108 40147 53003 80002 333 87070;
0148101360999992007010608204+53767+008667FM-15+0032ETMN V0202601N005110600019N0112651N1+00601+00501999999ADDGA1021+030001999GA2071+060001999GF107991999999999999999999MA1101391999999REMMET063METAR ETMN 060820Z 26010KT 9999 FEW100 BKN200 06/05 Q1014 BLU+;
0147101360999992007010609204+53767+008667FM-15+0032ETMN V0202401N004110510019N0112651N1+00601+00501999999ADDGA1021+001801999GA2071+051001999GF107991999999999999999999MA1101491999999REMMET062METAR ETMN 060920Z 24008KT 9999 FEW006 BKN170 06/05 Q1015 BLU;
0165101360999992007010610004+53767+008667FM-12+0032ETMN V0202501N00401030001CN0100001N1+00651+00541101541ADDGA1021+001501071GF107991031061001501011999MA1999999101151MD1210111+9999REMSYN082AAXX  06101 10136 42260 72504 10065 20054 30115 40154 52011 8361/ 333 82705 87465;
0147101360999992007010610204+53767+008667FM-15+0032ETMN V0202401N004110420019N0090001N1+00701+00501999999ADDGA1021+001501999GA2071+042001999GF107991999999999999999999MA1101491999999REMMET062METAR ETMN 061020Z 24008KT 9000 FEW005 BKN140 07/05 Q1015 BLU;
0187101360999992007010611004+53767+008667FM-12+0032ETMN V0202501N005010360019N0080001N1+00671+00551101511ADDGA1021+001501071GA2031+036001031GF107991021061001501071999MA1999999101121MD1010041+9999REMSYN088AAXX  06111 10136 42258 72505 10067 20055 30112 40151 50004 8267/ 333 82705 83362 87465;
0147101360999992007010611204+53767+008667FM-15+0032ETMN V0202501N004610420019N0080001N1+00701+00601999999ADDGA1021+002101999GA2081+042001999GF108991999999999999999999MA1101491999999REMMET062METAR ETMN 061120Z 25009KT 8000 FEW007 OVC140 07/06 Q1015 BLU;
0147101360999992007010612204+53767+008667FM-15+0032ETMN V0202401N004610390019N0112651N1+00701+00601999999ADDGA1041+002101999GA2081+039001999GF108991999999999999999999MA1101391999999REMMET062METAR ETMN 061220Z 24009KT 9999 SCT007 OVC130 07/06 Q1014 BLU;
0165101360999992007010613004+53767+008667FM-12+0032ETMN V0202501N00501030001CN0090001N1+00701+00541101451ADDGA1011+002101071GF108991011061002501011999MA1999999101061MD1810091+9999REMSYN082AAXX  06131 10136 42359 82505 10070 20054 30106 40145 58009 8161/ 333 81707 88463;
0147101360999992007010613204+53767+008667FM-15+0032ETMN V0202401N004610420019N0080001N1+00701+00501999999ADDGA1021+003001999GA2071+042001999GF107991999999999999999999MA1101391999999REMMET062METAR ETMN 061320Z 24009KT 8000 FEW010 BKN140 07/05 Q1014 BLU;
0165101360999992007010614004+53767+008667FM-12+0032ETMN V0202401N00501030001CN0080001N1+00691+00541101421ADDGA1031+003301071GF108991031061004501031999MA1999999101031MD1810091+9999REMSYN082AAXX  06141 10136 42458 82405 10069 20054 30103 40142 58009 8363/ 333 83711 87362;
0147101360999992007010614204+53767+008667FM-15+0032ETMN V0202401N004110360019N0070001N1+00701+00501999999ADDGA1041+003001999GA2071+036001999GF107991999999999999999999MA1101391999999REMMET062METAR ETMN 061420Z 24008KT 7000 SCT010 BKN120 07/05 Q1014 WHT;
0147101360999992007010615204+53767+008667FM-15+0032ETMN V0202301N003610330019N0060001N1+00701+00501999999ADDGA1041+024001999GA2071+033001999GF107991999999999999999999MA1101291999999REMMET062METAR ETMN 061520Z 23007KT 6000 SCT080 BKN110 07/05 Q1013 WHT;
0193101360999992007010616004+53767+008667FM-12+0032ETMN V0202201N003019999999N0050001N1+00641+00511101331ADDAY121999AY221999GA1031+024001031GF108991071001999999071999MA1999999100941MD1710121+9999MW1101REMSYN088AAXX  06161 10136 41950 82203 10064 20051 30094 40133 57012 71022 8707/ 333 83358 87362;
0147101360999992007010616204+53767+008667FM-15+0032ETMN V0202201N003610210019N0060001N1+00701+00501999999ADDGA1041+015001999GA2071+021001999GF107991999999999999999999MA1101291999999REMMET062METAR ETMN 061620Z 22007KT 6000 SCT050 BKN070 07/05 Q1013 WHT;
0193101360999992007010617004+53767+008667FM-12+0032ETMN V0202201N00401004201CN0070001N1+00661+00521101291ADDAY121999AY221999GA1021+003001071GF108991071051004501999999MA1999999100901MD1710131+9999MW1101REMSYN088AAXX  06171 10136 41457 82204 10066 20052 30090 40129 57013 71022 875// 333 82710 87650;
0147101360999992007010617204+53767+008667FM-15+0032ETMN V0202101N003610150019N0070001N1+00701+00501999999ADDGA1041+003001999GA2071+015001999GF107991999999999999999999MA1101191999999REMMET062METAR ETMN 061720Z 21007KT 7000 SCT010 BKN050 07/05 Q1012 WHT;
0147101360999992007010618204+53767+008667FM-15+0032ETMN V0202101N003110270019N0070001N1+00601+00501999999ADDGA1041+018001999GA2071+027001999GF107991999999999999999999MA1101081999999REMMET062METAR ETMN 061820Z 21006KT 7000 SCT060 BKN090 06/05 Q1011 WHT;
0187101360999992007010619004+53767+008667FM-12+0032ETMN V0202201N004010090019N0060001N1+00651+00511101171ADDAY121999AY221999GA1071+009001061GF108991071051008001999999MA1999999100781MD1710161+9999MW1601REMSYN082AAXX  06191 10136 41556 82204 10065 20051 30078 40117 57016 76022 875// 333 87630;
0166101360999992007010619204+53767+008667FM-15+0032ETMN V0202201N003110075019N0050001N1+00701+00501999999ADDGA1021+003001999GA2071+007501999GF107991999999999999999999MA1101081999999MW1101MW2611REMMET069METAR ETMN 061920Z 22006KT 5000 -RA BR FEW010 BKN025 07/05 Q1011 WHT;
0165101360999992007010619514+53767+008667FM-16+0032ETMN V0202201N003610072019N0040001N1+00601+00501999999ADDGA1021+004801999GA2071+007201999GF107991999999999999999999MA1101081999999MW1101MW2631REMMET068SPECI ETMN 061951Z 22007KT 4000 RA BR FEW016 BKN024 06/05 Q1011 GRN;
0193101360999992007010620004+53767+008667FM-12+0032ETMN V0202201N00401009001CN0040001N1+00631+00521101151ADDAY161999AY261999GA1011+004801081GF108991071081004501999999MA1999999100761MD1610141+9999MW1631REMSYN088AAXX  06201 10136 41440 82204 10063 20052 30076 40115 56014 76366 878// 333 81816 87624;
0162101360999992007010620204+53767+008667FM-15+0032ETMN V0202301N003610066019N0060001N1+00601+00501999999ADDGA1021+004201999GA2071+006601999GF107991999999999999999999MA1101081999999MW1611REMMET071METAR ETMN 062020Z 23007KT 6000 -RA FEW014 BKN022 06/05 Q1011 RERA WHT;
0180101360999992007010621204+53767+008667FM-15+0032ETMN V0202301N00211007501CN0060001N1+00501+00501999999ADDGA1021+004501999GA2041+007501999GA3071+013501999GF107991999999999999999999MA1101081999999MW1611REMMET073METAR ETMN 062120Z 23004KT 6000 -RA FEW015 SCT025 BKN045 05/05 Q1011 WHT;
0215101360999992007010622004+53767+008667FM-12+0032ETMN V0202201N00301015001CN0060001N1+00501+00421101101ADDAY161999AY261999GA1021+008101061GA2031+015001061GF108991041051008001021999MA1999999100711MD1610071+9999MW1611REMSYN094AAXX  06221 10136 41556 82203 10050 20042 30071 40110 56007 76166 8452/ 333 82627 83650 88460;
0170101360999992007010622204+53767+008667FM-15+0032ETMN V0202001N00151024001CN0070001N1+00401+00401999999ADDGA1021+010501999GA2041+024001999GA3071+048001999GF107991999999999999999999MA1101021999999REMMET069METAR ETMN 062220Z 20003KT 7000 FEW035 SCT080 BKN160 04/04 Q1010 WHT;
0215101360999992007010623004+53767+008667FM-12+0032ETMN V0202001N002010270019N0080001N1+00431+00371101011ADDAY161999AY221999GA1031+015001061GA2031+027001031GF107991031051017501071999MA1999999100621MD1710141+9999MW1211REMSYN094AAXX  06231 10136 41758 72002 10043 20037 30062 40101 57014 72162 8357/ 333 83650 83359 87466;
0147101360999992007010623204+53767+008667FM-15+0032ETMN V0202001N001510135019N0090001N1+00401+00301999999ADDGA1071+013501999GA2071+039001999GF107991999999999999999999MA1100911999999REMMET062METAR ETMN 062320Z 20003KT 9000 BKN045 BKN130 04/03 Q1009 BLU;
0135101360999992007010700204+53767+008667FM-15+0032ETMN V0209999C000012200019N0070001N1+00201+00201999999ADDGA1041+039001999GF104991999999999999999999MA1100911999999MW1121REMMET060METAR ETMN 070020Z 00000KT 7000 MIFG SCT130 02/02 Q1009 WHT;
0156101360999992007010700564+53767+008667FM-16+0032ETMN V0209999C000012200019N0005001N1+00201+00201999999ADDGA1021+003301999GA2041+054001999GF104991999999999999999999MA1101021999999MW1441REMMET065SPECI ETMN 070056Z 00000KT 0500 FG FEW011 SCT180 02/02 Q1010 RED;
0193101360999992007010701004+53767+008667FM-12+0032ETMN V0209999C000012200019N0005001N1+00221+00181101041ADDAY141011AY211011GA1021+003601071GF104991021061004501001021MA1999999100651MD1510061+9999MW1461REMSYN088AAXX  07011 10136 41405 40000 10022 20018 30065 40104 55006 74641 82602 333 82712 83068;
0133101360999992007010701204+53767+008667FM-15+0032ETMN V0202401N001512200019N0008001N1+00301+00201999999ADDGA1021+002401999GF102991999999999999999999MA1101021999999MW1441REMMET058METAR ETMN 070120Z 24003KT 0800 FG FEW008 03/02 Q1010 AMB;
0187101360999992007010702004+53767+008667FM-12+0032ETMN V0202401N002012200019N0008001N1+00281+00281101111ADDAY141999AY241999GA1031+002101071GF103991031061002501031001MA1999999100721MD1310101+9999MW1421REMSYN082AAXX  07021 10136 41308 32402 10028 20028 30072 40111 53010 74244 83630 333 83707;
0144101360999992007010702204+53767+008667FM-15+0032ETMN V0202301N002112200019N0020001N1+00201+00201999999ADDGA1021+002101999GF102991999999999999999999MA1101021999999MW1101MW2121REMMET063METAR ETMN 070220Z 23004KT 2000 MIFG BR FEW007 02/02 Q1010 YLO;
0133101360999992007010703204+53767+008667FM-15+0032ETMN V0202601N002610024019N0050001N1+00301+00301999999ADDGA1071+002401999GF107991999999999999999999MA1101191999999MW1101REMMET058METAR ETMN 070320Z 26005KT 5000 BR BKN008 03/03 Q1012 GRN;
0193101360999992007010704004+53767+008667FM-12+0032ETMN V0202401N00201002101CN0050001N1+00301+00261101241ADDAY121999AY221999GA1011+002101071GF107991071051002501999999MA1999999100851MD1210201+9999MW1101REMSYN088AAXX  07041 10136 41350 72402 10030 20026 30085 40124 52020 71022 875// 333 81707 87632;
0124101360999992007010704204+53767+008667FM-15+0032ETMN V0202401N003110099019N0060001N1+00401+00301999999ADDGA1071+009901999GF107991999999999999999999MA1101191999999REMMET055METAR ETMN 070420Z 24006KT 6000 BKN033 04/03 Q1012 WHT;
0187101360999992007010705004+53767+008667FM-12+0032ETMN V0202301N003010096019N0070001N1+00401+00361101261ADDAY121999AY221999GA1071+009601061GF107991071051008001999999MA1999999100871MD1210151+9999MW1101REMSYN082AAXX  07051 10136 41557 72303 10040 20036 30087 40126 52015 71022 875// 333 87632;
0147101360999992007010705204+53767+008667FM-15+0032ETMN V0202401N003610660019N0070001N1+00401+00301999999ADDGA1021+009001999GA2071+066001999GF107991999999999999999999MA1101191999999REMMET062METAR ETMN 070520Z 24007KT 7000 FEW030 BKN220 04/03 Q1012 WHT;
0147101360999992007010706204+53767+008667FM-15+0032ETMN V0202301N004112200019N0070001N1+00301+00301999999ADDGA1041+042001999GA2041+060001999GF104991999999999999999999MA1101191999999REMMET062METAR ETMN 070620Z 23008KT 7000 SCT140 SCT200 03/03 Q1012 WHT;
0187101360999992007010707004+53767+008667FM-12+0032ETMN V0202401N004010210019N0060001N1+00321+00261101311ADDAY111999AY211999GA1061+021001061GF106991061051022501001001MA1999999100921MD1210071+9999MW1101REMSYN082AAXX  07071 10136 41856 62404 10032 20026 30092 40131 52007 71011 86500 333 86657;
0133101360999992007010707054+53767+008667FM-16+0032ETMN V0202101N004112200019N0040001N1+00301+00301999999ADDGA1021+021001999GF102991999999999999999999MA1101291999999MW1101REMMET058SPECI ETMN 070705Z 21008KT 4000 BR FEW070 03/03 Q1013 GRN;
0133101360999992007010707204+53767+008667FM-15+0032ETMN V0202301N005112200019N0040001N1+00301+00301999999ADDGA1041+021001999GF104991999999999999999999MA1101291999999MW1101REMMET058METAR ETMN 070720Z 23010KT 4000 BR SCT070 03/03 Q1013 GRN;
0187101360999992007010708004+53767+008667FM-12+0032ETMN V0202201N005010090019N0037001N1+00351+00281101311ADDAY111999AY211999GA1071+009001061GF107991071051008001999999MA1999999100921MD1110051+9999MW1101REMSYN082AAXX  07081 10136 41537 72205 10035 20028 30092 40131 51005 71011 875// 333 87630;
0156101360999992007010708204+53767+008667FM-15+0032ETMN V0202201N005710090019N0030001N1+00401+00301999999ADDGA1021+004501999GA2071+009001999GF107991999999999999999999MA1101291999999MW1101REMMET065METAR ETMN 070820Z 22011KT 3000 BR FEW015 BKN030 04/03 Q1013 YLO;
0133101360999992007010708454+53767+008667FM-15+0032ETMN V0202201N006210012019N0030001N1+00401+00401999999ADDGA1071+001201999GF107991999999999999999999MA1101291999999MW1101REMMET058SPECI ETMN 070845Z 22012KT 3000 BR BKN004 04/04 Q1013 YLO;
0133101360999992007010709204+53767+008667FM-15+0032ETMN V0202201N005710012019N0030001N1+00501+00401999999ADDGA1071+001201999GF107991999999999999999999MA1101291999999MW1101REMMET058METAR ETMN 070920Z 22011KT 3000 BR BKN004 05/04 Q1013 YLO;
0156101360999992007010709504+53767+008667FM-15+0032ETMN V0202201N005710030019N0037001N1+00601+00501999999ADDGA1041+001201999GA2071+003001999GF107991999999999999999999MA1101291999999MW1101REMMET065SPECI ETMN 070950Z 22011KT 3700 BR SCT004 BKN010 06/05 Q1013 GRN;
0193101360999992007010710004+53767+008667FM-12+0032ETMN V0202201N00601001201CN0037001N1+00581+00471101311ADDAY121011AY221011GA1031+001201071GF107991071061001501999999MA1999999100921MD1010001+9999MW1101REMSYN088AAXX  07101 10136 41237 72206 10058 20047 30092 40131 50000 71022 876// 333 83704 87710;
0156101360999992007010710204+53767+008667FM-15+0032ETMN V0202201N005710027019N0040001N1+00601+00501999999ADDGA1041+001201999GA2071+002701999GF107991999999999999999999MA1101191999999MW1101REMMET065METAR ETMN 071020Z 22011KT 4000 BR SCT004 BKN009 06/05 Q1012 GRN;
0193101360999992007010711004+53767+008667FM-12+0032ETMN V0202201N00601002101CN0040001N1+00641+00501101261ADDAY121999AY221999GA1021+001801071GF107991071061002501999999MA1999999100871MD1810051+9999MW1101REMSYN088AAXX  07111 10136 41340 72206 10064 20050 30087 40126 58005 71022 876// 333 82706 87709;
0156101360999992007010711204+53767+008667FM-15+0032ETMN V0202201N006710024019N0050001N1+00701+00501999999ADDGA1071+002401999GA2071+003601999GF107991999999999999999999MA1101191999999MW1101REMMET065METAR ETMN 071120Z 22013KT 5000 BR BKN008 BKN012 07/05 Q1012 GRN;
0133101360999992007010712204+53767+008667FM-15+0032ETMN V0202201N007710042019N0050001N1+00701+00601999999ADDGA1071+004201999GF107991999999999999999999MA1101081999999MW1101REMMET058METAR ETMN 071220Z 22015KT 5000 BR BKN014 07/06 Q1011 GRN;
0187101360999992007010713004+53767+008667FM-12+0032ETMN V0202201N007010033019N0050001N1+00731+00581101061ADDAY121999AY221999GA1071+003301061GF108991071051004501999999MA1999999100681MD1710241+9999MW1101REMSYN082AAXX  07131 10136 41450 82207 10073 20058 30068 40106 57024 71022 875// 333 87611;
0143101360999992007010713204+53767+008667FM-15+0032ETMN V0202201N007710027019N0035001N1+00701+00601999999ADDGA1071+002701999GF107991999999999999999999MA1101021999999MW1101MW2511REMMET062METAR ETMN 071320Z 22015KT 3500 -DZ BR BKN009 07/06 Q1010 YLO;
0187101360999992007010714004+53767+008667FM-12+0032ETMN V0202201N007010021019N0035001N1+00741+00631101011ADDAY161999AY221999GA1071+002101071GF108991071071002501999999MA1999999100631MD1710241+9999MW1581REMSYN082AAXX  07141 10136 41335 82207 10074 20063 30063 40101 57024 75862 877// 333 87707;
0143101360999992007010714204+53767+008667FM-15+0032ETMN V0202301N007710024019N0045001N1+00801+00601999999ADDGA1071+002401999GF107991999999999999999999MA1101021999999MW1101MW2511REMMET062METAR ETMN 071420Z 23015KT 4500 -DZ BR BKN008 08/06 Q1010 GRN;
0134101360999992007010715204+53767+008667FM-15+0032ETMN V0202401N007710030019N0060001N1+00801+00601999999ADDGA1071+003001999GF107991999999999999999999MA1101021999999MW1511REMMET059METAR ETMN 071520Z 24015KT 6000 -DZ BKN010 08/06 Q1010 GRN;
0187101360999992007010716004+53767+008667FM-12+0032ETMN V0202301N007010027019N0070001N1+00811+00641100991ADDAY151999AY221999GA1071+002701071GF108991071061002501999999MA1999999100611MD1710071+9999MW1201REMSYN082AAXX  07161 10136 41357 82307 10081 20064 30061 40099 57007 72052 876// 333 87709;
0124101360999992007010716204+53767+008667FM-15+0032ETMN V0202301N006210024019N0070001N1+00801+00601999999ADDGA1071+002401999GF107991999999999999999999MA1101021999999REMMET055METAR ETMN 071620Z 23012KT 7000 BKN008 08/06 Q1010 GRN;
0187101360999992007010717004+53767+008667FM-12+0032ETMN V0202301N006010021019N0070001N1+00791+00661100981ADDAY121999AY221999GA1071+002101071GF108991071061002501999999MA1999999100601MD1810031+9999MW1101REMSYN082AAXX  07171 10136 41357 82306 10079 20066 30060 40098 58003 71022 876// 333 87707;
0134101360999992007010717204+53767+008667FM-15+0032ETMN V0202301N007210021019N0070001N1+00801+00701999999ADDGA1071+002101999GF107991999999999999999999MA1100911999999MW1511REMMET059METAR ETMN 071720Z 23014KT 7000 -DZ BKN007 08/07 Q1009 GRN;
0134101360999992007010718204+53767+008667FM-15+0032ETMN V0202301N007210021019N0060001N1+00801+00701999999ADDGA1071+002101999GF107991999999999999999999MA1100911999999MW1611REMMET059METAR ETMN 071820Z 23014KT 6000 -RA BKN007 08/07 Q1009 GRN;
0187101360999992007010719004+53767+008667FM-12+0032ETMN V0202301N007010021019N0070001N1+00791+00671100951ADDAY161999AY261999GA1071+002101071GF108991071071002501999999MA1999999100571MD1710041+9999MW1611REMSYN082AAXX  07191 10136 41357 82307 10079 20067 30057 40095 57004 76166 877// 333 87707;
0124101360999992007010719204+53767+008667FM-15+0032ETMN V0202301N007710027019N0070001N1+00801+00701999999ADDGA1071+002701999GF107991999999999999999999MA1101191999999REMMET055METAR ETMN 071920Z 23015KT 7000 BKN009 08/07 Q1012 GRN;
0187101360999992007010720004+53767+008667FM-12+0032ETMN V0202301N007010027019N0080001N1+00811+00661100941ADDAY161999AY221999GA1071+002701071GF108991071071002501999999MA1999999100561MD1710041+9999MW1211REMSYN082AAXX  07201 10136 41358 82307 10081 20066 30056 40094 57004 72162 877// 333 87709;
0134101360999992007010720204+53767+008667FM-15+0032ETMN V0202301N007210027019N0080001N1+00801+00601999999ADDGA1071+002701999GF107991999999999999999999MA1100911999999MW1511REMMET059METAR ETMN 072020Z 23014KT 8000 -DZ BKN009 08/06 Q1009 GRN;
0124101360999992007010721204+53767+008667FM-15+0032ETMN V0202301N007210033019N0090001N1+00801+00601999999ADDGA1071+003301999GF107991999999999999999999MA1100911999999REMMET055METAR ETMN 072120Z 23014KT 9000 BKN011 08/06 Q1009 GRN;
0159101360999992007010722004+53767+008667FM-12+0032ETMN V0202301N008010033019N0090001N1+00821+00611100851ADDGA1071+003301071GF108991071061004501999999MA1999999100471MD1710101+9999REMSYN076AAXX  07221 10136 42459 82308 10082 20061 30047 40085 57010 876// 333 87711;
0147101360999992007010722204+53767+008667FM-15+0032ETMN V0202301N007210066019N0112651N1+00801+00601999999ADDGA1021+003301999GA2071+006601999GF107991999999999999999999MA1100811999999REMMET062METAR ETMN 072220Z 23014KT 9999 FEW011 BKN022 08/06 Q1008 WHT;
0159101360999992007010723004+53767+008667FM-12+0032ETMN V0202201N008010060019N0150001N1+00811+00561100811ADDGA1071+006001061GF107991071051008001999999MA1999999100431MD1710131+9999REMSYN076AAXX  07231 10136 42565 72208 10081 20056 30043 40081 57013 875// 333 87620;
0124101360999992007010723204+53767+008667FM-15+0032ETMN V0202201N006710060019N0112651N1+00801+00601999999ADDGA1071+006001999GF107991999999999999999999MA1100711999999REMMET055METAR ETMN 072320Z 22013KT 9999 BKN020 08/06 Q1007 WHT;
0148101360999992007010800204+53767+008667FM-15+0032ETMN V0202101N006212200019N0112651N1+00701+00501999999ADDGA1021+006001999GA2041+015001999GF104991999999999999999999MA1100611999999REMMET063METAR ETMN 080020Z 21012KT 9999 FEW020 SCT050 07/05 Q1006 BLU+;
0159101360999992007010801004+53767+008667FM-12+0032ETMN V0202101N006010144019N0150001N1+00711+00471100641ADDGA1061+014401061GF106991061051012501001001MA1999999100261MD1710211+9999REMSYN076AAXX  08011 10136 42665 62106 10071 20047 30026 40064 57021 86500 333 86648;
0147101360999992007010801204+53767+008667FM-15+0032ETMN V0202101N006210135019N0112651N1+00701+00401999999ADDGA1021+006001999GA2071+013501999GF107991999999999999999999MA1100611999999REMMET062METAR ETMN 080120Z 21012KT 9999 FEW020 BKN045 07/04 Q1006 BLU;
0165101360999992007010802004+53767+008667FM-12+0032ETMN V0202001N00601030001CN0150001N1+00711+00411100491ADDGA1021+015001061GF107991021051017501011999MA1999999100111MD1710321+9999REMSYN082AAXX  08021 10136 42765 72006 10071 20041 30011 40049 57032 8251/ 333 82650 87461;
0147101360999992007010802204+53767+008667FM-15+0032ETMN V0202001N006710360019N0112651N1+00701+00401999999ADDGA1021+015001999GA2071+036001999GF107991999999999999999999MA1100411999999REMMET062METAR ETMN 080220Z 20013KT 9999 FEW050 BKN120 07/04 Q1004 BLU;
0147101360999992007010803204+53767+008667FM-15+0032ETMN V0201901N005710360019N0112651N1+00701+00401999999ADDGA1041+006901999GA2081+036001999GF108991999999999999999999MA1100311999999REMMET062METAR ETMN 080320Z 19011KT 9999 SCT023 OVC120 07/04 Q1003 BLU;
0165101360999992007010804004+53767+008667FM-12+0032ETMN V0202001N007010066019N0150001N1+00691+00361100261ADDGA1051+006601061GF108991051051008001031999MA1999999099881MD1710381+9999REMSYN082AAXX  08041 10136 42565 82007 10069 20036 39988 40026 57038 8553/ 333 85622 87358;
0161101360999992007010804204+53767+008667FM-15+0032ETMN V0202001N006710210019N0112651N1+00701+00401999999ADDGA1041+006901999GA2071+021001999GF107991999999999999999999MA1100201999999REMMET076METAR ETMN 080420Z 20013KT 9999 SCT023 BKN070 07/04 Q1002 BLU BLU TEMPO WHT;
0161101360999992007010804504+53767+008667FM-15+0032ETMN V0202001N007210150019N0112651N1+00701+00401999999ADDGA1021+006601999GA2071+015001999GF107991999999999999999999MA1100101999999REMMET076SPECI ETMN 080450Z 20014KT 9999 FEW022 BKN050 07/04 Q1001 BLU BLU TEMPO WHT;
0165101360999992007010805004+53767+008667FM-12+0032ETMN V0202001N00701012001CN0200001N1+00701+00351100191ADDGA1021+006601061GF108991071051012501999999MA1999999099811MD1710301+9999REMSYN082AAXX  08051 10136 42670 82007 10070 20035 39981 40019 57030 875// 333 82622 87648;
0138101360999992007010805204+53767+008667FM-15+0032ETMN V0202001N006710150019N0112651N1+00701+00401999999ADDGA1071+015001999GF107991999999999999999999MA1100001999999REMMET069METAR ETMN 080520Z 20013KT 9999 BKN050 07/04 Q1000 BLU BLU TEMPO WHT;
0148101360999992007010806204+53767+008667FM-15+0032ETMN V0202001N007210135019N0112651N1+00701+00401999999ADDGA1071+013501999GF107991999999999999999999MA1100001999999MW1611REMMET073METAR ETMN 080620Z 20014KT 9999 -RA BKN045 07/04 Q1000 BLU BLU TEMPO WHT;
0193101360999992007010807004+53767+008667FM-12+0032ETMN V0202001N00701007501CN0110001N1+00731+00371099911ADDAY161999AY251999GA1031+006001061GF108991071051008001999999MA1999999099531MD1710351+9999MW1611REMSYN088AAXX  08071 10136 41561 82007 10073 20037 39953 49991 57035 76165 875// 333 83620 87630;
0148101360999992007010807204+53767+008667FM-15+0032ETMN V0202001N007710060019N0112651N1+00701+00501999999ADDGA1071+006001999GF107991999999999999999999MA1099901999999MW1611REMMET073METAR ETMN 080720Z 20015KT 9999 -RA BKN020 07/05 Q0999 WHT BLU TEMPO WHT;
0193101360999992007010808004+53767+008667FM-12+0032ETMN V0202101N009010045019N0100001N1+00731+00471099851ADDAY161999AY261999GA1071+004501061GF108991071051004501999999MA1999999099471MD1710341+9999MW1611REMSYN088AAXX  08081 10136 41460 82109 10073 20047 39947 49985 57034 76166 875// 333 87615 91113;
0148101360999992007010808204+53767+008667FM-15+0032ETMN V0202001N007710045019N0112651N1+00701+00501999999ADDGA1071+004501999GF107991999999999999999999MA1099801999999MW1611REMMET073METAR ETMN 080820Z 20015KT 9999 -RA BKN015 07/05 Q0998 WHT BLU TEMPO WHT;
0148101360999992007010809004+53767+008667FM-15+0032ETMN V0202001N007210033019N0060001N1+00701+00601999999ADDGA1071+003301999GF107991999999999999999999MA1099701999999MW1611REMMET073SPECI ETMN 080900Z 20014KT 6000 -RA BKN011 07/06 Q0997 GRN WHT TEMPO GRN;
0191101360999992007010809204+53767+008667FM-15+0032ETMN V0202401N007710033019N0045001N1+00701+00601999999ADDGA1041+002401999GA2071+003301999GF107991999999999999999999MA1099701999999MW1101MW2611OC101291REMMET086METAR ETMN 080920Z 24015G25KT 4500 -RA BR SCT008 BKN011 07/06 Q0997 GRN WHT TEMPO GRN;
0215101360999992007010810004+53767+008667FM-12+0032ETMN V0202101N008010030019N0045001N1+00771+00641099751ADDAY161999AY261999GA1031+002401071GA2071+003001061GF108991071051002501999999MA1999999099371MD1710161+9999MW1611REMSYN094AAXX  08101 10136 41345 82108 10077 20064 39937 49975 57016 76166 875// 333 83708 87610 91113;
0162101360999992007010810204+53767+008667FM-15+0032ETMN V0202401N007210024019N0045001N1+00801+00701999999ADDGA1071+002401999GF107991999999999999999999MA1099701999999MW1101MW2611REMMET081METAR ETMN 081020Z 24014KT 4500 -RA BR BKN008 08/07 Q0997 RERA GRN WHT TEMPO GRN;
0176101360999992007010810354+53767+008667FM-16+0032ETMN V0202301N007710024019N0060001N1+00801+00701999999ADDGA1071+002401999GA2071+006001999GF107991999999999999999999MA1099701999999MW1611REMMET085SPECI ETMN 081035Z 23015KT 6000 -RA BKN008 BKN020 08/07 Q0997 RERA GRN WHT TEMPO GRN;
0215101360999992007010811004+53767+008667FM-12+0032ETMN V0202401N009010024019N0080001N1+00821+00691099811ADDAY161999AY261999GA1051+002401071GA2071+005401061GF108991071051002501999999MA1999999099431MD1510041+9999MW1611REMSYN094AAXX  08111 10136 41358 82409 10082 20069 39943 49981 55004 76166 875// 333 85708 87618 91113;
0161101360999992007010811024+53767+008667FM-16+0032ETMN V0202501N008210111019N0112651N1+00801+00701999999ADDGA1041+003001999GA2071+011101999GF107991999999999999999999MA1099801999999REMMET076SPECI ETMN 081102Z 25016KT 9999 SCT010 BKN037 08/07 Q0998 BLU BLU TEMPO WHT;
0161101360999992007010811204+53767+008667FM-15+0032ETMN V0202601N007710135019N0112651N1+00801+00701999999ADDGA1041+004501999GA2071+013501999GF107991999999999999999999MA1099801999999REMMET076METAR ETMN 081120Z 26015KT 9999 SCT015 BKN045 08/07 Q0998 BLU BLU TEMPO WHT;
0161101360999992007010812204+53767+008667FM-15+0032ETMN V0202601N007210102019N0112651N1+00901+00601999999ADDGA1021+004501999GA2071+010201999GF107991999999999999999999MA1099801999999REMMET076METAR ETMN 081220Z 26014KT 9999 FEW015 BKN034 09/06 Q0998 BLU BLU TEMPO WHT;
0165101360999992007010813004+53767+008667FM-12+0032ETMN V0202601N00701009001CN0150001N1+00851+00461099861ADDGA1011+004501081GF106991061081004501001001MA1999999099481MD1010111+9999REMSYN082AAXX  08131 10136 41465 62607 10085 20046 39948 49986 50011 86800 333 81815 86634;
0173101360999992007010813204+53767+008667FM-15+0032ETMN V0202601N007210123019N0112651N1+00801+00501999999ADDGA1021+004501999GA2071+012301999GF107991999999999999999999MA1099801999999MW1801REMMET082METAR ETMN 081320Z 26014KT 9999 -SHRA FEW015 BKN041 08/05 Q0998 BLU BLU TEMPO WHT;
0193101360999992007010814004+53767+008667FM-12+0032ETMN V0202601N00901009001CN0150001N1+00831+00521099851ADDAY121999AY221999GA1011+004501081GF105991051081004501001001MA1999999099471MD1010101+9999MW1251REMSYN088AAXX  08141 10136 41465 52609 10083 20052 39947 49985 50010 72522 85800 333 81815 85642;
0161101360999992007010814204+53767+008667FM-15+0032ETMN V0202601N008210144019N0112651N1+00801+00501999999ADDGA1021+004501999GA2071+014401999GF107991999999999999999999MA1099901999999REMMET076METAR ETMN 081420Z 26016KT 9999 FEW015 BKN048 08/05 Q0999 BLU BLU+TEMPO WHT;
0175101360999992007010815204+53767+008667FM-15+0032ETMN V0202501N00671045001CN0112651N1+00701+00401999999ADDGA1021+018001999GA2041+045001999GA3071+075001999GF107991999999999999999999MA1100001999999REMMET074METAR ETMN 081520Z 25013KT 9999 FEW060 SCT150 BKN250 07/04 Q1000 BLU+BLU+;
0165101360999992007010816004+53767+008667FM-12+0032ETMN V0202501N00601030001CN0100001N1+00681+00391100061ADDGA1031+018001051GF105991031051017501031011MA1999999099681MD1210201+9999REMSYN082AAXX  08161 10136 42760 52506 10068 20039 39968 40006 52020 83531 333 83556 85075;
0152101360999992007010816204+53767+008667FM-15+0032ETMN V0202401N005710750019N0112651N1+00701+00401999999ADDGA1041+018001999GA2071+075001999GF107991999999999999999999MA1100101999999REMMET067METAR ETMN 081620Z 24011KT 9999 SCT060 BKN250 07/04 Q1001 BLU+BLU+;
0165101360999992007010817004+53767+008667FM-12+0032ETMN V0202401N006019999999N0120001N1+00661+00391100171ADDGA1041+048001031GF105991041001999999031011MA1999999099791MD1210281+9999REMSYN082AAXX  08171 10136 42962 52406 10066 20039 39979 40017 52028 84031 333 84366 85075;
0152101360999992007010817204+53767+008667FM-15+0032ETMN V0202401N004610750019N0112651N1+00601+00401999999ADDGA1041+048001999GA2071+075001999GF107991999999999999999999MA1100101999999REMMET067METAR ETMN 081720Z 24009KT 9999 SCT160 BKN250 06/04 Q1001 BLU+BLU+;
0159101360999992007010818204+53767+008667FM-15+0032ETMN V0202201N005112200019N0112651N1+00601+00401999999ADDGA1021+036001999GA2041+075001999GF104991999999999999999999MA1100101999999REMMET074METAR ETMN 081820Z 22010KT 9999 FEW120 SCT250 06/04 Q1001 BLU+FCST CANCEL;
0159101360999992007010819004+53767+008667FM-12+0032ETMN V0202001N005012200019N0120001N1+00621+00391100121ADDGA1041+036001031GF104991041001999999031001MA1999999099741MD1010061+9999REMSYN076AAXX  08191 10136 41962 42005 10062 20039 39974 40012 50006 84030 333 84362;
0125101360999992007010819204+53767+008667FM-15+0032ETMN V0202101N005712200019N0112651N1+00701+00401999999ADDGA1041+036001999GF104991999999999999999999MA1100101999999REMMET056METAR ETMN 081920Z 21011KT 9999 SCT120 07/04 Q1001 BLU+;
0159101360999992007010820004+53767+008667FM-12+0032ETMN V0202101N006010270019N0120001N1+00671+00441100041ADDGA1061+027001031GF106991061001999999031001MA1999999099661MD1810131+9999REMSYN076AAXX  08201 10136 42962 62106 10067 20044 39966 40004 58013 86030 333 86359;
0124101360999992007010820204+53767+008667FM-15+0032ETMN V0202101N006210270019N0112651N1+00701+00501999999ADDGA1071+027001999GF107991999999999999999999MA1100001999999REMMET055METAR ETMN 082020Z 21012KT 9999 BKN090 07/05 Q1000 BLU;
0134101360999992007010821204+53767+008667FM-15+0032ETMN V0202001N005710135019N0080001N1+00701+00501999999ADDGA1071+013501999GF107991999999999999999999MA1099901999999MW1611REMMET059METAR ETMN 082120Z 20011KT 8000 -RA BKN045 07/05 Q0999 BLU;
0187101360999992007010822004+53767+008667FM-12+0032ETMN V0202001N006010120019N0070001N1+00731+00551099881ADDAY161999AY261999GA1071+012001061GF108991071051012501999999MA1999999099501MD1710241+9999MW1611REMSYN082AAXX  08221 10136 41657 82006 10073 20055 39950 49988 57024 76166 875// 333 87640;
0157101360999992007010822204+53767+008667FM-15+0032ETMN V0201901N006710060019N0060001N1+00701+00601999999ADDGA1041+003001999GA2071+006001999GF107991999999999999999999MA1099801999999MW1611REMMET066METAR ETMN 082220Z 19013KT 6000 -RA SCT010 BKN020 07/06 Q0998 WHT;
0193101360999992007010823004+53767+008667FM-12+0032ETMN V0202101N00701002101CN0050001N1+00741+00601099801ADDAY161999AY261999GA1041+002701071GF108991071051002501999999MA1999999099421MD1710241+9999MW1611REMSYN088AAXX  08231 10136 41350 82107 10074 20060 39942 49980 57024 76166 875// 333 84709 87615;
0143101360999992007010823204+53767+008667FM-15+0032ETMN V0202101N007710021019N0050001N1+00801+00601999999ADDGA1071+002101999GF107991999999999999999999MA1099801999999MW1101MW2611REMMET062METAR ETMN 082320Z 21015KT 5000 -RA BR BKN007 08/06 Q0998 GRN;
0157101360999992007010900204+53767+008667FM-15+0032ETMN V0202201N008210021019N0060001N1+00801+00701999999ADDGA1041+001501999GA2071+002101999GF107991999999999999999999MA1099701999999MW1611REMMET066METAR ETMN 090020Z 22016KT 6000 -RA SCT005 BKN007 08/07 Q0997 GRN;
0193101360999992007010901004+53767+008667FM-12+0032ETMN V0202301N00701001201CN0060001N1+00871+00751099771ADDAY161999AY261999GA1031+001501071GF108991071071001501999999MA1999999099391MD1510111+9999MW1611REMSYN088AAXX  09011 10136 41256 82307 10087 20075 39939 49977 55011 76166 877// 333 83705 87707;
0134101360999992007010901204+53767+008667FM-15+0032ETMN V0202401N007210018019N0060001N1+00901+00801999999ADDGA1071+001801999GF107991999999999999999999MA1099701999999MW1611REMMET059METAR ETMN 090120Z 24014KT 6000 -RA BKN006 09/08 Q0997 YLO;
0187101360999992007010902004+53767+008667FM-12+0032ETMN V0202401N007010018019N0050001N1+00961+00841099811ADDAY161999AY261999GA1071+001801071GF108991071071002501999999MA1999999099431MD1310011+9999MW1611REMSYN082AAXX  09021 10136 41350 82407 10096 20084 39943 49981 53001 76166 877// 333 87706;
0133101360999992007010902204+53767+008667FM-15+0032ETMN V0202301N007710015019N0050001N1+01001+00901999999ADDGA1071+001501999GF107991999999999999999999MA1099801999999MW1101REMMET058METAR ETMN 090220Z 23015KT 5000 BR BKN005 10/09 Q0998 YLO;
0156101360999992007010903204+53767+008667FM-15+0032ETMN V0202301N006710018019N0050001N1+01001+00901999999ADDGA1071+001801999GA2071+002701999GF107991999999999999999999MA1099801999999MW1101REMMET065METAR ETMN 090320Z 23013KT 5000 BR BKN006 BKN009 10/09 Q0998 YLO;
0187101360999992007010904004+53767+008667FM-12+0032ETMN V0202201N007010018019N0050001N1+01051+00941099851ADDAY121999AY221999GA1071+001801071GF108991071071002501999999MA1999999099471MD1110081+9999MW1611REMSYN082AAXX  09041 10136 41350 82207 10105 20094 39947 49985 51008 76122 877// 333 87706;
0143101360999992007010904204+53767+008667FM-15+0032ETMN V0202301N007210015019N0050001N1+01101+01001999999ADDGA1071+001501999GF107991999999999999999999MA1099801999999MW1101MW2611REMMET062METAR ETMN 090420Z 23014KT 5000 -RA BR BKN005 11/10 Q0998 YLO;
0193101360999992007010905004+53767+008667FM-12+0032ETMN V0202401N008010018019N0050001N1+01081+00981099841ADDAY161999AY261999GA1051+001801071GF108991071071002501999999MA1999999099461MD1010031+9999MW1611REMSYN088AAXX  09051 10136 41350 82408 10108 20098 39946 49984 50003 76166 877// 333 85706 87710;
0180101360999992007010905204+53767+008667FM-15+0032ETMN V0202401N007710036019N0050001N1+01101+01001999999ADDGA1041+001501999GA2071+003601999GF107991999999999999999999MA1099801999999MW1101MW2611REMMET083METAR ETMN 090520Z 24015KT 5000 -RA BR SCT005 BKN012 11/10 Q0998 GRN YLO BECMG WHT;
0138101360999992007010905454+53767+008667FM-15+0032ETMN V0202401N008210045019N0080001N1+01101+01001999999ADDGA1071+004501999GF107991999999999999999999MA1099801999999REMMET069SPECI ETMN 090545Z 24016KT 8000 BKN015 11/10 Q0998 WHT WHT TEMPO GRN;
0138101360999992007010906204+53767+008667FM-15+0032ETMN V0202401N008710048019N0080001N1+01201+01001999999ADDGA1071+004801999GF107991999999999999999999MA1099801999999REMMET069METAR ETMN 090620Z 24017KT 8000 BKN016 12/10 Q0998 WHT WHT TEMPO GRN;
0265101360999992007010907004+53767+008667FM-12+0032ETMN V0202501N009010048019N0080001N1+01171+00941099921ADDGA1051+004801061GA2061+011401061GF107991071051004501999999MA1999999099551MD1310081+9999OA149999999REMSYN136AAXX  09071 10136 42458 72509 10117 20094 39955 49992 53008 875// 333 85616 86638 91113 555 BOT 10087 20079 30071 40068 50077 999 31///;EQDQ01  00672WGOSPD
0138101360999992007010907204+53767+008667FM-15+0032ETMN V0202401N008210051019N0080001N1+01201+00901999999ADDGA1071+005101999GF107991999999999999999999MA1099901999999REMMET069METAR ETMN 090720Z 24016KT 8000 BKN017 12/09 Q0999 WHT WHT TEMPO GRN;
