0142101560999992014032118204+53805+010719FM-15+001699999V0202701N002119999999N009999199+00401+00301999999ADDGA1041+007011991GE19MSL   +99999+99999GF199999041990007011991991MA1100801999990REMMET051METAR EDHL 211820Z 27004KT 9999 SCT023 04/03 Q1008=
0155101560999992014032118504+53805+010719FM-15+001699999V0202701N002619999999N009999199+00401+00301999999ADDGA1041+007321991GE19MSL   +99999+99999GF199999041990007321991991MA1100801999990REMMET064METAR EDHL 211850Z 27005KT 9999 SCT024 04/03 Q1008 RMK ATIS BRA=
0155101560999992014032119204+53805+010719FM-15+001699999V0202101N002119999999N009999199+00401+00301999999ADDGA1021+007321991GE19MSL   +99999+99999GF199999021990007321991991MA1100901999990REMMET064METAR EDHL 211920Z 21004KT 9999 FEW024 04/03 Q1009 RMK ATIS CHA=
0085101560999992014032119504+53805+010719FM-15+001699999V0202101N002119999999Y999999999+00401+00301999999ADDMA1100901999990REMMET058METAR EDHL 211950Z 21004KT CAVOK 04/03 Q1009 RMK ATIS DEL=
0085101560999992014032120204+53805+010719FM-15+001699999V0202201N003119999999Y999999999+00401+00301999999ADDMA1100901999990REMMET058METAR EDHL 212020Z 22006KT CAVOK 04/03 Q1009 RMK ATIS ECH=
0085101560999992014032120504+53805+010719FM-15+001699999V0202101N003119999999Y999999999+00301+00301999999ADDMA1100901999990REMMET058METAR EDHL 212050Z 21006KT CAVOK 03/03 Q1009 RMK ATIS FOX=
0123101560999992014032205504+53805+010719FM-15+001699999V0201501N001512200019N005000199+00201+00201999999ADDGF100991999999999999999999MA1100501999990MW1101REMMET064METAR EDHL 220550Z 15003KT 5000 BR NSC 02/02 Q1005 RMK ATIS ALF=
0127101560999992014032206204+53805+010719FM-15+001699999V0201601N003112200019N005000199+00201+00201999999ADDGF100991999999999999999999MA1100501999990MW1101REMMET068METAR COR EDHL 220620Z 16006KT 5000 BR NSC 02/02 Q1005 RMK ATIS CHA=
0122101560999992014032206504+53805+010719FM-15+001699999V0201501V002112200019N007000199+00301+00201999999ADDGF100991999999999999999999MA1100401999990REMMET069METAR EDHL 220650Z 15004KT 120V180 7000 NSC 03/02 Q1004 RMK ATIS DEL=
0114101560999992014032207204+53805+010719FM-15+001699999V0201701N002612200019N008000199+00401+00301999999ADDGF100991999999999999999999MA1100401999990REMMET061METAR EDHL 220720Z 17005KT 8000 NSC 04/03 Q1004 RMK ATIS ECH=
0122101560999992014032207504+53805+010719FM-15+001699999V0201501V003612200019N009000199+00401+00301999999ADDGF100991999999999999999999MA1100401999990REMMET069METAR EDHL 220750Z 15007KT 120V200 9000 NSC 04/03 Q1004 RMK ATIS FOX=
0093101560999992014032208204+53805+010719FM-15+001699999V0201601V003619999999Y999999999+00501+00301999999ADDMA1100401999990REMMET066METAR EDHL 220820Z 16007KT 130V200 CAVOK 05/03 Q1004 RMK ATIS GOL=
0093101560999992014032208504+53805+010719FM-15+001699999V0201501V004119999999Y999999999+00501+00401999999ADDMA1100301999990REMMET066METAR EDHL 220850Z 15008KT 120V190 CAVOK 05/04 Q1003 RMK ATIS HOT=
0080101560999992014032209204+53805+010719FM-15+001699999V0201501V004119999999Y999999999+00601+00401999999ADDMA1100301999990REMMET053METAR EDHL 220920Z 15008KT 110V190 CAVOK 06/04 Q1003=
0168101560999992014032209504+53805+010719FM-15+001699999V0201601V003610115819N009999199+00701+00401999999ADDGA1071+011581991GE19MSL   +99999+99999GF199999071990011581991991MA1100301999990REMMET077METAR EDHL 220950Z 16007KT 110V200 9999 BKN038 07/04 Q1003 RMK ATIS      JUL=
0155101560999992014032210204+53805+010719FM-15+001699999V0201701N004119999999N009999199+00801+00501999999ADDGA1041+007621991GE19MSL   +99999+99999GF199999041990007621991991MA1100201999990REMMET064METAR EDHL 221020Z 17008KT 9999 SCT025 08/05 Q1002 RMK ATIS KIL=
0183101560999992014032210504+53805+010719FM-15+001699999V0201801N005110152419N009999199+00801+00501999999ADDGA1041+005491991GA2071+015241991GE19MSL   +99999+99999GF199999041990005491991991MA1100101999990REMMET076METAR EDHL 221050Z 18010KT 9999 SCT018 BKN050 08/05 Q1001 RMK ATIS      LIM=
0191101560999992014032211204+53805+010719FM-15+001699999V0202001V00461006711CN009999199+00901+00601999999ADDGA1041+005181991GA2041+006711991GE19MSL   +99999+99999GF199999041990005181991991MA1100101999990REMMET084METAR EDHL 221120Z 20009KT 160V230 9999 SCT017 SCT022 09/06 Q1001 RMK      ATIS MIK=
0168101560999992014032211504+53805+010719FM-15+001699999V0202001V004119999999N009999199+01001+00501999999ADDGA1041+007621991GE19MSL   +99999+99999GF199999041990007621991991MA1100101999990REMMET077METAR EDHL 221150Z 20008KT 160V240 9999 SCT025 10/05 Q1001 RMK ATIS      NOV=
0168101560999992014032212204+53805+010719FM-15+001699999V0202001V004619999999N009999199+01001+00501999999ADDGA1041+004881991GE19MSL   +99999+99999GF199999041990004881991991MA1100101999990REMMET077METAR EDHL 221220Z 20009KT 170V240 9999 SCT016 10/05 Q1001 RMK ATIS      OSC=
0168101560999992014032212504+53805+010719FM-15+001699999V0202101V005719999999N009999199+01101+00401999999ADDGA1041+007621991GE19MSL   +99999+99999GF199999041990007621991991MA1100001999990REMMET077METAR EDHL 221250Z 21011KT 170V250 9999 SCT025 11/04 Q1000 RMK ATIS      PAP=
0155101560999992014032213204+53805+010719FM-15+001699999V0202301N005119999999N009999199+01201+00401999999ADDGA1041+010671991GE19MSL   +99999+99999GF199999041990010671991991MA1100001999990REMMET064METAR EDHL 221320Z 23010KT 9999 SCT035 12/04 Q1000 RMK ATIS QUE=
0155101560999992014032213504+53805+010719FM-15+001699999V0202301N005719999999N009999199+01201+00401999999ADDGA1041+011581991GE19MSL   +99999+99999GF199999041990011581991991MA1100001999990REMMET064METAR EDHL 221350Z 23011KT 9999 SCT038 12/04 Q1000 RMK ATIS ROM=
0168101560999992014032214204+53805+010719FM-15+001699999V0202201V005719999999N009999199+01201+00201999999ADDGA1041+012191991GE19MSL   +99999+99999GF199999041990012191991991MA1100001999990REMMET077METAR EDHL 221420Z 22011KT 180V250 9999 SCT040 12/02 Q1000 RMK ATIS      SIE=
0183101560999992014032214504+53805+010719FM-15+001699999V0202301N00621018901CN009999199+01201+00301999999ADDGA1041+013111991GA2041+018901991GE19MSL   +99999+99999GF199999041990013111991991MA1100001999990REMMET076METAR EDHL 221450Z 23012KT 9999 SCT043 SCT062 12/03 Q1000 RMK ATIS      TAN=
0080101560999992014032215204+53805+010719FM-15+001699999V0202201V005119999999Y999999999+01201+00301999999ADDMA1100001999990REMMET053METAR EDHL 221520Z 22010KT 190V250 CAVOK 12/03 Q1000=
0183101560999992014032215504+53805+010719FM-15+001699999V0202101N003110189019N009999199+01101+00301999999ADDGA1021+014331991GA2071+018901991GE19MSL   +99999+99999GF199999021990014331991991MA1099901999990REMMET076METAR EDHL 221550Z 21006KT 9999 FEW047 BKN062 11/03 Q0999 RMK ATIS      VIC=
0178101560999992014032216204+53805+010719FM-15+001699999V0202101N002610161519N009999199+01101+00301999999ADDGA1021+014331091GA2071+016151991GE19MSL   +99999+99999GF199999021990014331991991MA1099901999990MW1161REMMET065METAR EDHL 221620Z 21005KT 9999 VCSH FEW047CB BKN053 11/03 Q0999=
0174101560999992014032216504+53805+010719FM-15+001699999V0202401N003610125019N009999199+01101+00401999999ADDGA1071+012501091GE19MSL   +99999+99999GF199999071990012501991991MA1100001999990MW1801REMMET077METAR EDHL 221650Z 24007KT 9999 -SHRA BKN041CB 11/04 Q1000 RMK ATIS      X-R=
0196101560999992014032217204+53805+010719FM-15+001699999V0202601N003110277419N009999199+00901+00401999999ADDGA1041+012501091GA2071+027741991GE19MSL   +99999+99999GF199999041990012501991991MA1100001999990MW1161REMMET083METAR EDHL 221720Z 26006KT 9999 VCSH SCT041CB BKN091 09/04 Q1000 RMK      ATIS YAN=
0191101560999992014032217504+53805+010719FM-15+001699999V0202901V001510164619N009999199+00901+00501999999ADDGA1041+014331991GA2071+016461991GE19MSL   +99999+99999GF199999041990014331991991MA1100001999990REMMET084METAR EDHL 221750Z 29003KT 250V320 9999 SCT047 BKN054 09/05 Q1000 RMK      ATIS ZUL=
0191101560999992014032218204+53805+010719FM-15+001699999V0203001V001510118919N009999199+00801+00501999999ADDGA1071+011891991GA2071+026521991GE19MSL   +99999+99999GF199999071990011891991991MA1100001999990REMMET084METAR EDHL 221820Z 30003KT 260V360 9999 BKN039 BKN087 08/05 Q1000 RMK      ATIS ALF=
0178101560999992014032218504+53805+010719FM-15+001699999V0202901V004110070119N009999199+00701+00401999999ADDGA1071+007011991GE19MSL   +99999+99999GF199999071990007011991991MA1100001999990MW1611REMMET081METAR EDHL 221850Z 29008KT 250V330 9999 -RA BKN023 07/04 Q1000 RMK      ATIS BRA=
0178101560999992014032219204+53805+010719FM-15+001699999V0202901V002610103619N009999199+00701+00501999999ADDGA1071+010361991GE19MSL   +99999+99999GF199999071990010361991991MA1100101999990MW1611REMMET081METAR EDHL 221920Z 29005KT 260V330 9999 -RA BKN034 07/05 Q1001 RMK      ATIS CHA=
0193101560999992014032219504+53805+010719FM-15+001699999V0202401N002610082319N009999199+00601+00501999999ADDGA1021+005791991GA2071+008231991GE19MSL   +99999+99999GF199999021990005791991991MA1100101999990MW1611REMMET080METAR EDHL 221950Z 24005KT 9999 -RA FEW019 BKN027 06/05 Q1001 RMK ATIS      DEL=
0193101560999992014032220204+53805+010719FM-15+001699999V0202701N001510067119N009999199+00601+00501999999ADDGA1021+003351991GA2071+006711991GE19MSL   +99999+99999GF199999021990003351991991MA1100101999990MW1611REMMET080METAR EDHL 222020Z 27003KT 9999 -RA FEW011 BKN022 06/05 Q1001 RMK ATIS      ECH=
0201101560999992014032220504+53805+010719FM-15+001699999V0202801V002610085319N009999199+00601+00501999999ADDGA1021+003661991GA2071+008531991GE19MSL   +99999+99999GF199999021990003661991991MA1100101999990MW1611REMMET088METAR EDHL 222050Z 28005KT 240V350 9999 -RA FEW012 BKN028 06/05 Q1001      RMK ATIS FOX=
0122101560999992014032305504+53805+010719FM-15+001699999V0202001V002112200019N007000199+00201+00201999999ADDGF100991999999999999999999MA1100201999990REMMET069METAR EDHL 230550Z 20004KT 160V230 7000 NSC 02/02 Q1002 RMK ATIS ALF=
0114101560999992014032306204+53805+010719FM-15+001699999V0201801N002612200019N006000199+00201+00201999999ADDGF100991999999999999999999MA1100301999990REMMET061METAR EDHL 230620Z 18005KT 6000 NSC 02/02 Q1003 RMK ATIS BRA=
0168101560999992014032306504+53805+010719FM-15+001699999V0202101V002619999999N006000199+00301+00201999999ADDGA1021+002131991GE19MSL   +99999+99999GF199999021990002131991991MA1100301999990REMMET077METAR EDHL 230650Z 21005KT 170V240 6000 FEW007 03/02 Q1003 RMK ATIS      CHA=
0168101560999992014032307204+53805+010719FM-15+001699999V0202201V003619999999N007000199+00401+00301999999ADDGA1021+002131991GE19MSL   +99999+99999GF199999021990002131991991MA1100401999990REMMET077METAR EDHL 230720Z 22007KT 170V250 7000 FEW007 04/03 Q1004 RMK ATIS      DEL=
0114101560999992014032307504+53805+010719FM-15+001699999V0202101N004112200019N007000199+00401+00301999999ADDGF100991999999999999999999MA1100401999990REMMET061METAR EDHL 230750Z 21008KT 7000 NSC 04/03 Q1004 RMK ATIS ECH=
0122101560999992014032308204+53805+010719FM-15+001699999V0202201V004612200019N008000199+00601+00301999999ADDGF100991999999999999999999MA1100401999990REMMET069METAR EDHL 230820Z 22009KT 180V240 8000 NSC 06/03 Q1004 RMK ATIS FOX=
0085101560999992014032308504+53805+010719FM-15+001699999V0202201N004619999999Y999999999+00701+00401999999ADDMA1100401999990REMMET058METAR EDHL 230850Z 22009KT CAVOK 07/04 Q1004 RMK ATIS GOL=
0155101560999992014032309204+53805+010719FM-15+001699999V0202201N004619999999N009999199+00701+00301999999ADDGA1021+004881991GE19MSL   +99999+99999GF199999021990004881991991MA1100401999990REMMET064METAR EDHL 230920Z 22009KT 9999 FEW016 07/03 Q1004 RMK ATIS HOT=
0159101560999992014032309504+53805+010719FM-15+001699999V0202501N005119999999N009999199+00801+00401999999ADDGA1041+005491991GE19MSL   +99999+99999GF199999041990005491991991MA1100401999990REMMET068METAR COR EDHL 230950Z 25010KT 9999 SCT018 08/04 Q1004 RMK ATIS JUL=
0155101560999992014032310204+53805+010719FM-15+001699999V0202301N004619999999N009999199+00801+00301999999ADDGA1041+005181991GE19MSL   +99999+99999GF199999041990005181991991MA1100401999990REMMET064METAR EDHL 231020Z 23009KT 9999 SCT017 08/03 Q1004 RMK ATIS KIL=
0168101560999992014032310504+53805+010719FM-15+001699999V0202301V004619999999N009999199+00901+00401999999ADDGA1041+006101991GE19MSL   +99999+99999GF199999041990006101991991MA1100401999990REMMET077METAR EDHL 231050Z 23009KT 200V270 9999 SCT020 09/04 Q1004 RMK ATIS      LIM=
0155101560999992014032311204+53805+010719FM-15+001699999V0202201N005119999999N009999199+01001+00301999999ADDGA1041+007321991GE19MSL   +99999+99999GF199999041990007321991991MA1100401999990REMMET064METAR EDHL 231120Z 22010KT 9999 SCT024 10/03 Q1004 RMK ATIS MIK=
0155101560999992014032311504+53805+010719FM-15+001699999V0202501N004110085319N009999199+00901+00201999999ADDGA1071+008531991GE19MSL   +99999+99999GF199999071990008531991991MA1100401999990REMMET064METAR EDHL 231150Z 25008KT 9999 BKN028 09/02 Q1004 RMK ATIS NOV=
0168101560999992014032312204+53805+010719FM-15+001699999V0202301V003110091419N009999199+01101+00401999999ADDGA1071+009141991GE19MSL   +99999+99999GF199999071990009141991991MA1100401999990REMMET077METAR EDHL 231220Z 23006KT 180V290 9999 BKN030 11/04 Q1004 RMK ATIS      OSC=
0191101560999992014032312504+53805+010719FM-15+001699999V0202201V005110121919N009999199+01101+00301999999ADDGA1021+009141991GA2071+012191991GE19MSL   +99999+99999GF199999021990009141991991MA1100401999990REMMET084METAR EDHL 231250Z 22010KT 190V250 9999 FEW030 BKN040 11/03 Q1004 RMK      ATIS PAP=
0155101560999992014032313204+53805+010719FM-15+001699999V0202401N003610097519N009999199+01001+00201999999ADDGA1071+009751991GE19MSL   +99999+99999GF199999071990009751991991MA1100401999990REMMET064METAR EDHL 231320Z 24007KT 9999 BKN032 10/02 Q1004 RMK ATIS QUE=
0191101560999992014032313504+53805+010719FM-15+001699999V0202601V00411020731CN009999199+01101+00301999999ADDGA1041+010061991GA2041+020731991GE19MSL   +99999+99999GF199999041990010061991991MA1100401999990REMMET084METAR EDHL 231350Z 26008KT 230V310 9999 SCT033 SCT068 11/03 Q1004 RMK      ATIS ROM=
0181101560999992014032314204+53805+010719FM-15+001699999V0202501V004119999999N009999199+01001+00201999999ADDGA1041+010061091GE19MSL   +99999+99999GF199999041990010061991991MA1100401999990MW1161REMMET084METAR EDHL 231420Z 25008KT 200V300 9999 VCSH SCT033CB 10/02 Q1004 RMK      ATIS SIE=
0181101560999992014032314504+53805+010719FM-15+001699999V0202701V002619999999N009999199+00901+00201999999ADDGA1041+012501091GE19MSL   +99999+99999GF199999041990012501991991MA1100401999990MW1161REMMET084METAR EDHL 231450Z 27005KT 240V320 9999 VCSH SCT041CB 09/02 Q1004 RMK      ATIS TAN=
0196101560999992014032315204+53805+010719FM-15+001699999V0202201N00361013411CN009999199+00901+00101999999ADDGA1021+008841991GA2041+013411091GE19MSL   +99999+99999GF199999021990008841991991MA1100501999990MW1161REMMET083METAR EDHL 231520Z 22007KT 9999 VCSH FEW029 SCT044CB 09/01 Q1005 RMK      ATIS UNI=
0197101560999992014032315504+53805+010719FM-15+001699999V0202001N003610128019N009999199+00701+00301999999ADDGA1041+008231991GA2071+012801091GE19MSL   +99999+99999GF199999041990008231991991MA1100501999990MW1801REMMET084METAR EDHL 231550Z 20007KT 9999 -SHRA SCT027 BKN042CB 07/03 Q1005 RMK      ATIS VIC=
0205101560999992014032316204+53805+010719FM-15+001699999V0201901V003110085319N009999199+00601+00401999999ADDGA1021+004881991GA2071+008531091GE19MSL   +99999+99999GF199999021990004881991991MA1100601999990MW1801REMMET092METAR EDHL 231620Z 19006KT 110V240 9999 -SHRA FEW016 BKN028CB 06/04      Q1006 RMK ATIS WHI=
0182101560999992014032316504+53805+010719FM-15+001699999V0201001V002610073219N009999199+00601+00401999999ADDGA1071+007321091GE19MSL   +99999+99999GF199999071990007321991991MA1100601999990MW1801REMMET085METAR EDHL 231650Z 10005KT 060V130 9999 -SHRA BKN024CB 06/04 Q1006      RMK ATIS X-R=
0204101560999992014032317204+53805+010719FM-15+001699999V0201301V002110204219N009999199+00601+00401999999ADDGA1041+011281091GA2071+020421991GE19MSL   +99999+99999GF199999041990011281991991MA1100601999990MW1161REMMET091METAR EDHL 231720Z 13004KT 060V170 9999 VCSH SCT037CB BKN067 06/04      Q1006 RMK ATIS YAN=
0196101560999992014032317504+53805+010719FM-15+001699999V0201501N00151021951CN009999199+00501+00401999999ADDGA1041+010671091GA2041+021951991GE19MSL   +99999+99999GF199999041990010671991991MA1100601999990MW1161REMMET083METAR EDHL 231750Z 15003KT 9999 VCSH SCT035CB SCT072 05/04 Q1006 RMK      ATIS ZUL=
0191101560999992014032318204+53805+010719FM-15+001699999V0201801V001510143319N009999199+00501+00301999999ADDGA1041+010971991GA2071+014331991GE19MSL   +99999+99999GF199999041990010971991991MA1100601999990REMMET084METAR EDHL 231820Z 18003KT 120V260 9999 SCT036 BKN047 05/03 Q1006 RMK      ATIS ALF=
0093101560999992014032318504+53805+010719FM-15+001699999V0202001V003619999999Y999999999+00501+00301999999ADDMA1100701999990REMMET066METAR EDHL 231850Z 20007KT 160V240 CAVOK 05/03 Q1007 RMK ATIS BRA=
0168101560999992014032319204+53805+010719FM-15+001699999V0201501V002119999999N009999199+00601+00101999999ADDGA1041+011891991GE19MSL   +99999+99999GF199999041990011891991991MA1100701999990REMMET077METAR EDHL 231920Z 15004KT 100V200 9999 SCT039 06/01 Q1007 RMK ATIS      CHA=
0155101560999992014032319504+53805+010719FM-15+001699999V0202401N002610100619N009999199+00601+00201999999ADDGA1071+010061991GE19MSL   +99999+99999GF199999071990010061991991MA1100701999990REMMET064METAR EDHL 231950Z 24005KT 9999 BKN033 06/02 Q1007 RMK ATIS DEL=
0170101560999992014032320204+53805+010719FM-15+001699999V0202301N002610179819N009999199+00501+00301999999ADDGA1041+011581991GA2071+017981991GE19MSL   +99999+99999GF199999041990011581991991MA1100801999990REMMET063METAR EDHL 232020Z 23005KT 9999 SCT038 BKN059 05/03 Q1008 REDZ=
0155101560999992014032320504+53805+010719FM-15+001699999V0202401N003619999999N009999199+00501+00301999999ADDGA1041+010361991GE19MSL   +99999+99999GF199999041990010361991991MA1100801999990REMMET064METAR EDHL 232050Z 24007KT 9999 SCT034 05/03 Q1008 RMK ATIS FOX=
0123101560999992014032405504+53805+010719FM-15+001699999V0209999C000012200019N003000199+00201+00201999999ADDGF100991999999999999999999MA1101001999990MW1101REMMET064METAR EDHL 240550Z 00000KT 3000 BR NSC 02/02 Q1010 RMK ATIS ALF=
0164101560999992014032406504+53805+010719FM-15+001699999V0202701N002110121919N003000199+00301+00201999999ADDGA1071+012191991GE19MSL   +99999+99999GF199999071990012191991991MA1101101999990MW1101REMMET067METAR EDHL 240650Z 27004KT 3000 BR BKN040 03/02 Q1011 RMK ATIS ALF=
0192101560999992014032407204+53805+010719FM-15+001699999V0202701N001510164619N003000199+00301+00301999999ADDGA1041+013111991GA2071+016461991GE19MSL   +99999+99999GF199999041990013111991991MA1101101999990MW1101REMMET079METAR EDHL 240720Z 27003KT 3000 BR SCT043 BKN054 03/03 Q1011 RMK ATIS      BRA=
0200101560999992014032407504+53805+010719FM-15+001699999V0202901V002110170719N004000199+00401+00301999999ADDGA1021+001221991GA2071+017071991GE19MSL   +99999+99999GF199999021990001221991991MA1101101999990MW1101REMMET087METAR EDHL 240750Z 29004KT 250V330 4000 BR FEW004 BKN056 04/03 Q1011      RMK ATIS CHA=
0182101560999992014032408204+53805+010719FM-15+001699999V0202901V001510176819N005000199+00401+00401999999ADDGA1021+001521991GA2071+017681991GE19MSL   +99999+99999GF199999021990001521991991MA1101101999990MW1101REMMET069METAR EDHL 240820Z 29003KT 250V340 5000 BR FEW005 BKN058 04/04 Q1011=
0191101560999992014032408504+53805+010719FM-15+001699999V0202801V002110182919N007000199+00501+00401999999ADDGA1021+001521991GA2071+018291991GE19MSL   +99999+99999GF199999021990001521991991MA1101101999990REMMET084METAR EDHL 240850Z 28004KT 240V310 7000 FEW005 BKN060 05/04 Q1011 RMK      ATIS ECH=
0183101560999992014032409204+53805+010719FM-15+001699999V0209999V001010185919N009999199+00601+00401999999ADDGA1041+002441991GA2071+018591991GE19MSL   +99999+99999GF199999041990002441991991MA1101201999990REMMET076METAR EDHL 240920Z VRB02KT 9999 SCT008 BKN061 06/04 Q1012 RMK ATIS      FOX=
0187101560999992014032409504+53805+010719FM-15+001699999V0209999V001010195119N009999199+00701+00401999999ADDGA1041+003661991GA2071+019511991GE19MSL   +99999+99999GF199999041990003661991991MA1101201999990REMMET080METAR COR EDHL 240950Z VRB02KT 9999 SCT012 BKN064 07/04 Q1012 RMK ATIS      HOT=
0191101560999992014032410204+53805+010719FM-15+001699999V0203301V001510192019N009999199+00601+00301999999ADDGA1041+004271991GA2071+019201991GE19MSL   +99999+99999GF199999041990004271991991MA1101201999990REMMET084METAR EDHL 241020Z 33003KT 250V020 9999 SCT014 BKN063 06/03 Q1012 RMK      ATIS IND=
0185101560999992014032410504+53805+010719FM-15+001699999V0209999V00101018291CN009999199+00801+00401999999ADDGA1041+005491091GA2041+018291991GE19MSL   +99999+99999GF199999041990005491991991MA1101201999990REMMET078METAR EDHL 241050Z VRB02KT 9999 SCT018CB SCT060 08/04 Q1012 RMK ATIS      JUL=
0185101560999992014032411254+53805+010719FM-15+001699999V0209999V00211021951CN009999199+00801+00301999999ADDGA1041+007321091GA2041+021951991GE19MSL   +99999+99999GF199999041990007321991991MA1101101999990REMMET078METAR EDHL 241125Z VRB04KT 9999 SCT024CB SCT072 08/03 Q1011 RMK ATIS      KIL=
0193101560999992014032411504+53805+010719FM-15+001699999V0202401V00211012501CN009999199+00801+00201999999ADDGA1021+007621091GA2041+012501991GE19MSL   +99999+99999GF199999021990007621991991MA1101101999990REMMET086METAR EDHL 241150Z 24004KT 180V310 9999 FEW025CB SCT041 08/02 Q1011      RMK ATIS LIM=
0193101560999992014032412204+53805+010719FM-15+001699999V0202701V00361019201CN009999199+00801+00101999999ADDGA1041+009141091GA2041+019201991GE19MSL   +99999+99999GF199999041990009141991991MA1101101999990REMMET086METAR EDHL 241220Z 27007KT 240V300 9999 SCT030CB SCT063 08/01 Q1011      RMK ATIS MIK=
0170101560999992014032412504+53805+010719FM-15+001699999V0202801V002119999999N009999199+00801+00201999999ADDGA1041+021341091GE19MSL   +99999+99999GF199999041990021341991991MA1101101999990REMMET079METAR EDHL 241250Z 28004KT 240V340 9999 SCT070CB 08/02 Q1011 RMK ATIS      NOV=
0193101560999992014032413204+53805+010719FM-15+001699999V0202501V00311021341CN009999199+00901+00101999999ADDGA1041+012191091GA2041+021341991GE19MSL   +99999+99999GF199999041990012191991991MA1101101999990REMMET086METAR EDHL 241320Z 25006KT 200V310 9999 SCT040CB SCT070 09/01 Q1011      RMK ATIS OSC=
0197101560999992014032413504+53805+010719FM-15+001699999V0209999V00261009141CN009999199+00801+00201999999ADDGA1021+004271991GA2041+009141091GE19MSL   +99999+99999GF199999021990004271991991MA1101101999990MW1801REMMET084METAR EDHL 241350Z VRB05KT 9999 -SHRA FEW014 SCT030CB 08/02 Q1011 RMK      ATIS PAP=
0155101560999992014032414204+53805+010719FM-15+001699999V0200701N003619999999N009999199+00601+00301999999ADDGA1041+010671091GE19MSL   +99999+99999GF199999041990010671991991MA1101101999990MW1161REMMET058METAR EDHL 241420Z 07007KT 9999 VCSH SCT035CB 06/03 Q1011=
0196101560999992014032414504+53805+010719FM-15+001699999V0209999V00101022861CN009999199+00801+00301999999ADDGA1041+010671091GA2041+022861991GE19MSL   +99999+99999GF199999041990010671991991MA1101101999990MW1161REMMET083METAR EDHL 241450Z VRB02KT 9999 VCSH SCT035CB SCT075 08/03 Q1011 RMK      ATIS ROM=
0173101560999992014032415204+53805+010719FM-15+001699999V0201901N001519999999N009999199+00901+00301999999ADDGA1041+010061091GE19MSL   +99999+99999GF199999041990010061991991MA1101101999990MW1161REMMET076METAR EDHL 241520Z 19003KT 9999 VCSH SCT033CB 09/03 Q1011 RMK ATIS      SIE=
0197101560999992014032415504+53805+010719FM-15+001699999V0209999V00311011281CN009999199+00701+00201999999ADDGA1021+008841991GA2041+011281091GE19MSL   +99999+99999GF199999021990008841991991MA1101101999990MW1801REMMET084METAR EDHL 241550Z VRB06KT 9999 -SHRA FEW029 SCT037CB 07/02 Q1011 RMK      ATIS TAN=
0204101560999992014032416204+53805+010719FM-15+001699999V0201701V00151007921CN009999199+00601+00501999999ADDGA1021+004271991GA2041+007921091GE19MSL   +99999+99999GF199999021990004271991991MA1101101999990MW1161REMMET091METAR EDHL 241620Z 17003KT 110V200 9999 VCSH FEW014 SCT026CB 06/05      Q1011 RMK ATIS UNI=
0181101560999992014032416504+53805+010719FM-15+001699999V0202001V001519999999N009999199+00601+00401999999ADDGA1041+010361091GE19MSL   +99999+99999GF199999041990010361991991MA1101101999990MW1161REMMET084METAR EDHL 241650Z 20003KT 160V230 9999 VCSH SCT034CB 06/04 Q1011 RMK      ATIS VIC=
0163101560999992014032417204+53805+010719FM-15+001699999V0202801V002619999999N009999199+00601+00401999999ADDGA1041+010061091GE19MSL   +99999+99999GF199999041990010061991991MA1101201999990MW1161REMMET066METAR EDHL 241720Z 28005KT 250V310 9999 VCSH SCT033CB 06/04 Q1012=
0181101560999992014032417504+53805+010719FM-15+001699999V0202801V001519999999N009999199+00501+00301999999ADDGA1041+011581091GE19MSL   +99999+99999GF199999041990011581991991MA1101201999990MW1161REMMET084METAR EDHL 241750Z 28003KT 250V310 9999 VCSH SCT038CB 05/03 Q1012 RMK      ATIS X-R=
0085101560999992014032418204+53805+010719FM-15+001699999V0203101N001019999999Y999999999+00401+00301999999ADDMA1101201999990REMMET058METAR EDHL 241820Z 31002KT CAVOK 04/03 Q1012 RMK ATIS YAN=
0085101560999992014032418504+53805+010719FM-15+001699999V0209999V000519999999Y999999999+00301+00201999999ADDMA1101201999990REMMET058METAR EDHL 241850Z VRB01KT CAVOK 03/02 Q1012 RMK ATIS ZUL=
0125101560999992014032419204+53805+010719FM-15+001699999V0209999C000012200019N009999199+00301+00201999999ADDGF100991999999999999999999MA1101301999990MW1121REMMET066METAR EDHL 241920Z 00000KT 9999 MIFG NSC 03/02 Q1013 RMK ATIS ALF=
0127101560999992014032419504+53805+010719FM-15+001699999V0209999V000512200019N000300199+00201+00101999999ADDGF100991999999999999999999MA1101301999990MW1441REMMET068METAR COR EDHL 241950Z VRB01KT 0300 FG NSC 02/01 Q1013 RMK ATIS CHA=
0134101560999992014032420204+53805+010719FM-15+001699999V0201101N000512200019N003800199+00101+00101999999ADDGF100991999999999999999999MA1101301999990MW1101MW2121REMMET069METAR EDHL 242020Z 11001KT 3800 MIFG BR NSC 01/01 Q1013 RMK ATIS DEL=
0142101560999992014032420504+53805+010719FM-15+001699999V0209999V000512200019N000200199+00101+00101999999ADDGF100991999999999999999999MA1101301999990MW1441REMMET083METAR EDHL 242050Z VRB01KT 0200 R07/0800V1600 FG NSC 01/01 Q1013 RMK      ATIS ECH=
0147101560999992014032505504+53805+010719FM-15+001699999V0209999V000512200019N006000199-00201-00301999999ADDGF100991999999999999999999MA1101201999990MW1111REMMET088METAR EDHL 250550Z VRB01KT 6000 R07/0900V1600D PRFG NSC M02/M03 Q1012      RMK ATIS ALF=
0127101560999992014032506204+53805+010719FM-15+001699999V0202701N001012200019N007000199-00201-00201999999ADDGF100991999999999999999999MA1101201999990MW1111REMMET068METAR EDHL 250620Z 27002KT 7000 PRFG NSC M02/M02 Q1012 RMK ATIS BRA=
0126101560999992014032506504+53805+010719FM-15+001699999V0202501N001012200019N007000199+00001+00001999999ADDGF100991999999999999999999MA1101201999990MW1111REMMET067METAR EDHL 250650Z 25002KT 7000 PRFG NSC 00/M00 Q1012 RMK ATIS CHA=
0114101560999992014032507204+53805+010719FM-15+001699999V0209999V001012200019N008000199+00101+00101999999ADDGF100991999999999999999999MA1101201999990REMMET061METAR EDHL 250720Z VRB02KT 8000 NSC 01/01 Q1012 RMK ATIS DEL=
0122101560999992014032507504+53805+010719FM-15+001699999V0202801V001512200019N008000199+00301+00201999999ADDGF100991999999999999999999MA1101201999990REMMET069METAR EDHL 250750Z 28003KT 240V310 8000 NSC 03/02 Q1012 RMK ATIS ECH=
0080101560999992014032508204+53805+010719FM-15+001699999V0202901V001519999999Y999999999+00401+00301999999ADDMA1101201999990REMMET053METAR EDHL 250820Z 29003KT 250V330 CAVOK 04/03 Q1012=
0085101560999992014032508504+53805+010719FM-15+001699999V0209999V001019999999Y999999999+00601+00301999999ADDMA1101201999990REMMET058METAR EDHL 250850Z VRB02KT CAVOK 06/03 Q1012 RMK ATIS GOL=
0093101560999992014032509204+53805+010719FM-15+001699999V0203601V002619999999Y999999999+00801+00201999999ADDMA1101201999990REMMET066METAR EDHL 250920Z 36005KT 300V050 CAVOK 08/02 Q1012 RMK ATIS HOT=
0168101560999992014032509504+53805+010719FM-15+001699999V0200201V002619999999N009999199+00801+00201999999ADDGA1021+009141991GE19MSL   +99999+99999GF199999021990009141991991MA1101101999990REMMET077METAR EDHL 250950Z 02005KT 300V090 9999 FEW030 08/02 Q1011 RMK ATIS      IND=
0156101560999992014032510204+53805+010719FM-15+001699999V0200401N005119999999N009999199+00901-00101999999ADDGA1021+009751991GE19MSL   +99999+99999GF199999021990009751991991MA1101101999990REMMET065METAR EDHL 251020Z 04010KT 9999 FEW032 09/M01 Q1011 RMK ATIS JUL=
0151101560999992014032510504+53805+010719FM-15+001699999V0200501V004619999999N009999199+00901-00101999999ADDGA1041+012191991GE19MSL   +99999+99999GF199999041990012191991991MA1101101999990REMMET060METAR EDHL 251050Z 05009KT 360V080 9999 SCT040 09/M01 Q1011=
0169101560999992014032511204+53805+010719FM-15+001699999V0200101V003619999999N009999199+00901-00101999999ADDGA1041+012191991GE19MSL   +99999+99999GF199999041990012191991991MA1101101999990REMMET078METAR EDHL 251120Z 01007KT 320V060 9999 SCT040 09/M01 Q1011 RMK ATIS      LIM=
0168101560999992014032511504+53805+010719FM-15+001699999V0200501V003619999999N009999199+00901+00001999999ADDGA1041+012801991GE19MSL   +99999+99999GF199999041990012801991991MA1101101999990REMMET077METAR EDHL 251150Z 05007KT 340V100 9999 SCT042 09/00 Q1011 RMK ATIS      MIK=
0159101560999992014032512204+53805+010719FM-15+001699999V0209999V004619999999N009999199+00801+00001999999ADDGA1041+010671991GE19MSL   +99999+99999GF199999041990010671991991MA1101101999990REMMET068METAR COR EDHL 251220Z VRB09KT 9999 SCT035 08/00 Q1011 RMK ATIS OSC=
0168101560999992014032512504+53805+010719FM-15+001699999V0200401V003619999999N009999199+01001+00201999999ADDGA1041+010671991GE19MSL   +99999+99999GF199999041990010671991991MA1101101999990REMMET077METAR EDHL 251250Z 04007KT 360V070 9999 SCT035 10/02 Q1011 RMK ATIS      PAP=
0157101560999992014032513204+53805+010719FM-15+001699999V0200301N004119999999N009999199+00901+00101999999ADDGA1041+009141091GE19MSL   +99999+99999GF199999041990009141991991MA1101101999990REMMET066METAR EDHL 251320Z 03008KT 9999 SCT030CB 09/01 Q1011 RMK ATIS QUE=
0159101560999992014032513504+53805+010719FM-15+001699999V0200501N004619999999N009999199+00801+00301999999ADDGA1041+009141091GE19MSL   +99999+99999GF199999041990009141991991MA1101101999990MW1161REMMET062METAR COR EDHL 251350Z 05009KT 9999 VCSH SCT030CB 08/03 Q1011=
0170101560999992014032514204+53805+010719FM-15+001699999V0200201V003619999999N009999199+00801+00201999999ADDGA1041+009141091GE19MSL   +99999+99999GF199999041990009141991991MA1101101999990REMMET079METAR EDHL 251420Z 02007KT 330V070 9999 SCT030CB 08/02 Q1011 RMK ATIS      TAN=
0142101560999992014032514504+53805+010719FM-15+001699999V0200201N005719999999N009999199+00901+00101999999ADDGA1041+009451991GE19MSL   +99999+99999GF199999041990009451991991MA1101001999990REMMET051METAR EDHL 251450Z 02011KT 9999 SCT031 09/01 Q1010=
0155101560999992014032515204+53805+010719FM-15+001699999V0200401N005719999999N009999199+00801+00201999999ADDGA1041+009141991GE19MSL   +99999+99999GF199999041990009141991991MA1101101999990REMMET064METAR EDHL 251520Z 04011KT 9999 SCT030 08/02 Q1011 RMK ATIS VIC=
0155101560999992014032515504+53805+010719FM-15+001699999V0200301N005719999999N009999199+00801+00101999999ADDGA1041+009141991GE19MSL   +99999+99999GF199999041990009141991991MA1101101999990REMMET064METAR EDHL 251550Z 03011KT 9999 SCT030 08/01 Q1011 RMK ATIS WHI=
0168101560999992014032516204+53805+010719FM-15+001699999V0200201V004119999999N009999199+00801+00101999999ADDGA1021+009141991GE19MSL   +99999+99999GF199999021990009141991991MA1101101999990REMMET077METAR EDHL 251620Z 02008KT 340V040 9999 FEW030 08/01 Q1011 RMK ATIS      X-R=
0160101560999992014032516504+53805+010719FM-15+001699999V0200201N004619999999N009999199+00801+00001999999ADDGA1021+012801991GE19MSL   +99999+99999GF199999021990012801991991MA1101101999990REMMET069METAR COR EDHL 251650Z 02009KT 9999 FEW042 08/M00 Q1011 RMK ATIS ZUL=
0151101560999992014032517204+53805+010719FM-15+001699999V0200201V004619999999N009999199+00701+00001999999ADDGA1021+012191991GE19MSL   +99999+99999GF199999021990012191991991MA1101101999990REMMET060METAR EDHL 251720Z 02009KT 340V050 9999 FEW040 07/M00 Q1011=
0085101560999992014032517504+53805+010719FM-15+001699999V0203501N004119999999Y999999999+00701+00101999999ADDMA1101101999990REMMET058METAR EDHL 251750Z 35008KT CAVOK 07/01 Q1011 RMK ATIS BRA=
0085101560999992014032518204+53805+010719FM-15+001699999V0203601N003619999999Y999999999+00601+00101999999ADDMA1101101999990REMMET058METAR EDHL 251820Z 36007KT CAVOK 06/01 Q1011 RMK ATIS CHA=
0085101560999992014032518504+53805+010719FM-15+001699999V0203601N003619999999Y999999999+00601+00101999999ADDMA1101101999990REMMET058METAR EDHL 251850Z 36007KT CAVOK 06/01 Q1011 RMK ATIS DEL=
0072101560999992014032519204+53805+010719FM-15+001699999V0203501N003119999999Y999999999+00601+00201999999ADDMA1101101999990REMMET045METAR EDHL 251920Z 35006KT CAVOK 06/02 Q1011=
0165101560999992014032519504+53805+010719FM-15+001699999V0203501N002610253019N009999199+00501+00201999999ADDGA1041+007011991GA2071+025301991GE19MSL   +99999+99999GF199999041990007011991991MA1101101999990REMMET058METAR EDHL 251950Z 35005KT 9999 SCT023 BKN083 05/02 Q1011=
0183101560999992014032520204+53805+010719FM-15+001699999V0200601N004110265219N009999199+00501+00201999999ADDGA1021+003961991GA2071+026521991GE19MSL   +99999+99999GF199999021990003961991991MA1101101999990REMMET076METAR EDHL 252020Z 06008KT 9999 FEW013 BKN087 05/02 Q1011 RMK ATIS      GOL=
0183101560999992014032520504+53805+010719FM-15+001699999V0200601N003110289619N009999199+00401+00201999999ADDGA1021+007621991GA2071+028961991GE19MSL   +99999+99999GF199999021990007621991991MA1101101999990REMMET076METAR EDHL 252050Z 06006KT 9999 FEW025 BKN095 04/02 Q1011 RMK ATIS      HOT=
0187101560999992014032605504+53805+010719FM-15+001699999V0202201N00311028961CN009999199+00301+00201999999ADDGA1021+003661991GA2041+028961991GE19MSL   +99999+99999GF199999021990003661991991MA1101201999990REMMET080METAR COR EDHL 260550Z 22006KT 9999 FEW012 SCT095 03/02 Q1012 RMK ATIS      BRA=
0085101560999992014032606204+53805+010719FM-15+001699999V0202101N002619999999Y999999999+00301+00201999999ADDMA1101201999990REMMET058METAR EDHL 260620Z 21005KT CAVOK 03/02 Q1012 RMK ATIS CHA=
0093101560999992014032606504+53805+010719FM-15+001699999V0201701V002119999999Y999999999+00401+00201999999ADDMA1101201999990REMMET066METAR EDHL 260650Z 17004KT 140V210 CAVOK 04/02 Q1012 RMK ATIS DEL=
0093101560999992014032607204+53805+010719FM-15+001699999V0201801V003119999999Y999999999+00501+00201999999ADDMA1101301999990REMMET066METAR EDHL 260720Z 18006KT 140V220 CAVOK 05/02 Q1013 RMK ATIS ECH=
0155101560999992014032607504+53805+010719FM-15+001699999V0201601N003619999999N009999199+00501+00201999999ADDGA1021+008841991GE19MSL   +99999+99999GF199999021990008841991991MA1101401999990REMMET064METAR EDHL 260750Z 16007KT 9999 FEW029 05/02 Q1014 RMK ATIS FOX=
0173101560999992014032608204+53805+010719FM-15+001699999V0201701V00361008531CN009999199+00601+00201999999ADDGA1021+006101991GA2041+008531991GE19MSL   +99999+99999GF199999021990006101991991MA1101401999990REMMET066METAR EDHL 260820Z 17007KT 130V200 9999 FEW020 SCT028 06/02 Q1014=
0168101560999992014032608504+53805+010719FM-15+001699999V0201701V004119999999N009999199+00701+00301999999ADDGA1041+007011991GE19MSL   +99999+99999GF199999041990007011991991MA1101501999990REMMET077METAR EDHL 260850Z 17008KT 130V190 9999 SCT023 07/03 Q1015 RMK ATIS      HOT=
0168101560999992014032609204+53805+010719FM-15+001699999V0201701V004119999999N009999199+00701+00201999999ADDGA1041+009141991GE19MSL   +99999+99999GF199999041990009141991991MA1101501999990REMMET077METAR EDHL 260920Z 17008KT 140V210 9999 SCT030 07/02 Q1015 RMK ATIS      IND=
0168101560999992014032609504+53805+010719FM-15+001699999V0201501V004619999999N009999199+00801+00201999999ADDGA1041+008231991GE19MSL   +99999+99999GF199999041990008231991991MA1101501999990REMMET077METAR EDHL 260950Z 15009KT 110V190 9999 SCT027 08/02 Q1015 RMK ATIS      JUL=
0168101560999992014032610204+53805+010719FM-15+001699999V0201301V005119999999N009999199+00801+00101999999ADDGA1041+010061991GE19MSL   +99999+99999GF199999041990010061991991MA1101601999990REMMET077METAR EDHL 261020Z 13010KT 090V160 9999 SCT033 08/01 Q1016 RMK ATIS      KIL=
0151101560999992014032610504+53805+010719FM-15+001699999V0201401V004619999999N009999199+00801-00101999999ADDGA1041+010971991GE19MSL   +99999+99999GF199999041990010971991991MA1101601999990REMMET060METAR EDHL 261050Z 14009KT 110V180 9999 SCT036 08/M01 Q1016=
0191101560999992014032611204+53805+010719FM-15+001699999V0201501V00311016461CN009999199+00901+00101999999ADDGA1021+012801991GA2041+016461991GE19MSL   +99999+99999GF199999021990012801991991MA1101701999990REMMET084METAR EDHL 261120Z 15006KT 110V200 9999 FEW042 SCT054 09/01 Q1017 RMK      ATIS MIK=
0168101560999992014032611504+53805+010719FM-15+001699999V0201401V004119999999N009999199+00901+00001999999ADDGA1041+013721991GE19MSL   +99999+99999GF199999041990013721991991MA1101701999990REMMET077METAR EDHL 261150Z 14008KT 090V170 9999 SCT045 09/00 Q1017 RMK ATIS      NOV=
0170101560999992014032612204+53805+010719FM-15+001699999V0201401V004119999999N009999199+01001+00101999999ADDGA1041+012191091GE19MSL   +99999+99999GF199999041990012191991991MA1101701999990REMMET079METAR EDHL 261220Z 14008KT 100V190 9999 SCT040CB 10/01 Q1017 RMK ATIS      OSC=
0170101560999992014032612504+53805+010719FM-15+001699999V0201401V003619999999N009999199+01001+00101999999ADDGA1041+012801091GE19MSL   +99999+99999GF199999041990012801991991MA1101701999990REMMET079METAR EDHL 261250Z 14007KT 100V190 9999 SCT042CB 10/01 Q1017 RMK ATIS      PAP=
0194101560999992014032613204+53805+010719FM-15+001699999V0201601V00411024081CN009999199+01001+00001999999ADDGA1041+012801091GA2041+024081991GE19MSL   +99999+99999GF199999041990012801991991MA1101701999990REMMET087METAR EDHL 261320Z 16008KT 110V190 9999 SCT042CB SCT079 10/M00 Q1017      RMK ATIS QUE=
0182101560999992014032613504+53805+010719FM-15+001699999V0201401V003619999999N009999199+01001+00001999999ADDGA1041+017681091GE19MSL   +99999+99999GF199999041990017681991991MA1101701999990MW1161REMMET085METAR EDHL 261350Z 14007KT 100V180 9999 VCSH SCT058CB 10/M00 Q1017      RMK ATIS ROM=
0208101560999992014032614204+53805+010719FM-15+001699999V0201301V00411018291CN009999199+00901+00001999999ADDGA1021+013721991GA2041+018291091GE19MSL   +99999+99999GF199999021990013721991991MA1101801999990MW1161REMMET095METAR COR EDHL 261420Z 13008KT 080V160 9999 VCSH FEW045 SCT060CB 09/00      Q1018 RMK ATIS TAN=
0181101560999992014032614504+53805+010719FM-15+001699999V0201201V005119999999N009999199+00901+00101999999ADDGA1041+012191091GE19MSL   +99999+99999GF199999041990012191991991MA1101801999990MW1161REMMET084METAR EDHL 261450Z 12010KT 080V150 9999 VCSH SCT040CB 09/01 Q1018 RMK      ATIS UNI=
0173101560999992014032615204+53805+010719FM-15+001699999V0201001N004619999999N009999199+00901+00201999999ADDGA1041+012191091GE19MSL   +99999+99999GF199999041990012191991991MA1101801999990MW1161REMMET076METAR EDHL 261520Z 10009KT 9999 VCSH SCT040CB 09/02 Q1018 RMK ATIS      VIC=
0157101560999992014032615504+53805+010719FM-15+001699999V0200901N004119999999N009999199+00901+00201999999ADDGA1041+014021091GE19MSL   +99999+99999GF199999041990014021991991MA1101801999990REMMET066METAR EDHL 261550Z 09008KT 9999 SCT046CB 09/02 Q1018 RMK ATIS WHI=
0168101560999992014032616204+53805+010719FM-15+001699999V0201101V002619999999N009999199+01001+00101999999ADDGA1021+013411991GE19MSL   +99999+99999GF199999021990013411991991MA1101901999990REMMET077METAR EDHL 261620Z 11005KT 070V170 9999 FEW044 10/01 Q1019 RMK ATIS      X-R=
0169101560999992014032616504+53805+010719FM-15+001699999V0201201V003119999999N009999199+00901+00001999999ADDGA1021+014331991GE19MSL   +99999+99999GF199999021990014331991991MA1101901999990REMMET078METAR EDHL 261650Z 12006KT 090V150 9999 FEW047 09/M00 Q1019 RMK ATIS      YAN=
0168101560999992014032617204+53805+010719FM-15+001699999V0201001V003619999999N009999199+00901+00101999999ADDGA1021+014331991GE19MSL   +99999+99999GF199999021990014331991991MA1101901999990REMMET077METAR EDHL 261720Z 10007KT 080V140 9999 FEW047 09/01 Q1019 RMK ATIS      ZUL=
0085101560999992014032617504+53805+010719FM-15+001699999V0201001N003119999999Y999999999+00801+00101999999ADDMA1102001999990REMMET058METAR EDHL 261750Z 10006KT CAVOK 08/01 Q1020 RMK ATIS ALF=
0085101560999992014032618204+53805+010719FM-15+001699999V0200901N003119999999Y999999999+00701+00101999999ADDMA1102001999990REMMET058METAR EDHL 261820Z 09006KT CAVOK 07/01 Q1020 RMK ATIS BRA=
0085101560999992014032618504+53805+010719FM-15+001699999V0201001N003619999999Y999999999+00701+00201999999ADDMA1102001999990REMMET058METAR EDHL 261850Z 10007KT CAVOK 07/02 Q1020 RMK ATIS CHA=
0085101560999992014032619204+53805+010719FM-15+001699999V0201001N003619999999Y999999999+00701+00201999999ADDMA1102101999990REMMET058METAR EDHL 261920Z 10007KT CAVOK 07/02 Q1021 RMK ATIS DEL=
0085101560999992014032619504+53805+010719FM-15+001699999V0200901N003619999999Y999999999+00601+00201999999ADDMA1102101999990REMMET058METAR EDHL 261950Z 09007KT CAVOK 06/02 Q1021 RMK ATIS ECH=
0085101560999992014032620204+53805+010719FM-15+001699999V0201001N003619999999Y999999999+00601+00201999999ADDMA1102101999990REMMET058METAR EDHL 262020Z 10007KT CAVOK 06/02 Q1021 RMK ATIS FOX=
0085101560999992014032620504+53805+010719FM-15+001699999V0200901N003619999999Y999999999+00501+00201999999ADDMA1102201999990REMMET058METAR EDHL 262050Z 09007KT CAVOK 05/02 Q1022 RMK ATIS GOL=
0155101560999992014032705504+53805+010719FM-15+001699999V0200701N005710012219N006000199+00201+00201999999ADDGA1071+001221991GE19MSL   +99999+99999GF199999071990001221991991MA1102201999990REMMET064METAR EDHL 270550Z 07011KT 6000 BKN004 02/02 Q1022 RMK ATIS ALF=
0155101560999992014032706204+53805+010719FM-15+001699999V0200701N005710012219N007000199+00201+00201999999ADDGA1071+001221991GE19MSL   +99999+99999GF199999071990001221991991MA1102201999990REMMET064METAR EDHL 270620Z 07011KT 7000 BKN004 02/02 Q1022 RMK ATIS BRA=
0183101560999992014032706504+53805+010719FM-15+001699999V0200701N00571011281CN008000199+00301+00201999999ADDGA1041+001831991GA2041+011281991GE19MSL   +99999+99999GF199999041990001831991991MA1102201999990REMMET076METAR EDHL 270650Z 07011KT 8000 SCT006 SCT037 03/02 Q1022 RMK ATIS      CHA=
0183101560999992014032707204+53805+010719FM-15+001699999V0200701N00571011891CN009000199+00301+00201999999ADDGA1041+002131991GA2041+011891991GE19MSL   +99999+99999GF199999041990002131991991MA1102201999990REMMET076METAR EDHL 270720Z 07011KT 9000 SCT007 SCT039 03/02 Q1022 RMK ATIS      DEL=
0183101560999992014032707504+53805+010719FM-15+001699999V0200701N00511011581CN009000199+00401+00201999999ADDGA1041+002441991GA2041+011581991GE19MSL   +99999+99999GF199999041990002441991991MA1102201999990REMMET076METAR EDHL 270750Z 07010KT 9000 SCT008 SCT038 04/02 Q1022 RMK ATIS      ECH=
0142101560999992014032708204+53805+010719FM-15+001699999V0200801N004119999999N009000199+00401+00201999999ADDGA1041+002441991GE19MSL   +99999+99999GF199999041990002441991991MA1102201999990REMMET051METAR EDHL 270820Z 08008KT 9000 SCT008 04/02 Q1022=
0168101560999992014032708504+53805+010719FM-15+001699999V0200801V003619999999N009999199+00501+00301999999ADDGA1021+003051991GE19MSL   +99999+99999GF199999021990003051991991MA1102201999990REMMET077METAR EDHL 270850Z 08007KT 040V130 9999 FEW010 05/03 Q1022 RMK ATIS      GOL=
0168101560999992014032709204+53805+010719FM-15+001699999V0200601V003619999999N009999199+00601+00301999999ADDGA1021+003051991GE19MSL   +99999+99999GF199999021990003051991991MA1102201999990REMMET077METAR EDHL 270920Z 06007KT 040V100 9999 FEW010 06/03 Q1022 RMK ATIS      HOT=
0168101560999992014032709504+53805+010719FM-15+001699999V0200801V003619999999N009999199+00701+00301999999ADDGA1021+003661991GE19MSL   +99999+99999GF199999021990003661991991MA1102201999990REMMET077METAR EDHL 270950Z 08007KT 030V140 9999 FEW012 07/03 Q1022 RMK ATIS      IND=
0168101560999992014032710204+53805+010719FM-15+001699999V0200701V004119999999N009999199+00801+00301999999ADDGA1021+005791991GE19MSL   +99999+99999GF199999021990005791991991MA1102101999990REMMET077METAR EDHL 271020Z 07008KT 020V130 9999 FEW019 08/03 Q1021 RMK ATIS      JUL=
0155101560999992014032710504+53805+010719FM-15+001699999V0200401N004619999999N009999199+00801+00301999999ADDGA1041+005791991GE19MSL   +99999+99999GF199999041990005791991991MA1102101999990REMMET064METAR EDHL 271050Z 04009KT 9999 SCT019 08/03 Q1021 RMK ATIS KIL=
0168101560999992014032711204+53805+010719FM-15+001699999V0200601V005119999999N009999199+00801+00301999999ADDGA1041+006711991GE19MSL   +99999+99999GF199999041990006711991991MA1102101999990REMMET077METAR EDHL 271120Z 06010KT 020V100 9999 SCT022 08/03 Q1021 RMK ATIS      LIM=
0155101560999992014032711504+53805+010719FM-15+001699999V0200301N006219999999N009999199+00801+00301999999ADDGA1041+006101991GE19MSL   +99999+99999GF199999041990006101991991MA1102001999990REMMET064METAR EDHL 271150Z 03012KT 9999 SCT020 08/03 Q1020 RMK ATIS MIK=
0155101560999992014032712204+53805+010719FM-15+001699999V0200501N005719999999N009999199+00701+00301999999ADDGA1041+005181991GE19MSL   +99999+99999GF199999041990005181991991MA1102001999990REMMET064METAR EDHL 271220Z 05011KT 9999 SCT017 07/03 Q1020 RMK ATIS NOV=
0155101560999992014032712504+53805+010719FM-15+001699999V0200501N006219999999N009999199+00701+00301999999ADDGA1021+005491991GE19MSL   +99999+99999GF199999021990005491991991MA1102001999990REMMET064METAR EDHL 271250Z 05012KT 9999 FEW018 07/03 Q1020 RMK ATIS OSC=
0155101560999992014032713204+53805+010719FM-15+001699999V0200501N007219999999N009999199+00701+00301999999ADDGA1021+003661991GE19MSL   +99999+99999GF199999021990003661991991MA1102001999990REMMET064METAR EDHL 271320Z 05014KT 9999 FEW012 07/03 Q1020 RMK ATIS PAP=
0155101560999992014032713504+53805+010719FM-15+001699999V0200501N006719999999N009999199+00601+00301999999ADDGA1041+004271991GE19MSL   +99999+99999GF199999041990004271991991MA1102001999990REMMET064METAR EDHL 271350Z 05013KT 9999 SCT014 06/03 Q1020 RMK ATIS QUE=
0155101560999992014032714204+53805+010719FM-15+001699999V0200601N007219999999N009999199+00701+00301999999ADDGA1041+004271991GE19MSL   +99999+99999GF199999041990004271991991MA1101901999990REMMET064METAR EDHL 271420Z 06014KT 9999 SCT014 07/03 Q1019 RMK ATIS ROM=
0155101560999992014032714504+53805+010719FM-15+001699999V0200401N006719999999N009999199+00601+00301999999ADDGA1021+004271991GE19MSL   +99999+99999GF199999021990004271991991MA1101901999990REMMET064METAR EDHL 271450Z 04013KT 9999 FEW014 06/03 Q1019 RMK ATIS SIE=
0155101560999992014032715204+53805+010719FM-15+001699999V0200501N006719999999N009999199+00601+00301999999ADDGA1021+004271991GE19MSL   +99999+99999GF199999021990004271991991MA1101901999990REMMET064METAR EDHL 271520Z 05013KT 9999 FEW014 06/03 Q1019 RMK ATIS TAN=
0155101560999992014032715504+53805+010719FM-15+001699999V0200501N006219999999N009999199+00601+00301999999ADDGA1021+004271991GE19MSL   +99999+99999GF199999021990004271991991MA1101901999990REMMET064METAR EDHL 271550Z 05012KT 9999 FEW014 06/03 Q1019 RMK ATIS UNI=
0155101560999992014032716204+53805+010719FM-15+001699999V0200401N005119999999N009999199+00601+00201999999ADDGA1021+003961991GE19MSL   +99999+99999GF199999021990003961991991MA1101901999990REMMET064METAR EDHL 271620Z 04010KT 9999 FEW013 06/02 Q1019 RMK ATIS VIC=
0155101560999992014032716504+53805+010719FM-15+001699999V0200601N005719999999N009999199+00501+00201999999ADDGA1021+004271991GE19MSL   +99999+99999GF199999021990004271991991MA1101901999990REMMET064METAR EDHL 271650Z 06011KT 9999 FEW014 05/02 Q1019 RMK ATIS WHI=
0155101560999992014032717204+53805+010719FM-15+001699999V0200501N005119999999N009999199+00501+00201999999ADDGA1021+004271991GE19MSL   +99999+99999GF199999021990004271991991MA1101901999990REMMET064METAR EDHL 271720Z 05010KT 9999 FEW014 05/02 Q1019 RMK ATIS X-R=
0085101560999992014032717504+53805+010719FM-15+001699999V0200501N003619999999Y999999999+00401+00201999999ADDMA1102001999990REMMET058METAR EDHL 271750Z 05007KT CAVOK 04/02 Q1020 RMK ATIS YAN=
0085101560999992014032718204+53805+010719FM-15+001699999V0200501N004119999999Y999999999+00301+00201999999ADDMA1102001999990REMMET058METAR EDHL 271820Z 05008KT CAVOK 03/02 Q1020 RMK ATIS ZUL=
0085101560999992014032718504+53805+010719FM-15+001699999V0200601N004619999999Y999999999+00301+00201999999ADDMA1102001999990REMMET058METAR EDHL 271850Z 06009KT CAVOK 03/02 Q1020 RMK ATIS ALF=
0085101560999992014032719204+53805+010719FM-15+001699999V0200601N003119999999Y999999999+00101+00001999999ADDMA1102001999990REMMET058METAR EDHL 271920Z 06006KT CAVOK 01/00 Q1020 RMK ATIS BRA=
0085101560999992014032719504+53805+010719FM-15+001699999V0200701N002619999999Y999999999+00101+00101999999ADDMA1102001999990REMMET058METAR EDHL 271950Z 07005KT CAVOK 01/01 Q1020 RMK ATIS CHA=
0085101560999992014032720204+53805+010719FM-15+001699999V0200801N003119999999Y999999999+00201+00201999999ADDMA1102101999990REMMET058METAR EDHL 272020Z 08006KT CAVOK 02/02 Q1021 RMK ATIS DEL=
0085101560999992014032720504+53805+010719FM-15+001699999V0200801N003119999999Y999999999+00201+00201999999ADDMA1102101999990REMMET058METAR EDHL 272050Z 08006KT CAVOK 02/02 Q1021 RMK ATIS ECH=
0164101560999992014032805504+53805+010719FM-15+001699999V0200801N004110012219N005000199+00401+00301999999ADDGA1081+001221991GE19MSL   +99999+99999GF199999081990001221991991MA1102301999990MW1101REMMET067METAR EDHL 280550Z 08008KT 5000 BR OVC004 04/03 Q1023 RMK ATIS ALF=
0168101560999992014032806204+53805+010719FM-15+001699999V0200801V003610012219N006000199+00401+00301999999ADDGA1081+001221991GE19MSL   +99999+99999GF199999081990001221991991MA1102401999990REMMET077METAR EDHL 280620Z 08007KT 050V120 6000 OVC004 04/03 Q1024 RMK ATIS      BRA=
0155101560999992014032806504+53805+010719FM-15+001699999V0200801N003110012219N006000199+00401+00301999999ADDGA1081+001221991GE19MSL   +99999+99999GF199999081990001221991991MA1102401999990REMMET064METAR EDHL 280650Z 08006KT 6000 OVC004 04/03 Q1024 RMK ATIS CHA=
0155101560999992014032807204+53805+010719FM-15+001699999V0200701N004610012219N006000199+00401+00301999999ADDGA1081+001221991GE19MSL   +99999+99999GF199999081990001221991991MA1102401999990REMMET064METAR EDHL 280720Z 07009KT 6000 OVC004 04/03 Q1024 RMK ATIS DEL=
0155101560999992014032807504+53805+010719FM-15+001699999V0200501N004110015219N006000199+00501+00401999999ADDGA1071+001521991GE19MSL   +99999+99999GF199999071990001521991991MA1102401999990REMMET064METAR EDHL 280750Z 05008KT 6000 BKN005 05/04 Q1024 RMK ATIS ECH=
0142101560999992014032808204+53805+010719FM-15+001699999V0200601N004110012219N006000199+00501+00401999999ADDGA1081+001221991GE19MSL   +99999+99999GF199999081990001221991991MA1102401999990REMMET051METAR EDHL 280820Z 06008KT 6000 OVC004 05/04 Q1024=
0155101560999992014032808504+53805+010719FM-15+001699999V0200601N004610012219N006000199+00501+00401999999ADDGA1081+001221991GE19MSL   +99999+99999GF199999081990001221991991MA1102401999990REMMET064METAR EDHL 280850Z 06009KT 6000 OVC004 05/04 Q1024 RMK ATIS GOL=
0155101560999992014032809204+53805+010719FM-15+001699999V0200801N004610015219N006000199+00501+00401999999ADDGA1081+001521991GE19MSL   +99999+99999GF199999081990001521991991MA1102401999990REMMET064METAR EDHL 280920Z 08009KT 6000 OVC005 05/04 Q1024 RMK ATIS HOT=
0155101560999992014032809504+53805+010719FM-15+001699999V0200701N004610018319N006000199+00501+00401999999ADDGA1081+001831991GE19MSL   +99999+99999GF199999081990001831991991MA1102501999990REMMET064METAR EDHL 280950Z 07009KT 6000 OVC006 05/04 Q1025 RMK ATIS IND=
0155101560999992014032810204+53805+010719FM-15+001699999V0200601N004610018319N007000199+00601+00401999999ADDGA1071+001831991GE19MSL   +99999+99999GF199999071990001831991991MA1102401999990REMMET064METAR EDHL 281020Z 06009KT 7000 BKN006 06/04 Q1024 RMK ATIS JUL=
0168101560999992014032810504+53805+010719FM-15+001699999V0200601V004110015219N008000199+00601+00401999999ADDGA1081+001521991GE19MSL   +99999+99999GF199999081990001521991991MA1102501999990REMMET077METAR EDHL 281050Z 06008KT 040V100 8000 OVC005 06/04 Q1025 RMK ATIS      KIL=
0155101560999992014032811204+53805+010719FM-15+001699999V0200601N004610018319N009000199+00601+00401999999ADDGA1081+001831991GE19MSL   +99999+99999GF199999081990001831991991MA1102501999990REMMET064METAR EDHL 281120Z 06009KT 9000 OVC006 06/04 Q1025 RMK ATIS LIM=
0155101560999992014032811504+53805+010719FM-15+001699999V0200601N003610018319N008000199+00601+00401999999ADDGA1081+001831991GE19MSL   +99999+99999GF199999081990001831991991MA1102501999990REMMET064METAR EDHL 281150Z 06007KT 8000 OVC006 06/04 Q1025 RMK ATIS MIK=
0155101560999992014032812204+53805+010719FM-15+001699999V0200701N003610018319N008000199+00601+00401999999ADDGA1081+001831991GE19MSL   +99999+99999GF199999081990001831991991MA1102501999990REMMET064METAR EDHL 281220Z 07007KT 8000 OVC006 06/04 Q1025 RMK ATIS NOV=
0155101560999992014032812504+53805+010719FM-15+001699999V0200601N003110018319N008000199+00601+00501999999ADDGA1081+001831991GE19MSL   +99999+99999GF199999081990001831991991MA1102501999990REMMET064METAR EDHL 281250Z 06006KT 8000 OVC006 06/05 Q1025 RMK ATIS OSC=
0155101560999992014032813204+53805+010719FM-15+001699999V0200401N003110021319N007000199+00601+00501999999ADDGA1081+002131991GE19MSL   +99999+99999GF199999081990002131991991MA1102401999990REMMET064METAR EDHL 281320Z 04006KT 7000 OVC007 06/05 Q1024 RMK ATIS PAP=
0168101560999992014032813504+53805+010719FM-15+001699999V0200401V003110021319N007000199+00601+00501999999ADDGA1081+002131991GE19MSL   +99999+99999GF199999081990002131991991MA1102401999990REMMET077METAR EDHL 281350Z 04006KT 350V070 7000 OVC007 06/05 Q1024 RMK ATIS      QUE=
0155101560999992014032814204+53805+010719FM-15+001699999V0200301N004110015219N007000199+00601+00501999999ADDGA1081+001521991GE19MSL   +99999+99999GF199999081990001521991991MA1102401999990REMMET064METAR EDHL 281420Z 03008KT 7000 OVC005 06/05 Q1024 RMK ATIS ROM=
0164101560999992014032814304+53805+010719FM-16+001699999V0200401N004610012219N005000199+00601+00501999999ADDGA1081+001221991GE19MSL   +99999+99999GF199999081990001221991991MA1102401999990MW1101REMMET067SPECI EDHL 281430Z 04009KT 5000 BR OVC004 06/05 Q1024 RMK ATIS SIE=
0164101560999992014032814504+53805+010719FM-15+001699999V0200301N004110012219N005000199+00601+00501999999ADDGA1081+001221991GE19MSL   +99999+99999GF199999081990001221991991MA1102401999990MW1101REMMET067METAR EDHL 281450Z 03008KT 5000 BR OVC004 06/05 Q1024 RMK ATIS TAN=
0164101560999992014032815204+53805+010719FM-15+001699999V0200401N003110012219N005000199+00601+00501999999ADDGA1081+001221991GE19MSL   +99999+99999GF199999081990001221991991MA1102401999990MW1101REMMET067METAR EDHL 281520Z 04006KT 5000 BR OVC004 06/05 Q1024 RMK ATIS UNI=
0164101560999992014032815504+53805+010719FM-15+001699999V0200501N003110012219N004500199+00601+00501999999ADDGA1081+001221991GE19MSL   +99999+99999GF199999081990001221991991MA1102401999990MW1101REMMET067METAR EDHL 281550Z 05006KT 4500 BR OVC004 06/05 Q1024 RMK ATIS VIC=
0164101560999992014032816204+53805+010719FM-15+001699999V0200601N003110012219N004000199+00601+00501999999ADDGA1081+001221991GE19MSL   +99999+99999GF199999081990001221991991MA1102401999990MW1101REMMET067METAR EDHL 281620Z 06006KT 4000 BR OVC004 06/05 Q1024 RMK ATIS WHI=
0164101560999992014032816504+53805+010719FM-15+001699999V0200501N002110012219N004000199+00601+00601999999ADDGA1081+001221991GE19MSL   +99999+99999GF199999081990001221991991MA1102401999990MW1101REMMET067METAR EDHL 281650Z 05004KT 4000 BR OVC004 06/06 Q1024 RMK ATIS X-R=
0164101560999992014032817204+53805+010719FM-15+001699999V0200501N003610009119N003000199+00601+00501999999ADDGA1081+000911991GE19MSL   +99999+99999GF199999081990000911991991MA1102401999990MW1101REMMET067METAR EDHL 281720Z 05007KT 3000 BR OVC003 06/05 Q1024 RMK ATIS YAN=
0164101560999992014032817504+53805+010719FM-15+001699999V0200501N002610012219N003000199+00601+00501999999ADDGA1081+001221991GE19MSL   +99999+99999GF199999081990001221991991MA1102401999990MW1101REMMET067METAR EDHL 281750Z 05005KT 3000 BR OVC004 06/05 Q1024 RMK ATIS ZUL=
0192101560999992014032818204+53805+010719FM-15+001699999V0200501N003110015219N005000199+00601+00501999999ADDGA1071+001521991GA2081+002741991GE19MSL   +99999+99999GF199999071990001521991991MA1102401999990MW1101REMMET079METAR EDHL 281820Z 05006KT 5000 BR BKN005 OVC009 06/05 Q1024 RMK ATIS      ALF=
0164101560999992014032818504+53805+010719FM-15+001699999V0200501N002610030519N005000199+00601+00501999999ADDGA1081+003051991GE19MSL   +99999+99999GF199999081990003051991991MA1102401999990MW1101REMMET067METAR EDHL 281850Z 05005KT 5000 BR OVC010 06/05 Q1024 RMK ATIS BRA=
0155101560999992014032819204+53805+010719FM-15+001699999V0200601N003110024419N006000199+00601+00501999999ADDGA1071+002441991GE19MSL   +99999+99999GF199999071990002441991991MA1102401999990REMMET064METAR EDHL 281920Z 06006KT 6000 BKN008 06/05 Q1024 RMK ATIS CHA=
0155101560999992014032819504+53805+010719FM-15+001699999V0200601N002610024419N006000199+00601+00501999999ADDGA1071+002441991GE19MSL   +99999+99999GF199999071990002441991991MA1102401999990REMMET064METAR EDHL 281950Z 06005KT 6000 BKN008 06/05 Q1024 RMK ATIS DEL=
0155101560999992014032820204+53805+010719FM-15+001699999V0200701N002610036619N006000199+00601+00501999999ADDGA1071+003661991GE19MSL   +99999+99999GF199999071990003661991991MA1102401999990REMMET064METAR EDHL 282020Z 07005KT 6000 BKN012 06/05 Q1024 RMK ATIS ECH=
0155101560999992014032820504+53805+010719FM-15+001699999V0200901N002110033519N006000199+00601+00501999999ADDGA1071+003351991GE19MSL   +99999+99999GF199999071990003351991991MA1102401999990REMMET064METAR EDHL 282050Z 09004KT 6000 BKN011 06/05 Q1024 RMK ATIS FOX=
0140101560999992014032905504+53805+010719FM-15+001699999V0200901N002119999999N000100199+00501+00501999999ADDGF109991999999999999999999MA1102501999990MW1441REMMET081METAR EDHL 290550Z 09004KT 0100 R07/0325N FG VV/// 05/05 Q1025 RMK      ATIS ALF=
0148101560999992014032906204+53805+010719FM-15+001699999V0201001V001519999999N000150199+00501+00501999999ADDGF109991999999999999999999MA1102501999990MW1441REMMET089METAR EDHL 290620Z 10003KT 070V130 0150 R07/0350N FG VV/// 05/05 Q1025      RMK ATIS BRA=
0140101560999992014032906504+53805+010719FM-15+001699999V0201101N002119999999N000150199+00501+00501999999ADDGF109991999999999999999999MA1102501999990MW1441REMMET081METAR EDHL 290650Z 11004KT 0150 R07/0325N FG VV/// 05/05 Q1025 RMK      ATIS CHA=
0192101560999992014032907204+53805+010719FM-15+001699999V0201301V002110003019N000150199+00501+00501999999ADDGA1081+000301991GE19MSL   +99999+99999GF199999081990000301991991MA1102501999990MW1441REMMET095METAR EDHL 290720Z 13004KT 080V160 0150 R07/0350V0450N FG OVC001 05/05      Q1025 RMK ATIS DEL=
0186101560999992014032907504+53805+010719FM-15+001699999V0201301V002110003019N000300199+00501+00501999999ADDGA1081+000301991GE19MSL   +99999+99999GF199999081990000301991991MA1102501999990MW1441REMMET089METAR EDHL 290750Z 13004KT 090V180 0300 R07/0550 FG OVC001 05/05 Q1025      RMK ATIS ECH=
0179101560999992014032908204+53805+010719FM-15+001699999V0201001V002110006119N000650199+00601+00601999999ADDGA1081+000611991GE19MSL   +99999+99999GF199999081990000611991991MA1102501999990MW1441REMMET082METAR EDHL 290820Z 10004KT 060V150 0650 R07/0900V1300U FG OVC002 06/06      Q1025=
0161101560999992014032908504+53805+010719FM-15+001699999V0201001N002610009119N001100199+00601+00601999999ADDGA1081+000911991GE19MSL   +99999+99999GF199999081990000911991991MA1102601999990MW1101REMMET064METAR EDHL 290850Z 10005KT 1100 R07/1500U BR OVC003 06/06 Q1026=
0159101560999992014032909204+53805+010719FM-15+001699999V0201001V003110009119N002200199+00701+00701999999ADDGA1081+000911991GE19MSL   +99999+99999GF199999081990000911991991MA1102501999990MW1101REMMET062METAR EDHL 290920Z 10006KT 060V140 2200 BR OVC003 07/07 Q1025=
0182101560999992014032909504+53805+010719FM-15+001699999V0201001V002610012219N002500199+00701+00701999999ADDGA1041+000911991GA2081+001221991GE19MSL   +99999+99999GF199999041990000911991991MA1102501999990MW1101REMMET069METAR EDHL 290950Z 10005KT 060V150 2500 BR SCT003 OVC004 07/07 Q1025=
0177101560999992014032910204+53805+010719FM-15+001699999V0201101V003110012219N002500199+00801+00801999999ADDGA1071+001221991GE19MSL   +99999+99999GF199999071990001221991991MA1102501999990MW1101REMMET080METAR EDHL 291020Z 11006KT 080V150 2500 BR BKN004 08/08 Q1025 RMK ATIS      JUL=
0177101560999992014032910504+53805+010719FM-15+001699999V0201101V002610012219N002800199+00801+00801999999ADDGA1071+001221991GE19MSL   +99999+99999GF199999071990001221991991MA1102501999990MW1101REMMET080METAR EDHL 291050Z 11005KT 070V170 2800 BR BKN004 08/08 Q1025 RMK ATIS      KIL=
0200101560999992014032911204+53805+010719FM-15+001699999V0201401V002610030519N003500199+00901+00701999999ADDGA1041+001831991GA2071+003051991GE19MSL   +99999+99999GF199999041990001831991991MA1102501999990MW1101REMMET087METAR EDHL 291120Z 14005KT 090V180 3500 BR SCT006 BKN010 09/07 Q1025      RMK ATIS LIM=
0200101560999992014032911504+53805+010719FM-15+001699999V0201001V003110036619N004000199+01001+00701999999ADDGA1021+001831991GA2071+003661991GE19MSL   +99999+99999GF199999021990001831991991MA1102501999990MW1101REMMET087METAR EDHL 291150Z 10006KT 070V170 4000 BR FEW006 BKN012 10/07 Q1025      RMK ATIS MIK=
0168101560999992014032912204+53805+010719FM-15+001699999V0201101V002619999999N006000199+01101+00701999999ADDGA1041+004271991GE19MSL   +99999+99999GF199999041990004271991991MA1102501999990REMMET077METAR EDHL 291220Z 11005KT 040V180 6000 SCT014 11/07 Q1025 RMK ATIS      NOV=
0168101560999992014032912504+53805+010719FM-15+001699999V0201101V003119999999N007000199+01301+00801999999ADDGA1041+004271991GE19MSL   +99999+99999GF199999041990004271991991MA1102401999990REMMET077METAR EDHL 291250Z 11006KT 080V160 7000 SCT014 13/08 Q1024 RMK ATIS      OSC=
0122101560999992014032913204+53805+010719FM-15+001699999V0200901V003612200019N007000199+01301+00801999999ADDGF100991999999999999999999MA1102401999990REMMET069METAR EDHL 291320Z 09007KT 060V150 7000 NSC 13/08 Q1024 RMK ATIS PAP=
0122101560999992014032913504+53805+010719FM-15+001699999V0200901V003612200019N007000199+01401+00901999999ADDGF100991999999999999999999MA1102401999990REMMET069METAR EDHL 291350Z 09007KT 060V130 7000 NSC 14/09 Q1024 RMK ATIS QUE=
0122101560999992014032914204+53805+010719FM-15+001699999V0200901V003612200019N008000199+01401+00901999999ADDGF100991999999999999999999MA1102401999990REMMET069METAR EDHL 291420Z 09007KT 060V130 8000 NSC 14/09 Q1024 RMK ATIS ROM=
0114101560999992014032914504+53805+010719FM-15+001699999V0200901N004112200019N008000199+01401+00801999999ADDGF100991999999999999999999MA1102301999990REMMET061METAR EDHL 291450Z 09008KT 8000 NSC 14/08 Q1023 RMK ATIS SIE=
0122101560999992014032915204+53805+010719FM-15+001699999V0201001V003612200019N009000199+01401+00801999999ADDGF100991999999999999999999MA1102301999990REMMET069METAR EDHL 291520Z 10007KT 070V130 9000 NSC 14/08 Q1023 RMK ATIS TAN=
0114101560999992014032915504+53805+010719FM-15+001699999V0201101N003112200019N009000199+01401+00701999999ADDGF100991999999999999999999MA1102301999990REMMET061METAR EDHL 291550Z 11006KT 9000 NSC 14/07 Q1023 RMK ATIS UNI=
0122101560999992014032916204+53805+010719FM-15+001699999V0200901V003112200019N009000199+01401+00801999999ADDGF100991999999999999999999MA1102201999990REMMET069METAR EDHL 291620Z 09006KT 060V120 9000 NSC 14/08 Q1022 RMK ATIS VIC=
0114101560999992014032916504+53805+010719FM-15+001699999V0201001N003112200019N009000199+01301+00801999999ADDGF100991999999999999999999MA1102201999990REMMET061METAR EDHL 291650Z 10006KT 9000 NSC 13/08 Q1022 RMK ATIS WHI=
0122101560999992014032917204+53805+010719FM-15+001699999V0200801V002612200019N008000199+01101+00701999999ADDGF100991999999999999999999MA1102201999990REMMET069METAR EDHL 291720Z 08005KT 050V110 8000 NSC 11/07 Q1022 RMK ATIS X-R=
0114101560999992014032917504+53805+010719FM-15+001699999V0200501N003112200019N006000199+00901+00701999999ADDGF100991999999999999999999MA1102201999990REMMET061METAR EDHL 291750Z 05006KT 6000 NSC 09/07 Q1022 RMK ATIS YAN=
0123101560999992014032918204+53805+010719FM-15+001699999V0200501N002612200019N004500199+00701+00601999999ADDGF100991999999999999999999MA1102301999990MW1101REMMET064METAR EDHL 291820Z 05005KT 4500 BR NSC 07/06 Q1023 RMK ATIS ZUL=
0123101560999992014032918504+53805+010719FM-15+001699999V0200501N002112200019N004400199+00601+00501999999ADDGF100991999999999999999999MA1102301999990MW1101REMMET064METAR EDHL 291850Z 05004KT 4400 BR NSC 06/05 Q1023 RMK ATIS ALF=
0123101560999992014032919204+53805+010719FM-15+001699999V0200501N002112200019N003500199+00501+00401999999ADDGF100991999999999999999999MA1102301999990MW1101REMMET064METAR EDHL 291920Z 05004KT 3500 BR NSC 05/04 Q1023 RMK ATIS BRA=
0123101560999992014032919504+53805+010719FM-15+001699999V0200801N002112200019N002000199+00501+00401999999ADDGF100991999999999999999999MA1102301999990MW1101REMMET064METAR EDHL 291950Z 08004KT 2000 BR NSC 05/04 Q1023 RMK ATIS CHA=
0144101560999992014032920204+53805+010719FM-15+001699999V0200401N001512200019N001500199+00501+00401999999ADDGF100991999999999999999999MA1102201999990MW1101REMMET085METAR EDHL 292020Z 04003KT 1500 R07/1300VP2000U BR NSC 05/04 Q1022      RMK ATIS DEL=
0139101560999992014032920504+53805+010719FM-15+001699999V0200301N001012200019N001500199+00401+00401999999ADDGF100991999999999999999999MA1102201999990MW1101REMMET080METAR EDHL 292050Z 03002KT 1500 R07/P2000N BR NSC 04/04 Q1022 RMK ATIS      ECH=
0140101560999992014033004204+53805+010719FM-15+001699999V0200401N001019999999N000100199+00301+00301999999ADDGF109991999999999999999999MA1102001999990MW1441REMMET081METAR EDHL 300420Z 04002KT 0100 R07/0325N FG VV/// 03/03 Q1020 RMK      ATIS ALF=
0140101560999992014033004504+53805+010719FM-15+001699999V0200501N000519999999N000100199+00301+00301999999ADDGF109991999999999999999999MA1102001999990MW1441REMMET081METAR EDHL 300450Z 05001KT 0100 R07/0300N FG VV/// 03/03 Q1020 RMK      ATIS BRA=
0140101560999992014033005204+53805+010719FM-15+001699999V0200701N001019999999N000100199+00301+00301999999ADDGF109991999999999999999999MA1102001999990MW1441REMMET081METAR EDHL 300520Z 07002KT 0100 R07/0275N FG VV/// 03/03 Q1020 RMK      ATIS CHA=
0144101560999992014033005504+53805+010719FM-15+001699999V0200801N001519999999N000050199+00301+00301999999ADDGF109991999999999999999999MA1102001999990MW1441REMMET085METAR COR EDHL 300550Z 08003KT 0050 R07/0225N FG VV/// 03/03 Q1020      RMK ATIS ECH=
0140101560999992014033006204+53805+010719FM-15+001699999V0200701N001519999999N000050199+00301+00301999999ADDGF109991999999999999999999MA1102001999990MW1441REMMET081METAR EDHL 300620Z 07003KT 0050 R07/0200N FG VV/// 03/03 Q1020 RMK      ATIS FOX=
0140101560999992014033006504+53805+010719FM-15+001699999V0209999V001019999999N000100199+00401+00401999999ADDGF109991999999999999999999MA1102001999990MW1441REMMET081METAR EDHL 300650Z VRB02KT 0100 R07/0200N FG VV/// 04/04 Q1020 RMK      ATIS GOL=
0140101560999992014033007204+53805+010719FM-15+001699999V0209999V001019999999N000100199+00401+00401999999ADDGF109991999999999999999999MA1102001999990MW1441REMMET081METAR EDHL 300720Z VRB02KT 0100 R07/0225N FG VV/// 04/04 Q1020 RMK      ATIS HOT=
0140101560999992014033007504+53805+010719FM-15+001699999V0209999V001019999999N000100199+00501+00501999999ADDGF109991999999999999999999MA1102001999990MW1441REMMET081METAR EDHL 300750Z VRB02KT 0100 R07/0225N FG VV/// 05/05 Q1020 RMK      ATIS IND=
0140101560999992014033008204+53805+010719FM-15+001699999V0209999V000519999999N000200199+00601+00601999999ADDGF109991999999999999999999MA1102001999990MW1441REMMET081METAR EDHL 300820Z VRB01KT 0200 R07/0325N FG VV/// 06/06 Q1020 RMK      ATIS JUL=
0184101560999992014033008504+53805+010719FM-15+001699999V0209999V000510003019N000500199+00801+00801999999ADDGA1071+000301991GE19MSL   +99999+99999GF199999071990000301991991MA1102001999990MW1441REMMET087METAR EDHL 300850Z VRB01KT 0500 R07/0350V0700U FG BKN001 08/08 Q1020      RMK ATIS KIL=
0179101560999992014033008594+53805+010719FM-16+001699999V0209999V001019999999N001200199+00801+00801999999ADDGA1021+000611991GE19MSL   +99999+99999GF199999021990000611991991MA1102001999990MW1101REMMET082SPECI EDHL 300859Z VRB02KT 1200 R07/1200U BR FEW002 08/08 Q1020 RMK      ATIS LIM=
0110101560999992014033009204+53805+010719FM-15+001699999V0209999V001012200019N004000199+01001+00901999999ADDGF100991999999999999999999MA1101901999990MW1101REMMET051METAR EDHL 300920Z VRB02KT 4000 BR NSC 10/09 Q1019=
0122101560999992014033009304+53805+010719FM-16+001699999V0201001V001512200019N006000199+01101+01001999999ADDGF100991999999999999999999MA1101901999990REMMET069SPECI EDHL 300930Z 10003KT 060V150 6000 NSC 11/10 Q1019 RMK ATIS NOV=
0122101560999992014033009504+53805+010719FM-15+001699999V0201001V001512200019N006000199+01201+01101999999ADDGF100991999999999999999999MA1101901999990REMMET069METAR EDHL 300950Z 10003KT 060V170 6000 NSC 12/11 Q1019 RMK ATIS OSC=
0114101560999992014033010094+53805+010719FM-16+001699999V0209999V002112200019N006000199+01401+00901999999ADDGF100991999999999999999999MA1101901999990REMMET061SPECI EDHL 301009Z VRB04KT 6000 NSC 14/09 Q1019 RMK ATIS PAP=
0080101560999992014033010204+53805+010719FM-15+001699999V0201301V002119999999Y999999999+01401+00901999999ADDMA1101901999990REMMET053METAR EDHL 301020Z 13004KT 080V170 CAVOK 14/09 Q1019=
0093101560999992014033010504+53805+010719FM-15+001699999V0201601V002119999999Y999999999+01601+00901999999ADDMA1101901999990REMMET066METAR EDHL 301050Z 16004KT 100V220 CAVOK 16/09 Q1019 RMK ATIS ROM=
0093101560999992014033011204+53805+010719FM-15+001699999V0201601V002119999999Y999999999+01601+00801999999ADDMA1101801999990REMMET066METAR EDHL 301120Z 16004KT 090V250 CAVOK 16/08 Q1018 RMK ATIS SIE=
0093101560999992014033011504+53805+010719FM-15+001699999V0201501V002119999999Y999999999+01701+00801999999ADDMA1101801999990REMMET066METAR EDHL 301150Z 15004KT 060V200 CAVOK 17/08 Q1018 RMK ATIS TAN=
0085101560999992014033012204+53805+010719FM-15+001699999V0209999V002119999999Y999999999+01701+00801999999ADDMA1101801999990REMMET058METAR EDHL 301220Z VRB04KT CAVOK 17/08 Q1018 RMK ATIS UNI=
0093101560999992014033012504+53805+010719FM-15+001699999V0201601V002119999999Y999999999+01801+00801999999ADDMA1101701999990REMMET066METAR EDHL 301250Z 16004KT 080V210 CAVOK 18/08 Q1017 RMK ATIS VIC=
0122101560999992014033013204+53805+010719FM-15+001699999V0201301V002112200019N009000199+01801+00801999999ADDGF100991999999999999999999MA1101701999990REMMET069METAR EDHL 301320Z 13004KT 060V170 9000 NSC 18/08 Q1017 RMK ATIS WHI=
0122101560999992014033013504+53805+010719FM-15+001699999V0201601V002112200019N009000199+01801+00701999999ADDGF100991999999999999999999MA1101701999990REMMET069METAR EDHL 301350Z 16004KT 130V220 9000 NSC 18/07 Q1017 RMK ATIS X-R=
0085101560999992014033014204+53805+010719FM-15+001699999V0209999V001519999999Y999999999+01901+00701999999ADDMA1101701999990REMMET058METAR EDHL 301420Z VRB03KT CAVOK 19/07 Q1017 RMK ATIS YAN=
0093101560999992014033014504+53805+010719FM-15+001699999V0201501V001519999999Y999999999+01901+00701999999ADDMA1101601999990REMMET066METAR EDHL 301450Z 15003KT 090V200 CAVOK 19/07 Q1016 RMK ATIS ZUL=
0085101560999992014033015204+53805+010719FM-15+001699999V0209999V001019999999Y999999999+01801+00601999999ADDMA1101601999990REMMET058METAR EDHL 301520Z VRB02KT CAVOK 18/06 Q1016 RMK ATIS ALF=
0085101560999992014033015504+53805+010719FM-15+001699999V0200501N004119999999Y999999999+01701+00901999999ADDMA1101601999990REMMET058METAR EDHL 301550Z 05008KT CAVOK 17/09 Q1016 RMK ATIS BRA=
0085101560999992014033016204+53805+010719FM-15+001699999V0200501N003619999999Y999999999+01601+01001999999ADDMA1101601999990REMMET058METAR EDHL 301620Z 05007KT CAVOK 16/10 Q1016 RMK ATIS CHA=
0085101560999992014033016504+53805+010719FM-15+001699999V0200401N003119999999Y999999999+01401+00901999999ADDMA1101601999990REMMET058METAR EDHL 301650Z 04006KT CAVOK 14/09 Q1016 RMK ATIS DEL=
0114101560999992014033017204+53805+010719FM-15+001699999V0200501N002612200019N009000199+01201+00901999999ADDGF100991999999999999999999MA1101601999990REMMET061METAR EDHL 301720Z 05005KT 9000 NSC 12/09 Q1016 RMK ATIS ECH=
0114101560999992014033017504+53805+010719FM-15+001699999V0200501N002612200019N009000199+01101+00801999999ADDGF100991999999999999999999MA1101601999990REMMET061METAR EDHL 301750Z 05005KT 9000 NSC 11/08 Q1016 RMK ATIS FOX=
0085101560999992014033018204+53805+010719FM-15+001699999V0200501N001519999999Y999999999+01001+00701999999ADDMA1101601999990REMMET058METAR EDHL 301820Z 05003KT CAVOK 10/07 Q1016 RMK ATIS GOL=
0085101560999992014033018504+53805+010719FM-15+001699999V0200301N001519999999Y999999999+00901+00701999999ADDMA1101601999990REMMET058METAR EDHL 301850Z 03003KT CAVOK 09/07 Q1016 RMK ATIS HOT=
0085101560999992014033019204+53805+010719FM-15+001699999V0203401N001019999999Y999999999+00801+00601999999ADDMA1101601999990REMMET058METAR EDHL 301920Z 34002KT CAVOK 08/06 Q1016 RMK ATIS IND=
0085101560999992014033019504+53805+010719FM-15+001699999V0200401N001519999999Y999999999+00701+00601999999ADDMA1101601999990REMMET058METAR EDHL 301950Z 04003KT CAVOK 07/06 Q1016 RMK ATIS JUL=
0153101560999992014033104204+53805+010719FM-15+001699999V0200301N001019999999N006000199+00401+00301999999ADDGA1021+014631991GE19MSL   +99999+99999GF199999021990014631991991MA1101501999990MW1111REMMET056METAR EDHL 310420Z 03002KT 6000 BCFG FEW048 04/03 Q1015=
0166101560999992014033104504+53805+010719FM-15+001699999V0209999V000519999999N006000199+00401+00301999999ADDGA1021+014631991GE19MSL   +99999+99999GF199999021990014631991991MA1101501999990MW1111REMMET069METAR EDHL 310450Z VRB01KT 6000 BCFG FEW048 04/03 Q1015 RMK ATIS BRA=
0125101560999992014033105204+53805+010719FM-15+001699999V0209999V001012200019N007000199+00401+00301999999ADDGF100991999999999999999999MA1101501999990MW1121REMMET066METAR EDHL 310520Z VRB02KT 7000 MIFG NSC 04/03 Q1015 RMK ATIS CHA=
0125101560999992014033105504+53805+010719FM-15+001699999V0209999V000512200019N007000199+00501+00401999999ADDGF100991999999999999999999MA1101601999990MW1121REMMET066METAR EDHL 310550Z VRB01KT 7000 MIFG NSC 05/04 Q1016 RMK ATIS DEL=
0114101560999992014033106204+53805+010719FM-15+001699999V0203401N000512200019N007000199+00601+00401999999ADDGF100991999999999999999999MA1101601999990REMMET061METAR EDHL 310620Z 34001KT 7000 NSC 06/04 Q1016 RMK ATIS ECH=
0118101560999992014033107204+53805+010719FM-15+001699999V0202901N001012200019N007000199+00701+00501999999ADDGF100991999999999999999999MA1101601999990REMMET065METAR COR EDHL 310720Z 29002KT 7000 NSC 07/05 Q1016 RMK ATIS BRA=
0114101560999992014033107504+53805+010719FM-15+001699999V0209999V000512200019N007000199+00801+00501999999ADDGF100991999999999999999999MA1101601999990REMMET061METAR EDHL 310750Z VRB01KT 7000 NSC 08/05 Q1016 RMK ATIS CHA=
0114101560999992014033108204+53805+010719FM-15+001699999V0209999V001012200019N007000199+00901+00601999999ADDGF100991999999999999999999MA1101601999990REMMET061METAR EDHL 310820Z VRB02KT 7000 NSC 09/06 Q1016 RMK ATIS DEL=
0114101560999992014033108504+53805+010719FM-15+001699999V0209999V001012200019N007000199+01001+00601999999ADDGF100991999999999999999999MA1101601999990REMMET061METAR EDHL 310850Z VRB02KT 7000 NSC 10/06 Q1016 RMK ATIS ECH=
0114101560999992014033109204+53805+010719FM-15+001699999V0209999V001012200019N008000199+01101+00601999999ADDGF100991999999999999999999MA1101601999990REMMET061METAR EDHL 310920Z VRB02KT 8000 NSC 11/06 Q1016 RMK ATIS FOX=
0114101560999992014033109504+53805+010719FM-15+001699999V0209999V000512200019N008000199+01201+00601999999ADDGF100991999999999999999999MA1101601999990REMMET061METAR EDHL 310950Z VRB01KT 8000 NSC 12/06 Q1016 RMK ATIS GOL=
0114101560999992014033110204+53805+010719FM-15+001699999V0209999V001012200019N009000199+01201+00601999999ADDGF100991999999999999999999MA1101601999990REMMET061METAR EDHL 311020Z VRB02KT 9000 NSC 12/06 Q1016 RMK ATIS HOT=
0122101560999992014033111204+53805+010719FM-15+001699999V0203301V001512200019N008000199+01301+00601999999ADDGF100991999999999999999999MA1101601999990REMMET069METAR EDHL 311120Z 33003KT 300V010 8000 NSC 13/06 Q1016 RMK ATIS ALF=
0122101560999992014033111504+53805+010719FM-15+001699999V0202901V001512200019N008000199+01301+00601999999ADDGF100991999999999999999999MA1101601999990REMMET069METAR EDHL 311150Z 29003KT 220V330 8000 NSC 13/06 Q1016 RMK ATIS BRA=
0114101560999992014033112204+53805+010719FM-15+001699999V0209999V001512200019N008000199+01401+00601999999ADDGF100991999999999999999999MA1101601999990REMMET061METAR EDHL 311220Z VRB03KT 8000 NSC 14/06 Q1016 RMK ATIS CHA=
0114101560999992014033112504+53805+010719FM-15+001699999V0209999V001512200019N008000199+01401+00701999999ADDGF100991999999999999999999MA1101501999990REMMET061METAR EDHL 311250Z VRB03KT 8000 NSC 14/07 Q1015 RMK ATIS DEL=
0114101560999992014033113204+53805+010719FM-15+001699999V0209999V001512200019N008000199+01401+00701999999ADDGF100991999999999999999999MA1101501999990REMMET061METAR EDHL 311320Z VRB03KT 8000 NSC 14/07 Q1015 RMK ATIS ECH=
0131101560999992014033113504+53805+010719FM-15+001699999V0203001V002112200019N008000199+01501+00701999999ADDGF100991999999999999999999MA1101501999990REMMET078METAR COR EDHL 311350Z 30004KT 230V030 8000 NSC 15/07 Q1015 RMK ATIS      GOL=
0114101560999992014033114204+53805+010719FM-15+001699999V0209999V001512200019N008000199+01401+00601999999ADDGF100991999999999999999999MA1101501999990REMMET061METAR EDHL 311420Z VRB03KT 8000 NSC 14/06 Q1015 RMK ATIS HOT=
0114101560999992014033114504+53805+010719FM-15+001699999V0209999V001012200019N008000199+01401+00701999999ADDGF100991999999999999999999MA1101501999990REMMET061METAR EDHL 311450Z VRB02KT 8000 NSC 14/07 Q1015 RMK ATIS IND=
0122101560999992014033115204+53805+010719FM-15+001699999V0203201V001512200019N008000199+01301+00701999999ADDGF100991999999999999999999MA1101501999990REMMET069METAR EDHL 311520Z 32003KT 250V030 8000 NSC 13/07 Q1015 RMK ATIS JUL=
0114101560999992014033115504+53805+010719FM-15+001699999V0209999V001512200019N008000199+01401+00801999999ADDGF100991999999999999999999MA1101401999990REMMET061METAR EDHL 311550Z VRB03KT 8000 NSC 14/08 Q1014 RMK ATIS KIL=
0114101560999992014033116204+53805+010719FM-15+001699999V0209999V001512200019N008000199+01401+00701999999ADDGF100991999999999999999999MA1101401999990REMMET061METAR EDHL 311620Z VRB03KT 8000 NSC 14/07 Q1014 RMK ATIS LIM=
0114101560999992014033116504+53805+010719FM-15+001699999V0209999V001012200019N008000199+01301+00701999999ADDGF100991999999999999999999MA1101401999990REMMET061METAR EDHL 311650Z VRB02KT 8000 NSC 13/07 Q1014 RMK ATIS MIK=
0114101560999992014033117204+53805+010719FM-15+001699999V0200901N001512200019N007000199+01301+00701999999ADDGF100991999999999999999999MA1101401999990REMMET061METAR EDHL 311720Z 09003KT 7000 NSC 13/07 Q1014 RMK ATIS NOV=
0114101560999992014033117504+53805+010719FM-15+001699999V0200701N001012200019N006000199+01101+00701999999ADDGF100991999999999999999999MA1101401999990REMMET061METAR EDHL 311750Z 07002KT 6000 NSC 11/07 Q1014 RMK ATIS OSC=
0114101560999992014033118204+53805+010719FM-15+001699999V0200701N001012200019N005000199+00901+00601999999ADDGF100991999999999999999999MA1101401999990REMMET061METAR EDHL 311820Z 07002KT 5000 NSC 09/06 Q1014 RMK ATIS PAP=
0123101560999992014033118504+53805+010719FM-15+001699999V0209999V000512200019N004700199+00901+00701999999ADDGF100991999999999999999999MA1101501999990MW1101REMMET064METAR EDHL 311850Z VRB01KT 4700 BR NSC 09/07 Q1015 RMK ATIS QUE=
0123101560999992014033119204+53805+010719FM-15+001699999V0209999C000012200019N003500199+00701+00601999999ADDGF100991999999999999999999MA1101501999990MW1101REMMET064METAR EDHL 311920Z 00000KT 3500 BR NSC 07/06 Q1015 RMK ATIS ROM=
0123101560999992014033119504+53805+010719FM-15+001699999V0209999V000512200019N002300199+00701+00601999999ADDGF100991999999999999999999MA1101501999990MW1101REMMET064METAR EDHL 311950Z VRB01KT 2300 BR NSC 07/06 Q1015 RMK ATIS SIE=
0123101560999992014033120204+53805+010719FM-15+001699999V0209999C000012200019N002900199+00601+00601999999ADDGF100991999999999999999999MA1101401999990MW1101REMMET064METAR EDHL 312020Z 00000KT 2900 BR NSC 06/06 Q1014 RMK ATIS TAN=
0140101560999992014040104204+53805+010719FM-15+001699999V0200701N002119999999N000100199+00501+00501999999ADDGF109991999999999999999999MA1101401999990MW1441REMMET081METAR EDHL 010420Z 07004KT 0100 R07/0350N FG VV/// 05/05 Q1014 RMK      ATIS ALF=
0140101560999992014040104504+53805+010719FM-15+001699999V0200901N002119999999N000100199+00501+00501999999ADDGF109991999999999999999999MA1101401999990MW1441REMMET081METAR EDHL 010450Z 09004KT 0100 R07/0325N FG VV/// 05/05 Q1014 RMK      ATIS BRA=
0147101560999992014040105204+53805+010719FM-15+001699999V0200801V002619999999N000100199+00501+00501999999ADDGF109991999999999999999999MA1101401999990MW1441REMMET088METAR EDHL 010520Z 08005KT 050V120 0100 R07/0300 FG VV/// 05/05 Q1014      RMK ATIS CHA=
0140101560999992014040105504+53805+010719FM-15+001699999V0200801N002619999999N000150199+00501+00501999999ADDGF109991999999999999999999MA1101401999990MW1441REMMET081METAR EDHL 010550Z 08005KT 0150 R07/0325N FG VV/// 05/05 Q1014 RMK      ATIS DEL=
0148101560999992014040106204+53805+010719FM-15+001699999V0200901V002619999999N000150199+00501+00501999999ADDGF109991999999999999999999MA1101401999990MW1441REMMET089METAR EDHL 010620Z 09005KT 050V120 0150 R07/0350N FG VV/// 05/05 Q1014      RMK ATIS ECH=
0148101560999992014040106504+53805+010719FM-15+001699999V0200801V002619999999N000200199+00501+00501999999ADDGF109991999999999999999999MA1101401999990MW1441REMMET089METAR EDHL 010650Z 08005KT 060V120 0200 R07/0400N FG VV/// 05/05 Q1014      RMK ATIS FOX=
0139101560999992014040107204+53805+010719FM-15+001699999V0201001N002119999999N000350199+00501+00501999999ADDGF109991999999999999999999MA1101501999990MW1441REMMET080METAR EDHL 010720Z 10004KT 0350 R07/0750 FG VV/// 05/05 Q1015 RMK ATIS      GOL=
0179101560999992014040107504+53805+010719FM-15+001699999V0200701N003110003019N000450199+00501+00501999999ADDGA1081+000301991GE19MSL   +99999+99999GF199999081990000301991991MA1101501999990MW1441REMMET082METAR EDHL 010750Z 07006KT 0450 R07/0800N FG OVC001 05/05 Q1015 RMK      ATIS HOT=
0179101560999992014040108204+53805+010719FM-15+001699999V0200801N004610003019N000650199+00601+00601999999ADDGA1081+000301991GE19MSL   +99999+99999GF199999081990000301991991MA1101501999990MW1441REMMET082METAR EDHL 010820Z 08009KT 0650 R07/0900U FG OVC001 06/06 Q1015 RMK      ATIS IND=
0187101560999992014040108264+53805+010719FM-16+001699999V0200901V004110006119N001100199+00501+00501999999ADDGA1081+000611991GE19MSL   +99999+99999GF199999081990000611991991MA1101501999990MW1101REMMET090SPECI EDHL 010826Z 09008KT 070V130 1100 R07/1300U BR OVC002 05/05 Q1015      RMK ATIS JUL=
0187101560999992014040108284+53805+010719FM-16+001699999V0200901V003610006119N001100199+00501+00501999999ADDGA1071+000611991GE19MSL   +99999+99999GF199999071990000611991991MA1101501999990MW1101REMMET090SPECI EDHL 010828Z 09007KT 070V130 1100 R07/1300U BR BKN002 05/05 Q1015      RMK ATIS KIL=
0179101560999992014040108504+53805+010719FM-15+001699999V0200601N003610006119N001400199+00601+00601999999ADDGA1071+000611991GE19MSL   +99999+99999GF199999071990000611991991MA1101501999990MW1101REMMET082METAR EDHL 010850Z 06007KT 1400 R07/1500U BR BKN002 06/06 Q1015 RMK      ATIS LIM=
0164101560999992014040109204+53805+010719FM-15+001699999V0200801N003110006119N001500199+00601+00601999999ADDGA1071+000611991GE19MSL   +99999+99999GF199999071990000611991991MA1101501999990MW1101REMMET067METAR EDHL 010920Z 08006KT 1500 BR BKN002 06/06 Q1015 RMK ATIS MIK=
0177101560999992014040109484+53805+010719FM-16+001699999V0200801V003610009119N002000199+00601+00601999999ADDGA1071+000911991GE19MSL   +99999+99999GF199999071990000911991991MA1101501999990MW1101REMMET080SPECI EDHL 010948Z 08007KT 050V110 2000 BR BKN003 06/06 Q1015 RMK ATIS      QUE=
0181101560999992014040109504+53805+010719FM-15+001699999V0200801V003610009119N002000199+00601+00601999999ADDGA1071+000911991GE19MSL   +99999+99999GF199999071990000911991991MA1101501999990MW1101REMMET084METAR COR EDHL 010950Z 08007KT 050V110 2000 BR BKN003 06/06 Q1015 RMK      ATIS PAP=
0177101560999992014040110204+53805+010719FM-15+001699999V0200801V003610012219N002500199+00701+00601999999ADDGA1081+001221991GE19MSL   +99999+99999GF199999081990001221991991MA1101501999990MW1101REMMET080METAR EDHL 011020Z 08007KT 060V120 2500 BR OVC004 07/06 Q1015 RMK ATIS      ROM=
0164101560999992014040110504+53805+010719FM-15+001699999V0200801N004610012219N003000199+00701+00601999999ADDGA1071+001221991GE19MSL   +99999+99999GF199999071990001221991991MA1101501999990MW1101REMMET067METAR EDHL 011050Z 08009KT 3000 BR BKN004 07/06 Q1015 RMK ATIS SIE=
0177101560999992014040111204+53805+010719FM-15+001699999V0201001V003610018319N003500199+00701+00601999999ADDGA1071+001831991GE19MSL   +99999+99999GF199999071990001831991991MA1101501999990MW1101REMMET080METAR EDHL 011120Z 10007KT 060V130 3500 BR BKN006 07/06 Q1015 RMK ATIS      TAN=
0164101560999992014040111504+53805+010719FM-15+001699999V0200801N004610018319N004000199+00701+00601999999ADDGA1071+001831991GE19MSL   +99999+99999GF199999071990001831991991MA1101501999990MW1101REMMET067METAR EDHL 011150Z 08009KT 4000 BR BKN006 07/06 Q1015 RMK ATIS UNI=
0164101560999992014040112204+53805+010719FM-15+001699999V0201001N004110024419N004800199+00801+00601999999ADDGA1071+002441991GE19MSL   +99999+99999GF199999071990002441991991MA1101501999990MW1101REMMET067METAR EDHL 011220Z 10008KT 4800 BR BKN008 08/06 Q1015 RMK ATIS VIC=
0164101560999992014040112504+53805+010719FM-15+001699999V0201001N004110021319N005000199+00801+00601999999ADDGA1071+002131991GE19MSL   +99999+99999GF199999071990002131991991MA1101401999990MW1101REMMET067METAR EDHL 011250Z 10008KT 5000 BR BKN007 08/06 Q1014 RMK ATIS WHI=
0177101560999992014040113204+53805+010719FM-15+001699999V0200901V004110021319N005000199+00701+00601999999ADDGA1071+002131991GE19MSL   +99999+99999GF199999071990002131991991MA1101401999990MW1101REMMET080METAR EDHL 011320Z 09008KT 080V140 5000 BR BKN007 07/06 Q1014 RMK ATIS      X-R=
0168101560999992014040113504+53805+010719FM-15+001699999V0201001V004110030519N006000199+00801+00601999999ADDGA1071+003051991GE19MSL   +99999+99999GF199999071990003051991991MA1101401999990REMMET077METAR EDHL 011350Z 10008KT 080V150 6000 BKN010 08/06 Q1014 RMK ATIS      YAN=
0155101560999992014040114204+53805+010719FM-15+001699999V0200901N004110033519N007000199+00801+00601999999ADDGA1071+003351991GE19MSL   +99999+99999GF199999071990003351991991MA1101401999990REMMET064METAR EDHL 011420Z 09008KT 7000 BKN011 08/06 Q1014 RMK ATIS ZUL=
0155101560999992014040114504+53805+010719FM-15+001699999V0200901N003610036619N009000199+00901+00601999999ADDGA1071+003661991GE19MSL   +99999+99999GF199999071990003661991991MA1101401999990REMMET064METAR EDHL 011450Z 09007KT 9000 BKN012 09/06 Q1014 RMK ATIS ALF=
0155101560999992014040115204+53805+010719FM-15+001699999V0200801N004610042719N009000199+00801+00601999999ADDGA1071+004271991GE19MSL   +99999+99999GF199999071990004271991991MA1101401999990REMMET064METAR EDHL 011520Z 08009KT 9000 BKN014 08/06 Q1014 RMK ATIS BRA=
0191101560999992014040115504+53805+010719FM-15+001699999V0200801V004610289619N009999199+00801+00501999999ADDGA1021+004571991GA2071+028961991GE19MSL   +99999+99999GF199999021990004571991991MA1101401999990REMMET084METAR EDHL 011550Z 08009KT 060V120 9999 FEW015 BKN095 08/05 Q1014 RMK      ATIS CHA=
0085101560999992014040116204+53805+010719FM-15+001699999V0200801N004619999999Y999999999+00801+00501999999ADDMA1101401999990REMMET058METAR EDHL 011620Z 08009KT CAVOK 08/05 Q1014 RMK ATIS DEL=
0085101560999992014040116504+53805+010719FM-15+001699999V0200901N003119999999Y999999999+00801+00501999999ADDMA1101301999990REMMET058METAR EDHL 011650Z 09006KT CAVOK 08/05 Q1013 RMK ATIS ECH=
0085101560999992014040117204+53805+010719FM-15+001699999V0200901N003119999999Y999999999+00801+00501999999ADDMA1101301999990REMMET058METAR EDHL 011720Z 09006KT CAVOK 08/05 Q1013 RMK ATIS FOX=
0093101560999992014040117504+53805+010719FM-15+001699999V0200901V003619999999Y999999999+00801+00501999999ADDMA1101301999990REMMET066METAR EDHL 011750Z 09007KT 060V120 CAVOK 08/05 Q1013 RMK ATIS GOL=
0085101560999992014040118204+53805+010719FM-15+001699999V0200901N004619999999Y999999999+00701+00501999999ADDMA1101301999990REMMET058METAR EDHL 011820Z 09009KT CAVOK 07/05 Q1013 RMK ATIS HOT=
0114101560999992014040118504+53805+010719FM-15+001699999V0201001N004112200019N009000199+00701+00401999999ADDGF100991999999999999999999MA1101401999990REMMET061METAR EDHL 011850Z 10008KT 9000 NSC 07/04 Q1014 RMK ATIS IND=
0114101560999992014040119204+53805+010719FM-15+001699999V0200901N004112200019N007000199+00601+00401999999ADDGF100991999999999999999999MA1101401999990REMMET061METAR EDHL 011920Z 09008KT 7000 NSC 06/04 Q1014 RMK ATIS JUL=
0183101560999992014040119504+53805+010719FM-15+001699999V0200901N003110365819N007000199+00601+00401999999ADDGA1041+003051991GA2071+036581991GE19MSL   +99999+99999GF199999041990003051991991MA1101401999990REMMET076METAR EDHL 011950Z 09006KT 7000 SCT010 BKN120 06/04 Q1014 RMK ATIS      KIL=
0123101560999992014040204504+53805+010719FM-15+001699999V0201301N002112200019N002800199+00401+00401999999ADDGF100991999999999999999999MA1101101999990MW1101REMMET064METAR EDHL 020450Z 13004KT 2800 BR NSC 04/04 Q1011 RMK ATIS ALF=
0136101560999992014040205204+53805+010719FM-15+001699999V0201301V003112200019N004500199+00501+00401999999ADDGF100991999999999999999999MA1101101999990MW1101REMMET077METAR EDHL 020520Z 13006KT 090V160 4500 BR NSC 05/04 Q1011 RMK ATIS      BRA=
0123101560999992014040205504+53805+010719FM-15+001699999V0201301N003112200019N005000199+00501+00401999999ADDGF100991999999999999999999MA1101101999990MW1101REMMET064METAR EDHL 020550Z 13006KT 5000 BR NSC 05/04 Q1011 RMK ATIS CHA=
0122101560999992014040206204+53805+010719FM-15+001699999V0201401V002612200019N007000199+00601+00401999999ADDGF100991999999999999999999MA1101101999990REMMET069METAR EDHL 020620Z 14005KT 090V180 7000 NSC 06/04 Q1011 RMK ATIS DEL=
0122101560999992014040206504+53805+010719FM-15+001699999V0201401V004112200019N007000199+00701+00401999999ADDGF100991999999999999999999MA1101101999990REMMET069METAR EDHL 020650Z 14008KT 110V180 7000 NSC 07/04 Q1011 RMK ATIS ECH=
0122101560999992014040207204+53805+010719FM-15+001699999V0201401V003112200019N007000199+00701+00501999999ADDGF100991999999999999999999MA1101101999990REMMET069METAR EDHL 020720Z 14006KT 100V180 7000 NSC 07/05 Q1011 RMK ATIS FOX=
0122101560999992014040207504+53805+010719FM-15+001699999V0201401V003612200019N007000199+00801+00501999999ADDGF100991999999999999999999MA1101101999990REMMET069METAR EDHL 020750Z 14007KT 100V170 7000 NSC 08/05 Q1011 RMK ATIS GOL=
0122101560999992014040208204+53805+010719FM-15+001699999V0201501V003612200019N007000199+00901+00601999999ADDGF100991999999999999999999MA1101001999990REMMET069METAR EDHL 020820Z 15007KT 100V200 7000 NSC 09/06 Q1010 RMK ATIS HOT=
0122101560999992014040208504+53805+010719FM-15+001699999V0201501V003112200019N009000199+00901+00501999999ADDGF100991999999999999999999MA1101001999990REMMET069METAR EDHL 020850Z 15006KT 110V200 9000 NSC 09/05 Q1010 RMK ATIS IND=
0122101560999992014040209204+53805+010719FM-15+001699999V0201401V003112200019N008000199+01001+00601999999ADDGF100991999999999999999999MA1101001999990REMMET069METAR EDHL 020920Z 14006KT 110V180 8000 NSC 10/06 Q1010 RMK ATIS JUL=
0122101560999992014040209504+53805+010719FM-15+001699999V0201501V002612200019N009000199+01201+00701999999ADDGF100991999999999999999999MA1101001999990REMMET069METAR EDHL 020950Z 15005KT 090V210 9000 NSC 12/07 Q1010 RMK ATIS KIL=
0122101560999992014040210204+53805+010719FM-15+001699999V0201401V002612200019N008000199+01201+00601999999ADDGF100991999999999999999999MA1101001999990REMMET069METAR EDHL 021020Z 14005KT 090V190 8000 NSC 12/06 Q1010 RMK ATIS LIM=
0093101560999992014040210504+53805+010719FM-15+001699999V0201401V003119999999Y999999999+01201+00701999999ADDMA1100901999990REMMET066METAR EDHL 021050Z 14006KT 090V180 CAVOK 12/07 Q1009 RMK ATIS MIK=
0093101560999992014040211204+53805+010719FM-15+001699999V0201401V003619999999Y999999999+01301+00701999999ADDMA1100901999990REMMET066METAR EDHL 021120Z 14007KT 100V180 CAVOK 13/07 Q1009 RMK ATIS NOV=
0093101560999992014040211504+53805+010719FM-15+001699999V0201401V003119999999Y999999999+01401+00701999999ADDMA1100901999990REMMET066METAR EDHL 021150Z 14006KT 100V200 CAVOK 14/07 Q1009 RMK ATIS OSC=
0093101560999992014040212204+53805+010719FM-15+001699999V0201601V004119999999Y999999999+01501+00701999999ADDMA1100801999990REMMET066METAR EDHL 021220Z 16008KT 110V200 CAVOK 15/07 Q1008 RMK ATIS PAP=
0093101560999992014040212504+53805+010719FM-15+001699999V0201401V003119999999Y999999999+01701+00801999999ADDMA1100801999990REMMET066METAR EDHL 021250Z 14006KT 090V200 CAVOK 17/08 Q1008 RMK ATIS QUE=
0093101560999992014040213204+53805+010719FM-15+001699999V0201401V003619999999Y999999999+01801+00801999999ADDMA1100701999990REMMET066METAR EDHL 021320Z 14007KT 090V180 CAVOK 18/08 Q1007 RMK ATIS ROM=
0085101560999992014040213504+53805+010719FM-15+001699999V0209999V002619999999Y999999999+01801+00701999999ADDMA1100701999990REMMET058METAR EDHL 021350Z VRB05KT CAVOK 18/07 Q1007 RMK ATIS SIE=
0093101560999992014040214204+53805+010719FM-15+001699999V0201401V003119999999Y999999999+01801+00801999999ADDMA1100701999990REMMET066METAR EDHL 021420Z 14006KT 100V180 CAVOK 18/08 Q1007 RMK ATIS TAN=
0093101560999992014040214504+53805+010719FM-15+001699999V0201501V002619999999Y999999999+01801+00701999999ADDMA1100701999990REMMET066METAR EDHL 021450Z 15005KT 090V210 CAVOK 18/07 Q1007 RMK ATIS UNI=
0093101560999992014040215204+53805+010719FM-15+001699999V0201401V003119999999Y999999999+01801+00801999999ADDMA1100701999990REMMET066METAR EDHL 021520Z 14006KT 110V170 CAVOK 18/08 Q1007 RMK ATIS VIC=
0093101560999992014040215504+53805+010719FM-15+001699999V0201501V002119999999Y999999999+01801+00801999999ADDMA1100601999990REMMET066METAR EDHL 021550Z 15004KT 080V200 CAVOK 18/08 Q1006 RMK ATIS WHI=
0085101560999992014040216204+53805+010719FM-15+001699999V0201501N002619999999Y999999999+01801+00801999999ADDMA1100601999990REMMET058METAR EDHL 021620Z 15005KT CAVOK 18/08 Q1006 RMK ATIS X-R=
0093101560999992014040216504+53805+010719FM-15+001699999V0201401V001519999999Y999999999+01701+00901999999ADDMA1100601999990REMMET066METAR EDHL 021650Z 14003KT 110V170 CAVOK 17/09 Q1006 RMK ATIS YAN=
0085101560999992014040217204+53805+010719FM-15+001699999V0209999V001019999999Y999999999+01701+00801999999ADDMA1100601999990REMMET058METAR EDHL 021720Z VRB02KT CAVOK 17/08 Q1006 RMK ATIS ZUL=
0085101560999992014040217504+53805+010719FM-15+001699999V0209999V000519999999Y999999999+01501+00801999999ADDMA1100601999990REMMET058METAR EDHL 021750Z VRB01KT CAVOK 15/08 Q1006 RMK ATIS ALF=
0114101560999992014040218204+53805+010719FM-15+001699999V0200601N001512200019N009000199+01301+00801999999ADDGF100991999999999999999999MA1100601999990REMMET061METAR EDHL 021820Z 06003KT 9000 NSC 13/08 Q1006 RMK ATIS BRA=
0114101560999992014040218504+53805+010719FM-15+001699999V0200401N001012200019N008000199+01101+00701999999ADDGF100991999999999999999999MA1100601999990REMMET061METAR EDHL 021850Z 04002KT 8000 NSC 11/07 Q1006 RMK ATIS CHA=
0114101560999992014040219204+53805+010719FM-15+001699999V0200801N001012200019N007000199+01101+00701999999ADDGF100991999999999999999999MA1100601999990REMMET061METAR EDHL 021920Z 08002KT 7000 NSC 11/07 Q1006 RMK ATIS DEL=
0114101560999992014040219504+53805+010719FM-15+001699999V0200801N001012200019N006000199+01101+00801999999ADDGF100991999999999999999999MA1100601999990REMMET061METAR EDHL 021950Z 08002KT 6000 NSC 11/08 Q1006 RMK ATIS ECH=
0114101560999992014040220204+53805+010719FM-15+001699999V0200801N001012200019N006000199+00901+00701999999ADDGF100991999999999999999999MA1100601999990REMMET061METAR EDHL 022020Z 08002KT 6000 NSC 09/07 Q1006 RMK ATIS FOX=
0114101560999992014040220504+53805+010719FM-15+001699999V0200501N001512200019N006000199+01001+00801999999ADDGF100991999999999999999999MA1100601999990REMMET061METAR EDHL 022050Z 05003KT 6000 NSC 10/08 Q1006 RMK ATIS GOL=
0114101560999992014040221204+53805+010719FM-15+001699999V0200501N001512200019N006000199+00901+00701999999ADDGF100991999999999999999999MA1100601999990REMMET061METAR EDHL 022120Z 05003KT 6000 NSC 09/07 Q1006 RMK ATIS HOT=
0114101560999992014040221504+53805+010719FM-15+001699999V0200501N001512200019N006000199+00801+00601999999ADDGF100991999999999999999999MA1100601999990REMMET061METAR EDHL 022150Z 05003KT 6000 NSC 08/06 Q1006 RMK ATIS IND=
0164101560999992014040304504+53805+010719FM-15+001699999V0200201N001510015219N003000199+00401+00401999999ADDGA1071+001521991GE19MSL   +99999+99999GF199999071990001521991991MA1100501999990MW1101REMMET067METAR EDHL 030450Z 02003KT 3000 BR BKN005 04/04 Q1005 RMK ATIS ALF=
0164101560999992014040305204+53805+010719FM-15+001699999V0200201N001019999999N003300199+00301+00301999999ADDGA1041+001221991GE19MSL   +99999+99999GF199999041990001221991991MA1100501999990MW1101REMMET067METAR EDHL 030520Z 02002KT 3300 BR SCT004 03/03 Q1005 RMK ATIS BRA=
0164101560999992014040305504+53805+010719FM-15+001699999V0209999V001019999999N003800199+00401+00301999999ADDGA1041+001521991GE19MSL   +99999+99999GF199999041990001521991991MA1100601999990MW1101REMMET067METAR EDHL 030550Z VRB02KT 3800 BR SCT005 04/03 Q1006 RMK ATIS CHA=
0164101560999992014040306204+53805+010719FM-15+001699999V0200401N002110015219N004700199+00501+00501999999ADDGA1071+001521991GE19MSL   +99999+99999GF199999071990001521991991MA1100601999990MW1101REMMET067METAR EDHL 030620Z 04004KT 4700 BR BKN005 05/05 Q1006 RMK ATIS DEL=
0164101560999992014040306504+53805+010719FM-15+001699999V0200401N004110012219N003000199+00501+00501999999ADDGA1071+001221991GE19MSL   +99999+99999GF199999071990001221991991MA1100601999990MW1101REMMET067METAR EDHL 030650Z 04008KT 3000 BR BKN004 05/05 Q1006 RMK ATIS ECH=
0164101560999992014040307204+53805+010719FM-15+001699999V0200501N005110012219N004000199+00601+00501999999ADDGA1071+001221991GE19MSL   +99999+99999GF199999071990001221991991MA1100601999990MW1101REMMET067METAR EDHL 030720Z 05010KT 4000 BR BKN004 06/05 Q1006 RMK ATIS FOX=
0155101560999992014040307504+53805+010719FM-15+001699999V0200401N004610021319N006000199+00601+00501999999ADDGA1071+002131991GE19MSL   +99999+99999GF199999071990002131991991MA1100701999990REMMET064METAR EDHL 030750Z 04009KT 6000 BKN007 06/05 Q1007 RMK ATIS GOL=
0155101560999992014040308084+53805+010719FM-16+001699999V0200401N005119999999N007000199+00801+00601999999ADDGA1021+003661991GE19MSL   +99999+99999GF199999021990003661991991MA1100701999990REMMET064SPECI EDHL 030808Z 04010KT 7000 FEW012 08/06 Q1007 RMK ATIS HOT=
0155101560999992014040308204+53805+010719FM-15+001699999V0200401N004619999999N007000199+00801+00501999999ADDGA1021+003661991GE19MSL   +99999+99999GF199999021990003661991991MA1100701999990REMMET064METAR EDHL 030820Z 04009KT 7000 FEW012 08/05 Q1007 RMK ATIS IND=
0114101560999992014040308504+53805+010719FM-15+001699999V0200301N005712200019N008000199+00801+00601999999ADDGF100991999999999999999999MA1100601999990REMMET061METAR EDHL 030850Z 03011KT 8000 NSC 08/06 Q1006 RMK ATIS JUL=
0114101560999992014040309204+53805+010719FM-15+001699999V0200301N004612200019N008000199+00801+00501999999ADDGF100991999999999999999999MA1100701999990REMMET061METAR EDHL 030920Z 03009KT 8000 NSC 08/05 Q1007 RMK ATIS KIL=
0114101560999992014040309504+53805+010719FM-15+001699999V0200301N004612200019N009000199+00901+00501999999ADDGF100991999999999999999999MA1100701999990REMMET061METAR EDHL 030950Z 03009KT 9000 NSC 09/05 Q1007 RMK ATIS LIM=
0085101560999992014040310204+53805+010719FM-15+001699999V0200301N005719999999Y999999999+01001+00501999999ADDMA1100701999990REMMET058METAR EDHL 031020Z 03011KT CAVOK 10/05 Q1007 RMK ATIS MIK=
