0155101560999992015010108504+53805+010719FM-15+001699999V0202501N005710039619N006000199+00401+00201999999ADDGA1071+003961999GE19MSL   +99999+99999GF199999071999003961999999MA1103001999999REMMET064METAR EDHL 010850Z 25011KT 6000 BKN013 04/02 Q1030 RMK ATIS ALF=
0155101560999992015010109204+53805+010719FM-15+001699999V0202401N005710045719N007000199+00401+00201999999ADDGA1071+004571999GE19MSL   +99999+99999GF199999071999004571999999MA1103001999999REMMET064METAR EDHL 010920Z 24011KT 7000 BKN015 04/02 Q1030 RMK ATIS BRA=
0155101560999992015010109504+53805+010719FM-15+001699999V0202401N006210057919N008000199+00401+00201999999ADDGA1071+005791999GE19MSL   +99999+99999GF199999071999005791999999MA1103001999999REMMET064METAR EDHL 010950Z 24012KT 8000 BKN019 04/02 Q1030 RMK ATIS CHA=
0155101560999992015010110204+53805+010719FM-15+001699999V0202401N006710045719N007000199+00401+00201999999ADDGA1071+004571999GE19MSL   +99999+99999GF199999071999004571999999MA1102901999999REMMET064METAR EDHL 011020Z 24013KT 7000 BKN015 04/02 Q1029 RMK ATIS DEL=
0155101560999992015010110504+53805+010719FM-15+001699999V0202401N007710039619N008000199+00401+00201999999ADDGA1071+003961999GE19MSL   +99999+99999GF199999071999003961999999MA1102901999999REMMET064METAR EDHL 011050Z 24015KT 8000 BKN013 04/02 Q1029 RMK ATIS ECH=
0155101560999992015010111204+53805+010719FM-15+001699999V0202401N007210039619N009000199+00401+00201999999ADDGA1071+003961999GE19MSL   +99999+99999GF199999071999003961999999MA1102801999999REMMET064METAR EDHL 011120Z 24014KT 9000 BKN013 04/02 Q1028 RMK ATIS FOX=
0155101560999992015010111504+53805+010719FM-15+001699999V0202401N007710048819N009000199+00401+00201999999ADDGA1071+004881999GE19MSL   +99999+99999GF199999071999004881999999MA1102801999999REMMET064METAR EDHL 011150Z 24015KT 9000 BKN016 04/02 Q1028 RMK ATIS GOL=
0183101560999992015010112204+53805+010719FM-15+001699999V0202301N00621036581CN009999199+00501+00201999999ADDGA1021+006101999GA2041+036581999GE19MSL   +99999+99999GF199999021999006101999999MA1102801999999REMMET076METAR EDHL 011220Z 23012KT 9999 FEW020 SCT120 05/02 Q1028 RMK ATIS      HOT=
0085101560999992015010112504+53805+010719FM-15+001699999V0202401N005119999999Y999999999+00501+00201999999ADDMA1102801999999REMMET058METAR EDHL 011250Z 24010KT CAVOK 05/02 Q1028 RMK ATIS IND=
0085101560999992015010113204+53805+010719FM-15+001699999V0202501N005119999999Y999999999+00501+00101999999ADDMA1102801999999REMMET058METAR EDHL 011320Z 25010KT CAVOK 05/01 Q1028 RMK ATIS JUL=
0093101560999992015010113504+53805+010719FM-15+001699999V0202601V005719999999Y999999999+00401+00101999999ADDMA1102801999999REMMET066METAR EDHL 011350Z 26011KT 230V300 CAVOK 04/01 Q1028 RMK ATIS KIL=
0183101560999992015010114204+53805+010719FM-15+001699999V0202301N004610426719N009999199+00401+00101999999ADDGA1041+006401999GA2071+042671999GE19MSL   +99999+99999GF199999041999006401999999MA1102701999999REMMET076METAR EDHL 011420Z 23009KT 9999 SCT021 BKN140 04/01 Q1027 RMK ATIS      LIM=
0165101560999992015010114504+53805+010719FM-15+001699999V0202401N005110426719N009999199+00401+00101999999ADDGA1041+006101999GA2071+042671999GE19MSL   +99999+99999GF199999041999006101999999MA1102701999999REMMET058METAR EDHL 011450Z 24010KT 9999 SCT020 BKN140 04/01 Q1027=
0085101560999992015010115204+53805+010719FM-15+001699999V0202301N004619999999Y999999999+00401+00101999999ADDMA1102601999999REMMET058METAR EDHL 011520Z 23009KT CAVOK 04/01 Q1026 RMK ATIS NOV=
0085101560999992015010115504+53805+010719FM-15+001699999V0202301N006219999999Y999999999+00401+00101999999ADDMA1102601999999REMMET058METAR EDHL 011550Z 23012KT CAVOK 04/01 Q1026 RMK ATIS OSC=
0085101560999992015010116204+53805+010719FM-15+001699999V0202201N004619999999Y999999999+00401+00101999999ADDMA1102601999999REMMET058METAR EDHL 011620Z 22009KT CAVOK 04/01 Q1026 RMK ATIS PAP=
0093101560999992015010116504+53805+010719FM-15+001699999V0202301V005119999999Y999999999+00401+00001999999ADDMA1102601999999REMMET066METAR EDHL 011650Z 23010KT 190V260 CAVOK 04/00 Q1026 RMK ATIS QUE=
0155101560999992015010117204+53805+010719FM-15+001699999V0202401N005710048819N009999199+00401+00001999999ADDGA1071+004881999GE19MSL   +99999+99999GF199999071999004881999999MA1102501999999REMMET064METAR EDHL 011720Z 24011KT 9999 BKN016 04/00 Q1025 RMK ATIS ROM=
0155101560999992015010117504+53805+010719FM-15+001699999V0202301N005110045719N009999199+00401+00101999999ADDGA1071+004571999GE19MSL   +99999+99999GF199999071999004571999999MA1102501999999REMMET064METAR EDHL 011750Z 23010KT 9999 BKN015 04/01 Q1025 RMK ATIS SIE=
0155101560999992015010118204+53805+010719FM-15+001699999V0202201N006210045719N009999199+00401+00101999999ADDGA1071+004571999GE19MSL   +99999+99999GF199999071999004571999999MA1102401999999REMMET064METAR EDHL 011820Z 22012KT 9999 BKN015 04/01 Q1024 RMK ATIS TAN=
0085101560999992015010118504+53805+010719FM-15+001699999V0202301N006219999999Y999999999+00401+00001999999ADDMA1102401999999REMMET058METAR EDHL 011850Z 23012KT CAVOK 04/00 Q1024 RMK ATIS UNI=
0086101560999992015010119204+53805+010719FM-15+001699999V0202201N005719999999Y999999999+00401+00001999999ADDMA1102301999999REMMET059METAR EDHL 011920Z 22011KT CAVOK 04/M00 Q1023 RMK ATIS VIC=
0086101560999992015010119504+53805+010719FM-15+001699999V0202301N005719999999Y999999999+00401+00001999999ADDMA1102301999999REMMET059METAR EDHL 011950Z 23011KT CAVOK 04/M00 Q1023 RMK ATIS WHI=
0086101560999992015010120204+53805+010719FM-15+001699999V0202201N006719999999Y999999999+00401+00001999999ADDMA1102201999999REMMET059METAR EDHL 012020Z 22013KT CAVOK 04/M00 Q1022 RMK ATIS X-R=
0086101560999992015010120504+53805+010719FM-15+001699999V0202301N006719999999Y999999999+00401+00001999999ADDMA1102101999999REMMET059METAR EDHL 012050Z 23013KT CAVOK 04/M00 Q1021 RMK ATIS YAN=
0165101560999992015010205504+53805+010719FM-15+001699999V0202401N009810021319N009000199+00601+00501999999ADDGA1081+002131999GE19MSL   +99999+99999GF199999081999002131999999MA1101101999999MW1611REMMET068METAR EDHL 020550Z 24019KT 9000 -RA OVC007 06/05 Q1011 RMK ATIS ALF=
0165101560999992015010206204+53805+010719FM-15+001699999V0202401N009310021319N004000199+00601+00501999999ADDGA1081+002131999GE19MSL   +99999+99999GF199999081999002131999999MA1101101999999MW1611REMMET068METAR EDHL 020620Z 24018KT 4000 -RA OVC007 06/05 Q1011 RMK ATIS BRA=
0165101560999992015010206504+53805+010719FM-15+001699999V0202401N010310021319N005000199+00601+00601999999ADDGA1081+002131999GE19MSL   +99999+99999GF199999081999002131999999MA1101001999999MW1511REMMET068METAR EDHL 020650Z 24020KT 5000 -DZ OVC007 06/06 Q1010 RMK ATIS CHA=
0155101560999992015010207204+53805+010719FM-15+001699999V0202401N008810024419N008000199+00701+00601999999ADDGA1081+002441999GE19MSL   +99999+99999GF199999081999002441999999MA1101001999999REMMET064METAR EDHL 020720Z 24017KT 8000 OVC008 07/06 Q1010 RMK ATIS DEL=
0165101560999992015010207504+53805+010719FM-15+001699999V0202501N011310027419N006000199+00701+00601999999ADDGA1081+002741999GE19MSL   +99999+99999GF199999081999002741999999MA1101001999999MW1611REMMET068METAR EDHL 020750Z 25022KT 6000 -RA OVC009 07/06 Q1010 RMK ATIS ECH=
0155101560999992015010208204+53805+010719FM-15+001699999V0202501N011310033519N009999199+00801+00601999999ADDGA1071+003351999GE19MSL   +99999+99999GF199999071999003351999999MA1101001999999REMMET064METAR EDHL 020820Z 25022KT 9999 BKN011 08/06 Q1010 RMK ATIS FOX=
0194101560999992015010208504+53805+010719FM-15+001699999V0202601N010310073219N009999199+00801+00601999999ADDGA1041+003661999GA2071+007321999GE19MSL   +99999+99999GF199999041999003661999999MA1101101999999OC101541REMMET079METAR EDHL 020850Z 26020G30KT 9999 SCT012 BKN024 08/06 Q1011 RMK ATIS      GOL=
0194101560999992015010209204+53805+010719FM-15+001699999V0202601N009810045719N009999199+00901+00601999999ADDGA1071+004571999GA2071+007321999GE19MSL   +99999+99999GF199999071999004571999999MA1101101999999OC101701REMMET079METAR EDHL 020920Z 26019G33KT 9999 BKN015 BKN024 09/06 Q1011 RMK ATIS      HOT=
0179101560999992015010209504+53805+010719FM-15+001699999V0202601V008819999999N009999199+00901+00601999999ADDGA1071+999999999GE19MSL   +99999+99999GF199999071999999999999999MA1101101999999OC101441REMMET080METAR EDHL 020950Z 26017G28KT 230V310 9999 BKN917 09/06 Q1011 RMK ATIS      IND=
0179101560999992015010210204+53805+010719FM-15+001699999V0202801V009310082319N009999199+00901+00401999999ADDGA1071+008231999GE19MSL   +99999+99999GF199999071999008231999999MA1101201999999OC101651REMMET080METAR EDHL 021020Z 28018G32KT 240V310 9999 BKN027 09/04 Q1012 RMK ATIS      KIL=
0179101560999992015010210504+53805+010719FM-15+001699999V0202801V008210085319N009999199+00901+00401999999ADDGA1071+008531999GE19MSL   +99999+99999GF199999071999008531999999MA1101301999999OC101491REMMET080METAR EDHL 021050Z 28016G29KT 240V310 9999 BKN028 09/04 Q1013 RMK ATIS      LIM=
0179101560999992015010211204+53805+010719FM-15+001699999V0202801V008210118919N009999199+00801+00301999999ADDGA1071+011891999GE19MSL   +99999+99999GF199999071999011891999999MA1101301999999OC101701REMMET080METAR EDHL 021120Z 28016G33KT 240V330 9999 BKN039 08/03 Q1013 RMK ATIS      MIK=
0189101560999992015010211504+53805+010719FM-15+001699999V0202801V007710091419N009999199+00801+00301999999ADDGA1071+009141999GE19MSL   +99999+99999GF199999071999009141999999MA1101301999999MW1611OC101541REMMET084METAR EDHL 021150Z 28015G30KT 250V310 9999 -RA BKN030 08/03 Q1013 RMK      ATIS NOV=
0189101560999992015010212204+53805+010719FM-15+001699999V0202801V007210088419N009999199+00801+00301999999ADDGA1071+008841999GE19MSL   +99999+99999GF199999071999008841999999MA1101401999999MW1511OC101391REMMET084METAR EDHL 021220Z 28014G27KT 250V320 9999 -DZ BKN029 08/03 Q1014 RMK      ATIS OSC=
0179101560999992015010212504+53805+010719FM-15+001699999V0202801V009310085319N009999199+00801+00201999999ADDGA1071+008531999GE19MSL   +99999+99999GF199999071999008531999999MA1101401999999OC101851REMMET080METAR EDHL 021250Z 28018G36KT 230V310 9999 BKN028 08/02 Q1014 RMK ATIS      PAP=
0216101560999992015010213204+53805+010719FM-15+001699999V0202701V007710091419N009999199+00701+00201999999ADDGA1021+007321091GA2071+009141999GE19MSL   +99999+99999GF199999021999007321999999MA1101401999999MW1801OC101341REMMET095METAR EDHL 021320Z 27015G26KT 250V310 9999 -SHRA FEW024CB BKN030 07/02      Q1014 RMK ATIS QUE=
0204101560999992015010213504+53805+010719FM-15+001699999V0202801V00621014941CN009999199+00701+00201999999ADDGA1041+009141091GA2041+014941999GE19MSL   +99999+99999GF199999041999009141999999MA1101501999999MW1161REMMET091METAR EDHL 021350Z 28012KT 250V340 9999 VCSH SCT030CB SCT049 07/02      Q1015 RMK ATIS ROM=
0202101560999992015010214204+53805+010719FM-15+001699999V0202801V00671014941CN009999199+00701+00201999999ADDGA1021+011281999GA2041+014941999GE19MSL   +99999+99999GF199999021999011281999999MA1101501999999OC101241REMMET087METAR EDHL 021420Z 28013G24KT 230V320 9999 FEW037 SCT049 07/02 Q1015      RMK ATIS SIE=
0215101560999992015010214504+53805+010719FM-15+001699999V0202701V00771015241CN009999199+00701+00201999999ADDGA1041+010361091GA2041+015241999GE19MSL   +99999+99999GF199999041999010361999999MA1101601999999MW1161OC101341REMMET094METAR EDHL 021450Z 27015G26KT 240V300 9999 VCSH SCT034CB SCT050 07/02      Q1016 RMK ATIS TAN=
0215101560999992015010215204+53805+010719FM-15+001699999V0202701V00821015851CN009999199+00701+00201999999ADDGA1041+011281091GA2041+015851999GE19MSL   +99999+99999GF199999041999011281999999MA1101601999999MW1161OC101341REMMET094METAR EDHL 021520Z 27016G26KT 240V300 9999 VCSH SCT037CB SCT052 07/02      Q1016 RMK ATIS UNI=
0204101560999992015010215504+53805+010719FM-15+001699999V0202701V00771014941CN009999199+00701+00201999999ADDGA1041+007921091GA2041+014941999GE19MSL   +99999+99999GF199999041999007921999999MA1101601999999MW1161REMMET091METAR EDHL 021550Z 27015KT 240V300 9999 VCSH SCT026CB SCT049 07/02      Q1016 RMK ATIS VIC=
0202101560999992015010216204+53805+010719FM-15+001699999V0202701V00671010971CN009999199+00701+00201999999ADDGA1041+006711999GA2041+010971999GE19MSL   +99999+99999GF199999041999006711999999MA1101701999999OC101291REMMET087METAR EDHL 021620Z 27013G25KT 230V320 9999 SCT022 SCT036 07/02 Q1017      RMK ATIS WHI=
0202101560999992015010216504+53805+010719FM-15+001699999V0202701V00881015241CN009999199+00701+00201999999ADDGA1041+007921999GA2041+015241999GE19MSL   +99999+99999GF199999041999007921999999MA1101701999999OC101391REMMET087METAR EDHL 021650Z 27017G27KT 240V310 9999 SCT026 SCT050 07/02 Q1017      RMK ATIS X-R=
0179101560999992015010217204+53805+010719FM-15+001699999V0202701V007219999999N009999199+00601+00201999999ADDGA1041+007621999GE19MSL   +99999+99999GF199999041999007621999999MA1101701999999OC101241REMMET080METAR EDHL 021720Z 27014G24KT 240V320 9999 SCT025 06/02 Q1017 RMK ATIS      YAN=
0179101560999992015010217504+53805+010719FM-15+001699999V0202701V007219999999N009999199+00601+00201999999ADDGA1041+006101999GE19MSL   +99999+99999GF199999041999006101999999MA1101801999999OC101441REMMET080METAR EDHL 021750Z 27014G28KT 240V340 9999 SCT020 06/02 Q1018 RMK ATIS      ZUL=
0142101560999992015010218204+53805+010719FM-15+001699999V0202601N007719999999N009999199+00601+00301999999ADDGA1041+006711999GE19MSL   +99999+99999GF199999041999006711999999MA1101801999999REMMET051METAR EDHL 021820Z 26015KT 9999 SCT022 06/03 Q1018=
0179101560999992015010218504+53805+010719FM-15+001699999V0202701V006219999999N009999199+00601+00201999999ADDGA1041+008231999GE19MSL   +99999+99999GF199999041999008231999999MA1101801999999OC101341REMMET080METAR EDHL 021850Z 27012G26KT 240V300 9999 SCT027 06/02 Q1018 RMK ATIS      BRA=
0166101560999992015010219204+53805+010719FM-15+001699999V0202601N007719999999N009999199+00601+00201999999ADDGA1021+007621999GE19MSL   +99999+99999GF199999021999007621999999MA1101801999999OC101291REMMET067METAR EDHL 021920Z 26015G25KT 9999 FEW025 06/02 Q1018 RMK ATIS CHA=
0085101560999992015010219504+53805+010719FM-15+001699999V0202701N007219999999Y999999999+00601+00201999999ADDMA1101901999999REMMET058METAR EDHL 021950Z 27014KT CAVOK 06/02 Q1019 RMK ATIS DEL=
0155101560999992015010220204+53805+010719FM-15+001699999V0202601N007219999999N009999199+00501+00201999999ADDGA1021+009751999GE19MSL   +99999+99999GF199999021999009751999999MA1101901999999REMMET064METAR EDHL 022020Z 26014KT 9999 FEW032 05/02 Q1019 RMK ATIS ECH=
0085101560999992015010220504+53805+010719FM-15+001699999V0202601N007719999999Y999999999+00501+00201999999ADDMA1101901999999REMMET058METAR EDHL 022050Z 26015KT CAVOK 05/02 Q1019 RMK ATIS FOX=
0166101560999992015010305504+53805+010719FM-15+001699999V0202601N010319999999N009999199+00501+00201999999ADDGA1041+006711999GE19MSL   +99999+99999GF199999041999006711999999MA1101801999999OC101541REMMET067METAR EDHL 030550Z 26020G30KT 9999 SCT022 05/02 Q1018 RMK ATIS ALF=
0096101560999992015010306204+53805+010719FM-15+001699999V0202601N009819999999Y999999999+00501+00101999999ADDMA1101801999999OC101541REMMET061METAR EDHL 030620Z 26019G30KT CAVOK 05/01 Q1018 RMK ATIS BRA=
0085101560999992015010306504+53805+010719FM-15+001699999V0202501N009319999999Y999999999+00401+00001999999ADDMA1101701999999REMMET058METAR EDHL 030650Z 25018KT CAVOK 04/00 Q1017 RMK ATIS CHA=
0097101560999992015010307204+53805+010719FM-15+001699999V0202501N010319999999Y999999999+00501-00101999999ADDMA1101601999999OC101541REMMET062METAR EDHL 030720Z 25020G30KT CAVOK 05/M01 Q1016 RMK ATIS DEL=
0086101560999992015010307504+53805+010719FM-15+001699999V0202501N009319999999Y999999999+00401+00001999999ADDMA1101601999999REMMET059METAR EDHL 030750Z 25018KT CAVOK 04/M00 Q1016 RMK ATIS ECH=
0086101560999992015010308204+53805+010719FM-15+001699999V0202501N008819999999Y999999999+00401+00001999999ADDMA1101601999999REMMET059METAR EDHL 030820Z 25017KT CAVOK 04/M00 Q1016 RMK ATIS FOX=
0085101560999992015010308504+53805+010719FM-15+001699999V0202501N010319999999Y999999999+00501+00001999999ADDMA1101601999999REMMET058METAR EDHL 030850Z 25020KT CAVOK 05/00 Q1016 RMK ATIS GOL=
0096101560999992015010309204+53805+010719FM-15+001699999V0202601N010319999999Y999999999+00501+00001999999ADDMA1101501999999OC101541REMMET061METAR EDHL 030920Z 26020G30KT CAVOK 05/00 Q1015 RMK ATIS HOT=
0104101560999992015010309504+53805+010719FM-15+001699999V0202601V009319999999Y999999999+00501+00001999999ADDMA1101501999999OC101441REMMET069METAR EDHL 030950Z 26018G28KT 240V300 CAVOK 05/00 Q1015 RMK ATIS IND=
0194101560999992015010310204+53805+010719FM-15+001699999V0202601N009310222519N009999199+00501+00001999999ADDGA1021+006101999GA2071+022251999GE19MSL   +99999+99999GF199999021999006101999999MA1101501999999OC101441REMMET079METAR EDHL 031020Z 26018G28KT 9999 FEW020 BKN073 05/00 Q1015 RMK ATIS      JUL=
0194101560999992015010310504+53805+010719FM-15+001699999V0202601N010310076219N009999199+00501+00101999999ADDGA1071+007621999GA2071+016761999GE19MSL   +99999+99999GF199999071999007621999999MA1101401999999OC101541REMMET079METAR EDHL 031050Z 26020G30KT 9999 BKN025 BKN055 05/01 Q1014 RMK ATIS      KIL=
0165101560999992015010311204+53805+010719FM-15+001699999V0202601N010310067119N009999199+00501+00101999999ADDGA1071+006711999GE19MSL   +99999+99999GF199999071999006711999999MA1101301999999MW1611REMMET068METAR EDHL 031120Z 26020KT 9999 -RA BKN022 05/01 Q1013 RMK ATIS LIM=
0185101560999992015010311504+53805+010719FM-15+001699999V0202601N008810064019N009999199+00601+00201999999ADDGA1071+006401999GE19MSL   +99999+99999GF199999071999006401999999MA1101301999999MW1611OC101441REMMET080METAR COR EDHL 031150Z 26017G28KT 9999 -RA BKN021 06/02 Q1013 RMK ATIS      NOV=
0165101560999992015010312204+53805+010719FM-15+001699999V0202601N008810057919N009999199+00501+00201999999ADDGA1071+005791999GE19MSL   +99999+99999GF199999071999005791999999MA1101201999999MW1611REMMET068METAR EDHL 031220Z 26017KT 9999 -RA BKN019 05/02 Q1012 RMK ATIS OSC=
0165101560999992015010312504+53805+010719FM-15+001699999V0202601N008210061019N009999199+00601+00201999999ADDGA1071+006101999GE19MSL   +99999+99999GF199999071999006101999999MA1101201999999MW1611REMMET068METAR EDHL 031250Z 26016KT 9999 -RA BKN020 06/02 Q1012 RMK ATIS PAP=
0181101560999992015010313204+53805+010719FM-15+001699999V0202601N007710051819N009999199+00501+00201999999ADDGA1071+005181999GE19MSL   +99999+99999GF199999071999005181999999MA1101201999999MW1611OC101291REMMET076METAR EDHL 031320Z 26015G25KT 9999 -RA BKN017 05/02 Q1012 RMK ATIS      QUE=
0194101560999992015010313504+53805+010719FM-15+001699999V0202701V005710036619N009999199+00501+00301999999ADDGA1071+003661999GE19MSL   +99999+99999GF199999071999003661999999MA1101101999999MW1611OC101131REMMET089METAR EDHL 031350Z 27011G22KT 240V320 9999 -RA BKN012 05/03 Q1011 REDZ      RMK ATIS ROM=
0178101560999992015010314204+53805+010719FM-15+001699999V0202701V005710036619N009999199+00501+00301999999ADDGA1071+003661999GE19MSL   +99999+99999GF199999071999003661999999MA1101101999999MW1611REMMET081METAR EDHL 031420Z 27011KT 240V300 9999 -RA BKN012 05/03 Q1011 RMK      ATIS SIE=
0178101560999992015010314504+53805+010719FM-15+001699999V0202801V004610030519N009999199+00501+00401999999ADDGA1071+003051999GE19MSL   +99999+99999GF199999071999003051999999MA1101101999999MW1611REMMET081METAR EDHL 031450Z 28009KT 240V330 9999 -RA BKN010 05/04 Q1011 RMK      ATIS TAN=
0178101560999992015010315204+53805+010719FM-15+001699999V0202701V005110030519N009999199+00401+00301999999ADDGA1071+003051999GE19MSL   +99999+99999GF199999071999003051999999MA1101101999999MW1611REMMET081METAR EDHL 031520Z 27010KT 240V300 9999 -RA BKN010 04/03 Q1011 RMK      ATIS UNI=
0191101560999992015010315504+53805+010719FM-15+001699999V0202701V004610036619N009999199+00401+00301999999ADDGA1041+002441999GA2071+003661999GE19MSL   +99999+99999GF199999041999002441999999MA1101101999999REMMET084METAR EDHL 031550Z 27009KT 240V310 9999 SCT008 BKN012 04/03 Q1011 RMK      ATIS VIC=
0201101560999992015010316204+53805+010719FM-15+001699999V0202701V004610027419N009999199+00401+00301999999ADDGA1021+001831999GA2071+002741999GE19MSL   +99999+99999GF199999021999001831999999MA1101101999999MW1611REMMET088METAR EDHL 031620Z 27009KT 250V320 9999 -RA FEW006 BKN009 04/03 Q1011      RMK ATIS WHI=
0201101560999992015010316504+53805+010719FM-15+001699999V0202601V004610024419N009999199+00401+00301999999ADDGA1071+002441999GA2071+014631999GE19MSL   +99999+99999GF199999071999002441999999MA1101101999999MW1611REMMET088METAR EDHL 031650Z 26009KT 240V300 9999 -RA BKN008 BKN048 04/03 Q1011      RMK ATIS X-R=
0183101560999992015010317204+53805+010719FM-15+001699999V0202701V004110091419N009999199+00401+00301999999ADDGA1041+002131999GA2071+009141999GE19MSL   +99999+99999GF199999041999002131999999MA1101101999999MW1611REMMET070METAR EDHL 031720Z 27008KT 230V320 9999 -RA SCT007 BKN030 04/03 Q1011=
0155101560999992015010317504+53805+010719FM-15+001699999V0202601N005119999999N009999199+00401+00301999999ADDGA1041+002441999GE19MSL   +99999+99999GF199999041999002441999999MA1101101999999REMMET064METAR EDHL 031750Z 26010KT 9999 SCT008 04/03 Q1011 RMK ATIS ZUL=
0155101560999992015010318204+53805+010719FM-15+001699999V0202601N004619999999N009999199+00301+00201999999ADDGA1041+004271999GE19MSL   +99999+99999GF199999041999004271999999MA1101101999999REMMET064METAR EDHL 031820Z 26009KT 9999 SCT014 03/02 Q1011 RMK ATIS ALF=
0093101560999992015010318504+53805+010719FM-15+001699999V0202701V003119999999Y999999999+00301+00201999999ADDMA1101101999999REMMET066METAR EDHL 031850Z 27006KT 240V340 CAVOK 03/02 Q1011 RMK ATIS BRA=
0168101560999992015010319204+53805+010719FM-15+001699999V0202701V003119999999N009999199+00301+00201999999ADDGA1021+008231999GE19MSL   +99999+99999GF199999021999008231999999MA1101101999999REMMET077METAR EDHL 031920Z 27006KT 240V330 9999 FEW027 03/02 Q1011 RMK ATIS      CHA=
0173101560999992015010319504+53805+010719FM-15+001699999V0202801V002619999999N009999199+00301+00201999999ADDGA1021+007011999GE19MSL   +99999+99999GF199999021999007011999999MA1101101999999REMMET082METAR EDHL 031950Z 28005KT 240V340 9999 FEW023 03/02 Q1011 REDZ RMK      ATIS DEL=
0093101560999992015010320204+53805+010719FM-15+001699999V0202701V004119999999Y999999999+00301+00101999999ADDMA1101201999999REMMET066METAR EDHL 032020Z 27008KT 240V310 CAVOK 03/01 Q1012 RMK ATIS ECH=
0093101560999992015010320504+53805+010719FM-15+001699999V0202701V005119999999Y999999999+00301+00101999999ADDMA1101201999999REMMET066METAR EDHL 032050Z 27010KT 240V320 CAVOK 03/01 Q1012 RMK ATIS FOX=
0093101560999992015010405504+53805+010719FM-15+001699999V0202701V002619999999Y999999999+00201+00101999999ADDMA1102001999999REMMET066METAR EDHL 040550Z 27005KT 240V310 CAVOK 02/01 Q1020 RMK ATIS ALF=
0093101560999992015010406204+53805+010719FM-15+001699999V0202801V002619999999Y999999999+00201+00101999999ADDMA1102001999999REMMET066METAR EDHL 040620Z 28005KT 250V320 CAVOK 02/01 Q1020 RMK ATIS BRA=
0085101560999992015010406504+53805+010719FM-15+001699999V0202701N002119999999Y999999999+00201+00101999999ADDMA1102101999999REMMET058METAR EDHL 040650Z 27004KT CAVOK 02/01 Q1021 RMK ATIS CHA=
0093101560999992015010407204+53805+010719FM-15+001699999V0202701V003119999999Y999999999+00201+00101999999ADDMA1102101999999REMMET066METAR EDHL 040720Z 27006KT 240V310 CAVOK 02/01 Q1021 RMK ATIS DEL=
0093101560999992015010407504+53805+010719FM-15+001699999V0202801V002619999999Y999999999+00201+00001999999ADDMA1102201999999REMMET066METAR EDHL 040750Z 28005KT 250V320 CAVOK 02/00 Q1022 RMK ATIS ECH=
0093101560999992015010408204+53805+010719FM-15+001699999V0202801V002619999999Y999999999+00201+00001999999ADDMA1102201999999REMMET066METAR EDHL 040820Z 28005KT 250V320 CAVOK 02/00 Q1022 RMK ATIS FOX=
0093101560999992015010408504+53805+010719FM-15+001699999V0202801V002619999999Y999999999+00201+00001999999ADDMA1102301999999REMMET066METAR EDHL 040850Z 28005KT 250V320 CAVOK 02/00 Q1023 RMK ATIS GOL=
0093101560999992015010409204+53805+010719FM-15+001699999V0202901V002119999999Y999999999+00301+00101999999ADDMA1102301999999REMMET066METAR EDHL 040920Z 29004KT 240V360 CAVOK 03/01 Q1023 RMK ATIS HOT=
0168101560999992015010409504+53805+010719FM-15+001699999V0202901V002619999999N009999199+00401+00101999999ADDGA1021+004881999GE19MSL   +99999+99999GF199999021999004881999999MA1102301999999REMMET077METAR EDHL 040950Z 29005KT 250V360 9999 FEW016 04/01 Q1023 RMK ATIS      IND=
0168101560999992015010410204+53805+010719FM-15+001699999V0202901V003119999999N009999199+00401+00101999999ADDGA1021+006101999GE19MSL   +99999+99999GF199999021999006101999999MA1102401999999REMMET077METAR EDHL 041020Z 29006KT 250V330 9999 FEW020 04/01 Q1024 RMK ATIS      JUL=
0168101560999992015010410504+53805+010719FM-15+001699999V0202901V003619999999N009999199+00501+00201999999ADDGA1021+006101999GE19MSL   +99999+99999GF199999021999006101999999MA1102401999999REMMET077METAR EDHL 041050Z 29007KT 240V350 9999 FEW020 05/02 Q1024 RMK ATIS      KIL=
0168101560999992015010411204+53805+010719FM-15+001699999V0203001V004119999999N009999199+00501+00201999999ADDGA1021+004881999GE19MSL   +99999+99999GF199999021999004881999999MA1102401999999REMMET077METAR EDHL 041120Z 30008KT 260V360 9999 FEW016 05/02 Q1024 RMK ATIS      LIM=
0168101560999992015010411504+53805+010719FM-15+001699999V0203001V004119999999N009999199+00501+00201999999ADDGA1041+007011999GE19MSL   +99999+99999GF199999041999007011999999MA1102401999999REMMET077METAR EDHL 041150Z 30008KT 260V360 9999 SCT023 05/02 Q1024 RMK ATIS      MIK=
0155101560999992015010412204+53805+010719FM-15+001699999V0209999V004619999999N009999199+00601+00101999999ADDGA1041+007011999GE19MSL   +99999+99999GF199999041999007011999999MA1102501999999REMMET064METAR EDHL 041220Z VRB09KT 9999 SCT023 06/01 Q1025 RMK ATIS NOV=
0168101560999992015010412504+53805+010719FM-15+001699999V0203001V003119999999N009999199+00601+00101999999ADDGA1041+008231999GE19MSL   +99999+99999GF199999041999008231999999MA1102501999999REMMET077METAR EDHL 041250Z 30006KT 250V360 9999 SCT027 06/01 Q1025 RMK ATIS      OSC=
0168101560999992015010413204+53805+010719FM-15+001699999V0203001V003610082319N009999199+00601+00101999999ADDGA1071+008231999GE19MSL   +99999+99999GF199999071999008231999999MA1102501999999REMMET077METAR EDHL 041320Z 30007KT 250V360 9999 BKN027 06/01 Q1025 RMK ATIS      PAP=
0168101560999992015010413504+53805+010719FM-15+001699999V0203001V003119999999N009999199+00601+00101999999ADDGA1041+008231999GE19MSL   +99999+99999GF199999041999008231999999MA1102601999999REMMET077METAR EDHL 041350Z 30006KT 230V340 9999 SCT027 06/01 Q1026 RMK ATIS      QUE=
0168101560999992015010414204+53805+010719FM-15+001699999V0202901V003619999999N009999199+00501+00101999999ADDGA1021+007321999GE19MSL   +99999+99999GF199999021999007321999999MA1102601999999REMMET077METAR EDHL 041420Z 29007KT 250V350 9999 FEW024 05/01 Q1026 RMK ATIS      ROM=
0168101560999992015010414504+53805+010719FM-15+001699999V0202901V002619999999N009999199+00501+00001999999ADDGA1021+007321999GE19MSL   +99999+99999GF199999021999007321999999MA1102601999999REMMET077METAR EDHL 041450Z 29005KT 240V350 9999 FEW024 05/00 Q1026 RMK ATIS      SIE=
0086101560999992015010415204+53805+010719FM-15+001699999V0209999V002119999999Y999999999+00401+00001999999ADDMA1102701999999REMMET059METAR EDHL 041520Z VRB04KT CAVOK 04/M00 Q1027 RMK ATIS TAN=
0093101560999992015010415504+53805+010719FM-15+001699999V0202901V002119999999Y999999999+00401+00001999999ADDMA1102701999999REMMET066METAR EDHL 041550Z 29004KT 250V330 CAVOK 04/00 Q1027 RMK ATIS UNI=
0080101560999992015010416204+53805+010719FM-15+001699999V0202901V002119999999Y999999999+00401+00101999999ADDMA1102701999999REMMET053METAR EDHL 041620Z 29004KT 230V340 CAVOK 04/01 Q1027=
0093101560999992015010416504+53805+010719FM-15+001699999V0202901V003119999999Y999999999+00301+00101999999ADDMA1102801999999REMMET066METAR EDHL 041650Z 29006KT 260V330 CAVOK 03/01 Q1028 RMK ATIS WHI=
0093101560999992015010417204+53805+010719FM-15+001699999V0202801V003119999999Y999999999+00301+00101999999ADDMA1102801999999REMMET066METAR EDHL 041720Z 28006KT 250V330 CAVOK 03/01 Q1028 RMK ATIS X-R=
0093101560999992015010417504+53805+010719FM-15+001699999V0202801V003619999999Y999999999+00301+00101999999ADDMA1102801999999REMMET066METAR EDHL 041750Z 28007KT 250V330 CAVOK 03/01 Q1028 RMK ATIS YAN=
0093101560999992015010418204+53805+010719FM-15+001699999V0202801V004119999999Y999999999+00301+00101999999ADDMA1102801999999REMMET066METAR EDHL 041820Z 28008KT 240V310 CAVOK 03/01 Q1028 RMK ATIS ZUL=
0093101560999992015010418504+53805+010719FM-15+001699999V0202701V003119999999Y999999999+00301+00001999999ADDMA1102901999999REMMET066METAR EDHL 041850Z 27006KT 250V310 CAVOK 03/00 Q1029 RMK ATIS ALF=
0093101560999992015010419204+53805+010719FM-15+001699999V0202701V002619999999Y999999999+00301+00101999999ADDMA1102901999999REMMET066METAR EDHL 041920Z 27005KT 230V290 CAVOK 03/01 Q1029 RMK ATIS BRA=
0183101560999992015010419504+53805+010719FM-15+001699999V0202701N002610134119N009999199+00301+00101999999ADDGA1021+007321999GA2071+013411999GE19MSL   +99999+99999GF199999021999007321999999MA1102901999999REMMET076METAR EDHL 041950Z 27005KT 9999 FEW024 BKN044 03/01 Q1029 RMK ATIS      CHA=
0191101560999992015010420204+53805+010719FM-15+001699999V0202701V003110304819N009999199+00401+00201999999ADDGA1021+006101999GA2071+030481999GE19MSL   +99999+99999GF199999021999006101999999MA1102901999999REMMET084METAR EDHL 042020Z 27006KT 240V310 9999 FEW020 BKN100 04/02 Q1029 RMK      ATIS DEL=
0183101560999992015010420504+53805+010719FM-15+001699999V0202701N002610289619N009999199+00401+00201999999ADDGA1021+009141999GA2071+028961999GE19MSL   +99999+99999GF199999021999009141999999MA1102901999999REMMET076METAR EDHL 042050Z 27005KT 9999 FEW030 BKN095 04/02 Q1029 RMK ATIS      ECH=
0168101560999992015010505504+53805+010719FM-15+001699999V0202701V004110024419N009999199+00401+00301999999ADDGA1071+002441999GE19MSL   +99999+99999GF199999071999002441999999MA1102601999999REMMET077METAR EDHL 050550Z 27008KT 240V300 9999 BKN008 04/03 Q1026 RMK ATIS      ALF=
0191101560999992015010506204+53805+010719FM-15+001699999V0202701V004110033519N009999199+00401+00301999999ADDGA1021+002441999GA2071+003351999GE19MSL   +99999+99999GF199999021999002441999999MA1102701999999REMMET084METAR EDHL 050620Z 27008KT 230V320 9999 FEW008 BKN011 04/03 Q1027 RMK      ATIS BRA=
0168101560999992015010506504+53805+010719FM-15+001699999V0202701V003110033519N009999199+00401+00301999999ADDGA1071+003351999GE19MSL   +99999+99999GF199999071999003351999999MA1102701999999REMMET077METAR EDHL 050650Z 27006KT 240V310 9999 BKN011 04/03 Q1027 RMK ATIS      CHA=
0168101560999992015010507204+53805+010719FM-15+001699999V0202801V003110030519N009999199+00401+00301999999ADDGA1071+003051999GE19MSL   +99999+99999GF199999071999003051999999MA1102701999999REMMET077METAR EDHL 050720Z 28006KT 220V360 9999 BKN010 04/03 Q1027 RMK ATIS      DEL=
0168101560999992015010507504+53805+010719FM-15+001699999V0202701V003610030519N009999199+00401+00301999999ADDGA1071+003051999GE19MSL   +99999+99999GF199999071999003051999999MA1102701999999REMMET077METAR EDHL 050750Z 27007KT 220V300 9999 BKN010 04/03 Q1027 RMK ATIS      ECH=
0168101560999992015010508204+53805+010719FM-15+001699999V0202701V003610030519N009999199+00401+00201999999ADDGA1071+003051999GE19MSL   +99999+99999GF199999071999003051999999MA1102701999999REMMET077METAR EDHL 050820Z 27007KT 240V300 9999 BKN010 04/02 Q1027 RMK ATIS      FOX=
0183101560999992015010508504+53805+010719FM-15+001699999V0202701N004110085319N009999199+00401+00201999999ADDGA1041+002741999GA2071+008531999GE19MSL   +99999+99999GF199999041999002741999999MA1102701999999REMMET076METAR EDHL 050850Z 27008KT 9999 SCT009 BKN028 04/02 Q1027 RMK ATIS      GOL=
0165101560999992015010509204+53805+010719FM-15+001699999V0202701N005110085319N009999199+00401+00201999999ADDGA1041+002741999GA2071+008531999GE19MSL   +99999+99999GF199999041999002741999999MA1102701999999REMMET058METAR EDHL 050920Z 27010KT 9999 SCT009 BKN028 04/02 Q1027=
0183101560999992015010509504+53805+010719FM-15+001699999V0202701N00411008531CN009999199+00401+00201999999ADDGA1041+002741999GA2041+008531999GE19MSL   +99999+99999GF199999041999002741999999MA1102701999999REMMET076METAR EDHL 050950Z 27008KT 9999 SCT009 SCT028 04/02 Q1027 RMK ATIS      IND=
0183101560999992015010510204+53805+010719FM-15+001699999V0202601N004610079219N009999199+00401+00201999999ADDGA1021+003051999GA2071+007921999GE19MSL   +99999+99999GF199999021999003051999999MA1102701999999REMMET076METAR EDHL 051020Z 26009KT 9999 FEW010 BKN026 04/02 Q1027 RMK ATIS      JUL=
0191101560999992015010510504+53805+010719FM-15+001699999V0202601V005110067119N009999199+00401+00201999999ADDGA1021+003051999GA2071+006711999GE19MSL   +99999+99999GF199999021999003051999999MA1102701999999REMMET084METAR EDHL 051050Z 26010KT 230V290 9999 FEW010 BKN022 04/02 Q1027 RMK      ATIS KIL=
0183101560999992015010511204+53805+010719FM-15+001699999V0202701N003610070119N009999199+00401+00201999999ADDGA1021+003051999GA2071+007011999GE19MSL   +99999+99999GF199999021999003051999999MA1102701999999REMMET076METAR EDHL 051120Z 27007KT 9999 FEW010 BKN023 04/02 Q1027 RMK ATIS      LIM=
0191101560999992015010511504+53805+010719FM-15+001699999V0202801V002610061019N009000199+00401+00201999999ADDGA1041+003051999GA2071+006101999GE19MSL   +99999+99999GF199999041999003051999999MA1102701999999REMMET084METAR EDHL 051150Z 28005KT 240V330 9000 SCT010 BKN020 04/02 Q1027 RMK      ATIS MIK=
0191101560999992015010512204+53805+010719FM-15+001699999V0202701V002610067119N009000199+00401+00201999999ADDGA1041+003051999GA2071+006711999GE19MSL   +99999+99999GF199999041999003051999999MA1102701999999REMMET084METAR EDHL 051220Z 27005KT 240V310 9000 SCT010 BKN022 04/02 Q1027 RMK      ATIS NOV=
0165101560999992015010512504+53805+010719FM-15+001699999V0202601N003110073219N009999199+00401+00301999999ADDGA1041+003051999GA2071+007321999GE19MSL   +99999+99999GF199999041999003051999999MA1102701999999REMMET058METAR EDHL 051250Z 26006KT 9999 SCT010 BKN024 04/03 Q1027=
0168101560999992015010513204+53805+010719FM-15+001699999V0202701V002610064019N009999199+00401+00301999999ADDGA1071+006401999GE19MSL   +99999+99999GF199999071999006401999999MA1102701999999REMMET077METAR EDHL 051320Z 27005KT 240V300 9999 BKN021 04/03 Q1027 RMK ATIS      PAP=
0168101560999992015010513504+53805+010719FM-15+001699999V0202701V003110070119N009000199+00401+00301999999ADDGA1071+007011999GE19MSL   +99999+99999GF199999071999007011999999MA1102701999999REMMET077METAR EDHL 051350Z 27006KT 220V310 9000 BKN023 04/03 Q1027 RMK ATIS      QUE=
0150101560999992015010514204+53805+010719FM-15+001699999V0202701V002110070119N009000199+00501+00301999999ADDGA1071+007011999GE19MSL   +99999+99999GF199999071999007011999999MA1102701999999REMMET059METAR EDHL 051420Z 27004KT 240V320 9000 BKN023 05/03 Q1027=
0168101560999992015010514504+53805+010719FM-15+001699999V0202801V002110073219N009999199+00501+00301999999ADDGA1071+007321999GE19MSL   +99999+99999GF199999071999007321999999MA1102701999999REMMET077METAR EDHL 051450Z 28004KT 240V310 9999 BKN024 05/03 Q1027 RMK ATIS      SIE=
0168101560999992015010515204+53805+010719FM-15+001699999V0202701V003110079219N009999199+00501+00301999999ADDGA1071+007921999GE19MSL   +99999+99999GF199999071999007921999999MA1102701999999REMMET077METAR EDHL 051520Z 27006KT 240V300 9999 BKN026 05/03 Q1027 RMK ATIS      TAN=
0168101560999992015010515504+53805+010719FM-15+001699999V0202701V003110082319N009999199+00401+00301999999ADDGA1071+008231999GE19MSL   +99999+99999GF199999071999008231999999MA1102701999999REMMET077METAR EDHL 051550Z 27006KT 230V300 9999 BKN027 04/03 Q1027 RMK ATIS      UNI=
0155101560999992015010516204+53805+010719FM-15+001699999V0202601N003610070119N009999199+00401+00301999999ADDGA1071+007011999GE19MSL   +99999+99999GF199999071999007011999999MA1102701999999REMMET064METAR EDHL 051620Z 26007KT 9999 BKN023 04/03 Q1027 RMK ATIS VIC=
0165101560999992015010516504+53805+010719FM-15+001699999V0202501N003110015219N006000199+00401+00301999999ADDGA1071+001521999GE19MSL   +99999+99999GF199999071999001521999999MA1102701999999MW1511REMMET068METAR EDHL 051650Z 25006KT 6000 -DZ BKN005 04/03 Q1027 RMK ATIS WHI=
0179101560999992015010517204+53805+010719FM-15+001699999V0202501N003610012219N002900199+00401+00301999999ADDGA1071+001221999GE19MSL   +99999+99999GF199999071999001221999999MA1102701999999MW1101MW2511REMMET076METAR EDHL 051720Z 25007KT 2900 -DZ BR BKN004 04/03 Q1027 RMK ATIS      X-R=
0179101560999992015010517504+53805+010719FM-15+001699999V0202501N002610015219N002300199+00401+00301999999ADDGA1071+001521999GE19MSL   +99999+99999GF199999071999001521999999MA1102701999999MW1101MW2511REMMET076METAR EDHL 051750Z 25005KT 2300 -DZ BR BKN005 04/03 Q1027 RMK ATIS      YAN=
0179101560999992015010518204+53805+010719FM-15+001699999V0202601N002110015219N002900199+00401+00301999999ADDGA1071+001521999GE19MSL   +99999+99999GF199999071999001521999999MA1102701999999MW1101MW2511REMMET076METAR EDHL 051820Z 26004KT 2900 -DZ BR BKN005 04/03 Q1027 RMK ATIS      ZUL=
0179101560999992015010518504+53805+010719FM-15+001699999V0202501N002110015219N002700199+00401+00301999999ADDGA1071+001521999GE19MSL   +99999+99999GF199999071999001521999999MA1102701999999MW1101MW2511REMMET076METAR EDHL 051850Z 25004KT 2700 -DZ BR BKN005 04/03 Q1027 RMK ATIS      ALF=
0179101560999992015010519204+53805+010719FM-15+001699999V0202501N002610012219N001700199+00401+00301999999ADDGA1071+001221999GE19MSL   +99999+99999GF199999071999001221999999MA1102701999999MW1101MW2511REMMET076METAR EDHL 051920Z 25005KT 1700 -DZ BR BKN004 04/03 Q1027 RMK ATIS      BRA=
0179101560999992015010519504+53805+010719FM-15+001699999V0202501N002110012219N001600199+00401+00301999999ADDGA1071+001221999GE19MSL   +99999+99999GF199999071999001221999999MA1102701999999MW1101MW2511REMMET076METAR EDHL 051950Z 25004KT 1600 -DZ BR BKN004 04/03 Q1027 RMK ATIS      CHA=
0180101560999992015010520204+53805+010719FM-15+001699999V0202501N002610012219N001300199+00401-00201999999ADDGA1071+001221999GE19MSL   +99999+99999GF199999071999001221999999MA1102701999999MW1101MW2511REMMET077METAR EDHL 052020Z 25005KT 1300 -DZ BR BKN004 04/M02 Q1027 RMK ATIS      DEL=
0179101560999992015010520504+53805+010719FM-15+001699999V0202501N003110012219N001400199+00401+00301999999ADDGA1071+001221999GE19MSL   +99999+99999GF199999071999001221999999MA1102701999999MW1101MW2511REMMET076METAR EDHL 052050Z 25006KT 1400 -DZ BR BKN004 04/03 Q1027 RMK ATIS      ECH=
0200101560999992015010605504+53805+010719FM-15+001699999V0201601V001510097519N002900199+00201+00201999999ADDGA1021+001221999GA2071+009751999GE19MSL   +99999+99999GF199999021999001221999999MA1102501999999MW1101REMMET087METAR EDHL 060550Z 16003KT 090V200 2900 BR FEW004 BKN032 02/02 Q1025      RMK ATIS ALF=
0202101560999992015010606204+53805+010719FM-15+001699999V0201601N002110018319N002600199+00201+00201999999ADDGA1071+001831999GA2071+009751999GE19MSL   +99999+99999GF199999071999001831999999MA1102501999999MW1101MW2611REMMET083METAR EDHL 060620Z 16004KT 2600 -RA BR BKN006 BKN032 02/02 Q1025 RMK      ATIS BRA=
0192101560999992015010606504+53805+010719FM-15+001699999V0201501N002610076219N003200199+00201+00201999999ADDGA1021+001521999GA2071+007621999GE19MSL   +99999+99999GF199999021999001521999999MA1102501999999MW1101REMMET079METAR EDHL 060650Z 15005KT 3200 BR FEW005 BKN025 02/02 Q1025 RMK ATIS      CHA=
0210101560999992015010607204+53805+010719FM-15+001699999V0201701V002110061019N003200199+00201+00201999999ADDGA1021+001521999GA2071+006101999GE19MSL   +99999+99999GF199999021999001521999999MA1102501999999MW1101MW2511REMMET091METAR EDHL 060720Z 17004KT 120V200 3200 -DZ BR FEW005 BKN020 02/02      Q1025 RMK ATIS DEL=
0165101560999992015010607504+53805+010719FM-15+001699999V0201501N002610051819N002500199+00201+00201999999ADDGA1071+005181999GE19MSL   +99999+99999GF199999071999005181999999MA1102501999999MW1611REMMET068METAR EDHL 060750Z 15005KT 2500 -RA BKN017 02/02 Q1025 RMK ATIS ECH=
0200101560999992015010608204+53805+010719FM-15+001699999V0201501V002110054919N002900199+00301+00201999999ADDGA1021+001221999GA2071+005491999GE19MSL   +99999+99999GF199999021999001221999999MA1102501999999MW1101REMMET087METAR EDHL 060820Z 15004KT 120V180 2900 BR FEW004 BKN018 03/02 Q1025      RMK ATIS FOX=
0215101560999992015010608504+53805+010719FM-15+001699999V0201501N00311003661CN003000199+00301+00201999999ADDGA1021+001221999GA2041+003661999GA3071+009141999GE19MSL   +99999+99999GF199999021999001221999999MA1102501999999MW1101REMMET086METAR EDHL 060850Z 15006KT 3000 BR FEW004 SCT012 BKN030 03/02 Q1025      RMK ATIS GOL=
0177101560999992015010609204+53805+010719FM-15+001699999V0201501V002610015219N003500199+00301+00201999999ADDGA1071+001521999GE19MSL   +99999+99999GF199999071999001521999999MA1102501999999MW1101REMMET080METAR EDHL 060920Z 15005KT 110V170 3500 BR BKN005 03/02 Q1025 RMK ATIS      HOT=
0177101560999992015010609504+53805+010719FM-15+001699999V0201501V003110018319N004800199+00301+00201999999ADDGA1071+001831999GE19MSL   +99999+99999GF199999071999001831999999MA1102501999999MW1101REMMET080METAR EDHL 060950Z 15006KT 110V190 4800 BR BKN006 03/02 Q1025 RMK ATIS      IND=
0155101560999992015010610204+53805+010719FM-15+001699999V0201701N005110021319N007000199+00301+00201999999ADDGA1071+002131999GE19MSL   +99999+99999GF199999071999002131999999MA1102501999999REMMET064METAR EDHL 061020Z 17010KT 7000 BKN007 03/02 Q1025 RMK ATIS JUL=
0155101560999992015010610504+53805+010719FM-15+001699999V0201601N003610021319N007000199+00301+00201999999ADDGA1071+002131999GE19MSL   +99999+99999GF199999071999002131999999MA1102501999999REMMET064METAR EDHL 061050Z 16007KT 7000 BKN007 03/02 Q1025 RMK ATIS KIL=
0168101560999992015010611204+53805+010719FM-15+001699999V0201601V003610027419N006000199+00301+00201999999ADDGA1071+002741999GE19MSL   +99999+99999GF199999071999002741999999MA1102501999999REMMET077METAR EDHL 061120Z 16007KT 130V190 6000 BKN009 03/02 Q1025 RMK ATIS      LIM=
0168101560999992015010611504+53805+010719FM-15+001699999V0201601V004110027419N006000199+00301+00201999999ADDGA1071+002741999GE19MSL   +99999+99999GF199999071999002741999999MA1102401999999REMMET077METAR EDHL 061150Z 16008KT 120V180 6000 BKN009 03/02 Q1024 RMK ATIS      MIK=
0168101560999992015010612204+53805+010719FM-15+001699999V0201501V003610039619N008000199+00301+00201999999ADDGA1071+003961999GE19MSL   +99999+99999GF199999071999003961999999MA1102401999999REMMET077METAR EDHL 061220Z 15007KT 130V200 8000 BKN013 03/02 Q1024 RMK ATIS      NOV=
0183101560999992015010612504+53805+010719FM-15+001699999V0201701N003610100619N009000199+00301+00101999999ADDGA1041+003661999GA2071+010061999GE19MSL   +99999+99999GF199999041999003661999999MA1102401999999REMMET076METAR EDHL 061250Z 17007KT 9000 SCT012 BKN033 03/01 Q1024 RMK ATIS      OSC=
0168101560999992015010613204+53805+010719FM-15+001699999V0201701V003110036619N007000199+00301+00101999999ADDGA1071+003661999GE19MSL   +99999+99999GF199999071999003661999999MA1102301999999REMMET077METAR EDHL 061320Z 17006KT 130V200 7000 BKN012 03/01 Q1023 RMK ATIS      PAP=
0168101560999992015010613504+53805+010719FM-15+001699999V0201401V003110039619N007000199+00301+00201999999ADDGA1071+003961999GE19MSL   +99999+99999GF199999071999003961999999MA1102301999999REMMET077METAR EDHL 061350Z 14006KT 110V170 7000 BKN013 03/02 Q1023 RMK ATIS      QUE=
0191101560999992015010614204+53805+010719FM-15+001699999V0201501V004110070119N009000199+00301+00101999999ADDGA1041+004881999GA2071+007011999GE19MSL   +99999+99999GF199999041999004881999999MA1102301999999REMMET084METAR EDHL 061420Z 15008KT 110V190 9000 SCT016 BKN023 03/01 Q1023 RMK      ATIS ROM=
0191101560999992015010614504+53805+010719FM-15+001699999V0201401V004610076219N009999199+00301+00101999999ADDGA1021+006401999GA2071+007621999GE19MSL   +99999+99999GF199999021999006401999999MA1102201999999REMMET084METAR EDHL 061450Z 14009KT 110V170 9999 FEW021 BKN025 03/01 Q1022 RMK      ATIS SIE=
0183101560999992015010615204+53805+010719FM-15+001699999V0201401N004110076219N009999199+00301+00101999999ADDGA1021+004271999GA2071+007621999GE19MSL   +99999+99999GF199999021999004271999999MA1102201999999REMMET076METAR EDHL 061520Z 14008KT 9999 FEW014 BKN025 03/01 Q1022 RMK ATIS      TAN=
0191101560999992015010615504+53805+010719FM-15+001699999V0201401V004110064019N009999199+00301+00101999999ADDGA1041+004571999GA2071+006401999GE19MSL   +99999+99999GF199999041999004571999999MA1102201999999REMMET084METAR EDHL 061550Z 14008KT 110V170 9999 SCT015 BKN021 03/01 Q1022 RMK      ATIS UNI=
0191101560999992015010616204+53805+010719FM-15+001699999V0201501V004110067119N009999199+00301+00101999999ADDGA1041+004571999GA2071+006711999GE19MSL   +99999+99999GF199999041999004571999999MA1102101999999REMMET084METAR EDHL 061620Z 15008KT 120V190 9999 SCT015 BKN022 03/01 Q1021 RMK      ATIS VIC=
0191101560999992015010616504+53805+010719FM-15+001699999V0201601V004110082319N009999199+00301+00101999999ADDGA1021+004271999GA2071+008231999GE19MSL   +99999+99999GF199999021999004271999999MA1102101999999REMMET084METAR EDHL 061650Z 16008KT 130V190 9999 FEW014 BKN027 03/01 Q1021 RMK      ATIS WHI=
0191101560999992015010617204+53805+010719FM-15+001699999V0201601V004110079219N009000199+00301+00101999999ADDGA1041+004271999GA2071+007921999GE19MSL   +99999+99999GF199999041999004271999999MA1102101999999REMMET084METAR EDHL 061720Z 16008KT 120V200 9000 SCT014 BKN026 03/01 Q1021 RMK      ATIS X-R=
0191101560999992015010617504+53805+010719FM-15+001699999V0201601V003610061019N008000199+00301+00101999999ADDGA1041+004271999GA2071+006101999GE19MSL   +99999+99999GF199999041999004271999999MA1102101999999REMMET084METAR EDHL 061750Z 16007KT 130V190 8000 SCT014 BKN020 03/01 Q1021 RMK      ATIS YAN=
0168101560999992015010618204+53805+010719FM-15+001699999V0201501V003110039619N008000199+00301+00101999999ADDGA1071+003961999GE19MSL   +99999+99999GF199999071999003961999999MA1102101999999REMMET077METAR EDHL 061820Z 15006KT 120V190 8000 BKN013 03/01 Q1021 RMK ATIS      ZUL=
0168101560999992015010618504+53805+010719FM-15+001699999V0201501V003610042719N009000199+00301+00101999999ADDGA1071+004271999GE19MSL   +99999+99999GF199999071999004271999999MA1102101999999REMMET077METAR EDHL 061850Z 15007KT 120V190 9000 BKN014 03/01 Q1021 RMK ATIS      ALF=
0168101560999992015010619204+53805+010719FM-15+001699999V0201601V004610042719N009000199+00301+00101999999ADDGA1071+004271999GE19MSL   +99999+99999GF199999071999004271999999MA1102001999999REMMET077METAR EDHL 061920Z 16009KT 120V190 9000 BKN014 03/01 Q1020 RMK ATIS      BRA=
0155101560999992015010619504+53805+010719FM-15+001699999V0201601N005110042719N009000199+00301+00101999999ADDGA1071+004271999GE19MSL   +99999+99999GF199999071999004271999999MA1102001999999REMMET064METAR EDHL 061950Z 16010KT 9000 BKN014 03/01 Q1020 RMK ATIS CHA=
0168101560999992015010620204+53805+010719FM-15+001699999V0201701V004110039619N009000199+00201+00001999999ADDGA1071+003961999GE19MSL   +99999+99999GF199999071999003961999999MA1102001999999REMMET077METAR EDHL 062020Z 17008KT 130V200 9000 BKN013 02/00 Q1020 RMK ATIS      DEL=
0168101560999992015010620504+53805+010719FM-15+001699999V0201701V003610036619N008000199+00201+00001999999ADDGA1071+003661999GE19MSL   +99999+99999GF199999071999003661999999MA1102001999999REMMET077METAR EDHL 062050Z 17007KT 140V200 8000 BKN012 02/00 Q1020 RMK ATIS      ECH=
0168101560999992015010705504+53805+010719FM-15+001699999V0202701V003110015219N007000199+00401+00401999999ADDGA1071+001521999GE19MSL   +99999+99999GF199999071999001521999999MA1102001999999REMMET077METAR EDHL 070550Z 27006KT 240V300 7000 BKN005 04/04 Q1020 RMK ATIS      ALF=
0191101560999992015010706204+53805+010719FM-15+001699999V0202701V002610015219N008000199+00401+00401999999ADDGA1071+001521999GA2041+006711999GE19MSL   +99999+99999GF199999071999001521999999MA1102101999999REMMET084METAR EDHL 070620Z 27005KT 240V310 8000 BKN005 SCT022 04/04 Q1021 RMK      ATIS BRA=
0183101560999992015010706504+53805+010719FM-15+001699999V0202601N002110018319N008000199+00501+00401999999ADDGA1071+001831999GA2041+007621999GE19MSL   +99999+99999GF199999071999001831999999MA1102101999999REMMET076METAR EDHL 070650Z 26004KT 8000 BKN006 SCT025 05/04 Q1021 RMK ATIS      CHA=
0191101560999992015010707204+53805+010719FM-15+001699999V0202601V002610094519N009999199+00501+00401999999ADDGA1021+002131999GA2071+009451999GE19MSL   +99999+99999GF199999021999002131999999MA1102201999999REMMET084METAR EDHL 070720Z 26005KT 240V300 9999 FEW007 BKN031 05/04 Q1022 RMK      ATIS DEL=
0183101560999992015010707504+53805+010719FM-15+001699999V0202601N003110100619N009999199+00501+00401999999ADDGA1021+001521999GA2071+010061999GE19MSL   +99999+99999GF199999021999001521999999MA1102201999999REMMET076METAR EDHL 070750Z 26006KT 9999 FEW005 BKN033 05/04 Q1022 RMK ATIS      ECH=
0168101560999992015010708204+53805+010719FM-15+001699999V0202701V003119999999N009999199+00501+00401999999ADDGA1041+010061999GE19MSL   +99999+99999GF199999041999010061999999MA1102201999999REMMET077METAR EDHL 070820Z 27006KT 240V300 9999 SCT033 05/04 Q1022 RMK ATIS      FOX=
0155101560999992015010708504+53805+010719FM-15+001699999V0202701N003119999999N009999199+00501+00401999999ADDGA1041+010061999GE19MSL   +99999+99999GF199999041999010061999999MA1102201999999REMMET064METAR EDHL 070850Z 27006KT 9999 SCT033 05/04 Q1022 RMK ATIS GOL=
0168101560999992015010709204+53805+010719FM-15+001699999V0202701V002619999999N009999199+00501+00401999999ADDGA1021+007321999GE19MSL   +99999+99999GF199999021999007321999999MA1102301999999REMMET077METAR EDHL 070920Z 27005KT 250V310 9999 FEW024 05/04 Q1023 RMK ATIS      HOT=
0085101560999992015010709504+53805+010719FM-15+001699999V0202601N004119999999Y999999999+00601+00401999999ADDMA1102301999999REMMET058METAR EDHL 070950Z 26008KT CAVOK 06/04 Q1023 RMK ATIS IND=
0085101560999992015010710204+53805+010719FM-15+001699999V0202601N004619999999Y999999999+00601+00401999999ADDMA1102301999999REMMET058METAR EDHL 071020Z 26009KT CAVOK 06/04 Q1023 RMK ATIS JUL=
0093101560999992015010710504+53805+010719FM-15+001699999V0202601V004619999999Y999999999+00601+00301999999ADDMA1102301999999REMMET066METAR EDHL 071050Z 26009KT 240V310 CAVOK 06/03 Q1023 RMK ATIS KIL=
0183101560999992015010711204+53805+010719FM-15+001699999V0202501N00461012191CN009999199+00601+00401999999ADDGA1021+007621999GA2041+012191999GE19MSL   +99999+99999GF199999021999007621999999MA1102301999999REMMET076METAR EDHL 071120Z 25009KT 9999 FEW025 SCT040 06/04 Q1023 RMK ATIS      LIM=
0183101560999992015010711504+53805+010719FM-15+001699999V0202601N00511010671CN009999199+00601+00401999999ADDGA1041+003661999GA2041+010671999GE19MSL   +99999+99999GF199999041999003661999999MA1102301999999REMMET076METAR EDHL 071150Z 26010KT 9999 SCT012 SCT035 06/04 Q1023 RMK ATIS      MIK=
0183101560999992015010712204+53805+010719FM-15+001699999V0202601N004610048819N009999199+00601+00401999999ADDGA1021+003961999GA2071+004881999GE19MSL   +99999+99999GF199999021999003961999999MA1102301999999REMMET076METAR EDHL 071220Z 26009KT 9999 FEW013 BKN016 06/04 Q1023 RMK ATIS      NOV=
0183101560999992015010712504+53805+010719FM-15+001699999V0202601N00571008531CN009999199+00601+00301999999ADDGA1041+004571999GA2041+008531999GE19MSL   +99999+99999GF199999041999004571999999MA1102301999999REMMET076METAR EDHL 071250Z 26011KT 9999 SCT015 SCT028 06/03 Q1023 RMK ATIS      OSC=
0183101560999992015010713204+53805+010719FM-15+001699999V0202601N00461010971CN009999199+00701+00401999999ADDGA1041+004881999GA2041+010971999GE19MSL   +99999+99999GF199999041999004881999999MA1102301999999REMMET076METAR EDHL 071320Z 26009KT 9999 SCT016 SCT036 07/04 Q1023 RMK ATIS      PAP=
0183101560999992015010713504+53805+010719FM-15+001699999V0202501N00571010671CN009999199+00701+00301999999ADDGA1041+006101999GA2041+010671999GE19MSL   +99999+99999GF199999041999006101999999MA1102301999999REMMET076METAR EDHL 071350Z 25011KT 9999 SCT020 SCT035 07/03 Q1023 RMK ATIS      QUE=
0183101560999992015010714204+53805+010719FM-15+001699999V0202601N005110106719N009999199+00601+00301999999ADDGA1021+008231999GA2071+010671999GE19MSL   +99999+99999GF199999021999008231999999MA1102401999999REMMET076METAR EDHL 071420Z 26010KT 9999 FEW027 BKN035 06/03 Q1024 RMK ATIS      ROM=
0155101560999992015010714504+53805+010719FM-15+001699999V0202401N004119999999N009999199+00601+00201999999ADDGA1041+010671999GE19MSL   +99999+99999GF199999041999010671999999MA1102401999999REMMET064METAR EDHL 071450Z 24008KT 9999 SCT035 06/02 Q1024 RMK ATIS SIE=
0155101560999992015010715204+53805+010719FM-15+001699999V0202401N003119999999N009999199+00401+00201999999ADDGA1021+007621999GE19MSL   +99999+99999GF199999021999007621999999MA1102401999999REMMET064METAR EDHL 071520Z 24006KT 9999 FEW025 04/02 Q1024 RMK ATIS TAN=
0155101560999992015010715504+53805+010719FM-15+001699999V0202101N003119999999N009999199+00401+00201999999ADDGA1041+007321999GE19MSL   +99999+99999GF199999041999007321999999MA1102401999999REMMET064METAR EDHL 071550Z 21006KT 9999 SCT024 04/02 Q1024 RMK ATIS UNI=
0155101560999992015010716204+53805+010719FM-15+001699999V0202101N002119999999N009999199+00501+00201999999ADDGA1041+007011999GE19MSL   +99999+99999GF199999041999007011999999MA1102401999999REMMET064METAR EDHL 071620Z 21004KT 9999 SCT023 05/02 Q1024 RMK ATIS VIC=
0155101560999992015010716504+53805+010719FM-15+001699999V0202101N003110067119N009999199+00401+00201999999ADDGA1071+006711999GE19MSL   +99999+99999GF199999071999006711999999MA1102401999999REMMET064METAR EDHL 071650Z 21006KT 9999 BKN022 04/02 Q1024 RMK ATIS WHI=
0183101560999992015010717204+53805+010719FM-15+001699999V0202201N004110128019N009999199+00501+00201999999ADDGA1021+006101999GA2071+012801999GE19MSL   +99999+99999GF199999021999006101999999MA1102301999999REMMET076METAR EDHL 071720Z 22008KT 9999 FEW020 BKN042 05/02 Q1023 RMK ATIS      X-R=
0155101560999992015010717504+53805+010719FM-15+001699999V0202201N004110064019N009999199+00401+00201999999ADDGA1071+006401999GE19MSL   +99999+99999GF199999071999006401999999MA1102301999999REMMET064METAR EDHL 071750Z 22008KT 9999 BKN021 04/02 Q1023 RMK ATIS YAN=
0165101560999992015010718204+53805+010719FM-15+001699999V0202101N003610082319N009999199+00401+00201999999ADDGA1071+008231999GE19MSL   +99999+99999GF199999071999008231999999MA1102301999999MW1511REMMET068METAR EDHL 071820Z 21007KT 9999 -DZ BKN027 04/02 Q1023 RMK ATIS ZUL=
0155101560999992015010718504+53805+010719FM-15+001699999V0202201N003610100619N009999199+00401+00301999999ADDGA1071+010061999GE19MSL   +99999+99999GF199999071999010061999999MA1102301999999REMMET064METAR EDHL 071850Z 22007KT 9999 BKN033 04/03 Q1023 RMK ATIS ALF=
0183101560999992015010719204+53805+010719FM-15+001699999V0202101N003610106719N009999199+00401+00301999999ADDGA1021+005491999GA2071+010671999GE19MSL   +99999+99999GF199999021999005491999999MA1102301999999REMMET076METAR EDHL 071920Z 21007KT 9999 FEW018 BKN035 04/03 Q1023 RMK ATIS      BRA=
0155101560999992015010719504+53805+010719FM-15+001699999V0202101N003610085319N009999199+00401+00301999999ADDGA1071+008531999GE19MSL   +99999+99999GF199999071999008531999999MA1102301999999REMMET064METAR EDHL 071950Z 21007KT 9999 BKN028 04/03 Q1023 RMK ATIS CHA=
0155101560999992015010720204+53805+010719FM-15+001699999V0202101N004110076219N009999199+00401+00201999999ADDGA1071+007621999GE19MSL   +99999+99999GF199999071999007621999999MA1102301999999REMMET064METAR EDHL 072020Z 21008KT 9999 BKN025 04/02 Q1023 RMK ATIS DEL=
0183101560999992015010720504+53805+010719FM-15+001699999V0202101N004110146319N009999199+00401+00201999999ADDGA1021+007321999GA2071+014631999GE19MSL   +99999+99999GF199999021999007321999999MA1102301999999REMMET076METAR EDHL 072050Z 21008KT 9999 FEW024 BKN048 04/02 Q1023 RMK ATIS      ECH=
0182101560999992015010805504+53805+010719FM-15+001699999V0202101N005110015219N003700199+00301+00201999999ADDGA1071+001521999GE19MSL   +99999+99999GF199999071999001521999999MA1101701999999MW1101MW2531REMMET079METAR COR EDHL 080550Z 21010KT 3700 DZ BR BKN005 03/02 Q1017 RMK ATIS      BRA=
0179101560999992015010806204+53805+010719FM-15+001699999V0202101N004610015219N003300199+00301+00301999999ADDGA1071+001521999GE19MSL   +99999+99999GF199999071999001521999999MA1101701999999MW1101MW2511REMMET076METAR EDHL 080620Z 21009KT 3300 -DZ BR BKN005 03/03 Q1017 RMK ATIS      CHA=
0179101560999992015010806504+53805+010719FM-15+001699999V0202101N004610012219N003200199+00301+00301999999ADDGA1071+001221999GE19MSL   +99999+99999GF199999071999001221999999MA1101701999999MW1101MW2511REMMET076METAR EDHL 080650Z 21009KT 3200 -DZ BR BKN004 03/03 Q1017 RMK ATIS      DEL=
0179101560999992015010807204+53805+010719FM-15+001699999V0202101N005110015219N005000199+00401+00301999999ADDGA1071+001521999GE19MSL   +99999+99999GF199999071999001521999999MA1101701999999MW1101MW2511REMMET076METAR EDHL 080720Z 21010KT 5000 -DZ BR BKN005 04/03 Q1017 RMK ATIS      ECH=
0179101560999992015010807504+53805+010719FM-15+001699999V0202101N004610018319N002800199+00401+00301999999ADDGA1071+001831999GE19MSL   +99999+99999GF199999071999001831999999MA1101701999999MW1101MW2511REMMET076METAR EDHL 080750Z 21009KT 2800 -DZ BR BKN006 04/03 Q1017 RMK ATIS      FOX=
0164101560999992015010808204+53805+010719FM-15+001699999V0202201N004610015219N002400199+00401+00401999999ADDGA1071+001521999GE19MSL   +99999+99999GF199999071999001521999999MA1101601999999MW1101REMMET067METAR EDHL 080820Z 22009KT 2400 BR BKN005 04/04 Q1016 RMK ATIS GOL=
0179101560999992015010808504+53805+010719FM-15+001699999V0202201N004610018319N002000199+00401+00401999999ADDGA1071+001831999GE19MSL   +99999+99999GF199999071999001831999999MA1101601999999MW1101MW2511REMMET076METAR EDHL 080850Z 22009KT 2000 -DZ BR BKN006 04/04 Q1016 RMK ATIS      HOT=
0164101560999992015010809204+53805+010719FM-15+001699999V0202101N004610012219N003300199+00501+00401999999ADDGA1071+001221999GE19MSL   +99999+99999GF199999071999001221999999MA1101601999999MW1101REMMET067METAR EDHL 080920Z 21009KT 3300 BR BKN004 05/04 Q1016 RMK ATIS IND=
0177101560999992015010809504+53805+010719FM-15+001699999V0202201V004610012219N004200199+00501+00401999999ADDGA1071+001221999GE19MSL   +99999+99999GF199999071999001221999999MA1101601999999MW1101REMMET080METAR EDHL 080950Z 22009KT 170V250 4200 BR BKN004 05/04 Q1016 RMK ATIS      JUL=
0179101560999992015010810204+53805+010719FM-15+001699999V0202201N004610015219N003100199+00501+00501999999ADDGA1071+001521999GE19MSL   +99999+99999GF199999071999001521999999MA1101501999999MW1101MW2511REMMET076METAR EDHL 081020Z 22009KT 3100 -DZ BR BKN005 05/05 Q1015 RMK ATIS      KIL=
0168101560999992015010810504+53805+010719FM-15+001699999V0202201V005110018319N007000199+00501+00501999999ADDGA1071+001831999GE19MSL   +99999+99999GF199999071999001831999999MA1101501999999REMMET077METAR EDHL 081050Z 22010KT 180V250 7000 BKN006 05/05 Q1015 RMK ATIS      LIM=
0155101560999992015010811204+53805+010719FM-15+001699999V0202301N005110018319N007000199+00601+00501999999ADDGA1071+001831999GE19MSL   +99999+99999GF199999071999001831999999MA1101501999999REMMET064METAR EDHL 081120Z 23010KT 7000 BKN006 06/05 Q1015 RMK ATIS MIK=
0173101560999992015010811504+53805+010719FM-15+001699999V0202301N006210015219N002800199+00601+00501999999ADDGA1071+001521999GE19MSL   +99999+99999GF199999071999001521999999MA1101501999999MW1101MW2531REMMET070METAR EDHL 081150Z 23012KT 2800 DZ BR BKN005 06/05 Q1015 RMK ATIS NOV=
0174101560999992015010812204+53805+010719FM-15+001699999V0202301N006210015219N003600199+00601+00601999999ADDGA1071+001521999GE19MSL   +99999+99999GF199999071999001521999999MA1101401999999MW1101REMMET077METAR EDHL 081220Z 23012KT 3600 BR BKN005 06/06 Q1014 REDZ RMK ATIS      OSC=
0155101560999992015010812504+53805+010719FM-15+001699999V0202201N005110021319N007000199+00601+00601999999ADDGA1071+002131999GE19MSL   +99999+99999GF199999071999002131999999MA1101301999999REMMET064METAR EDHL 081250Z 22010KT 7000 BKN007 06/06 Q1013 RMK ATIS PAP=
0165101560999992015010813204+53805+010719FM-15+001699999V0202201N004110015219N009999199+00601+00601999999ADDGA1071+001521999GE19MSL   +99999+99999GF199999071999001521999999MA1101301999999MW1511REMMET068METAR EDHL 081320Z 22008KT 9999 -DZ BKN005 06/06 Q1013 RMK ATIS QUE=
0179101560999992015010813504+53805+010719FM-15+001699999V0202201N004610012219N005000199+00701+00601999999ADDGA1071+001221999GE19MSL   +99999+99999GF199999071999001221999999MA1101301999999MW1101MW2511REMMET076METAR EDHL 081350Z 22009KT 5000 -DZ BR BKN004 07/06 Q1013 RMK ATIS      ROM=
0164101560999992015010814204+53805+010719FM-15+001699999V0202301N005110015219N002000199+00701+00601999999ADDGA1071+001521999GE19MSL   +99999+99999GF199999071999001521999999MA1101301999999MW1531REMMET067METAR EDHL 081420Z 23010KT 2000 DZ BKN005 07/06 Q1013 RMK ATIS SIE=
0184101560999992015010814504+53805+010719FM-15+001699999V0202301N005110015219N003000199+00701+00601999999ADDGA1071+001521999GE19MSL   +99999+99999GF199999071999001521999999MA1101301999999MW1101MW2611REMMET081METAR EDHL 081450Z 23010KT 3000 -RA BR BKN005 07/06 Q1013 REDZ RMK      ATIS TAN=
0165101560999992015010815204+53805+010719FM-15+001699999V0202201N003610021319N008000199+00701+00601999999ADDGA1071+002131999GE19MSL   +99999+99999GF199999071999002131999999MA1101301999999MW1611REMMET068METAR EDHL 081520Z 22007KT 8000 -RA BKN007 07/06 Q1013 RMK ATIS UNI=
0192101560999992015010815504+53805+010719FM-15+001699999V0202201N003610021319N008000199+00701+00601999999ADDGA1071+002131999GA2071+004881999GE19MSL   +99999+99999GF199999071999002131999999MA1101201999999MW1631REMMET079METAR EDHL 081550Z 22007KT 8000 RA BKN007 BKN016 07/06 Q1012 RMK ATIS      VIC=
0192101560999992015010816204+53805+010719FM-15+001699999V0202601N003610042719N009000199+00701+00601999999ADDGA1071+004271999GA2071+009141999GE19MSL   +99999+99999GF199999071999004271999999MA1101301999999MW1631REMMET079METAR EDHL 081620Z 26007KT 9000 RA BKN014 BKN030 07/06 Q1013 RMK ATIS      WHI=
0200101560999992015010816504+53805+010719FM-15+001699999V0202801V004110030519N009000199+00601+00501999999ADDGA1071+003051999GA2071+009451999GE19MSL   +99999+99999GF199999071999003051999999MA1101301999999MW1631REMMET087METAR EDHL 081650Z 28008KT 250V330 9000 RA BKN010 BKN031 06/05 Q1013      RMK ATIS X-R=
0178101560999992015010817204+53805+010719FM-15+001699999V0202901V003610061019N009999199+00601+00501999999ADDGA1071+006101999GE19MSL   +99999+99999GF199999071999006101999999MA1101301999999MW1611REMMET081METAR EDHL 081720Z 29007KT 250V330 9999 -RA BKN020 06/05 Q1013 RMK      ATIS YAN=
0201101560999992015010817504+53805+010719FM-15+001699999V0202801V002110076219N009999199+00501+00401999999ADDGA1041+003051999GA2071+007621999GE19MSL   +99999+99999GF199999041999003051999999MA1101301999999MW1611REMMET088METAR EDHL 081750Z 28004KT 230V320 9999 -RA SCT010 BKN025 05/04 Q1013      RMK ATIS ZUL=
0201101560999992015010818204+53805+010719FM-15+001699999V0202801V002610018319N009999199+00501+00501999999ADDGA1071+001831999GA2071+003661999GE19MSL   +99999+99999GF199999071999001831999999MA1101301999999MW1611REMMET088METAR EDHL 081820Z 28005KT 240V310 9999 -RA BKN006 BKN012 05/05 Q1013      RMK ATIS ALF=
0201101560999992015010818504+53805+010719FM-15+001699999V0202701V004110021319N009999199+00501+00501999999ADDGA1071+002131999GA2071+008231999GE19MSL   +99999+99999GF199999071999002131999999MA1101401999999MW1611REMMET088METAR EDHL 081850Z 27008KT 240V310 9999 -RA BKN007 BKN027 05/05 Q1014      RMK ATIS BRA=
0193101560999992015010819204+53805+010719FM-15+001699999V0202701N003110024419N009999199+00501+00501999999ADDGA1071+002441999GA2071+008231999GE19MSL   +99999+99999GF199999071999002441999999MA1101401999999MW1611REMMET080METAR EDHL 081920Z 27006KT 9999 -RA BKN008 BKN027 05/05 Q1014 RMK ATIS      CHA=
0155101560999992015010819504+53805+010719FM-15+001699999V0202601N003610018319N009999199+00501+00501999999ADDGA1071+001831999GE19MSL   +99999+99999GF199999071999001831999999MA1101401999999REMMET064METAR EDHL 081950Z 26007KT 9999 BKN006 05/05 Q1014 RMK ATIS DEL=
0155101560999992015010820204+53805+010719FM-15+001699999V0202601N005110024419N009999199+00601+00501999999ADDGA1071+002441999GE19MSL   +99999+99999GF199999071999002441999999MA1101401999999REMMET064METAR EDHL 082020Z 26010KT 9999 BKN008 06/05 Q1014 RMK ATIS ECH=
0191101560999992015010820504+53805+010719FM-15+001699999V0202701V005110030519N009999199+00601+00501999999ADDGA1071+003051999GA2071+005791999GE19MSL   +99999+99999GF199999071999003051999999MA1101501999999REMMET084METAR EDHL 082050Z 27010KT 240V310 9999 BKN010 BKN019 06/05 Q1015 RMK      ATIS FOX=
0168101560999992015010905504+53805+010719FM-15+001699999V0202301V005710054919N009999199+00601+00301999999ADDGA1071+005491999GE19MSL   +99999+99999GF199999071999005491999999MA1101001999999REMMET077METAR EDHL 090550Z 23011KT 190V250 9999 BKN018 06/03 Q1010 RMK ATIS      ALF=
0194101560999992015010906204+53805+010719FM-15+001699999V0202301N008810219519N009999199+00601+00301999999ADDGA1041+006711999GA2071+021951999GE19MSL   +99999+99999GF199999041999006711999999MA1100901999999OC101491REMMET079METAR EDHL 090620Z 23017G29KT 9999 SCT022 BKN072 06/03 Q1009 RMK ATIS      BRA=
0189101560999992015010906504+53805+010719FM-15+001699999V0202201V008210070119N008000199+00601+00301999999ADDGA1071+007011999GE19MSL   +99999+99999GF199999071999007011999999MA1100701999999MW1511OC101491REMMET084METAR EDHL 090650Z 22016G29KT 190V250 8000 -DZ BKN023 06/03 Q1007 RMK      ATIS CHA=
0179101560999992015010907204+53805+010719FM-15+001699999V0202301N010310033519N002700199+00601+00401999999ADDGA1071+003351999GE19MSL   +99999+99999GF199999071999003351999999MA1100601999999MW1101MW2611REMMET076METAR EDHL 090720Z 23020KT 2700 -RA BR BKN011 06/04 Q1006 RMK ATIS      DEL=
0193101560999992015010907504+53805+010719FM-15+001699999V0202301N008810027419N003200199+00601+00501999999ADDGA1041+001831999GA2071+002741999GE19MSL   +99999+99999GF199999041999001831999999MA1100501999999MW1511REMMET080METAR EDHL 090750Z 23017KT 3200 -DZ SCT006 BKN009 06/05 Q1005 RMK ATIS      ECH=
0202101560999992015010908204+53805+010719FM-15+001699999V0202301N009810030519N003600199+00601+00501999999ADDGA1041+002131999GA2071+003051999GE19MSL   +99999+99999GF199999041999002131999999MA1100401999999MW1101MW2611REMMET083METAR EDHL 090820Z 23019KT 3600 -RA BR SCT007 BKN010 06/05 Q1004 RMK      ATIS FOX=
0193101560999992015010908504+53805+010719FM-15+001699999V0202301N009310036619N007000199+00601+00601999999ADDGA1041+001831999GA2071+003661999GE19MSL   +99999+99999GF199999041999001831999999MA1100301999999MW1611REMMET080METAR EDHL 090850Z 23018KT 7000 -RA SCT006 BKN012 06/06 Q1003 RMK ATIS      GOL=
0183101560999992015010909204+53805+010719FM-15+001699999V0202301N012410042719N009999199+00701+00601999999ADDGA1041+002741999GA2071+004271999GE19MSL   +99999+99999GF199999041999002741999999MA1100201999999REMMET076METAR EDHL 090920Z 23024KT 9999 SCT009 BKN014 07/06 Q1002 RMK ATIS      HOT=
0165101560999992015010909504+53805+010719FM-15+001699999V0202401N013910045719N009999199+00801+00601999999ADDGA1071+004571999GE19MSL   +99999+99999GF199999071999004571999999MA1100101999999MW1611REMMET068METAR EDHL 090950Z 24027KT 9999 -RA BKN015 08/06 Q1001 RMK ATIS IND=
0202101560999992015010910204+53805+010719FM-15+001699999V0202501V015410045719N002000199+00801+00601999999ADDGA1071+004571091GE19MSL   +99999+99999GF199999071999004571999999MA1100101999999MW1101MW2971OC102271REMMET091METAR EDHL 091020Z 25030G44KT 230V290 2000 +TSRA BR BKN015CB 08/06      Q1001 RMK ATIS JUL=
0192101560999992015010910504+53805+010719FM-15+001699999V0202801V009819999999N009999199+00701+00401999999ADDGA1021+004571091GE19MSL   +99999+99999GF199999021999004571999999MA1100101999999MW1131OC101851REMMET087METAR EDHL 091050Z 28019G36KT 240V320 9999 VCTS FEW015CB 07/04 Q1001      RMK ATIS KIL=
0207101560999992015010911204+53805+010719FM-15+001699999V0202801V009310115819N009999199+00901+00501999999ADDGA1041+008231999GA2071+011581999GE19MSL   +99999+99999GF199999041999008231999999MA1100101999999OC101601REMMET092METAR EDHL 091120Z 28018G31KT 250V320 9999 SCT027 BKN038 09/05 Q1001      RETS RMK ATIS LIM=
0215101560999992015010911294+53805+010719FM-16+001699999V0202701V009810067119N009999199+00901+00501999999ADDGA1041+003961091GA2071+006711999GE19MSL   +99999+99999GF199999041999003961999999MA1100101999999MW1811OC101961REMMET094SPECI EDHL 091129Z 27019G38KT 240V300 9999 SHRA SCT013CB BKN022 09/05      Q1001 RMK ATIS MIK=
0202101560999992015010911504+53805+010719FM-15+001699999V0202801V007210109719N009999199+00901+00501999999ADDGA1041+007621999GA2071+010971999GE19MSL   +99999+99999GF199999041999007621999999MA1100101999999MW1161REMMET089METAR EDHL 091150Z 28014KT 250V320 9999 VCSH SCT025 BKN036 09/05 Q1001      RMK ATIS NOV=
0202101560999992015010912204+53805+010719FM-15+001699999V0202801V00771013721CN009999199+00801+00301999999ADDGA1021+007011999GA2041+013721999GE19MSL   +99999+99999GF199999021999007011999999MA1100101999999OC101341REMMET087METAR EDHL 091220Z 28015G26KT 250V320 9999 FEW023 SCT045 08/03 Q1001      RMK ATIS OSC=
0202101560999992015010912504+53805+010719FM-15+001699999V0202801V006710268219N009999199+00801+00401999999ADDGA1041+008231999GA2071+026821999GE19MSL   +99999+99999GF199999041999008231999999MA1100201999999OC101341REMMET087METAR EDHL 091250Z 28013G26KT 240V310 9999 SCT027 BKN088 08/04 Q1002      RMK ATIS PAP=
0202101560999992015010913204+53805+010719FM-15+001699999V0202901V007210106719N009999199+00801+00201999999ADDGA1071+010671999GA2071+029261999GE19MSL   +99999+99999GF199999071999010671999999MA1100201999999OC101391REMMET087METAR EDHL 091320Z 29014G27KT 230V330 9999 BKN035 BKN096 08/02 Q1002      RMK ATIS QUE=
0202101560999992015010913504+53805+010719FM-15+001699999V0202801V007210112819N009999199+00801+00301999999ADDGA1071+011281999GA2071+028961999GE19MSL   +99999+99999GF199999071999011281999999MA1100301999999OC101541REMMET087METAR EDHL 091350Z 28014G30KT 250V340 9999 BKN037 BKN095 08/03 Q1003      RMK ATIS ROM=
0189101560999992015010914204+53805+010719FM-15+001699999V0202801V007210076219N009000199+00801+00401999999ADDGA1071+007621999GE19MSL   +99999+99999GF199999071999007621999999MA1100301999999MW1611OC101341REMMET084METAR EDHL 091420Z 28014G26KT 230V340 9000 -RA BKN025 08/04 Q1003 RMK      ATIS SIE=
0179101560999992015010914504+53805+010719FM-15+001699999V0202801V008210091419N009999199+00801+00301999999ADDGA1071+009141999GE19MSL   +99999+99999GF199999071999009141999999MA1100301999999OC101801REMMET080METAR EDHL 091450Z 28016G35KT 220V340 9999 BKN030 08/03 Q1003 RMK ATIS      TAN=
0179101560999992015010915204+53805+010719FM-15+001699999V0202801V008210125019N009999199+00801+00301999999ADDGA1071+012501999GE19MSL   +99999+99999GF199999071999012501999999MA1100401999999OC101391REMMET080METAR EDHL 091520Z 28016G27KT 250V320 9999 BKN041 08/03 Q1004 RMK ATIS      UNI=
0179101560999992015010915504+53805+010719FM-15+001699999V0202701V007210112819N009999199+00801+00301999999ADDGA1071+011281999GE19MSL   +99999+99999GF199999071999011281999999MA1100401999999OC101391REMMET080METAR EDHL 091550Z 27014G27KT 240V320 9999 BKN037 08/03 Q1004 RMK ATIS      VIC=
0184101560999992015010916204+53805+010719FM-15+001699999V0202801V006210125019N009999199+00801+00301999999ADDGA1071+012501999GE19MSL   +99999+99999GF199999071999012501999999MA1100401999999OC101181REMMET085METAR EDHL 091620Z 28012G23KT 220V330 9999 BKN041 08/03 Q1004 REDZ      RMK ATIS WHI=
0202101560999992015010916504+53805+010719FM-15+001699999V0202801V008810076219N009999199+00801+00401999999ADDGA1071+007621999GA2071+014631999GE19MSL   +99999+99999GF199999071999007621999999MA1100501999999OC101491REMMET087METAR EDHL 091650Z 28017G29KT 240V310 9999 BKN025 BKN048 08/04 Q1005      RMK ATIS X-R=
0184101560999992015010917204+53805+010719FM-15+001699999V0202701V008210076219N009999199+00801+00401999999ADDGA1071+007621999GA2071+036581999GE19MSL   +99999+99999GF199999071999007621999999MA1100401999999OC101441REMMET069METAR EDHL 091720Z 27016G28KT 240V310 9999 BKN025 BKN120 08/04 Q1004=
0184101560999992015010917504+53805+010719FM-15+001699999V0202701V008210079219N009999199+00801+00401999999ADDGA1071+007921999GA2071+014941999GE19MSL   +99999+99999GF199999071999007921999999MA1100401999999OC101391REMMET069METAR EDHL 091750Z 27016G27KT 240V320 9999 BKN026 BKN049 08/04 Q1004=
0212101560999992015010918204+53805+010719FM-15+001699999V0202701V006710067119N009999199+00801+00401999999ADDGA1071+006711999GA2071+013411999GE19MSL   +99999+99999GF199999071999006711999999MA1100401999999MW1611OC101391REMMET091METAR EDHL 091820Z 27013G27KT 240V310 9999 -RA BKN022 BKN044 08/04      Q1004 RMK ATIS ALF=
0179101560999992015010918504+53805+010719FM-15+001699999V0202701V008810076219N009999199+00801+00401999999ADDGA1071+007621999GE19MSL   +99999+99999GF199999071999007621999999MA1100501999999OC101491REMMET080METAR EDHL 091850Z 27017G29KT 230V330 9999 BKN025 08/04 Q1005 RMK ATIS      BRA=
0202101560999992015010919204+53805+010719FM-15+001699999V0202701V008810076219N009999199+00801+00401999999ADDGA1071+007621999GA2071+014941999GE19MSL   +99999+99999GF199999071999007621999999MA1100501999999OC101601REMMET087METAR EDHL 091920Z 27017G31KT 240V330 9999 BKN025 BKN049 08/04 Q1005      RMK ATIS CHA=
0188101560999992015010919504+53805+010719FM-15+001699999V0202701V009810076219N009000199+00701+00301999999ADDGA1071+007621999GE19MSL   +99999+99999GF199999071999007621999999MA1100401999999MW1631OC101901REMMET083METAR EDHL 091950Z 27019G37KT 240V310 9000 RA BKN025 07/03 Q1004 RMK      ATIS DEL=
0183101560999992015010920204+53805+010719FM-15+001699999V0202901V006710067119N005000199+00601+00501999999ADDGA1071+006711999GE19MSL   +99999+99999GF199999071999006711999999MA1100401999999MW1611REMMET086METAR EDHL 092020Z 29013KT 260V350 5000 -RA BKN022 06/05 Q1004 REDZ      RMK ATIS ECH=
0178101560999992015010920504+53805+010719FM-15+001699999V0202701V006210076219N009999199+00701+00501999999ADDGA1071+007621999GE19MSL   +99999+99999GF199999071999007621999999MA1100401999999MW1611REMMET081METAR EDHL 092050Z 27012KT 240V320 9999 -RA BKN025 07/05 Q1004 RMK      ATIS FOX=
0177101560999992015011005504+53805+010719FM-15+001699999V0202701V006710024419N006000199+01101+01001999999ADDGA1071+002441999GE19MSL   +99999+99999GF199999071999002441999999MA1099901999999MW1631REMMET080METAR EDHL 100550Z 27013KT 240V310 6000 RA BKN008 11/10 Q0999 RMK ATIS      ALF=
0165101560999992015011006204+53805+010719FM-15+001699999V0202601N007710024419N009999199+01201+01001999999ADDGA1071+002441999GE19MSL   +99999+99999GF199999071999002441999999MA1099801999999MW1611REMMET068METAR EDHL 100620Z 26015KT 9999 -RA BKN008 12/10 Q0998 RMK ATIS BRA=
0178101560999992015011006504+53805+010719FM-15+001699999V0202601V009810030519N009999199+01201+01001999999ADDGA1071+003051999GE19MSL   +99999+99999GF199999071999003051999999MA1099801999999MW1511REMMET081METAR EDHL 100650Z 26019KT 240V320 9999 -DZ BKN010 12/10 Q0998 RMK      ATIS CHA=
0181101560999992015011007204+53805+010719FM-15+001699999V0202601N009310027419N006000199+01201+01001999999ADDGA1071+002741999GE19MSL   +99999+99999GF199999071999002741999999MA1099801999999MW1511OC101441REMMET076METAR EDHL 100720Z 26018G28KT 6000 -DZ BKN009 12/10 Q0998 RMK ATIS      DEL=
0185101560999992015011007504+53805+010719FM-15+001699999V0202601N010810030519N003100199+01101+01001999999ADDGA1071+003051999GE19MSL   +99999+99999GF199999071999003051999999MA1099701999999MW1611REMMET088METAR EDHL 100750Z 26021KT 3100 R25/1100V1600D -RA BKN010 11/10 Q0997      RMK ATIS ECH=
0180101560999992015011008204+53805+010719FM-15+001699999V0202601N009810030519N004800199+01101+01001999999ADDGA1071+003051999GE19MSL   +99999+99999GF199999071999003051999999MA1099701999999MW1511REMMET083METAR EDHL 100820Z 26019KT 4800 R25/1300D -DZ BKN010 11/10 Q0997 RMK      ATIS FOX=
0191101560999992015011008504+53805+010719FM-15+001699999V0202501N009810021319N003200199+01101+01101999999ADDGA1071+002131999GE19MSL   +99999+99999GF199999071999002131999999MA1099601999999MW1611OC101491REMMET086METAR EDHL 100850Z 25019G29KT 3200 R25/0900N -RA BKN007 11/11 Q0996      RMK ATIS GOL=
0191101560999992015011009204+53805+010719FM-15+001699999V0202601N010310036619N005000199+01201+01001999999ADDGA1071+003661999GE19MSL   +99999+99999GF199999071999003661999999MA1099601999999MW1611OC101541REMMET086METAR EDHL 100920Z 26020G30KT 5000 R25/1100N -RA BKN012 12/10 Q0996      RMK ATIS HOT=
0166101560999992015011009504+53805+010719FM-15+001699999V0202601N011810051819N009999199+01201+01001999999ADDGA1071+005181999GE19MSL   +99999+99999GF199999071999005181999999MA1099501999999OC101751REMMET067METAR EDHL 100950Z 26023G34KT 9999 BKN017 12/10 Q0995 RMK ATIS IND=
0219101560999992015011010204+53805+010719FM-15+001699999V0202601N011810042719N008000199+01101+01001999999ADDGA1071+004271999GA2071+006101999GE19MSL   +99999+99999GF199999071999004271999999MA1099501999999MW1511OC101801REMMET098METAR EDHL 101020Z 26023G35KT 8000 R25/1200V1800U -DZ BKN014 BKN020      11/10 Q0995 RMK ATIS JUL=
0166101560999992015011010504+53805+010719FM-15+001699999V0202601N011810064019N009999199+01201+00901999999ADDGA1071+006401999GE19MSL   +99999+99999GF199999071999006401999999MA1099401999999OC101751REMMET067METAR EDHL 101050Z 26023G34KT 9999 BKN021 12/09 Q0994 RMK ATIS KIL=
0191101560999992015011011204+53805+010719FM-15+001699999V0202501N011310036619N003200199+01101+01001999999ADDGA1071+003661999GE19MSL   +99999+99999GF199999071999003661999999MA1099401999999MW1611OC101651REMMET086METAR EDHL 101120Z 25022G32KT 3200 R25/0900N -RA BKN012 11/10 Q0994      RMK ATIS LIM=
0191101560999992015011011504+53805+010719FM-15+001699999V0202501N012410030519N003500199+01101+01001999999ADDGA1071+003051999GE19MSL   +99999+99999GF199999071999003051999999MA1099301999999MW1611OC101851REMMET086METAR EDHL 101150Z 25024G36KT 3500 R25/0900N -RA BKN010 11/10 Q0993      RMK ATIS MIK=
0197101560999992015011012204+53805+010719FM-15+001699999V0202501N012910027419N002800199+01101+01001999999ADDGA1071+002741999GE19MSL   +99999+99999GF199999071999002741999999MA1099201999999MW1581OC101961REMMET092METAR COR EDHL 101220Z 25025G38KT 2800 R25/0900N -RADZ BKN009 11/10      Q0992 RMK ATIS OSC=
0180101560999992015011012504+53805+010719FM-15+001699999V0202501N012410033519N006000199+01101+01001999999ADDGA1071+003351999GE19MSL   +99999+99999GF199999071999003351999999MA1099201999999MW1611REMMET083METAR EDHL 101250Z 25024KT 6000 R25/1100N -RA BKN011 11/10 Q0992 RMK      ATIS PAP=
0212101560999992015011013204+53805+010719FM-15+001699999V0202801V010310100619N009999199+01001+00601999999ADDGA1021+001521999GA2071+010061999GE19MSL   +99999+99999GF199999021999001521999999MA1099401999999MW1611OC102061REMMET091METAR EDHL 101320Z 28020G40KT 250V320 9999 -RA FEW005 BKN033 10/06      Q0994 RMK ATIS QUE=
0212101560999992015011013504+53805+010719FM-15+001699999V0202701V009310170719N009999199+00901+00501999999ADDGA1041+010061999GA2071+017071999GE19MSL   +99999+99999GF199999041999010061999999MA1099401999999MW1611OC101491REMMET091METAR EDHL 101350Z 27018G29KT 240V310 9999 -RA SCT033 BKN056 09/05      Q0994 RMK ATIS ROM=
0179101560999992015011014204+53805+010719FM-15+001699999V0202801V009810106719N009999199+00901+00401999999ADDGA1071+010671999GE19MSL   +99999+99999GF199999071999010671999999MA1099401999999OC101851REMMET080METAR EDHL 101420Z 28019G36KT 240V320 9999 BKN035 09/04 Q0994 RMK ATIS      SIE=
0179101560999992015011014504+53805+010719FM-15+001699999V0202801V009810097519N009999199+00901+00201999999ADDGA1071+009751999GE19MSL   +99999+99999GF199999071999009751999999MA1099501999999OC101801REMMET080METAR EDHL 101450Z 28019G35KT 250V340 9999 BKN032 09/02 Q0995 RMK ATIS      TAN=
0189101560999992015011015204+53805+010719FM-15+001699999V0202901V009310091419N009999199+00701+00201999999ADDGA1071+009141999GE19MSL   +99999+99999GF199999071999009141999999MA1099601999999MW1611OC101851REMMET084METAR EDHL 101520Z 29018G36KT 240V330 9999 -RA BKN030 07/02 Q0996 RMK      ATIS UNI=
0179101560999992015011015504+53805+010719FM-15+001699999V0202801V009310112819N009999199+00801+00201999999ADDGA1071+011281999GE19MSL   +99999+99999GF199999071999011281999999MA1099601999999OC101751REMMET080METAR EDHL 101550Z 28018G34KT 240V330 9999 BKN037 08/02 Q0996 RMK ATIS      VIC=
0179101560999992015011016204+53805+010719FM-15+001699999V0202801V008819999999N009999199+00701+00101999999ADDGA1041+010971999GE19MSL   +99999+99999GF199999041999010971999999MA1099701999999OC101961REMMET080METAR EDHL 101620Z 28017G38KT 240V320 9999 SCT036 07/01 Q0997 RMK ATIS      WHI=
0179101560999992015011016504+53805+010719FM-15+001699999V0202701V008819999999N009999199+00701+00101999999ADDGA1041+010671999GE19MSL   +99999+99999GF199999041999010671999999MA1099801999999OC101651REMMET080METAR EDHL 101650Z 27017G32KT 250V310 9999 SCT035 07/01 Q0998 RMK ATIS      X-R=
0180101560999992015011017204+53805+010719FM-15+001699999V0202701V009319999999N009999199+00701+00001999999ADDGA1041+012191999GE19MSL   +99999+99999GF199999041999012191999999MA1099801999999OC101901REMMET081METAR EDHL 101720Z 27018G37KT 220V330 9999 SCT040 07/M00 Q0998 RMK      ATIS YAN=
0180101560999992015011017504+53805+010719FM-15+001699999V0202701V009319999999N009999199+00601-00101999999ADDGA1041+012191999GE19MSL   +99999+99999GF199999041999012191999999MA1099901999999OC101541REMMET081METAR EDHL 101750Z 27018G30KT 240V330 9999 SCT040 06/M01 Q0999 RMK      ATIS ZUL=
0179101560999992015011018204+53805+010719FM-15+001699999V0202701V009819999999N009999199+00601+00001999999ADDGA1041+012501999GE19MSL   +99999+99999GF199999041999012501999999MA1099901999999OC101701REMMET080METAR EDHL 101820Z 27019G33KT 240V300 9999 SCT041 06/00 Q0999 RMK ATIS      ALF=
0166101560999992015011018504+53805+010719FM-15+001699999V0202701N009819999999N009999199+00601+00001999999ADDGA1041+012191999GE19MSL   +99999+99999GF199999041999012191999999MA1100001999999OC101701REMMET067METAR EDHL 101850Z 27019G33KT 9999 SCT040 06/00 Q1000 RMK ATIS BRA=
0179101560999992015011019204+53805+010719FM-15+001699999V0202801V008219999999N009999199+00601+00001999999ADDGA1041+012191999GE19MSL   +99999+99999GF199999041999012191999999MA1100001999999OC101541REMMET080METAR EDHL 101920Z 28016G30KT 240V310 9999 SCT040 06/00 Q1000 RMK ATIS      CHA=
0179101560999992015011019504+53805+010719FM-15+001699999V0202701V007219999999N009999199+00601+00101999999ADDGA1041+012191999GE19MSL   +99999+99999GF199999041999012191999999MA1100101999999OC101391REMMET080METAR EDHL 101950Z 27014G27KT 240V310 9999 SCT040 06/01 Q1001 RMK ATIS      DEL=
0179101560999992015011020204+53805+010719FM-15+001699999V0202701V008810106719N009999199+00601+00101999999ADDGA1071+010671999GE19MSL   +99999+99999GF199999071999010671999999MA1100101999999OC101751REMMET080METAR EDHL 102020Z 27017G34KT 240V320 9999 BKN035 06/01 Q1001 RMK ATIS      ECH=
0179101560999992015011020504+53805+010719FM-15+001699999V0202701V009310112819N009999199+00601+00001999999ADDGA1071+011281999GE19MSL   +99999+99999GF199999071999011281999999MA1100101999999OC101651REMMET080METAR EDHL 102050Z 27018G32KT 240V320 9999 BKN037 06/00 Q1001 RMK ATIS      FOX=
0183101560999992015011105504+53805+010719FM-15+001699999V0202501N00821019511CN009999199+00301+00101999999ADDGA1041+004571999GA2041+019511999GE19MSL   +99999+99999GF199999041999004571999999MA1100101999999REMMET076METAR EDHL 110550Z 25016KT 9999 SCT015 SCT064 03/01 Q1001 RMK ATIS      ALF=
0197101560999992015011106204+53805+010719FM-15+001699999V0202501N009810076219N009999199+00301+00101999999ADDGA1021+004271999GA2071+007621091GE19MSL   +99999+99999GF199999021999004271999999MA1100101999999MW1801REMMET084METAR EDHL 110620Z 25019KT 9999 -SHRA FEW014 BKN025CB 03/01 Q1001 RMK      ATIS BRA=
0199101560999992015011106504+53805+010719FM-15+001699999V0202501N00981010671CN009999199+00301+00101999999ADDGA1041+003661091GA2041+010671999GE19MSL   +99999+99999GF199999041999003661999999MA1100101999999MW1831REMMET086METAR EDHL 110650Z 25019KT 9999 -SHRASN SCT012CB SCT035 03/01 Q1001      RMK ATIS CHA=
0181101560999992015011107064+53805+010719FM-16+001699999V0202501N008210045719N009999199+00301+00101999999ADDGA1071+004571999GE19MSL   +99999+99999GF199999071999004571999999MA1100101999999MW1171MW2681REMMET078SPECI EDHL 110706Z 25016KT 9999 TS -RASN BKN015 03/01 Q1001 RMK ATIS      DEL=
0177101560999992015011107204+53805+010719FM-15+001699999V0202601N006710036619N008000199+00301+00201999999ADDGA1071+003661091GE19MSL   +99999+99999GF199999071999003661999999MA1100101999999MW1951REMMET080METAR COR EDHL 110720Z 26013KT 8000 TSRA BKN012CB 03/02 Q1001 RMK ATIS      GOL=
0190101560999992015011107274+53805+010719FM-16+001699999V0202801V005110015219N002000199+00201+00101999999ADDGA1071+001521999GE19MSL   +99999+99999GF199999071999001521999999MA1100201999999MW1951OC101131REMMET085SPECI EDHL 110727Z 28010G22KT 240V340 2000 TSRA BKN005 02/01 Q1002      RMK ATIS HOT=
0210101560999992015011107344+53805+010719FM-16+001699999V0202801V005710024419N005000199+00101+00001999999ADDGA1071+002441091GA2071+006711999GE19MSL   +99999+99999GF199999071999002441999999MA1100201999999MW1801REMMET097SPECI EDHL 110734Z 28011KT 240V320 5000 -SHRA BKN008CB BKN022 01/00      Q1002 RERA RMK ATIS IND=
0205101560999992015011107504+53805+010719FM-15+001699999V0202701V005110073219N006000199+00101+00101999999ADDGA1021+003051999GA2071+007321091GE19MSL   +99999+99999GF199999021999003051999999MA1100101999999MW1681REMMET092METAR EDHL 110750Z 27010KT 220V310 6000 -RASN FEW010 BKN024CB 01/01      Q1001 RMK ATIS JUL=
0207101560999992015011108204+53805+010719FM-15+001699999V0202801V003610042719N008000199+00101+00101999999ADDGA1041+001221999GA2071+004271091GE19MSL   +99999+99999GF199999041999001221999999MA1100201999999MW1831REMMET094METAR EDHL 110820Z 28007KT 250V330 8000 -SHRASN SCT004 BKN014CB 01/01      Q1002 RMK ATIS KIL=
0174101560999992015011108504+53805+010719FM-15+001699999V0202601N007719999999N009999199+00201+00101999999ADDGA1041+004571091GE19MSL   +99999+99999GF199999041999004571999999MA1100201999999MW1801REMMET077METAR EDHL 110850Z 26015KT 9999 -SHRA SCT015CB 02/01 Q1002 RMK ATIS      LIM=
0185101560999992015011109204+53805+010719FM-15+001699999V0202501N007210070119N009999199+00301+00101999999ADDGA1041+004881091GA2071+007011999GE19MSL   +99999+99999GF199999041999004881999999MA1100201999999REMMET078METAR EDHL 110920Z 25014KT 9999 SCT016CB BKN023 03/01 Q1002 RMK ATIS      MIK=
0155101560999992015011109504+53805+010719FM-15+001699999V0202601N009310048819N009999199+00301+00101999999ADDGA1071+004881999GE19MSL   +99999+99999GF199999071999004881999999MA1100201999999REMMET064METAR EDHL 110950Z 26018KT 9999 BKN016 03/01 Q1002 RMK ATIS NOV=
0197101560999992015011110204+53805+010719FM-15+001699999V0202601N008210057919N009999199+00201+00101999999ADDGA1041+003961091GA2071+005791999GE19MSL   +99999+99999GF199999041999003961999999MA1100301999999MW1801REMMET084METAR EDHL 111020Z 26016KT 9999 -SHRA SCT013CB BKN019 02/01 Q1003 RMK      ATIS OSC=
0196101560999992015011110504+53805+010719FM-15+001699999V0202601N00771021341CN009999199+00301+00101999999ADDGA1021+003961091GA2041+021341999GE19MSL   +99999+99999GF199999021999003961999999MA1100301999999MW1161REMMET083METAR EDHL 111050Z 26015KT 9999 VCSH FEW013CB SCT070 03/01 Q1003 RMK      ATIS PAP=
0174101560999992015011111204+53805+010719FM-15+001699999V0209999V005110039619N007000199+00301+00101999999ADDGA1071+003961091GE19MSL   +99999+99999GF199999071999003961999999MA1100401999999MW1801REMMET077METAR EDHL 111120Z VRB10KT 7000 -SHRA BKN013CB 03/01 Q1004 RMK ATIS      ROM=
0170101560999992015011111504+53805+010719FM-15+001699999V0202701V005719999999N009999199+00301+00101999999ADDGA1041+009141091GE19MSL   +99999+99999GF199999041999009141999999MA1100401999999REMMET079METAR EDHL 111150Z 27011KT 230V310 9999 SCT030CB 03/01 Q1004 RMK ATIS      SIE=
0170101560999992015011112204+53805+010719FM-15+001699999V0202601V006719999999N009999199+00401+00101999999ADDGA1041+010061091GE19MSL   +99999+99999GF199999041999010061999999MA1100301999999REMMET079METAR EDHL 111220Z 26013KT 230V290 9999 SCT033CB 04/01 Q1003 RMK ATIS      UNI=
0181101560999992015011112504+53805+010719FM-15+001699999V0202601V007719999999N009999199+00501+00101999999ADDGA1041+010061091GE19MSL   +99999+99999GF199999041999010061999999MA1100301999999MW1161REMMET084METAR EDHL 111250Z 26015KT 240V300 9999 VCSH SCT033CB 05/01 Q1003 RMK      ATIS VIC=
0215101560999992015011113204+53805+010719FM-15+001699999V0202701V00771012191CN009999199+00401+00101999999ADDGA1041+007621091GA2041+012191999GE19MSL   +99999+99999GF199999041999007621999999MA1100401999999MW1161OC101341REMMET094METAR EDHL 111320Z 27015G26KT 240V310 9999 VCSH SCT025CB SCT040 04/01      Q1004 RMK ATIS WHI=
0205101560999992015011113504+53805+010719FM-15+001699999V0202801V007210137219N009999199+00401+00101999999ADDGA1041+007621091GA2071+013721999GE19MSL   +99999+99999GF199999041999007621999999MA1100401999999MW1801REMMET092METAR EDHL 111350Z 28014KT 240V330 9999 -SHRA SCT025CB BKN045 04/01      Q1004 RMK ATIS X-R=
0191101560999992015011114204+53805+010719FM-15+001699999V0202701V007210243819N009999199+00401+00101999999ADDGA1041+007621999GA2071+024381999GE19MSL   +99999+99999GF199999041999007621999999MA1100401999999REMMET084METAR EDHL 111420Z 27014KT 240V310 9999 SCT025 BKN080 04/01 Q1004 RMK      ATIS YAN=
0205101560999992015011114504+53805+010719FM-15+001699999V0202801V006710067119N009999199+00501+00101999999ADDGA1071+006711091GA2071+012191999GE19MSL   +99999+99999GF199999071999006711999999MA1100501999999MW1801REMMET092METAR EDHL 111450Z 28013KT 250V320 9999 -SHRA BKN022CB BKN040 05/01      Q1005 RMK ATIS ZUL=
0215101560999992015011115204+53805+010719FM-15+001699999V0202801V007710070119N009999199+00401+00101999999ADDGA1021+003351999GA2071+007011091GE19MSL   +99999+99999GF199999021999003351999999MA1100501999999MW1951OC101391REMMET094METAR EDHL 111520Z 28015G27KT 250V320 9999 TSRA FEW011 BKN023CB 04/01      Q1005 RMK ATIS ALF=
0214101560999992015011115504+53805+010719FM-15+001699999V0202801V006210085319N009999199+00401+00101999999ADDGA1041+003661999GA2071+008531091GE19MSL   +99999+99999GF199999041999003661999999MA1100601999999MW1801REMMET101METAR COR EDHL 111550Z 28012KT 240V310 9999 -SHRA SCT012 BKN028CB 04/01      Q1006 RETS RMK ATIS BRA=
0179101560999992015011116204+53805+010719FM-15+001699999V0202801V006219999999N009999199+00401+00101999999ADDGA1021+007621999GE19MSL   +99999+99999GF199999021999007621999999MA1100601999999OC101181REMMET080METAR EDHL 111620Z 28012G23KT 250V320 9999 FEW025 04/01 Q1006 RMK ATIS      CHA=
0179101560999992015011116504+53805+010719FM-15+001699999V0202801V005119999999N009999199+00501+00101999999ADDGA1041+011581999GE19MSL   +99999+99999GF199999041999011581999999MA1100601999999OC101031REMMET080METAR EDHL 111650Z 28010G20KT 200V320 9999 SCT038 05/01 Q1006 RMK ATIS      DEL=
0179101560999992015011117204+53805+010719FM-15+001699999V0202701V005719999999N009999199+00501+00101999999ADDGA1041+010671999GE19MSL   +99999+99999GF199999041999010671999999MA1100701999999OC101131REMMET080METAR EDHL 111720Z 27011G22KT 240V310 9999 SCT035 05/01 Q1007 RMK ATIS      ECH=
0189101560999992015011117504+53805+010719FM-15+001699999V0202901V005110067119N009999199+00501+00101999999ADDGA1071+006711999GE19MSL   +99999+99999GF199999071999006711999999MA1100701999999MW1611OC101031REMMET084METAR EDHL 111750Z 29010G20KT 240V330 9999 -RA BKN022 05/01 Q1007 RMK      ATIS FOX=
0168101560999992015011118204+53805+010719FM-15+001699999V0202701V004619999999N009999199+00401+00101999999ADDGA1041+008231999GE19MSL   +99999+99999GF199999041999008231999999MA1100701999999REMMET077METAR EDHL 111820Z 27009KT 230V300 9999 SCT027 04/01 Q1007 RMK ATIS      GOL=
0155101560999992015011118504+53805+010719FM-15+001699999V0202701N004619999999N009999199+00401+00101999999ADDGA1041+009751999GE19MSL   +99999+99999GF199999041999009751999999MA1100801999999REMMET064METAR EDHL 111850Z 27009KT 9999 SCT032 04/01 Q1008 RMK ATIS HOT=
0201101560999992015011119204+53805+010719FM-15+001699999V0203001V004610048819N009999199+00401+00201999999ADDGA1021+001831999GA2071+004881999GE19MSL   +99999+99999GF199999021999001831999999MA1100801999999MW1611REMMET088METAR EDHL 111920Z 30009KT 260V350 9999 -RA FEW006 BKN016 04/02 Q1008      RMK ATIS IND=
0168101560999992015011119504+53805+010719FM-15+001699999V0202801V003610064019N009999199+00501+00201999999ADDGA1071+006401999GE19MSL   +99999+99999GF199999071999006401999999MA1100901999999REMMET077METAR EDHL 111950Z 28007KT 240V330 9999 BKN021 05/02 Q1009 RMK ATIS      JUL=
0179101560999992015011120204+53805+010719FM-15+001699999V0202701V006710064019N009999199+00501+00301999999ADDGA1071+006401999GE19MSL   +99999+99999GF199999071999006401999999MA1100901999999OC101491REMMET080METAR EDHL 112020Z 27013G29KT 240V320 9999 BKN021 05/03 Q1009 RMK ATIS      KIL=
0168101560999992015011120504+53805+010719FM-15+001699999V0202801V004110076219N009999199+00501+00301999999ADDGA1071+007621999GE19MSL   +99999+99999GF199999071999007621999999MA1100901999999REMMET077METAR EDHL 112050Z 28008KT 230V320 9999 BKN025 05/03 Q1009 RMK ATIS      LIM=
0165101560999992015011205504+53805+010719FM-15+001699999V0202401N007710045719N009999199+00601+00501999999ADDGA1071+004571999GE19MSL   +99999+99999GF199999071999004571999999MA1100801999999MW1511REMMET068METAR EDHL 120550Z 24015KT 9999 -DZ BKN015 06/05 Q1008 RMK ATIS ALF=
0155101560999992015011206204+53805+010719FM-15+001699999V0202301N007710054919N009999199+00601+00501999999ADDGA1071+005491999GE19MSL   +99999+99999GF199999071999005491999999MA1100801999999REMMET064METAR EDHL 120620Z 23015KT 9999 BKN018 06/05 Q1008 RMK ATIS BRA=
0155101560999992015011206504+53805+010719FM-15+001699999V0202401N008810054919N009999199+00601+00401999999ADDGA1071+005491999GE19MSL   +99999+99999GF199999071999005491999999MA1100801999999REMMET064METAR EDHL 120650Z 24017KT 9999 BKN018 06/04 Q1008 RMK ATIS CHA=
0155101560999992015011207204+53805+010719FM-15+001699999V0202401N008210054919N009999199+00601+00401999999ADDGA1071+005491999GE19MSL   +99999+99999GF199999071999005491999999MA1100801999999REMMET064METAR EDHL 120720Z 24016KT 9999 BKN018 06/04 Q1008 RMK ATIS DEL=
0155101560999992015011207504+53805+010719FM-15+001699999V0202401N008810061019N009999199+00701+00401999999ADDGA1071+006101999GE19MSL   +99999+99999GF199999071999006101999999MA1100801999999REMMET064METAR EDHL 120750Z 24017KT 9999 BKN020 07/04 Q1008 RMK ATIS ECH=
0166101560999992015011208204+53805+010719FM-15+001699999V0202301N008210061019N009999199+00701+00401999999ADDGA1071+006101999GE19MSL   +99999+99999GF199999071999006101999999MA1100701999999OC101341REMMET067METAR EDHL 120820Z 23016G26KT 9999 BKN020 07/04 Q1007 RMK ATIS FOX=
0165101560999992015011208504+53805+010719FM-15+001699999V0202301N008810048819N009999199+00601+00401999999ADDGA1071+004881999GE19MSL   +99999+99999GF199999071999004881999999MA1100701999999MW1511REMMET068METAR EDHL 120850Z 23017KT 9999 -DZ BKN016 06/04 Q1007 RMK ATIS GOL=
0155101560999992015011209204+53805+010719FM-15+001699999V0202401N009310048819N009999199+00701+00501999999ADDGA1071+004881999GE19MSL   +99999+99999GF199999071999004881999999MA1100701999999REMMET064METAR EDHL 120920Z 24018KT 9999 BKN016 07/05 Q1007 RMK ATIS HOT=
0155101560999992015011210204+53805+010719FM-15+001699999V0202401N009310061019N009999199+00701+00501999999ADDGA1071+006101999GE19MSL   +99999+99999GF199999071999006101999999MA1100601999999REMMET064METAR EDHL 121020Z 24018KT 9999 BKN020 07/05 Q1006 RMK ATIS IND=
0165101560999992015011210504+53805+010719FM-15+001699999V0202301N009810061019N009999199+00701+00501999999ADDGA1071+006101999GE19MSL   +99999+99999GF199999071999006101999999MA1100601999999MW1511REMMET068METAR EDHL 121050Z 23019KT 9999 -DZ BKN020 07/05 Q1006 RMK ATIS JUL=
0181101560999992015011211204+53805+010719FM-15+001699999V0202401N009310061019N009999199+00701+00501999999ADDGA1071+006101999GE19MSL   +99999+99999GF199999071999006101999999MA1100501999999MW1611OC101491REMMET076METAR EDHL 121120Z 24018G29KT 9999 -RA BKN020 07/05 Q1005 RMK ATIS      KIL=
0165101560999992015011211504+53805+010719FM-15+001699999V0202401N008810061019N009999199+00701+00501999999ADDGA1071+006101999GE19MSL   +99999+99999GF199999071999006101999999MA1100501999999MW1611REMMET068METAR EDHL 121150Z 24017KT 9999 -RA BKN020 07/05 Q1005 RMK ATIS LIM=
0165101560999992015011212204+53805+010719FM-15+001699999V0202401N008810048819N009999199+00701+00501999999ADDGA1071+004881999GE19MSL   +99999+99999GF199999071999004881999999MA1100501999999MW1611REMMET068METAR EDHL 121220Z 24017KT 9999 -RA BKN016 07/05 Q1005 RMK ATIS MIK=
0165101560999992015011212504+53805+010719FM-15+001699999V0202401N009310048819N009999199+00701+00601999999ADDGA1071+004881999GE19MSL   +99999+99999GF199999071999004881999999MA1100401999999MW1611REMMET068METAR EDHL 121250Z 24018KT 9999 -RA BKN016 07/06 Q1004 RMK ATIS NOV=
0204101560999992015011213204+53805+010719FM-15+001699999V0202401N009810048819N009999199+00701+00601999999ADDGA1041+003661999GA2071+004881999GE19MSL   +99999+99999GF199999041999003661999999MA1100401999999MW1611OC101601REMMET083METAR EDHL 121320Z 24019G31KT 9999 -RA SCT012 BKN016 07/06 Q1004 RMK      ATIS OSC=
0165101560999992015011213504+53805+010719FM-15+001699999V0202401N009810042719N009999199+00701+00601999999ADDGA1071+004271999GE19MSL   +99999+99999GF199999071999004271999999MA1100401999999MW1611REMMET068METAR EDHL 121350Z 24019KT 9999 -RA BKN014 07/06 Q1004 RMK ATIS PAP=
0165101560999992015011214204+53805+010719FM-15+001699999V0202401N009810042719N009999199+00701+00601999999ADDGA1071+004271999GE19MSL   +99999+99999GF199999071999004271999999MA1100401999999MW1511REMMET068METAR EDHL 121420Z 24019KT 9999 -DZ BKN014 07/06 Q1004 RMK ATIS QUE=
0165101560999992015011214504+53805+010719FM-15+001699999V0202401N009810045719N009999199+00801+00601999999ADDGA1071+004571999GE19MSL   +99999+99999GF199999071999004571999999MA1100401999999MW1511REMMET068METAR EDHL 121450Z 24019KT 9999 -DZ BKN015 08/06 Q1004 RMK ATIS ROM=
0181101560999992015011215204+53805+010719FM-15+001699999V0202401N009310033519N007000199+00801+00601999999ADDGA1071+003351999GE19MSL   +99999+99999GF199999071999003351999999MA1100401999999MW1511OC101441REMMET076METAR EDHL 121520Z 24018G28KT 7000 -DZ BKN011 08/06 Q1004 RMK ATIS      SIE=
0165101560999992015011215504+53805+010719FM-15+001699999V0202401N009310027419N005000199+00701+00601999999ADDGA1071+002741999GE19MSL   +99999+99999GF199999071999002741999999MA1100401999999MW1511REMMET068METAR EDHL 121550Z 24018KT 5000 -DZ BKN009 07/06 Q1004 RMK ATIS TAN=
0155101560999992015011216204+53805+010719FM-15+001699999V0202401N009310039619N009999199+00801+00601999999ADDGA1071+003961999GE19MSL   +99999+99999GF199999071999003961999999MA1100401999999REMMET064METAR EDHL 121620Z 24018KT 9999 BKN013 08/06 Q1004 RMK ATIS UNI=
0165101560999992015011216504+53805+010719FM-15+001699999V0202401N009810042719N006000199+00801+00601999999ADDGA1071+004271999GE19MSL   +99999+99999GF199999071999004271999999MA1100401999999MW1511REMMET068METAR EDHL 121650Z 24019KT 6000 -DZ BKN014 08/06 Q1004 RMK ATIS VIC=
0155101560999992015011217204+53805+010719FM-15+001699999V0202401N009810039619N009999199+00801+00601999999ADDGA1071+003961999GE19MSL   +99999+99999GF199999071999003961999999MA1100401999999REMMET064METAR EDHL 121720Z 24019KT 9999 BKN013 08/06 Q1004 RMK ATIS WHI=
0165101560999992015011217504+53805+010719FM-15+001699999V0202401N009310033519N002800199+00801+00601999999ADDGA1071+003351999GE19MSL   +99999+99999GF199999071999003351999999MA1100401999999MW1611REMMET068METAR EDHL 121750Z 24018KT 2800 -RA BKN011 08/06 Q1004 RMK ATIS X-R=
0165101560999992015011218204+53805+010719FM-15+001699999V0202401N009810030519N009999199+00801+00701999999ADDGA1071+003051999GE19MSL   +99999+99999GF199999071999003051999999MA1100401999999MW1611REMMET068METAR EDHL 121820Z 24019KT 9999 -RA BKN010 08/07 Q1004 RMK ATIS YAN=
0166101560999992015011218504+53805+010719FM-15+001699999V0202301N008210033519N008000199+00801+00701999999ADDGA1071+003351999GE19MSL   +99999+99999GF199999071999003351999999MA1100401999999OC101341REMMET067METAR EDHL 121850Z 23016G26KT 8000 BKN011 08/07 Q1004 RMK ATIS ZUL=
