0155101624999992009010206204+53417+011783FM-15+0051EDOP V0209999C000010060019N0026001N1-00201-00201999999ADDGA1021+000901999GA2071+006001999GF107991999999999999999999MA1102611999999MW1711REMMET064METAR EDOP 020620Z 00000KT 2600 -SN FEW003 BKN020 M02/M02 Q1026;
0164101624999992009010206504+53417+011783FM-15+0051EDOP V0209999C000010120019N0023001N1-00201-00201999999ADDGA1021+000901999GA2071+012001999GF107991999999999999999999MA1102611999999MW1101MW2711REMMET067METAR EDOP 020650Z 00000KT 2300 -SN BR FEW003 BKN040 M02/M02 Q1026;
0164101624999992009010207204+53417+011783FM-15+0051EDOP V0200201N001510129019N0023001N1-00201-00201999999ADDGA1021+003601999GA2071+012901999GF107991999999999999999999MA1102711999999MW1101MW2711REMMET067METAR EDOP 020720Z 02003KT 2300 -SN BR FEW012 BKN043 M02/M02 Q1027;
0164101624999992009010207504+53417+011783FM-15+0051EDOP V0200401N001510060019N0030001N1-00101-00201999999ADDGA1021+003001999GA2071+006001999GF107991999999999999999999MA1102711999999MW1101MW2711REMMET067METAR EDOP 020750Z 04003KT 3000 -SN BR FEW010 BKN020 M01/M02 Q1027;
0131101624999992009010208204+53417+011783FM-15+0051EDOP V0200301N001012200019N0045001N1-00201-00301999999ADDGA1041+006001999GF104991999999999999999999MA1102711999999MW1101REMMET056METAR EDOP 020820Z 03002KT 4500 BR SCT020 M02/M03 Q1027;
0131101624999992009010208504+53417+011783FM-15+0051EDOP V0209999C000012200019N0045001N1-00301-00401999999ADDGA1021+006001999GF102991999999999999999999MA1102711999999MW1101REMMET056METAR EDOP 020850Z 00000KT 4500 BR FEW020 M03/M04 Q1027;
0122101624999992009010209204+53417+011783FM-15+0051EDOP V0209999V001512200019N0060001N1-00101-00101999999ADDGF100991999999999999999999MA1102711999999REMMET050METAR EDOP 020920Z VRB03KT 6000 NSC M01/M01 Q1027;EQDQ01    003SCCGA1
0074101624999992009010209504+53417+011783FM-15+0051EDOP V0209999V00151220001CN0099001N1+00001-00101999999ADDMA1102811999999REMMET047METAR EDOP 020950Z VRB03KT CAVOK M00/M01 Q1028;
0081101624999992009010210204+53417+011783FM-15+0051EDOP V0200201N00211220001CN0099001N1+00001-00201999999ADDMA1102811999999REMMET054METAR EDOP 021020Z 02004KT 340V050 CAVOK 00/M02 Q1028;
0081101624999992009010210504+53417+011783FM-15+0051EDOP V0200201N00311220001CN0099001N1+00001-00401999999ADDMA1102811999999REMMET054METAR EDOP 021050Z 02006KT 340V050 CAVOK 00/M04 Q1028;
0081101624999992009010211204+53417+011783FM-15+0051EDOP V0200201N00311220001CN0099001N1+00001-00501999999ADDMA1102811999999REMMET054METAR EDOP 021120Z 02006KT 350V050 CAVOK 00/M05 Q1028;
0081101624999992009010211504+53417+011783FM-15+0051EDOP V0200201N00311220001CN0099001N1+00101-00501999999ADDMA1102811999999REMMET054METAR EDOP 021150Z 02006KT 340V050 CAVOK 01/M05 Q1028;
0081101624999992009010212204+53417+011783FM-15+0051EDOP V0200201N00311220001CN0099001N1+00001-00601999999ADDMA1102811999999REMMET054METAR EDOP 021220Z 02006KT 340V040 CAVOK 00/M06 Q1028;
0081101624999992009010212504+53417+011783FM-15+0051EDOP V0200201N00311220001CN0099001N1+00001-00601999999ADDMA1102811999999REMMET054METAR EDOP 021250Z 02006KT 350V060 CAVOK 00/M06 Q1028;
0073101624999992009010213204+53417+011783FM-15+0051EDOP V0200101N00261220001CN0099001N1+00001-00601999999ADDMA1102911999999REMMET046METAR EDOP 021320Z 01005KT CAVOK 00/M06 Q1029;
0081101624999992009010213504+53417+011783FM-15+0051EDOP V0200101N00261220001CN0099001N1+00001-00601999999ADDMA1102911999999REMMET054METAR EDOP 021350Z 01005KT 340V040 CAVOK 00/M06 Q1029;
0074101624999992009010214204+53417+011783FM-15+0051EDOP V0203601N00151220001CN0099001N1+00001-00601999999ADDMA1102911999999REMMET047METAR EDOP 021420Z 36003KT CAVOK M00/M06 Q1029;
0074101624999992009010214504+53417+011783FM-15+0051EDOP V0200101N00151220001CN0099001N1-00101-00601999999ADDMA1102911999999REMMET047METAR EDOP 021450Z 01003KT CAVOK M01/M06 Q1029;
0074101624999992009010215204+53417+011783FM-15+0051EDOP V0209999C00001220001CN0099001N1-00401-00701999999ADDMA1102911999999REMMET047METAR EDOP 021520Z 00000KT CAVOK M04/M07 Q1029;
0074101624999992009010215504+53417+011783FM-15+0051EDOP V0202301N00151220001CN0099001N1-00701-01001999999ADDMA1102911999999REMMET047METAR EDOP 021550Z 23003KT CAVOK M07/M10 Q1029;
0074101624999992009010216204+53417+011783FM-15+0051EDOP V0202501N00151220001CN0099001N1-00901-01101999999ADDMA1102911999999REMMET047METAR EDOP 021620Z 25003KT CAVOK M09/M11 Q1029;
0074101624999992009010216504+53417+011783FM-15+0051EDOP V0209999C00001220001CN0099001N1-00901-01001999999ADDMA1103011999999REMMET047METAR EDOP 021650Z 00000KT CAVOK M09/M10 Q1030;
0122101624999992009010306204+53417+011783FM-15+0051EDOP V0202401N004610120019N0112651N1-00501-00701999999ADDGA1071+012001999GF107991999999999999999999MA1102511999999REMMET053METAR EDOP 030620Z 24009KT 9999 BKN040 M05/M07 Q1025;
0122101624999992009010306504+53417+011783FM-15+0051EDOP V0202401N005710075019N0112651N1-00501-00701999999ADDGA1071+007501999GF107991999999999999999999MA1102401999999REMMET053METAR EDOP 030650Z 24011KT 9999 BKN025 M05/M07 Q1024;
0122101624999992009010307204+53417+011783FM-15+0051EDOP V0202501N005110063019N0112651N1-00501-00601999999ADDGA1071+006301999GF107991999999999999999999MA1102401999999REMMET053METAR EDOP 030720Z 25010KT 9999 BKN021 M05/M06 Q1024;
0145101624999992009010307504+53417+011783FM-15+0051EDOP V0202401N005710150019N0112651N1-00401-00601999999ADDGA1041+009601999GA2071+015001999GF107991999999999999999999MA1102401999999REMMET060METAR EDOP 030750Z 24011KT 9999 SCT032 BKN052 M04/M06 Q1024;
0122101624999992009010308204+53417+011783FM-15+0051EDOP V0202401N005110084019N0112651N1-00401-00601999999ADDGA1071+008401999GF107991999999999999999999MA1102301999999REMMET053METAR EDOP 030820Z 24010KT 9999 BKN028 M04/M06 Q1023;
0122101624999992009010308504+53417+011783FM-15+0051EDOP V0202401N005110096019N0112651N1-00401-00501999999ADDGA1071+009601999GF107991999999999999999999MA1102301999999REMMET053METAR EDOP 030850Z 24010KT 9999 BKN032 M04/M05 Q1023;
0122101624999992009010309204+53417+011783FM-15+0051EDOP V0202601N005110081019N0112651N1-00301-00501999999ADDGA1071+008101999GF107991999999999999999999MA1102301999999REMMET053METAR EDOP 030920Z 26010KT 9999 BKN027 M03/M05 Q1023;
0145101624999992009010309504+53417+011783FM-15+0051EDOP V0202501N004110150019N0112651N1-00301-00501999999ADDGA1041+006901999GA2071+015001999GF107991999999999999999999MA1102201999999REMMET060METAR EDOP 030950Z 25008KT 9999 SCT023 BKN052 M03/M05 Q1022;
0157101624999992009010310204+53417+011783FM-15+0051EDOP V0202501N004610063019N0112651N1-00201-00501999999ADDGA1021+003001999GA2071+006301999GF107991999999999999999999MA1102201999999MW1561REMMET066METAR EDOP 031020Z 25009KT 9999 -FZDZ FEW010 BKN021 M02/M05 Q1022;
0145101624999992009010310504+53417+011783FM-15+0051EDOP V0202601N006710066019N0112651N1-00201-00401999999ADDGA1021+001501999GA2071+006601999GF107991999999999999999999MA1102101999999REMMET060METAR EDOP 031050Z 26013KT 9999 FEW005 BKN022 M02/M04 Q1021;
0122101624999992009010311204+53417+011783FM-15+0051EDOP V0202501N006210066019N0112651N1-00101-00401999999ADDGA1071+006601999GF107991999999999999999999MA1102101999999REMMET053METAR EDOP 031120Z 25012KT 9999 BKN022 M01/M04 Q1021;
0145101624999992009010311504+53417+011783FM-15+0051EDOP V0202501N006712200019N0112651N1-00101-00301999999ADDGA1041+006001999GA2041+014401999GF104991999999999999999999MA1102001999999REMMET060METAR EDOP 031150Z 25013KT 9999 SCT020 SCT048 M01/M03 Q1020;
0145101624999992009010312204+53417+011783FM-15+0051EDOP V0202501N006212200019N0112651N1+00001-00301999999ADDGA1041+005401999GA2041+012601999GF104991999999999999999999MA1102001999999REMMET060METAR EDOP 031220Z 25012KT 9999 SCT018 SCT042 M00/M03 Q1020;
0145101624999992009010312504+53417+011783FM-15+0051EDOP V0202501N006710147019N0112651N1+00001-00301999999ADDGA1041+006001999GA2071+014701999GF107991999999999999999999MA1101901999999REMMET060METAR EDOP 031250Z 25013KT 9999 SCT020 BKN049 M00/M03 Q1019;
0145101624999992009010313204+53417+011783FM-15+0051EDOP V0202501N006710120019N0112651N1+00001-00301999999ADDGA1041+005401999GA2071+012001999GF107991999999999999999999MA1101901999999REMMET060METAR EDOP 031320Z 25013KT 9999 SCT018 BKN040 M00/M03 Q1019;
0122101624999992009010313504+53417+011783FM-15+0051EDOP V0202501N008210051019N0112651N1+00001-00301999999ADDGA1071+005101999GF107991999999999999999999MA1101801999999REMMET053METAR EDOP 031350Z 25016KT 9999 BKN017 M00/M03 Q1018;
0122101624999992009010314204+53417+011783FM-15+0051EDOP V0202501N006710045019N0112651N1+00001-00201999999ADDGA1071+004501999GF107991999999999999999999MA1101801999999REMMET053METAR EDOP 031420Z 25013KT 9999 BKN015 M00/M02 Q1018;
0145101624999992009010314504+53417+011783FM-15+0051EDOP V0202501N006210135019N0112651N1+00001-00201999999ADDGA1041+004501999GA2071+013501999GF107991999999999999999999MA1101801999999REMMET060METAR EDOP 031450Z 25012KT 9999 SCT015 BKN045 M00/M02 Q1018;
0121101624999992009010315204+53417+011783FM-15+0051EDOP V0202601N007710045019N0112651N1+00001-00201999999ADDGA1071+004501999GF107991999999999999999999MA1101691999999REMMET052METAR EDOP 031520Z 26015KT 9999 BKN015 00/M02 Q1017;
0121101624999992009010315504+53417+011783FM-15+0051EDOP V0202501N007710045019N0112651N1+00001-00201999999ADDGA1071+004501999GF107991999999999999999999MA1101691999999REMMET052METAR EDOP 031550Z 25015KT 9999 BKN015 00/M02 Q1017;
0121101624999992009010316204+53417+011783FM-15+0051EDOP V0202501N008210045019N0112651N1+00001-00101999999ADDGA1071+004501999GF107991999999999999999999MA1101591999999REMMET052METAR EDOP 031620Z 25016KT 9999 BKN015 00/M01 Q1016;
0152101624999992009010316504+53417+011783FM-15+0051EDOP V0202601N007710045019N0112651N1+00001-00101999999ADDGA1041+003001999GA2071+004501999GF107991999999999999999999MA1101591999999REMMET067METAR EDOP 031650Z 26015KT 230V290 9999 SCT010 BKN015 00/M01 Q1016;
0129101624999992009010406204+53417+011783FM-15+0051EDOP V0202401N002610009019N0015001N1+00101+00101999999ADDGA1081+000901999GF108991999999999999999999MA1101291999999MW1101REMMET054METAR EDOP 040620Z 24005KT 1500 BR OVC003 01/01 Q1013;
0162101624999992009010406504+53417+011783FM-15+0051EDOP V0202501N003110036019N0023001N1+00101+00001999999ADDGA1041+000901999GA2071+003601999GF107991999999999999999999MA1101291999999MW1101MW2611REMMET065METAR EDOP 040650Z 25006KT 2300 -RA BR SCT003 BKN012 01/00 Q1013;
0137101624999992009010407204+53417+011783FM-15+0051EDOP V0202401N002610012019N0017001N1+00001+00001999999ADDGA1071+001201999GF107991999999999999999999MA1101291999999MW1631MW2731REMMET056METAR EDOP 040720Z 24005KT 1700 RASN BKN004 00/00 Q1013;
0129101624999992009010407504+53417+011783FM-15+0051EDOP V0202401N002110009019N0017001N1+00001+00001999999ADDGA1071+000901999GF107991999999999999999999MA1101291999999MW1731REMMET054METAR EDOP 040750Z 24004KT 1700 SN BKN003 00/00 Q1013;
0134101624999992009010408204+53417+011783FM-15+0051EDOP V0202501N002110012019N0030001N1+00001+00001999999ADDGA1071+001201999GF107991999999999999999999MA1101291999999MW1101REMMET059METAR EDOP 040820Z 25004KT 3000 BR BKN004 00/00 Q1013 RESN;
0152101624999992009010408504+53417+011783FM-15+0051EDOP V0202501N001510009019N0010001N1+00001+00001999999ADDED199U15009GA1071+000901999GF107991999999999999999999MA1101291999999MW1731REMMET066METAR EDOP 040850Z 25003KT 1000 R24/P1500D SN BKN003 00/M00 Q1013;
0143101624999992009010409204+53417+011783FM-15+0051EDOP V0202301N002110009019N0030001N1+00001+00001999999ADDGA1071+000901999GF107991999999999999999999MA1101291999999MW1611MW2711REMMET062METAR EDOP 040920Z 23004KT 3000 -SNRA BKN003 00/00 Q1013 RESN;
0151101624999992009010409504+53417+011783FM-15+0051EDOP V0202401N002610006019N0013001N1+00001+00001999999ADDED199U15009GA1071+000601999GF107991999999999999999999MA1101291999999MW1101REMMET065METAR EDOP 040950Z 24005KT 1300 R24/P1500N BR BKN002 00/00 Q1013;
0151101624999992009010410204+53417+011783FM-15+0051EDOP V0202401N002610006019N0012001N1+00101+00001999999ADDED199U15009GA1071+000601999GF107991999999999999999999MA1101191999999MW1101REMMET065METAR EDOP 041020Z 24005KT 1200 R24/P1500N BR BKN002 01/00 Q1012;
0129101624999992009010410504+53417+011783FM-15+0051EDOP V0202501N002610006019N0020001N1+00101+00101999999ADDGA1071+000601999GF107991999999999999999999MA1101191999999MW1101REMMET054METAR EDOP 041050Z 25005KT 2000 BR BKN002 01/01 Q1012;
0129101624999992009010411204+53417+011783FM-15+0051EDOP V0202501N002110006019N0016001N1+00101+00101999999ADDGA1071+000601999GF107991999999999999999999MA1101191999999MW1101REMMET054METAR EDOP 041120Z 25004KT 1600 BR BKN002 01/01 Q1012;
0129101624999992009010411504+53417+011783FM-15+0051EDOP V0202501N002610009019N0020001N1+00101+00101999999ADDGA1071+000901999GF107991999999999999999999MA1101081999999MW1101REMMET054METAR EDOP 041150Z 25005KT 2000 BR BKN003 01/01 Q1011;
0139101624999992009010412204+53417+011783FM-15+0051EDOP V0202501N002610009019N0015001N1+00101+00001999999ADDGA1071+000901999GF107991999999999999999999MA1101081999999MW1101MW2711REMMET058METAR EDOP 041220Z 25005KT 1500 -SN BR BKN003 01/00 Q1011;
0151101624999992009010413204+53417+011783FM-15+0051EDOP V0202401N001510006019N0012001N1+00001+00001999999ADDED199U12009GA1071+000601999GF107991999999999999999999MA1101081999999MW1731REMMET065METAR EDOP 041320Z 24003KT 1200 R24/1200N SN BKN002 00/M00 Q1011;
0130101624999992009010413504+53417+011783FM-15+0051EDOP V0202601N001510009019N0020001N1+00001+00001999999ADDGA1071+000901999GF107991999999999999999999MA1101081999999MW1101REMMET055METAR EDOP 041350Z 26003KT 2000 BR BKN003 00/M00 Q1011;
0130101624999992009010414204+53417+011783FM-15+0051EDOP V0202501N001010006019N0015001N1+00001+00001999999ADDGA1071+000601999GF107991999999999999999999MA1101021999999MW1731REMMET055METAR EDOP 041420Z 25002KT 1500 SN BKN002 00/M00 Q1010;
0152101624999992009010414504+53417+011783FM-15+0051EDOP V0209999C000010006019N0009001N1+00001+00001999999ADDED199U15009GA1071+000601999GF107991999999999999999999MA1101021999999MW1441REMMET066METAR EDOP 041450Z 00000KT 0900 R24/P1500N FG BKN002 00/M00 Q1010;
0151101624999992009010415204+53417+011783FM-15+0051EDOP V0209999C000010006019N0009001N1+00001+00001999999ADDED199U12009GA1071+000601999GF107991999999999999999999MA1101021999999MW1441REMMET065METAR EDOP 041520Z 00000KT 0900 R24/1200N FG BKN002 00/M00 Q1010;
0151101624999992009010415504+53417+011783FM-15+0051EDOP V0209999C000010006019N0012001N1+00001+00001999999ADDED199U10009GA1071+000601999GF107991999999999999999999MA1101021999999MW1101REMMET065METAR EDOP 041550Z 00000KT 1200 R24/1000N BR BKN002 00/M00 Q1010;
0130101624999992009010416204+53417+011783FM-15+0051EDOP V0209999C000010006019N0015001N1+00001+00001999999ADDGA1071+000601999GF107991999999999999999999MA1101021999999MW1101REMMET055METAR EDOP 041620Z 00000KT 1500 BR BKN002 00/M00 Q1010;
0139101624999992009010416504+53417+011783FM-15+0051EDOP V0202801N001010006019N0015001N1+00001+00001999999ADDGA1071+000601999GF107991999999999999999999MA1101021999999MW1611MW2711REMMET058METAR EDOP 041650Z 28002KT 1500 -SNRA BKN002 00/M00 Q1010;
0122101624999992009010506204+53417+011783FM-15+0051EDOP V0200601N004110018019N0112651N1-00301-00401999999ADDGA1071+001801999GF107991999999999999999999MA1101801999999REMMET053METAR EDOP 050620Z 06008KT 9999 BKN006 M03/M04 Q1018;
0122101624999992009010506504+53417+011783FM-15+0051EDOP V0200501N003110021019N0112651N1-00401-00401999999ADDGA1071+002101999GF107991999999999999999999MA1101901999999REMMET053METAR EDOP 050650Z 05006KT 9999 BKN007 M04/M04 Q1019;
0122101624999992009010507204+53417+011783FM-15+0051EDOP V0200401N003610024019N0112651N1-00301-00301999999ADDGA1071+002401999GF107991999999999999999999MA1101901999999REMMET053METAR EDOP 050720Z 04007KT 9999 BKN008 M03/M03 Q1019;
0122101624999992009010507504+53417+011783FM-15+0051EDOP V0200301N002610027019N0112651N1-00401-00401999999ADDGA1071+002701999GF107991999999999999999999MA1102001999999REMMET053METAR EDOP 050750Z 03005KT 9999 BKN009 M04/M04 Q1020;
0130101624999992009010508204+53417+011783FM-15+0051EDOP V0200301N003112200019N0112651N1-00401-00401999999ADDGA1041+002701999GF104991999999999999999999MA1102101999999REMMET061METAR EDOP 050820Z 03006KT 360V070 9999 SCT009 M04/M04 Q1021;
0122101624999992009010508504+53417+011783FM-15+0051EDOP V0200401N003112200019N0112651N1-00401-00501999999ADDGA1041+002701999GF104991999999999999999999MA1102101999999REMMET053METAR EDOP 050850Z 04006KT 9999 SCT009 M04/M05 Q1021;
0143101624999992009010509204+53417+011783FM-15+0051EDOP V0200501N003112200019N0112651N1-00401-00501999999ADDED199U13009GA1041+002701999GF104991999999999999999999MA1102101999999REMMET063METAR EDOP 050920Z 05006KT 9999 R24/1300N SCT009 M04/M05 Q1021;
0122101624999992009010509504+53417+011783FM-15+0051EDOP V0200501N003112200019N0112651N1-00401-00601999999ADDGA1021+003001999GF102991999999999999999999MA1102201999999REMMET053METAR EDOP 050950Z 05006KT 9999 FEW010 M04/M06 Q1022;
0074101624999992009010510204+53417+011783FM-15+0051EDOP V0200701N00361220001CN0099001N1-00301-00601999999ADDMA1102201999999REMMET047METAR EDOP 051020Z 07007KT CAVOK M03/M06 Q1022;
0074101624999992009010510504+53417+011783FM-15+0051EDOP V0200601N00411220001CN0099001N1-00301-00601999999ADDMA1102201999999REMMET047METAR EDOP 051050Z 06008KT CAVOK M03/M06 Q1022;
0074101624999992009010511204+53417+011783FM-15+0051EDOP V0200601N00411220001CN0099001N1-00301-00701999999ADDMA1102301999999REMMET047METAR EDOP 051120Z 06008KT CAVOK M03/M07 Q1023;
0074101624999992009010511504+53417+011783FM-15+0051EDOP V0200601N00411220001CN0099001N1-00301-00901999999ADDMA1102301999999REMMET047METAR EDOP 051150Z 06008KT CAVOK M03/M09 Q1023;
0074101624999992009010512204+53417+011783FM-15+0051EDOP V0200601N00361220001CN0099001N1-00401-00901999999ADDMA1102301999999REMMET047METAR EDOP 051220Z 06007KT CAVOK M04/M09 Q1023;
0074101624999992009010512504+53417+011783FM-15+0051EDOP V0200601N00411220001CN0099001N1-00401-00901999999ADDMA1102401999999REMMET047METAR EDOP 051250Z 06008KT CAVOK M04/M09 Q1024;
0074101624999992009010513204+53417+011783FM-15+0051EDOP V0200501N00361220001CN0099001N1-00401-00901999999ADDMA1102401999999REMMET047METAR EDOP 051320Z 05007KT CAVOK M04/M09 Q1024;
0074101624999992009010513504+53417+011783FM-15+0051EDOP V0200501N00361220001CN0099001N1-00501-01001999999ADDMA1102511999999REMMET047METAR EDOP 051350Z 05007KT CAVOK M05/M10 Q1025;
0074101624999992009010514204+53417+011783FM-15+0051EDOP V0200601N00311220001CN0099001N1-00501-01001999999ADDMA1102511999999REMMET047METAR EDOP 051420Z 06006KT CAVOK M05/M10 Q1025;
0074101624999992009010514504+53417+011783FM-15+0051EDOP V0200501N00211220001CN0099001N1-00501-01101999999ADDMA1102511999999REMMET047METAR EDOP 051450Z 05004KT CAVOK M05/M11 Q1025;
0074101624999992009010515204+53417+011783FM-15+0051EDOP V0200401N00151220001CN0099001N1-00801-01201999999ADDMA1102611999999REMMET047METAR EDOP 051520Z 04003KT CAVOK M08/M12 Q1026;
0074101624999992009010515504+53417+011783FM-15+0051EDOP V0200201N00151220001CN0099001N1-00901-01201999999ADDMA1102611999999REMMET047METAR EDOP 051550Z 02003KT CAVOK M09/M12 Q1026;
0074101624999992009010516204+53417+011783FM-15+0051EDOP V0200401N00151220001CN0099001N1-01101-01201999999ADDMA1102611999999REMMET047METAR EDOP 051620Z 04003KT CAVOK M11/M12 Q1026;
0074101624999992009010516504+53417+011783FM-15+0051EDOP V0201001N00101220001CN0099001N1-01101-01201999999ADDMA1102711999999REMMET047METAR EDOP 051650Z 10002KT CAVOK M11/M12 Q1027;
0074101624999992009010605504+53417+011783FM-15+0051EDOP V0209999C00001220001CN0099001N1-01701-01901999999ADDMA1102711999999REMMET047METAR EDOP 060550Z 00000KT CAVOK M17/M19 Q1027;
0074101624999992009010606504+53417+011783FM-15+0051EDOP V0209999C00001220001CN0099001N1-01801-01901999999ADDMA1102711999999REMMET047METAR EDOP 060650Z 00000KT CAVOK M18/M19 Q1027;
0074101624999992009010607204+53417+011783FM-15+0051EDOP V0209999C00001220001CN0099001N1-01801-02001999999ADDMA1102711999999REMMET047METAR EDOP 060720Z 00000KT CAVOK M18/M20 Q1027;
0074101624999992009010607504+53417+011783FM-15+0051EDOP V0209999C00001220001CN0099001N1-01701-01901999999ADDMA1102711999999REMMET047METAR EDOP 060750Z 00000KT CAVOK M17/M19 Q1027;
0074101624999992009010608204+53417+011783FM-15+0051EDOP V0209999C00001220001CN0099001N1-01401-01501999999ADDMA1102711999999REMMET047METAR EDOP 060820Z 00000KT CAVOK M14/M15 Q1027;
0074101624999992009010608504+53417+011783FM-15+0051EDOP V0209999C00001220001CN0099001N1-01001-01101999999ADDMA1102711999999REMMET047METAR EDOP 060850Z 00000KT CAVOK M10/M11 Q1027;
0074101624999992009010609204+53417+011783FM-15+0051EDOP V0209999V00101220001CN0099001N1-01201-01401999999ADDMA1102711999999REMMET047METAR EDOP 060920Z VRB02KT CAVOK M12/M14 Q1027;
0074101624999992009010609504+53417+011783FM-15+0051EDOP V0209999V00151220001CN0099001N1-01001-01201999999ADDMA1102711999999REMMET047METAR EDOP 060950Z VRB03KT CAVOK M10/M12 Q1027;
0074101624999992009010610204+53417+011783FM-15+0051EDOP V0202501N00311220001CN0099001N1-00901-01201999999ADDMA1102711999999REMMET047METAR EDOP 061020Z 25006KT CAVOK M09/M12 Q1027;
0082101624999992009010610504+53417+011783FM-15+0051EDOP V0202701N00211220001CN0099001N1-00801-01101999999ADDMA1102611999999REMMET055METAR EDOP 061050Z 27004KT 240V310 CAVOK M08/M11 Q1026;
0074101624999992009010611204+53417+011783FM-15+0051EDOP V0202301N00411220001CN0099001N1-00601-01101999999ADDMA1102611999999REMMET047METAR EDOP 061120Z 23008KT CAVOK M06/M11 Q1026;
0074101624999992009010611504+53417+011783FM-15+0051EDOP V0202401N00461220001CN0099001N1-00501-01101999999ADDMA1102511999999REMMET047METAR EDOP 061150Z 24009KT CAVOK M05/M11 Q1025;
0074101624999992009010612204+53417+011783FM-15+0051EDOP V0202301N00461220001CN0099001N1-00501-01001999999ADDMA1102511999999REMMET047METAR EDOP 061220Z 23009KT CAVOK M05/M10 Q1025;
0074101624999992009010612504+53417+011783FM-15+0051EDOP V0202501N00361220001CN0099001N1-00501-00901999999ADDMA1102511999999REMMET047METAR EDOP 061250Z 25007KT CAVOK M05/M09 Q1025;
0074101624999992009010613204+53417+011783FM-15+0051EDOP V0202401N00311220001CN0099001N1-00501-00801999999ADDMA1102401999999REMMET047METAR EDOP 061320Z 24006KT CAVOK M05/M08 Q1024;
0074101624999992009010613504+53417+011783FM-15+0051EDOP V0202401N00311220001CN0099001N1-00501-00901999999ADDMA1102401999999REMMET047METAR EDOP 061350Z 24006KT CAVOK M05/M09 Q1024;
0074101624999992009010614204+53417+011783FM-15+0051EDOP V0202401N00311220001CN0099001N1-00501-00901999999ADDMA1102401999999REMMET047METAR EDOP 061420Z 24006KT CAVOK M05/M09 Q1024;
0074101624999992009010614504+53417+011783FM-15+0051EDOP V0202201N00311220001CN0099001N1-00501-01001999999ADDMA1102401999999REMMET047METAR EDOP 061450Z 22006KT CAVOK M05/M10 Q1024;
0074101624999992009010615204+53417+011783FM-15+0051EDOP V0202301N00261220001CN0099001N1-00701-01001999999ADDMA1102301999999REMMET047METAR EDOP 061520Z 23005KT CAVOK M07/M10 Q1023;
0074101624999992009010615504+53417+011783FM-15+0051EDOP V0202301N00411220001CN0099001N1-00601-01001999999ADDMA1102301999999REMMET047METAR EDOP 061550Z 23008KT CAVOK M06/M10 Q1023;
0074101624999992009010616204+53417+011783FM-15+0051EDOP V0202301N00461220001CN0099001N1-00601-01001999999ADDMA1102301999999REMMET047METAR EDOP 061620Z 23009KT CAVOK M06/M10 Q1023;
0074101624999992009010616504+53417+011783FM-15+0051EDOP V0202301N00411220001CN0099001N1-00601-01001999999ADDMA1102301999999REMMET047METAR EDOP 061650Z 23008KT CAVOK M06/M10 Q1023;
0122101624999992009010706204+53417+011783FM-15+0051EDOP V0202501N006210030019N0112651N1-00501-00601999999ADDGA1071+003001999GF107991999999999999999999MA1101291999999REMMET053METAR EDOP 070620Z 25012KT 9999 BKN010 M05/M06 Q1013;
0122101624999992009010706504+53417+011783FM-15+0051EDOP V0202501N005710027019N0112651N1-00401-00601999999ADDGA1071+002701999GF107991999999999999999999MA1101291999999REMMET053METAR EDOP 070650Z 25011KT 9999 BKN009 M04/M06 Q1013;
0122101624999992009010707204+53417+011783FM-15+0051EDOP V0202501N005710027019N0112651N1-00401-00501999999ADDGA1071+002701999GF107991999999999999999999MA1101291999999REMMET053METAR EDOP 070720Z 25011KT 9999 BKN009 M04/M05 Q1013;
0122101624999992009010707504+53417+011783FM-15+0051EDOP V0202601N006210027019N0112651N1-00401-00501999999ADDGA1071+002701999GF107991999999999999999999MA1101391999999REMMET053METAR EDOP 070750Z 26012KT 9999 BKN009 M04/M05 Q1014;
0122101624999992009010708204+53417+011783FM-15+0051EDOP V0202701N005710027019N0112651N1-00301-00501999999ADDGA1071+002701999GF107991999999999999999999MA1101291999999REMMET053METAR EDOP 070820Z 27011KT 9999 BKN009 M03/M05 Q1013;
0122101624999992009010708504+53417+011783FM-15+0051EDOP V0202601N005710027019N0112651N1-00301-00401999999ADDGA1071+002701999GF107991999999999999999999MA1101391999999REMMET053METAR EDOP 070850Z 26011KT 9999 BKN009 M03/M04 Q1014;
0143101624999992009010709204+53417+011783FM-15+0051EDOP V0202601N006210027019N0112651N1-00301-00401999999ADDED199U14009GA1071+002701999GF107991999999999999999999MA1101391999999REMMET063METAR EDOP 070920Z 26012KT 9999 R24/1400N BKN009 M03/M04 Q1014;
0143101624999992009010709504+53417+011783FM-15+0051EDOP V0202601N006210024019N0112651N1-00201-00301999999ADDED199U14009GA1071+002401999GF107991999999999999999999MA1101391999999REMMET063METAR EDOP 070950Z 26012KT 9999 R24/1400N BKN008 M02/M03 Q1014;
0130101624999992009010710204+53417+011783FM-15+0051EDOP V0202701N005110027019N0112651N1-00201-00301999999ADDGA1071+002701999GF107991999999999999999999MA1101391999999REMMET061METAR EDOP 071020Z 27010KT 240V300 9999 BKN009 M02/M03 Q1014;
0122101624999992009010710504+53417+011783FM-15+0051EDOP V0202801N005110027019N0112651N1-00201-00301999999ADDGA1071+002701999GF107991999999999999999999MA1101391999999REMMET053METAR EDOP 071050Z 28010KT 9999 BKN009 M02/M03 Q1014;
0122101624999992009010711204+53417+011783FM-15+0051EDOP V0202801N005112200019N0112651N1-00101-00301999999ADDGA1041+003001999GF104991999999999999999999MA1101391999999REMMET053METAR EDOP 071120Z 28010KT 9999 SCT010 M01/M03 Q1014;
0122101624999992009010711504+53417+011783FM-15+0051EDOP V0202901N004612200019N0112651N1+00001-00301999999ADDGA1021+013201999GF102991999999999999999999MA1101391999999REMMET053METAR EDOP 071150Z 29009KT 9999 FEW044 M00/M03 Q1014;
0129101624999992009010712204+53417+011783FM-15+0051EDOP V0203001N004112200019N0112651N1+00001-00301999999ADDGA1021+014101999GF102991999999999999999999MA1101391999999REMMET060METAR EDOP 071220Z 30008KT 260V320 9999 FEW047 00/M03 Q1014;
0081101624999992009010712504+53417+011783FM-15+0051EDOP V0203101N00411220001CN0099001N1+00101-00401999999ADDMA1101491999999REMMET054METAR EDOP 071250Z 31008KT 270V330 CAVOK 01/M04 Q1015;
0081101624999992009010713204+53417+011783FM-15+0051EDOP V0203101N00461220001CN0099001N1+00101-00501999999ADDMA1101491999999REMMET054METAR EDOP 071320Z 31009KT 280V340 CAVOK 01/M05 Q1015;
0081101624999992009010713504+53417+011783FM-15+0051EDOP V0203101N00361220001CN0099001N1+00101-00501999999ADDMA1101591999999REMMET054METAR EDOP 071350Z 31007KT 270V340 CAVOK 01/M05 Q1016;
0129101624999992009010714204+53417+011783FM-15+0051EDOP V0203001N003612200019N0112651N1+00101-00501999999ADDGA1041+012001999GF104991999999999999999999MA1101591999999REMMET060METAR EDOP 071420Z 30007KT 270V340 9999 SCT040 01/M05 Q1016;
0129101624999992009010714504+53417+011783FM-15+0051EDOP V0203001N003612200019N0112651N1+00001-00501999999ADDGA1041+012001999GF104991999999999999999999MA1101691999999REMMET060METAR EDOP 071450Z 30007KT 260V330 9999 SCT040 00/M05 Q1017;
0130101624999992009010715204+53417+011783FM-15+0051EDOP V0203001N002612200019N0112651N1-00101-00601999999ADDGA1041+009601999GF104991999999999999999999MA1101691999999REMMET061METAR EDOP 071520Z 30005KT 270V330 9999 SCT032 M01/M06 Q1017;
0122101624999992009010715504+53417+011783FM-15+0051EDOP V0202901N002612200019N0112651N1-00201-00701999999ADDGA1041+009001999GF104991999999999999999999MA1101801999999REMMET053METAR EDOP 071550Z 29005KT 9999 SCT030 M02/M07 Q1018;
0122101624999992009010716204+53417+011783FM-15+0051EDOP V0202901N002112200019N0112651N1-00301-00701999999ADDGA1041+009001999GF104991999999999999999999MA1101901999999REMMET053METAR EDOP 071620Z 29004KT 9999 SCT030 M03/M07 Q1019;
0130101624999992009010716504+53417+011783FM-15+0051EDOP V0202901N002112200019N0112651N1-00401-00801999999ADDGA1021+012001999GF102991999999999999999999MA1101901999999REMMET061METAR EDOP 071650Z 29004KT 260V320 9999 FEW040 M04/M08 Q1019;
0074101624999992009010805504+53417+011783FM-15+0051EDOP V0209999C00001220001CN0099001N1-01501-01601999999ADDMA1102911999999REMMET047METAR EDOP 080550Z 00000KT CAVOK M15/M16 Q1029;
0074101624999992009010806504+53417+011783FM-15+0051EDOP V0209999C00001220001CN0099001N1-01501-01701999999ADDMA1102911999999REMMET047METAR EDOP 080650Z 00000KT CAVOK M15/M17 Q1029;
0074101624999992009010807204+53417+011783FM-15+0051EDOP V0209999C00001220001CN0099001N1-01601-01701999999ADDMA1102911999999REMMET047METAR EDOP 080720Z 00000KT CAVOK M16/M17 Q1029;
0074101624999992009010807504+53417+011783FM-15+0051EDOP V0209999C00001220001CN0099001N1-01501-01601999999ADDMA1102911999999REMMET047METAR EDOP 080750Z 00000KT CAVOK M15/M16 Q1029;
0074101624999992009010808204+53417+011783FM-15+0051EDOP V0209999V00101220001CN0099001N1-01201-01401999999ADDMA1103011999999REMMET047METAR EDOP 080820Z VRB02KT CAVOK M12/M14 Q1030;
0074101624999992009010808504+53417+011783FM-15+0051EDOP V0202401N00211220001CN0099001N1-00801-00901999999ADDMA1103011999999REMMET047METAR EDOP 080850Z 24004KT CAVOK M08/M09 Q1030;
0074101624999992009010809204+53417+011783FM-15+0051EDOP V0202301N00261220001CN0099001N1-00701-00801999999ADDMA1103011999999REMMET047METAR EDOP 080920Z 23005KT CAVOK M07/M08 Q1030;
0074101624999992009010809504+53417+011783FM-15+0051EDOP V0209999V00101220001CN0099001N1-00601-00701999999ADDMA1103011999999REMMET047METAR EDOP 080950Z VRB02KT CAVOK M06/M07 Q1030;
0074101624999992009010810204+53417+011783FM-15+0051EDOP V0202201N00361220001CN0099001N1-00501-00701999999ADDMA1103011999999REMMET047METAR EDOP 081020Z 22007KT CAVOK M05/M07 Q1030;
0074101624999992009010810504+53417+011783FM-15+0051EDOP V0202201N00411220001CN0099001N1-00401-00701999999ADDMA1103011999999REMMET047METAR EDOP 081050Z 22008KT CAVOK M04/M07 Q1030;
0122101624999992009010811204+53417+011783FM-15+0051EDOP V0202201N005112200019N0070001N1-00501-00801999999ADDGF100991999999999999999999MA1103011999999REMMET050METAR EDOP 081120Z 22010KT 7000 NSC M05/M08 Q1030;EQDQ01    003SCCGA1
0122101624999992009010811504+53417+011783FM-15+0051EDOP V0202201N004612200019N0050001N1-00501-00801999999ADDGF100991999999999999999999MA1103011999999REMMET050METAR EDOP 081150Z 22009KT 5000 NSC M05/M08 Q1030;EQDQ01    003SCCGA1
0122101624999992009010812204+53417+011783FM-15+0051EDOP V0202201N004612200019N0050001N1-00401-00701999999ADDGF100991999999999999999999MA1102911999999REMMET050METAR EDOP 081220Z 22009KT 5000 NSC M04/M07 Q1029;EQDQ01    003SCCGA1
0131101624999992009010812504+53417+011783FM-15+0051EDOP V0202301N004612200019N0050001N1-00401-00701999999ADDGF100991999999999999999999MA1102911999999MW1101REMMET053METAR EDOP 081250Z 23009KT 5000 BR NSC M04/M07 Q1029;EQDQ01    003SCCGA1
0131101624999992009010813204+53417+011783FM-15+0051EDOP V0202201N004112200019N0045001N1-00501-00701999999ADDGA1021+001201999GF102991999999999999999999MA1102911999999MW1101REMMET056METAR EDOP 081320Z 22008KT 4500 BR FEW004 M05/M07 Q1029;
0131101624999992009010813504+53417+011783FM-15+0051EDOP V0202201N004612200019N0045001N1-00501-00601999999ADDGA1041+001501999GF104991999999999999999999MA1102911999999MW1101REMMET056METAR EDOP 081350Z 22009KT 4500 BR SCT005 M05/M06 Q1029;
0131101624999992009010814204+53417+011783FM-15+0051EDOP V0202201N004612200019N0045001N1-00501-00601999999ADDGA1041+001501999GF104991999999999999999999MA1102911999999MW1101REMMET056METAR EDOP 081420Z 22009KT 4500 BR SCT005 M05/M06 Q1029;
0131101624999992009010814504+53417+011783FM-15+0051EDOP V0202201N004612200019N0045001N1-00501-00601999999ADDGA1021+001501999GF102991999999999999999999MA1102911999999MW1101REMMET056METAR EDOP 081450Z 22009KT 4500 BR FEW005 M05/M06 Q1029;
0131101624999992009010815204+53417+011783FM-15+0051EDOP V0202201N004612200019N0045001N1-00501-00701999999ADDGA1021+001501999GF102991999999999999999999MA1102911999999MW1101REMMET056METAR EDOP 081520Z 22009KT 4500 BR FEW005 M05/M07 Q1029;
0131101624999992009010815504+53417+011783FM-15+0051EDOP V0202201N006212200019N0040001N1-00501-00701999999ADDGA1021+001501999GF102991999999999999999999MA1102911999999MW1101REMMET056METAR EDOP 081550Z 22012KT 4000 BR FEW005 M05/M07 Q1029;
0131101624999992009010816204+53417+011783FM-15+0051EDOP V0202101N006712200019N0040001N1-00501-00701999999ADDGA1021+001501999GF102991999999999999999999MA1102911999999MW1101REMMET056METAR EDOP 081620Z 21013KT 4000 BR FEW005 M05/M07 Q1029;
0131101624999992009010816504+53417+011783FM-15+0051EDOP V0202301N005712200019N0040001N1-00501-00701999999ADDGA1021+001201999GF102991999999999999999999MA1102911999999MW1101REMMET056METAR EDOP 081650Z 23011KT 4000 BR FEW004 M05/M07 Q1029;
0122101624999992009010905504+53417+011783FM-15+0051EDOP V0202301N005110030019N0112651N1-00301-00501999999ADDGA1071+003001999GF107991999999999999999999MA1102711999999REMMET053METAR EDOP 090550Z 23010KT 9999 BKN010 M03/M05 Q1027;
0122101624999992009010906504+53417+011783FM-15+0051EDOP V0202401N003610030019N0112651N1-00301-00501999999ADDGA1071+003001999GF107991999999999999999999MA1102711999999REMMET053METAR EDOP 090650Z 24007KT 9999 BKN010 M03/M05 Q1027;
0122101624999992009010907204+53417+011783FM-15+0051EDOP V0202401N004110030019N0112651N1-00301-00501999999ADDGA1071+003001999GF107991999999999999999999MA1102711999999REMMET053METAR EDOP 090720Z 24008KT 9999 BKN010 M03/M05 Q1027;
0122101624999992009010907504+53417+011783FM-15+0051EDOP V0202501N004110030019N0112651N1-00201-00401999999ADDGA1071+003001999GF107991999999999999999999MA1102711999999REMMET053METAR EDOP 090750Z 25008KT 9999 BKN010 M02/M04 Q1027;
0122101624999992009010908204+53417+011783FM-15+0051EDOP V0202401N004110030019N0112651N1-00201-00401999999ADDGA1071+003001999GF107991999999999999999999MA1102811999999REMMET053METAR EDOP 090820Z 24008KT 9999 BKN010 M02/M04 Q1028;
0145101624999992009010908504+53417+011783FM-15+0051EDOP V0202401N004610090019N0112651N1-00201-00401999999ADDGA1041+003001999GA2071+009001999GF107991999999999999999999MA1102711999999REMMET060METAR EDOP 090850Z 24009KT 9999 SCT010 BKN030 M02/M04 Q1027;
0145101624999992009010909204+53417+011783FM-15+0051EDOP V0202501N004110093019N0112651N1-00101-00401999999ADDGA1041+003001999GA2071+009301999GF107991999999999999999999MA1102811999999REMMET060METAR EDOP 090920Z 25008KT 9999 SCT010 BKN031 M01/M04 Q1028;
0145101624999992009010909504+53417+011783FM-15+0051EDOP V0202401N004610105019N0112651N1-00101-00301999999ADDGA1021+003001999GA2071+010501999GF107991999999999999999999MA1102811999999REMMET060METAR EDOP 090950Z 24009KT 9999 FEW010 BKN035 M01/M03 Q1028;
0145101624999992009010910204+53417+011783FM-15+0051EDOP V0202501N004610093019N0112651N1-00101-00301999999ADDGA1021+003001999GA2071+009301999GF107991999999999999999999MA1102811999999REMMET060METAR EDOP 091020Z 25009KT 9999 FEW010 BKN031 M01/M03 Q1028;
0122101624999992009010910504+53417+011783FM-15+0051EDOP V0202501N004110093019N0090001N1+00001-00301999999ADDGA1071+009301999GF107991999999999999999999MA1102811999999REMMET053METAR EDOP 091050Z 25008KT 9000 BKN031 M00/M03 Q1028;
0122101624999992009010911204+53417+011783FM-15+0051EDOP V0202501N004610096019N0090001N1+00001-00201999999ADDGA1071+009601999GF107991999999999999999999MA1102811999999REMMET053METAR EDOP 091120Z 25009KT 9000 BKN032 M00/M02 Q1028;
0144101624999992009010911504+53417+011783FM-15+0051EDOP V0202501N004610093019N0090001N1+00001-00201999999ADDGA1021+003601999GA2071+009301999GF107991999999999999999999MA1102811999999REMMET059METAR EDOP 091150Z 25009KT 9000 FEW012 BKN031 00/M02 Q1028;
0144101624999992009010912204+53417+011783FM-15+0051EDOP V0202501N004610090019N0080001N1+00001-00201999999ADDGA1021+003601999GA2071+009001999GF107991999999999999999999MA1102811999999REMMET059METAR EDOP 091220Z 25009KT 8000 FEW012 BKN030 00/M02 Q1028;
0144101624999992009010912504+53417+011783FM-15+0051EDOP V0202501N004610096019N0080001N1+00001-00201999999ADDGA1041+003001999GA2071+009601999GF107991999999999999999999MA1102711999999REMMET059METAR EDOP 091250Z 25009KT 8000 SCT010 BKN032 00/M02 Q1027;
0144101624999992009010913204+53417+011783FM-15+0051EDOP V0202501N004610090019N0070001N1+00001-00201999999ADDGA1041+003601999GA2071+009001999GF107991999999999999999999MA1102711999999REMMET059METAR EDOP 091320Z 25009KT 7000 SCT012 BKN030 00/M02 Q1027;
0144101624999992009010913504+53417+011783FM-15+0051EDOP V0202501N003610081019N0070001N1+00001-00201999999ADDGA1021+003601999GA2071+008101999GF107991999999999999999999MA1102711999999REMMET059METAR EDOP 091350Z 25007KT 7000 FEW012 BKN027 00/M02 Q1027;
0121101624999992009010914204+53417+011783FM-15+0051EDOP V0202501N003610084019N0060001N1+00001-00201999999ADDGA1071+008401999GF107991999999999999999999MA1102811999999REMMET052METAR EDOP 091420Z 25007KT 6000 BKN028 00/M02 Q1028;
0121101624999992009010914504+53417+011783FM-15+0051EDOP V0202601N003110093019N0060001N1+00001-00201999999ADDGA1071+009301999GF107991999999999999999999MA1102811999999REMMET052METAR EDOP 091450Z 26006KT 6000 BKN031 00/M02 Q1028;
0122101624999992009010915204+53417+011783FM-15+0051EDOP V0202501N003110093019N0060001N1+00001-00201999999ADDGA1071+009301999GF107991999999999999999999MA1102811999999REMMET053METAR EDOP 091520Z 25006KT 6000 BKN031 M00/M02 Q1028;
0122101624999992009010915504+53417+011783FM-15+0051EDOP V0202601N002610090019N0050001N1-00101-00301999999ADDGA1071+009001999GF107991999999999999999999MA1102811999999REMMET053METAR EDOP 091550Z 26005KT 5000 BKN030 M01/M03 Q1028;
0122101624999992009010916204+53417+011783FM-15+0051EDOP V0202601N003110087019N0050001N1-00201-00301999999ADDGA1071+008701999GF107991999999999999999999MA1102811999999REMMET053METAR EDOP 091620Z 26006KT 5000 BKN029 M02/M03 Q1028;
0122101624999992009010916504+53417+011783FM-15+0051EDOP V0202601N003110081019N0050001N1-00201-00301999999ADDGA1071+008101999GF107991999999999999999999MA1102811999999REMMET053METAR EDOP 091650Z 26006KT 5000 BKN027 M02/M03 Q1028;
0121101624999992009011005504+53417+011783FM-15+0051EDOP V0202401N001510075019N0112651N1+00001-00101999999ADDGA1071+007501999GF107991999999999999999999MA1102911999999REMMET052METAR EDOP 100550Z 24003KT 9999 BKN025 00/M01 Q1029;
0122101624999992009011006204+53417+011783FM-15+0051EDOP V0202401N001510075019N0112651N1+00001-00101999999ADDGA1071+007501999GF107991999999999999999999MA1102911999999REMMET053METAR EDOP 100620Z 24003KT 9999 BKN025 M00/M01 Q1029;
0121101624999992009011007204+53417+011783FM-15+0051EDOP V0202201N001510075019N0080001N1+00001+00001999999ADDGA1071+007501999GF107991999999999999999999MA1103011999999REMMET052METAR EDOP 100720Z 22003KT 8000 BKN025 00/M00 Q1030;
0121101624999992009011007504+53417+011783FM-15+0051EDOP V0202201N001510075019N0060001N1+00001-00101999999ADDGA1071+007501999GF107991999999999999999999MA1103011999999REMMET052METAR EDOP 100750Z 22003KT 6000 BKN025 00/M01 Q1030;
0121101624999992009011008204+53417+011783FM-15+0051EDOP V0202301N001510078019N0060001N1+00001-00101999999ADDGA1071+007801999GF107991999999999999999999MA1103011999999REMMET052METAR EDOP 100820Z 23003KT 6000 BKN026 00/M01 Q1030;
0121101624999992009011008504+53417+011783FM-15+0051EDOP V0209999C000010078019N0060001N1+00101+00001999999ADDGA1071+007801999GF107991999999999999999999MA1103011999999REMMET052METAR EDOP 100850Z 00000KT 6000 BKN026 01/M00 Q1030;
0121101624999992009011009204+53417+011783FM-15+0051EDOP V0209999C000010078019N0070001N1+00101-00101999999ADDGA1071+007801999GF107991999999999999999999MA1103121999999REMMET052METAR EDOP 100920Z 00000KT 7000 BKN026 01/M01 Q1031;
0121101624999992009011009504+53417+011783FM-15+0051EDOP V0201501N001510081019N0060001N1+00101-00101999999ADDGA1071+008101999GF107991999999999999999999MA1103121999999REMMET052METAR EDOP 100950Z 15003KT 6000 BKN027 01/M01 Q1031;
0121101624999992009011010204+53417+011783FM-15+0051EDOP V0209999C000010078019N0070001N1+00101-00101999999ADDGA1071+007801999GF107991999999999999999999MA1103121999999REMMET052METAR EDOP 101020Z 00000KT 7000 BKN026 01/M01 Q1031;
0121101624999992009011010504+53417+011783FM-15+0051EDOP V0209999C000010081019N0060001N1+00101-00101999999ADDGA1071+008101999GF107991999999999999999999MA1103121999999REMMET052METAR EDOP 101050Z 00000KT 6000 BKN027 01/M01 Q1031;
0121101624999992009011011204+53417+011783FM-15+0051EDOP V0209999C000010081019N0060001N1+00101-00101999999ADDGA1071+008101999GF107991999999999999999999MA1103121999999REMMET052METAR EDOP 101120Z 00000KT 6000 BKN027 01/M01 Q1031;
0121101624999992009011011504+53417+011783FM-15+0051EDOP V0209999C000010081019N0070001N1+00101-00101999999ADDGA1071+008101999GF107991999999999999999999MA1103011999999REMMET052METAR EDOP 101150Z 00000KT 7000 BKN027 01/M01 Q1030;
0121101624999992009011012204+53417+011783FM-15+0051EDOP V0209999C000010078019N0060001N1+00101-00101999999ADDGA1071+007801999GF107991999999999999999999MA1103011999999REMMET052METAR EDOP 101220Z 00000KT 6000 BKN026 01/M01 Q1030;
0121101624999992009011012504+53417+011783FM-15+0051EDOP V0209999C000010078019N0060001N1+00201-00101999999ADDGA1071+007801999GF107991999999999999999999MA1103011999999REMMET052METAR EDOP 101250Z 00000KT 6000 BKN026 02/M01 Q1030;
0121101624999992009011013204+53417+011783FM-15+0051EDOP V0201601N002110075019N0060001N1+00201-00101999999ADDGA1071+007501999GF107991999999999999999999MA1102911999999REMMET052METAR EDOP 101320Z 16004KT 6000 BKN025 02/M01 Q1029;
0121101624999992009011013504+53417+011783FM-15+0051EDOP V0201701N004110075019N0060001N1+00101-00101999999ADDGA1071+007501999GF107991999999999999999999MA1102911999999REMMET052METAR EDOP 101350Z 17008KT 6000 BKN025 01/M01 Q1029;
0121101624999992009011014204+53417+011783FM-15+0051EDOP V0201701N004610075019N0060001N1+00101-00101999999ADDGA1071+007501999GF107991999999999999999999MA1102911999999REMMET052METAR EDOP 101420Z 17009KT 6000 BKN025 01/M01 Q1029;
0121101624999992009011014504+53417+011783FM-15+0051EDOP V0201701N003610069019N0060001N1+00101-00201999999ADDGA1071+006901999GF107991999999999999999999MA1102911999999REMMET052METAR EDOP 101450Z 17007KT 6000 BKN023 01/M02 Q1029;
0121101624999992009011015204+53417+011783FM-15+0051EDOP V0201701N003110066019N0060001N1+00101-00201999999ADDGA1071+006601999GF107991999999999999999999MA1102911999999REMMET052METAR EDOP 101520Z 17006KT 6000 BKN022 01/M02 Q1029;
0121101624999992009011015504+53417+011783FM-15+0051EDOP V0201701N003110066019N0060001N1+00101-00201999999ADDGA1071+006601999GF107991999999999999999999MA1102911999999REMMET052METAR EDOP 101550Z 17006KT 6000 BKN022 01/M02 Q1029;
0121101624999992009011016204+53417+011783FM-15+0051EDOP V0201601N002610063019N0060001N1+00101-00201999999ADDGA1071+006301999GF107991999999999999999999MA1102911999999REMMET052METAR EDOP 101620Z 16005KT 6000 BKN021 01/M02 Q1029;
0121101624999992009011016504+53417+011783FM-15+0051EDOP V0201701N002610060019N0060001N1+00001-00201999999ADDGA1071+006001999GF107991999999999999999999MA1102911999999REMMET052METAR EDOP 101650Z 17005KT 6000 BKN020 00/M02 Q1029;
0074101624999992009011105504+53417+011783FM-15+0051EDOP V0202201N00361220001CN0099001N1-00501-01001999999ADDMA1102811999999REMMET047METAR EDOP 110550Z 22007KT CAVOK M05/M10 Q1028;
0074101624999992009011106204+53417+011783FM-15+0051EDOP V0202201N00361220001CN0099001N1-00501-01001999999ADDMA1102811999999REMMET047METAR EDOP 110620Z 22007KT CAVOK M05/M10 Q1028;
0074101624999992009011107204+53417+011783FM-15+0051EDOP V0202001N00411220001CN0099001N1-00601-01001999999ADDMA1102811999999REMMET047METAR EDOP 110720Z 20008KT CAVOK M06/M10 Q1028;
0074101624999992009011107504+53417+011783FM-15+0051EDOP V0202101N00361220001CN0099001N1-00501-01001999999ADDMA1102911999999REMMET047METAR EDOP 110750Z 21007KT CAVOK M05/M10 Q1029;
0074101624999992009011108204+53417+011783FM-15+0051EDOP V0202001N00511220001CN0099001N1-00401-00901999999ADDMA1102911999999REMMET047METAR EDOP 110820Z 20010KT CAVOK M04/M09 Q1029;
0074101624999992009011108504+53417+011783FM-15+0051EDOP V0202101N00461220001CN0099001N1-00401-00901999999ADDMA1102911999999REMMET047METAR EDOP 110850Z 21009KT CAVOK M04/M09 Q1029;
0074101624999992009011109204+53417+011783FM-15+0051EDOP V0202201N00511220001CN0099001N1-00301-00901999999ADDMA1102911999999REMMET047METAR EDOP 110920Z 22010KT CAVOK M03/M09 Q1029;
0074101624999992009011109504+53417+011783FM-15+0051EDOP V0202101N00621220001CN0099001N1-00301-00901999999ADDMA1102911999999REMMET047METAR EDOP 110950Z 21012KT CAVOK M03/M09 Q1029;
0074101624999992009011110204+53417+011783FM-15+0051EDOP V0202201N00571220001CN0099001N1-00301-00901999999ADDMA1102811999999REMMET047METAR EDOP 111020Z 22011KT CAVOK M03/M09 Q1028;
0074101624999992009011110504+53417+011783FM-15+0051EDOP V0202201N00511220001CN0099001N1-00201-00801999999ADDMA1102811999999REMMET047METAR EDOP 111050Z 22010KT CAVOK M02/M08 Q1028;
0074101624999992009011111204+53417+011783FM-15+0051EDOP V0202201N00511220001CN0099001N1-00201-00801999999ADDMA1102811999999REMMET047METAR EDOP 111120Z 22010KT CAVOK M02/M08 Q1028;
0074101624999992009011111504+53417+011783FM-15+0051EDOP V0202201N00571220001CN0099001N1-00101-00701999999ADDMA1102811999999REMMET047METAR EDOP 111150Z 22011KT CAVOK M01/M07 Q1028;
0074101624999992009011112204+53417+011783FM-15+0051EDOP V0202201N00511220001CN0099001N1-00101-00701999999ADDMA1102811999999REMMET047METAR EDOP 111220Z 22010KT CAVOK M01/M07 Q1028;
0074101624999992009011112504+53417+011783FM-15+0051EDOP V0202201N00511220001CN0099001N1+00001-00801999999ADDMA1102811999999REMMET047METAR EDOP 111250Z 22010KT CAVOK M00/M08 Q1028;
0073101624999992009011113204+53417+011783FM-15+0051EDOP V0202101N00461220001CN0099001N1+00001-00701999999ADDMA1102811999999REMMET046METAR EDOP 111320Z 21009KT CAVOK 00/M07 Q1028;
0073101624999992009011113504+53417+011783FM-15+0051EDOP V0202101N00511220001CN0099001N1+00001-00701999999ADDMA1102711999999REMMET046METAR EDOP 111350Z 21010KT CAVOK 00/M07 Q1027;
0074101624999992009011114204+53417+011783FM-15+0051EDOP V0202001N00621220001CN0099001N1+00001-00801999999ADDMA1102711999999REMMET047METAR EDOP 111420Z 20012KT CAVOK M00/M08 Q1027;
0074101624999992009011114504+53417+011783FM-15+0051EDOP V0202001N00571220001CN0099001N1-00101-00801999999ADDMA1102711999999REMMET047METAR EDOP 111450Z 20011KT CAVOK M01/M08 Q1027;
0074101624999992009011115204+53417+011783FM-15+0051EDOP V0202001N00511220001CN0099001N1-00101-00801999999ADDMA1102711999999REMMET047METAR EDOP 111520Z 20010KT CAVOK M01/M08 Q1027;
0074101624999992009011115504+53417+011783FM-15+0051EDOP V0202001N00461220001CN0099001N1-00201-00801999999ADDMA1102811999999REMMET047METAR EDOP 111550Z 20009KT CAVOK M02/M08 Q1028;
0082101624999992009011116204+53417+011783FM-15+0051EDOP V0201901N00461220001CN0099001N1-00201-00801999999ADDMA1102711999999REMMET055METAR EDOP 111620Z 19009KT 160V220 CAVOK M02/M08 Q1027;
0074101624999992009011116504+53417+011783FM-15+0051EDOP V0202001N00571220001CN0099001N1-00201-00801999999ADDMA1102711999999REMMET047METAR EDOP 111650Z 20011KT CAVOK M02/M08 Q1027;
0074101624999992009011206204+53417+011783FM-15+0051EDOP V0202001N00671220001CN0099001N1-00401-01001999999ADDMA1102201999999REMMET047METAR EDOP 120620Z 20013KT CAVOK M04/M10 Q1022;
0074101624999992009011206504+53417+011783FM-15+0051EDOP V0201901N00771220001CN0099001N1-00401-01001999999ADDMA1102201999999REMMET047METAR EDOP 120650Z 19015KT CAVOK M04/M10 Q1022;
0074101624999992009011207204+53417+011783FM-15+0051EDOP V0201901N00871220001CN0099001N1-00301-01001999999ADDMA1102201999999REMMET047METAR EDOP 120720Z 19017KT CAVOK M03/M10 Q1022;
0074101624999992009011207504+53417+011783FM-15+0051EDOP V0201901N00871220001CN0099001N1-00301-01001999999ADDMA1102101999999REMMET047METAR EDOP 120750Z 19017KT CAVOK M03/M10 Q1021;
0074101624999992009011208204+53417+011783FM-15+0051EDOP V0201901N00931220001CN0099001N1-00201-01001999999ADDMA1102101999999REMMET047METAR EDOP 120820Z 19018KT CAVOK M02/M10 Q1021;
0074101624999992009011208504+53417+011783FM-15+0051EDOP V0201901N00871220001CN0099001N1-00201-00901999999ADDMA1102101999999REMMET047METAR EDOP 120850Z 19017KT CAVOK M02/M09 Q1021;
0074101624999992009011209204+53417+011783FM-15+0051EDOP V0202001N00671220001CN0099001N1-00101-00901999999ADDMA1102201999999REMMET047METAR EDOP 120920Z 20013KT CAVOK M01/M09 Q1022;
0074101624999992009011209504+53417+011783FM-15+0051EDOP V0202001N00721220001CN0099001N1+00001-00901999999ADDMA1102101999999REMMET047METAR EDOP 120950Z 20014KT CAVOK M00/M09 Q1021;
0073101624999992009011210204+53417+011783FM-15+0051EDOP V0202001N00871220001CN0099001N1+00001-00801999999ADDMA1102101999999REMMET046METAR EDOP 121020Z 20017KT CAVOK 00/M08 Q1021;
0073101624999992009011210504+53417+011783FM-15+0051EDOP V0202001N00871220001CN0099001N1+00101-00801999999ADDMA1102101999999REMMET046METAR EDOP 121050Z 20017KT CAVOK 01/M08 Q1021;
0073101624999992009011211204+53417+011783FM-15+0051EDOP V0202001N00821220001CN0099001N1+00101-00801999999ADDMA1102001999999REMMET046METAR EDOP 121120Z 20016KT CAVOK 01/M08 Q1020;
0073101624999992009011211504+53417+011783FM-15+0051EDOP V0202001N00721220001CN0099001N1+00201-00701999999ADDMA1102001999999REMMET046METAR EDOP 121150Z 20014KT CAVOK 02/M07 Q1020;
0073101624999992009011212204+53417+011783FM-15+0051EDOP V0202001N00721220001CN0099001N1+00201-00701999999ADDMA1101901999999REMMET046METAR EDOP 121220Z 20014KT CAVOK 02/M07 Q1019;
0073101624999992009011212504+53417+011783FM-15+0051EDOP V0201901N00721220001CN0099001N1+00201-00701999999ADDMA1101901999999REMMET046METAR EDOP 121250Z 19014KT CAVOK 02/M07 Q1019;
0073101624999992009011213204+53417+011783FM-15+0051EDOP V0201901N00721220001CN0099001N1+00201-00701999999ADDMA1101901999999REMMET046METAR EDOP 121320Z 19014KT CAVOK 02/M07 Q1019;
0073101624999992009011213504+53417+011783FM-15+0051EDOP V0201901N00721220001CN0099001N1+00201-00701999999ADDMA1101801999999REMMET046METAR EDOP 121350Z 19014KT CAVOK 02/M07 Q1018;
0073101624999992009011214204+53417+011783FM-15+0051EDOP V0201901N00671220001CN0099001N1+00201-00701999999ADDMA1101801999999REMMET046METAR EDOP 121420Z 19013KT CAVOK 02/M07 Q1018;
0073101624999992009011214504+53417+011783FM-15+0051EDOP V0201901N00771220001CN0099001N1+00101-00701999999ADDMA1101801999999REMMET046METAR EDOP 121450Z 19015KT CAVOK 01/M07 Q1018;
0073101624999992009011215204+53417+011783FM-15+0051EDOP V0201901N00721220001CN0099001N1+00101-00801999999ADDMA1101801999999REMMET046METAR EDOP 121520Z 19014KT CAVOK 01/M08 Q1018;
0073101624999992009011215504+53417+011783FM-15+0051EDOP V0201801N00821220001CN0099001N1+00101-00701999999ADDMA1101691999999REMMET046METAR EDOP 121550Z 18016KT CAVOK 01/M07 Q1017;
0084101624999992009011216204+53417+011783FM-15+0051EDOP V0201801N00871220001CN0099001N1+00001-00701999999ADDMA1101691999999OC101391REMMET049METAR EDOP 121620Z 18017G27KT CAVOK 00/M07 Q1017;
0073101624999992009011216504+53417+011783FM-15+0051EDOP V0201801N00771220001CN0099001N1+00001-00801999999ADDMA1101691999999REMMET046METAR EDOP 121650Z 18015KT CAVOK 00/M08 Q1017;
0121101624999992009011306204+53417+011783FM-15+0051EDOP V0202001N006210063019N0112651N1+00201-00401999999ADDGA1071+006301999GF107991999999999999999999MA1101191999999REMMET052METAR EDOP 130620Z 20012KT 9999 BKN021 02/M04 Q1012;
0121101624999992009011306504+53417+011783FM-15+0051EDOP V0202001N006210060019N0112651N1+00201-00401999999ADDGA1071+006001999GF107991999999999999999999MA1101191999999REMMET052METAR EDOP 130650Z 20012KT 9999 BKN020 02/M04 Q1012;
0121101624999992009011307204+53417+011783FM-15+0051EDOP V0201901N006210060019N0112651N1+00201-00401999999ADDGA1071+006001999GF107991999999999999999999MA1101191999999REMMET052METAR EDOP 130720Z 19012KT 9999 BKN020 02/M04 Q1012;
0121101624999992009011307504+53417+011783FM-15+0051EDOP V0202001N005710054019N0112651N1+00201-00401999999ADDGA1071+005401999GF107991999999999999999999MA1101191999999REMMET052METAR EDOP 130750Z 20011KT 9999 BKN018 02/M04 Q1012;
0121101624999992009011308204+53417+011783FM-15+0051EDOP V0202001N007210054019N0112651N1+00301-00301999999ADDGA1071+005401999GF107991999999999999999999MA1101191999999REMMET052METAR EDOP 130820Z 20014KT 9999 BKN018 03/M03 Q1012;
0144101624999992009011308504+53417+011783FM-15+0051EDOP V0202101N007210096019N0112651N1+00301-00301999999ADDGA1041+005101999GA2071+009601999GF107991999999999999999999MA1101291999999REMMET059METAR EDOP 130850Z 21014KT 9999 SCT017 BKN032 03/M03 Q1013;
0121101624999992009011309204+53417+011783FM-15+0051EDOP V0202101N006710054019N0112651N1+00301-00301999999ADDGA1071+005401999GF107991999999999999999999MA1101291999999REMMET052METAR EDOP 130920Z 21013KT 9999 BKN018 03/M03 Q1013;
0121101624999992009011309504+53417+011783FM-15+0051EDOP V0202101N007710051019N0112651N1+00401-00301999999ADDGA1071+005101999GF107991999999999999999999MA1101291999999REMMET052METAR EDOP 130950Z 21015KT 9999 BKN017 04/M03 Q1013;
0121101624999992009011310204+53417+011783FM-15+0051EDOP V0202101N006210051019N0112651N1+00401-00201999999ADDGA1071+005101999GF107991999999999999999999MA1101291999999REMMET052METAR EDOP 131020Z 21012KT 9999 BKN017 04/M02 Q1013;
0121101624999992009011310504+53417+011783FM-15+0051EDOP V0202201N006710051019N0112651N1+00401-00201999999ADDGA1071+005101999GF107991999999999999999999MA1101291999999REMMET052METAR EDOP 131050Z 22013KT 9999 BKN017 04/M02 Q1013;
0121101624999992009011311204+53417+011783FM-15+0051EDOP V0202101N006210054019N0112651N1+00401-00201999999ADDGA1071+005401999GF107991999999999999999999MA1101291999999REMMET052METAR EDOP 131120Z 21012KT 9999 BKN018 04/M02 Q1013;
0121101624999992009011311504+53417+011783FM-15+0051EDOP V0202101N005710066019N0112651N1+00401-00201999999ADDGA1071+006601999GF107991999999999999999999MA1101291999999REMMET052METAR EDOP 131150Z 21011KT 9999 BKN022 04/M02 Q1013;
0121101624999992009011312204+53417+011783FM-15+0051EDOP V0202101N005110060019N0112651N1+00401-00201999999ADDGA1071+006001999GF107991999999999999999999MA1101291999999REMMET052METAR EDOP 131220Z 21010KT 9999 BKN020 04/M02 Q1013;
0121101624999992009011312504+53417+011783FM-15+0051EDOP V0202001N005710066019N0112651N1+00401-00201999999ADDGA1071+006601999GF107991999999999999999999MA1101291999999REMMET052METAR EDOP 131250Z 20011KT 9999 BKN022 04/M02 Q1013;
0121101624999992009011313204+53417+011783FM-15+0051EDOP V0202001N006710075019N0112651N1+00401-00201999999ADDGA1071+007501999GF107991999999999999999999MA1101291999999REMMET052METAR EDOP 131320Z 20013KT 9999 BKN025 04/M02 Q1013;
0121101624999992009011313504+53417+011783FM-15+0051EDOP V0202101N005112200019N0112651N1+00401-00201999999ADDGA1041+006901999GF104991999999999999999999MA1101291999999REMMET052METAR EDOP 131350Z 21010KT 9999 SCT023 04/M02 Q1013;
0121101624999992009011314204+53417+011783FM-15+0051EDOP V0202001N003610045019N0090001N1+00401-00201999999ADDGA1071+004501999GF107991999999999999999999MA1101291999999REMMET052METAR EDOP 131420Z 20007KT 9000 BKN015 04/M02 Q1013;
0121101624999992009011314504+53417+011783FM-15+0051EDOP V0202101N004110048019N0090001N1+00401-00101999999ADDGA1071+004801999GF107991999999999999999999MA1101291999999REMMET052METAR EDOP 131450Z 21008KT 9000 BKN016 04/M01 Q1013;
0121101624999992009011315204+53417+011783FM-15+0051EDOP V0202001N004110048019N0090001N1+00401-00201999999ADDGA1071+004801999GF107991999999999999999999MA1101291999999REMMET052METAR EDOP 131520Z 20008KT 9000 BKN016 04/M02 Q1013;
0121101624999992009011315504+53417+011783FM-15+0051EDOP V0202101N002610045019N0090001N1+00401-00201999999ADDGA1071+004501999GF107991999999999999999999MA1101291999999REMMET052METAR EDOP 131550Z 21005KT 9000 BKN015 04/M02 Q1013;
0152101624999992009011316204+53417+011783FM-15+0051EDOP V0202001N003110069019N0090001N1+00401-00201999999ADDGA1041+003601999GA2071+006901999GF107991999999999999999999MA1101291999999REMMET067METAR EDOP 131620Z 20006KT 160V220 9000 SCT012 BKN023 04/M02 Q1013;
0121101624999992009011316504+53417+011783FM-15+0051EDOP V0202001N004110045019N0090001N1+00301-00201999999ADDGA1071+004501999GF107991999999999999999999MA1101291999999REMMET052METAR EDOP 131650Z 20008KT 9000 BKN015 03/M02 Q1013;
0121101624999992009011405504+53417+011783FM-15+0051EDOP V0201901N002610030019N0112651N1+00101-00101999999ADDGA1071+003001999GF107991999999999999999999MA1101191999999REMMET052METAR EDOP 140550Z 19005KT 9999 BKN010 01/M01 Q1012;
0121101624999992009011406204+53417+011783FM-15+0051EDOP V0202001N003610030019N0112651N1+00201-00101999999ADDGA1071+003001999GF107991999999999999999999MA1101191999999REMMET052METAR EDOP 140620Z 20007KT 9999 BKN010 02/M01 Q1012;
0121101624999992009011407204+53417+011783FM-15+0051EDOP V0201801N003110030019N0112651N1+00101-00201999999ADDGA1071+003001999GF107991999999999999999999MA1101191999999REMMET052METAR EDOP 140720Z 18006KT 9999 BKN010 01/M02 Q1012;
0121101624999992009011407504+53417+011783FM-15+0051EDOP V0209999V001510030019N0112651N1+00101-00201999999ADDGA1071+003001999GF107991999999999999999999MA1101191999999REMMET052METAR EDOP 140750Z VRB03KT 9999 BKN010 01/M02 Q1012;
0121101624999992009011408204+53417+011783FM-15+0051EDOP V0209999V001510030019N0112651N1+00101-00101999999ADDGA1071+003001999GF107991999999999999999999MA1101191999999REMMET052METAR EDOP 140820Z VRB03KT 9999 BKN010 01/M01 Q1012;
0121101624999992009011408504+53417+011783FM-15+0051EDOP V0202101N002610024019N0112651N1+00101-00101999999ADDGA1071+002401999GF107991999999999999999999MA1101191999999REMMET052METAR EDOP 140850Z 21005KT 9999 BKN008 01/M01 Q1012;
0121101624999992009011409204+53417+011783FM-15+0051EDOP V0202001N003610024019N0112651N1+00101-00201999999ADDGA1071+002401999GF107991999999999999999999MA1101291999999REMMET052METAR EDOP 140920Z 20007KT 9999 BKN008 01/M02 Q1013;
0130101624999992009011409504+53417+011783FM-15+0051EDOP V0201901N002610021019N0070001N1+00101-00101999999ADDGA1071+002101999GF107991999999999999999999MA1101291999999MW1531REMMET055METAR EDOP 140950Z 19005KT 7000 DZ BKN007 01/M01 Q1013;
0130101624999992009011410204+53417+011783FM-15+0051EDOP V0202101N003110024019N0050001N1+00101-00101999999ADDGA1071+002401999GF107991999999999999999999MA1101291999999MW1531REMMET055METAR EDOP 141020Z 21006KT 5000 DZ BKN008 01/M01 Q1013;
0152101624999992009011410504+53417+011783FM-15+0051EDOP V0202301N003110120019N0040001N1+00101+00001999999ADDGA1041+002401999GA2071+012001999GF107991999999999999999999MA1101191999999MW1531REMMET061METAR EDOP 141050Z 23006KT 4000 DZ SCT008 BKN040 01/00 Q1012;
0139101624999992009011411204+53417+011783FM-15+0051EDOP V0202301N003110021019N0037001N1+00101+00101999999ADDGA1071+002101999GF107991999999999999999999MA1101191999999MW1101MW2511REMMET058METAR EDOP 141120Z 23006KT 3700 -DZ BR BKN007 01/01 Q1012;
0129101624999992009011411504+53417+011783FM-15+0051EDOP V0202501N002610021019N0040001N1+00201+00101999999ADDGA1071+002101999GF107991999999999999999999MA1101191999999MW1101REMMET054METAR EDOP 141150Z 25005KT 4000 BR BKN007 02/01 Q1012;
0129101624999992009011412204+53417+011783FM-15+0051EDOP V0202101N002110021019N0040001N1+00201+00101999999ADDGA1071+002101999GF107991999999999999999999MA1101191999999MW1101REMMET054METAR EDOP 141220Z 21004KT 4000 BR BKN007 02/01 Q1012;
0129101624999992009011412504+53417+011783FM-15+0051EDOP V0209999V001510015019N0040001N1+00201+00101999999ADDGA1071+001501999GF107991999999999999999999MA1101191999999MW1101REMMET054METAR EDOP 141250Z VRB03KT 4000 BR BKN005 02/01 Q1012;
0129101624999992009011413204+53417+011783FM-15+0051EDOP V0202201N002110015019N0040001N1+00201+00201999999ADDGA1071+001501999GF107991999999999999999999MA1101191999999MW1101REMMET054METAR EDOP 141320Z 22004KT 4000 BR BKN005 02/02 Q1012;
0129101624999992009011413504+53417+011783FM-15+0051EDOP V0202201N001510018019N0030001N1+00201+00201999999ADDGA1071+001801999GF107991999999999999999999MA1101191999999MW1101REMMET054METAR EDOP 141350Z 22003KT 3000 BR BKN006 02/02 Q1012;
0139101624999992009011414204+53417+011783FM-15+0051EDOP V0202201N001510015019N0030001N1+00201+00201999999ADDGA1071+001501999GF107991999999999999999999MA1101191999999MW1101MW2511REMMET058METAR EDOP 141420Z 22003KT 3000 -DZ BR BKN005 02/02 Q1012;
0168101624999992009011416204+53417+011783FM-15+0051EDOP V0202401N001510006019N0012001N1+00101+00101999999ADDED199U14009GA1071+000601999GF107991999999999999999999MA1101291999999MW1101MW2511MW3611REMMET070METAR EDOP 141620Z 24003KT 1200 R24/1400N -RADZ BR BKN002 01/01 Q1013;
0167101624999992009011416504+53417+011783FM-15+0051EDOP V0202401N002110006019N0011001N1+00101+00101999999ADDED199U13009GA1071+000601999GF107991999999999999999999MA1101391999999MW1101MW2531MW3631REMMET069METAR EDOP 141650Z 24004KT 1100 R24/1300N RADZ BR BKN002 01/01 Q1014;
0149101624999992009011505504+53417+011783FM-15+0051EDOP V0202501N00151000151CN0005001N1+00201+00201999999ADDED199U04509GA1091+000151999GF109991999999000251999999MA1101901999999MW1451REMMET063METAR EDOP 150550Z 25003KT 0500 R24/0450D FG VV/// 02/02 Q1019;
0149101624999992009011506504+53417+011783FM-15+0051EDOP V0202501N00101000151CN0004001N1+00201+00201999999ADDED199U04509GA1091+000151999GF109991999999000251999999MA1101901999999MW1451REMMET063METAR EDOP 150650Z 25002KT 0400 R24/0450N FG VV/// 02/02 Q1019;
0149101624999992009011507204+53417+011783FM-15+0051EDOP V0202601N00101000151CN0004001N1+00201+00201999999ADDED199U05009GA1091+000151999GF109991999999000251999999MA1101901999999MW1451REMMET063METAR EDOP 150720Z 26002KT 0400 R24/0500N FG VV/// 02/02 Q1019;
0149101624999992009011507504+53417+011783FM-15+0051EDOP V0209999V00151000151CN0004001N1+00201+00201999999ADDED199U04009GA1091+000151999GF109991999999000251999999MA1102001999999MW1451REMMET063METAR EDOP 150750Z VRB03KT 0400 R24/0400N FG VV/// 02/02 Q1020;
0157101624999992009011508204+53417+011783FM-15+0051EDOP V0202801N00261000151CN0005001N1+00201+00201999999ADDED199U06009GA1091+000151999GF109991999999000251999999MA1102001999999MW1451REMMET071METAR EDOP 150820Z 28005KT 250V310 0500 R24/0600N FG VV/// 02/02 Q1020;
0150101624999992009011508504+53417+011783FM-15+0051EDOP V0209999V00151000151CN0006001N1+00201+00201999999ADDED199U15009GA1091+000151999GF109991999999000251999999MA1102001999999MW1451REMMET064METAR EDOP 150850Z VRB03KT 0600 R24/P1500N FG VV/// 02/02 Q1020;
0149101624999992009011509204+53417+011783FM-15+0051EDOP V0209999V00151000151CN0005001N1+00201+00201999999ADDED199U06009GA1091+000151999GF109991999999000251999999MA1102001999999MW1451REMMET063METAR EDOP 150920Z VRB03KT 0500 R24/0600N FG VV/// 02/02 Q1020;
0149101624999992009011509504+53417+011783FM-15+0051EDOP V0202601N00211000151CN0004001N1+00301+00201999999ADDED199U06009GA1091+000151999GF109991999999000251999999MA1102101999999MW1451REMMET063METAR EDOP 150950Z 26004KT 0400 R24/0600N FG VV/// 03/02 Q1021;
0157101624999992009011510204+53417+011783FM-15+0051EDOP V0202601N00261000151CN0004001N1+00301+00301999999ADDED199U06009GA1091+000151999GF109991999999000251999999MA1102101999999MW1451REMMET071METAR EDOP 151020Z 26005KT 230V290 0400 R24/0600U FG VV/// 03/03 Q1021;
0152101624999992009011510504+53417+011783FM-15+0051EDOP V0202801N002610006019N0008001N1+00301+00301999999ADDGA1071+000601999GF107991999999999999999999MA1102101999999MW1441REMMET077METAR EDOP 151050Z 28005KT 240V320 0800 R24/0800V1100N FG BKN002 03/03 Q1021;
0150101624999992009011511204+53417+011783FM-15+0051EDOP V0202801N002610006019N0008001N1+00301+00301999999ADDED199U08009GA1071+000601999GF107991999999999999999999MA1102101999999MW1441REMMET064METAR EDOP 151120Z 28005KT 0800 R24/0800N FG BKN002 03/03 Q1021;
0145101624999992009011511504+53417+011783FM-15+0051EDOP V0202801N002110006019N0011001N1+00301+00301999999ADDGA1071+000601999GF107991999999999999999999MA1102101999999MW1101REMMET070METAR EDOP 151150Z 28004KT 1100 R24/0800VP1500U BR BKN002 03/03 Q1021;
0129101624999992009011512204+53417+011783FM-15+0051EDOP V0209999V001510009019N0018001N1+00301+00301999999ADDGA1071+000901999GF107991999999999999999999MA1102101999999MW1101REMMET054METAR EDOP 151220Z VRB03KT 1800 BR BKN003 03/03 Q1021;
0129101624999992009011512504+53417+011783FM-15+0051EDOP V0209999V001510009019N0026001N1+00301+00301999999ADDGA1071+000901999GF107991999999999999999999MA1102101999999MW1101REMMET054METAR EDOP 151250Z VRB03KT 2600 BR BKN003 03/03 Q1021;
0129101624999992009011513204+53417+011783FM-15+0051EDOP V0203001N002110009019N0025001N1+00301+00301999999ADDGA1071+000901999GF107991999999999999999999MA1102101999999MW1101REMMET054METAR EDOP 151320Z 30004KT 2500 BR BKN003 03/03 Q1021;
0129101624999992009011513504+53417+011783FM-15+0051EDOP V0209999V001010090019N0022001N1+00301+00301999999ADDGA1071+009001999GF107991999999999999999999MA1102201999999MW1101REMMET054METAR EDOP 151350Z VRB02KT 2200 BR BKN030 03/03 Q1022;
0129101624999992009011514204+53417+011783FM-15+0051EDOP V0209999V001510009019N0020001N1+00301+00301999999ADDGA1071+000901999GF107991999999999999999999MA1102201999999MW1101REMMET054METAR EDOP 151420Z VRB03KT 2000 BR BKN003 03/03 Q1022;
0129101624999992009011514504+53417+011783FM-15+0051EDOP V0209999V000510009019N0013001N1+00301+00201999999ADDGA1071+000901999GF107991999999999999999999MA1102201999999MW1101REMMET054METAR EDOP 151450Z VRB01KT 1300 BR BKN003 03/02 Q1022;
0151101624999992009011515204+53417+011783FM-15+0051EDOP V0209999C000010006019N0012001N1+00201+00201999999ADDED199U15009GA1081+000601999GF108991999999999999999999MA1102201999999MW1101REMMET065METAR EDOP 151520Z 00000KT 1200 R24/P1500D BR OVC002 02/02 Q1022;
0150101624999992009011515504+53417+011783FM-15+0051EDOP V0209999C000010006019N0008001N1+00201+00201999999ADDED199U10009GA1081+000601999GF108991999999999999999999MA1102301999999MW1441REMMET064METAR EDOP 151550Z 00000KT 0800 R24/1000U FG OVC002 02/02 Q1023;
0150101624999992009011516204+53417+011783FM-15+0051EDOP V0209999C000010003019N0008001N1+00201+00201999999ADDED199U10009GA1081+000301999GF108991999999999999999999MA1102301999999MW1441REMMET064METAR EDOP 151620Z 00000KT 0800 R24/1000N FG OVC001 02/02 Q1023;
0151101624999992009011516504+53417+011783FM-15+0051EDOP V0209999V001010003019N0009001N1+00201+00201999999ADDED199U15009GA1081+000301999GF108991999999999999999999MA1102301999999MW1441REMMET065METAR EDOP 151650Z VRB02KT 0900 R24/P1500D FG OVC001 02/02 Q1023;
0130101624999992009011605504+53417+011783FM-15+0051EDOP V0201101N003110012019N0112651N1+00001-00101999999ADDGA1071+001201999GF107991999999999999999999MA1102711999999REMMET061METAR EDOP 160550Z 11006KT 080V150 9999 BKN004 M00/M01 Q1027;
0122101624999992009011606204+53417+011783FM-15+0051EDOP V0201201N003610012019N0112651N1-00101-00101999999ADDGA1071+001201999GF107991999999999999999999MA1102711999999REMMET053METAR EDOP 160620Z 12007KT 9999 BKN004 M01/M01 Q1027;
0122101624999992009011606504+53417+011783FM-15+0051EDOP V0201301N004610012019N0112651N1-00101-00101999999ADDGA1071+001201999GF107991999999999999999999MA1102711999999REMMET053METAR EDOP 160650Z 13009KT 9999 BKN004 M01/M01 Q1027;
0139101624999992009011607204+53417+011783FM-15+0051EDOP V0201301N004110009019N0045001N1-00101-00101999999ADDGA1071+000901999GF107991999999999999999999MA1102711999999MW1101REMMET064METAR EDOP 160720Z 13008KT 090V150 4500 BR BKN003 M01/M01 Q1027;
0130101624999992009011608204+53417+011783FM-15+0051EDOP V0201401N002610012019N0060001N1-00101-00101999999ADDGA1071+001201999GF107991999999999999999999MA1102711999999REMMET061METAR EDOP 160820Z 14005KT 100V170 6000 BKN004 M01/M01 Q1027;
0122101624999992009011608504+53417+011783FM-15+0051EDOP V0201301N003110012019N0060001N1-00101-00101999999ADDGA1071+001201999GF107991999999999999999999MA1102711999999REMMET053METAR EDOP 160850Z 13006KT 6000 BKN004 M01/M01 Q1027;
0122101624999992009011609204+53417+011783FM-15+0051EDOP V0201301N005110012019N0060001N1-00101-00101999999ADDGA1071+001201999GF107991999999999999999999MA1102711999999REMMET053METAR EDOP 160920Z 13010KT 6000 BKN004 M01/M01 Q1027;
0122101624999992009011609504+53417+011783FM-15+0051EDOP V0201501N005110015019N0070001N1-00101-00101999999ADDGA1071+001501999GF107991999999999999999999MA1102711999999REMMET053METAR EDOP 160950Z 15010KT 7000 BKN005 M01/M01 Q1027;
0122101624999992009011610204+53417+011783FM-15+0051EDOP V0201501N004110018019N0080001N1+00001-00101999999ADDGA1071+001801999GF107991999999999999999999MA1102711999999REMMET053METAR EDOP 161020Z 15008KT 8000 BKN006 M00/M01 Q1027;
0130101624999992009011610504+53417+011783FM-15+0051EDOP V0201401N004610018019N0080001N1+00001-00101999999ADDGA1071+001801999GF107991999999999999999999MA1102711999999REMMET061METAR EDOP 161050Z 14009KT 110V180 8000 BKN006 M00/M01 Q1027;
0122101624999992009011611204+53417+011783FM-15+0051EDOP V0201301N003610018019N0080001N1+00001+00001999999ADDGA1071+001801999GF107991999999999999999999MA1102711999999REMMET053METAR EDOP 161120Z 13007KT 8000 BKN006 M00/M00 Q1027;
0122101624999992009011611504+53417+011783FM-15+0051EDOP V0201301N004610018019N0080001N1+00001+00001999999ADDGA1071+001801999GF107991999999999999999999MA1102711999999REMMET053METAR EDOP 161150Z 13009KT 8000 BKN006 M00/M00 Q1027;
0122101624999992009011612204+53417+011783FM-15+0051EDOP V0201301N004110015019N0080001N1+00001-00101999999ADDGA1071+001501999GF107991999999999999999999MA1102711999999REMMET053METAR EDOP 161220Z 13008KT 8000 BKN005 M00/M01 Q1027;
0122101624999992009011612504+53417+011783FM-15+0051EDOP V0201301N004110018019N0090001N1+00001-00101999999ADDGA1071+001801999GF107991999999999999999999MA1102711999999REMMET053METAR EDOP 161250Z 13008KT 9000 BKN006 M00/M01 Q1027;
0122101624999992009011613204+53417+011783FM-15+0051EDOP V0201201N004110024019N0112651N1+00001-00101999999ADDGA1071+002401999GF107991999999999999999999MA1102611999999REMMET053METAR EDOP 161320Z 12008KT 9999 BKN008 M00/M01 Q1026;
0130101624999992009011613504+53417+011783FM-15+0051EDOP V0201301N004110027019N0112651N1+00001-00101999999ADDGA1071+002701999GF107991999999999999999999MA1102611999999REMMET061METAR EDOP 161350Z 13008KT 090V150 9999 BKN009 M00/M01 Q1026;
0130101624999992009011614204+53417+011783FM-15+0051EDOP V0201301N003610027019N0112651N1+00001-00101999999ADDGA1071+002701999GF107991999999999999999999MA1102611999999REMMET061METAR EDOP 161420Z 13007KT 090V160 9999 BKN009 M00/M01 Q1026;
0130101624999992009011614504+53417+011783FM-15+0051EDOP V0201301N004610030019N0112651N1+00001-00201999999ADDGA1071+003001999GF107991999999999999999999MA1102611999999REMMET061METAR EDOP 161450Z 13009KT 100V160 9999 BKN010 M00/M02 Q1026;
0122101624999992009011615204+53417+011783FM-15+0051EDOP V0201201N004110024019N0112651N1+00001-00201999999ADDGA1071+002401999GF107991999999999999999999MA1102611999999REMMET053METAR EDOP 161520Z 12008KT 9999 BKN008 M00/M02 Q1026;
0122101624999992009011615504+53417+011783FM-15+0051EDOP V0201301N005110030019N0090001N1+00001-00201999999ADDGA1071+003001999GF107991999999999999999999MA1102611999999REMMET053METAR EDOP 161550Z 13010KT 9000 BKN010 M00/M02 Q1026;
0130101624999992009011616204+53417+011783FM-15+0051EDOP V0201301N005110030019N0090001N1+00001-00201999999ADDGA1071+003001999GF107991999999999999999999MA1102511999999REMMET061METAR EDOP 161620Z 13010KT 090V150 9000 BKN010 M00/M02 Q1025;
0122101624999992009011616504+53417+011783FM-15+0051EDOP V0201301N005710033019N0090001N1+00001-00201999999ADDGA1071+003301999GF107991999999999999999999MA1102511999999REMMET053METAR EDOP 161650Z 13011KT 9000 BKN011 M00/M02 Q1025;
0130101624999992009011706204+53417+011783FM-15+0051EDOP V0201201N002112200019N0080001N1-00201-00301999999ADDGA1041+003601999GF104991999999999999999999MA1102001999999REMMET061METAR EDOP 170620Z 12004KT 090V150 8000 SCT012 M02/M03 Q1020;
0122101624999992009011706504+53417+011783FM-15+0051EDOP V0201301N003112200019N0080001N1-00201-00301999999ADDGA1041+002701999GF104991999999999999999999MA1102001999999REMMET053METAR EDOP 170650Z 13006KT 8000 SCT009 M02/M03 Q1020;
0153101624999992009011707204+53417+011783FM-15+0051EDOP V0201301N002610180019N0080001N1-00201-00301999999ADDGA1021+003001999GA2071+018001999GF107991999999999999999999MA1102001999999REMMET068METAR EDOP 170720Z 13005KT 100V160 8000 FEW010 BKN068 M02/M03 Q1020;
0122101624999992009011707504+53417+011783FM-15+0051EDOP V0201201N002612200019N0080001N1-00201-00301999999ADDGA1021+002401999GF102991999999999999999999MA1102001999999REMMET053METAR EDOP 170750Z 12005KT 8000 FEW008 M02/M03 Q1020;
0122101624999992009011708204+53417+011783FM-15+0051EDOP V0201201N002612200019N0080001N1-00201-00401999999ADDGA1041+002401999GF104991999999999999999999MA1102001999999REMMET053METAR EDOP 170820Z 12005KT 8000 SCT008 M02/M04 Q1020;
0122101624999992009011708504+53417+011783FM-15+0051EDOP V0201101N002112200019N0080001N1-00201-00301999999ADDGA1041+002401999GF104991999999999999999999MA1101901999999REMMET053METAR EDOP 170850Z 11004KT 8000 SCT008 M02/M03 Q1019;
0122101624999992009011709204+53417+011783FM-15+0051EDOP V0201201N002612200019N0070001N1-00101-00301999999ADDGA1041+002401999GF104991999999999999999999MA1101901999999REMMET053METAR EDOP 170920Z 12005KT 7000 SCT008 M01/M03 Q1019;
0153101624999992009011709504+53417+011783FM-15+0051EDOP V0201501N002112200019N0080001N1-00101-00301999999ADDGA1021+002401999GA2041+015001999GF104991999999999999999999MA1101901999999REMMET068METAR EDOP 170950Z 15004KT 100V180 8000 FEW008 SCT058 M01/M03 Q1019;
0145101624999992009011710204+53417+011783FM-15+0051EDOP V0201601N002610150019N0080001N1-00101-00301999999ADDGA1021+003001999GA2071+015001999GF107991999999999999999999MA1101901999999REMMET060METAR EDOP 171020Z 16005KT 8000 FEW010 BKN052 M01/M03 Q1019;
0152101624999992009011710504+53417+011783FM-15+0051EDOP V0201501N002612200019N0080001N1+00101-00201999999ADDGA1021+003001999GA2041+015001999GF104991999999999999999999MA1101901999999REMMET067METAR EDOP 171050Z 15005KT 110V190 8000 FEW010 SCT052 01/M02 Q1019;
0129101624999992009011711504+53417+011783FM-15+0051EDOP V0201601N002610054019N0050001N1+00001-00301999999ADDGA1071+005401999GF107991999999999999999999MA1101801999999REMMET060METAR EDOP 171150Z 16005KT 120V200 5000 BKN018 00/M03 Q1018;
0129101624999992009011712204+53417+011783FM-15+0051EDOP V0201401N003110054019N0050001N1+00001-00301999999ADDGA1071+005401999GF107991999999999999999999MA1101691999999REMMET060METAR EDOP 171220Z 14006KT 090V160 5000 BKN018 00/M03 Q1017;
0121101624999992009011712504+53417+011783FM-15+0051EDOP V0201001N002110054019N0060001N1+00001-00301999999ADDGA1071+005401999GF107991999999999999999999MA1101691999999REMMET052METAR EDOP 171250Z 10004KT 6000 BKN018 00/M03 Q1017;
0121101624999992009011713204+53417+011783FM-15+0051EDOP V0201301N002110066019N0060001N1+00101-00201999999ADDGA1071+006601999GF107991999999999999999999MA1101691999999REMMET052METAR EDOP 171320Z 13004KT 6000 BKN022 01/M02 Q1017;
0121101624999992009011713504+53417+011783FM-15+0051EDOP V0201001N003610069019N0070001N1+00101-00201999999ADDGA1071+006901999GF107991999999999999999999MA1101591999999REMMET052METAR EDOP 171350Z 10007KT 7000 BKN023 01/M02 Q1016;
0129101624999992009011714204+53417+011783FM-15+0051EDOP V0201201N003610060019N0060001N1+00001-00201999999ADDGA1071+006001999GF107991999999999999999999MA1101591999999REMMET060METAR EDOP 171420Z 12007KT 090V160 6000 BKN020 00/M02 Q1016;
0121101624999992009011714504+53417+011783FM-15+0051EDOP V0201201N004110057019N0060001N1+00101-00201999999ADDGA1071+005701999GF107991999999999999999999MA1101591999999REMMET052METAR EDOP 171450Z 12008KT 6000 BKN019 01/M02 Q1016;
0121101624999992009011715204+53417+011783FM-15+0051EDOP V0201201N003610057019N0060001N1+00001-00201999999ADDGA1071+005701999GF107991999999999999999999MA1101491999999REMMET052METAR EDOP 171520Z 12007KT 6000 BKN019 00/M02 Q1015;
0122101624999992009011715504+53417+011783FM-15+0051EDOP V0201301N002612200019N0060001N1+00001-00301999999ADDGA1041+007501999GF104991999999999999999999MA1101491999999REMMET053METAR EDOP 171550Z 13005KT 6000 SCT025 M00/M03 Q1015;
0122101624999992009011716204+53417+011783FM-15+0051EDOP V0201201N003112200019N0070001N1+00001-00201999999ADDGA1041+006901999GF104991999999999999999999MA1101491999999REMMET053METAR EDOP 171620Z 12006KT 7000 SCT023 M00/M02 Q1015;
0122101624999992009011716504+53417+011783FM-15+0051EDOP V0201401N002612200019N0070001N1+00001-00301999999ADDGA1041+007201999GF104991999999999999999999MA1101491999999REMMET053METAR EDOP 171650Z 14005KT 7000 SCT024 M00/M03 Q1015;
0128101624999992009011806204+53417+011783FM-15+0051EDOP V0201401N004112200019N0060001N1+00201+00101999999ADDGF100991999999999999999999MA1100611999999REMMET056METAR EDOP 180620Z 14008KT 110V170 6000 NSC 02/01 Q1006;EQDQ01    003SCCGA1
0120101624999992009011807204+53417+011783FM-15+0051EDOP V0209999V003112200019N0060001N1+00101+00101999999ADDGF100991999999999999999999MA1100411999999REMMET048METAR EDOP 180720Z VRB06KT 6000 NSC 01/01 Q1004;EQDQ01    003SCCGA1
0128101624999992009011807504+53417+011783FM-15+0051EDOP V0202101N002112200019N0060001N1+00101+00001999999ADDGA1021+002401999GF102991999999999999999999MA1100511999999REMMET059METAR EDOP 180750Z 21004KT 170V260 6000 FEW008 01/00 Q1005;
0128101624999992009011808204+53417+011783FM-15+0051EDOP V0201601N004612200019N0050001N1+00101+00101999999ADDGA1041+002401999GF104991999999999999999999MA1100411999999REMMET059METAR EDOP 180820Z 16009KT 120V190 5000 SCT008 01/01 Q1004;
0120101624999992009011808504+53417+011783FM-15+0051EDOP V0201501N006212200019N0050001N1+00201+00101999999ADDGA1041+002401999GF104991999999999999999999MA1100311999999REMMET051METAR EDOP 180850Z 15012KT 5000 SCT008 02/01 Q1003;
0120101624999992009011809204+53417+011783FM-15+0051EDOP V0201601N007212200019N0050001N1+00301+00101999999ADDGA1021+002101999GF102991999999999999999999MA1100311999999REMMET051METAR EDOP 180920Z 16014KT 5000 FEW007 03/01 Q1003;
0120101624999992009011809504+53417+011783FM-15+0051EDOP V0201601N008712200019N0060001N1+00301+00101999999ADDGA1021+003001999GF102991999999999999999999MA1100201999999REMMET051METAR EDOP 180950Z 16017KT 6000 FEW010 03/01 Q1002;
0120101624999992009011810204+53417+011783FM-15+0051EDOP V0201701N008212200019N0060001N1+00301+00101999999ADDGF100991999999999999999999MA1100201999999REMMET048METAR EDOP 181020Z 17016KT 6000 NSC 03/01 Q1002;EQDQ01    003SCCGA1
0120101624999992009011810504+53417+011783FM-15+0051EDOP V0201601N008712200019N0080001N1+00301+00101999999ADDGF100991999999999999999999MA1100101999999REMMET048METAR EDOP 181050Z 16017KT 8000 NSC 03/01 Q1001;EQDQ01    003SCCGA1
0120101624999992009011811204+53417+011783FM-15+0051EDOP V0201601N008712200019N0080001N1+00401+00101999999ADDGA1021+014101999GF102991999999999999999999MA1100001999999REMMET051METAR EDOP 181120Z 16017KT 8000 FEW047 04/01 Q1000;
0130101624999992009011811504+53417+011783FM-15+0051EDOP V0201601N007210135019N0060001N1+00401+00101999999ADDGA1071+013501999GF107991999999999999999999MA1099901999999MW1511REMMET055METAR EDOP 181150Z 16014KT 6000 -DZ BKN045 04/01 Q0999;
0130101624999992009011812204+53417+011783FM-15+0051EDOP V0201601N005710144019N0070001N1+00401+00201999999ADDGA1071+014401999GF107991999999999999999999MA1099901999999MW1611REMMET055METAR EDOP 181220Z 16011KT 7000 -RA BKN048 04/02 Q0999;
0120101624999992009011812504+53417+011783FM-15+0051EDOP V0201401N006712200019N0080001N1+00401+00301999999ADDGF100991999999999999999999MA1099801999999REMMET048METAR EDOP 181250Z 14013KT 8000 NSC 04/03 Q0998;EQDQ01    003SCCGA1
0120101624999992009011813204+53417+011783FM-15+0051EDOP V0201501N006710144019N0070001N1+00401+00301999999ADDGA1071+014401999GF107991999999999999999999MA1099701999999REMMET051METAR EDOP 181320Z 15013KT 7000 BKN048 04/03 Q0997;
0129101624999992009011813504+53417+011783FM-15+0051EDOP V0201501N006210090019N0070001N1+00401+00301999999ADDGA1071+009001999GF107991999999999999999999MA1099701999999MW1631REMMET054METAR EDOP 181350Z 15012KT 7000 RA BKN030 04/03 Q0997;
0158101624999992009011814204+53417+011783FM-15+0051EDOP V0201601N005710090019N0080001N1+00401+00301999999ADDGA1021+003601999GA2071+009001999GF107991999999999999999999MA1099591999999MW1611REMMET067METAR EDOP 181420Z 16011KT 8000 -RA FEW012 BKN030 04/03 Q0996 RERA;
0143101624999992009011814504+53417+011783FM-15+0051EDOP V0201601N006710075019N0112651N1+00401+00301999999ADDGA1021+005401999GA2071+007501999GF107991999999999999999999MA1099591999999REMMET058METAR EDOP 181450Z 16013KT 9999 FEW018 BKN025 04/03 Q0996;
0143101624999992009011815204+53417+011783FM-15+0051EDOP V0201601N006210084019N0090001N1+00401+00301999999ADDGA1021+003601999GA2071+008401999GF107991999999999999999999MA1099591999999REMMET058METAR EDOP 181520Z 16012KT 9000 FEW012 BKN028 04/03 Q0996;
0120101624999992009011815504+53417+011783FM-15+0051EDOP V0201601N006710105019N0090001N1+00401+00301999999ADDGA1071+010501999GF107991999999999999999999MA1099491999999REMMET051METAR EDOP 181550Z 16013KT 9000 BKN035 04/03 Q0995;
0120101624999992009011816204+53417+011783FM-15+0051EDOP V0201701N007210096019N0080001N1+00401+00201999999ADDGA1071+009601999GF107991999999999999999999MA1099491999999REMMET051METAR EDOP 181620Z 17014KT 8000 BKN032 04/02 Q0995;
0143101624999992009011816504+53417+011783FM-15+0051EDOP V0201801N006210105019N0080001N1+00401+00201999999ADDGA1041+006001999GA2071+010501999GF107991999999999999999999MA1099491999999REMMET058METAR EDOP 181650Z 18012KT 8000 SCT020 BKN035 04/02 Q0995;
0121101624999992009011906204+53417+011783FM-15+0051EDOP V0202101N004112200019N0112651N1+00101-00101999999ADDGA1041+003601999GF104991999999999999999999MA1100101999999REMMET052METAR EDOP 190620Z 21008KT 9999 SCT012 01/M01 Q1001;
0073101624999992009011906504+53417+011783FM-15+0051EDOP V0201901N00461220001CN0099001N1+00101-00101999999ADDMA1100101999999REMMET046METAR EDOP 190650Z 19009KT CAVOK 01/M01 Q1001;
0073101624999992009011907204+53417+011783FM-15+0051EDOP V0201801N00461220001CN0099001N1+00101-00101999999ADDMA1100101999999REMMET046METAR EDOP 190720Z 18009KT CAVOK 01/M01 Q1001;
0073101624999992009011907504+53417+011783FM-15+0051EDOP V0201801N00571220001CN0099001N1+00101-00101999999ADDMA1100101999999REMMET046METAR EDOP 190750Z 18011KT CAVOK 01/M01 Q1001;
0073101624999992009011908204+53417+011783FM-15+0051EDOP V0201801N00571220001CN0099001N1+00101-00101999999ADDMA1100101999999REMMET046METAR EDOP 190820Z 18011KT CAVOK 01/M01 Q1001;
0073101624999992009011908504+53417+011783FM-15+0051EDOP V0201801N00621220001CN0099001N1+00201-00101999999ADDMA1100001999999REMMET046METAR EDOP 190850Z 18012KT CAVOK 02/M01 Q1000;
0073101624999992009011909204+53417+011783FM-15+0051EDOP V0201801N00621220001CN0099001N1+00201-00101999999ADDMA1100001999999REMMET046METAR EDOP 190920Z 18012KT CAVOK 02/M01 Q1000;
0073101624999992009011909504+53417+011783FM-15+0051EDOP V0201701N00571220001CN0099001N1+00301-00101999999ADDMA1099901999999REMMET046METAR EDOP 190950Z 17011KT CAVOK 03/M01 Q0999;
0073101624999992009011910204+53417+011783FM-15+0051EDOP V0201701N00571220001CN0099001N1+00201-00201999999ADDMA1099901999999REMMET046METAR EDOP 191020Z 17011KT CAVOK 02/M02 Q0999;
0073101624999992009011910504+53417+011783FM-15+0051EDOP V0201601N00621220001CN0099001N1+00301-00101999999ADDMA1099801999999REMMET046METAR EDOP 191050Z 16012KT CAVOK 03/M01 Q0998;
0073101624999992009011911204+53417+011783FM-15+0051EDOP V0201601N00671220001CN0099001N1+00401-00101999999ADDMA1099701999999REMMET046METAR EDOP 191120Z 16013KT CAVOK 04/M01 Q0997;
0081101624999992009011911504+53417+011783FM-15+0051EDOP V0201501N00771220001CN0099001N1+00301-00201999999ADDMA1099701999999REMMET054METAR EDOP 191150Z 15015KT 120V180 CAVOK 03/M02 Q0997;
0073101624999992009011912204+53417+011783FM-15+0051EDOP V0201501N00621220001CN0099001N1+00301-00201999999ADDMA1099591999999REMMET046METAR EDOP 191220Z 15012KT CAVOK 03/M02 Q0996;
0073101624999992009011912504+53417+011783FM-15+0051EDOP V0201501N00621220001CN0099001N1+00301-00101999999ADDMA1099491999999REMMET046METAR EDOP 191250Z 15012KT CAVOK 03/M01 Q0995;
0073101624999992009011913204+53417+011783FM-15+0051EDOP V0201401N00671220001CN0099001N1+00301-00101999999ADDMA1099391999999REMMET046METAR EDOP 191320Z 14013KT CAVOK 03/M01 Q0994;
0073101624999992009011913504+53417+011783FM-15+0051EDOP V0201401N00621220001CN0099001N1+00301-00101999999ADDMA1099391999999REMMET046METAR EDOP 191350Z 14012KT CAVOK 03/M01 Q0994;
0073101624999992009011914204+53417+011783FM-15+0051EDOP V0201301N00671220001CN0099001N1+00301-00101999999ADDMA1099291999999REMMET046METAR EDOP 191420Z 13013KT CAVOK 03/M01 Q0993;
0073101624999992009011914504+53417+011783FM-15+0051EDOP V0201401N00771220001CN0099001N1+00301-00101999999ADDMA1099191999999REMMET046METAR EDOP 191450Z 14015KT CAVOK 03/M01 Q0992;
0073101624999992009011915204+53417+011783FM-15+0051EDOP V0201401N00771220001CN0099001N1+00301-00101999999ADDMA1099191999999REMMET046METAR EDOP 191520Z 14015KT CAVOK 03/M01 Q0992;
0121101624999992009011915504+53417+011783FM-15+0051EDOP V0201401N008212200019N0112651N1+00301-00101999999ADDGA1041+007501999GF104991999999999999999999MA1099091999999REMMET052METAR EDOP 191550Z 14016KT 9999 SCT025 03/M01 Q0991;
0121101624999992009011916204+53417+011783FM-15+0051EDOP V0201401N008712200019N0112651N1+00301-00101999999ADDGA1041+006901999GF104991999999999999999999MA1099091999999REMMET052METAR EDOP 191620Z 14017KT 9999 SCT023 03/M01 Q0991;
0131101624999992009011916504+53417+011783FM-15+0051EDOP V0201501N009310051019N0080001N1+00201+00001999999ADDGA1071+005101999GF107991999999999999999999MA1098981999999MW1611REMMET056METAR EDOP 191650Z 15018KT 8000 -RA BKN017 02/M00 Q0990;
0072101624999992009012006204+53417+011783FM-15+0051EDOP V0201901N00621220001CN0099001N1+00401+00001999999ADDMA1099191999999REMMET045METAR EDOP 200620Z 19012KT CAVOK 04/00 Q0992;
0121101624999992009012006504+53417+011783FM-15+0051EDOP V0202001N004612200019N0112651N1+00401+00001999999ADDGA1021+014101999GF102991999999999999999999MA1099191999999REMMET052METAR EDOP 200650Z 20009KT 9999 FEW047 04/M00 Q0992;
0121101624999992009012007204+53417+011783FM-15+0051EDOP V0202001N004610132019N0112651N1+00401+00001999999ADDGA1071+013201999GF107991999999999999999999MA1099291999999REMMET052METAR EDOP 200720Z 20009KT 9999 BKN044 04/M00 Q0993;
0121101624999992009012007504+53417+011783FM-15+0051EDOP V0202001N006210120019N0112651N1+00401+00001999999ADDGA1071+012001999GF107991999999999999999999MA1099391999999REMMET052METAR EDOP 200750Z 20012KT 9999 BKN040 04/M00 Q0994;
0120101624999992009012008204+53417+011783FM-15+0051EDOP V0202101N004612200019N0112651N1+00501+00001999999ADDGA1041+012001999GF104991999999999999999999MA1099391999999REMMET051METAR EDOP 200820Z 21009KT 9999 SCT040 05/00 Q0994;
0121101624999992009012008504+53417+011783FM-15+0051EDOP V0202101N005112200019N0112651N1+00501+00001999999ADDGA1041+012001999GF104991999999999999999999MA1099491999999REMMET052METAR EDOP 200850Z 21010KT 9999 SCT040 05/M00 Q0995;
0121101624999992009012009204+53417+011783FM-15+0051EDOP V0202201N005112200019N0112651N1+00401+00001999999ADDGA1041+009601999GF104991999999999999999999MA1099491999999REMMET052METAR EDOP 200920Z 22010KT 9999 SCT032 04/M00 Q0995;
0121101624999992009012009504+53417+011783FM-15+0051EDOP V0202101N004112200019N0112651N1+00501+00001999999ADDGA1021+013801999GF102991999999999999999999MA1099591999999REMMET052METAR EDOP 200950Z 21008KT 9999 FEW046 05/M00 Q0996;
0072101624999992009012010204+53417+011783FM-15+0051EDOP V0202101N00361220001CN0099001N1+00601+00001999999ADDMA1099591999999REMMET045METAR EDOP 201020Z 21007KT CAVOK 06/00 Q0996;
0072101624999992009012010504+53417+011783FM-15+0051EDOP V0202301N00511220001CN0099001N1+00601+00001999999ADDMA1099591999999REMMET045METAR EDOP 201050Z 23010KT CAVOK 06/00 Q0996;
0072101624999992009012011204+53417+011783FM-15+0051EDOP V0202201N00511220001CN0099001N1+00501+00001999999ADDMA1099701999999REMMET045METAR EDOP 201120Z 22010KT CAVOK 05/00 Q0997;
0073101624999992009012011504+53417+011783FM-15+0051EDOP V0202201N00361220001CN0099001N1+00501+00001999999ADDMA1099591999999REMMET046METAR EDOP 201150Z 22007KT CAVOK 05/M00 Q0996;
0072101624999992009012012204+53417+011783FM-15+0051EDOP V0202301N00411220001CN0099001N1+00601+00001999999ADDMA1099701999999REMMET045METAR EDOP 201220Z 23008KT CAVOK 06/00 Q0997;
0073101624999992009012012504+53417+011783FM-15+0051EDOP V0202401N00411220001CN0099001N1+00601+00001999999ADDMA1099701999999REMMET046METAR EDOP 201250Z 24008KT CAVOK 06/M00 Q0997;
0072101624999992009012013204+53417+011783FM-15+0051EDOP V0202401N00511220001CN0099001N1+00601+00001999999ADDMA1099701999999REMMET045METAR EDOP 201320Z 24010KT CAVOK 06/00 Q0997;
0073101624999992009012013504+53417+011783FM-15+0051EDOP V0202301N00461220001CN0099001N1+00601-00101999999ADDMA1099801999999REMMET046METAR EDOP 201350Z 23009KT CAVOK 06/M01 Q0998;
0073101624999992009012014204+53417+011783FM-15+0051EDOP V0202301N00411220001CN0099001N1+00501+00001999999ADDMA1099801999999REMMET046METAR EDOP 201420Z 23008KT CAVOK 05/M00 Q0998;
0073101624999992009012014504+53417+011783FM-15+0051EDOP V0202301N00361220001CN0099001N1+00501+00001999999ADDMA1099801999999REMMET046METAR EDOP 201450Z 23007KT CAVOK 05/M00 Q0998;
0073101624999992009012015204+53417+011783FM-15+0051EDOP V0202301N00261220001CN0099001N1+00301-00101999999ADDMA1099901999999REMMET046METAR EDOP 201520Z 23005KT CAVOK 03/M01 Q0999;
0073101624999992009012015504+53417+011783FM-15+0051EDOP V0202101N00261220001CN0099001N1+00201-00101999999ADDMA1099901999999REMMET046METAR EDOP 201550Z 21005KT CAVOK 02/M01 Q0999;
0074101624999992009012016204+53417+011783FM-15+0051EDOP V0202201N00211220001CN0099001N1-00101-00401999999ADDMA1099901999999REMMET047METAR EDOP 201620Z 22004KT CAVOK M01/M04 Q0999;
0074101624999992009012016504+53417+011783FM-15+0051EDOP V0209999V00151220001CN0099001N1-00101-00201999999ADDMA1100001999999REMMET047METAR EDOP 201650Z VRB03KT CAVOK M01/M02 Q1000;
0131101624999992009012106204+53417+011783FM-15+0051EDOP V0200701N001512200019N0035001N1-00501-00501999999ADDGF100991999999999999999999MA1100611999999MW1101REMMET053METAR EDOP 210620Z 07003KT 3500 BR NSC M05/M05 Q1006;EQDQ01    003SCCGA1
0131101624999992009012106504+53417+011783FM-15+0051EDOP V0200701N002112200019N0040001N1-00501-00501999999ADDGF100991999999999999999999MA1100611999999MW1101REMMET053METAR EDOP 210650Z 07004KT 4000 BR NSC M05/M05 Q1006;EQDQ01    003SCCGA1
0131101624999992009012107204+53417+011783FM-15+0051EDOP V0200801N002612200019N0040001N1-00401-00401999999ADDGF100991999999999999999999MA1100611999999MW1101REMMET053METAR EDOP 210720Z 08005KT 4000 BR NSC M04/M04 Q1006;EQDQ01    003SCCGA1
0131101624999992009012108204+53417+011783FM-15+0051EDOP V0200801N002612200019N0040001N1-00201-00201999999ADDGF100991999999999999999999MA1100711999999MW1101REMMET053METAR EDOP 210820Z 08005KT 4000 BR NSC M02/M02 Q1007;EQDQ01    003SCCGA1
0131101624999992009012108504+53417+011783FM-15+0051EDOP V0200601N001512200019N0040001N1-00201-00201999999ADDGA1021+008401999GF102991999999999999999999MA1100811999999MW1101REMMET056METAR EDOP 210850Z 06003KT 4000 BR FEW028 M02/M02 Q1008;
0131101624999992009012109204+53417+011783FM-15+0051EDOP V0209999V001512200019N0040001N1-00201-00201999999ADDGA1021+007501999GF102991999999999999999999MA1100811999999MW1101REMMET056METAR EDOP 210920Z VRB03KT 4000 BR FEW025 M02/M02 Q1008;
0131101624999992009012109504+53417+011783FM-15+0051EDOP V0200701N001512200019N0050001N1-00101-00101999999ADDGA1021+006601999GF102991999999999999999999MA1100811999999MW1101REMMET056METAR EDOP 210950Z 07003KT 5000 BR FEW022 M01/M01 Q1008;
0131101624999992009012110204+53417+011783FM-15+0051EDOP V0201001N002112200019N0050001N1-00101-00101999999ADDGF100991999999999999999999MA1100711999999MW1101REMMET053METAR EDOP 211020Z 10004KT 5000 BR NSC M01/M01 Q1007;EQDQ01    003SCCGA1
0130101624999992009012110504+53417+011783FM-15+0051EDOP V0200701N002112200019N0050001N1+00001+00001999999ADDGF100991999999999999999999MA1100711999999REMMET058METAR EDOP 211050Z 07004KT 040V100 5000 NSC M00/M00 Q1007;EQDQ01    003SCCGA1
0129101624999992009012111204+53417+011783FM-15+0051EDOP V0209999V001012200019N0050001N1+00001+00001999999ADDGF100991999999999999999999MA1100711999999MW1101REMMET051METAR EDOP 211120Z VRB02KT 5000 BR NSC 00/00 Q1007;EQDQ01    003SCCGA1
0129101624999992009012111504+53417+011783FM-15+0051EDOP V0209999C000012200019N0050001N1+00101+00101999999ADDGF100991999999999999999999MA1100711999999MW1101REMMET051METAR EDOP 211150Z 00000KT 5000 BR NSC 01/01 Q1007;EQDQ01    003SCCGA1
0129101624999992009012112204+53417+011783FM-15+0051EDOP V0209999C000012200019N0050001N1+00201+00201999999ADDGF100991999999999999999999MA1100711999999MW1101REMMET051METAR EDOP 211220Z 00000KT 5000 BR NSC 02/02 Q1007;EQDQ01    003SCCGA1
0129101624999992009012113204+53417+011783FM-15+0051EDOP V0209999C000012200019N0050001N1+00201+00001999999ADDGA1021+002401999GF102991999999999999999999MA1100711999999MW1101REMMET054METAR EDOP 211320Z 00000KT 5000 BR FEW008 02/00 Q1007;
0129101624999992009012113504+53417+011783FM-15+0051EDOP V0209999C000012200019N0050001N1+00201+00101999999ADDGF100991999999999999999999MA1100711999999MW1101REMMET051METAR EDOP 211350Z 00000KT 5000 BR NSC 02/01 Q1007;EQDQ01    003SCCGA1
0130101624999992009012114204+53417+011783FM-15+0051EDOP V0209999C000012200019N0050001N1+00201+00001999999ADDGF100991999999999999999999MA1100711999999MW1101REMMET052METAR EDOP 211420Z 00000KT 5000 BR NSC 02/M00 Q1007;EQDQ01    003SCCGA1
0130101624999992009012114504+53417+011783FM-15+0051EDOP V0209999C000012200019N0050001N1+00101+00001999999ADDGF100991999999999999999999MA1100711999999MW1101REMMET052METAR EDOP 211450Z 00000KT 5000 BR NSC 01/M00 Q1007;EQDQ01    003SCCGA1
0130101624999992009012115204+53417+011783FM-15+0051EDOP V0209999C000012200019N0050001N1+00001-00101999999ADDGF100991999999999999999999MA1100711999999MW1101REMMET052METAR EDOP 211520Z 00000KT 5000 BR NSC 00/M01 Q1007;EQDQ01    003SCCGA1
0131101624999992009012115504+53417+011783FM-15+0051EDOP V0209999C000012200019N0050001N1+00001+00001999999ADDGF100991999999999999999999MA1100811999999MW1101REMMET053METAR EDOP 211550Z 00000KT 5000 BR NSC M00/M00 Q1008;EQDQ01    003SCCGA1
0131101624999992009012116204+53417+011783FM-15+0051EDOP V0209999C000012200019N0040001N1-00101-00101999999ADDGF100991999999999999999999MA1100811999999MW1101REMMET053METAR EDOP 211620Z 00000KT 4000 BR NSC M01/M01 Q1008;EQDQ01    003SCCGA1
0131101624999992009012116504+53417+011783FM-15+0051EDOP V0209999C000012200019N0040001N1-00201-00201999999ADDGF100991999999999999999999MA1100811999999MW1101REMMET053METAR EDOP 211650Z 00000KT 4000 BR NSC M02/M02 Q1008;EQDQ01    003SCCGA1
0145101624999992009012206204+53417+011783FM-15+0051EDOP V0209999V001010144019N0080001N1-00201-00201999999ADDGA1021+001801999GA2071+014401999GF107991999999999999999999MA1100711999999REMMET060METAR EDOP 220620Z VRB02KT 8000 FEW006 BKN048 M02/M02 Q1007;
0122101624999992009012206504+53417+011783FM-15+0051EDOP V0209999V001512200019N0070001N1-00101-00201999999ADDGA1041+014401999GF104991999999999999999999MA1100611999999REMMET053METAR EDOP 220650Z VRB03KT 7000 SCT048 M01/M02 Q1006;
0130101624999992009012207204+53417+011783FM-15+0051EDOP V0201301N002112200019N0070001N1-00301-00301999999ADDGF100991999999999999999999MA1100711999999REMMET058METAR EDOP 220720Z 13004KT 080V160 7000 NSC M03/M03 Q1007;EQDQ01    003SCCGA1
0122101624999992009012207504+53417+011783FM-15+0051EDOP V0201301N002112200019N0060001N1-00301-00301999999ADDGF100991999999999999999999MA1100611999999REMMET050METAR EDOP 220750Z 13004KT 6000 NSC M03/M03 Q1006;EQDQ01    003SCCGA1
0122101624999992009012208204+53417+011783FM-15+0051EDOP V0201701N003112200019N0070001N1+00001-00101999999ADDGF100991999999999999999999MA1100611999999REMMET050METAR EDOP 220820Z 17006KT 7000 NSC M00/M01 Q1006;EQDQ01    003SCCGA1
0120101624999992009012208504+53417+011783FM-15+0051EDOP V0201601N003112200019N0080001N1+00001+00001999999ADDGF100991999999999999999999MA1100611999999REMMET048METAR EDOP 220850Z 16006KT 8000 NSC 00/00 Q1006;EQDQ01    003SCCGA1
0120101624999992009012209204+53417+011783FM-15+0051EDOP V0201501N003612200019N0080001N1+00101+00101999999ADDGF100991999999999999999999MA1100611999999REMMET048METAR EDOP 220920Z 15007KT 8000 NSC 01/01 Q1006;EQDQ01    003SCCGA1
0120101624999992009012209504+53417+011783FM-15+0051EDOP V0201601N003612200019N0090001N1+00201+00101999999ADDGF100991999999999999999999MA1100611999999REMMET048METAR EDOP 220950Z 16007KT 9000 NSC 02/01 Q1006;EQDQ01    003SCCGA1
0072101624999992009012210204+53417+011783FM-15+0051EDOP V0201501N00311220001CN0099001N1+00201+00001999999ADDMA1100511999999REMMET045METAR EDOP 221020Z 15006KT CAVOK 02/00 Q1005;
0072101624999992009012210504+53417+011783FM-15+0051EDOP V0201501N00411220001CN0099001N1+00301+00101999999ADDMA1100511999999REMMET045METAR EDOP 221050Z 15008KT CAVOK 03/01 Q1005;
0072101624999992009012211204+53417+011783FM-15+0051EDOP V0201501N00461220001CN0099001N1+00301+00001999999ADDMA1100411999999REMMET045METAR EDOP 221120Z 15009KT CAVOK 03/00 Q1004;
0072101624999992009012211504+53417+011783FM-15+0051EDOP V0201601N00411220001CN0099001N1+00301+00001999999ADDMA1100311999999REMMET045METAR EDOP 221150Z 16008KT CAVOK 03/00 Q1003;
0073101624999992009012212204+53417+011783FM-15+0051EDOP V0201601N00461220001CN0099001N1+00301+00001999999ADDMA1100311999999REMMET046METAR EDOP 221220Z 16009KT CAVOK 03/M00 Q1003;
0073101624999992009012212504+53417+011783FM-15+0051EDOP V0201601N00571220001CN0099001N1+00201-00101999999ADDMA1100201999999REMMET046METAR EDOP 221250Z 16011KT CAVOK 02/M01 Q1002;
0121101624999992009012213204+53417+011783FM-15+0051EDOP V0201501N004612200019N0112651N1+00201-00101999999ADDGA1021+003601999GF102991999999999999999999MA1100201999999REMMET052METAR EDOP 221320Z 15009KT 9999 FEW012 02/M01 Q1002;
0121101624999992009012213504+53417+011783FM-15+0051EDOP V0201501N005112200019N0112651N1+00201-00101999999ADDGA1041+003301999GF104991999999999999999999MA1100101999999REMMET052METAR EDOP 221350Z 15010KT 9999 SCT011 02/M01 Q1001;
0121101624999992009012214204+53417+011783FM-15+0051EDOP V0201501N005712200019N0090001N1+00101-00101999999ADDGA1041+003001999GF104991999999999999999999MA1100101999999REMMET052METAR EDOP 221420Z 15011KT 9000 SCT010 01/M01 Q1001;
0121101624999992009012214504+53417+011783FM-15+0051EDOP V0201501N005712200019N0080001N1+00101-00101999999ADDGA1021+002401999GF102991999999999999999999MA1100101999999REMMET052METAR EDOP 221450Z 15011KT 8000 FEW008 01/M01 Q1001;
0121101624999992009012215204+53417+011783FM-15+0051EDOP V0201501N005112200019N0070001N1+00101-00101999999ADDGF100991999999999999999999MA1100001999999REMMET049METAR EDOP 221520Z 15010KT 7000 SKC 01/M01 Q1000;EQDQ01    003SCCGA1
0121101624999992009012215504+53417+011783FM-15+0051EDOP V0201501N006212200019N0070001N1+00201-00101999999ADDGF100991999999999999999999MA1100001999999REMMET049METAR EDOP 221550Z 15012KT 7000 SKC 02/M01 Q1000;EQDQ01    003SCCGA1
0121101624999992009012216204+53417+011783FM-15+0051EDOP V0201501N006712200019N0070001N1+00201-00101999999ADDGF100991999999999999999999MA1099901999999REMMET049METAR EDOP 221620Z 15013KT 7000 SKC 02/M01 Q0999;EQDQ01    003SCCGA1
0121101624999992009012216504+53417+011783FM-15+0051EDOP V0201501N006712200019N0070001N1+00201-00101999999ADDGF100991999999999999999999MA1099901999999REMMET049METAR EDOP 221650Z 15013KT 7000 SKC 02/M01 Q0999;EQDQ01    003SCCGA1
0121101624999992009012217204+53417+011783FM-15+0051EDOP V0201601N007212200019N0060001N1+00201-00101999999ADDGF100991999999999999999999MA1099901999999REMMET049METAR EDOP 221720Z 16014KT 6000 SKC 02/M01 Q0999;EQDQ01    003SCCGA1
0074101624999992009012306204+53417+011783FM-15+0051EDOP V0201201N00511220001CN0099001N1-00101-00401999999ADDMA1098821999999REMMET047METAR EDOP 230620Z 12010KT CAVOK M01/M04 Q0988;
0074101624999992009012306504+53417+011783FM-15+0051EDOP V0201301N00511220001CN0099001N1-00101-00401999999ADDMA1098711999999REMMET047METAR EDOP 230650Z 13010KT CAVOK M01/M04 Q0987;
0122101624999992009012307204+53417+011783FM-15+0051EDOP V0201301N005112200019N0112651N1-00101-00401999999ADDGA1041+009901999GF104991999999999999999999MA1098611999999REMMET053METAR EDOP 230720Z 13010KT 9999 SCT033 M01/M04 Q0986;
0145101624999992009012307504+53417+011783FM-15+0051EDOP V0201301N005712200019N0112651N1-00101-00301999999ADDGA1021+003601999GA2041+009901999GF104991999999999999999999MA1098511999999REMMET060METAR EDOP 230750Z 13011KT 9999 FEW012 SCT033 M01/M03 Q0985;
