0142101624999992007010108204+53417+011783FM-15+0052EDOP V0202601N011310024019N0070001N1+00701+00501999999ADDGA1071+002401999GF107991999999999999999999MA1100311999999MW1811OC102061REMMET059METAR EDOP 010820Z 26022G40KT 7000 SHRA BKN008 07/05 Q1003;
0142101624999992007010108504+53417+011783FM-15+0052EDOP V0202401N011310054019N0080001N1+00701+00501999999ADDGA1071+005401999GF107991999999999999999999MA1100311999999MW1811OC101851REMMET059METAR EDOP 010850Z 24022G36KT 8000 SHRA BKN018 07/05 Q1003;
0142101624999992007010109204+53417+011783FM-15+0052EDOP V0202401N010310075019N0090001N1+00701+00501999999ADDGA1071+007501999GF107991999999999999999999MA1100311999999MW1811OC102061REMMET059METAR EDOP 010920Z 24020G40KT 9000 SHRA BKN025 07/05 Q1003;
0136101624999992007010109504+53417+011783FM-15+0052EDOP V0202301N011312200019N0112651N1+00801+00401999999ADDGA1021+005401999GF102991999999999999999999MA1100201999999OC101651REMMET059METAR EDOP 010950Z 23022G32KT 9999 FEW018 08/04 Q1002 RERA;
0131101624999992007010110204+53417+011783FM-15+0052EDOP V0202401N008712200019N0112651N1+00801+00401999999ADDGA1021+009001999GF102991999999999999999999MA1100201999999OC101391REMMET054METAR EDOP 011020Z 24017G27KT 9999 FEW030 08/04 Q1002;
0131101624999992007010110504+53417+011783FM-15+0052EDOP V0202401N009812200019N0112651N1+00801+00401999999ADDGA1041+008401999GF104991999999999999999999MA1100201999999OC101491REMMET054METAR EDOP 011050Z 24019G29KT 9999 SCT028 08/04 Q1002;
0131101624999992007010111204+53417+011783FM-15+0052EDOP V0202401N011312200019N0112651N1+00801+00301999999ADDGA1041+013501999GF104991999999999999999999MA1100201999999OC101651REMMET054METAR EDOP 011120Z 24022G32KT 9999 SCT045 08/03 Q1002;
0131101624999992007010111504+53417+011783FM-15+0052EDOP V0202501N010810120019N0112651N1+00801+00301999999ADDGA1071+012001999GF107991999999999999999999MA1100201999999OC101591REMMET054METAR EDOP 011150Z 25021G31KT 9999 BKN040 08/03 Q1002;
0131101624999992007010112204+53417+011783FM-15+0052EDOP V0202401N011310099019N0112651N1+00801+00301999999ADDGA1071+009901999GF107991999999999999999999MA1100201999999OC101651REMMET054METAR EDOP 011220Z 24022G32KT 9999 BKN033 08/03 Q1002;
0131101624999992007010112504+53417+011783FM-15+0052EDOP V0202401N010810090019N0112651N1+00801+00301999999ADDGA1071+009001999GF107991999999999999999999MA1100201999999OC101591REMMET054METAR EDOP 011250Z 24021G31KT 9999 BKN030 08/03 Q1002;
0131101624999992007010113204+53417+011783FM-15+0052EDOP V0202601N010812200019N0112651N1+00801+00301999999ADDGA1041+010201999GF104991999999999999999999MA1100201999999OC101591REMMET054METAR EDOP 011320Z 26021G31KT 9999 SCT034 08/03 Q1002;
0131101624999992007010113504+53417+011783FM-15+0052EDOP V0202501N010312200019N0112651N1+00801+00301999999ADDGA1041+009601999GF104991999999999999999999MA1100201999999OC101651REMMET054METAR EDOP 011350Z 25020G32KT 9999 SCT032 08/03 Q1002;
0131101624999992007010114204+53417+011783FM-15+0052EDOP V0202501N011312200019N0112651N1+00801+00201999999ADDGA1041+009601999GF104991999999999999999999MA1100201999999OC101801REMMET054METAR EDOP 011420Z 25022G35KT 9999 SCT032 08/02 Q1002;
0131101624999992007010115204+53417+011783FM-15+0052EDOP V0202501N010812200019N0112651N1+00701+00201999999ADDGA1041+009001999GF104991999999999999999999MA1100311999999OC101591REMMET054METAR EDOP 011520Z 25021G31KT 9999 SCT030 07/02 Q1003;
0131101624999992007010115504+53417+011783FM-15+0052EDOP V0202501N011812200019N0112651N1+00701+00201999999ADDGA1041+010501999GF104991999999999999999999MA1100311999999OC101701REMMET054METAR EDOP 011550Z 25023G33KT 9999 SCT035 07/02 Q1003;
0131101624999992007010116204+53417+011783FM-15+0052EDOP V0202401N009312200019N0112651N1+00601+00201999999ADDGA1041+009001999GF104991999999999999999999MA1100411999999OC101441REMMET054METAR EDOP 011620Z 24018G28KT 9999 SCT030 06/02 Q1004;
0131101624999992007010116504+53417+011783FM-15+0052EDOP V0202501N008712200019N0112651N1+00601+00301999999ADDGA1041+012001999GF104991999999999999999999MA1100411999999OC101391REMMET054METAR EDOP 011650Z 25017G27KT 9999 SCT040 06/03 Q1004;
0120101624999992007010206204+53417+011783FM-15+0052EDOP V0202301N005110054019N0112651N1+00501+00201999999ADDGA1071+005401999GF107991999999999999999999MA1100711999999REMMET051METAR EDOP 020620Z 23010KT 9999 BKN018 05/02 Q1007;
0130101624999992007010206504+53417+011783FM-15+0052EDOP V0202201N005110042019N0112651N1+00401+00201999999ADDGA1071+004201999GF107991999999999999999999MA1100711999999MW1611REMMET055METAR EDOP 020650Z 22010KT 9999 -RA BKN014 04/02 Q1007;
0129101624999992007010207204+53417+011783FM-15+0052EDOP V0202301N006710036019N0060001N1+00401+00301999999ADDGA1071+003601999GF107991999999999999999999MA1100711999999MW1631REMMET054METAR EDOP 020720Z 23013KT 6000 RA BKN012 04/03 Q1007;
0135101624999992007010207504+53417+011783FM-15+0052EDOP V0202601N003610036019N0080001N1+00201+00101999999ADDGA1071+003601999GF107991999999999999999999MA1100811999999MW1611REMMET060METAR EDOP 020750Z 26007KT 8000 -RA BKN012 02/01 Q1008 RERA;
0120101624999992007010208204+53417+011783FM-15+0052EDOP V0202501N003610030019N0112651N1+00301+00201999999ADDGA1071+003001999GF107991999999999999999999MA1100811999999REMMET051METAR EDOP 020820Z 25007KT 9999 BKN010 03/02 Q1008;
0120101624999992007010208504+53417+011783FM-15+0052EDOP V0202501N006210030019N0112651N1+00401+00301999999ADDGA1071+003001999GF107991999999999999999999MA1100811999999REMMET051METAR EDOP 020850Z 25012KT 9999 BKN010 04/03 Q1008;
0120101624999992007010209204+53417+011783FM-15+0052EDOP V0202601N006710030019N0112651N1+00401+00301999999ADDGA1071+003001999GF107991999999999999999999MA1100911999999REMMET051METAR EDOP 020920Z 26013KT 9999 BKN010 04/03 Q1009;
0120101624999992007010209504+53417+011783FM-15+0052EDOP V0202501N006710030019N0112651N1+00401+00301999999ADDGA1071+003001999GF107991999999999999999999MA1100911999999REMMET051METAR EDOP 020950Z 25013KT 9999 BKN010 04/03 Q1009;
0120101624999992007010210204+53417+011783FM-15+0052EDOP V0202501N008210030019N0112651N1+00501+00301999999ADDGA1071+003001999GF107991999999999999999999MA1100911999999REMMET051METAR EDOP 021020Z 25016KT 9999 BKN010 05/03 Q1009;
0120101624999992007010210504+53417+011783FM-15+0052EDOP V0202501N006710036019N0112651N1+00401+00201999999ADDGA1071+003601999GF107991999999999999999999MA1100911999999REMMET051METAR EDOP 021050Z 25013KT 9999 BKN012 04/02 Q1009;
0120101624999992007010211204+53417+011783FM-15+0052EDOP V0202501N007210036019N0112651N1+00501+00301999999ADDGA1071+003601999GF107991999999999999999999MA1100911999999REMMET051METAR EDOP 021120Z 25014KT 9999 BKN012 05/03 Q1009;
0120101624999992007010211504+53417+011783FM-15+0052EDOP V0202401N007210054019N0112651N1+00501+00301999999ADDGA1071+005401999GF107991999999999999999999MA1100911999999REMMET051METAR EDOP 021150Z 24014KT 9999 BKN018 05/03 Q1009;
0120101624999992007010212204+53417+011783FM-15+0052EDOP V0202501N008710042019N0112651N1+00501+00301999999ADDGA1071+004201999GF107991999999999999999999MA1100911999999REMMET051METAR EDOP 021220Z 25017KT 9999 BKN014 05/03 Q1009;
0120101624999992007010212504+53417+011783FM-15+0052EDOP V0202501N008710051019N0112651N1+00501+00301999999ADDGA1071+005101999GF107991999999999999999999MA1101021999999REMMET051METAR EDOP 021250Z 25017KT 9999 BKN017 05/03 Q1010;
0120101624999992007010213204+53417+011783FM-15+0052EDOP V0202501N007710048019N0112651N1+00501+00301999999ADDGA1071+004801999GF107991999999999999999999MA1101021999999REMMET051METAR EDOP 021320Z 25015KT 9999 BKN016 05/03 Q1010;
0120101624999992007010213504+53417+011783FM-15+0052EDOP V0202401N007210048019N0112651N1+00501+00301999999ADDGA1071+004801999GF107991999999999999999999MA1101021999999REMMET051METAR EDOP 021350Z 24014KT 9999 BKN016 05/03 Q1010;
0120101624999992007010214204+53417+011783FM-15+0052EDOP V0202501N007210054019N0112651N1+00601+00201999999ADDGA1071+005401999GF107991999999999999999999MA1101021999999REMMET051METAR EDOP 021420Z 25014KT 9999 BKN018 06/02 Q1010;
0120101624999992007010214504+53417+011783FM-15+0052EDOP V0202501N008210051019N0112651N1+00501+00201999999ADDGA1071+005101999GF107991999999999999999999MA1101081999999REMMET051METAR EDOP 021450Z 25016KT 9999 BKN017 05/02 Q1011;
0120101624999992007010215204+53417+011783FM-15+0052EDOP V0202501N008210066019N0112651N1+00501+00201999999ADDGA1071+006601999GF107991999999999999999999MA1101081999999REMMET051METAR EDOP 021520Z 25016KT 9999 BKN022 05/02 Q1011;
0120101624999992007010215504+53417+011783FM-15+0052EDOP V0202501N007710066019N0112651N1+00501+00301999999ADDGA1071+006601999GF107991999999999999999999MA1101081999999REMMET051METAR EDOP 021550Z 25015KT 9999 BKN022 05/03 Q1011;
0120101624999992007010216504+53417+011783FM-15+0052EDOP V0202601N006710060019N0112651N1+00501+00201999999ADDGA1071+006001999GF107991999999999999999999MA1101191999999REMMET051METAR EDOP 021650Z 26013KT 9999 BKN020 05/02 Q1012;
0120101624999992007010303204+53417+011783FM-15+0052EDOP V0202601N006212200019N0112651N1+00401+00301999999ADDGA1021+003601999GF102991999999999999999999MA1101901999999REMMET051METAR EDOP 030320Z 26012KT 9999 FEW012 04/03 Q1019;
0120101624999992007010303504+53417+011783FM-15+0052EDOP V0202601N005712200019N0112651N1+00301+00201999999ADDGA1021+006001999GF102991999999999999999999MA1101901999999REMMET051METAR EDOP 030350Z 26011KT 9999 FEW020 03/02 Q1019;
0072101624999992007010304204+53417+011783FM-15+0052EDOP V0202601N00621999999CN0099001N1+00401+00301999999ADDMA1102001999999REMMET045METAR EDOP 030420Z 26012KT CAVOK 04/03 Q1020;
0120101624999992007010304504+53417+011783FM-15+0052EDOP V0202601N006212200019N0112651N1+00401+00301999999ADDGA1041+013801999GF104991999999999999999999MA1102001999999REMMET051METAR EDOP 030450Z 26012KT 9999 SCT046 04/03 Q1020;
0143101624999992007010305204+53417+011783FM-15+0052EDOP V0202601N005712200019N0112651N1+00301+00301999999ADDGA1021+002101999GA2041+012001999GF104991999999999999999999MA1102001999999REMMET058METAR EDOP 030520Z 26011KT 9999 FEW007 SCT040 03/03 Q1020;
0120101624999992007010305504+53417+011783FM-15+0052EDOP V0202601N005712200019N0112651N1+00401+00301999999ADDGA1041+009601999GF104991999999999999999999MA1102001999999REMMET051METAR EDOP 030550Z 26011KT 9999 SCT032 04/03 Q1020;
0120101624999992007010306204+53417+011783FM-15+0052EDOP V0202501N005112200019N0112651N1+00401+00301999999ADDGA1041+012001999GF104991999999999999999999MA1102001999999REMMET051METAR EDOP 030620Z 25010KT 9999 SCT040 04/03 Q1020;
0120101624999992007010306504+53417+011783FM-15+0052EDOP V0202601N005712200019N0112651N1+00401+00301999999ADDGA1041+009601999GF104991999999999999999999MA1102101999999REMMET051METAR EDOP 030650Z 26011KT 9999 SCT032 04/03 Q1021;
0120101624999992007010307204+53417+011783FM-15+0052EDOP V0202501N005112200019N0112651N1+00301+00201999999ADDGA1041+013801999GF104991999999999999999999MA1102101999999REMMET051METAR EDOP 030720Z 25010KT 9999 SCT046 03/02 Q1021;
0143101624999992007010307504+53417+011783FM-15+0052EDOP V0202501N005110120019N0112651N1+00401+00301999999ADDGA1021+002401999GA2071+012001999GF107991999999999999999999MA1102101999999REMMET058METAR EDOP 030750Z 25010KT 9999 FEW008 BKN040 04/03 Q1021;
0143101624999992007010308204+53417+011783FM-15+0052EDOP V0202501N006210120019N0112651N1+00401+00401999999ADDGA1021+002101999GA2071+012001999GF107991999999999999999999MA1102101999999REMMET058METAR EDOP 030820Z 25012KT 9999 FEW007 BKN040 04/04 Q1021;
0143101624999992007010308504+53417+011783FM-15+0052EDOP V0201501N005710120019N0112651N1+00401+00301999999ADDGA1041+002401999GA2071+012001999GF107991999999999999999999MA1102201999999REMMET058METAR EDOP 030850Z 15011KT 9999 SCT008 BKN040 04/03 Q1022;
0143101624999992007010309204+53417+011783FM-15+0052EDOP V0202601N006210120019N0112651N1+00401+00401999999ADDGA1041+002701999GA2071+012001999GF107991999999999999999999MA1102201999999REMMET058METAR EDOP 030920Z 26012KT 9999 SCT009 BKN040 04/04 Q1022;
0120101624999992007010309504+53417+011783FM-15+0052EDOP V0202601N006710030019N0112651N1+00501+00401999999ADDGA1071+003001999GF107991999999999999999999MA1102201999999REMMET051METAR EDOP 030950Z 26013KT 9999 BKN010 05/04 Q1022;
0120101624999992007010310204+53417+011783FM-15+0052EDOP V0202601N005712200019N0112651N1+00501+00401999999ADDGA1041+003001999GF104991999999999999999999MA1102201999999REMMET051METAR EDOP 031020Z 26011KT 9999 SCT010 05/04 Q1022;
0120101624999992007010310504+53417+011783FM-15+0052EDOP V0202601N006212200019N0112651N1+00601+00401999999ADDGA1041+003001999GF104991999999999999999999MA1102201999999REMMET051METAR EDOP 031050Z 26012KT 9999 SCT010 06/04 Q1022;
0120101624999992007010311204+53417+011783FM-15+0052EDOP V0202501N005712200019N0112651N1+00601+00401999999ADDGA1041+003901999GF104991999999999999999999MA1102201999999REMMET051METAR EDOP 031120Z 25011KT 9999 SCT013 06/04 Q1022;
0120101624999992007010311504+53417+011783FM-15+0052EDOP V0202501N006712200019N0112651N1+00701+00401999999ADDGA1041+004801999GF104991999999999999999999MA1102201999999REMMET051METAR EDOP 031150Z 25013KT 9999 SCT016 07/04 Q1022;
0120101624999992007010312204+53417+011783FM-15+0052EDOP V0202601N006712200019N0112651N1+00601+00301999999ADDGA1041+005701999GF104991999999999999999999MA1102101999999REMMET051METAR EDOP 031220Z 26013KT 9999 SCT019 06/03 Q1021;
0120101624999992007010312504+53417+011783FM-15+0052EDOP V0202501N005712200019N0112651N1+00601+00301999999ADDGA1041+005701999GF104991999999999999999999MA1102101999999REMMET051METAR EDOP 031250Z 25011KT 9999 SCT019 06/03 Q1021;
0120101624999992007010313204+53417+011783FM-15+0052EDOP V0202401N006210057019N0112651N1+00601+00301999999ADDGA1071+005701999GF107991999999999999999999MA1102101999999REMMET051METAR EDOP 031320Z 24012KT 9999 BKN019 06/03 Q1021;
0120101624999992007010313504+53417+011783FM-15+0052EDOP V0202401N007210060019N0112651N1+00601+00301999999ADDGA1071+006001999GF107991999999999999999999MA1102101999999REMMET051METAR EDOP 031350Z 24014KT 9999 BKN020 06/03 Q1021;
0120101624999992007010314204+53417+011783FM-15+0052EDOP V0202301N006210051019N0112651N1+00601+00301999999ADDGA1071+005101999GF107991999999999999999999MA1102001999999REMMET051METAR EDOP 031420Z 23012KT 9999 BKN017 06/03 Q1020;
0120101624999992007010314504+53417+011783FM-15+0052EDOP V0202301N006710051019N0112651N1+00601+00301999999ADDGA1071+005101999GF107991999999999999999999MA1102001999999REMMET051METAR EDOP 031450Z 23013KT 9999 BKN017 06/03 Q1020;
0120101624999992007010315204+53417+011783FM-15+0052EDOP V0202301N006710048019N0112651N1+00601+00301999999ADDGA1071+004801999GF107991999999999999999999MA1102001999999REMMET051METAR EDOP 031520Z 23013KT 9999 BKN016 06/03 Q1020;
0120101624999992007010315504+53417+011783FM-15+0052EDOP V0202401N006210042019N0112651N1+00601+00301999999ADDGA1071+004201999GF107991999999999999999999MA1101901999999REMMET051METAR EDOP 031550Z 24012KT 9999 BKN014 06/03 Q1019;
0120101624999992007010316204+53417+011783FM-15+0052EDOP V0202301N007210057019N0112651N1+00601+00301999999ADDGA1071+005701999GF107991999999999999999999MA1101901999999REMMET051METAR EDOP 031620Z 23014KT 9999 BKN019 06/03 Q1019;
0120101624999992007010316504+53417+011783FM-15+0052EDOP V0202301N005710057019N0112651N1+00501+00301999999ADDGA1071+005701999GF107991999999999999999999MA1101901999999REMMET051METAR EDOP 031650Z 23011KT 9999 BKN019 05/03 Q1019;
0130101624999992007010406204+53417+011783FM-15+0052EDOP V0202001N006710054019N0080001N1+00601+00501999999ADDGA1071+005401999GF107991999999999999999999MA1100411999999MW1511REMMET055METAR EDOP 040620Z 20013KT 8000 -DZ BKN018 06/05 Q1004;
0120101624999992007010406504+53417+011783FM-15+0052EDOP V0202001N007210039019N0090001N1+00601+00501999999ADDGA1071+003901999GF107991999999999999999999MA1100411999999REMMET051METAR EDOP 040650Z 20014KT 9000 BKN013 06/05 Q1004;
0130101624999992007010407204+53417+011783FM-15+0052EDOP V0202101N008210030019N0070001N1+00601+00501999999ADDGA1071+003001999GF107991999999999999999999MA1100311999999MW1511REMMET055METAR EDOP 040720Z 21016KT 7000 -DZ BKN010 06/05 Q1003;
0120101624999992007010407504+53417+011783FM-15+0052EDOP V0202101N008210039019N0090001N1+00701+00501999999ADDGA1071+003901999GF107991999999999999999999MA1100311999999REMMET051METAR EDOP 040750Z 21016KT 9000 BKN013 07/05 Q1003;
0120101624999992007010408204+53417+011783FM-15+0052EDOP V0202101N009310054019N0090001N1+00701+00501999999ADDGA1071+005401999GF107991999999999999999999MA1100201999999REMMET051METAR EDOP 040820Z 21018KT 9000 BKN018 07/05 Q1002;
0120101624999992007010408504+53417+011783FM-15+0052EDOP V0202001N008710039019N0112651N1+00701+00501999999ADDGA1071+003901999GF107991999999999999999999MA1100201999999REMMET051METAR EDOP 040850Z 20017KT 9999 BKN013 07/05 Q1002;
0130101624999992007010409204+53417+011783FM-15+0052EDOP V0202001N008710039019N0060001N1+00701+00501999999ADDGA1071+003901999GF107991999999999999999999MA1100101999999MW1511REMMET055METAR EDOP 040920Z 20017KT 6000 -DZ BKN013 07/05 Q1001;
0120101624999992007010409504+53417+011783FM-15+0052EDOP V0202001N008210048019N0080001N1+00701+00501999999ADDGA1071+004801999GF107991999999999999999999MA1100101999999REMMET051METAR EDOP 040950Z 20016KT 8000 BKN016 07/05 Q1001;
0120101624999992007010410204+53417+011783FM-15+0052EDOP V0202101N009310036019N0080001N1+00801+00601999999ADDGA1071+003601999GF107991999999999999999999MA1100101999999REMMET051METAR EDOP 041020Z 21018KT 8000 BKN012 08/06 Q1001;
0120101624999992007010410504+53417+011783FM-15+0052EDOP V0202101N009310036019N0080001N1+00801+00601999999ADDGA1071+003601999GF107991999999999999999999MA1100001999999REMMET051METAR EDOP 041050Z 21018KT 8000 BKN012 08/06 Q1000;
0120101624999992007010411204+53417+011783FM-15+0052EDOP V0202101N008710045019N0090001N1+00801+00601999999ADDGA1071+004501999GF107991999999999999999999MA1100001999999REMMET051METAR EDOP 041120Z 21017KT 9000 BKN015 08/06 Q1000;
0131101624999992007010411504+53417+011783FM-15+0052EDOP V0202201N009310048019N0112651N1+00801+00601999999ADDGA1071+004801999GF107991999999999999999999MA1100001999999MW1811REMMET056METAR EDOP 041150Z 22018KT 9999 SHRA BKN016 08/06 Q1000;
0142101624999992007010412204+53417+011783FM-15+0052EDOP V0202201N008710036019N0070001N1+00801+00601999999ADDGA1071+003601999GF107991999999999999999999MA1099901999999MW1811OC101391REMMET059METAR EDOP 041220Z 22017G27KT 7000 SHRA BKN012 08/06 Q0999;
0142101624999992007010412504+53417+011783FM-15+0052EDOP V0202201N009310033019N0080001N1+00801+00701999999ADDGA1071+003301999GF107991999999999999999999MA1099901999999MW1811OC101441REMMET059METAR EDOP 041250Z 22018G28KT 8000 SHRA BKN011 08/07 Q0999;
0136101624999992007010413204+53417+011783FM-15+0052EDOP V0202301N008710039019N0112651N1+00801+00701999999ADDGA1071+003901999GF107991999999999999999999MA1099901999999OC101391REMMET059METAR EDOP 041320Z 23017G27KT 9999 BKN013 08/07 Q0999 RERA;
0120101624999992007010413504+53417+011783FM-15+0052EDOP V0202401N007710054019N0112651N1+00801+00701999999ADDGA1071+005401999GF107991999999999999999999MA1099901999999REMMET051METAR EDOP 041350Z 24015KT 9999 BKN018 08/07 Q0999;
0120101624999992007010414204+53417+011783FM-15+0052EDOP V0202201N007210084019N0112651N1+00801+00601999999ADDGA1071+008401999GF107991999999999999999999MA1100001999999REMMET051METAR EDOP 041420Z 22014KT 9999 BKN028 08/06 Q1000;
0131101624999992007010415204+53417+011783FM-15+0052EDOP V0202301N008710060019N0070001N1+00801+00601999999ADDGA1071+006001999GF107991999999999999999999MA1099901999999MW1811REMMET056METAR EDOP 041520Z 23017KT 7000 SHRA BKN020 08/06 Q0999;
0131101624999992007010415504+53417+011783FM-15+0052EDOP V0202201N009810051019N0070001N1+00801+00601999999ADDGA1071+005101999GF107991999999999999999999MA1099901999999MW1811REMMET056METAR EDOP 041550Z 22019KT 7000 SHRA BKN017 08/06 Q0999;
0131101624999992007010416204+53417+011783FM-15+0052EDOP V0202301N007710045019N0070001N1+00801+00601999999ADDGA1071+004501999GF107991999999999999999999MA1099901999999MW1811REMMET056METAR EDOP 041620Z 23015KT 7000 SHRA BKN015 08/06 Q0999;
0131101624999992007010416504+53417+011783FM-15+0052EDOP V0202301N007710039019N0070001N1+00801+00601999999ADDGA1071+003901999GF107991999999999999999999MA1099901999999MW1811REMMET056METAR EDOP 041650Z 23015KT 7000 SHRA BKN013 08/06 Q0999;
0120101624999992007010503504+53417+011783FM-15+0052EDOP V0202701N006210060019N0112651N1+00801+00501999999ADDGA1071+006001999GF107991999999999999999999MA1100511999999REMMET051METAR EDOP 050350Z 27012KT 9999 BKN020 08/05 Q1005;
0120101624999992007010504204+53417+011783FM-15+0052EDOP V0202701N006210060019N0112651N1+00701+00501999999ADDGA1071+006001999GF107991999999999999999999MA1100511999999REMMET051METAR EDOP 050420Z 27012KT 9999 BKN020 07/05 Q1005;
0143101624999992007010504504+53417+011783FM-15+0052EDOP V0202701N006710126019N0112651N1+00701+00501999999ADDGA1041+006001999GA2071+012601999GF107991999999999999999999MA1100611999999REMMET058METAR EDOP 050450Z 27013KT 9999 SCT020 BKN042 07/05 Q1006;
0120101624999992007010505204+53417+011783FM-15+0052EDOP V0202701N007210060019N0112651N1+00701+00401999999ADDGA1071+006001999GF107991999999999999999999MA1100611999999REMMET051METAR EDOP 050520Z 27014KT 9999 BKN020 07/04 Q1006;
0120101624999992007010505504+53417+011783FM-15+0052EDOP V0202701N008712200019N0112651N1+00701+00401999999ADDGA1041+008401999GF104991999999999999999999MA1100711999999REMMET051METAR EDOP 050550Z 27017KT 9999 SCT028 07/04 Q1007;
0120101624999992007010506204+53417+011783FM-15+0052EDOP V0202701N006212200019N0112651N1+00601+00401999999ADDGA1041+005401999GF104991999999999999999999MA1100811999999REMMET051METAR EDOP 050620Z 27012KT 9999 SCT018 06/04 Q1008;
0120101624999992007010506504+53417+011783FM-15+0052EDOP V0202701N006210090019N0112651N1+00701+00401999999ADDGA1071+009001999GF107991999999999999999999MA1100811999999REMMET051METAR EDOP 050650Z 27012KT 9999 BKN030 07/04 Q1008;
0120101624999992007010507204+53417+011783FM-15+0052EDOP V0202701N005710084019N0112651N1+00701+00401999999ADDGA1071+008401999GF107991999999999999999999MA1100811999999REMMET051METAR EDOP 050720Z 27011KT 9999 BKN028 07/04 Q1008;
0120101624999992007010507504+53417+011783FM-15+0052EDOP V0202701N005710075019N0112651N1+00701+00401999999ADDGA1071+007501999GF107991999999999999999999MA1100911999999REMMET051METAR EDOP 050750Z 27011KT 9999 BKN025 07/04 Q1009;
0120101624999992007010508204+53417+011783FM-15+0052EDOP V0202701N006710090019N0112651N1+00701+00401999999ADDGA1071+009001999GF107991999999999999999999MA1100911999999REMMET051METAR EDOP 050820Z 27013KT 9999 BKN030 07/04 Q1009;
0120101624999992007010508504+53417+011783FM-15+0052EDOP V0202701N007210141019N0112651N1+00701+00301999999ADDGA1071+014101999GF107991999999999999999999MA1100911999999REMMET051METAR EDOP 050850Z 27014KT 9999 BKN047 07/03 Q1009;
0120101624999992007010509204+53417+011783FM-15+0052EDOP V0202801N006710096019N0112651N1+00701+00301999999ADDGA1071+009601999GF107991999999999999999999MA1101021999999REMMET051METAR EDOP 050920Z 28013KT 9999 BKN032 07/03 Q1010;
0120101624999992007010509504+53417+011783FM-15+0052EDOP V0202701N007210090019N0112651N1+00801+00401999999ADDGA1071+009001999GF107991999999999999999999MA1101021999999REMMET051METAR EDOP 050950Z 27014KT 9999 BKN030 08/04 Q1010;
0120101624999992007010510204+53417+011783FM-15+0052EDOP V0202601N006710075019N0112651N1+00801+00401999999ADDGA1071+007501999GF107991999999999999999999MA1101081999999REMMET051METAR EDOP 051020Z 26013KT 9999 BKN025 08/04 Q1011;
0120101624999992007010510504+53417+011783FM-15+0052EDOP V0202601N006710075019N0112651N1+00801+00401999999ADDGA1071+007501999GF107991999999999999999999MA1101081999999REMMET051METAR EDOP 051050Z 26013KT 9999 BKN025 08/04 Q1011;
0130101624999992007010511204+53417+011783FM-15+0052EDOP V0202701N005710054019N0080001N1+00701+00401999999ADDGA1071+005401999GF107991999999999999999999MA1101191999999MW1511REMMET055METAR EDOP 051120Z 27011KT 8000 -DZ BKN018 07/04 Q1012;
0129101624999992007010511504+53417+011783FM-15+0052EDOP V0202701N006710024019N0070001N1+00701+00501999999ADDGA1071+002401999GF107991999999999999999999MA1101191999999MW1531REMMET054METAR EDOP 051150Z 27013KT 7000 DZ BKN008 07/05 Q1012;
0120101624999992007010512204+53417+011783FM-15+0052EDOP V0202601N006710060019N0090001N1+00701+00501999999ADDGA1071+006001999GF107991999999999999999999MA1101191999999REMMET051METAR EDOP 051220Z 26013KT 9000 BKN020 07/05 Q1012;
0132101624999992007010512504+53417+011783FM-15+0052EDOP V0202601N006710060019N0080001N1+00701+00501999999ADDGA1071+006001999GF107991999999999999999999MA1101191999999MW1801REMMET057METAR EDOP 051250Z 26013KT 8000 -SHRA BKN020 07/05 Q1012;
0132101624999992007010513204+53417+011783FM-15+0052EDOP V0202501N005110051019N0090001N1+00701+00501999999ADDGA1071+005101999GF107991999999999999999999MA1101191999999MW1801REMMET057METAR EDOP 051320Z 25010KT 9000 -SHRA BKN017 07/05 Q1012;
0120101624999992007010513504+53417+011783FM-15+0052EDOP V0202501N007210051019N0090001N1+00701+00501999999ADDGA1071+005101999GF107991999999999999999999MA1101291999999REMMET051METAR EDOP 051350Z 25014KT 9000 BKN017 07/05 Q1013;
0120101624999992007010514204+53417+011783FM-15+0052EDOP V0202601N006710048019N0112651N1+00701+00501999999ADDGA1071+004801999GF107991999999999999999999MA1101291999999REMMET051METAR EDOP 051420Z 26013KT 9999 BKN016 07/05 Q1013;
0131101624999992007010514504+53417+011783FM-15+0052EDOP V0202601N005710060019N0070001N1+00701+00501999999ADDGA1071+006001999GF107991999999999999999999MA1101291999999MW1811REMMET056METAR EDOP 051450Z 26011KT 7000 SHRA BKN020 07/05 Q1013;
0131101624999992007010515204+53417+011783FM-15+0052EDOP V0202501N006210090019N0070001N1+00601+00501999999ADDGA1071+009001999GF107991999999999999999999MA1101291999999MW1811REMMET056METAR EDOP 051520Z 25012KT 7000 SHRA BKN030 06/05 Q1013;
0137101624999992007010515504+53417+011783FM-15+0052EDOP V0202401N004610075019N0080001N1+00601+00501999999ADDGA1071+007501999GF107991999999999999999999MA1101291999999MW1801REMMET062METAR EDOP 051550Z 24009KT 8000 -SHRA BKN025 06/05 Q1013 RERA;
0132101624999992007010516204+53417+011783FM-15+0052EDOP V0202401N004110066019N0080001N1+00601+00501999999ADDGA1071+006601999GF107991999999999999999999MA1101291999999MW1801REMMET057METAR EDOP 051620Z 24008KT 8000 -SHRA BKN022 06/05 Q1013;
0120101624999992007010516504+53417+011783FM-15+0052EDOP V0202201N003610045019N0090001N1+00601+00501999999ADDGA1071+004501999GF107991999999999999999999MA1101291999999REMMET051METAR EDOP 051650Z 22007KT 9000 BKN015 06/05 Q1013;
0072101624999992007010606204+53417+011783FM-15+0052EDOP V0202601N00311999999CN0099001N1+00501+00401999999ADDMA1101391999999REMMET045METAR EDOP 060620Z 26006KT CAVOK 05/04 Q1014;
0131101624999992007010606504+53417+011783FM-15+0052EDOP V0202501N003112200019N0080001N1+00501+00501999999ADDGA1021+006001999GF102991999999999999999999MA1101291999999MW1411REMMET056METAR EDOP 060650Z 25006KT 8000 BCFG FEW020 05/05 Q1013;
0131101624999992007010607504+53417+011783FM-15+0052EDOP V0202501N003112200019N0080001N1+00501+00501999999ADDGA1021+006001999GF102991999999999999999999MA1101291999999MW1411REMMET056METAR EDOP 060750Z 25006KT 8000 BCFG FEW020 05/05 Q1013;
0072101624999992007010608204+53417+011783FM-15+0052EDOP V0202501N00261999999CN0099001N1+00601+00601999999ADDMA1101391999999REMMET045METAR EDOP 060820Z 25005KT CAVOK 06/06 Q1014;
0072101624999992007010609204+53417+011783FM-15+0052EDOP V0202501N00361999999CN0099001N1+00801+00701999999ADDMA1101391999999REMMET045METAR EDOP 060920Z 25007KT CAVOK 08/07 Q1014;
0072101624999992007010609504+53417+011783FM-15+0052EDOP V0202501N00311999999CN0099001N1+00801+00701999999ADDMA1101391999999REMMET045METAR EDOP 060950Z 25006KT CAVOK 08/07 Q1014;
0072101624999992007010610204+53417+011783FM-15+0052EDOP V0202401N00361999999CN0099001N1+00801+00701999999ADDMA1101491999999REMMET045METAR EDOP 061020Z 24007KT CAVOK 08/07 Q1015;
0072101624999992007010610504+53417+011783FM-15+0052EDOP V0202401N00361999999CN0099001N1+00801+00701999999ADDMA1101391999999REMMET045METAR EDOP 061050Z 24007KT CAVOK 08/07 Q1014;
0143101624999992007010611204+53417+011783FM-15+0052EDOP V0202501N004610150019N0112651N1+00801+00701999999ADDGA1041+003001999GA2071+015001999GF107991999999999999999999MA1101391999999REMMET058METAR EDOP 061120Z 25009KT 9999 SCT010 BKN050 08/07 Q1014;
0143101624999992007010611504+53417+011783FM-15+0052EDOP V0202601N006712200019N0112651N1+00801+00601999999ADDGA1041+003001999GA2041+005401999GF104991999999999999999999MA1101391999999REMMET058METAR EDOP 061150Z 26013KT 9999 SCT010 SCT018 08/06 Q1014;
0143101624999992007010612204+53417+011783FM-15+0052EDOP V0202601N006212200019N0112651N1+00801+00601999999ADDGA1041+003001999GA2041+006001999GF104991999999999999999999MA1101391999999REMMET058METAR EDOP 061220Z 26012KT 9999 SCT010 SCT020 08/06 Q1014;
0143101624999992007010612504+53417+011783FM-15+0052EDOP V0202501N004112200019N0112651N1+00801+00601999999ADDGA1041+003601999GA2041+006001999GF104991999999999999999999MA1101391999999REMMET058METAR EDOP 061250Z 25008KT 9999 SCT012 SCT020 08/06 Q1014;
0143101624999992007010613204+53417+011783FM-15+0052EDOP V0202501N004112200019N0112651N1+00801+00601999999ADDGA1041+004501999GA2041+007501999GF104991999999999999999999MA1101391999999REMMET058METAR EDOP 061320Z 25008KT 9999 SCT015 SCT025 08/06 Q1014;
0143101624999992007010613504+53417+011783FM-15+0052EDOP V0202501N004612200019N0112651N1+00801+00501999999ADDGA1021+004501999GA2041+007501999GF104991999999999999999999MA1101391999999REMMET058METAR EDOP 061350Z 25009KT 9999 FEW015 SCT025 08/05 Q1014;
0143101624999992007010614204+53417+011783FM-15+0052EDOP V0202301N004112200019N0112651N1+00701+00401999999ADDGA1041+006001999GA2041+030001999GF104991999999999999999999MA1101391999999REMMET058METAR EDOP 061420Z 23008KT 9999 SCT020 SCT100 07/04 Q1014;
0143101624999992007010614504+53417+011783FM-15+0052EDOP V0202301N003610300019N0112651N1+00701+00501999999ADDGA1021+006001999GA2071+030001999GF107991999999999999999999MA1101391999999REMMET058METAR EDOP 061450Z 23007KT 9999 FEW020 BKN100 07/05 Q1014;
0143101624999992007010615204+53417+011783FM-15+0052EDOP V0202301N003112200019N0112651N1+00701+00501999999ADDGA1041+004501999GA2041+009001999GF104991999999999999999999MA1101391999999REMMET058METAR EDOP 061520Z 23006KT 9999 SCT015 SCT030 07/05 Q1014;
0143101624999992007010615504+53417+011783FM-15+0052EDOP V0202501N003112200019N0112651N1+00601+00501999999ADDGA1041+006001999GA2041+030001999GF104991999999999999999999MA1101391999999REMMET058METAR EDOP 061550Z 25006KT 9999 SCT020 SCT100 06/05 Q1014;
0120101624999992007010616204+53417+011783FM-15+0052EDOP V0202301N003112200019N0112651N1+00701+00501999999ADDGA1041+006001999GF104991999999999999999999MA1101391999999REMMET051METAR EDOP 061620Z 23006KT 9999 SCT020 07/05 Q1014;
0143101624999992007010616504+53417+011783FM-15+0052EDOP V0202301N003612200019N0112651N1+00601+00401999999ADDGA1021+006001999GA2041+030001999GF104991999999999999999999MA1101391999999REMMET058METAR EDOP 061650Z 23007KT 9999 FEW020 SCT100 06/04 Q1014;
0149101624999992007010706204+53417+011783FM-15+0052EDOP V0202501N002112200019N0004001N1+00101+00101999999ADDED199U04509GF100991999999999999999999MA1101191999999MW1441REMMET060METAR EDOP 070620Z 25004KT 0400 R24/0450 FG SKC 01/01 Q1012;EQDQ01    003SCCGA1
0144101624999992007010706504+53417+011783FM-15+0052EDOP V0202501N002112200019N0004001N1+00101+00101999999ADDGF100991999999999999999999MA1101191999999MW1441REMMET066METAR EDOP 070650Z 25004KT 0400 R24/0400V0675D FG NSC 01/01 Q1012;EQDQ01    003SCCGA1
0144101624999992007010707204+53417+011783FM-15+0052EDOP V0202501N001512200019N0004001N1+00101+00101999999ADDGF100991999999999999999999MA1101291999999MW1441REMMET066METAR EDOP 070720Z 25003KT 0400 R24/0400V0750N FG NSC 01/01 Q1013;EQDQ01    003SCCGA1
0150101624999992007010707504+53417+011783FM-15+0052EDOP V0202301N002112200019N0010001N1+00101+00101999999ADDED199U12009GF100991999999999999999999MA1101291999999MW1101REMMET061METAR EDOP 070750Z 23004KT 1000 R24/1200N BR NSC 01/01 Q1013;EQDQ01    003SCCGA1
0129101624999992007010708204+53417+011783FM-15+0052EDOP V0202401N003112200019N0040001N1+00101+00101999999ADDGF100991999999999999999999MA1101291999999MW1101REMMET051METAR EDOP 070820Z 24006KT 4000 BR NSC 01/01 Q1013;EQDQ01    003SCCGA1
0129101624999992007010708504+53417+011783FM-15+0052EDOP V0202401N004112200019N0045001N1+00101+00101999999ADDGF100991999999999999999999MA1101391999999MW1101REMMET051METAR EDOP 070850Z 24008KT 4500 BR NSC 01/01 Q1014;EQDQ01    003SCCGA1
0129101624999992007010709204+53417+011783FM-15+0052EDOP V0202401N004112200019N0045001N1+00201+00201999999ADDGA1041+001501999GF104991999999999999999999MA1101391999999MW1101REMMET054METAR EDOP 070920Z 24008KT 4500 BR SCT005 02/02 Q1014;
0129101624999992007010709504+53417+011783FM-15+0052EDOP V0202301N004612200019N0040001N1+00301+00301999999ADDGA1041+001501999GF104991999999999999999999MA1101491999999MW1101REMMET054METAR EDOP 070950Z 23009KT 4000 BR SCT005 03/03 Q1015;
0129101624999992007010710204+53417+011783FM-15+0052EDOP V0202401N005112200019N0045001N1+00401+00401999999ADDGA1041+001501999GF104991999999999999999999MA1101391999999MW1101REMMET054METAR EDOP 071020Z 24010KT 4500 BR SCT005 04/04 Q1014;
0129101624999992007010710504+53417+011783FM-15+0052EDOP V0202401N005712200019N0050001N1+00401+00401999999ADDGA1041+001801999GF104991999999999999999999MA1101391999999MW1101REMMET054METAR EDOP 071050Z 24011KT 5000 BR SCT006 04/04 Q1014;
0152101624999992007010711204+53417+011783FM-15+0052EDOP V0202001N003610120019N0050001N1+00401+00401999999ADDGA1041+002101999GA2071+012001999GF107991999999999999999999MA1101391999999MW1101REMMET061METAR EDOP 071120Z 20007KT 5000 BR SCT007 BKN040 04/04 Q1014;
0152101624999992007010711504+53417+011783FM-15+0052EDOP V0202001N005110090019N0050001N1+00501+00501999999ADDGA1041+002101999GA2071+009001999GF107991999999999999999999MA1101391999999MW1101REMMET061METAR EDOP 071150Z 20010KT 5000 BR SCT007 BKN030 05/05 Q1014;
0152101624999992007010712204+53417+011783FM-15+0052EDOP V0202001N005710090019N0045001N1+00501+00501999999ADDGA1041+002101999GA2071+009001999GF107991999999999999999999MA1101391999999MW1101REMMET061METAR EDOP 071220Z 20011KT 4500 BR SCT007 BKN030 05/05 Q1014;
0129101624999992007010712504+53417+011783FM-15+0052EDOP V0202101N006210051019N0050001N1+00501+00401999999ADDGA1071+005101999GF107991999999999999999999MA1101391999999MW1101REMMET054METAR EDOP 071250Z 21012KT 5000 BR BKN017 05/04 Q1014;
0120101624999992007010713204+53417+011783FM-15+0052EDOP V0202001N004110021019N0060001N1+00501+00401999999ADDGA1071+002101999GF107991999999999999999999MA1101291999999REMMET051METAR EDOP 071320Z 20008KT 6000 BKN007 05/04 Q1013;
0120101624999992007010713504+53417+011783FM-15+0052EDOP V0202101N005710024019N0060001N1+00601+00401999999ADDGA1071+002401999GF107991999999999999999999MA1101291999999REMMET051METAR EDOP 071350Z 21011KT 6000 BKN008 06/04 Q1013;
0120101624999992007010714204+53417+011783FM-15+0052EDOP V0202001N005110024019N0060001N1+00601+00501999999ADDGA1071+002401999GF107991999999999999999999MA1101291999999REMMET051METAR EDOP 071420Z 20010KT 6000 BKN008 06/05 Q1013;
0143101624999992007010714504+53417+011783FM-15+0052EDOP V0201901N004610105019N0060001N1+00601+00501999999ADDGA1041+003001999GA2071+010501999GF107991999999999999999999MA1101291999999REMMET058METAR EDOP 071450Z 19009KT 6000 SCT010 BKN035 06/05 Q1013;
0152101624999992007010715204+53417+011783FM-15+0052EDOP V0201801N004610114019N0050001N1+00601+00501999999ADDGA1021+003001999GA2071+011401999GF107991999999999999999999MA1101291999999MW1101REMMET061METAR EDOP 071520Z 18009KT 5000 BR FEW010 BKN038 06/05 Q1013;
0129101624999992007010716504+53417+011783FM-15+0052EDOP V0201901N006210075019N0050001N1+00601+00501999999ADDGA1071+007501999GF107991999999999999999999MA1101191999999MW1101REMMET054METAR EDOP 071650Z 19012KT 5000 BR BKN025 06/05 Q1012;
0072101624999992007010806204+53417+011783FM-15+0052EDOP V0201801N00621999999CN0099001N1+00601+00201999999ADDMA1100411999999REMMET045METAR EDOP 080620Z 18012KT CAVOK 06/02 Q1004;
0072101624999992007010806504+53417+011783FM-15+0052EDOP V0201801N00671999999CN0099001N1+00601+00201999999ADDMA1100411999999REMMET045METAR EDOP 080650Z 18013KT CAVOK 06/02 Q1004;
0120101624999992007010807204+53417+011783FM-15+0052EDOP V0201701N006712200019N0112651N1+00601+00201999999ADDGA1041+012001999GF104991999999999999999999MA1100411999999REMMET051METAR EDOP 080720Z 17013KT 9999 SCT040 06/02 Q1004;
0143101624999992007010807504+53417+011783FM-15+0052EDOP V0201701N006712200019N0112651N1+00601+00201999999ADDGA1021+012001999GA2041+030001999GF104991999999999999999999MA1100311999999REMMET058METAR EDOP 080750Z 17013KT 9999 FEW040 SCT100 06/02 Q1003;
0072101624999992007010808204+53417+011783FM-15+0052EDOP V0201701N00721999999CN0099001N1+00601+00201999999ADDMA1100311999999REMMET045METAR EDOP 080820Z 17014KT CAVOK 06/02 Q1003;
0072101624999992007010808504+53417+011783FM-15+0052EDOP V0201701N00671999999CN0099001N1+00601+00301999999ADDMA1100311999999REMMET045METAR EDOP 080850Z 17013KT CAVOK 06/03 Q1003;
0143101624999992007010809204+53417+011783FM-15+0052EDOP V0201801N007212200019N0112651N1+00701+00301999999ADDGA1021+009001999GA2041+013501999GF104991999999999999999999MA1100201999999REMMET058METAR EDOP 080920Z 18014KT 9999 FEW030 SCT045 07/03 Q1002;
0120101624999992007010809504+53417+011783FM-15+0052EDOP V0201801N007712200019N0112651N1+00701+00301999999ADDGA1041+012001999GF104991999999999999999999MA1100201999999REMMET051METAR EDOP 080950Z 18015KT 9999 SCT040 07/03 Q1002;
0120101624999992007010810204+53417+011783FM-15+0052EDOP V0201801N007710090019N0112651N1+00701+00301999999ADDGA1071+009001999GF107991999999999999999999MA1100101999999REMMET051METAR EDOP 081020Z 18015KT 9999 BKN030 07/03 Q1001;
0153101624999992007010810504+53417+011783FM-15+0052EDOP V0201801N007710120019N0112651N1+00701+00401999999ADDGA1021+006001999GA2071+012001999GF107991999999999999999999MA1100101999999MW1611REMMET062METAR EDOP 081050Z 18015KT 9999 -RA FEW020 BKN040 07/04 Q1001;
0153101624999992007010811204+53417+011783FM-15+0052EDOP V0201801N007710090019N0112651N1+00801+00401999999ADDGA1021+004501999GA2071+009001999GF107991999999999999999999MA1100001999999MW1611REMMET062METAR EDOP 081120Z 18015KT 9999 -RA FEW015 BKN030 08/04 Q1000;
0130101624999992007010811504+53417+011783FM-15+0052EDOP V0201801N007210075019N0112651N1+00701+00501999999ADDGA1071+007501999GF107991999999999999999999MA1100001999999MW1611REMMET055METAR EDOP 081150Z 18014KT 9999 -RA BKN025 07/05 Q1000;
0120101624999992007010812204+53417+011783FM-15+0052EDOP V0201801N006710090019N0112651N1+00701+00501999999ADDGA1071+009001999GF107991999999999999999999MA1099901999999REMMET051METAR EDOP 081220Z 18013KT 9999 BKN030 07/05 Q0999;
0153101624999992007010812504+53417+011783FM-15+0052EDOP V0201901N007710075019N0080001N1+00801+00601999999ADDGA1021+003001999GA2071+007501999GF107991999999999999999999MA1099901999999MW1611REMMET062METAR EDOP 081250Z 19015KT 8000 -RA FEW010 BKN025 08/06 Q0999;
0153101624999992007010813204+53417+011783FM-15+0052EDOP V0201801N007710066019N0080001N1+00801+00601999999ADDGA1021+003001999GA2071+006601999GF107991999999999999999999MA1099901999999MW1611REMMET062METAR EDOP 081320Z 18015KT 8000 -RA FEW010 BKN022 08/06 Q0999;
0153101624999992007010813504+53417+011783FM-15+0052EDOP V0202001N007210054019N0070001N1+00801+00701999999ADDGA1021+003001999GA2071+005401999GF107991999999999999999999MA1099901999999MW1611REMMET062METAR EDOP 081350Z 20014KT 7000 -RA FEW010 BKN018 08/07 Q0999;
0161101624999992007010814204+53417+011783FM-15+0052EDOP V0202101N006710045019N0035001N1+00801+00701999999ADDGA1021+001801999GA2071+004501999GF107991999999999999999999MA1100001999999MW1101MW2631REMMET064METAR EDOP 081420Z 21013KT 3500 RA BR FEW006 BKN015 08/07 Q1000;
0153101624999992007010814504+53417+011783FM-15+0052EDOP V0202501N003610075019N0060001N1+00801+00701999999ADDGA1041+001501999GA2071+007501999GF107991999999999999999999MA1100001999999MW1611REMMET062METAR EDOP 081450Z 25007KT 6000 -RA SCT005 BKN025 08/07 Q1000;
0120101624999992007010815204+53417+011783FM-15+0052EDOP V0202501N006710090019N0112651N1+00801+00701999999ADDGA1071+009001999GF107991999999999999999999MA1100101999999REMMET051METAR EDOP 081520Z 25013KT 9999 BKN030 08/07 Q1001;
0120101624999992007010815504+53417+011783FM-15+0052EDOP V0202501N005710048019N0112651N1+00801+00701999999ADDGA1071+004801999GF107991999999999999999999MA1100101999999REMMET051METAR EDOP 081550Z 25011KT 9999 BKN016 08/07 Q1001;
0120101624999992007010816204+53417+011783FM-15+0052EDOP V0202401N005110120019N0112651N1+00701+00501999999ADDGA1071+012001999GF107991999999999999999999MA1100101999999REMMET051METAR EDOP 081620Z 24010KT 9999 BKN040 07/05 Q1001;
0120101624999992007010816504+53417+011783FM-15+0052EDOP V0202501N004110111019N0112651N1+00601+00501999999ADDGA1071+011101999GF107991999999999999999999MA1100201999999REMMET051METAR EDOP 081650Z 25008KT 9999 BKN037 06/05 Q1002;
0129101624999992007010906204+53417+011783FM-15+0052EDOP V0202001N006210030019N0070001N1+00901+00901999999ADDGA1071+003001999GF107991999999999999999999MA1100101999999MW1531REMMET054METAR EDOP 090620Z 20012KT 7000 DZ BKN010 09/09 Q1001;
0140101624999992007010906504+53417+011783FM-15+0052EDOP V0201901N005110030019N0070001N1+00901+00901999999ADDGA1071+003001999GF107991999999999999999999MA1100101999999MW1531OC101031REMMET057METAR EDOP 090650Z 19010G20KT 7000 DZ BKN010 09/09 Q1001;
0140101624999992007010907504+53417+011783FM-15+0052EDOP V0202001N007710018019N0060001N1+01001+01001999999ADDGA1071+001801999GF107991999999999999999999MA1100201999999MW1631OC101291REMMET057METAR EDOP 090750Z 20015G25KT 6000 RA BKN006 10/10 Q1002;
0129101624999992007010908204+53417+011783FM-15+0052EDOP V0201901N007710018019N0060001N1+01001+01001999999ADDGA1071+001801999GF107991999999999999999999MA1100201999999MW1531REMMET054METAR EDOP 090820Z 19015KT 6000 DZ BKN006 10/10 Q1002;
0169101624999992007010908504+53417+011783FM-15+0052EDOP V0202001N008710060019N0070001N1+01101+01001999999ADDGA1041+001801999GA2071+006001999GF107991999999999999999999MA1100201999999MW1511OC101391REMMET070METAR EDOP 090850Z 20017G27KT 7000 -DZ SCT006 BKN020 11/10 Q1002 REDZ;
0153101624999992007010909204+53417+011783FM-15+0052EDOP V0202001N008210066019N0070001N1+01101+01101999999ADDGA1041+002401999GA2071+006601999GF107991999999999999999999MA1100311999999MW1511REMMET062METAR EDOP 090920Z 20016KT 7000 -DZ SCT008 BKN022 11/11 Q1003;
0152101624999992007010909504+53417+011783FM-15+0052EDOP V0202101N007710066019N0080001N1+01101+01001999999ADDGA1041+002401999GA2071+006601999GF107991999999999999999999MA1100311999999MW1531REMMET061METAR EDOP 090950Z 21015KT 8000 DZ SCT008 BKN022 11/10 Q1003;
0125101624999992007010910204+53417+011783FM-15+0052EDOP V0202001N008710066019N0090001N1+01201+01101999999ADDGA1071+006601999GF107991999999999999999999MA1100311999999REMMET056METAR EDOP 091020Z 20017KT 9000 BKN022 12/11 Q1003 REDZ;
0120101624999992007010910504+53417+011783FM-15+0052EDOP V0202101N007210072019N0090001N1+01201+01001999999ADDGA1071+007201999GF107991999999999999999999MA1100311999999REMMET051METAR EDOP 091050Z 21014KT 9000 BKN024 12/10 Q1003;
0120101624999992007010911204+53417+011783FM-15+0052EDOP V0202101N007210084019N0112651N1+01201+01001999999ADDGA1071+008401999GF107991999999999999999999MA1100311999999REMMET051METAR EDOP 091120Z 21014KT 9999 BKN028 12/10 Q1003;
0143101624999992007010911504+53417+011783FM-15+0052EDOP V0202201N008210135019N0112651N1+01201+00901999999ADDGA1021+008401999GA2071+013501999GF107991999999999999999999MA1100311999999REMMET058METAR EDOP 091150Z 22016KT 9999 FEW028 BKN045 12/09 Q1003;
0120101624999992007010912204+53417+011783FM-15+0052EDOP V0202201N008210081019N0112651N1+01301+00901999999ADDGA1071+008101999GF107991999999999999999999MA1100411999999REMMET051METAR EDOP 091220Z 22016KT 9999 BKN027 13/09 Q1004;
0131101624999992007010912504+53417+011783FM-15+0052EDOP V0202301N010810084019N0112651N1+01301+00801999999ADDGA1071+008401999GF107991999999999999999999MA1100411999999OC101751REMMET054METAR EDOP 091250Z 23021G34KT 9999 BKN028 13/08 Q1004;
0120101624999992007010913204+53417+011783FM-15+0052EDOP V0202401N009810135019N0112651N1+01301+00701999999ADDGA1071+013501999GF107991999999999999999999MA1100411999999REMMET051METAR EDOP 091320Z 24019KT 9999 BKN045 13/07 Q1004;
0120101624999992007010913504+53417+011783FM-15+0052EDOP V0202401N010310144019N0112651N1+01301+00701999999ADDGA1071+014401999GF107991999999999999999999MA1100411999999REMMET051METAR EDOP 091350Z 24020KT 9999 BKN048 13/07 Q1004;
0120101624999992007010914204+53417+011783FM-15+0052EDOP V0202301N010810135019N0112651N1+01301+00701999999ADDGA1071+013501999GF107991999999999999999999MA1100411999999REMMET051METAR EDOP 091420Z 23021KT 9999 BKN045 13/07 Q1004;
0120101624999992007010914504+53417+011783FM-15+0052EDOP V0202301N010310126019N0112651N1+01301+00701999999ADDGA1071+012601999GF107991999999999999999999MA1100511999999REMMET051METAR EDOP 091450Z 23020KT 9999 BKN042 13/07 Q1005;
0120101624999992007010915204+53417+011783FM-15+0052EDOP V0202301N009310102019N0112651N1+01301+00701999999ADDGA1071+010201999GF107991999999999999999999MA1100511999999REMMET051METAR EDOP 091520Z 23018KT 9999 BKN034 13/07 Q1005;
0120101624999992007010915504+53417+011783FM-15+0052EDOP V0202301N009810120019N0112651N1+01301+00701999999ADDGA1071+012001999GF107991999999999999999999MA1100611999999REMMET051METAR EDOP 091550Z 23019KT 9999 BKN040 13/07 Q1006;
0120101624999992007010916204+53417+011783FM-15+0052EDOP V0202301N009810120019N0112651N1+01301+00601999999ADDGA1071+012001999GF107991999999999999999999MA1100611999999REMMET051METAR EDOP 091620Z 23019KT 9999 BKN040 13/06 Q1006;
0120101624999992007010916504+53417+011783FM-15+0052EDOP V0202301N010310114019N0112651N1+01301+00601999999ADDGA1071+011401999GF107991999999999999999999MA1100611999999REMMET051METAR EDOP 091650Z 23020KT 9999 BKN038 13/06 Q1006;
0143101624999992007011001504+53417+011783FM-15+0052EDOP V0202201N009310180019N0112651N1+01301+00601999999ADDGA1021+012001999GA2071+018001999GF107991999999999999999999MA1100911999999REMMET058METAR EDOP 100150Z 22018KT 9999 FEW040 BKN060 13/06 Q1009;
0143101624999992007011002204+53417+011783FM-15+0052EDOP V0202201N009310150019N0112651N1+01301+00601999999ADDGA1021+009001999GA2071+015001999GF107991999999999999999999MA1100911999999REMMET058METAR EDOP 100220Z 22018KT 9999 FEW030 BKN050 13/06 Q1009;
0143101624999992007011002504+53417+011783FM-15+0052EDOP V0202201N007710150019N0112651N1+01301+00601999999ADDGA1021+009001999GA2071+015001999GF107991999999999999999999MA1100911999999REMMET058METAR EDOP 100250Z 22015KT 9999 FEW030 BKN050 13/06 Q1009;
0072101624999992007011003204+53417+011783FM-15+0052EDOP V0202201N00871999999CN0099001N1+01301+00501999999ADDMA1100911999999REMMET045METAR EDOP 100320Z 22017KT CAVOK 13/05 Q1009;
0143101624999992007011003504+53417+011783FM-15+0052EDOP V0202201N009310150019N0112651N1+01301+00501999999ADDGA1021+012001999GA2071+015001999GF107991999999999999999999MA1100911999999REMMET058METAR EDOP 100350Z 22018KT 9999 FEW040 BKN050 13/05 Q1009;
0143101624999992007011004204+53417+011783FM-15+0052EDOP V0202101N006210150019N0112651N1+01201+00601999999ADDGA1041+010501999GA2071+015001999GF107991999999999999999999MA1100911999999REMMET058METAR EDOP 100420Z 21012KT 9999 SCT035 BKN050 12/06 Q1009;
0143101624999992007011004504+53417+011783FM-15+0052EDOP V0202001N006710150019N0112651N1+01201+00601999999ADDGA1041+010501999GA2071+015001999GF107991999999999999999999MA1100911999999REMMET058METAR EDOP 100450Z 20013KT 9999 SCT035 BKN050 12/06 Q1009;
0120101624999992007011005204+53417+011783FM-15+0052EDOP V0202001N007210105019N0112651N1+01201+00601999999ADDGA1071+010501999GF107991999999999999999999MA1100911999999REMMET051METAR EDOP 100520Z 20014KT 9999 BKN035 12/06 Q1009;
0120101624999992007011005504+53417+011783FM-15+0052EDOP V0202101N007710105019N0112651N1+01201+00601999999ADDGA1071+010501999GF107991999999999999999999MA1100911999999REMMET051METAR EDOP 100550Z 21015KT 9999 BKN035 12/06 Q1009;
0120101624999992007011006504+53417+011783FM-15+0052EDOP V0202101N008710099019N0112651N1+01201+00601999999ADDGA1071+009901999GF107991999999999999999999MA1100911999999REMMET051METAR EDOP 100650Z 21017KT 9999 BKN033 12/06 Q1009;
0120101624999992007011007204+53417+011783FM-15+0052EDOP V0202001N007710090019N0112651N1+01201+00601999999ADDGA1071+009001999GF107991999999999999999999MA1100911999999REMMET051METAR EDOP 100720Z 20015KT 9999 BKN030 12/06 Q1009;
0120101624999992007011007504+53417+011783FM-15+0052EDOP V0202001N008210090019N0112651N1+01101+00601999999ADDGA1071+009001999GF107991999999999999999999MA1100911999999REMMET051METAR EDOP 100750Z 20016KT 9999 BKN030 11/06 Q1009;
0120101624999992007011008504+53417+011783FM-15+0052EDOP V0202001N008710096019N0112651N1+01101+00601999999ADDGA1071+009601999GF107991999999999999999999MA1100911999999REMMET051METAR EDOP 100850Z 20017KT 9999 BKN032 11/06 Q1009;
0131101624999992007011009204+53417+011783FM-15+0052EDOP V0202101N008712200019N0112651N1+01201+00601999999ADDGA1041+011101999GF104991999999999999999999MA1100911999999OC101391REMMET054METAR EDOP 100920Z 21017G27KT 9999 SCT037 12/06 Q1009;
0131101624999992007011009504+53417+011783FM-15+0052EDOP V0202101N009312200019N0112651N1+01201+00701999999ADDGA1041+010501999GF104991999999999999999999MA1100911999999OC101441REMMET054METAR EDOP 100950Z 21018G28KT 9999 SCT035 12/07 Q1009;
0120101624999992007011010204+53417+011783FM-15+0052EDOP V0202001N010310099019N0112651N1+01201+00701999999ADDGA1071+009901999GF107991999999999999999999MA1100911999999REMMET051METAR EDOP 101020Z 20020KT 9999 BKN033 12/07 Q1009;
0131101624999992007011010504+53417+011783FM-15+0052EDOP V0202001N009810099019N0112651N1+01201+00701999999ADDGA1071+009901999GF107991999999999999999999MA1100811999999OC101491REMMET054METAR EDOP 101050Z 20019G29KT 9999 BKN033 12/07 Q1008;
0131101624999992007011011204+53417+011783FM-15+0052EDOP V0202001N009310108019N0112651N1+01201+00701999999ADDGA1071+010801999GF107991999999999999999999MA1100811999999OC101441REMMET054METAR EDOP 101120Z 20018G28KT 9999 BKN036 12/07 Q1008;
0120101624999992007011011504+53417+011783FM-15+0052EDOP V0202001N008710096019N0112651N1+01201+00601999999ADDGA1071+009601999GF107991999999999999999999MA1100811999999REMMET051METAR EDOP 101150Z 20017KT 9999 BKN032 12/06 Q1008;
0120101624999992007011012204+53417+011783FM-15+0052EDOP V0202001N008710096019N0112651N1+01201+00701999999ADDGA1071+009601999GF107991999999999999999999MA1100711999999REMMET051METAR EDOP 101220Z 20017KT 9999 BKN032 12/07 Q1007;
0120101624999992007011012504+53417+011783FM-15+0052EDOP V0202001N008210096019N0112651N1+01301+00701999999ADDGA1071+009601999GF107991999999999999999999MA1100711999999REMMET051METAR EDOP 101250Z 20016KT 9999 BKN032 13/07 Q1007;
0120101624999992007011013204+53417+011783FM-15+0052EDOP V0202001N008710102019N0112651N1+01301+00701999999ADDGA1071+010201999GF107991999999999999999999MA1100711999999REMMET051METAR EDOP 101320Z 20017KT 9999 BKN034 13/07 Q1007;
0120101624999992007011013504+53417+011783FM-15+0052EDOP V0201901N008210108019N0112651N1+01201+00701999999ADDGA1071+010801999GF107991999999999999999999MA1100611999999REMMET051METAR EDOP 101350Z 19016KT 9999 BKN036 12/07 Q1006;
0131101624999992007011014204+53417+011783FM-15+0052EDOP V0202001N007710117019N0112651N1+01301+00701999999ADDGA1071+011701999GF107991999999999999999999MA1100611999999OC101291REMMET054METAR EDOP 101420Z 20015G25KT 9999 BKN039 13/07 Q1006;
0120101624999992007011014504+53417+011783FM-15+0052EDOP V0201901N007710120019N0112651N1+01301+00701999999ADDGA1071+012001999GF107991999999999999999999MA1100611999999REMMET051METAR EDOP 101450Z 19015KT 9999 BKN040 13/07 Q1006;
0143101624999992007011015204+53417+011783FM-15+0052EDOP V0201901N008710120019N0112651N1+01301+00601999999ADDGA1021+006001999GA2071+012001999GF107991999999999999999999MA1100511999999REMMET058METAR EDOP 101520Z 19017KT 9999 FEW020 BKN040 13/06 Q1005;
0131101624999992007011015504+53417+011783FM-15+0052EDOP V0202601N008710120019N0112651N1+01301+00601999999ADDGA1071+012001999GF107991999999999999999999MA1100511999999OC101491REMMET054METAR EDOP 101550Z 26017G29KT 9999 BKN040 13/06 Q1005;
0143101624999992007011016204+53417+011783FM-15+0052EDOP V0202001N008710126019N0112651N1+01301+00601999999ADDGA1021+006601999GA2071+012601999GF107991999999999999999999MA1100411999999REMMET058METAR EDOP 101620Z 20017KT 9999 FEW022 BKN042 13/06 Q1004;
0132101624999992007011016504+53417+011783FM-15+0052EDOP V0201901N008710126019N0112651N1+01301+00501999999ADDGA1071+012601999GF107991999999999999999999MA1100411999999OC101651REMMET055METAR EDOP 101650Z 19017G32KT 9999 BKN042 13/005 Q1004;
0120101624999992007011106204+53417+011783FM-15+0052EDOP V0202401N010810090019N0112651N1+00601+00101999999ADDGA1071+009001999GF107991999999999999999999MA1101021999999REMMET051METAR EDOP 110620Z 24021KT 9999 BKN030 06/01 Q1010;
0120101624999992007011106504+53417+011783FM-15+0052EDOP V0202401N011310093019N0112651N1+00601+00101999999ADDGA1071+009301999GF107991999999999999999999MA1101021999999REMMET051METAR EDOP 110650Z 24022KT 9999 BKN031 06/01 Q1010;
0120101624999992007011107204+53417+011783FM-15+0052EDOP V0202401N009310102019N0112651N1+00601+00101999999ADDGA1071+010201999GF107991999999999999999999MA1101021999999REMMET051METAR EDOP 110720Z 24018KT 9999 BKN034 06/01 Q1010;
0120101624999992007011107504+53417+011783FM-15+0052EDOP V0202201N008710090019N0112651N1+00601+00101999999ADDGA1071+009001999GF107991999999999999999999MA1100911999999REMMET051METAR EDOP 110750Z 22017KT 9999 BKN030 06/01 Q1009;
0120101624999992007011108204+53417+011783FM-15+0052EDOP V0202201N009310135019N0112651N1+00601+00101999999ADDGA1071+013501999GF107991999999999999999999MA1100811999999REMMET051METAR EDOP 110820Z 22018KT 9999 BKN045 06/01 Q1008;
0131101624999992007011108504+53417+011783FM-15+0052EDOP V0202201N010310090019N0112651N1+00601+00001999999ADDGA1071+009001999GF107991999999999999999999MA1100811999999OC101541REMMET054METAR EDOP 110850Z 22020G30KT 9999 BKN030 06/00 Q1008;
0132101624999992007011109204+53417+011783FM-15+0052EDOP V0202201N009810096019N0112651N1+00601+00001999999ADDGA1071+009601999GF107991999999999999999999MA1100711999999OC101491REMMET055METAR EDOP 110920Z 22019G29KT 9999 BKN032 06/M00 Q1007;
0141101624999992007011109504+53417+011783FM-15+0052EDOP V0202201N011310078019N0090001N1+00501+00101999999ADDGA1071+007801999GF107991999999999999999999MA1100611999999MW1611OC101751REMMET058METAR EDOP 110950Z 22022G34KT 9000 -RA BKN026 05/01 Q1006;
0140101624999992007011110204+53417+011783FM-15+0052EDOP V0202101N011310066019N0080001N1+00501+00101999999ADDGA1071+006601999GF107991999999999999999999MA1100511999999MW1631OC101701REMMET057METAR EDOP 111020Z 21022G33KT 8000 RA BKN022 05/01 Q1005;
0140101624999992007011110504+53417+011783FM-15+0052EDOP V0202101N011810066019N0080001N1+00401+00101999999ADDGA1071+006601999GF107991999999999999999999MA1100311999999MW1631OC101701REMMET057METAR EDOP 111050Z 21023G33KT 8000 RA BKN022 04/01 Q1003;
0140101624999992007011111204+53417+011783FM-15+0052EDOP V0202101N012310084019N0090001N1+00501+00101999999ADDGA1071+008401999GF107991999999999999999999MA1100201999999MW1531OC101751REMMET057METAR EDOP 111120Z 21024G34KT 9000 DZ BKN028 05/01 Q1002;
0152101624999992007011111504+53417+011783FM-15+0052EDOP V0202201N012310075019N0070001N1+00501+00001999999ADDGA1041+004501999GA2071+007501999GF107991999999999999999999MA1100101999999MW1631REMMET061METAR EDOP 111150Z 22024KT 7000 RA SCT015 BKN025 05/00 Q1001;
0129101624999992007011112204+53417+011783FM-15+0052EDOP V0202201N011310054019N0080001N1+00401+00101999999ADDGA1071+005401999GF107991999999999999999999MA1100101999999MW1631REMMET054METAR EDOP 111220Z 22022KT 8000 RA BKN018 04/01 Q1001;
0140101624999992007011112504+53417+011783FM-15+0052EDOP V0202101N010810045019N0070001N1+00401+00201999999ADDGA1071+004501999GF107991999999999999999999MA1099901999999MW1631OC101651REMMET057METAR EDOP 111250Z 21021G32KT 7000 RA BKN015 04/02 Q0999;
0129101624999992007011113204+53417+011783FM-15+0052EDOP V0202101N013910048019N0060001N1+00401+00201999999ADDGA1071+004801999GF107991999999999999999999MA1099801999999MW1631REMMET054METAR EDOP 111320Z 21027KT 6000 RA BKN016 04/02 Q0998;
0140101624999992007011113504+53417+011783FM-15+0052EDOP V0202101N010310042019N0060001N1+00401+00201999999ADDGA1071+004201999GF107991999999999999999999MA1099701999999MW1631OC101751REMMET057METAR EDOP 111350Z 21020G34KT 6000 RA BKN014 04/02 Q0997;
0140101624999992007011114204+53417+011783FM-15+0052EDOP V0202101N011810042019N0070001N1+00401+00201999999ADDGA1071+004201999GF107991999999999999999999MA1099591999999MW1631OC101701REMMET057METAR EDOP 111420Z 21023G33KT 7000 RA BKN014 04/02 Q0996;
0140101624999992007011114504+53417+011783FM-15+0052EDOP V0202101N011810036019N0060001N1+00401+00201999999ADDGA1071+003601999GF107991999999999999999999MA1099491999999MW1631OC101901REMMET057METAR EDOP 111450Z 21023G37KT 6000 RA BKN012 04/02 Q0995;
0129101624999992007011115204+53417+011783FM-15+0052EDOP V0202101N011810039019N0070001N1+00501+00301999999ADDGA1071+003901999GF107991999999999999999999MA1099391999999MW1631REMMET054METAR EDOP 111520Z 21023KT 7000 RA BKN013 05/03 Q0994;
0129101624999992007011115504+53417+011783FM-15+0052EDOP V0202101N011310030019N0070001N1+00501+00301999999ADDGA1071+003001999GF107991999999999999999999MA1099391999999MW1631REMMET054METAR EDOP 111550Z 21022KT 7000 RA BKN010 05/03 Q0994;
0140101624999992007011116204+53417+011783FM-15+0052EDOP V0202201N012910030019N0070001N1+00601+00401999999ADDGA1071+003001999GF107991999999999999999999MA1099391999999MW1631OC101801REMMET057METAR EDOP 111620Z 22025G35KT 7000 RA BKN010 06/04 Q0994;
0140101624999992007011116504+53417+011783FM-15+0052EDOP V0202301N013910039019N0070001N1+00601+00501999999ADDGA1071+003901999GF107991999999999999999999MA1099391999999MW1631OC102011REMMET057METAR EDOP 111650Z 23027G39KT 7000 RA BKN013 06/05 Q0994;
0130101624999992007011117204+53417+011783FM-15+0052EDOP V0202301N011310045019N0090001N1+00701+00501999999ADDGA1071+004501999GF107991999999999999999999MA1099291999999MW1611REMMET055METAR EDOP 111720Z 23022KT 9000 -RA BKN015 07/05 Q0993;
0153101624999992007011117504+53417+011783FM-15+0052EDOP V0202401N011310054019N0090001N1+00701+00401999999ADDGA1021+003601999GA2071+005401999GF107991999999999999999999MA1099391999999MW1611REMMET062METAR EDOP 111750Z 24022KT 9000 -RA FEW012 BKN018 07/04 Q0994;
0131101624999992007011206204+53417+011783FM-15+0052EDOP V0202601N010310129019N0112651N1+00801+00001999999ADDGA1071+012901999GF107991999999999999999999MA1100511999999OC101591REMMET054METAR EDOP 120620Z 26020G31KT 9999 BKN043 08/00 Q1005;
0131101624999992007011206504+53417+011783FM-15+0052EDOP V0202601N011310120019N0112651N1+00801+00001999999ADDGA1071+012001999GF107991999999999999999999MA1100511999999OC101801REMMET054METAR EDOP 120650Z 26022G35KT 9999 BKN040 08/00 Q1005;
0143101624999992007011207204+53417+011783FM-15+0052EDOP V0202801N007210093019N0090001N1+00801+00201999999ADDGA1071+009301999GF107991999999999999999999MA1100811999999MW1801OC101951REMMET060METAR EDOP 120720Z 28014G38KT 9000 -SHRA BKN031 08/02 Q1008;
0136101624999992007011207504+53417+011783FM-15+0052EDOP V0202701N009810105019N0112651N1+00801+00201999999ADDGA1071+010501999GF107991999999999999999999MA1101021999999OC101491REMMET059METAR EDOP 120750Z 27019G29KT 9999 BKN035 08/02 Q1010 RERA;
0131101624999992007011208204+53417+011783FM-15+0052EDOP V0202701N008710105019N0112651N1+00801+00201999999ADDGA1071+010501999GF107991999999999999999999MA1101021999999OC101391REMMET054METAR EDOP 120820Z 27017G27KT 9999 BKN035 08/02 Q1010;
0131101624999992007011208504+53417+011783FM-15+0052EDOP V0202801N009310093019N0112651N1+00801+00201999999ADDGA1071+009301999GF107991999999999999999999MA1101081999999OC101441REMMET054METAR EDOP 120850Z 28018G28KT 9999 BKN031 08/02 Q1011;
0131101624999992007011209204+53417+011783FM-15+0052EDOP V0202701N010812200019N0112651N1+00801+00201999999ADDGA1041+012001999GF104991999999999999999999MA1101191999999OC101701REMMET054METAR EDOP 120920Z 27021G33KT 9999 SCT040 08/02 Q1012;
0131101624999992007011209504+53417+011783FM-15+0052EDOP V0202701N010312200019N0112651N1+00801+00301999999ADDGA1041+009901999GF104991999999999999999999MA1101191999999OC101651REMMET054METAR EDOP 120950Z 27020G32KT 9999 SCT033 08/03 Q1012;
0131101624999992007011210204+53417+011783FM-15+0052EDOP V0202701N010312200019N0112651N1+00801+00301999999ADDGA1041+009001999GF104991999999999999999999MA1101291999999OC101541REMMET054METAR EDOP 121020Z 27020G30KT 9999 SCT030 08/03 Q1013;
0131101624999992007011210504+53417+011783FM-15+0052EDOP V0202701N007712200019N0112651N1+00901+00301999999ADDGA1041+009601999GF104991999999999999999999MA1101291999999OC101391REMMET054METAR EDOP 121050Z 27015G27KT 9999 SCT032 09/03 Q1013;
0120101624999992007011211204+53417+011783FM-15+0052EDOP V0202701N009312200019N0112651N1+00801+00301999999ADDGA1041+009901999GF104991999999999999999999MA1101291999999REMMET051METAR EDOP 121120Z 27018KT 9999 SCT033 08/03 Q1013;
0120101624999992007011211504+53417+011783FM-15+0052EDOP V0202601N008712200019N0112651N1+00801+00301999999ADDGA1041+009001999GF104991999999999999999999MA1101291999999REMMET051METAR EDOP 121150Z 26017KT 9999 SCT030 08/03 Q1013;
0120101624999992007011212204+53417+011783FM-15+0052EDOP V0202601N009812200019N0112651N1+00801+00301999999ADDGA1041+008401999GF104991999999999999999999MA1101291999999REMMET051METAR EDOP 121220Z 26019KT 9999 SCT028 08/03 Q1013;
0120101624999992007011212504+53417+011783FM-15+0052EDOP V0202601N009312200019N0112651N1+00801+00301999999ADDGA1041+007801999GF104991999999999999999999MA1101291999999REMMET051METAR EDOP 121250Z 26018KT 9999 SCT026 08/03 Q1013;
0120101624999992007011213204+53417+011783FM-15+0052EDOP V0202601N008710069019N0112651N1+00801+00301999999ADDGA1071+006901999GF107991999999999999999999MA1101291999999REMMET051METAR EDOP 121320Z 26017KT 9999 BKN023 08/03 Q1013;
0120101624999992007011213504+53417+011783FM-15+0052EDOP V0202501N008710075019N0112651N1+00801+00301999999ADDGA1071+007501999GF107991999999999999999999MA1101291999999REMMET051METAR EDOP 121350Z 25017KT 9999 BKN025 08/03 Q1013;
0120101624999992007011214204+53417+011783FM-15+0052EDOP V0202501N009310069019N0112651N1+00801+00301999999ADDGA1071+006901999GF107991999999999999999999MA1101291999999REMMET051METAR EDOP 121420Z 25018KT 9999 BKN023 08/03 Q1013;
0120101624999992007011214504+53417+011783FM-15+0052EDOP V0202401N007710075019N0112651N1+00801+00301999999ADDGA1071+007501999GF107991999999999999999999MA1101291999999REMMET051METAR EDOP 121450Z 24015KT 9999 BKN025 08/03 Q1013;
0120101624999992007011215204+53417+011783FM-15+0052EDOP V0202301N008712200019N0112651N1+00801+00301999999ADDGA1041+009001999GF104991999999999999999999MA1101191999999REMMET051METAR EDOP 121520Z 23017KT 9999 SCT030 08/03 Q1012;
0153101624999992007011215504+53417+011783FM-15+0052EDOP V0202101N007210084019N0080001N1+00701+00301999999ADDGA1021+003001999GA2071+008401999GF107991999999999999999999MA1101191999999MW1611REMMET062METAR EDOP 121550Z 21014KT 8000 -RA FEW010 BKN028 07/03 Q1012;
0130101624999992007011216204+53417+011783FM-15+0052EDOP V0202201N007710084019N0080001N1+00701+00401999999ADDGA1071+008401999GF107991999999999999999999MA1101191999999MW1611REMMET055METAR EDOP 121620Z 22015KT 8000 -RA BKN028 07/04 Q1012;
0120101624999992007011216504+53417+011783FM-15+0052EDOP V0202201N007210069019N0090001N1+00701+00401999999ADDGA1071+006901999GF107991999999999999999999MA1101081999999REMMET051METAR EDOP 121650Z 22014KT 9000 BKN023 07/04 Q1011;
0130101624999992007011217204+53417+011783FM-15+0052EDOP V0202101N008710060019N0080001N1+00701+00401999999ADDGA1071+006001999GF107991999999999999999999MA1101021999999MW1611REMMET055METAR EDOP 121720Z 21017KT 8000 -RA BKN020 07/04 Q1010;
0131101624999992007011301504+53417+011783FM-15+0052EDOP V0202601N012310072019N0112651N1+01201+00801999999ADDGA1071+007201999GF107991999999999999999999MA1100611999999OC101901REMMET054METAR EDOP 130150Z 26024G37KT 9999 BKN024 12/08 Q1006;
0131101624999992007011302204+53417+011783FM-15+0052EDOP V0202601N011810078019N0112651N1+01201+00701999999ADDGA1071+007801999GF107991999999999999999999MA1100711999999OC101751REMMET054METAR EDOP 130220Z 26023G34KT 9999 BKN026 12/07 Q1007;
0131101624999992007011302504+53417+011783FM-15+0052EDOP V0202701N011310096019N0112651N1+01201+00601999999ADDGA1071+009601999GF107991999999999999999999MA1100711999999OC101651REMMET054METAR EDOP 130250Z 27022G32KT 9999 BKN032 12/06 Q1007;
0154101624999992007011303204+53417+011783FM-15+0052EDOP V0202701N009810090019N0112651N1+01201+00701999999ADDGA1021+003601999GA2071+009001999GF107991999999999999999999MA1100811999999OC101541REMMET061METAR EDOP 130320Z 27019G30KT 9999 FEW012 BKN030 12/07 Q1008;
0154101624999992007011303504+53417+011783FM-15+0052EDOP V0202701N008210090019N0112651N1+01101+00701999999ADDGA1021+004201999GA2071+009001999GF107991999999999999999999MA1100811999999OC101541REMMET061METAR EDOP 130350Z 27016G30KT 9999 FEW014 BKN030 11/07 Q1008;
0143101624999992007011304204+53417+011783FM-15+0052EDOP V0202701N008210090019N0112651N1+01101+00701999999ADDGA1021+004201999GA2071+009001999GF107991999999999999999999MA1100811999999REMMET058METAR EDOP 130420Z 27016KT 9999 FEW014 BKN030 11/07 Q1008;
0154101624999992007011304504+53417+011783FM-15+0052EDOP V0202701N010310090019N0112651N1+01201+00601999999ADDGA1021+004201999GA2071+009001999GF107991999999999999999999MA1100911999999OC101591REMMET061METAR EDOP 130450Z 27020G31KT 9999 FEW014 BKN030 12/06 Q1009;
0131101624999992007011305204+53417+011783FM-15+0052EDOP V0202701N010810096019N0112651N1+01101+00501999999ADDGA1071+009601999GF107991999999999999999999MA1100911999999OC101851REMMET054METAR EDOP 130520Z 27021G36KT 9999 BKN032 11/05 Q1009;
0131101624999992007011305504+53417+011783FM-15+0052EDOP V0202801N010810096019N0112651N1+01101+00401999999ADDGA1071+009601999GF107991999999999999999999MA1101021999999OC101591REMMET054METAR EDOP 130550Z 28021G31KT 9999 BKN032 11/04 Q1010;
0131101624999992007011306204+53417+011783FM-15+0052EDOP V0202701N009810144019N0112651N1+01101+00401999999ADDGA1071+014401999GF107991999999999999999999MA1101021999999OC101491REMMET054METAR EDOP 130620Z 27019G29KT 9999 BKN048 11/04 Q1010;
0131101624999992007011306504+53417+011783FM-15+0052EDOP V0202701N014410105019N0112651N1+01101+00401999999ADDGA1071+010501999GF107991999999999999999999MA1101081999999OC101951REMMET054METAR EDOP 130650Z 27028G38KT 9999 BKN035 11/04 Q1011;
0131101624999992007011307204+53417+011783FM-15+0052EDOP V0202701N012910096019N0112651N1+01101+00401999999ADDGA1071+009601999GF107991999999999999999999MA1101081999999OC101901REMMET054METAR EDOP 130720Z 27025G37KT 9999 BKN032 11/04 Q1011;
0131101624999992007011307504+53417+011783FM-15+0052EDOP V0202701N011310135019N0112651N1+01001+00401999999ADDGA1071+013501999GF107991999999999999999999MA1101191999999OC101701REMMET054METAR EDOP 130750Z 27022G33KT 9999 BKN045 10/04 Q1012;
0131101624999992007011308204+53417+011783FM-15+0052EDOP V0202701N009810093019N0112651N1+01001+00401999999ADDGA1071+009301999GF107991999999999999999999MA1101191999999OC101491REMMET054METAR EDOP 130820Z 27019G29KT 9999 BKN031 10/04 Q1012;
0131101624999992007011308504+53417+011783FM-15+0052EDOP V0202701N009310090019N0112651N1+01001+00401999999ADDGA1071+009001999GF107991999999999999999999MA1101191999999OC101441REMMET054METAR EDOP 130850Z 27018G28KT 9999 BKN030 10/04 Q1012;
0131101624999992007011309204+53417+011783FM-15+0052EDOP V0202801N010310105019N0112651N1+01001+00401999999ADDGA1071+010501999GF107991999999999999999999MA1101291999999OC101541REMMET054METAR EDOP 130920Z 28020G30KT 9999 BKN035 10/04 Q1013;
0131101624999992007011309504+53417+011783FM-15+0052EDOP V0202701N009310120019N0112651N1+01001+00401999999ADDGA1071+012001999GF107991999999999999999999MA1101291999999OC101851REMMET054METAR EDOP 130950Z 27018G36KT 9999 BKN040 10/04 Q1013;
0131101624999992007011310204+53417+011783FM-15+0052EDOP V0202801N009810120019N0112651N1+01001+00401999999ADDGA1071+012001999GF107991999999999999999999MA1101391999999OC101491REMMET054METAR EDOP 131020Z 28019G29KT 9999 BKN040 10/04 Q1014;
0131101624999992007011310504+53417+011783FM-15+0052EDOP V0202701N009810105019N0112651N1+01001+00401999999ADDGA1071+010501999GF107991999999999999999999MA1101391999999OC101491REMMET054METAR EDOP 131050Z 27019G29KT 9999 BKN035 10/04 Q1014;
0131101624999992007011311204+53417+011783FM-15+0052EDOP V0202701N008212200019N0112651N1+01101+00401999999ADDGA1041+009001999GF104991999999999999999999MA1101391999999OC101341REMMET054METAR EDOP 131120Z 27016G26KT 9999 SCT030 11/04 Q1014;
0131101624999992007011311504+53417+011783FM-15+0052EDOP V0202601N007212200019N0112651N1+01001+00401999999ADDGA1041+009001999GF104991999999999999999999MA1101391999999OC101081REMMET054METAR EDOP 131150Z 26014G21KT 9999 SCT030 10/04 Q1014;
0131101624999992007011312204+53417+011783FM-15+0052EDOP V0202601N009312200019N0112651N1+01101+00401999999ADDGA1041+009001999GF104991999999999999999999MA1101391999999OC101441REMMET054METAR EDOP 131220Z 26018G28KT 9999 SCT030 11/04 Q1014;
0131101624999992007011313204+53417+011783FM-15+0052EDOP V0202701N007712200019N0112651N1+01001+00401999999ADDGA1041+009001999GF104991999999999999999999MA1101491999999OC101291REMMET054METAR EDOP 131320Z 27015G25KT 9999 SCT030 10/04 Q1015;
0120101624999992007011313504+53417+011783FM-15+0052EDOP V0202601N006712200019N0112651N1+01001+00401999999ADDGA1041+009001999GF104991999999999999999999MA1101591999999REMMET051METAR EDOP 131350Z 26013KT 9999 SCT030 10/04 Q1016;
0120101624999992007011314204+53417+011783FM-15+0052EDOP V0202601N007712200019N0112651N1+00901+00301999999ADDGA1021+009001999GF102991999999999999999999MA1101591999999REMMET051METAR EDOP 131420Z 26015KT 9999 FEW030 09/03 Q1016;
0120101624999992007011314504+53417+011783FM-15+0052EDOP V0202601N007212200019N0112651N1+00901+00301999999ADDGA1021+009001999GF102991999999999999999999MA1101591999999REMMET051METAR EDOP 131450Z 26014KT 9999 FEW030 09/03 Q1016;
0120101624999992007011315204+53417+011783FM-15+0052EDOP V0202601N007712200019N0112651N1+00901+00301999999ADDGA1021+009001999GF102991999999999999999999MA1101591999999REMMET051METAR EDOP 131520Z 26015KT 9999 FEW030 09/03 Q1016;
0120101624999992007011315504+53417+011783FM-15+0052EDOP V0202601N007212200019N0112651N1+00901+00801999999ADDGA1041+009001999GF104991999999999999999999MA1101591999999REMMET051METAR EDOP 131550Z 26014KT 9999 SCT030 09/08 Q1016;
0120101624999992007011316504+53417+011783FM-15+0052EDOP V0202201N002612200019N0112651N1+00801+00401999999ADDGA1041+009001999GF104991999999999999999999MA1101591999999REMMET051METAR EDOP 131650Z 22005KT 9999 SCT030 08/04 Q1016;
0120101624999992007011406204+53417+011783FM-15+0052EDOP V0202601N009812200019N0112651N1+00801+00201999999ADDGA1041+009601999GF104991999999999999999999MA1101191999999REMMET051METAR EDOP 140620Z 26019KT 9999 SCT032 08/02 Q1012;
0120101624999992007011406504+53417+011783FM-15+0052EDOP V0202601N009810096019N0112651N1+00801+00101999999ADDGA1071+009601999GF107991999999999999999999MA1101191999999REMMET051METAR EDOP 140650Z 26019KT 9999 BKN032 08/01 Q1012;
0131101624999992007011407204+53417+011783FM-15+0052EDOP V0202601N011810114019N0112651N1+00801+00101999999ADDGA1071+011401999GF107991999999999999999999MA1101291999999OC101901REMMET054METAR EDOP 140720Z 26023G37KT 9999 BKN038 08/01 Q1013;
0131101624999992007011407504+53417+011783FM-15+0052EDOP V0202601N012310111019N0112651N1+00801+00101999999ADDGA1071+011101999GF107991999999999999999999MA1101391999999OC101851REMMET054METAR EDOP 140750Z 26024G36KT 9999 BKN037 08/01 Q1014;
0131101624999992007011408204+53417+011783FM-15+0052EDOP V0202601N012910096019N0112651N1+00701+00101999999ADDGA1071+009601999GF107991999999999999999999MA1101391999999OC101901REMMET054METAR EDOP 140820Z 26025G37KT 9999 BKN032 07/01 Q1014;
0131101624999992007011408504+53417+011783FM-15+0052EDOP V0202601N012910111019N0112651N1+00701+00101999999ADDGA1071+011101999GF107991999999999999999999MA1101491999999OC101801REMMET054METAR EDOP 140850Z 26025G35KT 9999 BKN037 07/01 Q1015;
0131101624999992007011409204+53417+011783FM-15+0052EDOP V0202601N009810111019N0112651N1+00701+00101999999ADDGA1071+011101999GF107991999999999999999999MA1101591999999OC101591REMMET054METAR EDOP 140920Z 26019G31KT 9999 BKN037 07/01 Q1016;
0131101624999992007011409504+53417+011783FM-15+0052EDOP V0202601N010310120019N0112651N1+00801+00201999999ADDGA1071+012001999GF107991999999999999999999MA1101591999999OC101541REMMET054METAR EDOP 140950Z 26020G30KT 9999 BKN040 08/02 Q1016;
0131101624999992007011410204+53417+011783FM-15+0052EDOP V0202601N012310090019N0112651N1+00601+00201999999ADDGA1071+009001999GF107991999999999999999999MA1101691999999OC101901REMMET054METAR EDOP 141020Z 26024G37KT 9999 BKN030 06/02 Q1017;
0131101624999992007011410504+53417+011783FM-15+0052EDOP V0202501N010812200019N0112651N1+00801+00201999999ADDGA1041+010501999GF104991999999999999999999MA1101801999999OC101751REMMET054METAR EDOP 141050Z 25021G34KT 9999 SCT035 08/02 Q1018;
0131101624999992007011411204+53417+011783FM-15+0052EDOP V0202601N012312200019N0112651N1+00801+00101999999ADDGA1041+010501999GF104991999999999999999999MA1101801999999OC102011REMMET054METAR EDOP 141120Z 26024G39KT 9999 SCT035 08/01 Q1018;
0131101624999992007011411504+53417+011783FM-15+0052EDOP V0202601N011810105019N0112651N1+00801+00101999999ADDGA1071+010501999GF107991999999999999999999MA1101801999999OC101801REMMET054METAR EDOP 141150Z 26023G35KT 9999 BKN035 08/01 Q1018;
0120101624999992007011412204+53417+011783FM-15+0052EDOP V0202701N011810111019N0112651N1+00801+00101999999ADDGA1071+011101999GF107991999999999999999999MA1101901999999REMMET051METAR EDOP 141220Z 27023KT 9999 BKN037 08/01 Q1019;
0131101624999992007011412504+53417+011783FM-15+0052EDOP V0202601N009812200019N0112651N1+00801+00001999999ADDGA1041+011101999GF104991999999999999999999MA1101901999999OC101491REMMET054METAR EDOP 141250Z 26019G29KT 9999 SCT037 08/00 Q1019;
0131101624999992007011413204+53417+011783FM-15+0052EDOP V0202601N011312200019N0112651N1+00801+00001999999ADDGA1041+012001999GF104991999999999999999999MA1102001999999OC101701REMMET054METAR EDOP 141320Z 26022G33KT 9999 SCT040 08/00 Q1020;
0132101624999992007011414204+53417+011783FM-15+0052EDOP V0202601N012312200019N0112651N1+00801+00001999999ADDGA1041+010501999GF104991999999999999999999MA1102101999999OC101851REMMET055METAR EDOP 141420Z 26024G36KT 9999 SCT035 08/M00 Q1021;
0132101624999992007011414504+53417+011783FM-15+0052EDOP V0202601N011312200019N0112651N1+00701+00001999999ADDGA1041+012601999GF104991999999999999999999MA1102101999999OC101701REMMET055METAR EDOP 141450Z 26022G33KT 9999 SCT042 07/M00 Q1021;
0131101624999992007011415204+53417+011783FM-15+0052EDOP V0202601N010812200019N0112651N1+00701+00001999999ADDGA1021+010501999GF102991999999999999999999MA1102101999999OC101651REMMET054METAR EDOP 141520Z 26021G32KT 9999 FEW035 07/00 Q1021;
0073101624999992007011415504+53417+011783FM-15+0052EDOP V0202501N01031999999CN0099001N1+00601+00001999999ADDMA1102101999999REMMET046METAR EDOP 141550Z 25020KT CAVOK 06/M00 Q1021;
0072101624999992007011416204+53417+011783FM-15+0052EDOP V0202501N00981999999CN0099001N1+00601+00001999999ADDMA1102201999999REMMET045METAR EDOP 141620Z 25019KT CAVOK 06/00 Q1022;
0072101624999992007011416504+53417+011783FM-15+0052EDOP V0202401N01031999999CN0099001N1+00601+00001999999ADDMA1102201999999REMMET045METAR EDOP 141650Z 24020KT CAVOK 06/00 Q1022;
0120101624999992007011506204+53417+011783FM-15+0052EDOP V0202201N004112200019N0112651N1+00301+00101999999ADDGA1021+003601999GF102991999999999999999999MA1102511999999REMMET051METAR EDOP 150620Z 22008KT 9999 FEW012 03/01 Q1025;
0120101624999992007011506504+53417+011783FM-15+0052EDOP V0202301N005112200019N0112651N1+00301+00101999999ADDGA1021+003601999GF102991999999999999999999MA1102511999999REMMET051METAR EDOP 150650Z 23010KT 9999 FEW012 03/01 Q1025;
0120101624999992007011507204+53417+011783FM-15+0052EDOP V0202401N004612200019N0112651N1+00301+00101999999ADDGA1021+003601999GF102991999999999999999999MA1102511999999REMMET051METAR EDOP 150720Z 24009KT 9999 FEW012 03/01 Q1025;
0072101624999992007011507504+53417+011783FM-15+0052EDOP V0202201N00621999999CN0099001N1+00301+00101999999ADDMA1102401999999REMMET045METAR EDOP 150750Z 22012KT CAVOK 03/01 Q1024;
0072101624999992007011508204+53417+011783FM-15+0052EDOP V0202201N00571999999CN0099001N1+00301+00101999999ADDMA1102401999999REMMET045METAR EDOP 150820Z 22011KT CAVOK 03/01 Q1024;
0120101624999992007011508504+53417+011783FM-15+0052EDOP V0202301N005112200019N0112651N1+00301+00101999999ADDGA1021+003601999GF102991999999999999999999MA1102511999999REMMET051METAR EDOP 150850Z 23010KT 9999 FEW012 03/01 Q1025;
0120101624999992007011509204+53417+011783FM-15+0052EDOP V0202201N004612200019N0112651N1+00401+00201999999ADDGA1041+003001999GF104991999999999999999999MA1102511999999REMMET051METAR EDOP 150920Z 22009KT 9999 SCT010 04/02 Q1025;
0120101624999992007011509504+53417+011783FM-15+0052EDOP V0202201N004112200019N0112651N1+00401+00201999999ADDGA1041+003001999GF104991999999999999999999MA1102511999999REMMET051METAR EDOP 150950Z 22008KT 9999 SCT010 04/02 Q1025;
0120101624999992007011510204+53417+011783FM-15+0052EDOP V0202101N004612200019N0090001N1+00401+00201999999ADDGA1041+003001999GF104991999999999999999999MA1102511999999REMMET051METAR EDOP 151020Z 21009KT 9000 SCT010 04/02 Q1025;
0120101624999992007011510504+53417+011783FM-15+0052EDOP V0202201N006210030019N0090001N1+00501+00301999999ADDGA1071+003001999GF107991999999999999999999MA1102401999999REMMET051METAR EDOP 151050Z 22012KT 9000 BKN010 05/03 Q1024;
0120101624999992007011511204+53417+011783FM-15+0052EDOP V0202201N006210030019N0080001N1+00501+00301999999ADDGA1071+003001999GF107991999999999999999999MA1102401999999REMMET051METAR EDOP 151120Z 22012KT 8000 BKN010 05/03 Q1024;
0120101624999992007011511504+53417+011783FM-15+0052EDOP V0202301N007210045019N0090001N1+00601+00301999999ADDGA1071+004501999GF107991999999999999999999MA1102401999999REMMET051METAR EDOP 151150Z 23014KT 9000 BKN015 06/03 Q1024;
0120101624999992007011512204+53417+011783FM-15+0052EDOP V0202301N007710048019N0090001N1+00601+00301999999ADDGA1071+004801999GF107991999999999999999999MA1102401999999REMMET051METAR EDOP 151220Z 23015KT 9000 BKN016 06/03 Q1024;
0120101624999992007011513204+53417+011783FM-15+0052EDOP V0202301N007210060019N0090001N1+00601+00301999999ADDGA1071+006001999GF107991999999999999999999MA1102301999999REMMET051METAR EDOP 151320Z 23014KT 9000 BKN020 06/03 Q1023;
0120101624999992007011513504+53417+011783FM-15+0052EDOP V0202301N005710060019N0112651N1+00701+00301999999ADDGA1071+006001999GF107991999999999999999999MA1102301999999REMMET051METAR EDOP 151350Z 23011KT 9999 BKN020 07/03 Q1023;
0120101624999992007011514204+53417+011783FM-15+0052EDOP V0202201N005110063019N0112651N1+00701+00301999999ADDGA1071+006301999GF107991999999999999999999MA1102201999999REMMET051METAR EDOP 151420Z 22010KT 9999 BKN021 07/03 Q1022;
0120101624999992007011514504+53417+011783FM-15+0052EDOP V0202301N005712200019N0112651N1+00601+00301999999ADDGA1041+007501999GF104991999999999999999999MA1102201999999REMMET051METAR EDOP 151450Z 23011KT 9999 SCT025 06/03 Q1022;
0120101624999992007011515204+53417+011783FM-15+0052EDOP V0202301N004612200019N0112651N1+00601+00301999999ADDGA1041+008401999GF104991999999999999999999MA1102201999999REMMET051METAR EDOP 151520Z 23009KT 9999 SCT028 06/03 Q1022;
0120101624999992007011515504+53417+011783FM-15+0052EDOP V0202301N005112200019N0112651N1+00501+00201999999ADDGA1021+009001999GF102991999999999999999999MA1102201999999REMMET051METAR EDOP 151550Z 23010KT 9999 FEW030 05/02 Q1022;
0120101624999992007011516204+53417+011783FM-15+0052EDOP V0202401N004112200019N0112651N1+00501+00201999999ADDGA1021+010501999GF102991999999999999999999MA1102201999999REMMET051METAR EDOP 151620Z 24008KT 9999 FEW035 05/02 Q1022;
0120101624999992007011516504+53417+011783FM-15+0052EDOP V0202301N005712200019N0112651N1+00501+00201999999ADDGA1021+008101999GF102991999999999999999999MA1102201999999REMMET051METAR EDOP 151650Z 23011KT 9999 FEW027 05/02 Q1022;
0144101624999992007011606204+53417+011783FM-15+0052EDOP V0202401N005112200019N0112651N1+00201-00101999999ADDGA1021+012001999GA2041+018001999GF104991999999999999999999MA1101591999999REMMET059METAR EDOP 160620Z 24010KT 9999 FEW040 SCT065 02/M01 Q1016;
0144101624999992007011606504+53417+011783FM-15+0052EDOP V0202401N005710180019N0112651N1+00201-00101999999ADDGA1041+009001999GA2071+018001999GF107991999999999999999999MA1101591999999REMMET059METAR EDOP 160650Z 24011KT 9999 SCT030 BKN065 02/M01 Q1016;
0121101624999992007011607204+53417+011783FM-15+0052EDOP V0202401N005710084019N0112651N1+00301+00001999999ADDGA1071+008401999GF107991999999999999999999MA1101591999999REMMET052METAR EDOP 160720Z 24011KT 9999 BKN028 03/M00 Q1016;
0143101624999992007011607504+53417+011783FM-15+0052EDOP V0202401N005710084019N0090001N1+00301+00001999999ADDGA1041+004801999GA2071+008401999GF107991999999999999999999MA1101591999999REMMET058METAR EDOP 160750Z 24011KT 9000 SCT016 BKN028 03/00 Q1016;
0120101624999992007011608204+53417+011783FM-15+0052EDOP V0202301N005710045019N0090001N1+00401+00101999999ADDGA1071+004501999GF107991999999999999999999MA1101591999999REMMET051METAR EDOP 160820Z 23011KT 9000 BKN015 04/01 Q1016;
0121101624999992007011608504+53417+011783FM-15+0052EDOP V0202301N006210045019N0080001N1+00401+00101999999ADDGA1071+004501999GF107991999999999999999999MA1101591999999REMMET052METAR EDOP 160850Z 23012KT 8000 BKN015 04/01 Q1016/;
0120101624999992007011609204+53417+011783FM-15+0052EDOP V0202301N006210045019N0080001N1+00401+00101999999ADDGA1071+004501999GF107991999999999999999999MA1101591999999REMMET051METAR EDOP 160920Z 23012KT 8000 BKN015 04/01 Q1016;
0130101624999992007011609504+53417+011783FM-15+0052EDOP V0202301N006210039019N0070001N1+00401+00201999999ADDGA1071+003901999GF107991999999999999999999MA1101691999999MW1511REMMET055METAR EDOP 160950Z 23012KT 7000 -DZ BKN013 04/02 Q1017;
0139101624999992007011610204+53417+011783FM-15+0052EDOP V0202301N007210030019N0050001N1+00501+00301999999ADDGA1071+003001999GF107991999999999999999999MA1101691999999MW1101MW2511REMMET058METAR EDOP 161020Z 23014KT 5000 -DZ BR BKN010 05/03 Q1017;
0139101624999992007011610504+53417+011783FM-15+0052EDOP V0202301N006710024019N0045001N1+00501+00301999999ADDGA1071+002401999GF107991999999999999999999MA1101691999999MW1101MW2511REMMET058METAR EDOP 161050Z 23013KT 4500 -DZ BR BKN008 05/03 Q1017;
0129101624999992007011611504+53417+011783FM-15+0052EDOP V0202401N005710021019N0045001N1+00601+00401999999ADDGA1071+002101999GF107991999999999999999999MA1101691999999MW1101REMMET054METAR EDOP 161150Z 24011KT 4500 BR BKN007 06/04 Q1017;
0129101624999992007011612204+53417+011783FM-15+0052EDOP V0202301N006710018019N0045001N1+00601+00401999999ADDGA1071+001801999GF107991999999999999999999MA1101691999999MW1101REMMET054METAR EDOP 161220Z 23013KT 4500 BR BKN006 06/04 Q1017;
0129101624999992007011612504+53417+011783FM-15+0052EDOP V0202301N006210018019N0040001N1+00601+00501999999ADDGA1071+001801999GF107991999999999999999999MA1101691999999MW1101REMMET054METAR EDOP 161250Z 23012KT 4000 BR BKN006 06/05 Q1017;
0129101624999992007011613204+53417+011783FM-15+0052EDOP V0202301N006210024019N0040001N1+00601+00501999999ADDGA1071+002401999GF107991999999999999999999MA1101691999999MW1101REMMET054METAR EDOP 161320Z 23012KT 4000 BR BKN008 06/05 Q1017;
0129101624999992007011613504+53417+011783FM-15+0052EDOP V0202301N006210021019N0040001N1+00601+00501999999ADDGA1071+002101999GF107991999999999999999999MA1101691999999MW1101REMMET054METAR EDOP 161350Z 23012KT 4000 BR BKN007 06/05 Q1017;
0129101624999992007011614204+53417+011783FM-15+0052EDOP V0202301N005710021019N0040001N1+00701+00501999999ADDGA1071+002101999GF107991999999999999999999MA1101691999999MW1101REMMET054METAR EDOP 161420Z 23011KT 4000 BR BKN007 07/05 Q1017;
0129101624999992007011614504+53417+011783FM-15+0052EDOP V0202201N005110021019N0040001N1+00701+00501999999ADDGA1071+002101999GF107991999999999999999999MA1101691999999MW1101REMMET054METAR EDOP 161450Z 22010KT 4000 BR BKN007 07/05 Q1017;
0129101624999992007011615204+53417+011783FM-15+0052EDOP V0202101N005710027019N0040001N1+00701+00501999999ADDGA1071+002701999GF107991999999999999999999MA1101691999999MW1101REMMET054METAR EDOP 161520Z 21011KT 4000 BR BKN009 07/05 Q1017;
0129101624999992007011615504+53417+011783FM-15+0052EDOP V0202001N005710015019N0040001N1+00601+00501999999ADDGA1071+001501999GF107991999999999999999999MA1101691999999MW1101REMMET054METAR EDOP 161550Z 20011KT 4000 BR BKN005 06/05 Q1017;
0129101624999992007011616204+53417+011783FM-15+0052EDOP V0202001N005110015019N0035001N1+00601+00501999999ADDGA1071+001501999GF107991999999999999999999MA1101591999999MW1101REMMET054METAR EDOP 161620Z 20010KT 3500 BR BKN005 06/05 Q1016;
0129101624999992007011616504+53417+011783FM-15+0052EDOP V0202101N004610018019N0035001N1+00701+00601999999ADDGA1071+001801999GF107991999999999999999999MA1101591999999MW1101REMMET054METAR EDOP 161650Z 21009KT 3500 BR BKN006 07/06 Q1016;
0120101624999992007011706204+53417+011783FM-15+0052EDOP V0202001N005110060019N0112651N1+00601+00501999999ADDGA1071+006001999GF107991999999999999999999MA1101291999999REMMET051METAR EDOP 170620Z 20010KT 9999 BKN020 06/05 Q1013;
0155101624999992007011706504+53417+011783FM-15+0052EDOP V0202001N006710060019N0080001N1+00601+00501999999ADDGA1021+003001999GA2071+006001999GF107991999999999999999999MA1101191999999MW1801REMMET064METAR EDOP 170650Z 20013KT 8000 -SHRA FEW010 BKN020 06/05 Q1012;
0130101624999992007011707204+53417+011783FM-15+0052EDOP V0201901N006210042019N0070001N1+00601+00501999999ADDGA1071+004201999GF107991999999999999999999MA1101191999999MW1611REMMET055METAR EDOP 170720Z 19012KT 7000 -RA BKN014 06/05 Q1012;
0120101624999992007011707504+53417+011783FM-15+0052EDOP V0202001N006210039019N0060001N1+00601+00501999999ADDGA1071+003901999GF107991999999999999999999MA1101191999999REMMET051METAR EDOP 170750Z 20012KT 6000 BKN013 06/05 Q1012;
0120101624999992007011708204+53417+011783FM-15+0052EDOP V0202001N006710036019N0060001N1+00701+00501999999ADDGA1071+003601999GF107991999999999999999999MA1101191999999REMMET051METAR EDOP 170820Z 20013KT 6000 BKN012 07/05 Q1012;
0129101624999992007011708504+53417+011783FM-15+0052EDOP V0202101N006710027019N0050001N1+00701+00501999999ADDGA1071+002701999GF107991999999999999999999MA1101191999999MW1101REMMET054METAR EDOP 170850Z 21013KT 5000 BR BKN009 07/05 Q1012;
0120101624999992007011709204+53417+011783FM-15+0052EDOP V0202101N006210045019N0060001N1+00701+00601999999ADDGA1071+004501999GF107991999999999999999999MA1101191999999REMMET051METAR EDOP 170920Z 21012KT 6000 BKN015 07/06 Q1012;
0143101624999992007011709504+53417+011783FM-15+0052EDOP V0202001N006210051019N0060001N1+00801+00601999999ADDGA1021+003001999GA2071+005101999GF107991999999999999999999MA1101191999999REMMET058METAR EDOP 170950Z 20012KT 6000 FEW010 BKN017 08/06 Q1012;
0120101624999992007011710204+53417+011783FM-15+0052EDOP V0202001N006210042019N0060001N1+00801+00601999999ADDGA1071+004201999GF107991999999999999999999MA1101191999999REMMET051METAR EDOP 171020Z 20012KT 6000 BKN014 08/06 Q1012;
0120101624999992007011710504+53417+011783FM-15+0052EDOP V0202001N006710039019N0060001N1+00801+00601999999ADDGA1071+003901999GF107991999999999999999999MA1101081999999REMMET051METAR EDOP 171050Z 20013KT 6000 BKN013 08/06 Q1011;
0120101624999992007011711204+53417+011783FM-15+0052EDOP V0202001N006710060019N0070001N1+00801+00601999999ADDGA1071+006001999GF107991999999999999999999MA1101081999999REMMET051METAR EDOP 171120Z 20013KT 7000 BKN020 08/06 Q1011;
0120101624999992007011711504+53417+011783FM-15+0052EDOP V0202001N006210051019N0070001N1+00901+00601999999ADDGA1071+005101999GF107991999999999999999999MA1101081999999REMMET051METAR EDOP 171150Z 20012KT 7000 BKN017 09/06 Q1011;
0120101624999992007011712204+53417+011783FM-15+0052EDOP V0202001N007210066019N0080001N1+00901+00601999999ADDGA1071+006601999GF107991999999999999999999MA1101021999999REMMET051METAR EDOP 171220Z 20014KT 8000 BKN022 09/06 Q1010;
0120101624999992007011712504+53417+011783FM-15+0052EDOP V0202001N006710084019N0080001N1+00901+00601999999ADDGA1071+008401999GF107991999999999999999999MA1101021999999REMMET051METAR EDOP 171250Z 20013KT 8000 BKN028 09/06 Q1010;
0120101624999992007011713204+53417+011783FM-15+0052EDOP V0202001N007210063019N0112651N1+00901+00601999999ADDGA1071+006301999GF107991999999999999999999MA1100911999999REMMET051METAR EDOP 171320Z 20014KT 9999 BKN021 09/06 Q1009;
0120101624999992007011713504+53417+011783FM-15+0052EDOP V0202001N006210075019N0112651N1+00901+00601999999ADDGA1071+007501999GF107991999999999999999999MA1100811999999REMMET051METAR EDOP 171350Z 20012KT 9999 BKN025 09/06 Q1008;
0120101624999992007011714204+53417+011783FM-15+0052EDOP V0201901N008210093019N0112651N1+01001+00601999999ADDGA1071+009301999GF107991999999999999999999MA1100811999999REMMET051METAR EDOP 171420Z 19016KT 9999 BKN031 10/06 Q1008;
0120101624999992007011714504+53417+011783FM-15+0052EDOP V0202001N008210099019N0112651N1+01001+00601999999ADDGA1071+009901999GF107991999999999999999999MA1100711999999REMMET051METAR EDOP 171450Z 20016KT 9999 BKN033 10/06 Q1007;
0131101624999992007011715204+53417+011783FM-15+0052EDOP V0201901N007210108019N0112651N1+01001+00501999999ADDGA1071+010801999GF107991999999999999999999MA1100611999999OC101231REMMET054METAR EDOP 171520Z 19014G24KT 9999 BKN036 10/05 Q1006;
0131101624999992007011715504+53417+011783FM-15+0052EDOP V0202001N007210084019N0112651N1+01001+00501999999ADDGA1071+008401999GF107991999999999999999999MA1100611999999OC101231REMMET054METAR EDOP 171550Z 20014G24KT 9999 BKN028 10/05 Q1006;
0131101624999992007011716204+53417+011783FM-15+0052EDOP V0201901N007710147019N0112651N1+01001+00501999999ADDGA1071+014701999GF107991999999999999999999MA1100511999999OC101291REMMET054METAR EDOP 171620Z 19015G25KT 9999 BKN049 10/05 Q1005;
0131101624999992007011716504+53417+011783FM-15+0052EDOP V0201901N008710147019N0112651N1+01001+00501999999ADDGA1071+014701999GF107991999999999999999999MA1100511999999OC101391REMMET054METAR EDOP 171650Z 19017G27KT 9999 BKN049 10/05 Q1005;
0130101624999992007011806204+53417+011783FM-15+0052EDOP V0202201N007710036019N0070001N1+00601+00201999999ADDGA1071+003601999GF107991999999999999999999MA1099801999999MW1511REMMET055METAR EDOP 180620Z 22015KT 7000 -DZ BKN012 06/02 Q0998;
0130101624999992007011806504+53417+011783FM-15+0052EDOP V0202101N004610054019N0080001N1+00501+00201999999ADDGA1071+005401999GF107991999999999999999999MA1099591999999MW1511REMMET055METAR EDOP 180650Z 21009KT 8000 -DZ BKN018 05/02 Q0996;
0130101624999992007011807204+53417+011783FM-15+0052EDOP V0202001N003610045019N0080001N1+00501+00301999999ADDGA1071+004501999GF107991999999999999999999MA1099591999999MW1511REMMET055METAR EDOP 180720Z 20007KT 8000 -DZ BKN015 05/03 Q0996;
0120101624999992007011807504+53417+011783FM-15+0052EDOP V0202001N003610057019N0090001N1+00501+00301999999ADDGA1071+005701999GF107991999999999999999999MA1099491999999REMMET051METAR EDOP 180750Z 20007KT 9000 BKN019 05/03 Q0995;
0130101624999992007011808204+53417+011783FM-15+0052EDOP V0201801N004110066019N0070001N1+00501+00401999999ADDGA1071+006601999GF107991999999999999999999MA1099291999999MW1511REMMET055METAR EDOP 180820Z 18008KT 7000 -DZ BKN022 05/04 Q0993;
0130101624999992007011808504+53417+011783FM-15+0052EDOP V0201801N003610060019N0070001N1+00501+00401999999ADDGA1071+006001999GF107991999999999999999999MA1099191999999MW1511REMMET055METAR EDOP 180850Z 18007KT 7000 -DZ BKN020 05/04 Q0992;
0160101624999992007011809204+53417+011783FM-15+0052EDOP V0201801N005110045019N0060001N1+00501+00401999999ADDGA1041+001501999GA2071+004501999GF107991999999999999999999MA1099091999999MW1531MW2631REMMET063METAR EDOP 180920Z 18010KT 6000 RADZ SCT005 BKN015 05/04 Q0991;
0129101624999992007011809504+53417+011783FM-15+0052EDOP V0201701N005110018019N0070001N1+00601+00501999999ADDGA1071+001801999GF107991999999999999999999MA1098981999999MW1631REMMET054METAR EDOP 180950Z 17010KT 7000 RA BKN006 06/05 Q0990;
0120101624999992007011810204+53417+011783FM-15+0052EDOP V0201801N005110015019N0060001N1+00601+00501999999ADDGA1071+001501999GF107991999999999999999999MA1098821999999REMMET051METAR EDOP 181020Z 18010KT 6000 BKN005 06/05 Q0988;
0129101624999992007011810504+53417+011783FM-15+0052EDOP V0201801N006210015019N0060001N1+00601+00601999999ADDGA1071+001501999GF107991999999999999999999MA1098611999999MW1631REMMET054METAR EDOP 181050Z 18012KT 6000 RA BKN005 06/06 Q0986;
0129101624999992007011811504+53417+011783FM-15+0052EDOP V0201701N007210021019N0050001N1+00701+00701999999ADDGA1071+002101999GF107991999999999999999999MA1098211999999MW1631REMMET054METAR EDOP 181150Z 17014KT 5000 RA BKN007 07/07 Q0982;
0149101624999992007011812204+53417+011783FM-15+0052EDOP V0201701N007710018019N0050001N1+00801+00801999999ADDGA1071+001801999GF107991999999999999999999MA1098001999999MW1101MW2631OC101391REMMET060METAR EDOP 181220Z 17015G27KT 5000 RA BR BKN006 08/08 Q0980;
0149101624999992007011812504+53417+011783FM-15+0052EDOP V0201801N009310015019N0050001N1+00901+00901999999ADDGA1071+001501999GF107991999999999999999999MA1097801999999MW1101MW2631OC101441REMMET060METAR EDOP 181250Z 18018G28KT 5000 RA BR BKN005 09/09 Q0978;
0140101624999992007011813204+53417+011783FM-15+0052EDOP V0202101N012310030019N0060001N1+01101+01001999999ADDGA1071+003001999GF107991999999999999999999MA1097602999999MW1631OC101851REMMET057METAR EDOP 181320Z 21024G36KT 6000 RA BKN010 11/10 Q0976;
0131101624999992007011906204+53417+011783FM-15+0052EDOP V0202601N007710081019N0112651N1+00601+00301999999ADDGA1071+008101999GF107991999999999999999999MA1099591999999OC101291REMMET054METAR EDOP 190620Z 26015G25KT 9999 BKN027 06/03 Q0996;
0131101624999992007011906504+53417+011783FM-15+0052EDOP V0202501N007710060019N0112651N1+00601+00301999999ADDGA1071+006001999GF107991999999999999999999MA1099591999999OC101291REMMET054METAR EDOP 190650Z 25015G25KT 9999 BKN020 06/03 Q0996;
0120101624999992007011907204+53417+011783FM-15+0052EDOP V0202501N005712200019N0112651N1+00501+00301999999ADDGA1041+006001999GF104991999999999999999999MA1099701999999REMMET051METAR EDOP 190720Z 25011KT 9999 SCT020 05/03 Q0997;
0120101624999992007011907504+53417+011783FM-15+0052EDOP V0202401N006210075019N0112651N1+00501+00401999999ADDGA1071+007501999GF107991999999999999999999MA1099701999999REMMET051METAR EDOP 190750Z 24012KT 9999 BKN025 05/04 Q0997;
0120101624999992007011908204+53417+011783FM-15+0052EDOP V0202401N007210051019N0112651N1+00601+00401999999ADDGA1071+005101999GF107991999999999999999999MA1099701999999REMMET051METAR EDOP 190820Z 24014KT 9999 BKN017 06/04 Q0997;
0120101624999992007011908504+53417+011783FM-15+0052EDOP V0202501N006210045019N0112651N1+00601+00401999999ADDGA1071+004501999GF107991999999999999999999MA1099801999999REMMET051METAR EDOP 190850Z 25012KT 9999 BKN015 06/04 Q0998;
0120101624999992007011909504+53417+011783FM-15+0052EDOP V0202601N007710105019N0112651N1+00601+00401999999ADDGA1071+010501999GF107991999999999999999999MA1099801999999REMMET051METAR EDOP 190950Z 26015KT 9999 BKN035 06/04 Q0998;
0131101624999992007011910204+53417+011783FM-15+0052EDOP V0202701N005110099019N0112651N1+00601+00401999999ADDGA1071+009901999GF107991999999999999999999MA1099901999999MW1811REMMET056METAR EDOP 191020Z 27010KT 9999 SHRA BKN033 06/04 Q0999;
0131101624999992007011910504+53417+011783FM-15+0052EDOP V0202501N006710087019N0080001N1+00601+00501999999ADDGA1071+008701999GF107991999999999999999999MA1099901999999MW1811REMMET056METAR EDOP 191050Z 25013KT 8000 SHRA BKN029 06/05 Q0999;
0140101624999992007011911204+53417+011783FM-15+0052EDOP V0202601N007710042019N0050001N1+00701+00501999999ADDGA1071+004201999GF107991999999999999999999MA1099901999999MW1631OC101291REMMET057METAR EDOP 191120Z 26015G25KT 5000 RA BKN014 07/05 Q0999;
0152101624999992007011911504+53417+011783FM-15+0052EDOP V0202801N006210039019N0050001N1+00601+00401999999ADDGA1021+002101999GA2071+003901999GF107991999999999999999999MA1100001999999MW1631REMMET061METAR EDOP 191150Z 28012KT 5000 RA FEW007 BKN013 06/04 Q1000;
0163101624999992007011912204+53417+011783FM-15+0052EDOP V0202701N008710093019N0050001N1+00601+00401999999ADDGA1021+002401999GA2071+009301999GF107991999999999999999999MA1100001999999MW1631OC101391REMMET064METAR EDOP 191220Z 27017G27KT 5000 RA FEW008 BKN031 06/04 Q1000;
0158101624999992007011912504+53417+011783FM-15+0052EDOP V0202701N007210051019N0060001N1+00601+00501999999ADDGA1021+003001999GA2071+005101999GF107991999999999999999999MA1100101999999MW1611REMMET067METAR EDOP 191250Z 27014KT 6000 -RA FEW010 BKN017 06/05 Q1001 RERA;
0143101624999992007011913204+53417+011783FM-15+0052EDOP V0202701N008210045019N0080001N1+00701+00501999999ADDGA1021+002401999GA2071+004501999GF107991999999999999999999MA1100101999999REMMET058METAR EDOP 191320Z 27016KT 8000 FEW008 BKN015 07/05 Q1001;
0143101624999992007011913504+53417+011783FM-15+0052EDOP V0202701N009310063019N0080001N1+00701+00501999999ADDGA1021+003001999GA2071+006301999GF107991999999999999999999MA1100201999999REMMET058METAR EDOP 191350Z 27018KT 8000 FEW010 BKN021 07/05 Q1002;
0131101624999992007011914204+53417+011783FM-15+0052EDOP V0202701N008210054019N0112651N1+00701+00501999999ADDGA1071+005401999GF107991999999999999999999MA1100311999999OC101341REMMET054METAR EDOP 191420Z 27016G26KT 9999 BKN018 07/05 Q1003;
0120101624999992007011914504+53417+011783FM-15+0052EDOP V0202701N007710054019N0112651N1+00701+00401999999ADDGA1071+005401999GF107991999999999999999999MA1100411999999REMMET051METAR EDOP 191450Z 27015KT 9999 BKN018 07/04 Q1004;
0078101624999992007011915204+53417+011783FM-15+0052EDOP V0202701N007712200019N0112651N1+00701+00401999999ADDMA1100501999999REMMET051METAR EDOP 191520Z 27015KT 9999 BNK020 07/04 Q1005;
0131101624999992007011915504+53417+011783FM-15+0052EDOP V0202701N007712200019N0112651N1+00701+00401999999ADDGA1041+006001999GF104991999999999999999999MA1100611999999OC101291REMMET054METAR EDOP 191550Z 27015G25KT 9999 SCT020 07/04 Q1006;
0131101624999992007011916204+53417+011783FM-15+0052EDOP V0202701N008212200019N0112651N1+00701+00301999999ADDGA1041+007501999GF104991999999999999999999MA1100611999999OC101341REMMET054METAR EDOP 191620Z 27016G26KT 9999 SCT025 07/03 Q1006;
0120101624999992007011916504+53417+011783FM-15+0052EDOP V0202701N007212200019N0112651N1+00701+00401999999ADDGA1041+007501999GF104991999999999999999999MA1100711999999REMMET051METAR EDOP 191650Z 27014KT 9999 SCT025 07/04 Q1007;
0120101624999992007011917204+53417+011783FM-15+0052EDOP V0202801N007212200019N0112651N1+00701+00301999999ADDGA1041+007501999GF104991999999999999999999MA1100811999999REMMET051METAR EDOP 191720Z 28014KT 9999 SCT025 07/03 Q1008;
0153101624999992007012003504+53417+011783FM-15+0052EDOP V0201701N004110084019N0070001N1+00601+00501999999ADDGA1021+002401999GA2071+008401999GF107991999999999999999999MA1101021999999MW1611REMMET062METAR EDOP 200350Z 17008KT 7000 -RA FEW008 BKN028 06/05 Q1010;
0130101624999992007012004204+53417+011783FM-15+0052EDOP V0201701N004610084019N0070001N1+00601+00501999999ADDGA1071+008401999GF107991999999999999999999MA1100911999999MW1611REMMET055METAR EDOP 200420Z 17009KT 7000 -RA BKN028 06/05 Q1009;
0143101624999992007012004504+53417+011783FM-15+0052EDOP V0201701N004610075019N0060001N1+00601+00501999999ADDGA1041+001801999GA2071+007501999GF107991999999999999999999MA1100811999999REMMET058METAR EDOP 200450Z 17009KT 6000 SCT006 BKN025 06/05 Q1008;
0144101624999992007012005204+53417+011783FM-15+0052EDOP V0201801N005710015019N0050001N1+00601+00501999999ADDGA1071+001501999GF107991999999999999999999MA1100711999999MW1101MW2611REMMET063METAR EDOP 200520Z 18011KT 5000 -RA BR BKN005 06/05 Q1007 RERA;
0139101624999992007012005504+53417+011783FM-15+0052EDOP V0201801N006210015019N0050001N1+00601+00601999999ADDGA1071+001501999GF107991999999999999999999MA1100611999999MW1101MW2611REMMET058METAR EDOP 200550Z 18012KT 5000 -RA BR BKN005 06/06 Q1006;
