0078102240999992014032118204+53048+008787FM-15+000499999V0202101N002619999999Y999999999+00301+00201999999ADDMA1100901999990REMMET051METAR EDDW 211820Z 21005KT CAVOK 03/02 Q1009 NOSIG=
0078102240999992014032118504+53048+008787FM-15+000499999V0202001N002619999999Y999999999+00301+00301999999ADDMA1100901999990REMMET051METAR EDDW 211850Z 20005KT CAVOK 03/03 Q1009 NOSIG=
0078102240999992014032119204+53048+008787FM-15+000499999V0201801N002619999999Y999999999+00301+00201999999ADDMA1100901999990REMMET051METAR EDDW 211920Z 18005KT CAVOK 03/02 Q1009 NOSIG=
0078102240999992014032119504+53048+008787FM-15+000499999V0201801N002619999999Y999999999+00301+00201999999ADDMA1100901999990REMMET051METAR EDDW 211950Z 18005KT CAVOK 03/02 Q1009 NOSIG=
0078102240999992014032120204+53048+008787FM-15+000499999V0202001N003119999999Y999999999+00301+00301999999ADDMA1100901999990REMMET051METAR EDDW 212020Z 20006KT CAVOK 03/03 Q1009 NOSIG=
0078102240999992014032120504+53048+008787FM-15+000499999V0202101N002619999999Y999999999+00401+00301999999ADDMA1100901999990REMMET051METAR EDDW 212050Z 21005KT CAVOK 04/03 Q1009 NOSIG=
0080102240999992014032121204+53048+008787FM-15+000499999V0202101V002619999999Y999999999+00401+00301999999ADDMA1100901999990REMMET053METAR EDDW 212120Z 21005KT 180V240 CAVOK 04/03 Q1009=
0072102240999992014032121504+53048+008787FM-15+000499999V0201901N002619999999Y999999999+00301+00201999999ADDMA1100901999990REMMET045METAR EDDW 212150Z 19005KT CAVOK 03/02 Q1009=
0072102240999992014032122204+53048+008787FM-15+000499999V0201601N002619999999Y999999999+00201+00201999999ADDMA1100801999990REMMET045METAR EDDW 212220Z 16005KT CAVOK 02/02 Q1008=
0072102240999992014032122504+53048+008787FM-15+000499999V0201501N002119999999Y999999999+00201+00201999999ADDMA1100801999990REMMET045METAR EDDW 212250Z 15004KT CAVOK 02/02 Q1008=
0072102240999992014032123204+53048+008787FM-15+000499999V0201401N001519999999Y999999999+00201+00201999999ADDMA1100801999990REMMET045METAR EDDW 212320Z 14003KT CAVOK 02/02 Q1008=
0072102240999992014032123504+53048+008787FM-15+000499999V0201401N002619999999Y999999999+00201+00201999999ADDMA1100801999990REMMET045METAR EDDW 212350Z 14005KT CAVOK 02/02 Q1008=
0076102240999992014032200204+53048+008787FM-15+000499999V0201401N003119999999Y999999999+00201+00201999999ADDMA1100701999990REMMET049METAR COR EDDW 220020Z 14006KT CAVOK 02/02 Q1007=
0072102240999992014032200504+53048+008787FM-15+000499999V0201301N002119999999Y999999999+00201+00201999999ADDMA1100701999990REMMET045METAR EDDW 220050Z 13004KT CAVOK 02/02 Q1007=
0072102240999992014032201204+53048+008787FM-15+000499999V0201301N002119999999Y999999999+00201+00201999999ADDMA1100601999990REMMET045METAR EDDW 220120Z 13004KT CAVOK 02/02 Q1006=
0072102240999992014032201504+53048+008787FM-15+000499999V0201401N002119999999Y999999999+00201+00201999999ADDMA1100601999990REMMET045METAR EDDW 220150Z 14004KT CAVOK 02/02 Q1006=
0072102240999992014032202204+53048+008787FM-15+000499999V0201601N002619999999Y999999999+00201+00201999999ADDMA1100601999990REMMET045METAR EDDW 220220Z 16005KT CAVOK 02/02 Q1006=
0072102240999992014032202504+53048+008787FM-15+000499999V0201501N003119999999Y999999999+00301+00201999999ADDMA1100501999990REMMET045METAR EDDW 220250Z 15006KT CAVOK 03/02 Q1005=
0142102240999992014032203204+53048+008787FM-15+000499999V0201501N003119999999N009999199+00301+00201999999ADDGA1041+014631991GE19MSL   +99999+99999GF199999041990014631991991MA1100501999990REMMET051METAR EDDW 220320Z 15006KT 9999 SCT048 03/02 Q1005=
0148102240999992014032203504+53048+008787FM-15+000499999V0201301N002619999999N008000199+00301+00201999999ADDGA1041+011891991GE19MSL   +99999+99999GF199999041990011891991991MA1100401999990REMMET057METAR EDDW 220350Z 13005KT 8000 SCT039 03/02 Q1004 NOSIG=
0148102240999992014032204204+53048+008787FM-15+000499999V0201301N004110118919N007000199+00301+00201999999ADDGA1071+011891991GE19MSL   +99999+99999GF199999071990011891991991MA1100401999990REMMET057METAR EDDW 220420Z 13008KT 7000 BKN039 03/02 Q1004 NOSIG=
0171102240999992014032204504+53048+008787FM-15+000499999V0201301N003610731519N007000199+00301+00201999999ADDGA1021+011891991GA2071+073151991GE19MSL   +99999+99999GF199999021990011891991991MA1100301999990REMMET064METAR EDDW 220450Z 13007KT 7000 FEW039 BKN240 03/02 Q1003 NOSIG=
0194102240999992014032205204+53048+008787FM-15+000499999V0201301N003610274319N007000199+00301+00201999999ADDGA1021+011891991GA2071+027431991GA3071+073151991GE19MSL   +99999+99999GF199999021990011891991991MA1100301999990REMMET071METAR EDDW 220520Z 13007KT 7000 FEW039 BKN090 BKN240 03/02 Q1003 NOSIG=
0107102240999992014032205504+53048+008787FM-15+000499999V0201301N003612200019N007000199+00301+00301999999ADDGF100991999999999999999999MA1100301999990REMMET054METAR EDDW 220550Z 13007KT 7000 NSC 03/03 Q1003 NOSIG=
0107102240999992014032206204+53048+008787FM-15+000499999V0201401N004612200019N009000199+00301+00301999999ADDGF100991999999999999999999MA1100201999990REMMET054METAR EDDW 220620Z 14009KT 9000 NSC 03/03 Q1002 NOSIG=
0078102240999992014032206504+53048+008787FM-15+000499999V0201301N004119999999Y999999999+00401+00301999999ADDMA1100201999990REMMET051METAR EDDW 220650Z 13008KT CAVOK 04/03 Q1002 NOSIG=
0148102240999992014032207204+53048+008787FM-15+000499999V0201301N004110140219N009999199+00401+00301999999ADDGA1071+014021991GE19MSL   +99999+99999GF199999071990014021991991MA1100201999990REMMET057METAR EDDW 220720Z 13008KT 9999 BKN046 04/03 Q1002 NOSIG=
0148102240999992014032207504+53048+008787FM-15+000499999V0201401N004610128019N009999199+00501+00301999999ADDGA1071+012801991GE19MSL   +99999+99999GF199999071990012801991991MA1100201999990REMMET057METAR EDDW 220750Z 14009KT 9999 BKN042 05/03 Q1002 NOSIG=
0171102240999992014032208204+53048+008787FM-15+000499999V0201401N004110335319N009999199+00601+00401999999ADDGA1041+011581991GA2071+033531991GE19MSL   +99999+99999GF199999041990011581991991MA1100201999990REMMET064METAR EDDW 220820Z 14008KT 9999 SCT038 BKN110 06/04 Q1002 NOSIG=
0171102240999992014032208504+53048+008787FM-15+000499999V0201801N004610762019N009999199+00801+00501999999ADDGA1021+009751991GA2071+076201991GE19MSL   +99999+99999GF199999021990009751991991MA1100101999990REMMET064METAR EDDW 220850Z 18009KT 9999 FEW032 BKN250 08/05 Q1001 NOSIG=
0078102240999992014032209204+53048+008787FM-15+000499999V0201901N005719999999Y999999999+00801+00501999999ADDMA1100101999990REMMET051METAR EDDW 220920Z 19011KT CAVOK 08/05 Q1001 NOSIG=
0171102240999992014032209504+53048+008787FM-15+000499999V0202001N007210762019N009999199+01001+00601999999ADDGA1021+014021991GA2071+076201991GE19MSL   +99999+99999GF199999021990014021991991MA1100101999990REMMET064METAR EDDW 220950Z 20014KT 9999 FEW046 BKN250 10/06 Q1001 NOSIG=
0179102240999992014032210204+53048+008787FM-15+000499999V0202101V006710762019N009999199+01001+00501999999ADDGA1021+009451991GA2071+076201991GE19MSL   +99999+99999GF199999021990009451991991MA1100101999990REMMET072METAR EDDW 221020Z 21013KT 180V240 9999 FEW031 BKN250 10/05 Q1001 NOSIG=
0179102240999992014032210504+53048+008787FM-15+000499999V0202201V008210762019N009999199+01101+00501999999ADDGA1041+011581991GA2071+076201991GE19MSL   +99999+99999GF199999041990011581991991MA1100101999990REMMET072METAR EDDW 221050Z 22016KT 180V240 9999 SCT038 BKN250 11/05 Q1001 NOSIG=
0179102240999992014032211204+53048+008787FM-15+000499999V0202101V007710762019N009999199+01101+00301999999ADDGA1041+011891991GA2071+076201991GE19MSL   +99999+99999GF199999041990011891991991MA1100001999990REMMET072METAR EDDW 221120Z 21015KT 190V250 9999 SCT039 BKN250 11/03 Q1000 NOSIG=
0195102240999992014032211504+53048+008787FM-15+000499999V0202201V007210762019N009999199+01201+00301999999ADDGA1041+012191991GA2071+076201991GE19MSL   +99999+99999GF199999041990012191991991MA1100001999990REMMET088METAR EDDW 221150Z 22014KT 190V250 9999 SCT040 BKN250 12/03 Q1000 TEMPO      22015G25KT=
0182102240999992014032212204+53048+008787FM-15+000499999V0202201N009310762019N009999199+01201+00301999999ADDGA1041+012191991GA2071+076201991GE19MSL   +99999+99999GF199999041990012191991991MA1100001999990REMMET075METAR EDDW 221220Z 22018KT 9999 SCT040 BKN250 12/03 Q1000 TEMPO 22015G25KT=
0201102240999992014032212504+53048+008787FM-15+000499999V0202201N006710146319N009999199+01201+00301999999ADDGA1071+014631991GA2071+076201991GE19MSL   +99999+99999GF199999071990014631991991MA1100001999990REMMET094METAR EDDW 221250Z 22013KT 9999 BKN048 BKN250 12/03 Q1000 TEMPO 22015G25KT      SHRA BKN014CB=
0201102240999992014032213204+53048+008787FM-15+000499999V0202301N005710149419N009999199+01101+00301999999ADDGA1071+014941991GA2071+076201991GE19MSL   +99999+99999GF199999071990014941991991MA1100001999990REMMET094METAR EDDW 221320Z 23011KT 9999 BKN049 BKN250 11/03 Q1000 TEMPO 22015G25KT      SHRA BKN014CB=
0213102240999992014032213504+53048+008787FM-15+000499999V0202501N006210182919N009999199+01001+00401999999ADDGA1041+013411991GA2071+018291991GE19MSL   +99999+99999GF199999041990013411991991MA1100001999990MW1801REMMET100METAR EDDW 221350Z 25012KT 9999 -SHRA SCT044 BKN060 10/04 Q1000 TEMPO      22015G25KT SHRA BKN014CB=
0213102240999992014032214204+53048+008787FM-15+000499999V0202701N005110121919N009999199+00901+00701999999ADDGA1021+006711991GA2071+012191991GE19MSL   +99999+99999GF199999021990006711991991MA1100001999990MW1801REMMET100METAR EDDW 221420Z 27010KT 9999 -SHRA FEW022 BKN040 09/07 Q1000 TEMPO      25015G25KT SHRA BKN014CB=
0201102240999992014032214504+53048+008787FM-15+000499999V0202501N004610146319N009999199+01001+00601999999ADDGA1021+010061991GA2071+014631991GE19MSL   +99999+99999GF199999021990010061991991MA1100001999990REMMET094METAR EDDW 221450Z 25009KT 9999 FEW033 BKN048 10/06 Q1000 TEMPO 25015G25KT      SHRA BKN014CB=
0211102240999992014032215204+53048+008787FM-15+000499999V0202501N006210426719N009999199+00901+00601999999ADDGA1021+007321991GA2071+042671991GE19MSL   +99999+99999GF199999021990007321991991MA1100001999990MW1611REMMET098METAR EDDW 221520Z 25012KT 9999 -RA FEW024 BKN140 09/06 Q1000 TEMPO      25015G25KT SHRA BKN014CB=
0208102240999992014032215504+53048+008787FM-15+000499999V0202101N00361011281CN009999199+00801+00601999999ADDGA1021+008841991GA2041+011281991GA3071+042671991GE19MSL   +99999+99999GF199999021990008841991991MA1100001999990MW1631REMMET079METAR EDDW 221550Z 21007KT 9999 RA FEW029 SCT037 BKN140 08/06 Q1000      NOSIG=
0209102240999992014032216204+53048+008787FM-15+000499999V0202001N003110097519N009999199+00801+00601999999ADDGA1021+007011991GA2071+009751991GA3071+042671991GE19MSL   +99999+99999GF199999021990007011991991MA1100001999990MW1611REMMET080METAR EDDW 221620Z 20006KT 9999 -RA FEW023 BKN032 BKN140 08/06 Q1000      NOSIG=
0194102240999992014032216504+53048+008787FM-15+000499999V0202201N00461018291CN009999199+00801+00601999999ADDGA1021+007011991GA2041+018291991GA3071+042671991GE19MSL   +99999+99999GF199999021990007011991991MA1100001999990REMMET071METAR EDDW 221650Z 22009KT 9999 FEW023 SCT060 BKN140 08/06 Q1000 NOSIG=
0206102240999992014032217204+53048+008787FM-15+000499999V0202301N00311012191CN009999199+00801+00601999999ADDGA1021+007321991GA2041+012191991GA3071+042671991GE19MSL   +99999+99999GF199999021990007321991991MA1100001999990REMMET083METAR COR EDDW 221720Z 23006KT 9999 FEW024 SCT040 BKN140 08/06 Q1000      TEMPO RA=
0212102240999992014032217504+53048+008787FM-15+000499999V0202201N00311010061CN009999199+00701+00601999999ADDGA1021+005491991GA2041+010061991GA3071+042671991GE19MSL   +99999+99999GF199999021990005491991991MA1100001999990MW1611REMMET083METAR EDDW 221750Z 22006KT 9999 -RA FEW018 SCT033 BKN140 07/06 Q1000      TEMPO RA=
0183102240999992014032218204+53048+008787FM-15+000499999V0202401N006710112819N009999199+00601+00501999999ADDGA1041+004881991GA2071+011281991GE19MSL   +99999+99999GF199999041990004881991991MA1100101999990MW1801REMMET070METAR EDDW 221820Z 24013KT 9999 -SHRA SCT016 BKN037 06/05 Q1001 NOSIG=
0204102240999992014032218504+53048+008787FM-15+000499999V0201901N00211011281CN009999199+00601+00501999999ADDGA1021+004881991GA2041+011281991GA3071+039621991GE19MSL   +99999+99999GF199999021990004881991991MA1100101999990REMMET081METAR EDDW 221850Z 19004KT 9999 FEW016 SCT037 BKN130 06/05 Q1001 RERA      NOSIG=
0078102240999992014032219204+53048+008787FM-15+000499999V0201801N002619999999Y999999999+00601+00501999999ADDMA1100101999990REMMET051METAR EDDW 221920Z 18005KT CAVOK 06/05 Q1001 NOSIG=
0078102240999992014032219504+53048+008787FM-15+000499999V0202001N002619999999Y999999999+00501+00401999999ADDMA1100101999990REMMET051METAR EDDW 221950Z 20005KT CAVOK 05/04 Q1001 NOSIG=
0078102240999992014032220204+53048+008787FM-15+000499999V0202101N003119999999Y999999999+00501+00401999999ADDMA1100101999990REMMET051METAR EDDW 222020Z 21006KT CAVOK 05/04 Q1001 NOSIG=
0078102240999992014032220504+53048+008787FM-15+000499999V0202201N002619999999Y999999999+00401+00301999999ADDMA1100101999990REMMET051METAR EDDW 222050Z 22005KT CAVOK 04/03 Q1001 NOSIG=
0072102240999992014032221204+53048+008787FM-15+000499999V0202101N002119999999Y999999999+00401+00301999999ADDMA1100101999990REMMET045METAR EDDW 222120Z 21004KT CAVOK 04/03 Q1001=
0142102240999992014032221504+53048+008787FM-15+000499999V0202201N002119999999N009999199+00301+00201999999ADDGA1021+014021991GE19MSL   +99999+99999GF199999021990014021991991MA1100201999990REMMET051METAR EDDW 222150Z 22004KT 9999 FEW046 03/02 Q1002=
0142102240999992014032222204+53048+008787FM-15+000499999V0202201N003119999999N009999199+00301+00201999999ADDGA1021+010971991GE19MSL   +99999+99999GF199999021990010971991991MA1100201999990REMMET051METAR EDDW 222220Z 22006KT 9999 FEW036 03/02 Q1002=
0142102240999992014032222504+53048+008787FM-15+000499999V0202001N004119999999N009999199+00301+00201999999ADDGA1021+010971991GE19MSL   +99999+99999GF199999021990010971991991MA1100201999990REMMET051METAR EDDW 222250Z 20008KT 9999 FEW036 03/02 Q1002=
0072102240999992014032223204+53048+008787FM-15+000499999V0202201N003119999999Y999999999+00301+00201999999ADDMA1100201999990REMMET045METAR EDDW 222320Z 22006KT CAVOK 03/02 Q1002=
0072102240999992014032223504+53048+008787FM-15+000499999V0202101N003119999999Y999999999+00301+00201999999ADDMA1100201999990REMMET045METAR EDDW 222350Z 21006KT CAVOK 03/02 Q1002=
0142102240999992014032300204+53048+008787FM-15+000499999V0202101N003119999999N009999199+00301+00201999999ADDGA1021+010671991GE19MSL   +99999+99999GF199999021990010671991991MA1100201999990REMMET051METAR EDDW 230020Z 21006KT 9999 FEW035 03/02 Q1002=
0072102240999992014032300504+53048+008787FM-15+000499999V0202001N002619999999Y999999999+00201+00201999999ADDMA1100201999990REMMET045METAR EDDW 230050Z 20005KT CAVOK 02/02 Q1002=
0072102240999992014032301204+53048+008787FM-15+000499999V0201801N003119999999Y999999999+00201+00201999999ADDMA1100201999990REMMET045METAR EDDW 230120Z 18006KT CAVOK 02/02 Q1002=
0072102240999992014032301504+53048+008787FM-15+000499999V0201801N003619999999Y999999999+00201+00201999999ADDMA1100201999990REMMET045METAR EDDW 230150Z 18007KT CAVOK 02/02 Q1002=
0072102240999992014032302204+53048+008787FM-15+000499999V0201901N003119999999Y999999999+00201+00201999999ADDMA1100201999990REMMET045METAR EDDW 230220Z 19006KT CAVOK 02/02 Q1002=
0072102240999992014032302504+53048+008787FM-15+000499999V0201901N003119999999Y999999999+00101+00101999999ADDMA1100201999990REMMET045METAR EDDW 230250Z 19006KT CAVOK 01/01 Q1002=
0101102240999992014032303204+53048+008787FM-15+000499999V0202001N002112200019N009000199+00201+00101999999ADDGF100991999999999999999999MA1100201999990REMMET048METAR EDDW 230320Z 20004KT 9000 NSC 02/01 Q1002=
0115102240999992014032303504+53048+008787FM-15+000499999V0202201V002112200019N009000199+00201+00201999999ADDGF100991999999999999999999MA1100201999990REMMET062METAR EDDW 230350Z 22004KT 190V250 9000 NSC 02/02 Q1002 NOSIG=
0107102240999992014032304204+53048+008787FM-15+000499999V0202001N003112200019N009000199+00201+00101999999ADDGF100991999999999999999999MA1100201999990REMMET054METAR EDDW 230420Z 20006KT 9000 NSC 02/01 Q1002 NOSIG=
0107102240999992014032304504+53048+008787FM-15+000499999V0202001N003612200019N008000199+00101+00101999999ADDGF100991999999999999999999MA1100201999990REMMET054METAR EDDW 230450Z 20007KT 8000 NSC 01/01 Q1002 NOSIG=
0107102240999992014032305204+53048+008787FM-15+000499999V0202001N003612200019N008000199+00201+00101999999ADDGF100991999999999999999999MA1100201999990REMMET054METAR EDDW 230520Z 20007KT 8000 NSC 02/01 Q1002 NOSIG=
0107102240999992014032305504+53048+008787FM-15+000499999V0202101N003112200019N008000199+00201+00201999999ADDGF100991999999999999999999MA1100301999990REMMET054METAR EDDW 230550Z 21006KT 8000 NSC 02/02 Q1003 NOSIG=
0107102240999992014032306204+53048+008787FM-15+000499999V0202001N003112200019N008000199+00201+00201999999ADDGF100991999999999999999999MA1100301999990REMMET054METAR EDDW 230620Z 20006KT 8000 NSC 02/02 Q1003 NOSIG=
0107102240999992014032306504+53048+008787FM-15+000499999V0202001N004112200019N009000199+00401+00301999999ADDGF100991999999999999999999MA1100301999990REMMET054METAR EDDW 230650Z 20008KT 9000 NSC 04/03 Q1003 NOSIG=
0086102240999992014032307204+53048+008787FM-15+000499999V0202101V005119999999Y999999999+00501+00301999999ADDMA1100301999990REMMET059METAR EDDW 230720Z 21010KT 180V240 CAVOK 05/03 Q1003 NOSIG=
0148102240999992014032307504+53048+008787FM-15+000499999V0202201N006219999999N009999199+00501+00401999999ADDGA1021+003051991GE19MSL   +99999+99999GF199999021990003051991991MA1100301999990REMMET057METAR EDDW 230750Z 22012KT 9999 FEW010 05/04 Q1003 NOSIG=
0148102240999992014032308204+53048+008787FM-15+000499999V0202201N006719999999N009999199+00601+00401999999ADDGA1021+003351991GE19MSL   +99999+99999GF199999021990003351991991MA1100401999990REMMET057METAR EDDW 230820Z 22013KT 9999 FEW011 06/04 Q1004 NOSIG=
0171102240999992014032308504+53048+008787FM-15+000499999V0202301N00571006711CN009999199+00701+00401999999ADDGA1021+003661991GA2041+006711991GE19MSL   +99999+99999GF199999021990003661991991MA1100401999990REMMET064METAR EDDW 230850Z 23011KT 9999 FEW012 SCT022 07/04 Q1004 NOSIG=
0148102240999992014032309204+53048+008787FM-15+000499999V0202201N005719999999N009999199+00701+00501999999ADDGA1021+003961991GE19MSL   +99999+99999GF199999021990003961991991MA1100401999990REMMET057METAR EDDW 230920Z 22011KT 9999 FEW013 07/05 Q1004 NOSIG=
0148102240999992014032309504+53048+008787FM-15+000499999V0202201N006719999999N009999199+00801+00401999999ADDGA1021+004271991GE19MSL   +99999+99999GF199999021990004271991991MA1100401999990REMMET057METAR EDDW 230950Z 22013KT 9999 FEW014 08/04 Q1004 NOSIG=
0148102240999992014032310204+53048+008787FM-15+000499999V0202201N006219999999N009999199+00801+00401999999ADDGA1041+004571991GE19MSL   +99999+99999GF199999041990004571991991MA1100401999990REMMET057METAR EDDW 231020Z 22012KT 9999 SCT015 08/04 Q1004 NOSIG=
0148102240999992014032310504+53048+008787FM-15+000499999V0202401N006210054919N009999199+00901+00501999999ADDGA1071+005491991GE19MSL   +99999+99999GF199999071990005491991991MA1100401999990REMMET057METAR EDDW 231050Z 24012KT 9999 BKN018 09/05 Q1004 NOSIG=
0148102240999992014032311204+53048+008787FM-15+000499999V0202201N005710067119N009999199+00901+00401999999ADDGA1071+006711991GE19MSL   +99999+99999GF199999071990006711991991MA1100401999990REMMET057METAR EDDW 231120Z 22011KT 9999 BKN022 09/04 Q1004 NOSIG=
0156102240999992014032311504+53048+008787FM-15+000499999V0202501V004610076219N009999199+01001+00301999999ADDGA1071+007621991GE19MSL   +99999+99999GF199999071990007621991991MA1100401999990REMMET065METAR EDDW 231150Z 25009KT 210V280 9999 BKN025 10/03 Q1004 NOSIG=
0148102240999992014032312204+53048+008787FM-15+000499999V0202401N004619999999N009999199+01001+00401999999ADDGA1041+007621991GE19MSL   +99999+99999GF199999041990007621991991MA1100401999990REMMET057METAR EDDW 231220Z 24009KT 9999 SCT025 10/04 Q1004 NOSIG=
0148102240999992014032312504+53048+008787FM-15+000499999V0202501N005719999999N009999199+00901+00301999999ADDGA1041+007621991GE19MSL   +99999+99999GF199999041990007621991991MA1100401999990REMMET057METAR EDDW 231250Z 25011KT 9999 SCT025 09/03 Q1004 NOSIG=
0179102240999992014032313204+53048+008787FM-15+000499999V0202601V00461076201CN009999199+01101+00201999999ADDGA1021+008231991GA2041+076201991GE19MSL   +99999+99999GF199999021990008231991991MA1100401999990REMMET072METAR EDDW 231320Z 26009KT 220V280 9999 FEW027 SCT250 11/02 Q1004 NOSIG=
0201102240999992014032313504+53048+008787FM-15+000499999V0202601N00461076201CN009999199+01101+00101999999ADDGA1021+010671991GA2041+076201991GE19MSL   +99999+99999GF199999021990010671991991MA1100401999990REMMET094METAR EDDW 231350Z 26009KT 9999 FEW035 SCT250 11/01 Q1004 TEMPO 25015G25KT      TSRA BKN020CB=
0212102240999992014032314204+53048+008787FM-15+000499999V0202801V00461076201CN009999199+01101+00101999999ADDGA1041+010671081GA2041+076201991GE19MSL   +99999+99999GF199999041990010671991991MA1100401999990REMMET105METAR EDDW 231420Z 28009KT 250V310 9999 SCT035TCU SCT250 11/01 Q1004      TEMPO 25015G25KT TSRA BKN020CB=
0218102240999992014032314504+53048+008787FM-15+000499999V0202601N00461009141CN009999199+00901+00301999999ADDGA1021+007621091GA2041+009141081GE19MSL   +99999+99999GF199999021990007621991991MA1100401999990MW1801REMMET105METAR EDDW 231450Z 26009KT 9999 -SHRA FEW025CB SCT030TCU 09/03 Q1004      TEMPO 25015G25KT TSRA BKN020CB=
0220102240999992014032315204+53048+008787FM-15+000499999V0202901N00411018291CN009999199+01001+00201999999ADDGA1021+006101091GA2041+018291991GE19MSL   +99999+99999GF199999021990006101991991MA1100401999990MW1801REMMET107METAR EDDW 231520Z 29008KT 9999 -SHRA FEW020CB SCT060 10/02 Q1004 RERA      TEMPO 25015G25KT TSRA BKN020CB=
0211102240999992014032315504+53048+008787FM-15+000499999V0203101V00621018291CN009999199+00701+00201999999ADDGA1021+006101091GA2041+018291991GE19MSL   +99999+99999GF199999021990006101991991MA1100501999990OC101291REMMET096METAR EDDW 231550Z 31012G25KT 270V340 9999 FEW020CB SCT060 07/02 Q1005      TEMPO SHRA BKN020CB=
0203102240999992014032316204+53048+008787FM-15+000499999V0203101N00821018291CN009999199+00601+00301999999ADDGA1021+006101091GA2041+018291991GE19MSL   +99999+99999GF199999021990006101991991MA1100501999990REMMET096METAR EDDW 231620Z 31016KT 9999 FEW020CB SCT060 06/03 Q1005 TEMPO 27015G25KT      SHRA BKN020CB=
0173102240999992014032316504+53048+008787FM-15+000499999V0203001N00571018291CN009999199+00501+00301999999ADDGA1021+006101091GA2041+018291991GE19MSL   +99999+99999GF199999021990006101991991MA1100601999990REMMET066METAR EDDW 231650Z 30011KT 9999 FEW020CB SCT060 05/03 Q1006 NOSIG=
0174102240999992014032317204+53048+008787FM-15+000499999V0202901N00311018291CN009999199+00501+00301999999ADDGA1021+006101081GA2041+018291991GE19MSL   +99999+99999GF199999021990006101991991MA1100601999990REMMET067METAR EDDW 231720Z 29006KT 9999 FEW020TCU SCT060 05/03 Q1006 NOSIG=
0174102240999992014032317504+53048+008787FM-15+000499999V0202101N00151018291CN009999199+00401+00301999999ADDGA1021+006101081GA2041+018291991GE19MSL   +99999+99999GF199999021990006101991991MA1100601999990REMMET067METAR EDDW 231750Z 21003KT 9999 FEW020TCU SCT060 04/03 Q1006 NOSIG=
0174102240999992014032318204+53048+008787FM-15+000499999V0202201N00151018291CN009999199+00501+00301999999ADDGA1021+006101081GA2041+018291991GE19MSL   +99999+99999GF199999021990006101991991MA1100701999990REMMET067METAR EDDW 231820Z 22003KT 9999 FEW020TCU SCT060 05/03 Q1007 NOSIG=
0078102240999992014032318504+53048+008787FM-15+000499999V0202101N002119999999Y999999999+00401+00201999999ADDMA1100701999990REMMET051METAR EDDW 231850Z 21004KT CAVOK 04/02 Q1007 NOSIG=
0078102240999992014032319204+53048+008787FM-15+000499999V0202101N002119999999Y999999999+00401+00201999999ADDMA1100701999990REMMET051METAR EDDW 231920Z 21004KT CAVOK 04/02 Q1007 NOSIG=
0078102240999992014032319504+53048+008787FM-15+000499999V0201801N001519999999Y999999999+00201+00101999999ADDMA1100701999990REMMET051METAR EDDW 231950Z 18003KT CAVOK 02/01 Q1007 NOSIG=
0086102240999992014032320204+53048+008787FM-15+000499999V0202201V002119999999Y999999999+00301+00201999999ADDMA1100701999990REMMET059METAR EDDW 232020Z 22004KT 190V250 CAVOK 03/02 Q1007 NOSIG=
0078102240999992014032320504+53048+008787FM-15+000499999V0202001N001019999999Y999999999+00201+00101999999ADDMA1100801999990REMMET051METAR EDDW 232050Z 20002KT CAVOK 02/01 Q1008 NOSIG=
0142102240999992014032321204+53048+008787FM-15+000499999V0201501N001019999999N009999199+00201+00201999999ADDGA1021+013721991GE19MSL   +99999+99999GF199999021990013721991991MA1100801999990REMMET051METAR EDDW 232120Z 15002KT 9999 FEW045 02/02 Q1008=
0112102240999992014032321504+53048+008787FM-15+000499999V0202301N001512200019N009999199+00101+00101999999ADDGF100991999999999999999999MA1100801999990MW1121REMMET053METAR EDDW 232150Z 23003KT 9999 MIFG NSC 01/01 Q1008=
0148102240999992014032322204+53048+008787FM-15+000499999V0202201N001012200019N005000199+00101+00101999999ADDGF100991999999999999999999MA1100801999990MW1111MW2121REMMET083METAR COR EDDW 232220Z 22002KT 5000 R27/0750VP2000D BCFG MIFG NSC 01/01      Q1008=
0128102240999992014032322504+53048+008787FM-15+000499999V0202301N001012200019N008000199+00001+00001999999ADDGF100991999999999999999999MA1100801999990MW1121REMMET069METAR EDDW 232250Z 23002KT 8000 R27/0750VP2000U MIFG NSC 00/00 Q1008=
0112102240999992014032323204+53048+008787FM-15+000499999V0202101N001512200019N009999199+00101+00101999999ADDGF100991999999999999999999MA1100801999990MW1121REMMET053METAR EDDW 232320Z 21003KT 9999 MIFG NSC 01/01 Q1008=
0072102240999992014032323504+53048+008787FM-15+000499999V0202301N001019999999Y999999999+00101+00101999999ADDMA1100801999990REMMET045METAR EDDW 232350Z 23002KT CAVOK 01/01 Q1008=
0120102240999992014032400204+53048+008787FM-15+000499999V0202501V001512200019N009999199+00101+00101999999ADDGF100991999999999999999999MA1100901999990MW1121REMMET061METAR EDDW 240020Z 25003KT 230V290 9999 MIFG NSC 01/01 Q1009=
0112102240999992014032400504+53048+008787FM-15+000499999V0202401N000512200019N009999199+00101+00101999999ADDGF100991999999999999999999MA1100901999990MW1121REMMET053METAR EDDW 240050Z 24001KT 9999 MIFG NSC 01/01 Q1009=
0191102240999992014032401204+53048+008787FM-15+000499999V0202101N000510243819N009999199+00001+00001999999ADDGA1021+012191991GA2071+024381991GE19MSL   +99999+99999GF199999021990012191991991MA1100901999990MW1121REMMET078METAR EDDW 240120Z 21001KT 9999 R27/0700N MIFG FEW040 BKN080 00/00      Q1009=
0177102240999992014032401504+53048+008787FM-15+000499999V0209999V001019999999N000700199+00001+00001999999ADDGA1021+012191991GE19MSL   +99999+99999GF199999021990012191991991MA1100901999990MW1441REMMET080METAR COR EDDW 240150Z VRB02KT 0700 R27/0600V1000D FG FEW040 M00/M00      Q1009=
0142102240999992014032402204+53048+008787FM-15+000499999V0202101N001012200019N001400199+00001+00001999999ADDGF100991999999999999999999MA1100901999990MW1101MW2111MW3121REMMET071METAR EDDW 240220Z 21002KT 1400 R27/0750D PRFG MIFG BR NSC 00/00 Q1009=
0195102240999992014032402504+53048+008787FM-15+000499999V0202001N001519999999N001400199+00001+00001999999ADDGA1041+014941991GE19MSL   +99999+99999GF199999041990014941991991MA1100901999990MW1101MW2111MW3121REMMET086METAR EDDW 240250Z 20003KT 1400 R27/0650V1200N PRFG MIFG BR SCT049      M00/M00 Q1009=
0173102240999992014032403204+53048+008787FM-15+000499999V0209999C000019999999N001700199+00101+00101999999ADDGA1041+014941991GE19MSL   +99999+99999GF199999041990014941991991MA1100901999990MW1101MW2111MW3121REMMET064METAR EDDW 240320Z 00000KT 1700 PRFG MIFG BR SCT049 01/01 Q1009=
0184102240999992014032403504+53048+008787FM-15+000499999V0202201N001010003019N000400199+00001+00001999999ADDGA1081+000301991GE19MSL   +99999+99999GF199999081990000301991991MA1101001999990MW1441REMMET087METAR EDDW 240350Z 22002KT 0400 R27/0450V0750N FG OVC001 M00/M00 Q1010      TEMPO 0600=
0179102240999992014032404204+53048+008787FM-15+000499999V0202401N001510003019N000400199-00101-00101999999ADDGA1081+000301991GE19MSL   +99999+99999GF199999081990000301991991MA1101001999990MW1441REMMET082METAR EDDW 240420Z 24003KT 0400 R27/0500N FG OVC001 M01/M01 Q1010 TEMPO      0600=
0181102240999992014032404504+53048+008787FM-15+000499999V0202601N002110003019N000400199-00201-00201999999ADDGA1081+000301991GE19MSL   +99999+99999GF199999081990000301991991MA1101001999990MW1481REMMET084METAR EDDW 240450Z 26004KT 0400 R27/0450N FZFG OVC001 M02/M02 Q1010      TEMPO 0600=
0158102240999992014032405204+53048+008787FM-15+000499999V0202501N001512200019N000250199-00201-00201999999ADDGF100991999999999999999999MA1101001999990MW1481REMMET099METAR EDDW 240520Z 25003KT 0250 R27/0350N FZFG NSC M02/M02 Q1010 R88/190095      TEMPO 0600 BKN001=
0158102240999992014032405504+53048+008787FM-15+000499999V0202501N001012200019N000100199-00101-00101999999ADDGF100991999999999999999999MA1101101999990MW1481REMMET099METAR EDDW 240550Z 25002KT 0100 R27/0300N FZFG NSC M01/M01 Q1011 R88/190095      TEMPO 0600 BKN001=
0202102240999992014032406204+53048+008787FM-15+000499999V0202501N002119999999N000600199-00101-00101999999ADDGA1021+007921991GE19MSL   +99999+99999GF199999021990007921991991MA1101101999990MW1481REMMET105METAR EDDW 240620Z 25004KT 0600 R27/0550D FZFG FEW026 M01/M01 Q1011      R88/190095 BECMG 2500 BR BKN004=
0189102240999992014032406504+53048+008787FM-15+000499999V0202501N001519999999N001600199+00101+00101999999ADDGA1021+007921991GE19MSL   +99999+99999GF199999021990007921991991MA1101101999990MW1101MW2111REMMET086METAR EDDW 240650Z 25003KT 1600 PRFG BR FEW026 01/01 Q1011 R88/190095      BECMG 4000=
0178102240999992014032407204+53048+008787FM-15+000499999V0209999V001019999999N003500199+00301+00301999999ADDGA1021+007621991GE19MSL   +99999+99999GF199999021990007621991991MA1101101999990MW1101REMMET081METAR EDDW 240720Z VRB02KT 3500 BR FEW025 03/03 Q1011 R88/190095 BECMG      6000=
0181102240999992014032407504+53048+008787FM-15+000499999V0202401V001519999999N005000199+00401+00401999999ADDGA1021+007621991GE19MSL   +99999+99999GF199999021990007621991991MA1101101999990MW1101REMMET084METAR EDDW 240750Z 24003KT 200V280 5000 BR FEW025 04/04 Q1011 R88/190095      NOSIG=
0172102240999992014032408204+53048+008787FM-15+000499999V0202601V002119999999N008000199+00501+00401999999ADDGA1021+007621991GE19MSL   +99999+99999GF199999021990007621991991MA1101201999990REMMET081METAR EDDW 240820Z 26004KT 230V320 8000 FEW025 05/04 Q1012 R88/190095      NOSIG=
0159102240999992014032408504+53048+008787FM-15+000499999V0209999V001019999999N009999199+00601+00501999999ADDGA1021+002441991GE19MSL   +99999+99999GF199999021990002441991991MA1101201999990REMMET068METAR EDDW 240850Z VRB02KT 9999 FEW008 06/05 Q1012 R88/190095 NOSIG=
0148102240999992014032409204+53048+008787FM-15+000499999V0209999V000519999999N009999199+00701+00401999999ADDGA1021+005491991GE19MSL   +99999+99999GF199999021990005491991991MA1101201999990REMMET057METAR EDDW 240920Z VRB01KT 9999 FEW018 07/04 Q1012 NOSIG=
0152102240999992014032409504+53048+008787FM-15+000499999V0209999V001019999999N009999199+00701+00301999999ADDGA1041+005491991GE19MSL   +99999+99999GF199999041990005491991991MA1101201999990REMMET061METAR COR EDDW 240950Z VRB02KT 9999 SCT018 07/03 Q1012 NOSIG=
0162102240999992014032410204+53048+008787FM-15+000499999V0202701V002119999999N009999199+00701+00301999999ADDGA1041+005491991GE19MSL   +99999+99999GF199999041990005491991991MA1101201999990REMMET071METAR EDDW 241020Z 27004KT 250V320 9999 SCT018 07/03 Q1012 R88/D NOSIG=
0154102240999992014032410504+53048+008787FM-15+000499999V0202801N003619999999N009999199+00701+00301999999ADDGA1041+005491991GE19MSL   +99999+99999GF199999041990005491991991MA1101201999990REMMET063METAR EDDW 241050Z 28007KT 9999 SCT018 07/03 Q1012 R88/D NOSIG=
0154102240999992014032411204+53048+008787FM-15+000499999V0202701N003119999999N009999199+00701+00301999999ADDGA1041+006711991GE19MSL   +99999+99999GF199999041990006711991991MA1101201999990REMMET063METAR EDDW 241120Z 27006KT 9999 SCT022 07/03 Q1012 R88/D NOSIG=
0156102240999992014032411504+53048+008787FM-15+000499999V0202401V002119999999N009999199+00801+00301999999ADDGA1041+007921991GE19MSL   +99999+99999GF199999041990007921991991MA1101201999990REMMET065METAR EDDW 241150Z 24004KT 210V310 9999 SCT026 08/03 Q1012 NOSIG=
0148102240999992014032412204+53048+008787FM-15+000499999V0209999V002119999999N009999199+00901+00301999999ADDGA1041+007921991GE19MSL   +99999+99999GF199999041990007921991991MA1101201999990REMMET057METAR EDDW 241220Z VRB04KT 9999 SCT026 09/03 Q1012 NOSIG=
0195102240999992014032412504+53048+008787FM-15+000499999V0209999V00261007921CN009999199+00901+00101999999ADDGA1021+006711091GA2041+007921991GE19MSL   +99999+99999GF199999021990006711991991MA1101201999990MW1801REMMET082METAR EDDW 241250Z VRB05KT 9999 -SHRA FEW022CB SCT026 09/01 Q1012 TEMPO      SHRA=
0204102240999992014032413204+53048+008787FM-15+000499999V0202601V00361007921CN009999199+00901+00001999999ADDGA1021+006711091GA2041+007921991GE19MSL   +99999+99999GF199999021990006711991991MA1101101999990MW1801REMMET091METAR EDDW 241320Z 26007KT 220V280 9999 -SHRA FEW022CB SCT026 09/M00      Q1011 TEMPO SHRA=
0195102240999992014032413504+53048+008787FM-15+000499999V0200301N005710054919N009999199+00601+00201999999ADDGA1041+004271091GA2071+005491991GE19MSL   +99999+99999GF199999041990004271991991MA1101201999990MW1801REMMET082METAR EDDW 241350Z 03011KT 9999 -SHRA SCT014CB BKN018 06/02 Q1012 TEMPO      SHRA=
0184102240999992014032414204+53048+008787FM-15+000499999V0200901N003110054919N009999199+00701+00301999999ADDGA1021+004571091GA2071+005491991GE19MSL   +99999+99999GF199999021990004571991991MA1101101999990MW1161REMMET071METAR EDDW 241420Z 09006KT 9999 VCSH FEW015CB BKN018 07/03 Q1011 NOSIG=
0197102240999992014032414504+53048+008787FM-15+000499999V0201301V00151005491CN009999199+00701+00301999999ADDGA1021+004571091GA2041+005491991GE19MSL   +99999+99999GF199999021990004571991991MA1101101999990MW1161REMMET084METAR EDDW 241450Z 13003KT 090V170 9999 VCSH FEW015CB SCT018 07/03      Q1011 NOSIG=
0197102240999992014032415204+53048+008787FM-15+000499999V0202401V00151006401CN009999199+00801+00201999999ADDGA1021+005181091GA2041+006401991GE19MSL   +99999+99999GF199999021990005181991991MA1101101999990MW1161REMMET084METAR EDDW 241520Z 24003KT 190V310 9999 VCSH FEW017CB SCT021 08/02      Q1011 NOSIG=
0185102240999992014032415504+53048+008787FM-15+000499999V0209999V002110061019N009999199+00601+00201999999ADDGA1021+005181091GA2071+006101991GE19MSL   +99999+99999GF199999021990005181991991MA1101101999990MW1801REMMET072METAR EDDW 241550Z VRB04KT 9999 -SHRA FEW017CB BKN020 06/02 Q1011 NOSIG=
0169102240999992014032416204+53048+008787FM-15+000499999V0201801V001519999999N009999199+00701+00301999999ADDGA1041+005491091GE19MSL   +99999+99999GF199999041990005491991991MA1101101999990MW1161REMMET072METAR EDDW 241620Z 18003KT 130V270 9999 VCSH SCT018CB 07/03 Q1011 NOSIG=
0161102240999992014032416504+53048+008787FM-15+000499999V0209999V000519999999N009999199+00701+00201999999ADDGA1041+005491091GE19MSL   +99999+99999GF199999041990005491991991MA1101101999990MW1161REMMET064METAR EDDW 241650Z VRB01KT 9999 VCSH SCT018CB 07/02 Q1011 NOSIG=
0150102240999992014032417204+53048+008787FM-15+000499999V0209999C000019999999N009999199+00601+00301999999ADDGA1041+006101091GE19MSL   +99999+99999GF199999041990006101991991MA1101101999990REMMET059METAR EDDW 241720Z 00000KT 9999 SCT020CB 06/03 Q1011 NOSIG=
0161102240999992014032417504+53048+008787FM-15+000499999V0201201N000519999999N009999199+00401+00301999999ADDGA1021+006101091GE19MSL   +99999+99999GF199999021990006101991991MA1101201999990MW1121REMMET064METAR EDDW 241750Z 12001KT 9999 MIFG FEW020CB 04/03 Q1012 NOSIG=
0161102240999992014032418204+53048+008787FM-15+000499999V0202601N000519999999N009999199+00501+00201999999ADDGA1021+006101091GE19MSL   +99999+99999GF199999021990006101991991MA1101201999990MW1121REMMET064METAR EDDW 241820Z 26001KT 9999 MIFG FEW020CB 05/02 Q1012 NOSIG=
0148102240999992014032418504+53048+008787FM-15+000499999V0202801N001010106719N009999199+00301+00201999999ADDGA1071+010671991GE19MSL   +99999+99999GF199999071990010671991991MA1101201999990REMMET057METAR EDDW 241850Z 28002KT 9999 BKN035 03/02 Q1012 NOSIG=
0148102240999992014032419204+53048+008787FM-15+000499999V0203101N001519999999N009999199+00401+00201999999ADDGA1041+010671991GE19MSL   +99999+99999GF199999041990010671991991MA1101201999990REMMET057METAR EDDW 241920Z 31003KT 9999 SCT035 04/02 Q1012 NOSIG=
0148102240999992014032419504+53048+008787FM-15+000499999V0202801N002119999999N009999199+00401+00301999999ADDGA1021+010671991GE19MSL   +99999+99999GF199999021990010671991991MA1101201999990REMMET057METAR EDDW 241950Z 28004KT 9999 FEW035 04/03 Q1012 NOSIG=
0148102240999992014032420204+53048+008787FM-15+000499999V0203001N001019999999N009999199+00301+00201999999ADDGA1041+010671991GE19MSL   +99999+99999GF199999041990010671991991MA1101301999990REMMET057METAR EDDW 242020Z 30002KT 9999 SCT035 03/02 Q1013 NOSIG=
0156102240999992014032420504+53048+008787FM-15+000499999V0202901V001519999999N009999199+00201+00201999999ADDGA1021+010671991GE19MSL   +99999+99999GF199999021990010671991991MA1101301999990REMMET065METAR EDDW 242050Z 29003KT 240V320 9999 FEW035 02/02 Q1013 NOSIG=
0142102240999992014032421204+53048+008787FM-15+000499999V0209999V001019999999N009999199+00101+00101999999ADDGA1021+010671991GE19MSL   +99999+99999GF199999021990010671991991MA1101301999990REMMET051METAR EDDW 242120Z VRB02KT 9999 FEW035 01/01 Q1013=
0142102240999992014032421504+53048+008787FM-15+000499999V0209999V001019999999N009999199+00101+00101999999ADDGA1041+010671991GE19MSL   +99999+99999GF199999041990010671991991MA1101301999990REMMET051METAR EDDW 242150Z VRB02KT 9999 SCT035 01/01 Q1013=
0142102240999992014032422204+53048+008787FM-15+000499999V0202301N001019999999N009999199+00101+00101999999ADDGA1041+010671991GE19MSL   +99999+99999GF199999041990010671991991MA1101301999990REMMET051METAR EDDW 242220Z 23002KT 9999 SCT035 01/01 Q1013=
0153102240999992014032422504+53048+008787FM-15+000499999V0202001N001019999999N009999199+00101+00101999999ADDGA1021+010671991GE19MSL   +99999+99999GF199999021990010671991991MA1101301999990MW1121REMMET056METAR EDDW 242250Z 20002KT 9999 MIFG FEW035 01/01 Q1013=
0153102240999992014032423204+53048+008787FM-15+000499999V0202601N001019999999N009999199+00101+00101999999ADDGA1021+010671991GE19MSL   +99999+99999GF199999021990010671991991MA1101201999990MW1121REMMET056METAR EDDW 242320Z 26002KT 9999 MIFG FEW035 01/01 Q1012=
0169102240999992014032423504+53048+008787FM-15+000499999V0202301N001019999999N008000199+00001+00001999999ADDGA1021+010671991GE19MSL   +99999+99999GF199999021990010671991991MA1101201999990MW1111REMMET072METAR EDDW 242350Z 23002KT 8000 R27/0700VP2000D PRFG FEW035 00/00 Q1012=
0154102240999992014032500204+53048+008787FM-15+000499999V0202401N001012200019N003000199-00101-00101999999ADDGF100991999999999999999999MA1101201999990MW1101MW2481REMMET089METAR COR EDDW 250020Z 24002KT 3000 0900N R27/1500VP2000U FZFG BR NSC      M01/M01 Q1012=
0150102240999992014032500504+53048+008787FM-15+000499999V0201901N000512200019N003000199-00101-00101999999ADDGF100991999999999999999999MA1101201999990MW1101MW2481REMMET085METAR EDDW 250050Z 19001KT 3000 0900N R27/1000VP2000U FZFG BR NSC M01/M01      Q1012=
0149102240999992014032501204+53048+008787FM-15+000499999V0202501N001512200019N003000199-00101-00101999999ADDGF100991999999999999999999MA1101201999990MW1101MW2481REMMET084METAR EDDW 250120Z 25003KT 3000 0900N R27/1000V1900D FZFG BR NSC M01/M01      Q1012=
0150102240999992014032501504+53048+008787FM-15+000499999V0202501N001012200019N003000199-00201-00201999999ADDGF100991999999999999999999MA1101201999990MW1101MW2481REMMET085METAR EDDW 250150Z 25002KT 3000 0900N R27/0800VP2000D FZFG BR NSC M02/M02      Q1012=
0144102240999992014032502204+53048+008787FM-15+000499999V0202401N001012200019N003000199-00201-00201999999ADDGF100991999999999999999999MA1101201999990MW1101MW2481REMMET079METAR EDDW 250220Z 24002KT 3000 0800N R27/0700D FZFG BR NSC M02/M02      Q1012=
0149102240999992014032502504+53048+008787FM-15+000499999V0202401N001012200019N003000199-00301-00301999999ADDGF100991999999999999999999MA1101201999990MW1101MW2481REMMET084METAR EDDW 250250Z 24002KT 3000 0800N R27/0750V1100N FZFG BR NSC M03/M03      Q1012=
0149102240999992014032503204+53048+008787FM-15+000499999V0202301N000512200019N002300199-00201-00201999999ADDGF100991999999999999999999MA1101201999990MW1101MW2481REMMET084METAR EDDW 250320Z 23001KT 2300 0800N R27/0700V1900U FZFG BR NSC M02/M02      Q1012=
0149102240999992014032503504+53048+008787FM-15+000499999V0202501N001012200019N002300199-00201-00201999999ADDGF100991999999999999999999MA1101201999990MW1101REMMET090METAR EDDW 250350Z 25002KT 2300 1400S R27/1200N BR NSC M02/M02 Q1012      TEMPO 1400 BCFG=
0128102240999992014032504204+53048+008787FM-15+000499999V0202301N001012200019N005000199-00101-00101999999ADDGF100991999999999999999999MA1101101999990MW1101REMMET069METAR EDDW 250420Z 23002KT 5000 BR NSC M01/M01 Q1011 TEMPO 1400 BCFG=
0119102240999992014032504504+53048+008787FM-15+000499999V0202201N000512200019N006000199-00101-00101999999ADDGF100991999999999999999999MA1101101999990REMMET066METAR EDDW 250450Z 22001KT 6000 NSC M01/M01 Q1011 TEMPO 1400 BCFG=
0141102240999992014032505204+53048+008787FM-15+000499999V0201901N000512200019N006000199-00101-00101999999ADDGF100991999999999999999999MA1101201999990MW1121REMMET082METAR EDDW 250520Z 19001KT 6000 MIFG NSC M01/M01 Q1012 R88/190095 TEMPO      1400=
0135102240999992014032505504+53048+008787FM-15+000499999V0209999V000512200019N008000199+00001+00001999999ADDGF100991999999999999999999MA1101201999990REMMET082METAR EDDW 250550Z VRB01KT 8000 NSC M00/M00 Q1012 R88/190095 TEMPO      1400 BCFG=
0091102240999992014032506204+53048+008787FM-15+000499999V0202301N001019999999Y999999999+00001+00001999999ADDMA1101201999990REMMET064METAR EDDW 250620Z 23002KT CAVOK M00/M00 Q1012 R88/190095 NOSIG=
0089102240999992014032506504+53048+008787FM-15+000499999V0202201N001019999999Y999999999+00101+00101999999ADDMA1101201999990REMMET062METAR EDDW 250650Z 22002KT CAVOK 01/01 Q1012 R88/190095 NOSIG=
0089102240999992014032507204+53048+008787FM-15+000499999V0209999V000519999999Y999999999+00201+00201999999ADDMA1101101999990REMMET062METAR EDDW 250720Z VRB01KT CAVOK 02/02 Q1011 R88/190095 NOSIG=
0089102240999992014032507504+53048+008787FM-15+000499999V0209999V000519999999Y999999999+00401+00401999999ADDMA1101201999990REMMET062METAR EDDW 250750Z VRB01KT CAVOK 04/04 Q1012 R88/190095 NOSIG=
0187102240999992014032508204+53048+008787FM-15+000499999V0209999V001010213419N009999199+00601+00401999999ADDGA1021+010061991GA2071+021341991GE19MSL   +99999+99999GF199999021990010061991991MA1101201999990REMMET080METAR EDDW 250820Z VRB02KT 9999 FEW033 BKN070 06/04 Q1012 R88/190095      NOSIG=
0177102240999992014032508504+53048+008787FM-15+000499999V0209999V001010213419N009999199+00701+00301999999ADDGA1021+007011991GA2071+021341991GE19MSL   +99999+99999GF199999021990007011991991MA1101201999990REMMET070METAR EDDW 250850Z VRB02KT 9999 FEW023 BKN070 07/03 Q1012 R88/D NOSIG=
0190102240999992014032509204+53048+008787FM-15+000499999V0201301V001510213419N009999199+00701+00301999999ADDGA1021+007011991GA2071+021341991GE19MSL   +99999+99999GF199999021990007011991991MA1101201999990REMMET083METAR EDDW 250920Z 13003KT 050V180 9999 FEW023 BKN070 07/03 Q1012 R88/D      NOSIG=
0179102240999992014032509504+53048+008787FM-15+000499999V0200201V00151021341CN009999199+00701+00301999999ADDGA1041+007011991GA2041+021341991GE19MSL   +99999+99999GF199999041990007011991991MA1101201999990REMMET072METAR EDDW 250950Z 02003KT 340V080 9999 SCT023 SCT070 07/03 Q1012 NOSIG=
0171102240999992014032510204+53048+008787FM-15+000499999V0209999V00101021341CN009999199+00801+00201999999ADDGA1041+007621991GA2041+021341991GE19MSL   +99999+99999GF199999041990007621991991MA1101101999990REMMET064METAR EDDW 251020Z VRB02KT 9999 SCT025 SCT070 08/02 Q1011 NOSIG=
0156102240999992014032510504+53048+008787FM-15+000499999V0200401V002110091419N009999199+00701+00201999999ADDGA1071+009141991GE19MSL   +99999+99999GF199999071990009141991991MA1101101999990REMMET065METAR EDDW 251050Z 04004KT 320V080 9999 BKN030 07/02 Q1011 NOSIG=
0156102240999992014032511204+53048+008787FM-15+000499999V0209999V002110082319N009999199+00901+00201999999ADDGA1071+008231081GE19MSL   +99999+99999GF199999071990008231991991MA1101101999990REMMET065METAR EDDW 251120Z VRB04KT 9999 BKN027TCU 09/02 Q1011 TEMPO SHRA=
0181102240999992014032511504+53048+008787FM-15+000499999V0202501V002610082319N009999199+00801+00201999999ADDGA1071+008231081GE19MSL   +99999+99999GF199999071990008231991991MA1101101999990MW1801REMMET084METAR EDDW 251150Z 25005KT 230V300 9999 -SHRA BKN027TCU 08/02 Q1011      TEMPO SHRA=
0156102240999992014032512204+53048+008787FM-15+000499999V0202301N003110082319N009999199+00701+00201999999ADDGA1071+008231081GE19MSL   +99999+99999GF199999071990008231991991MA1101101999990REMMET065METAR EDDW 251220Z 23006KT 9999 BKN027TCU 07/02 Q1011 TEMPO SHRA=
0156102240999992014032512504+53048+008787FM-15+000499999V0202401N003110091419N009999199+00701+00001999999ADDGA1071+009141081GE19MSL   +99999+99999GF199999071990009141991991MA1101101999990REMMET065METAR EDDW 251250Z 24006KT 9999 BKN030TCU 07/00 Q1011 TEMPO SHRA=
0178102240999992014032513204+53048+008787FM-15+000499999V0202901N00411009141CN009999199+00801+00201999999ADDGA1021+007621091GA2041+009141991GE19MSL   +99999+99999GF199999021990007621991991MA1101001999990REMMET071METAR EDDW 251320Z 29008KT 9999 FEW025CB SCT030 08/02 Q1010 TEMPO SHRA=
0191102240999992014032513504+53048+008787FM-15+000499999V0203301V00621010061CN009999199+00801+00101999999ADDGA1021+007621091GA2041+010061991GE19MSL   +99999+99999GF199999021990007621991991MA1101001999990REMMET084METAR EDDW 251350Z 33012KT 280V350 9999 FEW025CB SCT033 08/01 Q1010      TEMPO SHRA=
0191102240999992014032514204+53048+008787FM-15+000499999V0203101V00461010061CN009999199+00901+00101999999ADDGA1021+007621091GA2041+010061991GE19MSL   +99999+99999GF199999021990007621991991MA1101101999990REMMET084METAR EDDW 251420Z 31009KT 270V360 9999 FEW025CB SCT033 09/01 Q1011      TEMPO SHRA=
0191102240999992014032514504+53048+008787FM-15+000499999V0203301V00511010671CN009999199+00901+00001999999ADDGA1021+007621091GA2041+010671991GE19MSL   +99999+99999GF199999021990007621991991MA1101001999990REMMET084METAR EDDW 251450Z 33010KT 300V010 9999 FEW025CB SCT035 09/00 Q1010      TEMPO SHRA=
0178102240999992014032515204+53048+008787FM-15+000499999V0203201N00511010671CN009999199+00901+00001999999ADDGA1021+007621091GA2041+010671991GE19MSL   +99999+99999GF199999021990007621991991MA1101001999990REMMET071METAR EDDW 251520Z 32010KT 9999 FEW025CB SCT035 09/00 Q1010 TEMPO SHRA=
0191102240999992014032515504+53048+008787FM-15+000499999V0203101V00411011281CN009999199+00901+00101999999ADDGA1021+007621091GA2041+011281991GE19MSL   +99999+99999GF199999021990007621991991MA1101001999990REMMET084METAR EDDW 251550Z 31008KT 280V340 9999 FEW025CB SCT037 09/01 Q1010      TEMPO SHRA=
0184102240999992014032516204+53048+008787FM-15+000499999V0203401N00461011281CN009999199+00901+00001999999ADDGA1021+007621091GA2041+011281991GE19MSL   +99999+99999GF199999021990007621991991MA1101001999990REMMET077METAR EDDW 251620Z 34009KT 9999 FEW025CB SCT037 09/M00 Q1010 TEMPO      SHRA=
0150102240999992014032516504+53048+008787FM-15+000499999V0203501N005719999999N009999199+00801+00101999999ADDGA1021+007621091GE19MSL   +99999+99999GF199999021990007621991991MA1101101999990REMMET059METAR EDDW 251650Z 35011KT 9999 FEW025CB 08/01 Q1011 NOSIG=
0173102240999992014032517204+53048+008787FM-15+000499999V0203401N00411021341CN009999199+00801+00001999999ADDGA1021+007621091GA2041+021341991GE19MSL   +99999+99999GF199999021990007621991991MA1101101999990REMMET066METAR EDDW 251720Z 34008KT 9999 FEW025CB SCT070 08/00 Q1011 NOSIG=
0174102240999992014032517504+53048+008787FM-15+000499999V0203301N00411018291CN009999199+00701+00001999999ADDGA1021+007621091GA2041+018291991GE19MSL   +99999+99999GF199999021990007621991991MA1101101999990REMMET067METAR EDDW 251750Z 33008KT 9999 FEW025CB SCT060 07/M00 Q1011 NOSIG=
0150102240999992014032518204+53048+008787FM-15+000499999V0203201N003619999999N009999199+00701+00001999999ADDGA1021+007621091GE19MSL   +99999+99999GF199999021990007621991991MA1101101999990REMMET059METAR EDDW 251820Z 32007KT 9999 FEW025CB 07/00 Q1011 NOSIG=
0150102240999992014032518504+53048+008787FM-15+000499999V0203201N003119999999N009999199+00601+00001999999ADDGA1021+007621091GE19MSL   +99999+99999GF199999021990007621991991MA1101101999990REMMET059METAR EDDW 251850Z 32006KT 9999 FEW025CB 06/00 Q1011 NOSIG=
0156102240999992014032519204+53048+008787FM-15+000499999V0203201V002619999999N009999199+00601+00101999999ADDGA1021+008531991GE19MSL   +99999+99999GF199999021990008531991991MA1101101999990REMMET065METAR EDDW 251920Z 32005KT 300V360 9999 FEW028 06/01 Q1011 NOSIG=
0078102240999992014032519504+53048+008787FM-15+000499999V0202901N003119999999Y999999999+00301+00001999999ADDMA1101101999990REMMET051METAR EDDW 251950Z 29006KT CAVOK 03/00 Q1011 NOSIG=
0078102240999992014032520204+53048+008787FM-15+000499999V0203601N004119999999Y999999999+00601+00201999999ADDMA1101101999990REMMET051METAR EDDW 252020Z 36008KT CAVOK 06/02 Q1011 NOSIG=
0078102240999992014032520504+53048+008787FM-15+000499999V0203601N003119999999Y999999999+00501+00101999999ADDMA1101101999990REMMET051METAR EDDW 252050Z 36006KT CAVOK 05/01 Q1011 NOSIG=
0072102240999992014032521204+53048+008787FM-15+000499999V0203501N002119999999Y999999999+00501+00101999999ADDMA1101101999990REMMET045METAR EDDW 252120Z 35004KT CAVOK 05/01 Q1011=
0072102240999992014032521504+53048+008787FM-15+000499999V0203201N002619999999Y999999999+00401+00201999999ADDMA1101201999990REMMET045METAR EDDW 252150Z 32005KT CAVOK 04/02 Q1012=
0072102240999992014032522204+53048+008787FM-15+000499999V0203201N002119999999Y999999999+00301+00101999999ADDMA1101201999990REMMET045METAR EDDW 252220Z 32004KT CAVOK 03/01 Q1012=
0072102240999992014032522504+53048+008787FM-15+000499999V0202801N002619999999Y999999999+00101+00001999999ADDMA1101201999990REMMET045METAR EDDW 252250Z 28005KT CAVOK 01/00 Q1012=
0072102240999992014032523204+53048+008787FM-15+000499999V0203001N002119999999Y999999999+00201+00101999999ADDMA1101101999990REMMET045METAR EDDW 252320Z 30004KT CAVOK 02/01 Q1011=
0072102240999992014032523504+53048+008787FM-15+000499999V0203101N003119999999Y999999999+00301+00101999999ADDMA1101101999990REMMET045METAR EDDW 252350Z 31006KT CAVOK 03/01 Q1011=
0073102240999992014032600204+53048+008787FM-15+000499999V0202901N002619999999Y999999999+00101+00001999999ADDMA1101101999990REMMET046METAR EDDW 260020Z 29005KT CAVOK 01/M00 Q1011=
0072102240999992014032600504+53048+008787FM-15+000499999V0203001N003119999999Y999999999+00201+00101999999ADDMA1101101999990REMMET045METAR EDDW 260050Z 30006KT CAVOK 02/01 Q1011=
0072102240999992014032601204+53048+008787FM-15+000499999V0209999V001019999999Y999999999+00101+00001999999ADDMA1101101999990REMMET045METAR EDDW 260120Z VRB02KT CAVOK 01/00 Q1011=
0072102240999992014032601504+53048+008787FM-15+000499999V0202901N001519999999Y999999999+00101+00101999999ADDMA1101101999990REMMET045METAR EDDW 260150Z 29003KT CAVOK 01/01 Q1011=
0072102240999992014032602204+53048+008787FM-15+000499999V0202601N001019999999Y999999999+00101+00101999999ADDMA1101101999990REMMET045METAR EDDW 260220Z 26002KT CAVOK 01/01 Q1011=
0072102240999992014032602504+53048+008787FM-15+000499999V0202401N001519999999Y999999999+00101+00101999999ADDMA1101101999990REMMET045METAR EDDW 260250Z 24003KT CAVOK 01/01 Q1011=
0072102240999992014032603204+53048+008787FM-15+000499999V0202301N001519999999Y999999999+00101+00101999999ADDMA1101101999990REMMET045METAR EDDW 260320Z 23003KT CAVOK 01/01 Q1011=
0072102240999992014032603504+53048+008787FM-15+000499999V0202301N001519999999Y999999999+00101+00101999999ADDMA1101101999990REMMET045METAR EDDW 260350Z 23003KT CAVOK 01/01 Q1011=
0078102240999992014032604204+53048+008787FM-15+000499999V0202401N001519999999Y999999999+00101+00101999999ADDMA1101101999990REMMET051METAR EDDW 260420Z 24003KT CAVOK 01/01 Q1011 NOSIG=
0171102240999992014032604504+53048+008787FM-15+000499999V0202101N001510762019N009999199+00101+00101999999ADDGA1021+007621991GA2071+076201991GE19MSL   +99999+99999GF199999021990007621991991MA1101101999990REMMET064METAR EDDW 260450Z 21003KT 9999 FEW025 BKN250 01/01 Q1011 NOSIG=
0182102240999992014032605204+53048+008787FM-15+000499999V0202301N001010762019N009999199+00101+00101999999ADDGA1021+007621991GA2071+076201991GE19MSL   +99999+99999GF199999021990007621991991MA1101101999990MW1121REMMET069METAR EDDW 260520Z 23002KT 9999 MIFG FEW025 BKN250 01/01 Q1011 NOSIG=
0179102240999992014032605504+53048+008787FM-15+000499999V0202501V001510762019N009999199+00101+00001999999ADDGA1021+007621991GA2071+076201991GE19MSL   +99999+99999GF199999021990007621991991MA1101201999990REMMET072METAR EDDW 260550Z 25003KT 210V270 9999 FEW025 BKN250 01/00 Q1012 NOSIG=
0171102240999992014032606204+53048+008787FM-15+000499999V0202101N001510762019N009999199+00101+00101999999ADDGA1021+007621991GA2071+076201991GE19MSL   +99999+99999GF199999021990007621991991MA1101201999990REMMET064METAR EDDW 260620Z 21003KT 9999 FEW025 BKN250 01/01 Q1012 NOSIG=
0207102240999992014032606504+53048+008787FM-15+000499999V0202101V00211014631CN009999199+00301+00201999999ADDGA1021+007621991GA2041+014631991GA3071+076201991GE19MSL   +99999+99999GF199999021990007621991991MA1101201999990REMMET084METAR EDDW 260650Z 21004KT 150V240 9999 FEW025 SCT048 BKN250 03/02      Q1012 NOSIG=
0207102240999992014032607204+53048+008787FM-15+000499999V0202001V00151014631CN009999199+00301+00201999999ADDGA1021+007621991GA2041+014631991GA3071+076201991GE19MSL   +99999+99999GF199999021990007621991991MA1101301999990REMMET084METAR EDDW 260720Z 20003KT 170V250 9999 FEW025 SCT048 BKN250 03/02      Q1013 NOSIG=
0207102240999992014032607504+53048+008787FM-15+000499999V0201901V00211014631CN009999199+00401+00301999999ADDGA1021+007621991GA2041+014631991GA3071+076201991GE19MSL   +99999+99999GF199999021990007621991991MA1101301999990REMMET084METAR EDDW 260750Z 19004KT 150V230 9999 FEW025 SCT048 BKN250 04/03      Q1013 NOSIG=
0207102240999992014032608204+53048+008787FM-15+000499999V0201701V00261027431CN009999199+00601+00301999999ADDGA1021+012801991GA2041+027431991GA3071+076201991GE19MSL   +99999+99999GF199999021990012801991991MA1101301999990REMMET084METAR EDDW 260820Z 17005KT 150V220 9999 FEW042 SCT090 BKN250 06/03      Q1013 NOSIG=
0207102240999992014032608504+53048+008787FM-15+000499999V0202201V00211027431CN009999199+00601+00301999999ADDGA1021+012801991GA2041+027431991GA3071+076201991GE19MSL   +99999+99999GF199999021990012801991991MA1101401999990REMMET084METAR EDDW 260850Z 22004KT 180V260 9999 FEW042 SCT090 BKN250 06/03      Q1014 NOSIG=
0207102240999992014032609204+53048+008787FM-15+000499999V0202201V00311018291CN009999199+00701+00301999999ADDGA1021+011581991GA2041+018291991GA3071+076201991GE19MSL   +99999+99999GF199999021990011581991991MA1101401999990REMMET084METAR EDDW 260920Z 22006KT 170V260 9999 FEW038 SCT060 BKN250 07/03      Q1014 NOSIG=
0179102240999992014032609504+53048+008787FM-15+000499999V0202101V003110762019N009999199+00801+00201999999ADDGA1041+009141991GA2071+076201991GE19MSL   +99999+99999GF199999041990009141991991MA1101401999990REMMET072METAR EDDW 260950Z 21006KT 160V240 9999 SCT030 BKN250 08/02 Q1014 NOSIG=
0179102240999992014032610204+53048+008787FM-15+000499999V0201701V003610762019N009999199+00901+00201999999ADDGA1041+009141991GA2071+076201991GE19MSL   +99999+99999GF199999041990009141991991MA1101401999990REMMET072METAR EDDW 261020Z 17007KT 130V240 9999 SCT030 BKN250 09/02 Q1014 NOSIG=
0179102240999992014032610504+53048+008787FM-15+000499999V0201701V003610762019N009999199+00901+00001999999ADDGA1041+010361991GA2071+076201991GE19MSL   +99999+99999GF199999041990010361991991MA1101401999990REMMET072METAR EDDW 261050Z 17007KT 130V210 9999 SCT034 BKN250 09/00 Q1014 NOSIG=
0185102240999992014032611204+53048+008787FM-15+000499999V0201401V003610762019N009999199+00801+00001999999ADDGA1041+011581991GA2071+076201991GE19MSL   +99999+99999GF199999041990011581991991MA1101501999990REMMET078METAR EDDW 261120Z 14007KT 110V190 9999 SCT038 BKN250 08/M00 Q1015      NOSIG=
0197102240999992014032611504+53048+008787FM-15+000499999V0201701V004110106719N009999199+00901+00001999999ADDGA1071+010671991GA2041+076201991GE19MSL   +99999+99999GF199999071990010671991991MA1101501999990MW1801REMMET084METAR EDDW 261150Z 17008KT 140V200 9999 -SHRA BKN035 SCT250 09/M00      Q1015 NOSIG=
0179102240999992014032612204+53048+008787FM-15+000499999V0201401V00461076201CN009999199+01001+00001999999ADDGA1041+012191991GA2041+076201991GE19MSL   +99999+99999GF199999041990012191991991MA1101501999990REMMET072METAR EDDW 261220Z 14009KT 080V180 9999 SCT040 SCT250 10/00 Q1015 NOSIG=
0172102240999992014032612504+53048+008787FM-15+000499999V0201501N00461076201CN009999199+01001-00101999999ADDGA1041+013721991GA2041+076201991GE19MSL   +99999+99999GF199999041990013721991991MA1101501999990REMMET065METAR EDDW 261250Z 15009KT 9999 SCT045 SCT250 10/M01 Q1015 NOSIG=
0157102240999992014032613204+53048+008787FM-15+000499999V0201401V005119999999N009999199+00901-00101999999ADDGA1041+013721991GE19MSL   +99999+99999GF199999041990013721991991MA1101501999990REMMET066METAR EDDW 261320Z 14010KT 110V170 9999 SCT045 09/M01 Q1015 NOSIG=
0149102240999992014032613504+53048+008787FM-15+000499999V0201401N005119999999N009999199+01001-00101999999ADDGA1041+013721991GE19MSL   +99999+99999GF199999041990013721991991MA1101501999990REMMET058METAR EDDW 261350Z 14010KT 9999 SCT045 10/M01 Q1015 NOSIG=
0157102240999992014032614204+53048+008787FM-15+000499999V0201401V005119999999N009999199+01001-00101999999ADDGA1041+013721991GE19MSL   +99999+99999GF199999041990013721991991MA1101501999990REMMET066METAR EDDW 261420Z 14010KT 110V180 9999 SCT045 10/M01 Q1015 NOSIG=
0157102240999992014032614504+53048+008787FM-15+000499999V0201301V003619999999N009999199+01001-00101999999ADDGA1041+013721991GE19MSL   +99999+99999GF199999041990013721991991MA1101501999990REMMET066METAR EDDW 261450Z 13007KT 080V170 9999 SCT045 10/M01 Q1015 NOSIG=
0149102240999992014032615204+53048+008787FM-15+000499999V0201301N006719999999N009999199+01001-00101999999ADDGA1041+014631991GE19MSL   +99999+99999GF199999041990014631991991MA1101501999990REMMET058METAR EDDW 261520Z 13013KT 9999 SCT048 10/M01 Q1015 NOSIG=
0168102240999992014032615504+53048+008787FM-15+000499999V0201201V003619999999N009999199+01001-00101999999ADDGA1021+014631991GE19MSL   +99999+99999GF199999021990014631991991MA1101501999990MW1161REMMET071METAR EDDW 261550Z 12007KT 090V150 9999 VCSH FEW048 10/M01 Q1015 NOSIG=
0196102240999992014032616204+53048+008787FM-15+000499999V0201001V00261030481CN009999199+01001-00101999999ADDGA1021+014631991GA2041+030481991GE19MSL   +99999+99999GF199999021990014631991991MA1101601999990MW1161REMMET083METAR EDDW 261620Z 10005KT 070V140 9999 VCSH FEW048 SCT100 10/M01 Q1016      NOSIG=
0149102240999992014032616504+53048+008787FM-15+000499999V0201101N004619999999N009999199+01001-00201999999ADDGA1021+014631991GE19MSL   +99999+99999GF199999021990014631991991MA1101601999990REMMET058METAR EDDW 261650Z 11009KT 9999 FEW048 10/M02 Q1016 NOSIG=
0149102240999992014032617204+53048+008787FM-15+000499999V0201001N003119999999N009999199+00901-00101999999ADDGA1021+013721991GE19MSL   +99999+99999GF199999021990013721991991MA1101601999990REMMET058METAR EDDW 261720Z 10006KT 9999 FEW045 09/M01 Q1016 NOSIG=
0078102240999992014032617504+53048+008787FM-15+000499999V0201201N007219999999Y999999999+00901+00001999999ADDMA1101701999990REMMET051METAR EDDW 261750Z 12014KT CAVOK 09/00 Q1017 NOSIG=
0078102240999992014032618204+53048+008787FM-15+000499999V0201101N004619999999Y999999999+00701+00101999999ADDMA1101701999990REMMET051METAR EDDW 261820Z 11009KT CAVOK 07/01 Q1017 NOSIG=
0078102240999992014032618504+53048+008787FM-15+000499999V0201001N004619999999Y999999999+00701+00001999999ADDMA1101801999990REMMET051METAR EDDW 261850Z 10009KT CAVOK 07/00 Q1018 NOSIG=
0078102240999992014032619204+53048+008787FM-15+000499999V0200801N004119999999Y999999999+00601+00101999999ADDMA1101801999990REMMET051METAR EDDW 261920Z 08008KT CAVOK 06/01 Q1018 NOSIG=
0078102240999992014032619504+53048+008787FM-15+000499999V0200801N004119999999Y999999999+00601+00101999999ADDMA1101801999990REMMET051METAR EDDW 261950Z 08008KT CAVOK 06/01 Q1018 NOSIG=
0078102240999992014032620204+53048+008787FM-15+000499999V0200901N004619999999Y999999999+00601+00101999999ADDMA1101801999990REMMET051METAR EDDW 262020Z 09009KT CAVOK 06/01 Q1018 NOSIG=
0078102240999992014032620504+53048+008787FM-15+000499999V0200801N005119999999Y999999999+00601+00101999999ADDMA1101801999990REMMET051METAR EDDW 262050Z 08010KT CAVOK 06/01 Q1018 NOSIG=
0072102240999992014032621204+53048+008787FM-15+000499999V0200901N006219999999Y999999999+00701+00201999999ADDMA1101801999990REMMET045METAR EDDW 262120Z 09012KT CAVOK 07/02 Q1018=
0072102240999992014032621504+53048+008787FM-15+000499999V0200901N006219999999Y999999999+00601+00201999999ADDMA1101901999990REMMET045METAR EDDW 262150Z 09012KT CAVOK 06/02 Q1019=
0072102240999992014032622204+53048+008787FM-15+000499999V0200901N005719999999Y999999999+00601+00101999999ADDMA1101901999990REMMET045METAR EDDW 262220Z 09011KT CAVOK 06/01 Q1019=
0072102240999992014032622504+53048+008787FM-15+000499999V0200801N005119999999Y999999999+00501+00201999999ADDMA1101901999990REMMET045METAR EDDW 262250Z 08010KT CAVOK 05/02 Q1019=
0072102240999992014032623204+53048+008787FM-15+000499999V0200801N004619999999Y999999999+00401+00101999999ADDMA1101901999990REMMET045METAR EDDW 262320Z 08009KT CAVOK 04/01 Q1019=
0072102240999992014032623504+53048+008787FM-15+000499999V0200801N004619999999Y999999999+00501+00201999999ADDMA1101901999990REMMET045METAR EDDW 262350Z 08009KT CAVOK 05/02 Q1019=
0072102240999992014032700204+53048+008787FM-15+000499999V0200801N005119999999Y999999999+00401+00201999999ADDMA1101901999990REMMET045METAR EDDW 270020Z 08010KT CAVOK 04/02 Q1019=
0072102240999992014032700504+53048+008787FM-15+000499999V0200701N004119999999Y999999999+00401+00201999999ADDMA1101901999990REMMET045METAR EDDW 270050Z 07008KT CAVOK 04/02 Q1019=
0072102240999992014032701204+53048+008787FM-15+000499999V0200701N003619999999Y999999999+00301+00101999999ADDMA1101801999990REMMET045METAR EDDW 270120Z 07007KT CAVOK 03/01 Q1018=
0072102240999992014032701504+53048+008787FM-15+000499999V0200701N004119999999Y999999999+00301+00101999999ADDMA1101801999990REMMET045METAR EDDW 270150Z 07008KT CAVOK 03/01 Q1018=
0072102240999992014032702204+53048+008787FM-15+000499999V0200801N004619999999Y999999999+00401+00201999999ADDMA1101801999990REMMET045METAR EDDW 270220Z 08009KT CAVOK 04/02 Q1018=
0072102240999992014032702504+53048+008787FM-15+000499999V0200801N004619999999Y999999999+00301+00201999999ADDMA1101801999990REMMET045METAR EDDW 270250Z 08009KT CAVOK 03/02 Q1018=
0072102240999992014032703204+53048+008787FM-15+000499999V0200701N006219999999Y999999999+00401+00201999999ADDMA1101801999990REMMET045METAR EDDW 270320Z 07012KT CAVOK 04/02 Q1018=
0078102240999992014032703504+53048+008787FM-15+000499999V0200601N005119999999Y999999999+00301+00101999999ADDMA1101801999990REMMET051METAR EDDW 270350Z 06010KT CAVOK 03/01 Q1018 NOSIG=
0078102240999992014032704204+53048+008787FM-15+000499999V0200701N005719999999Y999999999+00301+00101999999ADDMA1101801999990REMMET051METAR EDDW 270420Z 07011KT CAVOK 03/01 Q1018 NOSIG=
0078102240999992014032704504+53048+008787FM-15+000499999V0200701N006219999999Y999999999+00301+00101999999ADDMA1101801999990REMMET051METAR EDDW 270450Z 07012KT CAVOK 03/01 Q1018 NOSIG=
0078102240999992014032705204+53048+008787FM-15+000499999V0200601N006219999999Y999999999+00301+00101999999ADDMA1101801999990REMMET051METAR EDDW 270520Z 06012KT CAVOK 03/01 Q1018 NOSIG=
0078102240999992014032705504+53048+008787FM-15+000499999V0200701N005119999999Y999999999+00301+00201999999ADDMA1101801999990REMMET051METAR EDDW 270550Z 07010KT CAVOK 03/02 Q1018 NOSIG=
0078102240999992014032706204+53048+008787FM-15+000499999V0200701N005119999999Y999999999+00301+00201999999ADDMA1101901999990REMMET051METAR EDDW 270620Z 07010KT CAVOK 03/02 Q1019 NOSIG=
0078102240999992014032706504+53048+008787FM-15+000499999V0200701N006219999999Y999999999+00401+00201999999ADDMA1101901999990REMMET051METAR EDDW 270650Z 07012KT CAVOK 04/02 Q1019 NOSIG=
0078102240999992014032707204+53048+008787FM-15+000499999V0200801N006719999999Y999999999+00501+00301999999ADDMA1101901999990REMMET051METAR EDDW 270720Z 08013KT CAVOK 05/03 Q1019 NOSIG=
0078102240999992014032707504+53048+008787FM-15+000499999V0200801N006719999999Y999999999+00601+00201999999ADDMA1101901999990REMMET051METAR EDDW 270750Z 08013KT CAVOK 06/02 Q1019 NOSIG=
0078102240999992014032708204+53048+008787FM-15+000499999V0200801N006219999999Y999999999+00701+00301999999ADDMA1101901999990REMMET051METAR EDDW 270820Z 08012KT CAVOK 07/03 Q1019 NOSIG=
0078102240999992014032708504+53048+008787FM-15+000499999V0200901N006719999999Y999999999+00801+00201999999ADDMA1101901999990REMMET051METAR EDDW 270850Z 09013KT CAVOK 08/02 Q1019 NOSIG=
0078102240999992014032709204+53048+008787FM-15+000499999V0200801N007719999999Y999999999+00901+00301999999ADDMA1101801999990REMMET051METAR EDDW 270920Z 08015KT CAVOK 09/03 Q1018 NOSIG=
0078102240999992014032709504+53048+008787FM-15+000499999V0200801N008819999999Y999999999+00901+00301999999ADDMA1101801999990REMMET051METAR EDDW 270950Z 08017KT CAVOK 09/03 Q1018 NOSIG=
0078102240999992014032710204+53048+008787FM-15+000499999V0200801N008219999999Y999999999+01001+00301999999ADDMA1101801999990REMMET051METAR EDDW 271020Z 08016KT CAVOK 10/03 Q1018 NOSIG=
0078102240999992014032710504+53048+008787FM-15+000499999V0200801N007219999999Y999999999+01101+00301999999ADDMA1101801999990REMMET051METAR EDDW 271050Z 08014KT CAVOK 11/03 Q1018 NOSIG=
0148102240999992014032711204+53048+008787FM-15+000499999V0200901N006719999999N009999199+01101+00201999999ADDGA1021+009751991GE19MSL   +99999+99999GF199999021990009751991991MA1101701999990REMMET057METAR EDDW 271120Z 09013KT 9999 FEW032 11/02 Q1017 NOSIG=
0156102240999992014032711504+53048+008787FM-15+000499999V0200901V006219999999N009999199+01201+00201999999ADDGA1041+010671991GE19MSL   +99999+99999GF199999041990010671991991MA1101701999990REMMET065METAR EDDW 271150Z 09012KT 060V130 9999 SCT035 12/02 Q1017 NOSIG=
0167102240999992014032712204+53048+008787FM-15+000499999V0201001V006219999999N009999199+01201+00201999999ADDGA1041+012191991GE19MSL   +99999+99999GF199999041990012191991991MA1101701999990REMMET076METAR EDDW 271220Z 10012KT 070V140 9999 SCT040 12/02 Q1017 TEMPO 10015G25KT=
0159102240999992014032712504+53048+008787FM-15+000499999V0201001N005719999999N009999199+01101+00101999999ADDGA1041+012801991GE19MSL   +99999+99999GF199999041990012801991991MA1101601999990REMMET068METAR EDDW 271250Z 10011KT 9999 SCT042 11/01 Q1016 TEMPO 10015G25KT=
0167102240999992014032713204+53048+008787FM-15+000499999V0200901V006219999999N009999199+01301+00201999999ADDGA1041+014021991GE19MSL   +99999+99999GF199999041990014021991991MA1101601999990REMMET076METAR EDDW 271320Z 09012KT 060V130 9999 SCT046 13/02 Q1016 TEMPO 10015G25KT=
0159102240999992014032713504+53048+008787FM-15+000499999V0200801N006719999999N009999199+01201+00201999999ADDGA1041+014021991GE19MSL   +99999+99999GF199999041990014021991991MA1101601999990REMMET068METAR EDDW 271350Z 08013KT 9999 SCT046 12/02 Q1016 TEMPO 10015G25KT=
0159102240999992014032714204+53048+008787FM-15+000499999V0200801N006719999999N009999199+01301+00101999999ADDGA1041+014631991GE19MSL   +99999+99999GF199999041990014631991991MA1101601999990REMMET068METAR EDDW 271420Z 08013KT 9999 SCT048 13/01 Q1016 TEMPO 10015G25KT=
0086102240999992014032714504+53048+008787FM-15+000499999V0200801V006219999999Y999999999+01201+00001999999ADDMA1101501999990REMMET059METAR EDDW 271450Z 08012KT 050V130 CAVOK 12/00 Q1015 NOSIG=
0078102240999992014032715204+53048+008787FM-15+000499999V0200801N007219999999Y999999999+01201+00101999999ADDMA1101501999990REMMET051METAR EDDW 271520Z 08014KT CAVOK 12/01 Q1015 NOSIG=
0078102240999992014032715504+53048+008787FM-15+000499999V0200801N005719999999Y999999999+01201+00001999999ADDMA1101501999990REMMET051METAR EDDW 271550Z 08011KT CAVOK 12/00 Q1015 NOSIG=
0086102240999992014032716204+53048+008787FM-15+000499999V0201001V005719999999Y999999999+01101+00001999999ADDMA1101501999990REMMET059METAR EDDW 271620Z 10011KT 070V130 CAVOK 11/00 Q1015 NOSIG=
0078102240999992014032716504+53048+008787FM-15+000499999V0200801N005719999999Y999999999+01101+00101999999ADDMA1101601999990REMMET051METAR EDDW 271650Z 08011KT CAVOK 11/01 Q1016 NOSIG=
0078102240999992014032717204+53048+008787FM-15+000499999V0200801N006219999999Y999999999+01001+00101999999ADDMA1101601999990REMMET051METAR EDDW 271720Z 08012KT CAVOK 10/01 Q1016 NOSIG=
0078102240999992014032717504+53048+008787FM-15+000499999V0200801N006219999999Y999999999+01001+00101999999ADDMA1101601999990REMMET051METAR EDDW 271750Z 08012KT CAVOK 10/01 Q1016 NOSIG=
0078102240999992014032718204+53048+008787FM-15+000499999V0200601N006219999999Y999999999+00901+00201999999ADDMA1101601999990REMMET051METAR EDDW 271820Z 06012KT CAVOK 09/02 Q1016 NOSIG=
0078102240999992014032718504+53048+008787FM-15+000499999V0200601N006219999999Y999999999+00801+00301999999ADDMA1101701999990REMMET051METAR EDDW 271850Z 06012KT CAVOK 08/03 Q1017 NOSIG=
0078102240999992014032719204+53048+008787FM-15+000499999V0200701N006219999999Y999999999+00701+00401999999ADDMA1101701999990REMMET051METAR EDDW 271920Z 07012KT CAVOK 07/04 Q1017 NOSIG=
0078102240999992014032719504+53048+008787FM-15+000499999V0200701N006719999999Y999999999+00701+00301999999ADDMA1101701999990REMMET051METAR EDDW 271950Z 07013KT CAVOK 07/03 Q1017 NOSIG=
0078102240999992014032720204+53048+008787FM-15+000499999V0200701N006719999999Y999999999+00601+00301999999ADDMA1101801999990REMMET051METAR EDDW 272020Z 07013KT CAVOK 06/03 Q1018 NOSIG=
0078102240999992014032720504+53048+008787FM-15+000499999V0200701N006219999999Y999999999+00601+00301999999ADDMA1101801999990REMMET051METAR EDDW 272050Z 07012KT CAVOK 06/03 Q1018 NOSIG=
0072102240999992014032721204+53048+008787FM-15+000499999V0200701N005719999999Y999999999+00501+00301999999ADDMA1101801999990REMMET045METAR EDDW 272120Z 07011KT CAVOK 05/03 Q1018=
0072102240999992014032721504+53048+008787FM-15+000499999V0200701N005119999999Y999999999+00401+00301999999ADDMA1101801999990REMMET045METAR EDDW 272150Z 07010KT CAVOK 04/03 Q1018=
0072102240999992014032722204+53048+008787FM-15+000499999V0200701N005119999999Y999999999+00401+00201999999ADDMA1101801999990REMMET045METAR EDDW 272220Z 07010KT CAVOK 04/02 Q1018=
0072102240999992014032722504+53048+008787FM-15+000499999V0200701N004119999999Y999999999+00401+00201999999ADDMA1101801999990REMMET045METAR EDDW 272250Z 07008KT CAVOK 04/02 Q1018=
0072102240999992014032723204+53048+008787FM-15+000499999V0200701N004119999999Y999999999+00401+00201999999ADDMA1101901999990REMMET045METAR EDDW 272320Z 07008KT CAVOK 04/02 Q1019=
0072102240999992014032723504+53048+008787FM-15+000499999V0200701N003619999999Y999999999+00301+00201999999ADDMA1101901999990REMMET045METAR EDDW 272350Z 07007KT CAVOK 03/02 Q1019=
0072102240999992014032800204+53048+008787FM-15+000499999V0200701N003619999999Y999999999+00301+00201999999ADDMA1101901999990REMMET045METAR EDDW 280020Z 07007KT CAVOK 03/02 Q1019=
0072102240999992014032800504+53048+008787FM-15+000499999V0200701N003619999999Y999999999+00301+00201999999ADDMA1101901999990REMMET045METAR EDDW 280050Z 07007KT CAVOK 03/02 Q1019=
0072102240999992014032801204+53048+008787FM-15+000499999V0200601N004619999999Y999999999+00301+00201999999ADDMA1101901999990REMMET045METAR EDDW 280120Z 06009KT CAVOK 03/02 Q1019=
0072102240999992014032801504+53048+008787FM-15+000499999V0200701N005119999999Y999999999+00301+00201999999ADDMA1101901999990REMMET045METAR EDDW 280150Z 07010KT CAVOK 03/02 Q1019=
0072102240999992014032802204+53048+008787FM-15+000499999V0200701N005119999999Y999999999+00301+00201999999ADDMA1101901999990REMMET045METAR EDDW 280220Z 07010KT CAVOK 03/02 Q1019=
0072102240999992014032802504+53048+008787FM-15+000499999V0200601N005719999999Y999999999+00301+00201999999ADDMA1101901999990REMMET045METAR EDDW 280250Z 06011KT CAVOK 03/02 Q1019=
0072102240999992014032803204+53048+008787FM-15+000499999V0200701N005119999999Y999999999+00301+00201999999ADDMA1101901999990REMMET045METAR EDDW 280320Z 07010KT CAVOK 03/02 Q1019=
0085102240999992014032803504+53048+008787FM-15+000499999V0200701N004619999999Y999999999+00301+00201999999ADDMA1102001999990REMMET058METAR EDDW 280350Z 07009KT CAVOK 03/02 Q1020 BECMG BKN004=
0085102240999992014032804204+53048+008787FM-15+000499999V0200701N005119999999Y999999999+00201+00201999999ADDMA1102001999990REMMET058METAR EDDW 280420Z 07010KT CAVOK 02/02 Q1020 BECMG BKN004=
0163102240999992014032804504+53048+008787FM-15+000499999V0200701N005119999999N009000199+00201+00201999999ADDGA1021+001831991GE19MSL   +99999+99999GF199999021990001831991991MA1102001999990REMMET072METAR EDDW 280450Z 07010KT 9000 FEW006 02/02 Q1020 BECMG 4000 BR BKN004=
0191102240999992014032805204+53048+008787FM-15+000499999V0200701N00571076201CN007000199+00301+00201999999ADDGA1021+001831991GA2041+076201991GE19MSL   +99999+99999GF199999021990001831991991MA1102001999990REMMET084METAR EDDW 280520Z 07011KT 7000 FEW006 SCT250 03/02 Q1020 BECMG 4000      BR BKN004=
0197102240999992014032805504+53048+008787FM-15+000499999V0200701N005710762019N005000199+00301+00201999999ADDGA1021+001521991GA2071+076201991GE19MSL   +99999+99999GF199999021990001521991991MA1102101999990MW1101REMMET084METAR EDDW 280550Z 07011KT 5000 BR FEW005 BKN250 03/02 Q1021 BECMG      4000 BKN004=
0197102240999992014032806204+53048+008787FM-15+000499999V0200701N005710762019N005000199+00301+00301999999ADDGA1041+001831991GA2071+076201991GE19MSL   +99999+99999GF199999041990001831991991MA1102101999990MW1101REMMET084METAR EDDW 280620Z 07011KT 5000 BR SCT006 BKN250 03/03 Q1021 BECMG      4000 BKN004=
0197102240999992014032806504+53048+008787FM-15+000499999V0200701N006210762019N005000199+00401+00301999999ADDGA1041+001831991GA2071+076201991GE19MSL   +99999+99999GF199999041990001831991991MA1102101999990MW1101REMMET084METAR EDDW 280650Z 07012KT 5000 BR SCT006 BKN250 04/03 Q1021 BECMG      4000 BKN004=
0178102240999992014032807204+53048+008787FM-15+000499999V0200701N006210762019N006000199+00501+00401999999ADDGA1021+001831991GA2071+076201991GE19MSL   +99999+99999GF199999021990001831991991MA1102101999990REMMET071METAR EDDW 280720Z 07012KT 6000 FEW006 BKN250 05/04 Q1021 TEMPO BKN004=
0178102240999992014032807504+53048+008787FM-15+000499999V0200801N006710762019N007000199+00601+00401999999ADDGA1021+001831991GA2071+076201991GE19MSL   +99999+99999GF199999021990001831991991MA1102101999990REMMET071METAR EDDW 280750Z 08013KT 7000 FEW006 BKN250 06/04 Q1021 TEMPO BKN004=
0178102240999992014032808204+53048+008787FM-15+000499999V0200801N006210762019N008000199+00601+00401999999ADDGA1041+001831991GA2071+076201991GE19MSL   +99999+99999GF199999041990001831991991MA1102201999990REMMET071METAR EDDW 280820Z 08012KT 8000 SCT006 BKN250 06/04 Q1022 TEMPO BKN004=
0178102240999992014032808504+53048+008787FM-15+000499999V0200801N005710762019N009999199+00701+00501999999ADDGA1021+001831991GA2071+076201991GE19MSL   +99999+99999GF199999021990001831991991MA1102201999990REMMET071METAR EDDW 280850Z 08011KT 9999 FEW006 BKN250 07/05 Q1022 TEMPO BKN006=
0179102240999992014032809204+53048+008787FM-15+000499999V0200801V005710762019N009999199+00801+00501999999ADDGA1021+001831991GA2071+076201991GE19MSL   +99999+99999GF199999021990001831991991MA1102201999990REMMET072METAR EDDW 280920Z 08011KT 060V120 9999 FEW006 BKN250 08/05 Q1022 NOSIG=
0179102240999992014032809504+53048+008787FM-15+000499999V0200901V005110762019N009999199+00901+00501999999ADDGA1021+001831991GA2071+076201991GE19MSL   +99999+99999GF199999021990001831991991MA1102201999990REMMET072METAR EDDW 280950Z 09010KT 060V120 9999 FEW006 BKN250 09/05 Q1022 NOSIG=
0179102240999992014032810204+53048+008787FM-15+000499999V0200801V006210762019N009999199+00901+00501999999ADDGA1021+001831991GA2071+076201991GE19MSL   +99999+99999GF199999021990001831991991MA1102201999990REMMET072METAR EDDW 281020Z 08012KT 060V120 9999 FEW006 BKN250 09/05 Q1022 NOSIG=
0179102240999992014032810504+53048+008787FM-15+000499999V0201101V004610061019N009999199+01001+00501999999ADDGA1071+006101991GA2071+076201991GE19MSL   +99999+99999GF199999071990006101991991MA1102201999990REMMET072METAR EDDW 281050Z 11009KT 070V140 9999 BKN020 BKN250 10/05 Q1022 NOSIG=
0156102240999992014032811204+53048+008787FM-15+000499999V0200901V005110061019N009999199+01001+00501999999ADDGA1071+006101991GE19MSL   +99999+99999GF199999071990006101991991MA1102201999990REMMET065METAR EDDW 281120Z 09010KT 060V120 9999 BKN020 10/05 Q1022 NOSIG=
0148102240999992014032811504+53048+008787FM-15+000499999V0200601N004610061019N009999199+01001+00501999999ADDGA1071+006101991GE19MSL   +99999+99999GF199999071990006101991991MA1102201999990REMMET057METAR EDDW 281150Z 06009KT 9999 BKN020 10/05 Q1022 NOSIG=
0148102240999992014032812204+53048+008787FM-15+000499999V0201001N005710061019N009999199+01001+00501999999ADDGA1071+006101991GE19MSL   +99999+99999GF199999071990006101991991MA1102201999990REMMET057METAR EDDW 281220Z 10011KT 9999 BKN020 10/05 Q1022 NOSIG=
0171102240999992014032812504+53048+008787FM-15+000499999V0200801N005110762019N009999199+01001+00501999999ADDGA1021+006101991GA2071+076201991GE19MSL   +99999+99999GF199999021990006101991991MA1102201999990REMMET064METAR EDDW 281250Z 08010KT 9999 FEW020 BKN250 10/05 Q1022 NOSIG=
0179102240999992014032813204+53048+008787FM-15+000499999V0200701V005110079219N009999199+01001+00501999999ADDGA1071+007921991GA2071+076201991GE19MSL   +99999+99999GF199999071990007921991991MA1102201999990REMMET072METAR EDDW 281320Z 07010KT 040V110 9999 BKN026 BKN250 10/05 Q1022 NOSIG=
0171102240999992014032813504+53048+008787FM-15+000499999V0200701N004610079219N009999199+01001+00501999999ADDGA1071+007921991GA2071+076201991GE19MSL   +99999+99999GF199999071990007921991991MA1102201999990REMMET064METAR EDDW 281350Z 07009KT 9999 BKN026 BKN250 10/05 Q1022 NOSIG=
0179102240999992014032814204+53048+008787FM-15+000499999V0201001V005110079219N009999199+01001+00401999999ADDGA1071+007921991GA2071+076201991GE19MSL   +99999+99999GF199999071990007921991991MA1102101999990REMMET072METAR EDDW 281420Z 10010KT 070V130 9999 BKN026 BKN250 10/04 Q1021 NOSIG=
0207102240999992014032814504+53048+008787FM-15+000499999V0200901V00461033531CN009999199+01001+00401999999ADDGA1041+007921991GA2041+033531991GA3071+076201991GE19MSL   +99999+99999GF199999041990007921991991MA1102101999990REMMET084METAR EDDW 281450Z 09009KT 070V130 9999 SCT026 SCT110 BKN250 10/04      Q1021 NOSIG=
0194102240999992014032815204+53048+008787FM-15+000499999V0200801N00571033531CN009999199+01001+00401999999ADDGA1041+007921991GA2041+033531991GA3071+076201991GE19MSL   +99999+99999GF199999041990007921991991MA1102101999990REMMET071METAR EDDW 281520Z 08011KT 9999 SCT026 SCT110 BKN250 10/04 Q1021 NOSIG=
0171102240999992014032815504+53048+008787FM-15+000499999V0200901N005110762019N009999199+00901+00501999999ADDGA1021+009141991GA2071+076201991GE19MSL   +99999+99999GF199999021990009141991991MA1102101999990REMMET064METAR EDDW 281550Z 09010KT 9999 FEW030 BKN250 09/05 Q1021 NOSIG=
0171102240999992014032816204+53048+008787FM-15+000499999V0200701N005710762019N009999199+00901+00501999999ADDGA1021+009141991GA2071+076201991GE19MSL   +99999+99999GF199999021990009141991991MA1102101999990REMMET064METAR EDDW 281620Z 07011KT 9999 FEW030 BKN250 09/05 Q1021 NOSIG=
0194102240999992014032816504+53048+008787FM-15+000499999V0200701N00621033531CN009999199+00901+00501999999ADDGA1021+009141991GA2041+033531991GA3071+076201991GE19MSL   +99999+99999GF199999021990009141991991MA1102101999990REMMET071METAR EDDW 281650Z 07012KT 9999 FEW030 SCT110 BKN250 09/05 Q1021 NOSIG=
0078102240999992014032817204+53048+008787FM-15+000499999V0200701N005119999999Y999999999+00801+00501999999ADDMA1102101999990REMMET051METAR EDDW 281720Z 07010KT CAVOK 08/05 Q1021 NOSIG=
0078102240999992014032817504+53048+008787FM-15+000499999V0200801N007219999999Y999999999+00701+00401999999ADDMA1102101999990REMMET051METAR EDDW 281750Z 08014KT CAVOK 07/04 Q1021 NOSIG=
0155102240999992014032818204+53048+008787FM-15+000499999V0200801N005719999999N009999199+00701+00401999999ADDGA1021+004271991GE19MSL   +99999+99999GF199999021990004271991991MA1102201999990REMMET064METAR EDDW 281820Z 08011KT 9999 FEW014 07/04 Q1022 BECMG BKN013=
0148102240999992014032818504+53048+008787FM-15+000499999V0200901N006210039619N009999199+00801+00501999999ADDGA1071+003961991GE19MSL   +99999+99999GF199999071990003961991991MA1102201999990REMMET057METAR EDDW 281850Z 09012KT 9999 BKN013 08/05 Q1022 NOSIG=
0148102240999992014032819204+53048+008787FM-15+000499999V0201001N004610039619N009999199+00801+00501999999ADDGA1071+003961991GE19MSL   +99999+99999GF199999071990003961991991MA1102201999990REMMET057METAR EDDW 281920Z 10009KT 9999 BKN013 08/05 Q1022 NOSIG=
0155102240999992014032819504+53048+008787FM-15+000499999V0200901N005719999999N009999199+00701+00501999999ADDGA1041+003961991GE19MSL   +99999+99999GF199999041990003961991991MA1102201999990REMMET064METAR EDDW 281950Z 09011KT 9999 SCT013 07/05 Q1022 BECMG BKN013=
0148102240999992014032820204+53048+008787FM-15+000499999V0200901N005110036619N009999199+00701+00501999999ADDGA1071+003661991GE19MSL   +99999+99999GF199999071990003661991991MA1102201999990REMMET057METAR EDDW 282020Z 09010KT 9999 BKN012 07/05 Q1022 NOSIG=
0171102240999992014032820504+53048+008787FM-15+000499999V0200901N003610036619N009999199+00601+00501999999ADDGA1071+003661991GA2071+025601991GE19MSL   +99999+99999GF199999071990003661991991MA1102201999990REMMET064METAR EDDW 282050Z 09007KT 9999 BKN012 BKN084 06/05 Q1022 NOSIG=
0165102240999992014032821204+53048+008787FM-15+000499999V0201101N003110256019N009999199+00601+00401999999ADDGA1021+003661991GA2071+025601991GE19MSL   +99999+99999GF199999021990003661991991MA1102201999990REMMET058METAR EDDW 282120Z 11006KT 9999 FEW012 BKN084 06/04 Q1022=
0188102240999992014032821504+53048+008787FM-15+000499999V0201001N00261010671CN009999199+00601+00401999999ADDGA1041+003661991GA2041+010671991GA3071+025601991GE19MSL   +99999+99999GF199999041990003661991991MA1102201999990REMMET065METAR EDDW 282150Z 10005KT 9999 SCT012 SCT035 BKN084 06/04 Q1022=
0165102240999992014032822204+53048+008787FM-15+000499999V0201001N003110106719N009999199+00601+00501999999ADDGA1021+005491991GA2071+010671991GE19MSL   +99999+99999GF199999021990005491991991MA1102201999990REMMET058METAR EDDW 282220Z 10006KT 9999 FEW018 BKN035 06/05 Q1022=
0142102240999992014032822504+53048+008787FM-15+000499999V0200801N004110106719N009999199+00701+00501999999ADDGA1071+010671991GE19MSL   +99999+99999GF199999071990010671991991MA1102201999990REMMET051METAR EDDW 282250Z 08008KT 9999 BKN035 07/05 Q1022=
0150102240999992014032823204+53048+008787FM-15+000499999V0201201V003610033519N009999199+00701+00501999999ADDGA1071+003351991GE19MSL   +99999+99999GF199999071990003351991991MA1102301999990REMMET059METAR EDDW 282320Z 12007KT 090V150 9999 BKN011 07/05 Q1023=
0142102240999992014032823504+53048+008787FM-15+000499999V0201001N004110036619N009999199+00701+00501999999ADDGA1071+003661991GE19MSL   +99999+99999GF199999071990003661991991MA1102201999990REMMET051METAR EDDW 282350Z 10008KT 9999 BKN012 07/05 Q1022=
0142102240999992014032900204+53048+008787FM-15+000499999V0201001N004110039619N009999199+00701+00601999999ADDGA1071+003961991GE19MSL   +99999+99999GF199999071990003961991991MA1102201999990REMMET051METAR EDDW 290020Z 10008KT 9999 BKN013 07/06 Q1022=
0142102240999992014032900504+53048+008787FM-15+000499999V0201001N003610033519N009999199+00701+00501999999ADDGA1071+003351991GE19MSL   +99999+99999GF199999071990003351991991MA1102201999990REMMET051METAR EDDW 290050Z 10007KT 9999 BKN011 07/05 Q1022=
0142102240999992014032901204+53048+008787FM-15+000499999V0201001N003110030519N009999199+00701+00501999999ADDGA1071+003051991GE19MSL   +99999+99999GF199999071990003051991991MA1102201999990REMMET051METAR EDDW 290120Z 10006KT 9999 BKN010 07/05 Q1022=
0165102240999992014032901504+53048+008787FM-15+000499999V0200901N002110762019N009999199+00501+00401999999ADDGA1041+003051991GA2071+076201991GE19MSL   +99999+99999GF199999041990003051991991MA1102201999990REMMET058METAR EDDW 290150Z 09004KT 9999 SCT010 BKN250 05/04 Q1022=
0142102240999992014032902204+53048+008787FM-15+000499999V0201001N002110033519N009999199+00701+00601999999ADDGA1071+003351991GE19MSL   +99999+99999GF199999071990003351991991MA1102201999990REMMET051METAR EDDW 290220Z 10004KT 9999 BKN011 07/06 Q1022=
0142102240999992014032902504+53048+008787FM-15+000499999V0201101N004110024419N009999199+00701+00601999999ADDGA1071+002441991GE19MSL   +99999+99999GF199999071990002441991991MA1102201999990REMMET051METAR EDDW 290250Z 11008KT 9999 BKN008 07/06 Q1022=
0142102240999992014032903204+53048+008787FM-15+000499999V0201201N005110024419N007000199+00701+00601999999ADDGA1071+002441991GE19MSL   +99999+99999GF199999071990002441991991MA1102201999990REMMET051METAR EDDW 290320Z 12010KT 7000 BKN008 07/06 Q1022=
0156102240999992014032903504+53048+008787FM-15+000499999V0201301N005110024419N006000199+00701+00601999999ADDGA1071+002441991GE19MSL   +99999+99999GF199999071990002441991991MA1102201999990REMMET065METAR EDDW 290350Z 13010KT 6000 BKN008 07/06 Q1022 TEMPO 4000 BR=
0156102240999992014032904204+53048+008787FM-15+000499999V0201201N005110024419N005000199+00701+00601999999ADDGA1071+002441991GE19MSL   +99999+99999GF199999071990002441991991MA1102201999990REMMET065METAR EDDW 290420Z 12010KT 5000 BKN008 07/06 Q1022 TEMPO 4000 BR=
0175102240999992014032904504+53048+008787FM-15+000499999V0201201V004610024419N005000199+00701+00601999999ADDGA1071+002441991GE19MSL   +99999+99999GF199999071990002441991991MA1102201999990MW1101REMMET078METAR EDDW 290450Z 12009KT 090V150 5000 BR BKN008 07/06 Q1022 TEMPO      4000=
0162102240999992014032905204+53048+008787FM-15+000499999V0201201N004610024419N003600199+00701+00601999999ADDGA1071+002441991GE19MSL   +99999+99999GF199999071990002441991991MA1102201999990MW1101REMMET065METAR EDDW 290520Z 12009KT 3600 BR BKN008 07/06 Q1022 TEMPO 1500=
0175102240999992014032905504+53048+008787FM-15+000499999V0201201V005110024419N003600199+00701+00601999999ADDGA1071+002441991GE19MSL   +99999+99999GF199999071990002441991991MA1102301999990MW1101REMMET078METAR EDDW 290550Z 12010KT 090V160 3600 BR BKN008 07/06 Q1023 TEMPO      1500=
0162102240999992014032906204+53048+008787FM-15+000499999V0201201N005110024419N004200199+00701+00601999999ADDGA1071+002441991GE19MSL   +99999+99999GF199999071990002441991991MA1102301999990MW1101REMMET065METAR EDDW 290620Z 12010KT 4200 BR BKN008 07/06 Q1023 TEMPO 2500=
0175102240999992014032906504+53048+008787FM-15+000499999V0201201V004610024419N004300199+00701+00601999999ADDGA1071+002441991GE19MSL   +99999+99999GF199999071990002441991991MA1102301999990MW1101REMMET078METAR EDDW 290650Z 12009KT 080V140 4300 BR BKN008 07/06 Q1023 TEMPO      2500=
0175102240999992014032907204+53048+008787FM-15+000499999V0201201V004610021319N004500199+00801+00601999999ADDGA1071+002131991GE19MSL   +99999+99999GF199999071990002131991991MA1102301999990MW1101REMMET078METAR EDDW 290720Z 12009KT 090V150 4500 BR BKN007 08/06 Q1023 TEMPO      2500=
0177102240999992014032907504+53048+008787FM-15+000499999V0201301V004619999999N004900199+00801+00601999999ADDGA1041+002131991GE19MSL   +99999+99999GF199999041990002131991991MA1102301999990MW1101REMMET080METAR EDDW 290750Z 13009KT 100V160 4900 BR SCT007 08/06 Q1023 TEMPO      BKN008=
0114102240999992014032908204+53048+008787FM-15+000499999V0201201N004612200019N006000199+00901+00601999999ADDGF100991999999999999999999MA1102301999990REMMET061METAR EDDW 290820Z 12009KT 6000 NSC 09/06 Q1023 TEMPO BKN008=
0115102240999992014032908504+53048+008787FM-15+000499999V0201201V004612200019N006000199+01001+00701999999ADDGF100991999999999999999999MA1102301999990REMMET062METAR EDDW 290850Z 12009KT 090V160 6000 NSC 10/07 Q1023 NOSIG=
0115102240999992014032909204+53048+008787FM-15+000499999V0201201V004112200019N006000199+01001+00601999999ADDGF100991999999999999999999MA1102301999990REMMET062METAR EDDW 290920Z 12008KT 090V150 6000 NSC 10/06 Q1023 NOSIG=
0115102240999992014032909504+53048+008787FM-15+000499999V0201301V004112200019N007000199+01201+00701999999ADDGF100991999999999999999999MA1102301999990REMMET062METAR EDDW 290950Z 13008KT 100V170 7000 NSC 12/07 Q1023 NOSIG=
0115102240999992014032910204+53048+008787FM-15+000499999V0201301V004112200019N007000199+01201+00701999999ADDGF100991999999999999999999MA1102301999990REMMET062METAR EDDW 291020Z 13008KT 090V160 7000 NSC 12/07 Q1023 NOSIG=
0115102240999992014032910504+53048+008787FM-15+000499999V0201201V003112200019N007000199+01301+00701999999ADDGF100991999999999999999999MA1102301999990REMMET062METAR EDDW 291050Z 12006KT 090V170 7000 NSC 13/07 Q1023 NOSIG=
0115102240999992014032911204+53048+008787FM-15+000499999V0201001V003612200019N008000199+01401+00801999999ADDGF100991999999999999999999MA1102301999990REMMET062METAR EDDW 291120Z 10007KT 060V170 8000 NSC 14/08 Q1023 NOSIG=
0086102240999992014032911504+53048+008787FM-15+000499999V0201101V003619999999Y999999999+01501+00801999999ADDMA1102201999990REMMET059METAR EDDW 291150Z 11007KT 080V150 CAVOK 15/08 Q1022 NOSIG=
0086102240999992014032912204+53048+008787FM-15+000499999V0201001V004119999999Y999999999+01501+00701999999ADDMA1102201999990REMMET059METAR EDDW 291220Z 10008KT 070V140 CAVOK 15/07 Q1022 NOSIG=
0086102240999992014032912504+53048+008787FM-15+000499999V0201101V004619999999Y999999999+01601+00701999999ADDMA1102201999990REMMET059METAR EDDW 291250Z 11009KT 090V150 CAVOK 16/07 Q1022 NOSIG=
0078102240999992014032913204+53048+008787FM-15+000499999V0201101N005119999999Y999999999+01601+00701999999ADDMA1102201999990REMMET051METAR EDDW 291320Z 11010KT CAVOK 16/07 Q1022 NOSIG=
0086102240999992014032913504+53048+008787FM-15+000499999V0201101V004619999999Y999999999+01701+00501999999ADDMA1102101999990REMMET059METAR EDDW 291350Z 11009KT 090V150 CAVOK 17/05 Q1021 NOSIG=
0086102240999992014032914204+53048+008787FM-15+000499999V0201101V004119999999Y999999999+01701+00501999999ADDMA1102101999990REMMET059METAR EDDW 291420Z 11008KT 080V150 CAVOK 17/05 Q1021 NOSIG=
0086102240999992014032914504+53048+008787FM-15+000499999V0201101V003619999999Y999999999+01801+00601999999ADDMA1102101999990REMMET059METAR EDDW 291450Z 11007KT 060V140 CAVOK 18/06 Q1021 NOSIG=
0078102240999992014032915204+53048+008787FM-15+000499999V0201201N003119999999Y999999999+01701+00401999999ADDMA1102001999990REMMET051METAR EDDW 291520Z 12006KT CAVOK 17/04 Q1020 NOSIG=
0086102240999992014032915504+53048+008787FM-15+000499999V0201201V004619999999Y999999999+01701+00301999999ADDMA1102001999990REMMET059METAR EDDW 291550Z 12009KT 090V160 CAVOK 17/03 Q1020 NOSIG=
0078102240999992014032916204+53048+008787FM-15+000499999V0201001N004619999999Y999999999+01701+00401999999ADDMA1102001999990REMMET051METAR EDDW 291620Z 10009KT CAVOK 17/04 Q1020 NOSIG=
0078102240999992014032916504+53048+008787FM-15+000499999V0201101N003119999999Y999999999+01601+00401999999ADDMA1102001999990REMMET051METAR EDDW 291650Z 11006KT CAVOK 16/04 Q1020 NOSIG=
0078102240999992014032917204+53048+008787FM-15+000499999V0201101N002619999999Y999999999+01601+00401999999ADDMA1102001999990REMMET051METAR EDDW 291720Z 11005KT CAVOK 16/04 Q1020 NOSIG=
0078102240999992014032917504+53048+008787FM-15+000499999V0201101N002619999999Y999999999+01501+00401999999ADDMA1102001999990REMMET051METAR EDDW 291750Z 11005KT CAVOK 15/04 Q1020 NOSIG=
0078102240999992014032918204+53048+008787FM-15+000499999V0201001N002619999999Y999999999+01401+00401999999ADDMA1102001999990REMMET051METAR EDDW 291820Z 10005KT CAVOK 14/04 Q1020 NOSIG=
0078102240999992014032918504+53048+008787FM-15+000499999V0200701N002619999999Y999999999+01301+00401999999ADDMA1102001999990REMMET051METAR EDDW 291850Z 07005KT CAVOK 13/04 Q1020 NOSIG=
0078102240999992014032919204+53048+008787FM-15+000499999V0200901N004119999999Y999999999+01201+00501999999ADDMA1102001999990REMMET051METAR EDDW 291920Z 09008KT CAVOK 12/05 Q1020 NOSIG=
0078102240999992014032919504+53048+008787FM-15+000499999V0200901N003119999999Y999999999+01101+00601999999ADDMA1102001999990REMMET051METAR EDDW 291950Z 09006KT CAVOK 11/06 Q1020 NOSIG=
0078102240999992014032920204+53048+008787FM-15+000499999V0200901N003119999999Y999999999+01001+00601999999ADDMA1102001999990REMMET051METAR EDDW 292020Z 09006KT CAVOK 10/06 Q1020 NOSIG=
0078102240999992014032920504+53048+008787FM-15+000499999V0200901N002119999999Y999999999+01001+00701999999ADDMA1102001999990REMMET051METAR EDDW 292050Z 09004KT CAVOK 10/07 Q1020 NOSIG=
0072102240999992014032921204+53048+008787FM-15+000499999V0201001N002619999999Y999999999+01001+00601999999ADDMA1102101999990REMMET045METAR EDDW 292120Z 10005KT CAVOK 10/06 Q1021=
0072102240999992014032921504+53048+008787FM-15+000499999V0201001N002619999999Y999999999+00901+00701999999ADDMA1102001999990REMMET045METAR EDDW 292150Z 10005KT CAVOK 09/07 Q1020=
0072102240999992014032922204+53048+008787FM-15+000499999V0200901N002619999999Y999999999+00901+00601999999ADDMA1102001999990REMMET045METAR EDDW 292220Z 09005KT CAVOK 09/06 Q1020=
0072102240999992014032922504+53048+008787FM-15+000499999V0200801N003119999999Y999999999+00701+00401999999ADDMA1102001999990REMMET045METAR EDDW 292250Z 08006KT CAVOK 07/04 Q1020=
0072102240999992014032923204+53048+008787FM-15+000499999V0200901N003119999999Y999999999+00801+00601999999ADDMA1102001999990REMMET045METAR EDDW 292320Z 09006KT CAVOK 08/06 Q1020=
0072102240999992014032923504+53048+008787FM-15+000499999V0200701N003119999999Y999999999+00801+00601999999ADDMA1102001999990REMMET045METAR EDDW 292350Z 07006KT CAVOK 08/06 Q1020=
0072102240999992014033000204+53048+008787FM-15+000499999V0200701N002619999999Y999999999+00701+00501999999ADDMA1101901999990REMMET045METAR EDDW 300020Z 07005KT CAVOK 07/05 Q1019=
0072102240999992014033000504+53048+008787FM-15+000499999V0200801N002619999999Y999999999+00601+00501999999ADDMA1101901999990REMMET045METAR EDDW 300050Z 08005KT CAVOK 06/05 Q1019=
0072102240999992014033001204+53048+008787FM-15+000499999V0200901N002619999999Y999999999+00601+00401999999ADDMA1101901999990REMMET045METAR EDDW 300120Z 09005KT CAVOK 06/04 Q1019=
0072102240999992014033001504+53048+008787FM-15+000499999V0200701N002119999999Y999999999+00601+00501999999ADDMA1101901999990REMMET045METAR EDDW 300150Z 07004KT CAVOK 06/05 Q1019=
0072102240999992014033002204+53048+008787FM-15+000499999V0200701N002119999999Y999999999+00601+00501999999ADDMA1101901999990REMMET045METAR EDDW 300220Z 07004KT CAVOK 06/05 Q1019=
0112102240999992014033002504+53048+008787FM-15+000499999V0200801N002112200019N007000199+00601+00501999999ADDGF100991999999999999999999MA1101801999990MW1121REMMET053METAR EDDW 300250Z 08004KT 7000 MIFG NSC 06/05 Q1018=
0121102240999992014033003204+53048+008787FM-15+000499999V0200701N001512200019N005000199+00501+00501999999ADDGF100991999999999999999999MA1101801999990MW1101MW2121REMMET056METAR EDDW 300320Z 07003KT 5000 MIFG BR NSC 05/05 Q1018=
0147102240999992014033003504+53048+008787FM-15+000499999V0200801N001012200019N001800199+00601+00501999999ADDGF100991999999999999999999MA1101801999990MW1101MW2121REMMET082METAR EDDW 300350Z 08002KT 1800 R09/0325V0900D MIFG BR NSC 06/05 Q1018      NOSIG=
0142102240999992014033004204+53048+008787FM-15+000499999V0200701N001512200019N000900199+00501+00501999999ADDGF100991999999999999999999MA1101801999990MW1441REMMET083METAR EDDW 300420Z 07003KT 0900 R09/0800VP2000D FG NSC 05/05 Q1018      TEMPO 0400=
0142102240999992014033004504+53048+008787FM-15+000499999V0200801N001012200019N000700199+00401+00401999999ADDGF100991999999999999999999MA1101801999990MW1441REMMET083METAR EDDW 300450Z 08002KT 0700 R09/0325VP2000U FG NSC 04/04 Q1018      TEMPO 0400=
0131102240999992014033005204+53048+008787FM-15+000499999V0200701N001012200019N000100199+00301+00301999999ADDGF100991999999999999999999MA1101801999990MW1441REMMET072METAR EDDW 300520Z 07002KT 0100 R09/0175V0275N FG NSC 03/03 Q1018 NOSIG=
0149102240999992014033005504+53048+008787FM-15+000499999V0201201V001512200019N000200199+00401+00401999999ADDGF100991999999999999999999MA1101801999990MW1441REMMET090METAR EDDW 300550Z 12003KT 090V150 0200 R09/0450V1200U FG NSC 04/04      Q1018 BECMG 0600=
0149102240999992014033006204+53048+008787FM-15+000499999V0209999V001512200019N001200199+00501+00501999999ADDGF100991999999999999999999MA1101801999990MW1111REMMET090METAR EDDW 300620Z VRB03KT 1200 0600SW R09/P2000N PRFG NSC 05/05 Q1018      TEMPO 0600 FG=
0129102240999992014033006504+53048+008787FM-15+000499999V0201001V001512200019N001500199+00601+00601999999ADDGF100991999999999999999999MA1101801999990MW1101REMMET070METAR EDDW 300650Z 10003KT 060V160 1500 BR NSC 06/06 Q1018 BECMG 3000=
0121102240999992014033007204+53048+008787FM-15+000499999V0200901N002112200019N003000199+00801+00701999999ADDGF100991999999999999999999MA1101801999990MW1101REMMET062METAR EDDW 300720Z 09004KT 3000 BR NSC 08/07 Q1018 BECMG 5000=
0129102240999992014033007504+53048+008787FM-15+000499999V0201001V002112200019N003600199+00901+00701999999ADDGF100991999999999999999999MA1101801999990MW1101REMMET070METAR EDDW 300750Z 10004KT 070V140 3600 BR NSC 09/07 Q1018 BECMG 5000=
0121102240999992014033008204+53048+008787FM-15+000499999V0201301N002612200019N004500199+01001+00701999999ADDGF100991999999999999999999MA1101801999990MW1101REMMET062METAR EDDW 300820Z 13005KT 4500 BR NSC 10/07 Q1018 BECMG 5000=
0115102240999992014033008504+53048+008787FM-15+000499999V0201501V002112200019N006000199+01101+00801999999ADDGF100991999999999999999999MA1101801999990REMMET062METAR EDDW 300850Z 15004KT 120V180 6000 NSC 11/08 Q1018 NOSIG=
0107102240999992014033009204+53048+008787FM-15+000499999V0209999V001012200019N007000199+01201+00801999999ADDGF100991999999999999999999MA1101701999990REMMET054METAR EDDW 300920Z VRB02KT 7000 NSC 12/08 Q1017 NOSIG=
0107102240999992014033009504+53048+008787FM-15+000499999V0209999V001512200019N008000199+01301+00901999999ADDGF100991999999999999999999MA1101701999990REMMET054METAR EDDW 300950Z VRB03KT 8000 NSC 13/09 Q1017 NOSIG=
0107102240999992014033010204+53048+008787FM-15+000499999V0209999V001512200019N008000199+01401+00801999999ADDGF100991999999999999999999MA1101701999990REMMET054METAR EDDW 301020Z VRB03KT 8000 NSC 14/08 Q1017 NOSIG=
0115102240999992014033010504+53048+008787FM-15+000499999V0201301V002612200019N008000199+01501+00901999999ADDGF100991999999999999999999MA1101701999990REMMET062METAR EDDW 301050Z 13005KT 070V170 8000 NSC 15/09 Q1017 NOSIG=
0115102240999992014033011204+53048+008787FM-15+000499999V0201201V002112200019N009000199+01601+00901999999ADDGF100991999999999999999999MA1101701999990REMMET062METAR EDDW 301120Z 12004KT 080V190 9000 NSC 16/09 Q1017 NOSIG=
0115102240999992014033011504+53048+008787FM-15+000499999V0201201V002112200019N009000199+01701+01101999999ADDGF100991999999999999999999MA1101701999990REMMET062METAR EDDW 301150Z 12004KT 040V200 9000 NSC 17/11 Q1017 NOSIG=
0086102240999992014033012204+53048+008787FM-15+000499999V0201301V002119999999Y999999999+01701+00901999999ADDMA1101601999990REMMET059METAR EDDW 301220Z 13004KT 060V190 CAVOK 17/09 Q1016 NOSIG=
0086102240999992014033012504+53048+008787FM-15+000499999V0201501V002619999999Y999999999+01801+00901999999ADDMA1101601999990REMMET059METAR EDDW 301250Z 15005KT 120V190 CAVOK 18/09 Q1016 NOSIG=
0078102240999992014033013204+53048+008787FM-15+000499999V0209999V002119999999Y999999999+01901+00801999999ADDMA1101601999990REMMET051METAR EDDW 301320Z VRB04KT CAVOK 19/08 Q1016 NOSIG=
0171102240999992014033013504+53048+008787FM-15+000499999V0209999V00101076201CN009999199+01801+00701999999ADDGA1021+013721991GA2041+076201991GE19MSL   +99999+99999GF199999021990013721991991MA1101501999990REMMET064METAR EDDW 301350Z VRB02KT 9999 FEW045 SCT250 18/07 Q1015 NOSIG=
