0076102340999992012032717204+53133+009350AUTO +0061ETGQ V0203101N002612200019N0112651N1+01701+00501999999ADDMA1103121999999REMMET049METAR ETGQ 271720Z AUTO 31005KT 9999 17/05 Q1031;
