0090102340999992014032120204+53133+009350FM-15+006199999V0209999V001019999999N999999999+00901+00401999999ADDMA1101101999990REMMET063METAR ETGQ 212020Z AUTO VRB02KT //// // ////// 09/04 Q1011 ///=
0090102340999992014032120504+53133+009350FM-15+006199999V0200901N001519999999N999999999+00901+00401999999ADDMA1101101999990REMMET063METAR ETGQ 212050Z AUTO 09003KT //// // ////// 09/04 Q1011 ///=
0090102340999992014032121204+53133+009350FM-15+006199999V0201401N001519999999N999999999+01001+00401999999ADDMA1101001999990REMMET063METAR ETGQ 212120Z AUTO 14003KT //// // ////// 10/04 Q1010 ///=
0090102340999992014032121504+53133+009350FM-15+006199999V0201301N002119999999N999999999+00901+00401999999ADDMA1101001999990REMMET063METAR ETGQ 212150Z AUTO 13004KT //// // ////// 09/04 Q1010 ///=
0090102340999992014032122204+53133+009350FM-15+006199999V0201201N002119999999N999999999+00901+00401999999ADDMA1101001999990REMMET063METAR ETGQ 212220Z AUTO 12004KT //// // ////// 09/04 Q1010 ///=
0090102340999992014032122504+53133+009350FM-15+006199999V0201201N001519999999N999999999+00901+00501999999ADDMA1100901999990REMMET063METAR ETGQ 212250Z AUTO 12003KT //// // ////// 09/05 Q1009 ///=
0090102340999992014032123204+53133+009350FM-15+006199999V0201201N001019999999N999999999+00901+00501999999ADDMA1100901999990REMMET063METAR ETGQ 212320Z AUTO 12002KT //// // ////// 09/05 Q1009 ///=
0090102340999992014032123504+53133+009350FM-15+006199999V0201301N001519999999N999999999+00901+00501999999ADDMA1100801999990REMMET063METAR ETGQ 212350Z AUTO 13003KT //// // ////// 09/05 Q1008 ///=
0090102340999992014032200204+53133+009350FM-15+006199999V0201401N002119999999N999999999+00901+00601999999ADDMA1100801999990REMMET063METAR ETGQ 220020Z AUTO 14004KT //// // ////// 09/06 Q1008 ///=
0090102340999992014032200504+53133+009350FM-15+006199999V0201501N002619999999N999999999+00901+00601999999ADDMA1100801999990REMMET063METAR ETGQ 220050Z AUTO 15005KT //// // ////// 09/06 Q1008 ///=
0090102340999992014032201204+53133+009350FM-15+006199999V0201601N002619999999N999999999+00901+00601999999ADDMA1100801999990REMMET063METAR ETGQ 220120Z AUTO 16005KT //// // ////// 09/06 Q1008 ///=
0090102340999992014032201504+53133+009350FM-15+006199999V0201601N001519999999N999999999+00801+00601999999ADDMA1100701999990REMMET063METAR ETGQ 220150Z AUTO 16003KT //// // ////// 08/06 Q1007 ///=
0090102340999992014032202204+53133+009350FM-15+006199999V0201501N001519999999N999999999+00801+00601999999ADDMA1100701999990REMMET063METAR ETGQ 220220Z AUTO 15003KT //// // ////// 08/06 Q1007 ///=
0090102340999992014032202504+53133+009350FM-15+006199999V0201601N002119999999N999999999+00801+00601999999ADDMA1100601999990REMMET063METAR ETGQ 220250Z AUTO 16004KT //// // ////// 08/06 Q1006 ///=
0090102340999992014032203204+53133+009350FM-15+006199999V0201501N002119999999N999999999+00901+00601999999ADDMA1100601999990REMMET063METAR ETGQ 220320Z AUTO 15004KT //// // ////// 09/06 Q1006 ///=
0090102340999992014032203504+53133+009350FM-15+006199999V0201401N002119999999N999999999+00901+00601999999ADDMA1100601999990REMMET063METAR ETGQ 220350Z AUTO 14004KT //// // ////// 09/06 Q1006 ///=
0090102340999992014032204204+53133+009350FM-15+006199999V0201301N001519999999N999999999+00901+00601999999ADDMA1100501999990REMMET063METAR ETGQ 220420Z AUTO 13003KT //// // ////// 09/06 Q1005 ///=
0090102340999992014032204504+53133+009350FM-15+006199999V0201401N001519999999N999999999+00901+00601999999ADDMA1100501999990REMMET063METAR ETGQ 220450Z AUTO 14003KT //// // ////// 09/06 Q1005 ///=
0090102340999992014032205204+53133+009350FM-15+006199999V0209999V001019999999N999999999+00801+00601999999ADDMA1100501999990REMMET063METAR ETGQ 220520Z AUTO VRB02KT //// // ////// 08/06 Q1005 ///=
0090102340999992014032220204+53133+009350FM-15+006199999V0209999V001019999999N999999999+00601+00401999999ADDMA1100501999990REMMET063METAR ETGQ 222020Z AUTO VRB02KT //// // ////// 06/04 Q1005 ///=
0090102340999992014032220504+53133+009350FM-15+006199999V0201601N001519999999N999999999+00601+00401999999ADDMA1100501999990REMMET063METAR ETGQ 222050Z AUTO 16003KT //// // ////// 06/04 Q1005 ///=
0090102340999992014032221204+53133+009350FM-15+006199999V0202001N001519999999N999999999+00601+00401999999ADDMA1100501999990REMMET063METAR ETGQ 222120Z AUTO 20003KT //// // ////// 06/04 Q1005 ///=
0090102340999992014032221504+53133+009350FM-15+006199999V0209999V001019999999N999999999+00501+00301999999ADDMA1100601999990REMMET063METAR ETGQ 222150Z AUTO VRB02KT //// // ////// 05/03 Q1006 ///=
0090102340999992014032222204+53133+009350FM-15+006199999V0203201N000519999999N999999999+00501+00301999999ADDMA1100601999990REMMET063METAR ETGQ 222220Z AUTO 32001KT //// // ////// 05/03 Q1006 ///=
0090102340999992014032222504+53133+009350FM-15+006199999V0201101N001519999999N999999999+00501+00301999999ADDMA1100501999990REMMET063METAR ETGQ 222250Z AUTO 11003KT //// // ////// 05/03 Q1005 ///=
0090102340999992014032223204+53133+009350FM-15+006199999V0201001N001019999999N999999999+00501+00401999999ADDMA1100501999990REMMET063METAR ETGQ 222320Z AUTO 10002KT //// // ////// 05/04 Q1005 ///=
0090102340999992014032223504+53133+009350FM-15+006199999V0200701N001519999999N999999999+00601+00401999999ADDMA1100501999990REMMET063METAR ETGQ 222350Z AUTO 07003KT //// // ////// 06/04 Q1005 ///=
0090102340999992014032300204+53133+009350FM-15+006199999V0201301N001519999999N999999999+00601+00301999999ADDMA1100501999990REMMET063METAR ETGQ 230020Z AUTO 13003KT //// // ////// 06/03 Q1005 ///=
0090102340999992014032300504+53133+009350FM-15+006199999V0201701N001519999999N999999999+00601+00401999999ADDMA1100501999990REMMET063METAR ETGQ 230050Z AUTO 17003KT //// // ////// 06/04 Q1005 ///=
0090102340999992014032301204+53133+009350FM-15+006199999V0203301N001519999999N999999999+00501+00301999999ADDMA1100501999990REMMET063METAR ETGQ 230120Z AUTO 33003KT //// // ////// 05/03 Q1005 ///=
0090102340999992014032301504+53133+009350FM-15+006199999V0202601N000519999999N999999999+00501+00301999999ADDMA1100501999990REMMET063METAR ETGQ 230150Z AUTO 26001KT //// // ////// 05/03 Q1005 ///=
0090102340999992014032302204+53133+009350FM-15+006199999V0209999V000519999999N999999999+00401+00301999999ADDMA1100501999990REMMET063METAR ETGQ 230220Z AUTO VRB01KT //// // ////// 04/03 Q1005 ///=
0090102340999992014032302504+53133+009350FM-15+006199999V0209999V001019999999N999999999+00501+00401999999ADDMA1100501999990REMMET063METAR ETGQ 230250Z AUTO VRB02KT //// // ////// 05/04 Q1005 ///=
0090102340999992014032303204+53133+009350FM-15+006199999V0202001N002119999999N999999999+00601+00401999999ADDMA1100501999990REMMET063METAR ETGQ 230320Z AUTO 20004KT //// // ////// 06/04 Q1005 ///=
0090102340999992014032303504+53133+009350FM-15+006199999V0202001N002119999999N999999999+00601+00301999999ADDMA1100501999990REMMET063METAR ETGQ 230350Z AUTO 20004KT //// // ////// 06/03 Q1005 ///=
0090102340999992014032304204+53133+009350FM-15+006199999V0202001N002119999999N999999999+00601+00301999999ADDMA1100501999990REMMET063METAR ETGQ 230420Z AUTO 20004KT //// // ////// 06/03 Q1005 ///=
0090102340999992014032304504+53133+009350FM-15+006199999V0202001N002119999999N999999999+00601+00301999999ADDMA1100501999990REMMET063METAR ETGQ 230450Z AUTO 20004KT //// // ////// 06/03 Q1005 ///=
0090102340999992014032305204+53133+009350FM-15+006199999V0202001N001519999999N999999999+00501+00301999999ADDMA1100501999990REMMET063METAR ETGQ 230520Z AUTO 20003KT //// // ////// 05/03 Q1005 ///=
0090102340999992014032320204+53133+009350FM-15+006199999V0202501N000519999999N999999999+00401+00201999999ADDMA1100901999990REMMET063METAR ETGQ 232020Z AUTO 25001KT //// // ////// 04/02 Q1009 ///=
0090102340999992014032320504+53133+009350FM-15+006199999V0203201N001019999999N999999999+00401+00201999999ADDMA1100901999990REMMET063METAR ETGQ 232050Z AUTO 32002KT //// // ////// 04/02 Q1009 ///=
0090102340999992014032321204+53133+009350FM-15+006199999V0209999C000019999999N999999999+00301+00201999999ADDMA1100901999990REMMET063METAR ETGQ 232120Z AUTO 00000KT //// // ////// 03/02 Q1009 ///=
0090102340999992014032321504+53133+009350FM-15+006199999V0202601N001019999999N999999999+00301+00201999999ADDMA1101001999990REMMET063METAR ETGQ 232150Z AUTO 26002KT //// // ////// 03/02 Q1010 ///=
0090102340999992014032322204+53133+009350FM-15+006199999V0209999V000519999999N999999999+00301+00101999999ADDMA1101001999990REMMET063METAR ETGQ 232220Z AUTO VRB01KT //// // ////// 03/01 Q1010 ///=
0090102340999992014032322504+53133+009350FM-15+006199999V0203601N000519999999N999999999+00301+00201999999ADDMA1101001999990REMMET063METAR ETGQ 232250Z AUTO 36001KT //// // ////// 03/02 Q1010 ///=
0090102340999992014032323204+53133+009350FM-15+006199999V0202401N001019999999N999999999+00301+00201999999ADDMA1101001999990REMMET063METAR ETGQ 232320Z AUTO 24002KT //// // ////// 03/02 Q1010 ///=
0090102340999992014032323504+53133+009350FM-15+006199999V0202401N001019999999N999999999+00301+00201999999ADDMA1101101999990REMMET063METAR ETGQ 232350Z AUTO 24002KT //// // ////// 03/02 Q1011 ///=
0090102340999992014032400204+53133+009350FM-15+006199999V0209999V000519999999N999999999+00301+00101999999ADDMA1101101999990REMMET063METAR ETGQ 240020Z AUTO VRB01KT //// // ////// 03/01 Q1011 ///=
0090102340999992014032400504+53133+009350FM-15+006199999V0202901N001019999999N999999999+00301+00101999999ADDMA1101101999990REMMET063METAR ETGQ 240050Z AUTO 29002KT //// // ////// 03/01 Q1011 ///=
0090102340999992014032401204+53133+009350FM-15+006199999V0203001N001519999999N999999999+00301+00101999999ADDMA1101101999990REMMET063METAR ETGQ 240120Z AUTO 30003KT //// // ////// 03/01 Q1011 ///=
0090102340999992014032401504+53133+009350FM-15+006199999V0202901N001019999999N999999999+00201+00101999999ADDMA1101101999990REMMET063METAR ETGQ 240150Z AUTO 29002KT //// // ////// 02/01 Q1011 ///=
0090102340999992014032402204+53133+009350FM-15+006199999V0209999V000519999999N999999999+00201+00101999999ADDMA1101101999990REMMET063METAR ETGQ 240220Z AUTO VRB01KT //// // ////// 02/01 Q1011 ///=
0090102340999992014032402504+53133+009350FM-15+006199999V0209999V001019999999N999999999+00301+00201999999ADDMA1101101999990REMMET063METAR ETGQ 240250Z AUTO VRB02KT //// // ////// 03/02 Q1011 ///=
0090102340999992014032403204+53133+009350FM-15+006199999V0203601N001019999999N999999999+00201+00101999999ADDMA1101101999990REMMET063METAR ETGQ 240320Z AUTO 36002KT //// // ////// 02/01 Q1011 ///=
0090102340999992014032403504+53133+009350FM-15+006199999V0200101N001019999999N999999999+00201+00101999999ADDMA1101101999990REMMET063METAR ETGQ 240350Z AUTO 01002KT //// // ////// 02/01 Q1011 ///=
0090102340999992014032404204+53133+009350FM-15+006199999V0203601N000519999999N999999999+00201+00101999999ADDMA1101201999990REMMET063METAR ETGQ 240420Z AUTO 36001KT //// // ////// 02/01 Q1012 ///=
0090102340999992014032404504+53133+009350FM-15+006199999V0203301N000519999999N999999999+00201+00101999999ADDMA1101201999990REMMET063METAR ETGQ 240450Z AUTO 33001KT //// // ////// 02/01 Q1012 ///=
0090102340999992014032405204+53133+009350FM-15+006199999V0203501N001019999999N999999999+00201+00101999999ADDMA1101201999990REMMET063METAR ETGQ 240520Z AUTO 35002KT //// // ////// 02/01 Q1012 ///=
0090102340999992014032420204+53133+009350FM-15+006199999V0203501N001019999999N999999999+00601+00001999999ADDMA1101301999990REMMET063METAR ETGQ 242020Z AUTO 35002KT //// // ////// 06/00 Q1013 ///=
0090102340999992014032420504+53133+009350FM-15+006199999V0202901N001019999999N999999999+00501+00001999999ADDMA1101301999990REMMET063METAR ETGQ 242050Z AUTO 29002KT //// // ////// 05/00 Q1013 ///=
0090102340999992014032421204+53133+009350FM-15+006199999V0203501N001019999999N999999999+00401+00001999999ADDMA1101301999990REMMET063METAR ETGQ 242120Z AUTO 35002KT //// // ////// 04/00 Q1013 ///=
0090102340999992014032421504+53133+009350FM-15+006199999V0203101N001019999999N999999999+00301+00001999999ADDMA1101301999990REMMET063METAR ETGQ 242150Z AUTO 31002KT //// // ////// 03/00 Q1013 ///=
0090102340999992014032422204+53133+009350FM-15+006199999V0202801N000519999999N999999999+00201+00001999999ADDMA1101301999990REMMET063METAR ETGQ 242220Z AUTO 28001KT //// // ////// 02/00 Q1013 ///=
0090102340999992014032422504+53133+009350FM-15+006199999V0202501N001019999999N999999999+00201+00001999999ADDMA1101301999990REMMET063METAR ETGQ 242250Z AUTO 25002KT //// // ////// 02/00 Q1013 ///=
0091102340999992014032423204+53133+009350FM-15+006199999V0209999V001019999999N999999999+00201+00001999999ADDMA1101301999990REMMET064METAR ETGQ 242320Z AUTO VRB02KT //// // ////// 02/M00 Q1013 ///=
0091102340999992014032423504+53133+009350FM-15+006199999V0209999V001019999999N999999999+00101+00001999999ADDMA1101301999990REMMET064METAR ETGQ 242350Z AUTO VRB02KT //// // ////// 01/M00 Q1013 ///=
0091102340999992014032500204+53133+009350FM-15+006199999V0209999C000019999999N999999999+00101-00101999999ADDMA1101301999990REMMET064METAR ETGQ 250020Z AUTO 00000KT //// // ////// 01/M01 Q1013 ///=
0091102340999992014032500504+53133+009350FM-15+006199999V0209999V000519999999N999999999+00101-00101999999ADDMA1101301999990REMMET064METAR ETGQ 250050Z AUTO VRB01KT //// // ////// 01/M01 Q1013 ///=
0091102340999992014032501204+53133+009350FM-15+006199999V0209999V001019999999N999999999+00101+00001999999ADDMA1101301999990REMMET064METAR ETGQ 250120Z AUTO VRB02KT //// // ////// 01/M00 Q1013 ///=
0091102340999992014032501504+53133+009350FM-15+006199999V0209999V000519999999N999999999+00001-00101999999ADDMA1101201999990REMMET064METAR ETGQ 250150Z AUTO VRB01KT //// // ////// 00/M01 Q1012 ///=
0091102340999992014032502204+53133+009350FM-15+006199999V0202701N000519999999N999999999+00001+00001999999ADDMA1101201999990REMMET064METAR ETGQ 250220Z AUTO 27001KT //// // ////// 00/M00 Q1012 ///=
0091102340999992014032502504+53133+009350FM-15+006199999V0209999V000519999999N999999999+00101+00001999999ADDMA1101201999990REMMET064METAR ETGQ 250250Z AUTO VRB01KT //// // ////// 01/M00 Q1012 ///=
0090102340999992014032503204+53133+009350FM-15+006199999V0202601N001019999999N999999999+00101+00001999999ADDMA1101201999990REMMET063METAR ETGQ 250320Z AUTO 26002KT //// // ////// 01/00 Q1012 ///=
0091102340999992014032503504+53133+009350FM-15+006199999V0203001N001019999999N999999999+00001+00001999999ADDMA1101201999990REMMET064METAR ETGQ 250350Z AUTO 30002KT //// // ////// 00/M00 Q1012 ///=
0091102340999992014032504204+53133+009350FM-15+006199999V0203001N001019999999N999999999+00001+00001999999ADDMA1101201999990REMMET064METAR ETGQ 250420Z AUTO 30002KT //// // ////// 00/M00 Q1012 ///=
0091102340999992014032504504+53133+009350FM-15+006199999V0203001N001019999999N999999999+00001+00001999999ADDMA1101201999990REMMET064METAR ETGQ 250450Z AUTO 30002KT //// // ////// 00/M00 Q1012 ///=
0091102340999992014032505204+53133+009350FM-15+006199999V0203001N001019999999N999999999+00001+00001999999ADDMA1101201999990REMMET064METAR ETGQ 250520Z AUTO 30002KT //// // ////// 00/M00 Q1012 ///=
0091102340999992014032520204+53133+009350FM-15+006199999V0209999V001019999999N999999999+00401-00101999999ADDMA1101101999990REMMET064METAR ETGQ 252020Z AUTO VRB02KT //// // ////// 04/M01 Q1011 ///=
0091102340999992014032520504+53133+009350FM-15+006199999V0203501N001019999999N999999999+00401+00001999999ADDMA1101101999990REMMET064METAR ETGQ 252050Z AUTO 35002KT //// // ////// 04/M00 Q1011 ///=
0091102340999992014032521204+53133+009350FM-15+006199999V0209999C000019999999N999999999+00301+00001999999ADDMA1101101999990REMMET064METAR ETGQ 252120Z AUTO 00000KT //// // ////// 03/M00 Q1011 ///=
0090102340999992014032521504+53133+009350FM-15+006199999V0202401N001019999999N999999999+00301+00001999999ADDMA1101101999990REMMET063METAR ETGQ 252150Z AUTO 24002KT //// // ////// 03/00 Q1011 ///=
0090102340999992014032522204+53133+009350FM-15+006199999V0202201N001019999999N999999999+00201+00001999999ADDMA1101101999990REMMET063METAR ETGQ 252220Z AUTO 22002KT //// // ////// 02/00 Q1011 ///=
0090102340999992014032522504+53133+009350FM-15+006199999V0202201N001519999999N999999999+00201+00001999999ADDMA1101201999990REMMET063METAR ETGQ 252250Z AUTO 22003KT //// // ////// 02/00 Q1012 ///=
0090102340999992014032523204+53133+009350FM-15+006199999V0202301N001519999999N999999999+00201+00001999999ADDMA1101201999990REMMET063METAR ETGQ 252320Z AUTO 23003KT //// // ////// 02/00 Q1012 ///=
0091102340999992014032523504+53133+009350FM-15+006199999V0202101N001019999999N999999999+00101+00001999999ADDMA1101101999990REMMET064METAR ETGQ 252350Z AUTO 21002KT //// // ////// 01/M00 Q1011 ///=
0091102340999992014032600204+53133+009350FM-15+006199999V0202101N001019999999N999999999+00101+00001999999ADDMA1101201999990REMMET064METAR ETGQ 260020Z AUTO 21002KT //// // ////// 01/M00 Q1012 ///=
0091102340999992014032600504+53133+009350FM-15+006199999V0209999V000519999999N999999999+00001-00101999999ADDMA1101201999990REMMET064METAR ETGQ 260050Z AUTO VRB01KT //// // ////// 00/M01 Q1012 ///=
0091102340999992014032601204+53133+009350FM-15+006199999V0209999V000519999999N999999999+00101+00001999999ADDMA1101201999990REMMET064METAR ETGQ 260120Z AUTO VRB01KT //// // ////// 01/M00 Q1012 ///=
0091102340999992014032601504+53133+009350FM-15+006199999V0202001N001019999999N999999999+00101+00001999999ADDMA1101201999990REMMET064METAR ETGQ 260150Z AUTO 20002KT //// // ////// 01/M00 Q1012 ///=
0091102340999992014032602204+53133+009350FM-15+006199999V0202201N001519999999N999999999+00101+00001999999ADDMA1101201999990REMMET064METAR ETGQ 260220Z AUTO 22003KT //// // ////// 01/M00 Q1012 ///=
0092102340999992014032602504+53133+009350FM-15+006199999V0203301N000519999999N999999999+00001-00101999999ADDMA1101201999990REMMET065METAR ETGQ 260250Z AUTO 33001KT //// // ////// M00/M01 Q1012 ///=
0091102340999992014032603204+53133+009350FM-15+006199999V0202201N001019999999N999999999+00001-00101999999ADDMA1101201999990REMMET064METAR ETGQ 260320Z AUTO 22002KT //// // ////// 00/M01 Q1012 ///=
0092102340999992014032603504+53133+009350FM-15+006199999V0209999V000519999999N999999999+00001-00101999999ADDMA1101201999990REMMET065METAR ETGQ 260350Z AUTO VRB01KT //// // ////// M00/M01 Q1012 ///=
0091102340999992014032604204+53133+009350FM-15+006199999V0202001N001019999999N999999999+00001-00101999999ADDMA1101201999990REMMET064METAR ETGQ 260420Z AUTO 20002KT //// // ////// 00/M01 Q1012 ///=
0092102340999992014032604504+53133+009350FM-15+006199999V0209999V001019999999N999999999+00001-00101999999ADDMA1101301999990REMMET065METAR ETGQ 260450Z AUTO VRB02KT //// // ////// M00/M01 Q1013 ///=
0092102340999992014032605204+53133+009350FM-15+006199999V0209999V000519999999N999999999-00101-00101999999ADDMA1101301999990REMMET065METAR ETGQ 260520Z AUTO VRB01KT //// // ////// M01/M01 Q1013 ///=
0091102340999992014032620204+53133+009350FM-15+006199999V0209999C000019999999N999999999+00501+00001999999ADDMA1101401999990REMMET064METAR ETGQ 262020Z AUTO 00000KT //// // ////// 05/M00 Q1014 ///=
0090102340999992014032620504+53133+009350FM-15+006199999V0209999C000019999999N999999999+00501+00001999999ADDMA1101401999990REMMET063METAR ETGQ 262050Z AUTO 00000KT //// // ////// 05/00 Q1014 ///=
0090102340999992014032621204+53133+009350FM-15+006199999V0209999V001019999999N999999999+00601+00001999999ADDMA1101401999990REMMET063METAR ETGQ 262120Z AUTO VRB02KT //// // ////// 06/00 Q1014 ///=
0090102340999992014032621504+53133+009350FM-15+006199999V0209999V001019999999N999999999+00501+00201999999ADDMA1101401999990REMMET063METAR ETGQ 262150Z AUTO VRB02KT //// // ////// 05/02 Q1014 ///=
0090102340999992014032622204+53133+009350FM-15+006199999V0200401N001519999999N999999999+00501+00201999999ADDMA1101401999990REMMET063METAR ETGQ 262220Z AUTO 04003KT //// // ////// 05/02 Q1014 ///=
0090102340999992014032622504+53133+009350FM-15+006199999V0209999C000019999999N999999999+00401+00201999999ADDMA1101401999990REMMET063METAR ETGQ 262250Z AUTO 00000KT //// // ////// 04/02 Q1014 ///=
0090102340999992014032623204+53133+009350FM-15+006199999V0202201N001019999999N999999999+00501+00201999999ADDMA1101401999990REMMET063METAR ETGQ 262320Z AUTO 22002KT //// // ////// 05/02 Q1014 ///=
0090102340999992014032623504+53133+009350FM-15+006199999V0202301N001519999999N999999999+00501+00201999999ADDMA1101301999990REMMET063METAR ETGQ 262350Z AUTO 23003KT //// // ////// 05/02 Q1013 ///=
0090102340999992014032700204+53133+009350FM-15+006199999V0209999V000519999999N999999999+00501+00201999999ADDMA1101301999990REMMET063METAR ETGQ 270020Z AUTO VRB01KT //// // ////// 05/02 Q1013 ///=
0090102340999992014032700504+53133+009350FM-15+006199999V0209999C000019999999N999999999+00401+00201999999ADDMA1101301999990REMMET063METAR ETGQ 270050Z AUTO 00000KT //// // ////// 04/02 Q1013 ///=
0090102340999992014032701204+53133+009350FM-15+006199999V0209999V000519999999N999999999+00401+00301999999ADDMA1101301999990REMMET063METAR ETGQ 270120Z AUTO VRB01KT //// // ////// 04/03 Q1013 ///=
0090102340999992014032701504+53133+009350FM-15+006199999V0209999C000019999999N999999999+00401+00201999999ADDMA1101301999990REMMET063METAR ETGQ 270150Z AUTO 00000KT //// // ////// 04/02 Q1013 ///=
0090102340999992014032702204+53133+009350FM-15+006199999V0202201N000519999999N999999999+00401+00301999999ADDMA1101201999990REMMET063METAR ETGQ 270220Z AUTO 22001KT //// // ////// 04/03 Q1012 ///=
0090102340999992014032702504+53133+009350FM-15+006199999V0201601N001019999999N999999999+00401+00201999999ADDMA1101201999990REMMET063METAR ETGQ 270250Z AUTO 16002KT //// // ////// 04/02 Q1012 ///=
0090102340999992014032703204+53133+009350FM-15+006199999V0201201N001019999999N999999999+00301+00201999999ADDMA1101201999990REMMET063METAR ETGQ 270320Z AUTO 12002KT //// // ////// 03/02 Q1012 ///=
0090102340999992014032703504+53133+009350FM-15+006199999V0201701N001019999999N999999999+00301+00201999999ADDMA1101201999990REMMET063METAR ETGQ 270350Z AUTO 17002KT //// // ////// 03/02 Q1012 ///=
0090102340999992014032704204+53133+009350FM-15+006199999V0209999C000019999999N999999999+00201+00101999999ADDMA1101201999990REMMET063METAR ETGQ 270420Z AUTO 00000KT //// // ////// 02/01 Q1012 ///=
0090102340999992014032704504+53133+009350FM-15+006199999V0209999C000019999999N999999999+00201+00101999999ADDMA1101201999990REMMET063METAR ETGQ 270450Z AUTO 00000KT //// // ////// 02/01 Q1012 ///=
0090102340999992014032705204+53133+009350FM-15+006199999V0209999V001019999999N999999999+00201+00101999999ADDMA1101201999990REMMET063METAR ETGQ 270520Z AUTO VRB02KT //// // ////// 02/01 Q1012 ///=
0090102340999992014032721504+53133+009350FM-15+006199999V0200801N003119999999N999999999+01101+00201999999ADDMA1101301999990REMMET063METAR ETGQ 272150Z AUTO 08006KT //// // ////// 11/02 Q1013 ///=
0090102340999992014032722204+53133+009350FM-15+006199999V0201001N002119999999N999999999+01101+00201999999ADDMA1101301999990REMMET063METAR ETGQ 272220Z AUTO 10004KT //// // ////// 11/02 Q1013 ///=
0090102340999992014032722504+53133+009350FM-15+006199999V0200801N001519999999N999999999+01001+00201999999ADDMA1101301999990REMMET063METAR ETGQ 272250Z AUTO 08003KT //// // ////// 10/02 Q1013 ///=
0090102340999992014032723204+53133+009350FM-15+006199999V0209999V001019999999N999999999+01001+00201999999ADDMA1101301999990REMMET063METAR ETGQ 272320Z AUTO VRB02KT //// // ////// 10/02 Q1013 ///=
0090102340999992014032723504+53133+009350FM-15+006199999V0201501N001519999999N999999999+01001+00201999999ADDMA1101301999990REMMET063METAR ETGQ 272350Z AUTO 15003KT //// // ////// 10/02 Q1013 ///=
0090102340999992014032800204+53133+009350FM-15+006199999V0200901N002119999999N999999999+01001+00201999999ADDMA1101301999990REMMET063METAR ETGQ 280020Z AUTO 09004KT //// // ////// 10/02 Q1013 ///=
0090102340999992014032800504+53133+009350FM-15+006199999V0200601N001519999999N999999999+00901+00201999999ADDMA1101401999990REMMET063METAR ETGQ 280050Z AUTO 06003KT //// // ////// 09/02 Q1014 ///=
0090102340999992014032801204+53133+009350FM-15+006199999V0201201N001019999999N999999999+00801+00201999999ADDMA1101401999990REMMET063METAR ETGQ 280120Z AUTO 12002KT //// // ////// 08/02 Q1014 ///=
0090102340999992014032801504+53133+009350FM-15+006199999V0209999C000019999999N999999999+00701+00201999999ADDMA1101401999990REMMET063METAR ETGQ 280150Z AUTO 00000KT //// // ////// 07/02 Q1014 ///=
0090102340999992014032802204+53133+009350FM-15+006199999V0201801N001019999999N999999999+00701+00201999999ADDMA1101401999990REMMET063METAR ETGQ 280220Z AUTO 18002KT //// // ////// 07/02 Q1014 ///=
0090102340999992014032802504+53133+009350FM-15+006199999V0201901N001019999999N999999999+00601+00301999999ADDMA1101401999990REMMET063METAR ETGQ 280250Z AUTO 19002KT //// // ////// 06/03 Q1014 ///=
0090102340999992014032803204+53133+009350FM-15+006199999V0201801N001019999999N999999999+00601+00301999999ADDMA1101401999990REMMET063METAR ETGQ 280320Z AUTO 18002KT //// // ////// 06/03 Q1014 ///=
0090102340999992014032803504+53133+009350FM-15+006199999V0201701N001019999999N999999999+00501+00301999999ADDMA1101501999990REMMET063METAR ETGQ 280350Z AUTO 17002KT //// // ////// 05/03 Q1015 ///=
0090102340999992014032804204+53133+009350FM-15+006199999V0209999V000519999999N999999999+00501+00201999999ADDMA1101501999990REMMET063METAR ETGQ 280420Z AUTO VRB01KT //// // ////// 05/02 Q1015 ///=
0090102340999992014032804504+53133+009350FM-15+006199999V0209999V000519999999N999999999+00401+00201999999ADDMA1101501999990REMMET063METAR ETGQ 280450Z AUTO VRB01KT //// // ////// 04/02 Q1015 ///=
0090102340999992014032805204+53133+009350FM-15+006199999V0209999V001019999999N999999999+00401+00201999999ADDMA1101601999990REMMET063METAR ETGQ 280520Z AUTO VRB02KT //// // ////// 04/02 Q1016 ///=
0090102340999992014032820204+53133+009350FM-15+006199999V0201001N003119999999N999999999+01101+00201999999ADDMA1101801999990REMMET063METAR ETGQ 282020Z AUTO 10006KT //// // ////// 11/02 Q1018 ///=
0090102340999992014032820504+53133+009350FM-15+006199999V0201401N001519999999N999999999+01101+00201999999ADDMA1101901999990REMMET063METAR ETGQ 282050Z AUTO 14003KT //// // ////// 11/02 Q1019 ///=
0090102340999992014032821204+53133+009350FM-15+006199999V0201501N001519999999N999999999+01001+00301999999ADDMA1101901999990REMMET063METAR ETGQ 282120Z AUTO 15003KT //// // ////// 10/03 Q1019 ///=
0090102340999992014032821504+53133+009350FM-15+006199999V0201101N002119999999N999999999+01001+00301999999ADDMA1101901999990REMMET063METAR ETGQ 282150Z AUTO 11004KT //// // ////// 10/03 Q1019 ///=
0090102340999992014032822204+53133+009350FM-15+006199999V0201201N002619999999N999999999+00901+00301999999ADDMA1102001999990REMMET063METAR ETGQ 282220Z AUTO 12005KT //// // ////// 09/03 Q1020 ///=
0090102340999992014032822504+53133+009350FM-15+006199999V0201001N002619999999N999999999+00901+00301999999ADDMA1102001999990REMMET063METAR ETGQ 282250Z AUTO 10005KT //// // ////// 09/03 Q1020 ///=
0090102340999992014032823204+53133+009350FM-15+006199999V0201101N002119999999N999999999+00901+00301999999ADDMA1102001999990REMMET063METAR ETGQ 282320Z AUTO 11004KT //// // ////// 09/03 Q1020 ///=
0090102340999992014032823504+53133+009350FM-15+006199999V0201001N002119999999N999999999+00801+00301999999ADDMA1102001999990REMMET063METAR ETGQ 282350Z AUTO 10004KT //// // ////// 08/03 Q1020 ///=
0090102340999992014032900204+53133+009350FM-15+006199999V0209999V001019999999N999999999+00801+00301999999ADDMA1102001999990REMMET063METAR ETGQ 290020Z AUTO VRB02KT //// // ////// 08/03 Q1020 ///=
0090102340999992014032900504+53133+009350FM-15+006199999V0202701N001019999999N999999999+00701+00301999999ADDMA1102001999990REMMET063METAR ETGQ 290050Z AUTO 27002KT //// // ////// 07/03 Q1020 ///=
0090102340999992014032901204+53133+009350FM-15+006199999V0202301N001019999999N999999999+00601+00301999999ADDMA1102001999990REMMET063METAR ETGQ 290120Z AUTO 23002KT //// // ////// 06/03 Q1020 ///=
0090102340999992014032901504+53133+009350FM-15+006199999V0209999V000519999999N999999999+00501+00201999999ADDMA1102001999990REMMET063METAR ETGQ 290150Z AUTO VRB01KT //// // ////// 05/02 Q1020 ///=
0090102340999992014032902204+53133+009350FM-15+006199999V0201601N000519999999N999999999+00501+00201999999ADDMA1102001999990REMMET063METAR ETGQ 290220Z AUTO 16001KT //// // ////// 05/02 Q1020 ///=
0090102340999992014032902504+53133+009350FM-15+006199999V0202301N001019999999N999999999+00601+00301999999ADDMA1102001999990REMMET063METAR ETGQ 290250Z AUTO 23002KT //// // ////// 06/03 Q1020 ///=
0090102340999992014032903204+53133+009350FM-15+006199999V0201901N001019999999N999999999+00601+00301999999ADDMA1102001999990REMMET063METAR ETGQ 290320Z AUTO 19002KT //// // ////// 06/03 Q1020 ///=
0090102340999992014032903504+53133+009350FM-15+006199999V0201901N000519999999N999999999+00401+00201999999ADDMA1102001999990REMMET063METAR ETGQ 290350Z AUTO 19001KT //// // ////// 04/02 Q1020 ///=
0090102340999992014032904204+53133+009350FM-15+006199999V0201901N001519999999N999999999+00601+00301999999ADDMA1102001999990REMMET063METAR ETGQ 290420Z AUTO 19003KT //// // ////// 06/03 Q1020 ///=
0090102340999992014032904504+53133+009350FM-15+006199999V0209999V000519999999N999999999+00401+00201999999ADDMA1102001999990REMMET063METAR ETGQ 290450Z AUTO VRB01KT //// // ////// 04/02 Q1020 ///=
0090102340999992014032905204+53133+009350FM-15+006199999V0209999V000519999999N999999999+00301+00101999999ADDMA1102101999990REMMET063METAR ETGQ 290520Z AUTO VRB01KT //// // ////// 03/01 Q1021 ///=
0090102340999992014032920204+53133+009350FM-15+006199999V0202201N001519999999N999999999+01201+00201999999ADDMA1101801999990REMMET063METAR ETGQ 292020Z AUTO 22003KT //// // ////// 12/02 Q1018 ///=
0090102340999992014032920504+53133+009350FM-15+006199999V0202201N001019999999N999999999+01101+00201999999ADDMA1101801999990REMMET063METAR ETGQ 292050Z AUTO 22002KT //// // ////// 11/02 Q1018 ///=
0090102340999992014032921204+53133+009350FM-15+006199999V0201801N001519999999N999999999+01001+00301999999ADDMA1101801999990REMMET063METAR ETGQ 292120Z AUTO 18003KT //// // ////// 10/03 Q1018 ///=
0090102340999992014032921504+53133+009350FM-15+006199999V0201801N001019999999N999999999+01001+00301999999ADDMA1101801999990REMMET063METAR ETGQ 292150Z AUTO 18002KT //// // ////// 10/03 Q1018 ///=
0090102340999992014032922204+53133+009350FM-15+006199999V0201101N001019999999N999999999+00901+00301999999ADDMA1101801999990REMMET063METAR ETGQ 292220Z AUTO 11002KT //// // ////// 09/03 Q1018 ///=
0090102340999992014032922504+53133+009350FM-15+006199999V0201601N001519999999N999999999+00901+00301999999ADDMA1101801999990REMMET063METAR ETGQ 292250Z AUTO 16003KT //// // ////// 09/03 Q1018 ///=
0090102340999992014032923204+53133+009350FM-15+006199999V0202001N001019999999N999999999+00801+00301999999ADDMA1101701999990REMMET063METAR ETGQ 292320Z AUTO 20002KT //// // ////// 08/03 Q1017 ///=
0090102340999992014032923504+53133+009350FM-15+006199999V0202701N001019999999N999999999+00701+00301999999ADDMA1101801999990REMMET063METAR ETGQ 292350Z AUTO 27002KT //// // ////// 07/03 Q1018 ///=
0090102340999992014033000204+53133+009350FM-15+006199999V0202001N000519999999N999999999+00701+00301999999ADDMA1101701999990REMMET063METAR ETGQ 300020Z AUTO 20001KT //// // ////// 07/03 Q1017 ///=
0090102340999992014033000504+53133+009350FM-15+006199999V0201801N001019999999N999999999+00701+00301999999ADDMA1101701999990REMMET063METAR ETGQ 300050Z AUTO 18002KT //// // ////// 07/03 Q1017 ///=
0090102340999992014033001204+53133+009350FM-15+006199999V0201901N000519999999N999999999+00601+00301999999ADDMA1101701999990REMMET063METAR ETGQ 300120Z AUTO 19001KT //// // ////// 06/03 Q1017 ///=
0090102340999992014033001504+53133+009350FM-15+006199999V0202001N000519999999N999999999+00601+00301999999ADDMA1101701999990REMMET063METAR ETGQ 300150Z AUTO 20001KT //// // ////// 06/03 Q1017 ///=
0090102340999992014033002204+53133+009350FM-15+006199999V0202101N001019999999N999999999+00501+00301999999ADDMA1101701999990REMMET063METAR ETGQ 300220Z AUTO 21002KT //// // ////// 05/03 Q1017 ///=
0090102340999992014033002504+53133+009350FM-15+006199999V0202201N001019999999N999999999+00501+00301999999ADDMA1101701999990REMMET063METAR ETGQ 300250Z AUTO 22002KT //// // ////// 05/03 Q1017 ///=
0090102340999992014033003204+53133+009350FM-15+006199999V0201201N001019999999N999999999+00401+00201999999ADDMA1101701999990REMMET063METAR ETGQ 300320Z AUTO 12002KT //// // ////// 04/02 Q1017 ///=
0090102340999992014033003504+53133+009350FM-15+006199999V0202301N001019999999N999999999+00401+00201999999ADDMA1101701999990REMMET063METAR ETGQ 300350Z AUTO 23002KT //// // ////// 04/02 Q1017 ///=
0090102340999992014033004204+53133+009350FM-15+006199999V0201001N000519999999N999999999+00401+00201999999ADDMA1101701999990REMMET063METAR ETGQ 300420Z AUTO 10001KT //// // ////// 04/02 Q1017 ///=
0090102340999992014033019204+53133+009350FM-15+006199999V0209999V000519999999N999999999+01401+00501999999ADDMA1101501999990REMMET063METAR ETGQ 301920Z AUTO VRB01KT //// // ////// 14/05 Q1015 ///=
0090102340999992014033019504+53133+009350FM-15+006199999V0202201N001019999999N999999999+01301+00501999999ADDMA1101501999990REMMET063METAR ETGQ 301950Z AUTO 22002KT //// // ////// 13/05 Q1015 ///=
0090102340999992014033020204+53133+009350FM-15+006199999V0202401N001019999999N999999999+01201+00501999999ADDMA1101501999990REMMET063METAR ETGQ 302020Z AUTO 24002KT //// // ////// 12/05 Q1015 ///=
0090102340999992014033020504+53133+009350FM-15+006199999V0202301N001019999999N999999999+01201+00501999999ADDMA1101501999990REMMET063METAR ETGQ 302050Z AUTO 23002KT //// // ////// 12/05 Q1015 ///=
0090102340999992014033021204+53133+009350FM-15+006199999V0202201N001019999999N999999999+01101+00501999999ADDMA1101501999990REMMET063METAR ETGQ 302120Z AUTO 22002KT //// // ////// 11/05 Q1015 ///=
0090102340999992014033021504+53133+009350FM-15+006199999V0209999V000519999999N999999999+01001+00501999999ADDMA1101601999990REMMET063METAR ETGQ 302150Z AUTO VRB01KT //// // ////// 10/05 Q1016 ///=
0090102340999992014033022204+53133+009350FM-15+006199999V0209999C000019999999N999999999+01001+00501999999ADDMA1101601999990REMMET063METAR ETGQ 302220Z AUTO 00000KT //// // ////// 10/05 Q1016 ///=
0090102340999992014033022504+53133+009350FM-15+006199999V0209999V000519999999N999999999+01001+00501999999ADDMA1101501999990REMMET063METAR ETGQ 302250Z AUTO VRB01KT //// // ////// 10/05 Q1015 ///=
0090102340999992014033023204+53133+009350FM-15+006199999V0202001N000519999999N999999999+00901+00501999999ADDMA1101501999990REMMET063METAR ETGQ 302320Z AUTO 20001KT //// // ////// 09/05 Q1015 ///=
0090102340999992014033023504+53133+009350FM-15+006199999V0209999V000519999999N999999999+00901+00501999999ADDMA1101501999990REMMET063METAR ETGQ 302350Z AUTO VRB01KT //// // ////// 09/05 Q1015 ///=
0090102340999992014033100204+53133+009350FM-15+006199999V0202201N001019999999N999999999+00901+00501999999ADDMA1101501999990REMMET063METAR ETGQ 310020Z AUTO 22002KT //// // ////// 09/05 Q1015 ///=
0090102340999992014033100504+53133+009350FM-15+006199999V0202601N001019999999N999999999+00901+00501999999ADDMA1101501999990REMMET063METAR ETGQ 310050Z AUTO 26002KT //// // ////// 09/05 Q1015 ///=
0090102340999992014033101204+53133+009350FM-15+006199999V0201401N001019999999N999999999+00801+00501999999ADDMA1101501999990REMMET063METAR ETGQ 310120Z AUTO 14002KT //// // ////// 08/05 Q1015 ///=
0090102340999992014033101504+53133+009350FM-15+006199999V0202301N001019999999N999999999+00801+00501999999ADDMA1101501999990REMMET063METAR ETGQ 310150Z AUTO 23002KT //// // ////// 08/05 Q1015 ///=
0090102340999992014033102204+53133+009350FM-15+006199999V0201401N001019999999N999999999+00801+00501999999ADDMA1101501999990REMMET063METAR ETGQ 310220Z AUTO 14002KT //// // ////// 08/05 Q1015 ///=
0090102340999992014033102504+53133+009350FM-15+006199999V0202101N001019999999N999999999+00801+00501999999ADDMA1101501999990REMMET063METAR ETGQ 310250Z AUTO 21002KT //// // ////// 08/05 Q1015 ///=
0090102340999992014033103204+53133+009350FM-15+006199999V0202201N001519999999N999999999+00801+00501999999ADDMA1101501999990REMMET063METAR ETGQ 310320Z AUTO 22003KT //// // ////// 08/05 Q1015 ///=
0090102340999992014033103504+53133+009350FM-15+006199999V0202601N000519999999N999999999+00701+00501999999ADDMA1101501999990REMMET063METAR ETGQ 310350Z AUTO 26001KT //// // ////// 07/05 Q1015 ///=
0090102340999992014033104204+53133+009350FM-15+006199999V0209999C000019999999N999999999+00701+00501999999ADDMA1101501999990REMMET063METAR ETGQ 310420Z AUTO 00000KT //// // ////// 07/05 Q1015 ///=
0091102340999992014033119204+53133+009350FM-15+006199999V0201401N001519999999N999999999+01601+00001999999ADDMA1101301999990REMMET064METAR ETGQ 311920Z AUTO 14003KT //// // ////// 16/M00 Q1013 ///=
0090102340999992014033119504+53133+009350FM-15+006199999V0201301N001519999999N999999999+01501+00101999999ADDMA1101301999990REMMET063METAR ETGQ 311950Z AUTO 13003KT //// // ////// 15/01 Q1013 ///=
0090102340999992014033120204+53133+009350FM-15+006199999V0201301N001519999999N999999999+01501+00201999999ADDMA1101301999990REMMET063METAR ETGQ 312020Z AUTO 13003KT //// // ////// 15/02 Q1013 ///=
0090102340999992014033120504+53133+009350FM-15+006199999V0201601N001519999999N999999999+01401+00301999999ADDMA1101301999990REMMET063METAR ETGQ 312050Z AUTO 16003KT //// // ////// 14/03 Q1013 ///=
0090102340999992014033121204+53133+009350FM-15+006199999V0201601N001519999999N999999999+01401+00301999999ADDMA1101301999990REMMET063METAR ETGQ 312120Z AUTO 16003KT //// // ////// 14/03 Q1013 ///=
0090102340999992014033121504+53133+009350FM-15+006199999V0201601N001519999999N999999999+01301+00301999999ADDMA1101301999990REMMET063METAR ETGQ 312150Z AUTO 16003KT //// // ////// 13/03 Q1013 ///=
0090102340999992014033122204+53133+009350FM-15+006199999V0201401N001519999999N999999999+01301+00401999999ADDMA1101301999990REMMET063METAR ETGQ 312220Z AUTO 14003KT //// // ////// 13/04 Q1013 ///=
0090102340999992014033122504+53133+009350FM-15+006199999V0201401N001019999999N999999999+01201+00501999999ADDMA1101301999990REMMET063METAR ETGQ 312250Z AUTO 14002KT //// // ////// 12/05 Q1013 ///=
0090102340999992014033123204+53133+009350FM-15+006199999V0201701N001519999999N999999999+01201+00501999999ADDMA1101301999990REMMET063METAR ETGQ 312320Z AUTO 17003KT //// // ////// 12/05 Q1013 ///=
0090102340999992014033123504+53133+009350FM-15+006199999V0209999V000519999999N999999999+01201+00501999999ADDMA1101301999990REMMET063METAR ETGQ 312350Z AUTO VRB01KT //// // ////// 12/05 Q1013 ///=
0090102340999992014040100204+53133+009350FM-15+006199999V0201401N002119999999N999999999+01201+00501999999ADDMA1101301999990REMMET063METAR ETGQ 010020Z AUTO 14004KT //// // ////// 12/05 Q1013 ///=
0090102340999992014040100504+53133+009350FM-15+006199999V0201401N001519999999N999999999+01101+00501999999ADDMA1101301999990REMMET063METAR ETGQ 010050Z AUTO 14003KT //// // ////// 11/05 Q1013 ///=
0090102340999992014040101204+53133+009350FM-15+006199999V0201501N001519999999N999999999+01101+00601999999ADDMA1101301999990REMMET063METAR ETGQ 010120Z AUTO 15003KT //// // ////// 11/06 Q1013 ///=
0090102340999992014040101504+53133+009350FM-15+006199999V0202001N001019999999N999999999+01001+00601999999ADDMA1101301999990REMMET063METAR ETGQ 010150Z AUTO 20002KT //// // ////// 10/06 Q1013 ///=
0090102340999992014040102204+53133+009350FM-15+006199999V0201301N001519999999N999999999+01001+00601999999ADDMA1101301999990REMMET063METAR ETGQ 010220Z AUTO 13003KT //// // ////// 10/06 Q1013 ///=
0090102340999992014040102504+53133+009350FM-15+006199999V0201401N002119999999N999999999+01001+00501999999ADDMA1101201999990REMMET063METAR ETGQ 010250Z AUTO 14004KT //// // ////// 10/05 Q1012 ///=
0090102340999992014040103204+53133+009350FM-15+006199999V0201401N001519999999N999999999+01001+00601999999ADDMA1101201999990REMMET063METAR ETGQ 010320Z AUTO 14003KT //// // ////// 10/06 Q1012 ///=
0090102340999992014040103504+53133+009350FM-15+006199999V0201901N001019999999N999999999+00901+00601999999ADDMA1101201999990REMMET063METAR ETGQ 010350Z AUTO 19002KT //// // ////// 09/06 Q1012 ///=
0090102340999992014040104204+53133+009350FM-15+006199999V0202101N001019999999N999999999+00901+00601999999ADDMA1101201999990REMMET063METAR ETGQ 010420Z AUTO 21002KT //// // ////// 09/06 Q1012 ///=
0090102340999992014040119204+53133+009350FM-15+006199999V0202401N001019999999N999999999+01801+00701999999ADDMA1101001999990REMMET063METAR ETGQ 011920Z AUTO 24002KT //// // ////// 18/07 Q1010 ///=
0090102340999992014040119504+53133+009350FM-15+006199999V0202101N001019999999N999999999+01701+00701999999ADDMA1101001999990REMMET063METAR ETGQ 011950Z AUTO 21002KT //// // ////// 17/07 Q1010 ///=
0090102340999992014040120204+53133+009350FM-15+006199999V0202201N001019999999N999999999+01601+00601999999ADDMA1100901999990REMMET063METAR ETGQ 012020Z AUTO 22002KT //// // ////// 16/06 Q1009 ///=
0090102340999992014040120504+53133+009350FM-15+006199999V0209999V000519999999N999999999+01501+00701999999ADDMA1101001999990REMMET063METAR ETGQ 012050Z AUTO VRB01KT //// // ////// 15/07 Q1010 ///=
0090102340999992014040121204+53133+009350FM-15+006199999V0202701N000519999999N999999999+01401+00701999999ADDMA1101001999990REMMET063METAR ETGQ 012120Z AUTO 27001KT //// // ////// 14/07 Q1010 ///=
0090102340999992014040121504+53133+009350FM-15+006199999V0202001N001519999999N999999999+01301+00701999999ADDMA1101001999990REMMET063METAR ETGQ 012150Z AUTO 20003KT //// // ////// 13/07 Q1010 ///=
0090102340999992014040122204+53133+009350FM-15+006199999V0202201N001019999999N999999999+01301+00701999999ADDMA1101001999990REMMET063METAR ETGQ 012220Z AUTO 22002KT //// // ////// 13/07 Q1010 ///=
0090102340999992014040122504+53133+009350FM-15+006199999V0202301N001519999999N999999999+01201+00701999999ADDMA1101001999990REMMET063METAR ETGQ 012250Z AUTO 23003KT //// // ////// 12/07 Q1010 ///=
0090102340999992014040123204+53133+009350FM-15+006199999V0202101N001019999999N999999999+01201+00701999999ADDMA1101001999990REMMET063METAR ETGQ 012320Z AUTO 21002KT //// // ////// 12/07 Q1010 ///=
0090102340999992014040123504+53133+009350FM-15+006199999V0202101N001019999999N999999999+01101+00601999999ADDMA1101001999990REMMET063METAR ETGQ 012350Z AUTO 21002KT //// // ////// 11/06 Q1010 ///=
0090102340999992014040200204+53133+009350FM-15+006199999V0202001N001019999999N999999999+01001+00601999999ADDMA1101001999990REMMET063METAR ETGQ 020020Z AUTO 20002KT //// // ////// 10/06 Q1010 ///=
0090102340999992014040200504+53133+009350FM-15+006199999V0202201N001019999999N999999999+01001+00601999999ADDMA1101001999990REMMET063METAR ETGQ 020050Z AUTO 22002KT //// // ////// 10/06 Q1010 ///=
0090102340999992014040201204+53133+009350FM-15+006199999V0202201N001019999999N999999999+00901+00601999999ADDMA1101001999990REMMET063METAR ETGQ 020120Z AUTO 22002KT //// // ////// 09/06 Q1010 ///=
0090102340999992014040201504+53133+009350FM-15+006199999V0202201N001019999999N999999999+00901+00601999999ADDMA1101001999990REMMET063METAR ETGQ 020150Z AUTO 22002KT //// // ////// 09/06 Q1010 ///=
0090102340999992014040202204+53133+009350FM-15+006199999V0202301N001519999999N999999999+00901+00601999999ADDMA1101001999990REMMET063METAR ETGQ 020220Z AUTO 23003KT //// // ////// 09/06 Q1010 ///=
0090102340999992014040202504+53133+009350FM-15+006199999V0202201N001019999999N999999999+00801+00601999999ADDMA1101001999990REMMET063METAR ETGQ 020250Z AUTO 22002KT //// // ////// 08/06 Q1010 ///=
0090102340999992014040203204+53133+009350FM-15+006199999V0209999C000019999999N999999999+00801+00501999999ADDMA1100901999990REMMET063METAR ETGQ 020320Z AUTO 00000KT //// // ////// 08/05 Q1009 ///=
0090102340999992014040203504+53133+009350FM-15+006199999V0202101N001019999999N999999999+00801+00601999999ADDMA1100901999990REMMET063METAR ETGQ 020350Z AUTO 21002KT //// // ////// 08/06 Q1009 ///=
0090102340999992014040204204+53133+009350FM-15+006199999V0202101N001019999999N999999999+00701+00501999999ADDMA1100901999990REMMET063METAR ETGQ 020420Z AUTO 21002KT //// // ////// 07/05 Q1009 ///=
0090102340999992014040219204+53133+009350FM-15+006199999V0201401N001019999999N999999999+01701+00701999999ADDMA1100401999990REMMET063METAR ETGQ 021920Z AUTO 14002KT //// // ////// 17/07 Q1004 ///=
0090102340999992014040219504+53133+009350FM-15+006199999V0201001N001019999999N999999999+01601+00801999999ADDMA1100501999990REMMET063METAR ETGQ 021950Z AUTO 10002KT //// // ////// 16/08 Q1005 ///=
0090102340999992014040220204+53133+009350FM-15+006199999V0201301N001519999999N999999999+01601+00801999999ADDMA1100401999990REMMET063METAR ETGQ 022020Z AUTO 13003KT //// // ////// 16/08 Q1004 ///=
0090102340999992014040220504+53133+009350FM-15+006199999V0202001N001019999999N999999999+01501+00801999999ADDMA1100401999990REMMET063METAR ETGQ 022050Z AUTO 20002KT //// // ////// 15/08 Q1004 ///=
0090102340999992014040221204+53133+009350FM-15+006199999V0202201N000519999999N999999999+01401+00801999999ADDMA1100501999990REMMET063METAR ETGQ 022120Z AUTO 22001KT //// // ////// 14/08 Q1005 ///=
0090102340999992014040221504+53133+009350FM-15+006199999V0209999V000519999999N999999999+01301+00801999999ADDMA1100501999990REMMET063METAR ETGQ 022150Z AUTO VRB01KT //// // ////// 13/08 Q1005 ///=
0090102340999992014040222204+53133+009350FM-15+006199999V0209999C000019999999N999999999+01201+00801999999ADDMA1100401999990REMMET063METAR ETGQ 022220Z AUTO 00000KT //// // ////// 12/08 Q1004 ///=
0090102340999992014040222504+53133+009350FM-15+006199999V0201701N001019999999N999999999+01301+00801999999ADDMA1100501999990REMMET063METAR ETGQ 022250Z AUTO 17002KT //// // ////// 13/08 Q1005 ///=
0090102340999992014040223204+53133+009350FM-15+006199999V0209999V001019999999N999999999+01201+00801999999ADDMA1100401999990REMMET063METAR ETGQ 022320Z AUTO VRB02KT //// // ////// 12/08 Q1004 ///=
0090102340999992014040223504+53133+009350FM-15+006199999V0202101N001519999999N999999999+01201+00801999999ADDMA1100401999990REMMET063METAR ETGQ 022350Z AUTO 21003KT //// // ////// 12/08 Q1004 ///=
0090102340999992014040300204+53133+009350FM-15+006199999V0202501N001519999999N999999999+01201+00801999999ADDMA1100401999990REMMET063METAR ETGQ 030020Z AUTO 25003KT //// // ////// 12/08 Q1004 ///=
0090102340999992014040300504+53133+009350FM-15+006199999V0202301N001019999999N999999999+01101+00801999999ADDMA1100401999990REMMET063METAR ETGQ 030050Z AUTO 23002KT //// // ////// 11/08 Q1004 ///=
0090102340999992014040301204+53133+009350FM-15+006199999V0209999V000519999999N999999999+01101+00801999999ADDMA1100401999990REMMET063METAR ETGQ 030120Z AUTO VRB01KT //// // ////// 11/08 Q1004 ///=
0090102340999992014040301504+53133+009350FM-15+006199999V0201701N001019999999N999999999+01101+00801999999ADDMA1100401999990REMMET063METAR ETGQ 030150Z AUTO 17002KT //// // ////// 11/08 Q1004 ///=
0090102340999992014040302204+53133+009350FM-15+006199999V0202301N001019999999N999999999+01101+00801999999ADDMA1100401999990REMMET063METAR ETGQ 030220Z AUTO 23002KT //// // ////// 11/08 Q1004 ///=
0090102340999992014040302504+53133+009350FM-15+006199999V0202201N001019999999N999999999+01001+00701999999ADDMA1100401999990REMMET063METAR ETGQ 030250Z AUTO 22002KT //// // ////// 10/07 Q1004 ///=
0090102340999992014040303204+53133+009350FM-15+006199999V0202201N001019999999N999999999+00901+00701999999ADDMA1100401999990REMMET063METAR ETGQ 030320Z AUTO 22002KT //// // ////// 09/07 Q1004 ///=
0090102340999992014040303504+53133+009350FM-15+006199999V0209999V000519999999N999999999+00901+00701999999ADDMA1100401999990REMMET063METAR ETGQ 030350Z AUTO VRB01KT //// // ////// 09/07 Q1004 ///=
0090102340999992014040304204+53133+009350FM-15+006199999V0202101N001019999999N999999999+00901+00701999999ADDMA1100401999990REMMET063METAR ETGQ 030420Z AUTO 21002KT //// // ////// 09/07 Q1004 ///=
0090102340999992014040319204+53133+009350FM-15+006199999V0202601N000519999999N999999999+01601+00801999999ADDMA1100401999990REMMET063METAR ETGQ 031920Z AUTO 26001KT //// // ////// 16/08 Q1004 ///=
0090102340999992014040319504+53133+009350FM-15+006199999V0209999V000519999999N999999999+01601+00801999999ADDMA1100501999990REMMET063METAR ETGQ 031950Z AUTO VRB01KT //// // ////// 16/08 Q1005 ///=
0090102340999992014040320204+53133+009350FM-15+006199999V0202201N001519999999N999999999+01601+00801999999ADDMA1100501999990REMMET063METAR ETGQ 032020Z AUTO 22003KT //// // ////// 16/08 Q1005 ///=
0090102340999992014040320504+53133+009350FM-15+006199999V0201901N001019999999N999999999+01401+00801999999ADDMA1100501999990REMMET063METAR ETGQ 032050Z AUTO 19002KT //// // ////// 14/08 Q1005 ///=
0090102340999992014040321204+53133+009350FM-15+006199999V0201901N001019999999N999999999+01401+00801999999ADDMA1100501999990REMMET063METAR ETGQ 032120Z AUTO 19002KT //// // ////// 14/08 Q1005 ///=
0090102340999992014040321504+53133+009350FM-15+006199999V0202001N001019999999N999999999+01301+00801999999ADDMA1100601999990REMMET063METAR ETGQ 032150Z AUTO 20002KT //// // ////// 13/08 Q1006 ///=
0090102340999992014040322204+53133+009350FM-15+006199999V0202101N001019999999N999999999+01301+00801999999ADDMA1100601999990REMMET063METAR ETGQ 032220Z AUTO 21002KT //// // ////// 13/08 Q1006 ///=
0090102340999992014040322504+53133+009350FM-15+006199999V0202201N001019999999N999999999+01201+00801999999ADDMA1100601999990REMMET063METAR ETGQ 032250Z AUTO 22002KT //// // ////// 12/08 Q1006 ///=
0090102340999992014040323204+53133+009350FM-15+006199999V0202201N001019999999N999999999+01301+00801999999ADDMA1100601999990REMMET063METAR ETGQ 032320Z AUTO 22002KT //// // ////// 13/08 Q1006 ///=
0090102340999992014040323504+53133+009350FM-15+006199999V0209999C000019999999N999999999+01301+00801999999ADDMA1100601999990REMMET063METAR ETGQ 032350Z AUTO 00000KT //// // ////// 13/08 Q1006 ///=
0090102340999992014040400204+53133+009350FM-15+006199999V0202001N001019999999N999999999+01301+00801999999ADDMA1100601999990REMMET063METAR ETGQ 040020Z AUTO 20002KT //// // ////// 13/08 Q1006 ///=
0090102340999992014040400504+53133+009350FM-15+006199999V0202401N001019999999N999999999+01301+00801999999ADDMA1100601999990REMMET063METAR ETGQ 040050Z AUTO 24002KT //// // ////// 13/08 Q1006 ///=
0090102340999992014040401204+53133+009350FM-15+006199999V0202301N001019999999N999999999+01301+00801999999ADDMA1100601999990REMMET063METAR ETGQ 040120Z AUTO 23002KT //// // ////// 13/08 Q1006 ///=
0090102340999992014040401504+53133+009350FM-15+006199999V0203001N001019999999N999999999+01301+00801999999ADDMA1100601999990REMMET063METAR ETGQ 040150Z AUTO 30002KT //// // ////// 13/08 Q1006 ///=
0090102340999992014040402204+53133+009350FM-15+006199999V0203201N001519999999N999999999+01301+00801999999ADDMA1100601999990REMMET063METAR ETGQ 040220Z AUTO 32003KT //// // ////// 13/08 Q1006 ///=
0090102340999992014040402504+53133+009350FM-15+006199999V0202101N001519999999N999999999+01201+00901999999ADDMA1100601999990REMMET063METAR ETGQ 040250Z AUTO 21003KT //// // ////// 12/09 Q1006 ///=
0090102340999992014040403204+53133+009350FM-15+006199999V0201601N001019999999N999999999+01201+00901999999ADDMA1100601999990REMMET063METAR ETGQ 040320Z AUTO 16002KT //// // ////// 12/09 Q1006 ///=
0090102340999992014040403504+53133+009350FM-15+006199999V0201401N001519999999N999999999+01201+00901999999ADDMA1100601999990REMMET063METAR ETGQ 040350Z AUTO 14003KT //// // ////// 12/09 Q1006 ///=
0090102340999992014040404204+53133+009350FM-15+006199999V0201801N001019999999N999999999+01201+00901999999ADDMA1100601999990REMMET063METAR ETGQ 040420Z AUTO 18002KT //// // ////// 12/09 Q1006 ///=
0090102340999992014040404504+53133+009350FM-15+006199999V0209999V001019999999N999999999+01201+00901999999ADDMA1100701999990REMMET063METAR ETGQ 040450Z AUTO VRB02KT //// // ////// 12/09 Q1007 ///=
0090102340999992014040419204+53133+009350FM-15+006199999V0202901N002119999999N999999999+01601+01001999999ADDMA1100901999990REMMET063METAR ETGQ 041920Z AUTO 29004KT //// // ////// 16/10 Q1009 ///=
0090102340999992014040419504+53133+009350FM-15+006199999V0202801N001519999999N999999999+01501+01001999999ADDMA1100901999990REMMET063METAR ETGQ 041950Z AUTO 28003KT //// // ////// 15/10 Q1009 ///=
0090102340999992014040420204+53133+009350FM-15+006199999V0202601N001519999999N999999999+01501+01001999999ADDMA1101001999990REMMET063METAR ETGQ 042020Z AUTO 26003KT //// // ////// 15/10 Q1010 ///=
0090102340999992014040420504+53133+009350FM-15+006199999V0201801N001019999999N999999999+01501+01001999999ADDMA1101001999990REMMET063METAR ETGQ 042050Z AUTO 18002KT //// // ////// 15/10 Q1010 ///=
0090102340999992014040421204+53133+009350FM-15+006199999V0202801N002119999999N999999999+01401+01001999999ADDMA1101001999990REMMET063METAR ETGQ 042120Z AUTO 28004KT //// // ////// 14/10 Q1010 ///=
0090102340999992014040421504+53133+009350FM-15+006199999V0203001N003119999999N999999999+01401+01101999999ADDMA1101001999990REMMET063METAR ETGQ 042150Z AUTO 30006KT //// // ////// 14/11 Q1010 ///=
0090102340999992014040422204+53133+009350FM-15+006199999V0203201N002619999999N999999999+01401+01101999999ADDMA1101001999990REMMET063METAR ETGQ 042220Z AUTO 32005KT //// // ////// 14/11 Q1010 ///=
0090102340999992014040422504+53133+009350FM-15+006199999V0203001N001019999999N999999999+01401+01101999999ADDMA1101001999990REMMET063METAR ETGQ 042250Z AUTO 30002KT //// // ////// 14/11 Q1010 ///=
0090102340999992014040423204+53133+009350FM-15+006199999V0202701N001519999999N999999999+01301+01101999999ADDMA1101001999990REMMET063METAR ETGQ 042320Z AUTO 27003KT //// // ////// 13/11 Q1010 ///=
0090102340999992014040423504+53133+009350FM-15+006199999V0202901N001519999999N999999999+01301+01101999999ADDMA1101001999990REMMET063METAR ETGQ 042350Z AUTO 29003KT //// // ////// 13/11 Q1010 ///=
0090102340999992014040500204+53133+009350FM-15+006199999V0203001N002119999999N999999999+01301+01101999999ADDMA1101101999990REMMET063METAR ETGQ 050020Z AUTO 30004KT //// // ////// 13/11 Q1011 ///=
0090102340999992014040500504+53133+009350FM-15+006199999V0202901N002119999999N999999999+01301+01101999999ADDMA1101101999990REMMET063METAR ETGQ 050050Z AUTO 29004KT //// // ////// 13/11 Q1011 ///=
0090102340999992014040501204+53133+009350FM-15+006199999V0203001N002119999999N999999999+01301+01001999999ADDMA1101101999990REMMET063METAR ETGQ 050120Z AUTO 30004KT //// // ////// 13/10 Q1011 ///=
0090102340999992014040501504+53133+009350FM-15+006199999V0202901N002119999999N999999999+01301+01001999999ADDMA1101101999990REMMET063METAR ETGQ 050150Z AUTO 29004KT //// // ////// 13/10 Q1011 ///=
0090102340999992014040502204+53133+009350FM-15+006199999V0203001N002119999999N999999999+01301+01001999999ADDMA1101101999990REMMET063METAR ETGQ 050220Z AUTO 30004KT //// // ////// 13/10 Q1011 ///=
0090102340999992014040502504+53133+009350FM-15+006199999V0203201N002619999999N999999999+01301+01001999999ADDMA1101201999990REMMET063METAR ETGQ 050250Z AUTO 32005KT //// // ////// 13/10 Q1012 ///=
0090102340999992014040503204+53133+009350FM-15+006199999V0203201N001519999999N999999999+01301+01001999999ADDMA1101201999990REMMET063METAR ETGQ 050320Z AUTO 32003KT //// // ////// 13/10 Q1012 ///=
0090102340999992014040503504+53133+009350FM-15+006199999V0203001N002119999999N999999999+01201+01001999999ADDMA1101201999990REMMET063METAR ETGQ 050350Z AUTO 30004KT //// // ////// 12/10 Q1012 ///=
0090102340999992014040504204+53133+009350FM-15+006199999V0203001N001519999999N999999999+01201+01001999999ADDMA1101201999990REMMET063METAR ETGQ 050420Z AUTO 30003KT //// // ////// 12/10 Q1012 ///=
0090102340999992014040519204+53133+009350FM-15+006199999V0209999C000019999999N999999999+01401+00901999999ADDMA1101701999990REMMET063METAR ETGQ 051920Z AUTO 00000KT //// // ////// 14/09 Q1017 ///=
0090102340999992014040519504+53133+009350FM-15+006199999V0202201N000519999999N999999999+01401+01001999999ADDMA1101801999990REMMET063METAR ETGQ 051950Z AUTO 22001KT //// // ////// 14/10 Q1018 ///=
0090102340999992014040520204+53133+009350FM-15+006199999V0201901N001019999999N999999999+01301+01001999999ADDMA1101801999990REMMET063METAR ETGQ 052020Z AUTO 19002KT //// // ////// 13/10 Q1018 ///=
0090102340999992014040520504+53133+009350FM-15+006199999V0209999V000519999999N999999999+01301+01001999999ADDMA1101801999990REMMET063METAR ETGQ 052050Z AUTO VRB01KT //// // ////// 13/10 Q1018 ///=
0090102340999992014040521204+53133+009350FM-15+006199999V0209999C000019999999N999999999+01101+00901999999ADDMA1101801999990REMMET063METAR ETGQ 052120Z AUTO 00000KT //// // ////// 11/09 Q1018 ///=
0090102340999992014040521504+53133+009350FM-15+006199999V0202201N001019999999N999999999+01101+00901999999ADDMA1101801999990REMMET063METAR ETGQ 052150Z AUTO 22002KT //// // ////// 11/09 Q1018 ///=
0090102340999992014040522204+53133+009350FM-15+006199999V0202401N001519999999N999999999+01101+00901999999ADDMA1101801999990REMMET063METAR ETGQ 052220Z AUTO 24003KT //// // ////// 11/09 Q1018 ///=
0090102340999992014040522504+53133+009350FM-15+006199999V0202101N000519999999N999999999+01001+00801999999ADDMA1101801999990REMMET063METAR ETGQ 052250Z AUTO 21001KT //// // ////// 10/08 Q1018 ///=
0090102340999992014040523204+53133+009350FM-15+006199999V0202301N001019999999N999999999+00901+00801999999ADDMA1101801999990REMMET063METAR ETGQ 052320Z AUTO 23002KT //// // ////// 09/08 Q1018 ///=
0090102340999992014040523504+53133+009350FM-15+006199999V0209999V000519999999N999999999+00901+00801999999ADDMA1101801999990REMMET063METAR ETGQ 052350Z AUTO VRB01KT //// // ////// 09/08 Q1018 ///=
0090102340999992014040600204+53133+009350FM-15+006199999V0202301N001019999999N999999999+00901+00801999999ADDMA1101901999990REMMET063METAR ETGQ 060020Z AUTO 23002KT //// // ////// 09/08 Q1019 ///=
0090102340999992014040600504+53133+009350FM-15+006199999V0202001N001019999999N999999999+00801+00801999999ADDMA1101801999990REMMET063METAR ETGQ 060050Z AUTO 20002KT //// // ////// 08/08 Q1018 ///=
0090102340999992014040601204+53133+009350FM-15+006199999V0202201N000519999999N999999999+00801+00701999999ADDMA1101801999990REMMET063METAR ETGQ 060120Z AUTO 22001KT //// // ////// 08/07 Q1018 ///=
0090102340999992014040601504+53133+009350FM-15+006199999V0202201N001019999999N999999999+00801+00701999999ADDMA1101801999990REMMET063METAR ETGQ 060150Z AUTO 22002KT //// // ////// 08/07 Q1018 ///=
0090102340999992014040602204+53133+009350FM-15+006199999V0209999C000019999999N999999999+00801+00701999999ADDMA1101801999990REMMET063METAR ETGQ 060220Z AUTO 00000KT //// // ////// 08/07 Q1018 ///=
0090102340999992014040602504+53133+009350FM-15+006199999V0202201N000519999999N999999999+00701+00701999999ADDMA1101801999990REMMET063METAR ETGQ 060250Z AUTO 22001KT //// // ////// 07/07 Q1018 ///=
0090102340999992014040603204+53133+009350FM-15+006199999V0202301N001019999999N999999999+00701+00601999999ADDMA1101801999990REMMET063METAR ETGQ 060320Z AUTO 23002KT //// // ////// 07/06 Q1018 ///=
0090102340999992014040603504+53133+009350FM-15+006199999V0202001N001519999999N999999999+00701+00701999999ADDMA1101801999990REMMET063METAR ETGQ 060350Z AUTO 20003KT //// // ////// 07/07 Q1018 ///=
0090102340999992014040604204+53133+009350FM-15+006199999V0209999V001019999999N999999999+00701+00701999999ADDMA1101901999990REMMET063METAR ETGQ 060420Z AUTO VRB02KT //// // ////// 07/07 Q1019 ///=
0090102340999992014040619204+53133+009350FM-15+006199999V0202201N001019999999N999999999+01501+00901999999ADDMA1101901999990REMMET063METAR ETGQ 061920Z AUTO 22002KT //// // ////// 15/09 Q1019 ///=
0090102340999992014040619504+53133+009350FM-15+006199999V0201801N001019999999N999999999+01601+00901999999ADDMA1101901999990REMMET063METAR ETGQ 061950Z AUTO 18002KT //// // ////// 16/09 Q1019 ///=
0090102340999992014040620204+53133+009350FM-15+006199999V0201201N001019999999N999999999+01501+00901999999ADDMA1101901999990REMMET063METAR ETGQ 062020Z AUTO 12002KT //// // ////// 15/09 Q1019 ///=
0090102340999992014040620504+53133+009350FM-15+006199999V0201101N001019999999N999999999+01501+00901999999ADDMA1101901999990REMMET063METAR ETGQ 062050Z AUTO 11002KT //// // ////// 15/09 Q1019 ///=
0090102340999992014040621204+53133+009350FM-15+006199999V0209999V000519999999N999999999+01501+00901999999ADDMA1101901999990REMMET063METAR ETGQ 062120Z AUTO VRB01KT //// // ////// 15/09 Q1019 ///=
0090102340999992014040621504+53133+009350FM-15+006199999V0200701N001019999999N999999999+01501+00901999999ADDMA1101901999990REMMET063METAR ETGQ 062150Z AUTO 07002KT //// // ////// 15/09 Q1019 ///=
0090102340999992014040622204+53133+009350FM-15+006199999V0209999V001019999999N999999999+01501+00901999999ADDMA1101901999990REMMET063METAR ETGQ 062220Z AUTO VRB02KT //// // ////// 15/09 Q1019 ///=
0090102340999992014040622504+53133+009350FM-15+006199999V0201501N000519999999N999999999+01501+00901999999ADDMA1101901999990REMMET063METAR ETGQ 062250Z AUTO 15001KT //// // ////// 15/09 Q1019 ///=
0090102340999992014040623204+53133+009350FM-15+006199999V0201301N001019999999N999999999+01501+00901999999ADDMA1101901999990REMMET063METAR ETGQ 062320Z AUTO 13002KT //// // ////// 15/09 Q1019 ///=
0090102340999992014040623504+53133+009350FM-15+006199999V0209999V001019999999N999999999+01401+00901999999ADDMA1101901999990REMMET063METAR ETGQ 062350Z AUTO VRB02KT //// // ////// 14/09 Q1019 ///=
0090102340999992014040700204+53133+009350FM-15+006199999V0202201N000519999999N999999999+01401+00901999999ADDMA1101901999990REMMET063METAR ETGQ 070020Z AUTO 22001KT //// // ////// 14/09 Q1019 ///=
0090102340999992014040700504+53133+009350FM-15+006199999V0202001N001019999999N999999999+01401+00901999999ADDMA1101901999990REMMET063METAR ETGQ 070050Z AUTO 20002KT //// // ////// 14/09 Q1019 ///=
0090102340999992014040701204+53133+009350FM-15+006199999V0201901N000519999999N999999999+01401+00901999999ADDMA1101901999990REMMET063METAR ETGQ 070120Z AUTO 19001KT //// // ////// 14/09 Q1019 ///=
0090102340999992014040701504+53133+009350FM-15+006199999V0201801N001019999999N999999999+01401+00901999999ADDMA1101901999990REMMET063METAR ETGQ 070150Z AUTO 18002KT //// // ////// 14/09 Q1019 ///=
0090102340999992014040702204+53133+009350FM-15+006199999V0201501N001519999999N999999999+01301+00901999999ADDMA1101801999990REMMET063METAR ETGQ 070220Z AUTO 15003KT //// // ////// 13/09 Q1018 ///=
0090102340999992014040702504+53133+009350FM-15+006199999V0202201N001019999999N999999999+01301+00901999999ADDMA1101801999990REMMET063METAR ETGQ 070250Z AUTO 22002KT //// // ////// 13/09 Q1018 ///=
0090102340999992014040703204+53133+009350FM-15+006199999V0201401N001019999999N999999999+01301+00901999999ADDMA1101801999990REMMET063METAR ETGQ 070320Z AUTO 14002KT //// // ////// 13/09 Q1018 ///=
0090102340999992014040703504+53133+009350FM-15+006199999V0201401N001019999999N999999999+01301+00901999999ADDMA1101801999990REMMET063METAR ETGQ 070350Z AUTO 14002KT //// // ////// 13/09 Q1018 ///=
0090102340999992014040704204+53133+009350FM-15+006199999V0201301N001019999999N999999999+01301+01001999999ADDMA1101801999990REMMET063METAR ETGQ 070420Z AUTO 13002KT //// // ////// 13/10 Q1018 ///=
0090102340999992014040719204+53133+009350FM-15+006199999V0201401N002119999999N999999999+01901+00701999999ADDMA1101001999990REMMET063METAR ETGQ 071920Z AUTO 14004KT //// // ////// 19/07 Q1010 ///=
0090102340999992014040719504+53133+009350FM-15+006199999V0201401N002619999999N999999999+01901+00701999999ADDMA1101001999990REMMET063METAR ETGQ 071950Z AUTO 14005KT //// // ////// 19/07 Q1010 ///=
0090102340999992014040720204+53133+009350FM-15+006199999V0201701N001519999999N999999999+01801+00701999999ADDMA1101001999990REMMET063METAR ETGQ 072020Z AUTO 17003KT //// // ////// 18/07 Q1010 ///=
0090102340999992014040720504+53133+009350FM-15+006199999V0209999V001019999999N999999999+01801+00701999999ADDMA1101001999990REMMET063METAR ETGQ 072050Z AUTO VRB02KT //// // ////// 18/07 Q1010 ///=
0090102340999992014040721204+53133+009350FM-15+006199999V0201501N002119999999N999999999+01801+00701999999ADDMA1101001999990REMMET063METAR ETGQ 072120Z AUTO 15004KT //// // ////// 18/07 Q1010 ///=
0090102340999992014040721504+53133+009350FM-15+006199999V0201401N001519999999N999999999+01801+00701999999ADDMA1101001999990REMMET063METAR ETGQ 072150Z AUTO 14003KT //// // ////// 18/07 Q1010 ///=
0090102340999992014040722204+53133+009350FM-15+006199999V0201701N001019999999N999999999+01801+00701999999ADDMA1101001999990REMMET063METAR ETGQ 072220Z AUTO 17002KT //// // ////// 18/07 Q1010 ///=
0090102340999992014040722504+53133+009350FM-15+006199999V0203101N001019999999N999999999+01701+00801999999ADDMA1101001999990REMMET063METAR ETGQ 072250Z AUTO 31002KT //// // ////// 17/08 Q1010 ///=
0090102340999992014040723204+53133+009350FM-15+006199999V0201501N001019999999N999999999+01701+00801999999ADDMA1101001999990REMMET063METAR ETGQ 072320Z AUTO 15002KT //// // ////// 17/08 Q1010 ///=
0090102340999992014040723504+53133+009350FM-15+006199999V0201701N001519999999N999999999+01701+00901999999ADDMA1101001999990REMMET063METAR ETGQ 072350Z AUTO 17003KT //// // ////// 17/09 Q1010 ///=
0090102340999992014040800204+53133+009350FM-15+006199999V0209999V001019999999N999999999+01601+00901999999ADDMA1101001999990REMMET063METAR ETGQ 080020Z AUTO VRB02KT //// // ////// 16/09 Q1010 ///=
0090102340999992014040800504+53133+009350FM-15+006199999V0203001N003119999999N999999999+01601+00901999999ADDMA1101001999990REMMET063METAR ETGQ 080050Z AUTO 30006KT //// // ////// 16/09 Q1010 ///=
0090102340999992014040801204+53133+009350FM-15+006199999V0209999V000519999999N999999999+01501+00901999999ADDMA1101001999990REMMET063METAR ETGQ 080120Z AUTO VRB01KT //// // ////// 15/09 Q1010 ///=
0090102340999992014040801504+53133+009350FM-15+006199999V0209999V001019999999N999999999+01501+01001999999ADDMA1101001999990REMMET063METAR ETGQ 080150Z AUTO VRB02KT //// // ////// 15/10 Q1010 ///=
0090102340999992014040802204+53133+009350FM-15+006199999V0201601N001019999999N999999999+01501+01001999999ADDMA1101001999990REMMET063METAR ETGQ 080220Z AUTO 16002KT //// // ////// 15/10 Q1010 ///=
0090102340999992014040802504+53133+009350FM-15+006199999V0209999V001019999999N999999999+01501+01001999999ADDMA1101001999990REMMET063METAR ETGQ 080250Z AUTO VRB02KT //// // ////// 15/10 Q1010 ///=
0090102340999992014040803204+53133+009350FM-15+006199999V0201701N002619999999N999999999+01601+00901999999ADDMA1101001999990REMMET063METAR ETGQ 080320Z AUTO 17005KT //// // ////// 16/09 Q1010 ///=
0090102340999992014040803504+53133+009350FM-15+006199999V0202401N002619999999N999999999+01501+00901999999ADDMA1101101999990REMMET063METAR ETGQ 080350Z AUTO 24005KT //// // ////// 15/09 Q1011 ///=
0090102340999992014040804204+53133+009350FM-15+006199999V0202601N002619999999N999999999+01401+00901999999ADDMA1101101999990REMMET063METAR ETGQ 080420Z AUTO 26005KT //// // ////// 14/09 Q1011 ///=
0090102340999992014040819204+53133+009350FM-15+006199999V0202701N002119999999N999999999+00901+00301999999ADDMA1102201999990REMMET063METAR ETGQ 081920Z AUTO 27004KT //// // ////// 09/03 Q1022 ///=
0090102340999992014040819504+53133+009350FM-15+006199999V0202301N001019999999N999999999+00801+00301999999ADDMA1102201999990REMMET063METAR ETGQ 081950Z AUTO 23002KT //// // ////// 08/03 Q1022 ///=
0090102340999992014040820204+53133+009350FM-15+006199999V0202201N001019999999N999999999+00801+00301999999ADDMA1102201999990REMMET063METAR ETGQ 082020Z AUTO 22002KT //// // ////// 08/03 Q1022 ///=
0090102340999992014040820504+53133+009350FM-15+006199999V0202301N002119999999N999999999+00801+00301999999ADDMA1102301999990REMMET063METAR ETGQ 082050Z AUTO 23004KT //// // ////// 08/03 Q1023 ///=
0090102340999992014040821204+53133+009350FM-15+006199999V0202501N002619999999N999999999+00901+00201999999ADDMA1102301999990REMMET063METAR ETGQ 082120Z AUTO 25005KT //// // ////// 09/02 Q1023 ///=
0090102340999992014040821504+53133+009350FM-15+006199999V0202501N002119999999N999999999+00801+00201999999ADDMA1102301999990REMMET063METAR ETGQ 082150Z AUTO 25004KT //// // ////// 08/02 Q1023 ///=
0101102340999992014040822204+53133+009350FM-15+006199999V0202701N003619999999N999999999+00601+00401999999ADDMA1102401999990OC100881REMMET066METAR ETGQ 082220Z AUTO 27007G17KT //// // ////// 06/04 Q1024 ///=
0090102340999992014040822504+53133+009350FM-15+006199999V0203401N002119999999N999999999+00601+00401999999ADDMA1102501999990REMMET063METAR ETGQ 082250Z AUTO 34004KT //// // ////// 06/04 Q1025 ///=
0090102340999992014040823204+53133+009350FM-15+006199999V0209999V000519999999N999999999+00501+00301999999ADDMA1102401999990REMMET063METAR ETGQ 082320Z AUTO VRB01KT //// // ////// 05/03 Q1024 ///=
0090102340999992014040823504+53133+009350FM-15+006199999V0201801N001019999999N999999999+00501+00401999999ADDMA1102401999990REMMET063METAR ETGQ 082350Z AUTO 18002KT //// // ////// 05/04 Q1024 ///=
0090102340999992014040900204+53133+009350FM-15+006199999V0209999V001019999999N999999999+00501+00401999999ADDMA1102501999990REMMET063METAR ETGQ 090020Z AUTO VRB02KT //// // ////// 05/04 Q1025 ///=
0090102340999992014040900504+53133+009350FM-15+006199999V0201801N001019999999N999999999+00501+00401999999ADDMA1102501999990REMMET063METAR ETGQ 090050Z AUTO 18002KT //// // ////// 05/04 Q1025 ///=
0090102340999992014040901204+53133+009350FM-15+006199999V0201601N001019999999N999999999+00501+00401999999ADDMA1102501999990REMMET063METAR ETGQ 090120Z AUTO 16002KT //// // ////// 05/04 Q1025 ///=
0090102340999992014040901504+53133+009350FM-15+006199999V0201801N001019999999N999999999+00501+00301999999ADDMA1102501999990REMMET063METAR ETGQ 090150Z AUTO 18002KT //// // ////// 05/03 Q1025 ///=
0090102340999992014040902204+53133+009350FM-15+006199999V0209999V001019999999N999999999+00501+00301999999ADDMA1102501999990REMMET063METAR ETGQ 090220Z AUTO VRB02KT //// // ////// 05/03 Q1025 ///=
0090102340999992014040902504+53133+009350FM-15+006199999V0209999V000519999999N999999999+00401+00301999999ADDMA1102501999990REMMET063METAR ETGQ 090250Z AUTO VRB01KT //// // ////// 04/03 Q1025 ///=
0090102340999992014040903204+53133+009350FM-15+006199999V0209999V000519999999N999999999+00401+00301999999ADDMA1102501999990REMMET063METAR ETGQ 090320Z AUTO VRB01KT //// // ////// 04/03 Q1025 ///=
0090102340999992014040903504+53133+009350FM-15+006199999V0201801N000519999999N999999999+00401+00301999999ADDMA1102501999990REMMET063METAR ETGQ 090350Z AUTO 18001KT //// // ////// 04/03 Q1025 ///=
0090102340999992014040904204+53133+009350FM-15+006199999V0209999V001019999999N999999999+00401+00301999999ADDMA1102501999990REMMET063METAR ETGQ 090420Z AUTO VRB02KT //// // ////// 04/03 Q1025 ///=
0090102340999992014040919204+53133+009350FM-15+006199999V0202601N001519999999N999999999+01101+00301999999ADDMA1102401999990REMMET063METAR ETGQ 091920Z AUTO 26003KT //// // ////// 11/03 Q1024 ///=
0090102340999992014040919504+53133+009350FM-15+006199999V0202701N001519999999N999999999+01001+00301999999ADDMA1102401999990REMMET063METAR ETGQ 091950Z AUTO 27003KT //// // ////// 10/03 Q1024 ///=
0090102340999992014040920204+53133+009350FM-15+006199999V0202701N001019999999N999999999+01001+00301999999ADDMA1102401999990REMMET063METAR ETGQ 092020Z AUTO 27002KT //// // ////// 10/03 Q1024 ///=
0090102340999992014040920504+53133+009350FM-15+006199999V0202001N001019999999N999999999+00901+00401999999ADDMA1102401999990REMMET063METAR ETGQ 092050Z AUTO 20002KT //// // ////// 09/04 Q1024 ///=
0090102340999992014040921204+53133+009350FM-15+006199999V0202101N001019999999N999999999+00901+00401999999ADDMA1102401999990REMMET063METAR ETGQ 092120Z AUTO 21002KT //// // ////// 09/04 Q1024 ///=
0090102340999992014040921504+53133+009350FM-15+006199999V0202301N001019999999N999999999+00901+00401999999ADDMA1102401999990REMMET063METAR ETGQ 092150Z AUTO 23002KT //// // ////// 09/04 Q1024 ///=
0090102340999992014040922204+53133+009350FM-15+006199999V0202001N001019999999N999999999+00901+00401999999ADDMA1102401999990REMMET063METAR ETGQ 092220Z AUTO 20002KT //// // ////// 09/04 Q1024 ///=
0090102340999992014040922504+53133+009350FM-15+006199999V0209999C000019999999N999999999+00901+00401999999ADDMA1102401999990REMMET063METAR ETGQ 092250Z AUTO 00000KT //// // ////// 09/04 Q1024 ///=
0090102340999992014040923204+53133+009350FM-15+006199999V0209999V001019999999N999999999+00901+00301999999ADDMA1102401999990REMMET063METAR ETGQ 092320Z AUTO VRB02KT //// // ////// 09/03 Q1024 ///=
0090102340999992014040923504+53133+009350FM-15+006199999V0202401N001019999999N999999999+00801+00301999999ADDMA1102401999990REMMET063METAR ETGQ 092350Z AUTO 24002KT //// // ////// 08/03 Q1024 ///=
0090102340999992014041000204+53133+009350FM-15+006199999V0202101N001019999999N999999999+00801+00401999999ADDMA1102401999990REMMET063METAR ETGQ 100020Z AUTO 21002KT //// // ////// 08/04 Q1024 ///=
0090102340999992014041000504+53133+009350FM-15+006199999V0202001N001019999999N999999999+00901+00501999999ADDMA1102401999990REMMET063METAR ETGQ 100050Z AUTO 20002KT //// // ////// 09/05 Q1024 ///=
0090102340999992014041001204+53133+009350FM-15+006199999V0202001N001019999999N999999999+00901+00501999999ADDMA1102401999990REMMET063METAR ETGQ 100120Z AUTO 20002KT //// // ////// 09/05 Q1024 ///=
0090102340999992014041001504+53133+009350FM-15+006199999V0202101N001019999999N999999999+00901+00501999999ADDMA1102301999990REMMET063METAR ETGQ 100150Z AUTO 21002KT //// // ////// 09/05 Q1023 ///=
0090102340999992014041002204+53133+009350FM-15+006199999V0202401N001019999999N999999999+00801+00501999999ADDMA1102301999990REMMET063METAR ETGQ 100220Z AUTO 24002KT //// // ////// 08/05 Q1023 ///=
0090102340999992014041002504+53133+009350FM-15+006199999V0202801N001019999999N999999999+00801+00401999999ADDMA1102301999990REMMET063METAR ETGQ 100250Z AUTO 28002KT //// // ////// 08/04 Q1023 ///=
0090102340999992014041003204+53133+009350FM-15+006199999V0202301N001019999999N999999999+00701+00401999999ADDMA1102301999990REMMET063METAR ETGQ 100320Z AUTO 23002KT //// // ////// 07/04 Q1023 ///=
0090102340999992014041003504+53133+009350FM-15+006199999V0202801N001019999999N999999999+00701+00401999999ADDMA1102301999990REMMET063METAR ETGQ 100350Z AUTO 28002KT //// // ////// 07/04 Q1023 ///=
0090102340999992014041004204+53133+009350FM-15+006199999V0209999C000019999999N999999999+00601+00401999999ADDMA1102301999990REMMET063METAR ETGQ 100420Z AUTO 00000KT //// // ////// 06/04 Q1023 ///=
0090102340999992014041019204+53133+009350FM-15+006199999V0200501N001019999999N999999999+01301+00601999999ADDMA1102001999990REMMET063METAR ETGQ 101920Z AUTO 05002KT //// // ////// 13/06 Q1020 ///=
0090102340999992014041019504+53133+009350FM-15+006199999V0200101N001019999999N999999999+01301+00601999999ADDMA1102001999990REMMET063METAR ETGQ 101950Z AUTO 01002KT //// // ////// 13/06 Q1020 ///=
0090102340999992014041020204+53133+009350FM-15+006199999V0202201N001019999999N999999999+01201+00701999999ADDMA1102001999990REMMET063METAR ETGQ 102020Z AUTO 22002KT //// // ////// 12/07 Q1020 ///=
0090102340999992014041020504+53133+009350FM-15+006199999V0209999V001019999999N999999999+01101+00701999999ADDMA1102001999990REMMET063METAR ETGQ 102050Z AUTO VRB02KT //// // ////// 11/07 Q1020 ///=
0090102340999992014041021204+53133+009350FM-15+006199999V0209999V000519999999N999999999+00901+00601999999ADDMA1102001999990REMMET063METAR ETGQ 102120Z AUTO VRB01KT //// // ////// 09/06 Q1020 ///=
0090102340999992014041021504+53133+009350FM-15+006199999V0201601N001019999999N999999999+01001+00701999999ADDMA1102001999990REMMET063METAR ETGQ 102150Z AUTO 16002KT //// // ////// 10/07 Q1020 ///=
0090102340999992014041022204+53133+009350FM-15+006199999V0201701N001019999999N999999999+01001+00701999999ADDMA1101901999990REMMET063METAR ETGQ 102220Z AUTO 17002KT //// // ////// 10/07 Q1019 ///=
0090102340999992014041022504+53133+009350FM-15+006199999V0209999V001019999999N999999999+00901+00601999999ADDMA1101901999990REMMET063METAR ETGQ 102250Z AUTO VRB02KT //// // ////// 09/06 Q1019 ///=
0090102340999992014041023204+53133+009350FM-15+006199999V0209999V000519999999N999999999+00901+00701999999ADDMA1101901999990REMMET063METAR ETGQ 102320Z AUTO VRB01KT //// // ////// 09/07 Q1019 ///=
0090102340999992014041023504+53133+009350FM-15+006199999V0209999C000019999999N999999999+00801+00501999999ADDMA1101901999990REMMET063METAR ETGQ 102350Z AUTO 00000KT //// // ////// 08/05 Q1019 ///=
0090102340999992014041100204+53133+009350FM-15+006199999V0201901N001019999999N999999999+00801+00601999999ADDMA1101901999990REMMET063METAR ETGQ 110020Z AUTO 19002KT //// // ////// 08/06 Q1019 ///=
0090102340999992014041100504+53133+009350FM-15+006199999V0201201N000519999999N999999999+00701+00601999999ADDMA1101901999990REMMET063METAR ETGQ 110050Z AUTO 12001KT //// // ////// 07/06 Q1019 ///=
0090102340999992014041101204+53133+009350FM-15+006199999V0201801N001019999999N999999999+00701+00601999999ADDMA1101801999990REMMET063METAR ETGQ 110120Z AUTO 18002KT //// // ////// 07/06 Q1018 ///=
0090102340999992014041101504+53133+009350FM-15+006199999V0202001N001019999999N999999999+00701+00601999999ADDMA1101801999990REMMET063METAR ETGQ 110150Z AUTO 20002KT //// // ////// 07/06 Q1018 ///=
0090102340999992014041102204+53133+009350FM-15+006199999V0209999V000519999999N999999999+00801+00601999999ADDMA1101801999990REMMET063METAR ETGQ 110220Z AUTO VRB01KT //// // ////// 08/06 Q1018 ///=
0090102340999992014041102504+53133+009350FM-15+006199999V0202101N001019999999N999999999+00801+00601999999ADDMA1101801999990REMMET063METAR ETGQ 110250Z AUTO 21002KT //// // ////// 08/06 Q1018 ///=
0090102340999992014041103204+53133+009350FM-15+006199999V0202201N001019999999N999999999+00701+00601999999ADDMA1101801999990REMMET063METAR ETGQ 110320Z AUTO 22002KT //// // ////// 07/06 Q1018 ///=
0090102340999992014041103504+53133+009350FM-15+006199999V0209999V001019999999N999999999+00701+00601999999ADDMA1101801999990REMMET063METAR ETGQ 110350Z AUTO VRB02KT //// // ////// 07/06 Q1018 ///=
0090102340999992014041104204+53133+009350FM-15+006199999V0209999V000519999999N999999999+00701+00601999999ADDMA1101801999990REMMET063METAR ETGQ 110420Z AUTO VRB01KT //// // ////// 07/06 Q1018 ///=
0090102340999992014041119204+53133+009350FM-15+006199999V0203101N003119999999N999999999+01401+00901999999ADDMA1101801999990REMMET063METAR ETGQ 111920Z AUTO 31006KT //// // ////// 14/09 Q1018 ///=
0090102340999992014041119504+53133+009350FM-15+006199999V0203101N003119999999N999999999+01301+00801999999ADDMA1101801999990REMMET063METAR ETGQ 111950Z AUTO 31006KT //// // ////// 13/08 Q1018 ///=
0090102340999992014041120204+53133+009350FM-15+006199999V0203201N003119999999N999999999+01301+00801999999ADDMA1101801999990REMMET063METAR ETGQ 112020Z AUTO 32006KT //// // ////// 13/08 Q1018 ///=
0090102340999992014041120504+53133+009350FM-15+006199999V0203101N002619999999N999999999+01301+00801999999ADDMA1101901999990REMMET063METAR ETGQ 112050Z AUTO 31005KT //// // ////// 13/08 Q1019 ///=
0090102340999992014041121204+53133+009350FM-15+006199999V0203201N002619999999N999999999+01201+00801999999ADDMA1101801999990REMMET063METAR ETGQ 112120Z AUTO 32005KT //// // ////// 12/08 Q1018 ///=
0090102340999992014041121504+53133+009350FM-15+006199999V0203201N002619999999N999999999+01201+00801999999ADDMA1101801999990REMMET063METAR ETGQ 112150Z AUTO 32005KT //// // ////// 12/08 Q1018 ///=
0090102340999992014041122204+53133+009350FM-15+006199999V0203001N002119999999N999999999+01201+00801999999ADDMA1101901999990REMMET063METAR ETGQ 112220Z AUTO 30004KT //// // ////// 12/08 Q1019 ///=
0090102340999992014041122504+53133+009350FM-15+006199999V0203101N001519999999N999999999+01101+00701999999ADDMA1101801999990REMMET063METAR ETGQ 112250Z AUTO 31003KT //// // ////// 11/07 Q1018 ///=
0090102340999992014041123204+53133+009350FM-15+006199999V0203101N001519999999N999999999+01001+00701999999ADDMA1101801999990REMMET063METAR ETGQ 112320Z AUTO 31003KT //// // ////// 10/07 Q1018 ///=
0090102340999992014041123504+53133+009350FM-15+006199999V0203201N001519999999N999999999+01001+00701999999ADDMA1101801999990REMMET063METAR ETGQ 112350Z AUTO 32003KT //// // ////// 10/07 Q1018 ///=
0090102340999992014041200204+53133+009350FM-15+006199999V0203201N001519999999N999999999+01001+00701999999ADDMA1101801999990REMMET063METAR ETGQ 120020Z AUTO 32003KT //// // ////// 10/07 Q1018 ///=
0090102340999992014041200504+53133+009350FM-15+006199999V0203201N002119999999N999999999+01001+00701999999ADDMA1101801999990REMMET063METAR ETGQ 120050Z AUTO 32004KT //// // ////// 10/07 Q1018 ///=
0090102340999992014041201204+53133+009350FM-15+006199999V0203001N001519999999N999999999+01001+00601999999ADDMA1101801999990REMMET063METAR ETGQ 120120Z AUTO 30003KT //// // ////// 10/06 Q1018 ///=
0090102340999992014041201504+53133+009350FM-15+006199999V0202801N001019999999N999999999+01001+00601999999ADDMA1101701999990REMMET063METAR ETGQ 120150Z AUTO 28002KT //// // ////// 10/06 Q1017 ///=
0090102340999992014041202204+53133+009350FM-15+006199999V0203001N001519999999N999999999+01001+00601999999ADDMA1101701999990REMMET063METAR ETGQ 120220Z AUTO 30003KT //// // ////// 10/06 Q1017 ///=
0090102340999992014041202504+53133+009350FM-15+006199999V0202901N001019999999N999999999+00901+00601999999ADDMA1101701999990REMMET063METAR ETGQ 120250Z AUTO 29002KT //// // ////// 09/06 Q1017 ///=
0090102340999992014041203204+53133+009350FM-15+006199999V0203101N001019999999N999999999+00901+00601999999ADDMA1101701999990REMMET063METAR ETGQ 120320Z AUTO 31002KT //// // ////// 09/06 Q1017 ///=
0090102340999992014041203504+53133+009350FM-15+006199999V0203001N001019999999N999999999+00901+00601999999ADDMA1101701999990REMMET063METAR ETGQ 120350Z AUTO 30002KT //// // ////// 09/06 Q1017 ///=
0090102340999992014041204204+53133+009350FM-15+006199999V0203001N001019999999N999999999+00901+00601999999ADDMA1101701999990REMMET063METAR ETGQ 120420Z AUTO 30002KT //// // ////// 09/06 Q1017 ///=
0090102340999992014041219204+53133+009350FM-15+006199999V0203401N002119999999N999999999+01401+00301999999ADDMA1101701999990REMMET063METAR ETGQ 121920Z AUTO 34004KT //// // ////// 14/03 Q1017 ///=
0090102340999992014041219504+53133+009350FM-15+006199999V0203301N002119999999N999999999+01301+00301999999ADDMA1101701999990REMMET063METAR ETGQ 121950Z AUTO 33004KT //// // ////// 13/03 Q1017 ///=
0090102340999992014041220204+53133+009350FM-15+006199999V0203301N002119999999N999999999+01301+00301999999ADDMA1101701999990REMMET063METAR ETGQ 122020Z AUTO 33004KT //// // ////// 13/03 Q1017 ///=
0090102340999992014041220504+53133+009350FM-15+006199999V0203201N002119999999N999999999+01301+00301999999ADDMA1101701999990REMMET063METAR ETGQ 122050Z AUTO 32004KT //// // ////// 13/03 Q1017 ///=
0090102340999992014041221204+53133+009350FM-15+006199999V0202801N001019999999N999999999+01301+00301999999ADDMA1101701999990REMMET063METAR ETGQ 122120Z AUTO 28002KT //// // ////// 13/03 Q1017 ///=
0090102340999992014041221504+53133+009350FM-15+006199999V0202901N001519999999N999999999+01201+00301999999ADDMA1101701999990REMMET063METAR ETGQ 122150Z AUTO 29003KT //// // ////// 12/03 Q1017 ///=
0090102340999992014041222204+53133+009350FM-15+006199999V0202901N001519999999N999999999+01201+00401999999ADDMA1101801999990REMMET063METAR ETGQ 122220Z AUTO 29003KT //// // ////// 12/04 Q1018 ///=
0090102340999992014041222504+53133+009350FM-15+006199999V0202901N001019999999N999999999+01201+00401999999ADDMA1101701999990REMMET063METAR ETGQ 122250Z AUTO 29002KT //// // ////// 12/04 Q1017 ///=
0090102340999992014041223204+53133+009350FM-15+006199999V0209999V001019999999N999999999+01201+00501999999ADDMA1101701999990REMMET063METAR ETGQ 122320Z AUTO VRB02KT //// // ////// 12/05 Q1017 ///=
0090102340999992014041223504+53133+009350FM-15+006199999V0202601N001019999999N999999999+01201+00501999999ADDMA1101701999990REMMET063METAR ETGQ 122350Z AUTO 26002KT //// // ////// 12/05 Q1017 ///=
0090102340999992014041300204+53133+009350FM-15+006199999V0202901N001019999999N999999999+01101+00501999999ADDMA1101701999990REMMET063METAR ETGQ 130020Z AUTO 29002KT //// // ////// 11/05 Q1017 ///=
0090102340999992014041300504+53133+009350FM-15+006199999V0202901N001019999999N999999999+01001+00401999999ADDMA1101701999990REMMET063METAR ETGQ 130050Z AUTO 29002KT //// // ////// 10/04 Q1017 ///=
0090102340999992014041301204+53133+009350FM-15+006199999V0202601N000519999999N999999999+01001+00401999999ADDMA1101701999990REMMET063METAR ETGQ 130120Z AUTO 26001KT //// // ////// 10/04 Q1017 ///=
0090102340999992014041301504+53133+009350FM-15+006199999V0209999V000519999999N999999999+01001+00501999999ADDMA1101701999990REMMET063METAR ETGQ 130150Z AUTO VRB01KT //// // ////// 10/05 Q1017 ///=
0090102340999992014041302204+53133+009350FM-15+006199999V0202901N001519999999N999999999+01001+00401999999ADDMA1101701999990REMMET063METAR ETGQ 130220Z AUTO 29003KT //// // ////// 10/04 Q1017 ///=
0090102340999992014041302504+53133+009350FM-15+006199999V0203401N001019999999N999999999+01001+00501999999ADDMA1101801999990REMMET063METAR ETGQ 130250Z AUTO 34002KT //// // ////// 10/05 Q1018 ///=
0090102340999992014041303204+53133+009350FM-15+006199999V0203401N000519999999N999999999+00901+00401999999ADDMA1101801999990REMMET063METAR ETGQ 130320Z AUTO 34001KT //// // ////// 09/04 Q1018 ///=
0090102340999992014041303504+53133+009350FM-15+006199999V0209999V000519999999N999999999+00801+00401999999ADDMA1101801999990REMMET063METAR ETGQ 130350Z AUTO VRB01KT //// // ////// 08/04 Q1018 ///=
0090102340999992014041304204+53133+009350FM-15+006199999V0203301N001019999999N999999999+00801+00401999999ADDMA1101801999990REMMET063METAR ETGQ 130420Z AUTO 33002KT //// // ////// 08/04 Q1018 ///=
0090102340999992014041304504+53133+009350FM-15+006199999V0202701N001019999999N999999999+00701+00401999999ADDMA1101801999990REMMET063METAR ETGQ 130450Z AUTO 27002KT //// // ////// 07/04 Q1018 ///=
0090102340999992014041319204+53133+009350FM-15+006199999V0202601N002119999999N999999999+01301+00501999999ADDMA1101901999990REMMET063METAR ETGQ 131920Z AUTO 26004KT //// // ////// 13/05 Q1019 ///=
0090102340999992014041319504+53133+009350FM-15+006199999V0202701N002119999999N999999999+01201+00501999999ADDMA1101901999990REMMET063METAR ETGQ 131950Z AUTO 27004KT //// // ////// 12/05 Q1019 ///=
0090102340999992014041320204+53133+009350FM-15+006199999V0202701N001519999999N999999999+01201+00501999999ADDMA1101801999990REMMET063METAR ETGQ 132020Z AUTO 27003KT //// // ////// 12/05 Q1018 ///=
0090102340999992014041320504+53133+009350FM-15+006199999V0202401N001519999999N999999999+01101+00401999999ADDMA1101801999990REMMET063METAR ETGQ 132050Z AUTO 24003KT //// // ////// 11/04 Q1018 ///=
0090102340999992014041321204+53133+009350FM-15+006199999V0202301N001519999999N999999999+01001+00401999999ADDMA1101801999990REMMET063METAR ETGQ 132120Z AUTO 23003KT //// // ////// 10/04 Q1018 ///=
0090102340999992014041321504+53133+009350FM-15+006199999V0202401N002119999999N999999999+01001+00401999999ADDMA1101801999990REMMET063METAR ETGQ 132150Z AUTO 24004KT //// // ////// 10/04 Q1018 ///=
0090102340999992014041322204+53133+009350FM-15+006199999V0202401N001519999999N999999999+01001+00501999999ADDMA1101801999990REMMET063METAR ETGQ 132220Z AUTO 24003KT //// // ////// 10/05 Q1018 ///=
0090102340999992014041322504+53133+009350FM-15+006199999V0203301N001519999999N999999999+00901+00401999999ADDMA1101801999990REMMET063METAR ETGQ 132250Z AUTO 33003KT //// // ////// 09/04 Q1018 ///=
0090102340999992014041323204+53133+009350FM-15+006199999V0209999V001019999999N999999999+00901+00401999999ADDMA1101801999990REMMET063METAR ETGQ 132320Z AUTO VRB02KT //// // ////// 09/04 Q1018 ///=
0090102340999992014041323504+53133+009350FM-15+006199999V0202301N001519999999N999999999+00901+00501999999ADDMA1101801999990REMMET063METAR ETGQ 132350Z AUTO 23003KT //// // ////// 09/05 Q1018 ///=
0090102340999992014041400204+53133+009350FM-15+006199999V0202401N001519999999N999999999+00901+00401999999ADDMA1101801999990REMMET063METAR ETGQ 140020Z AUTO 24003KT //// // ////// 09/04 Q1018 ///=
0090102340999992014041400504+53133+009350FM-15+006199999V0202301N001519999999N999999999+00901+00401999999ADDMA1101701999990REMMET063METAR ETGQ 140050Z AUTO 23003KT //// // ////// 09/04 Q1017 ///=
0090102340999992014041401204+53133+009350FM-15+006199999V0202301N001519999999N999999999+00801+00401999999ADDMA1101601999990REMMET063METAR ETGQ 140120Z AUTO 23003KT //// // ////// 08/04 Q1016 ///=
0090102340999992014041401504+53133+009350FM-15+006199999V0202201N001519999999N999999999+00801+00401999999ADDMA1101601999990REMMET063METAR ETGQ 140150Z AUTO 22003KT //// // ////// 08/04 Q1016 ///=
0090102340999992014041402204+53133+009350FM-15+006199999V0209999V001019999999N999999999+00801+00401999999ADDMA1101601999990REMMET063METAR ETGQ 140220Z AUTO VRB02KT //// // ////// 08/04 Q1016 ///=
0090102340999992014041402504+53133+009350FM-15+006199999V0202201N002119999999N999999999+00801+00401999999ADDMA1101601999990REMMET063METAR ETGQ 140250Z AUTO 22004KT //// // ////// 08/04 Q1016 ///=
0090102340999992014041403204+53133+009350FM-15+006199999V0202401N001519999999N999999999+00801+00401999999ADDMA1101601999990REMMET063METAR ETGQ 140320Z AUTO 24003KT //// // ////// 08/04 Q1016 ///=
0090102340999992014041403504+53133+009350FM-15+006199999V0202301N001519999999N999999999+00801+00401999999ADDMA1101501999990REMMET063METAR ETGQ 140350Z AUTO 23003KT //// // ////// 08/04 Q1015 ///=
0090102340999992014041404204+53133+009350FM-15+006199999V0202501N002119999999N999999999+00901+00401999999ADDMA1101501999990REMMET063METAR ETGQ 140420Z AUTO 25004KT //// // ////// 09/04 Q1015 ///=
0090102340999992014041419204+53133+009350FM-15+006199999V0202801N001019999999N999999999+00601+00401999999ADDMA1102101999990REMMET063METAR ETGQ 141920Z AUTO 28002KT //// // ////// 06/04 Q1021 ///=
0090102340999992014041419504+53133+009350FM-15+006199999V0203101N003619999999N999999999+00601+00301999999ADDMA1102201999990REMMET063METAR ETGQ 141950Z AUTO 31007KT //// // ////// 06/03 Q1022 ///=
0090102340999992014041420204+53133+009350FM-15+006199999V0202901N002119999999N999999999+00601+00201999999ADDMA1102201999990REMMET063METAR ETGQ 142020Z AUTO 29004KT //// // ////// 06/02 Q1022 ///=
0090102340999992014041420504+53133+009350FM-15+006199999V0202801N001519999999N999999999+00501+00201999999ADDMA1102201999990REMMET063METAR ETGQ 142050Z AUTO 28003KT //// // ////// 05/02 Q1022 ///=
0090102340999992014041421204+53133+009350FM-15+006199999V0202601N001519999999N999999999+00501+00301999999ADDMA1102201999990REMMET063METAR ETGQ 142120Z AUTO 26003KT //// // ////// 05/03 Q1022 ///=
0090102340999992014041421504+53133+009350FM-15+006199999V0202601N001519999999N999999999+00601+00301999999ADDMA1102201999990REMMET063METAR ETGQ 142150Z AUTO 26003KT //// // ////// 06/03 Q1022 ///=
0090102340999992014041422204+53133+009350FM-15+006199999V0203101N002619999999N999999999+00501+00301999999ADDMA1102301999990REMMET063METAR ETGQ 142220Z AUTO 31005KT //// // ////// 05/03 Q1023 ///=
0090102340999992014041422504+53133+009350FM-15+006199999V0203201N002619999999N999999999+00501+00201999999ADDMA1102301999990REMMET063METAR ETGQ 142250Z AUTO 32005KT //// // ////// 05/02 Q1023 ///=
0090102340999992014041423204+53133+009350FM-15+006199999V0203101N001519999999N999999999+00501+00201999999ADDMA1102301999990REMMET063METAR ETGQ 142320Z AUTO 31003KT //// // ////// 05/02 Q1023 ///=
0090102340999992014041423504+53133+009350FM-15+006199999V0203101N002619999999N999999999+00501+00301999999ADDMA1102301999990REMMET063METAR ETGQ 142350Z AUTO 31005KT //// // ////// 05/03 Q1023 ///=
0090102340999992014041500204+53133+009350FM-15+006199999V0203101N003119999999N999999999+00501+00201999999ADDMA1102301999990REMMET063METAR ETGQ 150020Z AUTO 31006KT //// // ////// 05/02 Q1023 ///=
0090102340999992014041500504+53133+009350FM-15+006199999V0203101N002619999999N999999999+00501+00201999999ADDMA1102301999990REMMET063METAR ETGQ 150050Z AUTO 31005KT //// // ////// 05/02 Q1023 ///=
0090102340999992014041501204+53133+009350FM-15+006199999V0203101N002619999999N999999999+00501+00201999999ADDMA1102301999990REMMET063METAR ETGQ 150120Z AUTO 31005KT //// // ////// 05/02 Q1023 ///=
0090102340999992014041501504+53133+009350FM-15+006199999V0202901N002119999999N999999999+00401+00201999999ADDMA1102401999990REMMET063METAR ETGQ 150150Z AUTO 29004KT //// // ////// 04/02 Q1024 ///=
0090102340999992014041502204+53133+009350FM-15+006199999V0202801N001519999999N999999999+00301+00101999999ADDMA1102401999990REMMET063METAR ETGQ 150220Z AUTO 28003KT //// // ////// 03/01 Q1024 ///=
0090102340999992014041502504+53133+009350FM-15+006199999V0202901N002119999999N999999999+00301+00201999999ADDMA1102401999990REMMET063METAR ETGQ 150250Z AUTO 29004KT //// // ////// 03/02 Q1024 ///=
0090102340999992014041503204+53133+009350FM-15+006199999V0203101N002119999999N999999999+00401+00201999999ADDMA1102401999990REMMET063METAR ETGQ 150320Z AUTO 31004KT //// // ////// 04/02 Q1024 ///=
0090102340999992014041503504+53133+009350FM-15+006199999V0203101N001519999999N999999999+00401+00201999999ADDMA1102401999990REMMET063METAR ETGQ 150350Z AUTO 31003KT //// // ////// 04/02 Q1024 ///=
0090102340999992014041504204+53133+009350FM-15+006199999V0203101N001519999999N999999999+00401+00201999999ADDMA1102401999990REMMET063METAR ETGQ 150420Z AUTO 31003KT //// // ////// 04/02 Q1024 ///=
0090102340999992014041519204+53133+009350FM-15+006199999V0203301N001519999999N999999999+00801+00101999999ADDMA1102701999990REMMET063METAR ETGQ 151920Z AUTO 33003KT //// // ////// 08/01 Q1027 ///=
0090102340999992014041519504+53133+009350FM-15+006199999V0203201N001519999999N999999999+00801+00101999999ADDMA1102701999990REMMET063METAR ETGQ 151950Z AUTO 32003KT //// // ////// 08/01 Q1027 ///=
0090102340999992014041520204+53133+009350FM-15+006199999V0203301N001519999999N999999999+00701+00101999999ADDMA1102701999990REMMET063METAR ETGQ 152020Z AUTO 33003KT //// // ////// 07/01 Q1027 ///=
0090102340999992014041520504+53133+009350FM-15+006199999V0203301N001519999999N999999999+00701+00101999999ADDMA1102701999990REMMET063METAR ETGQ 152050Z AUTO 33003KT //// // ////// 07/01 Q1027 ///=
0090102340999992014041521204+53133+009350FM-15+006199999V0200201N001019999999N999999999+00601+00101999999ADDMA1102701999990REMMET063METAR ETGQ 152120Z AUTO 02002KT //// // ////// 06/01 Q1027 ///=
0090102340999992014041521504+53133+009350FM-15+006199999V0209999V000519999999N999999999+00501+00101999999ADDMA1102701999990REMMET063METAR ETGQ 152150Z AUTO VRB01KT //// // ////// 05/01 Q1027 ///=
0090102340999992014041522204+53133+009350FM-15+006199999V0203501N001019999999N999999999+00501+00101999999ADDMA1102801999990REMMET063METAR ETGQ 152220Z AUTO 35002KT //// // ////// 05/01 Q1028 ///=
0090102340999992014041522504+53133+009350FM-15+006199999V0203401N001519999999N999999999+00501+00101999999ADDMA1102801999990REMMET063METAR ETGQ 152250Z AUTO 34003KT //// // ////// 05/01 Q1028 ///=
0090102340999992014041523204+53133+009350FM-15+006199999V0203401N001519999999N999999999+00401+00001999999ADDMA1102801999990REMMET063METAR ETGQ 152320Z AUTO 34003KT //// // ////// 04/00 Q1028 ///=
0090102340999992014041523504+53133+009350FM-15+006199999V0203201N001019999999N999999999+00401+00001999999ADDMA1102801999990REMMET063METAR ETGQ 152350Z AUTO 32002KT //// // ////// 04/00 Q1028 ///=
0090102340999992014041600204+53133+009350FM-15+006199999V0203501N001519999999N999999999+00401+00001999999ADDMA1102801999990REMMET063METAR ETGQ 160020Z AUTO 35003KT //// // ////// 04/00 Q1028 ///=
0091102340999992014041600504+53133+009350FM-15+006199999V0209999V001019999999N999999999+00301+00001999999ADDMA1102801999990REMMET064METAR ETGQ 160050Z AUTO VRB02KT //// // ////// 03/M00 Q1028 ///=
0091102340999992014041601204+53133+009350FM-15+006199999V0203601N001019999999N999999999+00201+00001999999ADDMA1102901999990REMMET064METAR ETGQ 160120Z AUTO 36002KT //// // ////// 02/M00 Q1029 ///=
0091102340999992014041601504+53133+009350FM-15+006199999V0203501N001019999999N999999999+00201+00001999999ADDMA1102901999990REMMET064METAR ETGQ 160150Z AUTO 35002KT //// // ////// 02/M00 Q1029 ///=
0091102340999992014041602204+53133+009350FM-15+006199999V0209999V000519999999N999999999+00101-00101999999ADDMA1102901999990REMMET064METAR ETGQ 160220Z AUTO VRB01KT //// // ////// 01/M01 Q1029 ///=
0091102340999992014041602504+53133+009350FM-15+006199999V0203501N000519999999N999999999+00101-00101999999ADDMA1102901999990REMMET064METAR ETGQ 160250Z AUTO 35001KT //// // ////// 01/M01 Q1029 ///=
0091102340999992014041603204+53133+009350FM-15+006199999V0203501N000519999999N999999999+00001-00101999999ADDMA1102901999990REMMET064METAR ETGQ 160320Z AUTO 35001KT //// // ////// 00/M01 Q1029 ///=
0092102340999992014041603504+53133+009350FM-15+006199999V0209999V000519999999N999999999+00001-00101999999ADDMA1102901999990REMMET065METAR ETGQ 160350Z AUTO VRB01KT //// // ////// M00/M01 Q1029 ///=
0092102340999992014041604204+53133+009350FM-15+006199999V0209999C000019999999N999999999+00001-00101999999ADDMA1103001999990REMMET065METAR ETGQ 160420Z AUTO 00000KT //// // ////// M00/M01 Q1030 ///=
0092102340999992014041604504+53133+009350FM-15+006199999V0209999C000019999999N999999999+00001-00101999999ADDMA1103001999990REMMET065METAR ETGQ 160450Z AUTO 00000KT //// // ////// M00/M01 Q1030 ///=
0091102340999992014041619204+53133+009350FM-15+006199999V0201101N002119999999N999999999+01201-00101999999ADDMA1102801999990REMMET064METAR ETGQ 161920Z AUTO 11004KT //// // ////// 12/M01 Q1028 ///=
0091102340999992014041619504+53133+009350FM-15+006199999V0201201N001519999999N999999999+01101-00101999999ADDMA1102801999990REMMET064METAR ETGQ 161950Z AUTO 12003KT //// // ////// 11/M01 Q1028 ///=
0091102340999992014041620204+53133+009350FM-15+006199999V0201501N002119999999N999999999+01001-00101999999ADDMA1102801999990REMMET064METAR ETGQ 162020Z AUTO 15004KT //// // ////// 10/M01 Q1028 ///=
0090102340999992014041620504+53133+009350FM-15+006199999V0201601N001019999999N999999999+00901+00001999999ADDMA1102801999990REMMET063METAR ETGQ 162050Z AUTO 16002KT //// // ////// 09/00 Q1028 ///=
0090102340999992014041621204+53133+009350FM-15+006199999V0201401N001019999999N999999999+00801+00101999999ADDMA1102801999990REMMET063METAR ETGQ 162120Z AUTO 14002KT //// // ////// 08/01 Q1028 ///=
0090102340999992014041621504+53133+009350FM-15+006199999V0201501N001019999999N999999999+00801+00001999999ADDMA1102801999990REMMET063METAR ETGQ 162150Z AUTO 15002KT //// // ////// 08/00 Q1028 ///=
0090102340999992014041622204+53133+009350FM-15+006199999V0201401N001019999999N999999999+00701+00001999999ADDMA1102801999990REMMET063METAR ETGQ 162220Z AUTO 14002KT //// // ////// 07/00 Q1028 ///=
0090102340999992014041622504+53133+009350FM-15+006199999V0202301N001019999999N999999999+00601+00101999999ADDMA1102801999990REMMET063METAR ETGQ 162250Z AUTO 23002KT //// // ////// 06/01 Q1028 ///=
0090102340999992014041623204+53133+009350FM-15+006199999V0201301N001519999999N999999999+00701+00101999999ADDMA1102801999990REMMET063METAR ETGQ 162320Z AUTO 13003KT //// // ////// 07/01 Q1028 ///=
0090102340999992014041623504+53133+009350FM-15+006199999V0201401N001519999999N999999999+00601+00101999999ADDMA1102701999990REMMET063METAR ETGQ 162350Z AUTO 14003KT //// // ////// 06/01 Q1027 ///=
0090102340999992014041700204+53133+009350FM-15+006199999V0201301N001519999999N999999999+00601+00101999999ADDMA1102701999990REMMET063METAR ETGQ 170020Z AUTO 13003KT //// // ////// 06/01 Q1027 ///=
0090102340999992014041700504+53133+009350FM-15+006199999V0201401N001519999999N999999999+00501+00101999999ADDMA1102701999990REMMET063METAR ETGQ 170050Z AUTO 14003KT //// // ////// 05/01 Q1027 ///=
0090102340999992014041701204+53133+009350FM-15+006199999V0201601N001019999999N999999999+00501+00101999999ADDMA1102701999990REMMET063METAR ETGQ 170120Z AUTO 16002KT //// // ////// 05/01 Q1027 ///=
0090102340999992014041701504+53133+009350FM-15+006199999V0201601N001519999999N999999999+00501+00101999999ADDMA1102701999990REMMET063METAR ETGQ 170150Z AUTO 16003KT //// // ////// 05/01 Q1027 ///=
0090102340999992014041702204+53133+009350FM-15+006199999V0201401N001519999999N999999999+00401+00101999999ADDMA1102601999990REMMET063METAR ETGQ 170220Z AUTO 14003KT //// // ////// 04/01 Q1026 ///=
0090102340999992014041702504+53133+009350FM-15+006199999V0201601N001519999999N999999999+00401+00101999999ADDMA1102601999990REMMET063METAR ETGQ 170250Z AUTO 16003KT //// // ////// 04/01 Q1026 ///=
0090102340999992014041703204+53133+009350FM-15+006199999V0202601N000519999999N999999999+00301+00101999999ADDMA1102601999990REMMET063METAR ETGQ 170320Z AUTO 26001KT //// // ////// 03/01 Q1026 ///=
