0171103150999992014032118204+52135+007685FM-15+004999999V0202001N00261076201CN009999199+00701+00401999999ADDGA1021+007621991GA2041+076201991GE19MSL   +99999+99999GF199999021990007621991991MA1101001999990REMMET064METAR EDDG 211820Z 20005KT 9999 FEW025 SCT250 07/04 Q1010 NOSIG=
0171103150999992014032118504+52135+007685FM-15+004999999V0201901N00311012191CN009999199+00601+00401999999ADDGA1021+007621991GA2041+012191991GE19MSL   +99999+99999GF199999021990007621991991MA1101001999990REMMET064METAR EDDG 211850Z 19006KT 9999 FEW025 SCT040 06/04 Q1010 NOSIG=
0171103150999992014032119204+52135+007685FM-15+004999999V0201901N00211076201CN009999199+00601+00401999999ADDGA1021+011581991GA2041+076201991GE19MSL   +99999+99999GF199999021990011581991991MA1101001999990REMMET064METAR EDDG 211920Z 19004KT 9999 FEW038 SCT250 06/04 Q1010 NOSIG=
0171103150999992014032119504+52135+007685FM-15+004999999V0201601N00151076201CN009999199+00501+00401999999ADDGA1021+011581991GA2041+076201991GE19MSL   +99999+99999GF199999021990011581991991MA1101001999990REMMET064METAR EDDG 211950Z 16003KT 9999 FEW038 SCT250 05/04 Q1010 NOSIG=
0078103150999992014032120204+52135+007685FM-15+004999999V0201701N001019999999Y999999999+00501+00301999999ADDMA1101001999990REMMET051METAR EDDG 212020Z 17002KT CAVOK 05/03 Q1010 NOSIG=
0118103150999992014032120504+52135+007685FM-15+004999999V0201301N001012200019N009999199+00301+00201999999ADDGF100991999999999999999999MA1101001999990MW1121REMMET059METAR EDDG 212050Z 13002KT 9999 MIFG NSC 03/02 Q1010 NOSIG=
0118103150999992014032121204+52135+007685FM-15+004999999V0201501N002112200019N009999199+00301+00301999999ADDGF100991999999999999999999MA1100901999990MW1121REMMET059METAR EDDG 212120Z 15004KT 9999 MIFG NSC 03/03 Q1009 NOSIG=
0118103150999992014032121504+52135+007685FM-15+004999999V0201301N002612200019N009999199+00401+00301999999ADDGF100991999999999999999999MA1100901999990MW1121REMMET059METAR EDDG 212150Z 13005KT 9999 MIFG NSC 04/03 Q1009 NOSIG=
0118103150999992014032122204+52135+007685FM-15+004999999V0201401N002612200019N009999199+00401+00301999999ADDGF100991999999999999999999MA1100901999990MW1121REMMET059METAR EDDG 212220Z 14005KT 9999 MIFG NSC 04/03 Q1009 NOSIG=
0078103150999992014032122504+52135+007685FM-15+004999999V0201501N002119999999Y999999999+00401+00301999999ADDMA1100801999990REMMET051METAR EDDG 212250Z 15004KT CAVOK 04/03 Q1008 NOSIG=
0078103150999992014032123204+52135+007685FM-15+004999999V0201401N002619999999Y999999999+00401+00301999999ADDMA1100801999990REMMET051METAR EDDG 212320Z 14005KT CAVOK 04/03 Q1008 NOSIG=
0078103150999992014032123504+52135+007685FM-15+004999999V0201401N002119999999Y999999999+00401+00201999999ADDMA1100801999990REMMET051METAR EDDG 212350Z 14004KT CAVOK 04/02 Q1008 NOSIG=
0171103150999992014032200204+52135+007685FM-15+004999999V0201401N002110823019N009999199+00401+00301999999ADDGA1021+012191991GA2071+082301991GE19MSL   +99999+99999GF199999021990012191991991MA1100701999990REMMET064METAR EDDG 220020Z 14004KT 9999 FEW040 BKN270 04/03 Q1007 NOSIG=
0194103150999992014032200504+52135+007685FM-15+004999999V0201401N00261042671CN009999199+00401+00301999999ADDGA1041+012191991GA2041+042671991GA3071+082301991GE19MSL   +99999+99999GF199999041990012191991991MA1100701999990REMMET071METAR EDDG 220050Z 14005KT 9999 SCT040 SCT140 BKN270 04/03 Q1007 NOSIG=
0171103150999992014032201204+52135+007685FM-15+004999999V0201201N002110426719N009999199+00401+00301999999ADDGA1021+012191991GA2071+042671991GE19MSL   +99999+99999GF199999021990012191991991MA1100701999990REMMET064METAR EDDG 220120Z 12004KT 9999 FEW040 BKN140 04/03 Q1007 NOSIG=
0078103150999992014032201504+52135+007685FM-15+004999999V0201301N002119999999Y999999999+00401+00201999999ADDMA1100601999990REMMET051METAR EDDG 220150Z 13004KT CAVOK 04/02 Q1006 NOSIG=
0078103150999992014032202204+52135+007685FM-15+004999999V0201301N002619999999Y999999999+00401+00201999999ADDMA1100501999990REMMET051METAR EDDG 220220Z 13005KT CAVOK 04/02 Q1005 NOSIG=
0078103150999992014032202504+52135+007685FM-15+004999999V0201301N002619999999Y999999999+00401+00201999999ADDMA1100501999990REMMET051METAR EDDG 220250Z 13005KT CAVOK 04/02 Q1005 NOSIG=
0078103150999992014032203204+52135+007685FM-15+004999999V0201301N002119999999Y999999999+00401+00201999999ADDMA1100501999990REMMET051METAR EDDG 220320Z 13004KT CAVOK 04/02 Q1005 NOSIG=
0194103150999992014032203504+52135+007685FM-15+004999999V0201301N00311015241CN009999199+00401+00301999999ADDGA1021+012191991GA2041+015241991GA3071+042671991GE19MSL   +99999+99999GF199999021990012191991991MA1100401999990REMMET071METAR EDDG 220350Z 13006KT 9999 FEW040 SCT050 BKN140 04/03 Q1004 NOSIG=
0209103150999992014032204204+52135+007685FM-15+004999999V0201401N00261012191CN009000199+00401+00301999999ADDGA1021+006711991GA2041+012191991GA3071+042671991GE19MSL   +99999+99999GF199999021990006711991991MA1100401999990MW1611REMMET080METAR EDDG 220420Z 14005KT 9000 -RA FEW022 SCT040 BKN140 04/03 Q1004      NOSIG=
0171103150999992014032204504+52135+007685FM-15+004999999V0201301N002110097519N009000199+00401+00301999999ADDGA1071+009751991GA2071+042671991GE19MSL   +99999+99999GF199999071990009751991991MA1100301999990REMMET064METAR EDDG 220450Z 13004KT 9000 BKN032 BKN140 04/03 Q1003 NOSIG=
0194103150999992014032205204+52135+007685FM-15+004999999V0201301N002110097519N009000199+00401+00301999999ADDGA1021+006101991GA2071+009751991GA3081+042671991GE19MSL   +99999+99999GF199999021990006101991991MA1100301999990REMMET071METAR EDDG 220520Z 13004KT 9000 FEW020 BKN032 OVC140 04/03 Q1003 NOSIG=
0194103150999992014032205504+52135+007685FM-15+004999999V0201301N00211042671CN007000199+00401+00301999999ADDGA1021+006101991GA2041+042671991GA3081+082301991GE19MSL   +99999+99999GF199999021990006101991991MA1100301999990REMMET071METAR EDDG 220550Z 13004KT 7000 FEW020 SCT140 OVC270 04/03 Q1003 NOSIG=
0194103150999992014032206204+52135+007685FM-15+004999999V0201301N00211036581CN007000199+00401+00301999999ADDGA1021+006101991GA2041+036581991GA3071+076201991GE19MSL   +99999+99999GF199999021990006101991991MA1100201999990REMMET071METAR EDDG 220620Z 13004KT 7000 FEW020 SCT120 BKN250 04/03 Q1002 NOSIG=
0171103150999992014032206504+52135+007685FM-15+004999999V0201501N002610762019N009999199+00501+00301999999ADDGA1021+006101991GA2071+076201991GE19MSL   +99999+99999GF199999021990006101991991MA1100301999990REMMET064METAR EDDG 220650Z 15005KT 9999 FEW020 BKN250 05/03 Q1003 NOSIG=
0171103150999992014032207204+52135+007685FM-15+004999999V0201501N003110762019N009999199+00601+00401999999ADDGA1021+006101991GA2071+076201991GE19MSL   +99999+99999GF199999021990006101991991MA1100201999990REMMET064METAR EDDG 220720Z 15006KT 9999 FEW020 BKN250 06/04 Q1002 NOSIG=
0171103150999992014032207504+52135+007685FM-15+004999999V0201701N003610762019N009999199+00701+00501999999ADDGA1021+006101991GA2071+076201991GE19MSL   +99999+99999GF199999021990006101991991MA1100201999990REMMET064METAR EDDG 220750Z 17007KT 9999 FEW020 BKN250 07/05 Q1002 NOSIG=
0171103150999992014032208204+52135+007685FM-15+004999999V0201801N004110762019N009999199+00801+00501999999ADDGA1021+006101991GA2071+076201991GE19MSL   +99999+99999GF199999021990006101991991MA1100201999990REMMET064METAR EDDG 220820Z 18008KT 9999 FEW020 BKN250 08/05 Q1002 NOSIG=
0171103150999992014032208504+52135+007685FM-15+004999999V0201901N00411076201CN009999199+00901+00501999999ADDGA1021+006101991GA2041+076201991GE19MSL   +99999+99999GF199999021990006101991991MA1100201999990REMMET064METAR EDDG 220850Z 19008KT 9999 FEW020 SCT250 09/05 Q1002 NOSIG=
0182103150999992014032209204+52135+007685FM-15+004999999V0202101N00621076201CN009999199+01001+00501999999ADDGA1021+009141991GA2041+076201991GE19MSL   +99999+99999GF199999021990009141991991MA1100201999990OC101181REMMET067METAR EDDG 220920Z 21012G23KT 9999 FEW030 SCT250 10/05 Q1002 NOSIG=
0171103150999992014032209504+52135+007685FM-15+004999999V0202201N00771076201CN009999199+01001+00301999999ADDGA1041+009141991GA2041+076201991GE19MSL   +99999+99999GF199999041990009141991991MA1100201999990REMMET064METAR EDDG 220950Z 22015KT 9999 SCT030 SCT250 10/03 Q1002 NOSIG=
0171103150999992014032210204+52135+007685FM-15+004999999V0202201N00671076201CN009999199+01101+00301999999ADDGA1041+012191991GA2041+076201991GE19MSL   +99999+99999GF199999041990012191991991MA1100201999990REMMET064METAR EDDG 221020Z 22013KT 9999 SCT040 SCT250 11/03 Q1002 NOSIG=
0171103150999992014032210504+52135+007685FM-15+004999999V0202101N00721076201CN009999199+01101+00101999999ADDGA1041+012191991GA2041+076201991GE19MSL   +99999+99999GF199999041990012191991991MA1100201999990REMMET064METAR EDDG 221050Z 21014KT 9999 SCT040 SCT250 11/01 Q1002 NOSIG=
0171103150999992014032211204+52135+007685FM-15+004999999V0202101N00721076201CN009999199+01201+00301999999ADDGA1041+012191991GA2041+076201991GE19MSL   +99999+99999GF199999041990012191991991MA1100101999990REMMET064METAR EDDG 221120Z 21014KT 9999 SCT040 SCT250 12/03 Q1001 NOSIG=
0194103150999992014032211504+52135+007685FM-15+004999999V0202201N00621012191CN009999199+01201+00301999999ADDGA1021+006101991GA2041+012191991GA3071+018291991GE19MSL   +99999+99999GF199999021990006101991991MA1100101999990REMMET071METAR EDDG 221150Z 22012KT 9999 FEW020 SCT040 BKN060 12/03 Q1001 NOSIG=
0194103150999992014032212204+52135+007685FM-15+004999999V0202001N00511012191CN009999199+01101+00301999999ADDGA1021+006101991GA2041+012191991GA3071+018291991GE19MSL   +99999+99999GF199999021990006101991991MA1100101999990REMMET071METAR EDDG 221220Z 20010KT 9999 FEW020 SCT040 BKN060 11/03 Q1001 NOSIG=
0202103150999992014032212504+52135+007685FM-15+004999999V0202401N00571012191CN009999199+01101+00301999999ADDGA1021+006101991GA2041+012191991GA3071+018291991GE19MSL   +99999+99999GF199999021990006101991991MA1100101999990REMMET079METAR EDDG 221250Z 24011KT 9999 FEW020 SCT040 BKN060 11/03 Q1001 TEMPO      RA=
0189103150999992014032213204+52135+007685FM-15+004999999V0202501N006210182919N009999199+00901+00601999999ADDGA1041+010671991GA2071+018291991GE19MSL   +99999+99999GF199999041990010671991991MA1100101999990MW1611REMMET076METAR EDDG 221320Z 25012KT 9999 -RA SCT035 BKN060 09/06 Q1001 TEMPO      RA=
0212103150999992014032213504+52135+007685FM-15+004999999V0202501N00671007621CN009999199+00801+00601999999ADDGA1021+004271991GA2041+007621991GA3071+018291991GE19MSL   +99999+99999GF199999021990004271991991MA1100101999990MW1631REMMET083METAR EDDG 221350Z 25013KT 9999 RA FEW014 SCT025 BKN060 08/06 Q1001      BECMG NSW=
0214103150999992014032214204+52135+007685FM-15+004999999V0202101N00461007621CN009999199+00701+00501999999ADDGA1021+004271991GA2041+007621991GA3071+018291991GE19MSL   +99999+99999GF199999021990004271991991MA1100101999990MW1611REMMET085METAR EDDG 221420Z 21009KT 9999 -RA FEW014 SCT025 BKN060 07/05 Q1001      RERA NOSIG=
0171103150999992014032214504+52135+007685FM-15+004999999V0202101N002610152419N009999199+00801+00601999999ADDGA1041+007621991GA2071+015241991GE19MSL   +99999+99999GF199999041990007621991991MA1100101999990REMMET064METAR EDDG 221450Z 21005KT 9999 SCT025 BKN050 08/06 Q1001 NOSIG=
0198103150999992014032215204+52135+007685FM-15+004999999V0202201N003110121919N009999199+00801+00601999999ADDGA1021+007621991GA2071+012191991GE19MSL   +99999+99999GF199999021990007621991991MA1100101999990REMMET091METAR EDDG 221520Z 22006KT 9999 FEW025 BKN040 08/06 Q1001 TEMPO 22014KT      SHRA BKN020CB=
0198103150999992014032215504+52135+007685FM-15+004999999V0202301N003610152419N009999199+00801+00601999999ADDGA1021+007621991GA2071+015241991GE19MSL   +99999+99999GF199999021990007621991991MA1100101999990REMMET091METAR EDDG 221550Z 23007KT 9999 FEW025 BKN050 08/06 Q1001 TEMPO 22014KT      SHRA BKN020CB=
0198103150999992014032216204+52135+007685FM-15+004999999V0202201N003610365819N009999199+00801+00601999999ADDGA1021+007621991GA2081+036581991GE19MSL   +99999+99999GF199999021990007621991991MA1100101999990REMMET091METAR EDDG 221620Z 22007KT 9999 FEW025 OVC120 08/06 Q1001 TEMPO 22014KT      SHRA BKN020CB=
0217103150999992014032216504+52135+007685FM-15+004999999V0202701N00671006101CN009999199+00601+00401999999ADDGA1021+003661991GA2041+006101091GA3081+036581991GE19MSL   +99999+99999GF199999021990003661991991MA1100201999990MW1801REMMET088METAR COR EDDG 221650Z 27013KT 9999 -SHRA FEW012 SCT020CB OVC120 06/04      Q1002 NOSIG=
0185103150999992014032217204+52135+007685FM-15+004999999V0202401N004110365819N009999199+00601+00401999999ADDGA1021+006101091GA2071+036581991GE19MSL   +99999+99999GF199999021990006101991991MA1100201999990MW1801REMMET072METAR EDDG 221720Z 24008KT 9999 -SHRA FEW020CB BKN120 06/04 Q1002 NOSIG=
0171103150999992014032217504+52135+007685FM-15+004999999V0201901N002110365819N009999199+00601+00401999999ADDGA1021+006101991GA2071+036581991GE19MSL   +99999+99999GF199999021990006101991991MA1100201999990REMMET064METAR EDDG 221750Z 19004KT 9999 FEW020 BKN120 06/04 Q1002 NOSIG=
0171103150999992014032218204+52135+007685FM-15+004999999V0201501N001510335319N009999199+00501+00401999999ADDGA1021+006101991GA2071+033531991GE19MSL   +99999+99999GF199999021990006101991991MA1100201999990REMMET064METAR EDDG 221820Z 15003KT 9999 FEW020 BKN110 05/04 Q1002 NOSIG=
0148103150999992014032218504+52135+007685FM-15+004999999V0201701N001519999999N009999199+00501+00401999999ADDGA1021+006101991GE19MSL   +99999+99999GF199999021990006101991991MA1100201999990REMMET057METAR EDDG 221850Z 17003KT 9999 FEW020 05/04 Q1002 NOSIG=
0078103150999992014032219204+52135+007685FM-15+004999999V0202001N003119999999Y999999999+00501+00301999999ADDMA1100301999990REMMET051METAR EDDG 221920Z 20006KT CAVOK 05/03 Q1003 NOSIG=
0078103150999992014032219504+52135+007685FM-15+004999999V0202001N003619999999Y999999999+00501+00301999999ADDMA1100301999990REMMET051METAR EDDG 221950Z 20007KT CAVOK 05/03 Q1003 NOSIG=
0171103150999992014032220204+52135+007685FM-15+004999999V0201901N003110152419N009999199+00501+00401999999ADDGA1041+009141991GA2071+015241991GE19MSL   +99999+99999GF199999041990009141991991MA1100301999990REMMET064METAR EDDG 222020Z 19006KT 9999 SCT030 BKN050 05/04 Q1003 NOSIG=
0148103150999992014032220504+52135+007685FM-15+004999999V0202001N003119999999N009999199+00501+00301999999ADDGA1021+009141991GE19MSL   +99999+99999GF199999021990009141991991MA1100301999990REMMET057METAR EDDG 222050Z 20006KT 9999 FEW030 05/03 Q1003 NOSIG=
0078103150999992014032221204+52135+007685FM-15+004999999V0202001N002619999999Y999999999+00401+00301999999ADDMA1100301999990REMMET051METAR EDDG 222120Z 20005KT CAVOK 04/03 Q1003 NOSIG=
0078103150999992014032221504+52135+007685FM-15+004999999V0201801N002619999999Y999999999+00401+00301999999ADDMA1100301999990REMMET051METAR EDDG 222150Z 18005KT CAVOK 04/03 Q1003 NOSIG=
0078103150999992014032222204+52135+007685FM-15+004999999V0201901N003119999999Y999999999+00401+00301999999ADDMA1100301999990REMMET051METAR EDDG 222220Z 19006KT CAVOK 04/03 Q1003 NOSIG=
0148103150999992014032222504+52135+007685FM-15+004999999V0201801N003110106719N009999199+00501+00301999999ADDGA1071+010671991GE19MSL   +99999+99999GF199999071990010671991991MA1100301999990REMMET057METAR EDDG 222250Z 18006KT 9999 BKN035 05/03 Q1003 NOSIG=
0148103150999992014032223204+52135+007685FM-15+004999999V0201901N003619999999N009999199+00501+00301999999ADDGA1041+010671991GE19MSL   +99999+99999GF199999041990010671991991MA1100301999990REMMET057METAR EDDG 222320Z 19007KT 9999 SCT035 05/03 Q1003 NOSIG=
0148103150999992014032223504+52135+007685FM-15+004999999V0202001N003619999999N009999199+00501+00301999999ADDGA1041+010671991GE19MSL   +99999+99999GF199999041990010671991991MA1100301999990REMMET057METAR EDDG 222350Z 20007KT 9999 SCT035 05/03 Q1003 NOSIG=
0148103150999992014032300204+52135+007685FM-15+004999999V0202001N003619999999N009999199+00401+00301999999ADDGA1021+010671991GE19MSL   +99999+99999GF199999021990010671991991MA1100301999990REMMET057METAR EDDG 230020Z 20007KT 9999 FEW035 04/03 Q1003 NOSIG=
0148103150999992014032300504+52135+007685FM-15+004999999V0202001N002619999999N009999199+00401+00301999999ADDGA1021+010671991GE19MSL   +99999+99999GF199999021990010671991991MA1100301999990REMMET057METAR EDDG 230050Z 20005KT 9999 FEW035 04/03 Q1003 NOSIG=
0078103150999992014032301204+52135+007685FM-15+004999999V0201801N002619999999Y999999999+00401+00301999999ADDMA1100301999990REMMET051METAR EDDG 230120Z 18005KT CAVOK 04/03 Q1003 NOSIG=
0078103150999992014032301504+52135+007685FM-15+004999999V0201901N002619999999Y999999999+00401+00201999999ADDMA1100301999990REMMET051METAR EDDG 230150Z 19005KT CAVOK 04/02 Q1003 NOSIG=
0148103150999992014032302204+52135+007685FM-15+004999999V0201801N002610106719N009999199+00401+00301999999ADDGA1071+010671991GE19MSL   +99999+99999GF199999071990010671991991MA1100301999990REMMET057METAR EDDG 230220Z 18005KT 9999 BKN035 04/03 Q1003 NOSIG=
0148103150999992014032302504+52135+007685FM-15+004999999V0201701N002110106719N009999199+00401+00301999999ADDGA1071+010671991GE19MSL   +99999+99999GF199999071990010671991991MA1100301999990REMMET057METAR EDDG 230250Z 17004KT 9999 BKN035 04/03 Q1003 NOSIG=
0148103150999992014032303204+52135+007685FM-15+004999999V0201901N003110091419N009999199+00401+00301999999ADDGA1071+009141991GE19MSL   +99999+99999GF199999071990009141991991MA1100301999990REMMET057METAR EDDG 230320Z 19006KT 9999 BKN030 04/03 Q1003 NOSIG=
0148103150999992014032303504+52135+007685FM-15+004999999V0201901N003610091419N009999199+00401+00201999999ADDGA1071+009141991GE19MSL   +99999+99999GF199999071990009141991991MA1100301999990REMMET057METAR EDDG 230350Z 19007KT 9999 BKN030 04/02 Q1003 NOSIG=
0078103150999992014032304204+52135+007685FM-15+004999999V0201901N003119999999Y999999999+00401+00201999999ADDMA1100301999990REMMET051METAR EDDG 230420Z 19006KT CAVOK 04/02 Q1003 NOSIG=
0078103150999992014032304504+52135+007685FM-15+004999999V0201701N002619999999Y999999999+00301+00201999999ADDMA1100301999990REMMET051METAR EDDG 230450Z 17005KT CAVOK 03/02 Q1003 NOSIG=
0078103150999992014032305204+52135+007685FM-15+004999999V0201601N002619999999Y999999999+00201+00101999999ADDMA1100301999990REMMET051METAR EDDG 230520Z 16005KT CAVOK 02/01 Q1003 NOSIG=
0107103150999992014032305504+52135+007685FM-15+004999999V0201601N002612200019N009000199+00201+00101999999ADDGF100991999999999999999999MA1100401999990REMMET054METAR EDDG 230550Z 16005KT 9000 NSC 02/01 Q1004 NOSIG=
0148103150999992014032306204+52135+007685FM-15+004999999V0201801N002119999999N009000199+00301+00201999999ADDGA1041+005491991GE19MSL   +99999+99999GF199999041990005491991991MA1100401999990REMMET057METAR EDDG 230620Z 18004KT 9000 SCT018 03/02 Q1004 NOSIG=
0171103150999992014032306504+52135+007685FM-15+004999999V0201901N002610073219N009999199+00301+00201999999ADDGA1021+005491991GA2071+007321991GE19MSL   +99999+99999GF199999021990005491991991MA1100401999990REMMET064METAR EDDG 230650Z 19005KT 9999 FEW018 BKN024 03/02 Q1004 NOSIG=
0171103150999992014032307204+52135+007685FM-15+004999999V0201901N003110097519N009999199+00401+00301999999ADDGA1021+008231991GA2071+009751991GE19MSL   +99999+99999GF199999021990008231991991MA1100401999990REMMET064METAR EDDG 230720Z 19006KT 9999 FEW027 BKN032 04/03 Q1004 NOSIG=
0194103150999992014032307504+52135+007685FM-15+004999999V0202001N00311003351CN009999199+00501+00301999999ADDGA1021+002741991GA2041+003351991GA3071+010361991GE19MSL   +99999+99999GF199999021990002741991991MA1100501999990REMMET071METAR EDDG 230750Z 20006KT 9999 FEW009 SCT011 BKN034 05/03 Q1005 NOSIG=
0171103150999992014032308204+52135+007685FM-15+004999999V0202101N004110121919N009999199+00501+00301999999ADDGA1041+003351991GA2071+012191991GE19MSL   +99999+99999GF199999041990003351991991MA1100501999990REMMET064METAR EDDG 230820Z 21008KT 9999 SCT011 BKN040 05/03 Q1005 NOSIG=
0171103150999992014032308504+52135+007685FM-15+004999999V0202101N00361013411CN009999199+00601+00401999999ADDGA1041+003661991GA2041+013411991GE19MSL   +99999+99999GF199999041990003661991991MA1100501999990REMMET064METAR EDDG 230850Z 21007KT 9999 SCT012 SCT044 06/04 Q1005 NOSIG=
0148103150999992014032309204+52135+007685FM-15+004999999V0202101N005119999999N009999199+00701+00301999999ADDGA1041+004271991GE19MSL   +99999+99999GF199999041990004271991991MA1100501999990REMMET057METAR EDDG 230920Z 21010KT 9999 SCT014 07/03 Q1005 NOSIG=
0148103150999992014032309504+52135+007685FM-15+004999999V0202301N005110048819N009999199+00701+00301999999ADDGA1071+004881991GE19MSL   +99999+99999GF199999071990004881991991MA1100501999990REMMET057METAR EDDG 230950Z 23010KT 9999 BKN016 07/03 Q1005 NOSIG=
0148103150999992014032310204+52135+007685FM-15+004999999V0202101N005710061019N009999199+00801+00301999999ADDGA1071+006101991GE19MSL   +99999+99999GF199999071990006101991991MA1100501999990REMMET057METAR EDDG 231020Z 21011KT 9999 BKN020 08/03 Q1005 NOSIG=
0151103150999992014032310504+52135+007685FM-15+004999999V0202301N004110067119N009999199+00801+00201999999ADDGA1071+006711081GE19MSL   +99999+99999GF199999071990006711991991MA1100501999990REMMET060METAR EDDG 231050Z 23008KT 9999 BKN022TCU 08/02 Q1005 NOSIG=
0151103150999992014032311204+52135+007685FM-15+004999999V0202101N004610076219N009999199+00901+00201999999ADDGA1071+007621081GE19MSL   +99999+99999GF199999071990007621991991MA1100501999990REMMET060METAR EDDG 231120Z 21009KT 9999 BKN025TCU 09/02 Q1005 NOSIG=
0163103150999992014032311504+52135+007685FM-15+004999999V0202001N003610073219N009999199+00801+00201999999ADDGA1071+007321081GE19MSL   +99999+99999GF199999071990007321991991MA1100501999990MW1801REMMET066METAR EDDG 231150Z 20007KT 9999 -SHRA BKN024TCU 08/02 Q1005 NOSIG=
0185103150999992014032312204+52135+007685FM-15+004999999V0202101N00411008531CN009999199+00901+00201999999ADDGA1021+007621091GA2041+008531991GE19MSL   +99999+99999GF199999021990007621991991MA1100501999990MW1801REMMET072METAR EDDG 231220Z 21008KT 9999 -SHRA FEW025CB SCT028 09/02 Q1005 NOSIG=
0185103150999992014032312504+52135+007685FM-15+004999999V0202401N00461021341CN009999199+00901+00101999999ADDGA1021+009141091GA2041+021341991GE19MSL   +99999+99999GF199999021990009141991991MA1100501999990MW1801REMMET072METAR EDDG 231250Z 24009KT 9999 -SHRA FEW030CB SCT070 09/01 Q1005 NOSIG=
0197103150999992014032313204+52135+007685FM-15+004999999V0202501N00621008841CN009999199+00801+00201999999ADDGA1041+006711091GA2041+008841991GE19MSL   +99999+99999GF199999041990006711991991MA1100501999990MW1801REMMET084METAR EDDG 231320Z 25012KT 9999 -SHRA SCT022CB SCT029 08/02 Q1005 TEMPO      SHRAGS=
0217103150999992014032313504+52135+007685FM-15+004999999V0202001N00361008231CN009999199+00701+00401999999ADDGA1021+006711091GA2041+008231991GA3071+036581991GE19MSL   +99999+99999GF199999021990006711991991MA1100501999990MW1801REMMET088METAR COR EDDG 231350Z 20007KT 9999 -SHRA FEW022CB SCT027 BKN120 07/04      Q1005 NOSIG=
0185103150999992014032314204+52135+007685FM-15+004999999V0202001N00411021341CN009999199+00801+00401999999ADDGA1021+006711091GA2041+021341991GE19MSL   +99999+99999GF199999021990006711991991MA1100501999990MW1801REMMET072METAR EDDG 231420Z 20008KT 9999 -SHRA FEW022CB SCT070 08/04 Q1005 NOSIG=
0213103150999992014032314504+52135+007685FM-15+004999999V0202301N00511018291CN009999199+00901+00401999999ADDGA1021+006101091GA2041+018291991GA3071+033531991GE19MSL   +99999+99999GF199999021990006101991991MA1100501999990MW1801REMMET084METAR EDDG 231450Z 23010KT 9999 -SHRA FEW020CB SCT060 BKN110 09/04      Q1005 NOSIG=
0197103150999992014032315204+52135+007685FM-15+004999999V0202301N00511008531CN009999199+00901+00201999999ADDGA1021+006101091GA2041+008531991GE19MSL   +99999+99999GF199999021990006101991991MA1100501999990MW1801REMMET084METAR EDDG 231520Z 23010KT 9999 -SHRA FEW020CB SCT028 09/02 Q1005 TEMPO      SHRAGS=
0212103150999992014032315504+52135+007685FM-15+004999999V0202601V005710073219N009999199+00601+00201999999ADDGA1021+006101091GA2071+007321991GE19MSL   +99999+99999GF199999021990006101991991MA1100601999990MW1811OC101241REMMET091METAR EDDG 231550Z 26011G24KT 210V290 9999 SHRA FEW020CB BKN024 06/02      Q1006 BECMG NSW=
0225103150999992014032316204+52135+007685FM-15+004999999V0202901N00361010971CN009999199+00601+00301999999ADDGA1021+006101091GA2041+010971991GA3071+033531991GE19MSL   +99999+99999GF199999021990006101991991MA1100601999990MW1801REMMET096METAR EDDG 231620Z 29007KT 9999 -SHRA FEW020CB SCT036 BKN110 06/03      Q1006 RESHRA TEMPO SHRA=
0191103150999992014032316504+52135+007685FM-15+004999999V0202601N00411015241CN009999199+00501+00201999999ADDGA1021+006101081GA2041+015241991GE19MSL   +99999+99999GF199999021990006101991991MA1100701999990MW1801REMMET078METAR EDDG 231650Z 26008KT 9999 -SHRA FEW020TCU SCT050 05/02 Q1007      NOSIG=
0184103150999992014032317204+52135+007685FM-15+004999999V0203001N00101067061CN009999199+00501+00201999999ADDGA1021+006101091GA2041+067061991GE19MSL   +99999+99999GF199999021990006101991991MA1100701999990MW1161REMMET071METAR EDDG 231720Z 30002KT 9999 VCSH FEW020CB SCT220 05/02 Q1007 NOSIG=
0184103150999992014032317504+52135+007685FM-15+004999999V0209999V00051060961CN009999199+00401+00201999999ADDGA1021+006101091GA2041+060961991GE19MSL   +99999+99999GF199999021990006101991991MA1100701999990MW1161REMMET071METAR EDDG 231750Z VRB01KT 9999 VCSH FEW020CB SCT200 04/02 Q1007 NOSIG=
0173103150999992014032318204+52135+007685FM-15+004999999V0201501N00151060961CN009999199+00401+00201999999ADDGA1021+006101091GA2041+060961991GE19MSL   +99999+99999GF199999021990006101991991MA1100701999990REMMET066METAR EDDG 231820Z 15003KT 9999 FEW020CB SCT200 04/02 Q1007 NOSIG=
0171103150999992014032318504+52135+007685FM-15+004999999V0201201N00051036581CN009999199+00301+00201999999ADDGA1021+006101991GA2041+036581991GE19MSL   +99999+99999GF199999021990006101991991MA1100801999990REMMET064METAR EDDG 231850Z 12001KT 9999 FEW020 SCT120 03/02 Q1008 NOSIG=
0148103150999992014032319204+52135+007685FM-15+004999999V0201701N001010061019N009999199+00301+00201999999ADDGA1071+006101991GE19MSL   +99999+99999GF199999071990006101991991MA1100801999990REMMET057METAR EDDG 231920Z 17002KT 9999 BKN020 03/02 Q1008 NOSIG=
0148103150999992014032319504+52135+007685FM-15+004999999V0202201N001510054919N009999199+00501+00201999999ADDGA1071+005491991GE19MSL   +99999+99999GF199999071990005491991991MA1100801999990REMMET057METAR EDDG 231950Z 22003KT 9999 BKN018 05/02 Q1008 NOSIG=
0148103150999992014032320204+52135+007685FM-15+004999999V0202301N001510076219N009999199+00401+00201999999ADDGA1071+007621991GE19MSL   +99999+99999GF199999071990007621991991MA1100801999990REMMET057METAR EDDG 232020Z 23003KT 9999 BKN025 04/02 Q1008 NOSIG=
0171103150999992014032320504+52135+007685FM-15+004999999V0202301N001510137219N009999199+00501+00201999999ADDGA1041+009141991GA2071+013721991GE19MSL   +99999+99999GF199999041990009141991991MA1100801999990REMMET064METAR EDDG 232050Z 23003KT 9999 SCT030 BKN045 05/02 Q1008 NOSIG=
0171103150999992014032321204+52135+007685FM-15+004999999V0202101N001510182919N009999199+00401+00201999999ADDGA1041+007621991GA2071+018291991GE19MSL   +99999+99999GF199999041990007621991991MA1100901999990REMMET064METAR EDDG 232120Z 21003KT 9999 SCT025 BKN060 04/02 Q1009 NOSIG=
0171103150999992014032321504+52135+007685FM-15+004999999V0202201N001510137219N009999199+00401+00201999999ADDGA1041+007621991GA2071+013721991GE19MSL   +99999+99999GF199999041990007621991991MA1100901999990REMMET064METAR EDDG 232150Z 22003KT 9999 SCT025 BKN045 04/02 Q1009 NOSIG=
0171103150999992014032322204+52135+007685FM-15+004999999V0201801N001510137219N009999199+00401+00201999999ADDGA1021+007621991GA2071+013721991GE19MSL   +99999+99999GF199999021990007621991991MA1100901999990REMMET064METAR EDDG 232220Z 18003KT 9999 FEW025 BKN045 04/02 Q1009 NOSIG=
0171103150999992014032322504+52135+007685FM-15+004999999V0202201N002110152419N009999199+00401+00201999999ADDGA1021+007621991GA2071+015241991GE19MSL   +99999+99999GF199999021990007621991991MA1100901999990REMMET064METAR EDDG 232250Z 22004KT 9999 FEW025 BKN050 04/02 Q1009 NOSIG=
0171103150999992014032323204+52135+007685FM-15+004999999V0202301N001010152419N009999199+00401+00201999999ADDGA1021+007621991GA2071+015241991GE19MSL   +99999+99999GF199999021990007621991991MA1100901999990REMMET064METAR EDDG 232320Z 23002KT 9999 FEW025 BKN050 04/02 Q1009 NOSIG=
0171103150999992014032323504+52135+007685FM-15+004999999V0201301N000510182919N009999199+00301+00201999999ADDGA1021+007621991GA2071+018291991GE19MSL   +99999+99999GF199999021990007621991991MA1100901999990REMMET064METAR EDDG 232350Z 13001KT 9999 FEW025 BKN060 03/02 Q1009 NOSIG=
0171103150999992014032400204+52135+007685FM-15+004999999V0209999V000510182919N009999199+00301+00201999999ADDGA1021+007621991GA2071+018291991GE19MSL   +99999+99999GF199999021990007621991991MA1100901999990REMMET064METAR EDDG 240020Z VRB01KT 9999 FEW025 BKN060 03/02 Q1009 NOSIG=
0171103150999992014032400504+52135+007685FM-15+004999999V0209999V001010182919N009999199+00301+00301999999ADDGA1021+007621991GA2071+018291991GE19MSL   +99999+99999GF199999021990007621991991MA1101001999990REMMET064METAR EDDG 240050Z VRB02KT 9999 FEW025 BKN060 03/03 Q1010 NOSIG=
0171103150999992014032401204+52135+007685FM-15+004999999V0209999V000510182919N009999199+00301+00201999999ADDGA1021+007621991GA2071+018291991GE19MSL   +99999+99999GF199999021990007621991991MA1101001999990REMMET064METAR EDDG 240120Z VRB01KT 9999 FEW025 BKN060 03/02 Q1010 NOSIG=
0171103150999992014032401504+52135+007685FM-15+004999999V0202601N001010182919N009999199+00201+00101999999ADDGA1021+007621991GA2071+018291991GE19MSL   +99999+99999GF199999021990007621991991MA1101001999990REMMET064METAR EDDG 240150Z 26002KT 9999 FEW025 BKN060 02/01 Q1010 NOSIG=
0172103150999992014032402204+52135+007685FM-15+004999999V0203001N000519999999N009999199+00201+00101999999ADDGA1041+013721991GE19MSL   +99999+99999GF199999041990013721991991MA1101001999990MW1121REMMET075METAR EDDG 240220Z 30001KT 9999 MIFG SCT045 02/01 Q1010 TEMPO 4000      BR=
0194103150999992014032402504+52135+007685FM-15+004999999V0202401N001019999999N008000199+00201+00201999999ADDGA1041+013721991GE19MSL   +99999+99999GF199999041990013721991991MA1101001999990MW1111REMMET097METAR EDDG 240250Z 24002KT 8000 1100E R25/1100VP2000N BCFG SCT045 02/02      Q1010 TEMPO 4000 BR=
0189103150999992014032403204+52135+007685FM-15+004999999V0201901N001019999999N008000199+00101+00101999999ADDGA1021+013721991GE19MSL   +99999+99999GF199999021990013721991991MA1101001999990MW1111REMMET092METAR EDDG 240320Z 19002KT 8000 1200W R25/P2000N BCFG FEW045 01/01      Q1010 TEMPO 4000 BR=
0149103150999992014032403504+52135+007685FM-15+004999999V0200201N000512200019N008000199+00001+00001999999ADDGF100991999999999999999999MA1101001999990MW1111REMMET090METAR EDDG 240350Z 02001KT 8000 1000E R25/0650N BCFG NSC M00/M00 Q1010      TEMPO 4000 BR=
0161103150999992014032404204+52135+007685FM-15+004999999V0209999V000512200019N004000199-00101-00101999999ADDGF100991999999999999999999MA1101101999990MW1101MW2111REMMET096METAR EDDG 240420Z VRB01KT 4000 0700E R25/0650VP2000D BCFG BR NSC M01/M01      Q1011 BECMG 2000=
0160103150999992014032404504+52135+007685FM-15+004999999V0201901N000512200019N004000199-00101-00101999999ADDGF100991999999999999999999MA1101101999990MW1101MW2111REMMET095METAR EDDG 240450Z 19001KT 4000 0700E R25/0350V0600N BCFG BR NSC M01/M01      Q1011 BECMG 2000=
0161103150999992014032405204+52135+007685FM-15+004999999V0209999V000512200019N001800199-00101-00101999999ADDGF100991999999999999999999MA1101101999990MW1101MW2111REMMET096METAR EDDG 240520Z VRB01KT 1800 1200W R25/1300VP2000U BCFG BR NSC M01/M01      Q1011 TEMPO 3000=
0151103150999992014032405504+52135+007685FM-15+004999999V0202301N001012200019N002500199-00101-00101999999ADDGF100991999999999999999999MA1101101999990MW1101MW2111REMMET086METAR EDDG 240550Z 23002KT 2500 1200W R25/P2000N BCFG BR NSC M01/M01      Q1011 NOSIG=
0151103150999992014032406204+52135+007685FM-15+004999999V0202001N000512200019N002500199+00001+00001999999ADDGF100991999999999999999999MA1101201999990MW1101MW2111REMMET086METAR EDDG 240620Z 20001KT 2500 0800W R25/P2000N BCFG BR NSC M00/M00      Q1012 NOSIG=
0213103150999992014032406504+52135+007685FM-15+004999999V0202401N00051013721CN002500199+00101+00101999999ADDGA1021+000301991GA2041+013721991GE19MSL   +99999+99999GF199999021990000301991991MA1101201999990MW1101MW2111REMMET094METAR EDDG 240650Z 24001KT 2500 0800W R25/P2000N BCFG BR FEW001 SCT045      01/01 Q1012 NOSIG=
0157103150999992014032407204+52135+007685FM-15+004999999V0203101N000519999999N004000199+00301+00201999999ADDGA1041+013721991GE19MSL   +99999+99999GF199999041990013721991991MA1101201999990MW1101REMMET060METAR EDDG 240720Z 31001KT 4000 BR SCT045 03/02 Q1012 NOSIG=
0171103150999992014032407504+52135+007685FM-15+004999999V0202801N001010121919N006000199+00401+00201999999ADDGA1021+009141991GA2071+012191991GE19MSL   +99999+99999GF199999021990009141991991MA1101201999990REMMET064METAR EDDG 240750Z 28002KT 6000 FEW030 BKN040 04/02 Q1012 NOSIG=
0171103150999992014032408204+52135+007685FM-15+004999999V0202801N002110109719N009999199+00401+00201999999ADDGA1021+008531991GA2071+010971991GE19MSL   +99999+99999GF199999021990008531991991MA1101301999990REMMET064METAR EDDG 240820Z 28004KT 9999 FEW028 BKN036 04/02 Q1013 NOSIG=
0171103150999992014032408504+52135+007685FM-15+004999999V0203001N002110115819N009999199+00501+00301999999ADDGA1021+007011991GA2071+011581991GE19MSL   +99999+99999GF199999021990007011991991MA1101301999990REMMET064METAR EDDG 240850Z 30004KT 9999 FEW023 BKN038 05/03 Q1013 NOSIG=
0171103150999992014032409204+52135+007685FM-15+004999999V0202801N002110115819N009999199+00601+00301999999ADDGA1021+003961991GA2071+011581991GE19MSL   +99999+99999GF199999021990003961991991MA1101301999990REMMET064METAR EDDG 240920Z 28004KT 9999 FEW013 BKN038 06/03 Q1013 NOSIG=
0171103150999992014032409504+52135+007685FM-15+004999999V0203201N002610115819N009999199+00701+00301999999ADDGA1041+005181991GA2071+011581991GE19MSL   +99999+99999GF199999041990005181991991MA1101301999990REMMET064METAR EDDG 240950Z 32005KT 9999 SCT017 BKN038 07/03 Q1013 NOSIG=
0171103150999992014032410204+52135+007685FM-15+004999999V0203401N00361011581CN009999199+00801+00401999999ADDGA1041+005181991GA2041+011581991GE19MSL   +99999+99999GF199999041990005181991991MA1101301999990REMMET064METAR EDDG 241020Z 34007KT 9999 SCT017 SCT038 08/04 Q1013 NOSIG=
0179103150999992014032410504+52135+007685FM-15+004999999V0203301V00261011581CN009999199+00801+00201999999ADDGA1041+005181991GA2041+011581991GE19MSL   +99999+99999GF199999041990005181991991MA1101301999990REMMET072METAR EDDG 241050Z 33005KT 290V350 9999 SCT017 SCT038 08/02 Q1013 NOSIG=
0179103150999992014032411204+52135+007685FM-15+004999999V0202901V00311012191CN009999199+00801+00201999999ADDGA1041+007621991GA2041+012191991GE19MSL   +99999+99999GF199999041990007621991991MA1101301999990REMMET072METAR EDDG 241120Z 29006KT 280V020 9999 SCT025 SCT040 08/02 Q1013 NOSIG=
0148103150999992014032411504+52135+007685FM-15+004999999V0203301N001519999999N009999199+00701+00101999999ADDGA1041+009141991GE19MSL   +99999+99999GF199999041990009141991991MA1101301999990REMMET057METAR EDDG 241150Z 33003KT 9999 SCT030 07/01 Q1013 NOSIG=
0148103150999992014032412204+52135+007685FM-15+004999999V0202501N003119999999N009999199+00901+00101999999ADDGA1041+009141991GE19MSL   +99999+99999GF199999041990009141991991MA1101201999990REMMET057METAR EDDG 241220Z 25006KT 9999 SCT030 09/01 Q1012 NOSIG=
0157103150999992014032412504+52135+007685FM-15+004999999V0202901V002119999999N009999199+00901-00101999999ADDGA1041+009141991GE19MSL   +99999+99999GF199999041990009141991991MA1101201999990REMMET066METAR EDDG 241250Z 29004KT 260V340 9999 SCT030 09/M01 Q1012 NOSIG=
0149103150999992014032413204+52135+007685FM-15+004999999V0203501N003119999999N009999199+00901+00001999999ADDGA1041+012191991GE19MSL   +99999+99999GF199999041990012191991991MA1101201999990REMMET058METAR EDDG 241320Z 35006KT 9999 SCT040 09/M00 Q1012 NOSIG=
0149103150999992014032413504+52135+007685FM-15+004999999V0203101N003619999999N009999199+00901-00201999999ADDGA1041+012191991GE19MSL   +99999+99999GF199999041990012191991991MA1101201999990REMMET058METAR EDDG 241350Z 31007KT 9999 SCT040 09/M02 Q1012 NOSIG=
0149103150999992014032414204+52135+007685FM-15+004999999V0203101N003119999999N009999199+01001-00101999999ADDGA1041+012191991GE19MSL   +99999+99999GF199999041990012191991991MA1101201999990REMMET058METAR EDDG 241420Z 31006KT 9999 SCT040 10/M01 Q1012 NOSIG=
0149103150999992014032414504+52135+007685FM-15+004999999V0203301N005119999999N009999199+00901-00201999999ADDGA1041+012801991GE19MSL   +99999+99999GF199999041990012801991991MA1101201999990REMMET058METAR EDDG 241450Z 33010KT 9999 SCT042 09/M02 Q1012 NOSIG=
0185103150999992014032415204+52135+007685FM-15+004999999V0203301V00261012801CN009999199+01001+00001999999ADDGA1021+011581991GA2041+012801991GE19MSL   +99999+99999GF199999021990011581991991MA1101101999990REMMET078METAR EDDG 241520Z 33005KT 300V360 9999 FEW038 SCT042 10/M00 Q1011      NOSIG=
0171103150999992014032415504+52135+007685FM-15+004999999V0201301N00261012801CN009999199+00901+00201999999ADDGA1021+011581991GA2041+012801991GE19MSL   +99999+99999GF199999021990011581991991MA1101201999990REMMET064METAR EDDG 241550Z 13005KT 9999 FEW038 SCT042 09/02 Q1012 NOSIG=
0171103150999992014032416204+52135+007685FM-15+004999999V0209999V00101012801CN009999199+00801+00201999999ADDGA1021+011581991GA2041+012801991GE19MSL   +99999+99999GF199999021990011581991991MA1101201999990REMMET064METAR EDDG 241620Z VRB02KT 9999 FEW038 SCT042 08/02 Q1012 NOSIG=
0171103150999992014032416504+52135+007685FM-15+004999999V0201601N00311012801CN009999199+00601+00301999999ADDGA1021+011581991GA2041+012801991GE19MSL   +99999+99999GF199999021990011581991991MA1101201999990REMMET064METAR EDDG 241650Z 16006KT 9999 FEW038 SCT042 06/03 Q1012 NOSIG=
0171103150999992014032417204+52135+007685FM-15+004999999V0201601N00211012801CN009999199+00601+00301999999ADDGA1021+011581991GA2041+012801991GE19MSL   +99999+99999GF199999021990011581991991MA1101201999990REMMET064METAR EDDG 241720Z 16004KT 9999 FEW038 SCT042 06/03 Q1012 NOSIG=
0171103150999992014032417504+52135+007685FM-15+004999999V0201901N00261012801CN009999199+00601+00201999999ADDGA1021+009141991GA2041+012801991GE19MSL   +99999+99999GF199999021990009141991991MA1101201999990REMMET064METAR EDDG 241750Z 19005KT 9999 FEW030 SCT042 06/02 Q1012 NOSIG=
0162103150999992014032418204+52135+007685FM-15+004999999V0209999V001019999999N009999199+00501+00201999999ADDGA1021+007621081GE19MSL   +99999+99999GF199999021990007621991991MA1101301999990MW1161REMMET065METAR EDDG 241820Z VRB02KT 9999 VCSH FEW025TCU 05/02 Q1013 NOSIG=
0171103150999992014032418504+52135+007685FM-15+004999999V0209999V001010140219N009999199+00401+00101999999ADDGA1021+009141991GA2071+014021991GE19MSL   +99999+99999GF199999021990009141991991MA1101301999990REMMET064METAR EDDG 241850Z VRB02KT 9999 FEW030 BKN046 04/01 Q1013 NOSIG=
0148103150999992014032419204+52135+007685FM-15+004999999V0202201N001510140219N009999199+00501+00101999999ADDGA1071+014021991GE19MSL   +99999+99999GF199999071990014021991991MA1101301999990REMMET057METAR EDDG 241920Z 22003KT 9999 BKN046 05/01 Q1013 NOSIG=
0148103150999992014032419504+52135+007685FM-15+004999999V0209999V000510140219N009999199+00401+00201999999ADDGA1071+014021991GE19MSL   +99999+99999GF199999071990014021991991MA1101301999990REMMET057METAR EDDG 241950Z VRB01KT 9999 BKN046 04/02 Q1013 NOSIG=
0171103150999992014032420204+52135+007685FM-15+004999999V0209999V000510152419N009999199+00401+00201999999ADDGA1021+012191991GA2071+015241991GE19MSL   +99999+99999GF199999021990012191991991MA1101301999990REMMET064METAR EDDG 242020Z VRB01KT 9999 FEW040 BKN050 04/02 Q1013 NOSIG=
0078103150999992014032420504+52135+007685FM-15+004999999V0201301N000519999999Y999999999+00301+00101999999ADDMA1101301999990REMMET051METAR EDDG 242050Z 13001KT CAVOK 03/01 Q1013 NOSIG=
0078103150999992014032421204+52135+007685FM-15+004999999V0200301N000519999999Y999999999+00301+00101999999ADDMA1101301999990REMMET051METAR EDDG 242120Z 03001KT CAVOK 03/01 Q1013 NOSIG=
0078103150999992014032421504+52135+007685FM-15+004999999V0200401N001019999999Y999999999+00101+00101999999ADDMA1101301999990REMMET051METAR EDDG 242150Z 04002KT CAVOK 01/01 Q1013 NOSIG=
0078103150999992014032422204+52135+007685FM-15+004999999V0201001N001019999999Y999999999+00101+00101999999ADDMA1101301999990REMMET051METAR EDDG 242220Z 10002KT CAVOK 01/01 Q1013 NOSIG=
0118103150999992014032422504+52135+007685FM-15+004999999V0202001N000512200019N009999199+00101+00101999999ADDGF100991999999999999999999MA1101301999990MW1121REMMET059METAR EDDG 242250Z 20001KT 9999 MIFG NSC 01/01 Q1013 NOSIG=
0118103150999992014032423204+52135+007685FM-15+004999999V0203501N000512200019N009999199+00001+00001999999ADDGF100991999999999999999999MA1101301999990MW1121REMMET059METAR EDDG 242320Z 35001KT 9999 MIFG NSC 00/00 Q1013 NOSIG=
0118103150999992014032423504+52135+007685FM-15+004999999V0202201N000512200019N009999199+00001+00001999999ADDGF100991999999999999999999MA1101301999990MW1121REMMET059METAR EDDG 242350Z 22001KT 9999 MIFG NSC 00/00 Q1013 NOSIG=
0148103150999992014032500204+52135+007685FM-15+004999999V0209999V001012200019N009999199+00001+00001999999ADDGF100991999999999999999999MA1101301999990MW1111REMMET089METAR EDDG 250020Z VRB02KT 9999 0900NE R25/1300VP2000D BCFG NSC M00/M00      Q1013 NOSIG=
0142103150999992014032500504+52135+007685FM-15+004999999V0209999V001012200019N009999199-00101-00101999999ADDGF100991999999999999999999MA1101301999990MW1111REMMET083METAR EDDG 250050Z VRB02KT 9999 0900N R25/P2000N BCFG NSC M01/M01 Q1013      NOSIG=
0155103150999992014032501204+52135+007685FM-15+004999999V0201901N000512200019N006000199-00101-00101999999ADDGF100991999999999999999999MA1101301999990MW1111REMMET096METAR EDDG 250120Z 19001KT 6000 0700N R25/0800VP2000U BCFG NSC M01/M01      Q1013 BECMG 3500 BR=
0207103150999992014032501504+52135+007685FM-15+004999999V0209999V000519999999N001900199-00201-00201999999ADDGA1021+000611991GE19MSL   +99999+99999GF199999021990000611991991MA1101201999990MW1101MW2111REMMET104METAR EDDG 250150Z VRB01KT 1900 0600N R25/0800VP2000D BCFG BR FEW002      M02/M02 Q1012 BECMG 0700 FZFG=
0207103150999992014032502204+52135+007685FM-15+004999999V0209999V001019999999N001500199-00201-00201999999ADDGA1021+000611991GE19MSL   +99999+99999GF199999021990000611991991MA1101201999990MW1101MW2111REMMET104METAR EDDG 250220Z VRB02KT 1500 0600N R25/0800VP2000U BCFG BR FEW002      M02/M02 Q1012 TEMPO 0700 FZFG=
0207103150999992014032502504+52135+007685FM-15+004999999V0209999V000519999999N001800199-00201-00201999999ADDGA1021+000301991GE19MSL   +99999+99999GF199999021990000301991991MA1101201999990MW1101MW2111REMMET104METAR EDDG 250250Z VRB01KT 1800 0700N R25/0800VP2000U BCFG BR FEW001      M02/M02 Q1012 TEMPO 0700 FZFG=
0207103150999992014032503204+52135+007685FM-15+004999999V0209999V000519999999N002500199-00201-00201999999ADDGA1041+000301991GE19MSL   +99999+99999GF199999041990000301991991MA1101201999990MW1101MW2111REMMET104METAR EDDG 250320Z VRB01KT 2500 0700N R25/0900VP2000D BCFG BR SCT001      M02/M02 Q1012 TEMPO 0700 FZFG=
0200103150999992014032503504+52135+007685FM-15+004999999V0201301N001019999999N003000199-00201-00201999999ADDGA1021+000301991GE19MSL   +99999+99999GF199999021990000301991991MA1101201999990MW1101MW2111REMMET097METAR EDDG 250350Z 13002KT 3000 0900N R25/P2000N BCFG BR FEW001 M02/M02      Q1012 TEMPO 2000 BR=
0201103150999992014032504204+52135+007685FM-15+004999999V0201501N001019999999N003000199-00201-00201999999ADDGA1021+000301991GE19MSL   +99999+99999GF199999021990000301991991MA1101201999990MW1101MW2111REMMET098METAR EDDG 250420Z 15002KT 3000 0900NW R25/P2000N BCFG BR FEW001 M02/M02      Q1012 TEMPO 2000 BR=
0208103150999992014032504504+52135+007685FM-15+004999999V0209999V000519999999N001200199-00301-00301999999ADDGA1041+000301991GE19MSL   +99999+99999GF199999041990000301991991MA1101201999990MW1101MW2111REMMET105METAR EDDG 250450Z VRB01KT 1200 0600NE R25/1100VP2000U BCFG BR SCT001      M03/M03 Q1012 TEMPO 0700 FZFG=
0186103150999992014032505204+52135+007685FM-15+004999999V0209999V000519999999N000200199-00201-00201999999ADDGA1041+000301991GE19MSL   +99999+99999GF199999041990000301991991MA1101201999990MW1481REMMET089METAR EDDG 250520Z VRB01KT 0200 R25/0325V0500N FZFG SCT001 M02/M02      Q1012 BECMG 0700=
0181103150999992014032505504+52135+007685FM-15+004999999V0209999V000519999999N000200199-00201-00201999999ADDGA1021+000301991GE19MSL   +99999+99999GF199999021990000301991991MA1101201999990MW1481REMMET084METAR EDDG 250550Z VRB01KT 0200 R25/0250N FZFG FEW001 M02/M02 Q1012      BECMG 0700=
0203103150999992014032506204+52135+007685FM-15+004999999V0200501N001519999999N001800199-00201-00201999999ADDGA1021+000301991GE19MSL   +99999+99999GF199999021990000301991991MA1101201999990MW1101MW2111REMMET100METAR EDDG 250620Z 05003KT 1800 0600NW R25/0800VP2000U BCFG BR FEW001      M02/M02 Q1012 BECMG 3000=
0123103150999992014032506504+52135+007685FM-15+004999999V0201201N001012200019N002500199-00101-00101999999ADDGF100991999999999999999999MA1101201999990MW1101REMMET064METAR EDDG 250650Z 12002KT 2500 BR NSC M01/M01 Q1012 BECMG 3000=
0121103150999992014032507204+52135+007685FM-15+004999999V0201001N001512200019N002800199+00001+00001999999ADDGF100991999999999999999999MA1101201999990MW1101REMMET062METAR EDDG 250720Z 10003KT 2800 BR NSC 00/00 Q1012 BECMG 3000=
0121103150999992014032507504+52135+007685FM-15+004999999V0209999V000512200019N003500199+00201+00101999999ADDGF100991999999999999999999MA1101101999990MW1101REMMET062METAR EDDG 250750Z VRB01KT 3500 BR NSC 02/01 Q1011 BECMG 6000=
0121103150999992014032508204+52135+007685FM-15+004999999V0209999V000512200019N004500199+00401+00201999999ADDGF100991999999999999999999MA1101101999990MW1101REMMET062METAR EDDG 250820Z VRB01KT 4500 BR NSC 04/02 Q1011 BECMG 6000=
0107103150999992014032508504+52135+007685FM-15+004999999V0209999V000512200019N007000199+00601+00201999999ADDGF100991999999999999999999MA1101101999990REMMET054METAR EDDG 250850Z VRB01KT 7000 NSC 06/02 Q1011 NOSIG=
0148103150999992014032509204+52135+007685FM-15+004999999V0202101N000519999999N008000199+00701+00201999999ADDGA1021+004571991GE19MSL   +99999+99999GF199999021990004571991991MA1101101999990REMMET057METAR EDDG 250920Z 21001KT 8000 FEW015 07/02 Q1011 NOSIG=
0148103150999992014032509504+52135+007685FM-15+004999999V0200401N001019999999N009999199+00801+00201999999ADDGA1021+006101991GE19MSL   +99999+99999GF199999021990006101991991MA1101101999990REMMET057METAR EDDG 250950Z 04002KT 9999 FEW020 08/02 Q1011 NOSIG=
0148103150999992014032510204+52135+007685FM-15+004999999V0209999V001519999999N009999199+00801+00301999999ADDGA1021+006101991GE19MSL   +99999+99999GF199999021990006101991991MA1101101999990REMMET057METAR EDDG 251020Z VRB03KT 9999 FEW020 08/03 Q1011 NOSIG=
0148103150999992014032510504+52135+007685FM-15+004999999V0200501N002119999999N009999199+00901+00101999999ADDGA1041+008231991GE19MSL   +99999+99999GF199999041990008231991991MA1101101999990REMMET057METAR EDDG 251050Z 05004KT 9999 SCT027 09/01 Q1011 NOSIG=
0171103150999992014032511204+52135+007685FM-15+004999999V0209999V001010182919N009999199+00901+00001999999ADDGA1021+008231991GA2071+018291991GE19MSL   +99999+99999GF199999021990008231991991MA1101101999990REMMET064METAR EDDG 251120Z VRB02KT 9999 FEW027 BKN060 09/00 Q1011 NOSIG=
0172103150999992014032511504+52135+007685FM-15+004999999V0200601N003110146319N009999199+00901-00101999999ADDGA1021+008841991GA2071+014631991GE19MSL   +99999+99999GF199999021990008841991991MA1101001999990REMMET065METAR EDDG 251150Z 06006KT 9999 FEW029 BKN048 09/M01 Q1010 NOSIG=
0184103150999992014032512204+52135+007685FM-15+004999999V0201001N003110121919N009999199+00801-00101999999ADDGA1021+009141991GA2071+012191991GE19MSL   +99999+99999GF199999021990009141991991MA1101101999990MW1801REMMET071METAR EDDG 251220Z 10006KT 9999 -SHRA FEW030 BKN040 08/M01 Q1011 NOSIG=
0188103150999992014032512504+52135+007685FM-15+004999999V0209999V001010152419N009999199+00801-00101999999ADDGA1021+006101091GA2071+015241991GE19MSL   +99999+99999GF199999021990006101991991MA1101001999990REMMET081METAR COR EDDG 251250Z VRB02KT 9999 FEW020CB BKN050 08/M01 Q1010 RESG      NOSIG=
0173103150999992014032513204+52135+007685FM-15+004999999V0202501N00211018291CN009999199+00901+00101999999ADDGA1021+006101091GA2041+018291991GE19MSL   +99999+99999GF199999021990006101991991MA1101001999990REMMET066METAR EDDG 251320Z 25004KT 9999 FEW020CB SCT060 09/01 Q1010 NOSIG=
0179103150999992014032513504+52135+007685FM-15+004999999V0202401V00211021341CN009999199+01001+00201999999ADDGA1041+012191991GA2041+021341991GE19MSL   +99999+99999GF199999041990012191991991MA1101001999990REMMET072METAR EDDG 251350Z 24004KT 200V270 9999 SCT040 SCT070 10/02 Q1010 NOSIG=
0172103150999992014032514204+52135+007685FM-15+004999999V0202401N00051024381CN009999199+01001-00201999999ADDGA1041+014021991GA2041+024381991GE19MSL   +99999+99999GF199999041990014021991991MA1101001999990REMMET065METAR EDDG 251420Z 24001KT 9999 SCT046 SCT080 10/M02 Q1010 NOSIG=
0149103150999992014032514504+52135+007685FM-15+004999999V0209999V003619999999N009999199+00901-00101999999ADDGA1041+014021991GE19MSL   +99999+99999GF199999041990014021991991MA1101001999990REMMET058METAR EDDG 251450Z VRB07KT 9999 SCT046 09/M01 Q1010 NOSIG=
0149103150999992014032515204+52135+007685FM-15+004999999V0200401N002119999999N009999199+00901-00101999999ADDGA1041+014021991GE19MSL   +99999+99999GF199999041990014021991991MA1101001999990REMMET058METAR EDDG 251520Z 04004KT 9999 SCT046 09/M01 Q1010 NOSIG=
0151103150999992014032515504+52135+007685FM-15+004999999V0203601N002119999999N009999199+01001-00101999999ADDGA1041+014021091GE19MSL   +99999+99999GF199999041990014021991991MA1101001999990REMMET060METAR EDDG 251550Z 36004KT 9999 SCT046CB 10/M01 Q1010 NOSIG=
0151103150999992014032516204+52135+007685FM-15+004999999V0203501N002119999999N009999199+01001-00101999999ADDGA1041+014021091GE19MSL   +99999+99999GF199999041990014021991991MA1101001999990REMMET060METAR EDDG 251620Z 35004KT 9999 SCT046CB 10/M01 Q1010 NOSIG=
0158103150999992014032516504+52135+007685FM-15+004999999V0201001V003619999999N009999199+00801+00001999999ADDGA1021+014631091GE19MSL   +99999+99999GF199999021990014631991991MA1101001999990REMMET067METAR EDDG 251650Z 10007KT 070V130 9999 FEW048CB 08/00 Q1010 NOSIG=
0150103150999992014032517204+52135+007685FM-15+004999999V0201301N001519999999N009999199+00701+00101999999ADDGA1021+014631091GE19MSL   +99999+99999GF199999021990014631991991MA1101101999990REMMET059METAR EDDG 251720Z 13003KT 9999 FEW048CB 07/01 Q1011 NOSIG=
0078103150999992014032517504+52135+007685FM-15+004999999V0201201N001019999999Y999999999+00601+00101999999ADDMA1101101999990REMMET051METAR EDDG 251750Z 12002KT CAVOK 06/01 Q1011 NOSIG=
0078103150999992014032518204+52135+007685FM-15+004999999V0200601N001019999999Y999999999+00401+00101999999ADDMA1101101999990REMMET051METAR EDDG 251820Z 06002KT CAVOK 04/01 Q1011 NOSIG=
0078103150999992014032518504+52135+007685FM-15+004999999V0209999V000519999999Y999999999+00401+00101999999ADDMA1101101999990REMMET051METAR EDDG 251850Z VRB01KT CAVOK 04/01 Q1011 NOSIG=
0078103150999992014032519204+52135+007685FM-15+004999999V0200201N000519999999Y999999999+00301+00101999999ADDMA1101201999990REMMET051METAR EDDG 251920Z 02001KT CAVOK 03/01 Q1012 NOSIG=
0078103150999992014032519504+52135+007685FM-15+004999999V0203201N000519999999Y999999999+00201+00001999999ADDMA1101201999990REMMET051METAR EDDG 251950Z 32001KT CAVOK 02/00 Q1012 NOSIG=
0078103150999992014032520204+52135+007685FM-15+004999999V0209999V000519999999Y999999999+00201+00001999999ADDMA1101201999990REMMET051METAR EDDG 252020Z VRB01KT CAVOK 02/00 Q1012 NOSIG=
0079103150999992014032520504+52135+007685FM-15+004999999V0203401N001519999999Y999999999+00101+00001999999ADDMA1101201999990REMMET052METAR EDDG 252050Z 34003KT CAVOK 01/M00 Q1012 NOSIG=
0079103150999992014032521204+52135+007685FM-15+004999999V0203401N001519999999Y999999999+00101-00101999999ADDMA1101201999990REMMET052METAR EDDG 252120Z 34003KT CAVOK 01/M01 Q1012 NOSIG=
0079103150999992014032521504+52135+007685FM-15+004999999V0203201N001019999999Y999999999+00201-00101999999ADDMA1101201999990REMMET052METAR EDDG 252150Z 32002KT CAVOK 02/M01 Q1012 NOSIG=
0079103150999992014032522204+52135+007685FM-15+004999999V0203401N001519999999Y999999999+00101-00101999999ADDMA1101201999990REMMET052METAR EDDG 252220Z 34003KT CAVOK 01/M01 Q1012 NOSIG=
0079103150999992014032522504+52135+007685FM-15+004999999V0202701N001019999999Y999999999+00001-00101999999ADDMA1101201999990REMMET052METAR EDDG 252250Z 27002KT CAVOK 00/M01 Q1012 NOSIG=
0079103150999992014032523204+52135+007685FM-15+004999999V0202401N001519999999Y999999999+00101-00101999999ADDMA1101201999990REMMET052METAR EDDG 252320Z 24003KT CAVOK 01/M01 Q1012 NOSIG=
0078103150999992014032523504+52135+007685FM-15+004999999V0202601N001519999999Y999999999+00201+00001999999ADDMA1101201999990REMMET051METAR EDDG 252350Z 26003KT CAVOK 02/00 Q1012 NOSIG=
0078103150999992014032600204+52135+007685FM-15+004999999V0202501N001519999999Y999999999+00201+00001999999ADDMA1101201999990REMMET051METAR EDDG 260020Z 25003KT CAVOK 02/00 Q1012 NOSIG=
0079103150999992014032600504+52135+007685FM-15+004999999V0202601N001019999999Y999999999+00101+00001999999ADDMA1101201999990REMMET052METAR EDDG 260050Z 26002KT CAVOK 01/M00 Q1012 NOSIG=
0079103150999992014032601204+52135+007685FM-15+004999999V0202701N001519999999Y999999999+00101-00101999999ADDMA1101201999990REMMET052METAR EDDG 260120Z 27003KT CAVOK 01/M01 Q1012 NOSIG=
0078103150999992014032601504+52135+007685FM-15+004999999V0202501N001519999999Y999999999+00101+00001999999ADDMA1101201999990REMMET051METAR EDDG 260150Z 25003KT CAVOK 01/00 Q1012 NOSIG=
0078103150999992014032602204+52135+007685FM-15+004999999V0202601N001519999999Y999999999+00101+00101999999ADDMA1101201999990REMMET051METAR EDDG 260220Z 26003KT CAVOK 01/01 Q1012 NOSIG=
0116103150999992014032602504+52135+007685FM-15+004999999V0202701N001512200019N006000199+00001-00101999999ADDGF100991999999999999999999MA1101201999990REMMET063METAR EDDG 260250Z 27003KT 6000 NSC 00/M01 Q1012 TEMPO 4000 BR=
0122103150999992014032603204+52135+007685FM-15+004999999V0202601N001012200019N004000199+00001+00001999999ADDGF100991999999999999999999MA1101201999990MW1101REMMET063METAR EDDG 260320Z 26002KT 4000 BR NSC 00/M00 Q1012 TEMPO 2500=
0123103150999992014032603504+52135+007685FM-15+004999999V0202901N001512200019N003000199+00001-00101999999ADDGF100991999999999999999999MA1101201999990MW1101REMMET064METAR EDDG 260350Z 29003KT 3000 BR NSC M00/M01 Q1012 TEMPO 2500=
0118103150999992014032604204+52135+007685FM-15+004999999V0202701N001512200019N002500199+00001+00001999999ADDGF100991999999999999999999MA1101201999990MW1101REMMET059METAR EDDG 260420Z 27003KT 2500 BR NSC M00/M00 Q1012 NOSIG=
0222103150999992014032604504+52135+007685FM-15+004999999V0202701N00101067061CN001300199+00001+00001999999ADDGA1041+000611991GA2041+067061991GE19MSL   +99999+99999GF199999041990000611991991MA1101201999990MW1101MW2111REMMET103METAR EDDG 260450Z 27002KT 1300 R25/P2000N BCFG BR SCT002 SCT220 00/00      Q1012 TEMPO 0500 FG BKN001=
0203103150999992014032605204+52135+007685FM-15+004999999V0209999V001010003019N001200199+00001+00001999999ADDGA1071+000301991GE19MSL   +99999+99999GF199999071990000301991991MA1101301999990MW1101MW2111REMMET100METAR EDDG 260520Z VRB02KT 1200 0500E R25/0750VP2000U BCFG BR BKN001      00/00 Q1013 TEMPO 0500 FG=
0189103150999992014032605504+52135+007685FM-15+004999999V0202601N001510003019N000500199+00101+00101999999ADDGA1071+000301991GE19MSL   +99999+99999GF199999071990000301991991MA1101301999990MW1441REMMET092METAR EDDG 260550Z 26003KT 0500 R25/0375V0550N FG BKN001 01/01 Q1013      BECMG 1500 SCT002=
0184103150999992014032606204+52135+007685FM-15+004999999V0202101N001010003019N000300199+00101+00101999999ADDGA1071+000301991GE19MSL   +99999+99999GF199999071990000301991991MA1101301999990MW1441REMMET087METAR EDDG 260620Z 21002KT 0300 R25/0325N FG BKN001 01/01 Q1013 BECMG      1500 SCT002=
0189103150999992014032606504+52135+007685FM-15+004999999V0202401N001010003019N000500199+00101+00101999999ADDGA1071+000301991GE19MSL   +99999+99999GF199999071990000301991991MA1101301999990MW1441REMMET092METAR EDDG 260650Z 24002KT 0500 R25/0325V0500N FG BKN001 01/01 Q1013      BECMG 1500 SCT002=
0190103150999992014032607204+52135+007685FM-15+004999999V0201601N001010003019N000900199+00201+00201999999ADDGA1071+000301991GE19MSL   +99999+99999GF199999071990000301991991MA1101301999990MW1441REMMET093METAR EDDG 260720Z 16002KT 0900 R25/0900VP2000U FG BKN001 02/02 Q1013      BECMG 1500 SCT002=
0190103150999992014032607504+52135+007685FM-15+004999999V0201601N001510365819N002000199+00301+00301999999ADDGA1041+000611991GA2071+036581991GE19MSL   +99999+99999GF199999041990000611991991MA1101401999990MW1101REMMET077METAR EDDG 260750Z 16003KT 2000 BR SCT002 BKN120 03/03 Q1014 BECMG      3000=
0190103150999992014032608204+52135+007685FM-15+004999999V0201501N001510365819N003000199+00401+00401999999ADDGA1041+001221991GA2071+036581991GE19MSL   +99999+99999GF199999041990001221991991MA1101401999990MW1101REMMET077METAR EDDG 260820Z 15003KT 3000 BR SCT004 BKN120 04/04 Q1014 BECMG      6000=
0164103150999992014032608504+52135+007685FM-15+004999999V0201001N001510012219N005000199+00401+00301999999ADDGA1071+001221991GE19MSL   +99999+99999GF199999071990001221991991MA1101401999990MW1101REMMET067METAR EDDG 260850Z 10003KT 5000 BR BKN004 04/03 Q1014 BECMG SCT006=
0155103150999992014032609204+52135+007685FM-15+004999999V0203001N002110012219N007000199+00401+00301999999ADDGA1071+001221991GE19MSL   +99999+99999GF199999071990001221991991MA1101501999990REMMET064METAR EDDG 260920Z 30004KT 7000 BKN004 04/03 Q1015 BECMG SCT006=
0171103150999992014032609504+52135+007685FM-15+004999999V0201601N001510762019N009000199+00601+00401999999ADDGA1021+003051991GA2071+076201991GE19MSL   +99999+99999GF199999021990003051991991MA1101501999990REMMET064METAR EDDG 260950Z 16003KT 9000 FEW010 BKN250 06/04 Q1015 NOSIG=
0148103150999992014032610204+52135+007685FM-15+004999999V0201501N001519999999N009999199+00601+00301999999ADDGA1041+003661991GE19MSL   +99999+99999GF199999041990003661991991MA1101501999990REMMET057METAR EDDG 261020Z 15003KT 9999 SCT012 06/03 Q1015 NOSIG=
0171103150999992014032610504+52135+007685FM-15+004999999V0209999V001010762019N009999199+00701+00401999999ADDGA1041+003661991GA2071+076201991GE19MSL   +99999+99999GF199999041990003661991991MA1101501999990REMMET064METAR EDDG 261050Z VRB02KT 9999 SCT012 BKN250 07/04 Q1015 NOSIG=
0171103150999992014032611204+52135+007685FM-15+004999999V0200901N001510762019N009999199+00701+00401999999ADDGA1041+003661991GA2071+076201991GE19MSL   +99999+99999GF199999041990003661991991MA1101501999990REMMET064METAR EDDG 261120Z 09003KT 9999 SCT012 BKN250 07/04 Q1015 NOSIG=
0171103150999992014032611504+52135+007685FM-15+004999999V0201001N002110762019N009999199+00801+00301999999ADDGA1021+004571991GA2071+076201991GE19MSL   +99999+99999GF199999021990004571991991MA1101501999990REMMET064METAR EDDG 261150Z 10004KT 9999 FEW015 BKN250 08/03 Q1015 NOSIG=
0171103150999992014032612204+52135+007685FM-15+004999999V0209999V001510762019N009999199+00901+00201999999ADDGA1021+004571991GA2071+076201991GE19MSL   +99999+99999GF199999021990004571991991MA1101501999990REMMET064METAR EDDG 261220Z VRB03KT 9999 FEW015 BKN250 09/02 Q1015 NOSIG=
0172103150999992014032612504+52135+007685FM-15+004999999V0209999V00151076201CN009999199+00901+00001999999ADDGA1021+009141991GA2041+076201991GE19MSL   +99999+99999GF199999021990009141991991MA1101401999990REMMET065METAR EDDG 261250Z VRB03KT 9999 FEW030 SCT250 09/M00 Q1014 NOSIG=
0185103150999992014032613204+52135+007685FM-15+004999999V0201601V00211076201CN009999199+01001-00101999999ADDGA1021+012191991GA2041+076201991GE19MSL   +99999+99999GF199999021990012191991991MA1101401999990REMMET078METAR EDDG 261320Z 16004KT 130V210 9999 FEW040 SCT250 10/M01 Q1014      NOSIG=
0149103150999992014032613504+52135+007685FM-15+004999999V0201101N002619999999N009999199+01101-00101999999ADDGA1021+012191991GE19MSL   +99999+99999GF199999021990012191991991MA1101401999990REMMET058METAR EDDG 261350Z 11005KT 9999 FEW040 11/M01 Q1014 NOSIG=
0149103150999992014032614204+52135+007685FM-15+004999999V0201301N002619999999N009999199+01001+00001999999ADDGA1021+013721991GE19MSL   +99999+99999GF199999021990013721991991MA1101401999990REMMET058METAR EDDG 261420Z 13005KT 9999 FEW045 10/M00 Q1014 NOSIG=
0172103150999992014032614504+52135+007685FM-15+004999999V0201601N00211036581CN009999199+01001-00101999999ADDGA1021+013721991GA2041+036581991GE19MSL   +99999+99999GF199999021990013721991991MA1101401999990REMMET065METAR EDDG 261450Z 16004KT 9999 FEW045 SCT120 10/M01 Q1014 NOSIG=
0174103150999992014032615204+52135+007685FM-15+004999999V0201101N00311033531CN009999199+01001-00101999999ADDGA1021+012191091GA2041+033531991GE19MSL   +99999+99999GF199999021990012191991991MA1101401999990REMMET067METAR EDDG 261520Z 11006KT 9999 FEW040CB SCT110 10/M01 Q1014 NOSIG=
0185103150999992014032615504+52135+007685FM-15+004999999V0201301N00151033531CN009999199+00901-00201999999ADDGA1021+012191091GA2041+033531991GE19MSL   +99999+99999GF199999021990012191991991MA1101401999990MW1161REMMET072METAR EDDG 261550Z 13003KT 9999 VCSH FEW040CB SCT110 09/M02 Q1014 NOSIG=
0174103150999992014032616204+52135+007685FM-15+004999999V0201401N00101033531CN009999199+00901-00101999999ADDGA1021+012191091GA2041+033531991GE19MSL   +99999+99999GF199999021990012191991991MA1101401999990REMMET067METAR EDDG 261620Z 14002KT 9999 FEW040CB SCT110 09/M01 Q1014 NOSIG=
0174103150999992014032616504+52135+007685FM-15+004999999V0209999V00051033531CN009999199+00901-00101999999ADDGA1021+012191091GA2041+033531991GE19MSL   +99999+99999GF199999021990012191991991MA1101501999990REMMET067METAR EDDG 261650Z VRB01KT 9999 FEW040CB SCT110 09/M01 Q1015 NOSIG=
0224103150999992014032617204+52135+007685FM-15+004999999V0201001N00211007621CN009999199+00801+00101999999ADDGA1021+006101991GA2041+007621091GA3071+033531991GE19MSL   +99999+99999GF199999021990006101991991MA1101501999990MW1801OC100721REMMET087METAR EDDG 261720Z 10004G14KT 9999 -SHRA FEW020 SCT025CB BKN110 08/01      Q1015 NOSIG=
0173103150999992014032617504+52135+007685FM-15+004999999V0203301N00211033531CN009999199+00601+00201999999ADDGA1021+007621091GA2041+033531991GE19MSL   +99999+99999GF199999021990007621991991MA1101501999990REMMET066METAR EDDG 261750Z 33004KT 9999 FEW025CB SCT110 06/02 Q1015 NOSIG=
0173103150999992014032618204+52135+007685FM-15+004999999V0203501N00151015241CN009999199+00501+00301999999ADDGA1021+009141091GA2041+015241991GE19MSL   +99999+99999GF199999021990009141991991MA1101601999990REMMET066METAR EDDG 261820Z 35003KT 9999 FEW030CB SCT050 05/03 Q1016 NOSIG=
0173103150999992014032618504+52135+007685FM-15+004999999V0203301N00101015241CN009999199+00501+00301999999ADDGA1041+010671091GA2041+015241991GE19MSL   +99999+99999GF199999041990010671991991MA1101601999990REMMET066METAR EDDG 261850Z 33002KT 9999 SCT035CB SCT050 05/03 Q1016 NOSIG=
0173103150999992014032619204+52135+007685FM-15+004999999V0202901N00151015241CN009999199+00601+00201999999ADDGA1021+012191091GA2041+015241991GE19MSL   +99999+99999GF199999021990012191991991MA1101601999990REMMET066METAR EDDG 261920Z 29003KT 9999 FEW040CB SCT050 06/02 Q1016 NOSIG=
0173103150999992014032619504+52135+007685FM-15+004999999V0209999V00151027431CN009999199+00601+00301999999ADDGA1021+012191091GA2041+027431991GE19MSL   +99999+99999GF199999021990012191991991MA1101601999990REMMET066METAR EDDG 261950Z VRB03KT 9999 FEW040CB SCT090 06/03 Q1016 NOSIG=
0173103150999992014032620204+52135+007685FM-15+004999999V0209999V00101027431CN009999199+00501+00201999999ADDGA1021+012191091GA2041+027431991GE19MSL   +99999+99999GF199999021990012191991991MA1101601999990REMMET066METAR EDDG 262020Z VRB02KT 9999 FEW040CB SCT090 05/02 Q1016 NOSIG=
0078103150999992014032620504+52135+007685FM-15+004999999V0209999V000519999999Y999999999+00401+00201999999ADDMA1101601999990REMMET051METAR EDDG 262050Z VRB01KT CAVOK 04/02 Q1016 NOSIG=
0078103150999992014032621204+52135+007685FM-15+004999999V0209999V000519999999Y999999999+00401+00101999999ADDMA1101601999990REMMET051METAR EDDG 262120Z VRB01KT CAVOK 04/01 Q1016 NOSIG=
0078103150999992014032621504+52135+007685FM-15+004999999V0200501N001019999999Y999999999+00301+00201999999ADDMA1101601999990REMMET051METAR EDDG 262150Z 05002KT CAVOK 03/02 Q1016 NOSIG=
0078103150999992014032622204+52135+007685FM-15+004999999V0200601N002619999999Y999999999+00601+00101999999ADDMA1101601999990REMMET051METAR EDDG 262220Z 06005KT CAVOK 06/01 Q1016 NOSIG=
0079103150999992014032622504+52135+007685FM-15+004999999V0200801N003119999999Y999999999+00701+00001999999ADDMA1101601999990REMMET052METAR EDDG 262250Z 08006KT CAVOK 07/M00 Q1016 NOSIG=
0078103150999992014032623204+52135+007685FM-15+004999999V0200801N004619999999Y999999999+00701+00001999999ADDMA1101601999990REMMET051METAR EDDG 262320Z 08009KT CAVOK 07/00 Q1016 NOSIG=
0078103150999992014032623504+52135+007685FM-15+004999999V0200701N004619999999Y999999999+00601+00001999999ADDMA1101601999990REMMET051METAR EDDG 262350Z 07009KT CAVOK 06/00 Q1016 NOSIG=
0078103150999992014032700204+52135+007685FM-15+004999999V0200601N003619999999Y999999999+00501+00001999999ADDMA1101601999990REMMET051METAR EDDG 270020Z 06007KT CAVOK 05/00 Q1016 NOSIG=
0078103150999992014032700504+52135+007685FM-15+004999999V0200701N003119999999Y999999999+00501+00001999999ADDMA1101601999990REMMET051METAR EDDG 270050Z 07006KT CAVOK 05/00 Q1016 NOSIG=
0078103150999992014032701204+52135+007685FM-15+004999999V0200701N003119999999Y999999999+00501+00101999999ADDMA1101601999990REMMET051METAR EDDG 270120Z 07006KT CAVOK 05/01 Q1016 NOSIG=
0078103150999992014032701504+52135+007685FM-15+004999999V0200701N003619999999Y999999999+00501+00101999999ADDMA1101501999990REMMET051METAR EDDG 270150Z 07007KT CAVOK 05/01 Q1015 NOSIG=
0078103150999992014032702204+52135+007685FM-15+004999999V0200701N003619999999Y999999999+00501+00101999999ADDMA1101501999990REMMET051METAR EDDG 270220Z 07007KT CAVOK 05/01 Q1015 NOSIG=
0078103150999992014032702504+52135+007685FM-15+004999999V0200601N003619999999Y999999999+00401+00101999999ADDMA1101501999990REMMET051METAR EDDG 270250Z 06007KT CAVOK 04/01 Q1015 NOSIG=
0078103150999992014032703204+52135+007685FM-15+004999999V0200701N003119999999Y999999999+00401+00101999999ADDMA1101501999990REMMET051METAR EDDG 270320Z 07006KT CAVOK 04/01 Q1015 NOSIG=
0078103150999992014032703504+52135+007685FM-15+004999999V0200701N003119999999Y999999999+00301+00101999999ADDMA1101501999990REMMET051METAR EDDG 270350Z 07006KT CAVOK 03/01 Q1015 NOSIG=
0078103150999992014032704204+52135+007685FM-15+004999999V0200601N002619999999Y999999999+00401+00101999999ADDMA1101501999990REMMET051METAR EDDG 270420Z 06005KT CAVOK 04/01 Q1015 NOSIG=
0078103150999992014032704504+52135+007685FM-15+004999999V0200701N003619999999Y999999999+00401+00101999999ADDMA1101501999990REMMET051METAR EDDG 270450Z 07007KT CAVOK 04/01 Q1015 NOSIG=
0078103150999992014032705204+52135+007685FM-15+004999999V0200601N004119999999Y999999999+00401+00101999999ADDMA1101501999990REMMET051METAR EDDG 270520Z 06008KT CAVOK 04/01 Q1015 NOSIG=
0078103150999992014032705504+52135+007685FM-15+004999999V0200701N003619999999Y999999999+00301+00101999999ADDMA1101501999990REMMET051METAR EDDG 270550Z 07007KT CAVOK 03/01 Q1015 NOSIG=
0078103150999992014032706204+52135+007685FM-15+004999999V0200701N003119999999Y999999999+00401+00101999999ADDMA1101501999990REMMET051METAR EDDG 270620Z 07006KT CAVOK 04/01 Q1015 NOSIG=
0078103150999992014032706504+52135+007685FM-15+004999999V0200701N004119999999Y999999999+00501+00201999999ADDMA1101501999990REMMET051METAR EDDG 270650Z 07008KT CAVOK 05/02 Q1015 NOSIG=
0078103150999992014032707204+52135+007685FM-15+004999999V0200701N004619999999Y999999999+00601+00201999999ADDMA1101501999990REMMET051METAR EDDG 270720Z 07009KT CAVOK 06/02 Q1015 NOSIG=
0078103150999992014032707504+52135+007685FM-15+004999999V0200501N004619999999Y999999999+00601+00201999999ADDMA1101501999990REMMET051METAR EDDG 270750Z 05009KT CAVOK 06/02 Q1015 NOSIG=
0185103150999992014032708204+52135+007685FM-15+004999999V0200701N005110243819N009999199+00701+00201999999ADDGA1021+010671081GA2071+024381991GE19MSL   +99999+99999GF199999021990010671991991MA1101601999990MW1161REMMET072METAR EDDG 270820Z 07010KT 9999 VCSH FEW035TCU BKN080 07/02 Q1016 NOSIG=
0185103150999992014032708504+52135+007685FM-15+004999999V0200601N005710243819N009999199+00701+00301999999ADDGA1021+009141081GA2071+024381991GE19MSL   +99999+99999GF199999021990009141991991MA1101501999990MW1161REMMET072METAR EDDG 270850Z 06011KT 9999 VCSH FEW030TCU BKN080 07/03 Q1015 NOSIG=
0185103150999992014032709204+52135+007685FM-15+004999999V0200701N005110243819N009999199+00701+00301999999ADDGA1021+009141081GA2071+024381991GE19MSL   +99999+99999GF199999021990009141991991MA1101501999990MW1161REMMET072METAR EDDG 270920Z 07010KT 9999 VCSH FEW030TCU BKN080 07/03 Q1015 NOSIG=
0171103150999992014032709504+52135+007685FM-15+004999999V0200701N006210304819N009999199+00801+00301999999ADDGA1021+012191991GA2071+030481991GE19MSL   +99999+99999GF199999021990012191991991MA1101501999990REMMET064METAR EDDG 270950Z 07012KT 9999 FEW040 BKN100 08/03 Q1015 NOSIG=
0078103150999992014032710204+52135+007685FM-15+004999999V0200701N007219999999Y999999999+01001+00201999999ADDMA1101501999990REMMET051METAR EDDG 271020Z 07014KT CAVOK 10/02 Q1015 NOSIG=
0171103150999992014032710504+52135+007685FM-15+004999999V0200801N00821030481CN009999199+01101+00201999999ADDGA1021+010971991GA2041+030481991GE19MSL   +99999+99999GF199999021990010971991991MA1101501999990REMMET064METAR EDDG 271050Z 08016KT 9999 FEW036 SCT100 11/02 Q1015 NOSIG=
0078103150999992014032711204+52135+007685FM-15+004999999V0200801N008819999999Y999999999+01101+00201999999ADDMA1101401999990REMMET051METAR EDDG 271120Z 08017KT CAVOK 11/02 Q1014 NOSIG=
0148103150999992014032711504+52135+007685FM-15+004999999V0200701N009319999999N009999199+01201+00201999999ADDGA1021+012191991GE19MSL   +99999+99999GF199999021990012191991991MA1101401999990REMMET057METAR EDDG 271150Z 07018KT 9999 FEW040 12/02 Q1014 NOSIG=
0148103150999992014032712204+52135+007685FM-15+004999999V0200801N008219999999N009999199+01301+00201999999ADDGA1021+012191991GE19MSL   +99999+99999GF199999021990012191991991MA1101401999990REMMET057METAR EDDG 271220Z 08016KT 9999 FEW040 13/02 Q1014 NOSIG=
0159103150999992014032712504+52135+007685FM-15+004999999V0200901N006719999999N009999199+01301+00201999999ADDGA1021+013411991GE19MSL   +99999+99999GF199999021990013411991991MA1101401999990OC101181REMMET060METAR EDDG 271250Z 09013G23KT 9999 FEW044 13/02 Q1014 NOSIG=
0148103150999992014032713204+52135+007685FM-15+004999999V0200901N007219999999N009999199+01301+00101999999ADDGA1021+013411991GE19MSL   +99999+99999GF199999021990013411991991MA1101301999990REMMET057METAR EDDG 271320Z 09014KT 9999 FEW044 13/01 Q1013 NOSIG=
0148103150999992014032713504+52135+007685FM-15+004999999V0200801N008219999999N009999199+01301+00101999999ADDGA1021+014631991GE19MSL   +99999+99999GF199999021990014631991991MA1101301999990REMMET057METAR EDDG 271350Z 08016KT 9999 FEW048 13/01 Q1013 NOSIG=
0148103150999992014032714204+52135+007685FM-15+004999999V0200801N007719999999N009999199+01301+00101999999ADDGA1021+014021991GE19MSL   +99999+99999GF199999021990014021991991MA1101301999990REMMET057METAR EDDG 271420Z 08015KT 9999 FEW046 13/01 Q1013 NOSIG=
0078103150999992014032714504+52135+007685FM-15+004999999V0200701N008819999999Y999999999+01201+00101999999ADDMA1101301999990REMMET051METAR EDDG 271450Z 07017KT CAVOK 12/01 Q1013 NOSIG=
0078103150999992014032715204+52135+007685FM-15+004999999V0200801N006719999999Y999999999+01301+00101999999ADDMA1101301999990REMMET051METAR EDDG 271520Z 08013KT CAVOK 13/01 Q1013 NOSIG=
0078103150999992014032715504+52135+007685FM-15+004999999V0200801N006719999999Y999999999+01301+00101999999ADDMA1101301999990REMMET051METAR EDDG 271550Z 08013KT CAVOK 13/01 Q1013 NOSIG=
0078103150999992014032716204+52135+007685FM-15+004999999V0200801N005719999999Y999999999+01301+00101999999ADDMA1101301999990REMMET051METAR EDDG 271620Z 08011KT CAVOK 13/01 Q1013 NOSIG=
0078103150999992014032716504+52135+007685FM-15+004999999V0200801N007219999999Y999999999+01201+00101999999ADDMA1101301999990REMMET051METAR EDDG 271650Z 08014KT CAVOK 12/01 Q1013 NOSIG=
0078103150999992014032717204+52135+007685FM-15+004999999V0200801N006719999999Y999999999+01201+00101999999ADDMA1101301999990REMMET051METAR EDDG 271720Z 08013KT CAVOK 12/01 Q1013 NOSIG=
0078103150999992014032717504+52135+007685FM-15+004999999V0200801N004619999999Y999999999+01101+00101999999ADDMA1101401999990REMMET051METAR EDDG 271750Z 08009KT CAVOK 11/01 Q1014 NOSIG=
0078103150999992014032718204+52135+007685FM-15+004999999V0200801N005119999999Y999999999+01101+00201999999ADDMA1101401999990REMMET051METAR EDDG 271820Z 08010KT CAVOK 11/02 Q1014 NOSIG=
0078103150999992014032718504+52135+007685FM-15+004999999V0200801N004619999999Y999999999+01001+00101999999ADDMA1101401999990REMMET051METAR EDDG 271850Z 08009KT CAVOK 10/01 Q1014 NOSIG=
0078103150999992014032719204+52135+007685FM-15+004999999V0200801N004619999999Y999999999+01001+00101999999ADDMA1101401999990REMMET051METAR EDDG 271920Z 08009KT CAVOK 10/01 Q1014 NOSIG=
0078103150999992014032719504+52135+007685FM-15+004999999V0200801N005119999999Y999999999+01001+00101999999ADDMA1101501999990REMMET051METAR EDDG 271950Z 08010KT CAVOK 10/01 Q1015 NOSIG=
0078103150999992014032720204+52135+007685FM-15+004999999V0200801N005719999999Y999999999+01001+00101999999ADDMA1101501999990REMMET051METAR EDDG 272020Z 08011KT CAVOK 10/01 Q1015 NOSIG=
0078103150999992014032720504+52135+007685FM-15+004999999V0200801N005719999999Y999999999+01001+00101999999ADDMA1101501999990REMMET051METAR EDDG 272050Z 08011KT CAVOK 10/01 Q1015 NOSIG=
0078103150999992014032721204+52135+007685FM-15+004999999V0200801N005719999999Y999999999+00901+00101999999ADDMA1101501999990REMMET051METAR EDDG 272120Z 08011KT CAVOK 09/01 Q1015 NOSIG=
0078103150999992014032721504+52135+007685FM-15+004999999V0200901N005119999999Y999999999+00901+00101999999ADDMA1101601999990REMMET051METAR EDDG 272150Z 09010KT CAVOK 09/01 Q1016 NOSIG=
0078103150999992014032722204+52135+007685FM-15+004999999V0200901N005119999999Y999999999+00901+00101999999ADDMA1101601999990REMMET051METAR EDDG 272220Z 09010KT CAVOK 09/01 Q1016 NOSIG=
0078103150999992014032722504+52135+007685FM-15+004999999V0200801N005119999999Y999999999+00801+00101999999ADDMA1101601999990REMMET051METAR EDDG 272250Z 08010KT CAVOK 08/01 Q1016 NOSIG=
0078103150999992014032723204+52135+007685FM-15+004999999V0200801N004619999999Y999999999+00801+00101999999ADDMA1101601999990REMMET051METAR EDDG 272320Z 08009KT CAVOK 08/01 Q1016 NOSIG=
0078103150999992014032723504+52135+007685FM-15+004999999V0200901N004119999999Y999999999+00801+00101999999ADDMA1101601999990REMMET051METAR EDDG 272350Z 09008KT CAVOK 08/01 Q1016 NOSIG=
0078103150999992014032800204+52135+007685FM-15+004999999V0200701N003619999999Y999999999+00701+00101999999ADDMA1101601999990REMMET051METAR EDDG 280020Z 07007KT CAVOK 07/01 Q1016 NOSIG=
0078103150999992014032800504+52135+007685FM-15+004999999V0200901N003619999999Y999999999+00701+00101999999ADDMA1101601999990REMMET051METAR EDDG 280050Z 09007KT CAVOK 07/01 Q1016 NOSIG=
0078103150999992014032801204+52135+007685FM-15+004999999V0200801N003619999999Y999999999+00601+00101999999ADDMA1101601999990REMMET051METAR EDDG 280120Z 08007KT CAVOK 06/01 Q1016 NOSIG=
0078103150999992014032801504+52135+007685FM-15+004999999V0200701N003619999999Y999999999+00501+00101999999ADDMA1101601999990REMMET051METAR EDDG 280150Z 07007KT CAVOK 05/01 Q1016 NOSIG=
0078103150999992014032802204+52135+007685FM-15+004999999V0200701N003619999999Y999999999+00501+00101999999ADDMA1101601999990REMMET051METAR EDDG 280220Z 07007KT CAVOK 05/01 Q1016 NOSIG=
0078103150999992014032802504+52135+007685FM-15+004999999V0200601N003619999999Y999999999+00501+00101999999ADDMA1101601999990REMMET051METAR EDDG 280250Z 06007KT CAVOK 05/01 Q1016 NOSIG=
0078103150999992014032803204+52135+007685FM-15+004999999V0200701N003119999999Y999999999+00501+00101999999ADDMA1101601999990REMMET051METAR EDDG 280320Z 07006KT CAVOK 05/01 Q1016 NOSIG=
0078103150999992014032803504+52135+007685FM-15+004999999V0200601N003619999999Y999999999+00401+00101999999ADDMA1101701999990REMMET051METAR EDDG 280350Z 06007KT CAVOK 04/01 Q1017 NOSIG=
0078103150999992014032804204+52135+007685FM-15+004999999V0200601N003119999999Y999999999+00401+00101999999ADDMA1101701999990REMMET051METAR EDDG 280420Z 06006KT CAVOK 04/01 Q1017 NOSIG=
0078103150999992014032804504+52135+007685FM-15+004999999V0200601N003619999999Y999999999+00401+00101999999ADDMA1101701999990REMMET051METAR EDDG 280450Z 06007KT CAVOK 04/01 Q1017 NOSIG=
0078103150999992014032805204+52135+007685FM-15+004999999V0200701N003119999999Y999999999+00401+00201999999ADDMA1101701999990REMMET051METAR EDDG 280520Z 07006KT CAVOK 04/02 Q1017 NOSIG=
0078103150999992014032805504+52135+007685FM-15+004999999V0200701N004119999999Y999999999+00401+00201999999ADDMA1101701999990REMMET051METAR EDDG 280550Z 07008KT CAVOK 04/02 Q1017 NOSIG=
0078103150999992014032806204+52135+007685FM-15+004999999V0200601N003119999999Y999999999+00501+00201999999ADDMA1101801999990REMMET051METAR EDDG 280620Z 06006KT CAVOK 05/02 Q1018 NOSIG=
0078103150999992014032806504+52135+007685FM-15+004999999V0200601N003619999999Y999999999+00501+00201999999ADDMA1101801999990REMMET051METAR EDDG 280650Z 06007KT CAVOK 05/02 Q1018 NOSIG=
0078103150999992014032807204+52135+007685FM-15+004999999V0200601N003619999999Y999999999+00701+00301999999ADDMA1101801999990REMMET051METAR EDDG 280720Z 06007KT CAVOK 07/03 Q1018 NOSIG=
0078103150999992014032807504+52135+007685FM-15+004999999V0200901N005119999999Y999999999+00801+00301999999ADDMA1101801999990REMMET051METAR EDDG 280750Z 09010KT CAVOK 08/03 Q1018 NOSIG=
0078103150999992014032808204+52135+007685FM-15+004999999V0200801N005119999999Y999999999+00901+00301999999ADDMA1101901999990REMMET051METAR EDDG 280820Z 08010KT CAVOK 09/03 Q1019 NOSIG=
0078103150999992014032808504+52135+007685FM-15+004999999V0200801N005719999999Y999999999+01001+00301999999ADDMA1101901999990REMMET051METAR EDDG 280850Z 08011KT CAVOK 10/03 Q1019 NOSIG=
0078103150999992014032809204+52135+007685FM-15+004999999V0200801N005719999999Y999999999+01101+00401999999ADDMA1101901999990REMMET051METAR EDDG 280920Z 08011KT CAVOK 11/04 Q1019 NOSIG=
0078103150999992014032809504+52135+007685FM-15+004999999V0200801N005119999999Y999999999+01201+00301999999ADDMA1101901999990REMMET051METAR EDDG 280950Z 08010KT CAVOK 12/03 Q1019 NOSIG=
0078103150999992014032810204+52135+007685FM-15+004999999V0200801N005719999999Y999999999+01301+00401999999ADDMA1101901999990REMMET051METAR EDDG 281020Z 08011KT CAVOK 13/04 Q1019 NOSIG=
0078103150999992014032810504+52135+007685FM-15+004999999V0200801N006219999999Y999999999+01301+00301999999ADDMA1101901999990REMMET051METAR EDDG 281050Z 08012KT CAVOK 13/03 Q1019 NOSIG=
0078103150999992014032811204+52135+007685FM-15+004999999V0200901N005719999999Y999999999+01401+00401999999ADDMA1101901999990REMMET051METAR EDDG 281120Z 09011KT CAVOK 14/04 Q1019 NOSIG=
0078103150999992014032811504+52135+007685FM-15+004999999V0200901N005119999999Y999999999+01401+00201999999ADDMA1101901999990REMMET051METAR EDDG 281150Z 09010KT CAVOK 14/02 Q1019 NOSIG=
0078103150999992014032812204+52135+007685FM-15+004999999V0201101N005119999999Y999999999+01501+00201999999ADDMA1101901999990REMMET051METAR EDDG 281220Z 11010KT CAVOK 15/02 Q1019 NOSIG=
0078103150999992014032812504+52135+007685FM-15+004999999V0201001N004619999999Y999999999+01501+00201999999ADDMA1101901999990REMMET051METAR EDDG 281250Z 10009KT CAVOK 15/02 Q1019 NOSIG=
0078103150999992014032813204+52135+007685FM-15+004999999V0200901N004119999999Y999999999+01501+00301999999ADDMA1101801999990REMMET051METAR EDDG 281320Z 09008KT CAVOK 15/03 Q1018 NOSIG=
0078103150999992014032813504+52135+007685FM-15+004999999V0200801N005719999999Y999999999+01501+00401999999ADDMA1101801999990REMMET051METAR EDDG 281350Z 08011KT CAVOK 15/04 Q1018 NOSIG=
0078103150999992014032814204+52135+007685FM-15+004999999V0200801N006719999999Y999999999+01501+00501999999ADDMA1101801999990REMMET051METAR EDDG 281420Z 08013KT CAVOK 15/05 Q1018 NOSIG=
0078103150999992014032814504+52135+007685FM-15+004999999V0200801N005719999999Y999999999+01401+00501999999ADDMA1101801999990REMMET051METAR EDDG 281450Z 08011KT CAVOK 14/05 Q1018 NOSIG=
0078103150999992014032815204+52135+007685FM-15+004999999V0200501N006719999999Y999999999+01201+00501999999ADDMA1101801999990REMMET051METAR EDDG 281520Z 05013KT CAVOK 12/05 Q1018 NOSIG=
0111103150999992014032815504+52135+007685FM-15+004999999V0200701N006212200019N007000199+01201+00501999999ADDGF100991999999999999999999MA1101801999990REMMET058METAR COR EDDG 281550Z 07012KT 7000 NSC 12/05 Q1018 NOSIG=
0111103150999992014032816204+52135+007685FM-15+004999999V0200801N004612200019N007000199+01101+00601999999ADDGF100991999999999999999999MA1101801999990REMMET058METAR COR EDDG 281620Z 08009KT 7000 NSC 11/06 Q1018 NOSIG=
0111103150999992014032816504+52135+007685FM-15+004999999V0200601N005712200019N007000199+01101+00501999999ADDGF100991999999999999999999MA1101901999990REMMET058METAR COR EDDG 281650Z 06011KT 7000 NSC 11/05 Q1019 NOSIG=
0111103150999992014032817204+52135+007685FM-15+004999999V0200901N004612200019N006000199+01001+00501999999ADDGF100991999999999999999999MA1101901999990REMMET058METAR COR EDDG 281720Z 09009KT 6000 NSC 10/05 Q1019 NOSIG=
0107103150999992014032817504+52135+007685FM-15+004999999V0200801N004112200019N008000199+00901+00501999999ADDGF100991999999999999999999MA1101901999990REMMET054METAR EDDG 281750Z 08008KT 8000 NSC 09/05 Q1019 NOSIG=
0107103150999992014032818204+52135+007685FM-15+004999999V0200701N004112200019N008000199+00901+00501999999ADDGF100991999999999999999999MA1101901999990REMMET054METAR EDDG 281820Z 07008KT 8000 NSC 09/05 Q1019 NOSIG=
0078103150999992014032818504+52135+007685FM-15+004999999V0200901N003119999999Y999999999+00901+00501999999ADDMA1102001999990REMMET051METAR EDDG 281850Z 09006KT CAVOK 09/05 Q1020 NOSIG=
0078103150999992014032819204+52135+007685FM-15+004999999V0200901N004119999999Y999999999+00901+00501999999ADDMA1102001999990REMMET051METAR EDDG 281920Z 09008KT CAVOK 09/05 Q1020 NOSIG=
0078103150999992014032819504+52135+007685FM-15+004999999V0200901N004119999999Y999999999+00801+00501999999ADDMA1102001999990REMMET051METAR EDDG 281950Z 09008KT CAVOK 08/05 Q1020 NOSIG=
0078103150999992014032820204+52135+007685FM-15+004999999V0200901N004619999999Y999999999+00801+00401999999ADDMA1102001999990REMMET051METAR EDDG 282020Z 09009KT CAVOK 08/04 Q1020 NOSIG=
0078103150999992014032820504+52135+007685FM-15+004999999V0200901N004619999999Y999999999+00801+00401999999ADDMA1102001999990REMMET051METAR EDDG 282050Z 09009KT CAVOK 08/04 Q1020 NOSIG=
0078103150999992014032821204+52135+007685FM-15+004999999V0200901N004119999999Y999999999+00801+00401999999ADDMA1102001999990REMMET051METAR EDDG 282120Z 09008KT CAVOK 08/04 Q1020 NOSIG=
0078103150999992014032821504+52135+007685FM-15+004999999V0201001N003119999999Y999999999+00801+00401999999ADDMA1102001999990REMMET051METAR EDDG 282150Z 10006KT CAVOK 08/04 Q1020 NOSIG=
0086103150999992014032822204+52135+007685FM-15+004999999V0200901V002119999999Y999999999+00801+00401999999ADDMA1102001999990REMMET059METAR EDDG 282220Z 09004KT 360V100 CAVOK 08/04 Q1020 NOSIG=
0078103150999992014032822504+52135+007685FM-15+004999999V0200901N002619999999Y999999999+00701+00401999999ADDMA1102001999990REMMET051METAR EDDG 282250Z 09005KT CAVOK 07/04 Q1020 NOSIG=
0078103150999992014032823204+52135+007685FM-15+004999999V0200901N003119999999Y999999999+00701+00401999999ADDMA1102001999990REMMET051METAR EDDG 282320Z 09006KT CAVOK 07/04 Q1020 NOSIG=
0078103150999992014032823504+52135+007685FM-15+004999999V0201001N003119999999Y999999999+00701+00401999999ADDMA1102001999990REMMET051METAR EDDG 282350Z 10006KT CAVOK 07/04 Q1020 NOSIG=
0078103150999992014032900204+52135+007685FM-15+004999999V0201001N002619999999Y999999999+00701+00401999999ADDMA1102001999990REMMET051METAR EDDG 290020Z 10005KT CAVOK 07/04 Q1020 NOSIG=
0078103150999992014032900504+52135+007685FM-15+004999999V0201001N002619999999Y999999999+00701+00401999999ADDMA1102001999990REMMET051METAR EDDG 290050Z 10005KT CAVOK 07/04 Q1020 NOSIG=
0078103150999992014032901204+52135+007685FM-15+004999999V0201001N003119999999Y999999999+00601+00401999999ADDMA1102001999990REMMET051METAR EDDG 290120Z 10006KT CAVOK 06/04 Q1020 NOSIG=
0078103150999992014032901504+52135+007685FM-15+004999999V0200901N002619999999Y999999999+00601+00401999999ADDMA1102001999990REMMET051METAR EDDG 290150Z 09005KT CAVOK 06/04 Q1020 NOSIG=
0078103150999992014032902204+52135+007685FM-15+004999999V0201001N002619999999Y999999999+00601+00401999999ADDMA1102001999990REMMET051METAR EDDG 290220Z 10005KT CAVOK 06/04 Q1020 NOSIG=
0078103150999992014032902504+52135+007685FM-15+004999999V0201001N002619999999Y999999999+00601+00401999999ADDMA1102001999990REMMET051METAR EDDG 290250Z 10005KT CAVOK 06/04 Q1020 NOSIG=
0078103150999992014032903204+52135+007685FM-15+004999999V0201001N003119999999Y999999999+00601+00401999999ADDMA1102001999990REMMET051METAR EDDG 290320Z 10006KT CAVOK 06/04 Q1020 NOSIG=
0078103150999992014032903504+52135+007685FM-15+004999999V0200901N002619999999Y999999999+00601+00401999999ADDMA1102001999990REMMET051METAR EDDG 290350Z 09005KT CAVOK 06/04 Q1020 NOSIG=
0078103150999992014032904204+52135+007685FM-15+004999999V0201001N002619999999Y999999999+00501+00301999999ADDMA1102001999990REMMET051METAR EDDG 290420Z 10005KT CAVOK 05/03 Q1020 NOSIG=
0107103150999992014032904504+52135+007685FM-15+004999999V0201001N002612200019N009000199+00501+00301999999ADDGF100991999999999999999999MA1102001999990REMMET054METAR EDDG 290450Z 10005KT 9000 NSC 05/03 Q1020 NOSIG=
0107103150999992014032905204+52135+007685FM-15+004999999V0201001N002612200019N008000199+00501+00301999999ADDGF100991999999999999999999MA1102101999990REMMET054METAR EDDG 290520Z 10005KT 8000 NSC 05/03 Q1021 NOSIG=
0107103150999992014032905504+52135+007685FM-15+004999999V0201001N002612200019N009000199+00601+00301999999ADDGF100991999999999999999999MA1102101999990REMMET054METAR EDDG 290550Z 10005KT 9000 NSC 06/03 Q1021 NOSIG=
0107103150999992014032906204+52135+007685FM-15+004999999V0201001N003112200019N009000199+00701+00301999999ADDGF100991999999999999999999MA1102101999990REMMET054METAR EDDG 290620Z 10006KT 9000 NSC 07/03 Q1021 NOSIG=
0107103150999992014032906504+52135+007685FM-15+004999999V0201001N003612200019N009000199+00801+00401999999ADDGF100991999999999999999999MA1102101999990REMMET054METAR EDDG 290650Z 10007KT 9000 NSC 08/04 Q1021 NOSIG=
0107103150999992014032907204+52135+007685FM-15+004999999V0201001N003612200019N009000199+00801+00401999999ADDGF100991999999999999999999MA1102101999990REMMET054METAR EDDG 290720Z 10007KT 9000 NSC 08/04 Q1021 NOSIG=
0078103150999992014032907504+52135+007685FM-15+004999999V0201001N004119999999Y999999999+00901+00401999999ADDMA1102201999990REMMET051METAR EDDG 290750Z 10008KT CAVOK 09/04 Q1022 NOSIG=
0078103150999992014032908204+52135+007685FM-15+004999999V0201001N003619999999Y999999999+01101+00501999999ADDMA1102201999990REMMET051METAR EDDG 290820Z 10007KT CAVOK 11/05 Q1022 NOSIG=
0078103150999992014032908504+52135+007685FM-15+004999999V0201001N002619999999Y999999999+01101+00501999999ADDMA1102201999990REMMET051METAR EDDG 290850Z 10005KT CAVOK 11/05 Q1022 NOSIG=
0078103150999992014032909204+52135+007685FM-15+004999999V0201001N003119999999Y999999999+01301+00601999999ADDMA1102201999990REMMET051METAR EDDG 290920Z 10006KT CAVOK 13/06 Q1022 NOSIG=
0078103150999992014032909504+52135+007685FM-15+004999999V0201101N002619999999Y999999999+01401+00501999999ADDMA1102201999990REMMET051METAR EDDG 290950Z 11005KT CAVOK 14/05 Q1022 NOSIG=
0078103150999992014032910204+52135+007685FM-15+004999999V0201001N002619999999Y999999999+01501+00501999999ADDMA1102101999990REMMET051METAR EDDG 291020Z 10005KT CAVOK 15/05 Q1021 NOSIG=
0078103150999992014032910504+52135+007685FM-15+004999999V0201001N003119999999Y999999999+01601+00501999999ADDMA1102101999990REMMET051METAR EDDG 291050Z 10006KT CAVOK 16/05 Q1021 NOSIG=
0078103150999992014032911204+52135+007685FM-15+004999999V0201101N002619999999Y999999999+01701+00401999999ADDMA1102101999990REMMET051METAR EDDG 291120Z 11005KT CAVOK 17/04 Q1021 NOSIG=
0078103150999992014032911504+52135+007685FM-15+004999999V0201101N003119999999Y999999999+01801+00101999999ADDMA1102101999990REMMET051METAR EDDG 291150Z 11006KT CAVOK 18/01 Q1021 NOSIG=
0086103150999992014032912204+52135+007685FM-15+004999999V0201301V002619999999Y999999999+01801+00201999999ADDMA1102101999990REMMET059METAR EDDG 291220Z 13005KT 090V160 CAVOK 18/02 Q1021 NOSIG=
0078103150999992014032912504+52135+007685FM-15+004999999V0201401N002619999999Y999999999+01801+00101999999ADDMA1102001999990REMMET051METAR EDDG 291250Z 14005KT CAVOK 18/01 Q1020 NOSIG=
0078103150999992014032913204+52135+007685FM-15+004999999V0201101N003119999999Y999999999+01901+00201999999ADDMA1102001999990REMMET051METAR EDDG 291320Z 11006KT CAVOK 19/02 Q1020 NOSIG=
0086103150999992014032913504+52135+007685FM-15+004999999V0201201V003119999999Y999999999+01901+00201999999ADDMA1102001999990REMMET059METAR EDDG 291350Z 12006KT 090V150 CAVOK 19/02 Q1020 NOSIG=
0078103150999992014032914204+52135+007685FM-15+004999999V0201001N003619999999Y999999999+01901+00201999999ADDMA1101901999990REMMET051METAR EDDG 291420Z 10007KT CAVOK 19/02 Q1019 NOSIG=
0078103150999992014032914504+52135+007685FM-15+004999999V0200901N004619999999Y999999999+01901+00401999999ADDMA1101901999990REMMET051METAR EDDG 291450Z 09009KT CAVOK 19/04 Q1019 NOSIG=
0078103150999992014032915204+52135+007685FM-15+004999999V0201101N003119999999Y999999999+01901+00201999999ADDMA1101901999990REMMET051METAR EDDG 291520Z 11006KT CAVOK 19/02 Q1019 NOSIG=
0078103150999992014032915504+52135+007685FM-15+004999999V0201001N004119999999Y999999999+01901+00201999999ADDMA1101901999990REMMET051METAR EDDG 291550Z 10008KT CAVOK 19/02 Q1019 NOSIG=
0078103150999992014032916204+52135+007685FM-15+004999999V0201001N003619999999Y999999999+01801+00201999999ADDMA1101801999990REMMET051METAR EDDG 291620Z 10007KT CAVOK 18/02 Q1018 NOSIG=
0078103150999992014032916504+52135+007685FM-15+004999999V0201001N004119999999Y999999999+01801+00201999999ADDMA1101901999990REMMET051METAR EDDG 291650Z 10008KT CAVOK 18/02 Q1019 NOSIG=
0078103150999992014032917204+52135+007685FM-15+004999999V0200901N002619999999Y999999999+01701+00301999999ADDMA1101801999990REMMET051METAR EDDG 291720Z 09005KT CAVOK 17/03 Q1018 NOSIG=
0078103150999992014032917504+52135+007685FM-15+004999999V0200901N002619999999Y999999999+01601+00301999999ADDMA1101801999990REMMET051METAR EDDG 291750Z 09005KT CAVOK 16/03 Q1018 NOSIG=
0078103150999992014032918204+52135+007685FM-15+004999999V0200801N002619999999Y999999999+01601+00301999999ADDMA1101901999990REMMET051METAR EDDG 291820Z 08005KT CAVOK 16/03 Q1019 NOSIG=
0078103150999992014032918504+52135+007685FM-15+004999999V0200701N002619999999Y999999999+01501+00301999999ADDMA1101901999990REMMET051METAR EDDG 291850Z 07005KT CAVOK 15/03 Q1019 NOSIG=
0078103150999992014032919204+52135+007685FM-15+004999999V0200701N002619999999Y999999999+01301+00301999999ADDMA1101901999990REMMET051METAR EDDG 291920Z 07005KT CAVOK 13/03 Q1019 NOSIG=
0078103150999992014032919504+52135+007685FM-15+004999999V0200601N003119999999Y999999999+01301+00301999999ADDMA1101901999990REMMET051METAR EDDG 291950Z 06006KT CAVOK 13/03 Q1019 NOSIG=
0078103150999992014032920204+52135+007685FM-15+004999999V0200701N002619999999Y999999999+01201+00301999999ADDMA1101901999990REMMET051METAR EDDG 292020Z 07005KT CAVOK 12/03 Q1019 NOSIG=
0078103150999992014032920504+52135+007685FM-15+004999999V0200901N002119999999Y999999999+01201+00301999999ADDMA1101901999990REMMET051METAR EDDG 292050Z 09004KT CAVOK 12/03 Q1019 NOSIG=
0078103150999992014032921204+52135+007685FM-15+004999999V0201001N002619999999Y999999999+01301+00401999999ADDMA1101901999990REMMET051METAR EDDG 292120Z 10005KT CAVOK 13/04 Q1019 NOSIG=
0078103150999992014032921504+52135+007685FM-15+004999999V0201001N002119999999Y999999999+01201+00401999999ADDMA1101901999990REMMET051METAR EDDG 292150Z 10004KT CAVOK 12/04 Q1019 NOSIG=
0078103150999992014032922204+52135+007685FM-15+004999999V0201001N002119999999Y999999999+01201+00401999999ADDMA1101901999990REMMET051METAR EDDG 292220Z 10004KT CAVOK 12/04 Q1019 NOSIG=
0078103150999992014032922504+52135+007685FM-15+004999999V0200901N002119999999Y999999999+01101+00401999999ADDMA1101901999990REMMET051METAR EDDG 292250Z 09004KT CAVOK 11/04 Q1019 NOSIG=
0078103150999992014032923204+52135+007685FM-15+004999999V0200901N001519999999Y999999999+01101+00401999999ADDMA1101901999990REMMET051METAR EDDG 292320Z 09003KT CAVOK 11/04 Q1019 NOSIG=
0078103150999992014032923504+52135+007685FM-15+004999999V0200701N002119999999Y999999999+01001+00301999999ADDMA1101801999990REMMET051METAR EDDG 292350Z 07004KT CAVOK 10/03 Q1018 NOSIG=
0078103150999992014033000204+52135+007685FM-15+004999999V0200701N002119999999Y999999999+00901+00301999999ADDMA1101801999990REMMET051METAR EDDG 300020Z 07004KT CAVOK 09/03 Q1018 NOSIG=
0078103150999992014033000504+52135+007685FM-15+004999999V0200801N001019999999Y999999999+00701+00301999999ADDMA1101801999990REMMET051METAR EDDG 300050Z 08002KT CAVOK 07/03 Q1018 NOSIG=
0078103150999992014033001204+52135+007685FM-15+004999999V0200901N002119999999Y999999999+00701+00401999999ADDMA1101801999990REMMET051METAR EDDG 300120Z 09004KT CAVOK 07/04 Q1018 NOSIG=
0078103150999992014033001504+52135+007685FM-15+004999999V0200801N002119999999Y999999999+00601+00301999999ADDMA1101801999990REMMET051METAR EDDG 300150Z 08004KT CAVOK 06/03 Q1018 NOSIG=
0078103150999992014033002204+52135+007685FM-15+004999999V0200901N001019999999Y999999999+00601+00301999999ADDMA1101801999990REMMET051METAR EDDG 300220Z 09002KT CAVOK 06/03 Q1018 NOSIG=
0078103150999992014033002504+52135+007685FM-15+004999999V0201001N001019999999Y999999999+00501+00301999999ADDMA1101801999990REMMET051METAR EDDG 300250Z 10002KT CAVOK 05/03 Q1018 NOSIG=
0078103150999992014033003204+52135+007685FM-15+004999999V0200901N001019999999Y999999999+00501+00301999999ADDMA1101801999990REMMET051METAR EDDG 300320Z 09002KT CAVOK 05/03 Q1018 NOSIG=
0078103150999992014033003504+52135+007685FM-15+004999999V0200701N001519999999Y999999999+00401+00301999999ADDMA1101701999990REMMET051METAR EDDG 300350Z 07003KT CAVOK 04/03 Q1017 NOSIG=
0078103150999992014033004204+52135+007685FM-15+004999999V0200801N001519999999Y999999999+00301+00301999999ADDMA1101701999990REMMET051METAR EDDG 300420Z 08003KT CAVOK 03/03 Q1017 NOSIG=
0118103150999992014033004504+52135+007685FM-15+004999999V0200801N000512200019N008000199+00401+00301999999ADDGF100991999999999999999999MA1101701999990MW1121REMMET059METAR EDDG 300450Z 08001KT 8000 MIFG NSC 04/03 Q1017 NOSIG=
0118103150999992014033005204+52135+007685FM-15+004999999V0200601N001012200019N006000199+00401+00301999999ADDGF100991999999999999999999MA1101701999990MW1121REMMET059METAR EDDG 300520Z 06002KT 6000 MIFG NSC 04/03 Q1017 NOSIG=
0118103150999992014033005504+52135+007685FM-15+004999999V0200901N000512200019N007000199+00401+00301999999ADDGF100991999999999999999999MA1101701999990MW1121REMMET059METAR EDDG 300550Z 09001KT 7000 MIFG NSC 04/03 Q1017 NOSIG=
0118103150999992014033006204+52135+007685FM-15+004999999V0200801N001512200019N007000199+00501+00401999999ADDGF100991999999999999999999MA1101701999990MW1121REMMET059METAR EDDG 300620Z 08003KT 7000 MIFG NSC 05/04 Q1017 NOSIG=
0118103150999992014033006504+52135+007685FM-15+004999999V0201001N002112200019N007000199+00901+00601999999ADDGF100991999999999999999999MA1101701999990MW1121REMMET059METAR EDDG 300650Z 10004KT 7000 MIFG NSC 09/06 Q1017 NOSIG=
0107103150999992014033007204+52135+007685FM-15+004999999V0201001N001512200019N008000199+01101+00601999999ADDGF100991999999999999999999MA1101701999990REMMET054METAR EDDG 300720Z 10003KT 8000 NSC 11/06 Q1017 NOSIG=
0107103150999992014033007504+52135+007685FM-15+004999999V0201001N001512200019N009000199+01201+00701999999ADDGF100991999999999999999999MA1101701999990REMMET054METAR EDDG 300750Z 10003KT 9000 NSC 12/07 Q1017 NOSIG=
0107103150999992014033008204+52135+007685FM-15+004999999V0201001N001012200019N009000199+01301+00701999999ADDGF100991999999999999999999MA1101701999990REMMET054METAR EDDG 300820Z 10002KT 9000 NSC 13/07 Q1017 NOSIG=
0107103150999992014033008504+52135+007685FM-15+004999999V0209999V001012200019N009000199+01401+00701999999ADDGF100991999999999999999999MA1101701999990REMMET054METAR EDDG 300850Z VRB02KT 9000 NSC 14/07 Q1017 NOSIG=
0078103150999992014033009204+52135+007685FM-15+004999999V0209999V001019999999Y999999999+01601+00701999999ADDMA1101701999990REMMET051METAR EDDG 300920Z VRB02KT CAVOK 16/07 Q1017 NOSIG=
0078103150999992014033009504+52135+007685FM-15+004999999V0209999V001019999999Y999999999+01701+00701999999ADDMA1101701999990REMMET051METAR EDDG 300950Z VRB02KT CAVOK 17/07 Q1017 NOSIG=
0078103150999992014033010204+52135+007685FM-15+004999999V0201001N001019999999Y999999999+01701+00701999999ADDMA1101701999990REMMET051METAR EDDG 301020Z 10002KT CAVOK 17/07 Q1017 NOSIG=
0078103150999992014033010504+52135+007685FM-15+004999999V0209999V001019999999Y999999999+01801+00601999999ADDMA1101701999990REMMET051METAR EDDG 301050Z VRB02KT CAVOK 18/06 Q1017 NOSIG=
0078103150999992014033011204+52135+007685FM-15+004999999V0203601N001019999999Y999999999+01901+00501999999ADDMA1101601999990REMMET051METAR EDDG 301120Z 36002KT CAVOK 19/05 Q1016 NOSIG=
0078103150999992014033011504+52135+007685FM-15+004999999V0200101N001519999999Y999999999+01901+00401999999ADDMA1101601999990REMMET051METAR EDDG 301150Z 01003KT CAVOK 19/04 Q1016 NOSIG=
0078103150999992014033012204+52135+007685FM-15+004999999V0209999V001019999999Y999999999+01901+00401999999ADDMA1101601999990REMMET051METAR EDDG 301220Z VRB02KT CAVOK 19/04 Q1016 NOSIG=
0078103150999992014033012504+52135+007685FM-15+004999999V0200801N001519999999Y999999999+02001+00201999999ADDMA1101601999990REMMET051METAR EDDG 301250Z 08003KT CAVOK 20/02 Q1016 NOSIG=
0079103150999992014033013204+52135+007685FM-15+004999999V0200301N001519999999Y999999999+02001+00001999999ADDMA1101601999990REMMET052METAR EDDG 301320Z 03003KT CAVOK 20/M00 Q1016 NOSIG=
0078103150999992014033013504+52135+007685FM-15+004999999V0209999V001019999999Y999999999+02101+00101999999ADDMA1101501999990REMMET051METAR EDDG 301350Z VRB02KT CAVOK 21/01 Q1015 NOSIG=
0078103150999992014033014204+52135+007685FM-15+004999999V0202801N002119999999Y999999999+02001+00001999999ADDMA1101501999990REMMET051METAR EDDG 301420Z 28004KT CAVOK 20/00 Q1015 NOSIG=
0078103150999992014033014504+52135+007685FM-15+004999999V0202801N001519999999Y999999999+02001+00201999999ADDMA1101501999990REMMET051METAR EDDG 301450Z 28003KT CAVOK 20/02 Q1015 NOSIG=
0078103150999992014033015204+52135+007685FM-15+004999999V0202501N002119999999Y999999999+02001+00201999999ADDMA1101501999990REMMET051METAR EDDG 301520Z 25004KT CAVOK 20/02 Q1015 NOSIG=
0078103150999992014033015504+52135+007685FM-15+004999999V0209999V001519999999Y999999999+01901+00301999999ADDMA1101501999990REMMET051METAR EDDG 301550Z VRB03KT CAVOK 19/03 Q1015 NOSIG=
0078103150999992014033016204+52135+007685FM-15+004999999V0200201N002619999999Y999999999+01901+00301999999ADDMA1101501999990REMMET051METAR EDDG 301620Z 02005KT CAVOK 19/03 Q1015 NOSIG=
0078103150999992014033016504+52135+007685FM-15+004999999V0203501N001519999999Y999999999+01801+00301999999ADDMA1101501999990REMMET051METAR EDDG 301650Z 35003KT CAVOK 18/03 Q1015 NOSIG=
0078103150999992014033017204+52135+007685FM-15+004999999V0203601N001019999999Y999999999+01601+00501999999ADDMA1101501999990REMMET051METAR EDDG 301720Z 36002KT CAVOK 16/05 Q1015 NOSIG=
0078103150999992014033017504+52135+007685FM-15+004999999V0209999V000519999999Y999999999+01501+00401999999ADDMA1101501999990REMMET051METAR EDDG 301750Z VRB01KT CAVOK 15/04 Q1015 NOSIG=
0078103150999992014033018204+52135+007685FM-15+004999999V0209999V001019999999Y999999999+01401+00501999999ADDMA1101501999990REMMET051METAR EDDG 301820Z VRB02KT CAVOK 14/05 Q1015 NOSIG=
