0141104160999992013010104204+51517+007617FM-15+0148EDLW V0202001N007210096019N0112651N1+00701+00401999999ADDGA1081+009601999GF108991999999999999999999MA1100101999999MW1611REMMET066METAR EDLW 010420Z 20014KT 9999 -RA OVC032 07/04 Q1001 RMK ATIS A;
0141104160999992013010104504+51517+007617FM-15+0148EDLW V0202101N007710099019N0112651N1+00701+00401999999ADDGA1071+009901999GF107991999999999999999999MA1100101999999MW1611REMMET066METAR EDLW 010450Z 21015KT 9999 -RA BKN033 07/04 Q1001 RMK ATIS B;
0141104160999992013010105204+51517+007617FM-15+0148EDLW V0202101N008210084019N0112651N1+00701+00401999999ADDGA1071+008401999GF107991999999999999999999MA1100101999999MW1611REMMET066METAR EDLW 010520Z 21016KT 9999 -RA BKN028 07/04 Q1001 RMK ATIS C;
0141104160999992013010105504+51517+007617FM-15+0148EDLW V0202101N007210081019N0112651N1+00701+00401999999ADDGA1071+008101999GF107991999999999999999999MA1100101999999MW1611REMMET066METAR EDLW 010550Z 21014KT 9999 -RA BKN027 07/04 Q1001 RMK ATIS D;
0141104160999992013010106204+51517+007617FM-15+0148EDLW V0202001N006210084019N0112651N1+00701+00401999999ADDGA1071+008401999GF107991999999999999999999MA1100101999999MW1611REMMET066METAR EDLW 010620Z 20012KT 9999 -RA BKN028 07/04 Q1001 RMK ATIS E;
0141104160999992013010106504+51517+007617FM-15+0148EDLW V0202001N006710087019N0112651N1+00701+00401999999ADDGA1071+008701999GF107991999999999999999999MA1100101999999MW1611REMMET066METAR EDLW 010650Z 20013KT 9999 -RA BKN029 07/04 Q1001 RMK ATIS F;
0141104160999992013010107204+51517+007617FM-15+0148EDLW V0202001N006210093019N0112651N1+00701+00401999999ADDGA1071+009301999GF107991999999999999999999MA1100101999999MW1611REMMET066METAR EDLW 010720Z 20012KT 9999 -RA BKN031 07/04 Q1001 RMK ATIS G;
0141104160999992013010107504+51517+007617FM-15+0148EDLW V0202001N006710084019N0112651N1+00701+00401999999ADDGA1071+008401999GF107991999999999999999999MA1100101999999MW1611REMMET066METAR EDLW 010750Z 20013KT 9999 -RA BKN028 07/04 Q1001 RMK ATIS H;
0141104160999992013010108204+51517+007617FM-15+0148EDLW V0202001N006710072019N0112651N1+00701+00401999999ADDGA1081+007201999GF108991999999999999999999MA1100101999999MW1611REMMET066METAR EDLW 010820Z 20013KT 9999 -RA OVC024 07/04 Q1001 RMK ATIS I;
0141104160999992013010108504+51517+007617FM-15+0148EDLW V0202101N006710072019N0112651N1+00701+00401999999ADDGA1081+007201999GF108991999999999999999999MA1100101999999MW1611REMMET066METAR EDLW 010850Z 21013KT 9999 -RA OVC024 07/04 Q1001 RMK ATIS J;
0141104160999992013010109204+51517+007617FM-15+0148EDLW V0202101N006710066019N0112651N1+00701+00401999999ADDGA1071+006601999GF107991999999999999999999MA1100201999999MW1611REMMET066METAR EDLW 010920Z 21013KT 9999 -RA BKN022 07/04 Q1002 RMK ATIS K;
0141104160999992013010109504+51517+007617FM-15+0148EDLW V0202101N006210072019N0112651N1+00701+00401999999ADDGA1071+007201999GF107991999999999999999999MA1100201999999MW1611REMMET066METAR EDLW 010950Z 21012KT 9999 -RA BKN024 07/04 Q1002 RMK ATIS L;
0141104160999992013010110204+51517+007617FM-15+0148EDLW V0202101N006210063019N0112651N1+00701+00401999999ADDGA1071+006301999GF107991999999999999999999MA1100201999999MW1611REMMET066METAR EDLW 011020Z 21012KT 9999 -RA BKN021 07/04 Q1002 RMK ATIS M;
0154104160999992013010110504+51517+007617FM-15+0148EDLW V0202101N006710120019N0112651N1+00701+00401999999ADDGA1041+006001999GA2071+012001999GF107991999999999999999999MA1100201999999REMMET069METAR EDLW 011050Z 21013KT 9999 SCT020 BKN040 07/04 Q1002 RMK ATIS N;
0164104160999992013010111204+51517+007617FM-15+0148EDLW V0202201N007210084019N0112651N1+00701+00401999999ADDGA1041+003901999GA2081+008401999GF108991999999999999999999MA1100201999999MW1611REMMET073METAR EDLW 011120Z 22014KT 9999 -RA SCT013 OVC028 07/04 Q1002 RMK ATIS O;
0164104160999992013010111504+51517+007617FM-15+0148EDLW V0202101N006710090019N0112651N1+00701+00501999999ADDGA1041+006001999GA2081+009001999GF108991999999999999999999MA1100201999999MW1611REMMET073METAR EDLW 011150Z 21013KT 9999 -RA SCT020 OVC030 07/05 Q1002 RMK ATIS P;
0141104160999992013010112204+51517+007617FM-15+0148EDLW V0202101N005710057019N0112651N1+00701+00501999999ADDGA1071+005701999GF107991999999999999999999MA1100201999999MW1611REMMET066METAR EDLW 011220Z 21011KT 9999 -RA BKN019 07/05 Q1002 RMK ATIS Q;
0164104160999992013010112504+51517+007617FM-15+0148EDLW V0202201N006210060019N0112651N1+00701+00501999999ADDGA1041+003001999GA2081+006001999GF108991999999999999999999MA1100311999999MW1611REMMET073METAR EDLW 011250Z 22012KT 9999 -RA SCT010 OVC020 07/05 Q1003 RMK ATIS R;
0141104160999992013010113204+51517+007617FM-15+0148EDLW V0202301N005710030019N0112651N1+00701+00601999999ADDGA1071+003001999GF107991999999999999999999MA1100311999999MW1511REMMET066METAR EDLW 011320Z 23011KT 9999 -DZ BKN010 07/06 Q1003 RMK ATIS S;
0139104160999992013010113504+51517+007617FM-15+0148EDLW V0202701N005110033019N0112651N1+00701+00601999999ADDGA1071+003301999GF107991999999999999999999MA1100311999999REMMET070METAR EDLW 011350Z 27010KT 240V300 9999 BKN011 07/06 Q1003 RMK ATIS T;
0149104160999992013010114204+51517+007617FM-15+0148EDLW V0203001N006710060019N0112651N1+00601+00301999999ADDGA1071+006001999GF107991999999999999999999MA1100511999999MW1611REMMET074METAR EDLW 011420Z 30013KT 270V330 9999 -RA BKN020 06/03 Q1005 RMK ATIS U;
0139104160999992013010114504+51517+007617FM-15+0148EDLW V0202801N003610111019N0112651N1+00501+00301999999ADDGA1071+011101999GF107991999999999999999999MA1100511999999REMMET070METAR EDLW 011450Z 28007KT 250V320 9999 BKN037 05/03 Q1005 RMK ATIS V;
0102104160999992013010115204+51517+007617FM-15+0148EDLW V0202701N003119999999Y0099001N1+00601+00301999999ADDMA1100611999999OC100821REMMET067METAR EDLW 011520Z 27006G16KT 230V300 CAVOK 06/03 Q1006 RMK ATIS W;
0162104160999992013010115504+51517+007617FM-15+0148EDLW V0202701N003612200019N0112651N1+00501+00301999999ADDGA1021+005401999GA2041+011401999GF104991999999999999999999MA1100711999999REMMET077METAR EDLW 011550Z 27007KT 230V310 9999 FEW018 SCT038 05/03 Q1007 RMK ATIS X;
0131104160999992013010116204+51517+007617FM-15+0148EDLW V0202401N004110057019N0112651N1+00501+00301999999ADDGA1071+005701999GF107991999999999999999999MA1100711999999REMMET062METAR EDLW 011620Z 24008KT 9999 BKN019 05/03 Q1007 RMK ATIS Y;
0131104160999992013010116504+51517+007617FM-15+0148EDLW V0202301N004612200019N0112651N1+00501+00301999999ADDGA1041+006001999GF104991999999999999999999MA1100711999999REMMET062METAR EDLW 011650Z 23009KT 9999 SCT020 05/03 Q1007 RMK ATIS Z;
0131104160999992013010117204+51517+007617FM-15+0148EDLW V0202401N004610060019N0112651N1+00501+00301999999ADDGA1071+006001999GF107991999999999999999999MA1100811999999REMMET062METAR EDLW 011720Z 24009KT 9999 BKN020 05/03 Q1008 RMK ATIS A;
0131104160999992013010117504+51517+007617FM-15+0148EDLW V0202401N004110045019N0112651N1+00501+00301999999ADDGA1071+004501999GF107991999999999999999999MA1100811999999REMMET062METAR EDLW 011750Z 24008KT 9999 BKN015 05/03 Q1008 RMK ATIS B;
0131104160999992013010118204+51517+007617FM-15+0148EDLW V0202501N004110066019N0112651N1+00501+00201999999ADDGA1071+006601999GF107991999999999999999999MA1100911999999REMMET062METAR EDLW 011820Z 25008KT 9999 BKN022 05/02 Q1009 RMK ATIS C;
0131104160999992013010118504+51517+007617FM-15+0148EDLW V0202401N005712200019N0112651N1+00501+00201999999ADDGA1041+008101999GF104991999999999999999999MA1100911999999REMMET062METAR EDLW 011850Z 24011KT 9999 SCT027 05/02 Q1009 RMK ATIS D;
0131104160999992013010119204+51517+007617FM-15+0148EDLW V0202401N005712200019N0112651N1+00401+00201999999ADDGA1041+008401999GF104991999999999999999999MA1101021999999REMMET062METAR EDLW 011920Z 24011KT 9999 SCT028 04/02 Q1010 RMK ATIS E;
0083104160999992013010119504+51517+007617FM-15+0148EDLW V0202401N005719999999Y0099001N1+00401+00201999999ADDMA1101021999999REMMET056METAR EDLW 011950Z 24011KT CAVOK 04/02 Q1010 RMK ATIS F;
0154104160999992013010120204+51517+007617FM-15+0148EDLW V0202301N005710147019N0112651N1+00401+00201999999ADDGA1041+009301999GA2071+014701999GF107991999999999999999999MA1101021999999REMMET069METAR EDLW 012020Z 23011KT 9999 SCT031 BKN049 04/02 Q1010 RMK ATIS G;
0131104160999992013010120504+51517+007617FM-15+0148EDLW V0202301N006210084019N0112651N1+00401+00101999999ADDGA1071+008401999GF107991999999999999999999MA1101081999999REMMET062METAR EDLW 012050Z 23012KT 9999 BKN028 04/01 Q1011 RMK ATIS H;
0131104160999992013010204204+51517+007617FM-15+0148EDLW V0202401N006212200019N0112651N1+00401+00201999999ADDGA1041+004501999GF104991999999999999999999MA1101491999999REMMET062METAR EDLW 020420Z 24012KT 9999 SCT015 04/02 Q1015 RMK ATIS A;
0131104160999992013010204504+51517+007617FM-15+0148EDLW V0202401N006710144019N0112651N1+00401+00201999999ADDGA1071+014401999GF107991999999999999999999MA1101591999999REMMET062METAR EDLW 020450Z 24013KT 9999 BKN048 04/02 Q1016 RMK ATIS B;
0154104160999992013010205204+51517+007617FM-15+0148EDLW V0202501N006212200019N0112651N1+00401+00201999999ADDGA1041+003001999GA2041+008401999GF104991999999999999999999MA1101591999999REMMET069METAR EDLW 020520Z 25012KT 9999 SCT010 SCT028 04/02 Q1016 RMK ATIS C;
0164104160999992013010205504+51517+007617FM-15+0148EDLW V0202401N006212200019N0112651N1+00401+00201999999ADDGA1041+003601999GA2041+011101999GF104991999999999999999999MA1101691999999MW1511REMMET073METAR EDLW 020550Z 24012KT 9999 -DZ SCT012 SCT037 04/02 Q1017 RMK ATIS D;
0141104160999992013010206204+51517+007617FM-15+0148EDLW V0202401N006212200019N0112651N1+00401+00301999999ADDGA1041+004201999GF104991999999999999999999MA1101691999999MW1511REMMET066METAR EDLW 020620Z 24012KT 9999 -DZ SCT014 04/03 Q1017 RMK ATIS E;
0131104160999992013010206504+51517+007617FM-15+0148EDLW V0202401N005112200019N0112651N1+00401+00301999999ADDGA1041+003301999GF104991999999999999999999MA1101801999999REMMET062METAR EDLW 020650Z 24010KT 9999 SCT011 04/03 Q1018 RMK ATIS F;
0154104160999992013010207204+51517+007617FM-15+0148EDLW V0202401N005712200019N0112651N1+00401+00301999999ADDGA1021+003301999GA2041+018001999GF104991999999999999999999MA1101901999999REMMET069METAR EDLW 020720Z 24011KT 9999 FEW011 SCT065 04/03 Q1019 RMK ATIS G;
0131104160999992013010207504+51517+007617FM-15+0148EDLW V0202401N006210132019N0112651N1+00401+00301999999ADDGA1071+013201999GF107991999999999999999999MA1101901999999REMMET062METAR EDLW 020750Z 24012KT 9999 BKN044 04/03 Q1019 RMK ATIS H;
0154104160999992013010208204+51517+007617FM-15+0148EDLW V0202501N005110129019N0112651N1+00401+00301999999ADDGA1041+003601999GA2071+012901999GF107991999999999999999999MA1102001999999REMMET069METAR EDLW 020820Z 25010KT 9999 SCT012 BKN043 04/03 Q1020 RMK ATIS I;
0131104160999992013010208504+51517+007617FM-15+0148EDLW V0202501N004610030019N0112651N1+00501+00301999999ADDGA1071+003001999GF107991999999999999999999MA1102001999999REMMET062METAR EDLW 020850Z 25009KT 9999 BKN010 05/03 Q1020 RMK ATIS J;
0141104160999992013010209204+51517+007617FM-15+0148EDLW V0202501N004610027019N0112651N1+00501+00301999999ADDGA1071+002701999GF107991999999999999999999MA1102101999999MW1611REMMET066METAR EDLW 020920Z 25009KT 9999 -RA BKN009 05/03 Q1021 RMK ATIS K;
0141104160999992013010209504+51517+007617FM-15+0148EDLW V0202401N004110027019N0112651N1+00501+00401999999ADDGA1071+002701999GF107991999999999999999999MA1102101999999MW1611REMMET066METAR EDLW 020950Z 24008KT 9999 -RA BKN009 05/04 Q1021 RMK ATIS L;
0141104160999992013010210204+51517+007617FM-15+0148EDLW V0202501N004110030019N0112651N1+00501+00401999999ADDGA1071+003001999GF107991999999999999999999MA1102201999999MW1611REMMET066METAR EDLW 021020Z 25008KT 9999 -RA BKN010 05/04 Q1022 RMK ATIS M;
0141104160999992013010210504+51517+007617FM-15+0148EDLW V0202501N004110030019N0112651N1+00501+00401999999ADDGA1071+003001999GF107991999999999999999999MA1102201999999MW1611REMMET066METAR EDLW 021050Z 25008KT 9999 -RA BKN010 05/04 Q1022 RMK ATIS N;
0141104160999992013010211204+51517+007617FM-15+0148EDLW V0202501N004610036019N0112651N1+00601+00401999999ADDGA1071+003601999GF107991999999999999999999MA1102201999999MW1611REMMET066METAR EDLW 021120Z 25009KT 9999 -RA BKN012 06/04 Q1022 RMK ATIS O;
0141104160999992013010211504+51517+007617FM-15+0148EDLW V0202501N004110036019N0112651N1+00601+00401999999ADDGA1071+003601999GF107991999999999999999999MA1102201999999MW1611REMMET066METAR EDLW 021150Z 25008KT 9999 -RA BKN012 06/04 Q1022 RMK ATIS P;
0141104160999992013010212004+51517+007617FM-15+0148EDLW V0202401N004110033019N0112651N1+00601+00401999999ADDGA1071+003301999GF107991999999999999999999MA1102301999999MW1611REMMET066SPECI EDLW 021157Z 24008KT 9999 -RA BKN011 06/04 Q1023 RMK ATIS Q;
0164104160999992013010212204+51517+007617FM-15+0148EDLW V0202501N004610030019N0112651N1+00601+00401999999ADDGA1071+003001999GA2081+005401999GF108991999999999999999999MA1102301999999MW1611REMMET073METAR EDLW 021220Z 25009KT 9999 -RA BKN010 OVC018 06/04 Q1023 RMK ATIS R;
0154104160999992013010212504+51517+007617FM-15+0148EDLW V0202501N006210066019N0112651N1+00701+00401999999ADDGA1021+003001999GA2071+006601999GF107991999999999999999999MA1102301999999REMMET069METAR EDLW 021250Z 25012KT 9999 FEW010 BKN022 07/04 Q1023 RMK ATIS S;
0154104160999992013010213204+51517+007617FM-15+0148EDLW V0202501N003612200019N0112651N1+00601+00301999999ADDGA1021+003001999GA2041+005401999GF104991999999999999999999MA1102301999999REMMET069METAR EDLW 021320Z 25007KT 9999 FEW010 SCT018 06/03 Q1023 RMK ATIS T;
0131104160999992013010213504+51517+007617FM-15+0148EDLW V0202401N004610054019N0112651N1+00601+00301999999ADDGA1071+005401999GF107991999999999999999999MA1102301999999REMMET062METAR EDLW 021350Z 24009KT 9999 BKN018 06/03 Q1023 RMK ATIS U;
0131104160999992013010214204+51517+007617FM-15+0148EDLW V0202401N005112200019N0112651N1+00601+00301999999ADDGA1041+012001999GF104991999999999999999999MA1102401999999REMMET062METAR EDLW 021420Z 24010KT 9999 SCT040 06/03 Q1024 RMK ATIS V;
0131104160999992013010214504+51517+007617FM-15+0148EDLW V0202401N005112200019N0112651N1+00601+00301999999ADDGA1041+000901999GF104991999999999999999999MA1102401999999REMMET062METAR EDLW 021450Z 24010KT 9999 SCT003 06/03 Q1024 RMK ATIS W;
0131104160999992013010215204+51517+007617FM-15+0148EDLW V0202301N004610090019N0112651N1+00601+00301999999ADDGA1071+009001999GF107991999999999999999999MA1102401999999REMMET062METAR EDLW 021520Z 23009KT 9999 BKN030 06/03 Q1024 RMK ATIS X;
0131104160999992013010215504+51517+007617FM-15+0148EDLW V0202401N004610093019N0112651N1+00601+00301999999ADDGA1071+009301999GF107991999999999999999999MA1102511999999REMMET062METAR EDLW 021550Z 24009KT 9999 BKN031 06/03 Q1025 RMK ATIS Y;
0131104160999992013010216204+51517+007617FM-15+0148EDLW V0202301N004610090019N0112651N1+00601+00301999999ADDGA1071+009001999GF107991999999999999999999MA1102511999999REMMET062METAR EDLW 021620Z 23009KT 9999 BKN030 06/03 Q1025 RMK ATIS Z;
0131104160999992013010216504+51517+007617FM-15+0148EDLW V0202201N004610090019N0112651N1+00601+00301999999ADDGA1071+009001999GF107991999999999999999999MA1102511999999REMMET062METAR EDLW 021650Z 22009KT 9999 BKN030 06/03 Q1025 RMK ATIS A;
0131104160999992013010217204+51517+007617FM-15+0148EDLW V0202201N005110090019N0112651N1+00601+00301999999ADDGA1071+009001999GF107991999999999999999999MA1102511999999REMMET062METAR EDLW 021720Z 22010KT 9999 BKN030 06/03 Q1025 RMK ATIS B;
0131104160999992013010217504+51517+007617FM-15+0148EDLW V0202201N006210090019N0112651N1+00601+00301999999ADDGA1071+009001999GF107991999999999999999999MA1102511999999REMMET062METAR EDLW 021750Z 22012KT 9999 BKN030 06/03 Q1025 RMK ATIS C;
0131104160999992013010218204+51517+007617FM-15+0148EDLW V0202201N005710090019N0112651N1+00601+00301999999ADDGA1071+009001999GF107991999999999999999999MA1102511999999REMMET062METAR EDLW 021820Z 22011KT 9999 BKN030 06/03 Q1025 RMK ATIS D;
0131104160999992013010218504+51517+007617FM-15+0148EDLW V0202201N005110090019N0112651N1+00601+00301999999ADDGA1081+009001999GF108991999999999999999999MA1102611999999REMMET062METAR EDLW 021850Z 22010KT 9999 OVC030 06/03 Q1026 RMK ATIS E;
0154104160999992013010219204+51517+007617FM-15+0148EDLW V0202201N006710096019N0112651N1+00601+00301999999ADDGA1041+005401999GA2081+009601999GF108991999999999999999999MA1102611999999REMMET069METAR EDLW 021920Z 22013KT 9999 SCT018 OVC032 06/03 Q1026 RMK ATIS F;
0154104160999992013010219504+51517+007617FM-15+0148EDLW V0202201N006710102019N0112651N1+00601+00301999999ADDGA1041+005401999GA2071+010201999GF107991999999999999999999MA1102511999999REMMET069METAR EDLW 021950Z 22013KT 9999 SCT018 BKN034 06/03 Q1025 RMK ATIS G;
0154104160999992013010220204+51517+007617FM-15+0148EDLW V0202201N006710096019N0112651N1+00601+00301999999ADDGA1041+005401999GA2071+009601999GF107991999999999999999999MA1102611999999REMMET069METAR EDLW 022020Z 22013KT 9999 SCT018 BKN032 06/03 Q1026 RMK ATIS H;
0143104160999992013010220504+51517+007617FM-15+0148EDLW V0202201N006710096019N0112651N1+00601+00301999999ADDGA1041+005401999GA2071+009601999GF107991999999999999999999MA1102611999999REMMET058METAR EDLW 022050Z 22013KT 9999 SCT018 BKN032 06/03 Q1026;
0141104160999992013010304204+51517+007617FM-15+0148EDLW V0202401N007710024019N0080001N1+00701+00601999999ADDGA1081+002401999GF108991999999999999999999MA1102611999999MW1611REMMET066METAR EDLW 030420Z 24015KT 8000 -RA OVC008 07/06 Q1026 RMK ATIS A;
0141104160999992013010304504+51517+007617FM-15+0148EDLW V0202301N008710015019N0080001N1+00701+00601999999ADDGA1071+001501999GF107991999999999999999999MA1102511999999MW1511REMMET066METAR EDLW 030450Z 23017KT 8000 -DZ BKN005 07/06 Q1025 RMK ATIS B;
0141104160999992013010305204+51517+007617FM-15+0148EDLW V0202301N007710018019N0090001N1+00701+00601999999ADDGA1081+001801999GF108991999999999999999999MA1102511999999MW1511REMMET066METAR EDLW 030520Z 23015KT 9000 -DZ OVC006 07/06 Q1025 RMK ATIS C;
0131104160999992013010305504+51517+007617FM-15+0148EDLW V0202401N007710018019N0090001N1+00701+00601999999ADDGA1081+001801999GF108991999999999999999999MA1102611999999REMMET062METAR EDLW 030550Z 24015KT 9000 OVC006 07/06 Q1026 RMK ATIS D;
0131104160999992013010306204+51517+007617FM-15+0148EDLW V0202401N007210021019N0070001N1+00701+00601999999ADDGA1081+002101999GF108991999999999999999999MA1102611999999REMMET062METAR EDLW 030620Z 24014KT 7000 OVC007 07/06 Q1026 RMK ATIS E;
0120104160999992013010306504+51517+007617FM-15+0148EDLW V0202401N006710021019N0070001N1+00701+00601999999ADDGA1081+002101999GF108991999999999999999999MA1102711999999REMMET051METAR EDLW 030650Z 24013KT 7000 OVC007 07/06 Q1027;
0131104160999992013010307204+51517+007617FM-15+0148EDLW V0202301N008710018019N0060001N1+00801+00601999999ADDGA1081+001801999GF108991999999999999999999MA1102711999999REMMET062METAR EDLW 030720Z 23017KT 6000 OVC006 08/06 Q1027 RMK ATIS G;
0140104160999992013010307504+51517+007617FM-15+0148EDLW V0202401N007710018019N0040001N1+00801+00701999999ADDGA1081+001801999GF108991999999999999999999MA1102711999999MW1101REMMET065METAR EDLW 030750Z 24015KT 4000 BR OVC006 08/07 Q1027 RMK ATIS H;
0140104160999992013010308204+51517+007617FM-15+0148EDLW V0202401N008210015019N0050001N1+00801+00701999999ADDGA1081+001501999GF108991999999999999999999MA1102711999999MW1101REMMET065METAR EDLW 030820Z 24016KT 5000 BR OVC005 08/07 Q1027 RMK ATIS I;
0131104160999992013010308504+51517+007617FM-15+0148EDLW V0202401N007710015019N0080001N1+00801+00701999999ADDGA1081+001501999GF108991999999999999999999MA1102811999999REMMET062METAR EDLW 030850Z 24015KT 8000 OVC005 08/07 Q1028 RMK ATIS J;
0141104160999992013010309204+51517+007617FM-15+0148EDLW V0202401N007210015019N0060001N1+00801+00701999999ADDGA1081+001501999GF108991999999999999999999MA1102811999999MW1511REMMET066METAR EDLW 030920Z 24014KT 6000 -DZ OVC005 08/07 Q1028 RMK ATIS K;
0141104160999992013010309504+51517+007617FM-15+0148EDLW V0202401N006210012019N0050001N1+00801+00701999999ADDGA1081+001201999GF108991999999999999999999MA1102811999999MW1611REMMET066METAR EDLW 030950Z 24012KT 5000 -RA OVC004 08/07 Q1028 RMK ATIS L;
0141104160999992013010310204+51517+007617FM-15+0148EDLW V0202501N006710015019N0090001N1+00801+00701999999ADDGA1081+001501999GF108991999999999999999999MA1102811999999MW1511REMMET066METAR EDLW 031020Z 25013KT 9000 -DZ OVC005 08/07 Q1028 RMK ATIS M;
0141104160999992013010310504+51517+007617FM-15+0148EDLW V0202501N006210012019N0050001N1+00801+00801999999ADDGA1081+001201999GF108991999999999999999999MA1102911999999MW1611REMMET066METAR EDLW 031050Z 25012KT 5000 -RA OVC004 08/08 Q1029 RMK ATIS N;
0141104160999992013010311204+51517+007617FM-15+0148EDLW V0202401N007210012019N0040001N1+00901+00801999999ADDGA1081+001201999GF108991999999999999999999MA1102811999999MW1611REMMET066METAR EDLW 031120Z 24014KT 4000 -RA OVC004 09/08 Q1028 RMK ATIS O;
0141104160999992013010312204+51517+007617FM-15+0148EDLW V0202401N007210009019N0040001N1+00901+00801999999ADDGA1071+000901999GF107991999999999999999999MA1102811999999MW1511REMMET066METAR EDLW 031220Z 24014KT 4000 -DZ BKN003 09/08 Q1028 RMK ATIS Q;
0141104160999992013010312504+51517+007617FM-15+0148EDLW V0202501N005710009019N0040001N1+00901+00801999999ADDGA1081+000901999GF108991999999999999999999MA1102911999999MW1611REMMET066METAR EDLW 031250Z 25011KT 4000 -RA OVC003 09/08 Q1029 RMK ATIS R;
0150104160999992013010313204+51517+007617FM-15+0148EDLW V0202501N005110006019N0018001N1+00901+00801999999ADDGA1081+000601999GF108991999999999999999999MA1102911999999MW1101MW2511REMMET069METAR EDLW 031320Z 25010KT 1800 -DZ BR OVC002 09/08 Q1029 RMK ATIS S;
0150104160999992013010313504+51517+007617FM-15+0148EDLW V0202401N006210009019N0020001N1+00901+00901999999ADDGA1081+000901999GF108991999999999999999999MA1102911999999MW1101MW2511REMMET069METAR EDLW 031350Z 24012KT 2000 -DZ BR OVC003 09/09 Q1029 RMK ATIS T;
0150104160999992013010314204+51517+007617FM-15+0148EDLW V0202401N006210012019N0025001N1+00901+00901999999ADDGA1081+001201999GF108991999999999999999999MA1102911999999MW1101MW2511REMMET069METAR EDLW 031420Z 24012KT 2500 -DZ BR OVC004 09/09 Q1029 RMK ATIS U;
0150104160999992013010314504+51517+007617FM-15+0148EDLW V0202501N004610012019N0025001N1+00901+00901999999ADDGA1081+001201999GF108991999999999999999999MA1102911999999MW1101MW2511REMMET069METAR EDLW 031450Z 25009KT 2500 -DZ BR OVC004 09/09 Q1029 RMK ATIS V;
0150104160999992013010315204+51517+007617FM-15+0148EDLW V0202501N004610012019N0018001N1+01001+00901999999ADDGA1081+001201999GF108991999999999999999999MA1103011999999MW1101MW2511REMMET069METAR EDLW 031520Z 25009KT 1800 -DZ BR OVC004 10/09 Q1030 RMK ATIS W;
0150104160999992013010315504+51517+007617FM-15+0148EDLW V0202501N005110009019N0020001N1+01001+00901999999ADDGA1081+000901999GF108991999999999999999999MA1103011999999MW1101MW2611REMMET069METAR EDLW 031550Z 25010KT 2000 -RA BR OVC003 10/09 Q1030 RMK ATIS X;
0149104160999992013010316204+51517+007617FM-15+0148EDLW V0202501N004610009019N0025001N1+01001+00901999999ADDGA1081+000901999GF108991999999999999999999MA1103011999999MW1101MW2631REMMET068METAR EDLW 031620Z 25009KT 2500 RA BR OVC003 10/09 Q1030 RMK ATIS Y;
0149104160999992013010316504+51517+007617FM-15+0148EDLW V0202601N005110012019N0030001N1+01001+00901999999ADDGA1081+001201999GF108991999999999999999999MA1103121999999MW1101MW2631REMMET068METAR EDLW 031650Z 26010KT 3000 RA BR OVC004 10/09 Q1031 RMK ATIS Z;
0141104160999992013010317204+51517+007617FM-15+0148EDLW V0202701N004610012019N0080001N1+01001+00901999999ADDGA1081+001201999GF108991999999999999999999MA1103121999999MW1611REMMET066METAR EDLW 031720Z 27009KT 8000 -RA OVC004 10/09 Q1031 RMK ATIS A;
0131104160999992013010317504+51517+007617FM-15+0148EDLW V0202701N005110018019N0060001N1+01001+00901999999ADDGA1081+001801999GF108991999999999999999999MA1103121999999REMMET062METAR EDLW 031750Z 27010KT 6000 OVC006 10/09 Q1031 RMK ATIS B;
0131104160999992013010318204+51517+007617FM-15+0148EDLW V0202601N004610018019N0050001N1+01001+00901999999ADDGA1071+001801999GF107991999999999999999999MA1103121999999REMMET062METAR EDLW 031820Z 26009KT 5000 BKN006 10/09 Q1031 RMK ATIS C;
0149104160999992013010318504+51517+007617FM-15+0148EDLW V0202601N005110018019N0050001N1+01001+00901999999ADDGA1071+001801999GF107991999999999999999999MA1103121999999MW1511REMMET074METAR EDLW 031850Z 26010KT 230V300 5000 -DZ BKN006 10/09 Q1031 RMK ATIS D;
0149104160999992013010319204+51517+007617FM-15+0148EDLW V0202701N004610018019N0050001N1+01001+00901999999ADDGA1071+001801999GF107991999999999999999999MA1103181999999MW1511MW2611REMMET068METAR EDLW 031920Z 27009KT 5000 -RADZ BKN006 10/09 Q1032 RMK ATIS E;
0149104160999992013010319504+51517+007617FM-15+0148EDLW V0202601N004610018019N0050001N1+01001+00801999999ADDGA1081+001801999GF108991999999999999999999MA1103181999999MW1511MW2611REMMET068METAR EDLW 031950Z 26009KT 5000 -RADZ OVC006 10/08 Q1032 RMK ATIS F;
0157104160999992013010320204+51517+007617FM-15+0148EDLW V0202601N004610018019N0050001N1+01001+00801999999ADDGA1081+001801999GF108991999999999999999999MA1103181999999MW1511MW2611REMMET076METAR EDLW 032020Z 26009KT 230V300 5000 -RADZ OVC006 10/08 Q1032 RMK ATIS G;
0155104160999992013010320504+51517+007617FM-15+0148EDLW V0202701N004610018019N0050001N1+01001+00801999999ADDGA1081+001801999GF108991999999999999999999MA1103291999999MW1511MW2611REMMET074METAR EDLW 032050Z 27009KT 240V310 5000 -RADZ OVC006 10/08 Q1033 RMK ATIS;
0131104160999992013010404204+51517+007617FM-15+0148EDLW V0202601N003610018019N0080001N1+01001+00801999999ADDGA1081+001801999GF108991999999999999999999MA1103291999999REMMET062METAR EDLW 040420Z 26007KT 8000 OVC006 10/08 Q1033 RMK ATIS A;
0131104160999992013010404504+51517+007617FM-15+0148EDLW V0202601N004610015019N0060001N1+01001+00901999999ADDGA1081+001501999GF108991999999999999999999MA1103291999999REMMET062METAR EDLW 040450Z 26009KT 6000 OVC005 10/09 Q1033 RMK ATIS B;
0131104160999992013010405204+51517+007617FM-15+0148EDLW V0202501N005110012019N0060001N1+01001+00901999999ADDGA1081+001201999GF108991999999999999999999MA1103291999999REMMET062METAR EDLW 040520Z 25010KT 6000 OVC004 10/09 Q1033 RMK ATIS C;
0140104160999992013010405504+51517+007617FM-15+0148EDLW V0202501N004610009019N0030001N1+00901+00901999999ADDGA1081+000901999GF108991999999999999999999MA1103291999999MW1101REMMET065METAR EDLW 040550Z 25009KT 3000 BR OVC003 09/09 Q1033 RMK ATIS D;
0150104160999992013010406204+51517+007617FM-15+0148EDLW V0202501N004610009019N0020001N1+00901+00901999999ADDGA1081+000901999GF108991999999999999999999MA1103291999999MW1101MW2511REMMET069METAR EDLW 040620Z 25009KT 2000 -DZ BR OVC003 09/09 Q1033 RMK ATIS E;
0140104160999992013010406504+51517+007617FM-15+0148EDLW V0202601N005110012019N0020001N1+00901+00901999999ADDGA1081+001201999GF108991999999999999999999MA1103291999999MW1101REMMET065METAR EDLW 040650Z 26010KT 2000 BR OVC004 09/09 Q1033 RMK ATIS F;
0148104160999992013010407204+51517+007617FM-15+0148EDLW V0202601N005710009019N0020001N1+00901+00901999999ADDGA1081+000901999GF108991999999999999999999MA1103291999999MW1101REMMET073METAR EDLW 040720Z 26011KT 230V290 2000 BR OVC003 09/09 Q1033 RMK ATIS G;
0140104160999992013010407504+51517+007617FM-15+0148EDLW V0202601N005110009019N0017001N1+00901+00901999999ADDGA1081+000901999GF108991999999999999999999MA1103291999999MW1101REMMET065METAR EDLW 040750Z 26010KT 1700 BR OVC003 09/09 Q1033 RMK ATIS H;
0140104160999992013010408204+51517+007617FM-15+0148EDLW V0202601N004610009019N0015001N1+00901+00901999999ADDGA1081+000901999GF108991999999999999999999MA1103291999999MW1101REMMET065METAR EDLW 040820Z 26009KT 1500 BR OVC003 09/09 Q1033 RMK ATIS I;
0148104160999992013010408504+51517+007617FM-15+0148EDLW V0202501N006210006019N0015001N1+00901+00901999999ADDGA1081+000601999GF108991999999999999999999MA1103291999999MW1101REMMET073METAR EDLW 040850Z 25012KT 230V290 1500 BR OVC002 09/09 Q1033 RMK ATIS J;
0169104160999992013010409504+51517+007617FM-15+0148EDLW V0202601N006210006019N0011001N1+00901+00901999999ADDED124U14009GA1081+000601999GF108991999999999999999999MA1103391999999MW1101REMMET083METAR EDLW 040950Z 26012KT 230V290 1100 R24/1400N BR OVC002 09/09 Q1034 RMK ATIS L;
0171104160999992013010410204+51517+007617FM-15+0148EDLW V0202601N004610006019N0011001N1+00901+00901999999ADDED124U13009GA1081+000601999GF108991999999999999999999MA1103391999999MW1101MW2511REMMET079METAR EDLW 041020Z 26009KT 1100 R24/1300N -DZ BR OVC002 09/09 Q1034 RMK ATIS M;
0161104160999992013010410504+51517+007617FM-15+0148EDLW V0202601N004610006019N0020001N1+00901+00901999999ADDED124U14009GA1081+000601999GF108991999999999999999999MA1103391999999MW1101REMMET075METAR EDLW 041050Z 26009KT 2000 R24/1400N BR OVC002 09/09 Q1034 RMK ATIS N;
0140104160999992013010411204+51517+007617FM-15+0148EDLW V0202501N006210009019N0025001N1+00901+00901999999ADDGA1081+000901999GF108991999999999999999999MA1103291999999MW1101REMMET065METAR EDLW 041120Z 25012KT 2500 BR OVC003 09/09 Q1033 RMK ATIS O;
0140104160999992013010411504+51517+007617FM-15+0148EDLW V0202501N006210012019N0025001N1+00901+00801999999ADDGA1081+001201999GF108991999999999999999999MA1103291999999MW1101REMMET065METAR EDLW 041150Z 25012KT 2500 BR OVC004 09/08 Q1033 RMK ATIS P;
0141104160999992013010412204+51517+007617FM-15+0148EDLW V0202501N006710012019N0025001N1+00901+00901999999ADDGA1081+001201999GF108991999999999999999999MA1103291999999MW1511REMMET066METAR EDLW 041220Z 25013KT 2500 -DZ OVC004 09/09 Q1033 RMK ATIS Q;
0150104160999992013010412504+51517+007617FM-15+0148EDLW V0202501N005710012019N0025001N1+00901+00901999999ADDGA1081+001201999GF108991999999999999999999MA1103291999999MW1101MW2511REMMET069METAR EDLW 041250Z 25011KT 2500 -DZ BR OVC004 09/09 Q1033 RMK ATIS R;
0140104160999992013010413204+51517+007617FM-15+0148EDLW V0202601N006210012019N0025001N1+00901+00901999999ADDGA1081+001201999GF108991999999999999999999MA1103291999999MW1101REMMET065METAR EDLW 041320Z 26012KT 2500 BR OVC004 09/09 Q1033 RMK ATIS S;
0140104160999992013010413504+51517+007617FM-15+0148EDLW V0202601N005710012019N0025001N1+00901+00901999999ADDGA1081+001201999GF108991999999999999999999MA1103291999999MW1101REMMET065METAR EDLW 041350Z 26011KT 2500 BR OVC004 09/09 Q1033 RMK ATIS T;
0140104160999992013010414204+51517+007617FM-15+0148EDLW V0202601N004610012019N0025001N1+00901+00901999999ADDGA1081+001201999GF108991999999999999999999MA1103291999999MW1101REMMET065METAR EDLW 041420Z 26009KT 2500 BR OVC004 09/09 Q1033 RMK ATIS U;
0140104160999992013010414504+51517+007617FM-15+0148EDLW V0202601N005110012019N0020001N1+00901+00901999999ADDGA1081+001201999GF108991999999999999999999MA1103291999999MW1101REMMET065METAR EDLW 041450Z 26010KT 2000 BR OVC004 09/09 Q1033 RMK ATIS V;
0148104160999992013010415204+51517+007617FM-15+0148EDLW V0202601N005710015019N0045001N1+00901+00801999999ADDGA1071+001501999GF107991999999999999999999MA1103291999999MW1101REMMET073METAR EDLW 041520Z 26011KT 230V290 4500 BR BKN005 09/08 Q1033 RMK ATIS W;
0149104160999992013010415504+51517+007617FM-15+0148EDLW V0202701N004610018019N0060001N1+00901+00801999999ADDGA1071+001801999GF107991999999999999999999MA1103291999999MW1511REMMET074METAR EDLW 041550Z 27009KT 240V300 6000 -DZ BKN006 09/08 Q1033 RMK ATIS X;
0139104160999992013010416204+51517+007617FM-15+0148EDLW V0202601N005710018019N0080001N1+00901+00801999999ADDGA1071+001801999GF107991999999999999999999MA1103291999999REMMET070METAR EDLW 041620Z 26011KT 230V300 8000 BKN006 09/08 Q1033 RMK ATIS Y;
0139104160999992013010416504+51517+007617FM-15+0148EDLW V0202601N005710018019N0080001N1+00901+00801999999ADDGA1081+001801999GF108991999999999999999999MA1103291999999REMMET070METAR EDLW 041650Z 26011KT 230V290 8000 OVC006 09/08 Q1033 RMK ATIS Z;
0149104160999992013010417204+51517+007617FM-15+0148EDLW V0202701N005710021019N0080001N1+00901+00701999999ADDGA1071+002101999GF107991999999999999999999MA1103291999999MW1511REMMET074METAR EDLW 041720Z 27011KT 240V310 8000 -DZ BKN007 09/07 Q1033 RMK ATIS A;
0149104160999992013010417504+51517+007617FM-15+0148EDLW V0202601N005710018019N0080001N1+00901+00701999999ADDGA1071+001801999GF107991999999999999999999MA1103181999999MW1511MW2611REMMET068METAR EDLW 041750Z 26011KT 8000 -RADZ BKN006 09/07 Q1032 RMK ATIS B;
0148104160999992013010418204+51517+007617FM-15+0148EDLW V0202701N004610018019N0070001N1+00901+00701999999ADDGA1071+001801999GF107991999999999999999999MA1103291999999MW1531REMMET073METAR EDLW 041820Z 27009KT 240V310 7000 DZ BKN006 09/07 Q1033 RMK ATIS C;
0157104160999992013010418504+51517+007617FM-15+0148EDLW V0202701N005710018019N0070001N1+00801+00701999999ADDGA1071+001801999GF107991999999999999999999MA1103181999999MW1511MW2611REMMET076METAR EDLW 041850Z 27011KT 230V290 7000 -RADZ BKN006 08/07 Q1032 RMK ATIS D;
0149104160999992013010419204+51517+007617FM-15+0148EDLW V0202701N004610012019N0070001N1+00801+00701999999ADDGA1081+001201999GF108991999999999999999999MA1103291999999MW1511REMMET074METAR EDLW 041920Z 27009KT 240V310 7000 -DZ OVC004 08/07 Q1033 RMK ATIS E;
0148104160999992013010419504+51517+007617FM-15+0148EDLW V0202901N005110015019N0070001N1+00801+00701999999ADDGA1071+001501999GF107991999999999999999999MA1103291999999MW1531REMMET073METAR EDLW 041950Z 29010KT 250V320 7000 DZ BKN005 08/07 Q1033 RMK ATIS F;
0157104160999992013010420204+51517+007617FM-15+0148EDLW V0202801N005110018019N0060001N1+00801+00701999999ADDGA1071+001801999GF107991999999999999999999MA1103291999999MW1511MW2611REMMET076METAR EDLW 042020Z 28010KT 250V310 6000 -RADZ BKN006 08/07 Q1033 RMK ATIS G;
0169104160999992013010420504+51517+007617FM-15+0148EDLW V0202801N005710015019N0070001N1+00801+00701999999ADDGA1071+001501999GA2071+002701999GF107991999999999999999999MA1103291999999MW1511MW2611REMMET072METAR EDLW 042050Z 28011KT 240V320 7000 -RADZ BKN005 BKN009 08/07 Q1033;
0149104160999992013010504204+51517+007617FM-15+0148EDLW V0202701N003110027019N0090001N1+00801+00601999999ADDGA1071+002701999GF107991999999999999999999MA1103181999999MW1511REMMET074METAR EDLW 050420Z 27006KT 240V310 9000 -DZ BKN009 08/06 Q1032 RMK ATIS A;
0139104160999992013010504504+51517+007617FM-15+0148EDLW V0202601N003610039019N0112651N1+00801+00601999999ADDGA1071+003901999GF107991999999999999999999MA1103181999999REMMET070METAR EDLW 050450Z 26007KT 240V300 9999 BKN013 08/06 Q1032 RMK ATIS B;
0139104160999992013010505204+51517+007617FM-15+0148EDLW V0202701N004110033019N0112651N1+00701+00601999999ADDGA1071+003301999GF107991999999999999999999MA1103181999999REMMET070METAR EDLW 050520Z 27008KT 240V300 9999 BKN011 07/06 Q1032 RMK ATIS C;
0162104160999992013010505504+51517+007617FM-15+0148EDLW V0202701N003610063019N0112651N1+00701+00601999999ADDGA1041+003601999GA2071+006301999GF107991999999999999999999MA1103181999999REMMET077METAR EDLW 050550Z 27007KT 240V300 9999 SCT012 BKN021 07/06 Q1032 RMK ATIS D;
0162104160999992013010506204+51517+007617FM-15+0148EDLW V0202701N003110060019N0112651N1+00701+00601999999ADDGA1021+003301999GA2071+006001999GF107991999999999999999999MA1103181999999REMMET077METAR EDLW 050620Z 27006KT 230V290 9999 FEW011 BKN020 07/06 Q1032 RMK ATIS E;
0139104160999992013010506504+51517+007617FM-15+0148EDLW V0202701N003610057019N0112651N1+00701+00601999999ADDGA1071+005701999GF107991999999999999999999MA1103291999999REMMET070METAR EDLW 050650Z 27007KT 240V300 9999 BKN019 07/06 Q1033 RMK ATIS F;
0154104160999992013010507204+51517+007617FM-15+0148EDLW V0202601N003610057019N0080001N1+00701+00601999999ADDGA1041+003001999GA2071+005701999GF107991999999999999999999MA1103181999999REMMET069METAR EDLW 050720Z 26007KT 8000 SCT010 BKN019 07/06 Q1032 RMK ATIS G;
0154104160999992013010507504+51517+007617FM-15+0148EDLW V0202701N004110048019N0060001N1+00701+00601999999ADDGA1041+002701999GA2071+004801999GF107991999999999999999999MA1103291999999REMMET069METAR EDLW 050750Z 27008KT 6000 SCT009 BKN016 07/06 Q1033 RMK ATIS H;
0139104160999992013010508204+51517+007617FM-15+0148EDLW V0202801N004110045019N0070001N1+00701+00601999999ADDGA1071+004501999GF107991999999999999999999MA1103291999999REMMET070METAR EDLW 050820Z 28008KT 250V320 7000 BKN015 07/06 Q1033 RMK ATIS I;
0139104160999992013010508504+51517+007617FM-15+0148EDLW V0202701N003110045019N0090001N1+00701+00601999999ADDGA1081+004501999GF108991999999999999999999MA1103291999999REMMET070METAR EDLW 050850Z 27006KT 240V310 9000 OVC015 07/06 Q1033 RMK ATIS J;
0139104160999992013010509204+51517+007617FM-15+0148EDLW V0202701N003110048019N0112651N1+00701+00601999999ADDGA1081+004801999GF108991999999999999999999MA1103291999999REMMET070METAR EDLW 050920Z 27006KT 240V310 9999 OVC016 07/06 Q1033 RMK ATIS K;
0139104160999992013010509504+51517+007617FM-15+0148EDLW V0202701N003610051019N0112651N1+00801+00601999999ADDGA1071+005101999GF107991999999999999999999MA1103291999999REMMET070METAR EDLW 050950Z 27007KT 240V300 9999 BKN017 08/06 Q1033 RMK ATIS L;
0162104160999992013010510204+51517+007617FM-15+0148EDLW V0202701N004110051019N0112651N1+00801+00601999999ADDGA1041+003301999GA2071+005101999GF107991999999999999999999MA1103291999999REMMET077METAR EDLW 051020Z 27008KT 240V310 9999 SCT011 BKN017 08/06 Q1033 RMK ATIS M;
0139104160999992013010510504+51517+007617FM-15+0148EDLW V0202801N003610039019N0090001N1+00801+00601999999ADDGA1071+003901999GF107991999999999999999999MA1103291999999REMMET070METAR EDLW 051050Z 28007KT 240V320 9000 BKN013 08/06 Q1033 RMK ATIS N;
0139104160999992013010511204+51517+007617FM-15+0148EDLW V0202801N004110033019N0090001N1+00801+00601999999ADDGA1071+003301999GF107991999999999999999999MA1103291999999REMMET070METAR EDLW 051120Z 28008KT 250V310 9000 BKN011 08/06 Q1033 RMK ATIS O;
0139104160999992013010511504+51517+007617FM-15+0148EDLW V0202801N003110033019N0090001N1+00801+00601999999ADDGA1071+003301999GF107991999999999999999999MA1103291999999REMMET070METAR EDLW 051150Z 28006KT 240V330 9000 BKN011 08/06 Q1033 RMK ATIS P;
0139104160999992013010512204+51517+007617FM-15+0148EDLW V0202901N003110024019N0070001N1+00801+00601999999ADDGA1071+002401999GF107991999999999999999999MA1103291999999REMMET070METAR EDLW 051220Z 29006KT 250V320 7000 BKN008 08/06 Q1033 RMK ATIS Q;
0139104160999992013010512504+51517+007617FM-15+0148EDLW V0202801N003610027019N0090001N1+00801+00601999999ADDGA1071+002701999GF107991999999999999999999MA1103181999999REMMET070METAR EDLW 051250Z 28007KT 240V320 9000 BKN009 08/06 Q1032 RMK ATIS R;
0139104160999992013010513204+51517+007617FM-15+0148EDLW V0202801N003110027019N0080001N1+00801+00601999999ADDGA1081+002701999GF108991999999999999999999MA1103291999999REMMET070METAR EDLW 051320Z 28006KT 230V320 8000 OVC009 08/06 Q1033 RMK ATIS S;
0139104160999992013010513504+51517+007617FM-15+0148EDLW V0202901N002610027019N0070001N1+00801+00601999999ADDGA1071+002701999GF107991999999999999999999MA1103181999999REMMET070METAR EDLW 051350Z 29005KT 240V330 7000 BKN009 08/06 Q1032 RMK ATIS T;
0139104160999992013010514204+51517+007617FM-15+0148EDLW V0202801N003610027019N0070001N1+00701+00601999999ADDGA1071+002701999GF107991999999999999999999MA1103291999999REMMET070METAR EDLW 051420Z 28007KT 240V330 7000 BKN009 07/06 Q1033 RMK ATIS U;
0139104160999992013010514504+51517+007617FM-15+0148EDLW V0202801N003110030019N0070001N1+00701+00601999999ADDGA1081+003001999GF108991999999999999999999MA1103291999999REMMET070METAR EDLW 051450Z 28006KT 250V310 7000 OVC010 07/06 Q1033 RMK ATIS V;
0139104160999992013010515204+51517+007617FM-15+0148EDLW V0202801N002610024019N0070001N1+00701+00601999999ADDGA1071+002401999GF107991999999999999999999MA1103291999999REMMET070METAR EDLW 051520Z 28005KT 240V320 7000 BKN008 07/06 Q1033 RMK ATIS W;
0139104160999992013010515504+51517+007617FM-15+0148EDLW V0202801N002110030019N0080001N1+00701+00501999999ADDGA1071+003001999GF107991999999999999999999MA1103291999999REMMET070METAR EDLW 051550Z 28004KT 240V330 8000 BKN010 07/05 Q1033 RMK ATIS X;
0139104160999992013010516204+51517+007617FM-15+0148EDLW V0202801N002610033019N0090001N1+00701+00501999999ADDGA1071+003301999GF107991999999999999999999MA1103291999999REMMET070METAR EDLW 051620Z 28005KT 240V310 9000 BKN011 07/05 Q1033 RMK ATIS Y;
0139104160999992013010516504+51517+007617FM-15+0148EDLW V0202801N003110030019N0090001N1+00701+00501999999ADDGA1071+003001999GF107991999999999999999999MA1103291999999REMMET070METAR EDLW 051650Z 28006KT 250V320 9000 BKN010 07/05 Q1033 RMK ATIS Z;
0139104160999992013010517204+51517+007617FM-15+0148EDLW V0202801N003110033019N0080001N1+00701+00501999999ADDGA1081+003301999GF108991999999999999999999MA1103181999999REMMET070METAR EDLW 051720Z 28006KT 240V320 8000 OVC011 07/05 Q1032 RMK ATIS A;
0139104160999992013010517504+51517+007617FM-15+0148EDLW V0202901N002110039019N0090001N1+00701+00501999999ADDGA1071+003901999GF107991999999999999999999MA1103181999999REMMET070METAR EDLW 051750Z 29004KT 250V330 9000 BKN013 07/05 Q1032 RMK ATIS B;
0131104160999992013010518204+51517+007617FM-15+0148EDLW V0202601N002110027019N0090001N1+00701+00601999999ADDGA1071+002701999GF107991999999999999999999MA1103181999999REMMET062METAR EDLW 051820Z 26004KT 9000 BKN009 07/06 Q1032 RMK ATIS C;
0131104160999992013010518504+51517+007617FM-15+0148EDLW V0202501N002110027019N0070001N1+00701+00601999999ADDGA1081+002701999GF108991999999999999999999MA1103181999999REMMET062METAR EDLW 051850Z 25004KT 7000 OVC009 07/06 Q1032 RMK ATIS D;
0139104160999992013010519204+51517+007617FM-15+0148EDLW V0202601N002110030019N0070001N1+00701+00601999999ADDGA1081+003001999GF108991999999999999999999MA1103181999999REMMET070METAR EDLW 051920Z 26004KT 230V290 7000 OVC010 07/06 Q1032 RMK ATIS E;
0140104160999992013010519504+51517+007617FM-15+0148EDLW V0209999V001510012019N0050001N1+00701+00601999999ADDGA1081+001201999GF108991999999999999999999MA1103181999999MW1101REMMET065METAR EDLW 051950Z VRB03KT 5000 BR OVC004 07/06 Q1032 RMK ATIS F;
0139104160999992013010520204+51517+007617FM-15+0148EDLW V0202701N003110012019N0060001N1+00701+00601999999ADDGA1071+001201999GF107991999999999999999999MA1103181999999REMMET070METAR EDLW 052020Z 27006KT 240V310 6000 BKN004 07/06 Q1032 RMK ATIS G;
0139104160999992013010520504+51517+007617FM-15+0148EDLW V0202701N002110018019N0060001N1+00701+00601999999ADDGA1071+001801999GF107991999999999999999999MA1103181999999REMMET070METAR EDLW 052050Z 27004KT 240V300 6000 BKN006 07/06 Q1032 RMK ATIS H;
0140104160999992013010604204+51517+007617FM-15+0148EDLW V0202501N003110015019N0050001N1+00701+00601999999ADDGA1071+001501999GF107991999999999999999999MA1103011999999MW1101REMMET065METAR EDLW 060420Z 25006KT 5000 BR BKN005 07/06 Q1030 RMK ATIS A;
0131104160999992013010604504+51517+007617FM-15+0148EDLW V0202501N003610018019N0070001N1+00701+00601999999ADDGA1071+001801999GF107991999999999999999999MA1102911999999REMMET062METAR EDLW 060450Z 25007KT 7000 BKN006 07/06 Q1029 RMK ATIS B;
0131104160999992013010605204+51517+007617FM-15+0148EDLW V0202401N003610021019N0070001N1+00701+00601999999ADDGA1071+002101999GF107991999999999999999999MA1102911999999REMMET062METAR EDLW 060520Z 24007KT 7000 BKN007 07/06 Q1029 RMK ATIS C;
0131104160999992013010605504+51517+007617FM-15+0148EDLW V0202501N003610024019N0070001N1+00701+00601999999ADDGA1071+002401999GF107991999999999999999999MA1102911999999REMMET062METAR EDLW 060550Z 25007KT 7000 BKN008 07/06 Q1029 RMK ATIS D;
0131104160999992013010606204+51517+007617FM-15+0148EDLW V0202501N003110060019N0070001N1+00701+00601999999ADDGA1071+006001999GF107991999999999999999999MA1102911999999REMMET062METAR EDLW 060620Z 25006KT 7000 BKN020 07/06 Q1029 RMK ATIS E;
0131104160999992013010606504+51517+007617FM-15+0148EDLW V0202501N003610030019N0080001N1+00701+00601999999ADDGA1071+003001999GF107991999999999999999999MA1102911999999REMMET062METAR EDLW 060650Z 25007KT 8000 BKN010 07/06 Q1029 RMK ATIS F;
0131104160999992013010607204+51517+007617FM-15+0148EDLW V0202601N003610024019N0060001N1+00701+00601999999ADDGA1071+002401999GF107991999999999999999999MA1102911999999REMMET062METAR EDLW 060720Z 26007KT 6000 BKN008 07/06 Q1029 RMK ATIS G;
0140104160999992013010607504+51517+007617FM-15+0148EDLW V0202501N004110036019N0050001N1+00701+00601999999ADDGA1071+003601999GF107991999999999999999999MA1102911999999MW1101REMMET065METAR EDLW 060750Z 25008KT 5000 BR BKN012 07/06 Q1029 RMK ATIS H;
0139104160999992013010608204+51517+007617FM-15+0148EDLW V0202701N004110033019N0060001N1+00701+00601999999ADDGA1071+003301999GF107991999999999999999999MA1102911999999REMMET070METAR EDLW 060820Z 27008KT 230V300 6000 BKN011 07/06 Q1029 RMK ATIS I;
0148104160999992013010608504+51517+007617FM-15+0148EDLW V0202701N004610021019N0045001N1+00701+00601999999ADDGA1071+002101999GF107991999999999999999999MA1102911999999MW1101REMMET073METAR EDLW 060850Z 27009KT 240V300 4500 BR BKN007 07/06 Q1029 RMK ATIS J;
0139104160999992013010609204+51517+007617FM-15+0148EDLW V0202701N003610024019N0060001N1+00801+00601999999ADDGA1071+002401999GF107991999999999999999999MA1102911999999REMMET070METAR EDLW 060920Z 27007KT 250V310 6000 BKN008 08/06 Q1029 RMK ATIS K;
0139104160999992013010609504+51517+007617FM-15+0148EDLW V0202801N003610021019N0060001N1+00801+00601999999ADDGA1071+002101999GF107991999999999999999999MA1102911999999REMMET070METAR EDLW 060950Z 28007KT 240V340 6000 BKN007 08/06 Q1029 RMK ATIS L;
0139104160999992013010610204+51517+007617FM-15+0148EDLW V0202701N003610021019N0060001N1+00801+00601999999ADDGA1071+002101999GF107991999999999999999999MA1102911999999REMMET070METAR EDLW 061020Z 27007KT 240V300 6000 BKN007 08/06 Q1029 RMK ATIS M;
0140104160999992013010611204+51517+007617FM-15+0148EDLW V0202601N003610015019N0025001N1+00801+00701999999ADDGA1081+001501999GF108991999999999999999999MA1102811999999MW1101REMMET065METAR EDLW 061120Z 26007KT 2500 BR OVC005 08/07 Q1028 RMK ATIS O;
0148104160999992013010611504+51517+007617FM-15+0148EDLW V0202701N004110015019N0030001N1+00801+00701999999ADDGA1081+001501999GF108991999999999999999999MA1102811999999MW1101REMMET073METAR EDLW 061150Z 27008KT 240V310 3000 BR OVC005 08/07 Q1028 RMK ATIS P;
0148104160999992013010612204+51517+007617FM-15+0148EDLW V0202801N003610015019N0030001N1+00801+00701999999ADDGA1081+001501999GF108991999999999999999999MA1102811999999MW1101REMMET073METAR EDLW 061220Z 28007KT 240V320 3000 BR OVC005 08/07 Q1028 RMK ATIS Q;
0148104160999992013010612504+51517+007617FM-15+0148EDLW V0202801N004110015019N0050001N1+00801+00701999999ADDGA1081+001501999GF108991999999999999999999MA1102811999999MW1101REMMET073METAR EDLW 061250Z 28008KT 230V320 5000 BR OVC005 08/07 Q1028 RMK ATIS R;
0148104160999992013010613204+51517+007617FM-15+0148EDLW V0202801N004110024019N0045001N1+00801+00701999999ADDGA1081+002401999GF108991999999999999999999MA1102811999999MW1101REMMET073METAR EDLW 061320Z 28008KT 240V320 4500 BR OVC008 08/07 Q1028 RMK ATIS S;
0148104160999992013010613504+51517+007617FM-15+0148EDLW V0202801N004110024019N0050001N1+00801+00701999999ADDGA1071+002401999GF107991999999999999999999MA1102811999999MW1101REMMET073METAR EDLW 061350Z 28008KT 250V330 5000 BR BKN008 08/07 Q1028 RMK ATIS T;
0139104160999992013010614204+51517+007617FM-15+0148EDLW V0202801N003110021019N0060001N1+00801+00701999999ADDGA1071+002101999GF107991999999999999999999MA1102811999999REMMET070METAR EDLW 061420Z 28006KT 240V330 6000 BKN007 08/07 Q1028 RMK ATIS U;
0139104160999992013010614504+51517+007617FM-15+0148EDLW V0202801N003610045019N0060001N1+00801+00701999999ADDGA1071+004501999GF107991999999999999999999MA1102811999999REMMET070METAR EDLW 061450Z 28007KT 250V320 6000 BKN015 08/07 Q1028 RMK ATIS V;
0139104160999992013010615204+51517+007617FM-15+0148EDLW V0202801N003110033019N0060001N1+00801+00701999999ADDGA1071+003301999GF107991999999999999999999MA1102811999999REMMET070METAR EDLW 061520Z 28006KT 250V330 6000 BKN011 08/07 Q1028 RMK ATIS W;
0149104160999992013010615504+51517+007617FM-15+0148EDLW V0202801N002610033019N0060001N1+00801+00701999999ADDGA1071+003301999GF107991999999999999999999MA1102811999999MW1511REMMET074METAR EDLW 061550Z 28005KT 240V310 6000 -DZ BKN011 08/07 Q1028 RMK ATIS X;
0171104160999992013010616204+51517+007617FM-15+0148EDLW V0202801N002610033019N0080001N1+00801+00601999999ADDGA1071+003301999GA2071+006601999GF107991999999999999999999MA1102811999999MW1531REMMET080METAR EDLW 061620Z 28005KT 240V320 8000 DZ BKN011 BKN022 08/06 Q1028 RMK ATIS Y;
0149104160999992013010616504+51517+007617FM-15+0148EDLW V0202901N003110033019N0090001N1+00801+00601999999ADDGA1071+003301999GF107991999999999999999999MA1102811999999MW1511REMMET074METAR EDLW 061650Z 29006KT 250V320 9000 -DZ BKN011 08/06 Q1028 RMK ATIS Z;
0139104160999992013010617204+51517+007617FM-15+0148EDLW V0203001N003110036019N0112651N1+00801+00601999999ADDGA1071+003601999GF107991999999999999999999MA1102811999999REMMET070METAR EDLW 061720Z 30006KT 250V340 9999 BKN012 08/06 Q1028 RMK ATIS A;
0162104160999992013010617504+51517+007617FM-15+0148EDLW V0203001N002610030019N0112651N1+00801+00601999999ADDGA1071+003001999GA2071+005401999GF107991999999999999999999MA1102811999999REMMET077METAR EDLW 061750Z 30005KT 250V330 9999 BKN010 BKN018 08/06 Q1028 RMK ATIS B;
0139104160999992013010618204+51517+007617FM-15+0148EDLW V0202801N003110036019N0112651N1+00801+00601999999ADDGA1071+003601999GF107991999999999999999999MA1102811999999REMMET070METAR EDLW 061820Z 28006KT 240V320 9999 BKN012 08/06 Q1028 RMK ATIS C;
0139104160999992013010618504+51517+007617FM-15+0148EDLW V0202701N003610048019N0112651N1+00801+00601999999ADDGA1071+004801999GF107991999999999999999999MA1102811999999REMMET070METAR EDLW 061850Z 27007KT 240V300 9999 BKN016 08/06 Q1028 RMK ATIS D;
0139104160999992013010619204+51517+007617FM-15+0148EDLW V0202701N003110051019N0112651N1+00801+00601999999ADDGA1071+005101999GF107991999999999999999999MA1102911999999REMMET070METAR EDLW 061920Z 27006KT 240V320 9999 BKN017 08/06 Q1029 RMK ATIS E;
0079104160999992013010619504+51517+007617FM-15+0148EDLW V0202801N002612200019N0112651N1+00801+00601999999ADDMA1102911999999REMMET052METAR EDLW 061950Z 28005KT 240V330 9999 08/06 Q1029;
0139104160999992013010620204+51517+007617FM-15+0148EDLW V0202801N003610051019N0112651N1+00801+00501999999ADDGA1071+005101999GF107991999999999999999999MA1102911999999REMMET070METAR EDLW 062020Z 28007KT 250V310 9999 BKN017 08/05 Q1029 RMK ATIS G;
0139104160999992013010620504+51517+007617FM-15+0148EDLW V0202801N003110039019N0112651N1+00801+00601999999ADDGA1071+003901999GF107991999999999999999999MA1102911999999REMMET070METAR EDLW 062050Z 28006KT 240V330 9999 BKN013 08/06 Q1029 RMK ATIS H;
0139104160999992013010621204+51517+007617FM-15+0148EDLW V0202801N002610042019N0090001N1+00801+00601999999ADDGA1071+004201999GF107991999999999999999999MA1102911999999REMMET070METAR EDLW 062120Z 28005KT 240V320 9000 BKN014 08/06 Q1029 RMK ATIS I;
0139104160999992013010704204+51517+007617FM-15+0148EDLW V0202801N002110018019N0050001N1+00701+00601999999ADDGA1071+001801999GF107991999999999999999999MA1102811999999REMMET070METAR EDLW 070420Z 28004KT 250V330 5000 BKN006 07/06 Q1028 RMK ATIS A;
0139104160999992013010704504+51517+007617FM-15+0148EDLW V0202801N002610018019N0070001N1+00701+00601999999ADDGA1071+001801999GF107991999999999999999999MA1102811999999REMMET070METAR EDLW 070450Z 28005KT 230V310 7000 BKN006 07/06 Q1028 RMK ATIS B;
0139104160999992013010705204+51517+007617FM-15+0148EDLW V0202801N002110018019N0080001N1+00701+00601999999ADDGA1071+001801999GF107991999999999999999999MA1102811999999REMMET070METAR EDLW 070520Z 28004KT 250V320 8000 BKN006 07/06 Q1028 RMK ATIS C;
0139104160999992013010705504+51517+007617FM-15+0148EDLW V0202901N002110015019N0070001N1+00701+00601999999ADDGA1071+001501999GF107991999999999999999999MA1102811999999REMMET070METAR EDLW 070550Z 29004KT 260V330 7000 BKN005 07/06 Q1028 RMK ATIS D;
0131104160999992013010706204+51517+007617FM-15+0148EDLW V0209999V001510015019N0070001N1+00701+00601999999ADDGA1071+001501999GF107991999999999999999999MA1102811999999REMMET062METAR EDLW 070620Z VRB03KT 7000 BKN005 07/06 Q1028 RMK ATIS E;
0131104160999992013010706504+51517+007617FM-15+0148EDLW V0209999V001510018019N0070001N1+00701+00601999999ADDGA1071+001801999GF107991999999999999999999MA1102811999999REMMET062METAR EDLW 070650Z VRB03KT 7000 BKN006 07/06 Q1028 RMK ATIS F;
0140104160999992013010707204+51517+007617FM-15+0148EDLW V0202501N001510018019N0045001N1+00701+00601999999ADDGA1071+001801999GF107991999999999999999999MA1102811999999MW1101REMMET065METAR EDLW 070720Z 25003KT 4500 BR BKN006 07/06 Q1028 RMK ATIS G;
0140104160999992013010707504+51517+007617FM-15+0148EDLW V0202301N003610027019N0045001N1+00701+00601999999ADDGA1071+002701999GF107991999999999999999999MA1102811999999MW1101REMMET065METAR EDLW 070750Z 23007KT 4500 BR BKN009 07/06 Q1028 RMK ATIS H;
0140104160999992013010708204+51517+007617FM-15+0148EDLW V0202301N002110021019N0045001N1+00701+00601999999ADDGA1071+002101999GF107991999999999999999999MA1102811999999MW1101REMMET065METAR EDLW 070820Z 23004KT 4500 BR BKN007 07/06 Q1028 RMK ATIS I;
0140104160999992013010708504+51517+007617FM-15+0148EDLW V0202301N002610021019N0045001N1+00701+00601999999ADDGA1071+002101999GF107991999999999999999999MA1102811999999MW1101REMMET065METAR EDLW 070850Z 23005KT 4500 BR BKN007 07/06 Q1028 RMK ATIS J;
0140104160999992013010709204+51517+007617FM-15+0148EDLW V0202501N002110021019N0045001N1+00801+00601999999ADDGA1071+002101999GF107991999999999999999999MA1102811999999MW1101REMMET065METAR EDLW 070920Z 25004KT 4500 BR BKN007 08/06 Q1028 RMK ATIS K;
0140104160999992013010709504+51517+007617FM-15+0148EDLW V0202401N003110021019N0045001N1+00801+00601999999ADDGA1071+002101999GF107991999999999999999999MA1102811999999MW1101REMMET065METAR EDLW 070950Z 24006KT 4500 BR BKN007 08/06 Q1028 RMK ATIS L;
0140104160999992013010710204+51517+007617FM-15+0148EDLW V0202501N003610027019N0045001N1+00801+00601999999ADDGA1071+002701999GF107991999999999999999999MA1102811999999MW1101REMMET065METAR EDLW 071020Z 25007KT 4500 BR BKN009 08/06 Q1028 RMK ATIS M;
0148104160999992013010710504+51517+007617FM-15+0148EDLW V0202501N003112200019N0045001N1+00801+00601999999ADDGA1041+002101999GF104991999999999999999999MA1102811999999MW1101REMMET073METAR EDLW 071050Z 25006KT 220V280 4500 BR SCT007 08/06 Q1028 RMK ATIS N;
0163104160999992013010711204+51517+007617FM-15+0148EDLW V0202401N003110060019N0050001N1+00801+00601999999ADDGA1021+002101999GA2071+006001999GF107991999999999999999999MA1102811999999MW1101REMMET072METAR EDLW 071120Z 24006KT 5000 BR FEW007 BKN020 08/06 Q1028 RMK ATIS O;
0140104160999992013010711504+51517+007617FM-15+0148EDLW V0202401N003610060019N0050001N1+00801+00601999999ADDGA1071+006001999GF107991999999999999999999MA1102811999999MW1101REMMET065METAR EDLW 071150Z 24007KT 5000 BR BKN020 08/06 Q1028 RMK ATIS P;
0131104160999992013010712204+51517+007617FM-15+0148EDLW V0202301N003610060019N0112651N1+00801+00501999999ADDGA1071+006001999GF107991999999999999999999MA1102711999999REMMET062METAR EDLW 071220Z 23007KT 9999 BKN020 08/05 Q1027 RMK ATIS Q;
0131104160999992013010712504+51517+007617FM-15+0148EDLW V0202401N002610051019N0060001N1+00801+00501999999ADDGA1071+005101999GF107991999999999999999999MA1102711999999REMMET062METAR EDLW 071250Z 24005KT 6000 BKN017 08/05 Q1027 RMK ATIS R;
0131104160999992013010713204+51517+007617FM-15+0148EDLW V0202301N003110048019N0080001N1+00801+00501999999ADDGA1071+004801999GF107991999999999999999999MA1102711999999REMMET062METAR EDLW 071320Z 23006KT 8000 BKN016 08/05 Q1027 RMK ATIS S;
0139104160999992013010713504+51517+007617FM-15+0148EDLW V0202401N002610054019N0090001N1+00801+00501999999ADDGA1071+005401999GF107991999999999999999999MA1102711999999REMMET070METAR EDLW 071350Z 24005KT 210V270 9000 BKN018 08/05 Q1027 RMK ATIS T;
0131104160999992013010714204+51517+007617FM-15+0148EDLW V0202201N002610057019N0090001N1+00801+00501999999ADDGA1071+005701999GF107991999999999999999999MA1102711999999REMMET062METAR EDLW 071420Z 22005KT 9000 BKN019 08/05 Q1027 RMK ATIS U;
0131104160999992013010714504+51517+007617FM-15+0148EDLW V0202401N003110048019N0070001N1+00801+00501999999ADDGA1071+004801999GF107991999999999999999999MA1102711999999REMMET062METAR EDLW 071450Z 24006KT 7000 BKN016 08/05 Q1027 RMK ATIS V;
0131104160999992013010715204+51517+007617FM-15+0148EDLW V0202301N002610048019N0070001N1+00801+00501999999ADDGA1071+004801999GF107991999999999999999999MA1102711999999REMMET062METAR EDLW 071520Z 23005KT 7000 BKN016 08/05 Q1027 RMK ATIS W;
0131104160999992013010715504+51517+007617FM-15+0148EDLW V0202301N003110054019N0070001N1+00801+00501999999ADDGA1071+005401999GF107991999999999999999999MA1102711999999REMMET062METAR EDLW 071550Z 23006KT 7000 BKN018 08/05 Q1027 RMK ATIS X;
0131104160999992013010716204+51517+007617FM-15+0148EDLW V0202301N003110066019N0080001N1+00801+00501999999ADDGA1071+006601999GF107991999999999999999999MA1102611999999REMMET062METAR EDLW 071620Z 23006KT 8000 BKN022 08/05 Q1026 RMK ATIS Y;
0131104160999992013010716504+51517+007617FM-15+0148EDLW V0202401N003110066019N0080001N1+00801+00501999999ADDGA1071+006601999GF107991999999999999999999MA1102611999999REMMET062METAR EDLW 071650Z 24006KT 8000 BKN022 08/05 Q1026 RMK ATIS Z;
0131104160999992013010717204+51517+007617FM-15+0148EDLW V0202301N003110075019N0090001N1+00801+00501999999ADDGA1071+007501999GF107991999999999999999999MA1102611999999REMMET062METAR EDLW 071720Z 23006KT 9000 BKN025 08/05 Q1026 RMK ATIS A;
0131104160999992013010717504+51517+007617FM-15+0148EDLW V0202401N003110081019N0090001N1+00801+00501999999ADDGA1071+008101999GF107991999999999999999999MA1102611999999REMMET062METAR EDLW 071750Z 24006KT 9000 BKN027 08/05 Q1026 RMK ATIS B;
0131104160999992013010718204+51517+007617FM-15+0148EDLW V0202301N002610078019N0112651N1+00701+00401999999ADDGA1071+007801999GF107991999999999999999999MA1102611999999REMMET062METAR EDLW 071820Z 23005KT 9999 BKN026 07/04 Q1026 RMK ATIS C;
0131104160999992013010718504+51517+007617FM-15+0148EDLW V0202301N003110069019N0112651N1+00701+00401999999ADDGA1071+006901999GF107991999999999999999999MA1102611999999REMMET062METAR EDLW 071850Z 23006KT 9999 BKN023 07/04 Q1026 RMK ATIS D;
0131104160999992013010719204+51517+007617FM-15+0148EDLW V0202201N003610054019N0112651N1+00701+00401999999ADDGA1081+005401999GF108991999999999999999999MA1102611999999REMMET062METAR EDLW 071920Z 22007KT 9999 OVC018 07/04 Q1026 RMK ATIS E;
0131104160999992013010719504+51517+007617FM-15+0148EDLW V0202101N003110066019N0112651N1+00701+00401999999ADDGA1071+006601999GF107991999999999999999999MA1102611999999REMMET062METAR EDLW 071950Z 21006KT 9999 BKN022 07/04 Q1026 RMK ATIS F;
0131104160999992013010720204+51517+007617FM-15+0148EDLW V0202001N003110066019N0112651N1+00701+00401999999ADDGA1071+006601999GF107991999999999999999999MA1102611999999REMMET062METAR EDLW 072020Z 20006KT 9999 BKN022 07/04 Q1026 RMK ATIS G;
0120104160999992013010720504+51517+007617FM-15+0148EDLW V0202301N002610054019N0112651N1+00701+00401999999ADDGA1071+005401999GF107991999999999999999999MA1102611999999REMMET051METAR EDLW 072050Z 23005KT 9999 BKN018 07/04 Q1026;
0131104160999992013010804204+51517+007617FM-15+0148EDLW V0202601N004610021019N0060001N1+00501+00401999999ADDGA1071+002101999GF107991999999999999999999MA1102401999999REMMET062METAR EDLW 080420Z 26009KT 6000 BKN007 05/04 Q1024 RMK ATIS A;
0139104160999992013010804504+51517+007617FM-15+0148EDLW V0202601N003610018019N0060001N1+00501+00401999999ADDGA1071+001801999GF107991999999999999999999MA1102401999999REMMET070METAR EDLW 080450Z 26007KT 230V300 6000 BKN006 05/04 Q1024 RMK ATIS B;
0131104160999992013010805204+51517+007617FM-15+0148EDLW V0202401N004610024019N0070001N1+00501+00401999999ADDGA1071+002401999GF107991999999999999999999MA1102401999999REMMET062METAR EDLW 080520Z 24009KT 7000 BKN008 05/04 Q1024 RMK ATIS C;
0131104160999992013010805504+51517+007617FM-15+0148EDLW V0202401N004610018019N0070001N1+00501+00401999999ADDGA1071+001801999GF107991999999999999999999MA1102511999999REMMET062METAR EDLW 080550Z 24009KT 7000 BKN006 05/04 Q1025 RMK ATIS D;
0131104160999992013010806204+51517+007617FM-15+0148EDLW V0202301N004610021019N0060001N1+00501+00401999999ADDGA1071+002101999GF107991999999999999999999MA1102511999999REMMET062METAR EDLW 080620Z 23009KT 6000 BKN007 05/04 Q1025 RMK ATIS E;
0140104160999992013010806504+51517+007617FM-15+0148EDLW V0202401N004110018019N0050001N1+00501+00401999999ADDGA1071+001801999GF107991999999999999999999MA1102511999999MW1101REMMET065METAR EDLW 080650Z 24008KT 5000 BR BKN006 05/04 Q1025 RMK ATIS F;
0131104160999992013010807204+51517+007617FM-15+0148EDLW V0202301N004610021019N0060001N1+00501+00401999999ADDGA1071+002101999GF107991999999999999999999MA1102511999999REMMET062METAR EDLW 080720Z 23009KT 6000 BKN007 05/04 Q1025 RMK ATIS G;
0163104160999992013010807504+51517+007617FM-15+0148EDLW V0202301N004110024019N0050001N1+00501+00401999999ADDGA1071+002401999GA2071+007501999GF107991999999999999999999MA1102401999999MW1101REMMET072METAR EDLW 080750Z 23008KT 5000 BR BKN008 BKN025 05/04 Q1024 RMK ATIS H;
0131104160999992013010808204+51517+007617FM-15+0148EDLW V0202401N004610018019N0060001N1+00501+00401999999ADDGA1071+001801999GF107991999999999999999999MA1102511999999REMMET062METAR EDLW 080820Z 24009KT 6000 BKN006 05/04 Q1025 RMK ATIS I;
0140104160999992013010808504+51517+007617FM-15+0148EDLW V0202301N005110018019N0050001N1+00501+00401999999ADDGA1071+001801999GF107991999999999999999999MA1102511999999MW1101REMMET065METAR EDLW 080850Z 23010KT 5000 BR BKN006 05/04 Q1025 RMK ATIS J;
0131104160999992013010809204+51517+007617FM-15+0148EDLW V0202301N005110018019N0060001N1+00501+00401999999ADDGA1081+001801999GF108991999999999999999999MA1102511999999REMMET062METAR EDLW 080920Z 23010KT 6000 OVC006 05/04 Q1025 RMK ATIS K;
0140104160999992013010809504+51517+007617FM-15+0148EDLW V0202301N006710015019N0050001N1+00501+00401999999ADDGA1081+001501999GF108991999999999999999999MA1102511999999MW1101REMMET065METAR EDLW 080950Z 23013KT 5000 BR OVC005 05/04 Q1025 RMK ATIS L;
0140104160999992013010810204+51517+007617FM-15+0148EDLW V0202301N005710018019N0050001N1+00601+00401999999ADDGA1081+001801999GF108991999999999999999999MA1102511999999MW1101REMMET065METAR EDLW 081020Z 23011KT 5000 BR OVC006 06/04 Q1025 RMK ATIS M;
0131104160999992013010810504+51517+007617FM-15+0148EDLW V0202301N005710021019N0060001N1+00601+00401999999ADDGA1071+002101999GF107991999999999999999999MA1102401999999REMMET062METAR EDLW 081050Z 23011KT 6000 BKN007 06/04 Q1024 RMK ATIS N;
0131104160999992013010811204+51517+007617FM-15+0148EDLW V0202401N004610021019N0060001N1+00601+00501999999ADDGA1071+002101999GF107991999999999999999999MA1102401999999REMMET062METAR EDLW 081120Z 24009KT 6000 BKN007 06/05 Q1024 RMK ATIS O;
0131104160999992013010811504+51517+007617FM-15+0148EDLW V0202301N005110021019N0060001N1+00601+00501999999ADDGA1081+002101999GF108991999999999999999999MA1102401999999REMMET062METAR EDLW 081150Z 23010KT 6000 OVC007 06/05 Q1024 RMK ATIS P;
0131104160999992013010812204+51517+007617FM-15+0148EDLW V0202401N005110030019N0060001N1+00701+00501999999ADDGA1081+003001999GF108991999999999999999999MA1102401999999REMMET062METAR EDLW 081220Z 24010KT 6000 OVC010 07/05 Q1024 RMK ATIS Q;
0131104160999992013010812504+51517+007617FM-15+0148EDLW V0202401N004610021019N0060001N1+00701+00501999999ADDGA1081+002101999GF108991999999999999999999MA1102401999999REMMET062METAR EDLW 081250Z 24009KT 6000 OVC007 07/05 Q1024 RMK ATIS R;
0131104160999992013010813204+51517+007617FM-15+0148EDLW V0202401N004610030019N0060001N1+00701+00501999999ADDGA1081+003001999GF108991999999999999999999MA1102401999999REMMET062METAR EDLW 081320Z 24009KT 6000 OVC010 07/05 Q1024 RMK ATIS S;
0131104160999992013010813504+51517+007617FM-15+0148EDLW V0202401N004110036019N0070001N1+00701+00501999999ADDGA1081+003601999GF108991999999999999999999MA1102401999999REMMET062METAR EDLW 081350Z 24008KT 7000 OVC012 07/05 Q1024 RMK ATIS T;
0165104160999992013010814204+51517+007617FM-15+0148EDLW V0202401N004610045019N0070001N1+00701+00501999999ADDGA1041+003601999GA2081+004501999GF108991999999999999999999MA1102401999999REMMET080METAR EDLW 081420Z 24009KT 7000 SCT012 OVC015 07/05 Q1024 RMK VOR/DME 24 ATIS U;
0131104160999992013010814504+51517+007617FM-15+0148EDLW V0202401N004110045019N0080001N1+00701+00501999999ADDGA1081+004501999GF108991999999999999999999MA1102401999999REMMET062METAR EDLW 081450Z 24008KT 8000 OVC015 07/05 Q1024 RMK ATIS V;
0154104160999992013010815204+51517+007617FM-15+0148EDLW V0202401N004610075019N0080001N1+00701+00401999999ADDGA1041+004501999GA2081+007501999GF108991999999999999999999MA1102401999999REMMET069METAR EDLW 081520Z 24009KT 8000 SCT015 OVC025 07/04 Q1024 RMK ATIS W;
0131104160999992013010815504+51517+007617FM-15+0148EDLW V0202401N004610075019N0080001N1+00701+00401999999ADDGA1081+007501999GF108991999999999999999999MA1102401999999REMMET062METAR EDLW 081550Z 24009KT 8000 OVC025 07/04 Q1024 RMK ATIS X;
0154104160999992013010816204+51517+007617FM-15+0148EDLW V0202401N003610069019N0090001N1+00701+00401999999ADDGA1021+003601999GA2081+006901999GF108991999999999999999999MA1102401999999REMMET069METAR EDLW 081620Z 24007KT 9000 FEW012 OVC023 07/04 Q1024 RMK ATIS Y;
0154104160999992013010816504+51517+007617FM-15+0148EDLW V0202401N003610090019N0090001N1+00701+00401999999ADDGA1021+003901999GA2081+009001999GF108991999999999999999999MA1102401999999REMMET069METAR EDLW 081650Z 24007KT 9000 FEW013 OVC030 07/04 Q1024 RMK ATIS Z;
0131104160999992013010817204+51517+007617FM-15+0148EDLW V0202301N004110045019N0112651N1+00701+00401999999ADDGA1081+004501999GF108991999999999999999999MA1102401999999REMMET062METAR EDLW 081720Z 23008KT 9999 OVC015 07/04 Q1024 RMK ATIS A;
0131104160999992013010817504+51517+007617FM-15+0148EDLW V0202401N004110045019N0112651N1+00701+00401999999ADDGA1071+004501999GF107991999999999999999999MA1102401999999REMMET062METAR EDLW 081750Z 24008KT 9999 BKN015 07/04 Q1024 RMK ATIS B;
0120104160999992013010818204+51517+007617FM-15+0148EDLW V0202401N004610045019N0112651N1+00701+00401999999ADDGA1071+004501999GF107991999999999999999999MA1102401999999REMMET051METAR EDLW 081820Z 24009KT 9999 BKN015 07/04 Q1024;
0143104160999992013010818504+51517+007617FM-15+0148EDLW V0202401N004610093019N0112651N1+00701+00401999999ADDGA1021+004501999GA2071+009301999GF107991999999999999999999MA1102401999999REMMET058METAR EDLW 081850Z 24009KT 9999 FEW015 BKN031 07/04 Q1024;
0131104160999992013010819204+51517+007617FM-15+0148EDLW V0202401N004610099019N0112651N1+00701+00401999999ADDGA1071+009901999GF107991999999999999999999MA1102401999999REMMET062METAR EDLW 081920Z 24009KT 9999 BKN033 07/04 Q1024 RMK ATIS E;
0131104160999992013010819504+51517+007617FM-15+0148EDLW V0202401N005110078019N0112651N1+00701+00401999999ADDGA1071+007801999GF107991999999999999999999MA1102401999999REMMET062METAR EDLW 081950Z 24010KT 9999 BKN026 07/04 Q1024 RMK ATIS F;
0131104160999992013010820204+51517+007617FM-15+0148EDLW V0202401N005110093019N0112651N1+00701+00401999999ADDGA1071+009301999GF107991999999999999999999MA1102401999999REMMET062METAR EDLW 082020Z 24010KT 9999 BKN031 07/04 Q1024 RMK ATIS G;
0120104160999992013010820504+51517+007617FM-15+0148EDLW V0202301N004610087019N0112651N1+00701+00401999999ADDGA1071+008701999GF107991999999999999999999MA1102401999999REMMET051METAR EDLW 082050Z 23009KT 9999 BKN029 07/04 Q1024;
0141104160999992013010904204+51517+007617FM-15+0148EDLW V0202301N004110030019N0080001N1+00601+00401999999ADDGA1071+003001999GF107991999999999999999999MA1102201999999MW1511REMMET066METAR EDLW 090420Z 23008KT 8000 -DZ BKN010 06/04 Q1022 RMK ATIS A;
0141104160999992013010904504+51517+007617FM-15+0148EDLW V0202201N005110024019N0070001N1+00601+00401999999ADDGA1071+002401999GF107991999999999999999999MA1102101999999MW1511REMMET066METAR EDLW 090450Z 22010KT 7000 -DZ BKN008 06/04 Q1021 RMK ATIS B;
0141104160999992013010905204+51517+007617FM-15+0148EDLW V0202201N005710027019N0070001N1+00601+00401999999ADDGA1071+002701999GF107991999999999999999999MA1102101999999MW1511REMMET066METAR EDLW 090520Z 22011KT 7000 -DZ BKN009 06/04 Q1021 RMK ATIS C;
0141104160999992013010905504+51517+007617FM-15+0148EDLW V0202101N006210030019N0070001N1+00601+00401999999ADDGA1071+003001999GF107991999999999999999999MA1102101999999MW1511REMMET066METAR EDLW 090550Z 21012KT 7000 -DZ BKN010 06/04 Q1021 RMK ATIS D;
0131104160999992013010906204+51517+007617FM-15+0148EDLW V0202201N006210024019N0070001N1+00601+00401999999ADDGA1071+002401999GF107991999999999999999999MA1102001999999REMMET062METAR EDLW 090620Z 22012KT 7000 BKN008 06/04 Q1020 RMK ATIS E;
0141104160999992013010906504+51517+007617FM-15+0148EDLW V0202101N006210027019N0070001N1+00601+00401999999ADDGA1071+002701999GF107991999999999999999999MA1102001999999MW1511REMMET066METAR EDLW 090650Z 21012KT 7000 -DZ BKN009 06/04 Q1020 RMK ATIS F;
0141104160999992013010907204+51517+007617FM-15+0148EDLW V0202201N006210021019N0060001N1+00501+00401999999ADDGA1071+002101999GF107991999999999999999999MA1102001999999MW1511REMMET066METAR EDLW 090720Z 22012KT 6000 -DZ BKN007 05/04 Q1020 RMK ATIS G;
0141104160999992013010907504+51517+007617FM-15+0148EDLW V0202201N006210027019N0050001N1+00501+00401999999ADDGA1071+002701999GF107991999999999999999999MA1102001999999MW1511REMMET066METAR EDLW 090750Z 22012KT 5000 -DZ BKN009 05/04 Q1020 RMK ATIS H;
0141104160999992013010908204+51517+007617FM-15+0148EDLW V0202201N005710024019N0050001N1+00501+00401999999ADDGA1071+002401999GF107991999999999999999999MA1102001999999MW1511REMMET066METAR EDLW 090820Z 22011KT 5000 -DZ BKN008 05/04 Q1020 RMK ATIS I;
0150104160999992013010908504+51517+007617FM-15+0148EDLW V0202201N006210030019N0040001N1+00501+00401999999ADDGA1071+003001999GF107991999999999999999999MA1102001999999MW1101MW2511REMMET069METAR EDLW 090850Z 22012KT 4000 -DZ BR BKN010 05/04 Q1020 RMK ATIS J;
0150104160999992013010909204+51517+007617FM-15+0148EDLW V0202201N006210015019N0040001N1+00501+00401999999ADDGA1071+001501999GF107991999999999999999999MA1102001999999MW1101MW2511REMMET069METAR EDLW 090920Z 22012KT 4000 -DZ BR BKN005 05/04 Q1020 RMK ATIS K;
0150104160999992013010909504+51517+007617FM-15+0148EDLW V0202201N006710021019N0030001N1+00501+00401999999ADDGA1071+002101999GF107991999999999999999999MA1102001999999MW1101MW2511REMMET069METAR EDLW 090950Z 22013KT 3000 -DZ BR BKN007 05/04 Q1020 RMK ATIS L;
0150104160999992013010910204+51517+007617FM-15+0148EDLW V0202201N007210027019N0030001N1+00501+00401999999ADDGA1081+002701999GF108991999999999999999999MA1101901999999MW1101MW2511REMMET069METAR EDLW 091020Z 22014KT 3000 -DZ BR OVC009 05/04 Q1019 RMK ATIS M;
0140104160999992013010910504+51517+007617FM-15+0148EDLW V0202201N007210021019N0030001N1+00501+00401999999ADDGA1071+002101999GF107991999999999999999999MA1101901999999MW1531REMMET065METAR EDLW 091050Z 22014KT 3000 DZ BKN007 05/04 Q1019 RMK ATIS N;
0140104160999992013010911204+51517+007617FM-15+0148EDLW V0202201N006210021019N0030001N1+00501+00401999999ADDGA1081+002101999GF108991999999999999999999MA1101901999999MW1531REMMET065METAR EDLW 091120Z 22012KT 3000 DZ OVC007 05/04 Q1019 RMK ATIS O;
0140104160999992013010911504+51517+007617FM-15+0148EDLW V0202201N006710018019N0030001N1+00501+00501999999ADDGA1071+001801999GF107991999999999999999999MA1101801999999MW1531REMMET065METAR EDLW 091150Z 22013KT 3000 DZ BKN006 05/05 Q1018 RMK ATIS P;
0140104160999992013010912204+51517+007617FM-15+0148EDLW V0202301N006210024019N0060001N1+00501+00501999999ADDGA1071+002401999GF107991999999999999999999MA1101801999999MW1531REMMET065METAR EDLW 091220Z 23012KT 6000 DZ BKN008 05/05 Q1018 RMK ATIS Q;
0141104160999992013010912504+51517+007617FM-15+0148EDLW V0202401N005710024019N0060001N1+00501+00401999999ADDGA1071+002401999GF107991999999999999999999MA1101801999999MW1611REMMET066METAR EDLW 091250Z 24011KT 6000 -RA BKN008 05/04 Q1018 RMK ATIS R;
0131104160999992013010913204+51517+007617FM-15+0148EDLW V0202401N007210021019N0112651N1+00501+00401999999ADDGA1081+002101999GF108991999999999999999999MA1101801999999REMMET062METAR EDLW 091320Z 24014KT 9999 OVC007 05/04 Q1018 RMK ATIS S;
0141104160999992013010913504+51517+007617FM-15+0148EDLW V0202301N006210021019N0060001N1+00501+00401999999ADDGA1081+002101999GF108991999999999999999999MA1101691999999MW1611REMMET066METAR EDLW 091350Z 23012KT 6000 -RA OVC007 05/04 Q1017 RMK ATIS T;
0141104160999992013010914204+51517+007617FM-15+0148EDLW V0202401N005710021019N0060001N1+00501+00401999999ADDGA1071+002101999GF107991999999999999999999MA1101691999999MW1611REMMET066METAR EDLW 091420Z 24011KT 6000 -RA BKN007 05/04 Q1017 RMK ATIS U;
0141104160999992013010914504+51517+007617FM-15+0148EDLW V0202501N005110021019N0060001N1+00501+00401999999ADDGA1071+002101999GF107991999999999999999999MA1101691999999MW1611REMMET066METAR EDLW 091450Z 25010KT 6000 -RA BKN007 05/04 Q1017 RMK ATIS V;
0141104160999992013010915204+51517+007617FM-15+0148EDLW V0202401N005110021019N0112651N1+00501+00401999999ADDGA1071+002101999GF107991999999999999999999MA1101691999999MW1611REMMET066METAR EDLW 091520Z 24010KT 9999 -RA BKN007 05/04 Q1017 RMK ATIS W;
0131104160999992013010915504+51517+007617FM-15+0148EDLW V0202501N005710015019N0112651N1+00501+00401999999ADDGA1071+001501999GF107991999999999999999999MA1101691999999REMMET062METAR EDLW 091550Z 25011KT 9999 BKN005 05/04 Q1017 RMK ATIS X;
0141104160999992013010916204+51517+007617FM-15+0148EDLW V0202501N005710015019N0060001N1+00501+00401999999ADDGA1071+001501999GF107991999999999999999999MA1101691999999MW1611REMMET066METAR EDLW 091620Z 25011KT 6000 -RA BKN005 05/04 Q1017 RMK ATIS Y;
0141104160999992013010916504+51517+007617FM-15+0148EDLW V0202501N005110015019N0060001N1+00501+00401999999ADDGA1071+001501999GF107991999999999999999999MA1101691999999MW1611REMMET066METAR EDLW 091650Z 25010KT 6000 -RA BKN005 05/04 Q1017 RMK ATIS Z;
0141104160999992013010917204+51517+007617FM-15+0148EDLW V0202501N004610012019N0060001N1+00501+00401999999ADDGA1071+001201999GF107991999999999999999999MA1101691999999MW1611REMMET066METAR EDLW 091720Z 25009KT 6000 -RA BKN004 05/04 Q1017 RMK ATIS A;
0141104160999992013010917504+51517+007617FM-15+0148EDLW V0202501N004110012019N0060001N1+00501+00401999999ADDGA1071+001201999GF107991999999999999999999MA1101691999999MW1611REMMET066METAR EDLW 091750Z 25008KT 6000 -RA BKN004 05/04 Q1017 RMK ATIS B;
0141104160999992013010918204+51517+007617FM-15+0148EDLW V0202501N004110009019N0060001N1+00501+00401999999ADDGA1071+000901999GF107991999999999999999999MA1101591999999MW1611REMMET066METAR EDLW 091820Z 25008KT 6000 -RA BKN003 05/04 Q1016 RMK ATIS C;
0141104160999992013010918504+51517+007617FM-15+0148EDLW V0202501N004110012019N0060001N1+00501+00401999999ADDGA1071+001201999GF107991999999999999999999MA1101591999999MW1611REMMET066METAR EDLW 091850Z 25008KT 6000 -RA BKN004 05/04 Q1016 RMK ATIS D;
0141104160999992013010919204+51517+007617FM-15+0148EDLW V0202401N004110012019N0060001N1+00501+00401999999ADDGA1071+001201999GF107991999999999999999999MA1101591999999MW1611REMMET066METAR EDLW 091920Z 24008KT 6000 -RA BKN004 05/04 Q1016 RMK ATIS E;
0140104160999992013010919504+51517+007617FM-15+0148EDLW V0202501N003610012019N0080001N1+00501+00401999999ADDGA1071+001201999GF107991999999999999999999MA1101591999999MW1531REMMET065METAR EDLW 091950Z 25007KT 8000 DZ BKN004 05/04 Q1016 RMK ATIS F;
0131104160999992013010920204+51517+007617FM-15+0148EDLW V0202501N003610012019N0070001N1+00501+00401999999ADDGA1071+001201999GF107991999999999999999999MA1101591999999REMMET062METAR EDLW 092020Z 25007KT 7000 BKN004 05/04 Q1016 RMK ATIS G;
0128104160999992013010920504+51517+007617FM-15+0148EDLW V0202701N003110009019N0070001N1+00501+00501999999ADDGA1071+000901999GF107991999999999999999999MA1101591999999REMMET059METAR EDLW 092050Z 27006KT 240V310 7000 BKN003 05/05 Q1016;
0131104160999992013011004204+51517+007617FM-15+0148EDLW V0202501N002610120019N0090001N1+00401+00301999999ADDGA1081+012001999GF108991999999999999999999MA1101391999999REMMET062METAR EDLW 100420Z 25005KT 9000 OVC040 04/03 Q1014 RMK ATIS A;
0131104160999992013011004504+51517+007617FM-15+0148EDLW V0202201N004110111019N0090001N1+00401+00301999999ADDGA1081+011101999GF108991999999999999999999MA1101291999999REMMET062METAR EDLW 100450Z 22008KT 9000 OVC037 04/03 Q1013 RMK ATIS B;
0131104160999992013011005204+51517+007617FM-15+0148EDLW V0202301N003610105019N0090001N1+00401+00301999999ADDGA1071+010501999GF107991999999999999999999MA1101291999999REMMET062METAR EDLW 100520Z 23007KT 9000 BKN035 04/03 Q1013 RMK ATIS C;
0131104160999992013011005504+51517+007617FM-15+0148EDLW V0202501N004110117019N0112651N1+00401+00201999999ADDGA1081+011701999GF108991999999999999999999MA1101291999999REMMET062METAR EDLW 100550Z 25008KT 9999 OVC039 04/02 Q1013 RMK ATIS D;
0164104160999992013011006504+51517+007617FM-15+0148EDLW V0202501N003112200019N0112651N1+00401+00201999999ADDGA1041+003901999GA2041+006901999GF104991999999999999999999MA1101291999999MW1511REMMET073METAR EDLW 100650Z 25006KT 9999 -DZ SCT013 SCT023 04/02 Q1013 RMK ATIS F;
0131104160999992013011007204+51517+007617FM-15+0148EDLW V0202401N003610060019N0112651N1+00401+00201999999ADDGA1071+006001999GF107991999999999999999999MA1101291999999REMMET062METAR EDLW 100720Z 24007KT 9999 BKN020 04/02 Q1013 RMK ATIS G;
0131104160999992013011007504+51517+007617FM-15+0148EDLW V0202301N004610078019N0112651N1+00401+00201999999ADDGA1071+007801999GF107991999999999999999999MA1101291999999REMMET062METAR EDLW 100750Z 23009KT 9999 BKN026 04/02 Q1013 RMK ATIS H;
0154104160999992013011008204+51517+007617FM-15+0148EDLW V0202401N004110147019N0112651N1+00401+00201999999ADDGA1041+007501999GA2071+014701999GF107991999999999999999999MA1101291999999REMMET069METAR EDLW 100820Z 24008KT 9999 SCT025 BKN049 04/02 Q1013 RMK ATIS I;
0154104160999992013011008504+51517+007617FM-15+0148EDLW V0202401N004110063019N0112651N1+00401+00301999999ADDGA1041+003601999GA2071+006301999GF107991999999999999999999MA1101291999999REMMET069METAR EDLW 100850Z 24008KT 9999 SCT012 BKN021 04/03 Q1013 RMK ATIS J;
0162104160999992013011009204+51517+007617FM-15+0148EDLW V0202601N004110111019N0112651N1+00401+00301999999ADDGA1041+003301999GA2071+011101999GF107991999999999999999999MA1101291999999REMMET077METAR EDLW 100920Z 26008KT 230V290 9999 SCT011 BKN037 04/03 Q1013 RMK ATIS K;
0162104160999992013011009504+51517+007617FM-15+0148EDLW V0202701N004110075019N0112651N1+00401+00301999999ADDGA1041+003001999GA2071+007501999GF107991999999999999999999MA1101291999999REMMET077METAR EDLW 100950Z 27008KT 240V320 9999 SCT010 BKN025 04/03 Q1013 RMK ATIS L;
0131104160999992013011010204+51517+007617FM-15+0148EDLW V0202601N004110090019N0112651N1+00401+00201999999ADDGA1071+009001999GF107991999999999999999999MA1101191999999REMMET062METAR EDLW 101020Z 26008KT 9999 BKN030 04/02 Q1012 RMK ATIS M;
0131104160999992013011010504+51517+007617FM-15+0148EDLW V0202401N005110051019N0112651N1+00401+00301999999ADDGA1071+005101999GF107991999999999999999999MA1101191999999REMMET062METAR EDLW 101050Z 24010KT 9999 BKN017 04/03 Q1012 RMK ATIS N;
0164104160999992013011011204+51517+007617FM-15+0148EDLW V0202501N004612200019N0112651N1+00401+00301999999ADDGA1041+002701999GA2041+004201999GF104991999999999999999999MA1101191999999MW1511REMMET073METAR EDLW 101120Z 25009KT 9999 -DZ SCT009 SCT014 04/03 Q1012 RMK ATIS O;
0139104160999992013011012204+51517+007617FM-15+0148EDLW V0202601N003610036019N0112651N1+00501+00301999999ADDGA1071+003601999GF107991999999999999999999MA1101081999999REMMET070METAR EDLW 101220Z 26007KT 230V300 9999 BKN012 05/03 Q1011 RMK ATIS Q;
0120104160999992013011012504+51517+007617FM-15+0148EDLW V0202501N004610042019N0112651N1+00501+00301999999ADDGA1071+004201999GF107991999999999999999999MA1101021999999REMMET051METAR EDLW 101250Z 25009KT 9999 BKN014 05/03 Q1010;
0131104160999992013011013004+51517+007617FM-15+0148EDLW V0202601N004610045019N0112651N1+00501+00301999999ADDGA1071+004501999GF107991999999999999999999MA1101021999999REMMET062SPECI EDLW 101255Z 26009KT 9999 BKN015 05/03 Q1010 RMK ATIS T;
0139104160999992013011013204+51517+007617FM-15+0148EDLW V0202701N003610051019N0112651N1+00501+00301999999ADDGA1071+005101999GF107991999999999999999999MA1101021999999REMMET070METAR EDLW 101320Z 27007KT 240V320 9999 BKN017 05/03 Q1010 RMK ATIS U;
0162104160999992013011013504+51517+007617FM-15+0148EDLW V0202701N004110048019N0112651N1+00501+00201999999ADDGA1071+004801999GA2071+007801999GF107991999999999999999999MA1101021999999REMMET077METAR EDLW 101350Z 27008KT 240V300 9999 BKN016 BKN026 05/02 Q1010 RMK ATIS V;
0154104160999992013011014204+51517+007617FM-15+0148EDLW V0202701N004110045019N0112651N1+00501+00201999999ADDGA1071+004501999GA2071+007801999GF107991999999999999999999MA1101021999999REMMET069METAR EDLW 101420Z 27008KT 9999 BKN015 BKN026 05/02 Q1010 RMK ATIS W;
0162104160999992013011014504+51517+007617FM-15+0148EDLW V0202601N004110096019N0112651N1+00501+00201999999ADDGA1021+004801999GA2071+009601999GF107991999999999999999999MA1101021999999REMMET077METAR EDLW 101450Z 26008KT 230V290 9999 FEW016 BKN032 05/02 Q1010 RMK ATIS X;
0141104160999992013011015204+51517+007617FM-15+0148EDLW V0202501N004610111019N0090001N1+00501+00201999999ADDGA1071+011101999GF107991999999999999999999MA1101021999999MW1611REMMET066METAR EDLW 101520Z 25009KT 9000 -RA BKN037 05/02 Q1010 RMK ATIS Y;
0141104160999992013011015504+51517+007617FM-15+0148EDLW V0202501N005110099019N0090001N1+00501+00201999999ADDGA1071+009901999GF107991999999999999999999MA1101021999999MW1611REMMET066METAR EDLW 101550Z 25010KT 9000 -RA BKN033 05/02 Q1010 RMK ATIS Z;
0140104160999992013011016204+51517+007617FM-15+0148EDLW V0202401N006710093019N0112651N1+00501+00201999999ADDGA1071+009301999GF107991999999999999999999MA1101021999999MW1531REMMET065METAR EDLW 101620Z 24013KT 9999 DZ BKN031 05/02 Q1010 RMK ATIS A;
0131104160999992013011016504+51517+007617FM-15+0148EDLW V0202401N006210090019N0112651N1+00501+00301999999ADDGA1071+009001999GF107991999999999999999999MA1100911999999REMMET062METAR EDLW 101650Z 24012KT 9999 BKN030 05/03 Q1009 RMK ATIS B;
0131104160999992013011017204+51517+007617FM-15+0148EDLW V0202501N005110093019N0112651N1+00501+00201999999ADDGA1071+009301999GF107991999999999999999999MA1100911999999REMMET062METAR EDLW 101720Z 25010KT 9999 BKN031 05/02 Q1009 RMK ATIS C;
0131104160999992013011017504+51517+007617FM-15+0148EDLW V0202501N005110075019N0112651N1+00501+00201999999ADDGA1071+007501999GF107991999999999999999999MA1100911999999REMMET062METAR EDLW 101750Z 25010KT 9999 BKN025 05/02 Q1009 RMK ATIS D;
0141104160999992013011018204+51517+007617FM-15+0148EDLW V0202601N005110069019N0112651N1+00501+00201999999ADDGA1071+006901999GF107991999999999999999999MA1100911999999MW1611REMMET066METAR EDLW 101820Z 26010KT 9999 -RA BKN023 05/02 Q1009 RMK ATIS E;
0172104160999992013011018504+51517+007617FM-15+0148EDLW V0202901N003110039019N0050001N1+00501+00301999999ADDGA1021+001501999GA2071+003901999GF107991999999999999999999MA1100911999999MW1611REMMET081METAR EDLW 101850Z 29006KT 250V310 5000 -RA FEW005 BKN013 05/03 Q1009 RMK ATIS F;
0149104160999992013011019204+51517+007617FM-15+0148EDLW V0200201N003610015019N0112651N1+00301+00201999999ADDGA1071+001501999GF107991999999999999999999MA1101021999999MW1611REMMET074METAR EDLW 101920Z 02007KT 290V070 9999 -RA BKN005 03/02 Q1010 RMK ATIS G;
0149104160999992013011020204+51517+007617FM-15+0148EDLW V0200601N002110003019N0040001N1+00101+00001999999ADDGA1071+000301999GF107991999999999999999999MA1101021999999MW1611MW2711REMMET068METAR EDLW 102020Z 06004KT 4000 -SNRA BKN001 01/00 Q1010 RMK ATIS I;
0130104160999992013011020504+51517+007617FM-15+0148EDLW V0200701N001010006019N0060001N1+00101+00001999999ADDGA1071+000601999GF107991999999999999999999MA1101081999999MW1711REMMET055METAR EDLW 102050Z 07002KT 6000 -SN BKN002 01/00 Q1011;
0085104160999992013011104204+51517+007617FM-15+0148EDLW V0209999V001019999999Y0099001N1-00301-00501999999ADDMA1101391999999REMMET058METAR EDLW 110420Z VRB02KT CAVOK M03/M05 Q1014 RMK ATIS A;
0085104160999992013011104504+51517+007617FM-15+0148EDLW V0209999V001019999999Y0099001N1-00301-00501999999ADDMA1101391999999REMMET058METAR EDLW 110450Z VRB02KT CAVOK M03/M05 Q1014 RMK ATIS B;
0133104160999992013011105204+51517+007617FM-15+0148EDLW V0209999V000512200019N0112651N1-00201-00401999999ADDGA1021+008401999GF102991999999999999999999MA1101391999999REMMET064METAR EDLW 110520Z VRB01KT 9999 FEW028 M02/M04 Q1014 RMK ATIS C;
0085104160999992013011105504+51517+007617FM-15+0148EDLW V0209999V000519999999Y0099001N1-00301-00401999999ADDMA1101391999999REMMET058METAR EDLW 110550Z VRB01KT CAVOK M03/M04 Q1014 RMK ATIS D;
0085104160999992013011106204+51517+007617FM-15+0148EDLW V0209999C000019999999Y0099001N1-00301-00401999999ADDMA1101491999999REMMET058METAR EDLW 110620Z 00000KT CAVOK M03/M04 Q1015 RMK ATIS E;
0085104160999992013011106504+51517+007617FM-15+0148EDLW V0209999V001019999999Y0099001N1-00301-00501999999ADDMA1101491999999REMMET058METAR EDLW 110650Z VRB02KT CAVOK M03/M05 Q1015 RMK ATIS F;
0085104160999992013011107204+51517+007617FM-15+0148EDLW V0202301N001019999999Y0099001N1-00301-00501999999ADDMA1101591999999REMMET058METAR EDLW 110720Z 23002KT CAVOK M03/M05 Q1016 RMK ATIS G;
0085104160999992013011107504+51517+007617FM-15+0148EDLW V0202501N001019999999Y0099001N1-00301-00501999999ADDMA1101591999999REMMET058METAR EDLW 110750Z 25002KT CAVOK M03/M05 Q1016 RMK ATIS H;
0085104160999992013011108204+51517+007617FM-15+0148EDLW V0202501N001019999999Y0099001N1-00201-00301999999ADDMA1101591999999REMMET058METAR EDLW 110820Z 25002KT CAVOK M02/M03 Q1016 RMK ATIS I;
0085104160999992013011108364+51517+007617FM-16+0148EDLW V0202401N000519999999Y0099001N1-00201-00301999999ADDMA1101691999999REMMET058SPECI EDLW 110836Z 24001KT CAVOK M02/M03 Q1017 RMK ATIS J;
0085104160999992013011108504+51517+007617FM-15+0148EDLW V0202301N001019999999Y0099001N1-00201-00401999999ADDMA1101691999999REMMET058METAR EDLW 110850Z 23002KT CAVOK M02/M04 Q1017 RMK ATIS K;
0085104160999992013011109204+51517+007617FM-15+0148EDLW V0202301N001519999999Y0099001N1-00101-00301999999ADDMA1101691999999REMMET058METAR EDLW 110920Z 23003KT CAVOK M01/M03 Q1017 RMK ATIS L;
0133104160999992013011110204+51517+007617FM-15+0148EDLW V0202301N001012200019N0112651N1-00101-00301999999ADDGA1041+011401999GF104991999999999999999999MA1101691999999REMMET064METAR EDLW 111020Z 23002KT 9999 SCT038 M01/M03 Q1017 RMK ATIS N;
0133104160999992013011111204+51517+007617FM-15+0148EDLW V0209999V001010111019N0112651N1+00001-00301999999ADDGA1071+011101999GF107991999999999999999999MA1101691999999REMMET064METAR EDLW 111120Z VRB02KT 9999 BKN037 M00/M03 Q1017 RMK ATIS P;
0132104160999992013011111504+51517+007617FM-15+0148EDLW V0202501N002110105019N0112651N1+00001-00401999999ADDGA1071+010501999GF107991999999999999999999MA1101691999999REMMET063METAR EDLW 111150Z 25004KT 9999 BKN035 00/M04 Q1017 RMK ATIS Q;
0132104160999992013011112204+51517+007617FM-15+0148EDLW V0209999V001010105019N0112651N1+00001-00401999999ADDGA1071+010501999GF107991999999999999999999MA1101691999999REMMET063METAR EDLW 111220Z VRB02KT 9999 BKN035 00/M04 Q1017 RMK ATIS R;
0143104160999992013011112504+51517+007617FM-15+0148EDLW V0209999V001010120019N0112651N1+00001-00401999999ADDGA1071+012001999GF107991999999999999999999MA1101691999999MW1161REMMET068METAR EDLW 111250Z VRB02KT 9999 VCSH BKN040 00/M04 Q1017 RMK ATIS S;
0132104160999992013011113204+51517+007617FM-15+0148EDLW V0209999V001510123019N0112651N1+00001-00501999999ADDGA1071+012301999GF107991999999999999999999MA1101691999999REMMET063METAR EDLW 111320Z VRB03KT 9999 BKN041 00/M05 Q1017 RMK ATIS T;
0132104160999992013011113504+51517+007617FM-15+0148EDLW V0209999V001010126019N0112651N1+00101-00501999999ADDGA1071+012601999GF107991999999999999999999MA1101691999999REMMET063METAR EDLW 111350Z VRB02KT 9999 BKN042 01/M05 Q1017 RMK ATIS U;
0132104160999992013011114204+51517+007617FM-15+0148EDLW V0209999V001010132019N0112651N1+00101-00601999999ADDGA1071+013201999GF107991999999999999999999MA1101691999999REMMET063METAR EDLW 111420Z VRB02KT 9999 BKN044 01/M06 Q1017 RMK ATIS V;
0132104160999992013011114504+51517+007617FM-15+0148EDLW V0209999V001010135019N0112651N1+00001-00501999999ADDGA1071+013501999GF107991999999999999999999MA1101691999999REMMET063METAR EDLW 111450Z VRB02KT 9999 BKN045 00/M05 Q1017 RMK ATIS W;
0132104160999992013011115204+51517+007617FM-15+0148EDLW V0209999V000510132019N0112651N1+00001-00501999999ADDGA1071+013201999GF107991999999999999999999MA1101691999999REMMET063METAR EDLW 111520Z VRB01KT 9999 BKN044 00/M05 Q1017 RMK ATIS X;
0084104160999992013011115504+51517+007617FM-15+0148EDLW V0202001N001519999999Y0099001N1+00001-00501999999ADDMA1101691999999REMMET057METAR EDLW 111550Z 20003KT CAVOK 00/M05 Q1017 RMK ATIS Y;
0085104160999992013011116204+51517+007617FM-15+0148EDLW V0202101N002119999999Y0099001N1+00001-00501999999ADDMA1101691999999REMMET058METAR EDLW 111620Z 21004KT CAVOK M00/M05 Q1017 RMK ATIS Z;
0085104160999992013011116504+51517+007617FM-15+0148EDLW V0202301N002119999999Y0099001N1-00101-00501999999ADDMA1101691999999REMMET058METAR EDLW 111650Z 23004KT CAVOK M01/M05 Q1017 RMK ATIS A;
0085104160999992013011117204+51517+007617FM-15+0148EDLW V0202601N001019999999Y0099001N1-00201-00401999999ADDMA1101691999999REMMET058METAR EDLW 111720Z 26002KT CAVOK M02/M04 Q1017 RMK ATIS B;
0085104160999992013011117504+51517+007617FM-15+0148EDLW V0202401N002119999999Y0099001N1-00201-00501999999ADDMA1101801999999REMMET058METAR EDLW 111750Z 24004KT CAVOK M02/M05 Q1018 RMK ATIS C;
0085104160999992013011118204+51517+007617FM-15+0148EDLW V0202501N002119999999Y0099001N1-00101-00401999999ADDMA1101801999999REMMET058METAR EDLW 111820Z 25004KT CAVOK M01/M04 Q1018 RMK ATIS D;
0085104160999992013011118504+51517+007617FM-15+0148EDLW V0202301N003119999999Y0099001N1-00201-00501999999ADDMA1101801999999REMMET058METAR EDLW 111850Z 23006KT CAVOK M02/M05 Q1018 RMK ATIS E;
0085104160999992013011119204+51517+007617FM-15+0148EDLW V0202001N002119999999Y0099001N1-00201-00501999999ADDMA1101801999999REMMET058METAR EDLW 111920Z 20004KT CAVOK M02/M05 Q1018 RMK ATIS F;
0085104160999992013011119504+51517+007617FM-15+0148EDLW V0202201N003619999999Y0099001N1-00201-00401999999ADDMA1101801999999REMMET058METAR EDLW 111950Z 22007KT CAVOK M02/M04 Q1018 RMK ATIS G;
0085104160999992013011120204+51517+007617FM-15+0148EDLW V0202101N003619999999Y0099001N1-00201-00401999999ADDMA1101801999999REMMET058METAR EDLW 112020Z 21007KT CAVOK M02/M04 Q1018 RMK ATIS H;
0085104160999992013011120504+51517+007617FM-15+0148EDLW V0202201N003619999999Y0099001N1-00101-00401999999ADDMA1101801999999REMMET058METAR EDLW 112050Z 22007KT CAVOK M01/M04 Q1018 RMK ATIS I;
0085104160999992013011121204+51517+007617FM-15+0148EDLW V0202201N003619999999Y0099001N1-00201-00501999999ADDMA1101801999999REMMET058METAR EDLW 112120Z 22007KT CAVOK M02/M05 Q1018 RMK ATIS J;
0085104160999992013011121504+51517+007617FM-15+0148EDLW V0202201N003119999999Y0099001N1-00201-00501999999ADDMA1101801999999REMMET058METAR EDLW 112150Z 22006KT CAVOK M02/M05 Q1018 RMK ATIS K;
0133104160999992013011122204+51517+007617FM-15+0148EDLW V0202201N002610090019N0112651N1-00201-00401999999ADDGA1071+009001999GF107991999999999999999999MA1101801999999REMMET064METAR EDLW 112220Z 22005KT 9999 BKN030 M02/M04 Q1018 RMK ATIS L;
0133104160999992013011201204+51517+007617FM-15+0148EDLW V0201901N002112200019N0112651N1-00201-00401999999ADDGA1041+006001999GF104991999999999999999999MA1101801999999REMMET064METAR EDLW 120120Z 19004KT 9999 SCT020 M02/M04 Q1018 RMK ATIS A;
0133104160999992013011201504+51517+007617FM-15+0148EDLW V0201901N002612200019N0112651N1-00201-00401999999ADDGA1041+009001999GF104991999999999999999999MA1101801999999REMMET064METAR EDLW 120150Z 19005KT 9999 SCT030 M02/M04 Q1018 RMK ATIS B;
0133104160999992013011204204+51517+007617FM-15+0148EDLW V0201801N002110084019N0112651N1-00201-00401999999ADDGA1071+008401999GF107991999999999999999999MA1101691999999REMMET064METAR EDLW 120420Z 18004KT 9999 BKN028 M02/M04 Q1017 RMK ATIS A;
0133104160999992013011204504+51517+007617FM-15+0148EDLW V0201901N001510063019N0112651N1-00201-00401999999ADDGA1071+006301999GF107991999999999999999999MA1101691999999REMMET064METAR EDLW 120450Z 19003KT 9999 BKN021 M02/M04 Q1017 RMK ATIS B;
0156104160999992013011205204+51517+007617FM-15+0148EDLW V0201901N002110180019N0112651N1-00201-00501999999ADDGA1041+006601999GA2071+018001999GF107991999999999999999999MA1101691999999REMMET071METAR EDLW 120520Z 19004KT 9999 SCT022 BKN065 M02/M05 Q1017 RMK ATIS C;
0156104160999992013011205504+51517+007617FM-15+0148EDLW V0201801N002110210019N0112651N1-00201-00401999999ADDGA1041+012001999GA2071+021001999GF107991999999999999999999MA1101691999999REMMET071METAR EDLW 120550Z 18004KT 9999 SCT040 BKN070 M02/M04 Q1017 RMK ATIS D;
0133104160999992013011206204+51517+007617FM-15+0148EDLW V0201701N002610120019N0112651N1-00201-00401999999ADDGA1071+012001999GF107991999999999999999999MA1101691999999REMMET064METAR EDLW 120620Z 17005KT 9999 BKN040 M02/M04 Q1017 RMK ATIS E;
0156104160999992013011206504+51517+007617FM-15+0148EDLW V0201601N002610120019N0112651N1-00201-00401999999ADDGA1041+009301999GA2071+012001999GF107991999999999999999999MA1101691999999REMMET071METAR EDLW 120650Z 16005KT 9999 SCT031 BKN040 M02/M04 Q1017 RMK ATIS F;
0133104160999992013011207204+51517+007617FM-15+0148EDLW V0201501N002610096019N0112651N1-00201-00401999999ADDGA1071+009601999GF107991999999999999999999MA1101801999999REMMET064METAR EDLW 120720Z 15005KT 9999 BKN032 M02/M04 Q1018 RMK ATIS G;
0156104160999992013011207504+51517+007617FM-15+0148EDLW V0201601N002610096019N0112651N1-00201-00401999999ADDGA1041+006001999GA2071+009601999GF107991999999999999999999MA1101801999999REMMET071METAR EDLW 120750Z 16005KT 9999 SCT020 BKN032 M02/M04 Q1018 RMK ATIS H;
0133104160999992013011208204+51517+007617FM-15+0148EDLW V0201501N001512200019N0112651N1-00201-00401999999ADDGA1041+006001999GF104991999999999999999999MA1101801999999REMMET064METAR EDLW 120820Z 15003KT 9999 SCT020 M02/M04 Q1018 RMK ATIS I;
0156104160999992013011208504+51517+007617FM-15+0148EDLW V0201501N001512200019N0112651N1-00101-00401999999ADDGA1021+009001999GA2041+015001999GF104991999999999999999999MA1101801999999REMMET071METAR EDLW 120850Z 15003KT 9999 FEW030 SCT050 M01/M04 Q1018 RMK ATIS J;
0094104160999992013011209204+51517+007617FM-15+0148EDLW V0209999V001019999999Y0099001N1-00101-00301999999ADDMA1101801999999REMMET067METAR EDLW 120920Z VRB02KT CAVOK M01/M03 Q1018 RMK ATIS U/S INFO K;
0085104160999992013011209504+51517+007617FM-15+0148EDLW V0201401N002119999999Y0099001N1+00001-00401999999ADDMA1101801999999REMMET058METAR EDLW 120950Z 14004KT CAVOK M00/M04 Q1018 RMK ATIS L;
0085104160999992013011210204+51517+007617FM-15+0148EDLW V0201401N002119999999Y0099001N1+00001-00401999999ADDMA1101801999999REMMET058METAR EDLW 121020Z 14004KT CAVOK M00/M04 Q1018 RMK ATIS M;
0084104160999992013011210504+51517+007617FM-15+0148EDLW V0209999V001519999999Y0099001N1+00001-00401999999ADDMA1101801999999REMMET057METAR EDLW 121050Z VRB03KT CAVOK 00/M04 Q1018 RMK ATIS N;
0084104160999992013011211204+51517+007617FM-15+0148EDLW V0209999V001519999999Y0099001N1+00101-00401999999ADDMA1101801999999REMMET057METAR EDLW 121120Z VRB03KT CAVOK 01/M04 Q1018 RMK ATIS O;
0084104160999992013011211504+51517+007617FM-15+0148EDLW V0209999V001519999999Y0099001N1+00101-00401999999ADDMA1101801999999REMMET057METAR EDLW 121150Z VRB03KT CAVOK 01/M04 Q1018 RMK ATIS P;
0084104160999992013011212204+51517+007617FM-15+0148EDLW V0209999V001519999999Y0099001N1+00101-00401999999ADDMA1101691999999REMMET057METAR EDLW 121220Z VRB03KT CAVOK 01/M04 Q1017 RMK ATIS Q;
0084104160999992013011212504+51517+007617FM-15+0148EDLW V0200701N003119999999Y0099001N1+00101-00401999999ADDMA1101691999999REMMET057METAR EDLW 121250Z 07006KT CAVOK 01/M04 Q1017 RMK ATIS R;
0084104160999992013011213204+51517+007617FM-15+0148EDLW V0200601N003619999999Y0099001N1+00101-00401999999ADDMA1101691999999REMMET057METAR EDLW 121320Z 06007KT CAVOK 01/M04 Q1017 RMK ATIS S;
0092104160999992013011213504+51517+007617FM-15+0148EDLW V0200801N004119999999Y0099001N1+00101-00401999999ADDMA1101691999999REMMET065METAR EDLW 121350Z 08008KT 060V120 CAVOK 01/M04 Q1017 RMK ATIS T;
0084104160999992013011214204+51517+007617FM-15+0148EDLW V0200801N004119999999Y0099001N1+00001-00401999999ADDMA1101691999999REMMET057METAR EDLW 121420Z 08008KT CAVOK 00/M04 Q1017 RMK ATIS U;
0085104160999992013011214504+51517+007617FM-15+0148EDLW V0200801N004119999999Y0099001N1+00001-00501999999ADDMA1101691999999REMMET058METAR EDLW 121450Z 08008KT CAVOK M00/M05 Q1017 RMK ATIS V;
0085104160999992013011215204+51517+007617FM-15+0148EDLW V0200801N004619999999Y0099001N1-00101-00501999999ADDMA1101691999999REMMET058METAR EDLW 121520Z 08009KT CAVOK M01/M05 Q1017 RMK ATIS W;
0085104160999992013011215504+51517+007617FM-15+0148EDLW V0200801N003119999999Y0099001N1-00101-00501999999ADDMA1101691999999REMMET058METAR EDLW 121550Z 08006KT CAVOK M01/M05 Q1017 RMK ATIS X;
0085104160999992013011216204+51517+007617FM-15+0148EDLW V0200701N003119999999Y0099001N1-00201-00501999999ADDMA1101691999999REMMET058METAR EDLW 121620Z 07006KT CAVOK M02/M05 Q1017 RMK ATIS Y;
0085104160999992013011216504+51517+007617FM-15+0148EDLW V0200701N003619999999Y0099001N1-00201-00501999999ADDMA1101691999999REMMET058METAR EDLW 121650Z 07007KT CAVOK M02/M05 Q1017 RMK ATIS Z;
0085104160999992013011217204+51517+007617FM-15+0148EDLW V0200601N003119999999Y0099001N1-00301-00601999999ADDMA1101691999999REMMET058METAR EDLW 121720Z 06006KT CAVOK M03/M06 Q1017 RMK ATIS A;
0085104160999992013011217504+51517+007617FM-15+0148EDLW V0200701N003119999999Y0099001N1-00301-00501999999ADDMA1101691999999REMMET058METAR EDLW 121750Z 07006KT CAVOK M03/M05 Q1017 RMK ATIS B;
0085104160999992013011218204+51517+007617FM-15+0148EDLW V0200901N002619999999Y0099001N1-00301-00501999999ADDMA1101801999999REMMET058METAR EDLW 121820Z 09005KT CAVOK M03/M05 Q1018 RMK ATIS C;
0085104160999992013011218504+51517+007617FM-15+0148EDLW V0200901N002619999999Y0099001N1-00401-00601999999ADDMA1101801999999REMMET058METAR EDLW 121850Z 09005KT CAVOK M04/M06 Q1018 RMK ATIS D;
0085104160999992013011219204+51517+007617FM-15+0148EDLW V0200801N002119999999Y0099001N1-00401-00601999999ADDMA1101801999999REMMET058METAR EDLW 121920Z 08004KT CAVOK M04/M06 Q1018 RMK ATIS E;
0085104160999992013011219504+51517+007617FM-15+0148EDLW V0200601N001519999999Y0099001N1-00401-00601999999ADDMA1101801999999REMMET058METAR EDLW 121950Z 06003KT CAVOK M04/M06 Q1018 RMK ATIS F;
0085104160999992013011220204+51517+007617FM-15+0148EDLW V0200601N001519999999Y0099001N1-00501-00701999999ADDMA1101801999999REMMET058METAR EDLW 122020Z 06003KT CAVOK M05/M07 Q1018 RMK ATIS G;
0074104160999992013011220504+51517+007617FM-15+0148EDLW V0200801N002119999999Y0099001N1-00501-00601999999ADDMA1101801999999REMMET047METAR EDLW 122050Z 08004KT CAVOK M05/M06 Q1018;
0085104160999992013011304204+51517+007617FM-15+0148EDLW V0200501N002119999999Y0099001N1-00701-00801999999ADDMA1101691999999REMMET058METAR EDLW 130420Z 05004KT CAVOK M07/M08 Q1017 RMK ATIS A;
0085104160999992013011304504+51517+007617FM-15+0148EDLW V0200601N002119999999Y0099001N1-00701-00901999999ADDMA1101691999999REMMET058METAR EDLW 130450Z 06004KT CAVOK M07/M09 Q1017 RMK ATIS B;
0085104160999992013011305204+51517+007617FM-15+0148EDLW V0200701N003119999999Y0099001N1-00801-00901999999ADDMA1101691999999REMMET058METAR EDLW 130520Z 07006KT CAVOK M08/M09 Q1017 RMK ATIS C;
0085104160999992013011305504+51517+007617FM-15+0148EDLW V0200701N002119999999Y0099001N1-00701-00801999999ADDMA1101691999999REMMET058METAR EDLW 130550Z 07004KT CAVOK M07/M08 Q1017 RMK ATIS D;
0085104160999992013011306204+51517+007617FM-15+0148EDLW V0200701N002119999999Y0099001N1-00701-00901999999ADDMA1101691999999REMMET058METAR EDLW 130620Z 07004KT CAVOK M07/M09 Q1017 RMK ATIS E;
0085104160999992013011306504+51517+007617FM-15+0148EDLW V0200801N003619999999Y0099001N1-00701-00801999999ADDMA1101801999999REMMET058METAR EDLW 130650Z 08007KT CAVOK M07/M08 Q1018 RMK ATIS F;
0085104160999992013011307204+51517+007617FM-15+0148EDLW V0200801N002619999999Y0099001N1-00701-00801999999ADDMA1101801999999REMMET058METAR EDLW 130720Z 08005KT CAVOK M07/M08 Q1018 RMK ATIS G;
0085104160999992013011307504+51517+007617FM-15+0148EDLW V0200801N003119999999Y0099001N1-00701-00901999999ADDMA1101801999999REMMET058METAR EDLW 130750Z 08006KT CAVOK M07/M09 Q1018 RMK ATIS H;
0085104160999992013011308204+51517+007617FM-15+0148EDLW V0200801N002619999999Y0099001N1-00601-00801999999ADDMA1101801999999REMMET058METAR EDLW 130820Z 08005KT CAVOK M06/M08 Q1018 RMK ATIS I;
0085104160999992013011308504+51517+007617FM-15+0148EDLW V0200801N003119999999Y0099001N1-00501-00701999999ADDMA1101801999999REMMET058METAR EDLW 130850Z 08006KT CAVOK M05/M07 Q1018 RMK ATIS J;
