0173108600999992006010204004+48717+011533FM-12+0365ETSI V0202601N002010003019N0003001N1-00031+99999101291ADDAY141999GA1091+000301999GF109991091999999999999999MA1999999096801MD1210151+9999MW1491REMSYN076AAXX  02041 10860 41/03 92602 11003 21001 39680 40129 52015 7494/ 333 89/01;
0140108600999992006010204204+48717+011533FM-15+0365ETSI V0202301N001010003019N0003001N1+00001+00001999999ADDGA1091+000301999GF109991999999000251999999MA1101081999999MW1491REMMET065ETSI 020420Z 23002KT 0300 R25////// FZFG VV001 M00/M00 Q1011 RED;
0181108600999992006010205004+48717+011533FM-12+0365ETSI V0202701N002010003019N0003001N1-00011-00031101361ADDAY141999AY241999GA1091+000301999GF109991091999999999999999MA1999999096861MD1210141+9999MW1491REMSYN076AAXX  02051 10860 41/03 92702 11001 21003 39686 40136 52014 74944 333 89/01;
0154108600999992006010205204+48717+011533FM-15+0365ETSI V0202901N001510003019N0003001N1+00001+00001999999ADDED125U99999GA1091+000301999GF109991999999000251999999MA1101081999999MW1491REMMET068ETSI 020520Z 29003KT 0300 R25/9999 FZFG VV001 M00/M00 Q1011 RED RED;
0144108600999992006010206204+48717+011533FM-15+0365ETSI V0202601N001510003019N0004001N1+00001+00001999999ADDGA1091+000301999GF109991999999000251999999MA1101191999999MW1491REMMET069ETSI 020620Z 26003KT 0400 R25////// FZFG VV001 M00/M00 Q1012 RED RED;
0166108600999992006010206474+48717+011533FM-16+0365ETSI V0202501N00151012001CN0022001N1+00001+00001999999ADDGA1025+001501999GA2085+012001999GF108991999999999999999999MA1101191999999MW1101REMMET075ETSI 020647Z 25003KT 2200 BR FEW005 OVC040 M00/M00 Q1012 YLO YLO TEMPO RED;
0193108600999992006010207004+48717+011533FM-12+0365ETSI V0202501N00201001201CN0022001N1-00031-00031101321ADDAY141999AY221999GA1021+001501071GF108991081051001501999999MA1999999096901MD1110101+9999MW1281REMSYN088AAXX  02071 10860 41222 82502 11003 21003 39690 40132 51010 72842 885// 333 82705 88640;
0166108600999992006010207204+48717+011533FM-15+0365ETSI V0202101N00101014701CN0022001N1-00101-00101999999ADDGA1025+000901999GA2075+014701999GF107991999999999999999999MA1101191999999MW1101REMMET075ETSI 020720Z 21002KT 2200 BR FEW003 BKN049 M01/M01 Q1012 YLO YLO TEMPO RED;
0193108600999992006010208004+48717+011533FM-12+0365ETSI V0202501N00201001201CN0025001N1-00051-00091101421ADDAY121999AY221999GA1011+000901071GF107991071051001501999999MA1999999096921MD1210061+9999MW1101REMSYN088AAXX  02081 10860 41225 72502 11005 21009 39692 40142 52006 71022 875// 333 81703 87649;
0156108600999992006010208204+48717+011533FM-15+0365ETSI V0202601N00211015001CN0035001N1+00001+00001999999ADDGA1025+000901999GA2075+015001999GF107991999999999999999999MA1101191999999MW1101REMMET065ETSI 020820Z 26004KT 3500 BR FEW003 BKN050 M00/M00 Q1012 YLO YLO;
0131108600999992006010209204+48717+011533FM-15+0365ETSI V0202601N00101014401CN0045001N1+00001+00001999999ADDGA1075+014401999GF107991999999999999999999MA1101291999999MW1101REMMET056ETSI 020920Z 26002KT 4500 BR BKN048 00/00 Q1013 GRN GRN;
0187108600999992006010210004+48717+011533FM-12+0365ETSI V0203101N001010144019N0045001N1+00031+00021101571ADDAY121999AY221999GA1071+014401061GF107991071051012501999999MA1999999097081MD1210181+9999MW1101REMSYN082AAXX  02101 10860 41645 73101 10003 20002 39708 40157 52018 71022 875// 333 87648;
0132108600999992006010210204+48717+011533FM-15+0365ETSI V0203201N00101014401CN0080001N1+00101+00101999999ADDGA1075+014401999GF107991999999999999999999MA1101391999999REMMET063ETSI 021020Z 32002KT 8000 BKN048 01/01 Q1014 BLU BLU TEMPO YLO;
0165108600999992006010211004+48717+011533FM-12+0365ETSI V0202601N00201009001CN0090001N1+00061+00061101631ADDGA1011+004501081GF107991071081004501999999MA1999999097141MD1210221+9999REMSYN082AAXX  02111 10860 42459 72602 10006 20006 39714 40163 52022 878// 333 81815 87650;
0155108600999992006010211204+48717+011533FM-15+0365ETSI V0203101N00151015001CN0112651N1+00101+00101999999ADDGA1025+004501999GA2075+015001999GF107991999999999999999999MA1101391999999REMMET070ETSI 021120Z 31003KT 9999 FEW015 BKN050 01/01 Q1014 BLU BLU TEMPO YLO;
0178108600999992006010212204+48717+011533FM-15+0365ETSI V0203201N00211015001CN0112651N1+00201+00201999999ADDGA1025+004501999GA2075+015001999GA3075+030001999GF107991999999999999999999MA1101491999999REMMET077ETSI 021220Z 32004KT 9999 FEW015 BKN050 BKN100 02/02 Q1015 BLU BLU TEMPO YLO;
0187108600999992006010213004+48717+011533FM-12+0365ETSI V0203201N002010138019N0100001N1+00171+00091101671ADDGA1011+004801081GA2061+013801061GF108991061081004501071999MA1999999097191MD1010111+9999REMSYN088AAXX  02131 10860 42460 83202 10017 20009 39719 40167 50011 8687/ 333 81816 86646 87462;
0178108600999992006010213204+48717+011533FM-15+0365ETSI V0203201N00211013501CN0112651N1+00201+00001999999ADDGA1025+004801999GA2075+013501999GA3085+036001999GF108991999999999999999999MA1101491999999REMMET077ETSI 021320Z 32004KT 9999 FEW016 BKN045 OVC120 02/00 Q1015 BLU BLU TEMPO YLO;
0245108600999992006010214004+48717+011533FM-12+0365ETSI V0203201N003010135019N0100001N1+00181+00031101711ADDGA1011+004801081GA2061+013501061GA3081+036001041GF108991061081004501071999MA1999999097231MD1310091+9999REMSYN130AAXX  02141 10860 42460 83203 10018 20003 39723 40171 53009 8687/ 333 81816 86645 88462 555 BOT 11001 20003 30011 40026 999 43///;
0178108600999992006010214204+48717+011533FM-15+0365ETSI V0203301N00261013501CN0112651N1+00201+00001999999ADDGA1025+004801999GA2075+013501999GA3085+036001999GF108991999999999999999999MA1101491999999REMMET077ETSI 021420Z 33005KT 9999 FEW016 BKN045 OVC120 02/00 Q1015 BLU BLU TEMPO YLO;
0290108600999992006010216004+48717+011533SY-MT+0365ETSI V0203301N00201013501CN0100001N1+00161+00031101851ADDGA1025+004501999GA2075+013501999GA3085+036001999GF108991061081004501011999MA1101591097361MD1210171+9999MW1001REMSYN088AAXX  02161 10860 42460 83302 10016 20003 39736 40185 52017 8681/ 333 81815 86645 88462;MET075ETSI 021600Z 34004KT 9999 FEW015 BKN045 OVC120 02/00 Q1016 BLU FCST CANCEL;
0164108600999992006010216204+48717+011533FM-15+0365ETSI V0203401N00211013501CN0112651N1+00201+00001999999ADDGA1025+004501999GA2075+013501999GA3085+036001999GF108991999999999999999999MA1101691999999REMMET063ETSI 021620Z 34004KT 9999 FEW015 BKN045 OVC120 02/00 Q1017 BLU;
0187108600999992006010217004+48717+011533FM-12+0365ETSI V0203401N002010135019N0100001N1+00171+00021101911ADDGA1011+003601081GA2061+013501061GF108991061081004501011999MA1999999097421MD1210191+9999REMSYN088AAXX  02171 10860 42460 83402 10017 20002 39742 40191 52019 8681/ 333 81812 86645 88462;
0141108600999992006010217204+48717+011533FM-15+0365ETSI V0203301N00211013501CN0112651N1+00201+00001999999ADDGA1025+002701999GA2075+013501999GF107991999999999999999999MA1101691999999REMMET056ETSI 021720Z 33004KT 9999 FEW009 BKN045 02/00 Q1017 BLU;
0141108600999992006010218204+48717+011533FM-15+0365ETSI V0203301N00211013501CN0112651N1+00201+00001999999ADDGA1025+002701999GA2075+013501999GF107991999999999999999999MA1101801999999REMMET056ETSI 021820Z 33004KT 9999 FEW009 BKN045 02/00 Q1018 BLU;
0165108600999992006010219004+48717+011533FM-12+0365ETSI V0203301N00301006001CN0120001N1+00181+00011101991ADDGA1011+002701081GF108991071081002501999999MA1999999097501MD1210141+9999REMSYN082AAXX  02191 10860 42362 83303 10018 20001 39750 40199 52014 878// 333 81809 87645;
0159108600999992006010304004+48717+011533FM-12+0365ETSI V0202701N003010042019N0120001N1+00061-00041102421ADDGA1071+004201061GF108991071051004501999999MA1999999097891MD1210141+9999REMSYN076AAXX  03041 10860 43462 82703 10006 21004 39789 40242 52014 875// 333 87614;
0119108600999992006010304204+48717+011533FM-15+0365ETSI V0202801N00211003301CN0112651N1+00101+00001999999ADDGA1085+003301999GF108991999999999999999999MA1102201999999REMMET050ETSI 030420Z 28004KT 9999 OVC011 01/M00 Q1022 GRN;
0159108600999992006010305004+48717+011533FM-12+0365ETSI V0202801N003010033019N0150001N1+00061-00081102441ADDGA1081+003301071GF108991081061004501999999MA1999999097911MD1210101+9999REMSYN076AAXX  03051 10860 42465 82803 10006 21008 39791 40244 52010 886// 333 88711;
0155108600999992006010305204+48717+011533FM-15+0365ETSI V0202801N00211003301CN0112651N1+00101+00001999999ADDGA1075+003301999GA2075+012001999GF107991999999999999999999MA1102201999999REMMET070ETSI 030520Z 28004KT 9999 BKN011 BKN040 01/00 Q1022 GRN WHT TEMPO YLO;
0156108600999992006010306204+48717+011533FM-15+0365ETSI V0202601N00261003301CN0112651N1+00101-00101999999ADDGA1075+003301999GA2075+006001999GF107991999999999999999999MA1102301999999REMMET071ETSI 030620Z 26005KT 9999 BKN011 BKN020 01/M01 Q1023 GRN WHT TEMPO YLO;
0152108600999992006010306454+48717+011533FM-16+0365ETSI V0202601N002110069059N0090001N1+00101+00001999999ADDGA1045+003305999GA2075+006905999GA3085+013505999MA1102301999999REMMET077ETSI 030645Z 26004KT 9000 SCT011 BKN023 OVC045 01/00 Q1023 WHT WHT TEMPO YLO;
0187108600999992006010307004+48717+011533FM-12+0365ETSI V0202601N002010069019N0090001N1+00071+00001102521ADDGA1031+003301071GA2061+006901061GF108991081051004501999999MA1999999097991MD1210101+9999REMSYN088AAXX  03071 10860 42459 82602 10007 20000 39799 40252 52010 885// 333 83711 86623 88645;
0178108600999992006010307204+48717+011533FM-15+0365ETSI V0202701N00151006901CN0090001N1+00101+00101999999ADDGA1025+001801999GA2075+006901999GA3085+013501999GF108991999999999999999999MA1102301999999REMMET077ETSI 030720Z 27003KT 9000 FEW006 BKN023 OVC045 01/01 Q1023 WHT WHT TEMPO YLO;
0187108600999992006010308004+48717+011533FM-12+0365ETSI V0203001N001010069019N0100001N1+00071+00001102571ADDGA1011+001801081GA2061+006901061GF108991081081002501999999MA1999999098041MD1210131+9999REMSYN088AAXX  03081 10860 42360 83001 10007 20000 39804 40257 52013 888// 333 81806 86623 88645;
0156108600999992006010308204+48717+011533FM-15+0365ETSI V0203201N00211008401CN0112651N1+00101-00101999999ADDGA1025+002401999GA2085+008401999GF108991999999999999999999MA1102401999999REMMET071ETSI 030820Z 32004KT 9999 FEW008 OVC028 01/M01 Q1024 BLU BLU TEMPO GRN;
0179108600999992006010309204+48717+011533FM-15+0365ETSI V0203201N00211006601CN0112651N1+00101-00101999999ADDGA1025+002701999GA2045+006601999GA3085+008101999GF108991999999999999999999MA1102401999999REMMET078ETSI 030920Z 32004KT 9999 FEW009 SCT022 OVC027 01/M01 Q1024 BLU BLU TEMPO GRN;
0187108600999992006010310004+48717+011533FM-12+0365ETSI V0203201N00201006001CN0150001N1+00141-00101102681ADDGA1011+002701081GA2031+006601061GF108991081081002501999999MA1999999098151MD1210161+9999REMSYN088AAXX  03101 10860 42365 83202 10014 21010 39815 40268 52016 888// 333 81809 83622 88626;
0156108600999992006010310204+48717+011533FM-15+0365ETSI V0203401N00261009001CN0112651N1+00201-00101999999ADDGA1025+002701999GA2085+009001999GF108991999999999999999999MA1102511999999REMMET071ETSI 031020Z 34005KT 9999 FEW009 OVC030 02/M01 Q1025 BLU BLU TEMPO GRN;
0187108600999992006010311004+48717+011533FM-12+0365ETSI V0203401N00201006001CN0160001N1+00181-00241102721ADDGA1011+002701081GA2031+009901061GF108991071081002501999999MA1999999098201MD1210161+9999REMSYN088AAXX  03111 10860 42366 83402 10018 21024 39820 40272 52016 878// 333 81809 83633 87639;
0189108600999992006010311204+48717+011533FM-15+0365ETSI V0203501N00211005401CN0112651N1+00201-00201999999ADDGA1025+003001999GA2045+005401999GA3075+011101999GF107991999999999999999999MA1102511999999MW1711REMMET082ETSI 031120Z 35004KT 9999 -SN FEW010 SCT018 BKN037 02/M02 Q1025 BLU BLU TEMPO GRN;
0179108600999992006010312204+48717+011533FM-15+0365ETSI V0203301N00211006001CN0112651N1+00201-00201999999ADDGA1025+003001999GA2045+006001999GA3075+015001999GF107991999999999999999999MA1102511999999REMMET078ETSI 031220Z 33004KT 9999 FEW010 SCT020 BKN050 02/M02 Q1025 BLU BLU TEMPO GRN;
0165108600999992006010313004+48717+011533FM-12+0365ETSI V0203301N00201009001CN0200001N1+00181-00171102721ADDGA1011+003001081GF107991071081004501999999MA1999999098201MD1110051+9999REMSYN082AAXX  03131 10860 42470 73302 10018 21017 39820 40272 51005 878// 333 81810 87650;
0156108600999992006010313204+48717+011533FM-15+0365ETSI V0203401N00211015001CN0112651N1+00201-00201999999ADDGA1025+003001999GA2075+015001999GF107991999999999999999999MA1102511999999REMMET071ETSI 031320Z 34004KT 9999 FEW010 BKN050 02/M02 Q1025 BLU BLU TEMPO GRN;
0223108600999992006010314004+48717+011533FM-12+0365ETSI V0203101N002010150019N0200001N1+00161-00121102741ADDGA1011+003001081GA2071+015001061GF107991071081004501999999MA1999999098211MD1310011+9999REMSYN124AAXX  03141 10860 42470 73102 10016 21012 39821 40274 53001 878// 333 81810 87650 555 BOT 10000 20004 30012 40026 999 43///;
0133108600999992006010314204+48717+011533FM-15+0365ETSI V0203101N00151015001CN0112651N1+00201-00201999999ADDGA1075+015001999GF107991999999999999999999MA1102511999999REMMET064ETSI 031420Z 31003KT 9999 BKN050 02/M02 Q1025 BLU BLU TEMPO GRN;
0133108600999992006010315204+48717+011533FM-15+0365ETSI V0203201N00151015001CN0112651N1+00101-00201999999ADDGA1075+015001999GF107991999999999999999999MA1102611999999REMMET064ETSI 031520Z 32003KT 9999 BKN050 01/M02 Q1026 BLU BLU TEMPO GRN;
0159108600999992006010316004+48717+011533FM-12+0365ETSI V0203301N002010150019N0150001N1+00101-00141102821ADDGA1071+015001061GF107991071051017501999999MA1999999098281MD1210081+9999REMSYN076AAXX  03161 10860 42765 73302 10010 21014 39828 40282 52008 875// 333 87650;
0131108600999992006010316204+48717+011533FM-15+0365ETSI V0203301N00211015001CN0112651N1+00101-00201999999ADDGA1075+015001999GF107991999999999999999999MA1102611999999REMMET062ETSI 031620Z 33004KT 9999 BKN050 01/M02 Q1026 BLU FCST CANCEL;
0159108600999992006010317004+48717+011533FM-12+0365ETSI V0203401N002010150019N0100001N1+00081-00121102871ADDGA1071+015001061GF107991071051017501999999MA1999999098321MD1210111+9999REMSYN076AAXX  03171 10860 42760 73402 10008 21012 39832 40287 52011 875// 333 87650;
0119108600999992006010317204+48717+011533FM-15+0365ETSI V0202601N00101015001CN0112651N1+00001-00301999999ADDGA1075+015001999GF107991999999999999999999MA1102611999999REMMET050ETSI 031720Z 26002KT 9999 BKN050 00/M03 Q1026 BLU;
0120108600999992006010318204+48717+011533FM-15+0365ETSI V0209999V00051015001CN0112651N1+00001-00101999999ADDGA1075+015001999GF107991999999999999999999MA1102611999999REMMET051ETSI 031820Z VRB01KT 9999 BKN050 M00/M01 Q1026 BLU;
0159108600999992006010319004+48717+011533FM-12+0365ETSI V0201801N001010150019N0100001N1-00071-00121102941ADDGA1071+015001061GF107991071051017501999999MA1999999098371MD1210091+9999REMSYN076AAXX  03191 10860 42760 71801 11007 21012 39837 40294 52009 875// 333 87650;
0179108600999992006010404004+48717+011533FM-12+0365ETSI V0209999C000010105019N0070001N1-00131-00141102901ADDAY121999GA1071+010501061GF107991071051012501999999MA1999999098321MD1710031+9999MW1101REMSYN082AAXX  04041 10860 41657 70000 11013 21014 39832 40290 57003 7102/ 875// 333 87635;
0130108600999992006010404204+48717+011533FM-15+0365ETSI V0200201N00101010501CN0080001N1-00101-00101999999ADDGA1075+010501999GF107991999999999999999999MA1102611999999MW1711REMMET055ETSI 040420Z 02002KT 8000 -SN BKN035 M01/M01 Q1026 BLU;
0187108600999992006010405004+48717+011533FM-12+0365ETSI V0200601N001010105019N0080001N1-00081-00111102861ADDAY171999AY221999GA1071+010501061GF107991071051012501999999MA1999999098291MD1810051+9999MW1781REMSYN082AAXX  04051 10860 41658 70601 11008 21011 39829 40286 58005 77872 875// 333 87635;
0144108600999992006010405204+48717+011533FM-15+0365ETSI V0201401N00101013501CN0080001N1-00101-00101999999ADDGA1075+013501999GF107991999999999999999999MA1102611999999MW1711REMMET069ETSI 040520Z 14002KT 8000 -SN BKN045 M01/M01 Q1026 BLU BLU TEMPO WHT;
0144108600999992006010406204+48717+011533FM-15+0365ETSI V0200901N00051013501CN0080001N1-00101-00101999999ADDGA1075+013501999GF107991999999999999999999MA1102611999999MW1711REMMET069ETSI 040620Z 09001KT 8000 -SN BKN045 M01/M01 Q1026 BLU BLU TEMPO WHT;
0187108600999992006010407004+48717+011533FM-12+0365ETSI V0201101N001010135019N0080001N1-00111-00171102851ADDAY171999AY271999GA1071+013501061GF107991071051012501999999MA1999999098271MD1710051+9999MW1221REMSYN082AAXX  04071 10860 41658 71101 11011 21017 39827 40285 57005 72277 875// 333 87645;
0144108600999992006010407204+48717+011533FM-15+0365ETSI V0200601N00101012001CN0070001N1-00101-00201999999ADDGA1075+012001999GF107991999999999999999999MA1102611999999MW1711REMMET069ETSI 040720Z 06002KT 7000 -SN BKN040 M01/M02 Q1026 WHT BLU TEMPO WHT;
0187108600999992006010408004+48717+011533FM-12+0365ETSI V0200701N001010090019N0070001N1-00061-00181102841ADDAY171999AY221999GA1071+009001061GF107991071051008001999999MA1999999098271MD1610021+9999MW1711REMSYN082AAXX  04081 10860 41557 70701 11006 21018 39827 40284 56002 77172 875// 333 87630;
0176108600999992006010408204+48717+011533FM-15+0365ETSI V0200701N00211009001CN0050001N1+00001-00101999999ADDGA1075+009001999GA2075+015001999GF107991999999999999999999MA1102611999999MW1101MW2711REMMET079ETSI 040820Z 07004KT 5000 -SN BR BKN030 BKN050 M00/M01 Q1026 WHT BLU TEMPO WHT;
0176108600999992006010408404+48717+011533FM-16+0365ETSI V0200601N00261015001CN0040001N1+00001-00101999999ADDGA1045+009001999GA2085+015001999GF108991999999999999999999MA1102611999999MW1101MW2711REMMET079ETSI 040840Z 06005KT 4000 -SN BR SCT030 OVC050 M00/M01 Q1026 GRN BLU TEMPO GRN;
0175108600999992006010409204+48717+011533FM-15+0365ETSI V0200701N00361015001CN0040001N1+00001-00201999999ADDGA1045+009001999GA2085+015001999GF108991999999999999999999MA1102611999999MW1101MW2711REMMET078ETSI 040920Z 07007KT 4000 -SN BR SCT030 OVC050 00/M02 Q1026 GRN BLU TEMPO GRN;
0175108600999992006010409364+48717+011533FM-16+0365ETSI V0200801N00261015001CN0050001N1+00001-00101999999ADDGA1045+009001999GA2085+015001999GF108991999999999999999999MA1102611999999MW1101MW2711REMMET078ETSI 040936Z 08005KT 5000 -SN BR SCT030 OVC050 00/M01 Q1026 WHT BLU TEMPO GRN;
0193108600999992006010410004+48717+011533FM-12+0365ETSI V0200701N00301012001CN0090001N1+00041-00081102851ADDAY171999AY271999GA1031+010501061GF108991081051012501999999MA1999999098301MD1310031+9999MW1711REMSYN088AAXX  04101 10860 41659 80703 10004 21008 39830 40285 53003 77177 885// 333 83635 88650;
0166108600999992006010410204+48717+011533FM-15+0365ETSI V0200601N00311018001CN0112651N1+00101-00301999999ADDGA1045+012001999GA2075+018001999GF107991999999999999999999MA1102611999999MW1711REMMET075ETSI 041020Z 06006KT 9999 -SN SCT040 BKN060 01/M03 Q1026 BLU BLU TEMPO GRN;
0228108600999992006010411004+48717+011533FM-12+0365ETSI V0200701N00401036001CN0150001N1+00131-00231102851ADDAY171999AY271999GA1011+004501081GA2031+013801061GF107991041081004501031999MA1999999098311MD1210041+9999REMSYN094AAXX  04111 10860 41465 70704 10013 21023 39831 40285 52004 77877 8483/ 333 81815 83646 87357;EQDQ01+000782PRSWM1
0179108600999992006010411204+48717+011533FM-15+0365ETSI V0200701N00411014401CN0112651N1+00201-00201999999ADDGA1025+004501999GA2045+014401999GA3075+021001999GF107991999999999999999999MA1102611999999REMMET078ETSI 041120Z 07008KT 9999 FEW015 SCT048 BKN070 02/M02 Q1026 BLU BLU TEMPO GRN;
0180108600999992006010412204+48717+011533FM-15+0365ETSI V0200601N00461006901CN0112651N1+00201-00301999999ADDGA1025+005401999GA2045+006901999GA3075+021001999GF107991999999999999999999MA1102511999999REMMET079ETSI 041220Z 06009KT 9999 FEW018 SCT023 BKN070 02/M03 Q1025 BLU BLU TEMPO BLU+;
0187108600999992006010413004+48717+011533FM-12+0365ETSI V0200601N00501036001CN0180001N1+00191-00311102681ADDGA1011+006001081GA2031+007501061GF107991041081008001031999MA1999999098161MD1810141+9999REMSYN088AAXX  04131 10860 42568 70605 10019 21031 39816 40268 58014 8483/ 333 81820 83625 87357;
0180108600999992006010413204+48717+011533FM-15+0365ETSI V0200501N00461007501CN0112651N1+00201-00401999999ADDGA1025+006001999GA2045+007501999GA3075+021001999GF107991999999999999999999MA1102401999999REMMET079ETSI 041320Z 05009KT 9999 FEW020 SCT025 BKN070 02/M04 Q1024 BLU BLU TEMPO BLU+;
0245108600999992006010414004+48717+011533FM-12+0365ETSI V0200501N005010081019N0200001N1+00151-00341102611ADDGA1021+006001081GA2041+008101061GA3071+021001031GF107991051081008001031999MA1999999098091MD1710221+9999REMSYN130AAXX  04141 10860 42570 70505 10015 21034 39809 40261 57022 8583/ 333 82820 84627 87357 555 BOT 10000 20004 30013 40026 999 43///;
0190108600999992006010414204+48717+011533FM-15+0365ETSI V0200601N00571008101CN0112651N1+00101-00401999999ADDGA1025+006301999GA2045+008101999GA3075+009301999GF107991999999999999999999MA1102401999999MW1711REMMET083ETSI 041420Z 06011KT 9999 -SN FEW021 SCT027 BKN031 01/M04 Q1024 BLU BLU TEMPO BLU+;
0166108600999992006010415204+48717+011533FM-15+0365ETSI V0200601N00511009301CN0112651N1+00101-00401999999ADDGA1025+002401999GA2075+009301999GF107991999999999999999999MA1102301999999MW1711REMMET075ETSI 041520Z 06010KT 9999 -SN FEW008 BKN031 01/M04 Q1023 BLU BLU TEMPO WHT;
0294108600999992006010416004+48717+011533SY-MT+0365ETSI V0200601N00401010501CN0160001N1+00071-00331102591ADDAY171999AY271999GA1025+002401999GA2075+010501999GF108991071081002501999999MA1102301098051MD1710111+9999MW1711REMSYN088AAXX  04161 10860 41366 80604 10007 21033 39805 40259 57011 77877 878// 333 82808 87634;MET079SPECI ETSI 041600Z 06009KT 9999 -SN FEW008 BKN035 01/M03 Q1023 BLU FCST CANCEL;
0152108600999992006010416204+48717+011533FM-15+0365ETSI V0200601N00461010501CN0112651N1+00001-00301999999ADDGA1025+001801999GA2075+010501999GF107991999999999999999999MA1102401999999MW1711REMMET061ETSI 041620Z 06009KT 9999 -SN FEW006 BKN035 00/M03 Q1024 BLU;
0193108600999992006010417004+48717+011533FM-12+0365ETSI V0200601N00501006001CN0120001N1-00011-00301102601ADDAY171999AY271999GA1011+001801081GF105991051081002501001001MA1999999098051MD1610041+9999MW1711REMSYN088AAXX  04171 10860 41362 50605 11001 21030 39805 40260 56004 77177 85800 333 81806 85635;
0153108600999992006010417204+48717+011533FM-15+0365ETSI V0200601N00461010501CN0112651N1+00001-00301999999ADDGA1025+001801999GA2075+010501999GF107991999999999999999999MA1102301999999MW1711REMMET062ETSI 041720Z 06009KT 9999 -SN FEW006 BKN035 M00/M03 Q1023 BLU;
0153108600999992006010418204+48717+011533FM-15+0365ETSI V0200601N00411010201CN0112651N1+00001-00301999999ADDGA1025+001501999GA2075+010201999GF107991999999999999999999MA1102301999999MW1711REMMET062ETSI 041820Z 06008KT 9999 -SN FEW005 BKN034 M00/M03 Q1023 BLU;
0193108600999992006010419004+48717+011533FM-12+0365ETSI V0200601N00401006001CN0180001N1-00051-00251102551ADDAY171999AY271999GA1011+001501081GF107991071081001501999999MA1999999098001MD1810051+9999MW1221REMSYN088AAXX  04191 10860 41268 70604 11005 21025 39800 40255 58005 72277 878// 333 81805 87634;
0159108600999992006010504004+48717+011533FM-12+0365ETSI V0200601N004010060019N0200001N1-00011-00341102091ADDGA1081+006001061GF108991081051008001999999MA1999999097561MD1710151+9999REMSYN076AAXX  05041 10860 43570 80604 11001 21034 39756 40209 57015 885// 333 88620;
0120108600999992006010504204+48717+011533FM-15+0365ETSI V0200601N00411006001CN0112651N1+00001-00401999999ADDGA1085+006001999GF108991999999999999999999MA1101801999999REMMET051ETSI 050420Z 06008KT 9999 OVC020 M00/M04 Q1018 WHT;
0159108600999992006010505004+48717+011533FM-12+0365ETSI V0200701N005010063019N0200001N1-00031-00301102031ADDGA1081+006301061GF108991081051008001999999MA1999999097501MD1710171+9999REMSYN076AAXX  05051 10860 42570 80705 11003 21030 39750 40203 57017 885// 333 88621;
0134108600999992006010505204+48717+011533FM-15+0365ETSI V0200501N00461006301CN0112651N1+00001-00401999999ADDGA1085+006301999GF108991999999999999999999MA1101801999999REMMET065ETSI 050520Z 05009KT 9999 OVC021 M00/M04 Q1018 WHT BLU+TEMPO WHT;
0134108600999992006010506204+48717+011533FM-15+0365ETSI V0200601N00461005701CN0112651N1+00001-00401999999ADDGA1085+005701999GF108991999999999999999999MA1101691999999REMMET065ETSI 050620Z 06009KT 9999 OVC019 M00/M04 Q1017 WHT BLU+TEMPO WHT;
0159108600999992006010507004+48717+011533FM-12+0365ETSI V0200701N004010057019N0180001N1-00021-00291101971ADDGA1081+005701061GF108991081051004501999999MA1999999097451MD1710111+9999REMSYN076AAXX  05071 10860 42468 80704 11002 21029 39745 40197 57011 885// 333 88619;
0134108600999992006010507204+48717+011533FM-15+0365ETSI V0200601N00411005701CN0112651N1+00001-00401999999ADDGA1085+005701999GF108991999999999999999999MA1101691999999REMMET065ETSI 050720Z 06008KT 9999 OVC019 M00/M04 Q1017 WHT BLU+TEMPO WHT;
0159108600999992006010508004+48717+011533FM-12+0365ETSI V0200801N004010057019N0200001N1-00011-00251101931ADDGA1081+005701061GF108991081051004501999999MA1999999097411MD1710091+9999REMSYN076AAXX  05081 10860 42470 80804 11001 21025 39741 40193 57009 885// 333 88619;
0156108600999992006010508204+48717+011533FM-15+0365ETSI V0200801N00411005101CN0112651N1+00001-00301999999ADDGA1075+005101999GA2085+006301999GF108991999999999999999999MA1101691999999REMMET071ETSI 050820Z 08008KT 9999 BKN017 OVC021 00/M03 Q1017 WHT BLU+TEMPO WHT;
0133108600999992006010509204+48717+011533FM-15+0365ETSI V0200901N00361005101CN0112651N1+00101-00301999999ADDGA1085+005101999GF108991999999999999999999MA1101691999999REMMET064ETSI 050920Z 09007KT 9999 OVC017 01/M03 Q1017 WHT BLU+TEMPO WHT;
0159108600999992006010510004+48717+011533FM-12+0365ETSI V0201001N004010051019N0200001N1+00061-00371101931ADDGA1081+005101061GF108991081051004501999999MA1999999097421MD1510031+9999REMSYN076AAXX  05101 10860 42470 81004 10006 21037 39742 40193 55003 885// 333 88617;
0133108600999992006010510204+48717+011533FM-15+0365ETSI V0201001N00361005101CN0112651N1+00101-00301999999ADDGA1085+005101999GF108991999999999999999999MA1101691999999REMMET064ETSI 051020Z 10007KT 9999 OVC017 01/M03 Q1017 WHT WHT TEMPO GRN;
0159108600999992006010511004+48717+011533FM-12+0365ETSI V0201001N003010051019N0200001N1+00071-00341101901ADDGA1081+005101061GF108991081051004501999999MA1999999097391MD1810021+9999REMSYN076AAXX  05111 10860 42470 81003 10007 21034 39739 40190 58002 885// 333 88617;
0133108600999992006010511204+48717+011533FM-15+0365ETSI V0200901N00311005101CN0112651N1+00101-00301999999ADDGA1085+005101999GF108991999999999999999999MA1101591999999REMMET064ETSI 051120Z 09006KT 9999 OVC017 01/M03 Q1016 WHT WHT TEMPO GRN;
0133108600999992006010512204+48717+011533FM-15+0365ETSI V0201001N00261005101CN0112651N1+00101-00201999999ADDGA1085+005101999GF108991999999999999999999MA1101591999999REMMET064ETSI 051220Z 10005KT 9999 OVC017 01/M02 Q1016 WHT WHT TEMPO GRN;
0159108600999992006010513004+48717+011533FM-12+0365ETSI V0200901N003010054019N0200001N1+00131-00231101771ADDGA1081+005401061GF108991081051004501999999MA1999999097281MD1710141+9999REMSYN076AAXX  05131 10860 42470 80903 10013 21023 39728 40177 57014 885// 333 88618;
0133108600999992006010513204+48717+011533FM-15+0365ETSI V0200901N00311005401CN0112651N1+00101-00201999999ADDGA1085+005401999GF108991999999999999999999MA1101491999999REMMET064ETSI 051320Z 09006KT 9999 OVC018 01/M02 Q1015 WHT WHT TEMPO GRN;
0159108600999992006010514004+48717+011533FM-12+0365ETSI V0200901N003010057019N0180001N1+00141-00221101741ADDGA1081+005701061GF108991081051004501999999MA1999999097251MD1710141+9999REMSYN076AAXX  05141 10860 42468 80903 10014 21022 39725 40174 57014 885// 333 88619;
0133108600999992006010514204+48717+011533FM-15+0365ETSI V0200901N00311006001CN0112651N1+00101-00201999999ADDGA1085+006001999GF108991999999999999999999MA1101491999999REMMET064ETSI 051420Z 09006KT 9999 OVC020 01/M02 Q1015 WHT WHT TEMPO GRN;
0133108600999992006010515204+48717+011533FM-15+0365ETSI V0201001N00361006001CN0112651N1+00201-00301999999ADDGA1085+006001999GF108991999999999999999999MA1101491999999REMMET064ETSI 051520Z 10007KT 9999 OVC020 02/M03 Q1015 WHT WHT TEMPO GRN;
0159108600999992006010516004+48717+011533FM-12+0365ETSI V0201101N004010054019N0120001N1+00181-00271101721ADDGA1081+005401061GF108991081051004501999999MA1999999097241MD1610041+9999REMSYN076AAXX  05161 10860 42462 81104 10018 21027 39724 40172 56004 885// 333 88618;
0131108600999992006010516204+48717+011533FM-15+0365ETSI V0200801N00211005401CN0112651N1+00201-00101999999ADDGA1085+005401999GF108991999999999999999999MA1101491999999REMMET062ETSI 051620Z 08004KT 9999 OVC018 02/M01 Q1015 WHT FCST CANCEL;
0159108600999992006010517004+48717+011533FM-12+0365ETSI V0200801N003010051019N0100001N1+00141-00201101731ADDGA1081+005101061GF108991081051004501999999MA1999999097241MD1610011+9999REMSYN076AAXX  05171 10860 42460 80803 10014 21020 39724 40173 56001 885// 333 88617;
0119108600999992006010517204+48717+011533FM-15+0365ETSI V0201001N00211005101CN0112651N1+00101-00101999999ADDGA1085+005101999GF108991999999999999999999MA1101491999999REMMET050ETSI 051720Z 10004KT 9999 OVC017 01/M01 Q1015 WHT;
0119108600999992006010518204+48717+011533FM-15+0365ETSI V0200901N00261004801CN0112651N1+00101-00101999999ADDGA1085+004801999GF108991999999999999999999MA1101491999999REMMET050ETSI 051820Z 09005KT 9999 OVC016 01/M01 Q1015 WHT;
0159108600999992006010519004+48717+011533FM-12+0365ETSI V0200901N003010048019N0100001N1+00151-00191101761ADDGA1081+004801061GF108991081051004501999999MA1999999097271MD1310031+9999REMSYN076AAXX  05191 10860 42460 80903 10015 21019 39727 40176 53003 885// 333 88616;
0119108600999992006010522204+48717+011533FM-15+0365ETSI V0201101N00151004501CN0112651N1+00101-00101999999ADDGA1085+004501999GF108991999999999999999999MA1101491999999REMMET050ETSI 052220Z 11003KT 9999 OVC015 01/M01 Q1015 WHT;
0179108600999992006010904004+48717+011533FM-12+0365ETSI V0200601N002010015019N0070001N1-00271-00361102981ADDAY121999GA1081+001501071GF108991081061001501999999MA1999999098371MD1710041+9999MW1101REMSYN082AAXX  09041 10860 41257 80602 11027 21036 39837 40298 57004 7102/ 886// 333 88705;
0120108600999992006010904204+48717+011533FM-15+0365ETSI V0201301N00151001501CN0070001N1-00301-00401999999ADDGA1085+001501999GF108991999999999999999999MA1102711999999REMMET051ETSI 090420Z 13003KT 7000 OVC005 M03/M04 Q1027 YLO;
0187108600999992006010905004+48717+011533FM-12+0365ETSI V0201201N001010015019N0070001N1-00281-00331102971ADDAY121999AY221999GA1081+001501071GF108991081061001501999999MA1999999098361MD1810041+9999MW1101REMSYN082AAXX  09051 10860 41257 81201 11028 21033 39836 40297 58004 71022 886// 333 88705;
0124108600999992006010905204+48717+011533FM-15+0365ETSI V0200601N00211001201CN0070001N1-00301-00501999999ADDGA1085+001201999GF108991999999999999999999MA1102611999999REMMET055ETSI 090520Z 06004KT 7000 OVC004 M03/M05 Q1026 YLO YLO;
0134108600999992006010906204+48717+011533FM-15+0365ETSI V0200601N00211002401CN0060001N1-00301-00401999999ADDGA1085+002401999GF108991999999999999999999MA1102711999999REMMET065ETSI 090620Z 06004KT 6000 OVC008 M03/M04 Q1027 GRN GRN TEMPO YLO;
0187108600999992006010907004+48717+011533FM-12+0365ETSI V0200601N002010024019N0060001N1-00341-00461103001ADDAY121999AY221999GA1081+002401071GF108991081061002501999999MA1999999098381MD1310011+9999MW1101REMSYN082AAXX  09071 10860 41356 80602 11034 21046 39838 40300 53001 71022 886// 333 88708;
0149108600999992006010907024+48717+011533FM-16+0365ETSI V0200601N00211002401CN0050001N1-00301-00501999999ADDGA1085+002401999GF108991999999999999999999MA1102711999999MW1101REMMET074SPECI ETSI 090702Z 06004KT 5000 BR OVC008 M03/M05 Q1027 GRN GRN TEMPO YLO;
0143108600999992006010907204+48717+011533FM-15+0365ETSI V0200601N00211002401CN0050001N1-00301-00501999999ADDGA1085+002401999GF108991999999999999999999MA1102711999999MW1101REMMET068ETSI 090720Z 06004KT 5000 BR OVC008 M03/M05 Q1027 GRN GRN TEMPO YLO;
0187108600999992006010908004+48717+011533FM-12+0365ETSI V0200601N003010024019N0050001N1-00331-00511103031ADDAY121999AY221999GA1081+002401071GF108991081061002501999999MA1999999098411MD1310051+9999MW1101REMSYN082AAXX  09081 10860 41350 80603 11033 21051 39841 40303 53005 71022 886// 333 88708;
0143108600999992006010908204+48717+011533FM-15+0365ETSI V0200701N00261002401CN0050001N1-00301-00501999999ADDGA1085+002401999GF108991999999999999999999MA1102711999999MW1101REMMET068ETSI 090820Z 07005KT 5000 BR OVC008 M03/M05 Q1027 GRN GRN TEMPO YLO;
0143108600999992006010909204+48717+011533FM-15+0365ETSI V0200601N00311002401CN0050001N1-00301-00501999999ADDGA1085+002401999GF108991999999999999999999MA1102711999999MW1101REMMET068ETSI 090920Z 06006KT 5000 BR OVC008 M03/M05 Q1027 GRN GRN TEMPO YLO;
0187108600999992006010910004+48717+011533FM-12+0365ETSI V0200501N003010027019N0050001N1-00331-00431103071ADDAY121999AY221999GA1081+002701071GF108991081061002501999999MA1999999098451MD1210071+9999MW1101REMSYN082AAXX  09101 10860 41350 80503 11033 21043 39845 40307 52007 71022 886// 333 88709;
0143108600999992006010910204+48717+011533FM-15+0365ETSI V0200501N00261002701CN0050001N1-00301-00501999999ADDGA1085+002701999GF108991999999999999999999MA1102811999999MW1101REMMET068ETSI 091020Z 05005KT 5000 BR OVC009 M03/M05 Q1028 GRN GRN TEMPO YLO;
0187108600999992006010911004+48717+011533FM-12+0365ETSI V0200501N003010027019N0050001N1-00311-00491103101ADDAY121999AY221999GA1081+002701071GF108991081061002501999999MA1999999098481MD1210071+9999MW1101REMSYN082AAXX  09111 10860 41350 80503 11031 21049 39848 40310 52007 71022 886// 333 88709;
0135108600999992006010911204+48717+011533FM-15+0365ETSI V0200601N00211002701CN0060001N1-00301-00501999999ADDGA1085+002701999GF108991999999999999999999MA1102811999999REMMET066ETSI 091120Z 06004KT 6000 OVC009 M03/M05 Q1028 GRN GRN TEMPO BLU+;
0135108600999992006010912204+48717+011533FM-15+0365ETSI V0200701N00151003001CN0070001N1-00301-00401999999ADDGA1075+003001999GF107991999999999999999999MA1102711999999REMMET066ETSI 091220Z 07003KT 7000 BKN010 M03/M04 Q1027 GRN GRN TEMPO BLU+;
0187108600999992006010913004+48717+011533FM-12+0365ETSI V0201701N001010030019N0070001N1-00271-00421103021ADDAY121999AY221999GA1071+003001071GF107991071061004501999999MA1999999098411MD1810041+9999MW1101REMSYN082AAXX  09131 10860 41457 71701 11027 21042 39841 40302 58004 71022 876// 333 87710;
0135108600999992006010913204+48717+011533FM-15+0365ETSI V0201701N00151003301CN0080001N1-00301-00501999999ADDGA1075+003301999GF107991999999999999999999MA1102711999999REMMET066ETSI 091320Z 17003KT 8000 BKN011 M03/M05 Q1027 GRN GRN TEMPO BLU+;
0201108600999992006010914004+48717+011533FM-12+0365ETSI V0201601N001010033019N0080001N1-00261-00521102991ADDGA1071+003301071GF107991071061004501999999MA1999999098381MD1710101+9999REMSYN118AAXX  09141 10860 42458 71601 11026 21052 39838 40299 57010 876// 333 87711 555 BOT 10000 20004 30012 40026 999 42///;
0135108600999992006010914204+48717+011533FM-15+0365ETSI V0201501N00151003901CN0080001N1-00301-00501999999ADDGA1075+003901999GF107991999999999999999999MA1102711999999REMMET066ETSI 091420Z 15003KT 8000 BKN013 M03/M05 Q1027 GRN GRN TEMPO BLU+;
0121108600999992006010915204+48717+011533FM-15+0365ETSI V0201601N001510039059N0070001N1-00301-00501999999ADDGA1045+003305999GA2075+003905999MA1102701999999REMMET062ETSI 091520Z 16003KT 7000 SCT011 BKN013 M03/M05 Q1027 GRN GRN;
0187108600999992006010916004+48717+011533FM-12+0365ETSI V0201001N002010030019N0060001N1-00271-00501103011ADDAY121999AY221999GA1071+003001061GF107991071051004501999999MA1999999098401MD1510011+9999MW1101REMSYN082AAXX  09161 10860 41456 71002 11027 21050 39840 40301 55001 71022 875// 333 87610;
0141108600999992006010916204+48717+011533FM-15+0365ETSI V0201801N00151003001CN0050001N1-00301-00601999999ADDGA1075+003001999GF107991999999999999999999MA1102711999999MW1101REMMET066ETSI 091620Z 18003KT 5000 BR BKN010 M03/M06 Q1027 GRN FCST CANCEL;
0187108600999992006010917004+48717+011533FM-12+0365ETSI V0209999V001010030019N0050001N1-00301-00521103031ADDAY121999AY221999GA1071+003001061GF107991071051004501999999MA1999999098411MD1210031+9999MW1101REMSYN082AAXX  09171 10860 41450 79901 11030 21052 39841 40303 52003 71022 875// 333 87610;
0120108600999992006010917204+48717+011533FM-15+0365ETSI V0201401N00151002701CN0060001N1-00301-00601999999ADDGA1075+002701999GF107991999999999999999999MA1102711999999REMMET051ETSI 091720Z 14003KT 6000 BKN009 M03/M06 Q1027 GRN;
0120108600999992006010918204+48717+011533FM-15+0365ETSI V0201401N00151002101CN0060001N1-00301-00601999999ADDGA1075+002101999GF107991999999999999999999MA1102711999999REMMET051ETSI 091820Z 14003KT 6000 BKN007 M03/M06 Q1027 GRN;
0135108600999992006010918474+48717+011533FM-16+0365ETSI V0201201N00101001801CN0050001N1-00301-00501999999ADDGA1085+001801999GF108991999999999999999999MA1102711999999MW1101REMMET060SPECI ETSI 091847Z 12002KT 5000 BR OVC006 M03/M05 Q1027 YLO;
0187108600999992006010919004+48717+011533FM-12+0365ETSI V0201201N001010021019N0050001N1-00351-00481103071ADDAY121999AY221999GA1081+002101071GF108991081061002501999999MA1999999098441MD1210041+9999MW1101REMSYN082AAXX  09191 10860 41350 81201 11035 21048 39844 40307 52004 71022 886// 333 88707;
0187108600999992006011004004+48717+011533FM-12+0365ETSI V0201701N002010012019N0040001N1-00471-00651103231ADDAY121999AY221999GA1081+001201071GF108991081061001501999999MA1999999098571MD1010051+9999MW1101REMSYN082AAXX  10041 10860 41240 81702 11047 21065 39857 40323 50005 71022 886// 333 88704;
0129108600999992006011004204+48717+011533FM-15+0365ETSI V0202001N00211001201CN0045001N1-00501-00601999999ADDGA1085+001201999GF108991999999999999999999MA1102911999999MW1101REMMET054ETSI 100420Z 20004KT 4500 BR OVC004 M05/M06 Q1029 YLO;
0187108600999992006011005004+48717+011533FM-12+0365ETSI V0209999V001010012019N0045001N1-00481-00621103211ADDAY121999AY221999GA1081+001201071GF108991081061001501999999MA1999999098551MD1810021+9999MW1101REMSYN082AAXX  10051 10860 41245 89901 11048 21062 39855 40321 58002 71022 886// 333 88704;
0133108600999992006011005204+48717+011533FM-15+0365ETSI V0201801N00151001201CN0040001N1-00501-00701999999ADDGA1085+001201999GF108991999999999999999999MA1102911999999MW1101REMMET058ETSI 100520Z 18003KT 4000 BR OVC004 M05/M07 Q1029 YLO YLO;
0133108600999992006011006204+48717+011533FM-15+0365ETSI V0202301N00101001801CN0045001N1-00501-00701999999ADDGA1085+001801999GF108991999999999999999999MA1102911999999MW1101REMMET058ETSI 100620Z 23002KT 4500 BR OVC006 M05/M07 Q1029 YLO YLO;
0187108600999992006011007004+48717+011533FM-12+0365ETSI V0202501N002010018019N0040001N1-00481-00691103271ADDAY121999AY221999GA1081+001801071GF108991081061002501999999MA1999999098611MD1310041+9999MW1101REMSYN082AAXX  10071 10860 41340 82502 11048 21069 39861 40327 53004 71022 886// 333 88706;
0133108600999992006011007204+48717+011533FM-15+0365ETSI V0209999V00101001801CN0045001N1-00501-00501999999ADDGA1085+001801999GF108991999999999999999999MA1102911999999MW1101REMMET058ETSI 100720Z VRB02KT 4500 BR OVC006 M05/M05 Q1029 YLO YLO;
0187108600999992006011008004+48717+011533FM-12+0365ETSI V0202001N002010018019N0045001N1-00491-00651103311ADDAY121999AY221999GA1081+001801071GF108991081061002501999999MA1999999098651MD1210101+9999MW1101REMSYN082AAXX  10081 10860 41345 82002 11049 21065 39865 40331 52010 71022 886// 333 88706;
0143108600999992006011008204+48717+011533FM-15+0365ETSI V0209999V00101001801CN0045001N1-00501-00501999999ADDGA1085+001801999GF108991999999999999999999MA1103011999999MW1101REMMET068ETSI 100820Z VRB02KT 4500 BR OVC006 M05/M05 Q1030 YLO YLO BECMG GRN;
0133108600999992006011008504+48717+011533FM-15+0365ETSI V0202401N00151002101CN0045001N1-00501-00601999999ADDGA1085+002101999GF108991999999999999999999MA1103011999999MW1101REMMET058ETSI 100850Z 24003KT 4500 BR OVC007 M05/M06 Q1030 GRN GRN;
0133108600999992006011009204+48717+011533FM-15+0365ETSI V0201301N00151002101CN0050001N1-00501-00601999999ADDGA1085+002101999GF108991999999999999999999MA1103011999999MW1101REMMET058ETSI 100920Z 13003KT 5000 BR OVC007 M05/M06 Q1030 GRN GRN;
0187108600999992006011010004+48717+011533FM-12+0365ETSI V0209999V001010024019N0050001N1-00471-00601103401ADDAY121999AY221999GA1081+002401071GF108991081061002501999999MA1999999098741MD1210131+9999MW1101REMSYN082AAXX  10101 10860 41350 89901 11047 21060 39874 40340 52013 71022 886// 333 88708;
0133108600999992006011010204+48717+011533FM-15+0365ETSI V0209999V00101002401CN0050001N1-00501-00701999999ADDGA1085+002401999GF108991999999999999999999MA1103121999999MW1101REMMET058ETSI 101020Z VRB02KT 5000 BR OVC008 M05/M07 Q1031 GRN GRN;
0187108600999992006011011004+48717+011533FM-12+0365ETSI V0202101N002010024019N0050001N1-00471-00651103411ADDAY121999AY221999GA1081+002401071GF108991081061002501999999MA1999999098751MD1210101+9999MW1101REMSYN082AAXX  10111 10860 41350 82102 11047 21065 39875 40341 52010 71022 886// 333 88708;
0133108600999992006011011204+48717+011533FM-15+0365ETSI V0201501N00151002401CN0050001N1-00401-00501999999ADDGA1085+002401999GF108991999999999999999999MA1103121999999MW1101REMMET058ETSI 101120Z 15003KT 5000 BR OVC008 M04/M05 Q1031 GRN GRN;
0124108600999992006011014204+48717+011533FM-15+0365ETSI V0202401N00101003001CN0060001N1-00301-00501999999ADDGA1075+003001999GF107991999999999999999999MA1103011999999REMMET055ETSI 101420Z 24002KT 6000 BKN010 M03/M05 Q1030 GRN GRN;
0124108600999992006011015204+48717+011533FM-15+0365ETSI V0209999V00051003001CN0060001N1-00401-00501999999ADDGA1075+003001999GF107991999999999999999999MA1103011999999REMMET055ETSI 101520Z VRB01KT 6000 BKN010 M04/M05 Q1030 GRN GRN;
0262108600999992006011016004+48717+011533SY-MT+0365ETSI V0201401N00101002701CN0060001N1-00381-00541103271ADDAY121999AY221999GA1085+002701999GF108991081061002501999999MA1103011098631MD1610061+9999MW1101REMSYN082AAXX  10161 10860 41356 81401 11038 21054 39863 40327 56006 71022 886// 333 88709;MET069SPECI ETSI 101600Z VRB01KT 6000 OVC009 M04/M05 Q1030 GRN FCST CANCEL;
0120108600999992006011016204+48717+011533FM-15+0365ETSI V0201301N00101002701CN0060001N1-00401-00501999999ADDGA1085+002701999GF108991999999999999999999MA1102911999999REMMET051ETSI 101620Z 13002KT 6000 OVC009 M04/M05 Q1029 GRN;
0187108600999992006011017004+48717+011533FM-12+0365ETSI V0201501N001010024019N0060001N1-00401-00551103291ADDAY121999AY221999GA1081+002401071GF108991081061002501999999MA1999999098641MD1510031+9999MW1101REMSYN082AAXX  10171 10860 41356 81501 11040 21055 39864 40329 55003 71022 886// 333 88708;
0120108600999992006011017204+48717+011533FM-15+0365ETSI V0201501N00101002101CN0060001N1-00401-00601999999ADDGA1085+002101999GF108991999999999999999999MA1103011999999REMMET051ETSI 101720Z 15002KT 6000 OVC007 M04/M06 Q1030 GRN;
0165108600999992006011104004+48717+011533FM-12+0365ETSI V0200601N001010001519N0005001N1-00721-00721103331ADDGA1091+000151999GF109991091999999999999999MA1999999098631MD1710071+9999MW1491REMSYN076AAXX  11041 10860 41/05 90601 11072 21072 39863 40333 57007 749// 333 89/00;
0150108600999992006011104204+48717+011533FM-15+0365ETSI V0209999V000510001519N0005001N1-00701-00701999999ADDED125U14009GA1091+000151999GF109991999999000251999999MA1102911999999MW1491REMMET064ETSI 110420Z VRB01KT 0500 R25/1400 FZFG VV000 M07/M07 Q1029 RED;
0154108600999992006011105204+48717+011533FM-15+0365ETSI V0201001N001010001519N0007001N1-00701-00701999999ADDED125U18009GA1091+000151999GF109991999999000251999999MA1102911999999MW1491REMMET068ETSI 110520Z 10002KT 0700 R25/1800 FZFG VV000 M07/M07 Q1029 RED RED;
0154108600999992006011105364+48717+011533FM-16+0365ETSI V0201701N001510001519N0008001N1-00701-00801999999ADDED125U14009GA1091+000151999GF109991999999000251999999MA1102911999999MW1491REMMET068ETSI 110536Z 17003KT 0800 R25/1400 FZFG VV000 M07/M08 Q1029 RED RED;
0150108600999992006011106204+48717+011533FM-15+0365ETSI V0201301N00101000301CN0012001N1-00701-00701999999ADDED125U26009GA1085+000301999GF108991999999999999999999MW1101MW2121REMMET073ETSI 110620Z 13002KT 1200 R25/2600 MIFG BR OVC001 M07/M07 Q102 9 RED RED;
0187108600999992006011107004+48717+011533FM-12+0365ETSI V0201101N001010003019N0010001N1-00731-00731103281ADDAY141999AY221999GA1081+000301071GF108991081061000751999999MA1999999098581MD1710051+9999MW1771REMSYN082AAXX  11071 10860 41110 81101 11073 21073 39858 40328 57005 77742 886// 333 88701;
0154108600999992006011107204+48717+011533FM-15+0365ETSI V0209999V001010001519N0009001N1-00701-00701999999ADDED125U20009GA1091+000151999GF109991999999000251999999MA1102911999999MW1491REMMET068ETSI 110720Z VRB02KT 0900 R25/2000 FZFG VV000 M07/M07 Q1029 RED RED;
0181108600999992006011108004+48717+011533FM-12+0365ETSI V0201601N001010001519N0008001N1-00711-00771103321ADDAY171999AY241999GA1091+000151999GF109991091999999999999999MA1999999098621MD1210031+9999MW1491REMSYN076AAXX  11081 10860 41/08 91601 11071 21077 39862 40332 52003 74974 333 89/00;
0154108600999992006011108204+48717+011533FM-15+0365ETSI V0202801N001510001519N0008001N1-00701-00701999999ADDED125U18009GA1091+000151999GF109991999999000251999999MA1102911999999MW1491REMMET068ETSI 110820Z 28003KT 0800 R25/1800 FZFG VV000 M07/M07 Q1029 RED RED;
0169108600999992006011109064+48717+011533FM-16+0365ETSI V0201801N00151000601CN0015001N1-00701-00801999999ADDED125U25009GA1085+000601999GF108991999999999999999999MA1103011999999MW1101REMMET083SPECI ETSI 110906Z 18003KT 1500 R25/2500 BR OVC002 M07/M08 Q1030 AMB AMB BECMG YLO;
0163108600999992006011109204+48717+011533FM-15+0365ETSI V0209999V00101000601CN0016001N1-00701-00701999999ADDED125U33009GA1085+000601999GF108991999999999999999999MA1103011999999MW1101REMMET077ETSI 110920Z VRB02KT 1600 R25/3300 BR OVC002 M07/M07 Q1030 AMB AMB BECMG YLO;
0133108600999992006011109464+48717+011533FM-16+0365ETSI V0202501N00151000901CN0020001N1-00701-00801999999ADDGA1085+000901999GF108991999999999999999999MA1103011999999MW1101REMMET058ETSI 110946Z 25003KT 2000 BR OVC003 M07/M08 Q1030 YLO YLO;
0187108600999992006011110004+48717+011533FM-12+0365ETSI V0202501N002010009019N0020001N1-00671-00801103381ADDAY121999AY221999GA1081+000901071GF108991081061001501999999MA1999999098681MD1210101+9999MW1101REMSYN082AAXX  11101 10860 41220 82502 11067 21080 39868 40338 52010 71022 886// 333 88703;
0133108600999992006011110204+48717+011533FM-15+0365ETSI V0202001N00101001201CN0025001N1-00701-00701999999ADDGA1085+001201999GF108991999999999999999999MA1103011999999MW1101REMMET058ETSI 111020Z 20002KT 2500 BR OVC004 M07/M07 Q1030 YLO YLO;
0133108600999992006011110414+48717+011533FM-16+0365ETSI V0202101N00101001501CN0030001N1-00701-00701999999ADDGA1085+001501999GF108991999999999999999999MA1103011999999MW1101REMMET058ETSI 111041Z 21002KT 3000 BR OVC005 M07/M07 Q1030 YLO YLO;
0187108600999992006011111004+48717+011533FM-12+0365ETSI V0202401N001010015019N0030001N1-00661-00671103421ADDAY121999AY221999GA1081+001501071GF108991081061001501999999MA1999999098721MD1210101+9999MW1101REMSYN082AAXX  11111 10860 41230 82401 11066 21067 39872 40342 52010 71022 886// 333 88705;
0144108600999992006011111204+48717+011533FM-15+0365ETSI V0209999V00101001801CN0030001N1-00601-00701999999ADDGA1075+001801999GF107991999999999999999999MA1103011999999MW1101REMMET069ETSI 111120Z VRB02KT 3000 BR BKN006 M06/M07 Q1030 YLO GRN TEMPO BLU+;
0144108600999992006011112044+48717+011533FM-16+0365ETSI V0209999V000512200019N0040001N1-00501-00601999999ADDGA1045+002101999GF104991999999999999999999MA1103011999999MW1101REMMET069ETSI 111204Z VRB01KT 4000 BR SCT007 M05/M06 Q1030 GRN GRN TEMPO BLU+;
0150108600999992006011112124+48717+011533FM-16+0365ETSI V0209999V000512200019N0050001N1-00401-00501999999ADDGA1025+002101999GF102991999999999999999999MA1102911999999MW1101REMMET075SPECI ETSI 111212Z VRB01KT 5000 BR FEW007 M04/M05 Q1029 WHT WHT TEMPO BLU+;
0144108600999992006011112204+48717+011533FM-15+0365ETSI V0209999V000512200019N0050001N1-00401-00501999999ADDGA1025+002401999GF102991999999999999999999MA1102911999999MW1101REMMET069ETSI 111220Z VRB01KT 5000 BR FEW008 M04/M05 Q1029 WHT WHT TEMPO BLU+;
0187108600999992006011113004+48717+011533FM-12+0365ETSI V0200601N001012200019N0050001N1-00381-00631103221ADDAY111999AY211999GA1011+002401071GF102991011061002501001011MA1999999098581MD1810101+9999MW1101REMSYN082AAXX  11131 10860 41350 20601 11038 21063 39858 40322 58010 71011 81601 333 81708;
0144108600999992006011113204+48717+011533FM-15+0365ETSI V0209999V001012200019N0050001N1-00401-00501999999ADDGA1025+002401999GF102991999999999999999999MA1102911999999MW1101REMMET069ETSI 111320Z VRB02KT 5000 BR FEW008 M04/M05 Q1029 WHT WHT TEMPO BLU+;
0229108600999992006011114004+48717+011533FM-12+0365ETSI V0200501N001012200019N0050001N1-00391-00541103171ADDAY101999AY201999GA1011+063001001GF101991001001999999001011MA1999999098531MD1710191+9999MW1101REMSYN124AAXX  11141 10860 41950 10501 11039 21054 39853 40317 57019 71000 80001 333 81071 555 BOT 11007 21003 30008 40023 999 42///;
0133108600999992006011114204+48717+011533FM-15+0365ETSI V0200101N001512200019N0050001N1-00401-00601999999ADDGA1025+075001999GF102991999999999999999999MA1102811999999MW1101REMMET058ETSI 111420Z 01003KT 5000 BR FEW250 M04/M06 Q1028 WHT WHT;
0133108600999992006011115204+48717+011533FM-15+0365ETSI V0200801N001012200019N0050001N1-00401-00601999999ADDGA1025+075001999GF102991999999999999999999MA1102811999999MW1101REMMET058ETSI 111520Z 08002KT 5000 BR FEW250 M04/M06 Q1028 WHT WHT;
0265108600999992006011116004+48717+011533SY-MT+0365ETSI V0200101N001012200019N0050001N1-00471-00601103201ADDAY101999AY201999GA1025+075001999GF199999001001999999001011MA1102911098551MD1510031+9999MW1101REMSYN082AAXX  11161 10860 41950 10101 11047 21060 39855 40320 55003 71000 80001 333 81075;MET072SPECI ETSI 111600Z 35001KT 5000 BR FEW250 M05/M06 Q1029 WHT FCST CANCEL;
0187108600999992006011117004+48717+011533FM-12+0365ETSI V0201201N001012200019N0040001N1-00611-00721103261ADDAY101999AY201999GA1011+075001001GF101991001001999999001011MA1999999098581MD1310051+9999MW1101REMSYN082AAXX  11171 10860 41940 11201 11061 21072 39858 40326 53005 71000 80001 333 81075;
0080108600999992006011117204+48717+011533FM-15+0365ETSI V0209999C000012200019N0040001N1-00701-00701999999ADDMA1102911999999MW1101REMMET047ETSI 111720Z 00000KT 4000 BR M07/M07 Q1029 GRN;
0086108600999992006011118034+48717+011533FM-16+0365ETSI V0209999C000012200019N0035001N1-00701-00701999999ADDMA1102911999999MW1101REMMET053SPECI ETSI 111803Z 00000KT 3500 BR M07/M07 Q1029 YLO;
0080108600999992006011118204+48717+011533FM-15+0365ETSI V0201701N000512200019N0035001N1-00801-00801999999ADDMA1102911999999MW1101REMMET047ETSI 111820Z 17001KT 3500 BR M08/M08 Q1029 YLO;
0171108600999992006011119004+48717+011533FM-12+0365ETSI V0209999C000012200019N0035001N1-00811-00821103341ADDAY101999AY201999GA1001+999999999GF100991001001999999001001MA1999999098621MD1210071+9999MW1101REMSYN066AAXX  11191 10860 41935 00000 11081 21082 39862 40334 52007 71000;
0177108600999992006011204004+48717+011533FM-12+0365ETSI V0200701N002019999999N0050001N1-00951-01021103521ADDGA1031+045001031GF107991031001999999031061MA1999999098771MD1210061+9999MW1101REMSYN088AAXX  12041 10860 41950 70702 11095 21102 39877 40352 52006 710// 83036 333 83365 87271;
0152108600999992006011204204+48717+011533FM-15+0365ETSI V0200701N00101063001CN0045001N1-00901-00901999999ADDGA1045+045001999GA2075+063001999GF107991999999999999999999MA1103121999999MW1101REMMET061ETSI 120420Z 07002KT 4500 BR SCT150 BKN210 M09/M09 Q1031 GRN;
0193108600999992006011205004+48717+011533FM-12+0365ETSI V0200601N001019999999N0045001N1-00951-00971103511ADDAY121999AY221999GA1031+045001031GF107991031001999999031061MA1999999098761MD1210041+9999MW1101REMSYN088AAXX  12051 10860 41945 70601 11095 21097 39876 40351 52004 71022 83036 333 83365 87271;
0166108600999992006011205204+48717+011533FM-15+0365ETSI V0200501N00101060001CN0045001N1-00901-01001999999ADDGA1025+015001999GA2075+060001999GF107991999999999999999999MA1103121999999MW1101REMMET075ETSI 120520Z 05002KT 4500 BR FEW050 BKN200 M09/M10 Q1031 GRN GRN TEMPO YLO;
0143108600999992006011206204+48717+011533FM-15+0365ETSI V0200601N00151018001CN0045001N1-00901-00901999999ADDGA1075+018001999GF107991999999999999999999MA1103121999999MW1101REMMET068ETSI 120620Z 06003KT 4500 BR BKN060 M09/M09 Q1031 GRN GRN TEMPO YLO;
0193108600999992006011207004+48717+011533FM-12+0365ETSI V0201201N00101090001CN0045001N1-00911-00931103561ADDAY121999AY221999GA1031+018001061GF106991031051017501001021MA1999999098811MD1310041+9999MW1101REMSYN088AAXX  12071 10860 41745 61201 11091 21093 39881 40356 53004 71022 83502 333 83656 86070;
0189108600999992006011207204+48717+011533FM-15+0365ETSI V0200601N00101036001CN0040001N1-00901-01001999999ADDGA1025+018001999GA2075+036001999GA3075+060001999GF107991999999999999999999MA1103181999999MW1101REMMET082ETSI 120720Z 06002KT 4000 BR FEW060 BKN120 BKN200 M09/M10 Q1032 GRN GRN TEMPO YLO;
0215108600999992006011208004+48717+011533FM-12+0365ETSI V0200701N001010360019N0040001N1-00861-00971103561ADDAY121999AY221999GA1021+018001061GA2051+036001031GF107991021051017501031011MA1999999098821MD1210061+9999MW1101REMSYN094AAXX  12081 10860 41740 70701 11086 21097 39882 40356 52006 71022 82531 333 82656 85362 85070;
0189108600999992006011208204+48717+011533FM-15+0365ETSI V0200701N00151036001CN0050001N1-00801-00901999999ADDGA1025+018001999GA2075+036001999GA3075+060001999GF107991999999999999999999MA1103181999999MW1101REMMET082ETSI 120820Z 07003KT 5000 BR FEW060 BKN120 BKN200 M08/M09 Q1032 WHT WHT TEMPO GRN;
0189108600999992006011209204+48717+011533FM-15+0365ETSI V0200701N00151036001CN0050001N1-00701-00701999999ADDGA1025+018001999GA2075+036001999GA3075+060001999GF107991999999999999999999MA1103181999999MW1101REMMET082ETSI 120920Z 07003KT 5000 BR FEW060 BKN120 BKN200 M07/M07 Q1032 WHT WHT TEMPO GRN;
0193108600999992006011210004+48717+011533FM-12+0365ETSI V0200401N002010360019N0050001N1-00621-00781103581ADDAY121999AY221999GA1051+036001031GF107991021001999999031061MA1999999098881MD1110071+9999MW1101REMSYN088AAXX  12101 10860 41950 70402 11062 21078 39888 40358 51007 71022 82036 333 85362 87270;
0166108600999992006011210204+48717+011533FM-15+0365ETSI V0200901N00151060001CN0050001N1-00601-00701999999ADDGA1025+036001999GA2075+060001999GF107991999999999999999999MA1103181999999MW1101REMMET075ETSI 121020Z 09003KT 5000 BR FEW120 BKN200 M06/M07 Q1032 WHT WHT TEMPO GRN;
0193108600999992006011211004+48717+011533FM-12+0365ETSI V0200801N002019999999N0050001N1-00491-00661103571ADDAY121999AY221999GA1021+036001031GF107991021001999999031061MA1999999098901MD1110081+9999MW1101REMSYN088AAXX  12111 10860 41950 70802 11049 21066 39890 40357 51008 71022 82036 333 82362 87270;
0147108600999992006011211204+48717+011533FM-15+0365ETSI V0200901N00211060001CN0060001N1-00401-00701999999ADDGA1025+030001999GA2075+060001999GF107991999999999999999999MA1103181999999REMMET062ETSI 121120Z 09004KT 6000 FEW100 BKN200 M04/M07 Q1032 WHT WHT;
0147108600999992006011212204+48717+011533FM-15+0365ETSI V0200601N00261060001CN0070001N1-00301-00601999999ADDGA1025+030001999GA2075+060001999GF107991999999999999999999MA1103181999999REMMET062ETSI 121220Z 06005KT 7000 FEW100 BKN200 M03/M06 Q1032 WHT WHT;
0193108600999992006011213004+48717+011533FM-12+0365ETSI V0200601N002019999999N0070001N1-00231-00591103461ADDAY121999AY221999GA1011+030001031GF107991011001999999031081MA1999999098831MD1810051+9999MW1051REMSYN088AAXX  12131 10860 41957 70602 11023 21059 39883 40346 58005 70522 81038 333 81360 87270;
0158108600999992006011213204+48717+011533FM-15+0365ETSI V0200801N00211060001CN0080001N1-00201-00701999999ADDGA1025+030001999GA2075+060001999GF107991999999999999999999MA1103121999999REMMET073ETSI 121320Z 08004KT 8000 FEW100 BKN200 M02/M07 Q1031 BLU+WHT TEMPO BLU+;
0223108600999992006011214004+48717+011533FM-12+0365ETSI V0200301N002010600019N0080001N1-00211-00641103411ADDGA1011+030001031GA2071+060001021GF107991011001999999031081MA1999999098791MD1710111+9999REMSYN124AAXX  12141 10860 42958 70302 11021 21064 39879 40341 57011 81038 333 81360 87270 555 BOT 11013 21009 30002 40022 999 42///;
0158108600999992006011214204+48717+011533FM-15+0365ETSI V0200701N00261060001CN0080001N1-00101-00501999999ADDGA1025+030001999GA2075+060001999GF107991999999999999999999MA1103121999999REMMET073ETSI 121420Z 07005KT 8000 FEW100 BKN200 M01/M05 Q1031 BLU+WHT TEMPO BLU+;
0158108600999992006011215204+48717+011533FM-15+0365ETSI V0200601N00311060001CN0070001N1-00201-00601999999ADDGA1025+030001999GA2075+060001999GF107991999999999999999999MA1103121999999REMMET073ETSI 121520Z 06006KT 7000 FEW100 BKN200 M02/M06 Q1031 WHT WHT TEMPO BLU+;
0193108600999992006011216004+48717+011533FM-12+0365ETSI V0200601N004019999999N0070001N1-00281-00611103401ADDAY121999AY221999GA1021+030001031GF107991021001999999031081MA1999999098771MD1710061+9999MW1051REMSYN088AAXX  12161 10860 41957 70604 11028 21061 39877 40340 57006 70522 82038 333 82360 87270;
0155108600999992006011216204+48717+011533FM-15+0365ETSI V0200601N00361060001CN0070001N1-00301-00601999999ADDGA1025+030001999GA2075+060001999GF107991999999999999999999MA1103121999999REMMET070ETSI 121620Z 06007KT 7000 FEW100 BKN200 M03/M06 Q1031 WHT FCST CANCEL;
0193108600999992006011217004+48717+011533FM-12+0365ETSI V0200601N003019999999N0070001N1-00341-00571103451ADDAY121999AY221999GA1021+030001031GF107991021001999999031081MA1999999098811MD1310021+9999MW1101REMSYN088AAXX  12171 10860 41957 70603 11034 21057 39881 40345 53002 71022 82038 333 82360 87270;
0143108600999992006011217204+48717+011533FM-15+0365ETSI V0200801N00211060001CN0070001N1-00401-00601999999ADDGA1025+030001999GA2075+060001999GF107991999999999999999999MA1103121999999REMMET058ETSI 121720Z 08004KT 7000 FEW100 BKN200 M04/M06 Q1031 WHT;
0143108600999992006011218204+48717+011533FM-15+0365ETSI V0200901N00151060001CN0070001N1-00501-00601999999ADDGA1025+030001999GA2075+060001999GF107991999999999999999999MA1103181999999REMMET058ETSI 121820Z 09003KT 7000 FEW100 BKN200 M05/M06 Q1032 WHT;
0193108600999992006011219004+48717+011533FM-12+0365ETSI V0200601N002019999999N0070001N1-00471-00621103511ADDAY121999AY221999GA1021+030001031GF107991021001999999031081MA1999999098841MD1210071+9999MW1101REMSYN088AAXX  12191 10860 41957 70602 11047 21062 39884 40351 52007 71022 82038 333 82360 87270;
0171108600999992006011304004+48717+011533FM-12+0365ETSI V0200601N004010012019N0030001N1-00391-00511103361ADDGA1081+001201071GF108991081061001501999999MA1999999098711MD1010001+9999MW1101REMSYN082AAXX  13041 10860 41230 80604 11039 21051 39871 40336 50000 710// 886// 333 88704;
0129108600999992006011304204+48717+011533FM-15+0365ETSI V0200601N00411000601CN0025001N1-00401-00501999999ADDGA1085+000601999GF108991999999999999999999MA1103011999999MW1101REMMET054ETSI 130420Z 06008KT 2500 BR OVC002 M04/M05 Q1030 AMB;
0187108600999992006011305004+48717+011533FM-12+0365ETSI V0200701N003010006019N0025001N1-00381-00441103321ADDAY121999AY221999GA1081+000601071GF108991081061000751999999MA1999999098681MD1810021+9999MW1101REMSYN082AAXX  13051 10860 41125 80703 11038 21044 39868 40332 58002 71022 886// 333 88702;
0133108600999992006011305204+48717+011533FM-15+0365ETSI V0200701N00311000901CN0025001N1-00401-00501999999ADDGA1075+000901999GF107991999999999999999999MA1103011999999MW1101REMMET058ETSI 130520Z 07006KT 2500 BR BKN003 M04/M05 Q1030 YLO YLO;
0143108600999992006011306204+48717+011533FM-15+0365ETSI V0200801N00311001201CN0030001N1-00401-00501999999ADDGA1075+001201999GF107991999999999999999999MA1103011999999MW1101REMMET068ETSI 130620Z 08006KT 3000 BR BKN004 M04/M05 Q1030 YLO YLO BECMG GRN;
0143108600999992006011306324+48717+011533FM-16+0365ETSI V0201001N00261001801CN0030001N1-00401-00501999999ADDGA1075+001801999GF107991999999999999999999MA1103011999999MW1101REMMET068ETSI 130632Z 10005KT 3000 BR BKN006 M04/M05 Q1030 YLO YLO BECMG GRN;
0235108600999992006011307004+48717+011533FM-12+0365ETSI V0201001N00301002101CN0035001N1-00351-00491103331ADDAY121999AY221999GA1071+999999061GF107991071061002501999999MA1999999098691MD1710021+9999MW1101REMSYN130AAXX  13071 10860 41335 71003 11035 21049 39869 40333 57002 71022 876// 333 87706 555 BOT 11026 21015 30000 40020 50039 999 42///;
0139108600999992006011307034+48717+011533FM-16+0365ETSI V0201201N00261002101CN0037001N1-00301-00501999999ADDGA1085+002101999GF108991999999999999999999MA1103011999999MW1101REMMET064SPECI ETSI 130703Z 12005KT 3700 BR OVC007 M03/M05 Q1030 GRN GRN;
0133108600999992006011307204+48717+011533FM-15+0365ETSI V0201201N00261002401CN0050001N1-00301-00501999999ADDGA1085+002401999GF108991999999999999999999MA1103011999999MW1101REMMET058ETSI 130720Z 12005KT 5000 BR OVC008 M03/M05 Q1030 GRN GRN;
0187108600999992006011308004+48717+011533FM-12+0365ETSI V0201201N003010024019N0050001N1-00311-00461103341ADDAY121999AY221999GA1071+002401071GF107991071061002501999999MA1999999098711MD1210031+9999MW1101REMSYN082AAXX  13081 10860 41350 71203 11031 21046 39871 40334 52003 71022 876// 333 87708;
0133108600999992006011308204+48717+011533FM-15+0365ETSI V0201201N00151003001CN0050001N1-00301-00401999999ADDGA1075+003001999GF107991999999999999999999MA1103011999999MW1101REMMET058ETSI 130820Z 12003KT 5000 BR BKN010 M03/M04 Q1030 GRN GRN;
0133108600999992006011309204+48717+011533FM-15+0365ETSI V0201601N00211003601CN0050001N1-00301-00501999999ADDGA1075+003601999GF107991999999999999999999MA1103121999999MW1101REMMET058ETSI 130920Z 16004KT 5000 BR BKN012 M03/M05 Q1031 GRN GRN;
0187108600999992006011310004+48717+011533FM-12+0365ETSI V0201301N002010033019N0050001N1-00261-00441103371ADDAY121999AY221999GA1071+003301061GF107991071051004501999999MA1999999098741MD1210051+9999MW1101REMSYN082AAXX  13101 10860 41450 71302 11026 21044 39874 40337 52005 71022 875// 333 87611;
0134108600999992006011310204+48717+011533FM-15+0365ETSI V0201401N00261003601CN0060001N1-00201-00501999999ADDGA1085+003601999GF108991999999999999999999MA1103121999999REMMET065ETSI 131020Z 14005KT 6000 OVC012 M02/M05 Q1031 GRN GRN TEMPO WHT;
0187108600999992006011311004+48717+011533FM-12+0365ETSI V0201301N002010036019N0060001N1-00211-00461103411ADDAY121999AY221999GA1081+003601061GF108991081051004501999999MA1999999098791MD1210081+9999MW1101REMSYN082AAXX  13111 10860 41456 81302 11021 21046 39879 40341 52008 71022 885// 333 88612;
0134108600999992006011311204+48717+011533FM-15+0365ETSI V0201001N00211003601CN0070001N1-00201-00501999999ADDGA1085+003601999GF108991999999999999999999MA1103121999999REMMET065ETSI 131120Z 10004KT 7000 OVC012 M02/M05 Q1031 GRN GRN TEMPO WHT;
0124108600999992006011312204+48717+011533FM-15+0365ETSI V0201301N00151003901CN0080001N1-00201-00401999999ADDGA1075+003901999GF107991999999999999999999MA1103121999999REMMET055ETSI 131220Z 13003KT 8000 BKN013 M02/M04 Q1031 GRN GRN;
0159108600999992006011313004+48717+011533FM-12+0365ETSI V0201401N002010039019N0090001N1-00151-00461103341ADDGA1071+003901061GF107991071051004501999999MA1999999098731MD1810011+9999REMSYN076AAXX  13131 10860 42459 71402 11015 21046 39873 40334 58001 875// 333 87613;
0124108600999992006011313204+48717+011533FM-15+0365ETSI V0201501N00151003901CN0090001N1-00101-00501999999ADDGA1075+003901999GF107991999999999999999999MA1103011999999REMMET055ETSI 131320Z 15003KT 9000 BKN013 M01/M05 Q1030 GRN GRN;
0108108600999992006011313554+48717+011533FM-16+0365ETSI V0201801N002112200019N0080001N1-00101-00501999999ADDGA1045+004205999MA1103001999999REMMET065ETSI 131355Z 18004KT 8000 SCT014 M01/M05 Q1030 BLU+BLU+BECMG WHT;
0201108600999992006011314004+48717+011533FM-12+0365ETSI V0201701N002012200019N0080001N1-00151-00561103291ADDGA1031+004201061GF103991031051004501001001MA1999999098691MD1710101+9999REMSYN118AAXX  13141 10860 42458 31702 11015 21056 39869 40329 57010 83500 333 83614 555 BOT 11009 21008 30000 40019 999 42///;
0134108600999992006011314204+48717+011533FM-15+0365ETSI V0201801N001012200019N0090001N1-00101-00401999999ADDGA1025+004201999GF102991999999999999999999MA1103011999999REMMET065ETSI 131420Z 18002KT 9000 FEW014 M01/M04 Q1030 BLU+BLU+BECMG GRN;
0132108600999992006011315204+48717+011533FM-15+0365ETSI V0202601N000512200019N0070001N1-00201-00401999999ADDGA1025+004201999GF102991999999999999999999MA1103011999999REMMET063ETSI 131520Z 26001KT 7000 FEW014 M02/M04 Q1030 WHT FCST CANCEL;
0187108600999992006011316004+48717+011533FM-12+0365ETSI V0209999V001012200019N0050001N1-00251-00461103321ADDAY101999AY201999GA1011+003601061GF101991011051004501001001MA1999999098701MD1510031+9999MW1101REMSYN082AAXX  13161 10860 41450 19901 11025 21046 39870 40332 55003 71000 81500 333 81612;
0135108600999992006011316044+48717+011533FM-16+0365ETSI V0209999V000512200019N0040001N1-00301-00501999999ADDGA1025+003601999GF102991999999999999999999MA1103011999999MW1101REMMET060SPECI ETSI 131604Z VRB01KT 4000 BR FEW012 M03/M05 Q1030 GRN;
0129108600999992006011316204+48717+011533FM-15+0365ETSI V0209999C000012200019N0040001N1-00401-00501999999ADDGA1025+003601999GF102991999999999999999999MA1103011999999MW1101REMMET054ETSI 131620Z 00000KT 4000 BR FEW012 M04/M05 Q1030 GRN;
0129108600999992006011316504+48717+011533FM-15+0365ETSI V0200201N000512200019N0035001N1-00401-00501999999ADDGA1045+001501999GF104991999999999999999999MA1103011999999MW1101REMMET054ETSI 131650Z 02001KT 3500 BR SCT005 M04/M05 Q1030 YLO;
0187108600999992006011317004+48717+011533FM-12+0365ETSI V0200201N001012200019N0035001N1-00451-00521103361ADDAY101999AY201999GA1041+001501071GF104991041061001501001001MA1999999098701MD1110011+9999MW1101REMSYN082AAXX  13171 10860 41235 40201 11045 21052 39870 40336 51001 71000 84600 333 84705;
0152108600999992006011317104+48717+011533FM-16+0365ETSI V0200301N00101003901CN0030001N1-00401-00401999999ADDGA1045+001501999GA2075+003901999GF107991999999999999999999MA1103011999999MW1101REMMET061ETSI 131710Z 03002KT 3000 BR SCT005 BKN013 M04/M04 Q1030 YLO;
0152108600999992006011317204+48717+011533FM-15+0365ETSI V0200301N00101003301CN0027001N1-00401-00501999999ADDGA1025+001501999GA2075+003301999GF107991999999999999999999MA1103011999999MW1101REMMET061ETSI 131720Z 03002KT 2700 BR FEW005 BKN011 M04/M05 Q1030 YLO;
0152108600999992006011318054+48717+011533FM-16+0365ETSI V0201401N00101002701CN0030001N1-00501-00601999999ADDGA1045+001501999GA2075+002701999GF107991999999999999999999MA1103011999999MW1101REMMET061ETSI 131805Z 14002KT 3000 BR SCT005 BKN009 M05/M06 Q1030 YLO;
0129108600999992006011318104+48717+011533FM-16+0365ETSI V0201201N00151001501CN0028001N1-00501-00601999999ADDGA1075+001501999GF107991999999999999999999MA1103011999999MW1101REMMET054ETSI 131810Z 12003KT 2800 BR BKN005 M05/M06 Q1030 YLO;
0129108600999992006011318204+48717+011533FM-15+0365ETSI V0201201N00101000901CN0025001N1-00501-00501999999ADDGA1075+000901999GF107991999999999999999999MA1103011999999MW1101REMMET054ETSI 131820Z 12002KT 2500 BR BKN003 M05/M05 Q1030 YLO;
0187108600999992006011319004+48717+011533FM-12+0365ETSI V0200901N002010009019N0025001N1-00391-00451103371ADDAY121999AY221999GA1071+000901071GF107991071061001501999999MA1999999098721MD1310021+9999MW1101REMSYN082AAXX  13191 10860 41225 70902 11039 21045 39872 40337 53002 71022 876// 333 87703;
0129108600999992006011319204+48717+011533FM-15+0365ETSI V0201001N00211000901CN0020001N1-00401-00401999999ADDGA1075+000901999GF107991999999999999999999MA1103011999999MW1101REMMET054ETSI 131920Z 10004KT 2000 BR BKN003 M04/M04 Q1030 YLO;
0129108600999992006011320204+48717+011533FM-15+0365ETSI V0200901N00211000601CN0020001N1-00401-00501999999ADDGA1085+000601999GF108991999999999999999999MA1103121999999MW1101REMMET054ETSI 132020Z 09004KT 2000 BR OVC002 M04/M05 Q1031 AMB;
0129108600999992006011323204+48717+011533FM-15+0365ETSI V0201201N00101001201CN0030001N1-00401-00501999999ADDGA1085+001201999GF108991999999999999999999MA1103011999999MW1101REMMET054ETSI 132320Z 12002KT 3000 BR OVC004 M04/M05 Q1030 YLO;
0129108600999992006011400204+48717+011533FM-15+0365ETSI V0200901N00211001201CN0028001N1-00501-00501999999ADDGA1085+001201999GF108991999999999999999999MA1103121999999MW1101REMMET054ETSI 140020Z 09004KT 2800 BR OVC004 M05/M05 Q1031 YLO;
0129108600999992006011401204+48717+011533FM-15+0365ETSI V0201201N00211001201CN0030001N1-00501-00601999999ADDGA1085+001201999GF108991999999999999999999MA1103011999999MW1101REMMET054ETSI 140120Z 12004KT 3000 BR OVC004 M05/M06 Q1030 YLO;
0129108600999992006011413204+48717+011533FM-15+0365ETSI V0200701N00261001501CN0040001N1-00401-00601999999ADDGA1085+001501999GF108991999999999999999999MA1102911999999MW1101REMMET054ETSI 141320Z 07005KT 4000 BR OVC005 M04/M06 Q1029 YLO;
0129108600999992006011414204+48717+011533FM-15+0365ETSI V0200801N00211001801CN0040001N1-00401-00601999999ADDGA1085+001801999GF108991999999999999999999MA1102911999999MW1101REMMET054ETSI 141420Z 08004KT 4000 BR OVC006 M04/M06 Q1029 YLO;
0165108600999992006011604004+48717+011533FM-12+0365ETSI V0202101N001010001519N0012001N1-01031-01031102711ADDGA1091+000151999GF109991091999999999999999MA1999999097981MD1710041+9999MW1411REMSYN076AAXX  16041 10860 41/12 92101 11103 21103 39798 40271 57004 741// 333 89/00;
0159108600999992006011604204+48717+011533FM-15+0365ETSI V0202001N000510001519N0012001N1-01001-01001999999ADDED125U43009GA1091+000151999GF109991999999000251999999MA1102301999999MW1101MW2411REMMET067ETSI 160420Z 20001KT 1200 R25/4300 BCFG BR VV000 M10/M10 Q1023 RED;
0140108600999992006011604474+48717+011533FM-16+0365ETSI V0201501N001510001519N0009001N1-01001-01001999999ADDGA1091+000151999GF109991999999000251999999MA1102201999999MW1491REMMET065ETSI 160447Z 15003KT 0900 R07////// FZFG VV000 M10/M10 Q1022 RED;
0181108600999992006011605004+48717+011533FM-12+0365ETSI V0201501N002010001519N0009001N1-00961-00981102671ADDAY121999AY221999GA1091+000151999GF109991091999999999999999MA1999999097951MD1710051+9999MW1491REMSYN076AAXX  16051 10860 41/09 91502 11096 21098 39795 40267 57005 74922 333 89/00;
0154108600999992006011605204+48717+011533FM-15+0365ETSI V0201801N001510001519N0009001N1-01001-01001999999ADDED125U15009GA1091+000151999GF109991999999000251999999MA1102201999999MW1491REMMET068ETSI 160520Z 18003KT 0900 R25/1500 FZFG VV000 M10/M10 Q1022 RED RED;
0160108600999992006011606204+48717+011533FM-15+0365ETSI V0202001N00101000601CN0014001N1-01001-01001999999ADDED125U47009GA1085+000601999GF108991999999999999999999MW1101MW2411REMMET083ETSI 160620Z 20002KT 1400 R25/4700 BCFG BR OVC002 M10/M10 Q102 2 AMB AMB BECMG YLO;
0174108600999992006011606454+48717+011533FM-15+0365ETSI V0202101N00151000301CN0010001N1-01001-01001999999ADDED125U12009GA1085+000301999GF108991999999999999999999MA1102201999999MW1101MW2411REMMET082ETSI 160645Z 21003KT 1000 R25/1200 BCFG BR OVC001 M10/M10 Q1022 RED RED BECMG YLO;
0235108600999992006011607004+48717+011533FM-12+0365ETSI V0202101N002010003019N0010001N1-00991-01031102651ADDAY121999AY221999GA1081+000301071GF108991081061000751999999MA1999999097931MD1710051+9999MW1411REMSYN130AAXX  16071 10860 41110 82102 11099 21103 39793 40265 57005 74122 886// 333 88701 555 BOT 11055 21035 31018 40017 50035 999 42///;
0160108600999992006011607204+48717+011533FM-15+0365ETSI V0201901N00101000301CN0010001N1-01001-01001999999ADDED125U12009GA1085+000301999GF108991999999999999999999MW1101MW2411REMMET083ETSI 160720Z 19002KT 1000 R25/1200 BCFG BR OVC001 M10/M10 Q102 2 RED RED BECMG YLO;
0187108600999992006011608004+48717+011533FM-12+0365ETSI V0202101N001010003019N0012001N1-00951-00991102651ADDAY121999AY221999GA1081+000301071GF108991081061000751999999MA1999999097941MD1510011+9999MW1411REMSYN082AAXX  16081 10860 41112 82101 11095 21099 39794 40265 55001 74122 886// 333 88701;
0174108600999992006011608204+48717+011533FM-15+0365ETSI V0201901N00101000301CN0012001N1-00901-00901999999ADDED125U19009GA1085+000301999GF108991999999999999999999MA1102201999999MW1101MW2411REMMET082ETSI 160820Z 19002KT 1200 R25/1900 BCFG BR OVC001 M09/M09 Q1022 RED RED BECMG YLO;
0174108600999992006011609204+48717+011533FM-15+0365ETSI V0201201N00101000301CN0012001N1-00901-00901999999ADDED125U16009GA1085+000301999GF108991999999999999999999MA1102301999999MW1101MW2411REMMET082ETSI 160920Z 12002KT 1200 R25/1600 BCFG BR OVC001 M09/M09 Q1023 RED RED BECMG YLO;
0174108600999992006011609444+48717+011533FM-16+0365ETSI V0201501N00101000601CN0012001N1-00901-01001999999ADDED125U19009GA1085+000601999GF108991999999999999999999MA1102301999999MW1101MW2411REMMET082ETSI 160944Z 15002KT 1200 R25/1900 BCFG BR OVC002 M09/M10 Q1023 AMB AMB BECMG YLO;
0187108600999992006011610004+48717+011533FM-12+0365ETSI V0201501N001010006019N0012001N1-00871-00901102661ADDAY121999AY221999GA1081+000601071GF108991081061000751999999MA1999999097961MD1210031+9999MW1411REMSYN082AAXX  16101 10860 41112 81501 11087 21090 39796 40266 52003 74122 886// 333 88702;
0153108600999992006011610204+48717+011533FM-15+0365ETSI V0209999V00051000901CN0018001N1-00901-00901999999ADDED125U23009GA1085+000901999GF108991999999999999999999MA1102301999999MW1101REMMET067ETSI 161020Z VRB01KT 1800 R25/2300 BR OVC003 M09/M09 Q1023 YLO YLO;
0187108600999992006011611004+48717+011533FM-12+0365ETSI V0201301N001010012019N0020001N1-00851-00951102661ADDAY121999AY221999GA1081+001201071GF108991081061001501999999MA1999999097961MD1110021+9999MW1101REMSYN082AAXX  16111 10860 41220 81301 11085 21095 39796 40266 51002 71022 886// 333 88704;
0133108600999992006011611204+48717+011533FM-15+0365ETSI V0202101N00051001201CN0022001N1-00901-00901999999ADDGA1085+001201999GF108991999999999999999999MA1102201999999MW1101REMMET058ETSI 161120Z 21001KT 2200 BR OVC004 M09/M09 Q1022 YLO YLO;
0133108600999992006011612204+48717+011533FM-15+0365ETSI V0201401N00101001501CN0022001N1-00801-00901999999ADDGA1085+001501999GF108991999999999999999999MA1102201999999MW1101REMMET058ETSI 161220Z 14002KT 2200 BR OVC005 M08/M09 Q1022 YLO YLO;
0187108600999992006011613004+48717+011533FM-12+0365ETSI V0201101N001010015019N0022001N1-00831-00831102571ADDAY121999AY221999GA1081+001501071GF108991081061001501999999MA1999999097881MD1810081+9999MW1101REMSYN082AAXX  16131 10860 41222 81101 11083 21083 39788 40257 58008 71022 886// 333 88705;
0133108600999992006011613204+48717+011533FM-15+0365ETSI V0201501N00101001501CN0023001N1-00801-00901999999ADDGA1085+001501999GF108991999999999999999999MA1102101999999MW1101REMMET058ETSI 161320Z 15002KT 2300 BR OVC005 M08/M09 Q1021 YLO YLO;
0229108600999992006011614004+48717+011533FM-12+0365ETSI V0200801N001010018019N0025001N1-00831-00831102531ADDAY121999AY221999GA1081+001801071GF108991081061002501999999MA1999999097841MD1710121+9999MW1101REMSYN124AAXX  16141 10860 41325 80801 11083 21083 39784 40253 57012 71022 886// 333 88706 555 BOT 11035 21023 31008 40015 999 42///;
0133108600999992006011614204+48717+011533FM-15+0365ETSI V0201101N00151001801CN0025001N1-00801-00901999999ADDGA1085+001801999GF108991999999999999999999MA1102101999999MW1101REMMET058ETSI 161420Z 11003KT 2500 BR OVC006 M08/M09 Q1021 YLO YLO;
0133108600999992006011615204+48717+011533FM-15+0365ETSI V0201401N00101001801CN0025001N1-00801-00901999999ADDGA1085+001801999GF108991999999999999999999MA1102101999999MW1101REMMET058ETSI 161520Z 14002KT 2500 BR OVC006 M08/M09 Q1021 YLO YLO;
0187108600999992006011616004+48717+011533FM-12+0365ETSI V0200901N002010018019N0025001N1-00811-00861102511ADDAY121999AY221999GA1081+001801071GF108991081061002501999999MA1999999097831MD1710051+9999MW1101REMSYN082AAXX  16161 10860 41325 80902 11081 21086 39783 40251 57005 71022 886// 333 88706;
0141108600999992006011616204+48717+011533FM-15+0365ETSI V0200801N00151001801CN0028001N1-00801-00901999999ADDGA1085+001801999GF108991999999999999999999MA1102101999999MW1101REMMET066ETSI 161620Z 08003KT 2800 BR OVC006 M08/M09 Q1021 YLO FCST CANCEL;
0187108600999992006011617004+48717+011533FM-12+0365ETSI V0200901N001010018019N0028001N1-00851-00971102491ADDAY121999AY221999GA1081+001801071GF108991081061002501999999MA1999999097801MD1810041+9999MW1101REMSYN082AAXX  16171 10860 41328 80901 11085 21097 39780 40249 58004 71022 886// 333 88706;
0129108600999992006011617204+48717+011533FM-15+0365ETSI V0200801N00151001801CN0028001N1-00801-00801999999ADDGA1085+001801999GF108991999999999999999999MA1102101999999MW1101REMMET054ETSI 161720Z 08003KT 2800 BR OVC006 M08/M08 Q1021 YLO;
0187108600999992006011619004+48717+011533FM-12+0365ETSI V0200801N002012200019N0028001N1-00911-00971102461ADDAY121999AY221999GA1041+001801071GF104991041061002501001001MA1999999097761MD1710071+9999MW1101REMSYN082AAXX  16191 10860 41328 40802 11091 21097 39776 40246 57007 71022 84600 333 84706;
0171108600999992006011704004+48717+011533FM-12+0365ETSI V0200901N001010300019N0030001N1-01051-01061102181ADDGA1071+030001031GF107991071001999999071999MA1999999097471MD1710091+9999MW1101REMSYN082AAXX  17041 10860 41930 70901 11105 21106 39747 40218 57009 710// 8707/ 333 87360;
0152108600999992006011704204+48717+011533FM-15+0365ETSI V0200901N00051024001CN0030001N1-01001-01001999999ADDGA1045+018001999GA2075+024001999GF107991999999999999999999MA1101691999999MW1101REMMET061ETSI 170420Z 09001KT 3000 BR SCT060 BKN080 M10/M10 Q1017 YLO;
0193108600999992006011705004+48717+011533FM-12+0365ETSI V0200801N00101036001CN0030001N1-00991-01021102131ADDAY121999AY221999GA1031+018001061GF107991031051017501031999MA1999999097431MD1710121+9999MW1101REMSYN088AAXX  17051 10860 41730 70801 11099 21102 39743 40213 57012 71022 8353/ 333 83656 87358;
0166108600999992006011705204+48717+011533FM-15+0365ETSI V0200701N00151024001CN0030001N1-01001-01001999999ADDGA1045+006901999GA2075+024001999GF107991999999999999999999MA1101691999999MW1101REMMET075ETSI 170520Z 07003KT 3000 BR SCT023 BKN080 M10/M10 Q1017 YLO GRN TEMPO YLO;
0153108600999992006011706204+48717+011533FM-15+0365ETSI V0200601N00101007201CN0025001N1-00901-01001999999ADDGA1075+007201999GF107991999999999999999999MA1101591999999MW1101MW2711REMMET072ETSI 170620Z 06002KT 2500 -SN BR BKN024 M09/M10 Q1016 YLO GRN TEMPO YLO;
0187108600999992006011707004+48717+011533FM-12+0365ETSI V0200801N001010078019N0028001N1-00901-00981101991ADDAY121999AY221999GA1071+007801061GF107991071051008001999999MA1999999097321MD1710151+9999MW1221REMSYN082AAXX  17071 10860 41528 70801 11090 21098 39732 40199 57015 72222 875// 333 87626;
0153108600999992006011707204+48717+011533FM-15+0365ETSI V0200801N00151004801CN0025001N1-00901-00901999999ADDGA1075+004801999GF107991999999999999999999MA1101591999999MW1101MW2711REMMET072ETSI 170720Z 08003KT 2500 -SN BR BKN016 M09/M09 Q1016 YLO GRN TEMPO YLO;
0187108600999992006011708004+48717+011533FM-12+0365ETSI V0200801N002010048019N0020001N1-00821-00911101941ADDAY171999AY221999GA1081+004801061GF108991081051004501999999MA1999999097281MD1710151+9999MW1711REMSYN082AAXX  17081 10860 41420 80802 11082 21091 39728 40194 57015 77172 885// 333 88616;
0180108600999992006011708204+48717+011533FM-15+0365ETSI V0200701N00211003901CN0013001N1-00801-00801999999ADDED125U15009GA1085+003901999GF108991999999999999999999MA1101491999999MW1101MW2731MW3771REMMET082ETSI 170820Z 07004KT 1300 R25/1500 SNSG BR OVC013 M08/M08 Q1015 AMB GRN TEMPO AMB;
0158108600999992006011709204+48717+011533FM-15+0365ETSI V0200701N00261003601CN0020001N1-00701-00801999999ADDGA1085+003601999GF108991999999999999999999MA1101391999999MW1101MW2711REMMET077ETSI 170920Z 07005KT 2000 -SN BR OVC012 M07/M08 Q1014 RESN YLO GRN TEMPO AMB;
0187108600999992006011710004+48717+011533FM-12+0365ETSI V0200601N002010036019N0020001N1-00621-00621101751ADDAY171999AY271999GA1081+003601061GF108991081051004501999999MA1999999097141MD1710181+9999MW1711REMSYN082AAXX  17101 10860 41420 80602 11062 21062 39714 40175 57018 77177 885// 333 88612;
0178108600999992006011710024+48717+011533FM-16+0365ETSI V0200601N00211003601CN0015001N1-00601-00701999999ADDED125U14009GA1085+003601999GF108991999999999999999999MA1101391999999MW1101MW2731REMMET086SPECI ETSI 171002Z 06004KT 1500 R25/1400 SN BR OVC012 M06/M07 Q1014 AMB GRN TEMPO AMB;
0195108600999992006011710204+48717+011533FM-15+0365ETSI V0200601N00211003901CN0016001N1-00601-00601999999ADDED125U15009GA1045+003301999GA2085+003901999GF108991999999999999999999MA1101391999999MW1101MW2731REMMET087ETSI 171020Z 06004KT 1600 R25/1500 SN BR SCT011 OVC013 M06/M06 Q1014 YLO GRN TEMPO AMB;
0212108600999992006011711004+48717+011533FM-12+0365ETSI V0200601N00201004201CN0016001N1-00501-00551101681ADDAY171999AY271999GA1021+003001071GF108991999071004501021999MA1999999097091MD1710191+9999MW1731REMSYN088AAXX  17111 10860 41416 80602 11050 21055 39709 40168 57019 77377 8872/ 333 82710 88512;EQDQ01+000082SCOTLC
0201108600999992006011711104+48717+011533FM-16+0365ETSI V0200501N00211003601CN0012001N1-00501-00601999999ADDED125U14009GA1025+003001999GA2085+003601999GF108991999999999999999999MA1101291999999MW1101MW2731REMMET093SPECI ETSI 171110Z 05004KT 1200 R25/1400 SN BR FEW010 OVC012 M05/M06 Q1013 AMB GRN TEMPO AMB;
0195108600999992006011711204+48717+011533FM-15+0365ETSI V0200601N00211003601CN0010001N1-00501-00601999999ADDED125U11009GA1025+003001999GA2085+003601999GF108991999999999999999999MA1101291999999MW1101MW2731REMMET087ETSI 171120Z 06004KT 1000 R25/1100 SN BR FEW010 OVC012 M05/M06 Q1013 AMB AMB TEMPO YLO;
0195108600999992006011712204+48717+011533FM-15+0365ETSI V0200601N00211003001CN0010001N1-00401-00501999999ADDED125U11009GA1025+002401999GA2085+003001999GF108991999999999999999999MA1101191999999MW1101MW2731REMMET087ETSI 171220Z 06004KT 1000 R25/1100 SN BR FEW008 OVC010 M04/M05 Q1012 AMB AMB TEMPO YLO;
0212108600999992006011713004+48717+011533FM-12+0365ETSI V0200601N00201002101CN0012001N1-00331-00331101471ADDAY171999AY271999GA1041+002401071GF108991999071002501021999MA1999999096921MD1710221+9999MW1731REMSYN088AAXX  17131 10860 41312 80602 11033 21033 39692 40147 57022 77377 8872/ 333 84708 88510;EQDQ01+000082SCOTLC
0195108600999992006011713204+48717+011533FM-15+0365ETSI V0200701N00261003001CN0012001N1-00301-00301999999ADDED125U11009GA1045+002401999GA2085+003001999GF108991999999999999999999MA1101081999999MW1101MW2731REMMET087ETSI 171320Z 07005KT 1200 R25/1100 SN BR SCT008 OVC010 M03/M03 Q1011 AMB AMB TEMPO YLO;
0197108600999992006011713454+48717+011533FM-15+0365ETSI V0200601N00261003001CN0012001N1-00301-00301999999ADDED125U12009GA1045+002401999GA2085+003001999GF108991999999999999999999MA1101021999999MW1101MW2731REMMET089ETSI 171345Z 06005KT 1200 R25/1200 SNRA BR SCT008 OVC010 M03/M03 Q1010 AMB AMB TEMPO YLO;
0251108600999992006011714004+48717+011533FM-12+0365ETSI V0200601N003010030019N0012001N1-00281-00341101331ADDAY171999AY271999GA1041+002401071GA2081+003001051GF108991041071002501021999MA1999999096791MD1710301+9999MW1691REMSYN130AAXX  17141 10860 41312 80603 11028 21034 39679 40133 57030 76977 8472/ 333 84708 88510 555 BOT 11027 21021 31010 40013 999 47///;
0217108600999992006011714204+48717+011533FM-15+0365ETSI V0200601N00261003001CN0015001N1-00201-00301999999ADDED125U11009GA1045+002101999GA2085+003001999GF108991999999999999999999MA1101021999999MW1101MW2671MW3711REMMET103METAR ETSI 171420Z 06005KT 1500 R25/1100 -SNFZRA BR SCT007 OVC010 M02/M03 Q1010 RESN AMB AMB TEMPO YLO;
0198108600999992006011715004+48717+011533FM-15+0365ETSI V0200601N00211003001CN0018001N1-00201-00201999999ADDED125U21009GA1045+001801999GA2085+003001999GF108991999999999999999999MA1100911999999MW1101MW2661REMMET090ETSI 171500Z 06004KT 1800 R25/2100 -FZRA BR SCT006 OVC010 M02/M02 Q1009 YLO AMB TEMPO YLO;
0198108600999992006011715204+48717+011533FM-15+0365ETSI V0200501N00211004801CN0018001N1-00201-00201999999ADDED125U20009GA1045+002401999GA2085+004801999GF108991999999999999999999MA1100911999999MW1101MW2661REMMET090ETSI 171520Z 05004KT 1800 R25/2000 -FZRA BR SCT008 OVC016 M02/M02 Q1009 YLO AMB TEMPO YLO;
0193108600999992006011716004+48717+011533FM-12+0365ETSI V0200601N00201036001CN0020001N1-00191-00271101111ADDAY171999AY261999GA1041+002401071GF108991041071002501021999MA1999999096601MD1710321+9999MW1661REMSYN088AAXX  17161 10860 41320 80602 11019 21027 39660 40111 57032 76676 8472/ 333 84708 87518;
0176108600999992006011716204+48717+011533FM-15+0365ETSI V0200701N00211005401CN0022001N1-00201-00201999999ADDGA1025+002401999GA2075+005401999GF107991999999999999999999MA1100811999999MW1101MW2661REMMET079ETSI 171620Z 07004KT 2200 -FZRA BR FEW008 BKN018 M02/M02 Q1008 YLO FCST CANCEL;
0193108600999992006011717004+48717+011533FM-12+0365ETSI V0200901N00201036001CN0025001N1-00131-00141100991ADDAY161999AY261999GA1021+002401071GF108991041071002501021999MA1999999096491MD1710301+9999MW1661REMSYN088AAXX  17171 10860 41325 80902 11013 21014 39649 40099 57030 76666 8472/ 333 82708 87518;
0155108600999992006011717204+48717+011533FM-15+0365ETSI V0209999V00051006001CN0060001N1+00001+00001999999ADDGA1025+002401999GA2075+006001999GF107991999999999999999999MA1100711999999MW1661REMMET064ETSI 171720Z VRB01KT 6000 -FZRA FEW008 BKN020 M00/M00 Q1007 WHT;
0153108600999992006011718204+48717+011533FM-15+0365ETSI V0202201N00361006001CN0070001N1+00301+00001999999ADDGA1025+002401999GA2085+006001999GF108991999999999999999999MA1100511999999MW1661REMMET062ETSI 171820Z 22007KT 7000 -FZRA FEW008 OVC020 03/00 Q1005 WHT;
0193108600999992006011719004+48717+011533FM-12+0365ETSI V0202301N00601036001CN0070001N1+00371+00001100611ADDAY161999AY261999GA1021+002401071GF108991021071002501021999MA1999999096211MD1710391+9999MW1661REMSYN088AAXX  17191 10860 41357 82306 10037 20000 39621 40061 57039 76666 8272/ 333 82708 88520;
0147108600999992006011719204+48717+011533FM-15+0365ETSI V0202301N00411006001CN0090001N1+00401+00001999999ADDGA1025+002401999GA2085+006001999GF108991999999999999999999MA1100411999999REMMET062ETSI 171920Z 23008KT 9000 -FZRA FEW008 OVC020 04/00 Q1004 WHT;
0207108600999992006011804004+48717+011533FM-12+0365ETSI V0202601N005010027019N0150001N1+00211+00111100441ADDAY171999GA1031+001501071GA2051+002701061GF108991081051001501999999MA1999999096021MD1510011+9999MW1611REMSYN094AAXX  18041 10860 41265 82605 10021 20011 39602 40044 55001 7617/ 885// 333 83705 85609 88616;
0174108600999992006011804204+48717+011533FM-15+0365ETSI V0202601N00511003001CN0112651N1+00201+00101999999ADDGA1025+001501999GA2075+003001999GA3085+004501999GF108991999999999999999999MA1100311999999MW1611REMMET067ETSI 180420Z 26010KT 9999 -RA FEW005 BKN010 OVC015 02/01 Q1003 GRN;
0193108600999992006011805004+48717+011533FM-12+0365ETSI V0202601N005010024019N0150001N1+00211+00151100451ADDAY161999AY261999GA1051+002401061GF108991081051002501999999MA1999999096031MD1510001+9999MW1601REMSYN088AAXX  18051 10860 41365 82605 10021 20015 39603 40045 55000 76066 885// 333 85608 88616;
0132108600999992006011805204+48717+011533FM-15+0365ETSI V0202601N00411002401CN0112651N1+00201+00201999999ADDGA1085+002401999GF108991999999999999999999MA1100311999999MW1611REMMET057ETSI 180520Z 26008KT 9999 -RA OVC008 02/02 Q1003 GRN GRN;
0178108600999992006011806204+48717+011533FM-15+0365ETSI V0202601N00461002101CN0112651N1+00201+00101999999ADDGA1045+001501999GA2075+002101999GA3085+003901999GF108991999999999999999999MA1100311999999MW1611REMMET071ETSI 180620Z 26009KT 9999 -RA SCT005 BKN007 OVC013 02/01 Q1003 GRN GRN;
0215108600999992006011807004+48717+011533FM-12+0365ETSI V0202601N005010021019N0100001N1+00231+00051100541ADDAY161999AY261999GA1051+002101071GA2061+004201061GF108991081051002501999999MA1999999096121MD1310101+9999MW1581REMSYN094AAXX  18071 10860 41360 82605 10023 20005 39612 40054 53010 75866 885// 333 85707 86614 88623;
0155108600999992006011807204+48717+011533FM-15+0365ETSI V0202601N00621002401CN0080001N1+00201+00101999999ADDGA1075+002401999GA2075+003901999GF107991999999999999999999MA1100411999999MW1611REMMET064ETSI 180720Z 26012KT 8000 -RA BKN008 BKN013 02/01 Q1004 GRN GRN;
0160108600999992006011807354+48717+011533FM-16+0365ETSI V0202701N00621003901CN0112651N1+00201+00101999999ADDGA1045+002101999GA2075+003901999GF107991999999999999999999MA1100411999999MW1611REMMET069ETSI 180735Z 27012KT 9999 -RA SCT007 BKN013 02/01 Q1004 BLACKGRN GRN;
0193108600999992006011808004+48717+011533FM-12+0365ETSI V0202701N006010021019N0120001N1+00231+00111100571ADDAY161999AY261999GA1051+002101081GF108991071081002501999999MA1999999096151MD1210121+9999MW1211REMSYN088AAXX  18081 10860 41362 82706 10023 20011 39615 40057 52012 72166 878// 333 85807 87616;
0160108600999992006011808204+48717+011533FM-15+0365ETSI V0202601N00621004801CN0112651N1+00201+00101999999ADDGA1025+002401999GA2075+004801999GF107991999999999999999999MA1100411999999REMMET075ETSI 180820Z 26012KT 9999 FEW008 BKN016 02/01 Q1004 BLACKWHT WHT TEMPO GRN;
0183108600999992006011809204+48717+011533FM-15+0365ETSI V0202601N00621005401CN0112651N1+00201+00101999999ADDGA1025+003001999GA2075+005401999GA3085+015001999GF108991999999999999999999MA1100511999999REMMET082ETSI 180920Z 26012KT 9999 FEW010 BKN018 OVC050 02/01 Q1005 BLACKWHT WHT TEMPO GRN;
0215108600999992006011810004+48717+011533FM-12+0365ETSI V0202601N006010060019N0120001N1+00251+00081100721ADDAY121999AY221999GA1021+003601081GA2061+006001061GF107991071081004501999999MA1999999096301MD1210181+9999MW1211REMSYN094AAXX  18101 10860 41462 72606 10025 20008 39630 40072 52018 72122 878// 333 82812 86620 87640;
0183108600999992006011810204+48717+011533FM-15+0365ETSI V0202601N00671005101CN0112651N1+00301+00001999999ADDGA1025+004201999GA2075+005101999GA3075+012001999GF107991999999999999999999MA1100611999999REMMET082ETSI 181020Z 26013KT 9999 FEW014 BKN017 BKN040 03/00 Q1006 BLACKWHT WHT TEMPO GRN;
0165108600999992006011811004+48717+011533FM-12+0365ETSI V0202701N00701009001CN0150001N1+00291+00101100751ADDGA1011+004201081GF107991071081004501999999MA1999999096331MD1210181+9999REMSYN082AAXX  18111 10860 42465 72707 10029 20010 39633 40075 52018 878// 333 81814 87622;
0183108600999992006011811204+48717+011533FM-15+0365ETSI V0202601N00571010501CN0112651N1+00301+00101999999ADDGA1025+004501999GA2075+010501999GA3075+015001999GF107991999999999999999999MA1100611999999REMMET082ETSI 181120Z 26011KT 9999 FEW015 BKN035 BKN050 03/01 Q1006 BLACKBLU BLU TEMPO GRN;
0193108600999992006011811544+48717+011533FM-16+0365ETSI V0202801N00621003001CN0112651N1+00301+00001999999ADDGA1045+002101999GA2075+003001999GA3085+015001999GF108991999999999999999999MA1100611999999MW1611REMMET086ETSI 181154Z 28012KT 9999 -RA SCT007 BKN010 OVC050 03/00 Q1006 BLACKGRN BLU TEMPO GRN;
0187108600999992006011812004+48717+011533FM-15+0365ETSI V0202801N00671003001CN0112651N1+00301+00101999999ADDGA1045+002101999GA2075+003001999GA3085+015001999GF108991999999999999999999MW1611MW2711REMMET089ETSI 181200Z 28013KT 9999 -RASN SCT007 BKN010 OVC050 03/01 Q100 6 BLACKGRN BLU TEMPO GRN;
0202108600999992006011812204+48717+011533FM-15+0365ETSI V0202801N00571003001CN0005001N1+00301+00101999999ADDED125U99999GA1045+002105999GA2075+003005999GA3085+015005999MA1100601999999MW1821REMMET110ETSI 181220Z 28011KT 0500 R25/8000 +SHSNRA SCT007 BKN010 FEW01 5TCU OVC050 03/01 Q1006 BLACKRED BLU TEMPO GRN;
0232108600999992006011812364+48717+011533FM-16+0365ETSI V0203201N00771003001CN0008001N1+00101-00101999999ADDED125U13009GA1045+002101999GA2075+003001999GA3085+004501025GF108991999999999999999999MA1100611999999MW1821OC101341REMMET106ETSI 181236Z 32015G26KT 0800 R25/1300 +SHSNRA SCT007 BKN010 OVC015TCU 01/M01 Q1006 BLACKAMB BLU TEMPO GRN;
0198108600999992006011812414+48717+011533FM-16+0365ETSI V0203201N00721003001CN0016001N1+00101+00001999999ADDED125U17009GA1045+002101999GA2075+003001999GA3045+004501025MA1100611999999MW1811REMMET106ETSI 181241Z 32014KT 1600 R25/1700 SHSNRA SCT007 BKN010 SCT015TCU 01/00 Q1006 RESN BLACKYLO BLU TEMPO GRN;
0221108600999992006011813004+48717+011533FM-12+0365ETSI V0203101N007010030019N0020001N1+00101-00041100841ADDAY181999AY261999GA1031+002101081GA2031+003001081GF107991071021002501999999MA1999999096391MD1210091+9999MW1841REMSYN100AAXX  18131 10860 41320 73107 10010 21004 39639 40084 52009 78486 872// 333 83807 83810 91012 91113;
0198108600999992006011813084+48717+011533FM-16+0365ETSI V0203101N00771999999CN0050001N1+00101+00001999999ADDGA1025+002101999GA2045+004501025GF104991999999999999999999MA1100611999999MW1161REMMET088ETSI 181308Z 31015KT 5000 VCSH FEW007 SCT015TCU 01/00 Q1006 RESN BLACKWHT BLU TEMPO GRN;EQDP01 004503SCOCIG
0196108600999992006011813204+48717+011533FM-15+0365ETSI V0203101N00621999999CN0050001N1+00101+00001999999ADDGA1025+002101999GA2045+004501025GF104991999999999999999999MA1100611999999MW1801REMMET086ETSI 181320Z 31012KT 5000 -SHSNRA FEW007 SCT015TCU 01/00 Q1006 BLACKWHT BLU TEMPO GRN;EQDP01 004503SCOCIG
0197108600999992006011813444+48717+011533FM-16+0365ETSI V0203101N00621004501CN0005001N1+00101+00101999999ADDED125U99999GA1025+002101999GA2075+004501025GF107991999999999999999999MA1100711999999MW1821REMMET095ETSI 181344Z 31012KT 0500 R25/9999 +SHSNRA FEW007 BKN015TCU 01/01 Q1007 BLACKRED BLU TEMPO GRN;
0168108600999992006011813564+48717+011533FM-16+0365ETSI V0203101N006212200019N0112651N1+00101+00101999999ADDGA1025+002101999GA2025+004501025GF102991999999999999999999MA1100711999999REMMET083ETSI 181356Z 31012KT 9999 FEW007 FEW015TCU 01/01 Q1007 RESN BLACKBLU+BLU TEMPO GRN;
0268108600999992006011814004+48717+011533FM-12+0365ETSI V0203201N006010045019N0005001N1+00141+00041100901ADDAY181999AY221999GA1011+002101081GA2051+004501081GF107991071021002501999999MA1999999096451MD1210121+9999MW1841OA149900671REMSYN136AAXX  18141 10860 41305 73206 10014 20004 39645 40090 52012 78482 872// 333 81807 85815 91113 555 BOT 11002 21003 31003 40012 999 42///;
0184108600999992006011814204+48717+011533FM-15+0365ETSI V0202901N00411999999CN0112651N1+00201+00101999999ADDGA1025+003001999GA2045+030001999GF104991999999999999999999MA1100711999999REMMET080ETSI 181420Z 29008KT 9999 FEW010 SCT100 02/01 Q1007 RESN BLACKBLU+BLU TEMPO GRN;EQDP01 030003SCOCIG
0179108600999992006011815204+48717+011533FM-15+0365ETSI V0202901N00261999999CN0112651N1+00201+00201999999ADDGA1025+003001999GA2045+006901999GF104991999999999999999999MA1100811999999REMMET075ETSI 181520Z 29005KT 9999 FEW010 SCT023 02/02 Q1008 BLACKBLU+BLU TEMPO GRN;EQDP01 006903SCOCIG
0187108600999992006011816004+48717+011533FM-12+0365ETSI V0202901N00301009001CN0150001N1+00191+00091101011ADDGA1011+003001081GA2031+006001081GF107991071081004501999999MA1999999096571MD1210181+9999REMSYN088AAXX  18161 10860 42465 72903 10019 20009 39657 40101 52018 878// 333 81810 83820 87625;
0177108600999992006011816204+48717+011533FM-15+0365ETSI V0202801N00361999999CN0112651N1+00201+00101999999ADDGA1025+003001999GA2045+007501999GF104991999999999999999999MA1100911999999REMMET073ETSI 181620Z 28007KT 9999 FEW010 SCT025 02/01 Q1009 BLACKBLU+FCST CANCEL;EQDP01 007503SCOCIG
0159108600999992006011817004+48717+011533FM-12+0365ETSI V0202501N003012200019N0100001N1+00121-00011101151ADDGA1031+015001061GF103991031051017501001001MA1999999096691MD1210241+9999REMSYN076AAXX  18171 10860 42760 32503 10012 21001 39669 40115 52024 83500 333 83650;
0159108600999992006011819004+48717+011533FM-12+0365ETSI V0202501N003012200019N0100001N1+00111-00151101321ADDGA1031+015001061GF103991031051017501001001MA1999999096851MD1210281+9999REMSYN076AAXX  18191 10860 42760 32503 10011 21015 39685 40132 52028 83500 333 83650;
0159108600999992006011904004+48717+011533FM-12+0365ETSI V0202601N002010033019N0100001N1+00081+00011102241ADDGA1071+003301061GF108991071051004501999999MA1999999097721MD1210301+9999REMSYN076AAXX  19041 10860 43460 82602 10008 20001 39772 40224 52030 875// 333 87611;
0119108600999992006011904204+48717+011533FM-15+0365ETSI V0202601N00261003901CN0112651N1+00101+00001999999ADDGA1075+003901999GF107991999999999999999999MA1102001999999REMMET050ETSI 190420Z 26005KT 9999 BKN013 01/M00 Q1020 GRN;
0159108600999992006011905004+48717+011533FM-12+0365ETSI V0202401N002010042019N0100001N1+00071-00121102311ADDGA1071+004201061GF108991071051004501999999MA1999999097791MD1210231+9999REMSYN076AAXX  19051 10860 42460 82402 10007 21012 39779 40231 52023 875// 333 87614;
0130108600999992006011905204+48717+011533FM-15+0365ETSI V0202301N001510090059N0112651N1+00101-00101999999ADDGA1045+005405999GA2075+009005999MA1102101999999REMMET071ETSI 190520Z 23003KT 9999 SCT018 BKN030 01/M01 Q1021 BLU BLU TEMPO GRN;
0134108600999992006011906024+48717+011533FM-16+0365ETSI V0202101N001510090059N9999999N1+00001-00101999999ADDGA1045+005405999GA2075+009005999MA1102101999999REMMET075ETSI 190602Z 21003KT 000 SCT018 BKN030 00/M01 Q1021 BLACKBLU BLU TEMPO GRN;
0135108600999992006011906204+48717+011533FM-15+0365ETSI V0202201N001510087059N0080001N1+00101-00101999999ADDGA1045+005405999GA2075+008705999MA1102201999999REMMET076ETSI 190620Z 22003KT 8000 SCT018 BKN029 01/M01 Q1022 BLACKBLU BLU TEMPO GRN;
0206108600999992006011907004+48717+011533FM-12+0365ETSI V0202101N00201007501CN0080001N1+00041-00071102431ADDAY171999AY271999GA1031+006001061GF108991071051008001999999MA1999999097901MD1210181+9999REMSYN088AAXX  19071 10860 41558 82102 10004 21007 39790 40243 52018 77877 875// 333 83620 87629;EQDQ01+000782PRSWM1
0134108600999992006011907204+48717+011533FM-15+0365ETSI V0202101N001010087059N0080001N1+00101+00101999999ADDGA1045+004205999GA2075+008705999MA1102201999999REMMET075ETSI 190720Z 21002KT 8000 SCT014 BKN029 01/01 Q1022 BLACKBLU BLU TEMPO GRN;
0193108600999992006011908004+48717+011533FM-12+0365ETSI V0202101N00101004201CN0080001N1+00051-00091102481ADDAY171999AY271999GA1041+004501061GF107991071051004501999999MA1999999097951MD1210161+9999MW1771REMSYN088AAXX  19081 10860 41458 72101 10005 21009 39795 40248 52016 77777 875// 333 84615 87629;
0202108600999992006011908204+48717+011533FM-15+0365ETSI V0202301N00101008401CN0050001N1+00101+00101999999ADDGA1045+004501999GA2075+008401999GA3075+010801999GF107991999999999999999999MA1102301999999MW1101MW2771REMMET089ETSI 190820Z 23002KT 5000 -SG BR SCT015 BKN028 BKN036 01/01 Q1023 BLACKWHT BLU TEMPO GRN;
0202108600999992006011909204+48717+011533FM-15+0365ETSI V0201801N00101009601CN0050001N1+00101+00101999999ADDGA1025+004501999GA2045+009601999GA3075+014101999GF107991999999999999999999MA1102301999999MW1101MW2771REMMET089ETSI 190920Z 18002KT 5000 -SG BR FEW015 SCT032 BKN047 01/01 Q1023 BLACKWHT BLU TEMPO GRN;
0193108600999992006011910004+48717+011533FM-12+0365ETSI V0202001N00101009001CN0050001N1+00121-00041102511ADDAY171999AY221999GA1011+004501081GF107991071081004501999999MA1999999097991MD1110091+9999MW1201REMSYN088AAXX  19101 10860 41450 72001 10012 21004 39799 40251 51009 72072 878// 333 81815 87647;
0160108600999992006011910204+48717+011533FM-15+0365ETSI V0202801N00051012601CN0060001N1+00201+00001999999ADDGA1025+004501999GA2075+012601999GF107991999999999999999999MA1102301999999REMMET075ETSI 191020Z 28001KT 6000 FEW015 BKN042 02/00 Q1023 BLACKWHT BLU TEMPO GRN;
0212108600999992006011911004+48717+011533FM-12+0365ETSI V0202801N003019999999N0070001N1+00251+00101102491ADDAY121999AY221999GA1011+004501081GF105991999081004501031001MA1999999097991MD1110041+9999MW1101REMSYN088AAXX  19111 10860 41457 52803 10025 20010 39799 40249 51004 71022 87830 333 81815 83642;EQDQ01+000072SCOTLC
0228108600999992006011911204+48717+011533FM-15+0365ETSI V0202901N00211010501CN0080001N1+00301+00101999999ADDGA1025+004501999GA2075+010501999GF107991999999999999999999MA1102301999999REMMET076ETSI 191120Z 29004KT 8000 FEW015 BKN035 03/01 Q1023 BLACKBLU BLU BECMG BLU+;EQDQ01+000000PRSWM1Q02+000000PRSWM2Q03+000000PRSWM3Q04+000000PRSWM4
0165108600999992006011912124+48717+011533FM-16+0365ETSI V0202801N00211999999CN0080001N1+00401+00101999999ADDGA1025+006001999GA2045+069001999GF104991999999999999999999MA1102301999999REMMET061ETSI 191212Z 28004KT 8000 FEW020 SCT230 04/01 Q1023 BLU+BLU+;EQDP01 069003SCOCIG
0229108600999992006011912204+48717+011533FM-15+0365ETSI V0202901N00211999999CN0080001N1+00401+00101999999ADDGA1025+006001999GA2045+069001999GF104991999999999999999999MA1102301999999REMMET061ETSI 191220Z 29004KT 8000 FEW020 SCT230 04/01 Q1023 BLU+BLU+;EQDQ01+000000PRSWM1Q02+000000PRSWM2Q03+000000PRSWM3Q04+000000PRSWM4P01 069003SCOCIG
0159108600999992006011914004+48717+011533FM-12+0365ETSI V0202501N002012200019N0150001N1+00431+00001102421ADDGA1011+004501081GF101991011011004501001011MA1999999097951MD1810041+9999REMSYN076AAXX  19141 10860 42465 12502 10043 20000 39795 40242 58004 81101 333 81815;
0190108600999992006011914204+48717+011533FM-15+0365ETSI V0202101N001512200019N0112651N1+00401+00101999999ADDGA1025+004501999GF102991999999999999999999MA1102201999999REMMET054ETSI 191420Z 21003KT 9999 FEW015 04/01 Q1022 BLU+BLU+;EQDQ01+000000PRSWM1Q02+000000PRSWM2Q03+000000PRSWM3Q04+000000PRSWM4
0229108600999992006011915204+48717+011533FM-15+0365ETSI V0202301N00101999999CN0112651N1+00301+00001999999ADDGA1025+004501999GA2045+069001999GF104991999999999999999999MA1102301999999REMMET061ETSI 191520Z 23002KT 9999 FEW015 SCT230 03/00 Q1023 BLU+BLU+;EQDQ01+000000PRSWM1Q02+000000PRSWM2Q03+000000PRSWM3Q04+000000PRSWM4P01 069003SCOCIG
0165108600999992006011916004+48717+011533FM-12+0365ETSI V0202601N00101220001CN0120001N1+00211+00061102511ADDGA1011+004501081GF105991011011004501001011MA1999999098001MD1310011+9999REMSYN082AAXX  19161 10860 42462 52601 10021 20006 39800 40251 53001 81101 333 81815 85073;
