0078108600999992009010312204+48717+011533FM-15+0365ETSI V0200501N002112200019N0112651N1-00201-00601999999ADDMA1102301999999REMMET051METAR ETSI 031220Z 05004KT 9999 M02/M06 Q1023 BLU/;
0078108600999992009010313204+48717+011533FM-15+0365ETSI V0200501N003112200019N0112651N1-00201-00601999999ADDMA1102301999999REMMET051METAR ETSI 031320Z 05006KT 9999 M02/M06 Q1023 BLU/;
0078108600999992009010314204+48717+011533FM-15+0365ETSI V0200501N002612200019N0112651N1-00201-00601999999ADDMA1102201999999REMMET051METAR ETSI 031420Z 05005KT 9999 M02/M06 Q1022 BLU/;
0078108600999992009010317204+48717+011533FM-15+0365ETSI V0201801N001512200019N0112651N1-00701-00801999999ADDMA1102201999999REMMET051METAR ETSI 031720Z 18003KT 9999 M07/M08 Q1022 BLU/;
0127108600999992009010318204+48717+011533FM-15+0365ETSI V0200301N000512200019N0112651N1-00801-00801999999ADDGA1021+060001999GF102991999999999999999999MA1102201999999REMMET058METAR ETSI 031820Z 03001KT 9999 FEW200 M08/M08 Q1022 BLU/;
0191108600999992009010506204+48717+011533FM-15+0365ETSI V0202501N003110054019N0025001N1-00401-00501999999ADDGA1041+003601999GA2071+005401999GA3071+010501999GF107991999999999999999999MA1101391999999MW1101MW2711REMMET078METAR ETSI 050620Z 25006KT 2500 -SN BR SCT012 BKN018 BKN035 M04/M05 Q1014 YLO;
0191108600999992009010509204+48717+011533FM-15+0365ETSI V0202501N003110045019N0025001N1-00401-00501999999ADDGA1041+003601999GA2071+004501999GA3071+012001999GF107991999999999999999999MA1101491999999MW1101MW2711REMMET078METAR ETSI 050920Z 25006KT 2500 -SN BR SCT012 BKN015 BKN040 M04/M05 Q1015 YLO;
0191108600999992009010510204+48717+011533FM-15+0365ETSI V0202501N003610045019N0025001N1-00301-00501999999ADDGA1021+002701999GA2071+004501999GA3071+010501999GF107991999999999999999999MA1101491999999MW1101MW2711REMMET078METAR ETSI 051020Z 25007KT 2500 -SN BR FEW009 BKN015 BKN035 M03/M05 Q1015 YLO;
0168108600999992009010514204+48717+011533FM-15+0365ETSI V0202801N001510060019N0030001N1-00301-00301999999ADDGA1041+002701999GA2071+006001999GF107991999999999999999999MA1101491999999MW1101MW2711REMMET071METAR ETSI 051420Z 28003KT 3000 -SN BR SCT009 BKN020 M03/M03 Q1015 YLO;
0135108600999992009010608204+48717+011533FM-15+0365ETSI V0200501N004610075019N0050001N1-00401-00601999999ADDGA1081+007501999GF108991999999999999999999MA1101801999999MW1101REMMET060METAR ETSI 060820Z 05009KT 5000 BR OVC025 M04/M06 Q1018 WHT;
0126108600999992009010609204+48717+011533FM-15+0365ETSI V0200601N004110069019N0060001N1-00401-00601999999ADDGA1081+006901999GF108991999999999999999999MA1101801999999REMMET057METAR ETSI 060920Z 06008KT 6000 OVC023 M04/M06 Q1018 WHT;
0126108600999992009010610204+48717+011533FM-15+0365ETSI V0200501N003610081019N0060001N1-00401-00601999999ADDGA1081+008101999GF108991999999999999999999MA1101801999999REMMET057METAR ETSI 061020Z 05007KT 6000 OVC027 M04/M06 Q1018 WHT;
0126108600999992009010614204+48717+011533FM-15+0365ETSI V0200401N003610069019N0070001N1-00401-00601999999ADDGA1081+006901999GF108991999999999999999999MA1101691999999REMMET057METAR ETSI 061420Z 04007KT 7000 OVC023 M04/M06 Q1017 WHT;
0126108600999992009010615204+48717+011533FM-15+0365ETSI V0200401N003610060019N0070001N1-00401-00601999999ADDGA1081+006001999GF108991999999999999999999MA1101691999999REMMET057METAR ETSI 061520Z 04007KT 7000 OVC020 M04/M06 Q1017 WHT;
0126108600999992009010616204+48717+011533FM-15+0365ETSI V0200501N003110072019N0070001N1-00401-00701999999ADDGA1081+007201999GF108991999999999999999999MA1101691999999REMMET057METAR ETSI 061620Z 05006KT 7000 OVC024 M04/M07 Q1017 WHT;
0135108600999992009010704204+48717+011533FM-15+0365ETSI V0200201N001510045019N0045001N1-00601-00601999999ADDGA1081+004501999GF108991999999999999999999MA1101691999999MW1101REMMET060METAR ETSI 070420Z 02003KT 4500 BR OVC015 M06/M06 Q1017 GRN;
0179108600999992009010705004+48717+011533FM-12+0365ETSI V0200301N002010045019N0045001N1-00561-00761102081ADDAY121999GA1081+004501061GF108991081051004501999999MA1999999097451MD1810011+9999MW1101REMSYN082AAXX  07051 10860 41445 80302 11056 21076 39745 40208 58001 7102/ 885// 333 88615;
0139108600999992009010705204+48717+011533FM-15+0365ETSI V0200701N001510045019N0045001N1-00501-00701999999ADDGA1081+004501999GF108991999999999999999999MA1101691999999MW1101REMMET064METAR ETSI 070520Z 07003KT 4500 BR OVC015 M05/M07 Q1017 GRN GRN;
0139108600999992009010706204+48717+011533FM-15+0365ETSI V0200701N001010039019N0050001N1-00601-00701999999ADDGA1081+003901999GF108991999999999999999999MA1101801999999MW1101REMMET064METAR ETSI 070620Z 07002KT 5000 BR OVC013 M06/M07 Q1018 GRN GRN;
0235108600999992009010707004+48717+011533FM-12+0365ETSI V0203201N001010039019N0050001N1-00551-00611102131ADDAY121999AY221999GA1081+003901061GF108991081051004501999999MA1999999097501MD1310041+9999MW1101REMSYN130AAXX  07071 10860 41450 83201 11055 21061 39750 40213 53004 71022 885// 333 88613 555 BOT 1//// 2//// 3//// 4//// 5//// 999 47///;
0139108600999992009010707204+48717+011533FM-15+0365ETSI V0209999V001010039019N0050001N1-00501-00601999999ADDGA1081+003901999GF108991999999999999999999MA1101801999999MW1101REMMET064METAR ETSI 070720Z VRB02KT 5000 BR OVC013 M05/M06 Q1018 GRN GRN;
0187108600999992009010708004+48717+011533FM-12+0365ETSI V0200301N001010039019N0060001N1-00531-00641102181ADDAY121999AY221999GA1081+003901061GF108991081051004501999999MA1999999097551MD1210101+9999MW1101REMSYN082AAXX  07081 10860 41456 80301 11053 21064 39755 40218 52010 71022 885// 333 88613;
0130108600999992009010708204+48717+011533FM-15+0365ETSI V0200201N001510039019N0070001N1-00501-00601999999ADDGA1081+003901999GF108991999999999999999999MA1101901999999REMMET061METAR ETSI 070820Z 02003KT 7000 OVC013 M05/M06 Q1019 GRN GRN;
0140108600999992009010709204+48717+011533FM-15+0365ETSI V0200501N001510039019N0070001N1-00501-00701999999ADDGA1081+003901999GF108991999999999999999999MA1101901999999MW1771REMMET065METAR ETSI 070920Z 05003KT 7000 -SG OVC013 M05/M07 Q1019 GRN GRN;
0187108600999992009010710004+48717+011533FM-12+0365ETSI V0209999V001010039019N0070001N1-00501-00691102271ADDAY121999AY221999GA1081+003901061GF108991081051004501999999MA1999999097641MD1210141+9999MW1101REMSYN082AAXX  07101 10860 41457 89901 11050 21069 39764 40227 52014 71022 885// 333 88613;
0140108600999992009010710204+48717+011533FM-15+0365ETSI V0200201N002610039019N0080001N1-00501-00701999999ADDGA1081+003901999GF108991999999999999999999MA1101901999999MW1771REMMET065METAR ETSI 071020Z 02005KT 8000 -SG OVC013 M05/M07 Q1019 GRN GRN;
0159108600999992009010711004+48717+011533FM-12+0365ETSI V0200201N003010039019N0080001N1-00511-00701102241ADDGA1081+003901061GF108991081051004501999999MA1999999097611MD1010061+9999REMSYN076AAXX  07111 10860 42458 80203 11051 21070 39761 40224 50006 885// 333 88613;
0130108600999992009010711204+48717+011533FM-15+0365ETSI V0203501N002110042019N0080001N1-00501-00701999999ADDGA1081+004201999GF108991999999999999999999MA1101901999999REMMET061METAR ETSI 071120Z 35004KT 8000 OVC014 M05/M07 Q1019 GRN GRN;
0140108600999992009010712204+48717+011533FM-15+0365ETSI V0203301N002110042019N0080001N1-00501-00601999999ADDGA1081+004201999GF108991999999999999999999MA1101901999999REMMET071METAR ETSI 071220Z 33004KT 8000 OVC014 M05/M06 Q1019 GRN GRN BECMG WHT;
0159108600999992009010713004+48717+011533FM-12+0365ETSI V0202801N002010042019N0080001N1-00501-00711102201ADDGA1081+004201061GF108991081051004501999999MA1999999097581MD1610061+9999REMSYN076AAXX  07131 10860 42458 82802 11050 21071 39758 40220 56006 885// 333 88614;
0140108600999992009010713204+48717+011533FM-15+0365ETSI V0203201N001510045019N0080001N1-00501-00701999999ADDGA1081+004501999GF108991999999999999999999MA1101901999999REMMET071METAR ETSI 071320Z 32003KT 8000 OVC015 M05/M07 Q1019 WHT GRN TEMPO WHT;
0201108600999992009010714004+48717+011533FM-12+0365ETSI V0202801N002010045019N0090001N1-00521-00791102201ADDGA1071+004501061GF107991071051004501999999MA1999999097571MD1610041+9999REMSYN118AAXX  07141 10860 42459 72802 11052 21079 39757 40220 56004 875// 333 87615 555 BOT 1//// 2//// 3//// 4//// 999 47///;
0140108600999992009010714204+48717+011533FM-15+0365ETSI V0203201N001010048019N0090001N1-00501-00801999999ADDGA1071+004801999GF107991999999999999999999MA1101901999999REMMET071METAR ETSI 071420Z 32002KT 9000 BKN016 M05/M08 Q1019 WHT GRN TEMPO WHT;
0140108600999992009010715204+48717+011533FM-15+0365ETSI V0203001N001510051019N0090001N1-00601-00801999999ADDGA1071+005101999GF107991999999999999999999MA1101901999999REMMET071METAR ETSI 071520Z 30003KT 9000 BKN017 M06/M08 Q1019 WHT GRN TEMPO WHT;
0253108600999992009010716004+48717+011533SY-MT+0365ETSI V0202601N001010048019N0080001N1-00641-00881102331ADDGA1071+004801999GF199999061051004501001001MA1102001097681MD1310101+9999REMSYN076AAXX  07161 10860 42458 62601 11064 21088 39768 40233 53010 86500 333 86616;MET069SPECI ETSI 071600Z 26002KT 8000 BKN016 M07/M08 Q1020 WHT FCST CANCEL;EQDQ01+000062SCOTCV
0126108600999992009010716204+48717+011533FM-15+0365ETSI V0202901N001012200019N0070001N1-00701-00801999999ADDGA1041+004801999GF104991999999999999999999MA1102001999999REMMET057METAR ETSI 071620Z 29002KT 7000 SCT016 M07/M08 Q1020 WHT;
0193108600999992009010717004+48717+011533FM-12+0365ETSI V0201601N00101004201CN0070001N1-00811-00911102441ADDAY111999AY211999GA1031+004801061GF107991071051004501999999MA1999999097751MD1210181+9999MW1101REMSYN088AAXX  07171 10860 41457 71601 11081 21091 39775 40244 52018 71011 875// 333 83616 85630;
0126108600999992009010717204+48717+011533FM-15+0365ETSI V0201601N001010072019N0070001N1-00801-00901999999ADDGA1071+007201999GF107991999999999999999999MA1102101999999REMMET057METAR ETSI 071720Z 16002KT 7000 BKN024 M08/M09 Q1021 WHT;
0166108600999992009010804204+48717+011533FM-15+0365ETSI V0209999V000512200019N0013001N1-01401-01401999999ADDED199U99999GA1041+060001999GF104991999999999999999999MA1102611999999MW1101MW2401REMMET074METAR ETSI 080420Z VRB01KT 1300 R25/9000 VCFG BR SCT200 M14/M14 Q1026 AMB;
0179108600999992009010805004+48717+011533FM-12+0365ETSI V0200901N001012200019N0015001N1-01431-01441103131ADDAY101999GA1031+060001001GF103991001001999999001011MA1999999098301MD1210091+9999MW1401REMSYN082AAXX  08051 10860 41915 30901 11143 21144 39830 40313 52009 7400/ 80001 333 83070;
0180108600999992009010805044+48717+011533FM-16+0365ETSI V0200601N000512200019N0016001N1-01401-01401999999ADDED199U46009GA1041+060001999GF104991999999999999999999MA1102611999999MW1101MW2401REMMET088SPECI ETSI 080504Z 06001KT 1600 R25/4600 VCFG BR SCT200 M14/M14 Q1026 YLO YLO TEMPO AMB;
0180108600999992009010805204+48717+011533FM-15+0365ETSI V0200501N001012200019N0016001N1-01401-01401999999ADDED199U99999GA1041+060001999GF104991999999999999999999MA1102611999999MW1101MW2401REMMET088METAR ETSI 080520Z 05002KT 1600 R25/9000 VCFG BR SCT200 M14/M14 Q1026 YLO YLO TEMPO AMB;
0149108600999992009010806204+48717+011533FM-15+0365ETSI V0200701N000512200019N0035001N1-01501-01501999999ADDGA1021+060001999GF102991999999999999999999MA1102711999999MW1101REMMET074METAR ETSI 080620Z 07001KT 3500 BR FEW200 M15/M15 Q1027 YLO YLO TEMPO AMB;
0100108600999992009010806544+48717+011533FM-16+0365ETSI V0200801N000512200019N0040001N1-01501-01501999999ADDMA1102711999999MW1101REMMET067SPECI ETSI 080654Z 08001KT 4000 BR M15/M15 Q1027 GRN YLO TEMPO AMB;
0219108600999992009010807004+48717+011533FM-12+0365ETSI V0209999V001012200019N0040001N1-01521-01521103261ADDAY101011AY201011GA1001+999999999GF100991001001999999001001MA1999999098411MD1210141+9999MW1101REMSYN114AAXX  08071 10860 41940 09901 11152 21152 39841 40326 52014 71000 555 BOT 1//// 2//// 3//// 4//// 5//// 999 47///;
0100108600999992009010807204+48717+011533FM-15+0365ETSI V0201401N001012200019N0040001N1-01501-01501999999ADDMA1102811999999MW1101REMMET067METAR ETSI 080720Z 14002KT 4000 BR M15/M15 Q1028 GRN YLO TEMPO AMB;
0171108600999992009010808004+48717+011533FM-12+0365ETSI V0200401N001012200019N0045001N1-01481-01491103311ADDAY101999AY201999GA1001+999999999GF100991001001999999001001MA1999999098461MD1210161+9999MW1101REMSYN066AAXX  08081 10860 41945 00401 11148 21149 39846 40331 52016 71000;
0090108600999992009010808204+48717+011533FM-15+0365ETSI V0201001N001012200019N0050001N1-01401-01401999999ADDMA1102811999999MW1101REMMET057METAR ETSI 080820Z 10002KT 5000 BR M14/M14 Q1028 WHT WHT;
0090108600999992009010809204+48717+011533FM-15+0365ETSI V0200601N002112200019N0050001N1-01001-01001999999ADDMA1102911999999MW1101REMMET057METAR ETSI 080920Z 06004KT 5000 BR M10/M10 Q1029 WHT WHT;
0171108600999992009010810004+48717+011533FM-12+0365ETSI V0200601N003012200019N0050001N1-00901-00981103291ADDAY101999AY201999GA1001+999999999GF100991001001999999001001MA1999999098551MD1210141+9999MW1101REMSYN066AAXX  08101 10860 41950 00603 11090 21098 39855 40329 52014 71000;
0081108600999992009010810204+48717+011533FM-15+0365ETSI V0200601N002612200019N0060001N1-00801-00901999999ADDMA1102911999999REMMET054METAR ETSI 081020Z 06005KT 6000 M08/M09 Q1029 WHT WHT;
0171108600999992009010811004+48717+011533FM-12+0365ETSI V0200601N003012200019N0070001N1-00691-00891103201ADDAY101999AY201999GA1001+999999999GF100991001001999999001001MA1999999098501MD1010041+9999MW1101REMSYN066AAXX  08111 10860 41957 00603 11069 21089 39850 40320 50004 71000;
0092108600999992009010811204+48717+011533FM-15+0365ETSI V0200501N003112200019N0070001N1-00601-00801999999ADDMA1102811999999REMMET065METAR ETSI 081120Z 05006KT 7000 M06/M08 Q1028 WHT WHT BECMG BLU/;
0082108600999992009010812204+48717+011533FM-15+0365ETSI V0200501N004612200019N0090001N1-00501-00801999999ADDMA1102711999999REMMET055METAR ETSI 081220Z 05009KT 9000 M05/M08 Q1027 BLU/BLU/;
0143108600999992009010813004+48717+011533FM-12+0365ETSI V0200501N006012200019N0100001N1-00441-00801103031ADDGA1001+999999999GF100991001001999999001001MA1999999098381MD1710171+9999REMSYN060AAXX  08131 10860 42960 00506 11044 21080 39838 40303 57017;
0082108600999992009010813204+48717+011533FM-15+0365ETSI V0200501N006212200019N0112651N1-00501-00801999999ADDMA1102711999999REMMET055METAR ETSI 081320Z 05012KT 9999 M05/M08 Q1027 BLU/BLU/;
0185108600999992009010814004+48717+011533FM-12+0365ETSI V0200601N005012200019N0150001N1-00441-00791103051ADDGA1001+999999999GF100991001001999999001001MA1999999098401MD1510101+9999REMSYN102AAXX  08141 10860 42965 00605 11044 21079 39840 40305 55010 555 BOT 1//// 2//// 3//// 4//// 999 47///;
0082108600999992009010814204+48717+011533FM-15+0365ETSI V0200801N005112200019N0112651N1-00401-00901999999ADDMA1102711999999REMMET055METAR ETSI 081420Z 08010KT 9999 M04/M09 Q1027 BLU/BLU/;
0082108600999992009010815204+48717+011533FM-15+0365ETSI V0200801N004612200019N0112651N1-00501-00801999999ADDMA1102711999999REMMET055METAR ETSI 081520Z 08009KT 9999 M05/M08 Q1027 BLU/BLU/;
0143108600999992009010816004+48717+011533FM-12+0365ETSI V0200801N004012200019N0150001N1-00551-00841103081ADDGA1001+999999999GF100991001001999999001001MA1999999098411MD1310031+9999REMSYN060AAXX  08161 10860 42965 00804 11055 21084 39841 40308 53003;
0089108600999992009010816024+48717+011533FM-16+0365ETSI V0200801N003112200019N0112651N1-00601-00801999999ADDMA1102711999999REMMET062SPECI ETSI 081602Z 08006KT 9999 M06/M08 Q1027 BLU/FCST CANCEL;
0078108600999992009010816204+48717+011533FM-15+0365ETSI V0200701N003112200019N0112651N1-00601-00801999999ADDMA1102811999999REMMET051METAR ETSI 081620Z 07006KT 9999 M06/M08 Q1028 BLU/;
0143108600999992009010817004+48717+011533FM-12+0365ETSI V0200701N002012200019N0150001N1-00711-00831103151ADDGA1001+999999999GF100991001001999999001001MA1999999098451MD1310051+9999REMSYN060AAXX  08171 10860 42965 00702 11071 21083 39845 40315 53005;
0078108600999992009010817204+48717+011533FM-15+0365ETSI V0200901N002112200019N0112651N1-00801-01001999999ADDMA1102811999999REMMET051METAR ETSI 081720Z 09004KT 9999 M08/M10 Q1028 BLU/;
0127108600999992009010818204+48717+011533FM-15+0365ETSI V0200601N002612200019N0112651N1-00801-00901999999ADDGA1021+057001999GF102991999999999999999999MA1102811999999REMMET058METAR ETSI 081820Z 06005KT 9999 FEW190 M08/M09 Q1028 BLU/;
0127108600999992009010819204+48717+011533FM-15+0365ETSI V0200701N002612200019N0112651N1-00901-00901999999ADDGA1021+057001999GF102991999999999999999999MA1102811999999REMMET058METAR ETSI 081920Z 07005KT 9999 FEW190 M09/M09 Q1028 BLU/;
0127108600999992009010820204+48717+011533FM-15+0365ETSI V0200601N003112200019N0112651N1-00901-00901999999ADDGA1021+057001999GF102991999999999999999999MA1102811999999REMMET058METAR ETSI 082020Z 06006KT 9999 FEW190 M09/M09 Q1028 BLU/;
0078108600999992009010904204+48717+011533FM-15+0365ETSI V0201701N001012200019N0112651N1-01601-01601999999ADDMA1102811999999REMMET051METAR ETSI 090420Z 17002KT 9999 M16/M16 Q1028 BLU/;
0143108600999992009010905004+48717+011533FM-12+0365ETSI V0209999C000012200019N0100001N1-01591-01591103331ADDGA1001+999999999GF100991001001999999001001MA1999999098461MD1010001+9999REMSYN060AAXX  09051 10860 42960 00000 11159 21159 39846 40333 50000;
0092108600999992009010905204+48717+011533FM-15+0365ETSI V0201101N000512200019N0112651N1-01601-01601999999ADDMA1102811999999REMMET065METAR ETSI 090520Z 11001KT 9999 M16/M16 Q1028 BLU/BLU/ TEMPO WHT;
0092108600999992009010906204+48717+011533FM-15+0365ETSI V0200601N000512200019N0112651N1-01701-01701999999ADDMA1102811999999REMMET065METAR ETSI 090620Z 06001KT 9999 M17/M17 Q1028 BLU/BLU/ TEMPO WHT;
0191108600999992009010907004+48717+011533FM-12+0365ETSI V0209999V001012200019N0080001N1-01701-01701103431ADDGA1001+999999999GF100991001001999999001001MA1999999098531MD1210091+9999REMSYN108AAXX  09071 10860 42958 09901 11170 21170 39853 40343 52009 555 BOT 1//// 2//// 3//// 4//// 5//// 999 47///;
0092108600999992009010907204+48717+011533FM-15+0365ETSI V0201601N001012200019N0080001N1-01701-01701999999ADDMA1102911999999REMMET065METAR ETSI 090720Z 16002KT 8000 M17/M17 Q1029 BLU/BLU/ TEMPO WHT;
0143108600999992009010908004+48717+011533FM-12+0365ETSI V0201701N001012200019N0100001N1-01651-01671103471ADDGA1001+999999999GF100991001001999999001001MA1999999098581MD1210121+9999REMSYN060AAXX  09081 10860 42960 01701 11165 21167 39858 40347 52012;
0082108600999992009010908204+48717+011533FM-15+0365ETSI V0209999C000012200019N0112651N1-01501-01501999999ADDMA1102911999999REMMET055METAR ETSI 090820Z 00000KT 9999 M15/M15 Q1029 BLU/BLU/;
0082108600999992009010909204+48717+011533FM-15+0365ETSI V0209999V001012200019N0112651N1-01101-01201999999ADDMA1102911999999REMMET055METAR ETSI 090920Z VRB02KT 9999 M11/M12 Q1029 BLU/BLU/;
0143108600999992009010910004+48717+011533FM-12+0365ETSI V0200701N002012200019N0100001N1-00991-01151103361ADDGA1001+999999999GF100991001001999999001001MA1999999098601MD1110071+9999REMSYN060AAXX  09101 10860 42960 00702 11099 21115 39860 40336 51007;
0082108600999992009010910204+48717+011533FM-15+0365ETSI V0200601N001012200019N0112651N1-00801-01001999999ADDMA1102911999999REMMET055METAR ETSI 091020Z 06002KT 9999 M08/M10 Q1029 BLU/BLU/;
0143108600999992009010911004+48717+011533FM-12+0365ETSI V0203601N002012200019N0100001N1-00891-00991103321ADDGA1001+999999999GF100991001001999999001001MA1999999098581MD1010001+9999REMSYN060AAXX  09111 10860 42960 03602 11089 21099 39858 40332 50000;
0082108600999992009010911204+48717+011533FM-15+0365ETSI V0200201N001512200019N0112651N1-00801-01001999999ADDMA1102911999999REMMET055METAR ETSI 091120Z 02003KT 9999 M08/M10 Q1029 BLU/BLU/;
0082108600999992009010912204+48717+011533FM-15+0365ETSI V0200101N001512200019N0112651N1-00701-01001999999ADDMA1102811999999REMMET055METAR ETSI 091220Z 01003KT 9999 M07/M10 Q1028 BLU/BLU/;
0195108600999992009010913004+48717+011533SY-MT+0365ETSI V0200101N002012200019N0100001N1-00651-00901103151ADDGF100991001001999999001001MA1102811098461MD1710141+9999REMSYN060AAXX  09131 10860 42960 00102 11065 21090 39846 40315 57014;MET062SPECI ETSI 091300Z 36003KT 9999 M06/M09 Q1028 BLU/FCST CANCEL;
0078108600999992009010913204+48717+011533FM-15+0365ETSI V0200301N001012200019N0112651N1-00601-00901999999ADDMA1102811999999REMMET051METAR ETSI 091320Z 03002KT 9999 M06/M09 Q1028 BLU/;
0185108600999992009010914004+48717+011533FM-12+0365ETSI V0203601N002012200019N0100001N1-00571-00741103131ADDGA1001+999999999GF100991001001999999001001MA1999999098451MD1610131+9999REMSYN102AAXX  09141 10860 42960 03602 11057 21074 39845 40313 56013 555 BOT 1//// 2//// 3//// 4//// 999 47///;
0078108600999992009010914204+48717+011533FM-15+0365ETSI V0200201N002112200019N0112651N1-00601-00901999999ADDMA1102811999999REMMET051METAR ETSI 091420Z 02004KT 9999 M06/M09 Q1028 BLU/;
0078108600999992009010915204+48717+011533FM-15+0365ETSI V0203601N001012200019N0112651N1-00601-00901999999ADDMA1102711999999REMMET051METAR ETSI 091520Z 36002KT 9999 M06/M09 Q1027 BLU/;
0143108600999992009010916004+48717+011533FM-12+0365ETSI V0203601N001012200019N0100001N1-00771-00911103151ADDGA1001+999999999GF100991001001999999001001MA1999999098441MD1610021+9999REMSYN060AAXX  09161 10860 42960 03601 11077 21091 39844 40315 56002;
0078108600999992009010916204+48717+011533FM-15+0365ETSI V0200401N001012200019N0112651N1-00901-00901999999ADDMA1102811999999REMMET051METAR ETSI 091620Z 04002KT 9999 M09/M09 Q1028 BLU/;
0143108600999992009010917004+48717+011533FM-12+0365ETSI V0200701N001012200019N0090001N1-00961-01071103191ADDGA1001+999999999GF100991001001999999001001MA1999999098441MD1610011+9999REMSYN060AAXX  09171 10860 42959 00701 11096 21107 39844 40319 56001;
0078108600999992009010917204+48717+011533FM-15+0365ETSI V0200801N001012200019N0090001N1-01001-01001999999ADDMA1102811999999REMMET051METAR ETSI 091720Z 08002KT 9000 M10/M10 Q1028 BLU/;
0078108600999992009010918204+48717+011533FM-15+0365ETSI V0201901N000512200019N0080001N1-01201-01201999999ADDMA1102811999999REMMET051METAR ETSI 091820Z 19001KT 8000 M12/M12 Q1028 BLU/;
0078108600999992009010919204+48717+011533FM-15+0365ETSI V0209999V001012200019N0080001N1-01301-01301999999ADDMA1102811999999REMMET051METAR ETSI 091920Z VRB02KT 8000 M13/M13 Q1028 BLU/;
0077108600999992009011012204+48717+011533FM-15+0365ETSI V0200501N002612200019N0060001N1-00701-01001999999ADDMA1102811999999REMMET050METAR ETSI 101220Z 05005KT 6000 M07/M10 Q1028 WHT;
0086108600999992009011116204+48717+011533FM-15+0365ETSI V0202701N001512200019N0022001N1-01201-01201999999ADDMA1103291999999MW1101REMMET053METAR ETSI 111620Z 27003KT 2200 BR M12/M12 Q1033 YLO;
0137108600999992009011204204+48717+011533FM-15+0365ETSI V0200101N000512200019N0009001N1-01501-01501999999ADDGA1021+057001999GF102991999999999999999999MA1103011999999MW1481REMMET062METAR ETSI 120420Z 01001KT 0900 FZFG FEW190 M15/M15 Q1030 AMB;
0088108600999992009011204474+48717+011533FM-16+0365ETSI V0203001N000512200019N0006001N1-01501-01501999999ADDMA1103011999999MW1481REMMET055SPECI ETSI 120447Z 30001KT 0600 FZFG M15/M15 Q1030 RED;
0163108600999992009011205004+48717+011533FM-12+0365ETSI V0203101N001012200019N0006001N1-01521-01521103591ADDAY141999GA1001+999999999GF100991001001999999001001MA1999999098721MD1710091+9999MW1481REMSYN066AAXX  12051 10860 41906 03101 11152 21152 39872 40359 57009 7484/;
0122108600999992009011205204+48717+011533FM-15+0365ETSI V0201501N000519999999N0006001N1-01501-01501999999ADDED199U23009MA1103011999999MW1481REMMET078METAR ETSI 120520Z 15001KT 0600 R25/2300 FZFG M15/M15 Q1030 RED AMB TEMPO RED;
0171108600999992009011206004+48717+011533FM-15+0365ETSI V0201801N000512200019N0008001N1-01601-01601999999ADDED199U28009GA1041+000301999GF104991999999999999999999MA1103011999999MW1481REMMET085SPECI ETSI 120559Z 18001KT 0800 R25/2800 FZFG SCT001 M16/M16 Q1030 AMB AMB TEMPO RED;
0170108600999992009011206204+48717+011533FM-15+0365ETSI V0202401N000510003019N0004001N1-01601-01601999999ADDED199U33009GA1091+000301999GF109991999999000251999999MA1103011999999MW1491REMMET084METAR ETSI 120620Z 24001KT 0400 R25/3300 FZFG VV001 M16/M16 Q1030 RED AMB TEMPO RED;
0171108600999992009011206574+48717+011533FM-16+0365ETSI V0201401N000510003019N0005001N1-01601-01601999999ADDED199U23009GA1071+000301999GF107991999999999999999999MA1103011999999MW1481REMMET085SPECI ETSI 120657Z 14001KT 0500 R25/2300 FZFG BKN001 M16/M16 Q1030 RED AMB TEMPO RED;
0235108600999992009011207004+48717+011533FM-12+0365ETSI V0209999C000010003019N0004001N1-01591-01591103591ADDAY141011AY241011GA1071+000301071GF107991071061000251999999MA1999999098711MD1510011+9999MW1481REMSYN130AAXX  12071 10860 41004 70000 11159 21159 39871 40359 55001 74844 876// 333 87701 555 BOT 1//// 2//// 3//// 4//// 5//// 999 47///;
0171108600999992009011207204+48717+011533FM-15+0365ETSI V0201401N000512200019N0008001N1-01601-01601999999ADDED199U14009GA1041+000301999GF104991999999999999999999MA1103011999999MW1481REMMET085METAR ETSI 120720Z 14001KT 0800 R25/1400 FZFG SCT001 M16/M16 Q1030 AMB AMB TEMPO RED;
0149108600999992009011207594+48717+011533FM-16+0365ETSI V0201301N000512200019N0020001N1-01601-01601999999ADDGA1021+057001999GF102991999999999999999999MA1103121999999MW1101REMMET074SPECI ETSI 120759Z 13001KT 2000 BR FEW190 M16/M16 Q1031 YLO AMB TEMPO RED;
0187108600999992009011208004+48717+011533FM-12+0365ETSI V0201401N001012200019N0015001N1-01641-01641103611ADDAY141999AY211999GA1011+057001001GF101991001001999999001011MA1999999098721MD1510001+9999MW1281REMSYN082AAXX  12081 10860 41915 11401 11164 21164 39872 40361 55000 72841 80001 333 81069;
0149108600999992009011208204+48717+011533FM-15+0365ETSI V0209999C000012200019N0025001N1-01601-01601999999ADDGA1021+057001999GF102991999999999999999999MA1103011999999MW1101REMMET074METAR ETSI 120820Z 00000KT 2500 BR FEW190 M16/M16 Q1030 YLO AMB TEMPO RED;
0090108600999992009011209204+48717+011533FM-15+0365ETSI V0209999C000012200019N0025001N1-01301-01501999999ADDMA1103011999999MW1101REMMET057METAR ETSI 120920Z 00000KT 2500 BR M13/M15 Q1030 YLO YLO;
0171108600999992009011210004+48717+011533FM-12+0365ETSI V0209999C000012200019N0025001N1-01251-01281103531ADDAY101999AY201999GA1001+999999999GF100991001001999999001001MA1999999098711MD1010001+9999MW1101REMSYN066AAXX  12101 10860 41925 00000 11125 21128 39871 40353 50000 71000;
0090108600999992009011210204+48717+011533FM-15+0365ETSI V0200601N000512200019N0025001N1-01201-01201999999ADDMA1103011999999MW1101REMMET057METAR ETSI 121020Z 06001KT 2500 BR M12/M12 Q1030 YLO YLO;
0171108600999992009011211004+48717+011533FM-12+0365ETSI V0200601N002012200019N0025001N1-01191-01251103441ADDAY101999AY201999GA1001+999999999GF100991001001999999001001MA1999999098641MD1710081+9999MW1101REMSYN066AAXX  12111 10860 41925 00602 11119 21125 39864 40344 57008 71000;
0090108600999992009011211204+48717+011533FM-15+0365ETSI V0200601N001512200019N0025001N1-01101-01101999999ADDMA1102911999999MW1101REMMET057METAR ETSI 121120Z 06003KT 2500 BR M11/M11 Q1029 YLO YLO;
0139108600999992009011212204+48717+011533FM-15+0365ETSI V0200201N001512200019N0025001N1-01001-01101999999ADDGA1021+057001999GF102991999999999999999999MA1102811999999MW1101REMMET064METAR ETSI 121220Z 02003KT 2500 BR FEW190 M10/M11 Q1028 YLO YLO;
0187108600999992009011213004+48717+011533FM-12+0365ETSI V0200201N002012200019N0028001N1-00961-01061103201ADDAY101999AY201999GA1011+057001001GF101991001001999999001011MA1999999098451MD1710261+9999MW1101REMSYN082AAXX  12131 10860 41928 10202 11096 21106 39845 40320 57026 71000 80001 333 81069;
0139108600999992009011213204+48717+011533FM-15+0365ETSI V0200301N002112200019N0030001N1-00901-01001999999ADDGA1021+057001999GF102991999999999999999999MA1102711999999MW1101REMMET064METAR ETSI 121320Z 03004KT 3000 BR FEW190 M09/M10 Q1027 YLO YLO;
0187108600999992009011214004+48717+011533FM-12+0365ETSI V0200201N002012200019N0030001N1-00831-00951103111ADDAY101999AY201999GA1011+057001001GF101991001001999999001011MA1999999098391MD1710251+9999MW1101REMSYN082AAXX  12141 10860 41930 10202 11083 21095 39839 40311 57025 71000 80001 333 81069;
0139108600999992009011214204+48717+011533FM-15+0365ETSI V0200401N001512200019N0030001N1-00801-01001999999ADDGA1021+057001999GF102991999999999999999999MA1102711999999MW1101REMMET064METAR ETSI 121420Z 04003KT 3000 BR FEW190 M08/M10 Q1027 YLO YLO;
0139108600999992009011215204+48717+011533FM-15+0365ETSI V0200201N001012200019N0030001N1-00801-00801999999ADDGA1021+057001999GF102991999999999999999999MA1102611999999MW1101REMMET064METAR ETSI 121520Z 02002KT 3000 BR FEW190 M08/M08 Q1026 YLO YLO;
0284108600999992009011216004+48717+011533SY-MT+0365ETSI V0200301N001012200019N0030001N1-00871-00951103061ADDAY101999AY201999GA1021+057001999GF199999001001999999001011MA1102611098331MD1710121+9999MW1101REMSYN082AAXX  12161 10860 41930 10301 11087 21095 39833 40306 57012 71000 80001 333 81069;MET072SPECI ETSI 121600Z 06003KT 3000 BR FEW190 M08/M09 Q1026 YLO FCST CANCEL;EQDQ01+000012SCOTCV
0135108600999992009011216204+48717+011533FM-15+0365ETSI V0200601N002112200019N0030001N1-00901-00901999999ADDGA1021+057001999GF102991999999999999999999MA1102611999999MW1101REMMET060METAR ETSI 121620Z 06004KT 3000 BR FEW190 M09/M09 Q1026 YLO;
0187108600999992009011217004+48717+011533FM-12+0365ETSI V0200801N002012200019N0030001N1-00931-00931103031ADDAY101999AY201999GA1011+057001001GF101991001001999999001011MA1999999098291MD1710101+9999MW1101REMSYN082AAXX  12171 10860 41930 10802 11093 21093 39829 40303 57010 71000 80001 333 81069;
0135108600999992009011217204+48717+011533FM-15+0365ETSI V0200601N001512200019N0030001N1-00901-00901999999ADDGA1021+057001999GF102991999999999999999999MA1102611999999MW1101REMMET060METAR ETSI 121720Z 06003KT 3000 BR FEW190 M09/M09 Q1026 YLO;
0135108600999992009011218204+48717+011533FM-15+0365ETSI V0200601N002612200019N0035001N1-01001-01001999999ADDGA1021+057001999GF102991999999999999999999MA1102611999999MW1101REMMET060METAR ETSI 121820Z 06005KT 3500 BR FEW190 M10/M10 Q1026 YLO;
0135108600999992009011304204+48717+011533FM-15+0365ETSI V0209999V000512200019N0045001N1-01701-01701999999ADDGA1021+057001999GF102991999999999999999999MA1102201999999MW1101REMMET060METAR ETSI 130420Z VRB01KT 4500 BR FEW190 M17/M17 Q1022 GRN;
0179108600999992009011305004+48717+011533FM-12+0365ETSI V0203501N001012200019N0045001N1-01641-01641102781ADDAY101999GA1011+057001001GF101991001001999999001011MA1999999097931MD1610051+9999MW1101REMSYN082AAXX  13051 10860 41945 13501 11164 21164 39793 40278 56005 7100/ 80001 333 81069;
0139108600999992009011305204+48717+011533FM-15+0365ETSI V0201201N000512200019N0030001N1-01601-01601999999ADDGA1021+060001999GF102991999999999999999999MA1102201999999MW1101REMMET064METAR ETSI 130520Z 12001KT 3000 BR FEW200 M16/M16 Q1022 YLO YLO;
0139108600999992009011306204+48717+011533FM-15+0365ETSI V0201601N001012200019N0030001N1-01701-01701999999ADDGA1021+060001999GF102991999999999999999999MA1102201999999MW1101REMMET064METAR ETSI 130620Z 16002KT 3000 BR FEW200 M17/M17 Q1022 YLO YLO;
0235108600999992009011307004+48717+011533FM-12+0365ETSI V0201501N001012200019N0030001N1-01661-01671102741ADDAY101999AY201999GA1011+060001001GF101991001001999999001011MA1999999097881MD1810051+9999MW1101REMSYN130AAXX  13071 10860 41930 11501 11166 21167 39788 40274 58005 71000 80001 333 81070 555 BOT 1//// 2//// 3//// 4//// 5//// 999 47///;
0139108600999992009011307204+48717+011533FM-15+0365ETSI V0209999V000512200019N0030001N1-01601-01601999999ADDGA1021+060001999GF102991999999999999999999MA1102201999999MW1101REMMET064METAR ETSI 130720Z VRB01KT 3000 BR FEW200 M16/M16 Q1022 YLO YLO;
0187108600999992009011308004+48717+011533FM-12+0365ETSI V0203501N001012200019N0030001N1-01531-01671102711ADDAY101999AY201999GA1011+060001001GF101991001001999999001011MA1999999097881MD1610051+9999MW1101REMSYN082AAXX  13081 10860 41930 13501 11153 21167 39788 40271 56005 71000 80001 333 81070;
0139108600999992009011308204+48717+011533FM-15+0365ETSI V0200901N002112200019N0037001N1-01301-01301999999ADDGA1021+060001999GF102991999999999999999999MA1102101999999MW1101REMMET064METAR ETSI 130820Z 09004KT 3700 BR FEW200 M13/M13 Q1021 GRN GRN;
0139108600999992009011309204+48717+011533FM-15+0365ETSI V0200601N002112200019N0037001N1-01001-01001999999ADDGA1021+060001999GF102991999999999999999999MA1102101999999MW1101REMMET064METAR ETSI 130920Z 06004KT 3700 BR FEW200 M10/M10 Q1021 GRN GRN;
0187108600999992009011310004+48717+011533FM-12+0365ETSI V0200701N003012200019N0040001N1-00851-00941102501ADDAY101999AY201999GA1011+060001001GF101991001001999999001011MA1999999097801MD1810081+9999MW1101REMSYN082AAXX  13101 10860 41940 10703 11085 21094 39780 40250 58008 71000 80001 333 81070;
0149108600999992009011310204+48717+011533FM-15+0365ETSI V0200601N002612200019N0040001N1-00801-00901999999ADDGA1021+060001999GF102991999999999999999999MA1102001999999MW1101REMMET074METAR ETSI 131020Z 06005KT 4000 BR FEW200 M08/M09 Q1020 GRN GRN BECMG WHT;
0187108600999992009011311004+48717+011533FM-12+0365ETSI V0200601N002012200019N0040001N1-00691-00821102371ADDAY101999AY201999GA1011+060001001GF101991001001999999001011MA1999999097711MD1710171+9999MW1101REMSYN082AAXX  13111 10860 41940 10602 11069 21082 39771 40237 57017 71000 80001 333 81070;
0149108600999992009011311204+48717+011533FM-15+0365ETSI V0200701N002612200019N0045001N1-00701-00801999999ADDGA1021+060001999GF102991999999999999999999MA1102001999999MW1101REMMET074METAR ETSI 131120Z 07005KT 4500 BR FEW200 M07/M08 Q1020 GRN GRN BECMG WHT;
0149108600999992009011312204+48717+011533FM-15+0365ETSI V0200501N002112200019N0050001N1-00501-00801999999ADDGA1021+057001999GF102991999999999999999999MA1101901999999MW1101REMMET074METAR ETSI 131220Z 05004KT 5000 BR FEW190 M05/M08 Q1019 WHT WHT TEMPO GRN;
0187108600999992009011313004+48717+011533FM-12+0365ETSI V0200401N002012200019N0050001N1-00441-00701102161ADDAY101999AY201999GA1011+057001001GF101991001001999999001011MA1999999097551MD1710251+9999MW1101REMSYN082AAXX  13131 10860 41950 10402 11044 21070 39755 40216 57025 71000 80001 333 81069;
0149108600999992009011313204+48717+011533FM-15+0365ETSI V0200201N003112200019N0050001N1-00401-00701999999ADDGA1021+057001999GF102991999999999999999999MA1101801999999MW1051REMMET074METAR ETSI 131320Z 02006KT 5000 HZ FEW190 M04/M07 Q1018 WHT WHT TEMPO GRN;
0229108600999992009011314004+48717+011533FM-12+0365ETSI V0200301N003012200019N0050001N1-00381-00671102081ADDAY101999AY201999GA1011+057001001GF101991001001999999001011MA1999999097481MD1710231+9999MW1101REMSYN124AAXX  13141 10860 41950 10303 11038 21067 39748 40208 57023 71000 80001 333 81069 555 BOT 1//// 2//// 3//// 4//// 999 47///;
0149108600999992009011314204+48717+011533FM-15+0365ETSI V0200501N002112200019N0050001N1-00401-00701999999ADDGA1021+057001999GF102991999999999999999999MA1101691999999MW1101REMMET074METAR ETSI 131420Z 05004KT 5000 BR FEW190 M04/M07 Q1017 WHT WHT TEMPO GRN;
0149108600999992009011315204+48717+011533FM-15+0365ETSI V0200701N002112200019N0050001N1-00401-00701999999ADDGA1021+057001999GF102991999999999999999999MA1101691999999MW1101REMMET074METAR ETSI 131520Z 07004KT 5000 BR FEW190 M04/M07 Q1017 WHT WHT TEMPO GRN;
0187108600999992009011316004+48717+011533FM-12+0365ETSI V0200401N001012200019N0050001N1-00501-00641102041ADDAY101999AY201999GA1011+057001001GF101991001001999999001011MA1999999097421MD1710131+9999MW1101REMSYN082AAXX  13161 10860 41950 10401 11050 21064 39742 40204 57013 71000 80001 333 81069;
0147108600999992009011316014+48717+011533FM-16+0365ETSI V0200701N001012200019N0050001N1-00501-00601999999ADDGA1021+057001999GF102991999999999999999999MA1101691999999MW1101REMMET072SPECI ETSI 131601Z 07002KT 5000 BR FEW190 M05/M06 Q1017 WHT FCST CANCEL;
0135108600999992009011316204+48717+011533FM-15+0365ETSI V0200801N001012200019N0050001N1-00601-00701999999ADDGA1021+057001999GF102991999999999999999999MA1101691999999MW1101REMMET060METAR ETSI 131620Z 08002KT 5000 BR FEW190 M06/M07 Q1017 WHT;
0187108600999992009011317004+48717+011533FM-12+0365ETSI V0209999V001012200019N0050001N1-00721-00791102041ADDAY101999AY201999GA1011+057001001GF101991001001999999001011MA1999999097391MD1710091+9999MW1101REMSYN082AAXX  13171 10860 41950 19901 11072 21079 39739 40204 57009 71000 80001 333 81069;
0135108600999992009011317204+48717+011533FM-15+0365ETSI V0209999C000012200019N0045001N1-00801-00901999999ADDGA1021+057001999GF102991999999999999999999MA1101691999999MW1101REMMET060METAR ETSI 131720Z 00000KT 4500 BR FEW190 M08/M09 Q1017 GRN;
0135108600999992009011318204+48717+011533FM-15+0365ETSI V0200401N001012200019N0045001N1-00901-00901999999ADDGA1021+057001999GF102991999999999999999999MA1101691999999MW1101REMMET060METAR ETSI 131820Z 04002KT 4500 BR FEW190 M09/M09 Q1017 GRN;
0135108600999992009011404204+48717+011533FM-15+0365ETSI V0200401N001010570019N0030001N1-01201-01201999999ADDGA1071+057001999GF107991999999999999999999MA1101491999999MW1101REMMET060METAR ETSI 140420Z 04002KT 3000 BR BKN190 M12/M12 Q1015 YLO;
0179108600999992009011405004+48717+011533FM-12+0365ETSI V0209999V001010540019N0030001N1-01221-01231101951ADDAY101999GA1061+054001021GF106991001001999999001081MA1999999097211MD1310011+9999MW1101REMSYN082AAXX  14051 10860 41930 69901 11122 21123 39721 40195 53001 7100/ 80008 333 86268;
0139108600999992009011405204+48717+011533FM-15+0365ETSI V0200101N000510510019N0030001N1-01201-01201999999ADDGA1071+051001999GF107991999999999999999999MA1101491999999MW1101REMMET064METAR ETSI 140520Z 01001KT 3000 BR BKN170 M12/M12 Q1015 YLO YLO;
0139108600999992009011406204+48717+011533FM-15+0365ETSI V0209999C000010480019N0035001N1-01201-01201999999ADDGA1071+048001999GF107991999999999999999999MA1101491999999MW1101REMMET064METAR ETSI 140620Z 00000KT 3500 BR BKN160 M12/M12 Q1015 YLO YLO;
0235108600999992009011407004+48717+011533FM-12+0365ETSI V0201501N001010480019N0035001N1-01221-01241101981ADDAY101999AY201999GA1071+048001031GF107991071001999999031999MA1999999097241MD1510001+9999MW1101REMSYN130AAXX  14071 10860 41935 71501 11122 21124 39724 40198 55000 71000 8703/ 333 87366 555 BOT 1//// 2//// 3//// 4//// 5//// 999 47///;
0139108600999992009011407204+48717+011533FM-15+0365ETSI V0209999V001010480019N0035001N1-01201-01301999999ADDGA1071+048001999GF107991999999999999999999MA1101491999999MW1101REMMET064METAR ETSI 140720Z VRB02KT 3500 BR BKN160 M12/M13 Q1015 YLO YLO;
0187108600999992009011408004+48717+011533FM-12+0365ETSI V0209999V001010450019N0030001N1-01191-01221101961ADDAY121999AY221999GA1071+045001031GF107991071001999999031999MA1999999097231MD1110021+9999MW1101REMSYN082AAXX  14081 10860 41930 79901 11119 21122 39723 40196 51002 71022 8703/ 333 87365;
0139108600999992009011408204+48717+011533FM-15+0365ETSI V0209999V000510450019N0030001N1-01101-01101999999ADDGA1071+045001999GF107991999999999999999999MA1101491999999MW1101REMMET064METAR ETSI 140820Z VRB01KT 3000 BR BKN150 M11/M11 Q1015 YLO YLO;
0162108600999992009011409204+48717+011533FM-15+0365ETSI V0209999V000510390019N0030001N1-01001-01001999999ADDGA1021+002401999GA2071+039001999GF107991999999999999999999MA1101491999999MW1101REMMET071METAR ETSI 140920Z VRB01KT 3000 BR FEW008 BKN130 M10/M10 Q1015 YLO YLO;
0187108600999992009011410004+48717+011533FM-12+0365ETSI V0209999V001010390019N0030001N1-00931-00931101981ADDAY121999AY221999GA1071+039001031GF107991071001999999031999MA1999999097291MD1310051+9999MW1101REMSYN082AAXX  14101 10860 41930 79901 11093 21093 39729 40198 53005 71022 8703/ 333 87363;
0139108600999992009011410204+48717+011533FM-15+0365ETSI V0209999C000010360019N0030001N1-00901-00901999999ADDGA1071+036001999GF107991999999999999999999MA1101591999999MW1101REMMET064METAR ETSI 141020Z 00000KT 3000 BR BKN120 M09/M09 Q1016 YLO YLO;
0193108600999992009011411004+48717+011533FM-12+0365ETSI V0209999V001010360019N0030001N1-00681-00911101911ADDAY121999AY221999GA1061+036001031GF107991071001999999031081MA1999999097271MD1010041+9999MW1101REMSYN088AAXX  14111 10860 41930 79901 11068 21091 39727 40191 50004 71022 87038 333 86362 87268;
0172108600999992009011411204+48717+011533FM-15+0365ETSI V0209999C000010360019N0030001N1-00601-00901999999ADDGA1071+036001999GA2071+054001999GF107991999999999999999999MA1101491999999MW1051REMMET081METAR ETSI 141120Z 00000KT 3000 HZ BKN120 BKN180 M06/M09 Q1015 YLO YLO TEMPO GRN;
0172108600999992009011412204+48717+011533FM-15+0365ETSI V0201701N000510360019N0035001N1-00601-00801999999ADDGA1071+036001999GA2071+054001999GF107991999999999999999999MA1101391999999MW1101REMMET081METAR ETSI 141220Z 17001KT 3500 BR BKN120 BKN180 M06/M08 Q1014 YLO YLO TEMPO GRN;
0187108600999992009011413004+48717+011533FM-12+0365ETSI V0202901N001010360019N0035001N1-00511-00791101771ADDAY121999AY221999GA1071+036001031GF107991071001999999031999MA1999999097161MD1710131+9999MW1101REMSYN082AAXX  14131 10860 41935 72901 11051 21079 39716 40177 57013 71022 8703/ 333 87362;
0149108600999992009011413204+48717+011533FM-15+0365ETSI V0202501N002110360019N0035001N1-00501-00701999999ADDGA1071+036001999GF107991999999999999999999MA1101391999999MW1101REMMET074METAR ETSI 141320Z 25004KT 3500 BR BKN120 M05/M07 Q1014 YLO YLO TEMPO GRN;
0251108600999992009011414004+48717+011533FM-12+0365ETSI V0202701N001010360019N0035001N1-00501-00721101801ADDAY121999AY221999GA1031+027001031GA2071+036001031GF107991071001999999071999MA1999999097191MD1510081+9999MW1101REMSYN130AAXX  14141 10860 41935 72701 11050 21072 39719 40180 55008 71022 8707/ 333 83359 87362 555 BOT 1//// 2//// 3//// 4//// 999 47///;
0162108600999992009011414204+48717+011533FM-15+0365ETSI V0202701N001510300019N0035001N1-00501-00701999999ADDGA1071+030001999GA2071+036001999GF107991999999999999999999MA1101491999999MW1101REMMET071METAR ETSI 141420Z 27003KT 3500 BR BKN100 BKN120 M05/M07 Q1015 YLO YLO;
0162108600999992009011415204+48717+011533FM-15+0365ETSI V0203201N000510330019N0035001N1-00501-00701999999ADDGA1071+033001999GA2071+042001999GF107991999999999999999999MA1101491999999MW1101REMMET071METAR ETSI 141520Z 32001KT 3500 BR BKN110 BKN140 M05/M07 Q1015 YLO YLO;
0323108600999992009011416004+48717+011533SY-MT+0365ETSI V0203401N001010330019N0035001N1-00531-00721101881ADDAY121999AY221999GA1021+015001999GA2071+033001999GA3071+042001999GF107991021051017501071999MA1101591097271MD1210111+9999MW1101REMSYN094AAXX  14161 10860 41735 73401 11053 21072 39727 40188 52011 71022 8257/ 333 82650 85361 87364;MET086SPECI ETSI 141600Z VRB01KT 3500 BR FEW050 BKN110 BKN140 M05/M07 Q1016 YLO FCST CANCEL;
0181108600999992009011416204+48717+011533FM-15+0365ETSI V0209999C000010330019N0035001N1-00501-00701999999ADDGA1021+015001999GA2071+033001999GA3071+042001999GF107991999999999999999999MA1101591999999MW1101REMMET074METAR ETSI 141620Z 00000KT 3500 BR FEW050 BKN110 BKN140 M05/M07 Q1016 YLO;
0193108600999992009011417004+48717+011533FM-12+0365ETSI V0201001N001010150019N0035001N1-00591-00751101931ADDAY121999AY221999GA1051+015001061GF107991051051017501031999MA1999999097301MD1210111+9999MW1101REMSYN088AAXX  14171 10860 41735 71001 11059 21075 39730 40193 52011 71022 8553/ 333 85650 87361;
0158108600999992009011417204+48717+011533FM-15+0365ETSI V0209999C000010150019N0035001N1-00601-00701999999ADDGA1071+015001999GA2071+033001999GF107991999999999999999999MA1101591999999MW1101REMMET067METAR ETSI 141720Z 00000KT 3500 BR BKN050 BKN110 M06/M07 Q1016 YLO;
0158108600999992009011418204+48717+011533FM-15+0365ETSI V0201501N000510051019N0035001N1-00501-00601999999ADDGA1071+005101999GA2071+013501999GF107991999999999999999999MA1101691999999MW1101REMMET067METAR ETSI 141820Z 15001KT 3500 BR BKN017 BKN045 M05/M06 Q1017 YLO;
0139108600999992009011504204+48717+011533FM-15+0365ETSI V0201801N001010024019N0030001N1-00501-00601999999ADDGA1071+002401999GF107991999999999999999999MA1101901999999MW1101REMMET064METAR ETSI 150420Z 18002KT 3000 BR BKN008 M05/M06 Q1019 YLO YLO;
0179108600999992009011505004+48717+011533FM-12+0365ETSI V0201701N001010024019N0030001N1-00471-00641102241ADDAY121999GA1071+002401071GF108991081061002501999999MA1999999097621MD1310061+9999MW1101REMSYN082AAXX  15051 10860 41330 81701 11047 21064 39762 40224 53006 7102/ 886// 333 87708;
0139108600999992009011505204+48717+011533FM-15+0365ETSI V0201801N001010024019N0030001N1-00501-00601999999ADDGA1071+002401999GF107991999999999999999999MA1101901999999MW1101REMMET064METAR ETSI 150520Z 18002KT 3000 BR BKN008 M05/M06 Q1019 YLO YLO;
0162108600999992009011506204+48717+011533FM-15+0365ETSI V0200401N000510021019N0025001N1-00301-00401999999ADDGA1071+002101999GA2071+003601999GF107991999999999999999999MA1101901999999MW1101REMMET071METAR ETSI 150620Z 04001KT 2500 BR BKN007 BKN012 M03/M04 Q1019 YLO YLO;
0257108600999992009011507004+48717+011533FM-12+0365ETSI V0200901N002010021019N0025001N1-00321-00401102291ADDAY121999AY221999GA1061+002101071GA2071+003601071GF108991081061002501999999MA1999999097691MD1210111+9999MW1101REMSYN136AAXX  15071 10860 41325 80902 11032 21040 39769 40229 52011 71022 886// 333 86707 87712 555 BOT 1//// 2//// 3//// 4//// 5//// 999 47///;
0162108600999992009011507204+48717+011533FM-15+0365ETSI V0209999V000510021019N0025001N1-00301-00401999999ADDGA1071+002101999GA2071+003301999GF107991999999999999999999MA1102001999999MW1101REMMET071METAR ETSI 150720Z VRB01KT 2500 BR BKN007 BKN011 M03/M04 Q1020 YLO YLO;
0193108600999992009011508004+48717+011533FM-12+0365ETSI V0209999V001010027019N0025001N1-00311-00381102331ADDAY121999AY221999GA1051+002701071GF108991081061002501999999MA1999999097731MD1310111+9999MW1101REMSYN088AAXX  15081 10860 41325 89901 11031 21038 39773 40233 53011 71022 886// 333 85709 87714;
0162108600999992009011508204+48717+011533FM-15+0365ETSI V0200601N001010030019N0025001N1-00301-00401999999ADDGA1071+003001999GA2071+004201999GF107991999999999999999999MA1102001999999MW1101REMMET071METAR ETSI 150820Z 06002KT 2500 BR BKN010 BKN014 M03/M04 Q1020 YLO YLO;
0162108600999992009011509204+48717+011533FM-15+0365ETSI V0201501N001010030019N0028001N1-00201-00401999999ADDGA1071+003001999GA2071+004201999GF107991999999999999999999MA1102101999999MW1101REMMET071METAR ETSI 150920Z 15002KT 2800 BR BKN010 BKN014 M02/M04 Q1021 YLO YLO;
0193108600999992009011510004+48717+011533FM-12+0365ETSI V0201601N001010030019N0028001N1-00211-00321102371ADDAY121999AY221999GA1051+003001071GF108991081051004501999999MA1999999097791MD1210101+9999MW1101REMSYN088AAXX  15101 10860 41428 81601 11021 21032 39779 40237 52010 71022 885// 333 85710 87614;
0162108600999992009011510204+48717+011533FM-15+0365ETSI V0203601N000510030019N0030001N1-00201-00301999999ADDGA1071+003001999GA2071+004201999GF107991999999999999999999MA1102101999999MW1101REMMET071METAR ETSI 151020Z 36001KT 3000 BR BKN010 BKN014 M02/M03 Q1021 YLO YLO;
0187108600999992009011511004+48717+011533FM-12+0365ETSI V0200601N001010024019N0030001N1-00141-00341102301ADDAY121999AY221999GA1081+002401061GF108991081051002501999999MA1999999097731MD1010001+9999MW1101REMSYN082AAXX  15111 10860 41330 80601 11014 21034 39773 40230 50000 71022 885// 333 88608;
0162108600999992009011511204+48717+011533FM-15+0365ETSI V0200501N001510024019N0030001N1-00101-00301999999ADDGA1021+001801999GA2071+002401999GF107991999999999999999999MA1102001999999MW1101REMMET071METAR ETSI 151120Z 05003KT 3000 BR FEW006 BKN008 M01/M03 Q1020 YLO YLO;
0161108600999992009011512204+48717+011533FM-15+0365ETSI V0209999V001010024019N0030001N1+00001-00201999999ADDGA1021+001801999GA2071+002401999GF107991999999999999999999MA1102001999999MW1101REMMET070METAR ETSI 151220Z VRB02KT 3000 BR FEW006 BKN008 00/M02 Q1020 YLO YLO;
0171108600999992009011512354+48717+011533FM-16+0365ETSI V0209999V001010027019N0037001N1+00001-00201999999ADDGA1021+001801999GA2071+002701999GF107991999999999999999999MA1102001999999MW1101REMMET080SPECI ETSI 151235Z VRB02KT 3700 BR FEW006 BKN009 00/M02 Q1020 GRN GRN TEMPO YLO;
0193108600999992009011513004+48717+011533FM-12+0365ETSI V0201001N00201001201CN0037001N1+00021-00121102231ADDAY121999AY221999GA1011+001801071GF107991071051001501999999MA1999999097691MD1710101+9999MW1101REMSYN088AAXX  15131 10860 41237 71002 10002 21012 39769 40223 57010 71022 875// 333 81706 87609;
0171108600999992009011513204+48717+011533FM-15+0365ETSI V0200401N001510030019N0040001N1+00101-00101999999ADDGA1021+002101999GA2071+003001999GF107991999999999999999999MA1102001999999MW1101REMMET080METAR ETSI 151320Z 04003KT 4000 BR FEW007 BKN010 01/M01 Q1020 GRN GRN TEMPO YLO;
0251108600999992009011514004+48717+011533FM-12+0365ETSI V0200101N003010030019N0045001N1+00031-00051102241ADDAY121999AY221999GA1011+002101071GA2071+003001061GF107991071051002501999999MA1999999097701MD1510031+9999MW1101REMSYN130AAXX  15141 10860 41345 70103 10003 21005 39770 40224 55003 71022 875// 333 81707 87610 555 BOT 1//// 2//// 3//// 4//// 999 47///;
0148108600999992009011514204+48717+011533FM-15+0365ETSI V0200101N002110030019N0040001N1+00001-00201999999ADDGA1071+003001999GF107991999999999999999999MA1102001999999MW1101REMMET073METAR ETSI 151420Z 01004KT 4000 BR BKN010 00/M02 Q1020 GRN GRN TEMPO YLO;
0148108600999992009011515204+48717+011533FM-15+0365ETSI V0200401N001510033019N0038001N1+00001-00101999999ADDGA1071+003301999GF107991999999999999999999MA1102001999999MW1101REMMET073METAR ETSI 151520Z 04003KT 3800 BR BKN011 00/M01 Q1020 GRN GRN TEMPO YLO;
0265108600999992009011516004+48717+011533SY-MT+0365ETSI V0201001N00201004201CN0035001N1-00031-00181102281ADDAY121999AY221999GA1041+003601999GF107991071051004501999999MA1102001097731MD1010041+9999MW1101REMSYN082AAXX  15161 10860 41435 71002 11003 21018 39773 40228 50004 71022 875// 333 87612;MET072SPECI ETSI 151600Z 11003KT 2800 BR SCT012 M01/M02 Q1020 YLO FCST CANCEL;
0135108600999992009011516204+48717+011533FM-15+0365ETSI V0201201N001512200019N0030001N1-00101-00301999999ADDGA1021+003601999GF102991999999999999999999MA1102001999999MW1101REMMET060METAR ETSI 151620Z 12003KT 3000 BR FEW012 M01/M03 Q1020 YLO;
0135108600999992009011516484+48717+011533FM-16+0365ETSI V0201001N001510018019N0030001N1-00101-00201999999ADDGA1071+001801999GF107991999999999999999999MA1102101999999MW1101REMMET060SPECI ETSI 151648Z 10003KT 3000 BR BKN006 M01/M02 Q1021 YLO;
0187108600999992009011517004+48717+011533FM-12+0365ETSI V0201001N002010018019N0030001N1-00141-00211102341ADDAY111999AY211999GA1051+001801061GF105991051051001501001001MA1999999097771MD1210071+9999MW1101REMSYN082AAXX  15171 10860 41230 51002 11014 21021 39777 40234 52007 71011 85500 333 85606;
0135108600999992009011517204+48717+011533FM-15+0365ETSI V0200801N002610015019N0025001N1-00101-00201999999ADDGA1081+001501999GF108991999999999999999999MA1102101999999MW1101REMMET060METAR ETSI 151720Z 08005KT 2500 BR OVC005 M01/M02 Q1021 YLO;
0135108600999992009011518204+48717+011533FM-15+0365ETSI V0200701N002110012019N0020001N1-00201-00201999999ADDGA1081+001201999GF108991999999999999999999MA1102101999999MW1101REMMET060METAR ETSI 151820Z 07004KT 2000 BR OVC004 M02/M02 Q1021 YLO;
0156108600999992009011604204+48717+011533FM-15+0365ETSI V0209999C000010001519N0001001N1-00801-00801999999ADDED199U03509GA1091+000151999GF109991999999000251999999MA1102301999999MW1491REMMET070METAR ETSI 160420Z 00000KT 0100 R25/0350 FZFG VV000 M08/M08 Q1023 RED;
0173108600999992009011605004+48717+011533FM-12+0365ETSI V0209999C000010001519N0001001N1-00871-00891102761ADDAY141999GA1091+000151999GF109991091999999999999999MA1999999098051MD1010031+9999MW1491REMSYN076AAXX  16051 10860 41/01 90000 11087 21089 39805 40276 50003 7494/ 333 89/00;
0160108600999992009011605204+48717+011533FM-15+0365ETSI V0209999C000010001519N0001001N1-00901-00901999999ADDED199U03509GA1091+000151999GF109991999999000251999999MA1102401999999MW1491REMMET074METAR ETSI 160520Z 00000KT 0100 R25/0350 FZFG VV000 M09/M09 Q1024 RED RED;
0160108600999992009011606204+48717+011533FM-15+0365ETSI V0200601N001510003019N0007001N1-00901-00901999999ADDED199U05509GA1091+000301999GF109991999999000251999999MA1102401999999MW1491REMMET074METAR ETSI 160620Z 06003KT 0700 R25/0550 FZFG VV001 M09/M09 Q1024 RED RED;
0229108600999992009011607004+48717+011533FM-12+0365ETSI V0200601N001010001519N0005001N1-00891-00901102871ADDAY141999AY241999GA1091+000151999GF109991091999999999999999MA1999999098151MD1310011+9999MW1491REMSYN124AAXX  16071 10860 41/05 90601 11089 21090 39815 40287 53001 74944 333 89/00 555 BOT 1//// 2//// 3//// 4//// 5//// 999 46///;
0160108600999992009011607204+48717+011533FM-15+0365ETSI V0200801N001010001519N0003001N1-00901-00901999999ADDED199U09009GA1091+000151999GF109991999999000251999999MA1102511999999MW1491REMMET074METAR ETSI 160720Z 08002KT 0300 R25/0900 FZFG VV000 M09/M09 Q1025 RED RED;
0160108600999992009011608204+48717+011533FM-15+0365ETSI V0200601N001010001519N0002001N1-00801-00901999999ADDED199U05009GA1091+000151999GF109991999999000251999999MA1102511999999MW1491REMMET074METAR ETSI 160820Z 06002KT 0200 R25/0500 FZFG VV000 M08/M09 Q1025 RED RED;
0170108600999992009011609204+48717+011533FM-15+0365ETSI V0200701N001010003019N0005001N1-00701-00701999999ADDED199U09009GA1091+000301999GF109991999999000251999999MA1102511999999MW1491REMMET084METAR ETSI 160920Z 07002KT 0500 R25/0900 FZFG VV001 M07/M07 Q1025 RED RED BECMG AMB;
0170108600999992009011609484+48717+011533FM-16+0365ETSI V0200201N001010003019N0009001N1-00601-00601999999ADDED199U05009GA1091+000301999GF109991999999000251999999MA1102511999999MW1491REMMET084SPECI ETSI 160948Z 02002KT 0900 R25/0500 FZFG VV001 M06/M06 Q1025 RED RED BECMG AMB;
0160108600999992009011609574+48717+011533FM-16+0365ETSI V0203601N001010006019N0009001N1-00601-00601999999ADDED199U14009GA1091+000601999GF109991999999000251999999MA1102511999999MW1491REMMET074SPECI ETSI 160957Z 36002KT 0900 R25/1400 FZFG VV002 M06/M06 Q1025 AMB AMB;
0181108600999992009011610004+48717+011533FM-12+0365ETSI V0200101N001010003019N0009001N1-00621-00621102921ADDAY141011AY241011GA1091+000301999GF109991091999999999999999MA1999999098241MD1210091+9999MW1491REMSYN076AAXX  16101 10860 41/09 90101 11062 21062 39824 40292 52009 74944 333 89/01;
0160108600999992009011610204+48717+011533FM-15+0365ETSI V0200301N001010006019N0009001N1-00601-00601999999ADDED199U08009GA1091+000601999GF109991999999000251999999MA1102511999999MW1491REMMET074METAR ETSI 161020Z 03002KT 0900 R25/0800 FZFG VV002 M06/M06 Q1025 AMB AMB;
0170108600999992009011610324+48717+011533FM-16+0365ETSI V0200401N001010003019N0004001N1-00601-00601999999ADDED199U05009GA1091+000301999GF109991999999000251999999MA1102511999999MW1491REMMET084SPECI ETSI 161032Z 04002KT 0400 R25/0500 FZFG VV001 M06/M06 Q1025 RED AMB TEMPO RED;
0187108600999992009011611004+48717+011533FM-12+0365ETSI V0200501N001010003019N0004001N1-00531-00531102841ADDAY141999AY241999GA1071+000301071GF107991071061000251999999MA1999999098181MD1810031+9999MW1481REMSYN082AAXX  16111 10860 41004 70501 11053 21053 39818 40284 58003 74844 876// 333 87701;
0171108600999992009011611014+48717+011533FM-16+0365ETSI V0200701N001010006019N0005001N1-00501-00501999999ADDED199U05009GA1071+000601999GF107991999999999999999999MA1102511999999MW1481REMMET085SPECI ETSI 161101Z 07002KT 0500 R25/0500 FZFG BKN002 M05/M05 Q1025 RED AMB TEMPO RED;
0171108600999992009011611204+48717+011533FM-15+0365ETSI V0200601N001510009019N0006001N1-00501-00501999999ADDED199U13009GA1071+000901999GF107991999999999999999999MA1102511999999MW1481REMMET085METAR ETSI 161120Z 06003KT 0600 R25/1300 FZFG BKN003 M05/M05 Q1025 RED AMB TEMPO RED;
0171108600999992009011611444+48717+011533FM-16+0365ETSI V0200501N001510012019N0008001N1-00501-00501999999ADDED199U13009GA1071+001201999GF107991999999999999999999MA1102511999999MW1481REMMET085SPECI ETSI 161144Z 05003KT 0800 R25/1300 FZFG BKN004 M05/M05 Q1025 AMB AMB TEMPO RED;
0167108600999992009011612004+48717+011533FM-16+0365ETSI V0200401N001010012019N0011001N1-00501-00501999999ADDED199U14009GA1071+001201999GF107991999999999999999999MA1102511999999MW1101REMMET081SPECI ETSI 161200Z 04002KT 1100 R25/1400 BR BKN004 M05/M05 Q1025 AMB FCST CANCEL;
0155108600999992009011612204+48717+011533FM-15+0365ETSI V0200301N001510012019N0011001N1-00401-00501999999ADDED199U14009GA1071+001201999GF107991999999999999999999MA1102401999999MW1101REMMET069METAR ETSI 161220Z 03003KT 1100 R25/1400 BR BKN004 M04/M05 Q1024 AMB;
0187108600999992009011613004+48717+011533FM-12+0365ETSI V0200101N001010012019N0011001N1-00401-00461102781ADDAY141999AY221999GA1071+001201071GF107991071061001501999999MA1999999098151MD1810081+9999MW1281REMSYN082AAXX  16131 10860 41211 70101 11040 21046 39815 40278 58008 72842 876// 333 87704;
0155108600999992009011613204+48717+011533FM-15+0365ETSI V0200201N001510015019N0013001N1-00401-00501999999ADDED199U16009GA1071+001501999GF107991999999999999999999MA1102401999999MW1101REMMET069METAR ETSI 161320Z 02003KT 1300 R25/1600 BR BKN005 M04/M05 Q1024 AMB;
0229108600999992009011614004+48717+011533FM-12+0365ETSI V0200301N001010012019N0013001N1-00351-00361102731ADDAY121999AY221999GA1071+001201071GF107991071061001501999999MA1999999098111MD1710071+9999MW1101REMSYN124AAXX  16141 10860 41213 70301 11035 21036 39811 40273 57007 71022 876// 333 87704 555 BOT 1//// 2//// 3//// 4//// 999 46///;
0155108600999992009011614204+48717+011533FM-15+0365ETSI V0200601N001010012019N0013001N1-00301-00301999999ADDED199U16009GA1081+001201999GF108991999999999999999999MA1102401999999MW1101REMMET069METAR ETSI 161420Z 06002KT 1300 R25/1600 BR OVC004 M03/M03 Q1024 AMB;
0155108600999992009011615204+48717+011533FM-15+0365ETSI V0203601N001010015019N0015001N1-00301-00301999999ADDED199U18009GA1081+001501999GF108991999999999999999999MA1102401999999MW1101REMMET069METAR ETSI 161520Z 36002KT 1500 R25/1800 BR OVC005 M03/M03 Q1024 AMB;
0187108600999992009011616004+48717+011533FM-12+0365ETSI V0202701N001010015019N0015001N1-00301-00341102751ADDAY121999AY221999GA1081+001501071GF108991081061001501999999MA1999999098141MD1510011+9999MW1101REMSYN082AAXX  16161 10860 41215 82701 11030 21034 39814 40275 55001 71022 886// 333 88705;
0155108600999992009011616204+48717+011533FM-15+0365ETSI V0209999C000010015019N0018001N1-00301-00301999999ADDED199U35009GA1081+001501999GF108991999999999999999999MA1102401999999MW1101REMMET069METAR ETSI 161620Z 00000KT 1800 R25/3500 BR OVC005 M03/M03 Q1024 YLO;
0187108600999992009011617004+48717+011533FM-12+0365ETSI V0209999V001010012019N0020001N1-00291-00341102761ADDAY121999AY221999GA1081+001201071GF108991081061001501999999MA1999999098151MD1310041+9999MW1101REMSYN082AAXX  16171 10860 41220 89901 11029 21034 39815 40276 53004 71022 886// 333 88704;
0135108600999992009011617204+48717+011533FM-15+0365ETSI V0209999C000010012019N0020001N1-00301-00301999999ADDGA1081+001201999GF108991999999999999999999MA1102511999999MW1101REMMET060METAR ETSI 161720Z 00000KT 2000 BR OVC004 M03/M03 Q1025 YLO;
0136108600999992009011705204+48717+011533FM-15+0365ETSI V0209999V001010009019N0007001N1-00401-00401999999ADDGA1091+000901999GF109991999999000251999999MA1102301999999MW1491REMMET061METAR ETSI 170520Z VRB02KT 0700 FZFG VV003 M04/M04 Q1023 RED;
0158108600999992009011712204+48717+011533FM-15+0365ETSI V0209999C000010480019N0050001N1+00001-00101999999ADDGA1041+030001999GA2071+048001999GF107991999999999999999999MA1102101999999MW1101REMMET067METAR ETSI 171220Z 00000KT 5000 BR SCT100 BKN160 M00/M01 Q1021 WHT;
0171108600999992009011713204+48717+011533FM-15+0365ETSI V0203601N001010330019N0060001N1+00001-00101999999ADDGA1021+027001999GA2071+033001999GA3071+063001999GF107991999999999999999999MA1102101999999REMMET070METAR ETSI 171320Z 36002KT 6000 FEW090 BKN110 BKN210 00/M01 Q1021 WHT;
0171108600999992009011714204+48717+011533FM-15+0365ETSI V0200101N00101033001CN0060001N1+00101-00201999999ADDGA1021+027001999GA2041+033001999GA3071+042001999GF107991999999999999999999MA1102101999999REMMET070METAR ETSI 171420Z 01002KT 6000 FEW090 SCT110 BKN140 01/M02 Q1021 WHT;
0150108600999992009011809204+48717+011533FM-15+0365ETSI V0200301N001510630019N0112651N1-00101-00201999999ADDGA1041+051001999GA2071+063001999GF107991999999999999999999MA1100911999999REMMET065METAR ETSI 180920Z 03003KT 9999 SCT170 BKN210 M01/M02 Q1009 BLU/;
0149108600999992009011810204+48717+011533FM-15+0365ETSI V0200701N002110630019N0112651N1+00001-00101999999ADDGA1041+051001999GA2071+063001999GF107991999999999999999999MA1100911999999REMMET064METAR ETSI 181020Z 07004KT 9999 SCT170 BKN210 00/M01 Q1009 BLU/;
0157108600999992009011816204+48717+011533FM-15+0365ETSI V0202201N001510090019N0080001N1+00201+00101999999ADDGA1021+006001999GA2071+009001999GF107991999999999999999999MA1100411999999MW1611REMMET066METAR ETSI 181620Z 22003KT 8000 -RA FEW020 BKN030 02/01 Q1004 BLU;
0147108600999992009011821204+48717+011533FM-15+0365ETSI V0202501N004110105019N0112651N1+00401+00101999999ADDGA1021+007501999GA2071+010501999GF107991999999999999999999MA1100811999999REMMET062METAR ETSI 182120Z 25008KT 9999 FEW025 BKN035 04/01 Q1008 BLU;
0147108600999992009011822204+48717+011533FM-15+0365ETSI V0202701N006210105019N0112651N1+00301+00101999999ADDGA1021+007501999GA2071+010501999GF107991999999999999999999MA1101021999999REMMET062METAR ETSI 182220Z 27012KT 9999 FEW025 BKN035 03/01 Q1010 BLU;
0127108600999992009011904204+48717+011533FM-15+0365ETSI V0202001N001512200019N0112651N1+00001-00201999999ADDGA1021+057001999GF102991999999999999999999MA1100811999999REMMET058METAR ETSI 190420Z 20003KT 9999 FEW190 M00/M02 Q1008 BLU/;
0159108600999992009011905004+48717+011533FM-12+0365ETSI V0202001N002012200019N0200001N1-00101-00171101081ADDGA1011+057001001GF101991001001999999001011MA1999999096571MD1710261+9999REMSYN076AAXX  19051 10860 43970 12002 11010 21017 39657 40108 57026 80001 333 81069;
0131108600999992009011905204+48717+011533FM-15+0365ETSI V0200701N001012200019N0112651N1-00201-00201999999ADDGA1021+066001999GF102991999999999999999999MA1100811999999REMMET062METAR ETSI 190520Z 07002KT 9999 FEW220 M02/M02 Q1008 BLU/BLU/;
0142108600999992009011906204+48717+011533FM-15+0365ETSI V0201001N001512200019N0112651N1-00201-00201999999ADDGA1041+057001999GF104991999999999999999999MA1100811999999OC100721REMMET065METAR ETSI 190620Z 10003G14KT 9999 SCT190 M02/M02 Q1008 BLU/BLU/;
0153108600999992009011907204+48717+011533FM-15+0365ETSI V0200901N001510570019N0112651N1-00101-00101999999ADDGA1041+045001999GA2071+057001999GF107991999999999999999999MA1100611999999REMMET068METAR ETSI 190720Z 09003KT 9999 SCT150 BKN190 M01/M01 Q1006 BLU BLU;
0158108600999992009011907554+48717+011533FM-16+0365ETSI V0200701N002110570019N0112651N1+00001+00001999999ADDGA1021+045001999GA2071+057001999GF107991999999999999999999MA1100611999999REMMET073SPECI ETSI 190755Z 07004KT 9999 FEW150 BKN190 M00/M00 Q1006 BLACKBLU BLU;
0165108600999992009011908004+48717+011533FM-12+0365ETSI V0200701N002019999999N0250001N1-00031-00081100821ADDGA1021+045001031GF106991021001999999031011MA1999999096341MD1710231+9999REMSYN082AAXX  19081 10860 42975 60702 11003 21008 39634 40082 57023 82031 333 82365 86069;
0169108600999992009011908204+48717+011533FM-15+0365ETSI V0200701N002610630019N0112651N1+00101+00001999999ADDGA1041+045001999GA2071+063001999GF107991999999999999999999MA1100511999999REMMET084METAR ETSI 190820Z 07005KT 9999 SCT150 BKN210 01/M00 Q1005 BLACKBLU/ BLU/ TEMPO BLU;
0190108600999992009011909204+48717+011533FM-15+0365ETSI V0200801N002110150019N0112651N1+00201+00001999999ADDGA1071+015001999GA2071+024001999GA3071+036001999GF107991999999999999999999MA1100411999999REMMET089METAR ETSI 190920Z 08004KT 9999 BKN050 BKN080 BKN120 02/00 Q1004 BLACKBLU BLU/ TEMPO BLU;
0185108600999992009011909354+48717+011533FM-16+0365ETSI V0201201N002110135019N0112651N1+00201+00001999999ADDGA1071+013501999GA2071+021001999GA3071+030001999GF107991999999999999999999MA1100311999999REMMET084SPECI ETSI 190935Z 12004KT 9999 BKN045 BKN070 BKN100 02/00 Q1003 BLU BLU/ TEMPO BLU;
0187108600999992009011910004+48717+011533FM-12+0365ETSI V0201001N001010210019N0250001N1+00271+00041100501ADDGA1041+013501061GA2051+021001031GF107991041051012501071999MA1999999096081MD1710451+9999REMSYN088AAXX  19101 10860 42675 71001 10027 20004 39608 40050 57045 8457/ 333 84645 85357 87360;
0185108600999992009011910204+48717+011533FM-15+0365ETSI V0201301N002110135019N0112651N1+00401+00001999999ADDGA1041+007501999GA2071+013501999GA3071+021001999GF107991999999999999999999MA1100201999999REMMET084METAR ETSI 191020Z 13004KT 9999 SCT025 BKN045 BKN070 04/00 Q1002 BLU BLU/ TEMPO BLU;
0215108600999992009011911004+48717+011533FM-12+0365ETSI V0201201N002010135019N0300001N1+00391+00031100331ADDAY121999AY221999GA1031+007501061GA2051+013501061GF107991061051008001031999MA1999999095941MD1710401+9999MW1211REMSYN094AAXX  19111 10860 41580 71202 10039 20003 39594 40033 57040 72122 8653/ 333 83625 85645 87358;
0186108600999992009011911204+48717+011533FM-15+0365ETSI V0201701N001510120019N0112651N1+00501+00001999999ADDGA1041+006001999GA2071+012001999GA3071+024001999GF107991999999999999999999MA1100101999999REMMET085METAR ETSI 191120Z 17003KT 9999 SCT020 BKN040 BKN080 05/M00 Q1001 BLU BLU/ TEMPO BLU;
0194108600999992009011912204+48717+011533FM-15+0365ETSI V0201501N00261004501CN0112651N1+00401+00001999999ADDGA1021+003001999GA2041+004501999GA3081+006901999GF108991999999999999999999MA1100001999999MW1611REMMET087METAR ETSI 191220Z 15005KT 9999 -RA FEW010 SCT015 OVC023 04/00 Q1000 WHT BLU TEMPO WHT;
0215108600999992009011913004+48717+011533FM-12+0365ETSI V0201501N00201004201CN0100001N1+00351+00191100141ADDAY161999AY261999GA1011+003001071GA2031+004501061GF108991081051004501999999MA1999999095751MD1710331+9999MW1611REMSYN094AAXX  19131 10860 41460 81502 10035 20019 39575 40014 57033 76166 885// 333 81710 83615 88623;
0199108600999992009011913204+48717+011533FM-15+0365ETSI V0201001N00151009001CN0112651N1+00301+00201999999ADDGA1021+006001999GA2041+009001999GA3071+013501999GF107991999999999999999999MA1099901999999MW1611REMMET092METAR ETSI 191320Z 10003KT 9999 -RA FEW020 SCT030 BKN045 03/02 Q0999 RERA BLU BLU TEMPO WHT;
0279108600999992009011914004+48717+011533FM-12+0365ETSI V0200801N002010135019N0100001N1+00321+00211100001ADDAY161999AY261999GA1011+006001081GA2031+009001061GA3071+013501061GF107991071081008001999999MA1999999095611MD1710331+9999MW1611REMSYN142AAXX  19141 10860 41560 70802 10032 20021 39561 40000 57033 76166 878// 333 81820 83630 87645 555 BOT 11007 21007 31005 40007 999 34/// 41///;
0194108600999992009011914204+48717+011533FM-15+0365ETSI V0200701N00261009001CN0112651N1+00301+00201999999ADDGA1021+006001999GA2041+009001999GA3071+013501999GF107991999999999999999999MA1099801999999MW1611REMMET087METAR ETSI 191420Z 07005KT 9999 -RA FEW020 SCT030 BKN045 03/02 Q0998 BLU BLU TEMPO WHT;
0194108600999992009011915204+48717+011533FM-15+0365ETSI V0200201N001510135019N0090001N1+00301+00201999999ADDGA1021+006001999GA2071+013501999GA3071+018001999GF107991999999999999999999MA1099701999999MW1611REMMET087METAR ETSI 191520Z 02003KT 9000 -RA FEW020 BKN045 BKN060 03/02 Q0997 BLU BLU TEMPO WHT;
0215108600999992009011916004+48717+011533FM-12+0365ETSI V0200901N001010135019N0090001N1+00251+00141099911ADDAY161999AY221999GA1011+006001081GA2051+013501061GF107991071081008001999999MA1999999095511MD1710241+9999MW1211REMSYN094AAXX  19161 10860 41559 70901 10025 20014 39551 49991 57024 72162 878// 333 81820 85645 87656;
0192108600999992009011916204+48717+011533FM-15+0365ETSI V0201301N001510090019N0112651N1+00301+00201999999ADDGA1021+006001999GA2071+009001999GA3071+015001999GF107991999999999999999999MA1099701999999MW1611REMMET085METAR ETSI 191620Z 13003KT 9999 -RA FEW020 BKN030 BKN050 03/02 Q0997 BLU FCST CANCEL;
0215108600999992009011917004+48717+011533FM-12+0365ETSI V0200301N00101009001CN0100001N1+00231+00201099931ADDAY161999AY221999GA1011+003001081GA2031+009001061GF107991071081004501999999MA1999999095531MD1510081+9999MW1611REMSYN094AAXX  19171 10860 41460 70301 10023 20020 39553 49993 55008 76162 878// 333 81810 83630 87650;
0147108600999992009011917204+48717+011533FM-15+0365ETSI V0200701N001010300019N0112651N1+00201+00201999999ADDGA1041+013501999GA2071+030001999GF107991999999999999999999MA1099701999999REMMET062METAR ETSI 191720Z 07002KT 9999 SCT045 BKN100 02/02 Q0997 BLU;
0147108600999992009011918204+48717+011533FM-15+0365ETSI V0200801N001510300019N0112651N1+00201+00201999999ADDGA1021+015001999GA2071+030001999GF107991999999999999999999MA1099701999999REMMET062METAR ETSI 191820Z 08003KT 9999 FEW050 BKN100 02/02 Q0997 BLU;
0156108600999992009012004204+48717+011533FM-15+0365ETSI V0202401N002610054019N0080001N1+00401+00401999999ADDGA1021+004201999GA2081+005401999GF108991999999999999999999MA1099701999999MW1631REMMET065METAR ETSI 200420Z 24005KT 8000 RA FEW014 OVC018 04/04 Q0997 WHT;
0156108600999992009012004494+48717+011533FM-16+0365ETSI V0202501N002610036019N0080001N1+00401+00401999999ADDGA1071+003601999GA2081+005401999GF108991999999999999999999MA1099701999999MW1631REMMET065SPECI ETSI 200449Z 25005KT 8000 RA BKN012 OVC018 04/04 Q0997 GRN;
0185108600999992009012005004+48717+011533FM-12+0365ETSI V0202501N003010036019N0080001N1+00431+00381099891ADDAY161999GA1051+003601061GF108991081051004501999999MA1999999095521MD1310121+9999MW1631REMSYN088AAXX  20051 10860 41458 82503 10043 20038 39552 49989 53012 7636/ 885// 333 85612 88618;
0170108600999992009012005204+48717+011533FM-15+0365ETSI V0203001N003110036019N0090001N1+00401+00401999999ADDGA1071+003601999GA2081+005401999GF108991999999999999999999MA1099701999999MW1631REMMET079METAR ETSI 200520Z 30006KT 9000 RA BKN012 OVC018 04/04 Q0997 GRN WHT TEMPO GRN;
0161108600999992009012006004+48717+011533FM-15+0365ETSI V0202301N001010054019N0112651N1+00301+00301999999ADDGA1041+003601999GA2081+005401999GF108991999999999999999999MA1099701999999REMMET076SPECI ETSI 200555Z 23002KT 9999 SCT012 OVC018 03/03 Q0997 WHT WHT TEMPO GRN;
0199108600999992009012006204+48717+011533FM-15+0365ETSI V0201701N001510105019N0112651N1+00301+00301999999ADDGA1021+003601999GA2071+010501999GA3071+018001999GF107991999999999999999999MA1099801999999MW1611REMMET092METAR ETSI 200620Z 17003KT 9999 -RA FEW012 BKN035 BKN060 03/03 Q0998 RERA BLU WHT TEMPO GRN;
0279108600999992009012007004+48717+011533FM-12+0365ETSI V0201901N002010105019N0180001N1+00251+00251099991ADDAY161999AY221999GA1011+005401061GA2051+010501061GA3071+018001061GF108991071051004501999999MA1999999095591MD1210151+9999MW1601REMSYN142AAXX  20071 10860 41468 81902 10025 20025 39559 49999 52015 76062 875// 333 81618 85635 87656 555 BOT 11005 21005 31003 40006 50027 999 34///;
0193108600999992009012007204+48717+011533FM-15+0365ETSI V0202201N001010045019N0090001N1+00301+00301999999ADDGA1021+003001999GA2071+004501999GA3071+009001999GF107991999999999999999999MA1099801999999MW1631REMMET086METAR ETSI 200720Z 22002KT 9000 RA FEW010 BKN015 BKN030 03/03 Q0998 WHT WHT TEMPO GRN;
0215108600999992009012008004+48717+011533FM-12+0365ETSI V0202101N001010045019N0090001N1+00331+00271100031ADDAY161999AY261999GA1011+003001071GA2061+004501061GF108991081051004501999999MA1999999095641MD1210121+9999MW1631REMSYN094AAXX  20081 10860 41459 82101 10033 20027 39564 40003 52012 76366 885// 333 81710 86615 88620;
0199108600999992009012008204+48717+011533FM-15+0365ETSI V0201901N002110051019N0112651N1+00301+00301999999ADDGA1021+003601999GA2071+005101999GA3081+007201999GF108991999999999999999999MA1099901999999MW1611REMMET092METAR ETSI 200820Z 19004KT 9999 -RA FEW012 BKN017 OVC024 03/03 Q0999 RERA WHT WHT TEMPO GRN;
0202108600999992009012009204+48717+011533FM-15+0365ETSI V0201801N002110045019N0112651N1+00301+00201999999ADDGA1021+003001999GA2071+004501999GA3081+010501999GF108991999999999999999999MA1100001999999MW1511MW2611REMMET089METAR ETSI 200920Z 18004KT 9999 -RADZ FEW010 BKN015 OVC035 03/02 Q1000 WHT BLU TEMPO WHT;
0215108600999992009012010004+48717+011533FM-12+0365ETSI V0201801N00201004201CN0250001N1+00301+00241100181ADDAY161999AY261999GA1011+003001071GA2031+004501061GF108991081051004501999999MA1999999095781MD1210191+9999MW1211REMSYN094AAXX  20101 10860 41475 81802 10030 20024 39578 40018 52019 72166 885// 333 81710 83615 88645;
0184108600999992009012010204+48717+011533FM-15+0365ETSI V0201901N00151004501CN0112651N1+00301+00201999999ADDGA1021+003001999GA2041+004501999GA3081+012001999GF108991999999999999999999MA1100001999999REMMET083METAR ETSI 201020Z 19003KT 9999 FEW010 SCT015 OVC040 03/02 Q1000 BLU BLU TEMPO WHT;
0165108600999992009012011004+48717+011533FM-12+0365ETSI V0201701N00201004201CN0350001N1+00281+00221100161ADDGA1011+003001071GF108991081051004501999999MA1999999095761MD1010121+9999REMSYN082AAXX  20111 10860 42481 81702 10028 20022 39576 40016 50012 885// 333 81710 88637;
0161108600999992009012011204+48717+011533FM-15+0365ETSI V0201601N001010096019N0112651N1+00301+00301999999ADDGA1021+003001999GA2081+009601999GF108991999999999999999999MA1100001999999REMMET076METAR ETSI 201120Z 16002KT 9999 FEW010 OVC032 03/03 Q1000 BLU BLU TEMPO WHT;
0194108600999992009012012204+48717+011533FM-15+0365ETSI V0202101N002110081019N0112651N1+00301+00201999999ADDGA1021+003001999GA2071+008101999GA3071+012001999GF107991999999999999999999MA1100001999999MW1611REMMET087METAR ETSI 201220Z 21004KT 9999 -RA FEW010 BKN027 BKN040 03/02 Q1000 BLU BLU TEMPO WHT;
0215108600999992009012013004+48717+011533FM-12+0365ETSI V0201601N002010081019N0250001N1+00311+00251100181ADDAY161999AY261999GA1011+004501071GA2051+008101061GF108991081051004501999999MA1999999095781MD1510001+9999MW1211REMSYN094AAXX  20131 10860 41475 81602 10031 20025 39578 40018 55000 72166 885// 333 81715 85627 87645;
0184108600999992009012013204+48717+011533FM-15+0365ETSI V0201701N001510105019N0112651N1+00301+00301999999ADDGA1021+006001999GA2071+010501999GA3071+015001999GF107991999999999999999999MA1100001999999REMMET083METAR ETSI 201320Z 17003KT 9999 FEW020 BKN035 BKN050 03/03 Q1000 BLU BLU TEMPO WHT;
0273108600999992009012014004+48717+011533FM-12+0365ETSI V0201901N002010096019N0200001N1+00291+00261100231ADDAY121999AY221999GA1031+006001061GA2051+009601061GA3071+015001061GF108991081051008001999999MA1999999095831MD1210071+9999MW1611REMSYN136AAXX  20141 10860 41570 81902 10029 20026 39583 40023 52007 76122 885// 333 83620 85632 87650 555 BOT 11003 21003 30000 40007 999 32///;
0184108600999992009012014204+48717+011533FM-15+0365ETSI V0201601N001510075019N0112651N1+00301+00301999999ADDGA1041+005101999GA2071+007501999GA3071+027001999GF107991999999999999999999MA1100001999999REMMET083METAR ETSI 201420Z 16003KT 9999 SCT017 BKN025 BKN090 03/03 Q1000 BLU BLU TEMPO WHT;
0184108600999992009012015204+48717+011533FM-15+0365ETSI V0201501N001510075019N0112651N1+00201+00201999999ADDGA1041+004801999GA2071+007501999GA3071+015001999GF107991999999999999999999MA1100101999999REMMET083METAR ETSI 201520Z 15003KT 9999 SCT016 BKN025 BKN050 02/02 Q1001 BLU BLU TEMPO WHT;
0322108600999992009012016004+48717+011533SY-MT+0365ETSI V0201501N002010048019N0180001N1+00201+00151100291ADDAY161999AY261999GA1021+001801999GA2041+004801999GA3071+015001999GF108991071051004501999999MA1100101095871MD1210091+9999MW1611REMSYN094AAXX  20161 10860 41468 81502 10020 20015 39587 40029 52009 76166 875// 333 81710 84616 85625;MET085SPECI ETSI 201600Z 15003KT 9999 -RA FEW006 SCT016 BKN050 02/02 Q1001 BLU FCST CANCEL;
0157108600999992009012016204+48717+011533FM-15+0365ETSI V0201401N001510132019N0112651N1+00201+00201999999ADDGA1021+001801999GA2071+013201999GF107991999999999999999999MA1100101999999MW1611REMMET066METAR ETSI 201620Z 14003KT 9999 -RA FEW006 BKN044 02/02 Q1001 BLU;
0215108600999992009012017004+48717+011533FM-12+0365ETSI V0201501N002010105019N0150001N1+00161+00161100311ADDAY161999AY261999GA1011+002401071GA2051+010501061GF107991061051002501031999MA1999999095881MD1210051+9999MW1611REMSYN094AAXX  20171 10860 41365 71502 10016 20016 39588 40031 52005 76166 8653/ 333 81708 85635 87358;
0170108600999992009012017204+48717+011533FM-15+0365ETSI V0201201N00051010501CN0112651N1+00101+00101999999ADDGA1021+003001999GA2041+010501999GA3071+021001999GF107991999999999999999999MA1100101999999REMMET069METAR ETSI 201720Z 12001KT 9999 FEW010 SCT035 BKN070 01/01 Q1001 BLU;
0170108600999992009012104204+48717+011533FM-15+0365ETSI V0202301N001010042019N0070001N1+00101+00101999999ADDGA1071+004201999GA2041+007501999GA3071+009001999GF107991999999999999999999MA1100311999999REMMET069METAR ETSI 210420Z 23002KT 7000 BKN014 SCT025 BKN030 01/01 Q1003 GRN;
0179108600999992009012104344+48717+011533FM-16+0365ETSI V0202601N001010045019N0045001N1+00101+00101999999ADDGA1071+004501999GA2041+007501999GA3071+009001999GF107991999999999999999999MA1100311999999MW1101REMMET072SPECI ETSI 210434Z 26002KT 4500 BR BKN015 SCT025 BKN030 01/01 Q1003 GRN;
0207108600999992009012105004+48717+011533FM-12+0365ETSI V0202501N002010075019N0040001N1+00051+00051100551ADDAY121999GA1031+004501061GA2031+007501061GF108991081051004501999999MA1999999096091MD1310021+9999MW1601REMSYN094AAXX  21051 10860 41440 82502 10005 20005 39609 40055 53002 7602/ 885// 333 83615 83625 88635;
0181108600999992009012105204+48717+011533FM-15+0365ETSI V0201901N001010045019N0035001N1+00101+00101999999ADDGA1021+003001999GA2081+004501999GF108991999999999999999999MA1100311999999MW1101MW2671REMMET084METAR ETSI 210520Z 19002KT 3500 FZRA BR FEW010 OVC015 01/01 Q1003 YLO WHT TEMPO YLO;
0195108600999992009012105424+48717+011533FM-16+0365ETSI V0202401N000510045019N0030001N1+00101+00101999999ADDGA1041+001801999GA2081+004501999GF108991999999999999999999MA1100411999999MW1101MW2611MW3711REMMET092SPECI ETSI 210542Z 24001KT 3000 -SNRA BR SCT006 OVC015 01/01 Q1004 REFZRA YLO WHT TEMPO YLO;
0218108600999992009012106204+48717+011533FM-15+0365ETSI V0202501N001510021019N0025001N1+00001+00001999999ADDGA1021+000601999GA2071+002101999GA3081+003001999GF108991999999999999999999MA1100411999999MW1101MW2611MW3711REMMET099METAR ETSI 210620Z 25003KT 2500 -SNRA BR FEW002 BKN007 OVC010 00/00 Q1004 REFZRA YLO WHT TEMPO YLO;
0236108600999992009012106434+48717+011533FM-16+0365ETSI V0202601N00261002101CN0020001N1+00101+00101999999ADDED199U19009GA1041+000601999GA2041+002101999GA3081+003901999GF108991999999999999999999MA1100411999999MW1101MW2611MW3711REMMET106SPECI ETSI 210643Z 26005KT 2000 R25/1900 -SNRA BR SCT002 SCT007 OVC013 01/01 Q1004 BLACKYLO WHT TEMPO YLO;
0279108600999992009012107004+48717+011533FM-12+0365ETSI V0202601N003010021019N0020001N1+00051+00051100661ADDAY171999AY271999GA1031+000601071GA2031+002101061GA3081+003901061GF108991081051000751999999MA1999999096201MD1310111+9999MW1681REMSYN142AAXX  21071 10860 41120 82603 10005 20005 39620 40066 53011 76877 885// 333 83702 83607 88613 555 BOT 11004 21004 31002 40007 50028 999 42///;
0189108600999992009012107014+48717+011533FM-16+0365ETSI V0202701N002110009019N0016001N1+00001+00001999999ADDED199U16009GA1091+000901999GF109991999999000251999999MA1100411999999MW1101MW2611MW3711REMMET091SPECI ETSI 210701Z 27004KT 1600 R25/1600 -SNRA BR VV003 00/00 Q1004 BLACKYLO WHT TEMPO YLO;
0228108600999992009012107204+48717+011533FM-15+0365ETSI V0202801N002610021019N0016001N1+00101+00101999999ADDED199U12009GA1041+000901999GA2071+002101999GA3081+003901999GF108991999999999999999999MA1100511999999MW1101MW2711REMMET104METAR ETSI 210720Z 28005KT 1600 R25/1200 -SN BR SCT003 BKN007 OVC013 01/01 Q1005 BLACKYLO WHT TEMPO YLO;
0215108600999992009012108004+48717+011533FM-12+0365ETSI V0202701N002010021019N0016001N1+00051+00051100741ADDAY171999AY271999GA1031+000901071GA2051+002101061GF108991081051000751999999MA1999999096271MD1210181+9999MW1711REMSYN094AAXX  21081 10860 41116 82702 10005 20005 39627 40074 52018 77177 885// 333 83703 85607 88613;
0228108600999992009012108204+48717+011533FM-15+0365ETSI V0202701N00211002101CN0016001N1+00101+00101999999ADDED199U15009GA1041+000901999GA2041+002101999GA3081+006001999GF108991999999999999999999MA1100511999999MW1101MW2711REMMET104METAR ETSI 210820Z 27004KT 1600 R25/1500 -SN BR SCT003 SCT007 OVC020 01/01 Q1005 BLACKYLO WHT TEMPO YLO;
0218108600999992009012109204+48717+011533FM-15+0365ETSI V0202601N00211002101CN0016001N1+00101+00101999999ADDED199U13009GA1041+000901999GA2041+002101999GA3081+003001999GF108991999999999999999999MA1100611999999MW1101MW2711REMMET094METAR ETSI 210920Z 26004KT 1600 R25/1300 -SN BR SCT003 SCT007 OVC010 01/01 Q1006 BLACKYLO YLO;
0215108600999992009012110004+48717+011533FM-12+0365ETSI V0202601N003010021019N0016001N1+00061+00051100871ADDAY171999AY271999GA1031+000901071GA2031+002101061GF108991081051000751999999MA1999999096401MD1210201+9999MW1731REMSYN094AAXX  21101 10860 41116 82603 10006 20005 39640 40087 52020 77377 885// 333 83703 83607 88610;
0217108600999992009012110204+48717+011533FM-15+0365ETSI V0202801N00261002101CN0012001N1+00101+00101999999ADDED199U09009GA1041+000901999GA2041+002101999GA3081+003001999GF108991999999999999999999MA1100711999999MW1101MW2731REMMET093METAR ETSI 211020Z 28005KT 1200 R25/0900 SN BR SCT003 SCT007 OVC010 01/01 Q1007 BLACKAMB YLO;
0193108600999992009012111004+48717+011533FM-12+0365ETSI V0202801N003010009019N0012001N1+00081+00071100881ADDAY171999AY271999GA1051+000901071GF108991071051000751999999MA1999999096411MD1110141+9999MW1731REMSYN088AAXX  21111 10860 41112 82803 10008 20007 39641 40088 51014 77377 875// 333 85703 87607;
0203108600999992009012111204+48717+011533FM-15+0365ETSI V0202801N00261002101CN0025001N1+00101+00101999999ADDGA1021+000901999GA2041+002101999GA3081+004801999GF108991999999999999999999MA1100711999999MW1101MW2511REMMET090METAR ETSI 211120Z 28005KT 2500 -DZ BR FEW003 SCT007 OVC016 01/01 Q1007 RESN BLACKYLO YLO;
0165108600999992009012111344+48717+011533FM-16+0365ETSI V0202701N003110012019N0025001N1+00101+00101999999ADDGA1071+001201999GA2081+004801999GF108991999999999999999999MA1100611999999MW1101REMMET074SPECI ETSI 211134Z 27006KT 2500 BR BKN004 OVC016 01/01 Q1006 BLACKYLO YLO;
0160108600999992009012112174+48717+011533FM-16+0365ETSI V0202601N002610012019N0025001N1+00101+00101999999ADDGA1071+001201999GA2081+007201999GF108991999999999999999999MA1100711999999MW1101REMMET069SPECI ETSI 211217Z 26005KT 2500 BR BKN004 OVC024 01/01 Q1007 YLO YLO;
0170108600999992009012112204+48717+011533FM-15+0365ETSI V0202601N002610012019N0025001N1+00101+00101999999ADDGA1071+001201999GA2081+007201999GF108991999999999999999999MA1100711999999MW1101REMMET079METAR ETSI 211220Z 26005KT 2500 BR BKN004 OVC024 01/01 Q1007 YLO YLO TEMPO AMB;
0193108600999992009012112344+48717+011533FM-16+0365ETSI V0202601N003110018019N0025001N1+00101+00101999999ADDGA1041+001201999GA2071+001801999GA3081+007201999GF108991999999999999999999MA1100711999999MW1101REMMET086SPECI ETSI 211234Z 26006KT 2500 BR SCT004 BKN006 OVC024 01/01 Q1007 YLO YLO TEMPO AMB;
0215108600999992009012113004+48717+011533FM-12+0365ETSI V0202601N003010027019N0025001N1+00121+00111100911ADDAY121999AY221999GA1031+001501071GA2061+002701061GF108991081051001501999999MA1999999096451MD1310051+9999MW1101REMSYN094AAXX  21131 10860 41225 82603 10012 20011 39645 40091 53005 71022 885// 333 83705 86609 88625;
0180108600999992009012113204+48717+011533FM-15+0365ETSI V0202601N003610027019N0020001N1+00101+00101999999ADDGA1041+001501999GA2081+002701999GF108991999999999999999999MA1100711999999MW1101MW2711REMMET083METAR ETSI 211320Z 26007KT 2000 -SN BR SCT005 OVC009 01/01 Q1007 YLO YLO TEMPO AMB;
0264108600999992009012114004+48717+011533FM-12+0365ETSI V0202601N004010021019N0016001N1+00141+00121100941ADDAY171999AY221999GA1031+001201071GA2081+002101061GF108991081051001501999999MA1999999096481MD1310071+9999REMSYN130AAXX  21141 10860 41216 82604 10014 20012 39648 40094 53007 77872 885// 333 83704 88607 555 BOT 11003 21003 31001 40007 999 42///;EQDQ01+000782PRSWM1
0223108600999992009012114204+48717+011533FM-15+0365ETSI V0202601N003610015019N0018001N1+00101+00101999999ADDED199U18009GA1021+001201999GA2071+001501999GA3081+004201999GF108991999999999999999999MA1100711999999MW1101MW2511REMMET099METAR ETSI 211420Z 26007KT 1800 R25/1800 -DZ BR FEW004 BKN005 OVC014 01/01 Q1007 YLO YLO TEMPO AMB;
0223108600999992009012114474+48717+011533FM-16+0365ETSI V0202601N00361001801CN0018001N1+00101+00101999999ADDED199U21009GA1021+000901999GA2041+001801999GA3081+006301999GF108991999999999999999999MA1100811999999MW1101MW2711REMMET099SPECI ETSI 211447Z 26007KT 1800 R25/2100 -SN BR FEW003 SCT006 OVC021 01/01 Q1008 YLO YLO TEMPO AMB;
0223108600999992009012115204+48717+011533FM-15+0365ETSI V0202601N003110030019N0018001N1+00101+00101999999ADDED199U23009GA1021+000901999GA2071+003001999GA3081+008401999GF108991999999999999999999MA1100811999999MW1101MW2711REMMET099METAR ETSI 211520Z 26006KT 1800 R25/2300 -SN BR FEW003 BKN010 OVC028 01/01 Q1008 YLO YLO TEMPO AMB;
0177108600999992009012115494+48717+011533FM-16+0365ETSI V0202501N002110009019N0018001N1+00101+00101999999ADDED199U23009GA1071+000901999GF107991999999999999999999MA1100811999999MW1101MW2711REMMET085SPECI ETSI 211549Z 25004KT 1800 R25/2300 -SN BR BKN003 01/01 Q1008 YLO YLO TEMPO AMB;
0187108600999992009012116004+48717+011533FM-12+0365ETSI V0202501N002010009019N0018001N1+00101+00081101051ADDAY171999AY271999GA1071+000901071GF108991071061000751999999MA1999999096581MD1210131+9999MW1711REMSYN082AAXX  21161 10860 41118 82502 10010 20008 39658 40105 52013 77177 876// 333 87703;
0208108600999992009012116044+48717+011533FM-16+0365ETSI V0202601N003110012019N0018001N1+00101+00101999999ADDED199U24009GA1071+001201999GA2081+007501999GF108991999999999999999999MA1100811999999MW1101MW2611MW3711REMMET094SPECI ETSI 211604Z 26006KT 1800 R25/2400 -RASN BR BKN004 OVC025 01/01 Q1008 YLO YLO TEMPO AMB;
0209108600999992009012116204+48717+011533FM-15+0365ETSI V0202601N002610030019N0022001N1+00101+00101999999ADDGA1041+001201999GA2071+003001999GA3081+009901999GF108991999999999999999999MA1100811999999MW1101MW2611MW3711REMMET090METAR ETSI 211620Z 26005KT 2200 -RASN BR SCT004 BKN010 OVC033 01/01 Q1008 YLO FCST CANCEL;
0174108600999992009012116574+48717+011533FM-16+0365ETSI V0202601N002610030019N0040001N1+00101+00101999999ADDGA1041+001201999GA2081+003001999GF108991999999999999999999MA1100911999999MW1101MW2611MW3711REMMET071SPECI ETSI 211657Z 26005KT 4000 -RASN BR SCT004 OVC010 01/01 Q1009 GRN;
0193108600999992009012117004+48717+011533FM-12+0365ETSI V0202601N00301001201CN0040001N1+00101+00061101061ADDAY171999AY271999GA1031+001201071GF108991081051001501999999MA1999999096591MD1110111+9999MW1581REMSYN088AAXX  21171 10860 41240 82603 10010 20006 39659 40106 51011 75877 885// 333 83704 88610;
0174108600999992009012117204+48717+011533FM-15+0365ETSI V0202301N001010042019N0040001N1+00101+00101999999ADDGA1041+001801999GA2081+004201999GF108991999999999999999999MA1100911999999MW1101MW2611MW3711REMMET071METAR ETSI 211720Z 23002KT 4000 -RASN BR SCT006 OVC014 01/01 Q1009 GRN;
0156108600999992009012118204+48717+011533FM-15+0365ETSI V0202401N001510081019N0050001N1+00101+00101999999ADDGA1071+008101999GA2071+013201999GF107991999999999999999999MA1100911999999MW1101REMMET065METAR ETSI 211820Z 24003KT 5000 BR BKN027 BKN044 01/01 Q1009 WHT;
0151108600999992009012119024+48717+011533FM-16+0365ETSI V0202701N002610090019N0050001N1+00101+00101999999ADDGA1081+009001999GF108991999999999999999999MA1100911999999MW1101MW2611MW3711REMMET064SPECI ETSI 211902Z 27005KT 5000 -RASN BR OVC030 01/01 Q1009 WHT;
0156108600999992009012121004+48717+011533FM-15+0365ETSI V0202101N001010135019N0045001N1+00101+00101999999ADDGA1021+010501999GA2081+013501999GF108991999999999999999999MA1101021999999MW1101REMMET065SPECI ETSI 212057Z 21002KT 4500 BR FEW035 OVC045 01/01 Q1010 GRN;
0156108600999992009012121204+48717+011533FM-15+0365ETSI V0201401N000510144019N0045001N1+00101+00101999999ADDGA1021+011401999GA2081+014401999GF108991999999999999999999MA1101021999999MW1101REMMET065METAR ETSI 212120Z 14001KT 4500 BR FEW038 OVC048 01/01 Q1010 GRN;
0168108600999992009012204204+48717+011533FM-15+0365ETSI V0201001N001010012019N0018001N1-00101-00101999999ADDED199U46009GA1071+001201999GF107991999999999999999999MA1100911999999MW1121MW2401REMMET076METAR ETSI 220420Z 10002KT 1800 R25/4600 VCFG MIFG BKN004 M01/M01 Q1009 YLO;
0171108600999992009012205004+48717+011533FM-12+0365ETSI V0201001N001010012019N0020001N1-00021-00041101191ADDGA1071+001201071GF108991071061001501999999MA1999999096691MD1710091+9999MW1401REMSYN082AAXX  22051 10860 41220 81001 11002 21004 39669 40119 57009 740// 876// 333 87704;
0185108600999992009012205204+48717+011533FM-15+0365ETSI V0201701N001010006019N0030001N1+00001+00001999999ADDGA1071+000601999GA2071+001501999GF107991999999999999999999MA1100911999999MW1121MW2401REMMET088METAR ETSI 220520Z 17002KT 3000 VCFG MIFG BKN002 BKN005 M00/M00 Q1009 AMB YLO TEMPO RED;
0205108600999992009012205364+48717+011533FM-16+0365ETSI V0201601N001010003019N0020001N1+00001+00001999999ADDED199U17009GA1071+000301999GA2071+001501999GF107991999999999999999999MA1100911999999MW1121MW2401REMMET097SPECI ETSI 220536Z 16002KT 2000 R25/1700 VCFG MIFG BKN001 BKN005 M00/M00 Q1009 RED YLO TEMPO RED;
0162108600999992009012206204+48717+011533FM-15+0365ETSI V0200901N001010003019N0020001N1+00001+00001999999ADDGA1071+000301999GF107991999999999999999999MA1100911999999MW1121MW2401REMMET081METAR ETSI 220620Z 09002KT 2000 VCFG MIFG BKN001 M00/M00 Q1009 RED YLO TEMPO RED;
0180108600999992009012206354+48717+011533FM-16+0365ETSI V0209999V000510003019N0012001N1+00001+00001999999ADDED199U09009GA1071+000301999GF107991999999999999999999MA1100911999999MW1101MW2401REMMET088SPECI ETSI 220635Z VRB01KT 1200 R25/0900 VCFG BR BKN001 M00/M00 Q1009 RED YLO TEMPO RED;
0170108600999992009012206584+48717+011533FM-16+0365ETSI V0201401N002110001519N0005001N1+00001+00001999999ADDED199U06509GA1091+000151999GF109991999999000251999999MA1100911999999MW1491REMMET084SPECI ETSI 220658Z 14004KT 0500 R25/0650 FZFG VV000 M00/M00 Q1009 RED YLO TEMPO RED;
0181108600999992009012207004+48717+011533FM-12+0365ETSI V0201601N001010003019N0009001N1-00041-00041101151ADDAY121011AY221011GA1091+000301999GF109991091999999999999999MA1999999096651MD1710091+9999MW1491REMSYN076AAXX  22071 10860 41/09 91601 11004 21004 39665 40115 57009 74922 333 89/01;
0170108600999992009012207204+48717+011533FM-15+0365ETSI V0201401N001510001519N0004001N1-00101-00101999999ADDED199U04509GA1091+000151999GF109991999999000251999999MA1100911999999MW1491REMMET084METAR ETSI 220720Z 14003KT 0400 R25/0450 FZFG VV000 M01/M01 Q1009 RED YLO TEMPO RED;
0175108600999992009012207544+48717+011533FM-16+0365ETSI V0201401N001510003019N0008001N1-00101-00101999999ADDED199U08009GA1091+000301999GF109991999999000251999999MA1100911999999MW1491REMMET089SPECI ETSI 220754Z 14003KT 0800 R25/0800 FZFG VV001 M01/M01 Q1009 BLACKRED YLO TEMPO RED;
0181108600999992009012208004+48717+011533FM-12+0365ETSI V0201401N002010003019N0006001N1-00061-00101101121ADDAY141999AY241999GA1091+000301999GF109991091999999999999999MA1999999096621MD1710071+9999MW1491REMSYN076AAXX  22081 10860 41/06 91402 11006 21010 39662 40112 57007 74944 333 89/01;
0175108600999992009012208204+48717+011533FM-15+0365ETSI V0201301N001510003019N0008001N1-00101-00101999999ADDED199U08009GA1091+000301999GF109991999999000251999999MA1100911999999MW1491REMMET089METAR ETSI 220820Z 13003KT 0800 R25/0800 FZFG VV001 M01/M01 Q1009 BLACKRED YLO TEMPO RED;
0173108600999992009012209204+48717+011533FM-15+0365ETSI V0201501N001510006019N0015001N1-00101-00101999999ADDED199U27009GA1091+000601999GF109991999999000251999999MA1100811999999MW1101REMMET087METAR ETSI 220920Z 15003KT 1500 R25/2700 BR VV002 M01/M01 Q1008 BLACKAMB YLO TEMPO RED;
0148108600999992009012209464+48717+011533FM-16+0365ETSI V0201601N001010006019N0020001N1-00101-00101999999ADDGA1091+000601999GF109991999999000251999999MA1100811999999MW1101REMMET073SPECI ETSI 220946Z 16002KT 2000 BR VV002 M01/M01 Q1008 AMB YLO TEMPO RED;
0149108600999992009012209594+48717+011533FM-16+0365ETSI V0201501N001510009019N0020001N1+00001+00001999999ADDGA1071+000901999GF107991999999999999999999MA1100811999999MW1101REMMET074SPECI ETSI 220959Z 15003KT 2000 BR BKN003 M00/M00 Q1008 YLO YLO TEMPO RED;
0187108600999992009012210004+48717+011533FM-12+0365ETSI V0201501N001010006019N0020001N1-00071-00111101051ADDAY141011AY221011GA1071+000601071GF107991071061000751999999MA1999999096551MD1710101+9999MW1281REMSYN082AAXX  22101 10860 41120 71501 11007 21011 39655 40105 57010 72842 876// 333 87702;
0149108600999992009012210204+48717+011533FM-15+0365ETSI V0201501N001510012019N0020001N1+00001+00001999999ADDGA1071+001201999GF107991999999999999999999MA1100811999999MW1101REMMET074METAR ETSI 221020Z 15003KT 2000 BR BKN004 M00/M00 Q1008 YLO YLO BECMG GRN;
0187108600999992009012211004+48717+011533FM-12+0365ETSI V0201401N002010012019N0020001N1-00021-00021100961ADDAY121999AY221999GA1081+001201071GF108991081061001501999999MA1999999096471MD1710151+9999MW1101REMSYN082AAXX  22111 10860 41220 81402 11002 21002 39647 40096 57015 71022 886// 333 88704;
0147108600999992009012211204+48717+011533FM-15+0365ETSI V0201501N002110015019N0035001N1+00001+00001999999ADDGA1081+001501999GF108991999999999999999999MA1100611999999MW1101REMMET072METAR ETSI 221120Z 15004KT 3500 BR OVC005 00/00 Q1006 YLO YLO BECMG GRN;
0147108600999992009012212204+48717+011533FM-15+0365ETSI V0201301N001510015019N0040001N1+00001+00001999999ADDGA1081+001501999GF108991999999999999999999MA1100611999999MW1101REMMET072METAR ETSI 221220Z 13003KT 4000 BR OVC005 00/00 Q1006 YLO YLO BECMG GRN;
0147108600999992009012212474+48717+011533FM-16+0365ETSI V0201201N001510018019N0040001N1+00101+00101999999ADDGA1081+001801999GF108991999999999999999999MA1100511999999MW1101REMMET072SPECI ETSI 221247Z 12003KT 4000 BR OVC006 01/01 Q1005 YLO YLO BECMG GRN;
0187108600999992009012213004+48717+011533FM-12+0365ETSI V0201201N002010018019N0040001N1+00051+00001100751ADDAY121999AY221999GA1081+001801071GF108991081061001501999999MA1999999096281MD1710271+9999MW1101REMSYN082AAXX  22131 10860 41240 81202 10005 20000 39628 40075 57027 71022 886// 333 88706;
0137108600999992009012213054+48717+011533FM-16+0365ETSI V0201101N001510021019N0045001N1+00101+00101999999ADDGA1081+002101999GF108991999999999999999999MA1100511999999MW1101REMMET062SPECI ETSI 221305Z 11003KT 4500 BR OVC007 01/01 Q1005 GRN GRN;
0137108600999992009012213204+48717+011533FM-15+0365ETSI V0201101N001510021019N0045001N1+00101+00101999999ADDGA1081+002101999GF108991999999999999999999MA1100511999999MW1101REMMET062METAR ETSI 221320Z 11003KT 4500 BR OVC007 01/01 Q1005 GRN GRN;
0235108600999992009012214004+48717+011533FM-12+0365ETSI V0201401N001010021019N0045001N1+00051+00001100701ADDAY121999AY221999GA1081+002101061GF108991081051002501999999MA1999999096241MD1710231+9999MW1101REMSYN130AAXX  22141 10860 41345 81401 10005 20000 39624 40070 57023 71022 885// 333 88607 555 BOT 11003 21003 31002 40007 999 31/// 4////;
0138108600999992009012214204+48717+011533FM-15+0365ETSI V0201601N002110021019N0050001N1+00001-00101999999ADDGA1081+002101999GF108991999999999999999999MA1100411999999MW1101REMMET063METAR ETSI 221420Z 16004KT 5000 BR OVC007 00/M01 Q1004 GRN GRN;
0139108600999992009012215204+48717+011533FM-15+0365ETSI V0201501N003110021019N0050001N1+00001-00101999999ADDGA1081+002101999GF108991999999999999999999MA1100311999999MW1101REMMET064METAR ETSI 221520Z 15006KT 5000 BR OVC007 M00/M01 Q1003 GRN GRN;
0187108600999992009012216004+48717+011533FM-12+0365ETSI V0201601N002010021019N0050001N1-00011-00071100561ADDAY121999AY221999GA1081+002101061GF108991081051002501999999MA1999999096091MD1710191+9999MW1101REMSYN082AAXX  22161 10860 41350 81602 11001 21007 39609 40056 57019 71022 885// 333 88607;
0145108600999992009012216204+48717+011533FM-15+0365ETSI V0201201N002110021019N0050001N1+00001+00001999999ADDGA1081+002101999GF108991999999999999999999MA1100311999999MW1101REMMET070METAR ETSI 221620Z 12004KT 5000 BR OVC007 00/00 Q1003 GRN FCST CANCEL;
0187108600999992009012217004+48717+011533FM-12+0365ETSI V0201301N002010027019N0060001N1+00001-00121100521ADDAY121999AY221999GA1081+002701061GF108991081051002501999999MA1999999096061MD1710181+9999MW1101REMSYN082AAXX  22171 10860 41356 81302 10000 21012 39606 40052 57018 71022 885// 333 88609;
0125108600999992009012217204+48717+011533FM-15+0365ETSI V0201301N002110027019N0070001N1+00001-00101999999ADDGA1081+002701999GF108991999999999999999999MA1100311999999REMMET056METAR ETSI 221720Z 13004KT 7000 OVC009 00/M01 Q1003 GRN;
0125108600999992009012218204+48717+011533FM-15+0365ETSI V0201201N002110027019N0070001N1+00001-00101999999ADDGA1081+002701999GF108991999999999999999999MA1100201999999REMMET056METAR ETSI 221820Z 12004KT 7000 OVC009 00/M01 Q1002 GRN;
0125108600999992009012219204+48717+011533FM-15+0365ETSI V0201501N001510024019N0070001N1+00001+00001999999ADDGA1081+002401999GF108991999999999999999999MA1100201999999REMMET056METAR ETSI 221920Z 15003KT 7000 OVC008 00/M00 Q1002 GRN;
0135108600999992009012304204+48717+011533FM-15+0365ETSI V0201301N003110012019N0040001N1-00101-00201999999ADDGA1081+001201999GF108991999999999999999999MA1099391999999MW1101REMMET060METAR ETSI 230420Z 13006KT 4000 BR OVC004 M01/M02 Q0994 YLO;
0179108600999992009012305004+48717+011533FM-12+0365ETSI V0201401N003010012019N0040001N1-00111-00171099501ADDAY121999GA1081+001201071GF108991081061001501999999MA1999999095061MD1710351+9999MW1101REMSYN082AAXX  23051 10860 41240 81403 11011 21017 39506 49950 57035 7102/ 886// 333 88704;
0139108600999992009012305204+48717+011533FM-15+0365ETSI V0201201N002610012019N0040001N1-00101-00101999999ADDGA1081+001201999GF108991999999999999999999MA1099191999999MW1101REMMET064METAR ETSI 230520Z 12005KT 4000 BR OVC004 M01/M01 Q0992 YLO YLO;
0139108600999992009012306204+48717+011533FM-15+0365ETSI V0201301N002610015019N0045001N1-00101-00101999999ADDGA1081+001501999GF108991999999999999999999MA1098981999999MW1101REMMET064METAR ETSI 230620Z 13005KT 4500 BR OVC005 M01/M01 Q0990 YLO YLO;
0241108600999992009012307004+48717+011533FM-12+0365ETSI V0201401N003010015019N0045001N1-00061-00141099251ADDAY121999AY221999GA1081+001501071GF108991081061001501999999MA1999999094831MD1710461+9999MW1101REMSYN136AAXX  23071 10860 41245 81403 11006 21014 39483 49925 57046 71022 886// 333 88705 555 BOT 11004 21004 30000 40008 50027 999 34/// 4////;
0149108600999992009012307204+48717+011533FM-15+0365ETSI V0201101N003110018019N0050001N1-00101-00201999999ADDGA1081+001801999GF108991999999999999999999MA1098821999999MW1101REMMET074METAR ETSI 230720Z 11006KT 5000 BR OVC006 M01/M02 Q0988 YLO YLO BECMG GRN;
0187108600999992009012308004+48717+011533FM-12+0365ETSI V0201101N003010018019N0050001N1-00051-00091098961ADDAY121999AY221999GA1081+001801071GF108991081061001501999999MA1999999094561MD1710501+9999MW1101REMSYN082AAXX  23081 10860 41250 81103 11005 21009 39456 49896 57050 71022 886// 333 88706;
0149108600999992009012308204+48717+011533FM-15+0365ETSI V0201001N002610018019N0050001N1+00001-00101999999ADDGA1071+001801999GF107991999999999999999999MA1098611999999MW1101REMMET074METAR ETSI 230820Z 10005KT 5000 BR BKN006 M00/M01 Q0986 YLO YLO BECMG GRN;
0139108600999992009012308354+48717+011533FM-16+0365ETSI V0201101N002110021019N0050001N1+00001-00101999999ADDGA1071+002101999GF107991999999999999999999MA1098511999999MW1101REMMET064SPECI ETSI 230835Z 11004KT 5000 BR BKN007 M00/M01 Q0985 GRN GRN;
0139108600999992009012309204+48717+011533FM-15+0365ETSI V0201401N002110024019N0070001N1+00001-00101999999ADDGA1081+002401999GF108991999999999999999999MA1098511999999REMMET070METAR ETSI 230920Z 14004KT 7000 OVC008 00/M01 Q0985 GRN GRN BECMG BLU;
0165108600999992009012310004+48717+011533FM-12+0365ETSI V0201201N00301002101CN0080001N1+00011-00091098561ADDGA1031+002401071GF108991081051002501999999MA1999999094181MD1710651+9999REMSYN082AAXX  23101 10860 42358 81203 10001 21009 39418 49856 57065 885// 333 83708 88610;
0162108600999992009012310204+48717+011533FM-15+0365ETSI V0201101N002110024019N0080001N1+00001-00101999999ADDGA1071+002401999GA2081+003601999GF108991999999999999999999MA1098311999999REMMET077METAR ETSI 231020Z 11004KT 8000 BKN008 OVC012 00/M01 Q0983 GRN GRN BECMG BLU;
0187108600999992009012311004+48717+011533FM-12+0365ETSI V0201601N002010024019N0080001N1+00011-00101098511ADDGA1051+002401071GA2061+003601061GF108991071051002501999999MA1999999094141MD1710421+9999REMSYN088AAXX  23111 10860 42358 81602 10001 21010 39414 49851 57042 875// 333 85708 86612 87650;
0197108600999992009012311164+48717+011533FM-16+0365ETSI V0201201N002110030019N0070001N1+00001-00101999999ADDGA1071+003001999GA2071+006001999GA3071+012001999GF107991999999999999999999MA1098211999999MW1661REMMET090SPECI ETSI 231116Z 12004KT 7000 -FZRA BKN010 BKN020 BKN040 00/M01 Q0982 GRN GRN BECMG BLU;
0197108600999992009012311204+48717+011533FM-15+0365ETSI V0201201N002110060019N0070001N1+00001-00101999999ADDGA1041+003001999GA2071+006001999GA3071+010501999GF107991999999999999999999MA1098211999999MW1661REMMET090METAR ETSI 231120Z 12004KT 7000 -FZRA SCT010 BKN020 BKN035 00/M01 Q0982 WHT BLU TEMPO WHT;
0205108600999992009012311464+48717+011533FM-16+0365ETSI V0201301N002110060019N0045001N1+00001-00101999999ADDGA1041+003001999GA2071+006001999GA3071+010501999GF107991999999999999999999MA1098101999999MW1101MW2671REMMET092SPECI ETSI 231146Z 13004KT 4500 FZRA BR SCT010 BKN020 BKN035 00/M01 Q0981 GRN BLU TEMPO WHT;
