0092108600999992014010100204+48716+011534FM-15+036699999V0201201N002119999999N005000199-00201-00301999999ADDMA1101601999990REMMET065METAR ETSI 010020Z AUTO 12004KT 5000 // ////// M02/M03 Q1016 ///=
0092108600999992014010101204+48716+011534FM-15+036699999V0209999V001019999999N006000199-00301-00301999999ADDMA1101601999990REMMET065METAR ETSI 010120Z AUTO VRB02KT 6000 // ////// M03/M03 Q1016 ///=
0092108600999992014010102204+48716+011534FM-15+036699999V0201401N002619999999N006000199-00201-00301999999ADDMA1101601999990REMMET065METAR ETSI 010220Z AUTO 14005KT 6000 // ////// M02/M03 Q1016 ///=
0092108600999992014010103204+48716+011534FM-15+036699999V0201901N002119999999N005000199-00201-00301999999ADDMA1101601999990REMMET065METAR ETSI 010320Z AUTO 19004KT 5000 // ////// M02/M03 Q1016 ///=
0092108600999992014010104204+48716+011534FM-15+036699999V0201901N002119999999N005000199-00301-00301999999ADDMA1101601999990REMMET065METAR ETSI 010420Z AUTO 19004KT 5000 // ////// M03/M03 Q1016 ///=
0092108600999992014010105204+48716+011534FM-15+036699999V0201701N001519999999N005000199-00301-00301999999ADDMA1101701999990REMMET065METAR ETSI 010520Z AUTO 17003KT 5000 // ////// M03/M03 Q1017 ///=
0092108600999992014010106204+48716+011534FM-15+036699999V0201201N001019999999N005000199-00301-00401999999ADDMA1101701999990REMMET065METAR ETSI 010620Z AUTO 12002KT 5000 // ////// M03/M04 Q1017 ///=
0092108600999992014010107204+48716+011534FM-15+036699999V0201301N002119999999N005000199-00301-00401999999ADDMA1101701999990REMMET065METAR ETSI 010720Z AUTO 13004KT 5000 // ////// M03/M04 Q1017 ///=
0092108600999992014010108204+48716+011534FM-15+036699999V0201401N001519999999N006000199-00201-00301999999ADDMA1101701999990REMMET065METAR ETSI 010820Z AUTO 14003KT 6000 // ////// M02/M03 Q1017 ///=
0092108600999992014010109204+48716+011534FM-15+036699999V0201401N002119999999N007000199-00201-00301999999ADDMA1101801999990REMMET065METAR ETSI 010920Z AUTO 14004KT 7000 // ////// M02/M03 Q1018 ///=
0092108600999992014010110204+48716+011534FM-15+036699999V0201301N001519999999N006000199-00101-00301999999ADDMA1101701999990REMMET065METAR ETSI 011020Z AUTO 13003KT 6000 // ////// M01/M03 Q1017 ///=
0091108600999992014010111204+48716+011534FM-15+036699999V0201101N001519999999N006000199+00101-00201999999ADDMA1101701999990REMMET064METAR ETSI 011120Z AUTO 11003KT 6000 // ////// 01/M02 Q1017 ///=
0091108600999992014010112204+48716+011534FM-15+036699999V0200901N002119999999N007000199+00101-00101999999ADDMA1101601999990REMMET064METAR ETSI 011220Z AUTO 09004KT 7000 // ////// 01/M01 Q1016 ///=
0091108600999992014010113204+48716+011534FM-15+036699999V0200801N002119999999N007000199+00201+00001999999ADDMA1101501999990REMMET064METAR ETSI 011320Z AUTO 08004KT 7000 // ////// 02/M00 Q1015 ///=
0091108600999992014010114204+48716+011534FM-15+036699999V0200901N002619999999N007000199+00201+00001999999ADDMA1101501999990REMMET064METAR ETSI 011420Z AUTO 09005KT 7000 // ////// 02/M00 Q1015 ///=
0091108600999992014010115204+48716+011534FM-15+036699999V0200901N002119999999N006000199+00001-00101999999ADDMA1101501999990REMMET064METAR ETSI 011520Z AUTO 09004KT 6000 // ////// 00/M01 Q1015 ///=
0091108600999992014010116204+48716+011534FM-15+036699999V0200701N002119999999N005000199+00001-00101999999ADDMA1101501999990REMMET064METAR ETSI 011620Z AUTO 07004KT 5000 // ////// 00/M01 Q1015 ///=
0092108600999992014010117204+48716+011534FM-15+036699999V0200801N002119999999N004100199-00101-00201999999ADDMA1101401999990REMMET065METAR ETSI 011720Z AUTO 08004KT 4100 // ////// M01/M02 Q1014 ///=
0092108600999992014010118204+48716+011534FM-15+036699999V0200801N002619999999N004400199-00101-00201999999ADDMA1101301999990REMMET065METAR ETSI 011820Z AUTO 08005KT 4400 // ////// M01/M02 Q1013 ///=
0092108600999992014010119204+48716+011534FM-15+036699999V0200201N001519999999N004400199-00101-00101999999ADDMA1101301999990REMMET065METAR ETSI 011920Z AUTO 02003KT 4400 // ////// M01/M01 Q1013 ///=
0092108600999992014010120204+48716+011534FM-15+036699999V0200801N003119999999N003600199-00201-00201999999ADDMA1101201999990REMMET065METAR ETSI 012020Z AUTO 08006KT 3600 // ////// M02/M02 Q1012 ///=
0092108600999992014010121204+48716+011534FM-15+036699999V0200601N002619999999N004400199-00101-00201999999ADDMA1101201999990REMMET065METAR ETSI 012120Z AUTO 06005KT 4400 // ////// M01/M02 Q1012 ///=
0092108600999992014010122204+48716+011534FM-15+036699999V0200801N003119999999N004300199-00101-00201999999ADDMA1101001999990REMMET065METAR ETSI 012220Z AUTO 08006KT 4300 // ////// M01/M02 Q1010 ///=
0092108600999992014010123204+48716+011534FM-15+036699999V0200601N002119999999N005000199-00101-00201999999ADDMA1101001999990REMMET065METAR ETSI 012320Z AUTO 06004KT 5000 // ////// M01/M02 Q1010 ///=
0092108600999992014010200204+48716+011534FM-15+036699999V0200301N002119999999N005000199-00101-00201999999ADDMA1100901999990REMMET065METAR ETSI 020020Z AUTO 03004KT 5000 // ////// M01/M02 Q1009 ///=
0092108600999992014010201204+48716+011534FM-15+036699999V0200101N000519999999N001300199-00201-00201999999ADDMA1100801999990REMMET065METAR ETSI 020120Z AUTO 01001KT 1300 // ////// M02/M02 Q1008 ///=
0092108600999992014010202204+48716+011534FM-15+036699999V0201001N001019999999N004200199-00301-00301999999ADDMA1100801999990REMMET065METAR ETSI 020220Z AUTO 10002KT 4200 // ////// M03/M03 Q1008 ///=
0092108600999992014010203204+48716+011534FM-15+036699999V0200801N001519999999N003900199-00201-00201999999ADDMA1100801999990REMMET065METAR ETSI 020320Z AUTO 08003KT 3900 // ////// M02/M02 Q1008 ///=
0092108600999992014010204204+48716+011534FM-15+036699999V0209999C000019999999N004500199-00201-00201999999ADDMA1100801999990REMMET065METAR ETSI 020420Z AUTO 00000KT 4500 // ////// M02/M02 Q1008 ///=
0092108600999992014010205204+48716+011534FM-15+036699999V0201101N001019999999N004800199-00201-00301999999ADDMA1100701999990REMMET065METAR ETSI 020520Z AUTO 11002KT 4800 // ////// M02/M03 Q1007 ///=
0092108600999992014010206204+48716+011534FM-15+036699999V0203501N000519999999N004600199-00201-00201999999ADDMA1100801999990REMMET065METAR ETSI 020620Z AUTO 35001KT 4600 // ////// M02/M02 Q1008 ///=
0157108600999992014010207204+48716+011534FM-15+036699999V0201501N002110396219N005000199-00201-00301999999ADDGA1071+039621991GE19MSL   +99999+99999GF199999071990039621991991MA1100801999990MW1101REMMET060METAR ETSI 020720Z 15004KT 5000 BR BKN130 M02/M03 Q1008 WHT=
0092108600999992014010208204+48716+011534FM-15+036699999V0209999V000519999999N004800199-00201-00201999999ADDMA1100801999990REMMET065METAR ETSI 020820Z AUTO VRB01KT 4800 // ////// M02/M02 Q1008 ///=
0092108600999992014010209204+48716+011534FM-15+036699999V0201401N001019999999N005000199-00101-00101999999ADDMA1100901999990REMMET065METAR ETSI 020920Z AUTO 14002KT 5000 // ////// M01/M01 Q1009 ///=
0091108600999992014010210204+48716+011534FM-15+036699999V0203301N000519999999N006000199+00001-00101999999ADDMA1100901999990REMMET064METAR ETSI 021020Z AUTO 33001KT 6000 // ////// 00/M01 Q1009 ///=
0091108600999992014010211204+48716+011534FM-15+036699999V0209999V000519999999N006000199+00101-00101999999ADDMA1100901999990REMMET064METAR ETSI 021120Z AUTO VRB01KT 6000 // ////// 01/M01 Q1009 ///=
0090108600999992014010212204+48716+011534FM-15+036699999V0209999V001019999999N006000199+00201+00001999999ADDMA1100801999990REMMET063METAR ETSI 021220Z AUTO VRB02KT 6000 // ////// 02/00 Q1008 ///=
0090108600999992014010213204+48716+011534FM-15+036699999V0200701N002119999999N007000199+00301+00001999999ADDMA1100801999990REMMET063METAR ETSI 021320Z AUTO 07004KT 7000 // ////// 03/00 Q1008 ///=
0169108600999992014010214204+48716+011534FM-15+036699999V0200701N001510213419N007000199+00201+00101999999ADDGA1071+021341991GA2071+039621991GE19MSL   +99999+99999GF199999071990021341991991MA1100901999990REMMET062METAR ETSI 021420Z 07003KT 7000 BKN070 BKN130 02/01 Q1009 WHT=
0090108600999992014010215204+48716+011534FM-15+036699999V0200701N002119999999N005000199+00201+00001999999ADDMA1100901999990REMMET063METAR ETSI 021520Z AUTO 07004KT 5000 // ////// 02/00 Q1009 ///=
0169108600999992014010216204+48716+011534FM-15+036699999V0200401N001510274319N009000199+00101+00001999999ADDGA1021+018291991GA2071+027431991GE19MSL   +99999+99999GF199999021990018291991991MA1101001999990REMMET062METAR ETSI 021620Z 04003KT 9000 FEW060 BKN090 01/00 Q1010 BLU=
0169108600999992014010217204+48716+011534FM-15+036699999V0209999V000510487719N008000199+00101+00001999999ADDGA1041+018291991GA2071+048771991GE19MSL   +99999+99999GF199999041990018291991991MA1101001999990REMMET062METAR ETSI 021720Z VRB01KT 8000 SCT060 BKN160 01/00 Q1010 BLU=
0092108600999992014010218204+48716+011534FM-15+036699999V0203201N001019999999N002700199+00001+00001999999ADDMA1101101999990REMMET065METAR ETSI 021820Z AUTO 32002KT 2700 // ////// M00/M00 Q1011 ///=
0092108600999992014010219204+48716+011534FM-15+036699999V0201501N001519999999N002100199-00101-00101999999ADDMA1101101999990REMMET065METAR ETSI 021920Z AUTO 15003KT 2100 // ////// M01/M01 Q1011 ///=
0092108600999992014010220204+48716+011534FM-15+036699999V0209999V000519999999N000900199-00201-00201999999ADDMA1101201999990REMMET065METAR ETSI 022020Z AUTO VRB01KT 0900 // ////// M02/M02 Q1012 ///=
0092108600999992014010221204+48716+011534FM-15+036699999V0209999V000519999999N001000199-00201-00201999999ADDMA1101301999990REMMET065METAR ETSI 022120Z AUTO VRB01KT 1000 // ////// M02/M02 Q1013 ///=
0092108600999992014010222204+48716+011534FM-15+036699999V0209999C000019999999N000150199-00201-00201999999ADDMA1101301999990REMMET065METAR ETSI 022220Z AUTO 00000KT 0150 // ////// M02/M02 Q1013 ///=
0092108600999992014010223204+48716+011534FM-15+036699999V0200501N000519999999N000550199-00201-00201999999ADDMA1101401999990REMMET065METAR ETSI 022320Z AUTO 05001KT 0550 // ////// M02/M02 Q1014 ///=
0092108600999992014010300204+48716+011534FM-15+036699999V0200701N001019999999N001700199-00301-00301999999ADDMA1101301999990REMMET065METAR ETSI 030020Z AUTO 07002KT 1700 // ////// M03/M03 Q1013 ///=
0092108600999992014010301204+48716+011534FM-15+036699999V0200701N001519999999N005000199-00301-00301999999ADDMA1101301999990REMMET065METAR ETSI 030120Z AUTO 07003KT 5000 // ////// M03/M03 Q1013 ///=
0092108600999992014010302204+48716+011534FM-15+036699999V0200401N001519999999N004800199-00301-00301999999ADDMA1101301999990REMMET065METAR ETSI 030220Z AUTO 04003KT 4800 // ////// M03/M03 Q1013 ///=
0092108600999992014010303204+48716+011534FM-15+036699999V0209999V000519999999N005000199-00201-00201999999ADDMA1101301999990REMMET065METAR ETSI 030320Z AUTO VRB01KT 5000 // ////// M02/M02 Q1013 ///=
0092108600999992014010304204+48716+011534FM-15+036699999V0200901N001519999999N000900199-00301-00401999999ADDMA1101301999990REMMET065METAR ETSI 030420Z AUTO 09003KT 0900 // ////// M03/M04 Q1013 ///=
0092108600999992014010305204+48716+011534FM-15+036699999V0200901N001519999999N005000199-00201-00201999999ADDMA1101301999990REMMET065METAR ETSI 030520Z AUTO 09003KT 5000 // ////// M02/M02 Q1013 ///=
0092108600999992014010306204+48716+011534FM-15+036699999V0200101N001019999999N006000199-00301-00301999999ADDMA1101301999990REMMET065METAR ETSI 030620Z AUTO 01002KT 6000 // ////// M03/M03 Q1013 ///=
0092108600999992014010307204+48716+011534FM-15+036699999V0209999C000019999999N003300199-00401-00401999999ADDMA1101301999990REMMET065METAR ETSI 030720Z AUTO 00000KT 3300 // ////// M04/M04 Q1013 ///=
0092108600999992014010308204+48716+011534FM-15+036699999V0209999C000019999999N006000199-00301-00301999999ADDMA1101401999990REMMET065METAR ETSI 030820Z AUTO 00000KT 6000 // ////// M03/M03 Q1014 ///=
0092108600999992014010309204+48716+011534FM-15+036699999V0200701N001019999999N006000199-00101-00201999999ADDMA1101401999990REMMET065METAR ETSI 030920Z AUTO 07002KT 6000 // ////// M01/M02 Q1014 ///=
0091108600999992014010310204+48716+011534FM-15+036699999V0200701N001019999999N004800199+00001+00001999999ADDMA1101401999990REMMET064METAR ETSI 031020Z AUTO 07002KT 4800 // ////// 00/M00 Q1014 ///=
0090108600999992014010311204+48716+011534FM-15+036699999V0200701N002119999999N004400199+00201+00101999999ADDMA1101301999990REMMET063METAR ETSI 031120Z AUTO 07004KT 4400 // ////// 02/01 Q1013 ///=
0090108600999992014010312204+48716+011534FM-15+036699999V0209999V001019999999N004000199+00301+00101999999ADDMA1101301999990REMMET063METAR ETSI 031220Z AUTO VRB02KT 4000 // ////// 03/01 Q1013 ///=
0090108600999992014010313204+48716+011534FM-15+036699999V0209999V001019999999N003900199+00401+00101999999ADDMA1101301999990REMMET063METAR ETSI 031320Z AUTO VRB02KT 3900 // ////// 04/01 Q1013 ///=
0090108600999992014010314204+48716+011534FM-15+036699999V0209999V000519999999N003100199+00401+00201999999ADDMA1101301999990REMMET063METAR ETSI 031420Z AUTO VRB01KT 3100 // ////// 04/02 Q1013 ///=
0090108600999992014010315204+48716+011534FM-15+036699999V0201401N001019999999N002200199+00301+00201999999ADDMA1101401999990REMMET063METAR ETSI 031520Z AUTO 14002KT 2200 // ////// 03/02 Q1014 ///=
0090108600999992014010316204+48716+011534FM-15+036699999V0200801N000519999999N003400199+00201+00201999999ADDMA1101401999990REMMET063METAR ETSI 031620Z AUTO 08001KT 3400 // ////// 02/02 Q1014 ///=
0090108600999992014010317204+48716+011534FM-15+036699999V0209999V000519999999N000800199+00201+00201999999ADDMA1101401999990REMMET063METAR ETSI 031720Z AUTO VRB01KT 0800 // ////// 02/02 Q1014 ///=
0090108600999992014010318204+48716+011534FM-15+036699999V0209999V000519999999N000250199+00201+00201999999ADDMA1101401999990REMMET063METAR ETSI 031820Z AUTO VRB01KT 0250 // ////// 02/02 Q1014 ///=
0090108600999992014010319204+48716+011534FM-15+036699999V0209999C000019999999N000250199+00201+00201999999ADDMA1101401999990REMMET063METAR ETSI 031920Z AUTO 00000KT 0250 // ////// 02/02 Q1014 ///=
0090108600999992014010320204+48716+011534FM-15+036699999V0209999V000519999999N000250199+00301+00301999999ADDMA1101501999990REMMET063METAR ETSI 032020Z AUTO VRB01KT 0250 // ////// 03/03 Q1015 ///=
0090108600999992014010321204+48716+011534FM-15+036699999V0201701N001019999999N000300199+00101+00101999999ADDMA1101501999990REMMET063METAR ETSI 032120Z AUTO 17002KT 0300 // ////// 01/01 Q1015 ///=
0170108600999992014010322054+48716+011534FM-16+036699999V0200401N00051079251CN009999199+00101+00101999999ADDGA1021+045721991GA2041+079251991GE19MSL   +99999+99999GF199999021990045721991991MA1101501999990REMMET063SPECI ETSI 032205Z 04001KT 9999 FEW150 SCT260 01/01 Q1015 BLU/=
0090108600999992014010322204+48716+011534FM-15+036699999V0200601N001019999999N000150199+00101+00101999999ADDMA1101501999990REMMET063METAR ETSI 032220Z AUTO 06002KT 0150 // ////// 01/01 Q1015 ///=
0171108600999992014010322384+48716+011534FM-16+036699999V0201601N001510548619N009999199+00001+00001999999ADDGA1071+054861991GA2041+079251991GE19MSL   +99999+99999GF199999071990054861991991MA1101501999990REMMET064SPECI ETSI 032238Z 16003KT 9999 BKN180 SCT260 M00/M00 Q1015 BLU=
0090108600999992014010323204+48716+011534FM-15+036699999V0203301N000519999999N000250199+00101+00101999999ADDMA1101601999990REMMET063METAR ETSI 032320Z AUTO 33001KT 0250 // ////// 01/01 Q1016 ///=
0092108600999992014010400204+48716+011534FM-15+036699999V0201601N001019999999N004800199+00001-00101999999ADDMA1101601999990REMMET065METAR ETSI 040020Z AUTO 16002KT 4800 // ////// M00/M01 Q1016 ///=
0090108600999992014010401204+48716+011534FM-15+036699999V0209999V001019999999N005000199+00001+00001999999ADDMA1101601999990REMMET063METAR ETSI 040120Z AUTO VRB02KT 5000 // ////// 00/00 Q1016 ///=
0090108600999992014010402204+48716+011534FM-15+036699999V0200501N001019999999N007000199+00001+00001999999ADDMA1101601999990REMMET063METAR ETSI 040220Z AUTO 05002KT 7000 // ////// 00/00 Q1016 ///=
0092108600999992014010403204+48716+011534FM-15+036699999V0200401N001019999999N006000199+00001+00001999999ADDMA1101601999990REMMET065METAR ETSI 040320Z AUTO 04002KT 6000 // ////// M00/M00 Q1016 ///=
0090108600999992014010404204+48716+011534FM-15+036699999V0200501N001519999999N006000199+00001+00001999999ADDMA1101601999990REMMET063METAR ETSI 040420Z AUTO 05003KT 6000 // ////// 00/00 Q1016 ///=
0090108600999992014010405204+48716+011534FM-15+036699999V0209999V000519999999N007000199+00001+00001999999ADDMA1101501999990REMMET063METAR ETSI 040520Z AUTO VRB01KT 7000 // ////// 00/00 Q1015 ///=
0090108600999992014010406204+48716+011534FM-15+036699999V0200601N002619999999N006000199+00101+00101999999ADDMA1101401999990REMMET063METAR ETSI 040620Z AUTO 06005KT 6000 // ////// 01/01 Q1014 ///=
0090108600999992014010407204+48716+011534FM-15+036699999V0200601N002619999999N005000199+00101+00101999999ADDMA1101401999990REMMET063METAR ETSI 040720Z AUTO 06005KT 5000 // ////// 01/01 Q1014 ///=
0090108600999992014010408204+48716+011534FM-15+036699999V0200401N002619999999N006000199+00201+00101999999ADDMA1101301999990REMMET063METAR ETSI 040820Z AUTO 04005KT 6000 // ////// 02/01 Q1013 ///=
0090108600999992014010409204+48716+011534FM-15+036699999V0200601N004119999999N004300199+00201+00101999999ADDMA1101101999990REMMET063METAR ETSI 040920Z AUTO 06008KT 4300 // ////// 02/01 Q1011 ///=
0146108600999992014010410204+48716+011534FM-15+036699999V0200601N004110304819N009999199+00201+00101999999ADDGA1071+030481991GE19MSL   +99999+99999GF199999071990030481991991MA1101001999990REMMET055METAR ETSI 041020Z 06008KT 9999 BKN100 02/01 Q1010 BLU=
0090108600999992014010411204+48716+011534FM-15+036699999V0200701N003619999999N005000199+00301+00101999999ADDMA1100801999990REMMET063METAR ETSI 041120Z AUTO 07007KT 5000 // ////// 03/01 Q1008 ///=
0090108600999992014010412204+48716+011534FM-15+036699999V0200601N001519999999N004400199+00401+00301999999ADDMA1100501999990REMMET063METAR ETSI 041220Z AUTO 06003KT 4400 // ////// 04/03 Q1005 ///=
0090108600999992014010413204+48716+011534FM-15+036699999V0201101N002619999999N003600199+00501+00301999999ADDMA1100401999990REMMET063METAR ETSI 041320Z AUTO 11005KT 3600 // ////// 05/03 Q1004 ///=
0090108600999992014010414204+48716+011534FM-15+036699999V0201101N001019999999N003500199+00501+00301999999ADDMA1100301999990REMMET063METAR ETSI 041420Z AUTO 11002KT 3500 // ////// 05/03 Q1003 ///=
0090108600999992014010415204+48716+011534FM-15+036699999V0209999V001019999999N002800199+00401+00401999999ADDMA1100301999990REMMET063METAR ETSI 041520Z AUTO VRB02KT 2800 // ////// 04/04 Q1003 ///=
0090108600999992014010416204+48716+011534FM-15+036699999V0209999V000519999999N003100199+00401+00401999999ADDMA1100201999990REMMET063METAR ETSI 041620Z AUTO VRB01KT 3100 // ////// 04/04 Q1002 ///=
0090108600999992014010417204+48716+011534FM-15+036699999V0202901N001519999999N002800199+00401+00401999999ADDMA1100201999990REMMET063METAR ETSI 041720Z AUTO 29003KT 2800 // ////// 04/04 Q1002 ///=
0090108600999992014010418204+48716+011534FM-15+036699999V0202801N003119999999N002800199+00401+00401999999ADDMA1100201999990REMMET063METAR ETSI 041820Z AUTO 28006KT 2800 // ////// 04/04 Q1002 ///=
0090108600999992014010419204+48716+011534FM-15+036699999V0201901N001519999999N002400199+00401+00301999999ADDMA1100201999990REMMET063METAR ETSI 041920Z AUTO 19003KT 2400 // ////// 04/03 Q1002 ///=
0090108600999992014010420204+48716+011534FM-15+036699999V0202001N001019999999N002400199+00401+00401999999ADDMA1100301999990REMMET063METAR ETSI 042020Z AUTO 20002KT 2400 // ////// 04/04 Q1003 ///=
0090108600999992014010421204+48716+011534FM-15+036699999V0203001N000519999999N002500199+00401+00401999999ADDMA1100301999990REMMET063METAR ETSI 042120Z AUTO 30001KT 2500 // ////// 04/04 Q1003 ///=
0090108600999992014010422204+48716+011534FM-15+036699999V0201601N002119999999N000150199+00401+00401999999ADDMA1100201999990REMMET063METAR ETSI 042220Z AUTO 16004KT 0150 // ////// 04/04 Q1002 ///=
0090108600999992014010423204+48716+011534FM-15+036699999V0200801N001019999999N000050199+00301+00301999999ADDMA1100101999990REMMET063METAR ETSI 042320Z AUTO 08002KT 0050 // ////// 03/03 Q1001 ///=
0090108600999992014010500204+48716+011534FM-15+036699999V0200801N001519999999N000050199+00301+00201999999ADDMA1100101999990REMMET063METAR ETSI 050020Z AUTO 08003KT 0050 // ////// 03/02 Q1001 ///=
0090108600999992014010501204+48716+011534FM-15+036699999V0201001N001019999999N000050199+00201+00201999999ADDMA1100101999990REMMET063METAR ETSI 050120Z AUTO 10002KT 0050 // ////// 02/02 Q1001 ///=
0090108600999992014010502204+48716+011534FM-15+036699999V0200601N002119999999N000200199+00201+00201999999ADDMA1100101999990REMMET063METAR ETSI 050220Z AUTO 06004KT 0200 // ////// 02/02 Q1001 ///=
0090108600999992014010503204+48716+011534FM-15+036699999V0200601N001519999999N000100199+00101+00101999999ADDMA1100101999990REMMET063METAR ETSI 050320Z AUTO 06003KT 0100 // ////// 01/01 Q1001 ///=
0090108600999992014010504204+48716+011534FM-15+036699999V0202701N002619999999N000100199+00101+00101999999ADDMA1100201999990REMMET063METAR ETSI 050420Z AUTO 27005KT 0100 // ////// 01/01 Q1002 ///=
0090108600999992014010505204+48716+011534FM-15+036699999V0202201N001019999999N000100199+00101+00101999999ADDMA1100301999990REMMET063METAR ETSI 050520Z AUTO 22002KT 0100 // ////// 01/01 Q1003 ///=
0090108600999992014010506204+48716+011534FM-15+036699999V0202201N001519999999N000200199+00101+00101999999ADDMA1100501999990REMMET063METAR ETSI 050620Z AUTO 22003KT 0200 // ////// 01/01 Q1005 ///=
0090108600999992014010507204+48716+011534FM-15+036699999V0202601N003619999999N000200199+00301+00301999999ADDMA1100701999990REMMET063METAR ETSI 050720Z AUTO 26007KT 0200 // ////// 03/03 Q1007 ///=
0090108600999992014010508204+48716+011534FM-15+036699999V0202501N002619999999N000200199+00401+00401999999ADDMA1100801999990REMMET063METAR ETSI 050820Z AUTO 25005KT 0200 // ////// 04/04 Q1008 ///=
0090108600999992014010509204+48716+011534FM-15+036699999V0202601N005119999999N000150199+00501+00501999999ADDMA1100801999990REMMET063METAR ETSI 050920Z AUTO 26010KT 0150 // ////// 05/05 Q1008 ///=
0090108600999992014010510204+48716+011534FM-15+036699999V0202501N005119999999N000200199+00501+00401999999ADDMA1100901999990REMMET063METAR ETSI 051020Z AUTO 25010KT 0200 // ////// 05/04 Q1009 ///=
0090108600999992014010511204+48716+011534FM-15+036699999V0202601N005119999999N000150199+00501+00401999999ADDMA1101001999990REMMET063METAR ETSI 051120Z AUTO 26010KT 0150 // ////// 05/04 Q1010 ///=
0090108600999992014010512204+48716+011534FM-15+036699999V0202601N005719999999N000150199+00601+00401999999ADDMA1101001999990REMMET063METAR ETSI 051220Z AUTO 26011KT 0150 // ////// 06/04 Q1010 ///=
0090108600999992014010513204+48716+011534FM-15+036699999V0202501N004619999999N000150199+00601+00401999999ADDMA1101101999990REMMET063METAR ETSI 051320Z AUTO 25009KT 0150 // ////// 06/04 Q1011 ///=
0090108600999992014010514204+48716+011534FM-15+036699999V0202501N003119999999N000150199+00601+00401999999ADDMA1101201999990REMMET063METAR ETSI 051420Z AUTO 25006KT 0150 // ////// 06/04 Q1012 ///=
0192108600999992014010515204+48716+011534FM-15+036699999V0202401N002110106719N009999199+00501+00401999999ADDGA1021+003051991GA2071+010671991GA3071+030481991GE19MSL   +99999+99999GF199999021990003051991991MA1101301999990REMMET069METAR ETSI 051520Z 24004KT 9999 FEW010 BKN035 BKN100 05/04 Q1013 BLU=
0207108600999992014010516204+48716+011534FM-15+036699999V0202501N002610106719N009999199+00501+00401999999ADDGA1021+003051991GA2071+010671991GA3071+030481991GE19MSL   +99999+99999GF199999021990003051991991MA1101401999990MW1611REMMET078METAR ETSI 051620Z 25005KT 9999 -RA FEW010 BKN035 BKN100 05/04 Q1014      BLU=
0090108600999992014010517204+48716+011534FM-15+036699999V0202201N001019999999N000150199+00401+00301999999ADDMA1101501999990REMMET063METAR ETSI 051720Z AUTO 22002KT 0150 // ////// 04/03 Q1015 ///=
0090108600999992014010518204+48716+011534FM-15+036699999V0202201N001019999999N000150199+00401+00301999999ADDMA1101501999990REMMET063METAR ETSI 051820Z AUTO 22002KT 0150 // ////// 04/03 Q1015 ///=
0090108600999992014010519204+48716+011534FM-15+036699999V0202001N000519999999N000150199+00301+00301999999ADDMA1101601999990REMMET063METAR ETSI 051920Z AUTO 20001KT 0150 // ////// 03/03 Q1016 ///=
0090108600999992014010520204+48716+011534FM-15+036699999V0201801N001519999999N000150199+00301+00301999999ADDMA1101601999990REMMET063METAR ETSI 052020Z AUTO 18003KT 0150 // ////// 03/03 Q1016 ///=
0090108600999992014010521204+48716+011534FM-15+036699999V0201801N001019999999N000200199+00301+00301999999ADDMA1101501999990REMMET063METAR ETSI 052120Z AUTO 18002KT 0200 // ////// 03/03 Q1015 ///=
0090108600999992014010522204+48716+011534FM-15+036699999V0201701N001519999999N000150199+00201+00101999999ADDMA1101501999990REMMET063METAR ETSI 052220Z AUTO 17003KT 0150 // ////// 02/01 Q1015 ///=
0090108600999992014010523204+48716+011534FM-15+036699999V0201501N000519999999N000050199+00001+00001999999ADDMA1101601999990REMMET063METAR ETSI 052320Z AUTO 15001KT 0050 // ////// 00/00 Q1016 ///=
0092108600999992014010600204+48716+011534FM-15+036699999V0201701N000519999999N000050199-00101-00101999999ADDMA1101601999990REMMET065METAR ETSI 060020Z AUTO 17001KT 0050 // ////// M01/M01 Q1016 ///=
0092108600999992014010601204+48716+011534FM-15+036699999V0201101N000519999999N000050199-00201-00201999999ADDMA1101601999990REMMET065METAR ETSI 060120Z AUTO 11001KT 0050 // ////// M02/M02 Q1016 ///=
0092108600999992014010602204+48716+011534FM-15+036699999V0200601N001019999999N000150199-00201-00201999999ADDMA1101601999990REMMET065METAR ETSI 060220Z AUTO 06002KT 0150 // ////// M02/M02 Q1016 ///=
0092108600999992014010603204+48716+011534FM-15+036699999V0200401N001019999999N000150199-00201-00201999999ADDMA1101601999990REMMET065METAR ETSI 060320Z AUTO 04002KT 0150 // ////// M02/M02 Q1016 ///=
0185108600999992014010604094+48716+011534FM-16+036699999V0209999V000519999999N001200199-00301-00301999999ADDGA1021+001221991GE19MSL   +99999+99999GF199999021990001221991991MA1101601999990MW1121MW2401REMMET082SPECI ETSI 060409Z VRB01KT 1200 R25/1500D VCFG MIFG FEW004 M03/M03      Q1016 AMB=
0092108600999992014010604204+48716+011534FM-15+036699999V0200201N000519999999N000200199-00301-00301999999ADDMA1101601999990REMMET065METAR ETSI 060420Z AUTO 02001KT 0200 // ////// M03/M03 Q1016 ///=
0185108600999992014010604244+48716+011534FM-16+036699999V0200101N000519999999N001100199-00301-00301999999ADDGA1021+000911991GE19MSL   +99999+99999GF199999021990000911991991MA1101601999990MW1121MW2401REMMET082SPECI ETSI 060424Z 01001KT 1100 R25/1900U VCFG MIFG FEW003 M03/M03      Q1016 AMB=
0185108600999992014010604524+48716+011534FM-16+036699999V0200601N000519999999N001100199-00301-00301999999ADDGA1021+000911991GE19MSL   +99999+99999GF199999021990000911991991MA1101601999990MW1121MW2401REMMET082SPECI ETSI 060452Z 06001KT 1100 R25/0700N VCFG MIFG FEW003 M03/M03      Q1016 AMB=
0092108600999992014010605204+48716+011534FM-15+036699999V0200801N001019999999N000200199-00301-00301999999ADDMA1101601999990REMMET065METAR ETSI 060520Z AUTO 08002KT 0200 // ////// M03/M03 Q1016 ///=
0185108600999992014010605324+48716+011534FM-16+036699999V0200801N001019999999N001500199-00301-00301999999ADDGA1021+000911991GE19MSL   +99999+99999GF199999021990000911991991MA1101601999990MW1121MW2401REMMET082SPECI ETSI 060532Z 08002KT 1500 R25/0900U VCFG MIFG FEW003 M03/M03      Q1016 AMB=
0185108600999992014010605524+48716+011534FM-16+036699999V0200701N001019999999N001500199-00201-00201999999ADDGA1021+000911991GE19MSL   +99999+99999GF199999021990000911991991MA1101601999990MW1121MW2401REMMET082SPECI ETSI 060552Z 07002KT 1500 R25/5000U VCFG MIFG FEW003 M02/M02      Q1016 AMB=
0185108600999992014010606204+48716+011534FM-15+036699999V0200601N001019999999N001000199-00401-00401999999ADDGA1021+000911991GE19MSL   +99999+99999GF199999021990000911991991MA1101601999990MW1121MW2401REMMET082METAR ETSI 060620Z 06002KT 1000 R25/0700N VCFG MIFG FEW003 M04/M04      Q1016 AMB=
0092108600999992014010607204+48716+011534FM-15+036699999V0209999V000519999999N006000199-00301-00301999999ADDMA1101701999990REMMET065METAR ETSI 060720Z AUTO VRB01KT 6000 // ////// M03/M03 Q1017 ///=
0092108600999992014010608204+48716+011534FM-15+036699999V0209999V000519999999N005000199-00201-00201999999ADDMA1101701999990REMMET065METAR ETSI 060820Z AUTO VRB01KT 5000 // ////// M02/M02 Q1017 ///=
0090108600999992014010609204+48716+011534FM-15+036699999V0200701N001519999999N003600199+00101+00001999999ADDMA1101701999990REMMET063METAR ETSI 060920Z AUTO 07003KT 3600 // ////// 01/00 Q1017 ///=
0090108600999992014010610204+48716+011534FM-15+036699999V0201701N000519999999N002700199+00401+00201999999ADDMA1101701999990REMMET063METAR ETSI 061020Z AUTO 17001KT 2700 // ////// 04/02 Q1017 ///=
0090108600999992014010611204+48716+011534FM-15+036699999V0200501N001519999999N002000199+00401+00201999999ADDMA1101601999990REMMET063METAR ETSI 061120Z AUTO 05003KT 2000 // ////// 04/02 Q1016 ///=
0090108600999992014010612204+48716+011534FM-15+036699999V0201601N001519999999N001900199+00601+00201999999ADDMA1101601999990REMMET063METAR ETSI 061220Z AUTO 16003KT 1900 // ////// 06/02 Q1016 ///=
0090108600999992014010613204+48716+011534FM-15+036699999V0201601N001519999999N001900199+00701+00201999999ADDMA1101601999990REMMET063METAR ETSI 061320Z AUTO 16003KT 1900 // ////// 07/02 Q1016 ///=
0090108600999992014010614204+48716+011534FM-15+036699999V0201401N002119999999N001800199+00601+00301999999ADDMA1101601999990REMMET063METAR ETSI 061420Z AUTO 14004KT 1800 // ////// 06/03 Q1016 ///=
0090108600999992014010615204+48716+011534FM-15+036699999V0200701N001019999999N002200199+00601+00301999999ADDMA1101601999990REMMET063METAR ETSI 061520Z AUTO 07002KT 2200 // ////// 06/03 Q1016 ///=
0090108600999992014010616204+48716+011534FM-15+036699999V0200701N002119999999N002700199+00501+00301999999ADDMA1101601999990REMMET063METAR ETSI 061620Z AUTO 07004KT 2700 // ////// 05/03 Q1016 ///=
0090108600999992014010617204+48716+011534FM-15+036699999V0200701N002619999999N003300199+00401+00301999999ADDMA1101501999990REMMET063METAR ETSI 061720Z AUTO 07005KT 3300 // ////// 04/03 Q1015 ///=
0090108600999992014010618204+48716+011534FM-15+036699999V0200701N003119999999N003500199+00301+00201999999ADDMA1101401999990REMMET063METAR ETSI 061820Z AUTO 07006KT 3500 // ////// 03/02 Q1014 ///=
0090108600999992014010619204+48716+011534FM-15+036699999V0200701N002619999999N004000199+00201+00201999999ADDMA1101401999990REMMET063METAR ETSI 061920Z AUTO 07005KT 4000 // ////// 02/02 Q1014 ///=
0090108600999992014010620204+48716+011534FM-15+036699999V0200701N003119999999N003900199+00301+00201999999ADDMA1101401999990REMMET063METAR ETSI 062020Z AUTO 07006KT 3900 // ////// 03/02 Q1014 ///=
0090108600999992014010621204+48716+011534FM-15+036699999V0200601N003119999999N004800199+00301+00201999999ADDMA1101401999990REMMET063METAR ETSI 062120Z AUTO 06006KT 4800 // ////// 03/02 Q1014 ///=
0090108600999992014010622204+48716+011534FM-15+036699999V0200401N001519999999N006000199+00201+00201999999ADDMA1101401999990REMMET063METAR ETSI 062220Z AUTO 04003KT 6000 // ////// 02/02 Q1014 ///=
0090108600999992014010623204+48716+011534FM-15+036699999V0209999V000519999999N005000199+00201+00101999999ADDMA1101501999990REMMET063METAR ETSI 062320Z AUTO VRB01KT 5000 // ////// 02/01 Q1015 ///=
0090108600999992014010700204+48716+011534FM-15+036699999V0201301N001019999999N003200199+00101+00101999999ADDMA1101501999990REMMET063METAR ETSI 070020Z AUTO 13002KT 3200 // ////// 01/01 Q1015 ///=
0090108600999992014010701204+48716+011534FM-15+036699999V0209999V000519999999N005000199+00101+00101999999ADDMA1101601999990REMMET063METAR ETSI 070120Z AUTO VRB01KT 5000 // ////// 01/01 Q1016 ///=
0090108600999992014010702204+48716+011534FM-15+036699999V0202401N001019999999N003000199+00101+00101999999ADDMA1101701999990REMMET063METAR ETSI 070220Z AUTO 24002KT 3000 // ////// 01/01 Q1017 ///=
0090108600999992014010703204+48716+011534FM-15+036699999V0201901N001019999999N003000199+00101+00101999999ADDMA1101801999990REMMET063METAR ETSI 070320Z AUTO 19002KT 3000 // ////// 01/01 Q1018 ///=
0146108600999992014010704204+48716+011534FM-15+036699999V0201601N001010304819N009999199+00101+00101999999ADDGA1071+030481991GE19MSL   +99999+99999GF199999071990030481991991MA1101801999990REMMET055METAR ETSI 070420Z 16002KT 9999 BKN100 01/01 Q1018 BLU=
0183108600999992014010705204+48716+011534FM-15+036699999V0209999C000010274319N009999199+00101+00101999999ADDGA1021+004571991GA2071+027431991GE19MSL   +99999+99999GF199999021990004571991991MA1101901999990MW1611REMMET070METAR ETSI 070520Z 00000KT 9999 -RA FEW015 BKN090 01/01 Q1019 BLU BLU=
0201108600999992014010706204+48716+011534FM-15+036699999V0209999V00051018291CN009999199+00101+00101999999ADDGA1021+008531991GA2041+018291991GA3071+027431991GE19MSL   +99999+99999GF199999021990008531991991MA1101901999990REMMET078METAR ETSI 070620Z VRB01KT 9999 FEW028 SCT060 BKN090 01/01 Q1019 BLU      BLU=
0201108600999992014010707204+48716+011534FM-15+036699999V0209999V00051018291CN009999199+00101+00101999999ADDGA1021+009141991GA2041+018291991GA3071+027431991GE19MSL   +99999+99999GF199999021990009141991991MA1101901999990REMMET078METAR ETSI 070720Z VRB01KT 9999 FEW030 SCT060 BKN090 01/01 Q1019 BLU      BLU=
0189108600999992014010708204+48716+011534FM-15+036699999V0200601N00101064011CN009999199+00201+00201999999ADDGA1021+009141991GA2041+064011991GE19MSL   +99999+99999GF199999021990009141991991MA1102001999990REMMET082METAR ETSI 070820Z 06002KT 9999 FEW030 SCT210 02/02 Q1020 BLU/BLU/      TEMPO BLU=
0161108600999992014010709204+48716+011534FM-15+036699999V0200701N002619999999N009999199+00401+00201999999ADDGA1021+027431991GE19MSL   +99999+99999GF199999021990027431991991MA1102001999990REMMET070METAR ETSI 070920Z 07005KT 9999 FEW090 04/02 Q1020 BLU/BLU/ TEMPO BLU=
0161108600999992014010710204+48716+011534FM-15+036699999V0200601N001519999999N009999199+00501+00301999999ADDGA1041+027431991GE19MSL   +99999+99999GF199999041990027431991991MA1102001999990REMMET070METAR ETSI 071020Z 06003KT 9999 SCT090 05/03 Q1020 BLU/BLU/ TEMPO BLU=
0161108600999992014010711204+48716+011534FM-15+036699999V0200601N001010274319N009999199+00601+00401999999ADDGA1071+027431991GE19MSL   +99999+99999GF199999071990027431991991MA1102001999990REMMET070METAR ETSI 071120Z 06002KT 9999 BKN090 06/04 Q1020 BLU BLU/ TEMPO BLU=
0161108600999992014010712204+48716+011534FM-15+036699999V0200801N002119999999N009999199+00901+00501999999ADDGA1021+027431991GE19MSL   +99999+99999GF199999021990027431991991MA1101901999990REMMET070METAR ETSI 071220Z 08004KT 9999 FEW090 09/05 Q1019 BLU/BLU/ TEMPO BLU=
0161108600999992014010713204+48716+011534FM-15+036699999V0200501N002119999999N009999199+01001+00601999999ADDGA1021+027431991GE19MSL   +99999+99999GF199999021990027431991991MA1101901999990REMMET070METAR ETSI 071320Z 05004KT 9999 FEW090 10/06 Q1019 BLU/BLU/ TEMPO BLU=
0161108600999992014010714204+48716+011534FM-15+036699999V0200401N002619999999N009999199+01001+00601999999ADDGA1021+027431991GE19MSL   +99999+99999GF199999021990027431991991MA1101901999990REMMET070METAR ETSI 071420Z 04005KT 9999 FEW090 10/06 Q1019 BLU/BLU/ TEMPO BLU=
0158108600999992014010715204+48716+011534FM-15+036699999V0200601N001519999999N009999199+00901+00501999999ADDGA1021+027431991GE19MSL   +99999+99999GF199999021990027431991991MA1101901999990REMMET067METAR ETSI 071520Z 06003KT 9999 FEW090 09/05 Q1019 BLU/FCST CANCEL=
0158108600999992014010716204+48716+011534FM-15+036699999V0200601N001019999999N009999199+00601+00401999999ADDGA1021+027431991GE19MSL   +99999+99999GF199999021990027431991991MA1101901999990MW1121REMMET061METAR ETSI 071620Z 06002KT 9999 MIFG FEW090 06/04 Q1019 BLU/=
0181108600999992014010717204+48716+011534FM-15+036699999V0200201N00151051821CN009999199+00601+00501999999ADDGA1021+027431991GA2041+051821991GE19MSL   +99999+99999GF199999021990027431991991MA1101901999990MW1121REMMET068METAR ETSI 071720Z 02003KT 9999 MIFG FEW090 SCT170 06/05 Q1019 BLU/=
0090108600999992014010718204+48716+011534FM-15+036699999V0201501N001019999999N000250199+00301+00301999999ADDMA1102001999990REMMET063METAR ETSI 071820Z AUTO 15002KT 0250 // ////// 03/03 Q1020 ///=
0090108600999992014010719204+48716+011534FM-15+036699999V0200601N001519999999N000250199+00401+00401999999ADDMA1102001999990REMMET063METAR ETSI 071920Z AUTO 06003KT 0250 // ////// 04/04 Q1020 ///=
0090108600999992014010720204+48716+011534FM-15+036699999V0200601N001519999999N000250199+00401+00401999999ADDMA1101901999990REMMET063METAR ETSI 072020Z AUTO 06003KT 0250 // ////// 04/04 Q1019 ///=
0090108600999992014010721204+48716+011534FM-15+036699999V0209999V000519999999N000200199+00301+00301999999ADDMA1101901999990REMMET063METAR ETSI 072120Z AUTO VRB01KT 0200 // ////// 03/03 Q1019 ///=
0090108600999992014010722204+48716+011534FM-15+036699999V0209999C000019999999N000100199+00301+00201999999ADDMA1101901999990REMMET063METAR ETSI 072220Z AUTO 00000KT 0100 // ////// 03/02 Q1019 ///=
0090108600999992014010723204+48716+011534FM-15+036699999V0201701N001019999999N000050199+00101+00101999999ADDMA1102001999990REMMET063METAR ETSI 072320Z AUTO 17002KT 0050 // ////// 01/01 Q1020 ///=
0090108600999992014010800204+48716+011534FM-15+036699999V0203601N000519999999N000250199+00201+00201999999ADDMA1102001999990REMMET063METAR ETSI 080020Z AUTO 36001KT 0250 // ////// 02/02 Q1020 ///=
0090108600999992014010801204+48716+011534FM-15+036699999V0201501N001019999999N000150199+00101+00101999999ADDMA1102001999990REMMET063METAR ETSI 080120Z AUTO 15002KT 0150 // ////// 01/01 Q1020 ///=
0090108600999992014010802204+48716+011534FM-15+036699999V0202801N000519999999N000250199+00201+00201999999ADDMA1102001999990REMMET063METAR ETSI 080220Z AUTO 28001KT 0250 // ////// 02/02 Q1020 ///=
0090108600999992014010803204+48716+011534FM-15+036699999V0201801N002119999999N000250199+00201+00201999999ADDMA1102101999990REMMET063METAR ETSI 080320Z AUTO 18004KT 0250 // ////// 02/02 Q1021 ///=
0207108600999992014010804204+48716+011534FM-15+036699999V0209999V000510152419N009999199+00301+00301999999ADDGA1021+013721991GA2071+015241991GA3071+033531991GE19MSL   +99999+99999GF199999021990013721991991MA1102101999990MW1611REMMET078METAR ETSI 080420Z VRB01KT 9999 -RA FEW045 BKN050 BKN110 03/03 Q1021      BLU=
0211108600999992014010805204+48716+011534FM-15+036699999V0202001N00051015241CN009999199+00301+00201999999ADDGA1021+012191991GA2041+015241991GA3071+021341991GE19MSL   +99999+99999GF199999021990012191991991MA1102101999990REMMET088METAR ETSI 080520Z 20001KT 9999 FEW040 SCT050 BKN070 03/02 Q1021 BLU      BLU TEMPO WHT=
0214108600999992014010806204+48716+011534FM-15+036699999V0209999V001010213419N009999199+00201+00201999999ADDGA1021+000611991GA2071+021341991GE19MSL   +99999+99999GF199999021990000611991991MA1102201999990MW1121MW2401REMMET095METAR COR ETSI 080620Z VRB02KT 9999 VCFG MIFG FEW002 BKN070 02/02 Q1022      BLU BLU TEMPO WHT=
0210108600999992014010807204+48716+011534FM-15+036699999V0200801N000510213419N009999199+00201+00201999999ADDGA1021+015241991GA2071+021341991GE19MSL   +99999+99999GF199999021990015241991991MA1102201999990MW1121MW2401REMMET091METAR ETSI 080720Z 08001KT 9999 VCFG MIFG FEW050 BKN070 02/02 Q1022      BLU BLU TEMPO WHT=
0200108600999992014010808204+48716+011534FM-15+036699999V0201701N001010853419N009999199+00401+00401999999ADDGA1041+015241991GA2071+085341991GE19MSL   +99999+99999GF199999041990015241991991MA1102301999990MW1401REMMET087METAR ETSI 080820Z 17002KT 9999 VCFG SCT050 BKN280 04/04 Q1023 BLU/BLU/      TEMPO BLU=
0189108600999992014010809204+48716+011534FM-15+036699999V0202601N002610853419N009999199+00801+00601999999ADDGA1021+013721991GA2071+085341991GE19MSL   +99999+99999GF199999021990013721991991MA1102401999990REMMET082METAR ETSI 080920Z 26005KT 9999 FEW045 BKN280 08/06 Q1024 BLU/BLU/      TEMPO BLU=
0189108600999992014010810204+48716+011534FM-15+036699999V0202801N003610853419N009999199+01001+00501999999ADDGA1021+015241991GA2071+085341991GE19MSL   +99999+99999GF199999021990015241991991MA1102301999990REMMET082METAR ETSI 081020Z 28007KT 9999 FEW050 BKN280 10/05 Q1023 BLU/BLU/      TEMPO BLU=
0174108600999992014010811204+48716+011534FM-15+036699999V0202701N002610853419N009999199+01101+00601999999ADDGA1021+015241991GA2071+085341991GE19MSL   +99999+99999GF199999021990015241991991MA1102301999990REMMET067METAR ETSI 081120Z 27005KT 9999 FEW050 BKN280 11/06 Q1023 BLU/BLU/=
0174108600999992014010812204+48716+011534FM-15+036699999V0202901N00211027431CN009999199+01101+00601999999ADDGA1021+007621991GA2041+027431991GE19MSL   +99999+99999GF199999021990007621991991MA1102201999990REMMET067METAR ETSI 081220Z 29004KT 9999 FEW025 SCT090 11/06 Q1022 BLU/BLU/=
0174108600999992014010813204+48716+011534FM-15+036699999V0203301N00101085341CN009999199+01201+00701999999ADDGA1021+007621991GA2041+085341991GE19MSL   +99999+99999GF199999021990007621991991MA1102201999990REMMET067METAR ETSI 081320Z 33002KT 9999 FEW025 SCT280 12/07 Q1022 BLU/BLU/=
0174108600999992014010814204+48716+011534FM-15+036699999V0202601N001010853419N009999199+01201+00701999999ADDGA1021+007621991GA2071+085341991GE19MSL   +99999+99999GF199999021990007621991991MA1102201999990REMMET067METAR ETSI 081420Z 26002KT 9999 FEW025 BKN280 12/07 Q1022 BLU/BLU/=
0174108600999992014010815204+48716+011534FM-15+036699999V0209999C000010731519N009999199+00801+00701999999ADDGA1021+024381991GA2071+073151991GE19MSL   +99999+99999GF199999021990024381991991MA1102101999990REMMET067METAR ETSI 081520Z 00000KT 9999 FEW080 BKN240 08/07 Q1021 BLU/BLU/=
0194108600999992014010816204+48716+011534FM-15+036699999V0201601N001010670619N009999199+00601+00501999999ADDGA1021+024381991GA2071+067061991GE19MSL   +99999+99999GF199999021990024381991991MA1102101999990MW1121REMMET081METAR COR ETSI 081620Z 16002KT 9999 MIFG FEW080 BKN220 06/05 Q1021      BLU/BLU/=
0195108600999992014010817004+48716+011534FM-16+036699999V0202101N000519999999N009999199+00401+00401999999ADDGA1041+067061991GE19MSL   +99999+99999GF199999041990067061991991MA1102101999990MW1121MW2401REMMET092SPECI ETSI 081700Z 21001KT 9999 R25/0900D VCFG MIFG SCT220 04/04 Q1021      BLU/FCST CANCEL=
0184108600999992014010817204+48716+011534FM-15+036699999V0201001N001019999999N009999199+00401+00401999999ADDGA1041+067061991GE19MSL   +99999+99999GF199999041990067061991991MA1102101999990MW1121MW2401REMMET081METAR ETSI 081720Z 10002KT 9999 R25/0650N VCFG MIFG SCT220 04/04 Q1021      BLU/=
0090108600999992014010818204+48716+011534FM-15+036699999V0200101N001519999999N000450199+00401+00401999999ADDMA1102101999990REMMET063METAR ETSI 081820Z AUTO 01003KT 0450 // ////// 04/04 Q1021 ///=
0090108600999992014010819204+48716+011534FM-15+036699999V0201801N000519999999N000300199+00201+00201999999ADDMA1102201999990REMMET063METAR ETSI 081920Z AUTO 18001KT 0300 // ////// 02/02 Q1022 ///=
0090108600999992014010820204+48716+011534FM-15+036699999V0209999V000519999999N000700199+00301+00201999999ADDMA1102101999990REMMET063METAR ETSI 082020Z AUTO VRB01KT 0700 // ////// 03/02 Q1021 ///=
0090108600999992014010821204+48716+011534FM-15+036699999V0200601N001019999999N003300199+00301+00201999999ADDMA1102101999990REMMET063METAR ETSI 082120Z AUTO 06002KT 3300 // ////// 03/02 Q1021 ///=
0090108600999992014010823204+48716+011534FM-15+036699999V0200601N000519999999N000200199+00201+00201999999ADDMA1102001999990REMMET063METAR ETSI 082320Z AUTO 06001KT 0200 // ////// 02/02 Q1020 ///=
0090108600999992014010900204+48716+011534FM-15+036699999V0209999V000519999999N000550199+00201+00101999999ADDMA1102001999990REMMET063METAR ETSI 090020Z AUTO VRB01KT 0550 // ////// 02/01 Q1020 ///=
0090108600999992014010901204+48716+011534FM-15+036699999V0201201N000519999999N000200199+00101+00101999999ADDMA1101901999990REMMET063METAR ETSI 090120Z AUTO 12001KT 0200 // ////// 01/01 Q1019 ///=
0090108600999992014010902204+48716+011534FM-15+036699999V0209999C000019999999N000150199+00001+00001999999ADDMA1101901999990REMMET063METAR ETSI 090220Z AUTO 00000KT 0150 // ////// 00/00 Q1019 ///=
0092108600999992014010903204+48716+011534FM-15+036699999V0209999C000019999999N000300199+00001+00001999999ADDMA1101801999990REMMET065METAR ETSI 090320Z AUTO 00000KT 0300 // ////// M00/M00 Q1018 ///=
0182108600999992014010904204+48716+011534FM-15+036699999V0209999V000510701019N002800199+00001+00001999999ADDGA1021+036581991GA2071+070101991GE19MSL   +99999+99999GF199999021990036581991991MA1101701999990MW1401REMMET069METAR ETSI 090420Z VRB01KT 2800 VCFG FEW120 BKN230 M00/M00 Q1017 YLO=
0208108600999992014010905204+48716+011534FM-15+036699999V0209999V000510457219N002000199+00001+00001999999ADDGA1021+030481991GA2071+045721991GE19MSL   +99999+99999GF199999021990030481991991MA1101701999990MW1101MW2401REMMET089METAR ETSI 090520Z VRB01KT 2000 VCFG BR FEW100 BKN150 00/00 Q1017 YLO      YLO TEMPO RED=
0210108600999992014010906204+48716+011534FM-15+036699999V0201601N001510701019N003000199+00001+00001999999ADDGA1041+042671991GA2071+070101991GE19MSL   +99999+99999GF199999041990042671991991MA1101601999990MW1101MW2401REMMET091METAR ETSI 090620Z 16003KT 3000 VCFG BR SCT140 BKN230 M00/M00 Q1016      YLO YLO TEMPO RED=
0209108600999992014010907204+48716+011534FM-15+036699999V0201701N001010670619N003500199+00001+00001999999ADDGA1021+042671991GA2071+067061991GE19MSL   +99999+99999GF199999021990042671991991MA1101601999990MW1101MW2401REMMET090METAR ETSI 090720Z 17002KT 3500 VCFG BR FEW140 BKN220 00/M00 Q1016      YLO YLO TEMPO RED=
0210108600999992014010907384+48716+011534FM-16+036699999V0209999V000510670619N005000199+00001+00001999999ADDGA1021+042671991GA2071+067061991GE19MSL   +99999+99999GF199999021990042671991991MA1101601999990MW1121MW2401REMMET091SPECI ETSI 090738Z VRB01KT 5000 VCFG MIFG FEW140 BKN220 00/00 Q1016      WHT YLO TEMPO RED=
0200108600999992014010908204+48716+011534FM-15+036699999V0209999C000010670619N009000199+00001+00001999999ADDGA1021+039621991GA2071+067061991GE19MSL   +99999+99999GF199999021990039621991991MA1101601999990MW1401REMMET087METAR ETSI 090820Z 00000KT 9000 VCFG FEW130 BKN220 00/00 Q1016 BLU/BLU/      TEMPO YLO=
0197108600999992014010909204+48716+011534FM-15+036699999V0209999V00051033531CN009999199+00201+00201999999ADDGA1021+000301991GA2041+033531991GA3071+067061991GE19MSL   +99999+99999GF199999021990000301991991MA1101601999990REMMET074METAR ETSI 090920Z VRB01KT 9999 FEW001 SCT110 BKN220 02/02 Q1016 BLU/BLU/=
0197108600999992014010910204+48716+011534FM-15+036699999V0209999V00101042671CN009999199+00501+00401999999ADDGA1021+030481991GA2041+042671991GA3071+067061991GE19MSL   +99999+99999GF199999021990030481991991MA1101601999990REMMET074METAR ETSI 091020Z VRB02KT 9999 FEW100 SCT140 BKN220 05/04 Q1016 BLU/BLU/=
0197108600999992014010911204+48716+011534FM-15+036699999V0200201N00101042671CN009999199+00801+00501999999ADDGA1021+033531991GA2041+042671991GA3071+060961991GE19MSL   +99999+99999GF199999021990033531991991MA1101401999990REMMET074METAR ETSI 091120Z 02002KT 9999 FEW110 SCT140 BKN200 08/05 Q1014 BLU/BLU/=
0174108600999992014010912204+48716+011534FM-15+036699999V0200201N001010609619N009999199+01001+00601999999ADDGA1041+030481991GA2071+060961991GE19MSL   +99999+99999GF199999041990030481991991MA1101301999990REMMET067METAR ETSI 091220Z 02002KT 9999 SCT100 BKN200 10/06 Q1013 BLU/BLU/=
0197108600999992014010913204+48716+011534FM-15+036699999V0200501N00151039621CN009999199+00901+00601999999ADDGA1021+030481991GA2041+039621991GA3071+060961991GE19MSL   +99999+99999GF199999021990030481991991MA1101301999990REMMET074METAR ETSI 091320Z 05003KT 9999 FEW100 SCT130 BKN200 09/06 Q1013 BLU/BLU/=
0174108600999992014010914204+48716+011534FM-15+036699999V0209999V001010609619N009999199+00901+00701999999ADDGA1041+036581991GA2071+060961991GE19MSL   +99999+99999GF199999041990036581991991MA1101201999990REMMET067METAR ETSI 091420Z VRB02KT 9999 SCT120 BKN200 09/07 Q1012 BLU/BLU/=
0189108600999992014010915204+48716+011534FM-15+036699999V0200501N000510365819N009999199+00801+00601999999ADDGA1071+036581991GA2071+060961991GE19MSL   +99999+99999GF199999071990036581991991MA1101101999990REMMET082METAR ETSI 091520Z 05001KT 9999 BKN120 BKN200 08/06 Q1011 BLU BLU/      TEMPO BLU=
0209108600999992014010916004+48716+011534FM-16+036699999V0201801N001010365819N009999199+00601+00501999999ADDGA1071+036581991GA2041+045721991GA3071+060961991GE19MSL   +99999+99999GF199999071990036581991991MA1101101999990REMMET086SPECI ETSI 091600Z 18002KT 9999 BKN120 SCT150 BKN200 06/05 Q1011 BLU      FCST CANCEL=
0192108600999992014010916204+48716+011534FM-15+036699999V0201701N001010487719N009999199+00601+00501999999ADDGA1041+036581991GA2071+048771991GA3071+060961991GE19MSL   +99999+99999GF199999041990036581991991MA1101101999990REMMET069METAR ETSI 091620Z 17002KT 9999 SCT120 BKN160 BKN200 06/05 Q1011 BLU=
0208108600999992014010917204+48716+011534FM-15+036699999V0202001N001010457219N009999199+00501+00501999999ADDGA1041+036581991GA2071+045721991GA3071+060961991GE19MSL   +99999+99999GF199999041990036581991991MA1101101999990MW1121REMMET079METAR ETSI 091720Z 20002KT 9999 MIFG SCT120 BKN150 BKN200 05/05 Q1011      BLU=
0090108600999992014010918204+48716+011534FM-15+036699999V0209999V000519999999N009999199+00501+00501999999ADDMA1101001999990REMMET063METAR ETSI 091820Z AUTO VRB01KT 9999 // ////// 05/05 Q1010 ///=
0090108600999992014010919204+48716+011534FM-15+036699999V0202601N003119999999N009999199+00901+00401999999ADDMA1101001999990REMMET063METAR ETSI 091920Z AUTO 26006KT 9999 // ////// 09/04 Q1010 ///=
0090108600999992014010920204+48716+011534FM-15+036699999V0202701N003119999999N009999199+01001+00301999999ADDMA1101001999990REMMET063METAR ETSI 092020Z AUTO 27006KT 9999 // ////// 10/03 Q1010 ///=
0090108600999992014010921204+48716+011534FM-15+036699999V0203201N003619999999N009999199+00901+00301999999ADDMA1101101999990REMMET063METAR ETSI 092120Z AUTO 32007KT 9999 // ////// 09/03 Q1011 ///=
0090108600999992014010922204+48716+011534FM-15+036699999V0203201N008219999999N009999199+00901+00501999999ADDMA1101301999990REMMET063METAR ETSI 092220Z AUTO 32016KT 9999 // ////// 09/05 Q1013 ///=
0090108600999992014010923204+48716+011534FM-15+036699999V0202901N005119999999N007000199+00601+00401999999ADDMA1101401999990REMMET063METAR ETSI 092320Z AUTO 29010KT 7000 // ////// 06/04 Q1014 ///=
0090108600999992014011000204+48716+011534FM-15+036699999V0202801N004619999999N009000199+00601+00401999999ADDMA1101401999990REMMET063METAR ETSI 100020Z AUTO 28009KT 9000 // ////// 06/04 Q1014 ///=
0090108600999992014011001204+48716+011534FM-15+036699999V0202601N004619999999N009000199+00501+00401999999ADDMA1101501999990REMMET063METAR ETSI 100120Z AUTO 26009KT 9000 // ////// 05/04 Q1015 ///=
0090108600999992014011002204+48716+011534FM-15+036699999V0202501N004619999999N009999199+00501+00401999999ADDMA1101501999990REMMET063METAR ETSI 100220Z AUTO 25009KT 9999 // ////// 05/04 Q1015 ///=
0090108600999992014011003204+48716+011534FM-15+036699999V0202501N006219999999N009999199+00501+00301999999ADDMA1101601999990REMMET063METAR ETSI 100320Z AUTO 25012KT 9999 // ////// 05/03 Q1016 ///=
0192108600999992014011004204+48716+011534FM-15+036699999V0202501N00461009141CN009999199+00501+00301999999ADDGA1021+005491991GA2041+009141991GA3071+036581991GE19MSL   +99999+99999GF199999021990005491991991MA1101701999990REMMET069METAR ETSI 100420Z 25009KT 9999 FEW018 SCT030 BKN120 05/03 Q1017 BLU=
0189108600999992014011005204+48716+011534FM-15+036699999V0202401N003610365819N009999199+00401+00301999999ADDGA1021+009141991GA2071+036581991GE19MSL   +99999+99999GF199999021990009141991991MA1101701999990REMMET082METAR ETSI 100520Z 24007KT 9999 FEW030 BKN120 04/03 Q1017 BLU BLU TEMPO      BLU/=
0189108600999992014011006204+48716+011534FM-15+036699999V0202401N003110121919N009999199+00301+00201999999ADDGA1021+008531991GA2071+012191991GE19MSL   +99999+99999GF199999021990008531991991MA1101801999990REMMET082METAR ETSI 100620Z 24006KT 9999 FEW028 BKN040 03/02 Q1018 BLU BLU TEMPO      BLU/=
0212108600999992014011007204+48716+011534FM-15+036699999V0202401N00311006101CN009999199+00401+00301999999ADDGA1021+003661991GA2041+006101991GA3071+015241991GE19MSL   +99999+99999GF199999021990003661991991MA1101901999990REMMET089METAR ETSI 100720Z 24006KT 9999 FEW012 SCT020 BKN050 04/03 Q1019 BLU      BLU TEMPO BLU/=
0212108600999992014011008204+48716+011534FM-15+036699999V0202201N00211007621CN009999199+00401+00301999999ADDGA1021+003661991GA2041+007621991GA3071+015241991GE19MSL   +99999+99999GF199999021990003661991991MA1101901999990REMMET089METAR ETSI 100820Z 22004KT 9999 FEW012 SCT025 BKN050 04/03 Q1019 BLU      BLU TEMPO BLU/=
0189108600999992014011009204+48716+011534FM-15+036699999V0202401N004110137219N009999199+00501+00301999999ADDGA1021+004571991GA2071+013721991GE19MSL   +99999+99999GF199999021990004571991991MA1102001999990REMMET082METAR ETSI 100920Z 24008KT 9999 FEW015 BKN045 05/03 Q1020 BLU BLU TEMPO      BLU/=
0224108600999992014011010204+48716+011534FM-15+036699999V0202401N00361008231CN009999199+00501+00301999999ADDGA1021+004571991GA2041+008231991GA3071+015241991GE19MSL   +99999+99999GF199999021990004571991991MA1102001999990MW1801REMMET095METAR ETSI 101020Z 24007KT 9999 -SHRA FEW015 SCT027 BKN050 05/03 Q1020      BLU BLU TEMPO BLU/=
0184108600999992014011011204+48716+011534FM-15+036699999V0202801N00671015241CN009999199+00601+00301999999ADDGA1021+004571991GA2041+015241991GE19MSL   +99999+99999GF199999021990004571991991MA1102001999990MW1161REMMET071METAR ETSI 101120Z 28013KT 9999 VCSH FEW015 SCT050 06/03 Q1020 BLU/BLU=
0173108600999992014011012204+48716+011534FM-15+036699999V0202501N004110137219N009999199+00601+00301999999ADDGA1021+004571991GA2071+013721991GE19MSL   +99999+99999GF199999021990004571991991MA1101901999990REMMET066METAR ETSI 101220Z 25008KT 9999 FEW015 BKN045 06/03 Q1019 BLU BLU=
0158108600999992014011013004+48716+011534FM-16+036699999V0202601N004619999999N009999199+00701+00301999999ADDGA1021+004881991GE19MSL   +99999+99999GF199999021990004881991991MA1101901999990REMMET067SPECI ETSI 101300Z 26009KT 9999 FEW016 07/03 Q1019 BLU/FCST CANCEL=
0147108600999992014011013204+48716+011534FM-15+036699999V0202501N004119999999N009999199+00701+00301999999ADDGA1021+004881991GE19MSL   +99999+99999GF199999021990004881991991MA1101901999990REMMET056METAR ETSI 101320Z 25008KT 9999 FEW016 07/03 Q1019 BLU/=
0147108600999992014011014204+48716+011534FM-15+036699999V0202501N003619999999N009999199+00701+00301999999ADDGA1021+006101991GE19MSL   +99999+99999GF199999021990006101991991MA1101901999990REMMET056METAR ETSI 101420Z 25007KT 9999 FEW020 07/03 Q1019 BLU/=
0147108600999992014011015204+48716+011534FM-15+036699999V0202601N003619999999N009999199+00601+00101999999ADDGA1021+006101991GE19MSL   +99999+99999GF199999021990006101991991MA1101901999990REMMET056METAR ETSI 101520Z 26007KT 9999 FEW020 06/01 Q1019 BLU/=
0147108600999992014011016204+48716+011534FM-15+036699999V0202301N001519999999N009999199+00401+00201999999ADDGA1021+013721991GE19MSL   +99999+99999GF199999021990013721991991MA1101901999990REMMET056METAR ETSI 101620Z 23003KT 9999 FEW045 04/02 Q1019 BLU/=
0147108600999992014011017204+48716+011534FM-15+036699999V0202001N001519999999N009999199+00201+00101999999ADDGA1021+013721991GE19MSL   +99999+99999GF199999021990013721991991MA1101901999990REMMET056METAR ETSI 101720Z 20003KT 9999 FEW045 02/01 Q1019 BLU/=
0090108600999992014011018204+48716+011534FM-15+036699999V0201601N001019999999N009999199+00101+00001999999ADDMA1101901999990REMMET063METAR ETSI 101820Z AUTO 16002KT 9999 // ////// 01/00 Q1019 ///=
0091108600999992014011019204+48716+011534FM-15+036699999V0200101N001019999999N009999199+00001+00001999999ADDMA1102001999990REMMET064METAR ETSI 101920Z AUTO 01002KT 9999 // ////// 00/M00 Q1020 ///=
0092108600999992014011020204+48716+011534FM-15+036699999V0201401N000519999999N004100199-00101-00101999999ADDMA1102001999990REMMET065METAR ETSI 102020Z AUTO 14001KT 4100 // ////// M01/M01 Q1020 ///=
0092108600999992014011021204+48716+011534FM-15+036699999V0201601N000519999999N000300199-00201-00201999999ADDMA1102001999990REMMET065METAR ETSI 102120Z AUTO 16001KT 0300 // ////// M02/M02 Q1020 ///=
0092108600999992014011022204+48716+011534FM-15+036699999V0201801N001019999999N000350199-00201-00201999999ADDMA1102001999990REMMET065METAR ETSI 102220Z AUTO 18002KT 0350 // ////// M02/M02 Q1020 ///=
0092108600999992014011023204+48716+011534FM-15+036699999V0209999C000019999999N005000199-00201-00201999999ADDMA1101901999990REMMET065METAR ETSI 102320Z AUTO 00000KT 5000 // ////// M02/M02 Q1019 ///=
0092108600999992014011100204+48716+011534FM-15+036699999V0209999C000019999999N000350199-00201-00201999999ADDMA1101901999990REMMET065METAR ETSI 110020Z AUTO 00000KT 0350 // ////// M02/M02 Q1019 ///=
0092108600999992014011101204+48716+011534FM-15+036699999V0202001N000519999999N000300199-00301-00301999999ADDMA1101901999990REMMET065METAR ETSI 110120Z AUTO 20001KT 0300 // ////// M03/M03 Q1019 ///=
0092108600999992014011102204+48716+011534FM-15+036699999V0200401N000519999999N000250199-00301-00301999999ADDMA1101901999990REMMET065METAR ETSI 110220Z AUTO 04001KT 0250 // ////// M03/M03 Q1019 ///=
0092108600999992014011103204+48716+011534FM-15+036699999V0201801N000519999999N000400199-00301-00301999999ADDMA1101901999990REMMET065METAR ETSI 110320Z AUTO 18001KT 0400 // ////// M03/M03 Q1019 ///=
0092108600999992014011104204+48716+011534FM-15+036699999V0200701N001019999999N001700199-00401-00401999999ADDMA1101801999990REMMET065METAR ETSI 110420Z AUTO 07002KT 1700 // ////// M04/M04 Q1018 ///=
0092108600999992014011105204+48716+011534FM-15+036699999V0200201N000519999999N001400199-00301-00401999999ADDMA1101801999990REMMET065METAR ETSI 110520Z AUTO 02001KT 1400 // ////// M03/M04 Q1018 ///=
0092108600999992014011106204+48716+011534FM-15+036699999V0200501N000519999999N001100199-00401-00401999999ADDMA1101801999990REMMET065METAR ETSI 110620Z AUTO 05001KT 1100 // ////// M04/M04 Q1018 ///=
0092108600999992014011107204+48716+011534FM-15+036699999V0200701N001519999999N006000199-00301-00301999999ADDMA1101801999990REMMET065METAR ETSI 110720Z AUTO 07003KT 6000 // ////// M03/M03 Q1018 ///=
0092108600999992014011108204+48716+011534FM-15+036699999V0200801N000519999999N009000199-00201-00201999999ADDMA1101801999990REMMET065METAR ETSI 110820Z AUTO 08001KT 9000 // ////// M02/M02 Q1018 ///=
0092108600999992014011109204+48716+011534FM-15+036699999V0201401N001019999999N007000199-00101-00101999999ADDMA1101801999990REMMET065METAR ETSI 110920Z AUTO 14002KT 7000 // ////// M01/M01 Q1018 ///=
0090108600999992014011110204+48716+011534FM-15+036699999V0203501N001019999999N006000199+00001+00001999999ADDMA1101801999990REMMET063METAR ETSI 111020Z AUTO 35002KT 6000 // ////// 00/00 Q1018 ///=
0090108600999992014011111204+48716+011534FM-15+036699999V0201101N001019999999N003400199+00101+00101999999ADDMA1101701999990REMMET063METAR ETSI 111120Z AUTO 11002KT 3400 // ////// 01/01 Q1017 ///=
0090108600999992014011112204+48716+011534FM-15+036699999V0202901N002619999999N003900199+00101+00101999999ADDMA1101801999990REMMET063METAR ETSI 111220Z AUTO 29005KT 3900 // ////// 01/01 Q1018 ///=
0090108600999992014011113204+48716+011534FM-15+036699999V0201901N001019999999N004500199+00101+00101999999ADDMA1101701999990REMMET063METAR ETSI 111320Z AUTO 19002KT 4500 // ////// 01/01 Q1017 ///=
0090108600999992014011114204+48716+011534FM-15+036699999V0203101N002119999999N005000199+00101+00101999999ADDMA1101801999990REMMET063METAR ETSI 111420Z AUTO 31004KT 5000 // ////// 01/01 Q1018 ///=
0090108600999992014011115204+48716+011534FM-15+036699999V0201901N001019999999N004900199+00201+00101999999ADDMA1101801999990REMMET063METAR ETSI 111520Z AUTO 19002KT 4900 // ////// 02/01 Q1018 ///=
0090108600999992014011116204+48716+011534FM-15+036699999V0202501N001519999999N006000199+00201+00201999999ADDMA1101801999990REMMET063METAR ETSI 111620Z AUTO 25003KT 6000 // ////// 02/02 Q1018 ///=
0090108600999992014011117204+48716+011534FM-15+036699999V0202501N001019999999N004700199+00201+00201999999ADDMA1101801999990REMMET063METAR ETSI 111720Z AUTO 25002KT 4700 // ////// 02/02 Q1018 ///=
0090108600999992014011118204+48716+011534FM-15+036699999V0202601N001519999999N004200199+00301+00301999999ADDMA1101901999990REMMET063METAR ETSI 111820Z AUTO 26003KT 4200 // ////// 03/03 Q1019 ///=
0090108600999992014011119204+48716+011534FM-15+036699999V0202701N003619999999N006000199+00401+00301999999ADDMA1102001999990REMMET063METAR ETSI 111920Z AUTO 27007KT 6000 // ////// 04/03 Q1020 ///=
0090108600999992014011120204+48716+011534FM-15+036699999V0202501N004119999999N006000199+00401+00401999999ADDMA1102001999990REMMET063METAR ETSI 112020Z AUTO 25008KT 6000 // ////// 04/04 Q1020 ///=
0090108600999992014011121204+48716+011534FM-15+036699999V0202501N004119999999N006000199+00501+00401999999ADDMA1102101999990REMMET063METAR ETSI 112120Z AUTO 25008KT 6000 // ////// 05/04 Q1021 ///=
0090108600999992014011122204+48716+011534FM-15+036699999V0202601N004119999999N008000199+00501+00401999999ADDMA1102201999990REMMET063METAR ETSI 112220Z AUTO 26008KT 8000 // ////// 05/04 Q1022 ///=
0090108600999992014011123204+48716+011534FM-15+036699999V0202801N003619999999N009999199+00501+00301999999ADDMA1102301999990REMMET063METAR ETSI 112320Z AUTO 28007KT 9999 // ////// 05/03 Q1023 ///=
0090108600999992014011200204+48716+011534FM-15+036699999V0202701N002119999999N009999199+00401+00301999999ADDMA1102301999990REMMET063METAR ETSI 120020Z AUTO 27004KT 9999 // ////// 04/03 Q1023 ///=
0090108600999992014011201204+48716+011534FM-15+036699999V0202701N002119999999N000800199+00301+00201999999ADDMA1102401999990REMMET063METAR ETSI 120120Z AUTO 27004KT 0800 // ////// 03/02 Q1024 ///=
0090108600999992014011202204+48716+011534FM-15+036699999V0203001N001519999999N008000199+00201+00101999999ADDMA1102401999990REMMET063METAR ETSI 120220Z AUTO 30003KT 8000 // ////// 02/01 Q1024 ///=
0090108600999992014011203204+48716+011534FM-15+036699999V0203201N002119999999N001800199+00101+00101999999ADDMA1102501999990REMMET063METAR ETSI 120320Z AUTO 32004KT 1800 // ////// 01/01 Q1025 ///=
0092108600999992014011204204+48716+011534FM-15+036699999V0202401N001519999999N000200199-00201-00201999999ADDMA1102501999990REMMET065METAR ETSI 120420Z AUTO 24003KT 0200 // ////// M02/M02 Q1025 ///=
0092108600999992014011205204+48716+011534FM-15+036699999V0202201N001019999999N002900199-00101-00101999999ADDMA1102501999990REMMET065METAR ETSI 120520Z AUTO 22002KT 2900 // ////// M01/M01 Q1025 ///=
0092108600999992014011206204+48716+011534FM-15+036699999V0209999V000519999999N000150199-00101-00101999999ADDMA1102501999990REMMET065METAR ETSI 120620Z AUTO VRB01KT 0150 // ////// M01/M01 Q1025 ///=
0182108600999992014011207054+48716+011534FM-16+036699999V0201801N001010670619N000100199-00301-00301999999ADDGA1021+015241991GA2071+067061991GE19MSL   +99999+99999GF199999021990015241991991MA1102601999990MW1481REMMET069SPECI ETSI 120705Z 18002KT 0100 FZFG FEW050 BKN220 M03/M03 Q1026 RED=
0182108600999992014011207204+48716+011534FM-15+036699999V0209999C000010670619N000100199-00201-00201999999ADDGA1021+015241991GA2071+067061991GE19MSL   +99999+99999GF199999021990015241991991MA1102601999990MW1481REMMET069METAR ETSI 120720Z 00000KT 0100 FZFG FEW050 BKN220 M02/M02 Q1026 RED=
0197108600999992014011208034+48716+011534FM-16+036699999V0202401N001010670619N000600199-00201-00201999999ADDGA1021+015241991GA2071+067061991GE19MSL   +99999+99999GF199999021990015241991991MA1102601999990MW1481REMMET084SPECI ETSI 120803Z 24002KT 0600 R25/0550U FZFG FEW050 BKN220 M02/M02      Q1026 RED=
0197108600999992014011208204+48716+011534FM-15+036699999V0209999C00001067061CN000800199-00101-00201999999ADDGA1021+015241991GA2041+067061991GE19MSL   +99999+99999GF199999021990015241991991MA1102601999990MW1481REMMET084METAR ETSI 120820Z 00000KT 0800 R25/0650N FZFG FEW050 SCT220 M01/M02      Q1026 AMB=
0197108600999992014011208444+48716+011534FM-16+036699999V0202301N00051067061CN001800199+00001-00101999999ADDGA1021+015241991GA2041+067061991GE19MSL   +99999+99999GF199999021990015241991991MA1102601999990MW1111REMMET084SPECI ETSI 120844Z 23001KT 1800 R25/1300U BCFG FEW050 SCT220 M00/M01      Q1026 YLO=
0189108600999992014011209074+48716+011534FM-16+036699999V0201701N00101067061CN003200199+00101+00001999999ADDGA1021+015241991GA2041+067061991GE19MSL   +99999+99999GF199999021990015241991991MA1102601999990MW1101MW2401REMMET070SPECI ETSI 120907Z 17002KT 3200 VCFG BR FEW050 SCT220 01/00 Q1026 YLO=
0195108600999992014011209204+48716+011534FM-15+036699999V0201801N00101067061CN003800199+00101+00001999999ADDGA1021+001221991GA2041+067061991GE19MSL   +99999+99999GF199999021990001221991991MA1102601999990MW1101MW2401REMMET076METAR ETSI 120920Z 18002KT 3800 VCFG BR FEW004 SCT220 01/M00 Q1026      GRN=
0090108600999992014011210204+48716+011534FM-15+036699999V0202801N001019999999N008000199+00301+00101999999ADDMA1102601999990REMMET063METAR ETSI 121020Z AUTO 28002KT 8000 // ////// 03/01 Q1026 ///=
0090108600999992014011211204+48716+011534FM-15+036699999V0201901N001519999999N003800199+00401+00001999999ADDMA1102501999990REMMET063METAR ETSI 121120Z AUTO 19003KT 3800 // ////// 04/00 Q1025 ///=
0091108600999992014011212204+48716+011534FM-15+036699999V0201401N001019999999N009999199+00401+00001999999ADDMA1102401999990REMMET064METAR ETSI 121220Z AUTO 14002KT 9999 // ////// 04/M00 Q1024 ///=
0091108600999992014011213204+48716+011534FM-15+036699999V0202101N001019999999N009999199+00401-00101999999ADDMA1102301999990REMMET064METAR ETSI 121320Z AUTO 21002KT 9999 // ////// 04/M01 Q1023 ///=
0091108600999992014011214204+48716+011534FM-15+036699999V0209999V000519999999N009999199+00401+00001999999ADDMA1102301999990REMMET064METAR ETSI 121420Z AUTO VRB01KT 9999 // ////// 04/M00 Q1023 ///=
0090108600999992014011215204+48716+011534FM-15+036699999V0200701N000519999999N000450199+00201+00001999999ADDMA1102201999990REMMET063METAR ETSI 121520Z AUTO 07001KT 0450 // ////// 02/00 Q1022 ///=
0092108600999992014011216204+48716+011534FM-15+036699999V0209999C000019999999N000200199-00101-00101999999ADDMA1102201999990REMMET065METAR ETSI 121620Z AUTO 00000KT 0200 // ////// M01/M01 Q1022 ///=
0092108600999992014011217204+48716+011534FM-15+036699999V0209999C000019999999N000150199-00201-00201999999ADDMA1102201999990REMMET065METAR ETSI 121720Z AUTO 00000KT 0150 // ////// M02/M02 Q1022 ///=
0092108600999992014011218204+48716+011534FM-15+036699999V0209999V000519999999N000150199-00201-00201999999ADDMA1102101999990REMMET065METAR ETSI 121820Z AUTO VRB01KT 0150 // ////// M02/M02 Q1021 ///=
0092108600999992014011219204+48716+011534FM-15+036699999V0201001N001019999999N001300199-00201-00201999999ADDMA1102101999990REMMET065METAR ETSI 121920Z AUTO 10002KT 1300 // ////// M02/M02 Q1021 ///=
0092108600999992014011220204+48716+011534FM-15+036699999V0201401N001019999999N000200199-00401-00401999999ADDMA1102101999990REMMET065METAR ETSI 122020Z AUTO 14002KT 0200 // ////// M04/M04 Q1021 ///=
0185108600999992014011220304+48716+011534FM-16+036699999V0209999V001019999999N003000199-00201-00201999999ADDGA1021+067061991GE19MSL   +99999+99999GF199999021990067061991991MA1102101999990MW1121MW2401REMMET082SPECI ETSI 122030Z VRB02KT 3000 R25/0900D VCFG MIFG FEW220 M02/M02      Q1021 YLO=
0185108600999992014011220584+48716+011534FM-16+036699999V0200601N001519999999N004000199-00301-00301999999ADDGA1021+000301991GE19MSL   +99999+99999GF199999021990000301991991MA1102001999990MW1121MW2401REMMET082SPECI ETSI 122058Z 06003KT 4000 R25/0600N VCFG MIFG FEW001 M03/M03      Q1020 GRN=
0170108600999992014011221204+48716+011534FM-15+036699999V0200801N001019999999N004000199-00301-00301999999ADDGA1021+000301991GE19MSL   +99999+99999GF199999021990000301991991MA1102001999990MW1121MW2401REMMET067METAR ETSI 122120Z 08002KT 4000 VCFG MIFG FEW001 M03/M03 Q1020 GRN=
0185108600999992014011221534+48716+011534FM-16+036699999V0200201N000519999999N003500199-00301-00301999999ADDGA1021+000301991GE19MSL   +99999+99999GF199999021990000301991991MA1102001999990MW1121MW2401REMMET082SPECI ETSI 122153Z 02001KT 3500 R25/0650N VCFG MIFG FEW001 M03/M03      Q1020 YLO=
0092108600999992014011222204+48716+011534FM-15+036699999V0209999C000019999999N000150199-00401-00401999999ADDMA1102001999990REMMET065METAR ETSI 122220Z AUTO 00000KT 0150 // ////// M04/M04 Q1020 ///=
0092108600999992014011223204+48716+011534FM-15+036699999V0200801N001519999999N000100199-00301-00301999999ADDMA1101901999990REMMET065METAR ETSI 122320Z AUTO 08003KT 0100 // ////// M03/M03 Q1019 ///=
0092108600999992014011300204+48716+011534FM-15+036699999V0209999C000019999999N000100199-00401-00401999999ADDMA1101901999990REMMET065METAR ETSI 130020Z AUTO 00000KT 0100 // ////// M04/M04 Q1019 ///=
0092108600999992014011301204+48716+011534FM-15+036699999V0201501N000519999999N000900199-00501-00501999999ADDMA1101801999990REMMET065METAR ETSI 130120Z AUTO 15001KT 0900 // ////// M05/M05 Q1018 ///=
0092108600999992014011302204+48716+011534FM-15+036699999V0209999V000519999999N005000199-00501-00501999999ADDMA1101701999990REMMET065METAR ETSI 130220Z AUTO VRB01KT 5000 // ////// M05/M05 Q1017 ///=
0092108600999992014011303204+48716+011534FM-15+036699999V0202601N002619999999N000400199-00401-00401999999ADDMA1101701999990REMMET065METAR ETSI 130320Z AUTO 26005KT 0400 // ////// M04/M04 Q1017 ///=
0168108600999992014011304204+48716+011534FM-15+036699999V0202101N000510006119N002000199-00301-00301999999ADDGA1081+000611991GE19MSL   +99999+99999GF199999081990000611991991MA1101701999990MW1101MW2401REMMET065METAR ETSI 130420Z 21001KT 2000 VCFG BR OVC002 M03/M03 Q1017 AMB=
0173108600999992014011304454+48716+011534FM-16+036699999V0202401N00051000001WN000200199-00301-00301999999ADDGA1091+000001991GE19MSL   +99999+99999GF109991091990000001991991MA1101701999990MW1481REMMET076SPECI ETSI 130445Z 24001KT 0200 R25/1100D FZFG VV000 M03/M03 Q1017      RED=
0187108600999992014011305204+48716+011534FM-15+036699999V0201801N00151000001WN000200199-00201-00201999999ADDGA1091+000001991GE19MSL   +99999+99999GF109991091990000001991991MA1101701999990MW1481REMMET090METAR ETSI 130520Z 18003KT 0200 R25/1200N FZFG VV000 M02/M02 Q1017      RED YLO TEMPO RED=
0187108600999992014011305554+48716+011534FM-16+036699999V0201701N00151000301WN000800199-00201-00201999999ADDGA1091+000301991GE19MSL   +99999+99999GF109991091990000301991991MA1101701999990MW1481REMMET090SPECI ETSI 130555Z 17003KT 0800 R25/2000U FZFG VV001 M02/M02 Q1017      RED YLO TEMPO RED=
0188108600999992014011306034+48716+011534FM-16+036699999V0201801N001010006119N001200199-00201-00201999999ADDGA1081+000611991GE19MSL   +99999+99999GF199999081990000611991991MA1101701999990MW1111REMMET091SPECI ETSI 130603Z 18002KT 1200 R25/3400U BCFG OVC002 M02/M02 Q1017      AMB YLO TEMPO RED=
0188108600999992014011306204+48716+011534FM-15+036699999V0202001N001010006119N001400199-00201-00201999999ADDGA1081+000611991GE19MSL   +99999+99999GF199999081990000611991991MA1101701999990MW1111REMMET091METAR ETSI 130620Z 20002KT 1400 R25/4500U BCFG OVC002 M02/M02 Q1017      AMB YLO TEMPO RED=
0188108600999992014011306474+48716+011534FM-16+036699999V0201801N001510003019N000800199-00101-00101999999ADDGA1081+000301991GE19MSL   +99999+99999GF199999081990000301991991MA1101701999990MW1481REMMET091SPECI ETSI 130647Z 18003KT 0800 R25/2800D FZFG OVC001 M01/M01 Q1017      RED YLO TEMPO RED=
0188108600999992014011306584+48716+011534FM-16+036699999V0201901N001510003019N000600199-00101-00101999999ADDGA1081+000301991GE19MSL   +99999+99999GF199999081990000301991991MA1101701999990MW1481REMMET091SPECI ETSI 130658Z 19003KT 0600 R25/2000D FZFG OVC001 M01/M01 Q1017      RED YLO TEMPO RED=
0188108600999992014011307204+48716+011534FM-15+036699999V0202001N001010003019N000500199-00101-00101999999ADDGA1081+000301991GE19MSL   +99999+99999GF199999081990000301991991MA1101701999990MW1481REMMET091METAR ETSI 130720Z 20002KT 0500 R25/1900N FZFG OVC001 M01/M01 Q1017      RED YLO TEMPO RED=
0188108600999992014011308044+48716+011534FM-16+036699999V0202001N001010003019N000800199+00001+00001999999ADDGA1081+000301991GE19MSL   +99999+99999GF199999081990000301991991MA1101701999990MW1481REMMET091SPECI ETSI 130804Z 20002KT 0800 R25/1800U FZFG OVC001 M00/M00 Q1017      RED YLO TEMPO RED=
0188108600999992014011308204+48716+011534FM-15+036699999V0202001N001010006119N000900199+00001+00001999999ADDGA1081+000611991GE19MSL   +99999+99999GF199999081990000611991991MA1101701999990MW1481REMMET091METAR ETSI 130820Z 20002KT 0900 R25/2000N FZFG OVC002 M00/M00 Q1017      AMB YLO TEMPO RED=
0184108600999992014011308584+48716+011534FM-16+036699999V0201701N001010009119N000900199+00001+00001999999ADDGA1081+000911991GE19MSL   +99999+99999GF199999081990000911991991MA1101701999990MW1441REMMET087SPECI ETSI 130858Z 17002KT 0900 R25/1900U FG OVC003 00/00 Q1017 AMB      YLO TEMPO RED=
0184108600999992014011309204+48716+011534FM-15+036699999V0201801N001510009119N001200199+00101+00101999999ADDGA1081+000911991GE19MSL   +99999+99999GF199999081990000911991991MA1101701999990MW1101REMMET087METAR ETSI 130920Z 18003KT 1200 R25/2100U BR OVC003 01/01 Q1017 AMB      YLO TEMPO RED=
0184108600999992014011309364+48716+011534FM-16+036699999V0201901N001510006119N001200199+00101+00101999999ADDGA1081+000611991GE19MSL   +99999+99999GF199999081990000611991991MA1101601999990MW1101REMMET087SPECI ETSI 130936Z 19003KT 1200 R25/1700D BR OVC002 01/01 Q1016 AMB      YLO TEMPO RED=
0184108600999992014011310204+48716+011534FM-15+036699999V0201801N002110006119N000900199+00201+00201999999ADDGA1081+000611991GE19MSL   +99999+99999GF199999081990000611991991MA1101601999990MW1441REMMET087METAR ETSI 131020Z 18004KT 0900 R25/1200N FG OVC002 02/02 Q1016 AMB      YLO TEMPO RED=
0183108600999992014011310554+48716+011534FM-16+036699999V0201701N00211000611WN000500199+00101+00101999999ADDGA1091+000611991GE19MSL   +99999+99999GF109991091990000611991991MA1101601999990MW1441REMMET086SPECI ETSI 131055Z 17004KT 0500 R25/1100N FG VV002 01/01 Q1016 RED      YLO TEMPO RED=
0183108600999992014011311204+48716+011534FM-15+036699999V0202001N00151000611WN000600199+00101+00101999999ADDGA1091+000611991GE19MSL   +99999+99999GF109991091990000611991991MA1101601999990MW1441REMMET086METAR ETSI 131120Z 20003KT 0600 R25/1500U FG VV002 01/01 Q1016 RED      YLO TEMPO RED=
0183108600999992014011312204+48716+011534FM-15+036699999V0201401N00151000611WN000600199+00101+00101999999ADDGA1091+000611991GE19MSL   +99999+99999GF109991091990000611991991MA1101501999990MW1441REMMET086METAR ETSI 131220Z 14003KT 0600 R25/1000N FG VV002 01/01 Q1015 RED      YLO TEMPO RED=
0207108600999992014011313084+48716+011534FM-16+036699999V0201401N001510006119N001100199+00101+00101999999ADDGA1041+000301991GA2081+000611991GE19MSL   +99999+99999GF199999041990000301991991MA1101401999990MW1101REMMET094SPECI ETSI 131308Z 14003KT 1100 R25/2400U BR SCT001 OVC002 01/01 Q1014      AMB YLO TEMPO RED=
0207108600999992014011313204+48716+011534FM-15+036699999V0201201N001510006119N001000199+00101+00101999999ADDGA1021+000301991GA2081+000611991GE19MSL   +99999+99999GF199999021990000301991991MA1101401999990MW1101REMMET094METAR ETSI 131320Z 12003KT 1000 R25/0900D BR FEW001 OVC002 01/01 Q1014      AMB YLO TEMPO RED=
0183108600999992014011313294+48716+011534FM-16+036699999V0201201N00151000301WN000500199+00101+00101999999ADDGA1091+000301991GE19MSL   +99999+99999GF109991091990000301991991MA1101401999990MW1441REMMET086SPECI ETSI 131329Z 12003KT 0500 R25/2000U FG VV001 01/01 Q1014 RED      YLO TEMPO RED=
0183108600999992014011313414+48716+011534FM-16+036699999V0201701N00101000611WN000700199+00101+00101999999ADDGA1091+000611991GE19MSL   +99999+99999GF109991091990000611991991MA1101401999990MW1441REMMET086SPECI ETSI 131341Z 17002KT 0700 R25/2200D FG VV002 01/01 Q1014 RED      YLO TEMPO RED=
0183108600999992014011314084+48716+011534FM-16+036699999V0202301N00051000611WN000400199+00101+00101999999ADDGA1091+000611991GE19MSL   +99999+99999GF109991091990000611991991MA1101401999990MW1441REMMET086SPECI ETSI 131408Z 23001KT 0400 R25/0700N FG VV002 01/01 Q1014 RED      YLO TEMPO RED=
0183108600999992014011314204+48716+011534FM-15+036699999V0209999V00101000301WN000300199+00101+00101999999ADDGA1091+000301991GE19MSL   +99999+99999GF109991091990000301991991MA1101401999990MW1441REMMET086METAR ETSI 131420Z VRB02KT 0300 R25/0750N FG VV001 01/01 Q1014 RED      YLO TEMPO RED=
0183108600999992014011315204+48716+011534FM-15+036699999V0200801N00101000301WN000200199+00101+00101999999ADDGA1091+000301991GE19MSL   +99999+99999GF109991091990000301991991MA1101401999990MW1441REMMET086METAR ETSI 131520Z 08002KT 0200 R25/0650N FG VV001 01/01 Q1014 RED      YLO TEMPO RED=
0181108600999992014011316204+48716+011534FM-15+036699999V0201301N00101000301WN000200199+00101+00101999999ADDGA1091+000301991GE19MSL   +99999+99999GF109991091990000301991991MA1101301999990MW1441REMMET084METAR ETSI 131620Z 13002KT 0200 R25/0700N FG VV001 01/01 Q1013 RED      FCST CANCEL=
0164108600999992014011317204+48716+011534FM-15+036699999V0201101N00101000301WN000200199+00101+00101999999ADDGA1091+000301991GE19MSL   +99999+99999GF109991091990000301991991MA1101301999990MW1441REMMET067METAR ETSI 131720Z 11002KT 0200 R25/0750N FG VV001 01/01 Q1013 RED=
0164108600999992014011317464+48716+011534FM-16+036699999V0201401N00101000611WN000400199+00101+00101999999ADDGA1091+000611991GE19MSL   +99999+99999GF109991091990000611991991MA1101301999990MW1441REMMET067SPECI ETSI 131746Z 14002KT 0400 R25/0900U FG VV002 01/01 Q1013 RED=
0090108600999992014011318204+48716+011534FM-15+036699999V0200801N001019999999N000250199+00101+00101999999ADDMA1101301999990REMMET063METAR ETSI 131820Z AUTO 08002KT 0250 // ////// 01/01 Q1013 ///=
0090108600999992014011319204+48716+011534FM-15+036699999V0200901N001019999999N000700199+00001+00001999999ADDMA1101301999990REMMET063METAR ETSI 131920Z AUTO 09002KT 0700 // ////// 00/00 Q1013 ///=
0090108600999992014011320204+48716+011534FM-15+036699999V0200201N000519999999N000600199+00001+00001999999ADDMA1101201999990REMMET063METAR ETSI 132020Z AUTO 02001KT 0600 // ////// 00/00 Q1012 ///=
0090108600999992014011321204+48716+011534FM-15+036699999V0209999C000019999999N000200199+00001+00001999999ADDMA1101201999990REMMET063METAR ETSI 132120Z AUTO 00000KT 0200 // ////// 00/00 Q1012 ///=
0092108600999992014011322204+48716+011534FM-15+036699999V0209999C000019999999N000150199+00001+00001999999ADDMA1101101999990REMMET065METAR ETSI 132220Z AUTO 00000KT 0150 // ////// M00/M00 Q1011 ///=
0091108600999992014011323204+48716+011534FM-15+036699999V0209999V000519999999N001000199+00001+00001999999ADDMA1101001999990REMMET064METAR ETSI 132320Z AUTO VRB01KT 1000 // ////// 00/M00 Q1010 ///=
0091108600999992014011400204+48716+011534FM-15+036699999V0209999C000019999999N002400199+00001+00001999999ADDMA1101001999990REMMET064METAR ETSI 140020Z AUTO 00000KT 2400 // ////// 00/M00 Q1010 ///=
0090108600999992014011401204+48716+011534FM-15+036699999V0200501N001019999999N001300199+00001+00001999999ADDMA1100901999990REMMET063METAR ETSI 140120Z AUTO 05002KT 1300 // ////// 00/00 Q1009 ///=
0090108600999992014011402204+48716+011534FM-15+036699999V0209999V000519999999N002400199+00001+00001999999ADDMA1100901999990REMMET063METAR ETSI 140220Z AUTO VRB01KT 2400 // ////// 00/00 Q1009 ///=
0090108600999992014011403204+48716+011534FM-15+036699999V0200301N001019999999N002600199+00001+00001999999ADDMA1100801999990REMMET063METAR ETSI 140320Z AUTO 03002KT 2600 // ////// 00/00 Q1008 ///=
0155108600999992014011404204+48716+011534FM-15+036699999V0200601N001010012219N003000199+00001+00001999999ADDGA1081+001221991GE19MSL   +99999+99999GF199999081990001221991991MA1100701999990MW1101REMMET058METAR ETSI 140420Z 06002KT 3000 BR OVC004 00/00 Q1007 YLO=
0207108600999992014011405204+48716+011534FM-15+036699999V0200201N001510012219N003000199+00001+00001999999ADDGA1041+000611991GA2081+001221991GE19MSL   +99999+99999GF199999041990000611991991MA1100701999990MW1101MW2611REMMET088METAR ETSI 140520Z 02003KT 3000 -RA BR SCT002 OVC004 00/00 Q1007 YLO      YLO TEMPO AMB=
0207108600999992014011406204+48716+011534FM-15+036699999V0200601N001510018319N002500199+00001+00001999999ADDGA1041+000611991GA2081+001831991GE19MSL   +99999+99999GF199999041990000611991991MA1100601999990MW1101MW2611REMMET088METAR ETSI 140620Z 06003KT 2500 -RA BR SCT002 OVC006 00/00 Q1006 YLO      YLO TEMPO AMB=
0217108600999992014011406534+48716+011534FM-16+036699999V0200501N001010009119N001800199+00001+00001999999ADDGA1071+000911991GA2081+002131991GE19MSL   +99999+99999GF199999071990000911991991MA1100601999990MW1101MW2611REMMET098SPECI ETSI 140653Z 05002KT 1800 R25/6000D -RA BR BKN003 OVC007 00/00      Q1006 YLO YLO TEMPO AMB=
0217108600999992014011407204+48716+011534FM-15+036699999V0200201N001010009119N001800199+00001+00001999999ADDGA1071+000911991GA2081+001831991GE19MSL   +99999+99999GF199999071990000911991991MA1100601999990MW1101MW2611REMMET098METAR ETSI 140720Z 02002KT 1800 R25/4300D -RA BR BKN003 OVC006 00/00      Q1006 YLO YLO TEMPO AMB=
0219108600999992014011407284+48716+011534FM-16+036699999V0200201N001510018319N000800199+00001+00001999999ADDGA1041+000911991GA2081+001831991GE19MSL   +99999+99999GF199999041990000911991991MA1100701999990MW1111MW2611REMMET100SPECI ETSI 140728Z 02003KT 0800 R25/4700N -RA PRFG SCT003 OVC006 00/00      Q1007 AMB YLO TEMPO AMB=
0219108600999992014011407484+48716+011534FM-16+036699999V0200501N001010021319N001600199+00001+00001999999ADDGA1041+000911991GA2081+002131991GE19MSL   +99999+99999GF199999041990000911991991MA1100701999990MW1401MW2611REMMET100SPECI ETSI 140748Z 05002KT 1600 R25/4200D -RA VCFG SCT003 OVC007 00/00      Q1007 YLO YLO TEMPO AMB=
0207108600999992014011408204+48716+011534FM-15+036699999V0200601N001010009119N002000199+00001+00001999999ADDGA1071+000911991GA2081+002131991GE19MSL   +99999+99999GF199999071990000911991991MA1100701999990MW1101MW2611REMMET088METAR ETSI 140820Z 06002KT 2000 -RA BR BKN003 OVC007 00/00 Q1007 YLO      YLO TEMPO AMB=
0230108600999992014011409204+48716+011534FM-15+036699999V0200101N001010009119N002500199+00101+00101999999ADDGA1071+000911991GA2071+001831991GA3071+003661991GE19MSL   +99999+99999GF199999071990000911991991MA1100601999990MW1101MW2611REMMET095METAR ETSI 140920Z 01002KT 2500 -RA BR BKN003 BKN006 BKN012 01/01 Q1006      YLO YLO TEMPO AMB=
0209108600999992014011410064+48716+011534FM-16+036699999V0200501N000510009119N003000199+00101+00101999999ADDGA1071+000911991GA2071+001831991GE19MSL   +99999+99999GF199999071990000911991991MA1100601999990MW1101MW2581REMMET090SPECI ETSI 141006Z 05001KT 3000 -RADZ BR BKN003 BKN006 01/01 Q1006      YLO YLO TEMPO AMB=
0209108600999992014011410204+48716+011534FM-15+036699999V0200301N001010009119N003000199+00101+00101999999ADDGA1071+000911991GA2071+001831991GE19MSL   +99999+99999GF199999071990000911991991MA1100501999990MW1101MW2581REMMET090METAR ETSI 141020Z 03002KT 3000 -RADZ BR BKN003 BKN006 01/01 Q1005      YLO YLO TEMPO AMB=
0209108600999992014011410384+48716+011534FM-16+036699999V0200201N000510009119N002500199+00101+00101999999ADDGA1071+000911991GA2071+001831991GE19MSL   +99999+99999GF199999071990000911991991MA1100501999990MW1101MW2581REMMET090SPECI ETSI 141038Z 02001KT 2500 -RADZ BR BKN003 BKN006 01/01 Q1005      YLO YLO TEMPO AMB=
0186108600999992014011411204+48716+011534FM-15+036699999V0203301N000510009119N002500199+00101+00101999999ADDGA1071+000911991GE19MSL   +99999+99999GF199999071990000911991991MA1100501999990MW1101MW2581REMMET083METAR ETSI 141120Z 33001KT 2500 -RADZ BR BKN003 01/01 Q1005 YLO YLO      TEMPO AMB=
0199108600999992014011412204+48716+011534FM-15+036699999V0203201N001010009119N002800199+00201+00101999999ADDGA1071+000911991GA2081+001831991GE19MSL   +99999+99999GF199999071990000911991991MA1100501999990MW1101MW2581REMMET080METAR ETSI 141220Z 32002KT 2800 -RADZ BR BKN003 OVC006 02/01 Q1005      YLO YLO=
0220108600999992014011413204+48716+011534FM-15+036699999V0203001N001010009119N002200199+00201+00201999999ADDGA1071+000911991GA2071+002131991GA3071+003051991GE19MSL   +99999+99999GF199999071990000911991991MA1100501999990MW1101MW2611REMMET085METAR ETSI 141320Z 30002KT 2200 -RA BR BKN003 BKN007 BKN010 02/02 Q1005      YLO YLO=
0222108600999992014011414204+48716+011534FM-15+036699999V0202401N001510009119N002200199+00201+00201999999ADDGA1071+000911991GA2071+001521991GA3081+003351991GE19MSL   +99999+99999GF199999071990000911991991MA1100501999990MW1101MW2581REMMET087METAR ETSI 141420Z 24003KT 2200 -RADZ BR BKN003 BKN005 OVC011 02/02      Q1005 YLO YLO=
0222108600999992014011415104+48716+011534FM-16+036699999V0202401N001510009119N003000199+00201+00201999999ADDGA1071+000911991GA2071+001831991GA3081+003351991GE19MSL   +99999+99999GF199999071990000911991991MA1100501999990MW1101MW2581REMMET087SPECI ETSI 141510Z 24003KT 3000 -RADZ BR BKN003 BKN006 OVC011 02/02      Q1005 YLO YLO=
0220108600999992014011415204+48716+011534FM-15+036699999V0202401N001510009119N003200199+00201+00201999999ADDGA1071+000911991GA2071+001831991GA3081+003351991GE19MSL   +99999+99999GF199999071990000911991991MA1100501999990MW1101MW2611REMMET085METAR ETSI 141520Z 24003KT 3200 -RA BR BKN003 BKN006 OVC011 02/02 Q1005      YLO YLO=
0220108600999992014011416204+48716+011534FM-15+036699999V0202801N003110018319N005000199+00201+00201999999ADDGA1021+000911991GA2071+001831991GA3081+003051991GE19MSL   +99999+99999GF199999021990000911991991MA1100601999990MW1101MW2611REMMET085METAR ETSI 141620Z 28006KT 5000 -RA BR FEW003 BKN006 OVC010 02/02 Q1006      YLO YLO=
0207108600999992014011417204+48716+011534FM-15+036699999V0202301N001510024419N007000199+00201+00201999999ADDGA1021+001221991GA2071+002441991GA3081+003051991GE19MSL   +99999+99999GF199999021990001221991991MA1100701999990MW1611REMMET078METAR ETSI 141720Z 23003KT 7000 -RA FEW004 BKN008 OVC010 02/02 Q1007      GRN=
0090108600999992014011418204+48716+011534FM-15+036699999V0202201N001019999999N005000199+00101+00101999999ADDMA1100701999990REMMET063METAR ETSI 141820Z AUTO 22002KT 5000 // ////// 01/01 Q1007 ///=
0090108600999992014011419204+48716+011534FM-15+036699999V0202001N001519999999N004800199+00101+00101999999ADDMA1100801999990REMMET063METAR ETSI 141920Z AUTO 20003KT 4800 // ////// 01/01 Q1008 ///=
0090108600999992014011420204+48716+011534FM-15+036699999V0202401N001519999999N004400199+00201+00201999999ADDMA1100801999990REMMET063METAR ETSI 142020Z AUTO 24003KT 4400 // ////// 02/02 Q1008 ///=
0090108600999992014011421204+48716+011534FM-15+036699999V0202301N002119999999N005000199+00201+00201999999ADDMA1100901999990REMMET063METAR ETSI 142120Z AUTO 23004KT 5000 // ////// 02/02 Q1009 ///=
0090108600999992014011422204+48716+011534FM-15+036699999V0202101N001519999999N004300199+00201+00201999999ADDMA1100901999990REMMET063METAR ETSI 142220Z AUTO 21003KT 4300 // ////// 02/02 Q1009 ///=
0090108600999992014011423204+48716+011534FM-15+036699999V0202201N002119999999N004500199+00301+00301999999ADDMA1101001999990REMMET063METAR ETSI 142320Z AUTO 22004KT 4500 // ////// 03/03 Q1010 ///=
0090108600999992014011500204+48716+011534FM-15+036699999V0202501N003119999999N006000199+00301+00301999999ADDMA1101001999990REMMET063METAR ETSI 150020Z AUTO 25006KT 6000 // ////// 03/03 Q1010 ///=
0090108600999992014011501204+48716+011534FM-15+036699999V0202401N002619999999N005000199+00301+00301999999ADDMA1101101999990REMMET063METAR ETSI 150120Z AUTO 24005KT 5000 // ////// 03/03 Q1011 ///=
0090108600999992014011502204+48716+011534FM-15+036699999V0202601N003119999999N006000199+00301+00301999999ADDMA1101101999990REMMET063METAR ETSI 150220Z AUTO 26006KT 6000 // ////// 03/03 Q1011 ///=
0090108600999992014011503204+48716+011534FM-15+036699999V0202901N004619999999N009999199+00301+00101999999ADDMA1101201999990REMMET063METAR ETSI 150320Z AUTO 29009KT 9999 // ////// 03/01 Q1012 ///=
0169108600999992014011504204+48716+011534FM-15+036699999V0202701N001510152419N009999199+00201+00101999999ADDGA1041+009141991GA2071+015241991GE19MSL   +99999+99999GF199999041990009141991991MA1101201999990REMMET062METAR ETSI 150420Z 27003KT 9999 SCT030 BKN050 02/01 Q1012 BLU=
0189108600999992014011505204+48716+011534FM-15+036699999V0202101N00151015241CN009999199+00001+00001999999ADDGA1021+009141991GA2041+015241991GE19MSL   +99999+99999GF199999021990009141991991MA1101201999990REMMET082METAR ETSI 150520Z 21003KT 9999 FEW030 SCT050 00/M00 Q1012 BLU/BLU      TEMPO YLO=
0189108600999992014011506204+48716+011534FM-15+036699999V0202001N001019999999N009999199+00001+00001999999ADDGA1021+010671991GE19MSL   +99999+99999GF199999021990010671991991MA1101201999990MW1121MW2401REMMET086METAR ETSI 150620Z 20002KT 9999 VCFG MIFG FEW035 M00/M00 Q1012 BLU/BLU      TEMPO YLO=
0188108600999992014011507204+48716+011534FM-15+036699999V0202101N001010121919N009999199+00001+00001999999ADDGA1041+006101991GA2071+012191991GE19MSL   +99999+99999GF199999041990006101991991MA1101301999990REMMET081METAR ETSI 150720Z 21002KT 9999 SCT020 BKN040 00/00 Q1013 BLU BLU TEMPO      YLO=
0151108600999992014011508204+48716+011534FM-15+036699999V0202101N001019999999N008000199+00101+00101999999ADDGA1021+006101991GE19MSL   +99999+99999GF199999021990006101991991MA1101301999990REMMET060METAR ETSI 150820Z 21002KT 8000 FEW020 01/01 Q1013 BLU/BLU/=
0151108600999992014011509204+48716+011534FM-15+036699999V0202601N003119999999N009999199+00301+00201999999ADDGA1021+001831991GE19MSL   +99999+99999GF199999021990001831991991MA1101301999990REMMET060METAR ETSI 150920Z 26006KT 9999 FEW006 03/02 Q1013 BLU/BLU/=
0151108600999992014011510204+48716+011534FM-15+036699999V0202701N005719999999N009999199+00301+00101999999ADDGA1021+003051991GE19MSL   +99999+99999GF199999021990003051991991MA1101301999990REMMET060METAR ETSI 151020Z 27011KT 9999 FEW010 03/01 Q1013 BLU/BLU/=
0152108600999992014011511204+48716+011534FM-15+036699999V0202701N003619999999N009999199+00401+00001999999ADDGA1021+006101991GE19MSL   +99999+99999GF199999021990006101991991MA1101301999990REMMET061METAR ETSI 151120Z 27007KT 9999 FEW020 04/M00 Q1013 BLU/BLU/=
0152108600999992014011512204+48716+011534FM-15+036699999V0203001N003119999999N009999199+00501-00101999999ADDGA1021+009141991GE19MSL   +99999+99999GF199999021990009141991991MA1101201999990REMMET061METAR ETSI 151220Z 30006KT 9999 FEW030 05/M01 Q1012 BLU/BLU/=
0152108600999992014011513204+48716+011534FM-15+036699999V0202201N002119999999N009999199+00501-00101999999ADDGA1021+009141991GE19MSL   +99999+99999GF199999021990009141991991MA1101201999990REMMET061METAR ETSI 151320Z 22004KT 9999 FEW030 05/M01 Q1012 BLU/BLU/=
0174108600999992014011514204+48716+011534FM-15+036699999V0202201N00361009141CN009999199+00501+00001999999ADDGA1021+006101991GA2041+009141991GE19MSL   +99999+99999GF199999021990006101991991MA1101201999990REMMET067METAR ETSI 151420Z 22007KT 9999 FEW020 SCT030 05/00 Q1012 BLU/BLU/=
0175108600999992014011515204+48716+011534FM-15+036699999V0202001N00211079251CN009999199+00301+00001999999ADDGA1021+006101991GA2041+079251991GE19MSL   +99999+99999GF199999021990006101991991MA1101201999990REMMET068METAR ETSI 151520Z 20004KT 9999 FEW020 SCT260 03/M00 Q1012 BLU/BLU/=
0170108600999992014011516204+48716+011534FM-15+036699999V0201801N001019999999N009999199+00101+00001999999ADDGA1041+042671991GE19MSL   +99999+99999GF199999041990042671991991MA1101201999990MW1121REMMET073METAR ETSI 151620Z 18002KT 9999 MIFG SCT140 01/M00 Q1012 BLU/FCST CANCEL=
0170108600999992014011517204+48716+011534FM-15+036699999V0201601N001010426719N009999199+00001-00101999999ADDGA1041+030481991GA2071+042671991GE19MSL   +99999+99999GF199999041990030481991991MA1101201999990REMMET063METAR ETSI 151720Z 16002KT 9999 SCT100 BKN140 00/M01 Q1012 BLU=
0090108600999992014011518204+48716+011534FM-15+036699999V0201101N001019999999N009999199+00101+00001999999ADDMA1101201999990REMMET063METAR ETSI 151820Z AUTO 11002KT 9999 // ////// 01/00 Q1012 ///=
0147108600999992014011518274+48716+011534FM-16+036699999V0201101N001010243819N009999199+00101+00001999999ADDGA1071+024381991GE19MSL   +99999+99999GF199999071990024381991991MA1101201999990REMMET056SPECI ETSI 151827Z 11002KT 9999 BKN080 01/M00 Q1012 BLU=
0146108600999992014011519204+48716+011534FM-15+036699999V0201401N001510228619N009999199+00101+00001999999ADDGA1071+022861991GE19MSL   +99999+99999GF199999071990022861991991MA1101101999990REMMET055METAR ETSI 151920Z 14003KT 9999 BKN075 01/00 Q1011 BLU=
0192108600999992014011520204+48716+011534FM-15+036699999V0201601N001010243819N009999199+00101+00001999999ADDGA1021+015241991GA2071+024381991GA3071+039621991GE19MSL   +99999+99999GF199999021990015241991991MA1101101999990REMMET069METAR ETSI 152020Z 16002KT 9999 FEW050 BKN080 BKN130 01/00 Q1011 BLU=
0090108600999992014011521204+48716+011534FM-15+036699999V0209999V000519999999N008000199+00101+00001999999ADDMA1101101999990REMMET063METAR ETSI 152120Z AUTO VRB01KT 8000 // ////// 01/00 Q1011 ///=
0091108600999992014011522204+48716+011534FM-15+036699999V0201401N001019999999N008000199+00001+00001999999ADDMA1101001999990REMMET064METAR ETSI 152220Z AUTO 14002KT 8000 // ////// 00/M00 Q1010 ///=
0090108600999992014011523204+48716+011534FM-15+036699999V0201301N001019999999N007000199+00101+00001999999ADDMA1101001999990REMMET063METAR ETSI 152320Z AUTO 13002KT 7000 // ////// 01/00 Q1010 ///=
0090108600999992014011600204+48716+011534FM-15+036699999V0201701N001519999999N009999199+00201+00101999999ADDMA1100901999990REMMET063METAR ETSI 160020Z AUTO 17003KT 9999 // ////// 02/01 Q1009 ///=
0090108600999992014011601204+48716+011534FM-15+036699999V0201501N001519999999N009999199+00301+00101999999ADDMA1100901999990REMMET063METAR ETSI 160120Z AUTO 15003KT 9999 // ////// 03/01 Q1009 ///=
0090108600999992014011602204+48716+011534FM-15+036699999V0203101N001019999999N009999199+00201+00101999999ADDMA1101001999990REMMET063METAR ETSI 160220Z AUTO 31002KT 9999 // ////// 02/01 Q1010 ///=
0090108600999992014011603204+48716+011534FM-15+036699999V0201301N000519999999N004200199+00201+00101999999ADDMA1100901999990REMMET063METAR ETSI 160320Z AUTO 13001KT 4200 // ////// 02/01 Q1009 ///=
0146108600999992014011604204+48716+011534FM-15+036699999V0201401N002110109719N009999199+00201+00101999999ADDGA1081+010971991GE19MSL   +99999+99999GF199999081990010971991991MA1100901999990REMMET055METAR ETSI 160420Z 14004KT 9999 OVC036 02/01 Q1009 BLU=
0211108600999992014011605204+48716+011534FM-15+036699999V0200801N001510128019N009999199+00201+00101999999ADDGA1041+010971991GA2071+012801991GA3071+021341991GE19MSL   +99999+99999GF199999041990010971991991MA1100801999990MW1611REMMET082METAR ETSI 160520Z 08003KT 9999 -RA SCT036 BKN042 BKN070 02/01 Q1008      BLU BLU=
0201108600999992014011606204+48716+011534FM-15+036699999V0200901N00051013721CN009999199+00101+00101999999ADDGA1021+010671991GA2041+013721991GA3071+030481991GE19MSL   +99999+99999GF199999021990010671991991MA1100801999990REMMET078METAR ETSI 160620Z 09001KT 9999 FEW035 SCT045 BKN100 01/01 Q1008 BLU      BLU=
0201108600999992014011607204+48716+011534FM-15+036699999V0201001N001510304819N009999199+00101+00101999999ADDGA1021+021341991GA2071+030481991GA3071+045721991GE19MSL   +99999+99999GF199999021990021341991991MA1100801999990REMMET078METAR ETSI 160720Z 10003KT 9999 FEW070 BKN100 BKN150 01/01 Q1008 BLU      BLU=
0201108600999992014011608204+48716+011534FM-15+036699999V0200701N00261030481CN009999199+00201+00101999999ADDGA1041+015241991GA2041+030481991GA3071+042671991GE19MSL   +99999+99999GF199999041990015241991991MA1100801999990REMMET078METAR ETSI 160820Z 07005KT 9999 SCT050 SCT100 BKN140 02/01 Q1008 BLU      BLU=
0211108600999992014011609204+48716+011534FM-15+036699999V0200601N002610152419N009999199+00301+00101999999ADDGA1071+015241991GA2041+030481991GA3071+042671991GE19MSL   +99999+99999GF199999071990015241991991MA1100801999990MW1611REMMET082METAR ETSI 160920Z 06005KT 9999 -RA BKN050 SCT100 BKN140 03/01 Q1008      BLU BLU=
0201108600999992014011610204+48716+011534FM-15+036699999V0201201N001510243819N009999199+00501+00201999999ADDGA1041+015241991GA2071+024381991GA3071+033531991GE19MSL   +99999+99999GF199999041990015241991991MA1100701999990REMMET078METAR ETSI 161020Z 12003KT 9999 SCT050 BKN080 BKN110 05/02 Q1007 BLU      BLU=
0201108600999992014011611204+48716+011534FM-15+036699999V0201501N001510335319N009999199+00501+00201999999ADDGA1021+018291991GA2071+033531991GA3071+054861991GE19MSL   +99999+99999GF199999021990018291991991MA1100701999990REMMET078METAR ETSI 161120Z 15003KT 9999 FEW060 BKN110 BKN180 05/02 Q1007 BLU      BLU=
0201108600999992014011612204+48716+011534FM-15+036699999V0201401N002110335319N009999199+00601+00201999999ADDGA1041+018291991GA2071+033531991GA3071+045721991GE19MSL   +99999+99999GF199999041990018291991991MA1100601999990REMMET078METAR ETSI 161220Z 14004KT 9999 SCT060 BKN110 BKN150 06/02 Q1006 BLU      BLU=
0173108600999992014011613204+48716+011534FM-15+036699999V0201001N001510304819N009999199+00601+00201999999ADDGA1021+018291991GA2071+030481991GE19MSL   +99999+99999GF199999021990018291991991MA1100601999990REMMET066METAR ETSI 161320Z 10003KT 9999 FEW060 BKN100 06/02 Q1006 BLU BLU=
0201108600999992014011614204+48716+011534FM-15+036699999V0200901N00261024381CN009999199+00501+00201999999ADDGA1021+015241991GA2041+024381991GA3071+030481991GE19MSL   +99999+99999GF199999021990015241991991MA1100501999990REMMET078METAR ETSI 161420Z 09005KT 9999 FEW050 SCT080 BKN100 05/02 Q1005 BLU      BLU=
0173108600999992014011615204+48716+011534FM-15+036699999V0200901N002110274319N009999199+00401+00201999999ADDGA1071+027431991GA2071+036581991GE19MSL   +99999+99999GF199999071990027431991991MA1100501999990REMMET066METAR ETSI 161520Z 09004KT 9999 BKN090 BKN120 04/02 Q1005 BLU BLU=
0209108600999992014011616004+48716+011534FM-16+036699999V0200801N003110274319N009999199+00401+00201999999ADDGA1071+027431991GA2041+036581991GA3071+073151991GE19MSL   +99999+99999GF199999071990027431991991MA1100401999990REMMET086SPECI ETSI 161600Z 08006KT 9999 BKN090 SCT120 BKN240 04/02 Q1004 BLU      FCST CANCEL=
0192108600999992014011616204+48716+011534FM-15+036699999V0200501N002110396219N009999199+00401+00201999999ADDGA1041+027431991GA2071+039621991GA3071+060961991GE19MSL   +99999+99999GF199999041990027431991991MA1100401999990REMMET069METAR ETSI 161620Z 05004KT 9999 SCT090 BKN130 BKN200 04/02 Q1004 BLU=
0192108600999992014011617204+48716+011534FM-15+036699999V0200801N003110396219N009999199+00301+00101999999ADDGA1021+027431991GA2071+039621991GA3071+064011991GE19MSL   +99999+99999GF199999021990027431991991MA1100401999990REMMET069METAR ETSI 161720Z 08006KT 9999 FEW090 BKN130 BKN210 03/01 Q1004 BLU=
0193108600999992014011618204+48716+011534FM-15+036699999V0200401N00151036581CN009999199+00301+00101999999ADDGA1021+027431991GA2041+036581991GA3071+067061991GE19MSL   +99999+99999GF199999021990027431991991MA1100401999990REMMET070METAR ETSI 161820Z 04003KT 9999 FEW090 SCT120 BKN220 03/01 Q1004 BLU/=
0169108600999992014011619204+48716+011534FM-15+036699999V0203301N002110335319N009999199+00201+00201999999ADDGA1041+024381991GA2071+033531991GE19MSL   +99999+99999GF199999041990024381991991MA1100501999990REMMET062METAR ETSI 161920Z 33004KT 9999 SCT080 BKN110 02/02 Q1005 BLU=
0169108600999992014011620204+48716+011534FM-15+036699999V0201301N001010274319N009999199+00201+00101999999ADDGA1041+021341991GA2071+027431991GE19MSL   +99999+99999GF199999041990021341991991MA1100401999990REMMET062METAR ETSI 162020Z 13002KT 9999 SCT070 BKN090 02/01 Q1004 BLU=
0090108600999992014011621204+48716+011534FM-15+036699999V0201901N000519999999N005000199+00201+00101999999ADDMA1100501999990REMMET063METAR ETSI 162120Z AUTO 19001KT 5000 // ////// 02/01 Q1005 ///=
0090108600999992014011622204+48716+011534FM-15+036699999V0202001N000519999999N004800199+00101+00101999999ADDMA1100601999990REMMET063METAR ETSI 162220Z AUTO 20001KT 4800 // ////// 01/01 Q1006 ///=
0090108600999992014011623204+48716+011534FM-15+036699999V0202101N001519999999N002500199+00101+00101999999ADDMA1100601999990REMMET063METAR ETSI 162320Z AUTO 21003KT 2500 // ////// 01/01 Q1006 ///=
0090108600999992014011700204+48716+011534FM-15+036699999V0201501N001519999999N005000199+00101+00101999999ADDMA1100601999990REMMET063METAR ETSI 170020Z AUTO 15003KT 5000 // ////// 01/01 Q1006 ///=
0090108600999992014011701204+48716+011534FM-15+036699999V0200401N001019999999N004600199+00201+00201999999ADDMA1100601999990REMMET063METAR ETSI 170120Z AUTO 04002KT 4600 // ////// 02/02 Q1006 ///=
0090108600999992014011702204+48716+011534FM-15+036699999V0202001N001519999999N008000199+00201+00201999999ADDMA1100601999990REMMET063METAR ETSI 170220Z AUTO 20003KT 8000 // ////// 02/02 Q1006 ///=
