0167109470999992010010109204+47983+010233FM-15+0629EDJA V0209999C000010096019N0008001N1+00101+00101999999ADDGA1071+009601999GA2071+015001999GF107991999999999999999999MA1098981999999MW1441REMMET076METAR EDJA 010920Z 00000KT 0800 R24/0800V1500U FG BKN032 BKN051 01/01 Q0990;
0152109470999992010010109504+47983+010233FM-15+0629EDJA V0202101N001010096019N0020001N1+00101+00101999999ADDGA1071+009601999GA2071+015001999GF107991999999999999999999MA1098981999999MW1101REMMET061METAR EDJA 010950Z 21002KT 2000 BR BKN032 BKN051 01/01 Q0990;
0129109470999992010010110204+47983+010233FM-15+0629EDJA V0202401N001010105019N0044001N1+00201+00201999999ADDGA1071+010501999GF107991999999999999999999MA1098981999999MW1101REMMET054METAR EDJA 011020Z 24002KT 4400 BR BKN035 02/02 Q0990;
0152109470999992010010110504+47983+010233FM-15+0629EDJA V0203101N000510105019N0036001N1+00201+00201999999ADDGA1041+008701999GA2071+010501999GF107991999999999999999999MA1098981999999MW1101REMMET061METAR EDJA 011050Z 31001KT 3600 BR SCT029 BKN035 02/02 Q0990;
0129109470999992010010111204+47983+010233FM-15+0629EDJA V0209999V000510105019N0044001N1+00201+00201999999ADDGA1071+010501999GF107991999999999999999999MA1098981999999MW1101REMMET054METAR EDJA 011120Z VRB01KT 4400 BR BKN035 02/02 Q0990;
0152109470999992010010111504+47983+010233FM-15+0629EDJA V0209999V001010090019N0047001N1+00301+00301999999ADDGA1071+009001999GA2071+015001999GF107991999999999999999999MA1098981999999MW1101REMMET061METAR EDJA 011150Z VRB02KT 4700 BR BKN030 BKN051 03/03 Q0990;
0152109470999992010010112204+47983+010233FM-15+0629EDJA V0203101N001010093019N0049001N1+00301+00201999999ADDGA1071+009301999GA2071+015001999GF107991999999999999999999MA1098981999999MW1101REMMET061METAR EDJA 011220Z 31002KT 4900 BR BKN031 BKN052 03/02 Q0990;
0152109470999992010010112504+47983+010233FM-15+0629EDJA V0209999V001010096019N0031001N1+00301+00301999999ADDGA1041+001501999GA2071+009601999GF107991999999999999999999MA1098981999999MW1101REMMET061METAR EDJA 011250Z VRB02KT 3100 BR SCT005 BKN032 03/03 Q0990;
0129109470999992010010113204+47983+010233FM-15+0629EDJA V0200301N001510012019N0033001N1+00301+00301999999ADDGA1071+001201999GF107991999999999999999999MA1099091999999MW1101REMMET054METAR EDJA 011320Z 03003KT 3300 BR BKN004 03/03 Q0991;
0152109470999992010010113504+47983+010233FM-15+0629EDJA V0200401N002110012019N0050001N1+00301+00301999999ADDGA1071+001201999GA2071+009301999GF107991999999999999999999MA1099091999999MW1101REMMET061METAR EDJA 011350Z 04004KT 5000 BR BKN004 BKN031 03/03 Q0991;
0152109470999992010010114204+47983+010233FM-15+0629EDJA V0200501N002110096019N0049001N1+00301+00201999999ADDGA1021+001201999GA2071+009601999GF107991999999999999999999MA1099191999999MW1101REMMET061METAR EDJA 011420Z 05004KT 4900 BR FEW004 BKN032 03/02 Q0992;
0129109470999992010010115204+47983+010233FM-15+0629EDJA V0203401N002110045019N0035001N1+00301+00201999999ADDGA1071+004501999GF107991999999999999999999MA1099191999999MW1101REMMET054METAR EDJA 011520Z 34004KT 3500 BR BKN015 03/02 Q0992;
0143109470999992010010116204+47983+010233FM-15+0629EDJA V0209999V000510030019N0080001N1+00301+00201999999ADDGA1071+003001999GA2071+008101999GF107991999999999999999999MA1099291999999REMMET058METAR EDJA 011620Z VRB01KT 8000 BKN010 BKN027 03/02 Q0993;
0129109470999992010010117204+47983+010233FM-15+0629EDJA V0203101N001510024019N0050001N1+00301+00201999999ADDGA1071+002401999GF107991999999999999999999MA1099391999999MW1101REMMET054METAR EDJA 011720Z 31003KT 5000 BR BKN008 03/02 Q0994;
0130109470999992010010117504+47983+010233FM-15+0629EDJA V0203101N001510024019N0035001N1+00301+00201999999ADDGA1071+002401999GF107991999999999999999999MA1099391999999MW1611REMMET055METAR EDJA 011750Z 31003KT 3500 -RA BKN008 03/02 Q0994;
0130109470999992010010118204+47983+010233FM-15+0629EDJA V0202901N001510015019N0025001N1+00301+00201999999ADDGA1071+001501999GF107991999999999999999999MA1099491999999MW1611REMMET055METAR EDJA 011820Z 29003KT 2500 -RA BKN005 03/02 Q0995;
0130109470999992010010118504+47983+010233FM-15+0629EDJA V0203201N002110012019N0050001N1+00301+00201999999ADDGA1071+001201999GF107991999999999999999999MA1099491999999MW1611REMMET055METAR EDJA 011850Z 32004KT 5000 -RA BKN004 03/02 Q0995;
0130109470999992010010119204+47983+010233FM-15+0629EDJA V0203101N003610018019N0060001N1+00201+00201999999ADDGA1071+001801999GF107991999999999999999999MA1099591999999MW1611REMMET055METAR EDJA 011920Z 31007KT 6000 -RA BKN006 02/02 Q0996;
0130109470999992010010120204+47983+010233FM-15+0629EDJA V0203001N005710015019N0050001N1+00201+00101999999ADDGA1071+001501999GF107991999999999999999999MA1099701999999MW1611REMMET055METAR EDJA 012020Z 30011KT 5000 -RA BKN005 02/01 Q0997;
0129109470999992010010120504+47983+010233FM-15+0629EDJA V0202901N005110012019N0025001N1+00001+00001999999ADDGA1071+001201999GF107991999999999999999999MA1099801999999MW1731REMMET054METAR EDJA 012050Z 29010KT 2500 SN BKN004 00/00 Q0998;
0154109470999992010010204504+47983+010233FM-15+0629EDJA V0202701N007210105019N0035001N1-00301-00301999999ADDGA1041+006301999GA2071+010501999GF107991999999999999999999MA1100711999999MW1731REMMET063METAR EDJA 020450Z 27014KT 3500 SN SCT021 BKN035 M03/M03 Q1007;
0155109470999992010010205204+47983+010233FM-15+0629EDJA V0202501N005710063019N0040001N1-00301-00301999999ADDGA1041+003001999GA2071+006301999GF107991999999999999999999MA1100711999999MW1711REMMET064METAR EDJA 020520Z 25011KT 4000 -SN SCT010 BKN021 M03/M03 Q1007;
0155109470999992010010205504+47983+010233FM-15+0629EDJA V0202501N005110030019N0112651N1-00301-00401999999ADDGA1071+003001999GA2071+009001999GF107991999999999999999999MA1100811999999MW1711REMMET064METAR EDJA 020550Z 25010KT 9999 -SN BKN010 BKN030 M03/M04 Q1008;
0132109470999992010010206204+47983+010233FM-15+0629EDJA V0202501N006210042019N0112651N1-00301-00401999999ADDGA1071+004201999GF107991999999999999999999MA1100811999999MW1711REMMET057METAR EDJA 020620Z 25012KT 9999 -SN BKN014 M03/M04 Q1008;
0132109470999992010010206504+47983+010233FM-15+0629EDJA V0202701N006710042019N0112651N1-00301-00401999999ADDGA1071+004201999GF107991999999999999999999MA1100911999999MW1711REMMET057METAR EDJA 020650Z 27013KT 9999 -SN BKN014 M03/M04 Q1009;
0155109470999992010010207204+47983+010233FM-15+0629EDJA V0202801N006210018019N0045001N1-00301-00401999999ADDGA1071+001801999GA2071+007501999GF107991999999999999999999MA1100911999999MW1711REMMET064METAR EDJA 020720Z 28012KT 4500 -SN BKN006 BKN025 M03/M04 Q1009;
0151109470999992010010207504+47983+010233FM-15+0629EDJA V0202601N005710045019N0112651N1-00301-00501999999ADDGA1071+004501999GA2071+012001999GF107991999999999999999999MA1101021999999REMMET066METAR EDJA 020750Z 26011KT 9999 -SHSN BKN015 BKN040 M03/M05 Q1010;
0122109470999992010010208204+47983+010233FM-15+0629EDJA V0202701N005110045019N0112651N1-00301-00501999999ADDGA1071+004501999GF107991999999999999999999MA1101081999999REMMET053METAR EDJA 020820Z 27010KT 9999 BKN015 M03/M05 Q1011;
0132109470999992010010209204+47983+010233FM-15+0629EDJA V0202801N007210042019N0040001N1-00301-00501999999ADDGA1071+004201999GF107991999999999999999999MA1101081999999MW1711REMMET057METAR EDJA 020920Z 28014KT 4000 -SN BKN014 M03/M05 Q1011;
0154109470999992010010209504+47983+010233FM-15+0629EDJA V0203001N008710090019N0025001N1-00401-00601999999ADDGA1041+003001999GA2071+009001999GF107991999999999999999999MA1101191999999MW1731REMMET063METAR EDJA 020950Z 30017KT 2500 SN SCT010 BKN030 M04/M06 Q1012;
0122109470999992010010210204+47983+010233FM-15+0629EDJA V0203001N007212200019N0112651N1-00401-00601999999ADDGA1041+004501999GF104991999999999999999999MA1101191999999REMMET053METAR EDJA 021020Z 30014KT 9999 SCT015 M04/M06 Q1012;
0122109470999992010010210504+47983+010233FM-15+0629EDJA V0203001N007212200019N0112651N1-00401-00701999999ADDGA1041+005701999GF104991999999999999999999MA1101291999999REMMET053METAR EDJA 021050Z 30014KT 9999 SCT019 M04/M07 Q1013;
0122109470999992010010211204+47983+010233FM-15+0629EDJA V0202901N006712200019N0112651N1-00401-00701999999ADDGA1021+003601999GF102991999999999999999999MA1101291999999REMMET053METAR EDJA 021120Z 29013KT 9999 FEW012 M04/M07 Q1013;
0122109470999992010010211504+47983+010233FM-15+0629EDJA V0202901N005112200019N0112651N1-00401-00701999999ADDGA1021+004501999GF102991999999999999999999MA1101391999999REMMET053METAR EDJA 021150Z 29010KT 9999 FEW015 M04/M07 Q1014;
0122109470999992010010212204+47983+010233FM-15+0629EDJA V0202801N003612200019N0112651N1-00401-00701999999ADDGA1021+005401999GF102991999999999999999999MA1101391999999REMMET053METAR EDJA 021220Z 28007KT 9999 FEW018 M04/M07 Q1014;
0122109470999992010010212504+47983+010233FM-15+0629EDJA V0202601N004612200019N0112651N1-00401-00701999999ADDGA1021+006301999GF102991999999999999999999MA1101391999999REMMET053METAR EDJA 021250Z 26009KT 9999 FEW021 M04/M07 Q1014;
0074109470999992010010213204+47983+010233FM-15+0629EDJA V0202401N004619999999Y0099001N1-00501-00701999999ADDMA1101491999999REMMET047METAR EDJA 021320Z 24009KT CAVOK M05/M07 Q1015;
0074109470999992010010214204+47983+010233FM-15+0629EDJA V0202501N006219999999Y0099001N1-00401-00801999999ADDMA1101591999999REMMET047METAR EDJA 021420Z 25012KT CAVOK M04/M08 Q1016;
0074109470999992010010214504+47983+010233FM-15+0629EDJA V0202401N004619999999Y0099001N1-00401-00701999999ADDMA1101591999999REMMET047METAR EDJA 021450Z 24009KT CAVOK M04/M07 Q1016;
0074109470999992010010215204+47983+010233FM-15+0629EDJA V0202301N004619999999Y0099001N1-00401-00701999999ADDMA1101691999999REMMET047METAR EDJA 021520Z 23009KT CAVOK M04/M07 Q1017;
0074109470999992010010215504+47983+010233FM-15+0629EDJA V0202301N004619999999Y0099001N1-00401-00701999999ADDMA1101691999999REMMET047METAR EDJA 021550Z 23009KT CAVOK M04/M07 Q1017;
0074109470999992010010216204+47983+010233FM-15+0629EDJA V0202501N004619999999Y0099001N1-00501-00701999999ADDMA1101691999999REMMET047METAR EDJA 021620Z 25009KT CAVOK M05/M07 Q1017;
0074109470999992010010216504+47983+010233FM-15+0629EDJA V0202501N005119999999Y0099001N1-00601-00801999999ADDMA1101801999999REMMET047METAR EDJA 021650Z 25010KT CAVOK M06/M08 Q1018;
0074109470999992010010217504+47983+010233FM-15+0629EDJA V0202301N004619999999Y0099001N1-00801-01001999999ADDMA1101801999999REMMET047METAR EDJA 021750Z 23009KT CAVOK M08/M10 Q1018;
0074109470999992010010218204+47983+010233FM-15+0629EDJA V0202301N004119999999Y0099001N1-00801-01001999999ADDMA1101901999999REMMET047METAR EDJA 021820Z 23008KT CAVOK M08/M10 Q1019;
0074109470999992010010218504+47983+010233FM-15+0629EDJA V0202401N003619999999Y0099001N1-00801-01001999999ADDMA1101901999999REMMET047METAR EDJA 021850Z 24007KT CAVOK M08/M10 Q1019;
0074109470999992010010219204+47983+010233FM-15+0629EDJA V0202101N003119999999Y0099001N1-01101-01201999999ADDMA1101901999999REMMET047METAR EDJA 021920Z 21006KT CAVOK M11/M12 Q1019;
0074109470999992010010219504+47983+010233FM-15+0629EDJA V0202101N004119999999Y0099001N1-01001-01101999999ADDMA1101901999999REMMET047METAR EDJA 021950Z 21008KT CAVOK M10/M11 Q1019;
0074109470999992010010220204+47983+010233FM-15+0629EDJA V0202001N005719999999Y0099001N1-01001-01101999999ADDMA1101901999999REMMET047METAR EDJA 022020Z 20011KT CAVOK M10/M11 Q1019;
0074109470999992010010220504+47983+010233FM-15+0629EDJA V0202101N004619999999Y0099001N1-01001-01101999999ADDMA1101901999999REMMET047METAR EDJA 022050Z 21009KT CAVOK M10/M11 Q1019;
0145109470999992010010304504+47983+010233FM-15+0629EDJA V0202201N004610150019N0112651N1-00801-01101999999ADDGA1021+012001999GA2071+015001999GF107991999999999999999999MA1101901999999REMMET060METAR EDJA 030450Z 22009KT 9999 FEW040 BKN055 M08/M11 Q1019;
0122109470999992010010305204+47983+010233FM-15+0629EDJA V0202101N004612200019N0112651N1-01001-01201999999ADDGA1041+015001999GF104991999999999999999999MA1101901999999REMMET053METAR EDJA 030520Z 21009KT 9999 SCT055 M10/M12 Q1019;
0122109470999992010010305504+47983+010233FM-15+0629EDJA V0202101N004112200019N0112651N1-01201-01401999999ADDGA1041+018001999GF104991999999999999999999MA1101901999999REMMET053METAR EDJA 030550Z 21008KT 9999 SCT060 M12/M14 Q1019;
0122109470999992010010306204+47983+010233FM-15+0629EDJA V0202101N004612200019N0112651N1-01101-01201999999ADDGA1021+015001999GF102991999999999999999999MA1101801999999REMMET053METAR EDJA 030620Z 21009KT 9999 FEW051 M11/M12 Q1018;
0074109470999992010010306504+47983+010233FM-15+0629EDJA V0202201N004619999999Y0099001N1-01001-01201999999ADDMA1101801999999REMMET047METAR EDJA 030650Z 22009KT CAVOK M10/M12 Q1018;
0074109470999992010010307204+47983+010233FM-15+0629EDJA V0202001N005119999999Y0099001N1-01101-01301999999ADDMA1101901999999REMMET047METAR EDJA 030720Z 20010KT CAVOK M11/M13 Q1019;
0074109470999992010010307504+47983+010233FM-15+0629EDJA V0201901N005119999999Y0099001N1-01001-01201999999ADDMA1101901999999REMMET047METAR EDJA 030750Z 19010KT CAVOK M10/M12 Q1019;
0074109470999992010010308204+47983+010233FM-15+0629EDJA V0202101N006719999999Y0099001N1-00801-01101999999ADDMA1101801999999REMMET047METAR EDJA 030820Z 21013KT CAVOK M08/M11 Q1018;
0074109470999992010010308504+47983+010233FM-15+0629EDJA V0202001N006719999999Y0099001N1-00801-01101999999ADDMA1101901999999REMMET047METAR EDJA 030850Z 20013KT CAVOK M08/M11 Q1019;
0074109470999992010010309204+47983+010233FM-15+0629EDJA V0202101N006219999999Y0099001N1-00801-01101999999ADDMA1101901999999REMMET047METAR EDJA 030920Z 21012KT CAVOK M08/M11 Q1019;
0074109470999992010010309504+47983+010233FM-15+0629EDJA V0202101N005719999999Y0099001N1-00801-01101999999ADDMA1101901999999REMMET047METAR EDJA 030950Z 21011KT CAVOK M08/M11 Q1019;
0074109470999992010010310204+47983+010233FM-15+0629EDJA V0202001N005719999999Y0099001N1-00701-01001999999ADDMA1101901999999REMMET047METAR EDJA 031020Z 20011KT CAVOK M07/M10 Q1019;
0074109470999992010010310504+47983+010233FM-15+0629EDJA V0202201N006219999999Y0099001N1-00601-01001999999ADDMA1101801999999REMMET047METAR EDJA 031050Z 22012KT CAVOK M06/M10 Q1018;
0074109470999992010010311204+47983+010233FM-15+0629EDJA V0202101N005719999999Y0099001N1-00501-00901999999ADDMA1101801999999REMMET047METAR EDJA 031120Z 21011KT CAVOK M05/M09 Q1018;
0074109470999992010010311504+47983+010233FM-15+0629EDJA V0202101N005719999999Y0099001N1-00501-00901999999ADDMA1101691999999REMMET047METAR EDJA 031150Z 21011KT CAVOK M05/M09 Q1017;
0074109470999992010010312204+47983+010233FM-15+0629EDJA V0202101N005719999999Y0099001N1-00501-00901999999ADDMA1101691999999REMMET047METAR EDJA 031220Z 21011KT CAVOK M05/M09 Q1017;
0074109470999992010010312504+47983+010233FM-15+0629EDJA V0202201N004619999999Y0099001N1-00501-00901999999ADDMA1101691999999REMMET047METAR EDJA 031250Z 22009KT CAVOK M05/M09 Q1017;
0074109470999992010010313204+47983+010233FM-15+0629EDJA V0202101N004619999999Y0099001N1-00501-00901999999ADDMA1101691999999REMMET047METAR EDJA 031320Z 21009KT CAVOK M05/M09 Q1017;
0074109470999992010010313504+47983+010233FM-15+0629EDJA V0202101N003619999999Y0099001N1-00601-00901999999ADDMA1101591999999REMMET047METAR EDJA 031350Z 21007KT CAVOK M06/M09 Q1016;
0074109470999992010010314204+47983+010233FM-15+0629EDJA V0202101N005719999999Y0099001N1-00501-00901999999ADDMA1101691999999REMMET047METAR EDJA 031420Z 21011KT CAVOK M05/M09 Q1017;
0074109470999992010010315204+47983+010233FM-15+0629EDJA V0202101N004619999999Y0099001N1-00701-01101999999ADDMA1101691999999REMMET047METAR EDJA 031520Z 21009KT CAVOK M07/M11 Q1017;
0074109470999992010010315504+47983+010233FM-15+0629EDJA V0201701N003119999999Y0099001N1-00801-01101999999ADDMA1101691999999REMMET047METAR EDJA 031550Z 17006KT CAVOK M08/M11 Q1017;
0074109470999992010010316204+47983+010233FM-15+0629EDJA V0201801N003119999999Y0099001N1-00701-01101999999ADDMA1101691999999REMMET047METAR EDJA 031620Z 18006KT CAVOK M07/M11 Q1017;
0074109470999992010010316504+47983+010233FM-15+0629EDJA V0201901N004119999999Y0099001N1-00901-01201999999ADDMA1101591999999REMMET047METAR EDJA 031650Z 19008KT CAVOK M09/M12 Q1016;
0074109470999992010010317504+47983+010233FM-15+0629EDJA V0209999V000519999999Y0099001N1-00901-01201999999ADDMA1101691999999REMMET047METAR EDJA 031750Z VRB01KT CAVOK M09/M12 Q1017;
0074109470999992010010318204+47983+010233FM-15+0629EDJA V0202101N002119999999Y0099001N1-00901-01201999999ADDMA1101691999999REMMET047METAR EDJA 031820Z 21004KT CAVOK M09/M12 Q1017;
0074109470999992010010318504+47983+010233FM-15+0629EDJA V0202001N005119999999Y0099001N1-01101-01401999999ADDMA1101691999999REMMET047METAR EDJA 031850Z 20010KT CAVOK M11/M14 Q1017;
0074109470999992010010319204+47983+010233FM-15+0629EDJA V0202001N004619999999Y0099001N1-01101-01301999999ADDMA1101691999999REMMET047METAR EDJA 031920Z 20009KT CAVOK M11/M13 Q1017;
0074109470999992010010319504+47983+010233FM-15+0629EDJA V0202001N002619999999Y0099001N1-01001-01301999999ADDMA1101691999999REMMET047METAR EDJA 031950Z 20005KT CAVOK M10/M13 Q1017;
0074109470999992010010320204+47983+010233FM-15+0629EDJA V0202001N002619999999Y0099001N1-00801-01201999999ADDMA1101591999999REMMET047METAR EDJA 032020Z 20005KT CAVOK M08/M12 Q1016;
0074109470999992010010320504+47983+010233FM-15+0629EDJA V0202001N002119999999Y0099001N1-00801-01101999999ADDMA1101591999999REMMET047METAR EDJA 032050Z 20004KT CAVOK M08/M11 Q1016;
0074109470999992010010321204+47983+010233FM-15+0629EDJA V0209999V001019999999Y0099001N1-01101-01301999999ADDMA1101591999999REMMET047METAR EDJA 032120Z VRB02KT CAVOK M11/M13 Q1016;
0074109470999992010010321504+47983+010233FM-15+0629EDJA V0202801N002619999999Y0099001N1-01201-01401999999ADDMA1101591999999REMMET047METAR EDJA 032150Z 28005KT CAVOK M12/M14 Q1016;
0074109470999992010010404504+47983+010233FM-15+0629EDJA V0201701N002119999999Y0099001N1-01501-01601999999ADDMA1101291999999REMMET047METAR EDJA 040450Z 17004KT CAVOK M15/M16 Q1013;
0074109470999992010010405204+47983+010233FM-15+0629EDJA V0201501N000519999999Y0099001N1-01401-01501999999ADDMA1101291999999REMMET047METAR EDJA 040520Z 15001KT CAVOK M14/M15 Q1013;
0074109470999992010010405504+47983+010233FM-15+0629EDJA V0209999V001519999999Y0099001N1-01601-01801999999ADDMA1101291999999REMMET047METAR EDJA 040550Z VRB03KT CAVOK M16/M18 Q1013;
0074109470999992010010406204+47983+010233FM-15+0629EDJA V0203501N001019999999Y0099001N1-01501-01601999999ADDMA1101291999999REMMET047METAR EDJA 040620Z 35002KT CAVOK M15/M16 Q1013;
0074109470999992010010406504+47983+010233FM-15+0629EDJA V0202101N001019999999Y0099001N1-01501-01601999999ADDMA1101291999999REMMET047METAR EDJA 040650Z 21002KT CAVOK M15/M16 Q1013;
0074109470999992010010407204+47983+010233FM-15+0629EDJA V0201501N001019999999Y0099001N1-01501-01601999999ADDMA1101291999999REMMET047METAR EDJA 040720Z 15002KT CAVOK M15/M16 Q1013;
0074109470999992010010407504+47983+010233FM-15+0629EDJA V0201701N002119999999Y0099001N1-01601-01801999999ADDMA1101291999999REMMET047METAR EDJA 040750Z 17004KT CAVOK M16/M18 Q1013;
0074109470999992010010408204+47983+010233FM-15+0629EDJA V0201701N002119999999Y0099001N1-01501-01601999999ADDMA1101291999999REMMET047METAR EDJA 040820Z 17004KT CAVOK M15/M16 Q1013;
0074109470999992010010408504+47983+010233FM-15+0629EDJA V0201701N000519999999Y0099001N1-01401-01501999999ADDMA1101291999999REMMET047METAR EDJA 040850Z 17001KT CAVOK M14/M15 Q1013;
0074109470999992010010409204+47983+010233FM-15+0629EDJA V0202301N001019999999Y0099001N1-01301-01401999999ADDMA1101291999999REMMET047METAR EDJA 040920Z 23002KT CAVOK M13/M14 Q1013;
0074109470999992010010409504+47983+010233FM-15+0629EDJA V0202101N001019999999Y0099001N1-01001-01201999999ADDMA1101291999999REMMET047METAR EDJA 040950Z 21002KT CAVOK M10/M12 Q1013;
0074109470999992010010410204+47983+010233FM-15+0629EDJA V0202201N000519999999Y0099001N1-00901-01101999999ADDMA1101191999999REMMET047METAR EDJA 041020Z 22001KT CAVOK M09/M11 Q1012;
0074109470999992010010410504+47983+010233FM-15+0629EDJA V0202101N000519999999Y0099001N1-00801-01101999999ADDMA1101191999999REMMET047METAR EDJA 041050Z 21001KT CAVOK M08/M11 Q1012;
0074109470999992010010411204+47983+010233FM-15+0629EDJA V0202101N001019999999Y0099001N1-00801-01201999999ADDMA1101081999999REMMET047METAR EDJA 041120Z 21002KT CAVOK M08/M12 Q1011;
0074109470999992010010411504+47983+010233FM-15+0629EDJA V0209999V000519999999Y0099001N1-00501-01001999999ADDMA1101081999999REMMET047METAR EDJA 041150Z VRB01KT CAVOK M05/M10 Q1011;
0074109470999992010010412204+47983+010233FM-15+0629EDJA V0202201N001519999999Y0099001N1-00701-01001999999ADDMA1101081999999REMMET047METAR EDJA 041220Z 22003KT CAVOK M07/M10 Q1011;
0074109470999992010010412504+47983+010233FM-15+0629EDJA V0209999V000519999999Y0099001N1-00501-01101999999ADDMA1101021999999REMMET047METAR EDJA 041250Z VRB01KT CAVOK M05/M11 Q1010;
0074109470999992010010413204+47983+010233FM-15+0629EDJA V0203501N001019999999Y0099001N1-00501-01101999999ADDMA1101021999999REMMET047METAR EDJA 041320Z 35002KT CAVOK M05/M11 Q1010;
0074109470999992010010413504+47983+010233FM-15+0629EDJA V0209999V001019999999Y0099001N1-00501-01001999999ADDMA1101021999999REMMET047METAR EDJA 041350Z VRB02KT CAVOK M05/M10 Q1010;
0074109470999992010010414204+47983+010233FM-15+0629EDJA V0203301N001019999999Y0099001N1-00601-01001999999ADDMA1101021999999REMMET047METAR EDJA 041420Z 33002KT CAVOK M06/M10 Q1010;
0074109470999992010010414504+47983+010233FM-15+0629EDJA V0203501N001519999999Y0099001N1-00601-01101999999ADDMA1101021999999REMMET047METAR EDJA 041450Z 35003KT CAVOK M06/M11 Q1010;
0074109470999992010010415204+47983+010233FM-15+0629EDJA V0200201N002119999999Y0099001N1-00601-01001999999ADDMA1101021999999REMMET047METAR EDJA 041520Z 02004KT CAVOK M06/M10 Q1010;
0074109470999992010010415504+47983+010233FM-15+0629EDJA V0200301N002119999999Y0099001N1-00701-01101999999ADDMA1101021999999REMMET047METAR EDJA 041550Z 03004KT CAVOK M07/M11 Q1010;
0074109470999992010010416204+47983+010233FM-15+0629EDJA V0200901N001019999999Y0099001N1-01201-01401999999ADDMA1101021999999REMMET047METAR EDJA 041620Z 09002KT CAVOK M12/M14 Q1010;
0074109470999992010010416504+47983+010233FM-15+0629EDJA V0201001N001019999999Y0099001N1-01101-01201999999ADDMA1101021999999REMMET047METAR EDJA 041650Z 10002KT CAVOK M11/M12 Q1010;
0074109470999992010010417204+47983+010233FM-15+0629EDJA V0209999C000019999999Y0099001N1-01301-01501999999ADDMA1101021999999REMMET047METAR EDJA 041720Z 00000KT CAVOK M13/M15 Q1010;
0074109470999992010010417504+47983+010233FM-15+0629EDJA V0200901N000519999999Y0099001N1-01101-01101999999ADDMA1101021999999REMMET047METAR EDJA 041750Z 09001KT CAVOK M11/M11 Q1010;
0074109470999992010010418204+47983+010233FM-15+0629EDJA V0201301N001019999999Y0099001N1-01401-01501999999ADDMA1101021999999REMMET047METAR EDJA 041820Z 13002KT CAVOK M14/M15 Q1010;
0074109470999992010010418504+47983+010233FM-15+0629EDJA V0209999C000019999999Y0099001N1-01301-01401999999ADDMA1101021999999REMMET047METAR EDJA 041850Z 00000KT CAVOK M13/M14 Q1010;
0074109470999992010010419504+47983+010233FM-15+0629EDJA V0201501N001019999999Y0099001N1-01201-01301999999ADDMA1101021999999REMMET047METAR EDJA 041950Z 15002KT CAVOK M12/M13 Q1010;
0074109470999992010010420204+47983+010233FM-15+0629EDJA V0209999V000519999999Y0099001N1-01401-01501999999ADDMA1101021999999REMMET047METAR EDJA 042020Z VRB01KT CAVOK M14/M15 Q1010;
0074109470999992010010420504+47983+010233FM-15+0629EDJA V0201501N001019999999Y0099001N1-01401-01501999999ADDMA1101021999999REMMET047METAR EDJA 042050Z 15002KT CAVOK M14/M15 Q1010;
0122109470999992010010504504+47983+010233FM-15+0629EDJA V0203601N001512200019N0112651N1-01101-01201999999ADDGA1041+002401999GF104991999999999999999999MA1100611999999REMMET053METAR EDJA 050450Z 36003KT 9999 SCT008 M11/M12 Q1006;
0122109470999992010010505204+47983+010233FM-15+0629EDJA V0200301N002112200019N0112651N1-01101-01201999999ADDGA1041+002401999GF104991999999999999999999MA1100611999999REMMET053METAR EDJA 050520Z 03004KT 9999 SCT008 M11/M12 Q1006;
0122109470999992010010505504+47983+010233FM-15+0629EDJA V0200501N002610015019N0112651N1-00901-01001999999ADDGA1071+001501999GF107991999999999999999999MA1100611999999REMMET053METAR EDJA 050550Z 05005KT 9999 BKN005 M09/M10 Q1006;
0128109470999992010010506204+47983+010233FM-15+0629EDJA V0200601N005110015019N0070001N1-00901-01001999999ADDGA1081+001501999GF108991999999999999999999MA1100511999999REMMET059METAR EDJA 050620Z 06010KT 7000 -SHSN OVC005 M09/M10 Q1005;
0122109470999992010010506504+47983+010233FM-15+0629EDJA V0200801N004110012019N0035001N1-00901-01001999999ADDGA1081+001201999GF108991999999999999999999MA1100511999999REMMET053METAR EDJA 050650Z 08008KT 3500 OVC004 M09/M10 Q1005;
0131109470999992010010507204+47983+010233FM-15+0629EDJA V0200701N004610012019N0030001N1-00901-01001999999ADDGA1081+001201999GF108991999999999999999999MA1100511999999MW1101REMMET056METAR EDJA 050720Z 07009KT 3000 BR OVC004 M09/M10 Q1005;
0131109470999992010010507504+47983+010233FM-15+0629EDJA V0200801N003610012019N0030001N1-00901-01001999999ADDGA1081+001201999GF108991999999999999999999MA1100511999999MW1101REMMET056METAR EDJA 050750Z 08007KT 3000 BR OVC004 M09/M10 Q1005;
0131109470999992010010508204+47983+010233FM-15+0629EDJA V0200701N003610015019N0050001N1-00901-00901999999ADDGA1081+001501999GF108991999999999999999999MA1100511999999MW1101REMMET056METAR EDJA 050820Z 07007KT 5000 BR OVC005 M09/M09 Q1005;
0122109470999992010010509204+47983+010233FM-15+0629EDJA V0200701N004610015019N0050001N1-00901-01001999999ADDGA1081+001501999GF108991999999999999999999MA1100411999999REMMET053METAR EDJA 050920Z 07009KT 5000 OVC005 M09/M10 Q1004;
0122109470999992010010510504+47983+010233FM-15+0629EDJA V0200901N004610015019N0050001N1-00901-01001999999ADDGA1081+001501999GF108991999999999999999999MA1100311999999REMMET053METAR EDJA 051050Z 09009KT 5000 OVC005 M09/M10 Q1003;
0122109470999992010010511204+47983+010233FM-15+0629EDJA V0200901N004110015019N0050001N1-00901-01001999999ADDGA1081+001501999GF108991999999999999999999MA1100311999999REMMET053METAR EDJA 051120Z 09008KT 5000 OVC005 M09/M10 Q1003;
0122109470999992010010511504+47983+010233FM-15+0629EDJA V0200701N003610015019N0060001N1-00901-01001999999ADDGA1081+001501999GF108991999999999999999999MA1100311999999REMMET053METAR EDJA 051150Z 07007KT 6000 OVC005 M09/M10 Q1003;
0122109470999992010010512504+47983+010233FM-15+0629EDJA V0200601N003110021019N0060001N1-00901-00901999999ADDGA1081+002101999GF108991999999999999999999MA1100201999999REMMET053METAR EDJA 051250Z 06006KT 6000 OVC007 M09/M09 Q1002;
0130109470999992010010513204+47983+010233FM-15+0629EDJA V0200801N003610018019N0070001N1-00901-00901999999ADDGA1071+001801999GF107991999999999999999999MA1100201999999REMMET061METAR EDJA 051320Z 08007KT 050V120 7000 BKN006 M09/M09 Q1002;
0122109470999992010010513504+47983+010233FM-15+0629EDJA V0200601N004110021019N0060001N1-00901-00901999999ADDGA1071+002101999GF107991999999999999999999MA1100101999999REMMET053METAR EDJA 051350Z 06008KT 6000 BKN007 M09/M09 Q1001;
0130109470999992010010514204+47983+010233FM-15+0629EDJA V0200801N003110018019N0070001N1-00801-00901999999ADDGA1071+001801999GF107991999999999999999999MA1100101999999REMMET061METAR EDJA 051420Z 08006KT 050V110 7000 BKN006 M08/M09 Q1001;
0154109470999992010010514504+47983+010233FM-15+0629EDJA V0200901N002610018019N0050001N1-00801-00901999999ADDGA1071+001801999GA2071+015001999GF107991999999999999999999MA1100101999999MW1101REMMET063METAR EDJA 051450Z 09005KT 5000 BR BKN006 BKN057 M08/M09 Q1001;
0172109470999992010010515204+47983+010233FM-15+0629EDJA V0200801N003110021019N0050001N1-00801-00901999999ADDGA1071+002101999GA2071+011401999GF107991999999999999999999MA1100101999999MW1101MW2711REMMET075METAR EDJA 051520Z 08006KT 060V120 5000 -SN BR BKN007 BKN038 M08/M09 Q1001;
0164109470999992010010515504+47983+010233FM-15+0629EDJA V0200701N003110021019N0050001N1-00801-00901999999ADDGA1071+002101999GA2071+013501999GF107991999999999999999999MA1100101999999MW1101MW2711REMMET067METAR EDJA 051550Z 07006KT 5000 -SN BR BKN007 BKN045 M08/M09 Q1001;
0151109470999992010010516204+47983+010233FM-15+0629EDJA V0200701N002610018019N0070001N1-00801-00901999999ADDGA1071+001801999GA2071+014701999GF107991999999999999999999MA1100101999999REMMET066METAR EDJA 051620Z 07005KT 7000 -SHSN BKN006 BKN049 M08/M09 Q1001;
0155109470999992010010516504+47983+010233FM-15+0629EDJA V0200701N003110021019N0070001N1-00801-00901999999ADDGA1071+002101999GA2071+018001999GF107991999999999999999999MA1100101999999MW1711REMMET064METAR EDJA 051650Z 07006KT 7000 -SN BKN007 BKN064 M08/M09 Q1001;
0155109470999992010010517204+47983+010233FM-15+0629EDJA V0200801N003110021019N0080001N1-00801-00901999999ADDGA1071+002101999GA2071+015001999GF107991999999999999999999MA1100101999999MW1711REMMET064METAR EDJA 051720Z 08006KT 8000 -SN BKN007 BKN055 M08/M09 Q1001;
0150109470999992010010517504+47983+010233FM-15+0629EDJA V0200701N003110180019N0080001N1-00801-00901999999ADDGA1041+002101999GA2071+018001999GF107991999999999999999999MA1100001999999REMMET065METAR EDJA 051750Z 07006KT 8000 SCT007 BKN061 M08/M09 Q1000 RESN;
0145109470999992010010518204+47983+010233FM-15+0629EDJA V0200701N003110240019N0070001N1-00801-00901999999ADDGA1041+002101999GA2071+024001999GF107991999999999999999999MA1100001999999REMMET060METAR EDJA 051820Z 07006KT 7000 SCT007 BKN083 M08/M09 Q1000;
0145109470999992010010518504+47983+010233FM-15+0629EDJA V0200701N003110240019N0060001N1-00801-00901999999ADDGA1021+002101999GA2071+024001999GF107991999999999999999999MA1100001999999REMMET060METAR EDJA 051850Z 07006KT 6000 FEW007 BKN083 M08/M09 Q1000;
0145109470999992010010519204+47983+010233FM-15+0629EDJA V0200601N002610240019N0060001N1-00801-00901999999ADDGA1041+001801999GA2071+024001999GF107991999999999999999999MA1100001999999REMMET060METAR EDJA 051920Z 06005KT 6000 SCT006 BKN082 M08/M09 Q1000;
0145109470999992010010519504+47983+010233FM-15+0629EDJA V0200601N002610240019N0060001N1-00801-00901999999ADDGA1041+001801999GA2071+024001999GF107991999999999999999999MA1099901999999REMMET060METAR EDJA 051950Z 06005KT 6000 SCT006 BKN083 M08/M09 Q0999;
0145109470999992010010520204+47983+010233FM-15+0629EDJA V0200301N002110018019N0060001N1-00801-00901999999ADDGA1071+001801999GA2071+024001999GF107991999999999999999999MA1099901999999REMMET060METAR EDJA 052020Z 03004KT 6000 BKN006 BKN083 M08/M09 Q0999;
0131109470999992010010520504+47983+010233FM-15+0629EDJA V0200401N002110018019N0050001N1-00801-00801999999ADDGA1081+001801999GF108991999999999999999999MA1099901999999MW1101REMMET056METAR EDJA 052050Z 04004KT 5000 BR OVC006 M08/M08 Q0999;
0131109470999992010010604504+47983+010233FM-15+0629EDJA V0209999C000010240019N0040001N1-00801-00901999999ADDGA1071+024001999GF107991999999999999999999MA1099801999999MW1101REMMET056METAR EDJA 060450Z 00000KT 4000 BR BKN081 M08/M09 Q0998;
0154109470999992010010605204+47983+010233FM-15+0629EDJA V0209999V000510240019N0040001N1-00801-00901999999ADDGA1041+010501999GA2071+024001999GF107991999999999999999999MA1099801999999MW1101REMMET063METAR EDJA 060520Z VRB01KT 4000 BR SCT035 BKN081 M08/M09 Q0998;
0164109470999992010010605504+47983+010233FM-15+0629EDJA V0201901N001010105019N0040001N1-00801-00901999999ADDGA1041+006001999GA2071+010501999GF107991999999999999999999MA1099801999999MW1101MW2711REMMET067METAR EDJA 060550Z 19002KT 4000 -SN BR SCT020 BKN035 M08/M09 Q0998;
0128109470999992010010606204+47983+010233FM-15+0629EDJA V0202001N001510105019N0040001N1-00701-00901999999ADDGA1071+010501999GF107991999999999999999999MA1099801999999REMMET059METAR EDJA 060620Z 20003KT 4000 -SHSN BKN035 M07/M09 Q0998;
0122109470999992010010606504+47983+010233FM-15+0629EDJA V0202501N002110072019N0040001N1-00701-00901999999ADDGA1071+007201999GF107991999999999999999999MA1099801999999REMMET053METAR EDJA 060650Z 25004KT 4000 BKN024 M07/M09 Q0998;
0128109470999992010010607204+47983+010233FM-15+0629EDJA V0209999V001510054019N0040001N1-00701-00901999999ADDGA1071+005401999GF107991999999999999999999MA1099801999999REMMET059METAR EDJA 060720Z VRB03KT 4000 -SHSN BKN018 M07/M09 Q0998;
0160109470999992010010607504+47983+010233FM-15+0629EDJA V0209999C000010054019N0040001N1-00701-00801999999ADDGA1041+003001999GA2071+005401999GF107991999999999999999999MA1099801999999MW1101REMMET069METAR EDJA 060750Z 00000KT 4000 -SHSN BR SCT010 BKN018 M07/M08 Q0998;
0141109470999992010010608204+47983+010233FM-15+0629EDJA V0202101N001010042019N0030001N1-00701-00801999999ADDGA1071+004201999GF107991999999999999999999MA1099901999999MW1101MW2711REMMET060METAR EDJA 060820Z 21002KT 3000 -SN BR BKN014 M07/M08 Q0999;
0141109470999992010010608504+47983+010233FM-15+0629EDJA V0202101N001010042019N0040001N1-00601-00801999999ADDGA1071+004201999GF107991999999999999999999MA1099901999999MW1101MW2711REMMET060METAR EDJA 060850Z 21002KT 4000 -SN BR BKN014 M06/M08 Q0999;
0141109470999992010010609204+47983+010233FM-15+0629EDJA V0202201N001510042019N0040001N1-00601-00701999999ADDGA1071+004201999GF107991999999999999999999MA1099901999999MW1101MW2711REMMET060METAR EDJA 060920Z 22003KT 4000 -SN BR BKN014 M06/M07 Q0999;
0140109470999992010010609504+47983+010233FM-15+0629EDJA V0202101N002110054019N0035001N1-00601-00701999999ADDGA1071+005401999GF107991999999999999999999MA1100001999999MW1101MW2731REMMET059METAR EDJA 060950Z 21004KT 3500 SN BR BKN018 M06/M07 Q1000;
0141109470999992010010610204+47983+010233FM-15+0629EDJA V0202101N001510030019N0025001N1-00601-00601999999ADDGA1071+003001999GF107991999999999999999999MA1100001999999MW1101MW2711REMMET060METAR EDJA 061020Z 21003KT 2500 -SN BR BKN010 M06/M06 Q1000;
0140109470999992010010610504+47983+010233FM-15+0629EDJA V0202001N002610045019N0030001N1-00501-00601999999ADDGA1071+004501999GF107991999999999999999999MA1099901999999MW1101MW2731REMMET059METAR EDJA 061050Z 20005KT 3000 SN BR BKN015 M05/M06 Q0999;
0141109470999992010010611204+47983+010233FM-15+0629EDJA V0202301N003110039019N0050001N1-00401-00601999999ADDGA1071+003901999GF107991999999999999999999MA1099901999999MW1101MW2711REMMET060METAR EDJA 061120Z 23006KT 5000 -SN BR BKN013 M04/M06 Q0999;
0122109470999992010010611504+47983+010233FM-15+0629EDJA V0202401N003610030019N0050001N1-00401-00601999999ADDGA1071+003001999GF107991999999999999999999MA1099901999999REMMET053METAR EDJA 061150Z 24007KT 5000 BKN010 M04/M06 Q0999;
0131109470999992010010612204+47983+010233FM-15+0629EDJA V0202401N003610027019N0050001N1-00401-00601999999ADDGA1071+002701999GF107991999999999999999999MA1099901999999MW1101REMMET056METAR EDJA 061220Z 24007KT 5000 BR BKN009 M04/M06 Q0999;
0131109470999992010010612504+47983+010233FM-15+0629EDJA V0202301N004110027019N0050001N1-00401-00601999999ADDGA1071+002701999GF107991999999999999999999MA1099901999999MW1101REMMET056METAR EDJA 061250Z 23008KT 5000 BR BKN009 M04/M06 Q0999;
0131109470999992010010613504+47983+010233FM-15+0629EDJA V0202401N003610030019N0050001N1-00401-00501999999ADDGA1071+003001999GF107991999999999999999999MA1099901999999MW1101REMMET056METAR EDJA 061350Z 24007KT 5000 BR BKN010 M04/M05 Q0999;
0131109470999992010010614204+47983+010233FM-15+0629EDJA V0202401N003610030019N0050001N1-00401-00501999999ADDGA1071+003001999GF107991999999999999999999MA1099901999999MW1101REMMET056METAR EDJA 061420Z 24007KT 5000 BR BKN010 M04/M05 Q0999;
0131109470999992010010615204+47983+010233FM-15+0629EDJA V0202401N002610030019N0050001N1-00401-00501999999ADDGA1071+003001999GF107991999999999999999999MA1100001999999MW1101REMMET056METAR EDJA 061520Z 24005KT 5000 BR BKN010 M04/M05 Q1000;
0131109470999992010010615504+47983+010233FM-15+0629EDJA V0202401N002610039019N0050001N1-00401-00501999999ADDGA1071+003901999GF107991999999999999999999MA1100001999999MW1101REMMET056METAR EDJA 061550Z 24005KT 5000 BR BKN013 M04/M05 Q1000;
0131109470999992010010616204+47983+010233FM-15+0629EDJA V0202401N003110030019N0040001N1-00401-00501999999ADDGA1071+003001999GF107991999999999999999999MA1100101999999MW1101REMMET056METAR EDJA 061620Z 24006KT 4000 BR BKN010 M04/M05 Q1001;
0132109470999992010010616504+47983+010233FM-15+0629EDJA V0202201N002610054019N0050001N1-00401-00501999999ADDGA1071+005401999GF107991999999999999999999MA1100101999999MW1711REMMET057METAR EDJA 061650Z 22005KT 5000 -SN BKN018 M04/M05 Q1001;
0132109470999992010010617504+47983+010233FM-15+0629EDJA V0202301N002110045019N0050001N1-00401-00501999999ADDGA1071+004501999GF107991999999999999999999MA1100101999999MW1711REMMET057METAR EDJA 061750Z 23004KT 5000 -SN BKN015 M04/M05 Q1001;
0131109470999992010010618204+47983+010233FM-15+0629EDJA V0202201N001510048019N0050001N1-00401-00501999999ADDGA1071+004801999GF107991999999999999999999MA1100101999999MW1101REMMET056METAR EDJA 061820Z 22003KT 5000 BR BKN016 M04/M05 Q1001;
0131109470999992010010618504+47983+010233FM-15+0629EDJA V0202001N001010048019N0050001N1-00401-00501999999ADDGA1071+004801999GF107991999999999999999999MA1100101999999MW1101REMMET056METAR EDJA 061850Z 20002KT 5000 BR BKN016 M04/M05 Q1001;
0131109470999992010010619204+47983+010233FM-15+0629EDJA V0209999V000510048019N0050001N1-00401-00501999999ADDGA1071+004801999GF107991999999999999999999MA1100101999999MW1101REMMET056METAR EDJA 061920Z VRB01KT 5000 BR BKN016 M04/M05 Q1001;
0131109470999992010010620204+47983+010233FM-15+0629EDJA V0209999C000010048019N0050001N1-00401-00501999999ADDGA1071+004801999GF107991999999999999999999MA1100201999999MW1101REMMET056METAR EDJA 062020Z 00000KT 5000 BR BKN016 M04/M05 Q1002;
0154109470999992010010704504+47983+010233FM-15+0629EDJA V0202201N002110114019N0050001N1-00501-00601999999ADDGA1021+003301999GA2071+011401999GF107991999999999999999999MA1100411999999MW1101REMMET063METAR EDJA 070450Z 22004KT 5000 BR FEW011 BKN038 M05/M06 Q1004;
0164109470999992010010705204+47983+010233FM-15+0629EDJA V0202101N002610111019N0050001N1-00501-00501999999ADDGA1021+003001999GA2071+011101999GF107991999999999999999999MA1100411999999MW1101MW2711REMMET067METAR EDJA 070520Z 21005KT 5000 -SN BR FEW010 BKN037 M05/M05 Q1004;
0122109470999992010010705504+47983+010233FM-15+0629EDJA V0202101N001512200019N0060001N1-00601-00601999999ADDGA1041+011401999GF104991999999999999999999MA1100411999999REMMET053METAR EDJA 070550Z 21003KT 6000 SCT038 M06/M06 Q1004;
0133109470999992010010706204+47983+010233FM-15+0629EDJA V0202201N001512200019N0060001N1-00601-00601999999ADDGF100991999999999999999999MA1100511999999MW1411REMMET055METAR EDJA 070620Z 22003KT 6000 BCFG NSC M06/M06 Q1005;EQDQ01    003SCCGA1
0155109470999992010010706504+47983+010233FM-15+0629EDJA V0201901N002112200019N0009001N1-00801-00801999999ADDED199U03509GF100991999999999999999999MA1100511999999MW1411REMMET066METAR EDJA 070650Z 19004KT 0900 R24/M0350N BCFG NSC M08/M08 Q1005;EQDQ01    003SCCGA1
0155109470999992010010707504+47983+010233FM-15+0629EDJA V0200901N000512200019N0006001N1-01201-01301999999ADDED199U03509GA1021+006001999GF102991999999999999999999MA1100611999999MW1481REMMET069METAR EDJA 070750Z 09001KT 0600 R24/M0350N FZFG FEW020 M12/M13 Q1006;
0155109470999992010010708204+47983+010233FM-15+0629EDJA V0209999C000012200019N0006001N1-01101-01201999999ADDED199U03509GF100991999999999999999999MA1100611999999MW1481REMMET066METAR EDJA 070820Z 00000KT 0600 R24/M0350N FZFG NSC M11/M12 Q1006;EQDQ01    003SCCGA1
0155109470999992010010708504+47983+010233FM-15+0629EDJA V0209999V000512200019N0004001N1-01201-01301999999ADDED199U03509GF100991999999999999999999MA1100611999999MW1481REMMET066METAR EDJA 070850Z VRB01KT 0400 R24/M0350N FZFG NSC M12/M13 Q1006;EQDQ01    003SCCGA1
0133109470999992010010709204+47983+010233FM-15+0629EDJA V0201501N001512200019N0020001N1-01001-01101999999ADDMA1100601999999REMMET071METAR EDJA 070920Z 15003KT 2000 R24/M0350V1200U PRFG NSC M10/M11 Q1006;EQDQ01+000403ATOT  Q02-003503ATOD  
0131109470999992010010709504+47983+010233FM-15+0629EDJA V0201001N001012200019N0039001N1-00701-00801999999ADDGF100991999999999999999999MA1100711999999MW1101REMMET053METAR EDJA 070950Z 10002KT 3900 BR NSC M07/M08 Q1007;EQDQ01    003SCCGA1
0131109470999992010010710204+47983+010233FM-15+0629EDJA V0201501N002112200019N0045001N1-00601-00701999999ADDGF100991999999999999999999MA1100711999999MW1101REMMET053METAR EDJA 071020Z 15004KT 4500 BR NSC M06/M07 Q1007;EQDQ01    003SCCGA1
0122109470999992010010710504+47983+010233FM-15+0629EDJA V0201501N002112200019N0060001N1-00601-00701999999ADDGF100991999999999999999999MA1100611999999REMMET050METAR EDJA 071050Z 15004KT 6000 NSC M06/M07 Q1006;EQDQ01    003SCCGA1
0122109470999992010010711204+47983+010233FM-15+0629EDJA V0201401N003112200019N0112651N1-00301-00601999999ADDGA1021+014401999GF102991999999999999999999MA1100611999999REMMET053METAR EDJA 071120Z 14006KT 9999 FEW048 M03/M06 Q1006;
0074109470999992010010711504+47983+010233FM-15+0629EDJA V0201401N001519999999Y0099001N1-00201-00601999999ADDMA1100611999999REMMET047METAR EDJA 071150Z 14003KT CAVOK M02/M06 Q1006;
0074109470999992010010712204+47983+010233FM-15+0629EDJA V0201401N002619999999Y0099001N1-00101-00501999999ADDMA1100611999999REMMET047METAR EDJA 071220Z 14005KT CAVOK M01/M05 Q1006;
0074109470999992010010712504+47983+010233FM-15+0629EDJA V0209999V001519999999Y0099001N1-00101-00501999999ADDMA1100611999999REMMET047METAR EDJA 071250Z VRB03KT CAVOK M01/M05 Q1006;
0074109470999992010010713204+47983+010233FM-15+0629EDJA V0209999V001019999999Y0099001N1-00201-00601999999ADDMA1100611999999REMMET047METAR EDJA 071320Z VRB02KT CAVOK M02/M06 Q1006;
0074109470999992010010713504+47983+010233FM-15+0629EDJA V0201401N002619999999Y0099001N1-00301-00601999999ADDMA1100611999999REMMET047METAR EDJA 071350Z 14005KT CAVOK M03/M06 Q1006;
0074109470999992010010714204+47983+010233FM-15+0629EDJA V0201301N002619999999Y0099001N1-00301-00501999999ADDMA1100611999999REMMET047METAR EDJA 071420Z 13005KT CAVOK M03/M05 Q1006;
0074109470999992010010714504+47983+010233FM-15+0629EDJA V0201401N001519999999Y0099001N1-00301-00501999999ADDMA1100711999999REMMET047METAR EDJA 071450Z 14003KT CAVOK M03/M05 Q1007;
0074109470999992010010715204+47983+010233FM-15+0629EDJA V0201101N001519999999Y0099001N1-00301-00501999999ADDMA1100711999999REMMET047METAR EDJA 071520Z 11003KT CAVOK M03/M05 Q1007;
0074109470999992010010715504+47983+010233FM-15+0629EDJA V0201301N002119999999Y0099001N1-00401-00701999999ADDMA1100711999999REMMET047METAR EDJA 071550Z 13004KT CAVOK M04/M07 Q1007;
0122109470999992010010716204+47983+010233FM-15+0629EDJA V0201601N002112200019N0080001N1-00401-00601999999ADDGF100991999999999999999999MA1100711999999REMMET050METAR EDJA 071620Z 16004KT 8000 NSC M04/M06 Q1007;EQDQ01    003SCCGA1
0122109470999992010010716504+47983+010233FM-15+0629EDJA V0201401N001012200019N0080001N1-00401-00501999999ADDGF100991999999999999999999MA1100811999999REMMET050METAR EDJA 071650Z 14002KT 8000 NSC M04/M05 Q1008;EQDQ01    003SCCGA1
0122109470999992010010717504+47983+010233FM-15+0629EDJA V0209999V000512200019N0080001N1-00501-00601999999ADDGF100991999999999999999999MA1100811999999REMMET050METAR EDJA 071750Z VRB01KT 8000 NSC M05/M06 Q1008;EQDQ01    003SCCGA1
0122109470999992010010718204+47983+010233FM-15+0629EDJA V0201301N002112200019N0070001N1-00501-00601999999ADDGF100991999999999999999999MA1100811999999REMMET050METAR EDJA 071820Z 13004KT 7000 NSC M05/M06 Q1008;EQDQ01    003SCCGA1
0122109470999992010010718504+47983+010233FM-15+0629EDJA V0201301N001512200019N0070001N1-00501-00601999999ADDGF100991999999999999999999MA1100811999999REMMET050METAR EDJA 071850Z 13003KT 7000 NSC M05/M06 Q1008;EQDQ01    003SCCGA1
0122109470999992010010719204+47983+010233FM-15+0629EDJA V0209999V000512200019N0070001N1-00501-00601999999ADDGF100991999999999999999999MA1100811999999REMMET050METAR EDJA 071920Z VRB01KT 7000 NSC M05/M06 Q1008;EQDQ01    003SCCGA1
0122109470999992010010719504+47983+010233FM-15+0629EDJA V0203401N002112200019N0060001N1-00701-00701999999ADDGF100991999999999999999999MA1100811999999REMMET050METAR EDJA 071950Z 34004KT 6000 NSC M07/M07 Q1008;EQDQ01    003SCCGA1
0122109470999992010010720204+47983+010233FM-15+0629EDJA V0200101N002112200019N0060001N1-00601-00701999999ADDGF100991999999999999999999MA1100811999999REMMET050METAR EDJA 072020Z 01004KT 6000 NSC M06/M07 Q1008;EQDQ01    003SCCGA1
0122109470999992010010720504+47983+010233FM-15+0629EDJA V0200401N001012200019N0060001N1-00701-00701999999ADDGF100991999999999999999999MA1100811999999REMMET050METAR EDJA 072050Z 04002KT 6000 NSC M07/M07 Q1008;EQDQ01    003SCCGA1
0140109470999992010010804504+47983+010233FM-15+0629EDJA V0200601N005710015019N0015001N1-00401-00501999999ADDGA1071+001501999GF107991999999999999999999MA1100711999999MW1101MW2731REMMET059METAR EDJA 080450Z 06011KT 1500 SN BR BKN005 M04/M05 Q1007;
0140109470999992010010805204+47983+010233FM-15+0629EDJA V0200601N005710015019N0015001N1-00501-00501999999ADDGA1071+001501999GF107991999999999999999999MA1100711999999MW1101MW2731REMMET059METAR EDJA 080520Z 06011KT 1500 SN BR BKN005 M05/M05 Q1007;
0146109470999992010010805504+47983+010233FM-15+0629EDJA V0200501N005710015019N0015001N1-00501-00501999999ADDGA1071+001501999GF107991999999999999999999MA1100711999999MW1101MW2711REMMET065METAR EDJA 080550Z 05011KT 1500 -SN BR BKN005 M05/M05 Q1007 RESN;
0141109470999992010010806504+47983+010233FM-15+0629EDJA V0200601N005710012019N0017001N1-00501-00501999999ADDGA1071+001201999GF107991999999999999999999MA1100711999999MW1101MW2711REMMET060METAR EDJA 080650Z 06011KT 1700 -SN BR BKN004 M05/M05 Q1007;
0140109470999992010010807204+47983+010233FM-15+0629EDJA V0200501N005110015019N0015001N1-00501-00501999999ADDGA1071+001501999GF107991999999999999999999MA1100711999999MW1101MW2731REMMET059METAR EDJA 080720Z 05010KT 1500 SN BR BKN005 M05/M05 Q1007;
0141109470999992010010807504+47983+010233FM-15+0629EDJA V0200501N005710024019N0030001N1-00501-00601999999ADDGA1071+002401999GF107991999999999999999999MA1100711999999MW1101MW2711REMMET060METAR EDJA 080750Z 05011KT 3000 -SN BR BKN008 M05/M06 Q1007;
0141109470999992010010808204+47983+010233FM-15+0629EDJA V0200401N005710021019N0045001N1-00501-00601999999ADDGA1071+002101999GF107991999999999999999999MA1100711999999MW1101MW2711REMMET060METAR EDJA 080820Z 04011KT 4500 -SN BR BKN007 M05/M06 Q1007;
0131109470999992010010808504+47983+010233FM-15+0629EDJA V0200501N005710021019N0045001N1-00501-00601999999ADDGA1071+002101999GF107991999999999999999999MA1100611999999MW1101REMMET056METAR EDJA 080850Z 05011KT 4500 BR BKN007 M05/M06 Q1006;
0131109470999992010010809204+47983+010233FM-15+0629EDJA V0200501N006210018019N0045001N1-00501-00601999999ADDGA1071+001801999GF107991999999999999999999MA1100611999999MW1101REMMET056METAR EDJA 080920Z 05012KT 4500 BR BKN006 M05/M06 Q1006;
0131109470999992010010809504+47983+010233FM-15+0629EDJA V0200501N006710015019N0045001N1-00501-00601999999ADDGA1071+001501999GF107991999999999999999999MA1100611999999MW1101REMMET056METAR EDJA 080950Z 05013KT 4500 BR BKN005 M05/M06 Q1006;
0131109470999992010010810204+47983+010233FM-15+0629EDJA V0200501N006710015019N0045001N1-00501-00601999999ADDGA1071+001501999GF107991999999999999999999MA1100511999999MW1101REMMET056METAR EDJA 081020Z 05013KT 4500 BR BKN005 M05/M06 Q1005;
0131109470999992010010810504+47983+010233FM-15+0629EDJA V0200501N006710015019N0045001N1-00501-00501999999ADDGA1071+001501999GF107991999999999999999999MA1100511999999MW1101REMMET056METAR EDJA 081050Z 05013KT 4500 BR BKN005 M05/M05 Q1005;
0131109470999992010010811204+47983+010233FM-15+0629EDJA V0200601N006710015019N0045001N1-00501-00501999999ADDGA1071+001501999GF107991999999999999999999MA1100511999999MW1101REMMET056METAR EDJA 081120Z 06013KT 4500 BR BKN005 M05/M05 Q1005;
0131109470999992010010811504+47983+010233FM-15+0629EDJA V0200601N006710015019N0045001N1-00401-00501999999ADDGA1071+001501999GF107991999999999999999999MA1100411999999MW1101REMMET056METAR EDJA 081150Z 06013KT 4500 BR BKN005 M04/M05 Q1004;
0131109470999992010010812204+47983+010233FM-15+0629EDJA V0200601N007210015019N0045001N1-00401-00501999999ADDGA1071+001501999GF107991999999999999999999MA1100411999999MW1101REMMET056METAR EDJA 081220Z 06014KT 4500 BR BKN005 M04/M05 Q1004;
0131109470999992010010812504+47983+010233FM-15+0629EDJA V0200601N006710012019N0026001N1-00401-00501999999ADDGA1071+001201999GF107991999999999999999999MA1100311999999MW1101REMMET056METAR EDJA 081250Z 06013KT 2600 BR BKN004 M04/M05 Q1003;
0131109470999992010010813204+47983+010233FM-15+0629EDJA V0200501N007710012019N0026001N1-00401-00501999999ADDGA1071+001201999GF107991999999999999999999MA1100311999999MW1101REMMET056METAR EDJA 081320Z 05015KT 2600 BR BKN004 M04/M05 Q1003;
0131109470999992010010813504+47983+010233FM-15+0629EDJA V0200501N007210015019N0037001N1-00401-00501999999ADDGA1071+001501999GF107991999999999999999999MA1100311999999MW1101REMMET056METAR EDJA 081350Z 05014KT 3700 BR BKN005 M04/M05 Q1003;
0131109470999992010010814204+47983+010233FM-15+0629EDJA V0200601N007710015019N0040001N1-00401-00501999999ADDGA1071+001501999GF107991999999999999999999MA1100311999999MW1101REMMET056METAR EDJA 081420Z 06015KT 4000 BR BKN005 M04/M05 Q1003;
0131109470999992010010814504+47983+010233FM-15+0629EDJA V0200601N006710015019N0047001N1-00401-00501999999ADDGA1071+001501999GF107991999999999999999999MA1100311999999MW1101REMMET056METAR EDJA 081450Z 06013KT 4700 BR BKN005 M04/M05 Q1003;
0131109470999992010010815204+47983+010233FM-15+0629EDJA V0200501N007210015019N0042001N1-00401-00501999999ADDGA1071+001501999GF107991999999999999999999MA1100311999999MW1101REMMET056METAR EDJA 081520Z 05014KT 4200 BR BKN005 M04/M05 Q1003;
0131109470999992010010815504+47983+010233FM-15+0629EDJA V0200501N006210015019N0038001N1-00401-00501999999ADDGA1071+001501999GF107991999999999999999999MA1100311999999MW1101REMMET056METAR EDJA 081550Z 05012KT 3800 BR BKN005 M04/M05 Q1003;
0143109470999992010010816504+47983+010233FM-15+0629EDJA V0200501N006210015019N0047001N1-00401-00501999999ADDGA1071+001501999GF107991999999999999999999MA1100311999999MW1101MW2561REMMET062METAR EDJA 081650Z 05012KT 4700 -FZDZ BR BKN005 M04/M05 Q1003;
0143109470999992010010817204+47983+010233FM-15+0629EDJA V0200501N005710015019N0050001N1-00401-00501999999ADDGA1071+001501999GF107991999999999999999999MA1100201999999MW1101MW2561REMMET062METAR EDJA 081720Z 05011KT 5000 -FZDZ BR BKN005 M04/M05 Q1002;
0143109470999992010010817504+47983+010233FM-15+0629EDJA V0200401N005710012019N0028001N1-00401-00501999999ADDGA1071+001201999GF107991999999999999999999MA1100201999999MW1101MW2561REMMET062METAR EDJA 081750Z 04011KT 2800 -FZDZ BR BKN004 M04/M05 Q1002;
0143109470999992010010818204+47983+010233FM-15+0629EDJA V0200401N005710012019N0040001N1-00501-00501999999ADDGA1071+001201999GF107991999999999999999999MA1100311999999MW1101MW2561REMMET062METAR EDJA 081820Z 04011KT 4000 -FZDZ BR BKN004 M05/M05 Q1003;
0143109470999992010010818504+47983+010233FM-15+0629EDJA V0200401N005710012019N0042001N1-00501-00501999999ADDGA1071+001201999GF107991999999999999999999MA1100311999999MW1101MW2561REMMET062METAR EDJA 081850Z 04011KT 4200 -FZDZ BR BKN004 M05/M05 Q1003;
0143109470999992010010819204+47983+010233FM-15+0629EDJA V0200401N006210012019N0026001N1-00501-00501999999ADDGA1071+001201999GF107991999999999999999999MA1100311999999MW1101MW2561REMMET062METAR EDJA 081920Z 04012KT 2600 -FZDZ BR BKN004 M05/M05 Q1003;
0143109470999992010010819504+47983+010233FM-15+0629EDJA V0200301N005110009019N0026001N1-00501-00501999999ADDGA1071+000901999GF107991999999999999999999MA1100311999999MW1101MW2561REMMET062METAR EDJA 081950Z 03010KT 2600 -FZDZ BR BKN003 M05/M05 Q1003;
0141109470999992010010820204+47983+010233FM-15+0629EDJA V0200301N005110009019N0023001N1-00501-00501999999ADDGA1071+000901999GF107991999999999999999999MA1100311999999MW1101MW2711REMMET060METAR EDJA 082020Z 03010KT 2300 -SN BR BKN003 M05/M05 Q1003;
0141109470999992010010820504+47983+010233FM-15+0629EDJA V0200301N003610009019N0032001N1-00501-00501999999ADDGA1071+000901999GF107991999999999999999999MA1100311999999MW1101MW2711REMMET060METAR EDJA 082050Z 03007KT 3200 -SN BR BKN003 M05/M05 Q1003;
0141109470999992010010821204+47983+010233FM-15+0629EDJA V0200401N003610015019N0040001N1-00501-00501999999ADDGA1071+001501999GF107991999999999999999999MA1100311999999MW1101MW2711REMMET060METAR EDJA 082120Z 04007KT 4000 -SN BR BKN005 M05/M05 Q1003;
0133109470999992010010904504+47983+010233FM-15+0629EDJA V0200201N003610006019N0009001N1-00701-00701999999ADDGA1071+000601999GF107991999999999999999999MA1100311999999MW1481REMMET058METAR EDJA 090450Z 02007KT 0900 FZFG BKN002 M07/M07 Q1003;
0133109470999992010010905204+47983+010233FM-15+0629EDJA V0200301N004110003019N0006001N1-00701-00701999999ADDGA1071+000301999GF107991999999999999999999MA1100311999999MW1481REMMET058METAR EDJA 090520Z 03008KT 0600 FZFG BKN001 M07/M07 Q1003;
0132109470999992010010905504+47983+010233FM-15+0629EDJA V0200201N00411000151CN0006001N1-00601-00701999999ADDGA1091+000151999GF109991999999000251999999MA1100311999999MW1491REMMET057METAR EDJA 090550Z 02008KT 0600 FZFG VV/// M06/M07 Q1003;
0133109470999992010010906204+47983+010233FM-15+0629EDJA V0200301N004110003019N0006001N1-00601-00701999999ADDGA1071+000301999GF107991999999999999999999MA1100201999999MW1481REMMET058METAR EDJA 090620Z 03008KT 0600 FZFG BKN001 M06/M07 Q1002;
0132109470999992010010906504+47983+010233FM-15+0629EDJA V0200301N00411000151CN0004001N1-00601-00701999999ADDGA1091+000151999GF109991999999000251999999MA1100201999999MW1491REMMET057METAR EDJA 090650Z 03008KT 0400 FZFG VV/// M06/M07 Q1002;
0153109470999992010010907204+47983+010233FM-15+0629EDJA V0200401N00461000151CN0004001N1-00601-00701999999ADDED199U12009GA1091+000151999GF109991999999000251999999MA1100201999999MW1491REMMET067METAR EDJA 090720Z 04009KT 0400 R06/1200N FZFG VV/// M06/M07 Q1002;
0153109470999992010010907504+47983+010233FM-15+0629EDJA V0200401N00411000151CN0004001N1-00601-00701999999ADDED199U09009GA1091+000151999GF109991999999000251999999MA1100311999999MW1491REMMET067METAR EDJA 090750Z 04008KT 0400 R06/0900N FZFG VV/// M06/M07 Q1003;
0154109470999992010010908204+47983+010233FM-15+0629EDJA V0200401N004610003019N0006001N1-00601-00701999999ADDED199U10009GA1071+000301999GF107991999999999999999999MA1100311999999MW1481REMMET068METAR EDJA 090820Z 04009KT 0600 R06/1000N FZFG BKN001 M06/M07 Q1003;
0154109470999992010010908504+47983+010233FM-15+0629EDJA V0200401N004610003019N0004001N1-00601-00601999999ADDED199U12009GA1071+000301999GF107991999999999999999999MA1100311999999MW1481REMMET068METAR EDJA 090850Z 04009KT 0400 R06/1200N FZFG BKN001 M06/M06 Q1003;
0159109470999992010010909204+47983+010233FM-15+0629EDJA V0200301N00461000151CN0004001N1-00601-00601999999ADDED199U11009GA1091+000151999GF109991999999000251999999MA1100201999999MW1491REMMET073METAR EDJA 090920Z 03009KT 0400 R06/1100N -SHSN FZFG VV/// M06/M06 Q1002;
0164109470999992010010909504+47983+010233FM-15+0629EDJA V0200401N005110006019N0004001N1-00601-00601999999ADDED199U11009GA1071+000601999GF107991999999999999999999MA1100201999999MW1481MW2711REMMET072METAR EDJA 090950Z 04010KT 0400 R06/1100N -SN FZFG BKN002 M06/M06 Q1002;
0143109470999992010010910204+47983+010233FM-15+0629EDJA V0200401N004610006019N0009001N1-00601-00601999999ADDGA1071+000601999GF107991999999999999999999MA1100201999999MW1481MW2711REMMET062METAR EDJA 091020Z 04009KT 0900 -SN FZFG BKN002 M06/M06 Q1002;
0141109470999992010010910504+47983+010233FM-15+0629EDJA V0200501N004110009019N0015001N1-00601-00601999999ADDGA1071+000901999GF107991999999999999999999MA1100201999999MW1101MW2711REMMET060METAR EDJA 091050Z 05008KT 1500 -SN BR BKN003 M06/M06 Q1002;
0143109470999992010010911204+47983+010233FM-15+0629EDJA V0200301N004610006019N0010001N1-00601-00601999999ADDGA1071+000601999GF107991999999999999999999MA1100201999999MW1101MW2561REMMET062METAR EDJA 091120Z 03009KT 1000 -FZDZ BR BKN002 M06/M06 Q1002;
0143109470999992010010911504+47983+010233FM-15+0629EDJA V0200301N005710006019N0009001N1-00601-00601999999ADDGA1071+000601999GF107991999999999999999999MA1100201999999MW1441MW2661REMMET062METAR EDJA 091150Z 03011KT 0900 -FZRA FG BKN002 M06/M06 Q1002;
0143109470999992010010912204+47983+010233FM-15+0629EDJA V0200401N005110006019N0009001N1-00601-00601999999ADDGA1071+000601999GF107991999999999999999999MA1100201999999MW1441MW2561REMMET062METAR EDJA 091220Z 04010KT 0900 -FZDZ FG BKN002 M06/M06 Q1002;
0143109470999992010010912504+47983+010233FM-15+0629EDJA V0200301N005710006019N0015001N1-00601-00601999999ADDGA1071+000601999GF107991999999999999999999MA1100101999999MW1101MW2561REMMET062METAR EDJA 091250Z 03011KT 1500 -FZDZ BR BKN002 M06/M06 Q1001;
0143109470999992010010913204+47983+010233FM-15+0629EDJA V0200401N005710012019N0020001N1-00601-00601999999ADDGA1071+001201999GF107991999999999999999999MA1100101999999MW1101MW2561REMMET062METAR EDJA 091320Z 04011KT 2000 -FZDZ BR BKN004 M06/M06 Q1001;
0143109470999992010010913504+47983+010233FM-15+0629EDJA V0200401N005710012019N0024001N1-00601-00601999999ADDGA1071+001201999GF107991999999999999999999MA1100101999999MW1101MW2561REMMET062METAR EDJA 091350Z 04011KT 2400 -FZDZ BR BKN004 M06/M06 Q1001;
0142109470999992010010914204+47983+010233FM-15+0629EDJA V0200401N004610012019N0017001N1-00601-00601999999ADDGA1071+001201999GF107991999999999999999999MA1100101999999MW1101MW2571REMMET061METAR EDJA 091420Z 04009KT 1700 FZDZ BR BKN004 M06/M06 Q1001;
0165109470999992010010914504+47983+010233FM-15+0629EDJA V0200401N004610009019N0013001N1-00601-00601999999ADDED199U15009GA1071+000901999GF107991999999999999999999MA1100201999999MW1101MW2561REMMET073METAR EDJA 091450Z 04009KT 1300 R06/P1500N -FZDZ BR BKN003 M06/M06 Q1002;
0143109470999992010010915204+47983+010233FM-15+0629EDJA V0200401N005110009019N0017001N1-00601-00601999999ADDGA1071+000901999GF107991999999999999999999MA1100201999999MW1101MW2561REMMET062METAR EDJA 091520Z 04010KT 1700 -FZDZ BR BKN003 M06/M06 Q1002;
0143109470999992010010915504+47983+010233FM-15+0629EDJA V0200301N004610012019N0022001N1-00601-00601999999ADDGA1071+001201999GF107991999999999999999999MA1100101999999MW1101MW2561REMMET062METAR EDJA 091550Z 03009KT 2200 -FZDZ BR BKN004 M06/M06 Q1001;
0143109470999992010010916204+47983+010233FM-15+0629EDJA V0200301N004610012019N0030001N1-00601-00601999999ADDGA1071+001201999GF107991999999999999999999MA1100101999999MW1101MW2561REMMET062METAR EDJA 091620Z 03009KT 3000 -FZDZ BR BKN004 M06/M06 Q1001;
0143109470999992010010916504+47983+010233FM-15+0629EDJA V0200401N004110009019N0030001N1-00601-00601999999ADDGA1071+000901999GF107991999999999999999999MA1100201999999MW1101MW2561REMMET062METAR EDJA 091650Z 04008KT 3000 -FZDZ BR BKN003 M06/M06 Q1002;
0143109470999992010010917204+47983+010233FM-15+0629EDJA V0200301N003610009019N0030001N1-00601-00601999999ADDGA1071+000901999GF107991999999999999999999MA1100201999999MW1101MW2561REMMET062METAR EDJA 091720Z 03007KT 3000 -FZDZ BR BKN003 M06/M06 Q1002;
0143109470999992010010917504+47983+010233FM-15+0629EDJA V0200401N004610009019N0024001N1-00601-00601999999ADDGA1071+000901999GF107991999999999999999999MA1100201999999MW1101MW2561REMMET062METAR EDJA 091750Z 04009KT 2400 -FZDZ BR BKN003 M06/M06 Q1002;
0143109470999992010010918204+47983+010233FM-15+0629EDJA V0200401N004110009019N0022001N1-00601-00601999999ADDGA1071+000901999GF107991999999999999999999MA1100201999999MW1101MW2561REMMET062METAR EDJA 091820Z 04008KT 2200 -FZDZ BR BKN003 M06/M06 Q1002;
0143109470999992010010918504+47983+010233FM-15+0629EDJA V0200401N004610009019N0021001N1-00601-00601999999ADDGA1071+000901999GF107991999999999999999999MA1100201999999MW1101MW2561REMMET062METAR EDJA 091850Z 04009KT 2100 -FZDZ BR BKN003 M06/M06 Q1002;
0143109470999992010010919204+47983+010233FM-15+0629EDJA V0200301N003610009019N0026001N1-00601-00601999999ADDGA1071+000901999GF107991999999999999999999MA1100201999999MW1101MW2561REMMET062METAR EDJA 091920Z 03007KT 2600 -FZDZ BR BKN003 M06/M06 Q1002;
0143109470999992010010919504+47983+010233FM-15+0629EDJA V0200301N003110009019N0031001N1-00601-00601999999ADDGA1071+000901999GF107991999999999999999999MA1100201999999MW1101MW2561REMMET062METAR EDJA 091950Z 03006KT 3100 -FZDZ BR BKN003 M06/M06 Q1002;
0143109470999992010010920204+47983+010233FM-15+0629EDJA V0200301N002110012019N0028001N1-00601-00601999999ADDGA1071+001201999GF107991999999999999999999MA1100201999999MW1101MW2561REMMET062METAR EDJA 092020Z 03004KT 2800 -FZDZ BR BKN004 M06/M06 Q1002;
0143109470999992010010920504+47983+010233FM-15+0629EDJA V0200201N002610012019N0032001N1-00601-00601999999ADDGA1071+001201999GF107991999999999999999999MA1100201999999MW1101MW2561REMMET062METAR EDJA 092050Z 02005KT 3200 -FZDZ BR BKN004 M06/M06 Q1002;
0138109470999992010010921204+47983+010233FM-15+0629EDJA V0203601N002110015019N0039001N1-00601-00601999999ADDGA1071+001501999GF107991999999999999999999MA1100201999999MW1101REMMET063METAR EDJA 092120Z 36004KT 3900 BR BKN005 M06/M06 Q1002 REFZDZ;
0133109470999992010011004504+47983+010233FM-15+0629EDJA V0202301N000510006019N0005001N1-00601-00601999999ADDGA1071+000601999GF107991999999999999999999MA1100511999999MW1481REMMET058METAR EDJA 100450Z 23001KT 0500 FZFG BKN002 M06/M06 Q1005;
0133109470999992010011005204+47983+010233FM-15+0629EDJA V0202501N001510006019N0006001N1-00601-00601999999ADDGA1071+000601999GF107991999999999999999999MA1100611999999MW1481REMMET058METAR EDJA 100520Z 25003KT 0600 FZFG BKN002 M06/M06 Q1006;
0133109470999992010011005504+47983+010233FM-15+0629EDJA V0202601N001510009019N0004001N1-00601-00601999999ADDGA1071+000901999GF107991999999999999999999MA1100611999999MW1481REMMET058METAR EDJA 100550Z 26003KT 0400 FZFG BKN003 M06/M06 Q1006;
0133109470999992010011006204+47983+010233FM-15+0629EDJA V0203001N001010006019N0007001N1-00601-00601999999ADDGA1071+000601999GF107991999999999999999999MA1100611999999MW1481REMMET058METAR EDJA 100620Z 30002KT 0700 FZFG BKN002 M06/M06 Q1006;
0133109470999992010011006504+47983+010233FM-15+0629EDJA V0203001N001510006019N0007001N1-00601-00601999999ADDGA1071+000601999GF107991999999999999999999MA1100611999999MW1481REMMET058METAR EDJA 100650Z 30003KT 0700 FZFG BKN002 M06/M06 Q1006;
0133109470999992010011007204+47983+010233FM-15+0629EDJA V0203001N002610003019N0009001N1-00601-00601999999ADDGA1071+000301999GF107991999999999999999999MA1100711999999MW1481REMMET058METAR EDJA 100720Z 30005KT 0900 FZFG BKN001 M06/M06 Q1007;
0133109470999992010011007504+47983+010233FM-15+0629EDJA V0202901N002110006019N0006001N1-00601-00601999999ADDGA1071+000601999GF107991999999999999999999MA1100711999999MW1481REMMET058METAR EDJA 100750Z 29004KT 0600 FZFG BKN002 M06/M06 Q1007;
0133109470999992010011008204+47983+010233FM-15+0629EDJA V0203001N001510009019N0007001N1-00601-00601999999ADDGA1071+000901999GF107991999999999999999999MA1100811999999MW1481REMMET058METAR EDJA 100820Z 30003KT 0700 FZFG BKN003 M06/M06 Q1008;
0133109470999992010011008504+47983+010233FM-15+0629EDJA V0209999V001010009019N0009001N1-00601-00601999999ADDGA1071+000901999GF107991999999999999999999MA1100811999999MW1481REMMET058METAR EDJA 100850Z VRB02KT 0900 FZFG BKN003 M06/M06 Q1008;
0143109470999992010011009204+47983+010233FM-15+0629EDJA V0209999V001010009019N0009001N1-00501-00601999999ADDGA1071+000901999GF107991999999999999999999MA1100811999999MW1481MW2711REMMET062METAR EDJA 100920Z VRB02KT 0900 -SN FZFG BKN003 M05/M06 Q1008;
0141109470999992010011009504+47983+010233FM-15+0629EDJA V0209999V001010012019N0015001N1-00501-00601999999ADDGA1071+001201999GF107991999999999999999999MA1100911999999MW1101MW2711REMMET060METAR EDJA 100950Z VRB02KT 1500 -SN BR BKN004 M05/M06 Q1009;
0131109470999992010011010204+47983+010233FM-15+0629EDJA V0202701N002610015019N0025001N1-00501-00601999999ADDGA1071+001501999GF107991999999999999999999MA1100911999999MW1101REMMET056METAR EDJA 101020Z 27005KT 2500 BR BKN005 M05/M06 Q1009;
0137109470999992010011010504+47983+010233FM-15+0629EDJA V0202601N003110018019N0040001N1-00501-00601999999ADDGA1071+001801999GF107991999999999999999999MA1100911999999MW1101REMMET062METAR EDJA 101050Z 26006KT 4000 -SHSN BR BKN006 M05/M06 Q1009;
0137109470999992010011011204+47983+010233FM-15+0629EDJA V0202701N002610018019N0035001N1-00501-00601999999ADDGA1071+001801999GF107991999999999999999999MA1100911999999MW1101REMMET062METAR EDJA 101120Z 27005KT 3500 -SHSN BR BKN006 M05/M06 Q1009;
0160109470999992010011011504+47983+010233FM-15+0629EDJA V0202701N002610063019N0045001N1-00501-00601999999ADDGA1041+002701999GA2071+006301999GF107991999999999999999999MA1100911999999MW1101REMMET069METAR EDJA 101150Z 27005KT 4500 -SHSN BR SCT009 BKN021 M05/M06 Q1009;
0153109470999992010011012204+47983+010233FM-15+0629EDJA V0202401N002610072019N0050001N1-00501-00601999999ADDGA1021+001801999GA2071+007201999GF107991999999999999999999MA1101021999999REMMET068METAR EDJA 101220Z 24005KT 200V270 5000 FEW006 BKN024 M05/M06 Q1010;
0122109470999992010011012504+47983+010233FM-15+0629EDJA V0202501N002610075019N0050001N1-00501-00601999999ADDGA1071+007501999GF107991999999999999999999MA1101021999999REMMET053METAR EDJA 101250Z 25005KT 5000 BKN025 M05/M06 Q1010;
0122109470999992010011013204+47983+010233FM-15+0629EDJA V0202401N003610075019N0070001N1-00501-00601999999ADDGA1071+007501999GF107991999999999999999999MA1101021999999REMMET053METAR EDJA 101320Z 24007KT 7000 BKN025 M05/M06 Q1010;
0130109470999992010011013504+47983+010233FM-15+0629EDJA V0202301N003110081019N0070001N1-00501-00601999999ADDGA1071+008101999GF107991999999999999999999MA1101021999999REMMET061METAR EDJA 101350Z 23006KT 190V260 7000 BKN027 M05/M06 Q1010;
0122109470999992010011014204+47983+010233FM-15+0629EDJA V0202401N003610081019N0080001N1-00501-00601999999ADDGA1071+008101999GF107991999999999999999999MA1101021999999REMMET053METAR EDJA 101420Z 24007KT 8000 BKN027 M05/M06 Q1010;
0145109470999992010011014504+47983+010233FM-15+0629EDJA V0202301N003110081019N0080001N1-00501-00601999999ADDGA1041+004801999GA2071+008101999GF107991999999999999999999MA1101021999999REMMET060METAR EDJA 101450Z 23006KT 8000 SCT016 BKN027 M05/M06 Q1010;
0145109470999992010011015204+47983+010233FM-15+0629EDJA V0202701N001510078019N0080001N1-00501-00601999999ADDGA1041+003901999GA2071+007801999GF107991999999999999999999MA1101081999999REMMET060METAR EDJA 101520Z 27003KT 8000 SCT013 BKN026 M05/M06 Q1011;
0145109470999992010011015504+47983+010233FM-15+0629EDJA V0202601N002610048019N0070001N1-00501-00601999999ADDGA1071+004801999GA2071+008101999GF107991999999999999999999MA1101081999999REMMET060METAR EDJA 101550Z 26005KT 7000 BKN016 BKN027 M05/M06 Q1011;
0145109470999992010011016204+47983+010233FM-15+0629EDJA V0202601N002610084019N0080001N1-00501-00601999999ADDGA1041+004501999GA2071+008401999GF107991999999999999999999MA1101081999999REMMET060METAR EDJA 101620Z 26005KT 8000 SCT015 BKN028 M05/M06 Q1011;
0122109470999992010011016504+47983+010233FM-15+0629EDJA V0202601N002110084019N0070001N1-00501-00601999999ADDGA1071+008401999GF107991999999999999999999MA1101081999999REMMET053METAR EDJA 101650Z 26004KT 7000 BKN028 M05/M06 Q1011;
0145109470999992010011017204+47983+010233FM-15+0629EDJA V0202501N002110084019N0070001N1-00501-00601999999ADDGA1021+003901999GA2071+008401999GF107991999999999999999999MA1101191999999REMMET060METAR EDJA 101720Z 25004KT 7000 FEW013 BKN028 M05/M06 Q1012;
0122109470999992010011017504+47983+010233FM-15+0629EDJA V0202201N002110087019N0070001N1-00501-00701999999ADDGA1071+008701999GF107991999999999999999999MA1101191999999REMMET053METAR EDJA 101750Z 22004KT 7000 BKN029 M05/M07 Q1012;
0132109470999992010011018204+47983+010233FM-15+0629EDJA V0202301N002110084019N0070001N1-00501-00601999999ADDGA1081+008401999GF108991999999999999999999MA1101191999999MW1711REMMET057METAR EDJA 101820Z 23004KT 7000 -SN OVC028 M05/M06 Q1012;
0132109470999992010011018504+47983+010233FM-15+0629EDJA V0202301N002110081019N0070001N1-00501-00701999999ADDGA1081+008101999GF108991999999999999999999MA1101191999999MW1711REMMET057METAR EDJA 101850Z 23004KT 7000 -SN OVC027 M05/M07 Q1012;
0135109470999992010011019204+47983+010233FM-15+0629EDJA V0202301N002110078019N0070001N1-00601-00701999999ADDGA1081+007801999GF108991999999999999999999MA1101191999999REMMET066METAR EDJA 101920Z 23004KT 190V260 7000 OVC026 M06/M07 Q1012 RESN;
0132109470999992010011019504+47983+010233FM-15+0629EDJA V0202401N002110078019N0060001N1-00601-00701999999ADDGA1081+007801999GF108991999999999999999999MA1101291999999MW1711REMMET057METAR EDJA 101950Z 24004KT 6000 -SN OVC026 M06/M07 Q1013;
0164109470999992010011020204+47983+010233FM-15+0629EDJA V0202201N002110084019N0050001N1-00601-00701999999ADDGA1041+006301999GA2071+008401999GF107991999999999999999999MA1101291999999MW1101MW2711REMMET067METAR EDJA 102020Z 22004KT 5000 -SN BR SCT021 BKN028 M06/M07 Q1013;
0155109470999992010011020504+47983+010233FM-15+0629EDJA V0202101N002610081019N0070001N1-00601-00701999999ADDGA1071+008101999GA2071+011401999GF107991999999999999999999MA1101291999999MW1711REMMET064METAR EDJA 102050Z 21005KT 7000 -SN BKN027 BKN038 M06/M07 Q1013;
0132109470999992010011021204+47983+010233FM-15+0629EDJA V0209999V001510099019N0070001N1-00601-00701999999ADDGA1071+009901999GF107991999999999999999999MA1101291999999MW1711REMMET057METAR EDJA 102120Z VRB03KT 7000 -SN BKN033 M06/M07 Q1013;
0164109470999992010011104204+47983+010233FM-15+0629EDJA V0202201N002110066019N0045001N1-00601-00701999999ADDGA1021+003001999GA2071+006601999GF107991999999999999999999MA1101191999999MW1101MW2711REMMET067METAR EDJA 110420Z 22004KT 4500 -SN BR FEW010 BKN022 M06/M07 Q1012;
0164109470999992010011104504+47983+010233FM-15+0629EDJA V0202301N001010066019N0040001N1-00601-00701999999ADDGA1021+003301999GA2081+006601999GF108991999999999999999999MA1101291999999MW1101MW2711REMMET067METAR EDJA 110450Z 23002KT 4000 -SN BR FEW011 OVC022 M06/M07 Q1013;
0141109470999992010011105204+47983+010233FM-15+0629EDJA V0202101N002110060019N0050001N1-00601-00701999999ADDGA1071+006001999GF107991999999999999999999MA1101191999999MW1101MW2711REMMET060METAR EDJA 110520Z 21004KT 5000 -SN BR BKN020 M06/M07 Q1012;
0141109470999992010011105504+47983+010233FM-15+0629EDJA V0202201N001510057019N0050001N1-00601-00701999999ADDGA1071+005701999GF107991999999999999999999MA1101191999999MW1101MW2711REMMET060METAR EDJA 110550Z 22003KT 5000 -SN BR BKN019 M06/M07 Q1012;
0141109470999992010011106204+47983+010233FM-15+0629EDJA V0202401N002110051019N0050001N1-00601-00701999999ADDGA1071+005101999GF107991999999999999999999MA1101291999999MW1101MW2711REMMET060METAR EDJA 110620Z 24004KT 5000 -SN BR BKN017 M06/M07 Q1013;
0141109470999992010011106504+47983+010233FM-15+0629EDJA V0202401N002110054019N0050001N1-00601-00701999999ADDGA1071+005401999GF107991999999999999999999MA1101291999999MW1101MW2711REMMET060METAR EDJA 110650Z 24004KT 5000 -SN BR BKN018 M06/M07 Q1013;
0171109470999992010011107204+47983+010233FM-15+0629EDJA V0209999V001510039019N0045001N1-00601-00701999999ADDGA1071+003901999GA2071+006001999GF107991999999999999999999MA1101191999999MW1101MW2711REMMET074METAR EDJA 110720Z VRB03KT 4500 -SN BR BKN013 BKN020 M06/M07 Q1012 REFZRA;
0164109470999992010011107504+47983+010233FM-15+0629EDJA V0209999V001510030019N0033001N1-00601-00701999999ADDGA1071+003001999GA2071+006001999GF107991999999999999999999MA1101291999999MW1101MW2711REMMET067METAR EDJA 110750Z VRB03KT 3300 -SN BR BKN010 BKN020 M06/M07 Q1013;
0164109470999992010011108204+47983+010233FM-15+0629EDJA V0209999V001510039019N0017001N1-00601-00701999999ADDGA1071+003901999GA2071+007501999GF107991999999999999999999MA1101291999999MW1101MW2711REMMET067METAR EDJA 110820Z VRB03KT 1700 -SN BR BKN013 BKN025 M06/M07 Q1013;
0164109470999992010011108504+47983+010233FM-15+0629EDJA V0209999V001010030019N0018001N1-00601-00701999999ADDGA1071+003001999GA2071+006001999GF107991999999999999999999MA1101291999999MW1101MW2711REMMET067METAR EDJA 110850Z VRB02KT 1800 -SN BR BKN010 BKN020 M06/M07 Q1013;
0164109470999992010011109204+47983+010233FM-15+0629EDJA V0202201N001510036019N0030001N1-00601-00601999999ADDGA1071+003601999GA2071+006601999GF107991999999999999999999MA1101291999999MW1101MW2711REMMET067METAR EDJA 110920Z 22003KT 3000 -SN BR BKN012 BKN022 M06/M06 Q1013;
0164109470999992010011109504+47983+010233FM-15+0629EDJA V0209999V001510024019N0025001N1-00501-00601999999ADDGA1071+002401999GA2071+006601999GF107991999999999999999999MA1101291999999MW1101MW2711REMMET067METAR EDJA 110950Z VRB03KT 2500 -SN BR BKN008 BKN022 M05/M06 Q1013;
0141109470999992010011110204+47983+010233FM-15+0629EDJA V0202301N001510030019N0024001N1-00501-00601999999ADDGA1071+003001999GF107991999999999999999999MA1101191999999MW1101MW2711REMMET060METAR EDJA 111020Z 23003KT 2400 -SN BR BKN010 M05/M06 Q1012;
0132109470999992010011110504+47983+010233FM-15+0629EDJA V0209999V001510030019N0025001N1-00501-00601999999ADDGA1071+003001999GF107991999999999999999999MA1101191999999MW1711REMMET057METAR EDJA 111050Z VRB03KT 2500 -SN BKN010 M05/M06 Q1012;
0132109470999992010011111204+47983+010233FM-15+0629EDJA V0202401N002110030019N0030001N1-00501-00601999999ADDGA1071+003001999GF107991999999999999999999MA1101191999999MW1711REMMET057METAR EDJA 111120Z 24004KT 3000 -SN BKN010 M05/M06 Q1012;
0132109470999992010011111504+47983+010233FM-15+0629EDJA V0202401N002110030019N0030001N1-00501-00601999999ADDGA1071+003001999GF107991999999999999999999MA1101191999999MW1711REMMET057METAR EDJA 111150Z 24004KT 3000 -SN BKN010 M05/M06 Q1012;
0132109470999992010011112504+47983+010233FM-15+0629EDJA V0209999V001510030019N0030001N1-00501-00501999999ADDGA1071+003001999GF107991999999999999999999MA1101191999999MW1711REMMET057METAR EDJA 111250Z VRB03KT 3000 -SN BKN010 M05/M05 Q1012;
0141109470999992010011113204+47983+010233FM-15+0629EDJA V0202501N002110030019N0015001N1-00401-00501999999ADDGA1071+003001999GF107991999999999999999999MA1101191999999MW1101MW2711REMMET060METAR EDJA 111320Z 25004KT 1500 -SN BR BKN010 M04/M05 Q1012;
0140109470999992010011113504+47983+010233FM-15+0629EDJA V0202501N002610030019N0015001N1-00401-00501999999ADDGA1071+003001999GF107991999999999999999999MA1101191999999MW1101MW2731REMMET059METAR EDJA 111350Z 25005KT 1500 SN BR BKN010 M04/M05 Q1012;
0141109470999992010011114204+47983+010233FM-15+0629EDJA V0202501N002610024019N0020001N1-00501-00501999999ADDGA1071+002401999GF107991999999999999999999MA1101191999999MW1101MW2711REMMET060METAR EDJA 111420Z 25005KT 2000 -SN BR BKN008 M05/M05 Q1012;
0140109470999992010011114504+47983+010233FM-15+0629EDJA V0202601N002110012019N0009001N1-00501-00501999999ADDGA1071+001201999GF107991999999999999999999MA1101191999999MW1441MW2731REMMET059METAR EDJA 111450Z 26004KT 0900 SN FG BKN004 M05/M05 Q1012;
0162109470999992010011115204+47983+010233FM-15+0629EDJA V0202601N002110018019N0006001N1-00501-00501999999ADDED199U15009GA1071+001801999GF107991999999999999999999MA1101191999999MW1441MW2731REMMET070METAR EDJA 111520Z 26004KT 0600 R06/P1500U SN FG BKN006 M05/M05 Q1012;
0140109470999992010011115504+47983+010233FM-15+0629EDJA V0202301N003110027019N0009001N1-00501-00501999999ADDGA1071+002701999GF107991999999999999999999MA1101291999999MW1441MW2731REMMET059METAR EDJA 111550Z 23006KT 0900 SN FG BKN009 M05/M05 Q1013;
0131109470999992010011116504+47983+010233FM-15+0629EDJA V0202301N003110030019N0025001N1-00501-00501999999ADDGA1071+003001999GF107991999999999999999999MA1101291999999MW1731REMMET056METAR EDJA 111650Z 23006KT 2500 SN BKN010 M05/M05 Q1013;
0140109470999992010011117204+47983+010233FM-15+0629EDJA V0202401N003610027019N0020001N1-00501-00501999999ADDGA1071+002701999GF107991999999999999999999MA1101291999999MW1101MW2731REMMET059METAR EDJA 111720Z 24007KT 2000 SN BR BKN009 M05/M05 Q1013;
0140109470999992010011117504+47983+010233FM-15+0629EDJA V0202201N003610027019N0015001N1-00501-00601999999ADDGA1071+002701999GF107991999999999999999999MA1101291999999MW1101MW2731REMMET059METAR EDJA 111750Z 22007KT 1500 SN BR BKN009 M05/M06 Q1013;
0140109470999992010011118204+47983+010233FM-15+0629EDJA V0202301N003610027019N0015001N1-00501-00601999999ADDGA1071+002701999GF107991999999999999999999MA1101391999999MW1101MW2731REMMET059METAR EDJA 111820Z 23007KT 1500 SN BR BKN009 M05/M06 Q1014;
0141109470999992010011118504+47983+010233FM-15+0629EDJA V0202201N003610018019N0015001N1-00501-00601999999ADDGA1071+001801999GF107991999999999999999999MA1101391999999MW1101MW2751REMMET060METAR EDJA 111850Z 22007KT 1500 +SN BR BKN006 M05/M06 Q1014;
0140109470999992010011119204+47983+010233FM-15+0629EDJA V0202201N003610018019N0015001N1-00501-00601999999ADDGA1071+001801999GF107991999999999999999999MA1101391999999MW1101MW2731REMMET059METAR EDJA 111920Z 22007KT 1500 SN BR BKN006 M05/M06 Q1014;
0140109470999992010011119504+47983+010233FM-15+0629EDJA V0202301N003110036019N0015001N1-00501-00601999999ADDGA1071+003601999GF107991999999999999999999MA1101391999999MW1101MW2731REMMET059METAR EDJA 111950Z 23006KT 1500 SN BR BKN012 M05/M06 Q1014;
0140109470999992010011120204+47983+010233FM-15+0629EDJA V0202401N002110036019N0020001N1-00501-00601999999ADDGA1071+003601999GF107991999999999999999999MA1101391999999MW1101MW2731REMMET059METAR EDJA 112020Z 24004KT 2000 SN BR BKN012 M05/M06 Q1014;
0141109470999992010011120504+47983+010233FM-15+0629EDJA V0202401N002610012019N0015001N1-00501-00601999999ADDGA1071+001201999GF107991999999999999999999MA1101391999999MW1101MW2751REMMET060METAR EDJA 112050Z 24005KT 1500 +SN BR BKN004 M05/M06 Q1014;
0141109470999992010011121204+47983+010233FM-15+0629EDJA V0202301N002610012019N0010001N1-00501-00601999999ADDGA1071+001201999GF107991999999999999999999MA1101391999999MW1101MW2751REMMET060METAR EDJA 112120Z 23005KT 1000 +SN BR BKN004 M05/M06 Q1014;
0141109470999992010011204504+47983+010233FM-15+0629EDJA V0202201N001010093019N0035001N1-00501-00601999999ADDGA1071+009301999GF107991999999999999999999MA1101391999999MW1101MW2711REMMET060METAR EDJA 120450Z 22002KT 3500 -SN BR BKN031 M05/M06 Q1014;
0141109470999992010011205204+47983+010233FM-15+0629EDJA V0202001N001510090019N0031001N1-00601-00601999999ADDGA1071+009001999GF107991999999999999999999MA1101391999999MW1101MW2711REMMET060METAR EDJA 120520Z 20003KT 3100 -SN BR BKN030 M06/M06 Q1014;
0141109470999992010011205504+47983+010233FM-15+0629EDJA V0201901N001010105019N0035001N1-00601-00601999999ADDGA1071+010501999GF107991999999999999999999MA1101391999999MW1101MW2711REMMET060METAR EDJA 120550Z 19002KT 3500 -SN BR BKN035 M06/M06 Q1014;
0141109470999992010011206204+47983+010233FM-15+0629EDJA V0201701N001510111019N0035001N1-00601-00601999999ADDGA1071+011101999GF107991999999999999999999MA1101391999999MW1101MW2711REMMET060METAR EDJA 120620Z 17003KT 3500 -SN BR BKN037 M06/M06 Q1014;
0141109470999992010011206504+47983+010233FM-15+0629EDJA V0201701N001010108019N0039001N1-00601-00601999999ADDGA1071+010801999GF107991999999999999999999MA1101391999999MW1101MW2711REMMET060METAR EDJA 120650Z 17002KT 3900 -SN BR BKN036 M06/M06 Q1014;
0164109470999992010011207204+47983+010233FM-15+0629EDJA V0201601N001010111019N0032001N1-00601-00601999999ADDGA1041+006001999GA2071+011101999GF107991999999999999999999MA1101391999999MW1101MW2711REMMET067METAR EDJA 120720Z 16002KT 3200 -SN BR SCT020 BKN037 M06/M06 Q1014;
0141109470999992010011207504+47983+010233FM-15+0629EDJA V0201101N001010132019N0032001N1-00501-00601999999ADDGA1071+013201999GF107991999999999999999999MA1101391999999MW1101MW2711REMMET060METAR EDJA 120750Z 11002KT 3200 -SN BR BKN044 M05/M06 Q1014;
0141109470999992010011208204+47983+010233FM-15+0629EDJA V0200901N001510042019N0037001N1-00501-00601999999ADDGA1071+004201999GF107991999999999999999999MA1101391999999MW1101MW2711REMMET060METAR EDJA 120820Z 09003KT 3700 -SN BR BKN014 M05/M06 Q1014;
0164109470999992010011208504+47983+010233FM-15+0629EDJA V0201101N002110135019N0035001N1-00501-00601999999ADDGA1041+003601999GA2071+013501999GF107991999999999999999999MA1101391999999MW1101MW2711REMMET067METAR EDJA 120850Z 11004KT 3500 -SN BR SCT012 BKN045 M05/M06 Q1014;
0164109470999992010011209204+47983+010233FM-15+0629EDJA V0200801N001510144019N0038001N1-00401-00501999999ADDGA1041+004501999GA2071+014401999GF107991999999999999999999MA1101291999999MW1101MW2711REMMET067METAR EDJA 120920Z 08003KT 3800 -SN BR SCT015 BKN048 M04/M05 Q1013;
0172109470999992010011209504+47983+010233FM-15+0629EDJA V0200801N002110129019N0037001N1-00401-00501999999ADDGA1041+010501999GA2071+012901999GF107991999999999999999999MA1101291999999MW1101MW2711REMMET075METAR EDJA 120950Z 08004KT 050V110 3700 -SN BR SCT035 BKN043 M04/M05 Q1013;
0131109470999992010011210204+47983+010233FM-15+0629EDJA V0200701N002110123019N0040001N1-00401-00501999999ADDGA1071+012301999GF107991999999999999999999MA1101191999999MW1101REMMET056METAR EDJA 121020Z 07004KT 4000 BR BKN041 M04/M05 Q1012;
0122109470999992010011210504+47983+010233FM-15+0629EDJA V0200801N002112200019N0060001N1-00401-00501999999ADDGA1041+003001999GF104991999999999999999999MA1101191999999REMMET053METAR EDJA 121050Z 08004KT 6000 SCT010 M04/M05 Q1012;
0122109470999992010011211504+47983+010233FM-15+0629EDJA V0200601N002612200019N0060001N1-00401-00501999999ADDGA1021+003001999GF102991999999999999999999MA1101081999999REMMET053METAR EDJA 121150Z 06005KT 6000 FEW010 M04/M05 Q1011;
0122109470999992010011212204+47983+010233FM-15+0629EDJA V0200601N003112200019N0060001N1-00401-00501999999ADDGA1021+003001999GF102991999999999999999999MA1101021999999REMMET053METAR EDJA 121220Z 06006KT 6000 FEW010 M04/M05 Q1010;
0122109470999992010011212504+47983+010233FM-15+0629EDJA V0200601N003612200019N0060001N1-00401-00501999999ADDGF100991999999999999999999MA1101021999999REMMET050METAR EDJA 121250Z 06007KT 6000 NSC M04/M05 Q1010;EQDQ01    003SCCGA1
0122109470999992010011213204+47983+010233FM-15+0629EDJA V0200601N004112200019N0050001N1-00401-00401999999ADDGA1021+003001999GF102991999999999999999999MA1100911999999REMMET053METAR EDJA 121320Z 06008KT 5000 FEW010 M04/M04 Q1009;
0131109470999992010011213504+47983+010233FM-15+0629EDJA V0200601N004112200019N0044001N1-00401-00401999999ADDGA1021+002701999GF102991999999999999999999MA1100911999999MW1101REMMET056METAR EDJA 121350Z 06008KT 4400 BR FEW009 M04/M04 Q1009;
0131109470999992010011214204+47983+010233FM-15+0629EDJA V0200601N003612200019N0045001N1-00401-00401999999ADDGA1041+002701999GF104991999999999999999999MA1100911999999MW1101REMMET056METAR EDJA 121420Z 06007KT 4500 BR SCT009 M04/M04 Q1009;
0131109470999992010011215204+47983+010233FM-15+0629EDJA V0200601N003610027019N0050001N1-00401-00501999999ADDGA1071+002701999GF107991999999999999999999MA1100911999999MW1101REMMET056METAR EDJA 121520Z 06007KT 5000 BR BKN009 M04/M05 Q1009;
0131109470999992010011215504+47983+010233FM-15+0629EDJA V0200701N003610024019N0049001N1-00401-00501999999ADDGA1071+002401999GF107991999999999999999999MA1100811999999MW1101REMMET056METAR EDJA 121550Z 07007KT 4900 BR BKN008 M04/M05 Q1008;
0131109470999992010011216204+47983+010233FM-15+0629EDJA V0200701N003610021019N0050001N1-00401-00501999999ADDGA1071+002101999GF107991999999999999999999MA1100811999999MW1101REMMET056METAR EDJA 121620Z 07007KT 5000 BR BKN007 M04/M05 Q1008;
0131109470999992010011216504+47983+010233FM-15+0629EDJA V0200701N004110015019N0048001N1-00401-00501999999ADDGA1071+001501999GF107991999999999999999999MA1100811999999MW1101REMMET056METAR EDJA 121650Z 07008KT 4800 BR BKN005 M04/M05 Q1008;
0131109470999992010011217204+47983+010233FM-15+0629EDJA V0200701N004110015019N0048001N1-00401-00501999999ADDGA1071+001501999GF107991999999999999999999MA1100711999999MW1101REMMET056METAR EDJA 121720Z 07008KT 4800 BR BKN005 M04/M05 Q1007;
0139109470999992010011217504+47983+010233FM-15+0629EDJA V0200801N004110015019N0041001N1-00401-00501999999ADDGA1071+001501999GF107991999999999999999999MA1100711999999MW1101REMMET064METAR EDJA 121750Z 08008KT 050V110 4100 BR BKN005 M04/M05 Q1007;
0139109470999992010011218204+47983+010233FM-15+0629EDJA V0200701N003610015019N0050001N1-00401-00501999999ADDGA1071+001501999GF107991999999999999999999MA1100711999999MW1101REMMET064METAR EDJA 121820Z 07007KT 040V110 5000 BR BKN005 M04/M05 Q1007;
0139109470999992010011218504+47983+010233FM-15+0629EDJA V0200801N003610015019N0044001N1-00401-00501999999ADDGA1071+001501999GF107991999999999999999999MA1100611999999MW1101REMMET064METAR EDJA 121850Z 08007KT 040V110 4400 BR BKN005 M04/M05 Q1006;
0131109470999992010011219204+47983+010233FM-15+0629EDJA V0200801N003610015019N0044001N1-00401-00501999999ADDGA1071+001501999GF107991999999999999999999MA1100611999999MW1101REMMET056METAR EDJA 121920Z 08007KT 4400 BR BKN005 M04/M05 Q1006;
0131109470999992010011219504+47983+010233FM-15+0629EDJA V0200801N003110015019N0042001N1-00401-00501999999ADDGA1071+001501999GF107991999999999999999999MA1100611999999MW1101REMMET056METAR EDJA 121950Z 08006KT 4200 BR BKN005 M04/M05 Q1006;
0131109470999992010011220204+47983+010233FM-15+0629EDJA V0200801N002610015019N0041001N1-00401-00501999999ADDGA1071+001501999GF107991999999999999999999MA1100611999999MW1101REMMET056METAR EDJA 122020Z 08005KT 4100 BR BKN005 M04/M05 Q1006;
0131109470999992010011304504+47983+010233FM-15+0629EDJA V0209999V001010012019N0040001N1-00601-00701999999ADDGA1071+001201999GF107991999999999999999999MA1100311999999MW1101REMMET056METAR EDJA 130450Z VRB02KT 4000 BR BKN004 M06/M07 Q1003;
0131109470999992010011305204+47983+010233FM-15+0629EDJA V0209999V001010015019N0040001N1-00601-00701999999ADDGA1071+001501999GF107991999999999999999999MA1100311999999MW1101REMMET056METAR EDJA 130520Z VRB02KT 4000 BR BKN005 M06/M07 Q1003;
0131109470999992010011305504+47983+010233FM-15+0629EDJA V0200701N001510012019N0040001N1-00701-00701999999ADDGA1071+001201999GF107991999999999999999999MA1100311999999MW1101REMMET056METAR EDJA 130550Z 07003KT 4000 BR BKN004 M07/M07 Q1003;
0131109470999992010011306204+47983+010233FM-15+0629EDJA V0200801N001510012019N0040001N1-00701-00701999999ADDGA1071+001201999GF107991999999999999999999MA1100411999999MW1101REMMET056METAR EDJA 130620Z 08003KT 4000 BR BKN004 M07/M07 Q1004;
0131109470999992010011306504+47983+010233FM-15+0629EDJA V0200801N001510009019N0035001N1-00701-00701999999ADDGA1071+000901999GF107991999999999999999999MA1100411999999MW1101REMMET056METAR EDJA 130650Z 08003KT 3500 BR BKN003 M07/M07 Q1004;
0131109470999992010011307204+47983+010233FM-15+0629EDJA V0209999V001012200019N0030001N1-00701-00701999999ADDGF100991999999999999999999MA1100411999999MW1101REMMET053METAR EDJA 130720Z VRB02KT 3000 BR NSC M07/M07 Q1004;EQDQ01    003SCCGA1
0131109470999992010011307504+47983+010233FM-15+0629EDJA V0200801N001012200019N0025001N1-00701-00701999999ADDGF100991999999999999999999MA1100411999999MW1101REMMET053METAR EDJA 130750Z 08002KT 2500 BR NSC M07/M07 Q1004;EQDQ01    003SCCGA1
0131109470999992010011308204+47983+010233FM-15+0629EDJA V0200701N001512200019N0025001N1-00701-00801999999ADDGF100991999999999999999999MA1100511999999MW1101REMMET053METAR EDJA 130820Z 07003KT 2500 BR NSC M07/M08 Q1005;EQDQ01    003SCCGA1
0131109470999992010011308504+47983+010233FM-15+0629EDJA V0200701N002112200019N0035001N1-00601-00701999999ADDGF100991999999999999999999MA1100511999999MW1101REMMET053METAR EDJA 130850Z 07004KT 3500 BR NSC M06/M07 Q1005;EQDQ01    003SCCGA1
0131109470999992010011309204+47983+010233FM-15+0629EDJA V0209999V001012200019N0040001N1-00601-00601999999ADDGF100991999999999999999999MA1100511999999MW1101REMMET053METAR EDJA 130920Z VRB02KT 4000 BR NSC M06/M06 Q1005;EQDQ01    003SCCGA1
0131109470999992010011309504+47983+010233FM-15+0629EDJA V0209999V001012200019N0045001N1-00501-00601999999ADDGF100991999999999999999999MA1100511999999MW1101REMMET053METAR EDJA 130950Z VRB02KT 4500 BR NSC M05/M06 Q1005;EQDQ01    003SCCGA1
0131109470999992010011310204+47983+010233FM-15+0629EDJA V0200301N001012200019N0030001N1-00501-00601999999ADDGF100991999999999999999999MA1100511999999MW1101REMMET053METAR EDJA 131020Z 03002KT 3000 BR NSC M05/M06 Q1005;EQDQ01    003SCCGA1
0131109470999992010011310504+47983+010233FM-15+0629EDJA V0200501N001012200019N0047001N1-00501-00601999999ADDGF100991999999999999999999MA1100511999999MW1101REMMET053METAR EDJA 131050Z 05002KT 4700 BR NSC M05/M06 Q1005;EQDQ01    003SCCGA1
0131109470999992010011311204+47983+010233FM-15+0629EDJA V0202701N001012200019N0049001N1-00501-00601999999ADDGF100991999999999999999999MA1100511999999MW1101REMMET053METAR EDJA 131120Z 27002KT 4900 BR NSC M05/M06 Q1005;EQDQ01    003SCCGA1
0131109470999992010011312204+47983+010233FM-15+0629EDJA V0209999V000512200019N0045001N1-00301-00601999999ADDGF100991999999999999999999MA1100511999999MW1101REMMET053METAR EDJA 131220Z VRB01KT 4500 BR NSC M03/M06 Q1005;EQDQ01    003SCCGA1
0131109470999992010011312504+47983+010233FM-15+0629EDJA V0209999C000012200019N0035001N1-00301-00501999999ADDGF100991999999999999999999MA1100511999999MW1101REMMET053METAR EDJA 131250Z 00000KT 3500 BR NSC M03/M05 Q1005;EQDQ01    003SCCGA1
0154109470999992010011313204+47983+010233FM-15+0629EDJA V0200801N001012200019N0040001N1-00301-00501999999ADDGA1041+006001999GA2041+009001999GF104991999999999999999999MA1100611999999MW1101REMMET063METAR EDJA 131320Z 08002KT 4000 BR SCT020 SCT030 M03/M05 Q1006;
0141109470999992010011314504+47983+010233FM-15+0629EDJA V0209999V000510039019N0014001N1-00301-00401999999ADDGA1071+003901999GF107991999999999999999999MA1100611999999MW1101MW2711REMMET060METAR EDJA 131450Z VRB01KT 1400 -SN BR BKN013 M03/M04 Q1006;
0141109470999992010011315204+47983+010233FM-15+0629EDJA V0209999V000510057019N0014001N1-00301-00301999999ADDGA1071+005701999GF107991999999999999999999MA1100611999999MW1101MW2711REMMET060METAR EDJA 131520Z VRB01KT 1400 -SN BR BKN019 M03/M03 Q1006;
0141109470999992010011315504+47983+010233FM-15+0629EDJA V0209999V001010036019N0014001N1-00201-00301999999ADDGA1071+003601999GF107991999999999999999999MA1100611999999MW1101MW2791REMMET060METAR EDJA 131550Z VRB02KT 1400 -PL BR BKN012 M02/M03 Q1006;
0141109470999992010011316204+47983+010233FM-15+0629EDJA V0209999V001010060019N0015001N1-00201-00201999999ADDGA1071+006001999GF107991999999999999999999MA1100611999999MW1101MW2711REMMET060METAR EDJA 131620Z VRB02KT 1500 -SN BR BKN020 M02/M02 Q1006;
0132109470999992010011317204+47983+010233FM-15+0629EDJA V0209999V001510024019N0020001N1-00201-00201999999ADDGA1071+002401999GF107991999999999999999999MA1100611999999MW1711REMMET057METAR EDJA 131720Z VRB03KT 2000 -SN BKN008 M02/M02 Q1006;
0132109470999992010011318204+47983+010233FM-15+0629EDJA V0202301N001510024019N0025001N1-00101-00101999999ADDGA1071+002401999GF107991999999999999999999MA1100711999999MW1711REMMET057METAR EDJA 131820Z 23003KT 2500 -SN BKN008 M01/M01 Q1007;
0153109470999992010011319204+47983+010233FM-15+0629EDJA V0202401N002610015019N0011001N1+00001-00101999999ADDED199U15009GA1071+001501999GF107991999999999999999999MA1100711999999MW1731REMMET067METAR EDJA 131920Z 24005KT 1100 R06/P1500N SN BKN005 M00/M01 Q1007;
0152109470999992010011319504+47983+010233FM-15+0629EDJA V0209999V001510021019N0013001N1+00001+00001999999ADDED199U15009GA1071+002101999GF107991999999999999999999MA1100711999999MW1731REMMET066METAR EDJA 131950Z VRB03KT 1300 R06/P1500U SN BKN007 00/M00 Q1007;
0130109470999992010011320504+47983+010233FM-15+0629EDJA V0202301N003110024019N0030001N1+00001+00001999999ADDGA1071+002401999GF107991999999999999999999MA1100711999999MW1711REMMET055METAR EDJA 132050Z 23006KT 3000 -SN BKN008 00/00 Q1007;
0152109470999992010011404504+47983+010233FM-15+0629EDJA V0200601N002610003019N0017001N1+00001+00001999999ADDGA1071+000301999GA2071+004501999GF107991999999999999999999MA1100611999999MW1101REMMET061METAR EDJA 140450Z 06005KT 1700 BR BKN001 BKN015 00/00 Q1006;
0150109470999992010011405204+47983+010233FM-15+0629EDJA V0200401N002110006019N0005501N1+00001+00001999999ADDED199U06509GA1071+000601999GF107991999999999999999999MA1100611999999MW1101REMMET064METAR EDJA 140520Z 04004KT 0550 R06/0650N BR BKN002 00/00 Q1006;
0143109470999992010011405504+47983+010233FM-15+0629EDJA V0200501N00261000151CN0007501N1+00001+00001999999ADDGA1091+000151999GF109991999999000251999999MA1100611999999MW1101REMMET068METAR EDJA 140550Z 05005KT 0750 R06/0500V0750D BR VV/// 00/00 Q1006;
0147109470999992010011406204+47983+010233FM-15+0629EDJA V0200401N00211000151CN0006501N1+00001+00001999999ADDGA1091+000151999GF109991999999000251999999MA1100611999999MW1411REMMET072METAR EDJA 140620Z 04004KT 0650 R06/0400V0750D BCFG VV/// M00/M00 Q1006;
0145109470999992010011406504+47983+010233FM-15+0629EDJA V0200301N00211000151CN0007501N1+00001+00001999999ADDGA1091+000151999GF109991999999000251999999MA1100611999999MW1451REMMET070METAR EDJA 140650Z 03004KT 0750 R06/0800V1300U FG VV/// M00/M00 Q1006;
0151109470999992010011407204+47983+010233FM-15+0629EDJA V0200501N00261000151CN0006501N1+00001+00001999999ADDED199U08009GA1091+000151999GF109991999999000251999999MA1100611999999MW1451REMMET065METAR EDJA 140720Z 05005KT 0650 R06/0800U FG VV/// M00/M00 Q1006;
0145109470999992010011407504+47983+010233FM-15+0629EDJA V0200501N00261000151CN0009001N1+00001+00001999999ADDGA1091+000151999GF109991999999000251999999MA1100611999999MW1451REMMET070METAR EDJA 140750Z 05005KT 0900 R06/0800V1500U FG VV/// M00/M00 Q1006;
0151109470999992010011408204+47983+010233FM-15+0629EDJA V0200501N00311000151CN0005501N1+00001+00001999999ADDED199U08009GA1091+000151999GF109991999999000251999999MA1100611999999MW1451REMMET065METAR EDJA 140820Z 05006KT 0550 R06/0800N FG VV/// M00/M00 Q1006;
0133109470999992010011408504+47983+010233FM-15+0629EDJA V0200601N003610003019N0009001N1+00001+00001999999ADDGA1071+000301999GF107991999999999999999999MA1100611999999MW1481REMMET058METAR EDJA 140850Z 06007KT 0900 FZFG BKN001 M00/M00 Q1006;
0131109470999992010011409204+47983+010233FM-15+0629EDJA V0200601N003110006019N0010001N1+00001+00001999999ADDGA1071+000601999GF107991999999999999999999MA1100611999999MW1101REMMET056METAR EDJA 140920Z 06006KT 1000 BR BKN002 M00/M00 Q1006;
0131109470999992010011409504+47983+010233FM-15+0629EDJA V0200601N002610009019N0015001N1+00001+00001999999ADDGA1071+000901999GF107991999999999999999999MA1100611999999MW1101REMMET056METAR EDJA 140950Z 06005KT 1500 BR BKN003 M00/M00 Q1006;
0131109470999992010011410204+47983+010233FM-15+0629EDJA V0200501N003110012019N0015001N1+00001+00001999999ADDGA1071+001201999GF107991999999999999999999MA1100511999999MW1101REMMET056METAR EDJA 141020Z 05006KT 1500 BR BKN004 M00/M00 Q1005;
0130109470999992010011410504+47983+010233FM-15+0629EDJA V0200501N003110015019N0022001N1+00001+00001999999ADDGA1071+001501999GF107991999999999999999999MA1100511999999MW1101REMMET055METAR EDJA 141050Z 05006KT 2200 BR BKN005 00/M00 Q1005;
0130109470999992010011411204+47983+010233FM-15+0629EDJA V0200501N003610018019N0030001N1+00001+00001999999ADDGA1071+001801999GF107991999999999999999999MA1100511999999MW1101REMMET055METAR EDJA 141120Z 05007KT 3000 BR BKN006 00/M00 Q1005;
0130109470999992010011411504+47983+010233FM-15+0629EDJA V0200601N003610021019N0030001N1+00001+00001999999ADDGA1071+002101999GF107991999999999999999999MA1100511999999MW1101REMMET055METAR EDJA 141150Z 06007KT 3000 BR BKN007 00/M00 Q1005;
0130109470999992010011412504+47983+010233FM-15+0629EDJA V0200601N003610015019N0035001N1+00001-00101999999ADDGA1071+001501999GF107991999999999999999999MA1100511999999MW1101REMMET055METAR EDJA 141250Z 06007KT 3500 BR BKN005 00/M01 Q1005;
0131109470999992010011413204+47983+010233FM-15+0629EDJA V0200601N004110012019N0035001N1+00001-00101999999ADDGA1071+001201999GF107991999999999999999999MA1100411999999MW1101REMMET056METAR EDJA 141320Z 06008KT 3500 BR BKN004 M00/M01 Q1004;
0131109470999992010011413504+47983+010233FM-15+0629EDJA V0200601N004610015019N0030001N1+00001-00101999999ADDGA1071+001501999GF107991999999999999999999MA1100411999999MW1101REMMET056METAR EDJA 141350Z 06009KT 3000 BR BKN005 M00/M01 Q1004;
0131109470999992010011414204+47983+010233FM-15+0629EDJA V0200601N004110012019N0025001N1-00101-00101999999ADDGA1071+001201999GF107991999999999999999999MA1100511999999MW1101REMMET056METAR EDJA 141420Z 06008KT 2500 BR BKN004 M01/M01 Q1005;
0131109470999992010011415204+47983+010233FM-15+0629EDJA V0200701N004110012019N0030001N1-00101-00101999999ADDGA1071+001201999GF107991999999999999999999MA1100511999999MW1101REMMET056METAR EDJA 141520Z 07008KT 3000 BR BKN004 M01/M01 Q1005;
0131109470999992010011415504+47983+010233FM-15+0629EDJA V0200701N003610015019N0035001N1-00101-00101999999ADDGA1071+001501999GF107991999999999999999999MA1100511999999MW1101REMMET056METAR EDJA 141550Z 07007KT 3500 BR BKN005 M01/M01 Q1005;
0139109470999992010011416204+47983+010233FM-15+0629EDJA V0200601N003610009019N0020001N1-00101-00201999999ADDGA1071+000901999GF107991999999999999999999MA1100511999999MW1101REMMET064METAR EDJA 141620Z 06007KT 030V090 2000 BR BKN003 M01/M02 Q1005;
0131109470999992010011416504+47983+010233FM-15+0629EDJA V0200501N004110009019N0020001N1-00201-00201999999ADDGA1071+000901999GF107991999999999999999999MA1100511999999MW1101REMMET056METAR EDJA 141650Z 05008KT 2000 BR BKN003 M02/M02 Q1005;
0131109470999992010011417504+47983+010233FM-15+0629EDJA V0200501N004110009019N0029001N1-00201-00301999999ADDGA1071+000901999GF107991999999999999999999MA1100611999999MW1101REMMET056METAR EDJA 141750Z 05008KT 2900 BR BKN003 M02/M03 Q1006;
0131109470999992010011418204+47983+010233FM-15+0629EDJA V0200601N003610012019N0030001N1-00301-00301999999ADDGA1071+001201999GF107991999999999999999999MA1100711999999MW1101REMMET056METAR EDJA 141820Z 06007KT 3000 BR BKN004 M03/M03 Q1007;
0131109470999992010011418504+47983+010233FM-15+0629EDJA V0200501N004110012019N0030001N1-00301-00301999999ADDGA1071+001201999GF107991999999999999999999MA1100711999999MW1101REMMET056METAR EDJA 141850Z 05008KT 3000 BR BKN004 M03/M03 Q1007;
0153109470999992010011419504+47983+010233FM-15+0629EDJA V0200501N004110006019N0011001N1-00301-00301999999ADDED199U15009GA1071+000601999GF107991999999999999999999MA1100811999999MW1101REMMET067METAR EDJA 141950Z 05008KT 1100 R06/P1500N BR BKN002 M03/M03 Q1008;
0132109470999992010011504504+47983+010233FM-15+0629EDJA V0200501N00211000151CN0005001N1-00401-00401999999ADDGA1091+000151999GF109991999999000251999999MA1101391999999MW1491REMMET057METAR EDJA 150450Z 05004KT 0500 FZFG VV/// M04/M04 Q1014;
0132109470999992010011505204+47983+010233FM-15+0629EDJA V0200401N00311000151CN0005001N1-00401-00401999999ADDGA1091+000151999GF109991999999000251999999MA1101491999999MW1491REMMET057METAR EDJA 150520Z 04006KT 0500 FZFG VV/// M04/M04 Q1015;
0132109470999992010011505504+47983+010233FM-15+0629EDJA V0200401N00211000151CN0006001N1-00401-00401999999ADDGA1091+000151999GF109991999999000251999999MA1101591999999MW1491REMMET057METAR EDJA 150550Z 04004KT 0600 FZFG VV/// M04/M04 Q1016;
0154109470999992010011506204+47983+010233FM-15+0629EDJA V0200301N00261000151CN0006001N1-00401-00401999999ADDED199U15009GA1091+000151999GF109991999999000251999999MA1101591999999MW1491REMMET068METAR EDJA 150620Z 03005KT 0600 R06/P1500D FZFG VV/// M04/M04 Q1016;
0132109470999992010011506504+47983+010233FM-15+0629EDJA V0200301N00211000151CN0006001N1-00401-00401999999ADDGA1091+000151999GF109991999999000251999999MA1101691999999MW1491REMMET057METAR EDJA 150650Z 03004KT 0600 FZFG VV/// M04/M04 Q1017;
0154109470999992010011507204+47983+010233FM-15+0629EDJA V0200201N00151000151CN0005001N1-00401-00401999999ADDED199U15009GA1091+000151999GF109991999999000251999999MA1101691999999MW1491REMMET068METAR EDJA 150720Z 02003KT 0500 R06/P1500U FZFG VV/// M04/M04 Q1017;
0147109470999992010011507504+47983+010233FM-15+0629EDJA V0200501N00101000151CN0004001N1-00401-00401999999ADDGA1091+000151999GF109991999999000251999999MA1101691999999MW1491REMMET072METAR EDJA 150750Z 05002KT 0400 R06/0800V1100N FZFG VV/// M04/M04 Q1017;
0153109470999992010011508204+47983+010233FM-15+0629EDJA V0200201N00101000151CN0005001N1-00401-00401999999ADDED199U14009GA1091+000151999GF109991999999000251999999MA1101801999999MW1491REMMET067METAR EDJA 150820Z 02002KT 0500 R06/1400D FZFG VV/// M04/M04 Q1018;
0159109470999992010011508504+47983+010233FM-15+0629EDJA V0209999V00101000151CN0007001N1-00301-00401999999ADDED199U14009GA1091+000151999GF109991999999000251999999MA1101801999999MW1491REMMET073METAR EDJA 150850Z VRB02KT 0700 R06/1400D -SHSN FZFG VV/// M03/M04 Q1018;
0149109470999992010011509204+47983+010233FM-15+0629EDJA V0200301N001010009019N0007001N1-00301-00301999999ADDGA1071+000901999GF107991999999999999999999MA1101801999999MW1481REMMET074METAR EDJA 150920Z 03002KT 0700 R06/1100VP1500U FZFG BKN003 M03/M03 Q1018;
0153109470999992010011509504+47983+010233FM-15+0629EDJA V0209999V001010009019N0011001N1-00301-00301999999ADDED199U15009GA1071+000901999GF107991999999999999999999MA1101901999999MW1101REMMET067METAR EDJA 150950Z VRB02KT 1100 R06/P1500N BR BKN003 M03/M03 Q1019;
0153109470999992010011510204+47983+010233FM-15+0629EDJA V0200301N000510012019N0011001N1-00301-00301999999ADDED199U15009GA1071+001201999GF107991999999999999999999MA1101901999999MW1101REMMET067METAR EDJA 151020Z 03001KT 1100 R06/P1500U BR BKN004 M03/M03 Q1019;
